PL6.E3A0      #001=XUP$PARTRGE File=XUP$PARTRGE.:E05TSI                          WED 07/30/97 09:39 Page:1
        1        1        /*M* XUP$PARTRGE - M$PARSE NODE BUILDER */
        2        2        /*T***********************************************************/
        3        3        /*T*                                                         */
        4        4        /*T* Copyright (c) Bull HN Information Systems Inc., 1997    */
        5        5        /*T*                                                         */
        6        6        /*T***********************************************************/
        7        7        /*X*MCL=0,MOC,MEC,CLM=12,EXM=12,CRT=6,DMR,PLM=3,IND=3,ENU=0,DCI=3,CSU=3,ECU=3,THI=0,
                 7        DTI=0*/
        8        8        XUP$PARTRGE: PROC MAIN;
        9        9                    /* INCLUDES:*/
       10       10        %INCLUDE B$JIT;
       11      613        %INCLUDE B_MICROPS_C;
       12      785        %INCLUDE B$OBJECT_C;
       13     4215        %INCLUDE CP_6;
       14     9774        %INCLUDE CP_6_SUBS;
       15    10314        %INCLUDE XU_MACRO_C;
       16    13420        %INCLUDE XU_SUBS_C;
       17    13512        %INCLUDE XU_PERR_C;
       18    13703        %INCLUDE XUO$ENTRIES;
       19    13754        %INCLUDE XUX$INTERFACE_M;
       20    14531        %INCLUDE ZQ$INTERFACE_M;
       21    15079        %B$TCB(STCLASS="BASED(B$TCB$)");
       22    15082        %B$ALT;
       23    15090        %B$RELOCSUBS;
       24    15120        %B$SECTIONSUBS;
       25    15135        %COMPILERIDSUBS;
       26    15151        %VREBLSUBS;
       27    15159        %VREBL_DATATYPES;
       28    15234        %SUB_CST;
       29    15250                    /* STATIC DATA */
       30    15251    1   DCL 1 TEXT STATIC,
       31    15252    1         2 LINE UBIN,
       32    15253    1         2 SIKEY UBIN(27)UNAL,
       33    15254    1         2 UPC CHAR(1),
       34    15255    1         2 T CHAR(120)INIT(' '),
       35    15256    1         2 M REDEF T,
       36    15257    1           3 ID CHAR(8),
PL6.E3A0      #001=XUP$PARTRGE File=XUP$PARTRGE.:E05TSI                          WED 07/30/97 09:39 Page:2
       37    15258    1           3 L# CHAR(8),
       38    15259    1           3 LP CHAR(2),
       39    15260    1           3 S# CHAR(5),
       40    15261    1           3 DOT CHAR(1),
       41    15262    1           3 SD# CHAR(3),
       42    15263    1           3 RP CHAR(93);
       43    15264    1   DCL 1 LINES(0:0)BASED(WORK_.P$)ALIGNED,
       44    15265    1         2 CPOS UBIN(18)UNAL,
       45    15266    1         2 L# UBIN(18)UNAL,
       46    15267    1         2 S# SBIN(27)UNAL,
       47    15268    1         2 UPC CHAR(1);
       48    15269        %MACRO REC(NAME=);
       49    15270        DCL 1 NAME STATIC SYMDEF DALIGNED,
       50    15271              2 SIZE UBIN(18) UNAL,
       51    15272              2 FIRST$ PTR INIT(ADDR(NIL)),
       52    15273              2 SEG REDEF FIRST$,
       53    15274                3 * BIT(18),
       54    15275                3 SEG UBIN(18) UNAL,
       55    15276              2 F$SBIN REDEF FIRST$ SBIN,
       56    15277              2 P$ PTR,
       57    15278              2 P$SBIN REDEF P$ SBIN,
       58    15279              2 NEXT$ PTR,
       59    15280              2 N$SBIN REDEF NEXT$ SBIN;
       60    15281        %MEND;
       61    15282        %P_PCB(R=OPTIONS);
       62    15481        %FPT_READ (DCB=M$NS, BUF=ZQ$NS_BUFFER);
       63    15520        %FPT_WRITE(FPTN=LOFPT,DCB=M$LO,BUF=TEXT.T);
       64    15551        %FPT_READ (FPTN=READ_LIST, DCB=M$LIST, BUF=ZQ$LS_BUFFER);
       65    15590        %FPT_READ (FPTN=READ_DIAG, DCB=M$DIAG, BUF=ZQ$DIAG_BUFFER);
       66    15629        %FPT_WRITE (FPTN=WRITE_LS, DCB=M$LO, BUF=LS_BUFFER, VFC=YES);
       67    15660        %FPT_WRITE (FPTN=WRITE_BLANK, DCB=M$LO, BUF=ONE_BLANK, STCLASS=CONSTANT);
       68    15691        %FPT_WRITE (FPTN=WRITE_SALUTATION, DCB=M$ME, BUF=SALUTATION);
       69    15722        %FPT_REW (FPTN=REWIND_PP_FILE);
       70    15737        %PARSE$OUT;
       71    15782        %PARSE$SYM;
       72    15820        %FPT_OPEN (FPTN=OUOPN, DCB=M$LO, FUN=CREATE, ACS=DIRECT);
       73    15929        %FPT_OPEN (FPTN=SIOPN, STCLASS=CONSTANT, DCB=M$SI, FUN=IN, ASN=FILE,
PL6.E3A0      #001=XUP$PARTRGE File=XUP$PARTRGE.:E05TSI                          WED 07/30/97 09:39 Page:3
       74    15930                   SETDCB=YES, NAME=KEYINSI);
       75    16039        %FPT_OPEN (FPTN=COREOPN, STCLASS=CONSTANT, DCB=M$CORE, FUN=CREATE,
       76    16040                   DISP=NAMED, SETDCB=YES, NAME=KEYINOU);
       77    16149        %FPT_WRITE(DCB=M$CORE,KEY=COREKEY,FPTN=COREFPT);
       78    16180        %FPT_CLOSE(FPTN=OUCLS,DCB=M$OU,DISP=SAVE);
       79    16222        %FPT_CLOSE (FPTN=CLOSE_LIST, DCB=M$LIST, DISP=SAVE, STCLASS=CONSTANT);
       80    16264        %FPT_CLOSE (FPTN=CLOSE_DIAG, DCB=M$DIAG, DISP=SAVE, STCLASS=CONSTANT);
       81    16306        %FPT_CLOSE (FPTN=CLOSE_NS, DCB=M$NS, DISP=SAVE, STCLASS=CONSTANT);
       82    16348        %FPT_GDS(FPTN=NODEFPT,STCLASS="STATIC  SYMDEF",
       83    16349        RESULTS=NODE_,SEGSIZE=1024,COMMON=YES);
       84    16365        %FPT_GDS(FPTN=SYMFPT,STCLASS="STATIC  SYMDEF",RESULTS=SYM_,SEGSIZE=256);
       85    16381        %FPT_GDS(FPTN=WORKFPT,STCLASS="STATIC SYMDEF",RESULTS=WORK_,SEGSIZE=256);
       86    16397        %VLP_NAME(FPTN=KEYINSI,NAME='OC_KEY_S',STCLASS=CONSTANT);
       87    16424        %VLP_NAME(FPTN=KEYINOU,NAME=':OCKEY',STCLASS=CONSTANT);
       88    16451        %F$DCB;
       89    16508        %FPT_ERRMSG(FPTN=EFPT,CODE=ERCODE,BUF=TEXT.T);
       90    16535        %FPT_CORRES(FPTN=CORR,DCB1=M$LO,DCB2=M$DO,STCLASS=CONSTANT);
       91    16549        %FPT_DEVICE(FPTN=TOPAGE,DCB=M$LO,HDR=LOHDR);
       92    16567        %VLP_HDR(FPTN=LOHDR,HEADERHEIGHT=2,LEN=108,RESETPAGE=YES);
       93    16583        %FPT_TIME(FPTN=HTIM,DATE=TITL.DAT,TIME=TITL.TIM);
       94    16602        %FPT_EXIT(FPTN=ERRXIT,STCLASS=CONSTANT,STEPCC=ERROR);
       95    16617        %FPT_FID (RESULTS=VLR_FID);
       96    16640        %VLR_FID;
       97    16659        %XUU_PARAM (FPTN=OPEN_FILES, STCLASS=STATIC, BASE=YES, DCB="DCBNUM(M$LO)",
       98    16660                    BLANK_FILL=YES);
       99    17095        %XUU_PARAM (FPTN=CLOSE_FILES, STCLASS=STATIC, CLOSE_ALL=YES);
      100    17530        %ZQ$PREPROC_PARAM (NAME=PREPROC, STCLASS=STATIC);
      101    17849        %ZQ$RECNO (NAME=PARTRGE$RECNO, STCLASS=STATIC SYMDEF);
      102    17852        %ZQ$INPUT_KEY (NAME=PARTRGE$INPUT_KEY, STCLASS=STATIC SYMDEF);
      103    17865        %ZQ$NS_BUFFER (STCLASS=STATIC);
      104    17891        %ZQ$LS_BUFFER (STCLASS=STATIC);
      105    17949        %ZQ$LS_BUFFER (NAME=ZQ$DIAG_BUFFER, STCLASS=STATIC);
      106    18007    1   DCL 1 B_VERSION SYMREF,
      107    18008    1         2 LEN UBIN BYTE CALIGNED,
      108    18009    1         2 TEXT CHAR (B_VERSION.LEN);
      109    18010    1   DCL 1 TITL STATIC,
      110    18011    1         2 * CHAR (0) INIT ('PARTRGE version '),
PL6.E3A0      #001=XUP$PARTRGE File=XUP$PARTRGE.:E05TSI                          WED 07/30/97 09:39 Page:4
      111    18012    1         2 VERS CHAR (4) INIT ('C100'),
      112    18013    1         2 * CHAR (1) INIT (' '),
      113    18014    1         2 HDR CHAR (20) INIT ('Source listing'),
      114    18015    1         2 TIM CHAR(12)INIT(' '),
      115    18016    1         2 DAT CHAR(11)INIT(' '),
      116    18017    1         2 FILE CHAR(31);
      117    18018    1   DCL TITC REDEF TITL CHAR (95);
      118    18019    1   DCL 1 LS_BUFFER STATIC,
      119    18020    1         2 VFC CHAR (1),
      120    18021    1         2 PRINT_BUFFER CHAR (132);
      121    18022    1   DCL 1 SALUTATION STATIC,
      122    18023    1         2 * CHAR (0) INIT ('PARTRGE version '),
      123    18024    1         2 VERS CHAR (4),
      124    18025    1         2 * CHAR (0) INIT (' here at '),
      125    18026    1         2 TIM CHAR (12),
      126    18027    1         2 DAT CHAR (12);
      127    18028        %LIST;
      128    18029        %REC (NAME=WORK_);
             18030    1   DCL 1 NAME STATIC SYMDEF DALIGNED,
             18031    1         2 SIZE UBIN(18) UNAL,
             18032    1         2 FIRST$ PTR INIT(ADDR(NIL)),
             18033    1         2 SEG REDEF FIRST$,
             18034    1           3 * BIT(18),
             18035    1           3 SEG UBIN(18) UNAL,
             18036    1         2 F$SBIN REDEF FIRST$ SBIN,
             18037    1         2 P$ PTR,
             18038    1         2 P$SBIN REDEF P$ SBIN,
             18039    1         2 NEXT$ PTR,
             18040    1         2 N$SBIN REDEF NEXT$ SBIN;
      129    18042        %REC (NAME=NODE_);
             18043    1   DCL 1 NAME STATIC SYMDEF DALIGNED,
             18044    1         2 SIZE UBIN(18) UNAL,
             18045    1         2 FIRST$ PTR INIT(ADDR(NIL)),
             18046    1         2 SEG REDEF FIRST$,
             18047    1           3 * BIT(18),
             18048    1           3 SEG UBIN(18) UNAL,
             18049    1         2 F$SBIN REDEF FIRST$ SBIN,
PL6.E3A0      #001=XUP$PARTRGE File=XUP$PARTRGE.:E05TSI                          WED 07/30/97 09:39 Page:5
             18050    1         2 P$ PTR,
             18051    1         2 P$SBIN REDEF P$ SBIN,
             18052    1         2 NEXT$ PTR,
             18053    1         2 N$SBIN REDEF NEXT$ SBIN;
      130    18055        %REC (NAME=SYM_);
             18056    1   DCL 1 NAME STATIC SYMDEF DALIGNED,
             18057    1         2 SIZE UBIN(18) UNAL,
             18058    1         2 FIRST$ PTR INIT(ADDR(NIL)),
             18059    1         2 SEG REDEF FIRST$,
             18060    1           3 * BIT(18),
             18061    1           3 SEG UBIN(18) UNAL,
             18062    1         2 F$SBIN REDEF FIRST$ SBIN,
             18063    1         2 P$ PTR,
             18064    1         2 P$SBIN REDEF P$ SBIN,
             18065    1         2 NEXT$ PTR,
             18066    1         2 N$SBIN REDEF NEXT$ SBIN;
      131    18068        %PLIST;
      132    18069                    /* OTHER DCLS */
      133    18070    1   DCL X$PARSE ENTRY(1) ALTRET;
      134    18071    1   DCL XUU$OPEN ENTRY (1) ALTRET;
      135    18072    1   DCL XUU$CLOSE ENTRY (1) ALTRET;
      136    18073    1   DCL XUP$PARTRGE_PREPROC_ERROR ENTRY (11);
      137    18074    1   DCL PARTRGE_MON_ERROR ENTRY (4);
      138    18075    1   DCL XUP$PARTRGE_XUO_ERROR ENTRY (1);
      139    18076    1   DCL XUP$BLDOPT ENTRY(1);
      140    18077    1   DCL XUP$BLDNODE ENTRY(2) ALTRET;
      141    18078    1   DCL XUP$BLDSYM ENTRY(2) ALTRET;
      142    18079    1   DCL PARTRGE_CMD SYMREF SBIN;
      143    18080    1   DCL 1 NODECODE STATIC SYMDEF,
      144    18081    1         2 TYPE UBIN (3) UNAL,
      145    18082    1         2 PRE_F BIT(1),
      146    18083    1         2 SUCC_F BIT(1),
      147    18084    1         2 FAIL_F BIT(1),
      148    18085    1         2 OUT_F  BIT(1),
      149    18086    1         2 OPT BIT(1) UNAL,
      150    18087    1         2 RPEAT BIT(1),
      151    18088    1         2 SKBL BIT(1),
PL6.E3A0      #001=XUP$PARTRGE File=XUP$PARTRGE.:E05TSI                          WED 07/30/97 09:39 Page:6
      152    18089    1         2 RTEXT BIT(1),
      153    18090    1         2 UPRLOWR BIT(1),
      154    18091    1         2 MAKEUC REDEF UPRLOWR BIT(1),
      155    18092    1         2 ABBREV UBIN(8) UNAL,
      156    18093    1         2 CODE UBIN(16) UNAL,
      157    18094    1         2 NOUT_F BIT(1),
      158    18095    1         2 * BIT(35);
      159    18096    1   DCL LITCODE SBIN STATIC SYMDEF INIT(0);
      160    18097    1   DCL LIT_PRESENT BIT(1) STATIC SYMDEF INIT ('0'B);
      161    18098    1   DCL LEXES$(0:29) STATIC SYMDEF PTR;
      162    18099    1   DCL OPTIONS UBIN SYMREF;
      163    18100    1   DCL NOCORERR REMEMBER STATIC SYMDEF;
      164    18101    1   DCL SYNTAXERR REMEMBER STATIC SYMDEF;
      165    18102    1   DCL XUOERROR REMEMBER STATIC SYMDEF;
      166    18103    1   DCL XUO_ERROR_CODE BIT (36) STATIC SYMDEF;
      167    18104        %M$DCB (DCBN=M$NS, ASN=FILE, ORG=CONSEC, FUN=CREATE, DISP=SCRATCH);
      168    18178        %M$DCB (DCBN=M$LIST, ASN=FILE, ORG=CONSEC, FUN=CREATE, DISP=SCRATCH);
      169    18252        %M$DCB (DCBN=M$DIAG, ASN=FILE, ORG=CONSEC, FUN=CREATE, DISP=SCRATCH);
      170    18326        %M$DCB (DCBN=M$LO, ASN=DEVICE, RES='LO', ORG=UR);
      171    18400    1   DCL M$DO DCB;
      172    18401    1   DCL M$OU DCB;
      173    18402    1   DCL M$CORE DCB;
      174    18403    1   DCL M$SI DCB;
      175    18404    1   DCL M$UI DCB;
      176    18405    1   DCL M$MAC DCB;
      177    18406    1   DCL M$SYSTEM DCB;
      178    18407    1   DCL M$ME DCB;
      179    18408    1   DCL B$JIT$ PTR SYMREF;
      180    18409    1   DCL B$TCB$ PTR SYMREF;
      181    18410    1   DCL CHAR1 BASED(BLK$) CHAR(1);
      182    18411    1   DCL NONBLANK_FOUND BIT (1);
      183    18412    1   DCL DATA UBIN BASED ALIGNED;
      184    18413    1   DCL BLK$ PTR;
      185    18414    1   DCL BLK$O(0:11) REDEF BLK$ UBIN(3) UNAL;
      186    18415    1   DCL SYMSZS(0:31)SBIN INIT(0*0)STATIC SYMDEF;
      187    18416    1   DCL C SBIN;
      188    18417    1   DCL I SBIN;
PL6.E3A0      #001=XUP$PARTRGE File=XUP$PARTRGE.:E05TSI                          WED 07/30/97 09:39 Page:7
      189    18418    1   DCL J SBIN;
      190    18419    1   DCL K SBIN;
      191    18420    1   DCL L SBIN;
      192    18421    1   DCL WIDTH STATIC UBIN INIT(0);
      193    18422    1   DCL 1 SYM BASED(SYM_.P$),
      194    18423    1         2 NODE$ PTR,
      195    18424    1         2 XR REDEF NODE$,
      196    18425    1           3 L# SBIN(18)UNAL,
      197    18426    1           3 D BIT(1),
      198    18427    1           3 LNK UBIN(17)UNAL,
      199    18428    1         2 VAL REDEF NODE$ SBIN,
      200    18429    1         2 VUAL(0:11) REDEF NODE$ UBIN(3)UNAL,
      201    18430    1         2 LNK REDEF NODE$,
      202    18431    1           3 * BIT(18),
      203    18432    1           3 LNK UBIN(18)UNAL,
      204    18433    1         2 DEF BIT(1),
      205    18434    1         2 USED BIT(1),
      206    18435    1         2 X BIT(1),
      207    18436    1         2 XPREF BIT (1),
      208    18437    1         2 * BIT (5),
      209    18438    1         2 PRF UBIN HALF CALIGNED,
      210    18439    1         2 C UBIN BYTE CALIGNED,
      211    18440    1         2 T CHAR(SYM.C);
      212    18441    1   DCL 1 SYMF BASED(SYM_.P$),
      213    18442    1         2 * PTR,
      214    18443    1         2 C UBIN WORD;
      215    18444    1   DCL FLINK PTR BASED;
      216    18445                    /* OUTPUT ITEMS */
      217    18446    1   DCL PGMSIZE SBIN WORD;
      218    18447    1   DCL 1 P_NAME,
      219    18448    1         2 COUNT UBIN HALF HALIGNED,
      220    18449    1         2 TEXT CHAR (31) CALIGNED;
      221    18450    1   DCL P_NAME_POINTER UBIN WORD;
      222    18451    1   DCL P_TYPE_NP UBIN;
      223    18452    1   DCL P_P_F_NP UBIN;
      224    18453    1   DCL P_S_F_NP UBIN;
      225    18454    1   DCL P_F_F_NP UBIN;
PL6.E3A0      #001=XUP$PARTRGE File=XUP$PARTRGE.:E05TSI                          WED 07/30/97 09:39 Page:8
      226    18455    1   DCL P_O_F_NP UBIN;
      227    18456    1   DCL P_OPT_NP UBIN;
      228    18457    1   DCL P_RPEAT_NP UBIN;
      229    18458    1   DCL P_SKBL_NP UBIN;
      230    18459    1   DCL P_RTEXT_NP UBIN;
      231    18460    1   DCL P_UPRLOWR_NP UBIN;
      232    18461    1   DCL P_MAKEUC_NP UBIN;
      233    18462    1   DCL P_ABBREV_NP UBIN;
      234    18463    1   DCL P_CODE_NP UBIN;
      235    18464    1   DCL P_NSUBNDS_NP UBIN;
      236    18465    1   DCL P_COUNT_NP UBIN;
      237    18466    1   DCL P_TEXT_NP UBIN;
      238    18467    1   DCL P_XTRA_NP UBIN;
      239    18468    1   DCL P_SUBNDS$_NP UBIN;
      240    18469    1   DCL P_LEXTYPE_NP UBIN;
      241    18470    1   DCL P_MAXL_NP UBIN;
      242    18471    1   DCL P_DLIM_NP UBIN;
      243    18472    1   DCL LOGBLK_NUMBER UBIN;
      244    18473    1   DCL HIGHEST_VREBL_ENTRY UBIN;
      245    18474    1   DCL HIGHEST_LINE_NUMBER UBIN;
      246    18475    1   DCL SECTION UBIN WORD;
      247    18476    1   DCL ERROR_COUNT UBIN WORD STATIC SYMDEF INIT (0);
      248    18477    1   DCL ISSID_SEGREF_NUMBER UBIN WORD;
      249    18478    1   DCL LOC_OFFSET UBIN;
      250    18479    1   DCL EMIT_STANDARD BIT (1);
      251    18480    1   DCL GENERATE_CORE_IMAGE BIT (1);
      252    18481    1   DCL GENERATE_OU BIT (1);
      253    18482    1   DCL LAST_LINE_WAS_DIAGNOSTIC BIT (1);
      254    18483    1   DCL 1 PSEUDO_POINTER ALIGNED,
      255    18484    1         2 DISP UBIN HALF HALIGNED,
      256    18485    1         2 SEG BIT (18) HALIGNED;
      257    18486    1   DCL PREPROCESSOR_ABORT BIT (1);
      258    18487    1   DCL SOMETHING_WRITTEN BIT (1);
      259    18488    1   DCL BC (0:99) BIT (1) STATIC INIT ('1'B * 0);
      260    18489    1   DCL NPREFS SBIN;
      261    18490    1   DCL TOTAL_ERRORS SBIN;
      262    18491    1   DCL ECU SBIN;
PL6.E3A0      #001=XUP$PARTRGE File=XUP$PARTRGE.:E05TSI                          WED 07/30/97 09:39 Page:9
      263    18492    1   DCL HIGHEST_BC SBIN STATIC INIT (99999);
      264    18493    1   DCL FATAL_ERROR BIT(1) STATIC INIT (%NO#);
      265    18494    1   DCL COREKEY BIT(54) CONSTANT INIT('005012000000000000'O);
      266    18495    1   DCL 1 VERSION_INFO STATIC,
      267    18496    1         2 LETTER CHAR (1) INIT ('?'),
      268    18497    1         2 NUMBER UBIN BYTE CALIGNED INIT (0);
      269    18498    1   DCL 1 DEFSYM BASED(NODE_.NEXT$),
      270    18499    1         2 VAL UBIN,
      271    18500    1         2 SYM UBIN;
      272    18501    1   DCL REFSYM(0:0) UBIN BASED(NODE_.FIRST$);
      273    18502    1   DCL 1 NODE BASED(NODE_.P$),
      274    18503    1         2 TYPE UBIN(3) UNAL,
      275    18504    1         2 PRE_F BIT(1),
      276    18505    1         2 SUCC_F BIT(1),
      277    18506    1         2 FAIL_F BIT(1),
      278    18507    1         2 OUT_F  BIT(1),
      279    18508    1         2 OPT BIT(1) UNAL,
      280    18509    1         2 RPEAT BIT(1),
      281    18510    1         2 SKBL BIT(1),
      282    18511    1         2 RTEXT BIT(1),
      283    18512    1         2 NSUBNDS UBIN BYTE UNAL,
      284    18513    1         2 CODE UBIN (16) UNAL,
      285    18514    1         2 SUBNDS$(0:0) PTR,
      286    18515    1         2 SUBNDS(0:0) REDEF SUBNDS$,
      287    18516    1           3 DISP UBIN(18) UNAL,
      288    18517    1           3 SEG UBIN(18) UNAL;
      289    18518        %P$LIT(NAME=NODEL,STCLASS="BASED(NODE_.P$)", LEN="NODEL.COUNT");
      290    18571        %P$SYM(NAME=NODES,STCLASS="BASED(NODE_.P$)", LEN="NODES.COUNT");
      291    18650    1   DCL ERRVEC(0:8) BIT(72) CONSTANT INIT(
      292    18651    1   VECTOR(ERRDUBDEF),VECTOR(TEXT.T),VECTOR(ERRREFS),
      293    18652    1   VECTOR(SYNMSG),VECTOR(CNTMSG),VECTOR(PRFMSG),
      294    18653    1   VECTOR(PREPERR),VECTOR(RTEXTERR),VECTOR(MAKEUCERR));
      295    18654    1   DCL RTEXTERR CONSTANT CHAR(0) INIT(
      296    18655    1   ' *** RTEXT is not legal on list nodes.');
      297    18656    1   DCL MAKEUCERR CONSTANT CHAR(0) INIT(
      298    18657    1   ' *** MAKEUC is only legal on literal and symbol nodes.');
      299    18658    1   DCL PRFMSG CONSTANT CHAR(0)INIT(
PL6.E3A0      #001=XUP$PARTRGE File=XUP$PARTRGE.:E05TSI                          WED 07/30/97 09:39 Page:10
      300    18659    1   ' *** Undefined nodes in a data file');
      301    18660    1   DCL ERRDUBDEF STATIC CHAR(0) INIT(
      302    18661    1   ' That node is already defined');
      303    18662    1   DCL PREPERR CONSTANT CHAR(0)INIT(
      304    18663    1   ' *** Preprocessor error(s)');
      305    18664    1   DCL ERRREFS STATIC CHAR(0) INIT(
      306    18665    1   ' *** Too many PREFS (more than 512)');
      307    18666    1   DCL 1 CNTMSG STATIC,
      308    18667    1         2 ASTS CHAR (5),
      309    18668    1         2 CNT CHAR(6),
      310    18669    1         2 ERWORD CHAR(0) INIT(' errors,'),
      311    18670    1         2 PRFS CHAR(4)INIT('  no'),
      312    18671    1         2 * CHAR(0)INIT(' PREFs in '),
      313    18672    1         2 MODNAME CHAR (31);
      314    18673    1   DCL 1 SYNMSG STATIC,
      315    18674    1         2 * CHAR(0) INIT(' Syntax error at '),
      316    18675    1         2 AT CHAR(3)INIT('<*>'),
      317    18676    1         2 * CHAR(0)INIT(' in: '),
      318    18677    1         2 TXT CHAR(20);
      319    18678    1   DCL ONE_BLANK CHAR (1) CONSTANT INIT (' ');
      320    18679    1   DCL CHARI BASED CHAR(I);
      321    18680    1   DCL LINE# SBIN STATIC INIT(0);
      322    18681    1   DCL 1 PP STATIC,
      323    18682    1         2 CSYS BIT(36) INIT('0'B),
      324    18683    1         2 LS BIT(36) INIT('1'B),
      325    18684    1         2 NSYS BIT(36) INIT('0'B),
      326    18685    1         2 SO BIT(36) INIT('0'B),
      327    18686    1         2 UI BIT(36) INIT('0'B),
      328    18687    1         2 OU BIT(36)INIT('1'B),
      329    18688    1         2 MA BIT (36) INIT ('0'B),
      330    18689    1         2 XR BIT (36) INIT ('0'B),
      331    18690    1         2 LO BIT(36)INIT('0'B),
      332    18691    1         2 PREF BIT(36) INIT ('1'B),
      333    18692    1         2 OPTUI BIT(36) INIT ('0'B),
      334    18693    1         2 LU BIT (36) INIT ('0'B),
      335    18694    1         2 SCHEMA BIT(36) INIT ('1'B),
      336    18695    1         2 AREA_REF BIT (36) INIT ('0'B);
PL6.E3A0      #001=XUP$PARTRGE File=XUP$PARTRGE.:E05TSI                          WED 07/30/97 09:39 Page:11
      337    18696    1   DCL OPTS (0:13) REDEF PP BIT (36);
      338    18697    1   DCL FIRST_SYM$ PTR STATIC INIT(ADDR(NIL));
      339    18698    1   DCL SKIP BIT(36) STATIC INIT('0'B);
      340    18699    1   DCL CTEMP CHAR (6);
      341    18700    1   DCL TRASH_NAME CHAR (31);
      342    18701    1   DCL ABORT UBIN STATIC INIT(0);
      343    18702    1   DCL 1 ERCODE REDEF ABORT,
      344    18703    1         2 * BIT(33),2 SEV UBIN(3)UNAL;
      345    18704        %XUX$SRCH_LIST;
      346    18799    1   DCL ZQC$PREP ENTRY (1) ALTRET;
      347    18800        %EJECT;
PL6.E3A0      #001=XUP$PARTRGE File=XUP$PARTRGE.:E05TSI                          WED 07/30/97 09:39 Page:12
      348    18801    1      CALL M$OPEN(OUOPN)ALTRET(MONERR);
      349    18802    1      J=1;
      350    18803    1      XUX$SRCH_LIST.NUM = 0;
      351    18804    1      CALL WRITELO;
      352    18805    1      IF B_VERSION.LEN > 0
      353    18806    2      THEN DO;
      354    18807    2         VERSION_INFO.LETTER = SUBSTR (B_VERSION.TEXT, 0, 1);
      355    18808    3         DO I = 1 TO B_VERSION.LEN - 1;
      356    18809    3            IF SUBSTR(B_VERSION.TEXT, I, 1) < '0'
      357    18810    3              OR SUBSTR(B_VERSION.TEXT, I, 1) > '9'
      358    18811    3            THEN
      359    18812    3               EXIT;
      360    18813    3            VERSION_INFO.NUMBER = VERSION_INFO.NUMBER * 10 +
      361    18814    3              ASCBIN(SUBSTR(B_VERSION.TEXT, I, 1)) - ASCBIN('0');
      362    18815    3            END;
      363    18816    2         END;
      364    18817    2      IF B$JIT.SYSID=2 THEN DO;
      365    18818    2         CALL M$OPEN (SIOPN) ALTRET (MONERR);
      366    18819    2         CALL M$OPEN (COREOPN) ALTRET (MONERR);
      367    18820    2         END;
      368    18821    2      ELSE DO;
      369    18822    2         OUOPN.V.DCB#=DCBNUM(M$OU);
      370    18823    2         CALL M$GDS(NODEFPT)ALTRET(MONERR);
      371    18824    2         P_PCB.WORK$=NODE_.FIRST$;
      372    18825    2         P_PCB.WKSZ=NODE_.SIZE+1;
      373    18826    2         PP.UI=B$JIT.PRFLAGS.UI;
      374    18827    2         PP.OU=B$JIT.PRFLAGS.OUTPUT;
      375    18828    2         PP.LS = B$JIT.PRFLAGS.LS;
      376    18829    2         P_PCB.TEXT$=ADDR(SUBSTR(B$JIT.CCBUF,B$JIT.CCDISP));
      377    18830    2         P_PCB.NCHARS=B$JIT.CCARS-B$JIT.CCDISP;
      378    18831    2         IF P_PCB.NCHARS~=0 THEN CALL X$PARSE(P_PCB)ALTRET(SYNERR);
      379    18832    2         BLK$=P_PCB.OUT$;
      380    18833    3         IF BLK$~=ADDR(NIL) THEN DO I=0 TO OUT$BLK.NSUBLKS-1;
      381    18834    3            P_PCB.ERROR='1'B;
      382    18835    3   NXTOPT:  J=OUT$BLK.SUBLK$(I)->OUT$BLK.CODE;
      383    18836    4            DO CASE(J);
      384    18837    4            CASE(0); /*NO*/
PL6.E3A0      #001=XUP$PARTRGE File=XUP$PARTRGE.:E05TSI                          WED 07/30/97 09:39 Page:13
      385    18838    4               P_PCB.ERROR='0'B;
      386    18839    4               I=I+1;
      387    18840    4               GOTO NXTOPT;
      388    18841    4            CASE(ELSE);
      389    18842    4               OPTS(J-3)=P_PCB.ERROR;
      390    18843    4            CASE (2); /* BC */
      391    18844    4               BC = '0'B;
      392    18845    4               HIGHEST_BC = -1;
      393    18846    5               DO K = 0 TO OUT$BLK.SUBLK$(I) -> OUT$BLK.NSUBLKS - 1;
      394    18847    5                  CALL CHARBIN (L, OUT$BLK.SUBLK$(I) -> OUT$BLK.SUBLK$(K) ->
      395    18848    5                    OUT$SYM.TEXT);
      396    18849    5                  BC(L) = '1'B;
      397    18850    5                  HIGHEST_BC = MAXIMUM(HIGHEST_BC, L);
      398    18851    5                  END;
      399    18852    4            CASE(1); /*SRCH*/
      400    18853    5               DO J=0 TO OUT$BLK.SUBLK$(I)->OUT$BLK.NSUBLKS-1;
      401    18854    5                  P_PCB.HI_CHAR=OUT$BLK.SUBLK$(I)->
      402    18855    5                    OUT$BLK.SUBLK$(J)->OUT$BLK.CPOS;
      403    18856    5                  IF J=7 THEN GOTO SYNERR;
      404    18857    5                  FPT_FID.TEXTFID_=VECTOR(OUT$BLK.SUBLK$(I)->
      405    18858    5                    OUT$BLK.SUBLK$(J)->OUT$SYM.TEXT);
      406    18859    5                  FPT_FID.NAME_ = VECTOR(TRASH_NAME);
      407    18860    5                  FPT_FID.ACCT_ = VECTOR(XUX$SRCH_LIST.ACCT_LIST.ACCT(J));
      408    18861    5                  FPT_FID.PASS_ = VECTOR(XUX$SRCH_LIST.ACCT_LIST.PASS(J));
      409    18862    5                  FPT_FID.SN_ = VECTOR(XUX$SRCH_LIST.ACCT_LIST.SN(J));
      410    18863    5                  FPT_FID.WSN_ = VECTOR(XUX$SRCH_LIST.ACCT_LIST.WSN(J));
      411    18864    5                  FPT_FID.ASN_ = VECTOR(XUX$SRCH_LIST.ACCT_LIST.ASN(J));
      412    18865    5                  FPT_FID.RES_ = VECTOR(XUX$SRCH_LIST.ACCT_LIST.RES(J));
      413    18866    5                  CALL M$FID (FPT_FID) ALTRET (MONERR);
      414    18867    5                  END;
      415    18868    4               XUX$SRCH_LIST.NUM = J;
      416    18869    4            END;
      417    18870    3            END;
      418    18871    2         CALL M$FDS(NODEFPT);
      419    18872    2         END;
      420    18873    1      XUX$SRCH_LIST.ACCT_LIST.ACCT(XUX$SRCH_LIST.NUM) = B$JIT.FACCN;
      421    18874    1      XUX$SRCH_LIST.ACCT_LIST.PASS(XUX$SRCH_LIST.NUM) = ' ';
PL6.E3A0      #001=XUP$PARTRGE File=XUP$PARTRGE.:E05TSI                          WED 07/30/97 09:39 Page:14
      422    18875    1      XUX$SRCH_LIST.ACCT_LIST.SN(XUX$SRCH_LIST.NUM) = ' ';
      423    18876    1      XUX$SRCH_LIST.ACCT_LIST.WSN(XUX$SRCH_LIST.NUM) = ' ';
      424    18877    1      XUX$SRCH_LIST.ACCT_LIST.ASN(XUX$SRCH_LIST.NUM) = %FILE#;
      425    18878    1      XUX$SRCH_LIST.ACCT_LIST.RES(XUX$SRCH_LIST.NUM) = ' ';
      426    18879    1      XUX$SRCH_LIST.ACCT_LIST(XUX$SRCH_LIST.NUM+1) = XUX$SRCH_LIST.ACCT_LIST(
             18879               XUX$SRCH_LIST.NUM);
      427    18880    1      XUX$SRCH_LIST.ACCT_LIST.ACCT(XUX$SRCH_LIST.NUM+1) = ':LIBRARY';
      428    18881    1      XUX$SRCH_LIST.NUM = XUX$SRCH_LIST.NUM + 2;
      429    18882    1      XUX$SRCH_LIST.RCVD = XUX$SRCH_LIST.NUM;
      430    18883    1      IF PP.OPTUI
      431    18884    2      THEN DO;
      432    18885    2         OPEN_FILES.FLAGS.UP_DATE# = '1'B;
      433    18886    2         OPEN_FILES.FLAGS.OPT_UI# = '1'B;
      434    18887    2         END;
      435    18888    2      ELSE DO;
      436    18889    2         OPEN_FILES.FLAGS.UP_DATE# = PP.UI;
      437    18890    2         END;
      438    18891    1      OPEN_FILES.FLAGS.LU_WHILE# = PP.LU;
      439    18892    1      OUOPN.V.TYPE#='OP';
      440    18893    1      OUOPN.V.ORG#=%KEYED#;
      441    18894    1      OUOPN.V.FUN#=%CREATE#;
      442    18895    1      CALL M$TIME(HTIM);
      443    18896    1      TITL.FILE=DCBADDR(OUOPN.V.DCB#)->F$DCB.NAME#.C;
      444    18897    1      TITL.VERS = B_VERSION.TEXT;
      445    18898    1      SALUTATION.VERS = B_VERSION.TEXT;
      446    18899    1      SALUTATION.TIM = TITL.TIM;
      447    18900    1      SALUTATION.DAT = TITL.DAT;
      448    18901    1      CALL M$WRITE (WRITE_SALUTATION) ALTRET (IGNORE_SALUTATION_ALTRET);
      449    18902    1   IGNORE_SALUTATION_ALTRET:
      450    18903    1      CALL XUU$OPEN (OPEN_FILES) ALTRET (XUU_ERROR);
      451    18904    1      PREPROC.DO_NOT_PREPROCESS = '0'B;
      452    18905    1      PREPROC.CREATE_SYS_FILE = PP.CSYS;
      453    18906    1      PREPROC.NO_SYS_FILE = PP.NSYS;
      454    18907    1      PREPROC.LIST_SOURCE = PP.LS;
      455    18908    1      PREPROC.LIST_UPDATES = PP.LU;
      456    18909    1      PREPROC.SOURCE_OUTPUT = PP.SO;
      457    18910    1      PREPROC.LIST_PREPROC_SOURCE = '0'B;
PL6.E3A0      #001=XUP$PARTRGE File=XUP$PARTRGE.:E05TSI                          WED 07/30/97 09:39 Page:15
      458    18911    1      PREPROC.USE_STANDARD_CHAR_SET = '0'B;
      459    18912    1      PREPROC.FORMAT = '0'B;
      460    18913    1      PREPROC.M$SO# = DCBNUM(NIL);
      461    18914    1      PREPROC.M$LIST# = DCBNUM(M$LIST);
      462    18915    1      PREPROC.M$LU# = DCBNUM(NIL);
      463    18916    1      PREPROC.M$NS# = DCBNUM(M$NS);
      464    18917    1      PREPROC.M$MAC# = DCBNUM(M$MAC);
      465    18918    1      PREPROC.M$SYSTEM# = DCBNUM(M$SYSTEM);
      466    18919    1      PREPROC.RECNO$ = ADDR(PARTRGE$RECNO);
      467    18920    1      PREPROC.INPUT_KEY$ = ADDR (PARTRGE$INPUT_KEY);
      468    18921    1      PREPROC.ALT_FID$ = ADDR(XUX$SRCH_LIST);
      469    18922    1      PREPROC.PREP_ERR$$ = ENTADDR(XUP$PARTRGE_PREPROC_ERROR);
      470    18923    1      PREPROC.MONITOR_ERR$$ = ENTADDR(PARTRGE_MON_ERROR);
      471    18924    1      PREPROC.WIDTH = MAXIMUM(MINIMUM(DCBADDR(DCBNUM(M$LO))->F$DCB.WIDTH#,109),80);
      472    18925    1      ECU = 0;
      473    18926    1      TOTAL_ERRORS = 0;
      474    18927    1   PROCESS_ECU:
      475    18928    1      ECU = ECU + 1;
      476    18929    1      ERROR_COUNT = 0;
      477    18930    2      DO I = 0 TO LENGTHW(LEXES$) - 1;
      478    18931    2         LEXES$(I) = ADDR(NIL);
      479    18932    2         END;
      480    18933    1      TITL.HDR = 'Source listing';
      481    18934    1      CALL INSERT(LOHDR.TITL.TITLE#,0,SIZEC(TITL),TITC);
      482    18935    1      IF NOT PP.LU AND NOT PP.LS THEN TOPAGE.V.PAGE# = '0'B;
      483    18936    1      IF TOPAGE.V.PAGE#
      484    18937    1      THEN CALL M$DEVICE (TOPAGE);
      485    18938    1      LOHDR.CTL.RESETPAGE# = '0'B;
      486    18939    1      PREPROC.DO_NOT_PREPROCESS = ~ BC(ECU);
      487    18940    1      CALL ZQC$PREP (PREPROC)
      488    18941    2      WHENRETURN DO;
      489    18942    2         PREPROCESSOR_ABORT = '0'B;
      490    18943    2         END;
      491    18944    2      WHENALTRETURN DO;
      492    18945    2         PREPROCESSOR_ABORT = '1'B;
      493    18946    2         END;
      494    18947    1      IF NOT BC(ECU)
PL6.E3A0      #001=XUP$PARTRGE File=XUP$PARTRGE.:E05TSI                          WED 07/30/97 09:39 Page:16
      495    18948    1      THEN
      496    18949    1         IF PREPROC.END_OF_SOURCE
      497    18950    1         THEN
      498    18951    1            GOTO WRAP_IT_UP;
      499    18952    1         ELSE
      500    18953    1            GOTO PROCESS_ECU;
      501    18954    1      REWIND_PP_FILE.V.DCB# = DCBNUM(M$NS);
      502    18955    1      CALL M$REW (REWIND_PP_FILE) ALTRET (MONERR);
      503    18956    1      IF DCBADDR(DCBNUM(M$LIST)) -> F$DCB.FCD#
      504    18957    2      THEN DO;
      505    18958    2         REWIND_PP_FILE.V.DCB# = DCBNUM(M$LIST);
      506    18959    2         CALL M$REW (REWIND_PP_FILE) ALTRET (MONERR);
      507    18960    2         ZQ$LS_BUFFER = '0'B;
      508    18961    2         ZQ$LS_BUFFER.PRINT_BUFFER = ' ';
      509    18962    2         CALL M$READ (READ_LIST)
      510    18963    3         WHENALTRETURN DO;
      511    18964    3            CALL M$CLOSE (CLOSE_LIST) ALTRET (MONERR);
      512    18965    3            END;
      513    18966    2         END;
      514    18967    1      IF DCBADDR(DCBNUM(M$DIAG)) -> F$DCB.FCD#
      515    18968    2      THEN DO;
      516    18969    2         REWIND_PP_FILE.V.DCB# = DCBNUM(M$DIAG);
      517    18970    2         CALL M$REW (REWIND_PP_FILE) ALTRET (MONERR);
      518    18971    2         ZQ$DIAG_BUFFER = '0'B;
      519    18972    2         ZQ$DIAG_BUFFER.PRINT_BUFFER = ' ';
      520    18973    2         CALL M$READ (READ_DIAG)
      521    18974    3         WHENALTRETURN DO;
      522    18975    3            CALL M$CLOSE (CLOSE_DIAG) ALTRET (MONERR);
      523    18976    3            END;
      524    18977    2         END;
      525    18978    1      IF PP.LU
      526    18979    1      THEN
      527    18980    1         CALL M$DEVICE (TOPAGE);
      528    18981    1      P_PCB.ROOT$=ADDR(PARTRGE_CMD);
      529    18982    1      P_PCB.CMPRS='0'B;
      530    18983    1      P_PCB.COMMENT.LEAD='/*';
      531    18984    1      P_PCB.COMMENT.TRAIL='*/';
PL6.E3A0      #001=XUP$PARTRGE File=XUP$PARTRGE.:E05TSI                          WED 07/30/97 09:39 Page:17
      532    18985    1      IF NODE_.FIRST$ = ADDR(NIL)
      533    18986    2      THEN DO;
      534    18987    2         CALL M$GDS (NODEFPT) ALTRET (MONERR);
      535    18988    2         CALL M$GDS (SYMFPT) ALTRET (MONERR);
      536    18989    2         CALL M$GDS (WORKFPT) ALTRET (MONERR);
      537    18990    2         END;
      538    18991    1      REMEMBER MONERR IN NOCORERR;
      539    18992    1      REMEMBER SYNERR IN SYNTAXERR;
      540    18993    1      REMEMBER XUO_ERROR_HANDLER IN XUOERROR;
      541    18994    1      LAST_LINE_WAS_DIAGNOSTIC = '0'B;
      542    18995    1      NODE_.NEXT$=NODE_.FIRST$;
      543    18996    1      SYM_.NEXT$=SYM_.FIRST$;
      544    18997    1      FIRST_SYM$ = ADDR(NIL);
      545    18998    1      P_PCB.TEXT$=PINCRC(WORK_.FIRST$,1);
      546    18999    1   NEXT: P_PCB.NCHARS=0;
      547    19000    2      DO WHILE(WORK_.SIZE>256);
      548    19001    2         CALL M$FDS(WORKFPT);
      549    19002    2         END;
      550    19003    1      BLK$=WORK_.FIRST$;
      551    19004    1      CHAR1=' ';
      552    19005    1      NONBLANK_FOUND = '0'B;
      553    19006    1      LINE#=0;
      554    19007    1      WORK_.P$=NODE_.NEXT$;
      555    19008    1   CONTINUE:
      556    19009    1      ZQ$NS_BUFFER.TEXT = ' ';
      557    19010    1      CALL M$READ (FPT_READ)
      558    19011    2      WHENRETURN DO;
      559    19012    2         HIGHEST_LINE_NUMBER = ZQ$NS_BUFFER.RECNO;
      560    19013    2         END;
      561    19014    2      WHENALTRETURN DO;
      562    19015    2         ZQ$NS_BUFFER.RECNO = BITBIN('777777'O);
      563    19016    2         END;
      564    19017    1      TEXT.LINE = ZQ$NS_BUFFER.RECNO;
      565    19018    1      TEXT.SIKEY = ZQ$NS_BUFFER.INPUT_KEY.EDIT_VAL;
      566    19019    1      TEXT.UPC = BINASC(ZQ$NS_BUFFER.INPUT_KEY.TYPE_CHAR);
      567    19020    1      TEXT.T = ZQ$NS_BUFFER.TEXT;
      568    19021    1      SOMETHING_WRITTEN = '1'B;
PL6.E3A0      #001=XUP$PARTRGE File=XUP$PARTRGE.:E05TSI                          WED 07/30/97 09:39 Page:18
      569    19022    2      DO WHILE SOMETHING_WRITTEN AND (DCBADDR(DCBNUM(M$LIST)) -> F$DCB.FCD# OR
      570    19023    2        DCBADDR(DCBNUM(M$DIAG)) -> F$DCB.FCD#);
      571    19024    2         SOMETHING_WRITTEN = '0'B;
      572    19025    3         DO WHILE DCBADDR(DCBNUM(M$LIST)) -> F$DCB.FCD# AND
      573    19026    3           ZQ$LS_BUFFER.RECNO <= ZQ$NS_BUFFER.RECNO AND
      574    19027    3           (NOT DCBADDR(DCBNUM(M$DIAG)) -> F$DCB.FCD# OR
      575    19028    3           ZQ$LS_BUFFER.RECNO <= ZQ$DIAG_BUFFER.RECNO);
      576    19029    3            LS_BUFFER.VFC = BITASC (ZQ$LS_BUFFER.VFC);
      577    19030    3            LS_BUFFER.PRINT_BUFFER = ZQ$LS_BUFFER.PRINT_BUFFER;
      578    19031    3            IF LS_BUFFER.VFC = 'A' AND LAST_LINE_WAS_DIAGNOSTIC
      579    19032    3            THEN
      580    19033    3               CALL M$WRITE (WRITE_BLANK);
      581    19034    3            LAST_LINE_WAS_DIAGNOSTIC = '0'B;
      582    19035    3            CALL M$WRITE (WRITE_LS) ALTRET (MONERR);
      583    19036    3            ZQ$LS_BUFFER = '0'B;
      584    19037    3            ZQ$LS_BUFFER.PRINT_BUFFER = ' ';
      585    19038    3            CALL M$READ (READ_LIST)
      586    19039    4            WHENALTRETURN DO;
      587    19040    4               CALL M$CLOSE (CLOSE_LIST) ALTRET (MONERR);
      588    19041    4               END;
      589    19042    3            SOMETHING_WRITTEN = '1'B;
      590    19043    3            END;
      591    19044    3         DO WHILE DCBADDR(DCBNUM(M$DIAG)) -> F$DCB.FCD# AND
      592    19045    3           ZQ$DIAG_BUFFER.RECNO <= ZQ$NS_BUFFER.RECNO AND
      593    19046    3           (NOT DCBADDR(DCBNUM(M$LIST)) -> F$DCB.FCD# OR
      594    19047    3           ZQ$DIAG_BUFFER.RECNO < ZQ$LS_BUFFER.RECNO);
      595    19048    3            LS_BUFFER.VFC = BITASC (ZQ$DIAG_BUFFER.VFC);
      596    19049    3            LS_BUFFER.PRINT_BUFFER = ZQ$DIAG_BUFFER.PRINT_BUFFER;
      597    19050    3            IF LS_BUFFER.VFC = 'A' AND NOT (LAST_LINE_WAS_DIAGNOSTIC)
      598    19051    3            THEN
      599    19052    3               CALL M$WRITE (WRITE_BLANK);
      600    19053    3            LAST_LINE_WAS_DIAGNOSTIC = '1'B;
      601    19054    3            CALL M$WRITE (WRITE_LS) ALTRET (MONERR);
      602    19055    3            CALL M$CORRES (CORR)
      603    19056    4            WHENRETURN DO;
      604    19057    4               WRITE_LS.V.DCB# = DCBNUM(M$DO);
      605    19058    4               CALL M$WRITE (WRITE_LS) ALTRET (MONERR);
PL6.E3A0      #001=XUP$PARTRGE File=XUP$PARTRGE.:E05TSI                          WED 07/30/97 09:39 Page:19
      606    19059    4               WRITE_LS.V.DCB# = DCBNUM(M$LO);
      607    19060    4               END;
      608    19061    3            ZQ$DIAG_BUFFER = '0'B;
      609    19062    3            ZQ$DIAG_BUFFER.PRINT_BUFFER = ' ';
      610    19063    3            CALL M$READ (READ_DIAG)
      611    19064    4            WHENALTRETURN DO;
      612    19065    4               CALL M$CLOSE (CLOSE_DIAG) ALTRET (MONERR);
      613    19066    4               END;
      614    19067    3            SOMETHING_WRITTEN = '1'B;
      615    19068    3            END;
      616    19069    2         END;
      617    19070    1      IF ZQ$NS_BUFFER.RECNO = BITBIN('777777'O)
      618    19071    1      THEN
      619    19072    1         GOTO XUPDONE;
      620    19073    1      IF PREPROCESSOR_ABORT
      621    19074    1      THEN
      622    19075    1         GOTO NEXT;
      623    19076    1      I=0;
      624    19077    2      DO WHILE (I<SIZEC(TEXT.T));
      625    19078    2         IF SUBSTR(TEXT.T,I,1)~=' ' THEN NONBLANK_FOUND = '1'B;
      626    19079    2         BLK$=PINCRC(BLK$,1);
      627    19080    2         IF POFFW(BLK$,WORK_.FIRST$)>WORK_.SIZE
      628    19081    2         THEN CALL M$GDS(WORKFPT) ALTRET(MONERR);
      629    19082    2         CHAR1=SUBSTR(TEXT.T,I,1);
      630    19083    2         I=I+1;
      631    19084    2         END;
      632    19085    1      IF NOT NONBLANK_FOUND
      633    19086    2      THEN DO;
      634    19087    2         BLK$=WORK_.FIRST$;
      635    19088    2         GOTO CONTINUE;
      636    19089    2         END;
      637    19090    2      DO WHILE CHAR1=' ';
      638    19091    2         BLK$ = PINCRC(BLK$, -1);
      639    19092    2         END;
      640    19093    1      P_PCB.NCHARS=POFFC(BLK$,WORK_.FIRST$);
      641    19094    1      IF POFFW(ADDR(LINES(LINE#+1)),NODE_.FIRST$)>NODE_.SIZE
      642    19095    1      THEN CALL M$GDS(NODEFPT)ALTRET(MONERR);
PL6.E3A0      #001=XUP$PARTRGE File=XUP$PARTRGE.:E05TSI                          WED 07/30/97 09:39 Page:20
      643    19096    1      LINES(LINE#)=TEXT;
      644    19097    1      LINES.CPOS(LINE#)=P_PCB.NCHARS;
      645    19098    1      LINE#=LINE#+1;
      646    19099    2      IF CHAR1=';' THEN DO;
      647    19100    2         IF BLK$=P_PCB.TEXT$ THEN BLK$=WORK_.FIRST$;
      648    19101    2         CHAR1=' ';
      649    19102    2         GOTO CONTINUE;
      650    19103    2         END;
      651    19104    1   NEWPARSE:;
      652    19105    1      WORK_.P$=PINCRW(WORK_.FIRST$,(P_PCB.NCHARS+4)/4);
      653    19106    1      I=LINE#*SIZEC(LINES(0));
      654    19107    1      P_PCB.WORK$=PINCRC(WORK_.P$,I);
      655    19108    2      DO WHILE(POFFW(P_PCB.WORK$,WORK_.FIRST$)>WORK_.SIZE);
      656    19109    2         CALL M$GDS(WORKFPT)ALTRET(MONERR);
      657    19110    2         END;
      658    19111    1      WORK_.P$->CHARI=NODE_.NEXT$->CHARI;
      659    19112    1      P_PCB.WKSZ=WORK_.SIZE+1-POFFW(P_PCB.WORK$,WORK_.FIRST$);
      660    19113    1      LITCODE=0;
      661    19114    1      LIT_PRESENT = '0'B;
      662    19115    1      CALL X$PARSE(P_PCB) ALTRET(PARSERR);
      663    19116    1      P_PCB.HI_CHAR=0;
      664    19117    1      BLK$=P_PCB.OUT$;
      665    19118    1      NODE_.P$=OUT$BLK.SUBLK$(0);
      666    19119    1      CALL XUP$BLDSYM(NODE_.P$->DATA,SYM_.P$);
      667    19120    1      PINCRW(SYM_.NEXT$,-1)->SYM.XR.D='1'B;
      668    19121    1      IF SYM.DEF THEN CALL ERROR(0);
      669    19122    1      SYM.DEF='1'B;
      670    19123    1      NODECODE='0'B;
      671    19124    2      IF OUT$BLK.NSUBLKS=3 THEN DO;
      672    19125    2         CALL XUP$BLDOPT(OUT$BLK.SUBLK$(1)->DATA);
      673    19126    2         BLK$=PINCRW(BLK$,1);
      674    19127    2         END;
      675    19128    1      CALL XUP$BLDNODE(OUT$BLK.SUBLK$(1)->DATA,SYM.NODE$)
      676    19129    2      WHENALTRETURN DO; /* XTERNAL definition */
      677    19130    2         SYM.XPREF = '1'B;
      678    19131    2         SYM.NODE$ = ADDR(NIL);
      679    19132    2         GOTO NEXT;
PL6.E3A0      #001=XUP$PARTRGE File=XUP$PARTRGE.:E05TSI                          WED 07/30/97 09:39 Page:21
      680    19133    2         END;
      681    19134    1      IF FIRST_SYM$ = ADDR(NIL) THEN
      682    19135    1         FIRST_SYM$ = SYM_.P$;
      683    19136    1      SYM.NODE$ -> NODE.PRE_F = SYM.NODE$ -> NODE.PRE_F | NODECODE.PRE_F;
      684    19137    1      SYM.NODE$ -> NODE.SUCC_F = SYM.NODE$ -> NODE.SUCC_F | NODECODE.SUCC_F;
      685    19138    1      SYM.NODE$ -> NODE.FAIL_F = SYM.NODE$ -> NODE.FAIL_F | NODECODE.FAIL_F;
      686    19139    1      SYM.NODE$ -> NODE.OUT_F = SYM.NODE$ -> NODE.OUT_F | NODECODE.OUT_F;
      687    19140    1      SYM.NODE$ -> NODE.RPEAT = SYM.NODE$ -> NODE.RPEAT | NODECODE.RPEAT;
      688    19141    1      SYM.NODE$ -> NODE.SKBL = SYM.NODE$ -> NODE.SKBL | NODECODE.SKBL;
      689    19142    1      SYM.NODE$ -> NODE.RTEXT = SYM.NODE$ -> NODE.RTEXT | NODECODE.RTEXT;
      690    19143    1      IF SYM.NODE$ -> NODE.RTEXT AND SYM.NODE$ -> NODE.TYPE = %TYPE_LIST#
      691    19144    1      THEN
      692    19145    1         CALL ERROR(7);
      693    19146    1      SYM.NODE$ -> NODE.CODE = NODECODE.CODE;
      694    19147    1      IF NODECODE.NOUT_F
      695    19148    1      THEN
      696    19149    1         SYM.NODE$ -> NODE.OUT_F = '0'B;
      697    19150    2      DO CASE (SYM.NODE$ -> NODE.TYPE);
      698    19151    2      CASE (%TYPE_LITERAL#);
      699    19152    2         SYM.NODE$ -> NODEL.UPRLOWR = SYM.NODE$->NODEL.UPRLOWR | NODECODE.UPRLOWR;
      700    19153    2      CASE (%TYPE_LEXEME#);
      701    19154    2         SYM.NODE$ -> NODES.MAKEUC = SYM.NODE$ -> NODES.MAKEUC | NODECODE.MAKEUC;
      702    19155    2      CASE (ELSE);
      703    19156    2         IF NODECODE.MAKEUC
      704    19157    2         THEN
      705    19158    2            CALL ERROR(8);
      706    19159    2      END;
      707    19160    2      IF SYM.NODE$=NODE_.FIRST$ THEN DO;
      708    19161    2         SYM.X='1'B;
      709    19162    2         END;
      710    19163    1      GOTO NEXT;
      711    19164    1   PARSERR: I=P_PCB.ERROR.CODE;
      712    19165    1      ERCODE=P_PCB.ERROR;
      713    19166    1      EFPT.V.DCB#=0;
      714    19167    2      IF I=%E$SMALLWORK OR I=%E$WKOVERFLOW THEN DO;
      715    19168    2         CALL M$GDS(WORKFPT) ALTRET(MONERR);
      716    19169    2         CALL M$GDS(WORKFPT);
PL6.E3A0      #001=XUP$PARTRGE File=XUP$PARTRGE.:E05TSI                          WED 07/30/97 09:39 Page:22
      717    19170    2         CALL M$GDS(WORKFPT);
      718    19171    2         GOTO NEWPARSE;
      719    19172    2         END;
      720    19173    1      IF I~=1 THEN I=1;
      721    19174    2      ELSE DO;
      722    19175    2   SYNERR: IF P_PCB.HI_CHAR<9 OR P_PCB.NCHARS<15 THEN I=0;
      723    19176    2         ELSE I=P_PCB.HI_CHAR-9;
      724    19177    2         CALL CONCAT(SYNMSG.TXT,SUBSTR(P_PCB.TEXT$->CHARI,I,P_PCB.HI_CHAR-I),
      725    19178    2           SYNMSG.AT,SUBSTR(P_PCB.TEXT$->CHARI,P_PCB.HI_CHAR,P_PCB.NCHARS-P_PCB.HI_CHAR
             19178                    ));
      726    19179    2         I=3;
      727    19180    2         END;
      728    19181    1      CALL ERROR(I);
      729    19182    1      IF LINE#=0 THEN GOTO SHUT_DOWN_IMMEDIATELY;
      730    19183    1      GOTO NEXT;
      731    19184        %EJECT;
PL6.E3A0      #001=XUP$PARTRGE File=XUP$PARTRGE.:E05TSI                          WED 07/30/97 09:39 Page:23
      732    19185    1   ERROR: PROC(E#);
      733    19186    2   DCL MSG CHAR(99)BASED(LOFPT.BUF_.BUF$);
      734    19187    2   DCL E# UBIN;
      735    19188    2   DCL IS_LAST_LINE BIT (1);
      736    19189    2      IS_LAST_LINE = '0'B;
      737    19190    2      TEXT.T = ' *** At ';
      738    19191    2      IF E# ~= 4 AND E# ~= 2
      739    19192    2      THEN
      740    19193    2         ERROR_COUNT = ERROR_COUNT + 1;
      741    19194    2      LOFPT.BUF_=ERRVEC(1);
      742    19195    3      IF LINE#~=0 THEN DO;
      743    19196    3         J=0;
      744    19197    4         DO WHILE(LINES.CPOS(J)<P_PCB.HI_CHAR);
      745    19198    4            J=J+1;
      746    19199    4            END;
      747    19200    3         IF J = LINE# - 1
      748    19201    3         THEN
      749    19202    3            IS_LAST_LINE = '1'B;
      750    19203    3         CALL BINCHAR(TEXT.M.L#,LINES.L#(J));
      751    19204    3         CALL EDITSTR(TEXT.M.L#,0,7,'107'O,TEXT.M.L#);
      752    19205    3         TEXT.M.LP='(';
      753    19206    4         IF LINES.S#(J)<0 THEN DO;
      754    19207    4            TEXT.M.DOT=LINES.UPC(J);
      755    19208    4            J=-LINES.S#(J);
      756    19209    4            IF TEXT.M.DOT=' ' THEN TEXT.M.DOT=')';
      757    19210    4            ELSE TEXT.M.SD#=')';
      758    19211    4            END;
      759    19212    4         ELSE DO;
      760    19213    4            CALL INSERT(TEXT.M.RP,0,2,LINES.UPC(J),')');
      761    19214    4            J=LINES.S#(J);
      762    19215    4            IF SUBSTR(TEXT.M.RP,0,2)=' )' THEN TEXT.M.RP=')';
      763    19216    4            TEXT.M.DOT='.';
      764    19217    4            CALL BINCHAR(TEXT.M.SD#,MOD(J,1000));
      765    19218    4            J=J/1000;
      766    19219    4            END;
      767    19220    3         CALL BINCHAR(TEXT.M.S#,J);
      768    19221    3         CALL EDITSTR(TEXT.M.S#,0,4,'104'O,TEXT.M.S#);
PL6.E3A0      #001=XUP$PARTRGE File=XUP$PARTRGE.:E05TSI                          WED 07/30/97 09:39 Page:24
      769    19222    3         END;
      770    19223    3      ELSE DO;
      771    19224    3   ERROR1:;
      772    19225    3         LOFPT.BUF_=ERRVEC(E#);
      773    19226    3         ERCODE.SEV=0;
      774    19227    3         IF E#=1 THEN CALL M$ERRMSG(EFPT)ALTRET(ERROR2);
      775    19228    3   ERROR2:;
      776    19229    3         END;
      777    19230    3      DO WHILE(SUBSTR(MSG,LOFPT.BUF_.BOUND,1)=' '
      778    19231    3        AND LOFPT.BUF_.BOUND~=0);
      779    19232    3         LOFPT.BUF_.BOUND=LOFPT.BUF_.BOUND-1;
      780    19233    3         END;
      781    19234    3      IF B$JIT.PRFLAGS.LIST THEN DO;
      782    19235    3         IF NOT (IS_LAST_LINE AND PP.LS AND LOFPT.BUF_.BUF$ = ADDR(TEXT.T))
      783    19236    4         THEN DO;
      784    19237    4            IF NOT (LAST_LINE_WAS_DIAGNOSTIC)
      785    19238    4            THEN
      786    19239    4               CALL M$WRITE (WRITE_BLANK);
      787    19240    4            CALL M$WRITE (LOFPT);
      788    19241    4            LAST_LINE_WAS_DIAGNOSTIC = '1'B;
      789    19242    4            END;
      790    19243    3         CALL M$CORRES (CORR) ALTRET (NODO);
      791    19244    3         END;
      792    19245    2      LOFPT.V.DCB#=DCBNUM(M$DO);
      793    19246    2      IF B$JIT.PRFLAGS.COMMENT THEN CALL M$WRITE(LOFPT);
      794    19247    2      LOFPT.V.DCB#=DCBNUM(M$LO);
      795    19248    2   NODO:;
      796    19249    2      IS_LAST_LINE = '0'B;
      797    19250    2      IF LINE#=0 OR J=0 THEN RETURN ;
      798    19251    2      J=0;
      799    19252    2      GOTO ERROR1;
      800    19253    2   END ERROR;
      801    19254    1   MONERR:;
      802    19255    1      ERCODE=B$TCB.ALT$->B$ALT.ERR;
      803    19256    1      EFPT.V.DCB#=B$TCB.ALT$->B$ALT.DCB#;
      804    19257    1      CALL ERROR(1);
      805    19258    1      FATAL_ERROR = %YES#;
PL6.E3A0      #001=XUP$PARTRGE File=XUP$PARTRGE.:E05TSI                          WED 07/30/97 09:39 Page:25
      806    19259    1      GOTO XUPEXIT;
      807    19260    1   XUU_ERROR:
      808    19261    1      IF OPEN_FILES.SI_ERRCODE
      809    19262    2      THEN DO;
      810    19263    2         ERCODE = OPEN_FILES.SI_ERRCODE;
      811    19264    2         EFPT.V.DCB# = DCBNUM(M$SI);
      812    19265    2         CALL ERROR(1);
      813    19266    2         END;
      814    19267    1      ELSE
      815    19268    1         IF OPEN_FILES.UI_ERRCODE
      816    19269    2         THEN DO;
      817    19270    2            ERCODE = OPEN_FILES.UI_ERRCODE;
      818    19271    2            EFPT.V.DCB# = DCBNUM(M$UI);
      819    19272    2            CALL ERROR (1);
      820    19273    2            END;
      821    19274    1      FATAL_ERROR = %YES#;
      822    19275    1      GOTO XUPEXIT;
      823    19276    1   XUO_ERROR_HANDLER:
      824    19277    1      ERCODE = XUO_ERROR_CODE;
      825    19278    1      IF B$TCB.ALT$ ~= ADDR(NIL)
      826    19279    1      THEN
      827    19280    1         EFPT.V.DCB# = B$TCB.ALT$ -> B$ALT.DCB#;
      828    19281    1      CALL ERROR (1);
      829    19282    1      FATAL_ERROR = %YES#;
      830    19283    1      GOTO XUPEXIT;
      831    19284        %EJECT;
PL6.E3A0      #001=XUP$PARTRGE File=XUP$PARTRGE.:E05TSI                          WED 07/30/97 09:39 Page:26
      832    19285    1   NAMEOUT: PROC;
      833    19286    2      IF C+6+SYM.C>WIDTH THEN CALL WRLO;
      834    19287    2      CALL INSERT(TEXT.T,C,5,
      835    19288    2        BINASC(SYM.VUAL(1)+48),
      836    19289    2        BINASC(SYM.VUAL(2)+48),BINASC(SYM.VUAL(3)+48),
      837    19290    2        BINASC(SYM.VUAL(4)+48),BINASC(SYM.VUAL(5)+48));
      838    19291    2      CALL EDITSTR(TEXT.T,C,4,'104'O,SUBSTR(TEXT.T,C,5));
      839    19292    2      CALL INSERT(TEXT.T,C+5,,' ',SYM.T);
      840    19293    2      C=C+(SYM.C+SYMSZS(0)+6)/SYMSZS(0)*SYMSZS(0);
      841    19294    2      RETURN;
      842    19295    2   CROUT: ENTRY;
      843    19296    3      IF C+8>WIDTH THEN DO;
      844    19297    3         CALL WRLO;
      845    19298    3         C=SYMSZS(0)/8*8;
      846    19299    3         END;
      847    19300    2      CALL BINCHAR(SUBSTR(TEXT.T,C,7),BLK$->SYM.XR.L#);
      848    19301    2      CALL EDITSTR(TEXT.T,C,6,'106'O,SUBSTR(TEXT.T,C,7));
      849    19302    2      IF BLK$->SYM.XR.D THEN CALL INSERT(TEXT.T,C+7,1,'*');
      850    19303    2      C=C+8;
      851    19304    2      RETURN;
      852    19305    2   WRITELO:ENTRY;
      853    19306    2      CALL WRLO;
      854    19307    2      RETURN;
      855    19308    2   WRLO: PROC;
      856    19309    3      LOFPT.BUF_=ERRVEC(1);
      857    19310    4      DO WHILE(SUBSTR(TEXT.T,LOFPT.BUF_.BOUND,1)=' '
      858    19311    4        AND LOFPT.BUF_.BOUND~=0);
      859    19312    4         LOFPT.BUF_.BOUND=LOFPT.BUF_.BOUND-1;
      860    19313    4         END;
      861    19314    4      IF PP.LS AND B$JIT.PRFLAGS.LIST THEN DO;
      862    19315    4         TOPAGE.V.PAGE#='1'B;
      863    19316    4         IF WIDTH~=0 THEN CALL M$WRITE(LOFPT);
      864    19317    4         CALL M$CORRES(CORR)ALTRET(NODO);
      865    19318    4         END;
      866    19319    3      ELSE TOPAGE.V.PAGE#='0'B;
      867    19320    4      IF J=0 AND B$JIT.PRFLAGS.COMMENT THEN DO;
      868    19321    4         LOFPT.V.DCB#=DCBNUM(M$DO);
PL6.E3A0      #001=XUP$PARTRGE File=XUP$PARTRGE.:E05TSI                          WED 07/30/97 09:39 Page:27
      869    19322    4         CALL M$WRITE(LOFPT);
      870    19323    4         LOFPT.V.DCB#=DCBNUM(M$LO);
      871    19324    4   NODO: END;
      872    19325    3      WIDTH=DCBADDR(DCBNUM(M$LO))->F$DCB.WIDTH#;
      873    19326    3      IF WIDTH=0 OR WIDTH>108 THEN WIDTH=108;
      874    19327    3      LOHDR.TITL.L#=WIDTH;
      875    19328    3      LOHDR.CTL.COUNT#=WIDTH-4;
      876    19329    3      TEXT.T=' ';
      877    19330    3      C=0;
      878    19331    3   END;
      879    19332    2   END;
      880    19333    1   XUPDONE:;
      881    19334    1      IF DCBADDR(DCBNUM(M$NS)) -> F$DCB.FCD#
      882    19335    1      THEN
      883    19336    1         CALL M$CLOSE (CLOSE_NS) ALTRET (MONERR);
      884    19337    2      IF LINE#~=0 THEN DO;
      885    19338    2         P_PCB.HI_CHAR=P_PCB.NCHARS;
      886    19339    2         GOTO SYNERR;
      887    19340    2         END;
      888    19341    1      SYMSZS(0)=9*SYMSZS(0)/10;
      889    19342    1      I=0;
      890    19343    2      DO WHILE(SYMSZS(0)>0);
      891    19344    2         I=I+1;
      892    19345    2         SYMSZS(0)=SYMSZS(0)-SYMSZS(I);
      893    19346    2         END;
      894    19347    1      SYMSZS(0)=I+7;
      895    19348    1      PGMSIZE = POFFW (NODE_.NEXT$, NODE_.FIRST$);
      896    19349    2      IF DCBADDR(DCBNUM(M$CORE))->F$DCB.ASN#~=%DEVICE# THEN DO;
      897    19350    2         OUOPN.V.DCB#=DCBNUM(M$CORE);
      898    19351    2         COREFPT.BUF_.BUF$=NODE_.FIRST$;
      899    19352    2         COREFPT.BUF_.BOUND = MAXIMUM (PGMSIZE * 4 - 1, 0);
      900    19353    2         IF PP.OU
      901    19354    2         THEN
      902    19355    2            CALL M$OPEN (OUOPN) ALTRET (MONERR);
      903    19356    2         GENERATE_CORE_IMAGE = '1'B;
      904    19357    2         GENERATE_OU = '0'B;
      905    19358    2         END;
PL6.E3A0      #001=XUP$PARTRGE File=XUP$PARTRGE.:E05TSI                          WED 07/30/97 09:39 Page:28
      906    19359    2      ELSE DO;
      907    19360    2         GENERATE_CORE_IMAGE = '0'B;
      908    19361    2         IF PP.OU
      909    19362    3         THEN DO;
      910    19363    3            GENERATE_OU = '1'B;
      911    19364    3            IF NOT DCBADDR(DCBNUM(M$OU)) -> F$DCB.FCD#
      912    19365    4            THEN DO;
      913    19366    4               OUOPN.V.SETDCB# = '1'B;
      914    19367    4               CALL M$OPEN (OUOPN) ALTRET (MONERR);
      915    19368    4               END;
      916    19369    3            CALL XUO$BUFINIT;
      917    19370    3            CALL XUO$OUINIT (DCBNUM(M$OU), %NO#, %YES#, %PARTRGEID,
      918    19371    3              VERSION_INFO, , , ENTADDR(XUP$PARTRGE_XUO_ERROR));
      919    19372    4            IF FIRST_SYM$ = ADDR(NIL) THEN DO;
      920    19373    4               P_NAME.COUNT = DCBADDR(DCBNUM(M$OU)) -> F$DCB.NAME#.L;
      921    19374    4               P_NAME.TEXT = DCBADDR(DCBNUM(M$OU)) -> F$DCB.NAME#.C;
      922    19375    4               END;
      923    19376    4            ELSE DO;
      924    19377    4               P_NAME.COUNT = FIRST_SYM$ -> SYM.C;
      925    19378    4               P_NAME.TEXT  = FIRST_SYM$ -> SYM.T;
      926    19379    4               END;
      927    19380    3            CALL XUO$DNAME (P_NAME, P_NAME_POINTER);
      928    19381    3            CALL XUO$HEADNAME (P_NAME);
      929    19382    3            CALL XUO$SECTBUILD (%ROSECTION, P_NAME_POINTER, SECTION, '010'B,
      930    19383    3              %EVENBOUNDSECTION);
      931    19384    3            CALL XUO$EDEF (SECTION, 0, P_NAME_POINTER, '1'B, '0'B, '0'B,
      932    19385    3              %NOTPROC#, 0);
      933    19386    3            IF PP.SCHEMA
      934    19387    4            THEN DO;
      935    19388    4               CALL XUO$LOGBLKALLOC (LOGBLK_NUMBER);
      936    19389    4               CALL XUO$LOGBLKEXSTINIT (LOGBLK_NUMBER, 0, 1, P_NAME_POINTER, 1);
      937    19390    4               CALL XUO$LOGBLKVREBLINIT (LOGBLK_NUMBER, 0);
      938    19391    4               CALL GENERATE_DEBUG_NAMES;
      939    19392    4               HIGHEST_VREBL_ENTRY = 0;
      940    19393    4               HIGHEST_LINE_NUMBER = 0;
      941    19394    4               END;
      942    19395    3            P_NAME.COUNT = LENGTHC('ISSID');
PL6.E3A0      #001=XUP$PARTRGE File=XUP$PARTRGE.:E05TSI                          WED 07/30/97 09:39 Page:29
      943    19396    3            P_NAME.TEXT  =         'ISSID';
      944    19397    3            CALL XUO$RNAME (P_NAME, P_NAME_POINTER);
      945    19398    3            CALL XUO$SEGREF (P_NAME_POINTER, ISSID_SEGREF_NUMBER);
      946    19399    3            END;
      947    19400    2         ELSE
      948    19401    2            GENERATE_OU = '0'B;
      949    19402    2         END;
      950    19403    1      I=0;
      951    19404    1      NPREFS = 0;
      952    19405    1      WORK_.P$=WORK_.FIRST$;
      953    19406    1      NODE_.P$=NODE_.FIRST$;
      954    19407    2      DO WHILE (NODE_.P$<NODE_.NEXT$);
      955    19408    2         J=0;
      956    19409    2         LOC_OFFSET = POFFW(NODE_.P$, NODE_.FIRST$);
      957    19410    2         IF GENERATE_OU
      958    19411    2         THEN
      959    19412    2            CALL XUO$PRGM (SECTION, LOC_OFFSET, NODE.TYPE);
      960    19413    3         DO CASE(NODE.TYPE);
      961    19414    3         CASE(%TYPE_ALTERN#,%TYPE_KONCAT#,%TYPE_LIST#,%TYPE_RALTERN#);
      962    19415    4            DO WHILE (J<NODE.NSUBNDS);
      963    19416    4               SYM_.P$=NODE.SUBNDS$(J);
      964    19417    4               EMIT_STANDARD = '1'B;
      965    19418    5               IF NODE.SUBNDS.SEG(J)=SYM_.SEG.SEG THEN DO;
      966    19419    6                  IF NOT SYM.DEF OR SYM.XPREF THEN DO;
      967    19420    7                     IF SYM.NODE$=ADDR(NIL) THEN DO;
      968    19421    7                        SYM.NODE$=ADDR(NODE.SUBNDS$(J));
      969    19422    7                        IF GENERATE_OU
      970    19423    8                        THEN DO;
      971    19424    8                           P_NAME.COUNT = SYM.C;
      972    19425    8                           P_NAME.TEXT = SYM.T;
      973    19426    8                           CALL XUO$RNAME (P_NAME, P_NAME_POINTER);
      974    19427    8                           IF PP.AREA_REF
      975    19428    8                           THEN
      976    19429    8                              CALL XUO$SEGREF (P_NAME_POINTER, I);
      977    19430    8                           ELSE
      978    19431    8                              CALL XUO$SREF (P_NAME_POINTER, '0'B, I, '0'B);
      979    19432    8                           SYM.PRF = I;
PL6.E3A0      #001=XUP$PARTRGE File=XUP$PARTRGE.:E05TSI                          WED 07/30/97 09:39 Page:30
      980    19433    8                           END;
      981    19434    7                        IF NOT SYM.XPREF THEN
      982    19435    7                           NPREFS = NPREFS + 1;
      983    19436    7                        SYM.DEF = '0'B;
      984    19437    7                        END;
      985    19438    6                     ELSE I = SYM.PRF;
      986    19439    6                     IF GENERATE_OU
      987    19440    7                     THEN DO;
      988    19441    7                        CALL XUO$PRGM (SECTION, LOC_OFFSET + J + 1, 0);
      989    19442    7                        IF PP.AREA_REF
      990    19443    7                        THEN
      991    19444    7                           CALL XUO$RELOC (SECTION, LOC_OFFSET + J + 1,
      992    19445    7                             %OPERSEGREF, I, %RELOCOPADD, 0, 35);
      993    19446    8                        ELSE DO;
      994    19447    8                           CALL XUO$RELOC (SECTION, LOC_OFFSET + J + 1, %OPERSREF,
      995    19448    8                             I, %RELOCOPADD, 0, 17);
      996    19449    8                           CALL XUO$RELOC (SECTION, LOC_OFFSET + J + 1,
      997    19450    8                             %OPERSEGREF, ISSID_SEGREF_NUMBER, %RELOCOPADD, 24,35);
      998    19451    8                           END;
      999    19452    7                        EMIT_STANDARD = '0'B;
     1000    19453    7                        END;
     1001    19454    6                     END;
     1002    19455    5                  ELSE NODE.SUBNDS$(J)=SYM.NODE$;
     1003    19456    5                  END;
     1004    19457    4               IF EMIT_STANDARD AND GENERATE_OU
     1005    19458    5               THEN DO;
     1006    19459    5                  PSEUDO_POINTER.DISP = NODE.SUBNDS.DISP(J);
     1007    19460    5                  PSEUDO_POINTER.SEG = '0'O;
     1008    19461    5                  CALL XUO$PRGM (SECTION, LOC_OFFSET + J + 1, PSEUDO_POINTER);
     1009    19462    5                  CALL XUO$RELOC (SECTION, LOC_OFFSET + J + 1, %OPERSECT,
     1010    19463    5                    SECTION, %RELOCOPADD, 0, 17);
     1011    19464    5                  CALL XUO$RELOC (SECTION, LOC_OFFSET + J + 1, %OPERSEGREF,
     1012    19465    5                    ISSID_SEGREF_NUMBER, %RELOCOPADD, 24, 35);
     1013    19466    5                  END;
     1014    19467    4               IF COREFPT.BUF_.BUF$=NODE_.FIRST$ THEN NODE.SUBNDS.SEG(J)=NODE_.SEG.SEG;
     1015    19468    5               ELSE DO;
     1016    19469    5                  NODE.SUBNDS.SEG(J)=0;
PL6.E3A0      #001=XUP$PARTRGE File=XUP$PARTRGE.:E05TSI                          WED 07/30/97 09:39 Page:31
     1017    19470    5                  WORK_.P$=PINCRW(WORK_.P$,2);
     1018    19471    5                  END;
     1019    19472    4               J=J+1;
     1020    19473    4               END;
     1021    19474    3         CASE(%TYPE_LITERAL#);
     1022    19475    3            J=SIZEW(NODEL) - 1;
     1023    19476    3            CALL EMIT_WORDS;
     1024    19477    3         CASE (%TYPE_LEXEME#);
     1025    19478    4            DO CASE (NODES.LEXTYPE);
     1026    19479    4            CASE(%LEX_END#,%LEX_BLANK#);
     1027    19480    4            CASE(%LEX_DSTRING#);
     1028    19481    4               J=1;
     1029    19482    4               CALL EMIT_WORDS;
     1030    19483    4            CASE(ELSE);
     1031    19484    4               IF NODES.XTRA
     1032    19485    5               THEN DO;
     1033    19486    5                  J = SIZEW(NODES) - 1;
     1034    19487    5                  CALL EMIT_WORDS;
     1035    19488    5                  END;
     1036    19489    4            END;
     1037    19490    3         END;
     1038    19491    2         NODE_.P$=PINCRW(NODE_.P$,J+1);
     1039    19492    2         END;
     1040    19493    1      J=0;
     1041    19494    1      SYM_.P$=SYM_.FIRST$;
     1042    19495    2      DO WHILE(SYM_.P$<SYM_.NEXT$);
     1043    19496    3         IF SYM.VAL>=0 THEN DO;
     1044    19497    3            WORK_.P$=ADDR(J);
     1045    19498    3            NODE_.P$=PINCRW(SYM_.NEXT$,J);
     1046    19499    4            DO WHILE (NODE_.P$~=SYM_.NEXT$
     1047    19500    4              AND SYM.T>NODE_.P$->SYM.T);
     1048    19501    4               WORK_.P$=NODE_.P$;
     1049    19502    4               NODE_.P$=PINCRW(SYM_.NEXT$,WORK_.P$->SYM.LNK.LNK);
     1050    19503    4               END;
     1051    19504    3            SYM.LNK.LNK=WORK_.P$->SYM.LNK.LNK;
     1052    19505    3            WORK_.P$->SYM.LNK.LNK=POFFW(SYM_.P$,SYM_.NEXT$);
     1053    19506    3            SYM_.P$=PINCRW(SYM_.P$,SIZEW(SYM));
PL6.E3A0      #001=XUP$PARTRGE File=XUP$PARTRGE.:E05TSI                          WED 07/30/97 09:39 Page:32
     1054    19507    3            END;
     1055    19508    2         ELSE SYM_.P$=PINCRW(SYM_.P$,1);
     1056    19509    2         END;
     1057    19510    2      IF GENERATE_CORE_IMAGE AND PP.OU AND PGMSIZE > 0 THEN DO;
     1058    19511    2         CALL M$WRITE(COREFPT)ALTRET(MONERR);
     1059    19512    2         OUCLS.V.DCB#=DCBNUM(M$CORE);
     1060    19513    2         CALL M$CLOSE(OUCLS)ALTRET(MONERR);
     1061    19514    2         END;
     1062    19515    2      ELSE IF GENERATE_OU THEN DO;
     1063    19516    2            SYM_.P$ = PINCRW (SYM_.NEXT$, J);
     1064    19517    3            DO WHILE (SYM_.P$ ~= SYM_.NEXT$);
     1065    19518    3               IF SYM.DEF AND (SYM.X OR NOT SYM.USED)
     1066    19519    4               THEN DO;
     1067    19520    4                  P_NAME.COUNT = SYM.C;
     1068    19521    4                  P_NAME.TEXT = SYM.T;
     1069    19522    4                  CALL XUO$DNAME (P_NAME, P_NAME_POINTER);
     1070    19523    4                  CALL XUO$SDEF (P_NAME_POINTER, SECTION,
     1071    19524    4                    POFFW(SYM.NODE$, NODE_.FIRST$));
     1072    19525    4                  END;
     1073    19526    3               IF PP.SCHEMA
     1074    19527    4               THEN DO;
     1075    19528    4                  P_NAME.COUNT = SYM.C;
     1076    19529    4                  P_NAME.TEXT = SYM.T;
     1077    19530    4                  CALL XUO$DBGNAME (P_NAME, P_NAME_POINTER);
     1078    19531    4                  IF SYM.DEF
     1079    19532    5                  THEN DO;
     1080    19533    5                     NODE_.P$ = PINCRW(NODE_.FIRST$, SYM.XR.L#);
     1081    19534    6                     DO CASE (NODE.TYPE);
     1082    19535    6                     CASE (%TYPE_ALTERN#, %TYPE_KONCAT#, %TYPE_LIST#,
     1083    19536    6                       %TYPE_RALTERN#);
     1084    19537    6                        I = NODE.NSUBNDS + 1;
     1085    19538    6                     CASE (%TYPE_LITERAL#);
     1086    19539    6                        I = SIZEW(NODEL);
     1087    19540    6                     CASE (%TYPE_LEXEME#);
     1088    19541    7                        DO CASE (NODES.LEXTYPE);
     1089    19542    7                        CASE (%LEX_END#, %LEX_BLANK#);
     1090    19543    7                           I = 1;
PL6.E3A0      #001=XUP$PARTRGE File=XUP$PARTRGE.:E05TSI                          WED 07/30/97 09:39 Page:33
     1091    19544    7                        CASE (%LEX_DSTRING#);
     1092    19545    7                           I = 2;
     1093    19546    7                        CASE (ELSE);
     1094    19547    7                           IF NODES.XTRA
     1095    19548    7                           THEN
     1096    19549    7                              I = SIZEW (NODES);
     1097    19550    7                           ELSE
     1098    19551    7                              I = 1;
     1099    19552    7                        END;
     1100    19553    6                     END;
     1101    19554    5                     LOC_OFFSET = SYM.XR.L# * 36;
     1102    19555    5                     CALL XUO$VREBL (LOC_OFFSET,
     1103    19556    5                       1 /* static */,
     1104    19557    5                       %STRUCTURE_DATATYPE,
     1105    19558    5                       SYM.USED /* referenced */,
     1106    19559    5                       '0'B /* modified */,
     1107    19560    5                       I*36 /* logical size */,
     1108    19561    5                       1 /* level */,
     1109    19562    5                       1 /* word aligned */,
     1110    19563    5                       0 /* size is actual #, not name-ptr reference */,
     1111    19564    5                       %SCALAR_ARRAY /* not an array */,
     1112    19565    5                       %OPERSECT /* relocate via a section # */,
     1113    19566    5                       0 /* implied pointer; unused */,
     1114    19567    5                       SECTION /* section # to relocate */,
     1115    19568    5                       0 /* element size; unused */,
     1116    19569    5                       0 /* scale factor; unused */,
     1117    19570    5                       0 /* dims; unused */,
     1118    19571    5                       P_NAME_POINTER,
     1119    19572    5                       HIGHEST_VREBL_ENTRY);
     1120    19573    5                     CALL GENERATE_LEVEL2 (P_TYPE_NP, %UBIN_DATATYPE, 3);
     1121    19574    5                     CALL GENERATE_LEVEL2 (P_P_F_NP, %BIT_DATATYPE, 1);
     1122    19575    5                     CALL GENERATE_LEVEL2 (P_S_F_NP, %BIT_DATATYPE, 1);
     1123    19576    5                     CALL GENERATE_LEVEL2 (P_F_F_NP, %BIT_DATATYPE, 1);
     1124    19577    5                     CALL GENERATE_LEVEL2 (P_O_F_NP, %BIT_DATATYPE, 1);
     1125    19578    5                     CALL GENERATE_LEVEL2 (P_OPT_NP, %BIT_DATATYPE, 1);
     1126    19579    5                     CALL GENERATE_LEVEL2 (P_RPEAT_NP, %BIT_DATATYPE, 1);
     1127    19580    5                     CALL GENERATE_LEVEL2 (P_SKBL_NP, %BIT_DATATYPE, 1);
PL6.E3A0      #001=XUP$PARTRGE File=XUP$PARTRGE.:E05TSI                          WED 07/30/97 09:39 Page:34
     1128    19581    5                     CALL GENERATE_LEVEL2 (P_RTEXT_NP, %BIT_DATATYPE, 1);
     1129    19582    6                     DO CASE (NODE.TYPE);
     1130    19583    6                     CASE (%TYPE_ALTERN#, %TYPE_RALTERN#, %TYPE_KONCAT#,
     1131    19584    6                       %TYPE_LIST#);
     1132    19585    6                        CALL GENERATE_LEVEL2 (P_NSUBNDS_NP, %UBIN_DATATYPE, 9);
     1133    19586    6                        CALL GENERATE_LEVEL2 (P_CODE_NP, %UBIN_DATATYPE, 16);
     1134    19587    6                        L = NODE.NSUBNDS;
     1135    19588    6                        CALL GENERATE_LEVEL2 (P_SUBNDS$_NP, %POINTER_DATATYPE, 1,
     1136    19589    6                          L);
     1137    19590    6                     CASE (%TYPE_LITERAL#);
     1138    19591    6                        CALL GENERATE_LEVEL2 (P_UPRLOWR_NP, %BIT_DATATYPE, 1);
     1139    19592    6                        CALL GENERATE_LEVEL2 (P_ABBREV_NP, %UBIN_DATATYPE, 8);
     1140    19593    6                        CALL GENERATE_LEVEL2 (P_CODE_NP, %UBIN_DATATYPE, 16);
     1141    19594    6                        CALL GENERATE_LEVEL2 (P_COUNT_NP, %UBIN_DATATYPE, 9);
     1142    19595    6                        L = NODEL.COUNT;
     1143    19596    6                        CALL GENERATE_LEVEL2 (P_TEXT_NP, %CHAR_DATATYPE, L);
     1144    19597    6                     CASE (%TYPE_LEXEME#);
     1145    19598    6                        IF NODES.LEXTYPE = %LEX_DSTRING#
     1146    19599    7                        THEN DO;
     1147    19600    7                           CALL GENERATE_LEVEL2 (P_MAKEUC_NP, %BIT_DATATYPE, 1);
     1148    19601    7                           LOC_OFFSET = LOC_OFFSET + 3;
     1149    19602    7                           CALL GENERATE_LEVEL2 (P_LEXTYPE_NP, %UBIN_DATATYPE, 5);
     1150    19603    7                           CALL GENERATE_LEVEL2 (P_CODE_NP, %UBIN_DATATYPE, 16);
     1151    19604    7                           CALL GENERATE_LEVEL2 (P_MAXL_NP, %UBIN_DATATYPE, 9);
     1152    19605    7                           CALL GENERATE_LEVEL2 (P_DLIM_NP, %CHAR_DATATYPE, 1);
     1153    19606    7                           END;
     1154    19607    7                        ELSE DO;
     1155    19608    7                           CALL GENERATE_LEVEL2 (P_MAKEUC_NP, %BIT_DATATYPE, 1);
     1156    19609    7                           CALL GENERATE_LEVEL2 (P_XTRA_NP, %BIT_DATATYPE, 1);
     1157    19610    7                           LOC_OFFSET = LOC_OFFSET + 2;
     1158    19611    7                           CALL GENERATE_LEVEL2 (P_LEXTYPE_NP, %UBIN_DATATYPE, 5);
     1159    19612    7                           CALL GENERATE_LEVEL2 (P_CODE_NP, %UBIN_DATATYPE, 16);
     1160    19613    7                           IF NODES.XTRA
     1161    19614    8                           THEN DO;
     1162    19615    8                              CALL GENERATE_LEVEL2 (P_MAXL_NP, %UBIN_DATATYPE, 9);
     1163    19616    8                              CALL GENERATE_LEVEL2 (P_COUNT_NP, %UBIN_DATATYPE, 9);
     1164    19617    8                              L = NODES.COUNT;
PL6.E3A0      #001=XUP$PARTRGE File=XUP$PARTRGE.:E05TSI                          WED 07/30/97 09:39 Page:35
     1165    19618    8                              CALL GENERATE_LEVEL2 (P_TEXT_NP, %CHAR_DATATYPE, L);
     1166    19619    8                              END;
     1167    19620    7                           END;
     1168    19621    6                     END;
     1169    19622    5                     END;
     1170    19623    4                  END;
     1171    19624    3               SYM_.P$ = PINCRW (SYM_.NEXT$, SYM.LNK.LNK);
     1172    19625    3               END;
     1173    19626    2            IF PP.SCHEMA
     1174    19627    3            THEN DO;
     1175    19628    3               CALL XUO$LOGBLKEXSTTERM (LOGBLK_NUMBER, 0, HIGHEST_LINE_NUMBER);
     1176    19629    3               CALL XUO$LOGBLKVREBLTERM (LOGBLK_NUMBER, HIGHEST_VREBL_ENTRY);
     1177    19630    3               CALL XUO$LOGBLKTERM;
     1178    19631    3               END;
     1179    19632    2            CALL XUO$SECTSIZE (SECTION, MAXIMUM(PGMSIZE, 1));
     1180    19633    2            IF ERROR_COUNT = 0
     1181    19634    2            THEN
     1182    19635    2               CALL XUO$HEAD_SEVERITY (0);
     1183    19636    2            ELSE
     1184    19637    2               IF PGMSIZE = 0
     1185    19638    2               THEN
     1186    19639    2                  CALL XUO$HEAD_SEVERITY (15);
     1187    19640    2               ELSE
     1188    19641    2                  CALL XUO$HEAD_SEVERITY (11);
     1189    19642    2            CALL XUO$OUTERM;
     1190    19643    2            END;
     1191    19644        %EJECT;     /* OUTPUT THE CROSS REFERENCE */
PL6.E3A0      #001=XUP$PARTRGE File=XUP$PARTRGE.:E05TSI                          WED 07/30/97 09:39 Page:36
     1192    19645    1      CALL M$TIME(HTIM);
     1193    19646    2      IF PP.XR THEN DO;
     1194    19647    2         TITL.HDR='Cross Reference';
     1195    19648    2         CALL INSERT(LOHDR.TITL.TITLE#,0,SIZEC(TITL),TITC);
     1196    19649    2         CALL M$DEVICE(TOPAGE);
     1197    19650    2         SYM_.P$=PINCRW(SYM_.NEXT$,J);
     1198    19651    3         DO WHILE(SYM_.P$~=SYM_.NEXT$);
     1199    19652    3            TEXT.T=SYM.T;
     1200    19653    3            C=SIZEC(SYM.T)+7;
     1201    19654    3            IF C<SYMSZS(0) THEN C=SYMSZS(0);
     1202    19655    3            C=C/8*8;
     1203    19656    3            BLK$=PINCRW(SYM_.P$,SIZEW(SYM));
     1204    19657    4            DO WHILE(BLK$~=SYM_.FIRST$);
     1205    19658    4               CALL CROUT;
     1206    19659    4               BLK$=PINCRW(SYM_.FIRST$,BLK$->SYM.XR.LNK);
     1207    19660    4               END;
     1208    19661    3            CALL WRITELO;
     1209    19662    3            SYM_.P$=PINCRW(SYM_.NEXT$,SYM.LNK.LNK);
     1210    19663    3            END;
     1211    19664    2         END;
     1212    19665        %EJECT;     /* NOW PRODUCE A SYMBOL MAP*/
PL6.E3A0      #001=XUP$PARTRGE File=XUP$PARTRGE.:E05TSI                          WED 07/30/97 09:39 Page:37
     1213    19666    1      C=0;
     1214    19667    2      IF PP.MA THEN DO;
     1215    19668    2         TITL.HDR='Symbol Map';
     1216    19669    2         CALL INSERT(LOHDR.TITL.TITLE#,0,SIZEC(TITL),TITC);
     1217    19670    2         CALL M$DEVICE(TOPAGE);
     1218    19671    2         SYM_.P$=PINCRW(SYM_.NEXT$,J);
     1219    19672    3         DO WHILE(SYM_.P$~=SYM_.NEXT$);
     1220    19673    3            IF SYM.DEF THEN CALL NAMEOUT;
     1221    19674    3            SYM_.P$=PINCRW(SYM_.NEXT$,SYM.LNK.LNK);
     1222    19675    3            END;
     1223    19676    2         CALL WRITELO;
     1224    19677    2         CALL INSERT(LOHDR.TITL.TITLE#,
     1225    19678    2           POFFC(ADDR(TITL.HDR),ADDR(TITL)),SIZEC(TITL.HDR),
     1226    19679    2           'SYMDEF Map');
     1227    19680    2         CALL M$DEVICE(TOPAGE);
     1228    19681    2         SYM_.P$=PINCRW(SYM_.NEXT$,J);
     1229    19682    3         DO WHILE(SYM_.P$~=SYM_.NEXT$);
     1230    19683    3            IF SYM.DEF AND SYM.X>=SYM.USED THEN CALL NAMEOUT;
     1231    19684    3            SYM_.P$=PINCRW(SYM_.NEXT$,SYM.LNK.LNK);
     1232    19685    3            END;
     1233    19686    2         CALL WRITELO;
     1234    19687    2         END;
     1235    19688        %EJECT;     /* NOW A LIST OF PREFS */
PL6.E3A0      #001=XUP$PARTRGE File=XUP$PARTRGE.:E05TSI                          WED 07/30/97 09:39 Page:38
     1236    19689    2      IF NPREFS ~= 0 THEN DO;
     1237    19690    2         CALL BINCHAR (CNTMSG.PRFS, NPREFS);
     1238    19691    2         CALL EDITCHAR(CNTMSG.PRFS,0,3,'103'O,CNTMSG.PRFS);
     1239    19692    2         END;
     1240    19693    2      IF NPREFS > 0 AND PP.MA THEN DO;
     1241    19694    2         SYM_.P$=PINCRW(SYM_.NEXT$,J);
     1242    19695    2         IF COREFPT.BUF_.BUF$=NODE_.FIRST$ THEN J=0;
     1243    19696    2         CALL INSERT(LOHDR.TITL.TITLE#,
     1244    19697    2           POFFC(ADDR(TITL.HDR),ADDR(TITL)),SIZEC(TITL.HDR),'PREFs');
     1245    19698    2         CALL M$DEVICE(TOPAGE);
     1246    19699    2         IF J=0 THEN CALL ERROR(5);
     1247    19700    3         DO WHILE(SYM_.P$~=SYM_.NEXT$);
     1248    19701    3            IF NOT SYM.DEF THEN CALL NAMEOUT;
     1249    19702    3            SYM_.P$=PINCRW(SYM_.NEXT$,SYM.LNK.LNK);
     1250    19703    3            END;
     1251    19704    2         CALL WRITELO;
     1252    19705    2         END;
     1253    19706    1   XUPEXIT:;
     1254    19707    2      IF ERROR_COUNT > 0 THEN DO;
     1255    19708    2         CALL BINCHAR (CTEMP, ERROR_COUNT);
     1256    19709    2         CALL EDITSTR (CNTMSG.CNT, , , %MVZB6, CTEMP);
     1257    19710    2         CNTMSG.ASTS = ' *** ';
     1258    19711    2         IF ERROR_COUNT = 1
     1259    19712    2         THEN
     1260    19713    2            CNTMSG.ERWORD = ' error, ';
     1261    19714    2         END;
     1262    19715    2      ELSE DO;
     1263    19716    2         CNTMSG.ASTS = ' ';
     1264    19717    2         CNTMSG.CNT = '    No';
     1265    19718    2         END;
     1266    19719    1      IF FIRST_SYM$ = ADDR(NIL)
     1267    19720    1      THEN
     1268    19721    1         CNTMSG.MODNAME = 'this rather bogus module';
     1269    19722    1      ELSE
     1270    19723    1         CNTMSG.MODNAME = FIRST_SYM$ -> SYM.T;
     1271    19724    1      ERRREFS=' ';
     1272    19725    1      CALL ERROR(2);
PL6.E3A0      #001=XUP$PARTRGE File=XUP$PARTRGE.:E05TSI                          WED 07/30/97 09:39 Page:39
     1273    19726    1      CALL ERROR(4);
     1274    19727    1      TOTAL_ERRORS = TOTAL_ERRORS + ERROR_COUNT;
     1275    19728    1      IF ECU < HIGHEST_BC AND NOT (PREPROC.END_OF_SOURCE OR FATAL_ERROR)
     1276    19729    1      THEN
     1277    19730    1         GOTO PROCESS_ECU;
     1278    19731    1   WRAP_IT_UP:
     1279    19732    1      ERRREFS = ' ';
     1280    19733    1      CALL ERROR (2);
     1281    19734    1      OUCLS.V.DCB# = DCBNUM(M$OU);
     1282    19735    1      OUCLS.V.OPER.REBLD# = %YES#;
     1283    19736    1      OUCLS.V.OPER.RELG# = %YES#;
     1284    19737    1      CALL M$CLOSE (OUCLS);
     1285    19738    1      CALL XUU$CLOSE (CLOSE_FILES) ALTRET (XUU_ERROR);
     1286    19739    1      IF DCBADDR(DCBNUM(M$LIST)) -> F$DCB.FCD#
     1287    19740    1      THEN
     1288    19741    1         CALL M$CLOSE (CLOSE_LIST) ALTRET (MONERR);
     1289    19742    1   SHUT_DOWN_IMMEDIATELY:
     1290    19743    1      OUCLS.V.DCB#=DCBNUM(M$LO);
     1291    19744    1      CALL M$CLOSE(OUCLS);
     1292    19745    1      IF TOTAL_ERRORS ~= 0 OR (NPREFS > 0 AND NOT PP.PREF) THEN
     1293    19746    1         CALL M$EXIT (ERRXIT);
     1294    19747    1      RETURN;
     1295    19748    1   SYMOVE:PROC(P$);
     1296    19749    2   DCL P$ PTR;
     1297    19750    2   DCL 1 SYMO BASED(P$) ALIGNED,
     1298    19751    2         2 C UBIN(18) UNAL,
     1299    19752    2         2 T CHAR(SYMO.C);
     1300    19753    2      SYMO.C=SYM.C;
     1301    19754    2      SYMO.T=SYM.T;
     1302    19755    2      P$=PINCRW(P$,SIZEW(SYMO));
     1303    19756    2   END SYMOVE;
     1304    19757    1   EMIT_WORDS: PROC;
     1305    19758    2   DCL K UBIN;
     1306    19759    2      IF NOT GENERATE_OU
     1307    19760    2      THEN
     1308    19761    2         RETURN;
     1309    19762    3      DO K = 0 TO J - 1;
PL6.E3A0      #001=XUP$PARTRGE File=XUP$PARTRGE.:E05TSI                          WED 07/30/97 09:39 Page:40
     1310    19763    3         CALL XUO$PRGM (SECTION, LOC_OFFSET + K + 1, NODE.SUBNDS(K));
     1311    19764    3         END;
     1312    19765    2      RETURN;
     1313    19766    2   END EMIT_WORDS;
     1314    19767        %EJECT;
PL6.E3A0      #001=XUP$PARTRGE File=XUP$PARTRGE.:E05TSI                          WED 07/30/97 09:39 Page:41
     1315    19768    1   GENERATE_DEBUG_NAMES: PROC;
     1316    19769
     1317    19770    2      CALL GENERATE_DNAME ('TYPE!', P_TYPE_NP);
     1318    19771    2      CALL GENERATE_DNAME ('P_F!', P_P_F_NP);
     1319    19772    2      CALL GENERATE_DNAME ('S_F!', P_S_F_NP);
     1320    19773    2      CALL GENERATE_DNAME ('F_F!', P_F_F_NP);
     1321    19774    2      CALL GENERATE_DNAME ('O_F!', P_O_F_NP);
     1322    19775    2      CALL GENERATE_DNAME ('OPT!', P_OPT_NP);
     1323    19776    2      CALL GENERATE_DNAME ('RPEAT!', P_RPEAT_NP);
     1324    19777    2      CALL GENERATE_DNAME ('SKBL!', P_SKBL_NP);
     1325    19778    2      CALL GENERATE_DNAME ('RTEXT!', P_RTEXT_NP);
     1326    19779    2      CALL GENERATE_DNAME ('UPRLOWR!', P_UPRLOWR_NP);
     1327    19780    2      CALL GENERATE_DNAME ('MAKEUC!', P_MAKEUC_NP);
     1328    19781    2      CALL GENERATE_DNAME ('ABBREV!', P_ABBREV_NP);
     1329    19782    2      CALL GENERATE_DNAME ('CODE!', P_CODE_NP);
     1330    19783    2      CALL GENERATE_DNAME ('NSUBNDS!', P_NSUBNDS_NP);
     1331    19784    2      CALL GENERATE_DNAME ('COUNT!', P_COUNT_NP);
     1332    19785    2      CALL GENERATE_DNAME ('TEXT!', P_TEXT_NP);
     1333    19786    2      CALL GENERATE_DNAME ('XTRA!', P_XTRA_NP);
     1334    19787    2      CALL GENERATE_DNAME ('SUBNDS$!', P_SUBNDS$_NP);
     1335    19788    2      CALL GENERATE_DNAME ('LEXTYPE!', P_LEXTYPE_NP);
     1336    19789    2      CALL GENERATE_DNAME ('MAXL!', P_MAXL_NP);
     1337    19790    2      CALL GENERATE_DNAME ('DLIM!', P_DLIM_NP);
     1338    19791
     1339    19792    2      RETURN;
     1340    19793
     1341    19794    2   END GENERATE_DEBUG_NAMES;
     1342    19795        %EJECT;
PL6.E3A0      #001=XUP$PARTRGE File=XUP$PARTRGE.:E05TSI                          WED 07/30/97 09:39 Page:42
     1343    19796    1   GENERATE_DNAME: PROC (STRING, NAME_POINTER);
     1344    19797
     1345    19798    2   DCL STRING CHAR (32);
     1346    19799    2   DCL SLEN UBIN;
     1347    19800    2   DCL NAME_POINTER UBIN;
     1348    19801
     1349    19802    2      CALL INDEX (SLEN, '!', STRING);
     1350    19803
     1351    19804    2      P_NAME.COUNT = SLEN;
     1352    19805    2      P_NAME.TEXT = SUBSTR (STRING, 0, SLEN);
     1353    19806
     1354    19807    2      CALL XUO$DBGNAME (P_NAME, NAME_POINTER);
     1355    19808
     1356    19809    2      RETURN;
     1357    19810
     1358    19811    2   END GENERATE_DNAME;
     1359    19812        %EJECT;
PL6.E3A0      #001=XUP$PARTRGE File=XUP$PARTRGE.:E05TSI                          WED 07/30/97 09:39 Page:43
     1360    19813    1   GENERATE_LEVEL2: PROC (NAME_POINTER, DATATYPE, DATASIZE, ELEMENTS);
     1361    19814
     1362    19815    2   DCL NAME_POINTER UBIN;
     1363    19816    2   DCL DATATYPE UBIN;
     1364    19817    2   DCL DATASIZE UBIN;
     1365    19818    2   DCL ELEMENTS UBIN;
     1366    19819
     1367    19820    2   DCL ACTUAL_ELEMENTS UBIN;
     1368    19821    2   DCL ALIGNMENT UBIN;
     1369    19822    2   DCL ARRAY_TYPE UBIN;
     1370    19823    2   DCL ELEMENT_SIZE UBIN;
     1371    19824    2   DCL NEW_OFFSET UBIN;
     1372    19825
     1373    19826    2      IF ADDR(ELEMENTS) = ADDR(NIL)
     1374    19827    3      THEN DO;
     1375    19828
     1376    19829    3         ARRAY_TYPE = %SCALAR_ARRAY;
     1377    19830    3         ACTUAL_ELEMENTS = 1;
     1378    19831    3         ELEMENT_SIZE = 0;
     1379    19832
     1380    19833    3         END;
     1381    19834
     1382    19835    3      ELSE DO;
     1383    19836
     1384    19837    3         ARRAY_TYPE = %VECTOR0_ARRAY;
     1385    19838    3         ACTUAL_ELEMENTS = ELEMENTS;
     1386    19839
     1387    19840    4         DO CASE (DATATYPE);
     1388    19841
     1389    19842    4         CASE (%CHAR_DATATYPE);
     1390    19843
     1391    19844    4            ELEMENT_SIZE = 9;
     1392    19845
     1393    19846    4         CASE (%POINTER_DATATYPE);
     1394    19847
     1395    19848    4            ELEMENT_SIZE = 36;
     1396    19849
PL6.E3A0      #001=XUP$PARTRGE File=XUP$PARTRGE.:E05TSI                          WED 07/30/97 09:39 Page:44
     1397    19850    4         CASE (ELSE);
     1398    19851
     1399    19852    4            ELEMENT_SIZE = 1;
     1400    19853
     1401    19854    4         END;
     1402    19855
     1403    19856    3         END;
     1404    19857
     1405    19858    3      DO CASE (DATATYPE);
     1406    19859
     1407    19860    3      CASE (%CHAR_DATATYPE);
     1408    19861
     1409    19862    3         ALIGNMENT = 3 /* byte aligned */;
     1410    19863    3         NEW_OFFSET = LOC_OFFSET + DATASIZE * ACTUAL_ELEMENTS * 9;
     1411    19864
     1412    19865    3      CASE (%POINTER_DATATYPE);
     1413    19866
     1414    19867    3         ALIGNMENT = 1 /* word aligned */;
     1415    19868    3         NEW_OFFSET = LOC_OFFSET + DATASIZE * ACTUAL_ELEMENTS * 36;
     1416    19869
     1417    19870    3      CASE (ELSE);
     1418    19871
     1419    19872    3         ALIGNMENT = 4 /* bit aligned */;
     1420    19873    3         NEW_OFFSET = LOC_OFFSET + DATASIZE * ACTUAL_ELEMENTS;
     1421    19874
     1422    19875    3      END;
     1423    19876
     1424    19877    2      CALL XUO$VREBL (LOC_OFFSET,
     1425    19878    2        1 /* static */,
     1426    19879    2        DATATYPE,
     1427    19880    2        '0'B /* not used */,
     1428    19881    2        '0'B /* not modified */,
     1429    19882    2        DATASIZE,
     1430    19883    2        2 /* level */,
     1431    19884    2        ALIGNMENT,
     1432    19885    2        0 /* size is actual */,
     1433    19886    2        ARRAY_TYPE,
PL6.E3A0      #001=XUP$PARTRGE File=XUP$PARTRGE.:E05TSI                          WED 07/30/97 09:39 Page:45
     1434    19887    2        %OPERSECT,
     1435    19888    2        0 /* implied ptr; unused */,
     1436    19889    2        SECTION /* for relocation */,
     1437    19890    2        ELEMENT_SIZE,
     1438    19891    2        0 /* scale factor; unused */,
     1439    19892    2        ACTUAL_ELEMENTS,
     1440    19893    2        NAME_POINTER,
     1441    19894    2        HIGHEST_VREBL_ENTRY);
     1442    19895
     1443    19896    2      LOC_OFFSET = NEW_OFFSET;
     1444    19897
     1445    19898    2      RETURN;
     1446    19899
     1447    19900    2   END GENERATE_LEVEL2;
     1448    19901
     1449    19902    1   END XUP$PARTRGE;
     1450    19903        %EOD;

PL6.E3A0      #001=XUP$PARTRGE File=XUP$PARTRGE.:E05TSI                          WED 07/30/97 09:39 Page:46
--  Include file information  --

   ZQ$INTERFACE_M.:TOOLE04  is referenced.
   XUX$INTERFACE_M.:E05TOU  is referenced.
   XUO$ENTRIES.:E05TOU  cannot be made into a system file and is referenced.
   XU_PERR_C.:E05TOU  is referenced.
   XU_SUBS_C.:E05TOU  is referenced.
   XU_MACRO_C.:E05TOU  is referenced.
   CP_6_SUBS.:E05TOU  is referenced.
   CP_6_C.:E05TOU  is referenced.
   CP_6.:E05TOU  cannot be made into a system file and is referenced.
   B$OBJECT_C.:E05TOU  is referenced.
   B_MICROPS_C.:E05TOU  is referenced.
   B$JIT_C.:E05TOU  is referenced.
   B$JIT.:E05TOU  cannot be made into a system file and is referenced.
      No diagnostics issued in procedure XUP$PARTRGE.

   Procedure XUP$PARTRGE requires 3580 words for executable code.
   Procedure XUP$PARTRGE requires 98 words of local(AUTO) storage.

PL6.E3A0      #001=XUP$PARTRGE File=XUP$PARTRGE.:E05TSI                          WED 07/30/97 09:39 Page:47

 Object Unit name= XUP$PARTRGE                                File name= XUP$PARTRGE.:E05TOU
 UTS= JUL 30 '97 09:39:09.24 WED                              Compiler= PL-6/E31         Sev=      00
 SharedLib= :SHARED_SYSTEM                                    Alt SharedLib=


    ****  Control sections  ****

 Sect   Type Bound  Init  Size OctSiz  Section name(segment info)
    0   DCB   even  none     0      0  M$UC
    1   Data  even  none   990   1736  XUP$PARTRGE
    2  RoData even  UTS    368    560  XUP$PARTRGE
    3   DCB   even  none    98    142  M$NS
    4   DCB   even  none    98    142  M$LIST
    5   DCB   even  none    98    142  M$DIAG
    6   DCB   even  none    98    142  M$LO
    7   DCB   even  none     0      0  M$DO
    8   DCB   even  none     0      0  M$OU
    9   DCB   even  none     0      0  M$CORE
   10   DCB   even  none     0      0  M$SI
   11   DCB   even  none     0      0  M$UI
   12   DCB   even  none     0      0  M$MAC
   13   DCB   even  none     0      0  M$SYSTEM
   14   DCB   even  none     0      0  M$ME
   15   Proc  even  none  3580   6774  XUP$PARTRGE
   16  RoData even  none   119    167  XUP$PARTRGE

    ****  Entry defs  ****

                              Check   Calling
                             calling  sequence
  Sect OctLoc Primary Altret sequence   type   Parms  Name
    15      0   yes            yes      Main       0  XUP$PARTRGE
PL6.E3A0      #001=XUP$PARTRGE File=XUP$PARTRGE.:E05TSI                          WED 07/30/97 09:39 Page:48

  ****  Data defs  ****

 Sect OctLoc  Name                           Sect OctLoc  Name
    1     40  P_PCB                              1    346  NODEFPT
    1    354  SYMFPT                             1    362  WORKFPT
    1    652  PARTRGE$RECNO                      1    653  PARTRGE$INPUT_KEY
    1   1202  WORK_                              1   1206  NODE_
    1   1212  SYM_                               1   1216  NODECODE
    1   1220  LITCODE                            1   1221  LIT_PRESENT
    1   1222  LEXES$                             1   1260  NOCORERR
    1   1262  SYNTAXERR                          1   1264  XUOERROR
    1   1266  XUO_ERROR_CODE                     1   1267  SYMSZS
    1   1330  ERROR_COUNT

  ****  Entry refs  ****

         Check        Calling
        calling       sequence
Altret sequence SRef   type   Args  Name
 yes     yes           Std       0 XUO$LOGBLKTERM
 yes     yes           Std       1 XUU$OPEN
 yes     yes           Std       5 XUO$LOGBLKEXSTINIT
         yes           Std       0 XUO$OUTERM
         yes           Std       2 XUO$DNAME
         yes           Std       4 XUO$SREF
 yes     yes           Std       2 XUP$BLDSYM
         yes           Std       1 XUP$BLDOPT
         yes           Std      17 XUO$BUFINIT
         yes           Std       1 XUO$HEADNAME
         yes           Std       2 XUO$RNAME
         yes           Std       8 XUO$EDEF
 yes     yes           Std       2 XUO$LOGBLKVREBLINIT
 yes     yes           Std       1 X$PARSE
 yes     yes           Std       3 XUO$PRGM
         yes           Std       4 PARTRGE_MON_ERROR
 yes     yes           Std       2 XUP$BLDNODE
         yes           Std       2 XUO$DBGNAME
PL6.E3A0      #001=XUP$PARTRGE File=XUP$PARTRGE.:E05TSI                          WED 07/30/97 09:39 Page:49
         yes           Std      19 XUO$VREBL
 yes     yes           Std      11 XUO$OUINIT
 yes     yes           Std       9 XUO$RELOC
 yes     yes           Std       1 ZQC$PREP
 yes     yes           Std       1 XUU$CLOSE
         yes           Std      11 XUP$PARTRGE_PREPROC_ERROR
         yes           Std       1 XUP$PARTRGE_XUO_ERROR
 yes     yes           Std       6 XUO$SECTBUILD
 yes     yes           Std       3 XUO$LOGBLKEXSTTERM
         yes           Std       1 XUO$HEAD_SEVERITY
         yes           Std       3 XUO$SDEF
 yes     yes           Std       1 XUO$LOGBLKALLOC
         yes           Std       5 XUO$SEGREF
 yes     yes           Std       2 XUO$LOGBLKVREBLTERM
 yes     yes           Std       2 XUO$SECTSIZE
                       nStd      0 X66_MAUTO
                       Std       0 B_CONSPOOL_D
                       nStd      0 X66_MARET

  ****  Data refs  ****

  Flags:  r = read only, s = secondary
Flgs Name                             Flgs Name                             Flgs Name
     M$UC                                  B_VERSION                             PARTRGE_CMD
     OPTIONS                               M$NS                                  M$LIST
     M$DIAG                                M$LO                                  M$DO
     M$OU                                  M$CORE                                M$SI
     M$UI                                  M$MAC                                 M$SYSTEM
     M$ME                                  B$JIT$                                B$TCB$
     B_VECTNIL

  ****  Segment refs  ****

  Flags:  r = read only, s = secondary
Flgs Name                             Flgs Name                             Flgs Name
     NULLSID                               ISSID                                 ROSID
PL6.E3A0      #001=XUP$PARTRGE File=XUP$PARTRGE.:E05TSI                          WED 07/30/97 09:39 Page:50


        1        1        /*M* XUP$PARTRGE - M$PARSE NODE BUILDER */
        2        2        /*T***********************************************************/
        3        3        /*T*                                                         */
        4        4        /*T* Copyright (c) Bull HN Information Systems Inc., 1997    */
        5        5        /*T*                                                         */
        6        6        /*T***********************************************************/
        7        7       /*X*MCL=0,MOC,MEC,CLM=12,EXM=12,CRT=6,DMR,PLM=3,IND=3,ENU=0,DCI=3,CSU=3,ECU=3,THI=0,
                 7        DTI=0*/
        8        8        XUP$PARTRGE: PROC MAIN;

      8 15 000000   000000 700200 xent  XUP$PARTRGE  TSX0  ! X66_MAUTO
        15 000001   000142 000000                    ZERO    98,0

        9        9                    /* INCLUDES:*/
       10       10        %INCLUDE B$JIT;
       11      613        %INCLUDE B_MICROPS_C;
       12      785        %INCLUDE B$OBJECT_C;
       13     4215        %INCLUDE CP_6;
       14     9774        %INCLUDE CP_6_SUBS;
       15    10314        %INCLUDE XU_MACRO_C;
       16    13420        %INCLUDE XU_SUBS_C;
       17    13512        %INCLUDE XU_PERR_C;
       18    13703        %INCLUDE XUO$ENTRIES;
       19    13754        %INCLUDE XUX$INTERFACE_M;
       20    14531        %INCLUDE ZQ$INTERFACE_M;
       21    15079        %B$TCB(STCLASS="BASED(B$TCB$)");
       22    15082        %B$ALT;
       23    15090        %B$RELOCSUBS;
       24    15120        %B$SECTIONSUBS;
       25    15135        %COMPILERIDSUBS;
       26    15151        %VREBLSUBS;
       27    15159        %VREBL_DATATYPES;
       28    15234        %SUB_CST;
       29    15250                    /* STATIC DATA */
       30    15251    1   DCL 1 TEXT STATIC,
       31    15252    1         2 LINE UBIN,
PL6.E3A0      #001=XUP$PARTRGE File=XUP$PARTRGE.:E05TSI                          WED 07/30/97 09:39 Page:51
       32    15253    1         2 SIKEY UBIN(27)UNAL,
       33    15254    1         2 UPC CHAR(1),
       34    15255    1         2 T CHAR(120)INIT(' '),
       35    15256    1         2 M REDEF T,
       36    15257    1           3 ID CHAR(8),
       37    15258    1           3 L# CHAR(8),
       38    15259    1           3 LP CHAR(2),
       39    15260    1           3 S# CHAR(5),
       40    15261    1           3 DOT CHAR(1),
       41    15262    1           3 SD# CHAR(3),
       42    15263    1           3 RP CHAR(93);
       43    15264    1   DCL 1 LINES(0:0)BASED(WORK_.P$)ALIGNED,
       44    15265    1         2 CPOS UBIN(18)UNAL,
       45    15266    1         2 L# UBIN(18)UNAL,
       46    15267    1         2 S# SBIN(27)UNAL,
       47    15268    1         2 UPC CHAR(1);
       48    15269        %MACRO REC(NAME=);
       49    15270        DCL 1 NAME STATIC SYMDEF DALIGNED,
       50    15271              2 SIZE UBIN(18) UNAL,
       51    15272              2 FIRST$ PTR INIT(ADDR(NIL)),
       52    15273              2 SEG REDEF FIRST$,
       53    15274                3 * BIT(18),
       54    15275                3 SEG UBIN(18) UNAL,
       55    15276              2 F$SBIN REDEF FIRST$ SBIN,
       56    15277              2 P$ PTR,
       57    15278              2 P$SBIN REDEF P$ SBIN,
       58    15279              2 NEXT$ PTR,
       59    15280              2 N$SBIN REDEF NEXT$ SBIN;
       60    15281        %MEND;
       61    15282        %P_PCB(R=OPTIONS);
       62    15481        %FPT_READ (DCB=M$NS, BUF=ZQ$NS_BUFFER);
       63    15520        %FPT_WRITE(FPTN=LOFPT,DCB=M$LO,BUF=TEXT.T);
       64    15551        %FPT_READ (FPTN=READ_LIST, DCB=M$LIST, BUF=ZQ$LS_BUFFER);
       65    15590        %FPT_READ (FPTN=READ_DIAG, DCB=M$DIAG, BUF=ZQ$DIAG_BUFFER);
       66    15629        %FPT_WRITE (FPTN=WRITE_LS, DCB=M$LO, BUF=LS_BUFFER, VFC=YES);
       67    15660        %FPT_WRITE (FPTN=WRITE_BLANK, DCB=M$LO, BUF=ONE_BLANK, STCLASS=CONSTANT);
       68    15691        %FPT_WRITE (FPTN=WRITE_SALUTATION, DCB=M$ME, BUF=SALUTATION);
PL6.E3A0      #001=XUP$PARTRGE File=XUP$PARTRGE.:E05TSI                          WED 07/30/97 09:39 Page:52
       69    15722        %FPT_REW (FPTN=REWIND_PP_FILE);
       70    15737        %PARSE$OUT;
       71    15782        %PARSE$SYM;
       72    15820        %FPT_OPEN (FPTN=OUOPN, DCB=M$LO, FUN=CREATE, ACS=DIRECT);
       73    15929        %FPT_OPEN (FPTN=SIOPN, STCLASS=CONSTANT, DCB=M$SI, FUN=IN, ASN=FILE,
       74    15930                   SETDCB=YES, NAME=KEYINSI);
       75    16039        %FPT_OPEN (FPTN=COREOPN, STCLASS=CONSTANT, DCB=M$CORE, FUN=CREATE,
       76    16040                   DISP=NAMED, SETDCB=YES, NAME=KEYINOU);
       77    16149        %FPT_WRITE(DCB=M$CORE,KEY=COREKEY,FPTN=COREFPT);
       78    16180        %FPT_CLOSE(FPTN=OUCLS,DCB=M$OU,DISP=SAVE);
       79    16222        %FPT_CLOSE (FPTN=CLOSE_LIST, DCB=M$LIST, DISP=SAVE, STCLASS=CONSTANT);
       80    16264        %FPT_CLOSE (FPTN=CLOSE_DIAG, DCB=M$DIAG, DISP=SAVE, STCLASS=CONSTANT);
       81    16306        %FPT_CLOSE (FPTN=CLOSE_NS, DCB=M$NS, DISP=SAVE, STCLASS=CONSTANT);
       82    16348        %FPT_GDS(FPTN=NODEFPT,STCLASS="STATIC  SYMDEF",
       83    16349        RESULTS=NODE_,SEGSIZE=1024,COMMON=YES);
       84    16365        %FPT_GDS(FPTN=SYMFPT,STCLASS="STATIC  SYMDEF",RESULTS=SYM_,SEGSIZE=256);
       85    16381        %FPT_GDS(FPTN=WORKFPT,STCLASS="STATIC SYMDEF",RESULTS=WORK_,SEGSIZE=256);
       86    16397        %VLP_NAME(FPTN=KEYINSI,NAME='OC_KEY_S',STCLASS=CONSTANT);
       87    16424        %VLP_NAME(FPTN=KEYINOU,NAME=':OCKEY',STCLASS=CONSTANT);
       88    16451        %F$DCB;
       89    16508        %FPT_ERRMSG(FPTN=EFPT,CODE=ERCODE,BUF=TEXT.T);
       90    16535        %FPT_CORRES(FPTN=CORR,DCB1=M$LO,DCB2=M$DO,STCLASS=CONSTANT);
       91    16549        %FPT_DEVICE(FPTN=TOPAGE,DCB=M$LO,HDR=LOHDR);
       92    16567        %VLP_HDR(FPTN=LOHDR,HEADERHEIGHT=2,LEN=108,RESETPAGE=YES);
       93    16583        %FPT_TIME(FPTN=HTIM,DATE=TITL.DAT,TIME=TITL.TIM);
       94    16602        %FPT_EXIT(FPTN=ERRXIT,STCLASS=CONSTANT,STEPCC=ERROR);
       95    16617        %FPT_FID (RESULTS=VLR_FID);
       96    16640        %VLR_FID;
       97    16659        %XUU_PARAM (FPTN=OPEN_FILES, STCLASS=STATIC, BASE=YES, DCB="DCBNUM(M$LO)",
       98    16660                    BLANK_FILL=YES);
       99    17095        %XUU_PARAM (FPTN=CLOSE_FILES, STCLASS=STATIC, CLOSE_ALL=YES);
      100    17530        %ZQ$PREPROC_PARAM (NAME=PREPROC, STCLASS=STATIC);
      101    17849        %ZQ$RECNO (NAME=PARTRGE$RECNO, STCLASS=STATIC SYMDEF);
      102    17852        %ZQ$INPUT_KEY (NAME=PARTRGE$INPUT_KEY, STCLASS=STATIC SYMDEF);
      103    17865        %ZQ$NS_BUFFER (STCLASS=STATIC);
      104    17891        %ZQ$LS_BUFFER (STCLASS=STATIC);
      105    17949        %ZQ$LS_BUFFER (NAME=ZQ$DIAG_BUFFER, STCLASS=STATIC);
PL6.E3A0      #001=XUP$PARTRGE File=XUP$PARTRGE.:E05TSI                          WED 07/30/97 09:39 Page:53
      106    18007    1   DCL 1 B_VERSION SYMREF,
      107    18008    1         2 LEN UBIN BYTE CALIGNED,
      108    18009    1         2 TEXT CHAR (B_VERSION.LEN);
      109    18010    1   DCL 1 TITL STATIC,
      110    18011    1         2 * CHAR (0) INIT ('PARTRGE version '),
      111    18012    1         2 VERS CHAR (4) INIT ('C100'),
      112    18013    1         2 * CHAR (1) INIT (' '),
      113    18014    1         2 HDR CHAR (20) INIT ('Source listing'),
      114    18015    1         2 TIM CHAR(12)INIT(' '),
      115    18016    1         2 DAT CHAR(11)INIT(' '),
      116    18017    1         2 FILE CHAR(31);
      117    18018    1   DCL TITC REDEF TITL CHAR (95);
      118    18019    1   DCL 1 LS_BUFFER STATIC,
      119    18020    1         2 VFC CHAR (1),
      120    18021    1         2 PRINT_BUFFER CHAR (132);
      121    18022    1   DCL 1 SALUTATION STATIC,
      122    18023    1         2 * CHAR (0) INIT ('PARTRGE version '),
      123    18024    1         2 VERS CHAR (4),
      124    18025    1         2 * CHAR (0) INIT (' here at '),
      125    18026    1         2 TIM CHAR (12),
      126    18027    1         2 DAT CHAR (12);
      127    18028        %LIST;
      128    18029        %REC (NAME=WORK_);
             18030    1   DCL 1 NAME STATIC SYMDEF DALIGNED,
             18031    1         2 SIZE UBIN(18) UNAL,
             18032    1         2 FIRST$ PTR INIT(ADDR(NIL)),
             18033    1         2 SEG REDEF FIRST$,
             18034    1           3 * BIT(18),
             18035    1           3 SEG UBIN(18) UNAL,
             18036    1         2 F$SBIN REDEF FIRST$ SBIN,
             18037    1         2 P$ PTR,
             18038    1         2 P$SBIN REDEF P$ SBIN,
             18039    1         2 NEXT$ PTR,
             18040    1         2 N$SBIN REDEF NEXT$ SBIN;
      129    18042        %REC (NAME=NODE_);
             18043    1   DCL 1 NAME STATIC SYMDEF DALIGNED,
             18044    1         2 SIZE UBIN(18) UNAL,
PL6.E3A0      #001=XUP$PARTRGE File=XUP$PARTRGE.:E05TSI                          WED 07/30/97 09:39 Page:54
             18045    1         2 FIRST$ PTR INIT(ADDR(NIL)),
             18046    1         2 SEG REDEF FIRST$,
             18047    1           3 * BIT(18),
             18048    1           3 SEG UBIN(18) UNAL,
             18049    1         2 F$SBIN REDEF FIRST$ SBIN,
             18050    1         2 P$ PTR,
             18051    1         2 P$SBIN REDEF P$ SBIN,
             18052    1         2 NEXT$ PTR,
             18053    1         2 N$SBIN REDEF NEXT$ SBIN;
      130    18055        %REC (NAME=SYM_);
             18056    1   DCL 1 NAME STATIC SYMDEF DALIGNED,
             18057    1         2 SIZE UBIN(18) UNAL,
             18058    1         2 FIRST$ PTR INIT(ADDR(NIL)),
             18059    1         2 SEG REDEF FIRST$,
             18060    1           3 * BIT(18),
             18061    1           3 SEG UBIN(18) UNAL,
             18062    1         2 F$SBIN REDEF FIRST$ SBIN,
             18063    1         2 P$ PTR,
             18064    1         2 P$SBIN REDEF P$ SBIN,
             18065    1         2 NEXT$ PTR,
             18066    1         2 N$SBIN REDEF NEXT$ SBIN;
      131    18068        %PLIST;
      132    18069                    /* OTHER DCLS */
      133    18070    1   DCL X$PARSE ENTRY(1) ALTRET;
      134    18071    1   DCL XUU$OPEN ENTRY (1) ALTRET;
      135    18072    1   DCL XUU$CLOSE ENTRY (1) ALTRET;
      136    18073    1   DCL XUP$PARTRGE_PREPROC_ERROR ENTRY (11);
      137    18074    1   DCL PARTRGE_MON_ERROR ENTRY (4);
      138    18075    1   DCL XUP$PARTRGE_XUO_ERROR ENTRY (1);
      139    18076    1   DCL XUP$BLDOPT ENTRY(1);
      140    18077    1   DCL XUP$BLDNODE ENTRY(2) ALTRET;
      141    18078    1   DCL XUP$BLDSYM ENTRY(2) ALTRET;
      142    18079    1   DCL PARTRGE_CMD SYMREF SBIN;
      143    18080    1   DCL 1 NODECODE STATIC SYMDEF,
      144    18081    1         2 TYPE UBIN (3) UNAL,
      145    18082    1         2 PRE_F BIT(1),
      146    18083    1         2 SUCC_F BIT(1),
PL6.E3A0      #001=XUP$PARTRGE File=XUP$PARTRGE.:E05TSI                          WED 07/30/97 09:39 Page:55
      147    18084    1         2 FAIL_F BIT(1),
      148    18085    1         2 OUT_F  BIT(1),
      149    18086    1         2 OPT BIT(1) UNAL,
      150    18087    1         2 RPEAT BIT(1),
      151    18088    1         2 SKBL BIT(1),
      152    18089    1         2 RTEXT BIT(1),
      153    18090    1         2 UPRLOWR BIT(1),
      154    18091    1         2 MAKEUC REDEF UPRLOWR BIT(1),
      155    18092    1         2 ABBREV UBIN(8) UNAL,
      156    18093    1         2 CODE UBIN(16) UNAL,
      157    18094    1         2 NOUT_F BIT(1),
      158    18095    1         2 * BIT(35);
      159    18096    1   DCL LITCODE SBIN STATIC SYMDEF INIT(0);
      160    18097    1   DCL LIT_PRESENT BIT(1) STATIC SYMDEF INIT ('0'B);
      161    18098    1   DCL LEXES$(0:29) STATIC SYMDEF PTR;
      162    18099    1   DCL OPTIONS UBIN SYMREF;
      163    18100    1   DCL NOCORERR REMEMBER STATIC SYMDEF;
      164    18101    1   DCL SYNTAXERR REMEMBER STATIC SYMDEF;
      165    18102    1   DCL XUOERROR REMEMBER STATIC SYMDEF;
      166    18103    1   DCL XUO_ERROR_CODE BIT (36) STATIC SYMDEF;
      167    18104        %M$DCB (DCBN=M$NS, ASN=FILE, ORG=CONSEC, FUN=CREATE, DISP=SCRATCH);
      168    18178        %M$DCB (DCBN=M$LIST, ASN=FILE, ORG=CONSEC, FUN=CREATE, DISP=SCRATCH);
      169    18252        %M$DCB (DCBN=M$DIAG, ASN=FILE, ORG=CONSEC, FUN=CREATE, DISP=SCRATCH);
      170    18326        %M$DCB (DCBN=M$LO, ASN=DEVICE, RES='LO', ORG=UR);
      171    18400    1   DCL M$DO DCB;
      172    18401    1   DCL M$OU DCB;
      173    18402    1   DCL M$CORE DCB;
      174    18403    1   DCL M$SI DCB;
      175    18404    1   DCL M$UI DCB;
      176    18405    1   DCL M$MAC DCB;
      177    18406    1   DCL M$SYSTEM DCB;
      178    18407    1   DCL M$ME DCB;
      179    18408    1   DCL B$JIT$ PTR SYMREF;
      180    18409    1   DCL B$TCB$ PTR SYMREF;
      181    18410    1   DCL CHAR1 BASED(BLK$) CHAR(1);
      182    18411    1   DCL NONBLANK_FOUND BIT (1);
      183    18412    1   DCL DATA UBIN BASED ALIGNED;
PL6.E3A0      #001=XUP$PARTRGE File=XUP$PARTRGE.:E05TSI                          WED 07/30/97 09:39 Page:56
      184    18413    1   DCL BLK$ PTR;
      185    18414    1   DCL BLK$O(0:11) REDEF BLK$ UBIN(3) UNAL;
      186    18415    1   DCL SYMSZS(0:31)SBIN INIT(0*0)STATIC SYMDEF;
      187    18416    1   DCL C SBIN;
      188    18417    1   DCL I SBIN;
      189    18418    1   DCL J SBIN;
      190    18419    1   DCL K SBIN;
      191    18420    1   DCL L SBIN;
      192    18421    1   DCL WIDTH STATIC UBIN INIT(0);
      193    18422    1   DCL 1 SYM BASED(SYM_.P$),
      194    18423    1         2 NODE$ PTR,
      195    18424    1         2 XR REDEF NODE$,
      196    18425    1           3 L# SBIN(18)UNAL,
      197    18426    1           3 D BIT(1),
      198    18427    1           3 LNK UBIN(17)UNAL,
      199    18428    1         2 VAL REDEF NODE$ SBIN,
      200    18429    1         2 VUAL(0:11) REDEF NODE$ UBIN(3)UNAL,
      201    18430    1         2 LNK REDEF NODE$,
      202    18431    1           3 * BIT(18),
      203    18432    1           3 LNK UBIN(18)UNAL,
      204    18433    1         2 DEF BIT(1),
      205    18434    1         2 USED BIT(1),
      206    18435    1         2 X BIT(1),
      207    18436    1         2 XPREF BIT (1),
      208    18437    1         2 * BIT (5),
      209    18438    1         2 PRF UBIN HALF CALIGNED,
      210    18439    1         2 C UBIN BYTE CALIGNED,
      211    18440    1         2 T CHAR(SYM.C);
      212    18441    1   DCL 1 SYMF BASED(SYM_.P$),
      213    18442    1         2 * PTR,
      214    18443    1         2 C UBIN WORD;
      215    18444    1   DCL FLINK PTR BASED;
      216    18445                    /* OUTPUT ITEMS */
      217    18446    1   DCL PGMSIZE SBIN WORD;
      218    18447    1   DCL 1 P_NAME,
      219    18448    1         2 COUNT UBIN HALF HALIGNED,
      220    18449    1         2 TEXT CHAR (31) CALIGNED;
PL6.E3A0      #001=XUP$PARTRGE File=XUP$PARTRGE.:E05TSI                          WED 07/30/97 09:39 Page:57
      221    18450    1   DCL P_NAME_POINTER UBIN WORD;
      222    18451    1   DCL P_TYPE_NP UBIN;
      223    18452    1   DCL P_P_F_NP UBIN;
      224    18453    1   DCL P_S_F_NP UBIN;
      225    18454    1   DCL P_F_F_NP UBIN;
      226    18455    1   DCL P_O_F_NP UBIN;
      227    18456    1   DCL P_OPT_NP UBIN;
      228    18457    1   DCL P_RPEAT_NP UBIN;
      229    18458    1   DCL P_SKBL_NP UBIN;
      230    18459    1   DCL P_RTEXT_NP UBIN;
      231    18460    1   DCL P_UPRLOWR_NP UBIN;
      232    18461    1   DCL P_MAKEUC_NP UBIN;
      233    18462    1   DCL P_ABBREV_NP UBIN;
      234    18463    1   DCL P_CODE_NP UBIN;
      235    18464    1   DCL P_NSUBNDS_NP UBIN;
      236    18465    1   DCL P_COUNT_NP UBIN;
      237    18466    1   DCL P_TEXT_NP UBIN;
      238    18467    1   DCL P_XTRA_NP UBIN;
      239    18468    1   DCL P_SUBNDS$_NP UBIN;
      240    18469    1   DCL P_LEXTYPE_NP UBIN;
      241    18470    1   DCL P_MAXL_NP UBIN;
      242    18471    1   DCL P_DLIM_NP UBIN;
      243    18472    1   DCL LOGBLK_NUMBER UBIN;
      244    18473    1   DCL HIGHEST_VREBL_ENTRY UBIN;
      245    18474    1   DCL HIGHEST_LINE_NUMBER UBIN;
      246    18475    1   DCL SECTION UBIN WORD;
      247    18476    1   DCL ERROR_COUNT UBIN WORD STATIC SYMDEF INIT (0);
      248    18477    1   DCL ISSID_SEGREF_NUMBER UBIN WORD;
      249    18478    1   DCL LOC_OFFSET UBIN;
      250    18479    1   DCL EMIT_STANDARD BIT (1);
      251    18480    1   DCL GENERATE_CORE_IMAGE BIT (1);
      252    18481    1   DCL GENERATE_OU BIT (1);
      253    18482    1   DCL LAST_LINE_WAS_DIAGNOSTIC BIT (1);
      254    18483    1   DCL 1 PSEUDO_POINTER ALIGNED,
      255    18484    1         2 DISP UBIN HALF HALIGNED,
      256    18485    1         2 SEG BIT (18) HALIGNED;
      257    18486    1   DCL PREPROCESSOR_ABORT BIT (1);
PL6.E3A0      #001=XUP$PARTRGE File=XUP$PARTRGE.:E05TSI                          WED 07/30/97 09:39 Page:58
      258    18487    1   DCL SOMETHING_WRITTEN BIT (1);
      259    18488    1   DCL BC (0:99) BIT (1) STATIC INIT ('1'B * 0);
      260    18489    1   DCL NPREFS SBIN;
      261    18490    1   DCL TOTAL_ERRORS SBIN;
      262    18491    1   DCL ECU SBIN;
      263    18492    1   DCL HIGHEST_BC SBIN STATIC INIT (99999);
      264    18493    1   DCL FATAL_ERROR BIT(1) STATIC INIT (%NO#);
      265    18494    1   DCL COREKEY BIT(54) CONSTANT INIT('005012000000000000'O);
      266    18495    1   DCL 1 VERSION_INFO STATIC,
      267    18496    1         2 LETTER CHAR (1) INIT ('?'),
      268    18497    1         2 NUMBER UBIN BYTE CALIGNED INIT (0);
      269    18498    1   DCL 1 DEFSYM BASED(NODE_.NEXT$),
      270    18499    1         2 VAL UBIN,
      271    18500    1         2 SYM UBIN;
      272    18501    1   DCL REFSYM(0:0) UBIN BASED(NODE_.FIRST$);
      273    18502    1   DCL 1 NODE BASED(NODE_.P$),
      274    18503    1         2 TYPE UBIN(3) UNAL,
      275    18504    1         2 PRE_F BIT(1),
      276    18505    1         2 SUCC_F BIT(1),
      277    18506    1         2 FAIL_F BIT(1),
      278    18507    1         2 OUT_F  BIT(1),
      279    18508    1         2 OPT BIT(1) UNAL,
      280    18509    1         2 RPEAT BIT(1),
      281    18510    1         2 SKBL BIT(1),
      282    18511    1         2 RTEXT BIT(1),
      283    18512    1         2 NSUBNDS UBIN BYTE UNAL,
      284    18513    1         2 CODE UBIN (16) UNAL,
      285    18514    1         2 SUBNDS$(0:0) PTR,
      286    18515    1         2 SUBNDS(0:0) REDEF SUBNDS$,
      287    18516    1           3 DISP UBIN(18) UNAL,
      288    18517    1           3 SEG UBIN(18) UNAL;
      289    18518        %P$LIT(NAME=NODEL,STCLASS="BASED(NODE_.P$)", LEN="NODEL.COUNT");
      290    18571        %P$SYM(NAME=NODES,STCLASS="BASED(NODE_.P$)", LEN="NODES.COUNT");
      291    18650    1   DCL ERRVEC(0:8) BIT(72) CONSTANT INIT(
      292    18651    1   VECTOR(ERRDUBDEF),VECTOR(TEXT.T),VECTOR(ERRREFS),
      293    18652    1   VECTOR(SYNMSG),VECTOR(CNTMSG),VECTOR(PRFMSG),
      294    18653    1   VECTOR(PREPERR),VECTOR(RTEXTERR),VECTOR(MAKEUCERR));
PL6.E3A0      #001=XUP$PARTRGE File=XUP$PARTRGE.:E05TSI                          WED 07/30/97 09:39 Page:59
      295    18654    1   DCL RTEXTERR CONSTANT CHAR(0) INIT(
      296    18655    1   ' *** RTEXT is not legal on list nodes.');
      297    18656    1   DCL MAKEUCERR CONSTANT CHAR(0) INIT(
      298    18657    1   ' *** MAKEUC is only legal on literal and symbol nodes.');
      299    18658    1   DCL PRFMSG CONSTANT CHAR(0)INIT(
      300    18659    1   ' *** Undefined nodes in a data file');
      301    18660    1   DCL ERRDUBDEF STATIC CHAR(0) INIT(
      302    18661    1   ' That node is already defined');
      303    18662    1   DCL PREPERR CONSTANT CHAR(0)INIT(
      304    18663    1   ' *** Preprocessor error(s)');
      305    18664    1   DCL ERRREFS STATIC CHAR(0) INIT(
      306    18665    1   ' *** Too many PREFS (more than 512)');
      307    18666    1   DCL 1 CNTMSG STATIC,
      308    18667    1         2 ASTS CHAR (5),
      309    18668    1         2 CNT CHAR(6),
      310    18669    1         2 ERWORD CHAR(0) INIT(' errors,'),
      311    18670    1         2 PRFS CHAR(4)INIT('  no'),
      312    18671    1         2 * CHAR(0)INIT(' PREFs in '),
      313    18672    1         2 MODNAME CHAR (31);
      314    18673    1   DCL 1 SYNMSG STATIC,
      315    18674    1         2 * CHAR(0) INIT(' Syntax error at '),
      316    18675    1         2 AT CHAR(3)INIT('<*>'),
      317    18676    1         2 * CHAR(0)INIT(' in: '),
      318    18677    1         2 TXT CHAR(20);
      319    18678    1   DCL ONE_BLANK CHAR (1) CONSTANT INIT (' ');
      320    18679    1   DCL CHARI BASED CHAR(I);
      321    18680    1   DCL LINE# SBIN STATIC INIT(0);
      322    18681    1   DCL 1 PP STATIC,
      323    18682    1         2 CSYS BIT(36) INIT('0'B),
      324    18683    1         2 LS BIT(36) INIT('1'B),
      325    18684    1         2 NSYS BIT(36) INIT('0'B),
      326    18685    1         2 SO BIT(36) INIT('0'B),
      327    18686    1         2 UI BIT(36) INIT('0'B),
      328    18687    1         2 OU BIT(36)INIT('1'B),
      329    18688    1         2 MA BIT (36) INIT ('0'B),
      330    18689    1         2 XR BIT (36) INIT ('0'B),
      331    18690    1         2 LO BIT(36)INIT('0'B),
PL6.E3A0      #001=XUP$PARTRGE File=XUP$PARTRGE.:E05TSI                          WED 07/30/97 09:39 Page:60
      332    18691    1         2 PREF BIT(36) INIT ('1'B),
      333    18692    1         2 OPTUI BIT(36) INIT ('0'B),
      334    18693    1         2 LU BIT (36) INIT ('0'B),
      335    18694    1         2 SCHEMA BIT(36) INIT ('1'B),
      336    18695    1         2 AREA_REF BIT (36) INIT ('0'B);
      337    18696    1   DCL OPTS (0:13) REDEF PP BIT (36);
      338    18697    1   DCL FIRST_SYM$ PTR STATIC INIT(ADDR(NIL));
      339    18698    1   DCL SKIP BIT(36) STATIC INIT('0'B);
      340    18699    1   DCL CTEMP CHAR (6);
      341    18700    1   DCL TRASH_NAME CHAR (31);
      342    18701    1   DCL ABORT UBIN STATIC INIT(0);
      343    18702    1   DCL 1 ERCODE REDEF ABORT,
      344    18703    1         2 * BIT(33),2 SEV UBIN(3)UNAL;
      345    18704        %XUX$SRCH_LIST;
      346    18799    1   DCL ZQC$PREP ENTRY (1) ALTRET;
      347    18800        %EJECT;
PL6.E3A0      #001=XUP$PARTRGE File=XUP$PARTRGE.:E05TSI                          WED 07/30/97 09:39 Page:61
      348    18801    1      CALL M$OPEN(OUOPN)ALTRET(MONERR);

  18801 15 000002   000202 630400 1                  EPPR0   OUOPN
        15 000003   450000 713400                    CLIMB   alt,open
        15 000004   410400 401760                    pmme    nvectors=18
        15 000005   002672 702000 15                 TSX2    MONERR

      349    18802    1      J=1;

  18802 15 000006   000001 235007                    LDA     1,DL
        15 000007   200007 755100                    STA     J,,AUTO

      350    18803    1      XUX$SRCH_LIST.NUM = 0;

  18803 15 000010   001436 450000 1                  STZ     XUX$SRCH_LIST

      351    18804    1      CALL WRITELO;

  18804 15 000011   003174 701000 15                 TSX1    WRITELO
        15 000012   000000 011000                    NOP     0

      352    18805    1      IF B_VERSION.LEN > 0

  18805 15 000013   000000 236000 xsym               LDQ     B_VERSION
        15 000014   777000 316003                    CANQ    -512,DU
        15 000015   000063 600000 15                 TZE     s:18817

      353    18806    2      THEN DO;

      354    18807    2         VERSION_INFO.LETTER = SUBSTR (B_VERSION.TEXT, 0, 1);

  18807 15 000016   000000 236000 xsym               LDQ     B_VERSION
        15 000017   000033 772000                    QRL     27
        15 000020   000000 236000 xsym               LDQ     B_VERSION
        15 000021   000011 736000                    QLS     9
        15 000022   001336 552040 1                  STBQ    VERSION_INFO,'40'O

PL6.E3A0      #001=XUP$PARTRGE File=XUP$PARTRGE.:E05TSI                          WED 07/30/97 09:39 Page:62
      355    18808    3         DO I = 1 TO B_VERSION.LEN - 1;

  18808 15 000023   000001 235007                    LDA     1,DL
        15 000024   200006 755100                    STA     I,,AUTO
        15 000025   000057 710000 15                 TRA     s:18815+1

      356    18809    3            IF SUBSTR(B_VERSION.TEXT, I, 1) < '0'

  18809 15 000026   000000 236000 xsym               LDQ     B_VERSION
        15 000027   000033 772000                    QRL     27
        15 000030   200006 235100                    LDA     I,,AUTO
        15 000031   040000 106405                    CMPC    fill='040'O
        15 000032   000000 200001 xsym               ADSC9   B_VERSION,A              cn=1,n=1
        15 000033   000000 000001 16                 ADSC9   0                        cn=0,n=1
        15 000034   000063 602000 15                 TNC     s:18817
        15 000035   040005 106400                    CMPC    fill='040'O
        15 000036   000001 000001 16                 ADSC9   1                        cn=0,n=1
        15 000037   000000 200001 xsym               ADSC9   B_VERSION,A              cn=1,n=1
        15 000040   000063 602000 15                 TNC     s:18817

      357    18810    3              OR SUBSTR(B_VERSION.TEXT, I, 1) > '9'
      358    18811    3            THEN
      359    18812    3               EXIT;
      360    18813    3            VERSION_INFO.NUMBER = VERSION_INFO.NUMBER * 10 +

  18813 15 000041   000100 101405                    MRL     fill='000'O
        15 000042   000000 200001 xsym               ADSC9   B_VERSION,A              cn=1,n=1
        15 000043   200116 000004                    ADSC9   NEW_OFFSET+1,,AUTO       cn=0,n=4
        15 000044   200116 236100                    LDQ     NEW_OFFSET+1,,AUTO
        15 000045   200117 756100                    STQ     NEW_OFFSET+2,,AUTO
        15 000046   001336 236000 1                  LDQ     VERSION_INFO
        15 000047   000022 772000                    QRL     18
        15 000050   000777 376007                    ANQ     511,DL
        15 000051   000012 402007                    MPY     10,DL
        15 000052   200117 036100                    ADLQ    NEW_OFFSET+2,,AUTO
        15 000053   000060 136007                    SBLQ    48,DL
        15 000054   000022 736000                    QLS     18
PL6.E3A0      #001=XUP$PARTRGE File=XUP$PARTRGE.:E05TSI                          WED 07/30/97 09:39 Page:63
        15 000055   001336 552020 1                  STBQ    VERSION_INFO,'20'O

      361    18814    3              ASCBIN(SUBSTR(B_VERSION.TEXT, I, 1)) - ASCBIN('0');
      362    18815    3            END;

  18815 15 000056   200006 054100                    AOS     I,,AUTO
        15 000057   000000 236000 xsym               LDQ     B_VERSION
        15 000060   000033 772000                    QRL     27
        15 000061   200006 116100                    CMPQ    I,,AUTO
        15 000062   000026 605400 15                 TPNZ    s:18809

      363    18816    2         END;

      364    18817    2      IF B$JIT.SYSID=2 THEN DO;

  18817 15 000063   000000 470400 xsym               LDP0    B$JIT$
        15 000064   000000 720100                    LXL0    0,,PR0
        15 000065   000002 100003                    CMPX0   2,DU
        15 000066   000100 601000 15                 TNZ     s:18822

      365    18818    2         CALL M$OPEN (SIOPN) ALTRET (MONERR);

  18818 15 000067   000014 630400 2                  EPPR0   SIOPN
        15 000070   450000 713400                    CLIMB   alt,open
        15 000071   410400 401760                    pmme    nvectors=18
        15 000072   002672 702000 15                 TSX2    MONERR

      366    18819    2         CALL M$OPEN (COREOPN) ALTRET (MONERR);

  18819 15 000073   000106 630400 2                  EPPR0   COREOPN
        15 000074   450000 713400                    CLIMB   alt,open
        15 000075   410400 401760                    pmme    nvectors=18
        15 000076   002672 702000 15                 TSX2    MONERR

      367    18820    2         END;

  18820 15 000077   000413 710000 15                 TRA     s:18873
PL6.E3A0      #001=XUP$PARTRGE File=XUP$PARTRGE.:E05TSI                          WED 07/30/97 09:39 Page:64

      368    18821    2      ELSE DO;

      369    18822    2         OUOPN.V.DCB#=DCBNUM(M$OU);

  18822 15 000100   000000 236007 xsym               LDQ     M$OU,DL
        15 000101   000000 621006                    EAX1    0,QL
        15 000102   000246 741000 1                  STX1    OUOPN+36

      370    18823    2         CALL M$GDS(NODEFPT)ALTRET(MONERR);

  18823 15 000103   000346 630400 1                  EPPR0   NODEFPT
        15 000104   430001 713400                    CLIMB   alt,gds
        15 000105   400400 401760                    pmme    nvectors=2
        15 000106   002672 702000 15                 TSX2    MONERR

      371    18824    2         P_PCB.WORK$=NODE_.FIRST$;

  18824 15 000107   001207 236000 1                  LDQ     NODE_+1
        15 000110   000042 756000 1                  STQ     P_PCB+2

      372    18825    2         P_PCB.WKSZ=NODE_.SIZE+1;

  18825 15 000111   001206 220000 1                  LDX0    NODE_
        15 000112   000001 621010                    EAX1    1,X0
        15 000113   000045 741000 1                  STX1    P_PCB+5

      373    18826    2         PP.UI=B$JIT.PRFLAGS.UI;

  18826 15 000114   000000 470400 xsym               LDP0    B$JIT$
        15 000115   000030 236100                    LDQ     24,,PR0
        15 000116   000001 736000                    QLS     1
        15 000117   400000 376003                    ANQ     -131072,DU
        15 000120   001421 756000 1                  STQ     PP+4

      374    18827    2         PP.OU=B$JIT.PRFLAGS.OUTPUT;

PL6.E3A0      #001=XUP$PARTRGE File=XUP$PARTRGE.:E05TSI                          WED 07/30/97 09:39 Page:65
  18827 15 000121   000030 236100                    LDQ     24,,PR0
        15 000122   000006 736000                    QLS     6
        15 000123   400000 376003                    ANQ     -131072,DU
        15 000124   001422 756000 1                  STQ     PP+5

      375    18828    2         PP.LS = B$JIT.PRFLAGS.LS;

  18828 15 000125   000030 236100                    LDQ     24,,PR0
        15 000126   000003 736000                    QLS     3
        15 000127   400000 376003                    ANQ     -131072,DU
        15 000130   001416 756000 1                  STQ     PP+1

      376    18829    2         P_PCB.TEXT$=ADDR(SUBSTR(B$JIT.CCBUF,B$JIT.CCDISP));

  18829 15 000131   000032 236100                    LDQ     26,,PR0
        15 000132   000022 736000                    QLS     18
        15 000133   000022 732000                    QRS     18
        15 000134   000032 722100                    LXL2    26,,PR0
        15 000135   777377 622012                    EAX2    -257,X2
        15 000136   777777 662003                    ERX2    -1,DU
        15 000137   000020 736000                    QLS     16
        15 000140   000033 036003                    ADLQ    27,DU
        15 000141   000000 036000 xsym               ADLQ    B$JIT$
        15 000142   000040 756000 1                  STQ     P_PCB

      377    18830    2         P_PCB.NCHARS=B$JIT.CCARS-B$JIT.CCDISP;

  18830 15 000143   000032 236100                    LDQ     26,,PR0
        15 000144   000022 736000                    QLS     18
        15 000145   000022 732000                    QRS     18
        15 000146   200116 756100                    STQ     NEW_OFFSET+1,,AUTO
        15 000147   000032 236100                    LDQ     26,,PR0
        15 000150   000022 732000                    QRS     18
        15 000151   200116 136100                    SBLQ    NEW_OFFSET+1,,AUTO
        15 000152   000051 756000 1                  STQ     P_PCB+9

      378    18831    2         IF P_PCB.NCHARS~=0 THEN CALL X$PARSE(P_PCB)ALTRET(SYNERR);
PL6.E3A0      #001=XUP$PARTRGE File=XUP$PARTRGE.:E05TSI                          WED 07/30/97 09:39 Page:66

  18831 15 000153   000160 600000 15                 TZE     s:18832

  18831 15 000154   000002 630400 16                 EPPR0   2
        15 000155   000017 631400 xsym               EPPR1   B_VECTNIL+15
        15 000156   000000 701000 xent               TSX1    X$PARSE
        15 000157   002302 702000 15                 TSX2    SYNERR

      379    18832    2         BLK$=P_PCB.OUT$;

  18832 15 000160   000043 236000 1                  LDQ     P_PCB+3
        15 000161   200004 756100                    STQ     BLK$,,AUTO

      380    18833    3         IF BLK$~=ADDR(NIL) THEN DO I=0 TO OUT$BLK.NSUBLKS-1;

  18833 15 000162   000001 116000 xsym               CMPQ    B_VECTNIL+1
        15 000163   000410 600000 15                 TZE     s:18871

  18833 15 000164   200006 450100                    STZ     I,,AUTO
        15 000165   000403 710000 15                 TRA     s:18870+1

      381    18834    3            P_PCB.ERROR='1'B;

  18834 15 000166   400000 236003                    LDQ     -131072,DU
        15 000167   000046 756000 1                  STQ     P_PCB+6

      382    18835    3   NXTOPT:  J=OUT$BLK.SUBLK$(I)->OUT$BLK.CODE;

  18835 15 000170   200004 470500       NXTOPT       LDP0    BLK$,,AUTO
        15 000171   200006 720100                    LXL0    I,,AUTO
        15 000172   000003 471510                    LDP1    3,X0,PR0
        15 000173   100000 236100                    LDQ     0,,PR1
        15 000174   777777 376007                    ANQ     -1,DL
        15 000175   200007 756100                    STQ     J,,AUTO

      383    18836    4            DO CASE(J);

PL6.E3A0      #001=XUP$PARTRGE File=XUP$PARTRGE.:E05TSI                          WED 07/30/97 09:39 Page:67
  18836 15 000176   000003 116007                    CMPQ    3,DL
        15 000177   000201 602006 15                 TNC     s:18836+3,QL
        15 000200   000207 710000 15                 TRA     s:18842
        15 000201   000204 710000 15                 TRA     s:18838
        15 000202   000257 710000 15                 TRA     s:18853
        15 000203   000213 710000 15                 TRA     s:18844

      384    18837    4            CASE(0); /*NO*/

      385    18838    4               P_PCB.ERROR='0'B;

  18838 15 000204   000046 450000 1                  STZ     P_PCB+6

      386    18839    4               I=I+1;

  18839 15 000205   200006 054100                    AOS     I,,AUTO

      387    18840    4               GOTO NXTOPT;

  18840 15 000206   000170 710000 15                 TRA     NXTOPT

      388    18841    4            CASE(ELSE);

      389    18842    4               OPTS(J-3)=P_PCB.ERROR;

  18842 15 000207   000046 236000 1                  LDQ     P_PCB+6
        15 000210   200007 721100                    LXL1    J,,AUTO
        15 000211   001412 756011 1                  STQ     SYNMSG+10,X1
        15 000212   000402 710000 15                 TRA     s:18870

      390    18843    4            CASE (2); /* BC */

      391    18844    4               BC = '0'B;

  18844 15 000213   003000 060400                    CSL     bolr='003'O
        15 000214   000002 000001 xsym               BDSC    B_VECTNIL+2              by=0,bit=0,n=1
        15 000215   001331 000144 1                  BDSC    BC                       by=0,bit=0,n=100
PL6.E3A0      #001=XUP$PARTRGE File=XUP$PARTRGE.:E05TSI                          WED 07/30/97 09:39 Page:68

      392    18845    4               HIGHEST_BC = -1;

  18845 15 000216   000001 335007                    LCA     1,DL
        15 000217   001334 755000 1                  STA     HIGHEST_BC

      393    18846    5               DO K = 0 TO OUT$BLK.SUBLK$(I) -> OUT$BLK.NSUBLKS - 1;

  18846 15 000220   200010 450100                    STZ     K,,AUTO
        15 000221   000251 710000 15                 TRA     s:18851+1

      394    18847    5                  CALL CHARBIN (L, OUT$BLK.SUBLK$(I) -> OUT$BLK.SUBLK$(K) ->

  18847 15 000222   200004 470500                    LDP0    BLK$,,AUTO
        15 000223   200006 720100                    LXL0    I,,AUTO
        15 000224   000003 471510                    LDP1    3,X0,PR0
        15 000225   200010 721100                    LXL1    K,,AUTO
        15 000226   100003 473511                    LDP3    3,X1,PR1
        15 000227   300004 236100                    LDQ     4,,PR3
        15 000230   000033 772000                    QRL     27
        15 000231   000000 622006                    EAX2    0,QL
        15 000232   000100 305540                    DTB
        15 000233   300004 230012                    NDSC9   4,,PR3                   cn=1,s=nosgn,sf=0,n=*X2
        15 000234   200011 000004                    NDSC9   L,,AUTO                  cn=0,s=lsgnf,sf=0,n=4

      395    18848    5                    OUT$SYM.TEXT);
      396    18849    5                  BC(L) = '1'B;

  18849 15 000235   200011 235100                    LDA     L,,AUTO
        15 000236   000240 605000 15                 TPL     s:18849+3
        15 000237   000044 035003                    ADLA    36,DU
        15 000240   003005 060400                    CSL     bolr='003'O
        15 000241   000030 000001 xsym               BDSC    B_VECTNIL+24             by=0,bit=0,n=1
        15 000242   001331 000001 1                  BDSC    BC,A                     by=0,bit=0,n=1

      397    18850    5                  HIGHEST_BC = MAXIMUM(HIGHEST_BC, L);

PL6.E3A0      #001=XUP$PARTRGE File=XUP$PARTRGE.:E05TSI                          WED 07/30/97 09:39 Page:69
  18850 15 000243   200011 236100                    LDQ     L,,AUTO
        15 000244   001334 116000 1                  CMPQ    HIGHEST_BC
        15 000245   000247 605000 15                 TPL     s:18850+4
        15 000246   001334 236000 1                  LDQ     HIGHEST_BC
        15 000247   001334 756000 1                  STQ     HIGHEST_BC

      398    18851    5                  END;

  18851 15 000250   200010 054100                    AOS     K,,AUTO
        15 000251   000003 471510                    LDP1    3,X0,PR0
        15 000252   100001 236100                    LDQ     1,,PR1
        15 000253   000022 772000                    QRL     18
        15 000254   200010 116100                    CMPQ    K,,AUTO
        15 000255   000222 605400 15                 TPNZ    s:18847
        15 000256   000402 710000 15                 TRA     s:18870

      399    18852    4            CASE(1); /*SRCH*/

      400    18853    5               DO J=0 TO OUT$BLK.SUBLK$(I)->OUT$BLK.NSUBLKS-1;

  18853 15 000257   200007 450100                    STZ     J,,AUTO
        15 000260   000371 710000 15                 TRA     s:18867+1

      401    18854    5                  P_PCB.HI_CHAR=OUT$BLK.SUBLK$(I)->

  18854 15 000261   200004 470500                    LDP0    BLK$,,AUTO
        15 000262   200006 720100                    LXL0    I,,AUTO
        15 000263   000003 471510                    LDP1    3,X0,PR0
        15 000264   200007 721100                    LXL1    J,,AUTO
        15 000265   100003 473511                    LDP3    3,X1,PR1
        15 000266   300002 235100                    LDA     2,,PR3
        15 000267   000052 755000 1                  STA     P_PCB+10

      402    18855    5                    OUT$BLK.SUBLK$(J)->OUT$BLK.CPOS;
      403    18856    5                  IF J=7 THEN GOTO SYNERR;

  18856 15 000270   200007 236100                    LDQ     J,,AUTO
PL6.E3A0      #001=XUP$PARTRGE File=XUP$PARTRGE.:E05TSI                          WED 07/30/97 09:39 Page:70
        15 000271   000007 116007                    CMPQ    7,DL
        15 000272   002302 600000 15                 TZE     SYNERR

      404    18857    5                  FPT_FID.TEXTFID_=VECTOR(OUT$BLK.SUBLK$(I)->

  18857 15 000273   000003 471510                    LDP1    3,X0,PR0
        15 000274   100003 473511                    LDP3    3,X1,PR1
        15 000275   300004 236100                    LDQ     4,,PR3
        15 000276   000033 772000                    QRL     27
        15 000277   000064 737000                    LLS     52
        15 000300   000140 135007                    SBLA    96,DL
        15 000301   200116 453500                    STP3    NEW_OFFSET+1,,AUTO
        15 000302   200116 236100                    LDQ     NEW_OFFSET+1,,AUTO
        15 000303   000003 036000 16                 ADLQ    3
        15 000304   000510 757000 1                  STAQ    FPT_FID+2

      405    18858    5                    OUT$BLK.SUBLK$(J)->OUT$SYM.TEXT);
      406    18859    5                  FPT_FID.NAME_ = VECTOR(TRASH_NAME);

  18859 15 000305   000004 235000 16                 LDA     4
        15 000306   200116 452500                    STP2    NEW_OFFSET+1,,AUTO
        15 000307   200116 236100                    LDQ     NEW_OFFSET+1,,AUTO
        15 000310   000074 036003                    ADLQ    60,DU
        15 000311   000512 757000 1                  STAQ    FPT_FID+4

      407    18860    5                  FPT_FID.ACCT_ = VECTOR(XUX$SRCH_LIST.ACCT_LIST.ACCT(J));

  18860 15 000312   000005 235000 16                 LDA     5
        15 000313   200007 236100                    LDQ     J,,AUTO
        15 000314   200116 755100                    STA     NEW_OFFSET+1,,AUTO
        15 000315   000023 402003                    MPY     19,DU
        15 000316   000006 036000 16                 ADLQ    6
        15 000317   200116 235100                    LDA     NEW_OFFSET+1,,AUTO
        15 000320   000514 757000 1                  STAQ    FPT_FID+6

      408    18861    5                  FPT_FID.PASS_ = VECTOR(XUX$SRCH_LIST.ACCT_LIST.PASS(J));

PL6.E3A0      #001=XUP$PARTRGE File=XUP$PARTRGE.:E05TSI                          WED 07/30/97 09:39 Page:71
  18861 15 000321   000005 235000 16                 LDA     5
        15 000322   200007 236100                    LDQ     J,,AUTO
        15 000323   200116 755100                    STA     NEW_OFFSET+1,,AUTO
        15 000324   000023 402003                    MPY     19,DU
        15 000325   000007 036000 16                 ADLQ    7
        15 000326   200116 235100                    LDA     NEW_OFFSET+1,,AUTO
        15 000327   000516 757000 1                  STAQ    FPT_FID+8

      409    18862    5                  FPT_FID.SN_ = VECTOR(XUX$SRCH_LIST.ACCT_LIST.SN(J));

  18862 15 000330   000010 235000 16                 LDA     8
        15 000331   200007 236100                    LDQ     J,,AUTO
        15 000332   200116 755100                    STA     NEW_OFFSET+1,,AUTO
        15 000333   000023 402003                    MPY     19,DU
        15 000334   000011 036000 16                 ADLQ    9
        15 000335   200116 235100                    LDA     NEW_OFFSET+1,,AUTO
        15 000336   000520 757000 1                  STAQ    FPT_FID+10

      410    18863    5                  FPT_FID.WSN_ = VECTOR(XUX$SRCH_LIST.ACCT_LIST.WSN(J));

  18863 15 000337   000005 235000 16                 LDA     5
        15 000340   200007 236100                    LDQ     J,,AUTO
        15 000341   200116 755100                    STA     NEW_OFFSET+1,,AUTO
        15 000342   000023 402003                    MPY     19,DU
        15 000343   000012 036000 16                 ADLQ    10
        15 000344   200116 235100                    LDA     NEW_OFFSET+1,,AUTO
        15 000345   000522 757000 1                  STAQ    FPT_FID+12

      411    18864    5                  FPT_FID.ASN_ = VECTOR(XUX$SRCH_LIST.ACCT_LIST.ASN(J));

  18864 15 000346   777640 235007                    LDA     -96,DL
        15 000347   200007 236100                    LDQ     J,,AUTO
        15 000350   200116 755100                    STA     NEW_OFFSET+1,,AUTO
        15 000351   000023 402003                    MPY     19,DU
        15 000352   000013 036000 16                 ADLQ    11
        15 000353   200116 235100                    LDA     NEW_OFFSET+1,,AUTO
        15 000354   000524 757000 1                  STAQ    FPT_FID+14
PL6.E3A0      #001=XUP$PARTRGE File=XUP$PARTRGE.:E05TSI                          WED 07/30/97 09:39 Page:72

      412    18865    5                  FPT_FID.RES_ = VECTOR(XUX$SRCH_LIST.ACCT_LIST.RES(J));

  18865 15 000355   777640 235007                    LDA     -96,DL
        15 000356   200007 236100                    LDQ     J,,AUTO
        15 000357   200116 755100                    STA     NEW_OFFSET+1,,AUTO
        15 000360   000023 402003                    MPY     19,DU
        15 000361   000014 036000 16                 ADLQ    12
        15 000362   200116 235100                    LDA     NEW_OFFSET+1,,AUTO
        15 000363   000526 757000 1                  STAQ    FPT_FID+16

      413    18866    5                  CALL M$FID (FPT_FID) ALTRET (MONERR);

  18866 15 000364   000506 630400 1                  EPPR0   FPT_FID
        15 000365   420001 713400                    CLIMB   alt,+8193
        15 000366   404400 401760                    pmme    nvectors=10
        15 000367   002672 702000 15                 TSX2    MONERR

      414    18867    5                  END;

  18867 15 000370   200007 054100                    AOS     J,,AUTO
        15 000371   200004 470500                    LDP0    BLK$,,AUTO
        15 000372   200006 720100                    LXL0    I,,AUTO
        15 000373   000003 471510                    LDP1    3,X0,PR0
        15 000374   100001 236100                    LDQ     1,,PR1
        15 000375   000022 772000                    QRL     18
        15 000376   200007 116100                    CMPQ    J,,AUTO
        15 000377   000261 605400 15                 TPNZ    s:18854

      415    18868    4               XUX$SRCH_LIST.NUM = J;

  18868 15 000400   200007 235100                    LDA     J,,AUTO
        15 000401   001436 755000 1                  STA     XUX$SRCH_LIST

      416    18869    4            END;

      417    18870    3            END;
PL6.E3A0      #001=XUP$PARTRGE File=XUP$PARTRGE.:E05TSI                          WED 07/30/97 09:39 Page:73

  18870 15 000402   200006 054100                    AOS     I,,AUTO
        15 000403   200004 470500                    LDP0    BLK$,,AUTO
        15 000404   000001 236100                    LDQ     1,,PR0
        15 000405   000022 772000                    QRL     18
        15 000406   200006 116100                    CMPQ    I,,AUTO
        15 000407   000166 605400 15                 TPNZ    s:18834

      418    18871    2         CALL M$FDS(NODEFPT);

  18871 15 000410   000346 630400 1                  EPPR0   NODEFPT
        15 000411   030002 713400                    CLIMB   fds
        15 000412   400400 401760                    pmme    nvectors=2

      419    18872    2         END;

      420    18873    1      XUX$SRCH_LIST.ACCT_LIST.ACCT(XUX$SRCH_LIST.NUM) = B$JIT.FACCN;

  18873 15 000413   001436 236000 1                  LDQ     XUX$SRCH_LIST
        15 000414   000023 402007                    MPY     19,DL
        15 000415   000000 620006                    EAX0    0,QL
        15 000416   000000 621006                    EAX1    0,QL
        15 000417   000000 470400 xsym               LDP0    B$JIT$
        15 000420   000006 237100                    LDAQ    6,,PR0
        15 000421   001440 755010 1                  STA     XUX$SRCH_LIST+2,X0
        15 000422   001441 756011 1                  STQ     XUX$SRCH_LIST+3,X1

      421    18874    1      XUX$SRCH_LIST.ACCT_LIST.PASS(XUX$SRCH_LIST.NUM) = ' ';

  18874 15 000423   001436 236000 1                  LDQ     XUX$SRCH_LIST
        15 000424   000023 402007                    MPY     19,DL
        15 000425   000000 620006                    EAX0    0,QL
        15 000426   000000 621006                    EAX1    0,QL
        15 000427   000035 235000 xsym               LDA     B_VECTNIL+29
        15 000430   000035 236000 xsym               LDQ     B_VECTNIL+29
        15 000431   001442 755010 1                  STA     XUX$SRCH_LIST+4,X0
        15 000432   001443 756011 1                  STQ     XUX$SRCH_LIST+5,X1
PL6.E3A0      #001=XUP$PARTRGE File=XUP$PARTRGE.:E05TSI                          WED 07/30/97 09:39 Page:74

      422    18875    1      XUX$SRCH_LIST.ACCT_LIST.SN(XUX$SRCH_LIST.NUM) = ' ';

  18875 15 000433   001436 236000 1                  LDQ     XUX$SRCH_LIST
        15 000434   000114 402007                    MPY     76,DL
        15 000435   040006 100400                    MLR     fill='040'O
        15 000436   000035 000001 xsym               ADSC9   B_VECTNIL+29             cn=0,n=1
        15 000437   001444 000012 1                  ADSC9   XUX$SRCH_LIST+6,Q        cn=0,n=10

      423    18876    1      XUX$SRCH_LIST.ACCT_LIST.WSN(XUX$SRCH_LIST.NUM) = ' ';

  18876 15 000440   001436 236000 1                  LDQ     XUX$SRCH_LIST
        15 000441   000023 402007                    MPY     19,DL
        15 000442   000002 736000                    QLS     2
        15 000443   040006 100400                    MLR     fill='040'O
        15 000444   000035 000001 xsym               ADSC9   B_VECTNIL+29             cn=0,n=1
        15 000445   001446 400010 1                  ADSC9   XUX$SRCH_LIST+8,Q        cn=2,n=8

      424    18877    1      XUX$SRCH_LIST.ACCT_LIST.ASN(XUX$SRCH_LIST.NUM) = %FILE#;

  18877 15 000446   001436 236000 1                  LDQ     XUX$SRCH_LIST
        15 000447   000023 402007                    MPY     19,DL
        15 000450   000000 620006                    EAX0    0,QL
        15 000451   001000 236003                    LDQ     512,DU
        15 000452   001451 756010 1                  STQ     XUX$SRCH_LIST+11,X0

      425    18878    1      XUX$SRCH_LIST.ACCT_LIST.RES(XUX$SRCH_LIST.NUM) = ' ';

  18878 15 000453   001436 236000 1                  LDQ     XUX$SRCH_LIST
        15 000454   000023 402007                    MPY     19,DL
        15 000455   000000 620006                    EAX0    0,QL
        15 000456   000035 236000 xsym               LDQ     B_VECTNIL+29
        15 000457   001452 756010 1                  STQ     XUX$SRCH_LIST+12,X0

      426    18879    1      XUX$SRCH_LIST.ACCT_LIST(XUX$SRCH_LIST.NUM+1) = XUX$SRCH_LIST.ACCT_LIST(
             18879               XUX$SRCH_LIST.NUM);

PL6.E3A0      #001=XUP$PARTRGE File=XUP$PARTRGE.:E05TSI                          WED 07/30/97 09:39 Page:75
  18879 15 000460   001436 236000 1                  LDQ     XUX$SRCH_LIST
        15 000461   000114 402007                    MPY     76,DL
        15 000462   000006 100406                    MLR     fill='000'O
        15 000463   001440 000114 1                  ADSC9   XUX$SRCH_LIST+2,Q        cn=0,n=76
        15 000464   001463 000114 1                  ADSC9   XUX$SRCH_LIST+21,Q       cn=0,n=76

      427    18880    1      XUX$SRCH_LIST.ACCT_LIST.ACCT(XUX$SRCH_LIST.NUM+1) = ':LIBRARY';

  18880 15 000465   001436 236000 1                  LDQ     XUX$SRCH_LIST
        15 000466   000023 402007                    MPY     19,DL
        15 000467   000002 736000                    QLS     2
        15 000470   040006 100400                    MLR     fill='040'O
        15 000471   000447 000010 2                  ADSC9   ONE_BLANK+1              cn=0,n=8
        15 000472   001463 000010 1                  ADSC9   XUX$SRCH_LIST+21,Q       cn=0,n=8

      428    18881    1      XUX$SRCH_LIST.NUM = XUX$SRCH_LIST.NUM + 2;

  18881 15 000473   001436 235000 1                  LDA     XUX$SRCH_LIST
        15 000474   000002 035007                    ADLA    2,DL
        15 000475   001436 755000 1                  STA     XUX$SRCH_LIST

      429    18882    1      XUX$SRCH_LIST.RCVD = XUX$SRCH_LIST.NUM;

  18882 15 000476   001437 755000 1                  STA     XUX$SRCH_LIST+1

      430    18883    1      IF PP.OPTUI

  18883 15 000477   001427 236000 1                  LDQ     PP+10
        15 000500   000506 600000 15                 TZE     s:18889

      431    18884    2      THEN DO;

      432    18885    2         OPEN_FILES.FLAGS.UP_DATE# = '1'B;

  18885 15 000501   200000 236003                    LDQ     65536,DU
        15 000502   000550 256000 1                  ORSQ    OPEN_FILES

PL6.E3A0      #001=XUP$PARTRGE File=XUP$PARTRGE.:E05TSI                          WED 07/30/97 09:39 Page:76
      433    18886    2         OPEN_FILES.FLAGS.OPT_UI# = '1'B;

  18886 15 000503   000100 236003                    LDQ     64,DU
        15 000504   000550 256000 1                  ORSQ    OPEN_FILES

      434    18887    2         END;

  18887 15 000505   000513 710000 15                 TRA     s:18891

      435    18888    2      ELSE DO;

      436    18889    2         OPEN_FILES.FLAGS.UP_DATE# = PP.UI;

  18889 15 000506   001421 236000 1                  LDQ     PP+4
        15 000507   000001 772000                    QRL     1
        15 000510   000550 676000 1                  ERQ     OPEN_FILES
        15 000511   200000 376003                    ANQ     65536,DU
        15 000512   000550 656000 1                  ERSQ    OPEN_FILES

      437    18890    2         END;

      438    18891    1      OPEN_FILES.FLAGS.LU_WHILE# = PP.LU;

  18891 15 000513   001430 236000 1                  LDQ     PP+11
        15 000514   000012 772000                    QRL     10
        15 000515   000550 676000 1                  ERQ     OPEN_FILES
        15 000516   000200 376003                    ANQ     128,DU
        15 000517   000550 656000 1                  ERSQ    OPEN_FILES

      439    18892    1      OUOPN.V.TYPE#='OP';

  18892 15 000520   000451 220000 2                  LDX0    ONE_BLANK+3
        15 000521   000251 740000 1                  STX0    OUOPN+39

      440    18893    1      OUOPN.V.ORG#=%KEYED#;

  18893 15 000522   002000 236007                    LDQ     1024,DL
PL6.E3A0      #001=XUP$PARTRGE File=XUP$PARTRGE.:E05TSI                          WED 07/30/97 09:39 Page:77
        15 000523   000250 552010 1                  STBQ    OUOPN+38,'10'O

      441    18894    1      OUOPN.V.FUN#=%CREATE#;

  18894 15 000524   003000 236007                    LDQ     1536,DL
        15 000525   000247 552010 1                  STBQ    OUOPN+37,'10'O

      442    18895    1      CALL M$TIME(HTIM);

  18895 15 000526   000472 630400 1                  EPPR0   HTIM
        15 000527   020004 713400                    CLIMB   8196
        15 000530   402000 401760                    pmme    nvectors=5

      443    18896    1      TITL.FILE=DCBADDR(OUOPN.V.DCB#)->F$DCB.NAME#.C;

  18896 15 000531   000015 470400 16                 LDP0    13
        15 000532   000000 471500                    LDP1    0,,PR0
        15 000533   000246 220000 1                  LDX0    OUOPN+36
        15 000534   100000 473510                    LDP3    0,X0,PR1
        15 000535   040000 100500                    MLR     fill='040'O
        15 000536   300010 200037                    ADSC9   8,,PR3                   cn=1,n=31
        15 000537   001111 000037 1                  ADSC9   TITL+16                  cn=0,n=31

      444    18897    1      TITL.VERS = B_VERSION.TEXT;

  18897 15 000540   000000 236000 xsym               LDQ     B_VERSION
        15 000541   000033 772000                    QRL     27
        15 000542   000000 621006                    EAX1    0,QL
        15 000543   040000 100440                    MLR     fill='040'O
        15 000544   000000 200011 xsym               ADSC9   B_VERSION                cn=1,n=*X1
        15 000545   001075 000004 1                  ADSC9   TITL+4                   cn=0,n=4

      445    18898    1      SALUTATION.VERS = B_VERSION.TEXT;

  18898 15 000546   040000 100440                    MLR     fill='040'O
        15 000547   000000 200011 xsym               ADSC9   B_VERSION                cn=1,n=*X1
        15 000550   001167 000004 1                  ADSC9   SALUTATION+4             cn=0,n=4
PL6.E3A0      #001=XUP$PARTRGE File=XUP$PARTRGE.:E05TSI                          WED 07/30/97 09:39 Page:78

      446    18899    1      SALUTATION.TIM = TITL.TIM;

  18899 15 000551   040000 100400                    MLR     fill='040'O
        15 000552   001103 200014 1                  ADSC9   TITL+10                  cn=1,n=12
        15 000553   001172 200014 1                  ADSC9   SALUTATION+7             cn=1,n=12

      447    18900    1      SALUTATION.DAT = TITL.DAT;

  18900 15 000554   040000 100400                    MLR     fill='040'O
        15 000555   001106 200013 1                  ADSC9   TITL+13                  cn=1,n=11
        15 000556   001175 200014 1                  ADSC9   SALUTATION+10            cn=1,n=12

      448    18901    1      CALL M$WRITE (WRITE_SALUTATION) ALTRET (IGNORE_SALUTATION_ALTRET);

  18901 15 000557   000160 630400 1                  EPPR0   WRITE_SALUTATION
        15 000560   440001 713400                    CLIMB   alt,write
        15 000561   401400 401760                    pmme    nvectors=4
        15 000562   000563 702000 15                 TSX2    IGNORE_SALUTATION_ALTRET

      449    18902    1   IGNORE_SALUTATION_ALTRET:
      450    18903    1      CALL XUU$OPEN (OPEN_FILES) ALTRET (XUU_ERROR);

  18903 15 000563   000016 630400 16    IGNORE_SALU* EPPR0   14
        15 000564   000017 631400 xsym               EPPR1   B_VECTNIL+15
        15 000565   000000 701000 xent               TSX1    XUU$OPEN
        15 000566   002710 702000 15                 TSX2    XUU_ERROR

      451    18904    1      PREPROC.DO_NOT_PREPROCESS = '0'B;

  18904 15 000567   000604 450000 1                  STZ     PREPROC

      452    18905    1      PREPROC.CREATE_SYS_FILE = PP.CSYS;

  18905 15 000570   001415 236000 1                  LDQ     PP
        15 000571   400000 376003                    ANQ     -131072,DU
        15 000572   000605 756000 1                  STQ     PREPROC+1
PL6.E3A0      #001=XUP$PARTRGE File=XUP$PARTRGE.:E05TSI                          WED 07/30/97 09:39 Page:79

      453    18906    1      PREPROC.NO_SYS_FILE = PP.NSYS;

  18906 15 000573   001417 236000 1                  LDQ     PP+2
        15 000574   400000 376003                    ANQ     -131072,DU
        15 000575   000606 756000 1                  STQ     PREPROC+2

      454    18907    1      PREPROC.LIST_SOURCE = PP.LS;

  18907 15 000576   001416 236000 1                  LDQ     PP+1
        15 000577   400000 376003                    ANQ     -131072,DU
        15 000600   000607 756000 1                  STQ     PREPROC+3

      455    18908    1      PREPROC.LIST_UPDATES = PP.LU;

  18908 15 000601   001430 236000 1                  LDQ     PP+11
        15 000602   400000 376003                    ANQ     -131072,DU
        15 000603   000610 756000 1                  STQ     PREPROC+4

      456    18909    1      PREPROC.SOURCE_OUTPUT = PP.SO;

  18909 15 000604   001420 236000 1                  LDQ     PP+3
        15 000605   400000 376003                    ANQ     -131072,DU
        15 000606   000611 756000 1                  STQ     PREPROC+5

      457    18910    1      PREPROC.LIST_PREPROC_SOURCE = '0'B;

  18910 15 000607   000612 450000 1                  STZ     PREPROC+6

      458    18911    1      PREPROC.USE_STANDARD_CHAR_SET = '0'B;

  18911 15 000610   000642 450000 1                  STZ     PREPROC+30

      459    18912    1      PREPROC.FORMAT = '0'B;

  18912 15 000611   000613 450000 1                  STZ     PREPROC+7

PL6.E3A0      #001=XUP$PARTRGE File=XUP$PARTRGE.:E05TSI                          WED 07/30/97 09:39 Page:80
      460    18913    1      PREPROC.M$SO# = DCBNUM(NIL);

  18913 15 000612   000615 450000 1                  STZ     PREPROC+9

      461    18914    1      PREPROC.M$LIST# = DCBNUM(M$LIST);

  18914 15 000613   000000 236007 xsym               LDQ     M$LIST,DL
        15 000614   000617 756000 1                  STQ     PREPROC+11

      462    18915    1      PREPROC.M$LU# = DCBNUM(NIL);

  18915 15 000615   000621 450000 1                  STZ     PREPROC+13

      463    18916    1      PREPROC.M$NS# = DCBNUM(M$NS);

  18916 15 000616   000000 236007 xsym               LDQ     M$NS,DL
        15 000617   000623 756000 1                  STQ     PREPROC+15

      464    18917    1      PREPROC.M$MAC# = DCBNUM(M$MAC);

  18917 15 000620   000000 236007 xsym               LDQ     M$MAC,DL
        15 000621   000625 756000 1                  STQ     PREPROC+17

      465    18918    1      PREPROC.M$SYSTEM# = DCBNUM(M$SYSTEM);

  18918 15 000622   000000 236007 xsym               LDQ     M$SYSTEM,DL
        15 000623   000627 756000 1                  STQ     PREPROC+19

      466    18919    1      PREPROC.RECNO$ = ADDR(PARTRGE$RECNO);

  18919 15 000624   000017 236000 16                 LDQ     15
        15 000625   000631 756000 1                  STQ     PREPROC+21

      467    18920    1      PREPROC.INPUT_KEY$ = ADDR (PARTRGE$INPUT_KEY);

  18920 15 000626   000020 236000 16                 LDQ     16
        15 000627   000632 756000 1                  STQ     PREPROC+22
PL6.E3A0      #001=XUP$PARTRGE File=XUP$PARTRGE.:E05TSI                          WED 07/30/97 09:39 Page:81

      468    18921    1      PREPROC.ALT_FID$ = ADDR(XUX$SRCH_LIST);

  18921 15 000630   000021 236000 16                 LDQ     17
        15 000631   000633 756000 1                  STQ     PREPROC+23

      469    18922    1      PREPROC.PREP_ERR$$ = ENTADDR(XUP$PARTRGE_PREPROC_ERROR);

  18922 15 000632   000000 636000 xent               EAQ     XUP$PARTRGE_PREPROC_ERROR
        15 000633   000634 756000 1                  STQ     PREPROC+24

      470    18923    1      PREPROC.MONITOR_ERR$$ = ENTADDR(PARTRGE_MON_ERROR);

  18923 15 000634   000000 636000 xent               EAQ     PARTRGE_MON_ERROR
        15 000635   000635 756000 1                  STQ     PREPROC+25

      471    18924    1      PREPROC.WIDTH = MAXIMUM(MINIMUM(DCBADDR(DCBNUM(M$LO))->F$DCB.WIDTH#,109),80);

  18924 15 000636   000000 236007 xsym               LDQ     M$LO,DL
        15 000637   000015 470400 16                 LDP0    13
        15 000640   000000 471500                    LDP1    0,,PR0
        15 000641   100000 473506                    LDP3    0,QL,PR1
        15 000642   300004 236100                    LDQ     4,,PR3
        15 000643   000777 376007                    ANQ     511,DL
        15 000644   000155 116007                    CMPQ    109,DL
        15 000645   000650 602000 15                 TNC     s:18924+10
        15 000646   000650 600000 15                 TZE     s:18924+10
        15 000647   000155 236007                    LDQ     109,DL
        15 000650   000120 116007                    CMPQ    80,DL
        15 000651   000653 603000 15                 TRC     s:18924+13
        15 000652   000120 236007                    LDQ     80,DL
        15 000653   000614 756000 1                  STQ     PREPROC+8

      472    18925    1      ECU = 0;

  18925 15 000654   200071 450100                    STZ     ECU,,AUTO

PL6.E3A0      #001=XUP$PARTRGE File=XUP$PARTRGE.:E05TSI                          WED 07/30/97 09:39 Page:82
      473    18926    1      TOTAL_ERRORS = 0;

  18926 15 000655   200070 450100                    STZ     TOTAL_ERRORS,,AUTO

      474    18927    1   PROCESS_ECU:
      475    18928    1      ECU = ECU + 1;

  18928 15 000656   200071 054100       PROCESS_ECU  AOS     ECU,,AUTO

      476    18929    1      ERROR_COUNT = 0;

  18929 15 000657   001330 450000 1                  STZ     ERROR_COUNT

      477    18930    2      DO I = 0 TO LENGTHW(LEXES$) - 1;

  18930 15 000660   200006 450100                    STZ     I,,AUTO
        15 000661   000666 710000 15                 TRA     s:18932+1

      478    18931    2         LEXES$(I) = ADDR(NIL);

  18931 15 000662   000001 236000 xsym               LDQ     B_VECTNIL+1
        15 000663   200006 720100                    LXL0    I,,AUTO
        15 000664   001222 756010 1                  STQ     LEXES$,X0

      479    18932    2         END;

  18932 15 000665   200006 054100                    AOS     I,,AUTO
        15 000666   200006 235100                    LDA     I,,AUTO
        15 000667   000035 115007                    CMPA    29,DL
        15 000670   000662 604400 15                 TMOZ    s:18931

      480    18933    1      TITL.HDR = 'Source listing';

  18933 15 000671   040000 100400                    MLR     fill='040'O
        15 000672   000452 000016 2                  ADSC9   ONE_BLANK+4              cn=0,n=14
        15 000673   001076 200024 1                  ADSC9   TITL+5                   cn=1,n=20

PL6.E3A0      #001=XUP$PARTRGE File=XUP$PARTRGE.:E05TSI                          WED 07/30/97 09:39 Page:83
      481    18934    1      CALL INSERT(LOHDR.TITL.TITLE#,0,SIZEC(TITL),TITC);

  18934 15 000674   040000 100400                    MLR     fill='040'O
        15 000675   001071 000137 1                  ADSC9   TITL                     cn=0,n=95
        15 000676   000435 200137 1                  ADSC9   LOHDR+1                  cn=1,n=95

      482    18935    1      IF NOT PP.LU AND NOT PP.LS THEN TOPAGE.V.PAGE# = '0'B;

  18935 15 000677   001430 236000 1                  LDQ     PP+11
        15 000700   000705 601000 15                 TNZ     s:18936
        15 000701   001416 235000 1                  LDA     PP+1
        15 000702   000705 601000 15                 TNZ     s:18936

  18935 15 000703   000022 236000 16                 LDQ     18
        15 000704   000430 356000 1                  ANSQ    TOPAGE+6

      483    18936    1      IF TOPAGE.V.PAGE#

  18936 15 000705   000430 236000 1                  LDQ     TOPAGE+6
        15 000706   100000 316007                    CANQ    32768,DL
        15 000707   000713 600000 15                 TZE     s:18938

      484    18937    1      THEN CALL M$DEVICE (TOPAGE);

  18937 15 000710   000422 630400 1                  EPPR0   TOPAGE
        15 000711   050006 713400                    CLIMB   20486
        15 000712   401000 401760                    pmme    nvectors=3

      485    18938    1      LOHDR.CTL.RESETPAGE# = '0'B;

  18938 15 000713   000023 236000 16                 LDQ     19
        15 000714   000434 356000 1                  ANSQ    LOHDR

      486    18939    1      PREPROC.DO_NOT_PREPROCESS = ~ BC(ECU);

  18939 15 000715   200071 235100                    LDA     ECU,,AUTO
        15 000716   000720 605000 15                 TPL     s:18939+3
PL6.E3A0      #001=XUP$PARTRGE File=XUP$PARTRGE.:E05TSI                          WED 07/30/97 09:39 Page:84
        15 000717   000044 035003                    ADLA    36,DU
        15 000720   003100 060405                    CSL     bolr='003'O
        15 000721   001331 000001 1                  BDSC    BC,A                     by=0,bit=0,n=1
        15 000722   200116 000044                    BDSC    NEW_OFFSET+1,,AUTO       by=0,bit=0,n=36
        15 000723   200116 236100                    LDQ     NEW_OFFSET+1,,AUTO
        15 000724   400000 676003                    ERQ     -131072,DU
        15 000725   000604 756000 1                  STQ     PREPROC

      487    18940    1      CALL ZQC$PREP (PREPROC)

  18940 15 000726   000024 630400 16                 EPPR0   20
        15 000727   000017 631400 xsym               EPPR1   B_VECTNIL+15
        15 000730   000000 701000 xent               TSX1    ZQC$PREP
        15 000731   000734 702000 15                 TSX2    s:18945

      488    18941    2      WHENRETURN DO;

      489    18942    2         PREPROCESSOR_ABORT = '0'B;

  18942 15 000732   200065 450100                    STZ     PREPROCESSOR_ABORT,,AUTO

      490    18943    2         END;

  18943 15 000733   000736 710000 15                 TRA     s:18947

      491    18944    2      WHENALTRETURN DO;

      492    18945    2         PREPROCESSOR_ABORT = '1'B;

  18945 15 000734   400000 236003                    LDQ     -131072,DU
        15 000735   200065 756100                    STQ     PREPROCESSOR_ABORT,,AUTO

      493    18946    2         END;

      494    18947    1      IF NOT BC(ECU)

  18947 15 000736   200071 235100                    LDA     ECU,,AUTO
PL6.E3A0      #001=XUP$PARTRGE File=XUP$PARTRGE.:E05TSI                          WED 07/30/97 09:39 Page:85
        15 000737   000741 605000 15                 TPL     s:18947+3
        15 000740   000044 035003                    ADLA    36,DU
        15 000741   000000 066405                    CMPB    filb='0'B
        15 000742   001331 000001 1                  BDSC    BC,A                     by=0,bit=0,n=1
        15 000743   000002 000022 xsym               BDSC    B_VECTNIL+2              by=0,bit=0,n=18
        15 000744   000750 601000 15                 TNZ     s:18954

      495    18948    1      THEN
      496    18949    1         IF PREPROC.END_OF_SOURCE

  18949 15 000745   000644 234000 1                  SZN     PREPROC+32
        15 000746   006206 604000 15                 TMI     WRAP_IT_UP

      497    18950    1         THEN
      498    18951    1            GOTO WRAP_IT_UP;
      499    18952    1         ELSE
      500    18953    1            GOTO PROCESS_ECU;

  18953 15 000747   000656 710000 15                 TRA     PROCESS_ECU

      501    18954    1      REWIND_PP_FILE.V.DCB# = DCBNUM(M$NS);

  18954 15 000750   000000 236007 xsym               LDQ     M$NS,DL
        15 000751   000000 620006                    EAX0    0,QL
        15 000752   000176 740000 1                  STX0    REWIND_PP_FILE+2

      502    18955    1      CALL M$REW (REWIND_PP_FILE) ALTRET (MONERR);

  18955 15 000753   000174 630400 1                  EPPR0   REWIND_PP_FILE
        15 000754   440006 713400                    CLIMB   alt,+16390
        15 000755   400000 401760                    pmme    nvectors=1
        15 000756   002672 702000 15                 TSX2    MONERR

      503    18956    1      IF DCBADDR(DCBNUM(M$LIST)) -> F$DCB.FCD#

  18956 15 000757   000000 236007 xsym               LDQ     M$LIST,DL
        15 000760   000015 470400 16                 LDP0    13
PL6.E3A0      #001=XUP$PARTRGE File=XUP$PARTRGE.:E05TSI                          WED 07/30/97 09:39 Page:86
        15 000761   000000 471500                    LDP1    0,,PR0
        15 000762   100000 473506                    LDP3    0,QL,PR1
        15 000763   300031 236100                    LDQ     25,,PR3
        15 000764   020000 316007                    CANQ    8192,DL
        15 000765   001014 600000 15                 TZE     s:18967

      504    18957    2      THEN DO;

      505    18958    2         REWIND_PP_FILE.V.DCB# = DCBNUM(M$LIST);

  18958 15 000766   000000 236007 xsym               LDQ     M$LIST,DL
        15 000767   000000 620006                    EAX0    0,QL
        15 000770   000176 740000 1                  STX0    REWIND_PP_FILE+2

      506    18959    2         CALL M$REW (REWIND_PP_FILE) ALTRET (MONERR);

  18959 15 000771   000174 630400 1                  EPPR0   REWIND_PP_FILE
        15 000772   440006 713400                    CLIMB   alt,+16390
        15 000773   400000 401760                    pmme    nvectors=1
        15 000774   002672 702000 15                 TSX2    MONERR

      507    18960    2         ZQ$LS_BUFFER = '0'B;

  18960 15 000775   000000 100400                    MLR     fill='000'O
        15 000776   000002 000001 xsym               ADSC9   B_VECTNIL+2              cn=0,n=1
        15 000777   000763 000211 1                  ADSC9   ZQ$LS_BUFFER             cn=0,n=137

      508    18961    2         ZQ$LS_BUFFER.PRINT_BUFFER = ' ';

  18961 15 001000   040000 100400                    MLR     fill='040'O
        15 001001   000035 000001 xsym               ADSC9   B_VECTNIL+29             cn=0,n=1
        15 001002   000764 200204 1                  ADSC9   ZQ$LS_BUFFER+1           cn=1,n=132

      509    18962    2         CALL M$READ (READ_LIST)

  18962 15 001003   000110 630400 1                  EPPR0   READ_LIST
        15 001004   440000 713400                    CLIMB   alt,read
PL6.E3A0      #001=XUP$PARTRGE File=XUP$PARTRGE.:E05TSI                          WED 07/30/97 09:39 Page:87
        15 001005   401400 401760                    pmme    nvectors=4
        15 001006   001010 702000 15                 TSX2    s:18964
        15 001007   001014 710000 15                 TRA     s:18967

      510    18963    3         WHENALTRETURN DO;

      511    18964    3            CALL M$CLOSE (CLOSE_LIST) ALTRET (MONERR);

  18964 15 001010   000200 630400 2                  EPPR0   CLOSE_LIST
        15 001011   450001 713400                    CLIMB   alt,close
        15 001012   406000 401760                    pmme    nvectors=13
        15 001013   002672 702000 15                 TSX2    MONERR

      512    18965    3            END;

      513    18966    2         END;

      514    18967    1      IF DCBADDR(DCBNUM(M$DIAG)) -> F$DCB.FCD#

  18967 15 001014   000000 236007 xsym               LDQ     M$DIAG,DL
        15 001015   000015 470400 16                 LDP0    13
        15 001016   000000 471500                    LDP1    0,,PR0
        15 001017   100000 473506                    LDP3    0,QL,PR1
        15 001020   300031 236100                    LDQ     25,,PR3
        15 001021   020000 316007                    CANQ    8192,DL
        15 001022   001051 600000 15                 TZE     s:18978

      515    18968    2      THEN DO;

      516    18969    2         REWIND_PP_FILE.V.DCB# = DCBNUM(M$DIAG);

  18969 15 001023   000000 236007 xsym               LDQ     M$DIAG,DL
        15 001024   000000 620006                    EAX0    0,QL
        15 001025   000176 740000 1                  STX0    REWIND_PP_FILE+2

      517    18970    2         CALL M$REW (REWIND_PP_FILE) ALTRET (MONERR);

PL6.E3A0      #001=XUP$PARTRGE File=XUP$PARTRGE.:E05TSI                          WED 07/30/97 09:39 Page:88
  18970 15 001026   000174 630400 1                  EPPR0   REWIND_PP_FILE
        15 001027   440006 713400                    CLIMB   alt,+16390
        15 001030   400000 401760                    pmme    nvectors=1
        15 001031   002672 702000 15                 TSX2    MONERR

      518    18971    2         ZQ$DIAG_BUFFER = '0'B;

  18971 15 001032   000000 100400                    MLR     fill='000'O
        15 001033   000002 000001 xsym               ADSC9   B_VECTNIL+2              cn=0,n=1
        15 001034   001026 000211 1                  ADSC9   ZQ$DIAG_BUFFER           cn=0,n=137

      519    18972    2         ZQ$DIAG_BUFFER.PRINT_BUFFER = ' ';

  18972 15 001035   040000 100400                    MLR     fill='040'O
        15 001036   000035 000001 xsym               ADSC9   B_VECTNIL+29             cn=0,n=1
        15 001037   001027 200204 1                  ADSC9   ZQ$DIAG_BUFFER+1         cn=1,n=132

      520    18973    2         CALL M$READ (READ_DIAG)

  18973 15 001040   000126 630400 1                  EPPR0   READ_DIAG
        15 001041   440000 713400                    CLIMB   alt,read
        15 001042   401400 401760                    pmme    nvectors=4
        15 001043   001045 702000 15                 TSX2    s:18975
        15 001044   001051 710000 15                 TRA     s:18978

      521    18974    3         WHENALTRETURN DO;

      522    18975    3            CALL M$CLOSE (CLOSE_DIAG) ALTRET (MONERR);

  18975 15 001045   000236 630400 2                  EPPR0   CLOSE_DIAG
        15 001046   450001 713400                    CLIMB   alt,close
        15 001047   406000 401760                    pmme    nvectors=13
        15 001050   002672 702000 15                 TSX2    MONERR

      523    18976    3            END;

      524    18977    2         END;
PL6.E3A0      #001=XUP$PARTRGE File=XUP$PARTRGE.:E05TSI                          WED 07/30/97 09:39 Page:89

      525    18978    1      IF PP.LU

  18978 15 001051   001430 235000 1                  LDA     PP+11
        15 001052   001056 600000 15                 TZE     s:18981

      526    18979    1      THEN
      527    18980    1         CALL M$DEVICE (TOPAGE);

  18980 15 001053   000422 630400 1                  EPPR0   TOPAGE
        15 001054   050006 713400                    CLIMB   20486
        15 001055   401000 401760                    pmme    nvectors=3

      528    18981    1      P_PCB.ROOT$=ADDR(PARTRGE_CMD);

  18981 15 001056   000025 236000 16                 LDQ     21
        15 001057   000041 756000 1                  STQ     P_PCB+1

      529    18982    1      P_PCB.CMPRS='0'B;

  18982 15 001060   000026 236000 16                 LDQ     22
        15 001061   000045 356000 1                  ANSQ    P_PCB+5

      530    18983    1      P_PCB.COMMENT.LEAD='/*';

  18983 15 001062   000456 220000 2                  LDX0    ONE_BLANK+8
        15 001063   000047 740000 1                  STX0    P_PCB+7

      531    18984    1      P_PCB.COMMENT.TRAIL='*/';

  18984 15 001064   000457 221000 2                  LDX1    ONE_BLANK+9
        15 001065   000047 441000 1                  SXL1    P_PCB+7

      532    18985    1      IF NODE_.FIRST$ = ADDR(NIL)

  18985 15 001066   001207 236000 1                  LDQ     NODE_+1
        15 001067   000001 116000 xsym               CMPQ    B_VECTNIL+1
PL6.E3A0      #001=XUP$PARTRGE File=XUP$PARTRGE.:E05TSI                          WED 07/30/97 09:39 Page:90
        15 001070   001105 601000 15                 TNZ     s:18991

      533    18986    2      THEN DO;

      534    18987    2         CALL M$GDS (NODEFPT) ALTRET (MONERR);

  18987 15 001071   000346 630400 1                  EPPR0   NODEFPT
        15 001072   430001 713400                    CLIMB   alt,gds
        15 001073   400400 401760                    pmme    nvectors=2
        15 001074   002672 702000 15                 TSX2    MONERR

      535    18988    2         CALL M$GDS (SYMFPT) ALTRET (MONERR);

  18988 15 001075   000354 630400 1                  EPPR0   SYMFPT
        15 001076   430001 713400                    CLIMB   alt,gds
        15 001077   400400 401760                    pmme    nvectors=2
        15 001100   002672 702000 15                 TSX2    MONERR

      536    18989    2         CALL M$GDS (WORKFPT) ALTRET (MONERR);

  18989 15 001101   000362 630400 1                  EPPR0   WORKFPT
        15 001102   430001 713400                    CLIMB   alt,gds
        15 001103   400400 401760                    pmme    nvectors=2
        15 001104   002672 702000 15                 TSX2    MONERR

      537    18990    2         END;

      538    18991    1      REMEMBER MONERR IN NOCORERR;

  18991 15 001105   002672 635000 15                 EAA     MONERR
        15 001106   001260 452400 1                  STP2    NOCORERR
        15 001107   001261 755000 1                  STA     NOCORERR+1

      539    18992    1      REMEMBER SYNERR IN SYNTAXERR;

  18992 15 001110   002302 635000 15                 EAA     SYNERR
        15 001111   001262 452400 1                  STP2    SYNTAXERR
PL6.E3A0      #001=XUP$PARTRGE File=XUP$PARTRGE.:E05TSI                          WED 07/30/97 09:39 Page:91
        15 001112   001263 755000 1                  STA     SYNTAXERR+1

      540    18993    1      REMEMBER XUO_ERROR_HANDLER IN XUOERROR;

  18993 15 001113   002741 635000 15                 EAA     XUO_ERROR_HANDLER
        15 001114   001264 452400 1                  STP2    XUOERROR
        15 001115   001265 755000 1                  STA     XUOERROR+1

      541    18994    1      LAST_LINE_WAS_DIAGNOSTIC = '0'B;

  18994 15 001116   200063 450100                    STZ     LAST_LINE_WAS_DIAGNOSTIC,,AUTO

      542    18995    1      NODE_.NEXT$=NODE_.FIRST$;

  18995 15 001117   001207 236000 1                  LDQ     NODE_+1
        15 001120   001211 756000 1                  STQ     NODE_+3

      543    18996    1      SYM_.NEXT$=SYM_.FIRST$;

  18996 15 001121   001213 236000 1                  LDQ     SYM_+1
        15 001122   001215 756000 1                  STQ     SYM_+3

      544    18997    1      FIRST_SYM$ = ADDR(NIL);

  18997 15 001123   000001 236000 xsym               LDQ     B_VECTNIL+1
        15 001124   001433 756000 1                  STQ     FIRST_SYM$

      545    18998    1      P_PCB.TEXT$=PINCRC(WORK_.FIRST$,1);

  18998 15 001125   001203 236000 1                  LDQ     WORK_+1
        15 001126   200000 036007                    ADLQ    65536,DL
        15 001127   000040 756000 1                  STQ     P_PCB

      546    18999    1   NEXT: P_PCB.NCHARS=0;

  18999 15 001130   000051 450000 1     NEXT         STZ     P_PCB+9

PL6.E3A0      #001=XUP$PARTRGE File=XUP$PARTRGE.:E05TSI                          WED 07/30/97 09:39 Page:92
      547    19000    2      DO WHILE(WORK_.SIZE>256);

  19000 15 001131   001202 220000 1                  LDX0    WORK_
        15 001132   000401 100003                    CMPX0   257,DU
        15 001133   001142 602000 15                 TNC     s:19003

      548    19001    2         CALL M$FDS(WORKFPT);

  19001 15 001134   000362 630400 1                  EPPR0   WORKFPT
        15 001135   030002 713400                    CLIMB   fds
        15 001136   400400 401760                    pmme    nvectors=2

      549    19002    2         END;

  19002 15 001137   001202 220000 1                  LDX0    WORK_
        15 001140   000401 100003                    CMPX0   257,DU
        15 001141   001134 603000 15                 TRC     s:19001

      550    19003    1      BLK$=WORK_.FIRST$;

  19003 15 001142   001203 236000 1                  LDQ     WORK_+1
        15 001143   200004 756100                    STQ     BLK$,,AUTO

      551    19004    1      CHAR1=' ';

  19004 15 001144   200004 470500                    LDP0    BLK$,,AUTO
        15 001145   040100 100400                    MLR     fill='040'O
        15 001146   000035 000001 xsym               ADSC9   B_VECTNIL+29             cn=0,n=1
        15 001147   000000 000001                    ADSC9   0,,PR0                   cn=0,n=1

      552    19005    1      NONBLANK_FOUND = '0'B;

  19005 15 001150   200003 450100                    STZ     NONBLANK_FOUND,,AUTO

      553    19006    1      LINE#=0;

  19006 15 001151   001414 450000 1                  STZ     LINE#
PL6.E3A0      #001=XUP$PARTRGE File=XUP$PARTRGE.:E05TSI                          WED 07/30/97 09:39 Page:93

      554    19007    1      WORK_.P$=NODE_.NEXT$;

  19007 15 001152   001211 236000 1                  LDQ     NODE_+3
        15 001153   001204 756000 1                  STQ     WORK_+2

      555    19008    1   CONTINUE:
      556    19009    1      ZQ$NS_BUFFER.TEXT = ' ';

  19009 15 001154   040000 100400       CONTINUE     MLR     fill='040'O
        15 001155   000035 000001 xsym               ADSC9   B_VECTNIL+29             cn=0,n=1
        15 001156   000656 000421 1                  ADSC9   ZQ$NS_BUFFER+2           cn=0,n=273

      557    19010    1      CALL M$READ (FPT_READ)

  19010 15 001157   000056 630400 1                  EPPR0   FPT_READ
        15 001160   440000 713400                    CLIMB   alt,read
        15 001161   401400 401760                    pmme    nvectors=4
        15 001162   001166 702000 15                 TSX2    s:19015

      558    19011    2      WHENRETURN DO;

      559    19012    2         HIGHEST_LINE_NUMBER = ZQ$NS_BUFFER.RECNO;

  19012 15 001163   000654 235000 1                  LDA     ZQ$NS_BUFFER
        15 001164   200054 755100                    STA     HIGHEST_LINE_NUMBER,,AUTO

      560    19013    2         END;

  19013 15 001165   001170 710000 15                 TRA     s:19017

      561    19014    2      WHENALTRETURN DO;

      562    19015    2         ZQ$NS_BUFFER.RECNO = BITBIN('777777'O);

  19015 15 001166   777777 235007                    LDA     -1,DL
        15 001167   000654 755000 1                  STA     ZQ$NS_BUFFER
PL6.E3A0      #001=XUP$PARTRGE File=XUP$PARTRGE.:E05TSI                          WED 07/30/97 09:39 Page:94

      563    19016    2         END;

      564    19017    1      TEXT.LINE = ZQ$NS_BUFFER.RECNO;

  19017 15 001170   000000 755000 1                  STA     TEXT

      565    19018    1      TEXT.SIKEY = ZQ$NS_BUFFER.INPUT_KEY.EDIT_VAL;

  19018 15 001171   000655 236000 1                  LDQ     ZQ$NS_BUFFER+1
        15 001172   000011 736000                    QLS     9
        15 001173   000001 552070 1                  STBQ    TEXT+1,'70'O

      566    19019    1      TEXT.UPC = BINASC(ZQ$NS_BUFFER.INPUT_KEY.TYPE_CHAR);

  19019 15 001174   000655 236000 1                  LDQ     ZQ$NS_BUFFER+1
        15 001175   000034 772000                    QRL     28
        15 001176   000033 736000                    QLS     27
        15 001177   000027 276000 16                 ORQ     23
        15 001200   000033 772000                    QRL     27
        15 001201   000001 552004 1                  STBQ    TEXT+1,'04'O

      567    19020    1      TEXT.T = ZQ$NS_BUFFER.TEXT;

  19020 15 001202   040000 100400                    MLR     fill='040'O
        15 001203   000656 000170 1                  ADSC9   ZQ$NS_BUFFER+2           cn=0,n=120
        15 001204   000002 000170 1                  ADSC9   TEXT+2                   cn=0,n=120

      568    19021    1      SOMETHING_WRITTEN = '1'B;

  19021 15 001205   400000 236003                    LDQ     -131072,DU
        15 001206   200066 756100                    STQ     SOMETHING_WRITTEN,,AUTO

      569    19022    2      DO WHILE SOMETHING_WRITTEN AND (DCBADDR(DCBNUM(M$LIST)) -> F$DCB.FCD# OR

  19022 15 001207   001406 710000 15                 TRA     s:19069

PL6.E3A0      #001=XUP$PARTRGE File=XUP$PARTRGE.:E05TSI                          WED 07/30/97 09:39 Page:95
      570    19023    2        DCBADDR(DCBNUM(M$DIAG)) -> F$DCB.FCD#);
      571    19024    2         SOMETHING_WRITTEN = '0'B;

  19024 15 001210   200066 450100                    STZ     SOMETHING_WRITTEN,,AUTO

      572    19025    3         DO WHILE DCBADDR(DCBNUM(M$LIST)) -> F$DCB.FCD# AND

  19025 15 001211   001256 710000 15                 TRA     s:19043

      573    19026    3           ZQ$LS_BUFFER.RECNO <= ZQ$NS_BUFFER.RECNO AND
      574    19027    3           (NOT DCBADDR(DCBNUM(M$DIAG)) -> F$DCB.FCD# OR
      575    19028    3           ZQ$LS_BUFFER.RECNO <= ZQ$DIAG_BUFFER.RECNO);
      576    19029    3            LS_BUFFER.VFC = BITASC (ZQ$LS_BUFFER.VFC);

  19029 15 001212   000764 236000 1                  LDQ     ZQ$LS_BUFFER+1
        15 001213   001121 552040 1                  STBQ    LS_BUFFER,'40'O

      577    19030    3            LS_BUFFER.PRINT_BUFFER = ZQ$LS_BUFFER.PRINT_BUFFER;

  19030 15 001214   040000 100400                    MLR     fill='040'O
        15 001215   000764 200204 1                  ADSC9   ZQ$LS_BUFFER+1           cn=1,n=132
        15 001216   001121 200204 1                  ADSC9   LS_BUFFER                cn=1,n=132

      578    19031    3            IF LS_BUFFER.VFC = 'A' AND LAST_LINE_WAS_DIAGNOSTIC

  19031 15 001217   001121 236000 1                  LDQ     LS_BUFFER
        15 001220   777000 376003                    ANQ     -512,DU
        15 001221   101000 116003                    CMPQ    33280,DU
        15 001222   001230 601000 15                 TNZ     s:19034
        15 001223   200063 234100                    SZN     LAST_LINE_WAS_DIAGNOSTIC,,AUTO
        15 001224   001230 605000 15                 TPL     s:19034

      579    19032    3            THEN
      580    19033    3               CALL M$WRITE (WRITE_BLANK);

  19033 15 001225   000000 630400 2                  EPPR0   WRITE_BLANK
        15 001226   040001 713400                    CLIMB   write
PL6.E3A0      #001=XUP$PARTRGE File=XUP$PARTRGE.:E05TSI                          WED 07/30/97 09:39 Page:96
        15 001227   401400 401760                    pmme    nvectors=4

      581    19034    3            LAST_LINE_WAS_DIAGNOSTIC = '0'B;

  19034 15 001230   200063 450100                    STZ     LAST_LINE_WAS_DIAGNOSTIC,,AUTO

      582    19035    3            CALL M$WRITE (WRITE_LS) ALTRET (MONERR);

  19035 15 001231   000144 630400 1                  EPPR0   WRITE_LS
        15 001232   440001 713400                    CLIMB   alt,write
        15 001233   401400 401760                    pmme    nvectors=4
        15 001234   002672 702000 15                 TSX2    MONERR

      583    19036    3            ZQ$LS_BUFFER = '0'B;

  19036 15 001235   000000 100400                    MLR     fill='000'O
        15 001236   000002 000001 xsym               ADSC9   B_VECTNIL+2              cn=0,n=1
        15 001237   000763 000211 1                  ADSC9   ZQ$LS_BUFFER             cn=0,n=137

      584    19037    3            ZQ$LS_BUFFER.PRINT_BUFFER = ' ';

  19037 15 001240   040000 100400                    MLR     fill='040'O
        15 001241   000035 000001 xsym               ADSC9   B_VECTNIL+29             cn=0,n=1
        15 001242   000764 200204 1                  ADSC9   ZQ$LS_BUFFER+1           cn=1,n=132

      585    19038    3            CALL M$READ (READ_LIST)

  19038 15 001243   000110 630400 1                  EPPR0   READ_LIST
        15 001244   440000 713400                    CLIMB   alt,read
        15 001245   401400 401760                    pmme    nvectors=4
        15 001246   001250 702000 15                 TSX2    s:19040
        15 001247   001254 710000 15                 TRA     s:19042

      586    19039    4            WHENALTRETURN DO;

      587    19040    4               CALL M$CLOSE (CLOSE_LIST) ALTRET (MONERR);

PL6.E3A0      #001=XUP$PARTRGE File=XUP$PARTRGE.:E05TSI                          WED 07/30/97 09:39 Page:97
  19040 15 001250   000200 630400 2                  EPPR0   CLOSE_LIST
        15 001251   450001 713400                    CLIMB   alt,close
        15 001252   406000 401760                    pmme    nvectors=13
        15 001253   002672 702000 15                 TSX2    MONERR

      588    19041    4               END;

      589    19042    3            SOMETHING_WRITTEN = '1'B;

  19042 15 001254   400000 236003                    LDQ     -131072,DU
        15 001255   200066 756100                    STQ     SOMETHING_WRITTEN,,AUTO

      590    19043    3            END;

  19043 15 001256   000000 236007 xsym               LDQ     M$LIST,DL
        15 001257   000015 470400 16                 LDP0    13
        15 001260   000000 471500                    LDP1    0,,PR0
        15 001261   100000 473506                    LDP3    0,QL,PR1
        15 001262   300031 236100                    LDQ     25,,PR3
        15 001263   020000 316007                    CANQ    8192,DL
        15 001264   001300 600000 15                 TZE     s:19044
        15 001265   000654 236000 1                  LDQ     ZQ$NS_BUFFER
        15 001266   000763 116000 1                  CMPQ    ZQ$LS_BUFFER
        15 001267   001300 602000 15                 TNC     s:19044
        15 001270   000000 236007 xsym               LDQ     M$DIAG,DL
        15 001271   100000 473506                    LDP3    0,QL,PR1
        15 001272   300031 236100                    LDQ     25,,PR3
        15 001273   020000 316007                    CANQ    8192,DL
        15 001274   001212 600000 15                 TZE     s:19029
        15 001275   001026 236000 1                  LDQ     ZQ$DIAG_BUFFER
        15 001276   000763 116000 1                  CMPQ    ZQ$LS_BUFFER
        15 001277   001212 603000 15                 TRC     s:19029

      591    19044    3         DO WHILE DCBADDR(DCBNUM(M$DIAG)) -> F$DCB.FCD# AND

  19044 15 001300   001364 710000 15                 TRA     s:19068

PL6.E3A0      #001=XUP$PARTRGE File=XUP$PARTRGE.:E05TSI                          WED 07/30/97 09:39 Page:98
      592    19045    3           ZQ$DIAG_BUFFER.RECNO <= ZQ$NS_BUFFER.RECNO AND
      593    19046    3           (NOT DCBADDR(DCBNUM(M$LIST)) -> F$DCB.FCD# OR
      594    19047    3           ZQ$DIAG_BUFFER.RECNO < ZQ$LS_BUFFER.RECNO);
      595    19048    3            LS_BUFFER.VFC = BITASC (ZQ$DIAG_BUFFER.VFC);

  19048 15 001301   001027 236000 1                  LDQ     ZQ$DIAG_BUFFER+1
        15 001302   001121 552040 1                  STBQ    LS_BUFFER,'40'O

      596    19049    3            LS_BUFFER.PRINT_BUFFER = ZQ$DIAG_BUFFER.PRINT_BUFFER;

  19049 15 001303   040000 100400                    MLR     fill='040'O
        15 001304   001027 200204 1                  ADSC9   ZQ$DIAG_BUFFER+1         cn=1,n=132
        15 001305   001121 200204 1                  ADSC9   LS_BUFFER                cn=1,n=132

      597    19050    3            IF LS_BUFFER.VFC = 'A' AND NOT (LAST_LINE_WAS_DIAGNOSTIC)

  19050 15 001306   001121 236000 1                  LDQ     LS_BUFFER
        15 001307   777000 376003                    ANQ     -512,DU
        15 001310   101000 116003                    CMPQ    33280,DU
        15 001311   001317 601000 15                 TNZ     s:19053
        15 001312   200063 234100                    SZN     LAST_LINE_WAS_DIAGNOSTIC,,AUTO
        15 001313   001317 604000 15                 TMI     s:19053

      598    19051    3            THEN
      599    19052    3               CALL M$WRITE (WRITE_BLANK);

  19052 15 001314   000000 630400 2                  EPPR0   WRITE_BLANK
        15 001315   040001 713400                    CLIMB   write
        15 001316   401400 401760                    pmme    nvectors=4

      600    19053    3            LAST_LINE_WAS_DIAGNOSTIC = '1'B;

  19053 15 001317   400000 236003                    LDQ     -131072,DU
        15 001320   200063 756100                    STQ     LAST_LINE_WAS_DIAGNOSTIC,,AUTO

      601    19054    3            CALL M$WRITE (WRITE_LS) ALTRET (MONERR);

PL6.E3A0      #001=XUP$PARTRGE File=XUP$PARTRGE.:E05TSI                          WED 07/30/97 09:39 Page:99
  19054 15 001321   000144 630400 1                  EPPR0   WRITE_LS
        15 001322   440001 713400                    CLIMB   alt,write
        15 001323   401400 401760                    pmme    nvectors=4
        15 001324   002672 702000 15                 TSX2    MONERR

      602    19055    3            CALL M$CORRES (CORR)

  19055 15 001325   000340 630400 2                  EPPR0   CORR
        15 001326   460000 713400                    CLIMB   alt,+24576
        15 001327   400000 401760                    pmme    nvectors=1
        15 001330   001343 702000 15                 TSX2    s:19061

      603    19056    4            WHENRETURN DO;

      604    19057    4               WRITE_LS.V.DCB# = DCBNUM(M$DO);

  19057 15 001331   000000 236007 xsym               LDQ     M$DO,DL
        15 001332   000000 620006                    EAX0    0,QL
        15 001333   000154 740000 1                  STX0    WRITE_LS+8

      605    19058    4               CALL M$WRITE (WRITE_LS) ALTRET (MONERR);

  19058 15 001334   000144 630400 1                  EPPR0   WRITE_LS
        15 001335   440001 713400                    CLIMB   alt,write
        15 001336   401400 401760                    pmme    nvectors=4
        15 001337   002672 702000 15                 TSX2    MONERR

      606    19059    4               WRITE_LS.V.DCB# = DCBNUM(M$LO);

  19059 15 001340   000000 236007 xsym               LDQ     M$LO,DL
        15 001341   000000 620006                    EAX0    0,QL
        15 001342   000154 740000 1                  STX0    WRITE_LS+8

      607    19060    4               END;

      608    19061    3            ZQ$DIAG_BUFFER = '0'B;

PL6.E3A0      #001=XUP$PARTRGE File=XUP$PARTRGE.:E05TSI                          WED 07/30/97 09:39 Page:100
  19061 15 001343   000000 100400                    MLR     fill='000'O
        15 001344   000002 000001 xsym               ADSC9   B_VECTNIL+2              cn=0,n=1
        15 001345   001026 000211 1                  ADSC9   ZQ$DIAG_BUFFER           cn=0,n=137

      609    19062    3            ZQ$DIAG_BUFFER.PRINT_BUFFER = ' ';

  19062 15 001346   040000 100400                    MLR     fill='040'O
        15 001347   000035 000001 xsym               ADSC9   B_VECTNIL+29             cn=0,n=1
        15 001350   001027 200204 1                  ADSC9   ZQ$DIAG_BUFFER+1         cn=1,n=132

      610    19063    3            CALL M$READ (READ_DIAG)

  19063 15 001351   000126 630400 1                  EPPR0   READ_DIAG
        15 001352   440000 713400                    CLIMB   alt,read
        15 001353   401400 401760                    pmme    nvectors=4
        15 001354   001356 702000 15                 TSX2    s:19065
        15 001355   001362 710000 15                 TRA     s:19067

      611    19064    4            WHENALTRETURN DO;

      612    19065    4               CALL M$CLOSE (CLOSE_DIAG) ALTRET (MONERR);

  19065 15 001356   000236 630400 2                  EPPR0   CLOSE_DIAG
        15 001357   450001 713400                    CLIMB   alt,close
        15 001360   406000 401760                    pmme    nvectors=13
        15 001361   002672 702000 15                 TSX2    MONERR

      613    19066    4               END;

      614    19067    3            SOMETHING_WRITTEN = '1'B;

  19067 15 001362   400000 236003                    LDQ     -131072,DU
        15 001363   200066 756100                    STQ     SOMETHING_WRITTEN,,AUTO

      615    19068    3            END;

  19068 15 001364   000000 236007 xsym               LDQ     M$DIAG,DL
PL6.E3A0      #001=XUP$PARTRGE File=XUP$PARTRGE.:E05TSI                          WED 07/30/97 09:39 Page:101
        15 001365   000015 470400 16                 LDP0    13
        15 001366   000000 471500                    LDP1    0,,PR0
        15 001367   100000 473506                    LDP3    0,QL,PR1
        15 001370   300031 236100                    LDQ     25,,PR3
        15 001371   020000 316007                    CANQ    8192,DL
        15 001372   001406 600000 15                 TZE     s:19069
        15 001373   000654 236000 1                  LDQ     ZQ$NS_BUFFER
        15 001374   001026 116000 1                  CMPQ    ZQ$DIAG_BUFFER
        15 001375   001406 602000 15                 TNC     s:19069
        15 001376   000000 236007 xsym               LDQ     M$LIST,DL
        15 001377   100000 473506                    LDP3    0,QL,PR1
        15 001400   300031 236100                    LDQ     25,,PR3
        15 001401   020000 316007                    CANQ    8192,DL
        15 001402   001301 600000 15                 TZE     s:19048
        15 001403   001026 236000 1                  LDQ     ZQ$DIAG_BUFFER
        15 001404   000763 116000 1                  CMPQ    ZQ$LS_BUFFER
        15 001405   001301 602000 15                 TNC     s:19048

      616    19069    2         END;

  19069 15 001406   200066 234100                    SZN     SOMETHING_WRITTEN,,AUTO
        15 001407   001424 605000 15                 TPL     s:19070
        15 001410   000000 236007 xsym               LDQ     M$LIST,DL
        15 001411   000015 470400 16                 LDP0    13
        15 001412   000000 471500                    LDP1    0,,PR0
        15 001413   100000 473506                    LDP3    0,QL,PR1
        15 001414   300031 236100                    LDQ     25,,PR3
        15 001415   020000 316007                    CANQ    8192,DL
        15 001416   001210 601000 15                 TNZ     s:19024
        15 001417   000000 236007 xsym               LDQ     M$DIAG,DL
        15 001420   100000 473506                    LDP3    0,QL,PR1
        15 001421   300031 236100                    LDQ     25,,PR3
        15 001422   020000 316007                    CANQ    8192,DL
        15 001423   001210 601000 15                 TNZ     s:19024

      617    19070    1      IF ZQ$NS_BUFFER.RECNO = BITBIN('777777'O)

PL6.E3A0      #001=XUP$PARTRGE File=XUP$PARTRGE.:E05TSI                          WED 07/30/97 09:39 Page:102
  19070 15 001424   000654 235000 1                  LDA     ZQ$NS_BUFFER
        15 001425   777777 115007                    CMPA    -1,DL
        15 001426   003320 600000 15                 TZE     XUPDONE

      618    19071    1      THEN
      619    19072    1         GOTO XUPDONE;
      620    19073    1      IF PREPROCESSOR_ABORT

  19073 15 001427   200065 234100                    SZN     PREPROCESSOR_ABORT,,AUTO
        15 001430   001130 604000 15                 TMI     NEXT

      621    19074    1      THEN
      622    19075    1         GOTO NEXT;
      623    19076    1      I=0;

  19076 15 001431   200006 450100                    STZ     I,,AUTO

      624    19077    2      DO WHILE (I<SIZEC(TEXT.T));

  19077 15 001432   001472 710000 15                 TRA     s:19084

      625    19078    2         IF SUBSTR(TEXT.T,I,1)~=' ' THEN NONBLANK_FOUND = '1'B;

  19078 15 001433   200006 235100                    LDA     I,,AUTO
        15 001434   040000 106405                    CMPC    fill='040'O
        15 001435   000002 000001 1                  ADSC9   TEXT+2,A                 cn=0,n=1
        15 001436   000035 000001 xsym               ADSC9   B_VECTNIL+29             cn=0,n=1
        15 001437   001442 600000 15                 TZE     s:19079

  19078 15 001440   400000 236003                    LDQ     -131072,DU
        15 001441   200003 756100                    STQ     NONBLANK_FOUND,,AUTO

      626    19079    2         BLK$=PINCRC(BLK$,1);

  19079 15 001442   200004 236100                    LDQ     BLK$,,AUTO
        15 001443   200000 036007                    ADLQ    65536,DL
        15 001444   200004 756100                    STQ     BLK$,,AUTO
PL6.E3A0      #001=XUP$PARTRGE File=XUP$PARTRGE.:E05TSI                          WED 07/30/97 09:39 Page:103

      627    19080    2         IF POFFW(BLK$,WORK_.FIRST$)>WORK_.SIZE

  19080 15 001445   001203 235000 1                  LDA     WORK_+1
        15 001446   000022 771000                    ARL     18
        15 001447   200116 755100                    STA     NEW_OFFSET+1,,AUTO
        15 001450   200004 236100                    LDQ     BLK$,,AUTO
        15 001451   000022 772000                    QRL     18
        15 001452   200116 136100                    SBLQ    NEW_OFFSET+1,,AUTO
        15 001453   200117 756100                    STQ     NEW_OFFSET+2,,AUTO
        15 001454   001202 236000 1                  LDQ     WORK_
        15 001455   000022 772000                    QRL     18
        15 001456   200117 116100                    CMPQ    NEW_OFFSET+2,,AUTO
        15 001457   001464 605000 15                 TPL     s:19082

      628    19081    2         THEN CALL M$GDS(WORKFPT) ALTRET(MONERR);

  19081 15 001460   000362 630400 1                  EPPR0   WORKFPT
        15 001461   430001 713400                    CLIMB   alt,gds
        15 001462   400400 401760                    pmme    nvectors=2
        15 001463   002672 702000 15                 TSX2    MONERR

      629    19082    2         CHAR1=SUBSTR(TEXT.T,I,1);

  19082 15 001464   200006 235100                    LDA     I,,AUTO
        15 001465   200004 470500                    LDP0    BLK$,,AUTO
        15 001466   040100 100405                    MLR     fill='040'O
        15 001467   000002 000001 1                  ADSC9   TEXT+2,A                 cn=0,n=1
        15 001470   000000 000001                    ADSC9   0,,PR0                   cn=0,n=1

      630    19083    2         I=I+1;

  19083 15 001471   200006 054100                    AOS     I,,AUTO

      631    19084    2         END;

  19084 15 001472   200006 235100                    LDA     I,,AUTO
PL6.E3A0      #001=XUP$PARTRGE File=XUP$PARTRGE.:E05TSI                          WED 07/30/97 09:39 Page:104
        15 001473   000170 115007                    CMPA    120,DL
        15 001474   001433 604000 15                 TMI     s:19078

      632    19085    1      IF NOT NONBLANK_FOUND

  19085 15 001475   200003 234100                    SZN     NONBLANK_FOUND,,AUTO
        15 001476   001502 604000 15                 TMI     s:19090

      633    19086    2      THEN DO;

      634    19087    2         BLK$=WORK_.FIRST$;

  19087 15 001477   001203 236000 1                  LDQ     WORK_+1
        15 001500   200004 756100                    STQ     BLK$,,AUTO

      635    19088    2         GOTO CONTINUE;

  19088 15 001501   001154 710000 15                 TRA     CONTINUE

      636    19089    2         END;
      637    19090    2      DO WHILE CHAR1=' ';

  19090 15 001502   200004 470500                    LDP0    BLK$,,AUTO
        15 001503   040000 106500                    CMPC    fill='040'O
        15 001504   000000 000001                    ADSC9   0,,PR0                   cn=0,n=1
        15 001505   000035 000001 xsym               ADSC9   B_VECTNIL+29             cn=0,n=1
        15 001506   001517 601000 15                 TNZ     s:19093

      638    19091    2         BLK$ = PINCRC(BLK$, -1);

  19091 15 001507   200004 236100                    LDQ     BLK$,,AUTO
        15 001510   000034 036000 xsym               ADLQ    B_VECTNIL+28
        15 001511   200004 756100                    STQ     BLK$,,AUTO

      639    19092    2         END;

  19092 15 001512   200004 470500                    LDP0    BLK$,,AUTO
PL6.E3A0      #001=XUP$PARTRGE File=XUP$PARTRGE.:E05TSI                          WED 07/30/97 09:39 Page:105
        15 001513   040000 106500                    CMPC    fill='040'O
        15 001514   000000 000001                    ADSC9   0,,PR0                   cn=0,n=1
        15 001515   000035 000001 xsym               ADSC9   B_VECTNIL+29             cn=0,n=1
        15 001516   001507 600000 15                 TZE     s:19091

      640    19093    1      P_PCB.NCHARS=POFFC(BLK$,WORK_.FIRST$);

  19093 15 001517   001203 236000 1                  LDQ     WORK_+1
        15 001520   000020 772000                    QRL     16
        15 001521   200116 756100                    STQ     NEW_OFFSET+1,,AUTO
        15 001522   200004 236100                    LDQ     BLK$,,AUTO
        15 001523   000020 772000                    QRL     16
        15 001524   200116 136100                    SBLQ    NEW_OFFSET+1,,AUTO
        15 001525   000051 756000 1                  STQ     P_PCB+9

      641    19094    1      IF POFFW(ADDR(LINES(LINE#+1)),NODE_.FIRST$)>NODE_.SIZE

  19094 15 001526   001414 236000 1                  LDQ     LINE#
        15 001527   000023 736000                    QLS     19
        15 001530   000002 036003                    ADLQ    2,DU
        15 001531   001204 036000 1                  ADLQ    WORK_+2
        15 001532   000022 772000                    QRL     18
        15 001533   001207 235000 1                  LDA     NODE_+1
        15 001534   000022 771000                    ARL     18
        15 001535   200116 755100                    STA     NEW_OFFSET+1,,AUTO
        15 001536   200116 136100                    SBLQ    NEW_OFFSET+1,,AUTO
        15 001537   200117 756100                    STQ     NEW_OFFSET+2,,AUTO
        15 001540   001206 236000 1                  LDQ     NODE_
        15 001541   000022 772000                    QRL     18
        15 001542   200117 116100                    CMPQ    NEW_OFFSET+2,,AUTO
        15 001543   001550 605000 15                 TPL     s:19096

      642    19095    1      THEN CALL M$GDS(NODEFPT)ALTRET(MONERR);

  19095 15 001544   000346 630400 1                  EPPR0   NODEFPT
        15 001545   430001 713400                    CLIMB   alt,gds
        15 001546   400400 401760                    pmme    nvectors=2
PL6.E3A0      #001=XUP$PARTRGE File=XUP$PARTRGE.:E05TSI                          WED 07/30/97 09:39 Page:106
        15 001547   002672 702000 15                 TSX2    MONERR

      643    19096    1      LINES(LINE#)=TEXT;

  19096 15 001550   001414 235000 1                  LDA     LINE#
        15 001551   000001 735000                    ALS     1
        15 001552   001204 470400 1                  LDP0    WORK_+2
        15 001553   000000 620005                    EAX0    0,AL
        15 001554   000000 621005                    EAX1    0,AL
        15 001555   000000 237000 1                  LDAQ    TEXT
        15 001556   000000 755110                    STA     0,X0,PR0
        15 001557   000001 756111                    STQ     1,X1,PR0

      644    19097    1      LINES.CPOS(LINE#)=P_PCB.NCHARS;

  19097 15 001560   000051 722000 1                  LXL2    P_PCB+9
        15 001561   001204 470400 1                  LDP0    WORK_+2
        15 001562   000000 742110                    STX2    0,X0,PR0

      645    19098    1      LINE#=LINE#+1;

  19098 15 001563   001414 054000 1                  AOS     LINE#

      646    19099    2      IF CHAR1=';' THEN DO;

  19099 15 001564   200004 470500                    LDP0    BLK$,,AUTO
        15 001565   040000 106500                    CMPC    fill='040'O
        15 001566   000000 000001                    ADSC9   0,,PR0                   cn=0,n=1
        15 001567   000030 000001 16                 ADSC9   24                       cn=0,n=1
        15 001570   001603 601000 15                 TNZ     NEWPARSE

      647    19100    2         IF BLK$=P_PCB.TEXT$ THEN BLK$=WORK_.FIRST$;

  19100 15 001571   200004 236100                    LDQ     BLK$,,AUTO
        15 001572   000040 116000 1                  CMPQ    P_PCB
        15 001573   001576 601000 15                 TNZ     s:19101

PL6.E3A0      #001=XUP$PARTRGE File=XUP$PARTRGE.:E05TSI                          WED 07/30/97 09:39 Page:107
  19100 15 001574   001203 236000 1                  LDQ     WORK_+1
        15 001575   200004 756100                    STQ     BLK$,,AUTO

      648    19101    2         CHAR1=' ';

  19101 15 001576   200004 470500                    LDP0    BLK$,,AUTO
        15 001577   040100 100400                    MLR     fill='040'O
        15 001600   000035 000001 xsym               ADSC9   B_VECTNIL+29             cn=0,n=1
        15 001601   000000 000001                    ADSC9   0,,PR0                   cn=0,n=1

      649    19102    2         GOTO CONTINUE;

  19102 15 001602   001154 710000 15                 TRA     CONTINUE

  19099 15 001603                       NEWPARSE     null
      650    19103    2         END;
      651    19104    1   NEWPARSE:;
      652    19105    1      WORK_.P$=PINCRW(WORK_.FIRST$,(P_PCB.NCHARS+4)/4);

  19105 15 001603   000051 236000 1                  LDQ     P_PCB+9
        15 001604   000004 036007                    ADLQ    4,DL
        15 001605   000002 772000                    QRL     2
        15 001606   000022 736000                    QLS     18
        15 001607   001203 036000 1                  ADLQ    WORK_+1
        15 001610   001204 756000 1                  STQ     WORK_+2

      653    19106    1      I=LINE#*SIZEC(LINES(0));

  19106 15 001611   001414 235000 1                  LDA     LINE#
        15 001612   000003 735000                    ALS     3
        15 001613   200006 755100                    STA     I,,AUTO

      654    19107    1      P_PCB.WORK$=PINCRC(WORK_.P$,I);

  19107 15 001614   200006 236100                    LDQ     I,,AUTO
        15 001615   000020 736000                    QLS     16
        15 001616   001204 036000 1                  ADLQ    WORK_+2
PL6.E3A0      #001=XUP$PARTRGE File=XUP$PARTRGE.:E05TSI                          WED 07/30/97 09:39 Page:108
        15 001617   000042 756000 1                  STQ     P_PCB+2

      655    19108    2      DO WHILE(POFFW(P_PCB.WORK$,WORK_.FIRST$)>WORK_.SIZE);

  19108 15 001620   001625 710000 15                 TRA     s:19110

      656    19109    2         CALL M$GDS(WORKFPT)ALTRET(MONERR);

  19109 15 001621   000362 630400 1                  EPPR0   WORKFPT
        15 001622   430001 713400                    CLIMB   alt,gds
        15 001623   400400 401760                    pmme    nvectors=2
        15 001624   002672 702000 15                 TSX2    MONERR

      657    19110    2         END;

  19110 15 001625   001203 235000 1                  LDA     WORK_+1
        15 001626   000022 771000                    ARL     18
        15 001627   200116 755100                    STA     NEW_OFFSET+1,,AUTO
        15 001630   000042 236000 1                  LDQ     P_PCB+2
        15 001631   000022 772000                    QRL     18
        15 001632   200116 136100                    SBLQ    NEW_OFFSET+1,,AUTO
        15 001633   200117 756100                    STQ     NEW_OFFSET+2,,AUTO
        15 001634   001202 236000 1                  LDQ     WORK_
        15 001635   000022 772000                    QRL     18
        15 001636   200117 116100                    CMPQ    NEW_OFFSET+2,,AUTO
        15 001637   001621 604000 15                 TMI     s:19109

      658    19111    1      WORK_.P$->CHARI=NODE_.NEXT$->CHARI;

  19111 15 001640   001211 470400 1                  LDP0    NODE_+3
        15 001641   200006 720100                    LXL0    I,,AUTO
        15 001642   001204 471400 1                  LDP1    WORK_+2
        15 001643   040140 100540                    MLR     fill='040'O
        15 001644   000000 000010                    ADSC9   0,,PR0                   cn=0,n=*X0
        15 001645   100000 000010                    ADSC9   0,,PR1                   cn=0,n=*X0

      659    19112    1      P_PCB.WKSZ=WORK_.SIZE+1-POFFW(P_PCB.WORK$,WORK_.FIRST$);
PL6.E3A0      #001=XUP$PARTRGE File=XUP$PARTRGE.:E05TSI                          WED 07/30/97 09:39 Page:109

  19112 15 001646   001203 235000 1                  LDA     WORK_+1
        15 001647   000022 771000                    ARL     18
        15 001650   200116 755100                    STA     NEW_OFFSET+1,,AUTO
        15 001651   000042 236000 1                  LDQ     P_PCB+2
        15 001652   000022 772000                    QRL     18
        15 001653   200116 136100                    SBLQ    NEW_OFFSET+1,,AUTO
        15 001654   200117 756100                    STQ     NEW_OFFSET+2,,AUTO
        15 001655   001202 236000 1                  LDQ     WORK_
        15 001656   000022 772000                    QRL     18
        15 001657   200117 136100                    SBLQ    NEW_OFFSET+2,,AUTO
        15 001660   000001 620006                    EAX0    1,QL
        15 001661   000045 740000 1                  STX0    P_PCB+5

      660    19113    1      LITCODE=0;

  19113 15 001662   001220 450000 1                  STZ     LITCODE

      661    19114    1      LIT_PRESENT = '0'B;

  19114 15 001663   001221 450000 1                  STZ     LIT_PRESENT

      662    19115    1      CALL X$PARSE(P_PCB) ALTRET(PARSERR);

  19115 15 001664   000002 630400 16                 EPPR0   2
        15 001665   000017 631400 xsym               EPPR1   B_VECTNIL+15
        15 001666   000000 701000 xent               TSX1    X$PARSE
        15 001667   002245 702000 15                 TSX2    PARSERR

      663    19116    1      P_PCB.HI_CHAR=0;

  19116 15 001670   000052 450000 1                  STZ     P_PCB+10

      664    19117    1      BLK$=P_PCB.OUT$;

  19117 15 001671   000043 236000 1                  LDQ     P_PCB+3
        15 001672   200004 756100                    STQ     BLK$,,AUTO
PL6.E3A0      #001=XUP$PARTRGE File=XUP$PARTRGE.:E05TSI                          WED 07/30/97 09:39 Page:110

      665    19118    1      NODE_.P$=OUT$BLK.SUBLK$(0);

  19118 15 001673   200004 470500                    LDP0    BLK$,,AUTO
        15 001674   000003 236100                    LDQ     3,,PR0
        15 001675   001210 756000 1                  STQ     NODE_+2

      666    19119    1      CALL XUP$BLDSYM(NODE_.P$->DATA,SYM_.P$);

  19119 15 001676   000031 236000 16                 LDQ     25
        15 001677   001210 235000 1                  LDA     NODE_+2
        15 001700   200116 757100                    STAQ    NEW_OFFSET+1,,AUTO
        15 001701   200116 630500                    EPPR0   NEW_OFFSET+1,,AUTO
        15 001702   000020 631400 xsym               EPPR1   B_VECTNIL+16
        15 001703   000000 701000 xent               TSX1    XUP$BLDSYM
        15 001704   000000 011000                    NOP     0

      667    19120    1      PINCRW(SYM_.NEXT$,-1)->SYM.XR.D='1'B;

  19120 15 001705   001215 470400 1                  LDP0    SYM_+3
        15 001706   400000 236007                    LDQ     -131072,DL
        15 001707   077777 256100                    ORSQ    -1,,PR0

      668    19121    1      IF SYM.DEF THEN CALL ERROR(0);

  19121 15 001710   001214 470400 1                  LDP0    SYM_+2
        15 001711   000001 234100                    SZN     1,,PR0
        15 001712   001717 605000 15                 TPL     s:19122

  19121 15 001713   000032 236000 16                 LDQ     26
        15 001714   200105 756100                    STQ     TRASH_NAME+9,,AUTO
        15 001715   002363 701000 15                 TSX1    ERROR
        15 001716   000000 011000                    NOP     0

      669    19122    1      SYM.DEF='1'B;

  19122 15 001717   001214 470400 1                  LDP0    SYM_+2
PL6.E3A0      #001=XUP$PARTRGE File=XUP$PARTRGE.:E05TSI                          WED 07/30/97 09:39 Page:111
        15 001720   400000 236003                    LDQ     -131072,DU
        15 001721   000001 256100                    ORSQ    1,,PR0

      670    19123    1      NODECODE='0'B;

  19123 15 001722   000000 235003                    LDA     0,DU
        15 001723   000000 236003                    LDQ     0,DU
        15 001724   001216 757000 1                  STAQ    NODECODE

      671    19124    2      IF OUT$BLK.NSUBLKS=3 THEN DO;

  19124 15 001725   200004 470500                    LDP0    BLK$,,AUTO
        15 001726   000001 220100                    LDX0    1,,PR0
        15 001727   000003 100003                    CMPX0   3,DU
        15 001730   001742 601000 15                 TNZ     s:19128

      672    19125    2         CALL XUP$BLDOPT(OUT$BLK.SUBLK$(1)->DATA);

  19125 15 001731   000004 471500                    LDP1    4,,PR0
        15 001732   200116 451500                    STP1    NEW_OFFSET+1,,AUTO
        15 001733   200116 630500                    EPPR0   NEW_OFFSET+1,,AUTO
        15 001734   000017 631400 xsym               EPPR1   B_VECTNIL+15
        15 001735   000000 701000 xent               TSX1    XUP$BLDOPT
        15 001736   000000 011000                    NOP     0

      673    19126    2         BLK$=PINCRW(BLK$,1);

  19126 15 001737   200004 236100                    LDQ     BLK$,,AUTO
        15 001740   000001 036003                    ADLQ    1,DU
        15 001741   200004 756100                    STQ     BLK$,,AUTO

      674    19127    2         END;

      675    19128    1      CALL XUP$BLDNODE(OUT$BLK.SUBLK$(1)->DATA,SYM.NODE$)

  19128 15 001742   200004 470500                    LDP0    BLK$,,AUTO
        15 001743   000004 471500                    LDP1    4,,PR0
PL6.E3A0      #001=XUP$PARTRGE File=XUP$PARTRGE.:E05TSI                          WED 07/30/97 09:39 Page:112
        15 001744   001214 236000 1                  LDQ     SYM_+2
        15 001745   200117 756100                    STQ     NEW_OFFSET+2,,AUTO
        15 001746   200116 451500                    STP1    NEW_OFFSET+1,,AUTO
        15 001747   200116 630500                    EPPR0   NEW_OFFSET+1,,AUTO
        15 001750   000020 631400 xsym               EPPR1   B_VECTNIL+16
        15 001751   000000 701000 xent               TSX1    XUP$BLDNODE
        15 001752   001754 702000 15                 TSX2    s:19130
        15 001753   001763 710000 15                 TRA     s:19134

      676    19129    2      WHENALTRETURN DO; /* XTERNAL definition */

      677    19130    2         SYM.XPREF = '1'B;

  19130 15 001754   001214 470400 1                  LDP0    SYM_+2
        15 001755   040000 236003                    LDQ     16384,DU
        15 001756   000001 256100                    ORSQ    1,,PR0

      678    19131    2         SYM.NODE$ = ADDR(NIL);

  19131 15 001757   000001 236000 xsym               LDQ     B_VECTNIL+1
        15 001760   001214 470400 1                  LDP0    SYM_+2
        15 001761   000000 756100                    STQ     0,,PR0

      679    19132    2         GOTO NEXT;

  19132 15 001762   001130 710000 15                 TRA     NEXT

      680    19133    2         END;
      681    19134    1      IF FIRST_SYM$ = ADDR(NIL) THEN

  19134 15 001763   001433 236000 1                  LDQ     FIRST_SYM$
        15 001764   000001 116000 xsym               CMPQ    B_VECTNIL+1
        15 001765   001770 601000 15                 TNZ     s:19136

      682    19135    1         FIRST_SYM$ = SYM_.P$;

  19135 15 001766   001214 236000 1                  LDQ     SYM_+2
PL6.E3A0      #001=XUP$PARTRGE File=XUP$PARTRGE.:E05TSI                          WED 07/30/97 09:39 Page:113
        15 001767   001433 756000 1                  STQ     FIRST_SYM$

      683    19136    1      SYM.NODE$ -> NODE.PRE_F = SYM.NODE$ -> NODE.PRE_F | NODECODE.PRE_F;

  19136 15 001770   001214 470400 1                  LDP0    SYM_+2
        15 001771   000000 471500                    LDP1    0,,PR0
        15 001772   001216 236000 1                  LDQ     NODECODE
        15 001773   000003 736000                    QLS     3
        15 001774   400000 376003                    ANQ     -131072,DU
        15 001775   200116 756100                    STQ     NEW_OFFSET+1,,AUTO
        15 001776   100000 236100                    LDQ     0,,PR1
        15 001777   000003 736000                    QLS     3
        15 002000   400000 376003                    ANQ     -131072,DU
        15 002001   200116 276100                    ORQ     NEW_OFFSET+1,,AUTO
        15 002002   000003 772000                    QRL     3
        15 002003   100000 676100                    ERQ     0,,PR1
        15 002004   040000 376003                    ANQ     16384,DU
        15 002005   100000 656100                    ERSQ    0,,PR1

      684    19137    1      SYM.NODE$ -> NODE.SUCC_F = SYM.NODE$ -> NODE.SUCC_F | NODECODE.SUCC_F;

  19137 15 002006   001214 470400 1                  LDP0    SYM_+2
        15 002007   000000 471500                    LDP1    0,,PR0
        15 002010   001216 236000 1                  LDQ     NODECODE
        15 002011   000004 736000                    QLS     4
        15 002012   400000 376003                    ANQ     -131072,DU
        15 002013   200116 756100                    STQ     NEW_OFFSET+1,,AUTO
        15 002014   100000 236100                    LDQ     0,,PR1
        15 002015   000004 736000                    QLS     4
        15 002016   400000 376003                    ANQ     -131072,DU
        15 002017   200116 276100                    ORQ     NEW_OFFSET+1,,AUTO
        15 002020   000004 772000                    QRL     4
        15 002021   100000 676100                    ERQ     0,,PR1
        15 002022   020000 376003                    ANQ     8192,DU
        15 002023   100000 656100                    ERSQ    0,,PR1

      685    19138    1      SYM.NODE$ -> NODE.FAIL_F = SYM.NODE$ -> NODE.FAIL_F | NODECODE.FAIL_F;
PL6.E3A0      #001=XUP$PARTRGE File=XUP$PARTRGE.:E05TSI                          WED 07/30/97 09:39 Page:114

  19138 15 002024   001214 470400 1                  LDP0    SYM_+2
        15 002025   000000 471500                    LDP1    0,,PR0
        15 002026   001216 236000 1                  LDQ     NODECODE
        15 002027   000005 736000                    QLS     5
        15 002030   400000 376003                    ANQ     -131072,DU
        15 002031   200116 756100                    STQ     NEW_OFFSET+1,,AUTO
        15 002032   100000 236100                    LDQ     0,,PR1
        15 002033   000005 736000                    QLS     5
        15 002034   400000 376003                    ANQ     -131072,DU
        15 002035   200116 276100                    ORQ     NEW_OFFSET+1,,AUTO
        15 002036   000005 772000                    QRL     5
        15 002037   100000 676100                    ERQ     0,,PR1
        15 002040   010000 376003                    ANQ     4096,DU
        15 002041   100000 656100                    ERSQ    0,,PR1

      686    19139    1      SYM.NODE$ -> NODE.OUT_F = SYM.NODE$ -> NODE.OUT_F | NODECODE.OUT_F;

  19139 15 002042   001214 470400 1                  LDP0    SYM_+2
        15 002043   000000 471500                    LDP1    0,,PR0
        15 002044   001216 236000 1                  LDQ     NODECODE
        15 002045   000006 736000                    QLS     6
        15 002046   400000 376003                    ANQ     -131072,DU
        15 002047   200116 756100                    STQ     NEW_OFFSET+1,,AUTO
        15 002050   100000 236100                    LDQ     0,,PR1
        15 002051   000006 736000                    QLS     6
        15 002052   400000 376003                    ANQ     -131072,DU
        15 002053   200116 276100                    ORQ     NEW_OFFSET+1,,AUTO
        15 002054   000006 772000                    QRL     6
        15 002055   100000 676100                    ERQ     0,,PR1
        15 002056   004000 376003                    ANQ     2048,DU
        15 002057   100000 656100                    ERSQ    0,,PR1

      687    19140    1      SYM.NODE$ -> NODE.RPEAT = SYM.NODE$ -> NODE.RPEAT | NODECODE.RPEAT;

  19140 15 002060   001214 470400 1                  LDP0    SYM_+2
        15 002061   000000 471500                    LDP1    0,,PR0
PL6.E3A0      #001=XUP$PARTRGE File=XUP$PARTRGE.:E05TSI                          WED 07/30/97 09:39 Page:115
        15 002062   001216 236000 1                  LDQ     NODECODE
        15 002063   000010 736000                    QLS     8
        15 002064   400000 376003                    ANQ     -131072,DU
        15 002065   200116 756100                    STQ     NEW_OFFSET+1,,AUTO
        15 002066   100000 236100                    LDQ     0,,PR1
        15 002067   000010 736000                    QLS     8
        15 002070   400000 376003                    ANQ     -131072,DU
        15 002071   200116 276100                    ORQ     NEW_OFFSET+1,,AUTO
        15 002072   000010 772000                    QRL     8
        15 002073   100000 676100                    ERQ     0,,PR1
        15 002074   001000 376003                    ANQ     512,DU
        15 002075   100000 656100                    ERSQ    0,,PR1

      688    19141    1      SYM.NODE$ -> NODE.SKBL = SYM.NODE$ -> NODE.SKBL | NODECODE.SKBL;

  19141 15 002076   001214 470400 1                  LDP0    SYM_+2
        15 002077   000000 471500                    LDP1    0,,PR0
        15 002100   001216 236000 1                  LDQ     NODECODE
        15 002101   000011 736000                    QLS     9
        15 002102   400000 376003                    ANQ     -131072,DU
        15 002103   200116 756100                    STQ     NEW_OFFSET+1,,AUTO
        15 002104   100000 236100                    LDQ     0,,PR1
        15 002105   000011 736000                    QLS     9
        15 002106   400000 376003                    ANQ     -131072,DU
        15 002107   200116 276100                    ORQ     NEW_OFFSET+1,,AUTO
        15 002110   000011 772000                    QRL     9
        15 002111   100000 676100                    ERQ     0,,PR1
        15 002112   000400 376003                    ANQ     256,DU
        15 002113   100000 656100                    ERSQ    0,,PR1

      689    19142    1      SYM.NODE$ -> NODE.RTEXT = SYM.NODE$ -> NODE.RTEXT | NODECODE.RTEXT;

  19142 15 002114   001214 470400 1                  LDP0    SYM_+2
        15 002115   000000 471500                    LDP1    0,,PR0
        15 002116   001216 236000 1                  LDQ     NODECODE
        15 002117   000012 736000                    QLS     10
        15 002120   400000 376003                    ANQ     -131072,DU
PL6.E3A0      #001=XUP$PARTRGE File=XUP$PARTRGE.:E05TSI                          WED 07/30/97 09:39 Page:116
        15 002121   200116 756100                    STQ     NEW_OFFSET+1,,AUTO
        15 002122   100000 236100                    LDQ     0,,PR1
        15 002123   000012 736000                    QLS     10
        15 002124   400000 376003                    ANQ     -131072,DU
        15 002125   200116 276100                    ORQ     NEW_OFFSET+1,,AUTO
        15 002126   000012 772000                    QRL     10
        15 002127   100000 676100                    ERQ     0,,PR1
        15 002130   000200 376003                    ANQ     128,DU
        15 002131   100000 656100                    ERSQ    0,,PR1

      690    19143    1      IF SYM.NODE$ -> NODE.RTEXT AND SYM.NODE$ -> NODE.TYPE = %TYPE_LIST#

  19143 15 002132   001214 470400 1                  LDP0    SYM_+2
        15 002133   000000 471500                    LDP1    0,,PR0
        15 002134   100000 236100                    LDQ     0,,PR1
        15 002135   000200 316003                    CANQ    128,DU
        15 002136   002147 600000 15                 TZE     s:19146
        15 002137   100000 236100                    LDQ     0,,PR1
        15 002140   700000 376003                    ANQ     -32768,DU
        15 002141   300000 116003                    CMPQ    98304,DU
        15 002142   002147 601000 15                 TNZ     s:19146

      691    19144    1      THEN
      692    19145    1         CALL ERROR(7);

  19145 15 002143   000033 236000 16                 LDQ     27
        15 002144   200105 756100                    STQ     TRASH_NAME+9,,AUTO
        15 002145   002363 701000 15                 TSX1    ERROR
        15 002146   000000 011000                    NOP     0

      693    19146    1      SYM.NODE$ -> NODE.CODE = NODECODE.CODE;

  19146 15 002147   001214 470400 1                  LDP0    SYM_+2
        15 002150   000000 471500                    LDP1    0,,PR0
        15 002151   001216 236000 1                  LDQ     NODECODE
        15 002152   100000 676100                    ERQ     0,,PR1
        15 002153   177777 376007                    ANQ     65535,DL
PL6.E3A0      #001=XUP$PARTRGE File=XUP$PARTRGE.:E05TSI                          WED 07/30/97 09:39 Page:117
        15 002154   100000 656100                    ERSQ    0,,PR1

      694    19147    1      IF NODECODE.NOUT_F

  19147 15 002155   001217 234000 1                  SZN     NODECODE+1
        15 002156   002163 605000 15                 TPL     s:19150

      695    19148    1      THEN
      696    19149    1         SYM.NODE$ -> NODE.OUT_F = '0'B;

  19149 15 002157   001214 470400 1                  LDP0    SYM_+2
        15 002160   000000 471500                    LDP1    0,,PR0
        15 002161   000034 236000 16                 LDQ     28
        15 002162   100000 356100                    ANSQ    0,,PR1

      697    19150    2      DO CASE (SYM.NODE$ -> NODE.TYPE);

  19150 15 002163   001214 470400 1                  LDP0    SYM_+2
        15 002164   000000 471500                    LDP1    0,,PR0
        15 002165   100000 236100                    LDQ     0,,PR1
        15 002166   000041 772000                    QRL     33
        15 002167   000005 136007                    SBLQ    5,DL
        15 002170   000002 116007                    CMPQ    2,DL
        15 002171   002173 602006 15                 TNC     s:19150+8,QL
        15 002172   002227 710000 15                 TRA     s:19156
        15 002173   002175 710000 15                 TRA     s:19152
        15 002174   002212 710000 15                 TRA     s:19154

      698    19151    2      CASE (%TYPE_LITERAL#);

      699    19152    2         SYM.NODE$ -> NODEL.UPRLOWR = SYM.NODE$->NODEL.UPRLOWR | NODECODE.UPRLOWR;

  19152 15 002175   001216 236000 1                  LDQ     NODECODE
        15 002176   000013 736000                    QLS     11
        15 002177   400000 376003                    ANQ     -131072,DU
        15 002200   200116 756100                    STQ     NEW_OFFSET+1,,AUTO
        15 002201   100000 236100                    LDQ     0,,PR1
PL6.E3A0      #001=XUP$PARTRGE File=XUP$PARTRGE.:E05TSI                          WED 07/30/97 09:39 Page:118
        15 002202   000013 736000                    QLS     11
        15 002203   400000 376003                    ANQ     -131072,DU
        15 002204   200116 276100                    ORQ     NEW_OFFSET+1,,AUTO
        15 002205   000013 772000                    QRL     11
        15 002206   100000 676100                    ERQ     0,,PR1
        15 002207   000100 376003                    ANQ     64,DU
        15 002210   100000 656100                    ERSQ    0,,PR1
        15 002211   002236 710000 15                 TRA     s:19160

      700    19153    2      CASE (%TYPE_LEXEME#);

      701    19154    2         SYM.NODE$ -> NODES.MAKEUC = SYM.NODE$ -> NODES.MAKEUC | NODECODE.MAKEUC;

  19154 15 002212   001216 236000 1                  LDQ     NODECODE
        15 002213   000013 736000                    QLS     11
        15 002214   400000 376003                    ANQ     -131072,DU
        15 002215   200116 756100                    STQ     NEW_OFFSET+1,,AUTO
        15 002216   100000 236100                    LDQ     0,,PR1
        15 002217   000013 736000                    QLS     11
        15 002220   400000 376003                    ANQ     -131072,DU
        15 002221   200116 276100                    ORQ     NEW_OFFSET+1,,AUTO
        15 002222   000013 772000                    QRL     11
        15 002223   100000 676100                    ERQ     0,,PR1
        15 002224   000100 376003                    ANQ     64,DU
        15 002225   100000 656100                    ERSQ    0,,PR1
        15 002226   002236 710000 15                 TRA     s:19160

      702    19155    2      CASE (ELSE);

      703    19156    2         IF NODECODE.MAKEUC

  19156 15 002227   001216 236000 1                  LDQ     NODECODE
        15 002230   000100 316003                    CANQ    64,DU
        15 002231   002236 600000 15                 TZE     s:19160

      704    19157    2         THEN
      705    19158    2            CALL ERROR(8);
PL6.E3A0      #001=XUP$PARTRGE File=XUP$PARTRGE.:E05TSI                          WED 07/30/97 09:39 Page:119

  19158 15 002232   000035 236000 16                 LDQ     29
        15 002233   200105 756100                    STQ     TRASH_NAME+9,,AUTO
        15 002234   002363 701000 15                 TSX1    ERROR
        15 002235   000000 011000                    NOP     0

      706    19159    2      END;

      707    19160    2      IF SYM.NODE$=NODE_.FIRST$ THEN DO;

  19160 15 002236   001214 470400 1                  LDP0    SYM_+2
        15 002237   000000 236100                    LDQ     0,,PR0
        15 002240   001207 116000 1                  CMPQ    NODE_+1
        15 002241   002244 601000 15                 TNZ     s:19163

      708    19161    2         SYM.X='1'B;

  19161 15 002242   100000 236003                    LDQ     32768,DU
        15 002243   000001 256100                    ORSQ    1,,PR0

      709    19162    2         END;

      710    19163    1      GOTO NEXT;

  19163 15 002244   001130 710000 15                 TRA     NEXT

      711    19164    1   PARSERR: I=P_PCB.ERROR.CODE;

  19164 15 002245   000046 236000 1     PARSERR      LDQ     P_PCB+6
        15 002246   000003 772000                    QRL     3
        15 002247   037777 376007                    ANQ     16383,DL
        15 002250   200006 756100                    STQ     I,,AUTO

      712    19165    1      ERCODE=P_PCB.ERROR;

  19165 15 002251   000046 236000 1                  LDQ     P_PCB+6
        15 002252   001435 756000 1                  STQ     ABORT
PL6.E3A0      #001=XUP$PARTRGE File=XUP$PARTRGE.:E05TSI                          WED 07/30/97 09:39 Page:120

      713    19166    1      EFPT.V.DCB#=0;

  19166 15 002253   000000 220003                    LDX0    0,DU
        15 002254   000416 740000 1                  STX0    EFPT+22

      714    19167    2      IF I=%E$SMALLWORK OR I=%E$WKOVERFLOW THEN DO;

  19167 15 002255   200006 235100                    LDA     I,,AUTO
        15 002256   000005 115007                    CMPA    5,DL
        15 002257   002262 600000 15                 TZE     s:19168
        15 002260   000004 115007                    CMPA    4,DL
        15 002261   002275 601000 15                 TNZ     s:19173

      715    19168    2         CALL M$GDS(WORKFPT) ALTRET(MONERR);

  19168 15 002262   000362 630400 1                  EPPR0   WORKFPT
        15 002263   430001 713400                    CLIMB   alt,gds
        15 002264   400400 401760                    pmme    nvectors=2
        15 002265   002672 702000 15                 TSX2    MONERR

      716    19169    2         CALL M$GDS(WORKFPT);

  19169 15 002266   000362 630400 1                  EPPR0   WORKFPT
        15 002267   030001 713400                    CLIMB   gds
        15 002270   400400 401760                    pmme    nvectors=2

      717    19170    2         CALL M$GDS(WORKFPT);

  19170 15 002271   000362 630400 1                  EPPR0   WORKFPT
        15 002272   030001 713400                    CLIMB   gds
        15 002273   400400 401760                    pmme    nvectors=2

      718    19171    2         GOTO NEWPARSE;

  19171 15 002274   001603 710000 15                 TRA     NEWPARSE

PL6.E3A0      #001=XUP$PARTRGE File=XUP$PARTRGE.:E05TSI                          WED 07/30/97 09:39 Page:121
      719    19172    2         END;
      720    19173    1      IF I~=1 THEN I=1;

  19173 15 002275   000001 115007                    CMPA    1,DL
        15 002276   002302 600000 15                 TZE     SYNERR

  19173 15 002277   000001 235007                    LDA     1,DL
        15 002300   200006 755100                    STA     I,,AUTO
        15 002301   002354 710000 15                 TRA     s:19181

      721    19174    2      ELSE DO;

      722    19175    2   SYNERR: IF P_PCB.HI_CHAR<9 OR P_PCB.NCHARS<15 THEN I=0;

  19175 15 002302   000052 235000 1     SYNERR       LDA     P_PCB+10
        15 002303   000011 115007                    CMPA    9,DL
        15 002304   002310 602000 15                 TNC     s:19175
        15 002305   000051 236000 1                  LDQ     P_PCB+9
        15 002306   000017 116007                    CMPQ    15,DL
        15 002307   002312 603000 15                 TRC     s:19176

  19175 15 002310   200006 450100                    STZ     I,,AUTO
        15 002311   002314 710000 15                 TRA     s:19177

      723    19176    2         ELSE I=P_PCB.HI_CHAR-9;

  19176 15 002312   000011 135007                    SBLA    9,DL
        15 002313   200006 755100                    STA     I,,AUTO

      724    19177    2         CALL CONCAT(SYNMSG.TXT,SUBSTR(P_PCB.TEXT$->CHARI,I,P_PCB.HI_CHAR-I),

  19177 15 002314   000052 236000 1                  LDQ     P_PCB+10
        15 002315   200006 136100                    SBLQ    I,,AUTO
        15 002316   200116 756100                    STQ     NEW_OFFSET+1,,AUTO
        15 002317   000051 236000 1                  LDQ     P_PCB+9
        15 002320   000052 136000 1                  SBLQ    P_PCB+10
        15 002321   000040 470400 1                  LDP0    P_PCB
PL6.E3A0      #001=XUP$PARTRGE File=XUP$PARTRGE.:E05TSI                          WED 07/30/97 09:39 Page:122
        15 002322   200116 720100                    LXL0    NEW_OFFSET+1,,AUTO
        15 002323   200006 235100                    LDA     I,,AUTO
        15 002324   040000 100545                    MLR     fill='040'O
        15 002325   000000 000010                    ADSC9   0,A,PR0                  cn=0,n=*X0
        15 002326   001406 200024 1                  ADSC9   SYNMSG+6                 cn=1,n=20
        15 002327   200117 756100                    STQ     NEW_OFFSET+2,,AUTO
        15 002330   200116 236100                    LDQ     NEW_OFFSET+1,,AUTO
        15 002331   000024 116007                    CMPQ    20,DL
        15 002332   002352 605000 15                 TPL     s:19179
        15 002333   777753 621006                    EAX1    -21,QL
        15 002334   777777 661003                    ERX1    -1,DU
        15 002335   040046 100400                    MLR     fill='040'O
        15 002336   001404 200003 1                  ADSC9   SYNMSG+4                 cn=1,n=3
        15 002337   001406 200011 1                  ADSC9   SYNMSG+6,Q               cn=1,n=*X1
        15 002340   000021 116007                    CMPQ    17,DL
        15 002341   002352 605000 15                 TPL     s:19179
        15 002342   777756 622006                    EAX2    -18,QL
        15 002343   777777 662003                    ERX2    -1,DU
        15 002344   000040 470400 1                  LDP0    P_PCB
        15 002345   200117 723100                    LXL3    NEW_OFFSET+2,,AUTO
        15 002346   000052 235000 1                  LDA     P_PCB+10
        15 002347   040046 100545                    MLR     fill='040'O
        15 002350   000000 000013                    ADSC9   0,A,PR0                  cn=0,n=*X3
        15 002351   001407 000012 1                  ADSC9   SYNMSG+7,Q               cn=0,n=*X2

      725    19178    2          SYNMSG.AT,SUBSTR(P_PCB.TEXT$->CHARI,P_PCB.HI_CHAR,P_PCB.NCHARS-P_PCB.HI_CHAR
             19178                    ));
      726    19179    2         I=3;

  19179 15 002352   000003 235007                    LDA     3,DL
        15 002353   200006 755100                    STA     I,,AUTO

      727    19180    2         END;

      728    19181    1      CALL ERROR(I);

  19181 15 002354   200006 630500                    EPPR0   I,,AUTO
PL6.E3A0      #001=XUP$PARTRGE File=XUP$PARTRGE.:E05TSI                          WED 07/30/97 09:39 Page:123
        15 002355   200105 450500                    STP0    TRASH_NAME+9,,AUTO
        15 002356   002363 701000 15                 TSX1    ERROR
        15 002357   000000 011000                    NOP     0

      729    19182    1      IF LINE#=0 THEN GOTO SHUT_DOWN_IMMEDIATELY;

  19182 15 002360   001414 235000 1                  LDA     LINE#
        15 002361   006246 600000 15                 TZE     SHUT_DOWN_IMMEDIATELY

      730    19183    1      GOTO NEXT;

  19183 15 002362   001130 710000 15                 TRA     NEXT

      731    19184        %EJECT;
PL6.E3A0      #001=XUP$PARTRGE File=XUP$PARTRGE.:E05TSI                          WED 07/30/97 09:39 Page:124
      732    19185    1   ERROR: PROC(E#);

  19185 15 002363   200104 741300       ERROR        STX1  ! TRASH_NAME+8,,AUTO

      733    19186    2   DCL MSG CHAR(99)BASED(LOFPT.BUF_.BUF$);
      734    19187    2   DCL E# UBIN;
      735    19188    2   DCL IS_LAST_LINE BIT (1);
      736    19189    2      IS_LAST_LINE = '0'B;

  19189 15 002364   200106 450100                    STZ     IS_LAST_LINE,,AUTO

      737    19190    2      TEXT.T = ' *** At ';

  19190 15 002365   040000 100400                    MLR     fill='040'O
        15 002366   000460 000010 2                  ADSC9   ONE_BLANK+10             cn=0,n=8
        15 002367   000002 000170 1                  ADSC9   TEXT+2                   cn=0,n=120

      738    19191    2      IF E# ~= 4 AND E# ~= 2

  19191 15 002370   200105 470500                    LDP0    @E#,,AUTO
        15 002371   000000 235100                    LDA     0,,PR0
        15 002372   000004 115007                    CMPA    4,DL
        15 002373   002401 600000 15                 TZE     s:19194
        15 002374   000002 115007                    CMPA    2,DL
        15 002375   002401 600000 15                 TZE     s:19194

      739    19192    2      THEN
      740    19193    2         ERROR_COUNT = ERROR_COUNT + 1;

  19193 15 002376   001330 236000 1                  LDQ     ERROR_COUNT
        15 002377   000001 036007                    ADLQ    1,DL
        15 002400   001330 756000 1                  STQ     ERROR_COUNT

      741    19194    2      LOFPT.BUF_=ERRVEC(1);

  19194 15 002401   000356 237000 2                  LDAQ    ERRVEC+2
        15 002402   000100 757000 1                  STAQ    LOFPT+4
PL6.E3A0      #001=XUP$PARTRGE File=XUP$PARTRGE.:E05TSI                          WED 07/30/97 09:39 Page:125

      742    19195    3      IF LINE#~=0 THEN DO;

  19195 15 002403   001414 235000 1                  LDA     LINE#
        15 002404   002552 600000 15                 TZE     ERROR1

      743    19196    3         J=0;

  19196 15 002405   200007 450100                    STZ     J,,AUTO

      744    19197    4         DO WHILE(LINES.CPOS(J)<P_PCB.HI_CHAR);

  19197 15 002406   200007 235100                    LDA     J,,AUTO
        15 002407   000001 735000                    ALS     1
        15 002410   001204 471400 1                  LDP1    WORK_+2
        15 002411   100000 236105                    LDQ     0,AL,PR1
        15 002412   000022 772000                    QRL     18
        15 002413   000052 116000 1                  CMPQ    P_PCB+10
        15 002414   002425 603000 15                 TRC     s:19200

      745    19198    4            J=J+1;

  19198 15 002415   200007 054100                    AOS     J,,AUTO

      746    19199    4            END;

  19199 15 002416   200007 235100                    LDA     J,,AUTO
        15 002417   000001 735000                    ALS     1
        15 002420   001204 470400 1                  LDP0    WORK_+2
        15 002421   000000 236105                    LDQ     0,AL,PR0
        15 002422   000022 772000                    QRL     18
        15 002423   000052 116000 1                  CMPQ    P_PCB+10
        15 002424   002415 602000 15                 TNC     s:19198

      747    19200    3         IF J = LINE# - 1

  19200 15 002425   001414 236000 1                  LDQ     LINE#
PL6.E3A0      #001=XUP$PARTRGE File=XUP$PARTRGE.:E05TSI                          WED 07/30/97 09:39 Page:126
        15 002426   000001 136007                    SBLQ    1,DL
        15 002427   200007 116100                    CMPQ    J,,AUTO
        15 002430   002433 601000 15                 TNZ     s:19203

      748    19201    3         THEN
      749    19202    3            IS_LAST_LINE = '1'B;

  19202 15 002431   400000 236003                    LDQ     -131072,DU
        15 002432   200106 756100                    STQ     IS_LAST_LINE,,AUTO

      750    19203    3         CALL BINCHAR(TEXT.M.L#,LINES.L#(J));

  19203 15 002433   001204 470400 1                  LDP0    WORK_+2
        15 002434   000000 236105                    LDQ     0,AL,PR0
        15 002435   777777 376007                    ANQ     -1,DL
        15 002436   000000 235003                    LDA     0,DU
        15 002437   200116 757100                    STAQ    NEW_OFFSET+1,,AUTO
        15 002440   000000 301500                    BTD
        15 002441   200116 000010                    NDSC9   NEW_OFFSET+1,,AUTO       cn=0,s=lsgnf,sf=0,n=8
        15 002442   000004 030010 1                  NDSC9   TEXT+4                   cn=0,s=nosgn,sf=0,n=8

      751    19204    3         CALL EDITSTR(TEXT.M.L#,0,7,'107'O,TEXT.M.L#);

  19204 15 002443   000000 020400                    MVE
        15 002444   000004 000010 1                  ADSC9   TEXT+4                   cn=0,n=8
        15 002445   000036 000001 16                 ADSC9   30                       cn=0,n=1
        15 002446   000004 000007 1                  ADSC9   TEXT+4                   cn=0,n=7

      752    19205    3         TEXT.M.LP='(';

  19205 15 002447   050040 220003                    LDX0    20512,DU
        15 002450   000006 740000 1                  STX0    TEXT+6

      753    19206    4         IF LINES.S#(J)<0 THEN DO;

  19206 15 002451   200007 236100                    LDQ     J,,AUTO
        15 002452   000001 736000                    QLS     1
PL6.E3A0      #001=XUP$PARTRGE File=XUP$PARTRGE.:E05TSI                          WED 07/30/97 09:39 Page:127
        15 002453   000001 236106                    LDQ     1,QL,PR0
        15 002454   000037 376000 16                 ANQ     31
        15 002455   000000 116003                    CMPQ    0,DU
        15 002456   002504 605000 15                 TPL     s:19213

      754    19207    4            TEXT.M.DOT=LINES.UPC(J);

  19207 15 002457   200007 236100                    LDQ     J,,AUTO
        15 002460   000001 736000                    QLS     1
        15 002461   000001 236106                    LDQ     1,QL,PR0
        15 002462   000007 552004 1                  STBQ    TEXT+7,'04'O

      755    19208    4            J=-LINES.S#(J);

  19208 15 002463   200007 236100                    LDQ     J,,AUTO
        15 002464   000001 736000                    QLS     1
        15 002465   000001 236106                    LDQ     1,QL,PR0
        15 002466   000011 732000                    QRS     9
        15 002467   000027 676000 xsym               ERQ     B_VECTNIL+23
        15 002470   000001 036007                    ADLQ    1,DL
        15 002471   200007 756100                    STQ     J,,AUTO

      756    19209    4            IF TEXT.M.DOT=' ' THEN TEXT.M.DOT=')';

  19209 15 002472   000007 236000 1                  LDQ     TEXT+7
        15 002473   000777 376007                    ANQ     511,DL
        15 002474   000040 116007                    CMPQ    32,DL
        15 002475   002501 601000 15                 TNZ     s:19210

  19209 15 002476   000051 236007                    LDQ     41,DL
        15 002477   000007 552004 1                  STBQ    TEXT+7,'04'O
        15 002500   002542 710000 15                 TRA     s:19220

      757    19210    4            ELSE TEXT.M.SD#=')';

  19210 15 002501   000040 236000 16                 LDQ     32
        15 002502   000010 552070 1                  STBQ    TEXT+8,'70'O
PL6.E3A0      #001=XUP$PARTRGE File=XUP$PARTRGE.:E05TSI                          WED 07/30/97 09:39 Page:128

      758    19211    4            END;

  19211 15 002503   002542 710000 15                 TRA     s:19220

      759    19212    4         ELSE DO;

      760    19213    4            CALL INSERT(TEXT.M.RP,0,2,LINES.UPC(J),')');

  19213 15 002504   200007 236100                    LDQ     J,,AUTO
        15 002505   000001 736000                    QLS     1
        15 002506   000001 236106                    LDQ     1,QL,PR0
        15 002507   000010 552004 1                  STBQ    TEXT+8,'04'O
        15 002510   051000 236003                    LDQ     20992,DU
        15 002511   000011 552040 1                  STBQ    TEXT+9,'40'O

      761    19214    4            J=LINES.S#(J);

  19214 15 002512   200007 235100                    LDA     J,,AUTO
        15 002513   000001 735000                    ALS     1
        15 002514   001204 470400 1                  LDP0    WORK_+2
        15 002515   000001 236105                    LDQ     1,AL,PR0
        15 002516   000011 732000                    QRS     9
        15 002517   200007 756100                    STQ     J,,AUTO

      762    19215    4            IF SUBSTR(TEXT.M.RP,0,2)=' )' THEN TEXT.M.RP=')';

  19215 15 002520   040000 106400                    CMPC    fill='040'O
        15 002521   000010 600002 1                  ADSC9   TEXT+8                   cn=3,n=2
        15 002522   000462 000002 2                  ADSC9   ONE_BLANK+12             cn=0,n=2
        15 002523   002527 601000 15                 TNZ     s:19216

  19215 15 002524   040000 100400                    MLR     fill='040'O
        15 002525   000041 000001 16                 ADSC9   33                       cn=0,n=1
        15 002526   000010 600135 1                  ADSC9   TEXT+8                   cn=3,n=93

      763    19216    4            TEXT.M.DOT='.';
PL6.E3A0      #001=XUP$PARTRGE File=XUP$PARTRGE.:E05TSI                          WED 07/30/97 09:39 Page:129

  19216 15 002527   000056 236007                    LDQ     46,DL
        15 002530   000007 552004 1                  STBQ    TEXT+7,'04'O

      764    19217    4            CALL BINCHAR(TEXT.M.SD#,MOD(J,1000));

  19217 15 002531   200007 236100                    LDQ     J,,AUTO
        15 002532   001750 506007                    DIV     1000,DL
        15 002533   200116 755100                    STA     NEW_OFFSET+1,,AUTO
        15 002534   000000 301500                    BTD
        15 002535   200116 000004                    NDSC9   NEW_OFFSET+1,,AUTO       cn=0,s=lsgnf,sf=0,n=4
        15 002536   000010 030003 1                  NDSC9   TEXT+8                   cn=0,s=nosgn,sf=0,n=3

      765    19218    4            J=J/1000;

  19218 15 002537   200007 236100                    LDQ     J,,AUTO
        15 002540   001750 506007                    DIV     1000,DL
        15 002541   200007 756100                    STQ     J,,AUTO

      766    19219    4            END;

      767    19220    3         CALL BINCHAR(TEXT.M.S#,J);

  19220 15 002542   000000 301500                    BTD
        15 002543   200007 000004                    NDSC9   J,,AUTO                  cn=0,s=lsgnf,sf=0,n=4
        15 002544   000006 430005 1                  NDSC9   TEXT+6                   cn=2,s=nosgn,sf=0,n=5

      768    19221    3         CALL EDITSTR(TEXT.M.S#,0,4,'104'O,TEXT.M.S#);

  19221 15 002545   000000 020400                    MVE
        15 002546   000006 400005 1                  ADSC9   TEXT+6                   cn=2,n=5
        15 002547   000042 000001 16                 ADSC9   34                       cn=0,n=1
        15 002550   000006 400004 1                  ADSC9   TEXT+6                   cn=2,n=4

      769    19222    3         END;

  19222 15 002551   002571 710000 15                 TRA     ERROR2
PL6.E3A0      #001=XUP$PARTRGE File=XUP$PARTRGE.:E05TSI                          WED 07/30/97 09:39 Page:130

      770    19223    3      ELSE DO;

  19221 15 002552                       ERROR1       null
      771    19224    3   ERROR1:;
      772    19225    3         LOFPT.BUF_=ERRVEC(E#);

  19225 15 002552   200105 470500                    LDP0    @E#,,AUTO
        15 002553   000000 720100                    LXL0    0,,PR0
        15 002554   000000 635010                    EAA     0,X0
        15 002555   000021 771000                    ARL     17
        15 002556   000354 237005 2                  LDAQ    ERRVEC,AL
        15 002557   000100 757000 1                  STAQ    LOFPT+4

      773    19226    3         ERCODE.SEV=0;

  19226 15 002560   000043 236000 16                 LDQ     35
        15 002561   001435 356000 1                  ANSQ    ABORT

      774    19227    3         IF E#=1 THEN CALL M$ERRMSG(EFPT)ALTRET(ERROR2);

  19227 15 002562   000000 235100                    LDA     0,,PR0
        15 002563   000001 115007                    CMPA    1,DL
        15 002564   002571 601000 15                 TNZ     ERROR2

  19227 15 002565   000370 630400 1                  EPPR0   EFPT
        15 002566   420000 713400                    CLIMB   alt,+8192
        15 002567   405000 401760                    pmme    nvectors=11
        15 002570   002571 702000 15                 TSX2    ERROR2

  19227 15 002571                       ERROR2       null
      775    19228    3   ERROR2:;
      776    19229    3         END;

      777    19230    3      DO WHILE(SUBSTR(MSG,LOFPT.BUF_.BOUND,1)=' '

  19230 15 002571   002601 710000 15                 TRA     s:19233
PL6.E3A0      #001=XUP$PARTRGE File=XUP$PARTRGE.:E05TSI                          WED 07/30/97 09:39 Page:131

      778    19231    3        AND LOFPT.BUF_.BOUND~=0);
      779    19232    3         LOFPT.BUF_.BOUND=LOFPT.BUF_.BOUND-1;

  19232 15 002572   000100 236000 1                  LDQ     LOFPT+4
        15 002573   000020 772000                    QRL     16
        15 002574   000001 136007                    SBLQ    1,DL
        15 002575   000020 736000                    QLS     16
        15 002576   000100 676000 1                  ERQ     LOFPT+4
        15 002577   000034 376000 xsym               ANQ     B_VECTNIL+28
        15 002600   000100 656000 1                  ERSQ    LOFPT+4

      780    19233    3         END;

  19233 15 002601   000100 236000 1                  LDQ     LOFPT+4
        15 002602   000020 772000                    QRL     16
        15 002603   000101 470400 1                  LDP0    LOFPT+5
        15 002604   040000 106506                    CMPC    fill='040'O
        15 002605   000000 000001                    ADSC9   0,Q,PR0                  cn=0,n=1
        15 002606   000035 000001 xsym               ADSC9   B_VECTNIL+29             cn=0,n=1
        15 002607   002613 601000 15                 TNZ     s:19234
        15 002610   000100 236000 1                  LDQ     LOFPT+4
        15 002611   000034 316000 xsym               CANQ    B_VECTNIL+28
        15 002612   002572 601000 15                 TNZ     s:19232

      781    19234    3      IF B$JIT.PRFLAGS.LIST THEN DO;

  19234 15 002613   000000 471400 xsym               LDP1    B$JIT$
        15 002614   100030 236100                    LDQ     24,,PR1
        15 002615   010000 316003                    CANQ    4096,DU
        15 002616   002644 600000 15                 TZE     s:19245

      782    19235    3         IF NOT (IS_LAST_LINE AND PP.LS AND LOFPT.BUF_.BUF$ = ADDR(TEXT.T))

  19235 15 002617   200106 234100                    SZN     IS_LAST_LINE,,AUTO
        15 002620   002626 605000 15                 TPL     s:19237
        15 002621   001416 235000 1                  LDA     PP+1
PL6.E3A0      #001=XUP$PARTRGE File=XUP$PARTRGE.:E05TSI                          WED 07/30/97 09:39 Page:132
        15 002622   002626 600000 15                 TZE     s:19237
        15 002623   000044 236000 16                 LDQ     36
        15 002624   000101 116000 1                  CMPQ    LOFPT+5
        15 002625   002640 600000 15                 TZE     s:19243

      783    19236    4         THEN DO;

      784    19237    4            IF NOT (LAST_LINE_WAS_DIAGNOSTIC)

  19237 15 002626   200063 234100                    SZN     LAST_LINE_WAS_DIAGNOSTIC,,AUTO
        15 002627   002633 604000 15                 TMI     s:19240

      785    19238    4            THEN
      786    19239    4               CALL M$WRITE (WRITE_BLANK);

  19239 15 002630   000000 630400 2                  EPPR0   WRITE_BLANK
        15 002631   040001 713400                    CLIMB   write
        15 002632   401400 401760                    pmme    nvectors=4

      787    19240    4            CALL M$WRITE (LOFPT);

  19240 15 002633   000074 630400 1                  EPPR0   LOFPT
        15 002634   040001 713400                    CLIMB   write
        15 002635   401400 401760                    pmme    nvectors=4

      788    19241    4            LAST_LINE_WAS_DIAGNOSTIC = '1'B;

  19241 15 002636   400000 236003                    LDQ     -131072,DU
        15 002637   200063 756100                    STQ     LAST_LINE_WAS_DIAGNOSTIC,,AUTO

      789    19242    4            END;

      790    19243    3         CALL M$CORRES (CORR) ALTRET (NODO);

  19243 15 002640   000340 630400 2                  EPPR0   CORR
        15 002641   460000 713400                    CLIMB   alt,+24576
        15 002642   400000 401760                    pmme    nvectors=1
PL6.E3A0      #001=XUP$PARTRGE File=XUP$PARTRGE.:E05TSI                          WED 07/30/97 09:39 Page:133
        15 002643   002661 702000 15                 TSX2    NODO

      791    19244    3         END;

      792    19245    2      LOFPT.V.DCB#=DCBNUM(M$DO);

  19245 15 002644   000000 236007 xsym               LDQ     M$DO,DL
        15 002645   000000 620006                    EAX0    0,QL
        15 002646   000104 740000 1                  STX0    LOFPT+8

      793    19246    2      IF B$JIT.PRFLAGS.COMMENT THEN CALL M$WRITE(LOFPT);

  19246 15 002647   000000 470400 xsym               LDP0    B$JIT$
        15 002650   000030 236100                    LDQ     24,,PR0
        15 002651   020000 316003                    CANQ    8192,DU
        15 002652   002656 600000 15                 TZE     s:19247

  19246 15 002653   000074 630400 1                  EPPR0   LOFPT
        15 002654   040001 713400                    CLIMB   write
        15 002655   401400 401760                    pmme    nvectors=4

      794    19247    2      LOFPT.V.DCB#=DCBNUM(M$LO);

  19247 15 002656   000000 236007 xsym               LDQ     M$LO,DL
        15 002657   000000 620006                    EAX0    0,QL
        15 002660   000104 740000 1                  STX0    LOFPT+8

  19247 15 002661                       NODO         null
      795    19248    2   NODO:;
      796    19249    2      IS_LAST_LINE = '0'B;

  19249 15 002661   200106 450100                    STZ     IS_LAST_LINE,,AUTO

      797    19250    2      IF LINE#=0 OR J=0 THEN RETURN ;

  19250 15 002662   001414 235000 1                  LDA     LINE#
        15 002663   002666 600000 15                 TZE     s:19250+4
PL6.E3A0      #001=XUP$PARTRGE File=XUP$PARTRGE.:E05TSI                          WED 07/30/97 09:39 Page:134
        15 002664   200007 236100                    LDQ     J,,AUTO
        15 002665   002670 601000 15                 TNZ     s:19251

  19250 15 002666   200104 221300                    LDX1  ! TRASH_NAME+8,,AUTO
        15 002667   000001 702211                    TSX2  ! 1,X1

      798    19251    2      J=0;

  19251 15 002670   200007 450100                    STZ     J,,AUTO

      799    19252    2      GOTO ERROR1;

  19252 15 002671   002552 710000 15                 TRA     ERROR1

  19252 15 002672                       MONERR       null
      800    19253    2   END ERROR;
      801    19254    1   MONERR:;
      802    19255    1      ERCODE=B$TCB.ALT$->B$ALT.ERR;

  19255 15 002672   000000 470400 xsym               LDP0    B$TCB$
        15 002673   000000 471500                    LDP1    0,,PR0
        15 002674   100102 236100                    LDQ     66,,PR1
        15 002675   001435 756000 1                  STQ     ABORT

      803    19256    1      EFPT.V.DCB#=B$TCB.ALT$->B$ALT.DCB#;

  19256 15 002676   000000 471500                    LDP1    0,,PR0
        15 002677   100101 720100                    LXL0    65,,PR1
        15 002700   000416 740000 1                  STX0    EFPT+22

      804    19257    1      CALL ERROR(1);

  19257 15 002701   000045 236000 16                 LDQ     37
        15 002702   200105 756100                    STQ     TRASH_NAME+9,,AUTO
        15 002703   002363 701000 15                 TSX1    ERROR
        15 002704   000000 011000                    NOP     0

PL6.E3A0      #001=XUP$PARTRGE File=XUP$PARTRGE.:E05TSI                          WED 07/30/97 09:39 Page:135
      805    19258    1      FATAL_ERROR = %YES#;

  19258 15 002705   400000 236003                    LDQ     -131072,DU
        15 002706   001335 756000 1                  STQ     FATAL_ERROR

      806    19259    1      GOTO XUPEXIT;

  19259 15 002707   006111 710000 15                 TRA     XUPEXIT

      807    19260    1   XUU_ERROR:
      808    19261    1      IF OPEN_FILES.SI_ERRCODE

  19261 15 002710   000551 235000 1     XUU_ERROR    LDA     OPEN_FILES+1
        15 002711   002724 600000 15                 TZE     s:19268

      809    19262    2      THEN DO;

      810    19263    2         ERCODE = OPEN_FILES.SI_ERRCODE;

  19263 15 002712   000551 236000 1                  LDQ     OPEN_FILES+1
        15 002713   001435 756000 1                  STQ     ABORT

      811    19264    2         EFPT.V.DCB# = DCBNUM(M$SI);

  19264 15 002714   000000 236007 xsym               LDQ     M$SI,DL
        15 002715   000000 620006                    EAX0    0,QL
        15 002716   000416 740000 1                  STX0    EFPT+22

      812    19265    2         CALL ERROR(1);

  19265 15 002717   000045 236000 16                 LDQ     37
        15 002720   200105 756100                    STQ     TRASH_NAME+9,,AUTO
        15 002721   002363 701000 15                 TSX1    ERROR
        15 002722   000000 011000                    NOP     0

      813    19266    2         END;

PL6.E3A0      #001=XUP$PARTRGE File=XUP$PARTRGE.:E05TSI                          WED 07/30/97 09:39 Page:136
  19266 15 002723   002736 710000 15                 TRA     s:19274

      814    19267    1      ELSE
      815    19268    1         IF OPEN_FILES.UI_ERRCODE

  19268 15 002724   000552 236000 1                  LDQ     OPEN_FILES+2
        15 002725   002736 600000 15                 TZE     s:19274

      816    19269    2         THEN DO;

      817    19270    2            ERCODE = OPEN_FILES.UI_ERRCODE;

  19270 15 002726   001435 756000 1                  STQ     ABORT

      818    19271    2            EFPT.V.DCB# = DCBNUM(M$UI);

  19271 15 002727   000000 236007 xsym               LDQ     M$UI,DL
        15 002730   000000 620006                    EAX0    0,QL
        15 002731   000416 740000 1                  STX0    EFPT+22

      819    19272    2            CALL ERROR (1);

  19272 15 002732   000045 236000 16                 LDQ     37
        15 002733   200105 756100                    STQ     TRASH_NAME+9,,AUTO
        15 002734   002363 701000 15                 TSX1    ERROR
        15 002735   000000 011000                    NOP     0

      820    19273    2            END;

      821    19274    1      FATAL_ERROR = %YES#;

  19274 15 002736   400000 236003                    LDQ     -131072,DU
        15 002737   001335 756000 1                  STQ     FATAL_ERROR

      822    19275    1      GOTO XUPEXIT;

  19275 15 002740   006111 710000 15                 TRA     XUPEXIT
PL6.E3A0      #001=XUP$PARTRGE File=XUP$PARTRGE.:E05TSI                          WED 07/30/97 09:39 Page:137

      823    19276    1   XUO_ERROR_HANDLER:
      824    19277    1      ERCODE = XUO_ERROR_CODE;

  19277 15 002741   001266 236000 1     XUO_ERROR_H* LDQ     XUO_ERROR_CODE
        15 002742   001435 756000 1                  STQ     ABORT

      825    19278    1      IF B$TCB.ALT$ ~= ADDR(NIL)

  19278 15 002743   000000 470400 xsym               LDP0    B$TCB$
        15 002744   000000 236100                    LDQ     0,,PR0
        15 002745   000001 116000 xsym               CMPQ    B_VECTNIL+1
        15 002746   002752 600000 15                 TZE     s:19281

      826    19279    1      THEN
      827    19280    1         EFPT.V.DCB# = B$TCB.ALT$ -> B$ALT.DCB#;

  19280 15 002747   000000 471500                    LDP1    0,,PR0
        15 002750   100101 720100                    LXL0    65,,PR1
        15 002751   000416 740000 1                  STX0    EFPT+22

      828    19281    1      CALL ERROR (1);

  19281 15 002752   000045 236000 16                 LDQ     37
        15 002753   200105 756100                    STQ     TRASH_NAME+9,,AUTO
        15 002754   002363 701000 15                 TSX1    ERROR
        15 002755   000000 011000                    NOP     0

      829    19282    1      FATAL_ERROR = %YES#;

  19282 15 002756   400000 236003                    LDQ     -131072,DU
        15 002757   001335 756000 1                  STQ     FATAL_ERROR

      830    19283    1      GOTO XUPEXIT;

  19283 15 002760   006111 710000 15                 TRA     XUPEXIT

PL6.E3A0      #001=XUP$PARTRGE File=XUP$PARTRGE.:E05TSI                          WED 07/30/97 09:39 Page:138
      831    19284        %EJECT;
PL6.E3A0      #001=XUP$PARTRGE File=XUP$PARTRGE.:E05TSI                          WED 07/30/97 09:39 Page:139
      832    19285    1   NAMEOUT: PROC;

  19285 15 002761   200104 741300       NAMEOUT      STX1  ! TRASH_NAME+8,,AUTO

      833    19286    2      IF C+6+SYM.C>WIDTH THEN CALL WRLO;

  19286 15 002762   001214 470400 1                  LDP0    SYM_+2
        15 002763   000001 236100                    LDQ     1,,PR0
        15 002764   000777 376007                    ANQ     511,DL
        15 002765   200005 036100                    ADLQ    C,,AUTO
        15 002766   000006 036007                    ADLQ    6,DL
        15 002767   002775 604000 15                 TMI     s:19287
        15 002770   001327 116000 1                  CMPQ    WIDTH
        15 002771   002775 602000 15                 TNC     s:19287
        15 002772   002775 600000 15                 TZE     s:19287

  19286 15 002773   003201 701000 15                 TSX1    WRLO
        15 002774   000000 011000                    NOP     0

      834    19287    2      CALL INSERT(TEXT.T,C,5,

  19287 15 002775   001214 470400 1                  LDP0    SYM_+2
        15 002776   000000 236100                    LDQ     0,,PR0
        15 002777   000036 772000                    QRL     30
        15 003000   000007 376007                    ANQ     7,DL
        15 003001   000060 036007                    ADLQ    48,DL
        15 003002   000033 736000                    QLS     27
        15 003003   000027 276000 16                 ORQ     23
        15 003004   200116 756100                    STQ     NEW_OFFSET+1,,AUTO
        15 003005   000000 236100                    LDQ     0,,PR0
        15 003006   000033 772000                    QRL     27
        15 003007   000007 376007                    ANQ     7,DL
        15 003010   000060 036007                    ADLQ    48,DL
        15 003011   000033 736000                    QLS     27
        15 003012   000027 276000 16                 ORQ     23
        15 003013   200117 756100                    STQ     NEW_OFFSET+2,,AUTO
        15 003014   000000 236100                    LDQ     0,,PR0
PL6.E3A0      #001=XUP$PARTRGE File=XUP$PARTRGE.:E05TSI                          WED 07/30/97 09:39 Page:140
        15 003015   000030 772000                    QRL     24
        15 003016   000007 376007                    ANQ     7,DL
        15 003017   000060 036007                    ADLQ    48,DL
        15 003020   000033 736000                    QLS     27
        15 003021   000027 276000 16                 ORQ     23
        15 003022   200120 756100                    STQ     NEW_OFFSET+3,,AUTO
        15 003023   000000 236100                    LDQ     0,,PR0
        15 003024   000025 772000                    QRL     21
        15 003025   000007 376007                    ANQ     7,DL
        15 003026   000060 036007                    ADLQ    48,DL
        15 003027   000033 736000                    QLS     27
        15 003030   000027 276000 16                 ORQ     23
        15 003031   200121 756100                    STQ     NEW_OFFSET+4,,AUTO
        15 003032   000000 236100                    LDQ     0,,PR0
        15 003033   000022 772000                    QRL     18
        15 003034   000007 376007                    ANQ     7,DL
        15 003035   000060 036007                    ADLQ    48,DL
        15 003036   000033 736000                    QLS     27
        15 003037   000027 276000 16                 ORQ     23
        15 003040   200123 756100                    STQ     NEW_OFFSET+6,,AUTO
        15 003041   200116 236100                    LDQ     NEW_OFFSET+1,,AUTO
        15 003042   200122 756100                    STQ     NEW_OFFSET+5,,AUTO
        15 003043   200005 235100                    LDA     C,,AUTO
        15 003044   040005 100500                    MLR     fill='040'O
        15 003045   200122 000004                    ADSC9   NEW_OFFSET+5,,AUTO       cn=0,n=4
        15 003046   000002 000001 1                  ADSC9   TEXT+2,A                 cn=0,n=1
        15 003047   200117 236100                    LDQ     NEW_OFFSET+2,,AUTO
        15 003050   200124 756100                    STQ     NEW_OFFSET+7,,AUTO
        15 003051   040005 100500                    MLR     fill='040'O
        15 003052   200124 000004                    ADSC9   NEW_OFFSET+7,,AUTO       cn=0,n=4
        15 003053   000002 200001 1                  ADSC9   TEXT+2,A                 cn=1,n=1
        15 003054   200120 236100                    LDQ     NEW_OFFSET+3,,AUTO
        15 003055   200125 756100                    STQ     NEW_OFFSET+8,,AUTO
        15 003056   040005 100500                    MLR     fill='040'O
        15 003057   200125 000004                    ADSC9   NEW_OFFSET+8,,AUTO       cn=0,n=4
        15 003060   000002 400001 1                  ADSC9   TEXT+2,A                 cn=2,n=1
        15 003061   200121 236100                    LDQ     NEW_OFFSET+4,,AUTO
PL6.E3A0      #001=XUP$PARTRGE File=XUP$PARTRGE.:E05TSI                          WED 07/30/97 09:39 Page:141
        15 003062   200126 756100                    STQ     NEW_OFFSET+9,,AUTO
        15 003063   040005 100500                    MLR     fill='040'O
        15 003064   200126 000004                    ADSC9   NEW_OFFSET+9,,AUTO       cn=0,n=4
        15 003065   000002 600001 1                  ADSC9   TEXT+2,A                 cn=3,n=1
        15 003066   200123 236100                    LDQ     NEW_OFFSET+6,,AUTO
        15 003067   200127 756100                    STQ     NEW_OFFSET+10,,AUTO
        15 003070   040005 100500                    MLR     fill='040'O
        15 003071   200127 000004                    ADSC9   NEW_OFFSET+10,,AUTO      cn=0,n=4
        15 003072   000003 000001 1                  ADSC9   TEXT+3,A                 cn=0,n=1

      835    19288    2        BINASC(SYM.VUAL(1)+48),
      836    19289    2        BINASC(SYM.VUAL(2)+48),BINASC(SYM.VUAL(3)+48),
      837    19290    2        BINASC(SYM.VUAL(4)+48),BINASC(SYM.VUAL(5)+48));
      838    19291    2      CALL EDITSTR(TEXT.T,C,4,'104'O,SUBSTR(TEXT.T,C,5));

  19291 15 003073   200005 235100                    LDA     C,,AUTO
        15 003074   005000 020405                    MVE
        15 003075   000002 000005 1                  ADSC9   TEXT+2,A                 cn=0,n=5
        15 003076   000042 000001 16                 ADSC9   34                       cn=0,n=1
        15 003077   000002 000004 1                  ADSC9   TEXT+2,A                 cn=0,n=4

      839    19292    2      CALL INSERT(TEXT.T,C+5,,' ',SYM.T);

  19292 15 003100   001214 470400 1                  LDP0    SYM_+2
        15 003101   000001 720100                    LXL0    1,,PR0
        15 003102   000777 360003                    ANX0    511,DU
        15 003103   777614 621005                    EAX1    -116,AL
        15 003104   777777 661003                    ERX1    -1,DU
        15 003105   040045 100400                    MLR     fill='040'O
        15 003106   000035 000001 xsym               ADSC9   B_VECTNIL+29             cn=0,n=1
        15 003107   000003 200011 1                  ADSC9   TEXT+3,A                 cn=1,n=*X1
        15 003110   200005 236100                    LDQ     C,,AUTO
        15 003111   000162 116007                    CMPQ    114,DL
        15 003112   003121 605000 15                 TPL     s:19293
        15 003113   777615 622006                    EAX2    -115,QL
        15 003114   777777 662003                    ERX2    -1,DU
        15 003115   001214 470400 1                  LDP0    SYM_+2
PL6.E3A0      #001=XUP$PARTRGE File=XUP$PARTRGE.:E05TSI                          WED 07/30/97 09:39 Page:142
        15 003116   040046 100540                    MLR     fill='040'O
        15 003117   000002 000010                    ADSC9   2,,PR0                   cn=0,n=*X0
        15 003120   000003 400012 1                  ADSC9   TEXT+3,Q                 cn=2,n=*X2

      840    19293    2      C=C+(SYM.C+SYMSZS(0)+6)/SYMSZS(0)*SYMSZS(0);

  19293 15 003121   001214 470400 1                  LDP0    SYM_+2
        15 003122   000001 236100                    LDQ     1,,PR0
        15 003123   000777 376007                    ANQ     511,DL
        15 003124   001267 036000 1                  ADLQ    SYMSZS
        15 003125   000006 036007                    ADLQ    6,DL
        15 003126   001267 506000 1                  DIV     SYMSZS
        15 003127   001267 402000 1                  MPY     SYMSZS
        15 003130   200005 036100                    ADLQ    C,,AUTO
        15 003131   200005 756100                    STQ     C,,AUTO

      841    19294    2      RETURN;

  19294 15 003132   200104 221300                    LDX1  ! TRASH_NAME+8,,AUTO
        15 003133   000001 702211                    TSX2  ! 1,X1

      842    19295    2   CROUT: ENTRY;

  19295 15 003134   200104 741300       CROUT        STX1  ! TRASH_NAME+8,,AUTO

      843    19296    3      IF C+8>WIDTH THEN DO;

  19296 15 003135   200005 236100                    LDQ     C,,AUTO
        15 003136   000010 036007                    ADLQ    8,DL
        15 003137   003151 604000 15                 TMI     s:19300
        15 003140   001327 116000 1                  CMPQ    WIDTH
        15 003141   003151 602000 15                 TNC     s:19300
        15 003142   003151 600000 15                 TZE     s:19300

      844    19297    3         CALL WRLO;

  19297 15 003143   003201 701000 15                 TSX1    WRLO
PL6.E3A0      #001=XUP$PARTRGE File=XUP$PARTRGE.:E05TSI                          WED 07/30/97 09:39 Page:143
        15 003144   000000 011000                    NOP     0

      845    19298    3         C=SYMSZS(0)/8*8;

  19298 15 003145   001267 236000 1                  LDQ     SYMSZS
        15 003146   000010 506007                    DIV     8,DL
        15 003147   000003 736000                    QLS     3
        15 003150   200005 756100                    STQ     C,,AUTO

      846    19299    3         END;

      847    19300    2      CALL BINCHAR(SUBSTR(TEXT.T,C,7),BLK$->SYM.XR.L#);

  19300 15 003151   200004 470500                    LDP0    BLK$,,AUTO
        15 003152   200005 235100                    LDA     C,,AUTO
        15 003153   000005 301500                    BTD
        15 003154   000000 000002                    NDSC9   0,,PR0                   cn=0,s=lsgnf,sf=0,n=2
        15 003155   000002 030007 1                  NDSC9   TEXT+2,A                 cn=0,s=nosgn,sf=0,n=7

      848    19301    2      CALL EDITSTR(TEXT.T,C,6,'106'O,SUBSTR(TEXT.T,C,7));

  19301 15 003156   005000 020405                    MVE
        15 003157   000002 000007 1                  ADSC9   TEXT+2,A                 cn=0,n=7
        15 003160   000046 000001 16                 ADSC9   38                       cn=0,n=1
        15 003161   000002 000006 1                  ADSC9   TEXT+2,A                 cn=0,n=6

      849    19302    2      IF BLK$->SYM.XR.D THEN CALL INSERT(TEXT.T,C+7,1,'*');

  19302 15 003162   000000 236100                    LDQ     0,,PR0
        15 003163   400000 316007                    CANQ    -131072,DL
        15 003164   003170 600000 15                 TZE     s:19303

  19302 15 003165   040005 100400                    MLR     fill='040'O
        15 003166   000047 000001 16                 ADSC9   39                       cn=0,n=1
        15 003167   000003 600001 1                  ADSC9   TEXT+3,A                 cn=3,n=1

      850    19303    2      C=C+8;
PL6.E3A0      #001=XUP$PARTRGE File=XUP$PARTRGE.:E05TSI                          WED 07/30/97 09:39 Page:144

  19303 15 003170   000010 236007                    LDQ     8,DL
        15 003171   200005 056100                    ASQ     C,,AUTO

      851    19304    2      RETURN;

  19304 15 003172   200104 221300                    LDX1  ! TRASH_NAME+8,,AUTO
        15 003173   000001 702211                    TSX2  ! 1,X1

      852    19305    2   WRITELO:ENTRY;

  19305 15 003174   200104 741300       WRITELO      STX1  ! TRASH_NAME+8,,AUTO

      853    19306    2      CALL WRLO;

  19306 15 003175   003201 701000 15                 TSX1    WRLO
        15 003176   000000 011000                    NOP     0

      854    19307    2      RETURN;

  19307 15 003177   200104 221300                    LDX1  ! TRASH_NAME+8,,AUTO
        15 003200   000001 702211                    TSX2  ! 1,X1

      855    19308    2   WRLO: PROC;

  19308 15 003201   200106 741300       WRLO         STX1  ! IS_LAST_LINE,,AUTO

      856    19309    3      LOFPT.BUF_=ERRVEC(1);

  19309 15 003202   000356 237000 2                  LDAQ    ERRVEC+2
        15 003203   000100 757000 1                  STAQ    LOFPT+4

      857    19310    4      DO WHILE(SUBSTR(TEXT.T,LOFPT.BUF_.BOUND,1)=' '

  19310 15 003204   003214 710000 15                 TRA     s:19313

      858    19311    4        AND LOFPT.BUF_.BOUND~=0);
PL6.E3A0      #001=XUP$PARTRGE File=XUP$PARTRGE.:E05TSI                          WED 07/30/97 09:39 Page:145
      859    19312    4         LOFPT.BUF_.BOUND=LOFPT.BUF_.BOUND-1;

  19312 15 003205   000100 236000 1                  LDQ     LOFPT+4
        15 003206   000020 772000                    QRL     16
        15 003207   000001 136007                    SBLQ    1,DL
        15 003210   000020 736000                    QLS     16
        15 003211   000100 676000 1                  ERQ     LOFPT+4
        15 003212   000034 376000 xsym               ANQ     B_VECTNIL+28
        15 003213   000100 656000 1                  ERSQ    LOFPT+4

      860    19313    4         END;

  19313 15 003214   000100 236000 1                  LDQ     LOFPT+4
        15 003215   000020 772000                    QRL     16
        15 003216   040000 106406                    CMPC    fill='040'O
        15 003217   000002 000001 1                  ADSC9   TEXT+2,Q                 cn=0,n=1
        15 003220   000035 000001 xsym               ADSC9   B_VECTNIL+29             cn=0,n=1
        15 003221   003225 601000 15                 TNZ     s:19314
        15 003222   000100 236000 1                  LDQ     LOFPT+4
        15 003223   000034 316000 xsym               CANQ    B_VECTNIL+28
        15 003224   003205 601000 15                 TNZ     s:19312

      861    19314    4      IF PP.LS AND B$JIT.PRFLAGS.LIST THEN DO;

  19314 15 003225   001416 235000 1                  LDA     PP+1
        15 003226   003247 600000 15                 TZE     s:19319
        15 003227   000000 470400 xsym               LDP0    B$JIT$
        15 003230   000030 236100                    LDQ     24,,PR0
        15 003231   010000 316003                    CANQ    4096,DU
        15 003232   003247 600000 15                 TZE     s:19319

      862    19315    4         TOPAGE.V.PAGE#='1'B;

  19315 15 003233   100000 236007                    LDQ     32768,DL
        15 003234   000430 256000 1                  ORSQ    TOPAGE+6

      863    19316    4         IF WIDTH~=0 THEN CALL M$WRITE(LOFPT);
PL6.E3A0      #001=XUP$PARTRGE File=XUP$PARTRGE.:E05TSI                          WED 07/30/97 09:39 Page:146

  19316 15 003235   001327 235000 1                  LDA     WIDTH
        15 003236   003242 600000 15                 TZE     s:19317

  19316 15 003237   000074 630400 1                  EPPR0   LOFPT
        15 003240   040001 713400                    CLIMB   write
        15 003241   401400 401760                    pmme    nvectors=4

      864    19317    4         CALL M$CORRES(CORR)ALTRET(NODO);

  19317 15 003242   000340 630400 2                  EPPR0   CORR
        15 003243   460000 713400                    CLIMB   alt,+24576
        15 003244   400000 401760                    pmme    nvectors=1
        15 003245   003270 702000 15                 TSX2    NODO

      865    19318    4         END;

  19318 15 003246   003251 710000 15                 TRA     s:19320

      866    19319    3      ELSE TOPAGE.V.PAGE#='0'B;

  19319 15 003247   000022 236000 16                 LDQ     18
        15 003250   000430 356000 1                  ANSQ    TOPAGE+6

      867    19320    4      IF J=0 AND B$JIT.PRFLAGS.COMMENT THEN DO;

  19320 15 003251   200007 235100                    LDA     J,,AUTO
        15 003252   003270 601000 15                 TNZ     NODO
        15 003253   000000 470400 xsym               LDP0    B$JIT$
        15 003254   000030 236100                    LDQ     24,,PR0
        15 003255   020000 316003                    CANQ    8192,DU
        15 003256   003270 600000 15                 TZE     NODO

      868    19321    4         LOFPT.V.DCB#=DCBNUM(M$DO);

  19321 15 003257   000000 236007 xsym               LDQ     M$DO,DL
        15 003260   000000 620006                    EAX0    0,QL
PL6.E3A0      #001=XUP$PARTRGE File=XUP$PARTRGE.:E05TSI                          WED 07/30/97 09:39 Page:147
        15 003261   000104 740000 1                  STX0    LOFPT+8

      869    19322    4         CALL M$WRITE(LOFPT);

  19322 15 003262   000074 630400 1                  EPPR0   LOFPT
        15 003263   040001 713400                    CLIMB   write
        15 003264   401400 401760                    pmme    nvectors=4

      870    19323    4         LOFPT.V.DCB#=DCBNUM(M$LO);

  19323 15 003265   000000 236007 xsym               LDQ     M$LO,DL
        15 003266   000000 620006                    EAX0    0,QL
        15 003267   000104 740000 1                  STX0    LOFPT+8

      871    19324    4   NODO: END;

  19324 15 003270                       NODO         null
      872    19325    3      WIDTH=DCBADDR(DCBNUM(M$LO))->F$DCB.WIDTH#;

  19325 15 003270   000000 236007 xsym               LDQ     M$LO,DL
        15 003271   000015 470400 16                 LDP0    13
        15 003272   000000 471500                    LDP1    0,,PR0
        15 003273   100000 473506                    LDP3    0,QL,PR1
        15 003274   300004 236100                    LDQ     4,,PR3
        15 003275   000777 376007                    ANQ     511,DL
        15 003276   001327 756000 1                  STQ     WIDTH

      873    19326    3      IF WIDTH=0 OR WIDTH>108 THEN WIDTH=108;

  19326 15 003277   003302 600000 15                 TZE     s:19326+3
        15 003300   000155 116007                    CMPQ    109,DL
        15 003301   003304 602000 15                 TNC     s:19327

  19326 15 003302   000154 235007                    LDA     108,DL
        15 003303   001327 755000 1                  STA     WIDTH

      874    19327    3      LOHDR.TITL.L#=WIDTH;
PL6.E3A0      #001=XUP$PARTRGE File=XUP$PARTRGE.:E05TSI                          WED 07/30/97 09:39 Page:148

  19327 15 003304   001327 236000 1                  LDQ     WIDTH
        15 003305   000033 736000                    QLS     27
        15 003306   000435 552040 1                  STBQ    LOHDR+1,'40'O

      875    19328    3      LOHDR.CTL.COUNT#=WIDTH-4;

  19328 15 003307   001327 236000 1                  LDQ     WIDTH
        15 003310   000004 136007                    SBLQ    4,DL
        15 003311   000434 552004 1                  STBQ    LOHDR,'04'O

      876    19329    3      TEXT.T=' ';

  19329 15 003312   040000 100400                    MLR     fill='040'O
        15 003313   000035 000001 xsym               ADSC9   B_VECTNIL+29             cn=0,n=1
        15 003314   000002 000170 1                  ADSC9   TEXT+2                   cn=0,n=120

      877    19330    3      C=0;

  19330 15 003315   200005 450100                    STZ     C,,AUTO

      878    19331    3   END;

  19331 15 003316   200106 221300                    LDX1  ! IS_LAST_LINE,,AUTO
        15 003317   000001 702211                    TSX2  ! 1,X1

  19329 15 003320                       XUPDONE      null
      879    19332    2   END;
      880    19333    1   XUPDONE:;
      881    19334    1      IF DCBADDR(DCBNUM(M$NS)) -> F$DCB.FCD#

  19334 15 003320   000000 236007 xsym               LDQ     M$NS,DL
        15 003321   000015 470400 16                 LDP0    13
        15 003322   000000 471500                    LDP1    0,,PR0
        15 003323   100000 473506                    LDP3    0,QL,PR1
        15 003324   300031 236100                    LDQ     25,,PR3
        15 003325   020000 316007                    CANQ    8192,DL
PL6.E3A0      #001=XUP$PARTRGE File=XUP$PARTRGE.:E05TSI                          WED 07/30/97 09:39 Page:149
        15 003326   003333 600000 15                 TZE     s:19337

      882    19335    1      THEN
      883    19336    1         CALL M$CLOSE (CLOSE_NS) ALTRET (MONERR);

  19336 15 003327   000274 630400 2                  EPPR0   CLOSE_NS
        15 003330   450001 713400                    CLIMB   alt,close
        15 003331   406000 401760                    pmme    nvectors=13
        15 003332   002672 702000 15                 TSX2    MONERR

      884    19337    2      IF LINE#~=0 THEN DO;

  19337 15 003333   001414 235000 1                  LDA     LINE#
        15 003334   003340 600000 15                 TZE     s:19341

      885    19338    2         P_PCB.HI_CHAR=P_PCB.NCHARS;

  19338 15 003335   000051 236000 1                  LDQ     P_PCB+9
        15 003336   000052 756000 1                  STQ     P_PCB+10

      886    19339    2         GOTO SYNERR;

  19339 15 003337   002302 710000 15                 TRA     SYNERR

      887    19340    2         END;
      888    19341    1      SYMSZS(0)=9*SYMSZS(0)/10;

  19341 15 003340   001267 236000 1                  LDQ     SYMSZS
        15 003341   000011 402007                    MPY     9,DL
        15 003342   000012 506007                    DIV     10,DL
        15 003343   001267 756000 1                  STQ     SYMSZS

      889    19342    1      I=0;

  19342 15 003344   200006 450100                    STZ     I,,AUTO

      890    19343    2      DO WHILE(SYMSZS(0)>0);
PL6.E3A0      #001=XUP$PARTRGE File=XUP$PARTRGE.:E05TSI                          WED 07/30/97 09:39 Page:150

  19343 15 003345   000000 116003                    CMPQ    0,DU
        15 003346   003355 604400 15                 TMOZ    s:19347

      891    19344    2         I=I+1;

  19344 15 003347   200006 054100                    AOS     I,,AUTO

      892    19345    2         SYMSZS(0)=SYMSZS(0)-SYMSZS(I);

  19345 15 003350   200006 720100                    LXL0    I,,AUTO
        15 003351   001267 236000 1                  LDQ     SYMSZS
        15 003352   001267 136010 1                  SBLQ    SYMSZS,X0
        15 003353   001267 756000 1                  STQ     SYMSZS

      893    19346    2         END;

  19346 15 003354   003347 605400 15                 TPNZ    s:19344

      894    19347    1      SYMSZS(0)=I+7;

  19347 15 003355   200006 235100                    LDA     I,,AUTO
        15 003356   000007 035007                    ADLA    7,DL
        15 003357   001267 755000 1                  STA     SYMSZS

      895    19348    1      PGMSIZE = POFFW (NODE_.NEXT$, NODE_.FIRST$);

  19348 15 003360   001207 236000 1                  LDQ     NODE_+1
        15 003361   000022 772000                    QRL     18
        15 003362   200116 756100                    STQ     NEW_OFFSET+1,,AUTO
        15 003363   001211 236000 1                  LDQ     NODE_+3
        15 003364   000022 772000                    QRL     18
        15 003365   200116 136100                    SBLQ    NEW_OFFSET+1,,AUTO
        15 003366   200012 756100                    STQ     PGMSIZE,,AUTO

      896    19349    2      IF DCBADDR(DCBNUM(M$CORE))->F$DCB.ASN#~=%DEVICE# THEN DO;

PL6.E3A0      #001=XUP$PARTRGE File=XUP$PARTRGE.:E05TSI                          WED 07/30/97 09:39 Page:151
  19349 15 003367   000000 236007 xsym               LDQ     M$CORE,DL
        15 003370   000015 470400 16                 LDP0    13
        15 003371   000000 471500                    LDP1    0,,PR0
        15 003372   100000 473506                    LDP3    0,QL,PR1
        15 003373   300032 236100                    LDQ     26,,PR3
        15 003374   777000 376007                    ANQ     -512,DL
        15 003375   003000 116007                    CMPQ    1536,DL
        15 003376   003430 600000 15                 TZE     s:19360

      897    19350    2         OUOPN.V.DCB#=DCBNUM(M$CORE);

  19350 15 003377   000000 236007 xsym               LDQ     M$CORE,DL
        15 003400   000000 620006                    EAX0    0,QL
        15 003401   000246 740000 1                  STX0    OUOPN+36

      898    19351    2         COREFPT.BUF_.BUF$=NODE_.FIRST$;

  19351 15 003402   001207 236000 1                  LDQ     NODE_+1
        15 003403   000301 756000 1                  STQ     COREFPT+5

      899    19352    2         COREFPT.BUF_.BOUND = MAXIMUM (PGMSIZE * 4 - 1, 0);

  19352 15 003404   200012 236100                    LDQ     PGMSIZE,,AUTO
        15 003405   000002 736000                    QLS     2
        15 003406   000001 136007                    SBLQ    1,DL
        15 003407   000000 116003                    CMPQ    0,DU
        15 003410   003412 605000 15                 TPL     s:19352+6
        15 003411   000000 236003                    LDQ     0,DU
        15 003412   000020 736000                    QLS     16
        15 003413   000300 676000 1                  ERQ     COREFPT+4
        15 003414   000034 376000 xsym               ANQ     B_VECTNIL+28
        15 003415   000300 656000 1                  ERSQ    COREFPT+4

      900    19353    2         IF PP.OU

  19353 15 003416   001422 236000 1                  LDQ     PP+5
        15 003417   003424 600000 15                 TZE     s:19356
PL6.E3A0      #001=XUP$PARTRGE File=XUP$PARTRGE.:E05TSI                          WED 07/30/97 09:39 Page:152

      901    19354    2         THEN
      902    19355    2            CALL M$OPEN (OUOPN) ALTRET (MONERR);

  19355 15 003420   000202 630400 1                  EPPR0   OUOPN
        15 003421   450000 713400                    CLIMB   alt,open
        15 003422   410400 401760                    pmme    nvectors=18
        15 003423   002672 702000 15                 TSX2    MONERR

      903    19356    2         GENERATE_CORE_IMAGE = '1'B;

  19356 15 003424   400000 236003                    LDQ     -131072,DU
        15 003425   200061 756100                    STQ     GENERATE_CORE_IMAGE,,AUTO

      904    19357    2         GENERATE_OU = '0'B;

  19357 15 003426   200062 450100                    STZ     GENERATE_OU,,AUTO

      905    19358    2         END;

  19358 15 003427   003677 710000 15                 TRA     s:19403

      906    19359    2      ELSE DO;

      907    19360    2         GENERATE_CORE_IMAGE = '0'B;

  19360 15 003430   200061 450100                    STZ     GENERATE_CORE_IMAGE,,AUTO

      908    19361    2         IF PP.OU

  19361 15 003431   001422 236000 1                  LDQ     PP+5
        15 003432   003676 600000 15                 TZE     s:19401

      909    19362    3         THEN DO;

      910    19363    3            GENERATE_OU = '1'B;

PL6.E3A0      #001=XUP$PARTRGE File=XUP$PARTRGE.:E05TSI                          WED 07/30/97 09:39 Page:153
  19363 15 003433   400000 236003                    LDQ     -131072,DU
        15 003434   200062 756100                    STQ     GENERATE_OU,,AUTO

      911    19364    3            IF NOT DCBADDR(DCBNUM(M$OU)) -> F$DCB.FCD#

  19364 15 003435   000000 236007 xsym               LDQ     M$OU,DL
        15 003436   100000 473506                    LDP3    0,QL,PR1
        15 003437   300031 236100                    LDQ     25,,PR3
        15 003440   020000 316007                    CANQ    8192,DL
        15 003441   003450 601000 15                 TNZ     s:19369

      912    19365    4            THEN DO;

      913    19366    4               OUOPN.V.SETDCB# = '1'B;

  19366 15 003442   100000 236007                    LDQ     32768,DL
        15 003443   000246 256000 1                  ORSQ    OUOPN+36

      914    19367    4               CALL M$OPEN (OUOPN) ALTRET (MONERR);

  19367 15 003444   000202 630400 1                  EPPR0   OUOPN
        15 003445   450000 713400                    CLIMB   alt,open
        15 003446   410400 401760                    pmme    nvectors=18
        15 003447   002672 702000 15                 TSX2    MONERR

      915    19368    4               END;

      916    19369    3            CALL XUO$BUFINIT;

  19369 15 003450   000002 631400 xsym               EPPR1   B_VECTNIL+2
        15 003451   000000 701000 xent               TSX1    XUO$BUFINIT
        15 003452   000000 011000                    NOP     0

      917    19370    3            CALL XUO$OUINIT (DCBNUM(M$OU), %NO#, %YES#, %PARTRGEID,

  19370 15 003453   000000 236007 xsym               LDQ     M$OU,DL
        15 003454   200116 756100                    STQ     NEW_OFFSET+1,,AUTO
PL6.E3A0      #001=XUP$PARTRGE File=XUP$PARTRGE.:E05TSI                          WED 07/30/97 09:39 Page:154
        15 003455   000000 636000 xent               EAQ     XUP$PARTRGE_XUO_ERROR
        15 003456   200116 235100                    LDA     NEW_OFFSET+1,,AUTO
        15 003457   200117 755100                    STA     NEW_OFFSET+2,,AUTO
        15 003460   200120 756100                    STQ     NEW_OFFSET+3,,AUTO
        15 003461   200120 630500                    EPPR0   NEW_OFFSET+3,,AUTO
        15 003462   200131 450500                    STP0    NEW_OFFSET+12,,AUTO
        15 003463   000001 236000 xsym               LDQ     B_VECTNIL+1
        15 003464   200130 756100                    STQ     NEW_OFFSET+11,,AUTO
        15 003465   000050 235000 16                 LDA     40
        15 003466   200126 757100                    STAQ    NEW_OFFSET+9,,AUTO
        15 003467   000052 237000 16                 LDAQ    42
        15 003470   200124 757100                    STAQ    NEW_OFFSET+7,,AUTO
        15 003471   000032 236000 16                 LDQ     26
        15 003472   200123 756100                    STQ     NEW_OFFSET+6,,AUTO
        15 003473   200117 631500                    EPPR1   NEW_OFFSET+2,,AUTO
        15 003474   200122 451500                    STP1    NEW_OFFSET+5,,AUTO
        15 003475   200122 630500                    EPPR0   NEW_OFFSET+5,,AUTO
        15 003476   000026 631400 xsym               EPPR1   B_VECTNIL+22
        15 003477   000000 701000 xent               TSX1    XUO$OUINIT
        15 003500   000000 011000                    NOP     0

      918    19371    3              VERSION_INFO, , , ENTADDR(XUP$PARTRGE_XUO_ERROR));
      919    19372    4            IF FIRST_SYM$ = ADDR(NIL) THEN DO;

  19372 15 003501   001433 236000 1                  LDQ     FIRST_SYM$
        15 003502   000001 116000 xsym               CMPQ    B_VECTNIL+1
        15 003503   003522 601000 15                 TNZ     s:19377

      920    19373    4               P_NAME.COUNT = DCBADDR(DCBNUM(M$OU)) -> F$DCB.NAME#.L;

  19373 15 003504   000000 236007 xsym               LDQ     M$OU,DL
        15 003505   000015 470400 16                 LDP0    13
        15 003506   000000 471500                    LDP1    0,,PR0
        15 003507   100000 473506                    LDP3    0,QL,PR1
        15 003510   300010 236100                    LDQ     8,,PR3
        15 003511   000033 772000                    QRL     27
        15 003512   000000 620006                    EAX0    0,QL
PL6.E3A0      #001=XUP$PARTRGE File=XUP$PARTRGE.:E05TSI                          WED 07/30/97 09:39 Page:155
        15 003513   200013 740100                    STX0    P_NAME,,AUTO

      921    19374    4               P_NAME.TEXT = DCBADDR(DCBNUM(M$OU)) -> F$DCB.NAME#.C;

  19374 15 003514   000000 236007 xsym               LDQ     M$OU,DL
        15 003515   100000 473506                    LDP3    0,QL,PR1
        15 003516   040100 100500                    MLR     fill='040'O
        15 003517   300010 200037                    ADSC9   8,,PR3                   cn=1,n=31
        15 003520   200013 400037                    ADSC9   P_NAME,,AUTO             cn=2,n=31

      922    19375    4               END;

  19375 15 003521   003533 710000 15                 TRA     s:19380

      923    19376    4            ELSE DO;

      924    19377    4               P_NAME.COUNT = FIRST_SYM$ -> SYM.C;

  19377 15 003522   001433 470400 1                  LDP0    FIRST_SYM$
        15 003523   000001 720100                    LXL0    1,,PR0
        15 003524   000777 360003                    ANX0    511,DU
        15 003525   200013 740100                    STX0    P_NAME,,AUTO

      925    19378    4               P_NAME.TEXT  = FIRST_SYM$ -> SYM.T;

  19378 15 003526   000001 721100                    LXL1    1,,PR0
        15 003527   000777 361003                    ANX1    511,DU
        15 003530   040100 100540                    MLR     fill='040'O
        15 003531   000002 000011                    ADSC9   2,,PR0                   cn=0,n=*X1
        15 003532   200013 400037                    ADSC9   P_NAME,,AUTO             cn=2,n=31

      926    19379    4               END;

      927    19380    3            CALL XUO$DNAME (P_NAME, P_NAME_POINTER);

  19380 15 003533   200024 630500                    EPPR0   P_NAME_POINTER,,AUTO
        15 003534   200117 450500                    STP0    NEW_OFFSET+2,,AUTO
PL6.E3A0      #001=XUP$PARTRGE File=XUP$PARTRGE.:E05TSI                          WED 07/30/97 09:39 Page:156
        15 003535   200013 631500                    EPPR1   P_NAME,,AUTO
        15 003536   200116 451500                    STP1    NEW_OFFSET+1,,AUTO
        15 003537   200116 630500                    EPPR0   NEW_OFFSET+1,,AUTO
        15 003540   000020 631400 xsym               EPPR1   B_VECTNIL+16
        15 003541   000000 701000 xent               TSX1    XUO$DNAME
        15 003542   000000 011000                    NOP     0

      928    19381    3            CALL XUO$HEADNAME (P_NAME);

  19381 15 003543   200013 630500                    EPPR0   P_NAME,,AUTO
        15 003544   200116 450500                    STP0    NEW_OFFSET+1,,AUTO
        15 003545   200116 630500                    EPPR0   NEW_OFFSET+1,,AUTO
        15 003546   000017 631400 xsym               EPPR1   B_VECTNIL+15
        15 003547   000000 701000 xent               TSX1    XUO$HEADNAME
        15 003550   000000 011000                    NOP     0

      929    19382    3            CALL XUO$SECTBUILD (%ROSECTION, P_NAME_POINTER, SECTION, '010'B,

  19382 15 003551   000032 236000 16                 LDQ     26
        15 003552   200122 756100                    STQ     NEW_OFFSET+5,,AUTO
        15 003553   000055 236000 16                 LDQ     45
        15 003554   200121 756100                    STQ     NEW_OFFSET+4,,AUTO
        15 003555   200055 630500                    EPPR0   SECTION,,AUTO
        15 003556   200120 450500                    STP0    NEW_OFFSET+3,,AUTO
        15 003557   200024 631500                    EPPR1   P_NAME_POINTER,,AUTO
        15 003560   200117 451500                    STP1    NEW_OFFSET+2,,AUTO
        15 003561   000056 236000 16                 LDQ     46
        15 003562   200116 756100                    STQ     NEW_OFFSET+1,,AUTO
        15 003563   200116 630500                    EPPR0   NEW_OFFSET+1,,AUTO
        15 003564   000023 631400 xsym               EPPR1   B_VECTNIL+19
        15 003565   000000 701000 xent               TSX1    XUO$SECTBUILD
        15 003566   000000 011000                    NOP     0

      930    19383    3              %EVENBOUNDSECTION);
      931    19384    3            CALL XUO$EDEF (SECTION, 0, P_NAME_POINTER, '1'B, '0'B, '0'B,

  19384 15 003567   000060 237000 16                 LDAQ    48
PL6.E3A0      #001=XUP$PARTRGE File=XUP$PARTRGE.:E05TSI                          WED 07/30/97 09:39 Page:157
        15 003570   200124 757100                    STAQ    NEW_OFFSET+7,,AUTO
        15 003571   000062 237000 16                 LDAQ    50
        15 003572   200122 757100                    STAQ    NEW_OFFSET+5,,AUTO
        15 003573   000052 236000 16                 LDQ     42
        15 003574   200121 756100                    STQ     NEW_OFFSET+4,,AUTO
        15 003575   200024 630500                    EPPR0   P_NAME_POINTER,,AUTO
        15 003576   200120 450500                    STP0    NEW_OFFSET+3,,AUTO
        15 003577   000032 236000 16                 LDQ     26
        15 003600   200117 756100                    STQ     NEW_OFFSET+2,,AUTO
        15 003601   200055 631500                    EPPR1   SECTION,,AUTO
        15 003602   200116 451500                    STP1    NEW_OFFSET+1,,AUTO
        15 003603   200116 630500                    EPPR0   NEW_OFFSET+1,,AUTO
        15 003604   000026 631400 xsym               EPPR1   B_VECTNIL+22
        15 003605   000000 701000 xent               TSX1    XUO$EDEF
        15 003606   000000 011000                    NOP     0

      932    19385    3              %NOTPROC#, 0);
      933    19386    3            IF PP.SCHEMA

  19386 15 003607   001431 235000 1                  LDA     PP+12
        15 003610   003650 600000 15                 TZE     s:19395

      934    19387    4            THEN DO;

      935    19388    4               CALL XUO$LOGBLKALLOC (LOGBLK_NUMBER);

  19388 15 003611   200052 630500                    EPPR0   LOGBLK_NUMBER,,AUTO
        15 003612   200116 450500                    STP0    NEW_OFFSET+1,,AUTO
        15 003613   200116 630500                    EPPR0   NEW_OFFSET+1,,AUTO
        15 003614   000017 631400 xsym               EPPR1   B_VECTNIL+15
        15 003615   000000 701000 xent               TSX1    XUO$LOGBLKALLOC
        15 003616   000000 011000                    NOP     0

      936    19389    4               CALL XUO$LOGBLKEXSTINIT (LOGBLK_NUMBER, 0, 1, P_NAME_POINTER, 1);

  19389 15 003617   000045 236000 16                 LDQ     37
        15 003620   200122 756100                    STQ     NEW_OFFSET+5,,AUTO
PL6.E3A0      #001=XUP$PARTRGE File=XUP$PARTRGE.:E05TSI                          WED 07/30/97 09:39 Page:158
        15 003621   200024 630500                    EPPR0   P_NAME_POINTER,,AUTO
        15 003622   200121 450500                    STP0    NEW_OFFSET+4,,AUTO
        15 003623   200120 756100                    STQ     NEW_OFFSET+3,,AUTO
        15 003624   000032 236000 16                 LDQ     26
        15 003625   200117 756100                    STQ     NEW_OFFSET+2,,AUTO
        15 003626   200052 631500                    EPPR1   LOGBLK_NUMBER,,AUTO
        15 003627   200116 451500                    STP1    NEW_OFFSET+1,,AUTO
        15 003630   200116 630500                    EPPR0   NEW_OFFSET+1,,AUTO
        15 003631   000023 631400 xsym               EPPR1   B_VECTNIL+19
        15 003632   000000 701000 xent               TSX1    XUO$LOGBLKEXSTINIT
        15 003633   000000 011000                    NOP     0

      937    19390    4               CALL XUO$LOGBLKVREBLINIT (LOGBLK_NUMBER, 0);

  19390 15 003634   000032 236000 16                 LDQ     26
        15 003635   200117 756100                    STQ     NEW_OFFSET+2,,AUTO
        15 003636   200052 630500                    EPPR0   LOGBLK_NUMBER,,AUTO
        15 003637   200116 450500                    STP0    NEW_OFFSET+1,,AUTO
        15 003640   200116 630500                    EPPR0   NEW_OFFSET+1,,AUTO
        15 003641   000020 631400 xsym               EPPR1   B_VECTNIL+16
        15 003642   000000 701000 xent               TSX1    XUO$LOGBLKVREBLINIT
        15 003643   000000 011000                    NOP     0

      938    19391    4               CALL GENERATE_DEBUG_NAMES;

  19391 15 003644   006361 701000 15                 TSX1    GENERATE_DEBUG_NAMES
        15 003645   000000 011000                    NOP     0

      939    19392    4               HIGHEST_VREBL_ENTRY = 0;

  19392 15 003646   200053 450100                    STZ     HIGHEST_VREBL_ENTRY,,AUTO

      940    19393    4               HIGHEST_LINE_NUMBER = 0;

  19393 15 003647   200054 450100                    STZ     HIGHEST_LINE_NUMBER,,AUTO

      941    19394    4               END;
PL6.E3A0      #001=XUP$PARTRGE File=XUP$PARTRGE.:E05TSI                          WED 07/30/97 09:39 Page:159

      942    19395    3            P_NAME.COUNT = LENGTHC('ISSID');

  19395 15 003650   000005 220003                    LDX0    5,DU
        15 003651   200013 740100                    STX0    P_NAME,,AUTO

      943    19396    3            P_NAME.TEXT  =         'ISSID';

  19396 15 003652   040100 100400                    MLR     fill='040'O
        15 003653   000463 000005 2                  ADSC9   ONE_BLANK+13             cn=0,n=5
        15 003654   200013 400037                    ADSC9   P_NAME,,AUTO             cn=2,n=31

      944    19397    3            CALL XUO$RNAME (P_NAME, P_NAME_POINTER);

  19397 15 003655   200024 630500                    EPPR0   P_NAME_POINTER,,AUTO
        15 003656   200117 450500                    STP0    NEW_OFFSET+2,,AUTO
        15 003657   200013 631500                    EPPR1   P_NAME,,AUTO
        15 003660   200116 451500                    STP1    NEW_OFFSET+1,,AUTO
        15 003661   200116 630500                    EPPR0   NEW_OFFSET+1,,AUTO
        15 003662   000020 631400 xsym               EPPR1   B_VECTNIL+16
        15 003663   000000 701000 xent               TSX1    XUO$RNAME
        15 003664   000000 011000                    NOP     0

      945    19398    3            CALL XUO$SEGREF (P_NAME_POINTER, ISSID_SEGREF_NUMBER);

  19398 15 003665   200056 630500                    EPPR0   ISSID_SEGREF_NUMBER,,AUTO
        15 003666   200117 450500                    STP0    NEW_OFFSET+2,,AUTO
        15 003667   200024 631500                    EPPR1   P_NAME_POINTER,,AUTO
        15 003670   200116 451500                    STP1    NEW_OFFSET+1,,AUTO
        15 003671   200116 630500                    EPPR0   NEW_OFFSET+1,,AUTO
        15 003672   000020 631400 xsym               EPPR1   B_VECTNIL+16
        15 003673   000000 701000 xent               TSX1    XUO$SEGREF
        15 003674   000000 011000                    NOP     0

      946    19399    3            END;

  19399 15 003675   003677 710000 15                 TRA     s:19403
PL6.E3A0      #001=XUP$PARTRGE File=XUP$PARTRGE.:E05TSI                          WED 07/30/97 09:39 Page:160

      947    19400    2         ELSE
      948    19401    2            GENERATE_OU = '0'B;

  19401 15 003676   200062 450100                    STZ     GENERATE_OU,,AUTO

      949    19402    2         END;

      950    19403    1      I=0;

  19403 15 003677   200006 450100                    STZ     I,,AUTO

      951    19404    1      NPREFS = 0;

  19404 15 003700   200067 450100                    STZ     NPREFS,,AUTO

      952    19405    1      WORK_.P$=WORK_.FIRST$;

  19405 15 003701   001203 236000 1                  LDQ     WORK_+1
        15 003702   001204 756000 1                  STQ     WORK_+2

      953    19406    1      NODE_.P$=NODE_.FIRST$;

  19406 15 003703   001207 236000 1                  LDQ     NODE_+1
        15 003704   001210 756000 1                  STQ     NODE_+2

      954    19407    2      DO WHILE (NODE_.P$<NODE_.NEXT$);

  19407 15 003705   001211 116000 1                  CMPQ    NODE_+3
        15 003706   004442 603000 15                 TRC     s:19493

      955    19408    2         J=0;

  19408 15 003707   200007 450100                    STZ     J,,AUTO

      956    19409    2         LOC_OFFSET = POFFW(NODE_.P$, NODE_.FIRST$);

PL6.E3A0      #001=XUP$PARTRGE File=XUP$PARTRGE.:E05TSI                          WED 07/30/97 09:39 Page:161
  19409 15 003710   001207 235000 1                  LDA     NODE_+1
        15 003711   000022 771000                    ARL     18
        15 003712   200116 755100                    STA     NEW_OFFSET+1,,AUTO
        15 003713   001210 236000 1                  LDQ     NODE_+2
        15 003714   000022 772000                    QRL     18
        15 003715   200116 136100                    SBLQ    NEW_OFFSET+1,,AUTO
        15 003716   200057 756100                    STQ     LOC_OFFSET,,AUTO

      957    19410    2         IF GENERATE_OU

  19410 15 003717   200062 234100                    SZN     GENERATE_OU,,AUTO
        15 003720   003733 605000 15                 TPL     s:19413

      958    19411    2         THEN
      959    19412    2            CALL XUO$PRGM (SECTION, LOC_OFFSET, NODE.TYPE);

  19412 15 003721   001210 236000 1                  LDQ     NODE_+2
        15 003722   200120 756100                    STQ     NEW_OFFSET+3,,AUTO
        15 003723   200057 630500                    EPPR0   LOC_OFFSET,,AUTO
        15 003724   200117 450500                    STP0    NEW_OFFSET+2,,AUTO
        15 003725   200055 631500                    EPPR1   SECTION,,AUTO
        15 003726   200116 451500                    STP1    NEW_OFFSET+1,,AUTO
        15 003727   200116 630500                    EPPR0   NEW_OFFSET+1,,AUTO
        15 003730   000021 631400 xsym               EPPR1   B_VECTNIL+17
        15 003731   000000 701000 xent               TSX1    XUO$PRGM
        15 003732   000000 011000                    NOP     0

      960    19413    3         DO CASE(NODE.TYPE);

  19413 15 003733   001210 470400 1                  LDP0    NODE_+2
        15 003734   000000 236100                    LDQ     0,,PR0
        15 003735   000041 772000                    QRL     33
        15 003736   000007 116007                    CMPQ    7,DL
        15 003737   003741 602006 15                 TNC     s:19413+6,QL
        15 003740   004433 710000 15                 TRA     s:19491
        15 003741   004433 710000 15                 TRA     s:19491
        15 003742   003750 710000 15                 TRA     s:19415
PL6.E3A0      #001=XUP$PARTRGE File=XUP$PARTRGE.:E05TSI                          WED 07/30/97 09:39 Page:162
        15 003743   003750 710000 15                 TRA     s:19415
        15 003744   003750 710000 15                 TRA     s:19415
        15 003745   003750 710000 15                 TRA     s:19415
        15 003746   004347 710000 15                 TRA     s:19475
        15 003747   004364 710000 15                 TRA     s:19478

      961    19414    3         CASE(%TYPE_ALTERN#,%TYPE_KONCAT#,%TYPE_LIST#,%TYPE_RALTERN#);

      962    19415    4            DO WHILE (J<NODE.NSUBNDS);

  19415 15 003750   000000 236100                    LDQ     0,,PR0
        15 003751   000020 772000                    QRL     16
        15 003752   000777 376007                    ANQ     511,DL
        15 003753   200007 116100                    CMPQ    J,,AUTO
        15 003754   004433 604400 15                 TMOZ    s:19491

      963    19416    4               SYM_.P$=NODE.SUBNDS$(J);

  19416 15 003755   001210 470400 1                  LDP0    NODE_+2
        15 003756   200007 720100                    LXL0    J,,AUTO
        15 003757   000001 236110                    LDQ     1,X0,PR0
        15 003760   001214 756000 1                  STQ     SYM_+2

      964    19417    4               EMIT_STANDARD = '1'B;

  19417 15 003761   400000 236003                    LDQ     -131072,DU
        15 003762   200060 756100                    STQ     EMIT_STANDARD,,AUTO

      965    19418    5               IF NODE.SUBNDS.SEG(J)=SYM_.SEG.SEG THEN DO;

  19418 15 003763   000001 236110                    LDQ     1,X0,PR0
        15 003764   001213 676000 1                  ERQ     SYM_+1
        15 003765   777777 376007                    ANQ     -1,DL
        15 003766   004221 601000 15                 TNZ     s:19457

      966    19419    6                  IF NOT SYM.DEF OR SYM.XPREF THEN DO;

PL6.E3A0      #001=XUP$PARTRGE File=XUP$PARTRGE.:E05TSI                          WED 07/30/97 09:39 Page:163
  19419 15 003767   001214 471400 1                  LDP1    SYM_+2
        15 003770   100001 234100                    SZN     1,,PR1
        15 003771   003775 605000 15                 TPL     s:19420
        15 003772   100001 236100                    LDQ     1,,PR1
        15 003773   040000 316003                    CANQ    16384,DU
        15 003774   004217 600000 15                 TZE     s:19455

      967    19420    7                     IF SYM.NODE$=ADDR(NIL) THEN DO;

  19420 15 003775   100000 236100                    LDQ     0,,PR1
        15 003776   000001 116000 xsym               CMPQ    B_VECTNIL+1
        15 003777   004072 601000 15                 TNZ     s:19438

      968    19421    7                        SYM.NODE$=ADDR(NODE.SUBNDS$(J));

  19421 15 004000   200007 236100                    LDQ     J,,AUTO
        15 004001   000022 736000                    QLS     18
        15 004002   000001 036003                    ADLQ    1,DU
        15 004003   001210 036000 1                  ADLQ    NODE_+2
        15 004004   100000 756100                    STQ     0,,PR1

      969    19422    7                        IF GENERATE_OU

  19422 15 004005   200062 234100                    SZN     GENERATE_OU,,AUTO
        15 004006   004062 605000 15                 TPL     s:19434

      970    19423    8                        THEN DO;

      971    19424    8                           P_NAME.COUNT = SYM.C;

  19424 15 004007   001214 470400 1                  LDP0    SYM_+2
        15 004010   000001 720100                    LXL0    1,,PR0
        15 004011   000777 360003                    ANX0    511,DU
        15 004012   200013 740100                    STX0    P_NAME,,AUTO

      972    19425    8                           P_NAME.TEXT = SYM.T;

PL6.E3A0      #001=XUP$PARTRGE File=XUP$PARTRGE.:E05TSI                          WED 07/30/97 09:39 Page:164
  19425 15 004013   000001 721100                    LXL1    1,,PR0
        15 004014   000777 361003                    ANX1    511,DU
        15 004015   040100 100540                    MLR     fill='040'O
        15 004016   000002 000011                    ADSC9   2,,PR0                   cn=0,n=*X1
        15 004017   200013 400037                    ADSC9   P_NAME,,AUTO             cn=2,n=31

      973    19426    8                           CALL XUO$RNAME (P_NAME, P_NAME_POINTER);

  19426 15 004020   200024 631500                    EPPR1   P_NAME_POINTER,,AUTO
        15 004021   200117 451500                    STP1    NEW_OFFSET+2,,AUTO
        15 004022   200013 633500                    EPPR3   P_NAME,,AUTO
        15 004023   200116 453500                    STP3    NEW_OFFSET+1,,AUTO
        15 004024   200116 630500                    EPPR0   NEW_OFFSET+1,,AUTO
        15 004025   000020 631400 xsym               EPPR1   B_VECTNIL+16
        15 004026   000000 701000 xent               TSX1    XUO$RNAME
        15 004027   000000 011000                    NOP     0

      974    19427    8                           IF PP.AREA_REF

  19427 15 004030   001432 235000 1                  LDA     PP+13
        15 004031   004043 600000 15                 TZE     s:19431

      975    19428    8                           THEN
      976    19429    8                              CALL XUO$SEGREF (P_NAME_POINTER, I);

  19429 15 004032   200006 630500                    EPPR0   I,,AUTO
        15 004033   200117 450500                    STP0    NEW_OFFSET+2,,AUTO
        15 004034   200024 631500                    EPPR1   P_NAME_POINTER,,AUTO
        15 004035   200116 451500                    STP1    NEW_OFFSET+1,,AUTO
        15 004036   200116 630500                    EPPR0   NEW_OFFSET+1,,AUTO
        15 004037   000020 631400 xsym               EPPR1   B_VECTNIL+16
        15 004040   000000 701000 xent               TSX1    XUO$SEGREF
        15 004041   000000 011000                    NOP     0
        15 004042   004056 710000 15                 TRA     s:19432

      977    19430    8                           ELSE
      978    19431    8                              CALL XUO$SREF (P_NAME_POINTER, '0'B, I, '0'B);
PL6.E3A0      #001=XUP$PARTRGE File=XUP$PARTRGE.:E05TSI                          WED 07/30/97 09:39 Page:165

  19431 15 004043   000032 236000 16                 LDQ     26
        15 004044   200121 756100                    STQ     NEW_OFFSET+4,,AUTO
        15 004045   200006 630500                    EPPR0   I,,AUTO
        15 004046   200120 450500                    STP0    NEW_OFFSET+3,,AUTO
        15 004047   200117 756100                    STQ     NEW_OFFSET+2,,AUTO
        15 004050   200024 631500                    EPPR1   P_NAME_POINTER,,AUTO
        15 004051   200116 451500                    STP1    NEW_OFFSET+1,,AUTO
        15 004052   200116 630500                    EPPR0   NEW_OFFSET+1,,AUTO
        15 004053   000022 631400 xsym               EPPR1   B_VECTNIL+18
        15 004054   000000 701000 xent               TSX1    XUO$SREF
        15 004055   000000 011000                    NOP     0

      979    19432    8                           SYM.PRF = I;

  19432 15 004056   001214 470400 1                  LDP0    SYM_+2
        15 004057   200006 236100                    LDQ     I,,AUTO
        15 004060   000011 736000                    QLS     9
        15 004061   000001 552130                    STBQ    1,'30'O,PR0

      980    19433    8                           END;

      981    19434    7                        IF NOT SYM.XPREF THEN

  19434 15 004062   001214 470400 1                  LDP0    SYM_+2
        15 004063   000001 236100                    LDQ     1,,PR0
        15 004064   040000 316003                    CANQ    16384,DU
        15 004065   004067 601000 15                 TNZ     s:19436

      982    19435    7                           NPREFS = NPREFS + 1;

  19435 15 004066   200067 054100                    AOS     NPREFS,,AUTO

      983    19436    7                        SYM.DEF = '0'B;

  19436 15 004067   000031 236000 xsym               LDQ     B_VECTNIL+25
        15 004070   000001 356100                    ANSQ    1,,PR0
PL6.E3A0      #001=XUP$PARTRGE File=XUP$PARTRGE.:E05TSI                          WED 07/30/97 09:39 Page:166

      984    19437    7                        END;

  19437 15 004071   004076 710000 15                 TRA     s:19439

      985    19438    6                     ELSE I = SYM.PRF;

  19438 15 004072   100001 236100                    LDQ     1,,PR1
        15 004073   000011 772000                    QRL     9
        15 004074   777777 376007                    ANQ     -1,DL
        15 004075   200006 756100                    STQ     I,,AUTO

      986    19439    6                     IF GENERATE_OU

  19439 15 004076   200062 234100                    SZN     GENERATE_OU,,AUTO
        15 004077   004221 605000 15                 TPL     s:19457

      987    19440    7                     THEN DO;

      988    19441    7                        CALL XUO$PRGM (SECTION, LOC_OFFSET + J + 1, 0);

  19441 15 004100   200057 236100                    LDQ     LOC_OFFSET,,AUTO
        15 004101   200007 036100                    ADLQ    J,,AUTO
        15 004102   000001 036007                    ADLQ    1,DL
        15 004103   200116 756100                    STQ     NEW_OFFSET+1,,AUTO
        15 004104   000032 236000 16                 LDQ     26
        15 004105   200121 756100                    STQ     NEW_OFFSET+4,,AUTO
        15 004106   200116 630500                    EPPR0   NEW_OFFSET+1,,AUTO
        15 004107   200120 450500                    STP0    NEW_OFFSET+3,,AUTO
        15 004110   200055 631500                    EPPR1   SECTION,,AUTO
        15 004111   200117 451500                    STP1    NEW_OFFSET+2,,AUTO
        15 004112   200117 630500                    EPPR0   NEW_OFFSET+2,,AUTO
        15 004113   000021 631400 xsym               EPPR1   B_VECTNIL+17
        15 004114   000000 701000 xent               TSX1    XUO$PRGM
        15 004115   000000 011000                    NOP     0

      989    19442    7                        IF PP.AREA_REF
PL6.E3A0      #001=XUP$PARTRGE File=XUP$PARTRGE.:E05TSI                          WED 07/30/97 09:39 Page:167

  19442 15 004116   001432 235000 1                  LDA     PP+13
        15 004117   004145 600000 15                 TZE     s:19447

      990    19443    7                        THEN
      991    19444    7                           CALL XUO$RELOC (SECTION, LOC_OFFSET + J + 1,

  19444 15 004120   200057 236100                    LDQ     LOC_OFFSET,,AUTO
        15 004121   200007 036100                    ADLQ    J,,AUTO
        15 004122   000001 036007                    ADLQ    1,DL
        15 004123   200116 756100                    STQ     NEW_OFFSET+1,,AUTO
        15 004124   000066 237000 16                 LDAQ    54
        15 004125   200124 757100                    STAQ    NEW_OFFSET+7,,AUTO
        15 004126   000045 236000 16                 LDQ     37
        15 004127   200123 756100                    STQ     NEW_OFFSET+6,,AUTO
        15 004130   200006 630500                    EPPR0   I,,AUTO
        15 004131   200122 450500                    STP0    NEW_OFFSET+5,,AUTO
        15 004132   000056 236000 16                 LDQ     46
        15 004133   200121 756100                    STQ     NEW_OFFSET+4,,AUTO
        15 004134   200116 631500                    EPPR1   NEW_OFFSET+1,,AUTO
        15 004135   200120 451500                    STP1    NEW_OFFSET+3,,AUTO
        15 004136   200055 633500                    EPPR3   SECTION,,AUTO
        15 004137   200117 453500                    STP3    NEW_OFFSET+2,,AUTO
        15 004140   200117 630500                    EPPR0   NEW_OFFSET+2,,AUTO
        15 004141   000025 631400 xsym               EPPR1   B_VECTNIL+21
        15 004142   000000 701000 xent               TSX1    XUO$RELOC
        15 004143   000000 011000                    NOP     0
        15 004144   004215 710000 15                 TRA     s:19452

      992    19445    7                             %OPERSEGREF, I, %RELOCOPADD, 0, 35);
      993    19446    8                        ELSE DO;

      994    19447    8                           CALL XUO$RELOC (SECTION, LOC_OFFSET + J + 1, %OPERSREF,

  19447 15 004145   200057 236100                    LDQ     LOC_OFFSET,,AUTO
        15 004146   200007 036100                    ADLQ    J,,AUTO
        15 004147   000001 036007                    ADLQ    1,DL
PL6.E3A0      #001=XUP$PARTRGE File=XUP$PARTRGE.:E05TSI                          WED 07/30/97 09:39 Page:168
        15 004150   200116 756100                    STQ     NEW_OFFSET+1,,AUTO
        15 004151   000070 237000 16                 LDAQ    56
        15 004152   200124 757100                    STAQ    NEW_OFFSET+7,,AUTO
        15 004153   000045 236000 16                 LDQ     37
        15 004154   200123 756100                    STQ     NEW_OFFSET+6,,AUTO
        15 004155   200006 630500                    EPPR0   I,,AUTO
        15 004156   200122 450500                    STP0    NEW_OFFSET+5,,AUTO
        15 004157   000072 236000 16                 LDQ     58
        15 004160   200121 756100                    STQ     NEW_OFFSET+4,,AUTO
        15 004161   200116 631500                    EPPR1   NEW_OFFSET+1,,AUTO
        15 004162   200120 451500                    STP1    NEW_OFFSET+3,,AUTO
        15 004163   200055 633500                    EPPR3   SECTION,,AUTO
        15 004164   200117 453500                    STP3    NEW_OFFSET+2,,AUTO
        15 004165   200117 630500                    EPPR0   NEW_OFFSET+2,,AUTO
        15 004166   000025 631400 xsym               EPPR1   B_VECTNIL+21
        15 004167   000000 701000 xent               TSX1    XUO$RELOC
        15 004170   000000 011000                    NOP     0

      995    19448    8                             I, %RELOCOPADD, 0, 17);
      996    19449    8                           CALL XUO$RELOC (SECTION, LOC_OFFSET + J + 1,

  19449 15 004171   200057 236100                    LDQ     LOC_OFFSET,,AUTO
        15 004172   200007 036100                    ADLQ    J,,AUTO
        15 004173   000001 036007                    ADLQ    1,DL
        15 004174   200116 756100                    STQ     NEW_OFFSET+1,,AUTO
        15 004175   000074 237000 16                 LDAQ    60
        15 004176   200124 757100                    STAQ    NEW_OFFSET+7,,AUTO
        15 004177   000045 236000 16                 LDQ     37
        15 004200   200123 756100                    STQ     NEW_OFFSET+6,,AUTO
        15 004201   200056 630500                    EPPR0   ISSID_SEGREF_NUMBER,,AUTO
        15 004202   200122 450500                    STP0    NEW_OFFSET+5,,AUTO
        15 004203   000056 236000 16                 LDQ     46
        15 004204   200121 756100                    STQ     NEW_OFFSET+4,,AUTO
        15 004205   200116 631500                    EPPR1   NEW_OFFSET+1,,AUTO
        15 004206   200120 451500                    STP1    NEW_OFFSET+3,,AUTO
        15 004207   200055 633500                    EPPR3   SECTION,,AUTO
        15 004210   200117 453500                    STP3    NEW_OFFSET+2,,AUTO
PL6.E3A0      #001=XUP$PARTRGE File=XUP$PARTRGE.:E05TSI                          WED 07/30/97 09:39 Page:169
        15 004211   200117 630500                    EPPR0   NEW_OFFSET+2,,AUTO
        15 004212   000025 631400 xsym               EPPR1   B_VECTNIL+21
        15 004213   000000 701000 xent               TSX1    XUO$RELOC
        15 004214   000000 011000                    NOP     0

      997    19450    8                             %OPERSEGREF, ISSID_SEGREF_NUMBER, %RELOCOPADD, 24,35);
      998    19451    8                           END;

      999    19452    7                        EMIT_STANDARD = '0'B;

  19452 15 004215   200060 450100                    STZ     EMIT_STANDARD,,AUTO

     1000    19453    7                        END;

     1001    19454    6                     END;

  19454 15 004216   004221 710000 15                 TRA     s:19457

     1002    19455    5                  ELSE NODE.SUBNDS$(J)=SYM.NODE$;

  19455 15 004217   100000 236100                    LDQ     0,,PR1
        15 004220   000001 756110                    STQ     1,X0,PR0

     1003    19456    5                  END;

     1004    19457    4               IF EMIT_STANDARD AND GENERATE_OU

  19457 15 004221   200060 234100                    SZN     EMIT_STANDARD,,AUTO
        15 004222   004320 605000 15                 TPL     s:19467
        15 004223   200062 234100                    SZN     GENERATE_OU,,AUTO
        15 004224   004320 605000 15                 TPL     s:19467

     1005    19458    5               THEN DO;

     1006    19459    5                  PSEUDO_POINTER.DISP = NODE.SUBNDS.DISP(J);

  19459 15 004225   001210 470400 1                  LDP0    NODE_+2
PL6.E3A0      #001=XUP$PARTRGE File=XUP$PARTRGE.:E05TSI                          WED 07/30/97 09:39 Page:170
        15 004226   200007 720100                    LXL0    J,,AUTO
        15 004227   000001 221110                    LDX1    1,X0,PR0
        15 004230   200064 741100                    STX1    PSEUDO_POINTER,,AUTO

     1007    19460    5                  PSEUDO_POINTER.SEG = '0'O;

  19460 15 004231   000000 222003                    LDX2    0,DU
        15 004232   200064 442100                    SXL2    PSEUDO_POINTER,,AUTO

     1008    19461    5                  CALL XUO$PRGM (SECTION, LOC_OFFSET + J + 1, PSEUDO_POINTER);

  19461 15 004233   200057 236100                    LDQ     LOC_OFFSET,,AUTO
        15 004234   200007 036100                    ADLQ    J,,AUTO
        15 004235   000001 036007                    ADLQ    1,DL
        15 004236   200116 756100                    STQ     NEW_OFFSET+1,,AUTO
        15 004237   200064 631500                    EPPR1   PSEUDO_POINTER,,AUTO
        15 004240   200121 451500                    STP1    NEW_OFFSET+4,,AUTO
        15 004241   200116 633500                    EPPR3   NEW_OFFSET+1,,AUTO
        15 004242   200120 453500                    STP3    NEW_OFFSET+3,,AUTO
        15 004243   200055 634500                    EPPR4   SECTION,,AUTO
        15 004244   200117 454500                    STP4    NEW_OFFSET+2,,AUTO
        15 004245   200117 630500                    EPPR0   NEW_OFFSET+2,,AUTO
        15 004246   000021 631400 xsym               EPPR1   B_VECTNIL+17
        15 004247   000000 701000 xent               TSX1    XUO$PRGM
        15 004250   000000 011000                    NOP     0

     1009    19462    5                  CALL XUO$RELOC (SECTION, LOC_OFFSET + J + 1, %OPERSECT,

  19462 15 004251   200057 236100                    LDQ     LOC_OFFSET,,AUTO
        15 004252   200007 036100                    ADLQ    J,,AUTO
        15 004253   000001 036007                    ADLQ    1,DL
        15 004254   200116 756100                    STQ     NEW_OFFSET+1,,AUTO
        15 004255   000070 237000 16                 LDAQ    56
        15 004256   200124 757100                    STAQ    NEW_OFFSET+7,,AUTO
        15 004257   000045 236000 16                 LDQ     37
        15 004260   200123 756100                    STQ     NEW_OFFSET+6,,AUTO
        15 004261   200055 630500                    EPPR0   SECTION,,AUTO
PL6.E3A0      #001=XUP$PARTRGE File=XUP$PARTRGE.:E05TSI                          WED 07/30/97 09:39 Page:171
        15 004262   200122 450500                    STP0    NEW_OFFSET+5,,AUTO
        15 004263   200121 756100                    STQ     NEW_OFFSET+4,,AUTO
        15 004264   200116 631500                    EPPR1   NEW_OFFSET+1,,AUTO
        15 004265   200120 451500                    STP1    NEW_OFFSET+3,,AUTO
        15 004266   200055 633500                    EPPR3   SECTION,,AUTO
        15 004267   200117 453500                    STP3    NEW_OFFSET+2,,AUTO
        15 004270   200117 630500                    EPPR0   NEW_OFFSET+2,,AUTO
        15 004271   000025 631400 xsym               EPPR1   B_VECTNIL+21
        15 004272   000000 701000 xent               TSX1    XUO$RELOC
        15 004273   000000 011000                    NOP     0

     1010    19463    5                    SECTION, %RELOCOPADD, 0, 17);
     1011    19464    5                  CALL XUO$RELOC (SECTION, LOC_OFFSET + J + 1, %OPERSEGREF,

  19464 15 004274   200057 236100                    LDQ     LOC_OFFSET,,AUTO
        15 004275   200007 036100                    ADLQ    J,,AUTO
        15 004276   000001 036007                    ADLQ    1,DL
        15 004277   200116 756100                    STQ     NEW_OFFSET+1,,AUTO
        15 004300   000074 237000 16                 LDAQ    60
        15 004301   200124 757100                    STAQ    NEW_OFFSET+7,,AUTO
        15 004302   000045 236000 16                 LDQ     37
        15 004303   200123 756100                    STQ     NEW_OFFSET+6,,AUTO
        15 004304   200056 630500                    EPPR0   ISSID_SEGREF_NUMBER,,AUTO
        15 004305   200122 450500                    STP0    NEW_OFFSET+5,,AUTO
        15 004306   000056 236000 16                 LDQ     46
        15 004307   200121 756100                    STQ     NEW_OFFSET+4,,AUTO
        15 004310   200116 631500                    EPPR1   NEW_OFFSET+1,,AUTO
        15 004311   200120 451500                    STP1    NEW_OFFSET+3,,AUTO
        15 004312   200055 633500                    EPPR3   SECTION,,AUTO
        15 004313   200117 453500                    STP3    NEW_OFFSET+2,,AUTO
        15 004314   200117 630500                    EPPR0   NEW_OFFSET+2,,AUTO
        15 004315   000025 631400 xsym               EPPR1   B_VECTNIL+21
        15 004316   000000 701000 xent               TSX1    XUO$RELOC
        15 004317   000000 011000                    NOP     0

     1012    19465    5                    ISSID_SEGREF_NUMBER, %RELOCOPADD, 24, 35);
     1013    19466    5                  END;
PL6.E3A0      #001=XUP$PARTRGE File=XUP$PARTRGE.:E05TSI                          WED 07/30/97 09:39 Page:172

     1014    19467    4              IF COREFPT.BUF_.BUF$=NODE_.FIRST$ THEN NODE.SUBNDS.SEG(J)=NODE_.SEG.SEG;

  19467 15 004320   000301 236000 1                  LDQ     COREFPT+5
        15 004321   001207 116000 1                  CMPQ    NODE_+1
        15 004322   004330 601000 15                 TNZ     s:19469

  19467 15 004323   001207 720000 1                  LXL0    NODE_+1
        15 004324   001210 470400 1                  LDP0    NODE_+2
        15 004325   200007 721100                    LXL1    J,,AUTO
        15 004326   000001 440111                    SXL0    1,X1,PR0
        15 004327   004337 710000 15                 TRA     s:19472

     1015    19468    5               ELSE DO;

     1016    19469    5                  NODE.SUBNDS.SEG(J)=0;

  19469 15 004330   000000 220003                    LDX0    0,DU
        15 004331   001210 470400 1                  LDP0    NODE_+2
        15 004332   200007 721100                    LXL1    J,,AUTO
        15 004333   000001 440111                    SXL0    1,X1,PR0

     1017    19470    5                  WORK_.P$=PINCRW(WORK_.P$,2);

  19470 15 004334   001204 236000 1                  LDQ     WORK_+2
        15 004335   000002 036003                    ADLQ    2,DU
        15 004336   001204 756000 1                  STQ     WORK_+2

     1018    19471    5                  END;

     1019    19472    4               J=J+1;

  19472 15 004337   200007 054100                    AOS     J,,AUTO

     1020    19473    4               END;

  19473 15 004340   001210 470400 1                  LDP0    NODE_+2
PL6.E3A0      #001=XUP$PARTRGE File=XUP$PARTRGE.:E05TSI                          WED 07/30/97 09:39 Page:173
        15 004341   000000 236100                    LDQ     0,,PR0
        15 004342   000020 772000                    QRL     16
        15 004343   000777 376007                    ANQ     511,DL
        15 004344   200007 116100                    CMPQ    J,,AUTO
        15 004345   003755 605400 15                 TPNZ    s:19416
        15 004346   004433 710000 15                 TRA     s:19491

     1021    19474    3         CASE(%TYPE_LITERAL#);

     1022    19475    3            J=SIZEW(NODEL) - 1;

  19475 15 004347   000001 236100                    LDQ     1,,PR0
        15 004350   000033 772000                    QRL     27
        15 004351   000005 620006                    EAX0    5,QL
        15 004352   000000 636010                    EAQ     0,X0
        15 004353   000022 772000                    QRL     18
        15 004354   000011 402007                    MPY     9,DL
        15 004355   000043 036007                    ADLQ    35,DL
        15 004356   000044 506007                    DIV     36,DL
        15 004357   000001 136007                    SBLQ    1,DL
        15 004360   200007 756100                    STQ     J,,AUTO

     1023    19476    3            CALL EMIT_WORDS;

  19476 15 004361   006321 701000 15                 TSX1    EMIT_WORDS
        15 004362   000000 011000                    NOP     0
        15 004363   004433 710000 15                 TRA     s:19491

     1024    19477    3         CASE (%TYPE_LEXEME#);

     1025    19478    4            DO CASE (NODES.LEXTYPE);

  19478 15 004364   000000 236100                    LDQ     0,,PR0
        15 004365   000020 772000                    QRL     16
        15 004366   000037 376007                    ANQ     31,DL
        15 004367   000024 136007                    SBLQ    20,DL
        15 004370   000014 116007                    CMPQ    12,DL
PL6.E3A0      #001=XUP$PARTRGE File=XUP$PARTRGE.:E05TSI                          WED 07/30/97 09:39 Page:174
        15 004371   004373 602006 15                 TNC     s:19478+7,QL
        15 004372   004414 710000 15                 TRA     s:19484
        15 004373   004433 710000 15                 TRA     s:19491
        15 004374   004433 710000 15                 TRA     s:19491
        15 004375   004414 710000 15                 TRA     s:19484
        15 004376   004414 710000 15                 TRA     s:19484
        15 004377   004414 710000 15                 TRA     s:19484
        15 004400   004414 710000 15                 TRA     s:19484
        15 004401   004414 710000 15                 TRA     s:19484
        15 004402   004414 710000 15                 TRA     s:19484
        15 004403   004414 710000 15                 TRA     s:19484
        15 004404   004414 710000 15                 TRA     s:19484
        15 004405   004414 710000 15                 TRA     s:19484
        15 004406   004407 710000 15                 TRA     s:19481

     1026    19479    4            CASE(%LEX_END#,%LEX_BLANK#);

     1027    19480    4            CASE(%LEX_DSTRING#);

     1028    19481    4               J=1;

  19481 15 004407   000001 235007                    LDA     1,DL
        15 004410   200007 755100                    STA     J,,AUTO

     1029    19482    4               CALL EMIT_WORDS;

  19482 15 004411   006321 701000 15                 TSX1    EMIT_WORDS
        15 004412   000000 011000                    NOP     0
        15 004413   004433 710000 15                 TRA     s:19491

     1030    19483    4            CASE(ELSE);

     1031    19484    4               IF NODES.XTRA

  19484 15 004414   000000 236100                    LDQ     0,,PR0
        15 004415   000040 316003                    CANQ    32,DU
        15 004416   004433 600000 15                 TZE     s:19491
PL6.E3A0      #001=XUP$PARTRGE File=XUP$PARTRGE.:E05TSI                          WED 07/30/97 09:39 Page:175

     1032    19485    5               THEN DO;

     1033    19486    5                  J = SIZEW(NODES) - 1;

  19486 15 004417   000001 220100                    LDX0    1,,PR0
        15 004420   000777 360003                    ANX0    511,DU
        15 004421   000006 621010                    EAX1    6,X0
        15 004422   000000 636011                    EAQ     0,X1
        15 004423   000022 772000                    QRL     18
        15 004424   000011 402007                    MPY     9,DL
        15 004425   000043 036007                    ADLQ    35,DL
        15 004426   000044 506007                    DIV     36,DL
        15 004427   000001 136007                    SBLQ    1,DL
        15 004430   200007 756100                    STQ     J,,AUTO

     1034    19487    5                  CALL EMIT_WORDS;

  19487 15 004431   006321 701000 15                 TSX1    EMIT_WORDS
        15 004432   000000 011000                    NOP     0

     1035    19488    5                  END;

     1036    19489    4            END;

     1037    19490    3         END;

     1038    19491    2         NODE_.P$=PINCRW(NODE_.P$,J+1);

  19491 15 004433   200007 236100                    LDQ     J,,AUTO
        15 004434   000022 736000                    QLS     18
        15 004435   000001 036003                    ADLQ    1,DU
        15 004436   001210 036000 1                  ADLQ    NODE_+2
        15 004437   001210 756000 1                  STQ     NODE_+2

     1039    19492    2         END;

PL6.E3A0      #001=XUP$PARTRGE File=XUP$PARTRGE.:E05TSI                          WED 07/30/97 09:39 Page:176
  19492 15 004440   001211 116000 1                  CMPQ    NODE_+3
        15 004441   003707 602000 15                 TNC     s:19408

     1040    19493    1      J=0;

  19493 15 004442   200007 450100                    STZ     J,,AUTO

     1041    19494    1      SYM_.P$=SYM_.FIRST$;

  19494 15 004443   001213 236000 1                  LDQ     SYM_+1
        15 004444   001214 756000 1                  STQ     SYM_+2

     1042    19495    2      DO WHILE(SYM_.P$<SYM_.NEXT$);

  19495 15 004445   001215 116000 1                  CMPQ    SYM_+3
        15 004446   004543 603000 15                 TRC     s:19510

     1043    19496    3         IF SYM.VAL>=0 THEN DO;

  19496 15 004447   001214 470400 1                  LDP0    SYM_+2
        15 004450   000000 235100                    LDA     0,,PR0
        15 004451   004536 604000 15                 TMI     s:19508

     1044    19497    3            WORK_.P$=ADDR(J);

  19497 15 004452   200007 631500                    EPPR1   J,,AUTO
        15 004453   001204 451400 1                  STP1    WORK_+2

     1045    19498    3            NODE_.P$=PINCRW(SYM_.NEXT$,J);

  19498 15 004454   200007 236100                    LDQ     J,,AUTO
        15 004455   000022 736000                    QLS     18
        15 004456   001215 036000 1                  ADLQ    SYM_+3
        15 004457   001210 756000 1                  STQ     NODE_+2

     1046    19499    4            DO WHILE (NODE_.P$~=SYM_.NEXT$

PL6.E3A0      #001=XUP$PARTRGE File=XUP$PARTRGE.:E05TSI                          WED 07/30/97 09:39 Page:177
  19499 15 004460   004470 710000 15                 TRA     s:19503

     1047    19500    4              AND SYM.T>NODE_.P$->SYM.T);
     1048    19501    4               WORK_.P$=NODE_.P$;

  19501 15 004461   001210 236000 1                  LDQ     NODE_+2
        15 004462   001204 756000 1                  STQ     WORK_+2

     1049    19502    4               NODE_.P$=PINCRW(SYM_.NEXT$,WORK_.P$->SYM.LNK.LNK);

  19502 15 004463   001204 470400 1                  LDP0    WORK_+2
        15 004464   000000 720100                    LXL0    0,,PR0
        15 004465   000000 636010                    EAQ     0,X0
        15 004466   001215 036000 1                  ADLQ    SYM_+3
        15 004467   001210 756000 1                  STQ     NODE_+2

     1050    19503    4               END;

  19503 15 004470   001215 116000 1                  CMPQ    SYM_+3
        15 004471   004504 600000 15                 TZE     s:19504
        15 004472   001214 470400 1                  LDP0    SYM_+2
        15 004473   000001 720100                    LXL0    1,,PR0
        15 004474   000777 360003                    ANX0    511,DU
        15 004475   001210 471400 1                  LDP1    NODE_+2
        15 004476   100001 721100                    LXL1    1,,PR1
        15 004477   000777 361003                    ANX1    511,DU
        15 004500   040140 106540                    CMPC    fill='040'O
        15 004501   100002 000011                    ADSC9   2,,PR1                   cn=0,n=*X1
        15 004502   000002 000010                    ADSC9   2,,PR0                   cn=0,n=*X0
        15 004503   004461 602000 15                 TNC     s:19501

     1051    19504    3            SYM.LNK.LNK=WORK_.P$->SYM.LNK.LNK;

  19504 15 004504   001204 470400 1                  LDP0    WORK_+2
        15 004505   000000 720100                    LXL0    0,,PR0
        15 004506   001214 471400 1                  LDP1    SYM_+2
        15 004507   100000 440100                    SXL0    0,,PR1
PL6.E3A0      #001=XUP$PARTRGE File=XUP$PARTRGE.:E05TSI                          WED 07/30/97 09:39 Page:178

     1052    19505    3            WORK_.P$->SYM.LNK.LNK=POFFW(SYM_.P$,SYM_.NEXT$);

  19505 15 004510   001215 235000 1                  LDA     SYM_+3
        15 004511   000022 771000                    ARL     18
        15 004512   200116 755100                    STA     NEW_OFFSET+1,,AUTO
        15 004513   001214 236000 1                  LDQ     SYM_+2
        15 004514   000022 772000                    QRL     18
        15 004515   200116 136100                    SBLQ    NEW_OFFSET+1,,AUTO
        15 004516   000000 620006                    EAX0    0,QL
        15 004517   001204 470400 1                  LDP0    WORK_+2
        15 004520   000000 440100                    SXL0    0,,PR0

     1053    19506    3            SYM_.P$=PINCRW(SYM_.P$,SIZEW(SYM));

  19506 15 004521   001214 470400 1                  LDP0    SYM_+2
        15 004522   000001 720100                    LXL0    1,,PR0
        15 004523   000777 360003                    ANX0    511,DU
        15 004524   000010 621010                    EAX1    8,X0
        15 004525   000000 636011                    EAQ     0,X1
        15 004526   000022 772000                    QRL     18
        15 004527   000011 402007                    MPY     9,DL
        15 004530   000043 036007                    ADLQ    35,DL
        15 004531   000044 506007                    DIV     36,DL
        15 004532   000022 736000                    QLS     18
        15 004533   001214 036000 1                  ADLQ    SYM_+2
        15 004534   001214 756000 1                  STQ     SYM_+2

     1054    19507    3            END;

  19507 15 004535   004541 710000 15                 TRA     s:19509

     1055    19508    2         ELSE SYM_.P$=PINCRW(SYM_.P$,1);

  19508 15 004536   001214 236000 1                  LDQ     SYM_+2
        15 004537   000001 036003                    ADLQ    1,DU
        15 004540   001214 756000 1                  STQ     SYM_+2
PL6.E3A0      #001=XUP$PARTRGE File=XUP$PARTRGE.:E05TSI                          WED 07/30/97 09:39 Page:179

     1056    19509    2         END;

  19509 15 004541   001215 116000 1                  CMPQ    SYM_+3
        15 004542   004447 602000 15                 TNC     s:19496

     1057    19510    2      IF GENERATE_CORE_IMAGE AND PP.OU AND PGMSIZE > 0 THEN DO;

  19510 15 004543   200061 234100                    SZN     GENERATE_CORE_IMAGE,,AUTO
        15 004544   004565 605000 15                 TPL     s:19515
        15 004545   001422 235000 1                  LDA     PP+5
        15 004546   004565 600000 15                 TZE     s:19515
        15 004547   200012 235100                    LDA     PGMSIZE,,AUTO
        15 004550   004565 604400 15                 TMOZ    s:19515

     1058    19511    2         CALL M$WRITE(COREFPT)ALTRET(MONERR);

  19511 15 004551   000274 630400 1                  EPPR0   COREFPT
        15 004552   440001 713400                    CLIMB   alt,write
        15 004553   401400 401760                    pmme    nvectors=4
        15 004554   002672 702000 15                 TSX2    MONERR

     1059    19512    2         OUCLS.V.DCB#=DCBNUM(M$CORE);

  19512 15 004555   000000 236007 xsym               LDQ     M$CORE,DL
        15 004556   000000 620006                    EAX0    0,QL
        15 004557   000342 740000 1                  STX0    OUCLS+26

     1060    19513    2         CALL M$CLOSE(OUCLS)ALTRET(MONERR);

  19513 15 004560   000310 630400 1                  EPPR0   OUCLS
        15 004561   450001 713400                    CLIMB   alt,close
        15 004562   406000 401760                    pmme    nvectors=13
        15 004563   002672 702000 15                 TSX2    MONERR

     1061    19514    2         END;

PL6.E3A0      #001=XUP$PARTRGE File=XUP$PARTRGE.:E05TSI                          WED 07/30/97 09:39 Page:180
  19514 15 004564   005606 710000 15                 TRA     s:19645

     1062    19515    2      ELSE IF GENERATE_OU THEN DO;

  19515 15 004565   200062 234100                    SZN     GENERATE_OU,,AUTO
        15 004566   005606 605000 15                 TPL     s:19645

     1063    19516    2            SYM_.P$ = PINCRW (SYM_.NEXT$, J);

  19516 15 004567   200007 236100                    LDQ     J,,AUTO
        15 004570   000022 736000                    QLS     18
        15 004571   001215 036000 1                  ADLQ    SYM_+3
        15 004572   001214 756000 1                  STQ     SYM_+2

     1064    19517    3            DO WHILE (SYM_.P$ ~= SYM_.NEXT$);

  19517 15 004573   001215 116000 1                  CMPQ    SYM_+3
        15 004574   005514 600000 15                 TZE     s:19626

     1065    19518    3               IF SYM.DEF AND (SYM.X OR NOT SYM.USED)

  19518 15 004575   001214 470400 1                  LDP0    SYM_+2
        15 004576   000001 234100                    SZN     1,,PR0
        15 004577   004647 605000 15                 TPL     s:19526
        15 004600   000001 236100                    LDQ     1,,PR0
        15 004601   100000 316003                    CANQ    32768,DU
        15 004602   004605 601000 15                 TNZ     s:19520
        15 004603   200000 316003                    CANQ    65536,DU
        15 004604   004647 601000 15                 TNZ     s:19526

     1066    19519    4               THEN DO;

     1067    19520    4                  P_NAME.COUNT = SYM.C;

  19520 15 004605   000001 720100                    LXL0    1,,PR0
        15 004606   000777 360003                    ANX0    511,DU
        15 004607   200013 740100                    STX0    P_NAME,,AUTO
PL6.E3A0      #001=XUP$PARTRGE File=XUP$PARTRGE.:E05TSI                          WED 07/30/97 09:39 Page:181

     1068    19521    4                  P_NAME.TEXT = SYM.T;

  19521 15 004610   000001 721100                    LXL1    1,,PR0
        15 004611   000777 361003                    ANX1    511,DU
        15 004612   040100 100540                    MLR     fill='040'O
        15 004613   000002 000011                    ADSC9   2,,PR0                   cn=0,n=*X1
        15 004614   200013 400037                    ADSC9   P_NAME,,AUTO             cn=2,n=31

     1069    19522    4                  CALL XUO$DNAME (P_NAME, P_NAME_POINTER);

  19522 15 004615   200024 631500                    EPPR1   P_NAME_POINTER,,AUTO
        15 004616   200117 451500                    STP1    NEW_OFFSET+2,,AUTO
        15 004617   200013 633500                    EPPR3   P_NAME,,AUTO
        15 004620   200116 453500                    STP3    NEW_OFFSET+1,,AUTO
        15 004621   200116 630500                    EPPR0   NEW_OFFSET+1,,AUTO
        15 004622   000020 631400 xsym               EPPR1   B_VECTNIL+16
        15 004623   000000 701000 xent               TSX1    XUO$DNAME
        15 004624   000000 011000                    NOP     0

     1070    19523    4                  CALL XUO$SDEF (P_NAME_POINTER, SECTION,

  19523 15 004625   001207 235000 1                  LDA     NODE_+1
        15 004626   000022 771000                    ARL     18
        15 004627   200116 755100                    STA     NEW_OFFSET+1,,AUTO
        15 004630   001214 470400 1                  LDP0    SYM_+2
        15 004631   000000 236100                    LDQ     0,,PR0
        15 004632   000022 772000                    QRL     18
        15 004633   200116 136100                    SBLQ    NEW_OFFSET+1,,AUTO
        15 004634   200117 756100                    STQ     NEW_OFFSET+2,,AUTO
        15 004635   200117 631500                    EPPR1   NEW_OFFSET+2,,AUTO
        15 004636   200122 451500                    STP1    NEW_OFFSET+5,,AUTO
        15 004637   200055 633500                    EPPR3   SECTION,,AUTO
        15 004640   200121 453500                    STP3    NEW_OFFSET+4,,AUTO
        15 004641   200024 634500                    EPPR4   P_NAME_POINTER,,AUTO
        15 004642   200120 454500                    STP4    NEW_OFFSET+3,,AUTO
        15 004643   200120 630500                    EPPR0   NEW_OFFSET+3,,AUTO
PL6.E3A0      #001=XUP$PARTRGE File=XUP$PARTRGE.:E05TSI                          WED 07/30/97 09:39 Page:182
        15 004644   000021 631400 xsym               EPPR1   B_VECTNIL+17
        15 004645   000000 701000 xent               TSX1    XUO$SDEF
        15 004646   000000 011000                    NOP     0

     1071    19524    4                    POFFW(SYM.NODE$, NODE_.FIRST$));
     1072    19525    4                  END;

     1073    19526    3               IF PP.SCHEMA

  19526 15 004647   001431 235000 1                  LDA     PP+12
        15 004650   005505 600000 15                 TZE     s:19624

     1074    19527    4               THEN DO;

     1075    19528    4                  P_NAME.COUNT = SYM.C;

  19528 15 004651   001214 470400 1                  LDP0    SYM_+2
        15 004652   000001 720100                    LXL0    1,,PR0
        15 004653   000777 360003                    ANX0    511,DU
        15 004654   200013 740100                    STX0    P_NAME,,AUTO

     1076    19529    4                  P_NAME.TEXT = SYM.T;

  19529 15 004655   000001 721100                    LXL1    1,,PR0
        15 004656   000777 361003                    ANX1    511,DU
        15 004657   040100 100540                    MLR     fill='040'O
        15 004660   000002 000011                    ADSC9   2,,PR0                   cn=0,n=*X1
        15 004661   200013 400037                    ADSC9   P_NAME,,AUTO             cn=2,n=31

     1077    19530    4                  CALL XUO$DBGNAME (P_NAME, P_NAME_POINTER);

  19530 15 004662   200024 631500                    EPPR1   P_NAME_POINTER,,AUTO
        15 004663   200117 451500                    STP1    NEW_OFFSET+2,,AUTO
        15 004664   200013 633500                    EPPR3   P_NAME,,AUTO
        15 004665   200116 453500                    STP3    NEW_OFFSET+1,,AUTO
        15 004666   200116 630500                    EPPR0   NEW_OFFSET+1,,AUTO
        15 004667   000020 631400 xsym               EPPR1   B_VECTNIL+16
PL6.E3A0      #001=XUP$PARTRGE File=XUP$PARTRGE.:E05TSI                          WED 07/30/97 09:39 Page:183
        15 004670   000000 701000 xent               TSX1    XUO$DBGNAME
        15 004671   000000 011000                    NOP     0

     1078    19531    4                  IF SYM.DEF

  19531 15 004672   001214 470400 1                  LDP0    SYM_+2
        15 004673   000001 234100                    SZN     1,,PR0
        15 004674   005505 605000 15                 TPL     s:19624

     1079    19532    5                  THEN DO;

     1080    19533    5                     NODE_.P$ = PINCRW(NODE_.FIRST$, SYM.XR.L#);

  19533 15 004675   000000 220100                    LDX0    0,,PR0
        15 004676   000000 636010                    EAQ     0,X0
        15 004677   001207 036000 1                  ADLQ    NODE_+1
        15 004700   001210 756000 1                  STQ     NODE_+2

     1081    19534    6                     DO CASE (NODE.TYPE);

  19534 15 004701   001210 471400 1                  LDP1    NODE_+2
        15 004702   100000 236100                    LDQ     0,,PR1
        15 004703   000041 772000                    QRL     33
        15 004704   000007 116007                    CMPQ    7,DL
        15 004705   004707 602006 15                 TNC     s:19534+6,QL
        15 004706   005006 710000 15                 TRA     s:19554
        15 004707   005006 710000 15                 TRA     s:19554
        15 004710   004716 710000 15                 TRA     s:19537
        15 004711   004716 710000 15                 TRA     s:19537
        15 004712   004716 710000 15                 TRA     s:19537
        15 004713   004716 710000 15                 TRA     s:19537
        15 004714   004724 710000 15                 TRA     s:19539
        15 004715   004736 710000 15                 TRA     s:19541

     1082    19535    6                     CASE (%TYPE_ALTERN#, %TYPE_KONCAT#, %TYPE_LIST#,

     1083    19536    6                       %TYPE_RALTERN#);
PL6.E3A0      #001=XUP$PARTRGE File=XUP$PARTRGE.:E05TSI                          WED 07/30/97 09:39 Page:184
     1084    19537    6                        I = NODE.NSUBNDS + 1;

  19537 15 004716   100000 236100                    LDQ     0,,PR1
        15 004717   000020 772000                    QRL     16
        15 004720   000777 376007                    ANQ     511,DL
        15 004721   000001 036007                    ADLQ    1,DL
        15 004722   200006 756100                    STQ     I,,AUTO
        15 004723   005006 710000 15                 TRA     s:19554

     1085    19538    6                     CASE (%TYPE_LITERAL#);

     1086    19539    6                        I = SIZEW(NODEL);

  19539 15 004724   100001 236100                    LDQ     1,,PR1
        15 004725   000033 772000                    QRL     27
        15 004726   000005 620006                    EAX0    5,QL
        15 004727   000000 636010                    EAQ     0,X0
        15 004730   000022 772000                    QRL     18
        15 004731   000011 402007                    MPY     9,DL
        15 004732   000043 036007                    ADLQ    35,DL
        15 004733   000044 506007                    DIV     36,DL
        15 004734   200006 756100                    STQ     I,,AUTO
        15 004735   005006 710000 15                 TRA     s:19554

     1087    19540    6                     CASE (%TYPE_LEXEME#);

     1088    19541    7                        DO CASE (NODES.LEXTYPE);

  19541 15 004736   100000 236100                    LDQ     0,,PR1
        15 004737   000020 772000                    QRL     16
        15 004740   000037 376007                    ANQ     31,DL
        15 004741   000024 136007                    SBLQ    20,DL
        15 004742   000014 116007                    CMPQ    12,DL
        15 004743   004745 602006 15                 TNC     s:19541+7,QL
        15 004744   004767 710000 15                 TRA     s:19547
        15 004745   004761 710000 15                 TRA     s:19543
        15 004746   004761 710000 15                 TRA     s:19543
PL6.E3A0      #001=XUP$PARTRGE File=XUP$PARTRGE.:E05TSI                          WED 07/30/97 09:39 Page:185
        15 004747   004767 710000 15                 TRA     s:19547
        15 004750   004767 710000 15                 TRA     s:19547
        15 004751   004767 710000 15                 TRA     s:19547
        15 004752   004767 710000 15                 TRA     s:19547
        15 004753   004767 710000 15                 TRA     s:19547
        15 004754   004767 710000 15                 TRA     s:19547
        15 004755   004767 710000 15                 TRA     s:19547
        15 004756   004767 710000 15                 TRA     s:19547
        15 004757   004767 710000 15                 TRA     s:19547
        15 004760   004764 710000 15                 TRA     s:19545

     1089    19542    7                        CASE (%LEX_END#, %LEX_BLANK#);

     1090    19543    7                           I = 1;

  19543 15 004761   000001 235007                    LDA     1,DL
        15 004762   200006 755100                    STA     I,,AUTO
        15 004763   005006 710000 15                 TRA     s:19554

     1091    19544    7                        CASE (%LEX_DSTRING#);

     1092    19545    7                           I = 2;

  19545 15 004764   000002 235007                    LDA     2,DL
        15 004765   200006 755100                    STA     I,,AUTO
        15 004766   005006 710000 15                 TRA     s:19554

     1093    19546    7                        CASE (ELSE);

     1094    19547    7                           IF NODES.XTRA

  19547 15 004767   100000 236100                    LDQ     0,,PR1
        15 004770   000040 316003                    CANQ    32,DU
        15 004771   005004 600000 15                 TZE     s:19551

     1095    19548    7                           THEN
     1096    19549    7                              I = SIZEW (NODES);
PL6.E3A0      #001=XUP$PARTRGE File=XUP$PARTRGE.:E05TSI                          WED 07/30/97 09:39 Page:186

  19549 15 004772   100001 220100                    LDX0    1,,PR1
        15 004773   000777 360003                    ANX0    511,DU
        15 004774   000006 621010                    EAX1    6,X0
        15 004775   000000 636011                    EAQ     0,X1
        15 004776   000022 772000                    QRL     18
        15 004777   000011 402007                    MPY     9,DL
        15 005000   000043 036007                    ADLQ    35,DL
        15 005001   000044 506007                    DIV     36,DL
        15 005002   200006 756100                    STQ     I,,AUTO
        15 005003   005006 710000 15                 TRA     s:19554

     1097    19550    7                           ELSE
     1098    19551    7                              I = 1;

  19551 15 005004   000001 235007                    LDA     1,DL
        15 005005   200006 755100                    STA     I,,AUTO

     1099    19552    7                        END;

     1100    19553    6                     END;

     1101    19554    5                     LOC_OFFSET = SYM.XR.L# * 36;

  19554 15 005006   000000 236100                    LDQ     0,,PR0
        15 005007   000022 732000                    QRS     18
        15 005010   000044 402007                    MPY     36,DL
        15 005011   200057 756100                    STQ     LOC_OFFSET,,AUTO

     1102    19555    5                     CALL XUO$VREBL (LOC_OFFSET,

  19555 15 005012   200006 236100                    LDQ     I,,AUTO
        15 005013   000044 402007                    MPY     36,DL
        15 005014   200116 756100                    STQ     NEW_OFFSET+1,,AUTO
        15 005015   200053 633500                    EPPR3   HIGHEST_VREBL_ENTRY,,AUTO
        15 005016   200141 453500                    STP3    NEW_OFFSET+20,,AUTO
        15 005017   200024 634500                    EPPR4   P_NAME_POINTER,,AUTO
PL6.E3A0      #001=XUP$PARTRGE File=XUP$PARTRGE.:E05TSI                          WED 07/30/97 09:39 Page:187
        15 005020   200140 454500                    STP4    NEW_OFFSET+19,,AUTO
        15 005021   000062 237000 16                 LDAQ    50
        15 005022   200136 757100                    STAQ    NEW_OFFSET+17,,AUTO
        15 005023   000032 236000 16                 LDQ     26
        15 005024   200135 756100                    STQ     NEW_OFFSET+16,,AUTO
        15 005025   200055 635500                    EPPR5   SECTION,,AUTO
        15 005026   200134 455500                    STP5    NEW_OFFSET+15,,AUTO
        15 005027   000100 237000 16                 LDAQ    64
        15 005030   200132 757100                    STAQ    NEW_OFFSET+13,,AUTO
        15 005031   000062 237000 16                 LDAQ    50
        15 005032   200130 757100                    STAQ    NEW_OFFSET+11,,AUTO
        15 005033   000102 237000 16                 LDAQ    66
        15 005034   200126 757100                    STAQ    NEW_OFFSET+9,,AUTO
        15 005035   200116 636500                    EPPR6   NEW_OFFSET+1,,AUTO
        15 005036   200125 456500                    STP6    NEW_OFFSET+8,,AUTO
        15 005037   000032 236000 16                 LDQ     26
        15 005040   200124 756100                    STQ     NEW_OFFSET+7,,AUTO
        15 005041   001214 236000 1                  LDQ     SYM_+2
        15 005042   000077 036000 16                 ADLQ    63
        15 005043   000071 235000 16                 LDA     57
        15 005044   200122 757100                    STAQ    NEW_OFFSET+5,,AUTO
        15 005045   000045 236000 16                 LDQ     37
        15 005046   200121 756100                    STQ     NEW_OFFSET+4,,AUTO
        15 005047   200057 637500                    EPPR7   LOC_OFFSET,,AUTO
        15 005050   200120 457500                    STP7    NEW_OFFSET+3,,AUTO
        15 005051   200120 630500                    EPPR0   NEW_OFFSET+3,,AUTO
        15 005052   000076 631400 16                 EPPR1   62
        15 005053   000000 701000 xent               TSX1    XUO$VREBL
        15 005054   000000 011000                    NOP     0

     1103    19556    5                       1 /* static */,
     1104    19557    5                       %STRUCTURE_DATATYPE,
     1105    19558    5                       SYM.USED /* referenced */,
     1106    19559    5                       '0'B /* modified */,
     1107    19560    5                       I*36 /* logical size */,
     1108    19561    5                       1 /* level */,
     1109    19562    5                       1 /* word aligned */,
PL6.E3A0      #001=XUP$PARTRGE File=XUP$PARTRGE.:E05TSI                          WED 07/30/97 09:39 Page:188
     1110    19563    5                       0 /* size is actual #, not name-ptr reference */,
     1111    19564    5                       %SCALAR_ARRAY /* not an array */,
     1112    19565    5                       %OPERSECT /* relocate via a section # */,
     1113    19566    5                       0 /* implied pointer; unused */,
     1114    19567    5                       SECTION /* section # to relocate */,
     1115    19568    5                       0 /* element size; unused */,
     1116    19569    5                       0 /* scale factor; unused */,
     1117    19570    5                       0 /* dims; unused */,
     1118    19571    5                       P_NAME_POINTER,
     1119    19572    5                       HIGHEST_VREBL_ENTRY);
     1120    19573    5                     CALL GENERATE_LEVEL2 (P_TYPE_NP, %UBIN_DATATYPE, 3);

  19573 15 005055   000001 236000 xsym               LDQ     B_VECTNIL+1
        15 005056   200110 756100                    STQ     @DATASIZE+1,,AUTO
        15 005057   000104 237000 16                 LDAQ    68
        15 005060   200106 757100                    STAQ    @NAME_POINTER+1,,AUTO
        15 005061   200025 630500                    EPPR0   P_TYPE_NP,,AUTO
        15 005062   200105 450500                    STP0    TRASH_NAME+9,,AUTO
        15 005063   006607 701000 15                 TSX1    GENERATE_LEVEL2
        15 005064   000000 011000                    NOP     0

     1121    19574    5                     CALL GENERATE_LEVEL2 (P_P_F_NP, %BIT_DATATYPE, 1);

  19574 15 005065   000001 236000 xsym               LDQ     B_VECTNIL+1
        15 005066   200110 756100                    STQ     @DATASIZE+1,,AUTO
        15 005067   000110 237000 16                 LDAQ    72
        15 005070   200106 757100                    STAQ    @NAME_POINTER+1,,AUTO
        15 005071   200026 630500                    EPPR0   P_P_F_NP,,AUTO
        15 005072   200105 450500                    STP0    TRASH_NAME+9,,AUTO
        15 005073   006607 701000 15                 TSX1    GENERATE_LEVEL2
        15 005074   000000 011000                    NOP     0

     1122    19575    5                     CALL GENERATE_LEVEL2 (P_S_F_NP, %BIT_DATATYPE, 1);

  19575 15 005075   000001 236000 xsym               LDQ     B_VECTNIL+1
        15 005076   200110 756100                    STQ     @DATASIZE+1,,AUTO
        15 005077   000110 237000 16                 LDAQ    72
PL6.E3A0      #001=XUP$PARTRGE File=XUP$PARTRGE.:E05TSI                          WED 07/30/97 09:39 Page:189
        15 005100   200106 757100                    STAQ    @NAME_POINTER+1,,AUTO
        15 005101   200027 630500                    EPPR0   P_S_F_NP,,AUTO
        15 005102   200105 450500                    STP0    TRASH_NAME+9,,AUTO
        15 005103   006607 701000 15                 TSX1    GENERATE_LEVEL2
        15 005104   000000 011000                    NOP     0

     1123    19576    5                     CALL GENERATE_LEVEL2 (P_F_F_NP, %BIT_DATATYPE, 1);

  19576 15 005105   000001 236000 xsym               LDQ     B_VECTNIL+1
        15 005106   200110 756100                    STQ     @DATASIZE+1,,AUTO
        15 005107   000110 237000 16                 LDAQ    72
        15 005110   200106 757100                    STAQ    @NAME_POINTER+1,,AUTO
        15 005111   200030 630500                    EPPR0   P_F_F_NP,,AUTO
        15 005112   200105 450500                    STP0    TRASH_NAME+9,,AUTO
        15 005113   006607 701000 15                 TSX1    GENERATE_LEVEL2
        15 005114   000000 011000                    NOP     0

     1124    19577    5                     CALL GENERATE_LEVEL2 (P_O_F_NP, %BIT_DATATYPE, 1);

  19577 15 005115   000001 236000 xsym               LDQ     B_VECTNIL+1
        15 005116   200110 756100                    STQ     @DATASIZE+1,,AUTO
        15 005117   000110 237000 16                 LDAQ    72
        15 005120   200106 757100                    STAQ    @NAME_POINTER+1,,AUTO
        15 005121   200031 630500                    EPPR0   P_O_F_NP,,AUTO
        15 005122   200105 450500                    STP0    TRASH_NAME+9,,AUTO
        15 005123   006607 701000 15                 TSX1    GENERATE_LEVEL2
        15 005124   000000 011000                    NOP     0

     1125    19578    5                     CALL GENERATE_LEVEL2 (P_OPT_NP, %BIT_DATATYPE, 1);

  19578 15 005125   000001 236000 xsym               LDQ     B_VECTNIL+1
        15 005126   200110 756100                    STQ     @DATASIZE+1,,AUTO
        15 005127   000110 237000 16                 LDAQ    72
        15 005130   200106 757100                    STAQ    @NAME_POINTER+1,,AUTO
        15 005131   200032 630500                    EPPR0   P_OPT_NP,,AUTO
        15 005132   200105 450500                    STP0    TRASH_NAME+9,,AUTO
        15 005133   006607 701000 15                 TSX1    GENERATE_LEVEL2
PL6.E3A0      #001=XUP$PARTRGE File=XUP$PARTRGE.:E05TSI                          WED 07/30/97 09:39 Page:190
        15 005134   000000 011000                    NOP     0

     1126    19579    5                     CALL GENERATE_LEVEL2 (P_RPEAT_NP, %BIT_DATATYPE, 1);

  19579 15 005135   000001 236000 xsym               LDQ     B_VECTNIL+1
        15 005136   200110 756100                    STQ     @DATASIZE+1,,AUTO
        15 005137   000110 237000 16                 LDAQ    72
        15 005140   200106 757100                    STAQ    @NAME_POINTER+1,,AUTO
        15 005141   200033 630500                    EPPR0   P_RPEAT_NP,,AUTO
        15 005142   200105 450500                    STP0    TRASH_NAME+9,,AUTO
        15 005143   006607 701000 15                 TSX1    GENERATE_LEVEL2
        15 005144   000000 011000                    NOP     0

     1127    19580    5                     CALL GENERATE_LEVEL2 (P_SKBL_NP, %BIT_DATATYPE, 1);

  19580 15 005145   000001 236000 xsym               LDQ     B_VECTNIL+1
        15 005146   200110 756100                    STQ     @DATASIZE+1,,AUTO
        15 005147   000110 237000 16                 LDAQ    72
        15 005150   200106 757100                    STAQ    @NAME_POINTER+1,,AUTO
        15 005151   200034 630500                    EPPR0   P_SKBL_NP,,AUTO
        15 005152   200105 450500                    STP0    TRASH_NAME+9,,AUTO
        15 005153   006607 701000 15                 TSX1    GENERATE_LEVEL2
        15 005154   000000 011000                    NOP     0

     1128    19581    5                     CALL GENERATE_LEVEL2 (P_RTEXT_NP, %BIT_DATATYPE, 1);

  19581 15 005155   000001 236000 xsym               LDQ     B_VECTNIL+1
        15 005156   200110 756100                    STQ     @DATASIZE+1,,AUTO
        15 005157   000110 237000 16                 LDAQ    72
        15 005160   200106 757100                    STAQ    @NAME_POINTER+1,,AUTO
        15 005161   200035 630500                    EPPR0   P_RTEXT_NP,,AUTO
        15 005162   200105 450500                    STP0    TRASH_NAME+9,,AUTO
        15 005163   006607 701000 15                 TSX1    GENERATE_LEVEL2
        15 005164   000000 011000                    NOP     0

     1129    19582    6                     DO CASE (NODE.TYPE);

PL6.E3A0      #001=XUP$PARTRGE File=XUP$PARTRGE.:E05TSI                          WED 07/30/97 09:39 Page:191
  19582 15 005165   001210 470400 1                  LDP0    NODE_+2
        15 005166   000000 236100                    LDQ     0,,PR0
        15 005167   000041 772000                    QRL     33
        15 005170   000007 116007                    CMPQ    7,DL
        15 005171   005173 602006 15                 TNC     s:19582+6,QL
        15 005172   005505 710000 15                 TRA     s:19624
        15 005173   005505 710000 15                 TRA     s:19624
        15 005174   005202 710000 15                 TRA     s:19585
        15 005175   005202 710000 15                 TRA     s:19585
        15 005176   005202 710000 15                 TRA     s:19585
        15 005177   005202 710000 15                 TRA     s:19585
        15 005200   005240 710000 15                 TRA     s:19591
        15 005201   005317 710000 15                 TRA     s:19598

     1130    19583    6                     CASE (%TYPE_ALTERN#, %TYPE_RALTERN#, %TYPE_KONCAT#,

     1131    19584    6                       %TYPE_LIST#);
     1132    19585    6                        CALL GENERATE_LEVEL2 (P_NSUBNDS_NP, %UBIN_DATATYPE, 9);

  19585 15 005202   000001 236000 xsym               LDQ     B_VECTNIL+1
        15 005203   200110 756100                    STQ     @DATASIZE+1,,AUTO
        15 005204   000112 237000 16                 LDAQ    74
        15 005205   200106 757100                    STAQ    @NAME_POINTER+1,,AUTO
        15 005206   200042 631500                    EPPR1   P_NSUBNDS_NP,,AUTO
        15 005207   200105 451500                    STP1    TRASH_NAME+9,,AUTO
        15 005210   006607 701000 15                 TSX1    GENERATE_LEVEL2
        15 005211   000000 011000                    NOP     0

     1133    19586    6                        CALL GENERATE_LEVEL2 (P_CODE_NP, %UBIN_DATATYPE, 16);

  19586 15 005212   000001 236000 xsym               LDQ     B_VECTNIL+1
        15 005213   200110 756100                    STQ     @DATASIZE+1,,AUTO
        15 005214   000114 237000 16                 LDAQ    76
        15 005215   200106 757100                    STAQ    @NAME_POINTER+1,,AUTO
        15 005216   200041 630500                    EPPR0   P_CODE_NP,,AUTO
        15 005217   200105 450500                    STP0    TRASH_NAME+9,,AUTO
        15 005220   006607 701000 15                 TSX1    GENERATE_LEVEL2
PL6.E3A0      #001=XUP$PARTRGE File=XUP$PARTRGE.:E05TSI                          WED 07/30/97 09:39 Page:192
        15 005221   000000 011000                    NOP     0

     1134    19587    6                        L = NODE.NSUBNDS;

  19587 15 005222   001210 470400 1                  LDP0    NODE_+2
        15 005223   000000 236100                    LDQ     0,,PR0
        15 005224   000020 772000                    QRL     16
        15 005225   000777 376007                    ANQ     511,DL
        15 005226   200011 756100                    STQ     L,,AUTO

     1135    19588    6                        CALL GENERATE_LEVEL2 (P_SUBNDS$_NP, %POINTER_DATATYPE, 1,

  19588 15 005227   200011 631500                    EPPR1   L,,AUTO
        15 005230   200110 451500                    STP1    @DATASIZE+1,,AUTO
        15 005231   000120 237000 16                 LDAQ    80
        15 005232   200106 757100                    STAQ    @NAME_POINTER+1,,AUTO
        15 005233   200046 633500                    EPPR3   P_SUBNDS$_NP,,AUTO
        15 005234   200105 453500                    STP3    TRASH_NAME+9,,AUTO
        15 005235   006607 701000 15                 TSX1    GENERATE_LEVEL2
        15 005236   000000 011000                    NOP     0
        15 005237   005505 710000 15                 TRA     s:19624

     1136    19589    6                          L);
     1137    19590    6                     CASE (%TYPE_LITERAL#);

     1138    19591    6                        CALL GENERATE_LEVEL2 (P_UPRLOWR_NP, %BIT_DATATYPE, 1);

  19591 15 005240   000001 236000 xsym               LDQ     B_VECTNIL+1
        15 005241   200110 756100                    STQ     @DATASIZE+1,,AUTO
        15 005242   000110 237000 16                 LDAQ    72
        15 005243   200106 757100                    STAQ    @NAME_POINTER+1,,AUTO
        15 005244   200036 631500                    EPPR1   P_UPRLOWR_NP,,AUTO
        15 005245   200105 451500                    STP1    TRASH_NAME+9,,AUTO
        15 005246   006607 701000 15                 TSX1    GENERATE_LEVEL2
        15 005247   000000 011000                    NOP     0

     1139    19592    6                        CALL GENERATE_LEVEL2 (P_ABBREV_NP, %UBIN_DATATYPE, 8);
PL6.E3A0      #001=XUP$PARTRGE File=XUP$PARTRGE.:E05TSI                          WED 07/30/97 09:39 Page:193

  19592 15 005250   000001 236000 xsym               LDQ     B_VECTNIL+1
        15 005251   200110 756100                    STQ     @DATASIZE+1,,AUTO
        15 005252   000122 237000 16                 LDAQ    82
        15 005253   200106 757100                    STAQ    @NAME_POINTER+1,,AUTO
        15 005254   200040 630500                    EPPR0   P_ABBREV_NP,,AUTO
        15 005255   200105 450500                    STP0    TRASH_NAME+9,,AUTO
        15 005256   006607 701000 15                 TSX1    GENERATE_LEVEL2
        15 005257   000000 011000                    NOP     0

     1140    19593    6                        CALL GENERATE_LEVEL2 (P_CODE_NP, %UBIN_DATATYPE, 16);

  19593 15 005260   000001 236000 xsym               LDQ     B_VECTNIL+1
        15 005261   200110 756100                    STQ     @DATASIZE+1,,AUTO
        15 005262   000114 237000 16                 LDAQ    76
        15 005263   200106 757100                    STAQ    @NAME_POINTER+1,,AUTO
        15 005264   200041 630500                    EPPR0   P_CODE_NP,,AUTO
        15 005265   200105 450500                    STP0    TRASH_NAME+9,,AUTO
        15 005266   006607 701000 15                 TSX1    GENERATE_LEVEL2
        15 005267   000000 011000                    NOP     0

     1141    19594    6                        CALL GENERATE_LEVEL2 (P_COUNT_NP, %UBIN_DATATYPE, 9);

  19594 15 005270   000001 236000 xsym               LDQ     B_VECTNIL+1
        15 005271   200110 756100                    STQ     @DATASIZE+1,,AUTO
        15 005272   000112 237000 16                 LDAQ    74
        15 005273   200106 757100                    STAQ    @NAME_POINTER+1,,AUTO
        15 005274   200043 630500                    EPPR0   P_COUNT_NP,,AUTO
        15 005275   200105 450500                    STP0    TRASH_NAME+9,,AUTO
        15 005276   006607 701000 15                 TSX1    GENERATE_LEVEL2
        15 005277   000000 011000                    NOP     0

     1142    19595    6                        L = NODEL.COUNT;

  19595 15 005300   001210 470400 1                  LDP0    NODE_+2
        15 005301   000001 236100                    LDQ     1,,PR0
        15 005302   000033 772000                    QRL     27
PL6.E3A0      #001=XUP$PARTRGE File=XUP$PARTRGE.:E05TSI                          WED 07/30/97 09:39 Page:194
        15 005303   200011 756100                    STQ     L,,AUTO

     1143    19596    6                        CALL GENERATE_LEVEL2 (P_TEXT_NP, %CHAR_DATATYPE, L);

  19596 15 005304   000001 236000 xsym               LDQ     B_VECTNIL+1
        15 005305   200110 756100                    STQ     @DATASIZE+1,,AUTO
        15 005306   200011 631500                    EPPR1   L,,AUTO
        15 005307   200107 451500                    STP1    @DATATYPE+1,,AUTO
        15 005310   000124 236000 16                 LDQ     84
        15 005311   200106 756100                    STQ     @NAME_POINTER+1,,AUTO
        15 005312   200044 633500                    EPPR3   P_TEXT_NP,,AUTO
        15 005313   200105 453500                    STP3    TRASH_NAME+9,,AUTO
        15 005314   006607 701000 15                 TSX1    GENERATE_LEVEL2
        15 005315   000000 011000                    NOP     0
        15 005316   005505 710000 15                 TRA     s:19624

     1144    19597    6                     CASE (%TYPE_LEXEME#);

     1145    19598    6                        IF NODES.LEXTYPE = %LEX_DSTRING#

  19598 15 005317   000000 236100                    LDQ     0,,PR0
        15 005320   000125 376000 16                 ANQ     85
        15 005321   000125 116000 16                 CMPQ    85
        15 005322   005377 601000 15                 TNZ     s:19608

     1146    19599    7                        THEN DO;

     1147    19600    7                           CALL GENERATE_LEVEL2 (P_MAKEUC_NP, %BIT_DATATYPE, 1);

  19600 15 005323   000001 236000 xsym               LDQ     B_VECTNIL+1
        15 005324   200110 756100                    STQ     @DATASIZE+1,,AUTO
        15 005325   000110 237000 16                 LDAQ    72
        15 005326   200106 757100                    STAQ    @NAME_POINTER+1,,AUTO
        15 005327   200037 631500                    EPPR1   P_MAKEUC_NP,,AUTO
        15 005330   200105 451500                    STP1    TRASH_NAME+9,,AUTO
        15 005331   006607 701000 15                 TSX1    GENERATE_LEVEL2
        15 005332   000000 011000                    NOP     0
PL6.E3A0      #001=XUP$PARTRGE File=XUP$PARTRGE.:E05TSI                          WED 07/30/97 09:39 Page:195

     1148    19601    7                           LOC_OFFSET = LOC_OFFSET + 3;

  19601 15 005333   200057 235100                    LDA     LOC_OFFSET,,AUTO
        15 005334   000003 035007                    ADLA    3,DL
        15 005335   200057 755100                    STA     LOC_OFFSET,,AUTO

     1149    19602    7                           CALL GENERATE_LEVEL2 (P_LEXTYPE_NP, %UBIN_DATATYPE, 5);

  19602 15 005336   000001 236000 xsym               LDQ     B_VECTNIL+1
        15 005337   200110 756100                    STQ     @DATASIZE+1,,AUTO
        15 005340   000126 237000 16                 LDAQ    86
        15 005341   200106 757100                    STAQ    @NAME_POINTER+1,,AUTO
        15 005342   200047 630500                    EPPR0   P_LEXTYPE_NP,,AUTO
        15 005343   200105 450500                    STP0    TRASH_NAME+9,,AUTO
        15 005344   006607 701000 15                 TSX1    GENERATE_LEVEL2
        15 005345   000000 011000                    NOP     0

     1150    19603    7                           CALL GENERATE_LEVEL2 (P_CODE_NP, %UBIN_DATATYPE, 16);

  19603 15 005346   000001 236000 xsym               LDQ     B_VECTNIL+1
        15 005347   200110 756100                    STQ     @DATASIZE+1,,AUTO
        15 005350   000114 237000 16                 LDAQ    76
        15 005351   200106 757100                    STAQ    @NAME_POINTER+1,,AUTO
        15 005352   200041 630500                    EPPR0   P_CODE_NP,,AUTO
        15 005353   200105 450500                    STP0    TRASH_NAME+9,,AUTO
        15 005354   006607 701000 15                 TSX1    GENERATE_LEVEL2
        15 005355   000000 011000                    NOP     0

     1151    19604    7                           CALL GENERATE_LEVEL2 (P_MAXL_NP, %UBIN_DATATYPE, 9);

  19604 15 005356   000001 236000 xsym               LDQ     B_VECTNIL+1
        15 005357   200110 756100                    STQ     @DATASIZE+1,,AUTO
        15 005360   000112 237000 16                 LDAQ    74
        15 005361   200106 757100                    STAQ    @NAME_POINTER+1,,AUTO
        15 005362   200050 630500                    EPPR0   P_MAXL_NP,,AUTO
        15 005363   200105 450500                    STP0    TRASH_NAME+9,,AUTO
PL6.E3A0      #001=XUP$PARTRGE File=XUP$PARTRGE.:E05TSI                          WED 07/30/97 09:39 Page:196
        15 005364   006607 701000 15                 TSX1    GENERATE_LEVEL2
        15 005365   000000 011000                    NOP     0

     1152    19605    7                           CALL GENERATE_LEVEL2 (P_DLIM_NP, %CHAR_DATATYPE, 1);

  19605 15 005366   000001 236000 xsym               LDQ     B_VECTNIL+1
        15 005367   200110 756100                    STQ     @DATASIZE+1,,AUTO
        15 005370   000130 237000 16                 LDAQ    88
        15 005371   200106 757100                    STAQ    @NAME_POINTER+1,,AUTO
        15 005372   200051 630500                    EPPR0   P_DLIM_NP,,AUTO
        15 005373   200105 450500                    STP0    TRASH_NAME+9,,AUTO
        15 005374   006607 701000 15                 TSX1    GENERATE_LEVEL2
        15 005375   000000 011000                    NOP     0

     1153    19606    7                           END;

  19606 15 005376   005505 710000 15                 TRA     s:19624

     1154    19607    7                        ELSE DO;

     1155    19608    7                           CALL GENERATE_LEVEL2 (P_MAKEUC_NP, %BIT_DATATYPE, 1);

  19608 15 005377   000001 236000 xsym               LDQ     B_VECTNIL+1
        15 005400   200110 756100                    STQ     @DATASIZE+1,,AUTO
        15 005401   000110 237000 16                 LDAQ    72
        15 005402   200106 757100                    STAQ    @NAME_POINTER+1,,AUTO
        15 005403   200037 631500                    EPPR1   P_MAKEUC_NP,,AUTO
        15 005404   200105 451500                    STP1    TRASH_NAME+9,,AUTO
        15 005405   006607 701000 15                 TSX1    GENERATE_LEVEL2
        15 005406   000000 011000                    NOP     0

     1156    19609    7                           CALL GENERATE_LEVEL2 (P_XTRA_NP, %BIT_DATATYPE, 1);

  19609 15 005407   000001 236000 xsym               LDQ     B_VECTNIL+1
        15 005410   200110 756100                    STQ     @DATASIZE+1,,AUTO
        15 005411   000110 237000 16                 LDAQ    72
        15 005412   200106 757100                    STAQ    @NAME_POINTER+1,,AUTO
PL6.E3A0      #001=XUP$PARTRGE File=XUP$PARTRGE.:E05TSI                          WED 07/30/97 09:39 Page:197
        15 005413   200045 630500                    EPPR0   P_XTRA_NP,,AUTO
        15 005414   200105 450500                    STP0    TRASH_NAME+9,,AUTO
        15 005415   006607 701000 15                 TSX1    GENERATE_LEVEL2
        15 005416   000000 011000                    NOP     0

     1157    19610    7                           LOC_OFFSET = LOC_OFFSET + 2;

  19610 15 005417   200057 235100                    LDA     LOC_OFFSET,,AUTO
        15 005420   000002 035007                    ADLA    2,DL
        15 005421   200057 755100                    STA     LOC_OFFSET,,AUTO

     1158    19611    7                           CALL GENERATE_LEVEL2 (P_LEXTYPE_NP, %UBIN_DATATYPE, 5);

  19611 15 005422   000001 236000 xsym               LDQ     B_VECTNIL+1
        15 005423   200110 756100                    STQ     @DATASIZE+1,,AUTO
        15 005424   000126 237000 16                 LDAQ    86
        15 005425   200106 757100                    STAQ    @NAME_POINTER+1,,AUTO
        15 005426   200047 630500                    EPPR0   P_LEXTYPE_NP,,AUTO
        15 005427   200105 450500                    STP0    TRASH_NAME+9,,AUTO
        15 005430   006607 701000 15                 TSX1    GENERATE_LEVEL2
        15 005431   000000 011000                    NOP     0

     1159    19612    7                           CALL GENERATE_LEVEL2 (P_CODE_NP, %UBIN_DATATYPE, 16);

  19612 15 005432   000001 236000 xsym               LDQ     B_VECTNIL+1
        15 005433   200110 756100                    STQ     @DATASIZE+1,,AUTO
        15 005434   000114 237000 16                 LDAQ    76
        15 005435   200106 757100                    STAQ    @NAME_POINTER+1,,AUTO
        15 005436   200041 630500                    EPPR0   P_CODE_NP,,AUTO
        15 005437   200105 450500                    STP0    TRASH_NAME+9,,AUTO
        15 005440   006607 701000 15                 TSX1    GENERATE_LEVEL2
        15 005441   000000 011000                    NOP     0

     1160    19613    7                           IF NODES.XTRA

  19613 15 005442   001210 470400 1                  LDP0    NODE_+2
        15 005443   000000 236100                    LDQ     0,,PR0
PL6.E3A0      #001=XUP$PARTRGE File=XUP$PARTRGE.:E05TSI                          WED 07/30/97 09:39 Page:198
        15 005444   000040 316003                    CANQ    32,DU
        15 005445   005505 600000 15                 TZE     s:19624

     1161    19614    8                           THEN DO;

     1162    19615    8                              CALL GENERATE_LEVEL2 (P_MAXL_NP, %UBIN_DATATYPE, 9);

  19615 15 005446   000001 236000 xsym               LDQ     B_VECTNIL+1
        15 005447   200110 756100                    STQ     @DATASIZE+1,,AUTO
        15 005450   000112 237000 16                 LDAQ    74
        15 005451   200106 757100                    STAQ    @NAME_POINTER+1,,AUTO
        15 005452   200050 631500                    EPPR1   P_MAXL_NP,,AUTO
        15 005453   200105 451500                    STP1    TRASH_NAME+9,,AUTO
        15 005454   006607 701000 15                 TSX1    GENERATE_LEVEL2
        15 005455   000000 011000                    NOP     0

     1163    19616    8                              CALL GENERATE_LEVEL2 (P_COUNT_NP, %UBIN_DATATYPE, 9);

  19616 15 005456   000001 236000 xsym               LDQ     B_VECTNIL+1
        15 005457   200110 756100                    STQ     @DATASIZE+1,,AUTO
        15 005460   000112 237000 16                 LDAQ    74
        15 005461   200106 757100                    STAQ    @NAME_POINTER+1,,AUTO
        15 005462   200043 630500                    EPPR0   P_COUNT_NP,,AUTO
        15 005463   200105 450500                    STP0    TRASH_NAME+9,,AUTO
        15 005464   006607 701000 15                 TSX1    GENERATE_LEVEL2
        15 005465   000000 011000                    NOP     0

     1164    19617    8                              L = NODES.COUNT;

  19617 15 005466   001210 470400 1                  LDP0    NODE_+2
        15 005467   000001 236100                    LDQ     1,,PR0
        15 005470   000022 772000                    QRL     18
        15 005471   000777 376007                    ANQ     511,DL
        15 005472   200011 756100                    STQ     L,,AUTO

     1165    19618    8                              CALL GENERATE_LEVEL2 (P_TEXT_NP, %CHAR_DATATYPE, L);

PL6.E3A0      #001=XUP$PARTRGE File=XUP$PARTRGE.:E05TSI                          WED 07/30/97 09:39 Page:199
  19618 15 005473   000001 236000 xsym               LDQ     B_VECTNIL+1
        15 005474   200110 756100                    STQ     @DATASIZE+1,,AUTO
        15 005475   200011 631500                    EPPR1   L,,AUTO
        15 005476   200107 451500                    STP1    @DATATYPE+1,,AUTO
        15 005477   000124 236000 16                 LDQ     84
        15 005500   200106 756100                    STQ     @NAME_POINTER+1,,AUTO
        15 005501   200044 633500                    EPPR3   P_TEXT_NP,,AUTO
        15 005502   200105 453500                    STP3    TRASH_NAME+9,,AUTO
        15 005503   006607 701000 15                 TSX1    GENERATE_LEVEL2
        15 005504   000000 011000                    NOP     0

     1166    19619    8                              END;

     1167    19620    7                           END;

     1168    19621    6                     END;

     1169    19622    5                     END;

     1170    19623    4                  END;

     1171    19624    3               SYM_.P$ = PINCRW (SYM_.NEXT$, SYM.LNK.LNK);

  19624 15 005505   001214 470400 1                  LDP0    SYM_+2
        15 005506   000000 720100                    LXL0    0,,PR0
        15 005507   000000 636010                    EAQ     0,X0
        15 005510   001215 036000 1                  ADLQ    SYM_+3
        15 005511   001214 756000 1                  STQ     SYM_+2

     1172    19625    3               END;

  19625 15 005512   001215 116000 1                  CMPQ    SYM_+3
        15 005513   004575 601000 15                 TNZ     s:19518

     1173    19626    2            IF PP.SCHEMA

  19626 15 005514   001431 235000 1                  LDA     PP+12
PL6.E3A0      #001=XUP$PARTRGE File=XUP$PARTRGE.:E05TSI                          WED 07/30/97 09:39 Page:200
        15 005515   005543 600000 15                 TZE     s:19632

     1174    19627    3            THEN DO;

     1175    19628    3               CALL XUO$LOGBLKEXSTTERM (LOGBLK_NUMBER, 0, HIGHEST_LINE_NUMBER);

  19628 15 005516   200054 630500                    EPPR0   HIGHEST_LINE_NUMBER,,AUTO
        15 005517   200120 450500                    STP0    NEW_OFFSET+3,,AUTO
        15 005520   000032 236000 16                 LDQ     26
        15 005521   200117 756100                    STQ     NEW_OFFSET+2,,AUTO
        15 005522   200052 631500                    EPPR1   LOGBLK_NUMBER,,AUTO
        15 005523   200116 451500                    STP1    NEW_OFFSET+1,,AUTO
        15 005524   200116 630500                    EPPR0   NEW_OFFSET+1,,AUTO
        15 005525   000021 631400 xsym               EPPR1   B_VECTNIL+17
        15 005526   000000 701000 xent               TSX1    XUO$LOGBLKEXSTTERM
        15 005527   000000 011000                    NOP     0

     1176    19629    3               CALL XUO$LOGBLKVREBLTERM (LOGBLK_NUMBER, HIGHEST_VREBL_ENTRY);

  19629 15 005530   200053 630500                    EPPR0   HIGHEST_VREBL_ENTRY,,AUTO
        15 005531   200117 450500                    STP0    NEW_OFFSET+2,,AUTO
        15 005532   200052 631500                    EPPR1   LOGBLK_NUMBER,,AUTO
        15 005533   200116 451500                    STP1    NEW_OFFSET+1,,AUTO
        15 005534   200116 630500                    EPPR0   NEW_OFFSET+1,,AUTO
        15 005535   000020 631400 xsym               EPPR1   B_VECTNIL+16
        15 005536   000000 701000 xent               TSX1    XUO$LOGBLKVREBLTERM
        15 005537   000000 011000                    NOP     0

     1177    19630    3               CALL XUO$LOGBLKTERM;

  19630 15 005540   000002 631400 xsym               EPPR1   B_VECTNIL+2
        15 005541   000000 701000 xent               TSX1    XUO$LOGBLKTERM
        15 005542   000000 011000                    NOP     0

     1178    19631    3               END;

     1179    19632    2            CALL XUO$SECTSIZE (SECTION, MAXIMUM(PGMSIZE, 1));
PL6.E3A0      #001=XUP$PARTRGE File=XUP$PARTRGE.:E05TSI                          WED 07/30/97 09:39 Page:201

  19632 15 005543   000001 236007                    LDQ     1,DL
        15 005544   005550 604000 15                 TMI     s:19632+5
        15 005545   200012 116100                    CMPQ    PGMSIZE,,AUTO
        15 005546   005550 605000 15                 TPL     s:19632+5
        15 005547   200012 236100                    LDQ     PGMSIZE,,AUTO
        15 005550   200116 756100                    STQ     NEW_OFFSET+1,,AUTO
        15 005551   200116 630500                    EPPR0   NEW_OFFSET+1,,AUTO
        15 005552   200121 450500                    STP0    NEW_OFFSET+4,,AUTO
        15 005553   200055 631500                    EPPR1   SECTION,,AUTO
        15 005554   200120 451500                    STP1    NEW_OFFSET+3,,AUTO
        15 005555   200120 630500                    EPPR0   NEW_OFFSET+3,,AUTO
        15 005556   000020 631400 xsym               EPPR1   B_VECTNIL+16
        15 005557   000000 701000 xent               TSX1    XUO$SECTSIZE
        15 005560   000000 011000                    NOP     0

     1180    19633    2            IF ERROR_COUNT = 0

  19633 15 005561   001330 235000 1                  LDA     ERROR_COUNT
        15 005562   005570 601000 15                 TNZ     s:19637

     1181    19634    2            THEN
     1182    19635    2               CALL XUO$HEAD_SEVERITY (0);

  19635 15 005563   000032 630400 16                 EPPR0   26
        15 005564   000017 631400 xsym               EPPR1   B_VECTNIL+15
        15 005565   000000 701000 xent               TSX1    XUO$HEAD_SEVERITY
        15 005566   000000 011000                    NOP     0
        15 005567   005603 710000 15                 TRA     s:19642

     1183    19636    2            ELSE
     1184    19637    2               IF PGMSIZE = 0

  19637 15 005570   200012 236100                    LDQ     PGMSIZE,,AUTO
        15 005571   005577 601000 15                 TNZ     s:19641

     1185    19638    2               THEN
PL6.E3A0      #001=XUP$PARTRGE File=XUP$PARTRGE.:E05TSI                          WED 07/30/97 09:39 Page:202
     1186    19639    2                  CALL XUO$HEAD_SEVERITY (15);

  19639 15 005572   000060 630400 16                 EPPR0   48
        15 005573   000017 631400 xsym               EPPR1   B_VECTNIL+15
        15 005574   000000 701000 xent               TSX1    XUO$HEAD_SEVERITY
        15 005575   000000 011000                    NOP     0
        15 005576   005603 710000 15                 TRA     s:19642

     1187    19640    2               ELSE
     1188    19641    2                  CALL XUO$HEAD_SEVERITY (11);

  19641 15 005577   000132 630400 16                 EPPR0   90
        15 005600   000017 631400 xsym               EPPR1   B_VECTNIL+15
        15 005601   000000 701000 xent               TSX1    XUO$HEAD_SEVERITY
        15 005602   000000 011000                    NOP     0

     1189    19642    2            CALL XUO$OUTERM;

  19642 15 005603   000002 631400 xsym               EPPR1   B_VECTNIL+2
        15 005604   000000 701000 xent               TSX1    XUO$OUTERM
        15 005605   000000 011000                    NOP     0

     1190    19643    2            END;

     1191    19644        %EJECT;     /* OUTPUT THE CROSS REFERENCE */
PL6.E3A0      #001=XUP$PARTRGE File=XUP$PARTRGE.:E05TSI                          WED 07/30/97 09:39 Page:203
     1192    19645    1      CALL M$TIME(HTIM);

  19645 15 005606   000472 630400 1                  EPPR0   HTIM
        15 005607   020004 713400                    CLIMB   8196
        15 005610   402000 401760                    pmme    nvectors=5

     1193    19646    2      IF PP.XR THEN DO;

  19646 15 005611   001424 235000 1                  LDA     PP+7
        15 005612   005715 600000 15                 TZE     s:19666

     1194    19647    2         TITL.HDR='Cross Reference';

  19647 15 005613   040000 100400                    MLR     fill='040'O
        15 005614   000465 000017 2                  ADSC9   ONE_BLANK+15             cn=0,n=15
        15 005615   001076 200024 1                  ADSC9   TITL+5                   cn=1,n=20

     1195    19648    2         CALL INSERT(LOHDR.TITL.TITLE#,0,SIZEC(TITL),TITC);

  19648 15 005616   040000 100400                    MLR     fill='040'O
        15 005617   001071 000137 1                  ADSC9   TITL                     cn=0,n=95
        15 005620   000435 200137 1                  ADSC9   LOHDR+1                  cn=1,n=95

     1196    19649    2         CALL M$DEVICE(TOPAGE);

  19649 15 005621   000422 630400 1                  EPPR0   TOPAGE
        15 005622   050006 713400                    CLIMB   20486
        15 005623   401000 401760                    pmme    nvectors=3

     1197    19650    2         SYM_.P$=PINCRW(SYM_.NEXT$,J);

  19650 15 005624   200007 236100                    LDQ     J,,AUTO
        15 005625   000022 736000                    QLS     18
        15 005626   001215 036000 1                  ADLQ    SYM_+3
        15 005627   001214 756000 1                  STQ     SYM_+2

     1198    19651    3         DO WHILE(SYM_.P$~=SYM_.NEXT$);
PL6.E3A0      #001=XUP$PARTRGE File=XUP$PARTRGE.:E05TSI                          WED 07/30/97 09:39 Page:204

  19651 15 005630   001215 116000 1                  CMPQ    SYM_+3
        15 005631   005715 600000 15                 TZE     s:19666

     1199    19652    3            TEXT.T=SYM.T;

  19652 15 005632   001214 470400 1                  LDP0    SYM_+2
        15 005633   000001 720100                    LXL0    1,,PR0
        15 005634   000777 360003                    ANX0    511,DU
        15 005635   040000 100540                    MLR     fill='040'O
        15 005636   000002 000010                    ADSC9   2,,PR0                   cn=0,n=*X0
        15 005637   000002 000170 1                  ADSC9   TEXT+2                   cn=0,n=120

     1200    19653    3            C=SIZEC(SYM.T)+7;

  19653 15 005640   000001 720100                    LXL0    1,,PR0
        15 005641   000777 360003                    ANX0    511,DU
        15 005642   000000 635010                    EAA     0,X0
        15 005643   000022 771000                    ARL     18
        15 005644   000007 035007                    ADLA    7,DL
        15 005645   200005 755100                    STA     C,,AUTO

     1201    19654    3            IF C<SYMSZS(0) THEN C=SYMSZS(0);

  19654 15 005646   200005 236100                    LDQ     C,,AUTO
        15 005647   001267 116000 1                  CMPQ    SYMSZS
        15 005650   005653 605000 15                 TPL     s:19655

  19654 15 005651   001267 235000 1                  LDA     SYMSZS
        15 005652   200005 755100                    STA     C,,AUTO

     1202    19655    3            C=C/8*8;

  19655 15 005653   200005 236100                    LDQ     C,,AUTO
        15 005654   000010 506007                    DIV     8,DL
        15 005655   000003 736000                    QLS     3
        15 005656   200005 756100                    STQ     C,,AUTO
PL6.E3A0      #001=XUP$PARTRGE File=XUP$PARTRGE.:E05TSI                          WED 07/30/97 09:39 Page:205

     1203    19656    3            BLK$=PINCRW(SYM_.P$,SIZEW(SYM));

  19656 15 005657   000010 621010                    EAX1    8,X0
        15 005660   000000 636011                    EAQ     0,X1
        15 005661   000022 772000                    QRL     18
        15 005662   000011 402007                    MPY     9,DL
        15 005663   000043 036007                    ADLQ    35,DL
        15 005664   000044 506007                    DIV     36,DL
        15 005665   000022 736000                    QLS     18
        15 005666   001214 036000 1                  ADLQ    SYM_+2
        15 005667   200004 756100                    STQ     BLK$,,AUTO

     1204    19657    4            DO WHILE(BLK$~=SYM_.FIRST$);

  19657 15 005670   001213 116000 1                  CMPQ    SYM_+1
        15 005671   005704 600000 15                 TZE     s:19661

     1205    19658    4               CALL CROUT;

  19658 15 005672   003134 701000 15                 TSX1    CROUT
        15 005673   000000 011000                    NOP     0

     1206    19659    4               BLK$=PINCRW(SYM_.FIRST$,BLK$->SYM.XR.LNK);

  19659 15 005674   200004 470500                    LDP0    BLK$,,AUTO
        15 005675   000000 720100                    LXL0    0,,PR0
        15 005676   377777 360003                    ANX0    131071,DU
        15 005677   000000 636010                    EAQ     0,X0
        15 005700   001213 036000 1                  ADLQ    SYM_+1
        15 005701   200004 756100                    STQ     BLK$,,AUTO

     1207    19660    4               END;

  19660 15 005702   001213 116000 1                  CMPQ    SYM_+1
        15 005703   005672 601000 15                 TNZ     s:19658

PL6.E3A0      #001=XUP$PARTRGE File=XUP$PARTRGE.:E05TSI                          WED 07/30/97 09:39 Page:206
     1208    19661    3            CALL WRITELO;

  19661 15 005704   003174 701000 15                 TSX1    WRITELO
        15 005705   000000 011000                    NOP     0

     1209    19662    3            SYM_.P$=PINCRW(SYM_.NEXT$,SYM.LNK.LNK);

  19662 15 005706   001214 470400 1                  LDP0    SYM_+2
        15 005707   000000 720100                    LXL0    0,,PR0
        15 005710   000000 636010                    EAQ     0,X0
        15 005711   001215 036000 1                  ADLQ    SYM_+3
        15 005712   001214 756000 1                  STQ     SYM_+2

     1210    19663    3            END;

  19663 15 005713   001215 116000 1                  CMPQ    SYM_+3
        15 005714   005632 601000 15                 TNZ     s:19652

     1211    19664    2         END;

     1212    19665        %EJECT;     /* NOW PRODUCE A SYMBOL MAP*/
PL6.E3A0      #001=XUP$PARTRGE File=XUP$PARTRGE.:E05TSI                          WED 07/30/97 09:39 Page:207
     1213    19666    1      C=0;

  19666 15 005715   200005 450100                    STZ     C,,AUTO

     1214    19667    2      IF PP.MA THEN DO;

  19667 15 005716   001423 235000 1                  LDA     PP+6
        15 005717   006021 600000 15                 TZE     s:19689

     1215    19668    2         TITL.HDR='Symbol Map';

  19668 15 005720   040000 100400                    MLR     fill='040'O
        15 005721   000471 000012 2                  ADSC9   ONE_BLANK+19             cn=0,n=10
        15 005722   001076 200024 1                  ADSC9   TITL+5                   cn=1,n=20

     1216    19669    2         CALL INSERT(LOHDR.TITL.TITLE#,0,SIZEC(TITL),TITC);

  19669 15 005723   040000 100400                    MLR     fill='040'O
        15 005724   001071 000137 1                  ADSC9   TITL                     cn=0,n=95
        15 005725   000435 200137 1                  ADSC9   LOHDR+1                  cn=1,n=95

     1217    19670    2         CALL M$DEVICE(TOPAGE);

  19670 15 005726   000422 630400 1                  EPPR0   TOPAGE
        15 005727   050006 713400                    CLIMB   20486
        15 005730   401000 401760                    pmme    nvectors=3

     1218    19671    2         SYM_.P$=PINCRW(SYM_.NEXT$,J);

  19671 15 005731   200007 236100                    LDQ     J,,AUTO
        15 005732   000022 736000                    QLS     18
        15 005733   001215 036000 1                  ADLQ    SYM_+3
        15 005734   001214 756000 1                  STQ     SYM_+2

     1219    19672    3         DO WHILE(SYM_.P$~=SYM_.NEXT$);

  19672 15 005735   001215 116000 1                  CMPQ    SYM_+3
PL6.E3A0      #001=XUP$PARTRGE File=XUP$PARTRGE.:E05TSI                          WED 07/30/97 09:39 Page:208
        15 005736   005753 600000 15                 TZE     s:19676

     1220    19673    3            IF SYM.DEF THEN CALL NAMEOUT;

  19673 15 005737   001214 470400 1                  LDP0    SYM_+2
        15 005740   000001 234100                    SZN     1,,PR0
        15 005741   005744 605000 15                 TPL     s:19674

  19673 15 005742   002761 701000 15                 TSX1    NAMEOUT
        15 005743   000000 011000                    NOP     0

     1221    19674    3            SYM_.P$=PINCRW(SYM_.NEXT$,SYM.LNK.LNK);

  19674 15 005744   001214 470400 1                  LDP0    SYM_+2
        15 005745   000000 720100                    LXL0    0,,PR0
        15 005746   000000 636010                    EAQ     0,X0
        15 005747   001215 036000 1                  ADLQ    SYM_+3
        15 005750   001214 756000 1                  STQ     SYM_+2

     1222    19675    3            END;

  19675 15 005751   001215 116000 1                  CMPQ    SYM_+3
        15 005752   005737 601000 15                 TNZ     s:19673

     1223    19676    2         CALL WRITELO;

  19676 15 005753   003174 701000 15                 TSX1    WRITELO
        15 005754   000000 011000                    NOP     0

     1224    19677    2         CALL INSERT(LOHDR.TITL.TITLE#,

  19677 15 005755   000133 236000 16                 LDQ     91
        15 005756   000020 772000                    QRL     16
        15 005757   200116 756100                    STQ     NEW_OFFSET+1,,AUTO
        15 005760   000134 236000 16                 LDQ     92
        15 005761   000020 772000                    QRL     16
        15 005762   200116 136100                    SBLQ    NEW_OFFSET+1,,AUTO
PL6.E3A0      #001=XUP$PARTRGE File=XUP$PARTRGE.:E05TSI                          WED 07/30/97 09:39 Page:209
        15 005763   040006 100400                    MLR     fill='040'O
        15 005764   000474 000012 2                  ADSC9   ONE_BLANK+22             cn=0,n=10
        15 005765   000435 200024 1                  ADSC9   LOHDR+1,Q                cn=1,n=20

     1225    19678    2           POFFC(ADDR(TITL.HDR),ADDR(TITL)),SIZEC(TITL.HDR),
     1226    19679    2           'SYMDEF Map');
     1227    19680    2         CALL M$DEVICE(TOPAGE);

  19680 15 005766   000422 630400 1                  EPPR0   TOPAGE
        15 005767   050006 713400                    CLIMB   20486
        15 005770   401000 401760                    pmme    nvectors=3

     1228    19681    2         SYM_.P$=PINCRW(SYM_.NEXT$,J);

  19681 15 005771   200007 236100                    LDQ     J,,AUTO
        15 005772   000022 736000                    QLS     18
        15 005773   001215 036000 1                  ADLQ    SYM_+3
        15 005774   001214 756000 1                  STQ     SYM_+2

     1229    19682    3         DO WHILE(SYM_.P$~=SYM_.NEXT$);

  19682 15 005775   001215 116000 1                  CMPQ    SYM_+3
        15 005776   006017 600000 15                 TZE     s:19686

     1230    19683    3            IF SYM.DEF AND SYM.X>=SYM.USED THEN CALL NAMEOUT;

  19683 15 005777   001214 470400 1                  LDP0    SYM_+2
        15 006000   000001 234100                    SZN     1,,PR0
        15 006001   006010 605000 15                 TPL     s:19684
        15 006002   000100 066500                    CMPB    filb='0'B
        15 006003   000001 020001                    BDSC    1,,PR0                   by=0,bit=2,n=1
        15 006004   000001 010001                    BDSC    1,,PR0                   by=0,bit=1,n=1
        15 006005   006010 602000 15                 TNC     s:19684

  19683 15 006006   002761 701000 15                 TSX1    NAMEOUT
        15 006007   000000 011000                    NOP     0

PL6.E3A0      #001=XUP$PARTRGE File=XUP$PARTRGE.:E05TSI                          WED 07/30/97 09:39 Page:210
     1231    19684    3            SYM_.P$=PINCRW(SYM_.NEXT$,SYM.LNK.LNK);

  19684 15 006010   001214 470400 1                  LDP0    SYM_+2
        15 006011   000000 720100                    LXL0    0,,PR0
        15 006012   000000 636010                    EAQ     0,X0
        15 006013   001215 036000 1                  ADLQ    SYM_+3
        15 006014   001214 756000 1                  STQ     SYM_+2

     1232    19685    3            END;

  19685 15 006015   001215 116000 1                  CMPQ    SYM_+3
        15 006016   005777 601000 15                 TNZ     s:19683

     1233    19686    2         CALL WRITELO;

  19686 15 006017   003174 701000 15                 TSX1    WRITELO
        15 006020   000000 011000                    NOP     0

     1234    19687    2         END;

     1235    19688        %EJECT;     /* NOW A LIST OF PREFS */
PL6.E3A0      #001=XUP$PARTRGE File=XUP$PARTRGE.:E05TSI                          WED 07/30/97 09:39 Page:211
     1236    19689    2      IF NPREFS ~= 0 THEN DO;

  19689 15 006021   200067 235100                    LDA     NPREFS,,AUTO
        15 006022   006032 600000 15                 TZE     s:19693

     1237    19690    2         CALL BINCHAR (CNTMSG.PRFS, NPREFS);

  19690 15 006023   000000 301500                    BTD
        15 006024   200067 000004                    NDSC9   NPREFS,,AUTO             cn=0,s=lsgnf,sf=0,n=4
        15 006025   001364 630004 1                  NDSC9   CNTMSG+4                 cn=3,s=nosgn,sf=0,n=4

     1238    19691    2         CALL EDITCHAR(CNTMSG.PRFS,0,3,'103'O,CNTMSG.PRFS);

  19691 15 006026   000000 024400                    MVNE
        15 006027   001364 630004 1                  NDSC9   CNTMSG+4                 cn=3,s=nosgn,sf=0,n=4
        15 006030   000135 000001 16                 ADSC9   93                       cn=0,n=1
        15 006031   001364 600003 1                  ADSC9   CNTMSG+4                 cn=3,n=3

     1239    19692    2         END;

     1240    19693    2      IF NPREFS > 0 AND PP.MA THEN DO;

  19693 15 006032   000000 115003                    CMPA    0,DU
        15 006033   006111 604400 15                 TMOZ    XUPEXIT
        15 006034   001423 236000 1                  LDQ     PP+6
        15 006035   006111 600000 15                 TZE     XUPEXIT

     1241    19694    2         SYM_.P$=PINCRW(SYM_.NEXT$,J);

  19694 15 006036   200007 236100                    LDQ     J,,AUTO
        15 006037   000022 736000                    QLS     18
        15 006040   001215 036000 1                  ADLQ    SYM_+3
        15 006041   001214 756000 1                  STQ     SYM_+2

     1242    19695    2         IF COREFPT.BUF_.BUF$=NODE_.FIRST$ THEN J=0;

  19695 15 006042   000301 236000 1                  LDQ     COREFPT+5
PL6.E3A0      #001=XUP$PARTRGE File=XUP$PARTRGE.:E05TSI                          WED 07/30/97 09:39 Page:212
        15 006043   001207 116000 1                  CMPQ    NODE_+1
        15 006044   006046 601000 15                 TNZ     s:19696

  19695 15 006045   200007 450100                    STZ     J,,AUTO

     1243    19696    2         CALL INSERT(LOHDR.TITL.TITLE#,

  19696 15 006046   000133 236000 16                 LDQ     91
        15 006047   000020 772000                    QRL     16
        15 006050   200116 756100                    STQ     NEW_OFFSET+1,,AUTO
        15 006051   000134 236000 16                 LDQ     92
        15 006052   000020 772000                    QRL     16
        15 006053   200116 136100                    SBLQ    NEW_OFFSET+1,,AUTO
        15 006054   040006 100400                    MLR     fill='040'O
        15 006055   000477 000005 2                  ADSC9   ONE_BLANK+25             cn=0,n=5
        15 006056   000435 200024 1                  ADSC9   LOHDR+1,Q                cn=1,n=20

     1244    19697    2           POFFC(ADDR(TITL.HDR),ADDR(TITL)),SIZEC(TITL.HDR),'PREFs');
     1245    19698    2         CALL M$DEVICE(TOPAGE);

  19698 15 006057   000422 630400 1                  EPPR0   TOPAGE
        15 006060   050006 713400                    CLIMB   20486
        15 006061   401000 401760                    pmme    nvectors=3

     1246    19699    2         IF J=0 THEN CALL ERROR(5);

  19699 15 006062   200007 235100                    LDA     J,,AUTO
        15 006063   006070 601000 15                 TNZ     s:19700

  19699 15 006064   000127 236000 16                 LDQ     87
        15 006065   200105 756100                    STQ     TRASH_NAME+9,,AUTO
        15 006066   002363 701000 15                 TSX1    ERROR
        15 006067   000000 011000                    NOP     0

     1247    19700    3         DO WHILE(SYM_.P$~=SYM_.NEXT$);

  19700 15 006070   001214 236000 1                  LDQ     SYM_+2
PL6.E3A0      #001=XUP$PARTRGE File=XUP$PARTRGE.:E05TSI                          WED 07/30/97 09:39 Page:213
        15 006071   001215 116000 1                  CMPQ    SYM_+3
        15 006072   006107 600000 15                 TZE     s:19704

     1248    19701    3            IF NOT SYM.DEF THEN CALL NAMEOUT;

  19701 15 006073   001214 470400 1                  LDP0    SYM_+2
        15 006074   000001 234100                    SZN     1,,PR0
        15 006075   006100 604000 15                 TMI     s:19702

  19701 15 006076   002761 701000 15                 TSX1    NAMEOUT
        15 006077   000000 011000                    NOP     0

     1249    19702    3            SYM_.P$=PINCRW(SYM_.NEXT$,SYM.LNK.LNK);

  19702 15 006100   001214 470400 1                  LDP0    SYM_+2
        15 006101   000000 720100                    LXL0    0,,PR0
        15 006102   000000 636010                    EAQ     0,X0
        15 006103   001215 036000 1                  ADLQ    SYM_+3
        15 006104   001214 756000 1                  STQ     SYM_+2

     1250    19703    3            END;

  19703 15 006105   001215 116000 1                  CMPQ    SYM_+3
        15 006106   006073 601000 15                 TNZ     s:19701

     1251    19704    2         CALL WRITELO;

  19704 15 006107   003174 701000 15                 TSX1    WRITELO
        15 006110   000000 011000                    NOP     0

     1252    19705    2         END;

  19701 15 006111                       XUPEXIT      null
     1253    19706    1   XUPEXIT:;
     1254    19707    2      IF ERROR_COUNT > 0 THEN DO;

  19707 15 006111   001330 235000 1                  LDA     ERROR_COUNT
PL6.E3A0      #001=XUP$PARTRGE File=XUP$PARTRGE.:E05TSI                          WED 07/30/97 09:39 Page:214
        15 006112   006136 600000 15                 TZE     s:19716

     1255    19708    2         CALL BINCHAR (CTEMP, ERROR_COUNT);

  19708 15 006113   000044 773000                    LRL     36
        15 006114   200116 757100                    STAQ    NEW_OFFSET+1,,AUTO
        15 006115   000100 301500                    BTD
        15 006116   200116 000010                    NDSC9   NEW_OFFSET+1,,AUTO       cn=0,s=lsgnf,sf=0,n=8
        15 006117   200072 030006                    NDSC9   CTEMP,,AUTO              cn=0,s=nosgn,sf=0,n=6

     1256    19709    2         CALL EDITSTR (CNTMSG.CNT, , , %MVZB6, CTEMP);

  19709 15 006120   000000 020500                    MVE
        15 006121   200072 000006                    ADSC9   CTEMP,,AUTO              cn=0,n=6
        15 006122   000046 000001 16                 ADSC9   38                       cn=0,n=1
        15 006123   001361 200006 1                  ADSC9   CNTMSG+1                 cn=1,n=6

     1257    19710    2         CNTMSG.ASTS = ' *** ';

  19710 15 006124   040000 100400                    MLR     fill='040'O
        15 006125   000460 000005 2                  ADSC9   ONE_BLANK+10             cn=0,n=5
        15 006126   001360 000005 1                  ADSC9   CNTMSG                   cn=0,n=5

     1258    19711    2         IF ERROR_COUNT = 1

  19711 15 006127   001330 235000 1                  LDA     ERROR_COUNT
        15 006130   000001 115007                    CMPA    1,DL
        15 006131   006144 601000 15                 TNZ     s:19719

     1259    19712    2         THEN
     1260    19713    2            CNTMSG.ERWORD = ' error, ';

  19713 15 006132   040000 100400                    MLR     fill='040'O
        15 006133   000501 000010 2                  ADSC9   ONE_BLANK+27             cn=0,n=8
        15 006134   001362 600010 1                  ADSC9   CNTMSG+2                 cn=3,n=8

     1261    19714    2         END;
PL6.E3A0      #001=XUP$PARTRGE File=XUP$PARTRGE.:E05TSI                          WED 07/30/97 09:39 Page:215

  19714 15 006135   006144 710000 15                 TRA     s:19719

     1262    19715    2      ELSE DO;

     1263    19716    2         CNTMSG.ASTS = ' ';

  19716 15 006136   040000 100400                    MLR     fill='040'O
        15 006137   000035 000001 xsym               ADSC9   B_VECTNIL+29             cn=0,n=1
        15 006140   001360 000005 1                  ADSC9   CNTMSG                   cn=0,n=5

     1264    19717    2         CNTMSG.CNT = '    No';

  19717 15 006141   040000 100400                    MLR     fill='040'O
        15 006142   000503 000006 2                  ADSC9   ONE_BLANK+29             cn=0,n=6
        15 006143   001361 200006 1                  ADSC9   CNTMSG+1                 cn=1,n=6

     1265    19718    2         END;

     1266    19719    1      IF FIRST_SYM$ = ADDR(NIL)

  19719 15 006144   001433 236000 1                  LDQ     FIRST_SYM$
        15 006145   000001 116000 xsym               CMPQ    B_VECTNIL+1
        15 006146   006153 601000 15                 TNZ     s:19723

     1267    19720    1      THEN
     1268    19721    1         CNTMSG.MODNAME = 'this rather bogus module';

  19721 15 006147   040000 100400                    MLR     fill='040'O
        15 006150   000505 000030 2                  ADSC9   ONE_BLANK+31             cn=0,n=24
        15 006151   001370 200037 1                  ADSC9   CNTMSG+8                 cn=1,n=31
        15 006152   006161 710000 15                 TRA     s:19724

     1269    19722    1      ELSE
     1270    19723    1         CNTMSG.MODNAME = FIRST_SYM$ -> SYM.T;

  19723 15 006153   001433 470400 1                  LDP0    FIRST_SYM$
PL6.E3A0      #001=XUP$PARTRGE File=XUP$PARTRGE.:E05TSI                          WED 07/30/97 09:39 Page:216
        15 006154   000001 720100                    LXL0    1,,PR0
        15 006155   000777 360003                    ANX0    511,DU
        15 006156   040000 100540                    MLR     fill='040'O
        15 006157   000002 000010                    ADSC9   2,,PR0                   cn=0,n=*X0
        15 006160   001370 200037 1                  ADSC9   CNTMSG+8                 cn=1,n=31

     1271    19724    1      ERRREFS=' ';

  19724 15 006161   040000 100400                    MLR     fill='040'O
        15 006162   000035 000001 xsym               ADSC9   B_VECTNIL+29             cn=0,n=1
        15 006163   001347 000043 1                  ADSC9   ERRREFS                  cn=0,n=35

     1272    19725    1      CALL ERROR(2);

  19725 15 006164   000136 236000 16                 LDQ     94
        15 006165   200105 756100                    STQ     TRASH_NAME+9,,AUTO
        15 006166   002363 701000 15                 TSX1    ERROR
        15 006167   000000 011000                    NOP     0

     1273    19726    1      CALL ERROR(4);

  19726 15 006170   000137 236000 16                 LDQ     95
        15 006171   200105 756100                    STQ     TRASH_NAME+9,,AUTO
        15 006172   002363 701000 15                 TSX1    ERROR
        15 006173   000000 011000                    NOP     0

     1274    19727    1      TOTAL_ERRORS = TOTAL_ERRORS + ERROR_COUNT;

  19727 15 006174   200070 236100                    LDQ     TOTAL_ERRORS,,AUTO
        15 006175   001330 036000 1                  ADLQ    ERROR_COUNT
        15 006176   200070 756100                    STQ     TOTAL_ERRORS,,AUTO

     1275    19728    1      IF ECU < HIGHEST_BC AND NOT (PREPROC.END_OF_SOURCE OR FATAL_ERROR)

  19728 15 006177   200071 236100                    LDQ     ECU,,AUTO
        15 006200   001334 116000 1                  CMPQ    HIGHEST_BC
        15 006201   006206 605000 15                 TPL     WRAP_IT_UP
PL6.E3A0      #001=XUP$PARTRGE File=XUP$PARTRGE.:E05TSI                          WED 07/30/97 09:39 Page:217
        15 006202   000644 234000 1                  SZN     PREPROC+32
        15 006203   006206 604000 15                 TMI     WRAP_IT_UP
        15 006204   001335 234000 1                  SZN     FATAL_ERROR
        15 006205   000656 605000 15                 TPL     PROCESS_ECU

     1276    19729    1      THEN
     1277    19730    1         GOTO PROCESS_ECU;
     1278    19731    1   WRAP_IT_UP:
     1279    19732    1      ERRREFS = ' ';

  19732 15 006206   040000 100400       WRAP_IT_UP   MLR     fill='040'O
        15 006207   000035 000001 xsym               ADSC9   B_VECTNIL+29             cn=0,n=1
        15 006210   001347 000043 1                  ADSC9   ERRREFS                  cn=0,n=35

     1280    19733    1      CALL ERROR (2);

  19733 15 006211   000136 236000 16                 LDQ     94
        15 006212   200105 756100                    STQ     TRASH_NAME+9,,AUTO
        15 006213   002363 701000 15                 TSX1    ERROR
        15 006214   000000 011000                    NOP     0

     1281    19734    1      OUCLS.V.DCB# = DCBNUM(M$OU);

  19734 15 006215   000000 236007 xsym               LDQ     M$OU,DL
        15 006216   000000 620006                    EAX0    0,QL
        15 006217   000342 740000 1                  STX0    OUCLS+26

     1282    19735    1      OUCLS.V.OPER.REBLD# = %YES#;

  19735 15 006220   100000 236007                    LDQ     32768,DL
        15 006221   000342 256000 1                  ORSQ    OUCLS+26

     1283    19736    1      OUCLS.V.OPER.RELG# = %YES#;

  19736 15 006222   200000 236007                    LDQ     65536,DL
        15 006223   000342 256000 1                  ORSQ    OUCLS+26

PL6.E3A0      #001=XUP$PARTRGE File=XUP$PARTRGE.:E05TSI                          WED 07/30/97 09:39 Page:218
     1284    19737    1      CALL M$CLOSE (OUCLS);

  19737 15 006224   000310 630400 1                  EPPR0   OUCLS
        15 006225   050001 713400                    CLIMB   close
        15 006226   406000 401760                    pmme    nvectors=13

     1285    19738    1      CALL XUU$CLOSE (CLOSE_FILES) ALTRET (XUU_ERROR);

  19738 15 006227   000140 630400 16                 EPPR0   96
        15 006230   000017 631400 xsym               EPPR1   B_VECTNIL+15
        15 006231   000000 701000 xent               TSX1    XUU$CLOSE
        15 006232   002710 702000 15                 TSX2    XUU_ERROR

     1286    19739    1      IF DCBADDR(DCBNUM(M$LIST)) -> F$DCB.FCD#

  19739 15 006233   000000 236007 xsym               LDQ     M$LIST,DL
        15 006234   000015 470400 16                 LDP0    13
        15 006235   000000 471500                    LDP1    0,,PR0
        15 006236   100000 473506                    LDP3    0,QL,PR1
        15 006237   300031 236100                    LDQ     25,,PR3
        15 006240   020000 316007                    CANQ    8192,DL
        15 006241   006246 600000 15                 TZE     SHUT_DOWN_IMMEDIATELY

     1287    19740    1      THEN
     1288    19741    1         CALL M$CLOSE (CLOSE_LIST) ALTRET (MONERR);

  19741 15 006242   000200 630400 2                  EPPR0   CLOSE_LIST
        15 006243   450001 713400                    CLIMB   alt,close
        15 006244   406000 401760                    pmme    nvectors=13
        15 006245   002672 702000 15                 TSX2    MONERR

     1289    19742    1   SHUT_DOWN_IMMEDIATELY:
     1290    19743    1      OUCLS.V.DCB#=DCBNUM(M$LO);

  19743 15 006246   000000 236007 xsym  SHUT_DOWN_I* LDQ     M$LO,DL
        15 006247   000000 620006                    EAX0    0,QL
        15 006250   000342 740000 1                  STX0    OUCLS+26
PL6.E3A0      #001=XUP$PARTRGE File=XUP$PARTRGE.:E05TSI                          WED 07/30/97 09:39 Page:219

     1291    19744    1      CALL M$CLOSE(OUCLS);

  19744 15 006251   000310 630400 1                  EPPR0   OUCLS
        15 006252   050001 713400                    CLIMB   close
        15 006253   406000 401760                    pmme    nvectors=13

     1292    19745    1      IF TOTAL_ERRORS ~= 0 OR (NPREFS > 0 AND NOT PP.PREF) THEN

  19745 15 006254   200070 235100                    LDA     TOTAL_ERRORS,,AUTO
        15 006255   006262 601000 15                 TNZ     s:19746
        15 006256   200067 236100                    LDQ     NPREFS,,AUTO
        15 006257   006265 604400 15                 TMOZ    s:19747
        15 006260   001426 235000 1                  LDA     PP+9
        15 006261   006265 601000 15                 TNZ     s:19747

     1293    19746    1         CALL M$EXIT (ERRXIT);

  19746 15 006262   000344 630400 2                  EPPR0   ERRXIT
        15 006263   000001 713400                    CLIMB   exit
        15 006264   400400 401760                    pmme    nvectors=2

     1294    19747    1      RETURN;

  19747 15 006265   000000 702200 xent               TSX2  ! X66_MARET

     1295    19748    1   SYMOVE:PROC(P$);

  19748 15 006266   200104 741300       SYMOVE       STX1  ! TRASH_NAME+8,,AUTO

     1296    19749    2   DCL P$ PTR;
     1297    19750    2   DCL 1 SYMO BASED(P$) ALIGNED,
     1298    19751    2         2 C UBIN(18) UNAL,
     1299    19752    2         2 T CHAR(SYMO.C);
     1300    19753    2      SYMO.C=SYM.C;

  19753 15 006267   200105 470500                    LDP0    @P$,,AUTO
PL6.E3A0      #001=XUP$PARTRGE File=XUP$PARTRGE.:E05TSI                          WED 07/30/97 09:39 Page:220
        15 006270   000000 471500                    LDP1    0,,PR0
        15 006271   001214 473400 1                  LDP3    SYM_+2
        15 006272   300001 720100                    LXL0    1,,PR3
        15 006273   000777 360003                    ANX0    511,DU
        15 006274   100000 740100                    STX0    0,,PR1

     1301    19754    2      SYMO.T=SYM.T;

  19754 15 006275   000000 471500                    LDP1    0,,PR0
        15 006276   100000 220100                    LDX0    0,,PR1
        15 006277   001214 473400 1                  LDP3    SYM_+2
        15 006300   300001 721100                    LXL1    1,,PR3
        15 006301   000777 361003                    ANX1    511,DU
        15 006302   040140 100540                    MLR     fill='040'O
        15 006303   300002 000011                    ADSC9   2,,PR3                   cn=0,n=*X1
        15 006304   100000 400010                    ADSC9   0,,PR1                   cn=2,n=*X0

     1302    19755    2      P$=PINCRW(P$,SIZEW(SYMO));

  19755 15 006305   000000 471500                    LDP1    0,,PR0
        15 006306   100000 220100                    LDX0    0,,PR1
        15 006307   000002 621010                    EAX1    2,X0
        15 006310   000000 636011                    EAQ     0,X1
        15 006311   000022 772000                    QRL     18
        15 006312   000011 402007                    MPY     9,DL
        15 006313   000043 036007                    ADLQ    35,DL
        15 006314   000044 506007                    DIV     36,DL
        15 006315   100000 633506                    EPPR3   0,QL,PR1
        15 006316   000000 453500                    STP3    0,,PR0

     1303    19756    2   END SYMOVE;

  19756 15 006317   200104 221300                    LDX1  ! TRASH_NAME+8,,AUTO
        15 006320   000001 702211                    TSX2  ! 1,X1

     1304    19757    1   EMIT_WORDS: PROC;

PL6.E3A0      #001=XUP$PARTRGE File=XUP$PARTRGE.:E05TSI                          WED 07/30/97 09:39 Page:221
  19757 15 006321   200104 741300       EMIT_WORDS   STX1  ! TRASH_NAME+8,,AUTO

     1305    19758    2   DCL K UBIN;
     1306    19759    2      IF NOT GENERATE_OU

  19759 15 006322   200062 234100                    SZN     GENERATE_OU,,AUTO
        15 006323   006325 604000 15                 TMI     s:19762

     1307    19760    2      THEN
     1308    19761    2         RETURN;

  19761 15 006324   000001 702211                    TSX2  ! 1,X1

     1309    19762    3      DO K = 0 TO J - 1;

  19762 15 006325   200105 450100                    STZ     K,,AUTO
        15 006326   006353 710000 15                 TRA     s:19764+3

     1310    19763    3         CALL XUO$PRGM (SECTION, LOC_OFFSET + K + 1, NODE.SUBNDS(K));

  19763 15 006327   200057 236100                    LDQ     LOC_OFFSET,,AUTO
        15 006330   200105 036100                    ADLQ    K,,AUTO
        15 006331   000001 036007                    ADLQ    1,DL
        15 006332   200116 756100                    STQ     NEW_OFFSET+1,,AUTO
        15 006333   200105 236100                    LDQ     K,,AUTO
        15 006334   000022 736000                    QLS     18
        15 006335   000001 036003                    ADLQ    1,DU
        15 006336   001210 036000 1                  ADLQ    NODE_+2
        15 006337   200121 756100                    STQ     NEW_OFFSET+4,,AUTO
        15 006340   200116 630500                    EPPR0   NEW_OFFSET+1,,AUTO
        15 006341   200120 450500                    STP0    NEW_OFFSET+3,,AUTO
        15 006342   200055 631500                    EPPR1   SECTION,,AUTO
        15 006343   200117 451500                    STP1    NEW_OFFSET+2,,AUTO
        15 006344   200117 630500                    EPPR0   NEW_OFFSET+2,,AUTO
        15 006345   000021 631400 xsym               EPPR1   B_VECTNIL+17
        15 006346   000000 701000 xent               TSX1    XUO$PRGM
        15 006347   000000 011000                    NOP     0
PL6.E3A0      #001=XUP$PARTRGE File=XUP$PARTRGE.:E05TSI                          WED 07/30/97 09:39 Page:222

     1311    19764    3         END;

  19764 15 006350   200105 235100                    LDA     K,,AUTO
        15 006351   000001 035007                    ADLA    1,DL
        15 006352   200105 755100                    STA     K,,AUTO
        15 006353   200105 236100                    LDQ     K,,AUTO
        15 006354   006357 604000 15                 TMI     s:19765
        15 006355   200007 116100                    CMPQ    J,,AUTO
        15 006356   006327 604000 15                 TMI     s:19763

     1312    19765    2      RETURN;

  19765 15 006357   200104 221300                    LDX1  ! TRASH_NAME+8,,AUTO
        15 006360   000001 702211                    TSX2  ! 1,X1

     1313    19766    2   END EMIT_WORDS;
     1314    19767        %EJECT;
PL6.E3A0      #001=XUP$PARTRGE File=XUP$PARTRGE.:E05TSI                          WED 07/30/97 09:39 Page:223
     1315    19768    1   GENERATE_DEBUG_NAMES: PROC;

  19768 15 006361   200104 741300       GENERATE_DE* STX1  ! TRASH_NAME+8,,AUTO

     1316    19769
     1317    19770    2      CALL GENERATE_DNAME ('TYPE!', P_TYPE_NP);

  19770 15 006362   200025 630500                    EPPR0   P_TYPE_NP,,AUTO
        15 006363   200110 450500                    STP0    @DATASIZE+1,,AUTO
        15 006364   000141 236000 16                 LDQ     97
        15 006365   200107 756100                    STQ     @DATATYPE+1,,AUTO
        15 006366   006562 701000 15                 TSX1    GENERATE_DNAME
        15 006367   000000 011000                    NOP     0

     1318    19771    2      CALL GENERATE_DNAME ('P_F!', P_P_F_NP);

  19771 15 006370   200026 630500                    EPPR0   P_P_F_NP,,AUTO
        15 006371   200110 450500                    STP0    @DATASIZE+1,,AUTO
        15 006372   000142 236000 16                 LDQ     98
        15 006373   200107 756100                    STQ     @DATATYPE+1,,AUTO
        15 006374   006562 701000 15                 TSX1    GENERATE_DNAME
        15 006375   000000 011000                    NOP     0

     1319    19772    2      CALL GENERATE_DNAME ('S_F!', P_S_F_NP);

  19772 15 006376   200027 630500                    EPPR0   P_S_F_NP,,AUTO
        15 006377   200110 450500                    STP0    @DATASIZE+1,,AUTO
        15 006400   000143 236000 16                 LDQ     99
        15 006401   200107 756100                    STQ     @DATATYPE+1,,AUTO
        15 006402   006562 701000 15                 TSX1    GENERATE_DNAME
        15 006403   000000 011000                    NOP     0

     1320    19773    2      CALL GENERATE_DNAME ('F_F!', P_F_F_NP);

  19773 15 006404   200030 630500                    EPPR0   P_F_F_NP,,AUTO
        15 006405   200110 450500                    STP0    @DATASIZE+1,,AUTO
        15 006406   000144 236000 16                 LDQ     100
PL6.E3A0      #001=XUP$PARTRGE File=XUP$PARTRGE.:E05TSI                          WED 07/30/97 09:39 Page:224
        15 006407   200107 756100                    STQ     @DATATYPE+1,,AUTO
        15 006410   006562 701000 15                 TSX1    GENERATE_DNAME
        15 006411   000000 011000                    NOP     0

     1321    19774    2      CALL GENERATE_DNAME ('O_F!', P_O_F_NP);

  19774 15 006412   200031 630500                    EPPR0   P_O_F_NP,,AUTO
        15 006413   200110 450500                    STP0    @DATASIZE+1,,AUTO
        15 006414   000145 236000 16                 LDQ     101
        15 006415   200107 756100                    STQ     @DATATYPE+1,,AUTO
        15 006416   006562 701000 15                 TSX1    GENERATE_DNAME
        15 006417   000000 011000                    NOP     0

     1322    19775    2      CALL GENERATE_DNAME ('OPT!', P_OPT_NP);

  19775 15 006420   200032 630500                    EPPR0   P_OPT_NP,,AUTO
        15 006421   200110 450500                    STP0    @DATASIZE+1,,AUTO
        15 006422   000146 236000 16                 LDQ     102
        15 006423   200107 756100                    STQ     @DATATYPE+1,,AUTO
        15 006424   006562 701000 15                 TSX1    GENERATE_DNAME
        15 006425   000000 011000                    NOP     0

     1323    19776    2      CALL GENERATE_DNAME ('RPEAT!', P_RPEAT_NP);

  19776 15 006426   200033 630500                    EPPR0   P_RPEAT_NP,,AUTO
        15 006427   200110 450500                    STP0    @DATASIZE+1,,AUTO
        15 006430   000147 236000 16                 LDQ     103
        15 006431   200107 756100                    STQ     @DATATYPE+1,,AUTO
        15 006432   006562 701000 15                 TSX1    GENERATE_DNAME
        15 006433   000000 011000                    NOP     0

     1324    19777    2      CALL GENERATE_DNAME ('SKBL!', P_SKBL_NP);

  19777 15 006434   200034 630500                    EPPR0   P_SKBL_NP,,AUTO
        15 006435   200110 450500                    STP0    @DATASIZE+1,,AUTO
        15 006436   000150 236000 16                 LDQ     104
        15 006437   200107 756100                    STQ     @DATATYPE+1,,AUTO
PL6.E3A0      #001=XUP$PARTRGE File=XUP$PARTRGE.:E05TSI                          WED 07/30/97 09:39 Page:225
        15 006440   006562 701000 15                 TSX1    GENERATE_DNAME
        15 006441   000000 011000                    NOP     0

     1325    19778    2      CALL GENERATE_DNAME ('RTEXT!', P_RTEXT_NP);

  19778 15 006442   200035 630500                    EPPR0   P_RTEXT_NP,,AUTO
        15 006443   200110 450500                    STP0    @DATASIZE+1,,AUTO
        15 006444   000151 236000 16                 LDQ     105
        15 006445   200107 756100                    STQ     @DATATYPE+1,,AUTO
        15 006446   006562 701000 15                 TSX1    GENERATE_DNAME
        15 006447   000000 011000                    NOP     0

     1326    19779    2      CALL GENERATE_DNAME ('UPRLOWR!', P_UPRLOWR_NP);

  19779 15 006450   200036 630500                    EPPR0   P_UPRLOWR_NP,,AUTO
        15 006451   200110 450500                    STP0    @DATASIZE+1,,AUTO
        15 006452   000152 236000 16                 LDQ     106
        15 006453   200107 756100                    STQ     @DATATYPE+1,,AUTO
        15 006454   006562 701000 15                 TSX1    GENERATE_DNAME
        15 006455   000000 011000                    NOP     0

     1327    19780    2      CALL GENERATE_DNAME ('MAKEUC!', P_MAKEUC_NP);

  19780 15 006456   200037 630500                    EPPR0   P_MAKEUC_NP,,AUTO
        15 006457   200110 450500                    STP0    @DATASIZE+1,,AUTO
        15 006460   000153 236000 16                 LDQ     107
        15 006461   200107 756100                    STQ     @DATATYPE+1,,AUTO
        15 006462   006562 701000 15                 TSX1    GENERATE_DNAME
        15 006463   000000 011000                    NOP     0

     1328    19781    2      CALL GENERATE_DNAME ('ABBREV!', P_ABBREV_NP);

  19781 15 006464   200040 630500                    EPPR0   P_ABBREV_NP,,AUTO
        15 006465   200110 450500                    STP0    @DATASIZE+1,,AUTO
        15 006466   000154 236000 16                 LDQ     108
        15 006467   200107 756100                    STQ     @DATATYPE+1,,AUTO
        15 006470   006562 701000 15                 TSX1    GENERATE_DNAME
PL6.E3A0      #001=XUP$PARTRGE File=XUP$PARTRGE.:E05TSI                          WED 07/30/97 09:39 Page:226
        15 006471   000000 011000                    NOP     0

     1329    19782    2      CALL GENERATE_DNAME ('CODE!', P_CODE_NP);

  19782 15 006472   200041 630500                    EPPR0   P_CODE_NP,,AUTO
        15 006473   200110 450500                    STP0    @DATASIZE+1,,AUTO
        15 006474   000155 236000 16                 LDQ     109
        15 006475   200107 756100                    STQ     @DATATYPE+1,,AUTO
        15 006476   006562 701000 15                 TSX1    GENERATE_DNAME
        15 006477   000000 011000                    NOP     0

     1330    19783    2      CALL GENERATE_DNAME ('NSUBNDS!', P_NSUBNDS_NP);

  19783 15 006500   200042 630500                    EPPR0   P_NSUBNDS_NP,,AUTO
        15 006501   200110 450500                    STP0    @DATASIZE+1,,AUTO
        15 006502   000156 236000 16                 LDQ     110
        15 006503   200107 756100                    STQ     @DATATYPE+1,,AUTO
        15 006504   006562 701000 15                 TSX1    GENERATE_DNAME
        15 006505   000000 011000                    NOP     0

     1331    19784    2      CALL GENERATE_DNAME ('COUNT!', P_COUNT_NP);

  19784 15 006506   200043 630500                    EPPR0   P_COUNT_NP,,AUTO
        15 006507   200110 450500                    STP0    @DATASIZE+1,,AUTO
        15 006510   000157 236000 16                 LDQ     111
        15 006511   200107 756100                    STQ     @DATATYPE+1,,AUTO
        15 006512   006562 701000 15                 TSX1    GENERATE_DNAME
        15 006513   000000 011000                    NOP     0

     1332    19785    2      CALL GENERATE_DNAME ('TEXT!', P_TEXT_NP);

  19785 15 006514   200044 630500                    EPPR0   P_TEXT_NP,,AUTO
        15 006515   200110 450500                    STP0    @DATASIZE+1,,AUTO
        15 006516   000160 236000 16                 LDQ     112
        15 006517   200107 756100                    STQ     @DATATYPE+1,,AUTO
        15 006520   006562 701000 15                 TSX1    GENERATE_DNAME
        15 006521   000000 011000                    NOP     0
PL6.E3A0      #001=XUP$PARTRGE File=XUP$PARTRGE.:E05TSI                          WED 07/30/97 09:39 Page:227

     1333    19786    2      CALL GENERATE_DNAME ('XTRA!', P_XTRA_NP);

  19786 15 006522   200045 630500                    EPPR0   P_XTRA_NP,,AUTO
        15 006523   200110 450500                    STP0    @DATASIZE+1,,AUTO
        15 006524   000161 236000 16                 LDQ     113
        15 006525   200107 756100                    STQ     @DATATYPE+1,,AUTO
        15 006526   006562 701000 15                 TSX1    GENERATE_DNAME
        15 006527   000000 011000                    NOP     0

     1334    19787    2      CALL GENERATE_DNAME ('SUBNDS$!', P_SUBNDS$_NP);

  19787 15 006530   200046 630500                    EPPR0   P_SUBNDS$_NP,,AUTO
        15 006531   200110 450500                    STP0    @DATASIZE+1,,AUTO
        15 006532   000162 236000 16                 LDQ     114
        15 006533   200107 756100                    STQ     @DATATYPE+1,,AUTO
        15 006534   006562 701000 15                 TSX1    GENERATE_DNAME
        15 006535   000000 011000                    NOP     0

     1335    19788    2      CALL GENERATE_DNAME ('LEXTYPE!', P_LEXTYPE_NP);

  19788 15 006536   200047 630500                    EPPR0   P_LEXTYPE_NP,,AUTO
        15 006537   200110 450500                    STP0    @DATASIZE+1,,AUTO
        15 006540   000163 236000 16                 LDQ     115
        15 006541   200107 756100                    STQ     @DATATYPE+1,,AUTO
        15 006542   006562 701000 15                 TSX1    GENERATE_DNAME
        15 006543   000000 011000                    NOP     0

     1336    19789    2      CALL GENERATE_DNAME ('MAXL!', P_MAXL_NP);

  19789 15 006544   200050 630500                    EPPR0   P_MAXL_NP,,AUTO
        15 006545   200110 450500                    STP0    @DATASIZE+1,,AUTO
        15 006546   000164 236000 16                 LDQ     116
        15 006547   200107 756100                    STQ     @DATATYPE+1,,AUTO
        15 006550   006562 701000 15                 TSX1    GENERATE_DNAME
        15 006551   000000 011000                    NOP     0

PL6.E3A0      #001=XUP$PARTRGE File=XUP$PARTRGE.:E05TSI                          WED 07/30/97 09:39 Page:228
     1337    19790    2      CALL GENERATE_DNAME ('DLIM!', P_DLIM_NP);

  19790 15 006552   200051 630500                    EPPR0   P_DLIM_NP,,AUTO
        15 006553   200110 450500                    STP0    @DATASIZE+1,,AUTO
        15 006554   000165 236000 16                 LDQ     117
        15 006555   200107 756100                    STQ     @DATATYPE+1,,AUTO
        15 006556   006562 701000 15                 TSX1    GENERATE_DNAME
        15 006557   000000 011000                    NOP     0

     1338    19791
     1339    19792    2      RETURN;

  19792 15 006560   200104 221300                    LDX1  ! TRASH_NAME+8,,AUTO
        15 006561   000001 702211                    TSX2  ! 1,X1

     1340    19793
     1341    19794    2   END GENERATE_DEBUG_NAMES;
     1342    19795        %EJECT;
PL6.E3A0      #001=XUP$PARTRGE File=XUP$PARTRGE.:E05TSI                          WED 07/30/97 09:39 Page:229
     1343    19796    1   GENERATE_DNAME: PROC (STRING, NAME_POINTER);

  19796 15 006562   200106 741300       GENERATE_DN* STX1  ! IS_LAST_LINE,,AUTO

     1344    19797
     1345    19798    2   DCL STRING CHAR (32);
     1346    19799    2   DCL SLEN UBIN;
     1347    19800    2   DCL NAME_POINTER UBIN;
     1348    19801
     1349    19802    2      CALL INDEX (SLEN, '!', STRING);

  19802 15 006563   200107 470500                    LDP0    @STRING,,AUTO
        15 006564   000000 124500                    SCM     mask='000'O
        15 006565   000000 000040                    ADSC9   0,,PR0                   cn=0,n=32
        15 006566   000166 000001 16                 ADSC9   118                      cn=0,n=1
        15 006567   200111 000100                    ARG     SLEN,,AUTO

     1350    19803
     1351    19804    2      P_NAME.COUNT = SLEN;

  19804 15 006570   200111 720100                    LXL0    SLEN,,AUTO
        15 006571   200013 740100                    STX0    P_NAME,,AUTO

     1352    19805    2      P_NAME.TEXT = SUBSTR (STRING, 0, SLEN);

  19805 15 006572   040100 100540                    MLR     fill='040'O
        15 006573   000000 000010                    ADSC9   0,,PR0                   cn=0,n=*X0
        15 006574   200013 400037                    ADSC9   P_NAME,,AUTO             cn=2,n=31

     1353    19806
     1354    19807    2      CALL XUO$DBGNAME (P_NAME, NAME_POINTER);

  19807 15 006575   200110 236100                    LDQ     @NAME_POINTER,,AUTO
        15 006576   200117 756100                    STQ     NEW_OFFSET+2,,AUTO
        15 006577   200013 631500                    EPPR1   P_NAME,,AUTO
        15 006600   200116 451500                    STP1    NEW_OFFSET+1,,AUTO
        15 006601   200116 630500                    EPPR0   NEW_OFFSET+1,,AUTO
PL6.E3A0      #001=XUP$PARTRGE File=XUP$PARTRGE.:E05TSI                          WED 07/30/97 09:39 Page:230
        15 006602   000020 631400 xsym               EPPR1   B_VECTNIL+16
        15 006603   000000 701000 xent               TSX1    XUO$DBGNAME
        15 006604   000000 011000                    NOP     0

     1355    19808
     1356    19809    2      RETURN;

  19809 15 006605   200106 221300                    LDX1  ! IS_LAST_LINE,,AUTO
        15 006606   000001 702211                    TSX2  ! 1,X1

     1357    19810
     1358    19811    2   END GENERATE_DNAME;
     1359    19812        %EJECT;
PL6.E3A0      #001=XUP$PARTRGE File=XUP$PARTRGE.:E05TSI                          WED 07/30/97 09:39 Page:231
     1360    19813    1   GENERATE_LEVEL2: PROC (NAME_POINTER, DATATYPE, DATASIZE, ELEMENTS);

  19813 15 006607   200104 741300       GENERATE_LE* STX1  ! TRASH_NAME+8,,AUTO

     1361    19814
     1362    19815    2   DCL NAME_POINTER UBIN;
     1363    19816    2   DCL DATATYPE UBIN;
     1364    19817    2   DCL DATASIZE UBIN;
     1365    19818    2   DCL ELEMENTS UBIN;
     1366    19819
     1367    19820    2   DCL ACTUAL_ELEMENTS UBIN;
     1368    19821    2   DCL ALIGNMENT UBIN;
     1369    19822    2   DCL ARRAY_TYPE UBIN;
     1370    19823    2   DCL ELEMENT_SIZE UBIN;
     1371    19824    2   DCL NEW_OFFSET UBIN;
     1372    19825
     1373    19826    2      IF ADDR(ELEMENTS) = ADDR(NIL)

  19826 15 006610   200110 236100                    LDQ     @ELEMENTS,,AUTO
        15 006611   000001 116000 xsym               CMPQ    B_VECTNIL+1
        15 006612   006620 601000 15                 TNZ     s:19837

     1374    19827    3      THEN DO;

     1375    19828
     1376    19829    3         ARRAY_TYPE = %SCALAR_ARRAY;

  19829 15 006613   200113 450100                    STZ     ARRAY_TYPE,,AUTO

     1377    19830    3         ACTUAL_ELEMENTS = 1;

  19830 15 006614   000001 235007                    LDA     1,DL
        15 006615   200111 755100                    STA     ACTUAL_ELEMENTS,,AUTO

     1378    19831    3         ELEMENT_SIZE = 0;

  19831 15 006616   200114 450100                    STZ     ELEMENT_SIZE,,AUTO
PL6.E3A0      #001=XUP$PARTRGE File=XUP$PARTRGE.:E05TSI                          WED 07/30/97 09:39 Page:232

     1379    19832
     1380    19833    3         END;

  19833 15 006617   006654 710000 15                 TRA     s:19858

     1381    19834
     1382    19835    3      ELSE DO;

     1383    19836
     1384    19837    3         ARRAY_TYPE = %VECTOR0_ARRAY;

  19837 15 006620   000001 235007                    LDA     1,DL
        15 006621   200113 755100                    STA     ARRAY_TYPE,,AUTO

     1385    19838    3         ACTUAL_ELEMENTS = ELEMENTS;

  19838 15 006622   200110 470500                    LDP0    @ELEMENTS,,AUTO
        15 006623   000000 235100                    LDA     0,,PR0
        15 006624   200111 755100                    STA     ACTUAL_ELEMENTS,,AUTO

     1386    19839
     1387    19840    4         DO CASE (DATATYPE);

  19840 15 006625   200106 471500                    LDP1    @DATATYPE,,AUTO
        15 006626   100000 235100                    LDA     0,,PR1
        15 006627   000015 135007                    SBLA    13,DL
        15 006630   000011 115007                    CMPA    9,DL
        15 006631   006633 602005 15                 TNC     s:19840+6,AL
        15 006632   006652 710000 15                 TRA     s:19852
        15 006633   006647 710000 15                 TRA     s:19848
        15 006634   006652 710000 15                 TRA     s:19852
        15 006635   006652 710000 15                 TRA     s:19852
        15 006636   006652 710000 15                 TRA     s:19852
        15 006637   006652 710000 15                 TRA     s:19852
        15 006640   006652 710000 15                 TRA     s:19852
        15 006641   006652 710000 15                 TRA     s:19852
PL6.E3A0      #001=XUP$PARTRGE File=XUP$PARTRGE.:E05TSI                          WED 07/30/97 09:39 Page:233
        15 006642   006652 710000 15                 TRA     s:19852
        15 006643   006644 710000 15                 TRA     s:19844

     1388    19841
     1389    19842    4         CASE (%CHAR_DATATYPE);

     1390    19843
     1391    19844    4            ELEMENT_SIZE = 9;

  19844 15 006644   000011 235007                    LDA     9,DL
        15 006645   200114 755100                    STA     ELEMENT_SIZE,,AUTO
        15 006646   006654 710000 15                 TRA     s:19858

     1392    19845
     1393    19846    4         CASE (%POINTER_DATATYPE);

     1394    19847
     1395    19848    4            ELEMENT_SIZE = 36;

  19848 15 006647   000044 235007                    LDA     36,DL
        15 006650   200114 755100                    STA     ELEMENT_SIZE,,AUTO
        15 006651   006654 710000 15                 TRA     s:19858

     1396    19849
     1397    19850    4         CASE (ELSE);

     1398    19851
     1399    19852    4            ELEMENT_SIZE = 1;

  19852 15 006652   000001 235007                    LDA     1,DL
        15 006653   200114 755100                    STA     ELEMENT_SIZE,,AUTO

     1400    19853
     1401    19854    4         END;

     1402    19855
     1403    19856    3         END;
PL6.E3A0      #001=XUP$PARTRGE File=XUP$PARTRGE.:E05TSI                          WED 07/30/97 09:39 Page:234

     1404    19857
     1405    19858    3      DO CASE (DATATYPE);

  19858 15 006654   200106 470500                    LDP0    @DATATYPE,,AUTO
        15 006655   000000 235100                    LDA     0,,PR0
        15 006656   000015 135007                    SBLA    13,DL
        15 006657   000011 115007                    CMPA    9,DL
        15 006660   006662 602005 15                 TNC     s:19858+6,AL
        15 006661   006715 710000 15                 TRA     s:19872
        15 006662   006704 710000 15                 TRA     s:19867
        15 006663   006715 710000 15                 TRA     s:19872
        15 006664   006715 710000 15                 TRA     s:19872
        15 006665   006715 710000 15                 TRA     s:19872
        15 006666   006715 710000 15                 TRA     s:19872
        15 006667   006715 710000 15                 TRA     s:19872
        15 006670   006715 710000 15                 TRA     s:19872
        15 006671   006715 710000 15                 TRA     s:19872
        15 006672   006673 710000 15                 TRA     s:19862

     1406    19859
     1407    19860    3      CASE (%CHAR_DATATYPE);

     1408    19861
     1409    19862    3         ALIGNMENT = 3 /* byte aligned */;

  19862 15 006673   000003 235007                    LDA     3,DL
        15 006674   200112 755100                    STA     ALIGNMENT,,AUTO

     1410    19863    3         NEW_OFFSET = LOC_OFFSET + DATASIZE * ACTUAL_ELEMENTS * 9;

  19863 15 006675   200107 471500                    LDP1    @DATASIZE,,AUTO
        15 006676   100000 236100                    LDQ     0,,PR1
        15 006677   200111 402100                    MPY     ACTUAL_ELEMENTS,,AUTO
        15 006700   000011 402007                    MPY     9,DL
        15 006701   200057 036100                    ADLQ    LOC_OFFSET,,AUTO
        15 006702   200115 756100                    STQ     NEW_OFFSET,,AUTO
PL6.E3A0      #001=XUP$PARTRGE File=XUP$PARTRGE.:E05TSI                          WED 07/30/97 09:39 Page:235
        15 006703   006724 710000 15                 TRA     s:19877

     1411    19864
     1412    19865    3      CASE (%POINTER_DATATYPE);

     1413    19866
     1414    19867    3         ALIGNMENT = 1 /* word aligned */;

  19867 15 006704   000001 235007                    LDA     1,DL
        15 006705   200112 755100                    STA     ALIGNMENT,,AUTO

     1415    19868    3         NEW_OFFSET = LOC_OFFSET + DATASIZE * ACTUAL_ELEMENTS * 36;

  19868 15 006706   200107 471500                    LDP1    @DATASIZE,,AUTO
        15 006707   100000 236100                    LDQ     0,,PR1
        15 006710   200111 402100                    MPY     ACTUAL_ELEMENTS,,AUTO
        15 006711   000044 402007                    MPY     36,DL
        15 006712   200057 036100                    ADLQ    LOC_OFFSET,,AUTO
        15 006713   200115 756100                    STQ     NEW_OFFSET,,AUTO
        15 006714   006724 710000 15                 TRA     s:19877

     1416    19869
     1417    19870    3      CASE (ELSE);

     1418    19871
     1419    19872    3         ALIGNMENT = 4 /* bit aligned */;

  19872 15 006715   000004 235007                    LDA     4,DL
        15 006716   200112 755100                    STA     ALIGNMENT,,AUTO

     1420    19873    3         NEW_OFFSET = LOC_OFFSET + DATASIZE * ACTUAL_ELEMENTS;

  19873 15 006717   200107 471500                    LDP1    @DATASIZE,,AUTO
        15 006720   100000 236100                    LDQ     0,,PR1
        15 006721   200111 402100                    MPY     ACTUAL_ELEMENTS,,AUTO
        15 006722   200057 036100                    ADLQ    LOC_OFFSET,,AUTO
        15 006723   200115 756100                    STQ     NEW_OFFSET,,AUTO
PL6.E3A0      #001=XUP$PARTRGE File=XUP$PARTRGE.:E05TSI                          WED 07/30/97 09:39 Page:236

     1421    19874
     1422    19875    3      END;

     1423    19876
     1424    19877    2      CALL XUO$VREBL (LOC_OFFSET,

  19877 15 006724   200053 633500                    EPPR3   HIGHEST_VREBL_ENTRY,,AUTO
        15 006725   200137 453500                    STP3    NEW_OFFSET+18,,AUTO
        15 006726   200105 236100                    LDQ     @NAME_POINTER,,AUTO
        15 006727   200136 756100                    STQ     NEW_OFFSET+17,,AUTO
        15 006730   200111 634500                    EPPR4   ACTUAL_ELEMENTS,,AUTO
        15 006731   200135 454500                    STP4    NEW_OFFSET+16,,AUTO
        15 006732   000032 236000 16                 LDQ     26
        15 006733   200134 756100                    STQ     NEW_OFFSET+15,,AUTO
        15 006734   200114 635500                    EPPR5   ELEMENT_SIZE,,AUTO
        15 006735   200133 455500                    STP5    NEW_OFFSET+14,,AUTO
        15 006736   200055 636500                    EPPR6   SECTION,,AUTO
        15 006737   200132 456500                    STP6    NEW_OFFSET+13,,AUTO
        15 006740   000100 237000 16                 LDAQ    64
        15 006741   200130 757100                    STAQ    NEW_OFFSET+11,,AUTO
        15 006742   200113 637500                    EPPR7   ARRAY_TYPE,,AUTO
        15 006743   200127 457500                    STP7    NEW_OFFSET+10,,AUTO
        15 006744   000032 236000 16                 LDQ     26
        15 006745   200126 756100                    STQ     NEW_OFFSET+9,,AUTO
        15 006746   200112 630500                    EPPR0   ALIGNMENT,,AUTO
        15 006747   200125 450500                    STP0    NEW_OFFSET+8,,AUTO
        15 006750   000136 236000 16                 LDQ     94
        15 006751   200124 756100                    STQ     NEW_OFFSET+7,,AUTO
        15 006752   200107 236100                    LDQ     @DATASIZE,,AUTO
        15 006753   000032 235000 16                 LDA     26
        15 006754   200122 757100                    STAQ    NEW_OFFSET+5,,AUTO
        15 006755   000032 236000 16                 LDQ     26
        15 006756   200106 235100                    LDA     @DATATYPE,,AUTO
        15 006757   200120 757100                    STAQ    NEW_OFFSET+3,,AUTO
        15 006760   000045 236000 16                 LDQ     37
        15 006761   200117 756100                    STQ     NEW_OFFSET+2,,AUTO
PL6.E3A0      #001=XUP$PARTRGE File=XUP$PARTRGE.:E05TSI                          WED 07/30/97 09:39 Page:237
        15 006762   200057 630500                    EPPR0   LOC_OFFSET,,AUTO
        15 006763   200116 450500                    STP0    NEW_OFFSET+1,,AUTO
        15 006764   200116 630500                    EPPR0   NEW_OFFSET+1,,AUTO
        15 006765   000076 631400 16                 EPPR1   62
        15 006766   000000 701000 xent               TSX1    XUO$VREBL
        15 006767   000000 011000                    NOP     0

     1425    19878    2        1 /* static */,
     1426    19879    2        DATATYPE,
     1427    19880    2        '0'B /* not used */,
     1428    19881    2        '0'B /* not modified */,
     1429    19882    2        DATASIZE,
     1430    19883    2        2 /* level */,
     1431    19884    2        ALIGNMENT,
     1432    19885    2        0 /* size is actual */,
     1433    19886    2        ARRAY_TYPE,
     1434    19887    2        %OPERSECT,
     1435    19888    2        0 /* implied ptr; unused */,
     1436    19889    2        SECTION /* for relocation */,
     1437    19890    2        ELEMENT_SIZE,
     1438    19891    2        0 /* scale factor; unused */,
     1439    19892    2        ACTUAL_ELEMENTS,
     1440    19893    2        NAME_POINTER,
     1441    19894    2        HIGHEST_VREBL_ENTRY);
     1442    19895
     1443    19896    2      LOC_OFFSET = NEW_OFFSET;

  19896 15 006770   200115 235100                    LDA     NEW_OFFSET,,AUTO
        15 006771   200057 755100                    STA     LOC_OFFSET,,AUTO

     1444    19897
     1445    19898    2      RETURN;

  19898 15 006772   200104 221300                    LDX1  ! TRASH_NAME+8,,AUTO
        15 006773   000001 702211                    TSX2  ! 1,X1
     1446    19899
     1447    19900    2   END GENERATE_LEVEL2;
PL6.E3A0      #001=XUP$PARTRGE File=XUP$PARTRGE.:E05TSI                          WED 07/30/97 09:39 Page:238
     1448    19901
     1449    19902    1   END XUP$PARTRGE;
     1450    19903        %EOD;

PL6.E3A0      #001=XUP$PARTRGE File=XUP$PARTRGE.:E05TSI                          WED 07/30/97 09:39 Page:239
--  Include file information  --

   ZQ$INTERFACE_M.:TOOLE04  is referenced.
   XUX$INTERFACE_M.:E05TOU  is referenced.
   XUO$ENTRIES.:E05TOU  cannot be made into a system file and is referenced.
   XU_PERR_C.:E05TOU  is referenced.
   XU_SUBS_C.:E05TOU  is referenced.
   XU_MACRO_C.:E05TOU  is referenced.
   CP_6_SUBS.:E05TOU  is referenced.
   CP_6_C.:E05TOU  is referenced.
   CP_6.:E05TOU  cannot be made into a system file and is referenced.
   B$OBJECT_C.:E05TOU  is referenced.
   B_MICROPS_C.:E05TOU  is referenced.
   B$JIT_C.:E05TOU  is referenced.
   B$JIT.:E05TOU  cannot be made into a system file and is referenced.
      No diagnostics issued in procedure XUP$PARTRGE.
PL6.E3A0      #001=XUP$PARTRGE File=XUP$PARTRGE.:E05TSI                          WED 07/30/97 09:39 Page:240

 **** Variables and constants ****

  ****  Section 001  Data  XUP$PARTRGE

  ****  Scalars and arrays  ****
OctLoc.c.b A Datatyp(siz) R M Lvl/name                 OctLoc.c.b A Datatyp(siz) R M Lvl/name

  1435-0-0/w UBIN        r     1 ABORT                   1331-0-0/b BIT         r     1 BC(0:99)
   566-0-0/w STRC(504)   r     1 CLOSE_FILES             1360-0-0/c STRC(576)   r     1 CNTMSG
   274-0-0/d STRC(432)   r     1 COREFPT                  370-0-0/d STRC(936)   r     1 EFPT
  1435-0-0/w STRC        r     1 ERCODE                  1337-0-0/c CHAR(29)    r     1 ERRDUBDEF
  1330-0-0/w UBIN        r     1 ERROR_COUNT             1347-0-0/c CHAR(35)    r     1 ERRREFS
  1335-0-0/b BIT         r     1 FATAL_ERROR             1433-0-0/w PTR         r     1 FIRST_SYM$
   506-0-0/d STRC(864)   r     1 FPT_FID                   56-0-0/d STRC(504)   r     1 FPT_READ
  1334-0-0/w SBIN        r     1 HIGHEST_BC               472-0-0/d STRC(432)   r     1 HTIM
  1222-0-0/w PTR         r     1 LEXES$(0:29)            1414-0-0/w SBIN        r     1 LINE#
  1220-0-0/w SBIN        r     1 LITCODE                 1221-0-0/b BIT         r     1 LIT_PRESENT
    74-0-0/d STRC(432)   r     1 LOFPT                    434-0-0/w STRC(1017)  r     1 LOHDR
  1121-0-0/c STRC(1197)  r     1 LS_BUFFER               1260-0-0/d REMB        r     1 NOCORERR
  1216-0-0/b STRC(72)    r     1 NODECODE                 346-0-0/d STRC(216)   r     1 NODEFPT
  1206-0-0/d STRC(144)   r     1 NODE_                    550-0-0/w STRC(504)   r     1 OPEN_FILES
  1415-0-0/b BIT         r     1 OPTS(0:13)               310-0-0/d STRC(1080)  r     1 OUCLS
   202-0-0/d STRC(2088)  r     1 OUOPN                    653-0-0/w STRC        r     1 PARTRGE$INPUT_KEY
   652-0-0/w UBIN        r     1 PARTRGE$RECNO           1415-0-0/b STRC(504)   r     1 PP
   604-0-0/w STRC(1368)  r     1 PREPROC                   40-0-0/w STRC(504)   r     1 P_PCB
   126-0-0/d STRC(504)   r     1 READ_DIAG                110-0-0/d STRC(504)   r     1 READ_LIST
   174-0-0/d STRC(216)   r     1 REWIND_PP_FILE          1163-0-0/c STRC(477)   r     1 SALUTATION
   354-0-0/d STRC(216)   r     1 SYMFPT                  1267-0-0/w SBIN        r     1 SYMSZS(0:31)
  1212-0-0/d STRC(144)   r     1 SYM_                    1400-0-0/c STRC(405)   r     1 SYNMSG
  1262-0-0/d REMB        r     1 SYNTAXERR                  0-0-0/w STRC(1152)  r     1 TEXT
  1071-0-0/c CHAR(95)    r     1 TITC                    1071-0-0/c STRC(855)   r     1 TITL
   422-0-0/d STRC(360)   r     1 TOPAGE                  1336-0-0/c STRC(18)    r     1 VERSION_INFO
   536-0-0/d STRC(324)   r     1 VLR_FID                 1327-0-0/w UBIN        r     1 WIDTH
   362-0-0/d STRC(216)   r     1 WORKFPT                 1202-0-0/d STRC(144)   r     1 WORK_
   144-0-0/d STRC(432)   r     1 WRITE_LS                 160-0-0/d STRC(432)   r     1 WRITE_SALUTATION
  1264-0-0/d REMB        r     1 XUOERROR                1266-0-0/b BIT         r     1 XUO_ERROR_CODE
  1436-0-0/w STRC(6912)  r     1 XUX$SRCH_LIST           1026-0-0/w STRC(1233)  r     1 ZQ$DIAG_BUFFER
PL6.E3A0      #001=XUP$PARTRGE File=XUP$PARTRGE.:E05TSI                          WED 07/30/97 09:39 Page:241
   763-0-0/w STRC(1233)  r     1 ZQ$LS_BUFFER             654-0-0/w STRC(2556)  r     1 ZQ$NS_BUFFER

  ****  Section 002 RoData XUP$PARTRGE

  ****  Scalars and arrays  ****
OctLoc.c.b A Datatyp(siz) R M Lvl/name                 OctLoc.c.b A Datatyp(siz) R M Lvl/name

   236-0-0/d STRC(1080)  r     1 CLOSE_DIAG               200-0-0/d STRC(1080)  r     1 CLOSE_LIST
   274-0-0/d STRC(1080)  r     1 CLOSE_NS                 352-0-0/b BIT (54)    r     1 COREKEY
   106-0-0/d STRC(2088)  r     1 COREOPN                  340-0-0/d STRC(144)   r     1 CORR
   354-0-0/b BIT (72)    r     1 ERRVEC(0:8)              344-0-0/d STRC(216)   r     1 ERRXIT
   335-0-0/c STRC(63)    r     1 KEYINOU                  332-0-0/c STRC(81)    r     1 KEYINSI
   410-0-0/c CHAR(54)    r     1 MAKEUCERR                446-0-0/c CHAR        r     1 ONE_BLANK
   437-0-0/c CHAR(26)    r     1 PREPERR                  426-0-0/c CHAR(35)    r     1 PRFMSG
   376-0-0/c CHAR(38)    r     1 RTEXTERR                  14-0-0/d STRC(2088)  r     1 SIOPN
     0-0-0/d STRC(432)   r     1 WRITE_BLANK

  ****  Auto variables  ****

  ****  Scalars and arrays  ****
OctLoc.c.b A Datatyp(siz) R M Lvl/name                 OctLoc.c.b A Datatyp(siz) R M Lvl/name

   107-0-0/w PTR         r     1 @DATASIZE                106-0-0/w PTR         r     1 @DATATYPE
   105-0-0/w PTR         r     1 @E#                      110-0-0/w PTR         r     1 @ELEMENTS
   110-0-0/w PTR         r     1 @NAME_POINTER            105-0-0/w PTR         r     1 @NAME_POINTER
   105-0-0/w PTR         r     1 @P$                      107-0-0/w PTR         r     1 @STRING
   111-0-0/w UBIN        r     1 ACTUAL_ELEMENTS          112-0-0/w UBIN        r     1 ALIGNMENT
   113-0-0/w UBIN        r     1 ARRAY_TYPE                 4-0-0/w PTR         r     1 BLK$
     5-0-0/w SBIN        r     1 C                         72-0-0/c CHAR(6)     r     1 CTEMP
    *0-0-0/w UBIN        r     1 DATASIZE                  *0-0-0/w UBIN        r     1 DATATYPE
    *0-0-0/w UBIN        r     1 E#                        71-0-0/w SBIN        r     1 ECU
    *0-0-0/w UBIN        r     1 ELEMENTS                 114-0-0/w UBIN        r     1 ELEMENT_SIZE
    60-0-0/b BIT         r     1 EMIT_STANDARD             61-0-0/b BIT         r     1 GENERATE_CORE_IMAGE
    62-0-0/b BIT         r     1 GENERATE_OU               54-0-0/w UBIN        r     1 HIGHEST_LINE_NUMBER
    53-0-0/w UBIN        r     1 HIGHEST_VREBL_ENTRY        6-0-0/w SBIN        r     1 I
    56-0-0/w UBIN        r     1 ISSID_SEGREF_NUMBER      106-0-0/b BIT         r     1 IS_LAST_LINE
     7-0-0/w SBIN        r     1 J                         10-0-0/w SBIN        r     1 K
PL6.E3A0      #001=XUP$PARTRGE File=XUP$PARTRGE.:E05TSI                          WED 07/30/97 09:39 Page:242
   105-0-0/w UBIN        r     1 K                         11-0-0/w SBIN        r     1 L
    63-0-0/b BIT         r     1 LAST_LINE_WAS_DIAGNOSTIC
    57-0-0/w UBIN        r     1 LOC_OFFSET                52-0-0/w UBIN        r     1 LOGBLK_NUMBER
    *0-0-0/w UBIN        r     1 NAME_POINTER              *0-0-0/w UBIN        r     1 NAME_POINTER
   115-0-0/w UBIN        r     1 NEW_OFFSET                 3-0-0/b BIT         r     1 NONBLANK_FOUND
    67-0-0/w SBIN        r     1 NPREFS                    *0-0-0/w PTR         r     1 P$
    12-0-0/w SBIN        r     1 PGMSIZE                   65-0-0/b BIT         r     1 PREPROCESSOR_ABORT
    64-0-0/w STRC        r     1 PSEUDO_POINTER            40-0-0/w UBIN        r     1 P_ABBREV_NP
    41-0-0/w UBIN        r     1 P_CODE_NP                 43-0-0/w UBIN        r     1 P_COUNT_NP
    51-0-0/w UBIN        r     1 P_DLIM_NP                 30-0-0/w UBIN        r     1 P_F_F_NP
    47-0-0/w UBIN        r     1 P_LEXTYPE_NP              37-0-0/w UBIN        r     1 P_MAKEUC_NP
    50-0-0/w UBIN        r     1 P_MAXL_NP                 13-0-0/h STRC(297)   r     1 P_NAME
    24-0-0/w UBIN        r     1 P_NAME_POINTER            42-0-0/w UBIN        r     1 P_NSUBNDS_NP
    32-0-0/w UBIN        r     1 P_OPT_NP                  31-0-0/w UBIN        r     1 P_O_F_NP
    26-0-0/w UBIN        r     1 P_P_F_NP                  33-0-0/w UBIN        r     1 P_RPEAT_NP
    35-0-0/w UBIN        r     1 P_RTEXT_NP                34-0-0/w UBIN        r     1 P_SKBL_NP
    46-0-0/w UBIN        r     1 P_SUBNDS$_NP              27-0-0/w UBIN        r     1 P_S_F_NP
    44-0-0/w UBIN        r     1 P_TEXT_NP                 25-0-0/w UBIN        r     1 P_TYPE_NP
    36-0-0/w UBIN        r     1 P_UPRLOWR_NP              45-0-0/w UBIN        r     1 P_XTRA_NP
    55-0-0/w UBIN        r     1 SECTION                  111-0-0/w UBIN        r     1 SLEN
    66-0-0/b BIT         r     1 SOMETHING_WRITTEN         *0-0-0/c CHAR(32)    r     1 STRING
    70-0-0/w SBIN        r     1 TOTAL_ERRORS              74-0-0/c CHAR(31)    r     1 TRASH_NAME

  ****  SYMREF variables  ****

  ****  Scalars and arrays  ****
OctLoc.c.b A Datatyp(siz) R M Lvl/name                 OctLoc.c.b A Datatyp(siz) R M Lvl/name

     0-0-0/w PTR         r     1 B$JIT$                     0-0-0/w PTR         r     1 B$TCB$
     0-0-0/c ASTR(9)     r     1 B_VERSION                  0-0-0/w UBIN        r     1 OPTIONS
     0-0-0/w SBIN        r     1 PARTRGE_CMD

  ****  BASED and DCB variables  ****

  ****  Scalars and arrays  ****
OctLoc.c.b A Datatyp(siz) R M Lvl/name                 OctLoc.c.b A Datatyp(siz) R M Lvl/name

PL6.E3A0      #001=XUP$PARTRGE File=XUP$PARTRGE.:E05TSI                          WED 07/30/97 09:39 Page:243
     0-0-0/w STRC(2448)  r     1 B$ALT                      0-0-0/d STRC(8856)  r     1 B$JIT
     0-0-0/w STRC(144)   r     1 B$TCB                      0-0-0/c CHAR        r     1 CHAR1
     0-0-0/c ACHR        r     1 CHARI                      0-0-0/w UBIN        r     1 DATA
     0-0-0/d ASTR(3528)  r     1 F$DCB                      0-0-0/w STRC(72)    r     1 LINES(0:0)
     0-0-0N  NULL        r     1 M$CORE                     0-0-0/d ASTR(3528)  r     1 M$DIAG
     0-0-0N  NULL        r     1 M$DO                       0-0-0/d ASTR(3528)  r     1 M$LIST
     0-0-0/d ASTR(3528)  r     1 M$LO                       0-0-0N  NULL        r     1 M$MAC
     0-0-0N  NULL        r     1 M$ME                       0-0-0/d ASTR(3528)  r     1 M$NS
     0-0-0N  NULL        r     1 M$OU                       0-0-0N  NULL        r     1 M$SI
     0-0-0N  NULL        r     1 M$SYSTEM                   0-0-0N  NULL        r     1 M$UI
     0-0-0/c CHAR(99)    r     1 MSG                        0-0-0/w STRC(72)    r     1 NODE
     0-0-0/w ASTR(45)    r     1 NODEL                      0-0-0/w ASTR(54)    r     1 NODES
     0-0-0/w STRC(144)   r     1 OUT$BLK                    0-0-0/w ASTR(153)   r     1 OUT$SYM
     0-0-0/w ASTR(72)    r     1 SYM                        0-0-0/w ASTR(18)    r     1 SYMO


   Procedure XUP$PARTRGE requires 3580 words for executable code.
   Procedure XUP$PARTRGE requires 98 words of local(AUTO) storage.
PL6.E3A0      #001=XUP$PARTRGE File=XUP$PARTRGE.:E05TSI                          WED 07/30/97 09:39 Page:244
          *** CROSS REFERENCE LISTING ***
**     DENOTES     IDENTIFIER DEFINITION
<<                 IDENTIFIER'S VALUE SET
>>                 IDENTIFIER'S VALUE USED
<>                 IDENTIFIER SET AND/OR USED
--                 IDENTIFIER REFERENCED
PL6.E3A0      #001=XUP$PARTRGE File=XUP$PARTRGE.:E05TSI                          WED 07/30/97 09:39 Page:245
          MINI XREF LISTING

ABORT
     18701**DCL     18702--REDEF
ACTUAL_ELEMENTS IN PROCEDURE GENERATE_LEVEL2
     19820**DCL     19830<<ASSIGN  19838<<ASSIGN  19863>>ASSIGN  19868>>ASSIGN  19873>>ASSIGN  19877<>CALL
ALIGNMENT IN PROCEDURE GENERATE_LEVEL2
     19821**DCL     19862<<ASSIGN  19867<<ASSIGN  19872<<ASSIGN  19877<>CALL
ARRAY_TYPE IN PROCEDURE GENERATE_LEVEL2
     19822**DCL     19829<<ASSIGN  19837<<ASSIGN  19877<>CALL
B$ALT.CODE
     15084**DCL     15084--REDEF   15085--REDEF   15085--REDEF
B$ALT.DCB#
     15085**DCL     19256>>ASSIGN  19280>>ASSIGN
B$ALT.ERR
     15085**DCL     19255>>ASSIGN
B$ALT.ERR.ERR#
     15086**DCL     15086--REDEF
B$ALT.EVID
     15085**DCL     15085--REDEF   15085--REDEF
B$JIT.CCARS
       425**DCL     18830>>ASSIGN
B$JIT.CCBUF
       425**DCL     18829--ASSIGN
B$JIT.CCDISP
       425**DCL     18829>>ASSIGN  18830>>ASSIGN
B$JIT.CPFLAGS1.SLEAZE
       431**DCL       431--REDEF
B$JIT.ERR.MID
       338**DCL       338--REDEF
B$JIT.FACCN
       337**DCL     18873>>ASSIGN
B$JIT.JRESPEAK
       499**DCL       500--REDEF
PL6.E3A0      #001=XUP$PARTRGE File=XUP$PARTRGE.:E05TSI                          WED 07/30/97 09:39 Page:246
B$JIT.ORIGINATOR_PORT.FROM_CR
       608**DCL       608--REDEF     609--REDEF
B$JIT.PNR
       512**DCL       512--REDEF
B$JIT.PRFLAGS.COMMENT
       421**DCL     19246>>IF      19320>>IF
B$JIT.PRFLAGS.LIST
       421**DCL     19234>>IF      19314>>IF
B$JIT.PRFLAGS.LS
       421**DCL     18828>>ASSIGN
B$JIT.PRFLAGS.OUTPUT
       421**DCL     18827>>ASSIGN
B$JIT.PRFLAGS.UI
       421**DCL     18826>>ASSIGN
B$JIT.SYSID
       337**DCL     18817>>IF
B$JIT.TSLINE
       606**DCL       607--REDEF
B$JIT$
     18408**DCL       332--IMP-PTR 18817>>IF      18826>>ASSIGN  18827>>ASSIGN  18828>>ASSIGN  18829>>ASSIGN
     18829>>ASSIGN  18830>>ASSIGN  18830>>ASSIGN  18873>>ASSIGN  19234>>IF      19246>>IF      19314>>IF
     19320>>IF
B$TCB.ALT$
     15080**DCL     19255>>ASSIGN  19256>>ASSIGN  19278>>IF      19280>>ASSIGN
B$TCB$
     18409**DCL     15080--IMP-PTR 19255>>ASSIGN  19256>>ASSIGN  19278>>IF      19280>>ASSIGN
BC
     18488**DCL     18844<<ASSIGN  18849<<ASSIGN  18939>>ASSIGN  18947>>IF
BLK$
     18413**DCL     15743--IMP-PTR 15789--IMP-PTR 18410--IMP-PTR 18414--REDEF   18832<<ASSIGN  18833>>IF
     18833>>DOINDEX 18835>>ASSIGN  18846>>DOINDEX 18847>>CALLBLT 18847>>CALLBLT 18853>>DOINDEX 18854>>ASSIGN
     18857>>ASSIGN  18857>>ASSIGN  19003<<ASSIGN  19004>>ASSIGN  19079<<ASSIGN  19079>>ASSIGN  19080>>IF
     19082>>ASSIGN  19087<<ASSIGN  19090>>DOWHILE 19091<<ASSIGN  19091>>ASSIGN  19093>>ASSIGN  19099>>IF
     19100>>IF      19100<<ASSIGN  19101>>ASSIGN  19117<<ASSIGN  19118>>ASSIGN  19124>>IF      19125>>CALL
     19126<<ASSIGN  19126>>ASSIGN  19128>>CALL    19300>>CALLBLT 19302>>IF      19656<<ASSIGN  19657>>DOWHILE
     19659<<ASSIGN  19659>>ASSIGN
PL6.E3A0      #001=XUP$PARTRGE File=XUP$PARTRGE.:E05TSI                          WED 07/30/97 09:39 Page:247
B_VERSION.LEN
     18008**DCL     18009--IMP-SIZ 18805>>IF      18807>>ASSIGN  18808>>DOINDEX 18809>>IF      18809>>IF
     18813>>ASSIGN  18897>>ASSIGN  18898>>ASSIGN
B_VERSION.TEXT
     18009**DCL     18807>>ASSIGN  18809>>IF      18809>>IF      18813>>ASSIGN  18897>>ASSIGN  18898>>ASSIGN
C
     18416**DCL     19286>>IF      19287>>CALLBLT 19291>>CALLBLT 19291>>CALLBLT 19292>>CALLBLT 19293<<ASSIGN
     19293>>ASSIGN  19296>>IF      19298<<ASSIGN  19300>>CALLBLT 19301>>CALLBLT 19301>>CALLBLT 19302>>CALLBLT
     19303<<ASSIGN  19303>>ASSIGN  19330<<ASSIGN  19653<<ASSIGN  19654>>IF      19654<<ASSIGN  19655<<ASSIGN
     19655>>ASSIGN  19666<<ASSIGN
CHAR1
     18410**DCL     19004<<ASSIGN  19082<<ASSIGN  19090>>DOWHILE 19099>>IF      19101<<ASSIGN
CHARI
     18679**DCL     19111<<ASSIGN  19111>>ASSIGN  19177>>CALLBLT 19177>>CALLBLT
CLOSE_DIAG
     16287**DCL     18975<>CALL    19065<>CALL
CLOSE_DIAG.SN_
     16287**DCL     16287--REDEF
CLOSE_DIAG.UTL_
     16288**DCL     16288--REDEF
CLOSE_DIAG.V
     16292**DCL     16287--DCLINIT
CLOSE_DIAG.V.EXPIRE#
     16302**DCL     16302--REDEF
CLOSE_DIAG.V.TYPE#
     16300**DCL     16300--REDEF
CLOSE_DIAG.V.XTNSIZE#
     16297**DCL     16297--REDEF   16299--REDEF
CLOSE_FILES
     17104**DCL     19738<>CALL
CLOSE_FILES.ASCII_KEY
     17370**DCL     17376--REDEF   17390--REDEF   17413--REDEF
CLOSE_FILES.SI_ERRCODE
     17312**DCL     17325--REDEF
CLOSE_FILES.UI_ERRCODE
     17337**DCL     17350--REDEF
PL6.E3A0      #001=XUP$PARTRGE File=XUP$PARTRGE.:E05TSI                          WED 07/30/97 09:39 Page:248
CLOSE_LIST
     16245**DCL     18964<>CALL    19040<>CALL    19741<>CALL
CLOSE_LIST.SN_
     16245**DCL     16245--REDEF
CLOSE_LIST.UTL_
     16246**DCL     16246--REDEF
CLOSE_LIST.V
     16250**DCL     16245--DCLINIT
CLOSE_LIST.V.EXPIRE#
     16260**DCL     16260--REDEF
CLOSE_LIST.V.TYPE#
     16258**DCL     16258--REDEF
CLOSE_LIST.V.XTNSIZE#
     16255**DCL     16255--REDEF   16257--REDEF
CLOSE_NS
     16329**DCL     19336<>CALL
CLOSE_NS.SN_
     16329**DCL     16329--REDEF
CLOSE_NS.UTL_
     16330**DCL     16330--REDEF
CLOSE_NS.V
     16334**DCL     16329--DCLINIT
CLOSE_NS.V.EXPIRE#
     16344**DCL     16344--REDEF
CLOSE_NS.V.TYPE#
     16342**DCL     16342--REDEF
CLOSE_NS.V.XTNSIZE#
     16339**DCL     16339--REDEF   16341--REDEF
CNTMSG
     18666**DCL     18652--DCLINIT
CNTMSG.ASTS
     18667**DCL     19710<<ASSIGN  19716<<ASSIGN
CNTMSG.CNT
     18668**DCL     19709<<CALLBLT 19717<<ASSIGN
CNTMSG.ERWORD
     18669**DCL     19713<<ASSIGN
PL6.E3A0      #001=XUP$PARTRGE File=XUP$PARTRGE.:E05TSI                          WED 07/30/97 09:39 Page:249
CNTMSG.MODNAME
     18672**DCL     19721<<ASSIGN  19723<<ASSIGN
CNTMSG.PRFS
     18670**DCL     19690<<CALLBLT 19691<<CALLBLT 19691>>CALLBLT
CONTINUE
     19009**LABEL   19088--GOTO    19102--GOTO
COREFPT
     16166**DCL     19511<>CALL
COREFPT.BUF_.BOUND
     16166**DCL     19352<<ASSIGN
COREFPT.BUF_.BUF$
     16168**DCL     19351<<ASSIGN  19467>>IF      19695>>IF
COREFPT.STATION_
     16168**DCL     16168--REDEF
COREFPT.V
     16169**DCL     16166--DCLINIT
COREFPT.V.DVBYTE.VFC#
     16175**DCL     16175--REDEF
COREKEY
     18494**DCL     16166--DCLINIT
COREOPN
     16105**DCL     18819<>CALL
COREOPN.ACSVEH_
     16107**DCL     16108--REDEF
COREOPN.ALTKEYS_
     16113**DCL     16114--REDEF   16114--REDEF
COREOPN.HDR_
     16112**DCL     16113--REDEF
COREOPN.TAB_
     16111**DCL     16112--REDEF
COREOPN.UHL_
     16105**DCL     16106--REDEF   16106--REDEF
COREOPN.V
     16114**DCL     16105--DCLINIT
COREOPN.V.FSN#
     16145**DCL     16145--REDEF   16145--REDEF
PL6.E3A0      #001=XUP$PARTRGE File=XUP$PARTRGE.:E05TSI                          WED 07/30/97 09:39 Page:250
COREOPN.WSN_
     16111**DCL     16111--REDEF
CORR
     16546**DCL     19055<>CALL    19243<>CALL    19317<>CALL
CORR.V
     16546**DCL     16546--DCLINIT
CROUT IN PROCEDURE NAMEOUT
     19295**ENTRY   19658--CALL
CTEMP
     18699**DCL     19708<<CALLBLT 19709>>CALLBLT
DATA
     18412**DCL     19119<>CALL    19125<>CALL    19128<>CALL
DATASIZE IN PROCEDURE GENERATE_LEVEL2
     19817**DCL     19813--PROC    19863>>ASSIGN  19868>>ASSIGN  19873>>ASSIGN  19877<>CALL
DATATYPE IN PROCEDURE GENERATE_LEVEL2
     19816**DCL     19813--PROC    19840>>DOCASE  19858>>DOCASE  19877<>CALL
E# IN PROCEDURE ERROR
     19187**DCL     19185--PROC    19191>>IF      19191>>IF      19225>>ASSIGN  19227>>IF
ECU
     18491**DCL     18925<<ASSIGN  18928<<ASSIGN  18928>>ASSIGN  18939>>ASSIGN  18947>>IF      19728>>IF
EFPT
     16519**DCL     19227<>CALL
EFPT.V
     16523**DCL     16519--DCLINIT
EFPT.V.DCB#
     16523**DCL     19166<<ASSIGN  19256<<ASSIGN  19264<<ASSIGN  19271<<ASSIGN  19280<<ASSIGN
ELEMENTS IN PROCEDURE GENERATE_LEVEL2
     19818**DCL     19813--PROC    19826--IF      19838>>ASSIGN
ELEMENT_SIZE IN PROCEDURE GENERATE_LEVEL2
     19823**DCL     19831<<ASSIGN  19844<<ASSIGN  19848<<ASSIGN  19852<<ASSIGN  19877<>CALL
EMIT_STANDARD
     18479**DCL     19417<<ASSIGN  19452<<ASSIGN  19457>>IF
EMIT_WORDS
     19757**PROC    19476--CALL    19482--CALL    19487--CALL
ERCODE
     18702**DCL     16519--DCLINIT 19165<<ASSIGN  19255<<ASSIGN  19263<<ASSIGN  19270<<ASSIGN  19277<<ASSIGN
PL6.E3A0      #001=XUP$PARTRGE File=XUP$PARTRGE.:E05TSI                          WED 07/30/97 09:39 Page:251
ERCODE.SEV
     18703**DCL     19226<<ASSIGN
ERRDUBDEF
     18660**DCL     18651--DCLINIT
ERROR
     19185**PROC    19121--CALL    19145--CALL    19158--CALL    19181--CALL    19257--CALL    19265--CALL
     19272--CALL    19281--CALL    19699--CALL    19725--CALL    19726--CALL    19733--CALL
ERROR1 IN PROCEDURE ERROR
     19221**LABEL   19252--GOTO
ERROR2 IN PROCEDURE ERROR
     19227**LABEL   19227--CALLALT
ERROR_COUNT
     18476**DCL     18929<<ASSIGN  19193<<ASSIGN  19193>>ASSIGN  19633>>IF      19707>>IF      19708>>CALLBLT
     19711>>IF      19727>>ASSIGN
ERRREFS
     18664**DCL     18651--DCLINIT 19724<<ASSIGN  19732<<ASSIGN
ERRVEC
     18650**DCL     19194>>ASSIGN  19225>>ASSIGN  19309>>ASSIGN
ERRXIT
     16613**DCL     19746<>CALL
ERRXIT.V
     16613**DCL     16613--DCLINIT
ERRXIT.V.STEPCC#
     16614**DCL     16614--REDEF
F$DCB.ACTPOS
     16484**DCL     16484--REDEF
F$DCB.ARS#
     16458**DCL     16458--REDEF
F$DCB.ASN#
     16473**DCL     19349>>IF
F$DCB.ATTR
     16477**DCL     16478--REDEF
F$DCB.BORROW
     16492**DCL     16492--REDEF   16492--REDEF   16492--REDEF
F$DCB.DCBNAME.L
     16506**DCL     16506--IMP-SIZ
PL6.E3A0      #001=XUP$PARTRGE File=XUP$PARTRGE.:E05TSI                          WED 07/30/97 09:39 Page:252
F$DCB.EOMCHAR#
     16462**DCL     16462--REDEF
F$DCB.FCD#
     16471**DCL     18956>>IF      18967>>IF      19022>>DOWHILE 19022>>DOWHILE 19025>>DOWHILE 19025>>DOWHILE
     19044>>DOWHILE 19044>>DOWHILE 19334>>IF      19364>>IF      19739>>IF
F$DCB.FLDID
     16487**DCL     16487--REDEF
F$DCB.FORM$
     16481**DCL     16481--REDEF
F$DCB.FSECT
     16497**DCL     16497--REDEF
F$DCB.FSN#
     16474**DCL     16474--REDEF   16474--REDEF   16475--REDEF
F$DCB.HEADER$
     16480**DCL     16480--REDEF
F$DCB.IXTNSIZE#
     16478**DCL     16478--REDEF
F$DCB.LASTSTA$
     16467**DCL     16467--REDEF
F$DCB.LVL
     16493**DCL     16493--REDEF
F$DCB.NAME#.C
     16468**DCL     16468--REDEF   18896>>ASSIGN  19374>>ASSIGN
F$DCB.NAME#.L
     16468**DCL     19373>>ASSIGN
F$DCB.NOEOF
     16490**DCL     16490--REDEF
F$DCB.NRECS#
     16479**DCL     16479--REDEF
F$DCB.NRECX
     16498**DCL     16498--REDEF
F$DCB.OHDR
     16490**DCL     16490--REDEF
F$DCB.ORG#
     16473**DCL     16473--REDEF
F$DCB.PRECNO
PL6.E3A0      #001=XUP$PARTRGE File=XUP$PARTRGE.:E05TSI                          WED 07/30/97 09:39 Page:253
     16496**DCL     16496--REDEF
F$DCB.RCSZ
     16502**DCL     16502--REDEF
F$DCB.RES#
     16469**DCL     16469--REDEF
F$DCB.SETX
     16481**DCL     16481--REDEF
F$DCB.TAB$
     16481**DCL     16481--REDEF
F$DCB.TDA
     16495**DCL     16496--REDEF
F$DCB.WIDTH#
     16465**DCL     18924>>ASSIGN  19325>>ASSIGN
F$DCB.WSN#
     16469**DCL     16469--REDEF
FATAL_ERROR
     18493**DCL     19258<<ASSIGN  19274<<ASSIGN  19282<<ASSIGN  19728>>IF
FIRST_SYM$
     18697**DCL     18997<<ASSIGN  19134>>IF      19135<<ASSIGN  19372>>IF      19377>>ASSIGN  19378>>ASSIGN
     19378>>ASSIGN  19719>>IF      19723>>ASSIGN  19723>>ASSIGN
FPT_FID
     16628**DCL     18866<>CALL
FPT_FID.ACCT_
     16629**DCL     18860<<ASSIGN
FPT_FID.ASN_
     16631**DCL     18864<<ASSIGN
FPT_FID.NAME_
     16629**DCL     18859<<ASSIGN
FPT_FID.PASS_
     16629**DCL     18861<<ASSIGN
FPT_FID.RES_
     16631**DCL     18865<<ASSIGN
FPT_FID.SN_
     16630**DCL     18862<<ASSIGN
FPT_FID.TEXTFID_
     16628**DCL     18857<<ASSIGN
PL6.E3A0      #001=XUP$PARTRGE File=XUP$PARTRGE.:E05TSI                          WED 07/30/97 09:39 Page:254
FPT_FID.V
     16632**DCL     16628--DCLINIT
FPT_FID.WSN_
     16630**DCL     18863<<ASSIGN
FPT_READ
     15498**DCL     19010<>CALL
FPT_READ.STATION_
     15501**DCL     15502--REDEF
FPT_READ.V
     15502**DCL     15498--DCLINIT
FPT_READ.V.DVBYTE.REREAD#
     15513**DCL     15513--REDEF
FPT_READ.V.INDX#
     15511**DCL     15511--REDEF
GENERATE_CORE_IMAGE
     18480**DCL     19356<<ASSIGN  19360<<ASSIGN  19510>>IF
GENERATE_DEBUG_NAMES
     19768**PROC    19391--CALL
GENERATE_DNAME
     19796**PROC    19770--CALL    19771--CALL    19772--CALL    19773--CALL    19774--CALL    19775--CALL
     19776--CALL    19777--CALL    19778--CALL    19779--CALL    19780--CALL    19781--CALL    19782--CALL
     19783--CALL    19784--CALL    19785--CALL    19786--CALL    19787--CALL    19788--CALL    19789--CALL
     19790--CALL
GENERATE_LEVEL2
     19813**PROC    19573--CALL    19574--CALL    19575--CALL    19576--CALL    19577--CALL    19578--CALL
     19579--CALL    19580--CALL    19581--CALL    19585--CALL    19586--CALL    19588--CALL    19591--CALL
     19592--CALL    19593--CALL    19594--CALL    19596--CALL    19600--CALL    19602--CALL    19603--CALL
     19604--CALL    19605--CALL    19608--CALL    19609--CALL    19611--CALL    19612--CALL    19615--CALL
     19616--CALL    19618--CALL
GENERATE_OU
     18481**DCL     19357<<ASSIGN  19363<<ASSIGN  19401<<ASSIGN  19410>>IF      19422>>IF      19439>>IF
     19457>>IF      19515>>IF      19759>>IF
HIGHEST_BC
     18492**DCL     18845<<ASSIGN  18850<<ASSIGN  18850>>ASSIGN  19728>>IF
HIGHEST_LINE_NUMBER
     18474**DCL     19012<<ASSIGN  19393<<ASSIGN  19628<>CALL
PL6.E3A0      #001=XUP$PARTRGE File=XUP$PARTRGE.:E05TSI                          WED 07/30/97 09:39 Page:255
HIGHEST_VREBL_ENTRY
     18473**DCL     19392<<ASSIGN  19555<>CALL    19629<>CALL    19877<>CALL
HTIM
     16594**DCL     18895<>CALL    19645<>CALL
HTIM.V
     16598**DCL     16594--DCLINIT
I
     18417**DCL     18679--IMP-SIZ 18808<<DOINDEX 18809>>IF      18809>>IF      18813>>ASSIGN  18833<<DOINDEX
     18835>>ASSIGN  18839<<ASSIGN  18839>>ASSIGN  18846>>DOINDEX 18847>>CALLBLT 18847>>CALLBLT 18853>>DOINDEX
     18854>>ASSIGN  18857>>ASSIGN  18857>>ASSIGN  18930<<DOINDEX 18931>>ASSIGN  19076<<ASSIGN  19077>>DOWHILE
     19078>>IF      19082>>ASSIGN  19083<<ASSIGN  19083>>ASSIGN  19106<<ASSIGN  19107>>ASSIGN  19111>>ASSIGN
     19111>>ASSIGN  19164<<ASSIGN  19167>>IF      19167>>IF      19173>>IF      19173<<ASSIGN  19175<<ASSIGN
     19176<<ASSIGN  19177>>CALLBLT 19177>>CALLBLT 19177>>CALLBLT 19177>>CALLBLT 19179<<ASSIGN  19181<>CALL
     19342<<ASSIGN  19344<<ASSIGN  19344>>ASSIGN  19345>>ASSIGN  19347>>ASSIGN  19403<<ASSIGN  19429<>CALL
     19431<>CALL    19432>>ASSIGN  19438<<ASSIGN  19444<>CALL    19447<>CALL    19537<<ASSIGN  19539<<ASSIGN
     19543<<ASSIGN  19545<<ASSIGN  19549<<ASSIGN  19551<<ASSIGN  19555>>CALL
IGNORE_SALUTATION_ALTRET
     18903**LABEL   18901--CALLALT
ISSID_SEGREF_NUMBER
     18477**DCL     19398<>CALL    19449<>CALL    19464<>CALL
IS_LAST_LINE IN PROCEDURE ERROR
     19188**DCL     19189<<ASSIGN  19202<<ASSIGN  19235>>IF      19249<<ASSIGN
J
     18418**DCL     18802<<ASSIGN  18835<<ASSIGN  18836>>DOCASE  18842>>ASSIGN  18853<<DOINDEX 18854>>ASSIGN
     18856>>IF      18857>>ASSIGN  18857>>ASSIGN  18860>>ASSIGN  18861>>ASSIGN  18862>>ASSIGN  18863>>ASSIGN
     18864>>ASSIGN  18865>>ASSIGN  18868>>ASSIGN  19196<<ASSIGN  19197>>DOWHILE 19198<<ASSIGN  19198>>ASSIGN
     19200>>IF      19203>>CALLBLT 19206>>IF      19207>>ASSIGN  19208<<ASSIGN  19208>>ASSIGN  19213>>CALLBLT
     19214<<ASSIGN  19214>>ASSIGN  19217>>CALLBLT 19218<<ASSIGN  19218>>ASSIGN  19220>>CALLBLT 19250>>IF
     19251<<ASSIGN  19320>>IF      19408<<ASSIGN  19415>>DOWHILE 19416>>ASSIGN  19418>>IF      19421>>ASSIGN
     19441>>CALL    19444>>CALL    19447>>CALL    19449>>CALL    19455>>ASSIGN  19459>>ASSIGN  19461>>CALL
     19462>>CALL    19464>>CALL    19467>>ASSIGN  19469>>ASSIGN  19472<<ASSIGN  19472>>ASSIGN  19475<<ASSIGN
     19481<<ASSIGN  19486<<ASSIGN  19491>>ASSIGN  19493<<ASSIGN  19497--ASSIGN  19498>>ASSIGN  19516>>ASSIGN
     19650>>ASSIGN  19671>>ASSIGN  19681>>ASSIGN  19694>>ASSIGN  19695<<ASSIGN  19699>>IF      19762>>DOINDEX
K
     18419**DCL     18846<<DOINDEX 18847>>CALLBLT 18847>>CALLBLT
K IN PROCEDURE EMIT_WORDS
PL6.E3A0      #001=XUP$PARTRGE File=XUP$PARTRGE.:E05TSI                          WED 07/30/97 09:39 Page:256
     19758**DCL     19762<<DOINDEX 19763>>CALL    19763>>CALL
KEYINOU
     16449**DCL     16106--DCLINIT
KEYINSI
     16422**DCL     15996--DCLINIT
L
     18420**DCL     18847<<CALLBLT 18849>>ASSIGN  18850>>ASSIGN  19587<<ASSIGN  19588<>CALL    19595<<ASSIGN
     19596<>CALL    19617<<ASSIGN  19618<>CALL
LAST_LINE_WAS_DIAGNOSTIC
     18482**DCL     18994<<ASSIGN  19031>>IF      19034<<ASSIGN  19050>>IF      19053<<ASSIGN  19237>>IF
     19241<<ASSIGN
LEXES$
     18098**DCL     18930--DOINDEX 18931<<ASSIGN
LINE#
     18680**DCL     19006<<ASSIGN  19094>>IF      19096>>ASSIGN  19097>>ASSIGN  19098<<ASSIGN  19098>>ASSIGN
     19106>>ASSIGN  19182>>IF      19195>>IF      19200>>IF      19250>>IF      19337>>IF
LINES
     15264**DCL     19094--IF      19096<<ASSIGN  19106--ASSIGN
LINES.CPOS
     15265**DCL     19097<<ASSIGN  19197>>DOWHILE
LINES.L#
     15266**DCL     19203>>CALLBLT
LINES.S#
     15267**DCL     19206>>IF      19208>>ASSIGN  19214>>ASSIGN
LINES.UPC
     15268**DCL     19207>>ASSIGN  19213>>CALLBLT
LITCODE
     18096**DCL     19113<<ASSIGN
LIT_PRESENT
     18097**DCL     19114<<ASSIGN
LOC_OFFSET
     18478**DCL     19409<<ASSIGN  19412<>CALL    19441>>CALL    19444>>CALL    19447>>CALL    19449>>CALL
     19461>>CALL    19462>>CALL    19464>>CALL    19554<<ASSIGN  19555<>CALL    19601<<ASSIGN  19601>>ASSIGN
     19610<<ASSIGN  19610>>ASSIGN  19763>>CALL    19863>>ASSIGN  19868>>ASSIGN  19873>>ASSIGN  19877<>CALL
     19896<<ASSIGN
LOFPT
PL6.E3A0      #001=XUP$PARTRGE File=XUP$PARTRGE.:E05TSI                          WED 07/30/97 09:39 Page:257
     15537**DCL     19240<>CALL    19246<>CALL    19316<>CALL    19322<>CALL
LOFPT.BUF_
     15537**DCL     19194<<ASSIGN  19225<<ASSIGN  19309<<ASSIGN
LOFPT.BUF_.BOUND
     15537**DCL     19230>>DOWHILE 19230>>DOWHILE 19232<<ASSIGN  19232>>ASSIGN  19310>>DOWHILE 19310>>DOWHILE
     19312<<ASSIGN  19312>>ASSIGN
LOFPT.BUF_.BUF$
     15539**DCL     19186--IMP-PTR 19230>>DOWHILE 19235>>IF
LOFPT.STATION_
     15539**DCL     15539--REDEF
LOFPT.V
     15540**DCL     15537--DCLINIT
LOFPT.V.DCB#
     15540**DCL     19245<<ASSIGN  19247<<ASSIGN  19321<<ASSIGN  19323<<ASSIGN
LOFPT.V.DVBYTE.VFC#
     15546**DCL     15546--REDEF
LOGBLK_NUMBER
     18472**DCL     19388<>CALL    19389<>CALL    19390<>CALL    19628<>CALL    19629<>CALL
LOHDR
     16578**DCL     16561--DCLINIT
LOHDR.CTL.COUNT#
     16580**DCL     19328<<ASSIGN
LOHDR.CTL.RESETPAGE#
     16578**DCL     18938<<ASSIGN
LOHDR.TITL.L#
     16580**DCL     19327<<ASSIGN
LOHDR.TITL.TITLE#
     16581**DCL     18934<<CALLBLT 19648<<CALLBLT 19669<<CALLBLT 19677<<CALLBLT 19696<<CALLBLT
LS_BUFFER
     18019**DCL     15647--DCLINIT 15648--DCLINIT
LS_BUFFER.PRINT_BUFFER
     18021**DCL     19030<<ASSIGN  19049<<ASSIGN
LS_BUFFER.VFC
     18020**DCL     19029<<ASSIGN  19031>>IF      19048<<ASSIGN  19050>>IF
M$CLOSE
      9702**DCL-ENT 18964--CALL    18975--CALL    19040--CALL    19065--CALL    19336--CALL    19513--CALL
PL6.E3A0      #001=XUP$PARTRGE File=XUP$PARTRGE.:E05TSI                          WED 07/30/97 09:39 Page:258
     19737--CALL    19741--CALL    19744--CALL
M$CORE
     18402**DCL     19349--IF      19350>>ASSIGN  19512>>ASSIGN
M$CORRES
      9707**DCL-ENT 19055--CALL    19243--CALL    19317--CALL
M$DEVICE
      9706**DCL-ENT 18937--CALL    18980--CALL    19649--CALL    19670--CALL    19680--CALL    19698--CALL
M$DIAG
     18253**DCL     18967--IF      18969>>ASSIGN  19022--DOWHILE 19025--DOWHILE 19044--DOWHILE
M$DIAG.ACTPOS
     18294**DCL     18294--REDEF
M$DIAG.ARS#
     18253**DCL     18253--REDEF
M$DIAG.ATTR#
     18283**DCL     18283--REDEF   18285--REDEF
M$DIAG.BORROW
     18305**DCL     18305--REDEF   18305--REDEF   18305--REDEF
M$DIAG.DCBNAME.L
     18324**DCL     18324--IMP-SIZ 18967>>IF      18969>>ASSIGN  19022>>DOWHILE 19025>>DOWHILE 19044>>DOWHILE
M$DIAG.EOMCHAR#
     18260**DCL     18261--REDEF
M$DIAG.FLDID
     18297**DCL     18298--REDEF
M$DIAG.FORM$
     18289**DCL     18289--REDEF
M$DIAG.FSECT
     18312**DCL     18312--REDEF
M$DIAG.FSN#
     18279**DCL     18279--REDEF   18279--REDEF   18280--REDEF
M$DIAG.HEADER$
     18288**DCL     18289--REDEF
M$DIAG.IXTNSIZE#
     18285**DCL     18286--REDEF
M$DIAG.LASTSTA$
     18269**DCL     18269--REDEF
M$DIAG.LVL
PL6.E3A0      #001=XUP$PARTRGE File=XUP$PARTRGE.:E05TSI                          WED 07/30/97 09:39 Page:259
     18306**DCL     18306--REDEF
M$DIAG.NAME#.C
     18269**DCL     18270--REDEF
M$DIAG.NOEOF
     18301**DCL     18301--REDEF
M$DIAG.NRECS#
     18286**DCL     18286--REDEF
M$DIAG.NRECX
     18313**DCL     18313--REDEF
M$DIAG.OHDR
     18302**DCL     18302--REDEF
M$DIAG.ORG#
     18277**DCL     18278--REDEF
M$DIAG.PRECNO
     18310**DCL     18310--REDEF
M$DIAG.RCSZ
     18318**DCL     18318--REDEF
M$DIAG.RES#
     18271**DCL     18271--REDEF
M$DIAG.SETX
     18290**DCL     18290--REDEF
M$DIAG.TAB$
     18289**DCL     18289--REDEF
M$DIAG.TDA
     18309**DCL     18310--REDEF
M$DIAG.WSN#
     18271**DCL     18272--REDEF
M$DO
     18400**DCL     19057>>ASSIGN  19245>>ASSIGN  19321>>ASSIGN
M$ERRMSG
      9765**DCL-ENT 19227--CALL
M$EXIT
      9714**DCL-ENT 19746--CALL
M$FDS
      9737**DCL-ENT 18871--CALL    19001--CALL
M$FID
PL6.E3A0      #001=XUP$PARTRGE File=XUP$PARTRGE.:E05TSI                          WED 07/30/97 09:39 Page:260
      9765**DCL-ENT 18866--CALL
M$GDS
      9737**DCL-ENT 18823--CALL    18987--CALL    18988--CALL    18989--CALL    19081--CALL    19095--CALL
     19109--CALL    19168--CALL    19169--CALL    19170--CALL
M$LIST
     18179**DCL     18914>>ASSIGN  18956--IF      18958>>ASSIGN  19022--DOWHILE 19025--DOWHILE 19044--DOWHILE
     19739--IF
M$LIST.ACTPOS
     18220**DCL     18220--REDEF
M$LIST.ARS#
     18179**DCL     18179--REDEF
M$LIST.ATTR#
     18209**DCL     18209--REDEF   18211--REDEF
M$LIST.BORROW
     18231**DCL     18231--REDEF   18231--REDEF   18231--REDEF
M$LIST.DCBNAME.L
     18250**DCL     18250--IMP-SIZ 18914>>ASSIGN  18956>>IF      18958>>ASSIGN  19022>>DOWHILE 19025>>DOWHILE
     19044>>DOWHILE 19739>>IF
M$LIST.EOMCHAR#
     18186**DCL     18187--REDEF
M$LIST.FLDID
     18223**DCL     18224--REDEF
M$LIST.FORM$
     18215**DCL     18215--REDEF
M$LIST.FSECT
     18238**DCL     18238--REDEF
M$LIST.FSN#
     18205**DCL     18205--REDEF   18205--REDEF   18206--REDEF
M$LIST.HEADER$
     18214**DCL     18215--REDEF
M$LIST.IXTNSIZE#
     18211**DCL     18212--REDEF
M$LIST.LASTSTA$
     18195**DCL     18195--REDEF
M$LIST.LVL
     18232**DCL     18232--REDEF
PL6.E3A0      #001=XUP$PARTRGE File=XUP$PARTRGE.:E05TSI                          WED 07/30/97 09:39 Page:261
M$LIST.NAME#.C
     18195**DCL     18196--REDEF
M$LIST.NOEOF
     18227**DCL     18227--REDEF
M$LIST.NRECS#
     18212**DCL     18212--REDEF
M$LIST.NRECX
     18239**DCL     18239--REDEF
M$LIST.OHDR
     18228**DCL     18228--REDEF
M$LIST.ORG#
     18203**DCL     18204--REDEF
M$LIST.PRECNO
     18236**DCL     18236--REDEF
M$LIST.RCSZ
     18244**DCL     18244--REDEF
M$LIST.RES#
     18197**DCL     18197--REDEF
M$LIST.SETX
     18216**DCL     18216--REDEF
M$LIST.TAB$
     18215**DCL     18215--REDEF
M$LIST.TDA
     18235**DCL     18236--REDEF
M$LIST.WSN#
     18197**DCL     18198--REDEF
M$LO
     18327**DCL     18924--ASSIGN  19059>>ASSIGN  19247>>ASSIGN  19323>>ASSIGN  19325--ASSIGN  19743>>ASSIGN
M$LO.ACTPOS
     18368**DCL     18368--REDEF
M$LO.ARS#
     18327**DCL     18327--REDEF
M$LO.ATTR#
     18357**DCL     18357--REDEF   18359--REDEF
M$LO.BORROW
     18379**DCL     18379--REDEF   18379--REDEF   18379--REDEF
PL6.E3A0      #001=XUP$PARTRGE File=XUP$PARTRGE.:E05TSI                          WED 07/30/97 09:39 Page:262
M$LO.DCBNAME.L
     18398**DCL     18398--IMP-SIZ 18924>>ASSIGN  19059>>ASSIGN  19247>>ASSIGN  19323>>ASSIGN  19325>>ASSIGN
     19743>>ASSIGN
M$LO.EOMCHAR#
     18334**DCL     18335--REDEF
M$LO.FLDID
     18371**DCL     18372--REDEF
M$LO.FORM$
     18363**DCL     18363--REDEF
M$LO.FSECT
     18386**DCL     18386--REDEF
M$LO.FSN#
     18353**DCL     18353--REDEF   18353--REDEF   18354--REDEF
M$LO.HEADER$
     18362**DCL     18363--REDEF
M$LO.IXTNSIZE#
     18359**DCL     18360--REDEF
M$LO.LASTSTA$
     18343**DCL     18343--REDEF
M$LO.LVL
     18380**DCL     18380--REDEF
M$LO.NAME#.C
     18343**DCL     18344--REDEF
M$LO.NOEOF
     18375**DCL     18375--REDEF
M$LO.NRECS#
     18360**DCL     18360--REDEF
M$LO.NRECX
     18387**DCL     18387--REDEF
M$LO.OHDR
     18376**DCL     18376--REDEF
M$LO.ORG#
     18351**DCL     18352--REDEF
M$LO.PRECNO
     18384**DCL     18384--REDEF
M$LO.RCSZ
PL6.E3A0      #001=XUP$PARTRGE File=XUP$PARTRGE.:E05TSI                          WED 07/30/97 09:39 Page:263
     18392**DCL     18392--REDEF
M$LO.RES#
     18345**DCL     18345--REDEF
M$LO.SETX
     18364**DCL     18364--REDEF
M$LO.TAB$
     18363**DCL     18363--REDEF
M$LO.TDA
     18383**DCL     18384--REDEF
M$LO.WSN#
     18345**DCL     18346--REDEF
M$MAC
     18405**DCL     18917>>ASSIGN
M$NS
     18105**DCL     18916>>ASSIGN  18954>>ASSIGN  19334--IF
M$NS.ACTPOS
     18146**DCL     18146--REDEF
M$NS.ARS#
     18105**DCL     18105--REDEF
M$NS.ATTR#
     18135**DCL     18135--REDEF   18137--REDEF
M$NS.BORROW
     18157**DCL     18157--REDEF   18157--REDEF   18157--REDEF
M$NS.DCBNAME.L
     18176**DCL     18176--IMP-SIZ 18916>>ASSIGN  18954>>ASSIGN  19334>>IF
M$NS.EOMCHAR#
     18112**DCL     18113--REDEF
M$NS.FLDID
     18149**DCL     18150--REDEF
M$NS.FORM$
     18141**DCL     18141--REDEF
M$NS.FSECT
     18164**DCL     18164--REDEF
M$NS.FSN#
     18131**DCL     18131--REDEF   18131--REDEF   18132--REDEF
M$NS.HEADER$
PL6.E3A0      #001=XUP$PARTRGE File=XUP$PARTRGE.:E05TSI                          WED 07/30/97 09:39 Page:264
     18140**DCL     18141--REDEF
M$NS.IXTNSIZE#
     18137**DCL     18138--REDEF
M$NS.LASTSTA$
     18121**DCL     18121--REDEF
M$NS.LVL
     18158**DCL     18158--REDEF
M$NS.NAME#.C
     18121**DCL     18122--REDEF
M$NS.NOEOF
     18153**DCL     18153--REDEF
M$NS.NRECS#
     18138**DCL     18138--REDEF
M$NS.NRECX
     18165**DCL     18165--REDEF
M$NS.OHDR
     18154**DCL     18154--REDEF
M$NS.ORG#
     18129**DCL     18130--REDEF
M$NS.PRECNO
     18162**DCL     18162--REDEF
M$NS.RCSZ
     18170**DCL     18170--REDEF
M$NS.RES#
     18123**DCL     18123--REDEF
M$NS.SETX
     18142**DCL     18142--REDEF
M$NS.TAB$
     18141**DCL     18141--REDEF
M$NS.TDA
     18161**DCL     18162--REDEF
M$NS.WSN#
     18123**DCL     18124--REDEF
M$OPEN
      9702**DCL-ENT 18801--CALL    18818--CALL    18819--CALL    19355--CALL    19367--CALL
M$OU
PL6.E3A0      #001=XUP$PARTRGE File=XUP$PARTRGE.:E05TSI                          WED 07/30/97 09:39 Page:265
     18401**DCL     18822>>ASSIGN  19364--IF      19370<>CALL    19373--ASSIGN  19374--ASSIGN  19734>>ASSIGN
M$READ
      9703**DCL-ENT 18962--CALL    18973--CALL    19010--CALL    19038--CALL    19063--CALL
M$REW
      9705**DCL-ENT 18955--CALL    18959--CALL    18970--CALL
M$SI
     18403**DCL     19264>>ASSIGN
M$SYSTEM
     18406**DCL     18918>>ASSIGN
M$TIME
      9769**DCL-ENT 18895--CALL    19645--CALL
M$UI
     18404**DCL     19271>>ASSIGN
M$WRITE
      9703**DCL-ENT 18901--CALL    19033--CALL    19035--CALL    19052--CALL    19054--CALL    19058--CALL
     19239--CALL    19240--CALL    19246--CALL    19316--CALL    19322--CALL    19511--CALL
MAKEUCERR
     18656**DCL     18653--DCLINIT
MONERR
     19252**LABEL   18801--CALLALT 18818--CALLALT 18819--CALLALT 18823--CALLALT 18866--CALLALT 18955--CALLALT
     18959--CALLALT 18964--CALLALT 18970--CALLALT 18975--CALLALT 18987--CALLALT 18988--CALLALT 18989--CALLALT
     18991--REMEMBR 19035--CALLALT 19040--CALLALT 19054--CALLALT 19058--CALLALT 19065--CALLALT 19081--CALLALT
     19095--CALLALT 19109--CALLALT 19168--CALLALT 19336--CALLALT 19355--CALLALT 19367--CALLALT 19511--CALLALT
     19513--CALLALT 19741--CALLALT
MSG IN PROCEDURE ERROR
     19186**DCL     19230>>DOWHILE
NAMEOUT
     19285**PROC    19673--CALL    19683--CALL    19701--CALL
NAME_POINTER IN PROCEDURE GENERATE_DNAME
     19800**DCL     19796--PROC    19807<>CALL
NAME_POINTER IN PROCEDURE GENERATE_LEVEL2
     19815**DCL     19813--PROC    19877<>CALL
NEWPARSE
     19099**LABEL   19171--GOTO
NEW_OFFSET IN PROCEDURE GENERATE_LEVEL2
     19824**DCL     19863<<ASSIGN  19868<<ASSIGN  19873<<ASSIGN  19896>>ASSIGN
PL6.E3A0      #001=XUP$PARTRGE File=XUP$PARTRGE.:E05TSI                          WED 07/30/97 09:39 Page:266
NEXT
     18999**LABEL   19075--GOTO    19132--GOTO    19163--GOTO    19183--GOTO
NOCORERR
     18100**DCL     18991<<REMEMBR
NODE.CODE
     18513**DCL     19146<<ASSIGN
NODE.FAIL_F
     18506**DCL     19138<<ASSIGN  19138>>ASSIGN
NODE.NSUBNDS
     18512**DCL     19415>>DOWHILE 19537>>ASSIGN  19587>>ASSIGN
NODE.OUT_F
     18507**DCL     19139<<ASSIGN  19139>>ASSIGN  19149<<ASSIGN
NODE.PRE_F
     18504**DCL     19136<<ASSIGN  19136>>ASSIGN
NODE.RPEAT
     18509**DCL     19140<<ASSIGN  19140>>ASSIGN
NODE.RTEXT
     18511**DCL     19142<<ASSIGN  19142>>ASSIGN  19143>>IF
NODE.SKBL
     18510**DCL     19141<<ASSIGN  19141>>ASSIGN
NODE.SUBNDS
     18515**DCL     19763<>CALL
NODE.SUBNDS.DISP
     18516**DCL     19459>>ASSIGN
NODE.SUBNDS.SEG
     18517**DCL     19418>>IF      19467<<ASSIGN  19469<<ASSIGN
NODE.SUBNDS$
     18514**DCL     18515--REDEF   19416>>ASSIGN  19421--ASSIGN  19455<<ASSIGN
NODE.SUCC_F
     18505**DCL     19137<<ASSIGN  19137>>ASSIGN
NODE.TYPE
     18503**DCL     19143>>IF      19150>>DOCASE  19412<>CALL    19413>>DOCASE  19534>>DOCASE  19582>>DOCASE
NODECODE
     18080**DCL     19123<<ASSIGN
NODECODE.CODE
     18093**DCL     19146>>ASSIGN
PL6.E3A0      #001=XUP$PARTRGE File=XUP$PARTRGE.:E05TSI                          WED 07/30/97 09:39 Page:267
NODECODE.FAIL_F
     18084**DCL     19138>>ASSIGN
NODECODE.MAKEUC
     18091**DCL     19154>>ASSIGN  19156>>IF
NODECODE.NOUT_F
     18094**DCL     19147>>IF
NODECODE.OUT_F
     18085**DCL     19139>>ASSIGN
NODECODE.PRE_F
     18082**DCL     19136>>ASSIGN
NODECODE.RPEAT
     18087**DCL     19140>>ASSIGN
NODECODE.RTEXT
     18089**DCL     19142>>ASSIGN
NODECODE.SKBL
     18088**DCL     19141>>ASSIGN
NODECODE.SUCC_F
     18083**DCL     19137>>ASSIGN
NODECODE.UPRLOWR
     18090**DCL     18091--REDEF   19152>>ASSIGN
NODEFPT
     16360**DCL     18823<>CALL    18871<>CALL    18987<>CALL    19095<>CALL
NODEFPT.V
     16360**DCL     16360--DCLINIT
NODEL
     18528**DCL     19475--ASSIGN  19539--ASSIGN
NODEL.COUNT
     18559**DCL     18562--IMP-SIZ 19475>>ASSIGN  19539>>ASSIGN  19595>>ASSIGN
NODEL.UPRLOWR
     18544**DCL     19152<<ASSIGN  19152>>ASSIGN
NODES
     18581**DCL     19486--ASSIGN  19549--ASSIGN
NODES.COUNT
     18631**DCL     18635--IMP-SIZ 19486>>ASSIGN  19549>>ASSIGN  19617>>ASSIGN
NODES.LEXTYPE
     18612**DCL     19478>>DOCASE  19541>>DOCASE  19598>>IF
PL6.E3A0      #001=XUP$PARTRGE File=XUP$PARTRGE.:E05TSI                          WED 07/30/97 09:39 Page:268
NODES.MAKEUC
     18597**DCL     19154<<ASSIGN  19154>>ASSIGN
NODES.XTRA
     18603**DCL     19484>>IF      19547>>IF      19613>>IF
NODE_
     18043**DCL     16360--DCLINIT
NODE_.FIRST$
     18045**DCL     18046--REDEF   18049--REDEF   18501--IMP-PTR 18824>>ASSIGN  18985>>IF      18995>>ASSIGN
     19094>>IF      19160>>IF      19348>>ASSIGN  19351>>ASSIGN  19406>>ASSIGN  19409>>ASSIGN  19467>>IF
     19523>>CALL    19533>>ASSIGN  19695>>IF
NODE_.NEXT$
     18052**DCL     18053--REDEF   18498--IMP-PTR 18995<<ASSIGN  19007>>ASSIGN  19111>>ASSIGN  19348>>ASSIGN
     19407>>DOWHILE
NODE_.P$
     18050**DCL     18051--REDEF   18502--IMP-PTR 18528--IMP-PTR 18581--IMP-PTR 19118<<ASSIGN  19119>>CALL
     19406<<ASSIGN  19407>>DOWHILE 19409>>ASSIGN  19412>>CALL    19413>>DOCASE  19415>>DOWHILE 19416>>ASSIGN
     19418>>IF      19421>>ASSIGN  19455>>ASSIGN  19459>>ASSIGN  19467>>ASSIGN  19469>>ASSIGN  19475>>ASSIGN
     19475>>ASSIGN  19478>>DOCASE  19484>>IF      19486>>ASSIGN  19486>>ASSIGN  19491<<ASSIGN  19491>>ASSIGN
     19498<<ASSIGN  19499>>DOWHILE 19499>>DOWHILE 19499>>DOWHILE 19501>>ASSIGN  19502<<ASSIGN  19533<<ASSIGN
     19534>>DOCASE  19537>>ASSIGN  19539>>ASSIGN  19539>>ASSIGN  19541>>DOCASE  19547>>IF      19549>>ASSIGN
     19549>>ASSIGN  19582>>DOCASE  19587>>ASSIGN  19595>>ASSIGN  19598>>IF      19613>>IF      19617>>ASSIGN
     19763>>CALL
NODE_.SEG.SEG
     18048**DCL     19467>>ASSIGN
NODE_.SIZE
     18044**DCL     18825>>ASSIGN  19094>>IF
NODO IN PROCEDURE ERROR
     19247**LABEL   19243--CALLALT
NODO IN PROCEDURE WRLO
     19324**LABEL   19317--CALLALT
NONBLANK_FOUND
     18411**DCL     19005<<ASSIGN  19078<<ASSIGN  19085>>IF
NPREFS
     18489**DCL     19404<<ASSIGN  19435<<ASSIGN  19435>>ASSIGN  19689>>IF      19690>>CALLBLT 19693>>IF
     19745>>IF
NXTOPT
PL6.E3A0      #001=XUP$PARTRGE File=XUP$PARTRGE.:E05TSI                          WED 07/30/97 09:39 Page:269
     18835**LABEL   18840--GOTO
ONE_BLANK
     18678**DCL     15678--DCLINIT 15679--DCLINIT
OPEN_FILES
     16669**DCL     18903<>CALL
OPEN_FILES.ASCII_KEY
     16935**DCL     16941--REDEF   16955--REDEF   16978--REDEF
OPEN_FILES.FLAGS.LU_WHILE#
     16794**DCL     18891<<ASSIGN
OPEN_FILES.FLAGS.OPT_UI#
     16812**DCL     18886<<ASSIGN
OPEN_FILES.FLAGS.UP_DATE#
     16685**DCL     18885<<ASSIGN  18889<<ASSIGN
OPEN_FILES.SI_ERRCODE
     16877**DCL     16890--REDEF   19261>>IF      19263>>ASSIGN
OPEN_FILES.UI_ERRCODE
     16902**DCL     16915--REDEF   19268>>IF      19270>>ASSIGN
OPTIONS
     18099**DCL     15305--DCLINIT
OPTS
     18696**DCL     18842<<ASSIGN
OUCLS
     16203**DCL     19513<>CALL    19737<>CALL    19744<>CALL
OUCLS.SN_
     16203**DCL     16203--REDEF
OUCLS.UTL_
     16204**DCL     16204--REDEF
OUCLS.V
     16208**DCL     16203--DCLINIT
OUCLS.V.DCB#
     16209**DCL     19512<<ASSIGN  19734<<ASSIGN  19743<<ASSIGN
OUCLS.V.EXPIRE#
     16218**DCL     16218--REDEF
OUCLS.V.OPER.REBLD#
     16210**DCL     19735<<ASSIGN
OUCLS.V.OPER.RELG#
PL6.E3A0      #001=XUP$PARTRGE File=XUP$PARTRGE.:E05TSI                          WED 07/30/97 09:39 Page:270
     16209**DCL     19736<<ASSIGN
OUCLS.V.TYPE#
     16216**DCL     16216--REDEF
OUCLS.V.XTNSIZE#
     16213**DCL     16213--REDEF   16215--REDEF
OUOPN
     15885**DCL     18801<>CALL    19355<>CALL    19367<>CALL
OUOPN.ACSVEH_
     15887**DCL     15888--REDEF
OUOPN.ALTKEYS_
     15893**DCL     15894--REDEF   15894--REDEF
OUOPN.HDR_
     15892**DCL     15893--REDEF
OUOPN.TAB_
     15891**DCL     15892--REDEF
OUOPN.UHL_
     15885**DCL     15886--REDEF   15886--REDEF
OUOPN.V
     15894**DCL     15885--DCLINIT
OUOPN.V.DCB#
     15894**DCL     18822<<ASSIGN  18896--ASSIGN  19350<<ASSIGN
OUOPN.V.FSN#
     15925**DCL     15925--REDEF   15925--REDEF
OUOPN.V.FUN#
     15904**DCL     18894<<ASSIGN
OUOPN.V.ORG#
     15905**DCL     18893<<ASSIGN
OUOPN.V.SETDCB#
     15895**DCL     19366<<ASSIGN
OUOPN.V.TYPE#
     15906**DCL     18892<<ASSIGN
OUOPN.WSN_
     15891**DCL     15891--REDEF
OUT$BLK.CODE
     15751**DCL     18835>>ASSIGN
OUT$BLK.CPOS
PL6.E3A0      #001=XUP$PARTRGE File=XUP$PARTRGE.:E05TSI                          WED 07/30/97 09:39 Page:271
     15769**DCL     18854>>ASSIGN
OUT$BLK.NSUBLKS
     15755**DCL     18833>>DOINDEX 18846>>DOINDEX 18853>>DOINDEX 19124>>IF
OUT$BLK.SUBLK$
     15776**DCL     18835>>ASSIGN  18846>>DOINDEX 18847>>CALLBLT 18847>>CALLBLT 18847>>CALLBLT 18847>>CALLBLT
     18853>>DOINDEX 18854>>ASSIGN  18854>>ASSIGN  18857>>ASSIGN  18857>>ASSIGN  18857>>ASSIGN  18857>>ASSIGN
     19118>>ASSIGN  19125>>CALL    19128>>CALL
OUT$SYM.COUNT
     15812**DCL     15815--IMP-SIZ 18847>>CALLBLT 18857>>ASSIGN
OUT$SYM.TEXT
     15815**DCL     18847>>CALLBLT 18857--ASSIGN
P$ IN PROCEDURE SYMOVE
     19749**DCL     19748--PROC    19750--IMP-PTR 19753>>ASSIGN  19754>>ASSIGN  19754>>ASSIGN  19755<<ASSIGN
     19755>>ASSIGN  19755>>ASSIGN  19755>>ASSIGN
PARSERR
     19164**LABEL   19115--CALLALT
PARTRGE$INPUT_KEY
     17853**DCL     18920--ASSIGN
PARTRGE$RECNO
     17850**DCL     18919--ASSIGN
PARTRGE_CMD
     18079**DCL     18981--ASSIGN
PARTRGE_MON_ERROR
     18074**DCL-ENT 18923--ASSIGN
PGMSIZE
     18446**DCL     19348<<ASSIGN  19352>>ASSIGN  19510>>IF      19632>>CALL    19637>>IF
PP
     18681**DCL     18696--REDEF
PP.AREA_REF
     18695**DCL     19427>>IF      19442>>IF
PP.CSYS
     18682**DCL     18905>>ASSIGN
PP.LS
     18683**DCL     18828<<ASSIGN  18907>>ASSIGN  18935>>IF      19235>>IF      19314>>IF
PP.LU
     18693**DCL     18891>>ASSIGN  18908>>ASSIGN  18935>>IF      18978>>IF
PL6.E3A0      #001=XUP$PARTRGE File=XUP$PARTRGE.:E05TSI                          WED 07/30/97 09:39 Page:272
PP.MA
     18688**DCL     19667>>IF      19693>>IF
PP.NSYS
     18684**DCL     18906>>ASSIGN
PP.OPTUI
     18692**DCL     18883>>IF
PP.OU
     18687**DCL     18827<<ASSIGN  19353>>IF      19361>>IF      19510>>IF
PP.PREF
     18691**DCL     19745>>IF
PP.SCHEMA
     18694**DCL     19386>>IF      19526>>IF      19626>>IF
PP.SO
     18685**DCL     18909>>ASSIGN
PP.UI
     18686**DCL     18826<<ASSIGN  18889>>ASSIGN
PP.XR
     18689**DCL     19646>>IF
PREPERR
     18662**DCL     18653--DCLINIT
PREPROC
     17541**DCL     18940<>CALL
PREPROC.ALT_FID$
     17686**DCL     18921<<ASSIGN
PREPROC.CREATE_SYS_FILE
     17550**DCL     18905<<ASSIGN
PREPROC.DO_NOT_PREPROCESS
     17543**DCL     18904<<ASSIGN  18939<<ASSIGN
PREPROC.END_OF_SOURCE
     17818**DCL     18949>>IF      19728>>IF
PREPROC.FORMAT
     17591**DCL     18912<<ASSIGN
PREPROC.INPUT_KEY$
     17673**DCL     18920<<ASSIGN
PREPROC.LIST_PREPROC_SOURCE
     17583**DCL     18910<<ASSIGN
PL6.E3A0      #001=XUP$PARTRGE File=XUP$PARTRGE.:E05TSI                          WED 07/30/97 09:39 Page:273
PREPROC.LIST_SOURCE
     17563**DCL     18907<<ASSIGN
PREPROC.LIST_UPDATES
     17571**DCL     18908<<ASSIGN
PREPROC.M$LIST#
     17614**DCL     18914<<ASSIGN
PREPROC.M$LU#
     17625**DCL     18915<<ASSIGN
PREPROC.M$MAC#
     17645**DCL     18917<<ASSIGN
PREPROC.M$NS#
     17635**DCL     18916<<ASSIGN
PREPROC.M$SO#
     17603**DCL     18913<<ASSIGN
PREPROC.M$SYSTEM#
     17656**DCL     18918<<ASSIGN
PREPROC.MONITOR_ERR$$
     17745**DCL     18923<<ASSIGN
PREPROC.NO_SYS_FILE
     17557**DCL     18906<<ASSIGN
PREPROC.PREP_ERR$$
     17691**DCL     18922<<ASSIGN
PREPROC.RECNO$
     17666**DCL     18919<<ASSIGN
PREPROC.SOURCE_OUTPUT
     17577**DCL     18909<<ASSIGN
PREPROC.USE_STANDARD_CHAR_SET
     17799**DCL     18911<<ASSIGN
PREPROC.WIDTH
     17596**DCL     18924<<ASSIGN
PREPROCESSOR_ABORT
     18486**DCL     18942<<ASSIGN  18945<<ASSIGN  19073>>IF
PRFMSG
     18658**DCL     18652--DCLINIT
PROCESS_ECU
     18928**LABEL   18953--GOTO    19730--GOTO
PL6.E3A0      #001=XUP$PARTRGE File=XUP$PARTRGE.:E05TSI                          WED 07/30/97 09:39 Page:274
PSEUDO_POINTER
     18483**DCL     19461<>CALL
PSEUDO_POINTER.DISP
     18484**DCL     19459<<ASSIGN
PSEUDO_POINTER.SEG
     18485**DCL     19460<<ASSIGN
P_ABBREV_NP
     18462**DCL     19592<>CALL    19781<>CALL
P_CODE_NP
     18463**DCL     19586<>CALL    19593<>CALL    19603<>CALL    19612<>CALL    19782<>CALL
P_COUNT_NP
     18465**DCL     19594<>CALL    19616<>CALL    19784<>CALL
P_DLIM_NP
     18471**DCL     19605<>CALL    19790<>CALL
P_F_F_NP
     18454**DCL     19576<>CALL    19773<>CALL
P_LEXTYPE_NP
     18469**DCL     19602<>CALL    19611<>CALL    19788<>CALL
P_MAKEUC_NP
     18461**DCL     19600<>CALL    19608<>CALL    19780<>CALL
P_MAXL_NP
     18470**DCL     19604<>CALL    19615<>CALL    19789<>CALL
P_NAME
     18447**DCL     19380<>CALL    19381<>CALL    19397<>CALL    19426<>CALL    19522<>CALL    19530<>CALL
     19807<>CALL
P_NAME.COUNT
     18448**DCL     19373<<ASSIGN  19377<<ASSIGN  19395<<ASSIGN  19424<<ASSIGN  19520<<ASSIGN  19528<<ASSIGN
     19804<<ASSIGN
P_NAME.TEXT
     18449**DCL     19374<<ASSIGN  19378<<ASSIGN  19396<<ASSIGN  19425<<ASSIGN  19521<<ASSIGN  19529<<ASSIGN
     19805<<ASSIGN
P_NAME_POINTER
     18450**DCL     19380<>CALL    19382<>CALL    19384<>CALL    19389<>CALL    19397<>CALL    19398<>CALL
     19426<>CALL    19429<>CALL    19431<>CALL    19522<>CALL    19523<>CALL    19530<>CALL    19555<>CALL
P_NSUBNDS_NP
     18464**DCL     19585<>CALL    19783<>CALL
PL6.E3A0      #001=XUP$PARTRGE File=XUP$PARTRGE.:E05TSI                          WED 07/30/97 09:39 Page:275
P_OPT_NP
     18456**DCL     19578<>CALL    19775<>CALL
P_O_F_NP
     18455**DCL     19577<>CALL    19774<>CALL
P_PCB
     15300**DCL     18831<>CALL    19115<>CALL
P_PCB.CMPRS
     15335**DCL     18982<<ASSIGN
P_PCB.COMMENT.LEAD
     15418**DCL     18983<<ASSIGN
P_PCB.COMMENT.TRAIL
     15426**DCL     18984<<ASSIGN
P_PCB.ERROR
     15404**DCL     18834<<ASSIGN  18838<<ASSIGN  18842>>ASSIGN  19165>>ASSIGN
P_PCB.ERROR.CODE
     15412**DCL     19164>>ASSIGN
P_PCB.HI_CHAR
     15451**DCL     18854<<ASSIGN  19116<<ASSIGN  19175>>IF      19176>>ASSIGN  19177>>CALLBLT 19177>>CALLBLT
     19177>>CALLBLT 19197>>DOWHILE 19338<<ASSIGN
P_PCB.NCHARS
     15447**DCL     18830<<ASSIGN  18831>>IF      18999<<ASSIGN  19093<<ASSIGN  19097>>ASSIGN  19105>>ASSIGN
     19175>>IF      19177>>CALLBLT 19338>>ASSIGN
P_PCB.OUT$
     15313**DCL     18832>>ASSIGN  19117>>ASSIGN
P_PCB.ROOT$
     15305**DCL     18981<<ASSIGN
P_PCB.TEXT$
     15301**DCL     18829<<ASSIGN  18998<<ASSIGN  19100>>IF      19177>>CALLBLT 19177>>CALLBLT
P_PCB.WKSZ
     15330**DCL     18825<<ASSIGN  19112<<ASSIGN
P_PCB.WORK$
     15309**DCL     18824<<ASSIGN  19107<<ASSIGN  19108>>DOWHILE 19112>>ASSIGN
P_P_F_NP
     18452**DCL     19574<>CALL    19771<>CALL
P_RPEAT_NP
     18457**DCL     19579<>CALL    19776<>CALL
PL6.E3A0      #001=XUP$PARTRGE File=XUP$PARTRGE.:E05TSI                          WED 07/30/97 09:39 Page:276
P_RTEXT_NP
     18459**DCL     19581<>CALL    19778<>CALL
P_SKBL_NP
     18458**DCL     19580<>CALL    19777<>CALL
P_SUBNDS$_NP
     18468**DCL     19588<>CALL    19787<>CALL
P_S_F_NP
     18453**DCL     19575<>CALL    19772<>CALL
P_TEXT_NP
     18466**DCL     19596<>CALL    19618<>CALL    19785<>CALL
P_TYPE_NP
     18451**DCL     19573<>CALL    19770<>CALL
P_UPRLOWR_NP
     18460**DCL     19591<>CALL    19779<>CALL
P_XTRA_NP
     18467**DCL     19609<>CALL    19786<>CALL
READ_DIAG
     15607**DCL     18973<>CALL    19063<>CALL
READ_DIAG.STATION_
     15610**DCL     15611--REDEF
READ_DIAG.V
     15611**DCL     15607--DCLINIT
READ_DIAG.V.DVBYTE.REREAD#
     15622**DCL     15622--REDEF
READ_DIAG.V.INDX#
     15620**DCL     15620--REDEF
READ_LIST
     15568**DCL     18962<>CALL    19038<>CALL
READ_LIST.STATION_
     15571**DCL     15572--REDEF
READ_LIST.V
     15572**DCL     15568--DCLINIT
READ_LIST.V.DVBYTE.REREAD#
     15583**DCL     15583--REDEF
READ_LIST.V.INDX#
     15581**DCL     15581--REDEF
PL6.E3A0      #001=XUP$PARTRGE File=XUP$PARTRGE.:E05TSI                          WED 07/30/97 09:39 Page:277
REWIND_PP_FILE
     15733**DCL     18955<>CALL    18959<>CALL    18970<>CALL
REWIND_PP_FILE.V
     15733**DCL     15733--DCLINIT
REWIND_PP_FILE.V.DCB#
     15733**DCL     18954<<ASSIGN  18958<<ASSIGN  18969<<ASSIGN
RTEXTERR
     18654**DCL     18653--DCLINIT
SALUTATION
     18022**DCL     15709--DCLINIT 15710--DCLINIT
SALUTATION.DAT
     18027**DCL     18900<<ASSIGN
SALUTATION.TIM
     18026**DCL     18899<<ASSIGN
SALUTATION.VERS
     18024**DCL     18898<<ASSIGN
SECTION
     18475**DCL     19382<>CALL    19384<>CALL    19412<>CALL    19441<>CALL    19444<>CALL    19447<>CALL
     19449<>CALL    19461<>CALL    19462<>CALL    19462<>CALL    19464<>CALL    19523<>CALL    19555<>CALL
     19632<>CALL    19763<>CALL    19877<>CALL
SHUT_DOWN_IMMEDIATELY
     19743**LABEL   19182--GOTO
SIOPN
     15995**DCL     18818<>CALL
SIOPN.ACSVEH_
     15997**DCL     15998--REDEF
SIOPN.ALTKEYS_
     16003**DCL     16004--REDEF   16004--REDEF
SIOPN.HDR_
     16002**DCL     16003--REDEF
SIOPN.TAB_
     16001**DCL     16002--REDEF
SIOPN.UHL_
     15995**DCL     15996--REDEF   15996--REDEF
SIOPN.V
     16004**DCL     15995--DCLINIT
PL6.E3A0      #001=XUP$PARTRGE File=XUP$PARTRGE.:E05TSI                          WED 07/30/97 09:39 Page:278
SIOPN.V.FSN#
     16035**DCL     16035--REDEF   16035--REDEF
SIOPN.WSN_
     16001**DCL     16001--REDEF
SLEN IN PROCEDURE GENERATE_DNAME
     19799**DCL     19802<<CALLBLT 19804>>ASSIGN  19805>>ASSIGN
SOMETHING_WRITTEN
     18487**DCL     19021<<ASSIGN  19022>>DOWHILE 19024<<ASSIGN  19042<<ASSIGN  19067<<ASSIGN
STRING IN PROCEDURE GENERATE_DNAME
     19798**DCL     19796--PROC    19802>>CALLBLT 19805>>ASSIGN
SYM
     18422**DCL     19506--ASSIGN  19656--ASSIGN
SYM.C
     18439**DCL     18440--IMP-SIZ 19286>>IF      19292>>CALLBLT 19293>>ASSIGN  19377>>ASSIGN  19378>>ASSIGN
     19424>>ASSIGN  19425>>ASSIGN  19499>>DOWHILE 19499>>DOWHILE 19506>>ASSIGN  19520>>ASSIGN  19521>>ASSIGN
     19528>>ASSIGN  19529>>ASSIGN  19652>>ASSIGN  19653>>ASSIGN  19656>>ASSIGN  19723>>ASSIGN  19753>>ASSIGN
     19754>>ASSIGN
SYM.DEF
     18433**DCL     19121>>IF      19122<<ASSIGN  19419>>IF      19436<<ASSIGN  19518>>IF      19531>>IF
     19673>>IF      19683>>IF      19701>>IF
SYM.LNK.LNK
     18432**DCL     19502>>ASSIGN  19504<<ASSIGN  19504>>ASSIGN  19505<<ASSIGN  19624>>ASSIGN  19662>>ASSIGN
     19674>>ASSIGN  19684>>ASSIGN  19702>>ASSIGN
SYM.NODE$
     18423**DCL     18424--REDEF   18428--REDEF   18429--REDEF   18430--REDEF   19128<>CALL    19131<<ASSIGN
     19136>>ASSIGN  19136>>ASSIGN  19137>>ASSIGN  19137>>ASSIGN  19138>>ASSIGN  19138>>ASSIGN  19139>>ASSIGN
     19139>>ASSIGN  19140>>ASSIGN  19140>>ASSIGN  19141>>ASSIGN  19141>>ASSIGN  19142>>ASSIGN  19142>>ASSIGN
     19143>>IF      19143>>IF      19146>>ASSIGN  19149>>ASSIGN  19150>>DOCASE  19152>>ASSIGN  19152>>ASSIGN
     19154>>ASSIGN  19154>>ASSIGN  19160>>IF      19420>>IF      19421<<ASSIGN  19455>>ASSIGN  19523>>CALL
SYM.PRF
     18438**DCL     19432<<ASSIGN  19438>>ASSIGN
SYM.T
     18440**DCL     19292>>CALLBLT 19378>>ASSIGN  19425>>ASSIGN  19499>>DOWHILE 19499>>DOWHILE 19521>>ASSIGN
     19529>>ASSIGN  19652>>ASSIGN  19653--ASSIGN  19723>>ASSIGN  19754>>ASSIGN
SYM.USED
     18434**DCL     19518>>IF      19555<>CALL    19683>>IF
PL6.E3A0      #001=XUP$PARTRGE File=XUP$PARTRGE.:E05TSI                          WED 07/30/97 09:39 Page:279
SYM.VAL
     18428**DCL     19496>>IF
SYM.VUAL
     18429**DCL     19287>>CALLBLT 19287>>CALLBLT 19287>>CALLBLT 19287>>CALLBLT 19287>>CALLBLT
SYM.X
     18435**DCL     19161<<ASSIGN  19518>>IF      19683>>IF
SYM.XPREF
     18436**DCL     19130<<ASSIGN  19419>>IF      19434>>IF
SYM.XR.D
     18426**DCL     19120<<ASSIGN  19302>>IF
SYM.XR.L#
     18425**DCL     19300>>CALLBLT 19533>>ASSIGN  19554>>ASSIGN
SYM.XR.LNK
     18427**DCL     19659>>ASSIGN
SYMFPT
     16376**DCL     18988<>CALL
SYMFPT.V
     16376**DCL     16376--DCLINIT
SYMO IN PROCEDURE SYMOVE
     19750**DCL     19755--ASSIGN
SYMO.C IN PROCEDURE SYMOVE
     19751**DCL     19752--IMP-SIZ 19753<<ASSIGN  19754>>ASSIGN  19755>>ASSIGN
SYMO.T IN PROCEDURE SYMOVE
     19752**DCL     19754<<ASSIGN
SYMSZS
     18415**DCL     19293>>ASSIGN  19293>>ASSIGN  19293>>ASSIGN  19298>>ASSIGN  19341<<ASSIGN  19341>>ASSIGN
     19343>>DOWHILE 19345<<ASSIGN  19345>>ASSIGN  19345>>ASSIGN  19347<<ASSIGN  19654>>IF      19654>>ASSIGN
SYM_
     18056**DCL     16376--DCLINIT
SYM_.FIRST$
     18058**DCL     18059--REDEF   18062--REDEF   18996>>ASSIGN  19494>>ASSIGN  19657>>DOWHILE 19659>>ASSIGN
SYM_.NEXT$
     18065**DCL     18066--REDEF   18996<<ASSIGN  19120>>ASSIGN  19495>>DOWHILE 19498>>ASSIGN  19499>>DOWHILE
     19502>>ASSIGN  19505>>ASSIGN  19516>>ASSIGN  19517>>DOWHILE 19624>>ASSIGN  19650>>ASSIGN  19651>>DOWHILE
     19662>>ASSIGN  19671>>ASSIGN  19672>>DOWHILE 19674>>ASSIGN  19681>>ASSIGN  19682>>DOWHILE 19684>>ASSIGN
     19694>>ASSIGN  19700>>DOWHILE 19702>>ASSIGN
PL6.E3A0      #001=XUP$PARTRGE File=XUP$PARTRGE.:E05TSI                          WED 07/30/97 09:39 Page:280
SYM_.P$
     18063**DCL     18064--REDEF   18422--IMP-PTR 18441--IMP-PTR 19119<>CALL    19121>>IF      19122>>ASSIGN
     19128>>CALL    19130>>ASSIGN  19131>>ASSIGN  19135>>ASSIGN  19136>>ASSIGN  19136>>ASSIGN  19137>>ASSIGN
     19137>>ASSIGN  19138>>ASSIGN  19138>>ASSIGN  19139>>ASSIGN  19139>>ASSIGN  19140>>ASSIGN  19140>>ASSIGN
     19141>>ASSIGN  19141>>ASSIGN  19142>>ASSIGN  19142>>ASSIGN  19143>>IF      19143>>IF      19146>>ASSIGN
     19149>>ASSIGN  19150>>DOCASE  19152>>ASSIGN  19152>>ASSIGN  19154>>ASSIGN  19154>>ASSIGN  19160>>IF
     19161>>ASSIGN  19286>>IF      19287>>CALLBLT 19287>>CALLBLT 19287>>CALLBLT 19287>>CALLBLT 19287>>CALLBLT
     19292>>CALLBLT 19292>>CALLBLT 19293>>ASSIGN  19416<<ASSIGN  19419>>IF      19419>>IF      19420>>IF
     19421>>ASSIGN  19424>>ASSIGN  19425>>ASSIGN  19425>>ASSIGN  19432>>ASSIGN  19434>>IF      19436>>ASSIGN
     19438>>ASSIGN  19455>>ASSIGN  19494<<ASSIGN  19495>>DOWHILE 19496>>IF      19499>>DOWHILE 19499>>DOWHILE
     19504>>ASSIGN  19505>>ASSIGN  19506<<ASSIGN  19506>>ASSIGN  19506>>ASSIGN  19506>>ASSIGN  19508<<ASSIGN
     19508>>ASSIGN  19516<<ASSIGN  19517>>DOWHILE 19518>>IF      19518>>IF      19518>>IF      19520>>ASSIGN
     19521>>ASSIGN  19521>>ASSIGN  19523>>CALL    19528>>ASSIGN  19529>>ASSIGN  19529>>ASSIGN  19531>>IF
     19533>>ASSIGN  19554>>ASSIGN  19555>>CALL    19624<<ASSIGN  19624>>ASSIGN  19650<<ASSIGN  19651>>DOWHILE
     19652>>ASSIGN  19652>>ASSIGN  19653>>ASSIGN  19653>>ASSIGN  19656>>ASSIGN  19656>>ASSIGN  19656>>ASSIGN
     19662<<ASSIGN  19662>>ASSIGN  19671<<ASSIGN  19672>>DOWHILE 19673>>IF      19674<<ASSIGN  19674>>ASSIGN
     19681<<ASSIGN  19682>>DOWHILE 19683>>IF      19683>>IF      19683>>IF      19684<<ASSIGN  19684>>ASSIGN
     19694<<ASSIGN  19700>>DOWHILE 19701>>IF      19702<<ASSIGN  19702>>ASSIGN  19753>>ASSIGN  19754>>ASSIGN
     19754>>ASSIGN
SYM_.SEG.SEG
     18061**DCL     19418>>IF
SYNERR
     19175**LABEL   18831--CALLALT 18856--GOTO    18992--REMEMBR 19339--GOTO
SYNMSG
     18673**DCL     18652--DCLINIT
SYNMSG.AT
     18675**DCL     19177>>CALLBLT
SYNMSG.TXT
     18677**DCL     19177<<CALLBLT
SYNTAXERR
     18101**DCL     18992<<REMEMBR
TEXT
     15251**DCL     19096>>ASSIGN
TEXT.LINE
     15252**DCL     19017<<ASSIGN
TEXT.M.DOT
PL6.E3A0      #001=XUP$PARTRGE File=XUP$PARTRGE.:E05TSI                          WED 07/30/97 09:39 Page:281
     15261**DCL     19207<<ASSIGN  19209>>IF      19209<<ASSIGN  19216<<ASSIGN
TEXT.M.L#
     15258**DCL     19203<<CALLBLT 19204<<CALLBLT 19204>>CALLBLT
TEXT.M.LP
     15259**DCL     19205<<ASSIGN
TEXT.M.RP
     15263**DCL     19213<<CALLBLT 19215>>IF      19215<<ASSIGN
TEXT.M.S#
     15260**DCL     19220<<CALLBLT 19221<<CALLBLT 19221>>CALLBLT
TEXT.M.SD#
     15262**DCL     19210<<ASSIGN  19217<<CALLBLT
TEXT.SIKEY
     15253**DCL     19018<<ASSIGN
TEXT.T
     15255**DCL     15256--REDEF   15538--DCLINIT 15539--DCLINIT 16520--DCLINIT 18651--DCLINIT 19020<<ASSIGN
     19077--DOWHILE 19078>>IF      19082>>ASSIGN  19190<<ASSIGN  19235--IF      19287<<CALLBLT 19291<<CALLBLT
     19291>>CALLBLT 19292<<CALLBLT 19300<<CALLBLT 19301<<CALLBLT 19301>>CALLBLT 19302<<CALLBLT 19310>>DOWHILE
     19329<<ASSIGN  19652<<ASSIGN
TEXT.UPC
     15254**DCL     19019<<ASSIGN
TITC
     18018**DCL     18934>>CALLBLT 19648>>CALLBLT 19669>>CALLBLT
TITL
     18010**DCL     18018--REDEF   18934--CALLBLT 19648--CALLBLT 19669--CALLBLT 19677--CALLBLT 19696--CALLBLT
TITL.DAT
     18016**DCL     16594--DCLINIT 16595--DCLINIT 18900>>ASSIGN
TITL.FILE
     18017**DCL     18896<<ASSIGN
TITL.HDR
     18014**DCL     18933<<ASSIGN  19647<<ASSIGN  19668<<ASSIGN  19677--CALLBLT 19677--CALLBLT 19696--CALLBLT
     19696--CALLBLT
TITL.TIM
     18015**DCL     16596--DCLINIT 16597--DCLINIT 18899>>ASSIGN
TITL.VERS
     18012**DCL     18897<<ASSIGN
TOPAGE
PL6.E3A0      #001=XUP$PARTRGE File=XUP$PARTRGE.:E05TSI                          WED 07/30/97 09:39 Page:282
     16560**DCL     18937<>CALL    18980<>CALL    19649<>CALL    19670<>CALL    19680<>CALL    19698<>CALL
TOPAGE.V
     16561**DCL     16560--DCLINIT
TOPAGE.V.PAGE#
     16562**DCL     18935<<ASSIGN  18936>>IF      19315<<ASSIGN  19319<<ASSIGN
TOTAL_ERRORS
     18490**DCL     18926<<ASSIGN  19727<<ASSIGN  19727>>ASSIGN  19745>>IF
TRASH_NAME
     18700**DCL     18859--ASSIGN
VERSION_INFO
     18495**DCL     19370<>CALL
VERSION_INFO.LETTER
     18496**DCL     18807<<ASSIGN
VERSION_INFO.NUMBER
     18497**DCL     18813<<ASSIGN  18813>>ASSIGN
VLR_FID
     16651**DCL     16632--DCLINIT
WIDTH
     18421**DCL     19286>>IF      19296>>IF      19316>>IF      19325<<ASSIGN  19326>>IF      19326>>IF
     19326<<ASSIGN  19327>>ASSIGN  19328>>ASSIGN
WORKFPT
     16392**DCL     18989<>CALL    19001<>CALL    19081<>CALL    19109<>CALL    19168<>CALL    19169<>CALL
     19170<>CALL
WORKFPT.V
     16392**DCL     16392--DCLINIT
WORK_
     18030**DCL     16392--DCLINIT
WORK_.FIRST$
     18032**DCL     18033--REDEF   18036--REDEF   18998>>ASSIGN  19003>>ASSIGN  19080>>IF      19087>>ASSIGN
     19093>>ASSIGN  19100>>ASSIGN  19105>>ASSIGN  19108>>DOWHILE 19112>>ASSIGN  19405>>ASSIGN
WORK_.NEXT$
     18039**DCL     18040--REDEF
WORK_.P$
     18037**DCL     15264--IMP-PTR 18038--REDEF   19007<<ASSIGN  19094>>IF      19096>>ASSIGN  19097>>ASSIGN
     19105<<ASSIGN  19107>>ASSIGN  19111>>ASSIGN  19197>>DOWHILE 19203>>CALLBLT 19206>>IF      19207>>ASSIGN
     19208>>ASSIGN  19213>>CALLBLT 19214>>ASSIGN  19405<<ASSIGN  19470<<ASSIGN  19470>>ASSIGN  19497<<ASSIGN
PL6.E3A0      #001=XUP$PARTRGE File=XUP$PARTRGE.:E05TSI                          WED 07/30/97 09:39 Page:283
     19501<<ASSIGN  19502>>ASSIGN  19504>>ASSIGN  19505>>ASSIGN
WORK_.SIZE
     18031**DCL     19000>>DOWHILE 19080>>IF      19108>>DOWHILE 19112>>ASSIGN
WRAP_IT_UP
     19732**LABEL   18951--GOTO
WRITELO IN PROCEDURE NAMEOUT
     19305**ENTRY   18804--CALL    19661--CALL    19676--CALL    19686--CALL    19704--CALL
WRITE_BLANK
     15677**DCL     19033<>CALL    19052<>CALL    19239<>CALL
WRITE_BLANK.STATION_
     15679**DCL     15679--REDEF
WRITE_BLANK.V
     15680**DCL     15677--DCLINIT
WRITE_BLANK.V.DVBYTE.VFC#
     15686**DCL     15686--REDEF
WRITE_LS
     15646**DCL     19035<>CALL    19054<>CALL    19058<>CALL
WRITE_LS.STATION_
     15648**DCL     15648--REDEF
WRITE_LS.V
     15649**DCL     15646--DCLINIT
WRITE_LS.V.DCB#
     15649**DCL     19057<<ASSIGN  19059<<ASSIGN
WRITE_LS.V.DVBYTE.VFC#
     15655**DCL     15655--REDEF
WRITE_SALUTATION
     15708**DCL     18901<>CALL
WRITE_SALUTATION.STATION_
     15710**DCL     15710--REDEF
WRITE_SALUTATION.V
     15711**DCL     15708--DCLINIT
WRITE_SALUTATION.V.DVBYTE.VFC#
     15717**DCL     15717--REDEF
WRLO IN PROCEDURE NAMEOUT
     19308**PROC    19286--CALL    19297--CALL    19306--CALL
X$PARSE
PL6.E3A0      #001=XUP$PARTRGE File=XUP$PARTRGE.:E05TSI                          WED 07/30/97 09:39 Page:284
     18070**DCL-ENT 18831--CALL    19115--CALL
XUO$BUFINIT
     13711**DCL-ENT 19369--CALL
XUO$DBGNAME
     13715**DCL-ENT 19530--CALL    19807--CALL
XUO$DNAME
     13713**DCL-ENT 19380--CALL    19522--CALL
XUO$EDEF
     13719**DCL-ENT 19384--CALL
XUO$HEADNAME
     13744**DCL-ENT 19381--CALL
XUO$HEAD_SEVERITY
     13745**DCL-ENT 19635--CALL    19639--CALL    19641--CALL
XUO$LOGBLKALLOC
     13736**DCL-ENT 19388--CALL
XUO$LOGBLKEXSTINIT
     13737**DCL-ENT 19389--CALL
XUO$LOGBLKEXSTTERM
     13738**DCL-ENT 19628--CALL
XUO$LOGBLKTERM
     13741**DCL-ENT 19630--CALL
XUO$LOGBLKVREBLINIT
     13739**DCL-ENT 19390--CALL
XUO$LOGBLKVREBLTERM
     13740**DCL-ENT 19629--CALL
XUO$OUINIT
     13712**DCL-ENT 19370--CALL
XUO$OUTERM
     13746**DCL-ENT 19642--CALL
XUO$PRGM
     13747**DCL-ENT 19412--CALL    19441--CALL    19461--CALL    19763--CALL
XUO$RELOC
     13751**DCL-ENT 19444--CALL    19447--CALL    19449--CALL    19462--CALL    19464--CALL
XUO$RNAME
     13714**DCL-ENT 19397--CALL    19426--CALL
XUO$SDEF
PL6.E3A0      #001=XUP$PARTRGE File=XUP$PARTRGE.:E05TSI                          WED 07/30/97 09:39 Page:285
     13721**DCL-ENT 19523--CALL
XUO$SECTBUILD
     13716**DCL-ENT 19382--CALL
XUO$SECTSIZE
     13718**DCL-ENT 19632--CALL
XUO$SEGREF
     13726**DCL-ENT 19398--CALL    19429--CALL
XUO$SREF
     13723**DCL-ENT 19431--CALL
XUO$VREBL
     13730**DCL-ENT 19555--CALL    19877--CALL
XUOERROR
     18102**DCL     18993<<REMEMBR
XUO_ERROR_CODE
     18103**DCL     19277>>ASSIGN
XUO_ERROR_HANDLER
     19277**LABEL   18993--REMEMBR
XUP$BLDNODE
     18077**DCL-ENT 19128--CALL
XUP$BLDOPT
     18076**DCL-ENT 19125--CALL
XUP$BLDSYM
     18078**DCL-ENT 19119--CALL
XUP$PARTRGE_PREPROC_ERROR
     18073**DCL-ENT 18922--ASSIGN
XUP$PARTRGE_XUO_ERROR
     18075**DCL-ENT 19370--CALL
XUPDONE
     19329**LABEL   19072--GOTO
XUPEXIT
     19701**LABEL   19259--GOTO    19275--GOTO    19283--GOTO
XUU$CLOSE
     18072**DCL-ENT 19738--CALL
XUU$OPEN
     18071**DCL-ENT 18903--CALL
XUU_ERROR
PL6.E3A0      #001=XUP$PARTRGE File=XUP$PARTRGE.:E05TSI                          WED 07/30/97 09:39 Page:286
     19261**LABEL   18903--CALLALT 19738--CALLALT
XUX$SRCH_LIST
     18737**DCL     18921--ASSIGN
XUX$SRCH_LIST.ACCT_LIST
     18754**DCL     18879<<ASSIGN  18879>>ASSIGN
XUX$SRCH_LIST.ACCT_LIST.ACCT
     18774**DCL     18860--ASSIGN  18873<<ASSIGN  18880<<ASSIGN
XUX$SRCH_LIST.ACCT_LIST.ASN
     18788**DCL     18864--ASSIGN  18877<<ASSIGN
XUX$SRCH_LIST.ACCT_LIST.PASS
     18779**DCL     18861--ASSIGN  18874<<ASSIGN
XUX$SRCH_LIST.ACCT_LIST.RES
     18792**DCL     18865--ASSIGN  18878<<ASSIGN
XUX$SRCH_LIST.ACCT_LIST.SN
     18782**DCL     18862--ASSIGN  18875<<ASSIGN
XUX$SRCH_LIST.ACCT_LIST.WSN
     18785**DCL     18863--ASSIGN  18876<<ASSIGN
XUX$SRCH_LIST.NUM
     18742**DCL     18803<<ASSIGN  18868<<ASSIGN  18873>>ASSIGN  18874>>ASSIGN  18875>>ASSIGN  18876>>ASSIGN
     18877>>ASSIGN  18878>>ASSIGN  18879>>ASSIGN  18879>>ASSIGN  18880>>ASSIGN  18881<<ASSIGN  18881>>ASSIGN
     18882>>ASSIGN
XUX$SRCH_LIST.RCVD
     18748**DCL     18882<<ASSIGN
ZQ$DIAG_BUFFER
     17950**DCL     15609--DCLINIT 15610--DCLINIT 18971<<ASSIGN  19061<<ASSIGN
ZQ$DIAG_BUFFER.PRINT_BUFFER
     17964**DCL     17968--REDEF   18972<<ASSIGN  19049>>ASSIGN  19062<<ASSIGN
ZQ$DIAG_BUFFER.RECNO
     17951**DCL     19025>>DOWHILE 19044>>DOWHILE 19044>>DOWHILE
ZQ$DIAG_BUFFER.VFC
     17955**DCL     19048>>ASSIGN
ZQ$LS_BUFFER
     17892**DCL     15570--DCLINIT 15571--DCLINIT 18960<<ASSIGN  19036<<ASSIGN
ZQ$LS_BUFFER.PRINT_BUFFER
     17906**DCL     17910--REDEF   18961<<ASSIGN  19030>>ASSIGN  19037<<ASSIGN
ZQ$LS_BUFFER.RECNO
PL6.E3A0      #001=XUP$PARTRGE File=XUP$PARTRGE.:E05TSI                          WED 07/30/97 09:39 Page:287
     17893**DCL     19025>>DOWHILE 19025>>DOWHILE 19044>>DOWHILE
ZQ$LS_BUFFER.VFC
     17897**DCL     19029>>ASSIGN
ZQ$NS_BUFFER
     17866**DCL     15500--DCLINIT 15501--DCLINIT
ZQ$NS_BUFFER.INPUT_KEY.EDIT_VAL
     17882**DCL     19018>>ASSIGN
ZQ$NS_BUFFER.INPUT_KEY.TYPE_CHAR
     17877**DCL     19019>>ASSIGN
ZQ$NS_BUFFER.RECNO
     17867**DCL     19012>>ASSIGN  19015<<ASSIGN  19017>>ASSIGN  19025>>DOWHILE 19044>>DOWHILE 19070>>IF
ZQ$NS_BUFFER.TEXT
     17886**DCL     19009<<ASSIGN  19020>>ASSIGN
ZQC$PREP
     18799**DCL-ENT 18940--CALL

