VERSION E05

PL6.E3A0      #001=XUX$MAIN File=XUX$COMMON_OPTIONS.:E05TSI                      WED 07/30/97 09:46 Page:1
        1        1        /*M* XUX$COMMON_OPTIONS - The common options parser routines */
        2        2        /*T***********************************************************/
        3        3        /*T*                                                         */
        4        4        /*T* Copyright (c) Bull HN Information Systems Inc., 1997    */
        5        5        /*T*                                                         */
        6        6        /*T***********************************************************/
        7        7        /*X* DMC,PLM=4,IND=4,CTI=2,DTI=0,ENI=0,ECI=0,CSI=0,MCI,DCI=4 */
        8        8        /*P*
        9        9             NAME: XUX$COMMON_OPTIONS
       10       10             PURPOSE:
       11       11                  The common options parser is designed to read and optionally
       12       12                  parse command lines.
       13       13             DESCRIPTION:
       14       14                  The common options parser can be used to read command lines and
       15       15                  (if present) contination lines from *CONTINUED_COMMAND and
       16       16                  optionally parse them according to the CP-6 standard options.
       17       17                  Provision is made for non-standard options.
       18       18             REFERENCE:
       19       19                  See AF# 0765A-0
       20       20        */
       21       21        /*F*
       22       22             NAME:  XUX:  Processor Invocation Services
       23       23             ..::L1 "XUX Services\XUX\1"
       24       24             ..VA$M_FOOTER "\XUX Services"
       25       25                  The XUX services facilitate reading and parsing of a
       26       26                  processor invocation command.  The services can be used in
       27       27                  two ways:
       28       28                  ..::IX "processor invocation"
       29       29                  ..::IX "command, processor invocation"
       30       30                  ..::IX "parsing, processor invocation command"
       31       31                  ..::IX "options, processor invocation"
       32       32
       33       33                  o  The command line options are parsed using X$PARSE and a
       34       34                  data structure is returned to the caller indicating which of
       35       35                  the standard command line options were found, as well as any
       36       36                  non-standard options found.  This function is performed by
       37       37                  calling the XUX$COMMON_OPTIONS service.
PL6.E3A0      #001=XUX$MAIN File=XUX$COMMON_OPTIONS.:E05TSI                      WED 07/30/97 09:46 Page:2
       38       38                  ..::IX "command line options, standard"
       39       39                  ..::IX "command line options, non-standard"
       40       40
       41       41                  o  The command lines found are returned to the calling
       42       42                  routine.  Continuation lines are automatically retrieved.
       43       43                  No parsing is performed.  This function is performed by
       44       44                  calling the XUX$GETLINE service for each line.  The
       45       45                  XUX$CLEANUP service must be called after reading a command.
       46       46
       47       47                        ..::HL "The XUX services are summarized in Table 15-1."
       48       48                        ..::HL "\For a brief description of each service, type"
       49       49                        ..::HL "\.spf"
       50       50                        ..::HL "\!HELP (HOSTLIB) XUX service"
       51       51                        ..::HL "\.spb"
       52       52                        ..::HL "\service may be XUX$CLEANUP, XUX$COMMON_OPTIONS, or "
       53       53                        ..::HL "\XUX$GETLINE."
       54       54                        ..::TB "XUX Service Summary\Service\#3\Description\#"
       55       55                        ..::IT "XUX$CLEANUP"
       56       56                        Performs internal housekeeping; required after a complete
       57       57                        command has been read via calls to XUX$GETLINE.
       58       58                        ..::IT "XUX$COMMON_OPTIONS"
       59       59                        Retrieves and parses a complete processor invocation
       60       60                        command.  Can parse the standard form of the processor
       61       61                        invocation, and, with user-supplied parse nodes, can parse
       62       62                        non-standard processor invocations.
       63       63                        ..::IT "XUX$GETLINE"
       64       64                        Facilitates reading command line options, but performs no
       65       65                        parsing.
       66       66                        ..::TB
       67       67        */
       68       68        /*F*
       69       69             NAME:  XUX_INCLUDE Files
       70       70             All of the INCLUDE files necessary to make use of the XUX services are
       71       71             located in the :LIBRARY account.  They are all PL-6 INCLUDE files
       72       72             and contain MACRO definitions and EQUs which are used to initialize
       73       73             interface to the services (see Table 14-1).
       74       74             ..::TB "XUX Include Files\File\#11\Contents\#"
PL6.E3A0      #001=XUX$MAIN File=XUX$COMMON_OPTIONS.:E05TSI                      WED 07/30/97 09:46 Page:3
       75       75             ..::IT "XUX$INTERFACE_M"
       76       76             Macros for use with XUX services.
       77       77             ..::IT "XUX_ENTRY_M"
       78       78             Entry DCLs for entry points to the XUX services.
       79       79             ..::IT "XU_PERR_C"
       80       80             EQUs for all XUX service error messages.  Any EQUs of the form
       81       81             E$XUX#? are found in this file.
       82       82             ..::TB
       83       83        */
       84       84        /*F*
       85       85             NAME:  XUX$GETLINE Service
       86       86             ..::IT "Format:"
       87       87                  CALL XUX$GETLINE (name) ALTRET (label);
       88       88             ..::IT "Parameters:"
       89       89                  name^^^^can be generated by invoking the
       90       90                  macro %XUX$PARAM_NO_PARSE.
       91       91             ..::IT "Description:"
       92       92                  The XUX$GETLINE service retrieves a command line.
       93       93                  XUX$GETLINE can be called and re-called to obtain a
       94       94                  multi-line command; it obtains
       95       95                  continuation lines from the *CONTINUATION_COMMANDS file, if
       96       96                  they are present.  The caller may choose to receive the
       97       97                  entire command by default, or only the portion from
       98       98                  B$JIT.CCDISP on (i.e., starting at the processor options)
       99       99                  by setting XUX$PARAM_NO_PARSE.DISP_ONLY.
      100      100                  ..::IX "*CONTINUATION_COMMANDS file"
      101      101                  ..::IX "command, multi-line (processor invocation)"
      102      102                  ..::IX "multi-line command (processor invocation)"
      103      103
      104      104                  After a call to XUX$GETLINE, either the buffer framed by
      105      105                  XUX$PARAM_NO_PARSE.BUFFER_ contains a line of the command
      106      106                  with the length set in CMD_LEN, or
      107      107                  XUX$PARAM_NO_PARSE.CMD_COMPLETE is set indicating that
      108      108                  there is no command line left to return.  (It is illegal
      109      109                  to call XUX$GETLINE after CMD_COMPLETE is set.  The user
      110      110                  must first call XUX$CLEANUP before program termination
      111      111                  or before attempting to re-read or re-parse the command.)
PL6.E3A0      #001=XUX$MAIN File=XUX$COMMON_OPTIONS.:E05TSI                      WED 07/30/97 09:46 Page:4
      112      112                  ..::IT "Error Conditions:"
      113      113                  If an error occurs, XUX$GETLINE ALTRETurns with
      114      114                  the error code set in XUX$PARAM_NO_PARSE.ERROR_CODE.
      115      115        */
      116      116        /*D*
      117      117             NAME: XUX$GETLINE
      118      118             CALL:
      119      119                  CALL XUX$GETLINE(PARAM_NO_PARSE) ALTRET;
      120      120             PARAMETERS:
      121      121                  PARAM_NO_PARSE is defined by the macro PARAM_NO_PARSE.
      122      122             INPUT:
      123      123                  B$JIT.CCBUF
      124      124                  *CONTINUATION_COMMAND  (if continued commands are present)
      125      125             DESCRIPTION:
      126      126                  On the first call to this routine, a DCB is allocated to
      127      127                  read *CONTINUATION_COMMAND if B$JIT.CONTINUED is set.  This
      128      128                  will be used for subsequent calls to read the continued lines
      129      129                  from.  If PARAM_NO_PARSE.DISP_ONLY is set, then only the portion
      130      130                  of the command line from B$JIT.CCDISP on (including any
      131      131                  continued lines).  Subsequent calls will return the continued
      132      132                  lines (if any) until XUX$CMD_COMPLETE gets set, indicating that
      133      133                  there is no more command input. If a call occurs after that
      134      134                  without an intervening call to XUX$CLEANUP, then an ALTRETURN
      135      135                  will occur.
      136      136        */
      137      137
      138      138        /*E*
      139      139             ERROR:   XUX-E$XUX#CANT_CALL_AGAIN-4
      140      140             MESSAGE: This call to XUX$GETLINE is illegal because of either a
      141      141                      previous error condition or a previous EOF condition.
      142      142             DESCRIPTION: XUX$GETLINE was called after EOF (or end of options
      143      143                          on B$JIT.CCBUF) or an error occurred without calling
      144      144                          XUX$CLEANUP in between.
      145      145        */
      146      146
      147      147
      148      148        /*E*
PL6.E3A0      #001=XUX$MAIN File=XUX$COMMON_OPTIONS.:E05TSI                      WED 07/30/97 09:46 Page:5
      149      149             ERROR:   XUX-E$XUX#BUFFER_IS_NIL-4
      150      150             MESSAGE: No buffer was specified on a call to XUX$GETLINE.
      151      151        */
      152      152
      153      153        /*E* ERROR:XUX-E$XUX#NO_PARAM_SPECIFIED-4
      154      154             MESSAGE:Internal error: XUX$COMMON_OPTIONS was called with no parameters.
      155      155        */
      156      156
      157      157        /*E* ERROR:XUX-E$XUX#MUST_HAVE_LEGAL_OPTIONS-4
      158      158             MESSAGE:Internal error: No XUX$LEGAL_OPTIONS specified.
      159      159        */
      160      160
      161      161        /*E* ERROR:XUX-E$XUX#MUST_HAVE_STD_OPTIONS-4
      162      162             MESSAGE:Internal error: No XUX$STD_OPTIONS specified.
      163      163        */
      164      164
      165      165        /*E* ERROR:XUX-E$XUX#NO_BC_STRUCT-4
      166      166             MESSAGE:Internal error: No XUX$BC_UNIT structure specified.
      167      167        */
      168      168
      169      169        /*E* ERROR:XUX-E$XUX#NO_SRCH_LIST_STRUCT-4
      170      170             MESSAGE:Internal error: No XUX$SRCH_LIST structure specified.
      171      171        */
      172      172
      173      173        /*E* ERROR:XUX-E$XUX#NO_USER_ROUTINE-4
      174      174             MESSAGE:Internal error: Non-standard options have been allowed but
      175      175                     no user routine has been provided.
      176      176        */
      177      177
      178      178        /*E* ERROR:XUX-E$XUX#ILLEGAL_DCB_FOUND-2
      179      179             MESSAGE:A DCB was specified in the %U1 position, but is not legal
      180      180                     for this processor.
      181      181        */
      182      182
      183      183        /*E* ERROR:XUX-E$XUX#CANT_GET_MEM-4
      184      184             MESSAGE:Unable to allocate enough memory to process command line options.
      185      185        */
PL6.E3A0      #001=XUX$MAIN File=XUX$COMMON_OPTIONS.:E05TSI                      WED 07/30/97 09:46 Page:6
      186      186
      187      187        /*E* ERROR:XUX-E$XUX#NO_MORE_BUFFER-4
      188      188             MESSAGE:The command line options specified were too long to process.
      189      189        */
      190      190
      191      191        /*E* ERROR:XUX-E$XUX#NO_MORE_INPUT-4
      192      192             MESSAGE:Internal error:Unexpected end-of-input from *CONTINUATION_COMMAND.
      193      193                     Please report this in STARLOG.
      194      194        */
      195      195
      196      196        /*E* ERROR:XUX-E$XUX#SYNTAX_ERROR-2
      197      197             MESSAGE:Syntax error.  Alternatives at this point are:
      198      198        */
      199      199
      200      200        /*E* ERROR:XUX-E$XUX#INTERNAL_ERROR-4
      201      201             MESSAGE:Internal error: Problem in XUX$COMMON_OPTIONS.
      202      202                     Please report this in STARLOG.
      203      203        */
      204      204
      205      205        /*E* ERROR:XUX-E$XUX#TOO_MANY_BC_UNITS-2
      206      206             MESSAGE:More than 8 BC units were specified.
      207      207        */
      208      208        /*E* ERROR:XUX-E$XUX#BAD_BC-2
      209      209             MESSAGE:The BC unit %U1 specified is not between 1 and 131071.
      210      210        */
      211      211        /*E* ERROR:XUX-E$XUX#DUPE_BC-2
      212      212             MESSAGE:Duplicate BC unit number %U1 found.
      213      213        */
      214      214        /*E* ERROR:XUX-E$XUX#DUPE_OPTION-2
      215      215             MESSAGE:%U2 was found but %U1 was already specified.
      216      216        */
      217      217        /*E* ERROR:XUX-E$XUX#ILLEGAL_OPTION-2
      218      218             MESSAGE:The standard option %U1 is not valid for this processor.
      219      219        */
      220      220        /*E* ERROR:XUX-E$XUX#TOO_MANY_SRCH_ACCTS-2
      221      221             MESSAGE:More than %U1 accounts were listed in the SRCH option.
      222      222        */
PL6.E3A0      #001=XUX$MAIN File=XUX$COMMON_OPTIONS.:E05TSI                      WED 07/30/97 09:46 Page:7
      223      223        /*E* ERROR:XUX-E$XUX#BAD_SRCH_FID-2
      224      224             MESSAGE:"%U1" is not a valid SRCH account.
      225      225        */
      226      226        /*E* ERROR:XUX-E$XUX#CONFLICTING_DMAP_OPTS-2
      227      227             MESSAGE:Conflicting options for DMAP, NDMAP, MDMAP or NMDMAP.
      228      228        */
      229      229        /*E* ERROR:XUX-E$XUX#ILLEGAL_NSTD_OPT-4
      230      230             MESSAGE:Internal error: A non-standard option was found but
      231      231                     XUX$LEGAL_OPTIONS.NSTD was not set.
      232      232        */
      233      233        /*E* ERROR:XUX-E$XUX#BAD_PARSE_NODE-4
      234      234             MESSAGE:Internal error: Bad parse node #%U1 encountered.
      235      235        */
      236      236        /*E* ERROR:XUX-E$XUX#USER_ROUTINE_BUG-4
      237      237             MESSAGE:Internal error: The non-standard options user routine
      238      238                     ALTRETURNed indicating that it could not handle a
      239      239                     specified option.
      240      240        */
      241      241        /*E* ERROR:XUX-E$XUX#USER_ROUTINE_ALTRETURNED-2
      242      242             MESSAGE:The non-standard node handler ALTRETURNed.
      243      243             DESCRIPTION:This message will never be printed out by any XUX
      244      244                         routine. It is here only so that the user can test
      245      245                         XUX$PARAM.ERROR_CODE and handle these types of errors.
      246      246        */
      247      247        /*E* ERROR:XUX-E$XUX#BAD_INTERNAL_FID-4
      248      248             MESSAGE:Internal error: Bad internal FID for SRCH list.
      249      249                     Please report this in STARLOG.
      250      250        */
      251      251        /*E* ERROR:XUX-E$XUX#DMAP_SCHEMA_CONFLICT-2
      252      252        MESSAGE:NSCHEMA was requested with DMAP or MDMAP. MSCHEMA will be generated instead.
      253      253        */
      254      254
      255      255        /*E* ERROR:XUX-E$XUX#PMAP_SCHEMA_CONFLICT-2
      256      256        MESSAGE:NSCHEMA was requested with PMAP or MPMAP. MSCHEMA will be generated instead.
      257      257        */
      258      258        XUX$MAIN: PROC(P_PARAM) ALTRET;     /* Dummy main entry point */
      259      259
PL6.E3A0      #001=XUX$MAIN File=XUX$COMMON_OPTIONS.:E05TSI                      WED 07/30/97 09:46 Page:8
      260      260        %INCLUDE CP_6;
      261     5819        %INCLUDE U$JIT_C;
      262     6318        %INCLUDE XUX$INTERFACE_M;
      263     7095        %INCLUDE XU_PERR_C;
      264     7286
      265     7287        /*
      266     7288             PARAMETERS
      267     7289        */
      268     7290        %XUX$PARAM_NO_PARSE(NAME=P_PARAM,STCLASS=);
      269     7401
      270     7402        /*
      271     7403             System interfaces
      272     7404        */
      273     7405
      274     7406        %FPT_GETDCB(FPTN=GET_DCB,STCLASS=CONSTANT);
      275     7421        %FPT_RELDCB(FPTN=REL_DCB,STCLASS=CONSTANT);
      276     7435        %FPT_OPEN(FPTN=OPEN_CMD,ASN=FILE,FUN=IN,NAME=CONT_FILE,STCLASS=CONSTANT);
      277     7544        %FPT_READ(FPTN=READ_CMD,STCLASS=CONSTANT);
      278     7583
      279     7584        %VLP_NAME(FPTN=CONT_FILE,NAME='*CONTINUATION_COMMANDS',STCLASS=CONSTANT);
      280     7611
      281     7612        %FPT_CLOSE(FPTN=CLOSE_CMD,STCLASS=CONSTANT);
      282     7654
      283     7655        /*
      284     7656             System data structures
      285     7657        */
      286     7658
      287     7659        %B$TCB;
      288     7662        %B$ALT;
      289     7670
      290     7671    1   DCL B$TCB$ PTR SYMREF;
      291     7672    1   DCL B$JIT$ PTR SYMREF;
      292     7673
      293     7674        /*
      294     7675             Internal data
      295     7676        */
      296     7677
PL6.E3A0      #001=XUX$MAIN File=XUX$COMMON_OPTIONS.:E05TSI                      WED 07/30/97 09:46 Page:9
      297     7678    1   DCL 1 STATUS WALIGNED STATIC,
      298     7679    1         2 DONT_COME_BACK BIT(1) UNAL INIT('0'B),
      299     7680    1         2 NOT_CALLED BIT(1) UNAL INIT('1'B),
      300     7681    1         2 FIRST_TIME BIT(1) UNAL INIT('1'B),
      301     7682    1         2 * BIT(33) UNAL INIT ('0'B);
      302     7683
      303     7684    1   DCL  CONT_DCB#   UBIN WORD STATIC INIT(DCBNUM(NIL));
      304     7685    1   DCL  CONT_DCB$   PTR STATIC;
      305     7686        %F$DCB;
      306     7743
      307     7744        %VLP_ERRCODE(FPTN=XUX_ERR,FCG=XU,MID=X,STCLASS=CONSTANT);
      308     7789
      309     7790    1   DCL BUF CHAR(256) BASED;    /* P_PARAM.BUFFER_ will point here */
      310     7791
      311     7792    1   DCL RUNNING_ARS SBIN;
      312     7793    1   DCL I SBIN;
      313     7794
      314     7795        /*
      315     7796             Entries
      316     7797        */
      317     7798
      318     7799
      319     7800        %EJECT;
PL6.E3A0      #001=XUX$MAIN File=XUX$COMMON_OPTIONS.:E05TSI                      WED 07/30/97 09:46 Page:10
      320     7801    1   XUX$GETLINE: ENTRY(P_PARAM) ALTRET;
      321     7802    1       IF STATUS.DONT_COME_BACK
      322     7803    2       THEN DO;
      323     7804    2           P_PARAM.ERROR_CODE = XUX_ERR;
      324     7805    2           P_PARAM.ERROR_CODE.ERR# = %E$XUX#CANT_CALL_AGAIN;
      325     7806    2           ALTRETURN;
      326     7807    2       END;
      327     7808
      328     7809    1       IF P_PARAM.BUFFER_ = VECTOR(NIL)
      329     7810    2       THEN DO;
      330     7811    2           P_PARAM.ERROR_CODE = XUX_ERR;
      331     7812    2           P_PARAM.ERROR_CODE.ERR# = %E$XUX#BUFFER_IS_NIL;
      332     7813    2           STATUS.DONT_COME_BACK = '1'B;
      333     7814    2           ALTRETURN;
      334     7815    2       END;
      335     7816    1       IF STATUS.NOT_CALLED
      336     7817    1       THEN CALL INITIALIZE ALTRET(STD_ALTRET_CODE);
      337     7818
      338     7819    1       IF B$JIT.PRFLAGS.CONTINUED
      339     7820    2       THEN DO;
      340     7821
      341     7822        /*
      342     7823             The following code reads the next record from then
      343     7824             continuation file.  It is assumed that the file has been opened
      344     7825             by the initialization routine and that the DCB number has been
      345     7826             stuffed into the FPT for the read. If this winds up being the
      346     7827             EOF, then return with P_PARAM.CMD_COMPLETE set and indicate
      347     7828             internally that another call here is illegal. DCB cleanup will
      348     7829             occur in XUX$CLEANUP.
      349     7830        */
      350     7831
      351     7832    2           IF STATUS.FIRST_TIME
      352     7833    3           THEN DO;
      353     7834    3               CALL READ  ALTRET(STD_ALTRET_CODE);
      354     7835    3               RUNNING_ARS = CONT_DCB$->F$DCB.ARS#;
      355     7836    3               IF P_PARAM.DISP_ONLY#
      356     7837    4               THEN DO;
PL6.E3A0      #001=XUX$MAIN File=XUX$COMMON_OPTIONS.:E05TSI                      WED 07/30/97 09:46 Page:11
      357     7838    5                   DO WHILE RUNNING_ARS-1 < B$JIT.CCDISP;
      358     7839    5                       CALL READ ALTRET(STD_ALTRET_CODE);
      359     7840    5                       RUNNING_ARS = RUNNING_ARS+CONT_DCB$->F$DCB.ARS#;
      360     7841    5                   END;
      361     7842    4                   CALL INDEX(I,'(',SUBSTR(VBASE(P_PARAM.BUFFER_)->BUF,0,CONT_DCB$->
              7842                            F$DCB.ARS#));
      362     7843    4                   P_PARAM.CMD_LEN = CONT_DCB$->F$DCB.ARS#-I;
      363     7844    4                   SUBSTR(VBASE(P_PARAM.BUFFER_)->BUF,0,P_PARAM.CMD_LEN) = SUBSTR(VBASE
              7844                            (P_PARAM.BUFFER_)->BUF,I,P_PARAM.CMD_LEN);
      364     7845    4               END;
      365     7846    3               ELSE
      366     7847    3                   P_PARAM.CMD_LEN = B$JIT.CCDISP;
      367     7848
      368     7849    3               STATUS.FIRST_TIME = '0'B;
      369     7850    3           END;     /* Of first time only code */
      370     7851
      371     7852    3           ELSE DO;
      372     7853    3               CALL READ ALTRET(STD_ALTRET_CODE);
      373     7854    3               P_PARAM.CMD_LEN = CONT_DCB$->F$DCB.ARS#;
      374     7855    3           END;
      375     7856    2       END;   /* Of code for continued lines */
      376     7857
      377     7858    2       ELSE DO;
      378     7859
      379     7860
      380     7861    2           IF STATUS.FIRST_TIME
      381     7862    3           THEN DO;
      382     7863    3               IF P_PARAM.DISP_ONLY#
      383     7864    4               THEN DO;
      384     7865    4                   P_PARAM.CMD_LEN = B$JIT.CCARS-B$JIT.CCDISP;
      385     7866    4                   SUBSTR(VBASE(P_PARAM.BUFFER_)->BUF,0,P_PARAM.CMD_LEN) = SUBSTR(B$JIT
              7866                            .CCBUF,B$JIT.CCDISP,P_PARAM.CMD_LEN);
      386     7867    4               END;
      387     7868    4               ELSE DO;
      388     7869    4                   SUBSTR(VBASE(P_PARAM.BUFFER_)->BUF,0,B$JIT.CCARS) = B$JIT.CCBUF;
      389     7870    4                   P_PARAM.CMD_LEN = B$JIT.CCARS;
      390     7871    4               END;
PL6.E3A0      #001=XUX$MAIN File=XUX$COMMON_OPTIONS.:E05TSI                      WED 07/30/97 09:46 Page:12
      391     7872
      392     7873    3               STATUS.FIRST_TIME = '0'B;
      393     7874    3           END;
      394     7875
      395     7876    3           ELSE DO;
      396     7877    3               P_PARAM.CMD_COMPLETE = '1'B;
      397     7878    3               STATUS.DONT_COME_BACK = '1'B;
      398     7879    3               P_PARAM.CMD_LEN = 0;
      399     7880    3               ALTRETURN;
      400     7881    3           END;
      401     7882
      402     7883    2       END; /* Of non-continued stuff */
      403     7884
      404     7885    2       DO WHILE '0'B;
      405     7886    2   STD_ALTRET_CODE:
      406     7887    2           ALTRETURN;
      407     7888    2       END;
      408     7889
      409     7890        %EJECT;
PL6.E3A0      #001=XUX$MAIN File=XUX$COMMON_OPTIONS.:E05TSI                      WED 07/30/97 09:46 Page:13
      410     7891        /*
      411     7892             Internal routines for XUX$GETLINE
      412     7893        */
      413     7894
      414     7895
      415     7896        /*I*
      416     7897             NAME: INITIALIZE
      417     7898             PURPOSE:
      418     7899                  Performs initialization for XUX$GETLINE. Gets a dcb (if needed)
      419     7900                  and sets up some variables.
      420     7901             CALL:
      421     7902                  CALL INITIALIZE ALTRET;
      422     7903             PARAMETERS:
      423     7904                          Altret reason is returned in P_PARAM.ERROR_CODE.
      424     7905             DATA:
      425     7906                  B$JIT
      426     7907             DESCRIPTION:
      427     7908                 This module allocates a DCB to read the continuation file
      428     7909                 through if B$JIT.PRFLAGS.CONTINUED is set, and sets up a
      429     7910                 couple of useful variables.
      430     7911        */
      431     7912
      432     7913    1   INITIALIZE: PROC ALTRET;
      433     7914        %FPT_GETDCB(STCLASS=);
      434     7929        %FPT_OPEN(STCLASS=);
      435     8038
      436     8039    2       STATUS.FIRST_TIME = '1'B;
      437     8040    2       P_PARAM.CMD_COMPLETE = '0'B; /* In case the guy didn't do it himself */
      438     8041
      439     8042    2       STATUS.NOT_CALLED = '0'B;
      440     8043    2       IF B$JIT.PRFLAGS.CONTINUED
      441     8044    3       THEN DO;
      442     8045    3           FPT_GETDCB = GET_DCB;
      443     8046    3           FPT_GETDCB.V_ = VECTOR(FPT_GETDCB.V);
      444     8047
      445     8048    3           CALL M$GETDCB(FPT_GETDCB)
      446     8049    4           WHENALTRETURN DO;
PL6.E3A0      #001=XUX$MAIN File=XUX$COMMON_OPTIONS.:E05TSI                      WED 07/30/97 09:46 Page:14
      447     8050    4               P_PARAM.ERROR_CODE = B$TCB$->B$TCB.ALT$->B$ALT.ERR;
      448     8051    4               STATUS.DONT_COME_BACK = '1'B;
      449     8052    4               ALTRETURN;
      450     8053    4           END;
      451     8054
      452     8055    3           CONT_DCB# = FPT_GETDCB.V.DCB#;
      453     8056    3           CONT_DCB$ = DCBADDR(CONT_DCB#);
      454     8057    3           FPT_OPEN = OPEN_CMD;
      455     8058    3           FPT_OPEN.V_ = VECTOR(FPT_OPEN.V);
      456     8059    3           FPT_OPEN.V.DCB# = CONT_DCB#;
      457     8060    3           CALL M$OPEN(FPT_OPEN)
      458     8061    4           WHENALTRETURN DO;
      459     8062    4               P_PARAM.ERROR_CODE = B$TCB$->B$TCB.ALT$->B$ALT.ERR;
      460     8063    4               STATUS.DONT_COME_BACK = '1'B;
      461     8064    4               ALTRETURN;
      462     8065    4           END;
      463     8066    3       END;
      464     8067
      465     8068    2   END INITIALIZE;
      466     8069
      467     8070        %EJECT;
PL6.E3A0      #001=XUX$MAIN File=XUX$COMMON_OPTIONS.:E05TSI                      WED 07/30/97 09:46 Page:15
      468     8071        /*I*
      469     8072             NAME: READ
      470     8073             PURPOSE:
      471     8074                  Read a line from the continuation file.
      472     8075             CALL:
      473     8076                  CALL READ ALTRET;
      474     8077             PARAMETERS:
      475     8078                  On altreturn, error code is passed back in P_PARAM.ERROR_CODE.
      476     8079             DATA:
      477     8080                  P_PARAMS.BUFFER_
      478     8081                  CONT_DCB#
      479     8082             DESCRIPTION:
      480     8083                  This module will read a line from *CONTINUATION_COMMAND and
      481     8084                  return it in VBASE(P_BUFFER_)->BUF. Length will get pulled
      482     8085                  out in the calling routine, since on the first call we might have
      483     8086                  to get over to CCDISP. On EOF, the CMD_COMPLETE bit is set and
      484     8087                  the length is set to 0. Also the internal DONT_COME_BACK bit
      485     8088                  is set.
      486     8089        */
      487     8090    1   READ: PROC ALTRET;
      488     8091
      489     8092        %FPT_READ(STCLASS=);
      490     8131
      491     8132    2       FPT_READ = READ_CMD;
      492     8133    2       FPT_READ.V_ = VECTOR(FPT_READ.V);
      493     8134    2       FPT_READ.V.DCB# = CONT_DCB#;
      494     8135    2       FPT_READ.BUF_ = P_PARAM.BUFFER_;
      495     8136
      496     8137    2       CALL M$READ(FPT_READ)
      497     8138    3       WHENALTRETURN DO;
      498     8139    3           IF CONT_DCB$->F$DCB.TYC.EOF#
      499     8140    4           THEN DO;
      500     8141    4               P_PARAM.CMD_COMPLETE = '1'B;
      501     8142    4               P_PARAM.CMD_LEN     = 0;
      502     8143    4               STATUS.DONT_COME_BACK = '1'B;
      503     8144    4               ALTRETURN;
      504     8145    4           END;
PL6.E3A0      #001=XUX$MAIN File=XUX$COMMON_OPTIONS.:E05TSI                      WED 07/30/97 09:46 Page:16
      505     8146    4           ELSE DO;
      506     8147    4               P_PARAM.ERROR_CODE = B$TCB$->B$TCB.ALT$->B$ALT.ERR;
      507     8148    4               P_PARAM.CMD_LEN = 0;
      508     8149    4               STATUS.DONT_COME_BACK = '1'B;
      509     8150    4               ALTRETURN;
      510     8151    4           END;
      511     8152    3       END;
      512     8153
      513     8154    2   END READ;
      514     8155
      515     8156    1       RETURN;
      516     8157        %EJECT;
PL6.E3A0      #001=XUX$MAIN File=XUX$COMMON_OPTIONS.:E05TSI                      WED 07/30/97 09:46 Page:17
      517     8158        /*F*
      518     8159             NAME:  XUX$CLEANUP Service
      519     8160             ..::IT "Format:"
      520     8161                  CALL XUX$CLEANUP;
      521     8162             ..::IT "Parameters:"
      522     8163                  None
      523     8164             ..::IT "Description:"
      524     8165                  The XUX$CLEANUP service should be called after a
      525     8166                  complete command has been read via calls to XUX$GETLINE.
      526     8167                  This service makes it appear that XUX$GETLINE was never
      527     8168                  called.  This is useful if the command line needs to be
      528     8169                  re-read, for instance.
      529     8170             ..::IT "Error Conditions:"
      530     8171                  None.
      531     8172        */
      532     8173        /*D*
      533     8174             NAME: XUX$CLEANUP
      534     8175             CALL:
      535     8176                  CALL XUX$CLEANUP ;
      536     8177             INTERFACE:
      537     8178                  M$CLOSE
      538     8179                  M$RELDCB
      539     8180             SCRATCH:
      540     8181                  STATUS.NOT_CALLED
      541     8182                  STATUS.FIRST_TIME
      542     8183                  STATUS.DONT_COME_BACK
      543     8184             DESCRIPTION:
      544     8185                  This module gets called after all the continuation lines have
      545     8186                  been read in. It closes the continuation file and releases the
      546     8187                  DCB (if needed), and resets the status flags to make it appear
      547     8188                  that the routines have never been called.
      548     8189        */
      549     8190
      550     8191    1   XUX$CLEANUP: ENTRY ALTRET;
      551     8192
      552     8193    1       IF CONT_DCB# ~= DCBNUM(NIL)
      553     8194    2       THEN DO;
PL6.E3A0      #001=XUX$MAIN File=XUX$COMMON_OPTIONS.:E05TSI                      WED 07/30/97 09:46 Page:18
      554     8195    2           CALL CLOSE;
      555     8196    2           CALL RELEASE;
      556     8197    2       END;
      557     8198
      558     8199    1       STATUS.NOT_CALLED = '1'B;
      559     8200    1       STATUS.FIRST_TIME = '1'B;
      560     8201    1       STATUS.DONT_COME_BACK = '0'B;
      561     8202
      562     8203    1       RETURN;
      563     8204
      564     8205        /*I*
      565     8206             NAME: RELEASE
      566     8207             PURPOSE:
      567     8208                  Release the continuation file DCB, if needed.
      568     8209             CALL:
      569     8210                  CALL RELEASE;
      570     8211             DATA:
      571     8212                  CONT_DCB#
      572     8213             DESCRIPTION:
      573     8214                  Releases the continuation DCB.
      574     8215                  Monitor call altrets are ignored.
      575     8216        */
      576     8217    1   RELEASE: PROC;
      577     8218        %FPT_RELDCB(STCLASS=);
      578     8232
      579     8233    2       FPT_RELDCB = REL_DCB;
      580     8234    2       FPT_RELDCB.V_ = VECTOR(FPT_RELDCB.V);
      581     8235    2       FPT_RELDCB.V.DCB# = CONT_DCB#;
      582     8236
      583     8237    2       CALL M$RELDCB(FPT_RELDCB)
      584     8238    3       WHENALTRETURN DO;
      585     8239             /* NOTHING */
      586     8240    3       END;
      587     8241
      588     8242    2       CONT_DCB# = DCBNUM(NIL);
      589     8243    2       CONT_DCB$ = DCBADDR(DCBNUM(NIL));
      590     8244
PL6.E3A0      #001=XUX$MAIN File=XUX$COMMON_OPTIONS.:E05TSI                      WED 07/30/97 09:46 Page:19
      591     8245    2   END RELEASE;
      592     8246        /*I*
      593     8247             NAME: CLOSE
      594     8248             PURPOSE:
      595     8249                  Closes the continuation file.
      596     8250             CALL:
      597     8251                  CALL CLOSE;
      598     8252             DATA:
      599     8253                  CONT_DCB#
      600     8254             DESCRIPTION:
      601     8255                  Closes the continuation file.
      602     8256                  Monitor call ALTRETs are ignored.
      603     8257        */
      604     8258    1   CLOSE: PROC;
      605     8259
      606     8260        %FPT_CLOSE(STCLASS=);
      607     8302
      608     8303    2       FPT_CLOSE = CLOSE_CMD;
      609     8304    2       FPT_CLOSE.V_ = VECTOR(FPT_CLOSE.V);
      610     8305    2       FPT_CLOSE.V.DCB# = CONT_DCB#;
      611     8306
      612     8307    2       CALL M$CLOSE(FPT_CLOSE)
      613     8308    3       WHENALTRETURN DO;
      614     8309             /* NOTHING */
      615     8310    3       END;
      616     8311
      617     8312    2       RETURN;
      618     8313
      619     8314    2   END CLOSE;
      620     8315
      621     8316    1   END XUX$MAIN;
      622     8317        %EOD;

PL6.E3A0      #001=XUX$MAIN File=XUX$COMMON_OPTIONS.:E05TSI                      WED 07/30/97 09:46 Page:20
--  Include file information  --

   XU_PERR_C.:E05TOU  is referenced.
   XUX$INTERFACE_M.:E05TOU  is referenced.
   B$JIT_C.:E05TOU  is referenced.
   U$JIT_C.:E05TOU  cannot be made into a system file and is referenced.
   CP_6_C.:E05TOU  is referenced.
   CP_6.:E05TOU  cannot be made into a system file and is referenced.
      No diagnostics issued in procedure XUX$MAIN.

   Procedure XUX$MAIN requires 299 words for executable code.
   Procedure XUX$MAIN requires 76 words of local(AUTO) storage.

PL6.E3A0      #001=XUX$MAIN File=XUX$COMMON_OPTIONS.:E05TSI                      WED 07/30/97 09:46 Page:21

 Object Unit name= XUX$MAIN                                   File name= XUX$COMMON_OPTIONS.:E05TOU
 UTS= JUL 30 '97 09:46:15.88 WED                              Compiler= PL-6/E31         Sev=      00
 SharedLib= :SHARED_SYSTEM                                    Alt SharedLib=


    ****  Control sections  ****

 Sect   Type Bound  Init  Size OctSiz  Section name(segment info)
    0   DCB   even  none     0      0  M$UC
    1  RoData even  UTS    121    171  XUX$MAIN
    2   Data  even  none     3      3  XUX$MAIN
    3   Proc  even  none   299    453  XUX$MAIN
    4  RoData even  none    11     13  XUX$MAIN

    ****  Entry defs  ****

                              Check   Calling
                             calling  sequence
  Sect OctLoc Primary Altret sequence   type   Parms  Name
     3      0   yes    yes     yes      Std        1  XUX$MAIN
     3      3          yes     yes      Std        1  XUX$GETLINE
     3    363          yes     yes      Std        0  XUX$CLEANUP

  ****  Entry refs  ****

         Check        Calling
        calling       sequence
Altret sequence SRef   type   Args  Name
                       nStd      0 X66_AUTO_1
                       nStd      0 X66_AALT
                       nStd      0 X66_ARET
                       Std       0 B_CONSPOOL_D
PL6.E3A0      #001=XUX$MAIN File=XUX$COMMON_OPTIONS.:E05TSI                      WED 07/30/97 09:46 Page:22

  ****  Data refs  ****

  Flags:  r = read only, s = secondary
Flgs Name                             Flgs Name                             Flgs Name
     M$UC                                  B$TCB$                                B$JIT$
     B_VECTNIL

  ****  Segment refs  ****

  Flags:  r = read only, s = secondary
Flgs Name                             Flgs Name                             Flgs Name
     ISSID                                 NULLSID                               ROSID
PL6.E3A0      #001=XUX$MAIN File=XUX$COMMON_OPTIONS.:E05TSI                      WED 07/30/97 09:46 Page:23


        1        1        /*M* XUX$COMMON_OPTIONS - The common options parser routines */
        2        2        /*T***********************************************************/
        3        3        /*T*                                                         */
        4        4        /*T* Copyright (c) Bull HN Information Systems Inc., 1997    */
        5        5        /*T*                                                         */
        6        6        /*T***********************************************************/
        7        7        /*X* DMC,PLM=4,IND=4,CTI=2,DTI=0,ENI=0,ECI=0,CSI=0,MCI,DCI=4 */
        8        8        /*P*
        9        9             NAME: XUX$COMMON_OPTIONS
       10       10             PURPOSE:
       11       11                  The common options parser is designed to read and optionally
       12       12                  parse command lines.
       13       13             DESCRIPTION:
       14       14                  The common options parser can be used to read command lines and
       15       15                  (if present) contination lines from *CONTINUED_COMMAND and
       16       16                  optionally parse them according to the CP-6 standard options.
       17       17                  Provision is made for non-standard options.
       18       18             REFERENCE:
       19       19                  See AF# 0765A-0
       20       20        */
       21       21        /*F*
       22       22             NAME:  XUX:  Processor Invocation Services
       23       23             ..::L1 "XUX Services\XUX\1"
       24       24             ..VA$M_FOOTER "\XUX Services"
       25       25                  The XUX services facilitate reading and parsing of a
       26       26                  processor invocation command.  The services can be used in
       27       27                  two ways:
       28       28                  ..::IX "processor invocation"
       29       29                  ..::IX "command, processor invocation"
       30       30                  ..::IX "parsing, processor invocation command"
       31       31                  ..::IX "options, processor invocation"
       32       32
       33       33                  o  The command line options are parsed using X$PARSE and a
       34       34                  data structure is returned to the caller indicating which of
       35       35                  the standard command line options were found, as well as any
       36       36                  non-standard options found.  This function is performed by
PL6.E3A0      #001=XUX$MAIN File=XUX$COMMON_OPTIONS.:E05TSI                      WED 07/30/97 09:46 Page:24
       37       37                  calling the XUX$COMMON_OPTIONS service.
       38       38                  ..::IX "command line options, standard"
       39       39                  ..::IX "command line options, non-standard"
       40       40
       41       41                  o  The command lines found are returned to the calling
       42       42                  routine.  Continuation lines are automatically retrieved.
       43       43                  No parsing is performed.  This function is performed by
       44       44                  calling the XUX$GETLINE service for each line.  The
       45       45                  XUX$CLEANUP service must be called after reading a command.
       46       46
       47       47                        ..::HL "The XUX services are summarized in Table 15-1."
       48       48                        ..::HL "\For a brief description of each service, type"
       49       49                        ..::HL "\.spf"
       50       50                        ..::HL "\!HELP (HOSTLIB) XUX service"
       51       51                        ..::HL "\.spb"
       52       52                        ..::HL "\service may be XUX$CLEANUP, XUX$COMMON_OPTIONS, or "
       53       53                        ..::HL "\XUX$GETLINE."
       54       54                        ..::TB "XUX Service Summary\Service\#3\Description\#"
       55       55                        ..::IT "XUX$CLEANUP"
       56       56                        Performs internal housekeeping; required after a complete
       57       57                        command has been read via calls to XUX$GETLINE.
       58       58                        ..::IT "XUX$COMMON_OPTIONS"
       59       59                        Retrieves and parses a complete processor invocation
       60       60                        command.  Can parse the standard form of the processor
       61       61                        invocation, and, with user-supplied parse nodes, can parse
       62       62                        non-standard processor invocations.
       63       63                        ..::IT "XUX$GETLINE"
       64       64                        Facilitates reading command line options, but performs no
       65       65                        parsing.
       66       66                        ..::TB
       67       67        */
       68       68        /*F*
       69       69             NAME:  XUX_INCLUDE Files
       70       70             All of the INCLUDE files necessary to make use of the XUX services are
       71       71             located in the :LIBRARY account.  They are all PL-6 INCLUDE files
       72       72             and contain MACRO definitions and EQUs which are used to initialize
       73       73             interface to the services (see Table 14-1).
PL6.E3A0      #001=XUX$MAIN File=XUX$COMMON_OPTIONS.:E05TSI                      WED 07/30/97 09:46 Page:25
       74       74             ..::TB "XUX Include Files\File\#11\Contents\#"
       75       75             ..::IT "XUX$INTERFACE_M"
       76       76             Macros for use with XUX services.
       77       77             ..::IT "XUX_ENTRY_M"
       78       78             Entry DCLs for entry points to the XUX services.
       79       79             ..::IT "XU_PERR_C"
       80       80             EQUs for all XUX service error messages.  Any EQUs of the form
       81       81             E$XUX#? are found in this file.
       82       82             ..::TB
       83       83        */
       84       84        /*F*
       85       85             NAME:  XUX$GETLINE Service
       86       86             ..::IT "Format:"
       87       87                  CALL XUX$GETLINE (name) ALTRET (label);
       88       88             ..::IT "Parameters:"
       89       89                  name^^^^can be generated by invoking the
       90       90                  macro %XUX$PARAM_NO_PARSE.
       91       91             ..::IT "Description:"
       92       92                  The XUX$GETLINE service retrieves a command line.
       93       93                  XUX$GETLINE can be called and re-called to obtain a
       94       94                  multi-line command; it obtains
       95       95                  continuation lines from the *CONTINUATION_COMMANDS file, if
       96       96                  they are present.  The caller may choose to receive the
       97       97                  entire command by default, or only the portion from
       98       98                  B$JIT.CCDISP on (i.e., starting at the processor options)
       99       99                  by setting XUX$PARAM_NO_PARSE.DISP_ONLY.
      100      100                  ..::IX "*CONTINUATION_COMMANDS file"
      101      101                  ..::IX "command, multi-line (processor invocation)"
      102      102                  ..::IX "multi-line command (processor invocation)"
      103      103
      104      104                  After a call to XUX$GETLINE, either the buffer framed by
      105      105                  XUX$PARAM_NO_PARSE.BUFFER_ contains a line of the command
      106      106                  with the length set in CMD_LEN, or
      107      107                  XUX$PARAM_NO_PARSE.CMD_COMPLETE is set indicating that
      108      108                  there is no command line left to return.  (It is illegal
      109      109                  to call XUX$GETLINE after CMD_COMPLETE is set.  The user
      110      110                  must first call XUX$CLEANUP before program termination
PL6.E3A0      #001=XUX$MAIN File=XUX$COMMON_OPTIONS.:E05TSI                      WED 07/30/97 09:46 Page:26
      111      111                  or before attempting to re-read or re-parse the command.)
      112      112                  ..::IT "Error Conditions:"
      113      113                  If an error occurs, XUX$GETLINE ALTRETurns with
      114      114                  the error code set in XUX$PARAM_NO_PARSE.ERROR_CODE.
      115      115        */
      116      116        /*D*
      117      117             NAME: XUX$GETLINE
      118      118             CALL:
      119      119                  CALL XUX$GETLINE(PARAM_NO_PARSE) ALTRET;
      120      120             PARAMETERS:
      121      121                  PARAM_NO_PARSE is defined by the macro PARAM_NO_PARSE.
      122      122             INPUT:
      123      123                  B$JIT.CCBUF
      124      124                  *CONTINUATION_COMMAND  (if continued commands are present)
      125      125             DESCRIPTION:
      126      126                  On the first call to this routine, a DCB is allocated to
      127      127                  read *CONTINUATION_COMMAND if B$JIT.CONTINUED is set.  This
      128      128                  will be used for subsequent calls to read the continued lines
      129      129                  from.  If PARAM_NO_PARSE.DISP_ONLY is set, then only the portion
      130      130                  of the command line from B$JIT.CCDISP on (including any
      131      131                  continued lines).  Subsequent calls will return the continued
      132      132                  lines (if any) until XUX$CMD_COMPLETE gets set, indicating that
      133      133                  there is no more command input. If a call occurs after that
      134      134                  without an intervening call to XUX$CLEANUP, then an ALTRETURN
      135      135                  will occur.
      136      136        */
      137      137
      138      138        /*E*
      139      139             ERROR:   XUX-E$XUX#CANT_CALL_AGAIN-4
      140      140             MESSAGE: This call to XUX$GETLINE is illegal because of either a
      141      141                      previous error condition or a previous EOF condition.
      142      142             DESCRIPTION: XUX$GETLINE was called after EOF (or end of options
      143      143                          on B$JIT.CCBUF) or an error occurred without calling
      144      144                          XUX$CLEANUP in between.
      145      145        */
      146      146
      147      147
PL6.E3A0      #001=XUX$MAIN File=XUX$COMMON_OPTIONS.:E05TSI                      WED 07/30/97 09:46 Page:27
      148      148        /*E*
      149      149             ERROR:   XUX-E$XUX#BUFFER_IS_NIL-4
      150      150             MESSAGE: No buffer was specified on a call to XUX$GETLINE.
      151      151        */
      152      152
      153      153        /*E* ERROR:XUX-E$XUX#NO_PARAM_SPECIFIED-4
      154      154             MESSAGE:Internal error: XUX$COMMON_OPTIONS was called with no parameters.
      155      155        */
      156      156
      157      157        /*E* ERROR:XUX-E$XUX#MUST_HAVE_LEGAL_OPTIONS-4
      158      158             MESSAGE:Internal error: No XUX$LEGAL_OPTIONS specified.
      159      159        */
      160      160
      161      161        /*E* ERROR:XUX-E$XUX#MUST_HAVE_STD_OPTIONS-4
      162      162             MESSAGE:Internal error: No XUX$STD_OPTIONS specified.
      163      163        */
      164      164
      165      165        /*E* ERROR:XUX-E$XUX#NO_BC_STRUCT-4
      166      166             MESSAGE:Internal error: No XUX$BC_UNIT structure specified.
      167      167        */
      168      168
      169      169        /*E* ERROR:XUX-E$XUX#NO_SRCH_LIST_STRUCT-4
      170      170             MESSAGE:Internal error: No XUX$SRCH_LIST structure specified.
      171      171        */
      172      172
      173      173        /*E* ERROR:XUX-E$XUX#NO_USER_ROUTINE-4
      174      174             MESSAGE:Internal error: Non-standard options have been allowed but
      175      175                     no user routine has been provided.
      176      176        */
      177      177
      178      178        /*E* ERROR:XUX-E$XUX#ILLEGAL_DCB_FOUND-2
      179      179             MESSAGE:A DCB was specified in the %U1 position, but is not legal
      180      180                     for this processor.
      181      181        */
      182      182
      183      183        /*E* ERROR:XUX-E$XUX#CANT_GET_MEM-4
      184      184             MESSAGE:Unable to allocate enough memory to process command line options.
PL6.E3A0      #001=XUX$MAIN File=XUX$COMMON_OPTIONS.:E05TSI                      WED 07/30/97 09:46 Page:28
      185      185        */
      186      186
      187      187        /*E* ERROR:XUX-E$XUX#NO_MORE_BUFFER-4
      188      188             MESSAGE:The command line options specified were too long to process.
      189      189        */
      190      190
      191      191        /*E* ERROR:XUX-E$XUX#NO_MORE_INPUT-4
      192      192             MESSAGE:Internal error:Unexpected end-of-input from *CONTINUATION_COMMAND.
      193      193                     Please report this in STARLOG.
      194      194        */
      195      195
      196      196        /*E* ERROR:XUX-E$XUX#SYNTAX_ERROR-2
      197      197             MESSAGE:Syntax error.  Alternatives at this point are:
      198      198        */
      199      199
      200      200        /*E* ERROR:XUX-E$XUX#INTERNAL_ERROR-4
      201      201             MESSAGE:Internal error: Problem in XUX$COMMON_OPTIONS.
      202      202                     Please report this in STARLOG.
      203      203        */
      204      204
      205      205        /*E* ERROR:XUX-E$XUX#TOO_MANY_BC_UNITS-2
      206      206             MESSAGE:More than 8 BC units were specified.
      207      207        */
      208      208        /*E* ERROR:XUX-E$XUX#BAD_BC-2
      209      209             MESSAGE:The BC unit %U1 specified is not between 1 and 131071.
      210      210        */
      211      211        /*E* ERROR:XUX-E$XUX#DUPE_BC-2
      212      212             MESSAGE:Duplicate BC unit number %U1 found.
      213      213        */
      214      214        /*E* ERROR:XUX-E$XUX#DUPE_OPTION-2
      215      215             MESSAGE:%U2 was found but %U1 was already specified.
      216      216        */
      217      217        /*E* ERROR:XUX-E$XUX#ILLEGAL_OPTION-2
      218      218             MESSAGE:The standard option %U1 is not valid for this processor.
      219      219        */
      220      220        /*E* ERROR:XUX-E$XUX#TOO_MANY_SRCH_ACCTS-2
      221      221             MESSAGE:More than %U1 accounts were listed in the SRCH option.
PL6.E3A0      #001=XUX$MAIN File=XUX$COMMON_OPTIONS.:E05TSI                      WED 07/30/97 09:46 Page:29
      222      222        */
      223      223        /*E* ERROR:XUX-E$XUX#BAD_SRCH_FID-2
      224      224             MESSAGE:"%U1" is not a valid SRCH account.
      225      225        */
      226      226        /*E* ERROR:XUX-E$XUX#CONFLICTING_DMAP_OPTS-2
      227      227             MESSAGE:Conflicting options for DMAP, NDMAP, MDMAP or NMDMAP.
      228      228        */
      229      229        /*E* ERROR:XUX-E$XUX#ILLEGAL_NSTD_OPT-4
      230      230             MESSAGE:Internal error: A non-standard option was found but
      231      231                     XUX$LEGAL_OPTIONS.NSTD was not set.
      232      232        */
      233      233        /*E* ERROR:XUX-E$XUX#BAD_PARSE_NODE-4
      234      234             MESSAGE:Internal error: Bad parse node #%U1 encountered.
      235      235        */
      236      236        /*E* ERROR:XUX-E$XUX#USER_ROUTINE_BUG-4
      237      237             MESSAGE:Internal error: The non-standard options user routine
      238      238                     ALTRETURNed indicating that it could not handle a
      239      239                     specified option.
      240      240        */
      241      241        /*E* ERROR:XUX-E$XUX#USER_ROUTINE_ALTRETURNED-2
      242      242             MESSAGE:The non-standard node handler ALTRETURNed.
      243      243             DESCRIPTION:This message will never be printed out by any XUX
      244      244                         routine. It is here only so that the user can test
      245      245                         XUX$PARAM.ERROR_CODE and handle these types of errors.
      246      246        */
      247      247        /*E* ERROR:XUX-E$XUX#BAD_INTERNAL_FID-4
      248      248             MESSAGE:Internal error: Bad internal FID for SRCH list.
      249      249                     Please report this in STARLOG.
      250      250        */
      251      251        /*E* ERROR:XUX-E$XUX#DMAP_SCHEMA_CONFLICT-2
      252      252       MESSAGE:NSCHEMA was requested with DMAP or MDMAP. MSCHEMA will be generated instead.
      253      253        */
      254      254
      255      255        /*E* ERROR:XUX-E$XUX#PMAP_SCHEMA_CONFLICT-2
      256      256       MESSAGE:NSCHEMA was requested with PMAP or MPMAP. MSCHEMA will be generated instead.
      257      257        */
      258      258        XUX$MAIN: PROC(P_PARAM) ALTRET;     /* Dummy main entry point */
PL6.E3A0      #001=XUX$MAIN File=XUX$COMMON_OPTIONS.:E05TSI                      WED 07/30/97 09:46 Page:30

    258  3 000000   000000 700200 xent  XUX$MAIN     TSX0  ! X66_AUTO_1
         3 000001   000114 000001                    ZERO    76,1
         3 000002   000005 710000 3                  TRA     s:7802

      259      259
      260      260        %INCLUDE CP_6;
      261     5819        %INCLUDE U$JIT_C;
      262     6318        %INCLUDE XUX$INTERFACE_M;
      263     7095        %INCLUDE XU_PERR_C;
      264     7286
      265     7287        /*
      266     7288             PARAMETERS
      267     7289        */
      268     7290        %XUX$PARAM_NO_PARSE(NAME=P_PARAM,STCLASS=);
      269     7401
      270     7402        /*
      271     7403             System interfaces
      272     7404        */
      273     7405
      274     7406        %FPT_GETDCB(FPTN=GET_DCB,STCLASS=CONSTANT);
      275     7421        %FPT_RELDCB(FPTN=REL_DCB,STCLASS=CONSTANT);
      276     7435        %FPT_OPEN(FPTN=OPEN_CMD,ASN=FILE,FUN=IN,NAME=CONT_FILE,STCLASS=CONSTANT);
      277     7544        %FPT_READ(FPTN=READ_CMD,STCLASS=CONSTANT);
      278     7583
      279     7584        %VLP_NAME(FPTN=CONT_FILE,NAME='*CONTINUATION_COMMANDS',STCLASS=CONSTANT);
      280     7611
      281     7612        %FPT_CLOSE(FPTN=CLOSE_CMD,STCLASS=CONSTANT);
      282     7654
      283     7655        /*
      284     7656             System data structures
      285     7657        */
      286     7658
      287     7659        %B$TCB;
      288     7662        %B$ALT;
      289     7670
      290     7671    1   DCL B$TCB$ PTR SYMREF;
PL6.E3A0      #001=XUX$MAIN File=XUX$COMMON_OPTIONS.:E05TSI                      WED 07/30/97 09:46 Page:31
      291     7672    1   DCL B$JIT$ PTR SYMREF;
      292     7673
      293     7674        /*
      294     7675             Internal data
      295     7676        */
      296     7677
      297     7678    1   DCL 1 STATUS WALIGNED STATIC,
      298     7679    1         2 DONT_COME_BACK BIT(1) UNAL INIT('0'B),
      299     7680    1         2 NOT_CALLED BIT(1) UNAL INIT('1'B),
      300     7681    1         2 FIRST_TIME BIT(1) UNAL INIT('1'B),
      301     7682    1         2 * BIT(33) UNAL INIT ('0'B);
      302     7683
      303     7684    1   DCL  CONT_DCB#   UBIN WORD STATIC INIT(DCBNUM(NIL));
      304     7685    1   DCL  CONT_DCB$   PTR STATIC;
      305     7686        %F$DCB;
      306     7743
      307     7744        %VLP_ERRCODE(FPTN=XUX_ERR,FCG=XU,MID=X,STCLASS=CONSTANT);
      308     7789
      309     7790    1   DCL BUF CHAR(256) BASED;    /* P_PARAM.BUFFER_ will point here */
      310     7791
      311     7792    1   DCL RUNNING_ARS SBIN;
      312     7793    1   DCL I SBIN;
      313     7794
      314     7795        /*
      315     7796             Entries
      316     7797        */
      317     7798
      318     7799
      319     7800        %EJECT;
PL6.E3A0      #001=XUX$MAIN File=XUX$COMMON_OPTIONS.:E05TSI                      WED 07/30/97 09:46 Page:32
      320     7801    1   XUX$GETLINE: ENTRY(P_PARAM) ALTRET;

   7801  3 000003   000000 700200 xent  XUX$GETLINE  TSX0  ! X66_AUTO_1
         3 000004   000114 000001                    ZERO    76,1

      321     7802    1       IF STATUS.DONT_COME_BACK

   7802  3 000005   000000 234000 2                  SZN     STATUS
         3 000006   000016 605000 3                  TPL     s:7809

      322     7803    2       THEN DO;

      323     7804    2           P_PARAM.ERROR_CODE = XUX_ERR;

   7804  3 000007   000170 236000 1                  LDQ     XUX_ERR
         3 000010   200003 470500                    LDP0    @P_PARAM,,AUTO
         3 000011   000003 756100                    STQ     3,,PR0

      324     7805    2           P_PARAM.ERROR_CODE.ERR# = %E$XUX#CANT_CALL_AGAIN;

   7805  3 000012   000000 376000 4                  ANQ     0
         3 000013   012750 276007                    ORQ     5608,DL
         3 000014   000003 756100                    STQ     3,,PR0

      325     7806    2           ALTRETURN;

   7806  3 000015   000000 702200 xent               TSX2  ! X66_AALT

      326     7807    2       END;
      327     7808
      328     7809    1       IF P_PARAM.BUFFER_ = VECTOR(NIL)

   7809  3 000016   200003 470500                    LDP0    @P_PARAM,,AUTO
         3 000017   000000 237100                    LDAQ    0,,PR0
         3 000020   000002 117000 4                  CMPAQ   2
         3 000021   000032 601000 3                  TNZ     s:7816

PL6.E3A0      #001=XUX$MAIN File=XUX$COMMON_OPTIONS.:E05TSI                      WED 07/30/97 09:46 Page:33
      329     7810    2       THEN DO;

      330     7811    2           P_PARAM.ERROR_CODE = XUX_ERR;

   7811  3 000022   000170 236000 1                  LDQ     XUX_ERR
         3 000023   000003 756100                    STQ     3,,PR0

      331     7812    2           P_PARAM.ERROR_CODE.ERR# = %E$XUX#BUFFER_IS_NIL;

   7812  3 000024   000000 376000 4                  ANQ     0
         3 000025   012760 276007                    ORQ     5616,DL
         3 000026   000003 756100                    STQ     3,,PR0

      332     7813    2           STATUS.DONT_COME_BACK = '1'B;

   7813  3 000027   400000 236003                    LDQ     -131072,DU
         3 000030   000000 256000 2                  ORSQ    STATUS

      333     7814    2           ALTRETURN;

   7814  3 000031   000000 702200 xent               TSX2  ! X66_AALT

      334     7815    2       END;
      335     7816    1       IF STATUS.NOT_CALLED

   7816  3 000032   000000 236000 2                  LDQ     STATUS
         3 000033   200000 316003                    CANQ    65536,DU
         3 000034   000037 600000 3                  TZE     s:7819

      336     7817    1       THEN CALL INITIALIZE ALTRET(STD_ALTRET_CODE);

   7817  3 000035   000205 701000 3                  TSX1    INITIALIZE
         3 000036   000203 702000 3                  TSX2    STD_ALTRET_CODE

      337     7818
      338     7819    1       IF B$JIT.PRFLAGS.CONTINUED

PL6.E3A0      #001=XUX$MAIN File=XUX$COMMON_OPTIONS.:E05TSI                      WED 07/30/97 09:46 Page:34
   7819  3 000037   000000 470400 xsym               LDP0    B$JIT$
         3 000040   000030 430100                    FSZN    24,,PR0
         3 000041   000130 605000 3                  TPL     s:7861

      339     7820    2       THEN DO;

      340     7821
      341     7822        /*
      342     7823             The following code reads the next record from then
      343     7824             continuation file.  It is assumed that the file has been opened
      344     7825             by the initialization routine and that the DCB number has been
      345     7826             stuffed into the FPT for the read. If this winds up being the
      346     7827             EOF, then return with P_PARAM.CMD_COMPLETE set and indicate
      347     7828             internally that another call here is illegal. DCB cleanup will
      348     7829             occur in XUX$CLEANUP.
      349     7830        */
      350     7831
      351     7832    2           IF STATUS.FIRST_TIME

   7832  3 000042   000000 236000 2                  LDQ     STATUS
         3 000043   100000 316003                    CANQ    32768,DU
         3 000044   000121 600000 3                  TZE     s:7853

      352     7833    3           THEN DO;

      353     7834    3               CALL READ  ALTRET(STD_ALTRET_CODE);

   7834  3 000045   000306 701000 3                  TSX1    READ
         3 000046   000203 702000 3                  TSX2    STD_ALTRET_CODE

      354     7835    3               RUNNING_ARS = CONT_DCB$->F$DCB.ARS#;

   7835  3 000047   000002 470400 2                  LDP0    CONT_DCB$
         3 000050   000000 235100                    LDA     0,,PR0
         3 000051   200004 755100                    STA     RUNNING_ARS,,AUTO

      355     7836    3               IF P_PARAM.DISP_ONLY#
PL6.E3A0      #001=XUX$MAIN File=XUX$COMMON_OPTIONS.:E05TSI                      WED 07/30/97 09:46 Page:35

   7836  3 000052   200003 471500                    LDP1    @P_PARAM,,AUTO
         3 000053   100005 234100                    SZN     5,,PR1
         3 000054   000113 605000 3                  TPL     s:7847

      356     7837    4               THEN DO;

      357     7838    5                   DO WHILE RUNNING_ARS-1 < B$JIT.CCDISP;

   7838  3 000055   000064 710000 3                  TRA     s:7841

      358     7839    5                       CALL READ ALTRET(STD_ALTRET_CODE);

   7839  3 000056   000306 701000 3                  TSX1    READ
         3 000057   000203 702000 3                  TSX2    STD_ALTRET_CODE

      359     7840    5                       RUNNING_ARS = RUNNING_ARS+CONT_DCB$->F$DCB.ARS#;

   7840  3 000060   000002 470400 2                  LDP0    CONT_DCB$
         3 000061   200004 236100                    LDQ     RUNNING_ARS,,AUTO
         3 000062   000000 036100                    ADLQ    0,,PR0
         3 000063   200004 756100                    STQ     RUNNING_ARS,,AUTO

      360     7841    5                   END;

   7841  3 000064   000000 471400 xsym               LDP1    B$JIT$
         3 000065   100032 236100                    LDQ     26,,PR1
         3 000066   000022 736000                    QLS     18
         3 000067   000022 732000                    QRS     18
         3 000070   200004 116100                    CMPQ    RUNNING_ARS,,AUTO
         3 000071   000056 605000 3                  TPL     s:7839

      361     7842    4                   CALL INDEX(I,'(',SUBSTR(VBASE(P_PARAM.BUFFER_)->BUF,0,CONT_DCB$->
              7842                            F$DCB.ARS#));

   7842  3 000072   200003 473500                    LDP3    @P_PARAM,,AUTO
         3 000073   300001 474500                    LDP4    1,,PR3
PL6.E3A0      #001=XUX$MAIN File=XUX$COMMON_OPTIONS.:E05TSI                      WED 07/30/97 09:46 Page:36
         3 000074   000000 720100                    LXL0    0,,PR0
         3 000075   000000 124540                    SCM     mask='000'O
         3 000076   400000 000010                    ADSC9   0,,PR4                   cn=0,n=*X0
         3 000077   000001 000001 4                  ADSC9   1                        cn=0,n=1
         3 000100   200005 000100                    ARG     I,,AUTO

      362     7843    4                   P_PARAM.CMD_LEN = CONT_DCB$->F$DCB.ARS#-I;

   7843  3 000101   000000 236100                    LDQ     0,,PR0
         3 000102   200005 136100                    SBLQ    I,,AUTO
         3 000103   000000 620006                    EAX0    0,QL
         3 000104   300002 740100                    STX0    2,,PR3

      363     7844    4                  SUBSTR(VBASE(P_PARAM.BUFFER_)->BUF,0,P_PARAM.CMD_LEN) = SUBSTR(VBASE
              7844                            (P_PARAM.BUFFER_)->BUF,I,P_PARAM.CMD_LEN);

   7844  3 000105   300002 221100                    LDX1    2,,PR3
         3 000106   200005 235100                    LDA     I,,AUTO
         3 000107   040140 100545                    MLR     fill='040'O
         3 000110   400000 000011                    ADSC9   0,A,PR4                  cn=0,n=*X1
         3 000111   400000 000010                    ADSC9   0,,PR4                   cn=0,n=*X0

      364     7845    4               END;

   7845  3 000112   000116 710000 3                  TRA     s:7849

      365     7846    3               ELSE
      366     7847    3                   P_PARAM.CMD_LEN = B$JIT.CCDISP;

   7847  3 000113   000000 473400 xsym               LDP3    B$JIT$
         3 000114   300032 720100                    LXL0    26,,PR3
         3 000115   100002 740100                    STX0    2,,PR1

      367     7848
      368     7849    3               STATUS.FIRST_TIME = '0'B;

   7849  3 000116   000004 236000 4                  LDQ     4
PL6.E3A0      #001=XUX$MAIN File=XUX$COMMON_OPTIONS.:E05TSI                      WED 07/30/97 09:46 Page:37
         3 000117   000000 356000 2                  ANSQ    STATUS

      369     7850    3           END;     /* Of first time only code */

   7850  3 000120   000202 710000 3                  TRA     s:7885

      370     7851
      371     7852    3           ELSE DO;

      372     7853    3               CALL READ ALTRET(STD_ALTRET_CODE);

   7853  3 000121   000306 701000 3                  TSX1    READ
         3 000122   000203 702000 3                  TSX2    STD_ALTRET_CODE

      373     7854    3               P_PARAM.CMD_LEN = CONT_DCB$->F$DCB.ARS#;

   7854  3 000123   000002 470400 2                  LDP0    CONT_DCB$
         3 000124   000000 720100                    LXL0    0,,PR0
         3 000125   200003 471500                    LDP1    @P_PARAM,,AUTO
         3 000126   100002 740100                    STX0    2,,PR1

      374     7855    3           END;

      375     7856    2       END;   /* Of code for continued lines */

   7856  3 000127   000202 710000 3                  TRA     s:7885

      376     7857
      377     7858    2       ELSE DO;

      378     7859
      379     7860
      380     7861    2           IF STATUS.FIRST_TIME

   7861  3 000130   000000 236000 2                  LDQ     STATUS
         3 000131   100000 316003                    CANQ    32768,DU
         3 000132   000173 600000 3                  TZE     s:7877
PL6.E3A0      #001=XUX$MAIN File=XUX$COMMON_OPTIONS.:E05TSI                      WED 07/30/97 09:46 Page:38

      381     7862    3           THEN DO;

      382     7863    3               IF P_PARAM.DISP_ONLY#

   7863  3 000133   200003 471500                    LDP1    @P_PARAM,,AUTO
         3 000134   100005 234100                    SZN     5,,PR1
         3 000135   000160 605000 3                  TPL     s:7869

      383     7864    4               THEN DO;

      384     7865    4                   P_PARAM.CMD_LEN = B$JIT.CCARS-B$JIT.CCDISP;

   7865  3 000136   000032 236100                    LDQ     26,,PR0
         3 000137   000022 736000                    QLS     18
         3 000140   000022 732000                    QRS     18
         3 000141   200112 756100                    STQ     FPT_OPEN+58,,AUTO
         3 000142   000032 236100                    LDQ     26,,PR0
         3 000143   000022 732000                    QRS     18
         3 000144   200112 136100                    SBLQ    FPT_OPEN+58,,AUTO
         3 000145   000000 620006                    EAX0    0,QL
         3 000146   100002 740100                    STX0    2,,PR1

      385     7866    4                  SUBSTR(VBASE(P_PARAM.BUFFER_)->BUF,0,P_PARAM.CMD_LEN) = SUBSTR(B$JIT
              7866                            .CCBUF,B$JIT.CCDISP,P_PARAM.CMD_LEN);

   7866  3 000147   100001 473500                    LDP3    1,,PR1
         3 000150   000032 236100                    LDQ     26,,PR0
         3 000151   000022 736000                    QLS     18
         3 000152   000022 732000                    QRS     18
         3 000153   100002 221100                    LDX1    2,,PR1
         3 000154   040140 100546                    MLR     fill='040'O
         3 000155   000033 000011                    ADSC9   27,Q,PR0                 cn=0,n=*X1
         3 000156   300000 000010                    ADSC9   0,,PR3                   cn=0,n=*X0

      386     7867    4               END;

PL6.E3A0      #001=XUX$MAIN File=XUX$COMMON_OPTIONS.:E05TSI                      WED 07/30/97 09:46 Page:39
   7867  3 000157   000170 710000 3                  TRA     s:7873

      387     7868    4               ELSE DO;

      388     7869    4                   SUBSTR(VBASE(P_PARAM.BUFFER_)->BUF,0,B$JIT.CCARS) = B$JIT.CCBUF;

   7869  3 000160   100001 473500                    LDP3    1,,PR1
         3 000161   000032 220100                    LDX0    26,,PR0
         3 000162   040140 100500                    MLR     fill='040'O
         3 000163   000033 000400                    ADSC9   27,,PR0                  cn=0,n=256
         3 000164   300000 000010                    ADSC9   0,,PR3                   cn=0,n=*X0

      389     7870    4                   P_PARAM.CMD_LEN = B$JIT.CCARS;

   7870  3 000165   000000 470400 xsym               LDP0    B$JIT$
         3 000166   000032 220100                    LDX0    26,,PR0
         3 000167   100002 740100                    STX0    2,,PR1

      390     7871    4               END;

      391     7872
      392     7873    3               STATUS.FIRST_TIME = '0'B;

   7873  3 000170   000004 236000 4                  LDQ     4
         3 000171   000000 356000 2                  ANSQ    STATUS

      393     7874    3           END;

   7874  3 000172   000202 710000 3                  TRA     s:7885

      394     7875
      395     7876    3           ELSE DO;

      396     7877    3               P_PARAM.CMD_COMPLETE = '1'B;

   7877  3 000173   400000 236003                    LDQ     -131072,DU
         3 000174   200003 471500                    LDP1    @P_PARAM,,AUTO
PL6.E3A0      #001=XUX$MAIN File=XUX$COMMON_OPTIONS.:E05TSI                      WED 07/30/97 09:46 Page:40
         3 000175   100004 756100                    STQ     4,,PR1

      397     7878    3               STATUS.DONT_COME_BACK = '1'B;

   7878  3 000176   000000 256000 2                  ORSQ    STATUS

      398     7879    3               P_PARAM.CMD_LEN = 0;

   7879  3 000177   000000 220003                    LDX0    0,DU
         3 000200   100002 740100                    STX0    2,,PR1

      399     7880    3               ALTRETURN;

   7880  3 000201   000000 702200 xent               TSX2  ! X66_AALT

      400     7881    3           END;
      401     7882
      402     7883    2       END; /* Of non-continued stuff */
      403     7884
      404     7885    2       DO WHILE '0'B;

   7885  3 000202   000204 710000 3                  TRA     s:7888

      405     7886    2   STD_ALTRET_CODE:
      406     7887    2           ALTRETURN;

   7887  3 000203   000000 702200 xent  STD_ALTRET_* TSX2  ! X66_AALT

      407     7888    2       END;

   7888  3 000204   000362 710000 3                  TRA     s:8156

      408     7889
      409     7890        %EJECT;
PL6.E3A0      #001=XUX$MAIN File=XUX$COMMON_OPTIONS.:E05TSI                      WED 07/30/97 09:46 Page:41
      410     7891        /*
      411     7892             Internal routines for XUX$GETLINE
      412     7893        */
      413     7894
      414     7895
      415     7896        /*I*
      416     7897             NAME: INITIALIZE
      417     7898             PURPOSE:
      418     7899                  Performs initialization for XUX$GETLINE. Gets a dcb (if needed)
      419     7900                  and sets up some variables.
      420     7901             CALL:
      421     7902                  CALL INITIALIZE ALTRET;
      422     7903             PARAMETERS:
      423     7904                          Altret reason is returned in P_PARAM.ERROR_CODE.
      424     7905             DATA:
      425     7906                  B$JIT
      426     7907             DESCRIPTION:
      427     7908                 This module allocates a DCB to read the continuation file
      428     7909                 through if B$JIT.PRFLAGS.CONTINUED is set, and sets up a
      429     7910                 couple of useful variables.
      430     7911        */
      431     7912
      432     7913    1   INITIALIZE: PROC ALTRET;

   7913  3 000205   200006 741300       INITIALIZE   STX1  ! I+1,,AUTO

      433     7914        %FPT_GETDCB(STCLASS=);
      434     7929        %FPT_OPEN(STCLASS=);
      435     8038
      436     8039    2       STATUS.FIRST_TIME = '1'B;

   8039  3 000206   100000 236003                    LDQ     32768,DU
         3 000207   000000 256000 2                  ORSQ    STATUS

      437     8040    2       P_PARAM.CMD_COMPLETE = '0'B; /* In case the guy didn't do it himself */

   8040  3 000210   200003 470500                    LDP0    @P_PARAM,,AUTO
PL6.E3A0      #001=XUX$MAIN File=XUX$COMMON_OPTIONS.:E05TSI                      WED 07/30/97 09:46 Page:42
         3 000211   000004 450100                    STZ     4,,PR0

      438     8041
      439     8042    2       STATUS.NOT_CALLED = '0'B;

   8042  3 000212   000005 236000 4                  LDQ     5
         3 000213   000000 356000 2                  ANSQ    STATUS

      440     8043    2       IF B$JIT.PRFLAGS.CONTINUED

   8043  3 000214   000000 471400 xsym               LDP1    B$JIT$
         3 000215   100030 430100                    FSZN    24,,PR1
         3 000216   000304 605000 3                  TPL     s:8068

      441     8044    3       THEN DO;

      442     8045    3           FPT_GETDCB = GET_DCB;

   8045  3 000217   000100 100400                    MLR     fill='000'O
         3 000220   000000 000040 1                  ADSC9   GET_DCB                  cn=0,n=32
         3 000221   200010 000040                    ADSC9   FPT_GETDCB,,AUTO         cn=0,n=32

      443     8046    3           FPT_GETDCB.V_ = VECTOR(FPT_GETDCB.V);

   8046  3 000222   000006 235000 4                  LDA     6
         3 000223   200112 452500                    STP2    FPT_OPEN+58,,AUTO
         3 000224   200112 236100                    LDQ     FPT_OPEN+58,,AUTO
         3 000225   000016 036003                    ADLQ    14,DU
         3 000226   200010 757100                    STAQ    FPT_GETDCB,,AUTO

      444     8047
      445     8048    3           CALL M$GETDCB(FPT_GETDCB)

   8048  3 000227   200010 630500                    EPPR0   FPT_GETDCB,,AUTO
         3 000230   460002 713400                    CLIMB   alt,+24578
         3 000231   401000 401760                    pmme    nvectors=3
         3 000232   000234 702000 3                  TSX2    s:8050
PL6.E3A0      #001=XUX$MAIN File=XUX$COMMON_OPTIONS.:E05TSI                      WED 07/30/97 09:46 Page:43
         3 000233   000245 710000 3                  TRA     s:8055

      446     8049    4           WHENALTRETURN DO;

      447     8050    4               P_PARAM.ERROR_CODE = B$TCB$->B$TCB.ALT$->B$ALT.ERR;

   8050  3 000234   000000 470400 xsym               LDP0    B$TCB$
         3 000235   000000 471500                    LDP1    0,,PR0
         3 000236   100102 236100                    LDQ     66,,PR1
         3 000237   200003 473500                    LDP3    @P_PARAM,,AUTO
         3 000240   300003 756100                    STQ     3,,PR3

      448     8051    4               STATUS.DONT_COME_BACK = '1'B;

   8051  3 000241   400000 236003                    LDQ     -131072,DU
         3 000242   000000 256000 2                  ORSQ    STATUS

      449     8052    4               ALTRETURN;

   8052  3 000243   200006 221300                    LDX1  ! I+1,,AUTO
         3 000244   000000 702211                    TSX2  ! 0,X1

      450     8053    4           END;
      451     8054
      452     8055    3           CONT_DCB# = FPT_GETDCB.V.DCB#;

   8055  3 000245   200016 235100                    LDA     FPT_CLOSE+6,,AUTO
         3 000246   000022 771000                    ARL     18
         3 000247   000001 755000 2                  STA     CONT_DCB#

      453     8056    3           CONT_DCB$ = DCBADDR(CONT_DCB#);

   8056  3 000250   000007 470400 4                  LDP0    7
         3 000251   000000 471500                    LDP1    0,,PR0
         3 000252   100000 236105                    LDQ     0,AL,PR1
         3 000253   000002 756000 2                  STQ     CONT_DCB$

PL6.E3A0      #001=XUX$MAIN File=XUX$COMMON_OPTIONS.:E05TSI                      WED 07/30/97 09:46 Page:44
      454     8057    3           FPT_OPEN = OPEN_CMD;

   8057  3 000254   000100 100400                    MLR     fill='000'O
         3 000255   000014 000350 1                  ADSC9   OPEN_CMD                 cn=0,n=232
         3 000256   200020 000350                    ADSC9   FPT_OPEN,,AUTO           cn=0,n=232

      455     8058    3           FPT_OPEN.V_ = VECTOR(FPT_OPEN.V);

   8058  3 000257   000010 235000 4                  LDA     8
         3 000260   200112 452500                    STP2    FPT_OPEN+58,,AUTO
         3 000261   200112 236100                    LDQ     FPT_OPEN+58,,AUTO
         3 000262   000064 036003                    ADLQ    52,DU
         3 000263   200020 757100                    STAQ    FPT_OPEN,,AUTO

      456     8059    3           FPT_OPEN.V.DCB# = CONT_DCB#;

   8059  3 000264   000001 720000 2                  LXL0    CONT_DCB#
         3 000265   200064 740100                    STX0    FPT_OPEN+36,,AUTO

      457     8060    3           CALL M$OPEN(FPT_OPEN)

   8060  3 000266   200020 630500                    EPPR0   FPT_OPEN,,AUTO
         3 000267   450000 713400                    CLIMB   alt,open
         3 000270   410400 401760                    pmme    nvectors=18
         3 000271   000273 702000 3                  TSX2    s:8062
         3 000272   000304 710000 3                  TRA     s:8068

      458     8061    4           WHENALTRETURN DO;

      459     8062    4               P_PARAM.ERROR_CODE = B$TCB$->B$TCB.ALT$->B$ALT.ERR;

   8062  3 000273   000000 470400 xsym               LDP0    B$TCB$
         3 000274   000000 471500                    LDP1    0,,PR0
         3 000275   100102 236100                    LDQ     66,,PR1
         3 000276   200003 473500                    LDP3    @P_PARAM,,AUTO
         3 000277   300003 756100                    STQ     3,,PR3

PL6.E3A0      #001=XUX$MAIN File=XUX$COMMON_OPTIONS.:E05TSI                      WED 07/30/97 09:46 Page:45
      460     8063    4               STATUS.DONT_COME_BACK = '1'B;

   8063  3 000300   400000 236003                    LDQ     -131072,DU
         3 000301   000000 256000 2                  ORSQ    STATUS

      461     8064    4               ALTRETURN;

   8064  3 000302   200006 221300                    LDX1  ! I+1,,AUTO
         3 000303   000000 702211                    TSX2  ! 0,X1

      462     8065    4           END;
      463     8066    3       END;

      464     8067
      465     8068    2   END INITIALIZE;

   8068  3 000304   200006 221300                    LDX1  ! I+1,,AUTO
         3 000305   000001 702211                    TSX2  ! 1,X1

      466     8069
      467     8070        %EJECT;
PL6.E3A0      #001=XUX$MAIN File=XUX$COMMON_OPTIONS.:E05TSI                      WED 07/30/97 09:46 Page:46
      468     8071        /*I*
      469     8072             NAME: READ
      470     8073             PURPOSE:
      471     8074                  Read a line from the continuation file.
      472     8075             CALL:
      473     8076                  CALL READ ALTRET;
      474     8077             PARAMETERS:
      475     8078                  On altreturn, error code is passed back in P_PARAM.ERROR_CODE.
      476     8079             DATA:
      477     8080                  P_PARAMS.BUFFER_
      478     8081                  CONT_DCB#
      479     8082             DESCRIPTION:
      480     8083                  This module will read a line from *CONTINUATION_COMMAND and
      481     8084                  return it in VBASE(P_BUFFER_)->BUF. Length will get pulled
      482     8085                  out in the calling routine, since on the first call we might have
      483     8086                  to get over to CCDISP. On EOF, the CMD_COMPLETE bit is set and
      484     8087                  the length is set to 0. Also the internal DONT_COME_BACK bit
      485     8088                  is set.
      486     8089        */
      487     8090    1   READ: PROC ALTRET;

   8090  3 000306   200006 741300       READ         STX1  ! I+1,,AUTO

      488     8091
      489     8092        %FPT_READ(STCLASS=);
      490     8131
      491     8132    2       FPT_READ = READ_CMD;

   8132  3 000307   000100 100400                    MLR     fill='000'O
         3 000310   000106 000070 1                  ADSC9   READ_CMD                 cn=0,n=56
         3 000311   200010 000070                    ADSC9   FPT_READ,,AUTO           cn=0,n=56

      492     8133    2       FPT_READ.V_ = VECTOR(FPT_READ.V);

   8133  3 000312   000011 235000 4                  LDA     9
         3 000313   200112 452500                    STP2    FPT_OPEN+58,,AUTO
         3 000314   200112 236100                    LDQ     FPT_OPEN+58,,AUTO
PL6.E3A0      #001=XUX$MAIN File=XUX$COMMON_OPTIONS.:E05TSI                      WED 07/30/97 09:46 Page:47
         3 000315   000020 036003                    ADLQ    16,DU
         3 000316   200010 757100                    STAQ    FPT_READ,,AUTO

      493     8134    2       FPT_READ.V.DCB# = CONT_DCB#;

   8134  3 000317   000001 720000 2                  LXL0    CONT_DCB#
         3 000320   200020 740100                    STX0    FPT_OPEN,,AUTO

      494     8135    2       FPT_READ.BUF_ = P_PARAM.BUFFER_;

   8135  3 000321   200003 470500                    LDP0    @P_PARAM,,AUTO
         3 000322   000000 237100                    LDAQ    0,,PR0
         3 000323   200014 757100                    STAQ    FPT_CLOSE+4,,AUTO

      495     8136
      496     8137    2       CALL M$READ(FPT_READ)

   8137  3 000324   200010 630500                    EPPR0   FPT_READ,,AUTO
         3 000325   440000 713400                    CLIMB   alt,read
         3 000326   401400 401760                    pmme    nvectors=4
         3 000327   000331 702000 3                  TSX2    s:8139
         3 000330   000360 710000 3                  TRA     s:8154

      497     8138    3       WHENALTRETURN DO;

      498     8139    3           IF CONT_DCB$->F$DCB.TYC.EOF#

   8139  3 000331   000002 470400 2                  LDP0    CONT_DCB$
         3 000332   000002 236100                    LDQ     2,,PR0
         3 000333   004000 316003                    CANQ    2048,DU
         3 000334   000345 600000 3                  TZE     s:8147

      499     8140    4           THEN DO;

      500     8141    4               P_PARAM.CMD_COMPLETE = '1'B;

   8141  3 000335   400000 236003                    LDQ     -131072,DU
PL6.E3A0      #001=XUX$MAIN File=XUX$COMMON_OPTIONS.:E05TSI                      WED 07/30/97 09:46 Page:48
         3 000336   200003 471500                    LDP1    @P_PARAM,,AUTO
         3 000337   100004 756100                    STQ     4,,PR1

      501     8142    4               P_PARAM.CMD_LEN     = 0;

   8142  3 000340   000000 220003                    LDX0    0,DU
         3 000341   100002 740100                    STX0    2,,PR1

      502     8143    4               STATUS.DONT_COME_BACK = '1'B;

   8143  3 000342   000000 256000 2                  ORSQ    STATUS

      503     8144    4               ALTRETURN;

   8144  3 000343   200006 221300                    LDX1  ! I+1,,AUTO
         3 000344   000000 702211                    TSX2  ! 0,X1

      504     8145    4           END;
      505     8146    4           ELSE DO;

      506     8147    4               P_PARAM.ERROR_CODE = B$TCB$->B$TCB.ALT$->B$ALT.ERR;

   8147  3 000345   000000 471400 xsym               LDP1    B$TCB$
         3 000346   100000 473500                    LDP3    0,,PR1
         3 000347   300102 236100                    LDQ     66,,PR3
         3 000350   200003 474500                    LDP4    @P_PARAM,,AUTO
         3 000351   400003 756100                    STQ     3,,PR4

      507     8148    4               P_PARAM.CMD_LEN = 0;

   8148  3 000352   000000 220003                    LDX0    0,DU
         3 000353   400002 740100                    STX0    2,,PR4

      508     8149    4               STATUS.DONT_COME_BACK = '1'B;

   8149  3 000354   400000 236003                    LDQ     -131072,DU
         3 000355   000000 256000 2                  ORSQ    STATUS
PL6.E3A0      #001=XUX$MAIN File=XUX$COMMON_OPTIONS.:E05TSI                      WED 07/30/97 09:46 Page:49

      509     8150    4               ALTRETURN;

   8150  3 000356   200006 221300                    LDX1  ! I+1,,AUTO
         3 000357   000000 702211                    TSX2  ! 0,X1

      510     8151    4           END;
      511     8152    3       END;
      512     8153
      513     8154    2   END READ;

   8154  3 000360   200006 221300                    LDX1  ! I+1,,AUTO
         3 000361   000001 702211                    TSX2  ! 1,X1

      514     8155
      515     8156    1       RETURN;

   8156  3 000362   000000 702200 xent               TSX2  ! X66_ARET

      516     8157        %EJECT;
PL6.E3A0      #001=XUX$MAIN File=XUX$COMMON_OPTIONS.:E05TSI                      WED 07/30/97 09:46 Page:50
      517     8158        /*F*
      518     8159             NAME:  XUX$CLEANUP Service
      519     8160             ..::IT "Format:"
      520     8161                  CALL XUX$CLEANUP;
      521     8162             ..::IT "Parameters:"
      522     8163                  None
      523     8164             ..::IT "Description:"
      524     8165                  The XUX$CLEANUP service should be called after a
      525     8166                  complete command has been read via calls to XUX$GETLINE.
      526     8167                  This service makes it appear that XUX$GETLINE was never
      527     8168                  called.  This is useful if the command line needs to be
      528     8169                  re-read, for instance.
      529     8170             ..::IT "Error Conditions:"
      530     8171                  None.
      531     8172        */
      532     8173        /*D*
      533     8174             NAME: XUX$CLEANUP
      534     8175             CALL:
      535     8176                  CALL XUX$CLEANUP ;
      536     8177             INTERFACE:
      537     8178                  M$CLOSE
      538     8179                  M$RELDCB
      539     8180             SCRATCH:
      540     8181                  STATUS.NOT_CALLED
      541     8182                  STATUS.FIRST_TIME
      542     8183                  STATUS.DONT_COME_BACK
      543     8184             DESCRIPTION:
      544     8185                  This module gets called after all the continuation lines have
      545     8186                  been read in. It closes the continuation file and releases the
      546     8187                  DCB (if needed), and resets the status flags to make it appear
      547     8188                  that the routines have never been called.
      548     8189        */
      549     8190
      550     8191    1   XUX$CLEANUP: ENTRY ALTRET;

   8191  3 000363   000000 700200 xent  XUX$CLEANUP  TSX0  ! X66_AUTO_1
         3 000364   000114 000001                    ZERO    76,1
PL6.E3A0      #001=XUX$MAIN File=XUX$COMMON_OPTIONS.:E05TSI                      WED 07/30/97 09:46 Page:51

      551     8192
      552     8193    1       IF CONT_DCB# ~= DCBNUM(NIL)

   8193  3 000365   000001 235000 2                  LDA     CONT_DCB#
         3 000366   000373 600000 3                  TZE     s:8199

      553     8194    2       THEN DO;

      554     8195    2           CALL CLOSE;

   8195  3 000367   000431 701000 3                  TSX1    CLOSE
         3 000370   000000 011000                    NOP     0

      555     8196    2           CALL RELEASE;

   8196  3 000371   000402 701000 3                  TSX1    RELEASE
         3 000372   000000 011000                    NOP     0

      556     8197    2       END;

      557     8198
      558     8199    1       STATUS.NOT_CALLED = '1'B;

   8199  3 000373   200000 236003                    LDQ     65536,DU
         3 000374   000000 256000 2                  ORSQ    STATUS

      559     8200    1       STATUS.FIRST_TIME = '1'B;

   8200  3 000375   100000 236003                    LDQ     32768,DU
         3 000376   000000 256000 2                  ORSQ    STATUS

      560     8201    1       STATUS.DONT_COME_BACK = '0'B;

   8201  3 000377   000031 236000 xsym               LDQ     B_VECTNIL+25
         3 000400   000000 356000 2                  ANSQ    STATUS

PL6.E3A0      #001=XUX$MAIN File=XUX$COMMON_OPTIONS.:E05TSI                      WED 07/30/97 09:46 Page:52
      561     8202
      562     8203    1       RETURN;

   8203  3 000401   000000 702200 xent               TSX2  ! X66_ARET

      563     8204
      564     8205        /*I*
      565     8206             NAME: RELEASE
      566     8207             PURPOSE:
      567     8208                  Release the continuation file DCB, if needed.
      568     8209             CALL:
      569     8210                  CALL RELEASE;
      570     8211             DATA:
      571     8212                  CONT_DCB#
      572     8213             DESCRIPTION:
      573     8214                  Releases the continuation DCB.
      574     8215                  Monitor call altrets are ignored.
      575     8216        */
      576     8217    1   RELEASE: PROC;

   8217  3 000402   200006 741300       RELEASE      STX1  ! I+1,,AUTO

      577     8218        %FPT_RELDCB(STCLASS=);
      578     8232
      579     8233    2       FPT_RELDCB = REL_DCB;

   8233  3 000403   000100 100400                    MLR     fill='000'O
         3 000404   000010 000020 1                  ADSC9   REL_DCB                  cn=0,n=16
         3 000405   200010 000020                    ADSC9   FPT_RELDCB,,AUTO         cn=0,n=16

      580     8234    2       FPT_RELDCB.V_ = VECTOR(FPT_RELDCB.V);

   8234  3 000406   000006 235000 4                  LDA     6
         3 000407   200112 452500                    STP2    FPT_OPEN+58,,AUTO
         3 000410   200112 236100                    LDQ     FPT_OPEN+58,,AUTO
         3 000411   000012 036003                    ADLQ    10,DU
         3 000412   200010 757100                    STAQ    FPT_RELDCB,,AUTO
PL6.E3A0      #001=XUX$MAIN File=XUX$COMMON_OPTIONS.:E05TSI                      WED 07/30/97 09:46 Page:53

      581     8235    2       FPT_RELDCB.V.DCB# = CONT_DCB#;

   8235  3 000413   000001 720000 2                  LXL0    CONT_DCB#
         3 000414   200012 740100                    STX0    FPT_CLOSE+2,,AUTO

      582     8236
      583     8237    2       CALL M$RELDCB(FPT_RELDCB)

   8237  3 000415   200010 630500                    EPPR0   FPT_RELDCB,,AUTO
         3 000416   460003 713400                    CLIMB   alt,+24579
         3 000417   400000 401760                    pmme    nvectors=1
         3 000420   000422 702000 3                  TSX2    s:8242
         3 000421   000422 710000 3                  TRA     s:8242

      584     8238    3       WHENALTRETURN DO;

      585     8239             /* NOTHING */
      586     8240    3       END;

      587     8241
      588     8242    2       CONT_DCB# = DCBNUM(NIL);

   8242  3 000422   000001 450000 2                  STZ     CONT_DCB#

      589     8243    2       CONT_DCB$ = DCBADDR(DCBNUM(NIL));

   8243  3 000423   000007 470400 4                  LDP0    7
         3 000424   000000 471500                    LDP1    0,,PR0
         3 000425   100000 236100                    LDQ     0,,PR1
         3 000426   000002 756000 2                  STQ     CONT_DCB$

      590     8244
      591     8245    2   END RELEASE;

   8245  3 000427   200006 221300                    LDX1  ! I+1,,AUTO
         3 000430   000001 702211                    TSX2  ! 1,X1
PL6.E3A0      #001=XUX$MAIN File=XUX$COMMON_OPTIONS.:E05TSI                      WED 07/30/97 09:46 Page:54

      592     8246        /*I*
      593     8247             NAME: CLOSE
      594     8248             PURPOSE:
      595     8249                  Closes the continuation file.
      596     8250             CALL:
      597     8251                  CALL CLOSE;
      598     8252             DATA:
      599     8253                  CONT_DCB#
      600     8254             DESCRIPTION:
      601     8255                  Closes the continuation file.
      602     8256                  Monitor call ALTRETs are ignored.
      603     8257        */
      604     8258    1   CLOSE: PROC;

   8258  3 000431   200006 741300       CLOSE        STX1  ! I+1,,AUTO

      605     8259
      606     8260        %FPT_CLOSE(STCLASS=);
      607     8302
      608     8303    2       FPT_CLOSE = CLOSE_CMD;

   8303  3 000432   000100 100400                    MLR     fill='000'O
         3 000433   000132 000170 1                  ADSC9   CLOSE_CMD                cn=0,n=120
         3 000434   200010 000170                    ADSC9   FPT_CLOSE,,AUTO          cn=0,n=120

      609     8304    2       FPT_CLOSE.V_ = VECTOR(FPT_CLOSE.V);

   8304  3 000435   000012 235000 4                  LDA     10
         3 000436   200112 452500                    STP2    FPT_OPEN+58,,AUTO
         3 000437   200112 236100                    LDQ     FPT_OPEN+58,,AUTO
         3 000440   000042 036003                    ADLQ    34,DU
         3 000441   200010 757100                    STAQ    FPT_CLOSE,,AUTO

      610     8305    2       FPT_CLOSE.V.DCB# = CONT_DCB#;

   8305  3 000442   000001 720000 2                  LXL0    CONT_DCB#
PL6.E3A0      #001=XUX$MAIN File=XUX$COMMON_OPTIONS.:E05TSI                      WED 07/30/97 09:46 Page:55
         3 000443   200042 740100                    STX0    FPT_OPEN+18,,AUTO

      611     8306
      612     8307    2       CALL M$CLOSE(FPT_CLOSE)

   8307  3 000444   200010 630500                    EPPR0   FPT_CLOSE,,AUTO
         3 000445   450001 713400                    CLIMB   alt,close
         3 000446   406000 401760                    pmme    nvectors=13
         3 000447   000451 702000 3                  TSX2    s:8312
         3 000450   000451 710000 3                  TRA     s:8312

      613     8308    3       WHENALTRETURN DO;

      614     8309             /* NOTHING */
      615     8310    3       END;

      616     8311
      617     8312    2       RETURN;

   8312  3 000451   200006 221300                    LDX1  ! I+1,,AUTO
         3 000452   000001 702211                    TSX2  ! 1,X1
      618     8313
      619     8314    2   END CLOSE;
      620     8315
      621     8316    1   END XUX$MAIN;
      622     8317        %EOD;

PL6.E3A0      #001=XUX$MAIN File=XUX$COMMON_OPTIONS.:E05TSI                      WED 07/30/97 09:46 Page:56
--  Include file information  --

   XU_PERR_C.:E05TOU  is referenced.
   XUX$INTERFACE_M.:E05TOU  is referenced.
   B$JIT_C.:E05TOU  is referenced.
   U$JIT_C.:E05TOU  cannot be made into a system file and is referenced.
   CP_6_C.:E05TOU  is referenced.
   CP_6.:E05TOU  cannot be made into a system file and is referenced.
      No diagnostics issued in procedure XUX$MAIN.
PL6.E3A0      #001=XUX$MAIN File=XUX$COMMON_OPTIONS.:E05TSI                      WED 07/30/97 09:46 Page:57

 **** Variables and constants ****

  ****  Section 001 RoData XUX$MAIN

  ****  Scalars and arrays  ****
OctLoc.c.b A Datatyp(siz) R M Lvl/name                 OctLoc.c.b A Datatyp(siz) R M Lvl/name

   132-0-0/d STRC(1080)  r     1 CLOSE_CMD                124-0-0/c STRC(207)   r     1 CONT_FILE
     0-0-0/d STRC(288)   r     1 GET_DCB                   14-0-0/d STRC(2088)  r     1 OPEN_CMD
   106-0-0/d STRC(504)   r     1 READ_CMD                  10-0-0/d STRC(144)   r     1 REL_DCB
   170-0-0/w STRC        r     1 XUX_ERR

  ****  Section 002  Data  XUX$MAIN

  ****  Scalars and arrays  ****
OctLoc.c.b A Datatyp(siz) R M Lvl/name                 OctLoc.c.b A Datatyp(siz) R M Lvl/name

     1-0-0/w UBIN        r     1 CONT_DCB#                  2-0-0/w PTR         r     1 CONT_DCB$
     0-0-0/w STRC        r     1 STATUS

  ****  Auto variables  ****

  ****  Scalars and arrays  ****
OctLoc.c.b A Datatyp(siz) R M Lvl/name                 OctLoc.c.b A Datatyp(siz) R M Lvl/name

     3-0-0/w PTR         r     1 @P_PARAM                  10-0-0/d STRC(1080)  r     1 FPT_CLOSE
    10-0-0/d STRC(288)   r     1 FPT_GETDCB                20-0-0/d STRC(2088)  r     1 FPT_OPEN
    10-0-0/d STRC(504)   r     1 FPT_READ                  10-0-0/d STRC(144)   r     1 FPT_RELDCB
     5-0-0/w SBIN        r     1 I                         *0-0-0/d STRC(360)   r     1 P_PARAM
     4-0-0/w SBIN        r     1 RUNNING_ARS

  ****  SYMREF variables  ****

  ****  Scalars and arrays  ****
OctLoc.c.b A Datatyp(siz) R M Lvl/name                 OctLoc.c.b A Datatyp(siz) R M Lvl/name

     0-0-0/w PTR         r     1 B$JIT$                     0-0-0/w PTR         r     1 B$TCB$
PL6.E3A0      #001=XUX$MAIN File=XUX$COMMON_OPTIONS.:E05TSI                      WED 07/30/97 09:46 Page:58

  ****  BASED and DCB variables  ****

  ****  Scalars and arrays  ****
OctLoc.c.b A Datatyp(siz) R M Lvl/name                 OctLoc.c.b A Datatyp(siz) R M Lvl/name

     0-0-0/w STRC(2448)  r     1 B$ALT                      0-0-0/d STRC(8856)  r     1 B$JIT
     0-0-0/w STRC(144)   r     1 B$TCB                      0-0-0/c CHAR(256)   r     1 BUF
     0-0-0/d ASTR(3528)  r     1 F$DCB


   Procedure XUX$MAIN requires 299 words for executable code.
   Procedure XUX$MAIN requires 76 words of local(AUTO) storage.
PL6.E3A0      #001=XUX$MAIN File=XUX$COMMON_OPTIONS.:E05TSI                      WED 07/30/97 09:46 Page:59
          *** CROSS REFERENCE LISTING ***
**     DENOTES     IDENTIFIER DEFINITION
<<                 IDENTIFIER'S VALUE SET
>>                 IDENTIFIER'S VALUE USED
<>                 IDENTIFIER SET AND/OR USED
--                 IDENTIFIER REFERENCED
PL6.E3A0      #001=XUX$MAIN File=XUX$COMMON_OPTIONS.:E05TSI                      WED 07/30/97 09:46 Page:60
          MINI XREF LISTING

B$ALT.CODE
      7664**DCL      7664--REDEF    7665--REDEF    7665--REDEF
B$ALT.ERR
      7665**DCL      8050>>ASSIGN   8062>>ASSIGN   8147>>ASSIGN
B$ALT.ERR.ERR#
      7666**DCL      7666--REDEF
B$ALT.EVID
      7665**DCL      7665--REDEF    7665--REDEF
B$JIT.CCARS
      6234**DCL      7865>>ASSIGN   7869>>ASSIGN   7870>>ASSIGN
B$JIT.CCBUF
      6234**DCL      7866>>ASSIGN   7869>>ASSIGN
B$JIT.CCDISP
      6234**DCL      7838>>DOWHILE  7847>>ASSIGN   7865>>ASSIGN   7866>>ASSIGN
B$JIT.CPFLAGS1.SLEAZE
      6240**DCL      6240--REDEF
B$JIT.ERR.MID
      6147**DCL      6147--REDEF
B$JIT.PRFLAGS.CONTINUED
      6230**DCL      7819>>IF       8043>>IF
B$JIT$
      7672**DCL      6141--IMP-PTR  7819>>IF       7838>>DOWHILE  7847>>ASSIGN   7865>>ASSIGN   7865>>ASSIGN
      7866>>ASSIGN   7866>>ASSIGN   7869>>ASSIGN   7869>>ASSIGN   7870>>ASSIGN   8043>>IF
B$TCB.ALT$
      7660**DCL      8050>>ASSIGN   8062>>ASSIGN   8147>>ASSIGN
B$TCB$
      7671**DCL      8050>>ASSIGN   8062>>ASSIGN   8147>>ASSIGN
BUF
      7790**DCL      7842>>CALLBLT  7844<<ASSIGN   7844>>ASSIGN   7866<<ASSIGN   7869<<ASSIGN
CLOSE
      8258**PROC     8195--CALL
CLOSE_CMD
PL6.E3A0      #001=XUX$MAIN File=XUX$COMMON_OPTIONS.:E05TSI                      WED 07/30/97 09:46 Page:61
      7635**DCL      8303>>ASSIGN
CLOSE_CMD.SN_
      7635**DCL      7635--REDEF
CLOSE_CMD.UTL_
      7636**DCL      7636--REDEF
CLOSE_CMD.V
      7640**DCL      7635--DCLINIT
CLOSE_CMD.V.EXPIRE#
      7650**DCL      7650--REDEF
CLOSE_CMD.V.TYPE#
      7648**DCL      7648--REDEF
CLOSE_CMD.V.XTNSIZE#
      7645**DCL      7645--REDEF    7647--REDEF
CONT_DCB#
      7684**DCL      8055<<ASSIGN   8056--ASSIGN   8059>>ASSIGN   8134>>ASSIGN   8193>>IF       8235>>ASSIGN
      8242<<ASSIGN   8305>>ASSIGN
CONT_DCB$
      7685**DCL      7835>>ASSIGN   7840>>ASSIGN   7842>>CALLBLT  7843>>ASSIGN   7854>>ASSIGN   8056<<ASSIGN
      8139>>IF       8243<<ASSIGN
CONT_FILE
      7609**DCL      7501--DCLINIT
F$DCB.ACTPOS
      7719**DCL      7719--REDEF
F$DCB.ARS#
      7693**DCL      7693--REDEF    7835>>ASSIGN   7840>>ASSIGN   7842>>CALLBLT  7843>>ASSIGN   7854>>ASSIGN
F$DCB.ATTR
      7712**DCL      7713--REDEF
F$DCB.BORROW
      7727**DCL      7727--REDEF    7727--REDEF    7727--REDEF
F$DCB.DCBNAME.L
      7741**DCL      7741--IMP-SIZ
F$DCB.EOMCHAR#
      7697**DCL      7697--REDEF
F$DCB.FLDID
      7722**DCL      7722--REDEF
F$DCB.FORM$
PL6.E3A0      #001=XUX$MAIN File=XUX$COMMON_OPTIONS.:E05TSI                      WED 07/30/97 09:46 Page:62
      7716**DCL      7716--REDEF
F$DCB.FSECT
      7732**DCL      7732--REDEF
F$DCB.FSN#
      7709**DCL      7709--REDEF    7709--REDEF    7710--REDEF
F$DCB.HEADER$
      7715**DCL      7715--REDEF
F$DCB.IXTNSIZE#
      7713**DCL      7713--REDEF
F$DCB.LASTSTA$
      7702**DCL      7702--REDEF
F$DCB.LVL
      7728**DCL      7728--REDEF
F$DCB.NAME#.C
      7703**DCL      7703--REDEF
F$DCB.NOEOF
      7725**DCL      7725--REDEF
F$DCB.NRECS#
      7714**DCL      7714--REDEF
F$DCB.NRECX
      7733**DCL      7733--REDEF
F$DCB.OHDR
      7725**DCL      7725--REDEF
F$DCB.ORG#
      7708**DCL      7708--REDEF
F$DCB.PRECNO
      7731**DCL      7731--REDEF
F$DCB.RCSZ
      7737**DCL      7737--REDEF
F$DCB.RES#
      7704**DCL      7704--REDEF
F$DCB.SETX
      7716**DCL      7716--REDEF
F$DCB.TAB$
      7716**DCL      7716--REDEF
F$DCB.TDA
PL6.E3A0      #001=XUX$MAIN File=XUX$COMMON_OPTIONS.:E05TSI                      WED 07/30/97 09:46 Page:63
      7730**DCL      7731--REDEF
F$DCB.TYC.EOF#
      7694**DCL      8139>>IF
F$DCB.WSN#
      7704**DCL      7704--REDEF
FPT_CLOSE IN PROCEDURE CLOSE
      8283**DCL      8303<<ASSIGN   8307<>CALL
FPT_CLOSE.SN_ IN PROCEDURE CLOSE
      8283**DCL      8283--REDEF
FPT_CLOSE.UTL_ IN PROCEDURE CLOSE
      8284**DCL      8284--REDEF
FPT_CLOSE.V IN PROCEDURE CLOSE
      8288**DCL      8304--ASSIGN
FPT_CLOSE.V.DCB# IN PROCEDURE CLOSE
      8289**DCL      8305<<ASSIGN
FPT_CLOSE.V.EXPIRE# IN PROCEDURE CLOSE
      8298**DCL      8298--REDEF
FPT_CLOSE.V.TYPE# IN PROCEDURE CLOSE
      8296**DCL      8296--REDEF
FPT_CLOSE.V.XTNSIZE# IN PROCEDURE CLOSE
      8293**DCL      8293--REDEF    8295--REDEF
FPT_CLOSE.V_ IN PROCEDURE CLOSE
      8283**DCL      8304<<ASSIGN
FPT_GETDCB IN PROCEDURE INITIALIZE
      7925**DCL      8045<<ASSIGN   8048<>CALL
FPT_GETDCB.V IN PROCEDURE INITIALIZE
      7926**DCL      8046--ASSIGN
FPT_GETDCB.V.DCB# IN PROCEDURE INITIALIZE
      7926**DCL      8055>>ASSIGN
FPT_GETDCB.V_ IN PROCEDURE INITIALIZE
      7925**DCL      8046<<ASSIGN
FPT_OPEN IN PROCEDURE INITIALIZE
      7994**DCL      8057<<ASSIGN   8060<>CALL
FPT_OPEN.ACSVEH_ IN PROCEDURE INITIALIZE
      7996**DCL      7997--REDEF
FPT_OPEN.ALTKEYS_ IN PROCEDURE INITIALIZE
PL6.E3A0      #001=XUX$MAIN File=XUX$COMMON_OPTIONS.:E05TSI                      WED 07/30/97 09:46 Page:64
      8002**DCL      8003--REDEF    8003--REDEF
FPT_OPEN.HDR_ IN PROCEDURE INITIALIZE
      8001**DCL      8002--REDEF
FPT_OPEN.TAB_ IN PROCEDURE INITIALIZE
      8000**DCL      8001--REDEF
FPT_OPEN.UHL_ IN PROCEDURE INITIALIZE
      7994**DCL      7995--REDEF    7995--REDEF
FPT_OPEN.V IN PROCEDURE INITIALIZE
      8003**DCL      8058--ASSIGN
FPT_OPEN.V.DCB# IN PROCEDURE INITIALIZE
      8003**DCL      8059<<ASSIGN
FPT_OPEN.V.FSN# IN PROCEDURE INITIALIZE
      8034**DCL      8034--REDEF    8034--REDEF
FPT_OPEN.V_ IN PROCEDURE INITIALIZE
      7994**DCL      8058<<ASSIGN
FPT_OPEN.WSN_ IN PROCEDURE INITIALIZE
      8000**DCL      8000--REDEF
FPT_READ IN PROCEDURE READ
      8109**DCL      8132<<ASSIGN   8137<>CALL
FPT_READ.BUF_ IN PROCEDURE READ
      8111**DCL      8135<<ASSIGN
FPT_READ.STATION_ IN PROCEDURE READ
      8112**DCL      8113--REDEF
FPT_READ.V IN PROCEDURE READ
      8113**DCL      8133--ASSIGN
FPT_READ.V.DCB# IN PROCEDURE READ
      8113**DCL      8134<<ASSIGN
FPT_READ.V.DVBYTE.REREAD# IN PROCEDURE READ
      8124**DCL      8124--REDEF
FPT_READ.V.INDX# IN PROCEDURE READ
      8122**DCL      8122--REDEF
FPT_READ.V_ IN PROCEDURE READ
      8109**DCL      8133<<ASSIGN
FPT_RELDCB IN PROCEDURE RELEASE
      8229**DCL      8233<<ASSIGN   8237<>CALL
FPT_RELDCB.V IN PROCEDURE RELEASE
PL6.E3A0      #001=XUX$MAIN File=XUX$COMMON_OPTIONS.:E05TSI                      WED 07/30/97 09:46 Page:65
      8229**DCL      8234--ASSIGN
FPT_RELDCB.V.DCB# IN PROCEDURE RELEASE
      8229**DCL      8235<<ASSIGN
FPT_RELDCB.V_ IN PROCEDURE RELEASE
      8229**DCL      8234<<ASSIGN
GET_DCB
      7417**DCL      8045>>ASSIGN
GET_DCB.V
      7418**DCL      7417--DCLINIT
I
      7793**DCL      7842<<CALLBLT  7843>>ASSIGN   7844>>ASSIGN
INITIALIZE
      7913**PROC     7817--CALL
M$CLOSE
      5747**DCL-ENT  8307--CALL
M$GETDCB
      5753**DCL-ENT  8048--CALL
M$OPEN
      5747**DCL-ENT  8060--CALL
M$READ
      5748**DCL-ENT  8137--CALL
M$RELDCB
      5753**DCL-ENT  8237--CALL
OPEN_CMD
      7500**DCL      8057>>ASSIGN
OPEN_CMD.ACSVEH_
      7502**DCL      7503--REDEF
OPEN_CMD.ALTKEYS_
      7508**DCL      7509--REDEF    7509--REDEF
OPEN_CMD.HDR_
      7507**DCL      7508--REDEF
OPEN_CMD.TAB_
      7506**DCL      7507--REDEF
OPEN_CMD.UHL_
      7500**DCL      7501--REDEF    7501--REDEF
OPEN_CMD.V
PL6.E3A0      #001=XUX$MAIN File=XUX$COMMON_OPTIONS.:E05TSI                      WED 07/30/97 09:46 Page:66
      7509**DCL      7500--DCLINIT
OPEN_CMD.V.FSN#
      7540**DCL      7540--REDEF    7540--REDEF
OPEN_CMD.WSN_
      7506**DCL      7506--REDEF
P_PARAM
      7318**DCL       258--PROC     7801--ENTRY
P_PARAM.BUFFER_
      7322**DCL      7809>>IF       7842>>CALLBLT  7844>>ASSIGN   7844>>ASSIGN   7866>>ASSIGN   7869>>ASSIGN
      8135>>ASSIGN
P_PARAM.CMD_COMPLETE
      7383**DCL      7877<<ASSIGN   8040<<ASSIGN   8141<<ASSIGN
P_PARAM.CMD_LEN
      7328**DCL      7843<<ASSIGN   7844>>ASSIGN   7844>>ASSIGN   7847<<ASSIGN   7854<<ASSIGN   7865<<ASSIGN
      7866>>ASSIGN   7866>>ASSIGN   7870<<ASSIGN   7879<<ASSIGN   8142<<ASSIGN   8148<<ASSIGN
P_PARAM.DISP_ONLY#
      7390**DCL      7836>>IF       7863>>IF
P_PARAM.ERROR_CODE
      7346**DCL      7804<<ASSIGN   7811<<ASSIGN   8050<<ASSIGN   8062<<ASSIGN   8147<<ASSIGN
P_PARAM.ERROR_CODE.ERR#
      7374**DCL      7805<<ASSIGN   7812<<ASSIGN
READ
      8090**PROC     7834--CALL     7839--CALL     7853--CALL
READ_CMD
      7561**DCL      8132>>ASSIGN
READ_CMD.STATION_
      7564**DCL      7565--REDEF
READ_CMD.V
      7565**DCL      7561--DCLINIT
READ_CMD.V.DVBYTE.REREAD#
      7576**DCL      7576--REDEF
READ_CMD.V.INDX#
      7574**DCL      7574--REDEF
RELEASE
      8217**PROC     8196--CALL
REL_DCB
PL6.E3A0      #001=XUX$MAIN File=XUX$COMMON_OPTIONS.:E05TSI                      WED 07/30/97 09:46 Page:67
      7432**DCL      8233>>ASSIGN
REL_DCB.V
      7432**DCL      7432--DCLINIT
RUNNING_ARS
      7792**DCL      7835<<ASSIGN   7838>>DOWHILE  7840<<ASSIGN   7840>>ASSIGN
STATUS.DONT_COME_BACK
      7679**DCL      7802>>IF       7813<<ASSIGN   7878<<ASSIGN   8051<<ASSIGN   8063<<ASSIGN   8143<<ASSIGN
      8149<<ASSIGN   8201<<ASSIGN
STATUS.FIRST_TIME
      7681**DCL      7832>>IF       7849<<ASSIGN   7861>>IF       7873<<ASSIGN   8039<<ASSIGN   8200<<ASSIGN
STATUS.NOT_CALLED
      7680**DCL      7816>>IF       8042<<ASSIGN   8199<<ASSIGN
STD_ALTRET_CODE
      7887**LABEL    7817--CALLALT  7834--CALLALT  7839--CALLALT  7853--CALLALT
XUX_ERR
      7756**DCL      7804>>ASSIGN   7811>>ASSIGN

