PL6.E3A0      #003=XUX$MORE_INPUT File=XUX$COMMON_OPTIONS.:E05TSI                WED 07/30/97 09:47 Page:311
     2275        1        /*T***********************************************************/
     2276        2        /*T*                                                         */
     2277        3        /*T* Copyright (c) Bull HN Information Systems Inc., 1997    */
     2278        4        /*T*                                                         */
     2279        5        /*T***********************************************************/
     2280        6        /*X* DMC,PLM=4,IND=4,CTI=2,DTI=0,ENI=0,ECI=0,CSI=0,MCI,DCI=4 */
     2281        7        /*F*
     2282        8             NAME: XUX$MORE_INPUT
     2283        9             PURPOSE:
     2284       10                  User routine for X$PARSE.
     2285       11             DESCRIPTION:
     2286       12                  This module gets called by X$PARSE when more input is needed
     2287       13                  in order to complete a parse. It can also get called if
     2288       14                  any special nodes handling is needed, but since we don't have
     2289       15                  any of that, we'll just return if we got here for that reason.
     2290       16                  Basically, this routine just calls XUX$GETLINE to get
     2291       17                  another line of input and sets up the XUX$PCB.
     2292       18        */
     2293       19        /*D*
     2294       20             NAME: XUX$MORE_INPUT
     2295       21             CALL:
     2296       22                  Used as a User routine from X$PARSE. Not called directly by any
     2297       23                  XUX routines.
     2298       24             PARAMETERS:
     2299       25                  P_PARAM  - the PARSE$PARAM structure from X$PARSE
     2300       26             INTERFACE:
     2301       27                  XUX$GETLINE
     2302       28                  XUX$ERROR
     2303       29             DESCRIPTION:
     2304       30                  This module get called when input is needed by X$PARSE. A call
     2305       31                  is made to XUX$GETLINE to get the next line of input from
     2306       32                  *CONTINUATION_COMMANDS (better not need more input if this
     2307       33                  came from the CCBUF). The buffer that GETLINE writes into is
     2308       34                  actually the end of the parse buffer, so before returning
     2309       35                  to X$PARSE all that needs doing is to change PARAM$PCB.NCHARS
     2310       36                  to reflect the new buffer length.
     2311       37        */
PL6.E3A0      #003=XUX$MORE_INPUT File=XUX$COMMON_OPTIONS.:E05TSI                WED 07/30/97 09:47 Page:312
     2312       38        %EJECT;
PL6.E3A0      #003=XUX$MORE_INPUT File=XUX$COMMON_OPTIONS.:E05TSI                WED 07/30/97 09:47 Page:313
     2313       39        XUX$MORE_INPUT: PROC(P_PARAM);
     2314       40
     2315       41        %INCLUDE XU_MACRO_C;
     2316     3147        %INCLUDE XU_SUBS_C;
     2317     3239        %INCLUDE XUX$INTERFACE_M;
     2318     4016        %INCLUDE XUX$NODESUBS_C;
     2319     4077        %INCLUDE XU_PERR_C;
     2320     4268        %INCLUDE CP_6;
     2321     9827
     2322     9828        /*
     2323     9829             Parameters
     2324     9830        */
     2325     9831
     2326     9832        %PARSE$PARAM(NAME=P_PARAM,STCLASS=);
     2327     9913
     2328     9914        /*
     2329     9915             Parse data
     2330     9916        */
     2331     9917
     2332     9918        %P_PCB(NAME=PARAM$PCB,STCLASS="BASED(P_PARAM.PCB$)");
     2333    10117    1   DCL BUF CHAR(256) ALIGNED BASED;
     2334    10118
     2335    10119        /*
     2336    10120             Global data
     2337    10121        */
     2338    10122
     2339    10123    1   DCL XUX$NODES ENTRY CONV (5);           /* force LINK to include the nodes OU */
     2340    10124    1   DCL XUX$MEM VECTOR SYMREF;
     2341    10125    1   DCL XUX$MEM$ PTR;
     2342    10126
     2343    10127        %XUX$INFO;
     2344    10279        %XUX$LEGAL_OPTIONS(NAME=LEGAL,STCLASS="BASED(P_PARAM.USER$)");
     2345    10406
     2346    10407    1   DCL REC_INDEX(0:1023) UBIN BASED;
     2347    10408
     2348    10409        /*
     2349    10410             Entries
PL6.E3A0      #003=XUX$MORE_INPUT File=XUX$COMMON_OPTIONS.:E05TSI                WED 07/30/97 09:47 Page:314
     2350    10411        */
     2351    10412
     2352    10413    1   DCL XUX$GETLINE ENTRY(1) ALTRET;
     2353    10414    1   DCL XUX$ERROR ENTRY(8) ALTRET;
     2354    10415    1   DCL XUX$ERROR1 ENTRY(8) ALTRET;
     2355    10416
     2356    10417        /*
     2357    10418             Local data
     2358    10419        */
     2359    10420
     2360    10421        %XUX$PARAM_NO_PARSE(STCLASS=CONSTANT,DISP_ONLY=YES);
     2361    10532        %XUX$PARAM_NO_PARSE(NAME=GETLINE_PARAM,STCLASS=AUTO);
     2362    10643
     2363    10644        %EJECT;
PL6.E3A0      #003=XUX$MORE_INPUT File=XUX$COMMON_OPTIONS.:E05TSI                WED 07/30/97 09:47 Page:315
     2364    10645
     2365    10646    1       XUX$MEM$ = VBASE(XUX$MEM);
     2366    10647
     2367    10648    2       DO CASE(P_PARAM.TYPE);
     2368    10649    2       CASE(%INPUT#);
     2369    10650
     2370    10651    2           IF P_PARAM.CHARPOS + 256 > XUX$INFO.BUF_SIZE
     2371    10652    3           THEN DO;
     2372    10653    3               CALL XUX$ERROR(%E$XUX#NO_MORE_BUFFER,'0'B)
     2373    10654    4               WHENALTRETURN DO;
     2374    10655                   /* Nothing  */
     2375    10656    4               END;
     2376    10657    3               RETURN;
     2377    10658    3           END;
     2378    10659
     2379    10660    2           GETLINE_PARAM = XUX$PARAM_NO_PARSE;
     2380    10661    2           GETLINE_PARAM.BUFFER_ = VECTOR(PINCRC(PARAM$PCB.TEXT$,P_PARAM.CHARPOS)->BUF)
             10661                    ;
     2381    10662
     2382    10663    2           CALL XUX$GETLINE(GETLINE_PARAM)
     2383    10664    3           WHENALTRETURN DO;
     2384    10665    3               IF GETLINE_PARAM.CMD_COMPLETE
     2385    10666    4               THEN DO;
     2386    10667                   /*    We'll handle this as a special case, but it really
     2387    10668                         indicates that IBEX screwed up and didn't get the
     2388    10669                         amount of input that it should have.
     2389    10670                   */
     2390    10671    4                   CALL XUX$ERROR(%E$XUX#NO_MORE_INPUT,'0'B)
     2391    10672    5                   WHENALTRETURN DO;
     2392    10673                         /*  Nothing */
     2393    10674    5                   END;
     2394    10675    4                   RETURN;
     2395    10676    4               END;
     2396    10677    4               ELSE DO;
     2397    10678    4                   CALL XUX$ERROR1(GETLINE_PARAM.ERROR_CODE,'0'B)
     2398    10679    5                   WHENALTRETURN DO;
     2399    10680                      /* Nothing */
PL6.E3A0      #003=XUX$MORE_INPUT File=XUX$COMMON_OPTIONS.:E05TSI                WED 07/30/97 09:47 Page:316
     2400    10681    5                   END;
     2401    10682    4                   RETURN;
     2402    10683    4               END;
     2403    10684    3           END;
     2404    10685
     2405    10686        /* Now indicate that the buffer has been extended and return */
     2406    10687
     2407    10688    2           PARAM$PCB.NCHARS = PARAM$PCB.NCHARS + GETLINE_PARAM.CMD_LEN - 1;
     2408    10689    2           XUX$INFO.REC_INDEX$->REC_INDEX(XUX$INFO.RECNO) = P_PARAM.CHARPOS;
     2409    10690    2           XUX$INFO.RECNO = XUX$INFO.RECNO + 1;
     2410    10691        %EJECT;
PL6.E3A0      #003=XUX$MORE_INPUT File=XUX$COMMON_OPTIONS.:E05TSI                WED 07/30/97 09:47 Page:317
     2411    10692        /*
     2412    10693              Reject illegal options when generating the alternative list
     2413    10694              after a syntax error.
     2414    10695        */
     2415    10696    2       CASE(%PRE#);
     2416    10697    2           IF PARAM$PCB.NXT
     2417    10698    3           THEN DO;
     2418    10699    4               DO CASE(P_PARAM.CODE);
     2419    10700    4               CASE(%$BC);
     2420    10701    4                   P_PARAM.REJECT = ~ LEGAL.BC#;
     2421    10702    4               CASE(%$LS,%$NLS);
     2422    10703    4                   P_PARAM.REJECT = ~ LEGAL.LS#;
     2423    10704    4               CASE(%$OU,%$NOU);
     2424    10705    4                   P_PARAM.REJECT = ~ LEGAL.OU#;
     2425    10706    4               CASE(%$SO,%$NSO);
     2426    10707    4                   P_PARAM.REJECT = ~ LEGAL.SO#;
     2427    10708    4               CASE(%$UI,%$NUI,%$OPTUI);
     2428    10709    4                   P_PARAM.REJECT = ~ LEGAL.UI#;
     2429    10710    4               CASE(%$WARN,%$NWARN);
     2430    10711    4                   P_PARAM.REJECT = ~ LEGAL.WARN#;
     2431    10712    4               CASE(%$PMAP,%$MPMAP,%$NPMAP);
     2432    10713    4                   P_PARAM.REJECT = ~ LEGAL.PMAP#;
     2433    10714    4               CASE(%$SCHEMA,%$MSCHEMA,%$NSCHEMA);
     2434    10715    4                   P_PARAM.REJECT = ~ LEGAL.SCHEMA#;
     2435    10716    4               CASE(%$UREF,%$MUREF,%$NUREF);
     2436    10717    4                   P_PARAM.REJECT = ~ LEGAL.UREF#;
     2437    10718    4               CASE(%$XREF,%$MXREF,%$NXREF);
     2438    10719    4                   P_PARAM.REJECT = ~ LEGAL.XREF#;
     2439    10720    4               CASE(%$LO_CLASS);
     2440    10721    4                   P_PARAM.REJECT = ~ LEGAL.LO#;
     2441    10722    4               CASE(%$SRCH);
     2442    10723    4                   P_PARAM.REJECT = ~ LEGAL.SRCH#;
     2443    10724    4               CASE(%$DMAP_CLASS);
     2444    10725    4                   P_PARAM.REJECT = ~ LEGAL.DMAP#;
     2445    10726    4               END;
     2446    10727    3           END;
     2447    10728    2       END;
PL6.E3A0      #003=XUX$MORE_INPUT File=XUX$COMMON_OPTIONS.:E05TSI                WED 07/30/97 09:47 Page:318
     2448    10729    1       RETURN;  /* To X$PARSE */
     2449    10730
     2450    10731    1   END XUX$MORE_INPUT;
     2451    10732        %EOD;

PL6.E3A0      #003=XUX$MORE_INPUT File=XUX$COMMON_OPTIONS.:E05TSI                WED 07/30/97 09:47 Page:319
--  Include file information  --

   CP_6_C.:E05TOU  is referenced.
   CP_6.:E05TOU  cannot be made into a system file and is referenced.
   XU_PERR_C.:E05TOU  is referenced.
   XUX$NODESUBS_C.:E05TOU  is referenced.
   XUX$INTERFACE_M.:E05TOU  is referenced.
   XU_SUBS_C.:E05TOU  is referenced.
   XU_MACRO_C.:E05TOU  is referenced.
      No diagnostics issued in procedure XUX$MORE_INPUT.

   Procedure XUX$MORE_INPUT requires 256 words for executable code.
   Procedure XUX$MORE_INPUT requires 18 words of local(AUTO) storage.

PL6.E3A0      #003=XUX$MORE_INPUT File=XUX$COMMON_OPTIONS.:E05TSI                WED 07/30/97 09:47 Page:320

 Object Unit name= XUX$MORE_INPUT                             File name= XUX$COMMON_OPTIONS.:E05TOU
 UTS= JUL 30 '97 09:47:52.00 WED                              Compiler= PL-6/E31         Sev=      00
 SharedLib= :SHARED_SYSTEM                                    Alt SharedLib=


    ****  Control sections  ****

 Sect   Type Bound  Init  Size OctSiz  Section name(segment info)
    0   DCB   even  none     0      0  M$UC
    1  RoData even  UTS     10     12  XUX$MORE_INPUT
    2   Proc  even  none   256    400  XUX$MORE_INPUT
    3  RoData even  none     7      7  XUX$MORE_INPUT

    ****  Entry defs  ****

                              Check   Calling
                             calling  sequence
  Sect OctLoc Primary Altret sequence   type   Parms  Name
     2      0   yes            yes      Std        1  XUX$MORE_INPUT

  ****  Entry refs  ****

         Check        Calling
        calling       sequence
Altret sequence SRef   type   Args  Name
         yes          ~proc      0 XUX$NODES
 yes     yes           Std       8 XUX$ERROR
 yes     yes           Std       8 XUX$ERROR1
 yes     yes           Std       1 XUX$GETLINE
                       nStd      0 X66_AUTO_1
                       Std       0 B_CONSPOOL_D
                       nStd      0 X66_ARET
PL6.E3A0      #003=XUX$MORE_INPUT File=XUX$COMMON_OPTIONS.:E05TSI                WED 07/30/97 09:47 Page:321

  ****  Data refs  ****

  Flags:  r = read only, s = secondary
Flgs Name                             Flgs Name                             Flgs Name
     M$UC                                  XUX$MEM                               B_VECTNIL

  ****  Segment refs  ****

  Flags:  r = read only, s = secondary
Flgs Name                             Flgs Name                             Flgs Name
     NULLSID                               ISSID
PL6.E3A0      #003=XUX$MORE_INPUT File=XUX$COMMON_OPTIONS.:E05TSI                WED 07/30/97 09:47 Page:322


     2275        1        /*T***********************************************************/
     2276        2        /*T*                                                         */
     2277        3        /*T* Copyright (c) Bull HN Information Systems Inc., 1997    */
     2278        4        /*T*                                                         */
     2279        5        /*T***********************************************************/
     2280        6        /*X* DMC,PLM=4,IND=4,CTI=2,DTI=0,ENI=0,ECI=0,CSI=0,MCI,DCI=4 */
     2281        7        /*F*
     2282        8             NAME: XUX$MORE_INPUT
     2283        9             PURPOSE:
     2284       10                  User routine for X$PARSE.
     2285       11             DESCRIPTION:
     2286       12                  This module gets called by X$PARSE when more input is needed
     2287       13                  in order to complete a parse. It can also get called if
     2288       14                  any special nodes handling is needed, but since we don't have
     2289       15                  any of that, we'll just return if we got here for that reason.
     2290       16                  Basically, this routine just calls XUX$GETLINE to get
     2291       17                  another line of input and sets up the XUX$PCB.
     2292       18        */
     2293       19        /*D*
     2294       20             NAME: XUX$MORE_INPUT
     2295       21             CALL:
     2296       22                  Used as a User routine from X$PARSE. Not called directly by any
     2297       23                  XUX routines.
     2298       24             PARAMETERS:
     2299       25                  P_PARAM  - the PARSE$PARAM structure from X$PARSE
     2300       26             INTERFACE:
     2301       27                  XUX$GETLINE
     2302       28                  XUX$ERROR
     2303       29             DESCRIPTION:
     2304       30                  This module get called when input is needed by X$PARSE. A call
     2305       31                  is made to XUX$GETLINE to get the next line of input from
     2306       32                  *CONTINUATION_COMMANDS (better not need more input if this
     2307       33                  came from the CCBUF). The buffer that GETLINE writes into is
     2308       34                  actually the end of the parse buffer, so before returning
     2309       35                  to X$PARSE all that needs doing is to change PARAM$PCB.NCHARS
     2310       36                  to reflect the new buffer length.
PL6.E3A0      #003=XUX$MORE_INPUT File=XUX$COMMON_OPTIONS.:E05TSI                WED 07/30/97 09:47 Page:323
     2311       37        */
     2312       38        %EJECT;
PL6.E3A0      #003=XUX$MORE_INPUT File=XUX$COMMON_OPTIONS.:E05TSI                WED 07/30/97 09:47 Page:324
     2313       39        XUX$MORE_INPUT: PROC(P_PARAM);

     39  2 000000   000000 700200 xent  XUX$MORE_IN* TSX0  ! X66_AUTO_1
         2 000001   000022 000001                    ZERO    18,1

     2314       40
     2315       41        %INCLUDE XU_MACRO_C;
     2316     3147        %INCLUDE XU_SUBS_C;
     2317     3239        %INCLUDE XUX$INTERFACE_M;
     2318     4016        %INCLUDE XUX$NODESUBS_C;
     2319     4077        %INCLUDE XU_PERR_C;
     2320     4268        %INCLUDE CP_6;
     2321     9827
     2322     9828        /*
     2323     9829             Parameters
     2324     9830        */
     2325     9831
     2326     9832        %PARSE$PARAM(NAME=P_PARAM,STCLASS=);
     2327     9913
     2328     9914        /*
     2329     9915             Parse data
     2330     9916        */
     2331     9917
     2332     9918        %P_PCB(NAME=PARAM$PCB,STCLASS="BASED(P_PARAM.PCB$)");
     2333    10117    1   DCL BUF CHAR(256) ALIGNED BASED;
     2334    10118
     2335    10119        /*
     2336    10120             Global data
     2337    10121        */
     2338    10122
     2339    10123    1   DCL XUX$NODES ENTRY CONV (5);           /* force LINK to include the nodes OU */
     2340    10124    1   DCL XUX$MEM VECTOR SYMREF;
     2341    10125    1   DCL XUX$MEM$ PTR;
     2342    10126
     2343    10127        %XUX$INFO;
     2344    10279        %XUX$LEGAL_OPTIONS(NAME=LEGAL,STCLASS="BASED(P_PARAM.USER$)");
     2345    10406
PL6.E3A0      #003=XUX$MORE_INPUT File=XUX$COMMON_OPTIONS.:E05TSI                WED 07/30/97 09:47 Page:325
     2346    10407    1   DCL REC_INDEX(0:1023) UBIN BASED;
     2347    10408
     2348    10409        /*
     2349    10410             Entries
     2350    10411        */
     2351    10412
     2352    10413    1   DCL XUX$GETLINE ENTRY(1) ALTRET;
     2353    10414    1   DCL XUX$ERROR ENTRY(8) ALTRET;
     2354    10415    1   DCL XUX$ERROR1 ENTRY(8) ALTRET;
     2355    10416
     2356    10417        /*
     2357    10418             Local data
     2358    10419        */
     2359    10420
     2360    10421        %XUX$PARAM_NO_PARSE(STCLASS=CONSTANT,DISP_ONLY=YES);
     2361    10532        %XUX$PARAM_NO_PARSE(NAME=GETLINE_PARAM,STCLASS=AUTO);
     2362    10643
     2363    10644        %EJECT;
PL6.E3A0      #003=XUX$MORE_INPUT File=XUX$COMMON_OPTIONS.:E05TSI                WED 07/30/97 09:47 Page:326
     2364    10645
     2365    10646    1       XUX$MEM$ = VBASE(XUX$MEM);

  10646  2 000002   000001 236000 xsym               LDQ     XUX$MEM+1
         2 000003   200004 756100                    STQ     XUX$MEM$,,AUTO

     2366    10647
     2367    10648    2       DO CASE(P_PARAM.TYPE);

  10648  2 000004   200003 470500                    LDP0    @P_PARAM,,AUTO
         2 000005   000000 236100                    LDQ     0,,PR0
         2 000006   000033 772000                    QRL     27
         2 000007   000005 116007                    CMPQ    5,DL
         2 000010   000012 602006 2                  TNC     s:10648+6,QL
         2 000011   000377 710000 2                  TRA     s:10729
         2 000012   000377 710000 2                  TRA     s:10729
         2 000013   000117 710000 2                  TRA     s:10697
         2 000014   000377 710000 2                  TRA     s:10729
         2 000015   000377 710000 2                  TRA     s:10729
         2 000016   000017 710000 2                  TRA     s:10651

     2368    10649    2       CASE(%INPUT#);

     2369    10650
     2370    10651    2           IF P_PARAM.CHARPOS + 256 > XUX$INFO.BUF_SIZE

  10651  2 000017   200004 471500                    LDP1    XUX$MEM$,,AUTO
         2 000020   000004 236100                    LDQ     4,,PR0
         2 000021   000400 036007                    ADLQ    256,DL
         2 000022   100004 116100                    CMPQ    4,,PR1
         2 000023   000033 602000 2                  TNC     s:10660
         2 000024   000033 600000 2                  TZE     s:10660

     2371    10652    3           THEN DO;

     2372    10653    3               CALL XUX$ERROR(%E$XUX#NO_MORE_BUFFER,'0'B)

PL6.E3A0      #003=XUX$MORE_INPUT File=XUX$COMMON_OPTIONS.:E05TSI                WED 07/30/97 09:47 Page:327
  10653  2 000025   000001 630400 3                  EPPR0   1
         2 000026   000020 631400 xsym               EPPR1   B_VECTNIL+16
         2 000027   000000 701000 xent               TSX1    XUX$ERROR
         2 000030   000032 702000 2                  TSX2    s:10657
         2 000031   000032 710000 2                  TRA     s:10657

     2373    10654    4               WHENALTRETURN DO;

     2374    10655                   /* Nothing  */
     2375    10656    4               END;

     2376    10657    3               RETURN;

  10657  2 000032   000000 702200 xent               TSX2  ! X66_ARET

     2377    10658    3           END;
     2378    10659
     2379    10660    2           GETLINE_PARAM = XUX$PARAM_NO_PARSE;

  10660  2 000033   000100 100400                    MLR     fill='000'O
         2 000034   000000 000050 1                  ADSC9   XUX$PARAM_NO_PARSE       cn=0,n=40
         2 000035   200006 000050                    ADSC9   GETLINE_PARAM,,AUTO      cn=0,n=40

     2380    10661    2          GETLINE_PARAM.BUFFER_ = VECTOR(PINCRC(PARAM$PCB.TEXT$,P_PARAM.CHARPOS)->BUF)
             10661                    ;

  10661  2 000036   000005 473500                    LDP3    5,,PR0
         2 000037   000004 236100                    LDQ     4,,PR0
         2 000040   300000 474500                    LDP4    0,,PR3
         2 000041   000003 235000 3                  LDA     3
         2 000042   400000 500506                    A9BD    0,QL,PR4
         2 000043   200020 454500                    STP4    GETLINE_PARAM+10,,AUTO
         2 000044   200020 236100                    LDQ     GETLINE_PARAM+10,,AUTO
         2 000045   200006 757100                    STAQ    GETLINE_PARAM,,AUTO

     2381    10662
     2382    10663    2           CALL XUX$GETLINE(GETLINE_PARAM)
PL6.E3A0      #003=XUX$MORE_INPUT File=XUX$COMMON_OPTIONS.:E05TSI                WED 07/30/97 09:47 Page:328

  10663  2 000046   200006 633500                    EPPR3   GETLINE_PARAM,,AUTO
         2 000047   200020 453500                    STP3    GETLINE_PARAM+10,,AUTO
         2 000050   200020 630500                    EPPR0   GETLINE_PARAM+10,,AUTO
         2 000051   000017 631400 xsym               EPPR1   B_VECTNIL+15
         2 000052   000000 701000 xent               TSX1    XUX$GETLINE
         2 000053   000055 702000 2                  TSX2    s:10665
         2 000054   000077 710000 2                  TRA     s:10688

     2383    10664    3           WHENALTRETURN DO;

     2384    10665    3               IF GETLINE_PARAM.CMD_COMPLETE

  10665  2 000055   200012 234100                    SZN     GETLINE_PARAM+4,,AUTO
         2 000056   000065 605000 2                  TPL     s:10678

     2385    10666    4               THEN DO;

     2386    10667                   /*    We'll handle this as a special case, but it really
     2387    10668                         indicates that IBEX screwed up and didn't get the
     2388    10669                         amount of input that it should have.
     2389    10670                   */
     2390    10671    4                   CALL XUX$ERROR(%E$XUX#NO_MORE_INPUT,'0'B)

  10671  2 000057   000005 630400 3                  EPPR0   5
         2 000060   000020 631400 xsym               EPPR1   B_VECTNIL+16
         2 000061   000000 701000 xent               TSX1    XUX$ERROR
         2 000062   000064 702000 2                  TSX2    s:10675
         2 000063   000064 710000 2                  TRA     s:10675

     2391    10672    5                   WHENALTRETURN DO;

     2392    10673                         /*  Nothing */
     2393    10674    5                   END;

     2394    10675    4                   RETURN;

PL6.E3A0      #003=XUX$MORE_INPUT File=XUX$COMMON_OPTIONS.:E05TSI                WED 07/30/97 09:47 Page:329
  10675  2 000064   000000 702200 xent               TSX2  ! X66_ARET

     2395    10676    4               END;
     2396    10677    4               ELSE DO;

     2397    10678    4                   CALL XUX$ERROR1(GETLINE_PARAM.ERROR_CODE,'0'B)

  10678  2 000065   000002 236000 3                  LDQ     2
         2 000066   200021 756100                    STQ     GETLINE_PARAM+11,,AUTO
         2 000067   200011 630500                    EPPR0   GETLINE_PARAM+3,,AUTO
         2 000070   200020 450500                    STP0    GETLINE_PARAM+10,,AUTO
         2 000071   200020 630500                    EPPR0   GETLINE_PARAM+10,,AUTO
         2 000072   000020 631400 xsym               EPPR1   B_VECTNIL+16
         2 000073   000000 701000 xent               TSX1    XUX$ERROR1
         2 000074   000076 702000 2                  TSX2    s:10682
         2 000075   000076 710000 2                  TRA     s:10682

     2398    10679    5                   WHENALTRETURN DO;

     2399    10680                      /* Nothing */
     2400    10681    5                   END;

     2401    10682    4                   RETURN;

  10682  2 000076   000000 702200 xent               TSX2  ! X66_ARET

     2402    10683    4               END;
     2403    10684    3           END;
     2404    10685
     2405    10686        /* Now indicate that the buffer has been extended and return */
     2406    10687
     2407    10688    2           PARAM$PCB.NCHARS = PARAM$PCB.NCHARS + GETLINE_PARAM.CMD_LEN - 1;

  10688  2 000077   200003 470500                    LDP0    @P_PARAM,,AUTO
         2 000100   000005 471500                    LDP1    5,,PR0
         2 000101   200010 236100                    LDQ     GETLINE_PARAM+2,,AUTO
         2 000102   000022 732000                    QRS     18
PL6.E3A0      #003=XUX$MORE_INPUT File=XUX$COMMON_OPTIONS.:E05TSI                WED 07/30/97 09:47 Page:330
         2 000103   100011 036100                    ADLQ    9,,PR1
         2 000104   000001 136007                    SBLQ    1,DL
         2 000105   100011 756100                    STQ     9,,PR1

     2408    10689    2           XUX$INFO.REC_INDEX$->REC_INDEX(XUX$INFO.RECNO) = P_PARAM.CHARPOS;

  10689  2 000106   200004 471500                    LDP1    XUX$MEM$,,AUTO
         2 000107   100001 473500                    LDP3    1,,PR1
         2 000110   100003 720100                    LXL0    3,,PR1
         2 000111   000004 235100                    LDA     4,,PR0
         2 000112   300000 755110                    STA     0,X0,PR3

     2409    10690    2           XUX$INFO.RECNO = XUX$INFO.RECNO + 1;

  10690  2 000113   100003 235100                    LDA     3,,PR1
         2 000114   000001 035007                    ADLA    1,DL
         2 000115   100003 755100                    STA     3,,PR1
         2 000116   000377 710000 2                  TRA     s:10729

     2410    10691        %EJECT;
PL6.E3A0      #003=XUX$MORE_INPUT File=XUX$COMMON_OPTIONS.:E05TSI                WED 07/30/97 09:47 Page:331
     2411    10692        /*
     2412    10693              Reject illegal options when generating the alternative list
     2413    10694              after a syntax error.
     2414    10695        */
     2415    10696    2       CASE(%PRE#);

     2416    10697    2           IF PARAM$PCB.NXT

  10697  2 000117   000005 471500                    LDP1    5,,PR0
         2 000120   100005 236100                    LDQ     5,,PR1
         2 000121   040000 316007                    CANQ    16384,DL
         2 000122   000377 600000 2                  TZE     s:10729

     2417    10698    3           THEN DO;

     2418    10699    4               DO CASE(P_PARAM.CODE);

  10699  2 000123   000000 720100                    LXL0    0,,PR0
         2 000124   000050 100003                    CMPX0   40,DU
         2 000125   000127 602010 2                  TNC     s:10699+4,X0
         2 000126   000377 710000 2                  TRA     s:10729
         2 000127   000377 710000 2                  TRA     s:10729
         2 000130   000177 710000 2                  TRA     s:10701
         2 000131   000366 710000 2                  TRA     s:10725
         2 000132   000377 710000 2                  TRA     s:10729
         2 000133   000377 710000 2                  TRA     s:10729
         2 000134   000377 710000 2                  TRA     s:10729
         2 000135   000377 710000 2                  TRA     s:10729
         2 000136   000377 710000 2                  TRA     s:10729
         2 000137   000377 710000 2                  TRA     s:10729
         2 000140   000377 710000 2                  TRA     s:10729
         2 000141   000377 710000 2                  TRA     s:10729
         2 000142   000342 710000 2                  TRA     s:10721
         2 000143   000377 710000 2                  TRA     s:10729
         2 000144   000377 710000 2                  TRA     s:10729
         2 000145   000377 710000 2                  TRA     s:10729
         2 000146   000377 710000 2                  TRA     s:10729
PL6.E3A0      #003=XUX$MORE_INPUT File=XUX$COMMON_OPTIONS.:E05TSI                WED 07/30/97 09:47 Page:332
         2 000147   000210 710000 2                  TRA     s:10703
         2 000150   000210 710000 2                  TRA     s:10703
         2 000151   000222 710000 2                  TRA     s:10705
         2 000152   000222 710000 2                  TRA     s:10705
         2 000153   000272 710000 2                  TRA     s:10713
         2 000154   000272 710000 2                  TRA     s:10713
         2 000155   000272 710000 2                  TRA     s:10713
         2 000156   000304 710000 2                  TRA     s:10715
         2 000157   000304 710000 2                  TRA     s:10715
         2 000160   000304 710000 2                  TRA     s:10715
         2 000161   000234 710000 2                  TRA     s:10707
         2 000162   000234 710000 2                  TRA     s:10707
         2 000163   000354 710000 2                  TRA     s:10723
         2 000164   000246 710000 2                  TRA     s:10709
         2 000165   000246 710000 2                  TRA     s:10709
         2 000166   000246 710000 2                  TRA     s:10709
         2 000167   000316 710000 2                  TRA     s:10717
         2 000170   000316 710000 2                  TRA     s:10717
         2 000171   000316 710000 2                  TRA     s:10717
         2 000172   000260 710000 2                  TRA     s:10711
         2 000173   000260 710000 2                  TRA     s:10711
         2 000174   000330 710000 2                  TRA     s:10719
         2 000175   000330 710000 2                  TRA     s:10719
         2 000176   000330 710000 2                  TRA     s:10719

     2419    10700    4               CASE(%$BC);

     2420    10701    4                   P_PARAM.REJECT = ~ LEGAL.BC#;

  10701  2 000177   000006 473500                    LDP3    6,,PR0
         2 000200   300000 236100                    LDQ     0,,PR3
         2 000201   400000 376003                    ANQ     -131072,DU
         2 000202   400000 676003                    ERQ     -131072,DU
         2 000203   000012 772000                    QRL     10
         2 000204   000000 676100                    ERQ     0,,PR0
         2 000205   000200 376003                    ANQ     128,DU
         2 000206   000000 656100                    ERSQ    0,,PR0
PL6.E3A0      #003=XUX$MORE_INPUT File=XUX$COMMON_OPTIONS.:E05TSI                WED 07/30/97 09:47 Page:333
         2 000207   000377 710000 2                  TRA     s:10729

     2421    10702    4               CASE(%$LS,%$NLS);

     2422    10703    4                   P_PARAM.REJECT = ~ LEGAL.LS#;

  10703  2 000210   000006 473500                    LDP3    6,,PR0
         2 000211   300000 236100                    LDQ     0,,PR3
         2 000212   000003 736000                    QLS     3
         2 000213   400000 376003                    ANQ     -131072,DU
         2 000214   400000 676003                    ERQ     -131072,DU
         2 000215   000012 772000                    QRL     10
         2 000216   000000 676100                    ERQ     0,,PR0
         2 000217   000200 376003                    ANQ     128,DU
         2 000220   000000 656100                    ERSQ    0,,PR0
         2 000221   000377 710000 2                  TRA     s:10729

     2423    10704    4               CASE(%$OU,%$NOU);

     2424    10705    4                   P_PARAM.REJECT = ~ LEGAL.OU#;

  10705  2 000222   000006 473500                    LDP3    6,,PR0
         2 000223   300000 236100                    LDQ     0,,PR3
         2 000224   000004 736000                    QLS     4
         2 000225   400000 376003                    ANQ     -131072,DU
         2 000226   400000 676003                    ERQ     -131072,DU
         2 000227   000012 772000                    QRL     10
         2 000230   000000 676100                    ERQ     0,,PR0
         2 000231   000200 376003                    ANQ     128,DU
         2 000232   000000 656100                    ERSQ    0,,PR0
         2 000233   000377 710000 2                  TRA     s:10729

     2425    10706    4               CASE(%$SO,%$NSO);

     2426    10707    4                   P_PARAM.REJECT = ~ LEGAL.SO#;

  10707  2 000234   000006 473500                    LDP3    6,,PR0
PL6.E3A0      #003=XUX$MORE_INPUT File=XUX$COMMON_OPTIONS.:E05TSI                WED 07/30/97 09:47 Page:334
         2 000235   300000 236100                    LDQ     0,,PR3
         2 000236   000007 736000                    QLS     7
         2 000237   400000 376003                    ANQ     -131072,DU
         2 000240   400000 676003                    ERQ     -131072,DU
         2 000241   000012 772000                    QRL     10
         2 000242   000000 676100                    ERQ     0,,PR0
         2 000243   000200 376003                    ANQ     128,DU
         2 000244   000000 656100                    ERSQ    0,,PR0
         2 000245   000377 710000 2                  TRA     s:10729

     2427    10708    4               CASE(%$UI,%$NUI,%$OPTUI);

     2428    10709    4                   P_PARAM.REJECT = ~ LEGAL.UI#;

  10709  2 000246   000006 473500                    LDP3    6,,PR0
         2 000247   300000 236100                    LDQ     0,,PR3
         2 000250   000011 736000                    QLS     9
         2 000251   400000 376003                    ANQ     -131072,DU
         2 000252   400000 676003                    ERQ     -131072,DU
         2 000253   000012 772000                    QRL     10
         2 000254   000000 676100                    ERQ     0,,PR0
         2 000255   000200 376003                    ANQ     128,DU
         2 000256   000000 656100                    ERSQ    0,,PR0
         2 000257   000377 710000 2                  TRA     s:10729

     2429    10710    4               CASE(%$WARN,%$NWARN);

     2430    10711    4                   P_PARAM.REJECT = ~ LEGAL.WARN#;

  10711  2 000260   000006 473500                    LDP3    6,,PR0
         2 000261   300000 236100                    LDQ     0,,PR3
         2 000262   000013 736000                    QLS     11
         2 000263   400000 376003                    ANQ     -131072,DU
         2 000264   400000 676003                    ERQ     -131072,DU
         2 000265   000012 772000                    QRL     10
         2 000266   000000 676100                    ERQ     0,,PR0
         2 000267   000200 376003                    ANQ     128,DU
PL6.E3A0      #003=XUX$MORE_INPUT File=XUX$COMMON_OPTIONS.:E05TSI                WED 07/30/97 09:47 Page:335
         2 000270   000000 656100                    ERSQ    0,,PR0
         2 000271   000377 710000 2                  TRA     s:10729

     2431    10712    4               CASE(%$PMAP,%$MPMAP,%$NPMAP);

     2432    10713    4                   P_PARAM.REJECT = ~ LEGAL.PMAP#;

  10713  2 000272   000006 473500                    LDP3    6,,PR0
         2 000273   300000 236100                    LDQ     0,,PR3
         2 000274   000005 736000                    QLS     5
         2 000275   400000 376003                    ANQ     -131072,DU
         2 000276   400000 676003                    ERQ     -131072,DU
         2 000277   000012 772000                    QRL     10
         2 000300   000000 676100                    ERQ     0,,PR0
         2 000301   000200 376003                    ANQ     128,DU
         2 000302   000000 656100                    ERSQ    0,,PR0
         2 000303   000377 710000 2                  TRA     s:10729

     2433    10714    4               CASE(%$SCHEMA,%$MSCHEMA,%$NSCHEMA);

     2434    10715    4                   P_PARAM.REJECT = ~ LEGAL.SCHEMA#;

  10715  2 000304   000006 473500                    LDP3    6,,PR0
         2 000305   300000 236100                    LDQ     0,,PR3
         2 000306   000006 736000                    QLS     6
         2 000307   400000 376003                    ANQ     -131072,DU
         2 000310   400000 676003                    ERQ     -131072,DU
         2 000311   000012 772000                    QRL     10
         2 000312   000000 676100                    ERQ     0,,PR0
         2 000313   000200 376003                    ANQ     128,DU
         2 000314   000000 656100                    ERSQ    0,,PR0
         2 000315   000377 710000 2                  TRA     s:10729

     2435    10716    4               CASE(%$UREF,%$MUREF,%$NUREF);

     2436    10717    4                   P_PARAM.REJECT = ~ LEGAL.UREF#;

PL6.E3A0      #003=XUX$MORE_INPUT File=XUX$COMMON_OPTIONS.:E05TSI                WED 07/30/97 09:47 Page:336
  10717  2 000316   000006 473500                    LDP3    6,,PR0
         2 000317   300000 236100                    LDQ     0,,PR3
         2 000320   000012 736000                    QLS     10
         2 000321   400000 376003                    ANQ     -131072,DU
         2 000322   400000 676003                    ERQ     -131072,DU
         2 000323   000012 772000                    QRL     10
         2 000324   000000 676100                    ERQ     0,,PR0
         2 000325   000200 376003                    ANQ     128,DU
         2 000326   000000 656100                    ERSQ    0,,PR0
         2 000327   000377 710000 2                  TRA     s:10729

     2437    10718    4               CASE(%$XREF,%$MXREF,%$NXREF);

     2438    10719    4                   P_PARAM.REJECT = ~ LEGAL.XREF#;

  10719  2 000330   000006 473500                    LDP3    6,,PR0
         2 000331   300000 236100                    LDQ     0,,PR3
         2 000332   000014 736000                    QLS     12
         2 000333   400000 376003                    ANQ     -131072,DU
         2 000334   400000 676003                    ERQ     -131072,DU
         2 000335   000012 772000                    QRL     10
         2 000336   000000 676100                    ERQ     0,,PR0
         2 000337   000200 376003                    ANQ     128,DU
         2 000340   000000 656100                    ERSQ    0,,PR0
         2 000341   000377 710000 2                  TRA     s:10729

     2439    10720    4               CASE(%$LO_CLASS);

     2440    10721    4                   P_PARAM.REJECT = ~ LEGAL.LO#;

  10721  2 000342   000006 473500                    LDP3    6,,PR0
         2 000343   300000 236100                    LDQ     0,,PR3
         2 000344   000002 736000                    QLS     2
         2 000345   400000 376003                    ANQ     -131072,DU
         2 000346   400000 676003                    ERQ     -131072,DU
         2 000347   000012 772000                    QRL     10
         2 000350   000000 676100                    ERQ     0,,PR0
PL6.E3A0      #003=XUX$MORE_INPUT File=XUX$COMMON_OPTIONS.:E05TSI                WED 07/30/97 09:47 Page:337
         2 000351   000200 376003                    ANQ     128,DU
         2 000352   000000 656100                    ERSQ    0,,PR0
         2 000353   000377 710000 2                  TRA     s:10729

     2441    10722    4               CASE(%$SRCH);

     2442    10723    4                   P_PARAM.REJECT = ~ LEGAL.SRCH#;

  10723  2 000354   000006 473500                    LDP3    6,,PR0
         2 000355   300000 236100                    LDQ     0,,PR3
         2 000356   000010 736000                    QLS     8
         2 000357   400000 376003                    ANQ     -131072,DU
         2 000360   400000 676003                    ERQ     -131072,DU
         2 000361   000012 772000                    QRL     10
         2 000362   000000 676100                    ERQ     0,,PR0
         2 000363   000200 376003                    ANQ     128,DU
         2 000364   000000 656100                    ERSQ    0,,PR0
         2 000365   000377 710000 2                  TRA     s:10729

     2443    10724    4               CASE(%$DMAP_CLASS);

     2444    10725    4                   P_PARAM.REJECT = ~ LEGAL.DMAP#;

  10725  2 000366   000006 473500                    LDP3    6,,PR0
         2 000367   300000 236100                    LDQ     0,,PR3
         2 000370   000001 736000                    QLS     1
         2 000371   400000 376003                    ANQ     -131072,DU
         2 000372   400000 676003                    ERQ     -131072,DU
         2 000373   000012 772000                    QRL     10
         2 000374   000000 676100                    ERQ     0,,PR0
         2 000375   000200 376003                    ANQ     128,DU
         2 000376   000000 656100                    ERSQ    0,,PR0

     2445    10726    4               END;

     2446    10727    3           END;

PL6.E3A0      #003=XUX$MORE_INPUT File=XUX$COMMON_OPTIONS.:E05TSI                WED 07/30/97 09:47 Page:338
     2447    10728    2       END;

     2448    10729    1       RETURN;  /* To X$PARSE */

  10729  2 000377   000000 702200 xent               TSX2  ! X66_ARET
     2449    10730
     2450    10731    1   END XUX$MORE_INPUT;
     2451    10732        %EOD;

PL6.E3A0      #003=XUX$MORE_INPUT File=XUX$COMMON_OPTIONS.:E05TSI                WED 07/30/97 09:47 Page:339
--  Include file information  --

   CP_6_C.:E05TOU  is referenced.
   CP_6.:E05TOU  cannot be made into a system file and is referenced.
   XU_PERR_C.:E05TOU  is referenced.
   XUX$NODESUBS_C.:E05TOU  is referenced.
   XUX$INTERFACE_M.:E05TOU  is referenced.
   XU_SUBS_C.:E05TOU  is referenced.
   XU_MACRO_C.:E05TOU  is referenced.
      No diagnostics issued in procedure XUX$MORE_INPUT.
PL6.E3A0      #003=XUX$MORE_INPUT File=XUX$COMMON_OPTIONS.:E05TSI                WED 07/30/97 09:47 Page:340

 **** Variables and constants ****

  ****  Section 001 RoData XUX$MORE_INPUT

  ****  Scalars and arrays  ****
OctLoc.c.b A Datatyp(siz) R M Lvl/name                 OctLoc.c.b A Datatyp(siz) R M Lvl/name

     0-0-0/d STRC(360)   r     1 XUX$PARAM_NO_PARSE

  ****  Auto variables  ****

  ****  Scalars and arrays  ****
OctLoc.c.b A Datatyp(siz) R M Lvl/name                 OctLoc.c.b A Datatyp(siz) R M Lvl/name

     3-0-0/w PTR         r     1 @P_PARAM                   6-0-0/d STRC(360)   r     1 GETLINE_PARAM
    *0-0-0/w STRC(270)   r     1 P_PARAM                    4-0-0/w PTR         r     1 XUX$MEM$

  ****  SYMREF variables  ****

  ****  Scalars and arrays  ****
OctLoc.c.b A Datatyp(siz) R M Lvl/name                 OctLoc.c.b A Datatyp(siz) R M Lvl/name

     0-0-0/d VECT        r     1 XUX$MEM

  ****  BASED and DCB variables  ****

  ****  Scalars and arrays  ****
OctLoc.c.b A Datatyp(siz) R M Lvl/name                 OctLoc.c.b A Datatyp(siz) R M Lvl/name

     0-0-0/w CHAR(256)   r     1 BUF                        0-0-0/w STRC(72)    r     1 LEGAL
     0-0-0/w STRC(504)   r     1 PARAM$PCB                  0-0-0/w UBIN        r     1 REC_INDEX(0:1023)
     0-0-0/w STRC(792)   r     1 XUX$INFO


   Procedure XUX$MORE_INPUT requires 256 words for executable code.
   Procedure XUX$MORE_INPUT requires 18 words of local(AUTO) storage.
PL6.E3A0      #003=XUX$MORE_INPUT File=XUX$COMMON_OPTIONS.:E05TSI                WED 07/30/97 09:47 Page:341
          *** CROSS REFERENCE LISTING ***
**     DENOTES     IDENTIFIER DEFINITION
<<                 IDENTIFIER'S VALUE SET
>>                 IDENTIFIER'S VALUE USED
<>                 IDENTIFIER SET AND/OR USED
--                 IDENTIFIER REFERENCED
PL6.E3A0      #003=XUX$MORE_INPUT File=XUX$COMMON_OPTIONS.:E05TSI                WED 07/30/97 09:47 Page:342
          MINI XREF LISTING

BUF
     10117**DCL     10661--ASSIGN
GETLINE_PARAM
     10560**DCL     10660<<ASSIGN  10663<>CALL
GETLINE_PARAM.BUFFER_
     10564**DCL     10661<<ASSIGN
GETLINE_PARAM.CMD_COMPLETE
     10625**DCL     10665>>IF
GETLINE_PARAM.CMD_LEN
     10570**DCL     10688>>ASSIGN
GETLINE_PARAM.ERROR_CODE
     10588**DCL     10678<>CALL
LEGAL.BC#
     10318**DCL     10701>>ASSIGN
LEGAL.DMAP#
     10322**DCL     10725>>ASSIGN
LEGAL.LO#
     10327**DCL     10721>>ASSIGN
LEGAL.LS#
     10331**DCL     10703>>ASSIGN
LEGAL.OU#
     10335**DCL     10705>>ASSIGN
LEGAL.PMAP#
     10340**DCL     10713>>ASSIGN
LEGAL.SCHEMA#
     10345**DCL     10715>>ASSIGN
LEGAL.SO#
     10350**DCL     10707>>ASSIGN
LEGAL.SRCH#
     10355**DCL     10723>>ASSIGN
LEGAL.UI#
     10359**DCL     10709>>ASSIGN
PL6.E3A0      #003=XUX$MORE_INPUT File=XUX$COMMON_OPTIONS.:E05TSI                WED 07/30/97 09:47 Page:343
LEGAL.UREF#
     10364**DCL     10717>>ASSIGN
LEGAL.WARN#
     10368**DCL     10711>>ASSIGN
LEGAL.XREF#
     10373**DCL     10719>>ASSIGN
PARAM$PCB.NCHARS
     10083**DCL     10688<<ASSIGN  10688>>ASSIGN
PARAM$PCB.NXT
      9986**DCL     10697>>IF
PARAM$PCB.TEXT$
      9937**DCL     10661>>ASSIGN
P_PARAM
      9851**DCL        39--PROC
P_PARAM.CHARPOS
      9889**DCL     10651>>IF      10661>>ASSIGN  10689>>ASSIGN
P_PARAM.CODE
      9872**DCL     10699>>DOCASE
P_PARAM.PCB$
      9895**DCL      9936--IMP-PTR 10661>>ASSIGN  10688>>ASSIGN  10688>>ASSIGN  10697>>IF
P_PARAM.REJECT
      9863**DCL     10701<<ASSIGN  10703<<ASSIGN  10705<<ASSIGN  10707<<ASSIGN  10709<<ASSIGN  10711<<ASSIGN
     10713<<ASSIGN  10715<<ASSIGN  10717<<ASSIGN  10719<<ASSIGN  10721<<ASSIGN  10723<<ASSIGN  10725<<ASSIGN
P_PARAM.TYPE
      9852**DCL     10648>>DOCASE
P_PARAM.USER$
      9899**DCL     10314--IMP-PTR 10701>>ASSIGN  10703>>ASSIGN  10705>>ASSIGN  10707>>ASSIGN  10709>>ASSIGN
     10711>>ASSIGN  10713>>ASSIGN  10715>>ASSIGN  10717>>ASSIGN  10719>>ASSIGN  10721>>ASSIGN  10723>>ASSIGN
     10725>>ASSIGN
REC_INDEX
     10407**DCL     10689<<ASSIGN
XUX$ERROR
     10414**DCL-ENT 10653--CALL    10671--CALL
XUX$ERROR1
     10415**DCL-ENT 10678--CALL
XUX$GETLINE
PL6.E3A0      #003=XUX$MORE_INPUT File=XUX$COMMON_OPTIONS.:E05TSI                WED 07/30/97 09:47 Page:344
     10413**DCL-ENT 10663--CALL
XUX$INFO.BUF_SIZE
     10136**DCL     10651>>IF
XUX$INFO.RECNO
     10135**DCL     10689>>ASSIGN  10690<<ASSIGN  10690>>ASSIGN
XUX$INFO.REC_INDEX$
     10133**DCL     10689>>ASSIGN
XUX$MEM
     10124**DCL     10646>>ASSIGN
XUX$MEM$
     10125**DCL     10131--IMP-PTR 10646<<ASSIGN  10651>>IF      10689>>ASSIGN  10689>>ASSIGN  10690>>ASSIGN
     10690>>ASSIGN
XUX$PARAM_NO_PARSE
     10449**DCL     10660>>ASSIGN

PL6.E3A0      #004=XUX$ERROR File=XUX$COMMON_OPTIONS.:E05TSI                     WED 07/30/97 09:48 Page:345
     2452        1        /*T***********************************************************/
     2453        2        /*T*                                                         */
     2454        3        /*T* Copyright (c) Bull HN Information Systems Inc., 1997    */
     2455        4        /*T*                                                         */
     2456        5        /*T***********************************************************/
     2457        6        /*X* DMC,PLM=4,IND=4,CTI=2,DTI=0,ENI=0,ECI=0,CSI=0,MCI,DCI=4 */
     2458        7        /*F*
     2459        8             NAME: XUX$ERROR
     2460        9             PURPOSE:
     2461       10                  This module takes care of errors that occur.
     2462       11             CALL:
     2463       12                  CALL XUX$ERROR (error_code,recoverable,l1,t1,l2,t2,l3,t3) ALTRET
     2464       13             PARAMETERS:
     2465       14                  error_code   - The XUX error code for the error (or the full
     2466       15                                 error code when called at ERROR1.
     2467       16                  recoverable  - '1'B means to return if the message for this
     2468       17                                 error can be printed, altreturn if not. '0'B
     2469       18                                 means always altreturn.
     2470       19                  l1,l2,l3     - lengths for text (t) fields or just numbers if
     2471       20                                 no text field.
     2472       21                  t1,t2,t3     - text fields as above.
     2473       22
     2474       23             DATA:
     2475       24                  The XUX$PARAM structure.
     2476       25             DESCRIPTION:
     2477       26                  This module gets passed an error code which it attempts to
     2478       27                  print through DCB1 and/or DCB2 if present. If an error
     2479       28                  condition occurs, or neither DCB is specified, or
     2480       29                  recoverable is set to '0'B, then ERROR will altreturn.
     2481       30        */
     2482       31
     2483       32        XUX$ERROR:PROC (P_CODE,P_RECOV,P_L1,P_T1,P_L2,P_T2,P_L3,P_T3) ALTRET;
     2484       33
     2485       34        %INCLUDE B_MICROPS_C;
     2486      206        %INCLUDE CP_6;
     2487     5765        %INCLUDE XUX$INTERFACE_M;
     2488     6542
PL6.E3A0      #004=XUX$ERROR File=XUX$COMMON_OPTIONS.:E05TSI                     WED 07/30/97 09:48 Page:346
     2489     6543    1   DCL P_CODE UBIN PARAM;
     2490     6544        %VLP_ERRCODE(FPTN=P_MON_ERROR_CODE,STCLASS=REDEF P_CODE);
     2491     6589    1   DCL P_RECOV BIT(1) ALIGNED PARAM;
     2492     6590    1   DCL P_L1 SBIN PARAM;
     2493     6591    1   DCL P_L2 SBIN PARAM;
     2494     6592    1   DCL P_L3 SBIN PARAM;
     2495     6593    1   DCL P_T1 CHAR(P_L1) PARAM;
     2496     6594    1   DCL P_T2 CHAR(P_L2) PARAM;
     2497     6595    1   DCL P_T3 CHAR(P_L3) PARAM;
     2498     6596
     2499     6597        %VLP_ERRCODE(FCG=XU,MID=X,STCLASS=CONSTANT);
     2500     6642        %VLP_ERRCODE(FPTN=XUX_ERR,STCLASS=AUTO);
     2501     6687
     2502     6688        %FPT_ERRMSG(FILEACCT=XUX_VLP_ACCT,FILENAME=VLP_NAME,STCLASS=CONSTANT);
     2503     6715        %FPT_ERRMSG(FPTN=ERR,STCLASS=AUTO);
     2504     6742
     2505     6743        %VLP_ACCT(FPTN=XUX_VLP_ACCT,ACCT=':SYS',STCLASS=CONSTANT SYMDEF);
     2506     6756        %VLP_NAME(NAME=':XUERRMSG',STCLASS=CONSTANT);
     2507     6783
     2508     6784    1   DCL 1  U1_FIELD,
     2509     6785    1         2  SIZE UBIN BYTE UNAL,
     2510     6786    1         2  TEXT CHAR(31);
     2511     6787
     2512     6788    1   DCL 1  U2_FIELD,
     2513     6789    1         2  SIZE UBIN BYTE UNAL,
     2514     6790    1         2  TEXT CHAR(31);
     2515     6791
     2516     6792    1   DCL 1  U3_FIELD,
     2517     6793    1         2  SIZE UBIN BYTE UNAL,
     2518     6794    1         2  TEXT CHAR(31);
     2519     6795
     2520     6796    1   DCL ERROR_TEXT CHAR(480);
     2521     6797
     2522     6798    1   DCL TEMP_CHAR CHAR(13);
     2523     6799    1   DCL TEMP_EDIT_CHAR CHAR(13);
     2524     6800    1   DCL TEMP_UBIN UBIN;
     2525     6801
PL6.E3A0      #004=XUX$ERROR File=XUX$COMMON_OPTIONS.:E05TSI                     WED 07/30/97 09:48 Page:347
     2526     6802        /* Zero suppress with floating - */
     2527     6803    1   DCL MOPSTR(0:3) BIT(9) CONSTANT INIT (%LTE3,ASCBIT(' '),%MFLS12,%INSM1);
     2528     6804
     2529     6805    1   DCL 1 ZERO_FIELD CONSTANT,
     2530     6806    1         2 * UBIN BYTE UNAL INIT (SIZEC('0')),
     2531     6807    1         2 * CHAR(0) INIT ('0');
     2532     6808
     2533     6809        /*
     2534     6810             Global data
     2535     6811        */
     2536     6812
     2537     6813    1   DCL XUX$MEM VECTOR SYMREF;
     2538     6814    1   DCL XUX$MEM$ PTR;
     2539     6815        %XUX$INFO;
     2540     6967        %EJECT;
PL6.E3A0      #004=XUX$ERROR File=XUX$COMMON_OPTIONS.:E05TSI                     WED 07/30/97 09:48 Page:348
     2541     6968    1       XUX_ERR=VLP_ERRCODE;
     2542     6969
     2543     6970    1       XUX_ERR.ERR# = P_CODE;
     2544     6971    1       GOTO CONTINUE;
     2545     6972
     2546     6973    1   XUX$ERROR1: ENTRY (P_CODE,P_RECOV,P_L1,P_T1,P_L2,P_T2,P_L3,P_T3) ALTRET;
     2547     6974
     2548     6975    1       XUX_ERR = P_MON_ERROR_CODE;
     2549     6976
     2550     6977    1   CONTINUE: ;
     2551     6978
     2552     6979    1       XUX$MEM$ = VBASE(XUX$MEM);
     2553     6980    1       ERR = FPT_ERRMSG;
     2554     6981    1       ERR.V_ = VECTOR(ERR.V);
     2555     6982    1       ERR.CODE_ = VECTOR(XUX_ERR);
     2556     6983    1       ERR.BUF_ = VECTOR(ERROR_TEXT);
     2557     6984    1       ERROR_TEXT = ' ';
     2558     6985    1       ERR.FIELD1_ = VECTOR(NIL);
     2559     6986    1       ERR.FIELD2_ = VECTOR(NIL);
     2560     6987    1       ERR.FIELD3_ = VECTOR(NIL);
     2561     6988    1       ERR.V.OUTDCB1# = XUX$INFO.XUX.DCB1#;
     2562     6989    1       ERR.V.OUTDCB2# = XUX$INFO.XUX.DCB2#;
     2563     6990
     2564     6991    1       XUX$INFO.XUX.ERROR_CODE = XUX_ERR;
     2565     6992
     2566     6993        /*
     2567     6994             At this point, if no DCBs are set, there is no point in
     2568     6995             any further processing, so we'll just alreturn here.
     2569     6996        */
     2570     6997
     2571     6998    1       IF XUX$INFO.XUX.DCB1# = DCBNUM(NIL) AND XUX$INFO.XUX.DCB2# = DCBNUM(NIL)
     2572     6999    2       THEN DO;
     2573     7000    2           XUX$INFO.XUX.ERROR# = '1'B; /* Indicate unprocessed errors */
     2574     7001    2           ALTRETURN;
     2575     7002    2       END;
     2576     7003
     2577     7004        /*  Set up fields for error message */
PL6.E3A0      #004=XUX$ERROR File=XUX$COMMON_OPTIONS.:E05TSI                     WED 07/30/97 09:48 Page:349
     2578     7005
     2579     7006    1       IF ADDR(P_L1) ~= ADDR(NIL)
     2580     7007    2       THEN DO;
     2581     7008    2           ERR.FIELD1_ = VECTOR(U1_FIELD);
     2582     7009    2           CALL CONVERT_FIELDS(P_T1,P_L1,U1_FIELD);
     2583     7010    2       END;
     2584     7011
     2585     7012    1       IF ADDR(P_L2) ~= ADDR(NIL)
     2586     7013    2       THEN DO;
     2587     7014    2           ERR.FIELD2_ = VECTOR(U2_FIELD);
     2588     7015    2           CALL CONVERT_FIELDS(P_T2,P_L2,U2_FIELD);
     2589     7016    2       END;
     2590     7017
     2591     7018    1       IF ADDR(P_L3) ~= ADDR(NIL)
     2592     7019    2       THEN DO;
     2593     7020    2           ERR.FIELD3_ = VECTOR(U3_FIELD);
     2594     7021    2           CALL CONVERT_FIELDS(P_T3,P_L3,U3_FIELD);
     2595     7022    2       END;
     2596     7023
     2597     7024    1       CALL M$ERRMSG(ERR)
     2598     7025    2       WHENALTRETURN DO;
     2599     7026    2           XUX$INFO.XUX.ERROR# = '1'B;
     2600     7027    2           ALTRETURN;
     2601     7028    2       END;
     2602     7029
     2603     7030    1       IF NOT P_RECOV
     2604     7031    2       THEN DO;
     2605     7032    2           ALTRETURN;
     2606     7033    2       END;
     2607     7034
     2608     7035
     2609     7036        %EJECT;
PL6.E3A0      #004=XUX$ERROR File=XUX$COMMON_OPTIONS.:E05TSI                     WED 07/30/97 09:48 Page:350
     2610     7037        /*I*
     2611     7038             NAME: CONVERT_FIELDS
     2612     7039             PURPOSE:
     2613     7040                  This procedure converts the fields supplied by calls to the error
     2614     7041                  message routines into the proper form and puts them into the proper
     2615     7042                  location.
     2616     7043             CALL:
     2617     7044                  CALL CONVERT_FIELDS (TEXT,SBIN,FIELD)
     2618     7045             PARAMETERS:
     2619     7046                  TEXT    - The text field to be used
     2620     7047                  SBIN    - the count field to be used
     2621     7048                  FIELD   - The place in which to store the reults
     2622     7049        */
     2623     7050    1   CONVERT_FIELDS: PROC(P_TEXT,P_SBIN,P_FIELD);
     2624     7051
     2625     7052    2   DCL P_TEXT CHAR(P_FIELD.SIZE);
     2626     7053    2   DCL P_SBIN SBIN;
     2627     7054    2   DCL 1 P_FIELD,
     2628     7055    2         2 SIZE UBIN BYTE UNAL,
     2629     7056    2         2 TEXT CHAR(31);
     2630     7057
     2631     7058         /*Check for text being passed*/
     2632     7059    2       IF ADDR(P_TEXT) ~= ADDR(NIL)
     2633     7060    3       THEN DO;
     2634     7061    3           IF P_SBIN > 31
     2635     7062    3           THEN
     2636     7063    3               P_FIELD.SIZE = 31;
     2637     7064    4           ELSE DO;
     2638     7065    4               IF P_SBIN < 0
     2639     7066    4               THEN
     2640     7067    4                   P_FIELD.SIZE = 0;
     2641     7068    4               ELSE
     2642     7069    4                   P_FIELD.SIZE = P_SBIN;
     2643     7070    4           END;
     2644     7071    3           P_FIELD.TEXT = P_TEXT;
     2645     7072    3       END;
     2646     7073         /*Handle no text*/
PL6.E3A0      #004=XUX$ERROR File=XUX$COMMON_OPTIONS.:E05TSI                     WED 07/30/97 09:48 Page:351
     2647     7074    3       ELSE DO;
     2648     7075    3           CALL BINXCHAR( TEMP_CHAR, P_SBIN );
     2649     7076    3           CALL EDITXCHAR( TEMP_EDIT_CHAR, , , MOPSTR, TEMP_CHAR );
     2650     7077    3           CALL INDEX1R( TEMP_UBIN, ' ', TEMP_EDIT_CHAR );
     2651     7078    3           IF TEMP_UBIN = LENGTHV(TEMP_EDIT_CHAR)
     2652     7079    3           THEN
     2653     7080    3               P_FIELD = ZERO_FIELD;
     2654     7081    4           ELSE DO;
     2655     7082    4               P_FIELD.SIZE = LENGTHV(TEMP_EDIT_CHAR) - TEMP_UBIN;
     2656     7083    4               P_FIELD.TEXT = SUBSTR(TEMP_EDIT_CHAR, TEMP_UBIN + 1);
     2657     7084    4           END;
     2658     7085    3       END;
     2659     7086    2   END CONVERT_FIELDS;
     2660     7087    1   END XUX$ERROR;
     2661     7088        /*F*
     2662     7089                   NAME:  XUX_Linking Information
     2663     7090                        The XUX services reside in the following places:
     2664     7091                        .spf
     2665     7092                        .fif
     2666     7093                        ^^^^LEMUR library:    :ETC_SYSTEM.:SYS
     2667     7094                        .spf 0
     2668     7095                        ^^^^^^^^^^^^^^^^^^^^^^:LIB_SYSTEM.:SYS
     2669     7096                        .fin
     2670     7097
     2671     7098                        ..::IX "Linker"
     2672     7099                        If the program using the XUX services is all
     2673     7100                        written in PL6 and does not make use of a shared
     2674     7101                        library other than :SHARED_SYSTEM, then no
     2675     7102                        special linking information is necessary.
     2676     7103                        The linker will automatically associate
     2677     7104                        :SHARED_SYSTEM with the program and will
     2678     7105                        load the XUX services from the unshared library
     2679     7106                        :ETC_SYSTEM.:SYS.
     2680     7107
     2681     7108                        If the program uses a different shared library,
     2682     7109                        the user should use UNSAT=(:LIB_SYSTEM.:SYS) as an
     2683     7110                        option on the link command.  The linker will
PL6.E3A0      #004=XUX$ERROR File=XUX$COMMON_OPTIONS.:E05TSI                     WED 07/30/97 09:48 Page:352
     2684     7111                        associate any required modules from the
     2685     7112                        library file.
     2686     7113        */
     2687     7114        /*F*
     2688     7115             NAME:  XUX_DCB Usage
     2689     7116                  The XUX services dynamically acquire any DCBs they need to
     2690     7117                  read and parse the command line.  Optionally, the user may
     2691     7118                  supply DCBs through which any error messages are written
     2692     7119                  by using the DCB1 and DCB2 parameters of the XUX$PARAM
     2693     7120                  macro.
     2694     7121        */
     2695     7122        /*F*
     2696     7123             NAME:  XUX_Error Codes
     2697     7124        The following error conditions can be returned from an XUX service.
     2698     7125        The error will always be returned to the user in standard CP-6
     2699     7126        error code format (VLP_ERRCODE).  If the user of the XUX service
     2700     7127        wishes to report the text of the message, M$ERRMSG should be passed
     2701     7128        the error code returned by XUX.
     2702     7129        ..::L2 "XUX Monitor Errors\\X"
     2703     7130        ..VA$M_FOOTER "\XUX Monitor Errors"
     2704     7131        Any monitor error returned by a monitor service called by XUX will
     2705     7132        be returned by the XUX service that received the error.  These
     2706     7133        should be reported to the user of the program.
     2707     7134        ..::L2 "XUX Normal Errors\\X"
     2708     7135        ..VA$M_FOOTER "\XUX Normal Errors"
     2709     7136        These errors indicate that there is something wrong with the command
     2710     7137        line being parsed, a resource allocation limit was reached, or an
     2711     7138        XUX limit was reached.  In the case of a memory limit being reached,
     2712     7139        the XUX service can be invoked successfully after more memory is
     2713     7140        acquired.
     2714     7141
     2715     7142        From XUX$COMMON_OPTIONS:
     2716     7143
     2717     7144        .inl 4
     2718     7145        E$XUX#BAD_BC^^^^
     2719     7146        The BC unit %U1 specified is not between 1 and 131071.
     2720     7147
PL6.E3A0      #004=XUX$ERROR File=XUX$COMMON_OPTIONS.:E05TSI                     WED 07/30/97 09:48 Page:353
     2721     7148        E$XUX#BAD_SRCH_FID^^^^
     2722     7149        "%U1" is not a valid SRCH account.
     2723     7150
     2724     7151        E$XUX#CANT_GET_MEM^^^^
     2725     7152        Unable to allocate enough memory to process command line options.
     2726     7153
     2727     7154        E$XUX#CONFLICTING_DMAP_OPTS^^^^
     2728     7155        Conflicting options for DMAP, NDMAP, MDMAP or NMDMAP.
     2729     7156
     2730     7157        E$XUX#DMAP_SCHEMA_CONFLICT^^^^
     2731     7158        NSCHEMA was requested with DMAP or MDMAP.  MSCHEMA will be
     2732     7159        generated instead.
     2733     7160
     2734     7161        E$XUX#DUPE_BC^^^^
     2735     7162        Duplicate BC unit number %U1 found.
     2736     7163
     2737     7164        E$XUX#DUPE_OPTION^^^^
     2738     7165        %U2 was found but %U1 was already specified.
     2739     7166
     2740     7167        E$XUX#ILLEGAL_DCB_FOUND^^^^
     2741     7168        A DCB was specified in the %U1 position, but is not legal
     2742     7169        for this processor.
     2743     7170
     2744     7171        E$XUX#ILLEGAL_OPTION^^^^
     2745     7172        The standard option %U1 is not valid for this processor.
     2746     7173
     2747     7174        E$XUX#NO_MORE_BUFFER^^^^
     2748     7175        The command line options specified were too long to process.
     2749     7176
     2750     7177        E$XUX#PMAP_SCHEMA_CONFLICT^^^^
     2751     7178        NSCHEMA was requested with PMAP or MPMAP.  MSCHEMA will be
     2752     7179        generated instead.
     2753     7180
     2754     7181        E$XUX#SYNTAX_ERROR^^^^
     2755     7182        Syntax error.  Alternatives at this point are:
     2756     7183
     2757     7184        E$XUX#TOO_MANY_BC_UNITS^^^^
PL6.E3A0      #004=XUX$ERROR File=XUX$COMMON_OPTIONS.:E05TSI                     WED 07/30/97 09:48 Page:354
     2758     7185        More than 8 BC units were specified.
     2759     7186
     2760     7187        E$XUX#TOO_MANY_SRCH_ACCTS^^^^
     2761     7188        More than %U1 accounts were listed in the SRCH option.
     2762     7189        ..::L2 "XUX Programmer Errors\\X"
     2763     7190        ..VA$M_FOOTER "\XUX Programmer Errors"
     2764     7191        These errors arise, for the most part, when a required structure
     2765     7192        or routine is not present.  An exception is E$XUX#BAD_PARSE_NODE
     2766     7193        which indicates that XUX$COMMON_OPTIONS found a node it was not
     2767     7194        prepared for.  This may occur if non-standard nodes are used
     2768     7195        incorrectly.
     2769     7196
     2770     7197        From  XUX$COMMON_OPTIONS:
     2771     7198
     2772     7199        .inl 4
     2773     7200        E$XUX#BAD_PARSE_NODE^^^^
     2774     7201        Internal error: Bad parse node #%U1 encountered.
     2775     7202
     2776     7203        E$XUX#ILLEGAL_NSTD_OPT^^^^
     2777     7204        Internal error: A non-standard option was found but
     2778     7205        XUX$LEGAL_OPTIONS.NSTD was not set.
     2779     7206
     2780     7207        E$XUX#MUST_HAVE_LEGAL_OPTIONS^^^^
     2781     7208        Internal error: No XUX$LEGAL_OPTIONS specified.
     2782     7209
     2783     7210        E$XUX#MUST_HAVE_STD_OPTIONS^^^^
     2784     7211        Internal error: No XUX$STD_OPTIONS specified.
     2785     7212
     2786     7213        E$XUX#NO_BC_STRUCT^^^^
     2787     7214        Internal error: No XUX$BC_UNIT structure specified.
     2788     7215
     2789     7216        E$XUX#NO_PARAM_SPECIFIED^^^^
     2790     7217        Internal error: XUX$COMMON_OPTIONS was called with no parameters.
     2791     7218
     2792     7219        E$XUX#NO_SRCH_LIST_STRUCT^^^^
     2793     7220        Internal error: No XUX$SRCH_LIST structure specified.
     2794     7221
PL6.E3A0      #004=XUX$ERROR File=XUX$COMMON_OPTIONS.:E05TSI                     WED 07/30/97 09:48 Page:355
     2795     7222        E$XUX#NO_USER_ROUTINE^^^^
     2796     7223        Internal error: Non-standard options have been allowed but
     2797     7224        no user routine has been provided.
     2798     7225
     2799     7226        .inl 0
     2800     7227        From XUX$GETLINE:
     2801     7228
     2802     7229        .inl 4
     2803     7230        E$XUX#BUFFER_IS_NIL^^^^
     2804     7231        No buffer was specified on a call to XUX$GETLINE.
     2805     7232
     2806     7233        E$XUX#CANT_CALL_AGAIN^^^^
     2807     7234        This call to XUX$GETLINE is illegal because of either a
     2808     7235        previous error condition or a previous EOF condition.
     2809     7236        XUX$GETLINE was called after EOF (or end of options
     2810     7237        on B$JIT.CCBUF) or an error occurred without calling
     2811     7238        XUX$CLEANUP in between.
     2812     7239        ..::L2 "XUX User Routine Errors\\X"
     2813     7240        ..VA$M_FOOTER "\XUX User Routine Errors"
     2814     7241        These errors only appear if non-standard nodes are used, as they
     2815     7242        indicate that the user's non-standard node handler
     2816     7243        ALTRETURNed. E$XUX#USER_ROUTINE_BUG is returned when the
     2817     7244        user routine ALTRETURNed to XUX$COMMON_OPTIONS indicating that
     2818     7245        no further processing should be done.
     2819     7246        E$XUX#USER_ROUTINE_ALTRETURNED is returned when the user routine
     2820     7247        ALTRETURNs but indicates that processing is to continue.
     2821     7248
     2822     7249        From XUX$COMMON_OPTIONS:
     2823     7250
     2824     7251        .inl 4
     2825     7252        E$XUX#USER_ROUTINE_ALTRETURNED^^^^
     2826     7253        The non-standard node handler ALTRETURNed.
     2827     7254        .spf 0
     2828     7255        Note:  This message will never be printed out by any XUX
     2829     7256        routine. It is here only so that the user can test
     2830     7257        XUX$PARAM.ERROR_CODE and handle these types of errors.
     2831     7258
PL6.E3A0      #004=XUX$ERROR File=XUX$COMMON_OPTIONS.:E05TSI                     WED 07/30/97 09:48 Page:356
     2832     7259        E$XUX#USER_ROUTINE_BUG^^^^
     2833     7260        Internal error: The non-standard options user routine
     2834     7261        ALTRETURNed indicating that it could not handle a
     2835     7262        specified option.
     2836     7263        ..::L2 "XUX Internal Errors\\X"
     2837     7264        ..VA$M_FOOTER "\XUX Internal Errors"
     2838     7265        These errors are reported when an internal error occurs within one
     2839     7266        of the XUX routines.  If any of these errors occurs, please
     2840     7267        report it in STARLOG.
     2841     7268
     2842     7269        .inl 4
     2843     7270        E$XUX#BAD_INTERNAL_FID^^^^
     2844     7271        Internal error: Bad internal FID for SRCH list.
     2845     7272        Please report this in STARLOG.
     2846     7273
     2847     7274        E$XUX#INTERNAL_ERROR^^^^
     2848     7275        Internal error: Problem in XUX$COMMON_OPTIONS.
     2849     7276        Please report this in STARLOG.
     2850     7277
     2851     7278        E$XUX#NO_MORE_INPUT^^^^
     2852     7279        Internal error: Unexpected end-of-input from *CONTINUATION_COMMAND.
     2853     7280        Please report this in STARLOG.
     2854     7281        */

PL6.E3A0      #004=XUX$ERROR File=XUX$COMMON_OPTIONS.:E05TSI                     WED 07/30/97 09:48 Page:357
--  Include file information  --

   XUX$INTERFACE_M.:E05TOU  is referenced.
   CP_6_C.:E05TOU  is referenced.
   CP_6.:E05TOU  cannot be made into a system file and is referenced.
   B_MICROPS_C.:E05TOU  is referenced.
      No diagnostics issued in procedure XUX$ERROR.

   Procedure XUX$ERROR requires 191 words for executable code.
   Procedure XUX$ERROR requires 198 words of local(AUTO) storage.

    No errors detected in file XUX$COMMON_OPTIONS.:E05TSI    .

PL6.E3A0      #004=XUX$ERROR File=XUX$COMMON_OPTIONS.:E05TSI                     WED 07/30/97 09:48 Page:358

 Object Unit name= XUX$ERROR                                  File name= XUX$COMMON_OPTIONS.:E05TOU
 UTS= JUL 30 '97 09:48:08.48 WED                              Compiler= PL-6/E31         Sev=      00
 SharedLib= :SHARED_SYSTEM                                    Alt SharedLib=


    ****  Control sections  ****

 Sect   Type Bound  Init  Size OctSiz  Section name(segment info)
    0   DCB   even  none     0      0  M$UC
    1  RoData even  UTS     35     43  XUX$ERROR
    2   Proc  even  none   191    277  XUX$ERROR
    3  RoData even  none     6      6  XUX$ERROR

    ****  Entry defs  ****

                              Check   Calling
                             calling  sequence
  Sect OctLoc Primary Altret sequence   type   Parms  Name
     2      0   yes    yes     yes      Std        8  XUX$ERROR
     2     13          yes     yes      Std        8  XUX$ERROR1

  ****  Data defs  ****

 Sect OctLoc  Name                           Sect OctLoc  Name
    1     34  XUX_VLP_ACCT

  ****  Entry refs  ****

         Check        Calling
        calling       sequence
Altret sequence SRef   type   Args  Name
                       nStd      0 X66_AUTO_N
                       Std       0 B_CONSPOOL_D
                       nStd      0 X66_AALT
                       nStd      0 X66_ARET
PL6.E3A0      #004=XUX$ERROR File=XUX$COMMON_OPTIONS.:E05TSI                     WED 07/30/97 09:48 Page:359

  ****  Data refs  ****

  Flags:  r = read only, s = secondary
Flgs Name                             Flgs Name                             Flgs Name
     M$UC                                  XUX$MEM                               B_VECTNIL

  ****  Segment refs  ****

  Flags:  r = read only, s = secondary
Flgs Name                             Flgs Name                             Flgs Name
     ISSID                                 NULLSID
PL6.E3A0      #004=XUX$ERROR File=XUX$COMMON_OPTIONS.:E05TSI                     WED 07/30/97 09:48 Page:360


     2452        1        /*T***********************************************************/
     2453        2        /*T*                                                         */
     2454        3        /*T* Copyright (c) Bull HN Information Systems Inc., 1997    */
     2455        4        /*T*                                                         */
     2456        5        /*T***********************************************************/
     2457        6        /*X* DMC,PLM=4,IND=4,CTI=2,DTI=0,ENI=0,ECI=0,CSI=0,MCI,DCI=4 */
     2458        7        /*F*
     2459        8             NAME: XUX$ERROR
     2460        9             PURPOSE:
     2461       10                  This module takes care of errors that occur.
     2462       11             CALL:
     2463       12                  CALL XUX$ERROR (error_code,recoverable,l1,t1,l2,t2,l3,t3) ALTRET
     2464       13             PARAMETERS:
     2465       14                  error_code   - The XUX error code for the error (or the full
     2466       15                                 error code when called at ERROR1.
     2467       16                  recoverable  - '1'B means to return if the message for this
     2468       17                                 error can be printed, altreturn if not. '0'B
     2469       18                                 means always altreturn.
     2470       19                  l1,l2,l3     - lengths for text (t) fields or just numbers if
     2471       20                                 no text field.
     2472       21                  t1,t2,t3     - text fields as above.
     2473       22
     2474       23             DATA:
     2475       24                  The XUX$PARAM structure.
     2476       25             DESCRIPTION:
     2477       26                  This module gets passed an error code which it attempts to
     2478       27                  print through DCB1 and/or DCB2 if present. If an error
     2479       28                  condition occurs, or neither DCB is specified, or
     2480       29                  recoverable is set to '0'B, then ERROR will altreturn.
     2481       30        */
     2482       31
     2483       32        XUX$ERROR:PROC (P_CODE,P_RECOV,P_L1,P_T1,P_L2,P_T2,P_L3,P_T3) ALTRET;

     32  2 000000   000000 700200 xent  XUX$ERROR    TSX0  ! X66_AUTO_N
         2 000001   000306 000010                    ZERO    198,8

PL6.E3A0      #004=XUX$ERROR File=XUX$COMMON_OPTIONS.:E05TSI                     WED 07/30/97 09:48 Page:361
     2484       33
     2485       34        %INCLUDE B_MICROPS_C;
     2486      206        %INCLUDE CP_6;
     2487     5765        %INCLUDE XUX$INTERFACE_M;
     2488     6542
     2489     6543    1   DCL P_CODE UBIN PARAM;
     2490     6544        %VLP_ERRCODE(FPTN=P_MON_ERROR_CODE,STCLASS=REDEF P_CODE);
     2491     6589    1   DCL P_RECOV BIT(1) ALIGNED PARAM;
     2492     6590    1   DCL P_L1 SBIN PARAM;
     2493     6591    1   DCL P_L2 SBIN PARAM;
     2494     6592    1   DCL P_L3 SBIN PARAM;
     2495     6593    1   DCL P_T1 CHAR(P_L1) PARAM;
     2496     6594    1   DCL P_T2 CHAR(P_L2) PARAM;
     2497     6595    1   DCL P_T3 CHAR(P_L3) PARAM;
     2498     6596
     2499     6597        %VLP_ERRCODE(FCG=XU,MID=X,STCLASS=CONSTANT);
     2500     6642        %VLP_ERRCODE(FPTN=XUX_ERR,STCLASS=AUTO);
     2501     6687
     2502     6688        %FPT_ERRMSG(FILEACCT=XUX_VLP_ACCT,FILENAME=VLP_NAME,STCLASS=CONSTANT);
     2503     6715        %FPT_ERRMSG(FPTN=ERR,STCLASS=AUTO);
     2504     6742
     2505     6743        %VLP_ACCT(FPTN=XUX_VLP_ACCT,ACCT=':SYS',STCLASS=CONSTANT SYMDEF);
     2506     6756        %VLP_NAME(NAME=':XUERRMSG',STCLASS=CONSTANT);
     2507     6783
     2508     6784    1   DCL 1  U1_FIELD,
     2509     6785    1         2  SIZE UBIN BYTE UNAL,
     2510     6786    1         2  TEXT CHAR(31);
     2511     6787
     2512     6788    1   DCL 1  U2_FIELD,
     2513     6789    1         2  SIZE UBIN BYTE UNAL,
     2514     6790    1         2  TEXT CHAR(31);
     2515     6791
     2516     6792    1   DCL 1  U3_FIELD,
     2517     6793    1         2  SIZE UBIN BYTE UNAL,
     2518     6794    1         2  TEXT CHAR(31);
     2519     6795
     2520     6796    1   DCL ERROR_TEXT CHAR(480);
PL6.E3A0      #004=XUX$ERROR File=XUX$COMMON_OPTIONS.:E05TSI                     WED 07/30/97 09:48 Page:362
     2521     6797
     2522     6798    1   DCL TEMP_CHAR CHAR(13);
     2523     6799    1   DCL TEMP_EDIT_CHAR CHAR(13);
     2524     6800    1   DCL TEMP_UBIN UBIN;
     2525     6801
     2526     6802        /* Zero suppress with floating - */
     2527     6803    1   DCL MOPSTR(0:3) BIT(9) CONSTANT INIT (%LTE3,ASCBIT(' '),%MFLS12,%INSM1);
     2528     6804
     2529     6805    1   DCL 1 ZERO_FIELD CONSTANT,
     2530     6806    1         2 * UBIN BYTE UNAL INIT (SIZEC('0')),
     2531     6807    1         2 * CHAR(0) INIT ('0');
     2532     6808
     2533     6809        /*
     2534     6810             Global data
     2535     6811        */
     2536     6812
     2537     6813    1   DCL XUX$MEM VECTOR SYMREF;
     2538     6814    1   DCL XUX$MEM$ PTR;
     2539     6815        %XUX$INFO;
     2540     6967        %EJECT;
PL6.E3A0      #004=XUX$ERROR File=XUX$COMMON_OPTIONS.:E05TSI                     WED 07/30/97 09:48 Page:363
     2541     6968    1       XUX_ERR=VLP_ERRCODE;

   6968  2 000002   000000 236000 1                  LDQ     VLP_ERRCODE
         2 000003   200013 756100                    STQ     XUX_ERR,,AUTO

     2542     6969
     2543     6970    1       XUX_ERR.ERR# = P_CODE;

   6970  2 000004   200003 470500                    LDP0    @P_CODE,,AUTO
         2 000005   000000 236100                    LDQ     0,,PR0
         2 000006   000003 736000                    QLS     3
         2 000007   200013 676100                    ERQ     XUX_ERR,,AUTO
         2 000010   377770 376007                    ANQ     131064,DL
         2 000011   200013 656100                    ERSQ    XUX_ERR,,AUTO

     2544     6971    1       GOTO CONTINUE;

   6971  2 000012   000020 710000 2                  TRA     CONTINUE

     2545     6972
     2546     6973    1   XUX$ERROR1: ENTRY (P_CODE,P_RECOV,P_L1,P_T1,P_L2,P_T2,P_L3,P_T3) ALTRET;

   6973  2 000013   000000 700200 xent  XUX$ERROR1   TSX0  ! X66_AUTO_N
         2 000014   000306 000010                    ZERO    198,8

     2547     6974
     2548     6975    1       XUX_ERR = P_MON_ERROR_CODE;

   6975  2 000015   200003 470500                    LDP0    @P_CODE,,AUTO
         2 000016   000000 236100                    LDQ     0,,PR0
         2 000017   200013 756100                    STQ     XUX_ERR,,AUTO

   6975  2 000020                       CONTINUE     null
     2549     6976
     2550     6977    1   CONTINUE: ;
     2551     6978
     2552     6979    1       XUX$MEM$ = VBASE(XUX$MEM);
PL6.E3A0      #004=XUX$ERROR File=XUX$COMMON_OPTIONS.:E05TSI                     WED 07/30/97 09:48 Page:364

   6979  2 000020   000001 236000 xsym               LDQ     XUX$MEM+1
         2 000021   200277 756100                    STQ     XUX$MEM$,,AUTO

     2553     6980    1       ERR = FPT_ERRMSG;

   6980  2 000022   000100 100400                    MLR     fill='000'O
         2 000023   000002 000150 1                  ADSC9   FPT_ERRMSG               cn=0,n=104
         2 000024   200014 000150                    ADSC9   ERR,,AUTO                cn=0,n=104

     2554     6981    1       ERR.V_ = VECTOR(ERR.V);

   6981  2 000025   000000 235000 3                  LDA     0
         2 000026   200304 452500                    STP2    @P_FIELD+1,,AUTO
         2 000027   200304 236100                    LDQ     @P_FIELD+1,,AUTO
         2 000030   000042 036003                    ADLQ    34,DU
         2 000031   200014 757100                    STAQ    ERR,,AUTO

     2555     6982    1       ERR.CODE_ = VECTOR(XUX_ERR);

   6982  2 000032   777640 235007                    LDA     -96,DL
         2 000033   200304 452500                    STP2    @P_FIELD+1,,AUTO
         2 000034   200304 236100                    LDQ     @P_FIELD+1,,AUTO
         2 000035   000013 036003                    ADLQ    11,DU
         2 000036   200016 757100                    STAQ    ERR+2,,AUTO

     2556     6983    1       ERR.BUF_ = VECTOR(ERROR_TEXT);

   6983  2 000037   000001 235000 3                  LDA     1
         2 000040   200304 452500                    STP2    @P_FIELD+1,,AUTO
         2 000041   200304 236100                    LDQ     @P_FIELD+1,,AUTO
         2 000042   000076 036003                    ADLQ    62,DU
         2 000043   200020 757100                    STAQ    ERR+4,,AUTO

     2557     6984    1       ERROR_TEXT = ' ';

   6984  2 000044   040100 100400                    MLR     fill='040'O
PL6.E3A0      #004=XUX$ERROR File=XUX$COMMON_OPTIONS.:E05TSI                     WED 07/30/97 09:48 Page:365
         2 000045   000035 000001 xsym               ADSC9   B_VECTNIL+29             cn=0,n=1
         2 000046   200076 000740                    ADSC9   ERROR_TEXT,,AUTO         cn=0,n=480

     2558     6985    1       ERR.FIELD1_ = VECTOR(NIL);

   6985  2 000047   000002 237000 3                  LDAQ    2
         2 000050   200030 757100                    STAQ    ERR+12,,AUTO

     2559     6986    1       ERR.FIELD2_ = VECTOR(NIL);

   6986  2 000051   000002 237000 3                  LDAQ    2
         2 000052   200032 757100                    STAQ    ERR+14,,AUTO

     2560     6987    1       ERR.FIELD3_ = VECTOR(NIL);

   6987  2 000053   000002 237000 3                  LDAQ    2
         2 000054   200034 757100                    STAQ    ERR+16,,AUTO

     2561     6988    1       ERR.V.OUTDCB1# = XUX$INFO.XUX.DCB1#;

   6988  2 000055   200277 471500                    LDP1    XUX$MEM$,,AUTO
         2 000056   100015 220100                    LDX0    13,,PR1
         2 000057   200042 440100                    SXL0    ERR+22,,AUTO

     2562     6989    1       ERR.V.OUTDCB2# = XUX$INFO.XUX.DCB2#;

   6989  2 000060   100015 721100                    LXL1    13,,PR1
         2 000061   200043 741100                    STX1    ERR+23,,AUTO

     2563     6990
     2564     6991    1       XUX$INFO.XUX.ERROR_CODE = XUX_ERR;

   6991  2 000062   200013 236100                    LDQ     XUX_ERR,,AUTO
         2 000063   100013 756100                    STQ     11,,PR1

     2565     6992
     2566     6993        /*
PL6.E3A0      #004=XUX$ERROR File=XUX$COMMON_OPTIONS.:E05TSI                     WED 07/30/97 09:48 Page:366
     2567     6994             At this point, if no DCBs are set, there is no point in
     2568     6995             any further processing, so we'll just alreturn here.
     2569     6996        */
     2570     6997
     2571     6998    1       IF XUX$INFO.XUX.DCB1# = DCBNUM(NIL) AND XUX$INFO.XUX.DCB2# = DCBNUM(NIL)

   6998  2 000064   100015 220100                    LDX0    13,,PR1
         2 000065   000073 601000 2                  TNZ     s:7006
         2 000066   100015 721100                    LXL1    13,,PR1
         2 000067   000073 601000 2                  TNZ     s:7006

     2572     6999    2       THEN DO;

     2573     7000    2           XUX$INFO.XUX.ERROR# = '1'B; /* Indicate unprocessed errors */

   7000  2 000070   400000 236003                    LDQ     -131072,DU
         2 000071   100014 756100                    STQ     12,,PR1

     2574     7001    2           ALTRETURN;

   7001  2 000072   000000 702200 xent               TSX2  ! X66_AALT

     2575     7002    2       END;
     2576     7003
     2577     7004        /*  Set up fields for error message */
     2578     7005
     2579     7006    1       IF ADDR(P_L1) ~= ADDR(NIL)

   7006  2 000073   200005 236100                    LDQ     @P_L1,,AUTO
         2 000074   000001 116000 xsym               CMPQ    B_VECTNIL+1
         2 000075   000113 600000 2                  TZE     s:7012

     2580     7007    2       THEN DO;

     2581     7008    2           ERR.FIELD1_ = VECTOR(U1_FIELD);

   7008  2 000076   000004 235000 3                  LDA     4
PL6.E3A0      #004=XUX$ERROR File=XUX$COMMON_OPTIONS.:E05TSI                     WED 07/30/97 09:48 Page:367
         2 000077   200304 452500                    STP2    @P_FIELD+1,,AUTO
         2 000100   200304 236100                    LDQ     @P_FIELD+1,,AUTO
         2 000101   000046 036003                    ADLQ    38,DU
         2 000102   200030 757100                    STAQ    ERR+12,,AUTO

     2582     7009    2           CALL CONVERT_FIELDS(P_T1,P_L1,U1_FIELD);

   7009  2 000103   200046 633500                    EPPR3   U1_FIELD,,AUTO
         2 000104   200303 453500                    STP3    @P_SBIN+1,,AUTO
         2 000105   200005 236100                    LDQ     @P_L1,,AUTO
         2 000106   200302 756100                    STQ     @P_TEXT+1,,AUTO
         2 000107   200006 236100                    LDQ     @P_T1,,AUTO
         2 000110   200301 756100                    STQ     XUX$MEM$+2,,AUTO
         2 000111   000171 701000 2                  TSX1    CONVERT_FIELDS
         2 000112   000000 011000                    NOP     0

     2583     7010    2       END;

     2584     7011
     2585     7012    1       IF ADDR(P_L2) ~= ADDR(NIL)

   7012  2 000113   200007 236100                    LDQ     @P_L2,,AUTO
         2 000114   000001 116000 xsym               CMPQ    B_VECTNIL+1
         2 000115   000133 600000 2                  TZE     s:7018

     2586     7013    2       THEN DO;

     2587     7014    2           ERR.FIELD2_ = VECTOR(U2_FIELD);

   7014  2 000116   000004 235000 3                  LDA     4
         2 000117   200304 452500                    STP2    @P_FIELD+1,,AUTO
         2 000120   200304 236100                    LDQ     @P_FIELD+1,,AUTO
         2 000121   000056 036003                    ADLQ    46,DU
         2 000122   200032 757100                    STAQ    ERR+14,,AUTO

     2588     7015    2           CALL CONVERT_FIELDS(P_T2,P_L2,U2_FIELD);

PL6.E3A0      #004=XUX$ERROR File=XUX$COMMON_OPTIONS.:E05TSI                     WED 07/30/97 09:48 Page:368
   7015  2 000123   200056 630500                    EPPR0   U2_FIELD,,AUTO
         2 000124   200303 450500                    STP0    @P_SBIN+1,,AUTO
         2 000125   200007 236100                    LDQ     @P_L2,,AUTO
         2 000126   200302 756100                    STQ     @P_TEXT+1,,AUTO
         2 000127   200010 236100                    LDQ     @P_T2,,AUTO
         2 000130   200301 756100                    STQ     XUX$MEM$+2,,AUTO
         2 000131   000171 701000 2                  TSX1    CONVERT_FIELDS
         2 000132   000000 011000                    NOP     0

     2589     7016    2       END;

     2590     7017
     2591     7018    1       IF ADDR(P_L3) ~= ADDR(NIL)

   7018  2 000133   200011 236100                    LDQ     @P_L3,,AUTO
         2 000134   000001 116000 xsym               CMPQ    B_VECTNIL+1
         2 000135   000153 600000 2                  TZE     s:7024

     2592     7019    2       THEN DO;

     2593     7020    2           ERR.FIELD3_ = VECTOR(U3_FIELD);

   7020  2 000136   000004 235000 3                  LDA     4
         2 000137   200304 452500                    STP2    @P_FIELD+1,,AUTO
         2 000140   200304 236100                    LDQ     @P_FIELD+1,,AUTO
         2 000141   000066 036003                    ADLQ    54,DU
         2 000142   200034 757100                    STAQ    ERR+16,,AUTO

     2594     7021    2           CALL CONVERT_FIELDS(P_T3,P_L3,U3_FIELD);

   7021  2 000143   200066 630500                    EPPR0   U3_FIELD,,AUTO
         2 000144   200303 450500                    STP0    @P_SBIN+1,,AUTO
         2 000145   200011 236100                    LDQ     @P_L3,,AUTO
         2 000146   200302 756100                    STQ     @P_TEXT+1,,AUTO
         2 000147   200012 236100                    LDQ     @P_T3,,AUTO
         2 000150   200301 756100                    STQ     XUX$MEM$+2,,AUTO
         2 000151   000171 701000 2                  TSX1    CONVERT_FIELDS
PL6.E3A0      #004=XUX$ERROR File=XUX$COMMON_OPTIONS.:E05TSI                     WED 07/30/97 09:48 Page:369
         2 000152   000000 011000                    NOP     0

     2595     7022    2       END;

     2596     7023
     2597     7024    1       CALL M$ERRMSG(ERR)

   7024  2 000153   200014 630500                    EPPR0   ERR,,AUTO
         2 000154   420000 713400                    CLIMB   alt,+8192
         2 000155   405000 401760                    pmme    nvectors=11
         2 000156   000160 702000 2                  TSX2    s:7026
         2 000157   000164 710000 2                  TRA     s:7030

     2598     7025    2       WHENALTRETURN DO;

     2599     7026    2           XUX$INFO.XUX.ERROR# = '1'B;

   7026  2 000160   400000 236003                    LDQ     -131072,DU
         2 000161   200277 470500                    LDP0    XUX$MEM$,,AUTO
         2 000162   000014 756100                    STQ     12,,PR0

     2600     7027    2           ALTRETURN;

   7027  2 000163   000000 702200 xent               TSX2  ! X66_AALT

     2601     7028    2       END;
     2602     7029
     2603     7030    1       IF NOT P_RECOV

   7030  2 000164   200004 470500                    LDP0    @P_RECOV,,AUTO
         2 000165   000000 234100                    SZN     0,,PR0
         2 000166   000170 604000 2                  TMI     s:7032+1

     2604     7031    2       THEN DO;

     2605     7032    2           ALTRETURN;

PL6.E3A0      #004=XUX$ERROR File=XUX$COMMON_OPTIONS.:E05TSI                     WED 07/30/97 09:48 Page:370
   7032  2 000167   000000 702200 xent               TSX2  ! X66_AALT
         2 000170   000276 710000 2                  TRA     s:7087

     2606     7033    2       END;
     2607     7034
     2608     7035
     2609     7036        %EJECT;
PL6.E3A0      #004=XUX$ERROR File=XUX$COMMON_OPTIONS.:E05TSI                     WED 07/30/97 09:48 Page:371
     2610     7037        /*I*
     2611     7038             NAME: CONVERT_FIELDS
     2612     7039             PURPOSE:
     2613     7040                  This procedure converts the fields supplied by calls to the error
     2614     7041                  message routines into the proper form and puts them into the proper
     2615     7042                  location.
     2616     7043             CALL:
     2617     7044                  CALL CONVERT_FIELDS (TEXT,SBIN,FIELD)
     2618     7045             PARAMETERS:
     2619     7046                  TEXT    - The text field to be used
     2620     7047                  SBIN    - the count field to be used
     2621     7048                  FIELD   - The place in which to store the reults
     2622     7049        */
     2623     7050    1   CONVERT_FIELDS: PROC(P_TEXT,P_SBIN,P_FIELD);

   7050  2 000171   200300 741300       CONVERT_FIE* STX1  ! XUX$MEM$+1,,AUTO

     2624     7051
     2625     7052    2   DCL P_TEXT CHAR(P_FIELD.SIZE);
     2626     7053    2   DCL P_SBIN SBIN;
     2627     7054    2   DCL 1 P_FIELD,
     2628     7055    2         2 SIZE UBIN BYTE UNAL,
     2629     7056    2         2 TEXT CHAR(31);
     2630     7057
     2631     7058         /*Check for text being passed*/
     2632     7059    2       IF ADDR(P_TEXT) ~= ADDR(NIL)

   7059  2 000172   200301 236100                    LDQ     @P_TEXT,,AUTO
         2 000173   000001 116000 xsym               CMPQ    B_VECTNIL+1
         2 000174   000232 600000 2                  TZE     s:7075

     2633     7060    3       THEN DO;

     2634     7061    3           IF P_SBIN > 31

   7061  2 000175   200302 470500                    LDP0    @P_SBIN,,AUTO
         2 000176   000000 235100                    LDA     0,,PR0
PL6.E3A0      #004=XUX$ERROR File=XUX$COMMON_OPTIONS.:E05TSI                     WED 07/30/97 09:48 Page:372
         2 000177   000037 115007                    CMPA    31,DL
         2 000200   000206 604400 2                  TMOZ    s:7065

     2635     7062    3           THEN
     2636     7063    3               P_FIELD.SIZE = 31;

   7063  2 000201   200303 471500                    LDP1    @P_FIELD,,AUTO
         2 000202   000100 101400                    MRL     fill='000'O
         2 000203   000005 000004 3                  ADSC9   5                        cn=0,n=4
         2 000204   100000 000001                    ADSC9   0,,PR1                   cn=0,n=1
         2 000205   000221 710000 2                  TRA     s:7071

     2637     7064    4           ELSE DO;

     2638     7065    4               IF P_SBIN < 0

   7065  2 000206   000000 115003                    CMPA    0,DU
         2 000207   000215 605000 2                  TPL     s:7069

     2639     7066    4               THEN
     2640     7067    4                   P_FIELD.SIZE = 0;

   7067  2 000210   200303 471500                    LDP1    @P_FIELD,,AUTO
         2 000211   000100 101400                    MRL     fill='000'O
         2 000212   000002 000004 xsym               ADSC9   B_VECTNIL+2              cn=0,n=4
         2 000213   100000 000001                    ADSC9   0,,PR1                   cn=0,n=1
         2 000214   000221 710000 2                  TRA     s:7071

     2641     7068    4               ELSE
     2642     7069    4                   P_FIELD.SIZE = P_SBIN;

   7069  2 000215   200303 471500                    LDP1    @P_FIELD,,AUTO
         2 000216   000100 101500                    MRL     fill='000'O
         2 000217   000000 000004                    ADSC9   0,,PR0                   cn=0,n=4
         2 000220   100000 000001                    ADSC9   0,,PR1                   cn=0,n=1

     2643     7070    4           END;
PL6.E3A0      #004=XUX$ERROR File=XUX$COMMON_OPTIONS.:E05TSI                     WED 07/30/97 09:48 Page:373

     2644     7071    3           P_FIELD.TEXT = P_TEXT;

   7071  2 000221   000100 101500                    MRL     fill='000'O
         2 000222   100000 000001                    ADSC9   0,,PR1                   cn=0,n=1
         2 000223   200304 000002                    ADSC9   @P_FIELD+1,,AUTO         cn=0,n=2
         2 000224   200304 220100                    LDX0    @P_FIELD+1,,AUTO
         2 000225   200301 473500                    LDP3    @P_TEXT,,AUTO
         2 000226   040100 100540                    MLR     fill='040'O
         2 000227   300000 000010                    ADSC9   0,,PR3                   cn=0,n=*X0
         2 000230   100000 200037                    ADSC9   0,,PR1                   cn=1,n=31

     2645     7072    3       END;

   7072  2 000231   000274 710000 2                  TRA     s:7086

     2646     7073         /*Handle no text*/
     2647     7074    3       ELSE DO;

     2648     7075    3           CALL BINXCHAR( TEMP_CHAR, P_SBIN );

   7075  2 000232   200302 470500                    LDP0    @P_SBIN,,AUTO
         2 000233   000100 301500                    BTD
         2 000234   000000 000004                    NDSC9   0,,PR0                   cn=0,s=lsgnf,sf=0,n=4
         2 000235   200266 010015                    NDSC9   TEMP_CHAR,,AUTO          cn=0,s=lsgns,sf=0,n=13

     2649     7076    3           CALL EDITXCHAR( TEMP_EDIT_CHAR, , , MOPSTR, TEMP_CHAR );

   7076  2 000236   100000 024500                    MVNE
         2 000237   200266 010015                    NDSC9   TEMP_CHAR,,AUTO          cn=0,s=lsgns,sf=0,n=13
         2 000240   000041 000004 1                  ADSC9   MOPSTR                   cn=0,n=4
         2 000241   200272 000015                    ADSC9   TEMP_EDIT_CHAR,,AUTO     cn=0,n=13

     2650     7077    3           CALL INDEX1R( TEMP_UBIN, ' ', TEMP_EDIT_CHAR );

   7077  2 000242   000000 125500                    SCMR    mask='000'O
         2 000243   200272 000015                    ADSC9   TEMP_EDIT_CHAR,,AUTO     cn=0,n=13
PL6.E3A0      #004=XUX$ERROR File=XUX$COMMON_OPTIONS.:E05TSI                     WED 07/30/97 09:48 Page:374
         2 000244   000035 000001 xsym               ADSC9   B_VECTNIL+29             cn=0,n=1
         2 000245   200276 000100                    ARG     TEMP_UBIN,,AUTO
         2 000246   000251 606400 2                  TTN     s:7078
         2 000247   000014 236007                    LDQ     12,DL
         2 000250   200276 156100                    SSQ     TEMP_UBIN,,AUTO

     2651     7078    3           IF TEMP_UBIN = LENGTHV(TEMP_EDIT_CHAR)

   7078  2 000251   200276 235100                    LDA     TEMP_UBIN,,AUTO
         2 000252   000014 115007                    CMPA    12,DL
         2 000253   000261 601000 2                  TNZ     s:7082

     2652     7079    3           THEN
     2653     7080    3               P_FIELD = ZERO_FIELD;

   7080  2 000254   200303 471500                    LDP1    @P_FIELD,,AUTO
         2 000255   000100 100400                    MLR     fill='000'O
         2 000256   000042 000002 1                  ADSC9   ZERO_FIELD               cn=0,n=2
         2 000257   100000 000040                    ADSC9   0,,PR1                   cn=0,n=32
         2 000260   000274 710000 2                  TRA     s:7086

     2654     7081    4           ELSE DO;

     2655     7082    4               P_FIELD.SIZE = LENGTHV(TEMP_EDIT_CHAR) - TEMP_UBIN;

   7082  2 000261   000014 236007                    LDQ     12,DL
         2 000262   200276 136100                    SBLQ    TEMP_UBIN,,AUTO
         2 000263   200304 756100                    STQ     @P_FIELD+1,,AUTO
         2 000264   200303 471500                    LDP1    @P_FIELD,,AUTO
         2 000265   000100 101500                    MRL     fill='000'O
         2 000266   200304 000004                    ADSC9   @P_FIELD+1,,AUTO         cn=0,n=4
         2 000267   100000 000001                    ADSC9   0,,PR1                   cn=0,n=1

     2656     7083    4               P_FIELD.TEXT = SUBSTR(TEMP_EDIT_CHAR, TEMP_UBIN + 1);

   7083  2 000270   000000 620006                    EAX0    0,QL
         2 000271   040100 100545                    MLR     fill='040'O
PL6.E3A0      #004=XUX$ERROR File=XUX$COMMON_OPTIONS.:E05TSI                     WED 07/30/97 09:48 Page:375
         2 000272   200272 200010                    ADSC9   TEMP_EDIT_CHAR,A,AUTO    cn=1,n=*X0
         2 000273   100000 200037                    ADSC9   0,,PR1                   cn=1,n=31

     2657     7084    4           END;

     2658     7085    3       END;

     2659     7086    2   END CONVERT_FIELDS;

   7086  2 000274   200300 221300                    LDX1  ! XUX$MEM$+1,,AUTO
         2 000275   000001 702211                    TSX2  ! 1,X1

     2660     7087    1   END XUX$ERROR;

   7087  2 000276   000000 702200 xent               TSX2  ! X66_ARET
     2661     7088        /*F*
     2662     7089                   NAME:  XUX_Linking Information
     2663     7090                        The XUX services reside in the following places:
     2664     7091                        .spf
     2665     7092                        .fif
     2666     7093                        ^^^^LEMUR library:    :ETC_SYSTEM.:SYS
     2667     7094                        .spf 0
     2668     7095                        ^^^^^^^^^^^^^^^^^^^^^^:LIB_SYSTEM.:SYS
     2669     7096                        .fin
     2670     7097
     2671     7098                        ..::IX "Linker"
     2672     7099                        If the program using the XUX services is all
     2673     7100                        written in PL6 and does not make use of a shared
     2674     7101                        library other than :SHARED_SYSTEM, then no
     2675     7102                        special linking information is necessary.
     2676     7103                        The linker will automatically associate
     2677     7104                        :SHARED_SYSTEM with the program and will
     2678     7105                        load the XUX services from the unshared library
     2679     7106                        :ETC_SYSTEM.:SYS.
     2680     7107
     2681     7108                        If the program uses a different shared library,
     2682     7109                        the user should use UNSAT=(:LIB_SYSTEM.:SYS) as an
PL6.E3A0      #004=XUX$ERROR File=XUX$COMMON_OPTIONS.:E05TSI                     WED 07/30/97 09:48 Page:376
     2683     7110                        option on the link command.  The linker will
     2684     7111                        associate any required modules from the
     2685     7112                        library file.
     2686     7113        */
     2687     7114        /*F*
     2688     7115             NAME:  XUX_DCB Usage
     2689     7116                  The XUX services dynamically acquire any DCBs they need to
     2690     7117                  read and parse the command line.  Optionally, the user may
     2691     7118                  supply DCBs through which any error messages are written
     2692     7119                  by using the DCB1 and DCB2 parameters of the XUX$PARAM
     2693     7120                  macro.
     2694     7121        */
     2695     7122        /*F*
     2696     7123             NAME:  XUX_Error Codes
     2697     7124        The following error conditions can be returned from an XUX service.
     2698     7125        The error will always be returned to the user in standard CP-6
     2699     7126        error code format (VLP_ERRCODE).  If the user of the XUX service
     2700     7127        wishes to report the text of the message, M$ERRMSG should be passed
     2701     7128        the error code returned by XUX.
     2702     7129        ..::L2 "XUX Monitor Errors\\X"
     2703     7130        ..VA$M_FOOTER "\XUX Monitor Errors"
     2704     7131        Any monitor error returned by a monitor service called by XUX will
     2705     7132        be returned by the XUX service that received the error.  These
     2706     7133        should be reported to the user of the program.
     2707     7134        ..::L2 "XUX Normal Errors\\X"
     2708     7135        ..VA$M_FOOTER "\XUX Normal Errors"
     2709     7136        These errors indicate that there is something wrong with the command
     2710     7137        line being parsed, a resource allocation limit was reached, or an
     2711     7138        XUX limit was reached.  In the case of a memory limit being reached,
     2712     7139        the XUX service can be invoked successfully after more memory is
     2713     7140        acquired.
     2714     7141
     2715     7142        From XUX$COMMON_OPTIONS:
     2716     7143
     2717     7144        .inl 4
     2718     7145        E$XUX#BAD_BC^^^^
     2719     7146        The BC unit %U1 specified is not between 1 and 131071.
PL6.E3A0      #004=XUX$ERROR File=XUX$COMMON_OPTIONS.:E05TSI                     WED 07/30/97 09:48 Page:377
     2720     7147
     2721     7148        E$XUX#BAD_SRCH_FID^^^^
     2722     7149        "%U1" is not a valid SRCH account.
     2723     7150
     2724     7151        E$XUX#CANT_GET_MEM^^^^
     2725     7152        Unable to allocate enough memory to process command line options.
     2726     7153
     2727     7154        E$XUX#CONFLICTING_DMAP_OPTS^^^^
     2728     7155        Conflicting options for DMAP, NDMAP, MDMAP or NMDMAP.
     2729     7156
     2730     7157        E$XUX#DMAP_SCHEMA_CONFLICT^^^^
     2731     7158        NSCHEMA was requested with DMAP or MDMAP.  MSCHEMA will be
     2732     7159        generated instead.
     2733     7160
     2734     7161        E$XUX#DUPE_BC^^^^
     2735     7162        Duplicate BC unit number %U1 found.
     2736     7163
     2737     7164        E$XUX#DUPE_OPTION^^^^
     2738     7165        %U2 was found but %U1 was already specified.
     2739     7166
     2740     7167        E$XUX#ILLEGAL_DCB_FOUND^^^^
     2741     7168        A DCB was specified in the %U1 position, but is not legal
     2742     7169        for this processor.
     2743     7170
     2744     7171        E$XUX#ILLEGAL_OPTION^^^^
     2745     7172        The standard option %U1 is not valid for this processor.
     2746     7173
     2747     7174        E$XUX#NO_MORE_BUFFER^^^^
     2748     7175        The command line options specified were too long to process.
     2749     7176
     2750     7177        E$XUX#PMAP_SCHEMA_CONFLICT^^^^
     2751     7178        NSCHEMA was requested with PMAP or MPMAP.  MSCHEMA will be
     2752     7179        generated instead.
     2753     7180
     2754     7181        E$XUX#SYNTAX_ERROR^^^^
     2755     7182        Syntax error.  Alternatives at this point are:
     2756     7183
PL6.E3A0      #004=XUX$ERROR File=XUX$COMMON_OPTIONS.:E05TSI                     WED 07/30/97 09:48 Page:378
     2757     7184        E$XUX#TOO_MANY_BC_UNITS^^^^
     2758     7185        More than 8 BC units were specified.
     2759     7186
     2760     7187        E$XUX#TOO_MANY_SRCH_ACCTS^^^^
     2761     7188        More than %U1 accounts were listed in the SRCH option.
     2762     7189        ..::L2 "XUX Programmer Errors\\X"
     2763     7190        ..VA$M_FOOTER "\XUX Programmer Errors"
     2764     7191        These errors arise, for the most part, when a required structure
     2765     7192        or routine is not present.  An exception is E$XUX#BAD_PARSE_NODE
     2766     7193        which indicates that XUX$COMMON_OPTIONS found a node it was not
     2767     7194        prepared for.  This may occur if non-standard nodes are used
     2768     7195        incorrectly.
     2769     7196
     2770     7197        From  XUX$COMMON_OPTIONS:
     2771     7198
     2772     7199        .inl 4
     2773     7200        E$XUX#BAD_PARSE_NODE^^^^
     2774     7201        Internal error: Bad parse node #%U1 encountered.
     2775     7202
     2776     7203        E$XUX#ILLEGAL_NSTD_OPT^^^^
     2777     7204        Internal error: A non-standard option was found but
     2778     7205        XUX$LEGAL_OPTIONS.NSTD was not set.
     2779     7206
     2780     7207        E$XUX#MUST_HAVE_LEGAL_OPTIONS^^^^
     2781     7208        Internal error: No XUX$LEGAL_OPTIONS specified.
     2782     7209
     2783     7210        E$XUX#MUST_HAVE_STD_OPTIONS^^^^
     2784     7211        Internal error: No XUX$STD_OPTIONS specified.
     2785     7212
     2786     7213        E$XUX#NO_BC_STRUCT^^^^
     2787     7214        Internal error: No XUX$BC_UNIT structure specified.
     2788     7215
     2789     7216        E$XUX#NO_PARAM_SPECIFIED^^^^
     2790     7217        Internal error: XUX$COMMON_OPTIONS was called with no parameters.
     2791     7218
     2792     7219        E$XUX#NO_SRCH_LIST_STRUCT^^^^
     2793     7220        Internal error: No XUX$SRCH_LIST structure specified.
PL6.E3A0      #004=XUX$ERROR File=XUX$COMMON_OPTIONS.:E05TSI                     WED 07/30/97 09:48 Page:379
     2794     7221
     2795     7222        E$XUX#NO_USER_ROUTINE^^^^
     2796     7223        Internal error: Non-standard options have been allowed but
     2797     7224        no user routine has been provided.
     2798     7225
     2799     7226        .inl 0
     2800     7227        From XUX$GETLINE:
     2801     7228
     2802     7229        .inl 4
     2803     7230        E$XUX#BUFFER_IS_NIL^^^^
     2804     7231        No buffer was specified on a call to XUX$GETLINE.
     2805     7232
     2806     7233        E$XUX#CANT_CALL_AGAIN^^^^
     2807     7234        This call to XUX$GETLINE is illegal because of either a
     2808     7235        previous error condition or a previous EOF condition.
     2809     7236        XUX$GETLINE was called after EOF (or end of options
     2810     7237        on B$JIT.CCBUF) or an error occurred without calling
     2811     7238        XUX$CLEANUP in between.
     2812     7239        ..::L2 "XUX User Routine Errors\\X"
     2813     7240        ..VA$M_FOOTER "\XUX User Routine Errors"
     2814     7241        These errors only appear if non-standard nodes are used, as they
     2815     7242        indicate that the user's non-standard node handler
     2816     7243        ALTRETURNed. E$XUX#USER_ROUTINE_BUG is returned when the
     2817     7244        user routine ALTRETURNed to XUX$COMMON_OPTIONS indicating that
     2818     7245        no further processing should be done.
     2819     7246        E$XUX#USER_ROUTINE_ALTRETURNED is returned when the user routine
     2820     7247        ALTRETURNs but indicates that processing is to continue.
     2821     7248
     2822     7249        From XUX$COMMON_OPTIONS:
     2823     7250
     2824     7251        .inl 4
     2825     7252        E$XUX#USER_ROUTINE_ALTRETURNED^^^^
     2826     7253        The non-standard node handler ALTRETURNed.
     2827     7254        .spf 0
     2828     7255        Note:  This message will never be printed out by any XUX
     2829     7256        routine. It is here only so that the user can test
     2830     7257        XUX$PARAM.ERROR_CODE and handle these types of errors.
PL6.E3A0      #004=XUX$ERROR File=XUX$COMMON_OPTIONS.:E05TSI                     WED 07/30/97 09:48 Page:380
     2831     7258
     2832     7259        E$XUX#USER_ROUTINE_BUG^^^^
     2833     7260        Internal error: The non-standard options user routine
     2834     7261        ALTRETURNed indicating that it could not handle a
     2835     7262        specified option.
     2836     7263        ..::L2 "XUX Internal Errors\\X"
     2837     7264        ..VA$M_FOOTER "\XUX Internal Errors"
     2838     7265        These errors are reported when an internal error occurs within one
     2839     7266        of the XUX routines.  If any of these errors occurs, please
     2840     7267        report it in STARLOG.
     2841     7268
     2842     7269        .inl 4
     2843     7270        E$XUX#BAD_INTERNAL_FID^^^^
     2844     7271        Internal error: Bad internal FID for SRCH list.
     2845     7272        Please report this in STARLOG.
     2846     7273
     2847     7274        E$XUX#INTERNAL_ERROR^^^^
     2848     7275        Internal error: Problem in XUX$COMMON_OPTIONS.
     2849     7276        Please report this in STARLOG.
     2850     7277
     2851     7278        E$XUX#NO_MORE_INPUT^^^^
     2852     7279        Internal error: Unexpected end-of-input from *CONTINUATION_COMMAND.
     2853     7280        Please report this in STARLOG.
     2854     7281        */

PL6.E3A0      #004=XUX$ERROR File=XUX$COMMON_OPTIONS.:E05TSI                     WED 07/30/97 09:48 Page:381
--  Include file information  --

   XUX$INTERFACE_M.:E05TOU  is referenced.
   CP_6_C.:E05TOU  is referenced.
   CP_6.:E05TOU  cannot be made into a system file and is referenced.
   B_MICROPS_C.:E05TOU  is referenced.
      No diagnostics issued in procedure XUX$ERROR.
PL6.E3A0      #004=XUX$ERROR File=XUX$COMMON_OPTIONS.:E05TSI                     WED 07/30/97 09:48 Page:382

 **** Variables and constants ****

  ****  Section 001 RoData XUX$ERROR

  ****  Scalars and arrays  ****
OctLoc.c.b A Datatyp(siz) R M Lvl/name                 OctLoc.c.b A Datatyp(siz) R M Lvl/name

     2-0-0/d STRC(936)   r     1 FPT_ERRMSG                41-0-0/b BIT (9)     r     1 MOPSTR(0:3)
     0-0-0/w STRC        r     1 VLP_ERRCODE               36-0-0/c STRC(90)    r     1 VLP_NAME
    34-0-0/c STRC(72)    r     1 XUX_VLP_ACCT              42-0-0/c STRC(18)    r     1 ZERO_FIELD

  ****  Auto variables  ****

  ****  Scalars and arrays  ****
OctLoc.c.b A Datatyp(siz) R M Lvl/name                 OctLoc.c.b A Datatyp(siz) R M Lvl/name

     3-0-0/w PTR         r     1 @P_CODE                  303-0-0/w PTR         r     1 @P_FIELD
     5-0-0/w PTR         r     1 @P_L1                      7-0-0/w PTR         r     1 @P_L2
    11-0-0/w PTR         r     1 @P_L3                      4-0-0/w PTR         r     1 @P_RECOV
   302-0-0/w PTR         r     1 @P_SBIN                    6-0-0/w PTR         r     1 @P_T1
    10-0-0/w PTR         r     1 @P_T2                     12-0-0/w PTR         r     1 @P_T3
   301-0-0/w PTR         r     1 @P_TEXT                   14-0-0/d STRC(936)   r     1 ERR
    76-0-0/c CHAR(480)   r     1 ERROR_TEXT                *0-0-0/w UBIN        r     1 P_CODE
    *0-0-0/c STRC(288)   r     1 P_FIELD                   *0-0-0/w SBIN        r     1 P_L1
    *0-0-0/w SBIN        r     1 P_L2                      *0-0-0/w SBIN        r     1 P_L3
    *0-0-0/w STRC        r     1 P_MON_ERROR_CODE          *0-0-0/w BIT         r     1 P_RECOV
    *0-0-0/w SBIN        r     1 P_SBIN                    *0-0-0/c ACHR        r     1 P_T1
    *0-0-0/c ACHR        r     1 P_T2                      *0-0-0/c ACHR        r     1 P_T3
    *0-0-0/c ACHR        r     1 P_TEXT                   266-0-0/c CHAR(13)    r     1 TEMP_CHAR
   272-0-0/c CHAR(13)    r     1 TEMP_EDIT_CHAR           276-0-0/w UBIN        r     1 TEMP_UBIN
    46-0-0/c STRC(288)   r     1 U1_FIELD                  56-0-0/c STRC(288)   r     1 U2_FIELD
    66-0-0/c STRC(288)   r     1 U3_FIELD                 277-0-0/w PTR         r     1 XUX$MEM$
    13-0-0/w STRC        r     1 XUX_ERR

  ****  SYMREF variables  ****

  ****  Scalars and arrays  ****
PL6.E3A0      #004=XUX$ERROR File=XUX$COMMON_OPTIONS.:E05TSI                     WED 07/30/97 09:48 Page:383
OctLoc.c.b A Datatyp(siz) R M Lvl/name                 OctLoc.c.b A Datatyp(siz) R M Lvl/name

     0-0-0/d VECT        r     1 XUX$MEM

  ****  BASED and DCB variables  ****

  ****  Scalars and arrays  ****
OctLoc.c.b A Datatyp(siz) R M Lvl/name                 OctLoc.c.b A Datatyp(siz) R M Lvl/name

     0-0-0/w STRC(792)   r     1 XUX$INFO


   Procedure XUX$ERROR requires 191 words for executable code.
   Procedure XUX$ERROR requires 198 words of local(AUTO) storage.

    No errors detected in file XUX$COMMON_OPTIONS.:E05TSI    .
PL6.E3A0      #004=XUX$ERROR File=XUX$COMMON_OPTIONS.:E05TSI                     WED 07/30/97 09:48 Page:384
          *** CROSS REFERENCE LISTING ***
**     DENOTES     IDENTIFIER DEFINITION
<<                 IDENTIFIER'S VALUE SET
>>                 IDENTIFIER'S VALUE USED
<>                 IDENTIFIER SET AND/OR USED
--                 IDENTIFIER REFERENCED
PL6.E3A0      #004=XUX$ERROR File=XUX$COMMON_OPTIONS.:E05TSI                     WED 07/30/97 09:48 Page:385
          MINI XREF LISTING

CONTINUE
      6975**LABEL    6971--GOTO
CONVERT_FIELDS
      7050**PROC     7009--CALL     7015--CALL     7021--CALL
ERR
      6726**DCL      6980<<ASSIGN   7024<>CALL
ERR.BUF_
      6726**DCL      6983<<ASSIGN
ERR.CODE_
      6726**DCL      6982<<ASSIGN
ERR.FIELD1_
      6728**DCL      6985<<ASSIGN   7008<<ASSIGN
ERR.FIELD2_
      6729**DCL      6986<<ASSIGN   7014<<ASSIGN
ERR.FIELD3_
      6729**DCL      6987<<ASSIGN   7020<<ASSIGN
ERR.V
      6730**DCL      6981--ASSIGN
ERR.V.OUTDCB1#
      6731**DCL      6988<<ASSIGN
ERR.V.OUTDCB2#
      6731**DCL      6989<<ASSIGN
ERR.V_
      6726**DCL      6981<<ASSIGN
ERROR_TEXT
      6796**DCL      6983--ASSIGN   6984<<ASSIGN
FPT_ERRMSG
      6699**DCL      6980>>ASSIGN
FPT_ERRMSG.V
      6703**DCL      6699--DCLINIT
M$ERRMSG
      5756**DCL-ENT  7024--CALL
PL6.E3A0      #004=XUX$ERROR File=XUX$COMMON_OPTIONS.:E05TSI                     WED 07/30/97 09:48 Page:386
MOPSTR
      6803**DCL      7076>>CALLBLT
P_CODE
      6543**DCL        32--PROC     6556--REDEF    6970>>ASSIGN   6973--ENTRY
P_FIELD IN PROCEDURE CONVERT_FIELDS
      7054**DCL      7050--PROC     7080<<ASSIGN
P_FIELD.SIZE IN PROCEDURE CONVERT_FIELDS
      7055**DCL      7052--IMP-SIZ  7063<<ASSIGN   7067<<ASSIGN   7069<<ASSIGN   7071>>ASSIGN   7082<<ASSIGN
P_FIELD.TEXT IN PROCEDURE CONVERT_FIELDS
      7056**DCL      7071<<ASSIGN   7083<<ASSIGN
P_L1
      6590**DCL        32--PROC     6593--IMP-SIZ  6973--ENTRY    7006--IF       7009>>CALL     7009<>CALL
P_L2
      6591**DCL        32--PROC     6594--IMP-SIZ  6973--ENTRY    7012--IF       7015>>CALL     7015<>CALL
P_L3
      6592**DCL        32--PROC     6595--IMP-SIZ  6973--ENTRY    7018--IF       7021>>CALL     7021<>CALL
P_MON_ERROR_CODE
      6556**DCL      6975>>ASSIGN
P_RECOV
      6589**DCL        32--PROC     6973--ENTRY    7030>>IF
P_SBIN IN PROCEDURE CONVERT_FIELDS
      7053**DCL      7050--PROC     7061>>IF       7065>>IF       7069>>ASSIGN   7075>>CALLBLT
P_T1
      6593**DCL        32--PROC     6973--ENTRY    7009<>CALL
P_T2
      6594**DCL        32--PROC     6973--ENTRY    7015<>CALL
P_T3
      6595**DCL        32--PROC     6973--ENTRY    7021<>CALL
P_TEXT IN PROCEDURE CONVERT_FIELDS
      7052**DCL      7050--PROC     7059--IF       7071>>ASSIGN
TEMP_CHAR
      6798**DCL      7075<<CALLBLT  7076>>CALLBLT
TEMP_EDIT_CHAR
      6799**DCL      7076<<CALLBLT  7077>>CALLBLT  7078--IF       7082--ASSIGN   7083>>ASSIGN
TEMP_UBIN
      6800**DCL      7077<<CALLBLT  7078>>IF       7082>>ASSIGN   7083>>ASSIGN
PL6.E3A0      #004=XUX$ERROR File=XUX$COMMON_OPTIONS.:E05TSI                     WED 07/30/97 09:48 Page:387
U1_FIELD
      6784**DCL      7008--ASSIGN   7009<>CALL
U2_FIELD
      6788**DCL      7014--ASSIGN   7015<>CALL
U3_FIELD
      6792**DCL      7020--ASSIGN   7021<>CALL
VLP_ERRCODE
      6609**DCL      6968>>ASSIGN
VLP_NAME
      6781**DCL      6700--DCLINIT
XUX$INFO.XUX.DCB1#
      6948**DCL      6988>>ASSIGN   6998>>IF
XUX$INFO.XUX.DCB2#
      6957**DCL      6989>>ASSIGN   6998>>IF
XUX$INFO.XUX.ERROR#
      6941**DCL      7000<<ASSIGN   7026<<ASSIGN
XUX$INFO.XUX.ERROR_CODE
      6903**DCL      6991<<ASSIGN
XUX$MEM
      6813**DCL      6979>>ASSIGN
XUX$MEM$
      6814**DCL      6819--IMP-PTR  6979<<ASSIGN   6988>>ASSIGN   6989>>ASSIGN   6991>>ASSIGN   6998>>IF
      6998>>IF       7000>>ASSIGN   7026>>ASSIGN
XUX_ERR
      6654**DCL      6968<<ASSIGN   6975<<ASSIGN   6982--ASSIGN   6991>>ASSIGN
XUX_ERR.ERR#
      6684**DCL      6970<<ASSIGN
XUX_VLP_ACCT
      6754**DCL      6700--DCLINIT
ZERO_FIELD
      6805**DCL      7080>>ASSIGN
