VERSION E05

PL6.E3A0      #001=XU_DATA_D File=XU_DATA_D.:E05TSI                              WED 07/30/97 09:48 Page:1
        1        1        /*M*  XU_DATA_D   Constant data for the parser, GETCMD, and so forth. */
        2        2        /*T***********************************************************/
        3        3        /*T*                                                         */
        4        4        /*T* Copyright (c) Bull HN Information Systems Inc., 1997    */
        5        5        /*T*                                                         */
        6        6        /*T***********************************************************/
        7        7
        8        8        /*P*  NAME:    XU_DATA_D
        9        9              PURPOSE: This module declares constant data tables, etc., which are
       10       10                       used by the parser (XUP$PARSE and XUP$OLDPARSE), GETCMD
       11       11                       (XUG$COMMON et al), and other XU?$ library routines.  ONLY
       12       12                       constant data is placed in this module;  it may safely be linked
       13       13                       into ASLs, command processors, and other special shared
       14       14                       processors which are forbidden to own static data.
       15       15        */
       16       16
       17       17        XU_DATA_D: PROC;
       18       18
       19       19        /* ! R ! DCL XU_DATA_D ENTRY CONV (5); */
       20       20
       21       21        /*F*     NAME:       XUP_SYMTBL
       22       22                 FUNCTION:   This table (indexed by the binary value of characters in
       23       23                             the 7-bit ASCII set) contains flags which indicate which
       24       24                             lexical types an ASCII character belongs to.
       25       25        */
       26       26
       27       27    1   DCL XUP_SYMTBL (0:127) BIT (36) CONSTANT SYMDEF INIT (
       28       28        /*    .-------------- FID (standard CP-6 File IDentifier)
       29       29              |.------------- Symbol (IBEX variables, etc.)
       30       30              ||.------------ Alphanumeric (must contain at least 1 non-digit)
       31       31              |||.----------- Alpha
       32       32              ||||.---------- Decimal
       33       33              |||||.--------- Octal
       34       34              ||||||.-------- PL-6 symbol (first character must be alphabetic)
       35       35              |||||||.------- Jobname
       36       36              ||||||||.------ Account
       37       37              |||||||||.----- Hexadecimal
PL6.E3A0      #001=XU_DATA_D File=XU_DATA_D.:E05TSI                              WED 07/30/97 09:48 Page:2
       38       38              ||||||||||.---- Generic delimited string
       39       39              |||||||||||     */
       40       40    1        '00000000000'B *  33,                   /* NUL - sp  */
       41       41    1        '00000000001'B *   2,                   /* bang-  "  */
       42       42    1        '11000010001'B,                         /*     #     */
       43       43    1        '11000011101'B,                         /*     $     */
       44       44    1        '00000000001'B *  2,                    /*  %  -  &  */
       45       45    1        '10000000001'B,                         /*     '     */
       46       46    1        '00000000001'B *  2,                    /*  (  -  )  */
       47       47    1        '10000001101'B,                         /*     *     */
       48       48    1        '00000000001'B *  2,                    /*  +  -  ,  */
       49       49    1        '10000001101'B,                         /*     -     */
       50       50    1        '10000000001'B *  2,                    /*  .  -  /  */
       51       51    1        '11101111110'B *  8,                    /*  0  -  7  */
       52       52    1        '11101011110'B *  2,                    /*  8  -  9  */
       53       53    1        '10000001101'B,                         /*     :     */
       54       54    1        '00000000001'B *  4,                    /*  ;  -  >  */
       55       55    1        '10000000101'B,                         /*     ?     */
       56       56    1        '11000010001'B,                         /*     @     */
       57       57    1        '11110011110'B *  6,                    /*  A  -  F  */
       58       58    1        '11110011100'B *  20,                   /*  G  -  Z  */
       59       59    1        '00000000001'B *  4,                    /*  [  -  ^  */
       60       60    1        '11000011101'B,                         /*     _     */
       61       61    1        '00000000001'B,                         /*     `     */
       62       62    1        '11110011110'B *  6,                    /*  a  -  f  */
       63       63    1        '11110011100'B *  20,                   /*  g  -  z  */
       64       64    1        '00000000001'B *  4,                    /*  {  -  ~  */
       65       65    1        '00000000000'B);                        /*    del    */
       66       66
       67       67        /*F*  NAME:       SYMTTBL
       68       68              FUNCTION:   This table is a REDEF of XUP_SYMTBL.  It contains program-
       69       69                          addressable BIT(1) flags which may be used to test whether
       70       70                          a specific ASCII character is acceptable within a specific
       71       71                          lexeme type.
       72       72        */
       73       73
       74       74    1   DCL 1 SYMTTBL (0:127) REDEF XUP_SYMTBL,
PL6.E3A0      #001=XU_DATA_D File=XU_DATA_D.:E05TSI                              WED 07/30/97 09:48 Page:3
       75       75    1             2 FID BIT(1),
       76       76    1             2 SYM BIT(1),
       77       77    1             2 ALNUM BIT(1),
       78       78    1             2 ALPHA BIT(1),
       79       79    1             2 DEC BIT(1),
       80       80    1             2 OCT BIT(1),
       81       81    1             2 PL6SYM BIT(1),
       82       82    1             2 JOBNAME BIT(1),
       83       83    1             2 ACCOUNT BIT(1),
       84       84    1             2 HEX BIT(1),
       85       85    1             2 GENERIC_DSTRING BIT(1),
       86       86    1             2 * BIT (25);
       87       87
       88       88    1   END XU_DATA_D;

PL6.E3A0      #001=XU_DATA_D File=XU_DATA_D.:E05TSI                              WED 07/30/97 09:48 Page:4
      No diagnostics issued in procedure XU_DATA_D.

   No code generated for procedure XU_DATA_D .
   Procedure XU_DATA_D requires 4 words of local(AUTO) storage.

    No errors detected in file XU_DATA_D.:E05TSI    .

PL6.E3A0      #001=XU_DATA_D File=XU_DATA_D.:E05TSI                              WED 07/30/97 09:48 Page:5

 Object Unit name= XU_DATA_D                                  File name= XU_DATA_D.:E05TOU
 UTS= JUL 30 '97 09:48:43.56 WED                              Compiler= PL-6/E31         Sev=      00
 SharedLib= :SHARED_SYSTEM                                    Alt SharedLib=


    ****  Control sections  ****

 Sect   Type Bound  Init  Size OctSiz  Section name(segment info)
    0  RoData even  UTS    128    200  XU_DATA_D
    1   Proc  even  none     0      0  XU_DATA_D

    ****  Entry defs  ****

                              Check   Calling
                             calling  sequence
  Sect OctLoc Primary Altret sequence   type   Parms  Name
     1      0   yes            yes     ~proc       0  XU_DATA_D

  ****  Data defs  ****

 Sect OctLoc  Name                           Sect OctLoc  Name
    0      0  XUP_SYMTBL
PL6.E3A0      #001=XU_DATA_D File=XU_DATA_D.:E05TSI                              WED 07/30/97 09:48 Page:6

        1        1        /*M*  XU_DATA_D   Constant data for the parser, GETCMD, and so forth. */
        2        2        /*T***********************************************************/
        3        3        /*T*                                                         */
        4        4        /*T* Copyright (c) Bull HN Information Systems Inc., 1997    */
        5        5        /*T*                                                         */
        6        6        /*T***********************************************************/
        7        7
        8        8        /*P*  NAME:    XU_DATA_D
        9        9              PURPOSE: This module declares constant data tables, etc., which are
       10       10                       used by the parser (XUP$PARSE and XUP$OLDPARSE), GETCMD
       11       11                       (XUG$COMMON et al), and other XU?$ library routines.  ONLY
       12       12                       constant data is placed in this module;  it may safely be linked
       13       13                       into ASLs, command processors, and other special shared
       14       14                       processors which are forbidden to own static data.
       15       15        */
       16       16
       17       17        XU_DATA_D: PROC;
       18       18
       19       19        /* ! R ! DCL XU_DATA_D ENTRY CONV (5); */
       20       20
       21       21        /*F*     NAME:       XUP_SYMTBL
       22       22                 FUNCTION:   This table (indexed by the binary value of characters in
       23       23                             the 7-bit ASCII set) contains flags which indicate which
       24       24                             lexical types an ASCII character belongs to.
       25       25        */
       26       26
       27       27    1   DCL XUP_SYMTBL (0:127) BIT (36) CONSTANT SYMDEF INIT (
       28       28        /*    .-------------- FID (standard CP-6 File IDentifier)
       29       29              |.------------- Symbol (IBEX variables, etc.)
       30       30              ||.------------ Alphanumeric (must contain at least 1 non-digit)
       31       31              |||.----------- Alpha
       32       32              ||||.---------- Decimal
       33       33              |||||.--------- Octal
       34       34              ||||||.-------- PL-6 symbol (first character must be alphabetic)
       35       35              |||||||.------- Jobname
       36       36              ||||||||.------ Account
       37       37              |||||||||.----- Hexadecimal
PL6.E3A0      #001=XU_DATA_D File=XU_DATA_D.:E05TSI                              WED 07/30/97 09:48 Page:7
       38       38              ||||||||||.---- Generic delimited string
       39       39              |||||||||||     */
       40       40    1        '00000000000'B *  33,                   /* NUL - sp  */
       41       41    1        '00000000001'B *   2,                   /* bang-  "  */
       42       42    1        '11000010001'B,                         /*     #     */
       43       43    1        '11000011101'B,                         /*     $     */
       44       44    1        '00000000001'B *  2,                    /*  %  -  &  */
       45       45    1        '10000000001'B,                         /*     '     */
       46       46    1        '00000000001'B *  2,                    /*  (  -  )  */
       47       47    1        '10000001101'B,                         /*     *     */
       48       48    1        '00000000001'B *  2,                    /*  +  -  ,  */
       49       49    1        '10000001101'B,                         /*     -     */
       50       50    1        '10000000001'B *  2,                    /*  .  -  /  */
       51       51    1        '11101111110'B *  8,                    /*  0  -  7  */
       52       52    1        '11101011110'B *  2,                    /*  8  -  9  */
       53       53    1        '10000001101'B,                         /*     :     */
       54       54    1        '00000000001'B *  4,                    /*  ;  -  >  */
       55       55    1        '10000000101'B,                         /*     ?     */
       56       56    1        '11000010001'B,                         /*     @     */
       57       57    1        '11110011110'B *  6,                    /*  A  -  F  */
       58       58    1        '11110011100'B *  20,                   /*  G  -  Z  */
       59       59    1        '00000000001'B *  4,                    /*  [  -  ^  */
       60       60    1        '11000011101'B,                         /*     _     */
       61       61    1        '00000000001'B,                         /*     `     */
       62       62    1        '11110011110'B *  6,                    /*  a  -  f  */
       63       63    1        '11110011100'B *  20,                   /*  g  -  z  */
       64       64    1        '00000000001'B *  4,                    /*  {  -  ~  */
       65       65    1        '00000000000'B);                        /*    del    */
       66       66
       67       67        /*F*  NAME:       SYMTTBL
       68       68              FUNCTION:   This table is a REDEF of XUP_SYMTBL.  It contains program-
       69       69                          addressable BIT(1) flags which may be used to test whether
       70       70                          a specific ASCII character is acceptable within a specific
       71       71                          lexeme type.
       72       72        */
       73       73
       74       74    1   DCL 1 SYMTTBL (0:127) REDEF XUP_SYMTBL,
PL6.E3A0      #001=XU_DATA_D File=XU_DATA_D.:E05TSI                              WED 07/30/97 09:48 Page:8
       75       75    1             2 FID BIT(1),
       76       76    1             2 SYM BIT(1),
       77       77    1             2 ALNUM BIT(1),
       78       78    1             2 ALPHA BIT(1),
       79       79    1             2 DEC BIT(1),
       80       80    1             2 OCT BIT(1),
       81       81    1             2 PL6SYM BIT(1),
       82       82    1             2 JOBNAME BIT(1),
       83       83    1             2 ACCOUNT BIT(1),
       84       84    1             2 HEX BIT(1),
       85       85    1             2 GENERIC_DSTRING BIT(1),
       86       86    1             2 * BIT (25);
       87       87
       88       88    1   END XU_DATA_D;

PL6.E3A0      #001=XU_DATA_D File=XU_DATA_D.:E05TSI                              WED 07/30/97 09:48 Page:9
      No diagnostics issued in procedure XU_DATA_D.
PL6.E3A0      #001=XU_DATA_D File=XU_DATA_D.:E05TSI                              WED 07/30/97 09:48 Page:10

 **** Variables and constants ****


   No code generated for procedure XU_DATA_D .
   Procedure XU_DATA_D requires 4 words of local(AUTO) storage.

    No errors detected in file XU_DATA_D.:E05TSI    .
PL6.E3A0      #001=XU_DATA_D File=XU_DATA_D.:E05TSI                              WED 07/30/97 09:48 Page:11
          *** CROSS REFERENCE LISTING ***
**     DENOTES     IDENTIFIER DEFINITION
<<                 IDENTIFIER'S VALUE SET
>>                 IDENTIFIER'S VALUE USED
<>                 IDENTIFIER SET AND/OR USED
--                 IDENTIFIER REFERENCED
PL6.E3A0      #001=XU_DATA_D File=XU_DATA_D.:E05TSI                              WED 07/30/97 09:48 Page:12
          MINI XREF LISTING

XUP_SYMTBL
        27**DCL        74--REDEF
