PL6.E3A0      #002=FUI$FILELEN File=FUI$IORQS.:FUA2TSI                           FRI 11/21/97 11:32 Page:110
      727        1        /*M* FUI$FILELEN - figure out the length of a file (maybe)   */
      728        2        /*T***********************************************************/
      729        3        /*T*                                                         */
      730        4        /*T* Copyright (c) Bull HN Information Systems Inc., 1997    */
      731        5        /*T*                                                         */
      732        6        /*T***********************************************************/
      733        7        /*X* DMR,PLM=5,IND=3,CTI=3,SDI=3,MCL=2,CSI=0,ECI=0,CLM=30,CRM=67, MOC=Y,CCI=3 */
      734        8        /*F*  NAME: FUI$FILELEN
      735        9              Purpose:
      736       10                    Calculates the length (in NFS bytes) of a file.
      737       11        */
      738       12        /*D*  NAME: FUI$IORQS
      739       13              Inputs:
      740       14                    CODE03 - the FIT CODE03 of the file we're to open/read from.
      741       15                    F$TEST - the DCB that the file is linked to.
      742       16              Outputs:
      743       17                    FILELEN - the length of the file we're reading from.
      744       18        */
      745       19
      746       20        FUI$FILELEN: PROC (FILELEN, CODE03) ALTRET;
      747       21
      748       22             %INCLUDE CP_6;
      749      103             %INCLUDE CP_6_SUBS;
      750      643             %INCLUDE B_ERRORS_C;
      751     1769             %INCLUDE FM$FIT;
      752     1990             %INCLUDE FM$GRAN;
      753     2059             %INCLUDE B$JIT;
      754     2349             %INCLUDE FU_NFS_M;
      755     2864
      756     2865                                      /* ARGUMENTS */
      757     2866
      758     2867    1   DCL FILELEN UBIN PARAM;
      759     2868             %CODE03( BASED=PARAM );
      760     2875    1   DCL F$TEST DCB;
      761     2876
      762     2877        %EQU GRANULE_SIZE=1024;
      763     2878
PL6.E3A0      #002=FUI$FILELEN File=FUI$IORQS.:FUA2TSI                           FRI 11/21/97 11:32 Page:111
      764     2879    1   DCL B$DS8 PTR SYMREF;
      765     2880        %FU$NFSDS (NAME=DS, STCLASS="BASED(B$DS8)");
      766     2910    1   DCL B$JIT$ PTR SYMREF;
      767     2911        %B$TCB;
      768     2914    1   DCL B$TCB$ PTR SYMREF;
      769     2915        %B$ALT;
      770     2923        %F$DCB (DCBN = USERDCB, STCLASS = "BASED (F$TEST$)");
      771     2980
      772     2981        %FPT_OPEN  (FPTN =                 OPEN_INPUT,
      773     2982                    SHARE = IN,
      774     2983                    FUN = IN,
      775     2984                    ACS = UBLOCK,
      776     2985                    DCB=F$TEST);
      777     3094        %FPT_READ  (FPTN =                 READ_BINARY,
      778     3095                    DCB = F$TEST,
      779     3096                    KEYR = YES,
      780     3097                    KEY = BINKEY);
      781     3136        %FPT_PRECORD (FPTN =                POS_BINARY,
      782     3137                      DCB = F$TEST);
      783     3158        %FPT_READ  (FPTN =                 READ_INPUT,
      784     3159                    DCB = F$TEST);
      785     3198        %FPT_READ  (FPTN =                 READ_KGRAN,
      786     3199                    KEY=KGRAN#,
      787     3200                    DCB=F$TEST,
      788     3201                    FULL=YES,
      789     3202                    KEYS=YES);
      790     3241        %FPT_READ  (FPTN =                 READ_DGRAN,
      791     3242                    KEY=DGRAN#,
      792     3243                    DCB=F$TEST,
      793     3244                    FULL=YES,
      794     3245                    KEYS=YES);
      795     3284        %FPT_CLOSE (FPTN =                 CLOSE_INPUT,
      796     3285                    DCB = F$TEST);
      797     3327        %VLP_ERRCODE (FPTN =               E_EOF,
      798     3328                      STCLASS=CONSTANT,
      799     3329                      FCG='0625'O,
      800     3330                      MID='11'O,
PL6.E3A0      #002=FUI$FILELEN File=FUI$IORQS.:FUA2TSI                           FRI 11/21/97 11:32 Page:112
      801     3331                      MON='1'B,
      802     3332                      SEV=0,
      803     3333                      ERR#=%E$EOF);
      804     3378        %VLP_ERRCODE (FPTN =               E_DI,
      805     3379                      STCLASS=CONSTANT,
      806     3380                      FCG='0625'O,
      807     3381                      MID='11'O,
      808     3382                      MON='1'B,
      809     3383                      SEV=0,
      810     3384                      ERR#=%E$DI);
      811     3429
      812     3430                                      /* QUICK FILE ACCESS VARIABLES */
      813     3431
      814     3432    1   DCL KGRAN# SBIN STATIC;
      815     3433    1   DCL DGRAN# SBIN STATIC;
      816     3434    1   DCL LCRECX# SBIN;
      817     3435    1   DCL CRECX# SBIN;
      818     3436    1   DCL CRECNO# SBIN;
      819     3437    1   DCL EOF# BIT(1);
      820     3438    1   DCL ORG# SBIN;
      821     3439    1   DCL KEYRECX# (0:280) SBIN;    /* unpacked index to keys    */
      822     3440    1   DCL NUMKEYS# SBIN;            /* number of keys in KEYRECX */
      823     3441        %VLP_ERRCODE(FPTN= ERROR#, STCLASS="STATIC SYMDEF");
      824     3486
      825     3487    1   DCL KGRAN$ PTR;
      826     3488    1   DCL DGRAN$ PTR;
      827     3489    1   DCL KGRAN (0:1023) SBIN BASED( KGRAN$ );
      828     3490    1   DCL DGRAN (0:1023) SBIN BASED( DGRAN$ );
      829     3491
      830     3492
      831     3493        %FM$GRAN(BASED="BASED(KGRAN$)");
      832     3497        %FM$CON(BASED="BASED(CRECX$)");
      833     3501        %FM$KEYENT;
      834     3504        %FM$MISEG (BASED="BASED(MISEG$)");
      835     3508        %FM$FIT;
      836     3511    1   DCL 1 BINKEY STATIC, 2 * UBIN BYTE CALIGNED, 2 VAL UBIN(27) CALIGNED;
      837     3512
PL6.E3A0      #002=FUI$FILELEN File=FUI$IORQS.:FUA2TSI                           FRI 11/21/97 11:32 Page:113
      838     3513                                      /* LOCAL VARIABLES */
      839     3514
      840     3515    1   DCL FUI$MEMALLOC ENTRY(1);
      841     3516    1   DCL FUI$MEMFREE ENTRY(1);
      842     3517    1   DCL F$TEST$ PTR;
      843     3518    1   DCL BKEY_ BIT(36) BASED ALIGNED;
      844     3519    1   DCL CHK_VFC BIT(1);
      845     3520    1   DCL LEN SBIN;
      846     3521    1   DCL VFC UBIN BYTE BASED ALIGNED;
      847     3522    1   DCL CRECX$ PTR AUTO;          /* To current control word  */
      848     3523    1   DCL MISEG$ PTR AUTO;
      849     3524    1   DCL PAST_MISEG$ PTR AUTO;     /* To word past last MISEG  */
      850     3525
      851     3526    1   DCL GDA# UBIN WORD ALIGNED AUTO;
      852     3527    1   DCL 1 GDA REDEF GDA#,
      853     3528    1          2 * UBIN HALF UNAL,
      854     3529    1          2 GRAN UBIN HALF UNAL;
      855     3530    1   DCL VFC_ADJUST(0:511) SBIN CONSTANT INIT (
      856     3531    1       0*64, -1 /* @ */, 0,1,2,3,4,5,6,7,8,9,10,11,12,13,14,0*0);
      857     3532
      858     3533        %EJECT;
PL6.E3A0      #002=FUI$FILELEN File=FUI$IORQS.:FUA2TSI                           FRI 11/21/97 11:32 Page:114
      859     3534    1        ORG# = 0;
      860     3535    1        ERROR# = '0'B;
      861     3536    1        EOF# = %NO#;
      862     3537    1        CRECNO# = 0;
      863     3538
      864     3539    1        IF CODE03.ORG = %KEYED# AND CODE03.TYPE = 'ur' /* binary file */
      865     3540    2        THEN DO;
      866     3541    2           OPEN_INPUT.V.ACS# = %SEQUEN#;
      867     3542    2           IF DS.QREADLIM < 1 THEN ALTRETURN; /* we'll need to read 1 rec */
      868     3543    2           ORG# = -1;
      869     3544    2           POS_BINARY.V.N# = CODE03.NRECS - 1;
      870     3545    2           END;
      871     3546    1        ELSE IF (CODE03.ORG = %KEYED# OR CODE03.ORG = %CONSEC# OR CODE03.ORG = %UR#)
      872     3547    1              AND NOT CODE03.DESC.BAD AND NOT CODE03.COMP
      873     3548    2           THEN DO;         /* try to set up for optimized reads */
      874     3549    2              OPEN_INPUT.V.ACS# = %UBLOCK#;
      875     3550    2              IF CODE03.UGRANS > DS.QREADLIM THEN ALTRETURN;
      876     3551    2              END;
      877     3552    2           ELSE DO;              /* can't do optimized reads */
      878     3553    2              OPEN_INPUT.V.ACS# = %SEQUEN#;
      879     3554    2              IF CODE03.UGRANS > DS.SREADLIM THEN ALTRETURN;
      880     3555    2              END;
      881     3556
      882     3557    1        F$TEST$ = DCBADDR (DCBNUM (F$TEST));
      883     3558    1        CALL FUI$MEMALLOC( DGRAN$ );
      884     3559    1        CALL FUI$MEMALLOC( KGRAN$ );
      885     3560    1        READ_INPUT.BUF_ = VECTOR( KGRAN );
      886     3561    1        READ_BINARY.BUF_ = VECTOR( KGRAN );
      887     3562    1        READ_KGRAN.BUF_ = VECTOR( KGRAN );
      888     3563    1        READ_DGRAN.BUF_ = VECTOR( DGRAN );
      889     3564
      890     3565    2        CALL M$OPEN( OPEN_INPUT ) WHENALTRETURN DO; ALTRETURN; END;
      891     3566    1        IF USERDCB.ACS# = %UBLOCK# /* a successful "fast" open */
      892     3567    2        THEN DO;
      893     3568    2           ORG# = CODE03.ORG; /* set ORG# to %KEYED#, %CONSEC# or %UR# */
      894     3569
      895     3570    2           KGRAN# = 0;      /* Initialize for first read or write. */
PL6.E3A0      #002=FUI$FILELEN File=FUI$IORQS.:FUA2TSI                           FRI 11/21/97 11:32 Page:115
      896     3571    2           DGRAN# = -1;          /* nothing yet */
      897     3572    2           CALL M$READ (READ_KGRAN);
      898     3573    3           DO SELECT (ORG#);
      899     3574    3              SELECT (%CONSEC#, %UR#); /* consecutive file, fill up CBUF */
      900     3575    3              CRECX# = %GRANULE_SIZE;
      901     3576    3              LCRECX# = FM$GRAN.NAVX + KGRAN$->FM$GRAN.AVAIL;
      902     3577    3              SELECT (%KEYED#); /* keyed file, fill up CBUF iff whole file */
      903     3578    3              CRECX# = 0;
      904     3579    3              LCRECX# = 0;
      905     3580    3              CALL FUI_UNPACK_KEY_GRAN;
      906     3581    3              END;               /* do select */
      907     3582    2           END;
      908     3583
      909     3584    1        FILELEN = 0;
      910     3585    2        DO WHILE ('1'B);
      911     3586    2           CALL FUI_READ ALTRET( EXITT );
      912     3587    2           FILELEN = FILELEN + LEN;
      913     3588    2           END;
      914     3589
      915     3590    1   EXITT:;
      916     3591    2        IF USERDCB.FCD# THEN CALL M$CLOSE( CLOSE_INPUT )WHENALTRETURN DO; END;
      917     3592    1        CALL FUI$MEMFREE( DGRAN$ );
      918     3593    1        CALL FUI$MEMFREE( KGRAN$ );
      919     3594    1        RETURN;
      920     3595        %EJECT;
PL6.E3A0      #002=FUI$FILELEN File=FUI$IORQS.:FUA2TSI                           FRI 11/21/97 11:32 Page:116
      921     3596        /*I*  NAME:      FUI_READ
      922     3597              Purpose:   To get the length for the next record in the input file.
      923     3598              Algorithm: If we're set up for quick reading, we can do a quick read,
      924     3599                         otherwise we have to do a regular read (including continuation
      925     3600                         reads, since records can be > 4096 chars).
      926     3601              Outputs:   LEN (global) - length of record in NFS characters (after
      927     3602                         VFC translation).
      928     3603        */
      929     3604    1   FUI_READ: PROC ALTRET;
      930     3605
      931     3606    2        ERROR# = '0'B;
      932     3607
      933     3608    2        IF EOF# THEN ALTRETURN;
      934     3609
      935     3610    3        DO CASE( ORG# );
      936     3611    3        CASE( %CONSEC#, %UR# );
      937     3612    3           CALL FUI_CONSEC_READ;
      938     3613    3        CASE( %KEYED# );
      939     3614    3           CALL FUI_KEYED_READ;
      940     3615    3        CASE(ELSE);    /* a binary file read - read last record */
      941     3616    3           IF POS_BINARY.V.N# > 0 THEN CALL M$PRECORD( POS_BINARY );
      942     3617    3           CALL M$READ( READ_BINARY )
      943     3618    4           WHENRETURN DO;
      944     3619    4              LEN = (BINKEY.VAL-1) * 1024 + USERDCB.ARS#;
      945     3620    4              END;
      946     3621    4           WHENALTRETURN DO;
      947     3622    4              ERROR# = B$TCB$->B$TCB.ALT$->B$ALT.ERR;
      948     3623    4              END;
      949     3624    3           EOF# = %YES#;
      950     3625    3        CASE(0);                 /* It is not an optimized read */
      951     3626    3           CRECNO# = CRECNO# + 1;
      952     3627    3           CALL M$READ( READ_INPUT )
      953     3628    4           WHENALTRETURN DO;
      954     3629    4              ERROR# = B$TCB$->B$TCB.ALT$->B$ALT.ERR;
      955     3630    4              END;
      956     3631    3           LEN = USERDCB.ARS#;
      957     3632    3           IF USERDCB.DVBYTE.VFC#
PL6.E3A0      #002=FUI$FILELEN File=FUI$IORQS.:FUA2TSI                           FRI 11/21/97 11:32 Page:117
      958     3633    3           THEN LEN = LEN + VFC_ADJUST( ASCBIN( USERDCB.VFCCHAR# ));
      959     3634    3           ELSE LEN = LEN + 1;   /* lengthc (LF) */
      960     3635    4           DO WHILE (ERROR#.ERR# = %E$LD);
      961     3636    4              ERROR# = '0'B;
      962     3637    4              READ_INPUT.V.DVBYTE.CONT# = %YES#;
      963     3638    4              CALL M$READ( READ_INPUT )
      964     3639    5              WHENALTRETURN DO;
      965     3640    5                 ERROR# = B$TCB$->B$TCB.ALT$->B$ALT.ERR;
      966     3641    5                 END;
      967     3642    4              LEN = LEN + USERDCB.ARS#;
      968     3643    4              READ_INPUT.V.DVBYTE.CONT# = %NO#;
      969     3644    4              END;
      970     3645    3        END;                     /* do case */
      971     3646
      972     3647    2        IF ERROR# = '0'B
      973     3648    2        THEN RETURN;             /* no error */
      974     3649    2        ELSE ALTRETURN;          /* otherwise EOF or something else */
      975     3650
      976     3651    2   END FUI_READ;
      977     3652        %EJECT;
PL6.E3A0      #002=FUI$FILELEN File=FUI$IORQS.:FUA2TSI                           FRI 11/21/97 11:32 Page:118
      978     3653        /*I*  NAME:      FUI_KEYED_READ
      979     3654              Purpose:   To get the length for the KEYED file's next record
      980     3655              Algorithm: Get to the next record.  For each MISEG in that record,
      981     3656                         add the length to the record length.  If there's a VFC
      982     3657                         char, then we have to read a data granule, so that we'll
      983     3658                         get the VFC char to adjust the length by.
      984     3659        */
      985     3660    1   FUI_KEYED_READ: PROC ALTRET;
      986     3661
      987     3662    3        DO UNTIL( NOT CRECX$->FM$KEYENT.D );
      988     3663    3           CRECX# = CRECX# + 1;  /* Index next key   */
      989     3664    4           DO WHILE(CRECX# > NUMKEYS#);
      990     3665    4              GDA# = FM$GRAN.FLINK;
      991     3666    4              KGRAN# = GDA.GRAN;
      992     3667    4              IF KGRAN# = 0 THEN GOTO RPT_EOF; /* End of file     */
      993     3668    4              CALL M$READ( READ_KGRAN )ALTRET( JUSTALT );
      994     3669    4              CALL FUI_UNPACK_KEY_GRAN;
      995     3670    4              CRECX# = 1;        /* First key of gran        */
      996     3671    4              END;
      997     3672    3           CRECX$ = PINCRW( KGRAN$, KEYRECX#( CRECX# ));
      998     3673    3           END /* until not CRECX$->FM$KEYENT.D */;
      999     3674
     1000     3675    2        MISEG$ = PINCRW( CRECX$, SIZEW(CRECX$->FM$KEYENT));
              3675                 /* Point to first MISEG entry */
     1001     3676    2        LEN = 0;
     1002     3677    2        CHK_VFC = %NO#;
     1003     3678    2        IF FM$MISEG.CTL & '001'B /* see if builtin VFC */
     1004     3679    2        THEN CHK_VFC = %YES#;
     1005     3680    2        ELSE LEN = LEN + 1;      /* lengthc (LF) */
     1006     3681
     1007     3682    2        CRECNO# = CRECNO# + 1;
     1008     3683    2   READ_DATA:               /* return record segment by segment. */
     1009     3684    3        DO WHILE( %YES# );
     1010     3685    3           PAST_MISEG$ = PINCRW( KGRAN$, KEYRECX#( CRECX#+1 ));
     1011     3686
     1012     3687    4           DO WHILE( MISEG$ < PAST_MISEG$ );
     1013     3688    4              LEN = LEN + FM$MISEG.GACTB; /* Number of bytes in segment */
PL6.E3A0      #002=FUI$FILELEN File=FUI$IORQS.:FUA2TSI                           FRI 11/21/97 11:32 Page:119
     1014     3689    4              IF CHK_VFC AND LEN > 0
     1015     3690    5              THEN DO;      /* need to check what the VFC char is */
     1016     3691    5                 GDA# = FM$MISEG.GDA;
     1017     3692    5                 IF GDA.GRAN = KGRAN#
     1018     3693    5                 THEN CRECX$ = PINCRW( KGRAN$, FM$MISEG.GX ); /* data in key gran */
     1019     3694    6                 ELSE DO;
     1020     3695    6                    IF GDA.GRAN ~= DGRAN#
     1021     3696    7                    THEN DO;
     1022     3697    7                       DGRAN# = GDA.GRAN;
     1023     3698    7                       CALL M$READ( READ_DGRAN )ALTRET( JUSTALT);
     1024     3699    7                       END;
     1025     3700    6                    CRECX$ = PINCRW( DGRAN$, FM$MISEG.GX );
     1026     3701    6                    END;
     1027     3702    5                 LEN = LEN + VFC_ADJUST( CRECX$->VFC );
     1028     3703    5                 CHK_VFC = %NO#;
     1029     3704    5                 END;
     1030     3705    4              MISEG$ = PINCRW( MISEG$, LENGTHW(FM$MISEG) );
     1031     3706    4              END;
     1032     3707    3           IF CRECX# < NUMKEYS#
     1033     3708    3           THEN EXIT READ_DATA;  /* Another segment can't exist */
     1034     3709    3           GDA# = FM$GRAN.FLINK;
     1035     3710    3           KGRAN# = GDA.GRAN;
     1036     3711    3           IF KGRAN# = 0
     1037     3712    3           THEN EXIT READ_DATA;  /* Another segment can't exist */
     1038     3713    3           CALL M$READ( READ_KGRAN )ALTRET( JUSTALT );
     1039     3714    3           CALL FUI_UNPACK_KEY_GRAN;
     1040     3715    3           CRECX# = 0;           /* Before first key of gran */
     1041     3716    3           MISEG$ = PINCRW( KGRAN$, KEYRECX#( CRECX# ));
     1042     3717    3           END;
     1043     3718
     1044     3719    2        RETURN;
     1045     3720
     1046     3721    2   RPT_EOF: ;
     1047     3722    2        ERROR# = E_EOF;
     1048     3723    2        EOF# = %YES#;
     1049     3724    2   JUSTALT: ;
     1050     3725    2        ALTRETURN;
PL6.E3A0      #002=FUI$FILELEN File=FUI$IORQS.:FUA2TSI                           FRI 11/21/97 11:32 Page:120
     1051     3726
     1052     3727    2   END FUI_KEYED_READ;
     1053     3728        %EJECT;
PL6.E3A0      #002=FUI$FILELEN File=FUI$IORQS.:FUA2TSI                           FRI 11/21/97 11:32 Page:121
     1054     3729        /*I*  NAME:      FUI_UNPACK_KEY_GRAN
     1055     3730              Purpose:   To unpack a key granule's key indices for easier access.
     1056     3731        */
     1057     3732    1   FUI_UNPACK_KEY_GRAN: PROC ALTRET;
     1058     3733
     1059     3734    2   DCL KEYTBL$ PTR;
     1060     3735        %FM$KEYTBL (BASED="BASED (KEYTBL$)");
     1061     3738    2   DCL KEYNUM SBIN;
     1062     3739    2   DCL KEY512 SBIN;
     1063     3740
     1064     3741
     1065     3742    2        KEYTBL$ = PINCRW( KGRAN$, FM$GRAN.FCEX );
     1066     3743    2        NUMKEYS# = FM$GRAN.KEYCNT;
     1067     3744    2        KEY512 = FM$KEYTBL(0);   /* any key > this : add 512 to it */
     1068     3745    2        KEYRECX#(0) = FM$GRAN.FCEX+SIZEW(FM$KEYTBL);
     1069     3746    3        DO KEYNUM = 1 TO NUMKEYS#;
     1070     3747    3           KEYRECX#( KEYNUM ) = FM$KEYTBL( KEYNUM );
     1071     3748    3           IF KEYNUM >= KEY512 THEN KEYRECX#( KEYNUM ) = KEYRECX#( KEYNUM )+512;
     1072     3749    3           END;
     1073     3750    2        KEYRECX#( KEYNUM ) = FM$GRAN.NAVX;
     1074     3751
     1075     3752    2        RETURN;
     1076     3753
     1077     3754    2   END FUI_UNPACK_KEY_GRAN;
     1078     3755
     1079     3756        %EJECT;
PL6.E3A0      #002=FUI$FILELEN File=FUI$IORQS.:FUA2TSI                           FRI 11/21/97 11:32 Page:122
     1080     3757        /*I*  NAME:      FUI_CONSEC_READ
     1081     3758              Purpose:   To get the length for the CONSEC or UR file's next record
     1082     3759              Algorithm: Position to the start of the next record.  Keep adding the
     1083     3760                         length of record segments while a next segment exists,
     1084     3761                         and the start of the next record is not encountered.  If
     1085     3762                         there's a VFC char to check, it's in the same granule.
     1086     3763        */
     1087     3764    1   FUI_CONSEC_READ: PROC ALTRET;
     1088     3765
     1089     3766    3        DO UNTIL( FM$CON.FAK ~= 0 ); /* Find beginning of next record */
     1090     3767    3           CALL FUI_CONSEC_SEG ALTRET( EOF_EXPECTED );
     1091     3768    3           END;                  /* do until FM$CON.FAK ~= 0 */
     1092     3769    2        CRECNO# = CRECNO# + 1;
     1093     3770
     1094     3771    2        LEN = 0;
     1095     3772    2        CHK_VFC = %NO#;
     1096     3773    2        IF FM$CON.CTL & '001'B   /* look for builtin VFC     */
     1097     3774    2        THEN CHK_VFC = %YES#;
     1098     3775    2        ELSE LEN = LEN + 1;      /* lengthc (LF) */
     1099     3776
     1100     3777    2   APPEND_CONSEC_SEG: /* Keep appending record segments for this record */
     1101     3778    2        LEN = LEN + FM$CON.GACTB; /* Get # bytes in segment   */
     1102     3779    2        IF CHK_VFC AND LEN > 0
     1103     3780    3        THEN DO;
     1104     3781    3           LEN = LEN + VFC_ADJUST( ADDR(KGRAN(ADDR(KGRAN)->FM$CON.GX))->VFC );
     1105     3782    3           CHK_VFC = %NO#;
     1106     3783    3           END;
     1107     3784
     1108     3785    2        IF ( FM$CON.C ~= 0 )     /* continuation of segment */
     1109     3786    2        THEN
     1110     3787    2           CALL FUI_CONSEC_SEG
     1111     3788    3           WHENRETURN DO;
     1112     3789    3              IF FM$CON.FAK ~= 0
     1113     3790    3              THEN               /* Hit beginning of next record  */
     1114     3791    3                 CRECX# = CRECX# + 1; /* Remember position        */
     1115     3792    3              ELSE               /* a continuation segment - */
     1116     3793    3                 GOTO APPEND_CONSEC_SEG; /* append it */
PL6.E3A0      #002=FUI$FILELEN File=FUI$IORQS.:FUA2TSI                           FRI 11/21/97 11:32 Page:123
     1117     3794    3              END;
     1118     3795    3           WHENALTRETURN DO;
     1119     3796    3              IF ERROR#.ERR# = %E$EOF THEN
     1120     3797    3                 ERROR#='0'B;    /* Give him what we have so far. */
     1121     3798    3              END;
     1122     3799
     1123     3800    2        RETURN;
     1124     3801
     1125     3802    2   JUSTALT: ;
     1126     3803    2   EOF_EXPECTED: ;
     1127     3804    2        ALTRETURN;
     1128     3805
     1129     3806    2   END FUI_CONSEC_READ;
     1130     3807        %EJECT;
PL6.E3A0      #002=FUI$FILELEN File=FUI$IORQS.:FUA2TSI                           FRI 11/21/97 11:32 Page:124
     1131     3808        /*I*  NAME:      FUI_CONSEC_SEG
     1132     3809              Purpose:   Position to the next segment of a CONSEC or UR file.
     1133     3810        */
     1134     3811    1   FUI_CONSEC_SEG: PROC ALTRET;
     1135     3812
     1136     3813    2        CRECX# = CRECX# - 1;     /* Next control word      */
     1137     3814
     1138     3815    3        DO WHILE (CRECX# < LCRECX#);
     1139     3816    3           CALL FUI_GET_NEXT_GRAN ALTRET( JUSTALT );
     1140     3817    3           CRECX# = %(GRANULE_SIZE-1); /* Index of first record control word */
     1141     3818    3           LCRECX# = FM$GRAN.NAVX + KGRAN$->FM$GRAN.AVAIL;
     1142     3819    3           END;
     1143     3820
     1144     3821    2        CRECX$ = ADDR( KGRAN( CRECX# ) );
     1145     3822    2        RETURN;
     1146     3823
     1147     3824    2   JUSTALT: ;
     1148     3825    2        ALTRETURN;
     1149     3826
     1150     3827    2   END FUI_CONSEC_SEG;
     1151     3828        %EJECT;
PL6.E3A0      #002=FUI$FILELEN File=FUI$IORQS.:FUA2TSI                           FRI 11/21/97 11:32 Page:125
     1152     3829        /*I*  NAME:      FUI_GET_NEXT_GRAN
     1153     3830              Purpose:   Read the next granule of the CONSEC or UR input file.
     1154     3831        */
     1155     3832    1   FUI_GET_NEXT_GRAN: PROC ALTRET;
     1156     3833
     1157     3834    2        IF NOT KGRAN$->FM$GRAN.ENDLVL
     1158     3835    3        THEN DO;                 /* That *was* the last granule   */
     1159     3836    3           ERROR# = E_EOF;
     1160     3837    3           EOF# = %YES#;
     1161     3838    3           ALTRETURN;
     1162     3839    3           END;
     1163     3840
     1164     3841    2        KGRAN# = KGRAN# + 1;     /* get the next granule. */
     1165     3842    2        CALL M$READ (READ_KGRAN) ALTRET (RTN_ERR);
     1166     3843
     1167     3844    2        IF KGRAN(0) ~= -1 THEN
     1168     3845    2           RETURN;
     1169     3846    2        ERROR# = E_DI;
     1170     3847    2        GOTO JUSTALT;
     1171     3848
     1172     3849    2   RTN_ERR:
     1173     3850    2        ERROR# = B$TCB$->B$TCB.ALT$->B$ALT.ERR;
     1174     3851    2   JUSTALT:;
     1175     3852    2        ALTRETURN;
     1176     3853
     1177     3854    2   END FUI_GET_NEXT_GRAN;
     1178     3855
     1179     3856    1   END FUI$FILELEN;
     1180     3857        %EOD;

PL6.E3A0      #002=FUI$FILELEN File=FUI$IORQS.:FUA2TSI                           FRI 11/21/97 11:32 Page:126
--  Include file information  --

   FU_NFS_M.:FUA2TOU  is referenced.
   B$JIT.:E05OU  cannot be made into a system file and is referenced.
   FM$GRAN.:E05OU  is referenced.
   FM$FIT.:E05OU  is referenced.
   B_ERRORS_C.:E05OU  is referenced.
   CP_6_SUBS.:E05OU  is referenced.
   CP_6.:E05OU  cannot be made into a system file and is referenced.
   B$JIT_C.:E05TOU  was found in the system file and is referenced.
   CP_6_C.:E05TOU  was found in the system file and is referenced.
      No diagnostics issued in procedure FUI$FILELEN.

   Procedure FUI$FILELEN requires 566 words for executable code.
   Procedure FUI$FILELEN requires 312 words of local(AUTO) storage.

PL6.E3A0      #002=FUI$FILELEN File=FUI$IORQS.:FUA2TSI                           FRI 11/21/97 11:32 Page:127

 Object Unit name= FUI$FILELEN                                File name= FUI$IORQS.:FUA2TOU
 UTS= NOV 21 '97 11:32:59.52 FRI                              Compiler= PL-6/E31         Sev=      00
 SharedLib= :SHARED_SYSTEM                                    Alt SharedLib=


    ****  Control sections  ****

 Sect   Type Bound  Init  Size OctSiz  Section name(segment info)
    0   DCB   even  none     0      0  M$UC
    1   DCB   even  none     0      0  F$TEST
    2   Data  even  none   158    236  FUI$FILELEN
    3  RoData even  UTS    515   1003  FUI$FILELEN
    4   Proc  even  none   566   1066  FUI$FILELEN
    5  RoData even  none     3      3  FUI$FILELEN

    ****  Entry defs  ****

                              Check   Calling
                             calling  sequence
  Sect OctLoc Primary Altret sequence   type   Parms  Name
     4      0   yes    yes     yes      Std        2  FUI$FILELEN

  ****  Data defs  ****

 Sect OctLoc  Name                           Sect OctLoc  Name
    2    234  ERROR#
PL6.E3A0      #002=FUI$FILELEN File=FUI$IORQS.:FUA2TSI                           FRI 11/21/97 11:32 Page:128

  ****  Entry refs  ****

         Check        Calling
        calling       sequence
Altret sequence SRef   type   Args  Name
         yes           Std       1 FUI$MEMALLOC
         yes           Std       1 FUI$MEMFREE
                       nStd      0 X66_AUTO_2
                       nStd      0 X66_AALT
                       Std       0 B_CONSPOOL_D
                       nStd      0 X66_ARET

  ****  Data refs  ****

  Flags:  r = read only, s = secondary
Flgs Name                             Flgs Name                             Flgs Name
     M$UC                                  F$TEST                                B$DS8
     B$JIT$                                B$TCB$                                B_VECTNIL

  ****  Segment refs  ****

  Flags:  r = read only, s = secondary
Flgs Name                             Flgs Name                             Flgs Name
     ISSID                                 NULLSID                               ROSID
PL6.E3A0      #002=FUI$FILELEN File=FUI$IORQS.:FUA2TSI                           FRI 11/21/97 11:32 Page:129


      727        1        /*M* FUI$FILELEN - figure out the length of a file (maybe)   */
      728        2        /*T***********************************************************/
      729        3        /*T*                                                         */
      730        4        /*T* Copyright (c) Bull HN Information Systems Inc., 1997    */
      731        5        /*T*                                                         */
      732        6        /*T***********************************************************/
      733        7        /*X* DMR,PLM=5,IND=3,CTI=3,SDI=3,MCL=2,CSI=0,ECI=0,CLM=30,CRM=67, MOC=Y,CCI=3 */
      734        8        /*F*  NAME: FUI$FILELEN
      735        9              Purpose:
      736       10                    Calculates the length (in NFS bytes) of a file.
      737       11        */
      738       12        /*D*  NAME: FUI$IORQS
      739       13              Inputs:
      740       14                    CODE03 - the FIT CODE03 of the file we're to open/read from.
      741       15                    F$TEST - the DCB that the file is linked to.
      742       16              Outputs:
      743       17                    FILELEN - the length of the file we're reading from.
      744       18        */
      745       19
      746       20        FUI$FILELEN: PROC (FILELEN, CODE03) ALTRET;

     20  4 000000   000000 700200 xent  FUI$FILELEN  TSX0  ! X66_AUTO_2
         4 000001   000470 000002                    ZERO    312,2

      747       21
      748       22             %INCLUDE CP_6;
      749      103             %INCLUDE CP_6_SUBS;
      750      643             %INCLUDE B_ERRORS_C;
      751     1769             %INCLUDE FM$FIT;
      752     1990             %INCLUDE FM$GRAN;
      753     2059             %INCLUDE B$JIT;
      754     2349             %INCLUDE FU_NFS_M;
      755     2864
      756     2865                                      /* ARGUMENTS */
      757     2866
      758     2867    1   DCL FILELEN UBIN PARAM;
PL6.E3A0      #002=FUI$FILELEN File=FUI$IORQS.:FUA2TSI                           FRI 11/21/97 11:32 Page:130
      759     2868             %CODE03( BASED=PARAM );
      760     2875    1   DCL F$TEST DCB;
      761     2876
      762     2877        %EQU GRANULE_SIZE=1024;
      763     2878
      764     2879    1   DCL B$DS8 PTR SYMREF;
      765     2880        %FU$NFSDS (NAME=DS, STCLASS="BASED(B$DS8)");
      766     2910    1   DCL B$JIT$ PTR SYMREF;
      767     2911        %B$TCB;
      768     2914    1   DCL B$TCB$ PTR SYMREF;
      769     2915        %B$ALT;
      770     2923        %F$DCB (DCBN = USERDCB, STCLASS = "BASED (F$TEST$)");
      771     2980
      772     2981        %FPT_OPEN  (FPTN =                 OPEN_INPUT,
      773     2982                    SHARE = IN,
      774     2983                    FUN = IN,
      775     2984                    ACS = UBLOCK,
      776     2985                    DCB=F$TEST);
      777     3094        %FPT_READ  (FPTN =                 READ_BINARY,
      778     3095                    DCB = F$TEST,
      779     3096                    KEYR = YES,
      780     3097                    KEY = BINKEY);
      781     3136        %FPT_PRECORD (FPTN =                POS_BINARY,
      782     3137                      DCB = F$TEST);
      783     3158        %FPT_READ  (FPTN =                 READ_INPUT,
      784     3159                    DCB = F$TEST);
      785     3198        %FPT_READ  (FPTN =                 READ_KGRAN,
      786     3199                    KEY=KGRAN#,
      787     3200                    DCB=F$TEST,
      788     3201                    FULL=YES,
      789     3202                    KEYS=YES);
      790     3241        %FPT_READ  (FPTN =                 READ_DGRAN,
      791     3242                    KEY=DGRAN#,
      792     3243                    DCB=F$TEST,
      793     3244                    FULL=YES,
      794     3245                    KEYS=YES);
      795     3284        %FPT_CLOSE (FPTN =                 CLOSE_INPUT,
PL6.E3A0      #002=FUI$FILELEN File=FUI$IORQS.:FUA2TSI                           FRI 11/21/97 11:32 Page:131
      796     3285                    DCB = F$TEST);
      797     3327        %VLP_ERRCODE (FPTN =               E_EOF,
      798     3328                      STCLASS=CONSTANT,
      799     3329                      FCG='0625'O,
      800     3330                      MID='11'O,
      801     3331                      MON='1'B,
      802     3332                      SEV=0,
      803     3333                      ERR#=%E$EOF);
      804     3378        %VLP_ERRCODE (FPTN =               E_DI,
      805     3379                      STCLASS=CONSTANT,
      806     3380                      FCG='0625'O,
      807     3381                      MID='11'O,
      808     3382                      MON='1'B,
      809     3383                      SEV=0,
      810     3384                      ERR#=%E$DI);
      811     3429
      812     3430                                      /* QUICK FILE ACCESS VARIABLES */
      813     3431
      814     3432    1   DCL KGRAN# SBIN STATIC;
      815     3433    1   DCL DGRAN# SBIN STATIC;
      816     3434    1   DCL LCRECX# SBIN;
      817     3435    1   DCL CRECX# SBIN;
      818     3436    1   DCL CRECNO# SBIN;
      819     3437    1   DCL EOF# BIT(1);
      820     3438    1   DCL ORG# SBIN;
      821     3439    1   DCL KEYRECX# (0:280) SBIN;    /* unpacked index to keys    */
      822     3440    1   DCL NUMKEYS# SBIN;            /* number of keys in KEYRECX */
      823     3441        %VLP_ERRCODE(FPTN= ERROR#, STCLASS="STATIC SYMDEF");
      824     3486
      825     3487    1   DCL KGRAN$ PTR;
      826     3488    1   DCL DGRAN$ PTR;
      827     3489    1   DCL KGRAN (0:1023) SBIN BASED( KGRAN$ );
      828     3490    1   DCL DGRAN (0:1023) SBIN BASED( DGRAN$ );
      829     3491
      830     3492
      831     3493        %FM$GRAN(BASED="BASED(KGRAN$)");
      832     3497        %FM$CON(BASED="BASED(CRECX$)");
PL6.E3A0      #002=FUI$FILELEN File=FUI$IORQS.:FUA2TSI                           FRI 11/21/97 11:32 Page:132
      833     3501        %FM$KEYENT;
      834     3504        %FM$MISEG (BASED="BASED(MISEG$)");
      835     3508        %FM$FIT;
      836     3511    1   DCL 1 BINKEY STATIC, 2 * UBIN BYTE CALIGNED, 2 VAL UBIN(27) CALIGNED;
      837     3512
      838     3513                                      /* LOCAL VARIABLES */
      839     3514
      840     3515    1   DCL FUI$MEMALLOC ENTRY(1);
      841     3516    1   DCL FUI$MEMFREE ENTRY(1);
      842     3517    1   DCL F$TEST$ PTR;
      843     3518    1   DCL BKEY_ BIT(36) BASED ALIGNED;
      844     3519    1   DCL CHK_VFC BIT(1);
      845     3520    1   DCL LEN SBIN;
      846     3521    1   DCL VFC UBIN BYTE BASED ALIGNED;
      847     3522    1   DCL CRECX$ PTR AUTO;          /* To current control word  */
      848     3523    1   DCL MISEG$ PTR AUTO;
      849     3524    1   DCL PAST_MISEG$ PTR AUTO;     /* To word past last MISEG  */
      850     3525
      851     3526    1   DCL GDA# UBIN WORD ALIGNED AUTO;
      852     3527    1   DCL 1 GDA REDEF GDA#,
      853     3528    1          2 * UBIN HALF UNAL,
      854     3529    1          2 GRAN UBIN HALF UNAL;
      855     3530    1   DCL VFC_ADJUST(0:511) SBIN CONSTANT INIT (
      856     3531    1       0*64, -1 /* @ */, 0,1,2,3,4,5,6,7,8,9,10,11,12,13,14,0*0);
      857     3532
      858     3533        %EJECT;
PL6.E3A0      #002=FUI$FILELEN File=FUI$IORQS.:FUA2TSI                           FRI 11/21/97 11:32 Page:133
      859     3534    1        ORG# = 0;

   3534  4 000002   200011 450100                    STZ     ORG#,,AUTO

      860     3535    1        ERROR# = '0'B;

   3535  4 000003   000234 450000 2                  STZ     ERROR#

      861     3536    1        EOF# = %NO#;

   3536  4 000004   200010 450100                    STZ     EOF#,,AUTO

      862     3537    1        CRECNO# = 0;

   3537  4 000005   200007 450100                    STZ     CRECNO#,,AUTO

      863     3538
      864     3539    1        IF CODE03.ORG = %KEYED# AND CODE03.TYPE = 'ur' /* binary file */

   3539  4 000006   200004 470500                    LDP0    @CODE03,,AUTO
         4 000007   000000 236100                    LDQ     0,,PR0
         4 000010   777000 376003                    ANQ     -512,DU
         4 000011   002000 116003                    CMPQ    1024,DU
         4 000012   000032 601000 4                  TNZ     s:3546
         4 000013   000001 720100                    LXL0    1,,PR0
         4 000014   001002 100000 3                  CMPX0   VFC_ADJUST+512
         4 000015   000032 601000 4                  TNZ     s:3546

      865     3540    2        THEN DO;

      866     3541    2           OPEN_INPUT.V.ACS# = %SEQUEN#;

   3541  4 000016   000001 236007                    LDQ     1,DL
         4 000017   000046 552004 2                  STBQ    OPEN_INPUT+38,'04'O

      867     3542    2           IF DS.QREADLIM < 1 THEN ALTRETURN; /* we'll need to read 1 rec */

PL6.E3A0      #002=FUI$FILELEN File=FUI$IORQS.:FUA2TSI                           FRI 11/21/97 11:32 Page:134
   3542  4 000020   000000 471400 xsym               LDP1    B$DS8
         4 000021   100016 235100                    LDA     14,,PR1
         4 000022   000024 601000 4                  TNZ     s:3543

   3542  4 000023   000000 702200 xent               TSX2  ! X66_AALT

      868     3543    2           ORG# = -1;

   3543  4 000024   000001 335007                    LCA     1,DL
         4 000025   200011 755100                    STA     ORG#,,AUTO

      869     3544    2           POS_BINARY.V.N# = CODE03.NRECS - 1;

   3544  4 000026   000002 235100                    LDA     2,,PR0
         4 000027   000001 135007                    SBLA    1,DL
         4 000030   000117 755000 2                  STA     POS_BINARY+7

      870     3545    2           END;

   3545  4 000031   000067 710000 4                  TRA     s:3557

      871     3546    1        ELSE IF (CODE03.ORG = %KEYED# OR CODE03.ORG = %CONSEC# OR CODE03.ORG = %UR#)

   3546  4 000032   002000 116003                    CMPQ    1024,DU
         4 000033   000040 600000 4                  TZE     s:3546+6
         4 000034   001000 116003                    CMPQ    512,DU
         4 000035   000040 600000 4                  TZE     s:3546+6
         4 000036   004000 116003                    CMPQ    2048,DU
         4 000037   000056 601000 4                  TNZ     s:3553
         4 000040   000001 236100                    LDQ     1,,PR0
         4 000041   020000 316003                    CANQ    8192,DU
         4 000042   000056 601000 4                  TNZ     s:3553
         4 000043   000004 234100                    SZN     4,,PR0
         4 000044   000056 604000 4                  TMI     s:3553

      872     3547    1              AND NOT CODE03.DESC.BAD AND NOT CODE03.COMP
      873     3548    2           THEN DO;         /* try to set up for optimized reads */
PL6.E3A0      #002=FUI$FILELEN File=FUI$IORQS.:FUA2TSI                           FRI 11/21/97 11:32 Page:135

      874     3549    2              OPEN_INPUT.V.ACS# = %UBLOCK#;

   3549  4 000045   000014 236007                    LDQ     12,DL
         4 000046   000046 552004 2                  STBQ    OPEN_INPUT+38,'04'O

      875     3550    2              IF CODE03.UGRANS > DS.QREADLIM THEN ALTRETURN;

   3550  4 000047   000000 471400 xsym               LDP1    B$DS8
         4 000050   000000 236100                    LDQ     0,,PR0
         4 000051   000032 376000 xsym               ANQ     B_VECTNIL+26
         4 000052   100016 116100                    CMPQ    14,,PR1
         4 000053   000067 602000 4                  TNC     s:3557
         4 000054   000067 600000 4                  TZE     s:3557

   3550  4 000055   000000 702200 xent               TSX2  ! X66_AALT

      876     3551    2              END;
      877     3552    2           ELSE DO;              /* can't do optimized reads */

      878     3553    2              OPEN_INPUT.V.ACS# = %SEQUEN#;

   3553  4 000056   000001 236007                    LDQ     1,DL
         4 000057   000046 552004 2                  STBQ    OPEN_INPUT+38,'04'O

      879     3554    2              IF CODE03.UGRANS > DS.SREADLIM THEN ALTRETURN;

   3554  4 000060   000000 471400 xsym               LDP1    B$DS8
         4 000061   000000 236100                    LDQ     0,,PR0
         4 000062   000032 376000 xsym               ANQ     B_VECTNIL+26
         4 000063   100017 116100                    CMPQ    15,,PR1
         4 000064   000067 602000 4                  TNC     s:3557
         4 000065   000067 600000 4                  TZE     s:3557

   3554  4 000066   000000 702200 xent               TSX2  ! X66_AALT

      880     3555    2              END;
PL6.E3A0      #002=FUI$FILELEN File=FUI$IORQS.:FUA2TSI                           FRI 11/21/97 11:32 Page:136
      881     3556
      882     3557    1        F$TEST$ = DCBADDR (DCBNUM (F$TEST));

   3557  4 000067   000000 236007 xsym               LDQ     F$TEST,DL
         4 000070   000000 473400 5                  LDP3    0
         4 000071   300000 474500                    LDP4    0,,PR3
         4 000072   400000 236106                    LDQ     0,QL,PR4
         4 000073   200446 756100                    STQ     F$TEST$,,AUTO

      883     3558    1        CALL FUI$MEMALLOC( DGRAN$ );

   3558  4 000074   200445 635500                    EPPR5   DGRAN$,,AUTO
         4 000075   200466 455500                    STP5    KEY512+1,,AUTO
         4 000076   200466 630500                    EPPR0   KEY512+1,,AUTO
         4 000077   000017 631400 xsym               EPPR1   B_VECTNIL+15
         4 000100   000000 701000 xent               TSX1    FUI$MEMALLOC
         4 000101   000000 011000                    NOP     0

      884     3559    1        CALL FUI$MEMALLOC( KGRAN$ );

   3559  4 000102   200444 630500                    EPPR0   KGRAN$,,AUTO
         4 000103   200466 450500                    STP0    KEY512+1,,AUTO
         4 000104   200466 630500                    EPPR0   KEY512+1,,AUTO
         4 000105   000017 631400 xsym               EPPR1   B_VECTNIL+15
         4 000106   000000 701000 xent               TSX1    FUI$MEMALLOC
         4 000107   000000 011000                    NOP     0

      885     3560    1        READ_INPUT.BUF_ = VECTOR( KGRAN );

   3560  4 000110   000001 235000 5                  LDA     1
         4 000111   200444 236100                    LDQ     KGRAN$,,AUTO
         4 000112   000126 757000 2                  STAQ    READ_INPUT+4

      886     3561    1        READ_BINARY.BUF_ = VECTOR( KGRAN );

   3561  4 000113   000001 235000 5                  LDA     1
         4 000114   200444 236100                    LDQ     KGRAN$,,AUTO
PL6.E3A0      #002=FUI$FILELEN File=FUI$IORQS.:FUA2TSI                           FRI 11/21/97 11:32 Page:137
         4 000115   000076 757000 2                  STAQ    READ_BINARY+4

      887     3562    1        READ_KGRAN.BUF_ = VECTOR( KGRAN );

   3562  4 000116   000001 235000 5                  LDA     1
         4 000117   200444 236100                    LDQ     KGRAN$,,AUTO
         4 000120   000144 757000 2                  STAQ    READ_KGRAN+4

      888     3563    1        READ_DGRAN.BUF_ = VECTOR( DGRAN );

   3563  4 000121   000001 235000 5                  LDA     1
         4 000122   200445 236100                    LDQ     DGRAN$,,AUTO
         4 000123   000162 757000 2                  STAQ    READ_DGRAN+4

      889     3564
      890     3565    2        CALL M$OPEN( OPEN_INPUT ) WHENALTRETURN DO; ALTRETURN; END;

   3565  4 000124   000000 630400 2                  EPPR0   OPEN_INPUT
         4 000125   450000 713400                    CLIMB   alt,open
         4 000126   410400 401760                    pmme    nvectors=18
         4 000127   000131 702000 4                  TSX2    s:3565+5
         4 000130   000132 710000 4                  TRA     s:3566

   3565  4 000131   000000 702200 xent               TSX2  ! X66_AALT

      891     3566    1        IF USERDCB.ACS# = %UBLOCK# /* a successful "fast" open */

   3566  4 000132   200446 470500                    LDP0    F$TEST$,,AUTO
         4 000133   000036 236100                    LDQ     30,,PR0
         4 000134   000777 376007                    ANQ     511,DL
         4 000135   000014 116007                    CMPQ    12,DL
         4 000136   000202 601000 4                  TNZ     s:3584

      892     3567    2        THEN DO;

      893     3568    2           ORG# = CODE03.ORG; /* set ORG# to %KEYED#, %CONSEC# or %UR# */

PL6.E3A0      #002=FUI$FILELEN File=FUI$IORQS.:FUA2TSI                           FRI 11/21/97 11:32 Page:138
   3568  4 000137   200004 471500                    LDP1    @CODE03,,AUTO
         4 000140   100000 236100                    LDQ     0,,PR1
         4 000141   000033 772000                    QRL     27
         4 000142   200011 756100                    STQ     ORG#,,AUTO

      894     3569
      895     3570    2           KGRAN# = 0;      /* Initialize for first read or write. */

   3570  4 000143   000232 450000 2                  STZ     KGRAN#

      896     3571    2           DGRAN# = -1;          /* nothing yet */

   3571  4 000144   000001 335007                    LCA     1,DL
         4 000145   000233 755000 2                  STA     DGRAN#

      897     3572    2           CALL M$READ (READ_KGRAN);

   3572  4 000146   000140 630400 2                  EPPR0   READ_KGRAN
         4 000147   040000 713400                    CLIMB   read
         4 000150   401400 401760                    pmme    nvectors=4

      898     3573    3           DO SELECT (ORG#);

   3573  4 000151   200011 236100                    LDQ     ORG#,,AUTO
         4 000152   000002 116007                    CMPQ    2,DL
         4 000153   000160 604000 4                  TMI     s:3573+7
         4 000154   000176 600000 4                  TZE     s:3578
         4 000155   000004 116007                    CMPQ    4,DL
         4 000156   000202 601000 4                  TNZ     s:3584
         4 000157   000163 710000 4                  TRA     s:3575
         4 000160   000001 116007                    CMPQ    1,DL
         4 000161   000202 601000 4                  TNZ     s:3584
         4 000162   000163 710000 4                  TRA     s:3575

      899     3574    3              SELECT (%CONSEC#, %UR#); /* consecutive file, fill up CBUF */

      900     3575    3              CRECX# = %GRANULE_SIZE;
PL6.E3A0      #002=FUI$FILELEN File=FUI$IORQS.:FUA2TSI                           FRI 11/21/97 11:32 Page:139

   3575  4 000163   002000 235007                    LDA     1024,DL
         4 000164   200006 755100                    STA     CRECX#,,AUTO

      901     3576    3              LCRECX# = FM$GRAN.NAVX + KGRAN$->FM$GRAN.AVAIL;

   3576  4 000165   200444 470500                    LDP0    KGRAN$,,AUTO
         4 000166   000001 236100                    LDQ     1,,PR0
         4 000167   001777 376007                    ANQ     1023,DL
         4 000170   200466 756100                    STQ     KEY512+1,,AUTO
         4 000171   000001 236100                    LDQ     1,,PR0
         4 000172   000022 772000                    QRL     18
         4 000173   200466 036100                    ADLQ    KEY512+1,,AUTO
         4 000174   200005 756100                    STQ     LCRECX#,,AUTO
         4 000175   000202 710000 4                  TRA     s:3584

      902     3577    3              SELECT (%KEYED#); /* keyed file, fill up CBUF iff whole file */

      903     3578    3              CRECX# = 0;

   3578  4 000176   200006 450100                    STZ     CRECX#,,AUTO

      904     3579    3              LCRECX# = 0;

   3579  4 000177   200005 450100                    STZ     LCRECX#,,AUTO

      905     3580    3              CALL FUI_UNPACK_KEY_GRAN;

   3580  4 000200   000624 701000 4                  TSX1    FUI_UNPACK_KEY_GRAN
         4 000201   000000 011000                    NOP     0

      906     3581    3              END;               /* do select */

      907     3582    2           END;

      908     3583
      909     3584    1        FILELEN = 0;
PL6.E3A0      #002=FUI$FILELEN File=FUI$IORQS.:FUA2TSI                           FRI 11/21/97 11:32 Page:140

   3584  4 000202   200003 470500                    LDP0    @FILELEN,,AUTO
         4 000203   000000 450100                    STZ     0,,PR0

      910     3585    2        DO WHILE ('1'B);

      911     3586    2           CALL FUI_READ ALTRET( EXITT );

   3586  4 000204   000241 701000 4                  TSX1    FUI_READ
         4 000205   000213 702000 4                  TSX2    EXITT

      912     3587    2           FILELEN = FILELEN + LEN;

   3587  4 000206   200003 470500                    LDP0    @FILELEN,,AUTO
         4 000207   000000 236100                    LDQ     0,,PR0
         4 000210   200450 036100                    ADLQ    LEN,,AUTO
         4 000211   000000 756100                    STQ     0,,PR0

      913     3588    2           END;

   3588  4 000212   000204 710000 4                  TRA     s:3586

   3586  4 000213                       EXITT        null
      914     3589
      915     3590    1   EXITT:;
      916     3591    2        IF USERDCB.FCD# THEN CALL M$CLOSE( CLOSE_INPUT )WHENALTRETURN DO; END;

   3591  4 000213   200446 470500                    LDP0    F$TEST$,,AUTO
         4 000214   000031 236100                    LDQ     25,,PR0
         4 000215   020000 316007                    CANQ    8192,DL
         4 000216   000224 600000 4                  TZE     s:3592

   3591  4 000217   000174 630400 2                  EPPR0   CLOSE_INPUT
         4 000220   450001 713400                    CLIMB   alt,close
         4 000221   406000 401760                    pmme    nvectors=13
         4 000222   000224 702000 4                  TSX2    s:3592
         4 000223   000224 710000 4                  TRA     s:3592
PL6.E3A0      #002=FUI$FILELEN File=FUI$IORQS.:FUA2TSI                           FRI 11/21/97 11:32 Page:141

      917     3592    1        CALL FUI$MEMFREE( DGRAN$ );

   3592  4 000224   200445 630500                    EPPR0   DGRAN$,,AUTO
         4 000225   200466 450500                    STP0    KEY512+1,,AUTO
         4 000226   200466 630500                    EPPR0   KEY512+1,,AUTO
         4 000227   000017 631400 xsym               EPPR1   B_VECTNIL+15
         4 000230   000000 701000 xent               TSX1    FUI$MEMFREE
         4 000231   000000 011000                    NOP     0

      918     3593    1        CALL FUI$MEMFREE( KGRAN$ );

   3593  4 000232   200444 630500                    EPPR0   KGRAN$,,AUTO
         4 000233   200466 450500                    STP0    KEY512+1,,AUTO
         4 000234   200466 630500                    EPPR0   KEY512+1,,AUTO
         4 000235   000017 631400 xsym               EPPR1   B_VECTNIL+15
         4 000236   000000 701000 xent               TSX1    FUI$MEMFREE
         4 000237   000000 011000                    NOP     0

      919     3594    1        RETURN;

   3594  4 000240   000000 702200 xent               TSX2  ! X66_ARET

      920     3595        %EJECT;
PL6.E3A0      #002=FUI$FILELEN File=FUI$IORQS.:FUA2TSI                           FRI 11/21/97 11:32 Page:142
      921     3596        /*I*  NAME:      FUI_READ
      922     3597              Purpose:   To get the length for the next record in the input file.
      923     3598              Algorithm: If we're set up for quick reading, we can do a quick read,
      924     3599                         otherwise we have to do a regular read (including continuation
      925     3600                         reads, since records can be > 4096 chars).
      926     3601              Outputs:   LEN (global) - length of record in NFS characters (after
      927     3602                         VFC translation).
      928     3603        */
      929     3604    1   FUI_READ: PROC ALTRET;

   3604  4 000241   200456 741300       FUI_READ     STX1  ! GDA#+2,,AUTO

      930     3605
      931     3606    2        ERROR# = '0'B;

   3606  4 000242   000234 450000 2                  STZ     ERROR#

      932     3607
      933     3608    2        IF EOF# THEN ALTRETURN;

   3608  4 000243   200010 234100                    SZN     EOF#,,AUTO
         4 000244   000246 605000 4                  TPL     s:3610

   3608  4 000245   000000 702211                    TSX2  ! 0,X1

      934     3609
      935     3610    3        DO CASE( ORG# );

   3610  4 000246   200011 235100                    LDA     ORG#,,AUTO
         4 000247   000005 115007                    CMPA    5,DL
         4 000250   000252 602005 4                  TNC     s:3610+4,AL
         4 000251   000265 710000 4                  TRA     s:3616
         4 000252   000314 710000 4                  TRA     s:3626
         4 000253   000257 710000 4                  TRA     s:3612
         4 000254   000262 710000 4                  TRA     s:3614
         4 000255   000265 710000 4                  TRA     s:3616
         4 000256   000257 710000 4                  TRA     s:3612
PL6.E3A0      #002=FUI$FILELEN File=FUI$IORQS.:FUA2TSI                           FRI 11/21/97 11:32 Page:143

      936     3611    3        CASE( %CONSEC#, %UR# );

      937     3612    3           CALL FUI_CONSEC_READ;

   3612  4 000257   000700 701000 4                  TSX1    FUI_CONSEC_READ
         4 000260   000000 011000                    NOP     0
         4 000261   000376 710000 4                  TRA     s:3647

      938     3613    3        CASE( %KEYED# );

      939     3614    3           CALL FUI_KEYED_READ;

   3614  4 000262   000404 701000 4                  TSX1    FUI_KEYED_READ
         4 000263   000000 011000                    NOP     0
         4 000264   000376 710000 4                  TRA     s:3647

      940     3615    3        CASE(ELSE);    /* a binary file read - read last record */

      941     3616    3           IF POS_BINARY.V.N# > 0 THEN CALL M$PRECORD( POS_BINARY );

   3616  4 000265   000117 236000 2                  LDQ     POS_BINARY+7
         4 000266   000272 604400 4                  TMOZ    s:3617

   3616  4 000267   000110 630400 2                  EPPR0   POS_BINARY
         4 000270   040003 713400                    CLIMB   16387
         4 000271   401000 401760                    pmme    nvectors=3

      942     3617    3           CALL M$READ( READ_BINARY )

   3617  4 000272   000072 630400 2                  EPPR0   READ_BINARY
         4 000273   440000 713400                    CLIMB   alt,read
         4 000274   401400 401760                    pmme    nvectors=4
         4 000275   000305 702000 4                  TSX2    s:3622

      943     3618    4           WHENRETURN DO;

PL6.E3A0      #002=FUI$FILELEN File=FUI$IORQS.:FUA2TSI                           FRI 11/21/97 11:32 Page:144
      944     3619    4              LEN = (BINKEY.VAL-1) * 1024 + USERDCB.ARS#;

   3619  4 000276   200446 470500                    LDP0    F$TEST$,,AUTO
         4 000277   000235 236000 2                  LDQ     BINKEY
         4 000300   000012 736000                    QLS     10
         4 000301   000000 036100                    ADLQ    0,,PR0
         4 000302   002000 136007                    SBLQ    1024,DL
         4 000303   200450 756100                    STQ     LEN,,AUTO

      945     3620    4              END;

   3620  4 000304   000311 710000 4                  TRA     s:3624

      946     3621    4           WHENALTRETURN DO;

      947     3622    4              ERROR# = B$TCB$->B$TCB.ALT$->B$ALT.ERR;

   3622  4 000305   000000 470400 xsym               LDP0    B$TCB$
         4 000306   000000 471500                    LDP1    0,,PR0
         4 000307   100102 236100                    LDQ     66,,PR1
         4 000310   000234 756000 2                  STQ     ERROR#

      948     3623    4              END;

      949     3624    3           EOF# = %YES#;

   3624  4 000311   400000 236003                    LDQ     -131072,DU
         4 000312   200010 756100                    STQ     EOF#,,AUTO
         4 000313   000376 710000 4                  TRA     s:3647

      950     3625    3        CASE(0);                 /* It is not an optimized read */

      951     3626    3           CRECNO# = CRECNO# + 1;

   3626  4 000314   200007 054100                    AOS     CRECNO#,,AUTO

      952     3627    3           CALL M$READ( READ_INPUT )
PL6.E3A0      #002=FUI$FILELEN File=FUI$IORQS.:FUA2TSI                           FRI 11/21/97 11:32 Page:145

   3627  4 000315   000122 630400 2                  EPPR0   READ_INPUT
         4 000316   440000 713400                    CLIMB   alt,read
         4 000317   401400 401760                    pmme    nvectors=4
         4 000320   000322 702000 4                  TSX2    s:3629
         4 000321   000326 710000 4                  TRA     s:3631

      953     3628    4           WHENALTRETURN DO;

      954     3629    4              ERROR# = B$TCB$->B$TCB.ALT$->B$ALT.ERR;

   3629  4 000322   000000 470400 xsym               LDP0    B$TCB$
         4 000323   000000 471500                    LDP1    0,,PR0
         4 000324   100102 236100                    LDQ     66,,PR1
         4 000325   000234 756000 2                  STQ     ERROR#

      955     3630    4              END;

      956     3631    3           LEN = USERDCB.ARS#;

   3631  4 000326   200446 470500                    LDP0    F$TEST$,,AUTO
         4 000327   000000 235100                    LDA     0,,PR0
         4 000330   200450 755100                    STA     LEN,,AUTO

      957     3632    3           IF USERDCB.DVBYTE.VFC#

   3632  4 000331   000003 236100                    LDQ     3,,PR0
         4 000332   100000 316003                    CANQ    32768,DU
         4 000333   000343 600000 4                  TZE     s:3634

      958     3633    3           THEN LEN = LEN + VFC_ADJUST( ASCBIN( USERDCB.VFCCHAR# ));

   3633  4 000334   000056 236100                    LDQ     46,,PR0
         4 000335   000033 772000                    QRL     27
         4 000336   000000 620006                    EAX0    0,QL
         4 000337   200450 236100                    LDQ     LEN,,AUTO
         4 000340   000002 036010 3                  ADLQ    VFC_ADJUST,X0
PL6.E3A0      #002=FUI$FILELEN File=FUI$IORQS.:FUA2TSI                           FRI 11/21/97 11:32 Page:146
         4 000341   200450 756100                    STQ     LEN,,AUTO
         4 000342   000344 710000 4                  TRA     s:3635

      959     3634    3           ELSE LEN = LEN + 1;   /* lengthc (LF) */

   3634  4 000343   200450 054100                    AOS     LEN,,AUTO

      960     3635    4           DO WHILE (ERROR#.ERR# = %E$LD);

   3635  4 000344   000234 236000 2                  LDQ     ERROR#
         4 000345   377770 376007                    ANQ     131064,DL
         4 000346   000070 116007                    CMPQ    56,DL
         4 000347   000376 601000 4                  TNZ     s:3647

      961     3636    4              ERROR# = '0'B;

   3636  4 000350   000234 450000 2                  STZ     ERROR#

      962     3637    4              READ_INPUT.V.DVBYTE.CONT# = %YES#;

   3637  4 000351   001000 236003                    LDQ     512,DU
         4 000352   000135 256000 2                  ORSQ    READ_INPUT+11

      963     3638    4              CALL M$READ( READ_INPUT )

   3638  4 000353   000122 630400 2                  EPPR0   READ_INPUT
         4 000354   440000 713400                    CLIMB   alt,read
         4 000355   401400 401760                    pmme    nvectors=4
         4 000356   000360 702000 4                  TSX2    s:3640
         4 000357   000364 710000 4                  TRA     s:3642

      964     3639    5              WHENALTRETURN DO;

      965     3640    5                 ERROR# = B$TCB$->B$TCB.ALT$->B$ALT.ERR;

   3640  4 000360   000000 470400 xsym               LDP0    B$TCB$
         4 000361   000000 471500                    LDP1    0,,PR0
PL6.E3A0      #002=FUI$FILELEN File=FUI$IORQS.:FUA2TSI                           FRI 11/21/97 11:32 Page:147
         4 000362   100102 236100                    LDQ     66,,PR1
         4 000363   000234 756000 2                  STQ     ERROR#

      966     3641    5                 END;

      967     3642    4              LEN = LEN + USERDCB.ARS#;

   3642  4 000364   200446 470500                    LDP0    F$TEST$,,AUTO
         4 000365   200450 236100                    LDQ     LEN,,AUTO
         4 000366   000000 036100                    ADLQ    0,,PR0
         4 000367   200450 756100                    STQ     LEN,,AUTO

      968     3643    4              READ_INPUT.V.DVBYTE.CONT# = %NO#;

   3643  4 000370   000002 236000 5                  LDQ     2
         4 000371   000135 356000 2                  ANSQ    READ_INPUT+11

      969     3644    4              END;

   3644  4 000372   000234 236000 2                  LDQ     ERROR#
         4 000373   377770 376007                    ANQ     131064,DL
         4 000374   000070 116007                    CMPQ    56,DL
         4 000375   000350 600000 4                  TZE     s:3636

      970     3645    3        END;                     /* do case */

      971     3646
      972     3647    2        IF ERROR# = '0'B

   3647  4 000376   000234 235000 2                  LDA     ERROR#
         4 000377   000402 601000 4                  TNZ     s:3649

      973     3648    2        THEN RETURN;             /* no error */

   3648  4 000400   200456 221300                    LDX1  ! GDA#+2,,AUTO
         4 000401   000001 702211                    TSX2  ! 1,X1

PL6.E3A0      #002=FUI$FILELEN File=FUI$IORQS.:FUA2TSI                           FRI 11/21/97 11:32 Page:148
      974     3649    2        ELSE ALTRETURN;          /* otherwise EOF or something else */

   3649  4 000402   200456 221300                    LDX1  ! GDA#+2,,AUTO
         4 000403   000000 702211                    TSX2  ! 0,X1

      975     3650
      976     3651    2   END FUI_READ;
      977     3652        %EJECT;
PL6.E3A0      #002=FUI$FILELEN File=FUI$IORQS.:FUA2TSI                           FRI 11/21/97 11:32 Page:149
      978     3653        /*I*  NAME:      FUI_KEYED_READ
      979     3654              Purpose:   To get the length for the KEYED file's next record
      980     3655              Algorithm: Get to the next record.  For each MISEG in that record,
      981     3656                         add the length to the record length.  If there's a VFC
      982     3657                         char, then we have to read a data granule, so that we'll
      983     3658                         get the VFC char to adjust the length by.
      984     3659        */
      985     3660    1   FUI_KEYED_READ: PROC ALTRET;

   3660  4 000404   200460 741300       FUI_KEYED_R* STX1  ! GDA#+4,,AUTO

      986     3661
      987     3662    3        DO UNTIL( NOT CRECX$->FM$KEYENT.D );

      988     3663    3           CRECX# = CRECX# + 1;  /* Index next key   */

   3663  4 000405   200006 054100                    AOS     CRECX#,,AUTO

      989     3664    4           DO WHILE(CRECX# > NUMKEYS#);

   3664  4 000406   200006 236100                    LDQ     CRECX#,,AUTO
         4 000407   200443 116100                    CMPQ    NUMKEYS#,,AUTO
         4 000410   000433 604400 4                  TMOZ    s:3672

      990     3665    4              GDA# = FM$GRAN.FLINK;

   3665  4 000411   200444 470500                    LDP0    KGRAN$,,AUTO
         4 000412   000004 235100                    LDA     4,,PR0
         4 000413   200454 755100                    STA     GDA#,,AUTO

      991     3666    4              KGRAN# = GDA.GRAN;

   3666  4 000414   200454 236100                    LDQ     GDA#,,AUTO
         4 000415   777777 376007                    ANQ     -1,DL
         4 000416   000232 756000 2                  STQ     KGRAN#

      992     3667    4              IF KGRAN# = 0 THEN GOTO RPT_EOF; /* End of file     */
PL6.E3A0      #002=FUI$FILELEN File=FUI$IORQS.:FUA2TSI                           FRI 11/21/97 11:32 Page:150

   3667  4 000417   000616 600000 4                  TZE     RPT_EOF

      993     3668    4              CALL M$READ( READ_KGRAN )ALTRET( JUSTALT );

   3668  4 000420   000140 630400 2                  EPPR0   READ_KGRAN
         4 000421   440000 713400                    CLIMB   alt,read
         4 000422   401400 401760                    pmme    nvectors=4
         4 000423   000622 702000 4                  TSX2    JUSTALT

      994     3669    4              CALL FUI_UNPACK_KEY_GRAN;

   3669  4 000424   000624 701000 4                  TSX1    FUI_UNPACK_KEY_GRAN
         4 000425   000000 011000                    NOP     0

      995     3670    4              CRECX# = 1;        /* First key of gran        */

   3670  4 000426   000001 235007                    LDA     1,DL
         4 000427   200006 755100                    STA     CRECX#,,AUTO

      996     3671    4              END;

   3671  4 000430   200006 236100                    LDQ     CRECX#,,AUTO
         4 000431   200443 116100                    CMPQ    NUMKEYS#,,AUTO
         4 000432   000411 605400 4                  TPNZ    s:3665

      997     3672    3           CRECX$ = PINCRW( KGRAN$, KEYRECX#( CRECX# ));

   3672  4 000433   200012 236106                    LDQ     KEYRECX#,QL,AUTO
         4 000434   000022 736000                    QLS     18
         4 000435   200444 036100                    ADLQ    KGRAN$,,AUTO
         4 000436   200451 756100                    STQ     CRECX$,,AUTO

      998     3673    3           END /* until not CRECX$->FM$KEYENT.D */;

   3673  4 000437   200451 470500                    LDP0    CRECX$,,AUTO
         4 000440   000000 234100                    SZN     0,,PR0
PL6.E3A0      #002=FUI$FILELEN File=FUI$IORQS.:FUA2TSI                           FRI 11/21/97 11:32 Page:151
         4 000441   000405 604000 4                  TMI     s:3663

      999     3674
     1000     3675    2        MISEG$ = PINCRW( CRECX$, SIZEW(CRECX$->FM$KEYENT));
              3675                 /* Point to first MISEG entry */

   3675  4 000442   000000 236100                    LDQ     0,,PR0
         4 000443   000033 772000                    QRL     27
         4 000444   000377 376007                    ANQ     255,DL
         4 000445   000001 620006                    EAX0    1,QL
         4 000446   000000 636010                    EAQ     0,X0
         4 000447   000022 772000                    QRL     18
         4 000450   000011 402007                    MPY     9,DL
         4 000451   000043 036007                    ADLQ    35,DL
         4 000452   000044 506007                    DIV     36,DL
         4 000453   000022 736000                    QLS     18
         4 000454   200451 036100                    ADLQ    CRECX$,,AUTO
         4 000455   200452 756100                    STQ     MISEG$,,AUTO

     1001     3676    2        LEN = 0;

   3676  4 000456   200450 450100                    STZ     LEN,,AUTO

     1002     3677    2        CHK_VFC = %NO#;

   3677  4 000457   200447 450100                    STZ     CHK_VFC,,AUTO

     1003     3678    2        IF FM$MISEG.CTL & '001'B /* see if builtin VFC */

   3678  4 000460   200452 471500                    LDP1    MISEG$,,AUTO
         4 000461   100001 236100                    LDQ     1,,PR1
         4 000462   000001 736000                    QLS     1
         4 000463   776000 376003                    ANQ     -1024,DU
         4 000464   100000 376003                    ANQ     32768,DU
         4 000465   000471 600000 4                  TZE     s:3680

     1004     3679    2        THEN CHK_VFC = %YES#;
PL6.E3A0      #002=FUI$FILELEN File=FUI$IORQS.:FUA2TSI                           FRI 11/21/97 11:32 Page:152

   3679  4 000466   400000 236003                    LDQ     -131072,DU
         4 000467   200447 756100                    STQ     CHK_VFC,,AUTO
         4 000470   000472 710000 4                  TRA     s:3682

     1005     3680    2        ELSE LEN = LEN + 1;      /* lengthc (LF) */

   3680  4 000471   200450 054100                    AOS     LEN,,AUTO

     1006     3681
     1007     3682    2        CRECNO# = CRECNO# + 1;

   3682  4 000472   200007 054100                    AOS     CRECNO#,,AUTO

     1008     3683    2   READ_DATA:               /* return record segment by segment. */
     1009     3684    3        DO WHILE( %YES# );

   3684  4 000473                       READ_DATA    null
     1010     3685    3           PAST_MISEG$ = PINCRW( KGRAN$, KEYRECX#( CRECX#+1 ));

   3685  4 000473   200006 720100                    LXL0    CRECX#,,AUTO
         4 000474   200013 236110                    LDQ     KEYRECX#+1,X0,AUTO
         4 000475   000022 736000                    QLS     18
         4 000476   200444 036100                    ADLQ    KGRAN$,,AUTO
         4 000477   200453 756100                    STQ     PAST_MISEG$,,AUTO

     1011     3686
     1012     3687    4           DO WHILE( MISEG$ < PAST_MISEG$ );

   3687  4 000500   200452 116100                    CMPQ    MISEG$,,AUTO
         4 000501   000565 602000 4                  TNC     s:3707
         4 000502   000565 600000 4                  TZE     s:3707

     1013     3688    4              LEN = LEN + FM$MISEG.GACTB; /* Number of bytes in segment */

   3688  4 000503   200452 470500                    LDP0    MISEG$,,AUTO
         4 000504   000000 236100                    LDQ     0,,PR0
PL6.E3A0      #002=FUI$FILELEN File=FUI$IORQS.:FUA2TSI                           FRI 11/21/97 11:32 Page:153
         4 000505   007777 376007                    ANQ     4095,DL
         4 000506   200450 036100                    ADLQ    LEN,,AUTO
         4 000507   200450 756100                    STQ     LEN,,AUTO

     1014     3689    4              IF CHK_VFC AND LEN > 0

   3689  4 000510   200447 234100                    SZN     CHK_VFC,,AUTO
         4 000511   000560 605000 4                  TPL     s:3705
         4 000512   000000 116003                    CMPQ    0,DU
         4 000513   000560 604400 4                  TMOZ    s:3705

     1015     3690    5              THEN DO;      /* need to check what the VFC char is */

     1016     3691    5                 GDA# = FM$MISEG.GDA;

   3691  4 000514   000001 236100                    LDQ     1,,PR0
         4 000515   000032 376000 xsym               ANQ     B_VECTNIL+26
         4 000516   200454 756100                    STQ     GDA#,,AUTO

     1017     3692    5                 IF GDA.GRAN = KGRAN#

   3692  4 000517   200454 236100                    LDQ     GDA#,,AUTO
         4 000520   777777 376007                    ANQ     -1,DL
         4 000521   000232 116000 2                  CMPQ    KGRAN#
         4 000522   000532 601000 4                  TNZ     s:3695

     1018     3693    5                 THEN CRECX$ = PINCRW( KGRAN$, FM$MISEG.GX ); /* data in key gran */

   3693  4 000523   000000 236100                    LDQ     0,,PR0
         4 000524   000014 772000                    QRL     12
         4 000525   001777 376007                    ANQ     1023,DL
         4 000526   000022 736000                    QLS     18
         4 000527   200444 036100                    ADLQ    KGRAN$,,AUTO
         4 000530   200451 756100                    STQ     CRECX$,,AUTO
         4 000531   000550 710000 4                  TRA     s:3702

     1019     3694    6                 ELSE DO;
PL6.E3A0      #002=FUI$FILELEN File=FUI$IORQS.:FUA2TSI                           FRI 11/21/97 11:32 Page:154

     1020     3695    6                    IF GDA.GRAN ~= DGRAN#

   3695  4 000532   000233 116000 2                  CMPQ    DGRAN#
         4 000533   000541 600000 4                  TZE     s:3700

     1021     3696    7                    THEN DO;

     1022     3697    7                       DGRAN# = GDA.GRAN;

   3697  4 000534   000233 756000 2                  STQ     DGRAN#

     1023     3698    7                       CALL M$READ( READ_DGRAN )ALTRET( JUSTALT);

   3698  4 000535   000156 630400 2                  EPPR0   READ_DGRAN
         4 000536   440000 713400                    CLIMB   alt,read
         4 000537   401400 401760                    pmme    nvectors=4
         4 000540   000622 702000 4                  TSX2    JUSTALT

     1024     3699    7                       END;

     1025     3700    6                    CRECX$ = PINCRW( DGRAN$, FM$MISEG.GX );

   3700  4 000541   200452 470500                    LDP0    MISEG$,,AUTO
         4 000542   000000 236100                    LDQ     0,,PR0
         4 000543   000014 772000                    QRL     12
         4 000544   001777 376007                    ANQ     1023,DL
         4 000545   000022 736000                    QLS     18
         4 000546   200445 036100                    ADLQ    DGRAN$,,AUTO
         4 000547   200451 756100                    STQ     CRECX$,,AUTO

     1026     3701    6                    END;

     1027     3702    5                 LEN = LEN + VFC_ADJUST( CRECX$->VFC );

   3702  4 000550   200451 471500                    LDP1    CRECX$,,AUTO
         4 000551   100000 236100                    LDQ     0,,PR1
PL6.E3A0      #002=FUI$FILELEN File=FUI$IORQS.:FUA2TSI                           FRI 11/21/97 11:32 Page:155
         4 000552   000033 772000                    QRL     27
         4 000553   000000 620006                    EAX0    0,QL
         4 000554   200450 236100                    LDQ     LEN,,AUTO
         4 000555   000002 036010 3                  ADLQ    VFC_ADJUST,X0
         4 000556   200450 756100                    STQ     LEN,,AUTO

     1028     3703    5                 CHK_VFC = %NO#;

   3703  4 000557   200447 450100                    STZ     CHK_VFC,,AUTO

     1029     3704    5                 END;

     1030     3705    4              MISEG$ = PINCRW( MISEG$, LENGTHW(FM$MISEG) );

   3705  4 000560   200452 236100                    LDQ     MISEG$,,AUTO
         4 000561   000002 036003                    ADLQ    2,DU
         4 000562   200452 756100                    STQ     MISEG$,,AUTO

     1031     3706    4              END;

   3706  4 000563   200453 116100                    CMPQ    PAST_MISEG$,,AUTO
         4 000564   000503 602000 4                  TNC     s:3688

     1032     3707    3           IF CRECX# < NUMKEYS#

   3707  4 000565   200006 236100                    LDQ     CRECX#,,AUTO
         4 000566   200443 116100                    CMPQ    NUMKEYS#,,AUTO
         4 000567   000614 604000 4                  TMI     s:3719

     1033     3708    3           THEN EXIT READ_DATA;  /* Another segment can't exist */
     1034     3709    3           GDA# = FM$GRAN.FLINK;

   3709  4 000570   200444 470500                    LDP0    KGRAN$,,AUTO
         4 000571   000004 235100                    LDA     4,,PR0
         4 000572   200454 755100                    STA     GDA#,,AUTO

     1035     3710    3           KGRAN# = GDA.GRAN;
PL6.E3A0      #002=FUI$FILELEN File=FUI$IORQS.:FUA2TSI                           FRI 11/21/97 11:32 Page:156

   3710  4 000573   200454 236100                    LDQ     GDA#,,AUTO
         4 000574   777777 376007                    ANQ     -1,DL
         4 000575   000232 756000 2                  STQ     KGRAN#

     1036     3711    3           IF KGRAN# = 0

   3711  4 000576   000614 600000 4                  TZE     s:3719

     1037     3712    3           THEN EXIT READ_DATA;  /* Another segment can't exist */
     1038     3713    3           CALL M$READ( READ_KGRAN )ALTRET( JUSTALT );

   3713  4 000577   000140 630400 2                  EPPR0   READ_KGRAN
         4 000600   440000 713400                    CLIMB   alt,read
         4 000601   401400 401760                    pmme    nvectors=4
         4 000602   000622 702000 4                  TSX2    JUSTALT

     1039     3714    3           CALL FUI_UNPACK_KEY_GRAN;

   3714  4 000603   000624 701000 4                  TSX1    FUI_UNPACK_KEY_GRAN
         4 000604   000000 011000                    NOP     0

     1040     3715    3           CRECX# = 0;           /* Before first key of gran */

   3715  4 000605   200006 450100                    STZ     CRECX#,,AUTO

     1041     3716    3           MISEG$ = PINCRW( KGRAN$, KEYRECX#( CRECX# ));

   3716  4 000606   200006 720100                    LXL0    CRECX#,,AUTO
         4 000607   200012 236110                    LDQ     KEYRECX#,X0,AUTO
         4 000610   000022 736000                    QLS     18
         4 000611   200444 036100                    ADLQ    KGRAN$,,AUTO
         4 000612   200452 756100                    STQ     MISEG$,,AUTO

     1042     3717    3           END;

   3717  4 000613   000473 710000 4                  TRA     READ_DATA
PL6.E3A0      #002=FUI$FILELEN File=FUI$IORQS.:FUA2TSI                           FRI 11/21/97 11:32 Page:157

     1043     3718
     1044     3719    2        RETURN;

   3719  4 000614   200460 221300                    LDX1  ! GDA#+4,,AUTO
         4 000615   000001 702211                    TSX2  ! 1,X1

   3716  4 000616                       RPT_EOF      null
     1045     3720
     1046     3721    2   RPT_EOF: ;
     1047     3722    2        ERROR# = E_EOF;

   3722  4 000616   000000 236000 3                  LDQ     E_EOF
         4 000617   000234 756000 2                  STQ     ERROR#

     1048     3723    2        EOF# = %YES#;

   3723  4 000620   400000 236003                    LDQ     -131072,DU
         4 000621   200010 756100                    STQ     EOF#,,AUTO

   3723  4 000622                       JUSTALT      null
     1049     3724    2   JUSTALT: ;
     1050     3725    2        ALTRETURN;

   3725  4 000622   200460 221300                    LDX1  ! GDA#+4,,AUTO
         4 000623   000000 702211                    TSX2  ! 0,X1

     1051     3726
     1052     3727    2   END FUI_KEYED_READ;
     1053     3728        %EJECT;
PL6.E3A0      #002=FUI$FILELEN File=FUI$IORQS.:FUA2TSI                           FRI 11/21/97 11:32 Page:158
     1054     3729        /*I*  NAME:      FUI_UNPACK_KEY_GRAN
     1055     3730              Purpose:   To unpack a key granule's key indices for easier access.
     1056     3731        */
     1057     3732    1   FUI_UNPACK_KEY_GRAN: PROC ALTRET;

   3732  4 000624   200462 741300       FUI_UNPACK_* STX1  ! GDA#+6,,AUTO

     1058     3733
     1059     3734    2   DCL KEYTBL$ PTR;
     1060     3735        %FM$KEYTBL (BASED="BASED (KEYTBL$)");
     1061     3738    2   DCL KEYNUM SBIN;
     1062     3739    2   DCL KEY512 SBIN;
     1063     3740
     1064     3741
     1065     3742    2        KEYTBL$ = PINCRW( KGRAN$, FM$GRAN.FCEX );

   3742  4 000625   200444 470500                    LDP0    KGRAN$,,AUTO
         4 000626   000002 220100                    LDX0    2,,PR0
         4 000627   000000 636010                    EAQ     0,X0
         4 000630   200444 036100                    ADLQ    KGRAN$,,AUTO
         4 000631   200463 756100                    STQ     KEYTBL$,,AUTO

     1066     3743    2        NUMKEYS# = FM$GRAN.KEYCNT;

   3743  4 000632   000002 236100                    LDQ     2,,PR0
         4 000633   000777 376007                    ANQ     511,DL
         4 000634   200443 756100                    STQ     NUMKEYS#,,AUTO

     1067     3744    2        KEY512 = FM$KEYTBL(0);   /* any key > this : add 512 to it */

   3744  4 000635   200463 471500                    LDP1    KEYTBL$,,AUTO
         4 000636   100000 236100                    LDQ     0,,PR1
         4 000637   000033 772000                    QRL     27
         4 000640   200465 756100                    STQ     KEY512,,AUTO

     1068     3745    2        KEYRECX#(0) = FM$GRAN.FCEX+SIZEW(FM$KEYTBL);

PL6.E3A0      #002=FUI$FILELEN File=FUI$IORQS.:FUA2TSI                           FRI 11/21/97 11:32 Page:159
   3745  4 000641   000002 236100                    LDQ     2,,PR0
         4 000642   000022 772000                    QRL     18
         4 000643   000106 036007                    ADLQ    70,DL
         4 000644   200012 756100                    STQ     KEYRECX#,,AUTO

     1069     3746    3        DO KEYNUM = 1 TO NUMKEYS#;

   3746  4 000645   000001 235007                    LDA     1,DL
         4 000646   200464 755100                    STA     KEYNUM,,AUTO
         4 000647   000666 710000 4                  TRA     s:3749+1

     1070     3747    3           KEYRECX#( KEYNUM ) = FM$KEYTBL( KEYNUM );

   3747  4 000650   200464 235100                    LDA     KEYNUM,,AUTO
         4 000651   000002 735000                    ALS     2
         4 000652   200463 470500                    LDP0    KEYTBL$,,AUTO
         4 000653   200464 236100                    LDQ     KEYNUM,,AUTO
         4 000654   000105 101506                    MRL     fill='000'O
         4 000655   000000 000001                    ADSC9   0,Q,PR0                  cn=0,n=1
         4 000656   200012 000004                    ADSC9   KEYRECX#,A,AUTO          cn=0,n=4

     1071     3748    3           IF KEYNUM >= KEY512 THEN KEYRECX#( KEYNUM ) = KEYRECX#( KEYNUM )+512;

   3748  4 000657   200465 116100                    CMPQ    KEY512,,AUTO
         4 000660   000665 604000 4                  TMI     s:3749

   3748  4 000661   200464 720100                    LXL0    KEYNUM,,AUTO
         4 000662   200012 235106                    LDA     KEYRECX#,QL,AUTO
         4 000663   001000 035007                    ADLA    512,DL
         4 000664   200012 755110                    STA     KEYRECX#,X0,AUTO

     1072     3749    3           END;

   3749  4 000665   200464 054100                    AOS     KEYNUM,,AUTO
         4 000666   200464 236100                    LDQ     KEYNUM,,AUTO
         4 000667   200443 116100                    CMPQ    NUMKEYS#,,AUTO
         4 000670   000650 604400 4                  TMOZ    s:3747
PL6.E3A0      #002=FUI$FILELEN File=FUI$IORQS.:FUA2TSI                           FRI 11/21/97 11:32 Page:160

     1073     3750    2        KEYRECX#( KEYNUM ) = FM$GRAN.NAVX;

   3750  4 000671   200444 470500                    LDP0    KGRAN$,,AUTO
         4 000672   000001 236100                    LDQ     1,,PR0
         4 000673   000022 772000                    QRL     18
         4 000674   200464 720100                    LXL0    KEYNUM,,AUTO
         4 000675   200012 756110                    STQ     KEYRECX#,X0,AUTO

     1074     3751
     1075     3752    2        RETURN;

   3752  4 000676   200462 221300                    LDX1  ! GDA#+6,,AUTO
         4 000677   000001 702211                    TSX2  ! 1,X1

     1076     3753
     1077     3754    2   END FUI_UNPACK_KEY_GRAN;
     1078     3755
     1079     3756        %EJECT;
PL6.E3A0      #002=FUI$FILELEN File=FUI$IORQS.:FUA2TSI                           FRI 11/21/97 11:32 Page:161
     1080     3757        /*I*  NAME:      FUI_CONSEC_READ
     1081     3758              Purpose:   To get the length for the CONSEC or UR file's next record
     1082     3759              Algorithm: Position to the start of the next record.  Keep adding the
     1083     3760                         length of record segments while a next segment exists,
     1084     3761                         and the start of the next record is not encountered.  If
     1085     3762                         there's a VFC char to check, it's in the same granule.
     1086     3763        */
     1087     3764    1   FUI_CONSEC_READ: PROC ALTRET;

   3764  4 000700   200460 741300       FUI_CONSEC_* STX1  ! GDA#+4,,AUTO

     1088     3765
     1089     3766    3        DO UNTIL( FM$CON.FAK ~= 0 ); /* Find beginning of next record */

     1090     3767    3           CALL FUI_CONSEC_SEG ALTRET( EOF_EXPECTED );

   3767  4 000701   000774 701000 4                  TSX1    FUI_CONSEC_SEG
         4 000702   000772 702000 4                  TSX2    JUSTALT

     1091     3768    3           END;                  /* do until FM$CON.FAK ~= 0 */

   3768  4 000703   200451 470500                    LDP0    CRECX$,,AUTO
         4 000704   000000 236100                    LDQ     0,,PR0
         4 000705   400000 316003                    CANQ    -131072,DU
         4 000706   000701 600000 4                  TZE     s:3767

     1092     3769    2        CRECNO# = CRECNO# + 1;

   3769  4 000707   200007 054100                    AOS     CRECNO#,,AUTO

     1093     3770
     1094     3771    2        LEN = 0;

   3771  4 000710   200450 450100                    STZ     LEN,,AUTO

     1095     3772    2        CHK_VFC = %NO#;

PL6.E3A0      #002=FUI$FILELEN File=FUI$IORQS.:FUA2TSI                           FRI 11/21/97 11:32 Page:162
   3772  4 000711   200447 450100                    STZ     CHK_VFC,,AUTO

     1096     3773    2        IF FM$CON.CTL & '001'B   /* look for builtin VFC     */

   3773  4 000712   000000 236100                    LDQ     0,,PR0
         4 000713   000004 736000                    QLS     4
         4 000714   776000 376003                    ANQ     -1024,DU
         4 000715   100000 376003                    ANQ     32768,DU
         4 000716   000722 600000 4                  TZE     s:3775

     1097     3774    2        THEN CHK_VFC = %YES#;

   3774  4 000717   400000 236003                    LDQ     -131072,DU
         4 000720   200447 756100                    STQ     CHK_VFC,,AUTO
         4 000721   000723 710000 4                  TRA     APPEND_CONSEC_SEG

     1098     3775    2        ELSE LEN = LEN + 1;      /* lengthc (LF) */

   3775  4 000722   200450 054100                    AOS     LEN,,AUTO

     1099     3776
     1100     3777    2   APPEND_CONSEC_SEG: /* Keep appending record segments for this record */
     1101     3778    2        LEN = LEN + FM$CON.GACTB; /* Get # bytes in segment   */

   3778  4 000723   200451 470500       APPEND_CONS* LDP0    CRECX$,,AUTO
         4 000724   000000 236100                    LDQ     0,,PR0
         4 000725   007777 376007                    ANQ     4095,DL
         4 000726   200450 036100                    ADLQ    LEN,,AUTO
         4 000727   200450 756100                    STQ     LEN,,AUTO

     1102     3779    2        IF CHK_VFC AND LEN > 0

   3779  4 000730   200447 234100                    SZN     CHK_VFC,,AUTO
         4 000731   000747 605000 4                  TPL     s:3785
         4 000732   000000 116003                    CMPQ    0,DU
         4 000733   000747 604400 4                  TMOZ    s:3785

PL6.E3A0      #002=FUI$FILELEN File=FUI$IORQS.:FUA2TSI                           FRI 11/21/97 11:32 Page:163
     1103     3780    3        THEN DO;

     1104     3781    3           LEN = LEN + VFC_ADJUST( ADDR(KGRAN(ADDR(KGRAN)->FM$CON.GX))->VFC );

   3781  4 000734   200444 471500                    LDP1    KGRAN$,,AUTO
         4 000735   100000 236100                    LDQ     0,,PR1
         4 000736   000014 772000                    QRL     12
         4 000737   001777 376007                    ANQ     1023,DL
         4 000740   100000 236106                    LDQ     0,QL,PR1
         4 000741   000033 772000                    QRL     27
         4 000742   000000 620006                    EAX0    0,QL
         4 000743   200450 236100                    LDQ     LEN,,AUTO
         4 000744   000002 036010 3                  ADLQ    VFC_ADJUST,X0
         4 000745   200450 756100                    STQ     LEN,,AUTO

     1105     3782    3           CHK_VFC = %NO#;

   3782  4 000746   200447 450100                    STZ     CHK_VFC,,AUTO

     1106     3783    3           END;

     1107     3784
     1108     3785    2        IF ( FM$CON.C ~= 0 )     /* continuation of segment */

   3785  4 000747   000000 236100                    LDQ     0,,PR0
         4 000750   200000 316003                    CANQ    65536,DU
         4 000751   000770 600000 4                  TZE     s:3800

     1109     3786    2        THEN
     1110     3787    2           CALL FUI_CONSEC_SEG

   3787  4 000752   000774 701000 4                  TSX1    FUI_CONSEC_SEG
         4 000753   000763 702000 4                  TSX2    s:3796

     1111     3788    3           WHENRETURN DO;

     1112     3789    3              IF FM$CON.FAK ~= 0
PL6.E3A0      #002=FUI$FILELEN File=FUI$IORQS.:FUA2TSI                           FRI 11/21/97 11:32 Page:164

   3789  4 000754   200451 470500                    LDP0    CRECX$,,AUTO
         4 000755   000000 236100                    LDQ     0,,PR0
         4 000756   400000 316003                    CANQ    -131072,DU
         4 000757   000723 600000 4                  TZE     APPEND_CONSEC_SEG

     1113     3790    3              THEN               /* Hit beginning of next record  */
     1114     3791    3                 CRECX# = CRECX# + 1; /* Remember position        */

   3791  4 000760   200006 054100                    AOS     CRECX#,,AUTO
         4 000761   000762 710000 4                  TRA     s:3791+2
         4 000762   000770 710000 4                  TRA     s:3800

     1115     3792    3              ELSE               /* a continuation segment - */
     1116     3793    3                 GOTO APPEND_CONSEC_SEG; /* append it */
     1117     3794    3              END;
     1118     3795    3           WHENALTRETURN DO;

     1119     3796    3              IF ERROR#.ERR# = %E$EOF THEN

   3796  4 000763   000234 236000 2                  LDQ     ERROR#
         4 000764   377770 376007                    ANQ     131064,DL
         4 000765   000060 116007                    CMPQ    48,DL
         4 000766   000770 601000 4                  TNZ     s:3800

     1120     3797    3                 ERROR#='0'B;    /* Give him what we have so far. */

   3797  4 000767   000234 450000 2                  STZ     ERROR#

     1121     3798    3              END;

     1122     3799
     1123     3800    2        RETURN;

   3800  4 000770   200460 221300                    LDX1  ! GDA#+4,,AUTO
         4 000771   000001 702211                    TSX2  ! 1,X1

PL6.E3A0      #002=FUI$FILELEN File=FUI$IORQS.:FUA2TSI                           FRI 11/21/97 11:32 Page:165
     1124     3801
     1125     3802    2   JUSTALT: ;

   3802  4 000772                       JUSTALT      null
   3802  4 000772                       EOF_EXPECTED null
     1126     3803    2   EOF_EXPECTED: ;
     1127     3804    2        ALTRETURN;

   3804  4 000772   200460 221300                    LDX1  ! GDA#+4,,AUTO
         4 000773   000000 702211                    TSX2  ! 0,X1

     1128     3805
     1129     3806    2   END FUI_CONSEC_READ;
     1130     3807        %EJECT;
PL6.E3A0      #002=FUI$FILELEN File=FUI$IORQS.:FUA2TSI                           FRI 11/21/97 11:32 Page:166
     1131     3808        /*I*  NAME:      FUI_CONSEC_SEG
     1132     3809              Purpose:   Position to the next segment of a CONSEC or UR file.
     1133     3810        */
     1134     3811    1   FUI_CONSEC_SEG: PROC ALTRET;

   3811  4 000774   200462 741300       FUI_CONSEC_* STX1  ! GDA#+6,,AUTO

     1135     3812
     1136     3813    2        CRECX# = CRECX# - 1;     /* Next control word      */

   3813  4 000775   000001 336007                    LCQ     1,DL
         4 000776   200006 056100                    ASQ     CRECX#,,AUTO

     1137     3814
     1138     3815    3        DO WHILE (CRECX# < LCRECX#);

   3815  4 000777   200006 236100                    LDQ     CRECX#,,AUTO
         4 001000   200005 116100                    CMPQ    LCRECX#,,AUTO
         4 001001   001020 605000 4                  TPL     s:3821

     1139     3816    3           CALL FUI_GET_NEXT_GRAN ALTRET( JUSTALT );

   3816  4 001002   001030 701000 4                  TSX1    FUI_GET_NEXT_GRAN
         4 001003   001026 702000 4                  TSX2    JUSTALT

     1140     3817    3           CRECX# = %(GRANULE_SIZE-1); /* Index of first record control word */

   3817  4 001004   001777 235007                    LDA     1023,DL
         4 001005   200006 755100                    STA     CRECX#,,AUTO

     1141     3818    3           LCRECX# = FM$GRAN.NAVX + KGRAN$->FM$GRAN.AVAIL;

   3818  4 001006   200444 470500                    LDP0    KGRAN$,,AUTO
         4 001007   000001 236100                    LDQ     1,,PR0
         4 001010   001777 376007                    ANQ     1023,DL
         4 001011   200466 756100                    STQ     KEY512+1,,AUTO
         4 001012   000001 236100                    LDQ     1,,PR0
PL6.E3A0      #002=FUI$FILELEN File=FUI$IORQS.:FUA2TSI                           FRI 11/21/97 11:32 Page:167
         4 001013   000022 772000                    QRL     18
         4 001014   200466 036100                    ADLQ    KEY512+1,,AUTO
         4 001015   200005 756100                    STQ     LCRECX#,,AUTO

     1142     3819    3           END;

   3819  4 001016   200006 116100                    CMPQ    CRECX#,,AUTO
         4 001017   001002 605400 4                  TPNZ    s:3816

     1143     3820
     1144     3821    2        CRECX$ = ADDR( KGRAN( CRECX# ) );

   3821  4 001020   200006 236100                    LDQ     CRECX#,,AUTO
         4 001021   000022 736000                    QLS     18
         4 001022   200444 036100                    ADLQ    KGRAN$,,AUTO
         4 001023   200451 756100                    STQ     CRECX$,,AUTO

     1145     3822    2        RETURN;

   3822  4 001024   200462 221300                    LDX1  ! GDA#+6,,AUTO
         4 001025   000001 702211                    TSX2  ! 1,X1

   3821  4 001026                       JUSTALT      null
     1146     3823
     1147     3824    2   JUSTALT: ;
     1148     3825    2        ALTRETURN;

   3825  4 001026   200462 221300                    LDX1  ! GDA#+6,,AUTO
         4 001027   000000 702211                    TSX2  ! 0,X1

     1149     3826
     1150     3827    2   END FUI_CONSEC_SEG;
     1151     3828        %EJECT;
PL6.E3A0      #002=FUI$FILELEN File=FUI$IORQS.:FUA2TSI                           FRI 11/21/97 11:32 Page:168
     1152     3829        /*I*  NAME:      FUI_GET_NEXT_GRAN
     1153     3830              Purpose:   Read the next granule of the CONSEC or UR input file.
     1154     3831        */
     1155     3832    1   FUI_GET_NEXT_GRAN: PROC ALTRET;

   3832  4 001030   200464 741300       FUI_GET_NEX* STX1  ! KEYNUM,,AUTO

     1156     3833
     1157     3834    2        IF NOT KGRAN$->FM$GRAN.ENDLVL

   3834  4 001031   200444 470500                    LDP0    KGRAN$,,AUTO
         4 001032   000002 236100                    LDQ     2,,PR0
         4 001033   400000 316007                    CANQ    -131072,DL
         4 001034   001042 601000 4                  TNZ     s:3841

     1158     3835    3        THEN DO;                 /* That *was* the last granule   */

     1159     3836    3           ERROR# = E_EOF;

   3836  4 001035   000000 236000 3                  LDQ     E_EOF
         4 001036   000234 756000 2                  STQ     ERROR#

     1160     3837    3           EOF# = %YES#;

   3837  4 001037   400000 236003                    LDQ     -131072,DU
         4 001040   200010 756100                    STQ     EOF#,,AUTO

     1161     3838    3           ALTRETURN;

   3838  4 001041   000000 702211                    TSX2  ! 0,X1

     1162     3839    3           END;
     1163     3840
     1164     3841    2        KGRAN# = KGRAN# + 1;     /* get the next granule. */

   3841  4 001042   000232 054000 2                  AOS     KGRAN#

PL6.E3A0      #002=FUI$FILELEN File=FUI$IORQS.:FUA2TSI                           FRI 11/21/97 11:32 Page:169
     1165     3842    2        CALL M$READ (READ_KGRAN) ALTRET (RTN_ERR);

   3842  4 001043   000140 630400 2                  EPPR0   READ_KGRAN
         4 001044   440000 713400                    CLIMB   alt,read
         4 001045   401400 401760                    pmme    nvectors=4
         4 001046   001060 702000 4                  TSX2    RTN_ERR

     1166     3843
     1167     3844    2        IF KGRAN(0) ~= -1 THEN

   3844  4 001047   200444 470500                    LDP0    KGRAN$,,AUTO
         4 001050   000000 235100                    LDA     0,,PR0
         4 001051   000027 115000 xsym               CMPA    B_VECTNIL+23
         4 001052   001055 600000 4                  TZE     s:3846

     1168     3845    2           RETURN;

   3845  4 001053   200464 221300                    LDX1  ! KEYNUM,,AUTO
         4 001054   000001 702211                    TSX2  ! 1,X1

     1169     3846    2        ERROR# = E_DI;

   3846  4 001055   000001 236000 3                  LDQ     E_DI
         4 001056   000234 756000 2                  STQ     ERROR#

     1170     3847    2        GOTO JUSTALT;

   3847  4 001057   001064 710000 4                  TRA     JUSTALT

     1171     3848
     1172     3849    2   RTN_ERR:
     1173     3850    2        ERROR# = B$TCB$->B$TCB.ALT$->B$ALT.ERR;

   3850  4 001060   000000 470400 xsym  RTN_ERR      LDP0    B$TCB$
         4 001061   000000 471500                    LDP1    0,,PR0
         4 001062   100102 236100                    LDQ     66,,PR1
         4 001063   000234 756000 2                  STQ     ERROR#
PL6.E3A0      #002=FUI$FILELEN File=FUI$IORQS.:FUA2TSI                           FRI 11/21/97 11:32 Page:170

   3846  4 001064                       JUSTALT      null
     1174     3851    2   JUSTALT:;
     1175     3852    2        ALTRETURN;

   3852  4 001064   200464 221300                    LDX1  ! KEYNUM,,AUTO
         4 001065   000000 702211                    TSX2  ! 0,X1
     1176     3853
     1177     3854    2   END FUI_GET_NEXT_GRAN;
     1178     3855
     1179     3856    1   END FUI$FILELEN;
     1180     3857        %EOD;

PL6.E3A0      #002=FUI$FILELEN File=FUI$IORQS.:FUA2TSI                           FRI 11/21/97 11:32 Page:171
--  Include file information  --

   FU_NFS_M.:FUA2TOU  is referenced.
   B$JIT.:E05OU  cannot be made into a system file and is referenced.
   FM$GRAN.:E05OU  is referenced.
   FM$FIT.:E05OU  is referenced.
   B_ERRORS_C.:E05OU  is referenced.
   CP_6_SUBS.:E05OU  is referenced.
   CP_6.:E05OU  cannot be made into a system file and is referenced.
   B$JIT_C.:E05TOU  was found in the system file and is referenced.
   CP_6_C.:E05TOU  was found in the system file and is referenced.
      No diagnostics issued in procedure FUI$FILELEN.
PL6.E3A0      #002=FUI$FILELEN File=FUI$IORQS.:FUA2TSI                           FRI 11/21/97 11:32 Page:172

 **** Variables and constants ****

  ****  Section 002  Data  FUI$FILELEN

  ****  Scalars and arrays  ****
OctLoc.c.b A Datatyp(siz) R M Lvl/name                 OctLoc.c.b A Datatyp(siz) R M Lvl/name

   235-0-0/c STRC        r     1 BINKEY                   174-0-0/d STRC(1080)  r     1 CLOSE_INPUT
   233-0-0/w SBIN        r     1 DGRAN#                   234-0-0/w STRC        r     1 ERROR#
   232-0-0/w SBIN        r     1 KGRAN#                     0-0-0/d STRC(2088)  r     1 OPEN_INPUT
   110-0-0/d STRC(360)   r     1 POS_BINARY                72-0-0/d STRC(504)   r     1 READ_BINARY
   156-0-0/d STRC(504)   r     1 READ_DGRAN               122-0-0/d STRC(504)   r     1 READ_INPUT
   140-0-0/d STRC(504)   r     1 READ_KGRAN

  ****  Section 003 RoData FUI$FILELEN

  ****  Scalars and arrays  ****
OctLoc.c.b A Datatyp(siz) R M Lvl/name                 OctLoc.c.b A Datatyp(siz) R M Lvl/name

     1-0-0/w STRC        r     1 E_DI                       0-0-0/w STRC        r     1 E_EOF
     2-0-0/w SBIN        r     1 VFC_ADJUST(0:511)

  ****  Auto variables  ****

  ****  Scalars and arrays  ****
OctLoc.c.b A Datatyp(siz) R M Lvl/name                 OctLoc.c.b A Datatyp(siz) R M Lvl/name

     4-0-0/w PTR         r     1 @CODE03                    3-0-0/w PTR         r     1 @FILELEN
   447-0-0/b BIT         r     1 CHK_VFC                   *0-0-0/w STRC(324)   r     1 CODE03
     7-0-0/w SBIN        r     1 CRECNO#                    6-0-0/w SBIN        r     1 CRECX#
   451-0-0/w PTR         r     1 CRECX$                   445-0-0/w PTR         r     1 DGRAN$
    10-0-0/b BIT         r     1 EOF#                     446-0-0/w PTR         r     1 F$TEST$
    *0-0-0/w UBIN        r     1 FILELEN                  454-0-0/w STRC        r     1 GDA
   454-0-0/w UBIN        r     1 GDA#                     465-0-0/w SBIN        r     1 KEY512
   464-0-0/w SBIN        r     1 KEYNUM                    12-0-0/w SBIN        r     1 KEYRECX#(0:280)
   463-0-0/w PTR         r     1 KEYTBL$                  444-0-0/w PTR         r     1 KGRAN$
     5-0-0/w SBIN        r     1 LCRECX#                  450-0-0/w SBIN        r     1 LEN
PL6.E3A0      #002=FUI$FILELEN File=FUI$IORQS.:FUA2TSI                           FRI 11/21/97 11:32 Page:173
   452-0-0/w PTR         r     1 MISEG$                   443-0-0/w SBIN        r     1 NUMKEYS#
    11-0-0/w SBIN        r     1 ORG#                     453-0-0/w PTR         r     1 PAST_MISEG$

  ****  SYMREF variables  ****

  ****  Scalars and arrays  ****
OctLoc.c.b A Datatyp(siz) R M Lvl/name                 OctLoc.c.b A Datatyp(siz) R M Lvl/name

     0-0-0/w PTR         r     1 B$DS8                      0-0-0/w PTR         r     1 B$JIT$
     0-0-0/w PTR         r     1 B$TCB$

  ****  BASED and DCB variables  ****

  ****  Scalars and arrays  ****
OctLoc.c.b A Datatyp(siz) R M Lvl/name                 OctLoc.c.b A Datatyp(siz) R M Lvl/name

     0-0-0/w STRC(2448)  r     1 B$ALT                      0-0-0/w STRC(144)   r     1 B$TCB
     0-0-0/w SBIN        r     1 DGRAN(0:1023)              0-0-0/w STRC(4716)  r     1 DS
     0-0-0N  NULL        r     1 F$TEST                     0-0-0/w STRC        r     1 FM$CON
     0-0-0/w STRC(180)   r     1 FM$GRAN                    0-0-0/w ASTR(9)     r     1 FM$KEYENT
     0-0-0/w UBIN(9)     r     1 FM$KEYTBL(0:279)
     0-0-0/w UBIN        r     1 FM$KT(0:69)                0-0-0/w STRC(72)    r     1 FM$MISEG
     0-0-0/w SBIN        r     1 KGRAN(0:1023)              0-0-0/d ASTR(3528)  r     1 USERDCB
     0-0-0/w UBIN(9)     r     1 VFC


   Procedure FUI$FILELEN requires 566 words for executable code.
   Procedure FUI$FILELEN requires 312 words of local(AUTO) storage.
PL6.E3A0      #002=FUI$FILELEN File=FUI$IORQS.:FUA2TSI                           FRI 11/21/97 11:32 Page:174
          *** CROSS REFERENCE LISTING ***
**     DENOTES     IDENTIFIER DEFINITION
<<                 IDENTIFIER'S VALUE SET
>>                 IDENTIFIER'S VALUE USED
<>                 IDENTIFIER SET AND/OR USED
--                 IDENTIFIER REFERENCED
PL6.E3A0      #002=FUI$FILELEN File=FUI$IORQS.:FUA2TSI                           FRI 11/21/97 11:32 Page:175
          MINI XREF LISTING

APPEND_CONSEC_SEG IN PROCEDURE FUI_CONSEC_READ
      3778**LABEL    3793--GOTO
B$ALT.CODE
      2917**DCL      2917--REDEF    2918--REDEF    2918--REDEF
B$ALT.ERR
      2918**DCL      3622>>ASSIGN   3629>>ASSIGN   3640>>ASSIGN   3850>>ASSIGN
B$ALT.ERR.ERR#
      2919**DCL      2919--REDEF
B$ALT.EVID
      2918**DCL      2918--REDEF    2918--REDEF
B$DS8
      2879**DCL      2894--IMP-PTR  3542>>IF       3550>>IF       3554>>IF
B$JIT.CPFLAGS1.SLEAZE
      2167**DCL      2167--REDEF
B$JIT.ERR.MID
      2074**DCL      2074--REDEF
B$JIT.JRESPEAK
      2235**DCL      2236--REDEF
B$JIT.ORIGINATOR_PORT.FROM_CR
      2344**DCL      2344--REDEF    2345--REDEF
B$JIT.PNR
      2248**DCL      2248--REDEF
B$JIT.TSLINE
      2342**DCL      2343--REDEF
B$JIT$
      2910**DCL      2068--IMP-PTR
B$TCB.ALT$
      2912**DCL      3622>>ASSIGN   3629>>ASSIGN   3640>>ASSIGN   3850>>ASSIGN
B$TCB$
      2914**DCL      3622>>ASSIGN   3629>>ASSIGN   3640>>ASSIGN   3850>>ASSIGN
BINKEY
      3511**DCL      3114--DCLINIT  3115--DCLINIT
PL6.E3A0      #002=FUI$FILELEN File=FUI$IORQS.:FUA2TSI                           FRI 11/21/97 11:32 Page:176
BINKEY.VAL
      3511**DCL      3619>>ASSIGN
CHK_VFC
      3519**DCL      3677<<ASSIGN   3679<<ASSIGN   3689>>IF       3703<<ASSIGN   3772<<ASSIGN   3774<<ASSIGN
      3779>>IF       3782<<ASSIGN
CLOSE_INPUT
      3308**DCL      3591<>CALL
CLOSE_INPUT.SN_
      3308**DCL      3308--REDEF
CLOSE_INPUT.UTL_
      3309**DCL      3309--REDEF
CLOSE_INPUT.V
      3313**DCL      3308--DCLINIT
CLOSE_INPUT.V.EXPIRE#
      3323**DCL      3323--REDEF
CLOSE_INPUT.V.TYPE#
      3321**DCL      3321--REDEF
CLOSE_INPUT.V.XTNSIZE#
      3318**DCL      3318--REDEF    3320--REDEF
CODE03
      2869**DCL        20--PROC
CODE03.COMP
      2871**DCL      3546>>IF
CODE03.DESC.BAD
      2870**DCL      3546>>IF
CODE03.NRECS
      2871**DCL      3544>>ASSIGN
CODE03.ORG
      2869**DCL      3539>>IF       3546>>IF       3546>>IF       3546>>IF       3568>>ASSIGN
CODE03.TYPE
      2871**DCL      3539>>IF
CODE03.UGRANS
      2869**DCL      3550>>IF       3554>>IF
CRECNO#
      3436**DCL      3537<<ASSIGN   3626<<ASSIGN   3626>>ASSIGN   3682<<ASSIGN   3682>>ASSIGN   3769<<ASSIGN
      3769>>ASSIGN
PL6.E3A0      #002=FUI$FILELEN File=FUI$IORQS.:FUA2TSI                           FRI 11/21/97 11:32 Page:177
CRECX#
      3435**DCL      3575<<ASSIGN   3578<<ASSIGN   3663<<ASSIGN   3663>>ASSIGN   3664>>DOWHILE  3670<<ASSIGN
      3672>>ASSIGN   3685>>ASSIGN   3707>>IF       3715<<ASSIGN   3716>>ASSIGN   3791<<ASSIGN   3791>>ASSIGN
      3813<<ASSIGN   3813>>ASSIGN   3815>>DOWHILE  3817<<ASSIGN   3821>>ASSIGN
CRECX$
      3522**DCL      3498--IMP-PTR  3662>>DOUNTIL  3672<<ASSIGN   3675>>ASSIGN   3675>>ASSIGN   3675>>ASSIGN
      3693<<ASSIGN   3700<<ASSIGN   3702>>ASSIGN   3766>>DOUNTIL  3773>>IF       3778>>ASSIGN   3785>>IF
      3789>>IF       3821<<ASSIGN
DGRAN
      3490**DCL      3563--ASSIGN
DGRAN#
      3433**DCL      3262--DCLINIT  3263--DCLINIT  3571<<ASSIGN   3695>>IF       3697<<ASSIGN
DGRAN$
      3488**DCL      3490--IMP-PTR  3558<>CALL     3563>>ASSIGN   3592<>CALL     3700>>ASSIGN
DS.QREADLIM
      2901**DCL      3542>>IF       3550>>IF
DS.SREADLIM
      2902**DCL      3554>>IF
EOF#
      3437**DCL      3536<<ASSIGN   3608>>IF       3624<<ASSIGN   3723<<ASSIGN   3837<<ASSIGN
EOF_EXPECTED IN PROCEDURE FUI_CONSEC_READ
      3802**LABEL    3767--CALLALT
ERROR#
      3453**DCL      3535<<ASSIGN   3606<<ASSIGN   3622<<ASSIGN   3629<<ASSIGN   3636<<ASSIGN   3640<<ASSIGN
      3647>>IF       3722<<ASSIGN   3797<<ASSIGN   3836<<ASSIGN   3846<<ASSIGN   3850<<ASSIGN
ERROR#.ERR#
      3483**DCL      3635>>DOWHILE  3796>>IF
EXITT
      3586**LABEL    3586--CALLALT
E_DI
      3396**DCL      3846>>ASSIGN
E_EOF
      3345**DCL      3722>>ASSIGN   3836>>ASSIGN
F$TEST
      2875**DCL      3557--ASSIGN
F$TEST$
PL6.E3A0      #002=FUI$FILELEN File=FUI$IORQS.:FUA2TSI                           FRI 11/21/97 11:32 Page:178
      3517**DCL      2924--IMP-PTR  3557<<ASSIGN   3566>>IF       3591>>IF       3619>>ASSIGN   3631>>ASSIGN
      3632>>IF       3633>>ASSIGN   3642>>ASSIGN
FILELEN
      2867**DCL        20--PROC     3584<<ASSIGN   3587<<ASSIGN   3587>>ASSIGN
FM$CON.C
      3498**DCL      3785>>IF
FM$CON.CTL
      3498**DCL      3773>>IF
FM$CON.FAK
      3498**DCL      3766>>DOUNTIL  3789>>IF
FM$CON.GACTB
      3498**DCL      3778>>ASSIGN
FM$CON.GX
      3498**DCL      3781>>ASSIGN
FM$GRAN.AVAIL
      3495**DCL      3576>>ASSIGN   3818>>ASSIGN
FM$GRAN.ENDLVL
      3495**DCL      3834>>IF
FM$GRAN.FCEX
      3495**DCL      3742>>ASSIGN   3745>>ASSIGN
FM$GRAN.FLINK
      3495**DCL      3665>>ASSIGN   3709>>ASSIGN
FM$GRAN.KEYCNT
      3495**DCL      3743>>ASSIGN
FM$GRAN.NAVX
      3494**DCL      3576>>ASSIGN   3750>>ASSIGN   3818>>ASSIGN
FM$KEYENT
      3502**DCL      3675--ASSIGN
FM$KEYENT.D
      3502**DCL      3662>>DOUNTIL
FM$KEYENT.KLB
      3502**DCL      3502--IMP-SIZ  3675>>ASSIGN
FM$KEYTBL IN PROCEDURE FUI_UNPACK_KEY_GRAN
      3736**DCL      3744>>ASSIGN   3745--ASSIGN   3747>>ASSIGN
FM$KT IN PROCEDURE FUI_UNPACK_KEY_GRAN
      3736**DCL      3736--REDEF
PL6.E3A0      #002=FUI$FILELEN File=FUI$IORQS.:FUA2TSI                           FRI 11/21/97 11:32 Page:179
FM$MISEG
      3505**DCL      3705--ASSIGN
FM$MISEG.CTL
      3506**DCL      3678>>IF
FM$MISEG.GACTB
      3505**DCL      3688>>ASSIGN
FM$MISEG.GDA
      3506**DCL      3691>>ASSIGN
FM$MISEG.GX
      3505**DCL      3693>>ASSIGN   3700>>ASSIGN
FUI$MEMALLOC
      3515**DCL-ENT  3558--CALL     3559--CALL
FUI$MEMFREE
      3516**DCL-ENT  3592--CALL     3593--CALL
FUI_CONSEC_READ
      3764**PROC     3612--CALL
FUI_CONSEC_SEG
      3811**PROC     3767--CALL     3787--CALL
FUI_GET_NEXT_GRAN
      3832**PROC     3816--CALL
FUI_KEYED_READ
      3660**PROC     3614--CALL
FUI_READ
      3604**PROC     3586--CALL
FUI_UNPACK_KEY_GRAN
      3732**PROC     3580--CALL     3669--CALL     3714--CALL
GDA.GRAN
      3529**DCL      3666>>ASSIGN   3692>>IF       3695>>IF       3697>>ASSIGN   3710>>ASSIGN
GDA#
      3526**DCL      3527--REDEF    3665<<ASSIGN   3691<<ASSIGN   3709<<ASSIGN
JUSTALT IN PROCEDURE FUI_CONSEC_SEG
      3821**LABEL    3816--CALLALT
JUSTALT IN PROCEDURE FUI_GET_NEXT_GRAN
      3846**LABEL    3847--GOTO
JUSTALT IN PROCEDURE FUI_KEYED_READ
      3723**LABEL    3668--CALLALT  3698--CALLALT  3713--CALLALT
PL6.E3A0      #002=FUI$FILELEN File=FUI$IORQS.:FUA2TSI                           FRI 11/21/97 11:32 Page:180
KEY512 IN PROCEDURE FUI_UNPACK_KEY_GRAN
      3739**DCL      3744<<ASSIGN   3748>>IF
KEYNUM IN PROCEDURE FUI_UNPACK_KEY_GRAN
      3738**DCL      3746<<DOINDEX  3747>>ASSIGN   3747>>ASSIGN   3748>>IF       3748>>ASSIGN   3748>>ASSIGN
      3750>>ASSIGN
KEYRECX#
      3439**DCL      3672>>ASSIGN   3685>>ASSIGN   3716>>ASSIGN   3745<<ASSIGN   3747<<ASSIGN   3748<<ASSIGN
      3748>>ASSIGN   3750<<ASSIGN
KEYTBL$ IN PROCEDURE FUI_UNPACK_KEY_GRAN
      3734**DCL      3736--IMP-PTR  3736--IMP-PTR  3742<<ASSIGN   3744>>ASSIGN   3747>>ASSIGN
KGRAN
      3489**DCL      3560--ASSIGN   3561--ASSIGN   3562--ASSIGN   3781--ASSIGN   3781--ASSIGN   3821--ASSIGN
      3844>>IF
KGRAN#
      3432**DCL      3219--DCLINIT  3220--DCLINIT  3570<<ASSIGN   3666<<ASSIGN   3667>>IF       3692>>IF
      3710<<ASSIGN   3711>>IF       3841<<ASSIGN   3841>>ASSIGN
KGRAN$
      3487**DCL      3489--IMP-PTR  3494--IMP-PTR  3559<>CALL     3560>>ASSIGN   3561>>ASSIGN   3562>>ASSIGN
      3576>>ASSIGN   3576>>ASSIGN   3593<>CALL     3665>>ASSIGN   3672>>ASSIGN   3685>>ASSIGN   3693>>ASSIGN
      3709>>ASSIGN   3716>>ASSIGN   3742>>ASSIGN   3742>>ASSIGN   3743>>ASSIGN   3745>>ASSIGN   3750>>ASSIGN
      3781>>ASSIGN   3781>>ASSIGN   3818>>ASSIGN   3818>>ASSIGN   3821>>ASSIGN   3834>>IF       3844>>IF
LCRECX#
      3434**DCL      3576<<ASSIGN   3579<<ASSIGN   3815>>DOWHILE  3818<<ASSIGN
LEN
      3520**DCL      3587>>ASSIGN   3619<<ASSIGN   3631<<ASSIGN   3633<<ASSIGN   3633>>ASSIGN   3634<<ASSIGN
      3634>>ASSIGN   3642<<ASSIGN   3642>>ASSIGN   3676<<ASSIGN   3680<<ASSIGN   3680>>ASSIGN   3688<<ASSIGN
      3688>>ASSIGN   3689>>IF       3702<<ASSIGN   3702>>ASSIGN   3771<<ASSIGN   3775<<ASSIGN   3775>>ASSIGN
      3778<<ASSIGN   3778>>ASSIGN   3779>>IF       3781<<ASSIGN   3781>>ASSIGN
M$CLOSE
        31**DCL-ENT  3591--CALL
M$OPEN
        31**DCL-ENT  3565--CALL
M$PRECORD
        35**DCL-ENT  3616--CALL
M$READ
        32**DCL-ENT  3572--CALL     3617--CALL     3627--CALL     3638--CALL     3668--CALL     3698--CALL
PL6.E3A0      #002=FUI$FILELEN File=FUI$IORQS.:FUA2TSI                           FRI 11/21/97 11:32 Page:181
      3713--CALL     3842--CALL
MISEG$
      3523**DCL      3505--IMP-PTR  3675<<ASSIGN   3678>>IF       3687>>DOWHILE  3688>>ASSIGN   3691>>ASSIGN
      3693>>ASSIGN   3700>>ASSIGN   3705<<ASSIGN   3705>>ASSIGN   3716<<ASSIGN
NUMKEYS#
      3440**DCL      3664>>DOWHILE  3707>>IF       3743<<ASSIGN   3746>>DOINDEX
OPEN_INPUT
      3050**DCL      3565<>CALL
OPEN_INPUT.ACSVEH_
      3052**DCL      3053--REDEF
OPEN_INPUT.ALTKEYS_
      3058**DCL      3059--REDEF    3059--REDEF
OPEN_INPUT.HDR_
      3057**DCL      3058--REDEF
OPEN_INPUT.TAB_
      3056**DCL      3057--REDEF
OPEN_INPUT.UHL_
      3050**DCL      3051--REDEF    3051--REDEF
OPEN_INPUT.V
      3059**DCL      3050--DCLINIT
OPEN_INPUT.V.ACS#
      3070**DCL      3541<<ASSIGN   3549<<ASSIGN   3553<<ASSIGN
OPEN_INPUT.V.FSN#
      3090**DCL      3090--REDEF    3090--REDEF
OPEN_INPUT.WSN_
      3056**DCL      3056--REDEF
ORG#
      3438**DCL      3534<<ASSIGN   3543<<ASSIGN   3568<<ASSIGN   3573>>DOSELCT  3610>>DOCASE
PAST_MISEG$
      3524**DCL      3685<<ASSIGN   3687>>DOWHILE
POS_BINARY
      3148**DCL      3616<>CALL
POS_BINARY.V
      3150**DCL      3148--DCLINIT
POS_BINARY.V.N#
      3154**DCL      3544<<ASSIGN   3616>>IF
PL6.E3A0      #002=FUI$FILELEN File=FUI$IORQS.:FUA2TSI                           FRI 11/21/97 11:32 Page:182
READ_BINARY
      3114**DCL      3617<>CALL
READ_BINARY.BUF_
      3116**DCL      3561<<ASSIGN
READ_BINARY.STATION_
      3117**DCL      3118--REDEF
READ_BINARY.V
      3118**DCL      3114--DCLINIT
READ_BINARY.V.DVBYTE.REREAD#
      3129**DCL      3129--REDEF
READ_BINARY.V.INDX#
      3127**DCL      3127--REDEF
READ_DATA IN PROCEDURE FUI_KEYED_READ
      3684**LABEL    3708--EXIT     3712--EXIT
READ_DGRAN
      3262**DCL      3698<>CALL
READ_DGRAN.BUF_
      3264**DCL      3563<<ASSIGN
READ_DGRAN.STATION_
      3265**DCL      3266--REDEF
READ_DGRAN.V
      3266**DCL      3262--DCLINIT
READ_DGRAN.V.DVBYTE.REREAD#
      3277**DCL      3277--REDEF
READ_DGRAN.V.INDX#
      3275**DCL      3275--REDEF
READ_INPUT
      3176**DCL      3627<>CALL     3638<>CALL
READ_INPUT.BUF_
      3178**DCL      3560<<ASSIGN
READ_INPUT.STATION_
      3179**DCL      3180--REDEF
READ_INPUT.V
      3180**DCL      3176--DCLINIT
READ_INPUT.V.DVBYTE.CONT#
      3193**DCL      3637<<ASSIGN   3643<<ASSIGN
PL6.E3A0      #002=FUI$FILELEN File=FUI$IORQS.:FUA2TSI                           FRI 11/21/97 11:32 Page:183
READ_INPUT.V.DVBYTE.REREAD#
      3191**DCL      3191--REDEF
READ_INPUT.V.INDX#
      3189**DCL      3189--REDEF
READ_KGRAN
      3219**DCL      3572<>CALL     3668<>CALL     3713<>CALL     3842<>CALL
READ_KGRAN.BUF_
      3221**DCL      3562<<ASSIGN
READ_KGRAN.STATION_
      3222**DCL      3223--REDEF
READ_KGRAN.V
      3223**DCL      3219--DCLINIT
READ_KGRAN.V.DVBYTE.REREAD#
      3234**DCL      3234--REDEF
READ_KGRAN.V.INDX#
      3232**DCL      3232--REDEF
RPT_EOF IN PROCEDURE FUI_KEYED_READ
      3716**LABEL    3667--GOTO
RTN_ERR IN PROCEDURE FUI_GET_NEXT_GRAN
      3850**LABEL    3842--CALLALT
USERDCB.ACS#
      2948**DCL      3566>>IF
USERDCB.ACTPOS
      2956**DCL      2956--REDEF
USERDCB.ARS#
      2930**DCL      2930--REDEF    3619>>ASSIGN   3631>>ASSIGN   3642>>ASSIGN
USERDCB.ATTR
      2949**DCL      2950--REDEF
USERDCB.BORROW
      2964**DCL      2964--REDEF    2964--REDEF    2964--REDEF
USERDCB.DCBNAME.L
      2978**DCL      2978--IMP-SIZ
USERDCB.DVBYTE.VFC#
      2933**DCL      3632>>IF
USERDCB.EOMCHAR#
      2934**DCL      2934--REDEF
PL6.E3A0      #002=FUI$FILELEN File=FUI$IORQS.:FUA2TSI                           FRI 11/21/97 11:32 Page:184
USERDCB.FCD#
      2943**DCL      3591>>IF
USERDCB.FLDID
      2959**DCL      2959--REDEF
USERDCB.FORM$
      2953**DCL      2953--REDEF
USERDCB.FSECT
      2969**DCL      2969--REDEF
USERDCB.FSN#
      2946**DCL      2946--REDEF    2946--REDEF    2947--REDEF
USERDCB.HEADER$
      2952**DCL      2952--REDEF
USERDCB.IXTNSIZE#
      2950**DCL      2950--REDEF
USERDCB.LASTSTA$
      2939**DCL      2939--REDEF
USERDCB.LVL
      2965**DCL      2965--REDEF
USERDCB.NAME#.C
      2940**DCL      2940--REDEF
USERDCB.NOEOF
      2962**DCL      2962--REDEF
USERDCB.NRECS#
      2951**DCL      2951--REDEF
USERDCB.NRECX
      2970**DCL      2970--REDEF
USERDCB.OHDR
      2962**DCL      2962--REDEF
USERDCB.ORG#
      2945**DCL      2945--REDEF
USERDCB.PRECNO
      2968**DCL      2968--REDEF
USERDCB.RCSZ
      2974**DCL      2974--REDEF
USERDCB.RES#
      2941**DCL      2941--REDEF
PL6.E3A0      #002=FUI$FILELEN File=FUI$IORQS.:FUA2TSI                           FRI 11/21/97 11:32 Page:185
USERDCB.SETX
      2953**DCL      2953--REDEF
USERDCB.TAB$
      2953**DCL      2953--REDEF
USERDCB.TDA
      2967**DCL      2968--REDEF
USERDCB.VFCCHAR#
      2955**DCL      3633>>ASSIGN
USERDCB.WSN#
      2941**DCL      2941--REDEF
VFC
      3521**DCL      3702>>ASSIGN   3781>>ASSIGN
VFC_ADJUST
      3530**DCL      3633>>ASSIGN   3702>>ASSIGN   3781>>ASSIGN

PL6.E3A0      #003=FUI$MEMALLOC File=FUI$IORQS.:FUA2TSI                          FRI 11/21/97 11:33 Page:186
     1181        1        /*M* FUI$MEMALLOC - NFS per-user I/O buffer allocation */
     1182        2        /*T***********************************************************/
     1183        3        /*T*                                                         */
     1184        4        /*T* Copyright (c) Bull HN Information Systems Inc., 1997    */
     1185        5        /*T*                                                         */
     1186        6        /*T***********************************************************/
     1187        7        /*F*  NAME: FUI$MEMALLOC
     1188        8              Purpose:
     1189        9                    To get the user a hunk (1024 words) of memory.
     1190       10        */
     1191       11        /*D*  NAME: FUI$MEMALLOC
     1192       12              Outputs:
     1193       13                    BUF$ - points to the hunk of memory gotten.
     1194       14        */
     1195       15
     1196       16        FUI$MEMALLOC: PROC (BUF$);
     1197       17
     1198       18    1   DCL BUF$ PTR PARAM;
     1199       19
     1200       20
     1201       21        %INCLUDE CP_6;
     1202      102        %INCLUDE B_SEGIDS_C;
     1203      641        %INCLUDE FU_NFS_M;
     1204     1156
     1205     1157    1   DCL FUI$FREE_BUF$ PTR STATIC INIT( ADDR(NIL));
     1206     1158    1   DCL FREE_BUF_NEXT$ PTR BASED;
     1207     1159
     1208     1160    1   DCL FU_PROC# UBIN SYMREF;
     1209     1161    1   DCL B$DS8 PTR SYMREF;
     1210     1162
     1211     1163        %FU$NFSDS (NAME=DATASEG, STCLASS="BASED(B$DS8)");
     1212     1193
     1213     1194        %VLP_VECTOR (FPTN=GDS_RESULTS);
     1214     1209        %FPT_GDS (FPTN=GETUSERBUFFER,
     1215     1210                       RESULTS=GDS_RESULTS,
     1216     1211                       SEGSIZE = 1024);
     1217     1227
PL6.E3A0      #003=FUI$MEMALLOC File=FUI$IORQS.:FUA2TSI                          FRI 11/21/97 11:33 Page:187
     1218     1228
     1219     1229    1        IF FUI$FREE_BUF$ ~= ADDR(NIL) /* a free buffer that we can use */
     1220     1230    2        THEN DO;
     1221     1231    2           BUF$ = FUI$FREE_BUF$;
     1222     1232    2           FUI$FREE_BUF$ = BUF$ -> FREE_BUF_NEXT$;
     1223     1233    2           END;
     1224     1234    2        ELSE DO;  /* no free buffer's, we'll have to allocate one */
     1225     1235    2           CALL M$GDS (GETUSERBUFFER)
     1226     1236    3           WHENALTRETURN DO;     /* can't allocate any more memory */
     1227     1237    3              CALL M$MERC;
     1228     1238    3              CALL M$XXX;
     1229     1239                  /* should probably call the garbage collector, and see
     1230     1240                     if FUI$FREE_BUF$ ~= ADDR(NIL) */
     1231     1241    3              END;
     1232     1242    2           BUF$ = PINCRC(GDS_RESULTS.PTR$, GDS_RESULTS.W1.VSIZE#-4095);
     1233     1243    2           END;
     1234     1244
     1235     1245    1        DATASEG.P.UCNT(FU_PROC#) = DATASEG.P.UCNT(FU_PROC#) + 1;
     1236     1246
     1237     1247    1        RETURN;
     1238     1248
     1239     1249        /*F*  NAME: FUI$MEMFREE
     1240     1250              Purpose:
     1241     1251                    To free a block of memory for re-use.
     1242     1252        */
     1243     1253        /*D*  NAME: FUI$MEMFREE
     1244     1254              Inputs:
     1245     1255                    BUF$ - a pointer to the block of memory to free.
     1246     1256        */
     1247     1257
     1248     1258    1   FUI$MEMFREE: ENTRY (BUF$);
     1249     1259
     1250     1260    1        BUF$ -> FREE_BUF_NEXT$ = FUI$FREE_BUF$;
     1251     1261    1        FUI$FREE_BUF$ = BUF$;
     1252     1262
     1253     1263    1   END FUI$MEMALLOC;

PL6.E3A0      #003=FUI$MEMALLOC File=FUI$IORQS.:FUA2TSI                          FRI 11/21/97 11:33 Page:188
--  Include file information  --

   FU_NFS_M.:FUA2TOU  is referenced.
   B_SEGIDS_C.:E05OU  is referenced.
   CP_6.:E05OU  cannot be made into a system file and is referenced.
   B$JIT_C.:E05TOU  was found in the system file and is never referenced.
   CP_6_C.:E05TOU  was found in the system file and is referenced.
      No diagnostics issued in procedure FUI$MEMALLOC.

   Procedure FUI$MEMALLOC requires 41 words for executable code.
   Procedure FUI$MEMALLOC requires 4 words of local(AUTO) storage.

    No errors detected in file FUI$IORQS.:FUA2TSI    .

PL6.E3A0      #003=FUI$MEMALLOC File=FUI$IORQS.:FUA2TSI                          FRI 11/21/97 11:33 Page:189

 Object Unit name= FUI$MEMALLOC                               File name= FUI$IORQS.:FUA2TOU
 UTS= NOV 21 '97 11:33:42.88 FRI                              Compiler= PL-6/E31         Sev=      00
 SharedLib= :SHARED_SYSTEM                                    Alt SharedLib=


    ****  Control sections  ****

 Sect   Type Bound  Init  Size OctSiz  Section name(segment info)
    0   DCB   even  none     0      0  M$UC
    1   Data  even  none    10     12  FUI$MEMALLOC
    2   Proc  even  none    41     51  FUI$MEMALLOC
    3  RoData even  none     1      1  FUI$MEMALLOC

    ****  Entry defs  ****

                              Check   Calling
                             calling  sequence
  Sect OctLoc Primary Altret sequence   type   Parms  Name
     2      0   yes            yes      Std        1  FUI$MEMALLOC
     2     40                  yes      Std        1  FUI$MEMFREE

  ****  Entry refs  ****

         Check        Calling
        calling       sequence
Altret sequence SRef   type   Args  Name
                       nStd      0 X66_AUTO_1
                       Std       0 B_CONSPOOL_D
                       nStd      0 X66_ARET

  ****  Data refs  ****

  Flags:  r = read only, s = secondary
Flgs Name                             Flgs Name                             Flgs Name
     M$UC                                  FU_PROC#                              B$DS8
     B_VECTNIL
PL6.E3A0      #003=FUI$MEMALLOC File=FUI$IORQS.:FUA2TSI                          FRI 11/21/97 11:33 Page:190

  ****  Segment refs  ****

  Flags:  r = read only, s = secondary
Flgs Name                             Flgs Name                             Flgs Name
     NULLSID                               ISSID
PL6.E3A0      #003=FUI$MEMALLOC File=FUI$IORQS.:FUA2TSI                          FRI 11/21/97 11:33 Page:191


     1181        1        /*M* FUI$MEMALLOC - NFS per-user I/O buffer allocation */
     1182        2        /*T***********************************************************/
     1183        3        /*T*                                                         */
     1184        4        /*T* Copyright (c) Bull HN Information Systems Inc., 1997    */
     1185        5        /*T*                                                         */
     1186        6        /*T***********************************************************/
     1187        7        /*F*  NAME: FUI$MEMALLOC
     1188        8              Purpose:
     1189        9                    To get the user a hunk (1024 words) of memory.
     1190       10        */
     1191       11        /*D*  NAME: FUI$MEMALLOC
     1192       12              Outputs:
     1193       13                    BUF$ - points to the hunk of memory gotten.
     1194       14        */
     1195       15
     1196       16        FUI$MEMALLOC: PROC (BUF$);

     16  2 000000   000000 700200 xent  FUI$MEMALLOC TSX0  ! X66_AUTO_1
         2 000001   000004 000001                    ZERO    4,1

     1197       17
     1198       18    1   DCL BUF$ PTR PARAM;
     1199       19
     1200       20
     1201       21        %INCLUDE CP_6;
     1202      102        %INCLUDE B_SEGIDS_C;
     1203      641        %INCLUDE FU_NFS_M;
     1204     1156
     1205     1157    1   DCL FUI$FREE_BUF$ PTR STATIC INIT( ADDR(NIL));
     1206     1158    1   DCL FREE_BUF_NEXT$ PTR BASED;
     1207     1159
     1208     1160    1   DCL FU_PROC# UBIN SYMREF;
     1209     1161    1   DCL B$DS8 PTR SYMREF;
     1210     1162
     1211     1163        %FU$NFSDS (NAME=DATASEG, STCLASS="BASED(B$DS8)");
     1212     1193
PL6.E3A0      #003=FUI$MEMALLOC File=FUI$IORQS.:FUA2TSI                          FRI 11/21/97 11:33 Page:192
     1213     1194        %VLP_VECTOR (FPTN=GDS_RESULTS);
     1214     1209        %FPT_GDS (FPTN=GETUSERBUFFER,
     1215     1210                       RESULTS=GDS_RESULTS,
     1216     1211                       SEGSIZE = 1024);
     1217     1227
     1218     1228
     1219     1229    1        IF FUI$FREE_BUF$ ~= ADDR(NIL) /* a free buffer that we can use */

   1229  2 000002   000000 236000 1                  LDQ     FUI$FREE_BUF$
         2 000003   000001 116000 xsym               CMPQ    B_VECTNIL+1
         2 000004   000013 600000 2                  TZE     s:1235

     1220     1230    2        THEN DO;

     1221     1231    2           BUF$ = FUI$FREE_BUF$;

   1231  2 000005   200003 470500                    LDP0    @BUF$,,AUTO
         2 000006   000000 756100                    STQ     0,,PR0

     1222     1232    2           FUI$FREE_BUF$ = BUF$ -> FREE_BUF_NEXT$;

   1232  2 000007   000000 471500                    LDP1    0,,PR0
         2 000010   100000 236100                    LDQ     0,,PR1
         2 000011   000000 756000 1                  STQ     FUI$FREE_BUF$

     1223     1233    2           END;

   1233  2 000012   000033 710000 2                  TRA     s:1245

     1224     1234    2        ELSE DO;  /* no free buffer's, we'll have to allocate one */

     1225     1235    2           CALL M$GDS (GETUSERBUFFER)

   1235  2 000013   000004 630400 1                  EPPR0   GETUSERBUFFER
         2 000014   430001 713400                    CLIMB   alt,gds
         2 000015   400400 401760                    pmme    nvectors=2
         2 000016   000020 702000 2                  TSX2    s:1237
PL6.E3A0      #003=FUI$MEMALLOC File=FUI$IORQS.:FUA2TSI                          FRI 11/21/97 11:33 Page:193
         2 000017   000024 710000 2                  TRA     s:1242

     1226     1236    3           WHENALTRETURN DO;     /* can't allocate any more memory */

     1227     1237    3              CALL M$MERC;

   1237  2 000020   010007 713400                    CLIMB   4103
         2 000021   000000 401760                    pmme    nvectors=0

     1228     1238    3              CALL M$XXX;

   1238  2 000022   000003 713400                    CLIMB   3
         2 000023   000000 401760                    pmme    nvectors=0

     1229     1239                  /* should probably call the garbage collector, and see
     1230     1240                     if FUI$FREE_BUF$ ~= ADDR(NIL) */
     1231     1241    3              END;

     1232     1242    2           BUF$ = PINCRC(GDS_RESULTS.PTR$, GDS_RESULTS.W1.VSIZE#-4095);

   1242  2 000024   000002 236000 1                  LDQ     GDS_RESULTS
         2 000025   000020 772000                    QRL     16
         2 000026   000020 736000                    QLS     16
         2 000027   000000 136000 3                  SBLQ    0
         2 000030   000003 036000 1                  ADLQ    GDS_RESULTS+1
         2 000031   200003 470500                    LDP0    @BUF$,,AUTO
         2 000032   000000 756100                    STQ     0,,PR0

     1233     1243    2           END;

     1234     1244
     1235     1245    1        DATASEG.P.UCNT(FU_PROC#) = DATASEG.P.UCNT(FU_PROC#) + 1;

   1245  2 000033   000000 235000 xsym               LDA     FU_PROC#
         2 000034   000004 735000                    ALS     4
         2 000035   000000 471400 xsym               LDP1    B$DS8
         2 000036   100047 054105                    AOS     39,AL,PR1
PL6.E3A0      #003=FUI$MEMALLOC File=FUI$IORQS.:FUA2TSI                          FRI 11/21/97 11:33 Page:194

     1236     1246
     1237     1247    1        RETURN;

   1247  2 000037   000000 702200 xent               TSX2  ! X66_ARET

     1238     1248
     1239     1249        /*F*  NAME: FUI$MEMFREE
     1240     1250              Purpose:
     1241     1251                    To free a block of memory for re-use.
     1242     1252        */
     1243     1253        /*D*  NAME: FUI$MEMFREE
     1244     1254              Inputs:
     1245     1255                    BUF$ - a pointer to the block of memory to free.
     1246     1256        */
     1247     1257
     1248     1258    1   FUI$MEMFREE: ENTRY (BUF$);

   1258  2 000040   000000 700200 xent  FUI$MEMFREE  TSX0  ! X66_AUTO_1
         2 000041   000004 000001                    ZERO    4,1

     1249     1259
     1250     1260    1        BUF$ -> FREE_BUF_NEXT$ = FUI$FREE_BUF$;

   1260  2 000042   200003 470500                    LDP0    @BUF$,,AUTO
         2 000043   000000 471500                    LDP1    0,,PR0
         2 000044   000000 236000 1                  LDQ     FUI$FREE_BUF$
         2 000045   100000 756100                    STQ     0,,PR1

     1251     1261    1        FUI$FREE_BUF$ = BUF$;

   1261  2 000046   000000 236100                    LDQ     0,,PR0
         2 000047   000000 756000 1                  STQ     FUI$FREE_BUF$

     1252     1262
     1253     1263    1   END FUI$MEMALLOC;

PL6.E3A0      #003=FUI$MEMALLOC File=FUI$IORQS.:FUA2TSI                          FRI 11/21/97 11:33 Page:195
   1263  2 000050   000000 702200 xent               TSX2  ! X66_ARET

PL6.E3A0      #003=FUI$MEMALLOC File=FUI$IORQS.:FUA2TSI                          FRI 11/21/97 11:33 Page:196
--  Include file information  --

   FU_NFS_M.:FUA2TOU  is referenced.
   B_SEGIDS_C.:E05OU  is referenced.
   CP_6.:E05OU  cannot be made into a system file and is referenced.
   B$JIT_C.:E05TOU  was found in the system file and is never referenced.
   CP_6_C.:E05TOU  was found in the system file and is referenced.
      No diagnostics issued in procedure FUI$MEMALLOC.
PL6.E3A0      #003=FUI$MEMALLOC File=FUI$IORQS.:FUA2TSI                          FRI 11/21/97 11:33 Page:197

 **** Variables and constants ****

  ****  Section 001  Data  FUI$MEMALLOC

  ****  Scalars and arrays  ****
OctLoc.c.b A Datatyp(siz) R M Lvl/name                 OctLoc.c.b A Datatyp(siz) R M Lvl/name

     0-0-0/w PTR         r     1 FUI$FREE_BUF$              2-0-0/d STRC(72)    r     1 GDS_RESULTS
     4-0-0/d STRC(216)   r     1 GETUSERBUFFER

  ****  Auto variables  ****

  ****  Scalars and arrays  ****
OctLoc.c.b A Datatyp(siz) R M Lvl/name                 OctLoc.c.b A Datatyp(siz) R M Lvl/name

     3-0-0/w PTR         r     1 @BUF$                     *0-0-0/w PTR         r     1 BUF$

  ****  SYMREF variables  ****

  ****  Scalars and arrays  ****
OctLoc.c.b A Datatyp(siz) R M Lvl/name                 OctLoc.c.b A Datatyp(siz) R M Lvl/name

     0-0-0/w PTR         r     1 B$DS8                      0-0-0/w UBIN        r     1 FU_PROC#

  ****  BASED and DCB variables  ****

  ****  Scalars and arrays  ****
OctLoc.c.b A Datatyp(siz) R M Lvl/name                 OctLoc.c.b A Datatyp(siz) R M Lvl/name

     0-0-0/w STRC(4716)  r     1 DATASEG                    0-0-0/w PTR         r     1 FREE_BUF_NEXT$


   Procedure FUI$MEMALLOC requires 41 words for executable code.
   Procedure FUI$MEMALLOC requires 4 words of local(AUTO) storage.
PL6.E3A0      #003=FUI$MEMALLOC File=FUI$IORQS.:FUA2TSI                          FRI 11/21/97 11:33 Page:198

    No errors detected in file FUI$IORQS.:FUA2TSI    .
PL6.E3A0      #003=FUI$MEMALLOC File=FUI$IORQS.:FUA2TSI                          FRI 11/21/97 11:33 Page:199
          *** CROSS REFERENCE LISTING ***
**     DENOTES     IDENTIFIER DEFINITION
<<                 IDENTIFIER'S VALUE SET
>>                 IDENTIFIER'S VALUE USED
<>                 IDENTIFIER SET AND/OR USED
--                 IDENTIFIER REFERENCED
PL6.E3A0      #003=FUI$MEMALLOC File=FUI$IORQS.:FUA2TSI                          FRI 11/21/97 11:33 Page:200
          MINI XREF LISTING

B$DS8
      1161**DCL      1177--IMP-PTR  1245>>ASSIGN   1245>>ASSIGN
BUF$
        18**DCL        16--PROC     1231<<ASSIGN   1232>>ASSIGN   1242<<ASSIGN   1258--ENTRY    1260>>ASSIGN
      1261>>ASSIGN
DATASEG.P.UCNT
      1188**DCL      1245<<ASSIGN   1245>>ASSIGN
FREE_BUF_NEXT$
      1158**DCL      1232>>ASSIGN   1260<<ASSIGN
FUI$FREE_BUF$
      1157**DCL      1229>>IF       1231>>ASSIGN   1232<<ASSIGN   1260>>ASSIGN   1261<<ASSIGN
FU_PROC#
      1160**DCL      1245>>ASSIGN   1245>>ASSIGN
GDS_RESULTS
      1205**DCL      1222--DCLINIT
GDS_RESULTS.PTR$
      1207**DCL      1242>>ASSIGN
GDS_RESULTS.W1.VSIZE#
      1205**DCL      1242>>ASSIGN
GDS_RESULTS.W2
      1206**DCL      1207--REDEF
GETUSERBUFFER
      1222**DCL      1235<>CALL
GETUSERBUFFER.V
      1222**DCL      1222--DCLINIT
M$GDS
        65**DCL-ENT  1235--CALL
M$MERC
        86**DCL-ENT  1237--CALL
M$XXX
        42**DCL-ENT  1238--CALL
