VERSION A02

PL6.E3A0      #001=DBB$HEXDUMP File=TCD$DDU.:TCA2TSI                             SUN 11/16/97 14:09 Page:1
        1        1        /*M*  PL6 interface from ddu:c to DBM functions   */
        2        2        /*T***********************************************************/
        3        3        /*T*                                                         */
        4        4        /*T* Copyright (c) Bull HN Information Systems Inc., 1997    */
        5        5        /*T*                                                         */
        6        6        /*T***********************************************************/
        7        7        /*X* DDA */
        8        8
        9        9        DBB$HEXDUMP: PROC(X1,X2,X3,X4);
       10       10    1   DCL X1 UBIN;
       11       11    1   DCL X2 UBIN;
       12       12    1   DCL X3 UBIN;
       13       13    1   DCL X4 UBIN;
       14       14    1   DCL DB_ROS$ SBIN STATIC SYMDEF;
       15       15    1   DCL DA_DFLT_SYMBOLS BIT(1) STATIC SYMDEF;
       16       16    1   RETURN;
       17       17    1   END;
       18       18        %EOD;

PL6.E3A0      #001=DBB$HEXDUMP File=TCD$DDU.:TCA2TSI                             SUN 11/16/97 14:09 Page:2
--  Include file information  --

   B$JIT_C.:E05TOU  was found in the system file and is never referenced.
   CP_6_C.:E05TOU  was found in the system file and is never referenced.
      No diagnostics issued in procedure DBB$HEXDUMP.

   Procedure DBB$HEXDUMP requires 3 words for executable code.
   Procedure DBB$HEXDUMP requires 8 words of local(AUTO) storage.

PL6.E3A0      #001=DBB$HEXDUMP File=TCD$DDU.:TCA2TSI                             SUN 11/16/97 14:09 Page:3

 Object Unit name= DBB$HEXDUMP                                File name= TCD$DDU.:TCA2TOU
 UTS= NOV 16 '97 14:09:24.80 SUN                              Compiler= PL-6/E31         Sev=      00
 SharedLib= :SHARED_SYSTEM                                    Alt SharedLib=


    ****  Control sections  ****

 Sect   Type Bound  Init  Size OctSiz  Section name(segment info)
    0   Data  even  none     2      2  DBB$HEXDUMP
    1   Proc  even  none     3      3  DBB$HEXDUMP

    ****  Entry defs  ****

                              Check   Calling
                             calling  sequence
  Sect OctLoc Primary Altret sequence   type   Parms  Name
     1      0   yes            yes      Std        4  DBB$HEXDUMP

  ****  Data defs  ****

 Sect OctLoc  Name                           Sect OctLoc  Name
    0      0  DB_ROS$                            0      1  DA_DFLT_SYMBOLS

  ****  Entry refs  ****

         Check        Calling
        calling       sequence
Altret sequence SRef   type   Args  Name
                       nStd      0 X66_AUTO_4
                       nStd      0 X66_ARET
PL6.E3A0      #001=DBB$HEXDUMP File=TCD$DDU.:TCA2TSI                             SUN 11/16/97 14:09 Page:4


        1        1        /*M*  PL6 interface from ddu:c to DBM functions   */
        2        2        /*T***********************************************************/
        3        3        /*T*                                                         */
        4        4        /*T* Copyright (c) Bull HN Information Systems Inc., 1997    */
        5        5        /*T*                                                         */
        6        6        /*T***********************************************************/
        7        7        /*X* DDA */
        8        8
        9        9        DBB$HEXDUMP: PROC(X1,X2,X3,X4);

      9  1 000000   000000 700200 xent  DBB$HEXDUMP  TSX0  ! X66_AUTO_4
         1 000001   000010 000004                    ZERO    8,4

       10       10    1   DCL X1 UBIN;
       11       11    1   DCL X2 UBIN;
       12       12    1   DCL X3 UBIN;
       13       13    1   DCL X4 UBIN;
       14       14    1   DCL DB_ROS$ SBIN STATIC SYMDEF;
       15       15    1   DCL DA_DFLT_SYMBOLS BIT(1) STATIC SYMDEF;
       16       16    1   RETURN;

     16  1 000002   000000 702200 xent               TSX2  ! X66_ARET
       17       17    1   END;
       18       18        %EOD;

PL6.E3A0      #001=DBB$HEXDUMP File=TCD$DDU.:TCA2TSI                             SUN 11/16/97 14:09 Page:5
--  Include file information  --

   B$JIT_C.:E05TOU  was found in the system file and is never referenced.
   CP_6_C.:E05TOU  was found in the system file and is never referenced.
      No diagnostics issued in procedure DBB$HEXDUMP.
PL6.E3A0      #001=DBB$HEXDUMP File=TCD$DDU.:TCA2TSI                             SUN 11/16/97 14:09 Page:6

 **** Variables and constants ****

  ****  Auto variables  ****

  ****  Scalars and arrays  ****
OctLoc.c.b A Datatyp(siz) R M Lvl/name                 OctLoc.c.b A Datatyp(siz) R M Lvl/name

     3-0-0/w PTR         r     1 @X1                        4-0-0/w PTR         r     1 @X2
     5-0-0/w PTR         r     1 @X3                        6-0-0/w PTR         r     1 @X4
    *0-0-0/w UBIN        r     1 X1                        *0-0-0/w UBIN        r     1 X2
    *0-0-0/w UBIN        r     1 X3                        *0-0-0/w UBIN        r     1 X4


   Procedure DBB$HEXDUMP requires 3 words for executable code.
   Procedure DBB$HEXDUMP requires 8 words of local(AUTO) storage.
PL6.E3A0      #001=DBB$HEXDUMP File=TCD$DDU.:TCA2TSI                             SUN 11/16/97 14:09 Page:7
          *** CROSS REFERENCE LISTING ***
**     DENOTES     IDENTIFIER DEFINITION
<<                 IDENTIFIER'S VALUE SET
>>                 IDENTIFIER'S VALUE USED
<>                 IDENTIFIER SET AND/OR USED
--                 IDENTIFIER REFERENCED
PL6.E3A0      #001=DBB$HEXDUMP File=TCD$DDU.:TCA2TSI                             SUN 11/16/97 14:09 Page:8
          MINI XREF LISTING

X1
        10**DCL         9--PROC
X2
        11**DCL         9--PROC
X3
        12**DCL         9--PROC
X4
        13**DCL         9--PROC
PL6.E3A0      #001=DBB$HEXDUMP File=TCD$DDU.:TCA2TSI                             SUN 11/16/97 14:09 Page:9
              *** CROSS REFERENCE LISTING ***
    **     DENOTES     IDENTIFIER DEFINITION
    <<                 IDENTIFIER'S VALUE SET
    >>                 IDENTIFIER'S VALUE USED
    <>                 IDENTIFIER SET AND/OR USED
    --                 IDENTIFIER REFERENCED
PL6.E3A0      #001=DBB$HEXDUMP File=TCD$DDU.:TCA2TSI                             SUN 11/16/97 14:09 Page:10
              MINI UREF LISTING

DA_DFLT_SYMBOLS      15**DCL
DBB$HEXDUMP       9**PROC
DB_ROS$      14**DCL

PL6.E3A0      #002=DAA$ERRMSG File=TCD$DDU.:TCA2TSI                              SUN 11/16/97 14:09 Page:11
       19        1        /*T***********************************************************/
       20        2        /*T*                                                         */
       21        3        /*T* Copyright (c) Bull HN Information Systems Inc., 1997    */
       22        4        /*T*                                                         */
       23        5        /*T***********************************************************/
       24        6        DAA$ERRMSG: PROC (X1) ;
       25        7    1   DCL X1 UBIN;
       26        8    1   RETURN;
       27        9    1   END;
       28       10        %EOD;

PL6.E3A0      #002=DAA$ERRMSG File=TCD$DDU.:TCA2TSI                              SUN 11/16/97 14:09 Page:12
--  Include file information  --

   B$JIT_C.:E05TOU  was found in the system file and is never referenced.
   CP_6_C.:E05TOU  was found in the system file and is never referenced.
      No diagnostics issued in procedure DAA$ERRMSG.

   Procedure DAA$ERRMSG requires 3 words for executable code.
   Procedure DAA$ERRMSG requires 4 words of local(AUTO) storage.

PL6.E3A0      #002=DAA$ERRMSG File=TCD$DDU.:TCA2TSI                              SUN 11/16/97 14:09 Page:13

 Object Unit name= DAA$ERRMSG                                 File name= TCD$DDU.:TCA2TOU
 UTS= NOV 16 '97 14:09:30.36 SUN                              Compiler= PL-6/E31         Sev=      00
 SharedLib= :SHARED_SYSTEM                                    Alt SharedLib=


    ****  Control sections  ****

 Sect   Type Bound  Init  Size OctSiz  Section name(segment info)
    0   Proc  even  none     3      3  DAA$ERRMSG

    ****  Entry defs  ****

                              Check   Calling
                             calling  sequence
  Sect OctLoc Primary Altret sequence   type   Parms  Name
     0      0   yes            yes      Std        1  DAA$ERRMSG

  ****  Entry refs  ****

         Check        Calling
        calling       sequence
Altret sequence SRef   type   Args  Name
                       nStd      0 X66_AUTO_1
                       nStd      0 X66_ARET
PL6.E3A0      #002=DAA$ERRMSG File=TCD$DDU.:TCA2TSI                              SUN 11/16/97 14:09 Page:14


       19        1        /*T***********************************************************/
       20        2        /*T*                                                         */
       21        3        /*T* Copyright (c) Bull HN Information Systems Inc., 1997    */
       22        4        /*T*                                                         */
       23        5        /*T***********************************************************/
       24        6        DAA$ERRMSG: PROC (X1) ;

      6  0 000000   000000 700200 xent  DAA$ERRMSG   TSX0  ! X66_AUTO_1
         0 000001   000004 000001                    ZERO    4,1

       25        7    1   DCL X1 UBIN;
       26        8    1   RETURN;

      8  0 000002   000000 702200 xent               TSX2  ! X66_ARET
       27        9    1   END;
       28       10        %EOD;

PL6.E3A0      #002=DAA$ERRMSG File=TCD$DDU.:TCA2TSI                              SUN 11/16/97 14:09 Page:15
--  Include file information  --

   B$JIT_C.:E05TOU  was found in the system file and is never referenced.
   CP_6_C.:E05TOU  was found in the system file and is never referenced.
      No diagnostics issued in procedure DAA$ERRMSG.
PL6.E3A0      #002=DAA$ERRMSG File=TCD$DDU.:TCA2TSI                              SUN 11/16/97 14:09 Page:16

 **** Variables and constants ****

  ****  Auto variables  ****

  ****  Scalars and arrays  ****
OctLoc.c.b A Datatyp(siz) R M Lvl/name                 OctLoc.c.b A Datatyp(siz) R M Lvl/name

     3-0-0/w PTR         r     1 @X1                       *0-0-0/w UBIN        r     1 X1


   Procedure DAA$ERRMSG requires 3 words for executable code.
   Procedure DAA$ERRMSG requires 4 words of local(AUTO) storage.
PL6.E3A0      #002=DAA$ERRMSG File=TCD$DDU.:TCA2TSI                              SUN 11/16/97 14:09 Page:17
          *** CROSS REFERENCE LISTING ***
**     DENOTES     IDENTIFIER DEFINITION
<<                 IDENTIFIER'S VALUE SET
>>                 IDENTIFIER'S VALUE USED
<>                 IDENTIFIER SET AND/OR USED
--                 IDENTIFIER REFERENCED
PL6.E3A0      #002=DAA$ERRMSG File=TCD$DDU.:TCA2TSI                              SUN 11/16/97 14:09 Page:18
          MINI XREF LISTING

X1
         7**DCL         6--PROC
PL6.E3A0      #002=DAA$ERRMSG File=TCD$DDU.:TCA2TSI                              SUN 11/16/97 14:09 Page:19
              *** CROSS REFERENCE LISTING ***
    **     DENOTES     IDENTIFIER DEFINITION
    <<                 IDENTIFIER'S VALUE SET
    >>                 IDENTIFIER'S VALUE USED
    <>                 IDENTIFIER SET AND/OR USED
    --                 IDENTIFIER REFERENCED
PL6.E3A0      #002=DAA$ERRMSG File=TCD$DDU.:TCA2TSI                              SUN 11/16/97 14:09 Page:20
              MINI UREF LISTING

DAA$ERRMSG       6**PROC

PL6.E3A0      #003=DAS$SYMINIT File=TCD$DDU.:TCA2TSI                             SUN 11/16/97 14:09 Page:21
       29        1        /*T***********************************************************/
       30        2        /*T*                                                         */
       31        3        /*T* Copyright (c) Bull HN Information Systems Inc., 1997    */
       32        4        /*T*                                                         */
       33        5        /*T***********************************************************/
       34        6        DAS$SYMINIT: PROC (X1,X2) ALTRET;
       35        7    1   DCL X1 UBIN;
       36        8    1   DCL X2 UBIN;
       37        9    1   RETURN;
       38       10    1   DAS$SETNODE: ENTRY ALTRET;
       39       11    1   END;
       40       12        %EOD;

PL6.E3A0      #003=DAS$SYMINIT File=TCD$DDU.:TCA2TSI                             SUN 11/16/97 14:09 Page:22
--  Include file information  --

   B$JIT_C.:E05TOU  was found in the system file and is never referenced.
   CP_6_C.:E05TOU  was found in the system file and is never referenced.
      No diagnostics issued in procedure DAS$SYMINIT.

   Procedure DAS$SYMINIT requires 6 words for executable code.
   Procedure DAS$SYMINIT requires 6 words of local(AUTO) storage.

PL6.E3A0      #003=DAS$SYMINIT File=TCD$DDU.:TCA2TSI                             SUN 11/16/97 14:09 Page:23

 Object Unit name= DAS$SYMINIT                                File name= TCD$DDU.:TCA2TOU
 UTS= NOV 16 '97 14:09:35.16 SUN                              Compiler= PL-6/E31         Sev=      00
 SharedLib= :SHARED_SYSTEM                                    Alt SharedLib=


    ****  Control sections  ****

 Sect   Type Bound  Init  Size OctSiz  Section name(segment info)
    0   Proc  even  none     6      6  DAS$SYMINIT

    ****  Entry defs  ****

                              Check   Calling
                             calling  sequence
  Sect OctLoc Primary Altret sequence   type   Parms  Name
     0      0   yes    yes     yes      Std        2  DAS$SYMINIT
     0      3          yes     yes      Std        0  DAS$SETNODE

  ****  Entry refs  ****

         Check        Calling
        calling       sequence
Altret sequence SRef   type   Args  Name
                       nStd      0 X66_AUTO_2
                       nStd      0 X66_ARET
PL6.E3A0      #003=DAS$SYMINIT File=TCD$DDU.:TCA2TSI                             SUN 11/16/97 14:09 Page:24


       29        1        /*T***********************************************************/
       30        2        /*T*                                                         */
       31        3        /*T* Copyright (c) Bull HN Information Systems Inc., 1997    */
       32        4        /*T*                                                         */
       33        5        /*T***********************************************************/
       34        6        DAS$SYMINIT: PROC (X1,X2) ALTRET;

      6  0 000000   000000 700200 xent  DAS$SYMINIT  TSX0  ! X66_AUTO_2
         0 000001   000006 000002                    ZERO    6,2

       35        7    1   DCL X1 UBIN;
       36        8    1   DCL X2 UBIN;
       37        9    1   RETURN;

      9  0 000002   000000 702200 xent               TSX2  ! X66_ARET

       38       10    1   DAS$SETNODE: ENTRY ALTRET;

     10  0 000003   000000 700200 xent  DAS$SETNODE  TSX0  ! X66_AUTO_2
         0 000004   000006 000002                    ZERO    6,2

       39       11    1   END;

     11  0 000005   000000 702200 xent               TSX2  ! X66_ARET
       40       12        %EOD;

PL6.E3A0      #003=DAS$SYMINIT File=TCD$DDU.:TCA2TSI                             SUN 11/16/97 14:09 Page:25
--  Include file information  --

   B$JIT_C.:E05TOU  was found in the system file and is never referenced.
   CP_6_C.:E05TOU  was found in the system file and is never referenced.
      No diagnostics issued in procedure DAS$SYMINIT.
PL6.E3A0      #003=DAS$SYMINIT File=TCD$DDU.:TCA2TSI                             SUN 11/16/97 14:09 Page:26

 **** Variables and constants ****

  ****  Auto variables  ****

  ****  Scalars and arrays  ****
OctLoc.c.b A Datatyp(siz) R M Lvl/name                 OctLoc.c.b A Datatyp(siz) R M Lvl/name

     3-0-0/w PTR         r     1 @X1                        4-0-0/w PTR         r     1 @X2
    *0-0-0/w UBIN        r     1 X1                        *0-0-0/w UBIN        r     1 X2


   Procedure DAS$SYMINIT requires 6 words for executable code.
   Procedure DAS$SYMINIT requires 6 words of local(AUTO) storage.
PL6.E3A0      #003=DAS$SYMINIT File=TCD$DDU.:TCA2TSI                             SUN 11/16/97 14:09 Page:27
          *** CROSS REFERENCE LISTING ***
**     DENOTES     IDENTIFIER DEFINITION
<<                 IDENTIFIER'S VALUE SET
>>                 IDENTIFIER'S VALUE USED
<>                 IDENTIFIER SET AND/OR USED
--                 IDENTIFIER REFERENCED
PL6.E3A0      #003=DAS$SYMINIT File=TCD$DDU.:TCA2TSI                             SUN 11/16/97 14:09 Page:28
          MINI XREF LISTING

X1
         7**DCL         6--PROC
X2
         8**DCL         6--PROC
PL6.E3A0      #003=DAS$SYMINIT File=TCD$DDU.:TCA2TSI                             SUN 11/16/97 14:09 Page:29
              *** CROSS REFERENCE LISTING ***
    **     DENOTES     IDENTIFIER DEFINITION
    <<                 IDENTIFIER'S VALUE SET
    >>                 IDENTIFIER'S VALUE USED
    <>                 IDENTIFIER SET AND/OR USED
    --                 IDENTIFIER REFERENCED
PL6.E3A0      #003=DAS$SYMINIT File=TCD$DDU.:TCA2TSI                             SUN 11/16/97 14:09 Page:30
              MINI UREF LISTING

DAS$SETNODE      10**ENTRY
DAS$SYMINIT       6**PROC

PL6.E3A0      #004=DAM_DUMPFILE File=TCD$DDU.:TCA2TSI                            SUN 11/16/97 14:09 Page:31
       41        1        /*T***********************************************************/
       42        2        /*T*                                                         */
       43        3        /*T* Copyright (c) Bull HN Information Systems Inc., 1997    */
       44        4        /*T*                                                         */
       45        5        /*T***********************************************************/
       46        6        DAM_DUMPFILE:   PROC(FID$);
       47        7
       48        8        %INCLUDE CP_6;
       49       89        %INCLUDE CP_6_SUBS;
       50      629        %INCLUDE B_ERRORS_C;
       51     1756        %INCLUDE XU_MACRO_C;
       52     4862
       53     4863        %B$TCB;
       54     4866        %B$ALT;
       55     4874        %XUR_INIT;
       56     4973        %FPT_MONINFO (FPTN=MONINFO,SITEINFO=SINFO);
       57     4988        %VLR_SITEINFO (FPTN=SINFO);
       58     5007
       59     5008    1   DCL B$TCB$ PTR SYMREF;
       60     5009    1   DCL M$ME DCB;
       61     5010    1   DCL FID$ PTR;
       62     5011
       63     5012    1   DCL 1 FUD BASED(FID$),
       64     5013    1       2 L UBIN BYTE UNAL,
       65     5014    1       2 C CHAR(FUD.L);
       66     5015
       67     5016    1   DCL 1 FID,
       68     5017    1       2 L UBIN BYTE UNAL,
       69     5018    1       2 C CHAR(512);
       70     5019
       71     5020    1   DCL DAM$DUMPFILE ENTRY(1) ALTRET;
       72     5021    1   DCL DAM$INIT ENTRY ALTRET;
       73     5022    1   DCL DBM$SELECT ENTRY(1) ALTRET;
       74     5023    1   DCL XUR$ERRMSG ENTRY(7) ALTRET;
       75     5024    1   DCL XUR$INIT ENTRY (3) ALTRET;
       76     5025    1   DCL XUR$ERRPTR ENTRY(2) ALTRET;
       77     5026
PL6.E3A0      #004=DAM_DUMPFILE File=TCD$DDU.:TCA2TSI                            SUN 11/16/97 14:09 Page:32
       78     5027    1   DCL ALTRT SBIN WORD STATIC SYMDEF;
       79     5028    1   DCL 1 DMPVRS STATIC SYMDEF,
       80     5029    1       2 * CHAR(3) INIT(':DF') UNAL,
       81     5030    1       2 VERS CHAR(3) UNAL,
       82     5031    1       2 * CHAR INIT(%BINASC(0));
       83     5032
       84     5033    1         FID.L = FUD.L;
       85     5034    1         FID.C = FUD.C;
       86     5035    1         ALTRT = 0;
       87     5036    1         CALL DAM$DUMPFILE (FID) ALTRET(ERR);
       88     5037    1         CALL DBM$SELECT (2); /* select node 2 and ignore altret*/
       89     5038    1         RETURN;
       90     5039    1   ERR:
       91     5040    2         IF B$TCB$->B$TCB.ALT$->B$ALT.ERR.ERR# = %E$NOFILE THEN DO;
       92     5041    2              ALTRT = 2;
       93     5042    2              RETURN;
       94     5043    2         END;
       95     5044    1         CALL XUR$ERRMSG (B$TCB$->B$TCB.ALT$->B$ALT.ERR,,,,,,);
       96     5045    1         CALL M$EXIT;
       97     5046    1   DAM_ERR: ENTRY;
       98     5047    1         CALL XUR$ERRMSG (B$TCB$->B$TCB.ALT$->B$ALT.ERR,,,,,,);
       99     5048    1         RETURN;
      100     5049    1   DAM_INIT:  ENTRY;
      101     5050    1    CALL XUR$INIT(XUR_INIT);
      102     5051    1    CALL XUR$ERRPTR (,DCBNUM(M$ME));
      103     5052    1    CALL DAM$INIT;
      104     5053    1   CALL M$MONINFO(MONINFO);
      105     5054    1   DMPVRS.VERS=SINFO.VERSION#;
      106     5055    1    RETURN;
      107     5056    1   END;
      108     5057        %EOD;

PL6.E3A0      #004=DAM_DUMPFILE File=TCD$DDU.:TCA2TSI                            SUN 11/16/97 14:09 Page:33
--  Include file information  --

   XU_MACRO_C.:LIBRARY  is referenced.
   B_ERRORS_C.:LIBRARY  is referenced.
   CP_6_SUBS.:LIBRARY  is referenced.
   CP_6.:LIBRARY  cannot be made into a system file and is referenced.
   B$JIT_C.:E05TOU  was found in the system file and is never referenced.
   CP_6_C.:E05TOU  was found in the system file and is referenced.
      No diagnostics issued in procedure DAM_DUMPFILE.

   Procedure DAM_DUMPFILE requires 82 words for executable code.
   Procedure DAM_DUMPFILE requires 138 words of local(AUTO) storage.

PL6.E3A0      #004=DAM_DUMPFILE File=TCD$DDU.:TCA2TSI                            SUN 11/16/97 14:09 Page:34

 Object Unit name= DAM_DUMPFILE                               File name= TCD$DDU.:TCA2TOU
 UTS= NOV 16 '97 14:09:41.04 SUN                              Compiler= PL-6/E31         Sev=      00
 SharedLib= :SHARED_SYSTEM                                    Alt SharedLib=


    ****  Control sections  ****

 Sect   Type Bound  Init  Size OctSiz  Section name(segment info)
    0   DCB   even  none     0      0  M$UC
    1   Data  even  none   117    165  DAM_DUMPFILE
    2   DCB   even  none     0      0  M$ME
    3   Proc  even  none    82    122  DAM_DUMPFILE
    4  RoData even  none     2      2  DAM_DUMPFILE

    ****  Entry defs  ****

                              Check   Calling
                             calling  sequence
  Sect OctLoc Primary Altret sequence   type   Parms  Name
     3      0   yes            yes      Std        1  DAM_DUMPFILE
     3     55                  yes      Std        0  DAM_ERR
     3     70                  yes      Std        0  DAM_INIT

  ****  Data defs  ****

 Sect OctLoc  Name                           Sect OctLoc  Name
    1    162  ALTRT                              1    163  DMPVRS
PL6.E3A0      #004=DAM_DUMPFILE File=TCD$DDU.:TCA2TSI                            SUN 11/16/97 14:09 Page:35

  ****  Entry refs  ****

         Check        Calling
        calling       sequence
Altret sequence SRef   type   Args  Name
 yes     yes           Std       2 XTX$ADAPT
 yes     yes           Std       1 DAM$DUMPFILE
 yes     yes           Std       1 DBM$SELECT
 yes     yes           Std       0 DAM$INIT
 yes     yes           Std       7 XUR$ERRMSG
 yes     yes           Std       3 XUR$INIT
 yes     yes           Std       2 XUR$ERRPTR
                       nStd      0 X66_AUTO_1
                       Std       0 B_CONSPOOL_D
                       nStd      0 X66_ARET

  ****  Data refs  ****

  Flags:  r = read only, s = secondary
Flgs Name                             Flgs Name                             Flgs Name
     M$UC                                  B$TCB$                                M$ME
     B_VECTNIL

  ****  Segment refs  ****

  Flags:  r = read only, s = secondary
Flgs Name                             Flgs Name                             Flgs Name
     NULLSID                               ISSID
PL6.E3A0      #004=DAM_DUMPFILE File=TCD$DDU.:TCA2TSI                            SUN 11/16/97 14:09 Page:36


       41        1        /*T***********************************************************/
       42        2        /*T*                                                         */
       43        3        /*T* Copyright (c) Bull HN Information Systems Inc., 1997    */
       44        4        /*T*                                                         */
       45        5        /*T***********************************************************/
       46        6        DAM_DUMPFILE:   PROC(FID$);

      6  3 000000   000000 700200 xent  DAM_DUMPFILE TSX0  ! X66_AUTO_1
         3 000001   000212 000001                    ZERO    138,1

       47        7
       48        8        %INCLUDE CP_6;
       49       89        %INCLUDE CP_6_SUBS;
       50      629        %INCLUDE B_ERRORS_C;
       51     1756        %INCLUDE XU_MACRO_C;
       52     4862
       53     4863        %B$TCB;
       54     4866        %B$ALT;
       55     4874        %XUR_INIT;
       56     4973        %FPT_MONINFO (FPTN=MONINFO,SITEINFO=SINFO);
       57     4988        %VLR_SITEINFO (FPTN=SINFO);
       58     5007
       59     5008    1   DCL B$TCB$ PTR SYMREF;
       60     5009    1   DCL M$ME DCB;
       61     5010    1   DCL FID$ PTR;
       62     5011
       63     5012    1   DCL 1 FUD BASED(FID$),
       64     5013    1       2 L UBIN BYTE UNAL,
       65     5014    1       2 C CHAR(FUD.L);
       66     5015
       67     5016    1   DCL 1 FID,
       68     5017    1       2 L UBIN BYTE UNAL,
       69     5018    1       2 C CHAR(512);
       70     5019
       71     5020    1   DCL DAM$DUMPFILE ENTRY(1) ALTRET;
       72     5021    1   DCL DAM$INIT ENTRY ALTRET;
PL6.E3A0      #004=DAM_DUMPFILE File=TCD$DDU.:TCA2TSI                            SUN 11/16/97 14:09 Page:37
       73     5022    1   DCL DBM$SELECT ENTRY(1) ALTRET;
       74     5023    1   DCL XUR$ERRMSG ENTRY(7) ALTRET;
       75     5024    1   DCL XUR$INIT ENTRY (3) ALTRET;
       76     5025    1   DCL XUR$ERRPTR ENTRY(2) ALTRET;
       77     5026
       78     5027    1   DCL ALTRT SBIN WORD STATIC SYMDEF;
       79     5028    1   DCL 1 DMPVRS STATIC SYMDEF,
       80     5029    1       2 * CHAR(3) INIT(':DF') UNAL,
       81     5030    1       2 VERS CHAR(3) UNAL,
       82     5031    1       2 * CHAR INIT(%BINASC(0));
       83     5032
       84     5033    1         FID.L = FUD.L;

   5033  3 000002   200003 470500                    LDP0    @FID$,,AUTO
         3 000003   000000 471500                    LDP1    0,,PR0
         3 000004   000100 100500                    MLR     fill='000'O
         3 000005   100000 000001                    ADSC9   0,,PR1                   cn=0,n=1
         3 000006   200004 000001                    ADSC9   FID,,AUTO                cn=0,n=1

       85     5034    1         FID.C = FUD.C;

   5034  3 000007   000000 471500                    LDP1    0,,PR0
         3 000010   000100 101500                    MRL     fill='000'O
         3 000011   100000 000001                    ADSC9   0,,PR1                   cn=0,n=1
         3 000012   200206 000002                    ADSC9   FID+130,,AUTO            cn=0,n=2
         3 000013   200206 220100                    LDX0    FID+130,,AUTO
         3 000014   040100 100540                    MLR     fill='040'O
         3 000015   100000 200010                    ADSC9   0,,PR1                   cn=1,n=*X0
         3 000016   200004 201000                    ADSC9   FID,,AUTO                cn=1,n=512

       86     5035    1         ALTRT = 0;

   5035  3 000017   000162 450000 1                  STZ     ALTRT

       87     5036    1         CALL DAM$DUMPFILE (FID) ALTRET(ERR);

   5036  3 000020   200004 631500                    EPPR1   FID,,AUTO
PL6.E3A0      #004=DAM_DUMPFILE File=TCD$DDU.:TCA2TSI                            SUN 11/16/97 14:09 Page:38
         3 000021   200206 451500                    STP1    FID+130,,AUTO
         3 000022   200206 630500                    EPPR0   FID+130,,AUTO
         3 000023   000017 631400 xsym               EPPR1   B_VECTNIL+15
         3 000024   000000 701000 xent               TSX1    DAM$DUMPFILE
         3 000025   000033 702000 3                  TSX2    ERR

       88     5037    1         CALL DBM$SELECT (2); /* select node 2 and ignore altret*/

   5037  3 000026   000000 630400 4                  EPPR0   0
         3 000027   000017 631400 xsym               EPPR1   B_VECTNIL+15
         3 000030   000000 701000 xent               TSX1    DBM$SELECT
         3 000031   000000 011000                    NOP     0

       89     5038    1         RETURN;

   5038  3 000032   000000 702200 xent               TSX2  ! X66_ARET

       90     5039    1   ERR:
       91     5040    2         IF B$TCB$->B$TCB.ALT$->B$ALT.ERR.ERR# = %E$NOFILE THEN DO;

   5040  3 000033   000000 470400 xsym  ERR          LDP0    B$TCB$
         3 000034   000000 471500                    LDP1    0,,PR0
         3 000035   100102 236100                    LDQ     66,,PR1
         3 000036   377770 376007                    ANQ     131064,DL
         3 000037   001610 116007                    CMPQ    904,DL
         3 000040   000044 601000 3                  TNZ     s:5044

       92     5041    2              ALTRT = 2;

   5041  3 000041   000002 235007                    LDA     2,DL
         3 000042   000162 755000 1                  STA     ALTRT

       93     5042    2              RETURN;

   5042  3 000043   000000 702200 xent               TSX2  ! X66_ARET

       94     5043    2         END;
PL6.E3A0      #004=DAM_DUMPFILE File=TCD$DDU.:TCA2TSI                            SUN 11/16/97 14:09 Page:39
       95     5044    1         CALL XUR$ERRMSG (B$TCB$->B$TCB.ALT$->B$ALT.ERR,,,,,,);

   5044  3 000044   100102 633500                    EPPR3   66,,PR1
         3 000045   200206 453500                    STP3    FID+130,,AUTO
         3 000046   200206 630500                    EPPR0   FID+130,,AUTO
         3 000047   000017 631400 xsym               EPPR1   B_VECTNIL+15
         3 000050   000000 701000 xent               TSX1    XUR$ERRMSG
         3 000051   000000 011000                    NOP     0

       96     5045    1         CALL M$EXIT;

   5045  3 000052   000001 713400                    CLIMB   exit
         3 000053   000000 401760                    pmme    nvectors=0
         3 000054   000057 710000 3                  TRA     s:5047

       97     5046    1   DAM_ERR: ENTRY;

   5046  3 000055   000000 700200 xent  DAM_ERR      TSX0  ! X66_AUTO_1
         3 000056   000212 000001                    ZERO    138,1

       98     5047    1         CALL XUR$ERRMSG (B$TCB$->B$TCB.ALT$->B$ALT.ERR,,,,,,);

   5047  3 000057   000000 470400 xsym               LDP0    B$TCB$
         3 000060   000000 471500                    LDP1    0,,PR0
         3 000061   100102 633500                    EPPR3   66,,PR1
         3 000062   200206 453500                    STP3    FID+130,,AUTO
         3 000063   200206 630500                    EPPR0   FID+130,,AUTO
         3 000064   000017 631400 xsym               EPPR1   B_VECTNIL+15
         3 000065   000000 701000 xent               TSX1    XUR$ERRMSG
         3 000066   000000 011000                    NOP     0

       99     5048    1         RETURN;

   5048  3 000067   000000 702200 xent               TSX2  ! X66_ARET

      100     5049    1   DAM_INIT:  ENTRY;

PL6.E3A0      #004=DAM_DUMPFILE File=TCD$DDU.:TCA2TSI                            SUN 11/16/97 14:09 Page:40
   5049  3 000070   000000 700200 xent  DAM_INIT     TSX0  ! X66_AUTO_1
         3 000071   000212 000001                    ZERO    138,1

      101     5050    1    CALL XUR$INIT(XUR_INIT);

   5050  3 000072   000001 630400 4                  EPPR0   1
         3 000073   000017 631400 xsym               EPPR1   B_VECTNIL+15
         3 000074   000000 701000 xent               TSX1    XUR$INIT
         3 000075   000000 011000                    NOP     0

      102     5051    1    CALL XUR$ERRPTR (,DCBNUM(M$ME));

   5051  3 000076   000000 236007 xsym               LDQ     M$ME,DL
         3 000077   200206 756100                    STQ     FID+130,,AUTO
         3 000100   200206 630500                    EPPR0   FID+130,,AUTO
         3 000101   200211 450500                    STP0    FID+133,,AUTO
         3 000102   000001 236000 xsym               LDQ     B_VECTNIL+1
         3 000103   200210 756100                    STQ     FID+132,,AUTO
         3 000104   200210 630500                    EPPR0   FID+132,,AUTO
         3 000105   000020 631400 xsym               EPPR1   B_VECTNIL+16
         3 000106   000000 701000 xent               TSX1    XUR$ERRPTR
         3 000107   000000 011000                    NOP     0

      103     5052    1    CALL DAM$INIT;

   5052  3 000110   000002 631400 xsym               EPPR1   B_VECTNIL+2
         3 000111   000000 701000 xent               TSX1    DAM$INIT
         3 000112   000000 011000                    NOP     0

      104     5053    1   CALL M$MONINFO(MONINFO);

   5053  3 000113   000050 630400 1                  EPPR0   MONINFO
         3 000114   020023 713400                    CLIMB   8211
         3 000115   402400 401760                    pmme    nvectors=6

      105     5054    1   DMPVRS.VERS=SINFO.VERSION#;

PL6.E3A0      #004=DAM_DUMPFILE File=TCD$DDU.:TCA2TSI                            SUN 11/16/97 14:09 Page:41
   5054  3 000116   040000 100400                    MLR     fill='040'O
         3 000117   000150 000003 1                  ADSC9   SINFO+52                 cn=0,n=3
         3 000120   000163 600003 1                  ADSC9   DMPVRS                   cn=3,n=3

      106     5055    1    RETURN;

   5055  3 000121   000000 702200 xent               TSX2  ! X66_ARET

XUR_INIT
 Sect OctLoc
   1     000   520000 000001   000000 000000   000000 000000   000000 000000    ................
   1     004   000000 006014   000000 177640   000000 006014   000000 000000    ................
   1     010   000000 006014   000000 000000   000000 000000   ****** ******    ................
   1     014   000000 177640   000000 006014   000000 000000   000000 000000    ................
   1     020   000000 177640   000000 006014   000000 000000   00000* ******    ................
   1     024   000000 000000   000000 000000   000000 000000   000000 000000    ................
   1     044*  000000 000000   000000 000000   000000 000000                    ............

MONINFO
 Sect OctLoc
   1     050   000075 777640   000064 006000   000000 177640   000000 006014    .=...4..........
   1     054   000000 177640   000000 006014   000000 177640   000000 006014    ................
   1     060   000000 177640   000000 006014   000000 177640   000000 006014    ................

SINFO
 Sect OctLoc
   1     064   040040 040040   001040 040040   040040 040040   040040 040040        .
   1     070   040040 040040   040040 040040   040040 040040   040040 040040
   1     120*  040040 040040   040040 040040   040040 040040   032007 052052                ..**
   1     124   052103 120055   066040 101124   040131 117125   122040 123105    *CP-6 AT YOUR SE
   1     130   122126 111103   105041 007040   040040 040040   040040 040040    RVICE!.
   1     134   040040 040040   040040 040040   040040 040040   040040 040040
   1     144*  040040 040040   040040 040040   040040 040040   000000 000000                ....
   1     150   040040 040040   000000 000000   040040 040040   040040 000000        ....      ..
   1     154   060060 060060   040040 040040   000000 000000   000000 000000    0000    ........
   1     160   000000 000000   000000 000000                                    ........

PL6.E3A0      #004=DAM_DUMPFILE File=TCD$DDU.:TCA2TSI                            SUN 11/16/97 14:09 Page:42
DMPVRS
 Sect OctLoc
   1     163   072104 106***   ****** 000***                                    :DF.....

(unnamed)
 Sect OctLoc
   4     000   000004 006000   000000 006000                                    ........
      107     5056    1   END;
      108     5057        %EOD;

PL6.E3A0      #004=DAM_DUMPFILE File=TCD$DDU.:TCA2TSI                            SUN 11/16/97 14:09 Page:43
--  Include file information  --

   XU_MACRO_C.:LIBRARY  is referenced.
   B_ERRORS_C.:LIBRARY  is referenced.
   CP_6_SUBS.:LIBRARY  is referenced.
   CP_6.:LIBRARY  cannot be made into a system file and is referenced.
   B$JIT_C.:E05TOU  was found in the system file and is never referenced.
   CP_6_C.:E05TOU  was found in the system file and is referenced.
      No diagnostics issued in procedure DAM_DUMPFILE.
PL6.E3A0      #004=DAM_DUMPFILE File=TCD$DDU.:TCA2TSI                            SUN 11/16/97 14:09 Page:44

 **** Variables and constants ****

  ****  Section 001  Data  DAM_DUMPFILE

  ****  Scalars and arrays  ****
OctLoc.c.b A Datatyp(siz) R M Lvl/name                 OctLoc.c.b A Datatyp(siz) R M Lvl/name

   162-0-0/w SBIN        r     1 ALTRT                    163-0-0/c STRC(63)    r     1 DMPVRS
    50-0-0/d STRC(432)   r     1 MONINFO                   64-0-0/d STRC(2232)  r     1 SINFO
     0-0-0/d STRC(1404)  r     1 XUR_INIT

  ****  Auto variables  ****

  ****  Scalars and arrays  ****
OctLoc.c.b A Datatyp(siz) R M Lvl/name                 OctLoc.c.b A Datatyp(siz) R M Lvl/name

     3-0-0/w PTR         r     1 @FID$                      4-0-0/c STRC(4617)  r     1 FID
    *0-0-0/w PTR         r     1 FID$

  ****  SYMREF variables  ****

  ****  Scalars and arrays  ****
OctLoc.c.b A Datatyp(siz) R M Lvl/name                 OctLoc.c.b A Datatyp(siz) R M Lvl/name

     0-0-0/w PTR         r     1 B$TCB$

  ****  BASED and DCB variables  ****

  ****  Scalars and arrays  ****
OctLoc.c.b A Datatyp(siz) R M Lvl/name                 OctLoc.c.b A Datatyp(siz) R M Lvl/name

     0-0-0/w STRC(2448)  r     1 B$ALT                      0-0-0/w STRC(144)   r     1 B$TCB
     0-0-0/c ASTR(9)     r     1 FUD                        0-0-0N  NULL        r     1 M$ME


   Procedure DAM_DUMPFILE requires 82 words for executable code.
PL6.E3A0      #004=DAM_DUMPFILE File=TCD$DDU.:TCA2TSI                            SUN 11/16/97 14:09 Page:45
   Procedure DAM_DUMPFILE requires 138 words of local(AUTO) storage.
PL6.E3A0      #004=DAM_DUMPFILE File=TCD$DDU.:TCA2TSI                            SUN 11/16/97 14:09 Page:46
          *** CROSS REFERENCE LISTING ***
**     DENOTES     IDENTIFIER DEFINITION
<<                 IDENTIFIER'S VALUE SET
>>                 IDENTIFIER'S VALUE USED
<>                 IDENTIFIER SET AND/OR USED
--                 IDENTIFIER REFERENCED
PL6.E3A0      #004=DAM_DUMPFILE File=TCD$DDU.:TCA2TSI                            SUN 11/16/97 14:09 Page:47
          MINI XREF LISTING

ALTRT
      5027**DCL      5035<<ASSIGN   5041<<ASSIGN
B$ALT.CODE
      4868**DCL      4868--REDEF    4869--REDEF    4869--REDEF
B$ALT.ERR
      4869**DCL      5044<>CALL     5047<>CALL
B$ALT.ERR.ERR#
      4870**DCL      4870--REDEF    5040>>IF
B$ALT.EVID
      4869**DCL      4869--REDEF    4869--REDEF
B$TCB.ALT$
      4864**DCL      5040>>IF       5044>>CALL     5047>>CALL
B$TCB$
      5008**DCL      5040>>IF       5044>>CALL     5047>>CALL
DAM$DUMPFILE
      5020**DCL-ENT  5036--CALL
DAM$INIT
      5021**DCL-ENT  5052--CALL
DBM$SELECT
      5022**DCL-ENT  5037--CALL
DMPVRS.VERS
      5030**DCL      5054<<ASSIGN
ERR
      5040**LABEL    5036--CALLALT
FID
      5016**DCL      5036<>CALL
FID.C
      5018**DCL      5034<<ASSIGN
FID.L
      5017**DCL      5033<<ASSIGN
FID$
      5010**DCL         6--PROC     5012--IMP-PTR  5033>>ASSIGN   5034>>ASSIGN   5034>>ASSIGN
PL6.E3A0      #004=DAM_DUMPFILE File=TCD$DDU.:TCA2TSI                            SUN 11/16/97 14:09 Page:48
FUD.C
      5014**DCL      5034>>ASSIGN
FUD.L
      5013**DCL      5014--IMP-SIZ  5033>>ASSIGN   5034>>ASSIGN
M$EXIT
        29**DCL-ENT  5045--CALL
M$ME
      5009**DCL      5051<>CALL
M$MONINFO
        85**DCL-ENT  5053--CALL
MONINFO
      4984**DCL      5053<>CALL
SINFO
      4999**DCL      4984--DCLINIT
SINFO.VERSION#
      5002**DCL      5054>>ASSIGN
XTX$ADAPT
      4891**DCL-ENT  4970--DCLINIT
XUR$ERRMSG
      5023**DCL-ENT  5044--CALL     5047--CALL
XUR$ERRPTR
      5025**DCL-ENT  5051--CALL
XUR$INIT
      5024**DCL-ENT  5050--CALL
XUR_INIT
      4896**DCL      5050<>CALL
XUR_INIT.WORKR_
      4910**DCL      4911--REDEF
PL6.E3A0      #004=DAM_DUMPFILE File=TCD$DDU.:TCA2TSI                            SUN 11/16/97 14:09 Page:49
              *** CROSS REFERENCE LISTING ***
    **     DENOTES     IDENTIFIER DEFINITION
    <<                 IDENTIFIER'S VALUE SET
    >>                 IDENTIFIER'S VALUE USED
    <>                 IDENTIFIER SET AND/OR USED
    --                 IDENTIFIER REFERENCED
PL6.E3A0      #004=DAM_DUMPFILE File=TCD$DDU.:TCA2TSI                            SUN 11/16/97 14:09 Page:50
              MINI UREF LISTING

DAM_DUMPFILE       6**PROC
DAM_ERR    5046**ENTRY
DAM_INIT    5049**ENTRY
M$ACCT      34**DCL-ENT
M$ACTIVATE      37**DCL-ENT
M$ALIB      30**DCL-ENT
M$ASUSER      32**DCL-ENT
M$ATTACH      39**DCL-ENT
M$BADPP      57**DCL-ENT
M$CGCTL      38**DCL-ENT
M$CGINFO      38**DCL-ENT
M$CHECK      19**DCL-ENT
M$CHGUNIT      77**DCL-ENT
M$CLOSE      17**DCL-ENT
M$CLRSTK      75**DCL-ENT
M$CMDVAR      86**DCL-ENT
M$CONFIG      47**DCL-ENT
M$CORRES      22**DCL-ENT
M$CPEXIT      31**DCL-ENT
M$CVM      55**DCL-ENT
M$CVOL      20**DCL-ENT
M$DCLFLD      47**DCL-ENT
M$DEACTIVATE      37**DCL-ENT
M$DELREC      19**DCL-ENT
M$DEQ      84**DCL-ENT
M$DETACH      39**DCL-ENT
M$DEVICE      21**DCL-ENT
M$DISPLAY      84**DCL-ENT
M$DISPRES      24**DCL-ENT
M$DLIB      30**DCL-ENT
M$DRIBBLE      47**DCL-ENT
M$DRTN      75**DCL-ENT
PL6.E3A0      #004=DAM_DUMPFILE File=TCD$DDU.:TCA2TSI                            SUN 11/16/97 14:09 Page:51
M$DSUSER      32**DCL-ENT
M$ENQ      83**DCL-ENT
M$EOM      42**DCL-ENT
M$ERASE      48**DCL-ENT
M$ERR      29**DCL-ENT
M$ERRMSG      80**DCL-ENT
M$EVENT      72**DCL-ENT
M$EXHUME      81**DCL-ENT
M$EXTEND      21**DCL-ENT
M$FDP      53**DCL-ENT
M$FDS      52**DCL-ENT
M$FEBOOT      45**DCL-ENT
M$FECTL      46**DCL-ENT
M$FEDUMP      45**DCL-ENT
M$FID      80**DCL-ENT
M$FINDPROC      34**DCL-ENT
M$FSUSER      32**DCL-ENT
M$FVP      54**DCL-ENT
M$FWCG      38**DCL-ENT
M$GBPL      58**DCL-ENT
M$GDDL      54**DCL-ENT
M$GDP      53**DCL-ENT
M$GDS      52**DCL-ENT
M$GETDCB      23**DCL-ENT
M$GETMOUSE      63**DCL-ENT
M$GETPM      64**DCL-ENT
M$GJOB      82**DCL-ENT
M$GLINEATTR      42**DCL-ENT
M$GOODPP      57**DCL-ENT
M$GPLATEN      50**DCL-ENT
M$GPROMPT      49**DCL-ENT
M$GTRMATTR      43**DCL-ENT
M$GTRMCTL      41**DCL-ENT
M$GTRMTAB      44**DCL-ENT
M$GVP      53**DCL-ENT
M$HELP      80**DCL-ENT
PL6.E3A0      #004=DAM_DUMPFILE File=TCD$DDU.:TCA2TSI                            SUN 11/16/97 14:09 Page:52
M$INT      72**DCL-ENT
M$INTRTN      33**DCL-ENT
M$IOQ      68**DCL-ENT
M$JOBSTATS      82**DCL-ENT
M$KEYIN      22**DCL-ENT
M$LDEV      17**DCL-ENT
M$LDTRC      30**DCL-ENT
M$LIMIT      23**DCL-ENT
M$LINES      22**DCL-ENT
M$LINK      29**DCL-ENT
M$MADMUCK      25**DCL-ENT
M$MAKUSER      56**DCL-ENT
M$MBS      24**DCL-ENT
M$MDFFLD      48**DCL-ENT
M$MERC      73**DCL-ENT
M$MERCS      74**DCL-ENT
M$MIRROR      68**DCL-ENT
M$MPL      58**DCL-ENT
M$NODEINFO      49**DCL-ENT
M$NXTUSR      83**DCL-ENT
M$OCMSG      81**DCL-ENT
M$OLAY      29**DCL-ENT
M$OPEN      17**DCL-ENT
M$PAS      58**DCL-ENT
M$PATHCON      81**DCL-ENT
M$PDS      52**DCL-ENT
M$PFIL      19**DCL-ENT
M$PLATEN      43**DCL-ENT
M$PRECORD      21**DCL-ENT
M$PROCNAME      34**DCL-ENT
M$PROFILE      45**DCL-ENT
M$PROMPT      41**DCL-ENT
M$RACST      25**DCL-ENT
M$RDSYSLOG      66**DCL-ENT
M$READ      18**DCL-ENT
M$RELDCB      23**DCL-ENT
PL6.E3A0      #004=DAM_DUMPFILE File=TCD$DDU.:TCA2TSI                            SUN 11/16/97 14:09 Page:53
M$RELRES      24**DCL-ENT
M$RELSTARF      26**DCL-ENT
M$REM      26**DCL-ENT
M$RENV      73**DCL-ENT
M$REQUIRE      25**DCL-ENT
M$RETRY      74**DCL-ENT
M$RETRYS      74**DCL-ENT
M$REW      20**DCL-ENT
M$RLSFLD      48**DCL-ENT
M$RPRIV      76**DCL-ENT
M$RSPP      55**DCL-ENT
M$RSWITCH      77**DCL-ENT
M$RUE      83**DCL-ENT
M$SAD      56**DCL-ENT
M$SAVE      32**DCL-ENT
M$SCON      33**DCL-ENT
M$SCREECH      31**DCL-ENT
M$SENV      73**DCL-ENT
M$SETFMA      17**DCL-ENT
M$SETFP      46**DCL-ENT
M$SINPUT      44**DCL-ENT
M$SLCFLD      49**DCL-ENT
M$SMOUSE      63**DCL-ENT
M$SMPRT      55**DCL-ENT
M$SPRIV      76**DCL-ENT
M$SSC      56**DCL-ENT
M$SSWITCH      76**DCL-ENT
M$STATE      85**DCL-ENT
M$STD      57**DCL-ENT
M$STIMER      71**DCL-ENT
M$STLPP      54**DCL-ENT
M$STRAP      71**DCL-ENT
M$STRMATTR      43**DCL-ENT
M$STRMCTL      41**DCL-ENT
M$STRMTAB      44**DCL-ENT
M$SYMBIO      82**DCL-ENT
PL6.E3A0      #004=DAM_DUMPFILE File=TCD$DDU.:TCA2TSI                            SUN 11/16/97 14:09 Page:54
M$SYSCON      68**DCL-ENT
M$SYSID      86**DCL-ENT
M$TDCLOSE      67**DCL-ENT
M$TDIO      67**DCL-ENT
M$TDOPEN      66**DCL-ENT
M$TDREQCPU      67**DCL-ENT
M$TEMPWROC      61**DCL-ENT
M$TIME      84**DCL-ENT
M$TRAP      71**DCL-ENT
M$TRMISC      46**DCL-ENT
M$TRMPRG      42**DCL-ENT
M$TRTN      75**DCL-ENT
M$TRUNC      18**DCL-ENT
M$TTIMER      71**DCL-ENT
M$UC      41**DCL
M$UMPL      58**DCL-ENT
M$UNFID      80**DCL-ENT
M$UNLATCH      37**DCL-ENT
M$UNSHARE      34**DCL-ENT
M$USRFIELD      77**DCL-ENT
M$VIRTUAL      52**DCL-ENT
M$WAIT      75**DCL-ENT
M$WEOF      20**DCL-ENT
M$WRITE      18**DCL-ENT
M$WRSYSLOG      66**DCL-ENT
M$XCON      72**DCL-ENT
M$XCONRTN      33**DCL-ENT
M$XEQTIME      85**DCL-ENT
M$XFLUSH      26**DCL-ENT
M$XMOUSE      63**DCL-ENT
M$XXX      29**DCL-ENT
M$YC      31**DCL-ENT

PL6.E3A0      #005=DBM_GETMEM File=TCD$DDU.:TCA2TSI                              SUN 11/16/97 14:10 Page:55
      109        1        /*T***********************************************************/
      110        2        /*T*                                                         */
      111        3        /*T* Copyright (c) Bull HN Information Systems Inc., 1997    */
      112        4        /*T*                                                         */
      113        5        /*T***********************************************************/
      114        6        DBM_GETMEM: PROC (DIBADR,USRBUF,SIZE,RETSZ);
      115        7    1   DCL DIBADR UBIN;
      116        8    1   DCL SIZE UBIN;
      117        9
      118       10
      119       11        %INCLUDE DB_MACRO_M;
      120       42        %DB$MAP_EQUS;
      121       52
      122       53    1   DCL DBM$GETMEM ENTRY(10) ALTRET;
      123       54
      124       55    1   DCL LCLBUF CHAR(5120);
      125       56    1   DCL USRBUF CHAR(SIZE);
      126       57    1   DCL RETSZ SBIN;
      127       58    1   DCL ARS UBIN;
      128       59    1   DCL ADR UBIN;
      129       60
      130       61
      131       62    1       ADR = DIBADR/2;
      132       63    1    CALL DBM$GETMEM(ADR,LCLBUF,0,SIZE,ARS,SIZE,%DB#DOMAIN_REAL)
      133       64    1       ALTRET(ERR);
      134       65    1    USRBUF = LCLBUF;
      135       66    1    RETSZ = ARS;
      136       67    1    RETURN;
      137       68
      138       69    1   ERR: RETSZ = -1;
      139       70    1    RETURN;
      140       71    1   END;

PL6.E3A0      #005=DBM_GETMEM File=TCD$DDU.:TCA2TSI                              SUN 11/16/97 14:10 Page:56
--  Include file information  --

   DB_MACRO_M.:TOOLE05  is referenced.
   B$JIT_C.:E05TOU  was found in the system file and is never referenced.
   CP_6_C.:E05TOU  was found in the system file and is never referenced.
      No diagnostics issued in procedure DBM_GETMEM.

   Procedure DBM_GETMEM requires 37 words for executable code.
   Procedure DBM_GETMEM requires 1298 words of local(AUTO) storage.

    No errors detected in file TCD$DDU.:TCA2TSI    .

PL6.E3A0      #005=DBM_GETMEM File=TCD$DDU.:TCA2TSI                              SUN 11/16/97 14:10 Page:57

 Object Unit name= DBM_GETMEM                                 File name= TCD$DDU.:TCA2TOU
 UTS= NOV 16 '97 14:10:41.96 SUN                              Compiler= PL-6/E31         Sev=      00
 SharedLib= :SHARED_SYSTEM                                    Alt SharedLib=


    ****  Control sections  ****

 Sect   Type Bound  Init  Size OctSiz  Section name(segment info)
    0   Proc  even  none    37     45  DBM_GETMEM
    1  RoData even  none     2      2  DBM_GETMEM

    ****  Entry defs  ****

                              Check   Calling
                             calling  sequence
  Sect OctLoc Primary Altret sequence   type   Parms  Name
     0      0   yes            yes      Std        4  DBM_GETMEM

  ****  Entry refs  ****

         Check        Calling
        calling       sequence
Altret sequence SRef   type   Args  Name
 yes     yes           Std      10 DBM$GETMEM
                       nStd      0 X66_AUTO_4
                       Std       0 B_CONSPOOL_D
                       nStd      0 X66_ARET

  ****  Data refs  ****

  Flags:  r = read only, s = secondary
Flgs Name                             Flgs Name                             Flgs Name
     B_VECTNIL
PL6.E3A0      #005=DBM_GETMEM File=TCD$DDU.:TCA2TSI                              SUN 11/16/97 14:10 Page:58

  ****  Segment refs  ****

  Flags:  r = read only, s = secondary
Flgs Name                             Flgs Name                             Flgs Name
     ISSID
PL6.E3A0      #005=DBM_GETMEM File=TCD$DDU.:TCA2TSI                              SUN 11/16/97 14:10 Page:59


      109        1        /*T***********************************************************/
      110        2        /*T*                                                         */
      111        3        /*T* Copyright (c) Bull HN Information Systems Inc., 1997    */
      112        4        /*T*                                                         */
      113        5        /*T***********************************************************/
      114        6        DBM_GETMEM: PROC (DIBADR,USRBUF,SIZE,RETSZ);

      6  0 000000   000000 700200 xent  DBM_GETMEM   TSX0  ! X66_AUTO_4
         0 000001   002422 000004                    ZERO    1298,4

      115        7    1   DCL DIBADR UBIN;
      116        8    1   DCL SIZE UBIN;
      117        9
      118       10
      119       11        %INCLUDE DB_MACRO_M;
      120       42        %DB$MAP_EQUS;
      121       52
      122       53    1   DCL DBM$GETMEM ENTRY(10) ALTRET;
      123       54
      124       55    1   DCL LCLBUF CHAR(5120);
      125       56    1   DCL USRBUF CHAR(SIZE);
      126       57    1   DCL RETSZ SBIN;
      127       58    1   DCL ARS UBIN;
      128       59    1   DCL ADR UBIN;
      129       60
      130       61
      131       62    1       ADR = DIBADR/2;

     62  0 000002   200003 470500                    LDP0    @DIBADR,,AUTO
         0 000003   000000 236100                    LDQ     0,,PR0
         0 000004   000001 772000                    QRL     1
         0 000005   202410 756100                    STQ     ADR,,AUTO

      132       63    1    CALL DBM$GETMEM(ADR,LCLBUF,0,SIZE,ARS,SIZE,%DB#DOMAIN_REAL)

     63  0 000006   000000 236000 1                  LDQ     0
PL6.E3A0      #005=DBM_GETMEM File=TCD$DDU.:TCA2TSI                              SUN 11/16/97 14:10 Page:60
         0 000007   202420 756100                    STQ     ADR+8,,AUTO
         0 000010   200005 236100                    LDQ     @SIZE,,AUTO
         0 000011   202417 756100                    STQ     ADR+7,,AUTO
         0 000012   202407 631500                    EPPR1   ARS,,AUTO
         0 000013   202416 451500                    STP1    ADR+6,,AUTO
         0 000014   000001 235000 1                  LDA     1
         0 000015   202414 757100                    STAQ    ADR+4,,AUTO
         0 000016   200007 633500                    EPPR3   LCLBUF,,AUTO
         0 000017   202413 453500                    STP3    ADR+3,,AUTO
         0 000020   202410 634500                    EPPR4   ADR,,AUTO
         0 000021   202412 454500                    STP4    ADR+2,,AUTO
         0 000022   202412 630500                    EPPR0   ADR+2,,AUTO
         0 000023   000025 631400 xsym               EPPR1   B_VECTNIL+21
         0 000024   000000 701000 xent               TSX1    DBM$GETMEM
         0 000025   000041 702000 0                  TSX2    ERR

      133       64    1       ALTRET(ERR);
      134       65    1    USRBUF = LCLBUF;

     65  0 000026   200005 470500                    LDP0    @SIZE,,AUTO
         0 000027   000000 720100                    LXL0    0,,PR0
         0 000030   012000 221003                    LDX1    5120,DU
         0 000031   200004 471500                    LDP1    @USRBUF,,AUTO
         0 000032   040140 100540                    MLR     fill='040'O
         0 000033   200007 000011                    ADSC9   LCLBUF,,AUTO             cn=0,n=*X1
         0 000034   100000 000010                    ADSC9   0,,PR1                   cn=0,n=*X0

      135       66    1    RETSZ = ARS;

     66  0 000035   202407 235100                    LDA     ARS,,AUTO
         0 000036   200006 473500                    LDP3    @RETSZ,,AUTO
         0 000037   300000 755100                    STA     0,,PR3

      136       67    1    RETURN;

     67  0 000040   000000 702200 xent               TSX2  ! X66_ARET

PL6.E3A0      #005=DBM_GETMEM File=TCD$DDU.:TCA2TSI                              SUN 11/16/97 14:10 Page:61
      137       68
      138       69    1   ERR: RETSZ = -1;

     69  0 000041   000001 335007       ERR          LCA     1,DL
         0 000042   200006 470500                    LDP0    @RETSZ,,AUTO
         0 000043   000000 755100                    STA     0,,PR0

      139       70    1    RETURN;

     70  0 000044   000000 702200 xent               TSX2  ! X66_ARET

(unnamed)
 Sect OctLoc
   1     000   000006 006000   000002 006000                                    ........
      140       71    1   END;

PL6.E3A0      #005=DBM_GETMEM File=TCD$DDU.:TCA2TSI                              SUN 11/16/97 14:10 Page:62
--  Include file information  --

   DB_MACRO_M.:TOOLE05  is referenced.
   B$JIT_C.:E05TOU  was found in the system file and is never referenced.
   CP_6_C.:E05TOU  was found in the system file and is never referenced.
      No diagnostics issued in procedure DBM_GETMEM.
PL6.E3A0      #005=DBM_GETMEM File=TCD$DDU.:TCA2TSI                              SUN 11/16/97 14:10 Page:63

 **** Variables and constants ****

  ****  Auto variables  ****

  ****  Scalars and arrays  ****
OctLoc.c.b A Datatyp(siz) R M Lvl/name                 OctLoc.c.b A Datatyp(siz) R M Lvl/name

     3-0-0/w PTR         r     1 @DIBADR                    6-0-0/w PTR         r     1 @RETSZ
     5-0-0/w PTR         r     1 @SIZE                      4-0-0/w PTR         r     1 @USRBUF
  2410-0-0/w UBIN        r     1 ADR                     2407-0-0/w UBIN        r     1 ARS
    *0-0-0/w UBIN        r     1 DIBADR                     7-0-0/c CHAR(5120)  r     1 LCLBUF
    *0-0-0/w SBIN        r     1 RETSZ                     *0-0-0/w UBIN        r     1 SIZE
    *0-0-0/c ACHR        r     1 USRBUF


   Procedure DBM_GETMEM requires 37 words for executable code.
   Procedure DBM_GETMEM requires 1298 words of local(AUTO) storage.

    No errors detected in file TCD$DDU.:TCA2TSI    .
PL6.E3A0      #005=DBM_GETMEM File=TCD$DDU.:TCA2TSI                              SUN 11/16/97 14:10 Page:64
          *** CROSS REFERENCE LISTING ***
**     DENOTES     IDENTIFIER DEFINITION
<<                 IDENTIFIER'S VALUE SET
>>                 IDENTIFIER'S VALUE USED
<>                 IDENTIFIER SET AND/OR USED
--                 IDENTIFIER REFERENCED
PL6.E3A0      #005=DBM_GETMEM File=TCD$DDU.:TCA2TSI                              SUN 11/16/97 14:10 Page:65
          MINI XREF LISTING

ADR
        59**DCL        62<<ASSIGN     63<>CALL
ARS
        58**DCL        63<>CALL       66>>ASSIGN
DBM$GETMEM
        53**DCL-ENT    63--CALL
DIBADR
         7**DCL         6--PROC       62>>ASSIGN
ERR
        69**LABEL      63--CALLALT
LCLBUF
        55**DCL        63<>CALL       65>>ASSIGN
RETSZ
        57**DCL         6--PROC       66<<ASSIGN     69<<ASSIGN
SIZE
         8**DCL         6--PROC       56--IMP-SIZ    63<>CALL       63<>CALL       65>>ASSIGN
USRBUF
        56**DCL         6--PROC       65<<ASSIGN
PL6.E3A0      #005=DBM_GETMEM File=TCD$DDU.:TCA2TSI                              SUN 11/16/97 14:10 Page:66
              *** CROSS REFERENCE LISTING ***
    **     DENOTES     IDENTIFIER DEFINITION
    <<                 IDENTIFIER'S VALUE SET
    >>                 IDENTIFIER'S VALUE USED
    <>                 IDENTIFIER SET AND/OR USED
    --                 IDENTIFIER REFERENCED
PL6.E3A0      #005=DBM_GETMEM File=TCD$DDU.:TCA2TSI                              SUN 11/16/97 14:10 Page:67
              MINI UREF LISTING

DBM_GETMEM       6**PROC
