PL6.E3A0      #002=REPORT_TIME File=TCF$FTPDCMD.:TCA2TSI                         SUN 11/16/97 14:17 Page:214
     1071        1        /*T***********************************************************/
     1072        2        /*T*                                                         */
     1073        3        /*T* Copyright (c) Bull HN Information Systems Inc., 1997    */
     1074        4        /*T*                                                         */
     1075        5        /*T***********************************************************/
     1076        6        REPORT_TIME: PROC(BYTES,TIME);
     1077        7    1   DCL BYTES SBIN(36);
     1078        8    1   DCL TIME SBIN(36);
     1079        9    1   DCL X$WRITE ENTRY(22);                  /* X$ fmt */
     1080       10        %INCLUDE XU_FORMAT_C;
     1081      172        %F_FDS (NAME=FDS, DCB=M$LO,BUF=FDSBUF);
     1082      285    1   DCL FDSBUF CHAR(240) STATIC;
     1083      286    1   DCL FMT CHAR(0) CONSTANT
     1084      287    1    INIT('%D bytes transferred in %N=%.#:10/KD.%1.#KD seconds
     1085      288    1     (%N=%.#:10/KD%#:200/[.%1.#KD%] Kbytes/s)');
     1086      289    1   DCL M$LO DCB;
     1087      290    1   DCL 1 DAT,
     1088      291    1             2 BYTES SBIN,
     1089      292    1             2 SECS SBIN,
     1090      293    1             2 BPS SBIN;
     1091      294
     1092      295    1      DAT.SECS=TIME;
     1093      296    1      IF DAT.SECS<0 THEN DAT.SECS=DAT.SECS+86400000; /* add a day for wrap */
     1094      297    1      DAT.SECS=(DAT.SECS+50)/100;          /* time in tenths */
     1095      298    1      IF DAT.SECS=0 THEN DAT.SECS=DAT.SECS+1;
     1096      299    1      DAT.BYTES=BYTES;
     1097      300    1      DAT.BPS=(DAT.BYTES+9)/10/DAT.SECS;
     1098      301    1      CALL X$WRITE (FDS, VECTOR(FMT), VECTOR(DAT));
     1099      302
     1100      303    1      RETURN;
     1101      304    1   END REPORT_TIME;

PL6.E3A0      #002=REPORT_TIME File=TCF$FTPDCMD.:TCA2TSI                         SUN 11/16/97 14:17 Page:215
--  Include file information  --

   XU_FORMAT_C.:LIBRARY  is referenced.
   B$JIT_C.:E05TOU  was found in the system file and is never referenced.
   CP_6_C.:E05TOU  was found in the system file and is never referenced.
      No diagnostics issued in procedure REPORT_TIME.

   Procedure REPORT_TIME requires 37 words for executable code.
   Procedure REPORT_TIME requires 16 words of local(AUTO) storage.

    No errors detected in file TCF$FTPDCMD.:TCA2TSI    .

PL6.E3A0      #002=REPORT_TIME File=TCF$FTPDCMD.:TCA2TSI                         SUN 11/16/97 14:17 Page:216

 Object Unit name= REPORT_TIME                                File name= TCF$FTPDCMD.:TCA2TOU
 UTS= NOV 16 '97 14:17:12.08 SUN                              Compiler= PL-6/E31         Sev=      00
 SharedLib= :SHARED_SYSTEM                                    Alt SharedLib=


    ****  Control sections  ****

 Sect   Type Bound  Init  Size OctSiz  Section name(segment info)
    0   Data  even  none    90    132  REPORT_TIME
    1  RoData even  UTS     23     27  REPORT_TIME
    2   DCB   even  none     0      0  M$LO
    3   Proc  even  none    37     45  REPORT_TIME
    4  RoData even  none     6      6  REPORT_TIME

    ****  Entry defs  ****

                              Check   Calling
                             calling  sequence
  Sect OctLoc Primary Altret sequence   type   Parms  Name
     3      0   yes            yes      Std        2  REPORT_TIME

  ****  Entry refs  ****

         Check        Calling
        calling       sequence
Altret sequence SRef   type   Args  Name
         yes           Std      22 X$WRITE
                       nStd      0 X66_AUTO_2
                       Std       0 B_CONSPOOL_D
                       nStd      0 X66_ARET

  ****  Data refs  ****

  Flags:  r = read only, s = secondary
Flgs Name                             Flgs Name                             Flgs Name
     M$LO                                  B_VECTNIL
PL6.E3A0      #002=REPORT_TIME File=TCF$FTPDCMD.:TCA2TSI                         SUN 11/16/97 14:17 Page:217

  ****  Segment refs  ****

  Flags:  r = read only, s = secondary
Flgs Name                             Flgs Name                             Flgs Name
     NULLSID                               ISSID
PL6.E3A0      #002=REPORT_TIME File=TCF$FTPDCMD.:TCA2TSI                         SUN 11/16/97 14:17 Page:218


     1071        1        /*T***********************************************************/
     1072        2        /*T*                                                         */
     1073        3        /*T* Copyright (c) Bull HN Information Systems Inc., 1997    */
     1074        4        /*T*                                                         */
     1075        5        /*T***********************************************************/
     1076        6        REPORT_TIME: PROC(BYTES,TIME);

      6  3 000000   000000 700200 xent  REPORT_TIME  TSX0  ! X66_AUTO_2
         3 000001   000020 000002                    ZERO    16,2

     1077        7    1   DCL BYTES SBIN(36);
     1078        8    1   DCL TIME SBIN(36);
     1079        9    1   DCL X$WRITE ENTRY(22);                  /* X$ fmt */
     1080       10        %INCLUDE XU_FORMAT_C;
     1081      172        %F_FDS (NAME=FDS, DCB=M$LO,BUF=FDSBUF);
     1082      285    1   DCL FDSBUF CHAR(240) STATIC;
     1083      286    1   DCL FMT CHAR(0) CONSTANT
     1084      287    1    INIT('%D bytes transferred in %N=%.#:10/KD.%1.#KD seconds
     1085      288    1     (%N=%.#:10/KD%#:200/[.%1.#KD%] Kbytes/s)');
     1086      289    1   DCL M$LO DCB;
     1087      290    1   DCL 1 DAT,
     1088      291    1             2 BYTES SBIN,
     1089      292    1             2 SECS SBIN,
     1090      293    1             2 BPS SBIN;
     1091      294
     1092      295    1      DAT.SECS=TIME;

    295  3 000002   200004 470500                    LDP0    @TIME,,AUTO
         3 000003   000000 235100                    LDA     0,,PR0
         3 000004   200006 755100                    STA     DAT+1,,AUTO

     1093      296    1      IF DAT.SECS<0 THEN DAT.SECS=DAT.SECS+86400000; /* add a day for wrap */

    296  3 000005   000010 605000 3                  TPL     s:297

    296  3 000006   000000 236000 4                  LDQ     0
PL6.E3A0      #002=REPORT_TIME File=TCF$FTPDCMD.:TCA2TSI                         SUN 11/16/97 14:17 Page:219
         3 000007   200006 056100                    ASQ     DAT+1,,AUTO

     1094      297    1      DAT.SECS=(DAT.SECS+50)/100;          /* time in tenths */

    297  3 000010   200006 236100                    LDQ     DAT+1,,AUTO
         3 000011   000062 036007                    ADLQ    50,DL
         3 000012   000144 506007                    DIV     100,DL
         3 000013   200006 756100                    STQ     DAT+1,,AUTO

     1095      298    1      IF DAT.SECS=0 THEN DAT.SECS=DAT.SECS+1;

    298  3 000014   000000 116003                    CMPQ    0,DU
         3 000015   000017 601000 3                  TNZ     s:299

    298  3 000016   200006 054100                    AOS     DAT+1,,AUTO

     1096      299    1      DAT.BYTES=BYTES;

    299  3 000017   200003 471500                    LDP1    @BYTES,,AUTO
         3 000020   100000 235100                    LDA     0,,PR1
         3 000021   200005 755100                    STA     DAT,,AUTO

     1097      300    1      DAT.BPS=(DAT.BYTES+9)/10/DAT.SECS;

    300  3 000022   200005 236100                    LDQ     DAT,,AUTO
         3 000023   000011 036007                    ADLQ    9,DL
         3 000024   000012 506007                    DIV     10,DL
         3 000025   200006 506100                    DIV     DAT+1,,AUTO
         3 000026   200007 756100                    STQ     DAT+2,,AUTO

     1098      301    1      CALL X$WRITE (FDS, VECTOR(FMT), VECTOR(DAT));

    301  3 000027   000001 235000 4                  LDA     1
         3 000030   200010 452500                    STP2    DAT+3,,AUTO
         3 000031   200010 236100                    LDQ     DAT+3,,AUTO
         3 000032   000005 036003                    ADLQ    5,DU
         3 000033   200012 757100                    STAQ    DAT+5,,AUTO
PL6.E3A0      #002=REPORT_TIME File=TCF$FTPDCMD.:TCA2TSI                         SUN 11/16/97 14:17 Page:220
         3 000034   200012 633500                    EPPR3   DAT+5,,AUTO
         3 000035   200016 453500                    STP3    DAT+9,,AUTO
         3 000036   000004 237000 4                  LDAQ    4
         3 000037   200014 757100                    STAQ    DAT+7,,AUTO
         3 000040   200014 630500                    EPPR0   DAT+7,,AUTO
         3 000041   000021 631400 xsym               EPPR1   B_VECTNIL+17
         3 000042   000000 701000 xent               TSX1    X$WRITE
         3 000043   000000 011000                    NOP     0

     1099      302
     1100      303    1      RETURN;

    303  3 000044   000000 702200 xent               TSX2  ! X66_ARET

FDS
 Sect OctLoc
   0     000   000000 177640   000000 006014   000000 000000   000000 000000    ................
   0     004   000000 000000   000073 777640   000036 006000   000000 000001    .....;..........
   0     010   000000 000000   000000 000000   000000 006014   000000 101500    ..............A.
   0     014   000000 000000   000000 000000   000000 000001   000000 000012    ................
   0     020   000000 000000   ****** ******   ****** ******   000000 000000    ................
   0     024   000000 000000   000000 000000   000000 000000   000000 006014    ................
   0     030   000000 006014   000000 006014   000000 006014   000000 000000    ................
   0     034   000000 000000   000000 000000                                    ........

FDSBUF
 Sect OctLoc
   0     036   ****** ******   ****** ******   ****** ******   ****** ******    ................

FMT
 Sect OctLoc
   1     000   045104 040142   171164 145163   040164 162141   156163 146145    %D bytes transfe
   1     004   162162 145144   040151 156040   045116 075045   056043 072061    rred in %N=%.#:1
   1     010   060057 113104   056045 061056   043113 104040   163145 143157    0/KD.%1.#KD seco
   1     014   156144 163040   050045 116075   045056 043072   061060 057113    nds (%N=%.#:10/K
   1     020   104045 043072   062060 060057   133056 045061   056043 113104    D%#:200/[.%1.#KD
   1     024   045135 040113   142171 164145   163057 163051                    %] Kbytes/s)
PL6.E3A0      #002=REPORT_TIME File=TCF$FTPDCMD.:TCA2TSI                         SUN 11/16/97 14:17 Page:221

(unnamed)
 Sect OctLoc
   4     000   000511 456000   000002 777640   000026 777640   000000 006000    ................
   4     004   000000 006000   000002 006000                                    ........
     1101      304    1   END REPORT_TIME;

PL6.E3A0      #002=REPORT_TIME File=TCF$FTPDCMD.:TCA2TSI                         SUN 11/16/97 14:17 Page:222
--  Include file information  --

   XU_FORMAT_C.:LIBRARY  is referenced.
   B$JIT_C.:E05TOU  was found in the system file and is never referenced.
   CP_6_C.:E05TOU  was found in the system file and is never referenced.
      No diagnostics issued in procedure REPORT_TIME.
PL6.E3A0      #002=REPORT_TIME File=TCF$FTPDCMD.:TCA2TSI                         SUN 11/16/97 14:17 Page:223

 **** Variables and constants ****

  ****  Section 000  Data  REPORT_TIME

  ****  Scalars and arrays  ****
OctLoc.c.b A Datatyp(siz) R M Lvl/name                 OctLoc.c.b A Datatyp(siz) R M Lvl/name

     0-0-0/w STRC(1080)  r     1 FDS                       36-0-0/c CHAR(240)   r     1 FDSBUF

  ****  Section 001 RoData REPORT_TIME

  ****  Scalars and arrays  ****
OctLoc.c.b A Datatyp(siz) R M Lvl/name                 OctLoc.c.b A Datatyp(siz) R M Lvl/name

     0-0-0/c CHAR(92)    r     1 FMT

  ****  Auto variables  ****

  ****  Scalars and arrays  ****
OctLoc.c.b A Datatyp(siz) R M Lvl/name                 OctLoc.c.b A Datatyp(siz) R M Lvl/name

     3-0-0/w PTR         r     1 @BYTES                     4-0-0/w PTR         r     1 @TIME
    *0-0-0/w SBIN        r     1 BYTES                      5-0-0/w STRC(108)   r     1 DAT
    *0-0-0/w SBIN        r     1 TIME

  ****  BASED and DCB variables  ****

  ****  Scalars and arrays  ****
OctLoc.c.b A Datatyp(siz) R M Lvl/name                 OctLoc.c.b A Datatyp(siz) R M Lvl/name

     0-0-0N  NULL        r     1 M$LO


   Procedure REPORT_TIME requires 37 words for executable code.
   Procedure REPORT_TIME requires 16 words of local(AUTO) storage.
PL6.E3A0      #002=REPORT_TIME File=TCF$FTPDCMD.:TCA2TSI                         SUN 11/16/97 14:17 Page:224

    No errors detected in file TCF$FTPDCMD.:TCA2TSI    .
PL6.E3A0      #002=REPORT_TIME File=TCF$FTPDCMD.:TCA2TSI                         SUN 11/16/97 14:17 Page:225
          *** CROSS REFERENCE LISTING ***
**     DENOTES     IDENTIFIER DEFINITION
<<                 IDENTIFIER'S VALUE SET
>>                 IDENTIFIER'S VALUE USED
<>                 IDENTIFIER SET AND/OR USED
--                 IDENTIFIER REFERENCED
PL6.E3A0      #002=REPORT_TIME File=TCF$FTPDCMD.:TCA2TSI                         SUN 11/16/97 14:17 Page:226
          MINI XREF LISTING

BYTES
         7**DCL         6--PROC      299>>ASSIGN
DAT
       290**DCL       301--CALL
DAT.BPS
       293**DCL       300<<ASSIGN
DAT.BYTES
       291**DCL       299<<ASSIGN    300>>ASSIGN
DAT.SECS
       292**DCL       295<<ASSIGN    296>>IF        296<<ASSIGN    296>>ASSIGN    297<<ASSIGN    297>>ASSIGN
       298>>IF        298<<ASSIGN    298>>ASSIGN    300>>ASSIGN
FDS
       186**DCL       301<>CALL
FDSBUF
       285**DCL       204--DCLINIT   206--DCLINIT
FMT
       286**DCL       301--CALL
TIME
         8**DCL         6--PROC      295>>ASSIGN
X$WRITE
         9**DCL-ENT   301--CALL
PL6.E3A0      #002=REPORT_TIME File=TCF$FTPDCMD.:TCA2TSI                         SUN 11/16/97 14:17 Page:227
              *** CROSS REFERENCE LISTING ***
    **     DENOTES     IDENTIFIER DEFINITION
    <<                 IDENTIFIER'S VALUE SET
    >>                 IDENTIFIER'S VALUE USED
    <>                 IDENTIFIER SET AND/OR USED
    --                 IDENTIFIER REFERENCED
PL6.E3A0      #002=REPORT_TIME File=TCF$FTPDCMD.:TCA2TSI                         SUN 11/16/97 14:17 Page:228
              MINI UREF LISTING

M$LO     289**DCL
REPORT_TIME       6**PROC
