PL6.E3A0      #007=TCM$ALEX_XCON File=TCM$ALEX2.:TCA2TSI                         SUN 11/16/97 14:20 Page:208
      803        1        /*T***********************************************************/
      804        2        /*T*                                                         */
      805        3        /*T* Copyright (c) Bull HN Information Systems Inc., 1997    */
      806        4        /*T*                                                         */
      807        5        /*T***********************************************************/
      808        6        TCM$ALEX_XCON: PROC ASYNC;
      809        7        %include B_ERRORS_C;
      810     1134        %include CP_6;
      811     1215        %B$TCB (STCLASS="BASED(B$TCB$)");
      812     1218        %B$XCON;
      813     1228    1   dcl M$DO dcb;
      814     1229    1   dcl ERRMSG_BUF  char(120) static;
      815     1230        %FPT_ERRMSG( FPTN=REPORT_XCON, BUF=ERRMSG_BUF, OUTDCB1=M$DO, SOURCE=TRAP, RESULTS=
              1230            VLR_ERRMSG);
      816     1257        %VLR_ERRMSG;
      817     1279    1   dcl B$TCB$ ptr symref readonly;
      818     1280    1   dcl TCM_CONNECTED bit(1) symref;
      819     1281    1   dcl DISCONNECT_OCCURRED bit(1);
      820     1282    1   dcl TCM_ALEX_BAILOUT remember symref;
      821     1283    1   dcl TCM_ALEX_BAILOUT_ENABLED redef TCM_ALEX_BAILOUT bit(72);
      822     1284    1   dcl TCM$ALEX_DISCONNECT entry altret;
      823     1285    2        call M$ERRMSG (REPORT_XCON) whenaltreturn do; end;
      824     1286    2        if B$TCB.STK$->B$XCON.ERR.ERR# = %E$LDSC /* disconnect */ then do;
      825     1287    2             TCM_CONNECTED = '0'B;
      826     1288    2             DISCONNECT_OCCURRED = '1'B;
      827     1289    2           end;
      828     1290    1        else DISCONNECT_OCCURRED = '0'B;
      829     1291    1        call TCM$ALEX_DISCONNECT;
      830     1292    1        if TCM_ALEX_BAILOUT_ENABLED and DISCONNECT_OCCURRED
      831     1293    1        then unwind to TCM_ALEX_BAILOUT;
      832     1294    1        call M$EXIT;
      833     1295    1   END TCM$ALEX_XCON;
      834     1296        %EOD;

PL6.E3A0      #007=TCM$ALEX_XCON File=TCM$ALEX2.:TCA2TSI                         SUN 11/16/97 14:20 Page:209
--  Include file information  --

   CP_6.:LIBRARY  cannot be made into a system file and is referenced.
   B_ERRORS_C.:LIBRARY  is referenced.
   B$JIT_C.:E05TOU  was found in the system file and is never referenced.
   CP_6_C.:E05TOU  was found in the system file and is referenced.
      No diagnostics issued in procedure TCM$ALEX_XCON.

   Procedure TCM$ALEX_XCON requires 32 words for executable code.
   Procedure TCM$ALEX_XCON requires 4 words of local(AUTO) storage.

PL6.E3A0      #007=TCM$ALEX_XCON File=TCM$ALEX2.:TCA2TSI                         SUN 11/16/97 14:20 Page:210

 Object Unit name= TCM$ALEX_XCON                              File name= TCM$ALEX2.:TCA2TOU
 UTS= NOV 16 '97 14:20:22.40 SUN                              Compiler= PL-6/E31         Sev=      00
 SharedLib= :SHARED_SYSTEM                                    Alt SharedLib=


    ****  Control sections  ****

 Sect   Type Bound  Init  Size OctSiz  Section name(segment info)
    0   DCB   even  none     0      0  M$UC
    1   DCB   even  none     0      0  M$DO
    2   Data  even  none    60     74  TCM$ALEX_XCON
    3   Proc  even  none    32     40  TCM$ALEX_XCON
    4  RoData even  none     2      2  TCM$ALEX_XCON

    ****  Entry defs  ****

                              Check   Calling
                             calling  sequence
  Sect OctLoc Primary Altret sequence   type   Parms  Name
     3      0   yes            yes     Async       0  TCM$ALEX_XCON

  ****  Entry refs  ****

         Check        Calling
        calling       sequence
Altret sequence SRef   type   Args  Name
 yes     yes           Std       0 TCM$ALEX_DISCONNECT
                       nStd      0 X66_AAUTO
                       Std       0 B_CONSPOOL_D
                       nStd      0 X66_AAUNWIND
                       nStd      0 X66_AARET
PL6.E3A0      #007=TCM$ALEX_XCON File=TCM$ALEX2.:TCA2TSI                         SUN 11/16/97 14:20 Page:211

  ****  Data refs  ****

  Flags:  r = read only, s = secondary
Flgs Name                             Flgs Name                             Flgs Name
     M$UC                                  M$DO                             r    B$TCB$
     TCM_CONNECTED                         TCM_ALEX_BAILOUT                      B_VECTNIL

  ****  Segment refs  ****

  Flags:  r = read only, s = secondary
Flgs Name                             Flgs Name                             Flgs Name
     ISSID                                 NULLSID
PL6.E3A0      #007=TCM$ALEX_XCON File=TCM$ALEX2.:TCA2TSI                         SUN 11/16/97 14:20 Page:212


      803        1        /*T***********************************************************/
      804        2        /*T*                                                         */
      805        3        /*T* Copyright (c) Bull HN Information Systems Inc., 1997    */
      806        4        /*T*                                                         */
      807        5        /*T***********************************************************/
      808        6        TCM$ALEX_XCON: PROC ASYNC;

      6  3 000000   000000 700200 xent  TCM$ALEX_XC* TSX0  ! X66_AAUTO
         3 000001   000004 000000                    ZERO    4,0

      809        7        %include B_ERRORS_C;
      810     1134        %include CP_6;
      811     1215        %B$TCB (STCLASS="BASED(B$TCB$)");
      812     1218        %B$XCON;
      813     1228    1   dcl M$DO dcb;
      814     1229    1   dcl ERRMSG_BUF  char(120) static;
      815     1230        %FPT_ERRMSG( FPTN=REPORT_XCON, BUF=ERRMSG_BUF, OUTDCB1=M$DO, SOURCE=TRAP, RESULTS=
              1230            VLR_ERRMSG);
      816     1257        %VLR_ERRMSG;
      817     1279    1   dcl B$TCB$ ptr symref readonly;
      818     1280    1   dcl TCM_CONNECTED bit(1) symref;
      819     1281    1   dcl DISCONNECT_OCCURRED bit(1);
      820     1282    1   dcl TCM_ALEX_BAILOUT remember symref;
      821     1283    1   dcl TCM_ALEX_BAILOUT_ENABLED redef TCM_ALEX_BAILOUT bit(72);
      822     1284    1   dcl TCM$ALEX_DISCONNECT entry altret;
      823     1285    2        call M$ERRMSG (REPORT_XCON) whenaltreturn do; end;

   1285  3 000002   000036 630400 2                  EPPR0   REPORT_XCON
         3 000003   420000 713400                    CLIMB   alt,+8192
         3 000004   405000 401760                    pmme    nvectors=11
         3 000005   000007 702000 3                  TSX2    s:1286
         3 000006   000007 710000 3                  TRA     s:1286

      824     1286    2        if B$TCB.STK$->B$XCON.ERR.ERR# = %E$LDSC /* disconnect */ then do;

   1286  3 000007   000000 470400 xsym               LDP0    B$TCB$
PL6.E3A0      #007=TCM$ALEX_XCON File=TCM$ALEX2.:TCA2TSI                         SUN 11/16/97 14:20 Page:213
         3 000010   000001 471500                    LDP1    1,,PR0
         3 000011   100102 236100                    LDQ     66,,PR1
         3 000012   377770 376007                    ANQ     131064,DL
         3 000013   000140 116007                    CMPQ    96,DL
         3 000014   000021 601000 3                  TNZ     s:1290

      825     1287    2             TCM_CONNECTED = '0'B;

   1287  3 000015   000000 450000 xsym               STZ     TCM_CONNECTED

      826     1288    2             DISCONNECT_OCCURRED = '1'B;

   1288  3 000016   400000 236003                    LDQ     -131072,DU
         3 000017   200003 756100                    STQ     DISCONNECT_OCCURRED,,AUTO

      827     1289    2           end;

   1289  3 000020   000022 710000 3                  TRA     s:1291

      828     1290    1        else DISCONNECT_OCCURRED = '0'B;

   1290  3 000021   200003 450100                    STZ     DISCONNECT_OCCURRED,,AUTO

      829     1291    1        call TCM$ALEX_DISCONNECT;

   1291  3 000022   000002 631400 xsym               EPPR1   B_VECTNIL+2
         3 000023   000000 701000 xent               TSX1    TCM$ALEX_DISCONNECT
         3 000024   000000 011000                    NOP     0

      830     1292    1        if TCM_ALEX_BAILOUT_ENABLED and DISCONNECT_OCCURRED

   1292  3 000025   000000 237000 xsym               LDAQ    TCM_ALEX_BAILOUT
         3 000026   000000 117000 4                  CMPAQ   0
         3 000027   000035 600000 3                  TZE     s:1294
         3 000030   200003 234100                    SZN     DISCONNECT_OCCURRED,,AUTO
         3 000031   000035 605000 3                  TPL     s:1294

PL6.E3A0      #007=TCM$ALEX_XCON File=TCM$ALEX2.:TCA2TSI                         SUN 11/16/97 14:20 Page:214
      831     1293    1        then unwind to TCM_ALEX_BAILOUT;

   1293  3 000032   000000 237200 xsym               LDAQ  ! TCM_ALEX_BAILOUT
         3 000033   000000 700200 xent               TSX0  ! X66_AAUNWIND
         3 000034   000000 000200                    ZERO    0,128

      832     1294    1        call M$EXIT;

   1294  3 000035   000001 713400                    CLIMB   exit
         3 000036   000000 401760                    pmme    nvectors=0

      833     1295    1   END TCM$ALEX_XCON;

   1295  3 000037   000000 702200 xent               TSX2  ! X66_AARET

ERRMSG_BUF
 Sect OctLoc
   2     000   ****** ******   ****** ******   ****** ******   ****** ******    ................

REPORT_XCON
 Sect OctLoc
   2     036   000003 777640   000064 006000   000000 177640   000000 006014    .....4..........
   2     042   000035 777640   000000 006000   000000 177640   000000 006014    ................
   2     046   000000 177640   000000 006014   000000 177640   000000 006014    ................
   2     056*  000000 177640   000000 006014   000003 777640   000070 006000    .............8..
   2     062   000000 177640   000000 006014   000000 000000   000000 000000    ................
   2     066   375000 070001   040000 000000                                    ..8. ...

VLR_ERRMSG
 Sect OctLoc
   2     070   00000* ***000   000000 000000   000000 000000   ****** ******    ................

(unnamed)
 Sect OctLoc
   4     000   000000 000000   000000 000000                                    ........
      834     1296        %EOD;

PL6.E3A0      #007=TCM$ALEX_XCON File=TCM$ALEX2.:TCA2TSI                         SUN 11/16/97 14:20 Page:215
--  Include file information  --

   CP_6.:LIBRARY  cannot be made into a system file and is referenced.
   B_ERRORS_C.:LIBRARY  is referenced.
   B$JIT_C.:E05TOU  was found in the system file and is never referenced.
   CP_6_C.:E05TOU  was found in the system file and is referenced.
      No diagnostics issued in procedure TCM$ALEX_XCON.
PL6.E3A0      #007=TCM$ALEX_XCON File=TCM$ALEX2.:TCA2TSI                         SUN 11/16/97 14:20 Page:216

 **** Variables and constants ****

  ****  Section 002  Data  TCM$ALEX_XCON

  ****  Scalars and arrays  ****
OctLoc.c.b A Datatyp(siz) R M Lvl/name                 OctLoc.c.b A Datatyp(siz) R M Lvl/name

     0-0-0/c CHAR(120)   r     1 ERRMSG_BUF                36-0-0/d STRC(936)   r     1 REPORT_XCON
    70-0-0/d STRC(144)   r     1 VLR_ERRMSG

  ****  Auto variables  ****

  ****  Scalars and arrays  ****
OctLoc.c.b A Datatyp(siz) R M Lvl/name                 OctLoc.c.b A Datatyp(siz) R M Lvl/name

     3-0-0/b BIT         r     1 DISCONNECT_OCCURRED

  ****  SYMREF variables  ****

  ****  Scalars and arrays  ****
OctLoc.c.b A Datatyp(siz) R M Lvl/name                 OctLoc.c.b A Datatyp(siz) R M Lvl/name

     0-0-0/w PTR         r     1 B$TCB$                     0-0-0/d REMB        r     1 TCM_ALEX_BAILOUT
     0-0-0/d BIT (72)    r     1 TCM_ALEX_BAILOUT_ENABLED
     0-0-0/b BIT         r     1 TCM_CONNECTED

  ****  BASED and DCB variables  ****

  ****  Scalars and arrays  ****
OctLoc.c.b A Datatyp(siz) R M Lvl/name                 OctLoc.c.b A Datatyp(siz) R M Lvl/name

     0-0-0/w STRC(144)   r     1 B$TCB                      0-0-0/w STRC(2448)  r     1 B$XCON
     0-0-0N  NULL        r     1 M$DO


   Procedure TCM$ALEX_XCON requires 32 words for executable code.
PL6.E3A0      #007=TCM$ALEX_XCON File=TCM$ALEX2.:TCA2TSI                         SUN 11/16/97 14:20 Page:217
   Procedure TCM$ALEX_XCON requires 4 words of local(AUTO) storage.
PL6.E3A0      #007=TCM$ALEX_XCON File=TCM$ALEX2.:TCA2TSI                         SUN 11/16/97 14:20 Page:218
          *** CROSS REFERENCE LISTING ***
**     DENOTES     IDENTIFIER DEFINITION
<<                 IDENTIFIER'S VALUE SET
>>                 IDENTIFIER'S VALUE USED
<>                 IDENTIFIER SET AND/OR USED
--                 IDENTIFIER REFERENCED
PL6.E3A0      #007=TCM$ALEX_XCON File=TCM$ALEX2.:TCA2TSI                         SUN 11/16/97 14:20 Page:219
          MINI XREF LISTING

B$TCB.STK$
      1216**DCL      1286>>IF
B$TCB$
      1279**DCL      1216--IMP-PTR  1286>>IF
B$XCON.ERR.ERR#
      1225**DCL      1225--REDEF    1286>>IF
B$XCON.LIMIT.MEM
      1223**DCL      1223--REDEF
DISCONNECT_OCCURRED
      1281**DCL      1288<<ASSIGN   1290<<ASSIGN   1292>>IF
ERRMSG_BUF
      1229**DCL      1242--DCLINIT
M$ERRMSG
      1206**DCL-ENT  1285--CALL
M$EXIT
      1155**DCL-ENT  1294--CALL
REPORT_XCON
      1241**DCL      1285<>CALL
REPORT_XCON.V
      1245**DCL      1241--DCLINIT
TCM$ALEX_DISCONNECT
      1284**DCL-ENT  1291--CALL
TCM_ALEX_BAILOUT
      1282**DCL      1283--REDEF    1293>>UNWIND
TCM_ALEX_BAILOUT_ENABLED
      1283**DCL      1292>>IF
TCM_CONNECTED
      1280**DCL      1287<<ASSIGN
VLR_ERRMSG
      1268**DCL      1245--DCLINIT
PL6.E3A0      #007=TCM$ALEX_XCON File=TCM$ALEX2.:TCA2TSI                         SUN 11/16/97 14:20 Page:220
              *** CROSS REFERENCE LISTING ***
    **     DENOTES     IDENTIFIER DEFINITION
    <<                 IDENTIFIER'S VALUE SET
    >>                 IDENTIFIER'S VALUE USED
    <>                 IDENTIFIER SET AND/OR USED
    --                 IDENTIFIER REFERENCED
PL6.E3A0      #007=TCM$ALEX_XCON File=TCM$ALEX2.:TCA2TSI                         SUN 11/16/97 14:20 Page:221
              MINI UREF LISTING

M$ACCT    1160**DCL-ENT
M$ACTIVATE    1163**DCL-ENT
M$ALIB    1156**DCL-ENT
M$ASUSER    1158**DCL-ENT
M$ATTACH    1165**DCL-ENT
M$BADPP    1183**DCL-ENT
M$CGCTL    1164**DCL-ENT
M$CGINFO    1164**DCL-ENT
M$CHECK    1145**DCL-ENT
M$CHGUNIT    1203**DCL-ENT
M$CLOSE    1143**DCL-ENT
M$CLRSTK    1201**DCL-ENT
M$CMDVAR    1212**DCL-ENT
M$CONFIG    1173**DCL-ENT
M$CORRES    1148**DCL-ENT
M$CPEXIT    1157**DCL-ENT
M$CVM    1181**DCL-ENT
M$CVOL    1146**DCL-ENT
M$DCLFLD    1173**DCL-ENT
M$DEACTIVATE    1163**DCL-ENT
M$DELREC    1145**DCL-ENT
M$DEQ    1210**DCL-ENT
M$DETACH    1165**DCL-ENT
M$DEVICE    1147**DCL-ENT
M$DISPLAY    1210**DCL-ENT
M$DISPRES    1150**DCL-ENT
M$DLIB    1156**DCL-ENT
M$DO    1228**DCL
M$DRIBBLE    1173**DCL-ENT
M$DRTN    1201**DCL-ENT
M$DSUSER    1158**DCL-ENT
M$ENQ    1209**DCL-ENT
PL6.E3A0      #007=TCM$ALEX_XCON File=TCM$ALEX2.:TCA2TSI                         SUN 11/16/97 14:20 Page:222
M$EOM    1168**DCL-ENT
M$ERASE    1174**DCL-ENT
M$ERR    1155**DCL-ENT
M$EVENT    1198**DCL-ENT
M$EXHUME    1207**DCL-ENT
M$EXTEND    1147**DCL-ENT
M$FDP    1179**DCL-ENT
M$FDS    1178**DCL-ENT
M$FEBOOT    1171**DCL-ENT
M$FECTL    1172**DCL-ENT
M$FEDUMP    1171**DCL-ENT
M$FID    1206**DCL-ENT
M$FINDPROC    1160**DCL-ENT
M$FSUSER    1158**DCL-ENT
M$FVP    1180**DCL-ENT
M$FWCG    1164**DCL-ENT
M$GBPL    1184**DCL-ENT
M$GDDL    1180**DCL-ENT
M$GDP    1179**DCL-ENT
M$GDS    1178**DCL-ENT
M$GETDCB    1149**DCL-ENT
M$GETMOUSE    1189**DCL-ENT
M$GETPM    1190**DCL-ENT
M$GJOB    1208**DCL-ENT
M$GLINEATTR    1168**DCL-ENT
M$GOODPP    1183**DCL-ENT
M$GPLATEN    1176**DCL-ENT
M$GPROMPT    1175**DCL-ENT
M$GTRMATTR    1169**DCL-ENT
M$GTRMCTL    1167**DCL-ENT
M$GTRMTAB    1170**DCL-ENT
M$GVP    1179**DCL-ENT
M$HELP    1206**DCL-ENT
M$INT    1198**DCL-ENT
M$INTRTN    1159**DCL-ENT
M$IOQ    1194**DCL-ENT
PL6.E3A0      #007=TCM$ALEX_XCON File=TCM$ALEX2.:TCA2TSI                         SUN 11/16/97 14:20 Page:223
M$JOBSTATS    1208**DCL-ENT
M$KEYIN    1148**DCL-ENT
M$LDEV    1143**DCL-ENT
M$LDTRC    1156**DCL-ENT
M$LIMIT    1149**DCL-ENT
M$LINES    1148**DCL-ENT
M$LINK    1155**DCL-ENT
M$MADMUCK    1151**DCL-ENT
M$MAKUSER    1182**DCL-ENT
M$MBS    1150**DCL-ENT
M$MDFFLD    1174**DCL-ENT
M$MERC    1199**DCL-ENT
M$MERCS    1200**DCL-ENT
M$MIRROR    1194**DCL-ENT
M$MONINFO    1211**DCL-ENT
M$MPL    1184**DCL-ENT
M$NODEINFO    1175**DCL-ENT
M$NXTUSR    1209**DCL-ENT
M$OCMSG    1207**DCL-ENT
M$OLAY    1155**DCL-ENT
M$OPEN    1143**DCL-ENT
M$PAS    1184**DCL-ENT
M$PATHCON    1207**DCL-ENT
M$PDS    1178**DCL-ENT
M$PFIL    1145**DCL-ENT
M$PLATEN    1169**DCL-ENT
M$PRECORD    1147**DCL-ENT
M$PROCNAME    1160**DCL-ENT
M$PROFILE    1171**DCL-ENT
M$PROMPT    1167**DCL-ENT
M$RACST    1151**DCL-ENT
M$RDSYSLOG    1192**DCL-ENT
M$READ    1144**DCL-ENT
M$RELDCB    1149**DCL-ENT
M$RELRES    1150**DCL-ENT
M$RELSTARF    1152**DCL-ENT
PL6.E3A0      #007=TCM$ALEX_XCON File=TCM$ALEX2.:TCA2TSI                         SUN 11/16/97 14:20 Page:224
M$REM    1152**DCL-ENT
M$RENV    1199**DCL-ENT
M$REQUIRE    1151**DCL-ENT
M$RETRY    1200**DCL-ENT
M$RETRYS    1200**DCL-ENT
M$REW    1146**DCL-ENT
M$RLSFLD    1174**DCL-ENT
M$RPRIV    1202**DCL-ENT
M$RSPP    1181**DCL-ENT
M$RSWITCH    1203**DCL-ENT
M$RUE    1209**DCL-ENT
M$SAD    1182**DCL-ENT
M$SAVE    1158**DCL-ENT
M$SCON    1159**DCL-ENT
M$SCREECH    1157**DCL-ENT
M$SENV    1199**DCL-ENT
M$SETFMA    1143**DCL-ENT
M$SETFP    1172**DCL-ENT
M$SINPUT    1170**DCL-ENT
M$SLCFLD    1175**DCL-ENT
M$SMOUSE    1189**DCL-ENT
M$SMPRT    1181**DCL-ENT
M$SPRIV    1202**DCL-ENT
M$SSC    1182**DCL-ENT
M$SSWITCH    1202**DCL-ENT
M$STATE    1211**DCL-ENT
M$STD    1183**DCL-ENT
M$STIMER    1197**DCL-ENT
M$STLPP    1180**DCL-ENT
M$STRAP    1197**DCL-ENT
M$STRMATTR    1169**DCL-ENT
M$STRMCTL    1167**DCL-ENT
M$STRMTAB    1170**DCL-ENT
M$SYMBIO    1208**DCL-ENT
M$SYSCON    1194**DCL-ENT
M$SYSID    1212**DCL-ENT
PL6.E3A0      #007=TCM$ALEX_XCON File=TCM$ALEX2.:TCA2TSI                         SUN 11/16/97 14:20 Page:225
M$TDCLOSE    1193**DCL-ENT
M$TDIO    1193**DCL-ENT
M$TDOPEN    1192**DCL-ENT
M$TDREQCPU    1193**DCL-ENT
M$TEMPWROC    1187**DCL-ENT
M$TIME    1210**DCL-ENT
M$TRAP    1197**DCL-ENT
M$TRMISC    1172**DCL-ENT
M$TRMPRG    1168**DCL-ENT
M$TRTN    1201**DCL-ENT
M$TRUNC    1144**DCL-ENT
M$TTIMER    1197**DCL-ENT
M$UC    1167**DCL
M$UMPL    1184**DCL-ENT
M$UNFID    1206**DCL-ENT
M$UNLATCH    1163**DCL-ENT
M$UNSHARE    1160**DCL-ENT
M$USRFIELD    1203**DCL-ENT
M$VIRTUAL    1178**DCL-ENT
M$WAIT    1201**DCL-ENT
M$WEOF    1146**DCL-ENT
M$WRITE    1144**DCL-ENT
M$WRSYSLOG    1192**DCL-ENT
M$XCON    1198**DCL-ENT
M$XCONRTN    1159**DCL-ENT
M$XEQTIME    1211**DCL-ENT
M$XFLUSH    1152**DCL-ENT
M$XMOUSE    1189**DCL-ENT
M$XXX    1155**DCL-ENT
M$YC    1157**DCL-ENT
TCM$ALEX_XCON       6**PROC

PL6.E3A0      #008=TCM$ALEX_DISCONNECT File=TCM$ALEX2.:TCA2TSI                   SUN 11/16/97 14:20 Page:226
      835        1        /*T***********************************************************/
      836        2        /*T*                                                         */
      837        3        /*T* Copyright (c) Bull HN Information Systems Inc., 1997    */
      838        4        /*T*                                                         */
      839        5        /*T***********************************************************/
      840        6        TCM$ALEX_DISCONNECT: PROC altret;
      841        7        %INCLUDE CP_6;
      842       88        %F$DCB;
      843      145    1   dcl TCM_EXEC bit(1) symref;
      844      146        %MACRO WRITEUO;
      845      147             call M$WRITE(TCM_WRITEUO) whenaltreturn do; end;
      846      148        %MEND;
      847      149        %FPT_WRITE(FPTN=TCM_WRITEUO,STCLASS=SYMREF);
      848      180    1   dcl TCM_UOBUF  char(256) symref;
      849      181    1   dcl TCM_USING_PAD bit(1) symref;
      850      182    1   dcl TCM_BLEN ubin symref;
      851      183    1   dcl TCM_SITE char(8) symref;
      852      184    1   dcl TCM_OUTREC char(332) symref;
      853      185    1   dcl TCM_WRITECGBUF char(256) symref;
      854      186    1   dcl TCM_CONNECTED bit(1) symref;
      855      187    1   dcl F$CG dcb;
      856      188        %FPT_WAIT (FPTN=WAIT5,UNITS=5);
      857      202        %FPT_CLOSE (FPTN=CLOSE_CG, DCB=F$CG, DISP=SAVE);
      858      244        %FPT_XCON (FPTN=RESTORE_EXIT_CONTROL, UENTRY=NIL);
      859      258    1   DCL TCM_XCON$ EPTR SYMREF;
      860      259        %FPT_ACTIVATE (FPTN=TCM_TURNON, DCB=F$CG, STATION=WRITE_STATION);
      861      282        %FPT_ACTIVATE (FPTN=DISCONNECT, DCB=F$CG, STATION=WRITE_STATION,
      862      283                       FLUSH=YES, DISCONNECT=YES);
      863      306        %VLP_STATION (FPTN=WRITE_STATION, STATION='MODEM');
      864      333        %FPT_FWCG (FPTN=TCM_DELETEMES, STCLASS=SYMREF);
      865      352    1   dcl TCM$ALEX_HANGUP entry altret;
      866      353    1        TCM_EXEC = '0'B;
      867      354    1        if dcbaddr(dcbnum(F$CG))->F$DCB.FCD# = '1'B then
      868      355    1   SHUTDOWN:
      869      356    2        do;
      870      357    2             if TCM_CONNECTED then
      871      358    2   HANGITUP:
PL6.E3A0      #008=TCM$ALEX_DISCONNECT File=TCM$ALEX2.:TCA2TSI                   SUN 11/16/97 14:20 Page:227
      872      359    3             do;
      873      360    3                  TCM_CONNECTED = '0'B;    /*  Don't re-enter this code. */
      874      361    4                  if not TCM_USING_PAD then do;
      875      362    4                       call TCM$ALEX_HANGUP
      876      363    5                       whenreturn do; exit HANGITUP; end;
      877      364    4                     end;
      878      365    3                  if TCM_USING_PAD
      879      366    3                  then TCM_UOBUF = 'Dropping DTR to disconnect PAD circuit.';
      880      367    3                  else TCM_UOBUF = 'Dropping DTR to disconnect modem.';
      881      368                       %WRITEUO;
      882      371    4                  call M$FWCG (TCM_DELETEMES) whenaltreturn do; end;
      883      372    3                  call M$DEACTIVATE(DISCONNECT);
      884      373    3                  TCM_UOBUF = 'Disconnected.';
      885      374                       %WRITEUO;
      886      377    3                end HANGITUP;
      887      378    3             call M$CLOSE(CLOSE_CG) whenaltreturn do; end;
      888      379    2           end SHUTDOWN;
      889      380    2        IF TCM_XCON$ ~= ENTADDR( NIL) THEN DO;
      890      381    2             RESTORE_EXIT_CONTROL.V.UENTRY# = TCM_XCON$;
      891      382    2             CALL M$XCON( RESTORE_EXIT_CONTROL);
      892      383    2           END;
      893      384    1        return;
      894      385    1   END TCM$ALEX_DISCONNECT;
      895      386        %EOD;

PL6.E3A0      #008=TCM$ALEX_DISCONNECT File=TCM$ALEX2.:TCA2TSI                   SUN 11/16/97 14:20 Page:228
--  Include file information  --

   CP_6.:LIBRARY  cannot be made into a system file and is referenced.
   B$JIT_C.:E05TOU  was found in the system file and is never referenced.
   CP_6_C.:E05TOU  was found in the system file and is referenced.
      No diagnostics issued in procedure TCM$ALEX_DISCONNECT.

   Procedure TCM$ALEX_DISCONNECT requires 62 words for executable code.
   Procedure TCM$ALEX_DISCONNECT requires 4 words of local(AUTO) storage.

PL6.E3A0      #008=TCM$ALEX_DISCONNECT File=TCM$ALEX2.:TCA2TSI                   SUN 11/16/97 14:20 Page:229

 Object Unit name= TCM$ALEX_DISCONNECT                        File name= TCM$ALEX2.:TCA2TOU
 UTS= NOV 16 '97 14:20:47.72 SUN                              Compiler= PL-6/E31         Sev=      00
 SharedLib= :SHARED_SYSTEM                                    Alt SharedLib=


    ****  Control sections  ****

 Sect   Type Bound  Init  Size OctSiz  Section name(segment info)
    0   DCB   even  none     0      0  M$UC
    1   DCB   even  none     0      0  F$CG
    2   Data  even  none    82    122  TCM$ALEX_DISCONNECT
    3  RoData even  UTS     23     27  TCM$ALEX_DISCONNECT
    4   Proc  even  none    62     76  TCM$ALEX_DISCONNECT
    5  RoData even  none     1      1  TCM$ALEX_DISCONNECT

    ****  Entry defs  ****

                              Check   Calling
                             calling  sequence
  Sect OctLoc Primary Altret sequence   type   Parms  Name
     4      0   yes    yes     yes      Std        0  TCM$ALEX_DISCONNECT

  ****  Entry refs  ****

         Check        Calling
        calling       sequence
Altret sequence SRef   type   Args  Name
 yes     yes           Std       0 TCM$ALEX_HANGUP
                       nStd      0 X66_AUTO_0
                       Std       0 B_CONSPOOL_D
                       nStd      0 X66_ARET
PL6.E3A0      #008=TCM$ALEX_DISCONNECT File=TCM$ALEX2.:TCA2TSI                   SUN 11/16/97 14:20 Page:230

  ****  Data refs  ****

  Flags:  r = read only, s = secondary
Flgs Name                             Flgs Name                             Flgs Name
     M$UC                                  TCM_EXEC                              TCM_WRITEUO
     TCM_UOBUF                             TCM_USING_PAD                         TCM_CONNECTED
     F$CG                                  TCM_XCON$                             TCM_DELETEMES
     B_VECTNIL

  ****  Segment refs  ****

  Flags:  r = read only, s = secondary
Flgs Name                             Flgs Name                             Flgs Name
     ISSID                                 NULLSID                               ROSID
PL6.E3A0      #008=TCM$ALEX_DISCONNECT File=TCM$ALEX2.:TCA2TSI                   SUN 11/16/97 14:20 Page:231


      835        1        /*T***********************************************************/
      836        2        /*T*                                                         */
      837        3        /*T* Copyright (c) Bull HN Information Systems Inc., 1997    */
      838        4        /*T*                                                         */
      839        5        /*T***********************************************************/
      840        6        TCM$ALEX_DISCONNECT: PROC altret;

      6  4 000000   000000 700200 xent  TCM$ALEX_DI* TSX0  ! X66_AUTO_0
         4 000001   000004 000000                    ZERO    4,0

      841        7        %INCLUDE CP_6;
      842       88        %F$DCB;
      843      145    1   dcl TCM_EXEC bit(1) symref;
      844      146        %MACRO WRITEUO;
      845      147             call M$WRITE(TCM_WRITEUO) whenaltreturn do; end;
      846      148        %MEND;
      847      149        %FPT_WRITE(FPTN=TCM_WRITEUO,STCLASS=SYMREF);
      848      180    1   dcl TCM_UOBUF  char(256) symref;
      849      181    1   dcl TCM_USING_PAD bit(1) symref;
      850      182    1   dcl TCM_BLEN ubin symref;
      851      183    1   dcl TCM_SITE char(8) symref;
      852      184    1   dcl TCM_OUTREC char(332) symref;
      853      185    1   dcl TCM_WRITECGBUF char(256) symref;
      854      186    1   dcl TCM_CONNECTED bit(1) symref;
      855      187    1   dcl F$CG dcb;
      856      188        %FPT_WAIT (FPTN=WAIT5,UNITS=5);
      857      202        %FPT_CLOSE (FPTN=CLOSE_CG, DCB=F$CG, DISP=SAVE);
      858      244        %FPT_XCON (FPTN=RESTORE_EXIT_CONTROL, UENTRY=NIL);
      859      258    1   DCL TCM_XCON$ EPTR SYMREF;
      860      259        %FPT_ACTIVATE (FPTN=TCM_TURNON, DCB=F$CG, STATION=WRITE_STATION);
      861      282        %FPT_ACTIVATE (FPTN=DISCONNECT, DCB=F$CG, STATION=WRITE_STATION,
      862      283                       FLUSH=YES, DISCONNECT=YES);
      863      306        %VLP_STATION (FPTN=WRITE_STATION, STATION='MODEM');
      864      333        %FPT_FWCG (FPTN=TCM_DELETEMES, STCLASS=SYMREF);
      865      352    1   dcl TCM$ALEX_HANGUP entry altret;
      866      353    1        TCM_EXEC = '0'B;
PL6.E3A0      #008=TCM$ALEX_DISCONNECT File=TCM$ALEX2.:TCA2TSI                   SUN 11/16/97 14:20 Page:232

    353  4 000002   000000 450000 xsym               STZ     TCM_EXEC

      867      354    1        if dcbaddr(dcbnum(F$CG))->F$DCB.FCD# = '1'B then

    354  4 000003   000000 236007 xsym               LDQ     F$CG,DL
         4 000004   000000 470400 5                  LDP0    0
         4 000005   000000 471500                    LDP1    0,,PR0
         4 000006   100000 473506                    LDP3    0,QL,PR1
         4 000007   300031 236100                    LDQ     25,,PR3
         4 000010   020000 316007                    CANQ    8192,DL
         4 000011   000066 600000 4                  TZE     s:380

      868      355    1   SHUTDOWN:
      869      356    2        do;

    356  4 000012                       SHUTDOWN     null
      870      357    2             if TCM_CONNECTED then

    357  4 000012   000000 234000 xsym               SZN     TCM_CONNECTED
         4 000013   000061 605000 4                  TPL     s:378

      871      358    2   HANGITUP:
      872      359    3             do;

    359  4 000014                       HANGITUP     null
      873      360    3                  TCM_CONNECTED = '0'B;    /*  Don't re-enter this code. */

    360  4 000014   000000 450000 xsym               STZ     TCM_CONNECTED

      874      361    4                  if not TCM_USING_PAD then do;

    361  4 000015   000000 234000 xsym               SZN     TCM_USING_PAD
         4 000016   000023 604000 4                  TMI     s:365

      875      362    4                       call TCM$ALEX_HANGUP

PL6.E3A0      #008=TCM$ALEX_DISCONNECT File=TCM$ALEX2.:TCA2TSI                   SUN 11/16/97 14:20 Page:233
    362  4 000017   000002 631400 xsym               EPPR1   B_VECTNIL+2
         4 000020   000000 701000 xent               TSX1    TCM$ALEX_HANGUP
         4 000021   000023 702000 4                  TSX2    s:365

      876      363    5                       whenreturn do; exit HANGITUP; end;

    363  4 000022   000061 710000 4                  TRA     s:378

      877      364    4                     end;

      878      365    3                  if TCM_USING_PAD

    365  4 000023   000000 234000 xsym               SZN     TCM_USING_PAD
         4 000024   000031 605000 4                  TPL     s:367

      879      366    3                  then TCM_UOBUF = 'Dropping DTR to disconnect PAD circuit.';

    366  4 000025   040000 100400                    MLR     fill='040'O
         4 000026   000000 000047 3                  ADSC9   0                        cn=0,n=39
         4 000027   000000 000400 xsym               ADSC9   TCM_UOBUF                cn=0,n=256
         4 000030   000034 710000 4                  TRA     s:369

      880      367    3                  else TCM_UOBUF = 'Dropping DTR to disconnect modem.';

    367  4 000031   040000 100400                    MLR     fill='040'O
         4 000032   000012 000041 3                  ADSC9   10                       cn=0,n=33
         4 000033   000000 000400 xsym               ADSC9   TCM_UOBUF                cn=0,n=256

      881      368                       %WRITEUO;

    369  4 000034   000000 630400 xsym               EPPR0   TCM_WRITEUO
         4 000035   440001 713400                    CLIMB   alt,write
         4 000036   401400 401760                    pmme    nvectors=4
         4 000037   000041 702000 4                  TSX2    s:371
         4 000040   000041 710000 4                  TRA     s:371

      882      371    4                  call M$FWCG (TCM_DELETEMES) whenaltreturn do; end;
PL6.E3A0      #008=TCM$ALEX_DISCONNECT File=TCM$ALEX2.:TCA2TSI                   SUN 11/16/97 14:20 Page:234

    371  4 000041   000000 630400 xsym               EPPR0   TCM_DELETEMES
         4 000042   500005 713400                    CLIMB   alt,+32773
         4 000043   406400 401760                    pmme    nvectors=14
         4 000044   000046 702000 4                  TSX2    s:372
         4 000045   000046 710000 4                  TRA     s:372

      883      372    3                  call M$DEACTIVATE(DISCONNECT);

    372  4 000046   000072 630400 2                  EPPR0   DISCONNECT
         4 000047   100001 713400                    CLIMB   32769
         4 000050   401400 401760                    pmme    nvectors=4

      884      373    3                  TCM_UOBUF = 'Disconnected.';

    373  4 000051   040000 100400                    MLR     fill='040'O
         4 000052   000023 000015 3                  ADSC9   19                       cn=0,n=13
         4 000053   000000 000400 xsym               ADSC9   TCM_UOBUF                cn=0,n=256

      885      374                       %WRITEUO;

    375  4 000054   000000 630400 xsym               EPPR0   TCM_WRITEUO
         4 000055   440001 713400                    CLIMB   alt,write
         4 000056   401400 401760                    pmme    nvectors=4
         4 000057   000061 702000 4                  TSX2    s:378
         4 000060   000061 710000 4                  TRA     s:378

      886      377    3                end HANGITUP;

      887      378    3             call M$CLOSE(CLOSE_CG) whenaltreturn do; end;

    378  4 000061   000006 630400 2                  EPPR0   CLOSE_CG
         4 000062   450001 713400                    CLIMB   alt,close
         4 000063   406000 401760                    pmme    nvectors=13
         4 000064   000066 702000 4                  TSX2    s:380
         4 000065   000066 710000 4                  TRA     s:380

PL6.E3A0      #008=TCM$ALEX_DISCONNECT File=TCM$ALEX2.:TCA2TSI                   SUN 11/16/97 14:20 Page:235
      888      379    2           end SHUTDOWN;

      889      380    2        IF TCM_XCON$ ~= ENTADDR( NIL) THEN DO;

    380  4 000066   000000 236000 xsym               LDQ     TCM_XCON$
         4 000067   000002 116000 xsym               CMPQ    B_VECTNIL+2
         4 000070   000075 600000 4                  TZE     s:384

      890      381    2             RESTORE_EXIT_CONTROL.V.UENTRY# = TCM_XCON$;

    381  4 000071   000050 756000 2                  STQ     RESTORE_EXIT_CONTROL+4

      891      382    2             CALL M$XCON( RESTORE_EXIT_CONTROL);

    382  4 000072   000044 630400 2                  EPPR0   RESTORE_EXIT_CONTROL
         4 000073   010003 713400                    CLIMB   4099
         4 000074   400400 401760                    pmme    nvectors=2

      892      383    2           END;

      893      384    1        return;

    384  4 000075   000000 702200 xent               TSX2  ! X66_ARET

WAIT5
 Sect OctLoc
   2     000   000001 777640   000004 006000   000000 177640   000000 006014    ................
   2     004   000000 000005   000000 000001                                    ........

CLOSE_CG
 Sect OctLoc
   2     006   000003 777640   000040 006000   000000 177640   000000 006014    ..... ..........
   2     012   000000 177640   000000 006014   000000 177640   000000 006014    ................
   2     036*  000000 177640   000000 006014   000000 000002   000000 000040    ...............
   2     042   000220 000000   000000 000000                                    ........

RESTORE_EXIT_CONTROL
PL6.E3A0      #008=TCM$ALEX_DISCONNECT File=TCM$ALEX2.:TCA2TSI                   SUN 11/16/97 14:20 Page:236
 Sect OctLoc
   2     044   000001 777640   000050 006000   000000 177640   000000 006014    .....(..........
   2     050   000000 000000   000000 000000                                    ........

TCM_TURNON
 Sect OctLoc
   2     052   000007 777640   000062 006000   000007 777640   000112 006000    .....2.......J..
   2     056   000000 177640   000000 006014   000000 177640   000000 006014    ................
   2     062   000000 000000   000000 000000   000000 000000   000000 000000    ................
   2     066   040040 040040   000000 000000   000000 000000   000000 000000        ............

DISCONNECT
 Sect OctLoc
   2     072   000007 777640   000102 006000   000007 777640   000112 006000    .....B.......J..
   2     076   000000 177640   000000 006014   000000 177640   000000 006014    ................
   2     102   000000 000000   000000 000000   600000 000000   000000 000000    ................
   2     106   040040 040040   000000 000000   000000 000000   000000 000000        ............

WRITE_STATION
 Sect OctLoc
   2     112   115117 104105   115040 040040   040040 040040   040040 040040    MODEM
   2     116   001000 000000   000000 000000   000000 000000   000000 000000    ................

(unnamed)
 Sect OctLoc
   3     000   104162 157160   160151 156147   040104 124122   040164 157040    Dropping DTR to
   3     004   144151 163143   157156 156145   143164 040120   101104 040143    disconnect PAD c
   3     010   151162 143165   151164 056040   104162 157160   160151 156147    ircuit. Dropping
   3     014   040104 124122   040164 157040   144151 163143   157156 156145     DTR to disconne
   3     020   143164 040155   157144 145155   056040 040040   104151 163143    ct modem.   Disc
   3     024   157156 156145   143164 145144   056040 040040                    onnected.

(unnamed)
 Sect OctLoc
   5     000   000000 006003                                                    ....
      894      385    1   END TCM$ALEX_DISCONNECT;
      895      386        %EOD;
PL6.E3A0      #008=TCM$ALEX_DISCONNECT File=TCM$ALEX2.:TCA2TSI                   SUN 11/16/97 14:20 Page:237

PL6.E3A0      #008=TCM$ALEX_DISCONNECT File=TCM$ALEX2.:TCA2TSI                   SUN 11/16/97 14:20 Page:238
--  Include file information  --

   CP_6.:LIBRARY  cannot be made into a system file and is referenced.
   B$JIT_C.:E05TOU  was found in the system file and is never referenced.
   CP_6_C.:E05TOU  was found in the system file and is referenced.
      No diagnostics issued in procedure TCM$ALEX_DISCONNECT.
PL6.E3A0      #008=TCM$ALEX_DISCONNECT File=TCM$ALEX2.:TCA2TSI                   SUN 11/16/97 14:20 Page:239

 **** Variables and constants ****

  ****  Section 002  Data  TCM$ALEX_DISCONNECT

  ****  Scalars and arrays  ****
OctLoc.c.b A Datatyp(siz) R M Lvl/name                 OctLoc.c.b A Datatyp(siz) R M Lvl/name

     6-0-0/d STRC(1080)  r     1 CLOSE_CG                  72-0-0/d STRC(576)   r     1 DISCONNECT
    44-0-0/d STRC(216)   r     1 RESTORE_EXIT_CONTROL      52-0-0/d STRC(576)   r     1 TCM_TURNON
     0-0-0/d STRC(216)   r     1 WAIT5                    112-0-0/w STRC(288)   r     1 WRITE_STATION

  ****  SYMREF variables  ****

  ****  Scalars and arrays  ****
OctLoc.c.b A Datatyp(siz) R M Lvl/name                 OctLoc.c.b A Datatyp(siz) R M Lvl/name

     0-0-0/b BIT         r     1 TCM_CONNECTED              0-0-0/d STRC(1512)  r     1 TCM_DELETEMES
     0-0-0/b BIT         r     1 TCM_EXEC                   0-0-0/c CHAR(256)   r     1 TCM_UOBUF
     0-0-0/b BIT         r     1 TCM_USING_PAD              0-0-0/d STRC(432)   r     1 TCM_WRITEUO
     0-0-0/w EPTR        r     1 TCM_XCON$

  ****  BASED and DCB variables  ****

  ****  Scalars and arrays  ****
OctLoc.c.b A Datatyp(siz) R M Lvl/name                 OctLoc.c.b A Datatyp(siz) R M Lvl/name

     0-0-0N  NULL        r     1 F$CG                       0-0-0/d ASTR(3528)  r     1 F$DCB


   Procedure TCM$ALEX_DISCONNECT requires 62 words for executable code.
   Procedure TCM$ALEX_DISCONNECT requires 4 words of local(AUTO) storage.
PL6.E3A0      #008=TCM$ALEX_DISCONNECT File=TCM$ALEX2.:TCA2TSI                   SUN 11/16/97 14:20 Page:240
          *** CROSS REFERENCE LISTING ***
**     DENOTES     IDENTIFIER DEFINITION
<<                 IDENTIFIER'S VALUE SET
>>                 IDENTIFIER'S VALUE USED
<>                 IDENTIFIER SET AND/OR USED
--                 IDENTIFIER REFERENCED
PL6.E3A0      #008=TCM$ALEX_DISCONNECT File=TCM$ALEX2.:TCA2TSI                   SUN 11/16/97 14:20 Page:241
          MINI XREF LISTING

CLOSE_CG
       225**DCL       378<>CALL
CLOSE_CG.SN_
       225**DCL       225--REDEF
CLOSE_CG.UTL_
       226**DCL       226--REDEF
CLOSE_CG.V
       230**DCL       225--DCLINIT
CLOSE_CG.V.EXPIRE#
       240**DCL       240--REDEF
CLOSE_CG.V.TYPE#
       238**DCL       238--REDEF
CLOSE_CG.V.XTNSIZE#
       235**DCL       235--REDEF     237--REDEF
DISCONNECT
       294**DCL       372<>CALL
DISCONNECT.V
       295**DCL       294--DCLINIT
DISCONNECT.V.DVBYTE.REREAD#
       297**DCL       297--REDEF
F$CG
       187**DCL       354--IF
F$DCB.ACTPOS
       121**DCL       121--REDEF
F$DCB.ARS#
        95**DCL        95--REDEF
F$DCB.ATTR
       114**DCL       115--REDEF
F$DCB.BORROW
       129**DCL       129--REDEF     129--REDEF     129--REDEF
F$DCB.DCBNAME.L
       143**DCL       143--IMP-SIZ
PL6.E3A0      #008=TCM$ALEX_DISCONNECT File=TCM$ALEX2.:TCA2TSI                   SUN 11/16/97 14:20 Page:242
F$DCB.EOMCHAR#
        99**DCL        99--REDEF
F$DCB.FCD#
       108**DCL       354>>IF
F$DCB.FLDID
       124**DCL       124--REDEF
F$DCB.FORM$
       118**DCL       118--REDEF
F$DCB.FSECT
       134**DCL       134--REDEF
F$DCB.FSN#
       111**DCL       111--REDEF     111--REDEF     112--REDEF
F$DCB.HEADER$
       117**DCL       117--REDEF
F$DCB.IXTNSIZE#
       115**DCL       115--REDEF
F$DCB.LASTSTA$
       104**DCL       104--REDEF
F$DCB.LVL
       130**DCL       130--REDEF
F$DCB.NAME#.C
       105**DCL       105--REDEF
F$DCB.NOEOF
       127**DCL       127--REDEF
F$DCB.NRECS#
       116**DCL       116--REDEF
F$DCB.NRECX
       135**DCL       135--REDEF
F$DCB.OHDR
       127**DCL       127--REDEF
F$DCB.ORG#
       110**DCL       110--REDEF
F$DCB.PRECNO
       133**DCL       133--REDEF
F$DCB.RCSZ
       139**DCL       139--REDEF
PL6.E3A0      #008=TCM$ALEX_DISCONNECT File=TCM$ALEX2.:TCA2TSI                   SUN 11/16/97 14:20 Page:243
F$DCB.RES#
       106**DCL       106--REDEF
F$DCB.SETX
       118**DCL       118--REDEF
F$DCB.TAB$
       118**DCL       118--REDEF
F$DCB.TDA
       132**DCL       133--REDEF
F$DCB.WSN#
       106**DCL       106--REDEF
HANGITUP
       359**LABEL     363--EXIT
M$CLOSE
        16**DCL-ENT   378--CALL
M$DEACTIVATE
        36**DCL-ENT   372--CALL
M$FWCG
        37**DCL-ENT   371--CALL
M$WRITE
        17**DCL-ENT   369--CALL      375--CALL
M$XCON
        71**DCL-ENT   382--CALL
RESTORE_EXIT_CONTROL
       255**DCL       382<>CALL
RESTORE_EXIT_CONTROL.V
       256**DCL       255--DCLINIT
RESTORE_EXIT_CONTROL.V.UENTRY#
       256**DCL       381<<ASSIGN
TCM$ALEX_HANGUP
       352**DCL-ENT   362--CALL
TCM_CONNECTED
       186**DCL       357>>IF        360<<ASSIGN
TCM_DELETEMES
       344**DCL       371<>CALL
TCM_EXEC
       145**DCL       353<<ASSIGN
PL6.E3A0      #008=TCM$ALEX_DISCONNECT File=TCM$ALEX2.:TCA2TSI                   SUN 11/16/97 14:20 Page:244
TCM_TURNON.V
       271**DCL       270--DCLINIT
TCM_TURNON.V.DVBYTE.REREAD#
       273**DCL       273--REDEF
TCM_UOBUF
       180**DCL       366<<ASSIGN    367<<ASSIGN    373<<ASSIGN
TCM_USING_PAD
       181**DCL       361>>IF        365>>IF
TCM_WRITEUO
       166**DCL       369<>CALL      375<>CALL
TCM_WRITEUO.STATION_
       168**DCL       168--REDEF
TCM_WRITEUO.V.DVBYTE.VFC#
       175**DCL       175--REDEF
TCM_XCON$
       258**DCL       380>>IF        381>>ASSIGN
WAIT5.V
       200**DCL       199--DCLINIT
WRITE_STATION
       318**DCL       270--DCLINIT   294--DCLINIT
WRITE_STATION.MSGIDXT
       328**DCL       331--REDEF
PL6.E3A0      #008=TCM$ALEX_DISCONNECT File=TCM$ALEX2.:TCA2TSI                   SUN 11/16/97 14:20 Page:245
              *** CROSS REFERENCE LISTING ***
    **     DENOTES     IDENTIFIER DEFINITION
    <<                 IDENTIFIER'S VALUE SET
    >>                 IDENTIFIER'S VALUE USED
    <>                 IDENTIFIER SET AND/OR USED
    --                 IDENTIFIER REFERENCED
PL6.E3A0      #008=TCM$ALEX_DISCONNECT File=TCM$ALEX2.:TCA2TSI                   SUN 11/16/97 14:20 Page:246
              MINI UREF LISTING

M$ACCT      33**DCL-ENT
M$ACTIVATE      36**DCL-ENT
M$ALIB      29**DCL-ENT
M$ASUSER      31**DCL-ENT
M$ATTACH      38**DCL-ENT
M$BADPP      56**DCL-ENT
M$CGCTL      37**DCL-ENT
M$CGINFO      37**DCL-ENT
M$CHECK      18**DCL-ENT
M$CHGUNIT      76**DCL-ENT
M$CLRSTK      74**DCL-ENT
M$CMDVAR      85**DCL-ENT
M$CONFIG      46**DCL-ENT
M$CORRES      21**DCL-ENT
M$CPEXIT      30**DCL-ENT
M$CVM      54**DCL-ENT
M$CVOL      19**DCL-ENT
M$DCLFLD      46**DCL-ENT
M$DELREC      18**DCL-ENT
M$DEQ      83**DCL-ENT
M$DETACH      38**DCL-ENT
M$DEVICE      20**DCL-ENT
M$DISPLAY      83**DCL-ENT
M$DISPRES      23**DCL-ENT
M$DLIB      29**DCL-ENT
M$DRIBBLE      46**DCL-ENT
M$DRTN      74**DCL-ENT
M$DSUSER      31**DCL-ENT
M$ENQ      82**DCL-ENT
M$EOM      41**DCL-ENT
M$ERASE      47**DCL-ENT
M$ERR      28**DCL-ENT
PL6.E3A0      #008=TCM$ALEX_DISCONNECT File=TCM$ALEX2.:TCA2TSI                   SUN 11/16/97 14:20 Page:247
M$ERRMSG      79**DCL-ENT
M$EVENT      71**DCL-ENT
M$EXHUME      80**DCL-ENT
M$EXIT      28**DCL-ENT
M$EXTEND      20**DCL-ENT
M$FDP      52**DCL-ENT
M$FDS      51**DCL-ENT
M$FEBOOT      44**DCL-ENT
M$FECTL      45**DCL-ENT
M$FEDUMP      44**DCL-ENT
M$FID      79**DCL-ENT
M$FINDPROC      33**DCL-ENT
M$FSUSER      31**DCL-ENT
M$FVP      53**DCL-ENT
M$GBPL      57**DCL-ENT
M$GDDL      53**DCL-ENT
M$GDP      52**DCL-ENT
M$GDS      51**DCL-ENT
M$GETDCB      22**DCL-ENT
M$GETMOUSE      62**DCL-ENT
M$GETPM      63**DCL-ENT
M$GJOB      81**DCL-ENT
M$GLINEATTR      41**DCL-ENT
M$GOODPP      56**DCL-ENT
M$GPLATEN      49**DCL-ENT
M$GPROMPT      48**DCL-ENT
M$GTRMATTR      42**DCL-ENT
M$GTRMCTL      40**DCL-ENT
M$GTRMTAB      43**DCL-ENT
M$GVP      52**DCL-ENT
M$HELP      79**DCL-ENT
M$INT      71**DCL-ENT
M$INTRTN      32**DCL-ENT
M$IOQ      67**DCL-ENT
M$JOBSTATS      81**DCL-ENT
M$KEYIN      21**DCL-ENT
PL6.E3A0      #008=TCM$ALEX_DISCONNECT File=TCM$ALEX2.:TCA2TSI                   SUN 11/16/97 14:20 Page:248
M$LDEV      16**DCL-ENT
M$LDTRC      29**DCL-ENT
M$LIMIT      22**DCL-ENT
M$LINES      21**DCL-ENT
M$LINK      28**DCL-ENT
M$MADMUCK      24**DCL-ENT
M$MAKUSER      55**DCL-ENT
M$MBS      23**DCL-ENT
M$MDFFLD      47**DCL-ENT
M$MERC      72**DCL-ENT
M$MERCS      73**DCL-ENT
M$MIRROR      67**DCL-ENT
M$MONINFO      84**DCL-ENT
M$MPL      57**DCL-ENT
M$NODEINFO      48**DCL-ENT
M$NXTUSR      82**DCL-ENT
M$OCMSG      80**DCL-ENT
M$OLAY      28**DCL-ENT
M$OPEN      16**DCL-ENT
M$PAS      57**DCL-ENT
M$PATHCON      80**DCL-ENT
M$PDS      51**DCL-ENT
M$PFIL      18**DCL-ENT
M$PLATEN      42**DCL-ENT
M$PRECORD      20**DCL-ENT
M$PROCNAME      33**DCL-ENT
M$PROFILE      44**DCL-ENT
M$PROMPT      40**DCL-ENT
M$RACST      24**DCL-ENT
M$RDSYSLOG      65**DCL-ENT
M$READ      17**DCL-ENT
M$RELDCB      22**DCL-ENT
M$RELRES      23**DCL-ENT
M$RELSTARF      25**DCL-ENT
M$REM      25**DCL-ENT
M$RENV      72**DCL-ENT
PL6.E3A0      #008=TCM$ALEX_DISCONNECT File=TCM$ALEX2.:TCA2TSI                   SUN 11/16/97 14:20 Page:249
M$REQUIRE      24**DCL-ENT
M$RETRY      73**DCL-ENT
M$RETRYS      73**DCL-ENT
M$REW      19**DCL-ENT
M$RLSFLD      47**DCL-ENT
M$RPRIV      75**DCL-ENT
M$RSPP      54**DCL-ENT
M$RSWITCH      76**DCL-ENT
M$RUE      82**DCL-ENT
M$SAD      55**DCL-ENT
M$SAVE      31**DCL-ENT
M$SCON      32**DCL-ENT
M$SCREECH      30**DCL-ENT
M$SENV      72**DCL-ENT
M$SETFMA      16**DCL-ENT
M$SETFP      45**DCL-ENT
M$SINPUT      43**DCL-ENT
M$SLCFLD      48**DCL-ENT
M$SMOUSE      62**DCL-ENT
M$SMPRT      54**DCL-ENT
M$SPRIV      75**DCL-ENT
M$SSC      55**DCL-ENT
M$SSWITCH      75**DCL-ENT
M$STATE      84**DCL-ENT
M$STD      56**DCL-ENT
M$STIMER      70**DCL-ENT
M$STLPP      53**DCL-ENT
M$STRAP      70**DCL-ENT
M$STRMATTR      42**DCL-ENT
M$STRMCTL      40**DCL-ENT
M$STRMTAB      43**DCL-ENT
M$SYMBIO      81**DCL-ENT
M$SYSCON      67**DCL-ENT
M$SYSID      85**DCL-ENT
M$TDCLOSE      66**DCL-ENT
M$TDIO      66**DCL-ENT
PL6.E3A0      #008=TCM$ALEX_DISCONNECT File=TCM$ALEX2.:TCA2TSI                   SUN 11/16/97 14:20 Page:250
M$TDOPEN      65**DCL-ENT
M$TDREQCPU      66**DCL-ENT
M$TEMPWROC      60**DCL-ENT
M$TIME      83**DCL-ENT
M$TRAP      70**DCL-ENT
M$TRMISC      45**DCL-ENT
M$TRMPRG      41**DCL-ENT
M$TRTN      74**DCL-ENT
M$TRUNC      17**DCL-ENT
M$TTIMER      70**DCL-ENT
M$UC      40**DCL
M$UMPL      57**DCL-ENT
M$UNFID      79**DCL-ENT
M$UNLATCH      36**DCL-ENT
M$UNSHARE      33**DCL-ENT
M$USRFIELD      76**DCL-ENT
M$VIRTUAL      51**DCL-ENT
M$WAIT      74**DCL-ENT
M$WEOF      19**DCL-ENT
M$WRSYSLOG      65**DCL-ENT
M$XCONRTN      32**DCL-ENT
M$XEQTIME      84**DCL-ENT
M$XFLUSH      25**DCL-ENT
M$XMOUSE      62**DCL-ENT
M$XXX      28**DCL-ENT
M$YC      30**DCL-ENT
SHUTDOWN     356**LABEL
TCM$ALEX_DISCONNECT       6**PROC
TCM_BLEN     182**DCL
TCM_OUTREC     184**DCL
TCM_SITE     183**DCL
TCM_WRITECGBUF     185**DCL

PL6.E3A0      #009=TCM$ALEX_DRAIN File=TCM$ALEX2.:TCA2TSI                        SUN 11/16/97 14:21 Page:251
      896        1        /*T***********************************************************/
      897        2        /*T*                                                         */
      898        3        /*T* Copyright (c) Bull HN Information Systems Inc., 1997    */
      899        4        /*T*                                                         */
      900        5        /*T***********************************************************/
      901        6        TCM$ALEX_DRAIN: PROC (COUNT);
      902        7    1   dcl COUNT ubin;
      903        8        %include CP_6;
      904       89    1   dcl F$CG dcb;
      905       90        %FPT_CGINFO (FPTN=GET_INFO, STCLASS=CONSTANT, DCB=F$CG, STATS=VLR_CGSTATS);
      906      110        %VLR_CGSTATS (STCLASS=STATIC);
      907      134
      908      135    1        CALL M$CGINFO(GET_INFO);
      909      136
      910      137    1        COUNT = minimum(VLR_CGSTATS.NUMTERMS,1) * VLR_CGSTATS.CCMS;
      911      138
      912      139    1        return;
      913      140
      914      141    1   end TCM$ALEX_DRAIN;
      915      142        %EOD;

PL6.E3A0      #009=TCM$ALEX_DRAIN File=TCM$ALEX2.:TCA2TSI                        SUN 11/16/97 14:21 Page:252
--  Include file information  --

   CP_6.:LIBRARY  cannot be made into a system file and is referenced.
   B$JIT_C.:E05TOU  was found in the system file and is never referenced.
   CP_6_C.:E05TOU  was found in the system file and is referenced.
      No diagnostics issued in procedure TCM$ALEX_DRAIN.

   Procedure TCM$ALEX_DRAIN requires 14 words for executable code.
   Procedure TCM$ALEX_DRAIN requires 4 words of local(AUTO) storage.

PL6.E3A0      #009=TCM$ALEX_DRAIN File=TCM$ALEX2.:TCA2TSI                        SUN 11/16/97 14:21 Page:253

 Object Unit name= TCM$ALEX_DRAIN                             File name= TCM$ALEX2.:TCA2TOU
 UTS= NOV 16 '97 14:21:21.68 SUN                              Compiler= PL-6/E31         Sev=      00
 SharedLib= :SHARED_SYSTEM                                    Alt SharedLib=


    ****  Control sections  ****

 Sect   Type Bound  Init  Size OctSiz  Section name(segment info)
    0   DCB   even  none     0      0  M$UC
    1   DCB   even  none     0      0  F$CG
    2  RoData even  UTS     50     62  TCM$ALEX_DRAIN
    3   Data  even  none    18     22  TCM$ALEX_DRAIN
    4   Proc  even  none    14     16  TCM$ALEX_DRAIN

    ****  Entry defs  ****

                              Check   Calling
                             calling  sequence
  Sect OctLoc Primary Altret sequence   type   Parms  Name
     4      0   yes            yes      Std        1  TCM$ALEX_DRAIN

  ****  Entry refs  ****

         Check        Calling
        calling       sequence
Altret sequence SRef   type   Args  Name
                       nStd      0 X66_AUTO_1
                       nStd      0 X66_ARET

  ****  Data refs  ****

  Flags:  r = read only, s = secondary
Flgs Name                             Flgs Name                             Flgs Name
     M$UC                                  F$CG
PL6.E3A0      #009=TCM$ALEX_DRAIN File=TCM$ALEX2.:TCA2TSI                        SUN 11/16/97 14:21 Page:254

  ****  Segment refs  ****

  Flags:  r = read only, s = secondary
Flgs Name                             Flgs Name                             Flgs Name
     ISSID                                 NULLSID
PL6.E3A0      #009=TCM$ALEX_DRAIN File=TCM$ALEX2.:TCA2TSI                        SUN 11/16/97 14:21 Page:255


      896        1        /*T***********************************************************/
      897        2        /*T*                                                         */
      898        3        /*T* Copyright (c) Bull HN Information Systems Inc., 1997    */
      899        4        /*T*                                                         */
      900        5        /*T***********************************************************/
      901        6        TCM$ALEX_DRAIN: PROC (COUNT);

      6  4 000000   000000 700200 xent  TCM$ALEX_DR* TSX0  ! X66_AUTO_1
         4 000001   000004 000001                    ZERO    4,1

      902        7    1   dcl COUNT ubin;
      903        8        %include CP_6;
      904       89    1   dcl F$CG dcb;
      905       90        %FPT_CGINFO (FPTN=GET_INFO, STCLASS=CONSTANT, DCB=F$CG, STATS=VLR_CGSTATS);
      906      110        %VLR_CGSTATS (STCLASS=STATIC);
      907      134
      908      135    1        CALL M$CGINFO(GET_INFO);

    135  4 000002   000000 630400 2                  EPPR0   GET_INFO
         4 000003   100004 713400                    CLIMB   32772
         4 000004   411400 401760                    pmme    nvectors=20

      909      136
      910      137    1        COUNT = minimum(VLR_CGSTATS.NUMTERMS,1) * VLR_CGSTATS.CCMS;

    137  4 000005   000001 236007                    LDQ     1,DL
         4 000006   000011 604000 4                  TMI     s:137+4
         4 000007   000007 116000 3                  CMPQ    VLR_CGSTATS+7
         4 000010   000012 604400 4                  TMOZ    s:137+5
         4 000011   000007 236000 3                  LDQ     VLR_CGSTATS+7
         4 000012   000005 402000 3                  MPY     VLR_CGSTATS+5
         4 000013   200003 470500                    LDP0    @COUNT,,AUTO
         4 000014   000000 756100                    STQ     0,,PR0

      911      138
      912      139    1        return;
PL6.E3A0      #009=TCM$ALEX_DRAIN File=TCM$ALEX2.:TCA2TSI                        SUN 11/16/97 14:21 Page:256

    139  4 000015   000000 702200 xent               TSX2  ! X66_ARET

GET_INFO
 Sect OctLoc
   2     000   000011 777640   000050 006000   000000 177640   000000 006014    .....(..........
   2     004   000000 177640   000000 006014   000000 177640   000000 006014    ................
   2     010   000000 177640   000000 006014   000021 777640   000000 006000    ................
   2     014   000000 177640   000000 006014   000000 177640   000000 006014    ................
   2     050*  000000 000011   000000 000000   000000 000000   000000 000000    ................
   2     054   000000 000000   000000 000000   000000 000000   000000 000000    ................
   2     060   000000 000000   ****** ******                                    ........

VLR_CGSTATS
 Sect OctLoc
   3     000   000000 000000   000000 000000   000000 000000   000000 000000    ................
   3     020*  000000 000000   000000 000000                                    ........
      913      140
      914      141    1   end TCM$ALEX_DRAIN;
      915      142        %EOD;

PL6.E3A0      #009=TCM$ALEX_DRAIN File=TCM$ALEX2.:TCA2TSI                        SUN 11/16/97 14:21 Page:257
--  Include file information  --

   CP_6.:LIBRARY  cannot be made into a system file and is referenced.
   B$JIT_C.:E05TOU  was found in the system file and is never referenced.
   CP_6_C.:E05TOU  was found in the system file and is referenced.
      No diagnostics issued in procedure TCM$ALEX_DRAIN.
PL6.E3A0      #009=TCM$ALEX_DRAIN File=TCM$ALEX2.:TCA2TSI                        SUN 11/16/97 14:21 Page:258

 **** Variables and constants ****

  ****  Section 002 RoData TCM$ALEX_DRAIN

  ****  Scalars and arrays  ****
OctLoc.c.b A Datatyp(siz) R M Lvl/name                 OctLoc.c.b A Datatyp(siz) R M Lvl/name

     0-0-0/d STRC(1800)  r     1 GET_INFO

  ****  Section 003  Data  TCM$ALEX_DRAIN

  ****  Scalars and arrays  ****
OctLoc.c.b A Datatyp(siz) R M Lvl/name                 OctLoc.c.b A Datatyp(siz) R M Lvl/name

     0-0-0/d STRC(648)   r     1 VLR_CGSTATS

  ****  Auto variables  ****

  ****  Scalars and arrays  ****
OctLoc.c.b A Datatyp(siz) R M Lvl/name                 OctLoc.c.b A Datatyp(siz) R M Lvl/name

     3-0-0/w PTR         r     1 @COUNT                    *0-0-0/w UBIN        r     1 COUNT

  ****  BASED and DCB variables  ****

  ****  Scalars and arrays  ****
OctLoc.c.b A Datatyp(siz) R M Lvl/name                 OctLoc.c.b A Datatyp(siz) R M Lvl/name

     0-0-0N  NULL        r     1 F$CG


   Procedure TCM$ALEX_DRAIN requires 14 words for executable code.
   Procedure TCM$ALEX_DRAIN requires 4 words of local(AUTO) storage.
PL6.E3A0      #009=TCM$ALEX_DRAIN File=TCM$ALEX2.:TCA2TSI                        SUN 11/16/97 14:21 Page:259
          *** CROSS REFERENCE LISTING ***
**     DENOTES     IDENTIFIER DEFINITION
<<                 IDENTIFIER'S VALUE SET
>>                 IDENTIFIER'S VALUE USED
<>                 IDENTIFIER SET AND/OR USED
--                 IDENTIFIER REFERENCED
PL6.E3A0      #009=TCM$ALEX_DRAIN File=TCM$ALEX2.:TCA2TSI                        SUN 11/16/97 14:21 Page:260
          MINI XREF LISTING

COUNT
         7**DCL         6--PROC      137<<ASSIGN
GET_INFO
       101**DCL       135<>CALL
GET_INFO.V
       106**DCL       101--DCLINIT
M$CGINFO
        38**DCL-ENT   135--CALL
VLR_CGSTATS
       122**DCL       103--DCLINIT
VLR_CGSTATS.CCMS
       127**DCL       137>>ASSIGN
VLR_CGSTATS.NUMTERMS
       128**DCL       137>>ASSIGN
PL6.E3A0      #009=TCM$ALEX_DRAIN File=TCM$ALEX2.:TCA2TSI                        SUN 11/16/97 14:21 Page:261
              *** CROSS REFERENCE LISTING ***
    **     DENOTES     IDENTIFIER DEFINITION
    <<                 IDENTIFIER'S VALUE SET
    >>                 IDENTIFIER'S VALUE USED
    <>                 IDENTIFIER SET AND/OR USED
    --                 IDENTIFIER REFERENCED
PL6.E3A0      #009=TCM$ALEX_DRAIN File=TCM$ALEX2.:TCA2TSI                        SUN 11/16/97 14:21 Page:262
              MINI UREF LISTING

F$CG      89**DCL
M$ACCT      34**DCL-ENT
M$ACTIVATE      37**DCL-ENT
M$ALIB      30**DCL-ENT
M$ASUSER      32**DCL-ENT
M$ATTACH      39**DCL-ENT
M$BADPP      57**DCL-ENT
M$CGCTL      38**DCL-ENT
M$CHECK      19**DCL-ENT
M$CHGUNIT      77**DCL-ENT
M$CLOSE      17**DCL-ENT
M$CLRSTK      75**DCL-ENT
M$CMDVAR      86**DCL-ENT
M$CONFIG      47**DCL-ENT
M$CORRES      22**DCL-ENT
M$CPEXIT      31**DCL-ENT
M$CVM      55**DCL-ENT
M$CVOL      20**DCL-ENT
M$DCLFLD      47**DCL-ENT
M$DEACTIVATE      37**DCL-ENT
M$DELREC      19**DCL-ENT
M$DEQ      84**DCL-ENT
M$DETACH      39**DCL-ENT
M$DEVICE      21**DCL-ENT
M$DISPLAY      84**DCL-ENT
M$DISPRES      24**DCL-ENT
M$DLIB      30**DCL-ENT
M$DRIBBLE      47**DCL-ENT
M$DRTN      75**DCL-ENT
M$DSUSER      32**DCL-ENT
M$ENQ      83**DCL-ENT
M$EOM      42**DCL-ENT
PL6.E3A0      #009=TCM$ALEX_DRAIN File=TCM$ALEX2.:TCA2TSI                        SUN 11/16/97 14:21 Page:263
M$ERASE      48**DCL-ENT
M$ERR      29**DCL-ENT
M$ERRMSG      80**DCL-ENT
M$EVENT      72**DCL-ENT
M$EXHUME      81**DCL-ENT
M$EXIT      29**DCL-ENT
M$EXTEND      21**DCL-ENT
M$FDP      53**DCL-ENT
M$FDS      52**DCL-ENT
M$FEBOOT      45**DCL-ENT
M$FECTL      46**DCL-ENT
M$FEDUMP      45**DCL-ENT
M$FID      80**DCL-ENT
M$FINDPROC      34**DCL-ENT
M$FSUSER      32**DCL-ENT
M$FVP      54**DCL-ENT
M$FWCG      38**DCL-ENT
M$GBPL      58**DCL-ENT
M$GDDL      54**DCL-ENT
M$GDP      53**DCL-ENT
M$GDS      52**DCL-ENT
M$GETDCB      23**DCL-ENT
M$GETMOUSE      63**DCL-ENT
M$GETPM      64**DCL-ENT
M$GJOB      82**DCL-ENT
M$GLINEATTR      42**DCL-ENT
M$GOODPP      57**DCL-ENT
M$GPLATEN      50**DCL-ENT
M$GPROMPT      49**DCL-ENT
M$GTRMATTR      43**DCL-ENT
M$GTRMCTL      41**DCL-ENT
M$GTRMTAB      44**DCL-ENT
M$GVP      53**DCL-ENT
M$HELP      80**DCL-ENT
M$INT      72**DCL-ENT
M$INTRTN      33**DCL-ENT
PL6.E3A0      #009=TCM$ALEX_DRAIN File=TCM$ALEX2.:TCA2TSI                        SUN 11/16/97 14:21 Page:264
M$IOQ      68**DCL-ENT
M$JOBSTATS      82**DCL-ENT
M$KEYIN      22**DCL-ENT
M$LDEV      17**DCL-ENT
M$LDTRC      30**DCL-ENT
M$LIMIT      23**DCL-ENT
M$LINES      22**DCL-ENT
M$LINK      29**DCL-ENT
M$MADMUCK      25**DCL-ENT
M$MAKUSER      56**DCL-ENT
M$MBS      24**DCL-ENT
M$MDFFLD      48**DCL-ENT
M$MERC      73**DCL-ENT
M$MERCS      74**DCL-ENT
M$MIRROR      68**DCL-ENT
M$MONINFO      85**DCL-ENT
M$MPL      58**DCL-ENT
M$NODEINFO      49**DCL-ENT
M$NXTUSR      83**DCL-ENT
M$OCMSG      81**DCL-ENT
M$OLAY      29**DCL-ENT
M$OPEN      17**DCL-ENT
M$PAS      58**DCL-ENT
M$PATHCON      81**DCL-ENT
M$PDS      52**DCL-ENT
M$PFIL      19**DCL-ENT
M$PLATEN      43**DCL-ENT
M$PRECORD      21**DCL-ENT
M$PROCNAME      34**DCL-ENT
M$PROFILE      45**DCL-ENT
M$PROMPT      41**DCL-ENT
M$RACST      25**DCL-ENT
M$RDSYSLOG      66**DCL-ENT
M$READ      18**DCL-ENT
M$RELDCB      23**DCL-ENT
M$RELRES      24**DCL-ENT
PL6.E3A0      #009=TCM$ALEX_DRAIN File=TCM$ALEX2.:TCA2TSI                        SUN 11/16/97 14:21 Page:265
M$RELSTARF      26**DCL-ENT
M$REM      26**DCL-ENT
M$RENV      73**DCL-ENT
M$REQUIRE      25**DCL-ENT
M$RETRY      74**DCL-ENT
M$RETRYS      74**DCL-ENT
M$REW      20**DCL-ENT
M$RLSFLD      48**DCL-ENT
M$RPRIV      76**DCL-ENT
M$RSPP      55**DCL-ENT
M$RSWITCH      77**DCL-ENT
M$RUE      83**DCL-ENT
M$SAD      56**DCL-ENT
M$SAVE      32**DCL-ENT
M$SCON      33**DCL-ENT
M$SCREECH      31**DCL-ENT
M$SENV      73**DCL-ENT
M$SETFMA      17**DCL-ENT
M$SETFP      46**DCL-ENT
M$SINPUT      44**DCL-ENT
M$SLCFLD      49**DCL-ENT
M$SMOUSE      63**DCL-ENT
M$SMPRT      55**DCL-ENT
M$SPRIV      76**DCL-ENT
M$SSC      56**DCL-ENT
M$SSWITCH      76**DCL-ENT
M$STATE      85**DCL-ENT
M$STD      57**DCL-ENT
M$STIMER      71**DCL-ENT
M$STLPP      54**DCL-ENT
M$STRAP      71**DCL-ENT
M$STRMATTR      43**DCL-ENT
M$STRMCTL      41**DCL-ENT
M$STRMTAB      44**DCL-ENT
M$SYMBIO      82**DCL-ENT
M$SYSCON      68**DCL-ENT
PL6.E3A0      #009=TCM$ALEX_DRAIN File=TCM$ALEX2.:TCA2TSI                        SUN 11/16/97 14:21 Page:266
M$SYSID      86**DCL-ENT
M$TDCLOSE      67**DCL-ENT
M$TDIO      67**DCL-ENT
M$TDOPEN      66**DCL-ENT
M$TDREQCPU      67**DCL-ENT
M$TEMPWROC      61**DCL-ENT
M$TIME      84**DCL-ENT
M$TRAP      71**DCL-ENT
M$TRMISC      46**DCL-ENT
M$TRMPRG      42**DCL-ENT
M$TRTN      75**DCL-ENT
M$TRUNC      18**DCL-ENT
M$TTIMER      71**DCL-ENT
M$UC      41**DCL
M$UMPL      58**DCL-ENT
M$UNFID      80**DCL-ENT
M$UNLATCH      37**DCL-ENT
M$UNSHARE      34**DCL-ENT
M$USRFIELD      77**DCL-ENT
M$VIRTUAL      52**DCL-ENT
M$WAIT      75**DCL-ENT
M$WEOF      20**DCL-ENT
M$WRITE      18**DCL-ENT
M$WRSYSLOG      66**DCL-ENT
M$XCON      72**DCL-ENT
M$XCONRTN      33**DCL-ENT
M$XEQTIME      85**DCL-ENT
M$XFLUSH      26**DCL-ENT
M$XMOUSE      63**DCL-ENT
M$XXX      29**DCL-ENT
M$YC      31**DCL-ENT
TCM$ALEX_DRAIN       6**PROC

PL6.E3A0      #010=TCM$ALEX_PAD_CONNECT File=TCM$ALEX2.:TCA2TSI                  SUN 11/16/97 14:21 Page:267
      916        1        /*T***********************************************************/
      917        2        /*T*                                                         */
      918        3        /*T* Copyright (c) Bull HN Information Systems Inc., 1997    */
      919        4        /*T*                                                         */
      920        5        /*T***********************************************************/
      921        6        TCM$ALEX_PAD_CONNECT: proc(ADDRESS, PAR, STATUS, BAILOUT) altret;
      922        7        /*X* CCC,DMR,PLM=5,IND=5,CSU=3,EXM=0,ECU=3,MOC,DCI=5,CRT=5 */
      923        8    1   dcl TBUF char(1) static;
      924        9    1   dcl PAR    ubin;
      925       10    1   dcl ADDRESS   char(32);
      926       11    1   dcl 1  STATUS   aligned,
      927       12    1         2 HOST_SHUT bit(1);
      928       13    1   dcl TCM_G_PARITY ubin symref;
      929       14    1   dcl BAILOUT remember;
      930       15    1   dcl TCM_ALEX_BAILOUT remember symref;
      931       16    1   dcl TCM_ALEX_BAILOUT_ENABLED redef TCM_ALEX_BAILOUT bit(72);
      932       17        %include CP_6;
      933       98                                                /* Based */
      934       99
      935      100        %F$DCB;
      936      157        %MACRO WRITEUO;
      937      158             call M$WRITE(TCM_WRITEUO) whenaltreturn do; end;
      938      159        %MEND;
      939      160        %include B$JIT;
      940      450    1   dcl B$JIT$ ptr symref;
      941      451        %B$TCB;
      942      454        %B$NWIO;
      943      539        %B$CGAUCRD;
      944      602    1   dcl F$CG dcb;
      945      603    1   dcl M$SI dcb;
      946      604    1   dcl F$USER dcb;
      947      605    1   dcl F$UO   dcb;
      948      606    1   dcl F$CG$  ptr symref;
      949      607    1   dcl F$USER$ ptr static;
      950      608    1   dcl 1 SLOG static,
      951      609    1         2 LEN ubin(9) caligned,
      952      610    1         2 TEXT(0:23) char(1) caligned;
PL6.E3A0      #010=TCM$ALEX_PAD_CONNECT File=TCM$ALEX2.:TCA2TSI                  SUN 11/16/97 14:21 Page:268
      953      611    1   dcl TCM_USING_PAD bit(1) SYMREF;
      954      612    1   dcl TCM_COMMAND   bit(1) symref;
      955      613    1   dcl TCM_EXEC      bit(1) symref;
      956      614    1   dcl TCM_INT       bit(1) symref;
      957      615    1   dcl TCM_LOCAL     bit(1) symref;
      958      616    1   dcl TCM_NEEDREAD  bit(1) symref;
      959      617    1   dcl TCM_LOCALMODE bit(1) symref;
      960      618    1   dcl TCM_CONNECTED bit(1) symref;
      961      619    1   dcl TCM_MODEMBUF  char(1280) symref;
      962      620    1   dcl TCM_MBLEN     ubin symref;
      963      621    1   dcl RETRY     ubin static;
      964      622    1   dcl TEMP      ubin static;
      965      623    1   dcl ACTUAL_PAD_SPEED ubin static init(12); /* Use 2400 baud */
      966      624    1   dcl BREAK_PAD_SPEED ubin static init(0); /* Try 50 baud   */
      967      625    1   dcl CMDI             ubin static;
      968      626    1   dcl TCM_TIMEOUT          ubin symref;
      969      627    1   dcl I                ubin static;
      970      628    1   dcl CR               char(1) static init(binasc(13));
      971      629    1   dcl LF               char(1) static init(binasc(10));
      972      630    1   dcl FLAG             ubin static;
      973      631    1   dcl TCM_EPTBLI(0:3)      bit(32) unal symref;
      974      632    1   dcl EPTBL(0:127)     redef TCM_EPTBLI bit(1) unal;
      975      633    1   dcl TCM_OPTBLI(0:3)      bit(32) unal symref;
      976      634    1   dcl OPTBL(0:127)     redef TCM_OPTBLI bit(1) unal;
      977      635    1   dcl EIGHT_VAL        ubin(9) static unal;
      978      636    1   dcl EIGHT_TBL(0:4)   ubin(9) static unal init(184,56,184,184,56);
      979      637    1   dcl PAREN_VAL        ubin(9) static unal;
      980      638    1   dcl PAREN_TBL(0:4)   ubin(9) static unal init(40,168,40,168,40);
      981      639    1   dcl TCM_STRIPPAR(0:511)  ubin(9) unal symref;
      982      640    1   dcl TCM_OUTREC           char(332) symref;
      983      641    1   dcl 1 WARNMES        static,
      984      642    1         2 *            ubin(9) unal init(13),
      985      643    1         2 *            ubin(9) unal init(07),
      986      644    1         2 *            char(0) init('WARNING, 5 minutes without IO '),
      987      645    1         2 *            char(0) init('have passed, ALEX will LOG you'),
      988      646    1         2 *            char(0) init(' off in 1 minute.'),
      989      647    1         2 *            ubin(9) unal init(07),
PL6.E3A0      #010=TCM$ALEX_PAD_CONNECT File=TCM$ALEX2.:TCA2TSI                  SUN 11/16/97 14:21 Page:269
      990      648    1         2 *            ubin(9) unal init(13);
      991      649    1   dcl 1 OFFMES         static,
      992      650    1         2 *            ubin(9) unal init(13),
      993      651    1         2 *            ubin(9) unal init(07),
      994      652    1         2 *            char(0) init('6 minutes without IO have pass'),
      995      653    1         2 *            char(0) init('ed, ALEX has logged you off'),
      996      654    1         2 *            ubin(9) unal init(07),
      997      655    1         2 *            ubin(9) unal init(13);
      998      656
      999      657                                                /* Fpts */
     1000      658
     1001      659        %FPT_OPEN( FPTN=OPENCG, STCLASS=CONSTANT,
     1002      660                   SCRUB=YES,
     1003      661                   DCB=F$CG,
     1004      662                   AU=YES,
     1005      663                   NAME=CG_NAME,
     1006      664                   ACCT=CG_ACCT,
     1007      665                   ACCESS=ACC,
     1008      666                   ACSVEH=ACV,
     1009      667                   ASN=COMGROUP,
     1010      668                   SETSTA=OPENSTA,
     1011      669                   FUN=CREATE,
     1012      670                   IXTNSIZE=200,
     1013      671                   SHARE=ALL,
     1014      672                   CTG=YES,
     1015      673                   EXIST=OLDFILE);
     1016      782
     1017      783        %VLP_SETSTA(  FPTN=OPENSTA,  STCLASS=CONSTANT,
     1018      784                      MYSTATION='ALEX');
     1019      812
     1020      813        %VLP_NAME(    FPTN=CG_NAME,  STCLASS=CONSTANT,
     1021      814                      NAME='PADCG');
     1022      841
     1023      842        %VLP_ACCT(    FPTN=CG_ACCT, STCLASS=CONSTANT,
     1024      843                      ACCT=':SYS');
     1025      856
     1026      857        %VLP_ATTR(    FPTN=ACC);
PL6.E3A0      #010=TCM$ALEX_PAD_CONNECT File=TCM$ALEX2.:TCA2TSI                  SUN 11/16/97 14:21 Page:270
     1027      871        %VLP_ACCESS(  READ=YES, DELR=YES, WNEW=YES, UPD=YES, DELF=YES,
     1028      872                      REATTR=YES, AU=YES, TCTL=YES, ACCT='BJF?');
     1029      889        %VLP_ACCESS(  EXEC=YES, ACCT='?', LAST=";");
     1030      906
     1031      907        %VLP_ATTR(    FPTN=ACV);
     1032      921        %VLP_ACSVEH(  READ=YES, DELR=YES, WNEW=YES, UPD=YES, DELF=YES,
     1033      922                      REATTR=YES, AU=YES, TCTL=YES, VEHICLE='MULSEND',LAST=";");
     1034      939
     1035      940        %FPT_OPEN(    FPTN=DELCG, STCLASS=CONSTANT,
     1036      941                      SCRUB=YES,
     1037      942                      DCB=F$CG,
     1038      943                      ASN=FILE,
     1039      944                      NAME=CG_NAME,
     1040      945                      ACCT=CG_ACCT,
     1041      946                      FUN=IN,
     1042      947                      SHARE=ALL,
     1043      948                      DELETE=YES);
     1044     1057
     1045     1058        %FPT_OPEN(    FPTN=OPENUSER,
     1046     1059                      DVFC='@',
     1047     1060                      DCB=F$USER,
     1048     1061                      ORG=TERMINAL,
     1049     1062                      FUN=UPDATE,
     1050     1063                      ASN=DEVICE);
     1051     1172
     1052     1173        %FPT_FWCG(    FPTN=TCM_DELETEMES,   STCLASS="SYMREF",
     1053     1174                      DCB=F$CG,
     1054     1175                      CRITERIA=VLP_CGMA,
     1055     1176                      DELETE=YES,
     1056     1177                      SCA=VLP_SCGMA);
     1057     1196
     1058     1197        %VLP_CGMA(                      STCLASS=CONSTANT,
     1059     1198                      ORIGIN='?',
     1060     1199                      DEST='?');
     1061     1226
     1062     1227        %VLP_SCGMA(                     STCLASS=CONSTANT,
     1063     1228                      ORIGIN=YES,
PL6.E3A0      #010=TCM$ALEX_PAD_CONNECT File=TCM$ALEX2.:TCA2TSI                  SUN 11/16/97 14:21 Page:271
     1064     1229                      DEST=YES);
     1065     1246
     1066     1247        %FPT_WRITE(   FPTN=TCM_WRITECG,     STCLASS=SYMREF,
     1067     1248                      DCB=F$CG,
     1068     1249                      STATION=WRITE_STATION,
     1069     1250                      TRANS=YES);
     1070     1281
     1071     1282    1   dcl TCM_WRITECGBUF         char(256) symref;
     1072     1283
     1073     1284        %FPT_WRITE(   FPTN=TCM_WRITEUSER,   STCLASS="SYMREF",
     1074     1285                      DCB=F$USER,
     1075     1286                      TRANS=YES,
     1076     1287                      BUF=TCM_WRITEUSERBUF);
     1077     1318
     1078     1319    1   dcl  TCM_WRITEUSERBUF      char(256) symref;
     1079     1320    1   dcl  CMDBUF            char(256) static;
     1080     1321    1   dcl  CMDBUFLEN         ubin      static;
     1081     1322
     1082     1323        %VLP_STATION( FPTN=WRITE_STATION,  STCLASS=STATIC,
     1083     1324                      STATION='MODEM');
     1084     1351
     1085     1352        %VLP_STATION( FPTN=CMDSTATION,     STCLASS=STATIC,
     1086     1353                      STATION='MODEM',
     1087     1354                      EOFNONE=YES);
     1088     1381
     1089     1382        %FPT_TRMISC(  FPTN=INHIBIT_OPERATOR_MESSAGES,
     1090     1383                      STCLASS=CONSTANT,
     1091     1384                      DCB=F$CG,
     1092     1385                      STATION=WRITE_STATION,
     1093     1386                      ANNOUNCE=NO,
     1094     1387                      SEND=NO);
     1095     1408
     1096     1409        %FPT_TRMATTR( FPTN=CURRENT_TRMATTR,
     1097     1410                      STCLASS=CONSTANT,
     1098     1411                      DCB=F$CG,
     1099     1412                      STATION=WRITE_STATION,
     1100     1413                      TRMATTR=SAVED_TRMATTR);
PL6.E3A0      #010=TCM$ALEX_PAD_CONNECT File=TCM$ALEX2.:TCA2TSI                  SUN 11/16/97 14:21 Page:272
     1101     1438
     1102     1439        %VLP_TRMATTR( FPTN=SAVED_TRMATTR);
     1103     1477
     1104     1478        %FPT_TRMATTR( FPTN=SET_LOW_SPEED,
     1105     1479                      STCLASS=CONSTANT,
     1106     1480                      DCB=F$CG,
     1107     1481                      STATION=WRITE_STATION,
     1108     1482                      TRMATTR=LOW_SPEED);
     1109     1507
     1110     1508        %VLP_TRMATTR( FPTN=LOW_SPEED,         STCLASS=STATIC,
     1111     1509                      PARITY=NONE);
     1112     1547
     1113     1548        %FPT_READ(    FPTN=TCM_READCMD,           STCLASS="SYMREF",
     1114     1549                      DCB=F$CG,
     1115     1550                      STATION=CMDSTATION,
     1116     1551                      TRANS=YES,
     1117     1552                      WAIT=YES,
     1118     1553                      BUF=TCM_READCGBUF);
     1119     1592
     1120     1593        %FPT_READ(    FPTN=TCM_READCG,            STCLASS="SYMREF",
     1121     1594                      STATION=CGSTATION,
     1122     1595                      TRANS=YES,
     1123     1596                      WAIT=NO,
     1124     1597                      EVENT=1,
     1125     1598                      DCB=F$CG,
     1126     1599                      BUF=TCM_READCGBUF);
     1127     1638
     1128     1639        %FPT_READ(    FPTN=TCM_READCGNONTRANS,    STCLASS=CONSTANT,
     1129     1640                      STATION=CGSTATION,
     1130     1641                      TRANS=NO,
     1131     1642                      WAIT=NO,
     1132     1643                      EVENT=1,
     1133     1644                      DCB=F$CG,
     1134     1645                      BUF=TCM_READCGBUF);
     1135     1684
     1136     1685        %FPT_READ(    FPTN=READAU,            STCLASS=CONSTANT,
     1137     1686                      DCB=F$CG,
PL6.E3A0      #010=TCM$ALEX_PAD_CONNECT File=TCM$ALEX2.:TCA2TSI                  SUN 11/16/97 14:21 Page:273
     1138     1687                      WAIT=NO,
     1139     1688                      EVENT=1,
     1140     1689                      STATION=AUSTATION,
     1141     1690                      BUF=TCM_READCGBUF);
     1142     1729
     1143     1730        %VLP_STATION( FPTN=AUSTATION);  /*N* ADD MSGTYP='*?'  */
     1144     1757
     1145     1758        %VLP_STATION( FPTN=CGSTATION, STATION='MODEM');
     1146     1785    1   dcl TCM_READCGBUF                char(256) symref;
     1147     1786
     1148     1787        %FPT_READ(    FPTN=TCM_READCGBIG,         STCLASS=CONSTANT,
     1149     1788                      DCB=F$CG,
     1150     1789                      BUF=BIGTBUF);
     1151     1828    1   dcl BIGTBUF                  char(256) static;
     1152     1829    1   dcl BUFC                     char(TCM_BLEN) based;
     1153     1830    1   dcl TCM_BLEN                     ubin      symref;
     1154     1831
     1155     1832        %FPT_CLOSE(   FPTN=CLOSELO,           STCLASS=CONSTANT,
     1156     1833                      DCB=F$UO);
     1157     1875
     1158     1876        %FPT_ACTIVATE(FPTN=TCM_TURNON,            STCLASS="SYMREF",
     1159     1877                      TRANS=YES,
     1160     1878                      ABTREAD='1'B,
     1161     1879                      DCB=F$CG,
     1162     1880                      FLUSH=YES,
     1163     1881                      STATION=WRITE_STATION);
     1164     1904
     1165     1905        %FPT_ACTIVATE(FPTN=TCM_TURNOFF,           STCLASS="SYMREF",
     1166     1906                      DCB=F$CG,
     1167     1907                      DISCONNECT=NO,
     1168     1908                      STATION=WRITE_STATION,
     1169     1909                      FLUSH=YES);
     1170     1932
     1171     1933        %FPT_CGCTL(                           STCLASS=CONSTANT,
     1172     1934                      DCB=F$CG,
     1173     1935                      CGCP=VLP_CGCP);
     1174     1958
PL6.E3A0      #010=TCM$ALEX_PAD_CONNECT File=TCM$ALEX2.:TCA2TSI                  SUN 11/16/97 14:21 Page:274
     1175     1959        %VLP_CGCP(                            STCLASS=CONSTANT,
     1176     1960                      MAXPG=25,
     1177     1961                      CONMSG=YES,
     1178     1962                      TERMCONAU=NO,
     1179     1963                      DCBCONAU=NO,
     1180     1964                      TERMCONNAU=NO,
     1181     1965                      DCBCONNAU=NO,
     1182     1966                      AUDCONDCB=DEACTIVATE,
     1183     1967                      AUDCONTERM=DISCONNECT,
     1184     1968                      DCBCONLGL=YES,
     1185     1969                      TERMCONLGL=YES);
     1186     2012
     1187     2013        %FPT_CGINFO(  FPTN=GET_INFO,          STCLASS=CONSTANT,
     1188     2014                      DCB=F$CG,
     1189     2015                      STATS=VLR_CGSTATS);
     1190     2035
     1191     2036        %VLR_CGSTATS( STCLASS=STATIC);
     1192     2060
     1193     2061        %FPT_EVENT(   FPTN=FPT_EVENT,         STCLASS=CONSTANT,
     1194     2062                      UENTRY=TCM$ALEX_EVNT);
     1195     2076
     1196     2077        %FPT_XCON(    UENTRY=TCM$ALEX_XCON, PXCON=TCM_XCON$);
     1197     2091    1   DCL TCM_XCON$ EPTR SYMREF;
     1198     2092
     1199     2093        %FPT_WAIT(    FPTN=TCM_NORM,    UNITS=2,  STCLASS="SYMREF");
     1200     2107        %FPT_WAIT(    FPTN=TCM_WAIT1,   UNITS=1,  STCLASS="SYMREF");
     1201     2121        %FPT_WAIT(    FPTN=TCM_TAKE5,   UNITS=5,  STCLASS="SYMREF");
     1202     2135        %FPT_WAIT(    FPTN=TAKE15,  UNITS=15, STCLASS="CONSTANT");
     1203     2149
     1204     2150        %FPT_READ(    FPTN=READSI,   DCB=M$SI,   BUF=SIBUF);
     1205     2189        %FPT_WRITE(   FPTN=TCM_WRITEUO,  DCB=F$UO,   BUF=TCM_UOBUF, STCLASS=SYMREF);
     1206     2220
     1207     2221    1   dcl  SIBUF                   char(256) static;
     1208     2222    1   dcl  TCM_UOBUF                   char(256) symref;
     1209     2223
     1210     2224        %FPT_READ(    FPTN=READUSER, DCB=F$USER, BUF=TCM_READUSERBUF, TRANS=YES);
     1211     2263
PL6.E3A0      #010=TCM$ALEX_PAD_CONNECT File=TCM$ALEX2.:TCA2TSI                  SUN 11/16/97 14:21 Page:275
     1212     2264    1   dcl  TCM_READUSERBUF             char(256) symref;
     1213     2265
     1214     2266        %FPT_PROMPT(  FPTN=PROMPTUSER,        STCLASS=CONSTANT,
     1215     2267                      DCB=M$UC,
     1216     2268                      VFC=YES,
     1217     2269                      PROMPT=PCHAR);
     1218     2297
     1219     2298        %FPT_PROMPT(  FPTN=PROMPTCG,          STCLASS=CONSTANT,
     1220     2299                      DCB=F$CG,
     1221     2300                      VFC=YES,
     1222     2301                      PROMPT=PCHAR,
     1223     2302                      STATION=WRITE_STATION);
     1224     2330
     1225     2331    1   dcl PCHAR                    char(1) constant init('@');
     1226     2332    1   dcl LCLPROMPT                char(0) static init('Local:');
     1227     2333
     1228     2334        %FPT_EOM(     FPTN=EOMCG,             STCLASS=STATIC,
     1229     2335                      DCB=F$CG,
     1230     2336                      STATION=WRITE_STATION,
     1231     2337                      TIMEOUT=1,
     1232     2338                      UTYPE=SEC);
     1233     2368
     1234     2369        %FPT_EOM(     FPTN=EOMUSER,           STCLASS=CONSTANT,
     1235     2370                      DCB=M$UC,
     1236     2371                      TIMEOUT=50,
     1237     2372                      UTYPE=MIL10);
     1238     2402
     1239     2403        %FPT_TRMATTR( FPTN=SET_FLOW_CONTROL,  STCLASS=CONSTANT,
     1240     2404                      TRMATTR=DC1DC3,
     1241     2405                      DCB=F$CG,
     1242     2406                      STATION=WRITE_STATION);
     1243     2431
     1244     2432        %VLP_TRMATTR( FPTN=DC1DC3,            STCLASS=CONSTANT,
     1245     2433                      DVCFLWCTRALG=DC1DC3);
     1246     2471
     1247     2472    1   dcl  REMOVE_PROGRAM          char(0) constant
     1248     2473    1        init(%CONCAT(BITASC('015'O),'REMOTE.DBKPL6',BITASC('015'O)));
PL6.E3A0      #010=TCM$ALEX_PAD_CONNECT File=TCM$ALEX2.:TCA2TSI                  SUN 11/16/97 14:21 Page:276
     1249     2474
     1250     2475    1   dcl  PAD_PROMPT              char(2) constant
     1251     2476    1        init(%concat(binasc(10),'*'));
     1252     2477
     1253     2478    1   dcl  TCM$ALEX_EVNT              entry async;
     1254     2479    1   dcl  TCM$ALEX_DISCONNECT         entry altret;
     1255     2480    1   dcl  KOZINN                  entry(1) altret;
     1256     2481    1   dcl  TCM$ALEX_XCON               entry async;
     1257     2482    1   dcl  TCM$ALEX_OK                      entry altret;
     1258     2483    1   dcl  INTRO                   entry;
     1259     2484                                                /* Start here */
     1260     2485
     1261     2486    1        STATUS = '0'B;
     1262     2487    1        if addr(BAILOUT) = addr(NIL)
     1263     2488    1        then TCM_ALEX_BAILOUT_ENABLED = '0'B;
     1264     2489    1        else TCM_ALEX_BAILOUT = BAILOUT;
     1265     2490
     1266     2491    1        TCM_OUTREC = ' ';
     1267     2492    2        DO I=0 TO 3;
     1268     2493    3             DO TCM_BLEN=I*128 TO (I+1)*128;
     1269     2494    3                  TCM_STRIPPAR(TCM_BLEN)=MOD(TCM_BLEN,128);
     1270     2495    3                END;
     1271     2496    2           END;
     1272     2497        /* Get users parity */
     1273     2498    1        EIGHT_VAL=EIGHT_TBL(PAR);
     1274     2499    1        TCM_G_PARITY = PAR;
     1275     2500    1        PAREN_VAL=PAREN_TBL(PAR);
     1276     2501    1        TCM_USING_PAD = '1'B;
     1277     2502    1        TCM_CONNECTED = '0'B;
     1278     2503    1        CALL M$EVENT(FPT_EVENT);
     1279     2504    1        call M$OPEN(OPENUSER);
     1280     2505                                                /* Delete current comgroup  */
     1281     2506        /*   Call M$OPEN(DELCG) whenaltreturn do; end; */
     1282     2507    1        CALL M$OPEN (OPENCG) ALTRET(BADOPEN);
     1283     2508    2        DO WHILE ('0'B);
     1284     2509    2   BADOPEN:
     1285     2510    2             CALL M$OPEN (DELCG) ALTRET(CANT_CONTINUE); /* Delete bad comgroup */
PL6.E3A0      #010=TCM$ALEX_PAD_CONNECT File=TCM$ALEX2.:TCA2TSI                  SUN 11/16/97 14:21 Page:277
     1286     2511    2             CALL M$OPEN (OPENCG) ALTRET(CANT_CONTINUE); /* Try again */
     1287     2512    3             DO WHILE ('0'B);
     1288     2513    3   CANT_CONTINUE:
     1289     2514    3                  call TCM$ALEX_DISCONNECT;
     1290     2515    3                  altreturn;
     1291     2516    3                END;
     1292     2517    2           END;
     1293     2518    1        TCM_INT = '0'B;
     1294     2519    1        F$CG$ = dcbaddr(dcbnum(F$CG));
     1295     2520    1        F$USER$ = dcbaddr(dcbnum(F$USER));
     1296     2521    2        call M$FWCG(TCM_DELETEMES) whenaltreturn do; end;
     1297     2522    1        CALL M$CGCTL (FPT_CGCTL);
     1298     2523        /* Wait for logon message from device */
     1299     2524    1        CALL M$DEACTIVATE(TCM_TURNOFF);    /* Flush anything pending */
     1300     2525    1        TCM_MBLEN=0;
     1301     2526    1        TCM_COMMAND='1'B;
     1302     2527    1        CALL M$READ (READAU);
     1303     2528    1        I = 0;
     1304     2529    2        do until VLR_CGSTATS.NUMTERMS > 0  or  I = 15;
     1305     2530    2             I = I + 1;
     1306     2531    2             call M$WAIT(TCM_WAIT1);
     1307     2532    2             call M$CGINFO(GET_INFO);
     1308     2533    2           end;
     1309     2534    2        if VLR_CGSTATS.NUMTERMS > 0 then do;
     1310     2535                                                /* For now, assume logon */
     1311     2536    2             TCM_CONNECTED = '1'B;
     1312     2537    2             CALL M$ACTIVATE(TCM_TURNON);
     1313     2538    2             CALL M$WAIT(TCM_WAIT1);
     1314     2539    2             CALL M$DEACTIVATE(TCM_TURNOFF); /* Abrt pending read */
     1315     2540    2             CALL M$WAIT(TCM_WAIT1);
     1316     2541    2             CALL M$ACTIVATE(TCM_TURNON);  /* Now its ready */
     1317     2542    2           END;
     1318     2543    2        ELSE DO;
     1319     2544    2             TCM_UOBUF='PAD did not connect';
     1320     2545                  %WRITEUO;
     1321     2548    2             call TCM$ALEX_DISCONNECT;
     1322     2549    2             altreturn;
PL6.E3A0      #010=TCM$ALEX_PAD_CONNECT File=TCM$ALEX2.:TCA2TSI                  SUN 11/16/97 14:21 Page:278
     1323     2550    2           END;
     1324     2551        /*   Call intro; */
     1325     2552    1        CALL M$PROMPT(PROMPTCG);
     1326     2553    1        CALL M$EOM(EOMCG);
     1327     2554    1        call M$STRMATTR(SET_FLOW_CONTROL);
     1328     2555    1        call M$TRMISC(INHIBIT_OPERATOR_MESSAGES);
     1329     2556                                                /* Reset modem */
     1330     2557    1        CALL M$XCON(FPT_XCON);
     1331     2558        /*  Perform modem autobaud/autoparity; wait for a prompt */
     1332     2559    1        TCM_WRITECG.BUF_ = vector(substr(TCM_WRITECGBUF,,1));
     1333     2560    1        I = 3;
     1334     2561    1        call M$GTRMATTR( CURRENT_TRMATTR );
     1335     2562    1        SAVED_TRMATTR.SPEED# = ACTUAL_PAD_SPEED;
     1336     2563    1        LOW_SPEED.SPEED#     = BREAK_PAD_SPEED;
     1337     2564    1   AUTOBAUD:
     1338     2565    2        do until I = 0;
     1339     2566    2             call M$STRMATTR( SET_LOW_SPEED );
     1340     2567    2             TCM_WRITECGBUF = binasc(0);   /* Send a slow null; looks like a  */
     1341     2568    2             call M$WRITE (TCM_WRITECG);   /* break to a high speed device    */
     1342     2569    2             call M$WAIT(TCM_WAIT1);
     1343     2570    2             call M$STRMATTR( CURRENT_TRMATTR );
     1344     2571    2             call M$WAIT(TCM_WAIT1);
     1345     2572    2             TCM_WRITECGBUF = CR;
     1346     2573    2             call M$WRITE(TCM_WRITECG);
     1347     2574    2             call M$WAIT(TCM_WAIT1);
     1348     2575    2             TCM_WRITECGBUF = '.';
     1349     2576    2             call M$WRITE( TCM_WRITECG );
     1350     2577    2             call M$WAIT(TCM_WAIT1);
     1351     2578    2             TCM_WRITECGBUF = CR;
     1352     2579    2             call M$WRITE( TCM_WRITECG );
     1353     2580        /*  Wait for pad prompt      */
     1354     2581    2             RETRY = 0;
     1355     2582    2             TCM_INT = '0'B;
     1356     2583    2             TCM_MBLEN = 0;
     1357     2584    3             do while( RETRY<5 );
     1358     2585    4                  do inhibit;
     1359     2586    5                       call M$READ(TCM_READCG) whenaltreturn do; end;
PL6.E3A0      #010=TCM$ALEX_PAD_CONNECT File=TCM$ALEX2.:TCA2TSI                  SUN 11/16/97 14:21 Page:279
     1360     2587    4                       if not TCM_INT
     1361     2588    4                       then call M$WAIT(TCM_WAIT1);
     1362     2589    4                     end;
     1363     2590    4                  if TCM_INT then do;
     1364     2591    4                       call index(TEMP, PAD_PROMPT, substr(TCM_MODEMBUF,,TCM_MBLEN))
     1365     2592    5                       whenreturn do;
     1366     2593    5                            exit AUTOBAUD;
     1367     2594    5                          end;
     1368     2595    4                       if TCM_MBLEN = 1 and substr(TCM_MODEMBUF,,1) = '*'
     1369     2596    4                       then exit AUTOBAUD;
     1370     2597    4                     end;
     1371     2598    3                  RETRY = RETRY + 1;
     1372     2599    3                end;
     1373     2600    2             I = I - 1;
     1374     2601    2           end;
     1375     2602    2        if I = 0 then do;
     1376     2603    2             TCM_UOBUF = 'PAD dis not respond to autobaud sequence';
     1377     2604                  %WRITEUO;
     1378     2607    2             call TCM$ALEX_DISCONNECT;
     1379     2608    2             altreturn;
     1380     2609    2           end;
     1381     2610    1        call concat(TCM_WRITECGBUF,'SET5:1,6:5,12:1,20:0,105:2',CR);
     1382     2611    1        call index(TCM_BLEN,' ',TCM_WRITECGBUF);
     1383     2612    1        TCM_WRITECG.BUF_  = vector(substr(TCM_WRITECGBUF,,TCM_BLEN));
     1384     2613    1        call M$WRITE(TCM_WRITECG);
     1385     2614    1        call concat(TCM_UOBUF,'Calling ',ADDRESS);
     1386     2615             %WRITEUO;
     1387     2618    1        call concat(TCM_WRITECGBUF,'C R-',ADDRESS);
     1388     2619    1        call index(TCM_BLEN,'  ',TCM_WRITECGBUF);
     1389     2620    1        substr(TCM_WRITECGBUF,TCM_BLEN,1) = CR;
     1390     2621    1        TCM_BLEN = TCM_BLEN + 1;
     1391     2622    1        TCM_WRITECG.BUF_ = vector(substr(TCM_WRITECGBUF,,TCM_BLEN));
     1392     2623    1        call M$WRITE(TCM_WRITECG);
     1393     2624        /* Wait for connect message */
     1394     2625    1        RETRY = 0;
     1395     2626    1        TCM_MBLEN = 0;
     1396     2627    2   RED: do while(RETRY<60);
PL6.E3A0      #010=TCM$ALEX_PAD_CONNECT File=TCM$ALEX2.:TCA2TSI                  SUN 11/16/97 14:21 Page:280
     1397     2628    2             TCM_INT = '0'B;
     1398     2629    2             call M$READ(TCM_READCGNONTRANS); /*  Look for response  */
     1399     2630    3             do inhibit;
     1400     2631    3                  if not TCM_INT
     1401     2632    3                  then call M$WAIT(TCM_WAIT1);
     1402     2633    3                end;
     1403     2634    3             if TCM_INT then do;
     1404     2635    3                  call index(I,'clr',substr(TCM_MODEMBUF,,TCM_MBLEN));
     1405     2636    3                  if I >= TCM_MBLEN
     1406     2637    3                  then call index(I,'reset',substr(TCM_MODEMBUF,,TCM_MBLEN));
     1407     2638    3                  if I >= TCM_MBLEN
     1408     2639    3                  then call index(I,'engaged',substr(TCM_MODEMBUF,,TCM_MBLEN));
     1409     2640    3                  if I >= TCM_MBLEN
     1410     2641    3                  then call index(I,'err',substr(TCM_MODEMBUF,,TCM_MBLEN));
     1411     2642    4                  if I < TCM_MBLEN then do;
     1412     2643    4                       call concat(TCM_UOBUF, 'Circuit connection failed: ',
     1413     2644    4                         substr(TCM_MODEMBUF,,TCM_MBLEN));
     1414     2645                            %WRITEUO;
     1415     2648    4                       if substr(TCM_MODEMBUF,I,7) = 'clr occ' or
     1416     2649    4                         substr(TCM_MODEMBUF,I,7) = 'clr nc ' or
     1417     2650    4                         substr(TCM_MODEMBUF,I,7) = 'clr der' or
     1418     2651    4                         substr(TCM_MODEMBUF,I,7) = 'clr na ' or
     1419     2652    4                         substr(TCM_MODEMBUF,I,7) = 'clr np '
     1420     2653    4                       then STATUS.HOST_SHUT = '1'B;
     1421     2654    4                       call TCM$ALEX_DISCONNECT;
     1422     2655    4                       altreturn;
     1423     2656    4                     end;
     1424     2657    4                  else do;
     1425     2658    4                       call index(I,'com',substr(TCM_MODEMBUF,,TCM_MBLEN));
     1426     2659    5                       do inhibit;
     1427     2660    5                            if I<TCM_MBLEN then exit RED;
     1428     2661    5                            TCM_MBLEN = 0; /*  ? try this */
     1429     2662    5                          end;
     1430     2663    4                     end;
     1431     2664    3                end;
     1432     2665    2             RETRY = RETRY + 1;
     1433     2666    2           end;
PL6.E3A0      #010=TCM$ALEX_PAD_CONNECT File=TCM$ALEX2.:TCA2TSI                  SUN 11/16/97 14:21 Page:281
     1434     2667
     1435     2668    2        if RETRY = 60 then do;
     1436     2669    2             TCM_UOBUF = 'PAD did not connect circuit.';
     1437     2670                  %WRITEUO;
     1438     2673    2             call TCM$ALEX_DISCONNECT;
     1439     2674    2             altreturn;
     1440     2675    2           end;
     1441     2676
     1442     2677    1        TCM_MBLEN = 0;
     1443     2678    1        TCM_LOCALMODE = '0'B;
     1444     2679    1        TCM_NEEDREAD = '1'B;
     1445     2680    1        return;
     1446     2681    1   end TCM$ALEX_PAD_CONNECT;

PL6.E3A0      #010=TCM$ALEX_PAD_CONNECT File=TCM$ALEX2.:TCA2TSI                  SUN 11/16/97 14:21 Page:282
--  Include file information  --

   B$JIT.:LIBRARY  cannot be made into a system file and is referenced.
   CP_6.:LIBRARY  cannot be made into a system file and is referenced.
   B$JIT_C.:E05TOU  was found in the system file and is referenced.
   CP_6_C.:E05TOU  was found in the system file and is referenced.
      No diagnostics issued in procedure TCM$ALEX_PAD_CONNECT.

   Procedure TCM$ALEX_PAD_CONNECT requires 469 words for executable code.
   Procedure TCM$ALEX_PAD_CONNECT requires 10 words of local(AUTO) storage.

    No errors detected in file TCM$ALEX2.:TCA2TSI    .

PL6.E3A0      #010=TCM$ALEX_PAD_CONNECT File=TCM$ALEX2.:TCA2TSI                  SUN 11/16/97 14:21 Page:283

 Object Unit name= TCM$ALEX_PAD_CONNECT                       File name= TCM$ALEX2.:TCA2TOU
 UTS= NOV 16 '97 14:21:36.04 SUN                              Compiler= PL-6/E31         Sev=      00
 SharedLib= :SHARED_SYSTEM                                    Alt SharedLib=


    ****  Control sections  ****

 Sect   Type Bound  Init  Size OctSiz  Section name(segment info)
    0   Data  even  none   440    670  TCM$ALEX_PAD_CONNECT
    1   DCB   even  none     0      0  M$UC
    2   DCB   even  none     0      0  F$CG
    3   DCB   even  none     0      0  M$SI
    4   DCB   even  none     0      0  F$USER
    5   DCB   even  none     0      0  F$UO
    6  RoData even  UTS    488    750  TCM$ALEX_PAD_CONNECT
    7   Proc  even  none   469    725  TCM$ALEX_PAD_CONNECT
    8  RoData even  none     6      6  TCM$ALEX_PAD_CONNECT

    ****  Entry defs  ****

                              Check   Calling
                             calling  sequence
  Sect OctLoc Primary Altret sequence   type   Parms  Name
     7      0   yes    yes     yes      Std        4  TCM$ALEX_PAD_CONNECT
PL6.E3A0      #010=TCM$ALEX_PAD_CONNECT File=TCM$ALEX2.:TCA2TSI                  SUN 11/16/97 14:21 Page:284

  ****  Entry refs  ****

         Check        Calling
        calling       sequence
Altret sequence SRef   type   Args  Name
         yes          Async      0 TCM$ALEX_EVNT
         yes          Async      0 TCM$ALEX_XCON
 yes     yes           Std       0 TCM$ALEX_DISCONNECT
                       nStd      0 X66_AUTO_4
                       Std       0 B_CONSPOOL_D
                       nStd      0 X66_AALT
                       nStd      0 X66_INDEX
                       nStd      0 X66_ARET

  ****  Data refs  ****

  Flags:  r = read only, s = secondary
Flgs Name                             Flgs Name                             Flgs Name
     TCM_G_PARITY                          TCM_ALEX_BAILOUT                      M$UC
     B$JIT$                                F$CG                                  M$SI
     F$USER                                F$UO                                  F$CG$
     TCM_USING_PAD                         TCM_COMMAND                           TCM_INT
     TCM_NEEDREAD                          TCM_LOCALMODE                         TCM_CONNECTED
     TCM_MODEMBUF                          TCM_MBLEN                             TCM_EPTBLI
     TCM_OPTBLI                            TCM_STRIPPAR                          TCM_OUTREC
     TCM_DELETEMES                         TCM_WRITECG                           TCM_WRITECGBUF
     TCM_READCG                            TCM_READCGBUF                         TCM_BLEN
     TCM_TURNON                            TCM_TURNOFF                           TCM_XCON$
     TCM_WAIT1                             TCM_WRITEUO                           TCM_UOBUF
     TCM_READUSERBUF                       B_VECTNIL

  ****  Segment refs  ****

  Flags:  r = read only, s = secondary
Flgs Name                             Flgs Name                             Flgs Name
     ISSID                                 NULLSID                               ROSID
PL6.E3A0      #010=TCM$ALEX_PAD_CONNECT File=TCM$ALEX2.:TCA2TSI                  SUN 11/16/97 14:21 Page:285


      916        1        /*T***********************************************************/
      917        2        /*T*                                                         */
      918        3        /*T* Copyright (c) Bull HN Information Systems Inc., 1997    */
      919        4        /*T*                                                         */
      920        5        /*T***********************************************************/
      921        6        TCM$ALEX_PAD_CONNECT: proc(ADDRESS, PAR, STATUS, BAILOUT) altret;

      6  7 000000   000000 700200 xent  TCM$ALEX_PA* TSX0  ! X66_AUTO_4
         7 000001   000012 000004                    ZERO    10,4

      922        7        /*X* CCC,DMR,PLM=5,IND=5,CSU=3,EXM=0,ECU=3,MOC,DCI=5,CRT=5 */
      923        8    1   dcl TBUF char(1) static;
      924        9    1   dcl PAR    ubin;
      925       10    1   dcl ADDRESS   char(32);
      926       11    1   dcl 1  STATUS   aligned,
      927       12    1         2 HOST_SHUT bit(1);
      928       13    1   dcl TCM_G_PARITY ubin symref;
      929       14    1   dcl BAILOUT remember;
      930       15    1   dcl TCM_ALEX_BAILOUT remember symref;
      931       16    1   dcl TCM_ALEX_BAILOUT_ENABLED redef TCM_ALEX_BAILOUT bit(72);
      932       17        %include CP_6;
      933       98                                                /* Based */
      934       99
      935      100        %F$DCB;
      936      157        %MACRO WRITEUO;
      937      158             call M$WRITE(TCM_WRITEUO) whenaltreturn do; end;
      938      159        %MEND;
      939      160        %include B$JIT;
      940      450    1   dcl B$JIT$ ptr symref;
      941      451        %B$TCB;
      942      454        %B$NWIO;
      943      539        %B$CGAUCRD;
      944      602    1   dcl F$CG dcb;
      945      603    1   dcl M$SI dcb;
      946      604    1   dcl F$USER dcb;
      947      605    1   dcl F$UO   dcb;
PL6.E3A0      #010=TCM$ALEX_PAD_CONNECT File=TCM$ALEX2.:TCA2TSI                  SUN 11/16/97 14:21 Page:286
      948      606    1   dcl F$CG$  ptr symref;
      949      607    1   dcl F$USER$ ptr static;
      950      608    1   dcl 1 SLOG static,
      951      609    1         2 LEN ubin(9) caligned,
      952      610    1         2 TEXT(0:23) char(1) caligned;
      953      611    1   dcl TCM_USING_PAD bit(1) SYMREF;
      954      612    1   dcl TCM_COMMAND   bit(1) symref;
      955      613    1   dcl TCM_EXEC      bit(1) symref;
      956      614    1   dcl TCM_INT       bit(1) symref;
      957      615    1   dcl TCM_LOCAL     bit(1) symref;
      958      616    1   dcl TCM_NEEDREAD  bit(1) symref;
      959      617    1   dcl TCM_LOCALMODE bit(1) symref;
      960      618    1   dcl TCM_CONNECTED bit(1) symref;
      961      619    1   dcl TCM_MODEMBUF  char(1280) symref;
      962      620    1   dcl TCM_MBLEN     ubin symref;
      963      621    1   dcl RETRY     ubin static;
      964      622    1   dcl TEMP      ubin static;
      965      623    1   dcl ACTUAL_PAD_SPEED ubin static init(12); /* Use 2400 baud */
      966      624    1   dcl BREAK_PAD_SPEED ubin static init(0); /* Try 50 baud   */
      967      625    1   dcl CMDI             ubin static;
      968      626    1   dcl TCM_TIMEOUT          ubin symref;
      969      627    1   dcl I                ubin static;
      970      628    1   dcl CR               char(1) static init(binasc(13));
      971      629    1   dcl LF               char(1) static init(binasc(10));
      972      630    1   dcl FLAG             ubin static;
      973      631    1   dcl TCM_EPTBLI(0:3)      bit(32) unal symref;
      974      632    1   dcl EPTBL(0:127)     redef TCM_EPTBLI bit(1) unal;
      975      633    1   dcl TCM_OPTBLI(0:3)      bit(32) unal symref;
      976      634    1   dcl OPTBL(0:127)     redef TCM_OPTBLI bit(1) unal;
      977      635    1   dcl EIGHT_VAL        ubin(9) static unal;
      978      636    1   dcl EIGHT_TBL(0:4)   ubin(9) static unal init(184,56,184,184,56);
      979      637    1   dcl PAREN_VAL        ubin(9) static unal;
      980      638    1   dcl PAREN_TBL(0:4)   ubin(9) static unal init(40,168,40,168,40);
      981      639    1   dcl TCM_STRIPPAR(0:511)  ubin(9) unal symref;
      982      640    1   dcl TCM_OUTREC           char(332) symref;
      983      641    1   dcl 1 WARNMES        static,
      984      642    1         2 *            ubin(9) unal init(13),
PL6.E3A0      #010=TCM$ALEX_PAD_CONNECT File=TCM$ALEX2.:TCA2TSI                  SUN 11/16/97 14:21 Page:287
      985      643    1         2 *            ubin(9) unal init(07),
      986      644    1         2 *            char(0) init('WARNING, 5 minutes without IO '),
      987      645    1         2 *            char(0) init('have passed, ALEX will LOG you'),
      988      646    1         2 *            char(0) init(' off in 1 minute.'),
      989      647    1         2 *            ubin(9) unal init(07),
      990      648    1         2 *            ubin(9) unal init(13);
      991      649    1   dcl 1 OFFMES         static,
      992      650    1         2 *            ubin(9) unal init(13),
      993      651    1         2 *            ubin(9) unal init(07),
      994      652    1         2 *            char(0) init('6 minutes without IO have pass'),
      995      653    1         2 *            char(0) init('ed, ALEX has logged you off'),
      996      654    1         2 *            ubin(9) unal init(07),
      997      655    1         2 *            ubin(9) unal init(13);
      998      656
      999      657                                                /* Fpts */
     1000      658
     1001      659        %FPT_OPEN( FPTN=OPENCG, STCLASS=CONSTANT,
     1002      660                   SCRUB=YES,
     1003      661                   DCB=F$CG,
     1004      662                   AU=YES,
     1005      663                   NAME=CG_NAME,
     1006      664                   ACCT=CG_ACCT,
     1007      665                   ACCESS=ACC,
     1008      666                   ACSVEH=ACV,
     1009      667                   ASN=COMGROUP,
     1010      668                   SETSTA=OPENSTA,
     1011      669                   FUN=CREATE,
     1012      670                   IXTNSIZE=200,
     1013      671                   SHARE=ALL,
     1014      672                   CTG=YES,
     1015      673                   EXIST=OLDFILE);
     1016      782
     1017      783        %VLP_SETSTA(  FPTN=OPENSTA,  STCLASS=CONSTANT,
     1018      784                      MYSTATION='ALEX');
     1019      812
     1020      813        %VLP_NAME(    FPTN=CG_NAME,  STCLASS=CONSTANT,
     1021      814                      NAME='PADCG');
PL6.E3A0      #010=TCM$ALEX_PAD_CONNECT File=TCM$ALEX2.:TCA2TSI                  SUN 11/16/97 14:21 Page:288
     1022      841
     1023      842        %VLP_ACCT(    FPTN=CG_ACCT, STCLASS=CONSTANT,
     1024      843                      ACCT=':SYS');
     1025      856
     1026      857        %VLP_ATTR(    FPTN=ACC);
     1027      871        %VLP_ACCESS(  READ=YES, DELR=YES, WNEW=YES, UPD=YES, DELF=YES,
     1028      872                      REATTR=YES, AU=YES, TCTL=YES, ACCT='BJF?');
     1029      889        %VLP_ACCESS(  EXEC=YES, ACCT='?', LAST=";");
     1030      906
     1031      907        %VLP_ATTR(    FPTN=ACV);
     1032      921        %VLP_ACSVEH(  READ=YES, DELR=YES, WNEW=YES, UPD=YES, DELF=YES,
     1033      922                      REATTR=YES, AU=YES, TCTL=YES, VEHICLE='MULSEND',LAST=";");
     1034      939
     1035      940        %FPT_OPEN(    FPTN=DELCG, STCLASS=CONSTANT,
     1036      941                      SCRUB=YES,
     1037      942                      DCB=F$CG,
     1038      943                      ASN=FILE,
     1039      944                      NAME=CG_NAME,
     1040      945                      ACCT=CG_ACCT,
     1041      946                      FUN=IN,
     1042      947                      SHARE=ALL,
     1043      948                      DELETE=YES);
     1044     1057
     1045     1058        %FPT_OPEN(    FPTN=OPENUSER,
     1046     1059                      DVFC='@',
     1047     1060                      DCB=F$USER,
     1048     1061                      ORG=TERMINAL,
     1049     1062                      FUN=UPDATE,
     1050     1063                      ASN=DEVICE);
     1051     1172
     1052     1173        %FPT_FWCG(    FPTN=TCM_DELETEMES,   STCLASS="SYMREF",
     1053     1174                      DCB=F$CG,
     1054     1175                      CRITERIA=VLP_CGMA,
     1055     1176                      DELETE=YES,
     1056     1177                      SCA=VLP_SCGMA);
     1057     1196
     1058     1197        %VLP_CGMA(                      STCLASS=CONSTANT,
PL6.E3A0      #010=TCM$ALEX_PAD_CONNECT File=TCM$ALEX2.:TCA2TSI                  SUN 11/16/97 14:21 Page:289
     1059     1198                      ORIGIN='?',
     1060     1199                      DEST='?');
     1061     1226
     1062     1227        %VLP_SCGMA(                     STCLASS=CONSTANT,
     1063     1228                      ORIGIN=YES,
     1064     1229                      DEST=YES);
     1065     1246
     1066     1247        %FPT_WRITE(   FPTN=TCM_WRITECG,     STCLASS=SYMREF,
     1067     1248                      DCB=F$CG,
     1068     1249                      STATION=WRITE_STATION,
     1069     1250                      TRANS=YES);
     1070     1281
     1071     1282    1   dcl TCM_WRITECGBUF         char(256) symref;
     1072     1283
     1073     1284        %FPT_WRITE(   FPTN=TCM_WRITEUSER,   STCLASS="SYMREF",
     1074     1285                      DCB=F$USER,
     1075     1286                      TRANS=YES,
     1076     1287                      BUF=TCM_WRITEUSERBUF);
     1077     1318
     1078     1319    1   dcl  TCM_WRITEUSERBUF      char(256) symref;
     1079     1320    1   dcl  CMDBUF            char(256) static;
     1080     1321    1   dcl  CMDBUFLEN         ubin      static;
     1081     1322
     1082     1323        %VLP_STATION( FPTN=WRITE_STATION,  STCLASS=STATIC,
     1083     1324                      STATION='MODEM');
     1084     1351
     1085     1352        %VLP_STATION( FPTN=CMDSTATION,     STCLASS=STATIC,
     1086     1353                      STATION='MODEM',
     1087     1354                      EOFNONE=YES);
     1088     1381
     1089     1382        %FPT_TRMISC(  FPTN=INHIBIT_OPERATOR_MESSAGES,
     1090     1383                      STCLASS=CONSTANT,
     1091     1384                      DCB=F$CG,
     1092     1385                      STATION=WRITE_STATION,
     1093     1386                      ANNOUNCE=NO,
     1094     1387                      SEND=NO);
     1095     1408
PL6.E3A0      #010=TCM$ALEX_PAD_CONNECT File=TCM$ALEX2.:TCA2TSI                  SUN 11/16/97 14:21 Page:290
     1096     1409        %FPT_TRMATTR( FPTN=CURRENT_TRMATTR,
     1097     1410                      STCLASS=CONSTANT,
     1098     1411                      DCB=F$CG,
     1099     1412                      STATION=WRITE_STATION,
     1100     1413                      TRMATTR=SAVED_TRMATTR);
     1101     1438
     1102     1439        %VLP_TRMATTR( FPTN=SAVED_TRMATTR);
     1103     1477
     1104     1478        %FPT_TRMATTR( FPTN=SET_LOW_SPEED,
     1105     1479                      STCLASS=CONSTANT,
     1106     1480                      DCB=F$CG,
     1107     1481                      STATION=WRITE_STATION,
     1108     1482                      TRMATTR=LOW_SPEED);
     1109     1507
     1110     1508        %VLP_TRMATTR( FPTN=LOW_SPEED,         STCLASS=STATIC,
     1111     1509                      PARITY=NONE);
     1112     1547
     1113     1548        %FPT_READ(    FPTN=TCM_READCMD,           STCLASS="SYMREF",
     1114     1549                      DCB=F$CG,
     1115     1550                      STATION=CMDSTATION,
     1116     1551                      TRANS=YES,
     1117     1552                      WAIT=YES,
     1118     1553                      BUF=TCM_READCGBUF);
     1119     1592
     1120     1593        %FPT_READ(    FPTN=TCM_READCG,            STCLASS="SYMREF",
     1121     1594                      STATION=CGSTATION,
     1122     1595                      TRANS=YES,
     1123     1596                      WAIT=NO,
     1124     1597                      EVENT=1,
     1125     1598                      DCB=F$CG,
     1126     1599                      BUF=TCM_READCGBUF);
     1127     1638
     1128     1639        %FPT_READ(    FPTN=TCM_READCGNONTRANS,    STCLASS=CONSTANT,
     1129     1640                      STATION=CGSTATION,
     1130     1641                      TRANS=NO,
     1131     1642                      WAIT=NO,
     1132     1643                      EVENT=1,
PL6.E3A0      #010=TCM$ALEX_PAD_CONNECT File=TCM$ALEX2.:TCA2TSI                  SUN 11/16/97 14:21 Page:291
     1133     1644                      DCB=F$CG,
     1134     1645                      BUF=TCM_READCGBUF);
     1135     1684
     1136     1685        %FPT_READ(    FPTN=READAU,            STCLASS=CONSTANT,
     1137     1686                      DCB=F$CG,
     1138     1687                      WAIT=NO,
     1139     1688                      EVENT=1,
     1140     1689                      STATION=AUSTATION,
     1141     1690                      BUF=TCM_READCGBUF);
     1142     1729
     1143     1730        %VLP_STATION( FPTN=AUSTATION);  /*N* ADD MSGTYP='*?'  */
     1144     1757
     1145     1758        %VLP_STATION( FPTN=CGSTATION, STATION='MODEM');
     1146     1785    1   dcl TCM_READCGBUF                char(256) symref;
     1147     1786
     1148     1787        %FPT_READ(    FPTN=TCM_READCGBIG,         STCLASS=CONSTANT,
     1149     1788                      DCB=F$CG,
     1150     1789                      BUF=BIGTBUF);
     1151     1828    1   dcl BIGTBUF                  char(256) static;
     1152     1829    1   dcl BUFC                     char(TCM_BLEN) based;
     1153     1830    1   dcl TCM_BLEN                     ubin      symref;
     1154     1831
     1155     1832        %FPT_CLOSE(   FPTN=CLOSELO,           STCLASS=CONSTANT,
     1156     1833                      DCB=F$UO);
     1157     1875
     1158     1876        %FPT_ACTIVATE(FPTN=TCM_TURNON,            STCLASS="SYMREF",
     1159     1877                      TRANS=YES,
     1160     1878                      ABTREAD='1'B,
     1161     1879                      DCB=F$CG,
     1162     1880                      FLUSH=YES,
     1163     1881                      STATION=WRITE_STATION);
     1164     1904
     1165     1905        %FPT_ACTIVATE(FPTN=TCM_TURNOFF,           STCLASS="SYMREF",
     1166     1906                      DCB=F$CG,
     1167     1907                      DISCONNECT=NO,
     1168     1908                      STATION=WRITE_STATION,
     1169     1909                      FLUSH=YES);
PL6.E3A0      #010=TCM$ALEX_PAD_CONNECT File=TCM$ALEX2.:TCA2TSI                  SUN 11/16/97 14:21 Page:292
     1170     1932
     1171     1933        %FPT_CGCTL(                           STCLASS=CONSTANT,
     1172     1934                      DCB=F$CG,
     1173     1935                      CGCP=VLP_CGCP);
     1174     1958
     1175     1959        %VLP_CGCP(                            STCLASS=CONSTANT,
     1176     1960                      MAXPG=25,
     1177     1961                      CONMSG=YES,
     1178     1962                      TERMCONAU=NO,
     1179     1963                      DCBCONAU=NO,
     1180     1964                      TERMCONNAU=NO,
     1181     1965                      DCBCONNAU=NO,
     1182     1966                      AUDCONDCB=DEACTIVATE,
     1183     1967                      AUDCONTERM=DISCONNECT,
     1184     1968                      DCBCONLGL=YES,
     1185     1969                      TERMCONLGL=YES);
     1186     2012
     1187     2013        %FPT_CGINFO(  FPTN=GET_INFO,          STCLASS=CONSTANT,
     1188     2014                      DCB=F$CG,
     1189     2015                      STATS=VLR_CGSTATS);
     1190     2035
     1191     2036        %VLR_CGSTATS( STCLASS=STATIC);
     1192     2060
     1193     2061        %FPT_EVENT(   FPTN=FPT_EVENT,         STCLASS=CONSTANT,
     1194     2062                      UENTRY=TCM$ALEX_EVNT);
     1195     2076
     1196     2077        %FPT_XCON(    UENTRY=TCM$ALEX_XCON, PXCON=TCM_XCON$);
     1197     2091    1   DCL TCM_XCON$ EPTR SYMREF;
     1198     2092
     1199     2093        %FPT_WAIT(    FPTN=TCM_NORM,    UNITS=2,  STCLASS="SYMREF");
     1200     2107        %FPT_WAIT(    FPTN=TCM_WAIT1,   UNITS=1,  STCLASS="SYMREF");
     1201     2121        %FPT_WAIT(    FPTN=TCM_TAKE5,   UNITS=5,  STCLASS="SYMREF");
     1202     2135        %FPT_WAIT(    FPTN=TAKE15,  UNITS=15, STCLASS="CONSTANT");
     1203     2149
     1204     2150        %FPT_READ(    FPTN=READSI,   DCB=M$SI,   BUF=SIBUF);
     1205     2189        %FPT_WRITE(   FPTN=TCM_WRITEUO,  DCB=F$UO,   BUF=TCM_UOBUF, STCLASS=SYMREF);
     1206     2220
PL6.E3A0      #010=TCM$ALEX_PAD_CONNECT File=TCM$ALEX2.:TCA2TSI                  SUN 11/16/97 14:21 Page:293
     1207     2221    1   dcl  SIBUF                   char(256) static;
     1208     2222    1   dcl  TCM_UOBUF                   char(256) symref;
     1209     2223
     1210     2224        %FPT_READ(    FPTN=READUSER, DCB=F$USER, BUF=TCM_READUSERBUF, TRANS=YES);
     1211     2263
     1212     2264    1   dcl  TCM_READUSERBUF             char(256) symref;
     1213     2265
     1214     2266        %FPT_PROMPT(  FPTN=PROMPTUSER,        STCLASS=CONSTANT,
     1215     2267                      DCB=M$UC,
     1216     2268                      VFC=YES,
     1217     2269                      PROMPT=PCHAR);
     1218     2297
     1219     2298        %FPT_PROMPT(  FPTN=PROMPTCG,          STCLASS=CONSTANT,
     1220     2299                      DCB=F$CG,
     1221     2300                      VFC=YES,
     1222     2301                      PROMPT=PCHAR,
     1223     2302                      STATION=WRITE_STATION);
     1224     2330
     1225     2331    1   dcl PCHAR                    char(1) constant init('@');
     1226     2332    1   dcl LCLPROMPT                char(0) static init('Local:');
     1227     2333
     1228     2334        %FPT_EOM(     FPTN=EOMCG,             STCLASS=STATIC,
     1229     2335                      DCB=F$CG,
     1230     2336                      STATION=WRITE_STATION,
     1231     2337                      TIMEOUT=1,
     1232     2338                      UTYPE=SEC);
     1233     2368
     1234     2369        %FPT_EOM(     FPTN=EOMUSER,           STCLASS=CONSTANT,
     1235     2370                      DCB=M$UC,
     1236     2371                      TIMEOUT=50,
     1237     2372                      UTYPE=MIL10);
     1238     2402
     1239     2403        %FPT_TRMATTR( FPTN=SET_FLOW_CONTROL,  STCLASS=CONSTANT,
     1240     2404                      TRMATTR=DC1DC3,
     1241     2405                      DCB=F$CG,
     1242     2406                      STATION=WRITE_STATION);
     1243     2431
PL6.E3A0      #010=TCM$ALEX_PAD_CONNECT File=TCM$ALEX2.:TCA2TSI                  SUN 11/16/97 14:21 Page:294
     1244     2432        %VLP_TRMATTR( FPTN=DC1DC3,            STCLASS=CONSTANT,
     1245     2433                      DVCFLWCTRALG=DC1DC3);
     1246     2471
     1247     2472    1   dcl  REMOVE_PROGRAM          char(0) constant
     1248     2473    1        init(%CONCAT(BITASC('015'O),'REMOTE.DBKPL6',BITASC('015'O)));
     1249     2474
     1250     2475    1   dcl  PAD_PROMPT              char(2) constant
     1251     2476    1        init(%concat(binasc(10),'*'));
     1252     2477
     1253     2478    1   dcl  TCM$ALEX_EVNT              entry async;
     1254     2479    1   dcl  TCM$ALEX_DISCONNECT         entry altret;
     1255     2480    1   dcl  KOZINN                  entry(1) altret;
     1256     2481    1   dcl  TCM$ALEX_XCON               entry async;
     1257     2482    1   dcl  TCM$ALEX_OK                      entry altret;
     1258     2483    1   dcl  INTRO                   entry;
     1259     2484                                                /* Start here */
     1260     2485
     1261     2486    1        STATUS = '0'B;

   2486  7 000002   200005 470500                    LDP0    @STATUS,,AUTO
         7 000003   000000 450100                    STZ     0,,PR0

     1262     2487    1        if addr(BAILOUT) = addr(NIL)

   2487  7 000004   200006 236100                    LDQ     @BAILOUT,,AUTO
         7 000005   000001 116000 xsym               CMPQ    B_VECTNIL+1
         7 000006   000013 601000 7                  TNZ     s:2489

     1263     2488    1        then TCM_ALEX_BAILOUT_ENABLED = '0'B;

   2488  7 000007   000000 235003                    LDA     0,DU
         7 000010   000000 236003                    LDQ     0,DU
         7 000011   000000 757000 xsym               STAQ    TCM_ALEX_BAILOUT
         7 000012   000016 710000 7                  TRA     s:2491

     1264     2489    1        else TCM_ALEX_BAILOUT = BAILOUT;

PL6.E3A0      #010=TCM$ALEX_PAD_CONNECT File=TCM$ALEX2.:TCA2TSI                  SUN 11/16/97 14:21 Page:295
   2489  7 000013   200006 471500                    LDP1    @BAILOUT,,AUTO
         7 000014   100000 237100                    LDAQ    0,,PR1
         7 000015   000000 757000 xsym               STAQ    TCM_ALEX_BAILOUT

     1265     2490
     1266     2491    1        TCM_OUTREC = ' ';

   2491  7 000016   040000 100400                    MLR     fill='040'O
         7 000017   000035 000001 xsym               ADSC9   B_VECTNIL+29             cn=0,n=1
         7 000020   000000 000514 xsym               ADSC9   TCM_OUTREC               cn=0,n=332

     1267     2492    2        DO I=0 TO 3;

   2492  7 000021   000016 450000 0                  STZ     I

     1268     2493    3             DO TCM_BLEN=I*128 TO (I+1)*128;

   2493  7 000022   000016 235000 0                  LDA     I
         7 000023   000007 735000                    ALS     7
         7 000024   000000 755000 xsym               STA     TCM_BLEN
         7 000025   000037 710000 7                  TRA     s:2495+2

     1269     2494    3                  TCM_STRIPPAR(TCM_BLEN)=MOD(TCM_BLEN,128);

   2494  7 000026   000000 236000 xsym               LDQ     TCM_BLEN
         7 000027   000177 376007                    ANQ     127,DL
         7 000030   200010 756100                    STQ     @BAILOUT+2,,AUTO
         7 000031   000000 235000 xsym               LDA     TCM_BLEN
         7 000032   000005 101500                    MRL     fill='000'O
         7 000033   200010 000004                    ADSC9   @BAILOUT+2,,AUTO         cn=0,n=4
         7 000034   000000 000001 xsym               ADSC9   TCM_STRIPPAR,A           cn=0,n=1

     1270     2495    3                END;

   2495  7 000035   000001 035007                    ADLA    1,DL
         7 000036   000000 755000 xsym               STA     TCM_BLEN
         7 000037   000016 236000 0                  LDQ     I
PL6.E3A0      #010=TCM$ALEX_PAD_CONNECT File=TCM$ALEX2.:TCA2TSI                  SUN 11/16/97 14:21 Page:296
         7 000040   000007 736000                    QLS     7
         7 000041   000200 036007                    ADLQ    128,DL
         7 000042   000000 116000 xsym               CMPQ    TCM_BLEN
         7 000043   000026 603000 7                  TRC     s:2494

     1271     2496    2           END;

   2496  7 000044   000016 235000 0                  LDA     I
         7 000045   000001 035007                    ADLA    1,DL
         7 000046   000016 755000 0                  STA     I
         7 000047   000004 115007                    CMPA    4,DL
         7 000050   000022 602000 7                  TNC     s:2493

     1272     2497        /* Get users parity */
     1273     2498    1        EIGHT_VAL=EIGHT_TBL(PAR);

   2498  7 000051   200004 470500                    LDP0    @PAR,,AUTO
         7 000052   000000 235100                    LDA     0,,PR0
         7 000053   000000 100405                    MLR     fill='000'O
         7 000054   000023 000001 0                  ADSC9   EIGHT_TBL,A              cn=0,n=1
         7 000055   000022 000001 0                  ADSC9   EIGHT_VAL                cn=0,n=1

     1274     2499    1        TCM_G_PARITY = PAR;

   2499  7 000056   000000 755000 xsym               STA     TCM_G_PARITY

     1275     2500    1        PAREN_VAL=PAREN_TBL(PAR);

   2500  7 000057   000000 235100                    LDA     0,,PR0
         7 000060   000000 100405                    MLR     fill='000'O
         7 000061   000026 000001 0                  ADSC9   PAREN_TBL,A              cn=0,n=1
         7 000062   000025 000001 0                  ADSC9   PAREN_VAL                cn=0,n=1

     1276     2501    1        TCM_USING_PAD = '1'B;

   2501  7 000063   400000 236003                    LDQ     -131072,DU
         7 000064   000000 756000 xsym               STQ     TCM_USING_PAD
PL6.E3A0      #010=TCM$ALEX_PAD_CONNECT File=TCM$ALEX2.:TCA2TSI                  SUN 11/16/97 14:21 Page:297

     1277     2502    1        TCM_CONNECTED = '0'B;

   2502  7 000065   000000 450000 xsym               STZ     TCM_CONNECTED

     1278     2503    1        CALL M$EVENT(FPT_EVENT);

   2503  7 000066   000556 630400 6                  EPPR0   FPT_EVENT
         7 000067   010001 713400                    CLIMB   4097
         7 000070   400000 401760                    pmme    nvectors=1

     1279     2504    1        call M$OPEN(OPENUSER);

   2504  7 000071   000110 630400 0                  EPPR0   OPENUSER
         7 000072   050000 713400                    CLIMB   open
         7 000073   410400 401760                    pmme    nvectors=18

     1280     2505                                                /* Delete current comgroup  */
     1281     2506        /*   Call M$OPEN(DELCG) whenaltreturn do; end; */
     1282     2507    1        CALL M$OPEN (OPENCG) ALTRET(BADOPEN);

   2507  7 000074   000000 630400 6                  EPPR0   OPENCG
         7 000075   450000 713400                    CLIMB   alt,open
         7 000076   410400 401760                    pmme    nvectors=18
         7 000077   000101 702000 7                  TSX2    BADOPEN

     1283     2508    2        DO WHILE ('0'B);

   2508  7 000100   000116 710000 7                  TRA     s:2518

     1284     2509    2   BADOPEN:
     1285     2510    2             CALL M$OPEN (DELCG) ALTRET(CANT_CONTINUE); /* Delete bad comgroup */

   2510  7 000101   000112 630400 6     BADOPEN      EPPR0   DELCG
         7 000102   450000 713400                    CLIMB   alt,open
         7 000103   410400 401760                    pmme    nvectors=18
         7 000104   000112 702000 7                  TSX2    CANT_CONTINUE
PL6.E3A0      #010=TCM$ALEX_PAD_CONNECT File=TCM$ALEX2.:TCA2TSI                  SUN 11/16/97 14:21 Page:298

     1286     2511    2             CALL M$OPEN (OPENCG) ALTRET(CANT_CONTINUE); /* Try again */

   2511  7 000105   000000 630400 6                  EPPR0   OPENCG
         7 000106   450000 713400                    CLIMB   alt,open
         7 000107   410400 401760                    pmme    nvectors=18
         7 000110   000112 702000 7                  TSX2    CANT_CONTINUE

     1287     2512    3             DO WHILE ('0'B);

   2512  7 000111   000116 710000 7                  TRA     s:2518

     1288     2513    3   CANT_CONTINUE:
     1289     2514    3                  call TCM$ALEX_DISCONNECT;

   2514  7 000112   000002 631400 xsym  CANT_CONTIN* EPPR1   B_VECTNIL+2
         7 000113   000000 701000 xent               TSX1    TCM$ALEX_DISCONNECT
         7 000114   000000 011000                    NOP     0

     1290     2515    3                  altreturn;

   2515  7 000115   000000 702200 xent               TSX2  ! X66_AALT

     1291     2516    3                END;

     1292     2517    2           END;

     1293     2518    1        TCM_INT = '0'B;

   2518  7 000116   000000 450000 xsym               STZ     TCM_INT

     1294     2519    1        F$CG$ = dcbaddr(dcbnum(F$CG));

   2519  7 000117   000000 236007 xsym               LDQ     F$CG,DL
         7 000120   000000 470400 8                  LDP0    0
         7 000121   000000 471500                    LDP1    0,,PR0
         7 000122   100000 236106                    LDQ     0,QL,PR1
PL6.E3A0      #010=TCM$ALEX_PAD_CONNECT File=TCM$ALEX2.:TCA2TSI                  SUN 11/16/97 14:21 Page:299
         7 000123   000000 756000 xsym               STQ     F$CG$

     1295     2520    1        F$USER$ = dcbaddr(dcbnum(F$USER));

   2520  7 000124   000000 236007 xsym               LDQ     F$USER,DL
         7 000125   100000 236106                    LDQ     0,QL,PR1
         7 000126   000001 756000 0                  STQ     F$USER$

     1296     2521    2        call M$FWCG(TCM_DELETEMES) whenaltreturn do; end;

   2521  7 000127   000000 630400 xsym               EPPR0   TCM_DELETEMES
         7 000130   500005 713400                    CLIMB   alt,+32773
         7 000131   406400 401760                    pmme    nvectors=14
         7 000132   000134 702000 7                  TSX2    s:2522
         7 000133   000134 710000 7                  TRA     s:2522

     1297     2522    1        CALL M$CGCTL (FPT_CGCTL);

   2522  7 000134   000364 630400 6                  EPPR0   FPT_CGCTL
         7 000135   100003 713400                    CLIMB   32771
         7 000136   411400 401760                    pmme    nvectors=20

     1298     2523        /* Wait for logon message from device */
     1299     2524    1        CALL M$DEACTIVATE(TCM_TURNOFF);    /* Flush anything pending */

   2524  7 000137   000000 630400 xsym               EPPR0   TCM_TURNOFF
         7 000140   100001 713400                    CLIMB   32769
         7 000141   401400 401760                    pmme    nvectors=4

     1300     2525    1        TCM_MBLEN=0;

   2525  7 000142   000000 450000 xsym               STZ     TCM_MBLEN

     1301     2526    1        TCM_COMMAND='1'B;

   2526  7 000143   400000 236003                    LDQ     -131072,DU
         7 000144   000000 756000 xsym               STQ     TCM_COMMAND
PL6.E3A0      #010=TCM$ALEX_PAD_CONNECT File=TCM$ALEX2.:TCA2TSI                  SUN 11/16/97 14:21 Page:300

     1302     2527    1        CALL M$READ (READAU);

   2527  7 000145   000272 630400 6                  EPPR0   READAU
         7 000146   040000 713400                    CLIMB   read
         7 000147   401400 401760                    pmme    nvectors=4

     1303     2528    1        I = 0;

   2528  7 000150   000016 450000 0                  STZ     I

     1304     2529    2        do until VLR_CGSTATS.NUMTERMS > 0  or  I = 15;

     1305     2530    2             I = I + 1;

   2530  7 000151   000016 235000 0                  LDA     I
         7 000152   000001 035007                    ADLA    1,DL
         7 000153   000016 755000 0                  STA     I

     1306     2531    2             call M$WAIT(TCM_WAIT1);

   2531  7 000154   000000 630400 xsym               EPPR0   TCM_WAIT1
         7 000155   020006 713400                    CLIMB   8198
         7 000156   400400 401760                    pmme    nvectors=2

     1307     2532    2             call M$CGINFO(GET_INFO);

   2532  7 000157   000474 630400 6                  EPPR0   GET_INFO
         7 000160   100004 713400                    CLIMB   32772
         7 000161   411400 401760                    pmme    nvectors=20

     1308     2533    2           end;

   2533  7 000162   000477 235000 0                  LDA     VLR_CGSTATS+7
         7 000163   000167 605400 7                  TPNZ    s:2534
         7 000164   000016 236000 0                  LDQ     I
         7 000165   000017 116007                    CMPQ    15,DL
PL6.E3A0      #010=TCM$ALEX_PAD_CONNECT File=TCM$ALEX2.:TCA2TSI                  SUN 11/16/97 14:21 Page:301
         7 000166   000151 601000 7                  TNZ     s:2530

     1309     2534    2        if VLR_CGSTATS.NUMTERMS > 0 then do;

   2534  7 000167   000000 115003                    CMPA    0,DU
         7 000170   000213 604400 7                  TMOZ    s:2544

     1310     2535                                                /* For now, assume logon */
     1311     2536    2             TCM_CONNECTED = '1'B;

   2536  7 000171   400000 236003                    LDQ     -131072,DU
         7 000172   000000 756000 xsym               STQ     TCM_CONNECTED

     1312     2537    2             CALL M$ACTIVATE(TCM_TURNON);

   2537  7 000173   000000 630400 xsym               EPPR0   TCM_TURNON
         7 000174   100000 713400                    CLIMB   32768
         7 000175   401400 401760                    pmme    nvectors=4

     1313     2538    2             CALL M$WAIT(TCM_WAIT1);

   2538  7 000176   000000 630400 xsym               EPPR0   TCM_WAIT1
         7 000177   020006 713400                    CLIMB   8198
         7 000200   400400 401760                    pmme    nvectors=2

     1314     2539    2             CALL M$DEACTIVATE(TCM_TURNOFF); /* Abrt pending read */

   2539  7 000201   000000 630400 xsym               EPPR0   TCM_TURNOFF
         7 000202   100001 713400                    CLIMB   32769
         7 000203   401400 401760                    pmme    nvectors=4

     1315     2540    2             CALL M$WAIT(TCM_WAIT1);

   2540  7 000204   000000 630400 xsym               EPPR0   TCM_WAIT1
         7 000205   020006 713400                    CLIMB   8198
         7 000206   400400 401760                    pmme    nvectors=2

PL6.E3A0      #010=TCM$ALEX_PAD_CONNECT File=TCM$ALEX2.:TCA2TSI                  SUN 11/16/97 14:21 Page:302
     1316     2541    2             CALL M$ACTIVATE(TCM_TURNON);  /* Now its ready */

   2541  7 000207   000000 630400 xsym               EPPR0   TCM_TURNON
         7 000210   100000 713400                    CLIMB   32768
         7 000211   401400 401760                    pmme    nvectors=4

     1317     2542    2           END;

   2542  7 000212   000227 710000 7                  TRA     s:2552

     1318     2543    2        ELSE DO;

     1319     2544    2             TCM_UOBUF='PAD did not connect';

   2544  7 000213   040000 100400                    MLR     fill='040'O
         7 000214   000657 000023 6                  ADSC9   PAD_PROMPT+1             cn=0,n=19
         7 000215   000000 000400 xsym               ADSC9   TCM_UOBUF                cn=0,n=256

     1320     2545                  %WRITEUO;

   2546  7 000216   000000 630400 xsym               EPPR0   TCM_WRITEUO
         7 000217   440001 713400                    CLIMB   alt,write
         7 000220   401400 401760                    pmme    nvectors=4
         7 000221   000223 702000 7                  TSX2    s:2548
         7 000222   000223 710000 7                  TRA     s:2548

     1321     2548    2             call TCM$ALEX_DISCONNECT;

   2548  7 000223   000002 631400 xsym               EPPR1   B_VECTNIL+2
         7 000224   000000 701000 xent               TSX1    TCM$ALEX_DISCONNECT
         7 000225   000000 011000                    NOP     0

     1322     2549    2             altreturn;

   2549  7 000226   000000 702200 xent               TSX2  ! X66_AALT

     1323     2550    2           END;
PL6.E3A0      #010=TCM$ALEX_PAD_CONNECT File=TCM$ALEX2.:TCA2TSI                  SUN 11/16/97 14:21 Page:303
     1324     2551        /*   Call intro; */
     1325     2552    1        CALL M$PROMPT(PROMPTCG);

   2552  7 000227   000602 630400 6                  EPPR0   PROMPTCG
         7 000230   160002 713400                    CLIMB   57346
         7 000231   401000 401760                    pmme    nvectors=3

     1326     2553    1        CALL M$EOM(EOMCG);

   2553  7 000232   000656 630400 0                  EPPR0   EOMCG
         7 000233   160003 713400                    CLIMB   57347
         7 000234   401000 401760                    pmme    nvectors=3

     1327     2554    1        call M$STRMATTR(SET_FLOW_CONTROL);

   2554  7 000235   000630 630400 6                  EPPR0   SET_FLOW_CONTROL
         7 000236   160006 713400                    CLIMB   57350
         7 000237   401000 401760                    pmme    nvectors=3

     1328     2555    1        call M$TRMISC(INHIBIT_OPERATOR_MESSAGES);

   2555  7 000240   000226 630400 6                  EPPR0   INHIBIT_OPERATOR_MESSAGES
         7 000241   160020 713400                    CLIMB   57360
         7 000242   400400 401760                    pmme    nvectors=2

     1329     2556                                                /* Reset modem */
     1330     2557    1        CALL M$XCON(FPT_XCON);

   2557  7 000243   000512 630400 0                  EPPR0   FPT_XCON
         7 000244   010003 713400                    CLIMB   4099
         7 000245   400400 401760                    pmme    nvectors=2

     1331     2558        /*  Perform modem autobaud/autoparity; wait for a prompt */
     1332     2559    1        TCM_WRITECG.BUF_ = vector(substr(TCM_WRITECGBUF,,1));

   2559  7 000246   000002 237000 8                  LDAQ    2
         7 000247   000004 757000 xsym               STAQ    TCM_WRITECG+4
PL6.E3A0      #010=TCM$ALEX_PAD_CONNECT File=TCM$ALEX2.:TCA2TSI                  SUN 11/16/97 14:21 Page:304

     1333     2560    1        I = 3;

   2560  7 000250   000003 235007                    LDA     3,DL
         7 000251   000016 755000 0                  STA     I

     1334     2561    1        call M$GTRMATTR( CURRENT_TRMATTR );

   2561  7 000252   000234 630400 6                  EPPR0   CURRENT_TRMATTR
         7 000253   160007 713400                    CLIMB   57351
         7 000254   401000 401760                    pmme    nvectors=3

     1335     2562    1        SAVED_TRMATTR.SPEED# = ACTUAL_PAD_SPEED;

   2562  7 000255   000013 236000 0                  LDQ     ACTUAL_PAD_SPEED
         7 000256   000011 736000                    QLS     9
         7 000257   000326 676000 0                  ERQ     SAVED_TRMATTR+2
         7 000260   377000 376007                    ANQ     130560,DL
         7 000261   000326 656000 0                  ERSQ    SAVED_TRMATTR+2

     1336     2563    1        LOW_SPEED.SPEED#     = BREAK_PAD_SPEED;

   2563  7 000262   000014 236000 0                  LDQ     BREAK_PAD_SPEED
         7 000263   000011 736000                    QLS     9
         7 000264   000340 676000 0                  ERQ     LOW_SPEED+2
         7 000265   377000 376007                    ANQ     130560,DL
         7 000266   000340 656000 0                  ERSQ    LOW_SPEED+2

     1337     2564    1   AUTOBAUD:
     1338     2565    2        do until I = 0;

   2565  7 000267                       AUTOBAUD     null
     1339     2566    2             call M$STRMATTR( SET_LOW_SPEED );

   2566  7 000267   000244 630400 6                  EPPR0   SET_LOW_SPEED
         7 000270   160006 713400                    CLIMB   57350
         7 000271   401000 401760                    pmme    nvectors=3
PL6.E3A0      #010=TCM$ALEX_PAD_CONNECT File=TCM$ALEX2.:TCA2TSI                  SUN 11/16/97 14:21 Page:305

     1340     2567    2             TCM_WRITECGBUF = binasc(0);   /* Send a slow null; looks like a  */

   2567  7 000272   040000 100400                    MLR     fill='040'O
         7 000273   000004 000001 8                  ADSC9   4                        cn=0,n=1
         7 000274   000000 000400 xsym               ADSC9   TCM_WRITECGBUF           cn=0,n=256

     1341     2568    2             call M$WRITE (TCM_WRITECG);   /* break to a high speed device    */

   2568  7 000275   000000 630400 xsym               EPPR0   TCM_WRITECG
         7 000276   040001 713400                    CLIMB   write
         7 000277   401400 401760                    pmme    nvectors=4

     1342     2569    2             call M$WAIT(TCM_WAIT1);

   2569  7 000300   000000 630400 xsym               EPPR0   TCM_WAIT1
         7 000301   020006 713400                    CLIMB   8198
         7 000302   400400 401760                    pmme    nvectors=2

     1343     2570    2             call M$STRMATTR( CURRENT_TRMATTR );

   2570  7 000303   000234 630400 6                  EPPR0   CURRENT_TRMATTR
         7 000304   160006 713400                    CLIMB   57350
         7 000305   401000 401760                    pmme    nvectors=3

     1344     2571    2             call M$WAIT(TCM_WAIT1);

   2571  7 000306   000000 630400 xsym               EPPR0   TCM_WAIT1
         7 000307   020006 713400                    CLIMB   8198
         7 000310   400400 401760                    pmme    nvectors=2

     1345     2572    2             TCM_WRITECGBUF = CR;

   2572  7 000311   040000 100400                    MLR     fill='040'O
         7 000312   000017 000001 0                  ADSC9   CR                       cn=0,n=1
         7 000313   000000 000400 xsym               ADSC9   TCM_WRITECGBUF           cn=0,n=256

PL6.E3A0      #010=TCM$ALEX_PAD_CONNECT File=TCM$ALEX2.:TCA2TSI                  SUN 11/16/97 14:21 Page:306
     1346     2573    2             call M$WRITE(TCM_WRITECG);

   2573  7 000314   000000 630400 xsym               EPPR0   TCM_WRITECG
         7 000315   040001 713400                    CLIMB   write
         7 000316   401400 401760                    pmme    nvectors=4

     1347     2574    2             call M$WAIT(TCM_WAIT1);

   2574  7 000317   000000 630400 xsym               EPPR0   TCM_WAIT1
         7 000320   020006 713400                    CLIMB   8198
         7 000321   400400 401760                    pmme    nvectors=2

     1348     2575    2             TCM_WRITECGBUF = '.';

   2575  7 000322   040000 100400                    MLR     fill='040'O
         7 000323   000005 000001 8                  ADSC9   5                        cn=0,n=1
         7 000324   000000 000400 xsym               ADSC9   TCM_WRITECGBUF           cn=0,n=256

     1349     2576    2             call M$WRITE( TCM_WRITECG );

   2576  7 000325   000000 630400 xsym               EPPR0   TCM_WRITECG
         7 000326   040001 713400                    CLIMB   write
         7 000327   401400 401760                    pmme    nvectors=4

     1350     2577    2             call M$WAIT(TCM_WAIT1);

   2577  7 000330   000000 630400 xsym               EPPR0   TCM_WAIT1
         7 000331   020006 713400                    CLIMB   8198
         7 000332   400400 401760                    pmme    nvectors=2

     1351     2578    2             TCM_WRITECGBUF = CR;

   2578  7 000333   040000 100400                    MLR     fill='040'O
         7 000334   000017 000001 0                  ADSC9   CR                       cn=0,n=1
         7 000335   000000 000400 xsym               ADSC9   TCM_WRITECGBUF           cn=0,n=256

     1352     2579    2             call M$WRITE( TCM_WRITECG );
PL6.E3A0      #010=TCM$ALEX_PAD_CONNECT File=TCM$ALEX2.:TCA2TSI                  SUN 11/16/97 14:21 Page:307

   2579  7 000336   000000 630400 xsym               EPPR0   TCM_WRITECG
         7 000337   040001 713400                    CLIMB   write
         7 000340   401400 401760                    pmme    nvectors=4

     1353     2580        /*  Wait for pad prompt      */
     1354     2581    2             RETRY = 0;

   2581  7 000341   000011 450000 0                  STZ     RETRY

     1355     2582    2             TCM_INT = '0'B;

   2582  7 000342   000000 450000 xsym               STZ     TCM_INT

     1356     2583    2             TCM_MBLEN = 0;

   2583  7 000343   000000 450000 xsym               STZ     TCM_MBLEN

     1357     2584    3             do while( RETRY<5 );

   2584  7 000344   000011 235000 0                  LDA     RETRY
         7 000345   000005 115007                    CMPA    5,DL
         7 000346   000410 603000 7                  TRC     s:2600

     1358     2585    4                  do inhibit;

     1359     2586    5                       call M$READ(TCM_READCG) whenaltreturn do; end;

   2586  7 000347   000000 630600 xsym               EPPR0 ! TCM_READCG
         7 000350   440000 713600                    CLIMB ! alt,read
         7 000351   401400 401760                    pmme    nvectors=4
         7 000352   000354 702200 7                  TSX2  ! s:2587
         7 000353   000354 710200 7                  TRA   ! s:2587

     1360     2587    4                       if not TCM_INT

   2587  7 000354   000000 234200 xsym               SZN   ! TCM_INT
PL6.E3A0      #010=TCM$ALEX_PAD_CONNECT File=TCM$ALEX2.:TCA2TSI                  SUN 11/16/97 14:21 Page:308
         7 000355   000361 604200 7                  TMI   ! s:2590

     1361     2588    4                       then call M$WAIT(TCM_WAIT1);

   2588  7 000356   000000 630600 xsym               EPPR0 ! TCM_WAIT1
         7 000357   020006 713600                    CLIMB ! 8198
         7 000360   400400 401760                    pmme    nvectors=2

     1362     2589    4                     end;

     1363     2590    4                  if TCM_INT then do;

   2590  7 000361   000000 234000 xsym               SZN     TCM_INT
         7 000362   000403 605000 7                  TPL     s:2598

     1364     2591    4                       call index(TEMP, PAD_PROMPT, substr(TCM_MODEMBUF,,TCM_MBLEN))

   2591  7 000363   000000 720000 xsym               LXL0    TCM_MBLEN
         7 000364   000000 120440                    SCD
         7 000365   000000 000010 xsym               ADSC9   TCM_MODEMBUF             cn=0,n=*X0
         7 000366   000656 000002 6                  ADSC9   PAD_PROMPT               cn=0,n=2
         7 000367   000012 000000 0                  ARG     TEMP
         7 000370   000373 607000 7                  TTF     s:2593
         7 000371   000012 054000 0                  AOS     TEMP
         7 000372   000374 710000 7                  TRA     s:2595

     1365     2592    5                       whenreturn do;

     1366     2593    5                            exit AUTOBAUD;

   2593  7 000373   000414 710000 7                  TRA     s:2602

     1367     2594    5                          end;
     1368     2595    4                       if TCM_MBLEN = 1 and substr(TCM_MODEMBUF,,1) = '*'

   2595  7 000374   000000 235000 xsym               LDA     TCM_MBLEN
         7 000375   000001 115007                    CMPA    1,DL
PL6.E3A0      #010=TCM$ALEX_PAD_CONNECT File=TCM$ALEX2.:TCA2TSI                  SUN 11/16/97 14:21 Page:309
         7 000376   000403 601000 7                  TNZ     s:2598
         7 000377   000000 236000 xsym               LDQ     TCM_MODEMBUF
         7 000400   777000 376003                    ANQ     -512,DU
         7 000401   052000 116003                    CMPQ    21504,DU
         7 000402   000414 600000 7                  TZE     s:2602

     1369     2596    4                       then exit AUTOBAUD;
     1370     2597    4                     end;

     1371     2598    3                  RETRY = RETRY + 1;

   2598  7 000403   000011 235000 0                  LDA     RETRY
         7 000404   000001 035007                    ADLA    1,DL
         7 000405   000011 755000 0                  STA     RETRY

     1372     2599    3                end;

   2599  7 000406   000005 115007                    CMPA    5,DL
         7 000407   000347 602000 7                  TNC     s:2586

     1373     2600    2             I = I - 1;

   2600  7 000410   000016 236000 0                  LDQ     I
         7 000411   000001 136007                    SBLQ    1,DL
         7 000412   000016 756000 0                  STQ     I

     1374     2601    2           end;

   2601  7 000413   000267 601000 7                  TNZ     AUTOBAUD

     1375     2602    2        if I = 0 then do;

   2602  7 000414   000016 235000 0                  LDA     I
         7 000415   000432 601000 7                  TNZ     s:2610

     1376     2603    2             TCM_UOBUF = 'PAD dis not respond to autobaud sequence';

PL6.E3A0      #010=TCM$ALEX_PAD_CONNECT File=TCM$ALEX2.:TCA2TSI                  SUN 11/16/97 14:21 Page:310
   2603  7 000416   040000 100400                    MLR     fill='040'O
         7 000417   000664 000050 6                  ADSC9   PAD_PROMPT+6             cn=0,n=40
         7 000420   000000 000400 xsym               ADSC9   TCM_UOBUF                cn=0,n=256

     1377     2604                  %WRITEUO;

   2605  7 000421   000000 630400 xsym               EPPR0   TCM_WRITEUO
         7 000422   440001 713400                    CLIMB   alt,write
         7 000423   401400 401760                    pmme    nvectors=4
         7 000424   000426 702000 7                  TSX2    s:2607
         7 000425   000426 710000 7                  TRA     s:2607

     1378     2607    2             call TCM$ALEX_DISCONNECT;

   2607  7 000426   000002 631400 xsym               EPPR1   B_VECTNIL+2
         7 000427   000000 701000 xent               TSX1    TCM$ALEX_DISCONNECT
         7 000430   000000 011000                    NOP     0

     1379     2608    2             altreturn;

   2608  7 000431   000000 702200 xent               TSX2  ! X66_AALT

     1380     2609    2           end;
     1381     2610    1        call concat(TCM_WRITECGBUF,'SET5:1,6:5,12:1,20:0,105:2',CR);

   2610  7 000432   040000 100400                    MLR     fill='040'O
         7 000433   000676 000032 6                  ADSC9   PAD_PROMPT+16            cn=0,n=26
         7 000434   000000 000032 xsym               ADSC9   TCM_WRITECGBUF           cn=0,n=26
         7 000435   040000 100400                    MLR     fill='040'O
         7 000436   000017 000001 0                  ADSC9   CR                       cn=0,n=1
         7 000437   000006 400346 xsym               ADSC9   TCM_WRITECGBUF+6         cn=2,n=230

     1382     2611    1        call index(TCM_BLEN,' ',TCM_WRITECGBUF);

   2611  7 000440   000000 124400                    SCM     mask='000'O
         7 000441   000000 000400 xsym               ADSC9   TCM_WRITECGBUF           cn=0,n=256
         7 000442   000035 000001 xsym               ADSC9   B_VECTNIL+29             cn=0,n=1
PL6.E3A0      #010=TCM$ALEX_PAD_CONNECT File=TCM$ALEX2.:TCA2TSI                  SUN 11/16/97 14:21 Page:311
         7 000443   000000 000000 xsym               ARG     TCM_BLEN

     1383     2612    1        TCM_WRITECG.BUF_  = vector(substr(TCM_WRITECGBUF,,TCM_BLEN));

   2612  7 000444   000000 235000 xsym               LDA     TCM_BLEN
         7 000445   000020 735000                    ALS     16
         7 000446   000140 135007                    SBLA    96,DL
         7 000447   000003 236000 8                  LDQ     3
         7 000450   000004 757000 xsym               STAQ    TCM_WRITECG+4

     1384     2613    1        call M$WRITE(TCM_WRITECG);

   2613  7 000451   000000 630400 xsym               EPPR0   TCM_WRITECG
         7 000452   040001 713400                    CLIMB   write
         7 000453   401400 401760                    pmme    nvectors=4

     1385     2614    1        call concat(TCM_UOBUF,'Calling ',ADDRESS);

   2614  7 000454   040000 100400                    MLR     fill='040'O
         7 000455   000705 000010 6                  ADSC9   PAD_PROMPT+23            cn=0,n=8
         7 000456   000000 000010 xsym               ADSC9   TCM_UOBUF                cn=0,n=8
         7 000457   200003 470500                    LDP0    @ADDRESS,,AUTO
         7 000460   040000 100500                    MLR     fill='040'O
         7 000461   000000 000040                    ADSC9   0,,PR0                   cn=0,n=32
         7 000462   000002 000370 xsym               ADSC9   TCM_UOBUF+2              cn=0,n=248

     1386     2615             %WRITEUO;

   2616  7 000463   000000 630400 xsym               EPPR0   TCM_WRITEUO
         7 000464   440001 713400                    CLIMB   alt,write
         7 000465   401400 401760                    pmme    nvectors=4
         7 000466   000470 702000 7                  TSX2    s:2618
         7 000467   000470 710000 7                  TRA     s:2618

     1387     2618    1        call concat(TCM_WRITECGBUF,'C R-',ADDRESS);

   2618  7 000470   000707 236000 6                  LDQ     PAD_PROMPT+25
PL6.E3A0      #010=TCM$ALEX_PAD_CONNECT File=TCM$ALEX2.:TCA2TSI                  SUN 11/16/97 14:21 Page:312
         7 000471   000000 756000 xsym               STQ     TCM_WRITECGBUF
         7 000472   200003 470500                    LDP0    @ADDRESS,,AUTO
         7 000473   040000 100500                    MLR     fill='040'O
         7 000474   000000 000040                    ADSC9   0,,PR0                   cn=0,n=32
         7 000475   000001 000374 xsym               ADSC9   TCM_WRITECGBUF+1         cn=0,n=252

     1388     2619    1        call index(TCM_BLEN,'  ',TCM_WRITECGBUF);

   2619  7 000476   000000 120400                    SCD
         7 000477   000000 000400 xsym               ADSC9   TCM_WRITECGBUF           cn=0,n=256
         7 000500   000710 000002 6                  ADSC9   PAD_PROMPT+26            cn=0,n=2
         7 000501   000000 000000 xsym               ARG     TCM_BLEN
         7 000502   000504 607000 7                  TTF     s:2620
         7 000503   000000 054000 xsym               AOS     TCM_BLEN

     1389     2620    1        substr(TCM_WRITECGBUF,TCM_BLEN,1) = CR;

   2620  7 000504   000000 235000 xsym               LDA     TCM_BLEN
         7 000505   040005 100400                    MLR     fill='040'O
         7 000506   000017 000001 0                  ADSC9   CR                       cn=0,n=1
         7 000507   000000 000001 xsym               ADSC9   TCM_WRITECGBUF,A         cn=0,n=1

     1390     2621    1        TCM_BLEN = TCM_BLEN + 1;

   2621  7 000510   000001 035007                    ADLA    1,DL
         7 000511   000000 755000 xsym               STA     TCM_BLEN

     1391     2622    1        TCM_WRITECG.BUF_ = vector(substr(TCM_WRITECGBUF,,TCM_BLEN));

   2622  7 000512   000020 735000                    ALS     16
         7 000513   000140 135007                    SBLA    96,DL
         7 000514   000003 236000 8                  LDQ     3
         7 000515   000004 757000 xsym               STAQ    TCM_WRITECG+4

     1392     2623    1        call M$WRITE(TCM_WRITECG);

   2623  7 000516   000000 630400 xsym               EPPR0   TCM_WRITECG
PL6.E3A0      #010=TCM$ALEX_PAD_CONNECT File=TCM$ALEX2.:TCA2TSI                  SUN 11/16/97 14:21 Page:313
         7 000517   040001 713400                    CLIMB   write
         7 000520   401400 401760                    pmme    nvectors=4

     1393     2624        /* Wait for connect message */
     1394     2625    1        RETRY = 0;

   2625  7 000521   000011 450000 0                  STZ     RETRY

     1395     2626    1        TCM_MBLEN = 0;

   2626  7 000522   000000 450000 xsym               STZ     TCM_MBLEN

     1396     2627    2   RED: do while(RETRY<60);

   2627  7 000523   000011 235000 0     RED          LDA     RETRY
         7 000524   000074 115007                    CMPA    60,DL
         7 000525   000701 603000 7                  TRC     s:2668

     1397     2628    2             TCM_INT = '0'B;

   2628  7 000526   000000 450000 xsym               STZ     TCM_INT

     1398     2629    2             call M$READ(TCM_READCGNONTRANS); /*  Look for response  */

   2629  7 000527   000254 630400 6                  EPPR0   TCM_READCGNONTRANS
         7 000530   040000 713400                    CLIMB   read
         7 000531   401400 401760                    pmme    nvectors=4

     1399     2630    3             do inhibit;

     1400     2631    3                  if not TCM_INT

   2631  7 000532   000000 234200 xsym               SZN   ! TCM_INT
         7 000533   000537 604200 7                  TMI   ! s:2634

     1401     2632    3                  then call M$WAIT(TCM_WAIT1);

PL6.E3A0      #010=TCM$ALEX_PAD_CONNECT File=TCM$ALEX2.:TCA2TSI                  SUN 11/16/97 14:21 Page:314
   2632  7 000534   000000 630600 xsym               EPPR0 ! TCM_WAIT1
         7 000535   020006 713600                    CLIMB ! 8198
         7 000536   400400 401760                    pmme    nvectors=2

     1402     2633    3                end;

     1403     2634    3             if TCM_INT then do;

   2634  7 000537   000000 234000 xsym               SZN     TCM_INT
         7 000540   000674 605000 7                  TPL     s:2665

     1404     2635    3                  call index(I,'clr',substr(TCM_MODEMBUF,,TCM_MBLEN));

   2635  7 000541   000016 631400 0                  EPPR1   I
         7 000542   000711 633400 6                  EPPR3   PAD_PROMPT+27
         7 000543   000003 223003                    LDX3    3,DU
         7 000544   000000 630400 xsym               EPPR0   TCM_MODEMBUF
         7 000545   000000 720000 xsym               LXL0    TCM_MBLEN
         7 000546   000000 236003                    LDQ     0,DU
         7 000547   000000 701000 xent               TSX1    X66_INDEX
         7 000550   000000 011000                    NOP     0

     1405     2636    3                  if I >= TCM_MBLEN

   2636  7 000551   000016 236000 0                  LDQ     I
         7 000552   000000 116000 xsym               CMPQ    TCM_MBLEN
         7 000553   000563 602000 7                  TNC     s:2638

     1406     2637    3                  then call index(I,'reset',substr(TCM_MODEMBUF,,TCM_MBLEN));

   2637  7 000554   000016 631400 0                  EPPR1   I
         7 000555   000712 633400 6                  EPPR3   PAD_PROMPT+28
         7 000556   000005 223003                    LDX3    5,DU
         7 000557   000000 630400 xsym               EPPR0   TCM_MODEMBUF
         7 000560   000000 236003                    LDQ     0,DU
         7 000561   000000 701000 xent               TSX1    X66_INDEX
         7 000562   000000 011000                    NOP     0
PL6.E3A0      #010=TCM$ALEX_PAD_CONNECT File=TCM$ALEX2.:TCA2TSI                  SUN 11/16/97 14:21 Page:315

     1407     2638    3                  if I >= TCM_MBLEN

   2638  7 000563   000016 236000 0                  LDQ     I
         7 000564   000000 116000 xsym               CMPQ    TCM_MBLEN
         7 000565   000575 602000 7                  TNC     s:2640

     1408     2639    3                  then call index(I,'engaged',substr(TCM_MODEMBUF,,TCM_MBLEN));

   2639  7 000566   000016 631400 0                  EPPR1   I
         7 000567   000714 633400 6                  EPPR3   PAD_PROMPT+30
         7 000570   000007 223003                    LDX3    7,DU
         7 000571   000000 630400 xsym               EPPR0   TCM_MODEMBUF
         7 000572   000000 236003                    LDQ     0,DU
         7 000573   000000 701000 xent               TSX1    X66_INDEX
         7 000574   000000 011000                    NOP     0

     1409     2640    3                  if I >= TCM_MBLEN

   2640  7 000575   000016 236000 0                  LDQ     I
         7 000576   000000 116000 xsym               CMPQ    TCM_MBLEN
         7 000577   000607 602000 7                  TNC     s:2642

     1410     2641    3                  then call index(I,'err',substr(TCM_MODEMBUF,,TCM_MBLEN));

   2641  7 000600   000016 631400 0                  EPPR1   I
         7 000601   000716 633400 6                  EPPR3   PAD_PROMPT+32
         7 000602   000003 223003                    LDX3    3,DU
         7 000603   000000 630400 xsym               EPPR0   TCM_MODEMBUF
         7 000604   000000 236003                    LDQ     0,DU
         7 000605   000000 701000 xent               TSX1    X66_INDEX
         7 000606   000000 011000                    NOP     0

     1411     2642    4                  if I < TCM_MBLEN then do;

   2642  7 000607   000016 236000 0                  LDQ     I
         7 000610   000000 116000 xsym               CMPQ    TCM_MBLEN
PL6.E3A0      #010=TCM$ALEX_PAD_CONNECT File=TCM$ALEX2.:TCA2TSI                  SUN 11/16/97 14:21 Page:316
         7 000611   000661 603000 7                  TRC     s:2658

     1412     2643    4                       call concat(TCM_UOBUF, 'Circuit connection failed: ',

   2643  7 000612   040000 100400                    MLR     fill='040'O
         7 000613   000717 000033 6                  ADSC9   PAD_PROMPT+33            cn=0,n=27
         7 000614   000000 000033 xsym               ADSC9   TCM_UOBUF                cn=0,n=27
         7 000615   040000 100440                    MLR     fill='040'O
         7 000616   000000 000010 xsym               ADSC9   TCM_MODEMBUF             cn=0,n=*X0
         7 000617   000006 600345 xsym               ADSC9   TCM_UOBUF+6              cn=3,n=229

     1413     2644    4                         substr(TCM_MODEMBUF,,TCM_MBLEN));
     1414     2645                            %WRITEUO;

   2646  7 000620   000000 630400 xsym               EPPR0   TCM_WRITEUO
         7 000621   440001 713400                    CLIMB   alt,write
         7 000622   401400 401760                    pmme    nvectors=4
         7 000623   000625 702000 7                  TSX2    s:2648
         7 000624   000625 710000 7                  TRA     s:2648

     1415     2648    4                       if substr(TCM_MODEMBUF,I,7) = 'clr occ' or

   2648  7 000625   000016 235000 0                  LDA     I
         7 000626   040000 106405                    CMPC    fill='040'O
         7 000627   000000 000007 xsym               ADSC9   TCM_MODEMBUF,A           cn=0,n=7
         7 000630   000726 000007 6                  ADSC9   PAD_PROMPT+40            cn=0,n=7
         7 000631   000652 600000 7                  TZE     s:2653
         7 000632   040000 106405                    CMPC    fill='040'O
         7 000633   000000 000007 xsym               ADSC9   TCM_MODEMBUF,A           cn=0,n=7
         7 000634   000730 000007 6                  ADSC9   PAD_PROMPT+42            cn=0,n=7
         7 000635   000652 600000 7                  TZE     s:2653
         7 000636   040000 106405                    CMPC    fill='040'O
         7 000637   000000 000007 xsym               ADSC9   TCM_MODEMBUF,A           cn=0,n=7
         7 000640   000732 000007 6                  ADSC9   PAD_PROMPT+44            cn=0,n=7
         7 000641   000652 600000 7                  TZE     s:2653
         7 000642   040000 106405                    CMPC    fill='040'O
         7 000643   000000 000007 xsym               ADSC9   TCM_MODEMBUF,A           cn=0,n=7
PL6.E3A0      #010=TCM$ALEX_PAD_CONNECT File=TCM$ALEX2.:TCA2TSI                  SUN 11/16/97 14:21 Page:317
         7 000644   000734 000007 6                  ADSC9   PAD_PROMPT+46            cn=0,n=7
         7 000645   000652 600000 7                  TZE     s:2653
         7 000646   040000 106405                    CMPC    fill='040'O
         7 000647   000000 000007 xsym               ADSC9   TCM_MODEMBUF,A           cn=0,n=7
         7 000650   000736 000007 6                  ADSC9   PAD_PROMPT+48            cn=0,n=7
         7 000651   000655 601000 7                  TNZ     s:2654

     1416     2649    4                         substr(TCM_MODEMBUF,I,7) = 'clr nc ' or
     1417     2650    4                         substr(TCM_MODEMBUF,I,7) = 'clr der' or
     1418     2651    4                         substr(TCM_MODEMBUF,I,7) = 'clr na ' or
     1419     2652    4                         substr(TCM_MODEMBUF,I,7) = 'clr np '
     1420     2653    4                       then STATUS.HOST_SHUT = '1'B;

   2653  7 000652   400000 236003                    LDQ     -131072,DU
         7 000653   200005 470500                    LDP0    @STATUS,,AUTO
         7 000654   000000 756100                    STQ     0,,PR0

     1421     2654    4                       call TCM$ALEX_DISCONNECT;

   2654  7 000655   000002 631400 xsym               EPPR1   B_VECTNIL+2
         7 000656   000000 701000 xent               TSX1    TCM$ALEX_DISCONNECT
         7 000657   000000 011000                    NOP     0

     1422     2655    4                       altreturn;

   2655  7 000660   000000 702200 xent               TSX2  ! X66_AALT

     1423     2656    4                     end;
     1424     2657    4                  else do;

     1425     2658    4                       call index(I,'com',substr(TCM_MODEMBUF,,TCM_MBLEN));

   2658  7 000661   000016 631400 0                  EPPR1   I
         7 000662   000740 633400 6                  EPPR3   PAD_PROMPT+50
         7 000663   000003 223003                    LDX3    3,DU
         7 000664   000000 630400 xsym               EPPR0   TCM_MODEMBUF
         7 000665   000000 236003                    LDQ     0,DU
PL6.E3A0      #010=TCM$ALEX_PAD_CONNECT File=TCM$ALEX2.:TCA2TSI                  SUN 11/16/97 14:21 Page:318
         7 000666   000000 701000 xent               TSX1    X66_INDEX
         7 000667   000000 011000                    NOP     0

     1426     2659    5                       do inhibit;

     1427     2660    5                            if I<TCM_MBLEN then exit RED;

   2660  7 000670   000016 236200 0                  LDQ   ! I
         7 000671   000000 116200 xsym               CMPQ  ! TCM_MBLEN
         7 000672   000701 602200 7                  TNC   ! s:2668

     1428     2661    5                            TCM_MBLEN = 0; /*  ? try this */

   2661  7 000673   000000 450200 xsym               STZ   ! TCM_MBLEN

     1429     2662    5                          end;

     1430     2663    4                     end;

     1431     2664    3                end;

     1432     2665    2             RETRY = RETRY + 1;

   2665  7 000674   000011 235000 0                  LDA     RETRY
         7 000675   000001 035007                    ADLA    1,DL
         7 000676   000011 755000 0                  STA     RETRY

     1433     2666    2           end;

   2666  7 000677   000074 115007                    CMPA    60,DL
         7 000700   000526 602000 7                  TNC     s:2628

     1434     2667
     1435     2668    2        if RETRY = 60 then do;

   2668  7 000701   000011 235000 0                  LDA     RETRY
         7 000702   000074 115007                    CMPA    60,DL
PL6.E3A0      #010=TCM$ALEX_PAD_CONNECT File=TCM$ALEX2.:TCA2TSI                  SUN 11/16/97 14:21 Page:319
         7 000703   000720 601000 7                  TNZ     s:2677

     1436     2669    2             TCM_UOBUF = 'PAD did not connect circuit.';

   2669  7 000704   040000 100400                    MLR     fill='040'O
         7 000705   000741 000034 6                  ADSC9   PAD_PROMPT+51            cn=0,n=28
         7 000706   000000 000400 xsym               ADSC9   TCM_UOBUF                cn=0,n=256

     1437     2670                  %WRITEUO;

   2671  7 000707   000000 630400 xsym               EPPR0   TCM_WRITEUO
         7 000710   440001 713400                    CLIMB   alt,write
         7 000711   401400 401760                    pmme    nvectors=4
         7 000712   000714 702000 7                  TSX2    s:2673
         7 000713   000714 710000 7                  TRA     s:2673

     1438     2673    2             call TCM$ALEX_DISCONNECT;

   2673  7 000714   000002 631400 xsym               EPPR1   B_VECTNIL+2
         7 000715   000000 701000 xent               TSX1    TCM$ALEX_DISCONNECT
         7 000716   000000 011000                    NOP     0

     1439     2674    2             altreturn;

   2674  7 000717   000000 702200 xent               TSX2  ! X66_AALT

     1440     2675    2           end;
     1441     2676
     1442     2677    1        TCM_MBLEN = 0;

   2677  7 000720   000000 450000 xsym               STZ     TCM_MBLEN

     1443     2678    1        TCM_LOCALMODE = '0'B;

   2678  7 000721   000000 450000 xsym               STZ     TCM_LOCALMODE

     1444     2679    1        TCM_NEEDREAD = '1'B;
PL6.E3A0      #010=TCM$ALEX_PAD_CONNECT File=TCM$ALEX2.:TCA2TSI                  SUN 11/16/97 14:21 Page:320

   2679  7 000722   400000 236003                    LDQ     -131072,DU
         7 000723   000000 756000 xsym               STQ     TCM_NEEDREAD

     1445     2680    1        return;

   2680  7 000724   000000 702200 xent               TSX2  ! X66_ARET

(unnamed)
 Sect OctLoc
   0     002   ****** ******   ****** ******   ****** ******   ****** ******    ................

ACTUAL_PAD_SPEED
 Sect OctLoc
   0     013   000000 000014                                                    ....

BREAK_PAD_SPEED
 Sect OctLoc
   0     014   000000 000000                                                    ....

CR
 Sect OctLoc
   0     017   015*** ******                                                    ....

(unnamed)
 Sect OctLoc
   0     020   012*** ******   ****** ******                                    ........

EIGHT_TBL
 Sect OctLoc
   0     023   270070 270270   070*** ******                                    .8..8...

PAREN_TBL
 Sect OctLoc
   0     026   050250 050250   050*** ******                                    (.(.(...

(unnamed)
PL6.E3A0      #010=TCM$ALEX_PAD_CONNECT File=TCM$ALEX2.:TCA2TSI                  SUN 11/16/97 14:21 Page:321
 Sect OctLoc
   0     030   015007 127101   122116 111116   107054 040065   040155 151156    ..WARNING, 5 min
   0     034   165164 145163   040167 151164   150157 165164   040111 117040    utes without IO
   0     040   150141 166145   040160 141163   163145 144054   040101 114105    have passed, ALE
   0     044   130040 167151   154154 040114   117107 040171   157165 040157    X will LOG you o
   0     050   146146 040151   156040 061040   155151 156165   164145 056007    ff in 1 minute..
   0     054   015*** ******   015007 066040   155151 156165   164145 163040    ......6 minutes
   0     060   167151 164150   157165 164040   111117 040150   141166 145040    without IO have
   0     064   160141 163163   145144 054040   101114 105130   040150 141163    passed, ALEX has
   0     070   040154 157147   147145 144040   171157 165040   157146 146007     logged you off.
   0     074   015*** ******                                                    ....

ACC
 Sect OctLoc
   0     075   000000 000005   764500 102112   106077 040040   040040 002000    ......BJF?    ..
   0     101   077040 040040   040040 040040                                    ?

ACV
 Sect OctLoc
   0     103   000000 000003   764500 007115   125114 123105   116104 ******    .......MULSEND..

OPENUSER
 Sect OctLoc
   0     110   000025 777640   000154 006000   000000 177640   000000 006014    .....l..........
   0     114   000000 177640   000000 006014   000000 177640   000000 006014    ................
   0     154*  000000 000042   000000 001003   252525 010000   000040 252520    ..."......... ..
   0     160   000040 040040   000000 000000   000000 777777   000000 000000    .   ............
   0     164   000000 000000   000000 000000   000000 000000   000000 000000    ................
   0     170   251000 622000   000000 000000   000000 100000   111250 000000    ..........@.I...
   0     174   040040 040040   000000 000000   000000 000000   000000 000000        ............
   0     200   000000 000000   ****** ******                                    ........

(unnamed)
 Sect OctLoc
   0     202   ****** ******   ****** ******   ****** ******   ****** ******    ................

WRITE_STATION
PL6.E3A0      #010=TCM$ALEX_PAD_CONNECT File=TCM$ALEX2.:TCA2TSI                  SUN 11/16/97 14:21 Page:322
 Sect OctLoc
   0     303   115117 104105   115040 040040   040040 040040   040040 040040    MODEM
   0     307   001000 000000   000000 000000   000000 000000   000000 000000    ................

(unnamed)
 Sect OctLoc
   0     313   115117 104105   115040 040040   040040 040040   040040 040040    MODEM
   0     317   041000 000000   000000 000000   000000 000000   000000 000000    !...............
   0     323   ****** ******                                                    ....

SAVED_TRMATTR
 Sect OctLoc
   0     324   125125 125125   127125 125377   377377 377137   040040 040040    UUUUWUU...._
   0     330   040040 040040   040040 040040   040040 040040   377377 177377                ....
   0     334   377377 377377   377377 377377                                    ........

LOW_SPEED
 Sect OctLoc
   0     336   125125 125125   120125 125377   377377 377137   040040 040040    UUUUPUU...._
   0     342   040040 040040   040040 040040   040040 040040   377377 177377                ....
   0     346   377377 377377   377377 377377                                    ........

AUSTATION
 Sect OctLoc
   0     350   040040 040040   040040 040040   040040 040040   040040 040040
   0     354   001000 000000   000000 000000   000000 000000   000000 000000    ................

CGSTATION
 Sect OctLoc
   0     360   115117 104105   115040 040040   040040 040040   040040 040040    MODEM
   0     364   001000 000000   000000 000000   000000 000000   000000 000000    ................

BIGTBUF
 Sect OctLoc
   0     370   ****** ******   ****** ******   ****** ******   ****** ******    ................

VLR_CGSTATS
PL6.E3A0      #010=TCM$ALEX_PAD_CONNECT File=TCM$ALEX2.:TCA2TSI                  SUN 11/16/97 14:21 Page:323
 Sect OctLoc
   0     470   000000 000000   000000 000000   000000 000000   000000 000000    ................
   0     510*  000000 000000   000000 000000                                    ........

FPT_XCON
 Sect OctLoc
   0     512   000001 777640   000516 006000   000000 777640   000000 006000    ................
   0     516   000000 000000   000000 000000                                    ........

READSI
 Sect OctLoc
   0     520   000005 777640   000530 006000   000000 177640   000000 006014    ................
   0     524   000077 777640   000536 006000   000000 177640   000000 006014    .?..............
   0     530   000000 400000   000000 000000   000000 000000   000000 000000    ................
   0     534   000000 000000   000000 000000                                    ........

SIBUF
 Sect OctLoc
   0     536   ****** ******   ****** ******   ****** ******   ****** ******    ................

READUSER
 Sect OctLoc
   0     636   000005 777640   000646 006000   000000 177640   000000 006014    ................
   0     642   000077 777640   000000 006000   000000 177640   000000 006014    .?..............
   0     646   000000 400000   000000 000000   000000 000000   020000 000000    ................
   0     652   000000 000000   000000 000000                                    ........

(unnamed)
 Sect OctLoc
   0     654   114157 143141   154072 ******                                    Local:..

EOMCG
 Sect OctLoc
   0     656   000003 777640   000664 006000   000007 777640   000303 006000    ................
   0     662   000000 177640   000000 006014   000000 000000   000000 000000    ................
   0     666   001001 000000   000000 000000                                    ........

PL6.E3A0      #010=TCM$ALEX_PAD_CONNECT File=TCM$ALEX2.:TCA2TSI                  SUN 11/16/97 14:21 Page:324
OPENCG
 Sect OctLoc
   6     000   000025 777640   000044 006000   000000 177640   000000 006014    .....$..........
   6     004   000013 777640   000072 006000   000001 377640   000106 006000    .....:.......F..
   6     010   000000 177640   000000 006014   000005 777640   000075 006000    .............=..
   6     014   000003 777640   000103 006000   000000 177640   000000 006014    .....C..........
   6     020   000000 177640   000000 006014   000000 177640   000000 006014    ................
   6     024   000001 777640   000110 006000   000000 177640   000000 006014    .....H..........
   6     030   000000 177640   000000 006014   000000 177640   000000 006014    ................
   6     044*  000000 400512   000000 003004   252525 000000   000040 252520    ............. ..
   6     050   000040 040040   000000 000000   000000 777777   000000 000000    .   ............
   6     054   000000 000000   000000 000310   000000 000000   000000 000000    ................
   6     060   251000 622000   000000 000000   000000 000000   111310 000000    ............I...
   6     064   040040 040040   000000 000000   000000 000000   000000 000000        ............
   6     070   000000 000000   ****** ******                                    ........

OPENSTA
 Sect OctLoc
   6     072   101114 105130   040040 040040   040040 040040   040040 040040    ALEX
   6     076   040040 040040   040040 040040   000000 000000   040040 040040            ....
   6     102   040040 040040   040040 040040   040040 040040   000000 000000                ....

CG_NAME
 Sect OctLoc
   6     106   005120 101104   103107 ******                                    .PADCG..

CG_ACCT
 Sect OctLoc
   6     110   072123 131123   040040 040040                                    :SYS

DELCG
 Sect OctLoc
   6     112   000025 777640   000156 006000   000000 177640   000000 006014    .....n..........
   6     116   000000 177640   000000 006014   000001 377640   000106 006000    .............F..
   6     122   000000 177640   000000 006014   000000 177640   000000 006014    ................
   6     136*  000001 777640   000110 006000   000000 177640   000000 006014    .....H..........
   6     142   000000 177640   000000 006014   000000 177640   000000 006014    ................
PL6.E3A0      #010=TCM$ALEX_PAD_CONNECT File=TCM$ALEX2.:TCA2TSI                  SUN 11/16/97 14:21 Page:325
   6     156*  000000 440052   000000 002001   252525 000000   000040 252520    ...*......... ..
   6     162   000040 040040   000000 000000   000000 777777   000000 000000    .   ............
   6     166   000000 000000   000000 000000   000000 000000   000000 000000    ................
   6     172   251000 622000   000000 000000   000000 000000   111250 000000    ............I...
   6     176   040040 040040   000000 000000   000000 000000   000000 000000        ............
   6     202   000000 000000   ****** ******                                    ........

(unnamed)
 Sect OctLoc
   6     204   000000 000000   000000 000000   077040 040040   040040 040040    ........?
   6     210   077040 040040   040040 040040   000000 000000   000000 000000    ?       ........
   6     214   000000 000000   077040 040040   040040 040040   000000 000000    ....?       ....
   6     220   000000 000000   000000 000000   000000 000000   000000 000000    ................
   6     224   300000 000000   000000 000000                                    ........

INHIBIT_OPERATOR_MESSAGES
 Sect OctLoc
   6     226   000001 777640   000232 006000   000007 777640   000303 006000    ................
   6     232   000000 000000   040000 000000                                    .... ...

CURRENT_TRMATTR
 Sect OctLoc
   6     234   000001 777640   000242 006000   000007 777640   000303 006000    ................
   6     240   000011 777640   000324 006000   000000 000000   000000 000000    ................

SET_LOW_SPEED
 Sect OctLoc
   6     244   000001 777640   000252 006000   000007 777640   000303 006000    ................
   6     250   000011 777640   000336 006000   000000 000000   000000 000000    ................

TCM_READCGNONTRANS
 Sect OctLoc
   6     254   000005 777640   000264 006000   000000 177640   000000 006014    ................
   6     260   000077 777640   000000 006000   000007 777640   000360 006000    .?..............
   6     264   000000 000000   000000 000001   000000 000000   000000 000000    ................
   6     270   000000 000000   000000 000000                                    ........

PL6.E3A0      #010=TCM$ALEX_PAD_CONNECT File=TCM$ALEX2.:TCA2TSI                  SUN 11/16/97 14:21 Page:326
READAU
 Sect OctLoc
   6     272   000005 777640   000302 006000   000000 177640   000000 006014    ................
   6     276   000077 777640   000000 006000   000007 777640   000350 006000    .?..............
   6     302   000000 000000   000000 000001   000000 000000   000000 000000    ................
   6     306   000000 000000   000000 000000                                    ........

TCM_READCGBIG
 Sect OctLoc
   6     310   000005 777640   000320 006000   000000 177640   000000 006014    ................
   6     314   000077 777640   000370 006000   000000 177640   000000 006014    .?..............
   6     320   000000 400000   000000 000000   000000 000000   000000 000000    ................
   6     324   000000 000000   000000 000000                                    ........

CLOSELO
 Sect OctLoc
   6     326   000003 777640   000360 006000   000000 177640   000000 006014    ................
   6     332   000000 177640   000000 006014   000000 177640   000000 006014    ................
   6     356*  000000 177640   000000 006014   000000 000000   000000 000040    ...............
   6     362   000220 000000   000000 000000                                    ........

FPT_CGCTL
 Sect OctLoc
   6     364   000013 777640   000434 006000   000000 177640   000000 006014    ................
   6     370   000000 177640   000000 006014   000023 777640   000450 006000    ................
   6     374   000000 177640   000000 006014   000000 177640   000000 006014    ................
   6     434*  000000 000022   000000 000000   000000 0000**   000000 000000    ................
   6     440   000000 000000   000000 000000   000000 000000   000000 000000    ................
   6     444   000000 000000   000000 000000   000000 000000   ****** ******    ................

VLP_CGCP
 Sect OctLoc
   6     450   040040 040040   040040 040040   040040 040040   040040 040040
   6     454   000002 001001   000046 113177   000031 400721   000000 002000    .....&K.........
   6     460   000024 062000   600036 000214   000000 000000   000012 000024    ..2.............
   6     464   000002 ******   000000 000000   000000 000000   000000 000000    ................
   6     470   000000 000000   000000 000000   000000 000000   000000 000000    ................
PL6.E3A0      #010=TCM$ALEX_PAD_CONNECT File=TCM$ALEX2.:TCA2TSI                  SUN 11/16/97 14:21 Page:327

GET_INFO
 Sect OctLoc
   6     474   000011 777640   000544 006000   000000 177640   000000 006014    ................
   6     500   000000 177640   000000 006014   000000 177640   000000 006014    ................
   6     504   000000 177640   000000 006014   000021 777640   000470 006000    ................
   6     510   000000 177640   000000 006014   000000 177640   000000 006014    ................
   6     544*  000000 000011   000000 000000   000000 000000   000000 000000    ................
   6     550   000000 000000   000000 000000   000000 000000   000000 000000    ................
   6     554   000000 000000   ****** ******                                    ........

FPT_EVENT
 Sect OctLoc
   6     556   000001 777640   000560 006000   000000 000000   000000 000000    ................

TAKE15
 Sect OctLoc
   6     562   000001 777640   000566 006000   000000 177640   000000 006014    ................
   6     566   000000 000017   000000 000001                                    ........

PROMPTUSER
 Sect OctLoc
   6     570   000003 777640   000576 006000   000000 177640   000000 006014    ................
   6     574   000000 177640   000614 006000   000000 000000   000000 000000    ................
   6     600   100000 000000   000000 000000                                    @.......

PROMPTCG
 Sect OctLoc
   6     602   000003 777640   000610 006000   000007 777640   000303 006000    ................
   6     606   000000 177640   000614 006000   000000 000000   000000 000000    ................
   6     612   100000 000000   000000 000000                                    @.......

PCHAR
 Sect OctLoc
   6     614   100*** ******                                                    @...

EOMUSER
PL6.E3A0      #010=TCM$ALEX_PAD_CONNECT File=TCM$ALEX2.:TCA2TSI                  SUN 11/16/97 14:21 Page:328
 Sect OctLoc
   6     616   000003 777640   000624 006000   000000 177640   000000 006014    ................
   6     622   000000 177640   000000 006014   000000 000000   000000 000000    ................
   6     626   000062 000000   000000 000000                                    .2......

SET_FLOW_CONTROL
 Sect OctLoc
   6     630   000001 777640   000636 006000   000007 777640   000303 006000    ................
   6     634   000011 777640   000640 006000   000000 000000   000000 000000    ................

DC1DC3
 Sect OctLoc
   6     640   125125 125125   127125 125377   377377 377133   040040 040040    UUUUWUU....[
   6     644   040040 040040   040040 040040   040040 040040   377377 177377                ....
   6     650   377377 377377   377377 377377                                    ........

(unnamed)
 Sect OctLoc
   6     652   015122 105115   117124 105056   104102 113120   114066 015***    .REMOTE.DBKPL6..

PAD_PROMPT
 Sect OctLoc
   6     656   012052 ******                                                    .*..

(unnamed)
 Sect OctLoc
   6     657   120101 104040   144151 144040   156157 164040   143157 156156    PAD did not conn
   6     663   145143 164040   120101 104040   144151 163040   156157 164040    ect PAD dis not
   6     667   162145 163160   157156 144040   164157 040141   165164 157142    respond to autob
   6     673   141165 144040   163145 161165   145156 143145   123105 124065    aud sequenceSET5
   6     677   072061 054066   072065 054061   062072 061054   062060 072060    :1,6:5,12:1,20:0
   6     703   054061 060065   072062 040040   103141 154154   151156 147040    ,105:2  Calling
   6     707   103040 122055   040040 040040   143154 162040   162145 163145    C R-    clr rese
   6     713   164040 040040   145156 147141   147145 144040   145162 162040    t   engaged err
   6     717   103151 162143   165151 164040   143157 156156   145143 164151    Circuit connecti
   6     723   157156 040146   141151 154145   144072 040040   143154 162040    on failed:  clr
   6     727   157143 143040   143154 162040   156143 040040   143154 162040    occ clr nc  clr
PL6.E3A0      #010=TCM$ALEX_PAD_CONNECT File=TCM$ALEX2.:TCA2TSI                  SUN 11/16/97 14:21 Page:329
   6     733   144145 162040   143154 162040   156141 040040   143154 162040    der clr na  clr
   6     737   156160 040040   143157 155040   120101 104040   144151 144040    np  com PAD did
   6     743   156157 164040   143157 156156   145143 164040   143151 162143    not connect circ
   6     747   165151 164056                                                    uit.

(unnamed)
 Sect OctLoc
   8     000   000000 006003   000000 000000   000000 177640   000000 006000    ................
   8     004   000040 040040   056040 040040                                    .   .
     1446     2681    1   end TCM$ALEX_PAD_CONNECT;

PL6.E3A0      #010=TCM$ALEX_PAD_CONNECT File=TCM$ALEX2.:TCA2TSI                  SUN 11/16/97 14:21 Page:330
--  Include file information  --

   B$JIT.:LIBRARY  cannot be made into a system file and is referenced.
   CP_6.:LIBRARY  cannot be made into a system file and is referenced.
   B$JIT_C.:E05TOU  was found in the system file and is referenced.
   CP_6_C.:E05TOU  was found in the system file and is referenced.
      No diagnostics issued in procedure TCM$ALEX_PAD_CONNECT.
PL6.E3A0      #010=TCM$ALEX_PAD_CONNECT File=TCM$ALEX2.:TCA2TSI                  SUN 11/16/97 14:21 Page:331

 **** Variables and constants ****

  ****  Section 000  Data  TCM$ALEX_PAD_CONNECT

  ****  Scalars and arrays  ****
OctLoc.c.b A Datatyp(siz) R M Lvl/name                 OctLoc.c.b A Datatyp(siz) R M Lvl/name

    75-0-0/w STRC(216)   r     1 ACC                       13-0-0/w UBIN        r     1 ACTUAL_PAD_SPEED
   103-0-0/w STRC(126)   r     1 ACV                      350-0-0/w STRC(288)   r     1 AUSTATION
   370-0-0/c CHAR(256)   r     1 BIGTBUF                   14-0-0/w UBIN        r     1 BREAK_PAD_SPEED
   360-0-0/w STRC(288)   r     1 CGSTATION                 17-0-0/c CHAR        r     1 CR
    23-0-0/b UBIN(9)     r     1 EIGHT_TBL(0:4)
    22-0-0/b UBIN(9)     r     1 EIGHT_VAL                656-0-0/d STRC(360)   r     1 EOMCG
     1-0-0/w PTR         r     1 F$USER$                  512-0-0/d STRC(216)   r     1 FPT_XCON
    16-0-0/w UBIN        r     1 I                        336-0-0/d STRC(360)   r     1 LOW_SPEED
   110-0-0/d STRC(2088)  r     1 OPENUSER
    26-0-0/b UBIN(9)     r     1 PAREN_TBL(0:4)
    25-0-0/b UBIN(9)     r     1 PAREN_VAL                520-0-0/d STRC(504)   r     1 READSI
   636-0-0/d STRC(504)   r     1 READUSER                  11-0-0/w UBIN        r     1 RETRY
   324-0-0/d STRC(360)   r     1 SAVED_TRMATTR            536-0-0/c CHAR(256)   r     1 SIBUF
    12-0-0/w UBIN        r     1 TEMP                     470-0-0/d STRC(648)   r     1 VLR_CGSTATS
   303-0-0/w STRC(288)   r     1 WRITE_STATION

  ****  Section 006 RoData TCM$ALEX_PAD_CONNECT

  ****  Scalars and arrays  ****
OctLoc.c.b A Datatyp(siz) R M Lvl/name                 OctLoc.c.b A Datatyp(siz) R M Lvl/name

   110-0-0/c STRC(72)    r     1 CG_ACCT                  106-0-0/c STRC(54)    r     1 CG_NAME
   326-0-0/d STRC(1080)  r     1 CLOSELO                  234-0-0/d STRC(288)   r     1 CURRENT_TRMATTR
   640-0-0/d STRC(360)   r     1 DC1DC3                   112-0-0/d STRC(2088)  r     1 DELCG
   616-0-0/d STRC(360)   r     1 EOMUSER                  364-0-0/d STRC(1872)  r     1 FPT_CGCTL
   556-0-0/d STRC(144)   r     1 FPT_EVENT                474-0-0/d STRC(1800)  r     1 GET_INFO
   226-0-0/d STRC(216)   r     1 INHIBIT_OPERATOR_MESSAGES
     0-0-0/d STRC(2088)  r     1 OPENCG                    72-0-0/w STRC(432)   r     1 OPENSTA
   656-0-0/c CHAR(2)     r     1 PAD_PROMPT               614-0-0/c CHAR        r     1 PCHAR
   602-0-0/d STRC(360)   r     1 PROMPTCG                 570-0-0/d STRC(360)   r     1 PROMPTUSER
PL6.E3A0      #010=TCM$ALEX_PAD_CONNECT File=TCM$ALEX2.:TCA2TSI                  SUN 11/16/97 14:21 Page:332
   272-0-0/d STRC(504)   r     1 READAU                   630-0-0/d STRC(288)   r     1 SET_FLOW_CONTROL
   244-0-0/d STRC(288)   r     1 SET_LOW_SPEED            562-0-0/d STRC(216)   r     1 TAKE15
   310-0-0/d STRC(504)   r     1 TCM_READCGBIG            254-0-0/d STRC(504)   r     1 TCM_READCGNONTRANS
   450-0-0/d STRC(720)   r     1 VLP_CGCP

  ****  Auto variables  ****

  ****  Scalars and arrays  ****
OctLoc.c.b A Datatyp(siz) R M Lvl/name                 OctLoc.c.b A Datatyp(siz) R M Lvl/name

     3-0-0/w PTR         r     1 @ADDRESS                   6-0-0/w PTR         r     1 @BAILOUT
     4-0-0/w PTR         r     1 @PAR                       5-0-0/w PTR         r     1 @STATUS
    *0-0-0/c CHAR(32)    r     1 ADDRESS                   *0-0-0/d REMB        r     1 BAILOUT
    *0-0-0/w UBIN        r     1 PAR                       *0-0-0/w STRC        r     1 STATUS

  ****  SYMREF variables  ****

  ****  Scalars and arrays  ****
OctLoc.c.b A Datatyp(siz) R M Lvl/name                 OctLoc.c.b A Datatyp(siz) R M Lvl/name

     0-0-0/w PTR         r     1 B$JIT$                     0-0-0/w PTR         r     1 F$CG$
     0-0-0/d REMB        r     1 TCM_ALEX_BAILOUT
     0-0-0/d BIT (72)    r     1 TCM_ALEX_BAILOUT_ENABLED
     0-0-0/w UBIN        r     1 TCM_BLEN                   0-0-0/b BIT         r     1 TCM_COMMAND
     0-0-0/b BIT         r     1 TCM_CONNECTED              0-0-0/d STRC(1512)  r     1 TCM_DELETEMES
     0-0-0/w UBIN        r     1 TCM_G_PARITY               0-0-0/b BIT         r     1 TCM_INT
     0-0-0/b BIT         r     1 TCM_LOCALMODE              0-0-0/w UBIN        r     1 TCM_MBLEN
     0-0-0/c CHAR(1280)  r     1 TCM_MODEMBUF               0-0-0/b BIT         r     1 TCM_NEEDREAD
     0-0-0/c CHAR(332)   r     1 TCM_OUTREC                 0-0-0/d STRC(504)   r     1 TCM_READCG
     0-0-0/c CHAR(256)   r     1 TCM_READCGBUF              0-0-0/c CHAR(256)   r     1 TCM_READUSERBUF
     0-0-0/b UBIN(9)     r     1 TCM_STRIPPAR(0:511)
     0-0-0/d STRC(576)   r     1 TCM_TURNOFF                0-0-0/d STRC(576)   r     1 TCM_TURNON
     0-0-0/c CHAR(256)   r     1 TCM_UOBUF                  0-0-0/b BIT         r     1 TCM_USING_PAD
     0-0-0/d STRC(216)   r     1 TCM_WAIT1                  0-0-0/d STRC(432)   r     1 TCM_WRITECG
     0-0-0/c CHAR(256)   r     1 TCM_WRITECGBUF             0-0-0/d STRC(432)   r     1 TCM_WRITEUO
     0-0-0/w EPTR        r     1 TCM_XCON$

PL6.E3A0      #010=TCM$ALEX_PAD_CONNECT File=TCM$ALEX2.:TCA2TSI                  SUN 11/16/97 14:21 Page:333
  ****  BASED and DCB variables  ****

  ****  Scalars and arrays  ****
OctLoc.c.b A Datatyp(siz) R M Lvl/name                 OctLoc.c.b A Datatyp(siz) R M Lvl/name

     0-0-0N  NULL        r     1 F$CG                       0-0-0/d ASTR(3528)  r     1 F$DCB
     0-0-0N  NULL        r     1 F$UO                       0-0-0N  NULL        r     1 F$USER
     0-0-0N  NULL        r     1 M$SI                       0-0-0N  NULL        r     1 M$UC


   Procedure TCM$ALEX_PAD_CONNECT requires 469 words for executable code.
   Procedure TCM$ALEX_PAD_CONNECT requires 10 words of local(AUTO) storage.

    No errors detected in file TCM$ALEX2.:TCA2TSI    .
PL6.E3A0      #010=TCM$ALEX_PAD_CONNECT File=TCM$ALEX2.:TCA2TSI                  SUN 11/16/97 14:21 Page:334
          *** CROSS REFERENCE LISTING ***
**     DENOTES     IDENTIFIER DEFINITION
<<                 IDENTIFIER'S VALUE SET
>>                 IDENTIFIER'S VALUE USED
<>                 IDENTIFIER SET AND/OR USED
--                 IDENTIFIER REFERENCED
PL6.E3A0      #010=TCM$ALEX_PAD_CONNECT File=TCM$ALEX2.:TCA2TSI                  SUN 11/16/97 14:21 Page:335
          MINI XREF LISTING

ACC
       868**DCL       740--DCLINIT
ACC.Q
       869**DCL       868--DCLINIT
ACTUAL_PAD_SPEED
       623**DCL      2562>>ASSIGN
ACV
       918**DCL       741--DCLINIT
ACV.Q
       919**DCL       918--DCLINIT
ADDRESS
        10**DCL         6--PROC     2614>>CALLBLT  2618>>CALLBLT
AUSTATION
      1742**DCL      1710--DCLINIT
AUSTATION.MSGIDXT
      1752**DCL      1755--REDEF
AUTOBAUD
      2565**LABEL    2593--EXIT     2596--EXIT
B$CGAUCRD.CGAUCI.ATTR
       578**DCL       578--REDEF
B$CGAUCRD.STATION
       556**DCL       556--REDEF
B$JIT.CPFLAGS1.SLEAZE
       268**DCL       268--REDEF
B$JIT.ERR.MID
       175**DCL       175--REDEF
B$JIT.JRESPEAK
       336**DCL       337--REDEF
B$JIT.ORIGINATOR_PORT.FROM_CR
       445**DCL       445--REDEF     446--REDEF
B$JIT.PNR
       349**DCL       349--REDEF
PL6.E3A0      #010=TCM$ALEX_PAD_CONNECT File=TCM$ALEX2.:TCA2TSI                  SUN 11/16/97 14:21 Page:336
B$JIT.TSLINE
       443**DCL       444--REDEF
B$JIT$
       450**DCL       169--IMP-PTR
B$NWIO.CGPARM.MSGIDXT
       488**DCL       491--REDEF
B$NWIO.CODE
       457**DCL       457--REDEF     458--REDEF     458--REDEF
B$NWIO.ERR.ERR#
       459**DCL       459--REDEF
B$NWIO.EVID
       458**DCL       458--REDEF     458--REDEF
BADOPEN
      2510**LABEL    2507--CALLALT
BAILOUT
        14**DCL         6--PROC     2487--IF       2489>>ASSIGN
BIGTBUF
      1828**DCL      1808--DCLINIT  1809--DCLINIT
BREAK_PAD_SPEED
       624**DCL      2563>>ASSIGN
CANT_CONTINUE
      2514**LABEL    2510--CALLALT  2511--CALLALT
CGSTATION
      1770**DCL      1665--DCLINIT
CGSTATION.MSGIDXT
      1780**DCL      1783--REDEF
CG_ACCT
       854**DCL       743--DCLINIT  1018--DCLINIT
CG_NAME
       839**DCL       739--DCLINIT  1014--DCLINIT
CLOSELO.SN_
      1856**DCL      1856--REDEF
CLOSELO.UTL_
      1857**DCL      1857--REDEF
CLOSELO.V
      1861**DCL      1856--DCLINIT
PL6.E3A0      #010=TCM$ALEX_PAD_CONNECT File=TCM$ALEX2.:TCA2TSI                  SUN 11/16/97 14:21 Page:337
CLOSELO.V.EXPIRE#
      1871**DCL      1871--REDEF
CLOSELO.V.TYPE#
      1869**DCL      1869--REDEF
CLOSELO.V.XTNSIZE#
      1866**DCL      1866--REDEF    1868--REDEF
CMDSTATION.MSGIDXT
      1376**DCL      1379--REDEF
CR
       628**DCL      2572>>ASSIGN   2578>>ASSIGN   2610>>CALLBLT  2620>>ASSIGN
CURRENT_TRMATTR
      1428**DCL      2561<>CALL     2570<>CALL
CURRENT_TRMATTR.V
      1436**DCL      1430--DCLINIT
DC1DC3
      2450**DCL      2427--DCLINIT
DELCG
      1013**DCL      2510<>CALL
DELCG.ACSVEH_
      1015**DCL      1016--REDEF
DELCG.ALTKEYS_
      1021**DCL      1022--REDEF    1022--REDEF
DELCG.HDR_
      1020**DCL      1021--REDEF
DELCG.TAB_
      1019**DCL      1020--REDEF
DELCG.UHL_
      1013**DCL      1014--REDEF    1014--REDEF
DELCG.V
      1022**DCL      1013--DCLINIT
DELCG.V.FSN#
      1053**DCL      1053--REDEF    1053--REDEF
DELCG.WSN_
      1019**DCL      1019--REDEF
EIGHT_TBL
       636**DCL      2498>>ASSIGN
PL6.E3A0      #010=TCM$ALEX_PAD_CONNECT File=TCM$ALEX2.:TCA2TSI                  SUN 11/16/97 14:21 Page:338
EIGHT_VAL
       635**DCL      2498<<ASSIGN
EOMCG
      2356**DCL      2553<>CALL
EOMCG.V
      2364**DCL      2358--DCLINIT
EOMUSER.V
      2398**DCL      2392--DCLINIT
F$CG
       602**DCL      2519--ASSIGN
F$CG$
       606**DCL      2519<<ASSIGN
F$DCB.ACTPOS
       133**DCL       133--REDEF
F$DCB.ARS#
       107**DCL       107--REDEF
F$DCB.ATTR
       126**DCL       127--REDEF
F$DCB.BORROW
       141**DCL       141--REDEF     141--REDEF     141--REDEF
F$DCB.DCBNAME.L
       155**DCL       155--IMP-SIZ
F$DCB.EOMCHAR#
       111**DCL       111--REDEF
F$DCB.FLDID
       136**DCL       136--REDEF
F$DCB.FORM$
       130**DCL       130--REDEF
F$DCB.FSECT
       146**DCL       146--REDEF
F$DCB.FSN#
       123**DCL       123--REDEF     123--REDEF     124--REDEF
F$DCB.HEADER$
       129**DCL       129--REDEF
F$DCB.IXTNSIZE#
       127**DCL       127--REDEF
PL6.E3A0      #010=TCM$ALEX_PAD_CONNECT File=TCM$ALEX2.:TCA2TSI                  SUN 11/16/97 14:21 Page:339
F$DCB.LASTSTA$
       116**DCL       116--REDEF
F$DCB.LVL
       142**DCL       142--REDEF
F$DCB.NAME#.C
       117**DCL       117--REDEF
F$DCB.NOEOF
       139**DCL       139--REDEF
F$DCB.NRECS#
       128**DCL       128--REDEF
F$DCB.NRECX
       147**DCL       147--REDEF
F$DCB.OHDR
       139**DCL       139--REDEF
F$DCB.ORG#
       122**DCL       122--REDEF
F$DCB.PRECNO
       145**DCL       145--REDEF
F$DCB.RCSZ
       151**DCL       151--REDEF
F$DCB.RES#
       118**DCL       118--REDEF
F$DCB.SETX
       130**DCL       130--REDEF
F$DCB.TAB$
       130**DCL       130--REDEF
F$DCB.TDA
       144**DCL       145--REDEF
F$DCB.WSN#
       118**DCL       118--REDEF
F$USER
       604**DCL      2520--ASSIGN
F$USER$
       607**DCL      2520<<ASSIGN
FPT_CGCTL
      1946**DCL      2522<>CALL
PL6.E3A0      #010=TCM$ALEX_PAD_CONNECT File=TCM$ALEX2.:TCA2TSI                  SUN 11/16/97 14:21 Page:340
FPT_CGCTL.V
      1951**DCL      1946--DCLINIT
FPT_EVENT
      2073**DCL      2503<>CALL
FPT_EVENT.V
      2073**DCL      2073--DCLINIT
FPT_XCON
      2088**DCL      2557<>CALL
FPT_XCON.V
      2089**DCL      2088--DCLINIT
GET_INFO
      2026**DCL      2532<>CALL
GET_INFO.V
      2031**DCL      2026--DCLINIT
I
       627**DCL      2492<<DOINDEX  2493>>DOINDEX  2493>>DOINDEX  2528<<ASSIGN   2529>>DOUNTIL  2530<<ASSIGN
      2530>>ASSIGN   2560<<ASSIGN   2565>>DOUNTIL  2600<<ASSIGN   2600>>ASSIGN   2602>>IF       2635<<CALLBLT
      2636>>IF       2637<<CALLBLT  2638>>IF       2639<<CALLBLT  2640>>IF       2641<<CALLBLT  2642>>IF
      2648>>IF       2648>>IF       2648>>IF       2648>>IF       2648>>IF       2658<<CALLBLT  2660>>IF
INHIBIT_OPERATOR_MESSAGES
      1401**DCL      2555<>CALL
INHIBIT_OPERATOR_MESSAGES.V
      1405**DCL      1403--DCLINIT
LOW_SPEED
      1526**DCL      1503--DCLINIT
LOW_SPEED.SPEED#
      1540**DCL      2563<<ASSIGN
M$ACTIVATE
        46**DCL-ENT  2537--CALL     2541--CALL
M$CGCTL
        47**DCL-ENT  2522--CALL
M$CGINFO
        47**DCL-ENT  2532--CALL
M$DEACTIVATE
        46**DCL-ENT  2524--CALL     2539--CALL
M$EOM
PL6.E3A0      #010=TCM$ALEX_PAD_CONNECT File=TCM$ALEX2.:TCA2TSI                  SUN 11/16/97 14:21 Page:341
        51**DCL-ENT  2553--CALL
M$EVENT
        81**DCL-ENT  2503--CALL
M$FWCG
        47**DCL-ENT  2521--CALL
M$GTRMATTR
        52**DCL-ENT  2561--CALL
M$OPEN
        26**DCL-ENT  2504--CALL     2507--CALL     2510--CALL     2511--CALL
M$PROMPT
        50**DCL-ENT  2552--CALL
M$READ
        27**DCL-ENT  2527--CALL     2586--CALL     2629--CALL
M$STRMATTR
        52**DCL-ENT  2554--CALL     2566--CALL     2570--CALL
M$TRMISC
        55**DCL-ENT  2555--CALL
M$WAIT
        84**DCL-ENT  2531--CALL     2538--CALL     2540--CALL     2569--CALL     2571--CALL     2574--CALL
      2577--CALL     2588--CALL     2632--CALL
M$WRITE
        27**DCL-ENT  2546--CALL     2568--CALL     2573--CALL     2576--CALL     2579--CALL     2605--CALL
      2613--CALL     2616--CALL     2623--CALL     2646--CALL     2671--CALL
M$XCON
        81**DCL-ENT  2557--CALL
OPENCG
       738**DCL      2507<>CALL     2511<>CALL
OPENCG.ACSVEH_
       740**DCL       741--REDEF
OPENCG.ALTKEYS_
       746**DCL       747--REDEF     747--REDEF
OPENCG.HDR_
       745**DCL       746--REDEF
OPENCG.TAB_
       744**DCL       745--REDEF
OPENCG.UHL_
PL6.E3A0      #010=TCM$ALEX_PAD_CONNECT File=TCM$ALEX2.:TCA2TSI                  SUN 11/16/97 14:21 Page:342
       738**DCL       739--REDEF     739--REDEF
OPENCG.V
       747**DCL       738--DCLINIT
OPENCG.V.FSN#
       778**DCL       778--REDEF     778--REDEF
OPENCG.WSN_
       744**DCL       744--REDEF
OPENSTA
       796**DCL       739--DCLINIT
OPENUSER
      1128**DCL      2504<>CALL
OPENUSER.ACSVEH_
      1130**DCL      1131--REDEF
OPENUSER.ALTKEYS_
      1136**DCL      1137--REDEF    1137--REDEF
OPENUSER.HDR_
      1135**DCL      1136--REDEF
OPENUSER.TAB_
      1134**DCL      1135--REDEF
OPENUSER.UHL_
      1128**DCL      1129--REDEF    1129--REDEF
OPENUSER.V
      1137**DCL      1128--DCLINIT
OPENUSER.V.FSN#
      1168**DCL      1168--REDEF    1168--REDEF
OPENUSER.WSN_
      1134**DCL      1134--REDEF
PAD_PROMPT
      2475**DCL      2591>>CALLBLT
PAR
         9**DCL         6--PROC     2498>>ASSIGN   2499>>ASSIGN   2500>>ASSIGN
PAREN_TBL
       638**DCL      2500>>ASSIGN
PAREN_VAL
       637**DCL      2500<<ASSIGN
PCHAR
PL6.E3A0      #010=TCM$ALEX_PAD_CONNECT File=TCM$ALEX2.:TCA2TSI                  SUN 11/16/97 14:21 Page:343
      2331**DCL      2291--DCLINIT  2324--DCLINIT
PROMPTCG
      2318**DCL      2552<>CALL
PROMPTCG.V
      2326**DCL      2320--DCLINIT
PROMPTUSER.V
      2293**DCL      2287--DCLINIT
READAU
      1707**DCL      2527<>CALL
READAU.STATION_
      1710**DCL      1711--REDEF
READAU.V
      1711**DCL      1707--DCLINIT
READAU.V.DVBYTE.REREAD#
      1722**DCL      1722--REDEF
READAU.V.INDX#
      1720**DCL      1720--REDEF
READSI.STATION_
      2170**DCL      2171--REDEF
READSI.V
      2171**DCL      2167--DCLINIT
READSI.V.DVBYTE.REREAD#
      2182**DCL      2182--REDEF
READSI.V.INDX#
      2180**DCL      2180--REDEF
READUSER.STATION_
      2244**DCL      2245--REDEF
READUSER.V
      2245**DCL      2241--DCLINIT
READUSER.V.DVBYTE.REREAD#
      2256**DCL      2256--REDEF
READUSER.V.INDX#
      2254**DCL      2254--REDEF
RED
      2627**LABEL    2660--EXIT
RETRY
PL6.E3A0      #010=TCM$ALEX_PAD_CONNECT File=TCM$ALEX2.:TCA2TSI                  SUN 11/16/97 14:21 Page:344
       621**DCL      2581<<ASSIGN   2584>>DOWHILE  2598<<ASSIGN   2598>>ASSIGN   2625<<ASSIGN   2627>>DOWHILE
      2665<<ASSIGN   2665>>ASSIGN   2668>>IF
SAVED_TRMATTR
      1456**DCL      1434--DCLINIT
SAVED_TRMATTR.SPEED#
      1470**DCL      2562<<ASSIGN
SET_FLOW_CONTROL
      2421**DCL      2554<>CALL
SET_FLOW_CONTROL.V
      2429**DCL      2423--DCLINIT
SET_LOW_SPEED
      1497**DCL      2566<>CALL
SET_LOW_SPEED.V
      1505**DCL      1499--DCLINIT
SIBUF
      2221**DCL      2169--DCLINIT  2170--DCLINIT
STATUS
        11**DCL         6--PROC     2486<<ASSIGN
STATUS.HOST_SHUT
        12**DCL      2653<<ASSIGN
TAKE15.V
      2147**DCL      2146--DCLINIT
TCM$ALEX_DISCONNECT
      2479**DCL-ENT  2514--CALL     2548--CALL     2607--CALL     2654--CALL     2673--CALL
TCM$ALEX_EVNT
      2478**DCL-ENT  2073--DCLINIT
TCM$ALEX_XCON
      2481**DCL-ENT  2089--DCLINIT
TCM_ALEX_BAILOUT
        15**DCL        16--REDEF    2489<<ASSIGN
TCM_ALEX_BAILOUT_ENABLED
        16**DCL      2488<<ASSIGN
TCM_BLEN
      1830**DCL      1829--IMP-SIZ  2493<<DOINDEX  2494>>ASSIGN   2494>>ASSIGN   2611<<CALLBLT  2612>>ASSIGN
      2619<<CALLBLT  2620>>ASSIGN   2621<<ASSIGN   2621>>ASSIGN   2622>>ASSIGN
TCM_COMMAND
PL6.E3A0      #010=TCM$ALEX_PAD_CONNECT File=TCM$ALEX2.:TCA2TSI                  SUN 11/16/97 14:21 Page:345
       612**DCL      2526<<ASSIGN
TCM_CONNECTED
       618**DCL      2502<<ASSIGN   2536<<ASSIGN
TCM_DELETEMES
      1188**DCL      2521<>CALL
TCM_EPTBLI
       631**DCL       632--REDEF
TCM_G_PARITY
        13**DCL      2499<<ASSIGN
TCM_INT
       614**DCL      2518<<ASSIGN   2582<<ASSIGN   2587>>IF       2590>>IF       2628<<ASSIGN   2631>>IF
      2634>>IF
TCM_LOCALMODE
       617**DCL      2678<<ASSIGN
TCM_MBLEN
       620**DCL      2525<<ASSIGN   2583<<ASSIGN   2591>>CALLBLT  2595>>IF       2626<<ASSIGN   2635>>CALLBLT
      2636>>IF       2637>>CALLBLT  2638>>IF       2639>>CALLBLT  2640>>IF       2641>>CALLBLT  2642>>IF
      2643>>CALLBLT  2658>>CALLBLT  2660>>IF       2661<<ASSIGN   2677<<ASSIGN
TCM_MODEMBUF
       619**DCL      2591>>CALLBLT  2595>>IF       2635>>CALLBLT  2637>>CALLBLT  2639>>CALLBLT  2641>>CALLBLT
      2643>>CALLBLT  2648>>IF       2648>>IF       2648>>IF       2648>>IF       2648>>IF       2658>>CALLBLT
TCM_NEEDREAD
       616**DCL      2679<<ASSIGN
TCM_OPTBLI
       633**DCL       634--REDEF
TCM_OUTREC
       640**DCL      2491<<ASSIGN
TCM_READCG
      1616**DCL      2586<>CALL
TCM_READCG.STATION_
      1619**DCL      1620--REDEF
TCM_READCG.V.DVBYTE.REREAD#
      1631**DCL      1631--REDEF
TCM_READCG.V.INDX#
      1629**DCL      1629--REDEF
TCM_READCGBIG.STATION_
PL6.E3A0      #010=TCM$ALEX_PAD_CONNECT File=TCM$ALEX2.:TCA2TSI                  SUN 11/16/97 14:21 Page:346
      1809**DCL      1810--REDEF
TCM_READCGBIG.V
      1810**DCL      1806--DCLINIT
TCM_READCGBIG.V.DVBYTE.REREAD#
      1821**DCL      1821--REDEF
TCM_READCGBIG.V.INDX#
      1819**DCL      1819--REDEF
TCM_READCGBUF
      1785**DCL      1664--DCLINIT  1665--DCLINIT  1709--DCLINIT  1710--DCLINIT
TCM_READCGNONTRANS
      1662**DCL      2629<>CALL
TCM_READCGNONTRANS.STATION_
      1665**DCL      1666--REDEF
TCM_READCGNONTRANS.V
      1666**DCL      1662--DCLINIT
TCM_READCGNONTRANS.V.DVBYTE.REREAD#
      1677**DCL      1677--REDEF
TCM_READCGNONTRANS.V.INDX#
      1675**DCL      1675--REDEF
TCM_READCMD.STATION_
      1573**DCL      1574--REDEF
TCM_READCMD.V.DVBYTE.REREAD#
      1585**DCL      1585--REDEF
TCM_READCMD.V.INDX#
      1583**DCL      1583--REDEF
TCM_READUSERBUF
      2264**DCL      2243--DCLINIT  2244--DCLINIT
TCM_STRIPPAR
       639**DCL      2494<<ASSIGN
TCM_TURNOFF
      1920**DCL      2524<>CALL     2539<>CALL
TCM_TURNOFF.V.DVBYTE.REREAD#
      1923**DCL      1923--REDEF
TCM_TURNON
      1892**DCL      2537<>CALL     2541<>CALL
TCM_TURNON.V.DVBYTE.REREAD#
PL6.E3A0      #010=TCM$ALEX_PAD_CONNECT File=TCM$ALEX2.:TCA2TSI                  SUN 11/16/97 14:21 Page:347
      1895**DCL      1895--REDEF
TCM_UOBUF
      2222**DCL      2544<<ASSIGN   2603<<ASSIGN   2614<<CALLBLT  2643<<CALLBLT  2669<<ASSIGN
TCM_USING_PAD
       611**DCL      2501<<ASSIGN
TCM_WAIT1
      2118**DCL      2531<>CALL     2538<>CALL     2540<>CALL     2569<>CALL     2571<>CALL     2574<>CALL
      2577<>CALL     2588<>CALL     2632<>CALL
TCM_WRITECG
      1267**DCL      2568<>CALL     2573<>CALL     2576<>CALL     2579<>CALL     2613<>CALL     2623<>CALL
TCM_WRITECG.BUF_
      1267**DCL      2559<<ASSIGN   2612<<ASSIGN   2622<<ASSIGN
TCM_WRITECG.STATION_
      1269**DCL      1269--REDEF
TCM_WRITECG.V.DVBYTE.VFC#
      1276**DCL      1276--REDEF
TCM_WRITECGBUF
      1282**DCL      2559--ASSIGN   2567<<ASSIGN   2572<<ASSIGN   2575<<ASSIGN   2578<<ASSIGN   2610<<CALLBLT
      2611>>CALLBLT  2612--ASSIGN   2618<<CALLBLT  2619>>CALLBLT  2620<<ASSIGN   2622--ASSIGN
TCM_WRITEUO
      2206**DCL      2546<>CALL     2605<>CALL     2616<>CALL     2646<>CALL     2671<>CALL
TCM_WRITEUO.STATION_
      2208**DCL      2208--REDEF
TCM_WRITEUO.V.DVBYTE.VFC#
      2215**DCL      2215--REDEF
TCM_WRITEUSER.STATION_
      1306**DCL      1306--REDEF
TCM_WRITEUSER.V.DVBYTE.VFC#
      1313**DCL      1313--REDEF
TCM_XCON$
      2091**DCL      2088--DCLINIT
TEMP
       622**DCL      2591<<CALLBLT
VLP_CGCP
      1981**DCL      1947--DCLINIT
VLP_CGCP.DVBYTE.REREAD#
PL6.E3A0      #010=TCM$ALEX_PAD_CONNECT File=TCM$ALEX2.:TCA2TSI                  SUN 11/16/97 14:21 Page:348
      1995**DCL      1996--REDEF
VLP_CGMA.MSGIDXT
      1220**DCL      1223--REDEF
VLR_CGSTATS
      2048**DCL      2028--DCLINIT
VLR_CGSTATS.NUMTERMS
      2054**DCL      2529>>DOUNTIL  2534>>IF
WRITE_STATION
      1336**DCL      1403--DCLINIT  1432--DCLINIT  1501--DCLINIT  2322--DCLINIT  2360--DCLINIT  2425--DCLINIT
WRITE_STATION.MSGIDXT
      1346**DCL      1349--REDEF
PL6.E3A0      #010=TCM$ALEX_PAD_CONNECT File=TCM$ALEX2.:TCA2TSI                  SUN 11/16/97 14:21 Page:349
              *** CROSS REFERENCE LISTING ***
    **     DENOTES     IDENTIFIER DEFINITION
    <<                 IDENTIFIER'S VALUE SET
    >>                 IDENTIFIER'S VALUE USED
    <>                 IDENTIFIER SET AND/OR USED
    --                 IDENTIFIER REFERENCED
PL6.E3A0      #010=TCM$ALEX_PAD_CONNECT File=TCM$ALEX2.:TCA2TSI                  SUN 11/16/97 14:21 Page:350
              MINI UREF LISTING

B$TCB     452**DCL
BUFC    1829**DCL
CMDBUF    1320**DCL
CMDBUFLEN    1321**DCL
CMDI     625**DCL
EPTBL     632**DCL
F$UO     605**DCL
FLAG     630**DCL
INTRO    2483**DCL-ENT
KOZINN    2480**DCL-ENT
LCLPROMPT    2332**DCL
LF     629**DCL
M$ACCT      43**DCL-ENT
M$ALIB      39**DCL-ENT
M$ASUSER      41**DCL-ENT
M$ATTACH      48**DCL-ENT
M$BADPP      66**DCL-ENT
M$CHECK      28**DCL-ENT
M$CHGUNIT      86**DCL-ENT
M$CLOSE      26**DCL-ENT
M$CLRSTK      84**DCL-ENT
M$CMDVAR      95**DCL-ENT
M$CONFIG      56**DCL-ENT
M$CORRES      31**DCL-ENT
M$CPEXIT      40**DCL-ENT
M$CVM      64**DCL-ENT
M$CVOL      29**DCL-ENT
M$DCLFLD      56**DCL-ENT
M$DELREC      28**DCL-ENT
M$DEQ      93**DCL-ENT
M$DETACH      48**DCL-ENT
M$DEVICE      30**DCL-ENT
PL6.E3A0      #010=TCM$ALEX_PAD_CONNECT File=TCM$ALEX2.:TCA2TSI                  SUN 11/16/97 14:21 Page:351
M$DISPLAY      93**DCL-ENT
M$DISPRES      33**DCL-ENT
M$DLIB      39**DCL-ENT
M$DRIBBLE      56**DCL-ENT
M$DRTN      84**DCL-ENT
M$DSUSER      41**DCL-ENT
M$ENQ      92**DCL-ENT
M$ERASE      57**DCL-ENT
M$ERR      38**DCL-ENT
M$ERRMSG      89**DCL-ENT
M$EXHUME      90**DCL-ENT
M$EXIT      38**DCL-ENT
M$EXTEND      30**DCL-ENT
M$FDP      62**DCL-ENT
M$FDS      61**DCL-ENT
M$FEBOOT      54**DCL-ENT
M$FECTL      55**DCL-ENT
M$FEDUMP      54**DCL-ENT
M$FID      89**DCL-ENT
M$FINDPROC      43**DCL-ENT
M$FSUSER      41**DCL-ENT
M$FVP      63**DCL-ENT
M$GBPL      67**DCL-ENT
M$GDDL      63**DCL-ENT
M$GDP      62**DCL-ENT
M$GDS      61**DCL-ENT
M$GETDCB      32**DCL-ENT
M$GETMOUSE      72**DCL-ENT
M$GETPM      73**DCL-ENT
M$GJOB      91**DCL-ENT
M$GLINEATTR      51**DCL-ENT
M$GOODPP      66**DCL-ENT
M$GPLATEN      59**DCL-ENT
M$GPROMPT      58**DCL-ENT
M$GTRMCTL      50**DCL-ENT
M$GTRMTAB      53**DCL-ENT
PL6.E3A0      #010=TCM$ALEX_PAD_CONNECT File=TCM$ALEX2.:TCA2TSI                  SUN 11/16/97 14:21 Page:352
M$GVP      62**DCL-ENT
M$HELP      89**DCL-ENT
M$INT      81**DCL-ENT
M$INTRTN      42**DCL-ENT
M$IOQ      77**DCL-ENT
M$JOBSTATS      91**DCL-ENT
M$KEYIN      31**DCL-ENT
M$LDEV      26**DCL-ENT
M$LDTRC      39**DCL-ENT
M$LIMIT      32**DCL-ENT
M$LINES      31**DCL-ENT
M$LINK      38**DCL-ENT
M$MADMUCK      34**DCL-ENT
M$MAKUSER      65**DCL-ENT
M$MBS      33**DCL-ENT
M$MDFFLD      57**DCL-ENT
M$MERC      82**DCL-ENT
M$MERCS      83**DCL-ENT
M$MIRROR      77**DCL-ENT
M$MONINFO      94**DCL-ENT
M$MPL      67**DCL-ENT
M$NODEINFO      58**DCL-ENT
M$NXTUSR      92**DCL-ENT
M$OCMSG      90**DCL-ENT
M$OLAY      38**DCL-ENT
M$PAS      67**DCL-ENT
M$PATHCON      90**DCL-ENT
M$PDS      61**DCL-ENT
M$PFIL      28**DCL-ENT
M$PLATEN      52**DCL-ENT
M$PRECORD      30**DCL-ENT
M$PROCNAME      43**DCL-ENT
M$PROFILE      54**DCL-ENT
M$RACST      34**DCL-ENT
M$RDSYSLOG      75**DCL-ENT
M$RELDCB      32**DCL-ENT
PL6.E3A0      #010=TCM$ALEX_PAD_CONNECT File=TCM$ALEX2.:TCA2TSI                  SUN 11/16/97 14:21 Page:353
M$RELRES      33**DCL-ENT
M$RELSTARF      35**DCL-ENT
M$REM      35**DCL-ENT
M$RENV      82**DCL-ENT
M$REQUIRE      34**DCL-ENT
M$RETRY      83**DCL-ENT
M$RETRYS      83**DCL-ENT
M$REW      29**DCL-ENT
M$RLSFLD      57**DCL-ENT
M$RPRIV      85**DCL-ENT
M$RSPP      64**DCL-ENT
M$RSWITCH      86**DCL-ENT
M$RUE      92**DCL-ENT
M$SAD      65**DCL-ENT
M$SAVE      41**DCL-ENT
M$SCON      42**DCL-ENT
M$SCREECH      40**DCL-ENT
M$SENV      82**DCL-ENT
M$SETFMA      26**DCL-ENT
M$SETFP      55**DCL-ENT
M$SI     603**DCL
M$SINPUT      53**DCL-ENT
M$SLCFLD      58**DCL-ENT
M$SMOUSE      72**DCL-ENT
M$SMPRT      64**DCL-ENT
M$SPRIV      85**DCL-ENT
M$SSC      65**DCL-ENT
M$SSWITCH      85**DCL-ENT
M$STATE      94**DCL-ENT
M$STD      66**DCL-ENT
M$STIMER      80**DCL-ENT
M$STLPP      63**DCL-ENT
M$STRAP      80**DCL-ENT
M$STRMCTL      50**DCL-ENT
M$STRMTAB      53**DCL-ENT
M$SYMBIO      91**DCL-ENT
PL6.E3A0      #010=TCM$ALEX_PAD_CONNECT File=TCM$ALEX2.:TCA2TSI                  SUN 11/16/97 14:21 Page:354
M$SYSCON      77**DCL-ENT
M$SYSID      95**DCL-ENT
M$TDCLOSE      76**DCL-ENT
M$TDIO      76**DCL-ENT
M$TDOPEN      75**DCL-ENT
M$TDREQCPU      76**DCL-ENT
M$TEMPWROC      70**DCL-ENT
M$TIME      93**DCL-ENT
M$TRAP      80**DCL-ENT
M$TRMPRG      51**DCL-ENT
M$TRTN      84**DCL-ENT
M$TRUNC      27**DCL-ENT
M$TTIMER      80**DCL-ENT
M$UC      50**DCL
M$UMPL      67**DCL-ENT
M$UNFID      89**DCL-ENT
M$UNLATCH      46**DCL-ENT
M$UNSHARE      43**DCL-ENT
M$USRFIELD      86**DCL-ENT
M$VIRTUAL      61**DCL-ENT
M$WEOF      29**DCL-ENT
M$WRSYSLOG      75**DCL-ENT
M$XCONRTN      42**DCL-ENT
M$XEQTIME      94**DCL-ENT
M$XFLUSH      35**DCL-ENT
M$XMOUSE      72**DCL-ENT
M$XXX      38**DCL-ENT
M$YC      40**DCL-ENT
OFFMES     649**DCL
OPTBL     634**DCL
REMOVE_PROGRAM    2472**DCL
SLOG     608**DCL
TBUF       8**DCL
TCM$ALEX_OK    2482**DCL-ENT
TCM$ALEX_PAD_CONNECT       6**PROC
TCM_EXEC     613**DCL
PL6.E3A0      #010=TCM$ALEX_PAD_CONNECT File=TCM$ALEX2.:TCA2TSI                  SUN 11/16/97 14:21 Page:355
TCM_LOCAL     615**DCL
TCM_NORM    2104**DCL
TCM_TAKE5    2132**DCL
TCM_TIMEOUT     626**DCL
TCM_WRITEUSERBUF    1319**DCL
VLP_SCGMA    1240**DCL
WARNMES     641**DCL
