PL6.E3A0      #002=TCM$ABORT File=TCM$MAIL1.:TCA2TSI                             SUN 11/16/97 14:27 Page:515
     2642        1        /*T***********************************************************/
     2643        2        /*T*                                                         */
     2644        3        /*T* Copyright (c) Bull HN Information Systems Inc., 1997    */
     2645        4        /*T*                                                         */
     2646        5        /*T***********************************************************/
     2647        6        TCM$ABORT: PROC ASYNC;
     2648        7        %INCLUDE CP_6;
     2649       88            %B$EXCFR;
     2650      106            %B$TCB( STCLASS="BASED( B$TCB$)");
     2651      109            %B$XCON;
     2652      119            %F$DCB;
     2653      176            %SUB_EXC;
     2654      223            %FPT_CLOSE( FPTN=CLOSE_NODES, DCB=F$NODES, DISP=SAVE, STCLASS=CONSTANT);
     2655      265            %FPT_ERRMSG( SOURCE=TRAP, RESULTS=VLR_ERRMSG, BUF=OOPS, STCLASS=CONSTANT);
     2656      292            %FPT_KEYIN( FPTN=TCM_KEYIN, STCLASS=SYMREF);
     2657      311            %FPT_WRITE( FPTN=WRITE_UC, DCB=M$ME, BUF=REPLY421);
     2658      342            %FPT_YC( FPTN=TCM_YC_OFF, STCLASS=SYMREF);
     2659      359            %FPT_SCREECH (FPTN=SCREECH2, STCLASS=SYMREF);
     2660      373            %FPT_PRIV( FPTN=JIT_PRIV, STCLASS=SYMREF);
     2661      388            %VLR_ERRMSG;
     2662      410        %INCLUDE B$JIT;
     2663      700        %INCLUDE CP_6_SUBS;
     2664     1240
     2665     1241    1       DCL TCM$WRITE_AUDIT_OFF ENTRY(2);
     2666     1242
     2667     1243    1       DCL B$TCB$ PTR SYMREF READONLY;
     2668     1244    1       DCL B$JIT$ PTR SYMREF READONLY;
     2669     1245
     2670     1246    1       DCL F$NODES DCB;
     2671     1247    1       DCL M$ME DCB;
     2672     1248    1       DCL FIRST_TIME UBIN STATIC INIT( 0);
     2673     1249    1       DCL LASTNONBLANK UBIN;
     2674     1250    1       DCL OOPS CHAR( 120) STATIC;
     2675     1251    1       DCL REPLY421 CONSTANT CHAR( 0) INIT(
     2676     1252    1           '421          Closing transmission channel');
     2677     1253    1       DCL SCRAP UBIN;
     2678     1254    1       DCL TCM_SKIP_BLANKS( 0:127) UBIN BYTE CALIGNED SYMREF READONLY;
PL6.E3A0      #002=TCM$ABORT File=TCM$MAIL1.:TCA2TSI                             SUN 11/16/97 14:27 Page:516
     2679     1255    1       DCL TCM_TCPFLAVOR BIT(1) STATIC SYMDEF INIT( '1'B);
     2680     1256    1       DCL IC CHAR(6) STATIC INIT( '000000');
     2681     1257    1       DCL I SBIN;
     2682     1258    1       DCL TEMP SBIN;
     2683     1259    1       DCL TXT CHAR(120);
     2684     1260
     2685     1261    1       IF FIRST_TIME > 0 THEN
     2686     1262    1           GOTO BYPASS;
     2687     1263    1       FIRST_TIME = 1;
     2688     1264    1       IF B$TCB.STK$->B$EXCFR.ECC = %ECC_XCON# THEN
     2689     1265    2           IF B$TCB.STK$->B$XCON.RNST.OPERR THEN DO;
     2690     1266    2               IF DCBADDR( DCBNUM( F$NODES))->F$DCB.FCD# THEN
     2691     1267    2                   CALL M$CLOSE( CLOSE_NODES) ALTRET( NOCLOSE);
     2692     1268    2               FIRST_TIME = 0;
     2693     1269    2               RETURN;
     2694     1270    2   NOCLOSE:
     2695     1271    2               END;
     2696     1272    1       TEMP = B$TCB.STK$->B$EXCFR.IC;
     2697     1273    1       I = 5;
     2698     1274    2       DO WHILE( TEMP > 0);
     2699     1275    2           SUBSTR( IC, I, 1) = BINASC( ASCBIN( '0') + MOD( TEMP, 8));
     2700     1276    2           TEMP = TEMP / 8;  I = I - 1;
     2701     1277    2           END;
     2702     1278    1       CALL M$ERRMSG( FPT_ERRMSG) ALTRET( DISCONNECT_EM);
     2703     1279    1       CALL SEARCHR( LASTNONBLANK, SCRAP, TCM_SKIP_BLANKS, OOPS);
     2704     1280    1       TCM_KEYIN.MESS_ = VECTOR( SUBSTR( OOPS, 0, LASTNONBLANK+1));
     2705     1281    1       CALL M$KEYIN( TCM_KEYIN) ALTRET( DISCONNECT_EM);
     2706     1282    1   DISCONNECT_EM:
     2707     1283    1       IF TCM_TCPFLAVOR THEN
     2708     1284    1           WRITE_UC.V.DCB# = DCBNUM( M$ME);
     2709     1285    1       ELSE
     2710     1286    1           WRITE_UC.V.DCB# = DCBNUM( M$UC);
     2711     1287    1       CALL M$WRITE( WRITE_UC) ALTRET( IGNORED);
     2712     1288    1   IGNORED:
     2713     1289    1       CALL CONCAT( TXT, '.', IC, ' ', SUBSTR( OOPS, 1, 12));
     2714     1290    1       CALL TCM$WRITE_AUDIT_OFF( 20, TXT);
     2715     1291    1       IF NOT TCM_TCPFLAVOR THEN
PL6.E3A0      #002=TCM$ABORT File=TCM$MAIL1.:TCA2TSI                             SUN 11/16/97 14:27 Page:517
     2716     1292    1           CALL M$YC( TCM_YC_OFF) ALTRET( BYPASS);
     2717     1293    1   BYPASS:
     2718     1294    1       CALL M$SPRIV( JIT_PRIV);
     2719     1295    1       B$JIT.PRIV.ACTIVE.EXMM = %YES#;  /* so we can SNAP */
     2720     1296    1       CALL M$SCREECH( SCREECH2);  /* ..a SNAP, really */
     2721     1297    1       CALL M$EXIT;
     2722     1298
     2723     1299    1       END TCM$ABORT;

PL6.E3A0      #002=TCM$ABORT File=TCM$MAIL1.:TCA2TSI                             SUN 11/16/97 14:27 Page:518
--  Include file information  --

   CP_6_SUBS.:LIBRARY  is referenced.
   B$JIT.:LIBRARY  cannot be made into a system file and is referenced.
   CP_6.:LIBRARY  cannot be made into a system file and is referenced.
   B$JIT_C.:E05TOU  was found in the system file and is referenced.
   CP_6_C.:E05TOU  was found in the system file and is referenced.
      No diagnostics issued in procedure TCM$ABORT.

   Procedure TCM$ABORT requires 127 words for executable code.
   Procedure TCM$ABORT requires 40 words of local(AUTO) storage.

    No errors detected in file TCM$MAIL1.:TCA2TSI    .

PL6.E3A0      #002=TCM$ABORT File=TCM$MAIL1.:TCA2TSI                             SUN 11/16/97 14:27 Page:519

 Object Unit name= TCM$ABORT                                  File name= TCM$MAIL1.:TCA2TOU
 UTS= NOV 16 '97 14:27:12.52 SUN                              Compiler= PL-6/E31         Sev=      00
 SharedLib= :SHARED_SYSTEM                                    Alt SharedLib=


    ****  Control sections  ****

 Sect   Type Bound  Init  Size OctSiz  Section name(segment info)
    0   DCB   even  none     0      0  M$UC
    1  RoData even  UTS     67    103  TCM$ABORT
    2   Data  even  none    50     62  TCM$ABORT
    3   DCB   even  none     0      0  F$NODES
    4   DCB   even  none     0      0  M$ME
    5   Proc  even  none   127    177  TCM$ABORT
    6  RoData even  none     5      5  TCM$ABORT

    ****  Entry defs  ****

                              Check   Calling
                             calling  sequence
  Sect OctLoc Primary Altret sequence   type   Parms  Name
     5      0   yes            yes     Async       0  TCM$ABORT

  ****  Data defs  ****

 Sect OctLoc  Name                           Sect OctLoc  Name
    2     57  TCM_TCPFLAVOR

  ****  Entry refs  ****

         Check        Calling
        calling       sequence
Altret sequence SRef   type   Args  Name
         yes           Std       2 TCM$WRITE_AUDIT_OFF
                       nStd      0 X66_AAUTO
                       nStd      0 X66_AARET
                       Std       0 B_CONSPOOL_D
PL6.E3A0      #002=TCM$ABORT File=TCM$MAIL1.:TCA2TSI                             SUN 11/16/97 14:27 Page:520

  ****  Data refs  ****

  Flags:  r = read only, s = secondary
Flgs Name                             Flgs Name                             Flgs Name
     M$UC                                  TCM_KEYIN                             TCM_YC_OFF
     SCREECH2                              JIT_PRIV                         r    B$TCB$
r    B$JIT$                                F$NODES                               M$ME
r    TCM_SKIP_BLANKS                       B_VECTNIL

  ****  Segment refs  ****

  Flags:  r = read only, s = secondary
Flgs Name                             Flgs Name                             Flgs Name
     ISSID                                 NULLSID                               ROSID
PL6.E3A0      #002=TCM$ABORT File=TCM$MAIL1.:TCA2TSI                             SUN 11/16/97 14:27 Page:521


     2642        1        /*T***********************************************************/
     2643        2        /*T*                                                         */
     2644        3        /*T* Copyright (c) Bull HN Information Systems Inc., 1997    */
     2645        4        /*T*                                                         */
     2646        5        /*T***********************************************************/
     2647        6        TCM$ABORT: PROC ASYNC;

      6  5 000000   000000 700200 xent  TCM$ABORT    TSX0  ! X66_AAUTO
         5 000001   000050 000000                    ZERO    40,0

     2648        7        %INCLUDE CP_6;
     2649       88            %B$EXCFR;
     2650      106            %B$TCB( STCLASS="BASED( B$TCB$)");
     2651      109            %B$XCON;
     2652      119            %F$DCB;
     2653      176            %SUB_EXC;
     2654      223            %FPT_CLOSE( FPTN=CLOSE_NODES, DCB=F$NODES, DISP=SAVE, STCLASS=CONSTANT);
     2655      265            %FPT_ERRMSG( SOURCE=TRAP, RESULTS=VLR_ERRMSG, BUF=OOPS, STCLASS=CONSTANT);
     2656      292            %FPT_KEYIN( FPTN=TCM_KEYIN, STCLASS=SYMREF);
     2657      311            %FPT_WRITE( FPTN=WRITE_UC, DCB=M$ME, BUF=REPLY421);
     2658      342            %FPT_YC( FPTN=TCM_YC_OFF, STCLASS=SYMREF);
     2659      359            %FPT_SCREECH (FPTN=SCREECH2, STCLASS=SYMREF);
     2660      373            %FPT_PRIV( FPTN=JIT_PRIV, STCLASS=SYMREF);
     2661      388            %VLR_ERRMSG;
     2662      410        %INCLUDE B$JIT;
     2663      700        %INCLUDE CP_6_SUBS;
     2664     1240
     2665     1241    1       DCL TCM$WRITE_AUDIT_OFF ENTRY(2);
     2666     1242
     2667     1243    1       DCL B$TCB$ PTR SYMREF READONLY;
     2668     1244    1       DCL B$JIT$ PTR SYMREF READONLY;
     2669     1245
     2670     1246    1       DCL F$NODES DCB;
     2671     1247    1       DCL M$ME DCB;
     2672     1248    1       DCL FIRST_TIME UBIN STATIC INIT( 0);
     2673     1249    1       DCL LASTNONBLANK UBIN;
PL6.E3A0      #002=TCM$ABORT File=TCM$MAIL1.:TCA2TSI                             SUN 11/16/97 14:27 Page:522
     2674     1250    1       DCL OOPS CHAR( 120) STATIC;
     2675     1251    1       DCL REPLY421 CONSTANT CHAR( 0) INIT(
     2676     1252    1           '421          Closing transmission channel');
     2677     1253    1       DCL SCRAP UBIN;
     2678     1254    1       DCL TCM_SKIP_BLANKS( 0:127) UBIN BYTE CALIGNED SYMREF READONLY;
     2679     1255    1       DCL TCM_TCPFLAVOR BIT(1) STATIC SYMDEF INIT( '1'B);
     2680     1256    1       DCL IC CHAR(6) STATIC INIT( '000000');
     2681     1257    1       DCL I SBIN;
     2682     1258    1       DCL TEMP SBIN;
     2683     1259    1       DCL TXT CHAR(120);
     2684     1260
     2685     1261    1       IF FIRST_TIME > 0 THEN

   1261  5 000002   000020 235000 2                  LDA     FIRST_TIME
         5 000003   000163 601000 5                  TNZ     BYPASS

     2686     1262    1           GOTO BYPASS;
     2687     1263    1       FIRST_TIME = 1;

   1263  5 000004   000001 236007                    LDQ     1,DL
         5 000005   000020 756000 2                  STQ     FIRST_TIME

     2688     1264    1       IF B$TCB.STK$->B$EXCFR.ECC = %ECC_XCON# THEN

   1264  5 000006   000000 470400 xsym               LDP0    B$TCB$
         5 000007   000001 471500                    LDP1    1,,PR0
         5 000010   100000 720100                    LXL0    0,,PR1
         5 000011   000003 100003                    CMPX0   3,DU
         5 000012   000033 601000 5                  TNZ     s:1272

     2689     1265    2           IF B$TCB.STK$->B$XCON.RNST.OPERR THEN DO;

   1265  5 000013   100101 236100                    LDQ     65,,PR1
         5 000014   020000 316003                    CANQ    8192,DU
         5 000015   000033 600000 5                  TZE     s:1272

     2690     1266    2               IF DCBADDR( DCBNUM( F$NODES))->F$DCB.FCD# THEN
PL6.E3A0      #002=TCM$ABORT File=TCM$MAIL1.:TCA2TSI                             SUN 11/16/97 14:27 Page:523

   1266  5 000016   000000 236007 xsym               LDQ     F$NODES,DL
         5 000017   000000 473400 6                  LDP3    0
         5 000020   300000 474500                    LDP4    0,,PR3
         5 000021   400000 475506                    LDP5    0,QL,PR4
         5 000022   500031 236100                    LDQ     25,,PR5
         5 000023   020000 316007                    CANQ    8192,DL
         5 000024   000031 600000 5                  TZE     s:1268

     2691     1267    2                   CALL M$CLOSE( CLOSE_NODES) ALTRET( NOCLOSE);

   1267  5 000025   000000 630400 1                  EPPR0   CLOSE_NODES
         5 000026   450001 713400                    CLIMB   alt,close
         5 000027   406000 401760                    pmme    nvectors=13
         5 000030   000033 702000 5                  TSX2    s:1272

     2692     1268    2               FIRST_TIME = 0;

   1268  5 000031   000020 450000 2                  STZ     FIRST_TIME

     2693     1269    2               RETURN;

   1269  5 000032   000000 702200 xent               TSX2  ! X66_AARET

     2694     1270    2   NOCLOSE:
     2695     1271    2               END;
     2696     1272    1       TEMP = B$TCB.STK$->B$EXCFR.IC;

   1272  5 000033   000000 470400 xsym               LDP0    B$TCB$
         5 000034   000001 471500                    LDP1    1,,PR0
         5 000035   100004 236100                    LDQ     4,,PR1
         5 000036   000022 772000                    QRL     18
         5 000037   200006 756100                    STQ     TEMP,,AUTO

     2697     1273    1       I = 5;

   1273  5 000040   000005 235007                    LDA     5,DL
PL6.E3A0      #002=TCM$ABORT File=TCM$MAIL1.:TCA2TSI                             SUN 11/16/97 14:27 Page:524
         5 000041   200005 755100                    STA     I,,AUTO

     2698     1274    2       DO WHILE( TEMP > 0);

   1274  5 000042   000000 116003                    CMPQ    0,DU
         5 000043   000066 604400 5                  TMOZ    s:1278

     2699     1275    2           SUBSTR( IC, I, 1) = BINASC( ASCBIN( '0') + MOD( TEMP, 8));

   1275  5 000044   200006 236100                    LDQ     TEMP,,AUTO
         5 000045   000010 506007                    DIV     8,DL
         5 000046   000044 733000                    LRS     36
         5 000047   000060 036007                    ADLQ    48,DL
         5 000050   000033 736000                    QLS     27
         5 000051   000001 276000 6                  ORQ     1
         5 000052   200046 756100                    STQ     TXT+31,,AUTO
         5 000053   200005 235100                    LDA     I,,AUTO
         5 000054   040005 100500                    MLR     fill='040'O
         5 000055   200046 000004                    ADSC9   TXT+31,,AUTO             cn=0,n=4
         5 000056   000060 000001 2                  ADSC9   IC,A                     cn=0,n=1

     2700     1276    2           TEMP = TEMP / 8;  I = I - 1;

   1276  5 000057   200006 236100                    LDQ     TEMP,,AUTO
         5 000060   000010 506007                    DIV     8,DL
         5 000061   200006 756100                    STQ     TEMP,,AUTO

   1276  5 000062   000001 336007                    LCQ     1,DL
         5 000063   200005 056100                    ASQ     I,,AUTO

     2701     1277    2           END;

   1277  5 000064   200006 235100                    LDA     TEMP,,AUTO
         5 000065   000044 605400 5                  TPNZ    s:1275

     2702     1278    1       CALL M$ERRMSG( FPT_ERRMSG) ALTRET( DISCONNECT_EM);

PL6.E3A0      #002=TCM$ABORT File=TCM$MAIL1.:TCA2TSI                             SUN 11/16/97 14:27 Page:525
   1278  5 000066   000036 630400 1                  EPPR0   FPT_ERRMSG
         5 000067   420000 713400                    CLIMB   alt,+8192
         5 000070   405000 401760                    pmme    nvectors=11
         5 000071   000116 702000 5                  TSX2    DISCONNECT_EM

     2703     1279    1       CALL SEARCHR( LASTNONBLANK, SCRAP, TCM_SKIP_BLANKS, OOPS);

   1279  5 000072   000000 165400                    TCTR
         5 000073   000021 000170 2                  ADSC9   OOPS                     cn=0,n=120
         5 000074   000000 000000 xsym               ARG     TCM_SKIP_BLANKS
         5 000075   200003 000100                    ARG     LASTNONBLANK,,AUTO
         5 000076   200003 235100                    LDA     LASTNONBLANK,,AUTO
         5 000077   000033 771000                    ARL     27
         5 000100   200004 755100                    STA     SCRAP,,AUTO
         5 000101   200003 551140                    STBA    LASTNONBLANK,'40'O,AUTO
         5 000102   000105 606400 5                  TTN     s:1280
         5 000103   000167 236007                    LDQ     119,DL
         5 000104   200003 156100                    SSQ     LASTNONBLANK,,AUTO

     2704     1280    1       TCM_KEYIN.MESS_ = VECTOR( SUBSTR( OOPS, 0, LASTNONBLANK+1));

   1280  5 000105   200003 236100                    LDQ     LASTNONBLANK,,AUTO
         5 000106   000064 737000                    LLS     52
         5 000107   177640 035007                    ADLA    65440,DL
         5 000110   000002 236000 6                  LDQ     2
         5 000111   000002 757000 xsym               STAQ    TCM_KEYIN+2

     2705     1281    1       CALL M$KEYIN( TCM_KEYIN) ALTRET( DISCONNECT_EM);

   1281  5 000112   000000 630400 xsym               EPPR0   TCM_KEYIN
         5 000113   520000 713400                    CLIMB   alt,+40960
         5 000114   401400 401760                    pmme    nvectors=4
         5 000115   000116 702000 5                  TSX2    DISCONNECT_EM

     2706     1282    1   DISCONNECT_EM:
     2707     1283    1       IF TCM_TCPFLAVOR THEN

PL6.E3A0      #002=TCM$ABORT File=TCM$MAIL1.:TCA2TSI                             SUN 11/16/97 14:27 Page:526
   1283  5 000116   000057 234000 2     DISCONNECT_* SZN     TCM_TCPFLAVOR
         5 000117   000124 605000 5                  TPL     s:1286

     2708     1284    1           WRITE_UC.V.DCB# = DCBNUM( M$ME);

   1284  5 000120   000000 236007 xsym               LDQ     M$ME,DL
         5 000121   000000 620006                    EAX0    0,QL
         5 000122   000010 740000 2                  STX0    WRITE_UC+8
         5 000123   000127 710000 5                  TRA     s:1287

     2709     1285    1       ELSE
     2710     1286    1           WRITE_UC.V.DCB# = DCBNUM( M$UC);

   1286  5 000124   000000 236007 xsym               LDQ     M$UC,DL
         5 000125   000000 620006                    EAX0    0,QL
         5 000126   000010 740000 2                  STX0    WRITE_UC+8

     2711     1287    1       CALL M$WRITE( WRITE_UC) ALTRET( IGNORED);

   1287  5 000127   000000 630400 2                  EPPR0   WRITE_UC
         5 000130   440001 713400                    CLIMB   alt,write
         5 000131   401400 401760                    pmme    nvectors=4
         5 000132   000133 702000 5                  TSX2    IGNORED

     2712     1288    1   IGNORED:
     2713     1289    1       CALL CONCAT( TXT, '.', IC, ' ', SUBSTR( OOPS, 1, 12));

   1289  5 000133   056000 236003       IGNORED      LDQ     23552,DU
         5 000134   200007 756100                    STQ     TXT,,AUTO
         5 000135   040100 100400                    MLR     fill='040'O
         5 000136   000060 000006 2                  ADSC9   IC                       cn=0,n=6
         5 000137   200007 200006                    ADSC9   TXT,,AUTO                cn=1,n=6
         5 000140   000040 236007                    LDQ     32,DL
         5 000141   200010 552104                    STBQ    TXT+1,'04'O,AUTO
         5 000142   040100 100400                    MLR     fill='040'O
         5 000143   000021 200014 2                  ADSC9   OOPS                     cn=1,n=12
         5 000144   200011 000160                    ADSC9   TXT+2,,AUTO              cn=0,n=112
PL6.E3A0      #002=TCM$ABORT File=TCM$MAIL1.:TCA2TSI                             SUN 11/16/97 14:27 Page:527

     2714     1290    1       CALL TCM$WRITE_AUDIT_OFF( 20, TXT);

   1290  5 000145   200007 630500                    EPPR0   TXT,,AUTO
         5 000146   200047 450500                    STP0    TXT+32,,AUTO
         5 000147   000004 236000 6                  LDQ     4
         5 000150   200046 756100                    STQ     TXT+31,,AUTO
         5 000151   200046 630500                    EPPR0   TXT+31,,AUTO
         5 000152   000020 631400 xsym               EPPR1   B_VECTNIL+16
         5 000153   000000 701000 xent               TSX1    TCM$WRITE_AUDIT_OFF
         5 000154   000000 011000                    NOP     0

     2715     1291    1       IF NOT TCM_TCPFLAVOR THEN

   1291  5 000155   000057 234000 2                  SZN     TCM_TCPFLAVOR
         5 000156   000163 604000 5                  TMI     BYPASS

     2716     1292    1           CALL M$YC( TCM_YC_OFF) ALTRET( BYPASS);

   1292  5 000157   000000 630400 xsym               EPPR0   TCM_YC_OFF
         5 000160   400011 713400                    CLIMB   alt,+9
         5 000161   401000 401760                    pmme    nvectors=3
         5 000162   000163 702000 5                  TSX2    BYPASS

     2717     1293    1   BYPASS:
     2718     1294    1       CALL M$SPRIV( JIT_PRIV);

   1294  5 000163   000000 630400 xsym  BYPASS       EPPR0   JIT_PRIV
         5 000164   020012 713400                    CLIMB   8202
         5 000165   400000 401760                    pmme    nvectors=1

     2719     1295    1       B$JIT.PRIV.ACTIVE.EXMM = %YES#;  /* so we can SNAP */

   1295  5 000166   000000 470400 xsym               LDP0    B$JIT$
         5 000167   000002 236007                    LDQ     2,DL
         5 000170   000013 256100                    ORSQ    11,,PR0

PL6.E3A0      #002=TCM$ABORT File=TCM$MAIL1.:TCA2TSI                             SUN 11/16/97 14:27 Page:528
     2720     1296    1       CALL M$SCREECH( SCREECH2);  /* ..a SNAP, really */

   1296  5 000171   000000 630400 xsym               EPPR0   SCREECH2
         5 000172   000013 713400                    CLIMB   11
         5 000173   401000 401760                    pmme    nvectors=3

     2721     1297    1       CALL M$EXIT;

   1297  5 000174   000001 713400                    CLIMB   exit
         5 000175   000000 401760                    pmme    nvectors=0

     2722     1298
     2723     1299    1       END TCM$ABORT;

   1299  5 000176   000000 702200 xent               TSX2  ! X66_AARET

CLOSE_NODES
 Sect OctLoc
   1     000   000003 777640   000032 006000   000000 177640   000000 006014    ................
   1     004   000000 177640   000000 006014   000000 177640   000000 006014    ................
   1     030*  000000 177640   000000 006014   000000 000002   000000 000040    ...............
   1     034   000220 000000   000000 000000                                    ........

FPT_ERRMSG
 Sect OctLoc
   1     036   000003 777640   000064 006000   000000 177640   000000 006014    .....4..........
   1     042   000035 777640   000021 006000   000000 177640   000000 006014    ................
   1     046   000000 177640   000000 006014   000000 177640   000000 006014    ................
   1     056*  000000 177640   000000 006014   000003 777640   000014 006000    ................
   1     062   000000 177640   000000 006014   000000 000000   000000 000000    ................
   1     066   375000 070001   040000 000000                                    ..8. ...

REPLY421
 Sect OctLoc
   1     070   064062 061040   040040 040040   040040 040040   040103 154157    421          Clo
   1     074   163151 156147   040164 162141   156163 155151   163163 151157    sing transmissio
   1     100   156040 143150   141156 156145   154*** ******                    n channel...
PL6.E3A0      #002=TCM$ABORT File=TCM$MAIL1.:TCA2TSI                             SUN 11/16/97 14:27 Page:529

WRITE_UC
 Sect OctLoc
   2     000   000003 777640   000010 006000   000000 177640   000000 006014    ................
   2     004   000012 177640   000070 006000   000000 177640   000000 006014    .....8..........
   2     010   000000 400400   000000 000000   000000 000000   000000 000000    ................

VLR_ERRMSG
 Sect OctLoc
   2     014   00000* ***000   000000 000000   000000 000000   ****** ******    ................

FIRST_TIME
 Sect OctLoc
   2     020   000000 000000                                                    ....

OOPS
 Sect OctLoc
   2     021   ****** ******   ****** ******   ****** ******   ****** ******    ................

TCM_TCPFLAVOR
 Sect OctLoc
   2     057   4***** ******                                                    ....

IC
 Sect OctLoc
   2     060   060060 060060   060060 ******                                    000000..

(unnamed)
 Sect OctLoc
   6     000   000000 006003   000040 040040   000021 006000   000000 000024    .....   ........
   6     004   000003 006000                                                    ....

PL6.E3A0      #002=TCM$ABORT File=TCM$MAIL1.:TCA2TSI                             SUN 11/16/97 14:27 Page:530
--  Include file information  --

   CP_6_SUBS.:LIBRARY  is referenced.
   B$JIT.:LIBRARY  cannot be made into a system file and is referenced.
   CP_6.:LIBRARY  cannot be made into a system file and is referenced.
   B$JIT_C.:E05TOU  was found in the system file and is referenced.
   CP_6_C.:E05TOU  was found in the system file and is referenced.
      No diagnostics issued in procedure TCM$ABORT.
PL6.E3A0      #002=TCM$ABORT File=TCM$MAIL1.:TCA2TSI                             SUN 11/16/97 14:27 Page:531

 **** Variables and constants ****

  ****  Section 001 RoData TCM$ABORT

  ****  Scalars and arrays  ****
OctLoc.c.b A Datatyp(siz) R M Lvl/name                 OctLoc.c.b A Datatyp(siz) R M Lvl/name

     0-0-0/d STRC(1080)  r     1 CLOSE_NODES               36-0-0/d STRC(936)   r     1 FPT_ERRMSG
    70-0-0/c CHAR(41)    r     1 REPLY421

  ****  Section 002  Data  TCM$ABORT

  ****  Scalars and arrays  ****
OctLoc.c.b A Datatyp(siz) R M Lvl/name                 OctLoc.c.b A Datatyp(siz) R M Lvl/name

    20-0-0/w UBIN        r     1 FIRST_TIME                60-0-0/c CHAR(6)     r     1 IC
    21-0-0/c CHAR(120)   r     1 OOPS                      57-0-0/b BIT         r     1 TCM_TCPFLAVOR
    14-0-0/d STRC(144)   r     1 VLR_ERRMSG                 0-0-0/d STRC(432)   r     1 WRITE_UC

  ****  Auto variables  ****

  ****  Scalars and arrays  ****
OctLoc.c.b A Datatyp(siz) R M Lvl/name                 OctLoc.c.b A Datatyp(siz) R M Lvl/name

     5-0-0/w SBIN        r     1 I                          3-0-0/w UBIN        r     1 LASTNONBLANK
     4-0-0/w UBIN        r     1 SCRAP                      6-0-0/w SBIN        r     1 TEMP
     7-0-0/c CHAR(120)   r     1 TXT

  ****  SYMREF variables  ****

  ****  Scalars and arrays  ****
OctLoc.c.b A Datatyp(siz) R M Lvl/name                 OctLoc.c.b A Datatyp(siz) R M Lvl/name

     0-0-0/w PTR         r     1 B$JIT$                     0-0-0/w PTR         r     1 B$TCB$
     0-0-0/d STRC(144)   r     1 JIT_PRIV                   0-0-0/d STRC(216)   r     1 SCREECH2
     0-0-0/d STRC(504)   r     1 TCM_KEYIN
     0-0-0/c UBIN(9)     r     1 TCM_SKIP_BLANKS(0:127)
PL6.E3A0      #002=TCM$ABORT File=TCM$MAIL1.:TCA2TSI                             SUN 11/16/97 14:27 Page:532
     0-0-0/d STRC(288)   r     1 TCM_YC_OFF

  ****  BASED and DCB variables  ****

  ****  Scalars and arrays  ****
OctLoc.c.b A Datatyp(siz) R M Lvl/name                 OctLoc.c.b A Datatyp(siz) R M Lvl/name

     0-0-0/w STRC(2448)  r     1 B$EXCFR                    0-0-0/d STRC(8856)  r     1 B$JIT
     0-0-0/w STRC(144)   r     1 B$TCB                      0-0-0/w STRC(2448)  r     1 B$XCON
     0-0-0/d ASTR(3528)  r     1 F$DCB                      0-0-0N  NULL        r     1 F$NODES
     0-0-0N  NULL        r     1 M$ME                       0-0-0N  NULL        r     1 M$UC


   Procedure TCM$ABORT requires 127 words for executable code.
   Procedure TCM$ABORT requires 40 words of local(AUTO) storage.

    No errors detected in file TCM$MAIL1.:TCA2TSI    .
PL6.E3A0      #002=TCM$ABORT File=TCM$MAIL1.:TCA2TSI                             SUN 11/16/97 14:27 Page:533
          *** CROSS REFERENCE LISTING ***
**     DENOTES     IDENTIFIER DEFINITION
<<                 IDENTIFIER'S VALUE SET
>>                 IDENTIFIER'S VALUE USED
<>                 IDENTIFIER SET AND/OR USED
--                 IDENTIFIER REFERENCED
PL6.E3A0      #002=TCM$ABORT File=TCM$MAIL1.:TCA2TSI                             SUN 11/16/97 14:27 Page:534
          MINI XREF LISTING

B$EXCFR.ASL
        89**DCL        89--REDEF
B$EXCFR.ECC
        89**DCL      1264>>IF
B$EXCFR.ERR.ERR#
       103**DCL       103--REDEF
B$EXCFR.EVID
       102**DCL       102--REDEF     103--REDEF
B$EXCFR.IC
        90**DCL      1272>>ASSIGN
B$EXCFR.IR
        90**DCL        90--REDEF
B$EXCFR.PREVSZ
        89**DCL        89--REDEF
B$EXCFR.SUBC
       101**DCL       101--REDEF     102--REDEF     102--REDEF
B$JIT.CPFLAGS1.SLEAZE
       518**DCL       518--REDEF
B$JIT.ERR.MID
       425**DCL       425--REDEF
B$JIT.JRESPEAK
       586**DCL       587--REDEF
B$JIT.ORIGINATOR_PORT.FROM_CR
       695**DCL       695--REDEF     696--REDEF
B$JIT.PNR
       599**DCL       599--REDEF
B$JIT.PRIV.ACTIVE.EXMM
       429**DCL      1295<<ASSIGN
B$JIT.TSLINE
       693**DCL       694--REDEF
B$JIT$
      1244**DCL       419--IMP-PTR  1295>>ASSIGN
PL6.E3A0      #002=TCM$ABORT File=TCM$MAIL1.:TCA2TSI                             SUN 11/16/97 14:27 Page:535
B$TCB.STK$
       107**DCL      1264>>IF       1265>>IF       1272>>ASSIGN
B$TCB$
      1243**DCL       107--IMP-PTR  1264>>IF       1265>>IF       1272>>ASSIGN
B$XCON.ERR.ERR#
       116**DCL       116--REDEF
B$XCON.LIMIT.MEM
       114**DCL       114--REDEF
B$XCON.RNST.OPERR
       112**DCL      1265>>IF
BYPASS
      1294**LABEL    1262--GOTO     1292--CALLALT
CLOSE_NODES
       246**DCL      1267<>CALL
CLOSE_NODES.SN_
       246**DCL       246--REDEF
CLOSE_NODES.UTL_
       247**DCL       247--REDEF
CLOSE_NODES.V
       251**DCL       246--DCLINIT
CLOSE_NODES.V.EXPIRE#
       261**DCL       261--REDEF
CLOSE_NODES.V.TYPE#
       259**DCL       259--REDEF
CLOSE_NODES.V.XTNSIZE#
       256**DCL       256--REDEF     258--REDEF
DISCONNECT_EM
      1283**LABEL    1278--CALLALT  1281--CALLALT
F$DCB.ACTPOS
       152**DCL       152--REDEF
F$DCB.ARS#
       126**DCL       126--REDEF
F$DCB.ATTR
       145**DCL       146--REDEF
F$DCB.BORROW
       160**DCL       160--REDEF     160--REDEF     160--REDEF
PL6.E3A0      #002=TCM$ABORT File=TCM$MAIL1.:TCA2TSI                             SUN 11/16/97 14:27 Page:536
F$DCB.DCBNAME.L
       174**DCL       174--IMP-SIZ
F$DCB.EOMCHAR#
       130**DCL       130--REDEF
F$DCB.FCD#
       139**DCL      1266>>IF
F$DCB.FLDID
       155**DCL       155--REDEF
F$DCB.FORM$
       149**DCL       149--REDEF
F$DCB.FSECT
       165**DCL       165--REDEF
F$DCB.FSN#
       142**DCL       142--REDEF     142--REDEF     143--REDEF
F$DCB.HEADER$
       148**DCL       148--REDEF
F$DCB.IXTNSIZE#
       146**DCL       146--REDEF
F$DCB.LASTSTA$
       135**DCL       135--REDEF
F$DCB.LVL
       161**DCL       161--REDEF
F$DCB.NAME#.C
       136**DCL       136--REDEF
F$DCB.NOEOF
       158**DCL       158--REDEF
F$DCB.NRECS#
       147**DCL       147--REDEF
F$DCB.NRECX
       166**DCL       166--REDEF
F$DCB.OHDR
       158**DCL       158--REDEF
F$DCB.ORG#
       141**DCL       141--REDEF
F$DCB.PRECNO
       164**DCL       164--REDEF
PL6.E3A0      #002=TCM$ABORT File=TCM$MAIL1.:TCA2TSI                             SUN 11/16/97 14:27 Page:537
F$DCB.RCSZ
       170**DCL       170--REDEF
F$DCB.RES#
       137**DCL       137--REDEF
F$DCB.SETX
       149**DCL       149--REDEF
F$DCB.TAB$
       149**DCL       149--REDEF
F$DCB.TDA
       163**DCL       164--REDEF
F$DCB.WSN#
       137**DCL       137--REDEF
F$NODES
      1246**DCL      1266--IF
FIRST_TIME
      1248**DCL      1261>>IF       1263<<ASSIGN   1268<<ASSIGN
FPT_ERRMSG
       276**DCL      1278<>CALL
FPT_ERRMSG.V
       280**DCL       276--DCLINIT
I
      1257**DCL      1273<<ASSIGN   1275>>ASSIGN   1276<<ASSIGN   1276>>ASSIGN
IC
      1256**DCL      1275<<ASSIGN   1289>>CALLBLT
IGNORED
      1289**LABEL    1287--CALLALT
JIT_PRIV
       384**DCL      1294<>CALL
LASTNONBLANK
      1249**DCL      1279<<CALLBLT  1280>>ASSIGN
M$CLOSE
        16**DCL-ENT  1267--CALL
M$ERRMSG
        79**DCL-ENT  1278--CALL
M$EXIT
        28**DCL-ENT  1297--CALL
PL6.E3A0      #002=TCM$ABORT File=TCM$MAIL1.:TCA2TSI                             SUN 11/16/97 14:27 Page:538
M$KEYIN
        21**DCL-ENT  1281--CALL
M$ME
      1247**DCL      1284>>ASSIGN
M$SCREECH
        30**DCL-ENT  1296--CALL
M$SPRIV
        75**DCL-ENT  1294--CALL
M$UC
        40**DCL      1286>>ASSIGN
M$WRITE
        17**DCL-ENT  1287--CALL
M$YC
        30**DCL-ENT  1292--CALL
NOCLOSE
      1271**LABEL    1267--CALLALT
OOPS
      1250**DCL       277--DCLINIT  1279>>CALLBLT  1280--ASSIGN   1289>>CALLBLT
REPLY421
      1251**DCL       329--DCLINIT   330--DCLINIT
SCRAP
      1253**DCL      1279<<CALLBLT
SCREECH2
       370**DCL      1296<>CALL
TCM$WRITE_AUDIT_OFF
      1241**DCL-ENT  1290--CALL
TCM_KEYIN
       303**DCL      1281<>CALL
TCM_KEYIN.MESS_
       303**DCL      1280<<ASSIGN
TCM_SKIP_BLANKS
      1254**DCL      1279>>CALLBLT
TCM_TCPFLAVOR
      1255**DCL      1283>>IF       1291>>IF
TCM_YC_OFF
       355**DCL      1292<>CALL
PL6.E3A0      #002=TCM$ABORT File=TCM$MAIL1.:TCA2TSI                             SUN 11/16/97 14:27 Page:539
TEMP
      1258**DCL      1272<<ASSIGN   1274>>DOWHILE  1275>>ASSIGN   1276<<ASSIGN   1276>>ASSIGN
TXT
      1259**DCL      1289<<CALLBLT  1290<>CALL
VLR_ERRMSG
       399**DCL       280--DCLINIT
WRITE_UC
       328**DCL      1287<>CALL
WRITE_UC.STATION_
       330**DCL       330--REDEF
WRITE_UC.V
       331**DCL       328--DCLINIT
WRITE_UC.V.DCB#
       331**DCL      1284<<ASSIGN   1286<<ASSIGN
WRITE_UC.V.DVBYTE.VFC#
       337**DCL       337--REDEF
PL6.E3A0      #002=TCM$ABORT File=TCM$MAIL1.:TCA2TSI                             SUN 11/16/97 14:27 Page:540
              *** CROSS REFERENCE LISTING ***
    **     DENOTES     IDENTIFIER DEFINITION
    <<                 IDENTIFIER'S VALUE SET
    >>                 IDENTIFIER'S VALUE USED
    <>                 IDENTIFIER SET AND/OR USED
    --                 IDENTIFIER REFERENCED
PL6.E3A0      #002=TCM$ABORT File=TCM$MAIL1.:TCA2TSI                             SUN 11/16/97 14:27 Page:541
              MINI UREF LISTING

M$ACCT      33**DCL-ENT
M$ACTIVATE      36**DCL-ENT
M$ALIB      29**DCL-ENT
M$ASUSER      31**DCL-ENT
M$ATTACH      38**DCL-ENT
M$BADPP      56**DCL-ENT
M$CGCTL      37**DCL-ENT
M$CGINFO      37**DCL-ENT
M$CHECK      18**DCL-ENT
M$CHGUNIT      76**DCL-ENT
M$CLRSTK      74**DCL-ENT
M$CMDVAR      85**DCL-ENT
M$CONFIG      46**DCL-ENT
M$CORRES      21**DCL-ENT
M$CPEXIT      30**DCL-ENT
M$CVM      54**DCL-ENT
M$CVOL      19**DCL-ENT
M$DCLFLD      46**DCL-ENT
M$DEACTIVATE      36**DCL-ENT
M$DELREC      18**DCL-ENT
M$DEQ      83**DCL-ENT
M$DETACH      38**DCL-ENT
M$DEVICE      20**DCL-ENT
M$DISPLAY      83**DCL-ENT
M$DISPRES      23**DCL-ENT
M$DLIB      29**DCL-ENT
M$DRIBBLE      46**DCL-ENT
M$DRTN      74**DCL-ENT
M$DSUSER      31**DCL-ENT
M$ENQ      82**DCL-ENT
M$EOM      41**DCL-ENT
M$ERASE      47**DCL-ENT
PL6.E3A0      #002=TCM$ABORT File=TCM$MAIL1.:TCA2TSI                             SUN 11/16/97 14:27 Page:542
M$ERR      28**DCL-ENT
M$EVENT      71**DCL-ENT
M$EXHUME      80**DCL-ENT
M$EXTEND      20**DCL-ENT
M$FDP      52**DCL-ENT
M$FDS      51**DCL-ENT
M$FEBOOT      44**DCL-ENT
M$FECTL      45**DCL-ENT
M$FEDUMP      44**DCL-ENT
M$FID      79**DCL-ENT
M$FINDPROC      33**DCL-ENT
M$FSUSER      31**DCL-ENT
M$FVP      53**DCL-ENT
M$FWCG      37**DCL-ENT
M$GBPL      57**DCL-ENT
M$GDDL      53**DCL-ENT
M$GDP      52**DCL-ENT
M$GDS      51**DCL-ENT
M$GETDCB      22**DCL-ENT
M$GETMOUSE      62**DCL-ENT
M$GETPM      63**DCL-ENT
M$GJOB      81**DCL-ENT
M$GLINEATTR      41**DCL-ENT
M$GOODPP      56**DCL-ENT
M$GPLATEN      49**DCL-ENT
M$GPROMPT      48**DCL-ENT
M$GTRMATTR      42**DCL-ENT
M$GTRMCTL      40**DCL-ENT
M$GTRMTAB      43**DCL-ENT
M$GVP      52**DCL-ENT
M$HELP      79**DCL-ENT
M$INT      71**DCL-ENT
M$INTRTN      32**DCL-ENT
M$IOQ      67**DCL-ENT
M$JOBSTATS      81**DCL-ENT
M$LDEV      16**DCL-ENT
PL6.E3A0      #002=TCM$ABORT File=TCM$MAIL1.:TCA2TSI                             SUN 11/16/97 14:27 Page:543
M$LDTRC      29**DCL-ENT
M$LIMIT      22**DCL-ENT
M$LINES      21**DCL-ENT
M$LINK      28**DCL-ENT
M$MADMUCK      24**DCL-ENT
M$MAKUSER      55**DCL-ENT
M$MBS      23**DCL-ENT
M$MDFFLD      47**DCL-ENT
M$MERC      72**DCL-ENT
M$MERCS      73**DCL-ENT
M$MIRROR      67**DCL-ENT
M$MONINFO      84**DCL-ENT
M$MPL      57**DCL-ENT
M$NODEINFO      48**DCL-ENT
M$NXTUSR      82**DCL-ENT
M$OCMSG      80**DCL-ENT
M$OLAY      28**DCL-ENT
M$OPEN      16**DCL-ENT
M$PAS      57**DCL-ENT
M$PATHCON      80**DCL-ENT
M$PDS      51**DCL-ENT
M$PFIL      18**DCL-ENT
M$PLATEN      42**DCL-ENT
M$PRECORD      20**DCL-ENT
M$PROCNAME      33**DCL-ENT
M$PROFILE      44**DCL-ENT
M$PROMPT      40**DCL-ENT
M$RACST      24**DCL-ENT
M$RDSYSLOG      65**DCL-ENT
M$READ      17**DCL-ENT
M$RELDCB      22**DCL-ENT
M$RELRES      23**DCL-ENT
M$RELSTARF      25**DCL-ENT
M$REM      25**DCL-ENT
M$RENV      72**DCL-ENT
M$REQUIRE      24**DCL-ENT
PL6.E3A0      #002=TCM$ABORT File=TCM$MAIL1.:TCA2TSI                             SUN 11/16/97 14:27 Page:544
M$RETRY      73**DCL-ENT
M$RETRYS      73**DCL-ENT
M$REW      19**DCL-ENT
M$RLSFLD      47**DCL-ENT
M$RPRIV      75**DCL-ENT
M$RSPP      54**DCL-ENT
M$RSWITCH      76**DCL-ENT
M$RUE      82**DCL-ENT
M$SAD      55**DCL-ENT
M$SAVE      31**DCL-ENT
M$SCON      32**DCL-ENT
M$SENV      72**DCL-ENT
M$SETFMA      16**DCL-ENT
M$SETFP      45**DCL-ENT
M$SINPUT      43**DCL-ENT
M$SLCFLD      48**DCL-ENT
M$SMOUSE      62**DCL-ENT
M$SMPRT      54**DCL-ENT
M$SSC      55**DCL-ENT
M$SSWITCH      75**DCL-ENT
M$STATE      84**DCL-ENT
M$STD      56**DCL-ENT
M$STIMER      70**DCL-ENT
M$STLPP      53**DCL-ENT
M$STRAP      70**DCL-ENT
M$STRMATTR      42**DCL-ENT
M$STRMCTL      40**DCL-ENT
M$STRMTAB      43**DCL-ENT
M$SYMBIO      81**DCL-ENT
M$SYSCON      67**DCL-ENT
M$SYSID      85**DCL-ENT
M$TDCLOSE      66**DCL-ENT
M$TDIO      66**DCL-ENT
M$TDOPEN      65**DCL-ENT
M$TDREQCPU      66**DCL-ENT
M$TEMPWROC      60**DCL-ENT
PL6.E3A0      #002=TCM$ABORT File=TCM$MAIL1.:TCA2TSI                             SUN 11/16/97 14:27 Page:545
M$TIME      83**DCL-ENT
M$TRAP      70**DCL-ENT
M$TRMISC      45**DCL-ENT
M$TRMPRG      41**DCL-ENT
M$TRTN      74**DCL-ENT
M$TRUNC      17**DCL-ENT
M$TTIMER      70**DCL-ENT
M$UMPL      57**DCL-ENT
M$UNFID      79**DCL-ENT
M$UNLATCH      36**DCL-ENT
M$UNSHARE      33**DCL-ENT
M$USRFIELD      76**DCL-ENT
M$VIRTUAL      51**DCL-ENT
M$WAIT      74**DCL-ENT
M$WEOF      19**DCL-ENT
M$WRSYSLOG      65**DCL-ENT
M$XCON      71**DCL-ENT
M$XCONRTN      32**DCL-ENT
M$XEQTIME      84**DCL-ENT
M$XFLUSH      25**DCL-ENT
M$XMOUSE      62**DCL-ENT
M$XXX      28**DCL-ENT
TCM$ABORT       6**PROC
