PL6.E3A0      #001=TCM$NETSEND File=TCM$SEND1.:TCA2TSI                           SUN 11/16/97 14:18 Page:506
SUA4
     10090**DCL      9992--DCLINIT
SUB$ IN PROCEDURE INITIALIZE_CONFIGURATION
     13348**DCL     13383<<ASSIGN  13386>>ASSIGN  13386>>ASSIGN  13388>>ASSIGN  13388>>ASSIGN  13390>>ASSIGN
     13390>>ASSIGN  13392>>CALLBLT 13392>>CALLBLT 13396>>ASSIGN  13400>>DOCASE  13402>>CALLBLT 13402>>CALLBLT
     13406>>IF      13407>>IF      13407>>IF      13410>>CALLBLT 13410>>CALLBLT 13415>>ASSIGN  13420>>ASSIGN
     13420>>ASSIGN
SUBJECT
     13030**DCL     13029--DCLINIT 14663>>ASSIGN
SUBJECT.L
     13031**DCL     14664<<ASSIGN
SUBJECT.T
     13032**DCL     14665<<ASSIGN
SUBJECT$
     13029**DCL     14142>>IF      14143>>CALLBLT 14143>>CALLBLT 14642<>CALL    14689>>IF      14691>>CALLBLT
     14691>>CALLBLT 14694>>ASSIGN  14695>>ASSIGN  14695>>ASSIGN  14696>>ASSIGN  14696>>ASSIGN  14697>>IF
     14697>>IF      14697>>IF      14698>>ASSIGN  14698>>ASSIGN  14702>>ASSIGN  14703>>ASSIGN  14703>>ASSIGN
     14704>>ASSIGN  15157>>IF      15158>>CALLBLT 15158>>CALLBLT 15214>>IF      15215>>CALLBLT 15215>>CALLBLT
TARGET_STRG IN PROCEDURE SEND_ONE_MAILGRAM
     13911**DCL     14105<<CALLBLT 14114<<CALLBLT 14121<<CALLBLT 14125>>CALLBLT
TBUF IN PROCEDURE SEND_ONE_MAILGRAM
     13904**DCL     13949<<CALLBLT 13952>>IF      13958>>IF
TCM$DRAIN_SMTP
     12676**DCL-ENT 14190--CALL
TCM$READ_SMTP
     12673**DCL-ENT 13834--CALL    14458--CALL
TCM$START_SMTP
     12672**DCL-ENT 13828--CALL
TCM$STOP_SMTP
     12677**DCL-ENT 13259--CALL
TCM$WRITE_AUDIT_LOG
     12678**DCL-ENT 13280--CALL    13283--CALL    13286--CALL    13826--CALL    13855--CALL    14210--CALL
TCM$WRITE_AUDIT_OFF
     12680**DCL-ENT 13338--CALL
TCM$WRITE_AUDIT_ON
     12679**DCL-ENT 13180--CALL
PL6.E3A0      #001=TCM$NETSEND File=TCM$SEND1.:TCA2TSI                           SUN 11/16/97 14:18 Page:507
TCM$WRITE_SMTP
     12675**DCL-ENT 14457--CALL    14498--CALL    14507--CALL    14528--CALL    14530--CALL
TCM_ACCOUNT
      9358**DCL      8017--DCLINIT  8237--DCLINIT  8948--DCLINIT
TCM_ACCOUNT.ACCT#
      9358**DCL     13386<<ASSIGN  15182>>ASSIGN
TCM_CONFIG_CMD
     12693**DCL     11317--DCLINIT
TCM_DRIBBLE
     12695**DCL     13194>>IF
TCM_DRIBBLE_ME
     12696**DCL     13197>>IF
TCM_LOGON
     12712**DCL     13392<<CALLBLT
TCM_MESSACCT
      9371**DCL      8127--DCLINIT  9664--DCLINIT
TCM_MESSACCT.ACCT#
      9371**DCL     13193<<ASSIGN  13388<<ASSIGN
TCM_PHONE
     12713**DCL     13420<<ASSIGN
TCM_PROGNAME
     12708**DCL     13173<<ASSIGN  13177<<ASSIGN  13252>>CALLBLT 15236--ASSIGN  15237>>CALLBLT
TCM_SEND_ACCT
      9430**DCL      9387--DCLINIT
TCM_SEND_NAME
      9417**DCL      9387--DCLINIT
TCM_SMTP_BAILOUT
     12682**DCL     13213<<REMEMBR 14468>>UNWIND  14480>>UNWIND
TCM_SMTP_PROGRESS
     12683**DCL     13217<<ASSIGN  13276>>ASSIGN  13315>>IF      13827<<ASSIGN  13831<<ASSIGN  13856<<ASSIGN
     13884<<ASSIGN
TCM_SOCKINIT
      4093**DCL     13215<>CALL
TCM_STUCKEE
     12709**DCL     13390<<ASSIGN  15137>>IF      15138>>CALLBLT 15200>>IF      15201>>CALLBLT
TCM_TESTMODE
PL6.E3A0      #001=TCM$NETSEND File=TCM$SEND1.:TCA2TSI                           SUN 11/16/97 14:18 Page:508
     12697**DCL     13832>>IF      14452>>IF      14497>>IF      14506>>IF      14526>>IF
TCM_TZTEXT
     12710**DCL     13398<<CALLBLT 14039>>CALLBLT
TCM_UTOFFSET
     12711**DCL     13404<<ASSIGN  13408<<ASSIGN  13408>>ASSIGN  13413<<ASSIGN  13415<<ASSIGN
TCM_XLATE_TO_UC
     13121**DCL     13429>>CALLBLT 13443>>CALLBLT 13527>>CALLBLT 13573>>CALLBLT 13788>>CALLBLT 13793>>CALLBLT
     13949>>CALLBLT 14786>>CALLBLT 15010>>CALLBLT
TCP_FLAVOR
     12716**DCL     13174<<ASSIGN  13178<<ASSIGN  14033>>IF      14444>>IF      14472>>IF      14527>>IF
TELLUSER IN PROCEDURE INITIALIZE_CONFIGURATION
     13434**LABEL   13520--GOTO    13552--GOTO    13569--GOTO
TEMPBUF
     12837**DCL     12838--DCLINIT
TEMPBUF_
     12838**DCL     14498<>CALL    14530<>CALL
TERMINATING
     12717**DCL     13214<<ASSIGN  13216>>DOUNTIL 13222<<ASSIGN  13274>>IF
TEXT$ IN PROCEDURE EMIT_ADDRESSES
     14240**DCL     14231--PROC    14261>>IF      14262>>CALLBLT 14262>>CALLBLT
TEXTC.L
     12545**DCL     12546--IMP-SIZ 14151>>CALLBLT 14155>>CALLBLT 14262>>CALLBLT 14991>>ASSIGN  14992>>ASSIGN
     15146>>CALLBLT 15149>>CALLBLT 15162>>CALLBLT
TEXTC.T
     12546**DCL     14151>>CALLBLT 14155>>CALLBLT 14262>>CALLBLT 14992>>ASSIGN  15146>>CALLBLT 15149>>CALLBLT
     15162>>CALLBLT
THIS_NODE
     12729**DCL     13799<<DOINDEX 13800>>CALLBLT 13801>>ASSIGN  13805>>ASSIGN  13806>>ASSIGN  14046>>CALLBLT
     14046>>CALLBLT 14056>>CALLBLT 14056>>CALLBLT 14067>>CALLBLT 14067>>CALLBLT 14083>>CALLBLT 14083>>CALLBLT
     14158>>IF
THIS_SITE
     12727**DCL     13299<<DOINDEX 13300>>IF      13300>>IF      13300>>IF      13303>>CALL    13303>>CALL
     13303>>CALL    13308>>IF      13309>>CALL    13309>>CALL    13313>>ASSIGN  13670>>ASSIGN  13670>>ASSIGN
     13681<<DOINDEX 13682>>IF      13682>>IF      13682>>IF      13682>>IF      13687>>IF      13687>>IF
     13690>>ASSIGN  13692>>IF      13693>>ASSIGN  13696>>ASSIGN  13805<<ASSIGN  13861>>IF      13873>>IF
TIMEBUF
PL6.E3A0      #001=TCM$NETSEND File=TCM$SEND1.:TCA2TSI                           SUN 11/16/97 14:18 Page:509
     13112**DCL      9853--DCLINIT  9854--DCLINIT  9873--DCLINIT  9874--DCLINIT 13252>>CALLBLT 13661>>CALLBLT
     13662>>CALLBLT 14039>>CALLBLT
TIMEBUF2
     13113**DCL      9933--DCLINIT  9934--DCLINIT 13328>>ASSIGN
TIME_NOW
     12720**DCL      9895--DCLINIT  9935--DCLINIT 13277>>ASSIGN  13298<>CALL    13309<>CALL    13318<>CALL
     13326<>CALL    13326<>CALL    13664>>ASSIGN  13687>>IF
TIME_THEN
     12721**DCL     13298<>CALL    13313<<ASSIGN  13313>>ASSIGN  13318<>CALL
TO$
     12999**DCL     14100>>IF      14132>>IF      14132>>IF      14133>>CALLBLT 14133>>CALLBLT 14133>>CALLBLT
     14135>>CALLBLT 14135>>CALLBLT 14372>>ASSIGN  14640<>CALL    14706>>CALLBLT 14706>>CALLBLT 14711>>ASSIGN
     14732>>CALLBLT 14732>>CALLBLT 14737>>ASSIGN  14741>>IF      14743>>CALLBLT 14743>>CALLBLT 14745>>CALLBLT
     14745>>CALLBLT 14746>>CALLBLT 14746>>CALLBLT 14750>>CALLBLT 14750>>CALLBLT 14752>>CALLBLT 14752>>CALLBLT
     14754>>ASSIGN  14754>>ASSIGN  14755>>ASSIGN  14755>>ASSIGN  14756>>ASSIGN  14757>>ASSIGN  14757>>ASSIGN
     14758>>DOWHILE 14759>>IF      14759>>IF      14759>>IF      14760>>ASSIGN  14760>>ASSIGN  14767>>CALLBLT
     14767>>CALLBLT 14769>>ASSIGN  14773>>CALLBLT 14773>>CALLBLT 14775>>CALLBLT 14775>>CALLBLT 14777>>ASSIGN
     14778>>CALLBLT 14778>>CALLBLT 14779>>ASSIGN  14785>>ASSIGN  14786>>CALLBLT 14786>>CALLBLT 14876>>IF
     14890>>ASSIGN  14891>>ASSIGN  14891>>ASSIGN  15153>>IF      15154>>CALLBLT 15154>>CALLBLT 15206>>IF
     15207>>CALLBLT 15207>>CALLBLT
TOERR
     12831**DCL     14923>>ASSIGN  14924--ASSIGN
TONAME
     13000**DCL     12999--DCLINIT 14652<<ASSIGN  14657<<ASSIGN
TONAME.L
     13001**DCL     14660<<ASSIGN
TONAME.T
     13002**DCL     14661<<ASSIGN
TOSITE
     13090**DCL     13089--DCLINIT
TOSITE.L
     13091**DCL     14675<<ASSIGN
TOSITE.T
     13092**DCL     14676<<ASSIGN
TOSITE$
     13089**DCL     13793>>CALLBLT 13793>>CALLBLT 13794>>CALLBLT 13794>>CALLBLT 14895>>ASSIGN  14896>>ASSIGN
PL6.E3A0      #001=TCM$NETSEND File=TCM$SEND1.:TCA2TSI                           SUN 11/16/97 14:18 Page:510
     14896>>ASSIGN  14950>>ASSIGN  14951>>ASSIGN  14951>>ASSIGN
TOTAL_READY
     12735**DCL     13233<<ASSIGN  13671<<ASSIGN  13671>>ASSIGN
TRACELOOP IN PROCEDURE EMIT_TRACE_RECORDS
     14347**LABEL   14351--EXIT    14355--EXIT    14374--EXIT
TRIED_DIRECT_SEND IN PROCEDURE SEND_ONE_MAILGRAM
     13905**DCL     13919<<ASSIGN  13938<<ASSIGN  14002>>IF      14020>>IF
TRIES_LEFT IN PROCEDURE SMTP_SESSION
     13819**DCL     13845<<DOINDEX 13851>>IF
TSTRING IN PROCEDURE MAKE_SMTP_ADDRESS
     15006**DCL     15010<<CALLBLT 15011>>IF      15026<<CALLBLT 15031<<CALLBLT 15034>>ASSIGN  15041<<CALLBLT
     15043>>ASSIGN
TSTRING IN PROCEDURE PARSE_MAIL_HEADER
     14636**DCL     14755<<ASSIGN  14757>>ASSIGN  14869<<CALLBLT 14872>>ASSIGN
TSTRING IN PROCEDURE SEND_ERROR_REPORT
     14389**DCL     14402<<CALLBLT 14403>>ASSIGN
TVAL
     12705**DCL     13253<<CALLBLT 13254>>ASSIGN  13661<<CALLBLT 13663<<ASSIGN  13663>>ASSIGN  13682>>IF
     13682>>IF      13682>>IF      13682>>IF      15262<<CALLBLT
TVAL IN PROCEDURE MAKE_SMTP_ADDRESS
     15007**DCL     15024<<CALLBLT 15026>>CALLBLT 15026>>CALLBLT 15026>>CALLBLT 15045<<CALLBLT
TVAL IN PROCEDURE PARSE_MAIL_HEADER
     14637**DCL     14746<<CALLBLT 14752<<CALLBLT 14753>>ASSIGN  14754>>ASSIGN  14853<<ASSIGN  14854>>ASSIGN
     14855>>ASSIGN  14885<<CALLBLT 14887>>IF      14888>>ASSIGN
TVAL IN PROCEDURE SEND_ERROR_REPORT
     14390**DCL     14399<<CALLBLT 14400>>IF      14402>>CALLBLT 14402>>CALLBLT 14412<<DOINDEX 14413>>ASSIGN
TVAL IN PROCEDURE SEND_ONE_MAILGRAM
     13906**DCL     14137<<CALLBLT
TYPE IN PROCEDURE EMIT_ADDRESSES
     14241**DCL     14231--PROC    14245>>IF
UNDERBLANK IN PROCEDURE MAKE_SMTP_ADDRESS
     15056**LABEL   15020--GOTO
USERS.L
     12781**DCL     13961<<ASSIGN  13961>>ASSIGN  13984<<ASSIGN  13995>>CALLBLT 14007>>ASSIGN  14245>>IF
     14256>>ASSIGN  14952<<ASSIGN
USERS.LIST
PL6.E3A0      #001=TCM$NETSEND File=TCM$SEND1.:TCA2TSI                           SUN 11/16/97 14:18 Page:511
     12780**DCL     13943>>IF      13943>>IF      14245>>IF      14953<<ASSIGN
USERS.T
     12782**DCL     13947>>CALLBLT 13949>>CALLBLT 13960<<ASSIGN  13962>>CALLBLT 13964<<ASSIGN  13972>>CALLBLT
     13973>>CALLBLT 13979>>CALLBLT 13980<<ASSIGN  13981>>CALLBLT 13983>>IF      13985<<ASSIGN  13988<<ASSIGN
     13991<<ASSIGN  13995>>CALLBLT 14008>>ASSIGN  14250>>ASSIGN  14253>>CALLBLT 14934<<CALLBLT 14939<<CALLBLT
     14943--ASSIGN  14944>>DOWHILE 14948>>ASSIGN  14949>>CALLBLT 14951>>ASSIGN
USER_COUNT
     12734**DCL     13765<<ASSIGN  13942>>DOINDEX 14244>>DOINDEX 14907<<ASSIGN  14922>>IF      14934>>CALLBLT
     14939>>CALLBLT 14943>>ASSIGN  14944>>DOWHILE 14948>>ASSIGN  14949>>CALLBLT 14951>>ASSIGN  14952>>ASSIGN
     14953>>ASSIGN  14954<<ASSIGN  14954>>ASSIGN
UTS_DIFF
     12722**DCL     13318<>CALL    13319>>ASSIGN
VLEN
     12702**DCL     13800<<CALLBLT 13801>>ASSIGN  14440<>CALL    14449>>ASSIGN  14457<>CALL    14489<>CALL
     14491>>IF      14504>>ASSIGN  14507<>CALL    14517>>ASSIGN  15067<>CALL    15068>>ASSIGN
VLEN IN PROCEDURE GET_IOBUF_BOUND
     15260**DCL     15257--PROC    15262<<CALLBLT 15265<<ASSIGN
VLEN IN PROCEDURE WRITEDO
     15245**DCL     15247<>CALL    15248>>IF      15251>>ASSIGN
VLR_ERRMSG
     10330**DCL     10267--DCLINIT
VLR_ERRMSG.RECCNT
     10334**DCL     14412>>DOINDEX
VMERRMSG
     10304**DCL     10264--DCLINIT
VM_ADD_HEAD
     12310**DCL     14787--ASSIGN  14813<>CALL
VM_ADD_HEAD.HEAD$
     12320**DCL     14812>>ASSIGN  14919>>ASSIGN
VM_ADD_HEAD.NUM_ENTRIES
     12313**DCL     14807>>IF
VM_BODYKEY
     12424**DCL     14278--ASSIGN  14291--ASSIGN  14330--ASSIGN  14343--ASSIGN
VM_BODYKEY.COUNT
     12425**DCL     14282<<ASSIGN  14334<<ASSIGN
VM_BODYKEY.MESSAGE_NUMBER
PL6.E3A0      #001=TCM$NETSEND File=TCM$SEND1.:TCA2TSI                           SUN 11/16/97 14:18 Page:512
     12428**DCL     14284<<ASSIGN  14297>>IF      14336<<ASSIGN  14353>>IF
VM_BODYKEY.REC_NUMBER
     12430**DCL     14285<<ASSIGN  14297>>IF      14302>>CALLBLT 14337<<ASSIGN
VM_BODYKEY.TYPE
     12426**DCL     14283<<ASSIGN  14297>>IF      14335<<ASSIGN  14353>>IF
VM_BODYREC
     12392**DCL     14289--ASSIGN  14341--ASSIGN
VM_BODYREC.VALUE.DATA
     12410**DCL     14295<<ASSIGN  14306>>IF      14307>>CALLBLT 14309>>ASSIGN  14348<<ASSIGN  14356>>DOSELCT
     14359>>CALLBLT 14360>>CALLBLT 14362>>CALLBLT 14370>>ASSIGN  14378>>ASSIGN
VM_FILERES
     12458**DCL      8600--DCLINIT  8619--DCLINIT
VM_HEADER
     12164**DCL     14554--ASSIGN  14588<>CALL    14589<>CALL    14590<>CALL    14591<>CALL    14592<>CALL
     14593<>CALL    14594<>CALL    14595<>CALL    14596<>CALL    14597<>CALL    14598<>CALL    14599<>CALL
     14600<>CALL    15083--ASSIGN  15096--ASSIGN
VM_HEADER.BAD_ADDRESS$
     12248**DCL     14588<>CALL    14645<>CALL
VM_HEADER.BLIND$
     12250**DCL     14096<>CALL    14589<>CALL
VM_HEADER.COPY$
     12252**DCL     14093<>CALL    14590<>CALL
VM_HEADER.CREATION_DATE
     12167**DCL     14587>>ASSIGN
VM_HEADER.ERROR
     12237**DCL     14410--ASSIGN
VM_HEADER.FILE_FOLDER$
     12254**DCL     14591<>CALL
VM_HEADER.FROM$
     12256**DCL     14592<>CALL    14639<>CALL    14649>>IF      14656>>IF
VM_HEADER.NUM_RECORDS
     12175**DCL     14275>>CALLBLT 14416>>IF      15112>>ASSIGN
VM_HEADER.NUM_TRACE_RECORDS
     12274**DCL     13931>>IF      14035>>IF      14421>>IF
VM_HEADER.REFERENCE$
     12258**DCL     14593<>CALL    14643<>CALL    15148>>IF      15149>>CALLBLT 15149>>CALLBLT
PL6.E3A0      #001=TCM$NETSEND File=TCM$SEND1.:TCA2TSI                           SUN 11/16/97 14:18 Page:513
VM_HEADER.REFERS_TO_ID$
     12272**DCL     14154>>IF      14155>>CALLBLT 14155>>CALLBLT 14599<>CALL    14647<<ASSIGN
VM_HEADER.REPLY_TO$
     12260**DCL     14594<>CALL    14641<>CALL    14651>>IF
VM_HEADER.RETURN_ADDRESS$
     12262**DCL     14595<>CALL
VM_HEADER.SIGNED$
     12264**DCL     14596<>CALL    14644<>CALL
VM_HEADER.STATUS.ACK
     12183**DCL     14794>>IF
VM_HEADER.STATUS.ANSWER
     12181**DCL     14794>>IF
VM_HEADER.STATUS.DEL
     12199**DCL     14569>>IF      15092<<ASSIGN
VM_HEADER.STATUS.DELIVERY
     12213**DCL     14794>>IF
VM_HEADER.STATUS.DR
     12211**DCL     14061>>IF      14199>>IF      15143>>IF      15165>>IF
VM_HEADER.STATUS.ERR
     12178**DCL     14035>>IF      14184>>IF      14646>>IF      14794>>IF      15129>>IF      15193>>IF
VM_HEADER.STATUS.EXAM
     12197**DCL     15094<<ASSIGN
VM_HEADER.STATUS.FCOPY
     12201**DCL     14569>>IF
VM_HEADER.STATUS.MARK
     12203**DCL     14569>>IF
VM_HEADER.STATUS.OLD
     12191**DCL     15093<<ASSIGN
VM_HEADER.STATUS.RR
     12187**DCL     14050>>IF      14199>>IF      15095<<ASSIGN  15143>>IF      15169>>IF
VM_HEADER.SUBJECT$
     12266**DCL     14597<>CALL    14642<>CALL
VM_HEADER.TO$
     12268**DCL     14091<>CALL    14598<>CALL    14640<>CALL
VM_HEADER.UNIQUE_ID$
     12270**DCL     14150>>IF      14151>>CALLBLT 14151>>CALLBLT 14600<>CALL    14647>>ASSIGN  14648<<ASSIGN
PL6.E3A0      #001=TCM$NETSEND File=TCM$SEND1.:TCA2TSI                           SUN 11/16/97 14:18 Page:514
     15146>>CALLBLT 15146>>CALLBLT 15161>>IF      15162>>CALLBLT 15162>>CALLBLT
VM_HEADRES
     12472**DCL      8637--DCLINIT  8656--DCLINIT
VM_HEADRES.RES#
     12474**DCL     14571<<ASSIGN
VM_INFOKEY
     12293**DCL     14215--ASSIGN  14541--ASSIGN  14548--ASSIGN  14556--ASSIGN  14909--ASSIGN  15085--ASSIGN
     15088--ASSIGN  15098--ASSIGN
VM_INFOKEY.COUNT
     12294**DCL     14212<<ASSIGN  14548<<ASSIGN  14566>>IF      14916<<ASSIGN  15088<<ASSIGN
VM_INFOKEY.MESSAGE_NUMBER
     12297**DCL     14213<<ASSIGN  14550<<ASSIGN  14571>>ASSIGN  14586>>ASSIGN  14915<<ASSIGN  15090<<ASSIGN
VM_INFOKEY.TYPE
     12295**DCL     14214<<ASSIGN  14549<<ASSIGN  14566>>IF      14917<<ASSIGN  15089<<ASSIGN
VM_LISTKEY
     12376**DCL     14789--ASSIGN
VM_LISTKEY.COUNT
     12377**DCL     14785<<ASSIGN
VM_LISTKEY.TEXT
     12380**DCL     14786<<CALLBLT
VM_LISTKEY.TYPE
     12378**DCL     14785--ASSIGN
VM_PROFILE
     12062**DCL     15105--ASSIGN  15113--ASSIGN
VM_PROFILE.NUM_DEL_MESSAGES
     12103**DCL     15111<<ASSIGN  15111>>ASSIGN
VM_PROFILE.RECS_DELETED
     12124**DCL     15112<<ASSIGN  15112>>ASSIGN
VM_PROKEY
     12149**DCL     15107--ASSIGN  15115--ASSIGN
VM_PRORES
     12444**DCL      8563--DCLINIT  8582--DCLINIT
VM_SITE
     12486**DCL     14579--ASSIGN
VM_SITE.ORIGIN
     12494**DCL     15011>>IF
PL6.E3A0      #001=TCM$NETSEND File=TCM$SEND1.:TCA2TSI                           SUN 11/16/97 14:18 Page:515
VM_SITEKEY
     12510**DCL     10402--DCLINIT 10403--DCLINIT
VM_UADDRESS.FOLDER
     12354**DCL     12355--REDEF
VM_UADDRESS.NEXT$
     12340**DCL     14964>>ASSIGN
VM_UADDRESS.SITENAME
     12361**DCL     14814>>IF      14934>>CALLBLT 14939>>CALLBLT
VM_UADDRESS.TYPE
     12351**DCL     14814>>IF      14921>>IF
VM_UADDRESS.USER_NAME.COUNT
     12363**DCL     14821>>ASSIGN  14927>>DOWHILE 14927>>DOWHILE 14929<<ASSIGN  14929>>ASSIGN  14931>>CALLBLT
     14934>>CALLBLT 14939>>CALLBLT
VM_UADDRESS.USER_NAME.TEXT
     12364**DCL     14814>>IF      14822>>ASSIGN  14927>>DOWHILE 14931>>CALLBLT 14934>>CALLBLT 14939>>CALLBLT
WAITING_FOR_SMTP_GREETING
     10542**DCL     13830<>CALL
WAIT_A_SECOND
      9950**DCL     14034<>CALL    14194<>CALL    14445<>CALL    14473<>CALL    14501<>CALL
WAIT_A_SECOND.V
      9951**DCL      9950--DCLINIT
WAIT_A_WHILE
      9964**DCL     13330<>CALL    14518<>CALL
WAIT_A_WHILE.V
      9965**DCL      9964--DCLINIT
WAIT_A_WHILE.V.UNITS#
      9965**DCL     13316<<ASSIGN  13319<<ASSIGN  13326>>CALL    14517<<ASSIGN
WRAP_IT_UP IN PROCEDURE SEND_ONE_MAILGRAM
     14210**LABEL   14014--GOTO
WRITEDO
     15243**PROC    13189--CALL    13435--CALL
WRITE_DO
      7741**DCL     15252<>CALL
WRITE_DO.BUF_
      7741**DCL     15249<<ASSIGN  15251<<ASSIGN
WRITE_DO.STATION_
PL6.E3A0      #001=TCM$NETSEND File=TCM$SEND1.:TCA2TSI                           SUN 11/16/97 14:18 Page:516
      7743**DCL      7743--REDEF
WRITE_DO.V
      7744**DCL      7741--DCLINIT
WRITE_DO.V.DVBYTE.VFC#
      7750**DCL      7750--REDEF
WRITE_FOLDER
      8411**DCL     15100<>CALL    15117<>CALL
WRITE_FOLDER.BUF_
      8411**DCL     15096<<ASSIGN  15113<<ASSIGN
WRITE_FOLDER.BUF_.BOUND
      8411**DCL     15097<<ASSIGN  15114<<ASSIGN
WRITE_FOLDER.KEY_
      8411**DCL     15098<<ASSIGN  15115<<ASSIGN
WRITE_FOLDER.STATION_
      8413**DCL      8413--REDEF
WRITE_FOLDER.V
      8414**DCL      8411--DCLINIT
WRITE_FOLDER.V.DVBYTE.VFC#
      8420**DCL      8420--REDEF
WRITE_FOLDER.V.ONEWKEY#
      8416**DCL     15099<<ASSIGN  15116<<ASSIGN
WRITE_MAILMSG
      8789**DCL     15069<>CALL
WRITE_MAILMSG.BUF_.BOUND
      8789**DCL     15068<<ASSIGN
WRITE_MAILMSG.STATION_
      8791**DCL      8791--REDEF
WRITE_MAILMSG.V
      8792**DCL      8789--DCLINIT
WRITE_MAILMSG.V.DVBYTE.VFC#
      8798**DCL      8798--REDEF
WRITE_MAILMSG_BLANK
      8821**DCL     15173<>CALL    15218<>CALL
WRITE_MAILMSG_BLANK.STATION_
      8823**DCL      8823--REDEF
WRITE_MAILMSG_BLANK.V
PL6.E3A0      #001=TCM$NETSEND File=TCM$SEND1.:TCA2TSI                           SUN 11/16/97 14:18 Page:517
      8824**DCL      8821--DCLINIT
WRITE_MAILMSG_BLANK.V.DVBYTE.VFC#
      8830**DCL      8830--REDEF
WRITE_MAIL_MESSAGE
     15065**PROC    15136--CALL    15139--CALL    15142--CALL    15145--CALL    15147--CALL    15150--CALL
     15155--CALL    15159--CALL    15163--CALL    15167--CALL    15171--CALL    15177--CALL    15199--CALL
     15202--CALL    15205--CALL    15208--CALL    15212--CALL    15216--CALL    15222--CALL    15224--CALL
WRITE_ME
      9516**DCL     13255<>CALL    13839<>CALL    14450<>CALL    14464<>CALL    14505<>CALL
WRITE_ME.BUF_.BOUND
      9516**DCL     13254<<ASSIGN  13838<<ASSIGN  14449<<ASSIGN  14463<<ASSIGN  14504<<ASSIGN
WRITE_ME.STATION_
      9518**DCL      9518--REDEF
WRITE_ME.V
      9519**DCL      9516--DCLINIT
WRITE_ME.V.DVBYTE.VFC#
      9525**DCL      9525--REDEF
WRITE_ME_BLANK
      9578**DCL     14496<>CALL
WRITE_ME_BLANK.STATION_
      9580**DCL      9580--REDEF
WRITE_ME_BLANK.V
      9581**DCL      9578--DCLINIT
WRITE_ME_BLANK.V.DVBYTE.VFC#
      9587**DCL      9587--REDEF
WRITE_ME_NULL
      9547**DCL     14525<>CALL
WRITE_ME_NULL.STATION_
      9549**DCL      9549--REDEF
WRITE_ME_NULL.V
      9550**DCL      9547--DCLINIT
WRITE_ME_NULL.V.DVBYTE.VFC#
      9556**DCL      9556--REDEF
WRITE_QUOTES
      9198**DCL     13618<>CALL
WRITE_QUOTES.BUF_
PL6.E3A0      #001=TCM$NETSEND File=TCM$SEND1.:TCA2TSI                           SUN 11/16/97 14:18 Page:518
      9198**DCL     13616<<ASSIGN
WRITE_QUOTES.STATION_
      9200**DCL      9200--REDEF
WRITE_QUOTES.V
      9201**DCL      9198--DCLINIT
WRITE_QUOTES.V.DVBYTE.VFC#
      9207**DCL      9207--REDEF
X$WILDCMP
      7673**DCL-ENT 13803--CALL
XSL$SOCKINIT
      7671**DCL-ENT 13215--CALL
XTX$ADAPT
     10906**DCL-ENT 11222--DCLINIT
XUD$UTS_ADJUST
      7406**DCL-ENT 13298--CALL    13303--CALL    13309--CALL    13326--CALL
XUD$UTS_DIFF_SEC
      7394**DCL-ENT 13318--CALL
XUG$CLOSE_DCBS
      7446**DCL-ENT 13323--CALL    13337--CALL
XUG$ECHOIF
      7439**DCL-ENT 13370--CALL
XUG$ERRMSG
      7444**DCL-ENT 13371--CALL
XUG$GETCMD
      7437**DCL-ENT 13360--CALL
XUG$INIT
      7441**DCL-ENT 13355--CALL
XUG_GETCMD
     11316**DCL     13323<>CALL    13337<>CALL    13355<>CALL    13360<>CALL    13370<>CALL    13371<>CALL
XUG_GETCMD.DCB_PARAM#
     11496**DCL     13321<<ASSIGN  13335<<ASSIGN
XUG_GETCMD.DISP#
     11507**DCL     13322<<ASSIGN  13336<<ASSIGN
XUG_GETCMD.ERR#
     11327**DCL     13369>>ASSIGN
XUG_GETCMD.ERR#.CODE#
PL6.E3A0      #001=TCM$NETSEND File=TCM$SEND1.:TCA2TSI                           SUN 11/16/97 14:18 Page:519
     11330**DCL     13365>>IF
XUG_GETCMD.ERR#.MON#
     11329**DCL     13365>>IF      13372>>IF
XUG_GETCMD.ERR_CODE
     11464**DCL     13369<<ASSIGN
XUG_GETCMD.OUT$
     11321**DCL     11327--REDEF   13376>>ASSIGN
XUG_GETCMD.PCB$
     11341**DCL     11742--IMP-PTR 13397>>ASSIGN  13398>>CALLBLT
XUG_INIT
     10911**DCL     13355<>CALL
XUW_WILDCARD
     11985**DCL     13803<>CALL
XUW_WILDCARD.INPUT_
     11991**DCL     13796<<ASSIGN
XUW_WILDCARD.PATTERN_
     11986**DCL     13801<<ASSIGN
ZAP_FOLDER
      8490**DCL     15078<>CALL
ZAP_FOLDER.SN_
      8490**DCL      8490--REDEF
ZAP_FOLDER.UTL_
      8491**DCL      8491--REDEF
ZAP_FOLDER.V
      8495**DCL      8490--DCLINIT
ZAP_FOLDER.V.EXPIRE#
      8505**DCL      8505--REDEF
ZAP_FOLDER.V.TYPE#
      8503**DCL      8503--REDEF
ZAP_FOLDER.V.XTNSIZE#
      8500**DCL      8500--REDEF    8502--REDEF
PL6.E3A0      #001=TCM$NETSEND File=TCM$SEND1.:TCA2TSI                           SUN 11/16/97 14:18 Page:520
              *** CROSS REFERENCE LISTING ***
    **     DENOTES     IDENTIFIER DEFINITION
    <<                 IDENTIFIER'S VALUE SET
    >>                 IDENTIFIER'S VALUE USED
    <>                 IDENTIFIER SET AND/OR USED
    --                 IDENTIFIER REFERENCED
PL6.E3A0      #001=TCM$NETSEND File=TCM$SEND1.:TCA2TSI                           SUN 11/16/97 14:18 Page:521
              MINI UREF LISTING

B$DS3$    7666**DCL
B$TCB    7655**DCL
B$TCB$    7668**DCL
BLANK_INDEX IN PROCEDURE PARSE_MAIL_HEADER  14627**DCL
BYPASS_MAIL_FROM IN PROCEDURE SEND_ONE_MAILGRAM  13940**LABEL
COPYERR   12827**DCL
CPS IN PROCEDURE SEND_SMTP_DATA  14487**DCL
EOJ   13335**LABEL
FILL$   12706**DCL
HDRADDR   12846**DCL
HDRBC   12849**DCL
HDRC   12848**DCL
HDRDATE   12841**DCL
HDRFROM   12844**DCL
HDRNUMBER   12842**DCL
HDRRE   12847**DCL
HDRSUBJ   12845**DCL
LINE   12803**DCL
LINELEN IN PROCEDURE INITIALIZE_QUOTATIONS  13589**DCL
M$ACCT    1452**DCL-ENT
M$ACTIVATE    1455**DCL-ENT
M$ASUSER    1450**DCL-ENT
M$ATTACH    1457**DCL-ENT
M$BADPP    1475**DCL-ENT
M$CGCTL    1456**DCL-ENT
M$CGINFO    1456**DCL-ENT
M$CHECK    1437**DCL-ENT
M$CHGUNIT    1495**DCL-ENT
M$CLRSTK    1493**DCL-ENT
M$CMDVAR    1504**DCL-ENT
M$CONFIG    1465**DCL-ENT
M$CORRES    1440**DCL-ENT
PL6.E3A0      #001=TCM$NETSEND File=TCM$SEND1.:TCA2TSI                           SUN 11/16/97 14:18 Page:522
M$CPEXIT    1449**DCL-ENT
M$CVM    1473**DCL-ENT
M$CVOL    1438**DCL-ENT
M$DCLFLD    1465**DCL-ENT
M$DEACTIVATE    1455**DCL-ENT
M$DETACH    1457**DCL-ENT
M$DEVICE    1439**DCL-ENT
M$DISPLAY    1502**DCL-ENT
M$DLIB    1448**DCL-ENT
M$DO    7678**DCL
M$DRIBBLE    1465**DCL-ENT
M$DRTN    1493**DCL-ENT
M$DSUSER    1450**DCL-ENT
M$EOM    1460**DCL-ENT
M$ERASE    1466**DCL-ENT
M$EVENT    1490**DCL-ENT
M$EXHUME    1499**DCL-ENT
M$EXTEND    1439**DCL-ENT
M$FDP    1471**DCL-ENT
M$FEBOOT    1463**DCL-ENT
M$FECTL    1464**DCL-ENT
M$FEDUMP    1463**DCL-ENT
M$FID    1498**DCL-ENT
M$FINDPROC    1452**DCL-ENT
M$FSUSER    1450**DCL-ENT
M$FVP    1472**DCL-ENT
M$FWCG    1456**DCL-ENT
M$GBPL    1476**DCL-ENT
M$GDDL    1472**DCL-ENT
M$GDP    1471**DCL-ENT
M$GETDCB    1441**DCL-ENT
M$GETMOUSE    1481**DCL-ENT
M$GETPM    1482**DCL-ENT
M$GJOB    1500**DCL-ENT
M$GLINEATTR    1460**DCL-ENT
M$GOODPP    1475**DCL-ENT
PL6.E3A0      #001=TCM$NETSEND File=TCM$SEND1.:TCA2TSI                           SUN 11/16/97 14:18 Page:523
M$GPLATEN    1468**DCL-ENT
M$GPROMPT    1467**DCL-ENT
M$GTRMATTR    1461**DCL-ENT
M$GTRMCTL    1459**DCL-ENT
M$GTRMTAB    1462**DCL-ENT
M$GVP    1471**DCL-ENT
M$HELP    1498**DCL-ENT
M$INT    1490**DCL-ENT
M$INTRTN    1451**DCL-ENT
M$IOQ    1486**DCL-ENT
M$JOBSTATS    1500**DCL-ENT
M$KEYIN    1440**DCL-ENT
M$LDEV    1435**DCL-ENT
M$LDTRC    1448**DCL-ENT
M$LIMIT    1441**DCL-ENT
M$LINES    1440**DCL-ENT
M$MADMUCK    1443**DCL-ENT
M$MAKUSER    1474**DCL-ENT
M$MBS    1442**DCL-ENT
M$MDFFLD    1466**DCL-ENT
M$ME    7675**DCL
M$MERC    1491**DCL-ENT
M$MERCS    1492**DCL-ENT
M$MIRROR    1486**DCL-ENT
M$MONINFO    1503**DCL-ENT
M$MPL    1476**DCL-ENT
M$NODEINFO    1467**DCL-ENT
M$NXTUSR    1501**DCL-ENT
M$OCMSG    1499**DCL-ENT
M$OLAY    1447**DCL-ENT
M$PAS    1476**DCL-ENT
M$PATHCON    1499**DCL-ENT
M$PDS    1470**DCL-ENT
M$PFIL    1437**DCL-ENT
M$PLATEN    1461**DCL-ENT
M$PROCNAME    1452**DCL-ENT
PL6.E3A0      #001=TCM$NETSEND File=TCM$SEND1.:TCA2TSI                           SUN 11/16/97 14:18 Page:524
M$PROFILE    1463**DCL-ENT
M$PROMPT    1459**DCL-ENT
M$QUOTES   12662**DCL
M$QUOTES$   12669**DCL
M$RACST    1443**DCL-ENT
M$RDSYSLOG    1484**DCL-ENT
M$RELDCB    1441**DCL-ENT
M$RELSTARF    1444**DCL-ENT
M$REM    1444**DCL-ENT
M$RENV    1491**DCL-ENT
M$REQUIRE    1443**DCL-ENT
M$RETRY    1492**DCL-ENT
M$RETRYS    1492**DCL-ENT
M$REW    1438**DCL-ENT
M$RLSFLD    1466**DCL-ENT
M$RPRIV    1494**DCL-ENT
M$RSPP    1473**DCL-ENT
M$RSWITCH    1495**DCL-ENT
M$RUE    1501**DCL-ENT
M$SAD    1474**DCL-ENT
M$SAVE    1450**DCL-ENT
M$SCON    1451**DCL-ENT
M$SENV    1491**DCL-ENT
M$SETFMA    1435**DCL-ENT
M$SETFP    1464**DCL-ENT
M$SINPUT    1462**DCL-ENT
M$SLCFLD    1467**DCL-ENT
M$SMOUSE    1481**DCL-ENT
M$SMPRT    1473**DCL-ENT
M$SSC    1474**DCL-ENT
M$SSWITCH    1494**DCL-ENT
M$STATE    1503**DCL-ENT
M$STD    1475**DCL-ENT
M$STIMER    1489**DCL-ENT
M$STLPP    1472**DCL-ENT
M$STRAP    1489**DCL-ENT
PL6.E3A0      #001=TCM$NETSEND File=TCM$SEND1.:TCA2TSI                           SUN 11/16/97 14:18 Page:525
M$STRMATTR    1461**DCL-ENT
M$STRMCTL    1459**DCL-ENT
M$STRMTAB    1462**DCL-ENT
M$SYMBIO    1500**DCL-ENT
M$SYSCON    1486**DCL-ENT
M$SYSID    1504**DCL-ENT
M$TDCLOSE    1485**DCL-ENT
M$TDIO    1485**DCL-ENT
M$TDOPEN    1484**DCL-ENT
M$TDREQCPU    1485**DCL-ENT
M$TEMPWROC    1479**DCL-ENT
M$TRAP    1489**DCL-ENT
M$TRMISC    1464**DCL-ENT
M$TRMPRG    1460**DCL-ENT
M$TRTN    1493**DCL-ENT
M$TRUNC    1436**DCL-ENT
M$TTIMER    1489**DCL-ENT
M$UMPL    1476**DCL-ENT
M$UNFID    1498**DCL-ENT
M$UNLATCH    1455**DCL-ENT
M$UNSHARE    1452**DCL-ENT
M$USRFIELD    1495**DCL-ENT
M$VIRTUAL    1470**DCL-ENT
M$WEOF    1438**DCL-ENT
M$WRSYSLOG    1484**DCL-ENT
M$XCON    1490**DCL-ENT
M$XCONRTN    1451**DCL-ENT
M$XEQTIME    1503**DCL-ENT
M$XFLUSH    1444**DCL-ENT
M$XMOUSE    1481**DCL-ENT
M$XXX    1447**DCL-ENT
M$YC    1449**DCL-ENT
MSGBUF_   12819**DCL
RR IN PROCEDURE SEND_ONE_MAILGRAM  13903**DCL
SAVED_UNAME   12731**DCL
SCREECH4    9992**DCL
PL6.E3A0      #001=TCM$NETSEND File=TCM$SEND1.:TCA2TSI                           SUN 11/16/97 14:18 Page:526
SITENAME   12724**DCL
SITE_INDEX IN PROCEDURE PARSE_MAIL_HEADER  14633**DCL
SITE_START IN PROCEDURE SELECT_DESTINATION_SITE  13781**DCL
TCM$NETSEND       8**PROC
TCM$READ_SMTP_NULLOK   12674**DCL-ENT
TEMP$ IN PROCEDURE PARSE_MAIL_HEADER  14635**DCL
TEXT_CHAR   12548**DCL
TRY_THIS_ONE IN PROCEDURE GET_MAIL_HEADER  13716**LABEL
VFC   12700**DCL
XUD$UTS_ADJ_25TH    7412**DCL-ENT
XUD$UTS_DIFF    7388**DCL-ENT
XUD$UTS_DIFF_25TH    7400**DCL-ENT
XUG$ALLMSG    7454**DCL-ENT
XUG$BLANK_PASSWORD    7457**DCL-ENT
XUG$BREAK    7447**DCL-ENT
XUG$CLRENABLE    7450**DCL-ENT
XUG$CORRES    7442**DCL-ENT
XUG$DISABLE    7448**DCL-ENT
XUG$ECHO    7440**DCL-ENT
XUG$ECHOLAST    7443**DCL-ENT
XUG$ENABLE    7449**DCL-ENT
XUG$ERRCNVRT    7459**DCL-ENT
XUG$ERRPTR    7438**DCL-ENT
XUG$ERRTOLCP6    7460**DCL-ENT
XUG$FINDDCB    7455**DCL-ENT
XUG$GETDCB    7456**DCL-ENT
XUG$HELP    7452**DCL-ENT
XUG$MOREMSG    7453**DCL-ENT
XUG$OPENOUT    7458**DCL-ENT
XUG$SETERRMSG    7445**DCL-ENT
XUG$SIMULATE_BREAK    7451**DCL-ENT
XUR$ERRMSG    7672**DCL-ENT

