PL6.E3A0      #002=TCM$ABORT File=TCM$SEND1.:TCA2TSI                             SUN 11/16/97 14:28 Page:527
     2636        1        /*T***********************************************************/
     2637        2        /*T*                                                         */
     2638        3        /*T* Copyright (c) Bull HN Information Systems Inc., 1997    */
     2639        4        /*T*                                                         */
     2640        5        /*T***********************************************************/
     2641        6        TCM$ABORT: PROC ASYNC;
     2642        7        %INCLUDE CP_6;
     2643       88            %B$TCB;
     2644       91            %FPT_ERRMSG( SOURCE=TRAP, BUF=BUF, STCLASS=CONSTANT);
     2645      118            %FPT_PRIV( FPTN=JIT_PRIV, STCLASS=SYMREF);
     2646      133            %FPT_SCREECH( FPTN=SCREECH4, STCLASS=SYMREF);
     2647      147        %INCLUDE B$JIT;
     2648      437        %INCLUDE CP_6_SUBS;
     2649      977
     2650      978    1       DCL TCM$WRITE_AUDIT_OFF ENTRY(2);
     2651      979
     2652      980    1       DCL B$TCB$ PTR SYMREF READONLY;
     2653      981    1       DCL B$JIT$ PTR SYMREF READONLY;
     2654      982
     2655      983    1       DCL IC CHAR(6) STATIC INIT( '000000');
     2656      984    1       DCL I SBIN;
     2657      985    1       DCL TEMP SBIN;
     2658      986    1       DCL TXT CHAR(120);
     2659      987    1       DCL BUF CHAR(120) STATIC;
     2660      988    1       DCL B$SBIN SBIN BASED;
     2661      989
     2662      990    1       TEMP = PINCRW( B$TCB$->B$TCB.STK$, 4)->B$SBIN;
     2663      991    1       TEMP = TEMP / 262144;
     2664      992    1       I = 5;
     2665      993    2       DO WHILE( TEMP > 0);
     2666      994    2           SUBSTR( IC, I, 1) = BINASC( ASCBIN( '0') + MOD( TEMP, 8));
     2667      995    2           TEMP = TEMP / 8;  I = I - 1;
     2668      996    2           END;
     2669      997    1       CALL M$ERRMSG( FPT_ERRMSG);
     2670      998    1       CALL CONCAT( TXT, '.', IC, ' ', SUBSTR( BUF, 1, 12));
     2671      999    1       CALL TCM$WRITE_AUDIT_OFF( 20, TXT);
     2672     1000    1       CALL M$SPRIV( JIT_PRIV);
PL6.E3A0      #002=TCM$ABORT File=TCM$SEND1.:TCA2TSI                             SUN 11/16/97 14:28 Page:528
     2673     1001    1       B$JIT.PRIV.ACTIVE.EXMM = %YES#;  /* so we can SNAP */
     2674     1002    1       CALL M$SCREECH( SCREECH4);  /* ..a SNAP, really */
     2675     1003    1       CALL M$EXIT;
     2676     1004
     2677     1005    1       END TCM$ABORT;

PL6.E3A0      #002=TCM$ABORT File=TCM$SEND1.:TCA2TSI                             SUN 11/16/97 14:28 Page:529
--  Include file information  --

   CP_6_SUBS.:LIBRARY  is referenced.
   B$JIT.:LIBRARY  cannot be made into a system file and is referenced.
   CP_6.:LIBRARY  cannot be made into a system file and is referenced.
   B$JIT_C.:E05TOU  was found in the system file and is referenced.
   CP_6_C.:E05TOU  was found in the system file and is referenced.
      No diagnostics issued in procedure TCM$ABORT.

   Procedure TCM$ABORT requires 64 words for executable code.
   Procedure TCM$ABORT requires 38 words of local(AUTO) storage.

    No errors detected in file TCM$SEND1.:TCA2TSI    .

PL6.E3A0      #002=TCM$ABORT File=TCM$SEND1.:TCA2TSI                             SUN 11/16/97 14:28 Page:530

 Object Unit name= TCM$ABORT                                  File name= TCM$SEND1.:TCA2TOU
 UTS= NOV 16 '97 14:28:46.04 SUN                              Compiler= PL-6/E31         Sev=      00
 SharedLib= :SHARED_SYSTEM                                    Alt SharedLib=


    ****  Control sections  ****

 Sect   Type Bound  Init  Size OctSiz  Section name(segment info)
    0   DCB   even  none     0      0  M$UC
    1  RoData even  UTS     26     32  TCM$ABORT
    2   Data  even  none    32     40  TCM$ABORT
    3   Proc  even  none    64    100  TCM$ABORT
    4  RoData even  none     3      3  TCM$ABORT

    ****  Entry defs  ****

                              Check   Calling
                             calling  sequence
  Sect OctLoc Primary Altret sequence   type   Parms  Name
     3      0   yes            yes     Async       0  TCM$ABORT

  ****  Entry refs  ****

         Check        Calling
        calling       sequence
Altret sequence SRef   type   Args  Name
         yes           Std       2 TCM$WRITE_AUDIT_OFF
                       nStd      0 X66_AAUTO
                       Std       0 B_CONSPOOL_D
                       nStd      0 X66_AARET
PL6.E3A0      #002=TCM$ABORT File=TCM$SEND1.:TCA2TSI                             SUN 11/16/97 14:28 Page:531

  ****  Data refs  ****

  Flags:  r = read only, s = secondary
Flgs Name                             Flgs Name                             Flgs Name
     M$UC                                  JIT_PRIV                              SCREECH4
r    B$TCB$                           r    B$JIT$                                B_VECTNIL

  ****  Segment refs  ****

  Flags:  r = read only, s = secondary
Flgs Name                             Flgs Name                             Flgs Name
     ISSID                                 NULLSID
PL6.E3A0      #002=TCM$ABORT File=TCM$SEND1.:TCA2TSI                             SUN 11/16/97 14:28 Page:532


     2636        1        /*T***********************************************************/
     2637        2        /*T*                                                         */
     2638        3        /*T* Copyright (c) Bull HN Information Systems Inc., 1997    */
     2639        4        /*T*                                                         */
     2640        5        /*T***********************************************************/
     2641        6        TCM$ABORT: PROC ASYNC;

      6  3 000000   000000 700200 xent  TCM$ABORT    TSX0  ! X66_AAUTO
         3 000001   000046 000000                    ZERO    38,0

     2642        7        %INCLUDE CP_6;
     2643       88            %B$TCB;
     2644       91            %FPT_ERRMSG( SOURCE=TRAP, BUF=BUF, STCLASS=CONSTANT);
     2645      118            %FPT_PRIV( FPTN=JIT_PRIV, STCLASS=SYMREF);
     2646      133            %FPT_SCREECH( FPTN=SCREECH4, STCLASS=SYMREF);
     2647      147        %INCLUDE B$JIT;
     2648      437        %INCLUDE CP_6_SUBS;
     2649      977
     2650      978    1       DCL TCM$WRITE_AUDIT_OFF ENTRY(2);
     2651      979
     2652      980    1       DCL B$TCB$ PTR SYMREF READONLY;
     2653      981    1       DCL B$JIT$ PTR SYMREF READONLY;
     2654      982
     2655      983    1       DCL IC CHAR(6) STATIC INIT( '000000');
     2656      984    1       DCL I SBIN;
     2657      985    1       DCL TEMP SBIN;
     2658      986    1       DCL TXT CHAR(120);
     2659      987    1       DCL BUF CHAR(120) STATIC;
     2660      988    1       DCL B$SBIN SBIN BASED;
     2661      989
     2662      990    1       TEMP = PINCRW( B$TCB$->B$TCB.STK$, 4)->B$SBIN;

    990  3 000002   000000 470400 xsym               LDP0    B$TCB$
         3 000003   000001 471500                    LDP1    1,,PR0
         3 000004   100004 235100                    LDA     4,,PR1
         3 000005   200004 755100                    STA     TEMP,,AUTO
PL6.E3A0      #002=TCM$ABORT File=TCM$SEND1.:TCA2TSI                             SUN 11/16/97 14:28 Page:533

     2663      991    1       TEMP = TEMP / 262144;

    991  3 000006   200004 236100                    LDQ     TEMP,,AUTO
         3 000007   000001 506003                    DIV     1,DU
         3 000010   200004 756100                    STQ     TEMP,,AUTO

     2664      992    1       I = 5;

    992  3 000011   000005 235007                    LDA     5,DL
         3 000012   200003 755100                    STA     I,,AUTO

     2665      993    2       DO WHILE( TEMP > 0);

    993  3 000013   000000 116003                    CMPQ    0,DU
         3 000014   000037 604400 3                  TMOZ    s:997

     2666      994    2           SUBSTR( IC, I, 1) = BINASC( ASCBIN( '0') + MOD( TEMP, 8));

    994  3 000015   200004 236100                    LDQ     TEMP,,AUTO
         3 000016   000010 506007                    DIV     8,DL
         3 000017   000044 733000                    LRS     36
         3 000020   000060 036007                    ADLQ    48,DL
         3 000021   000033 736000                    QLS     27
         3 000022   000000 276000 4                  ORQ     0
         3 000023   200044 756100                    STQ     TXT+31,,AUTO
         3 000024   200003 235100                    LDA     I,,AUTO
         3 000025   040005 100500                    MLR     fill='040'O
         3 000026   200044 000004                    ADSC9   TXT+31,,AUTO             cn=0,n=4
         3 000027   000000 000001 2                  ADSC9   IC,A                     cn=0,n=1

     2667      995    2           TEMP = TEMP / 8;  I = I - 1;

    995  3 000030   200004 236100                    LDQ     TEMP,,AUTO
         3 000031   000010 506007                    DIV     8,DL
         3 000032   200004 756100                    STQ     TEMP,,AUTO

PL6.E3A0      #002=TCM$ABORT File=TCM$SEND1.:TCA2TSI                             SUN 11/16/97 14:28 Page:534
    995  3 000033   000001 336007                    LCQ     1,DL
         3 000034   200003 056100                    ASQ     I,,AUTO

     2668      996    2           END;

    996  3 000035   200004 235100                    LDA     TEMP,,AUTO
         3 000036   000015 605400 3                  TPNZ    s:994

     2669      997    1       CALL M$ERRMSG( FPT_ERRMSG);

    997  3 000037   000000 630400 1                  EPPR0   FPT_ERRMSG
         3 000040   020000 713400                    CLIMB   8192
         3 000041   405000 401760                    pmme    nvectors=11

     2670      998    1       CALL CONCAT( TXT, '.', IC, ' ', SUBSTR( BUF, 1, 12));

    998  3 000042   056000 236003                    LDQ     23552,DU
         3 000043   200005 756100                    STQ     TXT,,AUTO
         3 000044   040100 100400                    MLR     fill='040'O
         3 000045   000000 000006 2                  ADSC9   IC                       cn=0,n=6
         3 000046   200005 200006                    ADSC9   TXT,,AUTO                cn=1,n=6
         3 000047   000040 236007                    LDQ     32,DL
         3 000050   200006 552104                    STBQ    TXT+1,'04'O,AUTO
         3 000051   040100 100400                    MLR     fill='040'O
         3 000052   000002 200014 2                  ADSC9   BUF                      cn=1,n=12
         3 000053   200007 000160                    ADSC9   TXT+2,,AUTO              cn=0,n=112

     2671      999    1       CALL TCM$WRITE_AUDIT_OFF( 20, TXT);

    999  3 000054   200005 630500                    EPPR0   TXT,,AUTO
         3 000055   200045 450500                    STP0    TXT+32,,AUTO
         3 000056   000002 236000 4                  LDQ     2
         3 000057   200044 756100                    STQ     TXT+31,,AUTO
         3 000060   200044 630500                    EPPR0   TXT+31,,AUTO
         3 000061   000020 631400 xsym               EPPR1   B_VECTNIL+16
         3 000062   000000 701000 xent               TSX1    TCM$WRITE_AUDIT_OFF
         3 000063   000000 011000                    NOP     0
PL6.E3A0      #002=TCM$ABORT File=TCM$SEND1.:TCA2TSI                             SUN 11/16/97 14:28 Page:535

     2672     1000    1       CALL M$SPRIV( JIT_PRIV);

   1000  3 000064   000000 630400 xsym               EPPR0   JIT_PRIV
         3 000065   020012 713400                    CLIMB   8202
         3 000066   400000 401760                    pmme    nvectors=1

     2673     1001    1       B$JIT.PRIV.ACTIVE.EXMM = %YES#;  /* so we can SNAP */

   1001  3 000067   000000 470400 xsym               LDP0    B$JIT$
         3 000070   000002 236007                    LDQ     2,DL
         3 000071   000013 256100                    ORSQ    11,,PR0

     2674     1002    1       CALL M$SCREECH( SCREECH4);  /* ..a SNAP, really */

   1002  3 000072   000000 630400 xsym               EPPR0   SCREECH4
         3 000073   000013 713400                    CLIMB   11
         3 000074   401000 401760                    pmme    nvectors=3

     2675     1003    1       CALL M$EXIT;

   1003  3 000075   000001 713400                    CLIMB   exit
         3 000076   000000 401760                    pmme    nvectors=0

     2676     1004
     2677     1005    1       END TCM$ABORT;

   1005  3 000077   000000 702200 xent               TSX2  ! X66_AARET

FPT_ERRMSG
 Sect OctLoc
   1     000   000003 777640   000026 006000   000000 177640   000000 006014    ................
   1     004   000035 777640   000002 006000   000000 177640   000000 006014    ................
   1     010   000000 177640   000000 006014   000000 177640   000000 006014    ................
   1     024*  000000 177640   000000 006014   000000 000000   000000 000000    ................
   1     030   375000 070001   040000 000000                                    ..8. ...

PL6.E3A0      #002=TCM$ABORT File=TCM$SEND1.:TCA2TSI                             SUN 11/16/97 14:28 Page:536
IC
 Sect OctLoc
   2     000   060060 060060   060060 ******                                    000000..

BUF
 Sect OctLoc
   2     002   ****** ******   ****** ******   ****** ******   ****** ******    ................

(unnamed)
 Sect OctLoc
   4     000   000040 040040   000000 000024   000001 006000                    .   ........

PL6.E3A0      #002=TCM$ABORT File=TCM$SEND1.:TCA2TSI                             SUN 11/16/97 14:28 Page:537
--  Include file information  --

   CP_6_SUBS.:LIBRARY  is referenced.
   B$JIT.:LIBRARY  cannot be made into a system file and is referenced.
   CP_6.:LIBRARY  cannot be made into a system file and is referenced.
   B$JIT_C.:E05TOU  was found in the system file and is referenced.
   CP_6_C.:E05TOU  was found in the system file and is referenced.
      No diagnostics issued in procedure TCM$ABORT.
PL6.E3A0      #002=TCM$ABORT File=TCM$SEND1.:TCA2TSI                             SUN 11/16/97 14:28 Page:538

 **** Variables and constants ****

  ****  Section 001 RoData TCM$ABORT

  ****  Scalars and arrays  ****
OctLoc.c.b A Datatyp(siz) R M Lvl/name                 OctLoc.c.b A Datatyp(siz) R M Lvl/name

     0-0-0/d STRC(936)   r     1 FPT_ERRMSG

  ****  Section 002  Data  TCM$ABORT

  ****  Scalars and arrays  ****
OctLoc.c.b A Datatyp(siz) R M Lvl/name                 OctLoc.c.b A Datatyp(siz) R M Lvl/name

     2-0-0/c CHAR(120)   r     1 BUF                        0-0-0/c CHAR(6)     r     1 IC

  ****  Auto variables  ****

  ****  Scalars and arrays  ****
OctLoc.c.b A Datatyp(siz) R M Lvl/name                 OctLoc.c.b A Datatyp(siz) R M Lvl/name

     3-0-0/w SBIN        r     1 I                          4-0-0/w SBIN        r     1 TEMP
     5-0-0/c CHAR(120)   r     1 TXT

  ****  SYMREF variables  ****

  ****  Scalars and arrays  ****
OctLoc.c.b A Datatyp(siz) R M Lvl/name                 OctLoc.c.b A Datatyp(siz) R M Lvl/name

     0-0-0/w PTR         r     1 B$JIT$                     0-0-0/w PTR         r     1 B$TCB$
     0-0-0/d STRC(144)   r     1 JIT_PRIV                   0-0-0/d STRC(216)   r     1 SCREECH4

  ****  BASED and DCB variables  ****

  ****  Scalars and arrays  ****
OctLoc.c.b A Datatyp(siz) R M Lvl/name                 OctLoc.c.b A Datatyp(siz) R M Lvl/name

PL6.E3A0      #002=TCM$ABORT File=TCM$SEND1.:TCA2TSI                             SUN 11/16/97 14:28 Page:539
     0-0-0/d STRC(8856)  r     1 B$JIT                      0-0-0/w SBIN        r     1 B$SBIN
     0-0-0/w STRC(144)   r     1 B$TCB


   Procedure TCM$ABORT requires 64 words for executable code.
   Procedure TCM$ABORT requires 38 words of local(AUTO) storage.

    No errors detected in file TCM$SEND1.:TCA2TSI    .
PL6.E3A0      #002=TCM$ABORT File=TCM$SEND1.:TCA2TSI                             SUN 11/16/97 14:28 Page:540
          *** CROSS REFERENCE LISTING ***
**     DENOTES     IDENTIFIER DEFINITION
<<                 IDENTIFIER'S VALUE SET
>>                 IDENTIFIER'S VALUE USED
<>                 IDENTIFIER SET AND/OR USED
--                 IDENTIFIER REFERENCED
PL6.E3A0      #002=TCM$ABORT File=TCM$SEND1.:TCA2TSI                             SUN 11/16/97 14:28 Page:541
          MINI XREF LISTING

B$JIT.CPFLAGS1.SLEAZE
       255**DCL       255--REDEF
B$JIT.ERR.MID
       162**DCL       162--REDEF
B$JIT.JRESPEAK
       323**DCL       324--REDEF
B$JIT.ORIGINATOR_PORT.FROM_CR
       432**DCL       432--REDEF     433--REDEF
B$JIT.PNR
       336**DCL       336--REDEF
B$JIT.PRIV.ACTIVE.EXMM
       166**DCL      1001<<ASSIGN
B$JIT.TSLINE
       430**DCL       431--REDEF
B$JIT$
       981**DCL       156--IMP-PTR  1001>>ASSIGN
B$SBIN
       988**DCL       990>>ASSIGN
B$TCB.STK$
        89**DCL       990>>ASSIGN
B$TCB$
       980**DCL       990>>ASSIGN
BUF
       987**DCL       103--DCLINIT   998>>CALLBLT
FPT_ERRMSG
       102**DCL       997<>CALL
FPT_ERRMSG.V
       106**DCL       102--DCLINIT
I
       984**DCL       992<<ASSIGN    994>>ASSIGN    995<<ASSIGN    995>>ASSIGN
IC
       983**DCL       994<<ASSIGN    998>>CALLBLT
PL6.E3A0      #002=TCM$ABORT File=TCM$SEND1.:TCA2TSI                             SUN 11/16/97 14:28 Page:542
JIT_PRIV
       129**DCL      1000<>CALL
M$ERRMSG
        79**DCL-ENT   997--CALL
M$EXIT
        28**DCL-ENT  1003--CALL
M$SCREECH
        30**DCL-ENT  1002--CALL
M$SPRIV
        75**DCL-ENT  1000--CALL
SCREECH4
       144**DCL      1002<>CALL
TCM$WRITE_AUDIT_OFF
       978**DCL-ENT   999--CALL
TEMP
       985**DCL       990<<ASSIGN    991<<ASSIGN    991>>ASSIGN    993>>DOWHILE   994>>ASSIGN    995<<ASSIGN
       995>>ASSIGN
TXT
       986**DCL       998<<CALLBLT   999<>CALL
PL6.E3A0      #002=TCM$ABORT File=TCM$SEND1.:TCA2TSI                             SUN 11/16/97 14:28 Page:543
              *** CROSS REFERENCE LISTING ***
    **     DENOTES     IDENTIFIER DEFINITION
    <<                 IDENTIFIER'S VALUE SET
    >>                 IDENTIFIER'S VALUE USED
    <>                 IDENTIFIER SET AND/OR USED
    --                 IDENTIFIER REFERENCED
PL6.E3A0      #002=TCM$ABORT File=TCM$SEND1.:TCA2TSI                             SUN 11/16/97 14:28 Page:544
              MINI UREF LISTING

M$ACCT      33**DCL-ENT
M$ACTIVATE      36**DCL-ENT
M$ALIB      29**DCL-ENT
M$ASUSER      31**DCL-ENT
M$ATTACH      38**DCL-ENT
M$BADPP      56**DCL-ENT
M$CGCTL      37**DCL-ENT
M$CGINFO      37**DCL-ENT
M$CHECK      18**DCL-ENT
M$CHGUNIT      76**DCL-ENT
M$CLOSE      16**DCL-ENT
M$CLRSTK      74**DCL-ENT
M$CMDVAR      85**DCL-ENT
M$CONFIG      46**DCL-ENT
M$CORRES      21**DCL-ENT
M$CPEXIT      30**DCL-ENT
M$CVM      54**DCL-ENT
M$CVOL      19**DCL-ENT
M$DCLFLD      46**DCL-ENT
M$DEACTIVATE      36**DCL-ENT
M$DELREC      18**DCL-ENT
M$DEQ      83**DCL-ENT
M$DETACH      38**DCL-ENT
M$DEVICE      20**DCL-ENT
M$DISPLAY      83**DCL-ENT
M$DISPRES      23**DCL-ENT
M$DLIB      29**DCL-ENT
M$DRIBBLE      46**DCL-ENT
M$DRTN      74**DCL-ENT
M$DSUSER      31**DCL-ENT
M$ENQ      82**DCL-ENT
M$EOM      41**DCL-ENT
PL6.E3A0      #002=TCM$ABORT File=TCM$SEND1.:TCA2TSI                             SUN 11/16/97 14:28 Page:545
M$ERASE      47**DCL-ENT
M$ERR      28**DCL-ENT
M$EVENT      71**DCL-ENT
M$EXHUME      80**DCL-ENT
M$EXTEND      20**DCL-ENT
M$FDP      52**DCL-ENT
M$FDS      51**DCL-ENT
M$FEBOOT      44**DCL-ENT
M$FECTL      45**DCL-ENT
M$FEDUMP      44**DCL-ENT
M$FID      79**DCL-ENT
M$FINDPROC      33**DCL-ENT
M$FSUSER      31**DCL-ENT
M$FVP      53**DCL-ENT
M$FWCG      37**DCL-ENT
M$GBPL      57**DCL-ENT
M$GDDL      53**DCL-ENT
M$GDP      52**DCL-ENT
M$GDS      51**DCL-ENT
M$GETDCB      22**DCL-ENT
M$GETMOUSE      62**DCL-ENT
M$GETPM      63**DCL-ENT
M$GJOB      81**DCL-ENT
M$GLINEATTR      41**DCL-ENT
M$GOODPP      56**DCL-ENT
M$GPLATEN      49**DCL-ENT
M$GPROMPT      48**DCL-ENT
M$GTRMATTR      42**DCL-ENT
M$GTRMCTL      40**DCL-ENT
M$GTRMTAB      43**DCL-ENT
M$GVP      52**DCL-ENT
M$HELP      79**DCL-ENT
M$INT      71**DCL-ENT
M$INTRTN      32**DCL-ENT
M$IOQ      67**DCL-ENT
M$JOBSTATS      81**DCL-ENT
PL6.E3A0      #002=TCM$ABORT File=TCM$SEND1.:TCA2TSI                             SUN 11/16/97 14:28 Page:546
M$KEYIN      21**DCL-ENT
M$LDEV      16**DCL-ENT
M$LDTRC      29**DCL-ENT
M$LIMIT      22**DCL-ENT
M$LINES      21**DCL-ENT
M$LINK      28**DCL-ENT
M$MADMUCK      24**DCL-ENT
M$MAKUSER      55**DCL-ENT
M$MBS      23**DCL-ENT
M$MDFFLD      47**DCL-ENT
M$MERC      72**DCL-ENT
M$MERCS      73**DCL-ENT
M$MIRROR      67**DCL-ENT
M$MONINFO      84**DCL-ENT
M$MPL      57**DCL-ENT
M$NODEINFO      48**DCL-ENT
M$NXTUSR      82**DCL-ENT
M$OCMSG      80**DCL-ENT
M$OLAY      28**DCL-ENT
M$OPEN      16**DCL-ENT
M$PAS      57**DCL-ENT
M$PATHCON      80**DCL-ENT
M$PDS      51**DCL-ENT
M$PFIL      18**DCL-ENT
M$PLATEN      42**DCL-ENT
M$PRECORD      20**DCL-ENT
M$PROCNAME      33**DCL-ENT
M$PROFILE      44**DCL-ENT
M$PROMPT      40**DCL-ENT
M$RACST      24**DCL-ENT
M$RDSYSLOG      65**DCL-ENT
M$READ      17**DCL-ENT
M$RELDCB      22**DCL-ENT
M$RELRES      23**DCL-ENT
M$RELSTARF      25**DCL-ENT
M$REM      25**DCL-ENT
PL6.E3A0      #002=TCM$ABORT File=TCM$SEND1.:TCA2TSI                             SUN 11/16/97 14:28 Page:547
M$RENV      72**DCL-ENT
M$REQUIRE      24**DCL-ENT
M$RETRY      73**DCL-ENT
M$RETRYS      73**DCL-ENT
M$REW      19**DCL-ENT
M$RLSFLD      47**DCL-ENT
M$RPRIV      75**DCL-ENT
M$RSPP      54**DCL-ENT
M$RSWITCH      76**DCL-ENT
M$RUE      82**DCL-ENT
M$SAD      55**DCL-ENT
M$SAVE      31**DCL-ENT
M$SCON      32**DCL-ENT
M$SENV      72**DCL-ENT
M$SETFMA      16**DCL-ENT
M$SETFP      45**DCL-ENT
M$SINPUT      43**DCL-ENT
M$SLCFLD      48**DCL-ENT
M$SMOUSE      62**DCL-ENT
M$SMPRT      54**DCL-ENT
M$SSC      55**DCL-ENT
M$SSWITCH      75**DCL-ENT
M$STATE      84**DCL-ENT
M$STD      56**DCL-ENT
M$STIMER      70**DCL-ENT
M$STLPP      53**DCL-ENT
M$STRAP      70**DCL-ENT
M$STRMATTR      42**DCL-ENT
M$STRMCTL      40**DCL-ENT
M$STRMTAB      43**DCL-ENT
M$SYMBIO      81**DCL-ENT
M$SYSCON      67**DCL-ENT
M$SYSID      85**DCL-ENT
M$TDCLOSE      66**DCL-ENT
M$TDIO      66**DCL-ENT
M$TDOPEN      65**DCL-ENT
PL6.E3A0      #002=TCM$ABORT File=TCM$SEND1.:TCA2TSI                             SUN 11/16/97 14:28 Page:548
M$TDREQCPU      66**DCL-ENT
M$TEMPWROC      60**DCL-ENT
M$TIME      83**DCL-ENT
M$TRAP      70**DCL-ENT
M$TRMISC      45**DCL-ENT
M$TRMPRG      41**DCL-ENT
M$TRTN      74**DCL-ENT
M$TRUNC      17**DCL-ENT
M$TTIMER      70**DCL-ENT
M$UC      40**DCL
M$UMPL      57**DCL-ENT
M$UNFID      79**DCL-ENT
M$UNLATCH      36**DCL-ENT
M$UNSHARE      33**DCL-ENT
M$USRFIELD      76**DCL-ENT
M$VIRTUAL      51**DCL-ENT
M$WAIT      74**DCL-ENT
M$WEOF      19**DCL-ENT
M$WRITE      17**DCL-ENT
M$WRSYSLOG      65**DCL-ENT
M$XCON      71**DCL-ENT
M$XCONRTN      32**DCL-ENT
M$XEQTIME      84**DCL-ENT
M$XFLUSH      25**DCL-ENT
M$XMOUSE      62**DCL-ENT
M$XXX      28**DCL-ENT
M$YC      30**DCL-ENT
TCM$ABORT       6**PROC
