VERSION A02

PL6.E3A0      #001=TCO$DRIVER File=TCO$DRIVER.:TCA2TSI                           SUN 11/16/97 14:21 Page:1
        1        1        /*M*    TCO$DRIVER      Driver for O6CONVERT program                    */
        2        2        /*T***********************************************************/
        3        3        /*T*                                                         */
        4        4        /*T* Copyright (c) Bull HN Information Systems Inc., 1997    */
        5        5        /*T*                                                         */
        6        6        /*T***********************************************************/
        7        7        TCO$DRIVER: PROC MAIN;
        8        8        %INCLUDE CP_6;
        9       89        %INCLUDE CP_6_SUBS;
       10      629            %F$DCB;
       11      686            %FPT_GDS( SEGSIZE=16384, FREE=YES, RESULTS=WSBUF_, STCLASS=CONSTANT);
       12      702            %FPT_LDTRC( CP_CMD=CMDBUF, TEXTC=NO, ECHO=NO, STCLASS=CONSTANT);
       13      720            %FPT_OPEN( FPTN=OPENRU, DCB=M$RU, ASN=FILE, ACS=DIRECT, FUN=IN);
       14      829            %FPT_OPEN( FPTN=OPENSI, DCB=M$SI, TEST=YES, FPARAM=TWOWORDS, STCLASS=CONSTANT);
       15      938            %FPT_READ( FPTN=READRU, DCB=M$RU, KEYS=YES, KEY=KEYBUF);
       16      977            %FPT_WRITE( FPTN=WRITEME, DCB=M$ME);
       17     1008            %M$DCB( DCBN=M$ME, ASN=DEVICE, RES='UC');
       18     1082            %VLP_VECTOR( FPTN=WSBUF_);
       19     1097
       20     1098    1       DCL M$LM DCB;  /* to get name of this run unit */
       21     1099    1       DCL M$RU DCB;  /* to read APL workspace records from run unit */
       22     1100    1       DCL M$SI DCB;  /* to get name and params of input file */
       23     1101
       24     1102    1       DCL 1 CMDBUF STATIC,    /* buffer for M$LDTRC */
       25     1103    1            2 * CHAR(0) INIT( '!APL ') UNAL,
       26     1104    1            2 RUFID CHAR(40) UNAL,
       27     1105    1            2 * CHAR(0) INIT( ' (QUIET,SP=''') UNAL,
       28     1106    1            2 INFID CHAR(40) UNAL,
       29     1107    1            2 * CHAR(0) INIT( ''')') UNAL;
       30     1108    1       DCL DCBPTR$ PTR;
       31     1109    1       DCL ERRNOSIFID CHAR(0) CONSTANT INIT( '  No input file specified');
       32     1110    1       DCL ERRSITYPE CHAR(0) CONSTANT INIT( '  Input file is not of type O6');
       33     1111    1       DCL INACCT CHAR(8) STATIC;
       34     1112    1       DCL TWOWORDS(0:1) REDEF INACCT UBIN;
       35     1113    1       DCL 1 INFILE,
       36     1114    1            2 LEN UBIN(9) UNAL,
       37     1115    1            2 TXT CHAR(31) UNAL;
PL6.E3A0      #001=TCO$DRIVER File=TCO$DRIVER.:TCA2TSI                           SUN 11/16/97 14:21 Page:2
       38     1116    1       DCL 1 KEYBUF STATIC,
       39     1117    1            2 LEN UBIN(9) INIT( 3) UNAL,
       40     1118    1            2 KEY UBIN(27) INIT( 0) UNAL;
       41     1119    1       DCL RUACCT CHAR(8);
       42     1120    1       DCL 1 RUFILE,
       43     1121    1            2 LEN UBIN(9) UNAL,
       44     1122    1            2 TXT CHAR(31) UNAL;
       45     1123
       46     1124            /* get name of input file or error if not there */
       47     1125    1       DCBPTR$ = DCBADDR( DCBNUM( M$SI));
       48     1126    2       IF DCBPTR$->F$DCB.ASN# = %DEVICE# THEN DO;
       49     1127    2           WRITEME.BUF_ = VECTOR( ERRNOSIFID);
       50     1128    2   BAILOUT:
       51     1129    2           CALL M$WRITE( WRITEME);
       52     1130    2           CALL M$EXIT;
       53     1131    2           END;
       54     1132    1       CALL M$OPEN( OPENSI);
       55     1133    2       IF DCBPTR$->F$DCB.TYPE# ~= 'O6' THEN DO;
       56     1134    2           WRITEME.BUF_ = VECTOR( ERRSITYPE);
       57     1135    2           GOTO BAILOUT;
       58     1136    2           END;
       59     1137    1       INACCT = DCBPTR$->F$DCB.ACCT#;
       60     1138    1       INFILE = DCBPTR$->F$DCB.NAME#;
       61     1139            /* make sure APL workspace records exist in this run unit */
       62     1140    1       DCBPTR$ = DCBADDR( DCBNUM( M$LM));
       63     1141    1       OPENRU.NAME_ = VECTOR( DCBPTR$->F$DCB.NAME#);
       64     1142    1       OPENRU.ACCT_ = VECTOR( DCBPTR$->F$DCB.ACCT#);
       65     1143    1       CALL M$OPEN( OPENRU);
       66     1144    1       DCBPTR$ = DCBADDR( DCBNUM( M$RU));
       67     1145    1       CALL M$GDS( FPT_GDS);
       68     1146    1       READRU.BUF_ = WSBUF_;
       69     1147    2       DO WHILE( '1'B);
       70     1148    2           CALL M$READ( READRU) ALTRET( BUILDCMD);
       71     1149    2           KEYBUF.KEY = KEYBUF.KEY + 1;
       72     1150    2           END;
       73     1151            /* build command buffer for M$LDTRC */
       74     1152    1   BUILDCMD:
PL6.E3A0      #001=TCO$DRIVER File=TCO$DRIVER.:TCA2TSI                           SUN 11/16/97 14:21 Page:3
       75     1153    1       IF KEYBUF.KEY = 0 THEN
       76     1154    1           CALL M$MERC;  /* no workspace records were found ?!?! */
       77     1155    1       RUACCT = DCBPTR$->F$DCB.ACCT#;
       78     1156    1       RUFILE = DCBPTR$->F$DCB.NAME#;
       79     1157    1       CALL CONCAT( CMDBUF.RUFID,
       80     1158    1               SUBSTR( RUFILE.TXT, 0, RUFILE.LEN), '.', RUACCT);
       81     1159    1       CALL CONCAT( CMDBUF.INFID,
       82     1160    1               SUBSTR( INFILE.TXT, 0, INFILE.LEN), '.', INACCT);
       83     1161            /* and take off, eh? */
       84     1162    1       CALL M$LDTRC( FPT_LDTRC);
       85     1163            /* we won't be returned to.... */
       86     1164
       87     1165    1       END TCO$DRIVER;

PL6.E3A0      #001=TCO$DRIVER File=TCO$DRIVER.:TCA2TSI                           SUN 11/16/97 14:21 Page:4
--  Include file information  --

   CP_6_SUBS.:LIBRARY  is referenced.
   CP_6.:LIBRARY  cannot be made into a system file and is referenced.
   B$JIT_C.:E05TOU  was found in the system file and is never referenced.
   CP_6_C.:E05TOU  was found in the system file and is referenced.
      No diagnostics issued in procedure TCO$DRIVER.

   Procedure TCO$DRIVER requires 123 words for executable code.
   Procedure TCO$DRIVER requires 22 words of local(AUTO) storage.

    No errors detected in file TCO$DRIVER.:TCA2TSI    .

PL6.E3A0      #001=TCO$DRIVER File=TCO$DRIVER.:TCA2TSI                           SUN 11/16/97 14:21 Page:5

 Object Unit name= TCO$DRIVER                                 File name= TCO$DRIVER.:TCA2TOU
 UTS= NOV 16 '97 14:21:43.92 SUN                              Compiler= PL-6/E31         Sev=      00
 SharedLib= :SHARED_SYSTEM                                    Alt SharedLib=


    ****  Control sections  ****

 Sect   Type Bound  Init  Size OctSiz  Section name(segment info)
    0   DCB   even  none     0      0  M$UC
    1  RoData even  UTS     96    140  TCO$DRIVER
    2   Data  even  none   114    162  TCO$DRIVER
    3   DCB   even  none    98    142  M$ME
    4   DCB   even  none     0      0  M$LM
    5   DCB   even  none     0      0  M$RU
    6   DCB   even  none     0      0  M$SI
    7   Proc  even  none   123    173  TCO$DRIVER
    8  RoData even  none     9     11  TCO$DRIVER

    ****  Entry defs  ****

                              Check   Calling
                             calling  sequence
  Sect OctLoc Primary Altret sequence   type   Parms  Name
     7      0   yes            yes      Main       0  TCO$DRIVER

  ****  Entry refs  ****

         Check        Calling
        calling       sequence
Altret sequence SRef   type   Args  Name
                       nStd      0 X66_MAUTO
                       Std       0 B_CONSPOOL_D
                       nStd      0 X66_MARET
PL6.E3A0      #001=TCO$DRIVER File=TCO$DRIVER.:TCA2TSI                           SUN 11/16/97 14:21 Page:6

  ****  Data refs  ****

  Flags:  r = read only, s = secondary
Flgs Name                             Flgs Name                             Flgs Name
     M$UC                                  M$ME                                  M$LM
     M$RU                                  M$SI                                  B_VECTNIL

  ****  Segment refs  ****

  Flags:  r = read only, s = secondary
Flgs Name                             Flgs Name                             Flgs Name
     ISSID                                 NULLSID                               ROSID
PL6.E3A0      #001=TCO$DRIVER File=TCO$DRIVER.:TCA2TSI                           SUN 11/16/97 14:21 Page:7


        1        1        /*M*    TCO$DRIVER      Driver for O6CONVERT program                    */
        2        2        /*T***********************************************************/
        3        3        /*T*                                                         */
        4        4        /*T* Copyright (c) Bull HN Information Systems Inc., 1997    */
        5        5        /*T*                                                         */
        6        6        /*T***********************************************************/
        7        7        TCO$DRIVER: PROC MAIN;

      7  7 000000   000000 700200 xent  TCO$DRIVER   TSX0  ! X66_MAUTO
         7 000001   000026 000000                    ZERO    22,0

        8        8        %INCLUDE CP_6;
        9       89        %INCLUDE CP_6_SUBS;
       10      629            %F$DCB;
       11      686            %FPT_GDS( SEGSIZE=16384, FREE=YES, RESULTS=WSBUF_, STCLASS=CONSTANT);
       12      702            %FPT_LDTRC( CP_CMD=CMDBUF, TEXTC=NO, ECHO=NO, STCLASS=CONSTANT);
       13      720            %FPT_OPEN( FPTN=OPENRU, DCB=M$RU, ASN=FILE, ACS=DIRECT, FUN=IN);
       14      829            %FPT_OPEN( FPTN=OPENSI, DCB=M$SI, TEST=YES, FPARAM=TWOWORDS, STCLASS=CONSTANT);
       15      938            %FPT_READ( FPTN=READRU, DCB=M$RU, KEYS=YES, KEY=KEYBUF);
       16      977            %FPT_WRITE( FPTN=WRITEME, DCB=M$ME);
       17     1008            %M$DCB( DCBN=M$ME, ASN=DEVICE, RES='UC');
       18     1082            %VLP_VECTOR( FPTN=WSBUF_);
       19     1097
       20     1098    1       DCL M$LM DCB;  /* to get name of this run unit */
       21     1099    1       DCL M$RU DCB;  /* to read APL workspace records from run unit */
       22     1100    1       DCL M$SI DCB;  /* to get name and params of input file */
       23     1101
       24     1102    1       DCL 1 CMDBUF STATIC,    /* buffer for M$LDTRC */
       25     1103    1            2 * CHAR(0) INIT( '!APL ') UNAL,
       26     1104    1            2 RUFID CHAR(40) UNAL,
       27     1105    1            2 * CHAR(0) INIT( ' (QUIET,SP=''') UNAL,
       28     1106    1            2 INFID CHAR(40) UNAL,
       29     1107    1            2 * CHAR(0) INIT( ''')') UNAL;
       30     1108    1       DCL DCBPTR$ PTR;
       31     1109    1       DCL ERRNOSIFID CHAR(0) CONSTANT INIT( '  No input file specified');
       32     1110    1       DCL ERRSITYPE CHAR(0) CONSTANT INIT( '  Input file is not of type O6');
PL6.E3A0      #001=TCO$DRIVER File=TCO$DRIVER.:TCA2TSI                           SUN 11/16/97 14:21 Page:8
       33     1111    1       DCL INACCT CHAR(8) STATIC;
       34     1112    1       DCL TWOWORDS(0:1) REDEF INACCT UBIN;
       35     1113    1       DCL 1 INFILE,
       36     1114    1            2 LEN UBIN(9) UNAL,
       37     1115    1            2 TXT CHAR(31) UNAL;
       38     1116    1       DCL 1 KEYBUF STATIC,
       39     1117    1            2 LEN UBIN(9) INIT( 3) UNAL,
       40     1118    1            2 KEY UBIN(27) INIT( 0) UNAL;
       41     1119    1       DCL RUACCT CHAR(8);
       42     1120    1       DCL 1 RUFILE,
       43     1121    1            2 LEN UBIN(9) UNAL,
       44     1122    1            2 TXT CHAR(31) UNAL;
       45     1123
       46     1124            /* get name of input file or error if not there */
       47     1125    1       DCBPTR$ = DCBADDR( DCBNUM( M$SI));

   1125  7 000002   000000 236007 xsym               LDQ     M$SI,DL
         7 000003   000000 470400 8                  LDP0    0
         7 000004   000000 471500                    LDP1    0,,PR0
         7 000005   100000 236106                    LDQ     0,QL,PR1
         7 000006   200003 756100                    STQ     DCBPTR$,,AUTO

       48     1126    2       IF DCBPTR$->F$DCB.ASN# = %DEVICE# THEN DO;

   1126  7 000007   200003 473500                    LDP3    DCBPTR$,,AUTO
         7 000010   300032 236100                    LDQ     26,,PR3
         7 000011   777000 376007                    ANQ     -512,DL
         7 000012   003000 116007                    CMPQ    1536,DL
         7 000013   000023 601000 7                  TNZ     s:1132

       49     1127    2           WRITEME.BUF_ = VECTOR( ERRNOSIFID);

   1127  7 000014   000002 237000 8                  LDAQ    2
         7 000015   000114 757000 2                  STAQ    WRITEME+4

       50     1128    2   BAILOUT:
       51     1129    2           CALL M$WRITE( WRITEME);
PL6.E3A0      #001=TCO$DRIVER File=TCO$DRIVER.:TCA2TSI                           SUN 11/16/97 14:21 Page:9

   1129  7 000016   000110 630400 2     BAILOUT      EPPR0   WRITEME
         7 000017   040001 713400                    CLIMB   write
         7 000020   401400 401760                    pmme    nvectors=4

       52     1130    2           CALL M$EXIT;

   1130  7 000021   000001 713400                    CLIMB   exit
         7 000022   000000 401760                    pmme    nvectors=0

       53     1131    2           END;

       54     1132    1       CALL M$OPEN( OPENSI);

   1132  7 000023   000026 630400 1                  EPPR0   OPENSI
         7 000024   050000 713400                    CLIMB   open
         7 000025   410400 401760                    pmme    nvectors=18

       55     1133    2       IF DCBPTR$->F$DCB.TYPE# ~= 'O6' THEN DO;

   1133  7 000026   200003 470500                    LDP0    DCBPTR$,,AUTO
         7 000027   000025 720100                    LXL0    21,,PR0
         7 000030   000137 100000 1                  CMPX0   ERRSITYPE+8
         7 000031   000035 600000 7                  TZE     s:1137

       56     1134    2           WRITEME.BUF_ = VECTOR( ERRSITYPE);

   1134  7 000032   000004 237000 8                  LDAQ    4
         7 000033   000114 757000 2                  STAQ    WRITEME+4

       57     1135    2           GOTO BAILOUT;

   1135  7 000034   000016 710000 7                  TRA     BAILOUT

       58     1136    2           END;
       59     1137    1       INACCT = DCBPTR$->F$DCB.ACCT#;

PL6.E3A0      #001=TCO$DRIVER File=TCO$DRIVER.:TCA2TSI                           SUN 11/16/97 14:21 Page:10
   1137  7 000035   000020 237100                    LDAQ    16,,PR0
         7 000036   000157 755000 2                  STA     INACCT
         7 000037   000160 756000 2                  STQ     INACCT+1

       60     1138    1       INFILE = DCBPTR$->F$DCB.NAME#;

   1138  7 000040   000100 100500                    MLR     fill='000'O
         7 000041   000010 000040                    ADSC9   8,,PR0                   cn=0,n=32
         7 000042   200004 000040                    ADSC9   INFILE,,AUTO             cn=0,n=32

       61     1139            /* make sure APL workspace records exist in this run unit */
       62     1140    1       DCBPTR$ = DCBADDR( DCBNUM( M$LM));

   1140  7 000043   000000 236007 xsym               LDQ     M$LM,DL
         7 000044   000000 471400 8                  LDP1    0
         7 000045   100000 473500                    LDP3    0,,PR1
         7 000046   300000 236106                    LDQ     0,QL,PR3
         7 000047   200003 756100                    STQ     DCBPTR$,,AUTO

       63     1141    1       OPENRU.NAME_ = VECTOR( DCBPTR$->F$DCB.NAME#);

   1141  7 000050   000006 235000 8                  LDA     6
         7 000051   000010 036003                    ADLQ    8,DU
         7 000052   000006 757000 2                  STAQ    OPENRU+6

       64     1142    1       OPENRU.ACCT_ = VECTOR( DCBPTR$->F$DCB.ACCT#);

   1142  7 000053   000007 235000 8                  LDA     7
         7 000054   200003 236100                    LDQ     DCBPTR$,,AUTO
         7 000055   000020 036003                    ADLQ    16,DU
         7 000056   000024 757000 2                  STAQ    OPENRU+20

       65     1143    1       CALL M$OPEN( OPENRU);

   1143  7 000057   000000 630400 2                  EPPR0   OPENRU
         7 000060   050000 713400                    CLIMB   open
         7 000061   410400 401760                    pmme    nvectors=18
PL6.E3A0      #001=TCO$DRIVER File=TCO$DRIVER.:TCA2TSI                           SUN 11/16/97 14:21 Page:11

       66     1144    1       DCBPTR$ = DCBADDR( DCBNUM( M$RU));

   1144  7 000062   000000 236007 xsym               LDQ     M$RU,DL
         7 000063   000000 470400 8                  LDP0    0
         7 000064   000000 471500                    LDP1    0,,PR0
         7 000065   100000 236106                    LDQ     0,QL,PR1
         7 000066   200003 756100                    STQ     DCBPTR$,,AUTO

       67     1145    1       CALL M$GDS( FPT_GDS);

   1145  7 000067   000000 630400 1                  EPPR0   FPT_GDS
         7 000070   030001 713400                    CLIMB   gds
         7 000071   400400 401760                    pmme    nvectors=2

       68     1146    1       READRU.BUF_ = WSBUF_;

   1146  7 000072   000124 237000 2                  LDAQ    WSBUF_
         7 000073   000076 757000 2                  STAQ    READRU+4

       69     1147    2       DO WHILE( '1'B);

       70     1148    2           CALL M$READ( READRU) ALTRET( BUILDCMD);

   1148  7 000074   000072 630400 2                  EPPR0   READRU
         7 000075   440000 713400                    CLIMB   alt,read
         7 000076   401400 401760                    pmme    nvectors=4
         7 000077   000104 702000 7                  TSX2    BUILDCMD

       71     1149    2           KEYBUF.KEY = KEYBUF.KEY + 1;

   1149  7 000100   000161 236000 2                  LDQ     KEYBUF
         7 000101   000001 036007                    ADLQ    1,DL
         7 000102   000161 552034 2                  STBQ    KEYBUF,'34'O

       72     1150    2           END;

PL6.E3A0      #001=TCO$DRIVER File=TCO$DRIVER.:TCA2TSI                           SUN 11/16/97 14:21 Page:12
   1150  7 000103   000074 710000 7                  TRA     s:1148

       73     1151            /* build command buffer for M$LDTRC */
       74     1152    1   BUILDCMD:
       75     1153    1       IF KEYBUF.KEY = 0 THEN

   1153  7 000104   000161 236000 2     BUILDCMD     LDQ     KEYBUF
         7 000105   000032 316000 xsym               CANQ    B_VECTNIL+26
         7 000106   000111 601000 7                  TNZ     s:1155

       76     1154    1           CALL M$MERC;  /* no workspace records were found ?!?! */

   1154  7 000107   010007 713400                    CLIMB   4103
         7 000110   000000 401760                    pmme    nvectors=0

       77     1155    1       RUACCT = DCBPTR$->F$DCB.ACCT#;

   1155  7 000111   200003 470500                    LDP0    DCBPTR$,,AUTO
         7 000112   000020 237100                    LDAQ    16,,PR0
         7 000113   200014 757100                    STAQ    RUACCT,,AUTO

       78     1156    1       RUFILE = DCBPTR$->F$DCB.NAME#;

   1156  7 000114   000100 100500                    MLR     fill='000'O
         7 000115   000010 000040                    ADSC9   8,,PR0                   cn=0,n=32
         7 000116   200016 000040                    ADSC9   RUFILE,,AUTO             cn=0,n=32

       79     1157    1       CALL CONCAT( CMDBUF.RUFID,

   1157  7 000117   200016 236100                    LDQ     RUFILE,,AUTO
         7 000120   000033 772000                    QRL     27
         7 000121   000000 620006                    EAX0    0,QL
         7 000122   040000 100540                    MLR     fill='040'O
         7 000123   200016 200010                    ADSC9   RUFILE,,AUTO             cn=1,n=*X0
         7 000124   000127 200050 2                  ADSC9   CMDBUF+1                 cn=1,n=40
         7 000125   000050 116007                    CMPQ    40,DL
         7 000126   000143 603000 7                  TRC     s:1159
PL6.E3A0      #001=TCO$DRIVER File=TCO$DRIVER.:TCA2TSI                           SUN 11/16/97 14:21 Page:13
         7 000127   777727 620006                    EAX0    -41,QL
         7 000130   777777 660003                    ERX0    -1,DU
         7 000131   040046 100400                    MLR     fill='040'O
         7 000132   000010 000001 8                  ADSC9   8                        cn=0,n=1
         7 000133   000127 200010 2                  ADSC9   CMDBUF+1,Q               cn=1,n=*X0
         7 000134   000047 116007                    CMPQ    39,DL
         7 000135   000143 603000 7                  TRC     s:1159
         7 000136   777730 620006                    EAX0    -40,QL
         7 000137   777777 660003                    ERX0    -1,DU
         7 000140   040046 100500                    MLR     fill='040'O
         7 000141   200014 000010                    ADSC9   RUACCT,,AUTO             cn=0,n=8
         7 000142   000127 400010 2                  ADSC9   CMDBUF+1,Q               cn=2,n=*X0

       80     1158    1               SUBSTR( RUFILE.TXT, 0, RUFILE.LEN), '.', RUACCT);
       81     1159    1       CALL CONCAT( CMDBUF.INFID,

   1159  7 000143   200004 236100                    LDQ     INFILE,,AUTO
         7 000144   000033 772000                    QRL     27
         7 000145   000000 620006                    EAX0    0,QL
         7 000146   040000 100540                    MLR     fill='040'O
         7 000147   200004 200010                    ADSC9   INFILE,,AUTO             cn=1,n=*X0
         7 000150   000144 200050 2                  ADSC9   CMDBUF+14                cn=1,n=40
         7 000151   000050 116007                    CMPQ    40,DL
         7 000152   000167 603000 7                  TRC     s:1162
         7 000153   777727 620006                    EAX0    -41,QL
         7 000154   777777 660003                    ERX0    -1,DU
         7 000155   040046 100400                    MLR     fill='040'O
         7 000156   000010 000001 8                  ADSC9   8                        cn=0,n=1
         7 000157   000144 200010 2                  ADSC9   CMDBUF+14,Q              cn=1,n=*X0
         7 000160   000047 116007                    CMPQ    39,DL
         7 000161   000167 603000 7                  TRC     s:1162
         7 000162   777730 620006                    EAX0    -40,QL
         7 000163   777777 660003                    ERX0    -1,DU
         7 000164   040046 100400                    MLR     fill='040'O
         7 000165   000157 000010 2                  ADSC9   INACCT                   cn=0,n=8
         7 000166   000144 400010 2                  ADSC9   CMDBUF+14,Q              cn=2,n=*X0

PL6.E3A0      #001=TCO$DRIVER File=TCO$DRIVER.:TCA2TSI                           SUN 11/16/97 14:21 Page:14
       82     1160    1               SUBSTR( INFILE.TXT, 0, INFILE.LEN), '.', INACCT);
       83     1161            /* and take off, eh? */
       84     1162    1       CALL M$LDTRC( FPT_LDTRC);

   1162  7 000167   000006 630400 1                  EPPR0   FPT_LDTRC
         7 000170   000006 713400                    CLIMB   6
         7 000171   403000 401760                    pmme    nvectors=7

       85     1163            /* we won't be returned to.... */
       86     1164
       87     1165    1       END TCO$DRIVER;

   1165  7 000172   000000 702200 xent               TSX2  ! X66_MARET

FPT_GDS
 Sect OctLoc
   1     000   000001 777640   000004 006000   000001 777640   000124 006000    .............T..
   1     004   100600 040000   ****** ******                                    @. .....

FPT_LDTRC
 Sect OctLoc
   1     006   000000 177640   000000 006014   000000 177640   000000 006014    ................
   1     016*  000000 177640   000000 006014   000030 577640   000126 006000    .............V..
   1     022   000001 777640   000024 006000   000000 000000   000000 000000    ................

OPENSI
 Sect OctLoc
   1     026   000025 777640   000072 006000   000000 177640   000000 006014    .....:..........
   1     032   000000 177640   000000 006014   000000 177640   000000 006014    ................
   1     056*  000001 777640   000157 006000   000000 177640   000000 006014    .....o..........
   1     062   000000 177640   000000 006014   000000 177640   000000 006014    ................
   1     072*  000000 020042   000000 000000   252525 000000   000040 252520    ..."......... ..
   1     076   000040 040040   000000 000000   000000 777777   000000 000000    .   ............
   1     102   000000 000000   000000 000000   000000 000000   000000 000000    ................
   1     106   251000 622000   000000 000000   000000 000000   111250 000000    ............I...
   1     112   040040 040040   000000 000000   000000 000000   000000 000000        ............
   1     116   000000 000000   ****** ******                                    ........
PL6.E3A0      #001=TCO$DRIVER File=TCO$DRIVER.:TCA2TSI                           SUN 11/16/97 14:21 Page:15

ERRNOSIFID
 Sect OctLoc
   1     120   040040 116157   040151 156160   165164 040146   151154 145040      No input file
   1     124   163160 145143   151146 151145   144*** ******                    specified...

ERRSITYPE
 Sect OctLoc
   1     127   040040 111156   160165 164040   146151 154145   040151 163040      Input file is
   1     133   156157 164040   157146 040164   171160 145040   117066 ******    not of type O6..

(unnamed)
 Sect OctLoc
   1     137   117066 040040                                                    O6

OPENRU
 Sect OctLoc
   2     000   000025 777640   000044 006000   000000 177640   000000 006014    .....$..........
   2     004   000000 177640   000000 006014   000000 177640   000000 006014    ................
   2     044*  000000 000042   000000 002001   252525 000002   000040 252520    ..."......... ..
   2     050   000040 040040   000000 000000   000000 777777   000000 000000    .   ............
   2     054   000000 000000   000000 000000   000000 000000   000000 000000    ................
   2     060   251000 622000   000000 000000   000000 000000   111250 000000    ............I...
   2     064   040040 040040   000000 000000   000000 000000   000000 000000        ............
   2     070   000000 000000   ****** ******                                    ........

READRU
 Sect OctLoc
   2     072   000005 777640   000102 006000   000000 777640   000161 006000    .....B.......q..
   2     076   000000 177640   000000 006014   000000 177640   000000 006014    ................
   2     102   000000 600000   000000 000000   000000 000000   000000 000000    ................
   2     106   000000 000000   000000 000000                                    ........

WRITEME
 Sect OctLoc
   2     110   000003 777640   000120 006000   000000 177640   000000 006014    .....P..........
   2     114   000000 177640   000000 006014   000000 177640   000000 006014    ................
PL6.E3A0      #001=TCO$DRIVER File=TCO$DRIVER.:TCA2TSI                           SUN 11/16/97 14:21 Page:16
   2     120   000000 400400   000000 000000   000000 000000   000000 000000    ................

WSBUF_
 Sect OctLoc
   2     124   000000 177640   000000 006014                                    ........

CMDBUF
 Sect OctLoc
   2     126   041101 120114   040*** ******   ****** ******   ****** ******    !APL ...........
   2     136*  ****** ******   ****** ******   ****** ******   ***040 050121    ............. (Q
   2     142   125111 105124   054123 120075   047*** ******   ****** ******    UIET,SP='.......
   2     156*  ***047 051***                                                    .').

KEYBUF
 Sect OctLoc
   2     161   003000 000000                                                    ....

(unnamed)
 Sect OctLoc
   3     000   000000 000000   000000 000000   000000 000000   000000 000501    ................
   3     004   000000 000000   000000 000000   000000 006014   000000 006014    ................
   3     010   001040 040040   040040 040040   040040 040040   040040 040040    .
   3     014   040040 040040   040040 040040   040040 040040   040040 040040
   3     024*  040040 040040   040040 040040   125103 040040   040040 040040            UC
   3     030   040040 040040   000000 203015   000000 003000   000000 000000        ............
   3     034   000000 000000   000000 000000   000000 000000   000002 776003    ................
   3     040   001000 000000   000000 000002   000000 000000   000000 000000    ................
   3     044   000000 000111   040040 040040   000000 006014   000000 006014    ...I    ........
   3     050   000000 006014   000000 000000   000000 000000   000000 006014    ................
   3     054   000000 000000   000000 000000   000000 000000   000000 000000    ................
   3     060   000000 010000   000000 000000   000000 000000   000000 000000    ................
   3     064   000000 000020   000000 000000   000000 006014   000000 000000    ................
   3     070   000000 000000   000000 000000   000000 000000   000000 000000    ................
   3     074   000000 000000   000000 006014   000000 000000   000000 000000    ................
   3     100   000000 000000   000000 000000   000000 000000   000000 000000    ................
   3     104   ****** ******   ****** ******   000000 000000   ****** ******    ................
   3     110   000000 000000   000000 000000   000000 000000   000000 000000    ................
PL6.E3A0      #001=TCO$DRIVER File=TCO$DRIVER.:TCA2TSI                           SUN 11/16/97 14:21 Page:17
   3     124*  000000 000000   000000 000000   000000 000000   ****** ******    ................
   3     134*  ****** ******   ****** ******   ****** ******   000000 070707    ..............8.
   3     140   ****** ******   ****** ******                                    ........

(unnamed)
 Sect OctLoc
   8     000   000000 006003   000000 000000   000006 177640   000120 006000    .............P..
   8     004   000007 377640   000127 006000   000007 777640   000001 777640    .....W..........
   8     010   056040 040040                                                    .

PL6.E3A0      #001=TCO$DRIVER File=TCO$DRIVER.:TCA2TSI                           SUN 11/16/97 14:21 Page:18
--  Include file information  --

   CP_6_SUBS.:LIBRARY  is referenced.
   CP_6.:LIBRARY  cannot be made into a system file and is referenced.
   B$JIT_C.:E05TOU  was found in the system file and is never referenced.
   CP_6_C.:E05TOU  was found in the system file and is referenced.
      No diagnostics issued in procedure TCO$DRIVER.
PL6.E3A0      #001=TCO$DRIVER File=TCO$DRIVER.:TCA2TSI                           SUN 11/16/97 14:21 Page:19

 **** Variables and constants ****

  ****  Section 001 RoData TCO$DRIVER

  ****  Scalars and arrays  ****
OctLoc.c.b A Datatyp(siz) R M Lvl/name                 OctLoc.c.b A Datatyp(siz) R M Lvl/name

   120-0-0/c CHAR(25)    r     1 ERRNOSIFID               127-0-0/c CHAR(30)    r     1 ERRSITYPE
     0-0-0/d STRC(216)   r     1 FPT_GDS                    6-0-0/d STRC(576)   r     1 FPT_LDTRC
    26-0-0/d STRC(2088)  r     1 OPENSI

  ****  Section 002  Data  TCO$DRIVER

  ****  Scalars and arrays  ****
OctLoc.c.b A Datatyp(siz) R M Lvl/name                 OctLoc.c.b A Datatyp(siz) R M Lvl/name

   126-0-0/c STRC(891)   r     1 CMDBUF                   157-0-0/c CHAR(8)     r     1 INACCT
   161-0-0/b STRC        r     1 KEYBUF                     0-0-0/d STRC(2088)  r     1 OPENRU
    72-0-0/d STRC(504)   r     1 READRU
   157-0-0/w UBIN        r     1 TWOWORDS(0:1)
   110-0-0/d STRC(432)   r     1 WRITEME                  124-0-0/d STRC(72)    r     1 WSBUF_

  ****  Auto variables  ****

  ****  Scalars and arrays  ****
OctLoc.c.b A Datatyp(siz) R M Lvl/name                 OctLoc.c.b A Datatyp(siz) R M Lvl/name

     3-0-0/w PTR         r     1 DCBPTR$                    4-0-0/c STRC(288)   r     1 INFILE
    14-0-0/c CHAR(8)     r     1 RUACCT                    16-0-0/c STRC(288)   r     1 RUFILE

  ****  BASED and DCB variables  ****

  ****  Scalars and arrays  ****
OctLoc.c.b A Datatyp(siz) R M Lvl/name                 OctLoc.c.b A Datatyp(siz) R M Lvl/name

     0-0-0/d ASTR(3528)  r     1 F$DCB                      0-0-0N  NULL        r     1 M$LM
     0-0-0/d ASTR(3528)  r     1 M$ME                       0-0-0N  NULL        r     1 M$RU
PL6.E3A0      #001=TCO$DRIVER File=TCO$DRIVER.:TCA2TSI                           SUN 11/16/97 14:21 Page:20
     0-0-0N  NULL        r     1 M$SI


   Procedure TCO$DRIVER requires 123 words for executable code.
   Procedure TCO$DRIVER requires 22 words of local(AUTO) storage.

    No errors detected in file TCO$DRIVER.:TCA2TSI    .
PL6.E3A0      #001=TCO$DRIVER File=TCO$DRIVER.:TCA2TSI                           SUN 11/16/97 14:21 Page:21
          *** CROSS REFERENCE LISTING ***
**     DENOTES     IDENTIFIER DEFINITION
<<                 IDENTIFIER'S VALUE SET
>>                 IDENTIFIER'S VALUE USED
<>                 IDENTIFIER SET AND/OR USED
--                 IDENTIFIER REFERENCED
PL6.E3A0      #001=TCO$DRIVER File=TCO$DRIVER.:TCA2TSI                           SUN 11/16/97 14:21 Page:22
          MINI XREF LISTING

BAILOUT
      1129**LABEL    1135--GOTO
BUILDCMD
      1153**LABEL    1148--CALLALT
CMDBUF
      1102**DCL       716--DCLINIT
CMDBUF.INFID
      1106**DCL      1159<<CALLBLT
CMDBUF.RUFID
      1104**DCL      1157<<CALLBLT
DCBPTR$
      1108**DCL      1125<<ASSIGN   1126>>IF       1133>>IF       1137>>ASSIGN   1138>>ASSIGN   1140<<ASSIGN
      1141>>ASSIGN   1142>>ASSIGN   1144<<ASSIGN   1155>>ASSIGN   1156>>ASSIGN
ERRNOSIFID
      1109**DCL      1127--ASSIGN
ERRSITYPE
      1110**DCL      1134--ASSIGN
F$DCB.ACCT#
       646**DCL      1137>>ASSIGN   1142--ASSIGN   1155>>ASSIGN
F$DCB.ACTPOS
       662**DCL       662--REDEF
F$DCB.ARS#
       636**DCL       636--REDEF
F$DCB.ASN#
       651**DCL      1126>>IF
F$DCB.ATTR
       655**DCL       656--REDEF
F$DCB.BORROW
       670**DCL       670--REDEF     670--REDEF     670--REDEF
F$DCB.DCBNAME.L
       684**DCL       684--IMP-SIZ
F$DCB.EOMCHAR#
PL6.E3A0      #001=TCO$DRIVER File=TCO$DRIVER.:TCA2TSI                           SUN 11/16/97 14:21 Page:23
       640**DCL       640--REDEF
F$DCB.FLDID
       665**DCL       665--REDEF
F$DCB.FORM$
       659**DCL       659--REDEF
F$DCB.FSECT
       675**DCL       675--REDEF
F$DCB.FSN#
       652**DCL       652--REDEF     652--REDEF     653--REDEF
F$DCB.HEADER$
       658**DCL       658--REDEF
F$DCB.IXTNSIZE#
       656**DCL       656--REDEF
F$DCB.LASTSTA$
       645**DCL       645--REDEF
F$DCB.LVL
       671**DCL       671--REDEF
F$DCB.NAME#
       646**DCL      1138>>ASSIGN   1141--ASSIGN   1156>>ASSIGN
F$DCB.NAME#.C
       646**DCL       646--REDEF
F$DCB.NOEOF
       668**DCL       668--REDEF
F$DCB.NRECS#
       657**DCL       657--REDEF
F$DCB.NRECX
       676**DCL       676--REDEF
F$DCB.OHDR
       668**DCL       668--REDEF
F$DCB.ORG#
       651**DCL       651--REDEF
F$DCB.PRECNO
       674**DCL       674--REDEF
F$DCB.RCSZ
       680**DCL       680--REDEF
F$DCB.RES#
PL6.E3A0      #001=TCO$DRIVER File=TCO$DRIVER.:TCA2TSI                           SUN 11/16/97 14:21 Page:24
       647**DCL       647--REDEF
F$DCB.SETX
       659**DCL       659--REDEF
F$DCB.TAB$
       659**DCL       659--REDEF
F$DCB.TDA
       673**DCL       674--REDEF
F$DCB.TYPE#
       647**DCL      1133>>IF
F$DCB.WSN#
       647**DCL       647--REDEF
FPT_GDS
       697**DCL      1145<>CALL
FPT_GDS.V
       697**DCL       697--DCLINIT
FPT_LDTRC
       715**DCL      1162<>CALL
FPT_LDTRC.V
       717**DCL       717--DCLINIT
INACCT
      1111**DCL      1112--REDEF    1137<<ASSIGN   1159>>CALLBLT
INFILE
      1113**DCL      1138<<ASSIGN
INFILE.LEN
      1114**DCL      1159>>CALLBLT
INFILE.TXT
      1115**DCL      1159>>CALLBLT
KEYBUF
      1116**DCL       955--DCLINIT   956--DCLINIT
KEYBUF.KEY
      1118**DCL      1149<<ASSIGN   1149>>ASSIGN   1153>>IF
M$EXIT
        29**DCL-ENT  1130--CALL
M$GDS
        52**DCL-ENT  1145--CALL
M$LDTRC
PL6.E3A0      #001=TCO$DRIVER File=TCO$DRIVER.:TCA2TSI                           SUN 11/16/97 14:21 Page:25
        30**DCL-ENT  1162--CALL
M$LM
      1098**DCL      1140--ASSIGN
M$ME.ACTPOS
      1050**DCL      1050--REDEF
M$ME.ARS#
      1009**DCL      1009--REDEF
M$ME.ATTR#
      1039**DCL      1039--REDEF    1041--REDEF
M$ME.BORROW
      1061**DCL      1061--REDEF    1061--REDEF    1061--REDEF
M$ME.DCBNAME.L
      1080**DCL      1080--IMP-SIZ
M$ME.EOMCHAR#
      1016**DCL      1017--REDEF
M$ME.FLDID
      1053**DCL      1054--REDEF
M$ME.FORM$
      1045**DCL      1045--REDEF
M$ME.FSECT
      1068**DCL      1068--REDEF
M$ME.FSN#
      1035**DCL      1035--REDEF    1035--REDEF    1036--REDEF
M$ME.HEADER$
      1044**DCL      1045--REDEF
M$ME.IXTNSIZE#
      1041**DCL      1042--REDEF
M$ME.LASTSTA$
      1025**DCL      1025--REDEF
M$ME.LVL
      1062**DCL      1062--REDEF
M$ME.NAME#.C
      1025**DCL      1026--REDEF
M$ME.NOEOF
      1057**DCL      1057--REDEF
M$ME.NRECS#
PL6.E3A0      #001=TCO$DRIVER File=TCO$DRIVER.:TCA2TSI                           SUN 11/16/97 14:21 Page:26
      1042**DCL      1042--REDEF
M$ME.NRECX
      1069**DCL      1069--REDEF
M$ME.OHDR
      1058**DCL      1058--REDEF
M$ME.ORG#
      1033**DCL      1034--REDEF
M$ME.PRECNO
      1066**DCL      1066--REDEF
M$ME.RCSZ
      1074**DCL      1074--REDEF
M$ME.RES#
      1027**DCL      1027--REDEF
M$ME.SETX
      1046**DCL      1046--REDEF
M$ME.TAB$
      1045**DCL      1045--REDEF
M$ME.TDA
      1065**DCL      1066--REDEF
M$ME.WSN#
      1027**DCL      1028--REDEF
M$MERC
        73**DCL-ENT  1154--CALL
M$OPEN
        17**DCL-ENT  1132--CALL     1143--CALL
M$READ
        18**DCL-ENT  1148--CALL
M$RU
      1099**DCL      1144--ASSIGN
M$SI
      1100**DCL      1125--ASSIGN
M$WRITE
        18**DCL-ENT  1129--CALL
OPENRU
       785**DCL      1143<>CALL
OPENRU.ACCT_
PL6.E3A0      #001=TCO$DRIVER File=TCO$DRIVER.:TCA2TSI                           SUN 11/16/97 14:21 Page:27
       789**DCL      1142<<ASSIGN
OPENRU.ACSVEH_
       787**DCL       788--REDEF
OPENRU.ALTKEYS_
       793**DCL       794--REDEF     794--REDEF
OPENRU.HDR_
       792**DCL       793--REDEF
OPENRU.NAME_
       786**DCL      1141<<ASSIGN
OPENRU.TAB_
       791**DCL       792--REDEF
OPENRU.UHL_
       785**DCL       786--REDEF     786--REDEF
OPENRU.V
       794**DCL       785--DCLINIT
OPENRU.V.FSN#
       825**DCL       825--REDEF     825--REDEF
OPENRU.WSN_
       791**DCL       791--REDEF
OPENSI
       894**DCL      1132<>CALL
OPENSI.ACSVEH_
       896**DCL       897--REDEF
OPENSI.ALTKEYS_
       902**DCL       903--REDEF     903--REDEF
OPENSI.HDR_
       901**DCL       902--REDEF
OPENSI.TAB_
       900**DCL       901--REDEF
OPENSI.UHL_
       894**DCL       895--REDEF     895--REDEF
OPENSI.V
       903**DCL       894--DCLINIT
OPENSI.V.FSN#
       934**DCL       934--REDEF     934--REDEF
OPENSI.WSN_
PL6.E3A0      #001=TCO$DRIVER File=TCO$DRIVER.:TCA2TSI                           SUN 11/16/97 14:21 Page:28
       900**DCL       900--REDEF
READRU
       955**DCL      1148<>CALL
READRU.BUF_
       957**DCL      1146<<ASSIGN
READRU.STATION_
       958**DCL       959--REDEF
READRU.V
       959**DCL       955--DCLINIT
READRU.V.DVBYTE.REREAD#
       970**DCL       970--REDEF
READRU.V.INDX#
       968**DCL       968--REDEF
RUACCT
      1119**DCL      1155<<ASSIGN   1157>>CALLBLT
RUFILE
      1120**DCL      1156<<ASSIGN
RUFILE.LEN
      1121**DCL      1157>>CALLBLT
RUFILE.TXT
      1122**DCL      1157>>CALLBLT
TWOWORDS
      1112**DCL       899--DCLINIT
WRITEME
       994**DCL      1129<>CALL
WRITEME.BUF_
       994**DCL      1127<<ASSIGN   1134<<ASSIGN
WRITEME.STATION_
       996**DCL       996--REDEF
WRITEME.V
       997**DCL       994--DCLINIT
WRITEME.V.DVBYTE.VFC#
      1003**DCL      1003--REDEF
WSBUF_
      1093**DCL       697--DCLINIT  1146>>ASSIGN
WSBUF_.W2
PL6.E3A0      #001=TCO$DRIVER File=TCO$DRIVER.:TCA2TSI                           SUN 11/16/97 14:21 Page:29
      1094**DCL      1095--REDEF
PL6.E3A0      #001=TCO$DRIVER File=TCO$DRIVER.:TCA2TSI                           SUN 11/16/97 14:21 Page:30
              *** CROSS REFERENCE LISTING ***
    **     DENOTES     IDENTIFIER DEFINITION
    <<                 IDENTIFIER'S VALUE SET
    >>                 IDENTIFIER'S VALUE USED
    <>                 IDENTIFIER SET AND/OR USED
    --                 IDENTIFIER REFERENCED
PL6.E3A0      #001=TCO$DRIVER File=TCO$DRIVER.:TCA2TSI                           SUN 11/16/97 14:21 Page:31
              MINI UREF LISTING

M$ACCT      34**DCL-ENT
M$ACTIVATE      37**DCL-ENT
M$ALIB      30**DCL-ENT
M$ASUSER      32**DCL-ENT
M$ATTACH      39**DCL-ENT
M$BADPP      57**DCL-ENT
M$CGCTL      38**DCL-ENT
M$CGINFO      38**DCL-ENT
M$CHECK      19**DCL-ENT
M$CHGUNIT      77**DCL-ENT
M$CLOSE      17**DCL-ENT
M$CLRSTK      75**DCL-ENT
M$CMDVAR      86**DCL-ENT
M$CONFIG      47**DCL-ENT
M$CORRES      22**DCL-ENT
M$CPEXIT      31**DCL-ENT
M$CVM      55**DCL-ENT
M$CVOL      20**DCL-ENT
M$DCLFLD      47**DCL-ENT
M$DEACTIVATE      37**DCL-ENT
M$DELREC      19**DCL-ENT
M$DEQ      84**DCL-ENT
M$DETACH      39**DCL-ENT
M$DEVICE      21**DCL-ENT
M$DISPLAY      84**DCL-ENT
M$DISPRES      24**DCL-ENT
M$DLIB      30**DCL-ENT
M$DRIBBLE      47**DCL-ENT
M$DRTN      75**DCL-ENT
M$DSUSER      32**DCL-ENT
M$ENQ      83**DCL-ENT
M$EOM      42**DCL-ENT
PL6.E3A0      #001=TCO$DRIVER File=TCO$DRIVER.:TCA2TSI                           SUN 11/16/97 14:21 Page:32
M$ERASE      48**DCL-ENT
M$ERR      29**DCL-ENT
M$ERRMSG      80**DCL-ENT
M$EVENT      72**DCL-ENT
M$EXHUME      81**DCL-ENT
M$EXTEND      21**DCL-ENT
M$FDP      53**DCL-ENT
M$FDS      52**DCL-ENT
M$FEBOOT      45**DCL-ENT
M$FECTL      46**DCL-ENT
M$FEDUMP      45**DCL-ENT
M$FID      80**DCL-ENT
M$FINDPROC      34**DCL-ENT
M$FSUSER      32**DCL-ENT
M$FVP      54**DCL-ENT
M$FWCG      38**DCL-ENT
M$GBPL      58**DCL-ENT
M$GDDL      54**DCL-ENT
M$GDP      53**DCL-ENT
M$GETDCB      23**DCL-ENT
M$GETMOUSE      63**DCL-ENT
M$GETPM      64**DCL-ENT
M$GJOB      82**DCL-ENT
M$GLINEATTR      42**DCL-ENT
M$GOODPP      57**DCL-ENT
M$GPLATEN      50**DCL-ENT
M$GPROMPT      49**DCL-ENT
M$GTRMATTR      43**DCL-ENT
M$GTRMCTL      41**DCL-ENT
M$GTRMTAB      44**DCL-ENT
M$GVP      53**DCL-ENT
M$HELP      80**DCL-ENT
M$INT      72**DCL-ENT
M$INTRTN      33**DCL-ENT
M$IOQ      68**DCL-ENT
M$JOBSTATS      82**DCL-ENT
PL6.E3A0      #001=TCO$DRIVER File=TCO$DRIVER.:TCA2TSI                           SUN 11/16/97 14:21 Page:33
M$KEYIN      22**DCL-ENT
M$LDEV      17**DCL-ENT
M$LIMIT      23**DCL-ENT
M$LINES      22**DCL-ENT
M$LINK      29**DCL-ENT
M$MADMUCK      25**DCL-ENT
M$MAKUSER      56**DCL-ENT
M$MBS      24**DCL-ENT
M$MDFFLD      48**DCL-ENT
M$MERCS      74**DCL-ENT
M$MIRROR      68**DCL-ENT
M$MONINFO      85**DCL-ENT
M$MPL      58**DCL-ENT
M$NODEINFO      49**DCL-ENT
M$NXTUSR      83**DCL-ENT
M$OCMSG      81**DCL-ENT
M$OLAY      29**DCL-ENT
M$PAS      58**DCL-ENT
M$PATHCON      81**DCL-ENT
M$PDS      52**DCL-ENT
M$PFIL      19**DCL-ENT
M$PLATEN      43**DCL-ENT
M$PRECORD      21**DCL-ENT
M$PROCNAME      34**DCL-ENT
M$PROFILE      45**DCL-ENT
M$PROMPT      41**DCL-ENT
M$RACST      25**DCL-ENT
M$RDSYSLOG      66**DCL-ENT
M$RELDCB      23**DCL-ENT
M$RELRES      24**DCL-ENT
M$RELSTARF      26**DCL-ENT
M$REM      26**DCL-ENT
M$RENV      73**DCL-ENT
M$REQUIRE      25**DCL-ENT
M$RETRY      74**DCL-ENT
M$RETRYS      74**DCL-ENT
PL6.E3A0      #001=TCO$DRIVER File=TCO$DRIVER.:TCA2TSI                           SUN 11/16/97 14:21 Page:34
M$REW      20**DCL-ENT
M$RLSFLD      48**DCL-ENT
M$RPRIV      76**DCL-ENT
M$RSPP      55**DCL-ENT
M$RSWITCH      77**DCL-ENT
M$RUE      83**DCL-ENT
M$SAD      56**DCL-ENT
M$SAVE      32**DCL-ENT
M$SCON      33**DCL-ENT
M$SCREECH      31**DCL-ENT
M$SENV      73**DCL-ENT
M$SETFMA      17**DCL-ENT
M$SETFP      46**DCL-ENT
M$SINPUT      44**DCL-ENT
M$SLCFLD      49**DCL-ENT
M$SMOUSE      63**DCL-ENT
M$SMPRT      55**DCL-ENT
M$SPRIV      76**DCL-ENT
M$SSC      56**DCL-ENT
M$SSWITCH      76**DCL-ENT
M$STATE      85**DCL-ENT
M$STD      57**DCL-ENT
M$STIMER      71**DCL-ENT
M$STLPP      54**DCL-ENT
M$STRAP      71**DCL-ENT
M$STRMATTR      43**DCL-ENT
M$STRMCTL      41**DCL-ENT
M$STRMTAB      44**DCL-ENT
M$SYMBIO      82**DCL-ENT
M$SYSCON      68**DCL-ENT
M$SYSID      86**DCL-ENT
M$TDCLOSE      67**DCL-ENT
M$TDIO      67**DCL-ENT
M$TDOPEN      66**DCL-ENT
M$TDREQCPU      67**DCL-ENT
M$TEMPWROC      61**DCL-ENT
PL6.E3A0      #001=TCO$DRIVER File=TCO$DRIVER.:TCA2TSI                           SUN 11/16/97 14:21 Page:35
M$TIME      84**DCL-ENT
M$TRAP      71**DCL-ENT
M$TRMISC      46**DCL-ENT
M$TRMPRG      42**DCL-ENT
M$TRTN      75**DCL-ENT
M$TRUNC      18**DCL-ENT
M$TTIMER      71**DCL-ENT
M$UC      41**DCL
M$UMPL      58**DCL-ENT
M$UNFID      80**DCL-ENT
M$UNLATCH      37**DCL-ENT
M$UNSHARE      34**DCL-ENT
M$USRFIELD      77**DCL-ENT
M$VIRTUAL      52**DCL-ENT
M$WAIT      75**DCL-ENT
M$WEOF      20**DCL-ENT
M$WRSYSLOG      66**DCL-ENT
M$XCON      72**DCL-ENT
M$XCONRTN      33**DCL-ENT
M$XEQTIME      85**DCL-ENT
M$XFLUSH      26**DCL-ENT
M$XMOUSE      63**DCL-ENT
M$XXX      29**DCL-ENT
M$YC      31**DCL-ENT
TCO$DRIVER       7**PROC
