PL6.E3A0      #006=TCU$BUILTIN File=TCU$UNLZ.:TCA2TSI                            SUN 11/16/97 14:30 Page:200
      688        1        /*T***********************************************************/
      689        2        /*T*                                                         */
      690        3        /*T* Copyright (c) Bull HN Information Systems Inc., 1997    */
      691        4        /*T*                                                         */
      692        5        /*T***********************************************************/
      693        6        TCU$BUILTIN: PROC (PARM);
      694        7
      695        8        %INCLUDE XU_MACRO_C;
      696     3114        %INCLUDE XU_SUBS_C;
      697     3206
      698     3207        %PARSE$PARAM (NAME=PARM, STCLASS=);
      699     3288        %PARSE$OUT (NAME=OUT$BLK, STCLASS="BASED(PARM.OUT$)");
      700     3333    1   DCL TCU_NEXT REMEMBER SYMREF;
      701     3334
      702     3335    1           IF PARM.TYPE = %SUCC#
      703     3336    1           THEN IF PARM.OUT$=ADDR(NIL) OR OUT$BLK.SUBLK$(0)->OUT$BLK.CODE ~= 0
      704     3337    1              THEN PARM.REJECT = '1'B;
      705     3338    1           RETURN;
      706     3339    1   TCU$BREAK: ENTRY;
      707     3340    1           UNWIND TO TCU_NEXT;
      708     3341    1   END TCU$BUILTIN;
      709     3342        %EOD;

PL6.E3A0      #006=TCU$BUILTIN File=TCU$UNLZ.:TCA2TSI                            SUN 11/16/97 14:30 Page:201
--  Include file information  --

   XU_SUBS_C.:LIBRARY  is referenced.
   XU_MACRO_C.:LIBRARY  is referenced.
   B$JIT_C.:E05TOU  was found in the system file and is never referenced.
   CP_6_C.:E05TOU  was found in the system file and is never referenced.
      No diagnostics issued in procedure TCU$BUILTIN.

   Procedure TCU$BUILTIN requires 22 words for executable code.
   Procedure TCU$BUILTIN requires 4 words of local(AUTO) storage.

PL6.E3A0      #006=TCU$BUILTIN File=TCU$UNLZ.:TCA2TSI                            SUN 11/16/97 14:30 Page:202

 Object Unit name= TCU$BUILTIN                                File name= TCU$UNLZ.:TCA2TOU
 UTS= NOV 16 '97 14:30:54.32 SUN                              Compiler= PL-6/E31         Sev=      00
 SharedLib= :SHARED_SYSTEM                                    Alt SharedLib=


    ****  Control sections  ****

 Sect   Type Bound  Init  Size OctSiz  Section name(segment info)
    0   Proc  even  none    22     26  TCU$BUILTIN

    ****  Entry defs  ****

                              Check   Calling
                             calling  sequence
  Sect OctLoc Primary Altret sequence   type   Parms  Name
     0      0   yes            yes      Std        1  TCU$BUILTIN
     0     21                  yes      Std        0  TCU$BREAK

  ****  Entry refs  ****

         Check        Calling
        calling       sequence
Altret sequence SRef   type   Args  Name
                       nStd      0 X66_AUTO_1
                       Std       0 B_CONSPOOL_D
                       nStd      0 X66_ARET
                       nStd      0 X66_AUNWIND

  ****  Data refs  ****

  Flags:  r = read only, s = secondary
Flgs Name                             Flgs Name                             Flgs Name
     TCU_NEXT                              B_VECTNIL
PL6.E3A0      #006=TCU$BUILTIN File=TCU$UNLZ.:TCA2TSI                            SUN 11/16/97 14:30 Page:203


      688        1        /*T***********************************************************/
      689        2        /*T*                                                         */
      690        3        /*T* Copyright (c) Bull HN Information Systems Inc., 1997    */
      691        4        /*T*                                                         */
      692        5        /*T***********************************************************/
      693        6        TCU$BUILTIN: PROC (PARM);

      6  0 000000   000000 700200 xent  TCU$BUILTIN  TSX0  ! X66_AUTO_1
         0 000001   000004 000001                    ZERO    4,1

      694        7
      695        8        %INCLUDE XU_MACRO_C;
      696     3114        %INCLUDE XU_SUBS_C;
      697     3206
      698     3207        %PARSE$PARAM (NAME=PARM, STCLASS=);
      699     3288        %PARSE$OUT (NAME=OUT$BLK, STCLASS="BASED(PARM.OUT$)");
      700     3333    1   DCL TCU_NEXT REMEMBER SYMREF;
      701     3334
      702     3335    1           IF PARM.TYPE = %SUCC#

   3335  0 000002   200003 470500                    LDP0    @PARM,,AUTO
         0 000003   000000 236100                    LDQ     0,,PR0
         0 000004   777000 376003                    ANQ     -512,DU
         0 000005   002000 116003                    CMPQ    1024,DU
         0 000006   000020 601000 0                  TNZ     s:3338

      703     3336    1           THEN IF PARM.OUT$=ADDR(NIL) OR OUT$BLK.SUBLK$(0)->OUT$BLK.CODE ~= 0

   3336  0 000007   000002 236100                    LDQ     2,,PR0
         0 000010   000001 116000 xsym               CMPQ    B_VECTNIL+1
         0 000011   000016 600000 0                  TZE     s:3337
         0 000012   000002 471500                    LDP1    2,,PR0
         0 000013   100003 473500                    LDP3    3,,PR1
         0 000014   300000 720100                    LXL0    0,,PR3
         0 000015   000020 600000 0                  TZE     s:3338

PL6.E3A0      #006=TCU$BUILTIN File=TCU$UNLZ.:TCA2TSI                            SUN 11/16/97 14:30 Page:204
      704     3337    1              THEN PARM.REJECT = '1'B;

   3337  0 000016   000200 236003                    LDQ     128,DU
         0 000017   000000 256100                    ORSQ    0,,PR0

      705     3338    1           RETURN;

   3338  0 000020   000000 702200 xent               TSX2  ! X66_ARET

      706     3339    1   TCU$BREAK: ENTRY;

   3339  0 000021   000000 700200 xent  TCU$BREAK    TSX0  ! X66_AUTO_1
         0 000022   000004 000001                    ZERO    4,1

      707     3340    1           UNWIND TO TCU_NEXT;

   3340  0 000023   000000 237200 xsym               LDAQ  ! TCU_NEXT
         0 000024   000000 700200 xent               TSX0  ! X66_AUNWIND
         0 000025   000000 000200                    ZERO    0,128
      708     3341    1   END TCU$BUILTIN;
      709     3342        %EOD;

PL6.E3A0      #006=TCU$BUILTIN File=TCU$UNLZ.:TCA2TSI                            SUN 11/16/97 14:30 Page:205
--  Include file information  --

   XU_SUBS_C.:LIBRARY  is referenced.
   XU_MACRO_C.:LIBRARY  is referenced.
   B$JIT_C.:E05TOU  was found in the system file and is never referenced.
   CP_6_C.:E05TOU  was found in the system file and is never referenced.
      No diagnostics issued in procedure TCU$BUILTIN.
PL6.E3A0      #006=TCU$BUILTIN File=TCU$UNLZ.:TCA2TSI                            SUN 11/16/97 14:30 Page:206

 **** Variables and constants ****

  ****  Auto variables  ****

  ****  Scalars and arrays  ****
OctLoc.c.b A Datatyp(siz) R M Lvl/name                 OctLoc.c.b A Datatyp(siz) R M Lvl/name

     3-0-0/w PTR         r     1 @PARM                     *0-0-0/w STRC(270)   r     1 PARM

  ****  SYMREF variables  ****

  ****  Scalars and arrays  ****
OctLoc.c.b A Datatyp(siz) R M Lvl/name                 OctLoc.c.b A Datatyp(siz) R M Lvl/name

     0-0-0/d REMB        r     1 TCU_NEXT

  ****  BASED and DCB variables  ****

  ****  Scalars and arrays  ****
OctLoc.c.b A Datatyp(siz) R M Lvl/name                 OctLoc.c.b A Datatyp(siz) R M Lvl/name

     0-0-0/w STRC(144)   r     1 OUT$BLK


   Procedure TCU$BUILTIN requires 22 words for executable code.
   Procedure TCU$BUILTIN requires 4 words of local(AUTO) storage.
PL6.E3A0      #006=TCU$BUILTIN File=TCU$UNLZ.:TCA2TSI                            SUN 11/16/97 14:30 Page:207
          *** CROSS REFERENCE LISTING ***
**     DENOTES     IDENTIFIER DEFINITION
<<                 IDENTIFIER'S VALUE SET
>>                 IDENTIFIER'S VALUE USED
<>                 IDENTIFIER SET AND/OR USED
--                 IDENTIFIER REFERENCED
PL6.E3A0      #006=TCU$BUILTIN File=TCU$UNLZ.:TCA2TSI                            SUN 11/16/97 14:30 Page:208
          MINI XREF LISTING

OUT$BLK.CODE
      3302**DCL      3336>>IF
OUT$BLK.SUBLK$
      3327**DCL      3336>>IF
PARM
      3226**DCL         6--PROC
PARM.OUT$
      3256**DCL      3294--IMP-PTR  3336>>IF       3336>>IF
PARM.REJECT
      3238**DCL      3337<<ASSIGN
PARM.TYPE
      3227**DCL      3335>>IF
TCU_NEXT
      3333**DCL      3340>>UNWIND
PL6.E3A0      #006=TCU$BUILTIN File=TCU$UNLZ.:TCA2TSI                            SUN 11/16/97 14:30 Page:209
              *** CROSS REFERENCE LISTING ***
    **     DENOTES     IDENTIFIER DEFINITION
    <<                 IDENTIFIER'S VALUE SET
    >>                 IDENTIFIER'S VALUE USED
    <>                 IDENTIFIER SET AND/OR USED
    --                 IDENTIFIER REFERENCED
PL6.E3A0      #006=TCU$BUILTIN File=TCU$UNLZ.:TCA2TSI                            SUN 11/16/97 14:30 Page:210
              MINI UREF LISTING

TCU$BREAK    3339**ENTRY
TCU$BUILTIN       6**PROC

PL6.E3A0      #007=TCU$GETMEM File=TCU$UNLZ.:TCA2TSI                             SUN 11/16/97 14:31 Page:211
      710        1        /*T***********************************************************/
      711        2        /*T*                                                         */
      712        3        /*T* Copyright (c) Bull HN Information Systems Inc., 1997    */
      713        4        /*T*                                                         */
      714        5        /*T***********************************************************/
      715        6        TCU$GETMEM: PROC (LOC, BUF, SIZE) ALTRET;
      716        7    1   DCL LOC UBIN;
      717        8    1   DCL 1 BUF,2 * CHAR(SIZE);
      718        9    1   DCL 1 BBUF BASED,2 * CHAR(S);
      719       10    1   DCL SIZE UBIN;
      720       11
      721       12        %INCLUDE CP_6;
      722       93        %INCLUDE XU_FORMAT_C;
      723      255        %F_FDS (NAME=FDS, STCLASS=SYMREF);
      724      368    1   DCL M$DUMPFILE DCB;
      725      369        %FPT_READ (DCB=M$DUMPFILE, KEY=LASTPAGE#, BUF=BUF1, KEYR=YES);
      726      408        %FPT_PRECORD (DCB=M$DUMPFILE);
      727      429    1   DCL BUF1 CHAR(1024) STATIC;
      728      430    1   DCL BUF2 CHAR(1024) STATIC;
      729      431    1   DCL PAGE# SBIN STATIC;
      730      432    1   DCL LASTPAGE# SBIN STATIC;
      731      433    1   DCL NXTBUF SBIN STATIC SYMDEF INIT(-1);
      732      434    1   DCL BPTR$(0:1) PTR CONSTANT INIT(ADDR(BUF1),ADDR(BUF2));
      733      435    1   DCL INPAGE(0:1) SBIN STATIC;
      734      436    1   DCL 1 SECTS STATIC,
      735      437    1         2 VA(0:3) SBIN                    /* Start byte address */
      736      438    1    INIT(0,%BITBIN('130000'X),0*0),
      737      439    1         2 VE(0:3) SBIN                    /* Ending byte address */
      738      440    1    INIT(4096,%BITBIN('140000'X),0*0),
      739      441    1         2 OF(0:3) SBIN                    /* File offset (add to VA) */
      740      442    1    INIT(0,%(4096-BITBIN('130000'X)),0*0);
      741      443
      742      444    1   DCL L UBIN;
      743      445    1   DCL I SBIN;
      744      446    1   DCL IU REDEF I UBIN;
      745      447    1   DCL S SBIN;
      746      448    1   DCL SU REDEF S UBIN;
PL6.E3A0      #007=TCU$GETMEM File=TCU$UNLZ.:TCA2TSI                             SUN 11/16/97 14:31 Page:212
      747      449
      748      450    2           IF NXTBUF<0 THEN DO;            /* New file, initialize pointers. */
      749      451    2              NXTBUF=0;
      750      452    2              LASTPAGE#=0;
      751      453    2              INPAGE(0)=-1;
      752      454    2              INPAGE(1)=-1;
      753      455    2              SECTS.VE(0)=%BITBIN('80000000'X);
      754      456    2              L=796;                       /* Try XPS format */
      755      457    3              DO WHILE '1'B;
      756      458    4                 CALL TCU$GETMEM (L,I,4) WHENALTRETURN DO; /* Get a word */
      757      459    4                    NXTBUF=-1;
      758      460    4                    ALTRETURN;
      759      461    4                    END;
      760      462    3                 IF I>0 OR L=344 THEN EXIT;
      761      463    3                 L=344;
      762      464    3                 END;
      763      465    2              IF I=0 THEN EXIT;
      764      466    3              IF L=796 THEN DO;            /* XPS dump */
      765      467    3                 SECTS.VE(0)=4096;
      766      468    3                 SECTS.VA(1)=((IU+15)/16)*65536+%BITBIN('100000'X);
      767      469    3                 SECTS.VE(2)=%BITBIN('1000000'X);
      768      470    3                 END;
      769      471    3              ELSE DO;
      770      472    3                 SECTS.VE(0)=8192;
      771      473    3                 SECTS.VA(1)=%BITBIN('2012C0'X)-MOD(IU,8192);
      772      474                      /* there'a a 2012c0 at .612 in the Bos 2.0.69 dumps, which
      773      475                      might make it easier to get this right if they change the
      774      476                      offset again in a future release, but maybe that'll move too. */
      775      477    3                 SECTS.VE(2)=%BITBIN('80000000'X);
      776      478    3                 END;
      777      479    2              L=L+4;
      778      480    2              CALL TCU$GETMEM (L,I,8);     /* Two words - in I and S */
      779      481    3              IF L~=800 THEN DO;
      780      482    3                 IU=IU/8192;               /* 4096, but there's a slack bit */
      781      483    3                 IF IU>15 THEN IU=(MOD(IU,16)+IU)/2;
      782      484    3                 SU=SU/8192;               /* 4096, but there's a slack bit */
      783      485    3                 IF SU>15 THEN SU=(MOD(SU,16)+SU)/2;
PL6.E3A0      #007=TCU$GETMEM File=TCU$UNLZ.:TCA2TSI                             SUN 11/16/97 14:31 Page:213
      784      486    3                 END;
      785      487    2              SECTS.VE(1)=SECTS.VA(1)+IU*4096;
      786      488    2              SECTS.VA(2)=SECTS.VE(2)-SU*4096;
      787      489    2              SECTS.OF(1)=SECTS.VE(0)-SECTS.VA(1);
      788      490    2              SECTS.OF(2)=SECTS.OF(1)+SECTS.VE(1)-SECTS.VA(2);
      789      491    2              FDS.USERDAT3#=SECTS.VE(0)-84;
      790      492    2              END;
      791      493
      792      494    2           DO I=0 TO SIZEW(SECTS.VA);
      793      495    3              IF LOC>=SECTS.VA(I) AND LOC<SECTS.VE(I) THEN DO;
      794      496    3                 S=MINIMUM (SIZE,SECTS.VE(I)-LOC);
      795      497    3                 L=LOC+SECTS.OF(I);
      796      498    3                 PAGE#=L/1024+1;           /* relative file keys start at 1 */
      797      499    3                 L=MOD(L,1024);
      798      500    4                 IF L+S>1024 THEN DO;
      799      501    4                    FPT_READ.BUF_.BUF$=BPTR$(1);
      800      502    4                    PAGE#=PAGE#+1;
      801      503    5                    IF PAGE#~=INPAGE(1) THEN DO;
      802      504    5                       INPAGE(1)=PAGE#;
      803      505    5                       FPT_PRECORD.V.N#=PAGE#-LASTPAGE#-1;
      804      506    5                       CALL M$PRECORD (FPT_PRECORD) ALTRET(MONALT);
      805      507    5                       CALL M$READ (FPT_READ) ALTRET(MONALT);
      806      508    5                       END;
      807      509    4                    PAGE#=PAGE#-1;
      808      510    4                    I=0;
      809      511    4                    END;
      810      512    3                 ELSE IF PAGE#=INPAGE(0) THEN I=0;
      811      513    3                    ELSE IF PAGE#=INPAGE(1) THEN I=1;
      812      514    4                       ELSE DO;
      813      515    4                          I=NXTBUF;
      814      516    4                          NXTBUF=1-NXTBUF;
      815      517    4                          END;
      816      518    3                 FPT_READ.BUF_.BUF$=BPTR$(I);
      817      519    4                 IF PAGE#~=INPAGE(I) THEN DO;
      818      520    4                    FPT_PRECORD.V.N#=PAGE#-LASTPAGE#-1;
      819      521    4                    CALL M$PRECORD (FPT_PRECORD) ALTRET(MONALT);
      820      522    4                    CALL M$READ (FPT_READ) ALTRET(MONALT);
PL6.E3A0      #007=TCU$GETMEM File=TCU$UNLZ.:TCA2TSI                             SUN 11/16/97 14:31 Page:214
      821      523    4                    END;
      822      524    3                 INPAGE(I)=PAGE#;
      823      525    3                 BUF=PINCRC(FPT_READ.BUF_.BUF$,L)->BBUF;
      824      526    3                 RETURN;
      825      527    3                 END;
      826      528    2              END;
      827      529    1   MONALT: ;
      828      530    1           ALTRETURN;
      829      531    1   END TCU$GETMEM;

PL6.E3A0      #007=TCU$GETMEM File=TCU$UNLZ.:TCA2TSI                             SUN 11/16/97 14:31 Page:215
--  Include file information  --

   XU_FORMAT_C.:LIBRARY  is referenced.
   CP_6.:LIBRARY  cannot be made into a system file and is referenced.
   B$JIT_C.:E05TOU  was found in the system file and is never referenced.
   CP_6_C.:E05TOU  was found in the system file and is referenced.
      No diagnostics issued in procedure TCU$GETMEM.

   Procedure TCU$GETMEM requires 217 words for executable code.
   Procedure TCU$GETMEM requires 14 words of local(AUTO) storage.

    No errors detected in file TCU$UNLZ.:TCA2TSI    .

PL6.E3A0      #007=TCU$GETMEM File=TCU$UNLZ.:TCA2TSI                             SUN 11/16/97 14:31 Page:216

 Object Unit name= TCU$GETMEM                                 File name= TCU$UNLZ.:TCA2TOU
 UTS= NOV 16 '97 14:31:13.36 SUN                              Compiler= PL-6/E31         Sev=      00
 SharedLib= :SHARED_SYSTEM                                    Alt SharedLib=


    ****  Control sections  ****

 Sect   Type Bound  Init  Size OctSiz  Section name(segment info)
    0   DCB   even  none     0      0  M$UC
    1   DCB   even  none     0      0  M$DUMPFILE
    2   Data  even  none   553   1051  TCU$GETMEM
    3  RoData even  UTS      2      2  TCU$GETMEM
    4   Proc  even  none   217    331  TCU$GETMEM
    5  RoData even  none     3      3  TCU$GETMEM

    ****  Entry defs  ****

                              Check   Calling
                             calling  sequence
  Sect OctLoc Primary Altret sequence   type   Parms  Name
     4      0   yes    yes     yes      Std        3  TCU$GETMEM

  ****  Data defs  ****

 Sect OctLoc  Name                           Sect OctLoc  Name
    2   1032  NXTBUF

  ****  Entry refs  ****

         Check        Calling
        calling       sequence
Altret sequence SRef   type   Args  Name
                       nStd      0 X66_AUTO_3
                       Std       0 B_CONSPOOL_D
                       nStd      0 X66_AALT
                       nStd      0 X66_ARET
PL6.E3A0      #007=TCU$GETMEM File=TCU$UNLZ.:TCA2TSI                             SUN 11/16/97 14:31 Page:217

  ****  Data refs  ****

  Flags:  r = read only, s = secondary
Flgs Name                             Flgs Name                             Flgs Name
     M$UC                                  FDS                                   M$DUMPFILE
     B_VECTNIL

  ****  Segment refs  ****

  Flags:  r = read only, s = secondary
Flgs Name                             Flgs Name                             Flgs Name
     ISSID                                 NULLSID
PL6.E3A0      #007=TCU$GETMEM File=TCU$UNLZ.:TCA2TSI                             SUN 11/16/97 14:31 Page:218


      710        1        /*T***********************************************************/
      711        2        /*T*                                                         */
      712        3        /*T* Copyright (c) Bull HN Information Systems Inc., 1997    */
      713        4        /*T*                                                         */
      714        5        /*T***********************************************************/
      715        6        TCU$GETMEM: PROC (LOC, BUF, SIZE) ALTRET;

      6  4 000000   000000 700200 xent  TCU$GETMEM   TSX0  ! X66_AUTO_3
         4 000001   000016 000003                    ZERO    14,3

      716        7    1   DCL LOC UBIN;
      717        8    1   DCL 1 BUF,2 * CHAR(SIZE);
      718        9    1   DCL 1 BBUF BASED,2 * CHAR(S);
      719       10    1   DCL SIZE UBIN;
      720       11
      721       12        %INCLUDE CP_6;
      722       93        %INCLUDE XU_FORMAT_C;
      723      255        %F_FDS (NAME=FDS, STCLASS=SYMREF);
      724      368    1   DCL M$DUMPFILE DCB;
      725      369        %FPT_READ (DCB=M$DUMPFILE, KEY=LASTPAGE#, BUF=BUF1, KEYR=YES);
      726      408        %FPT_PRECORD (DCB=M$DUMPFILE);
      727      429    1   DCL BUF1 CHAR(1024) STATIC;
      728      430    1   DCL BUF2 CHAR(1024) STATIC;
      729      431    1   DCL PAGE# SBIN STATIC;
      730      432    1   DCL LASTPAGE# SBIN STATIC;
      731      433    1   DCL NXTBUF SBIN STATIC SYMDEF INIT(-1);
      732      434    1   DCL BPTR$(0:1) PTR CONSTANT INIT(ADDR(BUF1),ADDR(BUF2));
      733      435    1   DCL INPAGE(0:1) SBIN STATIC;
      734      436    1   DCL 1 SECTS STATIC,
      735      437    1         2 VA(0:3) SBIN                    /* Start byte address */
      736      438    1    INIT(0,%BITBIN('130000'X),0*0),
      737      439    1         2 VE(0:3) SBIN                    /* Ending byte address */
      738      440    1    INIT(4096,%BITBIN('140000'X),0*0),
      739      441    1         2 OF(0:3) SBIN                    /* File offset (add to VA) */
      740      442    1    INIT(0,%(4096-BITBIN('130000'X)),0*0);
      741      443
PL6.E3A0      #007=TCU$GETMEM File=TCU$UNLZ.:TCA2TSI                             SUN 11/16/97 14:31 Page:219
      742      444    1   DCL L UBIN;
      743      445    1   DCL I SBIN;
      744      446    1   DCL IU REDEF I UBIN;
      745      447    1   DCL S SBIN;
      746      448    1   DCL SU REDEF S UBIN;
      747      449
      748      450    2           IF NXTBUF<0 THEN DO;            /* New file, initialize pointers. */

    450  4 000002   001032 235000 2                  LDA     NXTBUF
         4 000003   000160 605000 4                  TPL     s:494

      749      451    2              NXTBUF=0;

    451  4 000004   001032 450000 2                  STZ     NXTBUF

      750      452    2              LASTPAGE#=0;

    452  4 000005   001031 450000 2                  STZ     LASTPAGE#

      751      453    2              INPAGE(0)=-1;

    453  4 000006   000001 335007                    LCA     1,DL
         4 000007   001033 755000 2                  STA     INPAGE

      752      454    2              INPAGE(1)=-1;

    454  4 000010   001034 755000 2                  STA     INPAGE+1

      753      455    2              SECTS.VE(0)=%BITBIN('80000000'X);

    455  4 000011   020000 236003                    LDQ     8192,DU
         4 000012   001041 756000 2                  STQ     SECTS+4

      754      456    2              L=796;                       /* Try XPS format */

    456  4 000013   001434 235007                    LDA     796,DL
         4 000014   200006 755100                    STA     L,,AUTO
PL6.E3A0      #007=TCU$GETMEM File=TCU$UNLZ.:TCA2TSI                             SUN 11/16/97 14:31 Page:220

      755      457    3              DO WHILE '1'B;

      756      458    4                 CALL TCU$GETMEM (L,I,4) WHENALTRETURN DO; /* Get a word */

    458  4 000015   000000 236000 5                  LDQ     0
         4 000016   200014 756100                    STQ     S+4,,AUTO
         4 000017   200007 630500                    EPPR0   I,,AUTO
         4 000020   200013 450500                    STP0    S+3,,AUTO
         4 000021   200006 631500                    EPPR1   L,,AUTO
         4 000022   200012 451500                    STP1    S+2,,AUTO
         4 000023   200012 630500                    EPPR0   S+2,,AUTO
         4 000024   000021 631400 xsym               EPPR1   B_VECTNIL+17
         4 000025   000000 701000 4                  TSX1    s:6
         4 000026   000030 702000 4                  TSX2    s:459
         4 000027   000033 710000 4                  TRA     s:462

      757      459    4                    NXTBUF=-1;

    459  4 000030   000001 335007                    LCA     1,DL
         4 000031   001032 755000 2                  STA     NXTBUF

      758      460    4                    ALTRETURN;

    460  4 000032   000000 702200 xent               TSX2  ! X66_AALT

      759      461    4                    END;
      760      462    3                 IF I>0 OR L=344 THEN EXIT;

    462  4 000033   200007 235100                    LDA     I,,AUTO
         4 000034   000043 605400 4                  TPNZ    s:465
         4 000035   200006 236100                    LDQ     L,,AUTO
         4 000036   000530 116007                    CMPQ    344,DL
         4 000037   000043 600000 4                  TZE     s:465

      761      463    3                 L=344;

PL6.E3A0      #007=TCU$GETMEM File=TCU$UNLZ.:TCA2TSI                             SUN 11/16/97 14:31 Page:221
    463  4 000040   000530 235007                    LDA     344,DL
         4 000041   200006 755100                    STA     L,,AUTO

      762      464    3                 END;

    464  4 000042   000015 710000 4                  TRA     s:458

      763      465    2              IF I=0 THEN EXIT;

    465  4 000043   000000 115003                    CMPA    0,DU
         4 000044   000160 600000 4                  TZE     s:494

      764      466    3              IF L=796 THEN DO;            /* XPS dump */

    466  4 000045   200006 236100                    LDQ     L,,AUTO
         4 000046   001434 116007                    CMPQ    796,DL
         4 000047   000063 601000 4                  TNZ     s:472

      765      467    3                 SECTS.VE(0)=4096;

    467  4 000050   010000 235007                    LDA     4096,DL
         4 000051   001041 755000 2                  STA     SECTS+4

      766      468    3                 SECTS.VA(1)=((IU+15)/16)*65536+%BITBIN('100000'X);

    468  4 000052   200007 236100                    LDQ     I,,AUTO
         4 000053   000017 036007                    ADLQ    15,DL
         4 000054   000004 772000                    QRL     4
         4 000055   000020 736000                    QLS     16
         4 000056   000004 036003                    ADLQ    4,DU
         4 000057   001036 756000 2                  STQ     SECTS+1

      767      469    3                 SECTS.VE(2)=%BITBIN('1000000'X);

    469  4 000060   000100 235003                    LDA     64,DU
         4 000061   001043 755000 2                  STA     SECTS+6

PL6.E3A0      #007=TCU$GETMEM File=TCU$UNLZ.:TCA2TSI                             SUN 11/16/97 14:31 Page:222
      768      470    3                 END;

    470  4 000062   000074 710000 4                  TRA     s:479

      769      471    3              ELSE DO;

      770      472    3                 SECTS.VE(0)=8192;

    472  4 000063   020000 235007                    LDA     8192,DL
         4 000064   001041 755000 2                  STA     SECTS+4

      771      473    3                 SECTS.VA(1)=%BITBIN('2012C0'X)-MOD(IU,8192);

    473  4 000065   200007 236100                    LDQ     I,,AUTO
         4 000066   017777 376007                    ANQ     8191,DL
         4 000067   000027 676000 xsym               ERQ     B_VECTNIL+23
         4 000070   000001 036000 5                  ADLQ    1
         4 000071   001036 756000 2                  STQ     SECTS+1

      772      474                      /* there'a a 2012c0 at .612 in the Bos 2.0.69 dumps, which
      773      475                      might make it easier to get this right if they change the
      774      476                      offset again in a future release, but maybe that'll move too. */
      775      477    3                 SECTS.VE(2)=%BITBIN('80000000'X);

    477  4 000072   020000 235003                    LDA     8192,DU
         4 000073   001043 755000 2                  STA     SECTS+6

      776      478    3                 END;

      777      479    2              L=L+4;

    479  4 000074   200006 235100                    LDA     L,,AUTO
         4 000075   000004 035007                    ADLA    4,DL
         4 000076   200006 755100                    STA     L,,AUTO

      778      480    2              CALL TCU$GETMEM (L,I,8);     /* Two words - in I and S */

PL6.E3A0      #007=TCU$GETMEM File=TCU$UNLZ.:TCA2TSI                             SUN 11/16/97 14:31 Page:223
    480  4 000077   000002 236000 5                  LDQ     2
         4 000100   200014 756100                    STQ     S+4,,AUTO
         4 000101   200007 630500                    EPPR0   I,,AUTO
         4 000102   200013 450500                    STP0    S+3,,AUTO
         4 000103   200006 631500                    EPPR1   L,,AUTO
         4 000104   200012 451500                    STP1    S+2,,AUTO
         4 000105   200012 630500                    EPPR0   S+2,,AUTO
         4 000106   000021 631400 xsym               EPPR1   B_VECTNIL+17
         4 000107   000000 701000 4                  TSX1    s:6
         4 000110   000000 011000                    NOP     0

      779      481    3              IF L~=800 THEN DO;

    481  4 000111   200006 235100                    LDA     L,,AUTO
         4 000112   001440 115007                    CMPA    800,DL
         4 000113   000136 600000 4                  TZE     s:487

      780      482    3                 IU=IU/8192;               /* 4096, but there's a slack bit */

    482  4 000114   200007 236100                    LDQ     I,,AUTO
         4 000115   000015 772000                    QRL     13
         4 000116   200007 756100                    STQ     I,,AUTO

      781      483    3                 IF IU>15 THEN IU=(MOD(IU,16)+IU)/2;

    483  4 000117   000020 116007                    CMPQ    16,DL
         4 000120   000125 602000 4                  TNC     s:484

    483  4 000121   000017 376007                    ANQ     15,DL
         4 000122   200007 036100                    ADLQ    I,,AUTO
         4 000123   000001 772000                    QRL     1
         4 000124   200007 756100                    STQ     I,,AUTO

      782      484    3                 SU=SU/8192;               /* 4096, but there's a slack bit */

    484  4 000125   200010 236100                    LDQ     S,,AUTO
         4 000126   000015 772000                    QRL     13
PL6.E3A0      #007=TCU$GETMEM File=TCU$UNLZ.:TCA2TSI                             SUN 11/16/97 14:31 Page:224
         4 000127   200010 756100                    STQ     S,,AUTO

      783      485    3                 IF SU>15 THEN SU=(MOD(SU,16)+SU)/2;

    485  4 000130   000020 116007                    CMPQ    16,DL
         4 000131   000136 602000 4                  TNC     s:487

    485  4 000132   000017 376007                    ANQ     15,DL
         4 000133   200010 036100                    ADLQ    S,,AUTO
         4 000134   000001 772000                    QRL     1
         4 000135   200010 756100                    STQ     S,,AUTO

      784      486    3                 END;

      785      487    2              SECTS.VE(1)=SECTS.VA(1)+IU*4096;

    487  4 000136   200007 236100                    LDQ     I,,AUTO
         4 000137   000014 736000                    QLS     12
         4 000140   001036 036000 2                  ADLQ    SECTS+1
         4 000141   001042 756000 2                  STQ     SECTS+5

      786      488    2              SECTS.VA(2)=SECTS.VE(2)-SU*4096;

    488  4 000142   000000 236003                    LDQ     0,DU
         4 000143   200010 136100                    SBLQ    S,,AUTO
         4 000144   000014 736000                    QLS     12
         4 000145   001043 036000 2                  ADLQ    SECTS+6
         4 000146   001037 756000 2                  STQ     SECTS+2

      787      489    2              SECTS.OF(1)=SECTS.VE(0)-SECTS.VA(1);

    489  4 000147   001041 236000 2                  LDQ     SECTS+4
         4 000150   001036 136000 2                  SBLQ    SECTS+1
         4 000151   001046 756000 2                  STQ     SECTS+9

      788      490    2              SECTS.OF(2)=SECTS.OF(1)+SECTS.VE(1)-SECTS.VA(2);

PL6.E3A0      #007=TCU$GETMEM File=TCU$UNLZ.:TCA2TSI                             SUN 11/16/97 14:31 Page:225
    490  4 000152   001042 036000 2                  ADLQ    SECTS+5
         4 000153   001037 136000 2                  SBLQ    SECTS+2
         4 000154   001047 756000 2                  STQ     SECTS+10

      789      491    2              FDS.USERDAT3#=SECTS.VE(0)-84;

    491  4 000155   001041 235000 2                  LDA     SECTS+4
         4 000156   000124 135007                    SBLA    84,DL
         4 000157   000035 755000 xsym               STA     FDS+29

      790      492    2              END;

      791      493
      792      494    2           DO I=0 TO SIZEW(SECTS.VA);

    494  4 000160   200007 450100                    STZ     I,,AUTO
         4 000161   000325 710000 4                  TRA     s:528+1

      793      495    3              IF LOC>=SECTS.VA(I) AND LOC<SECTS.VE(I) THEN DO;

    495  4 000162   200003 470500                    LDP0    @LOC,,AUTO
         4 000163   200007 720100                    LXL0    I,,AUTO
         4 000164   000000 236100                    LDQ     0,,PR0
         4 000165   000170 604000 4                  TMI     s:495+6
         4 000166   001035 116010 2                  CMPQ    SECTS,X0
         4 000167   000324 604000 4                  TMI     s:528
         4 000170   000000 116003                    CMPQ    0,DU
         4 000171   000324 604000 4                  TMI     s:528
         4 000172   001041 116010 2                  CMPQ    SECTS+4,X0
         4 000173   000324 605000 4                  TPL     s:528

      794      496    3                 S=MINIMUM (SIZE,SECTS.VE(I)-LOC);

    496  4 000174   001041 236010 2                  LDQ     SECTS+4,X0
         4 000175   000000 136100                    SBLQ    0,,PR0
         4 000176   200005 471500                    LDP1    @SIZE,,AUTO
         4 000177   000204 604000 4                  TMI     s:496+8
PL6.E3A0      #007=TCU$GETMEM File=TCU$UNLZ.:TCA2TSI                             SUN 11/16/97 14:31 Page:226
         4 000200   100000 116100                    CMPQ    0,,PR1
         4 000201   000204 602000 4                  TNC     s:496+8
         4 000202   000204 600000 4                  TZE     s:496+8
         4 000203   100000 236100                    LDQ     0,,PR1
         4 000204   200010 756100                    STQ     S,,AUTO

      795      497    3                 L=LOC+SECTS.OF(I);

    497  4 000205   000000 236100                    LDQ     0,,PR0
         4 000206   001045 036010 2                  ADLQ    SECTS+8,X0
         4 000207   200006 756100                    STQ     L,,AUTO

      796      498    3                 PAGE#=L/1024+1;           /* relative file keys start at 1 */

    498  4 000210   000012 772000                    QRL     10
         4 000211   000001 036007                    ADLQ    1,DL
         4 000212   001030 756000 2                  STQ     PAGE#

      797      499    3                 L=MOD(L,1024);

    499  4 000213   200006 236100                    LDQ     L,,AUTO
         4 000214   001777 376007                    ANQ     1023,DL
         4 000215   200006 756100                    STQ     L,,AUTO

      798      500    4                 IF L+S>1024 THEN DO;

    500  4 000216   200010 036100                    ADLQ    S,,AUTO
         4 000217   002000 116007                    CMPQ    1024,DL
         4 000220   000247 604400 4                  TMOZ    s:512

      799      501    4                    FPT_READ.BUF_.BUF$=BPTR$(1);

    501  4 000221   000001 236000 3                  LDQ     BPTR$+1
         4 000222   000005 756000 2                  STQ     FPT_READ+5

      800      502    4                    PAGE#=PAGE#+1;

PL6.E3A0      #007=TCU$GETMEM File=TCU$UNLZ.:TCA2TSI                             SUN 11/16/97 14:31 Page:227
    502  4 000223   001030 054000 2                  AOS     PAGE#

      801      503    5                    IF PAGE#~=INPAGE(1) THEN DO;

    503  4 000224   001030 236000 2                  LDQ     PAGE#
         4 000225   001034 116000 2                  CMPQ    INPAGE+1
         4 000226   000243 600000 4                  TZE     s:509

      802      504    5                       INPAGE(1)=PAGE#;

    504  4 000227   001034 756000 2                  STQ     INPAGE+1

      803      505    5                       FPT_PRECORD.V.N#=PAGE#-LASTPAGE#-1;

    505  4 000230   001031 136000 2                  SBLQ    LASTPAGE#
         4 000231   000001 136007                    SBLQ    1,DL
         4 000232   000025 756000 2                  STQ     FPT_PRECORD+7

      804      506    5                       CALL M$PRECORD (FPT_PRECORD) ALTRET(MONALT);

    506  4 000233   000016 630400 2                  EPPR0   FPT_PRECORD
         4 000234   440003 713400                    CLIMB   alt,+16387
         4 000235   401000 401760                    pmme    nvectors=3
         4 000236   000330 702000 4                  TSX2    MONALT

      805      507    5                       CALL M$READ (FPT_READ) ALTRET(MONALT);

    507  4 000237   000000 630400 2                  EPPR0   FPT_READ
         4 000240   440000 713400                    CLIMB   alt,read
         4 000241   401400 401760                    pmme    nvectors=4
         4 000242   000330 702000 4                  TSX2    MONALT

      806      508    5                       END;

      807      509    4                    PAGE#=PAGE#-1;

    509  4 000243   000001 336007                    LCQ     1,DL
PL6.E3A0      #007=TCU$GETMEM File=TCU$UNLZ.:TCA2TSI                             SUN 11/16/97 14:31 Page:228
         4 000244   001030 056000 2                  ASQ     PAGE#

      808      510    4                    I=0;

    510  4 000245   200007 450100                    STZ     I,,AUTO

      809      511    4                    END;

    511  4 000246   000266 710000 4                  TRA     s:518

      810      512    3                 ELSE IF PAGE#=INPAGE(0) THEN I=0;

    512  4 000247   001030 236000 2                  LDQ     PAGE#
         4 000250   001033 116000 2                  CMPQ    INPAGE
         4 000251   000254 601000 4                  TNZ     s:513

    512  4 000252   200007 450100                    STZ     I,,AUTO
         4 000253   000266 710000 4                  TRA     s:518

      811      513    3                    ELSE IF PAGE#=INPAGE(1) THEN I=1;

    513  4 000254   001034 116000 2                  CMPQ    INPAGE+1
         4 000255   000261 601000 4                  TNZ     s:515

    513  4 000256   000001 235007                    LDA     1,DL
         4 000257   200007 755100                    STA     I,,AUTO
         4 000260   000266 710000 4                  TRA     s:518

      812      514    4                       ELSE DO;

      813      515    4                          I=NXTBUF;

    515  4 000261   001032 235000 2                  LDA     NXTBUF
         4 000262   200007 755100                    STA     I,,AUTO

      814      516    4                          NXTBUF=1-NXTBUF;

PL6.E3A0      #007=TCU$GETMEM File=TCU$UNLZ.:TCA2TSI                             SUN 11/16/97 14:31 Page:229
    516  4 000263   000027 675000 xsym               ERA     B_VECTNIL+23
         4 000264   000002 035007                    ADLA    2,DL
         4 000265   001032 755000 2                  STA     NXTBUF

      815      517    4                          END;

      816      518    3                 FPT_READ.BUF_.BUF$=BPTR$(I);

    518  4 000266   200007 720100                    LXL0    I,,AUTO
         4 000267   000000 236010 3                  LDQ     BPTR$,X0
         4 000270   000005 756000 2                  STQ     FPT_READ+5

      817      519    4                 IF PAGE#~=INPAGE(I) THEN DO;

    519  4 000271   001030 236000 2                  LDQ     PAGE#
         4 000272   001033 116010 2                  CMPQ    INPAGE,X0
         4 000273   000307 600000 4                  TZE     s:524

      818      520    4                    FPT_PRECORD.V.N#=PAGE#-LASTPAGE#-1;

    520  4 000274   001031 136000 2                  SBLQ    LASTPAGE#
         4 000275   000001 136007                    SBLQ    1,DL
         4 000276   000025 756000 2                  STQ     FPT_PRECORD+7

      819      521    4                    CALL M$PRECORD (FPT_PRECORD) ALTRET(MONALT);

    521  4 000277   000016 630400 2                  EPPR0   FPT_PRECORD
         4 000300   440003 713400                    CLIMB   alt,+16387
         4 000301   401000 401760                    pmme    nvectors=3
         4 000302   000330 702000 4                  TSX2    MONALT

      820      522    4                    CALL M$READ (FPT_READ) ALTRET(MONALT);

    522  4 000303   000000 630400 2                  EPPR0   FPT_READ
         4 000304   440000 713400                    CLIMB   alt,read
         4 000305   401400 401760                    pmme    nvectors=4
         4 000306   000330 702000 4                  TSX2    MONALT
PL6.E3A0      #007=TCU$GETMEM File=TCU$UNLZ.:TCA2TSI                             SUN 11/16/97 14:31 Page:230

      821      523    4                    END;

      822      524    3                 INPAGE(I)=PAGE#;

    524  4 000307   200007 720100                    LXL0    I,,AUTO
         4 000310   001030 235000 2                  LDA     PAGE#
         4 000311   001033 755010 2                  STA     INPAGE,X0

      823      525    3                 BUF=PINCRC(FPT_READ.BUF_.BUF$,L)->BBUF;

    525  4 000312   200005 470500                    LDP0    @SIZE,,AUTO
         4 000313   000000 721100                    LXL1    0,,PR0
         4 000314   000005 471400 2                  LDP1    FPT_READ+5
         4 000315   200010 722100                    LXL2    S,,AUTO
         4 000316   200006 236100                    LDQ     L,,AUTO
         4 000317   200004 473500                    LDP3    @BUF,,AUTO
         4 000320   000140 100546                    MLR     fill='000'O
         4 000321   100000 000012                    ADSC9   0,Q,PR1                  cn=0,n=*X2
         4 000322   300000 000011                    ADSC9   0,,PR3                   cn=0,n=*X1

      824      526    3                 RETURN;

    526  4 000323   000000 702200 xent               TSX2  ! X66_ARET

      825      527    3                 END;
      826      528    2              END;

    528  4 000324   200007 054100                    AOS     I,,AUTO
         4 000325   200007 235100                    LDA     I,,AUTO
         4 000326   000004 115007                    CMPA    4,DL
         4 000327   000162 604400 4                  TMOZ    s:495

    522  4 000330                       MONALT       null
      827      529    1   MONALT: ;
      828      530    1           ALTRETURN;

PL6.E3A0      #007=TCU$GETMEM File=TCU$UNLZ.:TCA2TSI                             SUN 11/16/97 14:31 Page:231
    530  4 000330   000000 702200 xent               TSX2  ! X66_AALT

FPT_READ
 Sect OctLoc
   2     000   000005 777640   000010 006000   000000 777640   001031 006000    ................
   2     004   000377 777640   000030 006000   000000 177640   000000 006014    ................
   2     010   000000 500000   000000 000000   000000 000000   000000 000000    ................
   2     014   000000 000000   000000 000000                                    ........

FPT_PRECORD
 Sect OctLoc
   2     016   000003 777640   000024 006000   000000 177640   000000 006014    ................
   2     022   000000 177640   000000 006014   000000 000000   000000 000000    ................
   2     026   000000 000000   0***** ******                                    ........

BUF1
 Sect OctLoc
   2     030   ****** ******   ****** ******   ****** ******   ****** ******    ................

BUF2
 Sect OctLoc
   2     430   ****** ******   ****** ******   ****** ******   ****** ******    ................

NXTBUF
 Sect OctLoc
   2    1032   777777 777777                                                    ....

SECTS
 Sect OctLoc
   2    1035   000000 000000   000004 600000   000000 000000   000000 000000    ................
   2    1041   000000 010000   000005 000000   000000 000000   000000 000000    ................
   2    1045   000000 000000   777773 210000   000000 000000   000000 000000    ................

BPTR$
 Sect OctLoc
   3     000   000030 006000   000430 006000                                    ........

PL6.E3A0      #007=TCU$GETMEM File=TCU$UNLZ.:TCA2TSI                             SUN 11/16/97 14:31 Page:232
(unnamed)
 Sect OctLoc
   5     000   000006 006000   000010 011301   000012 006000                    ............
      829      531    1   END TCU$GETMEM;

PL6.E3A0      #007=TCU$GETMEM File=TCU$UNLZ.:TCA2TSI                             SUN 11/16/97 14:31 Page:233
--  Include file information  --

   XU_FORMAT_C.:LIBRARY  is referenced.
   CP_6.:LIBRARY  cannot be made into a system file and is referenced.
   B$JIT_C.:E05TOU  was found in the system file and is never referenced.
   CP_6_C.:E05TOU  was found in the system file and is referenced.
      No diagnostics issued in procedure TCU$GETMEM.
PL6.E3A0      #007=TCU$GETMEM File=TCU$UNLZ.:TCA2TSI                             SUN 11/16/97 14:31 Page:234

 **** Variables and constants ****

  ****  Section 002  Data  TCU$GETMEM

  ****  Scalars and arrays  ****
OctLoc.c.b A Datatyp(siz) R M Lvl/name                 OctLoc.c.b A Datatyp(siz) R M Lvl/name

    30-0-0/c CHAR(1024)  r     1 BUF1                     430-0-0/c CHAR(1024)  r     1 BUF2
    16-0-0/d STRC(360)   r     1 FPT_PRECORD                0-0-0/d STRC(504)   r     1 FPT_READ
  1033-0-0/w SBIN        r     1 INPAGE(0:1)             1031-0-0/w SBIN        r     1 LASTPAGE#
  1032-0-0/w SBIN        r     1 NXTBUF                  1030-0-0/w SBIN        r     1 PAGE#
  1035-0-0/w STRC(432)   r     1 SECTS

  ****  Section 003 RoData TCU$GETMEM

  ****  Scalars and arrays  ****
OctLoc.c.b A Datatyp(siz) R M Lvl/name                 OctLoc.c.b A Datatyp(siz) R M Lvl/name

     0-0-0/w PTR         r     1 BPTR$(0:1)

  ****  Auto variables  ****

  ****  Scalars and arrays  ****
OctLoc.c.b A Datatyp(siz) R M Lvl/name                 OctLoc.c.b A Datatyp(siz) R M Lvl/name

     4-0-0/w PTR         r     1 @BUF                       3-0-0/w PTR         r     1 @LOC
     5-0-0/w PTR         r     1 @SIZE                     *0-0-0/c ASTR(0)     r     1 BUF
     7-0-0/w SBIN        r     1 I                          7-0-0/w UBIN        r     1 IU
     6-0-0/w UBIN        r     1 L                         *0-0-0/w UBIN        r     1 LOC
    10-0-0/w SBIN        r     1 S                         *0-0-0/w UBIN        r     1 SIZE
    10-0-0/w UBIN        r     1 SU

  ****  SYMREF variables  ****

  ****  Scalars and arrays  ****
OctLoc.c.b A Datatyp(siz) R M Lvl/name                 OctLoc.c.b A Datatyp(siz) R M Lvl/name

PL6.E3A0      #007=TCU$GETMEM File=TCU$UNLZ.:TCA2TSI                             SUN 11/16/97 14:31 Page:235
     0-0-0/w STRC(1080)  r     1 FDS

  ****  BASED and DCB variables  ****

  ****  Scalars and arrays  ****
OctLoc.c.b A Datatyp(siz) R M Lvl/name                 OctLoc.c.b A Datatyp(siz) R M Lvl/name

     0-0-0/c ASTR(0)     r     1 BBUF                       0-0-0N  NULL        r     1 M$DUMPFILE


   Procedure TCU$GETMEM requires 217 words for executable code.
   Procedure TCU$GETMEM requires 14 words of local(AUTO) storage.

    No errors detected in file TCU$UNLZ.:TCA2TSI    .
PL6.E3A0      #007=TCU$GETMEM File=TCU$UNLZ.:TCA2TSI                             SUN 11/16/97 14:31 Page:236
          *** CROSS REFERENCE LISTING ***
**     DENOTES     IDENTIFIER DEFINITION
<<                 IDENTIFIER'S VALUE SET
>>                 IDENTIFIER'S VALUE USED
<>                 IDENTIFIER SET AND/OR USED
--                 IDENTIFIER REFERENCED
PL6.E3A0      #007=TCU$GETMEM File=TCU$UNLZ.:TCA2TSI                             SUN 11/16/97 14:31 Page:237
          MINI XREF LISTING

BBUF
         9**DCL       525>>ASSIGN
BPTR$
       434**DCL       501>>ASSIGN    518>>ASSIGN
BUF
         8**DCL         6--PROC      525<<ASSIGN
BUF1
       429**DCL       388--DCLINIT   389--DCLINIT   434--DCLINIT
BUF2
       430**DCL       434--DCLINIT
FDS.USERDAT3#
       366**DCL       491<<ASSIGN
FPT_PRECORD
       419**DCL       506<>CALL      521<>CALL
FPT_PRECORD.V
       421**DCL       419--DCLINIT
FPT_PRECORD.V.N#
       425**DCL       505<<ASSIGN    520<<ASSIGN
FPT_READ
       386**DCL       507<>CALL      522<>CALL
FPT_READ.BUF_.BUF$
       389**DCL       501<<ASSIGN    518<<ASSIGN    525>>ASSIGN
FPT_READ.STATION_
       389**DCL       390--REDEF
FPT_READ.V
       390**DCL       386--DCLINIT
FPT_READ.V.DVBYTE.REREAD#
       401**DCL       401--REDEF
FPT_READ.V.INDX#
       399**DCL       399--REDEF
I
       445**DCL       446--REDEF     458<>CALL      462>>IF        465>>IF        480<>CALL      494<<DOINDEX
PL6.E3A0      #007=TCU$GETMEM File=TCU$UNLZ.:TCA2TSI                             SUN 11/16/97 14:31 Page:238
       495>>IF        495>>IF        496>>ASSIGN    497>>ASSIGN    510<<ASSIGN    512<<ASSIGN    513<<ASSIGN
       515<<ASSIGN    518>>ASSIGN    519>>IF        524>>ASSIGN
INPAGE
       435**DCL       453<<ASSIGN    454<<ASSIGN    503>>IF        504<<ASSIGN    512>>IF        513>>IF
       519>>IF        524<<ASSIGN
IU
       446**DCL       468>>ASSIGN    473>>ASSIGN    482<<ASSIGN    482>>ASSIGN    483>>IF        483<<ASSIGN
       483>>ASSIGN    483>>ASSIGN    487>>ASSIGN
L
       444**DCL       456<<ASSIGN    458<>CALL      462>>IF        463<<ASSIGN    466>>IF        479<<ASSIGN
       479>>ASSIGN    480<>CALL      481>>IF        497<<ASSIGN    498>>ASSIGN    499<<ASSIGN    499>>ASSIGN
       500>>IF        525>>ASSIGN
LASTPAGE#
       432**DCL       386--DCLINIT   387--DCLINIT   452<<ASSIGN    505>>ASSIGN    520>>ASSIGN
LOC
         7**DCL         6--PROC      495>>IF        495>>IF        496>>ASSIGN    497>>ASSIGN
M$PRECORD
        25**DCL-ENT   506--CALL      521--CALL
M$READ
        22**DCL-ENT   507--CALL      522--CALL
MONALT
       522**LABEL     506--CALLALT   507--CALLALT   521--CALLALT   522--CALLALT
NXTBUF
       433**DCL       450>>IF        451<<ASSIGN    459<<ASSIGN    515>>ASSIGN    516<<ASSIGN    516>>ASSIGN
PAGE#
       431**DCL       498<<ASSIGN    502<<ASSIGN    502>>ASSIGN    503>>IF        504>>ASSIGN    505>>ASSIGN
       509<<ASSIGN    509>>ASSIGN    512>>IF        513>>IF        519>>IF        520>>ASSIGN    524>>ASSIGN
S
       447**DCL         9--IMP-SIZ   448--REDEF     496<<ASSIGN    500>>IF        525>>ASSIGN
SECTS.OF
       441**DCL       489<<ASSIGN    490<<ASSIGN    490>>ASSIGN    497>>ASSIGN
SECTS.VA
       437**DCL       468<<ASSIGN    473<<ASSIGN    487>>ASSIGN    488<<ASSIGN    489>>ASSIGN    490>>ASSIGN
       494--DOINDEX   495>>IF
SECTS.VE
       439**DCL       455<<ASSIGN    467<<ASSIGN    469<<ASSIGN    472<<ASSIGN    477<<ASSIGN    487<<ASSIGN
PL6.E3A0      #007=TCU$GETMEM File=TCU$UNLZ.:TCA2TSI                             SUN 11/16/97 14:31 Page:239
       488>>ASSIGN    489>>ASSIGN    490>>ASSIGN    491>>ASSIGN    495>>IF        496>>ASSIGN
SIZE
        10**DCL         6--PROC        8--IMP-SIZ   496>>ASSIGN    525>>ASSIGN
SU
       448**DCL       484<<ASSIGN    484>>ASSIGN    485>>IF        485<<ASSIGN    485>>ASSIGN    485>>ASSIGN
       488>>ASSIGN
TCU$GETMEM
         6**PROC      458--CALL      480--CALL
PL6.E3A0      #007=TCU$GETMEM File=TCU$UNLZ.:TCA2TSI                             SUN 11/16/97 14:31 Page:240
              *** CROSS REFERENCE LISTING ***
    **     DENOTES     IDENTIFIER DEFINITION
    <<                 IDENTIFIER'S VALUE SET
    >>                 IDENTIFIER'S VALUE USED
    <>                 IDENTIFIER SET AND/OR USED
    --                 IDENTIFIER REFERENCED
PL6.E3A0      #007=TCU$GETMEM File=TCU$UNLZ.:TCA2TSI                             SUN 11/16/97 14:31 Page:241
              MINI UREF LISTING

M$ACCT      38**DCL-ENT
M$ACTIVATE      41**DCL-ENT
M$ALIB      34**DCL-ENT
M$ASUSER      36**DCL-ENT
M$ATTACH      43**DCL-ENT
M$BADPP      61**DCL-ENT
M$CGCTL      42**DCL-ENT
M$CGINFO      42**DCL-ENT
M$CHECK      23**DCL-ENT
M$CHGUNIT      81**DCL-ENT
M$CLOSE      21**DCL-ENT
M$CLRSTK      79**DCL-ENT
M$CMDVAR      90**DCL-ENT
M$CONFIG      51**DCL-ENT
M$CORRES      26**DCL-ENT
M$CPEXIT      35**DCL-ENT
M$CVM      59**DCL-ENT
M$CVOL      24**DCL-ENT
M$DCLFLD      51**DCL-ENT
M$DEACTIVATE      41**DCL-ENT
M$DELREC      23**DCL-ENT
M$DEQ      88**DCL-ENT
M$DETACH      43**DCL-ENT
M$DEVICE      25**DCL-ENT
M$DISPLAY      88**DCL-ENT
M$DISPRES      28**DCL-ENT
M$DLIB      34**DCL-ENT
M$DRIBBLE      51**DCL-ENT
M$DRTN      79**DCL-ENT
M$DSUSER      36**DCL-ENT
M$DUMPFILE     368**DCL
M$ENQ      87**DCL-ENT
PL6.E3A0      #007=TCU$GETMEM File=TCU$UNLZ.:TCA2TSI                             SUN 11/16/97 14:31 Page:242
M$EOM      46**DCL-ENT
M$ERASE      52**DCL-ENT
M$ERR      33**DCL-ENT
M$ERRMSG      84**DCL-ENT
M$EVENT      76**DCL-ENT
M$EXHUME      85**DCL-ENT
M$EXIT      33**DCL-ENT
M$EXTEND      25**DCL-ENT
M$FDP      57**DCL-ENT
M$FDS      56**DCL-ENT
M$FEBOOT      49**DCL-ENT
M$FECTL      50**DCL-ENT
M$FEDUMP      49**DCL-ENT
M$FID      84**DCL-ENT
M$FINDPROC      38**DCL-ENT
M$FSUSER      36**DCL-ENT
M$FVP      58**DCL-ENT
M$FWCG      42**DCL-ENT
M$GBPL      62**DCL-ENT
M$GDDL      58**DCL-ENT
M$GDP      57**DCL-ENT
M$GDS      56**DCL-ENT
M$GETDCB      27**DCL-ENT
M$GETMOUSE      67**DCL-ENT
M$GETPM      68**DCL-ENT
M$GJOB      86**DCL-ENT
M$GLINEATTR      46**DCL-ENT
M$GOODPP      61**DCL-ENT
M$GPLATEN      54**DCL-ENT
M$GPROMPT      53**DCL-ENT
M$GTRMATTR      47**DCL-ENT
M$GTRMCTL      45**DCL-ENT
M$GTRMTAB      48**DCL-ENT
M$GVP      57**DCL-ENT
M$HELP      84**DCL-ENT
M$INT      76**DCL-ENT
PL6.E3A0      #007=TCU$GETMEM File=TCU$UNLZ.:TCA2TSI                             SUN 11/16/97 14:31 Page:243
M$INTRTN      37**DCL-ENT
M$IOQ      72**DCL-ENT
M$JOBSTATS      86**DCL-ENT
M$KEYIN      26**DCL-ENT
M$LDEV      21**DCL-ENT
M$LDTRC      34**DCL-ENT
M$LIMIT      27**DCL-ENT
M$LINES      26**DCL-ENT
M$LINK      33**DCL-ENT
M$MADMUCK      29**DCL-ENT
M$MAKUSER      60**DCL-ENT
M$MBS      28**DCL-ENT
M$MDFFLD      52**DCL-ENT
M$MERC      77**DCL-ENT
M$MERCS      78**DCL-ENT
M$MIRROR      72**DCL-ENT
M$MONINFO      89**DCL-ENT
M$MPL      62**DCL-ENT
M$NODEINFO      53**DCL-ENT
M$NXTUSR      87**DCL-ENT
M$OCMSG      85**DCL-ENT
M$OLAY      33**DCL-ENT
M$OPEN      21**DCL-ENT
M$PAS      62**DCL-ENT
M$PATHCON      85**DCL-ENT
M$PDS      56**DCL-ENT
M$PFIL      23**DCL-ENT
M$PLATEN      47**DCL-ENT
M$PROCNAME      38**DCL-ENT
M$PROFILE      49**DCL-ENT
M$PROMPT      45**DCL-ENT
M$RACST      29**DCL-ENT
M$RDSYSLOG      70**DCL-ENT
M$RELDCB      27**DCL-ENT
M$RELRES      28**DCL-ENT
M$RELSTARF      30**DCL-ENT
PL6.E3A0      #007=TCU$GETMEM File=TCU$UNLZ.:TCA2TSI                             SUN 11/16/97 14:31 Page:244
M$REM      30**DCL-ENT
M$RENV      77**DCL-ENT
M$REQUIRE      29**DCL-ENT
M$RETRY      78**DCL-ENT
M$RETRYS      78**DCL-ENT
M$REW      24**DCL-ENT
M$RLSFLD      52**DCL-ENT
M$RPRIV      80**DCL-ENT
M$RSPP      59**DCL-ENT
M$RSWITCH      81**DCL-ENT
M$RUE      87**DCL-ENT
M$SAD      60**DCL-ENT
M$SAVE      36**DCL-ENT
M$SCON      37**DCL-ENT
M$SCREECH      35**DCL-ENT
M$SENV      77**DCL-ENT
M$SETFMA      21**DCL-ENT
M$SETFP      50**DCL-ENT
M$SINPUT      48**DCL-ENT
M$SLCFLD      53**DCL-ENT
M$SMOUSE      67**DCL-ENT
M$SMPRT      59**DCL-ENT
M$SPRIV      80**DCL-ENT
M$SSC      60**DCL-ENT
M$SSWITCH      80**DCL-ENT
M$STATE      89**DCL-ENT
M$STD      61**DCL-ENT
M$STIMER      75**DCL-ENT
M$STLPP      58**DCL-ENT
M$STRAP      75**DCL-ENT
M$STRMATTR      47**DCL-ENT
M$STRMCTL      45**DCL-ENT
M$STRMTAB      48**DCL-ENT
M$SYMBIO      86**DCL-ENT
M$SYSCON      72**DCL-ENT
M$SYSID      90**DCL-ENT
PL6.E3A0      #007=TCU$GETMEM File=TCU$UNLZ.:TCA2TSI                             SUN 11/16/97 14:31 Page:245
M$TDCLOSE      71**DCL-ENT
M$TDIO      71**DCL-ENT
M$TDOPEN      70**DCL-ENT
M$TDREQCPU      71**DCL-ENT
M$TEMPWROC      65**DCL-ENT
M$TIME      88**DCL-ENT
M$TRAP      75**DCL-ENT
M$TRMISC      50**DCL-ENT
M$TRMPRG      46**DCL-ENT
M$TRTN      79**DCL-ENT
M$TRUNC      22**DCL-ENT
M$TTIMER      75**DCL-ENT
M$UC      45**DCL
M$UMPL      62**DCL-ENT
M$UNFID      84**DCL-ENT
M$UNLATCH      41**DCL-ENT
M$UNSHARE      38**DCL-ENT
M$USRFIELD      81**DCL-ENT
M$VIRTUAL      56**DCL-ENT
M$WAIT      79**DCL-ENT
M$WEOF      24**DCL-ENT
M$WRITE      22**DCL-ENT
M$WRSYSLOG      70**DCL-ENT
M$XCON      76**DCL-ENT
M$XCONRTN      37**DCL-ENT
M$XEQTIME      89**DCL-ENT
M$XFLUSH      30**DCL-ENT
M$XMOUSE      67**DCL-ENT
M$XXX      33**DCL-ENT
M$YC      35**DCL-ENT
