PL6.E3A0      #008=XSL$CLOSE File=XSL$SOCKET1.:TCA2TSI                           SUN 11/16/97 14:33 Page:199
     1433        1        /*T***********************************************************/
     1434        2        /*T*                                                         */
     1435        3        /*T* Copyright (c) Bull HN Information Systems Inc., 1997    */
     1436        4        /*T*                                                         */
     1437        5        /*T***********************************************************/
     1438        6        /*F* NAME: close() and XSL$CLOSE  --  Close Socket
     1439        7        ..::IT "Purpose:"
     1440        8        .INL +4
     1441        9        Closes the socket and releases any context associated with it.
     1442       10        ..::IT "C Usage:"
     1443       11        .INL 4
     1444       12        .FIF
     1445       13        status = close( s );
     1446       14        ..::IT "PL6 Usage:"
     1447       15        .INL 4
     1448       16        .FIF
     1449       17        CALL XSL$CLOSE( status, s );
     1450       18        ..::IT "Parameters:"
     1451       19        .INL 4
     1452       20        .FIF
     1453       21        s           integer socket descriptor
     1454       22        ..::IT "Result:"
     1455       23        .INL 4
     1456       24        .FIF
     1457       25        status      integer error code
     1458       26        ..::IT "Description:"
     1459       27        The close() function terminates any data transfer in progress through
     1460       28        the socket, closes the underlying connection (if any), and releases
     1461       29        any internal context associated with the socket.
     1462       30        .SPB
     1463       31        The s parameter specifies the descriptor of the socket to close.
     1464       32        .SPB
     1465       33        If the close() function is successful, the status result contains ESUCCESS
     1466       34        or E$SUCCESS.
     1467       35        .SPB
     1468       36        If the close() function is unsuccessful, the status result contains
     1469       37        EFAILURE or E$FAILURE and the application must inspect errno or XSL_ERRNO
PL6.E3A0      #008=XSL$CLOSE File=XSL$SOCKET1.:TCA2TSI                           SUN 11/16/97 14:33 Page:200
     1470       38        to determine the specific error condition.  The XSL$CLOSE procedure
     1471       39        additionally ALTRETURNs if it is unsuccessful; it is otherwise identical
     1472       40        to the close() function.
     1473       41        .SPB
     1474       42        Once a socket has been closed, it cannot be used for other socket operations.
     1475       43        ..::IT "Errors:"
     1476       44        Following are the possible error conditions reported when the close()
     1477       45        function is unsuccessful.  Equates for the possible values can be found in
     1478       46        <xsl_errno.h> or XSL_PERR_C for C and PL6 source, respectively.
     1479       47
     1480       48        .FIF
     1481       49
     1482       50        C #define               PL6 %EQU
     1483       51        ----------------------- -----------------------
     1484       52        EBADF                   E$BADF
     1485       53        .FIN
     1486       54        The descriptor s is not appropriate to identify a socket.
     1487       55        .FIF
     1488       56
     1489       57        ENOTSOCK                E$NOTSOCK
     1490       58        .FIN
     1491       59        The descriptor s is no longer valid to identify a socket.
     1492       60        .FIF
     1493       61        */
     1494       62        XSL$CLOSE: PROC( RESULT, SOCK#) ALTRET;
     1495       63        %INCLUDE XSL_SOCKET_E;
     1496      321        %INCLUDE XSL_SOCKET_M;
     1497     1082        %INCLUDE XSL_PERR_C;
     1498     1137        %INCLUDE XSL_INTERNAL_M;
     1499     1388            %XSL$SOCKINFO( FPTN=SOCK, STCLASS="BASED( SOCK$)");
     1500     1532
     1501     1533    1       DCL XSL$CL_CLOSE ENTRY(1) ALTRET;
     1502     1534    1       DCL XSL$RELSOCK ENTRY(1) ALTRET;
     1503     1535    1       DCL XSL$SOCKPTR ENTRY(2) ALTRET;
     1504     1536    1       DCL XSL$DCBNPTR ENTRY(2) ALTRET;
     1505     1537
     1506     1538    1       DCL XSL_ERRNO SBIN SYMREF;
PL6.E3A0      #008=XSL$CLOSE File=XSL$SOCKET1.:TCA2TSI                           SUN 11/16/97 14:33 Page:201
     1507     1539
     1508     1540    1       DCL RESULT SBIN;
     1509     1541    1       DCL SOCK# SBIN;
     1510     1542    1       DCL SOCK$ PTR;
     1511     1543    1       DCL TEMP SBIN;
     1512     1544
     1513     1545    1       CALL XSL$DCBNPTR( SOCK#, SOCK$) ALTRET( BAILOUT);
     1514     1546    1       GOTO COMMON;
     1515     1547
     1516     1548    1   XSL$QCLOSE: ENTRY( RESULT, SOCK#) ALTRET;
     1517     1549
     1518     1550    1       CALL XSL$SOCKPTR( SOCK#, SOCK$)
     1519     1551    2       WHENALTRETURN DO;
     1520     1552    2   BAILOUT:
     1521     1553    2           RESULT = %E$FAILURE;
     1522     1554    2           ALTRETURN;
     1523     1555    2           END;
     1524     1556    1   COMMON:
     1525     1557    1       CALL XSL$CL_CLOSE( SOCK);
     1526     1558    1       TEMP = SOCK.SOCK#;
     1527     1559    1       CALL XSL$RELSOCK( TEMP);
     1528     1560    1       RESULT = %E$SUCCESS;
     1529     1561    1       RETURN;
     1530     1562
     1531     1563    1   END XSL$CLOSE;
     1532     1564        %EOD;

PL6.E3A0      #008=XSL$CLOSE File=XSL$SOCKET1.:TCA2TSI                           SUN 11/16/97 14:33 Page:202
--  Include file information  --

   XSL_INTERNAL_M.:TCA2TOU  is referenced.
   XSL_PERR_C.:TCA2TOU  is referenced.
   XSL_SOCKET_M.:TCA2TOU  is referenced.
   XSL_SOCKET_E.:TCA2TOU  is referenced.
   B$JIT_C.:E05TOU  was found in the system file and is never referenced.
   CP_6_C.:E05TOU  was found in the system file and is never referenced.
      No diagnostics issued in procedure XSL$CLOSE.

   Procedure XSL$CLOSE requires 43 words for executable code.
   Procedure XSL$CLOSE requires 10 words of local(AUTO) storage.

PL6.E3A0      #008=XSL$CLOSE File=XSL$SOCKET1.:TCA2TSI                           SUN 11/16/97 14:33 Page:203

 Object Unit name= XSL$CLOSE                                  File name= XSL$SOCKET1.:TCA2TOU
 UTS= NOV 16 '97 14:33:57.12 SUN                              Compiler= PL-6/E31         Sev=      00
 SharedLib= :SHARED_SYSTEM                                    Alt SharedLib=


    ****  Control sections  ****

 Sect   Type Bound  Init  Size OctSiz  Section name(segment info)
    0   Proc  even  none    43     53  XSL$CLOSE

    ****  Entry defs  ****

                              Check   Calling
                             calling  sequence
  Sect OctLoc Primary Altret sequence   type   Parms  Name
     0      0   yes    yes     yes      Std        2  XSL$CLOSE
     0     13          yes     yes      Std        2  XSL$QCLOSE

  ****  Entry refs  ****

         Check        Calling
        calling       sequence
Altret sequence SRef   type   Args  Name
 yes     yes           Std       2 XSL$DCBNPTR
 yes     yes           Std       2 XSL$SOCKPTR
 yes     yes           Std       1 XSL$CL_CLOSE
 yes     yes           Std       1 XSL$RELSOCK
                       nStd      0 X66_AUTO_2
                       Std       0 B_CONSPOOL_D
                       nStd      0 X66_AALT
                       nStd      0 X66_ARET
PL6.E3A0      #008=XSL$CLOSE File=XSL$SOCKET1.:TCA2TSI                           SUN 11/16/97 14:33 Page:204

  ****  Data refs  ****

  Flags:  r = read only, s = secondary
Flgs Name                             Flgs Name                             Flgs Name
     B_VECTNIL
PL6.E3A0      #008=XSL$CLOSE File=XSL$SOCKET1.:TCA2TSI                           SUN 11/16/97 14:33 Page:205


     1433        1        /*T***********************************************************/
     1434        2        /*T*                                                         */
     1435        3        /*T* Copyright (c) Bull HN Information Systems Inc., 1997    */
     1436        4        /*T*                                                         */
     1437        5        /*T***********************************************************/
     1438        6        /*F* NAME: close() and XSL$CLOSE  --  Close Socket
     1439        7        ..::IT "Purpose:"
     1440        8        .INL +4
     1441        9        Closes the socket and releases any context associated with it.
     1442       10        ..::IT "C Usage:"
     1443       11        .INL 4
     1444       12        .FIF
     1445       13        status = close( s );
     1446       14        ..::IT "PL6 Usage:"
     1447       15        .INL 4
     1448       16        .FIF
     1449       17        CALL XSL$CLOSE( status, s );
     1450       18        ..::IT "Parameters:"
     1451       19        .INL 4
     1452       20        .FIF
     1453       21        s           integer socket descriptor
     1454       22        ..::IT "Result:"
     1455       23        .INL 4
     1456       24        .FIF
     1457       25        status      integer error code
     1458       26        ..::IT "Description:"
     1459       27        The close() function terminates any data transfer in progress through
     1460       28        the socket, closes the underlying connection (if any), and releases
     1461       29        any internal context associated with the socket.
     1462       30        .SPB
     1463       31        The s parameter specifies the descriptor of the socket to close.
     1464       32        .SPB
     1465       33        If the close() function is successful, the status result contains ESUCCESS
     1466       34        or E$SUCCESS.
     1467       35        .SPB
     1468       36        If the close() function is unsuccessful, the status result contains
PL6.E3A0      #008=XSL$CLOSE File=XSL$SOCKET1.:TCA2TSI                           SUN 11/16/97 14:33 Page:206
     1469       37        EFAILURE or E$FAILURE and the application must inspect errno or XSL_ERRNO
     1470       38        to determine the specific error condition.  The XSL$CLOSE procedure
     1471       39        additionally ALTRETURNs if it is unsuccessful; it is otherwise identical
     1472       40        to the close() function.
     1473       41        .SPB
     1474       42        Once a socket has been closed, it cannot be used for other socket operations.
     1475       43        ..::IT "Errors:"
     1476       44        Following are the possible error conditions reported when the close()
     1477       45        function is unsuccessful.  Equates for the possible values can be found in
     1478       46        <xsl_errno.h> or XSL_PERR_C for C and PL6 source, respectively.
     1479       47
     1480       48        .FIF
     1481       49
     1482       50        C #define               PL6 %EQU
     1483       51        ----------------------- -----------------------
     1484       52        EBADF                   E$BADF
     1485       53        .FIN
     1486       54        The descriptor s is not appropriate to identify a socket.
     1487       55        .FIF
     1488       56
     1489       57        ENOTSOCK                E$NOTSOCK
     1490       58        .FIN
     1491       59        The descriptor s is no longer valid to identify a socket.
     1492       60        .FIF
     1493       61        */
     1494       62        XSL$CLOSE: PROC( RESULT, SOCK#) ALTRET;

     62  0 000000   000000 700200 xent  XSL$CLOSE    TSX0  ! X66_AUTO_2
         0 000001   000012 000002                    ZERO    10,2

     1495       63        %INCLUDE XSL_SOCKET_E;
     1496      321        %INCLUDE XSL_SOCKET_M;
     1497     1082        %INCLUDE XSL_PERR_C;
     1498     1137        %INCLUDE XSL_INTERNAL_M;
     1499     1388            %XSL$SOCKINFO( FPTN=SOCK, STCLASS="BASED( SOCK$)");
     1500     1532
     1501     1533    1       DCL XSL$CL_CLOSE ENTRY(1) ALTRET;
PL6.E3A0      #008=XSL$CLOSE File=XSL$SOCKET1.:TCA2TSI                           SUN 11/16/97 14:33 Page:207
     1502     1534    1       DCL XSL$RELSOCK ENTRY(1) ALTRET;
     1503     1535    1       DCL XSL$SOCKPTR ENTRY(2) ALTRET;
     1504     1536    1       DCL XSL$DCBNPTR ENTRY(2) ALTRET;
     1505     1537
     1506     1538    1       DCL XSL_ERRNO SBIN SYMREF;
     1507     1539
     1508     1540    1       DCL RESULT SBIN;
     1509     1541    1       DCL SOCK# SBIN;
     1510     1542    1       DCL SOCK$ PTR;
     1511     1543    1       DCL TEMP SBIN;
     1512     1544
     1513     1545    1       CALL XSL$DCBNPTR( SOCK#, SOCK$) ALTRET( BAILOUT);

   1545  0 000002   200005 630500                    EPPR0   SOCK$,,AUTO
         0 000003   200011 450500                    STP0    TEMP+3,,AUTO
         0 000004   200004 236100                    LDQ     @SOCK#,,AUTO
         0 000005   200010 756100                    STQ     TEMP+2,,AUTO
         0 000006   200010 630500                    EPPR0   TEMP+2,,AUTO
         0 000007   000020 631400 xsym               EPPR1   B_VECTNIL+16
         0 000010   000000 701000 xent               TSX1    XSL$DCBNPTR
         0 000011   000026 702000 0                  TSX2    BAILOUT

     1514     1546    1       GOTO COMMON;

   1546  0 000012   000032 710000 0                  TRA     COMMON

     1515     1547
     1516     1548    1   XSL$QCLOSE: ENTRY( RESULT, SOCK#) ALTRET;

   1548  0 000013   000000 700200 xent  XSL$QCLOSE   TSX0  ! X66_AUTO_2
         0 000014   000012 000002                    ZERO    10,2

     1517     1549
     1518     1550    1       CALL XSL$SOCKPTR( SOCK#, SOCK$)

   1550  0 000015   200005 630500                    EPPR0   SOCK$,,AUTO
         0 000016   200011 450500                    STP0    TEMP+3,,AUTO
PL6.E3A0      #008=XSL$CLOSE File=XSL$SOCKET1.:TCA2TSI                           SUN 11/16/97 14:33 Page:208
         0 000017   200004 236100                    LDQ     @SOCK#,,AUTO
         0 000020   200010 756100                    STQ     TEMP+2,,AUTO
         0 000021   200010 630500                    EPPR0   TEMP+2,,AUTO
         0 000022   000020 631400 xsym               EPPR1   B_VECTNIL+16
         0 000023   000000 701000 xent               TSX1    XSL$SOCKPTR
         0 000024   000026 702000 0                  TSX2    BAILOUT
         0 000025   000032 710000 0                  TRA     COMMON

     1519     1551    2       WHENALTRETURN DO;

     1520     1552    2   BAILOUT:
     1521     1553    2           RESULT = %E$FAILURE;

   1553  0 000026   000001 335007       BAILOUT      LCA     1,DL
         0 000027   200003 470500                    LDP0    @RESULT,,AUTO
         0 000030   000000 755100                    STA     0,,PR0

     1522     1554    2           ALTRETURN;

   1554  0 000031   000000 702200 xent               TSX2  ! X66_AALT

     1523     1555    2           END;
     1524     1556    1   COMMON:
     1525     1557    1       CALL XSL$CL_CLOSE( SOCK);

   1557  0 000032   200005 630500       COMMON       EPPR0   SOCK$,,AUTO
         0 000033   000017 631400 xsym               EPPR1   B_VECTNIL+15
         0 000034   000000 701000 xent               TSX1    XSL$CL_CLOSE
         0 000035   000000 011000                    NOP     0

     1526     1558    1       TEMP = SOCK.SOCK#;

   1558  0 000036   200005 470500                    LDP0    SOCK$,,AUTO
         0 000037   000000 236100                    LDQ     0,,PR0
         0 000040   000777 376007                    ANQ     511,DL
         0 000041   200006 756100                    STQ     TEMP,,AUTO

PL6.E3A0      #008=XSL$CLOSE File=XSL$SOCKET1.:TCA2TSI                           SUN 11/16/97 14:33 Page:209
     1527     1559    1       CALL XSL$RELSOCK( TEMP);

   1559  0 000042   200006 631500                    EPPR1   TEMP,,AUTO
         0 000043   200010 451500                    STP1    TEMP+2,,AUTO
         0 000044   200010 630500                    EPPR0   TEMP+2,,AUTO
         0 000045   000017 631400 xsym               EPPR1   B_VECTNIL+15
         0 000046   000000 701000 xent               TSX1    XSL$RELSOCK
         0 000047   000000 011000                    NOP     0

     1528     1560    1       RESULT = %E$SUCCESS;

   1560  0 000050   200003 470500                    LDP0    @RESULT,,AUTO
         0 000051   000000 450100                    STZ     0,,PR0

     1529     1561    1       RETURN;

   1561  0 000052   000000 702200 xent               TSX2  ! X66_ARET
     1530     1562
     1531     1563    1   END XSL$CLOSE;
     1532     1564        %EOD;

PL6.E3A0      #008=XSL$CLOSE File=XSL$SOCKET1.:TCA2TSI                           SUN 11/16/97 14:33 Page:210
--  Include file information  --

   XSL_INTERNAL_M.:TCA2TOU  is referenced.
   XSL_PERR_C.:TCA2TOU  is referenced.
   XSL_SOCKET_M.:TCA2TOU  is referenced.
   XSL_SOCKET_E.:TCA2TOU  is referenced.
   B$JIT_C.:E05TOU  was found in the system file and is never referenced.
   CP_6_C.:E05TOU  was found in the system file and is never referenced.
      No diagnostics issued in procedure XSL$CLOSE.
PL6.E3A0      #008=XSL$CLOSE File=XSL$SOCKET1.:TCA2TSI                           SUN 11/16/97 14:33 Page:211

 **** Variables and constants ****

  ****  Auto variables  ****

  ****  Scalars and arrays  ****
OctLoc.c.b A Datatyp(siz) R M Lvl/name                 OctLoc.c.b A Datatyp(siz) R M Lvl/name

     3-0-0/w PTR         r     1 @RESULT                    4-0-0/w PTR         r     1 @SOCK#
    *0-0-0/w SBIN        r     1 RESULT                    *0-0-0/w SBIN        r     1 SOCK#
     5-0-0/w PTR         r     1 SOCK$                      6-0-0/w SBIN        r     1 TEMP

  ****  BASED and DCB variables  ****

  ****  Scalars and arrays  ****
OctLoc.c.b A Datatyp(siz) R M Lvl/name                 OctLoc.c.b A Datatyp(siz) R M Lvl/name

     0-0-0/w STRC(720)   r     1 SOCK


   Procedure XSL$CLOSE requires 43 words for executable code.
   Procedure XSL$CLOSE requires 10 words of local(AUTO) storage.
PL6.E3A0      #008=XSL$CLOSE File=XSL$SOCKET1.:TCA2TSI                           SUN 11/16/97 14:33 Page:212
          *** CROSS REFERENCE LISTING ***
**     DENOTES     IDENTIFIER DEFINITION
<<                 IDENTIFIER'S VALUE SET
>>                 IDENTIFIER'S VALUE USED
<>                 IDENTIFIER SET AND/OR USED
--                 IDENTIFIER REFERENCED
PL6.E3A0      #008=XSL$CLOSE File=XSL$SOCKET1.:TCA2TSI                           SUN 11/16/97 14:33 Page:213
          MINI XREF LISTING

BAILOUT
      1553**LABEL    1545--CALLALT
COMMON
      1557**LABEL    1546--GOTO
RESULT
      1540**DCL        62--PROC     1548--ENTRY    1553<<ASSIGN   1560<<ASSIGN
SOCK
      1406**DCL      1557<>CALL
SOCK.NBACCEPT_SOCK$
      1528**DCL      1529--REDEF
SOCK.SOCK#
      1415**DCL      1558>>ASSIGN
SOCK#
      1541**DCL        62--PROC     1545<>CALL     1548--ENTRY    1550<>CALL
SOCK$
      1542**DCL      1406--IMP-PTR  1545<>CALL     1550<>CALL     1557>>CALL     1558>>ASSIGN
TEMP
      1543**DCL      1558<<ASSIGN   1559<>CALL
XSL$CL_CLOSE
      1533**DCL-ENT  1557--CALL
XSL$DCBNPTR
      1536**DCL-ENT  1545--CALL
XSL$RELSOCK
      1534**DCL-ENT  1559--CALL
XSL$SOCKPTR
      1535**DCL-ENT  1550--CALL
PL6.E3A0      #008=XSL$CLOSE File=XSL$SOCKET1.:TCA2TSI                           SUN 11/16/97 14:33 Page:214
              *** CROSS REFERENCE LISTING ***
    **     DENOTES     IDENTIFIER DEFINITION
    <<                 IDENTIFIER'S VALUE SET
    >>                 IDENTIFIER'S VALUE USED
    <>                 IDENTIFIER SET AND/OR USED
    --                 IDENTIFIER REFERENCED
PL6.E3A0      #008=XSL$CLOSE File=XSL$SOCKET1.:TCA2TSI                           SUN 11/16/97 14:33 Page:215
              MINI UREF LISTING

XSL$CLOSE      62**PROC
XSL$QCLOSE    1548**ENTRY
XSL_ERRNO    1538**DCL

PL6.E3A0      #009=XSL$CL File=XSL$SOCKET1.:TCA2TSI                              SUN 11/16/97 14:34 Page:216
     1533        1        /*T***********************************************************/
     1534        2        /*T*                                                         */
     1535        3        /*T* Copyright (c) Bull HN Information Systems Inc., 1997    */
     1536        4        /*T*                                                         */
     1537        5        /*T***********************************************************/
     1538        6        XSL$CL: PROC( SOCK, PARM1, PARM2, PARM3) ALTRET;
     1539        7        %INCLUDE B_ERRORS_C;
     1540     1134        %INCLUDE CP_6_SUBS;
     1541     1674        %INCLUDE CP_6;
     1542     1755            %F$DCB;
     1543     1812            %B$ALT;
     1544     1820            %B$TCB;
     1545     1823            %FPT_OPEN( ASN=DEVICE, RES='CL', FUN=UPDATE, SN=VLP_SN);
     1546     1932            %VLP_SN;
     1547     1945            %FPT_CLOSE( DISP=SAVE);
     1548     1987            %FPT_READ( BUF=NIL, KEY=XSL_KEYBUF, KEYR=YES);
     1549     2026            %FPT_WRITE( BUF=NIL, KEY=XSL_KEYBUF, NODAT=YES);
     1550     2057            %FPT_WAIT( FPTN=XSL_WAIT1DAY, STCLASS="CONSTANT SYMDEF",
     1551     2058                    UNITS=86399, UETIME=XSL_UETIME);
     1552     2072            %FPT_WAIT( FPTN=XSL_WAIT1SEC, STCLASS="CONSTANT SYMDEF", UNITS=1);
     1553     2086            %FPT_TRMPRG( ABORTREAD=YES);
     1554     2115            %VLP_VECTOR( STCLASS=BASED);
     1555     2130            %FPT_GETDCB( DCBNAME=VLP_NAME, DCBNUM=DCB#, STCLASS=CONSTANT);
     1556     2145            %VLP_NAME( NAME='F$XSL00');
     1557     2172    1       DCL 1 DCBNAME REDEF VLP_NAME,
     1558     2173    1           2 LEN UBIN(9) CALIGNED,
     1559     2174    1           2 TXT CHAR(7) CALIGNED;
     1560     2175            %FPT_RELDCB;
     1561     2189        %INCLUDE XSL_PERR_C;
     1562     2244        %INCLUDE XSL_SOCKET_M;
     1563     3005            %XSL$SOCKADDR;
     1564     3045            %XSL$SOCKADDR_IN;
     1565     3109        %INCLUDE XSL_INTERNAL_M;
     1566     3360            %XSL$SOCKINFO( FPTN=SOCK, STCLASS=);
     1567     3504            %XSL$SOCKHD( STCLASS="BASED( XSL_SOCK$$)");
     1568     3537            %XSL$DATABUF( FPTN=DATABUF, STCLASS="BASED( BUF$)");
     1569     3570        %INCLUDE XSL_SOCKMSGS_E;
PL6.E3A0      #009=XSL$CL File=XSL$SOCKET1.:TCA2TSI                              SUN 11/16/97 14:34 Page:217
     1570     3616
     1571     3617    1       DCL XSL$H9TO8 ENTRY(1);
     1572     3618    1       DCL XSL$H8TO9 ENTRY(1);
     1573     3619    1       DCL XSL$ROUTES ENTRY(2) ALTRET;
     1574     3620    1       DCL XSL$GETBUF ENTRY(2) ALTRET;
     1575     3621    1       DCL XSL$RELBUF ENTRY(2) ALTRET;
     1576     3622    1       DCL XSL$EVLOG ENTRY(2);
     1577     3623
     1578     3624    1       DCL B$TCB$ PTR SYMREF READONLY;
     1579     3625
     1580     3626    1       DCL XSL_ERRNO SBIN SYMREF;
     1581     3627    1       DCL XSL_KEYBUF$ PTR SYMREF READONLY;
     1582     3628    1       DCL XSL_SN CHAR(6) SYMREF;
     1583     3629    1       DCL XSL_SOCK$$ PTR SYMREF;
     1584     3630    1       DCL XSL_UETIME SBIN STATIC SYMDEF INIT( 0);
     1585     3631
     1586     3632            %EQU ATTR_TCP_PRIV = ATTR_CL_TCPIP# | ATTR_CL_TCP_TCP# | ATTR_CL_TCP_PRIV#;
     1587     3633            %EQU ATTR_TCP_NORMAL = ATTR_CL_TCPIP# | ATTR_CL_TCP_TCP#;
     1588     3634    1       DCL DCB# SBIN STATIC;
     1589     3635    1       DCL LAST BIT(1);
     1590     3636    1       DCL BUFPND# SBIN;
     1591     3637    1       DCL LATCH SBIN STATIC;
     1592     3638    1       DCL LATCHTMP SBIN;
     1593     3639    1       DCL NUM SBIN;
     1594     3640    1       DCL PARM1 SBIN;
     1595     3641    1       DCL PARM2 SBIN;
     1596     3642    1       DCL PARM3 SBIN;
     1597     3643    1       DCL BUF$ PTR;
     1598     3644    1       DCL B$PTR PTR BASED;
     1599     3645    1       DCL XSL_KEYBUF(0:15) SBIN HALF HALIGNED SYMREF;
     1600     3646    1       DCL DUMMYCHARS CHAR(255);
     1601     3647    1       DCL PARM3CHARS CHAR( PARM2) BASED;
     1602     3648    1       DCL PARM2CHARS CHAR( PARM1) BASED;
     1603     3649            /* the following table is indexed by RQS/RSP msgCode, and indicates the
     1604     3650               number of leading halfwords in KEYBUF that should be converted between
     1605     3651               XPS and Host formats */
     1606     3652    1       DCL HCOUNT(0:40) UBIN BYTE CONSTANT INIT(
PL6.E3A0      #009=XSL$CL File=XSL$SOCKET1.:TCA2TSI                              SUN 11/16/97 14:34 Page:218
     1607     3653    1           0, /* unused */
     1608     3654    1           2, /* ACCEPTRQS */
     1609     3655    1           5, /* ACCEPTRSP */
     1610     3656    1           3, /* BINDRQS */
     1611     3657    1           3, /* BINDRSP */
     1612     3658    1           3, /* CONNECTRQS */
     1613     3659    1           3, /* CONNECTRSP */
     1614     3660    1           3, /* GETSOCKOPTRQS */
     1615     3661    1           4, /* GETSOCKOPTRSP */
     1616     3662    1           1, /* GIVEUPRQS */
     1617     3663    1           2, /* GIVEUPRSP */
     1618     3664    1           2, /* LISTENRQS */
     1619     3665    1           3, /* LISTENRSP */
     1620     3666    1           3, /* RECVRQS */
     1621     3667    1           3, /* RECVRSP */
     1622     3668    1           3, /* RECVFROMRQS */
     1623     3669    1           5, /* RECVFROMRSP */
     1624     3670    1           3, /* SELECTRQS */
     1625     3671    1           4, /* SELECTRSP */
     1626     3672    1           2, /* SENDRQS */
     1627     3673    1           3, /* SENDRSP */
     1628     3674    1           4, /* SENDTORQS */
     1629     3675    1           3, /* SENDTORSP */
     1630     3676    1           4, /* SETSOCKOPTRQS */
     1631     3677    1           3, /* SETSOCKOPTRSP */
     1632     3678    1           2, /* SHUTDOWNRQS */
     1633     3679    1           3, /* SHUTDOWNRSP */
     1634     3680    1           4, /* SOCKETRQS */
     1635     3681    1           3, /* SOCKETRSP */
     1636     3682    1           2, /* GETSOCKNAMERQS */
     1637     3683    1           3, /* GETSOCKNAMERSP */
     1638     3684    1           2, /* GETPEERNAMERQS */
     1639     3685    1           3, /* GETPEERNAMERSP */
     1640     3686    1           1, /* IOCTLRQS */
     1641     3687    1           3, /* IOCTLRSP */
     1642     3688    1           1, /* DETACHRQS */
     1643     3689    1           0, /* **do not use #36** */
PL6.E3A0      #009=XSL$CL File=XSL$SOCKET1.:TCA2TSI                              SUN 11/16/97 14:34 Page:219
     1644     3690    1           0, /* reserved for #37 */
     1645     3691    1           0, /* reserved for #38 */
     1646     3692    1           0, /* reserved for #39 */
     1647     3693    1           0  /* reserved for #40 */
     1648     3694    1           ) CALIGNED;
     1649     3695
     1650     3696    1   XSL$CL_WRITE: ENTRY( SOCK, PARM1, PARM2, PARM3) ALTRET;
     1651     3697
     1652     3698            /* PARM1 is size of key buffer, PARM2 is optional size of data buffer */
     1653     3699            /* If PARM2 specified, data buffer located at PARM3 */
     1654     3700    1       LATCH = XSL_KEYBUF(0);
     1655     3701    1       IF LATCH = %CONNECTRQS AND SOCK.FLAGS.CONNECTING THEN
     1656     3702    1           RETURN;
     1657     3703    1       IF LATCH = %ACCEPTRQS AND SOCK.FLAGS.ACCEPTING THEN
     1658     3704    1           RETURN;
     1659     3705    1       NUM = HCOUNT( XSL_KEYBUF(0));
     1660     3706    1       CALL XSL$H9TO8( NUM);  /* convert first NUM halfwords 9-to-8 */
     1661     3707    1       FPT_WRITE.V.DCB# = SOCK.DCB#;
     1662     3708    1       ADDR(FPT_WRITE.KEY_) -> VLP_VECTOR.W1.VSIZE# = PARM1-1;
     1663     3709    1       IF ADDR( PARM2) = ADDR( NIL) OR PARM2 = 0 THEN
     1664     3710    1           FPT_WRITE.BUF_ = VECTOR( NIL);
     1665     3711    2       ELSE DO;
     1666     3712    2           FPT_WRITE.BUF_.BUF$ = ADDR( PARM3);
     1667     3713    2           FPT_WRITE.BUF_.BOUND = PARM2 - 1;
     1668     3714    2           END;
     1669     3715    1       IF LATCH = %SENDTORQS OR LATCH = %SENDRQS OR LATCH = %SELECTRQS OR
     1670     3716    1         LATCH = %GIVEUPRQS OR LATCH = %DETACHRQS OR
     1671     3717    2         DCBADDR( SOCK.DCB#)->F$DCB.FCN.CNT(0) = 3 THEN DO;
     1672     3718    2           LATCHTMP = LATCH;
     1673     3719    2           LATCH = 0;
     1674     3720    2           IF SOCK.FLAGS.BLOCKING THEN
     1675     3721    2               FPT_WRITE.V.DVBYTE.NODAT# = '0'B;
     1676     3722    2           ELSE
     1677     3723    2               FPT_WRITE.V.DVBYTE.NODAT# = '1'B;
     1678     3724    2           CALL XSL$EVLOG( 'WR', ADDR(SOCK));
     1679     3725    2           CALL M$WRITE( FPT_WRITE) ALTRET( OOPSLOG);
     1680     3726    2           END;
PL6.E3A0      #009=XSL$CL File=XSL$SOCKET1.:TCA2TSI                              SUN 11/16/97 14:34 Page:220
     1681     3727    1       RETURN;
     1682     3728
     1683     3729    1   XSL$CL_READ: ENTRY( SOCK, PARM1, PARM2) ALTRET;
     1684     3730
     1685     3731            /* PARM1 is optional size of data buffer */
     1686     3732            /* If PARM1 specified, data buffer located at PARM2 */
     1687     3733    1   READ_IT:
     1688     3734    1       FPT_READ.V.DCB# = SOCK.DCB#;
     1689     3735    1       IF ADDR( PARM1) = ADDR( NIL) OR PARM1 = 0 THEN
     1690     3736                /* can't just specify a key on a read, no credits
     1691     3737                 get sent to the other end*/
     1692     3738    1           FPT_READ.BUF_ = VECTOR( DUMMYCHARS);
     1693     3739    1       ELSE
     1694     3740    1           FPT_READ.BUF_ = VECTOR( ADDR( PARM2)-> PARM2CHARS);
     1695     3741    1       NUM = XSL_KEYBUF(0)+1; /* Save the message type that requested this one */
     1696     3742    1       IF NUM = %CONNECTRSP AND SOCK.FLAGS.CONNECTING THEN
     1697     3743    1           GOTO LOOK4IT;
     1698     3744    1       IF NUM = %ACCEPTRSP AND SOCK.FLAGS.ACCEPTING THEN
     1699     3745    1           GOTO LOOK4IT;
     1700     3746    1       IF SOCK.MAXRDS = 0 OR SOCK.FLAGS.MUSTREAD OR
     1701     3747    2         ( ADDR( PARM1) ~= ADDR( NIL) AND PARM1 ~= 0) THEN DO;
     1702     3748                /* must use Wait read */
     1703     3749    3           IF LATCH = 0 THEN DO;
     1704     3750    3               FPT_READ.V.KEYS# = %NO#;
     1705     3751    3               XSL_KEYBUF = '0'B;
     1706     3752    3               END;
     1707     3753    3           ELSE DO;
     1708     3754    3               FPT_READ.V.KEYS# = %YES#;
     1709     3755    3               LATCH = 0;
     1710     3756    3               END;
     1711     3757    3           DO INHIBIT;
     1712     3758    3               IF SOCK.BUFHD ~= 0 THEN
     1713     3759    3                   CALL CANCEL( SOCK);
     1714     3760    3               IF SOCK.FLAGS.SELREAD AND NOT SOCK.FLAGS.MUSTREAD THEN
     1715     3761    3                   GOTO LOOK4IT;
     1716     3762    3   REREAD:
     1717     3763    3               SOCK.FLAGS.MUSTREAD = '0'B;
PL6.E3A0      #009=XSL$CL File=XSL$SOCKET1.:TCA2TSI                              SUN 11/16/97 14:34 Page:221
     1718     3764    3               CALL XSL$EVLOG( 'RD', ADDR(SOCK));
     1719     3765    3               CALL M$READ( FPT_READ) ALTRET( OOPSLOG);
     1720     3766    3               END;
     1721     3767    3           IF NUM ~= XSL_KEYBUF(0) THEN DO;  /* got the wrong one ?!? */
     1722     3768    3               IF XSL_KEYBUF(0) = %SENDRSP OR XSL_KEYBUF(0) = %SENDTORSP THEN
     1723     3769    4                   IF XSL_KEYBUF(2) = 255 AND XSL_KEYBUF(3) = 255 THEN DO;
     1724     3770    4                       SOCK.FEPERROR = XSL_KEYBUF(5);
     1725     3771    4                       GOTO REREAD;
     1726     3772    4                       END;
     1727     3773    3               XSL_KEYBUF(2) = %E$SOCKTNOSUPPORT;
     1728     3774    3               GOTO OOPS1;
     1729     3775    3               END;
     1730     3776    2           GOTO CLEANUP;
     1731     3777    2           END;
     1732     3778    2       ELSE DO;
     1733     3779                /* NoWait reads are allowed */
     1734     3780    3           IF DCBADDR( SOCK.DCB#)->F$DCB.FCN.CNT(0) = 3 THEN DO;
     1735     3781                    /* 3 reads already pending */
     1736     3782    4               IF LATCH ~= 0 THEN DO;
     1737     3783    4   WRITE_IT:
     1738     3784    4                   FPT_WRITE.BUF_ = VECTOR( DUMMYCHARS);
     1739     3785    4                   IF SOCK.FLAGS.BLOCKING THEN
     1740     3786    4                       FPT_WRITE.V.DVBYTE.NODAT# = '0'B;
     1741     3787    4                   ELSE
     1742     3788    4                       FPT_WRITE.V.DVBYTE.NODAT# = '1'B;
     1743     3789    4                   CALL XSL$EVLOG( 'WR', ADDR(SOCK));
     1744     3790    4                   CALL M$WRITE( FPT_WRITE) ALTRET( OOPSLOG);
     1745     3791    4                   END;
     1746     3792    3               END;
     1747     3793    3           ELSE DO;
     1748     3794                    /* fewer than 3 reads pending */
     1749     3795    3               IF LATCH ~= 0 THEN
     1750     3796    3                   CALL XSL$GETBUF( SOCK, XSL_KEYBUF) ALTRET( WRITE_IT);
     1751     3797    3               ELSE
     1752     3798    3                   CALL XSL$GETBUF( SOCK);  /* ignore ALTRET here */
     1753     3799    3               END;
     1754     3800    2           END;
PL6.E3A0      #009=XSL$CL File=XSL$SOCKET1.:TCA2TSI                              SUN 11/16/97 14:34 Page:222
     1755     3801    1   LOOK4IT:
     1756     3802    1       BUFPND# = SOCK.BUFPND#;
     1757     3803    1       BUF$ = PINCRW( XSL_SOCK$$, SOCK.BUFHD);
     1758     3804    2       DO WHILE( BUF$ ~= XSL_SOCK$$);
     1759     3805    2           IF DATABUF.FLAGS.BUSY THEN EXIT;
     1760     3806    3           IF NUM = DATABUF.KEY(1) THEN DO;
     1761     3807                    /* found the RSP we're looking for */
     1762     3808    3               XSL_KEYBUF = DATABUF.KEY;
     1763     3809    4               IF NUM ~= %RECVRSP AND NUM ~= %RECVFROMRSP THEN DO INHIBIT;
     1764     3810    4                   SOCK.DAT# = SOCK.DAT# - 1;
     1765     3811    4                   IF SOCK.DAT# = 0 THEN
     1766     3812    4                       SOCK.FLAGS.SELREAD = '0'B;
     1767     3813    4                   SOCK.BUFPND# = SOCK.BUFPND# - 1;
     1768     3814    4                   CALL XSL$RELBUF( SOCK, DATABUF);
     1769     3815    4                   END;
     1770     3816    3               GOTO CLEANUP;
     1771     3817    3               END;
     1772     3818    2           BUF$ = PINCRW( XSL_SOCK$$, DATABUF.NXT);
     1773     3819    2           END;
     1774     3820    2       IF SOCK.FLAGS.CONNECTING THEN DO;
     1775     3821    2           XSL_KEYBUF(2) = %E$ALREADY;
     1776     3822    2           GOTO OOPS1;
     1777     3823    2           END;
     1778     3824    2       IF NUM = %CONNECTRSP AND NOT SOCK.FLAGS.BLOCKING THEN DO;
     1779     3825    2           SOCK.FLAGS.CONNECTING = '1'B;
     1780     3826    2           XSL_KEYBUF(2) = %E$INPROGRESS;
     1781     3827    2           GOTO OOPS1;
     1782     3828    2           END;
     1783     3829    2       IF SOCK.FLAGS.ACCEPTING THEN DO;
     1784     3830    2           XSL_KEYBUF(2) = %E$WOULDBLOCK;
     1785     3831    2           GOTO OOPS1;
     1786     3832    2           END;
     1787     3833    2       IF NUM = %ACCEPTRSP AND NOT SOCK.FLAGS.BLOCKING THEN DO;
     1788     3834    2           SOCK.FLAGS.ACCEPTING = '1'B;
     1789     3835    2           XSL_KEYBUF(2) = %E$WOULDBLOCK;
     1790     3836    2           GOTO OOPS1;
     1791     3837    2           END;
PL6.E3A0      #009=XSL$CL File=XSL$SOCKET1.:TCA2TSI                              SUN 11/16/97 14:34 Page:223
     1792     3838    2       DO INHIBIT;
     1793     3839    2           IF DCBADDR( SOCK.DCB#)->F$DCB.FCN.CNT(0) = 0 THEN
     1794     3840    2               SOCK.FLAGS.MUSTREAD = '1'B;
     1795     3841    2           IF SOCK.FLAGS.MUSTREAD THEN GOTO READ_IT;
     1796     3842    2           IF BUFPND# ~= SOCK.BUFPND# THEN GOTO LOOK4IT;
     1797     3843    2           XSL_UETIME = 0;
     1798     3844    3           DO WHILE( XSL_UETIME = 0);
     1799     3845    3               CALL XSL$EVLOG( 'WT', ADDR(SOCK));
     1800     3846    3               CALL M$WAIT( XSL_WAIT1DAY);
     1801     3847    3               END;
     1802     3848    2           END;
     1803     3849    1       GOTO LOOK4IT;
     1804     3850    1   CLEANUP:
     1805     3851    1       IF NUM = %CONNECTRSP AND SOCK.FLAGS.CONNECTING THEN
     1806     3852    1           SOCK.FLAGS.CONNECTING = '0'B;
     1807     3853    1       IF NUM = %ACCEPTRSP AND SOCK.FLAGS.ACCEPTING THEN
     1808     3854    1           SOCK.FLAGS.ACCEPTING = '0'B;
     1809     3855    1       NUM = HCOUNT( NUM);
     1810     3856    1       CALL XSL$H8TO9( NUM);  /* convert first NUM halfwords 8-to-9 */
     1811     3857    1       RETURN;
     1812     3858
     1813     3859    1   XSL$CL_OPEN: ENTRY( SOCK, PARM1, PARM2) ALTRET;
     1814     3860
     1815     3861            /* PARM1 is an optional NAME structure, PARM2 is its length */
     1816     3862    1       IF ADDR( PARM1) = ADDR( NIL) THEN
     1817     3863    1           CALL SNSETUP( SOCK.SOCKNAME);
     1818     3864    1       ELSE
     1819     3865    1           CALL SNSETUP( PARM1);
     1820     3866    1       IF SOCK.MAXRDS = 0 THEN
     1821     3867    1           FPT_OPEN.V.EVENT# = 0;
     1822     3868    1       ELSE
     1823     3869    1           ADDR( FPT_OPEN.V.EVENT#)->B$PTR = ADDR( SOCK);  /* for COMIO events */
     1824     3870    1       LAST = '0'B;
     1825     3871    1   AGAIN: ;
     1826     3872    1       SOCK.SERNUM = VLP_SN.SN#(0);
     1827     3873    1       FPT_OPEN.V.DCB# = SOCK.DCB#;
     1828     3874    1       FPT_OPEN.V.ATTR# = %ATTR_TCP_PRIV;
PL6.E3A0      #009=XSL$CL File=XSL$SOCKET1.:TCA2TSI                              SUN 11/16/97 14:34 Page:224
     1829     3875    1       CALL XSL$EVLOG( 'OP', ADDR(SOCK));
     1830     3876    1       CALL M$OPEN( FPT_OPEN)
     1831     3877    2       WHENALTRETURN DO;
     1832     3878    2           FPT_OPEN.V.ATTR# = %ATTR_TCP_NORMAL;
     1833     3879    2           CALL XSL$EVLOG( 'OP', ADDR(SOCK));
     1834     3880    3           CALL M$OPEN( FPT_OPEN) WHENALTRETURN DO;
     1835     3881    3               IF LAST THEN GOTO OOPSLOG;
     1836     3882    3               LAST = '1'B;
     1837     3883    3               IF ADDR( PARM1) = ADDR( NIL) THEN
     1838     3884    3                   CALL XSL$ROUTES(
     1839     3885    3                     ADDR( SOCK.SOCKNAME)->XSL$SOCKADDR_IN.S_ADDR,
     1840     3886    3                     VLP_SN.SN#(0)) ALTRET( DFLT);
     1841     3887    3               ELSE
     1842     3888    3                   CALL XSL$ROUTES( ADDR( PARM1)->XSL$SOCKADDR_IN.S_ADDR, VLP_SN.SN#(0)
              3888                            )
     1843     3889    4                   WHENALTRETURN DO;
     1844     3890    4   DFLT:
     1845     3891    4                       VLP_SN.SN#(0) = XSL_SN;
     1846     3892    4                       END;
     1847     3893    3               GOTO AGAIN;
     1848     3894    3               END;
     1849     3895    2           END;
     1850     3896    1       RETURN;
     1851     3897
     1852     3898    1   XSL$CL_GET: ENTRY( SOCK) ALTRET;
     1853     3899
     1854     3900    1       CALL BINCHAR( SUBSTR( DCBNAME.TXT, 5, 2), SOCK.SOCK#);
     1855     3901    1       CALL XSL$EVLOG( 'GT', ADDR(SOCK));
     1856     3902    1       CALL M$GETDCB( FPT_GETDCB) ALTRET( OOPSLOG);
     1857     3903    1       SOCK.DCB# = DCB#;
     1858     3904    1       RETURN;
     1859     3905
     1860     3906    1   XSL$CL_REL: ENTRY( SOCK) ALTRET;
     1861     3907
     1862     3908    1       FPT_RELDCB.V.DCB# = SOCK.DCB#;
     1863     3909    1       CALL XSL$EVLOG( 'RL', ADDR(SOCK));
     1864     3910    1       CALL M$RELDCB( FPT_RELDCB) ALTRET( OOPSLOG);
PL6.E3A0      #009=XSL$CL File=XSL$SOCKET1.:TCA2TSI                              SUN 11/16/97 14:34 Page:225
     1865     3911    1       SOCK.DCB# = DCBNUM( NIL);
     1866     3912    1       RETURN;
     1867     3913
     1868     3914    1   XSL$CL_CLOSE: ENTRY( SOCK) ALTRET;
     1869     3915
     1870     3916    1       SOCK.FLAGS.REUSEBUF = '0'B;
     1871     3917    1       IF SOCK.BUFHD ~= 0 THEN
     1872     3918    1           CALL CANCEL( SOCK);
     1873     3919    1       CALL XSL$EVLOG( 'CL', ADDR(SOCK));
     1874     3920    1       FPT_CLOSE.V.DCB# = SOCK.DCB#;
     1875     3921    1       CALL M$CLOSE( FPT_CLOSE) ALTRET( OOPSLOG);
     1876     3922    1       RETURN;
     1877     3923    1   OOPSLOG:
     1878     3924    1       CALL XSL$EVLOG( 'ER', ADDR(SOCK));
     1879     3925    1       CALL XSL$EVLOG( , B$TCB$->B$TCB.ALT$->B$ALT.ERR);
     1880     3926    2       IF B$TCB$->B$TCB.ALT$->B$ALT.ERR.CODE = %E$NODAT THEN DO;
     1881     3927    2           IF LATCH = %SENDTORQS OR LATCH = %SENDRQS OR
     1882     3928    2             ( LATCH = 0 AND ( LATCHTMP = %SENDTORQS OR LATCHTMP = %SENDRQS)) THEN
     1883     3929    2               GOTO OOPS;  /* send/write will do the right thing */
     1884     3930    2           CALL M$WAIT( XSL_WAIT1SEC);
     1885     3931    2           CALL M$RETRY ALTRET( OOPSLOG);
     1886     3932    2           END;
     1887     3933    1   OOPS:
     1888     3934    1       XSL_KEYBUF(2) = %E$FAILURE; /* ERRNO for RSP messages */
     1889     3935    1   OOPS1:
     1890     3936    1       XSL_KEYBUF(1) = %E$FAILURE; /* RESULT for RSP messages */
     1891     3937    1       ALTRETURN;
     1892     3938        %EJECT;
PL6.E3A0      #009=XSL$CL File=XSL$SOCKET1.:TCA2TSI                              SUN 11/16/97 14:34 Page:226
     1893     3939    1   XSL$CL_CANCEL: ENTRY( SOCK) ALTRET;
     1894     3940
     1895     3941    1       CALL CANCEL( SOCK);
     1896     3942    1       RETURN;
     1897     3943
     1898     3944    1   CANCEL: PROC( SOCK);
     1899     3945
     1900     3946    2       DCL BUF$ PTR;
     1901     3947    2       DCL MUSTWAIT BIT(1);
     1902     3948            %XSL$DATABUF( FPTN=DATABUF, STCLASS="BASED( BUF$)");
     1903     3981            %XSL$SOCKINFO( FPTN=SOCK, STCLASS=);
     1904     4125
     1905     4126    3       DO INHIBIT;
     1906     4127    4           IF DCBADDR( SOCK.DCB#)->F$DCB.FCN.CNT(0) ~= 0 THEN DO;
     1907     4128    4               CALL XSL$EVLOG( 'XX', ADDR(SOCK));
     1908     4129    4               FPT_TRMPRG.V.DCB# = SOCK.DCB#;
     1909     4130    4               CALL M$TRMPRG( FPT_TRMPRG);  /* cancel NW read(s) */
     1910     4131    4               END;
     1911     4132    3   WAIT4IO:
     1912     4133    3           MUSTWAIT = '0'B;
     1913     4134    3           BUF$ = PINCRW( XSL_SOCK$$, SOCK.BUFHD);
     1914     4135    4           DO WHILE( BUF$ ~= XSL_SOCK$$);
     1915     4136    4               MUSTWAIT = MUSTWAIT | DATABUF.FLAGS.BUSY;
     1916     4137    4               BUF$ = PINCRW( XSL_SOCK$$, DATABUF.NXT);
     1917     4138    4               END;
     1918     4139    4           IF MUSTWAIT THEN DO;
     1919     4140    4               CALL XSL$EVLOG( 'WX', ADDR(SOCK));
     1920     4141    4               CALL M$WAIT( XSL_WAIT1DAY);  /* force event delivery */
     1921     4142    4               GOTO WAIT4IO;
     1922     4143    4               END;
     1923     4144    3           RETURN;
     1924     4145    3           END;
     1925     4146
     1926     4147    2   END CANCEL;
     1927     4148        %EJECT;
PL6.E3A0      #009=XSL$CL File=XSL$SOCKET1.:TCA2TSI                              SUN 11/16/97 14:34 Page:227
     1928     4149    1   SNSETUP: PROC( NAME);
     1929     4150
     1930     4151            %XSL$SOCKADDR( FPTN=NAME, STCLASS=);
     1931     4191
     1932     4192    2       DCL XSL$NTOHL ENTRY(2);
     1933     4193
     1934     4194    2       DCL XSL_NETMASK SBIN SYMREF;
     1935     4195    2       DCL MSK(0:3) REDEF XSL_NETMASK BIT(9) CALIGNED;
     1936     4196    2       DCL XSL_SN CHAR(6) SYMREF;
     1937     4197
     1938     4198    2       DCL I UBIN;
     1939     4199    2       DCL L UBIN;
     1940     4200    2       DCL X UBIN;
     1941     4201    2       DCL XCHARS CHAR(0) CONSTANT INIT( '0123456789ABCDEF');
     1942     4202
     1943     4203    2       VLP_SN.SN#(0) = XSL_SN;
     1944     4204    2       X = NAME.SA_DATA(4);
     1945     4205    2       IF X = 0 THEN RETURN;
     1946     4206    2       VLP_SN.SN#(0) = '      ';
     1947     4207    3       IF XSL_NETMASK = -1 THEN DO;
     1948     4208                /* figure out length based on top bits of address */
     1949     4209    3           IF X < 128 THEN L = 2;
     1950     4210    3           ELSE IF X < 192 THEN L = 4;
     1951     4211    3               ELSE L = 6;
     1952     4212    3           END;
     1953     4213    3       ELSE DO;
     1954     4214                /* figure out length based on number of nonzero netmask nibbles */
     1955     4215    3           CALL XSL$NTOHL( X, XSL_NETMASK);
     1956     4216    3           X = X/256;  /* lose lower 2 nibbles */
     1957     4217    4           DO L = 6 DOWNTO 1;
     1958     4218    4               IF MOD( X, 16) ~= 0 THEN EXIT;
     1959     4219    4               X = X/16;
     1960     4220    4               END;
     1961     4221    3           END;
     1962     4222    3       DO I = 0 TO L-1;
     1963     4223    3           X = BITBIN( BINBIT( NAME.SA_DATA( 4 + I/2), 9) & MSK( I/2));
     1964     4224    3           IF MOD( I, 2) ~= 0 THEN
PL6.E3A0      #009=XSL$CL File=XSL$SOCKET1.:TCA2TSI                              SUN 11/16/97 14:34 Page:228
     1965     4225    3               X = MOD( X, 16);
     1966     4226    3           ELSE
     1967     4227    3               X = X/16;
     1968     4228    3           SUBSTR( VLP_SN.SN#(0), I, 1) = SUBSTR( XCHARS, X, 1);
     1969     4229    3           END;
     1970     4230    2       RETURN;
     1971     4231
     1972     4232    2   END SNSETUP;
     1973     4233
     1974     4234    1   END XSL$CL;
     1975     4235        %EOD;

PL6.E3A0      #009=XSL$CL File=XSL$SOCKET1.:TCA2TSI                              SUN 11/16/97 14:34 Page:229
--  Include file information  --

   XSL_SOCKMSGS_E.:TCA2TOU  is referenced.
   XSL_INTERNAL_M.:TCA2TOU  is referenced.
   XSL_SOCKET_M.:TCA2TOU  is referenced.
   XSL_PERR_C.:TCA2TOU  is referenced.
   CP_6.:E05TOU  cannot be made into a system file and is referenced.
   CP_6_SUBS.:E05TOU  is referenced.
   B_ERRORS_C.:E05TOU  is referenced.
   B$JIT_C.:E05TOU  was found in the system file and is never referenced.
   CP_6_C.:E05TOU  was found in the system file and is referenced.
      No diagnostics issued in procedure XSL$CL.

   Procedure XSL$CL requires 799 words for executable code.
   Procedure XSL$CL requires 86 words of local(AUTO) storage.

PL6.E3A0      #009=XSL$CL File=XSL$SOCKET1.:TCA2TSI                              SUN 11/16/97 14:34 Page:230

 Object Unit name= XSL$CL                                     File name= XSL$SOCKET1.:TCA2TOU
 UTS= NOV 16 '97 14:34:17.20 SUN                              Compiler= PL-6/E31         Sev=      00
 SharedLib= :SHARED_SYSTEM                                    Alt SharedLib=


    ****  Control sections  ****

 Sect   Type Bound  Init  Size OctSiz  Section name(segment info)
    0   DCB   even  none     0      0  M$UC
    1   Data  even  none   135    207  XSL$CL
    2  RoData even  UTS     47     57  XSL$CL
    3   Proc  even  none   799   1437  XSL$CL
    4  RoData even  none    24     30  XSL$CL

    ****  Entry defs  ****

                              Check   Calling
                             calling  sequence
  Sect OctLoc Primary Altret sequence   type   Parms  Name
     3      0   yes    yes     yes      Std        4  XSL$CL
     3      3          yes     yes      Std        4  XSL$CL_WRITE
     3    145          yes     yes      Std        3  XSL$CL_READ
     3    632          yes     yes      Std        3  XSL$CL_OPEN
     3    770          yes     yes      Std        1  XSL$CL_GET
     3   1024          yes     yes      Std        1  XSL$CL_REL
     3   1053          yes     yes      Std        1  XSL$CL_CLOSE
     3   1171          yes     yes      Std        1  XSL$CL_CANCEL

  ****  Data defs  ****

 Sect OctLoc  Name                           Sect OctLoc  Name
    2      0  XSL_WAIT1DAY                       2      6  XSL_WAIT1SEC
    1    204  XSL_UETIME
PL6.E3A0      #009=XSL$CL File=XSL$SOCKET1.:TCA2TSI                              SUN 11/16/97 14:34 Page:231

  ****  Entry refs  ****

         Check        Calling
        calling       sequence
Altret sequence SRef   type   Args  Name
         yes           Std       1 XSL$H9TO8
         yes           Std       2 XSL$EVLOG
 yes     yes           Std       2 XSL$RELBUF
         yes           Std       1 XSL$H8TO9
 yes     yes           Std       2 XSL$GETBUF
 yes     yes           Std       2 XSL$ROUTES
         yes           Std       2 XSL$NTOHL
                       nStd      0 X66_AUTO_4
                       nStd      0 X66_ARET
                       Std       0 B_CONSPOOL_D
                       nStd      0 X66_AALT

  ****  Data refs  ****

  Flags:  r = read only, s = secondary
Flgs Name                             Flgs Name                             Flgs Name
     M$UC                             r    B$TCB$                                XSL_SN
     XSL_SOCK$$                            XSL_KEYBUF                            XSL_NETMASK
     XSL_SN                                B_VECTNIL

  ****  Segment refs  ****

  Flags:  r = read only, s = secondary
Flgs Name                             Flgs Name                             Flgs Name
     ISSID                                 NULLSID                               ROSID
PL6.E3A0      #009=XSL$CL File=XSL$SOCKET1.:TCA2TSI                              SUN 11/16/97 14:34 Page:232


     1533        1        /*T***********************************************************/
     1534        2        /*T*                                                         */
     1535        3        /*T* Copyright (c) Bull HN Information Systems Inc., 1997    */
     1536        4        /*T*                                                         */
     1537        5        /*T***********************************************************/
     1538        6        XSL$CL: PROC( SOCK, PARM1, PARM2, PARM3) ALTRET;

      6  3 000000   000000 700200 xent  XSL$CL       TSX0  ! X66_AUTO_4
         3 000001   000126 000004                    ZERO    86,4
         3 000002   000005 710000 3                  TRA     s:3700

     1539        7        %INCLUDE B_ERRORS_C;
     1540     1134        %INCLUDE CP_6_SUBS;
     1541     1674        %INCLUDE CP_6;
     1542     1755            %F$DCB;
     1543     1812            %B$ALT;
     1544     1820            %B$TCB;
     1545     1823            %FPT_OPEN( ASN=DEVICE, RES='CL', FUN=UPDATE, SN=VLP_SN);
     1546     1932            %VLP_SN;
     1547     1945            %FPT_CLOSE( DISP=SAVE);
     1548     1987            %FPT_READ( BUF=NIL, KEY=XSL_KEYBUF, KEYR=YES);
     1549     2026            %FPT_WRITE( BUF=NIL, KEY=XSL_KEYBUF, NODAT=YES);
     1550     2057            %FPT_WAIT( FPTN=XSL_WAIT1DAY, STCLASS="CONSTANT SYMDEF",
     1551     2058                    UNITS=86399, UETIME=XSL_UETIME);
     1552     2072            %FPT_WAIT( FPTN=XSL_WAIT1SEC, STCLASS="CONSTANT SYMDEF", UNITS=1);
     1553     2086            %FPT_TRMPRG( ABORTREAD=YES);
     1554     2115            %VLP_VECTOR( STCLASS=BASED);
     1555     2130            %FPT_GETDCB( DCBNAME=VLP_NAME, DCBNUM=DCB#, STCLASS=CONSTANT);
     1556     2145            %VLP_NAME( NAME='F$XSL00');
     1557     2172    1       DCL 1 DCBNAME REDEF VLP_NAME,
     1558     2173    1           2 LEN UBIN(9) CALIGNED,
     1559     2174    1           2 TXT CHAR(7) CALIGNED;
     1560     2175            %FPT_RELDCB;
     1561     2189        %INCLUDE XSL_PERR_C;
     1562     2244        %INCLUDE XSL_SOCKET_M;
     1563     3005            %XSL$SOCKADDR;
PL6.E3A0      #009=XSL$CL File=XSL$SOCKET1.:TCA2TSI                              SUN 11/16/97 14:34 Page:233
     1564     3045            %XSL$SOCKADDR_IN;
     1565     3109        %INCLUDE XSL_INTERNAL_M;
     1566     3360            %XSL$SOCKINFO( FPTN=SOCK, STCLASS=);
     1567     3504            %XSL$SOCKHD( STCLASS="BASED( XSL_SOCK$$)");
     1568     3537            %XSL$DATABUF( FPTN=DATABUF, STCLASS="BASED( BUF$)");
     1569     3570        %INCLUDE XSL_SOCKMSGS_E;
     1570     3616
     1571     3617    1       DCL XSL$H9TO8 ENTRY(1);
     1572     3618    1       DCL XSL$H8TO9 ENTRY(1);
     1573     3619    1       DCL XSL$ROUTES ENTRY(2) ALTRET;
     1574     3620    1       DCL XSL$GETBUF ENTRY(2) ALTRET;
     1575     3621    1       DCL XSL$RELBUF ENTRY(2) ALTRET;
     1576     3622    1       DCL XSL$EVLOG ENTRY(2);
     1577     3623
     1578     3624    1       DCL B$TCB$ PTR SYMREF READONLY;
     1579     3625
     1580     3626    1       DCL XSL_ERRNO SBIN SYMREF;
     1581     3627    1       DCL XSL_KEYBUF$ PTR SYMREF READONLY;
     1582     3628    1       DCL XSL_SN CHAR(6) SYMREF;
     1583     3629    1       DCL XSL_SOCK$$ PTR SYMREF;
     1584     3630    1       DCL XSL_UETIME SBIN STATIC SYMDEF INIT( 0);
     1585     3631
     1586     3632            %EQU ATTR_TCP_PRIV = ATTR_CL_TCPIP# | ATTR_CL_TCP_TCP# | ATTR_CL_TCP_PRIV#;
     1587     3633            %EQU ATTR_TCP_NORMAL = ATTR_CL_TCPIP# | ATTR_CL_TCP_TCP#;
     1588     3634    1       DCL DCB# SBIN STATIC;
     1589     3635    1       DCL LAST BIT(1);
     1590     3636    1       DCL BUFPND# SBIN;
     1591     3637    1       DCL LATCH SBIN STATIC;
     1592     3638    1       DCL LATCHTMP SBIN;
     1593     3639    1       DCL NUM SBIN;
     1594     3640    1       DCL PARM1 SBIN;
     1595     3641    1       DCL PARM2 SBIN;
     1596     3642    1       DCL PARM3 SBIN;
     1597     3643    1       DCL BUF$ PTR;
     1598     3644    1       DCL B$PTR PTR BASED;
     1599     3645    1       DCL XSL_KEYBUF(0:15) SBIN HALF HALIGNED SYMREF;
     1600     3646    1       DCL DUMMYCHARS CHAR(255);
PL6.E3A0      #009=XSL$CL File=XSL$SOCKET1.:TCA2TSI                              SUN 11/16/97 14:34 Page:234
     1601     3647    1       DCL PARM3CHARS CHAR( PARM2) BASED;
     1602     3648    1       DCL PARM2CHARS CHAR( PARM1) BASED;
     1603     3649            /* the following table is indexed by RQS/RSP msgCode, and indicates the
     1604     3650               number of leading halfwords in KEYBUF that should be converted between
     1605     3651               XPS and Host formats */
     1606     3652    1       DCL HCOUNT(0:40) UBIN BYTE CONSTANT INIT(
     1607     3653    1           0, /* unused */
     1608     3654    1           2, /* ACCEPTRQS */
     1609     3655    1           5, /* ACCEPTRSP */
     1610     3656    1           3, /* BINDRQS */
     1611     3657    1           3, /* BINDRSP */
     1612     3658    1           3, /* CONNECTRQS */
     1613     3659    1           3, /* CONNECTRSP */
     1614     3660    1           3, /* GETSOCKOPTRQS */
     1615     3661    1           4, /* GETSOCKOPTRSP */
     1616     3662    1           1, /* GIVEUPRQS */
     1617     3663    1           2, /* GIVEUPRSP */
     1618     3664    1           2, /* LISTENRQS */
     1619     3665    1           3, /* LISTENRSP */
     1620     3666    1           3, /* RECVRQS */
     1621     3667    1           3, /* RECVRSP */
     1622     3668    1           3, /* RECVFROMRQS */
     1623     3669    1           5, /* RECVFROMRSP */
     1624     3670    1           3, /* SELECTRQS */
     1625     3671    1           4, /* SELECTRSP */
     1626     3672    1           2, /* SENDRQS */
     1627     3673    1           3, /* SENDRSP */
     1628     3674    1           4, /* SENDTORQS */
     1629     3675    1           3, /* SENDTORSP */
     1630     3676    1           4, /* SETSOCKOPTRQS */
     1631     3677    1           3, /* SETSOCKOPTRSP */
     1632     3678    1           2, /* SHUTDOWNRQS */
     1633     3679    1           3, /* SHUTDOWNRSP */
     1634     3680    1           4, /* SOCKETRQS */
     1635     3681    1           3, /* SOCKETRSP */
     1636     3682    1           2, /* GETSOCKNAMERQS */
     1637     3683    1           3, /* GETSOCKNAMERSP */
PL6.E3A0      #009=XSL$CL File=XSL$SOCKET1.:TCA2TSI                              SUN 11/16/97 14:34 Page:235
     1638     3684    1           2, /* GETPEERNAMERQS */
     1639     3685    1           3, /* GETPEERNAMERSP */
     1640     3686    1           1, /* IOCTLRQS */
     1641     3687    1           3, /* IOCTLRSP */
     1642     3688    1           1, /* DETACHRQS */
     1643     3689    1           0, /* **do not use #36** */
     1644     3690    1           0, /* reserved for #37 */
     1645     3691    1           0, /* reserved for #38 */
     1646     3692    1           0, /* reserved for #39 */
     1647     3693    1           0  /* reserved for #40 */
     1648     3694    1           ) CALIGNED;
     1649     3695
     1650     3696    1   XSL$CL_WRITE: ENTRY( SOCK, PARM1, PARM2, PARM3) ALTRET;

   3696  3 000003   000000 700200 xent  XSL$CL_WRITE TSX0  ! X66_AUTO_4
         3 000004   000126 000004                    ZERO    86,4

     1651     3697
     1652     3698            /* PARM1 is size of key buffer, PARM2 is optional size of data buffer */
     1653     3699            /* If PARM2 specified, data buffer located at PARM3 */
     1654     3700    1       LATCH = XSL_KEYBUF(0);

   3700  3 000005   000000 235000 xsym               LDA     XSL_KEYBUF
         3 000006   000022 731000                    ARS     18
         3 000007   000206 755000 1                  STA     LATCH

     1655     3701    1       IF LATCH = %CONNECTRQS AND SOCK.FLAGS.CONNECTING THEN

   3701  3 000010   000005 115007                    CMPA    5,DL
         3 000011   000017 601000 3                  TNZ     s:3703
         3 000012   200003 470500                    LDP0    @SOCK,,AUTO
         3 000013   000001 236100                    LDQ     1,,PR0
         3 000014   000200 316003                    CANQ    128,DU
         3 000015   000017 600000 3                  TZE     s:3703

     1656     3702    1           RETURN;

PL6.E3A0      #009=XSL$CL File=XSL$SOCKET1.:TCA2TSI                              SUN 11/16/97 14:34 Page:236
   3702  3 000016   000000 702200 xent               TSX2  ! X66_ARET

     1657     3703    1       IF LATCH = %ACCEPTRQS AND SOCK.FLAGS.ACCEPTING THEN

   3703  3 000017   000001 115007                    CMPA    1,DL
         3 000020   000026 601000 3                  TNZ     s:3705
         3 000021   200003 470500                    LDP0    @SOCK,,AUTO
         3 000022   000001 236100                    LDQ     1,,PR0
         3 000023   000100 316003                    CANQ    64,DU
         3 000024   000026 600000 3                  TZE     s:3705

     1658     3704    1           RETURN;

   3704  3 000025   000000 702200 xent               TSX2  ! X66_ARET

     1659     3705    1       NUM = HCOUNT( XSL_KEYBUF(0));

   3705  3 000026   000100 101405                    MRL     fill='000'O
         3 000027   000024 000001 2                  ADSC9   HCOUNT,A                 cn=0,n=1
         3 000030   200012 000004                    ADSC9   NUM,,AUTO                cn=0,n=4

     1660     3706    1       CALL XSL$H9TO8( NUM);  /* convert first NUM halfwords 9-to-8 */

   3706  3 000031   200012 630500                    EPPR0   NUM,,AUTO
         3 000032   200122 450500                    STP0    X+2,,AUTO
         3 000033   200122 630500                    EPPR0   X+2,,AUTO
         3 000034   000017 631400 xsym               EPPR1   B_VECTNIL+15
         3 000035   000000 701000 xent               TSX1    XSL$H9TO8
         3 000036   000000 011000                    NOP     0

     1661     3707    1       FPT_WRITE.V.DCB# = SOCK.DCB#;

   3707  3 000037   200003 470500                    LDP0    @SOCK,,AUTO
         3 000040   000003 720100                    LXL0    3,,PR0
         3 000041   000162 740000 1                  STX0    FPT_WRITE+8

     1662     3708    1       ADDR(FPT_WRITE.KEY_) -> VLP_VECTOR.W1.VSIZE# = PARM1-1;
PL6.E3A0      #009=XSL$CL File=XSL$SOCKET1.:TCA2TSI                              SUN 11/16/97 14:34 Page:237

   3708  3 000042   200004 471500                    LDP1    @PARM1,,AUTO
         3 000043   100000 236100                    LDQ     0,,PR1
         3 000044   000001 136007                    SBLQ    1,DL
         3 000045   000020 736000                    QLS     16
         3 000046   000154 676000 1                  ERQ     FPT_WRITE+2
         3 000047   000034 376000 xsym               ANQ     B_VECTNIL+28
         3 000050   000154 656000 1                  ERSQ    FPT_WRITE+2

     1663     3709    1       IF ADDR( PARM2) = ADDR( NIL) OR PARM2 = 0 THEN

   3709  3 000051   200005 236100                    LDQ     @PARM2,,AUTO
         3 000052   000001 116000 xsym               CMPQ    B_VECTNIL+1
         3 000053   000057 600000 3                  TZE     s:3710
         3 000054   200005 473500                    LDP3    @PARM2,,AUTO
         3 000055   300000 235100                    LDA     0,,PR3
         3 000056   000062 601000 3                  TNZ     s:3712

     1664     3710    1           FPT_WRITE.BUF_ = VECTOR( NIL);

   3710  3 000057   000000 237000 4                  LDAQ    0
         3 000060   000156 757000 1                  STAQ    FPT_WRITE+4
         3 000061   000072 710000 3                  TRA     s:3715

     1665     3711    2       ELSE DO;

     1666     3712    2           FPT_WRITE.BUF_.BUF$ = ADDR( PARM3);

   3712  3 000062   200006 236100                    LDQ     @PARM3,,AUTO
         3 000063   000157 756000 1                  STQ     FPT_WRITE+5

     1667     3713    2           FPT_WRITE.BUF_.BOUND = PARM2 - 1;

   3713  3 000064   300000 236100                    LDQ     0,,PR3
         3 000065   000001 136007                    SBLQ    1,DL
         3 000066   000020 736000                    QLS     16
         3 000067   000156 676000 1                  ERQ     FPT_WRITE+4
PL6.E3A0      #009=XSL$CL File=XSL$SOCKET1.:TCA2TSI                              SUN 11/16/97 14:34 Page:238
         3 000070   000034 376000 xsym               ANQ     B_VECTNIL+28
         3 000071   000156 656000 1                  ERSQ    FPT_WRITE+4

     1668     3714    2           END;

     1669     3715    1       IF LATCH = %SENDTORQS OR LATCH = %SENDRQS OR LATCH = %SELECTRQS OR

   3715  3 000072   000206 235000 1                  LDA     LATCH
         3 000073   000025 115007                    CMPA    21,DL
         3 000074   000115 600000 3                  TZE     s:3718
         3 000075   000023 115007                    CMPA    19,DL
         3 000076   000115 600000 3                  TZE     s:3718
         3 000077   000021 115007                    CMPA    17,DL
         3 000100   000115 600000 3                  TZE     s:3718
         3 000101   000011 115007                    CMPA    9,DL
         3 000102   000115 600000 3                  TZE     s:3718
         3 000103   000043 115007                    CMPA    35,DL
         3 000104   000115 600000 3                  TZE     s:3718
         3 000105   000002 473400 4                  LDP3    2
         3 000106   300000 474500                    LDP4    0,,PR3
         3 000107   000003 721100                    LXL1    3,,PR0
         3 000110   400000 475511                    LDP5    0,X1,PR4
         3 000111   500074 236100                    LDQ     60,,PR5
         3 000112   377000 376003                    ANQ     130560,DU
         3 000113   003000 116003                    CMPQ    1536,DU
         3 000114   000144 601000 3                  TNZ     s:3727

     1670     3716    1         LATCH = %GIVEUPRQS OR LATCH = %DETACHRQS OR
     1671     3717    2         DCBADDR( SOCK.DCB#)->F$DCB.FCN.CNT(0) = 3 THEN DO;

     1672     3718    2           LATCHTMP = LATCH;

   3718  3 000115   200011 755100                    STA     LATCHTMP,,AUTO

     1673     3719    2           LATCH = 0;

   3719  3 000116   000206 450000 1                  STZ     LATCH
PL6.E3A0      #009=XSL$CL File=XSL$SOCKET1.:TCA2TSI                              SUN 11/16/97 14:34 Page:239

     1674     3720    2           IF SOCK.FLAGS.BLOCKING THEN

   3720  3 000117   000001 430100                    FSZN    1,,PR0
         3 000120   000124 605000 3                  TPL     s:3723

     1675     3721    2               FPT_WRITE.V.DVBYTE.NODAT# = '0'B;

   3721  3 000121   000003 236000 4                  LDQ     3
         3 000122   000165 356000 1                  ANSQ    FPT_WRITE+11
         3 000123   000126 710000 3                  TRA     s:3724

     1676     3722    2           ELSE
     1677     3723    2               FPT_WRITE.V.DVBYTE.NODAT# = '1'B;

   3723  3 000124   004000 236003                    LDQ     2048,DU
         3 000125   000165 256000 1                  ORSQ    FPT_WRITE+11

     1678     3724    2           CALL XSL$EVLOG( 'WR', ADDR(SOCK));

   3724  3 000126   200003 236100                    LDQ     @SOCK,,AUTO
         3 000127   200122 756100                    STQ     X+2,,AUTO
         3 000130   200122 633500                    EPPR3   X+2,,AUTO
         3 000131   200125 453500                    STP3    X+5,,AUTO
         3 000132   000004 236000 4                  LDQ     4
         3 000133   200124 756100                    STQ     X+4,,AUTO
         3 000134   200124 630500                    EPPR0   X+4,,AUTO
         3 000135   000020 631400 xsym               EPPR1   B_VECTNIL+16
         3 000136   000000 701000 xent               TSX1    XSL$EVLOG
         3 000137   000000 011000                    NOP     0

     1679     3725    2           CALL M$WRITE( FPT_WRITE) ALTRET( OOPSLOG);

   3725  3 000140   000152 630400 1                  EPPR0   FPT_WRITE
         3 000141   440001 713400                    CLIMB   alt,write
         3 000142   401400 401760                    pmme    nvectors=4
         3 000143   001110 702000 3                  TSX2    OOPSLOG
PL6.E3A0      #009=XSL$CL File=XSL$SOCKET1.:TCA2TSI                              SUN 11/16/97 14:34 Page:240

     1680     3726    2           END;

     1681     3727    1       RETURN;

   3727  3 000144   000000 702200 xent               TSX2  ! X66_ARET

     1682     3728
     1683     3729    1   XSL$CL_READ: ENTRY( SOCK, PARM1, PARM2) ALTRET;

   3729  3 000145   000000 700200 xent  XSL$CL_READ  TSX0  ! X66_AUTO_4
         3 000146   000126 000004                    ZERO    86,4

     1684     3730
     1685     3731            /* PARM1 is optional size of data buffer */
     1686     3732            /* If PARM1 specified, data buffer located at PARM2 */
     1687     3733    1   READ_IT:
     1688     3734    1       FPT_READ.V.DCB# = SOCK.DCB#;

   3734  3 000147   200003 470500       READ_IT      LDP0    @SOCK,,AUTO
         3 000150   000003 720100                    LXL0    3,,PR0
         3 000151   000144 740000 1                  STX0    FPT_READ+8

     1689     3735    1       IF ADDR( PARM1) = ADDR( NIL) OR PARM1 = 0 THEN

   3735  3 000152   200004 236100                    LDQ     @PARM1,,AUTO
         3 000153   000001 116000 xsym               CMPQ    B_VECTNIL+1
         3 000154   000160 600000 3                  TZE     s:3738
         3 000155   200004 471500                    LDP1    @PARM1,,AUTO
         3 000156   100000 235100                    LDA     0,,PR1
         3 000157   000166 601000 3                  TNZ     s:3740

     1690     3736                /* can't just specify a key on a read, no credits
     1691     3737                 get sent to the other end*/
     1692     3738    1           FPT_READ.BUF_ = VECTOR( DUMMYCHARS);

   3738  3 000160   000005 235000 4                  LDA     5
PL6.E3A0      #009=XSL$CL File=XSL$SOCKET1.:TCA2TSI                              SUN 11/16/97 14:34 Page:241
         3 000161   200122 452500                    STP2    X+2,,AUTO
         3 000162   200122 236100                    LDQ     X+2,,AUTO
         3 000163   000014 036003                    ADLQ    12,DU
         3 000164   000140 757000 1                  STAQ    FPT_READ+4
         3 000165   000174 710000 3                  TRA     s:3741

     1693     3739    1       ELSE
     1694     3740    1           FPT_READ.BUF_ = VECTOR( ADDR( PARM2)-> PARM2CHARS);

   3740  3 000166   100000 721100                    LXL1    0,,PR1
         3 000167   000000 635011                    EAA     0,X1
         3 000170   000002 731000                    ARS     2
         3 000171   000140 135007                    SBLA    96,DL
         3 000172   200005 236100                    LDQ     @PARM2,,AUTO
         3 000173   000140 757000 1                  STAQ    FPT_READ+4

     1695     3741    1       NUM = XSL_KEYBUF(0)+1; /* Save the message type that requested this one */

   3741  3 000174   000000 235000 xsym               LDA     XSL_KEYBUF
         3 000175   000022 731000                    ARS     18
         3 000176   000001 035007                    ADLA    1,DL
         3 000177   200012 755100                    STA     NUM,,AUTO

     1696     3742    1       IF NUM = %CONNECTRSP AND SOCK.FLAGS.CONNECTING THEN

   3742  3 000200   000006 115007                    CMPA    6,DL
         3 000201   000205 601000 3                  TNZ     s:3744
         3 000202   000001 236100                    LDQ     1,,PR0
         3 000203   000200 316003                    CANQ    128,DU
         3 000204   000411 601000 3                  TNZ     LOOK4IT

     1697     3743    1           GOTO LOOK4IT;
     1698     3744    1       IF NUM = %ACCEPTRSP AND SOCK.FLAGS.ACCEPTING THEN

   3744  3 000205   000002 115007                    CMPA    2,DL
         3 000206   000212 601000 3                  TNZ     s:3746
         3 000207   000001 236100                    LDQ     1,,PR0
PL6.E3A0      #009=XSL$CL File=XSL$SOCKET1.:TCA2TSI                              SUN 11/16/97 14:34 Page:242
         3 000210   000100 316003                    CANQ    64,DU
         3 000211   000411 601000 3                  TNZ     LOOK4IT

     1699     3745    1           GOTO LOOK4IT;
     1700     3746    1       IF SOCK.MAXRDS = 0 OR SOCK.FLAGS.MUSTREAD OR

   3746  3 000212   000020 721100                    LXL1    16,,PR0
         3 000213   000225 600000 3                  TZE     s:3749
         3 000214   000001 236100                    LDQ     1,,PR0
         3 000215   000001 316003                    CANQ    1,DU
         3 000216   000225 601000 3                  TNZ     s:3749
         3 000217   200004 236100                    LDQ     @PARM1,,AUTO
         3 000220   000001 116000 xsym               CMPQ    B_VECTNIL+1
         3 000221   000325 600000 3                  TZE     s:3780
         3 000222   200004 471500                    LDP1    @PARM1,,AUTO
         3 000223   100000 235100                    LDA     0,,PR1
         3 000224   000325 600000 3                  TZE     s:3780

     1701     3747    2         ( ADDR( PARM1) ~= ADDR( NIL) AND PARM1 ~= 0) THEN DO;

     1702     3748                /* must use Wait read */
     1703     3749    3           IF LATCH = 0 THEN DO;

   3749  3 000225   000206 235000 1                  LDA     LATCH
         3 000226   000235 601000 3                  TNZ     s:3754

     1704     3750    3               FPT_READ.V.KEYS# = %NO#;

   3750  3 000227   000006 236000 4                  LDQ     6
         3 000230   000144 356000 1                  ANSQ    FPT_READ+8

     1705     3751    3               XSL_KEYBUF = '0'B;

   3751  3 000231   000000 100400                    MLR     fill='000'O
         3 000232   000002 000001 xsym               ADSC9   B_VECTNIL+2              cn=0,n=1
         3 000233   000000 000040 xsym               ADSC9   XSL_KEYBUF               cn=0,n=32

PL6.E3A0      #009=XSL$CL File=XSL$SOCKET1.:TCA2TSI                              SUN 11/16/97 14:34 Page:243
     1706     3752    3               END;

   3752  3 000234   000240 710000 3                  TRA     s:3758

     1707     3753    3           ELSE DO;

     1708     3754    3               FPT_READ.V.KEYS# = %YES#;

   3754  3 000235   200000 236007                    LDQ     65536,DL
         3 000236   000144 256000 1                  ORSQ    FPT_READ+8

     1709     3755    3               LATCH = 0;

   3755  3 000237   000206 450000 1                  STZ     LATCH

     1710     3756    3               END;

     1711     3757    3           DO INHIBIT;

     1712     3758    3               IF SOCK.BUFHD ~= 0 THEN

   3758  3 000240   000016 221300                    LDX1  ! 14,,PR0
         3 000241   000246 600200 3                  TZE   ! s:3760

     1713     3759    3                   CALL CANCEL( SOCK);

   3759  3 000242   200003 236300                    LDQ   ! @SOCK,,AUTO
         3 000243   200115 756300                    STQ   ! DUMMYCHARS+65,,AUTO
         3 000244   001200 701200 3                  TSX1  ! CANCEL
         3 000245   000000 011200                    NOP   ! 0

     1714     3760    3               IF SOCK.FLAGS.SELREAD AND NOT SOCK.FLAGS.MUSTREAD THEN

   3760  3 000246   200003 470700                    LDP0  ! @SOCK,,AUTO
         3 000247   000001 236300                    LDQ   ! 1,,PR0
         3 000250   000040 316203                    CANQ  ! 32,DU
         3 000251   000254 600200 3                  TZE   ! REREAD
PL6.E3A0      #009=XSL$CL File=XSL$SOCKET1.:TCA2TSI                              SUN 11/16/97 14:34 Page:244
         3 000252   000001 316203                    CANQ  ! 1,DU
         3 000253   000411 600200 3                  TZE   ! LOOK4IT

     1715     3761    3                   GOTO LOOK4IT;
     1716     3762    3   REREAD:
     1717     3763    3               SOCK.FLAGS.MUSTREAD = '0'B;

   3763  3 000254   200003 470700       REREAD       LDP0  ! @SOCK,,AUTO
         3 000255   000007 236200 4                  LDQ   ! 7
         3 000256   000001 356300                    ANSQ  ! 1,,PR0

     1718     3764    3               CALL XSL$EVLOG( 'RD', ADDR(SOCK));

   3764  3 000257   200003 236300                    LDQ   ! @SOCK,,AUTO
         3 000260   200122 756300                    STQ   ! X+2,,AUTO
         3 000261   200122 631700                    EPPR1 ! X+2,,AUTO
         3 000262   200125 451700                    STP1  ! X+5,,AUTO
         3 000263   000010 236200 4                  LDQ   ! 8
         3 000264   200124 756300                    STQ   ! X+4,,AUTO
         3 000265   200124 630700                    EPPR0 ! X+4,,AUTO
         3 000266   000020 631600 xsym               EPPR1 ! B_VECTNIL+16
         3 000267   000000 701200 xent               TSX1  ! XSL$EVLOG
         3 000270   000000 011200                    NOP   ! 0

     1719     3765    3               CALL M$READ( FPT_READ) ALTRET( OOPSLOG);

   3765  3 000271   000134 630600 1                  EPPR0 ! FPT_READ
         3 000272   440000 713600                    CLIMB ! alt,read
         3 000273   401400 401760                    pmme    nvectors=4
         3 000274   001110 702200 3                  TSX2  ! OOPSLOG

     1720     3766    3               END;

     1721     3767    3           IF NUM ~= XSL_KEYBUF(0) THEN DO;  /* got the wrong one ?!? */

   3767  3 000275   000000 236000 xsym               LDQ     XSL_KEYBUF
         3 000276   000022 732000                    QRS     18
PL6.E3A0      #009=XSL$CL File=XSL$SOCKET1.:TCA2TSI                              SUN 11/16/97 14:34 Page:245
         3 000277   200012 116100                    CMPQ    NUM,,AUTO
         3 000300   000324 600000 3                  TZE     s:3776

     1722     3768    3               IF XSL_KEYBUF(0) = %SENDRSP OR XSL_KEYBUF(0) = %SENDTORSP THEN

   3768  3 000301   000000 620006                    EAX0    0,QL
         3 000302   000024 100003                    CMPX0   20,DU
         3 000303   000307 600000 3                  TZE     s:3769
         3 000304   000000 220000 xsym               LDX0    XSL_KEYBUF
         3 000305   000026 100003                    CMPX0   22,DU
         3 000306   000321 601000 3                  TNZ     s:3773

     1723     3769    4                   IF XSL_KEYBUF(2) = 255 AND XSL_KEYBUF(3) = 255 THEN DO;

   3769  3 000307   000001 220000 xsym               LDX0    XSL_KEYBUF+1
         3 000310   000377 100003                    CMPX0   255,DU
         3 000311   000321 601000 3                  TNZ     s:3773
         3 000312   000001 721000 xsym               LXL1    XSL_KEYBUF+1
         3 000313   000377 101003                    CMPX1   255,DU
         3 000314   000321 601000 3                  TNZ     s:3773

     1724     3770    4                       SOCK.FEPERROR = XSL_KEYBUF(5);

   3770  3 000315   200003 470500                    LDP0    @SOCK,,AUTO
         3 000316   000002 236000 xsym               LDQ     XSL_KEYBUF+2
         3 000317   000001 552104                    STBQ    1,'04'O,PR0

     1725     3771    4                       GOTO REREAD;

   3771  3 000320   000254 710000 3                  TRA     REREAD

     1726     3772    4                       END;
     1727     3773    3               XSL_KEYBUF(2) = %E$SOCKTNOSUPPORT;

   3773  3 000321   000147 220003                    LDX0    103,DU
         3 000322   000001 740000 xsym               STX0    XSL_KEYBUF+1

PL6.E3A0      #009=XSL$CL File=XSL$SOCKET1.:TCA2TSI                              SUN 11/16/97 14:34 Page:246
     1728     3774    3               GOTO OOPS1;

   3774  3 000323   001166 710000 3                  TRA     OOPS1

     1729     3775    3               END;
     1730     3776    2           GOTO CLEANUP;

   3776  3 000324   000575 710000 3                  TRA     CLEANUP

     1731     3777    2           END;
     1732     3778    2       ELSE DO;

     1733     3779                /* NoWait reads are allowed */
     1734     3780    3           IF DCBADDR( SOCK.DCB#)->F$DCB.FCN.CNT(0) = 3 THEN DO;

   3780  3 000325   000002 471400 4                  LDP1    2
         3 000326   100000 473500                    LDP3    0,,PR1
         3 000327   000003 722100                    LXL2    3,,PR0
         3 000330   300000 474512                    LDP4    0,X2,PR3
         3 000331   400074 236100                    LDQ     60,,PR4
         3 000332   377000 376003                    ANQ     130560,DU
         3 000333   003000 116003                    CMPQ    1536,DU
         3 000334   000373 601000 3                  TNZ     s:3795

     1735     3781                    /* 3 reads already pending */
     1736     3782    4               IF LATCH ~= 0 THEN DO;

   3782  3 000335   000206 235000 1                  LDA     LATCH
         3 000336   000411 600000 3                  TZE     LOOK4IT

     1737     3783    4   WRITE_IT:
     1738     3784    4                   FPT_WRITE.BUF_ = VECTOR( DUMMYCHARS);

   3784  3 000337   000005 235000 4     WRITE_IT     LDA     5
         3 000340   200122 452500                    STP2    X+2,,AUTO
         3 000341   200122 236100                    LDQ     X+2,,AUTO
         3 000342   000014 036003                    ADLQ    12,DU
PL6.E3A0      #009=XSL$CL File=XSL$SOCKET1.:TCA2TSI                              SUN 11/16/97 14:34 Page:247
         3 000343   000156 757000 1                  STAQ    FPT_WRITE+4

     1739     3785    4                   IF SOCK.FLAGS.BLOCKING THEN

   3785  3 000344   200003 470500                    LDP0    @SOCK,,AUTO
         3 000345   000001 430100                    FSZN    1,,PR0
         3 000346   000352 605000 3                  TPL     s:3788

     1740     3786    4                       FPT_WRITE.V.DVBYTE.NODAT# = '0'B;

   3786  3 000347   000003 236000 4                  LDQ     3
         3 000350   000165 356000 1                  ANSQ    FPT_WRITE+11
         3 000351   000354 710000 3                  TRA     s:3789

     1741     3787    4                   ELSE
     1742     3788    4                       FPT_WRITE.V.DVBYTE.NODAT# = '1'B;

   3788  3 000352   004000 236003                    LDQ     2048,DU
         3 000353   000165 256000 1                  ORSQ    FPT_WRITE+11

     1743     3789    4                   CALL XSL$EVLOG( 'WR', ADDR(SOCK));

   3789  3 000354   200003 236100                    LDQ     @SOCK,,AUTO
         3 000355   200122 756100                    STQ     X+2,,AUTO
         3 000356   200122 631500                    EPPR1   X+2,,AUTO
         3 000357   200125 451500                    STP1    X+5,,AUTO
         3 000360   000004 236000 4                  LDQ     4
         3 000361   200124 756100                    STQ     X+4,,AUTO
         3 000362   200124 630500                    EPPR0   X+4,,AUTO
         3 000363   000020 631400 xsym               EPPR1   B_VECTNIL+16
         3 000364   000000 701000 xent               TSX1    XSL$EVLOG
         3 000365   000000 011000                    NOP     0

     1744     3790    4                   CALL M$WRITE( FPT_WRITE) ALTRET( OOPSLOG);

   3790  3 000366   000152 630400 1                  EPPR0   FPT_WRITE
         3 000367   440001 713400                    CLIMB   alt,write
PL6.E3A0      #009=XSL$CL File=XSL$SOCKET1.:TCA2TSI                              SUN 11/16/97 14:34 Page:248
         3 000370   401400 401760                    pmme    nvectors=4
         3 000371   001110 702000 3                  TSX2    OOPSLOG

     1745     3791    4                   END;

     1746     3792    3               END;

   3792  3 000372   000411 710000 3                  TRA     LOOK4IT

     1747     3793    3           ELSE DO;

     1748     3794                    /* fewer than 3 reads pending */
     1749     3795    3               IF LATCH ~= 0 THEN

   3795  3 000373   000206 235000 1                  LDA     LATCH
         3 000374   000405 600000 3                  TZE     s:3798

     1750     3796    3                   CALL XSL$GETBUF( SOCK, XSL_KEYBUF) ALTRET( WRITE_IT);

   3796  3 000375   000011 236000 4                  LDQ     9
         3 000376   200003 235100                    LDA     @SOCK,,AUTO
         3 000377   200122 757100                    STAQ    X+2,,AUTO
         3 000400   200122 630500                    EPPR0   X+2,,AUTO
         3 000401   000020 631400 xsym               EPPR1   B_VECTNIL+16
         3 000402   000000 701000 xent               TSX1    XSL$GETBUF
         3 000403   000337 702000 3                  TSX2    WRITE_IT
         3 000404   000411 710000 3                  TRA     LOOK4IT

     1751     3797    3               ELSE
     1752     3798    3                   CALL XSL$GETBUF( SOCK);  /* ignore ALTRET here */

   3798  3 000405   200003 630500                    EPPR0   @SOCK,,AUTO
         3 000406   000017 631400 xsym               EPPR1   B_VECTNIL+15
         3 000407   000000 701000 xent               TSX1    XSL$GETBUF
         3 000410   000000 011000                    NOP     0

     1753     3799    3               END;
PL6.E3A0      #009=XSL$CL File=XSL$SOCKET1.:TCA2TSI                              SUN 11/16/97 14:34 Page:249

     1754     3800    2           END;

     1755     3801    1   LOOK4IT:
     1756     3802    1       BUFPND# = SOCK.BUFPND#;

   3802  3 000411   200003 470500       LOOK4IT      LDP0    @SOCK,,AUTO
         3 000412   000017 236100                    LDQ     15,,PR0
         3 000413   777777 376007                    ANQ     -1,DL
         3 000414   200010 756100                    STQ     BUFPND#,,AUTO

     1757     3803    1       BUF$ = PINCRW( XSL_SOCK$$, SOCK.BUFHD);

   3803  3 000415   000016 220100                    LDX0    14,,PR0
         3 000416   000000 636010                    EAQ     0,X0
         3 000417   000000 036000 xsym               ADLQ    XSL_SOCK$$
         3 000420   200013 756100                    STQ     BUF$,,AUTO

     1758     3804    2       DO WHILE( BUF$ ~= XSL_SOCK$$);

   3804  3 000421   000000 116000 xsym               CMPQ    XSL_SOCK$$
         3 000422   000473 600000 3                  TZE     s:3820

     1759     3805    2           IF DATABUF.FLAGS.BUSY THEN EXIT;

   3805  3 000423   200013 470500                    LDP0    BUF$,,AUTO
         3 000424   000001 234100                    SZN     1,,PR0
         3 000425   000473 604000 3                  TMI     s:3820

     1760     3806    3           IF NUM = DATABUF.KEY(1) THEN DO;

   3806  3 000426   000002 236100                    LDQ     2,,PR0
         3 000427   000022 772000                    QRL     18
         3 000430   000777 376007                    ANQ     511,DL
         3 000431   200012 116100                    CMPQ    NUM,,AUTO
         3 000432   000465 601000 3                  TNZ     s:3818

PL6.E3A0      #009=XSL$CL File=XSL$SOCKET1.:TCA2TSI                              SUN 11/16/97 14:34 Page:250
     1761     3807                    /* found the RSP we're looking for */
     1762     3808    3               XSL_KEYBUF = DATABUF.KEY;

   3808  3 000433   000000 100500                    MLR     fill='000'O
         3 000434   000002 000040                    ADSC9   2,,PR0                   cn=0,n=32
         3 000435   000000 000040 xsym               ADSC9   XSL_KEYBUF               cn=0,n=32

     1763     3809    4               IF NUM ~= %RECVRSP AND NUM ~= %RECVFROMRSP THEN DO INHIBIT;

   3809  3 000436   200012 235100                    LDA     NUM,,AUTO
         3 000437   000016 115007                    CMPA    14,DL
         3 000440   000464 600000 3                  TZE     s:3816
         3 000441   000020 115007                    CMPA    16,DL
         3 000442   000464 600000 3                  TZE     s:3816

     1764     3810    4                   SOCK.DAT# = SOCK.DAT# - 1;

   3810  3 000443   200003 471700                    LDP1  ! @SOCK,,AUTO
         3 000444   100021 720300                    LXL0  ! 17,,PR1
         3 000445   777777 621210                    EAX1  ! -1,X0
         3 000446   100021 441300                    SXL1  ! 17,,PR1

     1765     3811    4                   IF SOCK.DAT# = 0 THEN

   3811  3 000447   000452 601200 3                  TNZ   ! s:3813

     1766     3812    4                       SOCK.FLAGS.SELREAD = '0'B;

   3812  3 000450   000012 236200 4                  LDQ   ! 10
         3 000451   100001 356300                    ANSQ  ! 1,,PR1

     1767     3813    4                   SOCK.BUFPND# = SOCK.BUFPND# - 1;

   3813  3 000452   100017 720300                    LXL0  ! 15,,PR1
         3 000453   777777 622210                    EAX2  ! -1,X0
         3 000454   100017 442300                    SXL2  ! 15,,PR1

PL6.E3A0      #009=XSL$CL File=XSL$SOCKET1.:TCA2TSI                              SUN 11/16/97 14:34 Page:251
     1768     3814    4                   CALL XSL$RELBUF( SOCK, DATABUF);

   3814  3 000455   200013 236300                    LDQ   ! BUF$,,AUTO
         3 000456   200003 235300                    LDA   ! @SOCK,,AUTO
         3 000457   200122 757300                    STAQ  ! X+2,,AUTO
         3 000460   200122 630700                    EPPR0 ! X+2,,AUTO
         3 000461   000020 631600 xsym               EPPR1 ! B_VECTNIL+16
         3 000462   000000 701200 xent               TSX1  ! XSL$RELBUF
         3 000463   000000 011200                    NOP   ! 0

     1769     3815    4                   END;

     1770     3816    3               GOTO CLEANUP;

   3816  3 000464   000575 710000 3                  TRA     CLEANUP

     1771     3817    3               END;
     1772     3818    2           BUF$ = PINCRW( XSL_SOCK$$, DATABUF.NXT);

   3818  3 000465   000001 720100                    LXL0    1,,PR0
         3 000466   000000 636010                    EAQ     0,X0
         3 000467   000000 036000 xsym               ADLQ    XSL_SOCK$$
         3 000470   200013 756100                    STQ     BUF$,,AUTO

     1773     3819    2           END;

   3819  3 000471   000000 116000 xsym               CMPQ    XSL_SOCK$$
         3 000472   000423 601000 3                  TNZ     s:3805

     1774     3820    2       IF SOCK.FLAGS.CONNECTING THEN DO;

   3820  3 000473   200003 470500                    LDP0    @SOCK,,AUTO
         3 000474   000001 236100                    LDQ     1,,PR0
         3 000475   000200 316003                    CANQ    128,DU
         3 000476   000502 600000 3                  TZE     s:3824

     1775     3821    2           XSL_KEYBUF(2) = %E$ALREADY;
PL6.E3A0      #009=XSL$CL File=XSL$SOCKET1.:TCA2TSI                              SUN 11/16/97 14:34 Page:252

   3821  3 000477   000140 220003                    LDX0    96,DU
         3 000500   000001 740000 xsym               STX0    XSL_KEYBUF+1

     1776     3822    2           GOTO OOPS1;

   3822  3 000501   001166 710000 3                  TRA     OOPS1

     1777     3823    2           END;
     1778     3824    2       IF NUM = %CONNECTRSP AND NOT SOCK.FLAGS.BLOCKING THEN DO;

   3824  3 000502   200012 235100                    LDA     NUM,,AUTO
         3 000503   000006 115007                    CMPA    6,DL
         3 000504   000514 601000 3                  TNZ     s:3829
         3 000505   000001 430100                    FSZN    1,,PR0
         3 000506   000514 604000 3                  TMI     s:3829

     1779     3825    2           SOCK.FLAGS.CONNECTING = '1'B;

   3825  3 000507   000200 236003                    LDQ     128,DU
         3 000510   000001 256100                    ORSQ    1,,PR0

     1780     3826    2           XSL_KEYBUF(2) = %E$INPROGRESS;

   3826  3 000511   000137 220003                    LDX0    95,DU
         3 000512   000001 740000 xsym               STX0    XSL_KEYBUF+1

     1781     3827    2           GOTO OOPS1;

   3827  3 000513   001166 710000 3                  TRA     OOPS1

     1782     3828    2           END;
     1783     3829    2       IF SOCK.FLAGS.ACCEPTING THEN DO;

   3829  3 000514   000100 316003                    CANQ    64,DU
         3 000515   000521 600000 3                  TZE     s:3833

PL6.E3A0      #009=XSL$CL File=XSL$SOCKET1.:TCA2TSI                              SUN 11/16/97 14:34 Page:253
     1784     3830    2           XSL_KEYBUF(2) = %E$WOULDBLOCK;

   3830  3 000516   000136 220003                    LDX0    94,DU
         3 000517   000001 740000 xsym               STX0    XSL_KEYBUF+1

     1785     3831    2           GOTO OOPS1;

   3831  3 000520   001166 710000 3                  TRA     OOPS1

     1786     3832    2           END;
     1787     3833    2       IF NUM = %ACCEPTRSP AND NOT SOCK.FLAGS.BLOCKING THEN DO;

   3833  3 000521   000002 115007                    CMPA    2,DL
         3 000522   000532 601000 3                  TNZ     s:3839
         3 000523   000001 430100                    FSZN    1,,PR0
         3 000524   000532 604000 3                  TMI     s:3839

     1788     3834    2           SOCK.FLAGS.ACCEPTING = '1'B;

   3834  3 000525   000100 236003                    LDQ     64,DU
         3 000526   000001 256100                    ORSQ    1,,PR0

     1789     3835    2           XSL_KEYBUF(2) = %E$WOULDBLOCK;

   3835  3 000527   000136 220003                    LDX0    94,DU
         3 000530   000001 740000 xsym               STX0    XSL_KEYBUF+1

     1790     3836    2           GOTO OOPS1;

   3836  3 000531   001166 710000 3                  TRA     OOPS1

     1791     3837    2           END;
     1792     3838    2       DO INHIBIT;

     1793     3839    2           IF DCBADDR( SOCK.DCB#)->F$DCB.FCN.CNT(0) = 0 THEN

   3839  3 000532   000002 471600 4                  LDP1  ! 2
PL6.E3A0      #009=XSL$CL File=XSL$SOCKET1.:TCA2TSI                              SUN 11/16/97 14:34 Page:254
         3 000533   100000 473700                    LDP3  ! 0,,PR1
         3 000534   000003 720300                    LXL0  ! 3,,PR0
         3 000535   300000 474710                    LDP4  ! 0,X0,PR3
         3 000536   400074 236300                    LDQ   ! 60,,PR4
         3 000537   377000 316203                    CANQ  ! 130560,DU
         3 000540   000543 601200 3                  TNZ   ! s:3841

     1794     3840    2               SOCK.FLAGS.MUSTREAD = '1'B;

   3840  3 000541   000001 236203                    LDQ   ! 1,DU
         3 000542   000001 256300                    ORSQ  ! 1,,PR0

     1795     3841    2           IF SOCK.FLAGS.MUSTREAD THEN GOTO READ_IT;

   3841  3 000543   000001 236300                    LDQ   ! 1,,PR0
         3 000544   000001 316203                    CANQ  ! 1,DU
         3 000545   000147 601200 3                  TNZ   ! READ_IT

     1796     3842    2           IF BUFPND# ~= SOCK.BUFPND# THEN GOTO LOOK4IT;

   3842  3 000546   000017 236300                    LDQ   ! 15,,PR0
         3 000547   777777 376207                    ANQ   ! -1,DL
         3 000550   200010 116300                    CMPQ  ! BUFPND#,,AUTO
         3 000551   000411 601200 3                  TNZ   ! LOOK4IT

     1797     3843    2           XSL_UETIME = 0;

   3843  3 000552   000204 450200 1                  STZ   ! XSL_UETIME

     1798     3844    3           DO WHILE( XSL_UETIME = 0);

   3844  3 000553   000204 235200 1                  LDA   ! XSL_UETIME
         3 000554   000574 601200 3                  TNZ   ! s:3849

     1799     3845    3               CALL XSL$EVLOG( 'WT', ADDR(SOCK));

   3845  3 000555   200003 236300                    LDQ   ! @SOCK,,AUTO
PL6.E3A0      #009=XSL$CL File=XSL$SOCKET1.:TCA2TSI                              SUN 11/16/97 14:34 Page:255
         3 000556   200122 756300                    STQ   ! X+2,,AUTO
         3 000557   200122 630700                    EPPR0 ! X+2,,AUTO
         3 000560   200125 450700                    STP0  ! X+5,,AUTO
         3 000561   000013 236200 4                  LDQ   ! 11
         3 000562   200124 756300                    STQ   ! X+4,,AUTO
         3 000563   200124 630700                    EPPR0 ! X+4,,AUTO
         3 000564   000020 631600 xsym               EPPR1 ! B_VECTNIL+16
         3 000565   000000 701200 xent               TSX1  ! XSL$EVLOG
         3 000566   000000 011200                    NOP   ! 0

     1800     3846    3               CALL M$WAIT( XSL_WAIT1DAY);

   3846  3 000567   000000 630600 2                  EPPR0 ! XSL_WAIT1DAY
         3 000570   020006 713600                    CLIMB ! 8198
         3 000571   400400 401760                    pmme    nvectors=2

     1801     3847    3               END;

   3847  3 000572   000204 235200 1                  LDA   ! XSL_UETIME
         3 000573   000555 600200 3                  TZE   ! s:3845

     1802     3848    2           END;

     1803     3849    1       GOTO LOOK4IT;

   3849  3 000574   000411 710000 3                  TRA     LOOK4IT

     1804     3850    1   CLEANUP:
     1805     3851    1       IF NUM = %CONNECTRSP AND SOCK.FLAGS.CONNECTING THEN

   3851  3 000575   200012 235100       CLEANUP      LDA     NUM,,AUTO
         3 000576   000006 115007                    CMPA    6,DL
         3 000577   000606 601000 3                  TNZ     s:3853
         3 000600   200003 470500                    LDP0    @SOCK,,AUTO
         3 000601   000001 236100                    LDQ     1,,PR0
         3 000602   000200 316003                    CANQ    128,DU
         3 000603   000606 600000 3                  TZE     s:3853
PL6.E3A0      #009=XSL$CL File=XSL$SOCKET1.:TCA2TSI                              SUN 11/16/97 14:34 Page:256

     1806     3852    1           SOCK.FLAGS.CONNECTING = '0'B;

   3852  3 000604   000014 236000 4                  LDQ     12
         3 000605   000001 356100                    ANSQ    1,,PR0

     1807     3853    1       IF NUM = %ACCEPTRSP AND SOCK.FLAGS.ACCEPTING THEN

   3853  3 000606   200012 235100                    LDA     NUM,,AUTO
         3 000607   000002 115007                    CMPA    2,DL
         3 000610   000617 601000 3                  TNZ     s:3855
         3 000611   200003 470500                    LDP0    @SOCK,,AUTO
         3 000612   000001 236100                    LDQ     1,,PR0
         3 000613   000100 316003                    CANQ    64,DU
         3 000614   000617 600000 3                  TZE     s:3855

     1808     3854    1           SOCK.FLAGS.ACCEPTING = '0'B;

   3854  3 000615   000015 236000 4                  LDQ     13
         3 000616   000001 356100                    ANSQ    1,,PR0

     1809     3855    1       NUM = HCOUNT( NUM);

   3855  3 000617   200012 235100                    LDA     NUM,,AUTO
         3 000620   000100 101405                    MRL     fill='000'O
         3 000621   000024 000001 2                  ADSC9   HCOUNT,A                 cn=0,n=1
         3 000622   200012 000004                    ADSC9   NUM,,AUTO                cn=0,n=4

     1810     3856    1       CALL XSL$H8TO9( NUM);  /* convert first NUM halfwords 8-to-9 */

   3856  3 000623   200012 630500                    EPPR0   NUM,,AUTO
         3 000624   200122 450500                    STP0    X+2,,AUTO
         3 000625   200122 630500                    EPPR0   X+2,,AUTO
         3 000626   000017 631400 xsym               EPPR1   B_VECTNIL+15
         3 000627   000000 701000 xent               TSX1    XSL$H8TO9
         3 000630   000000 011000                    NOP     0

PL6.E3A0      #009=XSL$CL File=XSL$SOCKET1.:TCA2TSI                              SUN 11/16/97 14:34 Page:257
     1811     3857    1       RETURN;

   3857  3 000631   000000 702200 xent               TSX2  ! X66_ARET

     1812     3858
     1813     3859    1   XSL$CL_OPEN: ENTRY( SOCK, PARM1, PARM2) ALTRET;

   3859  3 000632   000000 700200 xent  XSL$CL_OPEN  TSX0  ! X66_AUTO_4
         3 000633   000126 000004                    ZERO    86,4

     1814     3860
     1815     3861            /* PARM1 is an optional NAME structure, PARM2 is its length */
     1816     3862    1       IF ADDR( PARM1) = ADDR( NIL) THEN

   3862  3 000634   200004 236100                    LDQ     @PARM1,,AUTO
         3 000635   000001 116000 xsym               CMPQ    B_VECTNIL+1
         3 000636   000645 601000 3                  TNZ     s:3865

     1817     3863    1           CALL SNSETUP( SOCK.SOCKNAME);

   3863  3 000637   200003 236100                    LDQ     @SOCK,,AUTO
         3 000640   000004 036003                    ADLQ    4,DU
         3 000641   200115 756100                    STQ     DUMMYCHARS+65,,AUTO
         3 000642   001302 701000 3                  TSX1    SNSETUP
         3 000643   000000 011000                    NOP     0
         3 000644   000650 710000 3                  TRA     s:3866

     1818     3864    1       ELSE
     1819     3865    1           CALL SNSETUP( PARM1);

   3865  3 000645   200115 756100                    STQ     DUMMYCHARS+65,,AUTO
         3 000646   001302 701000 3                  TSX1    SNSETUP
         3 000647   000000 011000                    NOP     0

     1820     3866    1       IF SOCK.MAXRDS = 0 THEN

   3866  3 000650   200003 470500                    LDP0    @SOCK,,AUTO
PL6.E3A0      #009=XSL$CL File=XSL$SOCKET1.:TCA2TSI                              SUN 11/16/97 14:34 Page:258
         3 000651   000020 720100                    LXL0    16,,PR0
         3 000652   000655 601000 3                  TNZ     s:3869

     1821     3867    1           FPT_OPEN.V.EVENT# = 0;

   3867  3 000653   000065 450000 1                  STZ     FPT_OPEN+53
         3 000654   000657 710000 3                  TRA     s:3870

     1822     3868    1       ELSE
     1823     3869    1           ADDR( FPT_OPEN.V.EVENT#)->B$PTR = ADDR( SOCK);  /* for COMIO events */

   3869  3 000655   200003 236100                    LDQ     @SOCK,,AUTO
         3 000656   000065 756000 1                  STQ     FPT_OPEN+53

     1824     3870    1       LAST = '0'B;

   3870  3 000657   200007 450100                    STZ     LAST,,AUTO

   3870  3 000660                       AGAIN        null
     1825     3871    1   AGAIN: ;
     1826     3872    1       SOCK.SERNUM = VLP_SN.SN#(0);

   3872  3 000660   200003 470500                    LDP0    @SOCK,,AUTO
         3 000661   040100 100400                    MLR     fill='040'O
         3 000662   000073 000006 1                  ADSC9   VLP_SN+1                 cn=0,n=6
         3 000663   000002 000006                    ADSC9   2,,PR0                   cn=0,n=6

     1827     3873    1       FPT_OPEN.V.DCB# = SOCK.DCB#;

   3873  3 000664   000003 720100                    LXL0    3,,PR0
         3 000665   000044 740000 1                  STX0    FPT_OPEN+36

     1828     3874    1       FPT_OPEN.V.ATTR# = %ATTR_TCP_PRIV;

   3874  3 000666   604000 221003                    LDX1    -63488,DU
         3 000667   000062 741000 1                  STX1    FPT_OPEN+50

PL6.E3A0      #009=XSL$CL File=XSL$SOCKET1.:TCA2TSI                              SUN 11/16/97 14:34 Page:259
     1829     3875    1       CALL XSL$EVLOG( 'OP', ADDR(SOCK));

   3875  3 000670   200003 236100                    LDQ     @SOCK,,AUTO
         3 000671   200122 756100                    STQ     X+2,,AUTO
         3 000672   200122 631500                    EPPR1   X+2,,AUTO
         3 000673   200125 451500                    STP1    X+5,,AUTO
         3 000674   000016 236000 4                  LDQ     14
         3 000675   200124 756100                    STQ     X+4,,AUTO
         3 000676   200124 630500                    EPPR0   X+4,,AUTO
         3 000677   000020 631400 xsym               EPPR1   B_VECTNIL+16
         3 000700   000000 701000 xent               TSX1    XSL$EVLOG
         3 000701   000000 011000                    NOP     0

     1830     3876    1       CALL M$OPEN( FPT_OPEN)

   3876  3 000702   000000 630400 1                  EPPR0   FPT_OPEN
         3 000703   450000 713400                    CLIMB   alt,open
         3 000704   410400 401760                    pmme    nvectors=18
         3 000705   000707 702000 3                  TSX2    s:3878
         3 000706   000767 710000 3                  TRA     s:3896

     1831     3877    2       WHENALTRETURN DO;

     1832     3878    2           FPT_OPEN.V.ATTR# = %ATTR_TCP_NORMAL;

   3878  3 000707   204000 220003                    LDX0    67584,DU
         3 000710   000062 740000 1                  STX0    FPT_OPEN+50

     1833     3879    2           CALL XSL$EVLOG( 'OP', ADDR(SOCK));

   3879  3 000711   200003 236100                    LDQ     @SOCK,,AUTO
         3 000712   200122 756100                    STQ     X+2,,AUTO
         3 000713   200122 630500                    EPPR0   X+2,,AUTO
         3 000714   200125 450500                    STP0    X+5,,AUTO
         3 000715   000016 236000 4                  LDQ     14
         3 000716   200124 756100                    STQ     X+4,,AUTO
         3 000717   200124 630500                    EPPR0   X+4,,AUTO
PL6.E3A0      #009=XSL$CL File=XSL$SOCKET1.:TCA2TSI                              SUN 11/16/97 14:34 Page:260
         3 000720   000020 631400 xsym               EPPR1   B_VECTNIL+16
         3 000721   000000 701000 xent               TSX1    XSL$EVLOG
         3 000722   000000 011000                    NOP     0

     1834     3880    3           CALL M$OPEN( FPT_OPEN) WHENALTRETURN DO;

   3880  3 000723   000000 630400 1                  EPPR0   FPT_OPEN
         3 000724   450000 713400                    CLIMB   alt,open
         3 000725   410400 401760                    pmme    nvectors=18
         3 000726   000730 702000 3                  TSX2    s:3881
         3 000727   000767 710000 3                  TRA     s:3896

     1835     3881    3               IF LAST THEN GOTO OOPSLOG;

   3881  3 000730   200007 234100                    SZN     LAST,,AUTO
         3 000731   001110 604000 3                  TMI     OOPSLOG

     1836     3882    3               LAST = '1'B;

   3882  3 000732   400000 236003                    LDQ     -131072,DU
         3 000733   200007 756100                    STQ     LAST,,AUTO

     1837     3883    3               IF ADDR( PARM1) = ADDR( NIL) THEN

   3883  3 000734   200004 236100                    LDQ     @PARM1,,AUTO
         3 000735   000001 116000 xsym               CMPQ    B_VECTNIL+1
         3 000736   000751 601000 3                  TNZ     s:3888

     1838     3884    3                   CALL XSL$ROUTES(

   3884  3 000737   000017 236000 4                  LDQ     15
         3 000740   200123 756100                    STQ     X+3,,AUTO
         3 000741   200003 236100                    LDQ     @SOCK,,AUTO
         3 000742   000006 036003                    ADLQ    6,DU
         3 000743   200122 756100                    STQ     X+2,,AUTO
         3 000744   200122 630500                    EPPR0   X+2,,AUTO
         3 000745   000020 631400 xsym               EPPR1   B_VECTNIL+16
PL6.E3A0      #009=XSL$CL File=XSL$SOCKET1.:TCA2TSI                              SUN 11/16/97 14:34 Page:261
         3 000746   000000 701000 xent               TSX1    XSL$ROUTES
         3 000747   000763 702000 3                  TSX2    DFLT
         3 000750   000766 710000 3                  TRA     s:3893

     1839     3885    3                     ADDR( SOCK.SOCKNAME)->XSL$SOCKADDR_IN.S_ADDR,
     1840     3886    3                     VLP_SN.SN#(0)) ALTRET( DFLT);
     1841     3887    3               ELSE
     1842     3888    3                  CALL XSL$ROUTES( ADDR( PARM1)->XSL$SOCKADDR_IN.S_ADDR, VLP_SN.SN#(0)
              3888                            )

   3888  3 000751   000017 236000 4                  LDQ     15
         3 000752   200123 756100                    STQ     X+3,,AUTO
         3 000753   200004 236100                    LDQ     @PARM1,,AUTO
         3 000754   000002 036003                    ADLQ    2,DU
         3 000755   200122 756100                    STQ     X+2,,AUTO
         3 000756   200122 630500                    EPPR0   X+2,,AUTO
         3 000757   000020 631400 xsym               EPPR1   B_VECTNIL+16
         3 000760   000000 701000 xent               TSX1    XSL$ROUTES
         3 000761   000763 702000 3                  TSX2    DFLT
         3 000762   000766 710000 3                  TRA     s:3893

     1843     3889    4                   WHENALTRETURN DO;

     1844     3890    4   DFLT:
     1845     3891    4                       VLP_SN.SN#(0) = XSL_SN;

   3891  3 000763   040000 100400       DFLT         MLR     fill='040'O
         3 000764   000000 000006 xsym               ADSC9   XSL_SN                   cn=0,n=6
         3 000765   000073 000006 1                  ADSC9   VLP_SN+1                 cn=0,n=6

     1846     3892    4                       END;

     1847     3893    3               GOTO AGAIN;

   3893  3 000766   000660 710000 3                  TRA     AGAIN

     1848     3894    3               END;
PL6.E3A0      #009=XSL$CL File=XSL$SOCKET1.:TCA2TSI                              SUN 11/16/97 14:34 Page:262
     1849     3895    2           END;

     1850     3896    1       RETURN;

   3896  3 000767   000000 702200 xent               TSX2  ! X66_ARET

     1851     3897
     1852     3898    1   XSL$CL_GET: ENTRY( SOCK) ALTRET;

   3898  3 000770   000000 700200 xent  XSL$CL_GET   TSX0  ! X66_AUTO_4
         3 000771   000126 000004                    ZERO    86,4

     1853     3899
     1854     3900    1       CALL BINCHAR( SUBSTR( DCBNAME.TXT, 5, 2), SOCK.SOCK#);

   3900  3 000772   200003 470500                    LDP0    @SOCK,,AUTO
         3 000773   000000 236100                    LDQ     0,,PR0
         3 000774   000777 376007                    ANQ     511,DL
         3 000775   000000 235003                    LDA     0,DU
         3 000776   200122 757100                    STAQ    X+2,,AUTO
         3 000777   000000 301500                    BTD
         3 001000   200122 000010                    NDSC9   X+2,,AUTO                cn=0,s=lsgnf,sf=0,n=8
         3 001001   000177 430002 1                  NDSC9   VLP_NAME+1               cn=2,s=nosgn,sf=0,n=2

     1855     3901    1       CALL XSL$EVLOG( 'GT', ADDR(SOCK));

   3901  3 001002   200003 236100                    LDQ     @SOCK,,AUTO
         3 001003   200122 756100                    STQ     X+2,,AUTO
         3 001004   200122 631500                    EPPR1   X+2,,AUTO
         3 001005   200125 451500                    STP1    X+5,,AUTO
         3 001006   000020 236000 4                  LDQ     16
         3 001007   200124 756100                    STQ     X+4,,AUTO
         3 001010   200124 630500                    EPPR0   X+4,,AUTO
         3 001011   000020 631400 xsym               EPPR1   B_VECTNIL+16
         3 001012   000000 701000 xent               TSX1    XSL$EVLOG
         3 001013   000000 011000                    NOP     0

PL6.E3A0      #009=XSL$CL File=XSL$SOCKET1.:TCA2TSI                              SUN 11/16/97 14:34 Page:263
     1856     3902    1       CALL M$GETDCB( FPT_GETDCB) ALTRET( OOPSLOG);

   3902  3 001014   000014 630400 2                  EPPR0   FPT_GETDCB
         3 001015   460002 713400                    CLIMB   alt,+24578
         3 001016   401000 401760                    pmme    nvectors=3
         3 001017   001110 702000 3                  TSX2    OOPSLOG

     1857     3903    1       SOCK.DCB# = DCB#;

   3903  3 001020   000205 720000 1                  LXL0    DCB#
         3 001021   200003 470500                    LDP0    @SOCK,,AUTO
         3 001022   000003 440100                    SXL0    3,,PR0

     1858     3904    1       RETURN;

   3904  3 001023   000000 702200 xent               TSX2  ! X66_ARET

     1859     3905
     1860     3906    1   XSL$CL_REL: ENTRY( SOCK) ALTRET;

   3906  3 001024   000000 700200 xent  XSL$CL_REL   TSX0  ! X66_AUTO_4
         3 001025   000126 000004                    ZERO    86,4

     1861     3907
     1862     3908    1       FPT_RELDCB.V.DCB# = SOCK.DCB#;

   3908  3 001026   200003 470500                    LDP0    @SOCK,,AUTO
         3 001027   000003 720100                    LXL0    3,,PR0
         3 001030   000202 740000 1                  STX0    FPT_RELDCB+2

     1863     3909    1       CALL XSL$EVLOG( 'RL', ADDR(SOCK));

   3909  3 001031   200003 236100                    LDQ     @SOCK,,AUTO
         3 001032   200122 756100                    STQ     X+2,,AUTO
         3 001033   200122 631500                    EPPR1   X+2,,AUTO
         3 001034   200125 451500                    STP1    X+5,,AUTO
         3 001035   000021 236000 4                  LDQ     17
PL6.E3A0      #009=XSL$CL File=XSL$SOCKET1.:TCA2TSI                              SUN 11/16/97 14:34 Page:264
         3 001036   200124 756100                    STQ     X+4,,AUTO
         3 001037   200124 630500                    EPPR0   X+4,,AUTO
         3 001040   000020 631400 xsym               EPPR1   B_VECTNIL+16
         3 001041   000000 701000 xent               TSX1    XSL$EVLOG
         3 001042   000000 011000                    NOP     0

     1864     3910    1       CALL M$RELDCB( FPT_RELDCB) ALTRET( OOPSLOG);

   3910  3 001043   000200 630400 1                  EPPR0   FPT_RELDCB
         3 001044   460003 713400                    CLIMB   alt,+24579
         3 001045   400000 401760                    pmme    nvectors=1
         3 001046   001110 702000 3                  TSX2    OOPSLOG

     1865     3911    1       SOCK.DCB# = DCBNUM( NIL);

   3911  3 001047   000000 220003                    LDX0    0,DU
         3 001050   200003 470500                    LDP0    @SOCK,,AUTO
         3 001051   000003 440100                    SXL0    3,,PR0

     1866     3912    1       RETURN;

   3912  3 001052   000000 702200 xent               TSX2  ! X66_ARET

     1867     3913
     1868     3914    1   XSL$CL_CLOSE: ENTRY( SOCK) ALTRET;

   3914  3 001053   000000 700200 xent  XSL$CL_CLOSE TSX0  ! X66_AUTO_4
         3 001054   000126 000004                    ZERO    86,4

     1869     3915
     1870     3916    1       SOCK.FLAGS.REUSEBUF = '0'B;

   3916  3 001055   200003 470500                    LDP0    @SOCK,,AUTO
         3 001056   000022 236000 4                  LDQ     18
         3 001057   000001 356100                    ANSQ    1,,PR0

     1871     3917    1       IF SOCK.BUFHD ~= 0 THEN
PL6.E3A0      #009=XSL$CL File=XSL$SOCKET1.:TCA2TSI                              SUN 11/16/97 14:34 Page:265

   3917  3 001060   000016 220100                    LDX0    14,,PR0
         3 001061   001066 600000 3                  TZE     s:3919

     1872     3918    1           CALL CANCEL( SOCK);

   3918  3 001062   200003 236100                    LDQ     @SOCK,,AUTO
         3 001063   200115 756100                    STQ     DUMMYCHARS+65,,AUTO
         3 001064   001200 701000 3                  TSX1    CANCEL
         3 001065   000000 011000                    NOP     0

     1873     3919    1       CALL XSL$EVLOG( 'CL', ADDR(SOCK));

   3919  3 001066   200003 236100                    LDQ     @SOCK,,AUTO
         3 001067   200122 756100                    STQ     X+2,,AUTO
         3 001070   200122 630500                    EPPR0   X+2,,AUTO
         3 001071   200125 450500                    STP0    X+5,,AUTO
         3 001072   000023 236000 4                  LDQ     19
         3 001073   200124 756100                    STQ     X+4,,AUTO
         3 001074   200124 630500                    EPPR0   X+4,,AUTO
         3 001075   000020 631400 xsym               EPPR1   B_VECTNIL+16
         3 001076   000000 701000 xent               TSX1    XSL$EVLOG
         3 001077   000000 011000                    NOP     0

     1874     3920    1       FPT_CLOSE.V.DCB# = SOCK.DCB#;

   3920  3 001100   200003 470500                    LDP0    @SOCK,,AUTO
         3 001101   000003 720100                    LXL0    3,,PR0
         3 001102   000130 740000 1                  STX0    FPT_CLOSE+26

     1875     3921    1       CALL M$CLOSE( FPT_CLOSE) ALTRET( OOPSLOG);

   3921  3 001103   000076 630400 1                  EPPR0   FPT_CLOSE
         3 001104   450001 713400                    CLIMB   alt,close
         3 001105   406000 401760                    pmme    nvectors=13
         3 001106   001110 702000 3                  TSX2    OOPSLOG

PL6.E3A0      #009=XSL$CL File=XSL$SOCKET1.:TCA2TSI                              SUN 11/16/97 14:34 Page:266
     1876     3922    1       RETURN;

   3922  3 001107   000000 702200 xent               TSX2  ! X66_ARET

     1877     3923    1   OOPSLOG:
     1878     3924    1       CALL XSL$EVLOG( 'ER', ADDR(SOCK));

   3924  3 001110   200003 236100       OOPSLOG      LDQ     @SOCK,,AUTO
         3 001111   200122 756100                    STQ     X+2,,AUTO
         3 001112   200122 630500                    EPPR0   X+2,,AUTO
         3 001113   200125 450500                    STP0    X+5,,AUTO
         3 001114   000024 236000 4                  LDQ     20
         3 001115   200124 756100                    STQ     X+4,,AUTO
         3 001116   200124 630500                    EPPR0   X+4,,AUTO
         3 001117   000020 631400 xsym               EPPR1   B_VECTNIL+16
         3 001120   000000 701000 xent               TSX1    XSL$EVLOG
         3 001121   000000 011000                    NOP     0

     1879     3925    1       CALL XSL$EVLOG( , B$TCB$->B$TCB.ALT$->B$ALT.ERR);

   3925  3 001122   000000 470400 xsym               LDP0    B$TCB$
         3 001123   000000 471500                    LDP1    0,,PR0
         3 001124   100102 633500                    EPPR3   66,,PR1
         3 001125   200123 453500                    STP3    X+3,,AUTO
         3 001126   000001 236000 xsym               LDQ     B_VECTNIL+1
         3 001127   200122 756100                    STQ     X+2,,AUTO
         3 001130   200122 630500                    EPPR0   X+2,,AUTO
         3 001131   000020 631400 xsym               EPPR1   B_VECTNIL+16
         3 001132   000000 701000 xent               TSX1    XSL$EVLOG
         3 001133   000000 011000                    NOP     0

     1880     3926    2       IF B$TCB$->B$TCB.ALT$->B$ALT.ERR.CODE = %E$NODAT THEN DO;

   3926  3 001134   000000 470400 xsym               LDP0    B$TCB$
         3 001135   000000 471500                    LDP1    0,,PR0
         3 001136   100102 236100                    LDQ     66,,PR1
         3 001137   377770 376007                    ANQ     131064,DL
PL6.E3A0      #009=XSL$CL File=XSL$SOCKET1.:TCA2TSI                              SUN 11/16/97 14:34 Page:267
         3 001140   021000 116007                    CMPQ    8704,DL
         3 001141   001164 601000 3                  TNZ     OOPS

     1881     3927    2           IF LATCH = %SENDTORQS OR LATCH = %SENDRQS OR

   3927  3 001142   000206 235000 1                  LDA     LATCH
         3 001143   000025 115007                    CMPA    21,DL
         3 001144   001164 600000 3                  TZE     OOPS
         3 001145   000023 115007                    CMPA    19,DL
         3 001146   001164 600000 3                  TZE     OOPS
         3 001147   000000 115003                    CMPA    0,DU
         3 001150   001156 601000 3                  TNZ     s:3930
         3 001151   200011 235100                    LDA     LATCHTMP,,AUTO
         3 001152   000025 115007                    CMPA    21,DL
         3 001153   001164 600000 3                  TZE     OOPS
         3 001154   000023 115007                    CMPA    19,DL
         3 001155   001164 600000 3                  TZE     OOPS

     1882     3928    2             ( LATCH = 0 AND ( LATCHTMP = %SENDTORQS OR LATCHTMP = %SENDRQS)) THEN
     1883     3929    2               GOTO OOPS;  /* send/write will do the right thing */
     1884     3930    2           CALL M$WAIT( XSL_WAIT1SEC);

   3930  3 001156   000006 630400 2                  EPPR0   XSL_WAIT1SEC
         3 001157   020006 713400                    CLIMB   8198
         3 001160   400400 401760                    pmme    nvectors=2

     1885     3931    2           CALL M$RETRY ALTRET( OOPSLOG);

   3931  3 001161   410010 713400                    CLIMB   alt,+4104
         3 001162   000000 401760                    pmme    nvectors=0
         3 001163   001110 702000 3                  TSX2    OOPSLOG

     1886     3932    2           END;

     1887     3933    1   OOPS:
     1888     3934    1       XSL_KEYBUF(2) = %E$FAILURE; /* ERRNO for RSP messages */

PL6.E3A0      #009=XSL$CL File=XSL$SOCKET1.:TCA2TSI                              SUN 11/16/97 14:34 Page:268
   3934  3 001164   777777 220003       OOPS         LDX0    -1,DU
         3 001165   000001 740000 xsym               STX0    XSL_KEYBUF+1

     1889     3935    1   OOPS1:
     1890     3936    1       XSL_KEYBUF(1) = %E$FAILURE; /* RESULT for RSP messages */

   3936  3 001166   777777 221003       OOPS1        LDX1    -1,DU
         3 001167   000000 441000 xsym               SXL1    XSL_KEYBUF

     1891     3937    1       ALTRETURN;

   3937  3 001170   000000 702200 xent               TSX2  ! X66_AALT

     1892     3938        %EJECT;
PL6.E3A0      #009=XSL$CL File=XSL$SOCKET1.:TCA2TSI                              SUN 11/16/97 14:34 Page:269
     1893     3939    1   XSL$CL_CANCEL: ENTRY( SOCK) ALTRET;

   3939  3 001171   000000 700200 xent  XSL$CL_CANC* TSX0  ! X66_AUTO_4
         3 001172   000126 000004                    ZERO    86,4

     1894     3940
     1895     3941    1       CALL CANCEL( SOCK);

   3941  3 001173   200003 236100                    LDQ     @SOCK,,AUTO
         3 001174   200115 756100                    STQ     DUMMYCHARS+65,,AUTO
         3 001175   001200 701000 3                  TSX1    CANCEL
         3 001176   000000 011000                    NOP     0

     1896     3942    1       RETURN;

   3942  3 001177   000000 702200 xent               TSX2  ! X66_ARET

     1897     3943
     1898     3944    1   CANCEL: PROC( SOCK);

   3944  3 001200   200114 741300       CANCEL       STX1  ! DUMMYCHARS+64,,AUTO

     1899     3945
     1900     3946    2       DCL BUF$ PTR;
     1901     3947    2       DCL MUSTWAIT BIT(1);
     1902     3948            %XSL$DATABUF( FPTN=DATABUF, STCLASS="BASED( BUF$)");
     1903     3981            %XSL$SOCKINFO( FPTN=SOCK, STCLASS=);
     1904     4125
     1905     4126    3       DO INHIBIT;

     1906     4127    4           IF DCBADDR( SOCK.DCB#)->F$DCB.FCN.CNT(0) ~= 0 THEN DO;

   4127  3 001201   000002 470600 4                  LDP0  ! 2
         3 001202   000000 471700                    LDP1  ! 0,,PR0
         3 001203   200115 473700                    LDP3  ! @SOCK,,AUTO
         3 001204   300003 720300                    LXL0  ! 3,,PR3
         3 001205   100000 474710                    LDP4  ! 0,X0,PR1
PL6.E3A0      #009=XSL$CL File=XSL$SOCKET1.:TCA2TSI                              SUN 11/16/97 14:34 Page:270
         3 001206   400074 236300                    LDQ   ! 60,,PR4
         3 001207   377000 316203                    CANQ  ! 130560,DU
         3 001210   001231 600200 3                  TZE   ! WAIT4IO

     1907     4128    4               CALL XSL$EVLOG( 'XX', ADDR(SOCK));

   4128  3 001211   200115 236300                    LDQ   ! @SOCK,,AUTO
         3 001212   200122 756300                    STQ   ! X+2,,AUTO
         3 001213   200122 634700                    EPPR4 ! X+2,,AUTO
         3 001214   200125 454700                    STP4  ! X+5,,AUTO
         3 001215   000025 236200 4                  LDQ   ! 21
         3 001216   200124 756300                    STQ   ! X+4,,AUTO
         3 001217   200124 630700                    EPPR0 ! X+4,,AUTO
         3 001220   000020 631600 xsym               EPPR1 ! B_VECTNIL+16
         3 001221   000000 701200 xent               TSX1  ! XSL$EVLOG
         3 001222   000000 011200                    NOP   ! 0

     1908     4129    4               FPT_TRMPRG.V.DCB# = SOCK.DCB#;

   4129  3 001223   200115 470700                    LDP0  ! @SOCK,,AUTO
         3 001224   000003 720300                    LXL0  ! 3,,PR0
         3 001225   000172 740200 1                  STX0  ! FPT_TRMPRG+4

     1909     4130    4               CALL M$TRMPRG( FPT_TRMPRG);  /* cancel NW read(s) */

   4130  3 001226   000166 630600 1                  EPPR0 ! FPT_TRMPRG
         3 001227   160004 713600                    CLIMB ! 57348
         3 001230   400400 401760                    pmme    nvectors=2

     1910     4131    4               END;

     1911     4132    3   WAIT4IO:
     1912     4133    3           MUSTWAIT = '0'B;

   4133  3 001231   200117 450300       WAIT4IO      STZ   ! MUSTWAIT,,AUTO

     1913     4134    3           BUF$ = PINCRW( XSL_SOCK$$, SOCK.BUFHD);
PL6.E3A0      #009=XSL$CL File=XSL$SOCKET1.:TCA2TSI                              SUN 11/16/97 14:34 Page:271

   4134  3 001232   200115 470700                    LDP0  ! @SOCK,,AUTO
         3 001233   000016 220300                    LDX0  ! 14,,PR0
         3 001234   000000 636210                    EAQ   ! 0,X0
         3 001235   000000 036200 xsym               ADLQ  ! XSL_SOCK$$
         3 001236   200116 756300                    STQ   ! BUF$,,AUTO

     1914     4135    4           DO WHILE( BUF$ ~= XSL_SOCK$$);

   4135  3 001237   000000 116200 xsym               CMPQ  ! XSL_SOCK$$
         3 001240   001257 600200 3                  TZE   ! s:4139

     1915     4136    4               MUSTWAIT = MUSTWAIT | DATABUF.FLAGS.BUSY;

   4136  3 001241   200116 470700                    LDP0  ! BUF$,,AUTO
         3 001242   000001 236300                    LDQ   ! 1,,PR0
         3 001243   400000 376203                    ANQ   ! -131072,DU
         3 001244   200122 756300                    STQ   ! X+2,,AUTO
         3 001245   200117 236300                    LDQ   ! MUSTWAIT,,AUTO
         3 001246   400000 376203                    ANQ   ! -131072,DU
         3 001247   200122 276300                    ORQ   ! X+2,,AUTO
         3 001250   200117 756300                    STQ   ! MUSTWAIT,,AUTO

     1916     4137    4               BUF$ = PINCRW( XSL_SOCK$$, DATABUF.NXT);

   4137  3 001251   000001 720300                    LXL0  ! 1,,PR0
         3 001252   000000 636210                    EAQ   ! 0,X0
         3 001253   000000 036200 xsym               ADLQ  ! XSL_SOCK$$
         3 001254   200116 756300                    STQ   ! BUF$,,AUTO

     1917     4138    4               END;

   4138  3 001255   000000 116200 xsym               CMPQ  ! XSL_SOCK$$
         3 001256   001241 601200 3                  TNZ   ! s:4136

     1918     4139    4           IF MUSTWAIT THEN DO;

PL6.E3A0      #009=XSL$CL File=XSL$SOCKET1.:TCA2TSI                              SUN 11/16/97 14:34 Page:272
   4139  3 001257   200117 234300                    SZN   ! MUSTWAIT,,AUTO
         3 001260   001277 605200 3                  TPL   ! s:4144

     1919     4140    4               CALL XSL$EVLOG( 'WX', ADDR(SOCK));

   4140  3 001261   200115 236300                    LDQ   ! @SOCK,,AUTO
         3 001262   200122 756300                    STQ   ! X+2,,AUTO
         3 001263   200122 630700                    EPPR0 ! X+2,,AUTO
         3 001264   200125 450700                    STP0  ! X+5,,AUTO
         3 001265   000026 236200 4                  LDQ   ! 22
         3 001266   200124 756300                    STQ   ! X+4,,AUTO
         3 001267   200124 630700                    EPPR0 ! X+4,,AUTO
         3 001270   000020 631600 xsym               EPPR1 ! B_VECTNIL+16
         3 001271   000000 701200 xent               TSX1  ! XSL$EVLOG
         3 001272   000000 011200                    NOP   ! 0

     1920     4141    4               CALL M$WAIT( XSL_WAIT1DAY);  /* force event delivery */

   4141  3 001273   000000 630600 2                  EPPR0 ! XSL_WAIT1DAY
         3 001274   020006 713600                    CLIMB ! 8198
         3 001275   400400 401760                    pmme    nvectors=2

     1921     4142    4               GOTO WAIT4IO;

   4142  3 001276   001231 710200 3                  TRA   ! WAIT4IO

     1922     4143    4               END;
     1923     4144    3           RETURN;

   4144  3 001277   200114 221300                    LDX1  ! DUMMYCHARS+64,,AUTO
         3 001300   000001 702211                    TSX2  ! 1,X1

     1924     4145    3           END;

     1925     4146
     1926     4147    2   END CANCEL;

PL6.E3A0      #009=XSL$CL File=XSL$SOCKET1.:TCA2TSI                              SUN 11/16/97 14:34 Page:273
   4147  3 001301   000001 702211                    TSX2  ! 1,X1

     1927     4148        %EJECT;
PL6.E3A0      #009=XSL$CL File=XSL$SOCKET1.:TCA2TSI                              SUN 11/16/97 14:34 Page:274
     1928     4149    1   SNSETUP: PROC( NAME);

   4149  3 001302   200114 741300       SNSETUP      STX1  ! DUMMYCHARS+64,,AUTO

     1929     4150
     1930     4151            %XSL$SOCKADDR( FPTN=NAME, STCLASS=);
     1931     4191
     1932     4192    2       DCL XSL$NTOHL ENTRY(2);
     1933     4193
     1934     4194    2       DCL XSL_NETMASK SBIN SYMREF;
     1935     4195    2       DCL MSK(0:3) REDEF XSL_NETMASK BIT(9) CALIGNED;
     1936     4196    2       DCL XSL_SN CHAR(6) SYMREF;
     1937     4197
     1938     4198    2       DCL I UBIN;
     1939     4199    2       DCL L UBIN;
     1940     4200    2       DCL X UBIN;
     1941     4201    2       DCL XCHARS CHAR(0) CONSTANT INIT( '0123456789ABCDEF');
     1942     4202
     1943     4203    2       VLP_SN.SN#(0) = XSL_SN;

   4203  3 001303   040000 100400                    MLR     fill='040'O
         3 001304   000000 000006 xsym               ADSC9   XSL_SN                   cn=0,n=6
         3 001305   000073 000006 1                  ADSC9   VLP_SN+1                 cn=0,n=6

     1944     4204    2       X = NAME.SA_DATA(4);

   4204  3 001306   200115 470500                    LDP0    @NAME,,AUTO
         3 001307   000002 236100                    LDQ     2,,PR0
         3 001310   000033 772000                    QRL     27
         3 001311   200120 756100                    STQ     X,,AUTO

     1945     4205    2       IF X = 0 THEN RETURN;

   4205  3 001312   001314 601000 3                  TNZ     s:4206

   4205  3 001313   000001 702211                    TSX2  ! 1,X1

PL6.E3A0      #009=XSL$CL File=XSL$SOCKET1.:TCA2TSI                              SUN 11/16/97 14:34 Page:275
     1946     4206    2       VLP_SN.SN#(0) = '      ';

   4206  3 001314   040000 100400                    MLR     fill='040'O
         3 001315   000055 000006 2                  ADSC9   XCHARS+14                cn=0,n=6
         3 001316   000073 000006 1                  ADSC9   VLP_SN+1                 cn=0,n=6

     1947     4207    3       IF XSL_NETMASK = -1 THEN DO;

   4207  3 001317   000000 235000 xsym               LDA     XSL_NETMASK
         3 001320   000027 115000 xsym               CMPA    B_VECTNIL+23
         3 001321   001337 601000 3                  TNZ     s:4215

     1948     4208                /* figure out length based on top bits of address */
     1949     4209    3           IF X < 128 THEN L = 2;

   4209  3 001322   000200 116007                    CMPQ    128,DL
         3 001323   001327 603000 3                  TRC     s:4210

   4209  3 001324   000002 235007                    LDA     2,DL
         3 001325   200117 755100                    STA     L,,AUTO
         3 001326   001366 710000 3                  TRA     s:4222

     1950     4210    3           ELSE IF X < 192 THEN L = 4;

   4210  3 001327   000300 116007                    CMPQ    192,DL
         3 001330   001334 603000 3                  TRC     s:4211

   4210  3 001331   000004 235007                    LDA     4,DL
         3 001332   200117 755100                    STA     L,,AUTO
         3 001333   001366 710000 3                  TRA     s:4222

     1951     4211    3               ELSE L = 6;

   4211  3 001334   000006 235007                    LDA     6,DL
         3 001335   200117 755100                    STA     L,,AUTO

     1952     4212    3           END;
PL6.E3A0      #009=XSL$CL File=XSL$SOCKET1.:TCA2TSI                              SUN 11/16/97 14:34 Page:276

   4212  3 001336   001366 710000 3                  TRA     s:4222

     1953     4213    3       ELSE DO;

     1954     4214                /* figure out length based on number of nonzero netmask nibbles */
     1955     4215    3           CALL XSL$NTOHL( X, XSL_NETMASK);

   4215  3 001337   000027 236000 4                  LDQ     23
         3 001340   200123 756100                    STQ     X+3,,AUTO
         3 001341   200120 631500                    EPPR1   X,,AUTO
         3 001342   200122 451500                    STP1    X+2,,AUTO
         3 001343   200122 630500                    EPPR0   X+2,,AUTO
         3 001344   000020 631400 xsym               EPPR1   B_VECTNIL+16
         3 001345   000000 701000 xent               TSX1    XSL$NTOHL
         3 001346   000000 011000                    NOP     0

     1956     4216    3           X = X/256;  /* lose lower 2 nibbles */

   4216  3 001347   200120 236100                    LDQ     X,,AUTO
         3 001350   000010 772000                    QRL     8
         3 001351   200120 756100                    STQ     X,,AUTO

     1957     4217    4           DO L = 6 DOWNTO 1;

   4217  3 001352   000006 235007                    LDA     6,DL
         3 001353   200117 755100                    STA     L,,AUTO

     1958     4218    4               IF MOD( X, 16) ~= 0 THEN EXIT;

   4218  3 001354   200120 236100                    LDQ     X,,AUTO
         3 001355   000017 376007                    ANQ     15,DL
         3 001356   001366 601000 3                  TNZ     s:4222

     1959     4219    4               X = X/16;

   4219  3 001357   200120 236100                    LDQ     X,,AUTO
PL6.E3A0      #009=XSL$CL File=XSL$SOCKET1.:TCA2TSI                              SUN 11/16/97 14:34 Page:277
         3 001360   000004 772000                    QRL     4
         3 001361   200120 756100                    STQ     X,,AUTO

     1960     4220    4               END;

   4220  3 001362   200117 235100                    LDA     L,,AUTO
         3 001363   000001 135007                    SBLA    1,DL
         3 001364   200117 755100                    STA     L,,AUTO
         3 001365   001354 601000 3                  TNZ     s:4218

     1961     4221    3           END;

     1962     4222    3       DO I = 0 TO L-1;

   4222  3 001366   200116 450100                    STZ     I,,AUTO
         3 001367   001432 710000 3                  TRA     s:4229+2

     1963     4223    3           X = BITBIN( BINBIT( NAME.SA_DATA( 4 + I/2), 9) & MSK( I/2));

   4223  3 001370   200116 236100                    LDQ     I,,AUTO
         3 001371   000001 772000                    QRL     1
         3 001372   200115 470500                    LDP0    @NAME,,AUTO
         3 001373   000100 101506                    MRL     fill='000'O
         3 001374   000002 000001                    ADSC9   2,Q,PR0                  cn=0,n=1
         3 001375   200122 000004                    ADSC9   X+2,,AUTO                cn=0,n=4
         3 001376   200122 236100                    LDQ     X+2,,AUTO
         3 001377   000033 736000                    QLS     27
         3 001400   200123 756100                    STQ     X+3,,AUTO
         3 001401   200116 236100                    LDQ     I,,AUTO
         3 001402   000001 772000                    QRL     1
         3 001403   000100 100406                    MLR     fill='000'O
         3 001404   000000 000001 xsym               ADSC9   XSL_NETMASK,Q            cn=0,n=1
         3 001405   200124 000004                    ADSC9   X+4,,AUTO                cn=0,n=4
         3 001406   200124 236100                    LDQ     X+4,,AUTO
         3 001407   200123 376100                    ANQ     X+3,,AUTO
         3 001410   000033 772000                    QRL     27
         3 001411   200120 756100                    STQ     X,,AUTO
PL6.E3A0      #009=XSL$CL File=XSL$SOCKET1.:TCA2TSI                              SUN 11/16/97 14:34 Page:278

     1964     4224    3           IF MOD( I, 2) ~= 0 THEN

   4224  3 001412   200116 236100                    LDQ     I,,AUTO
         3 001413   000001 376007                    ANQ     1,DL
         3 001414   001421 600000 3                  TZE     s:4227

     1965     4225    3               X = MOD( X, 16);

   4225  3 001415   200120 236100                    LDQ     X,,AUTO
         3 001416   000017 376007                    ANQ     15,DL
         3 001417   200120 756100                    STQ     X,,AUTO
         3 001420   001424 710000 3                  TRA     s:4228

     1966     4226    3           ELSE
     1967     4227    3               X = X/16;

   4227  3 001421   200120 236100                    LDQ     X,,AUTO
         3 001422   000004 772000                    QRL     4
         3 001423   200120 756100                    STQ     X,,AUTO

     1968     4228    3           SUBSTR( VLP_SN.SN#(0), I, 1) = SUBSTR( XCHARS, X, 1);

   4228  3 001424   200116 235100                    LDA     I,,AUTO
         3 001425   040005 100406                    MLR     fill='040'O
         3 001426   000037 000001 2                  ADSC9   XCHARS,Q                 cn=0,n=1
         3 001427   000073 000001 1                  ADSC9   VLP_SN+1,A               cn=0,n=1

     1969     4229    3           END;

   4229  3 001430   000001 035007                    ADLA    1,DL
         3 001431   200116 755100                    STA     I,,AUTO
         3 001432   200116 236100                    LDQ     I,,AUTO
         3 001433   200117 116100                    CMPQ    L,,AUTO
         3 001434   001370 602000 3                  TNC     s:4223

     1970     4230    2       RETURN;
PL6.E3A0      #009=XSL$CL File=XSL$SOCKET1.:TCA2TSI                              SUN 11/16/97 14:34 Page:279

   4230  3 001435   200114 221300                    LDX1  ! DUMMYCHARS+64,,AUTO
         3 001436   000001 702211                    TSX2  ! 1,X1

FPT_OPEN
 Sect OctLoc
   1     000   000025 777640   000044 006000   000003 777640   000072 006000    .....$.......:..
   1     004   000000 177640   000000 006014   000000 177640   000000 006014    ................
   1     044*  000000 000042   000000 001003   252525 000000   000040 252520    ..."......... ..
   1     050   103114 040040   000000 000000   000000 777777   000000 000000    CL  ............
   1     054   000000 000000   000000 000000   000000 000000   000000 000000    ................
   1     060   251000 622000   000000 000000   000000 000000   111250 000000    ............I...
   1     064   040040 040040   000000 000000   000000 000000   000000 000000        ............
   1     070   000000 000000   ****** ******                                    ........

VLP_SN
 Sect OctLoc
   1     072   000000 000001   040040 040040   040040 ******                    ....      ..

FPT_CLOSE
 Sect OctLoc
   1     076   000003 777640   000130 006000   000000 177640   000000 006014    .....X..........
   1     102   000000 177640   000000 006014   000000 177640   000000 006014    ................
   1     126*  000000 177640   000000 006014   000000 000002   000000 000040    ...............
   1     132   000220 000000   000000 000000                                    ........

FPT_READ
 Sect OctLoc
   1     134   000005 777640   000144 006000   000007 777640   000000 006000    .....d..........
   1     140   000000 177640   000000 006014   000000 177640   000000 006014    ................
   1     144   000000 500000   000000 000000   000000 000000   000000 000000    ................
   1     150   000000 000000   000000 000000                                    ........

FPT_WRITE
 Sect OctLoc
   1     152   000003 777640   000162 006000   000007 777640   000000 006000    .....r..........
   1     156   000000 177640   000000 006014   000000 177640   000000 006014    ................
PL6.E3A0      #009=XSL$CL File=XSL$SOCKET1.:TCA2TSI                              SUN 11/16/97 14:34 Page:280
   1     162   000000 400400   000000 000000   000000 000000   004000 000000    ................

FPT_TRMPRG
 Sect OctLoc
   1     166   000003 777640   000172 006000   000000 177640   000000 006014    .....z..........
   1     172   000000 000000   000000 000000   010000 000000   000000 000000    ................

VLP_NAME
 Sect OctLoc
   1     176   007106 044130   123114 060060                                    .F$XSL00

FPT_RELDCB
 Sect OctLoc
   1     200   000001 777640   000202 006000   000000 000000   000000 000000    ................

XSL_UETIME
 Sect OctLoc
   1     204   000000 000000                                                    ....

XSL_WAIT1DAY
 Sect OctLoc
   2     000   000001 777640   000004 006000   000000 777640   000204 006000    ................
   2     004   000000 250577   000000 000001                                    ........

XSL_WAIT1SEC
 Sect OctLoc
   2     006   000001 777640   000012 006000   000000 177640   000000 006014    ................
   2     012   000000 000001   000000 000001                                    ........

FPT_GETDCB
 Sect OctLoc
   2     014   000001 777640   000022 006000   000001 777640   000176 006000    .............~..
   2     020   000000 777640   000205 006000   000000 000000   000000 000000    ................

HCOUNT
 Sect OctLoc
   2     024   000002 005003   003003 003003   004001 002002   003003 003003    ................
PL6.E3A0      #009=XSL$CL File=XSL$SOCKET1.:TCA2TSI                              SUN 11/16/97 14:34 Page:281
   2     030   005003 004002   003004 003004   003002 003004   003002 003002    ................
   2     034   003001 003001   000000 000000   000*** ******                    ............

XCHARS
 Sect OctLoc
   2     037   060061 062063   064065 066067   070071 101102   103104 105106    0123456789ABCDEF

(unnamed)
 Sect OctLoc
   2     043   127122 040040   122104 040040   127124 040040   117120 040040    WR  RD  WT  OP
   2     047   107124 040040   122114 040040   103114 040040   105122 040040    GT  RL  CL  ER
   2     053   130130 040040   127130 040040   040040 040040   040040 040040    XX  WX

(unnamed)
 Sect OctLoc
   4     000   000000 177640   000000 006014   000000 006003   773777 777777    ................
   4     004   000043 006000   000077 577640   777777 577777   777776 777777    .#...?..........
   4     010   000044 006000   000000 006000   777737 777777   000045 006000    .$...........%..
   4     014   777577 777777   777677 777777   000046 006000   000073 006000    .........&...;..
   4     020   000047 006000   000050 006000   777773 777777   000051 006000    .'...(.......)..
   4     024   000052 006000   000053 006000   000054 006000   000000 006000    .*...+...,......
     1971     4231
     1972     4232    2   END SNSETUP;
     1973     4233
     1974     4234    1   END XSL$CL;
     1975     4235        %EOD;

PL6.E3A0      #009=XSL$CL File=XSL$SOCKET1.:TCA2TSI                              SUN 11/16/97 14:34 Page:282
--  Include file information  --

   XSL_SOCKMSGS_E.:TCA2TOU  is referenced.
   XSL_INTERNAL_M.:TCA2TOU  is referenced.
   XSL_SOCKET_M.:TCA2TOU  is referenced.
   XSL_PERR_C.:TCA2TOU  is referenced.
   CP_6.:E05TOU  cannot be made into a system file and is referenced.
   CP_6_SUBS.:E05TOU  is referenced.
   B_ERRORS_C.:E05TOU  is referenced.
   B$JIT_C.:E05TOU  was found in the system file and is never referenced.
   CP_6_C.:E05TOU  was found in the system file and is referenced.
      No diagnostics issued in procedure XSL$CL.
PL6.E3A0      #009=XSL$CL File=XSL$SOCKET1.:TCA2TSI                              SUN 11/16/97 14:34 Page:283

 **** Variables and constants ****

  ****  Section 001  Data  XSL$CL

  ****  Scalars and arrays  ****
OctLoc.c.b A Datatyp(siz) R M Lvl/name                 OctLoc.c.b A Datatyp(siz) R M Lvl/name

   205-0-0/w SBIN        r     1 DCB#                     176-0-0/c STRC(72)    r     1 DCBNAME
    76-0-0/d STRC(1080)  r     1 FPT_CLOSE                  0-0-0/d STRC(2088)  r     1 FPT_OPEN
   134-0-0/d STRC(504)   r     1 FPT_READ                 200-0-0/d STRC(144)   r     1 FPT_RELDCB
   166-0-0/d STRC(288)   r     1 FPT_TRMPRG               152-0-0/d STRC(432)   r     1 FPT_WRITE
   206-0-0/w SBIN        r     1 LATCH                    176-0-0/c STRC(72)    r     1 VLP_NAME
    72-0-0/d STRC(90)    r     1 VLP_SN                   204-0-0/w SBIN        r     1 XSL_UETIME

  ****  Section 002 RoData XSL$CL

  ****  Scalars and arrays  ****
OctLoc.c.b A Datatyp(siz) R M Lvl/name                 OctLoc.c.b A Datatyp(siz) R M Lvl/name

    14-0-0/d STRC(288)   r     1 FPT_GETDCB                24-0-0/c UBIN(9)     r     1 HCOUNT(0:40)
    37-0-0/c CHAR(16)    r     1 XCHARS                     0-0-0/d STRC(216)   r     1 XSL_WAIT1DAY
     6-0-0/d STRC(216)   r     1 XSL_WAIT1SEC

  ****  Auto variables  ****

  ****  Scalars and arrays  ****
OctLoc.c.b A Datatyp(siz) R M Lvl/name                 OctLoc.c.b A Datatyp(siz) R M Lvl/name

   115-0-0/w PTR         r     1 @NAME                      4-0-0/w PTR         r     1 @PARM1
     5-0-0/w PTR         r     1 @PARM2                     6-0-0/w PTR         r     1 @PARM3
     3-0-0/w PTR         r     1 @SOCK                    115-0-0/w PTR         r     1 @SOCK
    13-0-0/w PTR         r     1 BUF$                     116-0-0/w PTR         r     1 BUF$
    10-0-0/w SBIN        r     1 BUFPND#                   14-0-0/c CHAR(255)   r     1 DUMMYCHARS
   116-0-0/w UBIN        r     1 I                        117-0-0/w UBIN        r     1 L
     7-0-0/b BIT         r     1 LAST                      11-0-0/w SBIN        r     1 LATCHTMP
   117-0-0/b BIT         r     1 MUSTWAIT                  *0-0-0/w STRC(180)   r     1 NAME
    12-0-0/w SBIN        r     1 NUM                       *0-0-0/w SBIN        r     1 PARM1
PL6.E3A0      #009=XSL$CL File=XSL$SOCKET1.:TCA2TSI                              SUN 11/16/97 14:34 Page:284
    *0-0-0/w SBIN        r     1 PARM2                     *0-0-0/w SBIN        r     1 PARM3
    *0-0-0/w STRC(720)   r     1 SOCK                      *0-0-0/w STRC(720)   r     1 SOCK
   120-0-0/w UBIN        r     1 X

  ****  SYMREF variables  ****

  ****  Scalars and arrays  ****
OctLoc.c.b A Datatyp(siz) R M Lvl/name                 OctLoc.c.b A Datatyp(siz) R M Lvl/name

     0-0-0/w PTR         r     1 B$TCB$                     0-0-0/w BIT (9)     r     1 MSK(0:3)
     0-0-0/h SBIN(18)    r     1 XSL_KEYBUF(0:15)
     0-0-0/w SBIN        r     1 XSL_NETMASK                0-0-0/c CHAR(6)     r     1 XSL_SN
     0-0-0/c CHAR(6)     r     1 XSL_SN                     0-0-0/w PTR         r     1 XSL_SOCK$$

  ****  BASED and DCB variables  ****

  ****  Scalars and arrays  ****
OctLoc.c.b A Datatyp(siz) R M Lvl/name                 OctLoc.c.b A Datatyp(siz) R M Lvl/name

     0-0-0/w STRC(2448)  r     1 B$ALT                      0-0-0/w PTR         r     1 B$PTR
     0-0-0/w STRC(144)   r     1 B$TCB                      0-0-0/w STRC(360)   r     1 DATABUF
     0-0-0/w STRC(360)   r     1 DATABUF                    0-0-0/d ASTR(3528)  r     1 F$DCB
     0-0-0N  NULL        r     1 M$UC                       0-0-0/c ACHR        r     1 PARM2CHARS
     0-0-0/d STRC(72)    r     1 VLP_VECTOR                 0-0-0/w STRC(162)   r     1 XSL$SOCKADDR_IN


   Procedure XSL$CL requires 799 words for executable code.
   Procedure XSL$CL requires 86 words of local(AUTO) storage.
PL6.E3A0      #009=XSL$CL File=XSL$SOCKET1.:TCA2TSI                              SUN 11/16/97 14:34 Page:285
          *** CROSS REFERENCE LISTING ***
**     DENOTES     IDENTIFIER DEFINITION
<<                 IDENTIFIER'S VALUE SET
>>                 IDENTIFIER'S VALUE USED
<>                 IDENTIFIER SET AND/OR USED
--                 IDENTIFIER REFERENCED
PL6.E3A0      #009=XSL$CL File=XSL$SOCKET1.:TCA2TSI                              SUN 11/16/97 14:34 Page:286
          MINI XREF LISTING

AGAIN
      3870**LABEL    3893--GOTO
B$ALT.CODE
      1814**DCL      1814--REDEF    1815--REDEF    1815--REDEF
B$ALT.ERR
      1815**DCL      3925<>CALL
B$ALT.ERR.CODE
      1816**DCL      3926>>IF
B$ALT.ERR.ERR#
      1816**DCL      1816--REDEF
B$ALT.EVID
      1815**DCL      1815--REDEF    1815--REDEF
B$PTR
      3644**DCL      3869<<ASSIGN
B$TCB.ALT$
      1821**DCL      3925>>CALL     3926>>IF
B$TCB$
      3624**DCL      3925>>CALL     3926>>IF
BUF$
      3643**DCL      3554--IMP-PTR  3803<<ASSIGN   3804>>DOWHILE  3805>>IF       3806>>IF       3808>>ASSIGN
      3814>>CALL     3818<<ASSIGN   3818>>ASSIGN
BUF$ IN PROCEDURE CANCEL
      3946**DCL      3965--IMP-PTR  4134<<ASSIGN   4135>>DOWHILE  4136>>ASSIGN   4137<<ASSIGN   4137>>ASSIGN
BUFPND#
      3636**DCL      3802<<ASSIGN   3842>>IF
CANCEL
      3944**PROC     3759--CALL     3918--CALL     3941--CALL
CLEANUP
      3851**LABEL    3776--GOTO     3816--GOTO
DATABUF
      3554**DCL      3814<>CALL
DATABUF.FLAGS.BUSY
PL6.E3A0      #009=XSL$CL File=XSL$SOCKET1.:TCA2TSI                              SUN 11/16/97 14:34 Page:287
      3564**DCL      3805>>IF
DATABUF.KEY
      3568**DCL      3806>>IF       3808>>ASSIGN
DATABUF.NXT
      3567**DCL      3818>>ASSIGN
DATABUF.FLAGS.BUSY IN PROCEDURE CANCEL
      3975**DCL      4136>>ASSIGN
DATABUF.NXT IN PROCEDURE CANCEL
      3978**DCL      4137>>ASSIGN
DCB#
      3634**DCL      2142--DCLINIT  3903>>ASSIGN
DCBNAME.TXT
      2174**DCL      3900<<CALLBLT
DFLT
      3891**LABEL    3884--CALLALT
DUMMYCHARS
      3646**DCL      3738--ASSIGN   3784--ASSIGN
F$DCB.ACTPOS
      1788**DCL      1788--REDEF
F$DCB.ARS#
      1762**DCL      1762--REDEF
F$DCB.ATTR
      1781**DCL      1782--REDEF
F$DCB.BORROW
      1796**DCL      1796--REDEF    1796--REDEF    1796--REDEF
F$DCB.DCBNAME.L
      1810**DCL      1810--IMP-SIZ
F$DCB.EOMCHAR#
      1766**DCL      1766--REDEF
F$DCB.FCN.CNT
      1801**DCL      3715>>IF       3780>>IF       3839>>IF       4127>>IF
F$DCB.FLDID
      1791**DCL      1791--REDEF
F$DCB.FORM$
      1785**DCL      1785--REDEF
F$DCB.FSECT
PL6.E3A0      #009=XSL$CL File=XSL$SOCKET1.:TCA2TSI                              SUN 11/16/97 14:34 Page:288
      1801**DCL      1801--REDEF
F$DCB.FSN#
      1778**DCL      1778--REDEF    1778--REDEF    1779--REDEF
F$DCB.HEADER$
      1784**DCL      1784--REDEF
F$DCB.IXTNSIZE#
      1782**DCL      1782--REDEF
F$DCB.LASTSTA$
      1771**DCL      1771--REDEF
F$DCB.LVL
      1797**DCL      1797--REDEF
F$DCB.NAME#.C
      1772**DCL      1772--REDEF
F$DCB.NOEOF
      1794**DCL      1794--REDEF
F$DCB.NRECS#
      1783**DCL      1783--REDEF
F$DCB.NRECX
      1802**DCL      1802--REDEF
F$DCB.OHDR
      1794**DCL      1794--REDEF
F$DCB.ORG#
      1777**DCL      1777--REDEF
F$DCB.PRECNO
      1800**DCL      1800--REDEF
F$DCB.RCSZ
      1806**DCL      1806--REDEF
F$DCB.RES#
      1773**DCL      1773--REDEF
F$DCB.SETX
      1785**DCL      1785--REDEF
F$DCB.TAB$
      1785**DCL      1785--REDEF
F$DCB.TDA
      1799**DCL      1800--REDEF
F$DCB.WSN#
PL6.E3A0      #009=XSL$CL File=XSL$SOCKET1.:TCA2TSI                              SUN 11/16/97 14:34 Page:289
      1773**DCL      1773--REDEF
FPT_CLOSE
      1968**DCL      3921<>CALL
FPT_CLOSE.SN_
      1968**DCL      1968--REDEF
FPT_CLOSE.UTL_
      1969**DCL      1969--REDEF
FPT_CLOSE.V
      1973**DCL      1968--DCLINIT
FPT_CLOSE.V.DCB#
      1974**DCL      3920<<ASSIGN
FPT_CLOSE.V.EXPIRE#
      1983**DCL      1983--REDEF
FPT_CLOSE.V.TYPE#
      1981**DCL      1981--REDEF
FPT_CLOSE.V.XTNSIZE#
      1978**DCL      1978--REDEF    1980--REDEF
FPT_GETDCB
      2141**DCL      3902<>CALL
FPT_GETDCB.V
      2142**DCL      2141--DCLINIT
FPT_OPEN
      1888**DCL      3876<>CALL     3880<>CALL
FPT_OPEN.ACSVEH_
      1890**DCL      1891--REDEF
FPT_OPEN.ALTKEYS_
      1896**DCL      1897--REDEF    1897--REDEF
FPT_OPEN.HDR_
      1895**DCL      1896--REDEF
FPT_OPEN.TAB_
      1894**DCL      1895--REDEF
FPT_OPEN.UHL_
      1888**DCL      1889--REDEF    1889--REDEF
FPT_OPEN.V
      1897**DCL      1888--DCLINIT
FPT_OPEN.V.ATTR#
PL6.E3A0      #009=XSL$CL File=XSL$SOCKET1.:TCA2TSI                              SUN 11/16/97 14:34 Page:290
      1924**DCL      3874<<ASSIGN   3878<<ASSIGN
FPT_OPEN.V.DCB#
      1897**DCL      3873<<ASSIGN
FPT_OPEN.V.EVENT#
      1927**DCL      3867<<ASSIGN   3869--ASSIGN
FPT_OPEN.V.FSN#
      1928**DCL      1928--REDEF    1928--REDEF
FPT_OPEN.WSN_
      1894**DCL      1894--REDEF
FPT_READ
      2004**DCL      3765<>CALL
FPT_READ.BUF_
      2006**DCL      3738<<ASSIGN   3740<<ASSIGN
FPT_READ.STATION_
      2007**DCL      2008--REDEF
FPT_READ.V
      2008**DCL      2004--DCLINIT
FPT_READ.V.DCB#
      2008**DCL      3734<<ASSIGN
FPT_READ.V.DVBYTE.REREAD#
      2019**DCL      2019--REDEF
FPT_READ.V.INDX#
      2017**DCL      2017--REDEF
FPT_READ.V.KEYS#
      2009**DCL      3750<<ASSIGN   3754<<ASSIGN
FPT_RELDCB
      2186**DCL      3910<>CALL
FPT_RELDCB.V
      2186**DCL      2186--DCLINIT
FPT_RELDCB.V.DCB#
      2186**DCL      3908<<ASSIGN
FPT_TRMPRG
      2102**DCL      4130<>CALL
FPT_TRMPRG.V
      2109**DCL      2104--DCLINIT
FPT_TRMPRG.V.CTLFLG.RSTBRK#
PL6.E3A0      #009=XSL$CL File=XSL$SOCKET1.:TCA2TSI                              SUN 11/16/97 14:34 Page:291
      2110**DCL      2111--REDEF
FPT_TRMPRG.V.DCB#
      2109**DCL      4129<<ASSIGN
FPT_WRITE
      2043**DCL      3725<>CALL     3790<>CALL
FPT_WRITE.BUF_
      2043**DCL      3710<<ASSIGN   3784<<ASSIGN
FPT_WRITE.BUF_.BOUND
      2043**DCL      3713<<ASSIGN
FPT_WRITE.BUF_.BUF$
      2045**DCL      3712<<ASSIGN
FPT_WRITE.KEY_
      2043**DCL      3708--ASSIGN
FPT_WRITE.STATION_
      2045**DCL      2045--REDEF
FPT_WRITE.V
      2046**DCL      2043--DCLINIT
FPT_WRITE.V.DCB#
      2046**DCL      3707<<ASSIGN
FPT_WRITE.V.DVBYTE.NODAT#
      2053**DCL      3721<<ASSIGN   3723<<ASSIGN   3786<<ASSIGN   3788<<ASSIGN
FPT_WRITE.V.DVBYTE.VFC#
      2052**DCL      2052--REDEF
HCOUNT
      3652**DCL      3705>>ASSIGN   3855>>ASSIGN
I IN PROCEDURE SNSETUP
      4198**DCL      4222<<DOINDEX  4223>>ASSIGN   4223>>ASSIGN   4224>>IF       4228>>ASSIGN
L IN PROCEDURE SNSETUP
      4199**DCL      4209<<ASSIGN   4210<<ASSIGN   4211<<ASSIGN   4217<<DOINDEX  4222>>DOINDEX
LAST
      3635**DCL      3870<<ASSIGN   3881>>IF       3882<<ASSIGN
LATCH
      3637**DCL      3700<<ASSIGN   3701>>IF       3703>>IF       3715>>IF       3715>>IF       3715>>IF
      3715>>IF       3715>>IF       3718>>ASSIGN   3719<<ASSIGN   3749>>IF       3755<<ASSIGN   3782>>IF
      3795>>IF       3927>>IF       3927>>IF       3927>>IF
LATCHTMP
PL6.E3A0      #009=XSL$CL File=XSL$SOCKET1.:TCA2TSI                              SUN 11/16/97 14:34 Page:292
      3638**DCL      3718<<ASSIGN   3927>>IF       3927>>IF
LOOK4IT
      3802**LABEL    3743--GOTO     3745--GOTO     3761--GOTO     3842--GOTO     3849--GOTO
M$CLOSE
      1683**DCL-ENT  3921--CALL
M$GETDCB
      1689**DCL-ENT  3902--CALL
M$OPEN
      1683**DCL-ENT  3876--CALL     3880--CALL
M$READ
      1684**DCL-ENT  3765--CALL
M$RELDCB
      1689**DCL-ENT  3910--CALL
M$RETRY
      1740**DCL-ENT  3931--CALL
M$TRMPRG
      1708**DCL-ENT  4130--CALL
M$WAIT
      1741**DCL-ENT  3846--CALL     3930--CALL     4141--CALL
M$WRITE
      1684**DCL-ENT  3725--CALL     3790--CALL
MSK IN PROCEDURE SNSETUP
      4195**DCL      4223>>ASSIGN
MUSTWAIT IN PROCEDURE CANCEL
      3947**DCL      4133<<ASSIGN   4136<<ASSIGN   4136>>ASSIGN   4139>>IF
NAME IN PROCEDURE SNSETUP
      4168**DCL      4149--PROC
NAME.SA_DATA IN PROCEDURE SNSETUP
      4189**DCL      4204>>ASSIGN   4223>>ASSIGN
NUM
      3639**DCL      3705<<ASSIGN   3706<>CALL     3741<<ASSIGN   3742>>IF       3744>>IF       3767>>IF
      3806>>IF       3809>>IF       3809>>IF       3824>>IF       3833>>IF       3851>>IF       3853>>IF
      3855<<ASSIGN   3855>>ASSIGN   3856<>CALL
OOPS
      3934**LABEL    3929--GOTO
OOPS1
PL6.E3A0      #009=XSL$CL File=XSL$SOCKET1.:TCA2TSI                              SUN 11/16/97 14:34 Page:293
      3936**LABEL    3774--GOTO     3822--GOTO     3827--GOTO     3831--GOTO     3836--GOTO
OOPSLOG
      3924**LABEL    3725--CALLALT  3765--CALLALT  3790--CALLALT  3881--GOTO     3902--CALLALT  3910--CALLALT
      3921--CALLALT  3931--CALLALT
PARM1
      3640**DCL         6--PROC     3648--IMP-SIZ  3696--ENTRY    3708>>ASSIGN   3729--ENTRY    3735--IF
      3735>>IF       3740>>ASSIGN   3746--IF       3746>>IF       3859--ENTRY    3862--IF       3865<>CALL
      3883--IF       3888--CALL
PARM2
      3641**DCL         6--PROC     3647--IMP-SIZ  3696--ENTRY    3709--IF       3709>>IF       3713>>ASSIGN
      3729--ENTRY    3740--ASSIGN   3859--ENTRY
PARM2CHARS
      3648**DCL      3740--ASSIGN
PARM3
      3642**DCL         6--PROC     3696--ENTRY    3712--ASSIGN
READ_IT
      3734**LABEL    3841--GOTO
REREAD
      3763**LABEL    3771--GOTO
SNSETUP
      4149**PROC     3863--CALL     3865--CALL
SOCK
      3378**DCL         6--PROC     3696--ENTRY    3724--CALL     3729--ENTRY    3759<>CALL     3764--CALL
      3789--CALL     3796<>CALL     3798<>CALL     3814<>CALL     3845--CALL     3859--ENTRY    3869--ASSIGN
      3875--CALL     3879--CALL     3898--ENTRY    3901--CALL     3906--ENTRY    3909--CALL     3914--ENTRY
      3918<>CALL     3919--CALL     3924--CALL     3939--ENTRY    3941<>CALL
SOCK.BUFHD
      3492**DCL      3758>>IF       3803>>ASSIGN   3917>>IF
SOCK.BUFPND#
      3495**DCL      3802>>ASSIGN   3813<<ASSIGN   3813>>ASSIGN   3842>>IF
SOCK.DAT#
      3499**DCL      3810<<ASSIGN   3810>>ASSIGN   3811>>IF
SOCK.DCB#
      3411**DCL      3707>>ASSIGN   3715--IF       3734>>ASSIGN   3780--IF       3839--IF       3873>>ASSIGN
      3903<<ASSIGN   3908>>ASSIGN   3911<<ASSIGN   3920>>ASSIGN
SOCK.FEPERROR
PL6.E3A0      #009=XSL$CL File=XSL$SOCKET1.:TCA2TSI                              SUN 11/16/97 14:34 Page:294
      3409**DCL      3770<<ASSIGN
SOCK.FLAGS.ACCEPTING
      3400**DCL      3703>>IF       3744>>IF       3829>>IF       3834<<ASSIGN   3853>>IF       3854<<ASSIGN
SOCK.FLAGS.BLOCKING
      3397**DCL      3720>>IF       3785>>IF       3824>>IF       3833>>IF
SOCK.FLAGS.CONNECTING
      3399**DCL      3701>>IF       3742>>IF       3820>>IF       3825<<ASSIGN   3851>>IF       3852<<ASSIGN
SOCK.FLAGS.MUSTREAD
      3406**DCL      3746>>IF       3760>>IF       3763<<ASSIGN   3840<<ASSIGN   3841>>IF
SOCK.FLAGS.REUSEBUF
      3404**DCL      3916<<ASSIGN
SOCK.FLAGS.SELREAD
      3401**DCL      3760>>IF       3812<<ASSIGN
SOCK.MAXRDS
      3497**DCL      3746>>IF       3866>>IF
SOCK.NBACCEPT_SOCK$
      3500**DCL      3501--REDEF
SOCK.SERNUM
      3410**DCL      3872<<ASSIGN
SOCK.SOCK#
      3387**DCL      3900>>CALLBLT
SOCK.SOCKNAME
      3431**DCL      3863<>CALL     3884--CALL
SOCK IN PROCEDURE CANCEL
      3999**DCL      3944--PROC     4128--CALL     4140--CALL
SOCK.BUFHD IN PROCEDURE CANCEL
      4113**DCL      4134>>ASSIGN
SOCK.DCB# IN PROCEDURE CANCEL
      4032**DCL      4127--IF       4129>>ASSIGN
SOCK.NBACCEPT_SOCK$ IN PROCEDURE CANCEL
      4121**DCL      4122--REDEF
VLP_NAME
      2170**DCL      2141--DCLINIT  2172--REDEF
VLP_SN
      1943**DCL      1888--DCLINIT
VLP_SN.SN#
PL6.E3A0      #009=XSL$CL File=XSL$SOCKET1.:TCA2TSI                              SUN 11/16/97 14:34 Page:295
      1943**DCL      3872>>ASSIGN   3884<>CALL     3888<>CALL     3891<<ASSIGN   4203<<ASSIGN   4206<<ASSIGN
      4228<<ASSIGN
VLP_VECTOR.W1.VSIZE#
      2126**DCL      3708<<ASSIGN
VLP_VECTOR.W2
      2127**DCL      2128--REDEF
WAIT4IO IN PROCEDURE CANCEL
      4133**LABEL    4142--GOTO
WRITE_IT
      3784**LABEL    3796--CALLALT
X IN PROCEDURE SNSETUP
      4200**DCL      4204<<ASSIGN   4205>>IF       4209>>IF       4210>>IF       4215<>CALL     4216<<ASSIGN
      4216>>ASSIGN   4218>>IF       4219<<ASSIGN   4219>>ASSIGN   4223<<ASSIGN   4225<<ASSIGN   4225>>ASSIGN
      4227<<ASSIGN   4227>>ASSIGN   4228>>ASSIGN
XCHARS IN PROCEDURE SNSETUP
      4201**DCL      4228>>ASSIGN
XSL$EVLOG
      3622**DCL-ENT  3724--CALL     3764--CALL     3789--CALL     3845--CALL     3875--CALL     3879--CALL
      3901--CALL     3909--CALL     3919--CALL     3924--CALL     3925--CALL     4128--CALL     4140--CALL
XSL$GETBUF
      3620**DCL-ENT  3796--CALL     3798--CALL
XSL$H8TO9
      3618**DCL-ENT  3856--CALL
XSL$H9TO8
      3617**DCL-ENT  3706--CALL
XSL$NTOHL IN PROCEDURE SNSETUP
      4192**DCL-ENT  4215--CALL
XSL$RELBUF
      3621**DCL-ENT  3814--CALL
XSL$ROUTES
      3619**DCL-ENT  3884--CALL     3888--CALL
XSL$SOCKADDR_IN.S_ADDR
      3106**DCL      3884<>CALL     3888<>CALL
XSL_KEYBUF
      3645**DCL      2004--DCLINIT  2005--DCLINIT  2043--DCLINIT  3700>>ASSIGN   3705>>ASSIGN   3741>>ASSIGN
      3751<<ASSIGN   3767>>IF       3768>>IF       3768>>IF       3769>>IF       3769>>IF       3770>>ASSIGN
PL6.E3A0      #009=XSL$CL File=XSL$SOCKET1.:TCA2TSI                              SUN 11/16/97 14:34 Page:296
      3773<<ASSIGN   3796<>CALL     3808<<ASSIGN   3821<<ASSIGN   3826<<ASSIGN   3830<<ASSIGN   3835<<ASSIGN
      3934<<ASSIGN   3936<<ASSIGN
XSL_NETMASK IN PROCEDURE SNSETUP
      4194**DCL      4195--REDEF    4207>>IF       4215<>CALL
XSL_SN
      3628**DCL      3891>>ASSIGN
XSL_SN IN PROCEDURE SNSETUP
      4196**DCL      4203>>ASSIGN
XSL_SOCK$$
      3629**DCL      3521--IMP-PTR  3803>>ASSIGN   3804>>DOWHILE  3818>>ASSIGN   4134>>ASSIGN   4135>>DOWHILE
      4137>>ASSIGN
XSL_UETIME
      3630**DCL      2069--DCLINIT  3843<<ASSIGN   3844>>DOWHILE
XSL_WAIT1DAY
      2069**DCL      3846<>CALL     4141<>CALL
XSL_WAIT1DAY.V
      2070**DCL      2069--DCLINIT
XSL_WAIT1SEC
      2083**DCL      3930<>CALL
XSL_WAIT1SEC.V
      2084**DCL      2083--DCLINIT
PL6.E3A0      #009=XSL$CL File=XSL$SOCKET1.:TCA2TSI                              SUN 11/16/97 14:34 Page:297
              *** CROSS REFERENCE LISTING ***
    **     DENOTES     IDENTIFIER DEFINITION
    <<                 IDENTIFIER'S VALUE SET
    >>                 IDENTIFIER'S VALUE USED
    <>                 IDENTIFIER SET AND/OR USED
    --                 IDENTIFIER REFERENCED
PL6.E3A0      #009=XSL$CL File=XSL$SOCKET1.:TCA2TSI                              SUN 11/16/97 14:34 Page:298
              MINI UREF LISTING

M$ACCT    1700**DCL-ENT
M$ACTIVATE    1703**DCL-ENT
M$ALIB    1696**DCL-ENT
M$ASUSER    1698**DCL-ENT
M$ATTACH    1705**DCL-ENT
M$BADPP    1723**DCL-ENT
M$CGCTL    1704**DCL-ENT
M$CGINFO    1704**DCL-ENT
M$CHECK    1685**DCL-ENT
M$CHGUNIT    1743**DCL-ENT
M$CLRSTK    1741**DCL-ENT
M$CMDVAR    1752**DCL-ENT
M$CONFIG    1713**DCL-ENT
M$CORRES    1688**DCL-ENT
M$CPEXIT    1697**DCL-ENT
M$CVM    1721**DCL-ENT
M$CVOL    1686**DCL-ENT
M$DCLFLD    1713**DCL-ENT
M$DEACTIVATE    1703**DCL-ENT
M$DELREC    1685**DCL-ENT
M$DEQ    1750**DCL-ENT
M$DETACH    1705**DCL-ENT
M$DEVICE    1687**DCL-ENT
M$DISPLAY    1750**DCL-ENT
M$DISPRES    1690**DCL-ENT
M$DLIB    1696**DCL-ENT
M$DRIBBLE    1713**DCL-ENT
M$DRTN    1741**DCL-ENT
M$DSUSER    1698**DCL-ENT
M$ENQ    1749**DCL-ENT
M$EOM    1708**DCL-ENT
M$ERASE    1714**DCL-ENT
PL6.E3A0      #009=XSL$CL File=XSL$SOCKET1.:TCA2TSI                              SUN 11/16/97 14:34 Page:299
M$ERR    1695**DCL-ENT
M$ERRMSG    1746**DCL-ENT
M$EVENT    1738**DCL-ENT
M$EXHUME    1747**DCL-ENT
M$EXIT    1695**DCL-ENT
M$EXTEND    1687**DCL-ENT
M$FDP    1719**DCL-ENT
M$FDS    1718**DCL-ENT
M$FEBOOT    1711**DCL-ENT
M$FECTL    1712**DCL-ENT
M$FEDUMP    1711**DCL-ENT
M$FID    1746**DCL-ENT
M$FINDPROC    1700**DCL-ENT
M$FSUSER    1698**DCL-ENT
M$FVP    1720**DCL-ENT
M$FWCG    1704**DCL-ENT
M$GBPL    1724**DCL-ENT
M$GDDL    1720**DCL-ENT
M$GDP    1719**DCL-ENT
M$GDS    1718**DCL-ENT
M$GETMOUSE    1729**DCL-ENT
M$GETPM    1730**DCL-ENT
M$GJOB    1748**DCL-ENT
M$GLINEATTR    1708**DCL-ENT
M$GOODPP    1723**DCL-ENT
M$GPLATEN    1716**DCL-ENT
M$GPROMPT    1715**DCL-ENT
M$GTRMATTR    1709**DCL-ENT
M$GTRMCTL    1707**DCL-ENT
M$GTRMTAB    1710**DCL-ENT
M$GVP    1719**DCL-ENT
M$HELP    1746**DCL-ENT
M$INT    1738**DCL-ENT
M$INTRTN    1699**DCL-ENT
M$IOQ    1734**DCL-ENT
M$JOBSTATS    1748**DCL-ENT
PL6.E3A0      #009=XSL$CL File=XSL$SOCKET1.:TCA2TSI                              SUN 11/16/97 14:34 Page:300
M$KEYIN    1688**DCL-ENT
M$LDEV    1683**DCL-ENT
M$LDTRC    1696**DCL-ENT
M$LIMIT    1689**DCL-ENT
M$LINES    1688**DCL-ENT
M$LINK    1695**DCL-ENT
M$MADMUCK    1691**DCL-ENT
M$MAKUSER    1722**DCL-ENT
M$MBS    1690**DCL-ENT
M$MDFFLD    1714**DCL-ENT
M$MERC    1739**DCL-ENT
M$MERCS    1740**DCL-ENT
M$MIRROR    1734**DCL-ENT
M$MONINFO    1751**DCL-ENT
M$MPL    1724**DCL-ENT
M$NODEINFO    1715**DCL-ENT
M$NXTUSR    1749**DCL-ENT
M$OCMSG    1747**DCL-ENT
M$OLAY    1695**DCL-ENT
M$PAS    1724**DCL-ENT
M$PATHCON    1747**DCL-ENT
M$PDS    1718**DCL-ENT
M$PFIL    1685**DCL-ENT
M$PLATEN    1709**DCL-ENT
M$PRECORD    1687**DCL-ENT
M$PROCNAME    1700**DCL-ENT
M$PROFILE    1711**DCL-ENT
M$PROMPT    1707**DCL-ENT
M$RACST    1691**DCL-ENT
M$RDSYSLOG    1732**DCL-ENT
M$RELRES    1690**DCL-ENT
M$RELSTARF    1692**DCL-ENT
M$REM    1692**DCL-ENT
M$RENV    1739**DCL-ENT
M$REQUIRE    1691**DCL-ENT
M$RETRYS    1740**DCL-ENT
PL6.E3A0      #009=XSL$CL File=XSL$SOCKET1.:TCA2TSI                              SUN 11/16/97 14:34 Page:301
M$REW    1686**DCL-ENT
M$RLSFLD    1714**DCL-ENT
M$RPRIV    1742**DCL-ENT
M$RSPP    1721**DCL-ENT
M$RSWITCH    1743**DCL-ENT
M$RUE    1749**DCL-ENT
M$SAD    1722**DCL-ENT
M$SAVE    1698**DCL-ENT
M$SCON    1699**DCL-ENT
M$SCREECH    1697**DCL-ENT
M$SENV    1739**DCL-ENT
M$SETFMA    1683**DCL-ENT
M$SETFP    1712**DCL-ENT
M$SINPUT    1710**DCL-ENT
M$SLCFLD    1715**DCL-ENT
M$SMOUSE    1729**DCL-ENT
M$SMPRT    1721**DCL-ENT
M$SPRIV    1742**DCL-ENT
M$SSC    1722**DCL-ENT
M$SSWITCH    1742**DCL-ENT
M$STATE    1751**DCL-ENT
M$STD    1723**DCL-ENT
M$STIMER    1737**DCL-ENT
M$STLPP    1720**DCL-ENT
M$STRAP    1737**DCL-ENT
M$STRMATTR    1709**DCL-ENT
M$STRMCTL    1707**DCL-ENT
M$STRMTAB    1710**DCL-ENT
M$SYMBIO    1748**DCL-ENT
M$SYSCON    1734**DCL-ENT
M$SYSID    1752**DCL-ENT
M$TDCLOSE    1733**DCL-ENT
M$TDIO    1733**DCL-ENT
M$TDOPEN    1732**DCL-ENT
M$TDREQCPU    1733**DCL-ENT
M$TEMPWROC    1727**DCL-ENT
PL6.E3A0      #009=XSL$CL File=XSL$SOCKET1.:TCA2TSI                              SUN 11/16/97 14:34 Page:302
M$TIME    1750**DCL-ENT
M$TRAP    1737**DCL-ENT
M$TRMISC    1712**DCL-ENT
M$TRTN    1741**DCL-ENT
M$TRUNC    1684**DCL-ENT
M$TTIMER    1737**DCL-ENT
M$UC    1707**DCL
M$UMPL    1724**DCL-ENT
M$UNFID    1746**DCL-ENT
M$UNLATCH    1703**DCL-ENT
M$UNSHARE    1700**DCL-ENT
M$USRFIELD    1743**DCL-ENT
M$VIRTUAL    1718**DCL-ENT
M$WEOF    1686**DCL-ENT
M$WRSYSLOG    1732**DCL-ENT
M$XCON    1738**DCL-ENT
M$XCONRTN    1699**DCL-ENT
M$XEQTIME    1751**DCL-ENT
M$XFLUSH    1692**DCL-ENT
M$XMOUSE    1729**DCL-ENT
M$XXX    1695**DCL-ENT
M$YC    1697**DCL-ENT
PARM3CHARS    3647**DCL
XSL$CL       6**PROC
XSL$CL_CANCEL    3939**ENTRY
XSL$CL_CLOSE    3914**ENTRY
XSL$CL_GET    3898**ENTRY
XSL$CL_OPEN    3859**ENTRY
XSL$CL_READ    3729**ENTRY
XSL$CL_REL    3906**ENTRY
XSL$CL_WRITE    3696**ENTRY
XSL$SOCKADDR    3022**DCL
XSL$SOCKHD    3521**DCL
XSL_ERRNO    3626**DCL
XSL_KEYBUF$    3627**DCL

PL6.E3A0      #010=XSL$EVLOG File=XSL$SOCKET1.:TCA2TSI                           SUN 11/16/97 14:36 Page:303
     1976        1        /*T***********************************************************/
     1977        2        /*T*                                                         */
     1978        3        /*T* Copyright (c) Bull HN Information Systems Inc., 1997    */
     1979        4        /*T*                                                         */
     1980        5        /*T***********************************************************/
     1981        6        /*
     1982        7            Socket Library Event Log
     1983        8
     1984        9            This log is a circular buffer of XSL_EVENTMAX+1 entries.  Each
     1985       10            entry is one word long, except for ER entries which occupy one
     1986       11            or two words.  In all entries the first two bytes are the ASCII
     1987       12            chars identifying the entry.  The remainder of the entry contains
     1988       13            information about which socket or buffer the event involves.
     1989       14            Here are the event types.....
     1990       15                AV  - B$COMIO DATA_AVL event received           SOCK
     1991       16                CL  - M$CLOSE                                   SOCK
     1992       17                ER  - monitor service error, code follows       SOCK or BUFX
     1993       18                EV  - B$NWIO event received                     BUFX
     1994       19                GB  - get buffer                                BUFX
     1995       20                GP  - get socket pointer                        PLUGH
     1996       21                GT  - M$GETDCB                                  SOCK
     1997       22                NW  - M$READ WAIT=NO                            BUFX
     1998       23                OP  - M$OPEN                                    SOCK
     1999       24                RB  - release buffer                            BUFX
     2000       25                RD  - M$READ WAIT=YES                           SOCK
     2001       26                RL  - M$RELDCB                                  SOCK
     2002       27                RQ  - B$COMIO DATA_RQS event received           SOCK
     2003       28                WR  - M$WRITE                                   SOCK
     2004       29                WT  - M$WAIT                                    SOCK or zero
     2005       30                WX  - M$WAIT for B$NWIO event(s)                SOCK
     2006       31                XX  - M$TRMPRG                                  SOCK
     2007       32
     2008       33            Here are the types of 'remainder' info.....
     2009       34                BUFX    - offset into DS of this data buffer (XSL$DATABUF)
     2010       35                SOCK    - offset into DS of this socket (XSL$SOCKINFO)
     2011       36                PLUGH   - IC of caller
     2012       37
PL6.E3A0      #010=XSL$EVLOG File=XSL$SOCKET1.:TCA2TSI                           SUN 11/16/97 14:36 Page:304
     2013       38            The event log starts at the address held in XSL_EVENTLOG$.
     2014       39            The index of the next available entry is in XSL_EVENTIDX.
     2015       40        */
     2016       41        XSL$EVLOG: PROC( CODE, DATA) NOAUTO;
     2017       42
     2018       43    1       DCL XSL_EVENTIDX SBIN SYMREF;
     2019       44    1       DCL XSL_EVENTMAX SBIN SYMREF;
     2020       45    1       DCL XSL_EVENTLOG$ PTR SYMREF;
     2021       46
     2022       47    1       DCL CODE UBIN;
     2023       48    1       DCL DATA UBIN;
     2024       49    1       DCL EVLOG(0:0) UBIN BASED( XSL_EVENTLOG$);
     2025       50    1       DCL XCODE UBIN;
     2026       51    1       DCL XDATA UBIN;
     2027       52        %EQU BLANKS = BITBIN( '040040'O);
     2028       53
     2029       54    2       DO INHIBIT;
     2030       55    2           IF XSL_EVENTLOG$ = ADDR( NIL) THEN RETURN;
     2031       56    2           XCODE = 0;
     2032       57    3           IF ADDR( CODE) ~= ADDR( NIL) THEN DO;
     2033       58    3               XCODE = CODE - %BLANKS;
     2034       59    3               XDATA = DATA / 262144;
     2035       60    3               END;
     2036       61    2           ELSE
     2037       62    2               XDATA = DATA;
     2038       63    2           EVLOG( XSL_EVENTIDX) = XCODE + XDATA;
     2039       64    2           XSL_EVENTIDX = XSL_EVENTIDX + 1;
     2040       65    2           IF XSL_EVENTIDX > XSL_EVENTMAX THEN
     2041       66    2               XSL_EVENTIDX = 0;
     2042       67    2           RETURN;
     2043       68    2           END;
     2044       69
     2045       70    1   END XSL$EVLOG;
     2046       71        %EOD;

PL6.E3A0      #010=XSL$EVLOG File=XSL$SOCKET1.:TCA2TSI                           SUN 11/16/97 14:36 Page:305
--  Include file information  --

   B$JIT_C.:E05TOU  was found in the system file and is never referenced.
   CP_6_C.:E05TOU  was found in the system file and is never referenced.
      No diagnostics issued in procedure XSL$EVLOG.

   Procedure XSL$EVLOG requires 36 words for executable code.
   Procedure XSL$EVLOG is declared NOAUTO and requires 6 words of local(STATIC) storage.

PL6.E3A0      #010=XSL$EVLOG File=XSL$SOCKET1.:TCA2TSI                           SUN 11/16/97 14:36 Page:306

 Object Unit name= XSL$EVLOG                                  File name= XSL$SOCKET1.:TCA2TOU
 UTS= NOV 16 '97 14:36:11.64 SUN                              Compiler= PL-6/E31         Sev=      00
 SharedLib= :SHARED_SYSTEM                                    Alt SharedLib=


    ****  Control sections  ****

 Sect   Type Bound  Init  Size OctSiz  Section name(segment info)
    0   Data  even  none     6      6  XSL$EVLOG
    1   Proc  even  none    36     44  XSL$EVLOG

    ****  Entry defs  ****

                              Check   Calling
                             calling  sequence
  Sect OctLoc Primary Altret sequence   type   Parms  Name
     1      0   yes            yes      Std        2  XSL$EVLOG

  ****  Entry refs  ****

         Check        Calling
        calling       sequence
Altret sequence SRef   type   Args  Name
                       nStd      0 X66_STATIC_2
                       Std       0 B_CONSPOOL_D

  ****  Data refs  ****

  Flags:  r = read only, s = secondary
Flgs Name                             Flgs Name                             Flgs Name
     XSL_EVENTIDX                          XSL_EVENTMAX                          XSL_EVENTLOG$
     B_VECTNIL
PL6.E3A0      #010=XSL$EVLOG File=XSL$SOCKET1.:TCA2TSI                           SUN 11/16/97 14:36 Page:307


     1976        1        /*T***********************************************************/
     1977        2        /*T*                                                         */
     1978        3        /*T* Copyright (c) Bull HN Information Systems Inc., 1997    */
     1979        4        /*T*                                                         */
     1980        5        /*T***********************************************************/
     1981        6        /*
     1982        7            Socket Library Event Log
     1983        8
     1984        9            This log is a circular buffer of XSL_EVENTMAX+1 entries.  Each
     1985       10            entry is one word long, except for ER entries which occupy one
     1986       11            or two words.  In all entries the first two bytes are the ASCII
     1987       12            chars identifying the entry.  The remainder of the entry contains
     1988       13            information about which socket or buffer the event involves.
     1989       14            Here are the event types.....
     1990       15                AV  - B$COMIO DATA_AVL event received           SOCK
     1991       16                CL  - M$CLOSE                                   SOCK
     1992       17                ER  - monitor service error, code follows       SOCK or BUFX
     1993       18                EV  - B$NWIO event received                     BUFX
     1994       19                GB  - get buffer                                BUFX
     1995       20                GP  - get socket pointer                        PLUGH
     1996       21                GT  - M$GETDCB                                  SOCK
     1997       22                NW  - M$READ WAIT=NO                            BUFX
     1998       23                OP  - M$OPEN                                    SOCK
     1999       24                RB  - release buffer                            BUFX
     2000       25                RD  - M$READ WAIT=YES                           SOCK
     2001       26                RL  - M$RELDCB                                  SOCK
     2002       27                RQ  - B$COMIO DATA_RQS event received           SOCK
     2003       28                WR  - M$WRITE                                   SOCK
     2004       29                WT  - M$WAIT                                    SOCK or zero
     2005       30                WX  - M$WAIT for B$NWIO event(s)                SOCK
     2006       31                XX  - M$TRMPRG                                  SOCK
     2007       32
     2008       33            Here are the types of 'remainder' info.....
     2009       34                BUFX    - offset into DS of this data buffer (XSL$DATABUF)
     2010       35                SOCK    - offset into DS of this socket (XSL$SOCKINFO)
     2011       36                PLUGH   - IC of caller
PL6.E3A0      #010=XSL$EVLOG File=XSL$SOCKET1.:TCA2TSI                           SUN 11/16/97 14:36 Page:308
     2012       37
     2013       38            The event log starts at the address held in XSL_EVENTLOG$.
     2014       39            The index of the next available entry is in XSL_EVENTIDX.
     2015       40        */
     2016       41        XSL$EVLOG: PROC( CODE, DATA) NOAUTO;

     41  1 000000   000000 700200 xent  XSL$EVLOG    TSX0  ! X66_STATIC_2
         1 000001   000000 000002 0                  ZERO    0,2

     2017       42
     2018       43    1       DCL XSL_EVENTIDX SBIN SYMREF;
     2019       44    1       DCL XSL_EVENTMAX SBIN SYMREF;
     2020       45    1       DCL XSL_EVENTLOG$ PTR SYMREF;
     2021       46
     2022       47    1       DCL CODE UBIN;
     2023       48    1       DCL DATA UBIN;
     2024       49    1       DCL EVLOG(0:0) UBIN BASED( XSL_EVENTLOG$);
     2025       50    1       DCL XCODE UBIN;
     2026       51    1       DCL XDATA UBIN;
     2027       52        %EQU BLANKS = BITBIN( '040040'O);
     2028       53
     2029       54    2       DO INHIBIT;

     2030       55    2           IF XSL_EVENTLOG$ = ADDR( NIL) THEN RETURN;

     55  1 000002   000000 236200 xsym               LDQ   ! XSL_EVENTLOG$
         1 000003   000001 116200 xsym               CMPQ  ! B_VECTNIL+1
         1 000004   000007 601200 1                  TNZ   ! s:56

     55  1 000005   000000 221200 0                  LDX1  ! 0
         1 000006   000001 702211                    TSX2  ! 1,X1

     2031       56    2           XCODE = 0;

     56  1 000007   000003 450200 0                  STZ   ! XCODE

     2032       57    3           IF ADDR( CODE) ~= ADDR( NIL) THEN DO;
PL6.E3A0      #010=XSL$EVLOG File=XSL$SOCKET1.:TCA2TSI                           SUN 11/16/97 14:36 Page:309

     57  1 000010   000001 236200 0                  LDQ   ! @CODE
         1 000011   000001 116200 xsym               CMPQ  ! B_VECTNIL+1
         1 000012   000024 600200 1                  TZE   ! s:62

     2033       58    3               XCODE = CODE - %BLANKS;

     58  1 000013   000001 470600 0                  LDP0  ! @CODE
         1 000014   000000 235300                    LDA   ! 0,,PR0
         1 000015   040040 135207                    SBLA  ! 16416,DL
         1 000016   000003 755200 0                  STA   ! XCODE

     2034       59    3               XDATA = DATA / 262144;

     59  1 000017   000002 471600 0                  LDP1  ! @DATA
         1 000020   100000 236300                    LDQ   ! 0,,PR1
         1 000021   000022 772200                    QRL   ! 18
         1 000022   000004 756200 0                  STQ   ! XDATA

     2035       60    3               END;

     60  1 000023   000027 710200 1                  TRA   ! s:63

     2036       61    2           ELSE
     2037       62    2               XDATA = DATA;

     62  1 000024   000002 470600 0                  LDP0  ! @DATA
         1 000025   000000 235300                    LDA   ! 0,,PR0
         1 000026   000004 755200 0                  STA   ! XDATA

     2038       63    2           EVLOG( XSL_EVENTIDX) = XCODE + XDATA;

     63  1 000027   000003 236200 0                  LDQ   ! XCODE
         1 000030   000004 036200 0                  ADLQ  ! XDATA
         1 000031   000000 470600 xsym               LDP0  ! XSL_EVENTLOG$
         1 000032   000000 720200 xsym               LXL0  ! XSL_EVENTIDX
         1 000033   000000 756310                    STQ   ! 0,X0,PR0
PL6.E3A0      #010=XSL$EVLOG File=XSL$SOCKET1.:TCA2TSI                           SUN 11/16/97 14:36 Page:310

     2039       64    2           XSL_EVENTIDX = XSL_EVENTIDX + 1;

     64  1 000034   000000 054200 xsym               AOS   ! XSL_EVENTIDX

     2040       65    2           IF XSL_EVENTIDX > XSL_EVENTMAX THEN

     65  1 000035   000000 236200 xsym               LDQ   ! XSL_EVENTIDX
         1 000036   000000 116200 xsym               CMPQ  ! XSL_EVENTMAX
         1 000037   000041 604600 1                  TMOZ  ! s:67

     2041       66    2               XSL_EVENTIDX = 0;

     66  1 000040   000000 450200 xsym               STZ   ! XSL_EVENTIDX

     2042       67    2           RETURN;

     67  1 000041   000000 221200 0                  LDX1  ! 0
         1 000042   000001 702211                    TSX2  ! 1,X1

     2043       68    2           END;

     2044       69
     2045       70    1   END XSL$EVLOG;

     70  1 000043   000001 702211                    TSX2  ! 1,X1
     2046       71        %EOD;

PL6.E3A0      #010=XSL$EVLOG File=XSL$SOCKET1.:TCA2TSI                           SUN 11/16/97 14:36 Page:311
--  Include file information  --

   B$JIT_C.:E05TOU  was found in the system file and is never referenced.
   CP_6_C.:E05TOU  was found in the system file and is never referenced.
      No diagnostics issued in procedure XSL$EVLOG.
PL6.E3A0      #010=XSL$EVLOG File=XSL$SOCKET1.:TCA2TSI                           SUN 11/16/97 14:36 Page:312

 **** Variables and constants ****

  ****  Section 000  Data  XSL$EVLOG

  ****  Scalars and arrays  ****
OctLoc.c.b A Datatyp(siz) R M Lvl/name                 OctLoc.c.b A Datatyp(siz) R M Lvl/name

     1-0-0/w PTR         r     1 @CODE                      2-0-0/w PTR         r     1 @DATA
    *0-0-0/w UBIN        r     1 CODE                      *0-0-0/w UBIN        r     1 DATA
     3-0-0/w UBIN        r     1 XCODE                      4-0-0/w UBIN        r     1 XDATA

  ****  SYMREF variables  ****

  ****  Scalars and arrays  ****
OctLoc.c.b A Datatyp(siz) R M Lvl/name                 OctLoc.c.b A Datatyp(siz) R M Lvl/name

     0-0-0/w SBIN        r     1 XSL_EVENTIDX               0-0-0/w PTR         r     1 XSL_EVENTLOG$
     0-0-0/w SBIN        r     1 XSL_EVENTMAX

  ****  BASED and DCB variables  ****

  ****  Scalars and arrays  ****
OctLoc.c.b A Datatyp(siz) R M Lvl/name                 OctLoc.c.b A Datatyp(siz) R M Lvl/name

     0-0-0/w UBIN        r     1 EVLOG(0:0)


   Procedure XSL$EVLOG requires 36 words for executable code.
   Procedure XSL$EVLOG is declared NOAUTO and requires 6 words of local(STATIC) storage.
PL6.E3A0      #010=XSL$EVLOG File=XSL$SOCKET1.:TCA2TSI                           SUN 11/16/97 14:36 Page:313
          *** CROSS REFERENCE LISTING ***
**     DENOTES     IDENTIFIER DEFINITION
<<                 IDENTIFIER'S VALUE SET
>>                 IDENTIFIER'S VALUE USED
<>                 IDENTIFIER SET AND/OR USED
--                 IDENTIFIER REFERENCED
PL6.E3A0      #010=XSL$EVLOG File=XSL$SOCKET1.:TCA2TSI                           SUN 11/16/97 14:36 Page:314
          MINI XREF LISTING

CODE
        47**DCL        41--PROC       57--IF         58>>ASSIGN
DATA
        48**DCL        41--PROC       59>>ASSIGN     62>>ASSIGN
EVLOG
        49**DCL        63<<ASSIGN
XCODE
        50**DCL        56<<ASSIGN     58<<ASSIGN     63>>ASSIGN
XDATA
        51**DCL        59<<ASSIGN     62<<ASSIGN     63>>ASSIGN
XSL_EVENTIDX
        43**DCL        63>>ASSIGN     64<<ASSIGN     64>>ASSIGN     65>>IF         66<<ASSIGN
XSL_EVENTLOG$
        45**DCL        49--IMP-PTR    55>>IF         63>>ASSIGN
XSL_EVENTMAX
        44**DCL        65>>IF
PL6.E3A0      #010=XSL$EVLOG File=XSL$SOCKET1.:TCA2TSI                           SUN 11/16/97 14:36 Page:315
              *** CROSS REFERENCE LISTING ***
    **     DENOTES     IDENTIFIER DEFINITION
    <<                 IDENTIFIER'S VALUE SET
    >>                 IDENTIFIER'S VALUE USED
    <>                 IDENTIFIER SET AND/OR USED
    --                 IDENTIFIER REFERENCED
PL6.E3A0      #010=XSL$EVLOG File=XSL$SOCKET1.:TCA2TSI                           SUN 11/16/97 14:36 Page:316
              MINI UREF LISTING

XSL$EVLOG      41**PROC

PL6.E3A0      #011=XSL$SOCKMGMT File=XSL$SOCKET1.:TCA2TSI                        SUN 11/16/97 14:36 Page:317
     2047        1        /*T***********************************************************/
     2048        2        /*T*                                                         */
     2049        3        /*T* Copyright (c) Bull HN Information Systems Inc., 1997    */
     2050        4        /*T*                                                         */
     2051        5        /*T***********************************************************/
     2052        6        XSL$SOCKMGMT: PROC( SOCK#, SOCK$) ALTRET;
     2053        7        %INCLUDE B$ROSEG;
     2054       70        %INCLUDE B_SEGIDS_C;
     2055      609        %INCLUDE CP_6;
     2056      690            %FPT_EVENT( UENTRY=XSL$ASYNC, STCLASS=CONSTANT);
     2057      704            %FPT_GDS (STCLASS=CONSTANT);
     2058      720        %INCLUDE XSL_PERR_C;
     2059      775        %INCLUDE XSL_SOCKET_E;
     2060     1033        %INCLUDE XSL_SOCKET_M;
     2061     1794        %INCLUDE XSL_INTERNAL_M;
     2062     2045            %XSL$DATABUF( FPTN=DATABUF, STCLASS="BASED( BUF$)");
     2063     2078            %XSL$DATABUF( STCLASS=BASED);
     2064     2111            %XSL$SOCKINFO( FPTN=SOCK, STCLASS="BASED( P$)");
     2065     2255            %XSL$SOCKINFO( FPTN=XSL_SOCKINFO, STCLASS=CONSTANT);
     2066     2399            %XSL_SOCKINIT( STCLASS=CONSTANT);
     2067     2522            %XSL$SOCKHD( STCLASS="BASED(XSL_SOCK$$)");
     2068     2555
     2069     2556    1       DCL XSL$ASYNC ENTRY ASYNC;
     2070     2557    1       DCL XSL$CL_GET ENTRY(1) ALTRET;
     2071     2558    1       DCL XSL$CL_REL ENTRY(1) ALTRET;
     2072     2559    1       DCL XSL$ROUTES ENTRY(2) ALTRET;
     2073     2560    1       DCL XSL$EVLOG ENTRY(2);
     2074     2561
     2075     2562            /* BUF$ declared below must be the first AUTO variable */
     2076     2563            /* so that the PLUGH code later on will work correctly */
     2077     2564    1       DCL BUF$ PTR;
     2078     2565    1       DCL 1 PLUGH BASED ALIGNED,
     2079     2566    1           2 ADR UBIN(18),
     2080     2567    1           2 * BIT(18);
     2081     2568    1       DCL I UBIN;
     2082     2569    1       DCL TMP SBIN;
     2083     2570    1       DCL P$ PTR;
PL6.E3A0      #011=XSL$SOCKMGMT File=XSL$SOCKET1.:TCA2TSI                        SUN 11/16/97 14:36 Page:318
     2084     2571    1       DCL 1 R CONSTANT,
     2085     2572    1           2 * BIT(24) INIT( '00000000'O) UNAL,
     2086     2573    1           2 * BIT(12) INIT( %ROSID) UNAL;
     2087     2574    1       DCL B$ROSEG$ REDEF R PTR;
     2088     2575    1       DCL SOCK# UBIN;
     2089     2576    1       DCL SOCK$ PTR;
     2090     2577    1       DCL SOCK$ERR REDEF SOCK$ SBIN; /* Error code if ALTRET */
     2091     2578            %FPT_GDS (STCLASS=AUTO, FPTN=FPT@GDS);
     2092     2594    1       DCL XSL_DCBN2SOCK$$ PTR STATIC SYMDEF INIT( ADDR( NIL));
     2093     2595    1       DCL DCBN2SOCK(0:0) SBIN BASED( XSL_DCBN2SOCK$$);
     2094     2596    1       DCL MAXDCBN SBIN STATIC INIT( 0);
     2095     2597    1       DCL XSL_BUFSIZE SBIN STATIC SYMDEF INIT( 0);
     2096     2598    1       DCL XSL_EVENTIDX SBIN STATIC SYMDEF INIT( 0);
     2097     2599    1       DCL XSL_EVENTMAX SBIN STATIC SYMDEF INIT( 0);
     2098     2600    1       DCL XSL_EVENTLOG$ PTR STATIC SYMDEF INIT( ADDR( NIL));
     2099     2601    1       DCL XSL_SOCK$$ PTR STATIC SYMDEF INIT( ADDR( NIL));
     2100     2602    1       DCL XSL_ERRNO SBIN SYMREF;
     2101     2603
     2102     2604    1   XSL$DCBNPTR: ENTRY( SOCK#, SOCK$) ALTRET;
     2103     2605
     2104     2606            /* log caller's address */
     2105     2607    1       CALL XSL$EVLOG( 'GP', PINCRW(ADDR(BUF$),-5)->PLUGH.ADR);
     2106     2608    1       IF XSL_SOCK$$ = ADDR( NIL) OR
     2107     2609    1         SOCK# >= MAXDCBN OR DCBN2SOCK( SOCK#) = -1 THEN
     2108     2610    1           SOCK$ERR = %E$BADF;
     2109     2611    2       ELSE DO;
     2110     2612    2           SOCK$ = XSL$SOCKHD.SOCK$( DCBN2SOCK( SOCK#));
     2111     2613    3           IF NOT SOCK$->SOCK.FLAGS.TERMINATED THEN DO;
     2112     2614    3               IF SOCK$->SOCK.FEPERROR = 0 THEN
     2113     2615    3                   RETURN;
     2114     2616    4               ELSE DO;
     2115     2617    4                   I = SOCK$->SOCK.FEPERROR;
     2116     2618    4                   SOCK$->SOCK.FEPERROR = 0;
     2117     2619    4                   SOCK$ERR = I;
     2118     2620    4                   END;
     2119     2621    3               END;
     2120     2622    2           ELSE
PL6.E3A0      #011=XSL$SOCKMGMT File=XSL$SOCKET1.:TCA2TSI                        SUN 11/16/97 14:36 Page:319
     2121     2623    2               SOCK$ERR = %E$NOTSOCK;
     2122     2624    2           END;
     2123     2625    1       ALTRETURN;
     2124     2626
     2125     2627    1   XSL$SOCKPTR: ENTRY( SOCK#, SOCK$) ALTRET;
     2126     2628
     2127     2629            /* log caller's address */
     2128     2630    1       CALL XSL$EVLOG( 'GP', PINCRW(ADDR(BUF$),-5)->PLUGH.ADR);
     2129     2631    1       IF XSL_SOCK$$ = ADDR(NIL) OR SOCK# >= XSL$SOCKHD.MAXSOCK THEN
     2130     2632    1           SOCK$ERR = %E$BADF;
     2131     2633    1       ELSE
     2132     2634    1           IF XSL$SOCKHD.SOCK$( SOCK#) -> SOCK.FLAGS.TERMINATED THEN
     2133     2635    1               SOCK$ERR = %E$NOTSOCK;
     2134     2636    2           ELSE DO;
     2135     2637    2               SOCK$ = XSL$SOCKHD.SOCK$( SOCK#);
     2136     2638    2               IF SOCK$->SOCK.FEPERROR = 0 THEN
     2137     2639    2                   RETURN;
     2138     2640    3               ELSE DO;
     2139     2641    3                   I = SOCK$->SOCK.FEPERROR;
     2140     2642    3                   SOCK$->SOCK.FEPERROR = 0;
     2141     2643    3                   SOCK$ERR = I;
     2142     2644    3                   END;
     2143     2645    2               END;
     2144     2646    1       ALTRETURN;
     2145     2647
     2146     2648    1   XSL$GETSOCK: ENTRY( SOCK#, SOCK$) ALTRET;
     2147     2649
     2148     2650    1       IF XSL_SOCK$$ = ADDR( NIL) THEN CALL SOCKINIT( XSL_SOCKINIT);
     2149     2651
     2150     2652    2       DO I = 0 TO XSL$SOCKHD.MAXSOCK-1;
     2151     2653    2           P$ = XSL$SOCKHD.SOCK$( I);
     2152     2654    3           IF SOCK.FLAGS.TERMINATED THEN DO;
     2153     2655    3               SOCK$ = P$;
     2154     2656    3               SOCK = XSL_SOCKINFO;
     2155     2657    3               SOCK.FLAGS = '0'B;
     2156     2658    3               SOCK.SOCK# = I;
     2157     2659    4               CALL XSL$CL_GET( SOCK) WHENALTRETURN DO;
PL6.E3A0      #011=XSL$SOCKMGMT File=XSL$SOCKET1.:TCA2TSI                        SUN 11/16/97 14:36 Page:320
     2158     2660    4                   SOCK$ERR = %E$MFILE;
     2159     2661    4                   ALTRETURN;
     2160     2662    4                   END;
     2161     2663    3               SOCK# = I;
     2162     2664    3               DCBN2SOCK( SOCK.DCB#) = I;
     2163     2665    3               SOCK.MAXRDS = XSL$SOCKHD.MAXRDS;
     2164     2666    3               SOCK.MAXBUF = XSL$SOCKHD.MAXBUF;
     2165     2667    3               RETURN;
     2166     2668    3               END;
     2167     2669    2           END;
     2168     2670    1       SOCK$ERR = %E$MFILE;
     2169     2671    1   BAILOUT:
     2170     2672    1       ALTRETURN;
     2171     2673
     2172     2674    1   XSL$RELSOCK: ENTRY( SOCK#) ALTRET;
     2173     2675
     2174     2676    1       IF XSL_SOCK$$ = ADDR( NIL) OR SOCK# >= XSL$SOCKHD.MAXSOCK THEN
     2175     2677    1           GOTO BAILOUT;
     2176     2678    1       P$ = XSL$SOCKHD.SOCK$( SOCK#);
     2177     2679    1       IF SOCK.FLAGS.TERMINATED THEN
     2178     2680    1           GOTO BAILOUT;
     2179     2681    2       IF SOCK.MAXRDS > 0 THEN DO INHIBIT;
     2180     2682    2           BUF$ = PINCRW( XSL_SOCK$$, SOCK.BUFHD);
     2181     2683    3           DO WHILE( BUF$ ~= XSL_SOCK$$);
     2182     2684    3               DATABUF.FLAGS.BUSY = '0'B;
     2183     2685    3               DATABUF.START = 0;
     2184     2686    3               DATABUF.LEN = 0;
     2185     2687    3               BUF$ = PINCRW( XSL_SOCK$$, DATABUF.NXT);
     2186     2688    3               END;
     2187     2689    3           IF XSL$SOCKHD.BUFHD = 0 THEN DO;
     2188     2690    3               XSL$SOCKHD.BUFHD = SOCK.BUFHD;
     2189     2691    3               XSL$SOCKHD.BUFTL = SOCK.BUFTL;
     2190     2692    3               END;
     2191     2693    3           ELSE DO;
     2192     2694    3               PINCRW( XSL_SOCK$$, XSL$SOCKHD.BUFTL)->XSL$DATABUF.NXT = SOCK.BUFHD;
     2193     2695    3               IF SOCK.BUFTL ~= 0 THEN
     2194     2696    3                   XSL$SOCKHD.BUFTL = SOCK.BUFTL;
PL6.E3A0      #011=XSL$SOCKMGMT File=XSL$SOCKET1.:TCA2TSI                        SUN 11/16/97 14:36 Page:321
     2195     2697    3               END;
     2196     2698    2           END;
     2197     2699    1       DCBN2SOCK( SOCK.DCB#) = -1;
     2198     2700    1       CALL XSL$CL_REL( SOCK);
     2199     2701    1       SOCK = XSL_SOCKINFO;
     2200     2702    1       RETURN;
     2201     2703        %EJECT;
PL6.E3A0      #011=XSL$SOCKMGMT File=XSL$SOCKET1.:TCA2TSI                        SUN 11/16/97 14:36 Page:322
     2202     2704        /*F* NAME: XSL$SOCKINIT -- Initialize Socket Library
     2203     2705        ..::IT "Purpose:"
     2204     2706        .INL +4
     2205     2707        Initializes the Socket Library using given parameters.
     2206     2708        ..::IT "C Usage:"
     2207     2709        .INL 4
     2208     2710        .FIF
     2209     2711        XSL$SOCKINIT( &parms );
     2210     2712        ..::IT "PL6 Usage:"
     2211     2713        .INL 4
     2212     2714        .FIF
     2213     2715        CALL XSL$SOCKINIT( parms );
     2214     2716        ..::IT "Parameter:"
     2215     2717        .INL 4
     2216     2718        .FIF
     2217     2719        parms       XSL_SOCKINIT parameter structure
     2218     2720        ..::IT "Description:"
     2219     2721        The XSL$SOCKINIT procedure initializes the Socket Library using the parameters
     2220     2722        passed in an XSL_SOCKINIT structure.  An application may wish to invoke
     2221     2723        XSL$SOCKINIT to specify the use or non-use of NoWait I/O, to reserve memory
     2222     2724        space for I/O buffers, or to set up a linkage to handle the arrival of
     2223     2725        application-specific events.
     2224     2726        .SPB
     2225     2727        The parms parameter contains information used in Socket Library initialization.
     2226     2728        In C source, it is an xsl_sockinit structure found in <xsl_socket.h>.  In PL6
     2227     2729        source, it is an XSL_SOCKINIT structure found in XSL_SOCKET_M.
     2228     2730        .SPB
     2229     2731        The default values for the use of XSL_SOCKINIT currently are MAXSOCK=2,
     2230     2732        NWSOCKS=-1, BUFSIZE=512, MEM=NIL, EVNT=NIL, MAXRDS=2, MAXBUF=0.
     2231     2733        .SPB
     2232     2734        The defaults provided by XSL_SOCKINIT are adequate for simple applications.
     2233     2735        For applications with special requirements, you will want to choose more
     2234     2736        appropriate values, such as larger BUFSIZE or MAXSOCK.
     2235     2737        */
     2236     2738    1   XSL$SOCKINIT: ENTRY( SOCK#) ALTRET;
     2237     2739
     2238     2740    1       CALL SOCKINIT( SOCK#) ALTRET( BAILOUT);
PL6.E3A0      #011=XSL$SOCKMGMT File=XSL$SOCKET1.:TCA2TSI                        SUN 11/16/97 14:36 Page:323
     2239     2741    1       RETURN;
     2240     2742
     2241     2743    1   SOCKINIT: PROC( SOCKINIT) ALTRET;
     2242     2744
     2243     2745        %XSL_SOCKINIT( FPTN=SOCKINIT, STCLASS=PARAM);
     2244     2868    2       DCL 1 VECT BASED DALIGNED, 2 * BIT(36), 2 BASE$ PTR;
     2245     2869
     2246     2870    2       TMP = SOCKINIT.NWSOCKS;
     2247     2871    2       IF TMP = -1 THEN
     2248     2872    2           TMP = SOCKINIT.MAXSOCK;
     2249     2873    2       I = SIZEW(XSL$SOCKHD)-1 + SOCKINIT.MAXSOCK*( SIZEW(SOCK) + 1) +
     2250     2874    2         ( 1 + TMP * ( SOCKINIT.MAXRDS + SOCKINIT.MAXBUF)) *
     2251     2875    2         ( SIZEW( XSL$DATABUF) + ( SOCKINIT.BUFSIZE + 3) / 4);
     2252     2876    2       MAXDCBN = 1 + B$ROSEG$->B$ROSEG.NUMDCBS;
     2253     2877    2       I = I + MAXDCBN;  /* for DCBN2SOCK array */
     2254     2878    2       I = I + 64;  /* for event log & debugging of buffer mgmt */
     2255     2879
     2256     2880    2       IF I > 262143   /* space needed exceeds 256K */
     2257     2881    3       THEN DO;
     2258     2882    3           XSL_ERRNO = %E$INVAL;
     2259     2883    3           ALTRETURN;
     2260     2884    3           END;
     2261     2885
     2262     2886    2       XSL_EVENTMAX = 63;
     2263     2887    3       IF SOCKINIT.MEM$ = ADDR( NIL) THEN DO;
     2264     2888    3           FPT@GDS = FPT_GDS;
     2265     2889    3           ADDR( FPT@GDS.V_) -> VECT.BASE$ = ADDR( FPT@GDS.V);
     2266     2890    3           ADDR( FPT@GDS.V) -> VECT.BASE$ = ADDR( NIL);
     2267     2891    3           FPT@GDS.RESULTS_ = FPT@GDS.V_;
     2268     2892    3           FPT@GDS.V.SEGSIZE# = I;
     2269     2893    4           CALL M$GDS (FPT@GDS) WHENALTRETURN DO;
     2270     2894    4               XSL_ERRNO = %E$FAILURE;
     2271     2895    4               ALTRETURN;
     2272     2896    4               END;
     2273     2897    3           XSL_SOCK$$ = ADDR(FPT@GDS.V) -> VECT.BASE$;
     2274     2898    3           END;
     2275     2899    2       ELSE XSL_SOCK$$ = SOCKINIT.MEM$;
PL6.E3A0      #011=XSL$SOCKMGMT File=XSL$SOCKET1.:TCA2TSI                        SUN 11/16/97 14:36 Page:324
     2276     2900
     2277     2901    2       XSL_DCBN2SOCK$$ = PINCRW( XSL_SOCK$$, I - MAXDCBN);
     2278     2902
     2279     2903    2       XSL$SOCKHD.MAXSOCK = SOCKINIT.MAXSOCK;
     2280     2904    2       XSL$SOCKHD.SEGSIZE = I;
     2281     2905
     2282     2906    2       P$ = ADDR( XSL$SOCKHD.SOCK$( XSL$SOCKHD.MAXSOCK));
     2283     2907    3       DO I = 0 TO XSL$SOCKHD.MAXSOCK-1;
     2284     2908    3           XSL$SOCKHD.SOCK$( I) = P$;
     2285     2909    3           SOCK = XSL_SOCKINFO;
     2286     2910    3           P$ = PINCRW( P$, SIZEW( SOCK));
     2287     2911    3           END;
     2288     2912
     2289     2913    2       I = 1 + TMP * ( SOCKINIT.MAXRDS + SOCKINIT.MAXBUF);
     2290     2914    3       IF I > 0 THEN DO;
     2291     2915    3           TMP = SIZEW( XSL$DATABUF) + ( SOCKINIT.BUFSIZE + 3) / 4;
     2292     2916    3           XSL$SOCKHD.BUFHD = POFFW( P$, XSL_SOCK$$);
     2293     2917    4           DO WHILE( I > 1);
     2294     2918    4               P$->XSL$DATABUF.NXT = POFFW( P$, XSL_SOCK$$) + TMP;
     2295     2919    4               P$ = PINCRW( P$, TMP);
     2296     2920    4               I = I - 1;
     2297     2921    4               END;
     2298     2922    3           P$->XSL$DATABUF.NXT = 0;
     2299     2923    3           XSL$SOCKHD.BUFTL = POFFW( P$, XSL_SOCK$$);
     2300     2924    3           P$ = PINCRW( P$, TMP);  /* for subsequent usage of P$ */
     2301     2925    3           END;
     2302     2926    2       XSL_EVENTLOG$ = P$;
     2303     2927    2       XSL_BUFSIZE = SOCKINIT.BUFSIZE;
     2304     2928    2       XSL$SOCKHD.EVNT$ = SOCKINIT.EVNT$;
     2305     2929    3       IF SOCKINIT.NWSOCKS ~= 0 THEN DO;
     2306     2930        /*N*    SOCKINIT.EVNT$ = ENTADDR( XSL$ASYNC);   NEED THIS? */
     2307     2931    3           CALL M$EVENT( FPT_EVENT);
     2308     2932    3           XSL$SOCKHD.MAXRDS = SOCKINIT.MAXRDS;
     2309     2933    3           XSL$SOCKHD.MAXBUF = SOCKINIT.MAXBUF;
     2310     2934    3           END;
     2311     2935    3       ELSE DO;
     2312     2936    3           XSL$SOCKHD.MAXRDS = 0;
PL6.E3A0      #011=XSL$SOCKMGMT File=XSL$SOCKET1.:TCA2TSI                        SUN 11/16/97 14:36 Page:325
     2313     2937    3           XSL$SOCKHD.MAXBUF = 0;
     2314     2938    3           END;
     2315     2939
     2316     2940    3       DO I = 0 TO MAXDCBN - 1;
     2317     2941    3           DCBN2SOCK( I) = -1;
     2318     2942    3           END;
     2319     2943
     2320     2944    2       CALL XSL$ROUTES( 0);
     2321     2945
     2322     2946    2       RETURN;
     2323     2947    2   END SOCKINIT;
     2324     2948
     2325     2949    1   END XSL$SOCKMGMT;
     2326     2950        %EOD;

PL6.E3A0      #011=XSL$SOCKMGMT File=XSL$SOCKET1.:TCA2TSI                        SUN 11/16/97 14:36 Page:326
--  Include file information  --

   XSL_INTERNAL_M.:TCA2TOU  is referenced.
   XSL_SOCKET_M.:TCA2TOU  is referenced.
   XSL_SOCKET_E.:TCA2TOU  is referenced.
   XSL_PERR_C.:TCA2TOU  is referenced.
   CP_6.:E05TOU  cannot be made into a system file and is referenced.
   B_SEGIDS_C.:E05TOU  is referenced.
   B$ROSEG.:E05TOU  cannot be made into a system file and is referenced.
   B$JIT_C.:E05TOU  was found in the system file and is never referenced.
   CP_6_C.:E05TOU  was found in the system file and is referenced.
      No diagnostics issued in procedure XSL$SOCKMGMT.

   Procedure XSL$SOCKMGMT requires 456 words for executable code.
   Procedure XSL$SOCKMGMT requires 22 words of local(AUTO) storage.

PL6.E3A0      #011=XSL$SOCKMGMT File=XSL$SOCKET1.:TCA2TSI                        SUN 11/16/97 14:36 Page:327

 Object Unit name= XSL$SOCKMGMT                               File name= XSL$SOCKET1.:TCA2TOU
 UTS= NOV 16 '97 14:36:21.20 SUN                              Compiler= PL-6/E31         Sev=      00
 SharedLib= :SHARED_SYSTEM                                    Alt SharedLib=


    ****  Control sections  ****

 Sect   Type Bound  Init  Size OctSiz  Section name(segment info)
    0   DCB   even  none     0      0  M$UC
    1  RoData even  UTS     38     46  XSL$SOCKMGMT
    2   Data  even  none     7      7  XSL$SOCKMGMT
    3   Proc  even  none   456    710  XSL$SOCKMGMT
    4  RoData even  none     3      3  XSL$SOCKMGMT

    ****  Entry defs  ****

                              Check   Calling
                             calling  sequence
  Sect OctLoc Primary Altret sequence   type   Parms  Name
     3      0   yes    yes     yes      Std        2  XSL$SOCKMGMT
     3      3          yes     yes      Std        2  XSL$DCBNPTR
     3     63          yes     yes      Std        2  XSL$SOCKPTR
     3    140          yes     yes      Std        2  XSL$GETSOCK
     3    240          yes     yes      Std        1  XSL$RELSOCK
     3    347          yes     yes      Std        1  XSL$SOCKINIT

  ****  Data defs  ****

 Sect OctLoc  Name                           Sect OctLoc  Name
    2      0  XSL_DCBN2SOCK$$                    2      2  XSL_BUFSIZE
    2      3  XSL_EVENTIDX                       2      4  XSL_EVENTMAX
    2      5  XSL_EVENTLOG$                      2      6  XSL_SOCK$$
PL6.E3A0      #011=XSL$SOCKMGMT File=XSL$SOCKET1.:TCA2TSI                        SUN 11/16/97 14:36 Page:328

  ****  Entry refs  ****

         Check        Calling
        calling       sequence
Altret sequence SRef   type   Args  Name
         yes          Async      0 XSL$ASYNC
         yes           Std       2 XSL$EVLOG
 yes     yes           Std       1 XSL$CL_GET
 yes     yes           Std       1 XSL$CL_REL
 yes     yes           Std       2 XSL$ROUTES
                       nStd      0 X66_AUTO_2
                       Std       0 B_CONSPOOL_D
                       nStd      0 X66_ARET
                       nStd      0 X66_AALT

  ****  Data refs  ****

  Flags:  r = read only, s = secondary
Flgs Name                             Flgs Name                             Flgs Name
     M$UC                                  XSL_ERRNO                             B_VECTNIL

  ****  Segment refs  ****

  Flags:  r = read only, s = secondary
Flgs Name                             Flgs Name                             Flgs Name
     ISSID                                 NULLSID
PL6.E3A0      #011=XSL$SOCKMGMT File=XSL$SOCKET1.:TCA2TSI                        SUN 11/16/97 14:36 Page:329


     2047        1        /*T***********************************************************/
     2048        2        /*T*                                                         */
     2049        3        /*T* Copyright (c) Bull HN Information Systems Inc., 1997    */
     2050        4        /*T*                                                         */
     2051        5        /*T***********************************************************/
     2052        6        XSL$SOCKMGMT: PROC( SOCK#, SOCK$) ALTRET;

      6  3 000000   000000 700200 xent  XSL$SOCKMGMT TSX0  ! X66_AUTO_2
         3 000001   000026 000002                    ZERO    22,2
         3 000002   000005 710000 3                  TRA     s:2607

     2053        7        %INCLUDE B$ROSEG;
     2054       70        %INCLUDE B_SEGIDS_C;
     2055      609        %INCLUDE CP_6;
     2056      690            %FPT_EVENT( UENTRY=XSL$ASYNC, STCLASS=CONSTANT);
     2057      704            %FPT_GDS (STCLASS=CONSTANT);
     2058      720        %INCLUDE XSL_PERR_C;
     2059      775        %INCLUDE XSL_SOCKET_E;
     2060     1033        %INCLUDE XSL_SOCKET_M;
     2061     1794        %INCLUDE XSL_INTERNAL_M;
     2062     2045            %XSL$DATABUF( FPTN=DATABUF, STCLASS="BASED( BUF$)");
     2063     2078            %XSL$DATABUF( STCLASS=BASED);
     2064     2111            %XSL$SOCKINFO( FPTN=SOCK, STCLASS="BASED( P$)");
     2065     2255            %XSL$SOCKINFO( FPTN=XSL_SOCKINFO, STCLASS=CONSTANT);
     2066     2399            %XSL_SOCKINIT( STCLASS=CONSTANT);
     2067     2522            %XSL$SOCKHD( STCLASS="BASED(XSL_SOCK$$)");
     2068     2555
     2069     2556    1       DCL XSL$ASYNC ENTRY ASYNC;
     2070     2557    1       DCL XSL$CL_GET ENTRY(1) ALTRET;
     2071     2558    1       DCL XSL$CL_REL ENTRY(1) ALTRET;
     2072     2559    1       DCL XSL$ROUTES ENTRY(2) ALTRET;
     2073     2560    1       DCL XSL$EVLOG ENTRY(2);
     2074     2561
     2075     2562            /* BUF$ declared below must be the first AUTO variable */
     2076     2563            /* so that the PLUGH code later on will work correctly */
     2077     2564    1       DCL BUF$ PTR;
PL6.E3A0      #011=XSL$SOCKMGMT File=XSL$SOCKET1.:TCA2TSI                        SUN 11/16/97 14:36 Page:330
     2078     2565    1       DCL 1 PLUGH BASED ALIGNED,
     2079     2566    1           2 ADR UBIN(18),
     2080     2567    1           2 * BIT(18);
     2081     2568    1       DCL I UBIN;
     2082     2569    1       DCL TMP SBIN;
     2083     2570    1       DCL P$ PTR;
     2084     2571    1       DCL 1 R CONSTANT,
     2085     2572    1           2 * BIT(24) INIT( '00000000'O) UNAL,
     2086     2573    1           2 * BIT(12) INIT( %ROSID) UNAL;
     2087     2574    1       DCL B$ROSEG$ REDEF R PTR;
     2088     2575    1       DCL SOCK# UBIN;
     2089     2576    1       DCL SOCK$ PTR;
     2090     2577    1       DCL SOCK$ERR REDEF SOCK$ SBIN; /* Error code if ALTRET */
     2091     2578            %FPT_GDS (STCLASS=AUTO, FPTN=FPT@GDS);
     2092     2594    1       DCL XSL_DCBN2SOCK$$ PTR STATIC SYMDEF INIT( ADDR( NIL));
     2093     2595    1       DCL DCBN2SOCK(0:0) SBIN BASED( XSL_DCBN2SOCK$$);
     2094     2596    1       DCL MAXDCBN SBIN STATIC INIT( 0);
     2095     2597    1       DCL XSL_BUFSIZE SBIN STATIC SYMDEF INIT( 0);
     2096     2598    1       DCL XSL_EVENTIDX SBIN STATIC SYMDEF INIT( 0);
     2097     2599    1       DCL XSL_EVENTMAX SBIN STATIC SYMDEF INIT( 0);
     2098     2600    1       DCL XSL_EVENTLOG$ PTR STATIC SYMDEF INIT( ADDR( NIL));
     2099     2601    1       DCL XSL_SOCK$$ PTR STATIC SYMDEF INIT( ADDR( NIL));
     2100     2602    1       DCL XSL_ERRNO SBIN SYMREF;
     2101     2603
     2102     2604    1   XSL$DCBNPTR: ENTRY( SOCK#, SOCK$) ALTRET;

   2604  3 000003   000000 700200 xent  XSL$DCBNPTR  TSX0  ! X66_AUTO_2
         3 000004   000026 000002                    ZERO    22,2

     2103     2605
     2104     2606            /* log caller's address */
     2105     2607    1       CALL XSL$EVLOG( 'GP', PINCRW(ADDR(BUF$),-5)->PLUGH.ADR);

   2607  3 000005   200023 452500                    STP2    @SOCKINIT+2,,AUTO
         3 000006   000000 236000 4                  LDQ     0
         3 000007   200022 756100                    STQ     @SOCKINIT+1,,AUTO
         3 000010   200022 630500                    EPPR0   @SOCKINIT+1,,AUTO
PL6.E3A0      #011=XSL$SOCKMGMT File=XSL$SOCKET1.:TCA2TSI                        SUN 11/16/97 14:36 Page:331
         3 000011   000020 631400 xsym               EPPR1   B_VECTNIL+16
         3 000012   000000 701000 xent               TSX1    XSL$EVLOG
         3 000013   000000 011000                    NOP     0

     2106     2608    1       IF XSL_SOCK$$ = ADDR( NIL) OR

   2608  3 000014   000006 236000 2                  LDQ     XSL_SOCK$$
         3 000015   000001 116000 xsym               CMPQ    B_VECTNIL+1
         3 000016   000031 600000 3                  TZE     s:2610
         3 000017   200003 470500                    LDP0    @SOCK#,,AUTO
         3 000020   000000 236100                    LDQ     0,,PR0
         3 000021   000031 604000 3                  TMI     s:2610
         3 000022   000001 116000 2                  CMPQ    MAXDCBN
         3 000023   000031 605000 3                  TPL     s:2610
         3 000024   000000 720100                    LXL0    0,,PR0
         3 000025   000000 471400 2                  LDP1    XSL_DCBN2SOCK$$
         3 000026   100000 235110                    LDA     0,X0,PR1
         3 000027   000027 115000 xsym               CMPA    B_VECTNIL+23
         3 000030   000035 601000 3                  TNZ     s:2612

     2107     2609    1         SOCK# >= MAXDCBN OR DCBN2SOCK( SOCK#) = -1 THEN
     2108     2610    1           SOCK$ERR = %E$BADF;

   2610  3 000031   000011 235007                    LDA     9,DL
         3 000032   200004 470500                    LDP0    @SOCK$,,AUTO
         3 000033   000000 755100                    STA     0,,PR0
         3 000034   000062 710000 3                  TRA     s:2625

     2109     2611    2       ELSE DO;

     2110     2612    2           SOCK$ = XSL$SOCKHD.SOCK$( DCBN2SOCK( SOCK#));

   2612  3 000035   000006 473400 2                  LDP3    XSL_SOCK$$
         3 000036   300004 236105                    LDQ     4,AL,PR3
         3 000037   200004 474500                    LDP4    @SOCK$,,AUTO
         3 000040   400000 756100                    STQ     0,,PR4

PL6.E3A0      #011=XSL$SOCKMGMT File=XSL$SOCKET1.:TCA2TSI                        SUN 11/16/97 14:36 Page:332
     2111     2613    3           IF NOT SOCK$->SOCK.FLAGS.TERMINATED THEN DO;

   2613  3 000041   400000 471500                    LDP1    0,,PR4
         3 000042   100001 234100                    SZN     1,,PR1
         3 000043   000060 604000 3                  TMI     s:2623

     2112     2614    3               IF SOCK$->SOCK.FEPERROR = 0 THEN

   2614  3 000044   100001 236100                    LDQ     1,,PR1
         3 000045   000777 316007                    CANQ    511,DL
         3 000046   000050 601000 3                  TNZ     s:2617

     2113     2615    3                   RETURN;

   2615  3 000047   000000 702200 xent               TSX2  ! X66_ARET

     2114     2616    4               ELSE DO;

     2115     2617    4                   I = SOCK$->SOCK.FEPERROR;

   2617  3 000050   100001 236100                    LDQ     1,,PR1
         3 000051   000777 376007                    ANQ     511,DL
         3 000052   200006 756100                    STQ     I,,AUTO

     2116     2618    4                   SOCK$->SOCK.FEPERROR = 0;

   2618  3 000053   000000 236003                    LDQ     0,DU
         3 000054   100001 552104                    STBQ    1,'04'O,PR1

     2117     2619    4                   SOCK$ERR = I;

   2619  3 000055   200006 235100                    LDA     I,,AUTO
         3 000056   400000 755100                    STA     0,,PR4

     2118     2620    4                   END;

     2119     2621    3               END;
PL6.E3A0      #011=XSL$SOCKMGMT File=XSL$SOCKET1.:TCA2TSI                        SUN 11/16/97 14:36 Page:333

   2621  3 000057   000062 710000 3                  TRA     s:2625

     2120     2622    2           ELSE
     2121     2623    2               SOCK$ERR = %E$NOTSOCK;

   2623  3 000060   000141 235007                    LDA     97,DL
         3 000061   400000 755100                    STA     0,,PR4

     2122     2624    2           END;

     2123     2625    1       ALTRETURN;

   2625  3 000062   000000 702200 xent               TSX2  ! X66_AALT

     2124     2626
     2125     2627    1   XSL$SOCKPTR: ENTRY( SOCK#, SOCK$) ALTRET;

   2627  3 000063   000000 700200 xent  XSL$SOCKPTR  TSX0  ! X66_AUTO_2
         3 000064   000026 000002                    ZERO    22,2

     2126     2628
     2127     2629            /* log caller's address */
     2128     2630    1       CALL XSL$EVLOG( 'GP', PINCRW(ADDR(BUF$),-5)->PLUGH.ADR);

   2630  3 000065   200023 452500                    STP2    @SOCKINIT+2,,AUTO
         3 000066   000000 236000 4                  LDQ     0
         3 000067   200022 756100                    STQ     @SOCKINIT+1,,AUTO
         3 000070   200022 630500                    EPPR0   @SOCKINIT+1,,AUTO
         3 000071   000020 631400 xsym               EPPR1   B_VECTNIL+16
         3 000072   000000 701000 xent               TSX1    XSL$EVLOG
         3 000073   000000 011000                    NOP     0

     2129     2631    1       IF XSL_SOCK$$ = ADDR(NIL) OR SOCK# >= XSL$SOCKHD.MAXSOCK THEN

   2631  3 000074   000006 236000 2                  LDQ     XSL_SOCK$$
         3 000075   000001 116000 xsym               CMPQ    B_VECTNIL+1
PL6.E3A0      #011=XSL$SOCKMGMT File=XSL$SOCKET1.:TCA2TSI                        SUN 11/16/97 14:36 Page:334
         3 000076   000104 600000 3                  TZE     s:2632
         3 000077   200003 470500                    LDP0    @SOCK#,,AUTO
         3 000100   000006 471400 2                  LDP1    XSL_SOCK$$
         3 000101   000000 236100                    LDQ     0,,PR0
         3 000102   100002 116100                    CMPQ    2,,PR1
         3 000103   000110 602000 3                  TNC     s:2634

     2130     2632    1           SOCK$ERR = %E$BADF;

   2632  3 000104   000011 235007                    LDA     9,DL
         3 000105   200004 470500                    LDP0    @SOCK$,,AUTO
         3 000106   000000 755100                    STA     0,,PR0
         3 000107   000137 710000 3                  TRA     s:2646

     2131     2633    1       ELSE
     2132     2634    1           IF XSL$SOCKHD.SOCK$( SOCK#) -> SOCK.FLAGS.TERMINATED THEN

   2634  3 000110   000000 720100                    LXL0    0,,PR0
         3 000111   100004 473510                    LDP3    4,X0,PR1
         3 000112   300001 234100                    SZN     1,,PR3
         3 000113   000120 605000 3                  TPL     s:2637

     2133     2635    1               SOCK$ERR = %E$NOTSOCK;

   2635  3 000114   000141 235007                    LDA     97,DL
         3 000115   200004 474500                    LDP4    @SOCK$,,AUTO
         3 000116   400000 755100                    STA     0,,PR4
         3 000117   000137 710000 3                  TRA     s:2646

     2134     2636    2           ELSE DO;

     2135     2637    2               SOCK$ = XSL$SOCKHD.SOCK$( SOCK#);

   2637  3 000120   100004 236110                    LDQ     4,X0,PR1
         3 000121   200004 474500                    LDP4    @SOCK$,,AUTO
         3 000122   400000 756100                    STQ     0,,PR4

PL6.E3A0      #011=XSL$SOCKMGMT File=XSL$SOCKET1.:TCA2TSI                        SUN 11/16/97 14:36 Page:335
     2136     2638    2               IF SOCK$->SOCK.FEPERROR = 0 THEN

   2638  3 000123   400000 471500                    LDP1    0,,PR4
         3 000124   100001 236100                    LDQ     1,,PR1
         3 000125   000777 316007                    CANQ    511,DL
         3 000126   000130 601000 3                  TNZ     s:2641

     2137     2639    2                   RETURN;

   2639  3 000127   000000 702200 xent               TSX2  ! X66_ARET

     2138     2640    3               ELSE DO;

     2139     2641    3                   I = SOCK$->SOCK.FEPERROR;

   2641  3 000130   100001 236100                    LDQ     1,,PR1
         3 000131   000777 376007                    ANQ     511,DL
         3 000132   200006 756100                    STQ     I,,AUTO

     2140     2642    3                   SOCK$->SOCK.FEPERROR = 0;

   2642  3 000133   000000 236003                    LDQ     0,DU
         3 000134   100001 552104                    STBQ    1,'04'O,PR1

     2141     2643    3                   SOCK$ERR = I;

   2643  3 000135   200006 235100                    LDA     I,,AUTO
         3 000136   400000 755100                    STA     0,,PR4

     2142     2644    3                   END;

     2143     2645    2               END;

     2144     2646    1       ALTRETURN;

   2646  3 000137   000000 702200 xent               TSX2  ! X66_AALT

PL6.E3A0      #011=XSL$SOCKMGMT File=XSL$SOCKET1.:TCA2TSI                        SUN 11/16/97 14:36 Page:336
     2145     2647
     2146     2648    1   XSL$GETSOCK: ENTRY( SOCK#, SOCK$) ALTRET;

   2648  3 000140   000000 700200 xent  XSL$GETSOCK  TSX0  ! X66_AUTO_2
         3 000141   000026 000002                    ZERO    22,2

     2147     2649
     2148     2650    1       IF XSL_SOCK$$ = ADDR( NIL) THEN CALL SOCKINIT( XSL_SOCKINIT);

   2650  3 000142   000006 236000 2                  LDQ     XSL_SOCK$$
         3 000143   000001 116000 xsym               CMPQ    B_VECTNIL+1
         3 000144   000151 601000 3                  TNZ     s:2652

   2650  3 000145   000001 236000 4                  LDQ     1
         3 000146   200021 756100                    STQ     FPT@GDS+7,,AUTO
         3 000147   000356 701000 3                  TSX1    SOCKINIT
         3 000150   000000 011000                    NOP     0

     2149     2651
     2150     2652    2       DO I = 0 TO XSL$SOCKHD.MAXSOCK-1;

   2652  3 000151   200006 450100                    STZ     I,,AUTO
         3 000152   000230 710000 3                  TRA     s:2669+3

     2151     2653    2           P$ = XSL$SOCKHD.SOCK$( I);

   2653  3 000153   000006 470400 2                  LDP0    XSL_SOCK$$
         3 000154   200006 720100                    LXL0    I,,AUTO
         3 000155   000004 236110                    LDQ     4,X0,PR0
         3 000156   200010 756100                    STQ     P$,,AUTO

     2152     2654    3           IF SOCK.FLAGS.TERMINATED THEN DO;

   2654  3 000157   200010 471500                    LDP1    P$,,AUTO
         3 000160   100001 234100                    SZN     1,,PR1
         3 000161   000225 605000 3                  TPL     s:2669

PL6.E3A0      #011=XSL$SOCKMGMT File=XSL$SOCKET1.:TCA2TSI                        SUN 11/16/97 14:36 Page:337
     2153     2655    3               SOCK$ = P$;

   2655  3 000162   200004 473500                    LDP3    @SOCK$,,AUTO
         3 000163   300000 756100                    STQ     0,,PR3

     2154     2656    3               SOCK = XSL_SOCKINFO;

   2656  3 000164   000100 100400                    MLR     fill='000'O
         3 000165   000012 000120 1                  ADSC9   XSL_SOCKINFO             cn=0,n=80
         3 000166   100000 000120                    ADSC9   0,,PR1                   cn=0,n=80

     2155     2657    3               SOCK.FLAGS = '0'B;

   2657  3 000167   177777 236007                    LDQ     65535,DL
         3 000170   100001 356100                    ANSQ    1,,PR1

     2156     2658    3               SOCK.SOCK# = I;

   2658  3 000171   200006 236100                    LDQ     I,,AUTO
         3 000172   100000 552104                    STBQ    0,'04'O,PR1

     2157     2659    4               CALL XSL$CL_GET( SOCK) WHENALTRETURN DO;

   2659  3 000173   200010 630500                    EPPR0   P$,,AUTO
         3 000174   000017 631400 xsym               EPPR1   B_VECTNIL+15
         3 000175   000000 701000 xent               TSX1    XSL$CL_GET
         3 000176   000200 702000 3                  TSX2    s:2660
         3 000177   000204 710000 3                  TRA     s:2663

     2158     2660    4                   SOCK$ERR = %E$MFILE;

   2660  3 000200   000030 235007                    LDA     24,DL
         3 000201   200004 470500                    LDP0    @SOCK$,,AUTO
         3 000202   000000 755100                    STA     0,,PR0

     2159     2661    4                   ALTRETURN;

PL6.E3A0      #011=XSL$SOCKMGMT File=XSL$SOCKET1.:TCA2TSI                        SUN 11/16/97 14:36 Page:338
   2661  3 000203   000000 702200 xent               TSX2  ! X66_AALT

     2160     2662    4                   END;
     2161     2663    3               SOCK# = I;

   2663  3 000204   200003 470500                    LDP0    @SOCK#,,AUTO
         3 000205   200006 235100                    LDA     I,,AUTO
         3 000206   000000 755100                    STA     0,,PR0

     2162     2664    3               DCBN2SOCK( SOCK.DCB#) = I;

   2664  3 000207   200010 471500                    LDP1    P$,,AUTO
         3 000210   100003 720100                    LXL0    3,,PR1
         3 000211   000000 473400 2                  LDP3    XSL_DCBN2SOCK$$
         3 000212   300000 755110                    STA     0,X0,PR3

     2163     2665    3               SOCK.MAXRDS = XSL$SOCKHD.MAXRDS;

   2665  3 000213   000006 473400 2                  LDP3    XSL_SOCK$$
         3 000214   300001 720100                    LXL0    1,,PR3
         3 000215   000777 360003                    ANX0    511,DU
         3 000216   100020 440100                    SXL0    16,,PR1

     2164     2666    3               SOCK.MAXBUF = XSL$SOCKHD.MAXBUF;

   2666  3 000217   300001 236100                    LDQ     1,,PR3
         3 000220   000011 772000                    QRL     9
         3 000221   000777 376007                    ANQ     511,DL
         3 000222   000000 621006                    EAX1    0,QL
         3 000223   100020 741100                    STX1    16,,PR1

     2165     2667    3               RETURN;

   2667  3 000224   000000 702200 xent               TSX2  ! X66_ARET

     2166     2668    3               END;
     2167     2669    2           END;
PL6.E3A0      #011=XSL$SOCKMGMT File=XSL$SOCKET1.:TCA2TSI                        SUN 11/16/97 14:36 Page:339

   2669  3 000225   200006 235100                    LDA     I,,AUTO
         3 000226   000001 035007                    ADLA    1,DL
         3 000227   200006 755100                    STA     I,,AUTO
         3 000230   000006 470400 2                  LDP0    XSL_SOCK$$
         3 000231   200006 236100                    LDQ     I,,AUTO
         3 000232   000002 116100                    CMPQ    2,,PR0
         3 000233   000153 602000 3                  TNC     s:2653

     2168     2670    1       SOCK$ERR = %E$MFILE;

   2670  3 000234   000030 235007                    LDA     24,DL
         3 000235   200004 471500                    LDP1    @SOCK$,,AUTO
         3 000236   100000 755100                    STA     0,,PR1

     2169     2671    1   BAILOUT:
     2170     2672    1       ALTRETURN;

   2672  3 000237   000000 702200 xent  BAILOUT      TSX2  ! X66_AALT

     2171     2673
     2172     2674    1   XSL$RELSOCK: ENTRY( SOCK#) ALTRET;

   2674  3 000240   000000 700200 xent  XSL$RELSOCK  TSX0  ! X66_AUTO_2
         3 000241   000026 000002                    ZERO    22,2

     2173     2675
     2174     2676    1       IF XSL_SOCK$$ = ADDR( NIL) OR SOCK# >= XSL$SOCKHD.MAXSOCK THEN

   2676  3 000242   000006 236000 2                  LDQ     XSL_SOCK$$
         3 000243   000001 116000 xsym               CMPQ    B_VECTNIL+1
         3 000244   000237 600000 3                  TZE     BAILOUT
         3 000245   200003 470500                    LDP0    @SOCK#,,AUTO
         3 000246   000006 471400 2                  LDP1    XSL_SOCK$$
         3 000247   000000 236100                    LDQ     0,,PR0
         3 000250   100002 116100                    CMPQ    2,,PR1
         3 000251   000237 603000 3                  TRC     BAILOUT
PL6.E3A0      #011=XSL$SOCKMGMT File=XSL$SOCKET1.:TCA2TSI                        SUN 11/16/97 14:36 Page:340

     2175     2677    1           GOTO BAILOUT;
     2176     2678    1       P$ = XSL$SOCKHD.SOCK$( SOCK#);

   2678  3 000252   000000 720100                    LXL0    0,,PR0
         3 000253   100004 236110                    LDQ     4,X0,PR1
         3 000254   200010 756100                    STQ     P$,,AUTO

     2177     2679    1       IF SOCK.FLAGS.TERMINATED THEN

   2679  3 000255   200010 473500                    LDP3    P$,,AUTO
         3 000256   300001 234100                    SZN     1,,PR3
         3 000257   000237 604000 3                  TMI     BAILOUT

     2178     2680    1           GOTO BAILOUT;
     2179     2681    2       IF SOCK.MAXRDS > 0 THEN DO INHIBIT;

   2681  3 000260   300020 721100                    LXL1    16,,PR3
         3 000261   000331 600000 3                  TZE     s:2699

     2180     2682    2           BUF$ = PINCRW( XSL_SOCK$$, SOCK.BUFHD);

   2682  3 000262   300016 222300                    LDX2  ! 14,,PR3
         3 000263   000000 636212                    EAQ   ! 0,X2
         3 000264   000006 036200 2                  ADLQ  ! XSL_SOCK$$
         3 000265   200005 756300                    STQ   ! BUF$,,AUTO

     2181     2683    3           DO WHILE( BUF$ ~= XSL_SOCK$$);

   2683  3 000266   000006 116200 2                  CMPQ  ! XSL_SOCK$$
         3 000267   000307 600200 3                  TZE   ! s:2689

     2182     2684    3               DATABUF.FLAGS.BUSY = '0'B;

   2684  3 000270   200005 470700                    LDP0  ! BUF$,,AUTO
         3 000271   000031 236200 xsym               LDQ   ! B_VECTNIL+25
         3 000272   000001 356300                    ANSQ  ! 1,,PR0
PL6.E3A0      #011=XSL$SOCKMGMT File=XSL$SOCKET1.:TCA2TSI                        SUN 11/16/97 14:36 Page:341

     2183     2685    3               DATABUF.START = 0;

   2685  3 000273   000000 220203                    LDX0  ! 0,DU
         3 000274   200005 470700                    LDP0  ! BUF$,,AUTO
         3 000275   000000 740300                    STX0  ! 0,,PR0

     2184     2686    3               DATABUF.LEN = 0;

   2686  3 000276   200005 470700                    LDP0  ! BUF$,,AUTO
         3 000277   000000 440300                    SXL0  ! 0,,PR0

     2185     2687    3               BUF$ = PINCRW( XSL_SOCK$$, DATABUF.NXT);

   2687  3 000300   200005 470700                    LDP0  ! BUF$,,AUTO
         3 000301   000001 721300                    LXL1  ! 1,,PR0
         3 000302   000000 636211                    EAQ   ! 0,X1
         3 000303   000006 036200 2                  ADLQ  ! XSL_SOCK$$
         3 000304   200005 756300                    STQ   ! BUF$,,AUTO

     2186     2688    3               END;

   2688  3 000305   000006 116200 2                  CMPQ  ! XSL_SOCK$$
         3 000306   000270 601200 3                  TNZ   ! s:2684

     2187     2689    3           IF XSL$SOCKHD.BUFHD = 0 THEN DO;

   2689  3 000307   000006 470600 2                  LDP0  ! XSL_SOCK$$
         3 000310   000000 220300                    LDX0  ! 0,,PR0
         3 000311   000321 601200 3                  TNZ   ! s:2694

     2188     2690    3               XSL$SOCKHD.BUFHD = SOCK.BUFHD;

   2690  3 000312   200010 471700                    LDP1  ! P$,,AUTO
         3 000313   100016 221300                    LDX1  ! 14,,PR1
         3 000314   000000 741300                    STX1  ! 0,,PR0

PL6.E3A0      #011=XSL$SOCKMGMT File=XSL$SOCKET1.:TCA2TSI                        SUN 11/16/97 14:36 Page:342
     2189     2691    3               XSL$SOCKHD.BUFTL = SOCK.BUFTL;

   2691  3 000315   100016 720300                    LXL0  ! 14,,PR1
         3 000316   000006 470600 2                  LDP0  ! XSL_SOCK$$
         3 000317   000000 440300                    SXL0  ! 0,,PR0

     2190     2692    3               END;

   2692  3 000320   000331 710200 3                  TRA   ! s:2699

     2191     2693    3           ELSE DO;

     2192     2694    3               PINCRW( XSL_SOCK$$, XSL$SOCKHD.BUFTL)->XSL$DATABUF.NXT = SOCK.BUFHD;

   2694  3 000321   000000 721300                    LXL1  ! 0,,PR0
         3 000322   200010 471700                    LDP1  ! P$,,AUTO
         3 000323   100016 222300                    LDX2  ! 14,,PR1
         3 000324   000001 442311                    SXL2  ! 1,X1,PR0

     2193     2695    3               IF SOCK.BUFTL ~= 0 THEN

   2695  3 000325   100016 720300                    LXL0  ! 14,,PR1
         3 000326   000331 600200 3                  TZE   ! s:2699

     2194     2696    3                   XSL$SOCKHD.BUFTL = SOCK.BUFTL;

   2696  3 000327   000006 470600 2                  LDP0  ! XSL_SOCK$$
         3 000330   000000 440300                    SXL0  ! 0,,PR0

     2195     2697    3               END;

     2196     2698    2           END;

     2197     2699    1       DCBN2SOCK( SOCK.DCB#) = -1;

   2699  3 000331   200010 470500                    LDP0    P$,,AUTO
         3 000332   000003 720100                    LXL0    3,,PR0
PL6.E3A0      #011=XSL$SOCKMGMT File=XSL$SOCKET1.:TCA2TSI                        SUN 11/16/97 14:36 Page:343
         3 000333   000001 335007                    LCA     1,DL
         3 000334   000000 471400 2                  LDP1    XSL_DCBN2SOCK$$
         3 000335   100000 755110                    STA     0,X0,PR1

     2198     2700    1       CALL XSL$CL_REL( SOCK);

   2700  3 000336   200010 630500                    EPPR0   P$,,AUTO
         3 000337   000017 631400 xsym               EPPR1   B_VECTNIL+15
         3 000340   000000 701000 xent               TSX1    XSL$CL_REL
         3 000341   000000 011000                    NOP     0

     2199     2701    1       SOCK = XSL_SOCKINFO;

   2701  3 000342   200010 470500                    LDP0    P$,,AUTO
         3 000343   000100 100400                    MLR     fill='000'O
         3 000344   000012 000120 1                  ADSC9   XSL_SOCKINFO             cn=0,n=80
         3 000345   000000 000120                    ADSC9   0,,PR0                   cn=0,n=80

     2200     2702    1       RETURN;

   2702  3 000346   000000 702200 xent               TSX2  ! X66_ARET

     2201     2703        %EJECT;
PL6.E3A0      #011=XSL$SOCKMGMT File=XSL$SOCKET1.:TCA2TSI                        SUN 11/16/97 14:36 Page:344
     2202     2704        /*F* NAME: XSL$SOCKINIT -- Initialize Socket Library
     2203     2705        ..::IT "Purpose:"
     2204     2706        .INL +4
     2205     2707        Initializes the Socket Library using given parameters.
     2206     2708        ..::IT "C Usage:"
     2207     2709        .INL 4
     2208     2710        .FIF
     2209     2711        XSL$SOCKINIT( &parms );
     2210     2712        ..::IT "PL6 Usage:"
     2211     2713        .INL 4
     2212     2714        .FIF
     2213     2715        CALL XSL$SOCKINIT( parms );
     2214     2716        ..::IT "Parameter:"
     2215     2717        .INL 4
     2216     2718        .FIF
     2217     2719        parms       XSL_SOCKINIT parameter structure
     2218     2720        ..::IT "Description:"
     2219     2721        The XSL$SOCKINIT procedure initializes the Socket Library using the parameters
     2220     2722        passed in an XSL_SOCKINIT structure.  An application may wish to invoke
     2221     2723        XSL$SOCKINIT to specify the use or non-use of NoWait I/O, to reserve memory
     2222     2724        space for I/O buffers, or to set up a linkage to handle the arrival of
     2223     2725        application-specific events.
     2224     2726        .SPB
     2225     2727        The parms parameter contains information used in Socket Library initialization.
     2226     2728        In C source, it is an xsl_sockinit structure found in <xsl_socket.h>.  In PL6
     2227     2729        source, it is an XSL_SOCKINIT structure found in XSL_SOCKET_M.
     2228     2730        .SPB
     2229     2731        The default values for the use of XSL_SOCKINIT currently are MAXSOCK=2,
     2230     2732        NWSOCKS=-1, BUFSIZE=512, MEM=NIL, EVNT=NIL, MAXRDS=2, MAXBUF=0.
     2231     2733        .SPB
     2232     2734        The defaults provided by XSL_SOCKINIT are adequate for simple applications.
     2233     2735        For applications with special requirements, you will want to choose more
     2234     2736        appropriate values, such as larger BUFSIZE or MAXSOCK.
     2235     2737        */
     2236     2738    1   XSL$SOCKINIT: ENTRY( SOCK#) ALTRET;

   2738  3 000347   000000 700200 xent  XSL$SOCKINIT TSX0  ! X66_AUTO_2
PL6.E3A0      #011=XSL$SOCKMGMT File=XSL$SOCKET1.:TCA2TSI                        SUN 11/16/97 14:36 Page:345
         3 000350   000026 000002                    ZERO    22,2

     2237     2739
     2238     2740    1       CALL SOCKINIT( SOCK#) ALTRET( BAILOUT);

   2740  3 000351   200003 236100                    LDQ     @SOCK#,,AUTO
         3 000352   200021 756100                    STQ     FPT@GDS+7,,AUTO
         3 000353   000356 701000 3                  TSX1    SOCKINIT
         3 000354   000237 702000 3                  TSX2    BAILOUT

     2239     2741    1       RETURN;

   2741  3 000355   000000 702200 xent               TSX2  ! X66_ARET

     2240     2742
     2241     2743    1   SOCKINIT: PROC( SOCKINIT) ALTRET;

   2743  3 000356   200020 741300       SOCKINIT     STX1  ! FPT@GDS+6,,AUTO

     2242     2744
     2243     2745        %XSL_SOCKINIT( FPTN=SOCKINIT, STCLASS=PARAM);
     2244     2868    2       DCL 1 VECT BASED DALIGNED, 2 * BIT(36), 2 BASE$ PTR;
     2245     2869
     2246     2870    2       TMP = SOCKINIT.NWSOCKS;

   2870  3 000357   200021 470500                    LDP0    @SOCKINIT,,AUTO
         3 000360   000001 235100                    LDA     1,,PR0
         3 000361   200007 755100                    STA     TMP,,AUTO

     2247     2871    2       IF TMP = -1 THEN

   2871  3 000362   000027 115000 xsym               CMPA    B_VECTNIL+23
         3 000363   000366 601000 3                  TNZ     s:2873

     2248     2872    2           TMP = SOCKINIT.MAXSOCK;

   2872  3 000364   000000 235100                    LDA     0,,PR0
PL6.E3A0      #011=XSL$SOCKMGMT File=XSL$SOCKET1.:TCA2TSI                        SUN 11/16/97 14:36 Page:346
         3 000365   200007 755100                    STA     TMP,,AUTO

     2249     2873    2       I = SIZEW(XSL$SOCKHD)-1 + SOCKINIT.MAXSOCK*( SIZEW(SOCK) + 1) +

   2873  3 000366   000005 236100                    LDQ     5,,PR0
         3 000367   777777 376007                    ANQ     -1,DL
         3 000370   200022 756100                    STQ     @SOCKINIT+1,,AUTO
         3 000371   000005 236100                    LDQ     5,,PR0
         3 000372   000022 772000                    QRL     18
         3 000373   200022 036100                    ADLQ    @SOCKINIT+1,,AUTO
         3 000374   200007 402100                    MPY     TMP,,AUTO
         3 000375   200023 756100                    STQ     @SOCKINIT+2,,AUTO
         3 000376   000002 236100                    LDQ     2,,PR0
         3 000377   000003 036007                    ADLQ    3,DL
         3 000400   000002 772000                    QRL     2
         3 000401   000012 036007                    ADLQ    10,DL
         3 000402   200024 756100                    STQ     @SOCKINIT+3,,AUTO
         3 000403   200023 236100                    LDQ     @SOCKINIT+2,,AUTO
         3 000404   000001 036007                    ADLQ    1,DL
         3 000405   200024 402100                    MPY     @SOCKINIT+3,,AUTO
         3 000406   200025 756100                    STQ     @SOCKINIT+4,,AUTO
         3 000407   000000 236100                    LDQ     0,,PR0
         3 000410   000025 402007                    MPY     21,DL
         3 000411   200025 036100                    ADLQ    @SOCKINIT+4,,AUTO
         3 000412   000004 036007                    ADLQ    4,DL
         3 000413   200006 756100                    STQ     I,,AUTO

     2250     2874    2         ( 1 + TMP * ( SOCKINIT.MAXRDS + SOCKINIT.MAXBUF)) *
     2251     2875    2         ( SIZEW( XSL$DATABUF) + ( SOCKINIT.BUFSIZE + 3) / 4);
     2252     2876    2       MAXDCBN = 1 + B$ROSEG$->B$ROSEG.NUMDCBS;

   2876  3 000414   000044 471400 1                  LDP1    R
         3 000415   100002 236100                    LDQ     2,,PR1
         3 000416   000022 772000                    QRL     18
         3 000417   000001 036007                    ADLQ    1,DL
         3 000420   000001 756000 2                  STQ     MAXDCBN

PL6.E3A0      #011=XSL$SOCKMGMT File=XSL$SOCKET1.:TCA2TSI                        SUN 11/16/97 14:36 Page:347
     2253     2877    2       I = I + MAXDCBN;  /* for DCBN2SOCK array */

   2877  3 000421   200006 036100                    ADLQ    I,,AUTO
         3 000422   200006 756100                    STQ     I,,AUTO

     2254     2878    2       I = I + 64;  /* for event log & debugging of buffer mgmt */

   2878  3 000423   000100 036007                    ADLQ    64,DL
         3 000424   200006 756100                    STQ     I,,AUTO

     2255     2879
     2256     2880    2       IF I > 262143   /* space needed exceeds 256K */

   2880  3 000425   000001 116003                    CMPQ    1,DU
         3 000426   000432 602000 3                  TNC     s:2886

     2257     2881    3       THEN DO;

     2258     2882    3           XSL_ERRNO = %E$INVAL;

   2882  3 000427   000026 235007                    LDA     22,DL
         3 000430   000000 755000 xsym               STA     XSL_ERRNO

     2259     2883    3           ALTRETURN;

   2883  3 000431   000000 702211                    TSX2  ! 0,X1

     2260     2884    3           END;
     2261     2885
     2262     2886    2       XSL_EVENTMAX = 63;

   2886  3 000432   000077 235007                    LDA     63,DL
         3 000433   000004 755000 2                  STA     XSL_EVENTMAX

     2263     2887    3       IF SOCKINIT.MEM$ = ADDR( NIL) THEN DO;

   2887  3 000434   000003 236100                    LDQ     3,,PR0
PL6.E3A0      #011=XSL$SOCKMGMT File=XSL$SOCKET1.:TCA2TSI                        SUN 11/16/97 14:36 Page:348
         3 000435   000001 116000 xsym               CMPQ    B_VECTNIL+1
         3 000436   000466 601000 3                  TNZ     s:2899

     2264     2888    3           FPT@GDS = FPT_GDS;

   2888  3 000437   000100 100400                    MLR     fill='000'O
         3 000440   000004 000030 1                  ADSC9   FPT_GDS                  cn=0,n=24
         3 000441   200012 000030                    ADSC9   FPT@GDS,,AUTO            cn=0,n=24

     2265     2889    3           ADDR( FPT@GDS.V_) -> VECT.BASE$ = ADDR( FPT@GDS.V);

   2889  3 000442   200016 633500                    EPPR3   FPT@GDS+4,,AUTO
         3 000443   200013 453500                    STP3    FPT@GDS+1,,AUTO

     2266     2890    3           ADDR( FPT@GDS.V) -> VECT.BASE$ = ADDR( NIL);

   2890  3 000444   000001 236000 xsym               LDQ     B_VECTNIL+1
         3 000445   200017 756100                    STQ     FPT@GDS+5,,AUTO

     2267     2891    3           FPT@GDS.RESULTS_ = FPT@GDS.V_;

   2891  3 000446   200012 237100                    LDAQ    FPT@GDS,,AUTO
         3 000447   200014 757100                    STAQ    FPT@GDS+2,,AUTO

     2268     2892    3           FPT@GDS.V.SEGSIZE# = I;

   2892  3 000450   200006 720100                    LXL0    I,,AUTO
         3 000451   200016 440100                    SXL0    FPT@GDS+4,,AUTO

     2269     2893    4           CALL M$GDS (FPT@GDS) WHENALTRETURN DO;

   2893  3 000452   200012 630500                    EPPR0   FPT@GDS,,AUTO
         3 000453   430001 713400                    CLIMB   alt,gds
         3 000454   400400 401760                    pmme    nvectors=2
         3 000455   000457 702000 3                  TSX2    s:2894
         3 000456   000463 710000 3                  TRA     s:2897

PL6.E3A0      #011=XSL$SOCKMGMT File=XSL$SOCKET1.:TCA2TSI                        SUN 11/16/97 14:36 Page:349
     2270     2894    4               XSL_ERRNO = %E$FAILURE;

   2894  3 000457   000001 335007                    LCA     1,DL
         3 000460   000000 755000 xsym               STA     XSL_ERRNO

     2271     2895    4               ALTRETURN;

   2895  3 000461   200020 221300                    LDX1  ! FPT@GDS+6,,AUTO
         3 000462   000000 702211                    TSX2  ! 0,X1

     2272     2896    4               END;
     2273     2897    3           XSL_SOCK$$ = ADDR(FPT@GDS.V) -> VECT.BASE$;

   2897  3 000463   200017 236100                    LDQ     FPT@GDS+5,,AUTO
         3 000464   000006 756000 2                  STQ     XSL_SOCK$$

     2274     2898    3           END;

   2898  3 000465   000467 710000 3                  TRA     s:2901

     2275     2899    2       ELSE XSL_SOCK$$ = SOCKINIT.MEM$;

   2899  3 000466   000006 756000 2                  STQ     XSL_SOCK$$

     2276     2900
     2277     2901    2       XSL_DCBN2SOCK$$ = PINCRW( XSL_SOCK$$, I - MAXDCBN);

   2901  3 000467   200006 236100                    LDQ     I,,AUTO
         3 000470   000001 136000 2                  SBLQ    MAXDCBN
         3 000471   000022 736000                    QLS     18
         3 000472   000006 036000 2                  ADLQ    XSL_SOCK$$
         3 000473   000000 756000 2                  STQ     XSL_DCBN2SOCK$$

     2278     2902
     2279     2903    2       XSL$SOCKHD.MAXSOCK = SOCKINIT.MAXSOCK;

   2903  3 000474   200021 470500                    LDP0    @SOCKINIT,,AUTO
PL6.E3A0      #011=XSL$SOCKMGMT File=XSL$SOCKET1.:TCA2TSI                        SUN 11/16/97 14:36 Page:350
         3 000475   000006 471400 2                  LDP1    XSL_SOCK$$
         3 000476   000000 235100                    LDA     0,,PR0
         3 000477   100002 755100                    STA     2,,PR1

     2280     2904    2       XSL$SOCKHD.SEGSIZE = I;

   2904  3 000500   200006 720100                    LXL0    I,,AUTO
         3 000501   000006 471400 2                  LDP1    XSL_SOCK$$
         3 000502   100001 740100                    STX0    1,,PR1

     2281     2905
     2282     2906    2       P$ = ADDR( XSL$SOCKHD.SOCK$( XSL$SOCKHD.MAXSOCK));

   2906  3 000503   000006 471400 2                  LDP1    XSL_SOCK$$
         3 000504   100002 721100                    LXL1    2,,PR1
         3 000505   000004 636011                    EAQ     4,X1
         3 000506   000006 036000 2                  ADLQ    XSL_SOCK$$
         3 000507   200010 756100                    STQ     P$,,AUTO

     2283     2907    3       DO I = 0 TO XSL$SOCKHD.MAXSOCK-1;

   2907  3 000510   200006 450100                    STZ     I,,AUTO
         3 000511   000527 710000 3                  TRA     s:2911+3

     2284     2908    3           XSL$SOCKHD.SOCK$( I) = P$;

   2908  3 000512   200010 236100                    LDQ     P$,,AUTO
         3 000513   000006 470400 2                  LDP0    XSL_SOCK$$
         3 000514   200006 720100                    LXL0    I,,AUTO
         3 000515   000004 756110                    STQ     4,X0,PR0

     2285     2909    3           SOCK = XSL_SOCKINFO;

   2909  3 000516   200010 470500                    LDP0    P$,,AUTO
         3 000517   000100 100400                    MLR     fill='000'O
         3 000520   000012 000120 1                  ADSC9   XSL_SOCKINFO             cn=0,n=80
         3 000521   000000 000120                    ADSC9   0,,PR0                   cn=0,n=80
PL6.E3A0      #011=XSL$SOCKMGMT File=XSL$SOCKET1.:TCA2TSI                        SUN 11/16/97 14:36 Page:351

     2286     2910    3           P$ = PINCRW( P$, SIZEW( SOCK));

   2910  3 000522   000024 036003                    ADLQ    20,DU
         3 000523   200010 756100                    STQ     P$,,AUTO

     2287     2911    3           END;

   2911  3 000524   200006 235100                    LDA     I,,AUTO
         3 000525   000001 035007                    ADLA    1,DL
         3 000526   200006 755100                    STA     I,,AUTO
         3 000527   000006 470400 2                  LDP0    XSL_SOCK$$
         3 000530   200006 236100                    LDQ     I,,AUTO
         3 000531   000002 116100                    CMPQ    2,,PR0
         3 000532   000512 602000 3                  TNC     s:2908

     2288     2912
     2289     2913    2       I = 1 + TMP * ( SOCKINIT.MAXRDS + SOCKINIT.MAXBUF);

   2913  3 000533   200021 471500                    LDP1    @SOCKINIT,,AUTO
         3 000534   100005 236100                    LDQ     5,,PR1
         3 000535   777777 376007                    ANQ     -1,DL
         3 000536   200022 756100                    STQ     @SOCKINIT+1,,AUTO
         3 000537   100005 236100                    LDQ     5,,PR1
         3 000540   000022 772000                    QRL     18
         3 000541   200022 036100                    ADLQ    @SOCKINIT+1,,AUTO
         3 000542   200007 402100                    MPY     TMP,,AUTO
         3 000543   000001 036007                    ADLQ    1,DL
         3 000544   200006 756100                    STQ     I,,AUTO

     2290     2914    3       IF I > 0 THEN DO;

   2914  3 000545   000631 600000 3                  TZE     s:2926

     2291     2915    3           TMP = SIZEW( XSL$DATABUF) + ( SOCKINIT.BUFSIZE + 3) / 4;

   2915  3 000546   100002 236100                    LDQ     2,,PR1
PL6.E3A0      #011=XSL$SOCKMGMT File=XSL$SOCKET1.:TCA2TSI                        SUN 11/16/97 14:36 Page:352
         3 000547   000003 036007                    ADLQ    3,DL
         3 000550   000002 772000                    QRL     2
         3 000551   000012 036007                    ADLQ    10,DL
         3 000552   200007 756100                    STQ     TMP,,AUTO

     2292     2916    3           XSL$SOCKHD.BUFHD = POFFW( P$, XSL_SOCK$$);

   2916  3 000553   000006 235000 2                  LDA     XSL_SOCK$$
         3 000554   000022 771000                    ARL     18
         3 000555   200022 755100                    STA     @SOCKINIT+1,,AUTO
         3 000556   200010 236100                    LDQ     P$,,AUTO
         3 000557   000022 772000                    QRL     18
         3 000560   200022 136100                    SBLQ    @SOCKINIT+1,,AUTO
         3 000561   000000 620006                    EAX0    0,QL
         3 000562   000000 740100                    STX0    0,,PR0

     2293     2917    4           DO WHILE( I > 1);

   2917  3 000563   200006 235100                    LDA     I,,AUTO
         3 000564   000002 115007                    CMPA    2,DL
         3 000565   000611 602000 3                  TNC     s:2922

     2294     2918    4               P$->XSL$DATABUF.NXT = POFFW( P$, XSL_SOCK$$) + TMP;

   2918  3 000566   000006 235000 2                  LDA     XSL_SOCK$$
         3 000567   000022 771000                    ARL     18
         3 000570   200022 755100                    STA     @SOCKINIT+1,,AUTO
         3 000571   200010 236100                    LDQ     P$,,AUTO
         3 000572   000022 772000                    QRL     18
         3 000573   200022 136100                    SBLQ    @SOCKINIT+1,,AUTO
         3 000574   200007 036100                    ADLQ    TMP,,AUTO
         3 000575   000000 620006                    EAX0    0,QL
         3 000576   200010 470500                    LDP0    P$,,AUTO
         3 000577   000001 440100                    SXL0    1,,PR0

     2295     2919    4               P$ = PINCRW( P$, TMP);

PL6.E3A0      #011=XSL$SOCKMGMT File=XSL$SOCKET1.:TCA2TSI                        SUN 11/16/97 14:36 Page:353
   2919  3 000600   200007 236100                    LDQ     TMP,,AUTO
         3 000601   000022 736000                    QLS     18
         3 000602   200010 036100                    ADLQ    P$,,AUTO
         3 000603   200010 756100                    STQ     P$,,AUTO

     2296     2920    4               I = I - 1;

   2920  3 000604   200006 235100                    LDA     I,,AUTO
         3 000605   000001 135007                    SBLA    1,DL
         3 000606   200006 755100                    STA     I,,AUTO

     2297     2921    4               END;

   2921  3 000607   000002 115007                    CMPA    2,DL
         3 000610   000566 603000 3                  TRC     s:2918

     2298     2922    3           P$->XSL$DATABUF.NXT = 0;

   2922  3 000611   000000 220003                    LDX0    0,DU
         3 000612   200010 470500                    LDP0    P$,,AUTO
         3 000613   000001 440100                    SXL0    1,,PR0

     2299     2923    3           XSL$SOCKHD.BUFTL = POFFW( P$, XSL_SOCK$$);

   2923  3 000614   000006 236000 2                  LDQ     XSL_SOCK$$
         3 000615   000022 772000                    QRL     18
         3 000616   200022 756100                    STQ     @SOCKINIT+1,,AUTO
         3 000617   200010 236100                    LDQ     P$,,AUTO
         3 000620   000022 772000                    QRL     18
         3 000621   200022 136100                    SBLQ    @SOCKINIT+1,,AUTO
         3 000622   000000 621006                    EAX1    0,QL
         3 000623   000006 471400 2                  LDP1    XSL_SOCK$$
         3 000624   100000 441100                    SXL1    0,,PR1

     2300     2924    3           P$ = PINCRW( P$, TMP);  /* for subsequent usage of P$ */

   2924  3 000625   200007 236100                    LDQ     TMP,,AUTO
PL6.E3A0      #011=XSL$SOCKMGMT File=XSL$SOCKET1.:TCA2TSI                        SUN 11/16/97 14:36 Page:354
         3 000626   000022 736000                    QLS     18
         3 000627   200010 036100                    ADLQ    P$,,AUTO
         3 000630   200010 756100                    STQ     P$,,AUTO

     2301     2925    3           END;

     2302     2926    2       XSL_EVENTLOG$ = P$;

   2926  3 000631   200010 236100                    LDQ     P$,,AUTO
         3 000632   000005 756000 2                  STQ     XSL_EVENTLOG$

     2303     2927    2       XSL_BUFSIZE = SOCKINIT.BUFSIZE;

   2927  3 000633   200021 470500                    LDP0    @SOCKINIT,,AUTO
         3 000634   000002 235100                    LDA     2,,PR0
         3 000635   000002 755000 2                  STA     XSL_BUFSIZE

     2304     2928    2       XSL$SOCKHD.EVNT$ = SOCKINIT.EVNT$;

   2928  3 000636   000004 236100                    LDQ     4,,PR0
         3 000637   000006 471400 2                  LDP1    XSL_SOCK$$
         3 000640   100003 756100                    STQ     3,,PR1

     2305     2929    3       IF SOCKINIT.NWSOCKS ~= 0 THEN DO;

   2929  3 000641   000001 235100                    LDA     1,,PR0
         3 000642   000660 600000 3                  TZE     s:2936

     2306     2930        /*N*    SOCKINIT.EVNT$ = ENTADDR( XSL$ASYNC);   NEED THIS? */
     2307     2931    3           CALL M$EVENT( FPT_EVENT);

   2931  3 000643   000000 630400 1                  EPPR0   FPT_EVENT
         3 000644   010001 713400                    CLIMB   4097
         3 000645   400000 401760                    pmme    nvectors=1

     2308     2932    3           XSL$SOCKHD.MAXRDS = SOCKINIT.MAXRDS;

PL6.E3A0      #011=XSL$SOCKMGMT File=XSL$SOCKET1.:TCA2TSI                        SUN 11/16/97 14:36 Page:355
   2932  3 000646   000006 470400 2                  LDP0    XSL_SOCK$$
         3 000647   200021 471500                    LDP1    @SOCKINIT,,AUTO
         3 000650   100005 236100                    LDQ     5,,PR1
         3 000651   000022 772000                    QRL     18
         3 000652   000001 552104                    STBQ    1,'04'O,PR0

     2309     2933    3           XSL$SOCKHD.MAXBUF = SOCKINIT.MAXBUF;

   2933  3 000653   000006 470400 2                  LDP0    XSL_SOCK$$
         3 000654   100005 236100                    LDQ     5,,PR1
         3 000655   000011 736000                    QLS     9
         3 000656   000001 552110                    STBQ    1,'10'O,PR0

     2310     2934    3           END;

   2934  3 000657   000665 710000 3                  TRA     s:2940

     2311     2935    3       ELSE DO;

     2312     2936    3           XSL$SOCKHD.MAXRDS = 0;

   2936  3 000660   000006 471400 2                  LDP1    XSL_SOCK$$
         3 000661   000000 236003                    LDQ     0,DU
         3 000662   100001 552104                    STBQ    1,'04'O,PR1

     2313     2937    3           XSL$SOCKHD.MAXBUF = 0;

   2937  3 000663   000006 471400 2                  LDP1    XSL_SOCK$$
         3 000664   100001 552110                    STBQ    1,'10'O,PR1

     2314     2938    3           END;

     2315     2939
     2316     2940    3       DO I = 0 TO MAXDCBN - 1;

   2940  3 000665   200006 450100                    STZ     I,,AUTO
         3 000666   000676 710000 3                  TRA     s:2942+3
PL6.E3A0      #011=XSL$SOCKMGMT File=XSL$SOCKET1.:TCA2TSI                        SUN 11/16/97 14:36 Page:356

     2317     2941    3           DCBN2SOCK( I) = -1;

   2941  3 000667   000001 335007                    LCA     1,DL
         3 000670   000000 470400 2                  LDP0    XSL_DCBN2SOCK$$
         3 000671   200006 720100                    LXL0    I,,AUTO
         3 000672   000000 755110                    STA     0,X0,PR0

     2318     2942    3           END;

   2942  3 000673   200006 236100                    LDQ     I,,AUTO
         3 000674   000001 036007                    ADLQ    1,DL
         3 000675   200006 756100                    STQ     I,,AUTO
         3 000676   200006 236100                    LDQ     I,,AUTO
         3 000677   000702 604000 3                  TMI     s:2944
         3 000700   000001 116000 2                  CMPQ    MAXDCBN
         3 000701   000667 604000 3                  TMI     s:2941

     2319     2943
     2320     2944    2       CALL XSL$ROUTES( 0);

   2944  3 000702   000002 630400 4                  EPPR0   2
         3 000703   000017 631400 xsym               EPPR1   B_VECTNIL+15
         3 000704   000000 701000 xent               TSX1    XSL$ROUTES
         3 000705   000000 011000                    NOP     0

     2321     2945
     2322     2946    2       RETURN;

   2946  3 000706   200020 221300                    LDX1  ! FPT@GDS+6,,AUTO
         3 000707   000001 702211                    TSX2  ! 1,X1

FPT_EVENT
 Sect OctLoc
   1     000   000001 777640   000002 006000   000000 000000   000000 000000    ................

FPT_GDS
PL6.E3A0      #011=XSL$SOCKMGMT File=XSL$SOCKET1.:TCA2TSI                        SUN 11/16/97 14:36 Page:357
 Sect OctLoc
   1     004   000001 777640   000010 006000   000000 177640   000000 006014    ................
   1     010   000600 000000   ****** ******                                    ........

XSL_SOCKINFO
 Sect OctLoc
   1     012   000000 000000   400000 00*000   040040 040040   040040 000000    ........      ..
   1     016   000000 000000   000000 000000   000000 000000   000000 000000    ................
   1     032*  000000 000000   000000 000000   000000 006014   000000 000000    ................

XSL_SOCKINIT
 Sect OctLoc
   1     036   000000 000002   777777 777777   000000 001000   000000 006014    ................
   1     042   000000 000000   000002 000000                                    ........

R
 Sect OctLoc
   1     044   000000 006003                                                    ....

(unnamed)
 Sect OctLoc
   1     045   107120 040040                                                    GP

XSL_DCBN2SOCK$$
 Sect OctLoc
   2     000   000000 006014                                                    ....

MAXDCBN
 Sect OctLoc
   2     001   000000 000000                                                    ....

XSL_BUFSIZE
 Sect OctLoc
   2     002   000000 000000                                                    ....

(unnamed)
 Sect OctLoc
PL6.E3A0      #011=XSL$SOCKMGMT File=XSL$SOCKET1.:TCA2TSI                        SUN 11/16/97 14:36 Page:358
   2     003   000000 000000                                                    ....

XSL_EVENTMAX
 Sect OctLoc
   2     004   000000 000000                                                    ....

XSL_EVENTLOG$
 Sect OctLoc
   2     005   000000 006014                                                    ....

XSL_SOCK$$
 Sect OctLoc
   2     006   000000 006014                                                    ....

(unnamed)
 Sect OctLoc
   4     000   000045 006000   000036 006000   000002 006000                    .%..........
     2323     2947    2   END SOCKINIT;
     2324     2948
     2325     2949    1   END XSL$SOCKMGMT;
     2326     2950        %EOD;

PL6.E3A0      #011=XSL$SOCKMGMT File=XSL$SOCKET1.:TCA2TSI                        SUN 11/16/97 14:36 Page:359
--  Include file information  --

   XSL_INTERNAL_M.:TCA2TOU  is referenced.
   XSL_SOCKET_M.:TCA2TOU  is referenced.
   XSL_SOCKET_E.:TCA2TOU  is referenced.
   XSL_PERR_C.:TCA2TOU  is referenced.
   CP_6.:E05TOU  cannot be made into a system file and is referenced.
   B_SEGIDS_C.:E05TOU  is referenced.
   B$ROSEG.:E05TOU  cannot be made into a system file and is referenced.
   B$JIT_C.:E05TOU  was found in the system file and is never referenced.
   CP_6_C.:E05TOU  was found in the system file and is referenced.
      No diagnostics issued in procedure XSL$SOCKMGMT.
PL6.E3A0      #011=XSL$SOCKMGMT File=XSL$SOCKET1.:TCA2TSI                        SUN 11/16/97 14:36 Page:360

 **** Variables and constants ****

  ****  Section 001 RoData XSL$SOCKMGMT

  ****  Scalars and arrays  ****
OctLoc.c.b A Datatyp(siz) R M Lvl/name                 OctLoc.c.b A Datatyp(siz) R M Lvl/name

    44-0-0/w PTR         r     1 B$ROSEG$                   0-0-0/d STRC(144)   r     1 FPT_EVENT
     4-0-0/d STRC(216)   r     1 FPT_GDS                   44-0-0/b STRC        r     1 R
    12-0-0/w STRC(720)   r     1 XSL_SOCKINFO              36-0-0/w STRC(216)   r     1 XSL_SOCKINIT

  ****  Section 002  Data  XSL$SOCKMGMT

  ****  Scalars and arrays  ****
OctLoc.c.b A Datatyp(siz) R M Lvl/name                 OctLoc.c.b A Datatyp(siz) R M Lvl/name

     1-0-0/w SBIN        r     1 MAXDCBN                    2-0-0/w SBIN        r     1 XSL_BUFSIZE
     0-0-0/w PTR         r     1 XSL_DCBN2SOCK$$            5-0-0/w PTR         r     1 XSL_EVENTLOG$
     4-0-0/w SBIN        r     1 XSL_EVENTMAX               6-0-0/w PTR         r     1 XSL_SOCK$$

  ****  Auto variables  ****

  ****  Scalars and arrays  ****
OctLoc.c.b A Datatyp(siz) R M Lvl/name                 OctLoc.c.b A Datatyp(siz) R M Lvl/name

     3-0-0/w PTR         r     1 @SOCK#                     4-0-0/w PTR         r     1 @SOCK$
    21-0-0/w PTR         r     1 @SOCKINIT                  5-0-0/w PTR         r     1 BUF$
    12-0-0/d STRC(216)   r     1 FPT@GDS                    6-0-0/w UBIN        r     1 I
    10-0-0/w PTR         r     1 P$                        *0-0-0/w UBIN        r     1 SOCK#
    *0-0-0/w PTR         r     1 SOCK$                     *0-0-0/w SBIN        r     1 SOCK$ERR
    *0-0-0/w STRC(216)   r     1 SOCKINIT                   7-0-0/w SBIN        r     1 TMP

  ****  SYMREF variables  ****

  ****  Scalars and arrays  ****
OctLoc.c.b A Datatyp(siz) R M Lvl/name                 OctLoc.c.b A Datatyp(siz) R M Lvl/name

PL6.E3A0      #011=XSL$SOCKMGMT File=XSL$SOCKET1.:TCA2TSI                        SUN 11/16/97 14:36 Page:361
     0-0-0/w SBIN        r     1 XSL_ERRNO

  ****  BASED and DCB variables  ****

  ****  Scalars and arrays  ****
OctLoc.c.b A Datatyp(siz) R M Lvl/name                 OctLoc.c.b A Datatyp(siz) R M Lvl/name

     0-0-0/d STRC(3024)  r     1 B$ROSEG                    0-0-0/w STRC(360)   r     1 DATABUF
     0-0-0/w SBIN        r     1 DCBN2SOCK(0:0)
     0-0-0/w STRC(54)    r     1 PLUGH                      0-0-0/w STRC(720)   r     1 SOCK
     0-0-0/d STRC(72)    r     1 VECT                       0-0-0/w STRC(360)   r     1 XSL$DATABUF
     0-0-0/w STRC(180)   r     1 XSL$SOCKHD


   Procedure XSL$SOCKMGMT requires 456 words for executable code.
   Procedure XSL$SOCKMGMT requires 22 words of local(AUTO) storage.
PL6.E3A0      #011=XSL$SOCKMGMT File=XSL$SOCKET1.:TCA2TSI                        SUN 11/16/97 14:36 Page:362
          *** CROSS REFERENCE LISTING ***
**     DENOTES     IDENTIFIER DEFINITION
<<                 IDENTIFIER'S VALUE SET
>>                 IDENTIFIER'S VALUE USED
<>                 IDENTIFIER SET AND/OR USED
--                 IDENTIFIER REFERENCED
PL6.E3A0      #011=XSL$SOCKMGMT File=XSL$SOCKET1.:TCA2TSI                        SUN 11/16/97 14:36 Page:363
          MINI XREF LISTING

B$ROSEG.NUMDCBS
        20**DCL      2876>>ASSIGN
B$ROSEG$
      2574**DCL      2876>>ASSIGN
BAILOUT
      2672**LABEL    2677--GOTO     2680--GOTO     2740--CALLALT
BUF$
      2564**DCL      2062--IMP-PTR  2607--CALL     2630--CALL     2682<<ASSIGN   2683>>DOWHILE  2684>>ASSIGN
      2685>>ASSIGN   2686>>ASSIGN   2687<<ASSIGN   2687>>ASSIGN
DATABUF.FLAGS.BUSY
      2072**DCL      2684<<ASSIGN
DATABUF.LEN
      2070**DCL      2686<<ASSIGN
DATABUF.NXT
      2075**DCL      2687>>ASSIGN
DATABUF.START
      2069**DCL      2685<<ASSIGN
DCBN2SOCK
      2595**DCL      2608>>IF       2612>>ASSIGN   2664<<ASSIGN   2699<<ASSIGN   2941<<ASSIGN
FPT@GDS
      2589**DCL      2888<<ASSIGN   2893<>CALL
FPT@GDS.RESULTS_
      2589**DCL      2891<<ASSIGN
FPT@GDS.V
      2589**DCL      2889--ASSIGN   2890--ASSIGN   2897--ASSIGN
FPT@GDS.V.SEGSIZE#
      2592**DCL      2892<<ASSIGN
FPT@GDS.V_
      2589**DCL      2889--ASSIGN   2891>>ASSIGN
FPT_EVENT
       701**DCL      2931<>CALL
FPT_EVENT.V
PL6.E3A0      #011=XSL$SOCKMGMT File=XSL$SOCKET1.:TCA2TSI                        SUN 11/16/97 14:36 Page:364
       701**DCL       701--DCLINIT
FPT_GDS
       715**DCL      2888>>ASSIGN
FPT_GDS.V
       715**DCL       715--DCLINIT
I
      2568**DCL      2617<<ASSIGN   2619>>ASSIGN   2641<<ASSIGN   2643>>ASSIGN   2652<<DOINDEX  2653>>ASSIGN
      2658>>ASSIGN   2663>>ASSIGN   2664>>ASSIGN   2873<<ASSIGN   2877<<ASSIGN   2877>>ASSIGN   2878<<ASSIGN
      2878>>ASSIGN   2880>>IF       2892>>ASSIGN   2901>>ASSIGN   2904>>ASSIGN   2907<<DOINDEX  2908>>ASSIGN
      2913<<ASSIGN   2914>>IF       2917>>DOWHILE  2920<<ASSIGN   2920>>ASSIGN   2940<<DOINDEX  2941>>ASSIGN
M$EVENT
       673**DCL-ENT  2931--CALL
M$GDS
       653**DCL-ENT  2893--CALL
MAXDCBN
      2596**DCL      2608>>IF       2876<<ASSIGN   2877>>ASSIGN   2901>>ASSIGN   2940>>DOINDEX
P$
      2570**DCL      2129--IMP-PTR  2653<<ASSIGN   2654>>IF       2655>>ASSIGN   2656>>ASSIGN   2657>>ASSIGN
      2658>>ASSIGN   2659>>CALL     2664>>ASSIGN   2665>>ASSIGN   2666>>ASSIGN   2678<<ASSIGN   2679>>IF
      2681>>IF       2682>>ASSIGN   2690>>ASSIGN   2691>>ASSIGN   2694>>ASSIGN   2695>>IF       2696>>ASSIGN
      2699>>ASSIGN   2700>>CALL     2701>>ASSIGN   2906<<ASSIGN   2908>>ASSIGN   2909>>ASSIGN   2910<<ASSIGN
      2910>>ASSIGN   2916>>ASSIGN   2918>>ASSIGN   2918>>ASSIGN   2919<<ASSIGN   2919>>ASSIGN   2922>>ASSIGN
      2923>>ASSIGN   2924<<ASSIGN   2924>>ASSIGN   2926>>ASSIGN
PLUGH.ADR
      2566**DCL      2607<>CALL     2630<>CALL
R
      2571**DCL      2574--REDEF
SOCK
      2129**DCL      2656<<ASSIGN   2659<>CALL     2700<>CALL     2701<<ASSIGN   2873--ASSIGN   2909<<ASSIGN
      2910--ASSIGN
SOCK.BUFHD
      2243**DCL      2682>>ASSIGN   2690>>ASSIGN   2694>>ASSIGN
SOCK.BUFTL
      2244**DCL      2691>>ASSIGN   2695>>IF       2696>>ASSIGN
SOCK.DCB#
      2162**DCL      2664>>ASSIGN   2699>>ASSIGN
PL6.E3A0      #011=XSL$SOCKMGMT File=XSL$SOCKET1.:TCA2TSI                        SUN 11/16/97 14:36 Page:365
SOCK.FEPERROR
      2160**DCL      2614>>IF       2617>>ASSIGN   2618<<ASSIGN   2638>>IF       2641>>ASSIGN   2642<<ASSIGN
SOCK.FLAGS
      2139**DCL      2657<<ASSIGN
SOCK.FLAGS.TERMINATED
      2140**DCL      2613>>IF       2634>>IF       2654>>IF       2679>>IF
SOCK.MAXBUF
      2247**DCL      2666<<ASSIGN
SOCK.MAXRDS
      2248**DCL      2665<<ASSIGN   2681>>IF
SOCK.NBACCEPT_SOCK$
      2251**DCL      2252--REDEF
SOCK.SOCK#
      2138**DCL      2658<<ASSIGN
SOCK#
      2575**DCL         6--PROC     2604--ENTRY    2608>>IF       2608>>IF       2612>>ASSIGN   2627--ENTRY
      2631>>IF       2634>>IF       2637>>ASSIGN   2648--ENTRY    2663<<ASSIGN   2674--ENTRY    2676>>IF
      2678>>ASSIGN   2738--ENTRY    2740<>CALL
SOCK$
      2576**DCL         6--PROC     2577--REDEF    2604--ENTRY    2612<<ASSIGN   2613>>IF       2614>>IF
      2617>>ASSIGN   2618>>ASSIGN   2627--ENTRY    2637<<ASSIGN   2638>>IF       2641>>ASSIGN   2642>>ASSIGN
      2648--ENTRY    2655<<ASSIGN
SOCK$ERR
      2577**DCL      2610<<ASSIGN   2619<<ASSIGN   2623<<ASSIGN   2632<<ASSIGN   2635<<ASSIGN   2643<<ASSIGN
      2660<<ASSIGN   2670<<ASSIGN
SOCKINIT
      2743**PROC     2650--CALL     2740--CALL
SOCKINIT IN PROCEDURE SOCKINIT
      2762**DCL      2743--PROC
SOCKINIT.BUFSIZE IN PROCEDURE SOCKINIT
      2797**DCL      2873>>ASSIGN   2915>>ASSIGN   2927>>ASSIGN
SOCKINIT.EVNT$ IN PROCEDURE SOCKINIT
      2828**DCL      2928>>ASSIGN
SOCKINIT.MAXBUF IN PROCEDURE SOCKINIT
      2866**DCL      2873>>ASSIGN   2913>>ASSIGN   2933>>ASSIGN
SOCKINIT.MAXRDS IN PROCEDURE SOCKINIT
PL6.E3A0      #011=XSL$SOCKMGMT File=XSL$SOCKET1.:TCA2TSI                        SUN 11/16/97 14:36 Page:366
      2849**DCL      2873>>ASSIGN   2913>>ASSIGN   2932>>ASSIGN
SOCKINIT.MAXSOCK IN PROCEDURE SOCKINIT
      2775**DCL      2872>>ASSIGN   2873>>ASSIGN   2903>>ASSIGN
SOCKINIT.MEM$ IN PROCEDURE SOCKINIT
      2820**DCL      2887>>IF       2899>>ASSIGN
SOCKINIT.NWSOCKS IN PROCEDURE SOCKINIT
      2786**DCL      2870>>ASSIGN   2929>>IF
TMP
      2569**DCL      2870<<ASSIGN   2871>>IF       2872<<ASSIGN   2873>>ASSIGN   2913>>ASSIGN   2915<<ASSIGN
      2918>>ASSIGN   2919>>ASSIGN   2924>>ASSIGN
VECT.BASE$ IN PROCEDURE SOCKINIT
      2868**DCL      2889<<ASSIGN   2890<<ASSIGN   2897>>ASSIGN
XSL$ASYNC
      2556**DCL-ENT   701--DCLINIT
XSL$CL_GET
      2557**DCL-ENT  2659--CALL
XSL$CL_REL
      2558**DCL-ENT  2700--CALL
XSL$DATABUF
      2095**DCL      2873--ASSIGN   2915--ASSIGN
XSL$DATABUF.NXT
      2108**DCL      2694<<ASSIGN   2918<<ASSIGN   2922<<ASSIGN
XSL$EVLOG
      2560**DCL-ENT  2607--CALL     2630--CALL
XSL$ROUTES
      2559**DCL-ENT  2944--CALL
XSL$SOCKHD
      2539**DCL      2873--ASSIGN
XSL$SOCKHD.BUFHD
      2546**DCL      2689>>IF       2690<<ASSIGN   2916<<ASSIGN
XSL$SOCKHD.BUFTL
      2547**DCL      2691<<ASSIGN   2694>>ASSIGN   2696<<ASSIGN   2923<<ASSIGN
XSL$SOCKHD.EVNT$
      2552**DCL      2928<<ASSIGN
XSL$SOCKHD.MAXBUF
      2549**DCL      2666>>ASSIGN   2933<<ASSIGN   2937<<ASSIGN
PL6.E3A0      #011=XSL$SOCKMGMT File=XSL$SOCKET1.:TCA2TSI                        SUN 11/16/97 14:36 Page:367
XSL$SOCKHD.MAXRDS
      2550**DCL      2665>>ASSIGN   2932<<ASSIGN   2936<<ASSIGN
XSL$SOCKHD.MAXSOCK
      2551**DCL      2631>>IF       2652>>DOINDEX  2676>>IF       2903<<ASSIGN   2906>>ASSIGN   2907>>DOINDEX
XSL$SOCKHD.SEGSIZE
      2548**DCL      2904<<ASSIGN
XSL$SOCKHD.SOCK$
      2553**DCL      2612>>ASSIGN   2634>>IF       2637>>ASSIGN   2653>>ASSIGN   2678>>ASSIGN   2906--ASSIGN
      2908<<ASSIGN
XSL_BUFSIZE
      2597**DCL      2927<<ASSIGN
XSL_DCBN2SOCK$$
      2594**DCL      2595--IMP-PTR  2608>>IF       2612>>ASSIGN   2664>>ASSIGN   2699>>ASSIGN   2901<<ASSIGN
      2941>>ASSIGN
XSL_ERRNO
      2602**DCL      2882<<ASSIGN   2894<<ASSIGN
XSL_EVENTLOG$
      2600**DCL      2926<<ASSIGN
XSL_EVENTMAX
      2599**DCL      2886<<ASSIGN
XSL_SOCK$$
      2601**DCL      2539--IMP-PTR  2608>>IF       2612>>ASSIGN   2631>>IF       2631>>IF       2634>>IF
      2637>>ASSIGN   2650>>IF       2652>>DOINDEX  2653>>ASSIGN   2665>>ASSIGN   2666>>ASSIGN   2676>>IF
      2676>>IF       2678>>ASSIGN   2682>>ASSIGN   2683>>DOWHILE  2687>>ASSIGN   2689>>IF       2690>>ASSIGN
      2691>>ASSIGN   2694>>ASSIGN   2694>>ASSIGN   2696>>ASSIGN   2897<<ASSIGN   2899<<ASSIGN   2901>>ASSIGN
      2903>>ASSIGN   2904>>ASSIGN   2906>>ASSIGN   2906>>ASSIGN   2907>>DOINDEX  2908>>ASSIGN   2916>>ASSIGN
      2916>>ASSIGN   2918>>ASSIGN   2923>>ASSIGN   2923>>ASSIGN   2928>>ASSIGN   2932>>ASSIGN   2933>>ASSIGN
      2936>>ASSIGN   2937>>ASSIGN
XSL_SOCKINFO
      2273**DCL      2656>>ASSIGN   2701>>ASSIGN   2909>>ASSIGN
XSL_SOCKINFO.NBACCEPT_SOCK$
      2395**DCL      2396--REDEF
XSL_SOCKINIT
      2416**DCL      2650<>CALL
PL6.E3A0      #011=XSL$SOCKMGMT File=XSL$SOCKET1.:TCA2TSI                        SUN 11/16/97 14:36 Page:368
              *** CROSS REFERENCE LISTING ***
    **     DENOTES     IDENTIFIER DEFINITION
    <<                 IDENTIFIER'S VALUE SET
    >>                 IDENTIFIER'S VALUE USED
    <>                 IDENTIFIER SET AND/OR USED
    --                 IDENTIFIER REFERENCED
PL6.E3A0      #011=XSL$SOCKMGMT File=XSL$SOCKET1.:TCA2TSI                        SUN 11/16/97 14:36 Page:369
              MINI UREF LISTING

B$ROAVAIL      57**DCL
B$RODCB$      54**DCL
M$ACCT     635**DCL-ENT
M$ACTIVATE     638**DCL-ENT
M$ALIB     631**DCL-ENT
M$ASUSER     633**DCL-ENT
M$ATTACH     640**DCL-ENT
M$BADPP     658**DCL-ENT
M$CGCTL     639**DCL-ENT
M$CGINFO     639**DCL-ENT
M$CHECK     620**DCL-ENT
M$CHGUNIT     678**DCL-ENT
M$CLOSE     618**DCL-ENT
M$CLRSTK     676**DCL-ENT
M$CMDVAR     687**DCL-ENT
M$CONFIG     648**DCL-ENT
M$CORRES     623**DCL-ENT
M$CPEXIT     632**DCL-ENT
M$CVM     656**DCL-ENT
M$CVOL     621**DCL-ENT
M$DCLFLD     648**DCL-ENT
M$DEACTIVATE     638**DCL-ENT
M$DELREC     620**DCL-ENT
M$DEQ     685**DCL-ENT
M$DETACH     640**DCL-ENT
M$DEVICE     622**DCL-ENT
M$DISPLAY     685**DCL-ENT
M$DISPRES     625**DCL-ENT
M$DLIB     631**DCL-ENT
M$DRIBBLE     648**DCL-ENT
M$DRTN     676**DCL-ENT
M$DSUSER     633**DCL-ENT
PL6.E3A0      #011=XSL$SOCKMGMT File=XSL$SOCKET1.:TCA2TSI                        SUN 11/16/97 14:36 Page:370
M$ENQ     684**DCL-ENT
M$EOM     643**DCL-ENT
M$ERASE     649**DCL-ENT
M$ERR     630**DCL-ENT
M$ERRMSG     681**DCL-ENT
M$EXHUME     682**DCL-ENT
M$EXIT     630**DCL-ENT
M$EXTEND     622**DCL-ENT
M$FDP     654**DCL-ENT
M$FDS     653**DCL-ENT
M$FEBOOT     646**DCL-ENT
M$FECTL     647**DCL-ENT
M$FEDUMP     646**DCL-ENT
M$FID     681**DCL-ENT
M$FINDPROC     635**DCL-ENT
M$FSUSER     633**DCL-ENT
M$FVP     655**DCL-ENT
M$FWCG     639**DCL-ENT
M$GBPL     659**DCL-ENT
M$GDDL     655**DCL-ENT
M$GDP     654**DCL-ENT
M$GETDCB     624**DCL-ENT
M$GETMOUSE     664**DCL-ENT
M$GETPM     665**DCL-ENT
M$GJOB     683**DCL-ENT
M$GLINEATTR     643**DCL-ENT
M$GOODPP     658**DCL-ENT
M$GPLATEN     651**DCL-ENT
M$GPROMPT     650**DCL-ENT
M$GTRMATTR     644**DCL-ENT
M$GTRMCTL     642**DCL-ENT
M$GTRMTAB     645**DCL-ENT
M$GVP     654**DCL-ENT
M$HELP     681**DCL-ENT
M$INT     673**DCL-ENT
M$INTRTN     634**DCL-ENT
PL6.E3A0      #011=XSL$SOCKMGMT File=XSL$SOCKET1.:TCA2TSI                        SUN 11/16/97 14:36 Page:371
M$IOQ     669**DCL-ENT
M$JOBSTATS     683**DCL-ENT
M$KEYIN     623**DCL-ENT
M$LDEV     618**DCL-ENT
M$LDTRC     631**DCL-ENT
M$LIMIT     624**DCL-ENT
M$LINES     623**DCL-ENT
M$LINK     630**DCL-ENT
M$MADMUCK     626**DCL-ENT
M$MAKUSER     657**DCL-ENT
M$MBS     625**DCL-ENT
M$MDFFLD     649**DCL-ENT
M$MERC     674**DCL-ENT
M$MERCS     675**DCL-ENT
M$MIRROR     669**DCL-ENT
M$MONINFO     686**DCL-ENT
M$MPL     659**DCL-ENT
M$NODEINFO     650**DCL-ENT
M$NXTUSR     684**DCL-ENT
M$OCMSG     682**DCL-ENT
M$OLAY     630**DCL-ENT
M$OPEN     618**DCL-ENT
M$PAS     659**DCL-ENT
M$PATHCON     682**DCL-ENT
M$PDS     653**DCL-ENT
M$PFIL     620**DCL-ENT
M$PLATEN     644**DCL-ENT
M$PRECORD     622**DCL-ENT
M$PROCNAME     635**DCL-ENT
M$PROFILE     646**DCL-ENT
M$PROMPT     642**DCL-ENT
M$RACST     626**DCL-ENT
M$RDSYSLOG     667**DCL-ENT
M$READ     619**DCL-ENT
M$RELDCB     624**DCL-ENT
M$RELRES     625**DCL-ENT
PL6.E3A0      #011=XSL$SOCKMGMT File=XSL$SOCKET1.:TCA2TSI                        SUN 11/16/97 14:36 Page:372
M$RELSTARF     627**DCL-ENT
M$REM     627**DCL-ENT
M$RENV     674**DCL-ENT
M$REQUIRE     626**DCL-ENT
M$RETRY     675**DCL-ENT
M$RETRYS     675**DCL-ENT
M$REW     621**DCL-ENT
M$RLSFLD     649**DCL-ENT
M$RPRIV     677**DCL-ENT
M$RSPP     656**DCL-ENT
M$RSWITCH     678**DCL-ENT
M$RUE     684**DCL-ENT
M$SAD     657**DCL-ENT
M$SAVE     633**DCL-ENT
M$SCON     634**DCL-ENT
M$SCREECH     632**DCL-ENT
M$SENV     674**DCL-ENT
M$SETFMA     618**DCL-ENT
M$SETFP     647**DCL-ENT
M$SINPUT     645**DCL-ENT
M$SLCFLD     650**DCL-ENT
M$SMOUSE     664**DCL-ENT
M$SMPRT     656**DCL-ENT
M$SPRIV     677**DCL-ENT
M$SSC     657**DCL-ENT
M$SSWITCH     677**DCL-ENT
M$STATE     686**DCL-ENT
M$STD     658**DCL-ENT
M$STIMER     672**DCL-ENT
M$STLPP     655**DCL-ENT
M$STRAP     672**DCL-ENT
M$STRMATTR     644**DCL-ENT
M$STRMCTL     642**DCL-ENT
M$STRMTAB     645**DCL-ENT
M$SYMBIO     683**DCL-ENT
M$SYSCON     669**DCL-ENT
PL6.E3A0      #011=XSL$SOCKMGMT File=XSL$SOCKET1.:TCA2TSI                        SUN 11/16/97 14:36 Page:373
M$SYSID     687**DCL-ENT
M$TDCLOSE     668**DCL-ENT
M$TDIO     668**DCL-ENT
M$TDOPEN     667**DCL-ENT
M$TDREQCPU     668**DCL-ENT
M$TEMPWROC     662**DCL-ENT
M$TIME     685**DCL-ENT
M$TRAP     672**DCL-ENT
M$TRMISC     647**DCL-ENT
M$TRMPRG     643**DCL-ENT
M$TRTN     676**DCL-ENT
M$TRUNC     619**DCL-ENT
M$TTIMER     672**DCL-ENT
M$UC     642**DCL
M$UMPL     659**DCL-ENT
M$UNFID     681**DCL-ENT
M$UNLATCH     638**DCL-ENT
M$UNSHARE     635**DCL-ENT
M$USRFIELD     678**DCL-ENT
M$VIRTUAL     653**DCL-ENT
M$WAIT     676**DCL-ENT
M$WEOF     621**DCL-ENT
M$WRITE     619**DCL-ENT
M$WRSYSLOG     667**DCL-ENT
M$XCON     673**DCL-ENT
M$XCONRTN     634**DCL-ENT
M$XEQTIME     686**DCL-ENT
M$XFLUSH     627**DCL-ENT
M$XMOUSE     664**DCL-ENT
M$XXX     630**DCL-ENT
M$YC     632**DCL-ENT
XSL$DCBNPTR    2604**ENTRY
XSL$GETSOCK    2648**ENTRY
XSL$RELSOCK    2674**ENTRY
XSL$SOCKINIT    2738**ENTRY
XSL$SOCKMGMT       6**PROC
PL6.E3A0      #011=XSL$SOCKMGMT File=XSL$SOCKET1.:TCA2TSI                        SUN 11/16/97 14:36 Page:374
XSL$SOCKPTR    2627**ENTRY
XSL_EVENTIDX    2598**DCL

PL6.E3A0      #012=XSL$ASYNC File=XSL$SOCKET1.:TCA2TSI                           SUN 11/16/97 14:37 Page:375
     2327        1        /*T***********************************************************/
     2328        2        /*T*                                                         */
     2329        3        /*T* Copyright (c) Bull HN Information Systems Inc., 1997    */
     2330        4        /*T*                                                         */
     2331        5        /*T***********************************************************/
     2332        6        XSL$ASYNC: PROC ASYNC;
     2333        7        %INCLUDE CP_6;
     2334       88            %B$EXCFR;
     2335      106            %B$TCB;
     2336      109        %INCLUDE XSL_SOCKET_M;
     2337      870        %INCLUDE XSL_INTERNAL_M;
     2338     1121            %XSL$SOCKHD( STCLASS="BASED( XSL_SOCK$$)");
     2339     1154
     2340     1155    1       DCL XSL$EVENT ENTRY(1) ALTRET;
     2341     1156
     2342     1157    1       DCL B$TCB$ PTR SYMREF READONLY;
     2343     1158    1       DCL XSL_SOCK$$ PTR SYMREF;
     2344     1159
     2345     1160    1       DCL EVENT# SBIN;
     2346     1161    1       DCL 1 P BASED ALIGNED,
     2347     1162    1           2 * UBIN(24) UNAL,
     2348     1163    1           2 SEGID UBIN(12) UNAL;
     2349     1164
     2350     1165            /* this entire procedure is INHIBITED to avoid TCB overflow */
     2351     1166    2       DO INHIBIT;
     2352     1167    2           EVENT# = B$TCB$->B$TCB.STK$->B$EXCFR.EVID;
     2353     1168    2           IF ADDR( EVENT#)->P.SEGID = ADDR( XSL_SOCK$$)->P.SEGID THEN
     2354     1169    2               CALL XSL$EVENT( B$TCB$->B$TCB.STK$->B$EXCFR);
     2355     1170    3           ELSE DO;
     2356     1171    3               IF XSL$SOCKHD.EVNT$ ~= ENTADDR( NIL) THEN
     2357     1172    3                   CALL XSL$SOCKHD.EVNT$( B$TCB$->B$TCB.STK$->B$EXCFR);
     2358     1173    3               END;
     2359     1174    2           RETURN;
     2360     1175    2           END;
     2361     1176
     2362     1177    1   END XSL$ASYNC;
     2363     1178        %EOD;
PL6.E3A0      #012=XSL$ASYNC File=XSL$SOCKET1.:TCA2TSI                           SUN 11/16/97 14:37 Page:376

PL6.E3A0      #012=XSL$ASYNC File=XSL$SOCKET1.:TCA2TSI                           SUN 11/16/97 14:37 Page:377
--  Include file information  --

   XSL_INTERNAL_M.:TCA2TOU  is referenced.
   XSL_SOCKET_M.:TCA2TOU  is referenced.
   CP_6.:E05TOU  cannot be made into a system file and is referenced.
   B$JIT_C.:E05TOU  was found in the system file and is never referenced.
   CP_6_C.:E05TOU  was found in the system file and is referenced.
      No diagnostics issued in procedure XSL$ASYNC.

   Procedure XSL$ASYNC requires 30 words for executable code.
   Procedure XSL$ASYNC requires 6 words of local(AUTO) storage.

PL6.E3A0      #012=XSL$ASYNC File=XSL$SOCKET1.:TCA2TSI                           SUN 11/16/97 14:37 Page:378

 Object Unit name= XSL$ASYNC                                  File name= XSL$SOCKET1.:TCA2TOU
 UTS= NOV 16 '97 14:37:19.36 SUN                              Compiler= PL-6/E31         Sev=      00
 SharedLib= :SHARED_SYSTEM                                    Alt SharedLib=


    ****  Control sections  ****

 Sect   Type Bound  Init  Size OctSiz  Section name(segment info)
    0   DCB   even  none     0      0  M$UC
    1   Proc  even  none    30     36  XSL$ASYNC

    ****  Entry defs  ****

                              Check   Calling
                             calling  sequence
  Sect OctLoc Primary Altret sequence   type   Parms  Name
     1      0   yes            yes     Async       0  XSL$ASYNC

  ****  Entry refs  ****

         Check        Calling
        calling       sequence
Altret sequence SRef   type   Args  Name
 yes     yes           Std       1 XSL$EVENT
                       nStd      0 X66_AAUTO
                       Std       0 B_CONSPOOL_D
                       nStd      0 X66_AARET

  ****  Data refs  ****

  Flags:  r = read only, s = secondary
Flgs Name                             Flgs Name                             Flgs Name
     M$UC                             r    B$TCB$                                XSL_SOCK$$
     B_VECTNIL
PL6.E3A0      #012=XSL$ASYNC File=XSL$SOCKET1.:TCA2TSI                           SUN 11/16/97 14:37 Page:379


     2327        1        /*T***********************************************************/
     2328        2        /*T*                                                         */
     2329        3        /*T* Copyright (c) Bull HN Information Systems Inc., 1997    */
     2330        4        /*T*                                                         */
     2331        5        /*T***********************************************************/
     2332        6        XSL$ASYNC: PROC ASYNC;

      6  1 000000   000000 700200 xent  XSL$ASYNC    TSX0  ! X66_AAUTO
         1 000001   000006 000000                    ZERO    6,0

     2333        7        %INCLUDE CP_6;
     2334       88            %B$EXCFR;
     2335      106            %B$TCB;
     2336      109        %INCLUDE XSL_SOCKET_M;
     2337      870        %INCLUDE XSL_INTERNAL_M;
     2338     1121            %XSL$SOCKHD( STCLASS="BASED( XSL_SOCK$$)");
     2339     1154
     2340     1155    1       DCL XSL$EVENT ENTRY(1) ALTRET;
     2341     1156
     2342     1157    1       DCL B$TCB$ PTR SYMREF READONLY;
     2343     1158    1       DCL XSL_SOCK$$ PTR SYMREF;
     2344     1159
     2345     1160    1       DCL EVENT# SBIN;
     2346     1161    1       DCL 1 P BASED ALIGNED,
     2347     1162    1           2 * UBIN(24) UNAL,
     2348     1163    1           2 SEGID UBIN(12) UNAL;
     2349     1164
     2350     1165            /* this entire procedure is INHIBITED to avoid TCB overflow */
     2351     1166    2       DO INHIBIT;

     2352     1167    2           EVENT# = B$TCB$->B$TCB.STK$->B$EXCFR.EVID;

   1167  1 000002   000000 470600 xsym               LDP0  ! B$TCB$
         1 000003   000001 471700                    LDP1  ! 1,,PR0
         1 000004   100101 235300                    LDA   ! 65,,PR1
         1 000005   200003 755300                    STA   ! EVENT#,,AUTO
PL6.E3A0      #012=XSL$ASYNC File=XSL$SOCKET1.:TCA2TSI                           SUN 11/16/97 14:37 Page:380

     2353     1168    2           IF ADDR( EVENT#)->P.SEGID = ADDR( XSL_SOCK$$)->P.SEGID THEN

   1168  1 000006   200003 236300                    LDQ   ! EVENT#,,AUTO
         1 000007   000000 676200 xsym               ERQ   ! XSL_SOCK$$
         1 000010   007777 376207                    ANQ   ! 4095,DL
         1 000011   000021 601200 1                  TNZ   ! s:1171

     2354     1169    2               CALL XSL$EVENT( B$TCB$->B$TCB.STK$->B$EXCFR);

   1169  1 000012   000001 471700                    LDP1  ! 1,,PR0
         1 000013   200004 451700                    STP1  ! EVENT#+1,,AUTO
         1 000014   200004 630700                    EPPR0 ! EVENT#+1,,AUTO
         1 000015   000017 631600 xsym               EPPR1 ! B_VECTNIL+15
         1 000016   000000 701200 xent               TSX1  ! XSL$EVENT
         1 000017   000000 011200                    NOP   ! 0
         1 000020   000034 710200 1                  TRA   ! s:1174

     2355     1170    3           ELSE DO;

     2356     1171    3               IF XSL$SOCKHD.EVNT$ ~= ENTADDR( NIL) THEN

   1171  1 000021   000000 471600 xsym               LDP1  ! XSL_SOCK$$
         1 000022   100003 236300                    LDQ   ! 3,,PR1
         1 000023   000002 116200 xsym               CMPQ  ! B_VECTNIL+2
         1 000024   000034 600200 1                  TZE   ! s:1174

     2357     1172    3                   CALL XSL$SOCKHD.EVNT$( B$TCB$->B$TCB.STK$->B$EXCFR);

   1172  1 000025   000001 473700                    LDP3  ! 1,,PR0
         1 000026   200004 453700                    STP3  ! EVENT#+1,,AUTO
         1 000027   200004 630700                    EPPR0 ! EVENT#+1,,AUTO
         1 000030   100003 220300                    LDX0  ! 3,,PR1
         1 000031   000017 631600 xsym               EPPR1 ! B_VECTNIL+15
         1 000032   000000 701210                    TSX1  ! 0,X0
         1 000033   000000 011200                    NOP   ! 0

PL6.E3A0      #012=XSL$ASYNC File=XSL$SOCKET1.:TCA2TSI                           SUN 11/16/97 14:37 Page:381
     2358     1173    3               END;

     2359     1174    2           RETURN;

   1174  1 000034   000000 702200 xent               TSX2  ! X66_AARET

     2360     1175    2           END;

     2361     1176
     2362     1177    1   END XSL$ASYNC;

   1177  1 000035   000000 702200 xent               TSX2  ! X66_AARET
     2363     1178        %EOD;

PL6.E3A0      #012=XSL$ASYNC File=XSL$SOCKET1.:TCA2TSI                           SUN 11/16/97 14:37 Page:382
--  Include file information  --

   XSL_INTERNAL_M.:TCA2TOU  is referenced.
   XSL_SOCKET_M.:TCA2TOU  is referenced.
   CP_6.:E05TOU  cannot be made into a system file and is referenced.
   B$JIT_C.:E05TOU  was found in the system file and is never referenced.
   CP_6_C.:E05TOU  was found in the system file and is referenced.
      No diagnostics issued in procedure XSL$ASYNC.
PL6.E3A0      #012=XSL$ASYNC File=XSL$SOCKET1.:TCA2TSI                           SUN 11/16/97 14:37 Page:383

 **** Variables and constants ****

  ****  Auto variables  ****

  ****  Scalars and arrays  ****
OctLoc.c.b A Datatyp(siz) R M Lvl/name                 OctLoc.c.b A Datatyp(siz) R M Lvl/name

     3-0-0/w SBIN        r     1 EVENT#

  ****  SYMREF variables  ****

  ****  Scalars and arrays  ****
OctLoc.c.b A Datatyp(siz) R M Lvl/name                 OctLoc.c.b A Datatyp(siz) R M Lvl/name

     0-0-0/w PTR         r     1 B$TCB$                     0-0-0/w PTR         r     1 XSL_SOCK$$

  ****  BASED and DCB variables  ****

  ****  Scalars and arrays  ****
OctLoc.c.b A Datatyp(siz) R M Lvl/name                 OctLoc.c.b A Datatyp(siz) R M Lvl/name

     0-0-0/w STRC(2448)  r     1 B$EXCFR                    0-0-0/w STRC(144)   r     1 B$TCB
     0-0-0/w STRC        r     1 P                          0-0-0/w STRC(180)   r     1 XSL$SOCKHD


   Procedure XSL$ASYNC requires 30 words for executable code.
   Procedure XSL$ASYNC requires 6 words of local(AUTO) storage.
PL6.E3A0      #012=XSL$ASYNC File=XSL$SOCKET1.:TCA2TSI                           SUN 11/16/97 14:37 Page:384
          *** CROSS REFERENCE LISTING ***
**     DENOTES     IDENTIFIER DEFINITION
<<                 IDENTIFIER'S VALUE SET
>>                 IDENTIFIER'S VALUE USED
<>                 IDENTIFIER SET AND/OR USED
--                 IDENTIFIER REFERENCED
PL6.E3A0      #012=XSL$ASYNC File=XSL$SOCKET1.:TCA2TSI                           SUN 11/16/97 14:37 Page:385
          MINI XREF LISTING

B$EXCFR
        89**DCL      1169<>CALL     1172<>CALL
B$EXCFR.ASL
        89**DCL        89--REDEF
B$EXCFR.ERR.ERR#
       103**DCL       103--REDEF
B$EXCFR.EVID
       102**DCL       102--REDEF     103--REDEF    1167>>ASSIGN
B$EXCFR.IR
        90**DCL        90--REDEF
B$EXCFR.PREVSZ
        89**DCL        89--REDEF
B$EXCFR.SUBC
       101**DCL       101--REDEF     102--REDEF     102--REDEF
B$TCB.STK$
       107**DCL      1167>>ASSIGN   1169>>CALL     1172>>CALL
B$TCB$
      1157**DCL      1167>>ASSIGN   1169>>CALL     1172>>CALL
EVENT#
      1160**DCL      1167<<ASSIGN   1168--IF
P.SEGID
      1163**DCL      1168>>IF       1168>>IF
XSL$EVENT
      1155**DCL-ENT  1169--CALL
XSL$SOCKHD.EVNT$
      1151**DCL      1171>>IF       1172>>CALL
XSL_SOCK$$
      1158**DCL      1138--IMP-PTR  1168--IF       1171>>IF       1172>>CALL
PL6.E3A0      #012=XSL$ASYNC File=XSL$SOCKET1.:TCA2TSI                           SUN 11/16/97 14:37 Page:386
              *** CROSS REFERENCE LISTING ***
    **     DENOTES     IDENTIFIER DEFINITION
    <<                 IDENTIFIER'S VALUE SET
    >>                 IDENTIFIER'S VALUE USED
    <>                 IDENTIFIER SET AND/OR USED
    --                 IDENTIFIER REFERENCED
PL6.E3A0      #012=XSL$ASYNC File=XSL$SOCKET1.:TCA2TSI                           SUN 11/16/97 14:37 Page:387
              MINI UREF LISTING

M$ACCT      33**DCL-ENT
M$ACTIVATE      36**DCL-ENT
M$ALIB      29**DCL-ENT
M$ASUSER      31**DCL-ENT
M$ATTACH      38**DCL-ENT
M$BADPP      56**DCL-ENT
M$CGCTL      37**DCL-ENT
M$CGINFO      37**DCL-ENT
M$CHECK      18**DCL-ENT
M$CHGUNIT      76**DCL-ENT
M$CLOSE      16**DCL-ENT
M$CLRSTK      74**DCL-ENT
M$CMDVAR      85**DCL-ENT
M$CONFIG      46**DCL-ENT
M$CORRES      21**DCL-ENT
M$CPEXIT      30**DCL-ENT
M$CVM      54**DCL-ENT
M$CVOL      19**DCL-ENT
M$DCLFLD      46**DCL-ENT
M$DEACTIVATE      36**DCL-ENT
M$DELREC      18**DCL-ENT
M$DEQ      83**DCL-ENT
M$DETACH      38**DCL-ENT
M$DEVICE      20**DCL-ENT
M$DISPLAY      83**DCL-ENT
M$DISPRES      23**DCL-ENT
M$DLIB      29**DCL-ENT
M$DRIBBLE      46**DCL-ENT
M$DRTN      74**DCL-ENT
M$DSUSER      31**DCL-ENT
M$ENQ      82**DCL-ENT
M$EOM      41**DCL-ENT
PL6.E3A0      #012=XSL$ASYNC File=XSL$SOCKET1.:TCA2TSI                           SUN 11/16/97 14:37 Page:388
M$ERASE      47**DCL-ENT
M$ERR      28**DCL-ENT
M$ERRMSG      79**DCL-ENT
M$EVENT      71**DCL-ENT
M$EXHUME      80**DCL-ENT
M$EXIT      28**DCL-ENT
M$EXTEND      20**DCL-ENT
M$FDP      52**DCL-ENT
M$FDS      51**DCL-ENT
M$FEBOOT      44**DCL-ENT
M$FECTL      45**DCL-ENT
M$FEDUMP      44**DCL-ENT
M$FID      79**DCL-ENT
M$FINDPROC      33**DCL-ENT
M$FSUSER      31**DCL-ENT
M$FVP      53**DCL-ENT
M$FWCG      37**DCL-ENT
M$GBPL      57**DCL-ENT
M$GDDL      53**DCL-ENT
M$GDP      52**DCL-ENT
M$GDS      51**DCL-ENT
M$GETDCB      22**DCL-ENT
M$GETMOUSE      62**DCL-ENT
M$GETPM      63**DCL-ENT
M$GJOB      81**DCL-ENT
M$GLINEATTR      41**DCL-ENT
M$GOODPP      56**DCL-ENT
M$GPLATEN      49**DCL-ENT
M$GPROMPT      48**DCL-ENT
M$GTRMATTR      42**DCL-ENT
M$GTRMCTL      40**DCL-ENT
M$GTRMTAB      43**DCL-ENT
M$GVP      52**DCL-ENT
M$HELP      79**DCL-ENT
M$INT      71**DCL-ENT
M$INTRTN      32**DCL-ENT
PL6.E3A0      #012=XSL$ASYNC File=XSL$SOCKET1.:TCA2TSI                           SUN 11/16/97 14:37 Page:389
M$IOQ      67**DCL-ENT
M$JOBSTATS      81**DCL-ENT
M$KEYIN      21**DCL-ENT
M$LDEV      16**DCL-ENT
M$LDTRC      29**DCL-ENT
M$LIMIT      22**DCL-ENT
M$LINES      21**DCL-ENT
M$LINK      28**DCL-ENT
M$MADMUCK      24**DCL-ENT
M$MAKUSER      55**DCL-ENT
M$MBS      23**DCL-ENT
M$MDFFLD      47**DCL-ENT
M$MERC      72**DCL-ENT
M$MERCS      73**DCL-ENT
M$MIRROR      67**DCL-ENT
M$MONINFO      84**DCL-ENT
M$MPL      57**DCL-ENT
M$NODEINFO      48**DCL-ENT
M$NXTUSR      82**DCL-ENT
M$OCMSG      80**DCL-ENT
M$OLAY      28**DCL-ENT
M$OPEN      16**DCL-ENT
M$PAS      57**DCL-ENT
M$PATHCON      80**DCL-ENT
M$PDS      51**DCL-ENT
M$PFIL      18**DCL-ENT
M$PLATEN      42**DCL-ENT
M$PRECORD      20**DCL-ENT
M$PROCNAME      33**DCL-ENT
M$PROFILE      44**DCL-ENT
M$PROMPT      40**DCL-ENT
M$RACST      24**DCL-ENT
M$RDSYSLOG      65**DCL-ENT
M$READ      17**DCL-ENT
M$RELDCB      22**DCL-ENT
M$RELRES      23**DCL-ENT
PL6.E3A0      #012=XSL$ASYNC File=XSL$SOCKET1.:TCA2TSI                           SUN 11/16/97 14:37 Page:390
M$RELSTARF      25**DCL-ENT
M$REM      25**DCL-ENT
M$RENV      72**DCL-ENT
M$REQUIRE      24**DCL-ENT
M$RETRY      73**DCL-ENT
M$RETRYS      73**DCL-ENT
M$REW      19**DCL-ENT
M$RLSFLD      47**DCL-ENT
M$RPRIV      75**DCL-ENT
M$RSPP      54**DCL-ENT
M$RSWITCH      76**DCL-ENT
M$RUE      82**DCL-ENT
M$SAD      55**DCL-ENT
M$SAVE      31**DCL-ENT
M$SCON      32**DCL-ENT
M$SCREECH      30**DCL-ENT
M$SENV      72**DCL-ENT
M$SETFMA      16**DCL-ENT
M$SETFP      45**DCL-ENT
M$SINPUT      43**DCL-ENT
M$SLCFLD      48**DCL-ENT
M$SMOUSE      62**DCL-ENT
M$SMPRT      54**DCL-ENT
M$SPRIV      75**DCL-ENT
M$SSC      55**DCL-ENT
M$SSWITCH      75**DCL-ENT
M$STATE      84**DCL-ENT
M$STD      56**DCL-ENT
M$STIMER      70**DCL-ENT
M$STLPP      53**DCL-ENT
M$STRAP      70**DCL-ENT
M$STRMATTR      42**DCL-ENT
M$STRMCTL      40**DCL-ENT
M$STRMTAB      43**DCL-ENT
M$SYMBIO      81**DCL-ENT
M$SYSCON      67**DCL-ENT
PL6.E3A0      #012=XSL$ASYNC File=XSL$SOCKET1.:TCA2TSI                           SUN 11/16/97 14:37 Page:391
M$SYSID      85**DCL-ENT
M$TDCLOSE      66**DCL-ENT
M$TDIO      66**DCL-ENT
M$TDOPEN      65**DCL-ENT
M$TDREQCPU      66**DCL-ENT
M$TEMPWROC      60**DCL-ENT
M$TIME      83**DCL-ENT
M$TRAP      70**DCL-ENT
M$TRMISC      45**DCL-ENT
M$TRMPRG      41**DCL-ENT
M$TRTN      74**DCL-ENT
M$TRUNC      17**DCL-ENT
M$TTIMER      70**DCL-ENT
M$UC      40**DCL
M$UMPL      57**DCL-ENT
M$UNFID      79**DCL-ENT
M$UNLATCH      36**DCL-ENT
M$UNSHARE      33**DCL-ENT
M$USRFIELD      76**DCL-ENT
M$VIRTUAL      51**DCL-ENT
M$WAIT      74**DCL-ENT
M$WEOF      19**DCL-ENT
M$WRITE      17**DCL-ENT
M$WRSYSLOG      65**DCL-ENT
M$XCON      71**DCL-ENT
M$XCONRTN      32**DCL-ENT
M$XEQTIME      84**DCL-ENT
M$XFLUSH      25**DCL-ENT
M$XMOUSE      62**DCL-ENT
M$XXX      28**DCL-ENT
M$YC      30**DCL-ENT
XSL$ASYNC       6**PROC

