VERSION A02

PL6.E3A0      #001=XSL$SOCKET File=XSL$SOCKET1.:TCA2TSI                          SUN 11/16/97 14:29 Page:1
        1        1        /*M*    XSL$SOCKET1             BSD4.3 Socket Library for CP-6, part 1  */
        2        2        /*T***********************************************************/
        3        3        /*T*                                                         */
        4        4        /*T* Copyright (c) Bull HN Information Systems Inc., 1997    */
        5        5        /*T*                                                         */
        6        6        /*T***********************************************************/
        7        7        /*X* DMC,PLM=4,IND=4,DCI=8,DTI=0,ENI=4,ECI=4,CSI=4,DIN=4,SDI=0 */
        8        8        /*F*    NAME:   Programmer's Reference
        9        9            ..::L1 "Host Socket Library\\A"
       10       10            ..VA$M_FOOTER "\Host Socket Library"
       11       11            The CP-6 Socket Library provides a collection of C-callable
       12       12            functions and PL6-callable procedures to permit CP-6
       13       13            applications to communicate with other applications over a LAN.
       14       14            ..::IX "socket library"
       15       15
       16       16            A socket is an endpoint for communication.  On CP-6 systems, a socket
       17       17            consists of a DCB and some context.  The Host Socket Library provides
       18       18            facilities to create and name sockets, to initiate outgoing
       19       19            connections and await incoming connections, to send and receive
       20       20            data, to check for the presence of incoming data or exceptional
       21       21            conditions, and to terminate connections.
       22       22            ..::IX "socket, definition of"
       23       23
       24       24            Other facilities of
       25       25            the library include getting and setting socket options, obtaining
       26       26            information about the sockets at each end of a connection,
       27       27            converting data between network and CP-6 formats, converting
       28       28            addresses between network and character string formats, and
       29       29            obtaining information from configuration files that reside in the
       30       30            :SYS account.
       31       31            ..::L1 "Host Socket Library Services\SUMMARY\1"
       32       32            The services available in the library are listed in the following
       33       33            table.
       34       34            .FIF
       35       35
       36       36            CATEGORY                    SERVICE
       37       37            .SPF
PL6.E3A0      #001=XSL$SOCKET File=XSL$SOCKET1.:TCA2TSI                          SUN 11/16/97 14:29 Page:2
       38       38            Create and Name Sockets     socket() and XSL$SOCKET
       39       39            }                           bind() and XSL$BIND
       40       40            }
       41       41            Initiating Connections      listen() and XSL$LISTEN
       42       42            }                           accept() and XSL$ACCEPT
       43       43            }                           accept_srvr() and XSL$ACCEPT_SRVR
       44       44            }                           connect() and XSL$CONNECT
       45       45            }
       46       46            Transferring Data           send() and XSL$SEND
       47       47            }                           recv() and XSL$RECV
       48       48            }                           sendto() and XSL$SENDTO
       49       49            }                           recvfrom() and XSL$RECVFROM
       50       50            }                           sendmsg() and XSL$SENDMSG
       51       51            }                           recvmsg() and XSL$RECVMSG
       52       52            }                           write() and XSL$WRITE
       53       53            }                           read() and XSL$READ
       54       54            }                           writev() and XSL$WRITEV
       55       55            }                           readv() and XSL$READV
       56       56            }
       57       57            I/O Multiplexing            select() and XSL$SELECT
       58       58            }
       59       59            Terminating Connections     shutdown() and XSL$SHUTDOWN
       60       60            }                           close() and XSL$CLOSE
       61       61            }
       62       62            Host, Socket, User Info     gethostname() and XSL$GETHOSTNAME
       63       63            }                           getpeername() and XSL$GETPEERNAME
       64       64            }                           getsockname() and XSL$GETSOCKNAME
       65       65            }                           getsockopt() and XSL$GETSOCKOPT
       66       66            }                           setsockopt() and XSL$SETSOCKOPT
       67       67            }                           fcntl() and XSL$FCNTL
       68       68            }                           ioctl() and XSL$IOCTL
       69       69            }                           XSL$SOCKINIT
       70       70                                            XSL$CHAM
       71       71            }
       72       72            Data Conversion             htonl() and XSL$HTONL
       73       73            }                           htons() and XSL$HTONS
       74       74            }                           ntohl() and XSL$NTOHL
PL6.E3A0      #001=XSL$SOCKET File=XSL$SOCKET1.:TCA2TSI                          SUN 11/16/97 14:29 Page:3
       75       75            }                           ntohs() and XSL$NTOHS
       76       76            }
       77       77            Data Manipulation           bcmp()
       78       78            }                           bcopy()
       79       79            }                           bzero()
       80       80            }
       81       81            Internet Address Usage      inet_addr() and XSL$INET_ADDR
       82       82            }                           inet_lnaof() and XSL$INET_LNAOF
       83       83            }                           inet_makeaddr() and XSL$INET_MAKEADDR
       84       84            }                           inet_netof() and XSL$INET_NETOF
       85       85            }                           inet_network() and XSL$INET_NETWORK
       86       86            }                           inet_ntoa() and XSL$INET_NTOA
       87       87            }
       88       88            "hosts" File Usage          gethostbyaddr() and XSL$GETHOSTBYADDR
       89       89            }                           gethostbyname() and XSL$GETHOSTBYNAME
       90       90            }                           gethostent() and XSL$GETHOSTENT
       91       91            }                           sethostent() and XSL$SETHOSTENT
       92       92            }                           endhostent() and XSL$ENDHOSTENT
       93       93            }
       94       94            "networks" File Usage       getnetbyaddr() and XSL$GETNETBYADDR
       95       95            }                           getnetbyname() and XSL$GETNETBYNAME
       96       96            }                           getnetent() and XSL$GETNETENT
       97       97            }                           setnetent() and XSL$SETNETENT
       98       98            }                           endnetent() and XSL$ENDNETENT
       99       99            }
      100      100            "protocols" File Usage      getprotobyname() and XSL$GETPROTOBYNAME
      101      101            }                           getprotobynumber() and XSL$GETPROTOBYNUMBER
      102      102            }                           getprotoent() and XSL$GETPROTOENT
      103      103            }                           setprotoent() and XSL$SETPROTOENT
      104      104            }                           endprotoent() and XSL$ENDPROTOENT
      105      105            }
      106      106            "services" File Usage       getservbyname() and XSL$GETSERVBYNAME
      107      107            }                           getservbyport() and XSL$GETSERVBYPORT
      108      108            }                           getservent() and XSL$GETSERVENT
      109      109            }                           setservent() and XSL$SETSERVENT
      110      110            }                           endservent() and XSL$ENDSERVENT
      111      111            }
PL6.E3A0      #001=XSL$SOCKET File=XSL$SOCKET1.:TCA2TSI                          SUN 11/16/97 14:29 Page:4
      112      112            .FIN
      113      113        */
      114      114        /*F*    NAME:   Linking Information
      115      115            The CP-6 Socket Library exists as an unshared LEMUR library in
      116      116            the file :ETC_SOCKET.:SYS.  The library contains both C and
      117      117            PL6 interfaces.  Routines from the library are included in an
      118      118            application by linking the application with the option
      119      119            UNSAT=:ETC_SOCKET.:SYS.
      120      120        */
      121      121        /*F*    NAME:   DCB Usage
      122      122            The CP-6 Socket Library dynamically allocates and releases socket
      123      123            DCBs as needed, without application intervention.  The DCBs used
      124      124            by the library are named F$XSLnn, where nn is an internal table
      125      125            index.  One DCB is required for each socket in use or awaiting
      126      126            an incoming connection.
      127      127
      128      128            There is also one permanent DCB used for accessing the file
      129      129            etc:routes.:SYS and, if necessary, four permanent DCBs for
      130      130            accessing the files etc:hosts, etc:networks, etc:protocols, and
      131      131            etc:services, all in .:SYS.
      132      132
      133      133            Application DCBs are neither used nor modified.
      134      134        */
      135      135        /*F*    NAME:   Include Files
      136      136            All of the include files necessary to make use of the Host Socket
      137      137            Library are located in the :LIBRARY account.  The include files
      138      138            are listed below.
      139      139            .SPB
      140      140            XSL_PERR_C
      141      141            .SPB
      142      142            .INL +8
      143      143            PL6 include file containing EQUs for error conditions.
      144      144            .INL -8
      145      145            .SPB
      146      146            XSL_SOCKET_E
      147      147            .SPB
      148      148            .INL +8
PL6.E3A0      #001=XSL$SOCKET File=XSL$SOCKET1.:TCA2TSI                          SUN 11/16/97 14:29 Page:5
      149      149            PL6 include file containing EQUs for general usage of the socket
      150      150            library.  PL6 equivalents of the various C defines in the xsl_?
      151      151            include files are found here.
      152      152            .INL -8
      153      153            .SPB
      154      154            XSL_SOCKET_M
      155      155            .SPB
      156      156            .INL +8
      157      157            PL6 include file containing MACROs for general usage of the socket
      158      158            library.  PL6 equivalents of the various C structures in the xsl_?
      159      159            include files are found here.
      160      160            .INL -8
      161      161            .SPB
      162      162        .BBK
      163      163            xsl_errno:h
      164      164            .SPB
      165      165            .INL +8
      166      166            C include file containing defines for error conditions.
      167      167            .INL -8
      168      168        .BEK
      169      169            .SPB
      170      170            xsl_in:h
      171      171            .SPB
      172      172            .INL +8
      173      173            C include file containing defines for Internet addressing.
      174      174            .INL -8
      175      175            .SPB
      176      176            xsl_netdb:h
      177      177            .SPB
      178      178            .INL +8
      179      179            C include file containing defines for the hosts, networks,
      180      180            protocols, and services file manipulation functions.
      181      181            .INL -8
      182      182            .SPB
      183      183            xsl_select:h
      184      184            .SPB
      185      185            .INL +8
PL6.E3A0      #001=XSL$SOCKET File=XSL$SOCKET1.:TCA2TSI                          SUN 11/16/97 14:29 Page:6
      186      186            C include file containing defines for the select() function.
      187      187            .INL -8
      188      188            .SPB
      189      189            xsl_socket:h
      190      190            .SPB
      191      191            .INL +8
      192      192            C include file containing defines for general usage of the socket library.
      193      193            .INL -8
      194      194        */
      195      195        /*F* NAME:  Internet Address Representation
      196      196            The term "Internet address" is used throughout the discussion of
      197      197            Host Socket Library services.  On 32-bit systems, an Internet
      198      198            address consists of four consecutive bytes of 8 bits each.  On
      199      199            CP-6 systems, an Internet address consists of four consecutive
      200      200            bytes ignoring the high-order bit of each byte.  An Internet
      201      201            address is commonly represented in text as a "character string in
      202      202            dot notation", i.e., each of four bytes as a decimal number,
      203      203            separated by dots.  For example, 128.35.0.0 and 192.9.200.2 are
      204      204            Internet addresses.
      205      205
      206      206            An Internet address consists of two parts, sometimes called
      207      207            "netid" and "hostid".  The netid identifies the network; the
      208      208            hostid identifies the host on that network.  The netid field can
      209      209            be 1, 2, or 3 bytes long in a Class A, B, or C address,
      210      210            respectively, leaving 3, 2 or 1 bytes for the hostid.  The lengths
      211      211            of the netid and the hostid are determined by inspecting the
      212      212            high-order bits of the Internet address.
      213      213
      214      214            The CP-6 Internet addresses shown below illustrate the settings of
      215      215            the high-order bits for addresses with a 1, 2, or 3 byte netid.
      216      216            For each bit position shown, the letter n denotes a netid bit, the
      217      217            letter h denotes a hostid bit, and the character ? denotes an unused
      218      218            (don't care) bit.
      219      219            .fif
      220      220
      221      221            .brn 7
      222      222            Class A address:
PL6.E3A0      #001=XSL$SOCKET File=XSL$SOCKET1.:TCA2TSI                          SUN 11/16/97 14:29 Page:7
      223      223            #-+-+-+-+-+-+-+-+-#-+-+-+-+-+-+-+-+-#-+-+-+-+-+-+-+-+-#-+-+-+-+-+-+-+-+-#
      224      224            |? 0 n n n n n n n ? h h h h h h h h ? h h h h h h h h ? h h h h h h h h|
      225      225            #-+-+-+-+-+-+-+-+-#-+-+-+-+-+-+-+-+-#-+-+-+-+-+-+-+-+-#-+-+-+-+-+-+-+-+-#
      226      226            .fin
      227      227            .spf
      228      228            Internet addresses 0.0.0.0 through 127.255.255.255
      229      229            allow 126 networks with up to 16777214 hosts each.
      230      230
      231      231
      232      232            .fif
      233      233            .brn 7
      234      234            Class B address:
      235      235            #-+-+-+-+-+-+-+-+-#-+-+-+-+-+-+-+-+-#-+-+-+-+-+-+-+-+-#-+-+-+-+-+-+-+-+-#
      236      236            |? 1 0 n n n n n n ? n n n n n n n n ? h h h h h h h h ? h h h h h h h h|
      237      237            #-+-+-+-+-+-+-+-+-#-+-+-+-+-+-+-+-+-#-+-+-+-+-+-+-+-+-#-+-+-+-+-+-+-+-+-#
      238      238            .fin
      239      239            .spf
      240      240            Internet addresses 128.0.0.0 through 191.255.255.255
      241      241            allow 16382 networks with up to 65534 hosts each.
      242      242
      243      243
      244      244            .fif
      245      245            .brn 7
      246      246            Class C address:
      247      247            #-+-+-+-+-+-+-+-+-#-+-+-+-+-+-+-+-+-#-+-+-+-+-+-+-+-+-#-+-+-+-+-+-+-+-+-#
      248      248            |? 1 1 0 n n n n n ? n n n n n n n n ? n n n n n n n n ? h h h h h h h h|
      249      249            #-+-+-+-+-+-+-+-+-#-+-+-+-+-+-+-+-+-#-+-+-+-+-+-+-+-+-#-+-+-+-+-+-+-+-+-#
      250      250            .fin
      251      251            .spf
      252      252            Internet addresses 192.0.0.0 through 223.255.255.255
      253      253            allow 2097150 networks with up to 254 hosts each.
      254      254
      255      255
      256      256            In practice, Class A and Class B networks are commonly divided up
      257      257            into subnets, using a "subnet mask" which is ANDed with the
      258      258            Internet address to specify which bits define the netid.
      259      259
PL6.E3A0      #001=XSL$SOCKET File=XSL$SOCKET1.:TCA2TSI                          SUN 11/16/97 14:29 Page:8
      260      260            Note:  A netid or hostid value of all binary zeros or all binary
      261      261            ones is not permitted.  (All binary zeros is reserved to mean the
      262      262            local network or the local host; all binary ones is reserved to
      263      263            mean broadcast to all networks or broadcast to all hosts.)
      264      264        */
      265      265
      266      266        /*F* NAME: socket() and XSL$SOCKET  --  Create Socket
      267      267        ..::IT "Purpose:"
      268      268        .INL +4
      269      269        Creates a new socket, to allow communication with another socket
      270      270        elsewhere in a network.
      271      271        ..::IT "C Usage:"
      272      272        .INL 4
      273      273        .FIF
      274      274        s = socket( af, type, protocol );
      275      275        ..::IT "PL6 Usage:"
      276      276        .INL 4
      277      277        .FIF
      278      278        CALL XSL$SOCKET( s, af, type, protocol );
      279      279        ..::IT "Parameters:"
      280      280        .INL 4
      281      281        .FIF
      282      282        af          integer address format
      283      283
      284      284        type        integer socket type
      285      285
      286      286        protocol    integer protocol number
      287      287        ..::IT "Result:"
      288      288        .INL 4
      289      289        .FIF
      290      290        s           integer socket descriptor or error code
      291      291        ..::IT "Description:"
      292      292        The socket() function creates an endpoint for communication, and returns
      293      293        a descriptor used by other socket library functions for this communication.
      294      294        .SPB
      295      295        The af parameter specifies the address format to use when processing
      296      296        network addresses in later operations on this socket.  Equates for the
PL6.E3A0      #001=XSL$SOCKET File=XSL$SOCKET1.:TCA2TSI                          SUN 11/16/97 14:29 Page:9
      297      297        possible values can be found in <xsl_socket.h> or XSL_SOCKET_E.  Only the
      298      298        "Internet" address format is currently supported; it is selected
      299      299        by coding AF_INET or %XSL_AF_INET in C or PL6 source, respectively.
      300      300        The complete list of possible address formats is shown below.
      301      301        .trf ]%
      302      302        ..::TB "^\C #define\#8\PL6 ]EQU\#10\Meaning\#"
      303      303        .trf ]]
      304      304        .xeq XSL_SOCKET_E AF_E XSL_AF_APPLETALK
      305      305        .xeq XSL_SOCKET_E AF_E XSL_AF_CCITT
      306      306        .xeq XSL_SOCKET_E AF_E XSL_AF_CHAOS
      307      307        .xeq XSL_SOCKET_E AF_E XSL_AF_DATAKIT
      308      308        .xeq XSL_SOCKET_E AF_E XSL_AF_DECNET
      309      309        .xeq XSL_SOCKET_E AF_E XSL_AF_DLI
      310      310        .xeq XSL_SOCKET_E AF_E XSL_AF_ECMA
      311      311        .xeq XSL_SOCKET_E AF_E XSL_AF_HYLINK
      312      312        .xeq XSL_SOCKET_E AF_E XSL_AF_IMPLINK
      313      313        .xeq XSL_SOCKET_E AF_E XSL_AF_INET
      314      314        .xeq XSL_SOCKET_E AF_E XSL_AF_LAT
      315      315        .xeq XSL_SOCKET_E AF_E XSL_AF_NBS
      316      316        .xeq XSL_SOCKET_E AF_E XSL_AF_NS
      317      317        .xeq XSL_SOCKET_E AF_E XSL_AF_PUP
      318      318        .xeq XSL_SOCKET_E AF_E XSL_AF_SNA
      319      319        .xeq XSL_SOCKET_E AF_E XSL_AF_UNIX
      320      320        ..::TB
      321      321        .SPB
      322      322        The type parameter specifies how communication is to be performed for
      323      323        this socket.  Equates for the possible values can be found in <xsl_socket.h>
      324      324        or XSL_SOCKET_E.  Only "stream", "datagram", and "raw" socket types are
      325      325        currently supported.  Stream type is selected by coding SOCK_STREAM or
      326      326        %XSL_SOCK_STREAM in C or PL6 source, respectively.  Datagram type is
      327      327        selected by coding SOCK_DGRAM or %XSL_SOCK_DGRAM in C or PL6 source,
      328      328        respectively.  Raw type is selected by coding SOCK_RAW or %XSL_SOCK_RAW
      329      329        in C or PL6 source, respectively.
      330      330        The complete list of possible types is shown in the table below.
      331      331        .trf ]%
      332      332        ..::TB "^\C #define\#8\PL6 ]EQU\#15\Meaning\#"
      333      333        .trf ]]
PL6.E3A0      #001=XSL$SOCKET File=XSL$SOCKET1.:TCA2TSI                          SUN 11/16/97 14:29 Page:10
      334      334        .xeq XSL_SOCKET_E SOCK_E SOCK_DGRAM
      335      335        .xeq XSL_SOCKET_E SOCK_E SOCK_RAW
      336      336        .xeq XSL_SOCKET_E SOCK_E SOCK_RDM
      337      337        .xeq XSL_SOCKET_E SOCK_E SOCK_SEQPACKET
      338      338        .xeq XSL_SOCKET_E SOCK_E SOCK_STREAM
      339      339        ..::TB
      340      340        .SPB
      341      341        The protocol parameter specifies which protocol family to use for
      342      342        communication on this socket.  There are potentially many protocol
      343      343        families available for each address format selected.  Equates for the
      344      344        possible values can be found in <xsl_socket.h> or XSL_SOCKET_E.  Only
      345      345        "Internet" protocol is currently supported; it is selected by coding
      346      346        PF_INET or %XSL_PF_INET in C or PL6 source, respectively.  The value 0 is
      347      347        also permitted; it specifies use of the default protocol for the selected
      348      348        address format.
      349      349        The complete list of possible protocol families is shown below.
      350      350        .trf ]%
      351      351        ..::TB "^\C #define\#8\PL6 ]EQU\#10\Meaning\#"
      352      352        .trf ]]
      353      353        .xeq XSL_SOCKET_E PF_E XSL_PF_APPLETALK
      354      354        .xeq XSL_SOCKET_E PF_E XSL_PF_CCITT
      355      355        .xeq XSL_SOCKET_E PF_E XSL_PF_CHAOS
      356      356        .xeq XSL_SOCKET_E PF_E XSL_PF_DATAKIT
      357      357        .xeq XSL_SOCKET_E PF_E XSL_PF_DECNET
      358      358        .xeq XSL_SOCKET_E PF_E XSL_PF_DLI
      359      359        .xeq XSL_SOCKET_E PF_E XSL_PF_ECMA
      360      360        .xeq XSL_SOCKET_E PF_E XSL_PF_HYLINK
      361      361        .xeq XSL_SOCKET_E PF_E XSL_PF_IMPLINK
      362      362        .xeq XSL_SOCKET_E PF_E XSL_PF_INET
      363      363        .xeq XSL_SOCKET_E PF_E XSL_PF_LAT
      364      364        .xeq XSL_SOCKET_E PF_E XSL_PF_NBS
      365      365        .xeq XSL_SOCKET_E PF_E XSL_PF_NS
      366      366        .xeq XSL_SOCKET_E PF_E XSL_PF_PUP
      367      367        .xeq XSL_SOCKET_E PF_E XSL_PF_SNA
      368      368        .xeq XSL_SOCKET_E PF_E XSL_PF_UNIX
      369      369        ..::TB
      370      370        .SPB
PL6.E3A0      #001=XSL$SOCKET File=XSL$SOCKET1.:TCA2TSI                          SUN 11/16/97 14:29 Page:11
      371      371        If the socket() function is successful, the s result contains the
      372      372        descriptor for a new socket with the selected attributes.  The descriptor
      373      373        is a small non-negative integer, equivalent to the DCBNUM of the DCB
      374      374        allocated for this socket.
      375      375        .SPB
      376      376        If the socket() function is unsuccessful, the s result contains
      377      377        EFAILURE or E$FAILURE and the application must inspect errno or XSL_ERRNO
      378      378        to determine the specific error condition.  The XSL$SOCKET procedure
      379      379        additionally ALTRETURNs if it is unsuccessful; it is otherwise identical
      380      380        to the socket() function.
      381      381        ..::IT "Errors:"
      382      382        Following are the possible error conditions reported when the socket()
      383      383        function is unsuccessful.  Equates for the possible values can be found in
      384      384        <xsl_errno.h> or XSL_PERR_C for C and PL6 source, respectively.
      385      385
      386      386        .FIF
      387      387
      388      388        C #define               PL6 %EQU
      389      389        ----------------------- -----------------------
      390      390        EAFNOSUPPORT            E$AFNOSUPPORT
      391      391        .FIN
      392      392        The selected address format is not currently supported.
      393      393        .FIF
      394      394
      395      395        EMFILE                  E$MFILE
      396      396        .FIN
      397      397        M$GETDCB failed.  Unable to allocate DCB for this socket.
      398      398        .FIF
      399      399
      400      400        ENOBUFFS                E$NOBUFFS
      401      401        No buffer space is available.
      402      402        .FIN
      403      403        .FIF
      404      404
      405      405        EPROTONOSUPPORT         E$PROTONOSUPPORT
      406      406        .FIN
      407      407        The selected protocol family is not currently supported.
PL6.E3A0      #001=XSL$SOCKET File=XSL$SOCKET1.:TCA2TSI                          SUN 11/16/97 14:29 Page:12
      408      408        .FIF
      409      409
      410      410        ESOCKTNOSUPPORT         E$SOCKTNOSUPPORT
      411      411        .FIN
      412      412        The selected socket type is not currently supported.
      413      413        .FIF
      414      414        */
      415      415        XSL$SOCKET: PROC( RESULT, AF, TYPE, PROTOCOL) ALTRET;
      416      416        %INCLUDE XSL_SOCKET_E;
      417      674        %INCLUDE XSL_SOCKET_M;
      418     1435        %INCLUDE XSL_PERR_C;
      419     1490        %INCLUDE XSL_INTERNAL_M;
      420     1741            %XSL$SOCKINFO( FPTN=SOCK, STCLASS="BASED( SOCK$)");
      421     1885
      422     1886    1       DCL XSL$GETSOCK ENTRY(2) ALTRET;
      423     1887    1       DCL XSL$RELSOCK ENTRY(1) ALTRET;
      424     1888    1       DCL XSL$CL_READ ENTRY(3) ALTRET;
      425     1889    1       DCL XSL$CL_WRITE ENTRY(4) ALTRET;
      426     1890    1       DCL XSL$SOCKOPEN ENTRY(3) ALTRET;
      427     1891
      428     1892    1       DCL XSL_ERRNO SBIN SYMREF;
      429     1893    1       DCL XSL_SOCK$ REDEF XSL_ERRNO PTR;
      430     1894    1       DCL XSL_SN CHAR(6) SYMREF;
      431     1895
      432     1896    1       DCL AF SBIN;
      433     1897    1       DCL PROTOCOL SBIN;
      434     1898    1       DCL QUICK BIT(1) UNAL;
      435     1899    1       DCL RESULT SBIN;
      436     1900    1       DCL SOCK# SBIN;
      437     1901    1       DCL SOCK$ PTR;
      438     1902    1       DCL TYPE SBIN;
      439     1903
      440     1904    1       QUICK = '0'B;
      441     1905    1       GOTO COMMON;
      442     1906
      443     1907    1   XSL$QSOCKET: ENTRY( RESULT, AF, TYPE, PROTOCOL) ALTRET;
      444     1908
PL6.E3A0      #001=XSL$SOCKET File=XSL$SOCKET1.:TCA2TSI                          SUN 11/16/97 14:29 Page:13
      445     1909    1       QUICK = '1'B;
      446     1910    1   COMMON:
      447     1911    2       IF AF ~= %XSL_AF_INET THEN DO;
      448     1912    2           XSL_ERRNO = %E$AFNOSUPPORT;
      449     1913    2   BAILOUT:
      450     1914    2           RESULT = %E$FAILURE;
      451     1915    2           IF XSL_ERRNO = %E$FAILURE THEN
      452     1916    2               CALL XSL$RELSOCK( SOCK#);
      453     1917    2           ALTRETURN;
      454     1918    2           END;
      455     1919    2       IF TYPE < %XSL_SOCK_STREAM OR TYPE > %XSL_SOCK_RAW THEN DO;
      456     1920    2           XSL_ERRNO = %E$SOCKTNOSUPPORT; GOTO BAILOUT; END;
      457     1921    2       IF PROTOCOL ~= %XSL_PF_UNSPEC AND PROTOCOL ~= AF THEN DO;
      458     1922    2           XSL_ERRNO = %E$PROTONOSUPPORT; GOTO BAILOUT; END;
      459     1923    1       CALL XSL$GETSOCK( SOCK#, XSL_SOCK$) ALTRET (BAILOUT);
      460     1924    1       SOCK$ = XSL_SOCK$;
      461     1925    1       SOCK.AF = AF;
      462     1926    1       SOCK.TYPE = TYPE;
      463     1927    1       SOCK.PROTOCOL = PROTOCOL;
      464     1928    1       SOCK.FLAGS.BLOCKING = '1'B;
      465     1929    1       IF XSL_SN = '      ' THEN
      466     1930                /* site doesn't have default RNAME, so we can socket() now */
      467     1931    1           CALL XSL$SOCKOPEN( SOCK) ALTRET( BAILOUT);
      468     1932    1       IF TYPE ~= %XSL_SOCK_STREAM THEN
      469     1933    1           SOCK.FLAGS.SELWRITE = '1'B;
      470     1934    1       IF QUICK THEN
      471     1935    1           RESULT = SOCK#;
      472     1936    1       ELSE
      473     1937    1           RESULT = SOCK.DCB#;
      474     1938    1       RETURN;
      475     1939
      476     1940    1   END XSL$SOCKET;
      477     1941        %EOD;

PL6.E3A0      #001=XSL$SOCKET File=XSL$SOCKET1.:TCA2TSI                          SUN 11/16/97 14:29 Page:14
--  Include file information  --

   XSL_INTERNAL_M.:TCA2TOU  is referenced.
   XSL_PERR_C.:TCA2TOU  is referenced.
   XSL_SOCKET_M.:TCA2TOU  is referenced.
   XSL_SOCKET_E.:TCA2TOU  is referenced.
   B$JIT_C.:E05TOU  was found in the system file and is never referenced.
   CP_6_C.:E05TOU  was found in the system file and is never referenced.
      No diagnostics issued in procedure XSL$SOCKET.

   Procedure XSL$SOCKET requires 96 words for executable code.
   Procedure XSL$SOCKET requires 12 words of local(AUTO) storage.

PL6.E3A0      #001=XSL$SOCKET File=XSL$SOCKET1.:TCA2TSI                          SUN 11/16/97 14:29 Page:15

 Object Unit name= XSL$SOCKET                                 File name= XSL$SOCKET1.:TCA2TOU
 UTS= NOV 16 '97 14:29:57.28 SUN                              Compiler= PL-6/E31         Sev=      00
 SharedLib= :SHARED_SYSTEM                                    Alt SharedLib=


    ****  Control sections  ****

 Sect   Type Bound  Init  Size OctSiz  Section name(segment info)
    0  RoData even  UTS      2      2  XSL$SOCKET
    1   Proc  even  none    96    140  XSL$SOCKET
    2  RoData even  none     1      1  XSL$SOCKET

    ****  Entry defs  ****

                              Check   Calling
                             calling  sequence
  Sect OctLoc Primary Altret sequence   type   Parms  Name
     1      0   yes    yes     yes      Std        4  XSL$SOCKET
     1      4          yes     yes      Std        4  XSL$QSOCKET

  ****  Entry refs  ****

         Check        Calling
        calling       sequence
Altret sequence SRef   type   Args  Name
 yes     yes           Std       1 XSL$RELSOCK
 yes     yes           Std       2 XSL$GETSOCK
 yes     yes           Std       3 XSL$SOCKOPEN
                       nStd      0 X66_AUTO_4
                       Std       0 B_CONSPOOL_D
                       nStd      0 X66_AALT
                       nStd      0 X66_ARET
PL6.E3A0      #001=XSL$SOCKET File=XSL$SOCKET1.:TCA2TSI                          SUN 11/16/97 14:29 Page:16

  ****  Data refs  ****

  Flags:  r = read only, s = secondary
Flgs Name                             Flgs Name                             Flgs Name
     XSL_ERRNO                             XSL_SN                                B_VECTNIL

  ****  Segment refs  ****

  Flags:  r = read only, s = secondary
Flgs Name                             Flgs Name                             Flgs Name
     ISSID
PL6.E3A0      #001=XSL$SOCKET File=XSL$SOCKET1.:TCA2TSI                          SUN 11/16/97 14:29 Page:17


        1        1        /*M*    XSL$SOCKET1             BSD4.3 Socket Library for CP-6, part 1  */
        2        2        /*T***********************************************************/
        3        3        /*T*                                                         */
        4        4        /*T* Copyright (c) Bull HN Information Systems Inc., 1997    */
        5        5        /*T*                                                         */
        6        6        /*T***********************************************************/
        7        7        /*X* DMC,PLM=4,IND=4,DCI=8,DTI=0,ENI=4,ECI=4,CSI=4,DIN=4,SDI=0 */
        8        8        /*F*    NAME:   Programmer's Reference
        9        9            ..::L1 "Host Socket Library\\A"
       10       10            ..VA$M_FOOTER "\Host Socket Library"
       11       11            The CP-6 Socket Library provides a collection of C-callable
       12       12            functions and PL6-callable procedures to permit CP-6
       13       13            applications to communicate with other applications over a LAN.
       14       14            ..::IX "socket library"
       15       15
       16       16            A socket is an endpoint for communication.  On CP-6 systems, a socket
       17       17            consists of a DCB and some context.  The Host Socket Library provides
       18       18            facilities to create and name sockets, to initiate outgoing
       19       19            connections and await incoming connections, to send and receive
       20       20            data, to check for the presence of incoming data or exceptional
       21       21            conditions, and to terminate connections.
       22       22            ..::IX "socket, definition of"
       23       23
       24       24            Other facilities of
       25       25            the library include getting and setting socket options, obtaining
       26       26            information about the sockets at each end of a connection,
       27       27            converting data between network and CP-6 formats, converting
       28       28            addresses between network and character string formats, and
       29       29            obtaining information from configuration files that reside in the
       30       30            :SYS account.
       31       31            ..::L1 "Host Socket Library Services\SUMMARY\1"
       32       32            The services available in the library are listed in the following
       33       33            table.
       34       34            .FIF
       35       35
       36       36            CATEGORY                    SERVICE
PL6.E3A0      #001=XSL$SOCKET File=XSL$SOCKET1.:TCA2TSI                          SUN 11/16/97 14:29 Page:18
       37       37            .SPF
       38       38            Create and Name Sockets     socket() and XSL$SOCKET
       39       39            }                           bind() and XSL$BIND
       40       40            }
       41       41            Initiating Connections      listen() and XSL$LISTEN
       42       42            }                           accept() and XSL$ACCEPT
       43       43            }                           accept_srvr() and XSL$ACCEPT_SRVR
       44       44            }                           connect() and XSL$CONNECT
       45       45            }
       46       46            Transferring Data           send() and XSL$SEND
       47       47            }                           recv() and XSL$RECV
       48       48            }                           sendto() and XSL$SENDTO
       49       49            }                           recvfrom() and XSL$RECVFROM
       50       50            }                           sendmsg() and XSL$SENDMSG
       51       51            }                           recvmsg() and XSL$RECVMSG
       52       52            }                           write() and XSL$WRITE
       53       53            }                           read() and XSL$READ
       54       54            }                           writev() and XSL$WRITEV
       55       55            }                           readv() and XSL$READV
       56       56            }
       57       57            I/O Multiplexing            select() and XSL$SELECT
       58       58            }
       59       59            Terminating Connections     shutdown() and XSL$SHUTDOWN
       60       60            }                           close() and XSL$CLOSE
       61       61            }
       62       62            Host, Socket, User Info     gethostname() and XSL$GETHOSTNAME
       63       63            }                           getpeername() and XSL$GETPEERNAME
       64       64            }                           getsockname() and XSL$GETSOCKNAME
       65       65            }                           getsockopt() and XSL$GETSOCKOPT
       66       66            }                           setsockopt() and XSL$SETSOCKOPT
       67       67            }                           fcntl() and XSL$FCNTL
       68       68            }                           ioctl() and XSL$IOCTL
       69       69            }                           XSL$SOCKINIT
       70       70                                            XSL$CHAM
       71       71            }
       72       72            Data Conversion             htonl() and XSL$HTONL
       73       73            }                           htons() and XSL$HTONS
PL6.E3A0      #001=XSL$SOCKET File=XSL$SOCKET1.:TCA2TSI                          SUN 11/16/97 14:29 Page:19
       74       74            }                           ntohl() and XSL$NTOHL
       75       75            }                           ntohs() and XSL$NTOHS
       76       76            }
       77       77            Data Manipulation           bcmp()
       78       78            }                           bcopy()
       79       79            }                           bzero()
       80       80            }
       81       81            Internet Address Usage      inet_addr() and XSL$INET_ADDR
       82       82            }                           inet_lnaof() and XSL$INET_LNAOF
       83       83            }                           inet_makeaddr() and XSL$INET_MAKEADDR
       84       84            }                           inet_netof() and XSL$INET_NETOF
       85       85            }                           inet_network() and XSL$INET_NETWORK
       86       86            }                           inet_ntoa() and XSL$INET_NTOA
       87       87            }
       88       88            "hosts" File Usage          gethostbyaddr() and XSL$GETHOSTBYADDR
       89       89            }                           gethostbyname() and XSL$GETHOSTBYNAME
       90       90            }                           gethostent() and XSL$GETHOSTENT
       91       91            }                           sethostent() and XSL$SETHOSTENT
       92       92            }                           endhostent() and XSL$ENDHOSTENT
       93       93            }
       94       94            "networks" File Usage       getnetbyaddr() and XSL$GETNETBYADDR
       95       95            }                           getnetbyname() and XSL$GETNETBYNAME
       96       96            }                           getnetent() and XSL$GETNETENT
       97       97            }                           setnetent() and XSL$SETNETENT
       98       98            }                           endnetent() and XSL$ENDNETENT
       99       99            }
      100      100            "protocols" File Usage      getprotobyname() and XSL$GETPROTOBYNAME
      101      101            }                           getprotobynumber() and XSL$GETPROTOBYNUMBER
      102      102            }                           getprotoent() and XSL$GETPROTOENT
      103      103            }                           setprotoent() and XSL$SETPROTOENT
      104      104            }                           endprotoent() and XSL$ENDPROTOENT
      105      105            }
      106      106            "services" File Usage       getservbyname() and XSL$GETSERVBYNAME
      107      107            }                           getservbyport() and XSL$GETSERVBYPORT
      108      108            }                           getservent() and XSL$GETSERVENT
      109      109            }                           setservent() and XSL$SETSERVENT
      110      110            }                           endservent() and XSL$ENDSERVENT
PL6.E3A0      #001=XSL$SOCKET File=XSL$SOCKET1.:TCA2TSI                          SUN 11/16/97 14:29 Page:20
      111      111            }
      112      112            .FIN
      113      113        */
      114      114        /*F*    NAME:   Linking Information
      115      115            The CP-6 Socket Library exists as an unshared LEMUR library in
      116      116            the file :ETC_SOCKET.:SYS.  The library contains both C and
      117      117            PL6 interfaces.  Routines from the library are included in an
      118      118            application by linking the application with the option
      119      119            UNSAT=:ETC_SOCKET.:SYS.
      120      120        */
      121      121        /*F*    NAME:   DCB Usage
      122      122            The CP-6 Socket Library dynamically allocates and releases socket
      123      123            DCBs as needed, without application intervention.  The DCBs used
      124      124            by the library are named F$XSLnn, where nn is an internal table
      125      125            index.  One DCB is required for each socket in use or awaiting
      126      126            an incoming connection.
      127      127
      128      128            There is also one permanent DCB used for accessing the file
      129      129            etc:routes.:SYS and, if necessary, four permanent DCBs for
      130      130            accessing the files etc:hosts, etc:networks, etc:protocols, and
      131      131            etc:services, all in .:SYS.
      132      132
      133      133            Application DCBs are neither used nor modified.
      134      134        */
      135      135        /*F*    NAME:   Include Files
      136      136            All of the include files necessary to make use of the Host Socket
      137      137            Library are located in the :LIBRARY account.  The include files
      138      138            are listed below.
      139      139            .SPB
      140      140            XSL_PERR_C
      141      141            .SPB
      142      142            .INL +8
      143      143            PL6 include file containing EQUs for error conditions.
      144      144            .INL -8
      145      145            .SPB
      146      146            XSL_SOCKET_E
      147      147            .SPB
PL6.E3A0      #001=XSL$SOCKET File=XSL$SOCKET1.:TCA2TSI                          SUN 11/16/97 14:29 Page:21
      148      148            .INL +8
      149      149            PL6 include file containing EQUs for general usage of the socket
      150      150            library.  PL6 equivalents of the various C defines in the xsl_?
      151      151            include files are found here.
      152      152            .INL -8
      153      153            .SPB
      154      154            XSL_SOCKET_M
      155      155            .SPB
      156      156            .INL +8
      157      157            PL6 include file containing MACROs for general usage of the socket
      158      158            library.  PL6 equivalents of the various C structures in the xsl_?
      159      159            include files are found here.
      160      160            .INL -8
      161      161            .SPB
      162      162        .BBK
      163      163            xsl_errno:h
      164      164            .SPB
      165      165            .INL +8
      166      166            C include file containing defines for error conditions.
      167      167            .INL -8
      168      168        .BEK
      169      169            .SPB
      170      170            xsl_in:h
      171      171            .SPB
      172      172            .INL +8
      173      173            C include file containing defines for Internet addressing.
      174      174            .INL -8
      175      175            .SPB
      176      176            xsl_netdb:h
      177      177            .SPB
      178      178            .INL +8
      179      179            C include file containing defines for the hosts, networks,
      180      180            protocols, and services file manipulation functions.
      181      181            .INL -8
      182      182            .SPB
      183      183            xsl_select:h
      184      184            .SPB
PL6.E3A0      #001=XSL$SOCKET File=XSL$SOCKET1.:TCA2TSI                          SUN 11/16/97 14:29 Page:22
      185      185            .INL +8
      186      186            C include file containing defines for the select() function.
      187      187            .INL -8
      188      188            .SPB
      189      189            xsl_socket:h
      190      190            .SPB
      191      191            .INL +8
      192      192            C include file containing defines for general usage of the socket library.
      193      193            .INL -8
      194      194        */
      195      195        /*F* NAME:  Internet Address Representation
      196      196            The term "Internet address" is used throughout the discussion of
      197      197            Host Socket Library services.  On 32-bit systems, an Internet
      198      198            address consists of four consecutive bytes of 8 bits each.  On
      199      199            CP-6 systems, an Internet address consists of four consecutive
      200      200            bytes ignoring the high-order bit of each byte.  An Internet
      201      201            address is commonly represented in text as a "character string in
      202      202            dot notation", i.e., each of four bytes as a decimal number,
      203      203            separated by dots.  For example, 128.35.0.0 and 192.9.200.2 are
      204      204            Internet addresses.
      205      205
      206      206            An Internet address consists of two parts, sometimes called
      207      207            "netid" and "hostid".  The netid identifies the network; the
      208      208            hostid identifies the host on that network.  The netid field can
      209      209            be 1, 2, or 3 bytes long in a Class A, B, or C address,
      210      210            respectively, leaving 3, 2 or 1 bytes for the hostid.  The lengths
      211      211            of the netid and the hostid are determined by inspecting the
      212      212            high-order bits of the Internet address.
      213      213
      214      214            The CP-6 Internet addresses shown below illustrate the settings of
      215      215            the high-order bits for addresses with a 1, 2, or 3 byte netid.
      216      216            For each bit position shown, the letter n denotes a netid bit, the
      217      217            letter h denotes a hostid bit, and the character ? denotes an unused
      218      218            (don't care) bit.
      219      219            .fif
      220      220
      221      221            .brn 7
PL6.E3A0      #001=XSL$SOCKET File=XSL$SOCKET1.:TCA2TSI                          SUN 11/16/97 14:29 Page:23
      222      222            Class A address:
      223      223            #-+-+-+-+-+-+-+-+-#-+-+-+-+-+-+-+-+-#-+-+-+-+-+-+-+-+-#-+-+-+-+-+-+-+-+-#
      224      224            |? 0 n n n n n n n ? h h h h h h h h ? h h h h h h h h ? h h h h h h h h|
      225      225            #-+-+-+-+-+-+-+-+-#-+-+-+-+-+-+-+-+-#-+-+-+-+-+-+-+-+-#-+-+-+-+-+-+-+-+-#
      226      226            .fin
      227      227            .spf
      228      228            Internet addresses 0.0.0.0 through 127.255.255.255
      229      229            allow 126 networks with up to 16777214 hosts each.
      230      230
      231      231
      232      232            .fif
      233      233            .brn 7
      234      234            Class B address:
      235      235            #-+-+-+-+-+-+-+-+-#-+-+-+-+-+-+-+-+-#-+-+-+-+-+-+-+-+-#-+-+-+-+-+-+-+-+-#
      236      236            |? 1 0 n n n n n n ? n n n n n n n n ? h h h h h h h h ? h h h h h h h h|
      237      237            #-+-+-+-+-+-+-+-+-#-+-+-+-+-+-+-+-+-#-+-+-+-+-+-+-+-+-#-+-+-+-+-+-+-+-+-#
      238      238            .fin
      239      239            .spf
      240      240            Internet addresses 128.0.0.0 through 191.255.255.255
      241      241            allow 16382 networks with up to 65534 hosts each.
      242      242
      243      243
      244      244            .fif
      245      245            .brn 7
      246      246            Class C address:
      247      247            #-+-+-+-+-+-+-+-+-#-+-+-+-+-+-+-+-+-#-+-+-+-+-+-+-+-+-#-+-+-+-+-+-+-+-+-#
      248      248            |? 1 1 0 n n n n n ? n n n n n n n n ? n n n n n n n n ? h h h h h h h h|
      249      249            #-+-+-+-+-+-+-+-+-#-+-+-+-+-+-+-+-+-#-+-+-+-+-+-+-+-+-#-+-+-+-+-+-+-+-+-#
      250      250            .fin
      251      251            .spf
      252      252            Internet addresses 192.0.0.0 through 223.255.255.255
      253      253            allow 2097150 networks with up to 254 hosts each.
      254      254
      255      255
      256      256            In practice, Class A and Class B networks are commonly divided up
      257      257            into subnets, using a "subnet mask" which is ANDed with the
      258      258            Internet address to specify which bits define the netid.
PL6.E3A0      #001=XSL$SOCKET File=XSL$SOCKET1.:TCA2TSI                          SUN 11/16/97 14:29 Page:24
      259      259
      260      260            Note:  A netid or hostid value of all binary zeros or all binary
      261      261            ones is not permitted.  (All binary zeros is reserved to mean the
      262      262            local network or the local host; all binary ones is reserved to
      263      263            mean broadcast to all networks or broadcast to all hosts.)
      264      264        */
      265      265
      266      266        /*F* NAME: socket() and XSL$SOCKET  --  Create Socket
      267      267        ..::IT "Purpose:"
      268      268        .INL +4
      269      269        Creates a new socket, to allow communication with another socket
      270      270        elsewhere in a network.
      271      271        ..::IT "C Usage:"
      272      272        .INL 4
      273      273        .FIF
      274      274        s = socket( af, type, protocol );
      275      275        ..::IT "PL6 Usage:"
      276      276        .INL 4
      277      277        .FIF
      278      278        CALL XSL$SOCKET( s, af, type, protocol );
      279      279        ..::IT "Parameters:"
      280      280        .INL 4
      281      281        .FIF
      282      282        af          integer address format
      283      283
      284      284        type        integer socket type
      285      285
      286      286        protocol    integer protocol number
      287      287        ..::IT "Result:"
      288      288        .INL 4
      289      289        .FIF
      290      290        s           integer socket descriptor or error code
      291      291        ..::IT "Description:"
      292      292        The socket() function creates an endpoint for communication, and returns
      293      293        a descriptor used by other socket library functions for this communication.
      294      294        .SPB
      295      295        The af parameter specifies the address format to use when processing
PL6.E3A0      #001=XSL$SOCKET File=XSL$SOCKET1.:TCA2TSI                          SUN 11/16/97 14:29 Page:25
      296      296        network addresses in later operations on this socket.  Equates for the
      297      297        possible values can be found in <xsl_socket.h> or XSL_SOCKET_E.  Only the
      298      298        "Internet" address format is currently supported; it is selected
      299      299        by coding AF_INET or %XSL_AF_INET in C or PL6 source, respectively.
      300      300        The complete list of possible address formats is shown below.
      301      301        .trf ]%
      302      302        ..::TB "^\C #define\#8\PL6 ]EQU\#10\Meaning\#"
      303      303        .trf ]]
      304      304        .xeq XSL_SOCKET_E AF_E XSL_AF_APPLETALK
      305      305        .xeq XSL_SOCKET_E AF_E XSL_AF_CCITT
      306      306        .xeq XSL_SOCKET_E AF_E XSL_AF_CHAOS
      307      307        .xeq XSL_SOCKET_E AF_E XSL_AF_DATAKIT
      308      308        .xeq XSL_SOCKET_E AF_E XSL_AF_DECNET
      309      309        .xeq XSL_SOCKET_E AF_E XSL_AF_DLI
      310      310        .xeq XSL_SOCKET_E AF_E XSL_AF_ECMA
      311      311        .xeq XSL_SOCKET_E AF_E XSL_AF_HYLINK
      312      312        .xeq XSL_SOCKET_E AF_E XSL_AF_IMPLINK
      313      313        .xeq XSL_SOCKET_E AF_E XSL_AF_INET
      314      314        .xeq XSL_SOCKET_E AF_E XSL_AF_LAT
      315      315        .xeq XSL_SOCKET_E AF_E XSL_AF_NBS
      316      316        .xeq XSL_SOCKET_E AF_E XSL_AF_NS
      317      317        .xeq XSL_SOCKET_E AF_E XSL_AF_PUP
      318      318        .xeq XSL_SOCKET_E AF_E XSL_AF_SNA
      319      319        .xeq XSL_SOCKET_E AF_E XSL_AF_UNIX
      320      320        ..::TB
      321      321        .SPB
      322      322        The type parameter specifies how communication is to be performed for
      323      323        this socket.  Equates for the possible values can be found in <xsl_socket.h>
      324      324        or XSL_SOCKET_E.  Only "stream", "datagram", and "raw" socket types are
      325      325        currently supported.  Stream type is selected by coding SOCK_STREAM or
      326      326        %XSL_SOCK_STREAM in C or PL6 source, respectively.  Datagram type is
      327      327        selected by coding SOCK_DGRAM or %XSL_SOCK_DGRAM in C or PL6 source,
      328      328        respectively.  Raw type is selected by coding SOCK_RAW or %XSL_SOCK_RAW
      329      329        in C or PL6 source, respectively.
      330      330        The complete list of possible types is shown in the table below.
      331      331        .trf ]%
      332      332        ..::TB "^\C #define\#8\PL6 ]EQU\#15\Meaning\#"
PL6.E3A0      #001=XSL$SOCKET File=XSL$SOCKET1.:TCA2TSI                          SUN 11/16/97 14:29 Page:26
      333      333        .trf ]]
      334      334        .xeq XSL_SOCKET_E SOCK_E SOCK_DGRAM
      335      335        .xeq XSL_SOCKET_E SOCK_E SOCK_RAW
      336      336        .xeq XSL_SOCKET_E SOCK_E SOCK_RDM
      337      337        .xeq XSL_SOCKET_E SOCK_E SOCK_SEQPACKET
      338      338        .xeq XSL_SOCKET_E SOCK_E SOCK_STREAM
      339      339        ..::TB
      340      340        .SPB
      341      341        The protocol parameter specifies which protocol family to use for
      342      342        communication on this socket.  There are potentially many protocol
      343      343        families available for each address format selected.  Equates for the
      344      344        possible values can be found in <xsl_socket.h> or XSL_SOCKET_E.  Only
      345      345        "Internet" protocol is currently supported; it is selected by coding
      346      346        PF_INET or %XSL_PF_INET in C or PL6 source, respectively.  The value 0 is
      347      347        also permitted; it specifies use of the default protocol for the selected
      348      348        address format.
      349      349        The complete list of possible protocol families is shown below.
      350      350        .trf ]%
      351      351        ..::TB "^\C #define\#8\PL6 ]EQU\#10\Meaning\#"
      352      352        .trf ]]
      353      353        .xeq XSL_SOCKET_E PF_E XSL_PF_APPLETALK
      354      354        .xeq XSL_SOCKET_E PF_E XSL_PF_CCITT
      355      355        .xeq XSL_SOCKET_E PF_E XSL_PF_CHAOS
      356      356        .xeq XSL_SOCKET_E PF_E XSL_PF_DATAKIT
      357      357        .xeq XSL_SOCKET_E PF_E XSL_PF_DECNET
      358      358        .xeq XSL_SOCKET_E PF_E XSL_PF_DLI
      359      359        .xeq XSL_SOCKET_E PF_E XSL_PF_ECMA
      360      360        .xeq XSL_SOCKET_E PF_E XSL_PF_HYLINK
      361      361        .xeq XSL_SOCKET_E PF_E XSL_PF_IMPLINK
      362      362        .xeq XSL_SOCKET_E PF_E XSL_PF_INET
      363      363        .xeq XSL_SOCKET_E PF_E XSL_PF_LAT
      364      364        .xeq XSL_SOCKET_E PF_E XSL_PF_NBS
      365      365        .xeq XSL_SOCKET_E PF_E XSL_PF_NS
      366      366        .xeq XSL_SOCKET_E PF_E XSL_PF_PUP
      367      367        .xeq XSL_SOCKET_E PF_E XSL_PF_SNA
      368      368        .xeq XSL_SOCKET_E PF_E XSL_PF_UNIX
      369      369        ..::TB
PL6.E3A0      #001=XSL$SOCKET File=XSL$SOCKET1.:TCA2TSI                          SUN 11/16/97 14:29 Page:27
      370      370        .SPB
      371      371        If the socket() function is successful, the s result contains the
      372      372        descriptor for a new socket with the selected attributes.  The descriptor
      373      373        is a small non-negative integer, equivalent to the DCBNUM of the DCB
      374      374        allocated for this socket.
      375      375        .SPB
      376      376        If the socket() function is unsuccessful, the s result contains
      377      377        EFAILURE or E$FAILURE and the application must inspect errno or XSL_ERRNO
      378      378        to determine the specific error condition.  The XSL$SOCKET procedure
      379      379        additionally ALTRETURNs if it is unsuccessful; it is otherwise identical
      380      380        to the socket() function.
      381      381        ..::IT "Errors:"
      382      382        Following are the possible error conditions reported when the socket()
      383      383        function is unsuccessful.  Equates for the possible values can be found in
      384      384        <xsl_errno.h> or XSL_PERR_C for C and PL6 source, respectively.
      385      385
      386      386        .FIF
      387      387
      388      388        C #define               PL6 %EQU
      389      389        ----------------------- -----------------------
      390      390        EAFNOSUPPORT            E$AFNOSUPPORT
      391      391        .FIN
      392      392        The selected address format is not currently supported.
      393      393        .FIF
      394      394
      395      395        EMFILE                  E$MFILE
      396      396        .FIN
      397      397        M$GETDCB failed.  Unable to allocate DCB for this socket.
      398      398        .FIF
      399      399
      400      400        ENOBUFFS                E$NOBUFFS
      401      401        No buffer space is available.
      402      402        .FIN
      403      403        .FIF
      404      404
      405      405        EPROTONOSUPPORT         E$PROTONOSUPPORT
      406      406        .FIN
PL6.E3A0      #001=XSL$SOCKET File=XSL$SOCKET1.:TCA2TSI                          SUN 11/16/97 14:29 Page:28
      407      407        The selected protocol family is not currently supported.
      408      408        .FIF
      409      409
      410      410        ESOCKTNOSUPPORT         E$SOCKTNOSUPPORT
      411      411        .FIN
      412      412        The selected socket type is not currently supported.
      413      413        .FIF
      414      414        */
      415      415        XSL$SOCKET: PROC( RESULT, AF, TYPE, PROTOCOL) ALTRET;

    415  1 000000   000000 700200 xent  XSL$SOCKET   TSX0  ! X66_AUTO_4
         1 000001   000014 000004                    ZERO    12,4

      416      416        %INCLUDE XSL_SOCKET_E;
      417      674        %INCLUDE XSL_SOCKET_M;
      418     1435        %INCLUDE XSL_PERR_C;
      419     1490        %INCLUDE XSL_INTERNAL_M;
      420     1741            %XSL$SOCKINFO( FPTN=SOCK, STCLASS="BASED( SOCK$)");
      421     1885
      422     1886    1       DCL XSL$GETSOCK ENTRY(2) ALTRET;
      423     1887    1       DCL XSL$RELSOCK ENTRY(1) ALTRET;
      424     1888    1       DCL XSL$CL_READ ENTRY(3) ALTRET;
      425     1889    1       DCL XSL$CL_WRITE ENTRY(4) ALTRET;
      426     1890    1       DCL XSL$SOCKOPEN ENTRY(3) ALTRET;
      427     1891
      428     1892    1       DCL XSL_ERRNO SBIN SYMREF;
      429     1893    1       DCL XSL_SOCK$ REDEF XSL_ERRNO PTR;
      430     1894    1       DCL XSL_SN CHAR(6) SYMREF;
      431     1895
      432     1896    1       DCL AF SBIN;
      433     1897    1       DCL PROTOCOL SBIN;
      434     1898    1       DCL QUICK BIT(1) UNAL;
      435     1899    1       DCL RESULT SBIN;
      436     1900    1       DCL SOCK# SBIN;
      437     1901    1       DCL SOCK$ PTR;
      438     1902    1       DCL TYPE SBIN;
      439     1903
PL6.E3A0      #001=XSL$SOCKET File=XSL$SOCKET1.:TCA2TSI                          SUN 11/16/97 14:29 Page:29
      440     1904    1       QUICK = '0'B;

   1904  1 000002   200007 450100                    STZ     QUICK,,AUTO

      441     1905    1       GOTO COMMON;

   1905  1 000003   000010 710000 1                  TRA     COMMON

      442     1906
      443     1907    1   XSL$QSOCKET: ENTRY( RESULT, AF, TYPE, PROTOCOL) ALTRET;

   1907  1 000004   000000 700200 xent  XSL$QSOCKET  TSX0  ! X66_AUTO_4
         1 000005   000014 000004                    ZERO    12,4

      444     1908
      445     1909    1       QUICK = '1'B;

   1909  1 000006   400000 236003                    LDQ     -131072,DU
         1 000007   200007 756100                    STQ     QUICK,,AUTO

      446     1910    1   COMMON:
      447     1911    2       IF AF ~= %XSL_AF_INET THEN DO;

   1911  1 000010   200004 470500       COMMON       LDP0    @AF,,AUTO
         1 000011   000000 235100                    LDA     0,,PR0
         1 000012   000002 115007                    CMPA    2,DL
         1 000013   000033 600000 1                  TZE     s:1919

      448     1912    2           XSL_ERRNO = %E$AFNOSUPPORT;

   1912  1 000014   000152 236007                    LDQ     106,DL
         1 000015   000000 756000 xsym               STQ     XSL_ERRNO

      449     1913    2   BAILOUT:
      450     1914    2           RESULT = %E$FAILURE;

   1914  1 000016   000001 335007       BAILOUT      LCA     1,DL
PL6.E3A0      #001=XSL$SOCKET File=XSL$SOCKET1.:TCA2TSI                          SUN 11/16/97 14:29 Page:30
         1 000017   200003 470500                    LDP0    @RESULT,,AUTO
         1 000020   000000 755100                    STA     0,,PR0

      451     1915    2           IF XSL_ERRNO = %E$FAILURE THEN

   1915  1 000021   000000 236000 xsym               LDQ     XSL_ERRNO
         1 000022   000027 116000 xsym               CMPQ    B_VECTNIL+23
         1 000023   000032 601000 1                  TNZ     s:1917

      452     1916    2               CALL XSL$RELSOCK( SOCK#);

   1916  1 000024   200010 631500                    EPPR1   SOCK#,,AUTO
         1 000025   200012 451500                    STP1    SOCK$+1,,AUTO
         1 000026   200012 630500                    EPPR0   SOCK$+1,,AUTO
         1 000027   000017 631400 xsym               EPPR1   B_VECTNIL+15
         1 000030   000000 701000 xent               TSX1    XSL$RELSOCK
         1 000031   000000 011000                    NOP     0

      453     1917    2           ALTRETURN;

   1917  1 000032   000000 702200 xent               TSX2  ! X66_AALT

      454     1918    2           END;
      455     1919    2       IF TYPE < %XSL_SOCK_STREAM OR TYPE > %XSL_SOCK_RAW THEN DO;

   1919  1 000033   200005 471500                    LDP1    @TYPE,,AUTO
         1 000034   100000 235100                    LDA     0,,PR1
         1 000035   000040 604400 1                  TMOZ    s:1920
         1 000036   000003 115007                    CMPA    3,DL
         1 000037   000043 604400 1                  TMOZ    s:1921

      456     1920    2           XSL_ERRNO = %E$SOCKTNOSUPPORT; GOTO BAILOUT; END;

   1920  1 000040   000147 236007                    LDQ     103,DL
         1 000041   000000 756000 xsym               STQ     XSL_ERRNO

   1920  1 000042   000016 710000 1                  TRA     BAILOUT
PL6.E3A0      #001=XSL$SOCKET File=XSL$SOCKET1.:TCA2TSI                          SUN 11/16/97 14:29 Page:31

      457     1921    2       IF PROTOCOL ~= %XSL_PF_UNSPEC AND PROTOCOL ~= AF THEN DO;

   1921  1 000043   200006 473500                    LDP3    @PROTOCOL,,AUTO
         1 000044   300000 235100                    LDA     0,,PR3
         1 000045   000054 600000 1                  TZE     s:1923
         1 000046   300000 236100                    LDQ     0,,PR3
         1 000047   000000 116100                    CMPQ    0,,PR0
         1 000050   000054 600000 1                  TZE     s:1923

      458     1922    2           XSL_ERRNO = %E$PROTONOSUPPORT; GOTO BAILOUT; END;

   1922  1 000051   000146 235007                    LDA     102,DL
         1 000052   000000 755000 xsym               STA     XSL_ERRNO

   1922  1 000053   000016 710000 1                  TRA     BAILOUT

      459     1923    1       CALL XSL$GETSOCK( SOCK#, XSL_SOCK$) ALTRET (BAILOUT);

   1923  1 000054   000000 236000 2                  LDQ     0
         1 000055   200013 756100                    STQ     SOCK$+2,,AUTO
         1 000056   200010 634500                    EPPR4   SOCK#,,AUTO
         1 000057   200012 454500                    STP4    SOCK$+1,,AUTO
         1 000060   200012 630500                    EPPR0   SOCK$+1,,AUTO
         1 000061   000020 631400 xsym               EPPR1   B_VECTNIL+16
         1 000062   000000 701000 xent               TSX1    XSL$GETSOCK
         1 000063   000016 702000 1                  TSX2    BAILOUT

      460     1924    1       SOCK$ = XSL_SOCK$;

   1924  1 000064   000000 236000 xsym               LDQ     XSL_ERRNO
         1 000065   200011 756100                    STQ     SOCK$,,AUTO

      461     1925    1       SOCK.AF = AF;

   1925  1 000066   200011 470500                    LDP0    SOCK$,,AUTO
         1 000067   200004 471500                    LDP1    @AF,,AUTO
PL6.E3A0      #001=XSL$SOCKET File=XSL$SOCKET1.:TCA2TSI                          SUN 11/16/97 14:29 Page:32
         1 000070   100000 236100                    LDQ     0,,PR1
         1 000071   000033 736000                    QLS     27
         1 000072   000000 552140                    STBQ    0,'40'O,PR0

      462     1926    1       SOCK.TYPE = TYPE;

   1926  1 000073   200005 473500                    LDP3    @TYPE,,AUTO
         1 000074   300000 236100                    LDQ     0,,PR3
         1 000075   000022 736000                    QLS     18
         1 000076   000000 552120                    STBQ    0,'20'O,PR0

      463     1927    1       SOCK.PROTOCOL = PROTOCOL;

   1927  1 000077   200006 474500                    LDP4    @PROTOCOL,,AUTO
         1 000100   400000 236100                    LDQ     0,,PR4
         1 000101   000011 736000                    QLS     9
         1 000102   000000 552110                    STBQ    0,'10'O,PR0

      464     1928    1       SOCK.FLAGS.BLOCKING = '1'B;

   1928  1 000103   001000 236003                    LDQ     512,DU
         1 000104   000001 256100                    ORSQ    1,,PR0

      465     1929    1       IF XSL_SN = '      ' THEN

   1929  1 000105   040000 106400                    CMPC    fill='040'O
         1 000106   000000 000006 xsym               ADSC9   XSL_SN                   cn=0,n=6
         1 000107   000000 000006 0                  ADSC9   0                        cn=0,n=6
         1 000110   000115 601000 1                  TNZ     s:1932

      466     1930                /* site doesn't have default RNAME, so we can socket() now */
      467     1931    1           CALL XSL$SOCKOPEN( SOCK) ALTRET( BAILOUT);

   1931  1 000111   200011 630500                    EPPR0   SOCK$,,AUTO
         1 000112   000017 631400 xsym               EPPR1   B_VECTNIL+15
         1 000113   000000 701000 xent               TSX1    XSL$SOCKOPEN
         1 000114   000016 702000 1                  TSX2    BAILOUT
PL6.E3A0      #001=XSL$SOCKET File=XSL$SOCKET1.:TCA2TSI                          SUN 11/16/97 14:29 Page:33

      468     1932    1       IF TYPE ~= %XSL_SOCK_STREAM THEN

   1932  1 000115   200005 470500                    LDP0    @TYPE,,AUTO
         1 000116   000000 235100                    LDA     0,,PR0
         1 000117   000001 115007                    CMPA    1,DL
         1 000120   000124 600000 1                  TZE     s:1934

      469     1933    1           SOCK.FLAGS.SELWRITE = '1'B;

   1933  1 000121   200011 471500                    LDP1    SOCK$,,AUTO
         1 000122   000020 236003                    LDQ     16,DU
         1 000123   100001 256100                    ORSQ    1,,PR1

      470     1934    1       IF QUICK THEN

   1934  1 000124   200007 234100                    SZN     QUICK,,AUTO
         1 000125   000132 605000 1                  TPL     s:1937

      471     1935    1           RESULT = SOCK#;

   1935  1 000126   200003 471500                    LDP1    @RESULT,,AUTO
         1 000127   200010 235100                    LDA     SOCK#,,AUTO
         1 000130   100000 755100                    STA     0,,PR1
         1 000131   000137 710000 1                  TRA     s:1938

      472     1936    1       ELSE
      473     1937    1           RESULT = SOCK.DCB#;

   1937  1 000132   200011 471500                    LDP1    SOCK$,,AUTO
         1 000133   100003 236100                    LDQ     3,,PR1
         1 000134   777777 376007                    ANQ     -1,DL
         1 000135   200003 473500                    LDP3    @RESULT,,AUTO
         1 000136   300000 756100                    STQ     0,,PR3

      474     1938    1       RETURN;

PL6.E3A0      #001=XSL$SOCKET File=XSL$SOCKET1.:TCA2TSI                          SUN 11/16/97 14:29 Page:34
   1938  1 000137   000000 702200 xent               TSX2  ! X66_ARET

(unnamed)
 Sect OctLoc
   0     000   040040 040040   040040 040040

(unnamed)
 Sect OctLoc
   2     000   000000 006000                                                    ....
      475     1939
      476     1940    1   END XSL$SOCKET;
      477     1941        %EOD;

PL6.E3A0      #001=XSL$SOCKET File=XSL$SOCKET1.:TCA2TSI                          SUN 11/16/97 14:29 Page:35
--  Include file information  --

   XSL_INTERNAL_M.:TCA2TOU  is referenced.
   XSL_PERR_C.:TCA2TOU  is referenced.
   XSL_SOCKET_M.:TCA2TOU  is referenced.
   XSL_SOCKET_E.:TCA2TOU  is referenced.
   B$JIT_C.:E05TOU  was found in the system file and is never referenced.
   CP_6_C.:E05TOU  was found in the system file and is never referenced.
      No diagnostics issued in procedure XSL$SOCKET.
PL6.E3A0      #001=XSL$SOCKET File=XSL$SOCKET1.:TCA2TSI                          SUN 11/16/97 14:29 Page:36

 **** Variables and constants ****

  ****  Auto variables  ****

  ****  Scalars and arrays  ****
OctLoc.c.b A Datatyp(siz) R M Lvl/name                 OctLoc.c.b A Datatyp(siz) R M Lvl/name

     4-0-0/w PTR         r     1 @AF                        6-0-0/w PTR         r     1 @PROTOCOL
     3-0-0/w PTR         r     1 @RESULT                    5-0-0/w PTR         r     1 @TYPE
    *0-0-0/w SBIN        r     1 AF                        *0-0-0/w SBIN        r     1 PROTOCOL
     7-0-0/b BIT         r     1 QUICK                     *0-0-0/w SBIN        r     1 RESULT
    10-0-0/w SBIN        r     1 SOCK#                     11-0-0/w PTR         r     1 SOCK$
    *0-0-0/w SBIN        r     1 TYPE

  ****  SYMREF variables  ****

  ****  Scalars and arrays  ****
OctLoc.c.b A Datatyp(siz) R M Lvl/name                 OctLoc.c.b A Datatyp(siz) R M Lvl/name

     0-0-0/w SBIN        r     1 XSL_ERRNO                  0-0-0/c CHAR(6)     r     1 XSL_SN
     0-0-0/w PTR         r     1 XSL_SOCK$

  ****  BASED and DCB variables  ****

  ****  Scalars and arrays  ****
OctLoc.c.b A Datatyp(siz) R M Lvl/name                 OctLoc.c.b A Datatyp(siz) R M Lvl/name

     0-0-0/w STRC(720)   r     1 SOCK


   Procedure XSL$SOCKET requires 96 words for executable code.
   Procedure XSL$SOCKET requires 12 words of local(AUTO) storage.
PL6.E3A0      #001=XSL$SOCKET File=XSL$SOCKET1.:TCA2TSI                          SUN 11/16/97 14:29 Page:37
          *** CROSS REFERENCE LISTING ***
**     DENOTES     IDENTIFIER DEFINITION
<<                 IDENTIFIER'S VALUE SET
>>                 IDENTIFIER'S VALUE USED
<>                 IDENTIFIER SET AND/OR USED
--                 IDENTIFIER REFERENCED
PL6.E3A0      #001=XSL$SOCKET File=XSL$SOCKET1.:TCA2TSI                          SUN 11/16/97 14:29 Page:38
          MINI XREF LISTING

AF
      1896**DCL       415--PROC     1907--ENTRY    1911>>IF       1921>>IF       1925>>ASSIGN
BAILOUT
      1914**LABEL    1920--GOTO     1922--GOTO     1923--CALLALT  1931--CALLALT
COMMON
      1911**LABEL    1905--GOTO
PROTOCOL
      1897**DCL       415--PROC     1907--ENTRY    1921>>IF       1921>>IF       1927>>ASSIGN
QUICK
      1898**DCL      1904<<ASSIGN   1909<<ASSIGN   1934>>IF
RESULT
      1899**DCL       415--PROC     1907--ENTRY    1914<<ASSIGN   1935<<ASSIGN   1937<<ASSIGN
SOCK
      1759**DCL      1931<>CALL
SOCK.AF
      1765**DCL      1925<<ASSIGN
SOCK.DCB#
      1792**DCL      1937>>ASSIGN
SOCK.FLAGS.BLOCKING
      1778**DCL      1928<<ASSIGN
SOCK.FLAGS.SELWRITE
      1783**DCL      1933<<ASSIGN
SOCK.NBACCEPT_SOCK$
      1881**DCL      1882--REDEF
SOCK.PROTOCOL
      1767**DCL      1927<<ASSIGN
SOCK.TYPE
      1766**DCL      1926<<ASSIGN
SOCK#
      1900**DCL      1916<>CALL     1923<>CALL     1935>>ASSIGN
SOCK$
      1901**DCL      1759--IMP-PTR  1924<<ASSIGN   1925>>ASSIGN   1926>>ASSIGN   1927>>ASSIGN   1928>>ASSIGN
PL6.E3A0      #001=XSL$SOCKET File=XSL$SOCKET1.:TCA2TSI                          SUN 11/16/97 14:29 Page:39
      1931>>CALL     1933>>ASSIGN   1937>>ASSIGN
TYPE
      1902**DCL       415--PROC     1907--ENTRY    1919>>IF       1919>>IF       1926>>ASSIGN   1932>>IF
XSL$GETSOCK
      1886**DCL-ENT  1923--CALL
XSL$RELSOCK
      1887**DCL-ENT  1916--CALL
XSL$SOCKOPEN
      1890**DCL-ENT  1931--CALL
XSL_ERRNO
      1892**DCL      1893--REDEF    1912<<ASSIGN   1915>>IF       1920<<ASSIGN   1922<<ASSIGN
XSL_SN
      1894**DCL      1929>>IF
XSL_SOCK$
      1893**DCL      1923<>CALL     1924>>ASSIGN
PL6.E3A0      #001=XSL$SOCKET File=XSL$SOCKET1.:TCA2TSI                          SUN 11/16/97 14:29 Page:40
              *** CROSS REFERENCE LISTING ***
    **     DENOTES     IDENTIFIER DEFINITION
    <<                 IDENTIFIER'S VALUE SET
    >>                 IDENTIFIER'S VALUE USED
    <>                 IDENTIFIER SET AND/OR USED
    --                 IDENTIFIER REFERENCED
PL6.E3A0      #001=XSL$SOCKET File=XSL$SOCKET1.:TCA2TSI                          SUN 11/16/97 14:29 Page:41
              MINI UREF LISTING

XSL$CL_READ    1888**DCL-ENT
XSL$CL_WRITE    1889**DCL-ENT
XSL$QSOCKET    1907**ENTRY
XSL$SOCKET     415**PROC

PL6.E3A0      #002=XSL$SOCKOPEN File=XSL$SOCKET1.:TCA2TSI                        SUN 11/16/97 14:30 Page:42
      478        1        /*T***********************************************************/
      479        2        /*T*                                                         */
      480        3        /*T* Copyright (c) Bull HN Information Systems Inc., 1997    */
      481        4        /*T*                                                         */
      482        5        /*T***********************************************************/
      483        6        XSL$SOCKOPEN: PROC( SOCK, NAME, NAMELEN) ALTRET;
      484        7        %INCLUDE XSL_SOCKET_E;
      485      265        %INCLUDE XSL_SOCKET_M;
      486     1026            %XSL$SOCKADDR( FPTN=NAME, STCLASS=);
      487     1066        %INCLUDE XSL_PERR_C;
      488     1121        %INCLUDE XSL_INTERNAL_M;
      489     1372            %XSL$SOCKINFO( FPTN=SOCK, STCLASS=);
      490     1516        %INCLUDE XSL_SOCKMSGS_E;
      491     1562        %INCLUDE XSL_SOCKMSGS_M;
      492     2695            %XSL$SOCKETRQS( FPTN=XSL_SOCKETRQS, STCLASS="CONSTANT SYMDEF");
      493     2723            %XSL$SOCKETRQS( STCLASS="BASED( XSL_KEYBUF$)");
      494     2751            %XSL$SOCKETRSP( STCLASS="BASED( XSL_KEYBUF$)");
      495     2778
      496     2779    1       DCL XSL$CL_OPEN ENTRY(3) ALTRET;
      497     2780    1       DCL XSL$CL_READ ENTRY(3) ALTRET;
      498     2781    1       DCL XSL$CL_WRITE ENTRY(4) ALTRET;
      499     2782
      500     2783    1       DCL XSL_ERRNO SBIN SYMREF;
      501     2784    1       DCL XSL_KEYBUF$ PTR SYMREF READONLY;
      502     2785
      503     2786    1       DCL NAMELEN SBIN;
      504     2787
      505     2788    1       CALL XSL$CL_OPEN( SOCK, NAME, NAMELEN)
      506     2789    2       WHENALTRETURN DO;
      507     2790    2           XSL_ERRNO = %E$FAILURE;
      508     2791    2   BAILOUT:
      509     2792    2           ALTRETURN;
      510     2793    2           END;
      511     2794    1       XSL$SOCKETRQS = XSL_SOCKETRQS;
      512     2795    1       XSL$SOCKETRQS.AF = SOCK.AF;
      513     2796    1       XSL$SOCKETRQS.TYPE = SOCK.TYPE;
      514     2797    1       XSL$SOCKETRQS.PROTOCOL = SOCK.PROTOCOL;
PL6.E3A0      #002=XSL$SOCKOPEN File=XSL$SOCKET1.:TCA2TSI                        SUN 11/16/97 14:30 Page:43
      515     2798    1       CALL XSL$CL_WRITE( SOCK, LENGTHC( XSL$SOCKETRQS));
      516     2799    1       CALL XSL$CL_READ( SOCK);
      517     2800    2       IF XSL$SOCKETRSP.RESULT < 0 THEN DO;
      518     2801    2           XSL_ERRNO = XSL$SOCKETRSP.ERRNO;
      519     2802    2           GOTO BAILOUT;
      520     2803    2           END;
      521     2804    1       SOCK.FLAGS.SOCKET = '1'B;
      522     2805    1       RETURN;
      523     2806
      524     2807    1   END XSL$SOCKOPEN;
      525     2808        %EOD;

PL6.E3A0      #002=XSL$SOCKOPEN File=XSL$SOCKET1.:TCA2TSI                        SUN 11/16/97 14:30 Page:44
--  Include file information  --

   XSL_SOCKMSGS_M.:TCA2TOU  is referenced.
   XSL_SOCKMSGS_E.:TCA2TOU  is referenced.
   XSL_INTERNAL_M.:TCA2TOU  is referenced.
   XSL_PERR_C.:TCA2TOU  is referenced.
   XSL_SOCKET_M.:TCA2TOU  is referenced.
   XSL_SOCKET_E.:TCA2TOU  is referenced.
   B$JIT_C.:E05TOU  was found in the system file and is never referenced.
   CP_6_C.:E05TOU  was found in the system file and is never referenced.
      No diagnostics issued in procedure XSL$SOCKOPEN.

   Procedure XSL$SOCKOPEN requires 49 words for executable code.
   Procedure XSL$SOCKOPEN requires 8 words of local(AUTO) storage.

PL6.E3A0      #002=XSL$SOCKOPEN File=XSL$SOCKET1.:TCA2TSI                        SUN 11/16/97 14:30 Page:45

 Object Unit name= XSL$SOCKOPEN                               File name= XSL$SOCKET1.:TCA2TOU
 UTS= NOV 16 '97 14:30:34.00 SUN                              Compiler= PL-6/E31         Sev=      00
 SharedLib= :SHARED_SYSTEM                                    Alt SharedLib=


    ****  Control sections  ****

 Sect   Type Bound  Init  Size OctSiz  Section name(segment info)
    0  RoData even  UTS      2      2  XSL$SOCKOPEN
    1   Proc  even  none    49     61  XSL$SOCKOPEN
    2  RoData even  none     1      1  XSL$SOCKOPEN

    ****  Entry defs  ****

                              Check   Calling
                             calling  sequence
  Sect OctLoc Primary Altret sequence   type   Parms  Name
     1      0   yes    yes     yes      Std        3  XSL$SOCKOPEN

  ****  Data defs  ****

 Sect OctLoc  Name                           Sect OctLoc  Name
    0      0  XSL_SOCKETRQS

  ****  Entry refs  ****

         Check        Calling
        calling       sequence
Altret sequence SRef   type   Args  Name
 yes     yes           Std       3 XSL$CL_OPEN
 yes     yes           Std       4 XSL$CL_WRITE
 yes     yes           Std       3 XSL$CL_READ
                       nStd      0 X66_AUTO_3
                       Std       0 B_CONSPOOL_D
                       nStd      0 X66_AALT
                       nStd      0 X66_ARET
PL6.E3A0      #002=XSL$SOCKOPEN File=XSL$SOCKET1.:TCA2TSI                        SUN 11/16/97 14:30 Page:46

  ****  Data refs  ****

  Flags:  r = read only, s = secondary
Flgs Name                             Flgs Name                             Flgs Name
     XSL_ERRNO                        r    XSL_KEYBUF$                           B_VECTNIL

  ****  Segment refs  ****

  Flags:  r = read only, s = secondary
Flgs Name                             Flgs Name                             Flgs Name
     ISSID
PL6.E3A0      #002=XSL$SOCKOPEN File=XSL$SOCKET1.:TCA2TSI                        SUN 11/16/97 14:30 Page:47


      478        1        /*T***********************************************************/
      479        2        /*T*                                                         */
      480        3        /*T* Copyright (c) Bull HN Information Systems Inc., 1997    */
      481        4        /*T*                                                         */
      482        5        /*T***********************************************************/
      483        6        XSL$SOCKOPEN: PROC( SOCK, NAME, NAMELEN) ALTRET;

      6  1 000000   000000 700200 xent  XSL$SOCKOPEN TSX0  ! X66_AUTO_3
         1 000001   000010 000003                    ZERO    8,3

      484        7        %INCLUDE XSL_SOCKET_E;
      485      265        %INCLUDE XSL_SOCKET_M;
      486     1026            %XSL$SOCKADDR( FPTN=NAME, STCLASS=);
      487     1066        %INCLUDE XSL_PERR_C;
      488     1121        %INCLUDE XSL_INTERNAL_M;
      489     1372            %XSL$SOCKINFO( FPTN=SOCK, STCLASS=);
      490     1516        %INCLUDE XSL_SOCKMSGS_E;
      491     1562        %INCLUDE XSL_SOCKMSGS_M;
      492     2695            %XSL$SOCKETRQS( FPTN=XSL_SOCKETRQS, STCLASS="CONSTANT SYMDEF");
      493     2723            %XSL$SOCKETRQS( STCLASS="BASED( XSL_KEYBUF$)");
      494     2751            %XSL$SOCKETRSP( STCLASS="BASED( XSL_KEYBUF$)");
      495     2778
      496     2779    1       DCL XSL$CL_OPEN ENTRY(3) ALTRET;
      497     2780    1       DCL XSL$CL_READ ENTRY(3) ALTRET;
      498     2781    1       DCL XSL$CL_WRITE ENTRY(4) ALTRET;
      499     2782
      500     2783    1       DCL XSL_ERRNO SBIN SYMREF;
      501     2784    1       DCL XSL_KEYBUF$ PTR SYMREF READONLY;
      502     2785
      503     2786    1       DCL NAMELEN SBIN;
      504     2787
      505     2788    1       CALL XSL$CL_OPEN( SOCK, NAME, NAMELEN)

   2788  1 000002   200003 630500                    EPPR0   @SOCK,,AUTO
         1 000003   000021 631400 xsym               EPPR1   B_VECTNIL+17
         1 000004   000000 701000 xent               TSX1    XSL$CL_OPEN
PL6.E3A0      #002=XSL$SOCKOPEN File=XSL$SOCKET1.:TCA2TSI                        SUN 11/16/97 14:30 Page:48
         1 000005   000007 702000 1                  TSX2    s:2790
         1 000006   000012 710000 1                  TRA     s:2794

      506     2789    2       WHENALTRETURN DO;

      507     2790    2           XSL_ERRNO = %E$FAILURE;

   2790  1 000007   000001 335007                    LCA     1,DL
         1 000010   000000 755000 xsym               STA     XSL_ERRNO

      508     2791    2   BAILOUT:
      509     2792    2           ALTRETURN;

   2792  1 000011   000000 702200 xent  BAILOUT      TSX2  ! X66_AALT

      510     2793    2           END;
      511     2794    1       XSL$SOCKETRQS = XSL_SOCKETRQS;

   2794  1 000012   000000 470400 xsym               LDP0    XSL_KEYBUF$
         1 000013   000000 237000 0                  LDAQ    XSL_SOCKETRQS
         1 000014   000000 755100                    STA     0,,PR0
         1 000015   000001 756100                    STQ     1,,PR0

      512     2795    1       XSL$SOCKETRQS.AF = SOCK.AF;

   2795  1 000016   200003 471500                    LDP1    @SOCK,,AUTO
         1 000017   100000 236100                    LDQ     0,,PR1
         1 000020   000033 772000                    QRL     27
         1 000021   000000 620006                    EAX0    0,QL
         1 000022   000000 440100                    SXL0    0,,PR0

      513     2796    1       XSL$SOCKETRQS.TYPE = SOCK.TYPE;

   2796  1 000023   100000 221100                    LDX1    0,,PR1
         1 000024   000777 361003                    ANX1    511,DU
         1 000025   000001 741100                    STX1    1,,PR0

PL6.E3A0      #002=XSL$SOCKOPEN File=XSL$SOCKET1.:TCA2TSI                        SUN 11/16/97 14:30 Page:49
      514     2797    1       XSL$SOCKETRQS.PROTOCOL = SOCK.PROTOCOL;

   2797  1 000026   100000 236100                    LDQ     0,,PR1
         1 000027   000011 772000                    QRL     9
         1 000030   000777 376007                    ANQ     511,DL
         1 000031   000000 622006                    EAX2    0,QL
         1 000032   000001 442100                    SXL2    1,,PR0

      515     2798    1       CALL XSL$CL_WRITE( SOCK, LENGTHC( XSL$SOCKETRQS));

   2798  1 000033   000000 236000 2                  LDQ     0
         1 000034   200003 235100                    LDA     @SOCK,,AUTO
         1 000035   200006 757100                    STAQ    @NAMELEN+1,,AUTO
         1 000036   200006 630500                    EPPR0   @NAMELEN+1,,AUTO
         1 000037   000020 631400 xsym               EPPR1   B_VECTNIL+16
         1 000040   000000 701000 xent               TSX1    XSL$CL_WRITE
         1 000041   000000 011000                    NOP     0

      516     2799    1       CALL XSL$CL_READ( SOCK);

   2799  1 000042   200003 630500                    EPPR0   @SOCK,,AUTO
         1 000043   000017 631400 xsym               EPPR1   B_VECTNIL+15
         1 000044   000000 701000 xent               TSX1    XSL$CL_READ
         1 000045   000000 011000                    NOP     0

      517     2800    2       IF XSL$SOCKETRSP.RESULT < 0 THEN DO;

   2800  1 000046   000000 470400 xsym               LDP0    XSL_KEYBUF$
         1 000047   000000 720100                    LXL0    0,,PR0
         1 000050   000055 605000 1                  TPL     s:2804

      518     2801    2           XSL_ERRNO = XSL$SOCKETRSP.ERRNO;

   2801  1 000051   000001 236100                    LDQ     1,,PR0
         1 000052   000022 732000                    QRS     18
         1 000053   000000 756000 xsym               STQ     XSL_ERRNO

PL6.E3A0      #002=XSL$SOCKOPEN File=XSL$SOCKET1.:TCA2TSI                        SUN 11/16/97 14:30 Page:50
      519     2802    2           GOTO BAILOUT;

   2802  1 000054   000011 710000 1                  TRA     BAILOUT

      520     2803    2           END;
      521     2804    1       SOCK.FLAGS.SOCKET = '1'B;

   2804  1 000055   200003 471500                    LDP1    @SOCK,,AUTO
         1 000056   002000 236003                    LDQ     1024,DU
         1 000057   100001 256100                    ORSQ    1,,PR1

      522     2805    1       RETURN;

   2805  1 000060   000000 702200 xent               TSX2  ! X66_ARET

XSL_SOCKETRQS
 Sect OctLoc
   0     000   000033 000000   000000 000000                                    ........

(unnamed)
 Sect OctLoc
   2     000   000012 006000                                                    ....
      523     2806
      524     2807    1   END XSL$SOCKOPEN;
      525     2808        %EOD;

PL6.E3A0      #002=XSL$SOCKOPEN File=XSL$SOCKET1.:TCA2TSI                        SUN 11/16/97 14:30 Page:51
--  Include file information  --

   XSL_SOCKMSGS_M.:TCA2TOU  is referenced.
   XSL_SOCKMSGS_E.:TCA2TOU  is referenced.
   XSL_INTERNAL_M.:TCA2TOU  is referenced.
   XSL_PERR_C.:TCA2TOU  is referenced.
   XSL_SOCKET_M.:TCA2TOU  is referenced.
   XSL_SOCKET_E.:TCA2TOU  is referenced.
   B$JIT_C.:E05TOU  was found in the system file and is never referenced.
   CP_6_C.:E05TOU  was found in the system file and is never referenced.
      No diagnostics issued in procedure XSL$SOCKOPEN.
PL6.E3A0      #002=XSL$SOCKOPEN File=XSL$SOCKET1.:TCA2TSI                        SUN 11/16/97 14:30 Page:52

 **** Variables and constants ****

  ****  Section 000 RoData XSL$SOCKOPEN

  ****  Scalars and arrays  ****
OctLoc.c.b A Datatyp(siz) R M Lvl/name                 OctLoc.c.b A Datatyp(siz) R M Lvl/name

     0-0-0/w STRC(72)    r     1 XSL_SOCKETRQS

  ****  Auto variables  ****

  ****  Scalars and arrays  ****
OctLoc.c.b A Datatyp(siz) R M Lvl/name                 OctLoc.c.b A Datatyp(siz) R M Lvl/name

     4-0-0/w PTR         r     1 @NAME                      5-0-0/w PTR         r     1 @NAMELEN
     3-0-0/w PTR         r     1 @SOCK                     *0-0-0/w STRC(180)   r     1 NAME
    *0-0-0/w SBIN        r     1 NAMELEN                   *0-0-0/w STRC(720)   r     1 SOCK

  ****  SYMREF variables  ****

  ****  Scalars and arrays  ****
OctLoc.c.b A Datatyp(siz) R M Lvl/name                 OctLoc.c.b A Datatyp(siz) R M Lvl/name

     0-0-0/w SBIN        r     1 XSL_ERRNO                  0-0-0/w PTR         r     1 XSL_KEYBUF$

  ****  BASED and DCB variables  ****

  ****  Scalars and arrays  ****
OctLoc.c.b A Datatyp(siz) R M Lvl/name                 OctLoc.c.b A Datatyp(siz) R M Lvl/name

     0-0-0/w STRC(72)    r     1 XSL$SOCKETRQS              0-0-0/w STRC(54)    r     1 XSL$SOCKETRSP


   Procedure XSL$SOCKOPEN requires 49 words for executable code.
   Procedure XSL$SOCKOPEN requires 8 words of local(AUTO) storage.
PL6.E3A0      #002=XSL$SOCKOPEN File=XSL$SOCKET1.:TCA2TSI                        SUN 11/16/97 14:30 Page:53
          *** CROSS REFERENCE LISTING ***
**     DENOTES     IDENTIFIER DEFINITION
<<                 IDENTIFIER'S VALUE SET
>>                 IDENTIFIER'S VALUE USED
<>                 IDENTIFIER SET AND/OR USED
--                 IDENTIFIER REFERENCED
PL6.E3A0      #002=XSL$SOCKOPEN File=XSL$SOCKET1.:TCA2TSI                        SUN 11/16/97 14:30 Page:54
          MINI XREF LISTING

BAILOUT
      2792**LABEL    2802--GOTO
NAME
      1043**DCL         6--PROC     2788<>CALL
NAMELEN
      2786**DCL         6--PROC     2788<>CALL
SOCK
      1390**DCL         6--PROC     2788<>CALL     2798<>CALL     2799<>CALL
SOCK.AF
      1396**DCL      2795>>ASSIGN
SOCK.FLAGS.SOCKET
      1408**DCL      2804<<ASSIGN
SOCK.NBACCEPT_SOCK$
      1512**DCL      1513--REDEF
SOCK.PROTOCOL
      1398**DCL      2797>>ASSIGN
SOCK.TYPE
      1397**DCL      2796>>ASSIGN
XSL$CL_OPEN
      2779**DCL-ENT  2788--CALL
XSL$CL_READ
      2780**DCL-ENT  2799--CALL
XSL$CL_WRITE
      2781**DCL-ENT  2798--CALL
XSL$SOCKETRQS
      2740**DCL      2794<<ASSIGN   2798--CALL
XSL$SOCKETRQS.AF
      2747**DCL      2795<<ASSIGN
XSL$SOCKETRQS.PROTOCOL
      2749**DCL      2797<<ASSIGN
XSL$SOCKETRQS.TYPE
      2748**DCL      2796<<ASSIGN
PL6.E3A0      #002=XSL$SOCKOPEN File=XSL$SOCKET1.:TCA2TSI                        SUN 11/16/97 14:30 Page:55
XSL$SOCKETRSP.ERRNO
      2776**DCL      2801>>ASSIGN
XSL$SOCKETRSP.RESULT
      2775**DCL      2800>>IF
XSL_ERRNO
      2783**DCL      2790<<ASSIGN   2801<<ASSIGN
XSL_KEYBUF$
      2784**DCL      2740--IMP-PTR  2768--IMP-PTR  2794>>ASSIGN   2795>>ASSIGN   2796>>ASSIGN   2797>>ASSIGN
      2800>>IF       2801>>ASSIGN
XSL_SOCKETRQS
      2712**DCL      2794>>ASSIGN
PL6.E3A0      #002=XSL$SOCKOPEN File=XSL$SOCKET1.:TCA2TSI                        SUN 11/16/97 14:30 Page:56
              *** CROSS REFERENCE LISTING ***
    **     DENOTES     IDENTIFIER DEFINITION
    <<                 IDENTIFIER'S VALUE SET
    >>                 IDENTIFIER'S VALUE USED
    <>                 IDENTIFIER SET AND/OR USED
    --                 IDENTIFIER REFERENCED
PL6.E3A0      #002=XSL$SOCKOPEN File=XSL$SOCKET1.:TCA2TSI                        SUN 11/16/97 14:30 Page:57
              MINI UREF LISTING

XSL$SOCKOPEN       6**PROC

PL6.E3A0      #003=XSL$BIND File=XSL$SOCKET1.:TCA2TSI                            SUN 11/16/97 14:30 Page:58
      526        1        /*T***********************************************************/
      527        2        /*T*                                                         */
      528        3        /*T* Copyright (c) Bull HN Information Systems Inc., 1997    */
      529        4        /*T*                                                         */
      530        5        /*T***********************************************************/
      531        6        /*F* NAME: bind() and XSL$BIND  --  Bind Name to Socket
      532        7        ..::IT "Purpose:"
      533        8        .INL +4
      534        9        Binds an address to a socket, so the socket can be addressed by other sockets
      535       10        elsewhere in the network.
      536       11        ..::IT "C Usage:"
      537       12        .INL 4
      538       13        .FIF
      539       14        status = bind( s, &name, namelen );
      540       15        ..::IT "PL6 Usage:"
      541       16        .INL 4
      542       17        .FIF
      543       18        CALL XSL$BIND( status, s, name, namelen );
      544       19        ..::IT "Parameters:"
      545       20        .INL 4
      546       21        .FIF
      547       22        s           integer socket descriptor
      548       23
      549       24        name        sockaddr structure
      550       25
      551       26        namelen     integer number of significant characters in name
      552       27        ..::IT "Result:"
      553       28        .INL 4
      554       29        .FIF
      555       30        status      integer error code
      556       31        ..::IT "Description:"
      557       32        The bind() function assigns an address to an existing socket.  When a
      558       33        socket is allocated with the socket() function, it has no associated
      559       34        address.  In order for other sockets in the network to identify the new
      560       35        socket, it must have an address bound to it.
      561       36        .SPB
      562       37        The s parameter specifies the descriptor of the socket to be bound.
PL6.E3A0      #003=XSL$BIND File=XSL$SOCKET1.:TCA2TSI                            SUN 11/16/97 14:30 Page:59
      563       38        .SPB
      564       39        The name parameter specifies the address to bind to the socket.  In C
      565       40        source, it is a sockaddr structure.  In PL6 source, it is an XSL$SOCKADDR
      566       41        structure.
      567       42        .SPB
      568       43        The namelen parameter specifies the number of significant characters in
      569       44        name.
      570       45        .SPB
      571       46        If the bind() function is successful, the status result contains ESUCCESS
      572       47        or E$SUCCESS.
      573       48        .SPB
      574       49        If the bind() function is unsuccessful, the status result contains
      575       50        EFAILURE or E$FAILURE and the application must inspect errno or XSL_ERRNO
      576       51        to determine the specific error condition.  The XSL$BIND procedure
      577       52        additionally ALTRETURNs if it is unsuccessful; it is otherwise identical
      578       53        to the bind() function.
      579       54        ..::IT "Errors:"
      580       55        Following are the possible error conditions reported when the bind()
      581       56        function is unsuccessful.  Equates for the possible values can be found in
      582       57        <xsl_errno.h> or XSL_PERR_C for C and PL6 source, respectively.
      583       58
      584       59        .FIF
      585       60
      586       61        C #define               PL6 %EQU
      587       62        ----------------------- -----------------------
      588       63        EACCES                  E$ACCES
      589       64        Permission is denied to perform the function requested.
      590       65        .FIN
      591       66        .FIF
      592       67
      593       68        EADDRINUSE              E$ADDRINUSE
      594       69        .FIN
      595       70        The specified address is already in use.
      596       71        .FIF
      597       72
      598       73        EADDRNOTAVAIL           E$ADDRNOTAVAIL
      599       74        .FIN
PL6.E3A0      #003=XSL$BIND File=XSL$SOCKET1.:TCA2TSI                            SUN 11/16/97 14:30 Page:60
      600       75        The specified address is not available.
      601       76        .FIF
      602       77
      603       78        EBADF                   E$BADF
      604       79        .FIN
      605       80        The descriptor s is not appropriate to identify a socket.
      606       81        .FIF
      607       82
      608       83        EFAULT                  E$FAULT
      609       84        .FIN
      610       85        The namelen parameter is invalid (less than or equal to zero).
      611       86        .FIF
      612       87
      613       88        EINVAL                  E$INVAL
      614       89        .FIN
      615       90        Either connect() or bind() has already been issued on this socket.
      616       91        .FIF
      617       92
      618       93        ENOTSOCK                E$NOTSOCK
      619       94        .FIN
      620       95        The descriptor s is no longer valid to identify a socket.
      621       96        .FIF
      622       97        */
      623       98        XSL$BIND: PROC( RESULT, SOCK#, NAME, NAMELEN) ALTRET;
      624       99        %INCLUDE XSL_SOCKET_E;
      625      357        %INCLUDE XSL_SOCKET_M;
      626     1118            %XSL$SOCKADDR( FPTN=NAME, STCLASS=);
      627     1158        %INCLUDE XSL_PERR_C;
      628     1213        %INCLUDE XSL_INTERNAL_M;
      629     1464            %XSL$SOCKINFO( FPTN=SOCK, STCLASS="BASED( SOCK$)");
      630     1608        %INCLUDE XSL_SOCKMSGS_E;
      631     1654        %INCLUDE XSL_SOCKMSGS_M;
      632     2787            %XSL$BINDRQS( FPTN=XSL_BINDRQS, STCLASS="CONSTANT SYMDEF");
      633     2839            %XSL$BINDRQS( STCLASS="BASED( XSL_KEYBUF$)");
      634     2891            %XSL$BINDRSP( STCLASS="BASED( XSL_KEYBUF$)");
      635     2918
      636     2919    1       DCL XSL$CL_READ ENTRY(3) ALTRET;
PL6.E3A0      #003=XSL$BIND File=XSL$SOCKET1.:TCA2TSI                            SUN 11/16/97 14:30 Page:61
      637     2920    1       DCL XSL$CL_WRITE ENTRY(4) ALTRET;
      638     2921    1       DCL XSL$HTONADDR ENTRY(2);
      639     2922    1       DCL XSL$SOCKPTR ENTRY(2) ALTRET;
      640     2923    1       DCL XSL$DCBNPTR ENTRY(2) ALTRET;
      641     2924    1       DCL XSL$QSETSOCKOPT ENTRY(6) ALTRET;
      642     2925    1       DCL XSL$SOCKOPEN ENTRY(3) ALTRET;
      643     2926
      644     2927    1       DCL XSL_ERRNO SBIN SYMREF;
      645     2928    1       DCL XSL_SOCK$ REDEF XSL_ERRNO PTR;
      646     2929    1       DCL XSL_KEYBUF$ PTR SYMREF READONLY;
      647     2930
      648     2931    1       DCL NAMELEN SBIN;
      649     2932    1       DCL TNAMELEN SBIN;
      650     2933    1       DCL RESULT SBIN;
      651     2934    1       DCL SOCK# SBIN;
      652     2935    1       DCL SOCK$ PTR;
      653     2936    1       DCL TEMP SBIN;
      654     2937
      655     2938    1       CALL XSL$DCBNPTR( SOCK#, XSL_SOCK$) ALTRET( BAILOUT);
      656     2939    1       GOTO COMMON;
      657     2940
      658     2941    1   XSL$QBIND: ENTRY( RESULT, SOCK#, NAME, NAMELEN) ALTRET;
      659     2942
      660     2943    1       CALL XSL$SOCKPTR( SOCK#, XSL_SOCK$) ALTRET (BAILOUT);
      661     2944    1   COMMON:
      662     2945    1       TNAMELEN = NAMELEN;
      663     2946    1       IF TNAMELEN > 16 THEN
      664     2947    1           TNAMELEN = 16;
      665     2948    2       IF NAMELEN <= 0 THEN DO;
      666     2949    2           XSL_ERRNO = %E$FAULT;
      667     2950    2   BAILOUT:
      668     2951    2           RESULT = %E$FAILURE;
      669     2952    2           ALTRETURN;
      670     2953    2           END;
      671     2954    1       SOCK$ = XSL_SOCK$;
      672     2955    2       IF SOCK.FLAGS.CONNECT OR SOCK.FLAGS.BIND THEN DO;
      673     2956    2           XSL_ERRNO = %E$INVAL; GOTO BAILOUT; END;
PL6.E3A0      #003=XSL$BIND File=XSL$SOCKET1.:TCA2TSI                            SUN 11/16/97 14:30 Page:62
      674     2957    1       IF NOT SOCK.FLAGS.SOCKET THEN
      675     2958    1           CALL XSL$SOCKOPEN( SOCK, NAME, TNAMELEN) ALTRET( BAILOUT);
      676     2959    2       IF SOCK.FLAGS.REUSEADDR THEN DO;
      677     2960    2           TEMP = SOCK.SOCK#;
      678     2961    2           CALL XSL$QSETSOCKOPT( RESULT, TEMP, %XSL_SOL_SOCKET, %XSL_SO_REUSEADDR,
              2961                    262144, 2);
      679     2962    2           END;
      680     2963    1       XSL$BINDRQS = XSL_BINDRQS;
      681     2964    1       XSL$BINDRQS.NAMELEN = TNAMELEN;
      682     2965    1       CALL XSL$HTONADDR( XSL$BINDRQS.NAME, NAME);
      683     2966    1       CALL XSL$CL_WRITE( SOCK, LENGTHC( XSL$BINDRQS)- 16+ TNAMELEN);
      684     2967    1       CALL XSL$CL_READ( SOCK);
      685     2968    2       IF XSL$BINDRSP.RESULT < 0 THEN DO;
      686     2969    2           XSL_ERRNO = XSL$BINDRSP.ERRNO;
      687     2970    2           GOTO BAILOUT;
      688     2971    2           END;
      689     2972    1       SOCK.SOCKNAME = NAME;
      690     2973    1       SOCK.FLAGS.BIND = '1'B;
      691     2974    1       SOCK.SOCKNAME = NAME;
      692     2975    1       RESULT = %E$SUCCESS;
      693     2976    1       RETURN;
      694     2977
      695     2978    1   END XSL$BIND;
      696     2979        %EOD;

PL6.E3A0      #003=XSL$BIND File=XSL$SOCKET1.:TCA2TSI                            SUN 11/16/97 14:30 Page:63
--  Include file information  --

   XSL_SOCKMSGS_M.:TCA2TOU  is referenced.
   XSL_SOCKMSGS_E.:TCA2TOU  is referenced.
   XSL_INTERNAL_M.:TCA2TOU  is referenced.
   XSL_PERR_C.:TCA2TOU  is referenced.
   XSL_SOCKET_M.:TCA2TOU  is referenced.
   XSL_SOCKET_E.:TCA2TOU  is referenced.
   B$JIT_C.:E05TOU  was found in the system file and is never referenced.
   CP_6_C.:E05TOU  was found in the system file and is never referenced.
      No diagnostics issued in procedure XSL$BIND.

   Procedure XSL$BIND requires 125 words for executable code.
   Procedure XSL$BIND requires 16 words of local(AUTO) storage.

PL6.E3A0      #003=XSL$BIND File=XSL$SOCKET1.:TCA2TSI                            SUN 11/16/97 14:30 Page:64

 Object Unit name= XSL$BIND                                   File name= XSL$SOCKET1.:TCA2TOU
 UTS= NOV 16 '97 14:30:56.60 SUN                              Compiler= PL-6/E31         Sev=      00
 SharedLib= :SHARED_SYSTEM                                    Alt SharedLib=


    ****  Control sections  ****

 Sect   Type Bound  Init  Size OctSiz  Section name(segment info)
    0  RoData even  UTS      5      5  XSL$BIND
    1   Proc  even  none   125    175  XSL$BIND
    2  RoData even  none     6      6  XSL$BIND

    ****  Entry defs  ****

                              Check   Calling
                             calling  sequence
  Sect OctLoc Primary Altret sequence   type   Parms  Name
     1      0   yes    yes     yes      Std        4  XSL$BIND
     1     12          yes     yes      Std        4  XSL$QBIND

  ****  Data defs  ****

 Sect OctLoc  Name                           Sect OctLoc  Name
    0      0  XSL_BINDRQS
PL6.E3A0      #003=XSL$BIND File=XSL$SOCKET1.:TCA2TSI                            SUN 11/16/97 14:30 Page:65

  ****  Entry refs  ****

         Check        Calling
        calling       sequence
Altret sequence SRef   type   Args  Name
 yes     yes           Std       2 XSL$DCBNPTR
 yes     yes           Std       2 XSL$SOCKPTR
 yes     yes           Std       3 XSL$SOCKOPEN
 yes     yes           Std       4 XSL$CL_WRITE
 yes     yes           Std       6 XSL$QSETSOCKOPT
 yes     yes           Std       3 XSL$CL_READ
         yes           Std       2 XSL$HTONADDR
                       nStd      0 X66_AUTO_4
                       Std       0 B_CONSPOOL_D
                       nStd      0 X66_AALT
                       nStd      0 X66_ARET

  ****  Data refs  ****

  Flags:  r = read only, s = secondary
Flgs Name                             Flgs Name                             Flgs Name
     XSL_ERRNO                        r    XSL_KEYBUF$                           B_VECTNIL

  ****  Segment refs  ****

  Flags:  r = read only, s = secondary
Flgs Name                             Flgs Name                             Flgs Name
     ISSID
PL6.E3A0      #003=XSL$BIND File=XSL$SOCKET1.:TCA2TSI                            SUN 11/16/97 14:30 Page:66


      526        1        /*T***********************************************************/
      527        2        /*T*                                                         */
      528        3        /*T* Copyright (c) Bull HN Information Systems Inc., 1997    */
      529        4        /*T*                                                         */
      530        5        /*T***********************************************************/
      531        6        /*F* NAME: bind() and XSL$BIND  --  Bind Name to Socket
      532        7        ..::IT "Purpose:"
      533        8        .INL +4
      534        9        Binds an address to a socket, so the socket can be addressed by other sockets
      535       10        elsewhere in the network.
      536       11        ..::IT "C Usage:"
      537       12        .INL 4
      538       13        .FIF
      539       14        status = bind( s, &name, namelen );
      540       15        ..::IT "PL6 Usage:"
      541       16        .INL 4
      542       17        .FIF
      543       18        CALL XSL$BIND( status, s, name, namelen );
      544       19        ..::IT "Parameters:"
      545       20        .INL 4
      546       21        .FIF
      547       22        s           integer socket descriptor
      548       23
      549       24        name        sockaddr structure
      550       25
      551       26        namelen     integer number of significant characters in name
      552       27        ..::IT "Result:"
      553       28        .INL 4
      554       29        .FIF
      555       30        status      integer error code
      556       31        ..::IT "Description:"
      557       32        The bind() function assigns an address to an existing socket.  When a
      558       33        socket is allocated with the socket() function, it has no associated
      559       34        address.  In order for other sockets in the network to identify the new
      560       35        socket, it must have an address bound to it.
      561       36        .SPB
PL6.E3A0      #003=XSL$BIND File=XSL$SOCKET1.:TCA2TSI                            SUN 11/16/97 14:30 Page:67
      562       37        The s parameter specifies the descriptor of the socket to be bound.
      563       38        .SPB
      564       39        The name parameter specifies the address to bind to the socket.  In C
      565       40        source, it is a sockaddr structure.  In PL6 source, it is an XSL$SOCKADDR
      566       41        structure.
      567       42        .SPB
      568       43        The namelen parameter specifies the number of significant characters in
      569       44        name.
      570       45        .SPB
      571       46        If the bind() function is successful, the status result contains ESUCCESS
      572       47        or E$SUCCESS.
      573       48        .SPB
      574       49        If the bind() function is unsuccessful, the status result contains
      575       50        EFAILURE or E$FAILURE and the application must inspect errno or XSL_ERRNO
      576       51        to determine the specific error condition.  The XSL$BIND procedure
      577       52        additionally ALTRETURNs if it is unsuccessful; it is otherwise identical
      578       53        to the bind() function.
      579       54        ..::IT "Errors:"
      580       55        Following are the possible error conditions reported when the bind()
      581       56        function is unsuccessful.  Equates for the possible values can be found in
      582       57        <xsl_errno.h> or XSL_PERR_C for C and PL6 source, respectively.
      583       58
      584       59        .FIF
      585       60
      586       61        C #define               PL6 %EQU
      587       62        ----------------------- -----------------------
      588       63        EACCES                  E$ACCES
      589       64        Permission is denied to perform the function requested.
      590       65        .FIN
      591       66        .FIF
      592       67
      593       68        EADDRINUSE              E$ADDRINUSE
      594       69        .FIN
      595       70        The specified address is already in use.
      596       71        .FIF
      597       72
      598       73        EADDRNOTAVAIL           E$ADDRNOTAVAIL
PL6.E3A0      #003=XSL$BIND File=XSL$SOCKET1.:TCA2TSI                            SUN 11/16/97 14:30 Page:68
      599       74        .FIN
      600       75        The specified address is not available.
      601       76        .FIF
      602       77
      603       78        EBADF                   E$BADF
      604       79        .FIN
      605       80        The descriptor s is not appropriate to identify a socket.
      606       81        .FIF
      607       82
      608       83        EFAULT                  E$FAULT
      609       84        .FIN
      610       85        The namelen parameter is invalid (less than or equal to zero).
      611       86        .FIF
      612       87
      613       88        EINVAL                  E$INVAL
      614       89        .FIN
      615       90        Either connect() or bind() has already been issued on this socket.
      616       91        .FIF
      617       92
      618       93        ENOTSOCK                E$NOTSOCK
      619       94        .FIN
      620       95        The descriptor s is no longer valid to identify a socket.
      621       96        .FIF
      622       97        */
      623       98        XSL$BIND: PROC( RESULT, SOCK#, NAME, NAMELEN) ALTRET;

     98  1 000000   000000 700200 xent  XSL$BIND     TSX0  ! X66_AUTO_4
         1 000001   000020 000004                    ZERO    16,4

      624       99        %INCLUDE XSL_SOCKET_E;
      625      357        %INCLUDE XSL_SOCKET_M;
      626     1118            %XSL$SOCKADDR( FPTN=NAME, STCLASS=);
      627     1158        %INCLUDE XSL_PERR_C;
      628     1213        %INCLUDE XSL_INTERNAL_M;
      629     1464            %XSL$SOCKINFO( FPTN=SOCK, STCLASS="BASED( SOCK$)");
      630     1608        %INCLUDE XSL_SOCKMSGS_E;
      631     1654        %INCLUDE XSL_SOCKMSGS_M;
PL6.E3A0      #003=XSL$BIND File=XSL$SOCKET1.:TCA2TSI                            SUN 11/16/97 14:30 Page:69
      632     2787            %XSL$BINDRQS( FPTN=XSL_BINDRQS, STCLASS="CONSTANT SYMDEF");
      633     2839            %XSL$BINDRQS( STCLASS="BASED( XSL_KEYBUF$)");
      634     2891            %XSL$BINDRSP( STCLASS="BASED( XSL_KEYBUF$)");
      635     2918
      636     2919    1       DCL XSL$CL_READ ENTRY(3) ALTRET;
      637     2920    1       DCL XSL$CL_WRITE ENTRY(4) ALTRET;
      638     2921    1       DCL XSL$HTONADDR ENTRY(2);
      639     2922    1       DCL XSL$SOCKPTR ENTRY(2) ALTRET;
      640     2923    1       DCL XSL$DCBNPTR ENTRY(2) ALTRET;
      641     2924    1       DCL XSL$QSETSOCKOPT ENTRY(6) ALTRET;
      642     2925    1       DCL XSL$SOCKOPEN ENTRY(3) ALTRET;
      643     2926
      644     2927    1       DCL XSL_ERRNO SBIN SYMREF;
      645     2928    1       DCL XSL_SOCK$ REDEF XSL_ERRNO PTR;
      646     2929    1       DCL XSL_KEYBUF$ PTR SYMREF READONLY;
      647     2930
      648     2931    1       DCL NAMELEN SBIN;
      649     2932    1       DCL TNAMELEN SBIN;
      650     2933    1       DCL RESULT SBIN;
      651     2934    1       DCL SOCK# SBIN;
      652     2935    1       DCL SOCK$ PTR;
      653     2936    1       DCL TEMP SBIN;
      654     2937
      655     2938    1       CALL XSL$DCBNPTR( SOCK#, XSL_SOCK$) ALTRET( BAILOUT);

   2938  1 000002   000000 236000 2                  LDQ     0
         1 000003   200004 235100                    LDA     @SOCK#,,AUTO
         1 000004   200012 757100                    STAQ    TEMP+1,,AUTO
         1 000005   200012 630500                    EPPR0   TEMP+1,,AUTO
         1 000006   000020 631400 xsym               EPPR1   B_VECTNIL+16
         1 000007   000000 701000 xent               TSX1    XSL$DCBNPTR
         1 000010   000036 702000 1                  TSX2    BAILOUT

      656     2939    1       GOTO COMMON;

   2939  1 000011   000023 710000 1                  TRA     COMMON

PL6.E3A0      #003=XSL$BIND File=XSL$SOCKET1.:TCA2TSI                            SUN 11/16/97 14:30 Page:70
      657     2940
      658     2941    1   XSL$QBIND: ENTRY( RESULT, SOCK#, NAME, NAMELEN) ALTRET;

   2941  1 000012   000000 700200 xent  XSL$QBIND    TSX0  ! X66_AUTO_4
         1 000013   000020 000004                    ZERO    16,4

      659     2942
      660     2943    1       CALL XSL$SOCKPTR( SOCK#, XSL_SOCK$) ALTRET (BAILOUT);

   2943  1 000014   000000 236000 2                  LDQ     0
         1 000015   200004 235100                    LDA     @SOCK#,,AUTO
         1 000016   200012 757100                    STAQ    TEMP+1,,AUTO
         1 000017   200012 630500                    EPPR0   TEMP+1,,AUTO
         1 000020   000020 631400 xsym               EPPR1   B_VECTNIL+16
         1 000021   000000 701000 xent               TSX1    XSL$SOCKPTR
         1 000022   000036 702000 1                  TSX2    BAILOUT

      661     2944    1   COMMON:
      662     2945    1       TNAMELEN = NAMELEN;

   2945  1 000023   200006 470500       COMMON       LDP0    @NAMELEN,,AUTO
         1 000024   000000 235100                    LDA     0,,PR0
         1 000025   200007 755100                    STA     TNAMELEN,,AUTO

      663     2946    1       IF TNAMELEN > 16 THEN

   2946  1 000026   000020 115007                    CMPA    16,DL
         1 000027   000032 604400 1                  TMOZ    s:2948

      664     2947    1           TNAMELEN = 16;

   2947  1 000030   000020 236007                    LDQ     16,DL
         1 000031   200007 756100                    STQ     TNAMELEN,,AUTO

      665     2948    2       IF NAMELEN <= 0 THEN DO;

   2948  1 000032   000000 235100                    LDA     0,,PR0
PL6.E3A0      #003=XSL$BIND File=XSL$SOCKET1.:TCA2TSI                            SUN 11/16/97 14:30 Page:71
         1 000033   000042 605400 1                  TPNZ    s:2954

      666     2949    2           XSL_ERRNO = %E$FAULT;

   2949  1 000034   000016 236007                    LDQ     14,DL
         1 000035   000000 756000 xsym               STQ     XSL_ERRNO

      667     2950    2   BAILOUT:
      668     2951    2           RESULT = %E$FAILURE;

   2951  1 000036   000001 335007       BAILOUT      LCA     1,DL
         1 000037   200003 470500                    LDP0    @RESULT,,AUTO
         1 000040   000000 755100                    STA     0,,PR0

      669     2952    2           ALTRETURN;

   2952  1 000041   000000 702200 xent               TSX2  ! X66_AALT

      670     2953    2           END;
      671     2954    1       SOCK$ = XSL_SOCK$;

   2954  1 000042   000000 236000 xsym               LDQ     XSL_ERRNO
         1 000043   200010 756100                    STQ     SOCK$,,AUTO

      672     2955    2       IF SOCK.FLAGS.CONNECT OR SOCK.FLAGS.BIND THEN DO;

   2955  1 000044   200010 471500                    LDP1    SOCK$,,AUTO
         1 000045   100001 236100                    LDQ     1,,PR1
         1 000046   040000 316003                    CANQ    16384,DU
         1 000047   000052 601000 1                  TNZ     s:2956
         1 000050   004000 316003                    CANQ    2048,DU
         1 000051   000055 600000 1                  TZE     s:2957

      673     2956    2           XSL_ERRNO = %E$INVAL; GOTO BAILOUT; END;

   2956  1 000052   000026 235007                    LDA     22,DL
         1 000053   000000 755000 xsym               STA     XSL_ERRNO
PL6.E3A0      #003=XSL$BIND File=XSL$SOCKET1.:TCA2TSI                            SUN 11/16/97 14:30 Page:72

   2956  1 000054   000036 710000 1                  TRA     BAILOUT

      674     2957    1       IF NOT SOCK.FLAGS.SOCKET THEN

   2957  1 000055   002000 316003                    CANQ    1024,DU
         1 000056   000070 601000 1                  TNZ     s:2959

      675     2958    1           CALL XSL$SOCKOPEN( SOCK, NAME, TNAMELEN) ALTRET( BAILOUT);

   2958  1 000057   200007 633500                    EPPR3   TNAMELEN,,AUTO
         1 000060   200014 453500                    STP3    TEMP+3,,AUTO
         1 000061   200005 236100                    LDQ     @NAME,,AUTO
         1 000062   200010 235100                    LDA     SOCK$,,AUTO
         1 000063   200012 757100                    STAQ    TEMP+1,,AUTO
         1 000064   200012 630500                    EPPR0   TEMP+1,,AUTO
         1 000065   000021 631400 xsym               EPPR1   B_VECTNIL+17
         1 000066   000000 701000 xent               TSX1    XSL$SOCKOPEN
         1 000067   000036 702000 1                  TSX2    BAILOUT

      676     2959    2       IF SOCK.FLAGS.REUSEADDR THEN DO;

   2959  1 000070   200010 470500                    LDP0    SOCK$,,AUTO
         1 000071   000001 236100                    LDQ     1,,PR0
         1 000072   000400 316003                    CANQ    256,DU
         1 000073   000113 600000 1                  TZE     s:2963

      677     2960    2           TEMP = SOCK.SOCK#;

   2960  1 000074   000000 236100                    LDQ     0,,PR0
         1 000075   000777 376007                    ANQ     511,DL
         1 000076   200011 756100                    STQ     TEMP,,AUTO

      678     2961    2           CALL XSL$QSETSOCKOPT( RESULT, TEMP, %XSL_SOL_SOCKET, %XSL_SO_REUSEADDR,
              2961                    262144, 2);

   2961  1 000077   000002 237000 2                  LDAQ    2
PL6.E3A0      #003=XSL$BIND File=XSL$SOCKET1.:TCA2TSI                            SUN 11/16/97 14:30 Page:73
         1 000100   200016 757100                    STAQ    TEMP+5,,AUTO
         1 000101   000004 237000 2                  LDAQ    4
         1 000102   200014 757100                    STAQ    TEMP+3,,AUTO
         1 000103   200011 631500                    EPPR1   TEMP,,AUTO
         1 000104   200013 451500                    STP1    TEMP+2,,AUTO
         1 000105   200003 236100                    LDQ     @RESULT,,AUTO
         1 000106   200012 756100                    STQ     TEMP+1,,AUTO
         1 000107   200012 630500                    EPPR0   TEMP+1,,AUTO
         1 000110   000024 631400 xsym               EPPR1   B_VECTNIL+20
         1 000111   000000 701000 xent               TSX1    XSL$QSETSOCKOPT
         1 000112   000000 011000                    NOP     0

      679     2962    2           END;

      680     2963    1       XSL$BINDRQS = XSL_BINDRQS;

   2963  1 000113   000000 470400 xsym               LDP0    XSL_KEYBUF$
         1 000114   000100 100400                    MLR     fill='000'O
         1 000115   000000 000024 0                  ADSC9   XSL_BINDRQS              cn=0,n=20
         1 000116   000000 000024                    ADSC9   0,,PR0                   cn=0,n=20

      681     2964    1       XSL$BINDRQS.NAMELEN = TNAMELEN;

   2964  1 000117   200007 720100                    LXL0    TNAMELEN,,AUTO
         1 000120   000000 440100                    SXL0    0,,PR0

      682     2965    1       CALL XSL$HTONADDR( XSL$BINDRQS.NAME, NAME);

   2965  1 000121   200005 236100                    LDQ     @NAME,,AUTO
         1 000122   200013 756100                    STQ     TEMP+2,,AUTO
         1 000123   000000 236000 xsym               LDQ     XSL_KEYBUF$
         1 000124   000001 036003                    ADLQ    1,DU
         1 000125   200012 756100                    STQ     TEMP+1,,AUTO
         1 000126   200012 630500                    EPPR0   TEMP+1,,AUTO
         1 000127   000020 631400 xsym               EPPR1   B_VECTNIL+16
         1 000130   000000 701000 xent               TSX1    XSL$HTONADDR
         1 000131   000000 011000                    NOP     0
PL6.E3A0      #003=XSL$BIND File=XSL$SOCKET1.:TCA2TSI                            SUN 11/16/97 14:30 Page:74

      683     2966    1       CALL XSL$CL_WRITE( SOCK, LENGTHC( XSL$BINDRQS)- 16+ TNAMELEN);

   2966  1 000132   200007 235100                    LDA     TNAMELEN,,AUTO
         1 000133   000004 035007                    ADLA    4,DL
         1 000134   200012 755100                    STA     TEMP+1,,AUTO
         1 000135   200012 630500                    EPPR0   TEMP+1,,AUTO
         1 000136   200015 450500                    STP0    TEMP+4,,AUTO
         1 000137   200010 236100                    LDQ     SOCK$,,AUTO
         1 000140   200014 756100                    STQ     TEMP+3,,AUTO
         1 000141   200014 630500                    EPPR0   TEMP+3,,AUTO
         1 000142   000020 631400 xsym               EPPR1   B_VECTNIL+16
         1 000143   000000 701000 xent               TSX1    XSL$CL_WRITE
         1 000144   000000 011000                    NOP     0

      684     2967    1       CALL XSL$CL_READ( SOCK);

   2967  1 000145   200010 630500                    EPPR0   SOCK$,,AUTO
         1 000146   000017 631400 xsym               EPPR1   B_VECTNIL+15
         1 000147   000000 701000 xent               TSX1    XSL$CL_READ
         1 000150   000000 011000                    NOP     0

      685     2968    2       IF XSL$BINDRSP.RESULT < 0 THEN DO;

   2968  1 000151   000000 470400 xsym               LDP0    XSL_KEYBUF$
         1 000152   000000 720100                    LXL0    0,,PR0
         1 000153   000160 605000 1                  TPL     s:2972

      686     2969    2           XSL_ERRNO = XSL$BINDRSP.ERRNO;

   2969  1 000154   000001 236100                    LDQ     1,,PR0
         1 000155   000022 732000                    QRS     18
         1 000156   000000 756000 xsym               STQ     XSL_ERRNO

      687     2970    2           GOTO BAILOUT;

   2970  1 000157   000036 710000 1                  TRA     BAILOUT
PL6.E3A0      #003=XSL$BIND File=XSL$SOCKET1.:TCA2TSI                            SUN 11/16/97 14:30 Page:75

      688     2971    2           END;
      689     2972    1       SOCK.SOCKNAME = NAME;

   2972  1 000160   200005 471500                    LDP1    @NAME,,AUTO
         1 000161   200010 473500                    LDP3    SOCK$,,AUTO
         1 000162   000100 100500                    MLR     fill='000'O
         1 000163   100000 000024                    ADSC9   0,,PR1                   cn=0,n=20
         1 000164   300004 000024                    ADSC9   4,,PR3                   cn=0,n=20

      690     2973    1       SOCK.FLAGS.BIND = '1'B;

   2973  1 000165   004000 236003                    LDQ     2048,DU
         1 000166   300001 256100                    ORSQ    1,,PR3

      691     2974    1       SOCK.SOCKNAME = NAME;

   2974  1 000167   000100 100500                    MLR     fill='000'O
         1 000170   100000 000024                    ADSC9   0,,PR1                   cn=0,n=20
         1 000171   300004 000024                    ADSC9   4,,PR3                   cn=0,n=20

      692     2975    1       RESULT = %E$SUCCESS;

   2975  1 000172   200003 474500                    LDP4    @RESULT,,AUTO
         1 000173   400000 450100                    STZ     0,,PR4

      693     2976    1       RETURN;

   2976  1 000174   000000 702200 xent               TSX2  ! X66_ARET

XSL_BINDRQS
 Sect OctLoc
   0     000   000003 000000   000000 000000   000000 000000   000000 000000    ................
   0     004   000000 000000                                                    ....

(unnamed)
 Sect OctLoc
PL6.E3A0      #003=XSL$BIND File=XSL$SOCKET1.:TCA2TSI                            SUN 11/16/97 14:30 Page:76
   2     000   000000 006000   000000 000000   000017 006000   000004 006000    ................
   2     004   000027 006000   000006 006000                                    ........
      694     2977
      695     2978    1   END XSL$BIND;
      696     2979        %EOD;

PL6.E3A0      #003=XSL$BIND File=XSL$SOCKET1.:TCA2TSI                            SUN 11/16/97 14:30 Page:77
--  Include file information  --

   XSL_SOCKMSGS_M.:TCA2TOU  is referenced.
   XSL_SOCKMSGS_E.:TCA2TOU  is referenced.
   XSL_INTERNAL_M.:TCA2TOU  is referenced.
   XSL_PERR_C.:TCA2TOU  is referenced.
   XSL_SOCKET_M.:TCA2TOU  is referenced.
   XSL_SOCKET_E.:TCA2TOU  is referenced.
   B$JIT_C.:E05TOU  was found in the system file and is never referenced.
   CP_6_C.:E05TOU  was found in the system file and is never referenced.
      No diagnostics issued in procedure XSL$BIND.
PL6.E3A0      #003=XSL$BIND File=XSL$SOCKET1.:TCA2TSI                            SUN 11/16/97 14:30 Page:78

 **** Variables and constants ****

  ****  Section 000 RoData XSL$BIND

  ****  Scalars and arrays  ****
OctLoc.c.b A Datatyp(siz) R M Lvl/name                 OctLoc.c.b A Datatyp(siz) R M Lvl/name

     0-0-0/w STRC(180)   r     1 XSL_BINDRQS

  ****  Auto variables  ****

  ****  Scalars and arrays  ****
OctLoc.c.b A Datatyp(siz) R M Lvl/name                 OctLoc.c.b A Datatyp(siz) R M Lvl/name

     5-0-0/w PTR         r     1 @NAME                      6-0-0/w PTR         r     1 @NAMELEN
     3-0-0/w PTR         r     1 @RESULT                    4-0-0/w PTR         r     1 @SOCK#
    *0-0-0/w STRC(180)   r     1 NAME                      *0-0-0/w SBIN        r     1 NAMELEN
    *0-0-0/w SBIN        r     1 RESULT                    *0-0-0/w SBIN        r     1 SOCK#
    10-0-0/w PTR         r     1 SOCK$                     11-0-0/w SBIN        r     1 TEMP
     7-0-0/w SBIN        r     1 TNAMELEN

  ****  SYMREF variables  ****

  ****  Scalars and arrays  ****
OctLoc.c.b A Datatyp(siz) R M Lvl/name                 OctLoc.c.b A Datatyp(siz) R M Lvl/name

     0-0-0/w SBIN        r     1 XSL_ERRNO                  0-0-0/w PTR         r     1 XSL_KEYBUF$
     0-0-0/w PTR         r     1 XSL_SOCK$

  ****  BASED and DCB variables  ****

  ****  Scalars and arrays  ****
OctLoc.c.b A Datatyp(siz) R M Lvl/name                 OctLoc.c.b A Datatyp(siz) R M Lvl/name

     0-0-0/w STRC(720)   r     1 SOCK                       0-0-0/w STRC(180)   r     1 XSL$BINDRQS
     0-0-0/w STRC(54)    r     1 XSL$BINDRSP

PL6.E3A0      #003=XSL$BIND File=XSL$SOCKET1.:TCA2TSI                            SUN 11/16/97 14:30 Page:79

   Procedure XSL$BIND requires 125 words for executable code.
   Procedure XSL$BIND requires 16 words of local(AUTO) storage.
PL6.E3A0      #003=XSL$BIND File=XSL$SOCKET1.:TCA2TSI                            SUN 11/16/97 14:30 Page:80
          *** CROSS REFERENCE LISTING ***
**     DENOTES     IDENTIFIER DEFINITION
<<                 IDENTIFIER'S VALUE SET
>>                 IDENTIFIER'S VALUE USED
<>                 IDENTIFIER SET AND/OR USED
--                 IDENTIFIER REFERENCED
PL6.E3A0      #003=XSL$BIND File=XSL$SOCKET1.:TCA2TSI                            SUN 11/16/97 14:30 Page:81
          MINI XREF LISTING

BAILOUT
      2951**LABEL    2938--CALLALT  2943--CALLALT  2956--GOTO     2958--CALLALT  2970--GOTO
COMMON
      2945**LABEL    2939--GOTO
NAME
      1135**DCL        98--PROC     2941--ENTRY    2958<>CALL     2965<>CALL     2972>>ASSIGN   2974>>ASSIGN
NAMELEN
      2931**DCL        98--PROC     2941--ENTRY    2945>>ASSIGN   2948>>IF
RESULT
      2933**DCL        98--PROC     2941--ENTRY    2951<<ASSIGN   2961<>CALL     2975<<ASSIGN
SOCK
      1482**DCL      2958<>CALL     2966<>CALL     2967<>CALL
SOCK.FLAGS.BIND
      1499**DCL      2955>>IF       2973<<ASSIGN
SOCK.FLAGS.CONNECT
      1496**DCL      2955>>IF
SOCK.FLAGS.REUSEADDR
      1502**DCL      2959>>IF
SOCK.FLAGS.SOCKET
      1500**DCL      2957>>IF
SOCK.NBACCEPT_SOCK$
      1604**DCL      1605--REDEF
SOCK.SOCK#
      1491**DCL      2960>>ASSIGN
SOCK.SOCKNAME
      1535**DCL      2972<<ASSIGN   2974<<ASSIGN
SOCK#
      2934**DCL        98--PROC     2938<>CALL     2941--ENTRY    2943<>CALL
SOCK$
      2935**DCL      1482--IMP-PTR  2954<<ASSIGN   2955>>IF       2955>>IF       2957>>IF       2958>>CALL
      2959>>IF       2960>>ASSIGN   2966>>CALL     2967>>CALL     2972>>ASSIGN   2973>>ASSIGN   2974>>ASSIGN
TEMP
PL6.E3A0      #003=XSL$BIND File=XSL$SOCKET1.:TCA2TSI                            SUN 11/16/97 14:30 Page:82
      2936**DCL      2960<<ASSIGN   2961<>CALL
TNAMELEN
      2932**DCL      2945<<ASSIGN   2946>>IF       2947<<ASSIGN   2958<>CALL     2964>>ASSIGN   2966>>CALL
XSL$BINDRQS
      2856**DCL      2963<<ASSIGN   2966--CALL
XSL$BINDRQS.NAME
      2883**DCL      2965<>CALL
XSL$BINDRQS.NAMELEN
      2863**DCL      2964<<ASSIGN
XSL$BINDRSP.ERRNO
      2916**DCL      2969>>ASSIGN
XSL$BINDRSP.RESULT
      2915**DCL      2968>>IF
XSL$CL_READ
      2919**DCL-ENT  2967--CALL
XSL$CL_WRITE
      2920**DCL-ENT  2966--CALL
XSL$DCBNPTR
      2923**DCL-ENT  2938--CALL
XSL$HTONADDR
      2921**DCL-ENT  2965--CALL
XSL$QSETSOCKOPT
      2924**DCL-ENT  2961--CALL
XSL$SOCKOPEN
      2925**DCL-ENT  2958--CALL
XSL$SOCKPTR
      2922**DCL-ENT  2943--CALL
XSL_BINDRQS
      2804**DCL      2963>>ASSIGN
XSL_ERRNO
      2927**DCL      2928--REDEF    2949<<ASSIGN   2956<<ASSIGN   2969<<ASSIGN
XSL_KEYBUF$
      2929**DCL      2856--IMP-PTR  2908--IMP-PTR  2963>>ASSIGN   2964>>ASSIGN   2965>>CALL     2968>>IF
      2969>>ASSIGN
XSL_SOCK$
      2928**DCL      2938<>CALL     2943<>CALL     2954>>ASSIGN
PL6.E3A0      #003=XSL$BIND File=XSL$SOCKET1.:TCA2TSI                            SUN 11/16/97 14:30 Page:83
              *** CROSS REFERENCE LISTING ***
    **     DENOTES     IDENTIFIER DEFINITION
    <<                 IDENTIFIER'S VALUE SET
    >>                 IDENTIFIER'S VALUE USED
    <>                 IDENTIFIER SET AND/OR USED
    --                 IDENTIFIER REFERENCED
PL6.E3A0      #003=XSL$BIND File=XSL$SOCKET1.:TCA2TSI                            SUN 11/16/97 14:30 Page:84
              MINI UREF LISTING

XSL$BIND      98**PROC
XSL$QBIND    2941**ENTRY

PL6.E3A0      #004=XSL$LISTEN File=XSL$SOCKET1.:TCA2TSI                          SUN 11/16/97 14:31 Page:85
      697        1        /*T***********************************************************/
      698        2        /*T*                                                         */
      699        3        /*T* Copyright (c) Bull HN Information Systems Inc., 1997    */
      700        4        /*T*                                                         */
      701        5        /*T***********************************************************/
      702        6        /*F* NAME: listen() and XSL$LISTEN  --  Listen for Incoming Connections
      703        7        ..::IT "Purpose:"
      704        8        .INL +4
      705        9        Listens for incoming connections to an existing socket.
      706       10        ..::IT "C Usage:"
      707       11        .INL 4
      708       12        .FIF
      709       13        status = listen( s, backlog );
      710       14        ..::IT "PL6 Usage:"
      711       15        .INL 4
      712       16        .FIF
      713       17        CALL XSL$LISTEN( status, s, backlog );
      714       18        ..::IT "Parameters:"
      715       19        .INL 4
      716       20        .FIF
      717       21        s           integer socket descriptor
      718       22
      719       23        backlog     integer pending connect queue length
      720       24        ..::IT "Result:"
      721       25        .INL 4
      722       26        .FIF
      723       27        status      integer error code
      724       28        ..::IT "Description:"
      725       29        The listen() function prepares the socket to wait until an incoming
      726       30        connection request is delivered by the network.  The wait itself is
      727       31        requested with the accept() function.
      728       32        .SPB
      729       33        The s parameter specifies the descriptor of the socket on which to listen.
      730       34        .SPB
      731       35        The backlog parameter specifies how many pending connection requests can
      732       36        be queued while the application is processing another connection request.
      733       37        .SPB
PL6.E3A0      #004=XSL$LISTEN File=XSL$SOCKET1.:TCA2TSI                          SUN 11/16/97 14:31 Page:86
      734       38        If the listen() function is successful, the status result contains ESUCCESS
      735       39        or E$SUCCESS.
      736       40        .SPB
      737       41        If the listen() function is unsuccessful, the status result contains
      738       42        EFAILURE or E$FAILURE and the application must inspect errno or XSL_ERRNO
      739       43        to determine the specific error condition.  The XSL$LISTEN procedure
      740       44        additionally ALTRETURNs if it is unsuccessful; it is otherwise identical
      741       45        to the listen() function.
      742       46        .SPB
      743       47        The listen() function applies only to "stream" sockets.
      744       48        .SPB
      745       49        If an incoming connection arrives when the listen queue is full, the
      746       50        initiator of the connection request receives the error ECONNREFUSED.
      747       51        ..::IT "Errors:"
      748       52        Following are the possible error conditions reported when the listen()
      749       53        function is unsuccessful.  Equates for the possible values can be found in
      750       54        <xsl_errno.h> or XSL_PERR_C for C and PL6 source, respectively.
      751       55
      752       56        .FIF
      753       57
      754       58        C #define               PL6 %EQU
      755       59        ----------------------- -----------------------
      756       60        EBADF                   E$BADF
      757       61        .FIN
      758       62        The descriptor s is not appropriate to identify a socket.
      759       63        .FIF
      760       64
      761       65        EFAULT                  E$FAULT
      762       66        .FIN
      763       67        The backlog parameter is invalid (less than or equal to zero).
      764       68        .FIF
      765       69
      766       70        EINVAL                  E$INVAL
      767       71        .FIN
      768       72        Either bind() has not been issued on this socket, or listen() has
      769       73        already been issued on this socket.
      770       74        .FIF
PL6.E3A0      #004=XSL$LISTEN File=XSL$SOCKET1.:TCA2TSI                          SUN 11/16/97 14:31 Page:87
      771       75
      772       76        ENOTSOCK                E$NOTSOCK
      773       77        .FIN
      774       78        The descriptor s is no longer valid to identify a socket.
      775       79        .FIF
      776       80
      777       81        EOPNOTSUPP              E$OPNOTSUPP
      778       82        .FIN
      779       83        This is not a "stream" socket.
      780       84        .FIF
      781       85        */
      782       86        XSL$LISTEN: PROC( RESULT, SOCK#, BACKLOG) ALTRET;
      783       87        %INCLUDE XSL_SOCKET_E;
      784      345        %INCLUDE XSL_SOCKET_M;
      785     1106        %INCLUDE XSL_PERR_C;
      786     1161        %INCLUDE XSL_INTERNAL_M;
      787     1412            %XSL$SOCKINFO( FPTN=SOCK, STCLASS="BASED( SOCK$)");
      788     1556        %INCLUDE XSL_SOCKMSGS_E;
      789     1602        %INCLUDE XSL_SOCKMSGS_M;
      790     2735            %XSL$LISTENRQS( FPTN=XSL_LISTENRQS, STCLASS="CONSTANT SYMDEF");
      791     2761            %XSL$LISTENRQS( STCLASS="BASED( XSL_KEYBUF$)");
      792     2787            %XSL$LISTENRSP( STCLASS="BASED( XSL_KEYBUF$)");
      793     2814
      794     2815    1       DCL XSL$CL_READ ENTRY(3) ALTRET;
      795     2816    1       DCL XSL$CL_WRITE ENTRY(4) ALTRET;
      796     2817    1       DCL XSL$SOCKPTR ENTRY(2) ALTRET;
      797     2818    1       DCL XSL$DCBNPTR ENTRY(2) ALTRET;
      798     2819
      799     2820    1       DCL XSL_ERRNO SBIN SYMREF;
      800     2821    1       DCL XSL_SOCK$ REDEF XSL_ERRNO PTR;
      801     2822    1       DCL XSL_KEYBUF$ PTR SYMREF READONLY;
      802     2823
      803     2824    1       DCL BACKLOG SBIN;
      804     2825    1       DCL RESULT SBIN;
      805     2826    1       DCL SOCK# SBIN;
      806     2827    1       DCL SOCK$ PTR;
      807     2828
PL6.E3A0      #004=XSL$LISTEN File=XSL$SOCKET1.:TCA2TSI                          SUN 11/16/97 14:31 Page:88
      808     2829    1       CALL XSL$DCBNPTR( SOCK#, XSL_SOCK$) ALTRET( BAILOUT);
      809     2830    1       GOTO COMMON;
      810     2831
      811     2832    1   XSL$QLISTEN: ENTRY( RESULT, SOCK#, BACKLOG) ALTRET;
      812     2833
      813     2834    1       CALL XSL$SOCKPTR( SOCK#, XSL_SOCK$) ALTRET( BAILOUT);
      814     2835    1   COMMON:
      815     2836    2       IF BACKLOG <= 0 THEN DO;
      816     2837    2           XSL_ERRNO = %E$FAULT;
      817     2838    2   BAILOUT:
      818     2839    2           RESULT = %E$FAILURE;
      819     2840    2           ALTRETURN;
      820     2841    2           END;
      821     2842    1       SOCK$ = XSL_SOCK$;
      822     2843    2       IF NOT SOCK.FLAGS.BIND OR SOCK.FLAGS.LISTEN THEN DO;
      823     2844    2           XSL_ERRNO = %E$INVAL; GOTO BAILOUT; END;
      824     2845    1       XSL$LISTENRQS = XSL_LISTENRQS;
      825     2846    1       XSL$LISTENRQS.BACKLOG = BACKLOG;
      826     2847    1       CALL XSL$CL_WRITE( SOCK, LENGTHC( XSL$LISTENRQS));
      827     2848    1       CALL XSL$CL_READ( SOCK);
      828     2849    2       IF XSL$LISTENRSP.RESULT < 0 THEN DO;
      829     2850    2           XSL_ERRNO = XSL$LISTENRSP.ERRNO;
      830     2851    2           GOTO BAILOUT;
      831     2852    2           END;
      832     2853    1       SOCK.FLAGS.LISTEN = '1'B;
      833     2854    1       RESULT = %E$SUCCESS;
      834     2855    1       RETURN;
      835     2856
      836     2857    1   END XSL$LISTEN;
      837     2858        %EOD;

PL6.E3A0      #004=XSL$LISTEN File=XSL$SOCKET1.:TCA2TSI                          SUN 11/16/97 14:31 Page:89
--  Include file information  --

   XSL_SOCKMSGS_M.:TCA2TOU  is referenced.
   XSL_SOCKMSGS_E.:TCA2TOU  is referenced.
   XSL_INTERNAL_M.:TCA2TOU  is referenced.
   XSL_PERR_C.:TCA2TOU  is referenced.
   XSL_SOCKET_M.:TCA2TOU  is referenced.
   XSL_SOCKET_E.:TCA2TOU  is referenced.
   B$JIT_C.:E05TOU  was found in the system file and is never referenced.
   CP_6_C.:E05TOU  was found in the system file and is never referenced.
      No diagnostics issued in procedure XSL$LISTEN.

   Procedure XSL$LISTEN requires 68 words for executable code.
   Procedure XSL$LISTEN requires 10 words of local(AUTO) storage.

PL6.E3A0      #004=XSL$LISTEN File=XSL$SOCKET1.:TCA2TSI                          SUN 11/16/97 14:31 Page:90

 Object Unit name= XSL$LISTEN                                 File name= XSL$SOCKET1.:TCA2TOU
 UTS= NOV 16 '97 14:31:29.52 SUN                              Compiler= PL-6/E31         Sev=      00
 SharedLib= :SHARED_SYSTEM                                    Alt SharedLib=


    ****  Control sections  ****

 Sect   Type Bound  Init  Size OctSiz  Section name(segment info)
    0  RoData even  UTS      1      1  XSL$LISTEN
    1   Proc  even  none    68    104  XSL$LISTEN
    2  RoData even  none     2      2  XSL$LISTEN

    ****  Entry defs  ****

                              Check   Calling
                             calling  sequence
  Sect OctLoc Primary Altret sequence   type   Parms  Name
     1      0   yes    yes     yes      Std        3  XSL$LISTEN
     1     12          yes     yes      Std        3  XSL$QLISTEN

  ****  Data defs  ****

 Sect OctLoc  Name                           Sect OctLoc  Name
    0      0  XSL_LISTENRQS
PL6.E3A0      #004=XSL$LISTEN File=XSL$SOCKET1.:TCA2TSI                          SUN 11/16/97 14:31 Page:91

  ****  Entry refs  ****

         Check        Calling
        calling       sequence
Altret sequence SRef   type   Args  Name
 yes     yes           Std       2 XSL$DCBNPTR
 yes     yes           Std       2 XSL$SOCKPTR
 yes     yes           Std       4 XSL$CL_WRITE
 yes     yes           Std       3 XSL$CL_READ
                       nStd      0 X66_AUTO_3
                       Std       0 B_CONSPOOL_D
                       nStd      0 X66_AALT
                       nStd      0 X66_ARET

  ****  Data refs  ****

  Flags:  r = read only, s = secondary
Flgs Name                             Flgs Name                             Flgs Name
     XSL_ERRNO                        r    XSL_KEYBUF$                           B_VECTNIL

  ****  Segment refs  ****

  Flags:  r = read only, s = secondary
Flgs Name                             Flgs Name                             Flgs Name
     ISSID
PL6.E3A0      #004=XSL$LISTEN File=XSL$SOCKET1.:TCA2TSI                          SUN 11/16/97 14:31 Page:92


      697        1        /*T***********************************************************/
      698        2        /*T*                                                         */
      699        3        /*T* Copyright (c) Bull HN Information Systems Inc., 1997    */
      700        4        /*T*                                                         */
      701        5        /*T***********************************************************/
      702        6        /*F* NAME: listen() and XSL$LISTEN  --  Listen for Incoming Connections
      703        7        ..::IT "Purpose:"
      704        8        .INL +4
      705        9        Listens for incoming connections to an existing socket.
      706       10        ..::IT "C Usage:"
      707       11        .INL 4
      708       12        .FIF
      709       13        status = listen( s, backlog );
      710       14        ..::IT "PL6 Usage:"
      711       15        .INL 4
      712       16        .FIF
      713       17        CALL XSL$LISTEN( status, s, backlog );
      714       18        ..::IT "Parameters:"
      715       19        .INL 4
      716       20        .FIF
      717       21        s           integer socket descriptor
      718       22
      719       23        backlog     integer pending connect queue length
      720       24        ..::IT "Result:"
      721       25        .INL 4
      722       26        .FIF
      723       27        status      integer error code
      724       28        ..::IT "Description:"
      725       29        The listen() function prepares the socket to wait until an incoming
      726       30        connection request is delivered by the network.  The wait itself is
      727       31        requested with the accept() function.
      728       32        .SPB
      729       33        The s parameter specifies the descriptor of the socket on which to listen.
      730       34        .SPB
      731       35        The backlog parameter specifies how many pending connection requests can
      732       36        be queued while the application is processing another connection request.
PL6.E3A0      #004=XSL$LISTEN File=XSL$SOCKET1.:TCA2TSI                          SUN 11/16/97 14:31 Page:93
      733       37        .SPB
      734       38        If the listen() function is successful, the status result contains ESUCCESS
      735       39        or E$SUCCESS.
      736       40        .SPB
      737       41        If the listen() function is unsuccessful, the status result contains
      738       42        EFAILURE or E$FAILURE and the application must inspect errno or XSL_ERRNO
      739       43        to determine the specific error condition.  The XSL$LISTEN procedure
      740       44        additionally ALTRETURNs if it is unsuccessful; it is otherwise identical
      741       45        to the listen() function.
      742       46        .SPB
      743       47        The listen() function applies only to "stream" sockets.
      744       48        .SPB
      745       49        If an incoming connection arrives when the listen queue is full, the
      746       50        initiator of the connection request receives the error ECONNREFUSED.
      747       51        ..::IT "Errors:"
      748       52        Following are the possible error conditions reported when the listen()
      749       53        function is unsuccessful.  Equates for the possible values can be found in
      750       54        <xsl_errno.h> or XSL_PERR_C for C and PL6 source, respectively.
      751       55
      752       56        .FIF
      753       57
      754       58        C #define               PL6 %EQU
      755       59        ----------------------- -----------------------
      756       60        EBADF                   E$BADF
      757       61        .FIN
      758       62        The descriptor s is not appropriate to identify a socket.
      759       63        .FIF
      760       64
      761       65        EFAULT                  E$FAULT
      762       66        .FIN
      763       67        The backlog parameter is invalid (less than or equal to zero).
      764       68        .FIF
      765       69
      766       70        EINVAL                  E$INVAL
      767       71        .FIN
      768       72        Either bind() has not been issued on this socket, or listen() has
      769       73        already been issued on this socket.
PL6.E3A0      #004=XSL$LISTEN File=XSL$SOCKET1.:TCA2TSI                          SUN 11/16/97 14:31 Page:94
      770       74        .FIF
      771       75
      772       76        ENOTSOCK                E$NOTSOCK
      773       77        .FIN
      774       78        The descriptor s is no longer valid to identify a socket.
      775       79        .FIF
      776       80
      777       81        EOPNOTSUPP              E$OPNOTSUPP
      778       82        .FIN
      779       83        This is not a "stream" socket.
      780       84        .FIF
      781       85        */
      782       86        XSL$LISTEN: PROC( RESULT, SOCK#, BACKLOG) ALTRET;

     86  1 000000   000000 700200 xent  XSL$LISTEN   TSX0  ! X66_AUTO_3
         1 000001   000012 000003                    ZERO    10,3

      783       87        %INCLUDE XSL_SOCKET_E;
      784      345        %INCLUDE XSL_SOCKET_M;
      785     1106        %INCLUDE XSL_PERR_C;
      786     1161        %INCLUDE XSL_INTERNAL_M;
      787     1412            %XSL$SOCKINFO( FPTN=SOCK, STCLASS="BASED( SOCK$)");
      788     1556        %INCLUDE XSL_SOCKMSGS_E;
      789     1602        %INCLUDE XSL_SOCKMSGS_M;
      790     2735            %XSL$LISTENRQS( FPTN=XSL_LISTENRQS, STCLASS="CONSTANT SYMDEF");
      791     2761            %XSL$LISTENRQS( STCLASS="BASED( XSL_KEYBUF$)");
      792     2787            %XSL$LISTENRSP( STCLASS="BASED( XSL_KEYBUF$)");
      793     2814
      794     2815    1       DCL XSL$CL_READ ENTRY(3) ALTRET;
      795     2816    1       DCL XSL$CL_WRITE ENTRY(4) ALTRET;
      796     2817    1       DCL XSL$SOCKPTR ENTRY(2) ALTRET;
      797     2818    1       DCL XSL$DCBNPTR ENTRY(2) ALTRET;
      798     2819
      799     2820    1       DCL XSL_ERRNO SBIN SYMREF;
      800     2821    1       DCL XSL_SOCK$ REDEF XSL_ERRNO PTR;
      801     2822    1       DCL XSL_KEYBUF$ PTR SYMREF READONLY;
      802     2823
PL6.E3A0      #004=XSL$LISTEN File=XSL$SOCKET1.:TCA2TSI                          SUN 11/16/97 14:31 Page:95
      803     2824    1       DCL BACKLOG SBIN;
      804     2825    1       DCL RESULT SBIN;
      805     2826    1       DCL SOCK# SBIN;
      806     2827    1       DCL SOCK$ PTR;
      807     2828
      808     2829    1       CALL XSL$DCBNPTR( SOCK#, XSL_SOCK$) ALTRET( BAILOUT);

   2829  1 000002   000000 236000 2                  LDQ     0
         1 000003   200004 235100                    LDA     @SOCK#,,AUTO
         1 000004   200010 757100                    STAQ    SOCK$+2,,AUTO
         1 000005   200010 630500                    EPPR0   SOCK$+2,,AUTO
         1 000006   000020 631400 xsym               EPPR1   B_VECTNIL+16
         1 000007   000000 701000 xent               TSX1    XSL$DCBNPTR
         1 000010   000030 702000 1                  TSX2    BAILOUT

      809     2830    1       GOTO COMMON;

   2830  1 000011   000023 710000 1                  TRA     COMMON

      810     2831
      811     2832    1   XSL$QLISTEN: ENTRY( RESULT, SOCK#, BACKLOG) ALTRET;

   2832  1 000012   000000 700200 xent  XSL$QLISTEN  TSX0  ! X66_AUTO_3
         1 000013   000012 000003                    ZERO    10,3

      812     2833
      813     2834    1       CALL XSL$SOCKPTR( SOCK#, XSL_SOCK$) ALTRET( BAILOUT);

   2834  1 000014   000000 236000 2                  LDQ     0
         1 000015   200004 235100                    LDA     @SOCK#,,AUTO
         1 000016   200010 757100                    STAQ    SOCK$+2,,AUTO
         1 000017   200010 630500                    EPPR0   SOCK$+2,,AUTO
         1 000020   000020 631400 xsym               EPPR1   B_VECTNIL+16
         1 000021   000000 701000 xent               TSX1    XSL$SOCKPTR
         1 000022   000030 702000 1                  TSX2    BAILOUT

      814     2835    1   COMMON:
PL6.E3A0      #004=XSL$LISTEN File=XSL$SOCKET1.:TCA2TSI                          SUN 11/16/97 14:31 Page:96
      815     2836    2       IF BACKLOG <= 0 THEN DO;

   2836  1 000023   200005 470500       COMMON       LDP0    @BACKLOG,,AUTO
         1 000024   000000 235100                    LDA     0,,PR0
         1 000025   000034 605400 1                  TPNZ    s:2842

      816     2837    2           XSL_ERRNO = %E$FAULT;

   2837  1 000026   000016 236007                    LDQ     14,DL
         1 000027   000000 756000 xsym               STQ     XSL_ERRNO

      817     2838    2   BAILOUT:
      818     2839    2           RESULT = %E$FAILURE;

   2839  1 000030   000001 335007       BAILOUT      LCA     1,DL
         1 000031   200003 470500                    LDP0    @RESULT,,AUTO
         1 000032   000000 755100                    STA     0,,PR0

      819     2840    2           ALTRETURN;

   2840  1 000033   000000 702200 xent               TSX2  ! X66_AALT

      820     2841    2           END;
      821     2842    1       SOCK$ = XSL_SOCK$;

   2842  1 000034   000000 236000 xsym               LDQ     XSL_ERRNO
         1 000035   200006 756100                    STQ     SOCK$,,AUTO

      822     2843    2       IF NOT SOCK.FLAGS.BIND OR SOCK.FLAGS.LISTEN THEN DO;

   2843  1 000036   200006 471500                    LDP1    SOCK$,,AUTO
         1 000037   100001 236100                    LDQ     1,,PR1
         1 000040   004000 316003                    CANQ    2048,DU
         1 000041   000044 600000 1                  TZE     s:2844
         1 000042   010000 316003                    CANQ    4096,DU
         1 000043   000047 600000 1                  TZE     s:2845

PL6.E3A0      #004=XSL$LISTEN File=XSL$SOCKET1.:TCA2TSI                          SUN 11/16/97 14:31 Page:97
      823     2844    2           XSL_ERRNO = %E$INVAL; GOTO BAILOUT; END;

   2844  1 000044   000026 235007                    LDA     22,DL
         1 000045   000000 755000 xsym               STA     XSL_ERRNO

   2844  1 000046   000030 710000 1                  TRA     BAILOUT

      824     2845    1       XSL$LISTENRQS = XSL_LISTENRQS;

   2845  1 000047   000000 236000 0                  LDQ     XSL_LISTENRQS
         1 000050   000000 473400 xsym               LDP3    XSL_KEYBUF$
         1 000051   300000 756100                    STQ     0,,PR3

      825     2846    1       XSL$LISTENRQS.BACKLOG = BACKLOG;

   2846  1 000052   000000 720100                    LXL0    0,,PR0
         1 000053   300000 440100                    SXL0    0,,PR3

      826     2847    1       CALL XSL$CL_WRITE( SOCK, LENGTHC( XSL$LISTENRQS));

   2847  1 000054   000001 236000 2                  LDQ     1
         1 000055   200006 235100                    LDA     SOCK$,,AUTO
         1 000056   200010 757100                    STAQ    SOCK$+2,,AUTO
         1 000057   200010 630500                    EPPR0   SOCK$+2,,AUTO
         1 000060   000020 631400 xsym               EPPR1   B_VECTNIL+16
         1 000061   000000 701000 xent               TSX1    XSL$CL_WRITE
         1 000062   000000 011000                    NOP     0

      827     2848    1       CALL XSL$CL_READ( SOCK);

   2848  1 000063   200006 630500                    EPPR0   SOCK$,,AUTO
         1 000064   000017 631400 xsym               EPPR1   B_VECTNIL+15
         1 000065   000000 701000 xent               TSX1    XSL$CL_READ
         1 000066   000000 011000                    NOP     0

      828     2849    2       IF XSL$LISTENRSP.RESULT < 0 THEN DO;

PL6.E3A0      #004=XSL$LISTEN File=XSL$SOCKET1.:TCA2TSI                          SUN 11/16/97 14:31 Page:98
   2849  1 000067   000000 470400 xsym               LDP0    XSL_KEYBUF$
         1 000070   000000 720100                    LXL0    0,,PR0
         1 000071   000076 605000 1                  TPL     s:2853

      829     2850    2           XSL_ERRNO = XSL$LISTENRSP.ERRNO;

   2850  1 000072   000001 236100                    LDQ     1,,PR0
         1 000073   000022 732000                    QRS     18
         1 000074   000000 756000 xsym               STQ     XSL_ERRNO

      830     2851    2           GOTO BAILOUT;

   2851  1 000075   000030 710000 1                  TRA     BAILOUT

      831     2852    2           END;
      832     2853    1       SOCK.FLAGS.LISTEN = '1'B;

   2853  1 000076   200006 471500                    LDP1    SOCK$,,AUTO
         1 000077   010000 236003                    LDQ     4096,DU
         1 000100   100001 256100                    ORSQ    1,,PR1

      833     2854    1       RESULT = %E$SUCCESS;

   2854  1 000101   200003 473500                    LDP3    @RESULT,,AUTO
         1 000102   300000 450100                    STZ     0,,PR3

      834     2855    1       RETURN;

   2855  1 000103   000000 702200 xent               TSX2  ! X66_ARET

XSL_LISTENRQS
 Sect OctLoc
   0     000   000013 000000                                                    ....

(unnamed)
 Sect OctLoc
   2     000   000000 006000   000006 006000                                    ........
PL6.E3A0      #004=XSL$LISTEN File=XSL$SOCKET1.:TCA2TSI                          SUN 11/16/97 14:31 Page:99
      835     2856
      836     2857    1   END XSL$LISTEN;
      837     2858        %EOD;

PL6.E3A0      #004=XSL$LISTEN File=XSL$SOCKET1.:TCA2TSI                          SUN 11/16/97 14:31 Page:100
--  Include file information  --

   XSL_SOCKMSGS_M.:TCA2TOU  is referenced.
   XSL_SOCKMSGS_E.:TCA2TOU  is referenced.
   XSL_INTERNAL_M.:TCA2TOU  is referenced.
   XSL_PERR_C.:TCA2TOU  is referenced.
   XSL_SOCKET_M.:TCA2TOU  is referenced.
   XSL_SOCKET_E.:TCA2TOU  is referenced.
   B$JIT_C.:E05TOU  was found in the system file and is never referenced.
   CP_6_C.:E05TOU  was found in the system file and is never referenced.
      No diagnostics issued in procedure XSL$LISTEN.
PL6.E3A0      #004=XSL$LISTEN File=XSL$SOCKET1.:TCA2TSI                          SUN 11/16/97 14:31 Page:101

 **** Variables and constants ****

  ****  Section 000 RoData XSL$LISTEN

  ****  Scalars and arrays  ****
OctLoc.c.b A Datatyp(siz) R M Lvl/name                 OctLoc.c.b A Datatyp(siz) R M Lvl/name

     0-0-0/w STRC        r     1 XSL_LISTENRQS

  ****  Auto variables  ****

  ****  Scalars and arrays  ****
OctLoc.c.b A Datatyp(siz) R M Lvl/name                 OctLoc.c.b A Datatyp(siz) R M Lvl/name

     5-0-0/w PTR         r     1 @BACKLOG                   3-0-0/w PTR         r     1 @RESULT
     4-0-0/w PTR         r     1 @SOCK#                    *0-0-0/w SBIN        r     1 BACKLOG
    *0-0-0/w SBIN        r     1 RESULT                    *0-0-0/w SBIN        r     1 SOCK#
     6-0-0/w PTR         r     1 SOCK$

  ****  SYMREF variables  ****

  ****  Scalars and arrays  ****
OctLoc.c.b A Datatyp(siz) R M Lvl/name                 OctLoc.c.b A Datatyp(siz) R M Lvl/name

     0-0-0/w SBIN        r     1 XSL_ERRNO                  0-0-0/w PTR         r     1 XSL_KEYBUF$
     0-0-0/w PTR         r     1 XSL_SOCK$

  ****  BASED and DCB variables  ****

  ****  Scalars and arrays  ****
OctLoc.c.b A Datatyp(siz) R M Lvl/name                 OctLoc.c.b A Datatyp(siz) R M Lvl/name

     0-0-0/w STRC(720)   r     1 SOCK                       0-0-0/w STRC        r     1 XSL$LISTENRQS
     0-0-0/w STRC(54)    r     1 XSL$LISTENRSP

PL6.E3A0      #004=XSL$LISTEN File=XSL$SOCKET1.:TCA2TSI                          SUN 11/16/97 14:31 Page:102

   Procedure XSL$LISTEN requires 68 words for executable code.
   Procedure XSL$LISTEN requires 10 words of local(AUTO) storage.
PL6.E3A0      #004=XSL$LISTEN File=XSL$SOCKET1.:TCA2TSI                          SUN 11/16/97 14:31 Page:103
          *** CROSS REFERENCE LISTING ***
**     DENOTES     IDENTIFIER DEFINITION
<<                 IDENTIFIER'S VALUE SET
>>                 IDENTIFIER'S VALUE USED
<>                 IDENTIFIER SET AND/OR USED
--                 IDENTIFIER REFERENCED
PL6.E3A0      #004=XSL$LISTEN File=XSL$SOCKET1.:TCA2TSI                          SUN 11/16/97 14:31 Page:104
          MINI XREF LISTING

BACKLOG
      2824**DCL        86--PROC     2832--ENTRY    2836>>IF       2846>>ASSIGN
BAILOUT
      2839**LABEL    2829--CALLALT  2834--CALLALT  2844--GOTO     2851--GOTO
COMMON
      2836**LABEL    2830--GOTO
RESULT
      2825**DCL        86--PROC     2832--ENTRY    2839<<ASSIGN   2854<<ASSIGN
SOCK
      1430**DCL      2847<>CALL     2848<>CALL
SOCK.FLAGS.BIND
      1447**DCL      2843>>IF
SOCK.FLAGS.LISTEN
      1446**DCL      2843>>IF       2853<<ASSIGN
SOCK.NBACCEPT_SOCK$
      1552**DCL      1553--REDEF
SOCK#
      2826**DCL        86--PROC     2829<>CALL     2832--ENTRY    2834<>CALL
SOCK$
      2827**DCL      1430--IMP-PTR  2842<<ASSIGN   2843>>IF       2843>>IF       2847>>CALL     2848>>CALL
      2853>>ASSIGN
XSL$CL_READ
      2815**DCL-ENT  2848--CALL
XSL$CL_WRITE
      2816**DCL-ENT  2847--CALL
XSL$DCBNPTR
      2818**DCL-ENT  2829--CALL
XSL$LISTENRQS
      2778**DCL      2845<<ASSIGN   2847--CALL
XSL$LISTENRQS.BACKLOG
      2785**DCL      2846<<ASSIGN
XSL$LISTENRSP.ERRNO
PL6.E3A0      #004=XSL$LISTEN File=XSL$SOCKET1.:TCA2TSI                          SUN 11/16/97 14:31 Page:105
      2812**DCL      2850>>ASSIGN
XSL$LISTENRSP.RESULT
      2811**DCL      2849>>IF
XSL$SOCKPTR
      2817**DCL-ENT  2834--CALL
XSL_ERRNO
      2820**DCL      2821--REDEF    2837<<ASSIGN   2844<<ASSIGN   2850<<ASSIGN
XSL_KEYBUF$
      2822**DCL      2778--IMP-PTR  2804--IMP-PTR  2845>>ASSIGN   2846>>ASSIGN   2849>>IF       2850>>ASSIGN
XSL_LISTENRQS
      2752**DCL      2845>>ASSIGN
XSL_SOCK$
      2821**DCL      2829<>CALL     2834<>CALL     2842>>ASSIGN
PL6.E3A0      #004=XSL$LISTEN File=XSL$SOCKET1.:TCA2TSI                          SUN 11/16/97 14:31 Page:106
              *** CROSS REFERENCE LISTING ***
    **     DENOTES     IDENTIFIER DEFINITION
    <<                 IDENTIFIER'S VALUE SET
    >>                 IDENTIFIER'S VALUE USED
    <>                 IDENTIFIER SET AND/OR USED
    --                 IDENTIFIER REFERENCED
PL6.E3A0      #004=XSL$LISTEN File=XSL$SOCKET1.:TCA2TSI                          SUN 11/16/97 14:31 Page:107
              MINI UREF LISTING

XSL$LISTEN      86**PROC
XSL$QLISTEN    2832**ENTRY

PL6.E3A0      #005=XSL$ACCEPT File=XSL$SOCKET1.:TCA2TSI                          SUN 11/16/97 14:31 Page:108
      838        1        /*T***********************************************************/
      839        2        /*T*                                                         */
      840        3        /*T* Copyright (c) Bull HN Information Systems Inc., 1997    */
      841        4        /*T*                                                         */
      842        5        /*T***********************************************************/
      843        6        /*F* NAME: accept() and XSL$ACCEPT  --  Accept an Incoming Connection Request
      844        7        ..::IT "Purpose:"
      845        8        .INL +4
      846        9        Accepts an incoming connection request from another socket elsewhere
      847       10        in the network.
      848       11        ..::IT "C Usage:"
      849       12        .INL 4
      850       13        .FIF
      851       14        status = accept( s, &name, &namelen );
      852       15        ..::IT "PL6 Usage:"
      853       16        .INL 4
      854       17        .FIF
      855       18        CALL XSL$ACCEPT( status, s, name, namelen );
      856       19        ..::IT "Parameters:"
      857       20        .INL 4
      858       21        .FIF
      859       22        s           integer socket descriptor
      860       23
      861       24        name        sockaddr structure
      862       25
      863       26        namelen     integer size of name in characters
      864       27        ..::IT "Results:"
      865       28        .INL 4
      866       29        .FIF
      867       30        status      integer new socket descriptor or error code
      868       31
      869       32        name        sockaddr structure
      870       33
      871       34        namelen     integer number of significant characters in name
      872       35        ..::IT "Description:"
      873       36        The accept() function takes the first item on the queue of pending
      874       37        connection requests, allocates a new socket for it with the same
PL6.E3A0      #005=XSL$ACCEPT File=XSL$SOCKET1.:TCA2TSI                          SUN 11/16/97 14:31 Page:109
      875       38        attributes as socket s, and returns the new descriptor.
      876       39        .SPB
      877       40        The s parameter specifies the descriptor of the socket on which to accept.
      878       41        .SPB
      879       42        The name parameter specifies an application-defined buffer to receive the
      880       43        address of the socket that initiated the connection.
      881       44        .SPB
      882       45        The namelen parameter specifies how large the name buffer is, expressed as
      883       46        the number of characters it can hold.
      884       47        .SPB
      885       48        If the accept() function is successful, the status result contains the
      886       49        descriptor of the new socket allocated for the new connection.  The
      887       50        descriptor is a small non-negative integer, equivalent to the DCBNUM of the
      888       51        DCB allocated for the new socket.  The name and namelen parameters are
      889       52        modified to identify the initiator of the connection request.
      890       53        .SPB
      891       54        If the accept() function is unsuccessful, the status result contains
      892       55        EFAILURE or E$FAILURE and the application must inspect errno or XSL_ERRNO
      893       56        to determine the specific error condition.  The XSL$ACCEPT procedure
      894       57        additionally ALTRETURNs if it is unsuccessful; it is otherwise identical
      895       58        to the accept() function.
      896       59        .SPB
      897       60        If no connection requests are pending when accept() is invoked, the action
      898       61        taken depends on the socket mode.  The mode of a socket is defined to be
      899       62        either "blocking" or "nonblocking".  If the socket is blocking (which is
      900       63        the default mode) the application is blocked (i.e., suspended) until an
      901       64        incoming connection request is received from the network.  If the
      902       65        socket is nonblocking, the condition is treated as an EWOULDBLOCK error.
      903       66        ..::IX "blocking"
      904       67        ..::IX "non-blocking"
      905       68        .SPB
      906       69        The mode of a socket can be changed with either fcntl() or ioctl().
      907       70        .SPB
      908       71        The accept() function applies only to "stream" sockets.
      909       72        ..::IT "Errors:"
      910       73        Following are the possible error conditions reported when the accept()
      911       74        function is unsuccessful.  Equates for the possible values can be found in
PL6.E3A0      #005=XSL$ACCEPT File=XSL$SOCKET1.:TCA2TSI                          SUN 11/16/97 14:31 Page:110
      912       75        <xsl_errno.h> or XSL_PERR_C for C and PL6 source, respectively.
      913       76
      914       77        .FIF
      915       78
      916       79        C #define               PL6 %EQU
      917       80        ----------------------- -----------------------
      918       81        EBADF                   E$BADF
      919       82        .FIN
      920       83        The descriptor s is inappropriate to identify a socket.
      921       84        .FIF
      922       85
      923       86        EINVAL                  E$INVAL
      924       87        .FIN
      925       88        The listen() function has not been invoked for this socket.
      926       89        .FIF
      927       90
      928       91        EMFILE                  E$MFILE
      929       92        .FIN
      930       93        M$GETDCB failed.  Unable to allocate DCB for new socket.
      931       94        .FIF
      932       95
      933       96        ENOTSOCK                E$NOTSOCK
      934       97        .FIN
      935       98        The descriptor s is no longer valid to identify a socket.
      936       99        .FIF
      937      100
      938      101        EOPNOTSUPP              E$OPNOTSUPP
      939      102        .FIN
      940      103        This is not a "stream" socket.
      941      104        .FIF
      942      105
      943      106        EWOULDBLOCK             E$WOULDBLOCK
      944      107        .FIN
      945      108        No connections are pending for this nonblocking socket.
      946      109        .FIF
      947      110        */
      948      111        XSL$ACCEPT: PROC( RESULT, SOCK#, NAME, NAMELEN) ALTRET;
PL6.E3A0      #005=XSL$ACCEPT File=XSL$SOCKET1.:TCA2TSI                          SUN 11/16/97 14:31 Page:111
      949      112        %INCLUDE XSL_SOCKET_E;
      950      370        %INCLUDE XSL_SOCKET_M;
      951     1131            %XSL$SOCKADDR( FPTN=NAME, STCLASS=);
      952     1171        %INCLUDE XSL_PERR_C;
      953     1226        %INCLUDE XSL_INTERNAL_M;
      954     1477            %XSL$SOCKINFO( FPTN=SOCK, STCLASS="BASED( SOCK$)");
      955     1621            %XSL$SOCKINFO( FPTN=NEWSOCK, STCLASS="BASED( NEWSOCK$)");
      956     1765        %INCLUDE XSL_SOCKMSGS_E;
      957     1811        %INCLUDE XSL_SOCKMSGS_M;
      958     2944            %XSL_REFMSGS;
      959     2947            %XSL$GIVEUPRQS( FPTN=XSL_GIVEUPRQS, STCLASS=SYMREF);
      960     2972            %XSL$GIVEUPRQS( STCLASS="BASED( XSL_KEYBUF$)");
      961     2997            %XSL$GIVEUPRSP( STCLASS="BASED( XSL_KEYBUF$)");
      962     3023            %XSL$ACCEPTRQS( FPTN=XSL_ACCEPTRQS, STCLASS=SYMREF);
      963     3049            %XSL$ACCEPTRQS( STCLASS="BASED( XSL_KEYBUF$)");
      964     3075            %XSL$ACCEPTRSP( STCLASS="BASED( XSL_KEYBUF$)");
      965     3129            %XSL$DETACHRQS( FPTN=XSL_DETACHRQS, STCLASS=SYMREF);
      966     3154            %XSL$DETACHRQS( STCLASS="BASED( XSL_KEYBUF$)");
      967     3179
      968     3180    1       DCL XSL$QCLOSE ENTRY(2) ALTRET;
      969     3181    1       DCL XSL$CL_OPEN ENTRY(3) ALTRET;
      970     3182    1       DCL XSL$CL_READ ENTRY(3) ALTRET;
      971     3183    1       DCL XSL$CL_WRITE ENTRY(4) ALTRET;
      972     3184    1       DCL XSL$GETSOCK ENTRY(2) ALTRET;
      973     3185    1       DCL XSL$NTOHADDR ENTRY(2);
      974     3186    1       DCL XSL$SOCKPTR ENTRY(2) ALTRET;
      975     3187    1       DCL XSL$DCBNPTR ENTRY(2) ALTRET;
      976     3188
      977     3189    1       DCL XSL_ERRNO SBIN SYMREF;
      978     3190    1       DCL XSL_SOCK$ REDEF XSL_ERRNO PTR;
      979     3191    1       DCL XSL_KEYBUF$ PTR SYMREF READONLY;
      980     3192
      981     3193    1       DCL LDCTX SBIN;
      982     3194    1       DCL NAMELEN SBIN;
      983     3195    1       DCL QUICK BIT(1) UNAL;
      984     3196    1       DCL RESULT SBIN;
      985     3197    1       DCL NEWSOCK# SBIN;
PL6.E3A0      #005=XSL$ACCEPT File=XSL$SOCKET1.:TCA2TSI                          SUN 11/16/97 14:31 Page:112
      986     3198    1       DCL NEWSOCK$ PTR;
      987     3199    1       DCL SOCK# SBIN;
      988     3200    1       DCL SOCK$ PTR;
      989     3201
      990     3202    1       QUICK = '0'B;
      991     3203    1       CALL XSL$DCBNPTR( SOCK#, XSL_SOCK$) ALTRET( BAILOUT);
      992     3204    1       GOTO COMMON;
      993     3205
      994     3206    1   XSL$QACCEPT: ENTRY( RESULT, SOCK#, NAME, NAMELEN) ALTRET;
      995     3207
      996     3208    1       QUICK = '1'B;
      997     3209    1       CALL XSL$SOCKPTR( SOCK#, XSL_SOCK$) ALTRET( BAILOUT);
      998     3210    1   COMMON:
      999     3211    1       NEWSOCK# = -1;
     1000     3212    1       SOCK$ = XSL_SOCK$;
     1001     3213    2       IF SOCK.FLAGS.ACCEPTING THEN DO;
     1002     3214    2           NEWSOCK$ = SOCK.NBACCEPT_SOCK$;
     1003     3215    2           LDCTX = SOCK.NBACCEPT_LDCTX;
     1004     3216    2           GOTO SENDIT;
     1005     3217    2           END;
     1006     3218    2       IF NOT SOCK.FLAGS.LISTEN THEN DO;
     1007     3219    2           XSL_ERRNO = %E$INVAL;
     1008     3220    2   BAILOUT:
     1009     3221    3           IF XSL_ERRNO = %E$WOULDBLOCK AND NOT SOCK.FLAGS.BLOCKING THEN DO;
     1010     3222    3               SOCK.NBACCEPT_SOCK$ = NEWSOCK$;
     1011     3223    3               SOCK.NBACCEPT_LDCTX = LDCTX;
     1012     3224    3               END;
     1013     3225    2           ELSE
     1014     3226    2               CALL XSL$QCLOSE( RESULT, NEWSOCK#);
     1015     3227    2           RESULT = %E$FAILURE;
     1016     3228    2           ALTRETURN;
     1017     3229    2           END;
     1018     3230    1       CALL XSL$GETSOCK( NEWSOCK#, XSL_SOCK$) ALTRET( BAILOUT);
     1019     3231    1       NEWSOCK$ = XSL_SOCK$;
     1020     3232    1       NEWSOCK.TYPE = %XSL_SOCK_STREAM;
     1021     3233    1       NEWSOCK.FLAGS.BLOCKING = '1'B;
     1022     3234    1       NEWSOCK.SERNUM = SOCK.SERNUM;  /* inherit network number */
PL6.E3A0      #005=XSL$ACCEPT File=XSL$SOCKET1.:TCA2TSI                          SUN 11/16/97 14:31 Page:113
     1023     3235    1       NEWSOCK.SOCKNAME = SOCK.SOCKNAME;  /* inherit socket name */
     1024     3236    1       CALL XSL$CL_OPEN( NEWSOCK, NEWSOCK.SOCKNAME, 8) ALTRET( BAILOUTM1);
     1025     3237    1       XSL$GIVEUPRQS = XSL_GIVEUPRQS;
     1026     3238    1       CALL XSL$CL_WRITE( NEWSOCK, LENGTHC( XSL$GIVEUPRQS));
     1027     3239    1       NEWSOCK.FLAGS.MUSTREAD = '1'B;  /* force WAIT=YES read */
     1028     3240    1       CALL XSL$CL_READ( NEWSOCK) ALTRET( BAILOUT);
     1029     3241    1       LDCTX = XSL$GIVEUPRSP.XPSLDCTX;
     1030     3242    1       XSL$DETACHRQS = XSL_DETACHRQS;
     1031     3243    1       CALL XSL$CL_WRITE( NEWSOCK, LENGTHC( XSL$DETACHRQS));
     1032     3244    1   SENDIT:
     1033     3245    1       XSL$ACCEPTRQS = XSL_ACCEPTRQS;
     1034     3246    1       XSL$ACCEPTRQS.XPSLDCTX = LDCTX;
     1035     3247    1       CALL XSL$CL_WRITE( SOCK, LENGTHC( XSL$ACCEPTRQS));
     1036     3248    1       CALL XSL$CL_READ( SOCK);
     1037     3249    2       IF XSL$ACCEPTRSP.RESULT < 0 THEN DO;
     1038     3250    2           XSL_ERRNO = XSL$ACCEPTRSP.ERRNO;
     1039     3251    2           GOTO BAILOUT;
     1040     3252    2           END;
     1041     3253    1       CALL XSL$NTOHADDR( NEWSOCK.PEERNAME, XSL$ACCEPTRSP.NAME);
     1042     3254    2       IF ADDR( NAME) ~= ADDR( NIL) AND ADDR( NAMELEN) ~= ADDR( NIL) THEN DO;
     1043     3255    2           IF NAMELEN <= 0 THEN EXIT;
     1044     3256    2           NAMELEN = XSL$ACCEPTRSP.NAMELEN;
     1045     3257    2           NAME = NEWSOCK.PEERNAME;
     1046     3258    2           END;
     1047     3259    1       SOCK.FLAGS.ACCEPT = '1'B;
     1048     3260    1       NEWSOCK.FLAGS.SOCKET = '1'B;
     1049     3261    1       NEWSOCK.FLAGS.BIND = '1'B;
     1050     3262    1       NEWSOCK.FLAGS.CONNECT = '1'B;
     1051     3263    1       NEWSOCK.FLAGS.SELWRITE = '1'B;
     1052     3264    1       IF QUICK THEN
     1053     3265    1           RESULT = NEWSOCK#;
     1054     3266    1       ELSE
     1055     3267    1           RESULT = NEWSOCK.DCB#;
     1056     3268    1       RETURN;
     1057     3269    1   BAILOUTM1:
     1058     3270    1       NEWSOCK.FLAGS.TERMINATED = '1'B;  /* release new socket */
     1059     3271    1       XSL_ERRNO = %E$FAILURE;  /* make appl get err code from TCB */
PL6.E3A0      #005=XSL$ACCEPT File=XSL$SOCKET1.:TCA2TSI                          SUN 11/16/97 14:31 Page:114
     1060     3272    1       GOTO BAILOUT;
     1061     3273
     1062     3274    1   END XSL$ACCEPT;
     1063     3275        %EOD;

PL6.E3A0      #005=XSL$ACCEPT File=XSL$SOCKET1.:TCA2TSI                          SUN 11/16/97 14:31 Page:115
--  Include file information  --

   XSL_SOCKMSGS_M.:TCA2TOU  is referenced.
   XSL_SOCKMSGS_E.:TCA2TOU  is referenced.
   XSL_INTERNAL_M.:TCA2TOU  is referenced.
   XSL_PERR_C.:TCA2TOU  is referenced.
   XSL_SOCKET_M.:TCA2TOU  is referenced.
   XSL_SOCKET_E.:TCA2TOU  is referenced.
   B$JIT_C.:E05TOU  was found in the system file and is never referenced.
   CP_6_C.:E05TOU  was found in the system file and is never referenced.
      No diagnostics issued in procedure XSL$ACCEPT.

   Procedure XSL$ACCEPT requires 206 words for executable code.
   Procedure XSL$ACCEPT requires 16 words of local(AUTO) storage.

PL6.E3A0      #005=XSL$ACCEPT File=XSL$SOCKET1.:TCA2TSI                          SUN 11/16/97 14:31 Page:116

 Object Unit name= XSL$ACCEPT                                 File name= XSL$SOCKET1.:TCA2TOU
 UTS= NOV 16 '97 14:31:55.96 SUN                              Compiler= PL-6/E31         Sev=      00
 SharedLib= :SHARED_SYSTEM                                    Alt SharedLib=


    ****  Control sections  ****

 Sect   Type Bound  Init  Size OctSiz  Section name(segment info)
    0   Proc  even  none   206    316  XSL$ACCEPT
    1  RoData even  none     4      4  XSL$ACCEPT

    ****  Entry defs  ****

                              Check   Calling
                             calling  sequence
  Sect OctLoc Primary Altret sequence   type   Parms  Name
     0      0   yes    yes     yes      Std        4  XSL$ACCEPT
     0     13          yes     yes      Std        4  XSL$QACCEPT

  ****  Entry refs  ****

         Check        Calling
        calling       sequence
Altret sequence SRef   type   Args  Name
         yes          ~proc      0 XSL$MSGSDEFS
 yes     yes           Std       3 XSL$CL_OPEN
         yes           Std       2 XSL$NTOHADDR
 yes     yes           Std       2 XSL$DCBNPTR
 yes     yes           Std       2 XSL$SOCKPTR
 yes     yes           Std       4 XSL$CL_WRITE
 yes     yes           Std       2 XSL$QCLOSE
 yes     yes           Std       2 XSL$GETSOCK
 yes     yes           Std       3 XSL$CL_READ
                       nStd      0 X66_AUTO_4
                       Std       0 B_CONSPOOL_D
                       nStd      0 X66_AALT
                       nStd      0 X66_ARET
PL6.E3A0      #005=XSL$ACCEPT File=XSL$SOCKET1.:TCA2TSI                          SUN 11/16/97 14:31 Page:117

  ****  Data refs  ****

  Flags:  r = read only, s = secondary
Flgs Name                             Flgs Name                             Flgs Name
     XSL_GIVEUPRQS                         XSL_ACCEPTRQS                         XSL_DETACHRQS
     XSL_ERRNO                        r    XSL_KEYBUF$                           B_VECTNIL

  ****  Segment refs  ****

  Flags:  r = read only, s = secondary
Flgs Name                             Flgs Name                             Flgs Name
     ISSID
PL6.E3A0      #005=XSL$ACCEPT File=XSL$SOCKET1.:TCA2TSI                          SUN 11/16/97 14:31 Page:118


      838        1        /*T***********************************************************/
      839        2        /*T*                                                         */
      840        3        /*T* Copyright (c) Bull HN Information Systems Inc., 1997    */
      841        4        /*T*                                                         */
      842        5        /*T***********************************************************/
      843        6        /*F* NAME: accept() and XSL$ACCEPT  --  Accept an Incoming Connection Request
      844        7        ..::IT "Purpose:"
      845        8        .INL +4
      846        9        Accepts an incoming connection request from another socket elsewhere
      847       10        in the network.
      848       11        ..::IT "C Usage:"
      849       12        .INL 4
      850       13        .FIF
      851       14        status = accept( s, &name, &namelen );
      852       15        ..::IT "PL6 Usage:"
      853       16        .INL 4
      854       17        .FIF
      855       18        CALL XSL$ACCEPT( status, s, name, namelen );
      856       19        ..::IT "Parameters:"
      857       20        .INL 4
      858       21        .FIF
      859       22        s           integer socket descriptor
      860       23
      861       24        name        sockaddr structure
      862       25
      863       26        namelen     integer size of name in characters
      864       27        ..::IT "Results:"
      865       28        .INL 4
      866       29        .FIF
      867       30        status      integer new socket descriptor or error code
      868       31
      869       32        name        sockaddr structure
      870       33
      871       34        namelen     integer number of significant characters in name
      872       35        ..::IT "Description:"
      873       36        The accept() function takes the first item on the queue of pending
PL6.E3A0      #005=XSL$ACCEPT File=XSL$SOCKET1.:TCA2TSI                          SUN 11/16/97 14:31 Page:119
      874       37        connection requests, allocates a new socket for it with the same
      875       38        attributes as socket s, and returns the new descriptor.
      876       39        .SPB
      877       40        The s parameter specifies the descriptor of the socket on which to accept.
      878       41        .SPB
      879       42        The name parameter specifies an application-defined buffer to receive the
      880       43        address of the socket that initiated the connection.
      881       44        .SPB
      882       45        The namelen parameter specifies how large the name buffer is, expressed as
      883       46        the number of characters it can hold.
      884       47        .SPB
      885       48        If the accept() function is successful, the status result contains the
      886       49        descriptor of the new socket allocated for the new connection.  The
      887       50        descriptor is a small non-negative integer, equivalent to the DCBNUM of the
      888       51        DCB allocated for the new socket.  The name and namelen parameters are
      889       52        modified to identify the initiator of the connection request.
      890       53        .SPB
      891       54        If the accept() function is unsuccessful, the status result contains
      892       55        EFAILURE or E$FAILURE and the application must inspect errno or XSL_ERRNO
      893       56        to determine the specific error condition.  The XSL$ACCEPT procedure
      894       57        additionally ALTRETURNs if it is unsuccessful; it is otherwise identical
      895       58        to the accept() function.
      896       59        .SPB
      897       60        If no connection requests are pending when accept() is invoked, the action
      898       61        taken depends on the socket mode.  The mode of a socket is defined to be
      899       62        either "blocking" or "nonblocking".  If the socket is blocking (which is
      900       63        the default mode) the application is blocked (i.e., suspended) until an
      901       64        incoming connection request is received from the network.  If the
      902       65        socket is nonblocking, the condition is treated as an EWOULDBLOCK error.
      903       66        ..::IX "blocking"
      904       67        ..::IX "non-blocking"
      905       68        .SPB
      906       69        The mode of a socket can be changed with either fcntl() or ioctl().
      907       70        .SPB
      908       71        The accept() function applies only to "stream" sockets.
      909       72        ..::IT "Errors:"
      910       73        Following are the possible error conditions reported when the accept()
PL6.E3A0      #005=XSL$ACCEPT File=XSL$SOCKET1.:TCA2TSI                          SUN 11/16/97 14:31 Page:120
      911       74        function is unsuccessful.  Equates for the possible values can be found in
      912       75        <xsl_errno.h> or XSL_PERR_C for C and PL6 source, respectively.
      913       76
      914       77        .FIF
      915       78
      916       79        C #define               PL6 %EQU
      917       80        ----------------------- -----------------------
      918       81        EBADF                   E$BADF
      919       82        .FIN
      920       83        The descriptor s is inappropriate to identify a socket.
      921       84        .FIF
      922       85
      923       86        EINVAL                  E$INVAL
      924       87        .FIN
      925       88        The listen() function has not been invoked for this socket.
      926       89        .FIF
      927       90
      928       91        EMFILE                  E$MFILE
      929       92        .FIN
      930       93        M$GETDCB failed.  Unable to allocate DCB for new socket.
      931       94        .FIF
      932       95
      933       96        ENOTSOCK                E$NOTSOCK
      934       97        .FIN
      935       98        The descriptor s is no longer valid to identify a socket.
      936       99        .FIF
      937      100
      938      101        EOPNOTSUPP              E$OPNOTSUPP
      939      102        .FIN
      940      103        This is not a "stream" socket.
      941      104        .FIF
      942      105
      943      106        EWOULDBLOCK             E$WOULDBLOCK
      944      107        .FIN
      945      108        No connections are pending for this nonblocking socket.
      946      109        .FIF
      947      110        */
PL6.E3A0      #005=XSL$ACCEPT File=XSL$SOCKET1.:TCA2TSI                          SUN 11/16/97 14:31 Page:121
      948      111        XSL$ACCEPT: PROC( RESULT, SOCK#, NAME, NAMELEN) ALTRET;

    111  0 000000   000000 700200 xent  XSL$ACCEPT   TSX0  ! X66_AUTO_4
         0 000001   000020 000004                    ZERO    16,4

      949      112        %INCLUDE XSL_SOCKET_E;
      950      370        %INCLUDE XSL_SOCKET_M;
      951     1131            %XSL$SOCKADDR( FPTN=NAME, STCLASS=);
      952     1171        %INCLUDE XSL_PERR_C;
      953     1226        %INCLUDE XSL_INTERNAL_M;
      954     1477            %XSL$SOCKINFO( FPTN=SOCK, STCLASS="BASED( SOCK$)");
      955     1621            %XSL$SOCKINFO( FPTN=NEWSOCK, STCLASS="BASED( NEWSOCK$)");
      956     1765        %INCLUDE XSL_SOCKMSGS_E;
      957     1811        %INCLUDE XSL_SOCKMSGS_M;
      958     2944            %XSL_REFMSGS;
      959     2947            %XSL$GIVEUPRQS( FPTN=XSL_GIVEUPRQS, STCLASS=SYMREF);
      960     2972            %XSL$GIVEUPRQS( STCLASS="BASED( XSL_KEYBUF$)");
      961     2997            %XSL$GIVEUPRSP( STCLASS="BASED( XSL_KEYBUF$)");
      962     3023            %XSL$ACCEPTRQS( FPTN=XSL_ACCEPTRQS, STCLASS=SYMREF);
      963     3049            %XSL$ACCEPTRQS( STCLASS="BASED( XSL_KEYBUF$)");
      964     3075            %XSL$ACCEPTRSP( STCLASS="BASED( XSL_KEYBUF$)");
      965     3129            %XSL$DETACHRQS( FPTN=XSL_DETACHRQS, STCLASS=SYMREF);
      966     3154            %XSL$DETACHRQS( STCLASS="BASED( XSL_KEYBUF$)");
      967     3179
      968     3180    1       DCL XSL$QCLOSE ENTRY(2) ALTRET;
      969     3181    1       DCL XSL$CL_OPEN ENTRY(3) ALTRET;
      970     3182    1       DCL XSL$CL_READ ENTRY(3) ALTRET;
      971     3183    1       DCL XSL$CL_WRITE ENTRY(4) ALTRET;
      972     3184    1       DCL XSL$GETSOCK ENTRY(2) ALTRET;
      973     3185    1       DCL XSL$NTOHADDR ENTRY(2);
      974     3186    1       DCL XSL$SOCKPTR ENTRY(2) ALTRET;
      975     3187    1       DCL XSL$DCBNPTR ENTRY(2) ALTRET;
      976     3188
      977     3189    1       DCL XSL_ERRNO SBIN SYMREF;
      978     3190    1       DCL XSL_SOCK$ REDEF XSL_ERRNO PTR;
      979     3191    1       DCL XSL_KEYBUF$ PTR SYMREF READONLY;
      980     3192
PL6.E3A0      #005=XSL$ACCEPT File=XSL$SOCKET1.:TCA2TSI                          SUN 11/16/97 14:31 Page:122
      981     3193    1       DCL LDCTX SBIN;
      982     3194    1       DCL NAMELEN SBIN;
      983     3195    1       DCL QUICK BIT(1) UNAL;
      984     3196    1       DCL RESULT SBIN;
      985     3197    1       DCL NEWSOCK# SBIN;
      986     3198    1       DCL NEWSOCK$ PTR;
      987     3199    1       DCL SOCK# SBIN;
      988     3200    1       DCL SOCK$ PTR;
      989     3201
      990     3202    1       QUICK = '0'B;

   3202  0 000002   200010 450100                    STZ     QUICK,,AUTO

      991     3203    1       CALL XSL$DCBNPTR( SOCK#, XSL_SOCK$) ALTRET( BAILOUT);

   3203  0 000003   000000 236000 1                  LDQ     0
         0 000004   200004 235100                    LDA     @SOCK#,,AUTO
         0 000005   200014 757100                    STAQ    SOCK$+1,,AUTO
         0 000006   200014 630500                    EPPR0   SOCK$+1,,AUTO
         0 000007   000020 631400 xsym               EPPR1   B_VECTNIL+16
         0 000010   000000 701000 xent               TSX1    XSL$DCBNPTR
         0 000011   000047 702000 0                  TSX2    BAILOUT

      992     3204    1       GOTO COMMON;

   3204  0 000012   000026 710000 0                  TRA     COMMON

      993     3205
      994     3206    1   XSL$QACCEPT: ENTRY( RESULT, SOCK#, NAME, NAMELEN) ALTRET;

   3206  0 000013   000000 700200 xent  XSL$QACCEPT  TSX0  ! X66_AUTO_4
         0 000014   000020 000004                    ZERO    16,4

      995     3207
      996     3208    1       QUICK = '1'B;

   3208  0 000015   400000 236003                    LDQ     -131072,DU
PL6.E3A0      #005=XSL$ACCEPT File=XSL$SOCKET1.:TCA2TSI                          SUN 11/16/97 14:31 Page:123
         0 000016   200010 756100                    STQ     QUICK,,AUTO

      997     3209    1       CALL XSL$SOCKPTR( SOCK#, XSL_SOCK$) ALTRET( BAILOUT);

   3209  0 000017   000000 236000 1                  LDQ     0
         0 000020   200004 235100                    LDA     @SOCK#,,AUTO
         0 000021   200014 757100                    STAQ    SOCK$+1,,AUTO
         0 000022   200014 630500                    EPPR0   SOCK$+1,,AUTO
         0 000023   000020 631400 xsym               EPPR1   B_VECTNIL+16
         0 000024   000000 701000 xent               TSX1    XSL$SOCKPTR
         0 000025   000047 702000 0                  TSX2    BAILOUT

      998     3210    1   COMMON:
      999     3211    1       NEWSOCK# = -1;

   3211  0 000026   000001 335007       COMMON       LCA     1,DL
         0 000027   200011 755100                    STA     NEWSOCK#,,AUTO

     1000     3212    1       SOCK$ = XSL_SOCK$;

   3212  0 000030   000000 236000 xsym               LDQ     XSL_ERRNO
         0 000031   200013 756100                    STQ     SOCK$,,AUTO

     1001     3213    2       IF SOCK.FLAGS.ACCEPTING THEN DO;

   3213  0 000032   200013 470500                    LDP0    SOCK$,,AUTO
         0 000033   000001 236100                    LDQ     1,,PR0
         0 000034   000100 316003                    CANQ    64,DU
         0 000035   000043 600000 0                  TZE     s:3218

     1002     3214    2           NEWSOCK$ = SOCK.NBACCEPT_SOCK$;

   3214  0 000036   000022 236100                    LDQ     18,,PR0
         0 000037   200012 756100                    STQ     NEWSOCK$,,AUTO

     1003     3215    2           LDCTX = SOCK.NBACCEPT_LDCTX;

PL6.E3A0      #005=XSL$ACCEPT File=XSL$SOCKET1.:TCA2TSI                          SUN 11/16/97 14:31 Page:124
   3215  0 000040   000023 235100                    LDA     19,,PR0
         0 000041   200007 755100                    STA     LDCTX,,AUTO

     1004     3216    2           GOTO SENDIT;

   3216  0 000042   000175 710000 0                  TRA     SENDIT

     1005     3217    2           END;
     1006     3218    2       IF NOT SOCK.FLAGS.LISTEN THEN DO;

   3218  0 000043   010000 316003                    CANQ    4096,DU
         0 000044   000076 601000 0                  TNZ     s:3230

     1007     3219    2           XSL_ERRNO = %E$INVAL;

   3219  0 000045   000026 235007                    LDA     22,DL
         0 000046   000000 755000 xsym               STA     XSL_ERRNO

     1008     3220    2   BAILOUT:
     1009     3221    3           IF XSL_ERRNO = %E$WOULDBLOCK AND NOT SOCK.FLAGS.BLOCKING THEN DO;

   3221  0 000047   000000 235000 xsym  BAILOUT      LDA     XSL_ERRNO
         0 000050   000136 115007                    CMPA    94,DL
         0 000051   000062 601000 0                  TNZ     s:3226
         0 000052   200013 470500                    LDP0    SOCK$,,AUTO
         0 000053   000001 430100                    FSZN    1,,PR0
         0 000054   000062 604000 0                  TMI     s:3226

     1010     3222    3               SOCK.NBACCEPT_SOCK$ = NEWSOCK$;

   3222  0 000055   200012 236100                    LDQ     NEWSOCK$,,AUTO
         0 000056   000022 756100                    STQ     18,,PR0

     1011     3223    3               SOCK.NBACCEPT_LDCTX = LDCTX;

   3223  0 000057   200007 235100                    LDA     LDCTX,,AUTO
         0 000060   000023 755100                    STA     19,,PR0
PL6.E3A0      #005=XSL$ACCEPT File=XSL$SOCKET1.:TCA2TSI                          SUN 11/16/97 14:31 Page:125

     1012     3224    3               END;

   3224  0 000061   000072 710000 0                  TRA     s:3227

     1013     3225    2           ELSE
     1014     3226    2               CALL XSL$QCLOSE( RESULT, NEWSOCK#);

   3226  0 000062   200011 630500                    EPPR0   NEWSOCK#,,AUTO
         0 000063   200015 450500                    STP0    SOCK$+2,,AUTO
         0 000064   200003 236100                    LDQ     @RESULT,,AUTO
         0 000065   200014 756100                    STQ     SOCK$+1,,AUTO
         0 000066   200014 630500                    EPPR0   SOCK$+1,,AUTO
         0 000067   000020 631400 xsym               EPPR1   B_VECTNIL+16
         0 000070   000000 701000 xent               TSX1    XSL$QCLOSE
         0 000071   000000 011000                    NOP     0

     1015     3227    2           RESULT = %E$FAILURE;

   3227  0 000072   000001 335007                    LCA     1,DL
         0 000073   200003 470500                    LDP0    @RESULT,,AUTO
         0 000074   000000 755100                    STA     0,,PR0

     1016     3228    2           ALTRETURN;

   3228  0 000075   000000 702200 xent               TSX2  ! X66_AALT

     1017     3229    2           END;
     1018     3230    1       CALL XSL$GETSOCK( NEWSOCK#, XSL_SOCK$) ALTRET( BAILOUT);

   3230  0 000076   000000 236000 1                  LDQ     0
         0 000077   200015 756100                    STQ     SOCK$+2,,AUTO
         0 000100   200011 631500                    EPPR1   NEWSOCK#,,AUTO
         0 000101   200014 451500                    STP1    SOCK$+1,,AUTO
         0 000102   200014 630500                    EPPR0   SOCK$+1,,AUTO
         0 000103   000020 631400 xsym               EPPR1   B_VECTNIL+16
         0 000104   000000 701000 xent               TSX1    XSL$GETSOCK
PL6.E3A0      #005=XSL$ACCEPT File=XSL$SOCKET1.:TCA2TSI                          SUN 11/16/97 14:31 Page:126
         0 000105   000047 702000 0                  TSX2    BAILOUT

     1019     3231    1       NEWSOCK$ = XSL_SOCK$;

   3231  0 000106   000000 236000 xsym               LDQ     XSL_ERRNO
         0 000107   200012 756100                    STQ     NEWSOCK$,,AUTO

     1020     3232    1       NEWSOCK.TYPE = %XSL_SOCK_STREAM;

   3232  0 000110   200012 470500                    LDP0    NEWSOCK$,,AUTO
         0 000111   000001 236003                    LDQ     1,DU
         0 000112   000000 552120                    STBQ    0,'20'O,PR0

     1021     3233    1       NEWSOCK.FLAGS.BLOCKING = '1'B;

   3233  0 000113   001000 236003                    LDQ     512,DU
         0 000114   000001 256100                    ORSQ    1,,PR0

     1022     3234    1       NEWSOCK.SERNUM = SOCK.SERNUM;  /* inherit network number */

   3234  0 000115   200013 471500                    LDP1    SOCK$,,AUTO
         0 000116   040100 100500                    MLR     fill='040'O
         0 000117   100002 000006                    ADSC9   2,,PR1                   cn=0,n=6
         0 000120   000002 000006                    ADSC9   2,,PR0                   cn=0,n=6

     1023     3235    1       NEWSOCK.SOCKNAME = SOCK.SOCKNAME;  /* inherit socket name */

   3235  0 000121   000100 100500                    MLR     fill='000'O
         0 000122   100004 000024                    ADSC9   4,,PR1                   cn=0,n=20
         0 000123   000004 000024                    ADSC9   4,,PR0                   cn=0,n=20

     1024     3236    1       CALL XSL$CL_OPEN( NEWSOCK, NEWSOCK.SOCKNAME, 8) ALTRET( BAILOUTM1);

   3236  0 000124   000001 236000 1                  LDQ     1
         0 000125   200016 756100                    STQ     SOCK$+3,,AUTO
         0 000126   200012 236100                    LDQ     NEWSOCK$,,AUTO
         0 000127   000004 036003                    ADLQ    4,DU
PL6.E3A0      #005=XSL$ACCEPT File=XSL$SOCKET1.:TCA2TSI                          SUN 11/16/97 14:31 Page:127
         0 000130   200012 235100                    LDA     NEWSOCK$,,AUTO
         0 000131   200014 757100                    STAQ    SOCK$+1,,AUTO
         0 000132   200014 630500                    EPPR0   SOCK$+1,,AUTO
         0 000133   000021 631400 xsym               EPPR1   B_VECTNIL+17
         0 000134   000000 701000 xent               TSX1    XSL$CL_OPEN
         0 000135   000310 702000 0                  TSX2    BAILOUTM1

     1025     3237    1       XSL$GIVEUPRQS = XSL_GIVEUPRQS;

   3237  0 000136   000000 220000 xsym               LDX0    XSL_GIVEUPRQS
         0 000137   000000 470400 xsym               LDP0    XSL_KEYBUF$
         0 000140   000000 740100                    STX0    0,,PR0

     1026     3238    1       CALL XSL$CL_WRITE( NEWSOCK, LENGTHC( XSL$GIVEUPRQS));

   3238  0 000141   000002 236000 1                  LDQ     2
         0 000142   200012 235100                    LDA     NEWSOCK$,,AUTO
         0 000143   200014 757100                    STAQ    SOCK$+1,,AUTO
         0 000144   200014 630500                    EPPR0   SOCK$+1,,AUTO
         0 000145   000020 631400 xsym               EPPR1   B_VECTNIL+16
         0 000146   000000 701000 xent               TSX1    XSL$CL_WRITE
         0 000147   000000 011000                    NOP     0

     1027     3239    1       NEWSOCK.FLAGS.MUSTREAD = '1'B;  /* force WAIT=YES read */

   3239  0 000150   200012 470500                    LDP0    NEWSOCK$,,AUTO
         0 000151   000001 236003                    LDQ     1,DU
         0 000152   000001 256100                    ORSQ    1,,PR0

     1028     3240    1       CALL XSL$CL_READ( NEWSOCK) ALTRET( BAILOUT);

   3240  0 000153   200012 630500                    EPPR0   NEWSOCK$,,AUTO
         0 000154   000017 631400 xsym               EPPR1   B_VECTNIL+15
         0 000155   000000 701000 xent               TSX1    XSL$CL_READ
         0 000156   000047 702000 0                  TSX2    BAILOUT

     1029     3241    1       LDCTX = XSL$GIVEUPRSP.XPSLDCTX;
PL6.E3A0      #005=XSL$ACCEPT File=XSL$SOCKET1.:TCA2TSI                          SUN 11/16/97 14:31 Page:128

   3241  0 000157   000000 470400 xsym               LDP0    XSL_KEYBUF$
         0 000160   000000 236100                    LDQ     0,,PR0
         0 000161   000022 736000                    QLS     18
         0 000162   000022 732000                    QRS     18
         0 000163   200007 756100                    STQ     LDCTX,,AUTO

     1030     3242    1       XSL$DETACHRQS = XSL_DETACHRQS;

   3242  0 000164   000000 220000 xsym               LDX0    XSL_DETACHRQS
         0 000165   000000 740100                    STX0    0,,PR0

     1031     3243    1       CALL XSL$CL_WRITE( NEWSOCK, LENGTHC( XSL$DETACHRQS));

   3243  0 000166   000002 236000 1                  LDQ     2
         0 000167   200012 235100                    LDA     NEWSOCK$,,AUTO
         0 000170   200014 757100                    STAQ    SOCK$+1,,AUTO
         0 000171   200014 630500                    EPPR0   SOCK$+1,,AUTO
         0 000172   000020 631400 xsym               EPPR1   B_VECTNIL+16
         0 000173   000000 701000 xent               TSX1    XSL$CL_WRITE
         0 000174   000000 011000                    NOP     0

     1032     3244    1   SENDIT:
     1033     3245    1       XSL$ACCEPTRQS = XSL_ACCEPTRQS;

   3245  0 000175   000000 236000 xsym  SENDIT       LDQ     XSL_ACCEPTRQS
         0 000176   000000 470400 xsym               LDP0    XSL_KEYBUF$
         0 000177   000000 756100                    STQ     0,,PR0

     1034     3246    1       XSL$ACCEPTRQS.XPSLDCTX = LDCTX;

   3246  0 000200   200007 720100                    LXL0    LDCTX,,AUTO
         0 000201   000000 440100                    SXL0    0,,PR0

     1035     3247    1       CALL XSL$CL_WRITE( SOCK, LENGTHC( XSL$ACCEPTRQS));

   3247  0 000202   000003 236000 1                  LDQ     3
PL6.E3A0      #005=XSL$ACCEPT File=XSL$SOCKET1.:TCA2TSI                          SUN 11/16/97 14:31 Page:129
         0 000203   200013 235100                    LDA     SOCK$,,AUTO
         0 000204   200014 757100                    STAQ    SOCK$+1,,AUTO
         0 000205   200014 630500                    EPPR0   SOCK$+1,,AUTO
         0 000206   000020 631400 xsym               EPPR1   B_VECTNIL+16
         0 000207   000000 701000 xent               TSX1    XSL$CL_WRITE
         0 000210   000000 011000                    NOP     0

     1036     3248    1       CALL XSL$CL_READ( SOCK);

   3248  0 000211   200013 630500                    EPPR0   SOCK$,,AUTO
         0 000212   000017 631400 xsym               EPPR1   B_VECTNIL+15
         0 000213   000000 701000 xent               TSX1    XSL$CL_READ
         0 000214   000000 011000                    NOP     0

     1037     3249    2       IF XSL$ACCEPTRSP.RESULT < 0 THEN DO;

   3249  0 000215   000000 470400 xsym               LDP0    XSL_KEYBUF$
         0 000216   000000 720100                    LXL0    0,,PR0
         0 000217   000224 605000 0                  TPL     s:3253

     1038     3250    2           XSL_ERRNO = XSL$ACCEPTRSP.ERRNO;

   3250  0 000220   000001 236100                    LDQ     1,,PR0
         0 000221   000022 732000                    QRS     18
         0 000222   000000 756000 xsym               STQ     XSL_ERRNO

     1039     3251    2           GOTO BAILOUT;

   3251  0 000223   000047 710000 0                  TRA     BAILOUT

     1040     3252    2           END;
     1041     3253    1       CALL XSL$NTOHADDR( NEWSOCK.PEERNAME, XSL$ACCEPTRSP.NAME);

   3253  0 000224   000000 236000 xsym               LDQ     XSL_KEYBUF$
         0 000225   000002 036003                    ADLQ    2,DU
         0 000226   200015 756100                    STQ     SOCK$+2,,AUTO
         0 000227   200012 236100                    LDQ     NEWSOCK$,,AUTO
PL6.E3A0      #005=XSL$ACCEPT File=XSL$SOCKET1.:TCA2TSI                          SUN 11/16/97 14:31 Page:130
         0 000230   000011 036003                    ADLQ    9,DU
         0 000231   200014 756100                    STQ     SOCK$+1,,AUTO
         0 000232   200014 630500                    EPPR0   SOCK$+1,,AUTO
         0 000233   000020 631400 xsym               EPPR1   B_VECTNIL+16
         0 000234   000000 701000 xent               TSX1    XSL$NTOHADDR
         0 000235   000000 011000                    NOP     0

     1042     3254    2       IF ADDR( NAME) ~= ADDR( NIL) AND ADDR( NAMELEN) ~= ADDR( NIL) THEN DO;

   3254  0 000236   200005 236100                    LDQ     @NAME,,AUTO
         0 000237   000001 116000 xsym               CMPQ    B_VECTNIL+1
         0 000240   000261 600000 0                  TZE     s:3259
         0 000241   200006 236100                    LDQ     @NAMELEN,,AUTO
         0 000242   000001 116000 xsym               CMPQ    B_VECTNIL+1
         0 000243   000261 600000 0                  TZE     s:3259

     1043     3255    2           IF NAMELEN <= 0 THEN EXIT;

   3255  0 000244   200006 470500                    LDP0    @NAMELEN,,AUTO
         0 000245   000000 235100                    LDA     0,,PR0
         0 000246   000261 604400 0                  TMOZ    s:3259

     1044     3256    2           NAMELEN = XSL$ACCEPTRSP.NAMELEN;

   3256  0 000247   000000 471400 xsym               LDP1    XSL_KEYBUF$
         0 000250   100001 236100                    LDQ     1,,PR1
         0 000251   000022 736000                    QLS     18
         0 000252   000022 732000                    QRS     18
         0 000253   000000 756100                    STQ     0,,PR0

     1045     3257    2           NAME = NEWSOCK.PEERNAME;

   3257  0 000254   200012 473500                    LDP3    NEWSOCK$,,AUTO
         0 000255   200005 474500                    LDP4    @NAME,,AUTO
         0 000256   000100 100500                    MLR     fill='000'O
         0 000257   300011 000024                    ADSC9   9,,PR3                   cn=0,n=20
         0 000260   400000 000024                    ADSC9   0,,PR4                   cn=0,n=20
PL6.E3A0      #005=XSL$ACCEPT File=XSL$SOCKET1.:TCA2TSI                          SUN 11/16/97 14:31 Page:131

     1046     3258    2           END;

     1047     3259    1       SOCK.FLAGS.ACCEPT = '1'B;

   3259  0 000261   200013 470500                    LDP0    SOCK$,,AUTO
         0 000262   020000 236003                    LDQ     8192,DU
         0 000263   000001 256100                    ORSQ    1,,PR0

     1048     3260    1       NEWSOCK.FLAGS.SOCKET = '1'B;

   3260  0 000264   200012 471500                    LDP1    NEWSOCK$,,AUTO
         0 000265   002000 236003                    LDQ     1024,DU
         0 000266   100001 256100                    ORSQ    1,,PR1

     1049     3261    1       NEWSOCK.FLAGS.BIND = '1'B;

   3261  0 000267   004000 236003                    LDQ     2048,DU
         0 000270   100001 256100                    ORSQ    1,,PR1

     1050     3262    1       NEWSOCK.FLAGS.CONNECT = '1'B;

   3262  0 000271   040000 236003                    LDQ     16384,DU
         0 000272   100001 256100                    ORSQ    1,,PR1

     1051     3263    1       NEWSOCK.FLAGS.SELWRITE = '1'B;

   3263  0 000273   000020 236003                    LDQ     16,DU
         0 000274   100001 256100                    ORSQ    1,,PR1

     1052     3264    1       IF QUICK THEN

   3264  0 000275   200010 234100                    SZN     QUICK,,AUTO
         0 000276   000303 605000 0                  TPL     s:3267

     1053     3265    1           RESULT = NEWSOCK#;

PL6.E3A0      #005=XSL$ACCEPT File=XSL$SOCKET1.:TCA2TSI                          SUN 11/16/97 14:31 Page:132
   3265  0 000277   200003 473500                    LDP3    @RESULT,,AUTO
         0 000300   200011 235100                    LDA     NEWSOCK#,,AUTO
         0 000301   300000 755100                    STA     0,,PR3
         0 000302   000307 710000 0                  TRA     s:3268

     1054     3266    1       ELSE
     1055     3267    1           RESULT = NEWSOCK.DCB#;

   3267  0 000303   100003 236100                    LDQ     3,,PR1
         0 000304   777777 376007                    ANQ     -1,DL
         0 000305   200003 473500                    LDP3    @RESULT,,AUTO
         0 000306   300000 756100                    STQ     0,,PR3

     1056     3268    1       RETURN;

   3268  0 000307   000000 702200 xent               TSX2  ! X66_ARET

     1057     3269    1   BAILOUTM1:
     1058     3270    1       NEWSOCK.FLAGS.TERMINATED = '1'B;  /* release new socket */

   3270  0 000310   200012 470500       BAILOUTM1    LDP0    NEWSOCK$,,AUTO
         0 000311   400000 236003                    LDQ     -131072,DU
         0 000312   000001 256100                    ORSQ    1,,PR0

     1059     3271    1       XSL_ERRNO = %E$FAILURE;  /* make appl get err code from TCB */

   3271  0 000313   000001 335007                    LCA     1,DL
         0 000314   000000 755000 xsym               STA     XSL_ERRNO

     1060     3272    1       GOTO BAILOUT;

   3272  0 000315   000047 710000 0                  TRA     BAILOUT

(unnamed)
 Sect OctLoc
   1     000   000000 006000   000012 006000   000004 006000   000006 006000    ................
     1061     3273
PL6.E3A0      #005=XSL$ACCEPT File=XSL$SOCKET1.:TCA2TSI                          SUN 11/16/97 14:31 Page:133
     1062     3274    1   END XSL$ACCEPT;
     1063     3275        %EOD;

PL6.E3A0      #005=XSL$ACCEPT File=XSL$SOCKET1.:TCA2TSI                          SUN 11/16/97 14:31 Page:134
--  Include file information  --

   XSL_SOCKMSGS_M.:TCA2TOU  is referenced.
   XSL_SOCKMSGS_E.:TCA2TOU  is referenced.
   XSL_INTERNAL_M.:TCA2TOU  is referenced.
   XSL_PERR_C.:TCA2TOU  is referenced.
   XSL_SOCKET_M.:TCA2TOU  is referenced.
   XSL_SOCKET_E.:TCA2TOU  is referenced.
   B$JIT_C.:E05TOU  was found in the system file and is never referenced.
   CP_6_C.:E05TOU  was found in the system file and is never referenced.
      No diagnostics issued in procedure XSL$ACCEPT.
PL6.E3A0      #005=XSL$ACCEPT File=XSL$SOCKET1.:TCA2TSI                          SUN 11/16/97 14:31 Page:135

 **** Variables and constants ****

  ****  Auto variables  ****

  ****  Scalars and arrays  ****
OctLoc.c.b A Datatyp(siz) R M Lvl/name                 OctLoc.c.b A Datatyp(siz) R M Lvl/name

     5-0-0/w PTR         r     1 @NAME                      6-0-0/w PTR         r     1 @NAMELEN
     3-0-0/w PTR         r     1 @RESULT                    4-0-0/w PTR         r     1 @SOCK#
     7-0-0/w SBIN        r     1 LDCTX                     *0-0-0/w STRC(180)   r     1 NAME
    *0-0-0/w SBIN        r     1 NAMELEN                   11-0-0/w SBIN        r     1 NEWSOCK#
    12-0-0/w PTR         r     1 NEWSOCK$                  10-0-0/b BIT         r     1 QUICK
    *0-0-0/w SBIN        r     1 RESULT                    *0-0-0/w SBIN        r     1 SOCK#
    13-0-0/w PTR         r     1 SOCK$

  ****  SYMREF variables  ****

  ****  Scalars and arrays  ****
OctLoc.c.b A Datatyp(siz) R M Lvl/name                 OctLoc.c.b A Datatyp(siz) R M Lvl/name

     0-0-0/w STRC        r     1 XSL_ACCEPTRQS              0-0-0/w STRC(18)    r     1 XSL_DETACHRQS
     0-0-0/w SBIN        r     1 XSL_ERRNO                  0-0-0/w STRC(18)    r     1 XSL_GIVEUPRQS
     0-0-0/w PTR         r     1 XSL_KEYBUF$                0-0-0/w PTR         r     1 XSL_SOCK$

  ****  BASED and DCB variables  ****

  ****  Scalars and arrays  ****
OctLoc.c.b A Datatyp(siz) R M Lvl/name                 OctLoc.c.b A Datatyp(siz) R M Lvl/name

     0-0-0/w STRC(720)   r     1 NEWSOCK                    0-0-0/w STRC(720)   r     1 SOCK
     0-0-0/w STRC        r     1 XSL$ACCEPTRQS              0-0-0/w STRC(216)   r     1 XSL$ACCEPTRSP
     0-0-0/w STRC(18)    r     1 XSL$DETACHRQS              0-0-0/w STRC(18)    r     1 XSL$GIVEUPRQS
     0-0-0/w STRC        r     1 XSL$GIVEUPRSP


   Procedure XSL$ACCEPT requires 206 words for executable code.
PL6.E3A0      #005=XSL$ACCEPT File=XSL$SOCKET1.:TCA2TSI                          SUN 11/16/97 14:31 Page:136
   Procedure XSL$ACCEPT requires 16 words of local(AUTO) storage.
PL6.E3A0      #005=XSL$ACCEPT File=XSL$SOCKET1.:TCA2TSI                          SUN 11/16/97 14:31 Page:137
          *** CROSS REFERENCE LISTING ***
**     DENOTES     IDENTIFIER DEFINITION
<<                 IDENTIFIER'S VALUE SET
>>                 IDENTIFIER'S VALUE USED
<>                 IDENTIFIER SET AND/OR USED
--                 IDENTIFIER REFERENCED
PL6.E3A0      #005=XSL$ACCEPT File=XSL$SOCKET1.:TCA2TSI                          SUN 11/16/97 14:31 Page:138
          MINI XREF LISTING

BAILOUT
      3221**LABEL    3203--CALLALT  3209--CALLALT  3230--CALLALT  3240--CALLALT  3251--GOTO     3272--GOTO
BAILOUTM1
      3270**LABEL    3236--CALLALT
COMMON
      3211**LABEL    3204--GOTO
LDCTX
      3193**DCL      3215<<ASSIGN   3223>>ASSIGN   3241<<ASSIGN   3246>>ASSIGN
NAME
      1148**DCL       111--PROC     3206--ENTRY    3254--IF       3257<<ASSIGN
NAMELEN
      3194**DCL       111--PROC     3206--ENTRY    3254--IF       3255>>IF       3256<<ASSIGN
NEWSOCK
      1639**DCL      3236<>CALL     3238<>CALL     3240<>CALL     3243<>CALL
NEWSOCK.DCB#
      1672**DCL      3267>>ASSIGN
NEWSOCK.FLAGS.BIND
      1656**DCL      3261<<ASSIGN
NEWSOCK.FLAGS.BLOCKING
      1658**DCL      3233<<ASSIGN
NEWSOCK.FLAGS.CONNECT
      1653**DCL      3262<<ASSIGN
NEWSOCK.FLAGS.MUSTREAD
      1667**DCL      3239<<ASSIGN
NEWSOCK.FLAGS.SELWRITE
      1663**DCL      3263<<ASSIGN
NEWSOCK.FLAGS.SOCKET
      1657**DCL      3260<<ASSIGN
NEWSOCK.FLAGS.TERMINATED
      1650**DCL      3270<<ASSIGN
NEWSOCK.NBACCEPT_SOCK$
      1761**DCL      1762--REDEF
PL6.E3A0      #005=XSL$ACCEPT File=XSL$SOCKET1.:TCA2TSI                          SUN 11/16/97 14:31 Page:139
NEWSOCK.PEERNAME
      1732**DCL      3253<>CALL     3257>>ASSIGN
NEWSOCK.SERNUM
      1671**DCL      3234<<ASSIGN
NEWSOCK.SOCKNAME
      1692**DCL      3235<<ASSIGN   3236<>CALL
NEWSOCK.TYPE
      1646**DCL      3232<<ASSIGN
NEWSOCK#
      3197**DCL      3211<<ASSIGN   3226<>CALL     3230<>CALL     3265>>ASSIGN
NEWSOCK$
      3198**DCL      1639--IMP-PTR  3214<<ASSIGN   3222>>ASSIGN   3231<<ASSIGN   3232>>ASSIGN   3233>>ASSIGN
      3234>>ASSIGN   3235>>ASSIGN   3236>>CALL     3236>>CALL     3238>>CALL     3239>>ASSIGN   3240>>CALL
      3243>>CALL     3253>>CALL     3257>>ASSIGN   3260>>ASSIGN   3261>>ASSIGN   3262>>ASSIGN   3263>>ASSIGN
      3267>>ASSIGN   3270>>ASSIGN
QUICK
      3195**DCL      3202<<ASSIGN   3208<<ASSIGN   3264>>IF
RESULT
      3196**DCL       111--PROC     3206--ENTRY    3226<>CALL     3227<<ASSIGN   3265<<ASSIGN   3267<<ASSIGN
SENDIT
      3245**LABEL    3216--GOTO
SOCK
      1495**DCL      3247<>CALL     3248<>CALL
SOCK.FLAGS.ACCEPT
      1510**DCL      3259<<ASSIGN
SOCK.FLAGS.ACCEPTING
      1517**DCL      3213>>IF
SOCK.FLAGS.BLOCKING
      1514**DCL      3221>>IF
SOCK.FLAGS.LISTEN
      1511**DCL      3218>>IF
SOCK.NBACCEPT_LDCTX
      1619**DCL      3215>>ASSIGN   3223<<ASSIGN
SOCK.NBACCEPT_SOCK$
      1617**DCL      1618--REDEF    3214>>ASSIGN   3222<<ASSIGN
SOCK.SERNUM
PL6.E3A0      #005=XSL$ACCEPT File=XSL$SOCKET1.:TCA2TSI                          SUN 11/16/97 14:31 Page:140
      1527**DCL      3234>>ASSIGN
SOCK.SOCKNAME
      1548**DCL      3235>>ASSIGN
SOCK#
      3199**DCL       111--PROC     3203<>CALL     3206--ENTRY    3209<>CALL
SOCK$
      3200**DCL      1495--IMP-PTR  3212<<ASSIGN   3213>>IF       3214>>ASSIGN   3215>>ASSIGN   3218>>IF
      3221>>IF       3222>>ASSIGN   3223>>ASSIGN   3234>>ASSIGN   3235>>ASSIGN   3247>>CALL     3248>>CALL
      3259>>ASSIGN
XSL$ACCEPTRQS
      3066**DCL      3245<<ASSIGN   3247--CALL
XSL$ACCEPTRQS.XPSLDCTX
      3073**DCL      3246<<ASSIGN
XSL$ACCEPTRSP.ERRNO
      3100**DCL      3250>>ASSIGN
XSL$ACCEPTRSP.NAME
      3121**DCL      3253<>CALL
XSL$ACCEPTRSP.NAMELEN
      3101**DCL      3256>>ASSIGN
XSL$ACCEPTRSP.RESULT
      3099**DCL      3249>>IF
XSL$CL_OPEN
      3181**DCL-ENT  3236--CALL
XSL$CL_READ
      3182**DCL-ENT  3240--CALL     3248--CALL
XSL$CL_WRITE
      3183**DCL-ENT  3238--CALL     3243--CALL     3247--CALL
XSL$DCBNPTR
      3187**DCL-ENT  3203--CALL
XSL$DETACHRQS
      3171**DCL      3242<<ASSIGN   3243--CALL
XSL$GETSOCK
      3184**DCL-ENT  3230--CALL
XSL$GIVEUPRQS
      2989**DCL      3237<<ASSIGN   3238--CALL
XSL$GIVEUPRSP.XPSLDCTX
PL6.E3A0      #005=XSL$ACCEPT File=XSL$SOCKET1.:TCA2TSI                          SUN 11/16/97 14:31 Page:141
      3021**DCL      3241>>ASSIGN
XSL$NTOHADDR
      3185**DCL-ENT  3253--CALL
XSL$QCLOSE
      3180**DCL-ENT  3226--CALL
XSL$SOCKPTR
      3186**DCL-ENT  3209--CALL
XSL_ACCEPTRQS
      3040**DCL      3245>>ASSIGN
XSL_DETACHRQS
      3146**DCL      3242>>ASSIGN
XSL_ERRNO
      3189**DCL      3190--REDEF    3219<<ASSIGN   3221>>IF       3250<<ASSIGN   3271<<ASSIGN
XSL_GIVEUPRQS
      2964**DCL      3237>>ASSIGN
XSL_KEYBUF$
      3191**DCL      2989--IMP-PTR  3014--IMP-PTR  3066--IMP-PTR  3092--IMP-PTR  3171--IMP-PTR  3237>>ASSIGN
      3241>>ASSIGN   3242>>ASSIGN   3245>>ASSIGN   3246>>ASSIGN   3249>>IF       3250>>ASSIGN   3253>>CALL
      3256>>ASSIGN
XSL_SOCK$
      3190**DCL      3203<>CALL     3209<>CALL     3212>>ASSIGN   3230<>CALL     3231>>ASSIGN
PL6.E3A0      #005=XSL$ACCEPT File=XSL$SOCKET1.:TCA2TSI                          SUN 11/16/97 14:31 Page:142
              *** CROSS REFERENCE LISTING ***
    **     DENOTES     IDENTIFIER DEFINITION
    <<                 IDENTIFIER'S VALUE SET
    >>                 IDENTIFIER'S VALUE USED
    <>                 IDENTIFIER SET AND/OR USED
    --                 IDENTIFIER REFERENCED
PL6.E3A0      #005=XSL$ACCEPT File=XSL$SOCKET1.:TCA2TSI                          SUN 11/16/97 14:31 Page:143
              MINI UREF LISTING

XSL$ACCEPT     111**PROC
XSL$MSGSDEFS    2945**DCL-ENT
XSL$QACCEPT    3206**ENTRY

PL6.E3A0      #006=XSL$CONNECT File=XSL$SOCKET1.:TCA2TSI                         SUN 11/16/97 14:32 Page:144
     1064        1        /*T***********************************************************/
     1065        2        /*T*                                                         */
     1066        3        /*T* Copyright (c) Bull HN Information Systems Inc., 1997    */
     1067        4        /*T*                                                         */
     1068        5        /*T***********************************************************/
     1069        6        /*F* NAME: connect() and XSL$CONNECT  --  Initiate Connection Request
     1070        7        ..::IT "Purpose:"
     1071        8        .INL +4
     1072        9        Initiates a connection request to another socket elsewhere in the network.
     1073       10        ..::IT "C Usage:"
     1074       11        .INL 4
     1075       12        .FIF
     1076       13        status = connect( s, &name, namelen );
     1077       14        ..::IT "PL6 Usage:"
     1078       15        .INL 4
     1079       16        .FIF
     1080       17        CALL XSL$CONNECT( status, s, name, namelen );
     1081       18        ..::IT "Parameters:"
     1082       19        .INL 4
     1083       20        .FIF
     1084       21        s           integer socket descriptor
     1085       22
     1086       23        name        sockaddr structure
     1087       24
     1088       25        namelen     integer size of name in characters
     1089       26        ..::IT "Result:"
     1090       27        .INL 4
     1091       28        .FIF
     1092       29        status      integer error code
     1093       30        ..::IT "Description:"
     1094       31        The connect() function, when invoked on a "stream" socket, initiates a
     1095       32        connection request to the remote socket named by name and namelen.  When
     1096       33        invoked on a "datagram" socket, connect() specifies the remote socket
     1097       34        that datagrams are to be sent to and received from.
     1098       35        ..::IX "stream socket"
     1099       36        ..::IX "datagram socket"
     1100       37        .SPB
PL6.E3A0      #006=XSL$CONNECT File=XSL$SOCKET1.:TCA2TSI                         SUN 11/16/97 14:32 Page:145
     1101       38        The s parameter specifies the descriptor of the socket on which to
     1102       39        initiate the connection.
     1103       40        .SPB
     1104       41        The name parameter specifies the address of the remote socket.  In C
     1105       42        source, it is a sockaddr structure.  In PL6 source, it is an XSL$SOCKADDR
     1106       43        structure.
     1107       44        .SPB
     1108       45        The namelen parameter specifies the number of significant characters in name.
     1109       46        .SPB
     1110       47        If the connect() function is successful, the status result contains
     1111       48        ESUCCESS or E$SUCCESS.
     1112       49        .SPB
     1113       50        If the connect() function is unsuccessful, the status result contains
     1114       51        EFAILURE or E$FAILURE and the application must inspect errno or XSL_ERRNO
     1115       52        to determine the specific error condition.  The XSL$CONNECT procedure
     1116       53        additionally ALTRETURNs if it is unsuccessful; otherwise it is identical
     1117       54        to the connect() function.
     1118       55        .SPB
     1119       56        The application need not wait while a connection attempt is made.  If
     1120       57        the mode of the socket has been set to "nonblocking" by either fcntl()
     1121       58        or ioctl(), connect() initiates the connection attempt and reports
     1122       59        the error EINPROGRESS.  Subsequent invocations of connect() report the
     1123       60        error EALREADY as long as the connection is still being attempted.
     1124       61        Eventually either ESUCCESS or EFAILURE is reported as above.
     1125       62        ..::IT "Errors:"
     1126       63        Following are the possible error conditions reported when the connect()
     1127       64        function is unsuccessful.  Equates for the possible values can be found in
     1128       65        <xsl_errno.h> or XSL_PERR_C for C and PL6 source, respectively.
     1129       66
     1130       67        .FIF
     1131       68
     1132       69        C #define               PL6 %EQU
     1133       70        ----------------------- -----------------------
     1134       71        EADDRINUSE              E$ADDRINUSE
     1135       72        .FIN
     1136       73        The specified address is already in use.
     1137       74        .FIF
PL6.E3A0      #006=XSL$CONNECT File=XSL$SOCKET1.:TCA2TSI                         SUN 11/16/97 14:32 Page:146
     1138       75
     1139       76        EADDRNOTAVAIL           E$ADDRNOTAVAIL
     1140       77        .FIN
     1141       78        The specified address is not available.
     1142       79        .FIF
     1143       80
     1144       81        EAFNOSUPPORT            E$AFNOSUPPORT
     1145       82        .FIN
     1146       83        Addresses in the specified family cannot be used with this socket.
     1147       84        .FIF
     1148       85
     1149       86        EALREADY                E$ALREADY
     1150       87        .FIN
     1151       88        A connection attempt is already in progress on this socket.
     1152       89        .FIF
     1153       90
     1154       91        EBADF                   E$BADF
     1155       92        .FIN
     1156       93        The descriptor s is not appropriate to identify a socket.
     1157       94        .FIF
     1158       95
     1159       96        ECONNREFUSED            E$CONNREFUSED
     1160       97        .FIN
     1161       98        Connection request refused at remote end.
     1162       99        .FIF
     1163      100
     1164      101        EFAULT                  E$FAULT
     1165      102        .FIN
     1166      103        The namelen parameter is invalid (less than or equal to zero).
     1167      104        .FIF
     1168      105
     1169      106        EINPROGRESS             E$INPROGRESS
     1170      107        .FIN
     1171      108        A connection attempt is now in progress on this socket.
     1172      109        .FIF
     1173      110
     1174      111        EINVAL                  E$INVAL
PL6.E3A0      #006=XSL$CONNECT File=XSL$SOCKET1.:TCA2TSI                         SUN 11/16/97 14:32 Page:147
     1175      112        .FIN
     1176      113        Either listen() or connect() has already been invoked on this socket.
     1177      114        .FIF
     1178      115
     1179      116        EISCONN                 E$ISCONN
     1180      117        The socket is already connected.
     1181      118        .FIN
     1182      119        .FIF
     1183      120
     1184      121        ENETUNREACH             E$NETUNREACH
     1185      122        .FIN
     1186      123        The specified network is unreachable.
     1187      124        .FIF
     1188      125
     1189      126        ENOTSOCK                E$NOTSOCK
     1190      127        .FIN
     1191      128        The descriptor s is no longer valid to identify a socket.
     1192      129        .FIF
     1193      130
     1194      131        ETIMEDOUT               E$TIMEDOUT
     1195      132        .FIN
     1196      133        Connection establishment timed out.
     1197      134        .FIF
     1198      135
     1199      136        EWOULDBLOCK             E$WOULDBLOCK
     1200      137        .FIN
     1201      138        The connection cannot be immediately completed.
     1202      139        .FIF
     1203      140        */
     1204      141        XSL$CONNECT: PROC( RESULT, SOCK#, NAME, NAMELEN) ALTRET;
     1205      142        %INCLUDE XSL_SOCKET_E;
     1206      400        %INCLUDE XSL_SOCKET_M;
     1207     1161            %XSL$SOCKADDR( FPTN=NAME, STCLASS=);
     1208     1201        %INCLUDE XSL_PERR_C;
     1209     1256        %INCLUDE XSL_INTERNAL_M;
     1210     1507            %XSL$SOCKINFO( FPTN=SOCK, STCLASS="BASED( SOCK$)");
     1211     1651        %INCLUDE XSL_SOCKMSGS_E;
PL6.E3A0      #006=XSL$CONNECT File=XSL$SOCKET1.:TCA2TSI                         SUN 11/16/97 14:32 Page:148
     1212     1697        %INCLUDE XSL_SOCKMSGS_M;
     1213     2830            %XSL$CONNECTRQS( FPTN=XSL_CONNECTRQS, STCLASS="CONSTANT SYMDEF");
     1214     2882            %XSL$CONNECTRQS( STCLASS="BASED( XSL_KEYBUF$)");
     1215     2934            %XSL$CONNECTRSP( STCLASS="BASED( XSL_KEYBUF$)");
     1216     2988
     1217     2989    1       DCL XSL$CL_READ ENTRY(3) ALTRET;
     1218     2990    1       DCL XSL$CL_WRITE ENTRY(4) ALTRET;
     1219     2991    1       DCL XSL$HTONADDR ENTRY(2);
     1220     2992    1       DCL XSL$SOCKPTR ENTRY(2) ALTRET;
     1221     2993    1       DCL XSL$DCBNPTR ENTRY(2) ALTRET;
     1222     2994    1       DCL XSL$QSETSOCKOPT ENTRY(6) ALTRET;
     1223     2995    1       DCL XSL$SOCKOPEN ENTRY(3) ALTRET;
     1224     2996
     1225     2997    1       DCL XSL_ERRNO SBIN SYMREF;
     1226     2998    1       DCL XSL_SOCK$ REDEF XSL_ERRNO PTR;
     1227     2999    1       DCL XSL_KEYBUF$ PTR SYMREF READONLY;
     1228     3000
     1229     3001    1       DCL NAMELEN SBIN;
     1230     3002    1       DCL TNAMELEN SBIN;
     1231     3003    1       DCL RESULT SBIN;
     1232     3004    1       DCL SOCK# SBIN;
     1233     3005    1       DCL SOCK$ PTR;
     1234     3006    1       DCL TEMP SBIN;
     1235     3007
     1236     3008    1       CALL XSL$DCBNPTR( SOCK#, XSL_SOCK$) ALTRET( BAILOUT);
     1237     3009    1       GOTO COMMON;
     1238     3010
     1239     3011    1   XSL$QCONNECT: ENTRY( RESULT, SOCK#, NAME, NAMELEN) ALTRET;
     1240     3012
     1241     3013    1       CALL XSL$SOCKPTR( SOCK#, XSL_SOCK$) ALTRET (BAILOUT);
     1242     3014    1   COMMON:
     1243     3015    1       TNAMELEN = NAMELEN;
     1244     3016    1       IF TNAMELEN > 16 THEN
     1245     3017    1           TNAMELEN = 16;
     1246     3018    2       IF NAMELEN <= 0 THEN DO;
     1247     3019    2           XSL_ERRNO = %E$FAULT;
     1248     3020    2   BAILOUT:
PL6.E3A0      #006=XSL$CONNECT File=XSL$SOCKET1.:TCA2TSI                         SUN 11/16/97 14:32 Page:149
     1249     3021    2           RESULT = %E$FAILURE;
     1250     3022    2           ALTRETURN;
     1251     3023    2           END;
     1252     3024    1       SOCK$ = XSL_SOCK$;
     1253     3025    1       IF SOCK.FLAGS.CONNECTING THEN
     1254     3026    1           GOTO SENDIT;
     1255     3027    2       IF SOCK.FLAGS.LISTEN OR SOCK.FLAGS.CONNECT THEN DO;
     1256     3028    2           XSL_ERRNO = %E$INVAL; GOTO BAILOUT; END;
     1257     3029    1       IF NOT SOCK.FLAGS.SOCKET THEN
     1258     3030                /* Only get a socket if we haven't done a bind already. */
     1259     3031    1           CALL XSL$SOCKOPEN( SOCK, NAME, TNAMELEN) ALTRET( BAILOUT);
     1260     3032    2       IF SOCK.FLAGS.REUSEADDR THEN DO;
     1261     3033    2           TEMP = SOCK.SOCK#;
     1262     3034    2           CALL XSL$QSETSOCKOPT( RESULT, TEMP, %XSL_SOL_SOCKET, %XSL_SO_REUSEADDR,
              3034                    262144, 2);
     1263     3035    2           END;
     1264     3036    1   SENDIT:
     1265     3037    1       XSL$CONNECTRQS = XSL_CONNECTRQS;
     1266     3038    1       XSL$CONNECTRQS.NAMELEN = TNAMELEN;
     1267     3039    1       CALL XSL$HTONADDR( XSL$CONNECTRQS.NAME, NAME);
     1268     3040    1       CALL XSL$CL_WRITE( SOCK, LENGTHC( XSL$CONNECTRQS)-16+TNAMELEN);
     1269     3041    1       CALL XSL$CL_READ( SOCK);
     1270     3042    2       IF XSL$CONNECTRSP.RESULT < 0 THEN DO;
     1271     3043    2           XSL_ERRNO = XSL$CONNECTRSP.ERRNO;
     1272     3044    2           GOTO BAILOUT;
     1273     3045    2           END;
     1274     3046    2       IF SOCK.TYPE ~= %XSL_SOCK_DGRAM THEN DO;
     1275     3047    2           SOCK.FLAGS.CONNECT = '1'B;
     1276     3048    2           SOCK.FLAGS.SELWRITE = '1'B;
     1277     3049    2           END;
     1278     3050    1       SOCK.PEERNAME = NAME;
     1279     3051    1       RESULT = %E$SUCCESS;
     1280     3052    1       RETURN;
     1281     3053
     1282     3054    1   END XSL$CONNECT;
     1283     3055        %EOD;

PL6.E3A0      #006=XSL$CONNECT File=XSL$SOCKET1.:TCA2TSI                         SUN 11/16/97 14:32 Page:150
--  Include file information  --

   XSL_SOCKMSGS_M.:TCA2TOU  is referenced.
   XSL_SOCKMSGS_E.:TCA2TOU  is referenced.
   XSL_INTERNAL_M.:TCA2TOU  is referenced.
   XSL_PERR_C.:TCA2TOU  is referenced.
   XSL_SOCKET_M.:TCA2TOU  is referenced.
   XSL_SOCKET_E.:TCA2TOU  is referenced.
   B$JIT_C.:E05TOU  was found in the system file and is never referenced.
   CP_6_C.:E05TOU  was found in the system file and is never referenced.
      No diagnostics issued in procedure XSL$CONNECT.

   Procedure XSL$CONNECT requires 130 words for executable code.
   Procedure XSL$CONNECT requires 16 words of local(AUTO) storage.

PL6.E3A0      #006=XSL$CONNECT File=XSL$SOCKET1.:TCA2TSI                         SUN 11/16/97 14:32 Page:151

 Object Unit name= XSL$CONNECT                                File name= XSL$SOCKET1.:TCA2TOU
 UTS= NOV 16 '97 14:32:36.88 SUN                              Compiler= PL-6/E31         Sev=      00
 SharedLib= :SHARED_SYSTEM                                    Alt SharedLib=


    ****  Control sections  ****

 Sect   Type Bound  Init  Size OctSiz  Section name(segment info)
    0  RoData even  UTS      5      5  XSL$CONNECT
    1   Proc  even  none   130    202  XSL$CONNECT
    2  RoData even  none     6      6  XSL$CONNECT

    ****  Entry defs  ****

                              Check   Calling
                             calling  sequence
  Sect OctLoc Primary Altret sequence   type   Parms  Name
     1      0   yes    yes     yes      Std        4  XSL$CONNECT
     1     12          yes     yes      Std        4  XSL$QCONNECT

  ****  Data defs  ****

 Sect OctLoc  Name                           Sect OctLoc  Name
    0      0  XSL_CONNECTRQS
PL6.E3A0      #006=XSL$CONNECT File=XSL$SOCKET1.:TCA2TSI                         SUN 11/16/97 14:32 Page:152

  ****  Entry refs  ****

         Check        Calling
        calling       sequence
Altret sequence SRef   type   Args  Name
 yes     yes           Std       2 XSL$DCBNPTR
 yes     yes           Std       2 XSL$SOCKPTR
 yes     yes           Std       3 XSL$SOCKOPEN
 yes     yes           Std       4 XSL$CL_WRITE
 yes     yes           Std       6 XSL$QSETSOCKOPT
 yes     yes           Std       3 XSL$CL_READ
         yes           Std       2 XSL$HTONADDR
                       nStd      0 X66_AUTO_4
                       Std       0 B_CONSPOOL_D
                       nStd      0 X66_AALT
                       nStd      0 X66_ARET

  ****  Data refs  ****

  Flags:  r = read only, s = secondary
Flgs Name                             Flgs Name                             Flgs Name
     XSL_ERRNO                        r    XSL_KEYBUF$                           B_VECTNIL

  ****  Segment refs  ****

  Flags:  r = read only, s = secondary
Flgs Name                             Flgs Name                             Flgs Name
     ISSID
PL6.E3A0      #006=XSL$CONNECT File=XSL$SOCKET1.:TCA2TSI                         SUN 11/16/97 14:32 Page:153


     1064        1        /*T***********************************************************/
     1065        2        /*T*                                                         */
     1066        3        /*T* Copyright (c) Bull HN Information Systems Inc., 1997    */
     1067        4        /*T*                                                         */
     1068        5        /*T***********************************************************/
     1069        6        /*F* NAME: connect() and XSL$CONNECT  --  Initiate Connection Request
     1070        7        ..::IT "Purpose:"
     1071        8        .INL +4
     1072        9        Initiates a connection request to another socket elsewhere in the network.
     1073       10        ..::IT "C Usage:"
     1074       11        .INL 4
     1075       12        .FIF
     1076       13        status = connect( s, &name, namelen );
     1077       14        ..::IT "PL6 Usage:"
     1078       15        .INL 4
     1079       16        .FIF
     1080       17        CALL XSL$CONNECT( status, s, name, namelen );
     1081       18        ..::IT "Parameters:"
     1082       19        .INL 4
     1083       20        .FIF
     1084       21        s           integer socket descriptor
     1085       22
     1086       23        name        sockaddr structure
     1087       24
     1088       25        namelen     integer size of name in characters
     1089       26        ..::IT "Result:"
     1090       27        .INL 4
     1091       28        .FIF
     1092       29        status      integer error code
     1093       30        ..::IT "Description:"
     1094       31        The connect() function, when invoked on a "stream" socket, initiates a
     1095       32        connection request to the remote socket named by name and namelen.  When
     1096       33        invoked on a "datagram" socket, connect() specifies the remote socket
     1097       34        that datagrams are to be sent to and received from.
     1098       35        ..::IX "stream socket"
     1099       36        ..::IX "datagram socket"
PL6.E3A0      #006=XSL$CONNECT File=XSL$SOCKET1.:TCA2TSI                         SUN 11/16/97 14:32 Page:154
     1100       37        .SPB
     1101       38        The s parameter specifies the descriptor of the socket on which to
     1102       39        initiate the connection.
     1103       40        .SPB
     1104       41        The name parameter specifies the address of the remote socket.  In C
     1105       42        source, it is a sockaddr structure.  In PL6 source, it is an XSL$SOCKADDR
     1106       43        structure.
     1107       44        .SPB
     1108       45        The namelen parameter specifies the number of significant characters in name.
     1109       46        .SPB
     1110       47        If the connect() function is successful, the status result contains
     1111       48        ESUCCESS or E$SUCCESS.
     1112       49        .SPB
     1113       50        If the connect() function is unsuccessful, the status result contains
     1114       51        EFAILURE or E$FAILURE and the application must inspect errno or XSL_ERRNO
     1115       52        to determine the specific error condition.  The XSL$CONNECT procedure
     1116       53        additionally ALTRETURNs if it is unsuccessful; otherwise it is identical
     1117       54        to the connect() function.
     1118       55        .SPB
     1119       56        The application need not wait while a connection attempt is made.  If
     1120       57        the mode of the socket has been set to "nonblocking" by either fcntl()
     1121       58        or ioctl(), connect() initiates the connection attempt and reports
     1122       59        the error EINPROGRESS.  Subsequent invocations of connect() report the
     1123       60        error EALREADY as long as the connection is still being attempted.
     1124       61        Eventually either ESUCCESS or EFAILURE is reported as above.
     1125       62        ..::IT "Errors:"
     1126       63        Following are the possible error conditions reported when the connect()
     1127       64        function is unsuccessful.  Equates for the possible values can be found in
     1128       65        <xsl_errno.h> or XSL_PERR_C for C and PL6 source, respectively.
     1129       66
     1130       67        .FIF
     1131       68
     1132       69        C #define               PL6 %EQU
     1133       70        ----------------------- -----------------------
     1134       71        EADDRINUSE              E$ADDRINUSE
     1135       72        .FIN
     1136       73        The specified address is already in use.
PL6.E3A0      #006=XSL$CONNECT File=XSL$SOCKET1.:TCA2TSI                         SUN 11/16/97 14:32 Page:155
     1137       74        .FIF
     1138       75
     1139       76        EADDRNOTAVAIL           E$ADDRNOTAVAIL
     1140       77        .FIN
     1141       78        The specified address is not available.
     1142       79        .FIF
     1143       80
     1144       81        EAFNOSUPPORT            E$AFNOSUPPORT
     1145       82        .FIN
     1146       83        Addresses in the specified family cannot be used with this socket.
     1147       84        .FIF
     1148       85
     1149       86        EALREADY                E$ALREADY
     1150       87        .FIN
     1151       88        A connection attempt is already in progress on this socket.
     1152       89        .FIF
     1153       90
     1154       91        EBADF                   E$BADF
     1155       92        .FIN
     1156       93        The descriptor s is not appropriate to identify a socket.
     1157       94        .FIF
     1158       95
     1159       96        ECONNREFUSED            E$CONNREFUSED
     1160       97        .FIN
     1161       98        Connection request refused at remote end.
     1162       99        .FIF
     1163      100
     1164      101        EFAULT                  E$FAULT
     1165      102        .FIN
     1166      103        The namelen parameter is invalid (less than or equal to zero).
     1167      104        .FIF
     1168      105
     1169      106        EINPROGRESS             E$INPROGRESS
     1170      107        .FIN
     1171      108        A connection attempt is now in progress on this socket.
     1172      109        .FIF
     1173      110
PL6.E3A0      #006=XSL$CONNECT File=XSL$SOCKET1.:TCA2TSI                         SUN 11/16/97 14:32 Page:156
     1174      111        EINVAL                  E$INVAL
     1175      112        .FIN
     1176      113        Either listen() or connect() has already been invoked on this socket.
     1177      114        .FIF
     1178      115
     1179      116        EISCONN                 E$ISCONN
     1180      117        The socket is already connected.
     1181      118        .FIN
     1182      119        .FIF
     1183      120
     1184      121        ENETUNREACH             E$NETUNREACH
     1185      122        .FIN
     1186      123        The specified network is unreachable.
     1187      124        .FIF
     1188      125
     1189      126        ENOTSOCK                E$NOTSOCK
     1190      127        .FIN
     1191      128        The descriptor s is no longer valid to identify a socket.
     1192      129        .FIF
     1193      130
     1194      131        ETIMEDOUT               E$TIMEDOUT
     1195      132        .FIN
     1196      133        Connection establishment timed out.
     1197      134        .FIF
     1198      135
     1199      136        EWOULDBLOCK             E$WOULDBLOCK
     1200      137        .FIN
     1201      138        The connection cannot be immediately completed.
     1202      139        .FIF
     1203      140        */
     1204      141        XSL$CONNECT: PROC( RESULT, SOCK#, NAME, NAMELEN) ALTRET;

    141  1 000000   000000 700200 xent  XSL$CONNECT  TSX0  ! X66_AUTO_4
         1 000001   000020 000004                    ZERO    16,4

     1205      142        %INCLUDE XSL_SOCKET_E;
     1206      400        %INCLUDE XSL_SOCKET_M;
PL6.E3A0      #006=XSL$CONNECT File=XSL$SOCKET1.:TCA2TSI                         SUN 11/16/97 14:32 Page:157
     1207     1161            %XSL$SOCKADDR( FPTN=NAME, STCLASS=);
     1208     1201        %INCLUDE XSL_PERR_C;
     1209     1256        %INCLUDE XSL_INTERNAL_M;
     1210     1507            %XSL$SOCKINFO( FPTN=SOCK, STCLASS="BASED( SOCK$)");
     1211     1651        %INCLUDE XSL_SOCKMSGS_E;
     1212     1697        %INCLUDE XSL_SOCKMSGS_M;
     1213     2830            %XSL$CONNECTRQS( FPTN=XSL_CONNECTRQS, STCLASS="CONSTANT SYMDEF");
     1214     2882            %XSL$CONNECTRQS( STCLASS="BASED( XSL_KEYBUF$)");
     1215     2934            %XSL$CONNECTRSP( STCLASS="BASED( XSL_KEYBUF$)");
     1216     2988
     1217     2989    1       DCL XSL$CL_READ ENTRY(3) ALTRET;
     1218     2990    1       DCL XSL$CL_WRITE ENTRY(4) ALTRET;
     1219     2991    1       DCL XSL$HTONADDR ENTRY(2);
     1220     2992    1       DCL XSL$SOCKPTR ENTRY(2) ALTRET;
     1221     2993    1       DCL XSL$DCBNPTR ENTRY(2) ALTRET;
     1222     2994    1       DCL XSL$QSETSOCKOPT ENTRY(6) ALTRET;
     1223     2995    1       DCL XSL$SOCKOPEN ENTRY(3) ALTRET;
     1224     2996
     1225     2997    1       DCL XSL_ERRNO SBIN SYMREF;
     1226     2998    1       DCL XSL_SOCK$ REDEF XSL_ERRNO PTR;
     1227     2999    1       DCL XSL_KEYBUF$ PTR SYMREF READONLY;
     1228     3000
     1229     3001    1       DCL NAMELEN SBIN;
     1230     3002    1       DCL TNAMELEN SBIN;
     1231     3003    1       DCL RESULT SBIN;
     1232     3004    1       DCL SOCK# SBIN;
     1233     3005    1       DCL SOCK$ PTR;
     1234     3006    1       DCL TEMP SBIN;
     1235     3007
     1236     3008    1       CALL XSL$DCBNPTR( SOCK#, XSL_SOCK$) ALTRET( BAILOUT);

   3008  1 000002   000000 236000 2                  LDQ     0
         1 000003   200004 235100                    LDA     @SOCK#,,AUTO
         1 000004   200012 757100                    STAQ    TEMP+1,,AUTO
         1 000005   200012 630500                    EPPR0   TEMP+1,,AUTO
         1 000006   000020 631400 xsym               EPPR1   B_VECTNIL+16
         1 000007   000000 701000 xent               TSX1    XSL$DCBNPTR
PL6.E3A0      #006=XSL$CONNECT File=XSL$SOCKET1.:TCA2TSI                         SUN 11/16/97 14:32 Page:158
         1 000010   000036 702000 1                  TSX2    BAILOUT

     1237     3009    1       GOTO COMMON;

   3009  1 000011   000023 710000 1                  TRA     COMMON

     1238     3010
     1239     3011    1   XSL$QCONNECT: ENTRY( RESULT, SOCK#, NAME, NAMELEN) ALTRET;

   3011  1 000012   000000 700200 xent  XSL$QCONNECT TSX0  ! X66_AUTO_4
         1 000013   000020 000004                    ZERO    16,4

     1240     3012
     1241     3013    1       CALL XSL$SOCKPTR( SOCK#, XSL_SOCK$) ALTRET (BAILOUT);

   3013  1 000014   000000 236000 2                  LDQ     0
         1 000015   200004 235100                    LDA     @SOCK#,,AUTO
         1 000016   200012 757100                    STAQ    TEMP+1,,AUTO
         1 000017   200012 630500                    EPPR0   TEMP+1,,AUTO
         1 000020   000020 631400 xsym               EPPR1   B_VECTNIL+16
         1 000021   000000 701000 xent               TSX1    XSL$SOCKPTR
         1 000022   000036 702000 1                  TSX2    BAILOUT

     1242     3014    1   COMMON:
     1243     3015    1       TNAMELEN = NAMELEN;

   3015  1 000023   200006 470500       COMMON       LDP0    @NAMELEN,,AUTO
         1 000024   000000 235100                    LDA     0,,PR0
         1 000025   200007 755100                    STA     TNAMELEN,,AUTO

     1244     3016    1       IF TNAMELEN > 16 THEN

   3016  1 000026   000020 115007                    CMPA    16,DL
         1 000027   000032 604400 1                  TMOZ    s:3018

     1245     3017    1           TNAMELEN = 16;

PL6.E3A0      #006=XSL$CONNECT File=XSL$SOCKET1.:TCA2TSI                         SUN 11/16/97 14:32 Page:159
   3017  1 000030   000020 236007                    LDQ     16,DL
         1 000031   200007 756100                    STQ     TNAMELEN,,AUTO

     1246     3018    2       IF NAMELEN <= 0 THEN DO;

   3018  1 000032   000000 235100                    LDA     0,,PR0
         1 000033   000042 605400 1                  TPNZ    s:3024

     1247     3019    2           XSL_ERRNO = %E$FAULT;

   3019  1 000034   000016 236007                    LDQ     14,DL
         1 000035   000000 756000 xsym               STQ     XSL_ERRNO

     1248     3020    2   BAILOUT:
     1249     3021    2           RESULT = %E$FAILURE;

   3021  1 000036   000001 335007       BAILOUT      LCA     1,DL
         1 000037   200003 470500                    LDP0    @RESULT,,AUTO
         1 000040   000000 755100                    STA     0,,PR0

     1250     3022    2           ALTRETURN;

   3022  1 000041   000000 702200 xent               TSX2  ! X66_AALT

     1251     3023    2           END;
     1252     3024    1       SOCK$ = XSL_SOCK$;

   3024  1 000042   000000 236000 xsym               LDQ     XSL_ERRNO
         1 000043   200010 756100                    STQ     SOCK$,,AUTO

     1253     3025    1       IF SOCK.FLAGS.CONNECTING THEN

   3025  1 000044   200010 471500                    LDP1    SOCK$,,AUTO
         1 000045   100001 236100                    LDQ     1,,PR1
         1 000046   000200 316003                    CANQ    128,DU
         1 000047   000115 601000 1                  TNZ     SENDIT

PL6.E3A0      #006=XSL$CONNECT File=XSL$SOCKET1.:TCA2TSI                         SUN 11/16/97 14:32 Page:160
     1254     3026    1           GOTO SENDIT;
     1255     3027    2       IF SOCK.FLAGS.LISTEN OR SOCK.FLAGS.CONNECT THEN DO;

   3027  1 000050   010000 316003                    CANQ    4096,DU
         1 000051   000054 601000 1                  TNZ     s:3028
         1 000052   040000 316003                    CANQ    16384,DU
         1 000053   000057 600000 1                  TZE     s:3029

     1256     3028    2           XSL_ERRNO = %E$INVAL; GOTO BAILOUT; END;

   3028  1 000054   000026 235007                    LDA     22,DL
         1 000055   000000 755000 xsym               STA     XSL_ERRNO

   3028  1 000056   000036 710000 1                  TRA     BAILOUT

     1257     3029    1       IF NOT SOCK.FLAGS.SOCKET THEN

   3029  1 000057   002000 316003                    CANQ    1024,DU
         1 000060   000072 601000 1                  TNZ     s:3032

     1258     3030                /* Only get a socket if we haven't done a bind already. */
     1259     3031    1           CALL XSL$SOCKOPEN( SOCK, NAME, TNAMELEN) ALTRET( BAILOUT);

   3031  1 000061   200007 633500                    EPPR3   TNAMELEN,,AUTO
         1 000062   200014 453500                    STP3    TEMP+3,,AUTO
         1 000063   200005 236100                    LDQ     @NAME,,AUTO
         1 000064   200010 235100                    LDA     SOCK$,,AUTO
         1 000065   200012 757100                    STAQ    TEMP+1,,AUTO
         1 000066   200012 630500                    EPPR0   TEMP+1,,AUTO
         1 000067   000021 631400 xsym               EPPR1   B_VECTNIL+17
         1 000070   000000 701000 xent               TSX1    XSL$SOCKOPEN
         1 000071   000036 702000 1                  TSX2    BAILOUT

     1260     3032    2       IF SOCK.FLAGS.REUSEADDR THEN DO;

   3032  1 000072   200010 470500                    LDP0    SOCK$,,AUTO
         1 000073   000001 236100                    LDQ     1,,PR0
PL6.E3A0      #006=XSL$CONNECT File=XSL$SOCKET1.:TCA2TSI                         SUN 11/16/97 14:32 Page:161
         1 000074   000400 316003                    CANQ    256,DU
         1 000075   000115 600000 1                  TZE     SENDIT

     1261     3033    2           TEMP = SOCK.SOCK#;

   3033  1 000076   000000 236100                    LDQ     0,,PR0
         1 000077   000777 376007                    ANQ     511,DL
         1 000100   200011 756100                    STQ     TEMP,,AUTO

     1262     3034    2           CALL XSL$QSETSOCKOPT( RESULT, TEMP, %XSL_SOL_SOCKET, %XSL_SO_REUSEADDR,
              3034                    262144, 2);

   3034  1 000101   000002 237000 2                  LDAQ    2
         1 000102   200016 757100                    STAQ    TEMP+5,,AUTO
         1 000103   000004 237000 2                  LDAQ    4
         1 000104   200014 757100                    STAQ    TEMP+3,,AUTO
         1 000105   200011 631500                    EPPR1   TEMP,,AUTO
         1 000106   200013 451500                    STP1    TEMP+2,,AUTO
         1 000107   200003 236100                    LDQ     @RESULT,,AUTO
         1 000110   200012 756100                    STQ     TEMP+1,,AUTO
         1 000111   200012 630500                    EPPR0   TEMP+1,,AUTO
         1 000112   000024 631400 xsym               EPPR1   B_VECTNIL+20
         1 000113   000000 701000 xent               TSX1    XSL$QSETSOCKOPT
         1 000114   000000 011000                    NOP     0

     1263     3035    2           END;

     1264     3036    1   SENDIT:
     1265     3037    1       XSL$CONNECTRQS = XSL_CONNECTRQS;

   3037  1 000115   000000 470400 xsym  SENDIT       LDP0    XSL_KEYBUF$
         1 000116   000100 100400                    MLR     fill='000'O
         1 000117   000000 000024 0                  ADSC9   XSL_CONNECTRQS           cn=0,n=20
         1 000120   000000 000024                    ADSC9   0,,PR0                   cn=0,n=20

     1266     3038    1       XSL$CONNECTRQS.NAMELEN = TNAMELEN;

PL6.E3A0      #006=XSL$CONNECT File=XSL$SOCKET1.:TCA2TSI                         SUN 11/16/97 14:32 Page:162
   3038  1 000121   200007 720100                    LXL0    TNAMELEN,,AUTO
         1 000122   000000 440100                    SXL0    0,,PR0

     1267     3039    1       CALL XSL$HTONADDR( XSL$CONNECTRQS.NAME, NAME);

   3039  1 000123   200005 236100                    LDQ     @NAME,,AUTO
         1 000124   200013 756100                    STQ     TEMP+2,,AUTO
         1 000125   000000 236000 xsym               LDQ     XSL_KEYBUF$
         1 000126   000001 036003                    ADLQ    1,DU
         1 000127   200012 756100                    STQ     TEMP+1,,AUTO
         1 000130   200012 630500                    EPPR0   TEMP+1,,AUTO
         1 000131   000020 631400 xsym               EPPR1   B_VECTNIL+16
         1 000132   000000 701000 xent               TSX1    XSL$HTONADDR
         1 000133   000000 011000                    NOP     0

     1268     3040    1       CALL XSL$CL_WRITE( SOCK, LENGTHC( XSL$CONNECTRQS)-16+TNAMELEN);

   3040  1 000134   200007 235100                    LDA     TNAMELEN,,AUTO
         1 000135   000004 035007                    ADLA    4,DL
         1 000136   200012 755100                    STA     TEMP+1,,AUTO
         1 000137   200012 630500                    EPPR0   TEMP+1,,AUTO
         1 000140   200015 450500                    STP0    TEMP+4,,AUTO
         1 000141   200010 236100                    LDQ     SOCK$,,AUTO
         1 000142   200014 756100                    STQ     TEMP+3,,AUTO
         1 000143   200014 630500                    EPPR0   TEMP+3,,AUTO
         1 000144   000020 631400 xsym               EPPR1   B_VECTNIL+16
         1 000145   000000 701000 xent               TSX1    XSL$CL_WRITE
         1 000146   000000 011000                    NOP     0

     1269     3041    1       CALL XSL$CL_READ( SOCK);

   3041  1 000147   200010 630500                    EPPR0   SOCK$,,AUTO
         1 000150   000017 631400 xsym               EPPR1   B_VECTNIL+15
         1 000151   000000 701000 xent               TSX1    XSL$CL_READ
         1 000152   000000 011000                    NOP     0

     1270     3042    2       IF XSL$CONNECTRSP.RESULT < 0 THEN DO;
PL6.E3A0      #006=XSL$CONNECT File=XSL$SOCKET1.:TCA2TSI                         SUN 11/16/97 14:32 Page:163

   3042  1 000153   000000 470400 xsym               LDP0    XSL_KEYBUF$
         1 000154   000000 720100                    LXL0    0,,PR0
         1 000155   000162 605000 1                  TPL     s:3046

     1271     3043    2           XSL_ERRNO = XSL$CONNECTRSP.ERRNO;

   3043  1 000156   000001 236100                    LDQ     1,,PR0
         1 000157   000022 732000                    QRS     18
         1 000160   000000 756000 xsym               STQ     XSL_ERRNO

     1272     3044    2           GOTO BAILOUT;

   3044  1 000161   000036 710000 1                  TRA     BAILOUT

     1273     3045    2           END;
     1274     3046    2       IF SOCK.TYPE ~= %XSL_SOCK_DGRAM THEN DO;

   3046  1 000162   200010 471500                    LDP1    SOCK$,,AUTO
         1 000163   100000 236100                    LDQ     0,,PR1
         1 000164   000777 376003                    ANQ     511,DU
         1 000165   000002 116003                    CMPQ    2,DU
         1 000166   000173 600000 1                  TZE     s:3050

     1275     3047    2           SOCK.FLAGS.CONNECT = '1'B;

   3047  1 000167   040000 236003                    LDQ     16384,DU
         1 000170   100001 256100                    ORSQ    1,,PR1

     1276     3048    2           SOCK.FLAGS.SELWRITE = '1'B;

   3048  1 000171   000020 236003                    LDQ     16,DU
         1 000172   100001 256100                    ORSQ    1,,PR1

     1277     3049    2           END;

     1278     3050    1       SOCK.PEERNAME = NAME;
PL6.E3A0      #006=XSL$CONNECT File=XSL$SOCKET1.:TCA2TSI                         SUN 11/16/97 14:32 Page:164

   3050  1 000173   200005 473500                    LDP3    @NAME,,AUTO
         1 000174   000100 100500                    MLR     fill='000'O
         1 000175   300000 000024                    ADSC9   0,,PR3                   cn=0,n=20
         1 000176   100011 000024                    ADSC9   9,,PR1                   cn=0,n=20

     1279     3051    1       RESULT = %E$SUCCESS;

   3051  1 000177   200003 474500                    LDP4    @RESULT,,AUTO
         1 000200   400000 450100                    STZ     0,,PR4

     1280     3052    1       RETURN;

   3052  1 000201   000000 702200 xent               TSX2  ! X66_ARET

XSL_CONNECTRQS
 Sect OctLoc
   0     000   000005 000000   000000 000000   000000 000000   000000 000000    ................
   0     004   000000 000000                                                    ....

(unnamed)
 Sect OctLoc
   2     000   000000 006000   000000 000000   000017 006000   000004 006000    ................
   2     004   000027 006000   000006 006000                                    ........
     1281     3053
     1282     3054    1   END XSL$CONNECT;
     1283     3055        %EOD;

PL6.E3A0      #006=XSL$CONNECT File=XSL$SOCKET1.:TCA2TSI                         SUN 11/16/97 14:32 Page:165
--  Include file information  --

   XSL_SOCKMSGS_M.:TCA2TOU  is referenced.
   XSL_SOCKMSGS_E.:TCA2TOU  is referenced.
   XSL_INTERNAL_M.:TCA2TOU  is referenced.
   XSL_PERR_C.:TCA2TOU  is referenced.
   XSL_SOCKET_M.:TCA2TOU  is referenced.
   XSL_SOCKET_E.:TCA2TOU  is referenced.
   B$JIT_C.:E05TOU  was found in the system file and is never referenced.
   CP_6_C.:E05TOU  was found in the system file and is never referenced.
      No diagnostics issued in procedure XSL$CONNECT.
PL6.E3A0      #006=XSL$CONNECT File=XSL$SOCKET1.:TCA2TSI                         SUN 11/16/97 14:32 Page:166

 **** Variables and constants ****

  ****  Section 000 RoData XSL$CONNECT

  ****  Scalars and arrays  ****
OctLoc.c.b A Datatyp(siz) R M Lvl/name                 OctLoc.c.b A Datatyp(siz) R M Lvl/name

     0-0-0/w STRC(180)   r     1 XSL_CONNECTRQS

  ****  Auto variables  ****

  ****  Scalars and arrays  ****
OctLoc.c.b A Datatyp(siz) R M Lvl/name                 OctLoc.c.b A Datatyp(siz) R M Lvl/name

     5-0-0/w PTR         r     1 @NAME                      6-0-0/w PTR         r     1 @NAMELEN
     3-0-0/w PTR         r     1 @RESULT                    4-0-0/w PTR         r     1 @SOCK#
    *0-0-0/w STRC(180)   r     1 NAME                      *0-0-0/w SBIN        r     1 NAMELEN
    *0-0-0/w SBIN        r     1 RESULT                    *0-0-0/w SBIN        r     1 SOCK#
    10-0-0/w PTR         r     1 SOCK$                     11-0-0/w SBIN        r     1 TEMP
     7-0-0/w SBIN        r     1 TNAMELEN

  ****  SYMREF variables  ****

  ****  Scalars and arrays  ****
OctLoc.c.b A Datatyp(siz) R M Lvl/name                 OctLoc.c.b A Datatyp(siz) R M Lvl/name

     0-0-0/w SBIN        r     1 XSL_ERRNO                  0-0-0/w PTR         r     1 XSL_KEYBUF$
     0-0-0/w PTR         r     1 XSL_SOCK$

  ****  BASED and DCB variables  ****

  ****  Scalars and arrays  ****
OctLoc.c.b A Datatyp(siz) R M Lvl/name                 OctLoc.c.b A Datatyp(siz) R M Lvl/name

     0-0-0/w STRC(720)   r     1 SOCK                       0-0-0/w STRC(180)   r     1 XSL$CONNECTRQS
     0-0-0/w STRC(216)   r     1 XSL$CONNECTRSP

PL6.E3A0      #006=XSL$CONNECT File=XSL$SOCKET1.:TCA2TSI                         SUN 11/16/97 14:32 Page:167

   Procedure XSL$CONNECT requires 130 words for executable code.
   Procedure XSL$CONNECT requires 16 words of local(AUTO) storage.
PL6.E3A0      #006=XSL$CONNECT File=XSL$SOCKET1.:TCA2TSI                         SUN 11/16/97 14:32 Page:168
          *** CROSS REFERENCE LISTING ***
**     DENOTES     IDENTIFIER DEFINITION
<<                 IDENTIFIER'S VALUE SET
>>                 IDENTIFIER'S VALUE USED
<>                 IDENTIFIER SET AND/OR USED
--                 IDENTIFIER REFERENCED
PL6.E3A0      #006=XSL$CONNECT File=XSL$SOCKET1.:TCA2TSI                         SUN 11/16/97 14:32 Page:169
          MINI XREF LISTING

BAILOUT
      3021**LABEL    3008--CALLALT  3013--CALLALT  3028--GOTO     3031--CALLALT  3044--GOTO
COMMON
      3015**LABEL    3009--GOTO
NAME
      1178**DCL       141--PROC     3011--ENTRY    3031<>CALL     3039<>CALL     3050>>ASSIGN
NAMELEN
      3001**DCL       141--PROC     3011--ENTRY    3015>>ASSIGN   3018>>IF
RESULT
      3003**DCL       141--PROC     3011--ENTRY    3021<<ASSIGN   3034<>CALL     3051<<ASSIGN
SENDIT
      3037**LABEL    3026--GOTO
SOCK
      1525**DCL      3031<>CALL     3040<>CALL     3041<>CALL
SOCK.FLAGS.CONNECT
      1539**DCL      3027>>IF       3047<<ASSIGN
SOCK.FLAGS.CONNECTING
      1546**DCL      3025>>IF
SOCK.FLAGS.LISTEN
      1541**DCL      3027>>IF
SOCK.FLAGS.REUSEADDR
      1545**DCL      3032>>IF
SOCK.FLAGS.SELWRITE
      1549**DCL      3048<<ASSIGN
SOCK.FLAGS.SOCKET
      1543**DCL      3029>>IF
SOCK.NBACCEPT_SOCK$
      1647**DCL      1648--REDEF
SOCK.PEERNAME
      1618**DCL      3050<<ASSIGN
SOCK.SOCK#
      1534**DCL      3033>>ASSIGN
PL6.E3A0      #006=XSL$CONNECT File=XSL$SOCKET1.:TCA2TSI                         SUN 11/16/97 14:32 Page:170
SOCK.TYPE
      1532**DCL      3046>>IF
SOCK#
      3004**DCL       141--PROC     3008<>CALL     3011--ENTRY    3013<>CALL
SOCK$
      3005**DCL      1525--IMP-PTR  3024<<ASSIGN   3025>>IF       3027>>IF       3027>>IF       3029>>IF
      3031>>CALL     3032>>IF       3033>>ASSIGN   3040>>CALL     3041>>CALL     3046>>IF       3047>>ASSIGN
      3048>>ASSIGN   3050>>ASSIGN
TEMP
      3006**DCL      3033<<ASSIGN   3034<>CALL
TNAMELEN
      3002**DCL      3015<<ASSIGN   3016>>IF       3017<<ASSIGN   3031<>CALL     3038>>ASSIGN   3040>>CALL
XSL$CL_READ
      2989**DCL-ENT  3041--CALL
XSL$CL_WRITE
      2990**DCL-ENT  3040--CALL
XSL$CONNECTRQS
      2899**DCL      3037<<ASSIGN   3040--CALL
XSL$CONNECTRQS.NAME
      2926**DCL      3039<>CALL
XSL$CONNECTRQS.NAMELEN
      2906**DCL      3038<<ASSIGN
XSL$CONNECTRSP.ERRNO
      2959**DCL      3043>>ASSIGN
XSL$CONNECTRSP.RESULT
      2958**DCL      3042>>IF
XSL$DCBNPTR
      2993**DCL-ENT  3008--CALL
XSL$HTONADDR
      2991**DCL-ENT  3039--CALL
XSL$QSETSOCKOPT
      2994**DCL-ENT  3034--CALL
XSL$SOCKOPEN
      2995**DCL-ENT  3031--CALL
XSL$SOCKPTR
      2992**DCL-ENT  3013--CALL
PL6.E3A0      #006=XSL$CONNECT File=XSL$SOCKET1.:TCA2TSI                         SUN 11/16/97 14:32 Page:171
XSL_CONNECTRQS
      2847**DCL      3037>>ASSIGN
XSL_ERRNO
      2997**DCL      2998--REDEF    3019<<ASSIGN   3028<<ASSIGN   3043<<ASSIGN
XSL_KEYBUF$
      2999**DCL      2899--IMP-PTR  2951--IMP-PTR  3037>>ASSIGN   3038>>ASSIGN   3039>>CALL     3042>>IF
      3043>>ASSIGN
XSL_SOCK$
      2998**DCL      3008<>CALL     3013<>CALL     3024>>ASSIGN
PL6.E3A0      #006=XSL$CONNECT File=XSL$SOCKET1.:TCA2TSI                         SUN 11/16/97 14:32 Page:172
              *** CROSS REFERENCE LISTING ***
    **     DENOTES     IDENTIFIER DEFINITION
    <<                 IDENTIFIER'S VALUE SET
    >>                 IDENTIFIER'S VALUE USED
    <>                 IDENTIFIER SET AND/OR USED
    --                 IDENTIFIER REFERENCED
PL6.E3A0      #006=XSL$CONNECT File=XSL$SOCKET1.:TCA2TSI                         SUN 11/16/97 14:32 Page:173
              MINI UREF LISTING

XSL$CONNECT     141**PROC
XSL$QCONNECT    3011**ENTRY

PL6.E3A0      #007=XSL$SHUTDOWN File=XSL$SOCKET1.:TCA2TSI                        SUN 11/16/97 14:33 Page:174
     1284        1        /*T***********************************************************/
     1285        2        /*T*                                                         */
     1286        3        /*T* Copyright (c) Bull HN Information Systems Inc., 1997    */
     1287        4        /*T*                                                         */
     1288        5        /*T***********************************************************/
     1289        6        /*F* NAME: shutdown() and XSL$SHUTDOWN  --  Inhibit Data Transfer
     1290        7        ..::IT "Purpose:"
     1291        8        .INL +4
     1292        9        Inhibits either or both the sending and receiving of data through a socket.
     1293       10        ..::IT "C Usage:"
     1294       11        .INL 4
     1295       12        .FIF
     1296       13        status = shutdown( s, how );
     1297       14        ..::IT "PL6 Usage:"
     1298       15        .INL 4
     1299       16        .FIF
     1300       17        CALL XSL$SHUTDOWN( status, s, how );
     1301       18        ..::IT "Parameters:"
     1302       19        .INL 4
     1303       20        .FIF
     1304       21        s           integer socket descriptor
     1305       22
     1306       23        how         integer shutdown type
     1307       24        ..::IT "Result:"
     1308       25        .INL 4
     1309       26        .FIF
     1310       27        status      integer error code
     1311       28        ..::IT "Description:"
     1312       29        The shutdown() function provides for the inhibiting of data reception or
     1313       30        data transmission, or both, for the specified socket.
     1314       31        .SPB
     1315       32        The s parameter specifies the descriptor of the socket to be modified.
     1316       33        .SPB
     1317       34        The how parameter specifies how the socket is to be modified.  If how is
     1318       35        0, reception is inhibited.  If how is 1, transmission is inhibited.  If how
     1319       36        is 2, both reception and transmission are inhibited.
     1320       37        .SPB
PL6.E3A0      #007=XSL$SHUTDOWN File=XSL$SOCKET1.:TCA2TSI                        SUN 11/16/97 14:33 Page:175
     1321       38        If the shutdown() function is successful, the status result contains
     1322       39        ESUCCESS or E$SUCCESS.
     1323       40        .SPB
     1324       41        If the shutdown() function is unsuccessful, the status result contains
     1325       42        EFAILURE or E$FAILURE and the application must inspect errno or XSL_ERRNO
     1326       43        to determine the specific error condition.  The XSL$SHUTDOWN procedure
     1327       44        additionally ALTRETURNs if it is unsuccessful; it is otherwise identical
     1328       45        to the shutdown() function.
     1329       46        .SPB
     1330       47        There is no facility to re-enable data reception or transmission once
     1331       48        they have been inhibited by shutdown().
     1332       49        .SPB
     1333       50        If data reception has been inhibited, all subsequent invocations of
     1334       51        read(), recv(), and recvfrom() on the selected socket act as if zero bytes
     1335       52        of data were received.
     1336       53        .SPB
     1337       54        If data transmission has been inhibited, all subsequent invocations of
     1338       55        write(), send(), and sendto() on the selected socket report the
     1339       56        error ESHUTDOWN.
     1340       57        ..::IT "Errors:"
     1341       58        Following are the possible error conditions reported when the shutdown()
     1342       59        function is unsuccessful.  Equates for the possible values can be found in
     1343       60        <xsl_errno.h> or XSL_PERR_C for C and PL6 source, respectively.
     1344       61
     1345       62        .FIF
     1346       63
     1347       64        C #define               PL6 %EQU
     1348       65        ----------------------- -----------------------
     1349       66        EBADF                   E$BADF
     1350       67        .FIN
     1351       68        The descriptor s is not appropriate to identify a socket.
     1352       69        .FIF
     1353       70
     1354       71        EFAULT                  E$FAULT
     1355       72        .FIN
     1356       73        The how parameter is invalid (not 0, 1, or 2).
     1357       74        .FIF
PL6.E3A0      #007=XSL$SHUTDOWN File=XSL$SOCKET1.:TCA2TSI                        SUN 11/16/97 14:33 Page:176
     1358       75
     1359       76        ENOTCONN                E$NOTCONN
     1360       77        .FIN
     1361       78        The connect() function has not been invoked on this socket.
     1362       79        .FIF
     1363       80
     1364       81        ENOTSOCK                E$NOTSOCK
     1365       82        .FIN
     1366       83        The descriptor s is no longer valid to identify a socket.
     1367       84        .FIF
     1368       85        */
     1369       86        XSL$SHUTDOWN: PROC( RESULT, SOCK#, HOW) ALTRET;
     1370       87        %INCLUDE XSL_SOCKET_E;
     1371      345        %INCLUDE XSL_SOCKET_M;
     1372     1106        %INCLUDE XSL_PERR_C;
     1373     1161        %INCLUDE XSL_INTERNAL_M;
     1374     1412            %XSL$SOCKINFO( FPTN=SOCK, STCLASS="BASED( SOCK$)");
     1375     1556        %INCLUDE XSL_SOCKMSGS_E;
     1376     1602        %INCLUDE XSL_SOCKMSGS_M;
     1377     2735            %XSL$SHUTDOWNRQS( FPTN=XSL_SHUTDOWNRQS, STCLASS="CONSTANT SYMDEF");
     1378     2761            %XSL$SHUTDOWNRQS( STCLASS="BASED( XSL_KEYBUF$)");
     1379     2787            %XSL$SHUTDOWNRSP( STCLASS="BASED( XSL_KEYBUF$)");
     1380     2814
     1381     2815    1       DCL XSL$CL_READ ENTRY(3) ALTRET;
     1382     2816    1       DCL XSL$CL_WRITE ENTRY(4) ALTRET;
     1383     2817    1       DCL XSL$SOCKPTR ENTRY(2) ALTRET;
     1384     2818    1       DCL XSL$DCBNPTR ENTRY(2) ALTRET;
     1385     2819
     1386     2820    1       DCL XSL_ERRNO SBIN SYMREF;
     1387     2821    1       DCL XSL_SOCK$ REDEF XSL_ERRNO PTR;
     1388     2822    1       DCL XSL_KEYBUF$ PTR SYMREF READONLY;
     1389     2823
     1390     2824    1       DCL HOW SBIN;
     1391     2825    1       DCL RESULT SBIN;
     1392     2826    1       DCL SOCK# SBIN;
     1393     2827    1       DCL SOCK$ PTR;
     1394     2828
PL6.E3A0      #007=XSL$SHUTDOWN File=XSL$SOCKET1.:TCA2TSI                        SUN 11/16/97 14:33 Page:177
     1395     2829    1       CALL XSL$DCBNPTR( SOCK#, XSL_SOCK$) ALTRET( BAILOUT);
     1396     2830    1       GOTO COMMON;
     1397     2831
     1398     2832    1   XSL$QSHUTDOWN: ENTRY( RESULT, SOCK#, HOW) ALTRET;
     1399     2833
     1400     2834    1       CALL XSL$SOCKPTR( SOCK#, XSL_SOCK$) ALTRET (BAILOUT);
     1401     2835    1   COMMON:
     1402     2836    2       IF HOW < 0 OR HOW > 2 THEN DO;
     1403     2837    2           XSL_ERRNO = %E$FAULT;
     1404     2838    2   BAILOUT:
     1405     2839    2           RESULT = %E$FAILURE;
     1406     2840    2           ALTRETURN;
     1407     2841    2           END;
     1408     2842    1       SOCK$ = XSL_SOCK$;
     1409     2843    2       IF NOT SOCK.FLAGS.CONNECT THEN DO;
     1410     2844    2           XSL_ERRNO = %E$NOTCONN; GOTO BAILOUT; END;
     1411     2845    1       XSL$SHUTDOWNRQS = XSL_SHUTDOWNRQS;
     1412     2846    1       XSL$SHUTDOWNRQS.HOW = HOW;
     1413     2847    1       CALL XSL$CL_WRITE( SOCK, LENGTHC( XSL$SHUTDOWNRQS));
     1414     2848    1       CALL XSL$CL_READ( SOCK);
     1415     2849    2       IF XSL$SHUTDOWNRSP.RESULT < 0 THEN DO;
     1416     2850    2           XSL_ERRNO = XSL$SHUTDOWNRSP.ERRNO;
     1417     2851    2           GOTO BAILOUT;
     1418     2852    2           END;
     1419     2853    2       DO CASE( HOW);
     1420     2854    2           CASE( 0);
     1421     2855    2               SOCK.FLAGS.RECVSHUT = '1'B;
     1422     2856    2           CASE( 1);
     1423     2857    2               SOCK.FLAGS.SENDSHUT = '1'B;
     1424     2858    2           CASE( 2);
     1425     2859    2               SOCK.FLAGS.RECVSHUT = '1'B;
     1426     2860    2               SOCK.FLAGS.SENDSHUT = '1'B;
     1427     2861    2           END;
     1428     2862    1       RESULT = %E$SUCCESS;
     1429     2863    1       RETURN;
     1430     2864
     1431     2865    1   END XSL$SHUTDOWN;
PL6.E3A0      #007=XSL$SHUTDOWN File=XSL$SOCKET1.:TCA2TSI                        SUN 11/16/97 14:33 Page:178
     1432     2866        %EOD;

PL6.E3A0      #007=XSL$SHUTDOWN File=XSL$SOCKET1.:TCA2TSI                        SUN 11/16/97 14:33 Page:179
--  Include file information  --

   XSL_SOCKMSGS_M.:TCA2TOU  is referenced.
   XSL_SOCKMSGS_E.:TCA2TOU  is referenced.
   XSL_INTERNAL_M.:TCA2TOU  is referenced.
   XSL_PERR_C.:TCA2TOU  is referenced.
   XSL_SOCKET_M.:TCA2TOU  is referenced.
   XSL_SOCKET_E.:TCA2TOU  is referenced.
   B$JIT_C.:E05TOU  was found in the system file and is never referenced.
   CP_6_C.:E05TOU  was found in the system file and is never referenced.
      No diagnostics issued in procedure XSL$SHUTDOWN.

   Procedure XSL$SHUTDOWN requires 86 words for executable code.
   Procedure XSL$SHUTDOWN requires 10 words of local(AUTO) storage.

PL6.E3A0      #007=XSL$SHUTDOWN File=XSL$SOCKET1.:TCA2TSI                        SUN 11/16/97 14:33 Page:180

 Object Unit name= XSL$SHUTDOWN                               File name= XSL$SOCKET1.:TCA2TOU
 UTS= NOV 16 '97 14:33:18.52 SUN                              Compiler= PL-6/E31         Sev=      00
 SharedLib= :SHARED_SYSTEM                                    Alt SharedLib=


    ****  Control sections  ****

 Sect   Type Bound  Init  Size OctSiz  Section name(segment info)
    0  RoData even  UTS      1      1  XSL$SHUTDOWN
    1   Proc  even  none    86    126  XSL$SHUTDOWN
    2  RoData even  none     2      2  XSL$SHUTDOWN

    ****  Entry defs  ****

                              Check   Calling
                             calling  sequence
  Sect OctLoc Primary Altret sequence   type   Parms  Name
     1      0   yes    yes     yes      Std        3  XSL$SHUTDOWN
     1     12          yes     yes      Std        3  XSL$QSHUTDOWN

  ****  Data defs  ****

 Sect OctLoc  Name                           Sect OctLoc  Name
    0      0  XSL_SHUTDOWNRQS
PL6.E3A0      #007=XSL$SHUTDOWN File=XSL$SOCKET1.:TCA2TSI                        SUN 11/16/97 14:33 Page:181

  ****  Entry refs  ****

         Check        Calling
        calling       sequence
Altret sequence SRef   type   Args  Name
 yes     yes           Std       2 XSL$DCBNPTR
 yes     yes           Std       2 XSL$SOCKPTR
 yes     yes           Std       4 XSL$CL_WRITE
 yes     yes           Std       3 XSL$CL_READ
                       nStd      0 X66_AUTO_3
                       Std       0 B_CONSPOOL_D
                       nStd      0 X66_AALT
                       nStd      0 X66_ARET

  ****  Data refs  ****

  Flags:  r = read only, s = secondary
Flgs Name                             Flgs Name                             Flgs Name
     XSL_ERRNO                        r    XSL_KEYBUF$                           B_VECTNIL

  ****  Segment refs  ****

  Flags:  r = read only, s = secondary
Flgs Name                             Flgs Name                             Flgs Name
     ISSID
PL6.E3A0      #007=XSL$SHUTDOWN File=XSL$SOCKET1.:TCA2TSI                        SUN 11/16/97 14:33 Page:182


     1284        1        /*T***********************************************************/
     1285        2        /*T*                                                         */
     1286        3        /*T* Copyright (c) Bull HN Information Systems Inc., 1997    */
     1287        4        /*T*                                                         */
     1288        5        /*T***********************************************************/
     1289        6        /*F* NAME: shutdown() and XSL$SHUTDOWN  --  Inhibit Data Transfer
     1290        7        ..::IT "Purpose:"
     1291        8        .INL +4
     1292        9        Inhibits either or both the sending and receiving of data through a socket.
     1293       10        ..::IT "C Usage:"
     1294       11        .INL 4
     1295       12        .FIF
     1296       13        status = shutdown( s, how );
     1297       14        ..::IT "PL6 Usage:"
     1298       15        .INL 4
     1299       16        .FIF
     1300       17        CALL XSL$SHUTDOWN( status, s, how );
     1301       18        ..::IT "Parameters:"
     1302       19        .INL 4
     1303       20        .FIF
     1304       21        s           integer socket descriptor
     1305       22
     1306       23        how         integer shutdown type
     1307       24        ..::IT "Result:"
     1308       25        .INL 4
     1309       26        .FIF
     1310       27        status      integer error code
     1311       28        ..::IT "Description:"
     1312       29        The shutdown() function provides for the inhibiting of data reception or
     1313       30        data transmission, or both, for the specified socket.
     1314       31        .SPB
     1315       32        The s parameter specifies the descriptor of the socket to be modified.
     1316       33        .SPB
     1317       34        The how parameter specifies how the socket is to be modified.  If how is
     1318       35        0, reception is inhibited.  If how is 1, transmission is inhibited.  If how
     1319       36        is 2, both reception and transmission are inhibited.
PL6.E3A0      #007=XSL$SHUTDOWN File=XSL$SOCKET1.:TCA2TSI                        SUN 11/16/97 14:33 Page:183
     1320       37        .SPB
     1321       38        If the shutdown() function is successful, the status result contains
     1322       39        ESUCCESS or E$SUCCESS.
     1323       40        .SPB
     1324       41        If the shutdown() function is unsuccessful, the status result contains
     1325       42        EFAILURE or E$FAILURE and the application must inspect errno or XSL_ERRNO
     1326       43        to determine the specific error condition.  The XSL$SHUTDOWN procedure
     1327       44        additionally ALTRETURNs if it is unsuccessful; it is otherwise identical
     1328       45        to the shutdown() function.
     1329       46        .SPB
     1330       47        There is no facility to re-enable data reception or transmission once
     1331       48        they have been inhibited by shutdown().
     1332       49        .SPB
     1333       50        If data reception has been inhibited, all subsequent invocations of
     1334       51        read(), recv(), and recvfrom() on the selected socket act as if zero bytes
     1335       52        of data were received.
     1336       53        .SPB
     1337       54        If data transmission has been inhibited, all subsequent invocations of
     1338       55        write(), send(), and sendto() on the selected socket report the
     1339       56        error ESHUTDOWN.
     1340       57        ..::IT "Errors:"
     1341       58        Following are the possible error conditions reported when the shutdown()
     1342       59        function is unsuccessful.  Equates for the possible values can be found in
     1343       60        <xsl_errno.h> or XSL_PERR_C for C and PL6 source, respectively.
     1344       61
     1345       62        .FIF
     1346       63
     1347       64        C #define               PL6 %EQU
     1348       65        ----------------------- -----------------------
     1349       66        EBADF                   E$BADF
     1350       67        .FIN
     1351       68        The descriptor s is not appropriate to identify a socket.
     1352       69        .FIF
     1353       70
     1354       71        EFAULT                  E$FAULT
     1355       72        .FIN
     1356       73        The how parameter is invalid (not 0, 1, or 2).
PL6.E3A0      #007=XSL$SHUTDOWN File=XSL$SOCKET1.:TCA2TSI                        SUN 11/16/97 14:33 Page:184
     1357       74        .FIF
     1358       75
     1359       76        ENOTCONN                E$NOTCONN
     1360       77        .FIN
     1361       78        The connect() function has not been invoked on this socket.
     1362       79        .FIF
     1363       80
     1364       81        ENOTSOCK                E$NOTSOCK
     1365       82        .FIN
     1366       83        The descriptor s is no longer valid to identify a socket.
     1367       84        .FIF
     1368       85        */
     1369       86        XSL$SHUTDOWN: PROC( RESULT, SOCK#, HOW) ALTRET;

     86  1 000000   000000 700200 xent  XSL$SHUTDOWN TSX0  ! X66_AUTO_3
         1 000001   000012 000003                    ZERO    10,3

     1370       87        %INCLUDE XSL_SOCKET_E;
     1371      345        %INCLUDE XSL_SOCKET_M;
     1372     1106        %INCLUDE XSL_PERR_C;
     1373     1161        %INCLUDE XSL_INTERNAL_M;
     1374     1412            %XSL$SOCKINFO( FPTN=SOCK, STCLASS="BASED( SOCK$)");
     1375     1556        %INCLUDE XSL_SOCKMSGS_E;
     1376     1602        %INCLUDE XSL_SOCKMSGS_M;
     1377     2735            %XSL$SHUTDOWNRQS( FPTN=XSL_SHUTDOWNRQS, STCLASS="CONSTANT SYMDEF");
     1378     2761            %XSL$SHUTDOWNRQS( STCLASS="BASED( XSL_KEYBUF$)");
     1379     2787            %XSL$SHUTDOWNRSP( STCLASS="BASED( XSL_KEYBUF$)");
     1380     2814
     1381     2815    1       DCL XSL$CL_READ ENTRY(3) ALTRET;
     1382     2816    1       DCL XSL$CL_WRITE ENTRY(4) ALTRET;
     1383     2817    1       DCL XSL$SOCKPTR ENTRY(2) ALTRET;
     1384     2818    1       DCL XSL$DCBNPTR ENTRY(2) ALTRET;
     1385     2819
     1386     2820    1       DCL XSL_ERRNO SBIN SYMREF;
     1387     2821    1       DCL XSL_SOCK$ REDEF XSL_ERRNO PTR;
     1388     2822    1       DCL XSL_KEYBUF$ PTR SYMREF READONLY;
     1389     2823
PL6.E3A0      #007=XSL$SHUTDOWN File=XSL$SOCKET1.:TCA2TSI                        SUN 11/16/97 14:33 Page:185
     1390     2824    1       DCL HOW SBIN;
     1391     2825    1       DCL RESULT SBIN;
     1392     2826    1       DCL SOCK# SBIN;
     1393     2827    1       DCL SOCK$ PTR;
     1394     2828
     1395     2829    1       CALL XSL$DCBNPTR( SOCK#, XSL_SOCK$) ALTRET( BAILOUT);

   2829  1 000002   000000 236000 2                  LDQ     0
         1 000003   200004 235100                    LDA     @SOCK#,,AUTO
         1 000004   200010 757100                    STAQ    SOCK$+2,,AUTO
         1 000005   200010 630500                    EPPR0   SOCK$+2,,AUTO
         1 000006   000020 631400 xsym               EPPR1   B_VECTNIL+16
         1 000007   000000 701000 xent               TSX1    XSL$DCBNPTR
         1 000010   000032 702000 1                  TSX2    BAILOUT

     1396     2830    1       GOTO COMMON;

   2830  1 000011   000023 710000 1                  TRA     COMMON

     1397     2831
     1398     2832    1   XSL$QSHUTDOWN: ENTRY( RESULT, SOCK#, HOW) ALTRET;

   2832  1 000012   000000 700200 xent  XSL$QSHUTDO* TSX0  ! X66_AUTO_3
         1 000013   000012 000003                    ZERO    10,3

     1399     2833
     1400     2834    1       CALL XSL$SOCKPTR( SOCK#, XSL_SOCK$) ALTRET (BAILOUT);

   2834  1 000014   000000 236000 2                  LDQ     0
         1 000015   200004 235100                    LDA     @SOCK#,,AUTO
         1 000016   200010 757100                    STAQ    SOCK$+2,,AUTO
         1 000017   200010 630500                    EPPR0   SOCK$+2,,AUTO
         1 000020   000020 631400 xsym               EPPR1   B_VECTNIL+16
         1 000021   000000 701000 xent               TSX1    XSL$SOCKPTR
         1 000022   000032 702000 1                  TSX2    BAILOUT

     1401     2835    1   COMMON:
PL6.E3A0      #007=XSL$SHUTDOWN File=XSL$SOCKET1.:TCA2TSI                        SUN 11/16/97 14:33 Page:186
     1402     2836    2       IF HOW < 0 OR HOW > 2 THEN DO;

   2836  1 000023   200005 470500       COMMON       LDP0    @HOW,,AUTO
         1 000024   000000 235100                    LDA     0,,PR0
         1 000025   000030 604000 1                  TMI     s:2837
         1 000026   000002 115007                    CMPA    2,DL
         1 000027   000036 604400 1                  TMOZ    s:2842

     1403     2837    2           XSL_ERRNO = %E$FAULT;

   2837  1 000030   000016 236007                    LDQ     14,DL
         1 000031   000000 756000 xsym               STQ     XSL_ERRNO

     1404     2838    2   BAILOUT:
     1405     2839    2           RESULT = %E$FAILURE;

   2839  1 000032   000001 335007       BAILOUT      LCA     1,DL
         1 000033   200003 470500                    LDP0    @RESULT,,AUTO
         1 000034   000000 755100                    STA     0,,PR0

     1406     2840    2           ALTRETURN;

   2840  1 000035   000000 702200 xent               TSX2  ! X66_AALT

     1407     2841    2           END;
     1408     2842    1       SOCK$ = XSL_SOCK$;

   2842  1 000036   000000 236000 xsym               LDQ     XSL_ERRNO
         1 000037   200006 756100                    STQ     SOCK$,,AUTO

     1409     2843    2       IF NOT SOCK.FLAGS.CONNECT THEN DO;

   2843  1 000040   200006 471500                    LDP1    SOCK$,,AUTO
         1 000041   100001 236100                    LDQ     1,,PR1
         1 000042   040000 316003                    CANQ    16384,DU
         1 000043   000047 601000 1                  TNZ     s:2845

PL6.E3A0      #007=XSL$SHUTDOWN File=XSL$SOCKET1.:TCA2TSI                        SUN 11/16/97 14:33 Page:187
     1410     2844    2           XSL_ERRNO = %E$NOTCONN; GOTO BAILOUT; END;

   2844  1 000044   000164 235007                    LDA     116,DL
         1 000045   000000 755000 xsym               STA     XSL_ERRNO

   2844  1 000046   000032 710000 1                  TRA     BAILOUT

     1411     2845    1       XSL$SHUTDOWNRQS = XSL_SHUTDOWNRQS;

   2845  1 000047   000000 236000 0                  LDQ     XSL_SHUTDOWNRQS
         1 000050   000000 473400 xsym               LDP3    XSL_KEYBUF$
         1 000051   300000 756100                    STQ     0,,PR3

     1412     2846    1       XSL$SHUTDOWNRQS.HOW = HOW;

   2846  1 000052   000000 720100                    LXL0    0,,PR0
         1 000053   300000 440100                    SXL0    0,,PR3

     1413     2847    1       CALL XSL$CL_WRITE( SOCK, LENGTHC( XSL$SHUTDOWNRQS));

   2847  1 000054   000001 236000 2                  LDQ     1
         1 000055   200006 235100                    LDA     SOCK$,,AUTO
         1 000056   200010 757100                    STAQ    SOCK$+2,,AUTO
         1 000057   200010 630500                    EPPR0   SOCK$+2,,AUTO
         1 000060   000020 631400 xsym               EPPR1   B_VECTNIL+16
         1 000061   000000 701000 xent               TSX1    XSL$CL_WRITE
         1 000062   000000 011000                    NOP     0

     1414     2848    1       CALL XSL$CL_READ( SOCK);

   2848  1 000063   200006 630500                    EPPR0   SOCK$,,AUTO
         1 000064   000017 631400 xsym               EPPR1   B_VECTNIL+15
         1 000065   000000 701000 xent               TSX1    XSL$CL_READ
         1 000066   000000 011000                    NOP     0

     1415     2849    2       IF XSL$SHUTDOWNRSP.RESULT < 0 THEN DO;

PL6.E3A0      #007=XSL$SHUTDOWN File=XSL$SOCKET1.:TCA2TSI                        SUN 11/16/97 14:33 Page:188
   2849  1 000067   000000 470400 xsym               LDP0    XSL_KEYBUF$
         1 000070   000000 720100                    LXL0    0,,PR0
         1 000071   000076 605000 1                  TPL     s:2853

     1416     2850    2           XSL_ERRNO = XSL$SHUTDOWNRSP.ERRNO;

   2850  1 000072   000001 236100                    LDQ     1,,PR0
         1 000073   000022 732000                    QRS     18
         1 000074   000000 756000 xsym               STQ     XSL_ERRNO

     1417     2851    2           GOTO BAILOUT;

   2851  1 000075   000032 710000 1                  TRA     BAILOUT

     1418     2852    2           END;
     1419     2853    2       DO CASE( HOW);

   2853  1 000076   200005 471500                    LDP1    @HOW,,AUTO
         1 000077   100000 235100                    LDA     0,,PR1
         1 000100   000003 115007                    CMPA    3,DL
         1 000101   000103 602005 1                  TNC     s:2853+5,AL
         1 000102   000123 710000 1                  TRA     s:2862
         1 000103   000106 710000 1                  TRA     s:2855
         1 000104   000112 710000 1                  TRA     s:2857
         1 000105   000116 710000 1                  TRA     s:2859

     1420     2854    2           CASE( 0);

     1421     2855    2               SOCK.FLAGS.RECVSHUT = '1'B;

   2855  1 000106   200006 473500                    LDP3    SOCK$,,AUTO
         1 000107   100000 236003                    LDQ     32768,DU
         1 000110   300001 256100                    ORSQ    1,,PR3
         1 000111   000123 710000 1                  TRA     s:2862

     1422     2856    2           CASE( 1);

PL6.E3A0      #007=XSL$SHUTDOWN File=XSL$SOCKET1.:TCA2TSI                        SUN 11/16/97 14:33 Page:189
     1423     2857    2               SOCK.FLAGS.SENDSHUT = '1'B;

   2857  1 000112   200006 473500                    LDP3    SOCK$,,AUTO
         1 000113   200000 236003                    LDQ     65536,DU
         1 000114   300001 256100                    ORSQ    1,,PR3
         1 000115   000123 710000 1                  TRA     s:2862

     1424     2858    2           CASE( 2);

     1425     2859    2               SOCK.FLAGS.RECVSHUT = '1'B;

   2859  1 000116   200006 473500                    LDP3    SOCK$,,AUTO
         1 000117   100000 236003                    LDQ     32768,DU
         1 000120   300001 256100                    ORSQ    1,,PR3

     1426     2860    2               SOCK.FLAGS.SENDSHUT = '1'B;

   2860  1 000121   200000 236003                    LDQ     65536,DU
         1 000122   300001 256100                    ORSQ    1,,PR3

     1427     2861    2           END;

     1428     2862    1       RESULT = %E$SUCCESS;

   2862  1 000123   200003 473500                    LDP3    @RESULT,,AUTO
         1 000124   300000 450100                    STZ     0,,PR3

     1429     2863    1       RETURN;

   2863  1 000125   000000 702200 xent               TSX2  ! X66_ARET

XSL_SHUTDOWNRQS
 Sect OctLoc
   0     000   000031 000000                                                    ....

(unnamed)
 Sect OctLoc
PL6.E3A0      #007=XSL$SHUTDOWN File=XSL$SOCKET1.:TCA2TSI                        SUN 11/16/97 14:33 Page:190
   2     000   000000 006000   000006 006000                                    ........
     1430     2864
     1431     2865    1   END XSL$SHUTDOWN;
     1432     2866        %EOD;

PL6.E3A0      #007=XSL$SHUTDOWN File=XSL$SOCKET1.:TCA2TSI                        SUN 11/16/97 14:33 Page:191
--  Include file information  --

   XSL_SOCKMSGS_M.:TCA2TOU  is referenced.
   XSL_SOCKMSGS_E.:TCA2TOU  is referenced.
   XSL_INTERNAL_M.:TCA2TOU  is referenced.
   XSL_PERR_C.:TCA2TOU  is referenced.
   XSL_SOCKET_M.:TCA2TOU  is referenced.
   XSL_SOCKET_E.:TCA2TOU  is referenced.
   B$JIT_C.:E05TOU  was found in the system file and is never referenced.
   CP_6_C.:E05TOU  was found in the system file and is never referenced.
      No diagnostics issued in procedure XSL$SHUTDOWN.
PL6.E3A0      #007=XSL$SHUTDOWN File=XSL$SOCKET1.:TCA2TSI                        SUN 11/16/97 14:33 Page:192

 **** Variables and constants ****

  ****  Section 000 RoData XSL$SHUTDOWN

  ****  Scalars and arrays  ****
OctLoc.c.b A Datatyp(siz) R M Lvl/name                 OctLoc.c.b A Datatyp(siz) R M Lvl/name

     0-0-0/w STRC        r     1 XSL_SHUTDOWNRQS

  ****  Auto variables  ****

  ****  Scalars and arrays  ****
OctLoc.c.b A Datatyp(siz) R M Lvl/name                 OctLoc.c.b A Datatyp(siz) R M Lvl/name

     5-0-0/w PTR         r     1 @HOW                       3-0-0/w PTR         r     1 @RESULT
     4-0-0/w PTR         r     1 @SOCK#                    *0-0-0/w SBIN        r     1 HOW
    *0-0-0/w SBIN        r     1 RESULT                    *0-0-0/w SBIN        r     1 SOCK#
     6-0-0/w PTR         r     1 SOCK$

  ****  SYMREF variables  ****

  ****  Scalars and arrays  ****
OctLoc.c.b A Datatyp(siz) R M Lvl/name                 OctLoc.c.b A Datatyp(siz) R M Lvl/name

     0-0-0/w SBIN        r     1 XSL_ERRNO                  0-0-0/w PTR         r     1 XSL_KEYBUF$
     0-0-0/w PTR         r     1 XSL_SOCK$

  ****  BASED and DCB variables  ****

  ****  Scalars and arrays  ****
OctLoc.c.b A Datatyp(siz) R M Lvl/name                 OctLoc.c.b A Datatyp(siz) R M Lvl/name

     0-0-0/w STRC(720)   r     1 SOCK                       0-0-0/w STRC        r     1 XSL$SHUTDOWNRQS
     0-0-0/w STRC(54)    r     1 XSL$SHUTDOWNRSP

PL6.E3A0      #007=XSL$SHUTDOWN File=XSL$SOCKET1.:TCA2TSI                        SUN 11/16/97 14:33 Page:193

   Procedure XSL$SHUTDOWN requires 86 words for executable code.
   Procedure XSL$SHUTDOWN requires 10 words of local(AUTO) storage.
PL6.E3A0      #007=XSL$SHUTDOWN File=XSL$SOCKET1.:TCA2TSI                        SUN 11/16/97 14:33 Page:194
          *** CROSS REFERENCE LISTING ***
**     DENOTES     IDENTIFIER DEFINITION
<<                 IDENTIFIER'S VALUE SET
>>                 IDENTIFIER'S VALUE USED
<>                 IDENTIFIER SET AND/OR USED
--                 IDENTIFIER REFERENCED
PL6.E3A0      #007=XSL$SHUTDOWN File=XSL$SOCKET1.:TCA2TSI                        SUN 11/16/97 14:33 Page:195
          MINI XREF LISTING

BAILOUT
      2839**LABEL    2829--CALLALT  2834--CALLALT  2844--GOTO     2851--GOTO
COMMON
      2836**LABEL    2830--GOTO
HOW
      2824**DCL        86--PROC     2832--ENTRY    2836>>IF       2836>>IF       2846>>ASSIGN   2853>>DOCASE
RESULT
      2825**DCL        86--PROC     2832--ENTRY    2839<<ASSIGN   2862<<ASSIGN
SOCK
      1430**DCL      2847<>CALL     2848<>CALL
SOCK.FLAGS.CONNECT
      1444**DCL      2843>>IF
SOCK.FLAGS.RECVSHUT
      1443**DCL      2855<<ASSIGN   2859<<ASSIGN
SOCK.FLAGS.SENDSHUT
      1442**DCL      2857<<ASSIGN   2860<<ASSIGN
SOCK.NBACCEPT_SOCK$
      1552**DCL      1553--REDEF
SOCK#
      2826**DCL        86--PROC     2829<>CALL     2832--ENTRY    2834<>CALL
SOCK$
      2827**DCL      1430--IMP-PTR  2842<<ASSIGN   2843>>IF       2847>>CALL     2848>>CALL     2855>>ASSIGN
      2857>>ASSIGN   2859>>ASSIGN   2860>>ASSIGN
XSL$CL_READ
      2815**DCL-ENT  2848--CALL
XSL$CL_WRITE
      2816**DCL-ENT  2847--CALL
XSL$DCBNPTR
      2818**DCL-ENT  2829--CALL
XSL$SHUTDOWNRQS
      2778**DCL      2845<<ASSIGN   2847--CALL
XSL$SHUTDOWNRQS.HOW
PL6.E3A0      #007=XSL$SHUTDOWN File=XSL$SOCKET1.:TCA2TSI                        SUN 11/16/97 14:33 Page:196
      2785**DCL      2846<<ASSIGN
XSL$SHUTDOWNRSP.ERRNO
      2812**DCL      2850>>ASSIGN
XSL$SHUTDOWNRSP.RESULT
      2811**DCL      2849>>IF
XSL$SOCKPTR
      2817**DCL-ENT  2834--CALL
XSL_ERRNO
      2820**DCL      2821--REDEF    2837<<ASSIGN   2844<<ASSIGN   2850<<ASSIGN
XSL_KEYBUF$
      2822**DCL      2778--IMP-PTR  2804--IMP-PTR  2845>>ASSIGN   2846>>ASSIGN   2849>>IF       2850>>ASSIGN
XSL_SHUTDOWNRQS
      2752**DCL      2845>>ASSIGN
XSL_SOCK$
      2821**DCL      2829<>CALL     2834<>CALL     2842>>ASSIGN
PL6.E3A0      #007=XSL$SHUTDOWN File=XSL$SOCKET1.:TCA2TSI                        SUN 11/16/97 14:33 Page:197
              *** CROSS REFERENCE LISTING ***
    **     DENOTES     IDENTIFIER DEFINITION
    <<                 IDENTIFIER'S VALUE SET
    >>                 IDENTIFIER'S VALUE USED
    <>                 IDENTIFIER SET AND/OR USED
    --                 IDENTIFIER REFERENCED
PL6.E3A0      #007=XSL$SHUTDOWN File=XSL$SOCKET1.:TCA2TSI                        SUN 11/16/97 14:33 Page:198
              MINI UREF LISTING

XSL$QSHUTDOWN    2832**ENTRY
XSL$SHUTDOWN      86**PROC

