PL6.E3A0      #013=XSL$EVENT File=XSL$SOCKET1.:TCA2TSI                           SUN 11/16/97 14:37 Page:392
     2364        1        /*T***********************************************************/
     2365        2        /*T*                                                         */
     2366        3        /*T* Copyright (c) Bull HN Information Systems Inc., 1997    */
     2367        4        /*T*                                                         */
     2368        5        /*T***********************************************************/
     2369        6        XSL$EVENT: PROC( B$EXCFR) ALTRET;
     2370        7        %INCLUDE CP_6;
     2371       88        %INCLUDE B$JIT;
     2372      378    1       DCL B$JIT$ PTR SYMREF READONLY; /* Just defined to get privilege info */
     2373      379            %B$COMIO( STCLASS="BASED( EXCFR$)");
     2374      392            %B$EXCFR( STCLASS=);
     2375      410            %SUB_EXC;
     2376      457            %B$NWIO( STCLASS="BASED( EXCFR$)");
     2377      542            %FPT_SCREECH( SCODE=VLP_SUA, STCLASS=CONSTANT);
     2378      556            %VLP_SUA( SEV=5, LDCTS=YES, CWSPT=YES, STCLASS=CONSTANT,
     2379      557                    FCG='XS', MID='L', CODE=9999);
     2380      627            %VLP_ERRCODE( FPTN=ERRCODE);
     2381      672            %FPT_PRIV(FPTN=SET_EXMM,STCLASS=CONSTANT,PRIV=%PR_EXMM#);
     2382      687        %INCLUDE XSL_SOCKET_M;
     2383     1448        %INCLUDE XSL_INTERNAL_M;
     2384     1699            %XSL$DATABUF( FPTN=DATABUF, STCLASS="BASED( EVPTR$)");
     2385     1732            %XSL$SOCKINFO( FPTN=SOCK, STCLASS="BASED( SOCK$)");
     2386     1876        %INCLUDE XSL_SOCKMSGS_E;
     2387     1922
     2388     1923    1       DCL XSL$RELBUF ENTRY(2) ALTRET;
     2389     1924    1       DCL XSL$EVLOG ENTRY(2);
     2390     1925
     2391     1926    1       DCL XSL_SOCK$$ PTR SYMREF;
     2392     1927    1       DCL XSL_BUFSIZE SBIN SYMREF;
     2393     1928
     2394     1929    1       DCL B$PTR PTR BASED;
     2395     1930    1       DCL EVENT# SBIN;
     2396     1931    1       DCL EVPTR$ REDEF EVENT# PTR;
     2397     1932    1       DCL EXCFR$ PTR;
     2398     1933    1       DCL MSGCODE SBIN HALF;
     2399     1934    1       DCL SOCK$ PTR;
     2400     1935
PL6.E3A0      #013=XSL$EVENT File=XSL$SOCKET1.:TCA2TSI                           SUN 11/16/97 14:37 Page:393
     2401     1936            /* this entire procedure is INHIBITED to avoid TCB overflow */
     2402     1937    2       DO INHIBIT;
     2403     1938    2           EVENT# = B$EXCFR.EVID;  /* loads EVPTR$ too... */
     2404     1939    2           EXCFR$ = ADDR( B$EXCFR);
     2405     1940    2   SELECT_SUBC:
     2406     1941    3           DO SELECT( B$EXCFR.SUBC);
     2407     1942    3               SELECT( %SUBC_IO#);
     2408     1943    3               CALL XSL$EVLOG( 'EV', EVPTR$);
     2409     1944    3               IF NOT DATABUF.FLAGS.BUSY
     2410     1945    4               THEN DO;
     2411     1946    5                   CALL M$SPRIV(SET_EXMM) WHENALTRETURN DO; END;
     2412     1947    4                   CALL M$SCREECH( FPT_SCREECH);
     2413     1948    4                   END;
     2414     1949    3               SOCK$ = EVPTR$->B$PTR;  /* GETBUF sets this up */
     2415     1950    3               DATABUF.FLAGS.BUSY = '0'B;
     2416     1951    3               DATABUF.START = SIZEC( DATABUF);
     2417     1952    3               DATABUF.LEN = B$NWIO.ARS;
     2418     1953    3               ERRCODE = B$NWIO.IOERRCODE;
     2419     1954    3               IF NOT ERRCODE THEN ERRCODE = B$EXCFR.ERR;
     2420     1955    4               IF ERRCODE THEN DO;
     2421     1956    4                   CALL XSL$EVLOG( 'ER', SOCK$);
     2422     1957    4                   CALL XSL$EVLOG( , ERRCODE);
     2423     1958    4                   IF SOCK.FLAGS.CP6ERR THEN GOTO RELBUF;
     2424     1959    4                   SOCK.FLAGS.CP6ERR = '1'B;
     2425     1960    4                   SOCK.CP6ERROR = ERRCODE;
     2426     1961    4                   DATABUF.LEN = 0;
     2427     1962    4                   DATABUF.KEY = '0'B;
     2428     1963    4                   DATABUF.KEY(1) = %RECVRSP;
     2429     1964    4                   END;
     2430     1965    3               ELSE
     2431     1966    3                   IF B$NWIO.TYC THEN GOTO RELBUF;
     2432     1967    3               SOCK.BUFPND# = SOCK.BUFPND# + 1;
     2433     1968    3               MSGCODE = DATABUF.KEY(1);
     2434     1969    4               IF ( MSGCODE = %RECVRSP OR MSGCODE = %RECVFROMRSP) THEN DO;
     2435     1970    4                   IF DATABUF.KEY(2) ~= 255 AND DATABUF.KEY(3) ~= 255 AND
     2436     1971    5                     DATABUF.KEY(5) ~= 0 THEN DO;
     2437     1972    5                       DATABUF.FLAGS.OOB = '1'B;
PL6.E3A0      #013=XSL$EVENT File=XSL$SOCKET1.:TCA2TSI                           SUN 11/16/97 14:37 Page:394
     2438     1973    5                       IF SOCK.FLAGS.OOBINLINE THEN GOTO OOBINLINE;
     2439     1974    5                       SOCK.OOB# = SOCK.OOB# + 1;
     2440     1975    5                       SOCK.FLAGS.SELEXCEP = '1'B;
     2441     1976    5                       END;
     2442     1977    5                   ELSE DO;
     2443     1978    5   OOBINLINE:
     2444     1979    5                       SOCK.DAT# = SOCK.DAT# + 1;
     2445     1980    5                       SOCK.FLAGS.SELREAD = '1'B;
     2446     1981    5                       END;
     2447     1982    5                   IF MSGCODE = %RECVFROMRSP THEN DO;
     2448     1983    5                       IF ( DATABUF.KEY(2) ~= 255 AND DATABUF.KEY(3) ~= 255) AND
     2449     1984    6                         ( DATABUF.KEY(2)*256 + DATABUF.KEY(3) > XSL_BUFSIZE) THEN DO;
     2450     1985    6                           SOCK.FLAGS.DRIP = '1'B;
     2451     1986    6                           DATABUF.FLAGS.MORE = '1'B;
     2452     1987    6                           END;
     2453     1988    5                       ELSE
     2454     1989    5                           SOCK.FLAGS.DRIP = '0'B;
     2455     1990    5                       END;
     2456     1991    4                   EXIT SELECT_SUBC;
     2457     1992    4                   END;
     2458     1993    3               IF ( MSGCODE = %SENDRSP OR MSGCODE = %SENDTORSP) AND
     2459     1994    4                 ( DATABUF.KEY(2) = 255 AND DATABUF.KEY(3) = 255) THEN DO;
     2460     1995    4                   SOCK.FEPERROR = DATABUF.KEY(5);
     2461     1996    4                   SOCK.BUFPND# = SOCK.BUFPND# - 1;
     2462     1997    4   RELBUF:
     2463     1998    4                   CALL XSL$RELBUF( SOCK, DATABUF);
     2464     1999    4                   END;
     2465     2000    3               ELSE
     2466     2001    3                   GOTO OOBINLINE;
     2467     2002    3               SELECT( %SUBC_COMIO#);
     2468     2003    3               SOCK$ = EVPTR$;
     2469     2004    4               DO CASE( B$COMIO.SUBC2);
     2470     2005    4                   CASE( %SUBC2_DATA_RQS#);
     2471     2006    4                       CALL XSL$EVLOG( 'RQ', EVPTR$);
     2472     2007    4                       IF SOCK.RCRBYTSIZ = 0 THEN
     2473     2008    4                           SOCK.RCRBYTSIZ = B$COMIO.ARS;
     2474     2009    4                       ELSE
PL6.E3A0      #013=XSL$EVENT File=XSL$SOCKET1.:TCA2TSI                           SUN 11/16/97 14:37 Page:395
     2475     2010    4                           SOCK.FLAGS.SELWRITE = '1'B;
     2476     2011    4                   CASE( %SUBC2_DATA_AVL#);
     2477     2012                                /* FEP wants to send RSP but no reads pending */
     2478     2013    4                       CALL XSL$EVLOG( 'AV', EVPTR$);
     2479     2014        /* leave this out..     IF SOCK.FLAGS.MUSTREAD AND SOCK.MAXRDS ~= 0 THEN
     2480     2015           for now.  proxy sends..  IF NOT SOCK.FLAGS.DRIP THEN
     2481     2016           multiple AVLs.               CALL M$SCREECH( FPT_SCREECH);  */
     2482     2017    4                       SOCK.FLAGS.MUSTREAD = '1'B;
     2483     2018    4                   END;
     2484     2019    3               END;
     2485     2020    2           RETURN;
     2486     2021    2           END;
     2487     2022
     2488     2023    1   END XSL$EVENT;
     2489     2024        %EOD;

PL6.E3A0      #013=XSL$EVENT File=XSL$SOCKET1.:TCA2TSI                           SUN 11/16/97 14:37 Page:396
--  Include file information  --

   XSL_SOCKMSGS_E.:TCA2TOU  is referenced.
   XSL_INTERNAL_M.:TCA2TOU  is referenced.
   XSL_SOCKET_M.:TCA2TOU  is referenced.
   B$JIT.:E05TOU  cannot be made into a system file and is referenced.
   CP_6.:E05TOU  cannot be made into a system file and is referenced.
   B$JIT_C.:E05TOU  was found in the system file and is referenced.
   CP_6_C.:E05TOU  was found in the system file and is referenced.
      No diagnostics issued in procedure XSL$EVENT.

   Procedure XSL$EVENT requires 232 words for executable code.
   Procedure XSL$EVENT requires 10 words of local(AUTO) storage.

PL6.E3A0      #013=XSL$EVENT File=XSL$SOCKET1.:TCA2TSI                           SUN 11/16/97 14:37 Page:397

 Object Unit name= XSL$EVENT                                  File name= XSL$SOCKET1.:TCA2TOU
 UTS= NOV 16 '97 14:37:38.60 SUN                              Compiler= PL-6/E31         Sev=      00
 SharedLib= :SHARED_SYSTEM                                    Alt SharedLib=


    ****  Control sections  ****

 Sect   Type Bound  Init  Size OctSiz  Section name(segment info)
    0   DCB   even  none     0      0  M$UC
    1  RoData even  UTS     16     20  XSL$EVENT
    2   Data  even  none     1      1  XSL$EVENT
    3   Proc  even  none   232    350  XSL$EVENT
    4  RoData even  none     6      6  XSL$EVENT

    ****  Entry defs  ****

                              Check   Calling
                             calling  sequence
  Sect OctLoc Primary Altret sequence   type   Parms  Name
     3      0   yes    yes     yes      Std        1  XSL$EVENT

  ****  Entry refs  ****

         Check        Calling
        calling       sequence
Altret sequence SRef   type   Args  Name
         yes           Std       2 XSL$EVLOG
 yes     yes           Std       2 XSL$RELBUF
                       nStd      0 X66_AUTO_1
                       Std       0 B_CONSPOOL_D
                       nStd      0 X66_ARET
PL6.E3A0      #013=XSL$EVENT File=XSL$SOCKET1.:TCA2TSI                           SUN 11/16/97 14:37 Page:398

  ****  Data refs  ****

  Flags:  r = read only, s = secondary
Flgs Name                             Flgs Name                             Flgs Name
     M$UC                             r    B$JIT$                                XSL_BUFSIZE
     B_VECTNIL

  ****  Segment refs  ****

  Flags:  r = read only, s = secondary
Flgs Name                             Flgs Name                             Flgs Name
     ISSID                                 NULLSID
PL6.E3A0      #013=XSL$EVENT File=XSL$SOCKET1.:TCA2TSI                           SUN 11/16/97 14:37 Page:399


     2364        1        /*T***********************************************************/
     2365        2        /*T*                                                         */
     2366        3        /*T* Copyright (c) Bull HN Information Systems Inc., 1997    */
     2367        4        /*T*                                                         */
     2368        5        /*T***********************************************************/
     2369        6        XSL$EVENT: PROC( B$EXCFR) ALTRET;

      6  3 000000   000000 700200 xent  XSL$EVENT    TSX0  ! X66_AUTO_1
         3 000001   000012 000001                    ZERO    10,1

     2370        7        %INCLUDE CP_6;
     2371       88        %INCLUDE B$JIT;
     2372      378    1       DCL B$JIT$ PTR SYMREF READONLY; /* Just defined to get privilege info */
     2373      379            %B$COMIO( STCLASS="BASED( EXCFR$)");
     2374      392            %B$EXCFR( STCLASS=);
     2375      410            %SUB_EXC;
     2376      457            %B$NWIO( STCLASS="BASED( EXCFR$)");
     2377      542            %FPT_SCREECH( SCODE=VLP_SUA, STCLASS=CONSTANT);
     2378      556            %VLP_SUA( SEV=5, LDCTS=YES, CWSPT=YES, STCLASS=CONSTANT,
     2379      557                    FCG='XS', MID='L', CODE=9999);
     2380      627            %VLP_ERRCODE( FPTN=ERRCODE);
     2381      672            %FPT_PRIV(FPTN=SET_EXMM,STCLASS=CONSTANT,PRIV=%PR_EXMM#);
     2382      687        %INCLUDE XSL_SOCKET_M;
     2383     1448        %INCLUDE XSL_INTERNAL_M;
     2384     1699            %XSL$DATABUF( FPTN=DATABUF, STCLASS="BASED( EVPTR$)");
     2385     1732            %XSL$SOCKINFO( FPTN=SOCK, STCLASS="BASED( SOCK$)");
     2386     1876        %INCLUDE XSL_SOCKMSGS_E;
     2387     1922
     2388     1923    1       DCL XSL$RELBUF ENTRY(2) ALTRET;
     2389     1924    1       DCL XSL$EVLOG ENTRY(2);
     2390     1925
     2391     1926    1       DCL XSL_SOCK$$ PTR SYMREF;
     2392     1927    1       DCL XSL_BUFSIZE SBIN SYMREF;
     2393     1928
     2394     1929    1       DCL B$PTR PTR BASED;
     2395     1930    1       DCL EVENT# SBIN;
PL6.E3A0      #013=XSL$EVENT File=XSL$SOCKET1.:TCA2TSI                           SUN 11/16/97 14:37 Page:400
     2396     1931    1       DCL EVPTR$ REDEF EVENT# PTR;
     2397     1932    1       DCL EXCFR$ PTR;
     2398     1933    1       DCL MSGCODE SBIN HALF;
     2399     1934    1       DCL SOCK$ PTR;
     2400     1935
     2401     1936            /* this entire procedure is INHIBITED to avoid TCB overflow */
     2402     1937    2       DO INHIBIT;

     2403     1938    2           EVENT# = B$EXCFR.EVID;  /* loads EVPTR$ too... */

   1938  3 000002   200003 470700                    LDP0  ! @B$EXCFR,,AUTO
         3 000003   000101 235300                    LDA   ! 65,,PR0
         3 000004   200004 755300                    STA   ! EVENT#,,AUTO

     2404     1939    2           EXCFR$ = ADDR( B$EXCFR);

   1939  3 000005   200003 236300                    LDQ   ! @B$EXCFR,,AUTO
         3 000006   200005 756300                    STQ   ! EXCFR$,,AUTO

     2405     1940    2   SELECT_SUBC:
     2406     1941    3           DO SELECT( B$EXCFR.SUBC);

   1941  3 000007   000100 236300       SELECT_SUBC  LDQ   ! 64,,PR0
         3 000010   777777 376207                    ANQ   ! -1,DL
         3 000011   000001 116207                    CMPQ  ! 1,DL
         3 000012   000346 602200 3                  TNC   ! s:2020
         3 000013   000020 600200 3                  TZE   ! s:1943
         3 000014   000100 720300                    LXL0  ! 64,,PR0
         3 000015   000006 100203                    CMPX0 ! 6,DU
         3 000016   000346 601200 3                  TNZ   ! s:2020
         3 000017   000276 710200 3                  TRA   ! s:2003

     2407     1942    3               SELECT( %SUBC_IO#);

     2408     1943    3               CALL XSL$EVLOG( 'EV', EVPTR$);

   1943  3 000020   200004 631700                    EPPR1 ! EVENT#,,AUTO
PL6.E3A0      #013=XSL$EVENT File=XSL$SOCKET1.:TCA2TSI                           SUN 11/16/97 14:37 Page:401
         3 000021   200011 451700                    STP1  ! SOCK$+2,,AUTO
         3 000022   000000 236200 4                  LDQ   ! 0
         3 000023   200010 756300                    STQ   ! SOCK$+1,,AUTO
         3 000024   200010 630700                    EPPR0 ! SOCK$+1,,AUTO
         3 000025   000020 631600 xsym               EPPR1 ! B_VECTNIL+16
         3 000026   000000 701200 xent               TSX1  ! XSL$EVLOG
         3 000027   000000 011200                    NOP   ! 0

     2409     1944    3               IF NOT DATABUF.FLAGS.BUSY

   1944  3 000030   200004 470700                    LDP0  ! EVENT#,,AUTO
         3 000031   000001 234300                    SZN   ! 1,,PR0
         3 000032   000043 604200 3                  TMI   ! s:1949

     2410     1945    4               THEN DO;

     2411     1946    5                   CALL M$SPRIV(SET_EXMM) WHENALTRETURN DO; END;

   1946  3 000033   000010 630600 1                  EPPR0 ! SET_EXMM
         3 000034   420012 713600                    CLIMB ! alt,+8202
         3 000035   400000 401760                    pmme    nvectors=1
         3 000036   000040 702200 3                  TSX2  ! s:1947
         3 000037   000040 710200 3                  TRA   ! s:1947

     2412     1947    4                   CALL M$SCREECH( FPT_SCREECH);

   1947  3 000040   000000 630600 1                  EPPR0 ! FPT_SCREECH
         3 000041   000013 713600                    CLIMB ! 11
         3 000042   401000 401760                    pmme    nvectors=3

     2413     1948    4                   END;

     2414     1949    3               SOCK$ = EVPTR$->B$PTR;  /* GETBUF sets this up */

   1949  3 000043   200004 470700                    LDP0  ! EVENT#,,AUTO
         3 000044   000000 236300                    LDQ   ! 0,,PR0
         3 000045   200007 756300                    STQ   ! SOCK$,,AUTO
PL6.E3A0      #013=XSL$EVENT File=XSL$SOCKET1.:TCA2TSI                           SUN 11/16/97 14:37 Page:402

     2415     1950    3               DATABUF.FLAGS.BUSY = '0'B;

   1950  3 000046   000031 236200 xsym               LDQ   ! B_VECTNIL+25
         3 000047   000001 356300                    ANSQ  ! 1,,PR0

     2416     1951    3               DATABUF.START = SIZEC( DATABUF);

   1951  3 000050   000050 220203                    LDX0  ! 40,DU
         3 000051   200004 470700                    LDP0  ! EVENT#,,AUTO
         3 000052   000000 740300                    STX0  ! 0,,PR0

     2417     1952    3               DATABUF.LEN = B$NWIO.ARS;

   1952  3 000053   200005 470700                    LDP0  ! EXCFR$,,AUTO
         3 000054   000105 721300                    LXL1  ! 69,,PR0
         3 000055   200004 471700                    LDP1  ! EVENT#,,AUTO
         3 000056   100000 441300                    SXL1  ! 0,,PR1

     2418     1953    3               ERRCODE = B$NWIO.IOERRCODE;

   1953  3 000057   000117 236300                    LDQ   ! 79,,PR0
         3 000060   000000 756200 2                  STQ   ! ERRCODE

     2419     1954    3               IF NOT ERRCODE THEN ERRCODE = B$EXCFR.ERR;

   1954  3 000061   000065 601200 3                  TNZ   ! s:1955

   1954  3 000062   200003 471700                    LDP1  ! @B$EXCFR,,AUTO
         3 000063   100102 236300                    LDQ   ! 66,,PR1
         3 000064   000000 756200 2                  STQ   ! ERRCODE

     2420     1955    4               IF ERRCODE THEN DO;

   1955  3 000065   000131 600200 3                  TZE   ! s:1966

     2421     1956    4                   CALL XSL$EVLOG( 'ER', SOCK$);
PL6.E3A0      #013=XSL$EVENT File=XSL$SOCKET1.:TCA2TSI                           SUN 11/16/97 14:37 Page:403

   1956  3 000066   200007 631700                    EPPR1 ! SOCK$,,AUTO
         3 000067   200011 451700                    STP1  ! SOCK$+2,,AUTO
         3 000070   000001 236200 4                  LDQ   ! 1
         3 000071   200010 756300                    STQ   ! SOCK$+1,,AUTO
         3 000072   200010 630700                    EPPR0 ! SOCK$+1,,AUTO
         3 000073   000020 631600 xsym               EPPR1 ! B_VECTNIL+16
         3 000074   000000 701200 xent               TSX1  ! XSL$EVLOG
         3 000075   000000 011200                    NOP   ! 0

     2422     1957    4                   CALL XSL$EVLOG( , ERRCODE);

   1957  3 000076   000002 236200 4                  LDQ   ! 2
         3 000077   000001 235200 xsym               LDA   ! B_VECTNIL+1
         3 000100   200010 757300                    STAQ  ! SOCK$+1,,AUTO
         3 000101   200010 630700                    EPPR0 ! SOCK$+1,,AUTO
         3 000102   000020 631600 xsym               EPPR1 ! B_VECTNIL+16
         3 000103   000000 701200 xent               TSX1  ! XSL$EVLOG
         3 000104   000000 011200                    NOP   ! 0

     2423     1958    4                   IF SOCK.FLAGS.CP6ERR THEN GOTO RELBUF;

   1958  3 000105   200007 470700                    LDP0  ! SOCK$,,AUTO
         3 000106   000001 236300                    LDQ   ! 1,,PR0
         3 000107   200000 316207                    CANQ  ! 65536,DL
         3 000110   000266 601200 3                  TNZ   ! RELBUF

     2424     1959    4                   SOCK.FLAGS.CP6ERR = '1'B;

   1959  3 000111   200000 236207                    LDQ   ! 65536,DL
         3 000112   000001 256300                    ORSQ  ! 1,,PR0

     2425     1960    4                   SOCK.CP6ERROR = ERRCODE;

   1960  3 000113   000000 236200 2                  LDQ   ! ERRCODE
         3 000114   200007 470700                    LDP0  ! SOCK$,,AUTO
         3 000115   000022 756300                    STQ   ! 18,,PR0
PL6.E3A0      #013=XSL$EVENT File=XSL$SOCKET1.:TCA2TSI                           SUN 11/16/97 14:37 Page:404

     2426     1961    4                   DATABUF.LEN = 0;

   1961  3 000116   000000 220203                    LDX0  ! 0,DU
         3 000117   200004 471700                    LDP1  ! EVENT#,,AUTO
         3 000120   100000 440300                    SXL0  ! 0,,PR1

     2427     1962    4                   DATABUF.KEY = '0'B;

   1962  3 000121   200004 470700                    LDP0  ! EVENT#,,AUTO
         3 000122   000100 100600                    MLR   ! fill='000'O
         3 000123   000002 000001 xsym               ADSC9   B_VECTNIL+2              cn=0,n=1
         3 000124   000002 000040                    ADSC9   2,,PR0                   cn=0,n=32

     2428     1963    4                   DATABUF.KEY(1) = %RECVRSP;

   1963  3 000125   200004 470700                    LDP0  ! EVENT#,,AUTO
         3 000126   000016 236203                    LDQ   ! 14,DU
         3 000127   000002 552320                    STBQ  ! 2,'20'O,PR0

     2429     1964    4                   END;

   1964  3 000130   000133 710200 3                  TRA   ! s:1967

     2430     1965    3               ELSE
     2431     1966    3                   IF B$NWIO.TYC THEN GOTO RELBUF;

   1966  3 000131   000104 235300                    LDA   ! 68,,PR0
         3 000132   000266 601200 3                  TNZ   ! RELBUF

     2432     1967    3               SOCK.BUFPND# = SOCK.BUFPND# + 1;

   1967  3 000133   200007 470700                    LDP0  ! SOCK$,,AUTO
         3 000134   000017 720300                    LXL0  ! 15,,PR0
         3 000135   000001 621210                    EAX1  ! 1,X0
         3 000136   000017 441300                    SXL1  ! 15,,PR0

PL6.E3A0      #013=XSL$EVENT File=XSL$SOCKET1.:TCA2TSI                           SUN 11/16/97 14:37 Page:405
     2433     1968    3               MSGCODE = DATABUF.KEY(1);

   1968  3 000137   200004 471700                    LDP1  ! EVENT#,,AUTO
         3 000140   100002 220300                    LDX0  ! 2,,PR1
         3 000141   000777 360203                    ANX0  ! 511,DU
         3 000142   200006 740300                    STX0  ! MSGCODE,,AUTO

     2434     1969    4               IF ( MSGCODE = %RECVRSP OR MSGCODE = %RECVFROMRSP) THEN DO;

   1969  3 000143   000016 100203                    CMPX0 ! 14,DU
         3 000144   000147 600200 3                  TZE   ! s:1970
         3 000145   000020 100203                    CMPX0 ! 16,DU
         3 000146   000243 601200 3                  TNZ   ! s:1993

     2435     1970    4                   IF DATABUF.KEY(2) ~= 255 AND DATABUF.KEY(3) ~= 255 AND

   1970  3 000147   100002 236300                    LDQ   ! 2,,PR1
         3 000150   777000 376207                    ANQ   ! -512,DL
         3 000151   377000 116207                    CMPQ  ! 130560,DL
         3 000152   000176 600200 3                  TZE   ! OOBINLINE
         3 000153   100002 236300                    LDQ   ! 2,,PR1
         3 000154   000777 376207                    ANQ   ! 511,DL
         3 000155   000377 116207                    CMPQ  ! 255,DL
         3 000156   000176 600200 3                  TZE   ! OOBINLINE
         3 000157   100003 236300                    LDQ   ! 3,,PR1
         3 000160   000777 316203                    CANQ  ! 511,DU
         3 000161   000176 600200 3                  TZE   ! OOBINLINE

     2436     1971    5                     DATABUF.KEY(5) ~= 0 THEN DO;

     2437     1972    5                       DATABUF.FLAGS.OOB = '1'B;

   1972  3 000162   200000 236203                    LDQ   ! 65536,DU
         3 000163   100001 256300                    ORSQ  ! 1,,PR1

     2438     1973    5                       IF SOCK.FLAGS.OOBINLINE THEN GOTO OOBINLINE;

PL6.E3A0      #013=XSL$EVENT File=XSL$SOCKET1.:TCA2TSI                           SUN 11/16/97 14:37 Page:406
   1973  3 000164   200007 470700                    LDP0  ! SOCK$,,AUTO
         3 000165   000001 236300                    LDQ   ! 1,,PR0
         3 000166   000002 316203                    CANQ  ! 2,DU
         3 000167   000176 601200 3                  TNZ   ! OOBINLINE

     2439     1974    5                       SOCK.OOB# = SOCK.OOB# + 1;

   1974  3 000170   000021 221300                    LDX1  ! 17,,PR0
         3 000171   000001 622211                    EAX2  ! 1,X1
         3 000172   000021 742300                    STX2  ! 17,,PR0

     2440     1975    5                       SOCK.FLAGS.SELEXCEP = '1'B;

   1975  3 000173   000010 236203                    LDQ   ! 8,DU
         3 000174   000001 256300                    ORSQ  ! 1,,PR0

     2441     1976    5                       END;

   1976  3 000175   000204 710200 3                  TRA   ! s:1982

     2442     1977    5                   ELSE DO;

     2443     1978    5   OOBINLINE:
     2444     1979    5                       SOCK.DAT# = SOCK.DAT# + 1;

   1979  3 000176   200007 470700       OOBINLINE    LDP0  ! SOCK$,,AUTO
         3 000177   000021 720300                    LXL0  ! 17,,PR0
         3 000200   000001 621210                    EAX1  ! 1,X0
         3 000201   000021 441300                    SXL1  ! 17,,PR0

     2445     1980    5                       SOCK.FLAGS.SELREAD = '1'B;

   1980  3 000202   000040 236203                    LDQ   ! 32,DU
         3 000203   000001 256300                    ORSQ  ! 1,,PR0

     2446     1981    5                       END;

PL6.E3A0      #013=XSL$EVENT File=XSL$SOCKET1.:TCA2TSI                           SUN 11/16/97 14:37 Page:407
     2447     1982    5                   IF MSGCODE = %RECVFROMRSP THEN DO;

   1982  3 000204   200006 220300                    LDX0  ! MSGCODE,,AUTO
         3 000205   000020 100203                    CMPX0 ! 16,DU
         3 000206   000242 601200 3                  TNZ   ! s:1991

     2448     1983    5                       IF ( DATABUF.KEY(2) ~= 255 AND DATABUF.KEY(3) ~= 255) AND

   1983  3 000207   200004 470700                    LDP0  ! EVENT#,,AUTO
         3 000210   000002 236300                    LDQ   ! 2,,PR0
         3 000211   777000 376207                    ANQ   ! -512,DL
         3 000212   377000 116207                    CMPQ  ! 130560,DL
         3 000213   000237 600200 3                  TZE   ! s:1989
         3 000214   000002 236300                    LDQ   ! 2,,PR0
         3 000215   000777 376207                    ANQ   ! 511,DL
         3 000216   000377 116207                    CMPQ  ! 255,DL
         3 000217   000237 600200 3                  TZE   ! s:1989
         3 000220   200010 756300                    STQ   ! SOCK$+1,,AUTO
         3 000221   000002 236300                    LDQ   ! 2,,PR0
         3 000222   000001 772200                    QRL   ! 1
         3 000223   377400 376207                    ANQ   ! 130816,DL
         3 000224   200010 036300                    ADLQ  ! SOCK$+1,,AUTO
         3 000225   000230 604200 3                  TMI   ! s:1985
         3 000226   000000 116200 xsym               CMPQ  ! XSL_BUFSIZE
         3 000227   000237 604600 3                  TMOZ  ! s:1989

     2449     1984    6                         ( DATABUF.KEY(2)*256 + DATABUF.KEY(3) > XSL_BUFSIZE) THEN DO;

     2450     1985    6                           SOCK.FLAGS.DRIP = '1'B;

   1985  3 000230   200007 471700                    LDP1  ! SOCK$,,AUTO
         3 000231   400000 236207                    LDQ   ! -131072,DL
         3 000232   100001 256300                    ORSQ  ! 1,,PR1

     2451     1986    6                           DATABUF.FLAGS.MORE = '1'B;

   1986  3 000233   200004 470700                    LDP0  ! EVENT#,,AUTO
PL6.E3A0      #013=XSL$EVENT File=XSL$SOCKET1.:TCA2TSI                           SUN 11/16/97 14:37 Page:408
         3 000234   100000 236203                    LDQ   ! 32768,DU
         3 000235   000001 256300                    ORSQ  ! 1,,PR0

     2452     1987    6                           END;

   1987  3 000236   000242 710200 3                  TRA   ! s:1991

     2453     1988    5                       ELSE
     2454     1989    5                           SOCK.FLAGS.DRIP = '0'B;

   1989  3 000237   200007 471700                    LDP1  ! SOCK$,,AUTO
         3 000240   000003 236200 4                  LDQ   ! 3
         3 000241   100001 356300                    ANSQ  ! 1,,PR1

     2455     1990    5                       END;

     2456     1991    4                   EXIT SELECT_SUBC;

   1991  3 000242   000346 710200 3                  TRA   ! s:2020

     2457     1992    4                   END;
     2458     1993    3               IF ( MSGCODE = %SENDRSP OR MSGCODE = %SENDTORSP) AND

   1993  3 000243   000024 100203                    CMPX0 ! 20,DU
         3 000244   000247 600200 3                  TZE   ! s:1993+4
         3 000245   000026 100203                    CMPX0 ! 22,DU
         3 000246   000176 601200 3                  TNZ   ! OOBINLINE
         3 000247   100002 236300                    LDQ   ! 2,,PR1
         3 000250   777000 376207                    ANQ   ! -512,DL
         3 000251   377000 116207                    CMPQ  ! 130560,DL
         3 000252   000176 601200 3                  TNZ   ! OOBINLINE
         3 000253   100002 236300                    LDQ   ! 2,,PR1
         3 000254   000777 376207                    ANQ   ! 511,DL
         3 000255   000377 116207                    CMPQ  ! 255,DL
         3 000256   000176 601200 3                  TNZ   ! OOBINLINE

     2459     1994    4                 ( DATABUF.KEY(2) = 255 AND DATABUF.KEY(3) = 255) THEN DO;
PL6.E3A0      #013=XSL$EVENT File=XSL$SOCKET1.:TCA2TSI                           SUN 11/16/97 14:37 Page:409

     2460     1995    4                   SOCK.FEPERROR = DATABUF.KEY(5);

   1995  3 000257   100003 236300                    LDQ   ! 3,,PR1
         3 000260   000022 772200                    QRL   ! 18
         3 000261   000001 552304                    STBQ  ! 1,'04'O,PR0

     2461     1996    4                   SOCK.BUFPND# = SOCK.BUFPND# - 1;

   1996  3 000262   200007 470700                    LDP0  ! SOCK$,,AUTO
         3 000263   000017 721300                    LXL1  ! 15,,PR0
         3 000264   777777 622211                    EAX2  ! -1,X1
         3 000265   000017 442300                    SXL2  ! 15,,PR0

     2462     1997    4   RELBUF:
     2463     1998    4                   CALL XSL$RELBUF( SOCK, DATABUF);

   1998  3 000266   200004 236300       RELBUF       LDQ   ! EVENT#,,AUTO
         3 000267   200007 235300                    LDA   ! SOCK$,,AUTO
         3 000270   200010 757300                    STAQ  ! SOCK$+1,,AUTO
         3 000271   200010 630700                    EPPR0 ! SOCK$+1,,AUTO
         3 000272   000020 631600 xsym               EPPR1 ! B_VECTNIL+16
         3 000273   000000 701200 xent               TSX1  ! XSL$RELBUF
         3 000274   000000 011200                    NOP   ! 0

     2464     1999    4                   END;

   1999  3 000275   000346 710200 3                  TRA   ! s:2020

     2465     2000    3               ELSE
     2466     2001    3                   GOTO OOBINLINE;
     2467     2002    3               SELECT( %SUBC_COMIO#);

     2468     2003    3               SOCK$ = EVPTR$;

   2003  3 000276   200004 236300                    LDQ   ! EVENT#,,AUTO
         3 000277   200007 756300                    STQ   ! SOCK$,,AUTO
PL6.E3A0      #013=XSL$EVENT File=XSL$SOCKET1.:TCA2TSI                           SUN 11/16/97 14:37 Page:410

     2469     2004    4               DO CASE( B$COMIO.SUBC2);

   2004  3 000300   200005 471700                    LDP1  ! EXCFR$,,AUTO
         3 000301   100104 721300                    LXL1  ! 68,,PR1
         3 000302   000777 361203                    ANX1  ! 511,DU
         3 000303   000003 101203                    CMPX1 ! 3,DU
         3 000304   000306 602211 3                  TNC   ! s:2004+6,X1
         3 000305   000346 710200 3                  TRA   ! s:2020
         3 000306   000346 710200 3                  TRA   ! s:2020
         3 000307   000311 710200 3                  TRA   ! s:2006
         3 000310   000333 710200 3                  TRA   ! s:2013

     2470     2005    4                   CASE( %SUBC2_DATA_RQS#);

     2471     2006    4                       CALL XSL$EVLOG( 'RQ', EVPTR$);

   2006  3 000311   200004 633700                    EPPR3 ! EVENT#,,AUTO
         3 000312   200011 453700                    STP3  ! SOCK$+2,,AUTO
         3 000313   000004 236200 4                  LDQ   ! 4
         3 000314   200010 756300                    STQ   ! SOCK$+1,,AUTO
         3 000315   200010 630700                    EPPR0 ! SOCK$+1,,AUTO
         3 000316   000020 631600 xsym               EPPR1 ! B_VECTNIL+16
         3 000317   000000 701200 xent               TSX1  ! XSL$EVLOG
         3 000320   000000 011200                    NOP   ! 0

     2472     2007    4                       IF SOCK.RCRBYTSIZ = 0 THEN

   2007  3 000321   200007 470700                    LDP0  ! SOCK$,,AUTO
         3 000322   000017 220300                    LDX0  ! 15,,PR0
         3 000323   000330 601200 3                  TNZ   ! s:2010

     2473     2008    4                           SOCK.RCRBYTSIZ = B$COMIO.ARS;

   2008  3 000324   200005 471700                    LDP1  ! EXCFR$,,AUTO
         3 000325   100105 721300                    LXL1  ! 69,,PR1
         3 000326   000017 741300                    STX1  ! 15,,PR0
PL6.E3A0      #013=XSL$EVENT File=XSL$SOCKET1.:TCA2TSI                           SUN 11/16/97 14:37 Page:411
         3 000327   000346 710200 3                  TRA   ! s:2020

     2474     2009    4                       ELSE
     2475     2010    4                           SOCK.FLAGS.SELWRITE = '1'B;

   2010  3 000330   000020 236203                    LDQ   ! 16,DU
         3 000331   000001 256300                    ORSQ  ! 1,,PR0
         3 000332   000346 710200 3                  TRA   ! s:2020

     2476     2011    4                   CASE( %SUBC2_DATA_AVL#);

     2477     2012                                /* FEP wants to send RSP but no reads pending */
     2478     2013    4                       CALL XSL$EVLOG( 'AV', EVPTR$);

   2013  3 000333   200004 633700                    EPPR3 ! EVENT#,,AUTO
         3 000334   200011 453700                    STP3  ! SOCK$+2,,AUTO
         3 000335   000005 236200 4                  LDQ   ! 5
         3 000336   200010 756300                    STQ   ! SOCK$+1,,AUTO
         3 000337   200010 630700                    EPPR0 ! SOCK$+1,,AUTO
         3 000340   000020 631600 xsym               EPPR1 ! B_VECTNIL+16
         3 000341   000000 701200 xent               TSX1  ! XSL$EVLOG
         3 000342   000000 011200                    NOP   ! 0

     2479     2014        /* leave this out..     IF SOCK.FLAGS.MUSTREAD AND SOCK.MAXRDS ~= 0 THEN
     2480     2015           for now.  proxy sends..  IF NOT SOCK.FLAGS.DRIP THEN
     2481     2016           multiple AVLs.               CALL M$SCREECH( FPT_SCREECH);  */
     2482     2017    4                       SOCK.FLAGS.MUSTREAD = '1'B;

   2017  3 000343   200007 470700                    LDP0  ! SOCK$,,AUTO
         3 000344   000001 236203                    LDQ   ! 1,DU
         3 000345   000001 256300                    ORSQ  ! 1,,PR0

     2483     2018    4                   END;

     2484     2019    3               END;

     2485     2020    2           RETURN;
PL6.E3A0      #013=XSL$EVENT File=XSL$SOCKET1.:TCA2TSI                           SUN 11/16/97 14:37 Page:412

   2020  3 000346   000000 702200 xent               TSX2  ! X66_ARET

     2486     2021    2           END;

     2487     2022
     2488     2023    1   END XSL$EVENT;

   2023  3 000347   000000 702200 xent               TSX2  ! X66_ARET

FPT_SCREECH
 Sect OctLoc
   1     000   000001 777640   000006 006000   000000 177640   000000 006014    ................
   1     004   000000 177640   000000 006014                                    ........

VLP_SUA
 Sect OctLoc
   1     006   302314 634175   001160 107760                                    ...}.pG.

SET_EXMM
 Sect OctLoc
   1     010   000001 777640   000012 006000   000000 000002   000000 000000    ................

(unnamed)
 Sect OctLoc
   1     014   105126 040040   105122 040040   122121 040040   101126 040040    EV  ER  RQ  AV

ERRCODE
 Sect OctLoc
   2     000   000000 000000                                                    ....

(unnamed)
 Sect OctLoc
   4     000   000014 006000   000015 006000   000000 006000   777777 377777    ................
   4     004   000016 006000   000017 006000                                    ........
     2489     2024        %EOD;

PL6.E3A0      #013=XSL$EVENT File=XSL$SOCKET1.:TCA2TSI                           SUN 11/16/97 14:37 Page:413
--  Include file information  --

   XSL_SOCKMSGS_E.:TCA2TOU  is referenced.
   XSL_INTERNAL_M.:TCA2TOU  is referenced.
   XSL_SOCKET_M.:TCA2TOU  is referenced.
   B$JIT.:E05TOU  cannot be made into a system file and is referenced.
   CP_6.:E05TOU  cannot be made into a system file and is referenced.
   B$JIT_C.:E05TOU  was found in the system file and is referenced.
   CP_6_C.:E05TOU  was found in the system file and is referenced.
      No diagnostics issued in procedure XSL$EVENT.
PL6.E3A0      #013=XSL$EVENT File=XSL$SOCKET1.:TCA2TSI                           SUN 11/16/97 14:37 Page:414

 **** Variables and constants ****

  ****  Section 001 RoData XSL$EVENT

  ****  Scalars and arrays  ****
OctLoc.c.b A Datatyp(siz) R M Lvl/name                 OctLoc.c.b A Datatyp(siz) R M Lvl/name

     0-0-0/d STRC(216)   r     1 FPT_SCREECH               10-0-0/d STRC(144)   r     1 SET_EXMM
     6-0-0/d STRC(72)    r     1 VLP_SUA

  ****  Section 002  Data  XSL$EVENT

  ****  Scalars and arrays  ****
OctLoc.c.b A Datatyp(siz) R M Lvl/name                 OctLoc.c.b A Datatyp(siz) R M Lvl/name

     0-0-0/w STRC        r     1 ERRCODE

  ****  Auto variables  ****

  ****  Scalars and arrays  ****
OctLoc.c.b A Datatyp(siz) R M Lvl/name                 OctLoc.c.b A Datatyp(siz) R M Lvl/name

     3-0-0/w PTR         r     1 @B$EXCFR                  *0-0-0/w STRC(2448)  r     1 B$EXCFR
     4-0-0/w SBIN        r     1 EVENT#                     4-0-0/w PTR         r     1 EVPTR$
     5-0-0/w PTR         r     1 EXCFR$                     6-0-0/w SBIN(18)    r     1 MSGCODE
     7-0-0/w PTR         r     1 SOCK$

  ****  SYMREF variables  ****

  ****  Scalars and arrays  ****
OctLoc.c.b A Datatyp(siz) R M Lvl/name                 OctLoc.c.b A Datatyp(siz) R M Lvl/name

     0-0-0/w PTR         r     1 B$JIT$                     0-0-0/w SBIN        r     1 XSL_BUFSIZE

  ****  BASED and DCB variables  ****

  ****  Scalars and arrays  ****
PL6.E3A0      #013=XSL$EVENT File=XSL$SOCKET1.:TCA2TSI                           SUN 11/16/97 14:37 Page:415
OctLoc.c.b A Datatyp(siz) R M Lvl/name                 OctLoc.c.b A Datatyp(siz) R M Lvl/name

     0-0-0/w STRC(2520)  r     1 B$COMIO                    0-0-0/w STRC(2880)  r     1 B$NWIO
     0-0-0/w PTR         r     1 B$PTR                      0-0-0/w STRC(360)   r     1 DATABUF
     0-0-0/w STRC(720)   r     1 SOCK


   Procedure XSL$EVENT requires 232 words for executable code.
   Procedure XSL$EVENT requires 10 words of local(AUTO) storage.
PL6.E3A0      #013=XSL$EVENT File=XSL$SOCKET1.:TCA2TSI                           SUN 11/16/97 14:37 Page:416
          *** CROSS REFERENCE LISTING ***
**     DENOTES     IDENTIFIER DEFINITION
<<                 IDENTIFIER'S VALUE SET
>>                 IDENTIFIER'S VALUE USED
<>                 IDENTIFIER SET AND/OR USED
--                 IDENTIFIER REFERENCED
PL6.E3A0      #013=XSL$EVENT File=XSL$SOCKET1.:TCA2TSI                           SUN 11/16/97 14:37 Page:417
          MINI XREF LISTING

B$COMIO.ARS
       389**DCL       389--REDEF    2008>>ASSIGN
B$COMIO.CODE
       382**DCL       382--REDEF     383--REDEF     383--REDEF
B$COMIO.ERR.ERR#
       384**DCL       384--REDEF
B$COMIO.EVID
       383**DCL       383--REDEF     383--REDEF
B$COMIO.SUBC2
       389**DCL      2004>>DOCASE
B$EXCFR
       393**DCL         6--PROC     1939--ASSIGN
B$EXCFR.ASL
       393**DCL       393--REDEF
B$EXCFR.ERR
       407**DCL      1954>>ASSIGN
B$EXCFR.ERR.ERR#
       407**DCL       407--REDEF
B$EXCFR.EVID
       406**DCL       406--REDEF     407--REDEF    1938>>ASSIGN
B$EXCFR.IR
       394**DCL       394--REDEF
B$EXCFR.PREVSZ
       393**DCL       393--REDEF
B$EXCFR.SUBC
       405**DCL       405--REDEF     406--REDEF     406--REDEF    1941>>DOSELCT
B$JIT.CPFLAGS1.SLEAZE
       196**DCL       196--REDEF
B$JIT.ERR.MID
       103**DCL       103--REDEF
B$JIT.JRESPEAK
       264**DCL       265--REDEF
PL6.E3A0      #013=XSL$EVENT File=XSL$SOCKET1.:TCA2TSI                           SUN 11/16/97 14:37 Page:418
B$JIT.ORIGINATOR_PORT.FROM_CR
       373**DCL       373--REDEF     374--REDEF
B$JIT.PNR
       277**DCL       277--REDEF
B$JIT.TSLINE
       371**DCL       372--REDEF
B$JIT$
       378**DCL        97--IMP-PTR
B$NWIO.ARS
       467**DCL      1952>>ASSIGN
B$NWIO.CGPARM.MSGIDXT
       491**DCL       494--REDEF
B$NWIO.CODE
       460**DCL       460--REDEF     461--REDEF     461--REDEF
B$NWIO.ERR.ERR#
       462**DCL       462--REDEF
B$NWIO.EVID
       461**DCL       461--REDEF     461--REDEF
B$NWIO.IOERRCODE
       510**DCL      1953>>ASSIGN
B$NWIO.TYC
       467**DCL      1966>>IF
B$PTR
      1929**DCL      1949>>ASSIGN
DATABUF
      1716**DCL      1951--ASSIGN   1998<>CALL
DATABUF.FLAGS.BUSY
      1726**DCL      1944>>IF       1950<<ASSIGN
DATABUF.FLAGS.MORE
      1728**DCL      1986<<ASSIGN
DATABUF.FLAGS.OOB
      1727**DCL      1972<<ASSIGN
DATABUF.KEY
      1730**DCL      1962<<ASSIGN   1963<<ASSIGN   1968>>ASSIGN   1970>>IF       1970>>IF       1970>>IF
      1983>>IF       1983>>IF       1983>>IF       1983>>IF       1993>>IF       1993>>IF       1995>>ASSIGN
DATABUF.LEN
PL6.E3A0      #013=XSL$EVENT File=XSL$SOCKET1.:TCA2TSI                           SUN 11/16/97 14:37 Page:419
      1724**DCL      1952<<ASSIGN   1961<<ASSIGN
DATABUF.START
      1723**DCL      1951<<ASSIGN
ERRCODE
       639**DCL      1953<<ASSIGN   1954>>IF       1954<<ASSIGN   1955>>IF       1957<>CALL     1960>>ASSIGN
EVENT#
      1930**DCL      1931--REDEF    1938<<ASSIGN
EVPTR$
      1931**DCL      1716--IMP-PTR  1943<>CALL     1944>>IF       1949>>ASSIGN   1950>>ASSIGN   1951>>ASSIGN
      1952>>ASSIGN   1961>>ASSIGN   1962>>ASSIGN   1963>>ASSIGN   1968>>ASSIGN   1970>>IF       1970>>IF
      1970>>IF       1972>>ASSIGN   1983>>IF       1983>>IF       1983>>IF       1983>>IF       1986>>ASSIGN
      1993>>IF       1993>>IF       1995>>ASSIGN   1998>>CALL     2003>>ASSIGN   2006<>CALL     2013<>CALL
EXCFR$
      1932**DCL       382--IMP-PTR   460--IMP-PTR  1939<<ASSIGN   1952>>ASSIGN   1953>>ASSIGN   1966>>IF
      2004>>DOCASE   2008>>ASSIGN
FPT_SCREECH
       553**DCL      1947<>CALL
M$SCREECH
        30**DCL-ENT  1947--CALL
M$SPRIV
        75**DCL-ENT  1946--CALL
MSGCODE
      1933**DCL      1968<<ASSIGN   1969>>IF       1969>>IF       1982>>IF       1993>>IF       1993>>IF
OOBINLINE
      1979**LABEL    1973--GOTO     2001--GOTO
RELBUF
      1998**LABEL    1958--GOTO     1966--GOTO
SELECT_SUBC
      1941**LABEL    1991--EXIT
SET_EXMM
       683**DCL      1946<>CALL
SET_EXMM.V
       683**DCL       683--DCLINIT
SOCK
      1750**DCL      1998<>CALL
SOCK.BUFPND#
PL6.E3A0      #013=XSL$EVENT File=XSL$SOCKET1.:TCA2TSI                           SUN 11/16/97 14:37 Page:420
      1867**DCL      1967<<ASSIGN   1967>>ASSIGN   1996<<ASSIGN   1996>>ASSIGN
SOCK.CP6ERROR
      1873**DCL      1960<<ASSIGN
SOCK.DAT#
      1871**DCL      1979<<ASSIGN   1979>>ASSIGN
SOCK.FEPERROR
      1781**DCL      1995<<ASSIGN
SOCK.FLAGS.CP6ERR
      1780**DCL      1958>>IF       1959<<ASSIGN
SOCK.FLAGS.DRIP
      1779**DCL      1985<<ASSIGN   1989<<ASSIGN
SOCK.FLAGS.MUSTREAD
      1778**DCL      2017<<ASSIGN
SOCK.FLAGS.OOBINLINE
      1777**DCL      1973>>IF
SOCK.FLAGS.SELEXCEP
      1775**DCL      1975<<ASSIGN
SOCK.FLAGS.SELREAD
      1773**DCL      1980<<ASSIGN
SOCK.FLAGS.SELWRITE
      1774**DCL      2010<<ASSIGN
SOCK.NBACCEPT_SOCK$
      1872**DCL      1873--REDEF
SOCK.OOB#
      1870**DCL      1974<<ASSIGN   1974>>ASSIGN
SOCK.RCRBYTSIZ
      1866**DCL      2007>>IF       2008<<ASSIGN
SOCK$
      1934**DCL      1750--IMP-PTR  1949<<ASSIGN   1956<>CALL     1958>>IF       1959>>ASSIGN   1960>>ASSIGN
      1967>>ASSIGN   1967>>ASSIGN   1973>>IF       1974>>ASSIGN   1974>>ASSIGN   1975>>ASSIGN   1979>>ASSIGN
      1979>>ASSIGN   1980>>ASSIGN   1985>>ASSIGN   1989>>ASSIGN   1995>>ASSIGN   1996>>ASSIGN   1996>>ASSIGN
      1998>>CALL     2003<<ASSIGN   2007>>IF       2008>>ASSIGN   2010>>ASSIGN   2017>>ASSIGN
VLP_SUA
       580**DCL       553--DCLINIT
XSL$EVLOG
      1924**DCL-ENT  1943--CALL     1956--CALL     1957--CALL     2006--CALL     2013--CALL
PL6.E3A0      #013=XSL$EVENT File=XSL$SOCKET1.:TCA2TSI                           SUN 11/16/97 14:37 Page:421
XSL$RELBUF
      1923**DCL-ENT  1998--CALL
XSL_BUFSIZE
      1927**DCL      1983>>IF
PL6.E3A0      #013=XSL$EVENT File=XSL$SOCKET1.:TCA2TSI                           SUN 11/16/97 14:37 Page:422
              *** CROSS REFERENCE LISTING ***
    **     DENOTES     IDENTIFIER DEFINITION
    <<                 IDENTIFIER'S VALUE SET
    >>                 IDENTIFIER'S VALUE USED
    <>                 IDENTIFIER SET AND/OR USED
    --                 IDENTIFIER REFERENCED
PL6.E3A0      #013=XSL$EVENT File=XSL$SOCKET1.:TCA2TSI                           SUN 11/16/97 14:37 Page:423
              MINI UREF LISTING

M$ACCT      33**DCL-ENT
M$ACTIVATE      36**DCL-ENT
M$ALIB      29**DCL-ENT
M$ASUSER      31**DCL-ENT
M$ATTACH      38**DCL-ENT
M$BADPP      56**DCL-ENT
M$CGCTL      37**DCL-ENT
M$CGINFO      37**DCL-ENT
M$CHECK      18**DCL-ENT
M$CHGUNIT      76**DCL-ENT
M$CLOSE      16**DCL-ENT
M$CLRSTK      74**DCL-ENT
M$CMDVAR      85**DCL-ENT
M$CONFIG      46**DCL-ENT
M$CORRES      21**DCL-ENT
M$CPEXIT      30**DCL-ENT
M$CVM      54**DCL-ENT
M$CVOL      19**DCL-ENT
M$DCLFLD      46**DCL-ENT
M$DEACTIVATE      36**DCL-ENT
M$DELREC      18**DCL-ENT
M$DEQ      83**DCL-ENT
M$DETACH      38**DCL-ENT
M$DEVICE      20**DCL-ENT
M$DISPLAY      83**DCL-ENT
M$DISPRES      23**DCL-ENT
M$DLIB      29**DCL-ENT
M$DRIBBLE      46**DCL-ENT
M$DRTN      74**DCL-ENT
M$DSUSER      31**DCL-ENT
M$ENQ      82**DCL-ENT
M$EOM      41**DCL-ENT
PL6.E3A0      #013=XSL$EVENT File=XSL$SOCKET1.:TCA2TSI                           SUN 11/16/97 14:37 Page:424
M$ERASE      47**DCL-ENT
M$ERR      28**DCL-ENT
M$ERRMSG      79**DCL-ENT
M$EVENT      71**DCL-ENT
M$EXHUME      80**DCL-ENT
M$EXIT      28**DCL-ENT
M$EXTEND      20**DCL-ENT
M$FDP      52**DCL-ENT
M$FDS      51**DCL-ENT
M$FEBOOT      44**DCL-ENT
M$FECTL      45**DCL-ENT
M$FEDUMP      44**DCL-ENT
M$FID      79**DCL-ENT
M$FINDPROC      33**DCL-ENT
M$FSUSER      31**DCL-ENT
M$FVP      53**DCL-ENT
M$FWCG      37**DCL-ENT
M$GBPL      57**DCL-ENT
M$GDDL      53**DCL-ENT
M$GDP      52**DCL-ENT
M$GDS      51**DCL-ENT
M$GETDCB      22**DCL-ENT
M$GETMOUSE      62**DCL-ENT
M$GETPM      63**DCL-ENT
M$GJOB      81**DCL-ENT
M$GLINEATTR      41**DCL-ENT
M$GOODPP      56**DCL-ENT
M$GPLATEN      49**DCL-ENT
M$GPROMPT      48**DCL-ENT
M$GTRMATTR      42**DCL-ENT
M$GTRMCTL      40**DCL-ENT
M$GTRMTAB      43**DCL-ENT
M$GVP      52**DCL-ENT
M$HELP      79**DCL-ENT
M$INT      71**DCL-ENT
M$INTRTN      32**DCL-ENT
PL6.E3A0      #013=XSL$EVENT File=XSL$SOCKET1.:TCA2TSI                           SUN 11/16/97 14:37 Page:425
M$IOQ      67**DCL-ENT
M$JOBSTATS      81**DCL-ENT
M$KEYIN      21**DCL-ENT
M$LDEV      16**DCL-ENT
M$LDTRC      29**DCL-ENT
M$LIMIT      22**DCL-ENT
M$LINES      21**DCL-ENT
M$LINK      28**DCL-ENT
M$MADMUCK      24**DCL-ENT
M$MAKUSER      55**DCL-ENT
M$MBS      23**DCL-ENT
M$MDFFLD      47**DCL-ENT
M$MERC      72**DCL-ENT
M$MERCS      73**DCL-ENT
M$MIRROR      67**DCL-ENT
M$MONINFO      84**DCL-ENT
M$MPL      57**DCL-ENT
M$NODEINFO      48**DCL-ENT
M$NXTUSR      82**DCL-ENT
M$OCMSG      80**DCL-ENT
M$OLAY      28**DCL-ENT
M$OPEN      16**DCL-ENT
M$PAS      57**DCL-ENT
M$PATHCON      80**DCL-ENT
M$PDS      51**DCL-ENT
M$PFIL      18**DCL-ENT
M$PLATEN      42**DCL-ENT
M$PRECORD      20**DCL-ENT
M$PROCNAME      33**DCL-ENT
M$PROFILE      44**DCL-ENT
M$PROMPT      40**DCL-ENT
M$RACST      24**DCL-ENT
M$RDSYSLOG      65**DCL-ENT
M$READ      17**DCL-ENT
M$RELDCB      22**DCL-ENT
M$RELRES      23**DCL-ENT
PL6.E3A0      #013=XSL$EVENT File=XSL$SOCKET1.:TCA2TSI                           SUN 11/16/97 14:37 Page:426
M$RELSTARF      25**DCL-ENT
M$REM      25**DCL-ENT
M$RENV      72**DCL-ENT
M$REQUIRE      24**DCL-ENT
M$RETRY      73**DCL-ENT
M$RETRYS      73**DCL-ENT
M$REW      19**DCL-ENT
M$RLSFLD      47**DCL-ENT
M$RPRIV      75**DCL-ENT
M$RSPP      54**DCL-ENT
M$RSWITCH      76**DCL-ENT
M$RUE      82**DCL-ENT
M$SAD      55**DCL-ENT
M$SAVE      31**DCL-ENT
M$SCON      32**DCL-ENT
M$SENV      72**DCL-ENT
M$SETFMA      16**DCL-ENT
M$SETFP      45**DCL-ENT
M$SINPUT      43**DCL-ENT
M$SLCFLD      48**DCL-ENT
M$SMOUSE      62**DCL-ENT
M$SMPRT      54**DCL-ENT
M$SSC      55**DCL-ENT
M$SSWITCH      75**DCL-ENT
M$STATE      84**DCL-ENT
M$STD      56**DCL-ENT
M$STIMER      70**DCL-ENT
M$STLPP      53**DCL-ENT
M$STRAP      70**DCL-ENT
M$STRMATTR      42**DCL-ENT
M$STRMCTL      40**DCL-ENT
M$STRMTAB      43**DCL-ENT
M$SYMBIO      81**DCL-ENT
M$SYSCON      67**DCL-ENT
M$SYSID      85**DCL-ENT
M$TDCLOSE      66**DCL-ENT
PL6.E3A0      #013=XSL$EVENT File=XSL$SOCKET1.:TCA2TSI                           SUN 11/16/97 14:37 Page:427
M$TDIO      66**DCL-ENT
M$TDOPEN      65**DCL-ENT
M$TDREQCPU      66**DCL-ENT
M$TEMPWROC      60**DCL-ENT
M$TIME      83**DCL-ENT
M$TRAP      70**DCL-ENT
M$TRMISC      45**DCL-ENT
M$TRMPRG      41**DCL-ENT
M$TRTN      74**DCL-ENT
M$TRUNC      17**DCL-ENT
M$TTIMER      70**DCL-ENT
M$UC      40**DCL
M$UMPL      57**DCL-ENT
M$UNFID      79**DCL-ENT
M$UNLATCH      36**DCL-ENT
M$UNSHARE      33**DCL-ENT
M$USRFIELD      76**DCL-ENT
M$VIRTUAL      51**DCL-ENT
M$WAIT      74**DCL-ENT
M$WEOF      19**DCL-ENT
M$WRITE      17**DCL-ENT
M$WRSYSLOG      65**DCL-ENT
M$XCON      71**DCL-ENT
M$XCONRTN      32**DCL-ENT
M$XEQTIME      84**DCL-ENT
M$XFLUSH      25**DCL-ENT
M$XMOUSE      62**DCL-ENT
M$XXX      28**DCL-ENT
M$YC      30**DCL-ENT
XSL$EVENT       6**PROC
XSL_SOCK$$    1926**DCL

PL6.E3A0      #014=XSL$BUFMGMT File=XSL$SOCKET1.:TCA2TSI                         SUN 11/16/97 14:38 Page:428
     2490        1        /*T***********************************************************/
     2491        2        /*T*                                                         */
     2492        3        /*T* Copyright (c) Bull HN Information Systems Inc., 1997    */
     2493        4        /*T*                                                         */
     2494        5        /*T***********************************************************/
     2495        6        XSL$BUFMGMT: PROC( SOCK, BUF) ALTRET;
     2496        7        %INCLUDE CP_6;
     2497       88            %F$DCB;
     2498      145            %B$ALT;
     2499      153            %B$TCB;
     2500      156            %FPT_READ( STCLASS=STATIC, KEYS=YES, KEYR=YES, WAIT=NO);
     2501      195        %INCLUDE XSL_SOCKET_E;
     2502      453        %INCLUDE XSL_SOCKET_M;
     2503     1214        %INCLUDE XSL_INTERNAL_M;
     2504     1465            %XSL$DATABUF( FPTN=BUF, STCLASS=);
     2505     1498            %XSL$DATABUF( FPTN=DATABUF, STCLASS="BASED( BUF$)");
     2506     1531            %XSL$SOCKINFO( FPTN=SOCK, STCLASS=);
     2507     1675            %XSL$SOCKHD( STCLASS="BASED( XSL_SOCK$$)");
     2508     1708        %INCLUDE XSL_SOCKMSGS_E;
     2509     1754        %INCLUDE XSL_SOCKMSGS_M;
     2510     2887            %XSL_REFMSGS;
     2511     2890            %XSL$RECVRQS( FPTN=XSL_RECVRQS, STCLASS=SYMREF);
     2512     2917            %XSL$RECVRQS( STCLASS="BASED( KEY$)");
     2513     2944            %XSL$RECVFROMRQS( FPTN=XSL_RECVFROMRQS, STCLASS=SYMREF);
     2514     2972            %XSL$RECVFROMRQS( STCLASS="BASED( KEY$)");
     2515     3000
     2516     3001    1       DCL XSL$EVLOG ENTRY(2);
     2517     3002
     2518     3003    1       DCL B$TCB$ PTR SYMREF READONLY;
     2519     3004
     2520     3005    1       DCL XSL_BUFSIZE SBIN SYMREF;
     2521     3006    1       DCL XSL_SOCK$$ PTR SYMREF;
     2522     3007
     2523     3008    1       DCL B$CHARS CHAR( LEN) BASED CALIGNED;
     2524     3009    1       DCL B$PTR PTR BASED;
     2525     3010    1       DCL BUF$ PTR;
     2526     3011    1       DCL BUFX SBIN;
PL6.E3A0      #014=XSL$BUFMGMT File=XSL$SOCKET1.:TCA2TSI                         SUN 11/16/97 14:38 Page:429
     2527     3012    1       DCL KEY$ PTR;
     2528     3013    1       DCL KEYS BIT(1) UNAL;
     2529     3014    1       DCL LEN SBIN;
     2530     3015    1       DCL TMPX SBIN;
     2531     3016
     2532     3017    1   XSL$RELBUF: ENTRY( SOCK, BUF) ALTRET;
     2533     3018
     2534     3019    2       DO INHIBIT;
     2535     3020    2           BUF$ = ADDR( BUF);
     2536     3021    2           BUFX = POFFW( BUF$, XSL_SOCK$$);
     2537     3022    2           CALL XSL$EVLOG( 'RB', BUFX*262144);
     2538     3023    2           TMPX = SOCK.BUFHD;
     2539     3024    3           IF TMPX = BUFX THEN DO;
     2540     3025    3               IF BUFX = SOCK.BUFTL THEN
     2541     3026    3                   SOCK.BUFTL = 0;
     2542     3027    3               SOCK.BUFHD = DATABUF.NXT;
     2543     3028    3               END;
     2544     3029    2           ELSE
     2545     3030    3               IF TMPX = SOCK.BUFTL THEN DO;
     2546     3031    3                   SOCK.BUFTL = 0;
     2547     3032    3                   SOCK.BUFHD = 0;
     2548     3033    3                   END;
     2549     3034    2               ELSE
     2550     3035    3               DO WHILE( TMPX ~= 0);
     2551     3036    4                   IF PINCRW( XSL_SOCK$$, TMPX)->DATABUF.NXT = BUFX THEN DO;
     2552     3037    4                       PINCRW( XSL_SOCK$$, TMPX)->DATABUF.NXT = DATABUF.NXT;
     2553     3038    4                       IF SOCK.BUFTL = BUFX THEN
     2554     3039    4                           SOCK.BUFTL = TMPX;
     2555     3040    4                       TMPX = 0;
     2556     3041    4                       END;
     2557     3042    3                   ELSE
     2558     3043    3                       TMPX = PINCRW( XSL_SOCK$$, TMPX)->DATABUF.NXT;
     2559     3044    3                   END;
     2560     3045    2           IF SOCK.FLAGS.REUSEBUF AND SOCK.BUFPND# <= SOCK.MAXBUF AND
     2561     3046    3             DCBADDR( SOCK.DCB#)->F$DCB.FCN.CNT(0) < SOCK.MAXRDS THEN DO;
     2562     3047    3               KEYS = '0'B;
     2563     3048    3   COMMON:
PL6.E3A0      #014=XSL$BUFMGMT File=XSL$SOCKET1.:TCA2TSI                         SUN 11/16/97 14:38 Page:430
     2564     3049    3               DATABUF = '0'B;
     2565     3050    3               DATABUF.FLAGS.BUSY = '1'B;
     2566     3051                /*  DATABUF.NXT = 0;  superfluous */
     2567     3052    3               IF SOCK.BUFTL ~= 0 THEN
     2568     3053    3                   PINCRW( XSL_SOCK$$, SOCK.BUFTL)->DATABUF.NXT = BUFX;
     2569     3054    3               SOCK.BUFTL = BUFX;
     2570     3055    3               IF SOCK.BUFHD = 0 THEN
     2571     3056    3                   SOCK.BUFHD = BUFX;
     2572     3057    3               BUF$->B$PTR = ADDR( SOCK);
     2573     3058    3               KEY$ = ADDR( DATABUF.KEY);
     2574     3059    4               IF KEYS THEN DO;
     2575     3060                        /* use supplied RQS rather than RECVRQS/RECVFROMRQS */
     2576     3061    4                   LEN = 32;
     2577     3062    4                   KEY$->B$CHARS = ADDR( BUF)->B$CHARS;
     2578     3063    4                   LEN = XSL_BUFSIZE;
     2579     3064    4                   END;
     2580     3065    4               ELSE DO;
     2581     3066                        /* issue RECVFROMRQS or RECVRQS as appropriate */
     2582     3067    4                   LEN = XSL_BUFSIZE;
     2583     3068    5                   IF SOCK.TYPE = %XSL_SOCK_DGRAM THEN DO;
     2584     3069    5                       XSL$RECVFROMRQS = XSL_RECVFROMRQS;
     2585     3070    5                       XSL$RECVFROMRQS.LEN = 512*(9000/256) + MOD(9000,256);
     2586     3071    5                       XSL$RECVFROMRQS.FROMLEN = 32 - SIZEC( XSL$RECVFROMRQS);
     2587     3072    5                       IF SOCK.FLAGS.DRIP THEN
     2588     3073    5                           XSL$RECVFROMRQS.FLAGS = %XSL_MSG_MORE;
     2589     3074    5                       END;
     2590     3075    5                   ELSE DO;
     2591     3076    5                       XSL$RECVRQS = XSL_RECVRQS;
     2592     3077    5                       XSL$RECVRQS.LEN = 512*(LEN/256) + MOD(LEN,256);
     2593     3078    5                       END;
     2594     3079    4                   END;
     2595     3080    3               FPT_READ.BUF_ = VECTOR(
     2596     3081    3                 PINCRC( ADDR( DATABUF), SIZEC( DATABUF))->B$CHARS);
     2597     3082    3               FPT_READ.KEY_ = VECTOR( DATABUF.KEY);
     2598     3083    3               FPT_READ.V.DCB# = SOCK.DCB#;
     2599     3084    3               ADDR( FPT_READ.V.EVENT#)->B$PTR = BUF$;
     2600     3085    3               SOCK.FLAGS.MUSTREAD = '0'B;
PL6.E3A0      #014=XSL$BUFMGMT File=XSL$SOCKET1.:TCA2TSI                         SUN 11/16/97 14:38 Page:431
     2601     3086    3               CALL XSL$EVLOG( 'NW', BUF$);
     2602     3087    3               CALL M$READ( FPT_READ) ALTRET( OOPS);
     2603     3088    3               END;
     2604     3089    3           ELSE DO;
     2605     3090    3               DATABUF.NXT = XSL$SOCKHD.BUFHD;
     2606     3091    3               XSL$SOCKHD.BUFHD = BUFX;
     2607     3092    3               IF XSL$SOCKHD.BUFTL = 0 THEN
     2608     3093    3                   XSL$SOCKHD.BUFTL = XSL$SOCKHD.BUFHD;
     2609     3094    3               END;
     2610     3095    2           RETURN;
     2611     3096    2   OOPS:
     2612     3097    2           CALL XSL$EVLOG( 'ER', BUF$);
     2613     3098    3           IF BUF$ ~= ADDR( NIL) THEN DO;
     2614     3099    3               CALL XSL$EVLOG( , B$TCB$->B$TCB.ALT$->B$ALT.ERR);
     2615     3100    3               DATABUF.FLAGS.BUSY = '0'B;
     2616     3101    3               END;
     2617     3102    2           ALTRETURN;
     2618     3103    2           END;
     2619     3104
     2620     3105    1   XSL$GETBUF: ENTRY( SOCK, BUF) ALTRET;
     2621     3106
     2622     3107    2       DO INHIBIT;
     2623     3108    2           BUF$ = ADDR( NIL);
     2624     3109    2           IF XSL$SOCKHD.BUFHD = 0 THEN
     2625     3110    2               GOTO OOPS;  /* can't extend segment yet.. */
     2626     3111    2           BUFX = XSL$SOCKHD.BUFHD;
     2627     3112    2           CALL XSL$EVLOG( 'GB', BUFX*262144);
     2628     3113    2           BUF$ = PINCRW( XSL_SOCK$$, BUFX);
     2629     3114    2           XSL$SOCKHD.BUFHD = BUF$->DATABUF.NXT;
     2630     3115    2           IF XSL$SOCKHD.BUFHD = 0 THEN
     2631     3116    2               XSL$SOCKHD.BUFTL = 0;  /* no more buffers */
     2632     3117    2           IF ADDR( BUF) = ADDR( NIL) THEN
     2633     3118    2               KEYS = '0'B;
     2634     3119    2           ELSE
     2635     3120    2               KEYS = '1'B;
     2636     3121    2           GOTO COMMON;
     2637     3122    2           END;
PL6.E3A0      #014=XSL$BUFMGMT File=XSL$SOCKET1.:TCA2TSI                         SUN 11/16/97 14:38 Page:432
     2638     3123
     2639     3124    1   END XSL$BUFMGMT;

PL6.E3A0      #014=XSL$BUFMGMT File=XSL$SOCKET1.:TCA2TSI                         SUN 11/16/97 14:38 Page:433
--  Include file information  --

   XSL_SOCKMSGS_M.:TCA2TOU  is referenced.
   XSL_SOCKMSGS_E.:TCA2TOU  is referenced.
   XSL_INTERNAL_M.:TCA2TOU  is referenced.
   XSL_SOCKET_M.:TCA2TOU  is referenced.
   XSL_SOCKET_E.:TCA2TOU  is referenced.
   CP_6.:E05TOU  cannot be made into a system file and is referenced.
   B$JIT_C.:E05TOU  was found in the system file and is never referenced.
   CP_6_C.:E05TOU  was found in the system file and is referenced.
      No diagnostics issued in procedure XSL$BUFMGMT.

   Procedure XSL$BUFMGMT requires 275 words for executable code.
   Procedure XSL$BUFMGMT requires 16 words of local(AUTO) storage.

    No errors detected in file XSL$SOCKET1.:TCA2TSI    .

PL6.E3A0      #014=XSL$BUFMGMT File=XSL$SOCKET1.:TCA2TSI                         SUN 11/16/97 14:38 Page:434

 Object Unit name= XSL$BUFMGMT                                File name= XSL$SOCKET1.:TCA2TOU
 UTS= NOV 16 '97 14:38:17.16 SUN                              Compiler= PL-6/E31         Sev=      00
 SharedLib= :SHARED_SYSTEM                                    Alt SharedLib=


    ****  Control sections  ****

 Sect   Type Bound  Init  Size OctSiz  Section name(segment info)
    0   DCB   even  none     0      0  M$UC
    1   Data  even  none    14     16  XSL$BUFMGMT
    2  RoData even  UTS      4      4  XSL$BUFMGMT
    3   Proc  even  none   275    423  XSL$BUFMGMT
    4  RoData even  none     7      7  XSL$BUFMGMT

    ****  Entry defs  ****

                              Check   Calling
                             calling  sequence
  Sect OctLoc Primary Altret sequence   type   Parms  Name
     3      0   yes    yes     yes      Std        2  XSL$BUFMGMT
     3      3          yes     yes      Std        2  XSL$RELBUF
     3    350          yes     yes      Std        2  XSL$GETBUF

  ****  Entry refs  ****

         Check        Calling
        calling       sequence
Altret sequence SRef   type   Args  Name
         yes          ~proc      0 XSL$MSGSDEFS
         yes           Std       2 XSL$EVLOG
                       nStd      0 X66_AUTO_2
                       Std       0 B_CONSPOOL_D
                       nStd      0 X66_ARET
                       nStd      0 X66_AALT
PL6.E3A0      #014=XSL$BUFMGMT File=XSL$SOCKET1.:TCA2TSI                         SUN 11/16/97 14:38 Page:435

  ****  Data refs  ****

  Flags:  r = read only, s = secondary
Flgs Name                             Flgs Name                             Flgs Name
     M$UC                                  XSL_RECVRQS                           XSL_RECVFROMRQS
r    B$TCB$                                XSL_BUFSIZE                           XSL_SOCK$$
     B_VECTNIL

  ****  Segment refs  ****

  Flags:  r = read only, s = secondary
Flgs Name                             Flgs Name                             Flgs Name
     ISSID                                 NULLSID                               ROSID
PL6.E3A0      #014=XSL$BUFMGMT File=XSL$SOCKET1.:TCA2TSI                         SUN 11/16/97 14:38 Page:436


     2490        1        /*T***********************************************************/
     2491        2        /*T*                                                         */
     2492        3        /*T* Copyright (c) Bull HN Information Systems Inc., 1997    */
     2493        4        /*T*                                                         */
     2494        5        /*T***********************************************************/
     2495        6        XSL$BUFMGMT: PROC( SOCK, BUF) ALTRET;

      6  3 000000   000000 700200 xent  XSL$BUFMGMT  TSX0  ! X66_AUTO_2
         3 000001   000020 000002                    ZERO    16,2
         3 000002   000005 710000 3                  TRA     s:3020

     2496        7        %INCLUDE CP_6;
     2497       88            %F$DCB;
     2498      145            %B$ALT;
     2499      153            %B$TCB;
     2500      156            %FPT_READ( STCLASS=STATIC, KEYS=YES, KEYR=YES, WAIT=NO);
     2501      195        %INCLUDE XSL_SOCKET_E;
     2502      453        %INCLUDE XSL_SOCKET_M;
     2503     1214        %INCLUDE XSL_INTERNAL_M;
     2504     1465            %XSL$DATABUF( FPTN=BUF, STCLASS=);
     2505     1498            %XSL$DATABUF( FPTN=DATABUF, STCLASS="BASED( BUF$)");
     2506     1531            %XSL$SOCKINFO( FPTN=SOCK, STCLASS=);
     2507     1675            %XSL$SOCKHD( STCLASS="BASED( XSL_SOCK$$)");
     2508     1708        %INCLUDE XSL_SOCKMSGS_E;
     2509     1754        %INCLUDE XSL_SOCKMSGS_M;
     2510     2887            %XSL_REFMSGS;
     2511     2890            %XSL$RECVRQS( FPTN=XSL_RECVRQS, STCLASS=SYMREF);
     2512     2917            %XSL$RECVRQS( STCLASS="BASED( KEY$)");
     2513     2944            %XSL$RECVFROMRQS( FPTN=XSL_RECVFROMRQS, STCLASS=SYMREF);
     2514     2972            %XSL$RECVFROMRQS( STCLASS="BASED( KEY$)");
     2515     3000
     2516     3001    1       DCL XSL$EVLOG ENTRY(2);
     2517     3002
     2518     3003    1       DCL B$TCB$ PTR SYMREF READONLY;
     2519     3004
     2520     3005    1       DCL XSL_BUFSIZE SBIN SYMREF;
PL6.E3A0      #014=XSL$BUFMGMT File=XSL$SOCKET1.:TCA2TSI                         SUN 11/16/97 14:38 Page:437
     2521     3006    1       DCL XSL_SOCK$$ PTR SYMREF;
     2522     3007
     2523     3008    1       DCL B$CHARS CHAR( LEN) BASED CALIGNED;
     2524     3009    1       DCL B$PTR PTR BASED;
     2525     3010    1       DCL BUF$ PTR;
     2526     3011    1       DCL BUFX SBIN;
     2527     3012    1       DCL KEY$ PTR;
     2528     3013    1       DCL KEYS BIT(1) UNAL;
     2529     3014    1       DCL LEN SBIN;
     2530     3015    1       DCL TMPX SBIN;
     2531     3016
     2532     3017    1   XSL$RELBUF: ENTRY( SOCK, BUF) ALTRET;

   3017  3 000003   000000 700200 xent  XSL$RELBUF   TSX0  ! X66_AUTO_2
         3 000004   000020 000002                    ZERO    16,2

     2533     3018
     2534     3019    2       DO INHIBIT;

     2535     3020    2           BUF$ = ADDR( BUF);

   3020  3 000005   200004 236300                    LDQ   ! @BUF,,AUTO
         3 000006   200005 756300                    STQ   ! BUF$,,AUTO

     2536     3021    2           BUFX = POFFW( BUF$, XSL_SOCK$$);

   3021  3 000007   000000 235200 xsym               LDA   ! XSL_SOCK$$
         3 000010   000022 771200                    ARL   ! 18
         3 000011   200014 755300                    STA   ! TMPX+2,,AUTO
         3 000012   200005 236300                    LDQ   ! BUF$,,AUTO
         3 000013   000022 772200                    QRL   ! 18
         3 000014   200014 136300                    SBLQ  ! TMPX+2,,AUTO
         3 000015   200006 756300                    STQ   ! BUFX,,AUTO

     2537     3022    2           CALL XSL$EVLOG( 'RB', BUFX*262144);

   3022  3 000016   200006 235300                    LDA   ! BUFX,,AUTO
PL6.E3A0      #014=XSL$BUFMGMT File=XSL$SOCKET1.:TCA2TSI                         SUN 11/16/97 14:38 Page:438
         3 000017   000022 735200                    ALS   ! 18
         3 000020   200014 755300                    STA   ! TMPX+2,,AUTO
         3 000021   200014 630700                    EPPR0 ! TMPX+2,,AUTO
         3 000022   200017 450700                    STP0  ! TMPX+5,,AUTO
         3 000023   000000 236200 4                  LDQ   ! 0
         3 000024   200016 756300                    STQ   ! TMPX+4,,AUTO
         3 000025   200016 630700                    EPPR0 ! TMPX+4,,AUTO
         3 000026   000020 631600 xsym               EPPR1 ! B_VECTNIL+16
         3 000027   000000 701200 xent               TSX1  ! XSL$EVLOG
         3 000030   000000 011200                    NOP   ! 0

     2538     3023    2           TMPX = SOCK.BUFHD;

   3023  3 000031   200003 470700                    LDP0  ! @SOCK,,AUTO
         3 000032   000016 236300                    LDQ   ! 14,,PR0
         3 000033   000022 772200                    QRL   ! 18
         3 000034   200012 756300                    STQ   ! TMPX,,AUTO

     2539     3024    3           IF TMPX = BUFX THEN DO;

   3024  3 000035   200006 116300                    CMPQ  ! BUFX,,AUTO
         3 000036   000051 601200 3                  TNZ   ! s:3030

     2540     3025    3               IF BUFX = SOCK.BUFTL THEN

   3025  3 000037   000016 236300                    LDQ   ! 14,,PR0
         3 000040   777777 376207                    ANQ   ! -1,DL
         3 000041   200006 116300                    CMPQ  ! BUFX,,AUTO
         3 000042   000045 601200 3                  TNZ   ! s:3027

     2541     3026    3                   SOCK.BUFTL = 0;

   3026  3 000043   000000 220203                    LDX0  ! 0,DU
         3 000044   000016 440300                    SXL0  ! 14,,PR0

     2542     3027    3               SOCK.BUFHD = DATABUF.NXT;

PL6.E3A0      #014=XSL$BUFMGMT File=XSL$SOCKET1.:TCA2TSI                         SUN 11/16/97 14:38 Page:439
   3027  3 000045   200005 471700                    LDP1  ! BUF$,,AUTO
         3 000046   100001 720300                    LXL0  ! 1,,PR1
         3 000047   000016 740300                    STX0  ! 14,,PR0

     2543     3028    3               END;

   3028  3 000050   000107 710200 3                  TRA   ! s:3045

     2544     3029    2           ELSE
     2545     3030    3               IF TMPX = SOCK.BUFTL THEN DO;

   3030  3 000051   000016 236300                    LDQ   ! 14,,PR0
         3 000052   777777 376207                    ANQ   ! -1,DL
         3 000053   200012 116300                    CMPQ  ! TMPX,,AUTO
         3 000054   000061 601200 3                  TNZ   ! s:3035

     2546     3031    3                   SOCK.BUFTL = 0;

   3031  3 000055   000000 220203                    LDX0  ! 0,DU
         3 000056   000016 440300                    SXL0  ! 14,,PR0

     2547     3032    3                   SOCK.BUFHD = 0;

   3032  3 000057   000016 740300                    STX0  ! 14,,PR0

     2548     3033    3                   END;

   3033  3 000060   000107 710200 3                  TRA   ! s:3045

     2549     3034    2               ELSE
     2550     3035    3               DO WHILE( TMPX ~= 0);

   3035  3 000061   200012 235300                    LDA   ! TMPX,,AUTO
         3 000062   000107 600200 3                  TZE   ! s:3045

     2551     3036    4                   IF PINCRW( XSL_SOCK$$, TMPX)->DATABUF.NXT = BUFX THEN DO;

PL6.E3A0      #014=XSL$BUFMGMT File=XSL$SOCKET1.:TCA2TSI                         SUN 11/16/97 14:38 Page:440
   3036  3 000063   000000 470600 xsym               LDP0  ! XSL_SOCK$$
         3 000064   200012 720300                    LXL0  ! TMPX,,AUTO
         3 000065   000001 236310                    LDQ   ! 1,X0,PR0
         3 000066   777777 376207                    ANQ   ! -1,DL
         3 000067   200006 116300                    CMPQ  ! BUFX,,AUTO
         3 000070   000104 601200 3                  TNZ   ! s:3043

     2552     3037    4                       PINCRW( XSL_SOCK$$, TMPX)->DATABUF.NXT = DATABUF.NXT;

   3037  3 000071   200005 471700                    LDP1  ! BUF$,,AUTO
         3 000072   100001 721300                    LXL1  ! 1,,PR1
         3 000073   000001 441310                    SXL1  ! 1,X0,PR0

     2553     3038    4                       IF SOCK.BUFTL = BUFX THEN

   3038  3 000074   200003 470700                    LDP0  ! @SOCK,,AUTO
         3 000075   000016 236300                    LDQ   ! 14,,PR0
         3 000076   777777 376207                    ANQ   ! -1,DL
         3 000077   200006 116300                    CMPQ  ! BUFX,,AUTO
         3 000100   000102 601200 3                  TNZ   ! s:3040

     2554     3039    4                           SOCK.BUFTL = TMPX;

   3039  3 000101   000016 440300                    SXL0  ! 14,,PR0

     2555     3040    4                       TMPX = 0;

   3040  3 000102   200012 450300                    STZ   ! TMPX,,AUTO

     2556     3041    4                       END;

   3041  3 000103   000105 710200 3                  TRA   ! s:3044

     2557     3042    3                   ELSE
     2558     3043    3                       TMPX = PINCRW( XSL_SOCK$$, TMPX)->DATABUF.NXT;

   3043  3 000104   200012 756300                    STQ   ! TMPX,,AUTO
PL6.E3A0      #014=XSL$BUFMGMT File=XSL$SOCKET1.:TCA2TSI                         SUN 11/16/97 14:38 Page:441

     2559     3044    3                   END;

   3044  3 000105   200012 235300                    LDA   ! TMPX,,AUTO
         3 000106   000063 601200 3                  TNZ   ! s:3036

     2560     3045    2           IF SOCK.FLAGS.REUSEBUF AND SOCK.BUFPND# <= SOCK.MAXBUF AND

   3045  3 000107   200003 470700                    LDP0  ! @SOCK,,AUTO
         3 000110   000001 236300                    LDQ   ! 1,,PR0
         3 000111   000004 316203                    CANQ  ! 4,DU
         3 000112   000302 600200 3                  TZE   ! s:3090
         3 000113   000017 720300                    LXL0  ! 15,,PR0
         3 000114   000020 100300                    CMPX0 ! 16,,PR0
         3 000115   000117 600200 3                  TZE   ! s:3045+8
         3 000116   000302 603200 3                  TRC   ! s:3090
         3 000117   000001 471600 4                  LDP1  ! 1
         3 000120   100000 473700                    LDP3  ! 0,,PR1
         3 000121   000003 721300                    LXL1  ! 3,,PR0
         3 000122   300000 474711                    LDP4  ! 0,X1,PR3
         3 000123   000020 236300                    LDQ   ! 16,,PR0
         3 000124   777777 376207                    ANQ   ! -1,DL
         3 000125   200014 756300                    STQ   ! TMPX+2,,AUTO
         3 000126   400074 236300                    LDQ   ! 60,,PR4
         3 000127   000033 772200                    QRL   ! 27
         3 000130   000377 376207                    ANQ   ! 255,DL
         3 000131   200014 116300                    CMPQ  ! TMPX+2,,AUTO
         3 000132   000302 605200 3                  TPL   ! s:3090

     2561     3046    3             DCBADDR( SOCK.DCB#)->F$DCB.FCN.CNT(0) < SOCK.MAXRDS THEN DO;

     2562     3047    3               KEYS = '0'B;

   3047  3 000133   200010 450300                    STZ   ! KEYS,,AUTO

     2563     3048    3   COMMON:
     2564     3049    3               DATABUF = '0'B;
PL6.E3A0      #014=XSL$BUFMGMT File=XSL$SOCKET1.:TCA2TSI                         SUN 11/16/97 14:38 Page:442

   3049  3 000134   200005 470700       COMMON       LDP0  ! BUF$,,AUTO
         3 000135   000100 100600                    MLR   ! fill='000'O
         3 000136   000002 000001 xsym               ADSC9   B_VECTNIL+2              cn=0,n=1
         3 000137   000000 000050                    ADSC9   0,,PR0                   cn=0,n=40

     2565     3050    3               DATABUF.FLAGS.BUSY = '1'B;

   3050  3 000140   200005 470700                    LDP0  ! BUF$,,AUTO
         3 000141   400000 236203                    LDQ   ! -131072,DU
         3 000142   000001 256300                    ORSQ  ! 1,,PR0

     2566     3051                /*  DATABUF.NXT = 0;  superfluous */
     2567     3052    3               IF SOCK.BUFTL ~= 0 THEN

   3052  3 000143   200003 470700                    LDP0  ! @SOCK,,AUTO
         3 000144   000016 720300                    LXL0  ! 14,,PR0
         3 000145   000151 600200 3                  TZE   ! s:3054

     2568     3053    3                   PINCRW( XSL_SOCK$$, SOCK.BUFTL)->DATABUF.NXT = BUFX;

   3053  3 000146   200006 721300                    LXL1  ! BUFX,,AUTO
         3 000147   000000 471600 xsym               LDP1  ! XSL_SOCK$$
         3 000150   100001 441310                    SXL1  ! 1,X0,PR1

     2569     3054    3               SOCK.BUFTL = BUFX;

   3054  3 000151   200006 720300                    LXL0  ! BUFX,,AUTO
         3 000152   000016 440300                    SXL0  ! 14,,PR0

     2570     3055    3               IF SOCK.BUFHD = 0 THEN

   3055  3 000153   000016 221300                    LDX1  ! 14,,PR0
         3 000154   000156 601200 3                  TNZ   ! s:3057

     2571     3056    3                   SOCK.BUFHD = BUFX;

PL6.E3A0      #014=XSL$BUFMGMT File=XSL$SOCKET1.:TCA2TSI                         SUN 11/16/97 14:38 Page:443
   3056  3 000155   000016 740300                    STX0  ! 14,,PR0

     2572     3057    3               BUF$->B$PTR = ADDR( SOCK);

   3057  3 000156   200003 236300                    LDQ   ! @SOCK,,AUTO
         3 000157   200005 471700                    LDP1  ! BUF$,,AUTO
         3 000160   100000 756300                    STQ   ! 0,,PR1

     2573     3058    3               KEY$ = ADDR( DATABUF.KEY);

   3058  3 000161   200005 236300                    LDQ   ! BUF$,,AUTO
         3 000162   000002 036203                    ADLQ  ! 2,DU
         3 000163   200007 756300                    STQ   ! KEY$,,AUTO

     2574     3059    4               IF KEYS THEN DO;

   3059  3 000164   200010 234300                    SZN   ! KEYS,,AUTO
         3 000165   000202 605200 3                  TPL   ! s:3067

     2575     3060                        /* use supplied RQS rather than RECVRQS/RECVFROMRQS */
     2576     3061    4                   LEN = 32;

   3061  3 000166   000040 235207                    LDA   ! 32,DL
         3 000167   200011 755300                    STA   ! LEN,,AUTO

     2577     3062    4                   KEY$->B$CHARS = ADDR( BUF)->B$CHARS;

   3062  3 000170   200004 471700                    LDP1  ! @BUF,,AUTO
         3 000171   000000 621205                    EAX1  ! 0,AL
         3 000172   200007 473700                    LDP3  ! KEY$,,AUTO
         3 000173   200011 722300                    LXL2  ! LEN,,AUTO
         3 000174   040140 100740                    MLR   ! fill='040'O
         3 000175   100000 000011                    ADSC9   0,,PR1                   cn=0,n=*X1
         3 000176   300000 000012                    ADSC9   0,,PR3                   cn=0,n=*X2

     2578     3063    4                   LEN = XSL_BUFSIZE;

PL6.E3A0      #014=XSL$BUFMGMT File=XSL$SOCKET1.:TCA2TSI                         SUN 11/16/97 14:38 Page:444
   3063  3 000177   000000 235200 xsym               LDA   ! XSL_BUFSIZE
         3 000200   200011 755300                    STA   ! LEN,,AUTO

     2579     3064    4                   END;

   3064  3 000201   000245 710200 3                  TRA   ! s:3080

     2580     3065    4               ELSE DO;

     2581     3066                        /* issue RECVFROMRQS or RECVRQS as appropriate */
     2582     3067    4                   LEN = XSL_BUFSIZE;

   3067  3 000202   000000 235200 xsym               LDA   ! XSL_BUFSIZE
         3 000203   200011 755300                    STA   ! LEN,,AUTO

     2583     3068    5                   IF SOCK.TYPE = %XSL_SOCK_DGRAM THEN DO;

   3068  3 000204   000000 236300                    LDQ   ! 0,,PR0
         3 000205   000777 376203                    ANQ   ! 511,DU
         3 000206   000002 116203                    CMPQ  ! 2,DU
         3 000207   000226 601200 3                  TNZ   ! s:3076

     2584     3069    5                       XSL$RECVFROMRQS = XSL_RECVFROMRQS;

   3069  3 000210   200007 471700                    LDP1  ! KEY$,,AUTO
         3 000211   000100 100600                    MLR   ! fill='000'O
         3 000212   000000 000010 xsym               ADSC9   XSL_RECVFROMRQS          cn=0,n=8
         3 000213   100000 000010                    ADSC9   0,,PR1                   cn=0,n=8

     2585     3070    5                       XSL$RECVFROMRQS.LEN = 512*(9000/256) + MOD(9000,256);

   3070  3 000214   043050 221203                    LDX1  ! 17960,DU
         3 000215   100001 741300                    STX1  ! 1,,PR1

     2586     3071    5                       XSL$RECVFROMRQS.FROMLEN = 32 - SIZEC( XSL$RECVFROMRQS);

   3071  3 000216   000030 222203                    LDX2  ! 24,DU
PL6.E3A0      #014=XSL$BUFMGMT File=XSL$SOCKET1.:TCA2TSI                         SUN 11/16/97 14:38 Page:445
         3 000217   100001 442300                    SXL2  ! 1,,PR1

     2587     3072    5                       IF SOCK.FLAGS.DRIP THEN

   3072  3 000220   000001 236300                    LDQ   ! 1,,PR0
         3 000221   400000 316207                    CANQ  ! -131072,DL
         3 000222   000245 600200 3                  TZE   ! s:3080

     2588     3073    5                           XSL$RECVFROMRQS.FLAGS = %XSL_MSG_MORE;

   3073  3 000223   000200 223203                    LDX3  ! 128,DU
         3 000224   100000 443300                    SXL3  ! 0,,PR1

     2589     3074    5                       END;

   3074  3 000225   000245 710200 3                  TRA   ! s:3080

     2590     3075    5                   ELSE DO;

     2591     3076    5                       XSL$RECVRQS = XSL_RECVRQS;

   3076  3 000226   200007 471700                    LDP1  ! KEY$,,AUTO
         3 000227   000100 100600                    MLR   ! fill='000'O
         3 000230   000000 000006 xsym               ADSC9   XSL_RECVRQS              cn=0,n=6
         3 000231   100000 000006                    ADSC9   0,,PR1                   cn=0,n=6

     2592     3077    5                       XSL$RECVRQS.LEN = 512*(LEN/256) + MOD(LEN,256);

   3077  3 000232   200011 236300                    LDQ   ! LEN,,AUTO
         3 000233   000400 506207                    DIV   ! 256,DL
         3 000234   200014 756300                    STQ   ! TMPX+2,,AUTO
         3 000235   200011 236300                    LDQ   ! LEN,,AUTO
         3 000236   000400 506207                    DIV   ! 256,DL
         3 000237   200015 755300                    STA   ! TMPX+3,,AUTO
         3 000240   200014 236300                    LDQ   ! TMPX+2,,AUTO
         3 000241   000011 736200                    QLS   ! 9
         3 000242   200015 036300                    ADLQ  ! TMPX+3,,AUTO
PL6.E3A0      #014=XSL$BUFMGMT File=XSL$SOCKET1.:TCA2TSI                         SUN 11/16/97 14:38 Page:446
         3 000243   000000 621206                    EAX1  ! 0,QL
         3 000244   100001 741300                    STX1  ! 1,,PR1

     2593     3078    5                       END;

     2594     3079    4                   END;

     2595     3080    3               FPT_READ.BUF_ = VECTOR(

   3080  3 000245   200011 235300                    LDA   ! LEN,,AUTO
         3 000246   000020 735200                    ALS   ! 16
         3 000247   000140 135207                    SBLA  ! 96,DL
         3 000250   200005 236300                    LDQ   ! BUF$,,AUTO
         3 000251   000012 036203                    ADLQ  ! 10,DU
         3 000252   000004 757200 1                  STAQ  ! FPT_READ+4

     2596     3081    3                 PINCRC( ADDR( DATABUF), SIZEC( DATABUF))->B$CHARS);
     2597     3082    3               FPT_READ.KEY_ = VECTOR( DATABUF.KEY);

   3082  3 000253   000002 235200 4                  LDA   ! 2
         3 000254   200005 236300                    LDQ   ! BUF$,,AUTO
         3 000255   000002 036203                    ADLQ  ! 2,DU
         3 000256   000002 757200 1                  STAQ  ! FPT_READ+2

     2598     3083    3               FPT_READ.V.DCB# = SOCK.DCB#;

   3083  3 000257   000003 721300                    LXL1  ! 3,,PR0
         3 000260   000010 741200 1                  STX1  ! FPT_READ+8

     2599     3084    3               ADDR( FPT_READ.V.EVENT#)->B$PTR = BUF$;

   3084  3 000261   200005 236300                    LDQ   ! BUF$,,AUTO
         3 000262   000011 756200 1                  STQ   ! FPT_READ+9

     2600     3085    3               SOCK.FLAGS.MUSTREAD = '0'B;

   3085  3 000263   000003 236200 4                  LDQ   ! 3
PL6.E3A0      #014=XSL$BUFMGMT File=XSL$SOCKET1.:TCA2TSI                         SUN 11/16/97 14:38 Page:447
         3 000264   000001 356300                    ANSQ  ! 1,,PR0

     2601     3086    3               CALL XSL$EVLOG( 'NW', BUF$);

   3086  3 000265   200005 631700                    EPPR1 ! BUF$,,AUTO
         3 000266   200015 451700                    STP1  ! TMPX+3,,AUTO
         3 000267   000004 236200 4                  LDQ   ! 4
         3 000270   200014 756300                    STQ   ! TMPX+2,,AUTO
         3 000271   200014 630700                    EPPR0 ! TMPX+2,,AUTO
         3 000272   000020 631600 xsym               EPPR1 ! B_VECTNIL+16
         3 000273   000000 701200 xent               TSX1  ! XSL$EVLOG
         3 000274   000000 011200                    NOP   ! 0

     2602     3087    3               CALL M$READ( FPT_READ) ALTRET( OOPS);

   3087  3 000275   000000 630600 1                  EPPR0 ! FPT_READ
         3 000276   440000 713600                    CLIMB ! alt,read
         3 000277   401400 401760                    pmme    nvectors=4
         3 000300   000316 702200 3                  TSX2  ! OOPS

     2603     3088    3               END;

   3088  3 000301   000315 710200 3                  TRA   ! s:3095

     2604     3089    3           ELSE DO;

     2605     3090    3               DATABUF.NXT = XSL$SOCKHD.BUFHD;

   3090  3 000302   000000 471600 xsym               LDP1  ! XSL_SOCK$$
         3 000303   100000 220300                    LDX0  ! 0,,PR1
         3 000304   200005 473700                    LDP3  ! BUF$,,AUTO
         3 000305   300001 440300                    SXL0  ! 1,,PR3

     2606     3091    3               XSL$SOCKHD.BUFHD = BUFX;

   3091  3 000306   200006 720300                    LXL0  ! BUFX,,AUTO
         3 000307   100000 740300                    STX0  ! 0,,PR1
PL6.E3A0      #014=XSL$BUFMGMT File=XSL$SOCKET1.:TCA2TSI                         SUN 11/16/97 14:38 Page:448

     2607     3092    3               IF XSL$SOCKHD.BUFTL = 0 THEN

   3092  3 000310   000000 471600 xsym               LDP1  ! XSL_SOCK$$
         3 000311   100000 721300                    LXL1  ! 0,,PR1
         3 000312   000315 601200 3                  TNZ   ! s:3095

     2608     3093    3                   XSL$SOCKHD.BUFTL = XSL$SOCKHD.BUFHD;

   3093  3 000313   100000 222300                    LDX2  ! 0,,PR1
         3 000314   100000 442300                    SXL2  ! 0,,PR1

     2609     3094    3               END;

     2610     3095    2           RETURN;

   3095  3 000315   000000 702200 xent               TSX2  ! X66_ARET

     2611     3096    2   OOPS:
     2612     3097    2           CALL XSL$EVLOG( 'ER', BUF$);

   3097  3 000316   200005 630700       OOPS         EPPR0 ! BUF$,,AUTO
         3 000317   200015 450700                    STP0  ! TMPX+3,,AUTO
         3 000320   000005 236200 4                  LDQ   ! 5
         3 000321   200014 756300                    STQ   ! TMPX+2,,AUTO
         3 000322   200014 630700                    EPPR0 ! TMPX+2,,AUTO
         3 000323   000020 631600 xsym               EPPR1 ! B_VECTNIL+16
         3 000324   000000 701200 xent               TSX1  ! XSL$EVLOG
         3 000325   000000 011200                    NOP   ! 0

     2613     3098    3           IF BUF$ ~= ADDR( NIL) THEN DO;

   3098  3 000326   200005 236300                    LDQ   ! BUF$,,AUTO
         3 000327   000001 116200 xsym               CMPQ  ! B_VECTNIL+1
         3 000330   000346 600200 3                  TZE   ! s:3102

     2614     3099    3               CALL XSL$EVLOG( , B$TCB$->B$TCB.ALT$->B$ALT.ERR);
PL6.E3A0      #014=XSL$BUFMGMT File=XSL$SOCKET1.:TCA2TSI                         SUN 11/16/97 14:38 Page:449

   3099  3 000331   000000 470600 xsym               LDP0  ! B$TCB$
         3 000332   000000 471700                    LDP1  ! 0,,PR0
         3 000333   100102 633700                    EPPR3 ! 66,,PR1
         3 000334   200015 453700                    STP3  ! TMPX+3,,AUTO
         3 000335   000001 236200 xsym               LDQ   ! B_VECTNIL+1
         3 000336   200014 756300                    STQ   ! TMPX+2,,AUTO
         3 000337   200014 630700                    EPPR0 ! TMPX+2,,AUTO
         3 000340   000020 631600 xsym               EPPR1 ! B_VECTNIL+16
         3 000341   000000 701200 xent               TSX1  ! XSL$EVLOG
         3 000342   000000 011200                    NOP   ! 0

     2615     3100    3               DATABUF.FLAGS.BUSY = '0'B;

   3100  3 000343   200005 470700                    LDP0  ! BUF$,,AUTO
         3 000344   000031 236200 xsym               LDQ   ! B_VECTNIL+25
         3 000345   000001 356300                    ANSQ  ! 1,,PR0

     2616     3101    3               END;

     2617     3102    2           ALTRETURN;

   3102  3 000346   000000 702200 xent               TSX2  ! X66_AALT

     2618     3103    2           END;

   3103  3 000347   000352 710000 3                  TRA     s:3108

     2619     3104
     2620     3105    1   XSL$GETBUF: ENTRY( SOCK, BUF) ALTRET;

   3105  3 000350   000000 700200 xent  XSL$GETBUF   TSX0  ! X66_AUTO_2
         3 000351   000020 000002                    ZERO    16,2

     2621     3106
     2622     3107    2       DO INHIBIT;

PL6.E3A0      #014=XSL$BUFMGMT File=XSL$SOCKET1.:TCA2TSI                         SUN 11/16/97 14:38 Page:450
     2623     3108    2           BUF$ = ADDR( NIL);

   3108  3 000352   000001 236200 xsym               LDQ   ! B_VECTNIL+1
         3 000353   200005 756300                    STQ   ! BUF$,,AUTO

     2624     3109    2           IF XSL$SOCKHD.BUFHD = 0 THEN

   3109  3 000354   000000 470600 xsym               LDP0  ! XSL_SOCK$$
         3 000355   000000 220300                    LDX0  ! 0,,PR0
         3 000356   000316 600200 3                  TZE   ! OOPS

     2625     3110    2               GOTO OOPS;  /* can't extend segment yet.. */
     2626     3111    2           BUFX = XSL$SOCKHD.BUFHD;

   3111  3 000357   000000 236300                    LDQ   ! 0,,PR0
         3 000360   000022 772200                    QRL   ! 18
         3 000361   200006 756300                    STQ   ! BUFX,,AUTO

     2627     3112    2           CALL XSL$EVLOG( 'GB', BUFX*262144);

   3112  3 000362   200006 235300                    LDA   ! BUFX,,AUTO
         3 000363   000022 735200                    ALS   ! 18
         3 000364   200014 755300                    STA   ! TMPX+2,,AUTO
         3 000365   200014 631700                    EPPR1 ! TMPX+2,,AUTO
         3 000366   200017 451700                    STP1  ! TMPX+5,,AUTO
         3 000367   000006 236200 4                  LDQ   ! 6
         3 000370   200016 756300                    STQ   ! TMPX+4,,AUTO
         3 000371   200016 630700                    EPPR0 ! TMPX+4,,AUTO
         3 000372   000020 631600 xsym               EPPR1 ! B_VECTNIL+16
         3 000373   000000 701200 xent               TSX1  ! XSL$EVLOG
         3 000374   000000 011200                    NOP   ! 0

     2628     3113    2           BUF$ = PINCRW( XSL_SOCK$$, BUFX);

   3113  3 000375   200006 236300                    LDQ   ! BUFX,,AUTO
         3 000376   000022 736200                    QLS   ! 18
         3 000377   000000 036200 xsym               ADLQ  ! XSL_SOCK$$
PL6.E3A0      #014=XSL$BUFMGMT File=XSL$SOCKET1.:TCA2TSI                         SUN 11/16/97 14:38 Page:451
         3 000400   200005 756300                    STQ   ! BUF$,,AUTO

     2629     3114    2           XSL$SOCKHD.BUFHD = BUF$->DATABUF.NXT;

   3114  3 000401   200005 470700                    LDP0  ! BUF$,,AUTO
         3 000402   000001 720300                    LXL0  ! 1,,PR0
         3 000403   000000 471600 xsym               LDP1  ! XSL_SOCK$$
         3 000404   100000 740300                    STX0  ! 0,,PR1

     2630     3115    2           IF XSL$SOCKHD.BUFHD = 0 THEN

   3115  3 000405   000000 470600 xsym               LDP0  ! XSL_SOCK$$
         3 000406   000000 220300                    LDX0  ! 0,,PR0
         3 000407   000412 601200 3                  TNZ   ! s:3117

     2631     3116    2               XSL$SOCKHD.BUFTL = 0;  /* no more buffers */

   3116  3 000410   000000 221203                    LDX1  ! 0,DU
         3 000411   000000 441300                    SXL1  ! 0,,PR0

     2632     3117    2           IF ADDR( BUF) = ADDR( NIL) THEN

   3117  3 000412   200004 236300                    LDQ   ! @BUF,,AUTO
         3 000413   000001 116200 xsym               CMPQ  ! B_VECTNIL+1
         3 000414   000417 601200 3                  TNZ   ! s:3120

     2633     3118    2               KEYS = '0'B;

   3118  3 000415   200010 450300                    STZ   ! KEYS,,AUTO
         3 000416   000421 710200 3                  TRA   ! s:3121

     2634     3119    2           ELSE
     2635     3120    2               KEYS = '1'B;

   3120  3 000417   400000 236203                    LDQ   ! -131072,DU
         3 000420   200010 756300                    STQ   ! KEYS,,AUTO

PL6.E3A0      #014=XSL$BUFMGMT File=XSL$SOCKET1.:TCA2TSI                         SUN 11/16/97 14:38 Page:452
     2636     3121    2           GOTO COMMON;

   3121  3 000421   000134 710200 3                  TRA   ! COMMON

     2637     3122    2           END;

     2638     3123
     2639     3124    1   END XSL$BUFMGMT;

   3124  3 000422   000000 702200 xent               TSX2  ! X66_ARET

FPT_READ
 Sect OctLoc
   1     000   000005 777640   000010 006000   000000 177640   000000 006014    ................
   1     004   000000 177640   000000 006014   000000 177640   000000 006014    ................
   1     010   000000 300000   000000 000000   000000 000000   000000 000000    ................
   1     014   000000 000000   000000 000000                                    ........

(unnamed)
 Sect OctLoc
   2     000   122102 040040   116127 040040   105122 040040   107102 040040    RB  NW  ER  GB

(unnamed)
 Sect OctLoc
   4     000   000000 006000   000000 006003   000007 777640   777776 777777    ................
   4     004   000001 006000   000002 006000   000003 006000                    ............

PL6.E3A0      #014=XSL$BUFMGMT File=XSL$SOCKET1.:TCA2TSI                         SUN 11/16/97 14:38 Page:453
--  Include file information  --

   XSL_SOCKMSGS_M.:TCA2TOU  is referenced.
   XSL_SOCKMSGS_E.:TCA2TOU  is referenced.
   XSL_INTERNAL_M.:TCA2TOU  is referenced.
   XSL_SOCKET_M.:TCA2TOU  is referenced.
   XSL_SOCKET_E.:TCA2TOU  is referenced.
   CP_6.:E05TOU  cannot be made into a system file and is referenced.
   B$JIT_C.:E05TOU  was found in the system file and is never referenced.
   CP_6_C.:E05TOU  was found in the system file and is referenced.
      No diagnostics issued in procedure XSL$BUFMGMT.
PL6.E3A0      #014=XSL$BUFMGMT File=XSL$SOCKET1.:TCA2TSI                         SUN 11/16/97 14:38 Page:454

 **** Variables and constants ****

  ****  Section 001  Data  XSL$BUFMGMT

  ****  Scalars and arrays  ****
OctLoc.c.b A Datatyp(siz) R M Lvl/name                 OctLoc.c.b A Datatyp(siz) R M Lvl/name

     0-0-0/d STRC(504)   r     1 FPT_READ

  ****  Auto variables  ****

  ****  Scalars and arrays  ****
OctLoc.c.b A Datatyp(siz) R M Lvl/name                 OctLoc.c.b A Datatyp(siz) R M Lvl/name

     4-0-0/w PTR         r     1 @BUF                       3-0-0/w PTR         r     1 @SOCK
    *0-0-0/w STRC(360)   r     1 BUF                        5-0-0/w PTR         r     1 BUF$
     6-0-0/w SBIN        r     1 BUFX                       7-0-0/w PTR         r     1 KEY$
    10-0-0/b BIT         r     1 KEYS                      11-0-0/w SBIN        r     1 LEN
    *0-0-0/w STRC(720)   r     1 SOCK                      12-0-0/w SBIN        r     1 TMPX

  ****  SYMREF variables  ****

  ****  Scalars and arrays  ****
OctLoc.c.b A Datatyp(siz) R M Lvl/name                 OctLoc.c.b A Datatyp(siz) R M Lvl/name

     0-0-0/w PTR         r     1 B$TCB$                     0-0-0/w SBIN        r     1 XSL_BUFSIZE
     0-0-0/w STRC(72)    r     1 XSL_RECVFROMRQS            0-0-0/w STRC(54)    r     1 XSL_RECVRQS
     0-0-0/w PTR         r     1 XSL_SOCK$$

  ****  BASED and DCB variables  ****

  ****  Scalars and arrays  ****
OctLoc.c.b A Datatyp(siz) R M Lvl/name                 OctLoc.c.b A Datatyp(siz) R M Lvl/name

     0-0-0/w STRC(2448)  r     1 B$ALT                      0-0-0/c ACHR        r     1 B$CHARS
     0-0-0/w PTR         r     1 B$PTR                      0-0-0/w STRC(144)   r     1 B$TCB
     0-0-0/w STRC(360)   r     1 DATABUF                    0-0-0/d ASTR(3528)  r     1 F$DCB
PL6.E3A0      #014=XSL$BUFMGMT File=XSL$SOCKET1.:TCA2TSI                         SUN 11/16/97 14:38 Page:455
     0-0-0/w STRC(72)    r     1 XSL$RECVFROMRQS            0-0-0/w STRC(54)    r     1 XSL$RECVRQS
     0-0-0/w STRC(180)   r     1 XSL$SOCKHD


   Procedure XSL$BUFMGMT requires 275 words for executable code.
   Procedure XSL$BUFMGMT requires 16 words of local(AUTO) storage.

    No errors detected in file XSL$SOCKET1.:TCA2TSI    .
PL6.E3A0      #014=XSL$BUFMGMT File=XSL$SOCKET1.:TCA2TSI                         SUN 11/16/97 14:38 Page:456
          *** CROSS REFERENCE LISTING ***
**     DENOTES     IDENTIFIER DEFINITION
<<                 IDENTIFIER'S VALUE SET
>>                 IDENTIFIER'S VALUE USED
<>                 IDENTIFIER SET AND/OR USED
--                 IDENTIFIER REFERENCED
PL6.E3A0      #014=XSL$BUFMGMT File=XSL$SOCKET1.:TCA2TSI                         SUN 11/16/97 14:38 Page:457
          MINI XREF LISTING

B$ALT.CODE
       147**DCL       147--REDEF     148--REDEF     148--REDEF
B$ALT.ERR
       148**DCL      3099<>CALL
B$ALT.ERR.ERR#
       149**DCL       149--REDEF
B$ALT.EVID
       148**DCL       148--REDEF     148--REDEF
B$CHARS
      3008**DCL      3062<<ASSIGN   3062>>ASSIGN   3080--ASSIGN
B$PTR
      3009**DCL      3057<<ASSIGN   3084<<ASSIGN
B$TCB.ALT$
       154**DCL      3099>>CALL
B$TCB$
      3003**DCL      3099>>CALL
BUF
      1482**DCL         6--PROC     3017--ENTRY    3020--ASSIGN   3062--ASSIGN   3105--ENTRY    3117--IF
BUF$
      3010**DCL      1515--IMP-PTR  3020<<ASSIGN   3021>>ASSIGN   3027>>ASSIGN   3037>>ASSIGN   3049>>ASSIGN
      3050>>ASSIGN   3057>>ASSIGN   3058>>ASSIGN   3080>>ASSIGN   3082>>ASSIGN   3084>>ASSIGN   3086<>CALL
      3090>>ASSIGN   3097<>CALL     3098>>IF       3100>>ASSIGN   3108<<ASSIGN   3113<<ASSIGN   3114>>ASSIGN
BUFX
      3011**DCL      3021<<ASSIGN   3022>>CALL     3024>>IF       3025>>IF       3036>>IF       3038>>IF
      3053>>ASSIGN   3054>>ASSIGN   3056>>ASSIGN   3091>>ASSIGN   3111<<ASSIGN   3112>>CALL     3113>>ASSIGN
COMMON
      3049**LABEL    3121--GOTO
DATABUF
      1515**DCL      3049<<ASSIGN   3080--ASSIGN   3080--ASSIGN
DATABUF.FLAGS.BUSY
      1525**DCL      3050<<ASSIGN   3100<<ASSIGN
DATABUF.KEY
PL6.E3A0      #014=XSL$BUFMGMT File=XSL$SOCKET1.:TCA2TSI                         SUN 11/16/97 14:38 Page:458
      1529**DCL      3058--ASSIGN   3082--ASSIGN
DATABUF.NXT
      1528**DCL      3027>>ASSIGN   3036>>IF       3037<<ASSIGN   3037>>ASSIGN   3043>>ASSIGN   3053<<ASSIGN
      3090<<ASSIGN   3114>>ASSIGN
F$DCB.ACTPOS
       121**DCL       121--REDEF
F$DCB.ARS#
        95**DCL        95--REDEF
F$DCB.ATTR
       114**DCL       115--REDEF
F$DCB.BORROW
       129**DCL       129--REDEF     129--REDEF     129--REDEF
F$DCB.DCBNAME.L
       143**DCL       143--IMP-SIZ
F$DCB.EOMCHAR#
        99**DCL        99--REDEF
F$DCB.FCN.CNT
       134**DCL      3045>>IF
F$DCB.FLDID
       124**DCL       124--REDEF
F$DCB.FORM$
       118**DCL       118--REDEF
F$DCB.FSECT
       134**DCL       134--REDEF
F$DCB.FSN#
       111**DCL       111--REDEF     111--REDEF     112--REDEF
F$DCB.HEADER$
       117**DCL       117--REDEF
F$DCB.IXTNSIZE#
       115**DCL       115--REDEF
F$DCB.LASTSTA$
       104**DCL       104--REDEF
F$DCB.LVL
       130**DCL       130--REDEF
F$DCB.NAME#.C
       105**DCL       105--REDEF
PL6.E3A0      #014=XSL$BUFMGMT File=XSL$SOCKET1.:TCA2TSI                         SUN 11/16/97 14:38 Page:459
F$DCB.NOEOF
       127**DCL       127--REDEF
F$DCB.NRECS#
       116**DCL       116--REDEF
F$DCB.NRECX
       135**DCL       135--REDEF
F$DCB.OHDR
       127**DCL       127--REDEF
F$DCB.ORG#
       110**DCL       110--REDEF
F$DCB.PRECNO
       133**DCL       133--REDEF
F$DCB.RCSZ
       139**DCL       139--REDEF
F$DCB.RES#
       106**DCL       106--REDEF
F$DCB.SETX
       118**DCL       118--REDEF
F$DCB.TAB$
       118**DCL       118--REDEF
F$DCB.TDA
       132**DCL       133--REDEF
F$DCB.WSN#
       106**DCL       106--REDEF
FPT_READ
       173**DCL      3087<>CALL
FPT_READ.BUF_
       175**DCL      3080<<ASSIGN
FPT_READ.KEY_
       173**DCL      3082<<ASSIGN
FPT_READ.STATION_
       176**DCL       177--REDEF
FPT_READ.V
       177**DCL       173--DCLINIT
FPT_READ.V.DCB#
       177**DCL      3083<<ASSIGN
PL6.E3A0      #014=XSL$BUFMGMT File=XSL$SOCKET1.:TCA2TSI                         SUN 11/16/97 14:38 Page:460
FPT_READ.V.DVBYTE.REREAD#
       188**DCL       188--REDEF
FPT_READ.V.EVENT#
       186**DCL      3084--ASSIGN
FPT_READ.V.INDX#
       186**DCL       186--REDEF
KEY$
      3012**DCL      2934--IMP-PTR  2989--IMP-PTR  3058<<ASSIGN   3062>>ASSIGN   3069>>ASSIGN   3070>>ASSIGN
      3071>>ASSIGN   3073>>ASSIGN   3076>>ASSIGN   3077>>ASSIGN
KEYS
      3013**DCL      3047<<ASSIGN   3059>>IF       3118<<ASSIGN   3120<<ASSIGN
LEN
      3014**DCL      3008--IMP-SIZ  3061<<ASSIGN   3062>>ASSIGN   3062>>ASSIGN   3063<<ASSIGN   3067<<ASSIGN
      3077>>ASSIGN   3077>>ASSIGN   3080>>ASSIGN
M$READ
        17**DCL-ENT  3087--CALL
OOPS
      3097**LABEL    3087--CALLALT  3110--GOTO
SOCK
      1549**DCL         6--PROC     3017--ENTRY    3057--ASSIGN   3105--ENTRY
SOCK.BUFHD
      1663**DCL      3023>>ASSIGN   3027<<ASSIGN   3032<<ASSIGN   3055>>IF       3056<<ASSIGN
SOCK.BUFPND#
      1666**DCL      3045>>IF
SOCK.BUFTL
      1664**DCL      3025>>IF       3026<<ASSIGN   3030>>IF       3031<<ASSIGN   3038>>IF       3039<<ASSIGN
      3052>>IF       3053>>ASSIGN   3054<<ASSIGN
SOCK.DCB#
      1582**DCL      3045--IF       3083>>ASSIGN
SOCK.FLAGS.DRIP
      1578**DCL      3072>>IF
SOCK.FLAGS.MUSTREAD
      1577**DCL      3085<<ASSIGN
SOCK.FLAGS.REUSEBUF
      1575**DCL      3045>>IF
SOCK.MAXBUF
PL6.E3A0      #014=XSL$BUFMGMT File=XSL$SOCKET1.:TCA2TSI                         SUN 11/16/97 14:38 Page:461
      1667**DCL      3045>>IF
SOCK.MAXRDS
      1668**DCL      3045>>IF
SOCK.NBACCEPT_SOCK$
      1671**DCL      1672--REDEF
SOCK.TYPE
      1556**DCL      3068>>IF
TMPX
      3015**DCL      3023<<ASSIGN   3024>>IF       3030>>IF       3035>>DOWHILE  3036>>IF       3037>>ASSIGN
      3039>>ASSIGN   3040<<ASSIGN   3043<<ASSIGN   3043>>ASSIGN
XSL$EVLOG
      3001**DCL-ENT  3022--CALL     3086--CALL     3097--CALL     3099--CALL     3112--CALL
XSL$RECVFROMRQS
      2989**DCL      3069<<ASSIGN   3071--ASSIGN
XSL$RECVFROMRQS.FLAGS
      2996**DCL      3073<<ASSIGN
XSL$RECVFROMRQS.FROMLEN
      2998**DCL      3071<<ASSIGN
XSL$RECVFROMRQS.LEN
      2997**DCL      3070<<ASSIGN
XSL$RECVRQS
      2934**DCL      3076<<ASSIGN
XSL$RECVRQS.LEN
      2942**DCL      3077<<ASSIGN
XSL$SOCKHD.BUFHD
      1699**DCL      3090>>ASSIGN   3091<<ASSIGN   3093>>ASSIGN   3109>>IF       3111>>ASSIGN   3114<<ASSIGN
      3115>>IF
XSL$SOCKHD.BUFTL
      1700**DCL      3092>>IF       3093<<ASSIGN   3116<<ASSIGN
XSL_BUFSIZE
      3005**DCL      3063>>ASSIGN   3067>>ASSIGN
XSL_RECVFROMRQS
      2961**DCL      3069>>ASSIGN
XSL_RECVRQS
      2907**DCL      3076>>ASSIGN
XSL_SOCK$$
PL6.E3A0      #014=XSL$BUFMGMT File=XSL$SOCKET1.:TCA2TSI                         SUN 11/16/97 14:38 Page:462
      3006**DCL      1692--IMP-PTR  3021>>ASSIGN   3036>>IF       3037>>ASSIGN   3043>>ASSIGN   3053>>ASSIGN
      3090>>ASSIGN   3091>>ASSIGN   3092>>IF       3093>>ASSIGN   3093>>ASSIGN   3109>>IF       3111>>ASSIGN
      3113>>ASSIGN   3114>>ASSIGN   3115>>IF       3116>>ASSIGN
PL6.E3A0      #014=XSL$BUFMGMT File=XSL$SOCKET1.:TCA2TSI                         SUN 11/16/97 14:38 Page:463
              *** CROSS REFERENCE LISTING ***
    **     DENOTES     IDENTIFIER DEFINITION
    <<                 IDENTIFIER'S VALUE SET
    >>                 IDENTIFIER'S VALUE USED
    <>                 IDENTIFIER SET AND/OR USED
    --                 IDENTIFIER REFERENCED
PL6.E3A0      #014=XSL$BUFMGMT File=XSL$SOCKET1.:TCA2TSI                         SUN 11/16/97 14:38 Page:464
              MINI UREF LISTING

M$ACCT      33**DCL-ENT
M$ACTIVATE      36**DCL-ENT
M$ALIB      29**DCL-ENT
M$ASUSER      31**DCL-ENT
M$ATTACH      38**DCL-ENT
M$BADPP      56**DCL-ENT
M$CGCTL      37**DCL-ENT
M$CGINFO      37**DCL-ENT
M$CHECK      18**DCL-ENT
M$CHGUNIT      76**DCL-ENT
M$CLOSE      16**DCL-ENT
M$CLRSTK      74**DCL-ENT
M$CMDVAR      85**DCL-ENT
M$CONFIG      46**DCL-ENT
M$CORRES      21**DCL-ENT
M$CPEXIT      30**DCL-ENT
M$CVM      54**DCL-ENT
M$CVOL      19**DCL-ENT
M$DCLFLD      46**DCL-ENT
M$DEACTIVATE      36**DCL-ENT
M$DELREC      18**DCL-ENT
M$DEQ      83**DCL-ENT
M$DETACH      38**DCL-ENT
M$DEVICE      20**DCL-ENT
M$DISPLAY      83**DCL-ENT
M$DISPRES      23**DCL-ENT
M$DLIB      29**DCL-ENT
M$DRIBBLE      46**DCL-ENT
M$DRTN      74**DCL-ENT
M$DSUSER      31**DCL-ENT
M$ENQ      82**DCL-ENT
M$EOM      41**DCL-ENT
PL6.E3A0      #014=XSL$BUFMGMT File=XSL$SOCKET1.:TCA2TSI                         SUN 11/16/97 14:38 Page:465
M$ERASE      47**DCL-ENT
M$ERR      28**DCL-ENT
M$ERRMSG      79**DCL-ENT
M$EVENT      71**DCL-ENT
M$EXHUME      80**DCL-ENT
M$EXIT      28**DCL-ENT
M$EXTEND      20**DCL-ENT
M$FDP      52**DCL-ENT
M$FDS      51**DCL-ENT
M$FEBOOT      44**DCL-ENT
M$FECTL      45**DCL-ENT
M$FEDUMP      44**DCL-ENT
M$FID      79**DCL-ENT
M$FINDPROC      33**DCL-ENT
M$FSUSER      31**DCL-ENT
M$FVP      53**DCL-ENT
M$FWCG      37**DCL-ENT
M$GBPL      57**DCL-ENT
M$GDDL      53**DCL-ENT
M$GDP      52**DCL-ENT
M$GDS      51**DCL-ENT
M$GETDCB      22**DCL-ENT
M$GETMOUSE      62**DCL-ENT
M$GETPM      63**DCL-ENT
M$GJOB      81**DCL-ENT
M$GLINEATTR      41**DCL-ENT
M$GOODPP      56**DCL-ENT
M$GPLATEN      49**DCL-ENT
M$GPROMPT      48**DCL-ENT
M$GTRMATTR      42**DCL-ENT
M$GTRMCTL      40**DCL-ENT
M$GTRMTAB      43**DCL-ENT
M$GVP      52**DCL-ENT
M$HELP      79**DCL-ENT
M$INT      71**DCL-ENT
M$INTRTN      32**DCL-ENT
PL6.E3A0      #014=XSL$BUFMGMT File=XSL$SOCKET1.:TCA2TSI                         SUN 11/16/97 14:38 Page:466
M$IOQ      67**DCL-ENT
M$JOBSTATS      81**DCL-ENT
M$KEYIN      21**DCL-ENT
M$LDEV      16**DCL-ENT
M$LDTRC      29**DCL-ENT
M$LIMIT      22**DCL-ENT
M$LINES      21**DCL-ENT
M$LINK      28**DCL-ENT
M$MADMUCK      24**DCL-ENT
M$MAKUSER      55**DCL-ENT
M$MBS      23**DCL-ENT
M$MDFFLD      47**DCL-ENT
M$MERC      72**DCL-ENT
M$MERCS      73**DCL-ENT
M$MIRROR      67**DCL-ENT
M$MONINFO      84**DCL-ENT
M$MPL      57**DCL-ENT
M$NODEINFO      48**DCL-ENT
M$NXTUSR      82**DCL-ENT
M$OCMSG      80**DCL-ENT
M$OLAY      28**DCL-ENT
M$OPEN      16**DCL-ENT
M$PAS      57**DCL-ENT
M$PATHCON      80**DCL-ENT
M$PDS      51**DCL-ENT
M$PFIL      18**DCL-ENT
M$PLATEN      42**DCL-ENT
M$PRECORD      20**DCL-ENT
M$PROCNAME      33**DCL-ENT
M$PROFILE      44**DCL-ENT
M$PROMPT      40**DCL-ENT
M$RACST      24**DCL-ENT
M$RDSYSLOG      65**DCL-ENT
M$RELDCB      22**DCL-ENT
M$RELRES      23**DCL-ENT
M$RELSTARF      25**DCL-ENT
PL6.E3A0      #014=XSL$BUFMGMT File=XSL$SOCKET1.:TCA2TSI                         SUN 11/16/97 14:38 Page:467
M$REM      25**DCL-ENT
M$RENV      72**DCL-ENT
M$REQUIRE      24**DCL-ENT
M$RETRY      73**DCL-ENT
M$RETRYS      73**DCL-ENT
M$REW      19**DCL-ENT
M$RLSFLD      47**DCL-ENT
M$RPRIV      75**DCL-ENT
M$RSPP      54**DCL-ENT
M$RSWITCH      76**DCL-ENT
M$RUE      82**DCL-ENT
M$SAD      55**DCL-ENT
M$SAVE      31**DCL-ENT
M$SCON      32**DCL-ENT
M$SCREECH      30**DCL-ENT
M$SENV      72**DCL-ENT
M$SETFMA      16**DCL-ENT
M$SETFP      45**DCL-ENT
M$SINPUT      43**DCL-ENT
M$SLCFLD      48**DCL-ENT
M$SMOUSE      62**DCL-ENT
M$SMPRT      54**DCL-ENT
M$SPRIV      75**DCL-ENT
M$SSC      55**DCL-ENT
M$SSWITCH      75**DCL-ENT
M$STATE      84**DCL-ENT
M$STD      56**DCL-ENT
M$STIMER      70**DCL-ENT
M$STLPP      53**DCL-ENT
M$STRAP      70**DCL-ENT
M$STRMATTR      42**DCL-ENT
M$STRMCTL      40**DCL-ENT
M$STRMTAB      43**DCL-ENT
M$SYMBIO      81**DCL-ENT
M$SYSCON      67**DCL-ENT
M$SYSID      85**DCL-ENT
PL6.E3A0      #014=XSL$BUFMGMT File=XSL$SOCKET1.:TCA2TSI                         SUN 11/16/97 14:38 Page:468
M$TDCLOSE      66**DCL-ENT
M$TDIO      66**DCL-ENT
M$TDOPEN      65**DCL-ENT
M$TDREQCPU      66**DCL-ENT
M$TEMPWROC      60**DCL-ENT
M$TIME      83**DCL-ENT
M$TRAP      70**DCL-ENT
M$TRMISC      45**DCL-ENT
M$TRMPRG      41**DCL-ENT
M$TRTN      74**DCL-ENT
M$TRUNC      17**DCL-ENT
M$TTIMER      70**DCL-ENT
M$UC      40**DCL
M$UMPL      57**DCL-ENT
M$UNFID      79**DCL-ENT
M$UNLATCH      36**DCL-ENT
M$UNSHARE      33**DCL-ENT
M$USRFIELD      76**DCL-ENT
M$VIRTUAL      51**DCL-ENT
M$WAIT      74**DCL-ENT
M$WEOF      19**DCL-ENT
M$WRITE      17**DCL-ENT
M$WRSYSLOG      65**DCL-ENT
M$XCON      71**DCL-ENT
M$XCONRTN      32**DCL-ENT
M$XEQTIME      84**DCL-ENT
M$XFLUSH      25**DCL-ENT
M$XMOUSE      62**DCL-ENT
M$XXX      28**DCL-ENT
M$YC      30**DCL-ENT
XSL$BUFMGMT       6**PROC
XSL$GETBUF    3105**ENTRY
XSL$MSGSDEFS    2888**DCL-ENT
XSL$RELBUF    3017**ENTRY
