VERSION A02

PL6.E3A0      #001=XSL$SENDTO File=XSL$SOCKET2.:TCA2TSI                          SUN 11/16/97 14:30 Page:1
        1        1        /*M*    XSL$SOCKET2             BSD4.3 Socket Library for CP-6, part 2  */
        2        2        /*T***********************************************************/
        3        3        /*T*                                                         */
        4        4        /*T* Copyright (c) Bull HN Information Systems Inc., 1997    */
        5        5        /*T*                                                         */
        6        6        /*T***********************************************************/
        7        7        /*X* DMC,PLM=4,IND=4,DCI=8,DTI=0,ENI=4,ECI=4,CSI=4,DIN=4,SDI=0 */
        8        8
        9        9        /*F* NAME: sendto() and XSL$SENDTO  --  Write Data With Options And Address
       10       10        ..::IT "Purpose:"
       11       11        .INL +4
       12       12        Sends a message from an application-specified buffer to a socket.  This
       13       13        function is typically used when the destination socket changes from
       14       14        invocation to invocation.
       15       15        ..::IT "C Usage:"
       16       16        .INL 4
       17       17        .FIF
       18       18        status = sendto( s, msg, len, flags, to, tolen );
       19       19        ..::IT "PL6 Usage:"
       20       20        .INL 4
       21       21        .FIF
       22       22        CALL XSL$SENDTO( status, s, msg, len, flags, to, tolen );
       23       23        ..::IT "Parameters:"
       24       24        .INL 4
       25       25        .FIF
       26       26        s           integer socket descriptor
       27       27
       28       28        msg         character array containing message to be sent
       29       29
       30       30        len         integer number of significant characters in msg
       31       31
       32       32        flags       integer bitflags of sendto options
       33       33
       34       34        to          sockaddr structure
       35       35
       36       36        tolen       integer size of to in characters
       37       37        ..::IT "Result:"
PL6.E3A0      #001=XSL$SENDTO File=XSL$SOCKET2.:TCA2TSI                          SUN 11/16/97 14:30 Page:2
       38       38        .INL 4
       39       39        .FIF
       40       40        status      integer number of characters sent or error code
       41       41        ..::IT "Description:"
       42       42        The sendto() function sends a message from an application-defined buffer
       43       43        to a socket.  On datagram sockets the message is sent atomically; if
       44       44        this is not possible then the error EMSGSIZE is reported.
       45       45        .SPB
       46       46        The s parameter specifies the descriptor of the socket to be written to.
       47       47        .SPB
       48       48        The msg parameter specifies an application-defined buffer containing the
       49       49        message to be sent to the socket.
       50       50        .SPB
       51       51        The len parameter specifies the number of characters to be sent.
       52       52        .SPB
       53       53        The flags parameter specifies sendto options.  The only option currently
       54       54        implemented is "out-of-band", which causes the message to be sent on the
       55       55        out-of-band data path if the socket supports it.  This is selected by coding
       56       56        SOF_OOB or %XSL_SOF_OOB in C or PL6 source, respectively.
       57       57        .SPB
       58       58        The to parameter specifies the address of the remote socket to receive
       59       59        the message.  In C source, it is a sockaddr structure.  In PL6 source, it is
       60       60        an XSL$SOCKADDR structure.
       61       61        .SPB
       62       62        The tolen parameter specifies the number of significant characters in to.
       63       63        .SPB
       64       64        If the sendto() function is successful, the status result contains the
       65       65        number of characters sent to the socket.  This number is non-negative.
       66       66        A successful result does not guarantee that the message was delivered,
       67       67        but only that it was sent to the FEP for network transmission.  The
       68       68        status value may be less than the len value if the socket is
       69       69        nonblocking and no more data could be immediately sent.
       70       70        .SPB
       71       71        If the sendto() function is unsuccessful, the status result contains
       72       72        EFAILURE or E$FAILURE and the application must inspect errno or XSL_ERRNO
       73       73        to determine the specific error condition.  The XSL$SENDTO procedure
       74       74        additionally ALTRETURNs if it is unsuccessful; it is otherwise identical
PL6.E3A0      #001=XSL$SENDTO File=XSL$SOCKET2.:TCA2TSI                          SUN 11/16/97 14:30 Page:3
       75       75        to the sendto() function.
       76       76        .SPB
       77       77        Sendto() may be used on sockets regardless of whether connect() has been
       78       78        issued.
       79       79        .SPB
       80       80        If shutdown() has been invoked for this socket to inhibit transmission
       81       81        of data, all sendto() operations report the error ESHUTDOWN.
       82       82        ..::IT "Errors:"
       83       83        Following are the possible error conditions reported when the sendto()
       84       84        function is unsuccessful.  Equates for the possible values can be found in
       85       85        <xsl_errno.h> or XSL_PERR_C for C and PL6 source, respectively.
       86       86
       87       87        .FIF
       88       88
       89       89        C #define               PL6 %EQU
       90       90        ----------------------- -----------------------
       91       91        EBADF                   E$BADF
       92       92        .FIN
       93       93        The descriptor s is not appropriate to identify a socket.
       94       94        .FIF
       95       95
       96       96        EMSGSIZE                E$MSGSIZE
       97       97        .FIN
       98       98        The message is too long to send atomically.
       99       99        .FIF
      100      100
      101      101        ENOTSOCK                E$NOTSOCK
      102      102        .FIN
      103      103        The descriptor s is no longer valid to identify a socket.
      104      104        .FIF
      105      105
      106      106        ESHUTDOWN               E$SHUTDOWN
      107      107        .FIN
      108      108        Can't send after socket shutdown.
      109      109        .FIF
      110      110
      111      111        EWOULDBLOCK             E$WOULDBLOCK
PL6.E3A0      #001=XSL$SENDTO File=XSL$SOCKET2.:TCA2TSI                          SUN 11/16/97 14:30 Page:4
      112      112        .FIN
      113      113        The message cannot be immediately sent.
      114      114        .FIF
      115      115        */
      116      116        /*F* NAME: send() and XSL$SEND  --  Write Data With Options
      117      117        ..::IT "Purpose:"
      118      118        .INL +4
      119      119        Sends a message from an application-specified buffer to a connected socket.
      120      120        ..::IT "C Usage:"
      121      121        .INL 4
      122      122        .FIF
      123      123        status = send( s, msg, len, flags );
      124      124        ..::IT "PL6 Usage:"
      125      125        .INL 4
      126      126        .FIF
      127      127        CALL XSL$SEND( status, s, msg, len, flags );
      128      128        ..::IT "Parameters:"
      129      129        .INL 4
      130      130        .FIF
      131      131        s           integer socket descriptor
      132      132
      133      133        msg         character array containing message to be sent
      134      134
      135      135        len         integer number of significant characters in msg
      136      136
      137      137        flags       integer bitflags of send options
      138      138        ..::IT "Result:"
      139      139        .INL 4
      140      140        .FIF
      141      141        status      integer number of characters sent or error code
      142      142        ..::IT "Description:"
      143      143        The send() function sends a message from an application-defined buffer
      144      144        to a socket.  On datagram sockets the message is sent atomically; if
      145      145        this is not possible then the error EMSGSIZE is reported.
      146      146        .SPB
      147      147        The s parameter specifies the descriptor of the socket to be written to.
      148      148        .SPB
PL6.E3A0      #001=XSL$SENDTO File=XSL$SOCKET2.:TCA2TSI                          SUN 11/16/97 14:30 Page:5
      149      149        The msg parameter specifies an application-defined buffer containing the
      150      150        message to be sent to the socket.
      151      151        .SPB
      152      152        The len parameter specifies the number of characters to be sent.
      153      153        .SPB
      154      154        The flags parameter specifies send options.  The only option currently
      155      155        implemented is "out-of-band", which causes the message to be sent on the
      156      156        out-of-band data path if the socket supports it.  This is selected by coding
      157      157        SOF_OOB or %XSL_SOF_OOB in C or PL6 source, respectively.
      158      158        .SPB
      159      159        If the send() function is successful, the status result contains the
      160      160        number of characters sent to the socket.  This number is non-negative.
      161      161        A successful result does not guarantee that the message was delivered,
      162      162        but only that it was sent to the FEP for network transmission.  The
      163      163        status value may be less than the len value if the socket is
      164      164        nonblocking and no more data could be immediately sent.
      165      165        .SPB
      166      166        If the send() function is unsuccessful, the status result contains
      167      167        EFAILURE or E$FAILURE and the application must inspect errno or XSL_ERRNO
      168      168        to determine the specific error condition.  The XSL$SEND procedure
      169      169        additionally ALTRETURNs if it is unsuccessful; it is otherwise identical
      170      170        to the send() function.
      171      171        .SPB
      172      172        Send() may be used only on sockets that have had connect() invoked.
      173      173        .SPB
      174      174        If shutdown() has been invoked for this socket to inhibit transmission
      175      175        of data, all send() operations report the error ESHUTDOWN.
      176      176        ..::IT "Errors:"
      177      177        Following are the possible error conditions reported when the send()
      178      178        function is unsuccessful.  Equates for the possible values can be found in
      179      179        <xsl_errno.h> or XSL_PERR_C for C and PL6 source, respectively.
      180      180
      181      181        .FIF
      182      182
      183      183        C #define               PL6 %EQU
      184      184        ----------------------- -----------------------
      185      185        EBADF                   E$BADF
PL6.E3A0      #001=XSL$SENDTO File=XSL$SOCKET2.:TCA2TSI                          SUN 11/16/97 14:30 Page:6
      186      186        .FIN
      187      187        The descriptor s is not appropriate to identify a socket.
      188      188        .FIF
      189      189
      190      190        EMSGSIZE                E$MSGSIZE
      191      191        .FIN
      192      192        The specified message is too long to send atomically.
      193      193        .FIF
      194      194
      195      195        ENOTBOUND               E$NOTBOUND
      196      196        .FIN
      197      197        The socket is not bound to a FEP.
      198      198        .FIF
      199      199
      200      200        ENOTCONN                E$NOTCONN
      201      201        .FIN
      202      202        The connect() function has not been invoked for this socket.
      203      203        .FIF
      204      204
      205      205        ENOTSOCK                E$NOTSOCK
      206      206        .FIN
      207      207        The descriptor s is no longer valid to identify a socket.
      208      208        .FIF
      209      209
      210      210        ESHUTDOWN               E$SHUTDOWN
      211      211        .FIN
      212      212        Can't send after socket shutdown.
      213      213        .FIF
      214      214
      215      215        EWOULDBLOCK             E$WOULDBLOCK
      216      216        .FIN
      217      217        The message cannot be immediately sent.
      218      218        .FIF
      219      219        */
      220      220        /*F* NAME: write() and XSL$WRITE  --  Write Data
      221      221        ..::IT "Purpose:"
      222      222        .INL +4
PL6.E3A0      #001=XSL$SENDTO File=XSL$SOCKET2.:TCA2TSI                          SUN 11/16/97 14:30 Page:7
      223      223        Writes data from an application-specified buffer to a socket.
      224      224        ..::IT "C Usage:"
      225      225        .INL 4
      226      226        .FIF
      227      227        status = write( s, buf, len );
      228      228        ..::IT "PL6 Usage:"
      229      229        .INL 4
      230      230        .FIF
      231      231        CALL XSL$WRITE( status, s, buf, len );
      232      232        ..::IT "Parameters:"
      233      233        .INL 4
      234      234        .FIF
      235      235        s           integer socket descriptor
      236      236
      237      237        buf         character array buffer
      238      238
      239      239        len         integer number of significant characters in buf
      240      240        ..::IT "Result:"
      241      241        .INL 4
      242      242        .FIF
      243      243        status      integer number of characters written or error code
      244      244        ..::IT "Description:"
      245      245        The write() function writes data from the specified buffer to the socket.
      246      246        On datagram sockets the data is written atomically; if this is not
      247      247        possible then the error EMSGSIZE is reported.
      248      248        .SPB
      249      249        The s parameter specifies the descriptor of the socket to be written to.
      250      250        .SPB
      251      251        The buf parameter specifies an application-defined buffer containing the
      252      252        data to be written to the socket.
      253      253        .SPB
      254      254        The len parameter specifies the number of characters to be written.
      255      255        .SPB
      256      256        If the write() function is successful, the status result contains the
      257      257        number of characters written to the socket.  This number is non-negative.
      258      258        A successful result does not guarantee that the data was delivered,
      259      259        but only that it was sent to the FEP for network transmission.  The
PL6.E3A0      #001=XSL$SENDTO File=XSL$SOCKET2.:TCA2TSI                          SUN 11/16/97 14:30 Page:8
      260      260        status value may be less than the len value if the socket is
      261      261        nonblocking and no more data could be immediately sent.
      262      262        .SPB
      263      263        If the write() function is unsuccessful, the status result contains
      264      264        EFAILURE or E$FAILURE and the application must inspect errno or XSL_ERRNO
      265      265        to determine the specific error condition.  The XSL$WRITE procedure
      266      266        additionally ALTRETURNs if it is unsuccessful; it is otherwise identical
      267      267        to the write() function.
      268      268        .SPB
      269      269        Write() may be used only on sockets that have had connect() invoked.
      270      270        .SPB
      271      271        If shutdown() has been invoked for this socket to inhibit transmission
      272      272        of data, all write() operations report the error ESHUTDOWN.
      273      273        ..::IT "Errors:"
      274      274        Following are the possible error conditions reported when the write()
      275      275        function is unsuccessful.  Equates for the possible values can be
      276      276        found in <xsl_errno.h> or XSL_PERR_C for C or PL6 source, respectively.
      277      277
      278      278        .FIF
      279      279
      280      280        C #define               PL6 %EQU
      281      281        ----------------------- -----------------------
      282      282        EBADF                   E$BADF
      283      283        .FIN
      284      284        The descriptor s is not appropriate to identify a socket.
      285      285        .FIF
      286      286
      287      287        EMSGSIZE                E$MSGSIZE
      288      288        .FIN
      289      289        The specified buffer is too long to send atomically.
      290      290        .FIF
      291      291
      292      292        ENOTBOUND               E$NOTBOUND
      293      293        .FIN
      294      294        The socket is not bound to a FEP.
      295      295        .FIF
      296      296
PL6.E3A0      #001=XSL$SENDTO File=XSL$SOCKET2.:TCA2TSI                          SUN 11/16/97 14:30 Page:9
      297      297        ENOTCONN                E$NOTCONN
      298      298        .FIN
      299      299        The socket is not currently connected.  connect() has not been invoked.
      300      300        .FIF
      301      301
      302      302        ENOTSOCK                E$NOTSOCK
      303      303        .FIN
      304      304        The descriptor s is no longer valid to identify a socket.
      305      305        .FIF
      306      306
      307      307        ESHUTDOWN               E$SHUTDOWN
      308      308        .FIN
      309      309        Can't send after socket shutdown.
      310      310        .FIF
      311      311
      312      312        EWOULDBLOCK             E$WOULDBLOCK
      313      313        .FIN
      314      314        The data cannot be immediately sent.
      315      315        .FIF
      316      316        */
      317      317        XSL$SENDTO: PROC( RESULT, SOCK#, MSG, LEN, FLAGS, DST, DSTLEN) ALTRET;
      318      318        %INCLUDE B_ERRORS_C;
      319     1445        %INCLUDE CP_6;
      320     1526            %B$ALT;
      321     1534            %B$TCB( STCLASS="BASED( B$TCB$)");
      322     1537            %FPT_WAIT( FPTN=XSL_WAIT1DAY, STCLASS=SYMREF);
      323     1551            %FPT_WAIT( FPTN=XSL_WAIT1SEC, STCLASS=SYMREF);
      324     1565            %F$DCB;
      325     1622        %INCLUDE XSL_SOCKET_E;
      326     1880        %INCLUDE XSL_SOCKET_M;
      327     2641            %XSL$SOCKADDR( FPTN=DST, STCLASS=);
      328     2681        %INCLUDE XSL_PERR_C;
      329     2736        %INCLUDE XSL_INTERNAL_M;
      330     2987            %XSL$SOCKINFO( FPTN=SOCK, STCLASS="BASED( SOCK$)");
      331     3131        %INCLUDE XSL_SOCKMSGS_E;
      332     3177        %INCLUDE XSL_SOCKMSGS_M;
      333     4310            %XSL$SENDRQS( FPTN=XSL_SENDRQS, STCLASS="CONSTANT SYMDEF");
PL6.E3A0      #001=XSL$SENDTO File=XSL$SOCKET2.:TCA2TSI                          SUN 11/16/97 14:30 Page:10
      334     4336            %XSL$SENDRQS( STCLASS="BASED( XSL_KEYBUF$)");
      335     4362            %XSL$SENDTORQS( FPTN=XSL_SENDTORQS, STCLASS="CONSTANT SYMDEF");
      336     4415            %XSL$SENDTORQS( STCLASS="BASED( XSL_KEYBUF$)");
      337     4468
      338     4469    1       DCL XSL$CL_READ ENTRY(3) ALTRET;
      339     4470    1       DCL XSL$CL_WRITE ENTRY(4) ALTRET;
      340     4471    1       DCL XSL$HTONADDR ENTRY(2);
      341     4472    1       DCL XSL$SOCKPTR ENTRY(2) ALTRET;
      342     4473    1       DCL XSL$DCBNPTR ENTRY(2) ALTRET;
      343     4474    1       DCL XSL$QSETSOCKOPT ENTRY(6) ALTRET;
      344     4475    1       DCL XSL$SOCKOPEN ENTRY(3) ALTRET;
      345     4476    1       DCL XSL$EVLOG ENTRY(2);
      346     4477    1       DCL XSL$GETBUF ENTRY(2) ALTRET;
      347     4478
      348     4479    1       DCL B$TCB$ PTR SYMREF READONLY;
      349     4480    1       DCL XSL_ERRNO SBIN SYMREF;
      350     4481    1       DCL XSL_SOCK$ REDEF XSL_ERRNO PTR;
      351     4482    1       DCL XSL_KEYBUF$ PTR SYMREF READONLY;
      352     4483    1       DCL XSL_SOCK$$ PTR SYMREF;
      353     4484    1       DCL XSL_UETIME SBIN SYMREF;
      354     4485
      355     4486    1       DCL DSTLEN SBIN;
      356     4487    1       DCL ENTRYFLAG SBIN;
      357     4488        %EQU SENDTO = 0;
      358     4489        %EQU SEND = 1;
      359     4490        %EQU WRITE = 2;
      360     4491    1       DCL FLAGS UBIN;
      361     4492    1       DCL LEN SBIN;
      362     4493    1       DCL MSG CHAR( LEN) CALIGNED;
      363     4494    1       DCL RESULT SBIN;
      364     4495    1       DCL SOCK# SBIN;
      365     4496    1       DCL SOCK$ PTR;
      366     4497    1       DCL XLEN SBIN;
      367     4498    1       DCL XMSG CHAR( XLEN) BASED( XPTR$);
      368     4499    1       DCL XPTR$ PTR CALIGNED;
      369     4500        %EQU VBUFSIZ = 9000;
      370     4501
PL6.E3A0      #001=XSL$SENDTO File=XSL$SOCKET2.:TCA2TSI                          SUN 11/16/97 14:30 Page:11
      371     4502    1       ENTRYFLAG = %SENDTO;
      372     4503    1       GOTO COMMONDCBN;
      373     4504
      374     4505    1   XSL$QSENDTO: ENTRY( RESULT, SOCK#, MSG, LEN, FLAGS, DST, DSTLEN) ALTRET;
      375     4506
      376     4507    1       ENTRYFLAG = %SENDTO;
      377     4508    1       GOTO COMMONSOCK;
      378     4509
      379     4510    1   XSL$SEND: ENTRY( RESULT, SOCK#, MSG, LEN, FLAGS) ALTRET;
      380     4511
      381     4512    1       ENTRYFLAG = %SEND;
      382     4513    1       GOTO COMMONDCBN;
      383     4514
      384     4515    1   XSL$QSEND: ENTRY( RESULT, SOCK#, MSG, LEN, FLAGS) ALTRET;
      385     4516
      386     4517    1       ENTRYFLAG = %SEND;
      387     4518    1   COMMONSOCK:
      388     4519    1       CALL XSL$SOCKPTR( SOCK#, XSL_SOCK$) ALTRET( BAILOUT);
      389     4520    1       GOTO LATER;
      390     4521
      391     4522    1   XSL$WRITE: ENTRY( RESULT, SOCK#, MSG, LEN) ALTRET;
      392     4523
      393     4524    1       ENTRYFLAG = %WRITE;
      394     4525    1       GOTO COMMONDCBN;
      395     4526
      396     4527    1   XSL$QWRITE: ENTRY( RESULT, SOCK#, MSG, LEN) ALTRET;
      397     4528
      398     4529    1       ENTRYFLAG = %WRITE;
      399     4530    1       GOTO COMMONSOCK;
      400     4531
      401     4532    1   COMMONDCBN:
      402     4533    1       CALL XSL$DCBNPTR( SOCK#, XSL_SOCK$) ALTRET( BAILOUT);
      403     4534    1   LATER:
      404     4535    1       SOCK$ = XSL_SOCK$;
      405     4536    1       IF SOCK.RCRBYTSIZ = 0 THEN
      406     4537    1           SOCK.RCRBYTSIZ = 4096;  /* for MAXRDS=0 sockets */
      407     4538    2       IF SOCK.FLAGS.SENDSHUT THEN DO;
PL6.E3A0      #001=XSL$SENDTO File=XSL$SOCKET2.:TCA2TSI                          SUN 11/16/97 14:30 Page:12
      408     4539    2           XSL_ERRNO = %E$SHUTDOWN;
      409     4540    2           GOTO BAILOUT;
      410     4541    2           END;
      411     4542    2       IF SOCK.TYPE = %XSL_SOCK_DGRAM THEN DO;
      412     4543    3           IF NOT SOCK.FLAGS.SOCKET THEN DO;
      413     4544    3               IF ENTRYFLAG = %SENDTO THEN
      414     4545    3                   CALL XSL$SOCKOPEN( SOCK, DST, DSTLEN) ALTRET( BAILOUT);
      415     4546    4               ELSE DO;
      416     4547    4                   XSL_ERRNO = %E$NOTBOUND;
      417     4548    4                   GOTO BAILOUT;
      418     4549    4                   END;
      419     4550    4               IF SOCK.FLAGS.REUSEADDR THEN DO;
      420     4551    4                   RESULT = SOCK.SOCK#;
      421     4552    4                   CALL XSL$QSETSOCKOPT( RESULT, RESULT, %XSL_SOL_SOCKET,
      422     4553    4                     %XSL_SO_REUSEADDR, 262144, 2);
      423     4554    4                   END;
      424     4555    3               END;
      425     4556    3           IF LEN > %VBUFSIZ THEN DO;
      426     4557    3               XSL_ERRNO = %E$MSGSIZE;
      427     4558    3               GOTO BAILOUT;
      428     4559    3               END;
      429     4560    2           END;
      430     4561    2       ELSE DO;
      431     4562    3           IF NOT SOCK.FLAGS.SOCKET THEN DO;
      432     4563    3               XSL_ERRNO = %E$NOTBOUND;
      433     4564    3               GOTO BAILOUT;
      434     4565    3               END;
      435     4566    3           IF SOCK.TYPE = %XSL_SOCK_STREAM AND NOT SOCK.FLAGS.CONNECT THEN DO;
      436     4567    3               XSL_ERRNO = %E$NOTCONN;
      437     4568    3               GOTO BAILOUT;
      438     4569    3               END;
      439     4570    2           END;
      440     4571            /* fire up some reads so SENDRSP/SENDTORSP will arrive */
      441     4572    2       DO WHILE( DCBADDR( SOCK.DCB#)->F$DCB.FCN.CNT(0) < SOCK.MAXRDS AND
      442     4573    2         SOCK.BUFPND# <= SOCK.MAXBUF);
      443     4574    2           CALL XSL$GETBUF( SOCK) ALTRET( WRITE_READY);
      444     4575    2           END;
PL6.E3A0      #001=XSL$SENDTO File=XSL$SOCKET2.:TCA2TSI                          SUN 11/16/97 14:30 Page:13
      445     4576    1   WRITE_READY:
      446     4577            /* o.k.... ready to send the data */
      447     4578    1       XLEN = LEN;
      448     4579    1       XPTR$ = ADDR( MSG);
      449     4580    1       RESULT = 0;
      450     4581    1   WRITE_LOOP:
      451     4582    1       SOCK.FLAGS.SELWRITE = '0'B;
      452     4583    2       IF SOCK.TYPE = %XSL_SOCK_DGRAM THEN DO;
      453     4584    2           XSL$SENDTORQS = XSL_SENDTORQS;
      454     4585    2           XSL$SENDTORQS.FLAGS = MOD( FLAGS, %XSL_MSG_MORE);
      455     4586    2           IF XLEN > SOCK.RCRBYTSIZ THEN
      456     4587    2               XSL$SENDTORQS.FLAGS = XSL$SENDTORQS.FLAGS + %XSL_MSG_MORE;
      457     4588    3           IF ENTRYFLAG = %SENDTO AND ADDR( DST) ~= ADDR( NIL) THEN DO;
      458     4589    3               XSL$SENDTORQS.NAMELEN = DSTLEN;
      459     4590    3               CALL XSL$HTONADDR( XSL$SENDTORQS.NAME, DST);
      460     4591    3               END;
      461     4592    3           ELSE DO;
      462     4593    3               XSL$SENDTORQS.NAMELEN = SIZEC( SOCK.PEERNAME);
      463     4594    3               XSL$SENDTORQS.NAME = SOCK.PEERNAME;
      464     4595    3               END;
      465     4596    2           CALL XSL$CL_WRITE( SOCK, LENGTHC( XSL$SENDTORQS), XLEN, XMSG)
      466     4597    2             ALTRET( ERRWRITE);
      467     4598    2           END;
      468     4599    2       ELSE DO;
      469     4600    2           XSL$SENDRQS = XSL_SENDRQS;
      470     4601    2           IF ENTRYFLAG = %SEND THEN
      471     4602    2               XSL$SENDRQS.FLAGS = MOD( FLAGS, %XSL_MSG_MORE);
      472     4603    2           CALL XSL$CL_WRITE( SOCK, LENGTHC( XSL$SENDRQS), XLEN, XMSG)
      473     4604    2             ALTRET( ERRWRITE);
      474     4605    2           END;
      475     4606    1       RESULT = RESULT + XLEN;
      476     4607    1       SOCK.FLAGS.SELWRITE = '1'B;
      477     4608    1   SUCCESS:
      478     4609    1       RETURN;
      479     4610    1   ERRWRITE:
      480     4611    2       IF B$TCB.ALT$->B$ALT.ERR.CODE = %E$LD THEN DO;
      481     4612    2           XLEN = XLEN - SOCK.RCRBYTSIZ;
PL6.E3A0      #001=XSL$SENDTO File=XSL$SOCKET2.:TCA2TSI                          SUN 11/16/97 14:30 Page:14
      482     4613    2           XPTR$ = PINCRC( XPTR$, SOCK.RCRBYTSIZ);
      483     4614    2           RESULT = RESULT + SOCK.RCRBYTSIZ;
      484     4615    2           GOTO WRITE_LOOP;
      485     4616    2           END;
      486     4617    2       IF B$TCB.ALT$->B$ALT.ERR.CODE = %E$NODAT THEN DO;
      487     4618    3           IF NOT SOCK.FLAGS.BLOCKING THEN DO;
      488     4619    3               IF RESULT > 0 THEN
      489     4620    3                   GOTO SUCCESS;
      490     4621    3               XSL_ERRNO = %E$WOULDBLOCK;
      491     4622    3               GOTO BAILOUT;
      492     4623    3               END;
      493     4624    2           IF SOCK.MAXRDS = 0 THEN
      494     4625    2               CALL M$WAIT( XSL_WAIT1SEC);
      495     4626    3           ELSE DO INHIBIT;
      496     4627    3               XSL_UETIME = 0;
      497     4628    4               DO WHILE( XSL_UETIME = 0);
      498     4629    4                   IF SOCK.FLAGS.SELWRITE THEN EXIT;
      499     4630    4                   CALL XSL$EVLOG( 'WT', ADDR( SOCK));
      500     4631    4                   CALL M$WAIT( XSL_WAIT1DAY);
      501     4632    4                   END;
      502     4633    3               END;
      503     4634    2           GOTO WRITE_LOOP;
      504     4635    2           END;
      505     4636    1   BAILOUTM1:
      506     4637    1       XSL_ERRNO = %E$FAILURE;  /* make appl get errcode from TCB */
      507     4638    1   BAILOUT:
      508     4639    1       RESULT = %E$FAILURE;
      509     4640    1       ALTRETURN;
      510     4641
      511     4642    1   END XSL$SENDTO;
      512     4643        %EOD;

PL6.E3A0      #001=XSL$SENDTO File=XSL$SOCKET2.:TCA2TSI                          SUN 11/16/97 14:30 Page:15
--  Include file information  --

   XSL_SOCKMSGS_M.:TCA2TOU  is referenced.
   XSL_SOCKMSGS_E.:TCA2TOU  is referenced.
   XSL_INTERNAL_M.:TCA2TOU  is referenced.
   XSL_PERR_C.:TCA2TOU  is referenced.
   XSL_SOCKET_M.:TCA2TOU  is referenced.
   XSL_SOCKET_E.:TCA2TOU  is referenced.
   CP_6.:LIBRARY  cannot be made into a system file and is referenced.
   B_ERRORS_C.:LIBRARY  is referenced.
   B$JIT_C.:E05TOU  was found in the system file and is never referenced.
   CP_6_C.:E05TOU  was found in the system file and is referenced.
      No diagnostics issued in procedure XSL$SENDTO.

   Procedure XSL$SENDTO requires 304 words for executable code.
   Procedure XSL$SENDTO requires 20 words of local(AUTO) storage.

PL6.E3A0      #001=XSL$SENDTO File=XSL$SOCKET2.:TCA2TSI                          SUN 11/16/97 14:30 Page:16

 Object Unit name= XSL$SENDTO                                 File name= XSL$SOCKET2.:TCA2TOU
 UTS= NOV 16 '97 14:30:55.24 SUN                              Compiler= PL-6/E31         Sev=      00
 SharedLib= :SHARED_SYSTEM                                    Alt SharedLib=


    ****  Control sections  ****

 Sect   Type Bound  Init  Size OctSiz  Section name(segment info)
    0   DCB   even  none     0      0  M$UC
    1  RoData even  UTS      8     10  XSL$SENDTO
    2   Proc  even  none   304    460  XSL$SENDTO
    3  RoData even  none    12     14  XSL$SENDTO

    ****  Entry defs  ****

                              Check   Calling
                             calling  sequence
  Sect OctLoc Primary Altret sequence   type   Parms  Name
     2      0   yes    yes     yes      Std        7  XSL$SENDTO
     2      4          yes     yes      Std        7  XSL$QSENDTO
     2     10          yes     yes      Std        5  XSL$SEND
     2     15          yes     yes      Std        5  XSL$QSEND
     2     31          yes     yes      Std        4  XSL$WRITE
     2     36          yes     yes      Std        4  XSL$QWRITE

  ****  Data defs  ****

 Sect OctLoc  Name                           Sect OctLoc  Name
    1      0  XSL_SENDRQS                        1      1  XSL_SENDTORQS
PL6.E3A0      #001=XSL$SENDTO File=XSL$SOCKET2.:TCA2TSI                          SUN 11/16/97 14:30 Page:17

  ****  Entry refs  ****

         Check        Calling
        calling       sequence
Altret sequence SRef   type   Args  Name
 yes     yes           Std       2 XSL$SOCKPTR
 yes     yes           Std       3 XSL$SOCKOPEN
 yes     yes           Std       4 XSL$CL_WRITE
 yes     yes           Std       2 XSL$DCBNPTR
 yes     yes           Std       6 XSL$QSETSOCKOPT
 yes     yes           Std       2 XSL$GETBUF
         yes           Std       2 XSL$EVLOG
         yes           Std       2 XSL$HTONADDR
                       nStd      0 X66_AUTO_N
                       Std       0 B_CONSPOOL_D
                       nStd      0 X66_ARET
                       nStd      0 X66_AALT

  ****  Data refs  ****

  Flags:  r = read only, s = secondary
Flgs Name                             Flgs Name                             Flgs Name
     M$UC                                  XSL_WAIT1DAY                          XSL_WAIT1SEC
r    B$TCB$                                XSL_ERRNO                        r    XSL_KEYBUF$
     XSL_UETIME                            B_VECTNIL

  ****  Segment refs  ****

  Flags:  r = read only, s = secondary
Flgs Name                             Flgs Name                             Flgs Name
     ROSID                                 ISSID
PL6.E3A0      #001=XSL$SENDTO File=XSL$SOCKET2.:TCA2TSI                          SUN 11/16/97 14:30 Page:18


        1        1        /*M*    XSL$SOCKET2             BSD4.3 Socket Library for CP-6, part 2  */
        2        2        /*T***********************************************************/
        3        3        /*T*                                                         */
        4        4        /*T* Copyright (c) Bull HN Information Systems Inc., 1997    */
        5        5        /*T*                                                         */
        6        6        /*T***********************************************************/
        7        7        /*X* DMC,PLM=4,IND=4,DCI=8,DTI=0,ENI=4,ECI=4,CSI=4,DIN=4,SDI=0 */
        8        8
        9        9        /*F* NAME: sendto() and XSL$SENDTO  --  Write Data With Options And Address
       10       10        ..::IT "Purpose:"
       11       11        .INL +4
       12       12        Sends a message from an application-specified buffer to a socket.  This
       13       13        function is typically used when the destination socket changes from
       14       14        invocation to invocation.
       15       15        ..::IT "C Usage:"
       16       16        .INL 4
       17       17        .FIF
       18       18        status = sendto( s, msg, len, flags, to, tolen );
       19       19        ..::IT "PL6 Usage:"
       20       20        .INL 4
       21       21        .FIF
       22       22        CALL XSL$SENDTO( status, s, msg, len, flags, to, tolen );
       23       23        ..::IT "Parameters:"
       24       24        .INL 4
       25       25        .FIF
       26       26        s           integer socket descriptor
       27       27
       28       28        msg         character array containing message to be sent
       29       29
       30       30        len         integer number of significant characters in msg
       31       31
       32       32        flags       integer bitflags of sendto options
       33       33
       34       34        to          sockaddr structure
       35       35
       36       36        tolen       integer size of to in characters
PL6.E3A0      #001=XSL$SENDTO File=XSL$SOCKET2.:TCA2TSI                          SUN 11/16/97 14:30 Page:19
       37       37        ..::IT "Result:"
       38       38        .INL 4
       39       39        .FIF
       40       40        status      integer number of characters sent or error code
       41       41        ..::IT "Description:"
       42       42        The sendto() function sends a message from an application-defined buffer
       43       43        to a socket.  On datagram sockets the message is sent atomically; if
       44       44        this is not possible then the error EMSGSIZE is reported.
       45       45        .SPB
       46       46        The s parameter specifies the descriptor of the socket to be written to.
       47       47        .SPB
       48       48        The msg parameter specifies an application-defined buffer containing the
       49       49        message to be sent to the socket.
       50       50        .SPB
       51       51        The len parameter specifies the number of characters to be sent.
       52       52        .SPB
       53       53        The flags parameter specifies sendto options.  The only option currently
       54       54        implemented is "out-of-band", which causes the message to be sent on the
       55       55        out-of-band data path if the socket supports it.  This is selected by coding
       56       56        SOF_OOB or %XSL_SOF_OOB in C or PL6 source, respectively.
       57       57        .SPB
       58       58        The to parameter specifies the address of the remote socket to receive
       59       59        the message.  In C source, it is a sockaddr structure.  In PL6 source, it is
       60       60        an XSL$SOCKADDR structure.
       61       61        .SPB
       62       62        The tolen parameter specifies the number of significant characters in to.
       63       63        .SPB
       64       64        If the sendto() function is successful, the status result contains the
       65       65        number of characters sent to the socket.  This number is non-negative.
       66       66        A successful result does not guarantee that the message was delivered,
       67       67        but only that it was sent to the FEP for network transmission.  The
       68       68        status value may be less than the len value if the socket is
       69       69        nonblocking and no more data could be immediately sent.
       70       70        .SPB
       71       71        If the sendto() function is unsuccessful, the status result contains
       72       72        EFAILURE or E$FAILURE and the application must inspect errno or XSL_ERRNO
       73       73        to determine the specific error condition.  The XSL$SENDTO procedure
PL6.E3A0      #001=XSL$SENDTO File=XSL$SOCKET2.:TCA2TSI                          SUN 11/16/97 14:30 Page:20
       74       74        additionally ALTRETURNs if it is unsuccessful; it is otherwise identical
       75       75        to the sendto() function.
       76       76        .SPB
       77       77        Sendto() may be used on sockets regardless of whether connect() has been
       78       78        issued.
       79       79        .SPB
       80       80        If shutdown() has been invoked for this socket to inhibit transmission
       81       81        of data, all sendto() operations report the error ESHUTDOWN.
       82       82        ..::IT "Errors:"
       83       83        Following are the possible error conditions reported when the sendto()
       84       84        function is unsuccessful.  Equates for the possible values can be found in
       85       85        <xsl_errno.h> or XSL_PERR_C for C and PL6 source, respectively.
       86       86
       87       87        .FIF
       88       88
       89       89        C #define               PL6 %EQU
       90       90        ----------------------- -----------------------
       91       91        EBADF                   E$BADF
       92       92        .FIN
       93       93        The descriptor s is not appropriate to identify a socket.
       94       94        .FIF
       95       95
       96       96        EMSGSIZE                E$MSGSIZE
       97       97        .FIN
       98       98        The message is too long to send atomically.
       99       99        .FIF
      100      100
      101      101        ENOTSOCK                E$NOTSOCK
      102      102        .FIN
      103      103        The descriptor s is no longer valid to identify a socket.
      104      104        .FIF
      105      105
      106      106        ESHUTDOWN               E$SHUTDOWN
      107      107        .FIN
      108      108        Can't send after socket shutdown.
      109      109        .FIF
      110      110
PL6.E3A0      #001=XSL$SENDTO File=XSL$SOCKET2.:TCA2TSI                          SUN 11/16/97 14:30 Page:21
      111      111        EWOULDBLOCK             E$WOULDBLOCK
      112      112        .FIN
      113      113        The message cannot be immediately sent.
      114      114        .FIF
      115      115        */
      116      116        /*F* NAME: send() and XSL$SEND  --  Write Data With Options
      117      117        ..::IT "Purpose:"
      118      118        .INL +4
      119      119        Sends a message from an application-specified buffer to a connected socket.
      120      120        ..::IT "C Usage:"
      121      121        .INL 4
      122      122        .FIF
      123      123        status = send( s, msg, len, flags );
      124      124        ..::IT "PL6 Usage:"
      125      125        .INL 4
      126      126        .FIF
      127      127        CALL XSL$SEND( status, s, msg, len, flags );
      128      128        ..::IT "Parameters:"
      129      129        .INL 4
      130      130        .FIF
      131      131        s           integer socket descriptor
      132      132
      133      133        msg         character array containing message to be sent
      134      134
      135      135        len         integer number of significant characters in msg
      136      136
      137      137        flags       integer bitflags of send options
      138      138        ..::IT "Result:"
      139      139        .INL 4
      140      140        .FIF
      141      141        status      integer number of characters sent or error code
      142      142        ..::IT "Description:"
      143      143        The send() function sends a message from an application-defined buffer
      144      144        to a socket.  On datagram sockets the message is sent atomically; if
      145      145        this is not possible then the error EMSGSIZE is reported.
      146      146        .SPB
      147      147        The s parameter specifies the descriptor of the socket to be written to.
PL6.E3A0      #001=XSL$SENDTO File=XSL$SOCKET2.:TCA2TSI                          SUN 11/16/97 14:30 Page:22
      148      148        .SPB
      149      149        The msg parameter specifies an application-defined buffer containing the
      150      150        message to be sent to the socket.
      151      151        .SPB
      152      152        The len parameter specifies the number of characters to be sent.
      153      153        .SPB
      154      154        The flags parameter specifies send options.  The only option currently
      155      155        implemented is "out-of-band", which causes the message to be sent on the
      156      156        out-of-band data path if the socket supports it.  This is selected by coding
      157      157        SOF_OOB or %XSL_SOF_OOB in C or PL6 source, respectively.
      158      158        .SPB
      159      159        If the send() function is successful, the status result contains the
      160      160        number of characters sent to the socket.  This number is non-negative.
      161      161        A successful result does not guarantee that the message was delivered,
      162      162        but only that it was sent to the FEP for network transmission.  The
      163      163        status value may be less than the len value if the socket is
      164      164        nonblocking and no more data could be immediately sent.
      165      165        .SPB
      166      166        If the send() function is unsuccessful, the status result contains
      167      167        EFAILURE or E$FAILURE and the application must inspect errno or XSL_ERRNO
      168      168        to determine the specific error condition.  The XSL$SEND procedure
      169      169        additionally ALTRETURNs if it is unsuccessful; it is otherwise identical
      170      170        to the send() function.
      171      171        .SPB
      172      172        Send() may be used only on sockets that have had connect() invoked.
      173      173        .SPB
      174      174        If shutdown() has been invoked for this socket to inhibit transmission
      175      175        of data, all send() operations report the error ESHUTDOWN.
      176      176        ..::IT "Errors:"
      177      177        Following are the possible error conditions reported when the send()
      178      178        function is unsuccessful.  Equates for the possible values can be found in
      179      179        <xsl_errno.h> or XSL_PERR_C for C and PL6 source, respectively.
      180      180
      181      181        .FIF
      182      182
      183      183        C #define               PL6 %EQU
      184      184        ----------------------- -----------------------
PL6.E3A0      #001=XSL$SENDTO File=XSL$SOCKET2.:TCA2TSI                          SUN 11/16/97 14:30 Page:23
      185      185        EBADF                   E$BADF
      186      186        .FIN
      187      187        The descriptor s is not appropriate to identify a socket.
      188      188        .FIF
      189      189
      190      190        EMSGSIZE                E$MSGSIZE
      191      191        .FIN
      192      192        The specified message is too long to send atomically.
      193      193        .FIF
      194      194
      195      195        ENOTBOUND               E$NOTBOUND
      196      196        .FIN
      197      197        The socket is not bound to a FEP.
      198      198        .FIF
      199      199
      200      200        ENOTCONN                E$NOTCONN
      201      201        .FIN
      202      202        The connect() function has not been invoked for this socket.
      203      203        .FIF
      204      204
      205      205        ENOTSOCK                E$NOTSOCK
      206      206        .FIN
      207      207        The descriptor s is no longer valid to identify a socket.
      208      208        .FIF
      209      209
      210      210        ESHUTDOWN               E$SHUTDOWN
      211      211        .FIN
      212      212        Can't send after socket shutdown.
      213      213        .FIF
      214      214
      215      215        EWOULDBLOCK             E$WOULDBLOCK
      216      216        .FIN
      217      217        The message cannot be immediately sent.
      218      218        .FIF
      219      219        */
      220      220        /*F* NAME: write() and XSL$WRITE  --  Write Data
      221      221        ..::IT "Purpose:"
PL6.E3A0      #001=XSL$SENDTO File=XSL$SOCKET2.:TCA2TSI                          SUN 11/16/97 14:30 Page:24
      222      222        .INL +4
      223      223        Writes data from an application-specified buffer to a socket.
      224      224        ..::IT "C Usage:"
      225      225        .INL 4
      226      226        .FIF
      227      227        status = write( s, buf, len );
      228      228        ..::IT "PL6 Usage:"
      229      229        .INL 4
      230      230        .FIF
      231      231        CALL XSL$WRITE( status, s, buf, len );
      232      232        ..::IT "Parameters:"
      233      233        .INL 4
      234      234        .FIF
      235      235        s           integer socket descriptor
      236      236
      237      237        buf         character array buffer
      238      238
      239      239        len         integer number of significant characters in buf
      240      240        ..::IT "Result:"
      241      241        .INL 4
      242      242        .FIF
      243      243        status      integer number of characters written or error code
      244      244        ..::IT "Description:"
      245      245        The write() function writes data from the specified buffer to the socket.
      246      246        On datagram sockets the data is written atomically; if this is not
      247      247        possible then the error EMSGSIZE is reported.
      248      248        .SPB
      249      249        The s parameter specifies the descriptor of the socket to be written to.
      250      250        .SPB
      251      251        The buf parameter specifies an application-defined buffer containing the
      252      252        data to be written to the socket.
      253      253        .SPB
      254      254        The len parameter specifies the number of characters to be written.
      255      255        .SPB
      256      256        If the write() function is successful, the status result contains the
      257      257        number of characters written to the socket.  This number is non-negative.
      258      258        A successful result does not guarantee that the data was delivered,
PL6.E3A0      #001=XSL$SENDTO File=XSL$SOCKET2.:TCA2TSI                          SUN 11/16/97 14:30 Page:25
      259      259        but only that it was sent to the FEP for network transmission.  The
      260      260        status value may be less than the len value if the socket is
      261      261        nonblocking and no more data could be immediately sent.
      262      262        .SPB
      263      263        If the write() function is unsuccessful, the status result contains
      264      264        EFAILURE or E$FAILURE and the application must inspect errno or XSL_ERRNO
      265      265        to determine the specific error condition.  The XSL$WRITE procedure
      266      266        additionally ALTRETURNs if it is unsuccessful; it is otherwise identical
      267      267        to the write() function.
      268      268        .SPB
      269      269        Write() may be used only on sockets that have had connect() invoked.
      270      270        .SPB
      271      271        If shutdown() has been invoked for this socket to inhibit transmission
      272      272        of data, all write() operations report the error ESHUTDOWN.
      273      273        ..::IT "Errors:"
      274      274        Following are the possible error conditions reported when the write()
      275      275        function is unsuccessful.  Equates for the possible values can be
      276      276        found in <xsl_errno.h> or XSL_PERR_C for C or PL6 source, respectively.
      277      277
      278      278        .FIF
      279      279
      280      280        C #define               PL6 %EQU
      281      281        ----------------------- -----------------------
      282      282        EBADF                   E$BADF
      283      283        .FIN
      284      284        The descriptor s is not appropriate to identify a socket.
      285      285        .FIF
      286      286
      287      287        EMSGSIZE                E$MSGSIZE
      288      288        .FIN
      289      289        The specified buffer is too long to send atomically.
      290      290        .FIF
      291      291
      292      292        ENOTBOUND               E$NOTBOUND
      293      293        .FIN
      294      294        The socket is not bound to a FEP.
      295      295        .FIF
PL6.E3A0      #001=XSL$SENDTO File=XSL$SOCKET2.:TCA2TSI                          SUN 11/16/97 14:30 Page:26
      296      296
      297      297        ENOTCONN                E$NOTCONN
      298      298        .FIN
      299      299        The socket is not currently connected.  connect() has not been invoked.
      300      300        .FIF
      301      301
      302      302        ENOTSOCK                E$NOTSOCK
      303      303        .FIN
      304      304        The descriptor s is no longer valid to identify a socket.
      305      305        .FIF
      306      306
      307      307        ESHUTDOWN               E$SHUTDOWN
      308      308        .FIN
      309      309        Can't send after socket shutdown.
      310      310        .FIF
      311      311
      312      312        EWOULDBLOCK             E$WOULDBLOCK
      313      313        .FIN
      314      314        The data cannot be immediately sent.
      315      315        .FIF
      316      316        */
      317      317        XSL$SENDTO: PROC( RESULT, SOCK#, MSG, LEN, FLAGS, DST, DSTLEN) ALTRET;

    317  2 000000   000000 700200 xent  XSL$SENDTO   TSX0  ! X66_AUTO_N
         2 000001   000024 000007                    ZERO    20,7

      318      318        %INCLUDE B_ERRORS_C;
      319     1445        %INCLUDE CP_6;
      320     1526            %B$ALT;
      321     1534            %B$TCB( STCLASS="BASED( B$TCB$)");
      322     1537            %FPT_WAIT( FPTN=XSL_WAIT1DAY, STCLASS=SYMREF);
      323     1551            %FPT_WAIT( FPTN=XSL_WAIT1SEC, STCLASS=SYMREF);
      324     1565            %F$DCB;
      325     1622        %INCLUDE XSL_SOCKET_E;
      326     1880        %INCLUDE XSL_SOCKET_M;
      327     2641            %XSL$SOCKADDR( FPTN=DST, STCLASS=);
      328     2681        %INCLUDE XSL_PERR_C;
PL6.E3A0      #001=XSL$SENDTO File=XSL$SOCKET2.:TCA2TSI                          SUN 11/16/97 14:30 Page:27
      329     2736        %INCLUDE XSL_INTERNAL_M;
      330     2987            %XSL$SOCKINFO( FPTN=SOCK, STCLASS="BASED( SOCK$)");
      331     3131        %INCLUDE XSL_SOCKMSGS_E;
      332     3177        %INCLUDE XSL_SOCKMSGS_M;
      333     4310            %XSL$SENDRQS( FPTN=XSL_SENDRQS, STCLASS="CONSTANT SYMDEF");
      334     4336            %XSL$SENDRQS( STCLASS="BASED( XSL_KEYBUF$)");
      335     4362            %XSL$SENDTORQS( FPTN=XSL_SENDTORQS, STCLASS="CONSTANT SYMDEF");
      336     4415            %XSL$SENDTORQS( STCLASS="BASED( XSL_KEYBUF$)");
      337     4468
      338     4469    1       DCL XSL$CL_READ ENTRY(3) ALTRET;
      339     4470    1       DCL XSL$CL_WRITE ENTRY(4) ALTRET;
      340     4471    1       DCL XSL$HTONADDR ENTRY(2);
      341     4472    1       DCL XSL$SOCKPTR ENTRY(2) ALTRET;
      342     4473    1       DCL XSL$DCBNPTR ENTRY(2) ALTRET;
      343     4474    1       DCL XSL$QSETSOCKOPT ENTRY(6) ALTRET;
      344     4475    1       DCL XSL$SOCKOPEN ENTRY(3) ALTRET;
      345     4476    1       DCL XSL$EVLOG ENTRY(2);
      346     4477    1       DCL XSL$GETBUF ENTRY(2) ALTRET;
      347     4478
      348     4479    1       DCL B$TCB$ PTR SYMREF READONLY;
      349     4480    1       DCL XSL_ERRNO SBIN SYMREF;
      350     4481    1       DCL XSL_SOCK$ REDEF XSL_ERRNO PTR;
      351     4482    1       DCL XSL_KEYBUF$ PTR SYMREF READONLY;
      352     4483    1       DCL XSL_SOCK$$ PTR SYMREF;
      353     4484    1       DCL XSL_UETIME SBIN SYMREF;
      354     4485
      355     4486    1       DCL DSTLEN SBIN;
      356     4487    1       DCL ENTRYFLAG SBIN;
      357     4488        %EQU SENDTO = 0;
      358     4489        %EQU SEND = 1;
      359     4490        %EQU WRITE = 2;
      360     4491    1       DCL FLAGS UBIN;
      361     4492    1       DCL LEN SBIN;
      362     4493    1       DCL MSG CHAR( LEN) CALIGNED;
      363     4494    1       DCL RESULT SBIN;
      364     4495    1       DCL SOCK# SBIN;
      365     4496    1       DCL SOCK$ PTR;
PL6.E3A0      #001=XSL$SENDTO File=XSL$SOCKET2.:TCA2TSI                          SUN 11/16/97 14:30 Page:28
      366     4497    1       DCL XLEN SBIN;
      367     4498    1       DCL XMSG CHAR( XLEN) BASED( XPTR$);
      368     4499    1       DCL XPTR$ PTR CALIGNED;
      369     4500        %EQU VBUFSIZ = 9000;
      370     4501
      371     4502    1       ENTRYFLAG = %SENDTO;

   4502  2 000002   200012 450100                    STZ     ENTRYFLAG,,AUTO

      372     4503    1       GOTO COMMONDCBN;

   4503  2 000003   000043 710000 2                  TRA     COMMONDCBN

      373     4504
      374     4505    1   XSL$QSENDTO: ENTRY( RESULT, SOCK#, MSG, LEN, FLAGS, DST, DSTLEN) ALTRET;

   4505  2 000004   000000 700200 xent  XSL$QSENDTO  TSX0  ! X66_AUTO_N
         2 000005   000024 000007                    ZERO    20,7

      375     4506
      376     4507    1       ENTRYFLAG = %SENDTO;

   4507  2 000006   200012 450100                    STZ     ENTRYFLAG,,AUTO

      377     4508    1       GOTO COMMONSOCK;

   4508  2 000007   000021 710000 2                  TRA     COMMONSOCK

      378     4509
      379     4510    1   XSL$SEND: ENTRY( RESULT, SOCK#, MSG, LEN, FLAGS) ALTRET;

   4510  2 000010   000000 700200 xent  XSL$SEND     TSX0  ! X66_AUTO_N
         2 000011   000024 000007                    ZERO    20,7

      380     4511
      381     4512    1       ENTRYFLAG = %SEND;

PL6.E3A0      #001=XSL$SENDTO File=XSL$SOCKET2.:TCA2TSI                          SUN 11/16/97 14:30 Page:29
   4512  2 000012   000001 235007                    LDA     1,DL
         2 000013   200012 755100                    STA     ENTRYFLAG,,AUTO

      382     4513    1       GOTO COMMONDCBN;

   4513  2 000014   000043 710000 2                  TRA     COMMONDCBN

      383     4514
      384     4515    1   XSL$QSEND: ENTRY( RESULT, SOCK#, MSG, LEN, FLAGS) ALTRET;

   4515  2 000015   000000 700200 xent  XSL$QSEND    TSX0  ! X66_AUTO_N
         2 000016   000024 000007                    ZERO    20,7

      385     4516
      386     4517    1       ENTRYFLAG = %SEND;

   4517  2 000017   000001 235007                    LDA     1,DL
         2 000020   200012 755100                    STA     ENTRYFLAG,,AUTO

      387     4518    1   COMMONSOCK:
      388     4519    1       CALL XSL$SOCKPTR( SOCK#, XSL_SOCK$) ALTRET( BAILOUT);

   4519  2 000021   000000 236000 3     COMMONSOCK   LDQ     0
         2 000022   200004 235100                    LDA     @SOCK#,,AUTO
         2 000023   200016 757100                    STAQ    XPTR$+1,,AUTO
         2 000024   200016 630500                    EPPR0   XPTR$+1,,AUTO
         2 000025   000020 631400 xsym               EPPR1   B_VECTNIL+16
         2 000026   000000 701000 xent               TSX1    XSL$SOCKPTR
         2 000027   000454 702000 2                  TSX2    BAILOUT

      389     4520    1       GOTO LATER;

   4520  2 000030   000052 710000 2                  TRA     LATER

      390     4521
      391     4522    1   XSL$WRITE: ENTRY( RESULT, SOCK#, MSG, LEN) ALTRET;

PL6.E3A0      #001=XSL$SENDTO File=XSL$SOCKET2.:TCA2TSI                          SUN 11/16/97 14:30 Page:30
   4522  2 000031   000000 700200 xent  XSL$WRITE    TSX0  ! X66_AUTO_N
         2 000032   000024 000007                    ZERO    20,7

      392     4523
      393     4524    1       ENTRYFLAG = %WRITE;

   4524  2 000033   000002 235007                    LDA     2,DL
         2 000034   200012 755100                    STA     ENTRYFLAG,,AUTO

      394     4525    1       GOTO COMMONDCBN;

   4525  2 000035   000043 710000 2                  TRA     COMMONDCBN

      395     4526
      396     4527    1   XSL$QWRITE: ENTRY( RESULT, SOCK#, MSG, LEN) ALTRET;

   4527  2 000036   000000 700200 xent  XSL$QWRITE   TSX0  ! X66_AUTO_N
         2 000037   000024 000007                    ZERO    20,7

      397     4528
      398     4529    1       ENTRYFLAG = %WRITE;

   4529  2 000040   000002 235007                    LDA     2,DL
         2 000041   200012 755100                    STA     ENTRYFLAG,,AUTO

      399     4530    1       GOTO COMMONSOCK;

   4530  2 000042   000021 710000 2                  TRA     COMMONSOCK

      400     4531
      401     4532    1   COMMONDCBN:
      402     4533    1       CALL XSL$DCBNPTR( SOCK#, XSL_SOCK$) ALTRET( BAILOUT);

   4533  2 000043   000000 236000 3     COMMONDCBN   LDQ     0
         2 000044   200004 235100                    LDA     @SOCK#,,AUTO
         2 000045   200016 757100                    STAQ    XPTR$+1,,AUTO
         2 000046   200016 630500                    EPPR0   XPTR$+1,,AUTO
PL6.E3A0      #001=XSL$SENDTO File=XSL$SOCKET2.:TCA2TSI                          SUN 11/16/97 14:30 Page:31
         2 000047   000020 631400 xsym               EPPR1   B_VECTNIL+16
         2 000050   000000 701000 xent               TSX1    XSL$DCBNPTR
         2 000051   000454 702000 2                  TSX2    BAILOUT

      403     4534    1   LATER:
      404     4535    1       SOCK$ = XSL_SOCK$;

   4535  2 000052   000000 236000 xsym  LATER        LDQ     XSL_ERRNO
         2 000053   200013 756100                    STQ     SOCK$,,AUTO

      405     4536    1       IF SOCK.RCRBYTSIZ = 0 THEN

   4536  2 000054   200013 470500                    LDP0    SOCK$,,AUTO
         2 000055   000017 220100                    LDX0    15,,PR0
         2 000056   000061 601000 2                  TNZ     s:4538

      406     4537    1           SOCK.RCRBYTSIZ = 4096;  /* for MAXRDS=0 sockets */

   4537  2 000057   010000 221003                    LDX1    4096,DU
         2 000060   000017 741100                    STX1    15,,PR0

      407     4538    2       IF SOCK.FLAGS.SENDSHUT THEN DO;

   4538  2 000061   000001 236100                    LDQ     1,,PR0
         2 000062   200000 316003                    CANQ    65536,DU
         2 000063   000067 600000 2                  TZE     s:4542

      408     4539    2           XSL_ERRNO = %E$SHUTDOWN;

   4539  2 000064   000165 235007                    LDA     117,DL
         2 000065   000000 755000 xsym               STA     XSL_ERRNO

      409     4540    2           GOTO BAILOUT;

   4540  2 000066   000454 710000 2                  TRA     BAILOUT

      410     4541    2           END;
PL6.E3A0      #001=XSL$SENDTO File=XSL$SOCKET2.:TCA2TSI                          SUN 11/16/97 14:30 Page:32
      411     4542    2       IF SOCK.TYPE = %XSL_SOCK_DGRAM THEN DO;

   4542  2 000067   000000 236100                    LDQ     0,,PR0
         2 000070   000777 376003                    ANQ     511,DU
         2 000071   000002 116003                    CMPQ    2,DU
         2 000072   000147 601000 2                  TNZ     s:4562

      412     4543    3           IF NOT SOCK.FLAGS.SOCKET THEN DO;

   4543  2 000073   000001 236100                    LDQ     1,,PR0
         2 000074   002000 316003                    CANQ    1024,DU
         2 000075   000140 601000 2                  TNZ     s:4556

      413     4544    3               IF ENTRYFLAG = %SENDTO THEN

   4544  2 000076   200012 235100                    LDA     ENTRYFLAG,,AUTO
         2 000077   000112 601000 2                  TNZ     s:4547

      414     4545    3                   CALL XSL$SOCKOPEN( SOCK, DST, DSTLEN) ALTRET( BAILOUT);

   4545  2 000100   200011 236100                    LDQ     @DSTLEN,,AUTO
         2 000101   200020 756100                    STQ     XPTR$+3,,AUTO
         2 000102   200010 236100                    LDQ     @DST,,AUTO
         2 000103   200013 235100                    LDA     SOCK$,,AUTO
         2 000104   200016 757100                    STAQ    XPTR$+1,,AUTO
         2 000105   200016 630500                    EPPR0   XPTR$+1,,AUTO
         2 000106   000021 631400 xsym               EPPR1   B_VECTNIL+17
         2 000107   000000 701000 xent               TSX1    XSL$SOCKOPEN
         2 000110   000454 702000 2                  TSX2    BAILOUT
         2 000111   000115 710000 2                  TRA     s:4550

      415     4546    4               ELSE DO;

      416     4547    4                   XSL_ERRNO = %E$NOTBOUND;

   4547  2 000112   000401 235007                    LDA     257,DL
         2 000113   000000 755000 xsym               STA     XSL_ERRNO
PL6.E3A0      #001=XSL$SENDTO File=XSL$SOCKET2.:TCA2TSI                          SUN 11/16/97 14:30 Page:33

      417     4548    4                   GOTO BAILOUT;

   4548  2 000114   000454 710000 2                  TRA     BAILOUT

      418     4549    4                   END;
      419     4550    4               IF SOCK.FLAGS.REUSEADDR THEN DO;

   4550  2 000115   200013 470500                    LDP0    SOCK$,,AUTO
         2 000116   000001 236100                    LDQ     1,,PR0
         2 000117   000400 316003                    CANQ    256,DU
         2 000120   000140 600000 2                  TZE     s:4556

      420     4551    4                   RESULT = SOCK.SOCK#;

   4551  2 000121   000000 236100                    LDQ     0,,PR0
         2 000122   000777 376007                    ANQ     511,DL
         2 000123   200003 471500                    LDP1    @RESULT,,AUTO
         2 000124   100000 756100                    STQ     0,,PR1

      421     4552    4                   CALL XSL$QSETSOCKOPT( RESULT, RESULT, %XSL_SOL_SOCKET,

   4552  2 000125   000002 237000 3                  LDAQ    2
         2 000126   200022 757100                    STAQ    XPTR$+5,,AUTO
         2 000127   000004 237000 3                  LDAQ    4
         2 000130   200020 757100                    STAQ    XPTR$+3,,AUTO
         2 000131   200003 236100                    LDQ     @RESULT,,AUTO
         2 000132   200003 235100                    LDA     @RESULT,,AUTO
         2 000133   200016 757100                    STAQ    XPTR$+1,,AUTO
         2 000134   200016 630500                    EPPR0   XPTR$+1,,AUTO
         2 000135   000024 631400 xsym               EPPR1   B_VECTNIL+20
         2 000136   000000 701000 xent               TSX1    XSL$QSETSOCKOPT
         2 000137   000000 011000                    NOP     0

      422     4553    4                     %XSL_SO_REUSEADDR, 262144, 2);
      423     4554    4                   END;

PL6.E3A0      #001=XSL$SENDTO File=XSL$SOCKET2.:TCA2TSI                          SUN 11/16/97 14:30 Page:34
      424     4555    3               END;

      425     4556    3           IF LEN > %VBUFSIZ THEN DO;

   4556  2 000140   200006 470500                    LDP0    @LEN,,AUTO
         2 000141   000000 235100                    LDA     0,,PR0
         2 000142   021450 115007                    CMPA    9000,DL
         2 000143   000167 604400 2                  TMOZ    s:4572

      426     4557    3               XSL_ERRNO = %E$MSGSIZE;

   4557  2 000144   000143 236007                    LDQ     99,DL
         2 000145   000000 756000 xsym               STQ     XSL_ERRNO

      427     4558    3               GOTO BAILOUT;

   4558  2 000146   000454 710000 2                  TRA     BAILOUT

      428     4559    3               END;
      429     4560    2           END;
      430     4561    2       ELSE DO;

      431     4562    3           IF NOT SOCK.FLAGS.SOCKET THEN DO;

   4562  2 000147   000001 236100                    LDQ     1,,PR0
         2 000150   002000 316003                    CANQ    1024,DU
         2 000151   000155 601000 2                  TNZ     s:4566

      432     4563    3               XSL_ERRNO = %E$NOTBOUND;

   4563  2 000152   000401 235007                    LDA     257,DL
         2 000153   000000 755000 xsym               STA     XSL_ERRNO

      433     4564    3               GOTO BAILOUT;

   4564  2 000154   000454 710000 2                  TRA     BAILOUT

PL6.E3A0      #001=XSL$SENDTO File=XSL$SOCKET2.:TCA2TSI                          SUN 11/16/97 14:30 Page:35
      434     4565    3               END;
      435     4566    3           IF SOCK.TYPE = %XSL_SOCK_STREAM AND NOT SOCK.FLAGS.CONNECT THEN DO;

   4566  2 000155   000000 236100                    LDQ     0,,PR0
         2 000156   000777 376003                    ANQ     511,DU
         2 000157   000001 116003                    CMPQ    1,DU
         2 000160   000167 601000 2                  TNZ     s:4572
         2 000161   000001 236100                    LDQ     1,,PR0
         2 000162   040000 316003                    CANQ    16384,DU
         2 000163   000167 601000 2                  TNZ     s:4572

      436     4567    3               XSL_ERRNO = %E$NOTCONN;

   4567  2 000164   000164 235007                    LDA     116,DL
         2 000165   000000 755000 xsym               STA     XSL_ERRNO

      437     4568    3               GOTO BAILOUT;

   4568  2 000166   000454 710000 2                  TRA     BAILOUT

      438     4569    3               END;
      439     4570    2           END;
      440     4571            /* fire up some reads so SENDRSP/SENDTORSP will arrive */
      441     4572    2       DO WHILE( DCBADDR( SOCK.DCB#)->F$DCB.FCN.CNT(0) < SOCK.MAXRDS AND

   4572  2 000167   000174 710000 2                  TRA     s:4575

      442     4573    2         SOCK.BUFPND# <= SOCK.MAXBUF);
      443     4574    2           CALL XSL$GETBUF( SOCK) ALTRET( WRITE_READY);

   4574  2 000170   200013 630500                    EPPR0   SOCK$,,AUTO
         2 000171   000017 631400 xsym               EPPR1   B_VECTNIL+15
         2 000172   000000 701000 xent               TSX1    XSL$GETBUF
         2 000173   000215 702000 2                  TSX2    WRITE_READY

      444     4575    2           END;

PL6.E3A0      #001=XSL$SENDTO File=XSL$SOCKET2.:TCA2TSI                          SUN 11/16/97 14:30 Page:36
   4575  2 000174   000006 470400 3                  LDP0    6
         2 000175   000000 471500                    LDP1    0,,PR0
         2 000176   200013 473500                    LDP3    SOCK$,,AUTO
         2 000177   300003 720100                    LXL0    3,,PR3
         2 000200   100000 474510                    LDP4    0,X0,PR1
         2 000201   300020 236100                    LDQ     16,,PR3
         2 000202   777777 376007                    ANQ     -1,DL
         2 000203   200016 756100                    STQ     XPTR$+1,,AUTO
         2 000204   400074 236100                    LDQ     60,,PR4
         2 000205   000033 772000                    QRL     27
         2 000206   000377 376007                    ANQ     255,DL
         2 000207   200016 116100                    CMPQ    XPTR$+1,,AUTO
         2 000210   000215 605000 2                  TPL     WRITE_READY
         2 000211   300017 720100                    LXL0    15,,PR3
         2 000212   300020 100100                    CMPX0   16,,PR3
         2 000213   000170 602000 2                  TNC     s:4574
         2 000214   000170 600000 2                  TZE     s:4574

      445     4576    1   WRITE_READY:
      446     4577            /* o.k.... ready to send the data */
      447     4578    1       XLEN = LEN;

   4578  2 000215   200006 470500       WRITE_READY  LDP0    @LEN,,AUTO
         2 000216   000000 235100                    LDA     0,,PR0
         2 000217   200014 755100                    STA     XLEN,,AUTO

      448     4579    1       XPTR$ = ADDR( MSG);

   4579  2 000220   200005 236100                    LDQ     @MSG,,AUTO
         2 000221   200015 756100                    STQ     XPTR$,,AUTO

      449     4580    1       RESULT = 0;

   4580  2 000222   200003 471500                    LDP1    @RESULT,,AUTO
         2 000223   100000 450100                    STZ     0,,PR1

      450     4581    1   WRITE_LOOP:
PL6.E3A0      #001=XSL$SENDTO File=XSL$SOCKET2.:TCA2TSI                          SUN 11/16/97 14:30 Page:37
      451     4582    1       SOCK.FLAGS.SELWRITE = '0'B;

   4582  2 000224   200013 470500       WRITE_LOOP   LDP0    SOCK$,,AUTO
         2 000225   000007 236000 3                  LDQ     7
         2 000226   000001 356100                    ANSQ    1,,PR0

      452     4583    2       IF SOCK.TYPE = %XSL_SOCK_DGRAM THEN DO;

   4583  2 000227   000000 236100                    LDQ     0,,PR0
         2 000230   000777 376003                    ANQ     511,DU
         2 000231   000002 116003                    CMPQ    2,DU
         2 000232   000314 601000 2                  TNZ     s:4600

      453     4584    2           XSL$SENDTORQS = XSL_SENDTORQS;

   4584  2 000233   000000 471400 xsym               LDP1    XSL_KEYBUF$
         2 000234   000100 100400                    MLR     fill='000'O
         2 000235   000001 000026 1                  ADSC9   XSL_SENDTORQS            cn=0,n=22
         2 000236   100000 000026                    ADSC9   0,,PR1                   cn=0,n=22

      454     4585    2           XSL$SENDTORQS.FLAGS = MOD( FLAGS, %XSL_MSG_MORE);

   4585  2 000237   200007 473500                    LDP3    @FLAGS,,AUTO
         2 000240   300000 236100                    LDQ     0,,PR3
         2 000241   000177 376007                    ANQ     127,DL
         2 000242   000000 620006                    EAX0    0,QL
         2 000243   100000 440100                    SXL0    0,,PR1

      455     4586    2           IF XLEN > SOCK.RCRBYTSIZ THEN

   4586  2 000244   000017 236100                    LDQ     15,,PR0
         2 000245   000022 772000                    QRL     18
         2 000246   200014 116100                    CMPQ    XLEN,,AUTO
         2 000247   000252 605000 2                  TPL     s:4588

      456     4587    2               XSL$SENDTORQS.FLAGS = XSL$SENDTORQS.FLAGS + %XSL_MSG_MORE;

PL6.E3A0      #001=XSL$SENDTO File=XSL$SOCKET2.:TCA2TSI                          SUN 11/16/97 14:30 Page:38
   4587  2 000250   000200 621010                    EAX1    128,X0
         2 000251   100000 441100                    SXL1    0,,PR1

      457     4588    3           IF ENTRYFLAG = %SENDTO AND ADDR( DST) ~= ADDR( NIL) THEN DO;

   4588  2 000252   200012 235100                    LDA     ENTRYFLAG,,AUTO
         2 000253   000273 601000 2                  TNZ     s:4593
         2 000254   200010 236100                    LDQ     @DST,,AUTO
         2 000255   000001 116000 xsym               CMPQ    B_VECTNIL+1
         2 000256   000273 600000 2                  TZE     s:4593

      458     4589    3               XSL$SENDTORQS.NAMELEN = DSTLEN;

   4589  2 000257   200011 474500                    LDP4    @DSTLEN,,AUTO
         2 000260   400000 720100                    LXL0    0,,PR4
         2 000261   100001 740100                    STX0    1,,PR1

      459     4590    3               CALL XSL$HTONADDR( XSL$SENDTORQS.NAME, DST);

   4590  2 000262   200017 756100                    STQ     XPTR$+2,,AUTO
         2 000263   000000 236000 xsym               LDQ     XSL_KEYBUF$
         2 000264   000010 036000 3                  ADLQ    8
         2 000265   200016 756100                    STQ     XPTR$+1,,AUTO
         2 000266   200016 630500                    EPPR0   XPTR$+1,,AUTO
         2 000267   000020 631400 xsym               EPPR1   B_VECTNIL+16
         2 000270   000000 701000 xent               TSX1    XSL$HTONADDR
         2 000271   000000 011000                    NOP     0

      460     4591    3               END;

   4591  2 000272   000300 710000 2                  TRA     s:4596

      461     4592    3           ELSE DO;

      462     4593    3               XSL$SENDTORQS.NAMELEN = SIZEC( SOCK.PEERNAME);

   4593  2 000273   000024 220003                    LDX0    20,DU
PL6.E3A0      #001=XSL$SENDTO File=XSL$SOCKET2.:TCA2TSI                          SUN 11/16/97 14:30 Page:39
         2 000274   100001 740100                    STX0    1,,PR1

      463     4594    3               XSL$SENDTORQS.NAME = SOCK.PEERNAME;

   4594  2 000275   000100 100500                    MLR     fill='000'O
         2 000276   000011 000020                    ADSC9   9,,PR0                   cn=0,n=16
         2 000277   100001 400020                    ADSC9   1,,PR1                   cn=2,n=16

      464     4595    3               END;

      465     4596    2           CALL XSL$CL_WRITE( SOCK, LENGTHC( XSL$SENDTORQS), XLEN, XMSG)

   4596  2 000300   200015 236100                    LDQ     XPTR$,,AUTO
         2 000301   200021 756100                    STQ     XPTR$+4,,AUTO
         2 000302   200014 630500                    EPPR0   XLEN,,AUTO
         2 000303   200020 450500                    STP0    XPTR$+3,,AUTO
         2 000304   000012 236000 3                  LDQ     10
         2 000305   200013 235100                    LDA     SOCK$,,AUTO
         2 000306   200016 757100                    STAQ    XPTR$+1,,AUTO
         2 000307   200016 630500                    EPPR0   XPTR$+1,,AUTO
         2 000310   000022 631400 xsym               EPPR1   B_VECTNIL+18
         2 000311   000000 701000 xent               TSX1    XSL$CL_WRITE
         2 000312   000352 702000 2                  TSX2    ERRWRITE

      466     4597    2             ALTRET( ERRWRITE);
      467     4598    2           END;

   4598  2 000313   000342 710000 2                  TRA     s:4606

      468     4599    2       ELSE DO;

      469     4600    2           XSL$SENDRQS = XSL_SENDRQS;

   4600  2 000314   000000 236000 1                  LDQ     XSL_SENDRQS
         2 000315   000000 471400 xsym               LDP1    XSL_KEYBUF$
         2 000316   100000 756100                    STQ     0,,PR1

PL6.E3A0      #001=XSL$SENDTO File=XSL$SOCKET2.:TCA2TSI                          SUN 11/16/97 14:30 Page:40
      470     4601    2           IF ENTRYFLAG = %SEND THEN

   4601  2 000317   200012 235100                    LDA     ENTRYFLAG,,AUTO
         2 000320   000001 115007                    CMPA    1,DL
         2 000321   000327 601000 2                  TNZ     s:4603

      471     4602    2               XSL$SENDRQS.FLAGS = MOD( FLAGS, %XSL_MSG_MORE);

   4602  2 000322   200007 473500                    LDP3    @FLAGS,,AUTO
         2 000323   300000 236100                    LDQ     0,,PR3
         2 000324   000177 376007                    ANQ     127,DL
         2 000325   000000 620006                    EAX0    0,QL
         2 000326   100000 440100                    SXL0    0,,PR1

      472     4603    2           CALL XSL$CL_WRITE( SOCK, LENGTHC( XSL$SENDRQS), XLEN, XMSG)

   4603  2 000327   200015 236100                    LDQ     XPTR$,,AUTO
         2 000330   200021 756100                    STQ     XPTR$+4,,AUTO
         2 000331   200014 633500                    EPPR3   XLEN,,AUTO
         2 000332   200020 453500                    STP3    XPTR$+3,,AUTO
         2 000333   000005 236000 3                  LDQ     5
         2 000334   200013 235100                    LDA     SOCK$,,AUTO
         2 000335   200016 757100                    STAQ    XPTR$+1,,AUTO
         2 000336   200016 630500                    EPPR0   XPTR$+1,,AUTO
         2 000337   000022 631400 xsym               EPPR1   B_VECTNIL+18
         2 000340   000000 701000 xent               TSX1    XSL$CL_WRITE
         2 000341   000352 702000 2                  TSX2    ERRWRITE

      473     4604    2             ALTRET( ERRWRITE);
      474     4605    2           END;

      475     4606    1       RESULT = RESULT + XLEN;

   4606  2 000342   200003 470500                    LDP0    @RESULT,,AUTO
         2 000343   000000 236100                    LDQ     0,,PR0
         2 000344   200014 036100                    ADLQ    XLEN,,AUTO
         2 000345   000000 756100                    STQ     0,,PR0
PL6.E3A0      #001=XSL$SENDTO File=XSL$SOCKET2.:TCA2TSI                          SUN 11/16/97 14:30 Page:41

      476     4607    1       SOCK.FLAGS.SELWRITE = '1'B;

   4607  2 000346   200013 471500                    LDP1    SOCK$,,AUTO
         2 000347   000020 236003                    LDQ     16,DU
         2 000350   100001 256100                    ORSQ    1,,PR1

      477     4608    1   SUCCESS:
      478     4609    1       RETURN;

   4609  2 000351   000000 702200 xent  SUCCESS      TSX2  ! X66_ARET

      479     4610    1   ERRWRITE:
      480     4611    2       IF B$TCB.ALT$->B$ALT.ERR.CODE = %E$LD THEN DO;

   4611  2 000352   000000 470400 xsym  ERRWRITE     LDP0    B$TCB$
         2 000353   000000 471500                    LDP1    0,,PR0
         2 000354   100102 236100                    LDQ     66,,PR1
         2 000355   377770 376007                    ANQ     131064,DL
         2 000356   000070 116007                    CMPQ    56,DL
         2 000357   000402 601000 2                  TNZ     s:4617

      481     4612    2           XLEN = XLEN - SOCK.RCRBYTSIZ;

   4612  2 000360   200013 473500                    LDP3    SOCK$,,AUTO
         2 000361   300017 236100                    LDQ     15,,PR3
         2 000362   000022 772000                    QRL     18
         2 000363   200016 756100                    STQ     XPTR$+1,,AUTO
         2 000364   200014 236100                    LDQ     XLEN,,AUTO
         2 000365   200016 136100                    SBLQ    XPTR$+1,,AUTO
         2 000366   200014 756100                    STQ     XLEN,,AUTO

      482     4613    2           XPTR$ = PINCRC( XPTR$, SOCK.RCRBYTSIZ);

   4613  2 000367   300017 236100                    LDQ     15,,PR3
         2 000370   000022 772000                    QRL     18
         2 000371   000020 736000                    QLS     16
PL6.E3A0      #001=XSL$SENDTO File=XSL$SOCKET2.:TCA2TSI                          SUN 11/16/97 14:30 Page:42
         2 000372   200015 036100                    ADLQ    XPTR$,,AUTO
         2 000373   200015 756100                    STQ     XPTR$,,AUTO

      483     4614    2           RESULT = RESULT + SOCK.RCRBYTSIZ;

   4614  2 000374   200003 471500                    LDP1    @RESULT,,AUTO
         2 000375   300017 236100                    LDQ     15,,PR3
         2 000376   000022 772000                    QRL     18
         2 000377   100000 036100                    ADLQ    0,,PR1
         2 000400   100000 756100                    STQ     0,,PR1

      484     4615    2           GOTO WRITE_LOOP;

   4615  2 000401   000224 710000 2                  TRA     WRITE_LOOP

      485     4616    2           END;
      486     4617    2       IF B$TCB.ALT$->B$ALT.ERR.CODE = %E$NODAT THEN DO;

   4617  2 000402   021000 116007                    CMPQ    8704,DL
         2 000403   000452 601000 2                  TNZ     BAILOUTM1

      487     4618    3           IF NOT SOCK.FLAGS.BLOCKING THEN DO;

   4618  2 000404   200013 473500                    LDP3    SOCK$,,AUTO
         2 000405   300001 430100                    FSZN    1,,PR3
         2 000406   000415 604000 2                  TMI     s:4624

      488     4619    3               IF RESULT > 0 THEN

   4619  2 000407   200003 474500                    LDP4    @RESULT,,AUTO
         2 000410   400000 235100                    LDA     0,,PR4
         2 000411   000351 605400 2                  TPNZ    SUCCESS

      489     4620    3                   GOTO SUCCESS;
      490     4621    3               XSL_ERRNO = %E$WOULDBLOCK;

   4621  2 000412   000136 235007                    LDA     94,DL
PL6.E3A0      #001=XSL$SENDTO File=XSL$SOCKET2.:TCA2TSI                          SUN 11/16/97 14:30 Page:43
         2 000413   000000 755000 xsym               STA     XSL_ERRNO

      491     4622    3               GOTO BAILOUT;

   4622  2 000414   000454 710000 2                  TRA     BAILOUT

      492     4623    3               END;
      493     4624    2           IF SOCK.MAXRDS = 0 THEN

   4624  2 000415   300020 720100                    LXL0    16,,PR3
         2 000416   000423 601000 2                  TNZ     s:4627

      494     4625    2               CALL M$WAIT( XSL_WAIT1SEC);

   4625  2 000417   000000 630400 xsym               EPPR0   XSL_WAIT1SEC
         2 000420   020006 713400                    CLIMB   8198
         2 000421   400400 401760                    pmme    nvectors=2
         2 000422   000451 710000 2                  TRA     s:4634

      495     4626    3           ELSE DO INHIBIT;

      496     4627    3               XSL_UETIME = 0;

   4627  2 000423   000000 450200 xsym               STZ   ! XSL_UETIME

      497     4628    4               DO WHILE( XSL_UETIME = 0);

   4628  2 000424   000000 235200 xsym               LDA   ! XSL_UETIME
         2 000425   000451 601200 2                  TNZ   ! s:4634

      498     4629    4                   IF SOCK.FLAGS.SELWRITE THEN EXIT;

   4629  2 000426   200013 470700                    LDP0  ! SOCK$,,AUTO
         2 000427   000001 236300                    LDQ   ! 1,,PR0
         2 000430   000020 316203                    CANQ  ! 16,DU
         2 000431   000451 601200 2                  TNZ   ! s:4634

PL6.E3A0      #001=XSL$SENDTO File=XSL$SOCKET2.:TCA2TSI                          SUN 11/16/97 14:30 Page:44
      499     4630    4                   CALL XSL$EVLOG( 'WT', ADDR( SOCK));

   4630  2 000432   200013 236300                    LDQ   ! SOCK$,,AUTO
         2 000433   200016 756300                    STQ   ! XPTR$+1,,AUTO
         2 000434   200016 631700                    EPPR1 ! XPTR$+1,,AUTO
         2 000435   200021 451700                    STP1  ! XPTR$+4,,AUTO
         2 000436   000013 236200 3                  LDQ   ! 11
         2 000437   200020 756300                    STQ   ! XPTR$+3,,AUTO
         2 000440   200020 630700                    EPPR0 ! XPTR$+3,,AUTO
         2 000441   000020 631600 xsym               EPPR1 ! B_VECTNIL+16
         2 000442   000000 701200 xent               TSX1  ! XSL$EVLOG
         2 000443   000000 011200                    NOP   ! 0

      500     4631    4                   CALL M$WAIT( XSL_WAIT1DAY);

   4631  2 000444   000000 630600 xsym               EPPR0 ! XSL_WAIT1DAY
         2 000445   020006 713600                    CLIMB ! 8198
         2 000446   400400 401760                    pmme    nvectors=2

      501     4632    4                   END;

   4632  2 000447   000000 235200 xsym               LDA   ! XSL_UETIME
         2 000450   000426 600200 2                  TZE   ! s:4629

      502     4633    3               END;

      503     4634    2           GOTO WRITE_LOOP;

   4634  2 000451   000224 710000 2                  TRA     WRITE_LOOP

      504     4635    2           END;
      505     4636    1   BAILOUTM1:
      506     4637    1       XSL_ERRNO = %E$FAILURE;  /* make appl get errcode from TCB */

   4637  2 000452   000001 335007       BAILOUTM1    LCA     1,DL
         2 000453   000000 755000 xsym               STA     XSL_ERRNO

PL6.E3A0      #001=XSL$SENDTO File=XSL$SOCKET2.:TCA2TSI                          SUN 11/16/97 14:30 Page:45
      507     4638    1   BAILOUT:
      508     4639    1       RESULT = %E$FAILURE;

   4639  2 000454   000001 335007       BAILOUT      LCA     1,DL
         2 000455   200003 470500                    LDP0    @RESULT,,AUTO
         2 000456   000000 755100                    STA     0,,PR0

      509     4640    1       ALTRETURN;

   4640  2 000457   000000 702200 xent               TSX2  ! X66_AALT

XSL_SENDRQS
 Sect OctLoc
   1     000   000023 000000                                                    ....

XSL_SENDTORQS
 Sect OctLoc
   1     001   000025 000000   000000 000000   000000 000000   000000 000000    ................
   1     005   000000 000000   000000 ******                                    ........

(unnamed)
 Sect OctLoc
   1     007   127124 040040                                                    WT

(unnamed)
 Sect OctLoc
   3     000   000000 006000   000000 000000   000017 006000   000004 006000    ................
   3     004   000027 006000   000006 006000   000000 006003   777757 777777    ................
   3     010   000001 400000   000000 000026   000011 006000   000007 006000    ................
      510     4641
      511     4642    1   END XSL$SENDTO;
      512     4643        %EOD;

PL6.E3A0      #001=XSL$SENDTO File=XSL$SOCKET2.:TCA2TSI                          SUN 11/16/97 14:30 Page:46
--  Include file information  --

   XSL_SOCKMSGS_M.:TCA2TOU  is referenced.
   XSL_SOCKMSGS_E.:TCA2TOU  is referenced.
   XSL_INTERNAL_M.:TCA2TOU  is referenced.
   XSL_PERR_C.:TCA2TOU  is referenced.
   XSL_SOCKET_M.:TCA2TOU  is referenced.
   XSL_SOCKET_E.:TCA2TOU  is referenced.
   CP_6.:LIBRARY  cannot be made into a system file and is referenced.
   B_ERRORS_C.:LIBRARY  is referenced.
   B$JIT_C.:E05TOU  was found in the system file and is never referenced.
   CP_6_C.:E05TOU  was found in the system file and is referenced.
      No diagnostics issued in procedure XSL$SENDTO.
PL6.E3A0      #001=XSL$SENDTO File=XSL$SOCKET2.:TCA2TSI                          SUN 11/16/97 14:30 Page:47

 **** Variables and constants ****

  ****  Section 001 RoData XSL$SENDTO

  ****  Scalars and arrays  ****
OctLoc.c.b A Datatyp(siz) R M Lvl/name                 OctLoc.c.b A Datatyp(siz) R M Lvl/name

     0-0-0/w STRC        r     1 XSL_SENDRQS                1-0-0/w STRC(198)   r     1 XSL_SENDTORQS

  ****  Auto variables  ****

  ****  Scalars and arrays  ****
OctLoc.c.b A Datatyp(siz) R M Lvl/name                 OctLoc.c.b A Datatyp(siz) R M Lvl/name

    10-0-0/w PTR         r     1 @DST                      11-0-0/w PTR         r     1 @DSTLEN
     7-0-0/w PTR         r     1 @FLAGS                     6-0-0/w PTR         r     1 @LEN
     5-0-0/w PTR         r     1 @MSG                       3-0-0/w PTR         r     1 @RESULT
     4-0-0/w PTR         r     1 @SOCK#                    *0-0-0/w STRC(180)   r     1 DST
    *0-0-0/w SBIN        r     1 DSTLEN                    12-0-0/w SBIN        r     1 ENTRYFLAG
    *0-0-0/w UBIN        r     1 FLAGS                     *0-0-0/w SBIN        r     1 LEN
    *0-0-0/c ACHR        r     1 MSG                       *0-0-0/w SBIN        r     1 RESULT
    *0-0-0/w SBIN        r     1 SOCK#                     13-0-0/w PTR         r     1 SOCK$
    14-0-0/w SBIN        r     1 XLEN                      15-0-0/c PTR         r     1 XPTR$

  ****  SYMREF variables  ****

  ****  Scalars and arrays  ****
OctLoc.c.b A Datatyp(siz) R M Lvl/name                 OctLoc.c.b A Datatyp(siz) R M Lvl/name

     0-0-0/w PTR         r     1 B$TCB$                     0-0-0/w SBIN        r     1 XSL_ERRNO
     0-0-0/w PTR         r     1 XSL_KEYBUF$                0-0-0/w PTR         r     1 XSL_SOCK$
     0-0-0/w SBIN        r     1 XSL_UETIME                 0-0-0/d STRC(216)   r     1 XSL_WAIT1DAY
     0-0-0/d STRC(216)   r     1 XSL_WAIT1SEC

  ****  BASED and DCB variables  ****

  ****  Scalars and arrays  ****
PL6.E3A0      #001=XSL$SENDTO File=XSL$SOCKET2.:TCA2TSI                          SUN 11/16/97 14:30 Page:48
OctLoc.c.b A Datatyp(siz) R M Lvl/name                 OctLoc.c.b A Datatyp(siz) R M Lvl/name

     0-0-0/w STRC(2448)  r     1 B$ALT                      0-0-0/w STRC(144)   r     1 B$TCB
     0-0-0/d ASTR(3528)  r     1 F$DCB                      0-0-0/w STRC(720)   r     1 SOCK
     0-0-0/c ACHR        r     1 XMSG                       0-0-0/w STRC        r     1 XSL$SENDRQS
     0-0-0/w STRC(198)   r     1 XSL$SENDTORQS


   Procedure XSL$SENDTO requires 304 words for executable code.
   Procedure XSL$SENDTO requires 20 words of local(AUTO) storage.
PL6.E3A0      #001=XSL$SENDTO File=XSL$SOCKET2.:TCA2TSI                          SUN 11/16/97 14:30 Page:49
          *** CROSS REFERENCE LISTING ***
**     DENOTES     IDENTIFIER DEFINITION
<<                 IDENTIFIER'S VALUE SET
>>                 IDENTIFIER'S VALUE USED
<>                 IDENTIFIER SET AND/OR USED
--                 IDENTIFIER REFERENCED
PL6.E3A0      #001=XSL$SENDTO File=XSL$SOCKET2.:TCA2TSI                          SUN 11/16/97 14:30 Page:50
          MINI XREF LISTING

B$ALT.CODE
      1528**DCL      1528--REDEF    1529--REDEF    1529--REDEF
B$ALT.ERR.CODE
      1530**DCL      4611>>IF       4617>>IF
B$ALT.ERR.ERR#
      1530**DCL      1530--REDEF
B$ALT.EVID
      1529**DCL      1529--REDEF    1529--REDEF
B$TCB.ALT$
      1535**DCL      4611>>IF       4617>>IF
B$TCB$
      4479**DCL      1535--IMP-PTR  4611>>IF       4617>>IF
BAILOUT
      4639**LABEL    4519--CALLALT  4533--CALLALT  4540--GOTO     4545--CALLALT  4548--GOTO     4558--GOTO
      4564--GOTO     4568--GOTO     4622--GOTO
COMMONDCBN
      4533**LABEL    4503--GOTO     4513--GOTO     4525--GOTO
COMMONSOCK
      4519**LABEL    4508--GOTO     4530--GOTO
DST
      2658**DCL       317--PROC     4505--ENTRY    4545<>CALL     4588--IF       4590<>CALL
DSTLEN
      4486**DCL       317--PROC     4505--ENTRY    4545<>CALL     4589>>ASSIGN
ENTRYFLAG
      4487**DCL      4502<<ASSIGN   4507<<ASSIGN   4512<<ASSIGN   4517<<ASSIGN   4524<<ASSIGN   4529<<ASSIGN
      4544>>IF       4588>>IF       4601>>IF
ERRWRITE
      4611**LABEL    4596--CALLALT  4603--CALLALT
F$DCB.ACTPOS
      1598**DCL      1598--REDEF
F$DCB.ARS#
      1572**DCL      1572--REDEF
PL6.E3A0      #001=XSL$SENDTO File=XSL$SOCKET2.:TCA2TSI                          SUN 11/16/97 14:30 Page:51
F$DCB.ATTR
      1591**DCL      1592--REDEF
F$DCB.BORROW
      1606**DCL      1606--REDEF    1606--REDEF    1606--REDEF
F$DCB.DCBNAME.L
      1620**DCL      1620--IMP-SIZ
F$DCB.EOMCHAR#
      1576**DCL      1576--REDEF
F$DCB.FCN.CNT
      1611**DCL      4572>>DOWHILE
F$DCB.FLDID
      1601**DCL      1601--REDEF
F$DCB.FORM$
      1595**DCL      1595--REDEF
F$DCB.FSECT
      1611**DCL      1611--REDEF
F$DCB.FSN#
      1588**DCL      1588--REDEF    1588--REDEF    1589--REDEF
F$DCB.HEADER$
      1594**DCL      1594--REDEF
F$DCB.IXTNSIZE#
      1592**DCL      1592--REDEF
F$DCB.LASTSTA$
      1581**DCL      1581--REDEF
F$DCB.LVL
      1607**DCL      1607--REDEF
F$DCB.NAME#.C
      1582**DCL      1582--REDEF
F$DCB.NOEOF
      1604**DCL      1604--REDEF
F$DCB.NRECS#
      1593**DCL      1593--REDEF
F$DCB.NRECX
      1612**DCL      1612--REDEF
F$DCB.OHDR
      1604**DCL      1604--REDEF
PL6.E3A0      #001=XSL$SENDTO File=XSL$SOCKET2.:TCA2TSI                          SUN 11/16/97 14:30 Page:52
F$DCB.ORG#
      1587**DCL      1587--REDEF
F$DCB.PRECNO
      1610**DCL      1610--REDEF
F$DCB.RCSZ
      1616**DCL      1616--REDEF
F$DCB.RES#
      1583**DCL      1583--REDEF
F$DCB.SETX
      1595**DCL      1595--REDEF
F$DCB.TAB$
      1595**DCL      1595--REDEF
F$DCB.TDA
      1609**DCL      1610--REDEF
F$DCB.WSN#
      1583**DCL      1583--REDEF
FLAGS
      4491**DCL       317--PROC     4505--ENTRY    4510--ENTRY    4515--ENTRY    4585>>ASSIGN   4602>>ASSIGN
LATER
      4535**LABEL    4520--GOTO
LEN
      4492**DCL       317--PROC     4493--IMP-SIZ  4505--ENTRY    4510--ENTRY    4515--ENTRY    4522--ENTRY
      4527--ENTRY    4556>>IF       4578>>ASSIGN
M$WAIT
      1512**DCL-ENT  4625--CALL     4631--CALL
MSG
      4493**DCL       317--PROC     4505--ENTRY    4510--ENTRY    4515--ENTRY    4522--ENTRY    4527--ENTRY
      4579--ASSIGN
RESULT
      4494**DCL       317--PROC     4505--ENTRY    4510--ENTRY    4515--ENTRY    4522--ENTRY    4527--ENTRY
      4551<<ASSIGN   4552<>CALL     4552<>CALL     4580<<ASSIGN   4606<<ASSIGN   4606>>ASSIGN   4614<<ASSIGN
      4614>>ASSIGN   4619>>IF       4639<<ASSIGN
SOCK
      3005**DCL      4545<>CALL     4574<>CALL     4596<>CALL     4603<>CALL     4630--CALL
SOCK.BUFPND#
      3122**DCL      4572>>DOWHILE
PL6.E3A0      #001=XSL$SENDTO File=XSL$SOCKET2.:TCA2TSI                          SUN 11/16/97 14:30 Page:53
SOCK.DCB#
      3038**DCL      4572--DOWHILE
SOCK.FLAGS.BLOCKING
      3024**DCL      4618>>IF
SOCK.FLAGS.CONNECT
      3019**DCL      4566>>IF
SOCK.FLAGS.REUSEADDR
      3025**DCL      4550>>IF
SOCK.FLAGS.SELWRITE
      3029**DCL      4582<<ASSIGN   4607<<ASSIGN   4629>>IF
SOCK.FLAGS.SENDSHUT
      3017**DCL      4538>>IF
SOCK.FLAGS.SOCKET
      3023**DCL      4543>>IF       4562>>IF
SOCK.MAXBUF
      3123**DCL      4572>>DOWHILE
SOCK.MAXRDS
      3124**DCL      4572>>DOWHILE  4624>>IF
SOCK.NBACCEPT_SOCK$
      3127**DCL      3128--REDEF
SOCK.PEERNAME
      3098**DCL      4593--ASSIGN   4594>>ASSIGN
SOCK.RCRBYTSIZ
      3121**DCL      4536>>IF       4537<<ASSIGN   4586>>IF       4612>>ASSIGN   4613>>ASSIGN   4614>>ASSIGN
SOCK.SOCK#
      3014**DCL      4551>>ASSIGN
SOCK.TYPE
      3012**DCL      4542>>IF       4566>>IF       4583>>IF
SOCK#
      4495**DCL       317--PROC     4505--ENTRY    4510--ENTRY    4515--ENTRY    4519<>CALL     4522--ENTRY
      4527--ENTRY    4533<>CALL
SOCK$
      4496**DCL      3005--IMP-PTR  4535<<ASSIGN   4536>>IF       4537>>ASSIGN   4538>>IF       4542>>IF
      4543>>IF       4545>>CALL     4550>>IF       4551>>ASSIGN   4562>>IF       4566>>IF       4566>>IF
      4572>>DOWHILE  4572>>DOWHILE  4572>>DOWHILE  4572>>DOWHILE  4574>>CALL     4582>>ASSIGN   4583>>IF
      4586>>IF       4594>>ASSIGN   4596>>CALL     4603>>CALL     4607>>ASSIGN   4612>>ASSIGN   4613>>ASSIGN
PL6.E3A0      #001=XSL$SENDTO File=XSL$SOCKET2.:TCA2TSI                          SUN 11/16/97 14:30 Page:54
      4614>>ASSIGN   4618>>IF       4624>>IF       4629>>IF       4630>>CALL
SUCCESS
      4609**LABEL    4620--GOTO
WRITE_LOOP
      4582**LABEL    4615--GOTO     4634--GOTO
WRITE_READY
      4578**LABEL    4574--CALLALT
XLEN
      4497**DCL      4498--IMP-SIZ  4578<<ASSIGN   4586>>IF       4596<>CALL     4596>>CALL     4603<>CALL
      4603>>CALL     4606>>ASSIGN   4612<<ASSIGN   4612>>ASSIGN
XMSG
      4498**DCL      4596<>CALL     4603<>CALL
XPTR$
      4499**DCL      4498--IMP-PTR  4579<<ASSIGN   4596>>CALL     4603>>CALL     4613<<ASSIGN   4613>>ASSIGN
XSL$CL_WRITE
      4470**DCL-ENT  4596--CALL     4603--CALL
XSL$DCBNPTR
      4473**DCL-ENT  4533--CALL
XSL$EVLOG
      4476**DCL-ENT  4630--CALL
XSL$GETBUF
      4477**DCL-ENT  4574--CALL
XSL$HTONADDR
      4471**DCL-ENT  4590--CALL
XSL$QSETSOCKOPT
      4474**DCL-ENT  4552--CALL
XSL$SENDRQS
      4353**DCL      4600<<ASSIGN   4603--CALL
XSL$SENDRQS.FLAGS
      4360**DCL      4602<<ASSIGN
XSL$SENDTORQS
      4432**DCL      4584<<ASSIGN   4596--CALL
XSL$SENDTORQS.FLAGS
      4439**DCL      4585<<ASSIGN   4587<<ASSIGN   4587>>ASSIGN
XSL$SENDTORQS.NAME
      4460**DCL      4590<>CALL     4594<<ASSIGN
PL6.E3A0      #001=XSL$SENDTO File=XSL$SOCKET2.:TCA2TSI                          SUN 11/16/97 14:30 Page:55
XSL$SENDTORQS.NAMELEN
      4440**DCL      4589<<ASSIGN   4593<<ASSIGN
XSL$SOCKOPEN
      4475**DCL-ENT  4545--CALL
XSL$SOCKPTR
      4472**DCL-ENT  4519--CALL
XSL_ERRNO
      4480**DCL      4481--REDEF    4539<<ASSIGN   4547<<ASSIGN   4557<<ASSIGN   4563<<ASSIGN   4567<<ASSIGN
      4621<<ASSIGN   4637<<ASSIGN
XSL_KEYBUF$
      4482**DCL      4353--IMP-PTR  4432--IMP-PTR  4584>>ASSIGN   4585>>ASSIGN   4587>>ASSIGN   4587>>ASSIGN
      4589>>ASSIGN   4590>>CALL     4593>>ASSIGN   4594>>ASSIGN   4600>>ASSIGN   4602>>ASSIGN
XSL_SENDRQS
      4327**DCL      4600>>ASSIGN
XSL_SENDTORQS
      4379**DCL      4584>>ASSIGN
XSL_SOCK$
      4481**DCL      4519<>CALL     4533<>CALL     4535>>ASSIGN
XSL_UETIME
      4484**DCL      4627<<ASSIGN   4628>>DOWHILE
XSL_WAIT1DAY
      1548**DCL      4631<>CALL
XSL_WAIT1SEC
      1562**DCL      4625<>CALL
PL6.E3A0      #001=XSL$SENDTO File=XSL$SOCKET2.:TCA2TSI                          SUN 11/16/97 14:30 Page:56
              *** CROSS REFERENCE LISTING ***
    **     DENOTES     IDENTIFIER DEFINITION
    <<                 IDENTIFIER'S VALUE SET
    >>                 IDENTIFIER'S VALUE USED
    <>                 IDENTIFIER SET AND/OR USED
    --                 IDENTIFIER REFERENCED
PL6.E3A0      #001=XSL$SENDTO File=XSL$SOCKET2.:TCA2TSI                          SUN 11/16/97 14:30 Page:57
              MINI UREF LISTING

BAILOUTM1    4637**LABEL
M$ACCT    1471**DCL-ENT
M$ACTIVATE    1474**DCL-ENT
M$ALIB    1467**DCL-ENT
M$ASUSER    1469**DCL-ENT
M$ATTACH    1476**DCL-ENT
M$BADPP    1494**DCL-ENT
M$CGCTL    1475**DCL-ENT
M$CGINFO    1475**DCL-ENT
M$CHECK    1456**DCL-ENT
M$CHGUNIT    1514**DCL-ENT
M$CLOSE    1454**DCL-ENT
M$CLRSTK    1512**DCL-ENT
M$CMDVAR    1523**DCL-ENT
M$CONFIG    1484**DCL-ENT
M$CORRES    1459**DCL-ENT
M$CPEXIT    1468**DCL-ENT
M$CVM    1492**DCL-ENT
M$CVOL    1457**DCL-ENT
M$DCLFLD    1484**DCL-ENT
M$DEACTIVATE    1474**DCL-ENT
M$DELREC    1456**DCL-ENT
M$DEQ    1521**DCL-ENT
M$DETACH    1476**DCL-ENT
M$DEVICE    1458**DCL-ENT
M$DISPLAY    1521**DCL-ENT
M$DISPRES    1461**DCL-ENT
M$DLIB    1467**DCL-ENT
M$DRIBBLE    1484**DCL-ENT
M$DRTN    1512**DCL-ENT
M$DSUSER    1469**DCL-ENT
M$ENQ    1520**DCL-ENT
PL6.E3A0      #001=XSL$SENDTO File=XSL$SOCKET2.:TCA2TSI                          SUN 11/16/97 14:30 Page:58
M$EOM    1479**DCL-ENT
M$ERASE    1485**DCL-ENT
M$ERR    1466**DCL-ENT
M$ERRMSG    1517**DCL-ENT
M$EVENT    1509**DCL-ENT
M$EXHUME    1518**DCL-ENT
M$EXIT    1466**DCL-ENT
M$EXTEND    1458**DCL-ENT
M$FDP    1490**DCL-ENT
M$FDS    1489**DCL-ENT
M$FEBOOT    1482**DCL-ENT
M$FECTL    1483**DCL-ENT
M$FEDUMP    1482**DCL-ENT
M$FID    1517**DCL-ENT
M$FINDPROC    1471**DCL-ENT
M$FSUSER    1469**DCL-ENT
M$FVP    1491**DCL-ENT
M$FWCG    1475**DCL-ENT
M$GBPL    1495**DCL-ENT
M$GDDL    1491**DCL-ENT
M$GDP    1490**DCL-ENT
M$GDS    1489**DCL-ENT
M$GETDCB    1460**DCL-ENT
M$GETMOUSE    1500**DCL-ENT
M$GETPM    1501**DCL-ENT
M$GJOB    1519**DCL-ENT
M$GLINEATTR    1479**DCL-ENT
M$GOODPP    1494**DCL-ENT
M$GPLATEN    1487**DCL-ENT
M$GPROMPT    1486**DCL-ENT
M$GTRMATTR    1480**DCL-ENT
M$GTRMCTL    1478**DCL-ENT
M$GTRMTAB    1481**DCL-ENT
M$GVP    1490**DCL-ENT
M$HELP    1517**DCL-ENT
M$INT    1509**DCL-ENT
PL6.E3A0      #001=XSL$SENDTO File=XSL$SOCKET2.:TCA2TSI                          SUN 11/16/97 14:30 Page:59
M$INTRTN    1470**DCL-ENT
M$IOQ    1505**DCL-ENT
M$JOBSTATS    1519**DCL-ENT
M$KEYIN    1459**DCL-ENT
M$LDEV    1454**DCL-ENT
M$LDTRC    1467**DCL-ENT
M$LIMIT    1460**DCL-ENT
M$LINES    1459**DCL-ENT
M$LINK    1466**DCL-ENT
M$MADMUCK    1462**DCL-ENT
M$MAKUSER    1493**DCL-ENT
M$MBS    1461**DCL-ENT
M$MDFFLD    1485**DCL-ENT
M$MERC    1510**DCL-ENT
M$MERCS    1511**DCL-ENT
M$MIRROR    1505**DCL-ENT
M$MONINFO    1522**DCL-ENT
M$MPL    1495**DCL-ENT
M$NODEINFO    1486**DCL-ENT
M$NXTUSR    1520**DCL-ENT
M$OCMSG    1518**DCL-ENT
M$OLAY    1466**DCL-ENT
M$OPEN    1454**DCL-ENT
M$PAS    1495**DCL-ENT
M$PATHCON    1518**DCL-ENT
M$PDS    1489**DCL-ENT
M$PFIL    1456**DCL-ENT
M$PLATEN    1480**DCL-ENT
M$PRECORD    1458**DCL-ENT
M$PROCNAME    1471**DCL-ENT
M$PROFILE    1482**DCL-ENT
M$PROMPT    1478**DCL-ENT
M$RACST    1462**DCL-ENT
M$RDSYSLOG    1503**DCL-ENT
M$READ    1455**DCL-ENT
M$RELDCB    1460**DCL-ENT
PL6.E3A0      #001=XSL$SENDTO File=XSL$SOCKET2.:TCA2TSI                          SUN 11/16/97 14:30 Page:60
M$RELRES    1461**DCL-ENT
M$RELSTARF    1463**DCL-ENT
M$REM    1463**DCL-ENT
M$RENV    1510**DCL-ENT
M$REQUIRE    1462**DCL-ENT
M$RETRY    1511**DCL-ENT
M$RETRYS    1511**DCL-ENT
M$REW    1457**DCL-ENT
M$RLSFLD    1485**DCL-ENT
M$RPRIV    1513**DCL-ENT
M$RSPP    1492**DCL-ENT
M$RSWITCH    1514**DCL-ENT
M$RUE    1520**DCL-ENT
M$SAD    1493**DCL-ENT
M$SAVE    1469**DCL-ENT
M$SCON    1470**DCL-ENT
M$SCREECH    1468**DCL-ENT
M$SENV    1510**DCL-ENT
M$SETFMA    1454**DCL-ENT
M$SETFP    1483**DCL-ENT
M$SINPUT    1481**DCL-ENT
M$SLCFLD    1486**DCL-ENT
M$SMOUSE    1500**DCL-ENT
M$SMPRT    1492**DCL-ENT
M$SPRIV    1513**DCL-ENT
M$SSC    1493**DCL-ENT
M$SSWITCH    1513**DCL-ENT
M$STATE    1522**DCL-ENT
M$STD    1494**DCL-ENT
M$STIMER    1508**DCL-ENT
M$STLPP    1491**DCL-ENT
M$STRAP    1508**DCL-ENT
M$STRMATTR    1480**DCL-ENT
M$STRMCTL    1478**DCL-ENT
M$STRMTAB    1481**DCL-ENT
M$SYMBIO    1519**DCL-ENT
PL6.E3A0      #001=XSL$SENDTO File=XSL$SOCKET2.:TCA2TSI                          SUN 11/16/97 14:30 Page:61
M$SYSCON    1505**DCL-ENT
M$SYSID    1523**DCL-ENT
M$TDCLOSE    1504**DCL-ENT
M$TDIO    1504**DCL-ENT
M$TDOPEN    1503**DCL-ENT
M$TDREQCPU    1504**DCL-ENT
M$TEMPWROC    1498**DCL-ENT
M$TIME    1521**DCL-ENT
M$TRAP    1508**DCL-ENT
M$TRMISC    1483**DCL-ENT
M$TRMPRG    1479**DCL-ENT
M$TRTN    1512**DCL-ENT
M$TRUNC    1455**DCL-ENT
M$TTIMER    1508**DCL-ENT
M$UC    1478**DCL
M$UMPL    1495**DCL-ENT
M$UNFID    1517**DCL-ENT
M$UNLATCH    1474**DCL-ENT
M$UNSHARE    1471**DCL-ENT
M$USRFIELD    1514**DCL-ENT
M$VIRTUAL    1489**DCL-ENT
M$WEOF    1457**DCL-ENT
M$WRITE    1455**DCL-ENT
M$WRSYSLOG    1503**DCL-ENT
M$XCON    1509**DCL-ENT
M$XCONRTN    1470**DCL-ENT
M$XEQTIME    1522**DCL-ENT
M$XFLUSH    1463**DCL-ENT
M$XMOUSE    1500**DCL-ENT
M$XXX    1466**DCL-ENT
M$YC    1468**DCL-ENT
XSL$CL_READ    4469**DCL-ENT
XSL$QSEND    4515**ENTRY
XSL$QSENDTO    4505**ENTRY
XSL$QWRITE    4527**ENTRY
XSL$SEND    4510**ENTRY
PL6.E3A0      #001=XSL$SENDTO File=XSL$SOCKET2.:TCA2TSI                          SUN 11/16/97 14:30 Page:62
XSL$SENDTO     317**PROC
XSL$WRITE    4522**ENTRY
XSL_SOCK$$    4483**DCL

PL6.E3A0      #002=XSL$RECVFROM File=XSL$SOCKET2.:TCA2TSI                        SUN 11/16/97 14:32 Page:63
      513        1        /*T***********************************************************/
      514        2        /*T*                                                         */
      515        3        /*T* Copyright (c) Bull HN Information Systems Inc., 1997    */
      516        4        /*T*                                                         */
      517        5        /*T***********************************************************/
      518        6        /*F* NAME: recvfrom() and XSL$RECVFROM  --  Read Data With Options and Address
      519        7        ..::IT "Purpose:"
      520        8        .INL +4
      521        9        Receives a message from a socket into an application-specified buffer,
      522       10        along with the address of the message's sender.
      523       11        ..::IT "C Usage:"
      524       12        .INL 4
      525       13        .FIF
      526       14        status = recvfrom( s, buf, len, flags, from, fromlen );
      527       15        ..::IT "PL6 Usage:"
      528       16        .INL 4
      529       17        .FIF
      530       18        CALL XSL$RECVFROM( status, s, buf, len, flags, from, fromlen );
      531       19        ..::IT "Parameters:"
      532       20        .INL 4
      533       21        .FIF
      534       22        s           integer socket descriptor
      535       23
      536       24        buf         character array buffer
      537       25
      538       26        len         integer size of buf in characters
      539       27
      540       28        flags       integer bitflags of recvfrom options
      541       29
      542       30        from        sockaddr structure
      543       31
      544       32        fromlen     integer size of from in characters
      545       33        ..::IT "Results:"
      546       34        .INL 4
      547       35        .FIF
      548       36        status      integer number of characters received or error code
      549       37
PL6.E3A0      #002=XSL$RECVFROM File=XSL$SOCKET2.:TCA2TSI                        SUN 11/16/97 14:32 Page:64
      550       38        buf         character array buffer
      551       39
      552       40        from        sockaddr structure with address of message's sender
      553       41
      554       42        fromlen     integer number of significant characters in from
      555       43        ..::IT "Description:"
      556       44        The recvfrom() function receives a message from a connected socket and places
      557       45        it in the buffer specified.  Additionally, the network address of the
      558       46        message's sender is provided.
      559       47        .SPB
      560       48        The s parameter specifies the descriptor of the socket on which to receive.
      561       49        .SPB
      562       50        The buf parameter specifies an application-defined buffer to hold the
      563       51        message received from the socket.
      564       52        .SPB
      565       53        The len parameter specifies how large the buffer is, expressed as the
      566       54        number of characters it can hold.
      567       55        .SPB
      568       56        The flags parameter specifies recvfrom options.  The desired options are
      569       57        'ORed' together when coding the invocation.  The only options currently
      570       58        implemented are "out-of-band" and "peek".  The out-of-band option receives
      571       59        any message that was sent on the out-of-band data path if the socket supports
      572       60        it.  It is selected by coding MSG_OOB or %XSL_MSG_OOB in C or PL6 source,
      573       61        respectively.  The peek option copies a message into the buffer, but
      574       62        additionally leaves it in the recvfrom() queue so subsequent recvfrom() invocations
                62        see
      575       63        the same message. It is selected by coding MSG_PEEK or %XSL_MSG_PEEK in C or PL6 sou
                63        rce,
      576       64        respectively.
      577       65        .SPB
      578       66        The from parameter specifies an address buffer into which is placed the
      579       67        network address of the message's sender.
      580       68        .SPB
      581       69        The fromlen parameter specifies how large from is, expressed as the number
      582       70        of characters it can hold.
      583       71        .SPB
      584       72        If the recvfrom() function is successful, the status result contains the
PL6.E3A0      #002=XSL$RECVFROM File=XSL$SOCKET2.:TCA2TSI                        SUN 11/16/97 14:32 Page:65
      585       73        number of characters received.  This number is non-negative.
      586       74        On datagram sockets, if the buffer is not large enough to receive the
      587       75        entire message, the excess will be discarded.  The network address of
      588       76        the message's sender is placed into from, and fromlen is set to the number
      589       77        of significant characters in from.
      590       78        .SPB
      591       79        If the recvfrom() function is unsuccessful, the status result contains
      592       80        EFAILURE or E$FAILURE and the application must inspect errno or XSL_ERRNO
      593       81        to determine the specific error condition.  The XSL$RECVFROM procedure
      594       82        additionally ALTRETURNs if it is unsuccessful; it is otherwise identical
      595       83        to the recvfrom() function.
      596       84        .SPB
      597       85        If no data is available from a socket when recvfrom() is invoked, the action
      598       86        taken depends on the socket mode.  The mode of a socket is defined
      599       87        to be either "blocking" or "nonblocking".  If the socket is blocking
      600       88        (which is the default mode) the application is blocked (i.e., suspended)
      601       89        until a message is received from the network.  If the socket is nonblocking,
      602       90        the condition is treated as an EWOULDBLOCK error.
      603       91        .SPB
      604       92        The mode of a socket can be changed with either fcntl() or ioctl().
      605       93        .SPB
      606       94        Recvfrom() may be used on sockets regardless of whether connect() has been
      607       95        issued.
      608       96        .SPB
      609       97        If shutdown() has been invoked for this socket to inhibit reception of
      610       98        data, or if the peer is no longer connected, all recvfrom() operations
      611       99        are treated as if zero bytes of data were read.
      612      100        ..::IT "Errors:"
      613      101        Following are the possible error conditions reported when the recvfrom()
      614      102        function is unsuccessful.  Equates for the possible values can be found in
      615      103        <xsl_errno.h> or XSL_PERR_C for C and PL6 source, respectively.
      616      104
      617      105        .FIF
      618      106
      619      107        C #define               PL6 %EQU
      620      108        ----------------------- -----------------------
      621      109        EBADF                   E$BADF
PL6.E3A0      #002=XSL$RECVFROM File=XSL$SOCKET2.:TCA2TSI                        SUN 11/16/97 14:32 Page:66
      622      110        .FIN
      623      111        The descriptor s is not appropriate to identify a socket.
      624      112        .FIF
      625      113
      626      114        ENOTSOCK                E$NOTSOCK
      627      115        .FIN
      628      116        The descriptor s is no longer valid to identify a socket.
      629      117        .FIF
      630      118
      631      119        EWOULDBLOCK             E$WOULDBLOCK
      632      120        .FIN
      633      121        There is no data available from this nonblocking socket.
      634      122        .FIF
      635      123        */
      636      124        /*F* NAME: recv() and XSL$RECV  --  Read Data With Options
      637      125        ..::IT "Purpose:"
      638      126        .INL +4
      639      127        Receives a message from a connected socket into an
      640      128        application-specified buffer.
      641      129        ..::IT "C Usage:"
      642      130        .INL 4
      643      131        .FIF
      644      132        status = recv( s, buf, len, flags );
      645      133        ..::IT "PL6 Usage:"
      646      134        .INL 4
      647      135        .FIF
      648      136        CALL XSL$RECV( status, s, buf, len, flags );
      649      137        ..::IT "Parameters:"
      650      138        .INL 4
      651      139        .FIF
      652      140        s           integer socket descriptor
      653      141
      654      142        buf         character array buffer
      655      143
      656      144        len         integer size of buf in characters
      657      145
      658      146        flags       integer bitflags of recv options
PL6.E3A0      #002=XSL$RECVFROM File=XSL$SOCKET2.:TCA2TSI                        SUN 11/16/97 14:32 Page:67
      659      147        ..::IT "Results:"
      660      148        .INL 4
      661      149        .FIF
      662      150        status      integer number of characters received or error code
      663      151
      664      152        buf         character array buffer
      665      153        ..::IT "Description:"
      666      154        The recv() function receives a message from a connected socket and places
      667      155        it in the buffer specified.
      668      156        .SPB
      669      157        The s parameter specifies the descriptor of the socket on which to receive.
      670      158        .SPB
      671      159        The buf parameter specifies an application-defined buffer to hold the
      672      160        message received from the socket.
      673      161        .SPB
      674      162        The len parameter specifies how large the buffer is, expressed as the
      675      163        number of characters it can hold.
      676      164        .SPB
      677      165        The flags parameter specifies recv options.  The desired options are 'OR-ed'
      678      166        together when coding the invocation.  The only options currently implemented
      679      167        are "out-of-band" and "peek".  The out-of-band option receives any message
      680      168        that was sent on the out-of-band data path if the socket supports it.  It is
      681      169        selected by coding MSG_OOB or %XSL_MSG_OOB in C or PL6 source, respectively.
      682      170        The peek option copies a message into the buffer, but additionally leaves
      683      171        it in the recv() queue so subsequent recv() invocations see the same message. It is
               171        selected
      684      172        by coding MSG_PEEK or %XSL_MSG_PEEK in C or PL6 source, respectively.
      685      173        .SPB
      686      174        If the recv() function is successful, the status result contains the number
      687      175        of characters received.  This number is non-negative.  On
      688      176        datagram sockets, if the buffer is not large enough to receive the
      689      177        entire message, the excess will be discarded.
      690      178        .SPB
      691      179        If the recv() function is unsuccessful, the status result contains
      692      180        EFAILURE or E$FAILURE and the application must inspect errno or XSL_ERRNO
      693      181        to determine the specific error condition.  The XSL$RECV procedure
      694      182        additionally ALTRETURNs if it is unsuccessful; it is otherwise identical
PL6.E3A0      #002=XSL$RECVFROM File=XSL$SOCKET2.:TCA2TSI                        SUN 11/16/97 14:32 Page:68
      695      183        to the recv() function.
      696      184        .SPB
      697      185        If no data is available from a socket when recv() is invoked, the action
      698      186        taken depends on the socket mode.  The mode of a socket is defined
      699      187        to be either "blocking" or "nonblocking".  If the socket is blocking
      700      188        (which is the default mode) the application is blocked (i.e., suspended)
      701      189        until a message is received from the network.  If the socket is nonblocking,
      702      190        the condition is treated as an EWOULDBLOCK error.
      703      191        .SPB
      704      192        The mode of a socket can be changed with either fcntl() or ioctl().
      705      193        .SPB
      706      194        Recv() may be used only on sockets that have had connect() invoked.
      707      195        .SPB
      708      196        If shutdown() has been invoked for this socket to inhibit reception of
      709      197        data, or if the peer is no longer connected, all recv() operations are
      710      198        treated as if zero bytes of data were read.
      711      199        ..::IT "Errors:"
      712      200        Following are the possible error conditions reported when the recv()
      713      201        function is unsuccessful.  Equates for the possible values can be found in
      714      202        <xsl_errno.h> or XSL_PERR_C for C and PL6 source, respectively.
      715      203
      716      204        .FIF
      717      205
      718      206        C #define               PL6 %EQU
      719      207        ----------------------- -----------------------
      720      208        EBADF                   E$BADF
      721      209        .FIN
      722      210        The descriptor s is not appropriate to identify a socket.
      723      211        .FIF
      724      212
      725      213        ENOTCONN                E$NOTCONN
      726      214        .FIN
      727      215        The connect() function has not been invoked for this socket.
      728      216        .FIN
      729      217
      730      218        ENOTSOCK                E$NOTSOCK
      731      219        .FIN
PL6.E3A0      #002=XSL$RECVFROM File=XSL$SOCKET2.:TCA2TSI                        SUN 11/16/97 14:32 Page:69
      732      220        The descriptor s is no longer valid to identify a socket.
      733      221        .FIF
      734      222
      735      223        EWOULDBLOCK             E$WOULDBLOCK
      736      224        .FIN
      737      225        There is no data available from this nonblocking socket.
      738      226        .FIF
      739      227        */
      740      228        /*F* NAME: read() and XSL$READ  --  Read Data
      741      229        ..::IT "Purpose:"
      742      230        .INL +4
      743      231        Reads data from a socket into an application-specified buffer.
      744      232        ..::IT "C Usage:"
      745      233        .INL 4
      746      234        .FIF
      747      235        status = read( s, buf, len );
      748      236        ..::IT "PL6 Usage:"
      749      237        .INL 4
      750      238        .FIF
      751      239        CALL XSL$READ( status, s, buf, len );
      752      240        ..::IT "Parameters:"
      753      241        .INL 4
      754      242        .FIF
      755      243        s           integer socket descriptor
      756      244
      757      245        buf         character array buffer
      758      246
      759      247        len         integer size of buf in characters
      760      248        ..::IT "Results:"
      761      249        .INL 4
      762      250        .FIF
      763      251        status      integer number of characters read or error code
      764      252
      765      253        buf         character array buffer
      766      254        ..::IT "Description:"
      767      255        The read() function reads any available data from the socket into the
      768      256        buffer specified.
PL6.E3A0      #002=XSL$RECVFROM File=XSL$SOCKET2.:TCA2TSI                        SUN 11/16/97 14:32 Page:70
      769      257        .SPB
      770      258        The s parameter specifies the descriptor of the socket to be read from.
      771      259        .SPB
      772      260        The buf parameter specifies an application-defined buffer to receive the
      773      261        data to be read from the socket.
      774      262        .SPB
      775      263        The len parameter specifies how large the buffer is, expressed as the
      776      264        number of characters it can hold.
      777      265        .SPB
      778      266        If the read() function is successful, the status result contains the
      779      267        number of characters read into buf.  This number is non-negative.
      780      268        A successful read() returns all data available, up to the size of buf.
      781      269        On datagram sockets, if the buffer is not large enough to receive the
      782      270        entire datagram, the excess will be discarded.
      783      271        .SPB
      784      272        If the read() function is unsuccessful, the status result contains
      785      273        EFAILURE or E$FAILURE and the application must inspect errno or XSL_ERRNO
      786      274        to determine the specific error condition.  The XSL$READ procedure
      787      275        additionally ALTRETURNs if it is unsuccessful; it is otherwise identical
      788      276        to the read() function.
      789      277        .SPB
      790      278        If no data is available from a socket when read() is invoked, the action
      791      279        taken depends on the socket mode.  The mode of a socket is defined
      792      280        to be either "blocking" or "nonblocking".  If the socket is blocking
      793      281        (which is the default mode) the application is blocked (i.e., suspended)
      794      282        until data is received from the network.  If the socket is nonblocking,
      795      283        the condition is treated as an EWOULDBLOCK error.
      796      284        .SPB
      797      285        The mode of a socket can be changed with either fcntl() or ioctl().
      798      286        .SPB
      799      287        If shutdown() has been invoked for this socket to inhibit reception of
      800      288        data, or if the peer is no longer connected, all read() operations are
      801      289        treated as if zero bytes of data were read.
      802      290        ..::IT "Errors:"
      803      291        Following are the possible error conditions reported when the read()
      804      292        function is unsuccessful.  Equates for the possible values can be
      805      293        found in <xsl_errno.h> or XSL_PERR_C for C or PL6 source, respectively.
PL6.E3A0      #002=XSL$RECVFROM File=XSL$SOCKET2.:TCA2TSI                        SUN 11/16/97 14:32 Page:71
      806      294
      807      295        .FIF
      808      296
      809      297        C #define               PL6 %EQU
      810      298        ----------------------- -----------------------
      811      299        EBADF                   E$BADF
      812      300        .FIN
      813      301        The descriptor s is not appropriate to identify a socket.
      814      302        .FIF
      815      303
      816      304        ENOTCONN                E$NOTCONN
      817      305        .FIN
      818      306        The socket is not currently connected.  connect() has not been invoked.
      819      307        .FIF
      820      308
      821      309        ENOTSOCK                E$NOTSOCK
      822      310        .FIN
      823      311        The descriptor s is no longer valid to identify a socket.
      824      312        .FIF
      825      313
      826      314        EWOULDBLOCK             E$WOULDBLOCK
      827      315        .FIN
      828      316        There is no data available from this nonblocking socket.
      829      317        .FIF
      830      318        */
      831      319        XSL$RECVFROM: PROC( RESULT, SOCK#, BUF, LEN, FLAGS, FROM, FROMLEN) ALTRET;
      832      320        %INCLUDE CP_6;
      833      401            %F$DCB;
      834      458            %FPT_WAIT( FPTN=XSL_WAIT1DAY, STCLASS=SYMREF);
      835      472        %INCLUDE XSL_SOCKET_E;
      836      730        %INCLUDE XSL_SOCKET_M;
      837     1491            %XSL$SOCKADDR( FPTN=FROM, STCLASS=);
      838     1531        %INCLUDE XSL_PERR_C;
      839     1586        %INCLUDE XSL_INTERNAL_M;
      840     1837            %XSL$SOCKINFO( FPTN=SOCK, STCLASS="BASED( SOCK$)");
      841     1981            %XSL$SOCKHD( STCLASS="BASED( XSL_SOCK$$)");
      842     2014            %XSL$DATABUF( FPTN=DATABUF, STCLASS="BASED( BUF$)");
PL6.E3A0      #002=XSL$RECVFROM File=XSL$SOCKET2.:TCA2TSI                        SUN 11/16/97 14:32 Page:72
      843     2047        %INCLUDE XSL_SOCKMSGS_E;
      844     2093        %INCLUDE XSL_SOCKMSGS_M;
      845     3226            %XSL_REFMSGS;
      846     3229            %XSL$RECVRQS( FPTN=XSL_RECVRQS, STCLASS=SYMREF);
      847     3256            %XSL$RECVRQS( STCLASS="BASED( XSL_KEYBUF$)");
      848     3283            %XSL$RECVRSP( STCLASS="BASED( XSL_KEYBUF$)");
      849     3310            %XSL$RECVFROMRQS( FPTN=XSL_RECVFROMRQS, STCLASS=SYMREF);
      850     3338            %XSL$RECVFROMRQS( STCLASS="BASED( XSL_KEYBUF$)");
      851     3366            %XSL$RECVFROMRSP( STCLASS="BASED( XSL_KEYBUF$)");
      852     3420
      853     3421    1       DCL XSL$CL_READ ENTRY(3) ALTRET;
      854     3422    1       DCL XSL$CL_WRITE ENTRY(4) ALTRET;
      855     3423    1       DCL XSL$CL_CANCEL ENTRY(1) ALTRET;
      856     3424    1       DCL XSL$GETBUF ENTRY(2) ALTRET;
      857     3425    1       DCL XSL$RELBUF ENTRY(2) ALTRET;
      858     3426    1       DCL XSL$NTOHADDR ENTRY(2);
      859     3427    1       DCL XSL$SOCKPTR ENTRY(2) ALTRET;
      860     3428    1       DCL XSL$DCBNPTR ENTRY(2) ALTRET;
      861     3429    1       DCL XSL$EVLOG ENTRY(2);
      862     3430
      863     3431    1       DCL XSL_ERRNO SBIN SYMREF;
      864     3432    1       DCL XSL_SOCK$ REDEF XSL_ERRNO PTR;
      865     3433    1       DCL XSL_KEYBUF$ PTR SYMREF READONLY;
      866     3434    1       DCL XSL_SOCK$$ PTR SYMREF;
      867     3435    1       DCL XSL_UETIME SBIN SYMREF;
      868     3436
      869     3437    1       DCL B$CHARS CHAR( NUM) BASED CALIGNED;
      870     3438    1       DCL LEFT SBIN;
      871     3439    1       DCL NUM SBIN;
      872     3440    1       DCL BUF$ PTR;
      873     3441    1       DCL TMP$ PTR;
      874     3442    1       DCL SCANNED SBIN;
      875     3443    1       DCL BUFPND# SBIN;
      876     3444    1       DCL BUF CHAR( LEN) CALIGNED;
      877     3445    1       DCL ENTRYFLAG SBIN;
      878     3446        %EQU RECVFROM = 0;
      879     3447        %EQU RECV = 1;
PL6.E3A0      #002=XSL$RECVFROM File=XSL$SOCKET2.:TCA2TSI                        SUN 11/16/97 14:32 Page:73
      880     3448        %EQU READ = 2;
      881     3449    1       DCL FLAGS UBIN;
      882     3450    1       DCL 1 BFLAGS REDEF FLAGS,
      883     3451    1           2 * BIT(34) UNAL,
      884     3452    1           2 PEEK BIT(1) UNAL,
      885     3453    1           2 OOB BIT(1) UNAL;
      886     3454    1       DCL FROMLEN SBIN;
      887     3455    1       DCL LEN SBIN;
      888     3456    1       DCL MORE BIT(1) UNAL;
      889     3457    1       DCL RESULT SBIN;
      890     3458    1       DCL SOCK# SBIN;
      891     3459    1       DCL SOCK$ PTR;
      892     3460
      893     3461    1       ENTRYFLAG = %RECVFROM;
      894     3462    1       GOTO COMMONDCBN;
      895     3463
      896     3464    1   XSL$QRECVFROM: ENTRY( RESULT, SOCK#, BUF, LEN, FLAGS, FROM, FROMLEN) ALTRET;
      897     3465
      898     3466    1       ENTRYFLAG = %RECVFROM;
      899     3467    1       GOTO COMMONSOCK;
      900     3468
      901     3469    1   XSL$RECV: ENTRY( RESULT, SOCK#, BUF, LEN, FLAGS) ALTRET;
      902     3470
      903     3471    1       ENTRYFLAG = %RECV;
      904     3472    1       GOTO COMMONDCBN;
      905     3473
      906     3474    1   XSL$QRECV: ENTRY( RESULT, SOCK#, BUF, LEN, FLAGS) ALTRET;
      907     3475
      908     3476    1       ENTRYFLAG = %RECV;
      909     3477    1   COMMONSOCK:
      910     3478    1       CALL XSL$SOCKPTR( SOCK#, XSL_SOCK$) ALTRET( BAILOUT);
      911     3479    1       GOTO LATER;
      912     3480
      913     3481    1   XSL$READ: ENTRY( RESULT, SOCK#, BUF, LEN) ALTRET;
      914     3482
      915     3483    1       ENTRYFLAG = %READ;
      916     3484    1       GOTO COMMONDCBN;
PL6.E3A0      #002=XSL$RECVFROM File=XSL$SOCKET2.:TCA2TSI                        SUN 11/16/97 14:32 Page:74
      917     3485
      918     3486    1   XSL$QREAD: ENTRY( RESULT, SOCK#, BUF, LEN) ALTRET;
      919     3487
      920     3488    1       ENTRYFLAG = %READ;
      921     3489    1       GOTO COMMONSOCK;
      922     3490
      923     3491    1   COMMONDCBN:
      924     3492    1       CALL XSL$DCBNPTR( SOCK#, XSL_SOCK$) ALTRET( BAILOUT);
      925     3493    1   LATER:
      926     3494    1       SOCK$ = XSL_SOCK$;
      927     3495    2       IF NOT SOCK.FLAGS.SOCKET THEN DO;
      928     3496    2           XSL_ERRNO = %E$NOTBOUND;
      929     3497    2           GOTO BAILOUT;
      930     3498    2           END;
      931     3499    2       IF SOCK.FLAGS.RECVSHUT THEN DO;
      932     3500    2           RESULT = 0;
      933     3501    2           GOTO SUCCESS;
      934     3502    2           END;
      935     3503    1       IF SOCK.MAXRDS ~= 0 OR SOCK.FLAGS.SELREAD THEN
      936     3504    1           GOTO NOWAIT;
      937     3505    2       IF SOCK.BUFHD ~= 0 THEN DO;
      938     3506    2           CALL XSL$CL_CANCEL( SOCK);
      939     3507    2           IF SOCK.FLAGS.SELREAD THEN
      940     3508    2               GOTO NOWAIT;
      941     3509    2           END;
      942     3510    2       DO CASE( ENTRYFLAG);
      943     3511    2           CASE( %RECVFROM);
      944     3512    2               XSL$RECVFROMRQS = XSL_RECVFROMRQS;
      945     3513    2               XSL$RECVFROMRQS.FLAGS = MOD( FLAGS, %XSL_MSG_MORE);
      946     3514    2               XSL$RECVFROMRQS.LEN = LEN;
      947     3515    2               XSL$RECVFROMRQS.FROMLEN = FROMLEN;
      948     3516    2               CALL XSL$CL_WRITE( SOCK, LENGTHC( XSL$RECVFROMRQS));
      949     3517    2               CALL XSL$CL_READ( SOCK, LEN, BUF);
      950     3518    3               IF XSL$RECVFROMRSP.RESULT < 0 THEN DO;
      951     3519    3                   XSL_ERRNO = XSL$RECVFROMRSP.ERRNO;
      952     3520    3   BAILOUT:
      953     3521    3                   RESULT = %E$FAILURE;
PL6.E3A0      #002=XSL$RECVFROM File=XSL$SOCKET2.:TCA2TSI                        SUN 11/16/97 14:32 Page:75
      954     3522    3                   ALTRETURN;
      955     3523    3                   END;
      956     3524    2               FROMLEN = XSL$RECVFROMRSP.FROMLEN;
      957     3525    2               CALL XSL$NTOHADDR( FROM, XSL$RECVFROMRSP.NAME);
      958     3526    2               RESULT = XSL$RECVFROMRSP.RESULT;
      959     3527    2           CASE( %RECV);
      960     3528    2               XSL$RECVRQS = XSL_RECVRQS;
      961     3529    2               XSL$RECVRQS.FLAGS = MOD( FLAGS, %XSL_MSG_MORE);
      962     3530    2               GOTO READ_COMMON;
      963     3531    2           CASE( %READ);
      964     3532    2               XSL$RECVRQS = XSL_RECVRQS;
      965     3533    2               XSL$RECVRQS.FLAGS = 0;
      966     3534    2   READ_COMMON:
      967     3535    3               IF NOT SOCK.FLAGS.CONNECT THEN DO;
      968     3536    3                   XSL_ERRNO = %E$NOTCONN;
      969     3537    3                   GOTO BAILOUT;
      970     3538    3                   END;
      971     3539    2               XSL$RECVRQS.LEN = LEN;
      972     3540    2               CALL XSL$CL_WRITE( SOCK, LENGTHC( XSL$RECVRQS));
      973     3541    2               CALL XSL$CL_READ( SOCK, LEN, BUF);
      974     3542    3               IF XSL$RECVRSP.RESULT < 0 THEN DO;
      975     3543    3                   XSL_ERRNO = XSL$RECVRSP.ERRNO;
      976     3544    3                   GOTO BAILOUT;
      977     3545    3                   END;
      978     3546    2               RESULT = XSL$RECVRSP.RESULT;
      979     3547    2           END;
      980     3548    1   SUCCESS:
      981     3549    1       RETURN;
      982     3550    1   NOWAIT:
      983     3551    2       DO WHILE( DCBADDR( SOCK.DCB#)->F$DCB.FCN.CNT(0) < SOCK.MAXRDS AND
      984     3552    2         SOCK.BUFPND# <= SOCK.MAXBUF);
      985     3553    2           CALL XSL$GETBUF( SOCK)
      986     3554    3           WHENALTRETURN DO;
      987     3555    3               EXIT NOWAIT;
      988     3556    3               END;
      989     3557    2           END;
      990     3558    1       SCANNED = 0;
PL6.E3A0      #002=XSL$RECVFROM File=XSL$SOCKET2.:TCA2TSI                        SUN 11/16/97 14:32 Page:76
      991     3559    1   SCANBUFS:
      992     3560    1       BUFPND# = SOCK.BUFPND#;
      993     3561    1       RESULT = 0;
      994     3562    1       LEFT = LEN;
      995     3563    1   RESCAN:
      996     3564    1       MORE = '0'B;
      997     3565    1       BUF$ = PINCRW( XSL_SOCK$$, SOCK.BUFHD);
      998     3566    2       DO WHILE( BUF$ ~= XSL_SOCK$$);
      999     3567    2           IF DATABUF.FLAGS.BUSY THEN EXIT;
     1000     3568    2           IF NOT SOCK.FLAGS.OOBINLINE THEN
     1001     3569    2               IF ENTRYFLAG ~= %READ AND DATABUF.FLAGS.OOB ~= BFLAGS.OOB THEN EXIT;
     1002     3570    2           IF DATABUF.KEY(2) ~= 255 AND DATABUF.KEY(3) ~= 255 THEN
     1003     3571    2               SCANNED = SCANNED + 1;  /* only count successful bufs */
     1004     3572    2           IF DATABUF.LEN = 0 AND DATABUF.KEY(2) = 0 AND DATABUF.KEY(3) = 0 AND
     1005     3573    2             ( ENTRYFLAG = %READ OR NOT BFLAGS.PEEK) THEN
     1006     3574    2               SOCK.FLAGS.RECVSHUT = '1'B;  /* no more data to read */
     1007     3575    2           NUM = MINIMUM( LEFT, DATABUF.LEN);
     1008     3576    2           IF NUM > 0 THEN
     1009     3577    2               SUBSTR( BUF, RESULT, NUM) = PINCRC( BUF$, DATABUF.START)->B$CHARS;
     1010     3578    2           LEFT = LEFT - NUM;
     1011     3579    2           RESULT = RESULT + NUM;
     1012     3580    3           IF ENTRYFLAG = %READ OR NOT BFLAGS.PEEK THEN DO;
     1013     3581    3               DATABUF.START = DATABUF.START + NUM;
     1014     3582    3               DATABUF.LEN = DATABUF.LEN - NUM;
     1015     3583    3               END;
     1016     3584    2           TMP$ = PINCRW( XSL_SOCK$$, DATABUF.NXT);
     1017     3585    2           IF ENTRYFLAG = %RECVFROM THEN
     1018     3586    3               IF DATABUF.KEY(1) = %RECVFROMRSP THEN DO;
     1019     3587    3                   FROMLEN = ADDR( DATABUF.KEY)->XSL$RECVFROMRSP.FROMLEN;
     1020     3588    3                   CALL XSL$NTOHADDR( FROM, ADDR( DATABUF.KEY)->XSL$RECVFROMRSP.NAME);
     1021     3589    3                   END;
     1022     3590    3               ELSE DO;
     1023     3591    3                   FROMLEN = LENGTHC( FROM);
     1024     3592    3                   FROM = SOCK.PEERNAME;
     1025     3593    3                   END;
     1026     3594    3           IF SOCK.TYPE = %XSL_SOCK_DGRAM THEN DO;
     1027     3595    3               IF DATABUF.FLAGS.MORE THEN
PL6.E3A0      #002=XSL$RECVFROM File=XSL$SOCKET2.:TCA2TSI                        SUN 11/16/97 14:32 Page:77
     1028     3596    3                   MORE = '1'B;
     1029     3597    3               IF NOT MORE OR ( ENTRYFLAG ~= %READ AND BFLAGS.PEEK) THEN
     1030     3598    3                   TMP$ = XSL_SOCK$$;  /* halt scan with this buffer */
     1031     3599    3               IF ENTRYFLAG = %READ OR NOT BFLAGS.PEEK THEN
     1032     3600    3                   DATABUF.LEN = 0;  /* discard remainder of datagram */
     1033     3601    3               END;
     1034     3602    3           IF DATABUF.LEN = 0 THEN DO INHIBIT;
     1035     3603    3               IF DATABUF.KEY(2) ~= 255 AND DATABUF.KEY(3) ~= 255 THEN
     1036     3604    4                   IF DATABUF.FLAGS.OOB AND NOT SOCK.FLAGS.OOBINLINE THEN DO;
     1037     3605    4                       SOCK.OOB# = SOCK.OOB# - 1;
     1038     3606    4                       IF SOCK.OOB# = 0 THEN
     1039     3607    4                           SOCK.FLAGS.SELEXCEP = '0'B;
     1040     3608    4                       END;
     1041     3609    4                   ELSE DO;
     1042     3610    4                       SOCK.DAT# = SOCK.DAT# - 1;
     1043     3611    4                       IF SOCK.DAT# = 0 THEN
     1044     3612    4                           SOCK.FLAGS.SELREAD = '0'B;
     1045     3613    4                       END;
     1046     3614    3               SOCK.FLAGS.REUSEBUF = ~SOCK.FLAGS.RECVSHUT;
     1047     3615    3               SOCK.BUFPND# = SOCK.BUFPND# - 1;
     1048     3616    3               CALL XSL$RELBUF( SOCK, DATABUF);
     1049     3617    3               END;
     1050     3618    2           IF SOCK.FLAGS.RECVSHUT OR LEFT = 0 THEN EXIT;
     1051     3619    3           IF MORE THEN DO INHIBIT;
     1052     3620    4               DO WHILE( SOCK.DAT# = 0);
     1053     3621    4                   CALL M$WAIT( XSL_WAIT1DAY);
     1054     3622    4                   END;
     1055     3623    3               GOTO RESCAN;
     1056     3624    3               END;
     1057     3625    2           BUF$ = TMP$;
     1058     3626    2           END;
     1059     3627    2       IF RESULT = 0 THEN DO;
     1060     3628    2           IF SCANNED ~= 0 THEN
     1061     3629    2               GOTO SUCCESS;
     1062     3630    3           IF SOCK.FLAGS.BLOCKING THEN DO INHIBIT;
     1063     3631    3               IF BUFPND# ~= SOCK.BUFPND# THEN GOTO SCANBUFS;
     1064     3632    3               XSL_UETIME = 0;
PL6.E3A0      #002=XSL$RECVFROM File=XSL$SOCKET2.:TCA2TSI                        SUN 11/16/97 14:32 Page:78
     1065     3633    4               DO WHILE( XSL_UETIME = 0);
     1066     3634    4                   CALL XSL$EVLOG( 'WT', ADDR(SOCK));
     1067     3635    4                   CALL M$WAIT( XSL_WAIT1DAY);
     1068     3636    4                   END;
     1069     3637    3               GOTO SCANBUFS;
     1070     3638    3               END;
     1071     3639    3           ELSE DO;
     1072     3640    3               XSL_ERRNO = %E$WOULDBLOCK;
     1073     3641    3               GOTO BAILOUT;
     1074     3642    3               END;
     1075     3643    2           END;
     1076     3644    1       GOTO SUCCESS;
     1077     3645
     1078     3646    1   END XSL$RECVFROM;
     1079     3647        %EOD;

PL6.E3A0      #002=XSL$RECVFROM File=XSL$SOCKET2.:TCA2TSI                        SUN 11/16/97 14:32 Page:79
--  Include file information  --

   XSL_SOCKMSGS_M.:TCA2TOU  is referenced.
   XSL_SOCKMSGS_E.:TCA2TOU  is referenced.
   XSL_INTERNAL_M.:TCA2TOU  is referenced.
   XSL_PERR_C.:TCA2TOU  is referenced.
   XSL_SOCKET_M.:TCA2TOU  is referenced.
   XSL_SOCKET_E.:TCA2TOU  is referenced.
   CP_6.:LIBRARY  cannot be made into a system file and is referenced.
   B$JIT_C.:E05TOU  was found in the system file and is never referenced.
   CP_6_C.:E05TOU  was found in the system file and is referenced.
      No diagnostics issued in procedure XSL$RECVFROM.

   Procedure XSL$RECVFROM requires 485 words for executable code.
   Procedure XSL$RECVFROM requires 24 words of local(AUTO) storage.

PL6.E3A0      #002=XSL$RECVFROM File=XSL$SOCKET2.:TCA2TSI                        SUN 11/16/97 14:32 Page:80

 Object Unit name= XSL$RECVFROM                               File name= XSL$SOCKET2.:TCA2TOU
 UTS= NOV 16 '97 14:32:06.20 SUN                              Compiler= PL-6/E31         Sev=      00
 SharedLib= :SHARED_SYSTEM                                    Alt SharedLib=


    ****  Control sections  ****

 Sect   Type Bound  Init  Size OctSiz  Section name(segment info)
    0   DCB   even  none     0      0  M$UC
    1  RoData even  UTS      1      1  XSL$RECVFROM
    2   Proc  even  none   485    745  XSL$RECVFROM
    3  RoData even  none     7      7  XSL$RECVFROM

    ****  Entry defs  ****

                              Check   Calling
                             calling  sequence
  Sect OctLoc Primary Altret sequence   type   Parms  Name
     2      0   yes    yes     yes      Std        7  XSL$RECVFROM
     2      4          yes     yes      Std        7  XSL$QRECVFROM
     2     10          yes     yes      Std        5  XSL$RECV
     2     15          yes     yes      Std        5  XSL$QRECV
     2     31          yes     yes      Std        4  XSL$READ
     2     36          yes     yes      Std        4  XSL$QREAD
PL6.E3A0      #002=XSL$RECVFROM File=XSL$SOCKET2.:TCA2TSI                        SUN 11/16/97 14:32 Page:81

  ****  Entry refs  ****

         Check        Calling
        calling       sequence
Altret sequence SRef   type   Args  Name
         yes          ~proc      0 XSL$MSGSDEFS
 yes     yes           Std       1 XSL$CL_CANCEL
         yes           Std       2 XSL$NTOHADDR
 yes     yes           Std       2 XSL$SOCKPTR
 yes     yes           Std       4 XSL$CL_WRITE
 yes     yes           Std       2 XSL$DCBNPTR
 yes     yes           Std       3 XSL$CL_READ
 yes     yes           Std       2 XSL$RELBUF
 yes     yes           Std       2 XSL$GETBUF
         yes           Std       2 XSL$EVLOG
                       nStd      0 X66_AUTO_N
                       Std       0 B_CONSPOOL_D
                       nStd      0 X66_AALT
                       nStd      0 X66_ARET

  ****  Data refs  ****

  Flags:  r = read only, s = secondary
Flgs Name                             Flgs Name                             Flgs Name
     M$UC                                  XSL_WAIT1DAY                          XSL_RECVRQS
     XSL_RECVFROMRQS                       XSL_ERRNO                        r    XSL_KEYBUF$
     XSL_SOCK$$                            XSL_UETIME                            B_VECTNIL

  ****  Segment refs  ****

  Flags:  r = read only, s = secondary
Flgs Name                             Flgs Name                             Flgs Name
     ROSID                                 ISSID
PL6.E3A0      #002=XSL$RECVFROM File=XSL$SOCKET2.:TCA2TSI                        SUN 11/16/97 14:32 Page:82


      513        1        /*T***********************************************************/
      514        2        /*T*                                                         */
      515        3        /*T* Copyright (c) Bull HN Information Systems Inc., 1997    */
      516        4        /*T*                                                         */
      517        5        /*T***********************************************************/
      518        6        /*F* NAME: recvfrom() and XSL$RECVFROM  --  Read Data With Options and Address
      519        7        ..::IT "Purpose:"
      520        8        .INL +4
      521        9        Receives a message from a socket into an application-specified buffer,
      522       10        along with the address of the message's sender.
      523       11        ..::IT "C Usage:"
      524       12        .INL 4
      525       13        .FIF
      526       14        status = recvfrom( s, buf, len, flags, from, fromlen );
      527       15        ..::IT "PL6 Usage:"
      528       16        .INL 4
      529       17        .FIF
      530       18        CALL XSL$RECVFROM( status, s, buf, len, flags, from, fromlen );
      531       19        ..::IT "Parameters:"
      532       20        .INL 4
      533       21        .FIF
      534       22        s           integer socket descriptor
      535       23
      536       24        buf         character array buffer
      537       25
      538       26        len         integer size of buf in characters
      539       27
      540       28        flags       integer bitflags of recvfrom options
      541       29
      542       30        from        sockaddr structure
      543       31
      544       32        fromlen     integer size of from in characters
      545       33        ..::IT "Results:"
      546       34        .INL 4
      547       35        .FIF
      548       36        status      integer number of characters received or error code
PL6.E3A0      #002=XSL$RECVFROM File=XSL$SOCKET2.:TCA2TSI                        SUN 11/16/97 14:32 Page:83
      549       37
      550       38        buf         character array buffer
      551       39
      552       40        from        sockaddr structure with address of message's sender
      553       41
      554       42        fromlen     integer number of significant characters in from
      555       43        ..::IT "Description:"
      556       44        The recvfrom() function receives a message from a connected socket and places
      557       45        it in the buffer specified.  Additionally, the network address of the
      558       46        message's sender is provided.
      559       47        .SPB
      560       48        The s parameter specifies the descriptor of the socket on which to receive.
      561       49        .SPB
      562       50        The buf parameter specifies an application-defined buffer to hold the
      563       51        message received from the socket.
      564       52        .SPB
      565       53        The len parameter specifies how large the buffer is, expressed as the
      566       54        number of characters it can hold.
      567       55        .SPB
      568       56        The flags parameter specifies recvfrom options.  The desired options are
      569       57        'ORed' together when coding the invocation.  The only options currently
      570       58        implemented are "out-of-band" and "peek".  The out-of-band option receives
      571       59        any message that was sent on the out-of-band data path if the socket supports
      572       60        it.  It is selected by coding MSG_OOB or %XSL_MSG_OOB in C or PL6 source,
      573       61        respectively.  The peek option copies a message into the buffer, but
      574       62        additionally leaves it in the recvfrom() queue so subsequent recvfrom() invocations
                62        see
      575       63       the same message. It is selected by coding MSG_PEEK or %XSL_MSG_PEEK in C or PL6 sou
                63        rce,
      576       64        respectively.
      577       65        .SPB
      578       66        The from parameter specifies an address buffer into which is placed the
      579       67        network address of the message's sender.
      580       68        .SPB
      581       69        The fromlen parameter specifies how large from is, expressed as the number
      582       70        of characters it can hold.
      583       71        .SPB
PL6.E3A0      #002=XSL$RECVFROM File=XSL$SOCKET2.:TCA2TSI                        SUN 11/16/97 14:32 Page:84
      584       72        If the recvfrom() function is successful, the status result contains the
      585       73        number of characters received.  This number is non-negative.
      586       74        On datagram sockets, if the buffer is not large enough to receive the
      587       75        entire message, the excess will be discarded.  The network address of
      588       76        the message's sender is placed into from, and fromlen is set to the number
      589       77        of significant characters in from.
      590       78        .SPB
      591       79        If the recvfrom() function is unsuccessful, the status result contains
      592       80        EFAILURE or E$FAILURE and the application must inspect errno or XSL_ERRNO
      593       81        to determine the specific error condition.  The XSL$RECVFROM procedure
      594       82        additionally ALTRETURNs if it is unsuccessful; it is otherwise identical
      595       83        to the recvfrom() function.
      596       84        .SPB
      597       85        If no data is available from a socket when recvfrom() is invoked, the action
      598       86        taken depends on the socket mode.  The mode of a socket is defined
      599       87        to be either "blocking" or "nonblocking".  If the socket is blocking
      600       88        (which is the default mode) the application is blocked (i.e., suspended)
      601       89        until a message is received from the network.  If the socket is nonblocking,
      602       90        the condition is treated as an EWOULDBLOCK error.
      603       91        .SPB
      604       92        The mode of a socket can be changed with either fcntl() or ioctl().
      605       93        .SPB
      606       94        Recvfrom() may be used on sockets regardless of whether connect() has been
      607       95        issued.
      608       96        .SPB
      609       97        If shutdown() has been invoked for this socket to inhibit reception of
      610       98        data, or if the peer is no longer connected, all recvfrom() operations
      611       99        are treated as if zero bytes of data were read.
      612      100        ..::IT "Errors:"
      613      101        Following are the possible error conditions reported when the recvfrom()
      614      102        function is unsuccessful.  Equates for the possible values can be found in
      615      103        <xsl_errno.h> or XSL_PERR_C for C and PL6 source, respectively.
      616      104
      617      105        .FIF
      618      106
      619      107        C #define               PL6 %EQU
      620      108        ----------------------- -----------------------
PL6.E3A0      #002=XSL$RECVFROM File=XSL$SOCKET2.:TCA2TSI                        SUN 11/16/97 14:32 Page:85
      621      109        EBADF                   E$BADF
      622      110        .FIN
      623      111        The descriptor s is not appropriate to identify a socket.
      624      112        .FIF
      625      113
      626      114        ENOTSOCK                E$NOTSOCK
      627      115        .FIN
      628      116        The descriptor s is no longer valid to identify a socket.
      629      117        .FIF
      630      118
      631      119        EWOULDBLOCK             E$WOULDBLOCK
      632      120        .FIN
      633      121        There is no data available from this nonblocking socket.
      634      122        .FIF
      635      123        */
      636      124        /*F* NAME: recv() and XSL$RECV  --  Read Data With Options
      637      125        ..::IT "Purpose:"
      638      126        .INL +4
      639      127        Receives a message from a connected socket into an
      640      128        application-specified buffer.
      641      129        ..::IT "C Usage:"
      642      130        .INL 4
      643      131        .FIF
      644      132        status = recv( s, buf, len, flags );
      645      133        ..::IT "PL6 Usage:"
      646      134        .INL 4
      647      135        .FIF
      648      136        CALL XSL$RECV( status, s, buf, len, flags );
      649      137        ..::IT "Parameters:"
      650      138        .INL 4
      651      139        .FIF
      652      140        s           integer socket descriptor
      653      141
      654      142        buf         character array buffer
      655      143
      656      144        len         integer size of buf in characters
      657      145
PL6.E3A0      #002=XSL$RECVFROM File=XSL$SOCKET2.:TCA2TSI                        SUN 11/16/97 14:32 Page:86
      658      146        flags       integer bitflags of recv options
      659      147        ..::IT "Results:"
      660      148        .INL 4
      661      149        .FIF
      662      150        status      integer number of characters received or error code
      663      151
      664      152        buf         character array buffer
      665      153        ..::IT "Description:"
      666      154        The recv() function receives a message from a connected socket and places
      667      155        it in the buffer specified.
      668      156        .SPB
      669      157        The s parameter specifies the descriptor of the socket on which to receive.
      670      158        .SPB
      671      159        The buf parameter specifies an application-defined buffer to hold the
      672      160        message received from the socket.
      673      161        .SPB
      674      162        The len parameter specifies how large the buffer is, expressed as the
      675      163        number of characters it can hold.
      676      164        .SPB
      677      165        The flags parameter specifies recv options.  The desired options are 'OR-ed'
      678      166        together when coding the invocation.  The only options currently implemented
      679      167        are "out-of-band" and "peek".  The out-of-band option receives any message
      680      168        that was sent on the out-of-band data path if the socket supports it.  It is
      681      169        selected by coding MSG_OOB or %XSL_MSG_OOB in C or PL6 source, respectively.
      682      170        The peek option copies a message into the buffer, but additionally leaves
      683      171        it in the recv() queue so subsequent recv() invocations see the same message. It is
               171        selected
      684      172        by coding MSG_PEEK or %XSL_MSG_PEEK in C or PL6 source, respectively.
      685      173        .SPB
      686      174        If the recv() function is successful, the status result contains the number
      687      175        of characters received.  This number is non-negative.  On
      688      176        datagram sockets, if the buffer is not large enough to receive the
      689      177        entire message, the excess will be discarded.
      690      178        .SPB
      691      179        If the recv() function is unsuccessful, the status result contains
      692      180        EFAILURE or E$FAILURE and the application must inspect errno or XSL_ERRNO
      693      181        to determine the specific error condition.  The XSL$RECV procedure
PL6.E3A0      #002=XSL$RECVFROM File=XSL$SOCKET2.:TCA2TSI                        SUN 11/16/97 14:32 Page:87
      694      182        additionally ALTRETURNs if it is unsuccessful; it is otherwise identical
      695      183        to the recv() function.
      696      184        .SPB
      697      185        If no data is available from a socket when recv() is invoked, the action
      698      186        taken depends on the socket mode.  The mode of a socket is defined
      699      187        to be either "blocking" or "nonblocking".  If the socket is blocking
      700      188        (which is the default mode) the application is blocked (i.e., suspended)
      701      189        until a message is received from the network.  If the socket is nonblocking,
      702      190        the condition is treated as an EWOULDBLOCK error.
      703      191        .SPB
      704      192        The mode of a socket can be changed with either fcntl() or ioctl().
      705      193        .SPB
      706      194        Recv() may be used only on sockets that have had connect() invoked.
      707      195        .SPB
      708      196        If shutdown() has been invoked for this socket to inhibit reception of
      709      197        data, or if the peer is no longer connected, all recv() operations are
      710      198        treated as if zero bytes of data were read.
      711      199        ..::IT "Errors:"
      712      200        Following are the possible error conditions reported when the recv()
      713      201        function is unsuccessful.  Equates for the possible values can be found in
      714      202        <xsl_errno.h> or XSL_PERR_C for C and PL6 source, respectively.
      715      203
      716      204        .FIF
      717      205
      718      206        C #define               PL6 %EQU
      719      207        ----------------------- -----------------------
      720      208        EBADF                   E$BADF
      721      209        .FIN
      722      210        The descriptor s is not appropriate to identify a socket.
      723      211        .FIF
      724      212
      725      213        ENOTCONN                E$NOTCONN
      726      214        .FIN
      727      215        The connect() function has not been invoked for this socket.
      728      216        .FIN
      729      217
      730      218        ENOTSOCK                E$NOTSOCK
PL6.E3A0      #002=XSL$RECVFROM File=XSL$SOCKET2.:TCA2TSI                        SUN 11/16/97 14:32 Page:88
      731      219        .FIN
      732      220        The descriptor s is no longer valid to identify a socket.
      733      221        .FIF
      734      222
      735      223        EWOULDBLOCK             E$WOULDBLOCK
      736      224        .FIN
      737      225        There is no data available from this nonblocking socket.
      738      226        .FIF
      739      227        */
      740      228        /*F* NAME: read() and XSL$READ  --  Read Data
      741      229        ..::IT "Purpose:"
      742      230        .INL +4
      743      231        Reads data from a socket into an application-specified buffer.
      744      232        ..::IT "C Usage:"
      745      233        .INL 4
      746      234        .FIF
      747      235        status = read( s, buf, len );
      748      236        ..::IT "PL6 Usage:"
      749      237        .INL 4
      750      238        .FIF
      751      239        CALL XSL$READ( status, s, buf, len );
      752      240        ..::IT "Parameters:"
      753      241        .INL 4
      754      242        .FIF
      755      243        s           integer socket descriptor
      756      244
      757      245        buf         character array buffer
      758      246
      759      247        len         integer size of buf in characters
      760      248        ..::IT "Results:"
      761      249        .INL 4
      762      250        .FIF
      763      251        status      integer number of characters read or error code
      764      252
      765      253        buf         character array buffer
      766      254        ..::IT "Description:"
      767      255        The read() function reads any available data from the socket into the
PL6.E3A0      #002=XSL$RECVFROM File=XSL$SOCKET2.:TCA2TSI                        SUN 11/16/97 14:32 Page:89
      768      256        buffer specified.
      769      257        .SPB
      770      258        The s parameter specifies the descriptor of the socket to be read from.
      771      259        .SPB
      772      260        The buf parameter specifies an application-defined buffer to receive the
      773      261        data to be read from the socket.
      774      262        .SPB
      775      263        The len parameter specifies how large the buffer is, expressed as the
      776      264        number of characters it can hold.
      777      265        .SPB
      778      266        If the read() function is successful, the status result contains the
      779      267        number of characters read into buf.  This number is non-negative.
      780      268        A successful read() returns all data available, up to the size of buf.
      781      269        On datagram sockets, if the buffer is not large enough to receive the
      782      270        entire datagram, the excess will be discarded.
      783      271        .SPB
      784      272        If the read() function is unsuccessful, the status result contains
      785      273        EFAILURE or E$FAILURE and the application must inspect errno or XSL_ERRNO
      786      274        to determine the specific error condition.  The XSL$READ procedure
      787      275        additionally ALTRETURNs if it is unsuccessful; it is otherwise identical
      788      276        to the read() function.
      789      277        .SPB
      790      278        If no data is available from a socket when read() is invoked, the action
      791      279        taken depends on the socket mode.  The mode of a socket is defined
      792      280        to be either "blocking" or "nonblocking".  If the socket is blocking
      793      281        (which is the default mode) the application is blocked (i.e., suspended)
      794      282        until data is received from the network.  If the socket is nonblocking,
      795      283        the condition is treated as an EWOULDBLOCK error.
      796      284        .SPB
      797      285        The mode of a socket can be changed with either fcntl() or ioctl().
      798      286        .SPB
      799      287        If shutdown() has been invoked for this socket to inhibit reception of
      800      288        data, or if the peer is no longer connected, all read() operations are
      801      289        treated as if zero bytes of data were read.
      802      290        ..::IT "Errors:"
      803      291        Following are the possible error conditions reported when the read()
      804      292        function is unsuccessful.  Equates for the possible values can be
PL6.E3A0      #002=XSL$RECVFROM File=XSL$SOCKET2.:TCA2TSI                        SUN 11/16/97 14:32 Page:90
      805      293        found in <xsl_errno.h> or XSL_PERR_C for C or PL6 source, respectively.
      806      294
      807      295        .FIF
      808      296
      809      297        C #define               PL6 %EQU
      810      298        ----------------------- -----------------------
      811      299        EBADF                   E$BADF
      812      300        .FIN
      813      301        The descriptor s is not appropriate to identify a socket.
      814      302        .FIF
      815      303
      816      304        ENOTCONN                E$NOTCONN
      817      305        .FIN
      818      306        The socket is not currently connected.  connect() has not been invoked.
      819      307        .FIF
      820      308
      821      309        ENOTSOCK                E$NOTSOCK
      822      310        .FIN
      823      311        The descriptor s is no longer valid to identify a socket.
      824      312        .FIF
      825      313
      826      314        EWOULDBLOCK             E$WOULDBLOCK
      827      315        .FIN
      828      316        There is no data available from this nonblocking socket.
      829      317        .FIF
      830      318        */
      831      319        XSL$RECVFROM: PROC( RESULT, SOCK#, BUF, LEN, FLAGS, FROM, FROMLEN) ALTRET;

    319  2 000000   000000 700200 xent  XSL$RECVFROM TSX0  ! X66_AUTO_N
         2 000001   000030 000007                    ZERO    24,7

      832      320        %INCLUDE CP_6;
      833      401            %F$DCB;
      834      458            %FPT_WAIT( FPTN=XSL_WAIT1DAY, STCLASS=SYMREF);
      835      472        %INCLUDE XSL_SOCKET_E;
      836      730        %INCLUDE XSL_SOCKET_M;
      837     1491            %XSL$SOCKADDR( FPTN=FROM, STCLASS=);
PL6.E3A0      #002=XSL$RECVFROM File=XSL$SOCKET2.:TCA2TSI                        SUN 11/16/97 14:32 Page:91
      838     1531        %INCLUDE XSL_PERR_C;
      839     1586        %INCLUDE XSL_INTERNAL_M;
      840     1837            %XSL$SOCKINFO( FPTN=SOCK, STCLASS="BASED( SOCK$)");
      841     1981            %XSL$SOCKHD( STCLASS="BASED( XSL_SOCK$$)");
      842     2014            %XSL$DATABUF( FPTN=DATABUF, STCLASS="BASED( BUF$)");
      843     2047        %INCLUDE XSL_SOCKMSGS_E;
      844     2093        %INCLUDE XSL_SOCKMSGS_M;
      845     3226            %XSL_REFMSGS;
      846     3229            %XSL$RECVRQS( FPTN=XSL_RECVRQS, STCLASS=SYMREF);
      847     3256            %XSL$RECVRQS( STCLASS="BASED( XSL_KEYBUF$)");
      848     3283            %XSL$RECVRSP( STCLASS="BASED( XSL_KEYBUF$)");
      849     3310            %XSL$RECVFROMRQS( FPTN=XSL_RECVFROMRQS, STCLASS=SYMREF);
      850     3338            %XSL$RECVFROMRQS( STCLASS="BASED( XSL_KEYBUF$)");
      851     3366            %XSL$RECVFROMRSP( STCLASS="BASED( XSL_KEYBUF$)");
      852     3420
      853     3421    1       DCL XSL$CL_READ ENTRY(3) ALTRET;
      854     3422    1       DCL XSL$CL_WRITE ENTRY(4) ALTRET;
      855     3423    1       DCL XSL$CL_CANCEL ENTRY(1) ALTRET;
      856     3424    1       DCL XSL$GETBUF ENTRY(2) ALTRET;
      857     3425    1       DCL XSL$RELBUF ENTRY(2) ALTRET;
      858     3426    1       DCL XSL$NTOHADDR ENTRY(2);
      859     3427    1       DCL XSL$SOCKPTR ENTRY(2) ALTRET;
      860     3428    1       DCL XSL$DCBNPTR ENTRY(2) ALTRET;
      861     3429    1       DCL XSL$EVLOG ENTRY(2);
      862     3430
      863     3431    1       DCL XSL_ERRNO SBIN SYMREF;
      864     3432    1       DCL XSL_SOCK$ REDEF XSL_ERRNO PTR;
      865     3433    1       DCL XSL_KEYBUF$ PTR SYMREF READONLY;
      866     3434    1       DCL XSL_SOCK$$ PTR SYMREF;
      867     3435    1       DCL XSL_UETIME SBIN SYMREF;
      868     3436
      869     3437    1       DCL B$CHARS CHAR( NUM) BASED CALIGNED;
      870     3438    1       DCL LEFT SBIN;
      871     3439    1       DCL NUM SBIN;
      872     3440    1       DCL BUF$ PTR;
      873     3441    1       DCL TMP$ PTR;
      874     3442    1       DCL SCANNED SBIN;
PL6.E3A0      #002=XSL$RECVFROM File=XSL$SOCKET2.:TCA2TSI                        SUN 11/16/97 14:32 Page:92
      875     3443    1       DCL BUFPND# SBIN;
      876     3444    1       DCL BUF CHAR( LEN) CALIGNED;
      877     3445    1       DCL ENTRYFLAG SBIN;
      878     3446        %EQU RECVFROM = 0;
      879     3447        %EQU RECV = 1;
      880     3448        %EQU READ = 2;
      881     3449    1       DCL FLAGS UBIN;
      882     3450    1       DCL 1 BFLAGS REDEF FLAGS,
      883     3451    1           2 * BIT(34) UNAL,
      884     3452    1           2 PEEK BIT(1) UNAL,
      885     3453    1           2 OOB BIT(1) UNAL;
      886     3454    1       DCL FROMLEN SBIN;
      887     3455    1       DCL LEN SBIN;
      888     3456    1       DCL MORE BIT(1) UNAL;
      889     3457    1       DCL RESULT SBIN;
      890     3458    1       DCL SOCK# SBIN;
      891     3459    1       DCL SOCK$ PTR;
      892     3460
      893     3461    1       ENTRYFLAG = %RECVFROM;

   3461  2 000002   200020 450100                    STZ     ENTRYFLAG,,AUTO

      894     3462    1       GOTO COMMONDCBN;

   3462  2 000003   000043 710000 2                  TRA     COMMONDCBN

      895     3463
      896     3464    1   XSL$QRECVFROM: ENTRY( RESULT, SOCK#, BUF, LEN, FLAGS, FROM, FROMLEN) ALTRET;

   3464  2 000004   000000 700200 xent  XSL$QRECVFR* TSX0  ! X66_AUTO_N
         2 000005   000030 000007                    ZERO    24,7

      897     3465
      898     3466    1       ENTRYFLAG = %RECVFROM;

   3466  2 000006   200020 450100                    STZ     ENTRYFLAG,,AUTO

PL6.E3A0      #002=XSL$RECVFROM File=XSL$SOCKET2.:TCA2TSI                        SUN 11/16/97 14:32 Page:93
      899     3467    1       GOTO COMMONSOCK;

   3467  2 000007   000021 710000 2                  TRA     COMMONSOCK

      900     3468
      901     3469    1   XSL$RECV: ENTRY( RESULT, SOCK#, BUF, LEN, FLAGS) ALTRET;

   3469  2 000010   000000 700200 xent  XSL$RECV     TSX0  ! X66_AUTO_N
         2 000011   000030 000007                    ZERO    24,7

      902     3470
      903     3471    1       ENTRYFLAG = %RECV;

   3471  2 000012   000001 235007                    LDA     1,DL
         2 000013   200020 755100                    STA     ENTRYFLAG,,AUTO

      904     3472    1       GOTO COMMONDCBN;

   3472  2 000014   000043 710000 2                  TRA     COMMONDCBN

      905     3473
      906     3474    1   XSL$QRECV: ENTRY( RESULT, SOCK#, BUF, LEN, FLAGS) ALTRET;

   3474  2 000015   000000 700200 xent  XSL$QRECV    TSX0  ! X66_AUTO_N
         2 000016   000030 000007                    ZERO    24,7

      907     3475
      908     3476    1       ENTRYFLAG = %RECV;

   3476  2 000017   000001 235007                    LDA     1,DL
         2 000020   200020 755100                    STA     ENTRYFLAG,,AUTO

      909     3477    1   COMMONSOCK:
      910     3478    1       CALL XSL$SOCKPTR( SOCK#, XSL_SOCK$) ALTRET( BAILOUT);

   3478  2 000021   000000 236000 3     COMMONSOCK   LDQ     0
         2 000022   200004 235100                    LDA     @SOCK#,,AUTO
PL6.E3A0      #002=XSL$RECVFROM File=XSL$SOCKET2.:TCA2TSI                        SUN 11/16/97 14:32 Page:94
         2 000023   200024 757100                    STAQ    SOCK$+2,,AUTO
         2 000024   200024 630500                    EPPR0   SOCK$+2,,AUTO
         2 000025   000020 631400 xsym               EPPR1   B_VECTNIL+16
         2 000026   000000 701000 xent               TSX1    XSL$SOCKPTR
         2 000027   000162 702000 2                  TSX2    BAILOUT

      911     3479    1       GOTO LATER;

   3479  2 000030   000052 710000 2                  TRA     LATER

      912     3480
      913     3481    1   XSL$READ: ENTRY( RESULT, SOCK#, BUF, LEN) ALTRET;

   3481  2 000031   000000 700200 xent  XSL$READ     TSX0  ! X66_AUTO_N
         2 000032   000030 000007                    ZERO    24,7

      914     3482
      915     3483    1       ENTRYFLAG = %READ;

   3483  2 000033   000002 235007                    LDA     2,DL
         2 000034   200020 755100                    STA     ENTRYFLAG,,AUTO

      916     3484    1       GOTO COMMONDCBN;

   3484  2 000035   000043 710000 2                  TRA     COMMONDCBN

      917     3485
      918     3486    1   XSL$QREAD: ENTRY( RESULT, SOCK#, BUF, LEN) ALTRET;

   3486  2 000036   000000 700200 xent  XSL$QREAD    TSX0  ! X66_AUTO_N
         2 000037   000030 000007                    ZERO    24,7

      919     3487
      920     3488    1       ENTRYFLAG = %READ;

   3488  2 000040   000002 235007                    LDA     2,DL
         2 000041   200020 755100                    STA     ENTRYFLAG,,AUTO
PL6.E3A0      #002=XSL$RECVFROM File=XSL$SOCKET2.:TCA2TSI                        SUN 11/16/97 14:32 Page:95

      921     3489    1       GOTO COMMONSOCK;

   3489  2 000042   000021 710000 2                  TRA     COMMONSOCK

      922     3490
      923     3491    1   COMMONDCBN:
      924     3492    1       CALL XSL$DCBNPTR( SOCK#, XSL_SOCK$) ALTRET( BAILOUT);

   3492  2 000043   000000 236000 3     COMMONDCBN   LDQ     0
         2 000044   200004 235100                    LDA     @SOCK#,,AUTO
         2 000045   200024 757100                    STAQ    SOCK$+2,,AUTO
         2 000046   200024 630500                    EPPR0   SOCK$+2,,AUTO
         2 000047   000020 631400 xsym               EPPR1   B_VECTNIL+16
         2 000050   000000 701000 xent               TSX1    XSL$DCBNPTR
         2 000051   000162 702000 2                  TSX2    BAILOUT

      925     3493    1   LATER:
      926     3494    1       SOCK$ = XSL_SOCK$;

   3494  2 000052   000000 236000 xsym  LATER        LDQ     XSL_ERRNO
         2 000053   200022 756100                    STQ     SOCK$,,AUTO

      927     3495    2       IF NOT SOCK.FLAGS.SOCKET THEN DO;

   3495  2 000054   200022 470500                    LDP0    SOCK$,,AUTO
         2 000055   000001 236100                    LDQ     1,,PR0
         2 000056   002000 316003                    CANQ    1024,DU
         2 000057   000063 601000 2                  TNZ     s:3499

      928     3496    2           XSL_ERRNO = %E$NOTBOUND;

   3496  2 000060   000401 235007                    LDA     257,DL
         2 000061   000000 755000 xsym               STA     XSL_ERRNO

      929     3497    2           GOTO BAILOUT;

PL6.E3A0      #002=XSL$RECVFROM File=XSL$SOCKET2.:TCA2TSI                        SUN 11/16/97 14:32 Page:96
   3497  2 000062   000162 710000 2                  TRA     BAILOUT

      930     3498    2           END;
      931     3499    2       IF SOCK.FLAGS.RECVSHUT THEN DO;

   3499  2 000063   100000 316003                    CANQ    32768,DU
         2 000064   000070 600000 2                  TZE     s:3503

      932     3500    2           RESULT = 0;

   3500  2 000065   200003 471500                    LDP1    @RESULT,,AUTO
         2 000066   100000 450100                    STZ     0,,PR1

      933     3501    2           GOTO SUCCESS;

   3501  2 000067   000277 710000 2                  TRA     SUCCESS

      934     3502    2           END;
      935     3503    1       IF SOCK.MAXRDS ~= 0 OR SOCK.FLAGS.SELREAD THEN

   3503  2 000070   000020 720100                    LXL0    16,,PR0
         2 000071   000300 601000 2                  TNZ     NOWAIT
         2 000072   000040 316003                    CANQ    32,DU
         2 000073   000300 601000 2                  TNZ     NOWAIT

      936     3504    1           GOTO NOWAIT;
      937     3505    2       IF SOCK.BUFHD ~= 0 THEN DO;

   3505  2 000074   000016 221100                    LDX1    14,,PR0
         2 000075   000106 600000 2                  TZE     s:3510

      938     3506    2           CALL XSL$CL_CANCEL( SOCK);

   3506  2 000076   200022 630500                    EPPR0   SOCK$,,AUTO
         2 000077   000017 631400 xsym               EPPR1   B_VECTNIL+15
         2 000100   000000 701000 xent               TSX1    XSL$CL_CANCEL
         2 000101   000000 011000                    NOP     0
PL6.E3A0      #002=XSL$RECVFROM File=XSL$SOCKET2.:TCA2TSI                        SUN 11/16/97 14:32 Page:97

      939     3507    2           IF SOCK.FLAGS.SELREAD THEN

   3507  2 000102   200022 470500                    LDP0    SOCK$,,AUTO
         2 000103   000001 236100                    LDQ     1,,PR0
         2 000104   000040 316003                    CANQ    32,DU
         2 000105   000300 601000 2                  TNZ     NOWAIT

      940     3508    2               GOTO NOWAIT;
      941     3509    2           END;

      942     3510    2       DO CASE( ENTRYFLAG);

   3510  2 000106   200020 235100                    LDA     ENTRYFLAG,,AUTO
         2 000107   000003 115007                    CMPA    3,DL
         2 000110   000112 602005 2                  TNC     s:3510+4,AL
         2 000111   000277 710000 2                  TRA     SUCCESS
         2 000112   000115 710000 2                  TRA     s:3512
         2 000113   000212 710000 2                  TRA     s:3528
         2 000114   000224 710000 2                  TRA     s:3532

      943     3511    2           CASE( %RECVFROM);

      944     3512    2               XSL$RECVFROMRQS = XSL_RECVFROMRQS;

   3512  2 000115   000000 471400 xsym               LDP1    XSL_KEYBUF$
         2 000116   000100 100400                    MLR     fill='000'O
         2 000117   000000 000010 xsym               ADSC9   XSL_RECVFROMRQS          cn=0,n=8
         2 000120   100000 000010                    ADSC9   0,,PR1                   cn=0,n=8

      945     3513    2               XSL$RECVFROMRQS.FLAGS = MOD( FLAGS, %XSL_MSG_MORE);

   3513  2 000121   200007 473500                    LDP3    @FLAGS,,AUTO
         2 000122   300000 236100                    LDQ     0,,PR3
         2 000123   000177 376007                    ANQ     127,DL
         2 000124   000000 620006                    EAX0    0,QL
         2 000125   100000 440100                    SXL0    0,,PR1
PL6.E3A0      #002=XSL$RECVFROM File=XSL$SOCKET2.:TCA2TSI                        SUN 11/16/97 14:32 Page:98

      946     3514    2               XSL$RECVFROMRQS.LEN = LEN;

   3514  2 000126   200006 474500                    LDP4    @LEN,,AUTO
         2 000127   400000 721100                    LXL1    0,,PR4
         2 000130   100001 741100                    STX1    1,,PR1

      947     3515    2               XSL$RECVFROMRQS.FROMLEN = FROMLEN;

   3515  2 000131   200011 475500                    LDP5    @FROMLEN,,AUTO
         2 000132   500000 722100                    LXL2    0,,PR5
         2 000133   100001 442100                    SXL2    1,,PR1

      948     3516    2               CALL XSL$CL_WRITE( SOCK, LENGTHC( XSL$RECVFROMRQS));

   3516  2 000134   000001 236000 3                  LDQ     1
         2 000135   200022 235100                    LDA     SOCK$,,AUTO
         2 000136   200024 757100                    STAQ    SOCK$+2,,AUTO
         2 000137   200024 630500                    EPPR0   SOCK$+2,,AUTO
         2 000140   000020 631400 xsym               EPPR1   B_VECTNIL+16
         2 000141   000000 701000 xent               TSX1    XSL$CL_WRITE
         2 000142   000000 011000                    NOP     0

      949     3517    2               CALL XSL$CL_READ( SOCK, LEN, BUF);

   3517  2 000143   200005 236100                    LDQ     @BUF,,AUTO
         2 000144   200026 756100                    STQ     SOCK$+4,,AUTO
         2 000145   200006 236100                    LDQ     @LEN,,AUTO
         2 000146   200022 235100                    LDA     SOCK$,,AUTO
         2 000147   200024 757100                    STAQ    SOCK$+2,,AUTO
         2 000150   200024 630500                    EPPR0   SOCK$+2,,AUTO
         2 000151   000021 631400 xsym               EPPR1   B_VECTNIL+17
         2 000152   000000 701000 xent               TSX1    XSL$CL_READ
         2 000153   000000 011000                    NOP     0

      950     3518    3               IF XSL$RECVFROMRSP.RESULT < 0 THEN DO;

PL6.E3A0      #002=XSL$RECVFROM File=XSL$SOCKET2.:TCA2TSI                        SUN 11/16/97 14:32 Page:99
   3518  2 000154   000000 470400 xsym               LDP0    XSL_KEYBUF$
         2 000155   000000 720100                    LXL0    0,,PR0
         2 000156   000166 605000 2                  TPL     s:3524

      951     3519    3                   XSL_ERRNO = XSL$RECVFROMRSP.ERRNO;

   3519  2 000157   000001 236100                    LDQ     1,,PR0
         2 000160   000022 732000                    QRS     18
         2 000161   000000 756000 xsym               STQ     XSL_ERRNO

      952     3520    3   BAILOUT:
      953     3521    3                   RESULT = %E$FAILURE;

   3521  2 000162   000001 335007       BAILOUT      LCA     1,DL
         2 000163   200003 470500                    LDP0    @RESULT,,AUTO
         2 000164   000000 755100                    STA     0,,PR0

      954     3522    3                   ALTRETURN;

   3522  2 000165   000000 702200 xent               TSX2  ! X66_AALT

      955     3523    3                   END;
      956     3524    2               FROMLEN = XSL$RECVFROMRSP.FROMLEN;

   3524  2 000166   000001 236100                    LDQ     1,,PR0
         2 000167   000022 736000                    QLS     18
         2 000170   000022 732000                    QRS     18
         2 000171   200011 471500                    LDP1    @FROMLEN,,AUTO
         2 000172   100000 756100                    STQ     0,,PR1

      957     3525    2               CALL XSL$NTOHADDR( FROM, XSL$RECVFROMRSP.NAME);

   3525  2 000173   000000 236000 xsym               LDQ     XSL_KEYBUF$
         2 000174   000002 036003                    ADLQ    2,DU
         2 000175   200010 235100                    LDA     @FROM,,AUTO
         2 000176   200024 757100                    STAQ    SOCK$+2,,AUTO
         2 000177   200024 630500                    EPPR0   SOCK$+2,,AUTO
PL6.E3A0      #002=XSL$RECVFROM File=XSL$SOCKET2.:TCA2TSI                        SUN 11/16/97 14:32 Page:100
         2 000200   000020 631400 xsym               EPPR1   B_VECTNIL+16
         2 000201   000000 701000 xent               TSX1    XSL$NTOHADDR
         2 000202   000000 011000                    NOP     0

      958     3526    2               RESULT = XSL$RECVFROMRSP.RESULT;

   3526  2 000203   000000 470400 xsym               LDP0    XSL_KEYBUF$
         2 000204   000000 236100                    LDQ     0,,PR0
         2 000205   000022 736000                    QLS     18
         2 000206   000022 732000                    QRS     18
         2 000207   200003 471500                    LDP1    @RESULT,,AUTO
         2 000210   100000 756100                    STQ     0,,PR1
         2 000211   000277 710000 2                  TRA     SUCCESS

      959     3527    2           CASE( %RECV);

      960     3528    2               XSL$RECVRQS = XSL_RECVRQS;

   3528  2 000212   000000 471400 xsym               LDP1    XSL_KEYBUF$
         2 000213   000100 100400                    MLR     fill='000'O
         2 000214   000000 000006 xsym               ADSC9   XSL_RECVRQS              cn=0,n=6
         2 000215   100000 000006                    ADSC9   0,,PR1                   cn=0,n=6

      961     3529    2               XSL$RECVRQS.FLAGS = MOD( FLAGS, %XSL_MSG_MORE);

   3529  2 000216   200007 473500                    LDP3    @FLAGS,,AUTO
         2 000217   300000 236100                    LDQ     0,,PR3
         2 000220   000177 376007                    ANQ     127,DL
         2 000221   000000 620006                    EAX0    0,QL
         2 000222   100000 440100                    SXL0    0,,PR1

      962     3530    2               GOTO READ_COMMON;

   3530  2 000223   000232 710000 2                  TRA     READ_COMMON

      963     3531    2           CASE( %READ);

PL6.E3A0      #002=XSL$RECVFROM File=XSL$SOCKET2.:TCA2TSI                        SUN 11/16/97 14:32 Page:101
      964     3532    2               XSL$RECVRQS = XSL_RECVRQS;

   3532  2 000224   000000 471400 xsym               LDP1    XSL_KEYBUF$
         2 000225   000100 100400                    MLR     fill='000'O
         2 000226   000000 000006 xsym               ADSC9   XSL_RECVRQS              cn=0,n=6
         2 000227   100000 000006                    ADSC9   0,,PR1                   cn=0,n=6

      965     3533    2               XSL$RECVRQS.FLAGS = 0;

   3533  2 000230   000000 220003                    LDX0    0,DU
         2 000231   100000 440100                    SXL0    0,,PR1

      966     3534    2   READ_COMMON:
      967     3535    3               IF NOT SOCK.FLAGS.CONNECT THEN DO;

   3535  2 000232   000001 236100       READ_COMMON  LDQ     1,,PR0
         2 000233   040000 316003                    CANQ    16384,DU
         2 000234   000240 601000 2                  TNZ     s:3539

      968     3536    3                   XSL_ERRNO = %E$NOTCONN;

   3536  2 000235   000164 235007                    LDA     116,DL
         2 000236   000000 755000 xsym               STA     XSL_ERRNO

      969     3537    3                   GOTO BAILOUT;

   3537  2 000237   000162 710000 2                  TRA     BAILOUT

      970     3538    3                   END;
      971     3539    2               XSL$RECVRQS.LEN = LEN;

   3539  2 000240   200006 473500                    LDP3    @LEN,,AUTO
         2 000241   300000 721100                    LXL1    0,,PR3
         2 000242   100001 741100                    STX1    1,,PR1

      972     3540    2               CALL XSL$CL_WRITE( SOCK, LENGTHC( XSL$RECVRQS));

PL6.E3A0      #002=XSL$RECVFROM File=XSL$SOCKET2.:TCA2TSI                        SUN 11/16/97 14:32 Page:102
   3540  2 000243   000002 236000 3                  LDQ     2
         2 000244   200022 235100                    LDA     SOCK$,,AUTO
         2 000245   200024 757100                    STAQ    SOCK$+2,,AUTO
         2 000246   200024 630500                    EPPR0   SOCK$+2,,AUTO
         2 000247   000020 631400 xsym               EPPR1   B_VECTNIL+16
         2 000250   000000 701000 xent               TSX1    XSL$CL_WRITE
         2 000251   000000 011000                    NOP     0

      973     3541    2               CALL XSL$CL_READ( SOCK, LEN, BUF);

   3541  2 000252   200005 236100                    LDQ     @BUF,,AUTO
         2 000253   200026 756100                    STQ     SOCK$+4,,AUTO
         2 000254   200006 236100                    LDQ     @LEN,,AUTO
         2 000255   200022 235100                    LDA     SOCK$,,AUTO
         2 000256   200024 757100                    STAQ    SOCK$+2,,AUTO
         2 000257   200024 630500                    EPPR0   SOCK$+2,,AUTO
         2 000260   000021 631400 xsym               EPPR1   B_VECTNIL+17
         2 000261   000000 701000 xent               TSX1    XSL$CL_READ
         2 000262   000000 011000                    NOP     0

      974     3542    3               IF XSL$RECVRSP.RESULT < 0 THEN DO;

   3542  2 000263   000000 470400 xsym               LDP0    XSL_KEYBUF$
         2 000264   000000 720100                    LXL0    0,,PR0
         2 000265   000272 605000 2                  TPL     s:3546

      975     3543    3                   XSL_ERRNO = XSL$RECVRSP.ERRNO;

   3543  2 000266   000001 236100                    LDQ     1,,PR0
         2 000267   000022 732000                    QRS     18
         2 000270   000000 756000 xsym               STQ     XSL_ERRNO

      976     3544    3                   GOTO BAILOUT;

   3544  2 000271   000162 710000 2                  TRA     BAILOUT

      977     3545    3                   END;
PL6.E3A0      #002=XSL$RECVFROM File=XSL$SOCKET2.:TCA2TSI                        SUN 11/16/97 14:32 Page:103
      978     3546    2               RESULT = XSL$RECVRSP.RESULT;

   3546  2 000272   000000 236100                    LDQ     0,,PR0
         2 000273   000022 736000                    QLS     18
         2 000274   000022 732000                    QRS     18
         2 000275   200003 471500                    LDP1    @RESULT,,AUTO
         2 000276   100000 756100                    STQ     0,,PR1

      979     3547    2           END;

      980     3548    1   SUCCESS:
      981     3549    1       RETURN;

   3549  2 000277   000000 702200 xent  SUCCESS      TSX2  ! X66_ARET

      982     3550    1   NOWAIT:
      983     3551    2       DO WHILE( DCBADDR( SOCK.DCB#)->F$DCB.FCN.CNT(0) < SOCK.MAXRDS AND

   3551  2 000300   000307 710000 2     NOWAIT       TRA     s:3557

      984     3552    2         SOCK.BUFPND# <= SOCK.MAXBUF);
      985     3553    2           CALL XSL$GETBUF( SOCK)

   3553  2 000301   200022 630500                    EPPR0   SOCK$,,AUTO
         2 000302   000017 631400 xsym               EPPR1   B_VECTNIL+15
         2 000303   000000 701000 xent               TSX1    XSL$GETBUF
         2 000304   000306 702000 2                  TSX2    s:3555
         2 000305   000307 710000 2                  TRA     s:3557

      986     3554    3           WHENALTRETURN DO;

      987     3555    3               EXIT NOWAIT;

   3555  2 000306   000330 710000 2                  TRA     s:3558

      988     3556    3               END;
      989     3557    2           END;
PL6.E3A0      #002=XSL$RECVFROM File=XSL$SOCKET2.:TCA2TSI                        SUN 11/16/97 14:32 Page:104

   3557  2 000307   000003 470400 3                  LDP0    3
         2 000310   000000 471500                    LDP1    0,,PR0
         2 000311   200022 473500                    LDP3    SOCK$,,AUTO
         2 000312   300003 720100                    LXL0    3,,PR3
         2 000313   100000 474510                    LDP4    0,X0,PR1
         2 000314   300020 236100                    LDQ     16,,PR3
         2 000315   777777 376007                    ANQ     -1,DL
         2 000316   200024 756100                    STQ     SOCK$+2,,AUTO
         2 000317   400074 236100                    LDQ     60,,PR4
         2 000320   000033 772000                    QRL     27
         2 000321   000377 376007                    ANQ     255,DL
         2 000322   200024 116100                    CMPQ    SOCK$+2,,AUTO
         2 000323   000330 605000 2                  TPL     s:3558
         2 000324   300017 720100                    LXL0    15,,PR3
         2 000325   300020 100100                    CMPX0   16,,PR3
         2 000326   000301 602000 2                  TNC     s:3553
         2 000327   000301 600000 2                  TZE     s:3553

      990     3558    1       SCANNED = 0;

   3558  2 000330   200016 450100                    STZ     SCANNED,,AUTO

      991     3559    1   SCANBUFS:
      992     3560    1       BUFPND# = SOCK.BUFPND#;

   3560  2 000331   200022 470500       SCANBUFS     LDP0    SOCK$,,AUTO
         2 000332   000017 236100                    LDQ     15,,PR0
         2 000333   777777 376007                    ANQ     -1,DL
         2 000334   200017 756100                    STQ     BUFPND#,,AUTO

      993     3561    1       RESULT = 0;

   3561  2 000335   200003 471500                    LDP1    @RESULT,,AUTO
         2 000336   100000 450100                    STZ     0,,PR1

      994     3562    1       LEFT = LEN;
PL6.E3A0      #002=XSL$RECVFROM File=XSL$SOCKET2.:TCA2TSI                        SUN 11/16/97 14:32 Page:105

   3562  2 000337   200006 473500                    LDP3    @LEN,,AUTO
         2 000340   300000 235100                    LDA     0,,PR3
         2 000341   200012 755100                    STA     LEFT,,AUTO

      995     3563    1   RESCAN:
      996     3564    1       MORE = '0'B;

   3564  2 000342   200021 450100       RESCAN       STZ     MORE,,AUTO

      997     3565    1       BUF$ = PINCRW( XSL_SOCK$$, SOCK.BUFHD);

   3565  2 000343   200022 470500                    LDP0    SOCK$,,AUTO
         2 000344   000016 220100                    LDX0    14,,PR0
         2 000345   000000 636010                    EAQ     0,X0
         2 000346   000000 036000 xsym               ADLQ    XSL_SOCK$$
         2 000347   200014 756100                    STQ     BUF$,,AUTO

      998     3566    2       DO WHILE( BUF$ ~= XSL_SOCK$$);

   3566  2 000350   000000 116000 xsym               CMPQ    XSL_SOCK$$
         2 000351   000701 600000 2                  TZE     s:3627

      999     3567    2           IF DATABUF.FLAGS.BUSY THEN EXIT;

   3567  2 000352   200014 470500                    LDP0    BUF$,,AUTO
         2 000353   000001 234100                    SZN     1,,PR0
         2 000354   000701 604000 2                  TMI     s:3627

     1000     3568    2           IF NOT SOCK.FLAGS.OOBINLINE THEN

   3568  2 000355   200022 471500                    LDP1    SOCK$,,AUTO
         2 000356   100001 236100                    LDQ     1,,PR1
         2 000357   000002 316003                    CANQ    2,DU
         2 000360   000371 601000 2                  TNZ     s:3570

     1001     3569    2               IF ENTRYFLAG ~= %READ AND DATABUF.FLAGS.OOB ~= BFLAGS.OOB THEN EXIT;
PL6.E3A0      #002=XSL$RECVFROM File=XSL$SOCKET2.:TCA2TSI                        SUN 11/16/97 14:32 Page:106

   3569  2 000361   200020 235100                    LDA     ENTRYFLAG,,AUTO
         2 000362   000002 115007                    CMPA    2,DL
         2 000363   000371 600000 2                  TZE     s:3570
         2 000364   200007 473500                    LDP3    @FLAGS,,AUTO
         2 000365   000100 066500                    CMPB    filb='0'B
         2 000366   000001 010001                    BDSC    1,,PR0                   by=0,bit=1,n=1
         2 000367   300000 700001                    BDSC    0,,PR3                   by=3,bit=8,n=1
         2 000370   000701 601000 2                  TNZ     s:3627

     1002     3570    2           IF DATABUF.KEY(2) ~= 255 AND DATABUF.KEY(3) ~= 255 THEN

   3570  2 000371   000002 236100                    LDQ     2,,PR0
         2 000372   777000 376007                    ANQ     -512,DL
         2 000373   377000 116007                    CMPQ    130560,DL
         2 000374   000402 600000 2                  TZE     s:3572
         2 000375   000002 236100                    LDQ     2,,PR0
         2 000376   000777 376007                    ANQ     511,DL
         2 000377   000377 116007                    CMPQ    255,DL
         2 000400   000402 600000 2                  TZE     s:3572

     1003     3571    2               SCANNED = SCANNED + 1;  /* only count successful bufs */

   3571  2 000401   200016 054100                    AOS     SCANNED,,AUTO

     1004     3572    2           IF DATABUF.LEN = 0 AND DATABUF.KEY(2) = 0 AND DATABUF.KEY(3) = 0 AND

   3572  2 000402   000000 720100                    LXL0    0,,PR0
         2 000403   000422 601000 2                  TNZ     s:3575
         2 000404   000002 236100                    LDQ     2,,PR0
         2 000405   777000 316007                    CANQ    -512,DL
         2 000406   000422 601000 2                  TNZ     s:3575
         2 000407   000777 316007                    CANQ    511,DL
         2 000410   000422 601000 2                  TNZ     s:3575
         2 000411   200020 235100                    LDA     ENTRYFLAG,,AUTO
         2 000412   000002 115007                    CMPA    2,DL
         2 000413   000420 600000 2                  TZE     s:3574
PL6.E3A0      #002=XSL$RECVFROM File=XSL$SOCKET2.:TCA2TSI                        SUN 11/16/97 14:32 Page:107
         2 000414   200007 473500                    LDP3    @FLAGS,,AUTO
         2 000415   300000 236100                    LDQ     0,,PR3
         2 000416   000002 316007                    CANQ    2,DL
         2 000417   000422 601000 2                  TNZ     s:3575

     1005     3573    2             ( ENTRYFLAG = %READ OR NOT BFLAGS.PEEK) THEN
     1006     3574    2               SOCK.FLAGS.RECVSHUT = '1'B;  /* no more data to read */

   3574  2 000420   100000 236003                    LDQ     32768,DU
         2 000421   100001 256100                    ORSQ    1,,PR1

     1007     3575    2           NUM = MINIMUM( LEFT, DATABUF.LEN);

   3575  2 000422   000000 236100                    LDQ     0,,PR0
         2 000423   777777 376007                    ANQ     -1,DL
         2 000424   000427 604000 2                  TMI     s:3575+5
         2 000425   200012 116100                    CMPQ    LEFT,,AUTO
         2 000426   000430 604400 2                  TMOZ    s:3575+6
         2 000427   200012 236100                    LDQ     LEFT,,AUTO
         2 000430   200013 756100                    STQ     NUM,,AUTO

     1008     3576    2           IF NUM > 0 THEN

   3576  2 000431   000000 116003                    CMPQ    0,DU
         2 000432   000446 604400 2                  TMOZ    s:3578

     1009     3577    2               SUBSTR( BUF, RESULT, NUM) = PINCRC( BUF$, DATABUF.START)->B$CHARS;

   3577  2 000433   200006 473500                    LDP3    @LEN,,AUTO
         2 000434   300000 720100                    LXL0    0,,PR3
         2 000435   200003 474500                    LDP4    @RESULT,,AUTO
         2 000436   400000 235100                    LDA     0,,PR4
         2 000437   000000 236100                    LDQ     0,,PR0
         2 000440   000022 772000                    QRL     18
         2 000441   200013 721100                    LXL1    NUM,,AUTO
         2 000442   200005 475500                    LDP5    @BUF,,AUTO
         2 000443   040145 100546                    MLR     fill='040'O
PL6.E3A0      #002=XSL$RECVFROM File=XSL$SOCKET2.:TCA2TSI                        SUN 11/16/97 14:32 Page:108
         2 000444   000000 000011                    ADSC9   0,Q,PR0                  cn=0,n=*X1
         2 000445   500000 000011                    ADSC9   0,A,PR5                  cn=0,n=*X1

     1010     3578    2           LEFT = LEFT - NUM;

   3578  2 000446   200012 236100                    LDQ     LEFT,,AUTO
         2 000447   200013 136100                    SBLQ    NUM,,AUTO
         2 000450   200012 756100                    STQ     LEFT,,AUTO

     1011     3579    2           RESULT = RESULT + NUM;

   3579  2 000451   200003 473500                    LDP3    @RESULT,,AUTO
         2 000452   300000 236100                    LDQ     0,,PR3
         2 000453   200013 036100                    ADLQ    NUM,,AUTO
         2 000454   300000 756100                    STQ     0,,PR3

     1012     3580    3           IF ENTRYFLAG = %READ OR NOT BFLAGS.PEEK THEN DO;

   3580  2 000455   200020 235100                    LDA     ENTRYFLAG,,AUTO
         2 000456   000002 115007                    CMPA    2,DL
         2 000457   000464 600000 2                  TZE     s:3581
         2 000460   200007 474500                    LDP4    @FLAGS,,AUTO
         2 000461   400000 236100                    LDQ     0,,PR4
         2 000462   000002 316007                    CANQ    2,DL
         2 000463   000476 601000 2                  TNZ     s:3584

     1013     3581    3               DATABUF.START = DATABUF.START + NUM;

   3581  2 000464   000000 236100                    LDQ     0,,PR0
         2 000465   000022 772000                    QRL     18
         2 000466   200013 036100                    ADLQ    NUM,,AUTO
         2 000467   000000 620006                    EAX0    0,QL
         2 000470   000000 740100                    STX0    0,,PR0

     1014     3582    3               DATABUF.LEN = DATABUF.LEN - NUM;

   3582  2 000471   000000 236100                    LDQ     0,,PR0
PL6.E3A0      #002=XSL$RECVFROM File=XSL$SOCKET2.:TCA2TSI                        SUN 11/16/97 14:32 Page:109
         2 000472   777777 376007                    ANQ     -1,DL
         2 000473   200013 136100                    SBLQ    NUM,,AUTO
         2 000474   000000 621006                    EAX1    0,QL
         2 000475   000000 441100                    SXL1    0,,PR0

     1015     3583    3               END;

     1016     3584    2           TMP$ = PINCRW( XSL_SOCK$$, DATABUF.NXT);

   3584  2 000476   000001 720100                    LXL0    1,,PR0
         2 000477   000000 636010                    EAQ     0,X0
         2 000500   000000 036000 xsym               ADLQ    XSL_SOCK$$
         2 000501   200015 756100                    STQ     TMP$,,AUTO

     1017     3585    2           IF ENTRYFLAG = %RECVFROM THEN

   3585  2 000502   000000 115003                    CMPA    0,DU
         2 000503   000535 601000 2                  TNZ     s:3594

     1018     3586    3               IF DATABUF.KEY(1) = %RECVFROMRSP THEN DO;

   3586  2 000504   000002 236100                    LDQ     2,,PR0
         2 000505   000777 376003                    ANQ     511,DU
         2 000506   000020 116003                    CMPQ    16,DU
         2 000507   000526 601000 2                  TNZ     s:3591

     1019     3587    3                   FROMLEN = ADDR( DATABUF.KEY)->XSL$RECVFROMRSP.FROMLEN;

   3587  2 000510   000003 236100                    LDQ     3,,PR0
         2 000511   000022 736000                    QLS     18
         2 000512   000022 732000                    QRS     18
         2 000513   200011 474500                    LDP4    @FROMLEN,,AUTO
         2 000514   400000 756100                    STQ     0,,PR4

     1020     3588    3                   CALL XSL$NTOHADDR( FROM, ADDR( DATABUF.KEY)->XSL$RECVFROMRSP.NAME);

   3588  2 000515   200014 236100                    LDQ     BUF$,,AUTO
PL6.E3A0      #002=XSL$RECVFROM File=XSL$SOCKET2.:TCA2TSI                        SUN 11/16/97 14:32 Page:110
         2 000516   000004 036003                    ADLQ    4,DU
         2 000517   200010 235100                    LDA     @FROM,,AUTO
         2 000520   200024 757100                    STAQ    SOCK$+2,,AUTO
         2 000521   200024 630500                    EPPR0   SOCK$+2,,AUTO
         2 000522   000020 631400 xsym               EPPR1   B_VECTNIL+16
         2 000523   000000 701000 xent               TSX1    XSL$NTOHADDR
         2 000524   000000 011000                    NOP     0

     1021     3589    3                   END;

   3589  2 000525   000535 710000 2                  TRA     s:3594

     1022     3590    3               ELSE DO;

     1023     3591    3                   FROMLEN = LENGTHC( FROM);

   3591  2 000526   000024 235007                    LDA     20,DL
         2 000527   200011 474500                    LDP4    @FROMLEN,,AUTO
         2 000530   400000 755100                    STA     0,,PR4

     1024     3592    3                   FROM = SOCK.PEERNAME;

   3592  2 000531   200010 475500                    LDP5    @FROM,,AUTO
         2 000532   000100 100500                    MLR     fill='000'O
         2 000533   100011 000024                    ADSC9   9,,PR1                   cn=0,n=20
         2 000534   500000 000024                    ADSC9   0,,PR5                   cn=0,n=20

     1025     3593    3                   END;

     1026     3594    3           IF SOCK.TYPE = %XSL_SOCK_DGRAM THEN DO;

   3594  2 000535   200022 470500                    LDP0    SOCK$,,AUTO
         2 000536   000000 236100                    LDQ     0,,PR0
         2 000537   000777 376003                    ANQ     511,DU
         2 000540   000002 116003                    CMPQ    2,DU
         2 000541   000574 601000 2                  TNZ     s:3602

PL6.E3A0      #002=XSL$RECVFROM File=XSL$SOCKET2.:TCA2TSI                        SUN 11/16/97 14:32 Page:111
     1027     3595    3               IF DATABUF.FLAGS.MORE THEN

   3595  2 000542   200014 471500                    LDP1    BUF$,,AUTO
         2 000543   100001 236100                    LDQ     1,,PR1
         2 000544   100000 316003                    CANQ    32768,DU
         2 000545   000550 600000 2                  TZE     s:3597

     1028     3596    3                   MORE = '1'B;

   3596  2 000546   400000 236003                    LDQ     -131072,DU
         2 000547   200021 756100                    STQ     MORE,,AUTO

     1029     3597    3               IF NOT MORE OR ( ENTRYFLAG ~= %READ AND BFLAGS.PEEK) THEN

   3597  2 000550   200021 234100                    SZN     MORE,,AUTO
         2 000551   000561 605000 2                  TPL     s:3598
         2 000552   200020 235100                    LDA     ENTRYFLAG,,AUTO
         2 000553   000002 115007                    CMPA    2,DL
         2 000554   000563 600000 2                  TZE     s:3599
         2 000555   200007 473500                    LDP3    @FLAGS,,AUTO
         2 000556   300000 236100                    LDQ     0,,PR3
         2 000557   000002 316007                    CANQ    2,DL
         2 000560   000563 600000 2                  TZE     s:3599

     1030     3598    3                   TMP$ = XSL_SOCK$$;  /* halt scan with this buffer */

   3598  2 000561   000000 236000 xsym               LDQ     XSL_SOCK$$
         2 000562   200015 756100                    STQ     TMP$,,AUTO

     1031     3599    3               IF ENTRYFLAG = %READ OR NOT BFLAGS.PEEK THEN

   3599  2 000563   200020 235100                    LDA     ENTRYFLAG,,AUTO
         2 000564   000002 115007                    CMPA    2,DL
         2 000565   000572 600000 2                  TZE     s:3600
         2 000566   200007 473500                    LDP3    @FLAGS,,AUTO
         2 000567   300000 236100                    LDQ     0,,PR3
         2 000570   000002 316007                    CANQ    2,DL
PL6.E3A0      #002=XSL$RECVFROM File=XSL$SOCKET2.:TCA2TSI                        SUN 11/16/97 14:32 Page:112
         2 000571   000574 601000 2                  TNZ     s:3602

     1032     3600    3                   DATABUF.LEN = 0;  /* discard remainder of datagram */

   3600  2 000572   000000 220003                    LDX0    0,DU
         2 000573   100000 440100                    SXL0    0,,PR1

     1033     3601    3               END;

     1034     3602    3           IF DATABUF.LEN = 0 THEN DO INHIBIT;

   3602  2 000574   200014 471500                    LDP1    BUF$,,AUTO
         2 000575   100000 720100                    LXL0    0,,PR1
         2 000576   000654 601000 2                  TNZ     s:3618

     1035     3603    3               IF DATABUF.KEY(2) ~= 255 AND DATABUF.KEY(3) ~= 255 THEN

   3603  2 000577   100002 236300                    LDQ   ! 2,,PR1
         2 000600   777000 376207                    ANQ   ! -512,DL
         2 000601   377000 116207                    CMPQ  ! 130560,DL
         2 000602   000632 600200 2                  TZE   ! s:3614
         2 000603   100002 236300                    LDQ   ! 2,,PR1
         2 000604   000777 376207                    ANQ   ! 511,DL
         2 000605   000377 116207                    CMPQ  ! 255,DL
         2 000606   000632 600200 2                  TZE   ! s:3614

     1036     3604    4                   IF DATABUF.FLAGS.OOB AND NOT SOCK.FLAGS.OOBINLINE THEN DO;

   3604  2 000607   100001 236300                    LDQ   ! 1,,PR1
         2 000610   200000 316203                    CANQ  ! 65536,DU
         2 000611   000624 600200 2                  TZE   ! s:3610
         2 000612   000001 236300                    LDQ   ! 1,,PR0
         2 000613   000002 316203                    CANQ  ! 2,DU
         2 000614   000624 601200 2                  TNZ   ! s:3610

     1037     3605    4                       SOCK.OOB# = SOCK.OOB# - 1;

PL6.E3A0      #002=XSL$RECVFROM File=XSL$SOCKET2.:TCA2TSI                        SUN 11/16/97 14:32 Page:113
   3605  2 000615   000021 221300                    LDX1  ! 17,,PR0
         2 000616   777777 622211                    EAX2  ! -1,X1
         2 000617   000021 742300                    STX2  ! 17,,PR0

     1038     3606    4                       IF SOCK.OOB# = 0 THEN

   3606  2 000620   000632 601200 2                  TNZ   ! s:3614

     1039     3607    4                           SOCK.FLAGS.SELEXCEP = '0'B;

   3607  2 000621   000004 236200 3                  LDQ   ! 4
         2 000622   000001 356300                    ANSQ  ! 1,,PR0

     1040     3608    4                       END;

   3608  2 000623   000632 710200 2                  TRA   ! s:3614

     1041     3609    4                   ELSE DO;

     1042     3610    4                       SOCK.DAT# = SOCK.DAT# - 1;

   3610  2 000624   000021 721300                    LXL1  ! 17,,PR0
         2 000625   777777 622211                    EAX2  ! -1,X1
         2 000626   000021 442300                    SXL2  ! 17,,PR0

     1043     3611    4                       IF SOCK.DAT# = 0 THEN

   3611  2 000627   000632 601200 2                  TNZ   ! s:3614

     1044     3612    4                           SOCK.FLAGS.SELREAD = '0'B;

   3612  2 000630   000005 236200 3                  LDQ   ! 5
         2 000631   000001 356300                    ANSQ  ! 1,,PR0

     1045     3613    4                       END;

     1046     3614    3               SOCK.FLAGS.REUSEBUF = ~SOCK.FLAGS.RECVSHUT;
PL6.E3A0      #002=XSL$RECVFROM File=XSL$SOCKET2.:TCA2TSI                        SUN 11/16/97 14:32 Page:114

   3614  2 000632   000001 236300                    LDQ   ! 1,,PR0
         2 000633   000002 736200                    QLS   ! 2
         2 000634   400000 376203                    ANQ   ! -131072,DU
         2 000635   400000 676203                    ERQ   ! -131072,DU
         2 000636   000017 772200                    QRL   ! 15
         2 000637   000001 676300                    ERQ   ! 1,,PR0
         2 000640   000004 376203                    ANQ   ! 4,DU
         2 000641   000001 656300                    ERSQ  ! 1,,PR0

     1047     3615    3               SOCK.BUFPND# = SOCK.BUFPND# - 1;

   3615  2 000642   000017 720300                    LXL0  ! 15,,PR0
         2 000643   777777 621210                    EAX1  ! -1,X0
         2 000644   000017 441300                    SXL1  ! 15,,PR0

     1048     3616    3               CALL XSL$RELBUF( SOCK, DATABUF);

   3616  2 000645   200014 236300                    LDQ   ! BUF$,,AUTO
         2 000646   200022 235300                    LDA   ! SOCK$,,AUTO
         2 000647   200024 757300                    STAQ  ! SOCK$+2,,AUTO
         2 000650   200024 630700                    EPPR0 ! SOCK$+2,,AUTO
         2 000651   000020 631600 xsym               EPPR1 ! B_VECTNIL+16
         2 000652   000000 701200 xent               TSX1  ! XSL$RELBUF
         2 000653   000000 011200                    NOP   ! 0

     1049     3617    3               END;

     1050     3618    2           IF SOCK.FLAGS.RECVSHUT OR LEFT = 0 THEN EXIT;

   3618  2 000654   200022 470500                    LDP0    SOCK$,,AUTO
         2 000655   000001 236100                    LDQ     1,,PR0
         2 000656   100000 316003                    CANQ    32768,DU
         2 000657   000701 601000 2                  TNZ     s:3627
         2 000660   200012 235100                    LDA     LEFT,,AUTO
         2 000661   000701 600000 2                  TZE     s:3627

PL6.E3A0      #002=XSL$RECVFROM File=XSL$SOCKET2.:TCA2TSI                        SUN 11/16/97 14:32 Page:115
     1051     3619    3           IF MORE THEN DO INHIBIT;

   3619  2 000662   200021 234100                    SZN     MORE,,AUTO
         2 000663   000675 605000 2                  TPL     s:3625

     1052     3620    4               DO WHILE( SOCK.DAT# = 0);

   3620  2 000664   000021 720300                    LXL0  ! 17,,PR0
         2 000665   000674 601200 2                  TNZ   ! s:3623

     1053     3621    4                   CALL M$WAIT( XSL_WAIT1DAY);

   3621  2 000666   000000 630600 xsym               EPPR0 ! XSL_WAIT1DAY
         2 000667   020006 713600                    CLIMB ! 8198
         2 000670   400400 401760                    pmme    nvectors=2

     1054     3622    4                   END;

   3622  2 000671   200022 470700                    LDP0  ! SOCK$,,AUTO
         2 000672   000021 720300                    LXL0  ! 17,,PR0
         2 000673   000666 600200 2                  TZE   ! s:3621

     1055     3623    3               GOTO RESCAN;

   3623  2 000674   000342 710200 2                  TRA   ! RESCAN

     1056     3624    3               END;

     1057     3625    2           BUF$ = TMP$;

   3625  2 000675   200015 236100                    LDQ     TMP$,,AUTO
         2 000676   200014 756100                    STQ     BUF$,,AUTO

     1058     3626    2           END;

   3626  2 000677   000000 116000 xsym               CMPQ    XSL_SOCK$$
         2 000700   000352 601000 2                  TNZ     s:3567
PL6.E3A0      #002=XSL$RECVFROM File=XSL$SOCKET2.:TCA2TSI                        SUN 11/16/97 14:32 Page:116

     1059     3627    2       IF RESULT = 0 THEN DO;

   3627  2 000701   200003 470500                    LDP0    @RESULT,,AUTO
         2 000702   000000 235100                    LDA     0,,PR0
         2 000703   000744 601000 2                  TNZ     s:3644

     1060     3628    2           IF SCANNED ~= 0 THEN

   3628  2 000704   200016 236100                    LDQ     SCANNED,,AUTO
         2 000705   000277 601000 2                  TNZ     SUCCESS

     1061     3629    2               GOTO SUCCESS;
     1062     3630    3           IF SOCK.FLAGS.BLOCKING THEN DO INHIBIT;

   3630  2 000706   200022 471500                    LDP1    SOCK$,,AUTO
         2 000707   100001 430100                    FSZN    1,,PR1
         2 000710   000741 605000 2                  TPL     s:3640

     1063     3631    3               IF BUFPND# ~= SOCK.BUFPND# THEN GOTO SCANBUFS;

   3631  2 000711   100017 236300                    LDQ   ! 15,,PR1
         2 000712   777777 376207                    ANQ   ! -1,DL
         2 000713   200017 116300                    CMPQ  ! BUFPND#,,AUTO
         2 000714   000331 601200 2                  TNZ   ! SCANBUFS

     1064     3632    3               XSL_UETIME = 0;

   3632  2 000715   000000 450200 xsym               STZ   ! XSL_UETIME

     1065     3633    4               DO WHILE( XSL_UETIME = 0);

   3633  2 000716   000000 235200 xsym               LDA   ! XSL_UETIME
         2 000717   000737 601200 2                  TNZ   ! s:3637

     1066     3634    4                   CALL XSL$EVLOG( 'WT', ADDR(SOCK));

PL6.E3A0      #002=XSL$RECVFROM File=XSL$SOCKET2.:TCA2TSI                        SUN 11/16/97 14:32 Page:117
   3634  2 000720   200022 236300                    LDQ   ! SOCK$,,AUTO
         2 000721   200024 756300                    STQ   ! SOCK$+2,,AUTO
         2 000722   200024 630700                    EPPR0 ! SOCK$+2,,AUTO
         2 000723   200027 450700                    STP0  ! SOCK$+5,,AUTO
         2 000724   000006 236200 3                  LDQ   ! 6
         2 000725   200026 756300                    STQ   ! SOCK$+4,,AUTO
         2 000726   200026 630700                    EPPR0 ! SOCK$+4,,AUTO
         2 000727   000020 631600 xsym               EPPR1 ! B_VECTNIL+16
         2 000730   000000 701200 xent               TSX1  ! XSL$EVLOG
         2 000731   000000 011200                    NOP   ! 0

     1067     3635    4                   CALL M$WAIT( XSL_WAIT1DAY);

   3635  2 000732   000000 630600 xsym               EPPR0 ! XSL_WAIT1DAY
         2 000733   020006 713600                    CLIMB ! 8198
         2 000734   400400 401760                    pmme    nvectors=2

     1068     3636    4                   END;

   3636  2 000735   000000 235200 xsym               LDA   ! XSL_UETIME
         2 000736   000720 600200 2                  TZE   ! s:3634

     1069     3637    3               GOTO SCANBUFS;

   3637  2 000737   000331 710200 2                  TRA   ! SCANBUFS

     1070     3638    3               END;

   3638  2 000740   000744 710000 2                  TRA     s:3644

     1071     3639    3           ELSE DO;

     1072     3640    3               XSL_ERRNO = %E$WOULDBLOCK;

   3640  2 000741   000136 235007                    LDA     94,DL
         2 000742   000000 755000 xsym               STA     XSL_ERRNO

PL6.E3A0      #002=XSL$RECVFROM File=XSL$SOCKET2.:TCA2TSI                        SUN 11/16/97 14:32 Page:118
     1073     3641    3               GOTO BAILOUT;

   3641  2 000743   000162 710000 2                  TRA     BAILOUT

     1074     3642    3               END;
     1075     3643    2           END;
     1076     3644    1       GOTO SUCCESS;

   3644  2 000744   000277 710000 2                  TRA     SUCCESS

(unnamed)
 Sect OctLoc
   1     000   127124 040040                                                    WT

(unnamed)
 Sect OctLoc
   3     000   000000 006000   000012 006000   000010 006000   000000 006003    ................
   3     004   777767 777777   777737 777777   000000 006000                    ............
     1077     3645
     1078     3646    1   END XSL$RECVFROM;
     1079     3647        %EOD;

PL6.E3A0      #002=XSL$RECVFROM File=XSL$SOCKET2.:TCA2TSI                        SUN 11/16/97 14:32 Page:119
--  Include file information  --

   XSL_SOCKMSGS_M.:TCA2TOU  is referenced.
   XSL_SOCKMSGS_E.:TCA2TOU  is referenced.
   XSL_INTERNAL_M.:TCA2TOU  is referenced.
   XSL_PERR_C.:TCA2TOU  is referenced.
   XSL_SOCKET_M.:TCA2TOU  is referenced.
   XSL_SOCKET_E.:TCA2TOU  is referenced.
   CP_6.:LIBRARY  cannot be made into a system file and is referenced.
   B$JIT_C.:E05TOU  was found in the system file and is never referenced.
   CP_6_C.:E05TOU  was found in the system file and is referenced.
      No diagnostics issued in procedure XSL$RECVFROM.
PL6.E3A0      #002=XSL$RECVFROM File=XSL$SOCKET2.:TCA2TSI                        SUN 11/16/97 14:32 Page:120

 **** Variables and constants ****

  ****  Auto variables  ****

  ****  Scalars and arrays  ****
OctLoc.c.b A Datatyp(siz) R M Lvl/name                 OctLoc.c.b A Datatyp(siz) R M Lvl/name

     5-0-0/w PTR         r     1 @BUF                       7-0-0/w PTR         r     1 @FLAGS
    10-0-0/w PTR         r     1 @FROM                     11-0-0/w PTR         r     1 @FROMLEN
     6-0-0/w PTR         r     1 @LEN                       3-0-0/w PTR         r     1 @RESULT
     4-0-0/w PTR         r     1 @SOCK#                    *0-0-0/w STRC        r     1 BFLAGS
    *0-0-0/c ACHR        r     1 BUF                       14-0-0/w PTR         r     1 BUF$
    17-0-0/w SBIN        r     1 BUFPND#                   20-0-0/w SBIN        r     1 ENTRYFLAG
    *0-0-0/w UBIN        r     1 FLAGS                     *0-0-0/w STRC(180)   r     1 FROM
    *0-0-0/w SBIN        r     1 FROMLEN                   12-0-0/w SBIN        r     1 LEFT
    *0-0-0/w SBIN        r     1 LEN                       21-0-0/b BIT         r     1 MORE
    13-0-0/w SBIN        r     1 NUM                       *0-0-0/w SBIN        r     1 RESULT
    16-0-0/w SBIN        r     1 SCANNED                   *0-0-0/w SBIN        r     1 SOCK#
    22-0-0/w PTR         r     1 SOCK$                     15-0-0/w PTR         r     1 TMP$

  ****  SYMREF variables  ****

  ****  Scalars and arrays  ****
OctLoc.c.b A Datatyp(siz) R M Lvl/name                 OctLoc.c.b A Datatyp(siz) R M Lvl/name

     0-0-0/w SBIN        r     1 XSL_ERRNO                  0-0-0/w PTR         r     1 XSL_KEYBUF$
     0-0-0/w STRC(72)    r     1 XSL_RECVFROMRQS            0-0-0/w STRC(54)    r     1 XSL_RECVRQS
     0-0-0/w PTR         r     1 XSL_SOCK$                  0-0-0/w PTR         r     1 XSL_SOCK$$
     0-0-0/w SBIN        r     1 XSL_UETIME                 0-0-0/d STRC(216)   r     1 XSL_WAIT1DAY

  ****  BASED and DCB variables  ****

  ****  Scalars and arrays  ****
OctLoc.c.b A Datatyp(siz) R M Lvl/name                 OctLoc.c.b A Datatyp(siz) R M Lvl/name

     0-0-0/c ACHR        r     1 B$CHARS                    0-0-0/w STRC(360)   r     1 DATABUF
     0-0-0/d ASTR(3528)  r     1 F$DCB                      0-0-0/w STRC(720)   r     1 SOCK
PL6.E3A0      #002=XSL$RECVFROM File=XSL$SOCKET2.:TCA2TSI                        SUN 11/16/97 14:32 Page:121
     0-0-0/w STRC(72)    r     1 XSL$RECVFROMRQS            0-0-0/w STRC(216)   r     1 XSL$RECVFROMRSP
     0-0-0/w STRC(54)    r     1 XSL$RECVRQS                0-0-0/w STRC(54)    r     1 XSL$RECVRSP


   Procedure XSL$RECVFROM requires 485 words for executable code.
   Procedure XSL$RECVFROM requires 24 words of local(AUTO) storage.
PL6.E3A0      #002=XSL$RECVFROM File=XSL$SOCKET2.:TCA2TSI                        SUN 11/16/97 14:32 Page:122
          *** CROSS REFERENCE LISTING ***
**     DENOTES     IDENTIFIER DEFINITION
<<                 IDENTIFIER'S VALUE SET
>>                 IDENTIFIER'S VALUE USED
<>                 IDENTIFIER SET AND/OR USED
--                 IDENTIFIER REFERENCED
PL6.E3A0      #002=XSL$RECVFROM File=XSL$SOCKET2.:TCA2TSI                        SUN 11/16/97 14:32 Page:123
          MINI XREF LISTING

B$CHARS
      3437**DCL      3577>>ASSIGN
BAILOUT
      3521**LABEL    3478--CALLALT  3492--CALLALT  3497--GOTO     3537--GOTO     3544--GOTO     3641--GOTO
BFLAGS.OOB
      3453**DCL      3569>>IF
BFLAGS.PEEK
      3452**DCL      3572>>IF       3580>>IF       3597>>IF       3599>>IF
BUF
      3444**DCL       319--PROC     3464--ENTRY    3469--ENTRY    3474--ENTRY    3481--ENTRY    3486--ENTRY
      3517<>CALL     3541<>CALL     3577<<ASSIGN
BUF$
      3440**DCL      2031--IMP-PTR  3565<<ASSIGN   3566>>DOWHILE  3567>>IF       3569>>IF       3570>>IF
      3570>>IF       3572>>IF       3572>>IF       3572>>IF       3575>>ASSIGN   3577>>ASSIGN   3577>>ASSIGN
      3581>>ASSIGN   3581>>ASSIGN   3582>>ASSIGN   3582>>ASSIGN   3584>>ASSIGN   3586>>IF       3587>>ASSIGN
      3588>>CALL     3595>>IF       3600>>ASSIGN   3602>>IF       3603>>IF       3603>>IF       3604>>IF
      3616>>CALL     3625<<ASSIGN
BUFPND#
      3443**DCL      3560<<ASSIGN   3631>>IF
COMMONDCBN
      3492**LABEL    3462--GOTO     3472--GOTO     3484--GOTO
COMMONSOCK
      3478**LABEL    3467--GOTO     3489--GOTO
DATABUF
      2031**DCL      3616<>CALL
DATABUF.FLAGS.BUSY
      2041**DCL      3567>>IF
DATABUF.FLAGS.MORE
      2043**DCL      3595>>IF
DATABUF.FLAGS.OOB
      2042**DCL      3569>>IF       3604>>IF
DATABUF.KEY
PL6.E3A0      #002=XSL$RECVFROM File=XSL$SOCKET2.:TCA2TSI                        SUN 11/16/97 14:32 Page:124
      2045**DCL      3570>>IF       3570>>IF       3572>>IF       3572>>IF       3586>>IF       3587--ASSIGN
      3588--CALL     3603>>IF       3603>>IF
DATABUF.LEN
      2039**DCL      3572>>IF       3575>>ASSIGN   3582<<ASSIGN   3582>>ASSIGN   3600<<ASSIGN   3602>>IF
DATABUF.NXT
      2044**DCL      3584>>ASSIGN
DATABUF.START
      2038**DCL      3577>>ASSIGN   3581<<ASSIGN   3581>>ASSIGN
ENTRYFLAG
      3445**DCL      3461<<ASSIGN   3466<<ASSIGN   3471<<ASSIGN   3476<<ASSIGN   3483<<ASSIGN   3488<<ASSIGN
      3510>>DOCASE   3569>>IF       3572>>IF       3580>>IF       3585>>IF       3597>>IF       3599>>IF
F$DCB.ACTPOS
       434**DCL       434--REDEF
F$DCB.ARS#
       408**DCL       408--REDEF
F$DCB.ATTR
       427**DCL       428--REDEF
F$DCB.BORROW
       442**DCL       442--REDEF     442--REDEF     442--REDEF
F$DCB.DCBNAME.L
       456**DCL       456--IMP-SIZ
F$DCB.EOMCHAR#
       412**DCL       412--REDEF
F$DCB.FCN.CNT
       447**DCL      3551>>DOWHILE
F$DCB.FLDID
       437**DCL       437--REDEF
F$DCB.FORM$
       431**DCL       431--REDEF
F$DCB.FSECT
       447**DCL       447--REDEF
F$DCB.FSN#
       424**DCL       424--REDEF     424--REDEF     425--REDEF
F$DCB.HEADER$
       430**DCL       430--REDEF
F$DCB.IXTNSIZE#
PL6.E3A0      #002=XSL$RECVFROM File=XSL$SOCKET2.:TCA2TSI                        SUN 11/16/97 14:32 Page:125
       428**DCL       428--REDEF
F$DCB.LASTSTA$
       417**DCL       417--REDEF
F$DCB.LVL
       443**DCL       443--REDEF
F$DCB.NAME#.C
       418**DCL       418--REDEF
F$DCB.NOEOF
       440**DCL       440--REDEF
F$DCB.NRECS#
       429**DCL       429--REDEF
F$DCB.NRECX
       448**DCL       448--REDEF
F$DCB.OHDR
       440**DCL       440--REDEF
F$DCB.ORG#
       423**DCL       423--REDEF
F$DCB.PRECNO
       446**DCL       446--REDEF
F$DCB.RCSZ
       452**DCL       452--REDEF
F$DCB.RES#
       419**DCL       419--REDEF
F$DCB.SETX
       431**DCL       431--REDEF
F$DCB.TAB$
       431**DCL       431--REDEF
F$DCB.TDA
       445**DCL       446--REDEF
F$DCB.WSN#
       419**DCL       419--REDEF
FLAGS
      3449**DCL       319--PROC     3450--REDEF    3464--ENTRY    3469--ENTRY    3474--ENTRY    3513>>ASSIGN
      3529>>ASSIGN
FROM
      1508**DCL       319--PROC     3464--ENTRY    3525<>CALL     3588<>CALL     3591--ASSIGN   3592<<ASSIGN
PL6.E3A0      #002=XSL$RECVFROM File=XSL$SOCKET2.:TCA2TSI                        SUN 11/16/97 14:32 Page:126
FROMLEN
      3454**DCL       319--PROC     3464--ENTRY    3515>>ASSIGN   3524<<ASSIGN   3587<<ASSIGN   3591<<ASSIGN
LATER
      3494**LABEL    3479--GOTO
LEFT
      3438**DCL      3562<<ASSIGN   3575>>ASSIGN   3578<<ASSIGN   3578>>ASSIGN   3618>>IF
LEN
      3455**DCL       319--PROC     3444--IMP-SIZ  3464--ENTRY    3469--ENTRY    3474--ENTRY    3481--ENTRY
      3486--ENTRY    3514>>ASSIGN   3517<>CALL     3517>>CALL     3539>>ASSIGN   3541<>CALL     3541>>CALL
      3562>>ASSIGN   3577>>ASSIGN
M$WAIT
       387**DCL-ENT  3621--CALL     3635--CALL
MORE
      3456**DCL      3564<<ASSIGN   3596<<ASSIGN   3597>>IF       3619>>IF
NOWAIT
      3551**LABEL    3504--GOTO     3508--GOTO     3555--EXIT
NUM
      3439**DCL      3437--IMP-SIZ  3575<<ASSIGN   3576>>IF       3577>>ASSIGN   3577>>ASSIGN   3578>>ASSIGN
      3579>>ASSIGN   3581>>ASSIGN   3582>>ASSIGN
READ_COMMON
      3535**LABEL    3530--GOTO
RESCAN
      3564**LABEL    3623--GOTO
RESULT
      3457**DCL       319--PROC     3464--ENTRY    3469--ENTRY    3474--ENTRY    3481--ENTRY    3486--ENTRY
      3500<<ASSIGN   3521<<ASSIGN   3526<<ASSIGN   3546<<ASSIGN   3561<<ASSIGN   3577>>ASSIGN   3579<<ASSIGN
      3579>>ASSIGN   3627>>IF
SCANBUFS
      3560**LABEL    3631--GOTO     3637--GOTO
SCANNED
      3442**DCL      3558<<ASSIGN   3571<<ASSIGN   3571>>ASSIGN   3628>>IF
SOCK
      1855**DCL      3506<>CALL     3516<>CALL     3517<>CALL     3540<>CALL     3541<>CALL     3553<>CALL
      3616<>CALL     3634--CALL
SOCK.BUFHD
      1969**DCL      3505>>IF       3565>>ASSIGN
PL6.E3A0      #002=XSL$RECVFROM File=XSL$SOCKET2.:TCA2TSI                        SUN 11/16/97 14:32 Page:127
SOCK.BUFPND#
      1972**DCL      3551>>DOWHILE  3560>>ASSIGN   3615<<ASSIGN   3615>>ASSIGN   3631>>IF
SOCK.DAT#
      1976**DCL      3610<<ASSIGN   3610>>ASSIGN   3611>>IF       3620>>DOWHILE
SOCK.DCB#
      1888**DCL      3551--DOWHILE
SOCK.FLAGS.BLOCKING
      1874**DCL      3630>>IF
SOCK.FLAGS.CONNECT
      1869**DCL      3535>>IF
SOCK.FLAGS.OOBINLINE
      1882**DCL      3568>>IF       3604>>IF
SOCK.FLAGS.RECVSHUT
      1868**DCL      3499>>IF       3574<<ASSIGN   3614>>ASSIGN   3618>>IF
SOCK.FLAGS.REUSEBUF
      1881**DCL      3614<<ASSIGN
SOCK.FLAGS.SELEXCEP
      1880**DCL      3607<<ASSIGN
SOCK.FLAGS.SELREAD
      1878**DCL      3503>>IF       3507>>IF       3612<<ASSIGN
SOCK.FLAGS.SOCKET
      1873**DCL      3495>>IF
SOCK.MAXBUF
      1973**DCL      3551>>DOWHILE
SOCK.MAXRDS
      1974**DCL      3503>>IF       3551>>DOWHILE
SOCK.NBACCEPT_SOCK$
      1977**DCL      1978--REDEF
SOCK.OOB#
      1975**DCL      3605<<ASSIGN   3605>>ASSIGN   3606>>IF
SOCK.PEERNAME
      1948**DCL      3592>>ASSIGN
SOCK.TYPE
      1862**DCL      3594>>IF
SOCK#
      3458**DCL       319--PROC     3464--ENTRY    3469--ENTRY    3474--ENTRY    3478<>CALL     3481--ENTRY
PL6.E3A0      #002=XSL$RECVFROM File=XSL$SOCKET2.:TCA2TSI                        SUN 11/16/97 14:32 Page:128
      3486--ENTRY    3492<>CALL
SOCK$
      3459**DCL      1855--IMP-PTR  3494<<ASSIGN   3495>>IF       3499>>IF       3503>>IF       3503>>IF
      3505>>IF       3506>>CALL     3507>>IF       3516>>CALL     3517>>CALL     3535>>IF       3540>>CALL
      3541>>CALL     3551>>DOWHILE  3551>>DOWHILE  3551>>DOWHILE  3551>>DOWHILE  3553>>CALL     3560>>ASSIGN
      3565>>ASSIGN   3568>>IF       3574>>ASSIGN   3592>>ASSIGN   3594>>IF       3604>>IF       3605>>ASSIGN
      3605>>ASSIGN   3606>>IF       3607>>ASSIGN   3610>>ASSIGN   3610>>ASSIGN   3611>>IF       3612>>ASSIGN
      3614>>ASSIGN   3614>>ASSIGN   3615>>ASSIGN   3615>>ASSIGN   3616>>CALL     3618>>IF       3620>>DOWHILE
      3630>>IF       3631>>IF       3634>>CALL
SUCCESS
      3549**LABEL    3501--GOTO     3629--GOTO     3644--GOTO
TMP$
      3441**DCL      3584<<ASSIGN   3598<<ASSIGN   3625>>ASSIGN
XSL$CL_CANCEL
      3423**DCL-ENT  3506--CALL
XSL$CL_READ
      3421**DCL-ENT  3517--CALL     3541--CALL
XSL$CL_WRITE
      3422**DCL-ENT  3516--CALL     3540--CALL
XSL$DCBNPTR
      3428**DCL-ENT  3492--CALL
XSL$EVLOG
      3429**DCL-ENT  3634--CALL
XSL$GETBUF
      3424**DCL-ENT  3553--CALL
XSL$NTOHADDR
      3426**DCL-ENT  3525--CALL     3588--CALL
XSL$RECVFROMRQS
      3355**DCL      3512<<ASSIGN   3516--CALL
XSL$RECVFROMRQS.FLAGS
      3362**DCL      3513<<ASSIGN
XSL$RECVFROMRQS.FROMLEN
      3364**DCL      3515<<ASSIGN
XSL$RECVFROMRQS.LEN
      3363**DCL      3514<<ASSIGN
XSL$RECVFROMRSP.ERRNO
PL6.E3A0      #002=XSL$RECVFROM File=XSL$SOCKET2.:TCA2TSI                        SUN 11/16/97 14:32 Page:129
      3391**DCL      3519>>ASSIGN
XSL$RECVFROMRSP.FROMLEN
      3392**DCL      3524>>ASSIGN   3587>>ASSIGN
XSL$RECVFROMRSP.NAME
      3412**DCL      3525<>CALL     3588<>CALL
XSL$RECVFROMRSP.RESULT
      3390**DCL      3518>>IF       3526>>ASSIGN
XSL$RECVRQS
      3273**DCL      3528<<ASSIGN   3532<<ASSIGN   3540--CALL
XSL$RECVRQS.FLAGS
      3280**DCL      3529<<ASSIGN   3533<<ASSIGN
XSL$RECVRQS.LEN
      3281**DCL      3539<<ASSIGN
XSL$RECVRSP.ERRNO
      3308**DCL      3543>>ASSIGN
XSL$RECVRSP.RESULT
      3307**DCL      3542>>IF       3546>>ASSIGN
XSL$RELBUF
      3425**DCL-ENT  3616--CALL
XSL$SOCKPTR
      3427**DCL-ENT  3478--CALL
XSL_ERRNO
      3431**DCL      3432--REDEF    3496<<ASSIGN   3519<<ASSIGN   3536<<ASSIGN   3543<<ASSIGN   3640<<ASSIGN
XSL_KEYBUF$
      3433**DCL      3273--IMP-PTR  3300--IMP-PTR  3355--IMP-PTR  3383--IMP-PTR  3512>>ASSIGN   3513>>ASSIGN
      3514>>ASSIGN   3515>>ASSIGN   3518>>IF       3519>>ASSIGN   3524>>ASSIGN   3525>>CALL     3526>>ASSIGN
      3528>>ASSIGN   3529>>ASSIGN   3532>>ASSIGN   3533>>ASSIGN   3539>>ASSIGN   3542>>IF       3543>>ASSIGN
      3546>>ASSIGN
XSL_RECVFROMRQS
      3327**DCL      3512>>ASSIGN
XSL_RECVRQS
      3246**DCL      3528>>ASSIGN   3532>>ASSIGN
XSL_SOCK$
      3432**DCL      3478<>CALL     3492<>CALL     3494>>ASSIGN
XSL_SOCK$$
      3434**DCL      1998--IMP-PTR  3565>>ASSIGN   3566>>DOWHILE  3584>>ASSIGN   3598>>ASSIGN
PL6.E3A0      #002=XSL$RECVFROM File=XSL$SOCKET2.:TCA2TSI                        SUN 11/16/97 14:32 Page:130
XSL_UETIME
      3435**DCL      3632<<ASSIGN   3633>>DOWHILE
XSL_WAIT1DAY
       469**DCL      3621<>CALL     3635<>CALL
PL6.E3A0      #002=XSL$RECVFROM File=XSL$SOCKET2.:TCA2TSI                        SUN 11/16/97 14:32 Page:131
              *** CROSS REFERENCE LISTING ***
    **     DENOTES     IDENTIFIER DEFINITION
    <<                 IDENTIFIER'S VALUE SET
    >>                 IDENTIFIER'S VALUE USED
    <>                 IDENTIFIER SET AND/OR USED
    --                 IDENTIFIER REFERENCED
PL6.E3A0      #002=XSL$RECVFROM File=XSL$SOCKET2.:TCA2TSI                        SUN 11/16/97 14:32 Page:132
              MINI UREF LISTING

M$ACCT     346**DCL-ENT
M$ACTIVATE     349**DCL-ENT
M$ALIB     342**DCL-ENT
M$ASUSER     344**DCL-ENT
M$ATTACH     351**DCL-ENT
M$BADPP     369**DCL-ENT
M$CGCTL     350**DCL-ENT
M$CGINFO     350**DCL-ENT
M$CHECK     331**DCL-ENT
M$CHGUNIT     389**DCL-ENT
M$CLOSE     329**DCL-ENT
M$CLRSTK     387**DCL-ENT
M$CMDVAR     398**DCL-ENT
M$CONFIG     359**DCL-ENT
M$CORRES     334**DCL-ENT
M$CPEXIT     343**DCL-ENT
M$CVM     367**DCL-ENT
M$CVOL     332**DCL-ENT
M$DCLFLD     359**DCL-ENT
M$DEACTIVATE     349**DCL-ENT
M$DELREC     331**DCL-ENT
M$DEQ     396**DCL-ENT
M$DETACH     351**DCL-ENT
M$DEVICE     333**DCL-ENT
M$DISPLAY     396**DCL-ENT
M$DISPRES     336**DCL-ENT
M$DLIB     342**DCL-ENT
M$DRIBBLE     359**DCL-ENT
M$DRTN     387**DCL-ENT
M$DSUSER     344**DCL-ENT
M$ENQ     395**DCL-ENT
M$EOM     354**DCL-ENT
PL6.E3A0      #002=XSL$RECVFROM File=XSL$SOCKET2.:TCA2TSI                        SUN 11/16/97 14:32 Page:133
M$ERASE     360**DCL-ENT
M$ERR     341**DCL-ENT
M$ERRMSG     392**DCL-ENT
M$EVENT     384**DCL-ENT
M$EXHUME     393**DCL-ENT
M$EXIT     341**DCL-ENT
M$EXTEND     333**DCL-ENT
M$FDP     365**DCL-ENT
M$FDS     364**DCL-ENT
M$FEBOOT     357**DCL-ENT
M$FECTL     358**DCL-ENT
M$FEDUMP     357**DCL-ENT
M$FID     392**DCL-ENT
M$FINDPROC     346**DCL-ENT
M$FSUSER     344**DCL-ENT
M$FVP     366**DCL-ENT
M$FWCG     350**DCL-ENT
M$GBPL     370**DCL-ENT
M$GDDL     366**DCL-ENT
M$GDP     365**DCL-ENT
M$GDS     364**DCL-ENT
M$GETDCB     335**DCL-ENT
M$GETMOUSE     375**DCL-ENT
M$GETPM     376**DCL-ENT
M$GJOB     394**DCL-ENT
M$GLINEATTR     354**DCL-ENT
M$GOODPP     369**DCL-ENT
M$GPLATEN     362**DCL-ENT
M$GPROMPT     361**DCL-ENT
M$GTRMATTR     355**DCL-ENT
M$GTRMCTL     353**DCL-ENT
M$GTRMTAB     356**DCL-ENT
M$GVP     365**DCL-ENT
M$HELP     392**DCL-ENT
M$INT     384**DCL-ENT
M$INTRTN     345**DCL-ENT
PL6.E3A0      #002=XSL$RECVFROM File=XSL$SOCKET2.:TCA2TSI                        SUN 11/16/97 14:32 Page:134
M$IOQ     380**DCL-ENT
M$JOBSTATS     394**DCL-ENT
M$KEYIN     334**DCL-ENT
M$LDEV     329**DCL-ENT
M$LDTRC     342**DCL-ENT
M$LIMIT     335**DCL-ENT
M$LINES     334**DCL-ENT
M$LINK     341**DCL-ENT
M$MADMUCK     337**DCL-ENT
M$MAKUSER     368**DCL-ENT
M$MBS     336**DCL-ENT
M$MDFFLD     360**DCL-ENT
M$MERC     385**DCL-ENT
M$MERCS     386**DCL-ENT
M$MIRROR     380**DCL-ENT
M$MONINFO     397**DCL-ENT
M$MPL     370**DCL-ENT
M$NODEINFO     361**DCL-ENT
M$NXTUSR     395**DCL-ENT
M$OCMSG     393**DCL-ENT
M$OLAY     341**DCL-ENT
M$OPEN     329**DCL-ENT
M$PAS     370**DCL-ENT
M$PATHCON     393**DCL-ENT
M$PDS     364**DCL-ENT
M$PFIL     331**DCL-ENT
M$PLATEN     355**DCL-ENT
M$PRECORD     333**DCL-ENT
M$PROCNAME     346**DCL-ENT
M$PROFILE     357**DCL-ENT
M$PROMPT     353**DCL-ENT
M$RACST     337**DCL-ENT
M$RDSYSLOG     378**DCL-ENT
M$READ     330**DCL-ENT
M$RELDCB     335**DCL-ENT
M$RELRES     336**DCL-ENT
PL6.E3A0      #002=XSL$RECVFROM File=XSL$SOCKET2.:TCA2TSI                        SUN 11/16/97 14:32 Page:135
M$RELSTARF     338**DCL-ENT
M$REM     338**DCL-ENT
M$RENV     385**DCL-ENT
M$REQUIRE     337**DCL-ENT
M$RETRY     386**DCL-ENT
M$RETRYS     386**DCL-ENT
M$REW     332**DCL-ENT
M$RLSFLD     360**DCL-ENT
M$RPRIV     388**DCL-ENT
M$RSPP     367**DCL-ENT
M$RSWITCH     389**DCL-ENT
M$RUE     395**DCL-ENT
M$SAD     368**DCL-ENT
M$SAVE     344**DCL-ENT
M$SCON     345**DCL-ENT
M$SCREECH     343**DCL-ENT
M$SENV     385**DCL-ENT
M$SETFMA     329**DCL-ENT
M$SETFP     358**DCL-ENT
M$SINPUT     356**DCL-ENT
M$SLCFLD     361**DCL-ENT
M$SMOUSE     375**DCL-ENT
M$SMPRT     367**DCL-ENT
M$SPRIV     388**DCL-ENT
M$SSC     368**DCL-ENT
M$SSWITCH     388**DCL-ENT
M$STATE     397**DCL-ENT
M$STD     369**DCL-ENT
M$STIMER     383**DCL-ENT
M$STLPP     366**DCL-ENT
M$STRAP     383**DCL-ENT
M$STRMATTR     355**DCL-ENT
M$STRMCTL     353**DCL-ENT
M$STRMTAB     356**DCL-ENT
M$SYMBIO     394**DCL-ENT
M$SYSCON     380**DCL-ENT
PL6.E3A0      #002=XSL$RECVFROM File=XSL$SOCKET2.:TCA2TSI                        SUN 11/16/97 14:32 Page:136
M$SYSID     398**DCL-ENT
M$TDCLOSE     379**DCL-ENT
M$TDIO     379**DCL-ENT
M$TDOPEN     378**DCL-ENT
M$TDREQCPU     379**DCL-ENT
M$TEMPWROC     373**DCL-ENT
M$TIME     396**DCL-ENT
M$TRAP     383**DCL-ENT
M$TRMISC     358**DCL-ENT
M$TRMPRG     354**DCL-ENT
M$TRTN     387**DCL-ENT
M$TRUNC     330**DCL-ENT
M$TTIMER     383**DCL-ENT
M$UC     353**DCL
M$UMPL     370**DCL-ENT
M$UNFID     392**DCL-ENT
M$UNLATCH     349**DCL-ENT
M$UNSHARE     346**DCL-ENT
M$USRFIELD     389**DCL-ENT
M$VIRTUAL     364**DCL-ENT
M$WEOF     332**DCL-ENT
M$WRITE     330**DCL-ENT
M$WRSYSLOG     378**DCL-ENT
M$XCON     384**DCL-ENT
M$XCONRTN     345**DCL-ENT
M$XEQTIME     397**DCL-ENT
M$XFLUSH     338**DCL-ENT
M$XMOUSE     375**DCL-ENT
M$XXX     341**DCL-ENT
M$YC     343**DCL-ENT
XSL$MSGSDEFS    3227**DCL-ENT
XSL$QREAD    3486**ENTRY
XSL$QRECV    3474**ENTRY
XSL$QRECVFROM    3464**ENTRY
XSL$READ    3481**ENTRY
XSL$RECV    3469**ENTRY
PL6.E3A0      #002=XSL$RECVFROM File=XSL$SOCKET2.:TCA2TSI                        SUN 11/16/97 14:32 Page:137
XSL$RECVFROM     319**PROC
XSL$SOCKHD    1998**DCL

