VERSION A02

PL6.E3A0      #001=KA_ASC_D File=ka_asc_d.:TCA2TSI                               SUN 11/16/97 14:35 Page:1
        1        1        /*M* ASCII Async translate tables - including APL ones. */
        2        2        /*T***********************************************************/
        3        3        /*T*                                                         */
        4        4        /*T* Copyright (c) Bull HN Information Systems Inc., 1997    */
        5        5        /*T*                                                         */
        6        6        /*T***********************************************************/
        7        7        %INCLUDE KA_ASC_D;

PL6.E3A0      #001=KA_ASC_D File=ka_asc_d.:TCA2TSI                               SUN 11/16/97 14:35 Page:2
--  Include file information  --

   KV_TRNTBL_M.:LIBRARY  is referenced.
   TCT_TELNET_E.:TCA2TOU  is referenced.
   KA_GLBASM_E.:TCA2TOU  is referenced.
   KA_GLB_E.:LIBRARY  is referenced.
   KV_GLBCNS_E.:LIBRARY  is referenced.
   KV_ASCCHR_E.:LIBRARY  is referenced.
   KV_APLCHR_E.:LIBRARY  is referenced.
   KV$GLB.:LIBRARY  is referenced.
   KV$INT.:LIBRARY  is referenced.
   KA_ASC_D.:LIBRARY  cannot be made into a system file and is referenced.
      No diagnostics issued in procedure KA_ASC_D.

   No code generated for procedure KA_ASC_D .
   Procedure KA_ASC_D requires 4 words of local(AUTO) storage.

    No errors detected in file ka_asc_d.:TCA2TSI    .

PL6.E3A0      #001=KA_ASC_D File=ka_asc_d.:TCA2TSI                               SUN 11/16/97 14:35 Page:3

 Object Unit name= KA_ASC_D                                   File name= ka_asc_d.:TCA2TOU
 UTS= NOV 16 '97 14:35:27.80 SUN                              Compiler= PL-6/E31         Sev=      00
 SharedLib= :SHARED_LCP6_SYSTEM                               Alt SharedLib=


    ****  Control sections  ****

 Sect   Type Bound  Init  Size HexSiz  Section name
    0  RoData even  UTS   1495    5D7  KA_ASC_D
    1   Proc  even  none     0      0  KA_ASC_D

    ****  Entry defs  ****

                              Check   Calling
                             calling  sequence
  Sect HexLoc Primary Altret sequence   type   Parms  Name
     1      0   yes            yes     ~proc       0  KA_ASC_D

  ****  Data defs  ****

 Sect HexLoc  Name                           Sect HexLoc  Name
    0    275  KA_ASC95                           0    295  KA_ASC64
    0    2B5  KA_ASC95M                          0    2D5  KA_ASC64B
    0    2F5  KA_ASC64C                          0    315  KA_ASC8I
    0    335  KA_ASC8                            0    355  KA_APLBF
    0    375  KA_APLBP                           0    395  KA_APLTF
    0    3B5  KA_APLTP

  ****  Data refs  ****

  Flags:  r = read only, s = secondary
Flgs Name                             Flgs Name                             Flgs Name
r    G$ROS$
PL6.E3A0      #001=KA_ASC_D File=ka_asc_d.:TCA2TSI                               SUN 11/16/97 14:35 Page:4

        1        1        /*M* ASCII Async translate tables - including APL ones. */
        2        2        /*T***********************************************************/
        3        3        /*T*                                                         */
        4        4        /*T* Copyright (c) Bull HN Information Systems Inc., 1997    */
        5        5        /*T*                                                         */
        6        6        /*T***********************************************************/
        7        7        %INCLUDE KA_ASC_D;

PL6.E3A0      #001=KA_ASC_D File=ka_asc_d.:TCA2TSI                               SUN 11/16/97 14:35 Page:5
--  Include file information  --

   KV_TRNTBL_M.:LIBRARY  is referenced.
   TCT_TELNET_E.:TCA2TOU  is referenced.
   KA_GLBASM_E.:TCA2TOU  is referenced.
   KA_GLB_E.:LIBRARY  is referenced.
   KV_GLBCNS_E.:LIBRARY  is referenced.
   KV_ASCCHR_E.:LIBRARY  is referenced.
   KV_APLCHR_E.:LIBRARY  is referenced.
   KV$GLB.:LIBRARY  is referenced.
   KV$INT.:LIBRARY  is referenced.
   KA_ASC_D.:LIBRARY  cannot be made into a system file and is referenced.
      No diagnostics issued in procedure KA_ASC_D.
PL6.E3A0      #001=KA_ASC_D File=ka_asc_d.:TCA2TSI                               SUN 11/16/97 14:35 Page:6

 **** Variables and constants ****

  ****  Section 000 RoData KA_ASC_D

  ****  Scalars and arrays  ****
HexLoc.c.b A Datatyp(siz) R M Lvl/name                 HexLoc.c.b A Datatyp(siz) R M Lvl/name

   355-0-0/w STRC(499)   r     1 KA_APLBF                 375-0-0/w STRC(499)   r     1 KA_APLBP
   395-0-0/w STRC(499)   r     1 KA_APLTF                 3B5-0-0/w STRC(499)   r     1 KA_APLTP
   295-0-0/w STRC(499)   r     1 KA_ASC64                 2D5-0-0/w STRC(499)   r     1 KA_ASC64B
   2F5-0-0/w STRC(499)   r     1 KA_ASC64C                335-0-0/w STRC(499)   r     1 KA_ASC8
   315-0-0/w STRC(499)   r     1 KA_ASC8I                 275-0-0/w STRC(499)   r     1 KA_ASC95
   2B5-0-0/w STRC(499)   r     1 KA_ASC95M                54E-0-0/w STRC(216)   r     1 KA_EXTOTPAPL_BF
   55C-0-0/w STRC(216)   r     1 KA_EXTOTPAPL_BP          5AA-0-0/w STRC(712)   r     1 KA_EXTOTPAPL_CMN
   597-0-0/w STRC(296)   r     1 KA_EXTOTPAPL_F           586-0-0/w STRC(272)   r     1 KA_EXTOTPAPL_P
   56A-0-0/w STRC(216)   r     1 KA_EXTOTPAPL_TF          578-0-0/w STRC(216)   r     1 KA_EXTOTPAPL_TP
   3D5-0-0/c STRC(1408)  r     1 KA_TRNINPAPL_1           42D-0-0/c STRC(216)   r     1 KA_TRNINPAPL_2B
   43B-0-0/c STRC(216)   r     1 KA_TRNINPAPL_2T          267-0-0/c STRC(112)   r     1 KA_TRNINPASC64B_2
   26E-0-0/c STRC(112)   r     1 KA_TRNINPASC64C_2        260-0-0/c STRC(112)   r     1 KA_TRNINPASC95M_2
   1B9-0-0/c STRC(2560)  r     1 KA_TRNINPASC95_1         259-0-0/c STRC(112)   r     1 KA_TRNINPASC95_2
   449-0-0/c STRC(2048)  r     1 KA_TRNOTPAPL_1           4C9-0-0/c STRC(2123)  r     1 KA_TRNOTPAPL_2
   1B0-0-0/c STRC(53)    r     1 KA_TRNOTPASC64C_3         80-0-0/c STRC(2048)  r     1 KA_TRNOTPASC64_1
   100-0-0/c STRC(2048)  r     1 KA_TRNOTPASC8_1          1B4-0-0/c STRC(71)    r     1 KA_TRNOTPASC8_3
     0-0-0/c STRC(2048)  r     1 KA_TRNOTPASC95_1         180-0-0/c STRC(701)   r     1 KA_TRNOTPASC95_2
   1AC-0-0/c STRC(53)    r     1 KA_TRNOTPASC95_3


   No code generated for procedure KA_ASC_D .
   Procedure KA_ASC_D requires 4 words of local(AUTO) storage.

    No errors detected in file ka_asc_d.:TCA2TSI    .
PL6.E3A0      #001=KA_ASC_D File=ka_asc_d.:TCA2TSI                               SUN 11/16/97 14:35 Page:7
          *** CROSS REFERENCE LISTING ***
**     DENOTES     IDENTIFIER DEFINITION
<<                 IDENTIFIER'S VALUE SET
>>                 IDENTIFIER'S VALUE USED
<>                 IDENTIFIER SET AND/OR USED
--                 IDENTIFIER REFERENCED
PL6.E3A0      #001=KA_ASC_D File=ka_asc_d.:TCA2TSI                               SUN 11/16/97 14:35 Page:8
          MINI XREF LISTING

KA_APLBF
     36542**DCL     36382--DCLINIT 36551--DCLINIT
KA_APLBF.OTPESCCHR
     36560**DCL     36560--REDEF
KA_APLBP
     36625**DCL     36546--DCLINIT 36634--DCLINIT
KA_APLBP.OTPESCCHR
     36643**DCL     36643--REDEF
KA_APLTF
     36709**DCL     36629--DCLINIT 36718--DCLINIT
KA_APLTF.OTPESCCHR
     36727**DCL     36727--REDEF
KA_APLTP
     36792**DCL     36713--DCLINIT 36801--DCLINIT
KA_APLTP.OTPESCCHR
     36810**DCL     36810--REDEF
KA_ASC64
     36066**DCL     35992--DCLINIT 36075--DCLINIT
KA_ASC64.OTPESCCHR
     36084**DCL     36084--REDEF
KA_ASC64B
     36222**DCL     36148--DCLINIT 36231--DCLINIT
KA_ASC64B.OTPESCCHR
     36240**DCL     36240--REDEF
KA_ASC64C
     36300**DCL     36226--DCLINIT 36309--DCLINIT
KA_ASC64C.OTPESCCHR
     36318**DCL     36318--REDEF
KA_ASC8
     36457**DCL     36304--DCLINIT 36466--DCLINIT
KA_ASC8.OTPESCCHR
     36475**DCL     36475--REDEF
PL6.E3A0      #001=KA_ASC_D File=ka_asc_d.:TCA2TSI                               SUN 11/16/97 14:35 Page:9
KA_ASC8I
     36378**DCL     36387--DCLINIT 36461--DCLINIT
KA_ASC8I.OTPESCCHR
     36396**DCL     36396--REDEF
KA_ASC95
     35988**DCL     35997--DCLINIT
KA_ASC95.OTPESCCHR
     36006**DCL     36006--REDEF
KA_ASC95M
     36144**DCL     36070--DCLINIT 36153--DCLINIT
KA_ASC95M.OTPESCCHR
     36162**DCL     36162--REDEF
KA_EXTOTPAPL_BF
     59598**DCL     36559--DCLINIT
KA_EXTOTPAPL_BP
     59936**DCL     36642--DCLINIT
KA_EXTOTPAPL_CMN
     61139**DCL     60975--DCLINIT 61077--DCLINIT
KA_EXTOTPAPL_F
     61037**DCL     59617--DCLINIT 60296--DCLINIT
KA_EXTOTPAPL_P
     60956**DCL     59955--DCLINIT 60634--DCLINIT
KA_EXTOTPAPL_TF
     60277**DCL     36726--DCLINIT
KA_EXTOTPAPL_TP
     60615**DCL     36809--DCLINIT
KA_TRNINPAPL_1
     36825**DCL     36557--DCLINIT 36640--DCLINIT 36724--DCLINIT 36807--DCLINIT
KA_TRNINPAPL_1.TKNTBL
     51787**DCL     36559--DCLINIT 36642--DCLINIT 36726--DCLINIT 36809--DCLINIT
KA_TRNINPAPL_2B
     51802**DCL     36557--DCLINIT 36640--DCLINIT
KA_TRNINPAPL_2T
     52248**DCL     36724--DCLINIT 36807--DCLINIT
KA_TRNINPASC64B_2
     35742**DCL     36237--DCLINIT
PL6.E3A0      #001=KA_ASC_D File=ka_asc_d.:TCA2TSI                               SUN 11/16/97 14:35 Page:10
KA_TRNINPASC64C_2
     35840**DCL     36315--DCLINIT
KA_TRNINPASC95M_2
     35600**DCL     36159--DCLINIT
KA_TRNINPASC95_1
     24114**DCL     36003--DCLINIT 36081--DCLINIT 36159--DCLINIT 36237--DCLINIT 36315--DCLINIT 36393--DCLINIT
     36472--DCLINIT
KA_TRNINPASC95_1.SPCESC
     35541**DCL     36005--DCLINIT 36083--DCLINIT 36161--DCLINIT 36239--DCLINIT 36317--DCLINIT 36395--DCLINIT
     36474--DCLINIT 36559--DCLINIT 36642--DCLINIT 36726--DCLINIT 36809--DCLINIT
KA_TRNINPASC95_1.TKNTBL
     35537**DCL     36005--DCLINIT 36083--DCLINIT 36161--DCLINIT 36239--DCLINIT 36317--DCLINIT 36395--DCLINIT
     36474--DCLINIT
KA_TRNINPASC95_2
     35553**DCL     36003--DCLINIT 36081--DCLINIT 36393--DCLINIT 36472--DCLINIT
KA_TRNOTPAPL_1
     52697**DCL     36557--DCLINIT 36640--DCLINIT 36724--DCLINIT 36807--DCLINIT
KA_TRNOTPAPL_2
     56750**DCL     36558--DCLINIT 36641--DCLINIT 36725--DCLINIT 36808--DCLINIT
KA_TRNOTPASC64C_3
     23509**DCL     36316--DCLINIT
KA_TRNOTPASC64_1
      7053**DCL     36081--DCLINIT 36237--DCLINIT 36315--DCLINIT
KA_TRNOTPASC8_1
     13844**DCL     36472--DCLINIT
KA_TRNOTPASC8_3
     23752**DCL     36473--DCLINIT
KA_TRNOTPASC95_1
      2313**DCL     36003--DCLINIT 36159--DCLINIT 36393--DCLINIT
KA_TRNOTPASC95_2
     21599**DCL     36004--DCLINIT 36082--DCLINIT 36160--DCLINIT 36238--DCLINIT 36316--DCLINIT 36394--DCLINIT
     36473--DCLINIT
KA_TRNOTPASC95_3
     23277**DCL     36004--DCLINIT 36082--DCLINIT 36160--DCLINIT 36238--DCLINIT 36394--DCLINIT
