VERSION A02

PL6.E3A0      #001=KA_INPFNC_D File=ka_inpfn_d.:TCA2TSI                          SUN 11/16/97 14:35 Page:1
        1        1        /*M* KA_INPFNC_D Async handler input function data */
        2        2        /*T***********************************************************/
        3        3        /*T*                                                         */
        4        4        /*T* Copyright (c) Bull HN Information Systems Inc., 1997    */
        5        5        /*T*                                                         */
        6        6        /*T***********************************************************/
        7        7        %INCLUDE KA_INPFNC_D;
      635+   17861        %LIST;
      636+   17862        %KV$INPFNCTBL (NAME=NUL, NAM='NO', STCLASS=CONSTANT,
      637+   17863                       LNK=KA_INPFNC.CP5S1, LAST=",", FNCID_SAV=KA_NUL_FNCID_SAV);
             17864        %LSET LISTDIR='0'B;
             17913    1   2 NUL,
             17915    1   3 LNK$ PTR INIT(ADDR(KA_INPFNC.CP5S1)),
             17920    1   3 BYTSIZ UBIN(16)ALIGNED INIT(92),
             17924    1   3 USRCNT UBIN(16)ALIGNED INIT(32767) ,3 NAM CHAR(8)INIT('NO') ,
             17932    1   3 * CHAR(38)INIT('                                      '),3 * UBIN BYTE CALIGNED
             17932            INIT(0),3 * BIT(2)INIT('00'B),3 * BIT(1)INIT('0'B),3 * BIT(5)INIT
             17933    1   ('0'B),3 *(0:11)SBIN INIT(113,102,163,90,90,90,115,104,165,92,92,92),3 *(0:3)BIT(16)
             17933            INIT(
             17934    1   '1111111111111111'B,'1111111111111111'B,'1111111111111111'B,'1111111111111111'B),3 *
             17934            (0:1)SBIN INIT
             17935    1   (-211,0)
             17940    1   ,2 * CHAR(0)INIT('{|}~zpsvxwutSRTCDI	^.HM      <>''  *:DFGJKNQRVXZ   $-ABEHLMOUWY|~F
             17940    1   OT()CPST 	             '),2 * CHAR(0)INIT(' n n n n n n l         b G H I       J K
             17940        L Q R r u v w x y ~   A B C D E     	               F o p   | }
             17940        | | | | | z {                           M N      ')
             17943    1   ,
      638+   17947        %KV$INPFNCTBL (NAME=CP5, NAM='CP5', PRMINTCHR1=ASCIIESC, STCLASS=CONSTANT,
      639+   17948                       SCNINTCHR1=ASCIIESC, ESCCNTOK=S,
      640+   17949                       LNK=KA_INPFNC.NUL, LAST=",");
             17950        %LSET LISTDIR='0'B;
             17999    1   2 CP5,
             18001    1   3 LNK$ PTR INIT(ADDR(KA_INPFNC.NUL)),
             18006    1   3 BYTSIZ UBIN(16)ALIGNED INIT(92),
             18010    1   3 USRCNT UBIN(16)ALIGNED INIT(32767) ,3 NAM CHAR(8)INIT('CP5') ,
             18018    1   3 * CHAR(38)INIT('2      luP                            '),3 * UBIN BYTE CALIGNED
             18018            INIT(0),3 * BIT(2)INIT('01'B),3 * BIT(1)INIT('0'B),3 * BIT(5)INIT
PL6.E3A0      #001=KA_INPFNC_D File=ka_inpfn_d.:TCA2TSI                          SUN 11/16/97 14:35 Page:2
             18019    1   ('0'B),3 *(0:11)SBIN INIT(-64,-75,-14,-87,-87,-87,-239,-250,-189,-262,-262,-262),3 *
             18019            (0:3)BIT(16)INIT(
             18020    1   '0000000000011011'B,'0000000000011011'B,'1111111111111111'B,'1111111111111111'B),3 *
             18020            (0:1)SBIN INIT
             18021    1   (-388,0)
             18029    1   ,
      641+   18033        %KV$INPFNCTBL (NAME=CP5S1, NAM='CP5S1', PRMINTCHR1=ASCIIESC, STCLASS=CONSTANT,
      642+   18034                       SCNINTCHR1=ASCIIESC, SBSLVL=1, ESCCNTOK=S,
      643+   18035                       LNK=KA_INPFNC.CP5S2, LAST=",", FNCID_SAV=KA_CP5S1_FNCID_SAV);
             18036        %LSET LISTDIR='0'B;
             18085    1   2 CP5S1,
             18087    1   3 LNK$ PTR INIT(ADDR(KA_INPFNC.CP5S2)),
             18092    1   3 BYTSIZ UBIN(16)ALIGNED INIT(92),
             18096    1   3 USRCNT UBIN(16)ALIGNED INIT(32767) ,3 NAM CHAR(8)INIT('CP5S1') ,
             18104    1   3 * CHAR(38)INIT(',      l%P                            '),3 * UBIN BYTE CALIGNED
             18104            INIT(1),3 * BIT(2)INIT('01'B),3 * BIT(1)INIT('0'B),3 * BIT(5)INIT
             18105    1   ('0'B),3 *(0:11)SBIN INIT(-110,-121,-60,-133,-133,-133,-331,-342,-281,-354,-354,-354
             18105            ),3 *(0:3)BIT(16)INIT(
             18106    1   '0000000000011011'B,'0000000000011011'B,'1111111111111111'B,'1111111111111111'B),3 *
             18106            (0:1)SBIN INIT
             18107    1   (-434,0)
             18115    1   ,
      644+   18119        %KV$INPFNCTBL (NAME=CP5S2, NAM='CP5S2', PRMINTCHR1=ASCIIESC, STCLASS=CONSTANT,
      645+   18120                       SCNINTCHR1=ASCIIESC, SBSLVL=2, ESCCNTOK=S,
      646+   18121                       LNK=KA_INPFNC.FRM1, LAST=",", FNCID_SAV=KA_CP5S2_FNCID_SAV);
             18122        %LSET LISTDIR='0'B;
             18171    1   2 CP5S2,
             18173    1   3 LNK$ PTR INIT(ADDR(KA_INPFNC.FRM1)),
             18178    1   3 BYTSIZ UBIN(16)ALIGNED INIT(92),
             18182    1   3 USRCNT UBIN(16)ALIGNED INIT(32767) ,3 NAM CHAR(8)INIT('CP5S2') ,
             18190    1   3 * CHAR(38)INIT(' 	     l%                             '),3 * UBIN BYTE CALIGNED
             18190            INIT(2),3 * BIT(2)INIT('01'B),3 * BIT(1)INIT('0'B),3 * BIT(5)INIT
             18191    1   ('0'B),3 *(0:11)SBIN INIT(-156,-167,-106,-179,-179,-179,-423,-434,-373,-446,-446,
             18191            -446),3 *(0:3)BIT(16)INIT(
             18192    1   '0000000000011011'B,'0000000000011011'B,'1111111111111111'B,'1111111111111111'B),3 *
             18192            (0:1)SBIN INIT
             18193    1   (-480,0)
PL6.E3A0      #001=KA_INPFNC_D File=ka_inpfn_d.:TCA2TSI                          SUN 11/16/97 14:35 Page:3
             18201    1   ,
      740+   23618        %LIST;
      741+   23619        %KV$INPFNCTBL (NAME=FRM1, NAM='FRM1', PRMINTCHR1=ASCIIESC, STCLASS=CONSTANT,
      742+   23620                       SCNINTCHR1=ASCIIESC, ESCCNTOK=S,
      743+   23621                       LNK=KA_INPFNC.SE1, LAST=",");
             23622        %LSET LISTDIR='0'B;
             23671    1   2 FRM1,
             23673    1   3 LNK$ PTR INIT(ADDR(KA_INPFNC.SE1)),
             23678    1   3 BYTSIZ UBIN(16)ALIGNED INIT(92),
             23682    1   3 USRCNT UBIN(16)ALIGNED INIT(32767) ,3 NAM CHAR(8)INIT('FRM1') ,
             23690    1   3 * CHAR(38)INIT('#      d%P                            '),3 * UBIN BYTE CALIGNED
             23690            INIT(0),3 * BIT(2)INIT('01'B),3 * BIT(1)INIT('0'B),3 * BIT(5)INIT
             23691    1   ('0'B),3 *(0:11)SBIN INIT(77,112,117,128,77,77,92,127,132,143,92,92),3 *(0:3)BIT(16)
             23691            INIT(
             23692    1   '0000000000011011'B,'0000000000011011'B,'1111111111111111'B,'1111111111111111'B),3 *
             23692            (0:1)SBIN INIT
             23693    1   (-502,0)
             23698    1   ,2 * CHAR(0)INIT('       ()<>-ABDGHJKMNOQRUVXY iZ''*: I.RST 	         {|}~zpvxws '),
             23698            2 * CHAR(0)INIT(' ] \ ] ^ ( j d ` a d e       X o p q r t v w z { ~     d t   ,
             23698        ' * + ) ~ 2 . - /           3         4 T T T T T T z     R')
             23701    1   ,

PL6.E3A0      #001=KA_INPFNC_D File=ka_inpfn_d.:TCA2TSI                          SUN 11/16/97 14:35 Page:4
--  Include file information  --

   KV$VDH.:LIBRARY  is referenced.
   KV$GLB.:LIBRARY  is referenced.
   KV$INPFNC.:LIBRARY  is referenced.
   KA_GLB_E.:LIBRARY  is referenced.
   TCT_TELNET_E.:TCA2TOU  is referenced.
   KA_GLBASM_E.:TCA2TOU  is referenced.
   KV_PRMID_E.:LIBRARY  is referenced.
   KV_ASCCHR_E.:LIBRARY  is referenced.
   KV_GLBCNS_E.:LIBRARY  is referenced.
   KA_INPFNC_D.:TCA2TOU  cannot be made into a system file and is referenced.
      No diagnostics issued in procedure KA_INPFNC_D.

   No code generated for procedure KA_INPFNC_D .
   Procedure KA_INPFNC_D requires 4 words of local(AUTO) storage.

    No errors detected in file ka_inpfn_d.:TCA2TSI    .

PL6.E3A0      #001=KA_INPFNC_D File=ka_inpfn_d.:TCA2TSI                          SUN 11/16/97 14:35 Page:5

 Object Unit name= KA_INPFNC_D                                File name= ka_inpfn_d.:TCA2TOU
 UTS= NOV 16 '97 14:35:30.80 SUN                              Compiler= PL-6/E31         Sev=      00
 SharedLib= :SHARED_LCP6_SYSTEM                               Alt SharedLib=


    ****  Control sections  ****

 Sect   Type Bound  Init  Size HexSiz  Section name
    0  RoData even  UTS   1066    42A  KA_INPFNC_D
    1   Proc  even  none     0      0  KA_INPFNC_D

    ****  Entry defs  ****

                              Check   Calling
                             calling  sequence
  Sect HexLoc Primary Altret sequence   type   Parms  Name
     1      0   yes            yes     ~proc       0  KA_INPFNC_D

  ****  Data defs  ****

 Sect HexLoc  Name                           Sect HexLoc  Name
    0      0  KA_INPFNCTBLHED$

  ****  Data refs  ****

  Flags:  r = read only, s = secondary
Flgs Name                             Flgs Name                             Flgs Name
r    G$ROS$
PL6.E3A0      #001=KA_INPFNC_D File=ka_inpfn_d.:TCA2TSI                          SUN 11/16/97 14:35 Page:6

        1        1        /*M* KA_INPFNC_D Async handler input function data */
        2        2        /*T***********************************************************/
        3        3        /*T*                                                         */
        4        4        /*T* Copyright (c) Bull HN Information Systems Inc., 1997    */
        5        5        /*T*                                                         */
        6        6        /*T***********************************************************/
        7        7        %INCLUDE KA_INPFNC_D;
      635+   17861        %LIST;
      636+   17862        %KV$INPFNCTBL (NAME=NUL, NAM='NO', STCLASS=CONSTANT,
      637+   17863                       LNK=KA_INPFNC.CP5S1, LAST=",", FNCID_SAV=KA_NUL_FNCID_SAV);
             17864        %LSET LISTDIR='0'B;
             17913    1   2 NUL,
             17915    1   3 LNK$ PTR INIT(ADDR(KA_INPFNC.CP5S1)),
             17920    1   3 BYTSIZ UBIN(16)ALIGNED INIT(92),
             17924    1   3 USRCNT UBIN(16)ALIGNED INIT(32767) ,3 NAM CHAR(8)INIT('NO') ,
             17932    1   3 * CHAR(38)INIT('                                      '),3 * UBIN BYTE CALIGNED
             17932            INIT(0),3 * BIT(2)INIT('00'B),3 * BIT(1)INIT('0'B),3 * BIT(5)INIT
             17933    1  ('0'B),3 *(0:11)SBIN INIT(113,102,163,90,90,90,115,104,165,92,92,92),3 *(0:3)BIT(16)
             17933            INIT(
             17934    1  '1111111111111111'B,'1111111111111111'B,'1111111111111111'B,'1111111111111111'B),3 *
             17934            (0:1)SBIN INIT
             17935    1   (-211,0)
             17940    1  ,2 * CHAR(0)INIT('{|}~zpsvxwutSRTCDI	^.HM      <>''  *:DFGJKNQRVXZ   $-ABEHLMOUWY|~F
             17940    1  OT()CPST 	             '),2 * CHAR(0)INIT(' n n n n n n l         b G H I       J K
             17940       L Q R r u v w x y ~   A B C D E     	               F o p   | }
             17940        | | | | | z {                           M N      ')
             17943    1   ,
      638+   17947        %KV$INPFNCTBL (NAME=CP5, NAM='CP5', PRMINTCHR1=ASCIIESC, STCLASS=CONSTANT,
      639+   17948                       SCNINTCHR1=ASCIIESC, ESCCNTOK=S,
      640+   17949                       LNK=KA_INPFNC.NUL, LAST=",");
             17950        %LSET LISTDIR='0'B;
             17999    1   2 CP5,
             18001    1   3 LNK$ PTR INIT(ADDR(KA_INPFNC.NUL)),
             18006    1   3 BYTSIZ UBIN(16)ALIGNED INIT(92),
             18010    1   3 USRCNT UBIN(16)ALIGNED INIT(32767) ,3 NAM CHAR(8)INIT('CP5') ,
             18018    1   3 * CHAR(38)INIT('2      luP                            '),3 * UBIN BYTE CALIGNED
             18018            INIT(0),3 * BIT(2)INIT('01'B),3 * BIT(1)INIT('0'B),3 * BIT(5)INIT
PL6.E3A0      #001=KA_INPFNC_D File=ka_inpfn_d.:TCA2TSI                          SUN 11/16/97 14:35 Page:7
             18019    1  ('0'B),3 *(0:11)SBIN INIT(-64,-75,-14,-87,-87,-87,-239,-250,-189,-262,-262,-262),3 *
             18019            (0:3)BIT(16)INIT(
             18020    1  '0000000000011011'B,'0000000000011011'B,'1111111111111111'B,'1111111111111111'B),3 *
             18020            (0:1)SBIN INIT
             18021    1   (-388,0)
             18029    1   ,
      641+   18033        %KV$INPFNCTBL (NAME=CP5S1, NAM='CP5S1', PRMINTCHR1=ASCIIESC, STCLASS=CONSTANT,
      642+   18034                       SCNINTCHR1=ASCIIESC, SBSLVL=1, ESCCNTOK=S,
      643+   18035                       LNK=KA_INPFNC.CP5S2, LAST=",", FNCID_SAV=KA_CP5S1_FNCID_SAV);
             18036        %LSET LISTDIR='0'B;
             18085    1   2 CP5S1,
             18087    1   3 LNK$ PTR INIT(ADDR(KA_INPFNC.CP5S2)),
             18092    1   3 BYTSIZ UBIN(16)ALIGNED INIT(92),
             18096    1   3 USRCNT UBIN(16)ALIGNED INIT(32767) ,3 NAM CHAR(8)INIT('CP5S1') ,
             18104    1   3 * CHAR(38)INIT(',      l%P                            '),3 * UBIN BYTE CALIGNED
             18104            INIT(1),3 * BIT(2)INIT('01'B),3 * BIT(1)INIT('0'B),3 * BIT(5)INIT
             18105    1  ('0'B),3 *(0:11)SBIN INIT(-110,-121,-60,-133,-133,-133,-331,-342,-281,-354,-354,-354
             18105            ),3 *(0:3)BIT(16)INIT(
             18106    1  '0000000000011011'B,'0000000000011011'B,'1111111111111111'B,'1111111111111111'B),3 *
             18106            (0:1)SBIN INIT
             18107    1   (-434,0)
             18115    1   ,
      644+   18119        %KV$INPFNCTBL (NAME=CP5S2, NAM='CP5S2', PRMINTCHR1=ASCIIESC, STCLASS=CONSTANT,
      645+   18120                       SCNINTCHR1=ASCIIESC, SBSLVL=2, ESCCNTOK=S,
      646+   18121                       LNK=KA_INPFNC.FRM1, LAST=",", FNCID_SAV=KA_CP5S2_FNCID_SAV);
             18122        %LSET LISTDIR='0'B;
             18171    1   2 CP5S2,
             18173    1   3 LNK$ PTR INIT(ADDR(KA_INPFNC.FRM1)),
             18178    1   3 BYTSIZ UBIN(16)ALIGNED INIT(92),
             18182    1   3 USRCNT UBIN(16)ALIGNED INIT(32767) ,3 NAM CHAR(8)INIT('CP5S2') ,
             18190    1   3 * CHAR(38)INIT(' 	     l%                             '),3 * UBIN BYTE CALIGNED
             18190            INIT(2),3 * BIT(2)INIT('01'B),3 * BIT(1)INIT('0'B),3 * BIT(5)INIT
             18191    1   ('0'B),3 *(0:11)SBIN INIT(-156,-167,-106,-179,-179,-179,-423,-434,-373,-446,-446,
             18191            -446),3 *(0:3)BIT(16)INIT(
             18192    1  '0000000000011011'B,'0000000000011011'B,'1111111111111111'B,'1111111111111111'B),3 *
             18192            (0:1)SBIN INIT
             18193    1   (-480,0)
PL6.E3A0      #001=KA_INPFNC_D File=ka_inpfn_d.:TCA2TSI                          SUN 11/16/97 14:35 Page:8
             18201    1   ,
      740+   23618        %LIST;
      741+   23619        %KV$INPFNCTBL (NAME=FRM1, NAM='FRM1', PRMINTCHR1=ASCIIESC, STCLASS=CONSTANT,
      742+   23620                       SCNINTCHR1=ASCIIESC, ESCCNTOK=S,
      743+   23621                       LNK=KA_INPFNC.SE1, LAST=",");
             23622        %LSET LISTDIR='0'B;
             23671    1   2 FRM1,
             23673    1   3 LNK$ PTR INIT(ADDR(KA_INPFNC.SE1)),
             23678    1   3 BYTSIZ UBIN(16)ALIGNED INIT(92),
             23682    1   3 USRCNT UBIN(16)ALIGNED INIT(32767) ,3 NAM CHAR(8)INIT('FRM1') ,
             23690    1   3 * CHAR(38)INIT('#      d%P                            '),3 * UBIN BYTE CALIGNED
             23690            INIT(0),3 * BIT(2)INIT('01'B),3 * BIT(1)INIT('0'B),3 * BIT(5)INIT
             23691    1  ('0'B),3 *(0:11)SBIN INIT(77,112,117,128,77,77,92,127,132,143,92,92),3 *(0:3)BIT(16)
             23691            INIT(
             23692    1  '0000000000011011'B,'0000000000011011'B,'1111111111111111'B,'1111111111111111'B),3 *
             23692            (0:1)SBIN INIT
             23693    1   (-502,0)
             23698    1  ,2 * CHAR(0)INIT('       ()<>-ABDGHJKMNOQRUVXY iZ''*: I.RST 	         {|}~zpvxws '),
             23698           2 * CHAR(0)INIT(' ] \ ] ^ ( j d ` a d e       X o p q r t v w z { ~     d t   ,
             23698        ' * + ) ~ 2 . - /           3         4 T T T T T T z     R')
             23701    1   ,

PL6.E3A0      #001=KA_INPFNC_D File=ka_inpfn_d.:TCA2TSI                          SUN 11/16/97 14:35 Page:9
--  Include file information  --

   KV$VDH.:LIBRARY  is referenced.
   KV$GLB.:LIBRARY  is referenced.
   KV$INPFNC.:LIBRARY  is referenced.
   KA_GLB_E.:LIBRARY  is referenced.
   TCT_TELNET_E.:TCA2TOU  is referenced.
   KA_GLBASM_E.:TCA2TOU  is referenced.
   KV_PRMID_E.:LIBRARY  is referenced.
   KV_ASCCHR_E.:LIBRARY  is referenced.
   KV_GLBCNS_E.:LIBRARY  is referenced.
   KA_INPFNC_D.:TCA2TOU  cannot be made into a system file and is referenced.
      No diagnostics issued in procedure KA_INPFNC_D.
PL6.E3A0      #001=KA_INPFNC_D File=ka_inpfn_d.:TCA2TSI                          SUN 11/16/97 14:35 Page:10

 **** Variables and constants ****

  ****  Section 000 RoData KA_INPFNC_D

  ****  Scalars and arrays  ****
HexLoc.c.b A Datatyp(siz) R M Lvl/name                 HexLoc.c.b A Datatyp(siz) R M Lvl/name

     2-0-0/w STRC(17024) r     1 KA_INPFNC


   No code generated for procedure KA_INPFNC_D .
   Procedure KA_INPFNC_D requires 4 words of local(AUTO) storage.

    No errors detected in file ka_inpfn_d.:TCA2TSI    .
PL6.E3A0      #001=KA_INPFNC_D File=ka_inpfn_d.:TCA2TSI                          SUN 11/16/97 14:35 Page:11
          *** CROSS REFERENCE LISTING ***
**     DENOTES     IDENTIFIER DEFINITION
<<                 IDENTIFIER'S VALUE SET
>>                 IDENTIFIER'S VALUE USED
<>                 IDENTIFIER SET AND/OR USED
--                 IDENTIFIER REFERENCED
PL6.E3A0      #001=KA_INPFNC_D File=ka_inpfn_d.:TCA2TSI                          SUN 11/16/97 14:35 Page:12
          MINI XREF LISTING

KA_INPFNC.*.PSTVAL
      9495**DCL      9388--REDEF    9500--REDEF
KA_INPFNC.CP5
     17999**DCL      2519--DCLINIT
KA_INPFNC.CP5S1
     18085**DCL     17915--DCLINIT
KA_INPFNC.CP5S2
     18171**DCL     18087--DCLINIT
KA_INPFNC.FRM1
     23671**DCL     18173--DCLINIT
KA_INPFNC.NUL
     17913**DCL     18001--DCLINIT
KA_INPFNC.SE1
     30797**DCL     23673--DCLINIT
KA_INPFNC.SE2
     36469**DCL     30799--DCLINIT
