VERSION A02

PL6.E3A0      #001=KVP_CNST_D File=kvp_cnst_d.:TCA2TSI                           SUN 11/16/97 14:36 Page:1
        1        1        /*M* KVP_CNST_D - Constant data for the UNIX version.   */
        2        2        /*T***********************************************************/
        3        3        /*T*                                                         */
        4        4        /*T* Copyright (c) Bull HN Information Systems Inc., 1997    */
        5        5        /*T*                                                         */
        6        6        /*T***********************************************************/
        7        7        /*X*     NSO,PLM=3,SQB=Y,AND=Y,ENI=0,SDI=3,MCL=10,CSI=0,ECI=0,IND=0,IAD=3 */
        8        8        KVP_CNST_D: PROC;
        9        9        /* INCLU DES */
       10       10        %INCLUDE KV_GLBCNS_E;
       11      351        %KV_STRTYP_E;
       12      389        %INCLUDE KV_PRMID_E;
       13      563        %KV_PRMID_E;
       14      719        %KV_SCP_E;
       15      729        %EJECT;
PL6.E3A0      #001=KVP_CNST_D File=kvp_cnst_d.:TCA2TSI                           SUN 11/16/97 14:36 Page:2
       16      730        %SUB CVERSION=1;
       17      731        %INCLUDE KV_PRMTBL_D;                   /* Generate the driver tables         */
       11+    1515        %KV_PARM (ID=KV_PRMID_3270, TYPE=OTHER);
       12+    1555        %KV_PARM (ID=KV_PRMID_ABSGRPRND, TYPE=OTHER, STR=MRD);
       13+    1595        %KV_PARM (ID=KV_PRMID_ACTCHRSET, TYPE=SHRBFR, STR=STR, OFFSET=KV$STR_ACTCHRTBL$#,
       14+    1596                 BFRTYP=KV_STRTYP_ACTCHR, BFRLNG=32);
       15+    1636        %KV_PARM (ID=KV_PRMID_ACTONTRN, TYPE=BIT, STR=STR, OFFSET=KV$STR_ACTONTRN#);
       16+    1676        %KV_PARM (ID=KV_PRMID_ADJTOPLFT, TYPE=BIT, STR=SRD, OFFSET=KV$SRD_ADJTOPLFT#);
       17+    1716        %KV_PARM (ID=KV_PRMID_APL, TYPE=OTHER);
       18+    1756        %KV_PARM (ID=KV_PRMID_APLLCNRM, TYPE=BIT, STR=MVD, OFFSET=KV$MVD_APLLCNRM#);
       19+    1796        %KV_PARM (ID=KV_PRMID_ATRSCRNPOS, TYPE=BIT, STR=MRD, OFFSET=KV$MRD_ATRRQRDSPPST#);
       20+    1836        %KV_PARM (ID=KV_PRMID_AUTCRS, TYPE=BIT, STR=VDI, OFFSET=KV$VDI_AUTCRS#);
       21+    1876        %KV_PARM (ID=KV_PRMID_AUTONL, TYPE=BIT, STR=MRD, OFFSET=KV$MRD_AUTONL#);
       22+    1916        %KV_PARM (ID=KV_PRMID_AUTSAV, TYPE=STRLST);
       23+    1975           %KV_SUBSTR (ID=KV_PRMID_TRMCTL, OFFSET=8); /* Skip the first 8             */
       24+    1995           %KV_SUBSTR (ID=KV_PRMID_PROMPT);
       25+    2015           %KV_SUBSTR (ID=KV_PRMID_EOM);
       26+    2035           %KV_SUBSTR (ID=KV_PRMID_SINPUT);
       27+    2055           %KV_SUBSTR (ID=KV_PRMID_INPTAB);
       28+    2075           %KV_SUBSTR (ID=KV_PRMID_PLATEN);
       29+    2095           %KV_SUBSTR (ID=KV_PRMID_DCBHDR);
       30+    2115           %KV_SUBSTR (ID=KV_PRMID_SSNHDR);
       31+    2135        %KV_PARM (ID=KV_PRMID_AUTTABCLM, TYPE=BYTE, STR=STR, OFFSET=KV$STR_AUTTABCLM#);
       32+    2175        %KV_PARM (ID=KV_PRMID_BIN, TYPE=BIT, STR=MRD, OFFSET=KV$MRD_BIN#);
       33+    2215        %KV_PARM (ID=KV_PRMID_BLANKERASES, TYPE=BIT, STR=MRD, OFFSET=KV$MRD_BLANKERASES#);
       34+    2255        %KV_PARM (ID=KV_PRMID_BRKCNT, TYPE=BYTE, STR=SSN, OFFSET=KV$SSN_BRKCNT#, MAX=3);
       35+    2295        %KV_PARM (ID=KV_PRMID_BTMBRD, TYPE=BIT, STR=SRD, OFFSET=KV$SRD_BTMBRD#);
       36+    2335        %KV_PARM (ID=KV_PRMID_CHARSETNAME, TYPE=SHRBFR, STR=MVD, OFFSET=KV$MVD_TRNTBL$#,
       37+    2336                 BFRTYP=KV_STRTYP_TRNTBL, BFRLNG=8);
       38+    2376        %KV_PARM (ID=KV_PRMID_CHNCAS, TYPE=BIT, STR=SSN, OFFSET=KV$SSN_CHNCAS#);
       39+    2416        %KV_PARM (ID=KV_PRMID_CRISNL, TYPE=BIT, STR=MRD, OFFSET=KV$MRD_CRISNL#);
       40+    2456        %KV_PARM (ID=KV_PRMID_CRSRED, TYPE=BIT, STR=VDI, OFFSET=KV$VDI_CRSRED#);
       41+    2496        %KV_PARM (ID=KV_PRMID_CRTLINSPD, TYPE=BYTE, STR=VDI, OFFSET=KV$VDI_LINSPD#, MAX=15);
       42+    2536        %KV_PARM (ID=KV_PRMID_CTRCHR, TYPE=SHRBFR, STR=MRD, OFFSET=KV$MRD_ERD$#,
       43+    2537                 BFRTYP=KV_STRTYP_ERD, BFRLNG=KV$ERD_TXT#/8-8);
       44+    2577        %KV_PARM (ID=KV_PRMID_CURSORUP, TYPE=BIT, STR=MRD, OFFSET=KV$MRD_CURSORUP#);
       45+    2617        %KV_PARM (ID=KV_PRMID_DADR, TYPE=STRUCT);
PL6.E3A0      #001=KVP_CNST_D File=kvp_cnst_d.:TCA2TSI                           SUN 11/16/97 14:36 Page:3
       46+    2676        %KV_PARM (ID=KV_PRMID_DCBHDR, TYPE=SHRBFR, STR=MVD, OFFSET=KV$MVD_DCBHDN$#,
       47+    2677                 BFRTYP=KV_STRTYP_DCBHDN, BFRLNG=6);
       48+    2717        %KV_PARM (ID=KV_PRMID_DCHMOVFLD, TYPE=BIT, STR=MRD, OFFSET=KV$MRD_DCHMOVFLD#);
       49+    2757        %KV_PARM (ID=KV_PRMID_DEVCTL, TYPE=OTHER);
       50+    2797        %KV_PARM (ID=KV_PRMID_DEVICEBS, TYPE=BIT, STR=MRD, OFFSET=KV$MRD_DEVICEBS#);
       51+    2837        %KV_PARM (ID=KV_PRMID_DEVICECR, TYPE=BIT, STR=MRD, OFFSET=KV$MRD_DEVICECR#);
       52+    2877        %KV_PARM (ID=KV_PRMID_DEVICELF, TYPE=BIT, STR=MRD, OFFSET=KV$MRD_DEVICELF#);
       53+    2917        %KV_PARM (ID=KV_PRMID_DEVNUM, TYPE=OTHER);
       54+    2957        %KV_PARM (ID=KV_PRMID_DEVPOSOPTS, TYPE=BIT, STR=MRD, OFFSET=KV$MRD_DEVPOSOPTS#);
       55+    2997        %KV_PARM (ID=KV_PRMID_DEVSCROLL, TYPE=BIT, STR=MRD, OFFSET=KV$MRD_DEVSCROLL#);
       56+    3037        %KV_PARM (ID=KV_PRMID_DISPINPUT, TYPE=BIT, STR=MVD, OFFSET=KV$MVD_DISPINPUT#);
       57+    3077        %KV_PARM (ID=KV_PRMID_DMN, TYPE=BYTE, STR=STR, OFFSET=KV$STR_ID#,
       58+    3078                 MIN=256, MAX=0);
       59+    3118        %KV_PARM (ID=KV_PRMID_DSPHEIGHT, TYPE=BYTE, STR=MRD, OFFSET=KV$MRD_DSPHEIGHT#);
       60+    3158        %KV_PARM (ID=KV_PRMID_DVCFLWCTRALG, STR=MRD, OFFSET=KV$MRD_DVCFLWCTRALG#,
       61+    3159                 TYPE=BYTE, MAX=3);
       62+    3199        %KV_PARM (ID=KV_PRMID_EDITOVR, TYPE=BIT, STR=MVD, OFFSET=KV$MVD_EDITOVR#);
       63+    3239        %KV_PARM (ID=KV_PRMID_EDTBFR, TYPE=SHRBFR, STR=STR, OFFSET=KV$STR_EDTBFR__#,
       64+    3240                 BFRTYP=KV_STRTYP_REDBFR, BFRLNG=0);
       65+    3280        %KV_PARM (ID=KV_PRMID_EDTCTL, TYPE=STRUCT, MAX="(EDTCTL_ONESPACEEDIT#+16)");
       66+    3339           %KV_SUBSTR (ID=KV_PRMID_RCRWRAP, OFFSET=EDTCTL_RCRWRAP#, TYPE=BITCND);
       67+    3359           %KV_SUBSTR (ID=KV_PRMID_EDTCTL, TYPE=OTHER); /* Only for ORG=SE */
       68+    3379           %KV_SUBSTR (ID=KV_PRMID_HRZSCRALL, OFFSET=EDTCTL_HSALL#, TYPE=BITCND);
       69+    3399           %KV_SUBSTR (ID=KV_PRMID_TEXTEDIT, OFFSET=EDTCTL_TEXTEDIT#, TYPE=BITCND);
       70+    3419           %KV_SUBSTR (ID=KV_PRMID_EASYAPPEND, OFFSET=EDTCTL_EASYAPPEND#, TYPE=BITCND);
       71+    3439           %KV_SUBSTR (ID=KV_PRMID_KEYTYP, OFFSET=EDTCTL_KEYTYPE#, TYPE=BYTCND);
       72+    3459           %KV_SUBSTR (ID=KV_PRMID_VRTSCRMRG, OFFSET=EDTCTL_VSMARGIN#, TYPE=BYTCND);
       73+    3479           %KV_SUBSTR (ID=KV_PRMID_VRTSCRSHF, OFFSET=EDTCTL_VSSHIFT#, TYPE=BYTCND);
       74+    3499           %KV_SUBSTR (ID=KV_PRMID_KEYINC, OFFSET=EDTCTL_KEYINCR#, TYPE=OTHER);
       75+    3519           %KV_SUBSTR (ID=KV_PRMID_ONESPCEDT, OFFSET=EDTCTL_ONESPACEEDIT#, TYPE=BITCND);
       76+    3539        %KV_PARM (ID=KV_PRMID_EDTRHT, TYPE=BIT, STR=MVD, OFFSET=KV$MVD_EDTRHT#);
       77+    3579        %KV_PARM (ID=KV_PRMID_ENBENTEXTSRDCHR, TYPE=BIT, STR=SRD, OFFSET=
              3579            KV$SRD_ENBENTEXTSRDCHR#);
       78+    3619        %KV_PARM (ID=KV_PRMID_ENTSRDCHR, TYPE=SHRBFR, STR=SRD, OFFSET=KV$SRD_ENTSRDCHR$#,
       79+    3620                 BFRTYP=KV_STRTYP_ENTSRD, BFRLNG=1);
       80+    3660        %KV_PARM (ID=KV_PRMID_EOM, TYPE=STRUCT, MAX=EOM_SIZE#);
       81+    3719           %KV_SUBSTR (ID=KV_PRMID_DMN, OFFSET=EOM_DMN#, TYPE=BYT);
PL6.E3A0      #001=KVP_CNST_D File=kvp_cnst_d.:TCA2TSI                           SUN 11/16/97 14:36 Page:4
       82+    3739           %KV_SUBSTR (ID=KV_PRMID_USRHLTINH, OFFSET=EOM_SUPPHALT#, TYPE=BIT);
       83+    3759           %KV_SUBSTR (ID=KV_PRMID_REDTIMOUTPRD, OFFSET=EOM_TIMEOUT#, TYPE=BYTCND);
       84+    3779           %KV_SUBSTR (ID=KV_PRMID_REDTIMOUTPRDUNT, OFFSET=EOM_UTYPE#, TYPE=BIN2);
       85+    3799           %KV_SUBSTR (ID=KV_PRMID_ACTCHRSET, OFFSET=EOM_TABLE#, TYPE=BFR);
       86+    3819        %KV_PARM (ID=KV_PRMID_EASYAPPEND, TYPE=BIT, STR=SVD, OFFSET=KV$RCRLST_ESYAPP#);
       87+    3859        %KV_PARM (ID=KV_PRMID_FCNTBL, STR=MVD, OFFSET=KV$MVD_SSTINPFNCTBL$#,
       88+    3860                 TYPE=SHRBFR, BFRTYP=KV_STRTYP_SSTINPFNCTBL, BFRLNG=8);
       89+    3900        %KV_PARM (ID=KV_PRMID_FF_FLUSH, TYPE=BIT, STR=MRD, OFFSET=KV$MRD_FF_FLUSH#);
       90+    3940        %KV_PARM (ID=KV_PRMID_FF_INCCR, TYPE=BIT, STR=MRD, OFFSET=KV$MRD_FF_INCCR#);
       91+    3980        %KV_PARM (ID=KV_PRMID_FIRSTLINE, TYPE=BYTE, STR=MVD, OFFSET=KV$MVD_FRSLIN#);
       92+    4020        %KV_PARM (ID=KV_PRMID_FOREIGN, TYPE=USRPRM);
       93+    4060        %KV_PARM (ID=KV_PRMID_FULLDUPLEXPAPERTAPE, TYPE=BIT, STR=VDI, OFFSET=
              4060            KV$VDI_FULLDUPLEXPAPERTAPE#);
       94+    4100        %KV_PARM (ID=KV_PRMID_HALFDUPLEXPAPERTAPE, TYPE=BIT, STR=VDI, OFFSET=
              4100            KV$VDI_HALFDUPLEXPAPERTAPE#);
       95+    4140        %KV_PARM (ID=KV_PRMID_HARDWIRE, TYPE=OTHER);
       96+    4180        %KV_PARM (ID=KV_PRMID_HBRDCHR, TYPE=BYTE, STR=SRD, OFFSET=KV$SRD_HBRDCHR#,
       97+    4181                 MIN=32, MAX=255);
       98+    4221        %KV_PARM (ID=KV_PRMID_HBRDSIZ, TYPE=BYTE, STR=SRD, OFFSET=KV$SRD_HBRDSIZ#-4,
       99+    4222                  MIN=1, MAX=15);
      100+    4262        %KV_PARM (ID=KV_PRMID_HRZSCR, TYPE=BIT, STR=MVD, OFFSET=KV$MVD_HRZSCR#);
      101+    4302        %KV_PARM (ID=KV_PRMID_HRZSCRALL, TYPE=BIT, STR=SVD, OFFSET=KV$RCRLST_HRZSCRALL#);
      102+    4342        %KV_PARM (ID=KV_PRMID_HRZSCRMRG, TYPE=BYTE, STR=MVD, OFFSET=KV$MVD_HRZSCRMRGINT#);
      103+    4382        %KV_PARM (ID=KV_PRMID_HRZSCRSHF, TYPE=BYTE, STR=MVD, OFFSET=KV$MVD_HRZSCRSHF#);
      104+    4422        %KV_PARM (ID=KV_PRMID_INPTAB, TYPE=SHRBFR, STR=MVD, OFFSET=KV$MVD_INPTAB$#,
      105+    4423                 BFRTYP=KV_STRTYP_INPTAB, BFRLNG=1);
      106+    4463        %KV_PARM (ID=KV_PRMID_INPUT, TYPE=BIT, STR=MRD, OFFSET=KV$MRD_INPUT#);
      107+    4503        %KV_PARM (ID=KV_PRMID_INSMOD, TYPE=BIT, STR=MVD, OFFSET=KV$MVD_INSMOD#);
      108+    4543        %KV_PARM (ID=KV_PRMID_KEPTYP, TYPE=BIT, STR=VDI, OFFSET=KV$VDI_KEPTYP#);
      109+    4583        %KV_PARM (ID=KV_PRMID_KEYDEFS, TYPE=OTHER, STR=MRD);
      110+    4623        %KV_PARM (ID=KV_PRMID_KEYINC, TYPE=WORD, STR=SVD, OFFSET=KV$RCRLST_KEYINC#,
      111+    4624                 MAX=65535, MIN=1);
      112+    4664        %KV_PARM (ID=KV_PRMID_KEYTYP, TYPE=BYTE, STR=SVD, OFFSET=KV$RCRLST_KEYTYP#);
      113+    4704        %KV_PARM (ID=KV_PRMID_LFISNL, TYPE=BIT, STR=MRD, OFFSET=KV$MRD_LFISNL#);
      114+    4744        %KV_PARM (ID=KV_PRMID_LFTBRD, TYPE=BIT, STR=SRD, OFFSET=KV$SRD_LFTBRD#);
      115+    4784        %KV_PARM (ID=KV_PRMID_LIMBO, TYPE=BYTE, STR=MVD, OFFSET=KV$MVD_LMB#);
      116+    4824        %KV_PARM (ID=KV_PRMID_LIMBOCLM, TYPE=BIT, STR=MRD, OFFSET=KV$MRD_LIMBOCLM#);
PL6.E3A0      #001=KVP_CNST_D File=kvp_cnst_d.:TCA2TSI                           SUN 11/16/97 14:36 Page:5
      117+    4864        %KV_PARM (ID=KV_PRMID_LINEATTR, TYPE=STRUCT, MAX="(LINEATTR_DEVICE#+32)");
      118+    4923           %KV_SUBSTR (ID=KV_PRMID_MULTIDEVICE, OFFSET=LINEATTR_MULTIDEVICE#, TYPE=BIT);
      119+    4943           %KV_SUBSTR (ID=KV_PRMID_HARDWIRE, OFFSET=LINEATTR_HARDWIRE#, TYPE=BIT);
      120+    4963           %KV_SUBSTR (ID=KV_PRMID_FOREIGN, OFFSET=LINEATTR_FOREIGN#, TYPE=BIT);
      121+    4983           %KV_SUBSTR (ID=KV_PRMID_MCRFPL, OFFSET=LINEATTR_MICROFPL#, TYPE=BIT);
      122+    5003           %KV_SUBSTR (ID=KV_PRMID_CRTLINSPD, OFFSET=LINEATTR_LINESPEED#, TYPE=BYT);
      123+    5023           %KV_SUBSTR (ID=KV_PRMID_PRFNAM, OFFSET=LINEATTR_PROFILE#, TYPE=BFR);
      124+    5043           %KV_SUBSTR (ID=KV_PRMID_NODE, OFFSET=LINEATTR_NODE#, TYPE=BFR);
      125+    5063           %KV_SUBSTR (ID=KV_PRMID_PORT, OFFSET=LINEATTR_PORT#, TYPE=BFR);
      126+    5083           %KV_SUBSTR (ID=KV_PRMID_DEVCTL, OFFSET=LINEATTR_CONTROLLER#, TYPE=BFR);
      127+    5103           %KV_SUBSTR (ID=KV_PRMID_DEVNUM, OFFSET=LINEATTR_DEVICE#, TYPE=BFR);
      128+    5123        %KV_PARM (ID=KV_PRMID_LINES, TYPE=STRUCT, MAX=16*2);
      129+    5182           %KV_SUBSTR (ID=KV_PRMID_LINES, TYPE=OTHER);
      130+    5202        %KV_PARM (ID=KV_PRMID_LOCALECHO, TYPE=BIT, STR=MRD, OFFSET=KV$MRD_LOCALECHO#);
      131+    5242        %KV_PARM (ID=KV_PRMID_LOWERCASE, TYPE=BIT, STR=MVD, OFFSET=KV$MVD_LOWERCASE#);
      132+    5282        %KV_PARM (ID=KV_PRMID_LOWERCASEPRINTS, TYPE=BIT, STR=MRD, OFFSET=
              5282            KV$MRD_LOWERCASEPRINTS#);
      133+    5322        %KV_PARM (ID=KV_PRMID_LPI, TYPE=BYTE, STR=MVD, OFFSET=KV$MVD_LPI#);
      134+    5362        %KV_PARM (ID=KV_PRMID_MAXATRS, TYPE=BYTE, STR=MRD, OFFSET=KV$MRD_MAXATRPERLIN#);
      135+    5402        %KV_PARM (ID=KV_PRMID_MCRFPL, TYPE=BIT, STR=VDI, OFFSET=KV$VDI_MCRFPL#);
      136+    5442        %KV_PARM (ID=KV_PRMID_MINEDTBFRSIZ, TYPE=BYTE, STR=SSN, OFFSET=KV$SSN_MINEDTBFRSIZ#)
              5442            ;
      137+    5482        %KV_PARM (ID=KV_PRMID_MINLNG, TYPE=BYTE, STR=SRD, OFFSET=KV$SRD_MINLNG#);
      138+    5522        %KV_PARM (ID=KV_PRMID_MINREC, TYPE=OTHER);
      139+    5562        %KV_PARM (ID=KV_PRMID_MINWDT, TYPE=BYTE, STR=SRD, OFFSET=KV$SRD_MINWDT#);
      140+    5602        %KV_PARM (ID=KV_PRMID_MRDLNG, TYPE=BYTE, STR=MRD, OFFSET=KV$MRD_LNG#);
      141+    5642        %KV_PARM (ID=KV_PRMID_MRDWDT, TYPE=WORD, STR=MRD, OFFSET=KV$MRD_WDT#, MIN=1);
      142+    5682        %KV_PARM (ID=KV_PRMID_MSGHLT, TYPE=BIT, STR=SSN, OFFSET=KV$SSN_MSGHLT#);
      143+    5722        %KV_PARM (ID=KV_PRMID_MSGLIN, TYPE=BIT, STR=SSN, OFFSET=KV$SSN_MSGLIN#);
      144+    5762        %KV_PARM (ID=KV_PRMID_MULTIDEVICE, TYPE=OTHER);
      145+    5802        %KV_PARM (ID=KV_PRMID_MVDLNG, TYPE=BYTE, STR=MVD, OFFSET=KV$MVD_LNG#);
      146+    5842        %KV_PARM (ID=KV_PRMID_MVDWDT, TYPE=WORD, STR=MVD, OFFSET=KV$MVD_WDT#, MIN=1);
      147+    5882        %KV_PARM (ID=KV_PRMID_NODE, TYPE=OTHER);
      148+    5922        %KV_PARM (ID=KV_PRMID_NOOPTMIZ, TYPE=BIT, STR=SRD, OFFSET=KV$SRD_NOOPTMIZ#);
      149+    5962        %KV_PARM (ID=KV_PRMID_NO_FLDTRM, TYPE=BIT, STR=MRD, OFFSET=KV$MRD_NO_FLDTRM#);
      150+    6002        %KV_PARM (ID=KV_PRMID_ONESPCEDT, TYPE=BIT, STR=SVD, OFFSET=KV$RCRLST_ONESPCEDT#);
      151+    6042        %KV_PARM (ID=KV_PRMID_OPDTAB, TYPE=BIT, STR=MRD, OFFSET=KV$MRD_OPDTAB#);
PL6.E3A0      #001=KVP_CNST_D File=kvp_cnst_d.:TCA2TSI                           SUN 11/16/97 14:36 Page:6
      152+    6082        %KV_PARM (ID=KV_PRMID_OTPTAB, TYPE=SHRBFR, STR=STR, OFFSET=KV$STR_OTPTAB$#,
      153+    6083                 BFRTYP=KV_STRTYP_OTPTAB, BFRLNG=1);
      154+    6123        %KV_PARM (ID=KV_PRMID_OUTPUT, TYPE=BIT, STR=MRD, OFFSET=KV$MRD_OUTPUT#);
      155+    6163        %KV_PARM (ID=KV_PRMID_OUTPUTDISCARD, TYPE=BIT, STR=SSN, OFFSET=KV$SSN_OUTPUTDISCARD#
              6163            );
      156+    6203        %KV_PARM (ID=KV_PRMID_OVRSTR, TYPE=BIT, STR=MVD, OFFSET=KV$MVD_OVRSTR#);
      157+    6243        %KV_PARM (ID=KV_PRMID_PAGEHALT, TYPE=BIT, STR=SRD, OFFSET=KV$SRD_PAGEHALT#);
      158+    6283        %KV_PARM (ID=KV_PRMID_PARITY, TYPE=BYTE, STR=VDI, OFFSET=KV$VDI_PRTTYP#, MAX=4);
      159+    6323        %KV_PARM (ID=KV_PRMID_PARITYCHECK, TYPE=BIT, STR=VDI, OFFSET=KV$VDI_PRTCHK#);
      160+    6363        %KV_PARM (ID=KV_PRMID_PLATEN, TYPE=STRUCT, MAX="(PLATEN_LPI#+8)");
      161+    6422           %KV_SUBSTR (ID=1, OFFSET=PLATEN_EXTWID#, TYPE=EXTBIT);
      162+    6442           %KV_SUBSTR (ID=KV_PRMID_MVDWDT, OFFSET=PLATEN_WIDTH#, TYPE=BYTCND);
      163+    6462           %KV_SUBSTR (ID=KV_PRMID_MVDLNG, OFFSET=PLATEN_LENGTH#, TYPE=BYTCND);
      164+    6482           %KV_SUBSTR (ID=KV_PRMID_LIMBO, OFFSET=PLATEN_LIMBO#, TYPE=BYTCND);
      165+    6502           %KV_SUBSTR (ID=KV_PRMID_FIRSTLINE, OFFSET=PLATEN_FIRSTLINE#, TYPE=BYTCND);
      166+    6522           %KV_SUBSTR (ID=KV_PRMID_LPI, OFFSET=PLATEN_LPI#, TYPE=BYTCND);
      167+    6542        %KV_PARM (ID=KV_PRMID_PORT, TYPE=OTHER);
      168+    6582        %KV_PARM (ID=KV_PRMID_PRFNAM, TYPE=TEXT, STR=MRD, OFFSET=KV$MRD_PRFNAM#,
      169+    6583                 BFRLNG=12);
      170+    6623        %KV_PARM (ID=KV_PRMID_PRINTHALT, TYPE=BIT, STR=SRD, OFFSET=KV$SRD_PRINTHALT#);
      171+    6663        %KV_PARM (ID=KV_PRMID_PRINTTYPE, TYPE=BIT, STR=MRD, OFFSET=KV$MRD_PRINTTYPE#);
      172+    6703        %KV_PARM (ID=KV_PRMID_PRKCRS, TYPE=BIT, STR=SRD, OFFSET=KV$SRD_PRKCRS#);
      173+    6743        %KV_PARM (ID=KV_PRMID_PRM, TYPE=SHRBFR, STR=STR, OFFSET=KV$STR_PRM$#,
      174+    6744                 BFRTYP=KV_STRTYP_PRM, BFRLNG=1);
      175+    6784        %KV_PARM (ID=KV_PRMID_PROFILE, TYPE=STRUCT);
      176+    6843           %KV_SUBSTR (ID=KV_PRMID_PRFNAM, OFFSET=0, TYPE=BFR);
      177+    6863        %KV_PARM (ID=KV_PRMID_PROGDTAB, TYPE=BIT, STR=MRD, OFFSET=KV$MRD_PROGDTAB#);
      178+    6903        %KV_PARM (ID=KV_PRMID_PROMPT, TYPE=STRUCT, MAX=0);
      179+    6962           %KV_SUBSTR (ID=KV_PRMID_DMN, OFFSET=PROMPT_DMN#, TYPE=BYT);
      180+    6982           %KV_SUBSTR (ID=KV_PRMID_PRM, OFFSET=PROMPT_VFC#, TYPE=BFR);
      181+    7002        %KV_PARM (ID=KV_PRMID_RCRWRAP, TYPE=BIT, STR=MVD, OFFSET=KV$MVD_RCRWRAP#);
      182+    7042        %KV_PARM (ID=KV_PRMID_REDTIMOUTPRD, TYPE=BYTE, STR=STR, OFFSET=KV$STR_REDTIMOUTPRD#)
              7042            ;
      183+    7082        %KV_PARM (ID=KV_PRMID_REDTIMOUTPRDUNT, TYPE=BYTE, STR=STR, OFFSET=
              7082            KV$STR_REDTIMOUTPRDUNT#, MAX=2);
      184+    7122        %KV_PARM (ID=KV_PRMID_RELPAGE, TYPE=BIT, STR=SRD, OFFSET=KV$SRD_RELPAGE#);
      185+    7162        %KV_PARM (ID=KV_PRMID_REREADCLM, TYPE=WORD, STR=STR, OFFSET=KV$STR_RE_REDCLM#);
PL6.E3A0      #001=KVP_CNST_D File=kvp_cnst_d.:TCA2TSI                           SUN 11/16/97 14:36 Page:7
      186+    7202        %KV_PARM (ID=KV_PRMID_RETYPOVR, TYPE=BIT, STR=MVD, OFFSET=KV$MVD_RETYPOVR#);
      187+    7242        %KV_PARM (ID=KV_PRMID_RHTBRD, TYPE=BIT, STR=SRD, OFFSET=KV$SRD_RHTBRD#);
      188+    7282        %KV_PARM (ID=KV_PRMID_SAVCTL, TYPE=STRUCT, MAX=8*8); /* 8 BYTES */
      189+    7341           %KV_SUBSTR (ID=KV_PRMID_DMN, OFFSET=0, TYPE=BYT);
      190+    7361           %KV_SUBSTR (ID=KV_PRMID_HRZSCRMRG, OFFSET=16, TYPE=BYT);
      191+    7381           %KV_SUBSTR (ID=KV_PRMID_HRZSCRSHF, OFFSET=24, TYPE=BYT);
      192+    7401           %KV_SUBSTR (ID=KV_PRMID_AUTTABCLM, OFFSET=32, TYPE=BYT);
      193+    7421           %KV_SUBSTR (ID=KV_PRMID_WRDWRPCLM, OFFSET=40, TYPE=BYT);
      194+    7441           %KV_SUBSTR (ID=KV_PRMID_HRZSCR, OFFSET=48, TYPE=BIT);
      195+    7461           %KV_SUBSTR (ID=KV_PRMID_WRDWRP, OFFSET=49, TYPE=BIT);
      196+    7481           %KV_SUBSTR (ID=KV_PRMID_TRUNCATE, OFFSET=50, TYPE=BIT);
      197+    7501           %KV_SUBSTR (ID=KV_PRMID_ENBENTEXTSRDCHR, OFFSET=51, TYPE=BIT);
      198+    7521           %KV_SUBSTR (ID=KV_PRMID_TRNUSRINPFNC, OFFSET=52, TYPE=BIT);
      199+    7541           %KV_SUBSTR (ID=KV_PRMID_ACTONTRN, OFFSET=53, TYPE=BIT);
      200+    7561           %KV_SUBSTR (ID=KV_PRMID_DISPINPUT, OFFSET=54, TYPE=BIT);
      201+    7581           %KV_SUBSTR (ID=KV_PRMID_NOOPTMIZ, OFFSET=55, TYPE=BIT);
      202+    7601           %KV_SUBSTR (ID=KV_PRMID_PRKCRS, OFFSET=56, TYPE=BIT);
      203+    7621        %KV_PARM (ID=KV_PRMID_SAVGET, TYPE=STRLST);
      204+    7680           %KV_SUBSTR (ID=KV_PRMID_SAVCTL); /* TRMCTL subset, per stream              */
      205+    7700           %KV_SUBSTR (ID=KV_PRMID_PROMPT);
      206+    7720           %KV_SUBSTR (ID=KV_PRMID_EOM, OFFSET=1); /* Skip SUPPHALT                   */
      207+    7740           %KV_SUBSTR (ID=KV_PRMID_DCBHDR);
      208+    7760           %KV_SUBSTR (ID=KV_PRMID_SSNHDR);
      209+    7780        %KV_PARM (ID=KV_PRMID_SCROLL, TYPE=BIT, STR=SRD, OFFSET=KV$SRD_SCROLL#);
      210+    7820        %KV_PARM (ID=KV_PRMID_SDNUM, TYPE=OTHER);
      211+    7860        %KV_PARM (ID=KV_PRMID_SETUP_CHR, TYPE=OTHER, STR=MRD);
      212+    7900        %KV_PARM (ID=KV_PRMID_SIMPERF, TYPE=BIT, STR=MVD, OFFSET=KV$MVD_SIMPERF#);
      213+    7940        %KV_PARM (ID=KV_PRMID_SINPUT, TYPE=STRUCT, MAX=0);
      214+    7999           %KV_SUBSTR (ID=KV_PRMID_DMN, OFFSET=SINPUT_DMN#, TYPE=BYT);
      215+    8019           %KV_SUBSTR (ID=KV_PRMID_REREADCLM, OFFSET=SINPUT_POSITION#, TYPE=OTHER);
      216+    8039           %KV_SUBSTR (ID=KV_PRMID_SINPUT, OFFSET=SINPUT_TXT#, TYPE=OTHER); /* ORG=SE */
      217+    8059           %KV_SUBSTR (ID=KV_PRMID_EDTBFR, OFFSET=SINPUT_TXT#, TYPE=BFR);
      218+    8079        %KV_PARM (ID=KV_PRMID_SPACEINSERT, TYPE=BIT, STR=MVD, OFFSET=KV$MVD_SPACEINSERT#);
      219+    8119        %KV_PARM (ID=KV_PRMID_SRDOPT, TYPE=BIT, STR=SRD, OFFSET=KV$SRD_OPT#);
      220+    8159        %KV_PARM (ID=KV_PRMID_SSNHDR, TYPE=SHRBFR, STR=SSN, OFFSET=KV$SSN_SSNHDN$#,
      221+    8160                 BFRTYP=KV_STRTYP_SSNHDN, BFRLNG=6);
      222+    8200        %KV_PARM (ID=KV_PRMID_TABRELATIVE, TYPE=BIT, STR=MVD, OFFSET=KV$MVD_TABRELATIVE#);
PL6.E3A0      #001=KVP_CNST_D File=kvp_cnst_d.:TCA2TSI                           SUN 11/16/97 14:36 Page:8
      223+    8240        %KV_PARM (ID=KV_PRMID_TABSIM, TYPE=BIT, STR=MVD, OFFSET=KV$MVD_TABSIM#);
      224+    8280        %KV_PARM (ID=KV_PRMID_TEXTEDIT, TYPE=BIT, STR=SVD, OFFSET=KV$RCRLST_TXTEDT#);
      225+    8320        %KV_PARM (ID=KV_PRMID_TOPBRD, TYPE=BIT, STR=SRD, OFFSET=KV$SRD_TOPBRD#);
      226+    8360        %KV_PARM (ID=KV_PRMID_TRMATTR, TYPE=STRUCT, MAX="(TRMATTR_MAXATRS#+16)");
      227+    8419           %KV_SUBSTR (ID=KV_PRMID_PROGDTAB, OFFSET=TRMATTR_PROGDTAB#, TYPE=BITCND);
      228+    8439           %KV_SUBSTR (ID=KV_PRMID_OPDTAB, OFFSET=TRMATTR_OPDTAB#, TYPE=BITCND);
      229+    8459           %KV_SUBSTR (ID=KV_PRMID_DEVSCROLL, OFFSET=TRMATTR_DEVSCROLL#, TYPE=BITCND);
      230+    8479           %KV_SUBSTR (ID=KV_PRMID_CURSORUP, OFFSET=TRMATTR_CURSORUP#, TYPE=BITCND);
      231+    8499           %KV_SUBSTR (ID=KV_PRMID_DEVICECR, OFFSET=TRMATTR_DEVICECR#, TYPE=BITCND);
      232+    8519           %KV_SUBSTR (ID=KV_PRMID_DEVICELF, OFFSET=TRMATTR_DEVICELF#, TYPE=BITCND);
      233+    8539           %KV_SUBSTR (ID=KV_PRMID_DEVICEBS, OFFSET=TRMATTR_DEVICEBS#, TYPE=BITCND);
      234+    8559           %KV_SUBSTR (ID=KV_PRMID_AUTONL, OFFSET=TRMATTR_AUTONL#, TYPE=BITCND);
      235+    8579           %KV_SUBSTR (ID=KV_PRMID_CRISNL, OFFSET=TRMATTR_CRISNL#, TYPE=BITCND);
      236+    8599           %KV_SUBSTR (ID=KV_PRMID_LFISNL, OFFSET=TRMATTR_LFISNL#, TYPE=BITCND);
      237+    8619           %KV_SUBSTR (ID=KV_PRMID_BLANKERASES, OFFSET=TRMATTR_BLANKERASES#, TYPE=BITCND);
      238+    8639           %KV_SUBSTR (ID=KV_PRMID_DEVPOSOPTS, OFFSET=TRMATTR_DEVPOSOPTS#, TYPE=BITCND);
      239+    8659           %KV_SUBSTR (ID=KV_PRMID_TRUOVRPRT, OFFSET=TRMATTR_TRUOVRPRT#, TYPE=BITCND);
      240+    8679           %KV_SUBSTR (ID=KV_PRMID_APL, OFFSET=TRMATTR_APL#, TYPE=BITCND);
      241+    8699           %KV_SUBSTR (ID=KV_PRMID_BIN, OFFSET=TRMATTR_BIN#, TYPE=BITCND);
      242+    8719           %KV_SUBSTR (ID=KV_PRMID_LOWERCASEPRINTS, OFFSET=TRMATTR_LOWERCASEPRINTS#, TYPE=
              8719               BITCND);
      243+    8739           %KV_SUBSTR (ID=KV_PRMID_LIMBOCLM, OFFSET=TRMATTR_LIMBOCLM#, TYPE=BITCND);
      244+    8759           %KV_SUBSTR (ID=KV_PRMID_LOCALECHO, OFFSET=TRMATTR_LOCALECHO#, TYPE=BITCND);
      245+    8779           %KV_SUBSTR (ID=KV_PRMID_PARITY, OFFSET=TRMATTR_PARITY#, TYPE=BIN3);
      246+    8799           %KV_SUBSTR (ID=KV_PRMID_INPUT, OFFSET=TRMATTR_INPUT#, TYPE=BITCND);
      247+    8819           %KV_SUBSTR (ID=KV_PRMID_OUTPUT, OFFSET=TRMATTR_OUTPUT#, TYPE=BITCND);
      248+    8839           %KV_SUBSTR (ID=KV_PRMID_PRINTTYPE, OFFSET=TRMATTR_PRINTTYPE#, TYPE=BITCND);
      249+    8859           %KV_SUBSTR (ID=KV_PRMID_TTYTYPE, OFFSET=TRMATTR_TTYTYPE#, TYPE=BITCND);
      250+    8879           %KV_SUBSTR (ID=1, OFFSET=TRMATTR_EXTWID#, TYPE=EXTBIT);
      251+    8899           %KV_SUBSTR (ID=KV_PRMID_MRDWDT, OFFSET=TRMATTR_WIDTH#, TYPE=BYTCND);
      252+    8919           %KV_SUBSTR (ID=KV_PRMID_MRDLNG, OFFSET=TRMATTR_HEIGHT#, TYPE=BYTCND);
      253+    8939           %KV_SUBSTR (ID=KV_PRMID_MINREC, OFFSET=TRMATTR_MINREC#, TYPE=BYTCND);
      254+    8959           %KV_SUBSTR (ID=KV_PRMID_CRTLINSPD, OFFSET=TRMATTR_SPEED#, TYPE=BYTCND);
      255+    8979           %KV_SUBSTR (ID=KV_PRMID_CHARSETNAME, OFFSET=TRMATTR_CHARSETNAME#, TYPE=BFR);
      256+    8999           %KV_SUBSTR (ID=KV_PRMID_FCNTBL, OFFSET=TRMATTR_FCNTBL#, TYPE=BFR);
      257+    9019           %KV_SUBSTR (ID=KV_PRMID_NO_FLDTRM, OFFSET=TRMATTR_NO_FLDTRM#, TYPE=BITCND);
      258+    9039           %KV_SUBSTR (ID=KV_PRMID_ATRSCRNPOS, OFFSET=TRMATTR_ATRSCRNPOS#, TYPE=BITCND);
PL6.E3A0      #001=KVP_CNST_D File=kvp_cnst_d.:TCA2TSI                           SUN 11/16/97 14:36 Page:9
      259+    9059           %KV_SUBSTR (ID=KV_PRMID_STRDON, OFFSET=TRMATTR_C00FPT#, TYPE=EXTBIT);
      260+    9079           %KV_SUBSTR (ID=KV_PRMID_DVCFLWCTRALG, OFFSET=TRMATTR_DVCFLWCTRALG#, TYPE=BIN3);
      261+    9099           %KV_SUBSTR (ID=KV_PRMID_MAXATRS, OFFSET=TRMATTR_MAXATRS#, TYPE=BYTCND);
      262+    9119           %KV_SUBSTR (ID=KV_PRMID_DCHMOVFLD, OFFSET=TRMATTR_DCHMOVFLD#, TYPE=BITCND);
      263+    9139           %KV_SUBSTR (ID=KV_PRMID_DSPHEIGHT, OFFSET=TRMATTR_DSPHEIGHT#, TYPE=BYTCND);
      264+    9159           %KV_SUBSTR (ID=KV_PRMID_FF_FLUSH, OFFSET=TRMATTR_FF_FLUSH#, TYPE=BITCND);
      265+    9179           %KV_SUBSTR (ID=KV_PRMID_FF_INCCR, OFFSET=TRMATTR_FF_INCCR#, TYPE=BITCND);
      266+    9199           %KV_SUBSTR (ID=KV_PRMID_MCRFPL, OFFSET=TRMATTR_MICROFPL#, TYPE=BITCND);
      267+    9219        %KV_PARM (ID=KV_PRMID_TRMCTL, TYPE=STRUCT, MAX="(128)");
      268+    9278           %KV_SUBSTR (ID=KV_PRMID_DISPINPUT, OFFSET=TRMCTL_DISPINPUT#, TYPE=BITCND);
      269+    9298           %KV_SUBSTR (ID=KV_PRMID_PARITYCHECK, OFFSET=TRMCTL_PARITYCHECK#, TYPE=BITCND);
      270+    9318           %KV_SUBSTR (ID=KV_PRMID_OUTPUTDISCARD, OFFSET=TRMCTL_OUTPUTDISCARD#, TYPE=BITCND)
              9318               ;
      271+    9338           %KV_SUBSTR (ID=KV_PRMID_FULLDUPLEXPAPERTAPE, OFFSET=TRMCTL_FULLDUXPAPERTAPE#,
              9338               TYPE=BITCND);
      272+    9358           %KV_SUBSTR (ID=KV_PRMID_HALFDUPLEXPAPERTAPE, OFFSET=TRMCTL_HALFDUXPAPERTAPE#,
              9358               TYPE=BITCND);
      273+    9378           %KV_SUBSTR (ID=KV_PRMID_ACTONTRN, OFFSET=TRMCTL_ACTONTRN#, TYPE=BITCND);
      274+    9398           %KV_SUBSTR (ID=KV_PRMID_RETYPOVR, OFFSET=TRMCTL_RETYPOVR#, TYPE=BITCND);
      275+    9418           %KV_SUBSTR (ID=KV_PRMID_EDITOVR, OFFSET=TRMCTL_EDITOVR#, TYPE=BITCND);
      276+    9438           %KV_SUBSTR (ID=KV_PRMID_SCROLL, OFFSET=TRMCTL_SCROLL#, TYPE=BITCND);
      277+    9458           %KV_SUBSTR (ID=KV_PRMID_PAGEHALT, OFFSET=TRMCTL_PAGEHALT#, TYPE=BITCND);
      278+    9478           %KV_SUBSTR (ID=KV_PRMID_PRINTHALT, OFFSET=TRMCTL_PRINTHALT#, TYPE=BITCND);
      279+    9498           %KV_SUBSTR (ID=KV_PRMID_RELPAGE, OFFSET=TRMCTL_RELPAGE#, TYPE=BITCND);
      280+    9518           %KV_SUBSTR (ID=KV_PRMID_SIMPERF, OFFSET=TRMCTL_SIMPERF#, TYPE=BITCND);
      281+    9538           %KV_SUBSTR (ID=KV_PRMID_TABSIM, OFFSET=TRMCTL_TABSIM#, TYPE=BITCND);
      282+    9558           %KV_SUBSTR (ID=KV_PRMID_TABRELATIVE, OFFSET=TRMCTL_TABRELATIVE#, TYPE=BITCND);
      283+    9578           %KV_SUBSTR (ID=KV_PRMID_SPACEINSERT, OFFSET=TRMCTL_SPACEINSERT#, TYPE=BITCND);
      284+    9598           %KV_SUBSTR (ID=KV_PRMID_OVRSTR, OFFSET=TRMCTL_SENDBKSPACE#, TYPE=BITCND);
      285+    9618           %KV_SUBSTR (ID=KV_PRMID_UPPERCASE, OFFSET=TRMCTL_UPPERCASE#, TYPE=BITCND);
      286+    9638           %KV_SUBSTR (ID=KV_PRMID_LOWERCASE, OFFSET=TRMCTL_LOWERCASE#, TYPE=BITCND);
      287+    9658           %KV_SUBSTR (ID=KV_PRMID_APLLCNRM, OFFSET=TRMCTL_APLLCNRM#, TYPE=BITCND);
      288+    9678           %KV_SUBSTR (ID=KV_PRMID_NOOPTMIZ, OFFSET=TRMCTL_NOOPTMIZ#, TYPE=BITCND);
      289+    9698           %KV_SUBSTR (ID=KV_PRMID_WRPPAG, OFFSET=TRMCTL_WRAPPAGE#, TYPE=BITCND);
      290+    9718           %KV_SUBSTR (ID=KV_PRMID_MINEDTBFRSIZ, OFFSET=TRMCTL_SINPUTSZ#, TYPE=BYTCND);
      291+    9738           %KV_SUBSTR (ID=KV_PRMID_BRKCNT, OFFSET=TRMCTL_BREAKCOUNT#, TYPE=BYTCND);
      292+    9758           %KV_SUBSTR (ID=KV_PRMID_INSMOD, OFFSET=TRMCTL_INSERTMODE#, TYPE=BITCND);
PL6.E3A0      #001=KVP_CNST_D File=kvp_cnst_d.:TCA2TSI                           SUN 11/16/97 14:36 Page:10
      293+    9778           %KV_SUBSTR (ID=KV_PRMID_MSGHLT, OFFSET=TRMCTL_MSGHALT#, TYPE=BITCND);
      294+    9798           %KV_SUBSTR (ID=KV_PRMID_STRDON, OFFSET=TRMCTL_C00FPT#, TYPE=EXTBIT);
      295+    9818           %KV_SUBSTR (ID=KV_PRMID_MSGLIN, OFFSET=TRMCTL_MSGLINE#, TYPE=BITCND);
      296+    9838           %KV_SUBSTR (ID=KV_PRMID_HRZSCR, OFFSET=TRMCTL_HSCROLL#, TYPE=BITCND);
      297+    9858           %KV_SUBSTR (ID=KV_PRMID_HRZSCRMRG, OFFSET=TRMCTL_HSMARGIN#, TYPE=BYTCND);
      298+    9878           %KV_SUBSTR (ID=KV_PRMID_HRZSCRSHF, OFFSET=TRMCTL_HSSHIFT#, TYPE=BYTCND);
      299+    9898           %KV_SUBSTR (ID=KV_PRMID_TRUNCATE, OFFSET=TRMCTL_TRUNCATE#, TYPE=BITCND);
      300+    9918           %KV_SUBSTR (ID=KV_PRMID_ENBENTEXTSRDCHR, OFFSET=TRMCTL_ENBENTEXTSRDCHR#, TYPE=
              9918               BITCND);
      301+    9938           %KV_SUBSTR (ID=KV_PRMID_TRNUSRINPFNC, OFFSET=TRMCTL_TRNUSRINPFNC#, TYPE=BITCND);
      302+    9958           %KV_SUBSTR (ID=KV_PRMID_AUTTABCLM, OFFSET=TRMCTL_AUTOTABCLM#, TYPE=BYTCND);
      303+    9978           %KV_SUBSTR (ID=KV_PRMID_WRDWRP, OFFSET=TRMCTL_WORDWRAPCLM#, TYPE=BYTCND);
      304+    9998           %KV_SUBSTR (ID=KV_PRMID_WRDWRPCLM, OFFSET=TRMCTL_WORDWRAPCLM#, TYPE=BYTCND);
      305+   10018           %KV_SUBSTR (ID=KV_PRMID_PRKCRS, OFFSET=TRMCTL_PARKCURSOR#, TYPE=BITCND);
      306+   10038           %KV_SUBSTR (ID=KV_PRMID_CRSRED, OFFSET=TRMCTL_CURSORREAD#, TYPE=BITCND);
      307+   10058           %KV_SUBSTR (ID=KV_PRMID_AUTCRS, OFFSET=TRMCTL_AUTOCURSOR#, TYPE=BITCND);
      308+   10078           %KV_SUBSTR (ID=KV_PRMID_KEPTYP, OFFSET=TRMCTL_KEEPTYPAHD#, TYPE=BITCND);
      309+   10098           %KV_SUBSTR (ID=KV_PRMID_ADJTOPLFT, OFFSET=TRMCTL_ADJTOPLFT#, TYPE=BITCND);
      310+   10118        %KV_PARM (ID=KV_PRMID_TRMTAB, TYPE=SHRBFR, STR=MRD, OFFSET=KV$MRD_TRMTAB$#,
      311+   10119                 BFRTYP=KV_STRTYP_TRMTAB, BFRLNG=1);
      312+   10159        %KV_PARM (ID=KV_PRMID_TRNUSRINPFNC, TYPE=BIT, STR=STR, OFFSET=KV$STR_TRNUSRINPFNC#);
      313+   10199        %KV_PARM (ID=KV_PRMID_TRUNCATE, TYPE=BIT, STR=SRD, OFFSET=KV$SRD_TRUNCATE#);
      314+   10239        %KV_PARM (ID=KV_PRMID_TRUOVRPRT, TYPE=BIT, STR=MRD, OFFSET=KV$MRD_TRUOVRPRT#);
      315+   10279        %KV_PARM (ID=KV_PRMID_TTYTYPE, TYPE=BIT, STR=MRD, OFFSET=KV$MRD_TTYTYPE#);
      316+   10319        %KV_PARM (ID=KV_PRMID_UPPERCASE, TYPE=BIT, STR=MVD, OFFSET=KV$MVD_UPPERCASE#);
      317+   10359        %KV_PARM (ID=KV_PRMID_USRHLTINH, TYPE=BIT, STR=SSN, OFFSET=KV$SSN_USRHLTINH#);
      318+   10399        %KV_PARM (ID=KV_PRMID_VBRDCHR, TYPE=BYTE, STR=SRD, OFFSET=KV$SRD_VBRDCHR#,
      319+   10400                 MIN=32, MAX=255);
      320+   10440        %KV_PARM (ID=KV_PRMID_VBRDSIZ, TYPE=BYTE, STR=SRD, OFFSET=KV$SRD_VBRDSIZ#-4,
      321+   10441                  MIN=1, MAX=15);
      322+   10481        %KV_PARM (ID=KV_PRMID_VFU, TYPE=SHRBFR, STR=MVD, OFFSET=KV$MVD_VFU$#,
      323+   10482                 BFRTYP=KV_STRTYP_VFU, BFRLNG=32);
      324+   10522        %KV_PARM (ID=KV_PRMID_VRTSCRMRG, TYPE=BYTE, STR=SVD, OFFSET=KV$RCRLST_VRTSCRMRG#);
      325+   10562        %KV_PARM (ID=KV_PRMID_VRTSCRSHF, TYPE=BYTE, STR=SVD, OFFSET=KV$RCRLST_VRTSCRSHF#);
      326+   10602        %KV_PARM (ID=KV_PRMID_WINDOW, TYPE=STRUCT, MAX="(WINDOW_REMOVABLE#+8)");
      327+   10661           %KV_SUBSTR (ID=KV_PRMID_WINDOW, TYPE=OTHER); /* Create it first */
      328+   10681           %KV_SUBSTR (ID=KV_PRMID_MINLNG, OFFSET=WINDOW_MINLENGTH#, TYPE=BYTCND);
PL6.E3A0      #001=KVP_CNST_D File=kvp_cnst_d.:TCA2TSI                           SUN 11/16/97 14:36 Page:11
      329+   10701           %KV_SUBSTR (ID=KV_PRMID_MINWDT, OFFSET=WINDOW_MINWIDTH#, TYPE=BYTCND);
      330+   10721           %KV_SUBSTR (ID=KV_PRMID_TOPBRD, OFFSET=WINDOW_TOPBRDR#, TYPE=BITCND);
      331+   10741           %KV_SUBSTR (ID=KV_PRMID_BTMBRD, OFFSET=WINDOW_BTMBRDR#, TYPE=BITCND);
      332+   10761           %KV_SUBSTR (ID=KV_PRMID_HBRDCHR, OFFSET=WINDOW_HBRDRCHR#, TYPE=BYT);
      333+   10781           %KV_SUBSTR (ID=KV_PRMID_LFTBRD, OFFSET=WINDOW_LFTBRDR#, TYPE=BITCND);
      334+   10801           %KV_SUBSTR (ID=KV_PRMID_RHTBRD, OFFSET=WINDOW_RHTBRDR#, TYPE=BITCND);
      335+   10821           %KV_SUBSTR (ID=KV_PRMID_VBRDCHR, OFFSET=WINDOW_VBRDRCHR#, TYPE=BYT);
      336+   10841           %KV_SUBSTR (ID=KV_PRMID_SRDOPT, OFFSET=WINDOW_REMOVABLE#, TYPE=BITCND);
      337+   10861           %KV_SUBSTR (ID=KV_PRMID_HBRDSIZ, OFFSET=WINDOW_HBRDRSIZ#, TYPE=BIN4);
      338+   10881           %KV_SUBSTR (ID=KV_PRMID_VBRDSIZ, OFFSET=WINDOW_VBRDRSIZ#, TYPE=BIN4);
      339+   10901           %KV_SUBSTR (ID=KV_PRMID_SRDOPT, TYPE=OTHER); /* Fix the screen if BRDUPD */
      340+   10921        %KV_PARM (ID=KV_PRMID_WRDWRP, TYPE=BIT, STR=STR, OFFSET=KV$STR_WRDWRP#);
      341+   10961        %KV_PARM (ID=KV_PRMID_WRDWRPCLM, TYPE=BYTE, STR=STR, OFFSET=KV$STR_WRDWRPCLM#);
      342+   11001        %KV_PARM (ID=KV_PRMID_WRPPAG, TYPE=BIT, STR=SRD, OFFSET=KV$SRD_WRPPAG#);
      343+   11041        %KV_END_PARMS;
             11067    1   DCL KV_PRMTBL_IDS CONSTANT SYMDEF CHAR(0)INIT('  \K:qL&6k  rnW |4l5` g  , jhi ofD>-%
             11067    1   N      1}+8 _IJ^   "   u 7 $#m     	Hs*'9V { zy  ] ~bU(;e vFCPtE caQw3X d .[ZR M   O
             11067          S B  A@0   	)TpxGY    ! /  ');DCL KV_PRMTBL_TYPE CONSTANT SYMDEF CHAR(0)INIT('
             11067
             11067                                                                      ');DCL
             11068    1   KV_PRMTBL_INDX CONSTANT SYMDEF CHAR(0)INIT('
             11068    1               !  "#	  $%&''  () * ''+,-  .  /   012  34567 89:; <)=	>?@ 0A2B  C DE5DFG
             11068        HIJJK LMNOOx PQRSTU     #V W');DCL 1 KV_WHERE CONSTANT SYMDEF,2 * CHAR(0)INIT('  p 1
             11068        H`|  Ajq   qsq}qnaC"xqr  q~q   qoqpqq  qyqvAXAiAY`xPZq q       AmPOqkAl 	p qwaRq q	A
             11068        Zqj _  #y#z    aPqhPhqtql" A[`j Q  `hq{`}quAx`iAhaS`l  p AnA\a@A]A^PYaB1h`mqxq|A_" 1
             11068        i`o'),2 * CHAR(0)INIT
             11069    1   ('0< J <08p p+@;`9`8@/@,P P @)@9p, K`=`<p*p @(@  207060 `;`:P P 0:'),2 * CHAR(0)INIT
             11069            ('0 @ p @ 0 ` @ @ 0 p 0   p @ ');DCL KV_WHROFFS(0:7)CONSTANT SYMDEF UBIN
             11072    1   INIT(0,0,88,120,88,120,0,0);DCL KV_MIN CONSTANT SYMDEF CHAR(0)INIT(
             11072            '                                                                ');DCL KV_MAX
             11072            CONSTANT SYMDEF
             11073    1   CHAR(0)INIT('                                                                ');DCL
             11073            KV_BFRLNG CONSTANT SYMDEF CHAR(0)INIT('  R           ');DCL KV_BFRTYP CONSTANT
             11073            SYMDEF CHAR(0)INIT('              ');
             11076    1   DCL 1 KV_STRS CONSTANT SYMDEF,2 * CHAR(0)INIT('                        @
             11076    1    @  @ $        0  $          0 0 0 0 0   @    ''            0     0              0 1
             11076    1    2 3 4 5 6 7 8                @ @ 0                                      "0% ( * , .
PL6.E3A0      #001=KVP_CNST_D File=kvp_cnst_d.:TCA2TSI                           SUN 11/16/97 14:36 Page:12
             11076         $     	  0 0  4 2 \0]   6   X p Z                '),2 * CHAR(0)INIT('     " $ & (
             11076                     , .     B D J H @     * F K       p r v t x  @      ` b   p r    @d@t@
             11076          ');DCL KV_STRID CONSTANT SYMDEF CHAR(0)INIT
             11077    1   ('           . "01# !$; >Y[Z\ ]^_9`abc      ~   * a >X >     /T )KDU3       >    def
             11077        ghijklmnopqrs 	tuvwx yz{`|}(&=%',-+89 DEFIJKMNOPQRS@ABCGHLU VW  =    T ) / 3567:
             11077                   ');
       18    11080    1   DCL 1 KV_PRMTBL_IDSZ CONSTANT SYMDEF,
       19    11081    1          2 * BIT(8) INIT('0'B), 2 * UBIN(8) UNAL INIT(SIZEC(KV_PRMTBL_IDS));
       20    11082    1   DCL KV_PTR_OFFSETS(0:7) CONSTANT SYMDEF SBIN
       21    11083    1    INIT(0,0/*VDI*/,2/*SSN*/,4/*STR*/,6/*MVD*/,14/*SVD*/,10/*SRD*/,8/*MRD*/);
       22    11084        %IF '0'B;
       34    11096        %ENDIF;
       35    11097    1   END KVP_CNST_D;

PL6.E3A0      #001=KVP_CNST_D File=kvp_cnst_d.:TCA2TSI                           SUN 11/16/97 14:36 Page:13
--  Include file information  --

   KV_PRMTBL_M.:TOOLE05  is referenced.
   KV_PRMTBL_E.:TOOLE05  is referenced.
   KV_PRMTBL_D.:LIBRARY  cannot be made into a system file and is referenced.
   KV_PRMID_E.:LIBRARY  is referenced.
   KV_GLBCNS_E.:LIBRARY  is referenced.
      No diagnostics issued in procedure KVP_CNST_D.

   No code generated for procedure KVP_CNST_D .
   Procedure KVP_CNST_D requires 4 words of local(AUTO) storage.

    No errors detected in file kvp_cnst_d.:TCA2TSI    .

PL6.E3A0      #001=KVP_CNST_D File=kvp_cnst_d.:TCA2TSI                           SUN 11/16/97 14:36 Page:14

 Object Unit name= KVP_CNST_D                                 File name= kvp_cnst_d.:TCA2TOU
 UTS= NOV 16 '97 14:36:16.96 SUN                              Compiler= PL-6/E31         Sev=      00
 SharedLib= :SHARED_LCP6_SYSTEM                               Alt SharedLib=


    ****  Control sections  ****

 Sect   Type Bound  Init  Size HexSiz  Section name
    0  RoData even  UTS    720    2D0  KVP_CNST_D
    1   Proc  even  none     0      0  KVP_CNST_D

    ****  Entry defs  ****

                              Check   Calling
                             calling  sequence
  Sect HexLoc Primary Altret sequence   type   Parms  Name
     1      0   yes            yes     ~proc       0  KVP_CNST_D

  ****  Data defs  ****

 Sect HexLoc  Name                           Sect HexLoc  Name
    0      0  KV_PRMTBL_IDS                      0     4B  KV_PRMTBL_TYPE
    0     96  KV_PRMTBL_INDX                     0     E1  KV_WHERE
    0    167  KV_WHROFFS                         0    16F  KV_MIN
    0    18F  KV_MAX                             0    1AF  KV_BFRLNG
    0    1B6  KV_BFRTYP                          0    1BD  KV_STRS
    0    26E  KV_STRID                           0    2C7  KV_PRMTBL_IDSZ
    0    2C8  KV_PTR_OFFSETS

  ****  Data refs  ****

  Flags:  r = read only, s = secondary
Flgs Name                             Flgs Name                             Flgs Name
r    G$ROS$
PL6.E3A0      #001=KVP_CNST_D File=kvp_cnst_d.:TCA2TSI                           SUN 11/16/97 14:36 Page:15

        1        1        /*M* KVP_CNST_D - Constant data for the UNIX version.   */
        2        2        /*T***********************************************************/
        3        3        /*T*                                                         */
        4        4        /*T* Copyright (c) Bull HN Information Systems Inc., 1997    */
        5        5        /*T*                                                         */
        6        6        /*T***********************************************************/
        7        7        /*X*     NSO,PLM=3,SQB=Y,AND=Y,ENI=0,SDI=3,MCL=10,CSI=0,ECI=0,IND=0,IAD=3 */
        8        8        KVP_CNST_D: PROC;
        9        9        /* INCLU DES */
       10       10        %INCLUDE KV_GLBCNS_E;
       11      351        %KV_STRTYP_E;
       12      389        %INCLUDE KV_PRMID_E;
       13      563        %KV_PRMID_E;
       14      719        %KV_SCP_E;
       15      729        %EJECT;
PL6.E3A0      #001=KVP_CNST_D File=kvp_cnst_d.:TCA2TSI                           SUN 11/16/97 14:36 Page:16
       16      730        %SUB CVERSION=1;
       17      731        %INCLUDE KV_PRMTBL_D;                   /* Generate the driver tables         */
       11+    1515        %KV_PARM (ID=KV_PRMID_3270, TYPE=OTHER);
       12+    1555        %KV_PARM (ID=KV_PRMID_ABSGRPRND, TYPE=OTHER, STR=MRD);
       13+    1595        %KV_PARM (ID=KV_PRMID_ACTCHRSET, TYPE=SHRBFR, STR=STR, OFFSET=KV$STR_ACTCHRTBL$#,
       14+    1596                 BFRTYP=KV_STRTYP_ACTCHR, BFRLNG=32);
       15+    1636        %KV_PARM (ID=KV_PRMID_ACTONTRN, TYPE=BIT, STR=STR, OFFSET=KV$STR_ACTONTRN#);
       16+    1676        %KV_PARM (ID=KV_PRMID_ADJTOPLFT, TYPE=BIT, STR=SRD, OFFSET=KV$SRD_ADJTOPLFT#);
       17+    1716        %KV_PARM (ID=KV_PRMID_APL, TYPE=OTHER);
       18+    1756        %KV_PARM (ID=KV_PRMID_APLLCNRM, TYPE=BIT, STR=MVD, OFFSET=KV$MVD_APLLCNRM#);
       19+    1796        %KV_PARM (ID=KV_PRMID_ATRSCRNPOS, TYPE=BIT, STR=MRD, OFFSET=KV$MRD_ATRRQRDSPPST#);
       20+    1836        %KV_PARM (ID=KV_PRMID_AUTCRS, TYPE=BIT, STR=VDI, OFFSET=KV$VDI_AUTCRS#);
       21+    1876        %KV_PARM (ID=KV_PRMID_AUTONL, TYPE=BIT, STR=MRD, OFFSET=KV$MRD_AUTONL#);
       22+    1916        %KV_PARM (ID=KV_PRMID_AUTSAV, TYPE=STRLST);
       23+    1975           %KV_SUBSTR (ID=KV_PRMID_TRMCTL, OFFSET=8); /* Skip the first 8             */
       24+    1995           %KV_SUBSTR (ID=KV_PRMID_PROMPT);
       25+    2015           %KV_SUBSTR (ID=KV_PRMID_EOM);
       26+    2035           %KV_SUBSTR (ID=KV_PRMID_SINPUT);
       27+    2055           %KV_SUBSTR (ID=KV_PRMID_INPTAB);
       28+    2075           %KV_SUBSTR (ID=KV_PRMID_PLATEN);
       29+    2095           %KV_SUBSTR (ID=KV_PRMID_DCBHDR);
       30+    2115           %KV_SUBSTR (ID=KV_PRMID_SSNHDR);
       31+    2135        %KV_PARM (ID=KV_PRMID_AUTTABCLM, TYPE=BYTE, STR=STR, OFFSET=KV$STR_AUTTABCLM#);
       32+    2175        %KV_PARM (ID=KV_PRMID_BIN, TYPE=BIT, STR=MRD, OFFSET=KV$MRD_BIN#);
       33+    2215        %KV_PARM (ID=KV_PRMID_BLANKERASES, TYPE=BIT, STR=MRD, OFFSET=KV$MRD_BLANKERASES#);
       34+    2255        %KV_PARM (ID=KV_PRMID_BRKCNT, TYPE=BYTE, STR=SSN, OFFSET=KV$SSN_BRKCNT#, MAX=3);
       35+    2295        %KV_PARM (ID=KV_PRMID_BTMBRD, TYPE=BIT, STR=SRD, OFFSET=KV$SRD_BTMBRD#);
       36+    2335        %KV_PARM (ID=KV_PRMID_CHARSETNAME, TYPE=SHRBFR, STR=MVD, OFFSET=KV$MVD_TRNTBL$#,
       37+    2336                 BFRTYP=KV_STRTYP_TRNTBL, BFRLNG=8);
       38+    2376        %KV_PARM (ID=KV_PRMID_CHNCAS, TYPE=BIT, STR=SSN, OFFSET=KV$SSN_CHNCAS#);
       39+    2416        %KV_PARM (ID=KV_PRMID_CRISNL, TYPE=BIT, STR=MRD, OFFSET=KV$MRD_CRISNL#);
       40+    2456        %KV_PARM (ID=KV_PRMID_CRSRED, TYPE=BIT, STR=VDI, OFFSET=KV$VDI_CRSRED#);
       41+    2496       %KV_PARM (ID=KV_PRMID_CRTLINSPD, TYPE=BYTE, STR=VDI, OFFSET=KV$VDI_LINSPD#, MAX=15);
       42+    2536        %KV_PARM (ID=KV_PRMID_CTRCHR, TYPE=SHRBFR, STR=MRD, OFFSET=KV$MRD_ERD$#,
       43+    2537                 BFRTYP=KV_STRTYP_ERD, BFRLNG=KV$ERD_TXT#/8-8);
       44+    2577        %KV_PARM (ID=KV_PRMID_CURSORUP, TYPE=BIT, STR=MRD, OFFSET=KV$MRD_CURSORUP#);
       45+    2617        %KV_PARM (ID=KV_PRMID_DADR, TYPE=STRUCT);
PL6.E3A0      #001=KVP_CNST_D File=kvp_cnst_d.:TCA2TSI                           SUN 11/16/97 14:36 Page:17
       46+    2676        %KV_PARM (ID=KV_PRMID_DCBHDR, TYPE=SHRBFR, STR=MVD, OFFSET=KV$MVD_DCBHDN$#,
       47+    2677                 BFRTYP=KV_STRTYP_DCBHDN, BFRLNG=6);
       48+    2717        %KV_PARM (ID=KV_PRMID_DCHMOVFLD, TYPE=BIT, STR=MRD, OFFSET=KV$MRD_DCHMOVFLD#);
       49+    2757        %KV_PARM (ID=KV_PRMID_DEVCTL, TYPE=OTHER);
       50+    2797        %KV_PARM (ID=KV_PRMID_DEVICEBS, TYPE=BIT, STR=MRD, OFFSET=KV$MRD_DEVICEBS#);
       51+    2837        %KV_PARM (ID=KV_PRMID_DEVICECR, TYPE=BIT, STR=MRD, OFFSET=KV$MRD_DEVICECR#);
       52+    2877        %KV_PARM (ID=KV_PRMID_DEVICELF, TYPE=BIT, STR=MRD, OFFSET=KV$MRD_DEVICELF#);
       53+    2917        %KV_PARM (ID=KV_PRMID_DEVNUM, TYPE=OTHER);
       54+    2957        %KV_PARM (ID=KV_PRMID_DEVPOSOPTS, TYPE=BIT, STR=MRD, OFFSET=KV$MRD_DEVPOSOPTS#);
       55+    2997        %KV_PARM (ID=KV_PRMID_DEVSCROLL, TYPE=BIT, STR=MRD, OFFSET=KV$MRD_DEVSCROLL#);
       56+    3037        %KV_PARM (ID=KV_PRMID_DISPINPUT, TYPE=BIT, STR=MVD, OFFSET=KV$MVD_DISPINPUT#);
       57+    3077        %KV_PARM (ID=KV_PRMID_DMN, TYPE=BYTE, STR=STR, OFFSET=KV$STR_ID#,
       58+    3078                 MIN=256, MAX=0);
       59+    3118        %KV_PARM (ID=KV_PRMID_DSPHEIGHT, TYPE=BYTE, STR=MRD, OFFSET=KV$MRD_DSPHEIGHT#);
       60+    3158        %KV_PARM (ID=KV_PRMID_DVCFLWCTRALG, STR=MRD, OFFSET=KV$MRD_DVCFLWCTRALG#,
       61+    3159                 TYPE=BYTE, MAX=3);
       62+    3199        %KV_PARM (ID=KV_PRMID_EDITOVR, TYPE=BIT, STR=MVD, OFFSET=KV$MVD_EDITOVR#);
       63+    3239        %KV_PARM (ID=KV_PRMID_EDTBFR, TYPE=SHRBFR, STR=STR, OFFSET=KV$STR_EDTBFR__#,
       64+    3240                 BFRTYP=KV_STRTYP_REDBFR, BFRLNG=0);
       65+    3280        %KV_PARM (ID=KV_PRMID_EDTCTL, TYPE=STRUCT, MAX="(EDTCTL_ONESPACEEDIT#+16)");
       66+    3339           %KV_SUBSTR (ID=KV_PRMID_RCRWRAP, OFFSET=EDTCTL_RCRWRAP#, TYPE=BITCND);
       67+    3359           %KV_SUBSTR (ID=KV_PRMID_EDTCTL, TYPE=OTHER); /* Only for ORG=SE */
       68+    3379           %KV_SUBSTR (ID=KV_PRMID_HRZSCRALL, OFFSET=EDTCTL_HSALL#, TYPE=BITCND);
       69+    3399           %KV_SUBSTR (ID=KV_PRMID_TEXTEDIT, OFFSET=EDTCTL_TEXTEDIT#, TYPE=BITCND);
       70+    3419           %KV_SUBSTR (ID=KV_PRMID_EASYAPPEND, OFFSET=EDTCTL_EASYAPPEND#, TYPE=BITCND);
       71+    3439           %KV_SUBSTR (ID=KV_PRMID_KEYTYP, OFFSET=EDTCTL_KEYTYPE#, TYPE=BYTCND);
       72+    3459           %KV_SUBSTR (ID=KV_PRMID_VRTSCRMRG, OFFSET=EDTCTL_VSMARGIN#, TYPE=BYTCND);
       73+    3479           %KV_SUBSTR (ID=KV_PRMID_VRTSCRSHF, OFFSET=EDTCTL_VSSHIFT#, TYPE=BYTCND);
       74+    3499           %KV_SUBSTR (ID=KV_PRMID_KEYINC, OFFSET=EDTCTL_KEYINCR#, TYPE=OTHER);
       75+    3519           %KV_SUBSTR (ID=KV_PRMID_ONESPCEDT, OFFSET=EDTCTL_ONESPACEEDIT#, TYPE=BITCND);
       76+    3539        %KV_PARM (ID=KV_PRMID_EDTRHT, TYPE=BIT, STR=MVD, OFFSET=KV$MVD_EDTRHT#);
       77+    3579        %KV_PARM (ID=KV_PRMID_ENBENTEXTSRDCHR, TYPE=BIT, STR=SRD, OFFSET=
              3579            KV$SRD_ENBENTEXTSRDCHR#);
       78+    3619        %KV_PARM (ID=KV_PRMID_ENTSRDCHR, TYPE=SHRBFR, STR=SRD, OFFSET=KV$SRD_ENTSRDCHR$#,
       79+    3620                 BFRTYP=KV_STRTYP_ENTSRD, BFRLNG=1);
       80+    3660        %KV_PARM (ID=KV_PRMID_EOM, TYPE=STRUCT, MAX=EOM_SIZE#);
       81+    3719           %KV_SUBSTR (ID=KV_PRMID_DMN, OFFSET=EOM_DMN#, TYPE=BYT);
PL6.E3A0      #001=KVP_CNST_D File=kvp_cnst_d.:TCA2TSI                           SUN 11/16/97 14:36 Page:18
       82+    3739           %KV_SUBSTR (ID=KV_PRMID_USRHLTINH, OFFSET=EOM_SUPPHALT#, TYPE=BIT);
       83+    3759           %KV_SUBSTR (ID=KV_PRMID_REDTIMOUTPRD, OFFSET=EOM_TIMEOUT#, TYPE=BYTCND);
       84+    3779           %KV_SUBSTR (ID=KV_PRMID_REDTIMOUTPRDUNT, OFFSET=EOM_UTYPE#, TYPE=BIN2);
       85+    3799           %KV_SUBSTR (ID=KV_PRMID_ACTCHRSET, OFFSET=EOM_TABLE#, TYPE=BFR);
       86+    3819        %KV_PARM (ID=KV_PRMID_EASYAPPEND, TYPE=BIT, STR=SVD, OFFSET=KV$RCRLST_ESYAPP#);
       87+    3859        %KV_PARM (ID=KV_PRMID_FCNTBL, STR=MVD, OFFSET=KV$MVD_SSTINPFNCTBL$#,
       88+    3860                 TYPE=SHRBFR, BFRTYP=KV_STRTYP_SSTINPFNCTBL, BFRLNG=8);
       89+    3900        %KV_PARM (ID=KV_PRMID_FF_FLUSH, TYPE=BIT, STR=MRD, OFFSET=KV$MRD_FF_FLUSH#);
       90+    3940        %KV_PARM (ID=KV_PRMID_FF_INCCR, TYPE=BIT, STR=MRD, OFFSET=KV$MRD_FF_INCCR#);
       91+    3980        %KV_PARM (ID=KV_PRMID_FIRSTLINE, TYPE=BYTE, STR=MVD, OFFSET=KV$MVD_FRSLIN#);
       92+    4020        %KV_PARM (ID=KV_PRMID_FOREIGN, TYPE=USRPRM);
       93+    4060        %KV_PARM (ID=KV_PRMID_FULLDUPLEXPAPERTAPE, TYPE=BIT, STR=VDI, OFFSET=
              4060            KV$VDI_FULLDUPLEXPAPERTAPE#);
       94+    4100        %KV_PARM (ID=KV_PRMID_HALFDUPLEXPAPERTAPE, TYPE=BIT, STR=VDI, OFFSET=
              4100            KV$VDI_HALFDUPLEXPAPERTAPE#);
       95+    4140        %KV_PARM (ID=KV_PRMID_HARDWIRE, TYPE=OTHER);
       96+    4180        %KV_PARM (ID=KV_PRMID_HBRDCHR, TYPE=BYTE, STR=SRD, OFFSET=KV$SRD_HBRDCHR#,
       97+    4181                 MIN=32, MAX=255);
       98+    4221        %KV_PARM (ID=KV_PRMID_HBRDSIZ, TYPE=BYTE, STR=SRD, OFFSET=KV$SRD_HBRDSIZ#-4,
       99+    4222                  MIN=1, MAX=15);
      100+    4262        %KV_PARM (ID=KV_PRMID_HRZSCR, TYPE=BIT, STR=MVD, OFFSET=KV$MVD_HRZSCR#);
      101+    4302        %KV_PARM (ID=KV_PRMID_HRZSCRALL, TYPE=BIT, STR=SVD, OFFSET=KV$RCRLST_HRZSCRALL#);
      102+    4342        %KV_PARM (ID=KV_PRMID_HRZSCRMRG, TYPE=BYTE, STR=MVD, OFFSET=KV$MVD_HRZSCRMRGINT#);
      103+    4382        %KV_PARM (ID=KV_PRMID_HRZSCRSHF, TYPE=BYTE, STR=MVD, OFFSET=KV$MVD_HRZSCRSHF#);
      104+    4422        %KV_PARM (ID=KV_PRMID_INPTAB, TYPE=SHRBFR, STR=MVD, OFFSET=KV$MVD_INPTAB$#,
      105+    4423                 BFRTYP=KV_STRTYP_INPTAB, BFRLNG=1);
      106+    4463        %KV_PARM (ID=KV_PRMID_INPUT, TYPE=BIT, STR=MRD, OFFSET=KV$MRD_INPUT#);
      107+    4503        %KV_PARM (ID=KV_PRMID_INSMOD, TYPE=BIT, STR=MVD, OFFSET=KV$MVD_INSMOD#);
      108+    4543        %KV_PARM (ID=KV_PRMID_KEPTYP, TYPE=BIT, STR=VDI, OFFSET=KV$VDI_KEPTYP#);
      109+    4583        %KV_PARM (ID=KV_PRMID_KEYDEFS, TYPE=OTHER, STR=MRD);
      110+    4623        %KV_PARM (ID=KV_PRMID_KEYINC, TYPE=WORD, STR=SVD, OFFSET=KV$RCRLST_KEYINC#,
      111+    4624                 MAX=65535, MIN=1);
      112+    4664        %KV_PARM (ID=KV_PRMID_KEYTYP, TYPE=BYTE, STR=SVD, OFFSET=KV$RCRLST_KEYTYP#);
      113+    4704        %KV_PARM (ID=KV_PRMID_LFISNL, TYPE=BIT, STR=MRD, OFFSET=KV$MRD_LFISNL#);
      114+    4744        %KV_PARM (ID=KV_PRMID_LFTBRD, TYPE=BIT, STR=SRD, OFFSET=KV$SRD_LFTBRD#);
      115+    4784        %KV_PARM (ID=KV_PRMID_LIMBO, TYPE=BYTE, STR=MVD, OFFSET=KV$MVD_LMB#);
      116+    4824        %KV_PARM (ID=KV_PRMID_LIMBOCLM, TYPE=BIT, STR=MRD, OFFSET=KV$MRD_LIMBOCLM#);
PL6.E3A0      #001=KVP_CNST_D File=kvp_cnst_d.:TCA2TSI                           SUN 11/16/97 14:36 Page:19
      117+    4864        %KV_PARM (ID=KV_PRMID_LINEATTR, TYPE=STRUCT, MAX="(LINEATTR_DEVICE#+32)");
      118+    4923           %KV_SUBSTR (ID=KV_PRMID_MULTIDEVICE, OFFSET=LINEATTR_MULTIDEVICE#, TYPE=BIT);
      119+    4943           %KV_SUBSTR (ID=KV_PRMID_HARDWIRE, OFFSET=LINEATTR_HARDWIRE#, TYPE=BIT);
      120+    4963           %KV_SUBSTR (ID=KV_PRMID_FOREIGN, OFFSET=LINEATTR_FOREIGN#, TYPE=BIT);
      121+    4983           %KV_SUBSTR (ID=KV_PRMID_MCRFPL, OFFSET=LINEATTR_MICROFPL#, TYPE=BIT);
      122+    5003           %KV_SUBSTR (ID=KV_PRMID_CRTLINSPD, OFFSET=LINEATTR_LINESPEED#, TYPE=BYT);
      123+    5023           %KV_SUBSTR (ID=KV_PRMID_PRFNAM, OFFSET=LINEATTR_PROFILE#, TYPE=BFR);
      124+    5043           %KV_SUBSTR (ID=KV_PRMID_NODE, OFFSET=LINEATTR_NODE#, TYPE=BFR);
      125+    5063           %KV_SUBSTR (ID=KV_PRMID_PORT, OFFSET=LINEATTR_PORT#, TYPE=BFR);
      126+    5083           %KV_SUBSTR (ID=KV_PRMID_DEVCTL, OFFSET=LINEATTR_CONTROLLER#, TYPE=BFR);
      127+    5103           %KV_SUBSTR (ID=KV_PRMID_DEVNUM, OFFSET=LINEATTR_DEVICE#, TYPE=BFR);
      128+    5123        %KV_PARM (ID=KV_PRMID_LINES, TYPE=STRUCT, MAX=16*2);
      129+    5182           %KV_SUBSTR (ID=KV_PRMID_LINES, TYPE=OTHER);
      130+    5202        %KV_PARM (ID=KV_PRMID_LOCALECHO, TYPE=BIT, STR=MRD, OFFSET=KV$MRD_LOCALECHO#);
      131+    5242        %KV_PARM (ID=KV_PRMID_LOWERCASE, TYPE=BIT, STR=MVD, OFFSET=KV$MVD_LOWERCASE#);
      132+    5282        %KV_PARM (ID=KV_PRMID_LOWERCASEPRINTS, TYPE=BIT, STR=MRD, OFFSET=
              5282            KV$MRD_LOWERCASEPRINTS#);
      133+    5322        %KV_PARM (ID=KV_PRMID_LPI, TYPE=BYTE, STR=MVD, OFFSET=KV$MVD_LPI#);
      134+    5362        %KV_PARM (ID=KV_PRMID_MAXATRS, TYPE=BYTE, STR=MRD, OFFSET=KV$MRD_MAXATRPERLIN#);
      135+    5402        %KV_PARM (ID=KV_PRMID_MCRFPL, TYPE=BIT, STR=VDI, OFFSET=KV$VDI_MCRFPL#);
      136+    5442       %KV_PARM (ID=KV_PRMID_MINEDTBFRSIZ, TYPE=BYTE, STR=SSN, OFFSET=KV$SSN_MINEDTBFRSIZ#)
              5442            ;
      137+    5482        %KV_PARM (ID=KV_PRMID_MINLNG, TYPE=BYTE, STR=SRD, OFFSET=KV$SRD_MINLNG#);
      138+    5522        %KV_PARM (ID=KV_PRMID_MINREC, TYPE=OTHER);
      139+    5562        %KV_PARM (ID=KV_PRMID_MINWDT, TYPE=BYTE, STR=SRD, OFFSET=KV$SRD_MINWDT#);
      140+    5602        %KV_PARM (ID=KV_PRMID_MRDLNG, TYPE=BYTE, STR=MRD, OFFSET=KV$MRD_LNG#);
      141+    5642        %KV_PARM (ID=KV_PRMID_MRDWDT, TYPE=WORD, STR=MRD, OFFSET=KV$MRD_WDT#, MIN=1);
      142+    5682        %KV_PARM (ID=KV_PRMID_MSGHLT, TYPE=BIT, STR=SSN, OFFSET=KV$SSN_MSGHLT#);
      143+    5722        %KV_PARM (ID=KV_PRMID_MSGLIN, TYPE=BIT, STR=SSN, OFFSET=KV$SSN_MSGLIN#);
      144+    5762        %KV_PARM (ID=KV_PRMID_MULTIDEVICE, TYPE=OTHER);
      145+    5802        %KV_PARM (ID=KV_PRMID_MVDLNG, TYPE=BYTE, STR=MVD, OFFSET=KV$MVD_LNG#);
      146+    5842        %KV_PARM (ID=KV_PRMID_MVDWDT, TYPE=WORD, STR=MVD, OFFSET=KV$MVD_WDT#, MIN=1);
      147+    5882        %KV_PARM (ID=KV_PRMID_NODE, TYPE=OTHER);
      148+    5922        %KV_PARM (ID=KV_PRMID_NOOPTMIZ, TYPE=BIT, STR=SRD, OFFSET=KV$SRD_NOOPTMIZ#);
      149+    5962        %KV_PARM (ID=KV_PRMID_NO_FLDTRM, TYPE=BIT, STR=MRD, OFFSET=KV$MRD_NO_FLDTRM#);
      150+    6002        %KV_PARM (ID=KV_PRMID_ONESPCEDT, TYPE=BIT, STR=SVD, OFFSET=KV$RCRLST_ONESPCEDT#);
      151+    6042        %KV_PARM (ID=KV_PRMID_OPDTAB, TYPE=BIT, STR=MRD, OFFSET=KV$MRD_OPDTAB#);
PL6.E3A0      #001=KVP_CNST_D File=kvp_cnst_d.:TCA2TSI                           SUN 11/16/97 14:36 Page:20
      152+    6082        %KV_PARM (ID=KV_PRMID_OTPTAB, TYPE=SHRBFR, STR=STR, OFFSET=KV$STR_OTPTAB$#,
      153+    6083                 BFRTYP=KV_STRTYP_OTPTAB, BFRLNG=1);
      154+    6123        %KV_PARM (ID=KV_PRMID_OUTPUT, TYPE=BIT, STR=MRD, OFFSET=KV$MRD_OUTPUT#);
      155+    6163       %KV_PARM (ID=KV_PRMID_OUTPUTDISCARD, TYPE=BIT, STR=SSN, OFFSET=KV$SSN_OUTPUTDISCARD#
              6163            );
      156+    6203        %KV_PARM (ID=KV_PRMID_OVRSTR, TYPE=BIT, STR=MVD, OFFSET=KV$MVD_OVRSTR#);
      157+    6243        %KV_PARM (ID=KV_PRMID_PAGEHALT, TYPE=BIT, STR=SRD, OFFSET=KV$SRD_PAGEHALT#);
      158+    6283        %KV_PARM (ID=KV_PRMID_PARITY, TYPE=BYTE, STR=VDI, OFFSET=KV$VDI_PRTTYP#, MAX=4);
      159+    6323        %KV_PARM (ID=KV_PRMID_PARITYCHECK, TYPE=BIT, STR=VDI, OFFSET=KV$VDI_PRTCHK#);
      160+    6363        %KV_PARM (ID=KV_PRMID_PLATEN, TYPE=STRUCT, MAX="(PLATEN_LPI#+8)");
      161+    6422           %KV_SUBSTR (ID=1, OFFSET=PLATEN_EXTWID#, TYPE=EXTBIT);
      162+    6442           %KV_SUBSTR (ID=KV_PRMID_MVDWDT, OFFSET=PLATEN_WIDTH#, TYPE=BYTCND);
      163+    6462           %KV_SUBSTR (ID=KV_PRMID_MVDLNG, OFFSET=PLATEN_LENGTH#, TYPE=BYTCND);
      164+    6482           %KV_SUBSTR (ID=KV_PRMID_LIMBO, OFFSET=PLATEN_LIMBO#, TYPE=BYTCND);
      165+    6502           %KV_SUBSTR (ID=KV_PRMID_FIRSTLINE, OFFSET=PLATEN_FIRSTLINE#, TYPE=BYTCND);
      166+    6522           %KV_SUBSTR (ID=KV_PRMID_LPI, OFFSET=PLATEN_LPI#, TYPE=BYTCND);
      167+    6542        %KV_PARM (ID=KV_PRMID_PORT, TYPE=OTHER);
      168+    6582        %KV_PARM (ID=KV_PRMID_PRFNAM, TYPE=TEXT, STR=MRD, OFFSET=KV$MRD_PRFNAM#,
      169+    6583                 BFRLNG=12);
      170+    6623        %KV_PARM (ID=KV_PRMID_PRINTHALT, TYPE=BIT, STR=SRD, OFFSET=KV$SRD_PRINTHALT#);
      171+    6663        %KV_PARM (ID=KV_PRMID_PRINTTYPE, TYPE=BIT, STR=MRD, OFFSET=KV$MRD_PRINTTYPE#);
      172+    6703        %KV_PARM (ID=KV_PRMID_PRKCRS, TYPE=BIT, STR=SRD, OFFSET=KV$SRD_PRKCRS#);
      173+    6743        %KV_PARM (ID=KV_PRMID_PRM, TYPE=SHRBFR, STR=STR, OFFSET=KV$STR_PRM$#,
      174+    6744                 BFRTYP=KV_STRTYP_PRM, BFRLNG=1);
      175+    6784        %KV_PARM (ID=KV_PRMID_PROFILE, TYPE=STRUCT);
      176+    6843           %KV_SUBSTR (ID=KV_PRMID_PRFNAM, OFFSET=0, TYPE=BFR);
      177+    6863        %KV_PARM (ID=KV_PRMID_PROGDTAB, TYPE=BIT, STR=MRD, OFFSET=KV$MRD_PROGDTAB#);
      178+    6903        %KV_PARM (ID=KV_PRMID_PROMPT, TYPE=STRUCT, MAX=0);
      179+    6962           %KV_SUBSTR (ID=KV_PRMID_DMN, OFFSET=PROMPT_DMN#, TYPE=BYT);
      180+    6982           %KV_SUBSTR (ID=KV_PRMID_PRM, OFFSET=PROMPT_VFC#, TYPE=BFR);
      181+    7002        %KV_PARM (ID=KV_PRMID_RCRWRAP, TYPE=BIT, STR=MVD, OFFSET=KV$MVD_RCRWRAP#);
      182+    7042       %KV_PARM (ID=KV_PRMID_REDTIMOUTPRD, TYPE=BYTE, STR=STR, OFFSET=KV$STR_REDTIMOUTPRD#)
              7042            ;
      183+    7082        %KV_PARM (ID=KV_PRMID_REDTIMOUTPRDUNT, TYPE=BYTE, STR=STR, OFFSET=
              7082            KV$STR_REDTIMOUTPRDUNT#, MAX=2);
      184+    7122        %KV_PARM (ID=KV_PRMID_RELPAGE, TYPE=BIT, STR=SRD, OFFSET=KV$SRD_RELPAGE#);
      185+    7162        %KV_PARM (ID=KV_PRMID_REREADCLM, TYPE=WORD, STR=STR, OFFSET=KV$STR_RE_REDCLM#);
PL6.E3A0      #001=KVP_CNST_D File=kvp_cnst_d.:TCA2TSI                           SUN 11/16/97 14:36 Page:21
      186+    7202        %KV_PARM (ID=KV_PRMID_RETYPOVR, TYPE=BIT, STR=MVD, OFFSET=KV$MVD_RETYPOVR#);
      187+    7242        %KV_PARM (ID=KV_PRMID_RHTBRD, TYPE=BIT, STR=SRD, OFFSET=KV$SRD_RHTBRD#);
      188+    7282        %KV_PARM (ID=KV_PRMID_SAVCTL, TYPE=STRUCT, MAX=8*8); /* 8 BYTES */
      189+    7341           %KV_SUBSTR (ID=KV_PRMID_DMN, OFFSET=0, TYPE=BYT);
      190+    7361           %KV_SUBSTR (ID=KV_PRMID_HRZSCRMRG, OFFSET=16, TYPE=BYT);
      191+    7381           %KV_SUBSTR (ID=KV_PRMID_HRZSCRSHF, OFFSET=24, TYPE=BYT);
      192+    7401           %KV_SUBSTR (ID=KV_PRMID_AUTTABCLM, OFFSET=32, TYPE=BYT);
      193+    7421           %KV_SUBSTR (ID=KV_PRMID_WRDWRPCLM, OFFSET=40, TYPE=BYT);
      194+    7441           %KV_SUBSTR (ID=KV_PRMID_HRZSCR, OFFSET=48, TYPE=BIT);
      195+    7461           %KV_SUBSTR (ID=KV_PRMID_WRDWRP, OFFSET=49, TYPE=BIT);
      196+    7481           %KV_SUBSTR (ID=KV_PRMID_TRUNCATE, OFFSET=50, TYPE=BIT);
      197+    7501           %KV_SUBSTR (ID=KV_PRMID_ENBENTEXTSRDCHR, OFFSET=51, TYPE=BIT);
      198+    7521           %KV_SUBSTR (ID=KV_PRMID_TRNUSRINPFNC, OFFSET=52, TYPE=BIT);
      199+    7541           %KV_SUBSTR (ID=KV_PRMID_ACTONTRN, OFFSET=53, TYPE=BIT);
      200+    7561           %KV_SUBSTR (ID=KV_PRMID_DISPINPUT, OFFSET=54, TYPE=BIT);
      201+    7581           %KV_SUBSTR (ID=KV_PRMID_NOOPTMIZ, OFFSET=55, TYPE=BIT);
      202+    7601           %KV_SUBSTR (ID=KV_PRMID_PRKCRS, OFFSET=56, TYPE=BIT);
      203+    7621        %KV_PARM (ID=KV_PRMID_SAVGET, TYPE=STRLST);
      204+    7680           %KV_SUBSTR (ID=KV_PRMID_SAVCTL); /* TRMCTL subset, per stream              */
      205+    7700           %KV_SUBSTR (ID=KV_PRMID_PROMPT);
      206+    7720           %KV_SUBSTR (ID=KV_PRMID_EOM, OFFSET=1); /* Skip SUPPHALT                   */
      207+    7740           %KV_SUBSTR (ID=KV_PRMID_DCBHDR);
      208+    7760           %KV_SUBSTR (ID=KV_PRMID_SSNHDR);
      209+    7780        %KV_PARM (ID=KV_PRMID_SCROLL, TYPE=BIT, STR=SRD, OFFSET=KV$SRD_SCROLL#);
      210+    7820        %KV_PARM (ID=KV_PRMID_SDNUM, TYPE=OTHER);
      211+    7860        %KV_PARM (ID=KV_PRMID_SETUP_CHR, TYPE=OTHER, STR=MRD);
      212+    7900        %KV_PARM (ID=KV_PRMID_SIMPERF, TYPE=BIT, STR=MVD, OFFSET=KV$MVD_SIMPERF#);
      213+    7940        %KV_PARM (ID=KV_PRMID_SINPUT, TYPE=STRUCT, MAX=0);
      214+    7999           %KV_SUBSTR (ID=KV_PRMID_DMN, OFFSET=SINPUT_DMN#, TYPE=BYT);
      215+    8019           %KV_SUBSTR (ID=KV_PRMID_REREADCLM, OFFSET=SINPUT_POSITION#, TYPE=OTHER);
      216+    8039           %KV_SUBSTR (ID=KV_PRMID_SINPUT, OFFSET=SINPUT_TXT#, TYPE=OTHER); /* ORG=SE */
      217+    8059           %KV_SUBSTR (ID=KV_PRMID_EDTBFR, OFFSET=SINPUT_TXT#, TYPE=BFR);
      218+    8079        %KV_PARM (ID=KV_PRMID_SPACEINSERT, TYPE=BIT, STR=MVD, OFFSET=KV$MVD_SPACEINSERT#);
      219+    8119        %KV_PARM (ID=KV_PRMID_SRDOPT, TYPE=BIT, STR=SRD, OFFSET=KV$SRD_OPT#);
      220+    8159        %KV_PARM (ID=KV_PRMID_SSNHDR, TYPE=SHRBFR, STR=SSN, OFFSET=KV$SSN_SSNHDN$#,
      221+    8160                 BFRTYP=KV_STRTYP_SSNHDN, BFRLNG=6);
      222+    8200        %KV_PARM (ID=KV_PRMID_TABRELATIVE, TYPE=BIT, STR=MVD, OFFSET=KV$MVD_TABRELATIVE#);
PL6.E3A0      #001=KVP_CNST_D File=kvp_cnst_d.:TCA2TSI                           SUN 11/16/97 14:36 Page:22
      223+    8240        %KV_PARM (ID=KV_PRMID_TABSIM, TYPE=BIT, STR=MVD, OFFSET=KV$MVD_TABSIM#);
      224+    8280        %KV_PARM (ID=KV_PRMID_TEXTEDIT, TYPE=BIT, STR=SVD, OFFSET=KV$RCRLST_TXTEDT#);
      225+    8320        %KV_PARM (ID=KV_PRMID_TOPBRD, TYPE=BIT, STR=SRD, OFFSET=KV$SRD_TOPBRD#);
      226+    8360        %KV_PARM (ID=KV_PRMID_TRMATTR, TYPE=STRUCT, MAX="(TRMATTR_MAXATRS#+16)");
      227+    8419           %KV_SUBSTR (ID=KV_PRMID_PROGDTAB, OFFSET=TRMATTR_PROGDTAB#, TYPE=BITCND);
      228+    8439           %KV_SUBSTR (ID=KV_PRMID_OPDTAB, OFFSET=TRMATTR_OPDTAB#, TYPE=BITCND);
      229+    8459           %KV_SUBSTR (ID=KV_PRMID_DEVSCROLL, OFFSET=TRMATTR_DEVSCROLL#, TYPE=BITCND);
      230+    8479           %KV_SUBSTR (ID=KV_PRMID_CURSORUP, OFFSET=TRMATTR_CURSORUP#, TYPE=BITCND);
      231+    8499           %KV_SUBSTR (ID=KV_PRMID_DEVICECR, OFFSET=TRMATTR_DEVICECR#, TYPE=BITCND);
      232+    8519           %KV_SUBSTR (ID=KV_PRMID_DEVICELF, OFFSET=TRMATTR_DEVICELF#, TYPE=BITCND);
      233+    8539           %KV_SUBSTR (ID=KV_PRMID_DEVICEBS, OFFSET=TRMATTR_DEVICEBS#, TYPE=BITCND);
      234+    8559           %KV_SUBSTR (ID=KV_PRMID_AUTONL, OFFSET=TRMATTR_AUTONL#, TYPE=BITCND);
      235+    8579           %KV_SUBSTR (ID=KV_PRMID_CRISNL, OFFSET=TRMATTR_CRISNL#, TYPE=BITCND);
      236+    8599           %KV_SUBSTR (ID=KV_PRMID_LFISNL, OFFSET=TRMATTR_LFISNL#, TYPE=BITCND);
      237+    8619           %KV_SUBSTR (ID=KV_PRMID_BLANKERASES, OFFSET=TRMATTR_BLANKERASES#, TYPE=BITCND);
      238+    8639           %KV_SUBSTR (ID=KV_PRMID_DEVPOSOPTS, OFFSET=TRMATTR_DEVPOSOPTS#, TYPE=BITCND);
      239+    8659           %KV_SUBSTR (ID=KV_PRMID_TRUOVRPRT, OFFSET=TRMATTR_TRUOVRPRT#, TYPE=BITCND);
      240+    8679           %KV_SUBSTR (ID=KV_PRMID_APL, OFFSET=TRMATTR_APL#, TYPE=BITCND);
      241+    8699           %KV_SUBSTR (ID=KV_PRMID_BIN, OFFSET=TRMATTR_BIN#, TYPE=BITCND);
      242+    8719           %KV_SUBSTR (ID=KV_PRMID_LOWERCASEPRINTS, OFFSET=TRMATTR_LOWERCASEPRINTS#, TYPE=
              8719               BITCND);
      243+    8739           %KV_SUBSTR (ID=KV_PRMID_LIMBOCLM, OFFSET=TRMATTR_LIMBOCLM#, TYPE=BITCND);
      244+    8759           %KV_SUBSTR (ID=KV_PRMID_LOCALECHO, OFFSET=TRMATTR_LOCALECHO#, TYPE=BITCND);
      245+    8779           %KV_SUBSTR (ID=KV_PRMID_PARITY, OFFSET=TRMATTR_PARITY#, TYPE=BIN3);
      246+    8799           %KV_SUBSTR (ID=KV_PRMID_INPUT, OFFSET=TRMATTR_INPUT#, TYPE=BITCND);
      247+    8819           %KV_SUBSTR (ID=KV_PRMID_OUTPUT, OFFSET=TRMATTR_OUTPUT#, TYPE=BITCND);
      248+    8839           %KV_SUBSTR (ID=KV_PRMID_PRINTTYPE, OFFSET=TRMATTR_PRINTTYPE#, TYPE=BITCND);
      249+    8859           %KV_SUBSTR (ID=KV_PRMID_TTYTYPE, OFFSET=TRMATTR_TTYTYPE#, TYPE=BITCND);
      250+    8879           %KV_SUBSTR (ID=1, OFFSET=TRMATTR_EXTWID#, TYPE=EXTBIT);
      251+    8899           %KV_SUBSTR (ID=KV_PRMID_MRDWDT, OFFSET=TRMATTR_WIDTH#, TYPE=BYTCND);
      252+    8919           %KV_SUBSTR (ID=KV_PRMID_MRDLNG, OFFSET=TRMATTR_HEIGHT#, TYPE=BYTCND);
      253+    8939           %KV_SUBSTR (ID=KV_PRMID_MINREC, OFFSET=TRMATTR_MINREC#, TYPE=BYTCND);
      254+    8959           %KV_SUBSTR (ID=KV_PRMID_CRTLINSPD, OFFSET=TRMATTR_SPEED#, TYPE=BYTCND);
      255+    8979           %KV_SUBSTR (ID=KV_PRMID_CHARSETNAME, OFFSET=TRMATTR_CHARSETNAME#, TYPE=BFR);
      256+    8999           %KV_SUBSTR (ID=KV_PRMID_FCNTBL, OFFSET=TRMATTR_FCNTBL#, TYPE=BFR);
      257+    9019           %KV_SUBSTR (ID=KV_PRMID_NO_FLDTRM, OFFSET=TRMATTR_NO_FLDTRM#, TYPE=BITCND);
      258+    9039           %KV_SUBSTR (ID=KV_PRMID_ATRSCRNPOS, OFFSET=TRMATTR_ATRSCRNPOS#, TYPE=BITCND);
PL6.E3A0      #001=KVP_CNST_D File=kvp_cnst_d.:TCA2TSI                           SUN 11/16/97 14:36 Page:23
      259+    9059           %KV_SUBSTR (ID=KV_PRMID_STRDON, OFFSET=TRMATTR_C00FPT#, TYPE=EXTBIT);
      260+    9079           %KV_SUBSTR (ID=KV_PRMID_DVCFLWCTRALG, OFFSET=TRMATTR_DVCFLWCTRALG#, TYPE=BIN3);
      261+    9099           %KV_SUBSTR (ID=KV_PRMID_MAXATRS, OFFSET=TRMATTR_MAXATRS#, TYPE=BYTCND);
      262+    9119           %KV_SUBSTR (ID=KV_PRMID_DCHMOVFLD, OFFSET=TRMATTR_DCHMOVFLD#, TYPE=BITCND);
      263+    9139           %KV_SUBSTR (ID=KV_PRMID_DSPHEIGHT, OFFSET=TRMATTR_DSPHEIGHT#, TYPE=BYTCND);
      264+    9159           %KV_SUBSTR (ID=KV_PRMID_FF_FLUSH, OFFSET=TRMATTR_FF_FLUSH#, TYPE=BITCND);
      265+    9179           %KV_SUBSTR (ID=KV_PRMID_FF_INCCR, OFFSET=TRMATTR_FF_INCCR#, TYPE=BITCND);
      266+    9199           %KV_SUBSTR (ID=KV_PRMID_MCRFPL, OFFSET=TRMATTR_MICROFPL#, TYPE=BITCND);
      267+    9219        %KV_PARM (ID=KV_PRMID_TRMCTL, TYPE=STRUCT, MAX="(128)");
      268+    9278           %KV_SUBSTR (ID=KV_PRMID_DISPINPUT, OFFSET=TRMCTL_DISPINPUT#, TYPE=BITCND);
      269+    9298           %KV_SUBSTR (ID=KV_PRMID_PARITYCHECK, OFFSET=TRMCTL_PARITYCHECK#, TYPE=BITCND);
      270+    9318          %KV_SUBSTR (ID=KV_PRMID_OUTPUTDISCARD, OFFSET=TRMCTL_OUTPUTDISCARD#, TYPE=BITCND)
              9318               ;
      271+    9338           %KV_SUBSTR (ID=KV_PRMID_FULLDUPLEXPAPERTAPE, OFFSET=TRMCTL_FULLDUXPAPERTAPE#,
              9338               TYPE=BITCND);
      272+    9358           %KV_SUBSTR (ID=KV_PRMID_HALFDUPLEXPAPERTAPE, OFFSET=TRMCTL_HALFDUXPAPERTAPE#,
              9358               TYPE=BITCND);
      273+    9378           %KV_SUBSTR (ID=KV_PRMID_ACTONTRN, OFFSET=TRMCTL_ACTONTRN#, TYPE=BITCND);
      274+    9398           %KV_SUBSTR (ID=KV_PRMID_RETYPOVR, OFFSET=TRMCTL_RETYPOVR#, TYPE=BITCND);
      275+    9418           %KV_SUBSTR (ID=KV_PRMID_EDITOVR, OFFSET=TRMCTL_EDITOVR#, TYPE=BITCND);
      276+    9438           %KV_SUBSTR (ID=KV_PRMID_SCROLL, OFFSET=TRMCTL_SCROLL#, TYPE=BITCND);
      277+    9458           %KV_SUBSTR (ID=KV_PRMID_PAGEHALT, OFFSET=TRMCTL_PAGEHALT#, TYPE=BITCND);
      278+    9478           %KV_SUBSTR (ID=KV_PRMID_PRINTHALT, OFFSET=TRMCTL_PRINTHALT#, TYPE=BITCND);
      279+    9498           %KV_SUBSTR (ID=KV_PRMID_RELPAGE, OFFSET=TRMCTL_RELPAGE#, TYPE=BITCND);
      280+    9518           %KV_SUBSTR (ID=KV_PRMID_SIMPERF, OFFSET=TRMCTL_SIMPERF#, TYPE=BITCND);
      281+    9538           %KV_SUBSTR (ID=KV_PRMID_TABSIM, OFFSET=TRMCTL_TABSIM#, TYPE=BITCND);
      282+    9558           %KV_SUBSTR (ID=KV_PRMID_TABRELATIVE, OFFSET=TRMCTL_TABRELATIVE#, TYPE=BITCND);
      283+    9578           %KV_SUBSTR (ID=KV_PRMID_SPACEINSERT, OFFSET=TRMCTL_SPACEINSERT#, TYPE=BITCND);
      284+    9598           %KV_SUBSTR (ID=KV_PRMID_OVRSTR, OFFSET=TRMCTL_SENDBKSPACE#, TYPE=BITCND);
      285+    9618           %KV_SUBSTR (ID=KV_PRMID_UPPERCASE, OFFSET=TRMCTL_UPPERCASE#, TYPE=BITCND);
      286+    9638           %KV_SUBSTR (ID=KV_PRMID_LOWERCASE, OFFSET=TRMCTL_LOWERCASE#, TYPE=BITCND);
      287+    9658           %KV_SUBSTR (ID=KV_PRMID_APLLCNRM, OFFSET=TRMCTL_APLLCNRM#, TYPE=BITCND);
      288+    9678           %KV_SUBSTR (ID=KV_PRMID_NOOPTMIZ, OFFSET=TRMCTL_NOOPTMIZ#, TYPE=BITCND);
      289+    9698           %KV_SUBSTR (ID=KV_PRMID_WRPPAG, OFFSET=TRMCTL_WRAPPAGE#, TYPE=BITCND);
      290+    9718           %KV_SUBSTR (ID=KV_PRMID_MINEDTBFRSIZ, OFFSET=TRMCTL_SINPUTSZ#, TYPE=BYTCND);
      291+    9738           %KV_SUBSTR (ID=KV_PRMID_BRKCNT, OFFSET=TRMCTL_BREAKCOUNT#, TYPE=BYTCND);
      292+    9758           %KV_SUBSTR (ID=KV_PRMID_INSMOD, OFFSET=TRMCTL_INSERTMODE#, TYPE=BITCND);
PL6.E3A0      #001=KVP_CNST_D File=kvp_cnst_d.:TCA2TSI                           SUN 11/16/97 14:36 Page:24
      293+    9778           %KV_SUBSTR (ID=KV_PRMID_MSGHLT, OFFSET=TRMCTL_MSGHALT#, TYPE=BITCND);
      294+    9798           %KV_SUBSTR (ID=KV_PRMID_STRDON, OFFSET=TRMCTL_C00FPT#, TYPE=EXTBIT);
      295+    9818           %KV_SUBSTR (ID=KV_PRMID_MSGLIN, OFFSET=TRMCTL_MSGLINE#, TYPE=BITCND);
      296+    9838           %KV_SUBSTR (ID=KV_PRMID_HRZSCR, OFFSET=TRMCTL_HSCROLL#, TYPE=BITCND);
      297+    9858           %KV_SUBSTR (ID=KV_PRMID_HRZSCRMRG, OFFSET=TRMCTL_HSMARGIN#, TYPE=BYTCND);
      298+    9878           %KV_SUBSTR (ID=KV_PRMID_HRZSCRSHF, OFFSET=TRMCTL_HSSHIFT#, TYPE=BYTCND);
      299+    9898           %KV_SUBSTR (ID=KV_PRMID_TRUNCATE, OFFSET=TRMCTL_TRUNCATE#, TYPE=BITCND);
      300+    9918           %KV_SUBSTR (ID=KV_PRMID_ENBENTEXTSRDCHR, OFFSET=TRMCTL_ENBENTEXTSRDCHR#, TYPE=
              9918               BITCND);
      301+    9938           %KV_SUBSTR (ID=KV_PRMID_TRNUSRINPFNC, OFFSET=TRMCTL_TRNUSRINPFNC#, TYPE=BITCND);
      302+    9958           %KV_SUBSTR (ID=KV_PRMID_AUTTABCLM, OFFSET=TRMCTL_AUTOTABCLM#, TYPE=BYTCND);
      303+    9978           %KV_SUBSTR (ID=KV_PRMID_WRDWRP, OFFSET=TRMCTL_WORDWRAPCLM#, TYPE=BYTCND);
      304+    9998           %KV_SUBSTR (ID=KV_PRMID_WRDWRPCLM, OFFSET=TRMCTL_WORDWRAPCLM#, TYPE=BYTCND);
      305+   10018           %KV_SUBSTR (ID=KV_PRMID_PRKCRS, OFFSET=TRMCTL_PARKCURSOR#, TYPE=BITCND);
      306+   10038           %KV_SUBSTR (ID=KV_PRMID_CRSRED, OFFSET=TRMCTL_CURSORREAD#, TYPE=BITCND);
      307+   10058           %KV_SUBSTR (ID=KV_PRMID_AUTCRS, OFFSET=TRMCTL_AUTOCURSOR#, TYPE=BITCND);
      308+   10078           %KV_SUBSTR (ID=KV_PRMID_KEPTYP, OFFSET=TRMCTL_KEEPTYPAHD#, TYPE=BITCND);
      309+   10098           %KV_SUBSTR (ID=KV_PRMID_ADJTOPLFT, OFFSET=TRMCTL_ADJTOPLFT#, TYPE=BITCND);
      310+   10118        %KV_PARM (ID=KV_PRMID_TRMTAB, TYPE=SHRBFR, STR=MRD, OFFSET=KV$MRD_TRMTAB$#,
      311+   10119                 BFRTYP=KV_STRTYP_TRMTAB, BFRLNG=1);
      312+   10159       %KV_PARM (ID=KV_PRMID_TRNUSRINPFNC, TYPE=BIT, STR=STR, OFFSET=KV$STR_TRNUSRINPFNC#);
      313+   10199        %KV_PARM (ID=KV_PRMID_TRUNCATE, TYPE=BIT, STR=SRD, OFFSET=KV$SRD_TRUNCATE#);
      314+   10239        %KV_PARM (ID=KV_PRMID_TRUOVRPRT, TYPE=BIT, STR=MRD, OFFSET=KV$MRD_TRUOVRPRT#);
      315+   10279        %KV_PARM (ID=KV_PRMID_TTYTYPE, TYPE=BIT, STR=MRD, OFFSET=KV$MRD_TTYTYPE#);
      316+   10319        %KV_PARM (ID=KV_PRMID_UPPERCASE, TYPE=BIT, STR=MVD, OFFSET=KV$MVD_UPPERCASE#);
      317+   10359        %KV_PARM (ID=KV_PRMID_USRHLTINH, TYPE=BIT, STR=SSN, OFFSET=KV$SSN_USRHLTINH#);
      318+   10399        %KV_PARM (ID=KV_PRMID_VBRDCHR, TYPE=BYTE, STR=SRD, OFFSET=KV$SRD_VBRDCHR#,
      319+   10400                 MIN=32, MAX=255);
      320+   10440        %KV_PARM (ID=KV_PRMID_VBRDSIZ, TYPE=BYTE, STR=SRD, OFFSET=KV$SRD_VBRDSIZ#-4,
      321+   10441                  MIN=1, MAX=15);
      322+   10481        %KV_PARM (ID=KV_PRMID_VFU, TYPE=SHRBFR, STR=MVD, OFFSET=KV$MVD_VFU$#,
      323+   10482                 BFRTYP=KV_STRTYP_VFU, BFRLNG=32);
      324+   10522        %KV_PARM (ID=KV_PRMID_VRTSCRMRG, TYPE=BYTE, STR=SVD, OFFSET=KV$RCRLST_VRTSCRMRG#);
      325+   10562        %KV_PARM (ID=KV_PRMID_VRTSCRSHF, TYPE=BYTE, STR=SVD, OFFSET=KV$RCRLST_VRTSCRSHF#);
      326+   10602        %KV_PARM (ID=KV_PRMID_WINDOW, TYPE=STRUCT, MAX="(WINDOW_REMOVABLE#+8)");
      327+   10661           %KV_SUBSTR (ID=KV_PRMID_WINDOW, TYPE=OTHER); /* Create it first */
      328+   10681           %KV_SUBSTR (ID=KV_PRMID_MINLNG, OFFSET=WINDOW_MINLENGTH#, TYPE=BYTCND);
PL6.E3A0      #001=KVP_CNST_D File=kvp_cnst_d.:TCA2TSI                           SUN 11/16/97 14:36 Page:25
      329+   10701           %KV_SUBSTR (ID=KV_PRMID_MINWDT, OFFSET=WINDOW_MINWIDTH#, TYPE=BYTCND);
      330+   10721           %KV_SUBSTR (ID=KV_PRMID_TOPBRD, OFFSET=WINDOW_TOPBRDR#, TYPE=BITCND);
      331+   10741           %KV_SUBSTR (ID=KV_PRMID_BTMBRD, OFFSET=WINDOW_BTMBRDR#, TYPE=BITCND);
      332+   10761           %KV_SUBSTR (ID=KV_PRMID_HBRDCHR, OFFSET=WINDOW_HBRDRCHR#, TYPE=BYT);
      333+   10781           %KV_SUBSTR (ID=KV_PRMID_LFTBRD, OFFSET=WINDOW_LFTBRDR#, TYPE=BITCND);
      334+   10801           %KV_SUBSTR (ID=KV_PRMID_RHTBRD, OFFSET=WINDOW_RHTBRDR#, TYPE=BITCND);
      335+   10821           %KV_SUBSTR (ID=KV_PRMID_VBRDCHR, OFFSET=WINDOW_VBRDRCHR#, TYPE=BYT);
      336+   10841           %KV_SUBSTR (ID=KV_PRMID_SRDOPT, OFFSET=WINDOW_REMOVABLE#, TYPE=BITCND);
      337+   10861           %KV_SUBSTR (ID=KV_PRMID_HBRDSIZ, OFFSET=WINDOW_HBRDRSIZ#, TYPE=BIN4);
      338+   10881           %KV_SUBSTR (ID=KV_PRMID_VBRDSIZ, OFFSET=WINDOW_VBRDRSIZ#, TYPE=BIN4);
      339+   10901           %KV_SUBSTR (ID=KV_PRMID_SRDOPT, TYPE=OTHER); /* Fix the screen if BRDUPD */
      340+   10921        %KV_PARM (ID=KV_PRMID_WRDWRP, TYPE=BIT, STR=STR, OFFSET=KV$STR_WRDWRP#);
      341+   10961        %KV_PARM (ID=KV_PRMID_WRDWRPCLM, TYPE=BYTE, STR=STR, OFFSET=KV$STR_WRDWRPCLM#);
      342+   11001        %KV_PARM (ID=KV_PRMID_WRPPAG, TYPE=BIT, STR=SRD, OFFSET=KV$SRD_WRPPAG#);
      343+   11041        %KV_END_PARMS;
             11067    1  DCL KV_PRMTBL_IDS CONSTANT SYMDEF CHAR(0)INIT('  \K:qL&6k  rnW |4l5` g  , jhi ofD>-%
             11067    1  N      1}+8 _IJ^   "   u 7 $#m     	Hs*'9V { zy  ] ~bU(;e vFCPtE caQw3X d .[ZR M   O
             11067         S B  A@0   	)TpxGY    ! /  ');DCL KV_PRMTBL_TYPE CONSTANT SYMDEF CHAR(0)INIT('
             11067
             11067                                                                      ');DCL
             11068    1  KV_PRMTBL_INDX CONSTANT SYMDEF CHAR(0)INIT('
             11068    1              !  "#	  $%&''  () * ''+,-  .  /   012  34567 89:; <)=	>?@ 0A2B  C DE5DFG
             11068       HIJJK LMNOOx PQRSTU     #V W');DCL 1 KV_WHERE CONSTANT SYMDEF,2 * CHAR(0)INIT('  p 1
             11068       H`|  Ajq   qsq}qnaC"xqr  q~q   qoqpqq  qyqvAXAiAY`xPZq q       AmPOqkAl 	p qwaRq q	A
             11068       Zqj _  #y#z    aPqhPhqtql" A[`j Q  `hq{`}quAx`iAhaS`l  p AnA\a@A]A^PYaB1h`mqxq|A_" 1
             11068        i`o'),2 * CHAR(0)INIT
             11069    1  ('0< J <08p p+@;`9`8@/@,P P @)@9p, K`=`<p*p @(@  207060 `;`:P P 0:'),2 * CHAR(0)INIT
             11069            ('0 @ p @ 0 ` @ @ 0 p 0   p @ ');DCL KV_WHROFFS(0:7)CONSTANT SYMDEF UBIN
             11072    1   INIT(0,0,88,120,88,120,0,0);DCL KV_MIN CONSTANT SYMDEF CHAR(0)INIT(
             11072            '                                                                ');DCL KV_MAX
             11072            CONSTANT SYMDEF
             11073    1   CHAR(0)INIT('                                                                ');DCL
             11073            KV_BFRLNG CONSTANT SYMDEF CHAR(0)INIT('  R           ');DCL KV_BFRTYP CONSTANT
             11073            SYMDEF CHAR(0)INIT('              ');
             11076    1  DCL 1 KV_STRS CONSTANT SYMDEF,2 * CHAR(0)INIT('                        @
             11076    1   @  @ $        0  $          0 0 0 0 0   @    ''            0     0              0 1
             11076    1   2 3 4 5 6 7 8                @ @ 0                                      "0% ( * , .
PL6.E3A0      #001=KVP_CNST_D File=kvp_cnst_d.:TCA2TSI                           SUN 11/16/97 14:36 Page:26
             11076        $     	  0 0  4 2 \0]   6   X p Z                '),2 * CHAR(0)INIT('     " $ & (
             11076                    , .     B D J H @     * F K       p r v t x  @      ` b   p r    @d@t@
             11076          ');DCL KV_STRID CONSTANT SYMDEF CHAR(0)INIT
             11077    1  ('           . "01# !$; >Y[Z\ ]^_9`abc      ~   * a >X >     /T )KDU3       >    def
             11077       ghijklmnopqrs 	tuvwx yz{`|}(&=%',-+89 DEFIJKMNOPQRS@ABCGHLU VW  =    T ) / 3567:
             11077                   ');
       18    11080    1   DCL 1 KV_PRMTBL_IDSZ CONSTANT SYMDEF,
       19    11081    1          2 * BIT(8) INIT('0'B), 2 * UBIN(8) UNAL INIT(SIZEC(KV_PRMTBL_IDS));
       20    11082    1   DCL KV_PTR_OFFSETS(0:7) CONSTANT SYMDEF SBIN
       21    11083    1    INIT(0,0/*VDI*/,2/*SSN*/,4/*STR*/,6/*MVD*/,14/*SVD*/,10/*SRD*/,8/*MRD*/);
       22    11084        %IF '0'B;
       34    11096        %ENDIF;
       35    11097    1   END KVP_CNST_D;

PL6.E3A0      #001=KVP_CNST_D File=kvp_cnst_d.:TCA2TSI                           SUN 11/16/97 14:36 Page:27
--  Include file information  --

   KV_PRMTBL_M.:TOOLE05  is referenced.
   KV_PRMTBL_E.:TOOLE05  is referenced.
   KV_PRMTBL_D.:LIBRARY  cannot be made into a system file and is referenced.
   KV_PRMID_E.:LIBRARY  is referenced.
   KV_GLBCNS_E.:LIBRARY  is referenced.
      No diagnostics issued in procedure KVP_CNST_D.
PL6.E3A0      #001=KVP_CNST_D File=kvp_cnst_d.:TCA2TSI                           SUN 11/16/97 14:36 Page:28

 **** Variables and constants ****

  ****  Section 000 RoData KVP_CNST_D

  ****  Scalars and arrays  ****
HexLoc.c.b A Datatyp(siz) R M Lvl/name                 HexLoc.c.b A Datatyp(siz) R M Lvl/name

     0-0-0/c CHAR(150)   r     1 KV_PRMTBL_IDS


   No code generated for procedure KVP_CNST_D .
   Procedure KVP_CNST_D requires 4 words of local(AUTO) storage.

    No errors detected in file kvp_cnst_d.:TCA2TSI    .
PL6.E3A0      #001=KVP_CNST_D File=kvp_cnst_d.:TCA2TSI                           SUN 11/16/97 14:36 Page:29
          *** CROSS REFERENCE LISTING ***
**     DENOTES     IDENTIFIER DEFINITION
<<                 IDENTIFIER'S VALUE SET
>>                 IDENTIFIER'S VALUE USED
<>                 IDENTIFIER SET AND/OR USED
--                 IDENTIFIER REFERENCED
PL6.E3A0      #001=KVP_CNST_D File=kvp_cnst_d.:TCA2TSI                           SUN 11/16/97 14:36 Page:30
          MINI XREF LISTING

KV_PRMTBL_IDS
     11067**DCL     11081--DCLINIT
