VERSION A05

PL6.E3A0      #001=VD$STATIC_TEMP File=VD$STATIC_TEMP.:VDA5TSI                   FRI 07/04/97 11:03 Page:1
        1        1        /*M*  VD$STATIC_TEMP - Data only procedure for VD_STATIC_TEMP */
        2        2        /*T***********************************************************/
        3        3        /*T*                                                         */
        4        4        /*T* Copyright (c) Bull HN Information Systems Inc., 1997    */
        5        5        /*T*                                                         */
        6        6        /*T***********************************************************/
        7        7
        8        8        /*X* MCR=NO, DMC=YES */
        9        9
       10       10        /*P*  NAME: VD$STATIC_TEMP
       11       11              PURPOSE:
       12       12                 This procedures sole purpose is to put table VD_STATIC_TEMP in a
       13       13                 a different page of memory.
       14       14
       15       15              DESCRIPTION:
       16       16                 This module just relocates table VD_STATIC_TEMP.  The reason for doing
       17       17              this is to circumvent a hardware problem.  Currently on ELS type machines
       18       18              TCTR instructions will incorrectly prepage some instances.
       19       19              By placing the table in the very beginning we avoid the problem. */
       20       20
       21       21        VD$STATIC_TEMP: PROC;
       22       22
       23       23        %INCLUDE VD_MACROS_M;
       24     2238    1   DCL   VD_STATIC_TEMP       CHAR(%NB_STATIC_TEMP)       STATIC   SYMDEF  INIT(' ');
       25     2239
       26     2240    1   END VD$STATIC_TEMP;

PL6.E3A0      #001=VD$STATIC_TEMP File=VD$STATIC_TEMP.:VDA5TSI                   FRI 07/04/97 11:03 Page:2
--  Include file information  --

   VD_MACROS_M.:VDA5TOU  is referenced.
   B$JIT_C.:E04TOU  was found in the system file and is never referenced.
   CP_6_C.:E04TOU  was found in the system file and is never referenced.
      No diagnostics issued in procedure VD$STATIC_TEMP.

   No code generated for procedure VD$STATIC_TEMP .
   Procedure VD$STATIC_TEMP requires 4 words of local(AUTO) storage.

    No errors detected in file VD$STATIC_TEMP.:VDA5TSI    .

PL6.E3A0      #001=VD$STATIC_TEMP File=VD$STATIC_TEMP.:VDA5TSI                   FRI 07/04/97 11:03 Page:3

 Object Unit name= VD$STATIC_TEMP                             File name= VD$STATIC_TEMP.:VDA5TOU
 UTS= JUL 04 '97 11:03:16.04 FRI                              Compiler= PL-6/E31         Sev=      00
 SharedLib= :SHARED_SYSTEM                                    Alt SharedLib=


    ****  Control sections  ****

 Sect   Type Bound  Init  Size OctSiz  Section name(segment info)
    0   Data  even  none   256    400  VD$STATIC_TEMP
    1   Proc  even  none     0      0  VD$STATIC_TEMP

    ****  Entry defs  ****

                              Check   Calling
                             calling  sequence
  Sect OctLoc Primary Altret sequence   type   Parms  Name
     1      0   yes            yes     ~proc       0  VD$STATIC_TEMP

  ****  Data defs  ****

 Sect OctLoc  Name                           Sect OctLoc  Name
    0      0  VD_STATIC_TEMP
PL6.E3A0      #001=VD$STATIC_TEMP File=VD$STATIC_TEMP.:VDA5TSI                   FRI 07/04/97 11:03 Page:4

        1        1        /*M*  VD$STATIC_TEMP - Data only procedure for VD_STATIC_TEMP */
        2        2        /*T***********************************************************/
        3        3        /*T*                                                         */
        4        4        /*T* Copyright (c) Bull HN Information Systems Inc., 1997    */
        5        5        /*T*                                                         */
        6        6        /*T***********************************************************/
        7        7
        8        8        /*X* MCR=NO, DMC=YES */
        9        9
       10       10        /*P*  NAME: VD$STATIC_TEMP
       11       11              PURPOSE:
       12       12                 This procedures sole purpose is to put table VD_STATIC_TEMP in a
       13       13                 a different page of memory.
       14       14
       15       15              DESCRIPTION:
       16       16                 This module just relocates table VD_STATIC_TEMP.  The reason for doing
       17       17              this is to circumvent a hardware problem.  Currently on ELS type machines
       18       18              TCTR instructions will incorrectly prepage some instances.
       19       19              By placing the table in the very beginning we avoid the problem. */
       20       20
       21       21        VD$STATIC_TEMP: PROC;
       22       22
       23       23        %INCLUDE VD_MACROS_M;
       24     2238    1   DCL   VD_STATIC_TEMP       CHAR(%NB_STATIC_TEMP)       STATIC   SYMDEF  INIT(' ');
       25     2239
       26     2240    1   END VD$STATIC_TEMP;

PL6.E3A0      #001=VD$STATIC_TEMP File=VD$STATIC_TEMP.:VDA5TSI                   FRI 07/04/97 11:03 Page:5
--  Include file information  --

   VD_MACROS_M.:VDA5TOU  is referenced.
   B$JIT_C.:E04TOU  was found in the system file and is never referenced.
   CP_6_C.:E04TOU  was found in the system file and is never referenced.
      No diagnostics issued in procedure VD$STATIC_TEMP.
PL6.E3A0      #001=VD$STATIC_TEMP File=VD$STATIC_TEMP.:VDA5TSI                   FRI 07/04/97 11:03 Page:6

 **** Variables and constants ****


   No code generated for procedure VD$STATIC_TEMP .
   Procedure VD$STATIC_TEMP requires 4 words of local(AUTO) storage.

    No errors detected in file VD$STATIC_TEMP.:VDA5TSI    .
PL6.E3A0      #001=VD$STATIC_TEMP File=VD$STATIC_TEMP.:VDA5TSI                   FRI 07/04/97 11:03 Page:7
          *** CROSS REFERENCE LISTING ***
**     DENOTES     IDENTIFIER DEFINITION
<<                 IDENTIFIER'S VALUE SET
>>                 IDENTIFIER'S VALUE USED
<>                 IDENTIFIER SET AND/OR USED
--                 IDENTIFIER REFERENCED
PL6.E3A0      #001=VD$STATIC_TEMP File=VD$STATIC_TEMP.:VDA5TSI                   FRI 07/04/97 11:03 Page:8
          MINI XREF LISTING

