PL6.E3A0      #002=VDA$FCLOSE File=VDA$FILE.:VDA5TSI                             FRI 07/04/97 11:04 Page:172
     1342        1        /*T***********************************************************/
     1343        2        /*T*                                                         */
     1344        3        /*T* Copyright (c) Bull HN Information Systems Inc., 1997    */
     1345        4        /*T*                                                         */
     1346        5        /*T***********************************************************/
     1347        6
     1348        7        /*D* NAME: VDA$FCLOSE
     1349        8            PARAMETERS:
     1350        9                STREAM - VD$STREAM to close.  May be either open or closed;
     1351       10                    if open, may be to either internal or external file.
     1352       11            INPUT:
     1353       12            OUTPUT:
     1354       13                STREAM will be closed.
     1355       14                STREAM will be detached from the port.  If no other streams
     1356       15                    are open to that port, the port will be freed.
     1357       16            DESCRIPTION:
     1358       17                If STREAM has no port attached, return:  we're already closed.
     1359       18                Detach the stream from its port.
     1360       19                If port has no other streams attached, free it.
     1361       20        */
     1362       21
     1363       22        VDA$FCLOSE: PROC (STREAM) ALTRET;
     1364       23
     1365       24        %INCLUDE VD_MACROS_M;
     1366     2239        %INCLUDE VD_PERR_C;
     1367     2387
     1368     2388
     1369     2389        %VD$STREAM (NAME=STREAM, STCLASS=PARAM);
     1370     2495
     1371     2496
     1372     2497    1   DCL VDA$FDETACH         ENTRY (1) ALTRET;
     1373     2498    1   DCL VDG$OFREE           ENTRY (1) ALTRET;
     1374     2499    1   DCL VDG$OCLEAR_LOCATION  ENTRY (1) ALTRET;
     1375     2500    1   DCL VDG$EBREAK_ACKNOWLEDGE ENTRY (1);
     1376     2501
     1377     2502
     1378     2503        %VD_6E (STCLASS=SYMREF);
PL6.E3A0      #002=VDA$FCLOSE File=VDA$FILE.:VDA5TSI                             FRI 07/04/97 11:04 Page:173
     1379     2539    1   DCL DELFID_CMD SBIN SYMREF;
     1380     2540
     1381     2541
     1382     2542
     1383     2543
     1384     2544        %VD$TEXTC_REMOTE;
     1385     2605
     1386     2606
     1387     2607
     1388     2608    1   COMMON: ;
     1389     2609    2           IF VD_6E.INTERRUPT.STATE# = %INST_BREAK_QUEUED THEN DO;
     1390     2610    2              CALL VDG$EBREAK_ACKNOWLEDGE (%E$BREAK_HIT);
     1391     2611    2              ALTRETURN;
     1392     2612    2              END;
     1393     2613    1           IF STREAM.PORT$ = ADDR(NIL) THEN
     1394     2614    1              RETURN;
     1395     2615
     1396     2616    1           CALL VDA$FDETACH (STREAM);
     1397     2617    1           IF STREAM.PORT$ ~= ADDR(NIL) THEN
     1398     2618    1              ALTRETURN; /* Detach failed to do so. */
     1399     2619
     1400     2620                %CLEARKEY (KEY=STREAM.FILE_KEY);
     1401     2630    1           CALL VDG$OCLEAR_LOCATION (STREAM.CURRENT)
     1402     2631    1             ALTRET (OCLEAR_LOCATION_FAILED);
     1403     2632    1           CALL VDG$OCLEAR_LOCATION (STREAM.NEXT)
     1404     2633    1             ALTRET (OCLEAR_LOCATION_FAILED);
     1405     2634    1           STREAM.LAST_OP# = 0;
     1406     2635    1           STREAM.PROTECT = %CLEAR;
     1407     2636
     1408     2637    1           RETURN;
     1409     2638
     1410     2639
     1411     2640    1   OCLEAR_LOCATION_FAILED: ;
     1412     2641    1           ALTRETURN;
     1413     2642
     1414     2643    1   VDA$FDELETE: ENTRY (STREAM) ALTRET;
     1415     2644
PL6.E3A0      #002=VDA$FCLOSE File=VDA$FILE.:VDA5TSI                             FRI 07/04/97 11:04 Page:174
     1416     2645    1           DELFID_CMD = 1; /* Tell Fdetach to delete the file */
     1417     2646    1           GOTO COMMON;
     1418     2647
     1419     2648    1   END VDA$FCLOSE;
     1420     2649        %EOD;

PL6.E3A0      #002=VDA$FCLOSE File=VDA$FILE.:VDA5TSI                             FRI 07/04/97 11:04 Page:175
--  Include file information  --

   VD_PERR_C.:VDA5TOU  is referenced.
   VD_MACROS_M.:VDA5TOU  is referenced.
   B$JIT_C.:E04TOU  was found in the system file and is never referenced.
   CP_6_C.:E04TOU  was found in the system file and is never referenced.
      No diagnostics issued in procedure VDA$FCLOSE.

   Procedure VDA$FCLOSE requires 65 words for executable code.
   Procedure VDA$FCLOSE requires 6 words of local(AUTO) storage.

PL6.E3A0      #002=VDA$FCLOSE File=VDA$FILE.:VDA5TSI                             FRI 07/04/97 11:04 Page:176

 Object Unit name= VDA$FCLOSE                                 File name= VDA$FILE.:VDA5TOU
 UTS= JUL 04 '97 11:04:46.64 FRI                              Compiler= PL-6/E31         Sev=      00
 SharedLib= :SHARED_SYSTEM                                    Alt SharedLib=


    ****  Control sections  ****

 Sect   Type Bound  Init  Size OctSiz  Section name(segment info)
    0   Proc  even  none    65    101  VDA$FCLOSE
    1  RoData even  none     1      1  VDA$FCLOSE

    ****  Entry defs  ****

                              Check   Calling
                             calling  sequence
  Sect OctLoc Primary Altret sequence   type   Parms  Name
     0      0   yes    yes     yes      Std        1  VDA$FCLOSE
     0     74          yes     yes      Std        1  VDA$FDELETE

  ****  Entry refs  ****

         Check        Calling
        calling       sequence
Altret sequence SRef   type   Args  Name
         yes           Std       1 VDG$EBREAK_ACKNOWLEDGE
 yes     yes           Std       1 VDG$OFREE
 yes     yes           Std       1 VDA$FDETACH
 yes     yes           Std       1 VDG$OCLEAR_LOCATION
                       nStd      0 X66_AUTO_1
                       Std       0 B_CONSPOOL_D
                       nStd      0 X66_AALT
                       nStd      0 X66_ARET
PL6.E3A0      #002=VDA$FCLOSE File=VDA$FILE.:VDA5TSI                             FRI 07/04/97 11:04 Page:177

  ****  Data refs  ****

  Flags:  r = read only, s = secondary
Flgs Name                             Flgs Name                             Flgs Name
     VD_6E                                 DELFID_CMD                            B_VECTNIL

  ****  Segment refs  ****

  Flags:  r = read only, s = secondary
Flgs Name                             Flgs Name                             Flgs Name
     ISSID
PL6.E3A0      #002=VDA$FCLOSE File=VDA$FILE.:VDA5TSI                             FRI 07/04/97 11:04 Page:178


     1342        1        /*T***********************************************************/
     1343        2        /*T*                                                         */
     1344        3        /*T* Copyright (c) Bull HN Information Systems Inc., 1997    */
     1345        4        /*T*                                                         */
     1346        5        /*T***********************************************************/
     1347        6
     1348        7        /*D* NAME: VDA$FCLOSE
     1349        8            PARAMETERS:
     1350        9                STREAM - VD$STREAM to close.  May be either open or closed;
     1351       10                    if open, may be to either internal or external file.
     1352       11            INPUT:
     1353       12            OUTPUT:
     1354       13                STREAM will be closed.
     1355       14                STREAM will be detached from the port.  If no other streams
     1356       15                    are open to that port, the port will be freed.
     1357       16            DESCRIPTION:
     1358       17                If STREAM has no port attached, return:  we're already closed.
     1359       18                Detach the stream from its port.
     1360       19                If port has no other streams attached, free it.
     1361       20        */
     1362       21
     1363       22        VDA$FCLOSE: PROC (STREAM) ALTRET;

     22  0 000000   000000 700200 xent  VDA$FCLOSE   TSX0  ! X66_AUTO_1
         0 000001   000006 000001                    ZERO    6,1

     1364       23
     1365       24        %INCLUDE VD_MACROS_M;
     1366     2239        %INCLUDE VD_PERR_C;
     1367     2387
     1368     2388
     1369     2389        %VD$STREAM (NAME=STREAM, STCLASS=PARAM);
     1370     2495
     1371     2496
     1372     2497    1   DCL VDA$FDETACH         ENTRY (1) ALTRET;
     1373     2498    1   DCL VDG$OFREE           ENTRY (1) ALTRET;
PL6.E3A0      #002=VDA$FCLOSE File=VDA$FILE.:VDA5TSI                             FRI 07/04/97 11:04 Page:179
     1374     2499    1   DCL VDG$OCLEAR_LOCATION  ENTRY (1) ALTRET;
     1375     2500    1   DCL VDG$EBREAK_ACKNOWLEDGE ENTRY (1);
     1376     2501
     1377     2502
     1378     2503        %VD_6E (STCLASS=SYMREF);
     1379     2539    1   DCL DELFID_CMD SBIN SYMREF;
     1380     2540
     1381     2541
     1382     2542
     1383     2543
     1384     2544        %VD$TEXTC_REMOTE;

   2569  0 000002                       COMMON       null
     1385     2605
     1386     2606
     1387     2607
     1388     2608    1   COMMON: ;
     1389     2609    2           IF VD_6E.INTERRUPT.STATE# = %INST_BREAK_QUEUED THEN DO;

   2609  0 000002   000027 220000 xsym               LDX0    VD_6E+23
         0 000003   000003 100003                    CMPX0   3,DU
         0 000004   000012 601000 0                  TNZ     s:2613

     1390     2610    2              CALL VDG$EBREAK_ACKNOWLEDGE (%E$BREAK_HIT);

   2610  0 000005   000000 630400 1                  EPPR0   0
         0 000006   000017 631400 xsym               EPPR1   B_VECTNIL+15
         0 000007   000000 701000 xent               TSX1    VDG$EBREAK_ACKNOWLEDGE
         0 000010   000000 011000                    NOP     0

     1391     2611    2              ALTRETURN;

   2611  0 000011   000000 702200 xent               TSX2  ! X66_AALT

     1392     2612    2              END;
     1393     2613    1           IF STREAM.PORT$ = ADDR(NIL) THEN

PL6.E3A0      #002=VDA$FCLOSE File=VDA$FILE.:VDA5TSI                             FRI 07/04/97 11:04 Page:180
   2613  0 000012   200003 470500                    LDP0    @STREAM,,AUTO
         0 000013   000001 236100                    LDQ     1,,PR0
         0 000014   000001 116000 xsym               CMPQ    B_VECTNIL+1
         0 000015   000017 601000 0                  TNZ     s:2616

     1394     2614    1              RETURN;

   2614  0 000016   000000 702200 xent               TSX2  ! X66_ARET

     1395     2615
     1396     2616    1           CALL VDA$FDETACH (STREAM);

   2616  0 000017   200003 630500                    EPPR0   @STREAM,,AUTO
         0 000020   000017 631400 xsym               EPPR1   B_VECTNIL+15
         0 000021   000000 701000 xent               TSX1    VDA$FDETACH
         0 000022   000000 011000                    NOP     0

     1397     2617    1           IF STREAM.PORT$ ~= ADDR(NIL) THEN

   2617  0 000023   200003 470500                    LDP0    @STREAM,,AUTO
         0 000024   000001 236100                    LDQ     1,,PR0
         0 000025   000001 116000 xsym               CMPQ    B_VECTNIL+1
         0 000026   000030 600000 0                  TZE     s:2627

     1398     2618    1              ALTRETURN; /* Detach failed to do so. */

   2618  0 000027   000000 702200 xent               TSX2  ! X66_AALT

     1399     2619
     1400     2620                %CLEARKEY (KEY=STREAM.FILE_KEY);

   2627  0 000030   000004 720100                    LXL0    4,,PR0
         0 000031   000002 100003                    CMPX0   2,DU
         0 000032   000043 601000 0                  TNZ     s:2628+1

   2627  0 000033   000005 471500                    LDP1    5,,PR0
         0 000034   200004 451500                    STP1    @STREAM+1,,AUTO
PL6.E3A0      #002=VDA$FCLOSE File=VDA$FILE.:VDA5TSI                             FRI 07/04/97 11:04 Page:181
         0 000035   200004 630500                    EPPR0   @STREAM+1,,AUTO
         0 000036   000017 631400 xsym               EPPR1   B_VECTNIL+15
         0 000037   000000 701000 xent               TSX1    VDG$OFREE
         0 000040   000042 702000 0                  TSX2    s:2628
         0 000041   000043 710000 0                  TRA     s:2628+1

   2628  0 000042   000000 702200 xent               TSX2  ! X66_AALT

   2628  0 000043   200003 470500                    LDP0    @STREAM,,AUTO
         0 000044   000004 450100                    STZ     4,,PR0
         0 000045   000005 450100                    STZ     5,,PR0

     1401     2630    1           CALL VDG$OCLEAR_LOCATION (STREAM.CURRENT)

   2630  0 000046   200003 236100                    LDQ     @STREAM,,AUTO
         0 000047   000006 036003                    ADLQ    6,DU
         0 000050   200004 756100                    STQ     @STREAM+1,,AUTO
         0 000051   200004 630500                    EPPR0   @STREAM+1,,AUTO
         0 000052   000017 631400 xsym               EPPR1   B_VECTNIL+15
         0 000053   000000 701000 xent               TSX1    VDG$OCLEAR_LOCATION
         0 000054   000073 702000 0                  TSX2    OCLEAR_LOCATION_FAILED

     1402     2631    1             ALTRET (OCLEAR_LOCATION_FAILED);
     1403     2632    1           CALL VDG$OCLEAR_LOCATION (STREAM.NEXT)

   2632  0 000055   200003 236100                    LDQ     @STREAM,,AUTO
         0 000056   000017 036003                    ADLQ    15,DU
         0 000057   200004 756100                    STQ     @STREAM+1,,AUTO
         0 000060   200004 630500                    EPPR0   @STREAM+1,,AUTO
         0 000061   000017 631400 xsym               EPPR1   B_VECTNIL+15
         0 000062   000000 701000 xent               TSX1    VDG$OCLEAR_LOCATION
         0 000063   000073 702000 0                  TSX2    OCLEAR_LOCATION_FAILED

     1404     2633    1             ALTRET (OCLEAR_LOCATION_FAILED);
     1405     2634    1           STREAM.LAST_OP# = 0;

   2634  0 000064   000000 220003                    LDX0    0,DU
PL6.E3A0      #002=VDA$FCLOSE File=VDA$FILE.:VDA5TSI                             FRI 07/04/97 11:04 Page:182
         0 000065   200003 470500                    LDP0    @STREAM,,AUTO
         0 000066   000002 740100                    STX0    2,,PR0

     1406     2635    1           STREAM.PROTECT = %CLEAR;

   2635  0 000067   003100 060400                    CSL     bolr='003'O
         0 000070   000002 000001 xsym               BDSC    B_VECTNIL+2              by=0,bit=0,n=1
         0 000071   000002 400024                    BDSC    2,,PR0                   by=2,bit=0,n=20

     1407     2636
     1408     2637    1           RETURN;

   2637  0 000072   000000 702200 xent               TSX2  ! X66_ARET

   2635  0 000073                       OCLEAR_LOCA* null
     1409     2638
     1410     2639
     1411     2640    1   OCLEAR_LOCATION_FAILED: ;
     1412     2641    1           ALTRETURN;

   2641  0 000073   000000 702200 xent               TSX2  ! X66_AALT

     1413     2642
     1414     2643    1   VDA$FDELETE: ENTRY (STREAM) ALTRET;

   2643  0 000074   000000 700200 xent  VDA$FDELETE  TSX0  ! X66_AUTO_1
         0 000075   000006 000001                    ZERO    6,1

     1415     2644
     1416     2645    1           DELFID_CMD = 1; /* Tell Fdetach to delete the file */

   2645  0 000076   000001 235007                    LDA     1,DL
         0 000077   000000 755000 xsym               STA     DELFID_CMD

     1417     2646    1           GOTO COMMON;

   2646  0 000100   000002 710000 0                  TRA     COMMON
PL6.E3A0      #002=VDA$FCLOSE File=VDA$FILE.:VDA5TSI                             FRI 07/04/97 11:04 Page:183
     1418     2647
     1419     2648    1   END VDA$FCLOSE;
     1420     2649        %EOD;

PL6.E3A0      #002=VDA$FCLOSE File=VDA$FILE.:VDA5TSI                             FRI 07/04/97 11:04 Page:184
--  Include file information  --

   VD_PERR_C.:VDA5TOU  is referenced.
   VD_MACROS_M.:VDA5TOU  is referenced.
   B$JIT_C.:E04TOU  was found in the system file and is never referenced.
   CP_6_C.:E04TOU  was found in the system file and is never referenced.
      No diagnostics issued in procedure VDA$FCLOSE.
PL6.E3A0      #002=VDA$FCLOSE File=VDA$FILE.:VDA5TSI                             FRI 07/04/97 11:04 Page:185

 **** Variables and constants ****

  ****  Auto variables  ****

  ****  Scalars and arrays  ****
OctLoc.c.b A Datatyp(siz) R M Lvl/name                 OctLoc.c.b A Datatyp(siz) R M Lvl/name

     3-0-0/w PTR         r     1 @STREAM                   *0-0-0/w STRC(864)   r     1 STREAM

  ****  SYMREF variables  ****

  ****  Scalars and arrays  ****
OctLoc.c.b A Datatyp(siz) R M Lvl/name                 OctLoc.c.b A Datatyp(siz) R M Lvl/name

     0-0-0/w SBIN        r     1 DELFID_CMD                 0-0-0/w STRC(22644) r     1 VD_6E

  ****  BASED and DCB variables  ****

  ****  Scalars and arrays  ****
OctLoc.c.b A Datatyp(siz) R M Lvl/name                 OctLoc.c.b A Datatyp(siz) R M Lvl/name

     0-0-0/w ASTR(81)    r     1 VD$TEXTC_REMOTE


   Procedure VDA$FCLOSE requires 65 words for executable code.
   Procedure VDA$FCLOSE requires 6 words of local(AUTO) storage.
PL6.E3A0      #002=VDA$FCLOSE File=VDA$FILE.:VDA5TSI                             FRI 07/04/97 11:04 Page:186
          *** CROSS REFERENCE LISTING ***
**     DENOTES     IDENTIFIER DEFINITION
<<                 IDENTIFIER'S VALUE SET
>>                 IDENTIFIER'S VALUE USED
<>                 IDENTIFIER SET AND/OR USED
--                 IDENTIFIER REFERENCED
PL6.E3A0      #002=VDA$FCLOSE File=VDA$FILE.:VDA5TSI                             FRI 07/04/97 11:04 Page:187
          MINI XREF LISTING

COMMON
      2569**LABEL    2646--GOTO
DELFID_CMD
      2539**DCL      2645<<ASSIGN
OCLEAR_LOCATION_FAILED
      2635**LABEL    2630--CALLALT  2632--CALLALT
STREAM
      2397**DCL        22--PROC     2616<>CALL     2643--ENTRY
STREAM.CURRENT
      2448**DCL      2630<>CALL
STREAM.FILE_KEY
      2434**DCL      2628<<ASSIGN
STREAM.FILE_KEY.REP#
      2436**DCL      2627>>IF
STREAM.FILE_KEY.V$
      2436**DCL      2627>>CALL     2627>>CALL
STREAM.LAST_OP#
      2423**DCL      2634<<ASSIGN
STREAM.NEXT
      2476**DCL      2632<>CALL
STREAM.PORT$
      2423**DCL      2613>>IF       2617>>IF
STREAM.PROTECT
      2423**DCL      2635<<ASSIGN
VD$TEXTC_REMOTE
      2569**DCL      2627<>CALL
VD$TEXTC_REMOTE.LENGTH#
      2598**DCL      2600--IMP-SIZ  2627>>CALL
VDA$FDETACH
      2497**DCL-ENT  2616--CALL
VDG$EBREAK_ACKNOWLEDGE
      2500**DCL-ENT  2610--CALL
PL6.E3A0      #002=VDA$FCLOSE File=VDA$FILE.:VDA5TSI                             FRI 07/04/97 11:04 Page:188
VDG$OCLEAR_LOCATION
      2499**DCL-ENT  2630--CALL     2632--CALL
VDG$OFREE
      2498**DCL-ENT  2627--CALL
VD_6E.INTERRUPT.STATE#
      2535**DCL      2609>>IF

PL6.E3A0      #003=VDA$FDETACH File=VDA$FILE.:VDA5TSI                            FRI 07/04/97 11:04 Page:189
     1421        1        /*T***********************************************************/
     1422        2        /*T*                                                         */
     1423        3        /*T* Copyright (c) Bull HN Information Systems Inc., 1997    */
     1424        4        /*T*                                                         */
     1425        5        /*T***********************************************************/
     1426        6
     1427        7        /*D* NAME: VDA$FDETACH
     1428        8            PARAMETERS:
     1429        9                STREAM - A VD$STREAM; we only use STREAM.PORT$.
     1430       10            INPUT:
     1431       11            OUTPUT:
     1432       12                STREAM.PORT$'s ref count will be decremented, and if
     1433       13                    no other streams ref it, it will be freed.
     1434       14            DESCRIPTION:
     1435       15                Detach STREAM from it's .PORT$: decrement the port's ref count
     1436       16                    and close and deallocate it if appropriate (ref count = 0).
     1437       17        */
     1438       18
     1439       19        VDA$FDETACH: PROC (STREAM) ALTRET;
     1440       20
     1441       21        %INCLUDE VD_MACROS_M;
     1442     2236        %INCLUDE VD_PERR_C;
     1443     2384        %INCLUDE CP_6;
     1444     2465        %INCLUDE CP_6_SUBS;
     1445     3005
     1446     3006
     1447     3007        %VD$STREAM (NAME=STREAM, STCLASS=PARAM);
     1448     3113
     1449     3114
     1450     3115    1   DCL VDG$MONERR                  ENTRY     ALTRET;
     1451     3116    1   DCL VDG$INFOMSG                 ENTRY (4) ALTRET;
     1452     3117    1   DCL VDG$OFREE                   ENTRY (1) ALTRET;
     1453     3118    1   DCL VDG$OALLOC                  ENTRY (3) ALTRET;
     1454     3119    1   DCL VDG$ESCREECH                ENTRY (3);
     1455     3120    1   DCL VDG$MACC_FDETACH_CLOSE ENTRY (1);
     1456     3121
     1457     3122
PL6.E3A0      #003=VDA$FDETACH File=VDA$FILE.:VDA5TSI                            FRI 07/04/97 11:04 Page:190
     1458     3123        %VD_6E (STCLASS=SYMREF);
     1459     3159        %VD$NUMBER (NAME=VD_$$MON_ACC, STCLASS=SYMREF);
     1460     3204    1   DCL DELFID_CMD SBIN SYMREF;
     1461     3205
     1462     3206
     1463     3207        %FPT_CLOSE (FPTN=CONST_FPT_CLOSE, STCLASS=CONSTANT, DISP=SAVE);
     1464     3249
     1465     3250
     1466     3251
     1467     3252    1   DCL PORT$ PTR;
     1468     3253        %FPT_CLOSE (STCLASS=AUTO);
     1469     3295
     1470     3296
     1471     3297        %VD$PORT (NAME=PORT, STCLASS="BASED(PORT$)");
     1472     3395        %VD$ERR (NAME=VD$ERR, STCLASS="BASED(VD_6E.ERR_TAIL$)");
     1473     3448        %F$DCB;
     1474     3505
     1475     3506
     1476     3507
     1477     3508    1           PORT$ = STREAM.PORT$;
     1478     3509    1           STREAM.PORT$ = ADDR(NIL);
     1479     3510    1           PORT.REFS# = PORT.REFS# - 1;
     1480     3511    2           IF PORT.REFS# <= 0 OR DELFID_CMD > 0 THEN DO;
     1481     3512    3              IF PORT.DCB# ~= 0 THEN DO;
     1482     3513    3                 FPT_CLOSE = CONST_FPT_CLOSE;
     1483     3514    3                 FPT_CLOSE.V_ = VECTOR(FPT_CLOSE.V);
     1484     3515    3                 FPT_CLOSE.V.DCB# = PORT.DCB#;
     1485     3516    4                 IF DELFID_CMD > 0 THEN DO;
     1486     3517    4                    FPT_CLOSE.V.DISP# = %SCRATCH#;
     1487     3518    4                    DELFID_CMD = 0;
     1488     3519    4                    END;
     1489     3520    3                 IF NOT DCBADDR(PORT.DCB#) -> F$DCB.FCD# THEN EXIT;
     1490     3521    3                 FPT_CLOSE.V.OPER.RELG# =
     1491     3522    3                   DCBADDR(PORT.DCB#)->F$DCB.FFLG.DELF#;
     1492     3523    3                 PORT.LAST_OP# = %ACCOP_CLOSE; /* In case we altret */
     1493     3524    3                 IF VD_$$MON_ACC.V# > 10 THEN
     1494     3525    3                    CALL VDG$MACC_FDETACH_CLOSE (FPT_CLOSE.V.DCB#);
PL6.E3A0      #003=VDA$FDETACH File=VDA$FILE.:VDA5TSI                            FRI 07/04/97 11:04 Page:191
     1495     3526    4                 CALL M$CLOSE (FPT_CLOSE) WHENRETURN DO;
     1496     3527    4                    IF FPT_CLOSE.V.DISP# ~= %SCRATCH# THEN EXIT;
     1497     3528    5                    CALL VDG$INFOMSG (%E$INFO_FILE_DELETED) WHENRETURN DO;
     1498     3529    5                       VD$ERR.DCB# = FPT_CLOSE.V.DCB#;
     1499     3530    5                       END;
     1500     3531    4                    END;
     1501     3532    4                 WHENALTRETURN DO;
     1502     3533    4                    CALL VDG$MONERR;
     1503     3534    4                    END;
     1504     3535    3                 END;
     1505     3536
     1506     3537    2              IF PORT.REFS# <= 0 THEN CALL VDG$OFREE (PORT);
     1507     3538    2              END;
     1508     3539
     1509     3540    1   END VDA$FDETACH;
     1510     3541        %EOD;

PL6.E3A0      #003=VDA$FDETACH File=VDA$FILE.:VDA5TSI                            FRI 07/04/97 11:04 Page:192
--  Include file information  --

   CP_6_SUBS.:LIBRARY  is referenced.
   CP_6.:LIBRARY  cannot be made into a system file and is referenced.
   VD_PERR_C.:VDA5TOU  is referenced.
   VD_MACROS_M.:VDA5TOU  is referenced.
   B$JIT_C.:E04TOU  was found in the system file and is never referenced.
   CP_6_C.:E04TOU  was found in the system file and is referenced.
      No diagnostics issued in procedure VDA$FDETACH.

   Procedure VDA$FDETACH requires 81 words for executable code.
   Procedure VDA$FDETACH requires 38 words of local(AUTO) storage.

PL6.E3A0      #003=VDA$FDETACH File=VDA$FILE.:VDA5TSI                            FRI 07/04/97 11:04 Page:193

 Object Unit name= VDA$FDETACH                                File name= VDA$FILE.:VDA5TOU
 UTS= JUL 04 '97 11:04:52.36 FRI                              Compiler= PL-6/E31         Sev=      00
 SharedLib= :SHARED_SYSTEM                                    Alt SharedLib=


    ****  Control sections  ****

 Sect   Type Bound  Init  Size OctSiz  Section name(segment info)
    0   DCB   even  none     0      0  M$UC
    1  RoData even  UTS     30     36  VDA$FDETACH
    2   Proc  even  none    81    121  VDA$FDETACH
    3  RoData even  none     4      4  VDA$FDETACH

    ****  Entry defs  ****

                              Check   Calling
                             calling  sequence
  Sect OctLoc Primary Altret sequence   type   Parms  Name
     2      0   yes    yes     yes      Std        1  VDA$FDETACH

  ****  Entry refs  ****

         Check        Calling
        calling       sequence
Altret sequence SRef   type   Args  Name
         yes           Std       1 VDG$MACC_FDETACH_CLOSE
 yes     yes           Std       0 VDG$MONERR
 yes     yes           Std       1 VDG$OFREE
 yes     yes           Std       4 VDG$INFOMSG
                       nStd      0 X66_AUTO_1
                       Std       0 B_CONSPOOL_D
                       nStd      0 X66_ARET
PL6.E3A0      #003=VDA$FDETACH File=VDA$FILE.:VDA5TSI                            FRI 07/04/97 11:04 Page:194

  ****  Data refs  ****

  Flags:  r = read only, s = secondary
Flgs Name                             Flgs Name                             Flgs Name
     M$UC                                  VD_6E                                 VD_$$MON_ACC
     DELFID_CMD                            B_VECTNIL

  ****  Segment refs  ****

  Flags:  r = read only, s = secondary
Flgs Name                             Flgs Name                             Flgs Name
     ISSID                                 NULLSID                               ROSID
PL6.E3A0      #003=VDA$FDETACH File=VDA$FILE.:VDA5TSI                            FRI 07/04/97 11:04 Page:195


     1421        1        /*T***********************************************************/
     1422        2        /*T*                                                         */
     1423        3        /*T* Copyright (c) Bull HN Information Systems Inc., 1997    */
     1424        4        /*T*                                                         */
     1425        5        /*T***********************************************************/
     1426        6
     1427        7        /*D* NAME: VDA$FDETACH
     1428        8            PARAMETERS:
     1429        9                STREAM - A VD$STREAM; we only use STREAM.PORT$.
     1430       10            INPUT:
     1431       11            OUTPUT:
     1432       12                STREAM.PORT$'s ref count will be decremented, and if
     1433       13                    no other streams ref it, it will be freed.
     1434       14            DESCRIPTION:
     1435       15                Detach STREAM from it's .PORT$: decrement the port's ref count
     1436       16                    and close and deallocate it if appropriate (ref count = 0).
     1437       17        */
     1438       18
     1439       19        VDA$FDETACH: PROC (STREAM) ALTRET;

     19  2 000000   000000 700200 xent  VDA$FDETACH  TSX0  ! X66_AUTO_1
         2 000001   000046 000001                    ZERO    38,1

     1440       20
     1441       21        %INCLUDE VD_MACROS_M;
     1442     2236        %INCLUDE VD_PERR_C;
     1443     2384        %INCLUDE CP_6;
     1444     2465        %INCLUDE CP_6_SUBS;
     1445     3005
     1446     3006
     1447     3007        %VD$STREAM (NAME=STREAM, STCLASS=PARAM);
     1448     3113
     1449     3114
     1450     3115    1   DCL VDG$MONERR                  ENTRY     ALTRET;
     1451     3116    1   DCL VDG$INFOMSG                 ENTRY (4) ALTRET;
     1452     3117    1   DCL VDG$OFREE                   ENTRY (1) ALTRET;
PL6.E3A0      #003=VDA$FDETACH File=VDA$FILE.:VDA5TSI                            FRI 07/04/97 11:04 Page:196
     1453     3118    1   DCL VDG$OALLOC                  ENTRY (3) ALTRET;
     1454     3119    1   DCL VDG$ESCREECH                ENTRY (3);
     1455     3120    1   DCL VDG$MACC_FDETACH_CLOSE ENTRY (1);
     1456     3121
     1457     3122
     1458     3123        %VD_6E (STCLASS=SYMREF);
     1459     3159        %VD$NUMBER (NAME=VD_$$MON_ACC, STCLASS=SYMREF);
     1460     3204    1   DCL DELFID_CMD SBIN SYMREF;
     1461     3205
     1462     3206
     1463     3207        %FPT_CLOSE (FPTN=CONST_FPT_CLOSE, STCLASS=CONSTANT, DISP=SAVE);
     1464     3249
     1465     3250
     1466     3251
     1467     3252    1   DCL PORT$ PTR;
     1468     3253        %FPT_CLOSE (STCLASS=AUTO);
     1469     3295
     1470     3296
     1471     3297        %VD$PORT (NAME=PORT, STCLASS="BASED(PORT$)");
     1472     3395        %VD$ERR (NAME=VD$ERR, STCLASS="BASED(VD_6E.ERR_TAIL$)");
     1473     3448        %F$DCB;
     1474     3505
     1475     3506
     1476     3507
     1477     3508    1           PORT$ = STREAM.PORT$;

   3508  2 000002   200003 470500                    LDP0    @STREAM,,AUTO
         2 000003   000001 236100                    LDQ     1,,PR0
         2 000004   200004 756100                    STQ     PORT$,,AUTO

     1478     3509    1           STREAM.PORT$ = ADDR(NIL);

   3509  2 000005   000001 236000 xsym               LDQ     B_VECTNIL+1
         2 000006   000001 756100                    STQ     1,,PR0

     1479     3510    1           PORT.REFS# = PORT.REFS# - 1;

PL6.E3A0      #003=VDA$FDETACH File=VDA$FILE.:VDA5TSI                            FRI 07/04/97 11:04 Page:197
   3510  2 000007   200004 471500                    LDP1    PORT$,,AUTO
         2 000010   100003 220100                    LDX0    3,,PR1
         2 000011   777777 621010                    EAX1    -1,X0
         2 000012   100003 741100                    STX1    3,,PR1

     1480     3511    2           IF PORT.REFS# <= 0 OR DELFID_CMD > 0 THEN DO;

   3511  2 000013   000016 604400 2                  TMOZ    s:3512
         2 000014   000000 235000 xsym               LDA     DELFID_CMD
         2 000015   000120 604400 2                  TMOZ    s:3540

     1481     3512    3              IF PORT.DCB# ~= 0 THEN DO;

   3512  2 000016   100004 720100                    LXL0    4,,PR1
         2 000017   000111 600000 2                  TZE     s:3537

     1482     3513    3                 FPT_CLOSE = CONST_FPT_CLOSE;

   3513  2 000020   000100 100400                    MLR     fill='000'O
         2 000021   000000 000170 1                  ADSC9   CONST_FPT_CLOSE          cn=0,n=120
         2 000022   200006 000170                    ADSC9   FPT_CLOSE,,AUTO          cn=0,n=120

     1483     3514    3                 FPT_CLOSE.V_ = VECTOR(FPT_CLOSE.V);

   3514  2 000023   000000 235000 3                  LDA     0
         2 000024   200044 452500                    STP2    FPT_CLOSE+30,,AUTO
         2 000025   200044 236100                    LDQ     FPT_CLOSE+30,,AUTO
         2 000026   000040 036003                    ADLQ    32,DU
         2 000027   200006 757100                    STAQ    FPT_CLOSE,,AUTO

     1484     3515    3                 FPT_CLOSE.V.DCB# = PORT.DCB#;

   3515  2 000030   100004 720100                    LXL0    4,,PR1
         2 000031   200040 740100                    STX0    FPT_CLOSE+26,,AUTO

     1485     3516    4                 IF DELFID_CMD > 0 THEN DO;

PL6.E3A0      #003=VDA$FDETACH File=VDA$FILE.:VDA5TSI                            FRI 07/04/97 11:04 Page:198
   3516  2 000032   000000 235000 xsym               LDA     DELFID_CMD
         2 000033   000037 604400 2                  TMOZ    s:3520

     1486     3517    4                    FPT_CLOSE.V.DISP# = %SCRATCH#;

   3517  2 000034   000001 236007                    LDQ     1,DL
         2 000035   200040 552104                    STBQ    FPT_CLOSE+26,'04'O,AUTO

     1487     3518    4                    DELFID_CMD = 0;

   3518  2 000036   000000 450000 xsym               STZ     DELFID_CMD

     1488     3519    4                    END;

     1489     3520    3                 IF NOT DCBADDR(PORT.DCB#) -> F$DCB.FCD# THEN EXIT;

   3520  2 000037   000001 473400 3                  LDP3    1
         2 000040   300000 474500                    LDP4    0,,PR3
         2 000041   100004 720100                    LXL0    4,,PR1
         2 000042   400000 475510                    LDP5    0,X0,PR4
         2 000043   500031 236100                    LDQ     25,,PR5
         2 000044   020000 316007                    CANQ    8192,DL
         2 000045   000111 600000 2                  TZE     s:3537

     1490     3521    3                 FPT_CLOSE.V.OPER.RELG# =

   3521  2 000046   500004 236100                    LDQ     4,,PR5
         2 000047   000017 772000                    QRL     15
         2 000050   200040 676100                    ERQ     FPT_CLOSE+26,,AUTO
         2 000051   200000 376007                    ANQ     65536,DL
         2 000052   200040 656100                    ERSQ    FPT_CLOSE+26,,AUTO

     1491     3522    3                   DCBADDR(PORT.DCB#)->F$DCB.FFLG.DELF#;
     1492     3523    3                 PORT.LAST_OP# = %ACCOP_CLOSE; /* In case we altret */

   3523  2 000053   000003 220003                    LDX0    3,DU
         2 000054   100007 740100                    STX0    7,,PR1
PL6.E3A0      #003=VDA$FDETACH File=VDA$FILE.:VDA5TSI                            FRI 07/04/97 11:04 Page:199

     1493     3524    3                 IF VD_$$MON_ACC.V# > 10 THEN

   3524  2 000055   000003 235000 xsym               LDA     VD_$$MON_ACC+3
         2 000056   000012 115007                    CMPA    10,DL
         2 000057   000066 604400 2                  TMOZ    s:3526

     1494     3525    3                    CALL VDG$MACC_FDETACH_CLOSE (FPT_CLOSE.V.DCB#);

   3525  2 000060   200040 635500                    EPPR5   FPT_CLOSE+26,,AUTO
         2 000061   200044 455500                    STP5    FPT_CLOSE+30,,AUTO
         2 000062   200044 630500                    EPPR0   FPT_CLOSE+30,,AUTO
         2 000063   000017 631400 xsym               EPPR1   B_VECTNIL+15
         2 000064   000000 701000 xent               TSX1    VDG$MACC_FDETACH_CLOSE
         2 000065   000000 011000                    NOP     0

     1495     3526    4                 CALL M$CLOSE (FPT_CLOSE) WHENRETURN DO;

   3526  2 000066   200006 630500                    EPPR0   FPT_CLOSE,,AUTO
         2 000067   450001 713400                    CLIMB   alt,close
         2 000070   406000 401760                    pmme    nvectors=13
         2 000071   000106 702000 2                  TSX2    s:3533

     1496     3527    4                    IF FPT_CLOSE.V.DISP# ~= %SCRATCH# THEN EXIT;

   3527  2 000072   200040 236100                    LDQ     FPT_CLOSE+26,,AUTO
         2 000073   000777 376007                    ANQ     511,DL
         2 000074   000001 116007                    CMPQ    1,DL
         2 000075   000105 601000 2                  TNZ     s:3531

     1497     3528    5                    CALL VDG$INFOMSG (%E$INFO_FILE_DELETED) WHENRETURN DO;

   3528  2 000076   000003 630400 3                  EPPR0   3
         2 000077   000017 631400 xsym               EPPR1   B_VECTNIL+15
         2 000100   000000 701000 xent               TSX1    VDG$INFOMSG
         2 000101   000105 702000 2                  TSX2    s:3531

PL6.E3A0      #003=VDA$FDETACH File=VDA$FILE.:VDA5TSI                            FRI 07/04/97 11:04 Page:200
     1498     3529    5                       VD$ERR.DCB# = FPT_CLOSE.V.DCB#;

   3529  2 000102   200040 220100                    LDX0    FPT_CLOSE+26,,AUTO
         2 000103   000032 470400 xsym               LDP0    VD_6E+26
         2 000104   000004 740100                    STX0    4,,PR0

     1499     3530    5                       END;

     1500     3531    4                    END;

   3531  2 000105   000111 710000 2                  TRA     s:3537

     1501     3532    4                 WHENALTRETURN DO;

     1502     3533    4                    CALL VDG$MONERR;

   3533  2 000106   000002 631400 xsym               EPPR1   B_VECTNIL+2
         2 000107   000000 701000 xent               TSX1    VDG$MONERR
         2 000110   000000 011000                    NOP     0

     1503     3534    4                    END;

     1504     3535    3                 END;

     1505     3536
     1506     3537    2              IF PORT.REFS# <= 0 THEN CALL VDG$OFREE (PORT);

   3537  2 000111   200004 470500                    LDP0    PORT$,,AUTO
         2 000112   000003 220100                    LDX0    3,,PR0
         2 000113   000120 605400 2                  TPNZ    s:3540

   3537  2 000114   200004 630500                    EPPR0   PORT$,,AUTO
         2 000115   000017 631400 xsym               EPPR1   B_VECTNIL+15
         2 000116   000000 701000 xent               TSX1    VDG$OFREE
         2 000117   000000 011000                    NOP     0

     1507     3538    2              END;
PL6.E3A0      #003=VDA$FDETACH File=VDA$FILE.:VDA5TSI                            FRI 07/04/97 11:04 Page:201

     1508     3539
     1509     3540    1   END VDA$FDETACH;

   3540  2 000120   000000 702200 xent               TSX2  ! X66_ARET
     1510     3541        %EOD;

PL6.E3A0      #003=VDA$FDETACH File=VDA$FILE.:VDA5TSI                            FRI 07/04/97 11:04 Page:202
--  Include file information  --

   CP_6_SUBS.:LIBRARY  is referenced.
   CP_6.:LIBRARY  cannot be made into a system file and is referenced.
   VD_PERR_C.:VDA5TOU  is referenced.
   VD_MACROS_M.:VDA5TOU  is referenced.
   B$JIT_C.:E04TOU  was found in the system file and is never referenced.
   CP_6_C.:E04TOU  was found in the system file and is referenced.
      No diagnostics issued in procedure VDA$FDETACH.
PL6.E3A0      #003=VDA$FDETACH File=VDA$FILE.:VDA5TSI                            FRI 07/04/97 11:04 Page:203

 **** Variables and constants ****

  ****  Section 001 RoData VDA$FDETACH

  ****  Scalars and arrays  ****
OctLoc.c.b A Datatyp(siz) R M Lvl/name                 OctLoc.c.b A Datatyp(siz) R M Lvl/name

     0-0-0/d STRC(1080)  r     1 CONST_FPT_CLOSE

  ****  Auto variables  ****

  ****  Scalars and arrays  ****
OctLoc.c.b A Datatyp(siz) R M Lvl/name                 OctLoc.c.b A Datatyp(siz) R M Lvl/name

     3-0-0/w PTR         r     1 @STREAM                    6-0-0/d STRC(1080)  r     1 FPT_CLOSE
     4-0-0/w PTR         r     1 PORT$                     *0-0-0/w STRC(864)   r     1 STREAM

  ****  SYMREF variables  ****

  ****  Scalars and arrays  ****
OctLoc.c.b A Datatyp(siz) R M Lvl/name                 OctLoc.c.b A Datatyp(siz) R M Lvl/name

     0-0-0/w SBIN        r     1 DELFID_CMD                 0-0-0/w STRC(144)   r     1 VD_$$MON_ACC
     0-0-0/w STRC(22644) r     1 VD_6E

  ****  BASED and DCB variables  ****

  ****  Scalars and arrays  ****
OctLoc.c.b A Datatyp(siz) R M Lvl/name                 OctLoc.c.b A Datatyp(siz) R M Lvl/name

     0-0-0/d ASTR(3528)  r     1 F$DCB                      0-0-0/w STRC(1944)  r     1 PORT
     0-0-0/w STRC(180)   r     1 VD$ERR


   Procedure VDA$FDETACH requires 81 words for executable code.
   Procedure VDA$FDETACH requires 38 words of local(AUTO) storage.
PL6.E3A0      #003=VDA$FDETACH File=VDA$FILE.:VDA5TSI                            FRI 07/04/97 11:04 Page:204
          *** CROSS REFERENCE LISTING ***
**     DENOTES     IDENTIFIER DEFINITION
<<                 IDENTIFIER'S VALUE SET
>>                 IDENTIFIER'S VALUE USED
<>                 IDENTIFIER SET AND/OR USED
--                 IDENTIFIER REFERENCED
PL6.E3A0      #003=VDA$FDETACH File=VDA$FILE.:VDA5TSI                            FRI 07/04/97 11:04 Page:205
          MINI XREF LISTING

CONST_FPT_CLOSE
      3230**DCL      3513>>ASSIGN
CONST_FPT_CLOSE.SN_
      3230**DCL      3230--REDEF
CONST_FPT_CLOSE.UTL_
      3231**DCL      3231--REDEF
CONST_FPT_CLOSE.V
      3235**DCL      3230--DCLINIT
CONST_FPT_CLOSE.V.EXPIRE#
      3245**DCL      3245--REDEF
CONST_FPT_CLOSE.V.TYPE#
      3243**DCL      3243--REDEF
CONST_FPT_CLOSE.V.XTNSIZE#
      3240**DCL      3240--REDEF    3242--REDEF
DELFID_CMD
      3204**DCL      3511>>IF       3516>>IF       3518<<ASSIGN
F$DCB.ACTPOS
      3481**DCL      3481--REDEF
F$DCB.ARS#
      3455**DCL      3455--REDEF
F$DCB.ATTR
      3474**DCL      3475--REDEF
F$DCB.BORROW
      3489**DCL      3489--REDEF    3489--REDEF    3489--REDEF
F$DCB.DCBNAME.L
      3503**DCL      3503--IMP-SIZ
F$DCB.EOMCHAR#
      3459**DCL      3459--REDEF
F$DCB.FCD#
      3468**DCL      3520>>IF
F$DCB.FFLG.DELF#
      3460**DCL      3521>>ASSIGN
PL6.E3A0      #003=VDA$FDETACH File=VDA$FILE.:VDA5TSI                            FRI 07/04/97 11:04 Page:206
F$DCB.FLDID
      3484**DCL      3484--REDEF
F$DCB.FORM$
      3478**DCL      3478--REDEF
F$DCB.FSECT
      3494**DCL      3494--REDEF
F$DCB.FSN#
      3471**DCL      3471--REDEF    3471--REDEF    3472--REDEF
F$DCB.HEADER$
      3477**DCL      3477--REDEF
F$DCB.IXTNSIZE#
      3475**DCL      3475--REDEF
F$DCB.LASTSTA$
      3464**DCL      3464--REDEF
F$DCB.LVL
      3490**DCL      3490--REDEF
F$DCB.NAME#.C
      3465**DCL      3465--REDEF
F$DCB.NOEOF
      3487**DCL      3487--REDEF
F$DCB.NRECS#
      3476**DCL      3476--REDEF
F$DCB.NRECX
      3495**DCL      3495--REDEF
F$DCB.OHDR
      3487**DCL      3487--REDEF
F$DCB.ORG#
      3470**DCL      3470--REDEF
F$DCB.PRECNO
      3493**DCL      3493--REDEF
F$DCB.RCSZ
      3499**DCL      3499--REDEF
F$DCB.RES#
      3466**DCL      3466--REDEF
F$DCB.SETX
      3478**DCL      3478--REDEF
PL6.E3A0      #003=VDA$FDETACH File=VDA$FILE.:VDA5TSI                            FRI 07/04/97 11:04 Page:207
F$DCB.TAB$
      3478**DCL      3478--REDEF
F$DCB.TDA
      3492**DCL      3493--REDEF
F$DCB.WSN#
      3466**DCL      3466--REDEF
FPT_CLOSE
      3276**DCL      3513<<ASSIGN   3526<>CALL
FPT_CLOSE.SN_
      3276**DCL      3276--REDEF
FPT_CLOSE.UTL_
      3277**DCL      3277--REDEF
FPT_CLOSE.V
      3281**DCL      3514--ASSIGN
FPT_CLOSE.V.DCB#
      3282**DCL      3515<<ASSIGN   3525<>CALL     3529>>ASSIGN
FPT_CLOSE.V.DISP#
      3285**DCL      3517<<ASSIGN   3527>>IF
FPT_CLOSE.V.EXPIRE#
      3291**DCL      3291--REDEF
FPT_CLOSE.V.OPER.RELG#
      3282**DCL      3521<<ASSIGN
FPT_CLOSE.V.TYPE#
      3289**DCL      3289--REDEF
FPT_CLOSE.V.XTNSIZE#
      3286**DCL      3286--REDEF    3288--REDEF
FPT_CLOSE.V_
      3276**DCL      3514<<ASSIGN
M$CLOSE
      2393**DCL-ENT  3526--CALL
PORT
      3305**DCL      3537<>CALL
PORT.DCB#
      3332**DCL      3512>>IF       3515>>ASSIGN   3520--IF       3521--ASSIGN
PORT.LAST_OP#
      3333**DCL      3523<<ASSIGN
PL6.E3A0      #003=VDA$FDETACH File=VDA$FILE.:VDA5TSI                            FRI 07/04/97 11:04 Page:208
PORT.REFS#
      3331**DCL      3510<<ASSIGN   3510>>ASSIGN   3511>>IF       3537>>IF
PORT$
      3252**DCL      3305--IMP-PTR  3508<<ASSIGN   3510>>ASSIGN   3510>>ASSIGN   3511>>IF       3512>>IF
      3515>>ASSIGN   3520>>IF       3521>>ASSIGN   3523>>ASSIGN   3537>>IF       3537>>CALL
STREAM
      3015**DCL        19--PROC
STREAM.PORT$
      3041**DCL      3508>>ASSIGN   3509<<ASSIGN
VD$ERR.DCB#
      3445**DCL      3529<<ASSIGN
VDG$INFOMSG
      3116**DCL-ENT  3528--CALL
VDG$MACC_FDETACH_CLOSE
      3120**DCL-ENT  3525--CALL
VDG$MONERR
      3115**DCL-ENT  3533--CALL
VDG$OFREE
      3117**DCL-ENT  3537--CALL
VD_$$MON_ACC.V#
      3201**DCL      3524>>IF
VD_6E.ERR_TAIL$
      3155**DCL      3403--IMP-PTR  3529>>ASSIGN

PL6.E3A0      #004=VDA$FREKEY File=VDA$FILE.:VDA5TSI                             FRI 07/04/97 11:05 Page:209
     1511        1        /*T***********************************************************/
     1512        2        /*T*                                                         */
     1513        3        /*T* Copyright (c) Bull HN Information Systems Inc., 1997    */
     1514        4        /*T*                                                         */
     1515        5        /*T***********************************************************/
     1516        6
     1517        7        /*D* NAME: VDA$FREKEY
     1518        8            PARAMETERS:
     1519        9                SRC_STREAM - VD$STREAM for the source operand.  Must be open
     1520       10                    to a file.
     1521       11                DEST_STREAM - VD$STREAM for the destination operand.  Must be
     1522       12                    open to the same file (and therefore same VD$PORT) as SRC_STREAM.
     1523       13                KEY_INCR - VD$KEY specifying the increment to use.  Caller
     1524       14                    must have already checked for 0-value, tried $BY, etc.
     1525       15                    KEY_INCR must not have a 0-value.
     1526       16                HOLE - Optional SBIN indicating how big a hole to leave
     1527       17                    at HOLE_KEY.
     1528       18                HOLE_KEY - VD$KEY_NUMBER present only if HOLE is.
     1529       19            INPUT:
     1530       20                VD_6E.WINDOWS$ - Ptr to VD$STREAM which is open to the Windows
     1531       21                    internal file.
     1532       22            OUTPUT:
     1533       23                SRC_STREAM and DEST_STREAM will still be open to the same
     1534       24                    file, but it will be a new incarnation of the file.
     1535       25                All windows open to the SRC_STREAM/DEST_STREAM's port will
     1536       26                    be VDP$WERASE'd.
     1537       27            DESCRIPTION:
     1538       28                SRC_STREAM and DEST_STREAM must be open to the same port.
     1539       29                Cycle thru the Windows file:  for any window open to a
     1540       30                    stream which is open to this port, call VDP$WERASE
     1541       31                    to erase the window.  This serves several purposes:
     1542       32                    o Speeds up the rekey, 'cause when we call VDA$PFLUSH,
     1543       33                        it'll call VDP$RWRITE, which'll search the Windows
     1544       34                        file for windows open to this file, and try to
     1545       35                        update their screens with the "new" records.  By
     1546       36                        VDP$WERASE'ing first, VDP$RWRITE won't find any
     1547       37                        windows which need updating.
PL6.E3A0      #004=VDA$FREKEY File=VDA$FILE.:VDA5TSI                             FRI 07/04/97 11:05 Page:210
     1548       38                    o Good basis for error recovery.  If we get an error
     1549       39                        anytime in this process, we can just clean up the
     1550       40                        port (restore its PORT.DCB#) and altreturn:
     1551       41                        the Presenter will refill the erased windows from
     1552       42                        disk, assuring the user sees exactly the mess we
     1553       43                        left out there.
     1554       44                Build a (chain of) VD$XLATE_LOCATIONS table(s), containing any
     1555       45                    record keys for the file being rekeyed, referenced by the Windows
     1556       46                    or Locations files or the source operand.  This is a "fix-up
     1557       47                    table", which we'll fill in with new record keys as we rekey
     1558       48                    the file, and which we'll use to fix up the record keys in our
     1559       49                    internal files after the rekey operation is done.
     1560       50                Flush the port first, to write any modified records to the file.
     1561       51                Close the port (=source) DCB and reopen it for input using FSA.
     1562       52                Allocate a new DCB, and store its # in the port.
     1563       53                Open the new (=dest) DCB to the same file as the source DCB, with
     1564       54                    FUN=CREATE, EXIST=NEWFILE (can't use FSA for this, 'cause FSA
     1565       55                    can't create keyed files).
     1566       56                Copy all records from the source DCB to the new DCB, writing them
     1567       57                    with keys starting at KEY_INCR and incremented by KEY_INCR.
     1568       58                    As we step thru the file, we're also stepping thru the sorted
     1569       59                    VD$XLATE_LOCATIONS tables.  For all the entries in the xlate tables
     1570       60                    between each existing record in the file, store the record's
     1571       61                    new record key in the entries.  (This handles record keys in the
     1572       62                    xlate tables for both existing and non-existent records.)
     1573       63                Close the source DCB and OFREE it.
     1574       64                Clear the Port location (PORT.CURRENT), to indicate that the
     1575       65                    destination DCB is now positioned at BOF.
     1576       66                Close the destination DCB and reopen it in the mode specified by
     1577       67                    the port.
     1578       68                Call VDG$XLATE_LOCATIONS to fix up all references to record keys in
     1579       69                    the internal files.
     1580       70
     1581       71                                     !!WARNING!!
     1582       72                    Careful attention must be paid to error situtations in
     1583       73                    this routine.  If errors aren't handled correctly, a
     1584       74                    simple error (such as a record longer than %MXNB_DATA)
PL6.E3A0      #004=VDA$FREKEY File=VDA$FILE.:VDA5TSI                             FRI 07/04/97 11:05 Page:211
     1585       75                    or even what is normally considered an unrecoverable error
     1586       76                    (such as failure of VDG$OALLOC due to running out of memory)
     1587       77                    can cause all or most of the file being rekeyed to
     1588       78                    disappear.  Not a nice thing to do to the user.
     1589       79
     1590       80                    The code at ABORT_REKEY handles most error recovery
     1591       81                    situations.  Once the destination DCB has been opened,
     1592       82                    any errors should GOTO ABORT_REKEY, until the entire file
     1593       83                    has been copied to the destination DCB.
     1594       84        */
     1595       85
     1596       86        VDA$FREKEY: PROC (SRC_STREAM, DEST_STREAM, KEY_INCR, HOLE, HOLE_KEY) ALTRET;
     1597       87
     1598       88        %INCLUDE VD_MACROS_M;
     1599     2303        %INCLUDE VD_PERR_C;
     1600     2451        %INCLUDE CP_6;
     1601     2532        %INCLUDE CP_6_SUBS;
     1602     3072        %INCLUDE B_ERRORS_C;
     1603     4198        %INCLUDE XS_MACRO_C;
     1604     4242
     1605     4243
     1606     4244        %VD$STREAM (NAME=SRC_STREAM, STCLASS=PARAM);
     1607     4350        %VD$STREAM (NAME=DEST_STREAM, STCLASS=PARAM);
     1608     4456        %VD$KEY_NUMBER (NAME=KEY_INCR, STCLASS=PARAM);
     1609     4471    1   DCL HOLE SBIN;
     1610     4472        %VD$KEY_NUMBER (NAME=HOLE_KEY, STCLASS=PARAM);
     1611     4487
     1612     4488
     1613     4489    1   DCL VDP$WERASE          ENTRY (1) ALTRET;
     1614     4490    1   DCL VDA$PWRITE          ENTRY (4) ALTRET;
     1615     4491    1   DCL VDA$PFLUSH          ENTRY (2) ALTRET;
     1616     4492    1   DCL VDA$FCLOSE          ENTRY (1) ALTRET;
     1617     4493    1   DCL VDG$XLATE_LOCATIONS ENTRY (2) ALTRET;
     1618     4494    1   DCL VDG$OALLOC          ENTRY (3) ALTRET;
     1619     4495    1   DCL VDG$OALLOC_DCB      ENTRY (1) ALTRET;
     1620     4496    1   DCL VDG$OFREE           ENTRY (1) ALTRET;
     1621     4497    1   DCL VDG$OFREE_DCB       ENTRY (1) ALTRET;
PL6.E3A0      #004=VDA$FREKEY File=VDA$FILE.:VDA5TSI                             FRI 07/04/97 11:05 Page:212
     1622     4498    1   DCL VDG$OCLEAR_LOCATION ENTRY (1) ALTRET;
     1623     4499    1   DCL VDG$OCOPY           ENTRY (2) ALTRET;
     1624     4500    1   DCL VDG$ESCREECH        ENTRY (3);
     1625     4501    1   DCL VDG$EBREAK_ACKNOWLEDGE ENTRY (1);
     1626     4502    1   DCL VDG$ERRMSG          ENTRY (4) ALTRET;
     1627     4503    1   DCL VDG$MONERR          ENTRY     ALTRET;
     1628     4504    1   DCL VDG$MACC_FREKEY_CLOSE_ORIG ENTRY (1);
     1629     4505    1   DCL VDG$MACC_FREKEY_OPEN_SRC_XSA ENTRY (2);
     1630     4506    1   DCL VDG$MACC_FREKEY_OPEN_DEST ENTRY (3);
     1631     4507    1   DCL VDG$MACC_FREKEY_PWRITE ENTRY (2);
     1632     4508    1   DCL VDG$MACC_FREKEY_CLOSE_SRC_XSA ENTRY (1);
     1633     4509    1   DCL VDG$MACC_FREKEY_CLOSE_DEST ENTRY (1);
     1634     4510    1   DCL VDG$MACC_FREKEY_REOPEN_DEST ENTRY (1);
     1635     4511    1   DCL VDG$MACC_FREKEY_REOPEN_SRC ENTRY (1);
     1636     4512        %XSA_ENTRIES;
     1637     4516
     1638     4517
     1639     4518        %VD_6E (STCLASS=SYMREF);
     1640     4554        %VD$NUMBER (NAME=VD_$BY, STCLASS=SYMREF);
     1641     4599        %VD$NUMBER (NAME=VD_$$MON_ACC, STCLASS=SYMREF);
     1642     4644        %VD_KEY (NAME=VD_KEY_NUMERIC_BOF, STCLASS=SYMREF,
     1643     4645                    ITYPE=%KT_NUMBER, IREP=%REP_LOCAL);
     1644     4681
     1645     4682
     1646     4683        %FPT_OPEN (FPTN=CONST_FPT_OPEN, STCLASS=CONSTANT,
     1647     4684            ASN=FILE, CTG=NO, DISP=NAMED, ORG=KEYED);
     1648     4793        %FPT_READ (FPTN=CONST_FPT_READ, STCLASS=CONSTANT, KEYR=YES);
     1649     4832        %FPT_CLOSE (FPTN=CONST_FPT_CLOSE, STCLASS=CONSTANT, DISP=SAVE);
     1650     4874        %XSA_PARAM (FPTN=SRC_XSA);
     1651     4904
     1652     4905
     1653     4906
     1654     4907    1   DCL SRC_XSA_DATA$ PTR;
     1655     4908    1   DCL SRC_XSA_KEY$ PTR;
     1656     4909    1   DCL VD_ERR$ PTR;
     1657     4910    1   DCL WINDOWS_L0_NODE$ PTR;
     1658     4911    1   DCL L1_NODE$ PTR;
PL6.E3A0      #004=VDA$FREKEY File=VDA$FILE.:VDA5TSI                             FRI 07/04/97 11:05 Page:213
     1659     4912    1   DCL WINDOW_SPEC$ PTR;
     1660     4913    1   DCL SRC_DCB UBIN HALF ALIGNED;
     1661     4914    1   DCL SRC_DCB$ PTR;
     1662     4915        %FPT_CLOSE (STCLASS=AUTO);
     1663     4957        %FPT_OPEN (STCLASS=AUTO);
     1664     5066        %VLP_SN (STCLASS=AUTO);
     1665     5079        %FPT_READ (STCLASS=AUTO);
     1666     5118        %VD$TEXTC_NUMBER (NAME=READ_KEY, STCLASS=AUTO);
     1667     5132    1   DCL VD_BUFFER$ PTR;
     1668     5133        %VD$SPEC_LOCAL (NAME=SPEC, STCLASS=AUTO);
     1669     5148    1   DCL EOF BIT(1) ALIGNED;
     1670     5149        %VD$KEY_NUMBER (NAME=ACTUAL_KEY_INCR, STCLASS=AUTO);
     1671     5164        %VD$KEY_NUMBER (NAME=ACTUAL$KEY_INCR REDEF ACTUAL_KEY_INCR, STCLASS=);
     1672     5179    1   DCL HOLE# SBIN;
     1673     5180    1   DCL PORT_KEY$ PTR;
     1674     5181    1   DCL XLATE_LOCATIONS_ROOT$ PTR;
     1675     5182    1   DCL CURR_XLATE_TABLE$ PTR;
     1676     5183    1   DCL CURR_XLATE SBIN;
     1677     5184
     1678     5185
     1679     5186        %VD$PORT (NAME=PORT, STCLASS="BASED(DEST_STREAM.PORT$)");
     1680     5284        %VD$FILE_NODE (NAME=WINDOWS$L0_NODE, STCLASS="BASED(WINDOWS_L0_NODE$)");
     1681     5377        %VD$FILE_NODE (NAME=L1$NODE, STCLASS="BASED(L1_NODE$)");
     1682     5470        %VD$WINDOW_SPEC (NAME=WINDOW$SPEC, STCLASS="BASED(WINDOW_SPEC$)");
     1683     5536        %F$DCB (DCBN=SRC$DCB, STCLASS="BASED(SRC_DCB$)");
     1684     5593        %VD$BUFFER (NAME=SRC$XSA_DATA, STCLASS="BASED(SRC_XSA_DATA$)");
     1685     5651        %VD$BUFFER (NAME=SRC$XSA_KEY, STCLASS="BASED(SRC_XSA_KEY$)");
     1686     5709        %VD$BUFFER (NAME=VD$BUFFER, STCLASS="BASED(VD_BUFFER$)");
     1687     5767        %VD$XLATE_LOCATIONS (NAME=CURR$XLATE_TABLE,
     1688     5768            STCLASS="BASED(CURR_XLATE_TABLE$)");
     1689     5904        %VD$KEY_NUMBER (NAME=BKEY, STCLASS=BASED);
     1690     5919        %VD$ERR (NAME=VD$ERR, STCLASS="BASED(VD_6E.ERR_TAIL$)");
     1691     5972        %VD$STREAM;
     1692     6078        %VD$PORT;
     1693     6176        %VD$TEXTC_REMOTE;
     1694     6237        %VD$BUFFER_HEADER;
     1695     6273        %VD$FIT;
PL6.E3A0      #004=VDA$FREKEY File=VDA$FILE.:VDA5TSI                             FRI 07/04/97 11:05 Page:214
     1696     6309        %F$DCB;
     1697     6366
     1698     6367
     1699     6368
     1700     6369    1           SRC_XSA_DATA$ = ADDR(NIL);
     1701     6370    1           SRC_XSA_KEY$ = ADDR(NIL);
     1702     6371    1           VD_ERR$ = VD_6E.ERR_TAIL$;
     1703     6372    1           HOLE# = 0;
     1704     6373    1           IF ADDR(HOLE) ~= ADDR(NIL) THEN HOLE# = HOLE;
     1705     6374
     1706     6375    2           IF VD_6E.INTERRUPT.STATE# = %INST_BREAK_QUEUED THEN DO;
     1707     6376    2              CALL VDG$EBREAK_ACKNOWLEDGE (%E$BREAK_HIT);
     1708     6377    2              ALTRETURN;
     1709     6378    2              END;
     1710     6379
     1711     6380    1           IF SRC_STREAM.PORT$ ~= DEST_STREAM.PORT$
     1712     6381    1             OR SRC_STREAM.PORT$ = ADDR(NIL)
     1713     6382    2             OR PORT.EXIST# = 0 THEN DO;
     1714     6383    2              CALL VDG$ESCREECH;
     1715     6384    2              GOTO REKEY_FAILED;
     1716     6385    2              END;
     1717     6386
     1718     6387    1           IF DEST_STREAM.PROTECT (%LVL_LOWER) ~= %CLEAR
     1719     6388    1             OR PORT.INTRINSIC_PROTECT
     1720     6389    1             OR PORT.DCB# = 0
     1721     6390    1             OR (PORT.LEVEL.ORG# (%LVL_LOWER) ~= %ORG_KEYED
     1722     6391    1             AND PORT.LEVEL.ORG# (%LVL_LOWER) ~= %ORG_CONSEC)
     1723     6392    2             OR PORT.LEVEL.KEY_TYPE# (%LVL_LOWER) = %KT_STRING THEN DO;
     1724     6393    2   CANT_REKEY_FILE_FAILURE:;
     1725     6394    2              CALL VDG$ERRMSG (%E$CANT_REKEY_FILE) ALTRET (REKEY_FAILED);
     1726     6395    2              VD$ERR.DCB# = PORT.DCB#;
     1727     6396    2              ALTRETURN;
     1728     6397    2              END;
     1729     6398
     1730     6399    1           SRC_DCB = PORT.DCB#;
     1731     6400    1           SRC_DCB$ = DCBADDR(SRC_DCB);
     1732     6401
PL6.E3A0      #004=VDA$FREKEY File=VDA$FILE.:VDA5TSI                             FRI 07/04/97 11:05 Page:215
     1733     6402                /* Make sure KEY_INCR increment will fit into key space */
     1734     6403    1           ACTUAL_KEY_INCR = KEY_INCR;
     1735     6404    2           IF ACTUAL_KEY_INCR.BYTES# = 0 THEN DO;
     1736     6405    2              ACTUAL_KEY_INCR.BYTES# = VD_$BY.V#;
     1737     6406    2              ACTUAL_KEY_INCR.LENGTH# = 3;
     1738     6407    2              END;
     1739     6408    1           IF SRC$DCB.NRECS# > 0 THEN
     1740     6409    2           DO WHILE ACTUAL$KEY_INCR.BYTES# >=
     1741     6410    2             %MX_EDITKEY/(SRC$DCB.NRECS#+HOLE#);
     1742     6411    2              ACTUAL$KEY_INCR.BYTES# = ACTUAL$KEY_INCR.BYTES# / 10;
     1743     6412    2              IF ACTUAL$KEY_INCR.BYTES# = 0 THEN
     1744     6413    2                 GOTO CANT_REKEY_FILE_FAILURE;
     1745     6414    2              END;
     1746     6415
     1747     6416    1           WINDOWS_L0_NODE$ = VD_6E.WINDOWS$ -> VD$STREAM.PORT$ ->
     1748     6417    1             VD$PORT.LEVEL.INTERNAL$ (%LVL_FILE);
     1749     6418    1           L1_NODE$ = WINDOWS$L0_NODE.HEAD$;
     1750     6419    1   ERASE_WINDOWS:
     1751     6420    2           DO WHILE L1_NODE$ ~= ADDR(NIL);
     1752     6421    2              WINDOW_SPEC$ = L1$NODE.DESC.SPEC.V$;
     1753     6422    2              IF WINDOW_SPEC$ ~= ADDR(NIL) THEN
     1754     6423    2                 IF WINDOW$SPEC.OPERAND.STREAM$ ~= ADDR(NIL) THEN
     1755     6424    2                    IF WINDOW$SPEC.OPERAND.STREAM$->VD$STREAM.PORT$ =
     1756     6425    3                      ADDR(PORT) THEN DO;
     1757     6426    3                       CALL VDP$WERASE (WINDOW$SPEC)
     1758     6427    3                         ALTRET (REKEY_FAILED);
     1759     6428    3                       END;
     1760     6429    2              L1_NODE$ = L1$NODE.FLINK$;
     1761     6430    2              END ERASE_WINDOWS;
     1762     6431
     1763     6432                /*
     1764     6433                *   Build the xlate tables containing all current refs to file.
     1765     6434                *   These record keys must be built in ascending order.
     1766     6435                */
     1767     6436    1           CALL VDG$OALLOC (%CLS_XLATE_LOCATIONS, XLATE_LOCATIONS_ROOT$,
     1768     6437    1             SIZEW(CURR$XLATE_TABLE) +
     1769     6438    1             (SIZEW(CURR$XLATE_TABLE.XLATES) * %N_LOCATION_XLATES))
PL6.E3A0      #004=VDA$FREKEY File=VDA$FILE.:VDA5TSI                             FRI 07/04/97 11:05 Page:216
     1770     6439    1             ALTRET (REKEY_FAILED);
     1771     6440    1           CURR_XLATE_TABLE$ = XLATE_LOCATIONS_ROOT$;
     1772     6441                %COPYKEY (FKEY=PORT.FILE_KEY, TKEY=CURR$XLATE_TABLE.FILE_KEY);
     1773     6457    1           CURR$XLATE_TABLE.LEVEL# = %LVL_EXT_REC;
     1774     6458
     1775     6459    1           CALL VDG$XLATE_LOCATIONS (CURR$XLATE_TABLE, %XLATE_BUILD)
     1776     6460    1             ALTRET (REKEY_FAILED);
     1777     6461
     1778     6462
     1779     6463    1           CALL VDA$PFLUSH (PORT)
     1780     6464    1             ALTRET (REKEY_FAILED);
     1781     6465                /*
     1782     6466                *   Clear the Port's level registers:  we'll be switching it to a
     1783     6467                *       different DCB.
     1784     6468                */
     1785     6469                %CLEARSPEC (SPEC=PORT.LEVEL.SPEC, INDX="%LVL_LOWER-1");
     1786     6479    2           IF PORT.LEVEL.DATA$ (%LVL_LOWER-1) ~= ADDR(NIL) THEN DO;
     1787     6480    2              CALL VDG$OFREE (PORT.LEVEL.DATA$ (%LVL_LOWER-1) -> VD$BUFFER)
     1788     6481    2                ALTRET (REKEY_FAILED);
     1789     6482    2              PORT.LEVEL.DATA$ (%LVL_LOWER-1) = ADDR(NIL);
     1790     6483    2              END;
     1791     6484
     1792     6485    1           FPT_CLOSE = CONST_FPT_CLOSE;
     1793     6486    1           FPT_CLOSE.V_ = VECTOR(FPT_CLOSE.V);
     1794     6487    1           FPT_CLOSE.V.DCB# = SRC_DCB;
     1795     6488    1           IF VD_$$MON_ACC.V# > 10 THEN
     1796     6489    1              CALL VDG$MACC_FREKEY_CLOSE_ORIG (FPT_CLOSE.V.DCB#);
     1797     6490    1           CALL M$CLOSE (FPT_CLOSE)
     1798     6491    1             ALTRET (CLOSE_SRC_FAILED);
     1799     6492
     1800     6493    1           FPT_OPEN = CONST_FPT_OPEN;
     1801     6494    1           FPT_OPEN.V_ = VECTOR(FPT_OPEN.V);
     1802     6495    1           FPT_OPEN.V.ACS# = %SEQUEN#;
     1803     6496    1           FPT_OPEN.V.DCB# = SRC_DCB;
     1804     6497    1           FPT_OPEN.V.FUN# = %IN#;
     1805     6498    1           CALL XSA$OPEN (FPT_OPEN, SRC_XSA)
     1806     6499    1             ALTRET (OPEN_SRC_XSA_FAILED);
PL6.E3A0      #004=VDA$FREKEY File=VDA$FILE.:VDA5TSI                             FRI 07/04/97 11:05 Page:217
     1807     6500    1           IF VD_$$MON_ACC.V# > 10 THEN
     1808     6501    1              CALL VDG$MACC_FREKEY_OPEN_SRC_XSA (FPT_OPEN.V.DCB#, SRC_XSA.ORG);
     1809     6502    2           IF SRC_XSA.ORG ~= 0 THEN DO;
     1810     6503                   /* Allocate data-granule buffer */
     1811     6504    2              CALL VDG$OALLOC (%CLS_BUFFER, SRC_XSA_DATA$,
     1812     6505    2                SIZEW(VD$BUFFER_HEADER) + %NW_FSA_DATA_BUFFER)
     1813     6506    2                ALTRET (REKEY_FAILED);
     1814     6507    2              SRC_XSA.BBUF_.BUF$ = PALIGNW(ADDR(SRC$XSA_DATA.BYTES));
     1815     6508    2              SRC_XSA.BBUF_.BOUND = (%NW_FSA_DATA_BUFFER *
     1816     6509    2                %NB_PER_WORD) - 1;
     1817     6510                   /* Allocate key-granule buffer */
     1818     6511    2              CALL VDG$OALLOC (%CLS_BUFFER, SRC_XSA_KEY$,
     1819     6512    2                SIZEW(VD$BUFFER_HEADER) + %NW_FSA_KEY_BUFFER)
     1820     6513    2                ALTRET (REKEY_FAILED);
     1821     6514    2              SRC_XSA.KBUF_.BUF$ = PALIGNW(ADDR(SRC$XSA_KEY.BYTES));
     1822     6515    2              SRC_XSA.KBUF_.BOUND = (%NW_FSA_KEY_BUFFER *
     1823     6516    2                %NB_PER_WORD) - 1;
     1824     6517    2              END;
     1825     6518
     1826     6519
     1827     6520                /* Switch port to destination DCB */
     1828     6521    1           CALL VDG$OALLOC_DCB (PORT.DCB#)
     1829     6522    1             ALTRET (REKEY_FAILED);
     1830     6523
     1831     6524
     1832     6525        /*      Remember to change the ORG# in the PORT block to
     1833     6526                the ORG of the destination DCB when we switch the port. */
     1834     6527
     1835     6528    1           PORT.LEVEL.ORG# (%LVL_EXT_REC) = %ORG_KEYED;
     1836     6529    1           PORT.LEVEL.KEY_TYPE# (%LVL_EXT_REC) = %KT_EDITKEY;
     1837     6530
     1838     6531        /*****************************************************************************
     1839     6532        *                                                                            *
     1840     6533        *                               !! WARNING !!                                *
     1841     6534        *              Any errors from here on must GOTO ABORT_REKEY.                *
     1842     6535        *                                                                            *
     1843     6536        *                                                                            */
PL6.E3A0      #004=VDA$FREKEY File=VDA$FILE.:VDA5TSI                             FRI 07/04/97 11:05 Page:218
     1844     6537
     1845     6538    1           FPT_OPEN.V.INITZ.SCRUB# = %YES#;
     1846     6539    1           FPT_OPEN.V.ACS# = %DIRECT#;
     1847     6540    1           FPT_OPEN.V.DCB# = PORT.DCB#;
     1848     6541    1           FPT_OPEN.V.FUN# = %CREATE#;
     1849     6542    1           FPT_OPEN.ACCT_ = VECTOR(SRC$DCB.ACCT#);
     1850     6543    1           FPT_OPEN.NAME_ = VECTOR(SRC$DCB.NAME#);
     1851     6544    1           VLP_SN.NUM# = 1;
     1852     6545    1           VLP_SN.SN#(0) = SRC$DCB.PSN#;
     1853     6546    1           FPT_OPEN.SN_ = VECTOR(VLP_SN);
     1854     6547    1           FPT_OPEN.IFPARAM_ = VECTOR(PORT.FIT$->VD$FIT.FIT);
     1855     6548    1           IF VD_$$MON_ACC.V# > 10 THEN
     1856     6549    1              CALL VDG$MACC_FREKEY_OPEN_DEST (FPT_OPEN.V.DCB#,
     1857     6550    1                SRC$DCB.NAME#, SRC$DCB.ACCT#);
     1858     6551    1           CALL M$OPEN (FPT_OPEN)
     1859     6552    2           WHENALTRETURN DO;
     1860     6553    2              CALL VDG$MONERR;
     1861     6554    2              GOTO ABORT_REKEY;
     1862     6555    2              END;
     1863     6556    1           PORT.LAST_OP# = %ACCOP_OPEN;
     1864     6557
     1865     6558                %BOX (TITLE="Copy records to new DCB");

              6570    1   /***************************************************************************
              6572    1    *                                                                         *
              6576    1            *                          Copy records to new DCB                        *
              6578    1            *                                                                         *
              6580    1           ***************************************************************************/

     1866     6584
     1867     6585    1           CURR_XLATE_TABLE$ = XLATE_LOCATIONS_ROOT$;
     1868     6586    1           CURR_XLATE = 0;
     1869     6587    1           IF ADDR(CURR$XLATE_TABLE.XLATES.OLD_KEY_LO(CURR_XLATE))->BKEY.BYTES# =
     1870     6588    2             VD_KEY_NUMERIC_BOF.BYTES# THEN DO;
     1871     6589                   /* "Virtual" BOF key is always xlated to itself */
     1872     6590    2              CURR$XLATE_TABLE.XLATES.NEW_KEY (CURR_XLATE) = VD_KEY_NUMERIC_BOF;
     1873     6591    2              CURR_XLATE = CURR_XLATE + 1;
PL6.E3A0      #004=VDA$FREKEY File=VDA$FILE.:VDA5TSI                             FRI 07/04/97 11:05 Page:219
     1874     6592    2              END;
     1875     6593
     1876     6594    1           FPT_READ = CONST_FPT_READ;
     1877     6595    1           FPT_READ.V_ = VECTOR(FPT_READ.V);
     1878     6596    1           FPT_READ.KEY_ = VECTOR(READ_KEY);
     1879     6597    1           FPT_READ.V.DCB# = SRC_DCB;
     1880     6598    1           SPEC = %CLEAR;
     1881     6599    1           SPEC.TYPE# = %SPT_EXT_RECORD;
     1882     6600    1           SPEC.REP# = %REP_LOCAL;
     1883     6601    1           SPEC.LENGTH# = 1;   /* DVBYTE is 1 character */
     1884     6602    1           CALL READ_SRC_RECORD (VD_BUFFER$, SPEC.BYTES, EOF)
     1885     6603    1             ALTRET (ABORT_REKEY);
     1886     6604
     1887     6605    1           CALL VDG$OCLEAR_LOCATION (PORT.CURRENT)
     1888     6606    1             ALTRET (ABORT_REKEY);
     1889     6607    1           PORT.CURRENT.KEY(%LVL_EXT_REC-1) = ACTUAL_KEY_INCR;
     1890     6608
     1891     6609    1   COPY_RECORDS:
     1892     6610    2           DO WHILE NOT EOF;
     1893     6611    3              IF VD_6E.INTERRUPT.STATE# = %INST_BREAK_QUEUED THEN DO;
     1894     6612    3                 CALL VDG$EBREAK_ACKNOWLEDGE (%E$BREAK_HIT);
     1895     6613    3                 GOTO ABORT_REKEY;
     1896     6614    3                 END;
     1897     6615    2              IF VD_$$MON_ACC.V# > 10 THEN
     1898     6616    2                 CALL VDG$MACC_FREKEY_PWRITE (PORT, VD$BUFFER);
     1899     6617    2              CALL VDA$PWRITE (PORT, %LVL_EXT_REC, , VD$BUFFER)
     1900     6618    3              WHENALTRETURN DO;
     1901     6619    3                 CALL VDG$OFREE (VD$BUFFER);   /* Ignore altreturn */
     1902     6620    3                 GOTO ABORT_REKEY;
     1903     6621    3                 END;
     1904     6622                   /*
     1905     6623                   *   When we copy a record to the new (=Port's) file, VDA$PWRITE
     1906     6624                   *       will compare what we write with what's already in the
     1907     6625                   *       Port's registers; if the Port currently holds the first
     1908     6626                   *       record of the file, VDA$PWRITE will find the record we're
     1909     6627                   *       writing equal to the record in the Port and will basically
     1910     6628                   *       ignore the write (won't set .x_MODIFIED).
PL6.E3A0      #004=VDA$FREKEY File=VDA$FILE.:VDA5TSI                             FRI 07/04/97 11:05 Page:220
     1911     6629                   *   So, we set the _MODIFIED bit here, to force VDA$PFLUSH to write
     1912     6630                   *       the record out to the file.
     1913     6631                   *   Test case for this:  BO CURR<CR> REKEY<CR> loses first record in
     1914     6632                   *       file.
     1915     6633                   */
     1916     6634    2              PORT.LEVEL.DATA_MODIFIED (%LVL_EXT_REC) = %TRUE;
     1917     6635    2              CALL VDA$PFLUSH (PORT, %TO_PRESENTER)
     1918     6636    2                ALTRET (ABORT_REKEY);
     1919     6637
     1920     6638                   /*
     1921     6639                   *   Search CURR$XLATE_TABLE forward from CURR_XLATE, looking for
     1922     6640                   *       READ_KEY or (one entry shy of) the next higher key.  For each
     1923     6641                   *       xlate entry found, store PORT$KEY.BYTES# in the entry.
     1924     6642                   */
     1925     6643    2   SCAN_XLATE_TABLES:
     1926     6644    3              DO WHILE CURR_XLATE_TABLE$ ~= ADDR(NIL);
     1927     6645    4                 DO WHILE CURR_XLATE < CURR$XLATE_TABLE.N_ENTRIES#;
     1928     6646    4                    IF ADDR(CURR$XLATE_TABLE.XLATES.OLD_KEY_LO(CURR_XLATE)) ->
     1929     6647    4                      BKEY.BYTES# > READ_KEY.BYTES# THEN
     1930     6648    4                       EXIT SCAN_XLATE_TABLES;    /* Done til next record */
     1931     6649    4                    CURR$XLATE_TABLE.XLATES.NEW_KEY(CURR_XLATE) =
     1932     6650    4                      PORT.CURRENT.KEY(%LVL_EXT_REC-1);
     1933     6651    4                    CURR_XLATE = CURR_XLATE + 1;
     1934     6652    4                    END;
     1935     6653    3                 CURR_XLATE_TABLE$ = CURR$XLATE_TABLE.FLINK$;
     1936     6654    3                 CURR_XLATE = 0;
     1937     6655    3                 END SCAN_XLATE_TABLES;
     1938     6656
     1939     6657                   /* Bump to the next key for the destination file */
     1940     6658    2              ADDR(PORT.CURRENT.KEY(%LVL_EXT_REC-1))->BKEY.BYTES# =
     1941     6659    2                ADDR(PORT.CURRENT.KEY(%LVL_EXT_REC-1))->BKEY.BYTES# +
     1942     6660    2                ACTUAL$KEY_INCR.BYTES#;
     1943     6661    2              IF HOLE# ~= 0 THEN IF HOLE_KEY.BYTES# = READ_KEY.BYTES# THEN
     1944     6662    2                    ADDR(PORT.CURRENT.KEY(%LVL_EXT_REC-1))->BKEY.BYTES# =
     1945     6663    2                      ADDR(PORT.CURRENT.KEY(%LVL_EXT_REC-1))->BKEY.BYTES# +
     1946     6664    2                      HOLE# * ACTUAL$KEY_INCR.BYTES#;
     1947     6665
PL6.E3A0      #004=VDA$FREKEY File=VDA$FILE.:VDA5TSI                             FRI 07/04/97 11:05 Page:221
     1948     6666    2              CALL READ_SRC_RECORD (VD_BUFFER$, SPEC.BYTES, EOF)
     1949     6667    2                ALTRET (ABORT_REKEY);
     1950     6668    2              END COPY_RECORDS;
     1951     6669
     1952     6670
     1953     6671                /*
     1954     6672                *  From here on, the entire file has been copied to the destination
     1955     6673                *       DCB; the rekeyed version of the file is safe.
     1956     6674                *  Therefore, any errors from here on shouldn't abort the rekey, but
     1957     6675                *       they shouldn't just altreturn either.  Instead, they should
     1958     6676                *       remember the fact that we saw an error (so we can ALTRETURN
     1959     6677                *       at the end), but continue processing--to close all the DCBs,
     1960     6678                *       clean up the Port and the DCBs, etc.
     1961     6679                */
     1962     6680
     1963     6681                /*
     1964     6682                *   Search CURR$XLATE_TABLE forward from CURR_XLATE til the end of the
     1965     6683                *       last table.  For each of these xlate entries, store
     1966     6684                *       PORT$KEY.BYTES# in the entry.  These are keys beyond the end of
     1967     6685                *       the file; PORT$KEY.BYTES# is one increment beyond the end of
     1968     6686                *       the newly-rekeyed file.
     1969     6687                */
     1970     6688    1   FINISH_XLATE_TABLES:
     1971     6689    2           DO WHILE CURR_XLATE_TABLE$ ~= ADDR(NIL);
     1972     6690    3              DO WHILE CURR_XLATE < CURR$XLATE_TABLE.N_ENTRIES#;
     1973     6691    3                 CURR$XLATE_TABLE.XLATES.NEW_KEY(CURR_XLATE) =
     1974     6692    3                   PORT.CURRENT.KEY(%LVL_EXT_REC-1);
     1975     6693    3                 CURR_XLATE = CURR_XLATE + 1;
     1976     6694    3                 END;
     1977     6695    2              CURR_XLATE_TABLE$ = CURR$XLATE_TABLE.FLINK$;
     1978     6696    2              CURR_XLATE = 0;
     1979     6697    2              END FINISH_XLATE_TABLES;
     1980     6698    1           PORT.CURRENT.EOF = %TRUE;
     1981     6699
     1982     6700                /* Close the source DCB */
     1983     6701
     1984     6702    1           FPT_CLOSE.V.DCB# = SRC_DCB;
PL6.E3A0      #004=VDA$FREKEY File=VDA$FILE.:VDA5TSI                             FRI 07/04/97 11:05 Page:222
     1985     6703    1           IF VD_$$MON_ACC.V# > 10 THEN
     1986     6704    1              CALL VDG$MACC_FREKEY_CLOSE_SRC_XSA (FPT_CLOSE.V.DCB#);
     1987     6705    1           CALL XSA$CLOSE (FPT_CLOSE, SRC_XSA)
     1988     6706    2           WHENALTRETURN DO;
     1989     6707    2              CALL VDG$MONERR;
     1990     6708    2              END;
     1991     6709
     1992     6710    2           IF SRC_XSA_DATA$ ~= ADDR(NIL) THEN DO;
     1993     6711    2              CALL VDG$OFREE (SRC$XSA_DATA);
     1994     6712    2              END;
     1995     6713    2           IF SRC_XSA_KEY$ ~= ADDR(NIL) THEN DO;
     1996     6714    2              CALL VDG$OFREE (SRC$XSA_KEY);
     1997     6715    2              END;
     1998     6716    1           CALL VDG$OFREE_DCB (SRC_DCB);
     1999     6717
     2000     6718                /* Close the destination DCB with SAVE, then re-open it */
     2001     6719    1           FPT_CLOSE.V.DCB# = PORT.DCB#;
     2002     6720    1           IF VD_$$MON_ACC.V# > 10 THEN
     2003     6721    1              CALL VDG$MACC_FREKEY_CLOSE_DEST (FPT_CLOSE.V.DCB#);
     2004     6722    1           CALL M$CLOSE (FPT_CLOSE)
     2005     6723    2           WHENALTRETURN DO;
     2006     6724    2              CALL VDG$MONERR;
     2007     6725    2              END;
     2008     6726
     2009     6727                /*
     2010     6728                *  After closing the destination DCB, it's positioned at BOF:
     2011     6729                *     clear PORT.CURRENT to indicate DCB's position.
     2012     6730                */
     2013     6731    1           CALL VDG$OCLEAR_LOCATION (PORT.CURRENT);
     2014     6732
     2015     6733    1           FPT_OPEN = CONST_FPT_OPEN;
     2016     6734    1           FPT_OPEN.V_ = VECTOR(FPT_OPEN.V);
     2017     6735    1           FPT_OPEN.V.ACS# = %DIRECT#;
     2018     6736    1           FPT_OPEN.V.FUN# = %UPDATE#;
     2019     6737    1           FPT_OPEN.V.DCB# = PORT.DCB#;
     2020     6738    1           IF VD_$$MON_ACC.V# > 10 THEN
     2021     6739    1              CALL VDG$MACC_FREKEY_REOPEN_DEST (FPT_OPEN.V.DCB#);
PL6.E3A0      #004=VDA$FREKEY File=VDA$FILE.:VDA5TSI                             FRI 07/04/97 11:05 Page:223
     2022     6740    1           CALL M$OPEN (FPT_OPEN)
     2023     6741    2           WHENALTRETURN DO;
     2024     6742    2              CALL VDG$MONERR;
     2025     6743    2              ALTRETURN;
     2026     6744    2              END;
     2027     6745    1           PORT.LAST_OP# = %ACCOP_OPEN;
     2028     6746
     2029     6747                /* Now, fix up all those references to the old keys */
     2030     6748    1           CALL VDG$XLATE_LOCATIONS (XLATE_LOCATIONS_ROOT$ -> CURR$XLATE_TABLE,
     2031     6749    1             %XLATE_LOCATION);
     2032     6750                /* Free the chain of xlate tables */
     2033     6751    1           CURR_XLATE_TABLE$ = XLATE_LOCATIONS_ROOT$;
     2034     6752    2           DO WHILE CURR_XLATE_TABLE$ ~= ADDR(NIL);
     2035     6753    2              XLATE_LOCATIONS_ROOT$ = CURR$XLATE_TABLE.FLINK$;
     2036     6754    2              CURR$XLATE_TABLE.FLINK$ = ADDR(NIL);
     2037     6755    2              CALL VDG$OFREE (CURR$XLATE_TABLE);
     2038     6756    2              CURR_XLATE_TABLE$ = XLATE_LOCATIONS_ROOT$;
     2039     6757    2              END;
     2040     6758
     2041     6759
     2042     6760                /* If VD_ERR$ is non-NIL, we had an error but kept on going anyway */
     2043     6761
     2044     6762    1           IF VD_ERR$ ~= VD_6E.ERR_TAIL$ THEN
     2045     6763    1              ALTRETURN;       /* Be sure the error gets reported */
     2046     6764
     2047     6765    1           RETURN;
     2048     6766
     2049     6767
     2050     6768
     2051     6769    1   CLOSE_SRC_FAILED:
     2052     6770    1           CALL VDG$MONERR;
     2053     6771
     2054     6772    1   REKEY_FAILED: ;
     2055     6773    1           ALTRETURN;
     2056     6774
     2057     6775
     2058     6776    1   OPEN_SRC_XSA_FAILED:
PL6.E3A0      #004=VDA$FREKEY File=VDA$FILE.:VDA5TSI                             FRI 07/04/97 11:05 Page:224
     2059     6777    1           CALL VDG$MONERR;
     2060     6778    1           PORT.DCB# = 0;  /* So FCLOSE won't try to M$CLOSE the DCB */
     2061     6779    1           CALL VDA$FCLOSE (SRC_STREAM);   /* Let ALTRETURN fall thru */
     2062     6780    1           ALTRETURN;
     2063     6781
     2064     6782
     2065     6783    1   ABORT_REKEY:
     2066     6784                /*
     2067     6785                *  Abort the rekey operation--revert to the original file.
     2068     6786                *  At this point, we assume:
     2069     6787                *       Someone has already built a VD$ERR for an error.
     2070     6788                *       SRC_XSA_DATA$ and _KEY$ are either NIL, meaning we haven't
     2071     6789                *           allocated any buffers for XSA, or they point to the buffers.
     2072     6790                *       SRC_DCB and SRC$DCB refer to the original source DCB.
     2073     6791                *       PORT.DCB# is the destination DCB.
     2074     6792                *  To abort, do the following:
     2075     6793                *     If the dest DCB is open, close it with DISP=RELEASE.
     2076     6794                *     Point the port to the original source DCB.
     2077     6795                *     If the source DCB is open, close it, 'cause it's open for input
     2078     6796                *         only.
     2079     6797                *     If the source DCB is now closed, re-open it for update.
     2080     6798                */
     2081     6799    2           IF DCBADDR(PORT.DCB#)->F$DCB.FCD# THEN DO;
     2082     6800    2              FPT_CLOSE.V.DCB# = PORT.DCB#;
     2083     6801    2              FPT_CLOSE.V.DISP# = %RELEASE#;
     2084     6802    2              IF VD_$$MON_ACC.V# > 10 THEN
     2085     6803    2                 CALL VDG$MACC_FREKEY_CLOSE_DEST (FPT_CLOSE.V.DCB#);
     2086     6804    2              CALL M$CLOSE (FPT_CLOSE)
     2087     6805    3              WHENALTRETURN DO; END;  /* Ignore altreturn */
     2088     6806    2              END;
     2089     6807
     2090     6808    1           CALL VDG$OFREE_DCB (PORT.DCB#); /* Ignore altreturn */
     2091     6809    1           PORT.DCB# = SRC_DCB;
     2092     6810
     2093     6811    2           IF SRC$DCB.FCD# THEN DO;
     2094     6812    2              FPT_CLOSE.V.DCB# = SRC_DCB;
     2095     6813    2              FPT_CLOSE.V.DISP# = %SAVE#;
PL6.E3A0      #004=VDA$FREKEY File=VDA$FILE.:VDA5TSI                             FRI 07/04/97 11:05 Page:225
     2096     6814    2              IF VD_$$MON_ACC.V# > 10 THEN
     2097     6815    2                 CALL VDG$MACC_FREKEY_CLOSE_SRC_XSA (FPT_CLOSE.V.DCB#);
     2098     6816    2              CALL XSA$CLOSE (FPT_CLOSE, SRC_XSA);
     2099     6817    2              END;
     2100     6818
     2101     6819    2           IF NOT SRC$DCB.FCD# THEN DO;
     2102     6820    2              FPT_OPEN.V.ACS# = %DIRECT#;
     2103     6821    2              FPT_OPEN.V.FUN# = %UPDATE#;
     2104     6822    2              FPT_OPEN.V.DCB# = SRC_DCB;
     2105     6823    2              FPT_OPEN.V.INITZ.SCRUB# = %NO#;
     2106     6824    2              IF VD_$$MON_ACC.V# > 10 THEN
     2107     6825    2                 CALL VDG$MACC_FREKEY_REOPEN_SRC (FPT_OPEN.V.DCB#);
     2108     6826    2              CALL M$OPEN (FPT_OPEN)
     2109     6827    3              WHENALTRETURN DO;
     2110     6828    3                 CALL VDG$MONERR;
     2111     6829    3                 END;
     2112     6830    2              PORT.LAST_OP# = %ACCOP_OPEN;
     2113     6831    2              END;
     2114     6832
     2115     6833    2           IF SRC_XSA_DATA$ ~= ADDR(NIL) THEN DO;
     2116     6834    2              CALL VDG$OFREE (SRC$XSA_DATA);   /* Ignore altret */
     2117     6835    2              END;
     2118     6836    2           IF SRC_XSA_KEY$ ~= ADDR(NIL) THEN DO;
     2119     6837    2              CALL VDG$OFREE (SRC$XSA_KEY);   /* Ignore altret */
     2120     6838    2              END;
     2121     6839    1           ALTRETURN;
     2122     6840        %BOX (TITLE=READ_SRC_RECORD, PAGE=YES);
              6848    1
              6852    1   /***************************************************************************
              6854    1    *                                                                         *
              6858    1            *                              READ_SRC_RECORD                            *
              6860    1            *                                                                         *
              6862    1           ***************************************************************************/

     2123     6866
     2124     6867        /*I* NAME: READ_SRC_RECORD
     2125     6868            PARAMETERS:
PL6.E3A0      #004=VDA$FREKEY File=VDA$FILE.:VDA5TSI                             FRI 07/04/97 11:05 Page:226
     2126     6869                VD_BUFFER$ - Uninitialized ptr.
     2127     6870                DVBYTE - Uninitialized UBIN BYTE CALIGNED.
     2128     6871                EOF_FLAG - Uninitialized BIT(1) ALIGNED flag.
     2129     6872            INPUT:
     2130     6873                SRC_XSA - XSA_PARAM structure, open to the source file.
     2131     6874                FPT_READ - Initialized FPT_READ structure.
     2132     6875            OUTPUT:
     2133     6876                VD_BUFFER$ will point to a VD$BUFFER containing the record
     2134     6877                    read--unless EOF_FLAG is set.
     2135     6878                DVBYTE will contain the record's DVBYTE char--unless EOF_FLAG
     2136     6879                    is set.
     2137     6880                EOF_FLAG will be set if we hit EOF.
     2138     6881            DESCRIPTION:
     2139     6882                Keep trying to read a record, allocating larger and larger
     2140     6883                buffers if we get an E$LD error.
     2141     6884                However, if the file is a compressed file, allocate the largest
     2142     6885                buffer possible for the first M$READ, because you can't do
     2143     6886                continued M$READs on a compressed file.
     2144     6887        */
     2145     6888
     2146     6889    1   READ_SRC_RECORD: PROC (VD_BUFFER$, DVBYTE, EOF_FLAG) ALTRET;
     2147     6890
     2148     6891    2   DCL VD_BUFFER$ PTR;
     2149     6892    2   DCL DVBYTE UBIN BYTE CALIGNED;
     2150     6893    2   DCL EOF_FLAG BIT(1) ALIGNED;
     2151     6894
     2152     6895
     2153     6896    2   DCL NB_BUFFER SBIN;
     2154     6897    2   DCL TOTAL_ARS SBIN;
     2155     6898    2   DCL PREV_BUFFER$ PTR;
     2156     6899
     2157     6900
     2158     6901        %VD$BUFFER (NAME=VD$BUFFER, STCLASS="BASED(VD_BUFFER$)");
     2159     6959
     2160     6960
     2161     6961
     2162     6962    2           EOF_FLAG = %FALSE;
PL6.E3A0      #004=VDA$FREKEY File=VDA$FILE.:VDA5TSI                             FRI 07/04/97 11:05 Page:227
     2163     6963    2           NB_BUFFER = %NB_DFLT_DATA_REC;
     2164     6964    2           IF DCBADDR(FPT_READ.V.DCB#)->F$DCB.COMP# THEN
     2165     6965    2              NB_BUFFER = %MXNB_DATA;
     2166     6966    2           TOTAL_ARS = 0;
     2167     6967    2           VD_BUFFER$ = ADDR(NIL);
     2168     6968    2           PREV_BUFFER$ = ADDR(NIL);
     2169     6969    2           FPT_READ.V.DVBYTE.CONT# = %FALSE;
     2170     6970
     2171     6971    2   GET_COMPLETE_RECORD:
     2172     6972    3           DO WHILE VD_BUFFER$ = ADDR(NIL);
     2173     6973    3              CALL VDG$OALLOC (%CLS_BUFFER, VD_BUFFER$,
     2174     6974    3                (LENGTHC(VD$BUFFER_HEADER) + NB_BUFFER + %(NB_PER_WORD-1)) /
     2175     6975    3                %NB_PER_WORD)
     2176     6976    3                ALTRET (OALLOC_FAILED);
     2177     6977    3              VD$BUFFER.LENGTH# = NB_BUFFER;
     2178     6978    3              FPT_READ.BUF_ = VECTOR(VD$BUFFER.BYTES);
     2179     6979    4              IF PREV_BUFFER$ ~= ADDR(NIL) THEN DO;
     2180     6980                      /*
     2181     6981                      * Doing a continued read:  copy already-read part of
     2182     6982                      *     record to new buffer, free old buffer.
     2183     6983                      */
     2184     6984    4                 VD$BUFFER.BYTES = PREV_BUFFER$->VD$BUFFER.BYTES;
     2185     6985    4                 FPT_READ.BUF_ = VECTOR(SUBSTR(VD$BUFFER.BYTES,
     2186     6986    4                   PREV_BUFFER$->VD$BUFFER.LENGTH#));
     2187     6987    4                 CALL VDG$OFREE (PREV_BUFFER$->VD$BUFFER)
     2188     6988    4                   ALTRET (OFREE_FAILED);
     2189     6989    4                 PREV_BUFFER$ = ADDR(NIL);
     2190     6990    4                 END;
     2191     6991
     2192     6992    3              CALL XSA$READ (FPT_READ, SRC_XSA)
     2193     6993    4              WHENALTRETURN DO;
     2194     6994    4                 IF SRC_XSA.ERR.CODE ~= %E$LD
     2195     6995    4                   OR NB_BUFFER >= %MXNB_DATA THEN
     2196     6996    4                    GOTO READ_FAILED_HARD;
     2197     6997    4                 FPT_READ.V.DVBYTE.CONT# = %TRUE;
     2198     6998    4                 NB_BUFFER = MINIMUM (NB_BUFFER * 2, %MXNB_DATA);
     2199     6999    4                 TOTAL_ARS = TOTAL_ARS + SRC_XSA.ARS#;
PL6.E3A0      #004=VDA$FREKEY File=VDA$FILE.:VDA5TSI                             FRI 07/04/97 11:05 Page:228
     2200     7000    4                 VD$BUFFER.LENGTH# = TOTAL_ARS;
     2201     7001    4                 PREV_BUFFER$ = VD_BUFFER$;
     2202     7002    4                 VD_BUFFER$ = ADDR(NIL);
     2203     7003    4                 END;
     2204     7004    3              END GET_COMPLETE_RECORD;
     2205     7005
     2206     7006    2           VD$BUFFER.LENGTH# = TOTAL_ARS + SRC_XSA.ARS#;
     2207     7007    2           DVBYTE = BITBIN(SRC_XSA.DVBYTE);
     2208     7008    2           RETURN;
     2209     7009
     2210     7010
     2211     7011    2   READ_FAILED_HARD:
     2212     7012    2           CALL VDG$OFREE (VD$BUFFER)
     2213     7013    2             ALTRET (OFREE_FAILED);
     2214     7014    2           VD_BUFFER$ = ADDR(NIL);
     2215     7015    3           IF SRC_XSA.ERR.CODE = %E$EOF THEN DO;
     2216     7016    3              EOF_FLAG = %TRUE;
     2217     7017    3              RETURN;
     2218     7018    3              END;
     2219     7019    2           CALL VDG$MONERR;
     2220     7020
     2221     7021
     2222     7022    2   OALLOC_FAILED: ;
     2223     7023    2   OFREE_FAILED: ;
     2224     7024    2           ALTRETURN;
     2225     7025
     2226     7026    2   END READ_SRC_RECORD;
     2227     7027
     2228     7028    1   END VDA$FREKEY;

PL6.E3A0      #004=VDA$FREKEY File=VDA$FILE.:VDA5TSI                             FRI 07/04/97 11:05 Page:229
--  Include file information  --

   XS_MACRO_C.:LIBRARY  is referenced.
   B_ERRORS_C.:LIBRARY  is referenced.
   CP_6_SUBS.:LIBRARY  is referenced.
   CP_6.:LIBRARY  cannot be made into a system file and is referenced.
   VD_PERR_C.:VDA5TOU  is referenced.
   VD_MACROS_M.:VDA5TOU  is referenced.
   B$JIT_C.:E04TOU  was found in the system file and is never referenced.
   CP_6_C.:E04TOU  was found in the system file and is referenced.
      No diagnostics issued in procedure VDA$FREKEY.

   Procedure VDA$FREKEY requires 1028 words for executable code.
   Procedure VDA$FREKEY requires 146 words of local(AUTO) storage.

    No errors detected in file VDA$FILE.:VDA5TSI    .

PL6.E3A0      #004=VDA$FREKEY File=VDA$FILE.:VDA5TSI                             FRI 07/04/97 11:05 Page:230

 Object Unit name= VDA$FREKEY                                 File name= VDA$FILE.:VDA5TOU
 UTS= JUL 04 '97 11:05:02.76 FRI                              Compiler= PL-6/E31         Sev=      00
 SharedLib= :SHARED_SYSTEM                                    Alt SharedLib=


    ****  Control sections  ****

 Sect   Type Bound  Init  Size OctSiz  Section name(segment info)
    0   DCB   even  none     0      0  M$UC
    1  RoData even  UTS    102    146  VDA$FREKEY
    2   Data  even  none    14     16  VDA$FREKEY
    3   Proc  even  none  1028   2004  VDA$FREKEY
    4  RoData even  none    30     36  VDA$FREKEY

    ****  Entry defs  ****

                              Check   Calling
                             calling  sequence
  Sect OctLoc Primary Altret sequence   type   Parms  Name
     3      0   yes    yes     yes      Std        5  VDA$FREKEY
PL6.E3A0      #004=VDA$FREKEY File=VDA$FILE.:VDA5TSI                             FRI 07/04/97 11:05 Page:231

  ****  Entry refs  ****

         Check        Calling
        calling       sequence
Altret sequence SRef   type   Args  Name
         yes           Std       1 VDG$EBREAK_ACKNOWLEDGE
         yes           Std       3 VDG$ESCREECH
 yes     yes           Std       1 VDP$WERASE
         yes           Std       1 VDG$MACC_FREKEY_CLOSE_ORIG
         yes           Std       3 VDG$MACC_FREKEY_OPEN_DEST
         yes           Std       2 VDG$MACC_FREKEY_PWRITE
 yes     yes           Std       3 VDG$OALLOC
 yes     yes           Std       0 VDG$MONERR
         yes           Std       1 VDG$MACC_FREKEY_CLOSE_DEST
         yes           Std       1 VDG$MACC_FREKEY_REOPEN_SRC
 yes     yes           Std       1 VDG$OFREE
 yes     yes           Std       4 VDG$ERRMSG
 yes     yes           Std       2 XSA$OPEN
 yes     yes           Std       2 VDG$OCOPY
 yes     yes           Std       1 VDG$OALLOC_DCB
 yes     yes           Std       2 XSA$CLOSE
         yes           Std       1 VDG$MACC_FREKEY_REOPEN_DEST
 yes     yes           Std       1 VDG$OCLEAR_LOCATION
 yes     yes           Std       1 VDA$FCLOSE
 yes     yes           Std       4 VDA$PWRITE
 yes     yes           Std       2 VDG$XLATE_LOCATIONS
 yes     yes           Std       2 VDA$PFLUSH
         yes           Std       2 VDG$MACC_FREKEY_OPEN_SRC_XSA
         yes           Std       1 VDG$MACC_FREKEY_CLOSE_SRC_XSA
 yes     yes           Std       1 VDG$OFREE_DCB
 yes     yes           Std       2 XSA$READ
                       nStd      0 X66_AUTO_5
                       Std       0 B_CONSPOOL_D
                       nStd      0 X66_AALT
                       nStd      0 X66_ARET
PL6.E3A0      #004=VDA$FREKEY File=VDA$FILE.:VDA5TSI                             FRI 07/04/97 11:05 Page:232

  ****  Data refs  ****

  Flags:  r = read only, s = secondary
Flgs Name                             Flgs Name                             Flgs Name
     M$UC                                  VD_6E                                 VD_$BY
     VD_$$MON_ACC                          VD_KEY_NUMERIC_BOF                    B_VECTNIL

  ****  Segment refs  ****

  Flags:  r = read only, s = secondary
Flgs Name                             Flgs Name                             Flgs Name
     ISSID                                 NULLSID                               ROSID
PL6.E3A0      #004=VDA$FREKEY File=VDA$FILE.:VDA5TSI                             FRI 07/04/97 11:05 Page:233


     1511        1        /*T***********************************************************/
     1512        2        /*T*                                                         */
     1513        3        /*T* Copyright (c) Bull HN Information Systems Inc., 1997    */
     1514        4        /*T*                                                         */
     1515        5        /*T***********************************************************/
     1516        6
     1517        7        /*D* NAME: VDA$FREKEY
     1518        8            PARAMETERS:
     1519        9                SRC_STREAM - VD$STREAM for the source operand.  Must be open
     1520       10                    to a file.
     1521       11                DEST_STREAM - VD$STREAM for the destination operand.  Must be
     1522       12                    open to the same file (and therefore same VD$PORT) as SRC_STREAM.
     1523       13                KEY_INCR - VD$KEY specifying the increment to use.  Caller
     1524       14                    must have already checked for 0-value, tried $BY, etc.
     1525       15                    KEY_INCR must not have a 0-value.
     1526       16                HOLE - Optional SBIN indicating how big a hole to leave
     1527       17                    at HOLE_KEY.
     1528       18                HOLE_KEY - VD$KEY_NUMBER present only if HOLE is.
     1529       19            INPUT:
     1530       20                VD_6E.WINDOWS$ - Ptr to VD$STREAM which is open to the Windows
     1531       21                    internal file.
     1532       22            OUTPUT:
     1533       23                SRC_STREAM and DEST_STREAM will still be open to the same
     1534       24                    file, but it will be a new incarnation of the file.
     1535       25                All windows open to the SRC_STREAM/DEST_STREAM's port will
     1536       26                    be VDP$WERASE'd.
     1537       27            DESCRIPTION:
     1538       28                SRC_STREAM and DEST_STREAM must be open to the same port.
     1539       29                Cycle thru the Windows file:  for any window open to a
     1540       30                    stream which is open to this port, call VDP$WERASE
     1541       31                    to erase the window.  This serves several purposes:
     1542       32                    o Speeds up the rekey, 'cause when we call VDA$PFLUSH,
     1543       33                        it'll call VDP$RWRITE, which'll search the Windows
     1544       34                        file for windows open to this file, and try to
     1545       35                        update their screens with the "new" records.  By
     1546       36                        VDP$WERASE'ing first, VDP$RWRITE won't find any
PL6.E3A0      #004=VDA$FREKEY File=VDA$FILE.:VDA5TSI                             FRI 07/04/97 11:05 Page:234
     1547       37                        windows which need updating.
     1548       38                    o Good basis for error recovery.  If we get an error
     1549       39                        anytime in this process, we can just clean up the
     1550       40                        port (restore its PORT.DCB#) and altreturn:
     1551       41                        the Presenter will refill the erased windows from
     1552       42                        disk, assuring the user sees exactly the mess we
     1553       43                        left out there.
     1554       44                Build a (chain of) VD$XLATE_LOCATIONS table(s), containing any
     1555       45                    record keys for the file being rekeyed, referenced by the Windows
     1556       46                    or Locations files or the source operand.  This is a "fix-up
     1557       47                    table", which we'll fill in with new record keys as we rekey
     1558       48                    the file, and which we'll use to fix up the record keys in our
     1559       49                    internal files after the rekey operation is done.
     1560       50                Flush the port first, to write any modified records to the file.
     1561       51                Close the port (=source) DCB and reopen it for input using FSA.
     1562       52                Allocate a new DCB, and store its # in the port.
     1563       53                Open the new (=dest) DCB to the same file as the source DCB, with
     1564       54                    FUN=CREATE, EXIST=NEWFILE (can't use FSA for this, 'cause FSA
     1565       55                    can't create keyed files).
     1566       56                Copy all records from the source DCB to the new DCB, writing them
     1567       57                    with keys starting at KEY_INCR and incremented by KEY_INCR.
     1568       58                    As we step thru the file, we're also stepping thru the sorted
     1569       59                    VD$XLATE_LOCATIONS tables.  For all the entries in the xlate tables
     1570       60                    between each existing record in the file, store the record's
     1571       61                    new record key in the entries.  (This handles record keys in the
     1572       62                    xlate tables for both existing and non-existent records.)
     1573       63                Close the source DCB and OFREE it.
     1574       64                Clear the Port location (PORT.CURRENT), to indicate that the
     1575       65                    destination DCB is now positioned at BOF.
     1576       66                Close the destination DCB and reopen it in the mode specified by
     1577       67                    the port.
     1578       68                Call VDG$XLATE_LOCATIONS to fix up all references to record keys in
     1579       69                    the internal files.
     1580       70
     1581       71                                     !!WARNING!!
     1582       72                    Careful attention must be paid to error situtations in
     1583       73                    this routine.  If errors aren't handled correctly, a
PL6.E3A0      #004=VDA$FREKEY File=VDA$FILE.:VDA5TSI                             FRI 07/04/97 11:05 Page:235
     1584       74                    simple error (such as a record longer than %MXNB_DATA)
     1585       75                    or even what is normally considered an unrecoverable error
     1586       76                    (such as failure of VDG$OALLOC due to running out of memory)
     1587       77                    can cause all or most of the file being rekeyed to
     1588       78                    disappear.  Not a nice thing to do to the user.
     1589       79
     1590       80                    The code at ABORT_REKEY handles most error recovery
     1591       81                    situations.  Once the destination DCB has been opened,
     1592       82                    any errors should GOTO ABORT_REKEY, until the entire file
     1593       83                    has been copied to the destination DCB.
     1594       84        */
     1595       85
     1596       86        VDA$FREKEY: PROC (SRC_STREAM, DEST_STREAM, KEY_INCR, HOLE, HOLE_KEY) ALTRET;

     86  3 000000   000000 700200 xent  VDA$FREKEY   TSX0  ! X66_AUTO_5
         3 000001   000222 000005                    ZERO    146,5

     1597       87
     1598       88        %INCLUDE VD_MACROS_M;
     1599     2303        %INCLUDE VD_PERR_C;
     1600     2451        %INCLUDE CP_6;
     1601     2532        %INCLUDE CP_6_SUBS;
     1602     3072        %INCLUDE B_ERRORS_C;
     1603     4198        %INCLUDE XS_MACRO_C;
     1604     4242
     1605     4243
     1606     4244        %VD$STREAM (NAME=SRC_STREAM, STCLASS=PARAM);
     1607     4350        %VD$STREAM (NAME=DEST_STREAM, STCLASS=PARAM);
     1608     4456        %VD$KEY_NUMBER (NAME=KEY_INCR, STCLASS=PARAM);
     1609     4471    1   DCL HOLE SBIN;
     1610     4472        %VD$KEY_NUMBER (NAME=HOLE_KEY, STCLASS=PARAM);
     1611     4487
     1612     4488
     1613     4489    1   DCL VDP$WERASE          ENTRY (1) ALTRET;
     1614     4490    1   DCL VDA$PWRITE          ENTRY (4) ALTRET;
     1615     4491    1   DCL VDA$PFLUSH          ENTRY (2) ALTRET;
     1616     4492    1   DCL VDA$FCLOSE          ENTRY (1) ALTRET;
PL6.E3A0      #004=VDA$FREKEY File=VDA$FILE.:VDA5TSI                             FRI 07/04/97 11:05 Page:236
     1617     4493    1   DCL VDG$XLATE_LOCATIONS ENTRY (2) ALTRET;
     1618     4494    1   DCL VDG$OALLOC          ENTRY (3) ALTRET;
     1619     4495    1   DCL VDG$OALLOC_DCB      ENTRY (1) ALTRET;
     1620     4496    1   DCL VDG$OFREE           ENTRY (1) ALTRET;
     1621     4497    1   DCL VDG$OFREE_DCB       ENTRY (1) ALTRET;
     1622     4498    1   DCL VDG$OCLEAR_LOCATION ENTRY (1) ALTRET;
     1623     4499    1   DCL VDG$OCOPY           ENTRY (2) ALTRET;
     1624     4500    1   DCL VDG$ESCREECH        ENTRY (3);
     1625     4501    1   DCL VDG$EBREAK_ACKNOWLEDGE ENTRY (1);
     1626     4502    1   DCL VDG$ERRMSG          ENTRY (4) ALTRET;
     1627     4503    1   DCL VDG$MONERR          ENTRY     ALTRET;
     1628     4504    1   DCL VDG$MACC_FREKEY_CLOSE_ORIG ENTRY (1);
     1629     4505    1   DCL VDG$MACC_FREKEY_OPEN_SRC_XSA ENTRY (2);
     1630     4506    1   DCL VDG$MACC_FREKEY_OPEN_DEST ENTRY (3);
     1631     4507    1   DCL VDG$MACC_FREKEY_PWRITE ENTRY (2);
     1632     4508    1   DCL VDG$MACC_FREKEY_CLOSE_SRC_XSA ENTRY (1);
     1633     4509    1   DCL VDG$MACC_FREKEY_CLOSE_DEST ENTRY (1);
     1634     4510    1   DCL VDG$MACC_FREKEY_REOPEN_DEST ENTRY (1);
     1635     4511    1   DCL VDG$MACC_FREKEY_REOPEN_SRC ENTRY (1);
     1636     4512        %XSA_ENTRIES;
     1637     4516
     1638     4517
     1639     4518        %VD_6E (STCLASS=SYMREF);
     1640     4554        %VD$NUMBER (NAME=VD_$BY, STCLASS=SYMREF);
     1641     4599        %VD$NUMBER (NAME=VD_$$MON_ACC, STCLASS=SYMREF);
     1642     4644        %VD_KEY (NAME=VD_KEY_NUMERIC_BOF, STCLASS=SYMREF,
     1643     4645                    ITYPE=%KT_NUMBER, IREP=%REP_LOCAL);
     1644     4681
     1645     4682
     1646     4683        %FPT_OPEN (FPTN=CONST_FPT_OPEN, STCLASS=CONSTANT,
     1647     4684            ASN=FILE, CTG=NO, DISP=NAMED, ORG=KEYED);
     1648     4793        %FPT_READ (FPTN=CONST_FPT_READ, STCLASS=CONSTANT, KEYR=YES);
     1649     4832        %FPT_CLOSE (FPTN=CONST_FPT_CLOSE, STCLASS=CONSTANT, DISP=SAVE);
     1650     4874        %XSA_PARAM (FPTN=SRC_XSA);
     1651     4904
     1652     4905
     1653     4906
PL6.E3A0      #004=VDA$FREKEY File=VDA$FILE.:VDA5TSI                             FRI 07/04/97 11:05 Page:237
     1654     4907    1   DCL SRC_XSA_DATA$ PTR;
     1655     4908    1   DCL SRC_XSA_KEY$ PTR;
     1656     4909    1   DCL VD_ERR$ PTR;
     1657     4910    1   DCL WINDOWS_L0_NODE$ PTR;
     1658     4911    1   DCL L1_NODE$ PTR;
     1659     4912    1   DCL WINDOW_SPEC$ PTR;
     1660     4913    1   DCL SRC_DCB UBIN HALF ALIGNED;
     1661     4914    1   DCL SRC_DCB$ PTR;
     1662     4915        %FPT_CLOSE (STCLASS=AUTO);
     1663     4957        %FPT_OPEN (STCLASS=AUTO);
     1664     5066        %VLP_SN (STCLASS=AUTO);
     1665     5079        %FPT_READ (STCLASS=AUTO);
     1666     5118        %VD$TEXTC_NUMBER (NAME=READ_KEY, STCLASS=AUTO);
     1667     5132    1   DCL VD_BUFFER$ PTR;
     1668     5133        %VD$SPEC_LOCAL (NAME=SPEC, STCLASS=AUTO);
     1669     5148    1   DCL EOF BIT(1) ALIGNED;
     1670     5149        %VD$KEY_NUMBER (NAME=ACTUAL_KEY_INCR, STCLASS=AUTO);
     1671     5164        %VD$KEY_NUMBER (NAME=ACTUAL$KEY_INCR REDEF ACTUAL_KEY_INCR, STCLASS=);
     1672     5179    1   DCL HOLE# SBIN;
     1673     5180    1   DCL PORT_KEY$ PTR;
     1674     5181    1   DCL XLATE_LOCATIONS_ROOT$ PTR;
     1675     5182    1   DCL CURR_XLATE_TABLE$ PTR;
     1676     5183    1   DCL CURR_XLATE SBIN;
     1677     5184
     1678     5185
     1679     5186        %VD$PORT (NAME=PORT, STCLASS="BASED(DEST_STREAM.PORT$)");
     1680     5284        %VD$FILE_NODE (NAME=WINDOWS$L0_NODE, STCLASS="BASED(WINDOWS_L0_NODE$)");
     1681     5377        %VD$FILE_NODE (NAME=L1$NODE, STCLASS="BASED(L1_NODE$)");
     1682     5470        %VD$WINDOW_SPEC (NAME=WINDOW$SPEC, STCLASS="BASED(WINDOW_SPEC$)");
     1683     5536        %F$DCB (DCBN=SRC$DCB, STCLASS="BASED(SRC_DCB$)");
     1684     5593        %VD$BUFFER (NAME=SRC$XSA_DATA, STCLASS="BASED(SRC_XSA_DATA$)");
     1685     5651        %VD$BUFFER (NAME=SRC$XSA_KEY, STCLASS="BASED(SRC_XSA_KEY$)");
     1686     5709        %VD$BUFFER (NAME=VD$BUFFER, STCLASS="BASED(VD_BUFFER$)");
     1687     5767        %VD$XLATE_LOCATIONS (NAME=CURR$XLATE_TABLE,
     1688     5768            STCLASS="BASED(CURR_XLATE_TABLE$)");
     1689     5904        %VD$KEY_NUMBER (NAME=BKEY, STCLASS=BASED);
     1690     5919        %VD$ERR (NAME=VD$ERR, STCLASS="BASED(VD_6E.ERR_TAIL$)");
PL6.E3A0      #004=VDA$FREKEY File=VDA$FILE.:VDA5TSI                             FRI 07/04/97 11:05 Page:238
     1691     5972        %VD$STREAM;
     1692     6078        %VD$PORT;
     1693     6176        %VD$TEXTC_REMOTE;
     1694     6237        %VD$BUFFER_HEADER;
     1695     6273        %VD$FIT;
     1696     6309        %F$DCB;
     1697     6366
     1698     6367
     1699     6368
     1700     6369    1           SRC_XSA_DATA$ = ADDR(NIL);

   6369  3 000002   000001 236000 xsym               LDQ     B_VECTNIL+1
         3 000003   200010 756100                    STQ     SRC_XSA_DATA$,,AUTO

     1701     6370    1           SRC_XSA_KEY$ = ADDR(NIL);

   6370  3 000004   200011 756100                    STQ     SRC_XSA_KEY$,,AUTO

     1702     6371    1           VD_ERR$ = VD_6E.ERR_TAIL$;

   6371  3 000005   000032 236000 xsym               LDQ     VD_6E+26
         3 000006   200012 756100                    STQ     VD_ERR$,,AUTO

     1703     6372    1           HOLE# = 0;

   6372  3 000007   200201 450100                    STZ     HOLE#,,AUTO

     1704     6373    1           IF ADDR(HOLE) ~= ADDR(NIL) THEN HOLE# = HOLE;

   6373  3 000010   200006 236100                    LDQ     @HOLE,,AUTO
         3 000011   000001 116000 xsym               CMPQ    B_VECTNIL+1
         3 000012   000016 600000 3                  TZE     s:6375

   6373  3 000013   200006 470500                    LDP0    @HOLE,,AUTO
         3 000014   000000 235100                    LDA     0,,PR0
         3 000015   200201 755100                    STA     HOLE#,,AUTO

PL6.E3A0      #004=VDA$FREKEY File=VDA$FILE.:VDA5TSI                             FRI 07/04/97 11:05 Page:239
     1705     6374
     1706     6375    2           IF VD_6E.INTERRUPT.STATE# = %INST_BREAK_QUEUED THEN DO;

   6375  3 000016   000027 220000 xsym               LDX0    VD_6E+23
         3 000017   000003 100003                    CMPX0   3,DU
         3 000020   000026 601000 3                  TNZ     s:6380

     1707     6376    2              CALL VDG$EBREAK_ACKNOWLEDGE (%E$BREAK_HIT);

   6376  3 000021   000000 630400 4                  EPPR0   0
         3 000022   000017 631400 xsym               EPPR1   B_VECTNIL+15
         3 000023   000000 701000 xent               TSX1    VDG$EBREAK_ACKNOWLEDGE
         3 000024   000000 011000                    NOP     0

     1708     6377    2              ALTRETURN;

   6377  3 000025   000000 702200 xent               TSX2  ! X66_AALT

     1709     6378    2              END;
     1710     6379
     1711     6380    1           IF SRC_STREAM.PORT$ ~= DEST_STREAM.PORT$

   6380  3 000026   200003 470500                    LDP0    @SRC_STREAM,,AUTO
         3 000027   200004 471500                    LDP1    @DEST_STREAM,,AUTO
         3 000030   000001 236100                    LDQ     1,,PR0
         3 000031   100001 116100                    CMPQ    1,,PR1
         3 000032   000040 601000 3                  TNZ     s:6383
         3 000033   000001 116000 xsym               CMPQ    B_VECTNIL+1
         3 000034   000040 600000 3                  TZE     s:6383
         3 000035   100001 473500                    LDP3    1,,PR1
         3 000036   300003 721100                    LXL1    3,,PR3
         3 000037   000044 601000 3                  TNZ     s:6387

     1712     6381    1             OR SRC_STREAM.PORT$ = ADDR(NIL)
     1713     6382    2             OR PORT.EXIST# = 0 THEN DO;

     1714     6383    2              CALL VDG$ESCREECH;
PL6.E3A0      #004=VDA$FREKEY File=VDA$FILE.:VDA5TSI                             FRI 07/04/97 11:05 Page:240

   6383  3 000040   000002 631400 xsym               EPPR1   B_VECTNIL+2
         3 000041   000000 701000 xent               TSX1    VDG$ESCREECH
         3 000042   000000 011000                    NOP     0

     1715     6384    2              GOTO REKEY_FAILED;

   6384  3 000043   001350 710000 3                  TRA     REKEY_FAILED

     1716     6385    2              END;
     1717     6386
     1718     6387    1           IF DEST_STREAM.PROTECT (%LVL_LOWER) ~= %CLEAR

   6387  3 000044   100002 236100                    LDQ     2,,PR1
         3 000045   036000 316007                    CANQ    15360,DL
         3 000046   000063 601000 3                  TNZ     CANT_REKEY_FILE_FAILURE
         3 000047   300004 234100                    SZN     4,,PR3
         3 000050   000063 604000 3                  TMI     CANT_REKEY_FILE_FAILURE
         3 000051   300004 722100                    LXL2    4,,PR3
         3 000052   000063 600000 3                  TZE     CANT_REKEY_FILE_FAILURE
         3 000053   300032 223100                    LDX3    26,,PR3
         3 000054   000002 103003                    CMPX3   2,DU
         3 000055   000060 600000 3                  TZE     s:6387+12
         3 000056   000001 103003                    CMPX3   1,DU
         3 000057   000063 601000 3                  TNZ     CANT_REKEY_FILE_FAILURE
         3 000060   300032 724100                    LXL4    26,,PR3
         3 000061   000002 104003                    CMPX4   2,DU
         3 000062   000075 601000 3                  TNZ     s:6399

     1719     6388    1             OR PORT.INTRINSIC_PROTECT
     1720     6389    1             OR PORT.DCB# = 0
     1721     6390    1             OR (PORT.LEVEL.ORG# (%LVL_LOWER) ~= %ORG_KEYED
     1722     6391    1             AND PORT.LEVEL.ORG# (%LVL_LOWER) ~= %ORG_CONSEC)
     1723     6392    2             OR PORT.LEVEL.KEY_TYPE# (%LVL_LOWER) = %KT_STRING THEN DO;

   6391  3 000063                       CANT_REKEY_* null
     1724     6393    2   CANT_REKEY_FILE_FAILURE:;
PL6.E3A0      #004=VDA$FREKEY File=VDA$FILE.:VDA5TSI                             FRI 07/04/97 11:05 Page:241
     1725     6394    2              CALL VDG$ERRMSG (%E$CANT_REKEY_FILE) ALTRET (REKEY_FAILED);

   6394  3 000063   000002 630400 4                  EPPR0   2
         3 000064   000017 631400 xsym               EPPR1   B_VECTNIL+15
         3 000065   000000 701000 xent               TSX1    VDG$ERRMSG
         3 000066   001350 702000 3                  TSX2    REKEY_FAILED

     1726     6395    2              VD$ERR.DCB# = PORT.DCB#;

   6395  3 000067   200004 470500                    LDP0    @DEST_STREAM,,AUTO
         3 000070   000001 471500                    LDP1    1,,PR0
         3 000071   100004 720100                    LXL0    4,,PR1
         3 000072   000032 473400 xsym               LDP3    VD_6E+26
         3 000073   300004 740100                    STX0    4,,PR3

     1727     6396    2              ALTRETURN;

   6396  3 000074   000000 702200 xent               TSX2  ! X66_AALT

     1728     6397    2              END;
     1729     6398
     1730     6399    1           SRC_DCB = PORT.DCB#;

   6399  3 000075   200016 742100                    STX2    SRC_DCB,,AUTO

     1731     6400    1           SRC_DCB$ = DCBADDR(SRC_DCB);

   6400  3 000076   000003 473400 4                  LDP3    3
         3 000077   300000 474500                    LDP4    0,,PR3
         3 000100   400000 236112                    LDQ     0,X2,PR4
         3 000101   200017 756100                    STQ     SRC_DCB$,,AUTO

     1732     6401
     1733     6402                /* Make sure KEY_INCR increment will fit into key space */
     1734     6403    1           ACTUAL_KEY_INCR = KEY_INCR;

   6403  3 000102   200005 475500                    LDP5    @KEY_INCR,,AUTO
PL6.E3A0      #004=VDA$FREKEY File=VDA$FILE.:VDA5TSI                             FRI 07/04/97 11:05 Page:242
         3 000103   000100 100500                    MLR     fill='000'O
         3 000104   500000 000010                    ADSC9   0,,PR5                   cn=0,n=8
         3 000105   200177 000010                    ADSC9   ACTUAL_KEY_INCR,,AUTO    cn=0,n=8

     1735     6404    2           IF ACTUAL_KEY_INCR.BYTES# = 0 THEN DO;

   6404  3 000106   200200 236100                    LDQ     ACTUAL_KEY_INCR+1,,AUTO
         3 000107   000032 316000 xsym               CANQ    B_VECTNIL+26
         3 000110   000115 601000 3                  TNZ     s:6408

     1736     6405    2              ACTUAL_KEY_INCR.BYTES# = VD_$BY.V#;

   6405  3 000111   000003 236000 xsym               LDQ     VD_$BY+3
         3 000112   200200 552134                    STBQ    ACTUAL_KEY_INCR+1,'34'O,AUTO

     1737     6406    2              ACTUAL_KEY_INCR.LENGTH# = 3;

   6406  3 000113   003000 236003                    LDQ     1536,DU
         3 000114   200200 552140                    STBQ    ACTUAL_KEY_INCR+1,'40'O,AUTO

     1738     6407    2              END;

     1739     6408    1           IF SRC$DCB.NRECS# > 0 THEN

   6408  3 000115   200017 476500                    LDP6    SRC_DCB$,,AUTO
         3 000116   600042 235100                    LDA     34,,PR6
         3 000117   000143 604400 3                  TMOZ    s:6416

     1740     6409    2           DO WHILE ACTUAL$KEY_INCR.BYTES# >=

   6409  3 000120   000130 710000 3                  TRA     s:6414

     1741     6410    2             %MX_EDITKEY/(SRC$DCB.NRECS#+HOLE#);
     1742     6411    2              ACTUAL$KEY_INCR.BYTES# = ACTUAL$KEY_INCR.BYTES# / 10;

   6411  3 000121   200200 236100                    LDQ     ACTUAL_KEY_INCR+1,,AUTO
         3 000122   000032 376000 xsym               ANQ     B_VECTNIL+26
PL6.E3A0      #004=VDA$FREKEY File=VDA$FILE.:VDA5TSI                             FRI 07/04/97 11:05 Page:243
         3 000123   000012 506007                    DIV     10,DL
         3 000124   200200 552134                    STBQ    ACTUAL_KEY_INCR+1,'34'O,AUTO

     1743     6412    2              IF ACTUAL$KEY_INCR.BYTES# = 0 THEN

   6412  3 000125   200200 236100                    LDQ     ACTUAL_KEY_INCR+1,,AUTO
         3 000126   000032 316000 xsym               CANQ    B_VECTNIL+26
         3 000127   000063 600000 3                  TZE     CANT_REKEY_FILE_FAILURE

     1744     6413    2                 GOTO CANT_REKEY_FILE_FAILURE;
     1745     6414    2              END;

   6414  3 000130   200017 470500                    LDP0    SRC_DCB$,,AUTO
         3 000131   000042 236100                    LDQ     34,,PR0
         3 000132   200201 036100                    ADLQ    HOLE#,,AUTO
         3 000133   200216 756100                    STQ     PREV_BUFFER$+2,,AUTO
         3 000134   000004 236000 4                  LDQ     4
         3 000135   200216 506100                    DIV     PREV_BUFFER$+2,,AUTO
         3 000136   200217 756100                    STQ     PREV_BUFFER$+3,,AUTO
         3 000137   200200 236100                    LDQ     ACTUAL_KEY_INCR+1,,AUTO
         3 000140   000032 376000 xsym               ANQ     B_VECTNIL+26
         3 000141   200217 116100                    CMPQ    PREV_BUFFER$+3,,AUTO
         3 000142   000121 605000 3                  TPL     s:6411

     1746     6415
     1747     6416    1           WINDOWS_L0_NODE$ = VD_6E.WINDOWS$ -> VD$STREAM.PORT$ ->

   6416  3 000143   000006 470400 xsym               LDP0    VD_6E+6
         3 000144   000001 471500                    LDP1    1,,PR0
         3 000145   100031 236100                    LDQ     25,,PR1
         3 000146   200013 756100                    STQ     WINDOWS_L0_NODE$,,AUTO

     1748     6417    1             VD$PORT.LEVEL.INTERNAL$ (%LVL_FILE);
     1749     6418    1           L1_NODE$ = WINDOWS$L0_NODE.HEAD$;

   6418  3 000147   200013 473500                    LDP3    WINDOWS_L0_NODE$,,AUTO
         3 000150   300012 236100                    LDQ     10,,PR3
PL6.E3A0      #004=VDA$FREKEY File=VDA$FILE.:VDA5TSI                             FRI 07/04/97 11:05 Page:244
         3 000151   200014 756100                    STQ     L1_NODE$,,AUTO

     1750     6419    1   ERASE_WINDOWS:
     1751     6420    2           DO WHILE L1_NODE$ ~= ADDR(NIL);

   6420  3 000152   000202 710000 3     ERASE_WINDO* TRA     s:6430

     1752     6421    2              WINDOW_SPEC$ = L1$NODE.DESC.SPEC.V$;

   6421  3 000153   200014 470500                    LDP0    L1_NODE$,,AUTO
         3 000154   000007 236100                    LDQ     7,,PR0
         3 000155   200015 756100                    STQ     WINDOW_SPEC$,,AUTO

     1753     6422    2              IF WINDOW_SPEC$ ~= ADDR(NIL) THEN

   6422  3 000156   000001 116000 xsym               CMPQ    B_VECTNIL+1
         3 000157   000177 600000 3                  TZE     s:6429

     1754     6423    2                 IF WINDOW$SPEC.OPERAND.STREAM$ ~= ADDR(NIL) THEN

   6423  3 000160   200015 471500                    LDP1    WINDOW_SPEC$,,AUTO
         3 000161   100010 236100                    LDQ     8,,PR1
         3 000162   000001 116000 xsym               CMPQ    B_VECTNIL+1
         3 000163   000177 600000 3                  TZE     s:6429

     1755     6424    2                    IF WINDOW$SPEC.OPERAND.STREAM$->VD$STREAM.PORT$ =

   6424  3 000164   100010 473500                    LDP3    8,,PR1
         3 000165   200004 474500                    LDP4    @DEST_STREAM,,AUTO
         3 000166   400001 475500                    LDP5    1,,PR4
         3 000167   200216 455500                    STP5    PREV_BUFFER$+2,,AUTO
         3 000170   200216 236100                    LDQ     PREV_BUFFER$+2,,AUTO
         3 000171   300001 116100                    CMPQ    1,,PR3
         3 000172   000177 601000 3                  TNZ     s:6429

     1756     6425    3                      ADDR(PORT) THEN DO;

PL6.E3A0      #004=VDA$FREKEY File=VDA$FILE.:VDA5TSI                             FRI 07/04/97 11:05 Page:245
     1757     6426    3                       CALL VDP$WERASE (WINDOW$SPEC)

   6426  3 000173   200015 630500                    EPPR0   WINDOW_SPEC$,,AUTO
         3 000174   000017 631400 xsym               EPPR1   B_VECTNIL+15
         3 000175   000000 701000 xent               TSX1    VDP$WERASE
         3 000176   001350 702000 3                  TSX2    REKEY_FAILED

     1758     6427    3                         ALTRET (REKEY_FAILED);
     1759     6428    3                       END;

     1760     6429    2              L1_NODE$ = L1$NODE.FLINK$;

   6429  3 000177   200014 470500                    LDP0    L1_NODE$,,AUTO
         3 000200   000002 236100                    LDQ     2,,PR0
         3 000201   200014 756100                    STQ     L1_NODE$,,AUTO

     1761     6430    2              END ERASE_WINDOWS;

   6430  3 000202   000001 116000 xsym               CMPQ    B_VECTNIL+1
         3 000203   000153 601000 3                  TNZ     s:6421

     1762     6431
     1763     6432                /*
     1764     6433                *   Build the xlate tables containing all current refs to file.
     1765     6434                *   These record keys must be built in ascending order.
     1766     6435                */
     1767     6436    1           CALL VDG$OALLOC (%CLS_XLATE_LOCATIONS, XLATE_LOCATIONS_ROOT$,

   6436  3 000204   000007 236000 4                  LDQ     7
         3 000205   200220 756100                    STQ     PREV_BUFFER$+4,,AUTO
         3 000206   200203 630500                    EPPR0   XLATE_LOCATIONS_ROOT$,,AUTO
         3 000207   200217 450500                    STP0    PREV_BUFFER$+3,,AUTO
         3 000210   000010 236000 4                  LDQ     8
         3 000211   200216 756100                    STQ     PREV_BUFFER$+2,,AUTO
         3 000212   200216 630500                    EPPR0   PREV_BUFFER$+2,,AUTO
         3 000213   000021 631400 xsym               EPPR1   B_VECTNIL+17
         3 000214   000000 701000 xent               TSX1    VDG$OALLOC
PL6.E3A0      #004=VDA$FREKEY File=VDA$FILE.:VDA5TSI                             FRI 07/04/97 11:05 Page:246
         3 000215   001350 702000 3                  TSX2    REKEY_FAILED

     1768     6437    1             SIZEW(CURR$XLATE_TABLE) +
     1769     6438    1             (SIZEW(CURR$XLATE_TABLE.XLATES) * %N_LOCATION_XLATES))
     1770     6439    1             ALTRET (REKEY_FAILED);
     1771     6440    1           CURR_XLATE_TABLE$ = XLATE_LOCATIONS_ROOT$;

   6440  3 000216   200203 236100                    LDQ     XLATE_LOCATIONS_ROOT$,,AUTO
         3 000217   200204 756100                    STQ     CURR_XLATE_TABLE$,,AUTO

     1772     6441                %COPYKEY (FKEY=PORT.FILE_KEY, TKEY=CURR$XLATE_TABLE.FILE_KEY);

   6454  3 000220   200004 470500                    LDP0    @DEST_STREAM,,AUTO
         3 000221   000001 471500                    LDP1    1,,PR0
         3 000222   200204 473500                    LDP3    CURR_XLATE_TABLE$,,AUTO
         3 000223   000100 100500                    MLR     fill='000'O
         3 000224   100010 000010                    ADSC9   8,,PR1                   cn=0,n=8
         3 000225   300003 000010                    ADSC9   3,,PR3                   cn=0,n=8

   6454  3 000226   000001 471500                    LDP1    1,,PR0
         3 000227   100010 720100                    LXL0    8,,PR1
         3 000230   000002 100003                    CMPX0   2,DU
         3 000231   000244 601000 3                  TNZ     s:6457

   6454  3 000232   100011 474500                    LDP4    9,,PR1
         3 000233   000004 036003                    ADLQ    4,DU
         3 000234   200217 756100                    STQ     PREV_BUFFER$+3,,AUTO
         3 000235   200216 454500                    STP4    PREV_BUFFER$+2,,AUTO
         3 000236   200216 630500                    EPPR0   PREV_BUFFER$+2,,AUTO
         3 000237   000020 631400 xsym               EPPR1   B_VECTNIL+16
         3 000240   000000 701000 xent               TSX1    VDG$OCOPY
         3 000241   000243 702000 3                  TSX2    s:6455
         3 000242   000244 710000 3                  TRA     s:6457

   6455  3 000243   000000 702200 xent               TSX2  ! X66_AALT

     1773     6457    1           CURR$XLATE_TABLE.LEVEL# = %LVL_EXT_REC;
PL6.E3A0      #004=VDA$FREKEY File=VDA$FILE.:VDA5TSI                             FRI 07/04/97 11:05 Page:247

   6457  3 000244   000001 220003                    LDX0    1,DU
         3 000245   200204 470500                    LDP0    CURR_XLATE_TABLE$,,AUTO
         3 000246   000005 740100                    STX0    5,,PR0

     1774     6458
     1775     6459    1           CALL VDG$XLATE_LOCATIONS (CURR$XLATE_TABLE, %XLATE_BUILD)

   6459  3 000247   000011 236000 4                  LDQ     9
         3 000250   200204 235100                    LDA     CURR_XLATE_TABLE$,,AUTO
         3 000251   200216 757100                    STAQ    PREV_BUFFER$+2,,AUTO
         3 000252   200216 630500                    EPPR0   PREV_BUFFER$+2,,AUTO
         3 000253   000020 631400 xsym               EPPR1   B_VECTNIL+16
         3 000254   000000 701000 xent               TSX1    VDG$XLATE_LOCATIONS
         3 000255   001350 702000 3                  TSX2    REKEY_FAILED

     1776     6460    1             ALTRET (REKEY_FAILED);
     1777     6461
     1778     6462
     1779     6463    1           CALL VDA$PFLUSH (PORT)

   6463  3 000256   200004 470500                    LDP0    @DEST_STREAM,,AUTO
         3 000257   000001 471500                    LDP1    1,,PR0
         3 000260   200216 451500                    STP1    PREV_BUFFER$+2,,AUTO
         3 000261   200216 630500                    EPPR0   PREV_BUFFER$+2,,AUTO
         3 000262   000017 631400 xsym               EPPR1   B_VECTNIL+15
         3 000263   000000 701000 xent               TSX1    VDA$PFLUSH
         3 000264   001350 702000 3                  TSX2    REKEY_FAILED

     1780     6464    1             ALTRET (REKEY_FAILED);
     1781     6465                /*
     1782     6466                *   Clear the Port's level registers:  we'll be switching it to a
     1783     6467                *       different DCB.
     1784     6468                */
     1785     6469                %CLEARSPEC (SPEC=PORT.LEVEL.SPEC, INDX="%LVL_LOWER-1");

   6476  3 000265   200004 470500                    LDP0    @DEST_STREAM,,AUTO
PL6.E3A0      #004=VDA$FREKEY File=VDA$FILE.:VDA5TSI                             FRI 07/04/97 11:05 Page:248
         3 000266   000001 471500                    LDP1    1,,PR0
         3 000267   100025 720100                    LXL0    21,,PR1
         3 000270   000002 100003                    CMPX0   2,DU
         3 000271   000302 601000 3                  TNZ     s:6477+1

   6476  3 000272   100026 473500                    LDP3    22,,PR1
         3 000273   200216 453500                    STP3    PREV_BUFFER$+2,,AUTO
         3 000274   200216 630500                    EPPR0   PREV_BUFFER$+2,,AUTO
         3 000275   000017 631400 xsym               EPPR1   B_VECTNIL+15
         3 000276   000000 701000 xent               TSX1    VDG$OFREE
         3 000277   000301 702000 3                  TSX2    s:6477
         3 000300   000302 710000 3                  TRA     s:6477+1

   6477  3 000301   000000 702200 xent               TSX2  ! X66_AALT

   6477  3 000302   200004 470500                    LDP0    @DEST_STREAM,,AUTO
         3 000303   000001 471500                    LDP1    1,,PR0
         3 000304   100025 450100                    STZ     21,,PR1
         3 000305   100026 450100                    STZ     22,,PR1

     1786     6479    2           IF PORT.LEVEL.DATA$ (%LVL_LOWER-1) ~= ADDR(NIL) THEN DO;

   6479  3 000306   000001 471500                    LDP1    1,,PR0
         3 000307   100027 236100                    LDQ     23,,PR1
         3 000310   000001 116000 xsym               CMPQ    B_VECTNIL+1
         3 000311   000324 600000 3                  TZE     s:6485

     1787     6480    2              CALL VDG$OFREE (PORT.LEVEL.DATA$ (%LVL_LOWER-1) -> VD$BUFFER)

   6480  3 000312   100027 473500                    LDP3    23,,PR1
         3 000313   200216 453500                    STP3    PREV_BUFFER$+2,,AUTO
         3 000314   200216 630500                    EPPR0   PREV_BUFFER$+2,,AUTO
         3 000315   000017 631400 xsym               EPPR1   B_VECTNIL+15
         3 000316   000000 701000 xent               TSX1    VDG$OFREE
         3 000317   001350 702000 3                  TSX2    REKEY_FAILED

     1788     6481    2                ALTRET (REKEY_FAILED);
PL6.E3A0      #004=VDA$FREKEY File=VDA$FILE.:VDA5TSI                             FRI 07/04/97 11:05 Page:249
     1789     6482    2              PORT.LEVEL.DATA$ (%LVL_LOWER-1) = ADDR(NIL);

   6482  3 000320   200004 470500                    LDP0    @DEST_STREAM,,AUTO
         3 000321   000001 471500                    LDP1    1,,PR0
         3 000322   000001 236000 xsym               LDQ     B_VECTNIL+1
         3 000323   100027 756100                    STQ     23,,PR1

     1790     6483    2              END;

     1791     6484
     1792     6485    1           FPT_CLOSE = CONST_FPT_CLOSE;

   6485  3 000324   000100 100400                    MLR     fill='000'O
         3 000325   000110 000170 1                  ADSC9   CONST_FPT_CLOSE          cn=0,n=120
         3 000326   200020 000170                    ADSC9   FPT_CLOSE,,AUTO          cn=0,n=120

     1793     6486    1           FPT_CLOSE.V_ = VECTOR(FPT_CLOSE.V);

   6486  3 000327   000012 235000 4                  LDA     10
         3 000330   200216 452500                    STP2    PREV_BUFFER$+2,,AUTO
         3 000331   200216 236100                    LDQ     PREV_BUFFER$+2,,AUTO
         3 000332   000052 036003                    ADLQ    42,DU
         3 000333   200020 757100                    STAQ    FPT_CLOSE,,AUTO

     1794     6487    1           FPT_CLOSE.V.DCB# = SRC_DCB;

   6487  3 000334   200016 220100                    LDX0    SRC_DCB,,AUTO
         3 000335   200052 740100                    STX0    FPT_CLOSE+26,,AUTO

     1795     6488    1           IF VD_$$MON_ACC.V# > 10 THEN

   6488  3 000336   000003 235000 xsym               LDA     VD_$$MON_ACC+3
         3 000337   000012 115007                    CMPA    10,DL
         3 000340   000347 604400 3                  TMOZ    s:6490

     1796     6489    1              CALL VDG$MACC_FREKEY_CLOSE_ORIG (FPT_CLOSE.V.DCB#);

PL6.E3A0      #004=VDA$FREKEY File=VDA$FILE.:VDA5TSI                             FRI 07/04/97 11:05 Page:250
   6489  3 000341   200052 631500                    EPPR1   FPT_CLOSE+26,,AUTO
         3 000342   200216 451500                    STP1    PREV_BUFFER$+2,,AUTO
         3 000343   200216 630500                    EPPR0   PREV_BUFFER$+2,,AUTO
         3 000344   000017 631400 xsym               EPPR1   B_VECTNIL+15
         3 000345   000000 701000 xent               TSX1    VDG$MACC_FREKEY_CLOSE_ORIG
         3 000346   000000 011000                    NOP     0

     1797     6490    1           CALL M$CLOSE (FPT_CLOSE)

   6490  3 000347   200020 630500                    EPPR0   FPT_CLOSE,,AUTO
         3 000350   450001 713400                    CLIMB   alt,close
         3 000351   406000 401760                    pmme    nvectors=13
         3 000352   001345 702000 3                  TSX2    CLOSE_SRC_FAILED

     1798     6491    1             ALTRET (CLOSE_SRC_FAILED);
     1799     6492
     1800     6493    1           FPT_OPEN = CONST_FPT_OPEN;

   6493  3 000353   000100 100400                    MLR     fill='000'O
         3 000354   000000 000350 1                  ADSC9   CONST_FPT_OPEN           cn=0,n=232
         3 000355   200056 000350                    ADSC9   FPT_OPEN,,AUTO           cn=0,n=232

     1801     6494    1           FPT_OPEN.V_ = VECTOR(FPT_OPEN.V);

   6494  3 000356   000013 235000 4                  LDA     11
         3 000357   200216 452500                    STP2    PREV_BUFFER$+2,,AUTO
         3 000360   200216 236100                    LDQ     PREV_BUFFER$+2,,AUTO
         3 000361   000122 036003                    ADLQ    82,DU
         3 000362   200056 757100                    STAQ    FPT_OPEN,,AUTO

     1802     6495    1           FPT_OPEN.V.ACS# = %SEQUEN#;

   6495  3 000363   000001 236007                    LDQ     1,DL
         3 000364   200124 552104                    STBQ    FPT_OPEN+38,'04'O,AUTO

     1803     6496    1           FPT_OPEN.V.DCB# = SRC_DCB;

PL6.E3A0      #004=VDA$FREKEY File=VDA$FILE.:VDA5TSI                             FRI 07/04/97 11:05 Page:251
   6496  3 000365   200016 220100                    LDX0    SRC_DCB,,AUTO
         3 000366   200122 740100                    STX0    FPT_OPEN+36,,AUTO

     1804     6497    1           FPT_OPEN.V.FUN# = %IN#;

   6497  3 000367   002000 236007                    LDQ     1024,DL
         3 000370   200123 552110                    STBQ    FPT_OPEN+37,'10'O,AUTO

     1805     6498    1           CALL XSA$OPEN (FPT_OPEN, SRC_XSA)

   6498  3 000371   000014 236000 4                  LDQ     12
         3 000372   200217 756100                    STQ     PREV_BUFFER$+3,,AUTO
         3 000373   200056 630500                    EPPR0   FPT_OPEN,,AUTO
         3 000374   200216 450500                    STP0    PREV_BUFFER$+2,,AUTO
         3 000375   200216 630500                    EPPR0   PREV_BUFFER$+2,,AUTO
         3 000376   000020 631400 xsym               EPPR1   B_VECTNIL+16
         3 000377   000000 701000 xent               TSX1    XSA$OPEN
         3 000400   001351 702000 3                  TSX2    OPEN_SRC_XSA_FAILED

     1806     6499    1             ALTRET (OPEN_SRC_XSA_FAILED);
     1807     6500    1           IF VD_$$MON_ACC.V# > 10 THEN

   6500  3 000401   000003 235000 xsym               LDA     VD_$$MON_ACC+3
         3 000402   000012 115007                    CMPA    10,DL
         3 000403   000414 604400 3                  TMOZ    s:6502

     1808     6501    1              CALL VDG$MACC_FREKEY_OPEN_SRC_XSA (FPT_OPEN.V.DCB#, SRC_XSA.ORG);

   6501  3 000404   000015 236000 4                  LDQ     13
         3 000405   200217 756100                    STQ     PREV_BUFFER$+3,,AUTO
         3 000406   200122 630500                    EPPR0   FPT_OPEN+36,,AUTO
         3 000407   200216 450500                    STP0    PREV_BUFFER$+2,,AUTO
         3 000410   200216 630500                    EPPR0   PREV_BUFFER$+2,,AUTO
         3 000411   000020 631400 xsym               EPPR1   B_VECTNIL+16
         3 000412   000000 701000 xent               TSX1    VDG$MACC_FREKEY_OPEN_SRC_XSA
         3 000413   000000 011000                    NOP     0

PL6.E3A0      #004=VDA$FREKEY File=VDA$FILE.:VDA5TSI                             FRI 07/04/97 11:05 Page:252
     1809     6502    2           IF SRC_XSA.ORG ~= 0 THEN DO;

   6502  3 000414   000014 236000 2                  LDQ     SRC_XSA+12
         3 000415   000777 316003                    CANQ    511,DU
         3 000416   000465 600000 3                  TZE     s:6521

     1810     6503                   /* Allocate data-granule buffer */
     1811     6504    2              CALL VDG$OALLOC (%CLS_BUFFER, SRC_XSA_DATA$,

   6504  3 000417   000017 236000 4                  LDQ     15
         3 000420   200220 756100                    STQ     PREV_BUFFER$+4,,AUTO
         3 000421   200010 630500                    EPPR0   SRC_XSA_DATA$,,AUTO
         3 000422   200217 450500                    STP0    PREV_BUFFER$+3,,AUTO
         3 000423   000020 236000 4                  LDQ     16
         3 000424   200216 756100                    STQ     PREV_BUFFER$+2,,AUTO
         3 000425   200216 630500                    EPPR0   PREV_BUFFER$+2,,AUTO
         3 000426   000021 631400 xsym               EPPR1   B_VECTNIL+17
         3 000427   000000 701000 xent               TSX1    VDG$OALLOC
         3 000430   001350 702000 3                  TSX2    REKEY_FAILED

     1812     6505    2                SIZEW(VD$BUFFER_HEADER) + %NW_FSA_DATA_BUFFER)
     1813     6506    2                ALTRET (REKEY_FAILED);
     1814     6507    2              SRC_XSA.BBUF_.BUF$ = PALIGNW(ADDR(SRC$XSA_DATA.BYTES));

   6507  3 000431   200010 236100                    LDQ     SRC_XSA_DATA$,,AUTO
         3 000432   000021 036000 4                  ADLQ    17
         3 000433   770000 036007                    ADLQ    -4096,DL
         3 000434   000022 376000 4                  ANQ     18
         3 000435   000005 756000 2                  STQ     SRC_XSA+5

     1815     6508    2              SRC_XSA.BBUF_.BOUND = (%NW_FSA_DATA_BUFFER *

   6508  3 000436   000004 236000 2                  LDQ     SRC_XSA+4
         3 000437   177777 376007                    ANQ     65535,DL
         3 000440   000023 276000 4                  ORQ     19
         3 000441   000004 756000 2                  STQ     SRC_XSA+4

PL6.E3A0      #004=VDA$FREKEY File=VDA$FILE.:VDA5TSI                             FRI 07/04/97 11:05 Page:253
     1816     6509    2                %NB_PER_WORD) - 1;
     1817     6510                   /* Allocate key-granule buffer */
     1818     6511    2              CALL VDG$OALLOC (%CLS_BUFFER, SRC_XSA_KEY$,

   6511  3 000442   000017 236000 4                  LDQ     15
         3 000443   200220 756100                    STQ     PREV_BUFFER$+4,,AUTO
         3 000444   200011 630500                    EPPR0   SRC_XSA_KEY$,,AUTO
         3 000445   200217 450500                    STP0    PREV_BUFFER$+3,,AUTO
         3 000446   000020 236000 4                  LDQ     16
         3 000447   200216 756100                    STQ     PREV_BUFFER$+2,,AUTO
         3 000450   200216 630500                    EPPR0   PREV_BUFFER$+2,,AUTO
         3 000451   000021 631400 xsym               EPPR1   B_VECTNIL+17
         3 000452   000000 701000 xent               TSX1    VDG$OALLOC
         3 000453   001350 702000 3                  TSX2    REKEY_FAILED

     1819     6512    2                SIZEW(VD$BUFFER_HEADER) + %NW_FSA_KEY_BUFFER)
     1820     6513    2                ALTRET (REKEY_FAILED);
     1821     6514    2              SRC_XSA.KBUF_.BUF$ = PALIGNW(ADDR(SRC$XSA_KEY.BYTES));

   6514  3 000454   200011 236100                    LDQ     SRC_XSA_KEY$,,AUTO
         3 000455   000021 036000 4                  ADLQ    17
         3 000456   770000 036007                    ADLQ    -4096,DL
         3 000457   000022 376000 4                  ANQ     18
         3 000460   000003 756000 2                  STQ     SRC_XSA+3

     1822     6515    2              SRC_XSA.KBUF_.BOUND = (%NW_FSA_KEY_BUFFER *

   6515  3 000461   000002 236000 2                  LDQ     SRC_XSA+2
         3 000462   177777 376007                    ANQ     65535,DL
         3 000463   000023 276000 4                  ORQ     19
         3 000464   000002 756000 2                  STQ     SRC_XSA+2

     1823     6516    2                %NB_PER_WORD) - 1;
     1824     6517    2              END;

     1825     6518
     1826     6519
PL6.E3A0      #004=VDA$FREKEY File=VDA$FILE.:VDA5TSI                             FRI 07/04/97 11:05 Page:254
     1827     6520                /* Switch port to destination DCB */
     1828     6521    1           CALL VDG$OALLOC_DCB (PORT.DCB#)

   6521  3 000465   200004 470500                    LDP0    @DEST_STREAM,,AUTO
         3 000466   000001 471500                    LDP1    1,,PR0
         3 000467   200217 451500                    STP1    PREV_BUFFER$+3,,AUTO
         3 000470   200217 236100                    LDQ     PREV_BUFFER$+3,,AUTO
         3 000471   000024 036000 4                  ADLQ    20
         3 000472   200216 756100                    STQ     PREV_BUFFER$+2,,AUTO
         3 000473   200216 630500                    EPPR0   PREV_BUFFER$+2,,AUTO
         3 000474   000017 631400 xsym               EPPR1   B_VECTNIL+15
         3 000475   000000 701000 xent               TSX1    VDG$OALLOC_DCB
         3 000476   001350 702000 3                  TSX2    REKEY_FAILED

     1829     6522    1             ALTRET (REKEY_FAILED);
     1830     6523
     1831     6524
     1832     6525        /*      Remember to change the ORG# in the PORT block to
     1833     6526                the ORG of the destination DCB when we switch the port. */
     1834     6527
     1835     6528    1           PORT.LEVEL.ORG# (%LVL_EXT_REC) = %ORG_KEYED;

   6528  3 000477   200004 470500                    LDP0    @DEST_STREAM,,AUTO
         3 000500   000001 471500                    LDP1    1,,PR0
         3 000501   000002 220003                    LDX0    2,DU
         3 000502   100032 740100                    STX0    26,,PR1

     1836     6529    1           PORT.LEVEL.KEY_TYPE# (%LVL_EXT_REC) = %KT_EDITKEY;

   6529  3 000503   000001 471500                    LDP1    1,,PR0
         3 000504   000003 221003                    LDX1    3,DU
         3 000505   100032 441100                    SXL1    26,,PR1

     1837     6530
     1838     6531        /*****************************************************************************
     1839     6532        *                                                                            *
     1840     6533        *                               !! WARNING !!                                *
PL6.E3A0      #004=VDA$FREKEY File=VDA$FILE.:VDA5TSI                             FRI 07/04/97 11:05 Page:255
     1841     6534        *              Any errors from here on must GOTO ABORT_REKEY.                *
     1842     6535        *                                                                            *
     1843     6536        *                                                                            */
     1844     6537
     1845     6538    1           FPT_OPEN.V.INITZ.SCRUB# = %YES#;

   6538  3 000506   400000 236007                    LDQ     -131072,DL
         3 000507   200122 256100                    ORSQ    FPT_OPEN+36,,AUTO

     1846     6539    1           FPT_OPEN.V.ACS# = %DIRECT#;

   6539  3 000510   000002 236007                    LDQ     2,DL
         3 000511   200124 552104                    STBQ    FPT_OPEN+38,'04'O,AUTO

     1847     6540    1           FPT_OPEN.V.DCB# = PORT.DCB#;

   6540  3 000512   000001 471500                    LDP1    1,,PR0
         3 000513   100004 722100                    LXL2    4,,PR1
         3 000514   200122 742100                    STX2    FPT_OPEN+36,,AUTO

     1848     6541    1           FPT_OPEN.V.FUN# = %CREATE#;

   6541  3 000515   003000 236007                    LDQ     1536,DL
         3 000516   200123 552110                    STBQ    FPT_OPEN+37,'10'O,AUTO

     1849     6542    1           FPT_OPEN.ACCT_ = VECTOR(SRC$DCB.ACCT#);

   6542  3 000517   000025 235000 4                  LDA     21
         3 000520   200017 236100                    LDQ     SRC_DCB$,,AUTO
         3 000521   000020 036003                    ADLQ    16,DU
         3 000522   200102 757100                    STAQ    FPT_OPEN+20,,AUTO

     1850     6543    1           FPT_OPEN.NAME_ = VECTOR(SRC$DCB.NAME#);

   6543  3 000523   000026 235000 4                  LDA     22
         3 000524   200017 236100                    LDQ     SRC_DCB$,,AUTO
         3 000525   000010 036003                    ADLQ    8,DU
PL6.E3A0      #004=VDA$FREKEY File=VDA$FILE.:VDA5TSI                             FRI 07/04/97 11:05 Page:256
         3 000526   200064 757100                    STAQ    FPT_OPEN+6,,AUTO

     1851     6544    1           VLP_SN.NUM# = 1;

   6544  3 000527   000001 235007                    LDA     1,DL
         3 000530   200150 755100                    STA     VLP_SN,,AUTO

     1852     6545    1           VLP_SN.SN#(0) = SRC$DCB.PSN#;

   6545  3 000531   200017 471500                    LDP1    SRC_DCB$,,AUTO
         3 000532   040100 100500                    MLR     fill='040'O
         3 000533   100024 000006                    ADSC9   20,,PR1                  cn=0,n=6
         3 000534   200151 000006                    ADSC9   VLP_SN+1,,AUTO           cn=0,n=6

     1853     6546    1           FPT_OPEN.SN_ = VECTOR(VLP_SN);

   6546  3 000535   000012 235000 4                  LDA     10
         3 000536   200216 452500                    STP2    PREV_BUFFER$+2,,AUTO
         3 000537   200216 236100                    LDQ     PREV_BUFFER$+2,,AUTO
         3 000540   000150 036003                    ADLQ    104,DU
         3 000541   200060 757100                    STAQ    FPT_OPEN+2,,AUTO

     1854     6547    1           FPT_OPEN.IFPARAM_ = VECTOR(PORT.FIT$->VD$FIT.FIT);

   6547  3 000542   000001 473500                    LDP3    1,,PR0
         3 000543   300005 474500                    LDP4    5,,PR3
         3 000544   000027 235000 4                  LDA     23
         3 000545   200216 454500                    STP4    PREV_BUFFER$+2,,AUTO
         3 000546   200216 236100                    LDQ     PREV_BUFFER$+2,,AUTO
         3 000547   000003 036003                    ADLQ    3,DU
         3 000550   200104 757100                    STAQ    FPT_OPEN+22,,AUTO

     1855     6548    1           IF VD_$$MON_ACC.V# > 10 THEN

   6548  3 000551   000003 235000 xsym               LDA     VD_$$MON_ACC+3
         3 000552   000012 115007                    CMPA    10,DL
         3 000553   000570 604400 3                  TMOZ    s:6551
PL6.E3A0      #004=VDA$FREKEY File=VDA$FILE.:VDA5TSI                             FRI 07/04/97 11:05 Page:257

     1856     6549    1              CALL VDG$MACC_FREKEY_OPEN_DEST (FPT_OPEN.V.DCB#,

   6549  3 000554   200017 236100                    LDQ     SRC_DCB$,,AUTO
         3 000555   000020 036003                    ADLQ    16,DU
         3 000556   200220 756100                    STQ     PREV_BUFFER$+4,,AUTO
         3 000557   200017 236100                    LDQ     SRC_DCB$,,AUTO
         3 000560   000010 036003                    ADLQ    8,DU
         3 000561   200217 756100                    STQ     PREV_BUFFER$+3,,AUTO
         3 000562   200122 633500                    EPPR3   FPT_OPEN+36,,AUTO
         3 000563   200216 453500                    STP3    PREV_BUFFER$+2,,AUTO
         3 000564   200216 630500                    EPPR0   PREV_BUFFER$+2,,AUTO
         3 000565   000021 631400 xsym               EPPR1   B_VECTNIL+17
         3 000566   000000 701000 xent               TSX1    VDG$MACC_FREKEY_OPEN_DEST
         3 000567   000000 011000                    NOP     0

     1857     6550    1                SRC$DCB.NAME#, SRC$DCB.ACCT#);
     1858     6551    1           CALL M$OPEN (FPT_OPEN)

   6551  3 000570   200056 630500                    EPPR0   FPT_OPEN,,AUTO
         3 000571   450000 713400                    CLIMB   alt,open
         3 000572   410400 401760                    pmme    nvectors=18
         3 000573   000575 702000 3                  TSX2    s:6553
         3 000574   000601 710000 3                  TRA     s:6556

     1859     6552    2           WHENALTRETURN DO;

     1860     6553    2              CALL VDG$MONERR;

   6553  3 000575   000002 631400 xsym               EPPR1   B_VECTNIL+2
         3 000576   000000 701000 xent               TSX1    VDG$MONERR
         3 000577   000000 011000                    NOP     0

     1861     6554    2              GOTO ABORT_REKEY;

   6554  3 000600   001365 710000 3                  TRA     ABORT_REKEY

PL6.E3A0      #004=VDA$FREKEY File=VDA$FILE.:VDA5TSI                             FRI 07/04/97 11:05 Page:258
     1862     6555    2              END;
     1863     6556    1           PORT.LAST_OP# = %ACCOP_OPEN;

   6556  3 000601   200004 470500                    LDP0    @DEST_STREAM,,AUTO
         3 000602   000001 471500                    LDP1    1,,PR0
         3 000603   000001 220003                    LDX0    1,DU
         3 000604   100007 740100                    STX0    7,,PR1

     1864     6557
     1865     6558                %BOX (TITLE="Copy records to new DCB");

              6570    1   /***************************************************************************
              6572    1    *                                                                         *
              6576    1            *                          Copy records to new DCB                       *
              6578    1            *                                                                        *
              6580    1          ***************************************************************************/

     1866     6584
     1867     6585    1           CURR_XLATE_TABLE$ = XLATE_LOCATIONS_ROOT$;

   6585  3 000605   200203 236100                    LDQ     XLATE_LOCATIONS_ROOT$,,AUTO
         3 000606   200204 756100                    STQ     CURR_XLATE_TABLE$,,AUTO

     1868     6586    1           CURR_XLATE = 0;

   6586  3 000607   200205 450100                    STZ     CURR_XLATE,,AUTO

     1869     6587    1           IF ADDR(CURR$XLATE_TABLE.XLATES.OLD_KEY_LO(CURR_XLATE))->BKEY.BYTES# =

   6587  3 000610   200205 235100                    LDA     CURR_XLATE,,AUTO
         3 000611   000003 735000                    ALS     3
         3 000612   200204 471500                    LDP1    CURR_XLATE_TABLE$,,AUTO
         3 000613   100020 236105                    LDQ     16,AL,PR1
         3 000614   000001 676000 xsym               ERQ     VD_KEY_NUMERIC_BOF+1
         3 000615   000032 376000 xsym               ANQ     B_VECTNIL+26
         3 000616   000624 601000 3                  TNZ     s:6594

PL6.E3A0      #004=VDA$FREKEY File=VDA$FILE.:VDA5TSI                             FRI 07/04/97 11:05 Page:259
     1870     6588    2             VD_KEY_NUMERIC_BOF.BYTES# THEN DO;

     1871     6589                   /* "Virtual" BOF key is always xlated to itself */
     1872     6590    2              CURR$XLATE_TABLE.XLATES.NEW_KEY (CURR_XLATE) = VD_KEY_NUMERIC_BOF;

   6590  3 000617   000002 735000                    ALS     2
         3 000620   000105 100400                    MLR     fill='000'O
         3 000621   000000 000010 xsym               ADSC9   VD_KEY_NUMERIC_BOF       cn=0,n=8
         3 000622   100024 000010                    ADSC9   20,A,PR1                 cn=0,n=8

     1873     6591    2              CURR_XLATE = CURR_XLATE + 1;

   6591  3 000623   200205 054100                    AOS     CURR_XLATE,,AUTO

     1874     6592    2              END;

     1875     6593
     1876     6594    1           FPT_READ = CONST_FPT_READ;

   6594  3 000624   000100 100400                    MLR     fill='000'O
         3 000625   000072 000070 1                  ADSC9   CONST_FPT_READ           cn=0,n=56
         3 000626   200154 000070                    ADSC9   FPT_READ,,AUTO           cn=0,n=56

     1877     6595    1           FPT_READ.V_ = VECTOR(FPT_READ.V);

   6595  3 000627   000030 235000 4                  LDA     24
         3 000630   200216 452500                    STP2    PREV_BUFFER$+2,,AUTO
         3 000631   200216 236100                    LDQ     PREV_BUFFER$+2,,AUTO
         3 000632   000164 036003                    ADLQ    116,DU
         3 000633   200154 757100                    STAQ    FPT_READ,,AUTO

     1878     6596    1           FPT_READ.KEY_ = VECTOR(READ_KEY);

   6596  3 000634   777640 235007                    LDA     -96,DL
         3 000635   200216 452500                    STP2    PREV_BUFFER$+2,,AUTO
         3 000636   200216 236100                    LDQ     PREV_BUFFER$+2,,AUTO
         3 000637   000172 036003                    ADLQ    122,DU
PL6.E3A0      #004=VDA$FREKEY File=VDA$FILE.:VDA5TSI                             FRI 07/04/97 11:05 Page:260
         3 000640   200156 757100                    STAQ    FPT_READ+2,,AUTO

     1879     6597    1           FPT_READ.V.DCB# = SRC_DCB;

   6597  3 000641   200016 221100                    LDX1    SRC_DCB,,AUTO
         3 000642   200164 741100                    STX1    FPT_READ+8,,AUTO

     1880     6598    1           SPEC = %CLEAR;

   6598  3 000643   000000 235003                    LDA     0,DU
         3 000644   000000 236003                    LDQ     0,DU
         3 000645   200174 757100                    STAQ    SPEC,,AUTO

     1881     6599    1           SPEC.TYPE# = %SPT_EXT_RECORD;

   6599  3 000646   200174 740100                    STX0    SPEC,,AUTO

     1882     6600    1           SPEC.REP# = %REP_LOCAL;

   6600  3 000647   200174 440100                    SXL0    SPEC,,AUTO

     1883     6601    1           SPEC.LENGTH# = 1;   /* DVBYTE is 1 character */

   6601  3 000650   001000 236003                    LDQ     512,DU
         3 000651   200175 552140                    STBQ    SPEC+1,'40'O,AUTO

     1884     6602    1           CALL READ_SRC_RECORD (VD_BUFFER$, SPEC.BYTES, EOF)

   6602  3 000652   200176 633500                    EPPR3   EOF,,AUTO
         3 000653   200211 453500                    STP3    @DVBYTE+1,,AUTO
         3 000654   200216 452500                    STP2    PREV_BUFFER$+2,,AUTO
         3 000655   200216 236100                    LDQ     PREV_BUFFER$+2,,AUTO
         3 000656   000031 036000 4                  ADLQ    25
         3 000657   200210 756100                    STQ     @VD_BUFFER$+1,,AUTO
         3 000660   200173 634500                    EPPR4   VD_BUFFER$,,AUTO
         3 000661   200207 454500                    STP4    CURR_XLATE+2,,AUTO
         3 000662   001546 701000 3                  TSX1    READ_SRC_RECORD
PL6.E3A0      #004=VDA$FREKEY File=VDA$FILE.:VDA5TSI                             FRI 07/04/97 11:05 Page:261
         3 000663   001365 702000 3                  TSX2    ABORT_REKEY

     1885     6603    1             ALTRET (ABORT_REKEY);
     1886     6604
     1887     6605    1           CALL VDG$OCLEAR_LOCATION (PORT.CURRENT)

   6605  3 000664   200004 470500                    LDP0    @DEST_STREAM,,AUTO
         3 000665   000001 471500                    LDP1    1,,PR0
         3 000666   100012 633500                    EPPR3   10,,PR1
         3 000667   200216 453500                    STP3    PREV_BUFFER$+2,,AUTO
         3 000670   200216 630500                    EPPR0   PREV_BUFFER$+2,,AUTO
         3 000671   000017 631400 xsym               EPPR1   B_VECTNIL+15
         3 000672   000000 701000 xent               TSX1    VDG$OCLEAR_LOCATION
         3 000673   001365 702000 3                  TSX2    ABORT_REKEY

     1888     6606    1             ALTRET (ABORT_REKEY);
     1889     6607    1           PORT.CURRENT.KEY(%LVL_EXT_REC-1) = ACTUAL_KEY_INCR;

   6607  3 000674   200004 470500                    LDP0    @DEST_STREAM,,AUTO
         3 000675   000001 471500                    LDP1    1,,PR0
         3 000676   000100 100500                    MLR     fill='000'O
         3 000677   200177 000010                    ADSC9   ACTUAL_KEY_INCR,,AUTO    cn=0,n=8
         3 000700   100012 000010                    ADSC9   10,,PR1                  cn=0,n=8

     1890     6608
     1891     6609    1   COPY_RECORDS:
     1892     6610    2           DO WHILE NOT EOF;

   6610  3 000701   001072 710000 3     COPY_RECORDS TRA     s:6668

     1893     6611    3              IF VD_6E.INTERRUPT.STATE# = %INST_BREAK_QUEUED THEN DO;

   6611  3 000702   000027 220000 xsym               LDX0    VD_6E+23
         3 000703   000003 100003                    CMPX0   3,DU
         3 000704   000712 601000 3                  TNZ     s:6615

     1894     6612    3                 CALL VDG$EBREAK_ACKNOWLEDGE (%E$BREAK_HIT);
PL6.E3A0      #004=VDA$FREKEY File=VDA$FILE.:VDA5TSI                             FRI 07/04/97 11:05 Page:262

   6612  3 000705   000000 630400 4                  EPPR0   0
         3 000706   000017 631400 xsym               EPPR1   B_VECTNIL+15
         3 000707   000000 701000 xent               TSX1    VDG$EBREAK_ACKNOWLEDGE
         3 000710   000000 011000                    NOP     0

     1895     6613    3                 GOTO ABORT_REKEY;

   6613  3 000711   001365 710000 3                  TRA     ABORT_REKEY

     1896     6614    3                 END;
     1897     6615    2              IF VD_$$MON_ACC.V# > 10 THEN

   6615  3 000712   000003 235000 xsym               LDA     VD_$$MON_ACC+3
         3 000713   000012 115007                    CMPA    10,DL
         3 000714   000726 604400 3                  TMOZ    s:6617

     1898     6616    2                 CALL VDG$MACC_FREKEY_PWRITE (PORT, VD$BUFFER);

   6616  3 000715   200004 470500                    LDP0    @DEST_STREAM,,AUTO
         3 000716   000001 471500                    LDP1    1,,PR0
         3 000717   200173 236100                    LDQ     VD_BUFFER$,,AUTO
         3 000720   200217 756100                    STQ     PREV_BUFFER$+3,,AUTO
         3 000721   200216 451500                    STP1    PREV_BUFFER$+2,,AUTO
         3 000722   200216 630500                    EPPR0   PREV_BUFFER$+2,,AUTO
         3 000723   000020 631400 xsym               EPPR1   B_VECTNIL+16
         3 000724   000000 701000 xent               TSX1    VDG$MACC_FREKEY_PWRITE
         3 000725   000000 011000                    NOP     0

     1899     6617    2              CALL VDA$PWRITE (PORT, %LVL_EXT_REC, , VD$BUFFER)

   6617  3 000726   200004 470500                    LDP0    @DEST_STREAM,,AUTO
         3 000727   000001 471500                    LDP1    1,,PR0
         3 000730   200173 236100                    LDQ     VD_BUFFER$,,AUTO
         3 000731   000001 235000 xsym               LDA     B_VECTNIL+1
         3 000732   200220 757100                    STAQ    PREV_BUFFER$+4,,AUTO
         3 000733   000011 236000 4                  LDQ     9
PL6.E3A0      #004=VDA$FREKEY File=VDA$FILE.:VDA5TSI                             FRI 07/04/97 11:05 Page:263
         3 000734   200217 756100                    STQ     PREV_BUFFER$+3,,AUTO
         3 000735   200216 451500                    STP1    PREV_BUFFER$+2,,AUTO
         3 000736   200216 630500                    EPPR0   PREV_BUFFER$+2,,AUTO
         3 000737   000022 631400 xsym               EPPR1   B_VECTNIL+18
         3 000740   000000 701000 xent               TSX1    VDA$PWRITE
         3 000741   000743 702000 3                  TSX2    s:6619
         3 000742   000750 710000 3                  TRA     s:6634

     1900     6618    3              WHENALTRETURN DO;

     1901     6619    3                 CALL VDG$OFREE (VD$BUFFER);   /* Ignore altreturn */

   6619  3 000743   200173 630500                    EPPR0   VD_BUFFER$,,AUTO
         3 000744   000017 631400 xsym               EPPR1   B_VECTNIL+15
         3 000745   000000 701000 xent               TSX1    VDG$OFREE
         3 000746   000000 011000                    NOP     0

     1902     6620    3                 GOTO ABORT_REKEY;

   6620  3 000747   001365 710000 3                  TRA     ABORT_REKEY

     1903     6621    3                 END;
     1904     6622                   /*
     1905     6623                   *   When we copy a record to the new (=Port's) file, VDA$PWRITE
     1906     6624                   *       will compare what we write with what's already in the
     1907     6625                   *       Port's registers; if the Port currently holds the first
     1908     6626                   *       record of the file, VDA$PWRITE will find the record we're
     1909     6627                   *       writing equal to the record in the Port and will basically
     1910     6628                   *       ignore the write (won't set .x_MODIFIED).
     1911     6629                   *   So, we set the _MODIFIED bit here, to force VDA$PFLUSH to write
     1912     6630                   *       the record out to the file.
     1913     6631                   *   Test case for this:  BO CURR<CR> REKEY<CR> loses first record in
     1914     6632                   *       file.
     1915     6633                   */
     1916     6634    2              PORT.LEVEL.DATA_MODIFIED (%LVL_EXT_REC) = %TRUE;

   6634  3 000750   200004 470500                    LDP0    @DEST_STREAM,,AUTO
PL6.E3A0      #004=VDA$FREKEY File=VDA$FILE.:VDA5TSI                             FRI 07/04/97 11:05 Page:264
         3 000751   000001 471500                    LDP1    1,,PR0
         3 000752   200000 236003                    LDQ     65536,DU
         3 000753   100037 256100                    ORSQ    31,,PR1

     1917     6635    2              CALL VDA$PFLUSH (PORT, %TO_PRESENTER)

   6635  3 000754   000001 471500                    LDP1    1,,PR0
         3 000755   000032 236000 4                  LDQ     26
         3 000756   200217 756100                    STQ     PREV_BUFFER$+3,,AUTO
         3 000757   200216 451500                    STP1    PREV_BUFFER$+2,,AUTO
         3 000760   200216 630500                    EPPR0   PREV_BUFFER$+2,,AUTO
         3 000761   000020 631400 xsym               EPPR1   B_VECTNIL+16
         3 000762   000000 701000 xent               TSX1    VDA$PFLUSH
         3 000763   001365 702000 3                  TSX2    ABORT_REKEY

     1918     6636    2                ALTRET (ABORT_REKEY);
     1919     6637
     1920     6638                   /*
     1921     6639                   *   Search CURR$XLATE_TABLE forward from CURR_XLATE, looking for
     1922     6640                   *       READ_KEY or (one entry shy of) the next higher key.  For each
     1923     6641                   *       xlate entry found, store PORT$KEY.BYTES# in the entry.
     1924     6642                   */
     1925     6643    2   SCAN_XLATE_TABLES:
     1926     6644    3              DO WHILE CURR_XLATE_TABLE$ ~= ADDR(NIL);

   6644  3 000764   001022 710000 3     SCAN_XLATE_* TRA     s:6655

     1927     6645    4                 DO WHILE CURR_XLATE < CURR$XLATE_TABLE.N_ENTRIES#;

   6645  3 000765   200204 470500                    LDP0    CURR_XLATE_TABLE$,,AUTO
         3 000766   000001 236100                    LDQ     1,,PR0
         3 000767   000022 732000                    QRS     18
         3 000770   200205 116100                    CMPQ    CURR_XLATE,,AUTO
         3 000771   001017 604400 3                  TMOZ    s:6653

     1928     6646    4                    IF ADDR(CURR$XLATE_TABLE.XLATES.OLD_KEY_LO(CURR_XLATE)) ->

PL6.E3A0      #004=VDA$FREKEY File=VDA$FILE.:VDA5TSI                             FRI 07/04/97 11:05 Page:265
   6646  3 000772   200205 235100                    LDA     CURR_XLATE,,AUTO
         3 000773   000003 735000                    ALS     3
         3 000774   200204 470500                    LDP0    CURR_XLATE_TABLE$,,AUTO
         3 000775   000020 236105                    LDQ     16,AL,PR0
         3 000776   000032 376000 xsym               ANQ     B_VECTNIL+26
         3 000777   200216 756100                    STQ     PREV_BUFFER$+2,,AUTO
         3 001000   200172 236100                    LDQ     READ_KEY,,AUTO
         3 001001   000032 376000 xsym               ANQ     B_VECTNIL+26
         3 001002   200216 116100                    CMPQ    PREV_BUFFER$+2,,AUTO
         3 001003   001025 604000 3                  TMI     s:6658

     1929     6647    4                      BKEY.BYTES# > READ_KEY.BYTES# THEN
     1930     6648    4                       EXIT SCAN_XLATE_TABLES;    /* Done til next record */
     1931     6649    4                    CURR$XLATE_TABLE.XLATES.NEW_KEY(CURR_XLATE) =

   6649  3 001004   200004 471500                    LDP1    @DEST_STREAM,,AUTO
         3 001005   100001 473500                    LDP3    1,,PR1
         3 001006   000002 735000                    ALS     2
         3 001007   000105 100500                    MLR     fill='000'O
         3 001010   300012 000010                    ADSC9   10,,PR3                  cn=0,n=8
         3 001011   000024 000010                    ADSC9   20,A,PR0                 cn=0,n=8

     1932     6650    4                      PORT.CURRENT.KEY(%LVL_EXT_REC-1);
     1933     6651    4                    CURR_XLATE = CURR_XLATE + 1;

   6651  3 001012   200205 054100                    AOS     CURR_XLATE,,AUTO

     1934     6652    4                    END;

   6652  3 001013   000001 236100                    LDQ     1,,PR0
         3 001014   000022 732000                    QRS     18
         3 001015   200205 116100                    CMPQ    CURR_XLATE,,AUTO
         3 001016   000772 605400 3                  TPNZ    s:6646

     1935     6653    3                 CURR_XLATE_TABLE$ = CURR$XLATE_TABLE.FLINK$;

   6653  3 001017   000002 236100                    LDQ     2,,PR0
PL6.E3A0      #004=VDA$FREKEY File=VDA$FILE.:VDA5TSI                             FRI 07/04/97 11:05 Page:266
         3 001020   200204 756100                    STQ     CURR_XLATE_TABLE$,,AUTO

     1936     6654    3                 CURR_XLATE = 0;

   6654  3 001021   200205 450100                    STZ     CURR_XLATE,,AUTO

     1937     6655    3                 END SCAN_XLATE_TABLES;

   6655  3 001022   200204 236100                    LDQ     CURR_XLATE_TABLE$,,AUTO
         3 001023   000001 116000 xsym               CMPQ    B_VECTNIL+1
         3 001024   000765 601000 3                  TNZ     s:6645

     1938     6656
     1939     6657                   /* Bump to the next key for the destination file */
     1940     6658    2              ADDR(PORT.CURRENT.KEY(%LVL_EXT_REC-1))->BKEY.BYTES# =

   6658  3 001025   200004 470500                    LDP0    @DEST_STREAM,,AUTO
         3 001026   000001 471500                    LDP1    1,,PR0
         3 001027   200200 236100                    LDQ     ACTUAL_KEY_INCR+1,,AUTO
         3 001030   000032 376000 xsym               ANQ     B_VECTNIL+26
         3 001031   200216 756100                    STQ     PREV_BUFFER$+2,,AUTO
         3 001032   100013 236100                    LDQ     11,,PR1
         3 001033   000032 376000 xsym               ANQ     B_VECTNIL+26
         3 001034   200216 036100                    ADLQ    PREV_BUFFER$+2,,AUTO
         3 001035   100013 552134                    STBQ    11,'34'O,PR1

     1941     6659    2                ADDR(PORT.CURRENT.KEY(%LVL_EXT_REC-1))->BKEY.BYTES# +
     1942     6660    2                ACTUAL$KEY_INCR.BYTES#;
     1943     6661    2              IF HOLE# ~= 0 THEN IF HOLE_KEY.BYTES# = READ_KEY.BYTES# THEN

   6661  3 001036   200201 235100                    LDA     HOLE#,,AUTO
         3 001037   001060 600000 3                  TZE     s:6666

   6661  3 001040   200007 471500                    LDP1    @HOLE_KEY,,AUTO
         3 001041   100001 236100                    LDQ     1,,PR1
         3 001042   200172 676100                    ERQ     READ_KEY,,AUTO
         3 001043   000032 376000 xsym               ANQ     B_VECTNIL+26
PL6.E3A0      #004=VDA$FREKEY File=VDA$FILE.:VDA5TSI                             FRI 07/04/97 11:05 Page:267
         3 001044   001060 601000 3                  TNZ     s:6666

     1944     6662    2                    ADDR(PORT.CURRENT.KEY(%LVL_EXT_REC-1))->BKEY.BYTES# =

   6662  3 001045   000001 473500                    LDP3    1,,PR0
         3 001046   200200 236100                    LDQ     ACTUAL_KEY_INCR+1,,AUTO
         3 001047   000032 376000 xsym               ANQ     B_VECTNIL+26
         3 001050   200201 402100                    MPY     HOLE#,,AUTO
         3 001051   200216 756100                    STQ     PREV_BUFFER$+2,,AUTO
         3 001052   300013 236100                    LDQ     11,,PR3
         3 001053   000032 376000 xsym               ANQ     B_VECTNIL+26
         3 001054   200217 756100                    STQ     PREV_BUFFER$+3,,AUTO
         3 001055   200216 236100                    LDQ     PREV_BUFFER$+2,,AUTO
         3 001056   200217 036100                    ADLQ    PREV_BUFFER$+3,,AUTO
         3 001057   300013 552134                    STBQ    11,'34'O,PR3

     1945     6663    2                      ADDR(PORT.CURRENT.KEY(%LVL_EXT_REC-1))->BKEY.BYTES# +
     1946     6664    2                      HOLE# * ACTUAL$KEY_INCR.BYTES#;
     1947     6665
     1948     6666    2              CALL READ_SRC_RECORD (VD_BUFFER$, SPEC.BYTES, EOF)

   6666  3 001060   200176 631500                    EPPR1   EOF,,AUTO
         3 001061   200211 451500                    STP1    @DVBYTE+1,,AUTO
         3 001062   200216 452500                    STP2    PREV_BUFFER$+2,,AUTO
         3 001063   200216 236100                    LDQ     PREV_BUFFER$+2,,AUTO
         3 001064   000031 036000 4                  ADLQ    25
         3 001065   200210 756100                    STQ     @VD_BUFFER$+1,,AUTO
         3 001066   200173 633500                    EPPR3   VD_BUFFER$,,AUTO
         3 001067   200207 453500                    STP3    CURR_XLATE+2,,AUTO
         3 001070   001546 701000 3                  TSX1    READ_SRC_RECORD
         3 001071   001365 702000 3                  TSX2    ABORT_REKEY

     1949     6667    2                ALTRET (ABORT_REKEY);
     1950     6668    2              END COPY_RECORDS;

   6668  3 001072   200176 234100                    SZN     EOF,,AUTO
         3 001073   000702 605000 3                  TPL     s:6611
PL6.E3A0      #004=VDA$FREKEY File=VDA$FILE.:VDA5TSI                             FRI 07/04/97 11:05 Page:268

     1951     6669
     1952     6670
     1953     6671                /*
     1954     6672                *  From here on, the entire file has been copied to the destination
     1955     6673                *       DCB; the rekeyed version of the file is safe.
     1956     6674                *  Therefore, any errors from here on shouldn't abort the rekey, but
     1957     6675                *       they shouldn't just altreturn either.  Instead, they should
     1958     6676                *       remember the fact that we saw an error (so we can ALTRETURN
     1959     6677                *       at the end), but continue processing--to close all the DCBs,
     1960     6678                *       clean up the Port and the DCBs, etc.
     1961     6679                */
     1962     6680
     1963     6681                /*
     1964     6682                *   Search CURR$XLATE_TABLE forward from CURR_XLATE til the end of the
     1965     6683                *       last table.  For each of these xlate entries, store
     1966     6684                *       PORT$KEY.BYTES# in the entry.  These are keys beyond the end of
     1967     6685                *       the file; PORT$KEY.BYTES# is one increment beyond the end of
     1968     6686                *       the newly-rekeyed file.
     1969     6687                */
     1970     6688    1   FINISH_XLATE_TABLES:
     1971     6689    2           DO WHILE CURR_XLATE_TABLE$ ~= ADDR(NIL);

   6689  3 001074   001124 710000 3     FINISH_XLAT* TRA     s:6697

     1972     6690    3              DO WHILE CURR_XLATE < CURR$XLATE_TABLE.N_ENTRIES#;

   6690  3 001075   200204 470500                    LDP0    CURR_XLATE_TABLE$,,AUTO
         3 001076   000001 236100                    LDQ     1,,PR0
         3 001077   000022 732000                    QRS     18
         3 001100   200205 116100                    CMPQ    CURR_XLATE,,AUTO
         3 001101   001120 604400 3                  TMOZ    s:6695

     1973     6691    3                 CURR$XLATE_TABLE.XLATES.NEW_KEY(CURR_XLATE) =

   6691  3 001102   200205 235100                    LDA     CURR_XLATE,,AUTO
         3 001103   000003 735000                    ALS     3
PL6.E3A0      #004=VDA$FREKEY File=VDA$FILE.:VDA5TSI                             FRI 07/04/97 11:05 Page:269
         3 001104   200004 470500                    LDP0    @DEST_STREAM,,AUTO
         3 001105   000001 471500                    LDP1    1,,PR0
         3 001106   000002 735000                    ALS     2
         3 001107   200204 473500                    LDP3    CURR_XLATE_TABLE$,,AUTO
         3 001110   000105 100500                    MLR     fill='000'O
         3 001111   100012 000010                    ADSC9   10,,PR1                  cn=0,n=8
         3 001112   300024 000010                    ADSC9   20,A,PR3                 cn=0,n=8

     1974     6692    3                   PORT.CURRENT.KEY(%LVL_EXT_REC-1);
     1975     6693    3                 CURR_XLATE = CURR_XLATE + 1;

   6693  3 001113   200205 054100                    AOS     CURR_XLATE,,AUTO

     1976     6694    3                 END;

   6694  3 001114   300001 236100                    LDQ     1,,PR3
         3 001115   000022 732000                    QRS     18
         3 001116   200205 116100                    CMPQ    CURR_XLATE,,AUTO
         3 001117   001102 605400 3                  TPNZ    s:6691

     1977     6695    2              CURR_XLATE_TABLE$ = CURR$XLATE_TABLE.FLINK$;

   6695  3 001120   200204 470500                    LDP0    CURR_XLATE_TABLE$,,AUTO
         3 001121   000002 236100                    LDQ     2,,PR0
         3 001122   200204 756100                    STQ     CURR_XLATE_TABLE$,,AUTO

     1978     6696    2              CURR_XLATE = 0;

   6696  3 001123   200205 450100                    STZ     CURR_XLATE,,AUTO

     1979     6697    2              END FINISH_XLATE_TABLES;

   6697  3 001124   200204 236100                    LDQ     CURR_XLATE_TABLE$,,AUTO
         3 001125   000001 116000 xsym               CMPQ    B_VECTNIL+1
         3 001126   001075 601000 3                  TNZ     s:6690

     1980     6698    1           PORT.CURRENT.EOF = %TRUE;
PL6.E3A0      #004=VDA$FREKEY File=VDA$FILE.:VDA5TSI                             FRI 07/04/97 11:05 Page:270

   6698  3 001127   200004 470500                    LDP0    @DEST_STREAM,,AUTO
         3 001130   000001 471500                    LDP1    1,,PR0
         3 001131   400000 236007                    LDQ     -131072,DL
         3 001132   100022 256100                    ORSQ    18,,PR1

     1981     6699
     1982     6700                /* Close the source DCB */
     1983     6701
     1984     6702    1           FPT_CLOSE.V.DCB# = SRC_DCB;

   6702  3 001133   200016 220100                    LDX0    SRC_DCB,,AUTO
         3 001134   200052 740100                    STX0    FPT_CLOSE+26,,AUTO

     1985     6703    1           IF VD_$$MON_ACC.V# > 10 THEN

   6703  3 001135   000003 235000 xsym               LDA     VD_$$MON_ACC+3
         3 001136   000012 115007                    CMPA    10,DL
         3 001137   001146 604400 3                  TMOZ    s:6705

     1986     6704    1              CALL VDG$MACC_FREKEY_CLOSE_SRC_XSA (FPT_CLOSE.V.DCB#);

   6704  3 001140   200052 631500                    EPPR1   FPT_CLOSE+26,,AUTO
         3 001141   200216 451500                    STP1    PREV_BUFFER$+2,,AUTO
         3 001142   200216 630500                    EPPR0   PREV_BUFFER$+2,,AUTO
         3 001143   000017 631400 xsym               EPPR1   B_VECTNIL+15
         3 001144   000000 701000 xent               TSX1    VDG$MACC_FREKEY_CLOSE_SRC_XSA
         3 001145   000000 011000                    NOP     0

     1987     6705    1           CALL XSA$CLOSE (FPT_CLOSE, SRC_XSA)

   6705  3 001146   000014 236000 4                  LDQ     12
         3 001147   200217 756100                    STQ     PREV_BUFFER$+3,,AUTO
         3 001150   200020 630500                    EPPR0   FPT_CLOSE,,AUTO
         3 001151   200216 450500                    STP0    PREV_BUFFER$+2,,AUTO
         3 001152   200216 630500                    EPPR0   PREV_BUFFER$+2,,AUTO
         3 001153   000020 631400 xsym               EPPR1   B_VECTNIL+16
PL6.E3A0      #004=VDA$FREKEY File=VDA$FILE.:VDA5TSI                             FRI 07/04/97 11:05 Page:271
         3 001154   000000 701000 xent               TSX1    XSA$CLOSE
         3 001155   001157 702000 3                  TSX2    s:6707
         3 001156   001162 710000 3                  TRA     s:6710

     1988     6706    2           WHENALTRETURN DO;

     1989     6707    2              CALL VDG$MONERR;

   6707  3 001157   000002 631400 xsym               EPPR1   B_VECTNIL+2
         3 001160   000000 701000 xent               TSX1    VDG$MONERR
         3 001161   000000 011000                    NOP     0

     1990     6708    2              END;

     1991     6709
     1992     6710    2           IF SRC_XSA_DATA$ ~= ADDR(NIL) THEN DO;

   6710  3 001162   200010 236100                    LDQ     SRC_XSA_DATA$,,AUTO
         3 001163   000001 116000 xsym               CMPQ    B_VECTNIL+1
         3 001164   001171 600000 3                  TZE     s:6713

     1993     6711    2              CALL VDG$OFREE (SRC$XSA_DATA);

   6711  3 001165   200010 630500                    EPPR0   SRC_XSA_DATA$,,AUTO
         3 001166   000017 631400 xsym               EPPR1   B_VECTNIL+15
         3 001167   000000 701000 xent               TSX1    VDG$OFREE
         3 001170   000000 011000                    NOP     0

     1994     6712    2              END;

     1995     6713    2           IF SRC_XSA_KEY$ ~= ADDR(NIL) THEN DO;

   6713  3 001171   200011 236100                    LDQ     SRC_XSA_KEY$,,AUTO
         3 001172   000001 116000 xsym               CMPQ    B_VECTNIL+1
         3 001173   001200 600000 3                  TZE     s:6716

     1996     6714    2              CALL VDG$OFREE (SRC$XSA_KEY);
PL6.E3A0      #004=VDA$FREKEY File=VDA$FILE.:VDA5TSI                             FRI 07/04/97 11:05 Page:272

   6714  3 001174   200011 630500                    EPPR0   SRC_XSA_KEY$,,AUTO
         3 001175   000017 631400 xsym               EPPR1   B_VECTNIL+15
         3 001176   000000 701000 xent               TSX1    VDG$OFREE
         3 001177   000000 011000                    NOP     0

     1997     6715    2              END;

     1998     6716    1           CALL VDG$OFREE_DCB (SRC_DCB);

   6716  3 001200   200016 630500                    EPPR0   SRC_DCB,,AUTO
         3 001201   200216 450500                    STP0    PREV_BUFFER$+2,,AUTO
         3 001202   200216 630500                    EPPR0   PREV_BUFFER$+2,,AUTO
         3 001203   000017 631400 xsym               EPPR1   B_VECTNIL+15
         3 001204   000000 701000 xent               TSX1    VDG$OFREE_DCB
         3 001205   000000 011000                    NOP     0

     1999     6717
     2000     6718                /* Close the destination DCB with SAVE, then re-open it */
     2001     6719    1           FPT_CLOSE.V.DCB# = PORT.DCB#;

   6719  3 001206   200004 470500                    LDP0    @DEST_STREAM,,AUTO
         3 001207   000001 471500                    LDP1    1,,PR0
         3 001210   100004 720100                    LXL0    4,,PR1
         3 001211   200052 740100                    STX0    FPT_CLOSE+26,,AUTO

     2002     6720    1           IF VD_$$MON_ACC.V# > 10 THEN

   6720  3 001212   000003 235000 xsym               LDA     VD_$$MON_ACC+3
         3 001213   000012 115007                    CMPA    10,DL
         3 001214   001223 604400 3                  TMOZ    s:6722

     2003     6721    1              CALL VDG$MACC_FREKEY_CLOSE_DEST (FPT_CLOSE.V.DCB#);

   6721  3 001215   200052 631500                    EPPR1   FPT_CLOSE+26,,AUTO
         3 001216   200216 451500                    STP1    PREV_BUFFER$+2,,AUTO
         3 001217   200216 630500                    EPPR0   PREV_BUFFER$+2,,AUTO
PL6.E3A0      #004=VDA$FREKEY File=VDA$FILE.:VDA5TSI                             FRI 07/04/97 11:05 Page:273
         3 001220   000017 631400 xsym               EPPR1   B_VECTNIL+15
         3 001221   000000 701000 xent               TSX1    VDG$MACC_FREKEY_CLOSE_DEST
         3 001222   000000 011000                    NOP     0

     2004     6722    1           CALL M$CLOSE (FPT_CLOSE)

   6722  3 001223   200020 630500                    EPPR0   FPT_CLOSE,,AUTO
         3 001224   450001 713400                    CLIMB   alt,close
         3 001225   406000 401760                    pmme    nvectors=13
         3 001226   001230 702000 3                  TSX2    s:6724
         3 001227   001233 710000 3                  TRA     s:6731

     2005     6723    2           WHENALTRETURN DO;

     2006     6724    2              CALL VDG$MONERR;

   6724  3 001230   000002 631400 xsym               EPPR1   B_VECTNIL+2
         3 001231   000000 701000 xent               TSX1    VDG$MONERR
         3 001232   000000 011000                    NOP     0

     2007     6725    2              END;

     2008     6726
     2009     6727                /*
     2010     6728                *  After closing the destination DCB, it's positioned at BOF:
     2011     6729                *     clear PORT.CURRENT to indicate DCB's position.
     2012     6730                */
     2013     6731    1           CALL VDG$OCLEAR_LOCATION (PORT.CURRENT);

   6731  3 001233   200004 470500                    LDP0    @DEST_STREAM,,AUTO
         3 001234   000001 471500                    LDP1    1,,PR0
         3 001235   100012 633500                    EPPR3   10,,PR1
         3 001236   200216 453500                    STP3    PREV_BUFFER$+2,,AUTO
         3 001237   200216 630500                    EPPR0   PREV_BUFFER$+2,,AUTO
         3 001240   000017 631400 xsym               EPPR1   B_VECTNIL+15
         3 001241   000000 701000 xent               TSX1    VDG$OCLEAR_LOCATION
         3 001242   000000 011000                    NOP     0
PL6.E3A0      #004=VDA$FREKEY File=VDA$FILE.:VDA5TSI                             FRI 07/04/97 11:05 Page:274

     2014     6732
     2015     6733    1           FPT_OPEN = CONST_FPT_OPEN;

   6733  3 001243   000100 100400                    MLR     fill='000'O
         3 001244   000000 000350 1                  ADSC9   CONST_FPT_OPEN           cn=0,n=232
         3 001245   200056 000350                    ADSC9   FPT_OPEN,,AUTO           cn=0,n=232

     2016     6734    1           FPT_OPEN.V_ = VECTOR(FPT_OPEN.V);

   6734  3 001246   000013 235000 4                  LDA     11
         3 001247   200216 452500                    STP2    PREV_BUFFER$+2,,AUTO
         3 001250   200216 236100                    LDQ     PREV_BUFFER$+2,,AUTO
         3 001251   000122 036003                    ADLQ    82,DU
         3 001252   200056 757100                    STAQ    FPT_OPEN,,AUTO

     2017     6735    1           FPT_OPEN.V.ACS# = %DIRECT#;

   6735  3 001253   000002 236007                    LDQ     2,DL
         3 001254   200124 552104                    STBQ    FPT_OPEN+38,'04'O,AUTO

     2018     6736    1           FPT_OPEN.V.FUN# = %UPDATE#;

   6736  3 001255   001000 236007                    LDQ     512,DL
         3 001256   200123 552110                    STBQ    FPT_OPEN+37,'10'O,AUTO

     2019     6737    1           FPT_OPEN.V.DCB# = PORT.DCB#;

   6737  3 001257   200004 470500                    LDP0    @DEST_STREAM,,AUTO
         3 001260   000001 471500                    LDP1    1,,PR0
         3 001261   100004 720100                    LXL0    4,,PR1
         3 001262   200122 740100                    STX0    FPT_OPEN+36,,AUTO

     2020     6738    1           IF VD_$$MON_ACC.V# > 10 THEN

   6738  3 001263   000003 235000 xsym               LDA     VD_$$MON_ACC+3
         3 001264   000012 115007                    CMPA    10,DL
PL6.E3A0      #004=VDA$FREKEY File=VDA$FILE.:VDA5TSI                             FRI 07/04/97 11:05 Page:275
         3 001265   001274 604400 3                  TMOZ    s:6740

     2021     6739    1              CALL VDG$MACC_FREKEY_REOPEN_DEST (FPT_OPEN.V.DCB#);

   6739  3 001266   200122 631500                    EPPR1   FPT_OPEN+36,,AUTO
         3 001267   200216 451500                    STP1    PREV_BUFFER$+2,,AUTO
         3 001270   200216 630500                    EPPR0   PREV_BUFFER$+2,,AUTO
         3 001271   000017 631400 xsym               EPPR1   B_VECTNIL+15
         3 001272   000000 701000 xent               TSX1    VDG$MACC_FREKEY_REOPEN_DEST
         3 001273   000000 011000                    NOP     0

     2022     6740    1           CALL M$OPEN (FPT_OPEN)

   6740  3 001274   200056 630500                    EPPR0   FPT_OPEN,,AUTO
         3 001275   450000 713400                    CLIMB   alt,open
         3 001276   410400 401760                    pmme    nvectors=18
         3 001277   001301 702000 3                  TSX2    s:6742
         3 001300   001305 710000 3                  TRA     s:6745

     2023     6741    2           WHENALTRETURN DO;

     2024     6742    2              CALL VDG$MONERR;

   6742  3 001301   000002 631400 xsym               EPPR1   B_VECTNIL+2
         3 001302   000000 701000 xent               TSX1    VDG$MONERR
         3 001303   000000 011000                    NOP     0

     2025     6743    2              ALTRETURN;

   6743  3 001304   000000 702200 xent               TSX2  ! X66_AALT

     2026     6744    2              END;
     2027     6745    1           PORT.LAST_OP# = %ACCOP_OPEN;

   6745  3 001305   200004 470500                    LDP0    @DEST_STREAM,,AUTO
         3 001306   000001 471500                    LDP1    1,,PR0
         3 001307   000001 220003                    LDX0    1,DU
PL6.E3A0      #004=VDA$FREKEY File=VDA$FILE.:VDA5TSI                             FRI 07/04/97 11:05 Page:276
         3 001310   100007 740100                    STX0    7,,PR1

     2028     6746
     2029     6747                /* Now, fix up all those references to the old keys */
     2030     6748    1           CALL VDG$XLATE_LOCATIONS (XLATE_LOCATIONS_ROOT$ -> CURR$XLATE_TABLE,

   6748  3 001311   000033 236000 4                  LDQ     27
         3 001312   200203 235100                    LDA     XLATE_LOCATIONS_ROOT$,,AUTO
         3 001313   200216 757100                    STAQ    PREV_BUFFER$+2,,AUTO
         3 001314   200216 630500                    EPPR0   PREV_BUFFER$+2,,AUTO
         3 001315   000020 631400 xsym               EPPR1   B_VECTNIL+16
         3 001316   000000 701000 xent               TSX1    VDG$XLATE_LOCATIONS
         3 001317   000000 011000                    NOP     0

     2031     6749    1             %XLATE_LOCATION);
     2032     6750                /* Free the chain of xlate tables */
     2033     6751    1           CURR_XLATE_TABLE$ = XLATE_LOCATIONS_ROOT$;

   6751  3 001320   200203 236100                    LDQ     XLATE_LOCATIONS_ROOT$,,AUTO
         3 001321   200204 756100                    STQ     CURR_XLATE_TABLE$,,AUTO

     2034     6752    2           DO WHILE CURR_XLATE_TABLE$ ~= ADDR(NIL);

   6752  3 001322   001336 710000 3                  TRA     s:6757

     2035     6753    2              XLATE_LOCATIONS_ROOT$ = CURR$XLATE_TABLE.FLINK$;

   6753  3 001323   200204 470500                    LDP0    CURR_XLATE_TABLE$,,AUTO
         3 001324   000002 236100                    LDQ     2,,PR0
         3 001325   200203 756100                    STQ     XLATE_LOCATIONS_ROOT$,,AUTO

     2036     6754    2              CURR$XLATE_TABLE.FLINK$ = ADDR(NIL);

   6754  3 001326   000001 236000 xsym               LDQ     B_VECTNIL+1
         3 001327   000002 756100                    STQ     2,,PR0

     2037     6755    2              CALL VDG$OFREE (CURR$XLATE_TABLE);
PL6.E3A0      #004=VDA$FREKEY File=VDA$FILE.:VDA5TSI                             FRI 07/04/97 11:05 Page:277

   6755  3 001330   200204 630500                    EPPR0   CURR_XLATE_TABLE$,,AUTO
         3 001331   000017 631400 xsym               EPPR1   B_VECTNIL+15
         3 001332   000000 701000 xent               TSX1    VDG$OFREE
         3 001333   000000 011000                    NOP     0

     2038     6756    2              CURR_XLATE_TABLE$ = XLATE_LOCATIONS_ROOT$;

   6756  3 001334   200203 236100                    LDQ     XLATE_LOCATIONS_ROOT$,,AUTO
         3 001335   200204 756100                    STQ     CURR_XLATE_TABLE$,,AUTO

     2039     6757    2              END;

   6757  3 001336   000001 116000 xsym               CMPQ    B_VECTNIL+1
         3 001337   001323 601000 3                  TNZ     s:6753

     2040     6758
     2041     6759
     2042     6760                /* If VD_ERR$ is non-NIL, we had an error but kept on going anyway */
     2043     6761
     2044     6762    1           IF VD_ERR$ ~= VD_6E.ERR_TAIL$ THEN

   6762  3 001340   200012 236100                    LDQ     VD_ERR$,,AUTO
         3 001341   000032 116000 xsym               CMPQ    VD_6E+26
         3 001342   001344 600000 3                  TZE     s:6765

     2045     6763    1              ALTRETURN;       /* Be sure the error gets reported */

   6763  3 001343   000000 702200 xent               TSX2  ! X66_AALT

     2046     6764
     2047     6765    1           RETURN;

   6765  3 001344   000000 702200 xent               TSX2  ! X66_ARET

     2048     6766
     2049     6767
PL6.E3A0      #004=VDA$FREKEY File=VDA$FILE.:VDA5TSI                             FRI 07/04/97 11:05 Page:278
     2050     6768
     2051     6769    1   CLOSE_SRC_FAILED:
     2052     6770    1           CALL VDG$MONERR;

   6770  3 001345   000002 631400 xsym  CLOSE_SRC_F* EPPR1   B_VECTNIL+2
         3 001346   000000 701000 xent               TSX1    VDG$MONERR
         3 001347   000000 011000                    NOP     0

   6762  3 001350                       REKEY_FAILED null
     2053     6771
     2054     6772    1   REKEY_FAILED: ;
     2055     6773    1           ALTRETURN;

   6773  3 001350   000000 702200 xent               TSX2  ! X66_AALT

     2056     6774
     2057     6775
     2058     6776    1   OPEN_SRC_XSA_FAILED:
     2059     6777    1           CALL VDG$MONERR;

   6777  3 001351   000002 631400 xsym  OPEN_SRC_XS* EPPR1   B_VECTNIL+2
         3 001352   000000 701000 xent               TSX1    VDG$MONERR
         3 001353   000000 011000                    NOP     0

     2060     6778    1           PORT.DCB# = 0;  /* So FCLOSE won't try to M$CLOSE the DCB */

   6778  3 001354   200004 470500                    LDP0    @DEST_STREAM,,AUTO
         3 001355   000001 471500                    LDP1    1,,PR0
         3 001356   000000 220003                    LDX0    0,DU
         3 001357   100004 440100                    SXL0    4,,PR1

     2061     6779    1           CALL VDA$FCLOSE (SRC_STREAM);   /* Let ALTRETURN fall thru */

   6779  3 001360   200003 630500                    EPPR0   @SRC_STREAM,,AUTO
         3 001361   000017 631400 xsym               EPPR1   B_VECTNIL+15
         3 001362   000000 701000 xent               TSX1    VDA$FCLOSE
         3 001363   000000 011000                    NOP     0
PL6.E3A0      #004=VDA$FREKEY File=VDA$FILE.:VDA5TSI                             FRI 07/04/97 11:05 Page:279

     2062     6780    1           ALTRETURN;

   6780  3 001364   000000 702200 xent               TSX2  ! X66_AALT

     2063     6781
     2064     6782
     2065     6783    1   ABORT_REKEY:
     2066     6784                /*
     2067     6785                *  Abort the rekey operation--revert to the original file.
     2068     6786                *  At this point, we assume:
     2069     6787                *       Someone has already built a VD$ERR for an error.
     2070     6788                *       SRC_XSA_DATA$ and _KEY$ are either NIL, meaning we haven't
     2071     6789                *           allocated any buffers for XSA, or they point to the buffers.
     2072     6790                *       SRC_DCB and SRC$DCB refer to the original source DCB.
     2073     6791                *       PORT.DCB# is the destination DCB.
     2074     6792                *  To abort, do the following:
     2075     6793                *     If the dest DCB is open, close it with DISP=RELEASE.
     2076     6794                *     Point the port to the original source DCB.
     2077     6795                *     If the source DCB is open, close it, 'cause it's open for input
     2078     6796                *         only.
     2079     6797                *     If the source DCB is now closed, re-open it for update.
     2080     6798                */
     2081     6799    2           IF DCBADDR(PORT.DCB#)->F$DCB.FCD# THEN DO;

   6799  3 001365   200004 470500       ABORT_REKEY  LDP0    @DEST_STREAM,,AUTO
         3 001366   000001 471500                    LDP1    1,,PR0
         3 001367   000003 473400 4                  LDP3    3
         3 001370   300000 474500                    LDP4    0,,PR3
         3 001371   100004 720100                    LXL0    4,,PR1
         3 001372   400000 475510                    LDP5    0,X0,PR4
         3 001373   500031 236100                    LDQ     25,,PR5
         3 001374   020000 316007                    CANQ    8192,DL
         3 001375   001417 600000 3                  TZE     s:6808

     2082     6800    2              FPT_CLOSE.V.DCB# = PORT.DCB#;

PL6.E3A0      #004=VDA$FREKEY File=VDA$FILE.:VDA5TSI                             FRI 07/04/97 11:05 Page:280
   6800  3 001376   200052 740100                    STX0    FPT_CLOSE+26,,AUTO

     2083     6801    2              FPT_CLOSE.V.DISP# = %RELEASE#;

   6801  3 001377   000001 236007                    LDQ     1,DL
         3 001400   200052 552104                    STBQ    FPT_CLOSE+26,'04'O,AUTO

     2084     6802    2              IF VD_$$MON_ACC.V# > 10 THEN

   6802  3 001401   000003 235000 xsym               LDA     VD_$$MON_ACC+3
         3 001402   000012 115007                    CMPA    10,DL
         3 001403   001412 604400 3                  TMOZ    s:6804

     2085     6803    2                 CALL VDG$MACC_FREKEY_CLOSE_DEST (FPT_CLOSE.V.DCB#);

   6803  3 001404   200052 631500                    EPPR1   FPT_CLOSE+26,,AUTO
         3 001405   200216 451500                    STP1    PREV_BUFFER$+2,,AUTO
         3 001406   200216 630500                    EPPR0   PREV_BUFFER$+2,,AUTO
         3 001407   000017 631400 xsym               EPPR1   B_VECTNIL+15
         3 001410   000000 701000 xent               TSX1    VDG$MACC_FREKEY_CLOSE_DEST
         3 001411   000000 011000                    NOP     0

     2086     6804    2              CALL M$CLOSE (FPT_CLOSE)

   6804  3 001412   200020 630500                    EPPR0   FPT_CLOSE,,AUTO
         3 001413   450001 713400                    CLIMB   alt,close
         3 001414   406000 401760                    pmme    nvectors=13
         3 001415   001417 702000 3                  TSX2    s:6808
         3 001416   001417 710000 3                  TRA     s:6808

     2087     6805    3              WHENALTRETURN DO; END;  /* Ignore altreturn */

     2088     6806    2              END;

     2089     6807
     2090     6808    1           CALL VDG$OFREE_DCB (PORT.DCB#); /* Ignore altreturn */

PL6.E3A0      #004=VDA$FREKEY File=VDA$FILE.:VDA5TSI                             FRI 07/04/97 11:05 Page:281
   6808  3 001417   200004 470500                    LDP0    @DEST_STREAM,,AUTO
         3 001420   000001 471500                    LDP1    1,,PR0
         3 001421   200217 451500                    STP1    PREV_BUFFER$+3,,AUTO
         3 001422   200217 236100                    LDQ     PREV_BUFFER$+3,,AUTO
         3 001423   000024 036000 4                  ADLQ    20
         3 001424   200216 756100                    STQ     PREV_BUFFER$+2,,AUTO
         3 001425   200216 630500                    EPPR0   PREV_BUFFER$+2,,AUTO
         3 001426   000017 631400 xsym               EPPR1   B_VECTNIL+15
         3 001427   000000 701000 xent               TSX1    VDG$OFREE_DCB
         3 001430   000000 011000                    NOP     0

     2091     6809    1           PORT.DCB# = SRC_DCB;

   6809  3 001431   200004 470500                    LDP0    @DEST_STREAM,,AUTO
         3 001432   000001 471500                    LDP1    1,,PR0
         3 001433   200016 220100                    LDX0    SRC_DCB,,AUTO
         3 001434   100004 440100                    SXL0    4,,PR1

     2092     6810
     2093     6811    2           IF SRC$DCB.FCD# THEN DO;

   6811  3 001435   200017 471500                    LDP1    SRC_DCB$,,AUTO
         3 001436   100031 236100                    LDQ     25,,PR1
         3 001437   020000 316007                    CANQ    8192,DL
         3 001440   001466 600000 3                  TZE     s:6819

     2094     6812    2              FPT_CLOSE.V.DCB# = SRC_DCB;

   6812  3 001441   200016 220100                    LDX0    SRC_DCB,,AUTO
         3 001442   200052 740100                    STX0    FPT_CLOSE+26,,AUTO

     2095     6813    2              FPT_CLOSE.V.DISP# = %SAVE#;

   6813  3 001443   000002 236007                    LDQ     2,DL
         3 001444   200052 552104                    STBQ    FPT_CLOSE+26,'04'O,AUTO

     2096     6814    2              IF VD_$$MON_ACC.V# > 10 THEN
PL6.E3A0      #004=VDA$FREKEY File=VDA$FILE.:VDA5TSI                             FRI 07/04/97 11:05 Page:282

   6814  3 001445   000003 235000 xsym               LDA     VD_$$MON_ACC+3
         3 001446   000012 115007                    CMPA    10,DL
         3 001447   001456 604400 3                  TMOZ    s:6816

     2097     6815    2                 CALL VDG$MACC_FREKEY_CLOSE_SRC_XSA (FPT_CLOSE.V.DCB#);

   6815  3 001450   200052 633500                    EPPR3   FPT_CLOSE+26,,AUTO
         3 001451   200216 453500                    STP3    PREV_BUFFER$+2,,AUTO
         3 001452   200216 630500                    EPPR0   PREV_BUFFER$+2,,AUTO
         3 001453   000017 631400 xsym               EPPR1   B_VECTNIL+15
         3 001454   000000 701000 xent               TSX1    VDG$MACC_FREKEY_CLOSE_SRC_XSA
         3 001455   000000 011000                    NOP     0

     2098     6816    2              CALL XSA$CLOSE (FPT_CLOSE, SRC_XSA);

   6816  3 001456   000014 236000 4                  LDQ     12
         3 001457   200217 756100                    STQ     PREV_BUFFER$+3,,AUTO
         3 001460   200020 630500                    EPPR0   FPT_CLOSE,,AUTO
         3 001461   200216 450500                    STP0    PREV_BUFFER$+2,,AUTO
         3 001462   200216 630500                    EPPR0   PREV_BUFFER$+2,,AUTO
         3 001463   000020 631400 xsym               EPPR1   B_VECTNIL+16
         3 001464   000000 701000 xent               TSX1    XSA$CLOSE
         3 001465   000000 011000                    NOP     0

     2099     6817    2              END;

     2100     6818
     2101     6819    2           IF NOT SRC$DCB.FCD# THEN DO;

   6819  3 001466   200017 470500                    LDP0    SRC_DCB$,,AUTO
         3 001467   000031 236100                    LDQ     25,,PR0
         3 001470   020000 316007                    CANQ    8192,DL
         3 001471   001527 601000 3                  TNZ     s:6833

     2102     6820    2              FPT_OPEN.V.ACS# = %DIRECT#;

PL6.E3A0      #004=VDA$FREKEY File=VDA$FILE.:VDA5TSI                             FRI 07/04/97 11:05 Page:283
   6820  3 001472   000002 236007                    LDQ     2,DL
         3 001473   200124 552104                    STBQ    FPT_OPEN+38,'04'O,AUTO

     2103     6821    2              FPT_OPEN.V.FUN# = %UPDATE#;

   6821  3 001474   001000 236007                    LDQ     512,DL
         3 001475   200123 552110                    STBQ    FPT_OPEN+37,'10'O,AUTO

     2104     6822    2              FPT_OPEN.V.DCB# = SRC_DCB;

   6822  3 001476   200016 220100                    LDX0    SRC_DCB,,AUTO
         3 001477   200122 740100                    STX0    FPT_OPEN+36,,AUTO

     2105     6823    2              FPT_OPEN.V.INITZ.SCRUB# = %NO#;

   6823  3 001500   000034 236000 4                  LDQ     28
         3 001501   200122 356100                    ANSQ    FPT_OPEN+36,,AUTO

     2106     6824    2              IF VD_$$MON_ACC.V# > 10 THEN

   6824  3 001502   000003 235000 xsym               LDA     VD_$$MON_ACC+3
         3 001503   000012 115007                    CMPA    10,DL
         3 001504   001513 604400 3                  TMOZ    s:6826

     2107     6825    2                 CALL VDG$MACC_FREKEY_REOPEN_SRC (FPT_OPEN.V.DCB#);

   6825  3 001505   200122 631500                    EPPR1   FPT_OPEN+36,,AUTO
         3 001506   200216 451500                    STP1    PREV_BUFFER$+2,,AUTO
         3 001507   200216 630500                    EPPR0   PREV_BUFFER$+2,,AUTO
         3 001510   000017 631400 xsym               EPPR1   B_VECTNIL+15
         3 001511   000000 701000 xent               TSX1    VDG$MACC_FREKEY_REOPEN_SRC
         3 001512   000000 011000                    NOP     0

     2108     6826    2              CALL M$OPEN (FPT_OPEN)

   6826  3 001513   200056 630500                    EPPR0   FPT_OPEN,,AUTO
         3 001514   450000 713400                    CLIMB   alt,open
PL6.E3A0      #004=VDA$FREKEY File=VDA$FILE.:VDA5TSI                             FRI 07/04/97 11:05 Page:284
         3 001515   410400 401760                    pmme    nvectors=18
         3 001516   001520 702000 3                  TSX2    s:6828
         3 001517   001523 710000 3                  TRA     s:6830

     2109     6827    3              WHENALTRETURN DO;

     2110     6828    3                 CALL VDG$MONERR;

   6828  3 001520   000002 631400 xsym               EPPR1   B_VECTNIL+2
         3 001521   000000 701000 xent               TSX1    VDG$MONERR
         3 001522   000000 011000                    NOP     0

     2111     6829    3                 END;

     2112     6830    2              PORT.LAST_OP# = %ACCOP_OPEN;

   6830  3 001523   200004 470500                    LDP0    @DEST_STREAM,,AUTO
         3 001524   000001 471500                    LDP1    1,,PR0
         3 001525   000001 220003                    LDX0    1,DU
         3 001526   100007 740100                    STX0    7,,PR1

     2113     6831    2              END;

     2114     6832
     2115     6833    2           IF SRC_XSA_DATA$ ~= ADDR(NIL) THEN DO;

   6833  3 001527   200010 236100                    LDQ     SRC_XSA_DATA$,,AUTO
         3 001530   000001 116000 xsym               CMPQ    B_VECTNIL+1
         3 001531   001536 600000 3                  TZE     s:6836

     2116     6834    2              CALL VDG$OFREE (SRC$XSA_DATA);   /* Ignore altret */

   6834  3 001532   200010 630500                    EPPR0   SRC_XSA_DATA$,,AUTO
         3 001533   000017 631400 xsym               EPPR1   B_VECTNIL+15
         3 001534   000000 701000 xent               TSX1    VDG$OFREE
         3 001535   000000 011000                    NOP     0

PL6.E3A0      #004=VDA$FREKEY File=VDA$FILE.:VDA5TSI                             FRI 07/04/97 11:05 Page:285
     2117     6835    2              END;

     2118     6836    2           IF SRC_XSA_KEY$ ~= ADDR(NIL) THEN DO;

   6836  3 001536   200011 236100                    LDQ     SRC_XSA_KEY$,,AUTO
         3 001537   000001 116000 xsym               CMPQ    B_VECTNIL+1
         3 001540   001545 600000 3                  TZE     s:6839

     2119     6837    2              CALL VDG$OFREE (SRC$XSA_KEY);   /* Ignore altret */

   6837  3 001541   200011 630500                    EPPR0   SRC_XSA_KEY$,,AUTO
         3 001542   000017 631400 xsym               EPPR1   B_VECTNIL+15
         3 001543   000000 701000 xent               TSX1    VDG$OFREE
         3 001544   000000 011000                    NOP     0

     2120     6838    2              END;

     2121     6839    1           ALTRETURN;

   6839  3 001545   000000 702200 xent               TSX2  ! X66_AALT

     2122     6840        %BOX (TITLE=READ_SRC_RECORD, PAGE=YES);
              6848    1
              6852    1   /***************************************************************************
              6854    1    *                                                                         *
              6858    1            *                              READ_SRC_RECORD                           *
              6860    1            *                                                                        *
              6862    1          ***************************************************************************/

     2123     6866
     2124     6867        /*I* NAME: READ_SRC_RECORD
     2125     6868            PARAMETERS:
     2126     6869                VD_BUFFER$ - Uninitialized ptr.
     2127     6870                DVBYTE - Uninitialized UBIN BYTE CALIGNED.
     2128     6871                EOF_FLAG - Uninitialized BIT(1) ALIGNED flag.
     2129     6872            INPUT:
     2130     6873                SRC_XSA - XSA_PARAM structure, open to the source file.
PL6.E3A0      #004=VDA$FREKEY File=VDA$FILE.:VDA5TSI                             FRI 07/04/97 11:05 Page:286
     2131     6874                FPT_READ - Initialized FPT_READ structure.
     2132     6875            OUTPUT:
     2133     6876                VD_BUFFER$ will point to a VD$BUFFER containing the record
     2134     6877                    read--unless EOF_FLAG is set.
     2135     6878                DVBYTE will contain the record's DVBYTE char--unless EOF_FLAG
     2136     6879                    is set.
     2137     6880                EOF_FLAG will be set if we hit EOF.
     2138     6881            DESCRIPTION:
     2139     6882                Keep trying to read a record, allocating larger and larger
     2140     6883                buffers if we get an E$LD error.
     2141     6884                However, if the file is a compressed file, allocate the largest
     2142     6885                buffer possible for the first M$READ, because you can't do
     2143     6886                continued M$READs on a compressed file.
     2144     6887        */
     2145     6888
     2146     6889    1   READ_SRC_RECORD: PROC (VD_BUFFER$, DVBYTE, EOF_FLAG) ALTRET;

   6889  3 001546   200206 741300       READ_SRC_RE* STX1  ! CURR_XLATE+1,,AUTO

     2147     6890
     2148     6891    2   DCL VD_BUFFER$ PTR;
     2149     6892    2   DCL DVBYTE UBIN BYTE CALIGNED;
     2150     6893    2   DCL EOF_FLAG BIT(1) ALIGNED;
     2151     6894
     2152     6895
     2153     6896    2   DCL NB_BUFFER SBIN;
     2154     6897    2   DCL TOTAL_ARS SBIN;
     2155     6898    2   DCL PREV_BUFFER$ PTR;
     2156     6899
     2157     6900
     2158     6901        %VD$BUFFER (NAME=VD$BUFFER, STCLASS="BASED(VD_BUFFER$)");
     2159     6959
     2160     6960
     2161     6961
     2162     6962    2           EOF_FLAG = %FALSE;

   6962  3 001547   200211 470500                    LDP0    @EOF_FLAG,,AUTO
PL6.E3A0      #004=VDA$FREKEY File=VDA$FILE.:VDA5TSI                             FRI 07/04/97 11:05 Page:287
         3 001550   000000 450100                    STZ     0,,PR0

     2163     6963    2           NB_BUFFER = %NB_DFLT_DATA_REC;

   6963  3 001551   000400 235007                    LDA     256,DL
         3 001552   200212 755100                    STA     NB_BUFFER,,AUTO

     2164     6964    2           IF DCBADDR(FPT_READ.V.DCB#)->F$DCB.COMP# THEN

   6964  3 001553   000003 471400 4                  LDP1    3
         3 001554   100000 473500                    LDP3    0,,PR1
         3 001555   200164 220100                    LDX0    FPT_READ+8,,AUTO
         3 001556   300000 474510                    LDP4    0,X0,PR3
         3 001557   400031 236100                    LDQ     25,,PR4
         3 001560   000100 316007                    CANQ    64,DL
         3 001561   001564 600000 3                  TZE     s:6966

     2165     6965    2              NB_BUFFER = %MXNB_DATA;

   6965  3 001562   004000 235007                    LDA     2048,DL
         3 001563   200212 755100                    STA     NB_BUFFER,,AUTO

     2166     6966    2           TOTAL_ARS = 0;

   6966  3 001564   200213 450100                    STZ     TOTAL_ARS,,AUTO

     2167     6967    2           VD_BUFFER$ = ADDR(NIL);

   6967  3 001565   000001 236000 xsym               LDQ     B_VECTNIL+1
         3 001566   200207 475500                    LDP5    @VD_BUFFER$,,AUTO
         3 001567   500000 756100                    STQ     0,,PR5

     2168     6968    2           PREV_BUFFER$ = ADDR(NIL);

   6968  3 001570   000001 236000 xsym               LDQ     B_VECTNIL+1
         3 001571   200214 756100                    STQ     PREV_BUFFER$,,AUTO

PL6.E3A0      #004=VDA$FREKEY File=VDA$FILE.:VDA5TSI                             FRI 07/04/97 11:05 Page:288
     2169     6969    2           FPT_READ.V.DVBYTE.CONT# = %FALSE;

   6969  3 001572   000035 236000 4                  LDQ     29
         3 001573   200167 356100                    ANSQ    FPT_READ+11,,AUTO

     2170     6970
     2171     6971    2   GET_COMPLETE_RECORD:
     2172     6972    3           DO WHILE VD_BUFFER$ = ADDR(NIL);

   6972  3 001574   001731 710000 3     GET_COMPLET* TRA     s:7004

     2173     6973    3              CALL VDG$OALLOC (%CLS_BUFFER, VD_BUFFER$,

   6973  3 001575   200212 236100                    LDQ     NB_BUFFER,,AUTO
         3 001576   000015 036007                    ADLQ    13,DL
         3 001577   000004 506007                    DIV     4,DL
         3 001600   200216 756100                    STQ     PREV_BUFFER$+2,,AUTO
         3 001601   200216 630500                    EPPR0   PREV_BUFFER$+2,,AUTO
         3 001602   200221 450500                    STP0    PREV_BUFFER$+5,,AUTO
         3 001603   200207 236100                    LDQ     @VD_BUFFER$,,AUTO
         3 001604   200220 756100                    STQ     PREV_BUFFER$+4,,AUTO
         3 001605   000020 236000 4                  LDQ     16
         3 001606   200217 756100                    STQ     PREV_BUFFER$+3,,AUTO
         3 001607   200217 630500                    EPPR0   PREV_BUFFER$+3,,AUTO
         3 001610   000021 631400 xsym               EPPR1   B_VECTNIL+17
         3 001611   000000 701000 xent               TSX1    VDG$OALLOC
         3 001612   002002 702000 3                  TSX2    OALLOC_FAILED

     2174     6974    3                (LENGTHC(VD$BUFFER_HEADER) + NB_BUFFER + %(NB_PER_WORD-1)) /
     2175     6975    3                %NB_PER_WORD)
     2176     6976    3                ALTRET (OALLOC_FAILED);
     2177     6977    3              VD$BUFFER.LENGTH# = NB_BUFFER;

   6977  3 001613   200207 470500                    LDP0    @VD_BUFFER$,,AUTO
         3 001614   000000 471500                    LDP1    0,,PR0
         3 001615   200212 720100                    LXL0    NB_BUFFER,,AUTO
         3 001616   100002 740100                    STX0    2,,PR1
PL6.E3A0      #004=VDA$FREKEY File=VDA$FILE.:VDA5TSI                             FRI 07/04/97 11:05 Page:289

     2178     6978    3              FPT_READ.BUF_ = VECTOR(VD$BUFFER.BYTES);

   6978  3 001617   000000 471500                    LDP1    0,,PR0
         3 001620   100002 221100                    LDX1    2,,PR1
         3 001621   000000 635011                    EAA     0,X1
         3 001622   000002 731000                    ARS     2
         3 001623   000140 135007                    SBLA    96,DL
         3 001624   200216 451500                    STP1    PREV_BUFFER$+2,,AUTO
         3 001625   200216 236100                    LDQ     PREV_BUFFER$+2,,AUTO
         3 001626   000021 036000 4                  ADLQ    17
         3 001627   200160 757100                    STAQ    FPT_READ+4,,AUTO

     2179     6979    4              IF PREV_BUFFER$ ~= ADDR(NIL) THEN DO;

   6979  3 001630   200214 236100                    LDQ     PREV_BUFFER$,,AUTO
         3 001631   000001 116000 xsym               CMPQ    B_VECTNIL+1
         3 001632   001666 600000 3                  TZE     s:6992

     2180     6980                      /*
     2181     6981                      * Doing a continued read:  copy already-read part of
     2182     6982                      *     record to new buffer, free old buffer.
     2183     6983                      */
     2184     6984    4                 VD$BUFFER.BYTES = PREV_BUFFER$->VD$BUFFER.BYTES;

   6984  3 001633   000000 471500                    LDP1    0,,PR0
         3 001634   100002 221100                    LDX1    2,,PR1
         3 001635   200214 473500                    LDP3    PREV_BUFFER$,,AUTO
         3 001636   300002 222100                    LDX2    2,,PR3
         3 001637   040140 100540                    MLR     fill='040'O
         3 001640   300002 400012                    ADSC9   2,,PR3                   cn=2,n=*X2
         3 001641   100002 400011                    ADSC9   2,,PR1                   cn=2,n=*X1

     2185     6985    4                 FPT_READ.BUF_ = VECTOR(SUBSTR(VD$BUFFER.BYTES,

   6985  3 001642   000000 471500                    LDP1    0,,PR0
         3 001643   100002 221100                    LDX1    2,,PR1
PL6.E3A0      #004=VDA$FREKEY File=VDA$FILE.:VDA5TSI                             FRI 07/04/97 11:05 Page:290
         3 001644   200216 741100                    STX1    PREV_BUFFER$+2,,AUTO
         3 001645   300002 121100                    SBLX1   2,,PR3
         3 001646   300002 236100                    LDQ     2,,PR3
         3 001647   000022 732000                    QRS     18
         3 001650   000000 635011                    EAA     0,X1
         3 001651   000002 771000                    ARL     2
         3 001652   000140 135007                    SBLA    96,DL
         3 001653   000012 036007                    ADLQ    10,DL
         3 001654   100000 500506                    A9BD    0,QL,PR1
         3 001655   200217 451500                    STP1    PREV_BUFFER$+3,,AUTO
         3 001656   200217 236100                    LDQ     PREV_BUFFER$+3,,AUTO
         3 001657   200160 757100                    STAQ    FPT_READ+4,,AUTO

     2186     6986    4                   PREV_BUFFER$->VD$BUFFER.LENGTH#));
     2187     6987    4                 CALL VDG$OFREE (PREV_BUFFER$->VD$BUFFER)

   6987  3 001660   200214 630500                    EPPR0   PREV_BUFFER$,,AUTO
         3 001661   000017 631400 xsym               EPPR1   B_VECTNIL+15
         3 001662   000000 701000 xent               TSX1    VDG$OFREE
         3 001663   002002 702000 3                  TSX2    OALLOC_FAILED

     2188     6988    4                   ALTRET (OFREE_FAILED);
     2189     6989    4                 PREV_BUFFER$ = ADDR(NIL);

   6989  3 001664   000001 236000 xsym               LDQ     B_VECTNIL+1
         3 001665   200214 756100                    STQ     PREV_BUFFER$,,AUTO

     2190     6990    4                 END;

     2191     6991
     2192     6992    3              CALL XSA$READ (FPT_READ, SRC_XSA)

   6992  3 001666   000014 236000 4                  LDQ     12
         3 001667   200217 756100                    STQ     PREV_BUFFER$+3,,AUTO
         3 001670   200154 630500                    EPPR0   FPT_READ,,AUTO
         3 001671   200216 450500                    STP0    PREV_BUFFER$+2,,AUTO
         3 001672   200216 630500                    EPPR0   PREV_BUFFER$+2,,AUTO
PL6.E3A0      #004=VDA$FREKEY File=VDA$FILE.:VDA5TSI                             FRI 07/04/97 11:05 Page:291
         3 001673   000020 631400 xsym               EPPR1   B_VECTNIL+16
         3 001674   000000 701000 xent               TSX1    XSA$READ
         3 001675   001677 702000 3                  TSX2    s:6994
         3 001676   001731 710000 3                  TRA     s:7004

     2193     6993    4              WHENALTRETURN DO;

     2194     6994    4                 IF SRC_XSA.ERR.CODE ~= %E$LD

   6994  3 001677   000001 236000 2                  LDQ     SRC_XSA+1
         3 001700   377770 376007                    ANQ     131064,DL
         3 001701   000070 116007                    CMPQ    56,DL
         3 001702   001754 601000 3                  TNZ     READ_FAILED_HARD
         3 001703   200212 235100                    LDA     NB_BUFFER,,AUTO
         3 001704   004000 115007                    CMPA    2048,DL
         3 001705   001754 605000 3                  TPL     READ_FAILED_HARD

     2195     6995    4                   OR NB_BUFFER >= %MXNB_DATA THEN
     2196     6996    4                    GOTO READ_FAILED_HARD;
     2197     6997    4                 FPT_READ.V.DVBYTE.CONT# = %TRUE;

   6997  3 001706   001000 236003                    LDQ     512,DU
         3 001707   200167 256100                    ORSQ    FPT_READ+11,,AUTO

     2198     6998    4                 NB_BUFFER = MINIMUM (NB_BUFFER * 2, %MXNB_DATA);

   6998  3 001710   200212 236100                    LDQ     NB_BUFFER,,AUTO
         3 001711   000001 736000                    QLS     1
         3 001712   004000 116007                    CMPQ    2048,DL
         3 001713   001715 604400 3                  TMOZ    s:6998+5
         3 001714   004000 236007                    LDQ     2048,DL
         3 001715   200212 756100                    STQ     NB_BUFFER,,AUTO

     2199     6999    4                 TOTAL_ARS = TOTAL_ARS + SRC_XSA.ARS#;

   6999  3 001716   200213 236100                    LDQ     TOTAL_ARS,,AUTO
         3 001717   000000 036000 2                  ADLQ    SRC_XSA
PL6.E3A0      #004=VDA$FREKEY File=VDA$FILE.:VDA5TSI                             FRI 07/04/97 11:05 Page:292
         3 001720   200213 756100                    STQ     TOTAL_ARS,,AUTO

     2200     7000    4                 VD$BUFFER.LENGTH# = TOTAL_ARS;

   7000  3 001721   200207 470500                    LDP0    @VD_BUFFER$,,AUTO
         3 001722   000000 471500                    LDP1    0,,PR0
         3 001723   000000 620006                    EAX0    0,QL
         3 001724   100002 740100                    STX0    2,,PR1

     2201     7001    4                 PREV_BUFFER$ = VD_BUFFER$;

   7001  3 001725   000000 236100                    LDQ     0,,PR0
         3 001726   200214 756100                    STQ     PREV_BUFFER$,,AUTO

     2202     7002    4                 VD_BUFFER$ = ADDR(NIL);

   7002  3 001727   000001 236000 xsym               LDQ     B_VECTNIL+1
         3 001730   000000 756100                    STQ     0,,PR0

     2203     7003    4                 END;

     2204     7004    3              END GET_COMPLETE_RECORD;

   7004  3 001731   200207 470500                    LDP0    @VD_BUFFER$,,AUTO
         3 001732   000000 236100                    LDQ     0,,PR0
         3 001733   000001 116000 xsym               CMPQ    B_VECTNIL+1
         3 001734   001575 600000 3                  TZE     s:6973

     2205     7005
     2206     7006    2           VD$BUFFER.LENGTH# = TOTAL_ARS + SRC_XSA.ARS#;

   7006  3 001735   000000 471500                    LDP1    0,,PR0
         3 001736   200213 236100                    LDQ     TOTAL_ARS,,AUTO
         3 001737   000000 036000 2                  ADLQ    SRC_XSA
         3 001740   000000 620006                    EAX0    0,QL
         3 001741   100002 740100                    STX0    2,,PR1

PL6.E3A0      #004=VDA$FREKEY File=VDA$FILE.:VDA5TSI                             FRI 07/04/97 11:05 Page:293
     2207     7007    2           DVBYTE = BITBIN(SRC_XSA.DVBYTE);

   7007  3 001742   000014 236000 2                  LDQ     SRC_XSA+12
         3 001743   000033 772000                    QRL     27
         3 001744   000377 376007                    ANQ     255,DL
         3 001745   200216 756100                    STQ     PREV_BUFFER$+2,,AUTO
         3 001746   200210 471500                    LDP1    @DVBYTE,,AUTO
         3 001747   000100 101500                    MRL     fill='000'O
         3 001750   200216 000004                    ADSC9   PREV_BUFFER$+2,,AUTO     cn=0,n=4
         3 001751   100000 000001                    ADSC9   0,,PR1                   cn=0,n=1

     2208     7008    2           RETURN;

   7008  3 001752   200206 221300                    LDX1  ! CURR_XLATE+1,,AUTO
         3 001753   000001 702211                    TSX2  ! 1,X1

     2209     7009
     2210     7010
     2211     7011    2   READ_FAILED_HARD:
     2212     7012    2           CALL VDG$OFREE (VD$BUFFER)

   7012  3 001754   200207 470500       READ_FAILED* LDP0    @VD_BUFFER$,,AUTO
         3 001755   000000 471500                    LDP1    0,,PR0
         3 001756   200216 451500                    STP1    PREV_BUFFER$+2,,AUTO
         3 001757   200216 630500                    EPPR0   PREV_BUFFER$+2,,AUTO
         3 001760   000017 631400 xsym               EPPR1   B_VECTNIL+15
         3 001761   000000 701000 xent               TSX1    VDG$OFREE
         3 001762   002002 702000 3                  TSX2    OALLOC_FAILED

     2213     7013    2             ALTRET (OFREE_FAILED);
     2214     7014    2           VD_BUFFER$ = ADDR(NIL);

   7014  3 001763   000001 236000 xsym               LDQ     B_VECTNIL+1
         3 001764   200207 470500                    LDP0    @VD_BUFFER$,,AUTO
         3 001765   000000 756100                    STQ     0,,PR0

     2215     7015    3           IF SRC_XSA.ERR.CODE = %E$EOF THEN DO;
PL6.E3A0      #004=VDA$FREKEY File=VDA$FILE.:VDA5TSI                             FRI 07/04/97 11:05 Page:294

   7015  3 001766   000001 236000 2                  LDQ     SRC_XSA+1
         3 001767   377770 376007                    ANQ     131064,DL
         3 001770   000060 116007                    CMPQ    48,DL
         3 001771   001777 601000 3                  TNZ     s:7019

     2216     7016    3              EOF_FLAG = %TRUE;

   7016  3 001772   400000 236003                    LDQ     -131072,DU
         3 001773   200211 471500                    LDP1    @EOF_FLAG,,AUTO
         3 001774   100000 756100                    STQ     0,,PR1

     2217     7017    3              RETURN;

   7017  3 001775   200206 221300                    LDX1  ! CURR_XLATE+1,,AUTO
         3 001776   000001 702211                    TSX2  ! 1,X1

     2218     7018    3              END;
     2219     7019    2           CALL VDG$MONERR;

   7019  3 001777   000002 631400 xsym               EPPR1   B_VECTNIL+2
         3 002000   000000 701000 xent               TSX1    VDG$MONERR
         3 002001   000000 011000                    NOP     0

   7015  3 002002                       OALLOC_FAIL* null
   7015  3 002002                       OFREE_FAILED null
     2220     7020
     2221     7021
     2222     7022    2   OALLOC_FAILED: ;
     2223     7023    2   OFREE_FAILED: ;
     2224     7024    2           ALTRETURN;

   7024  3 002002   200206 221300                    LDX1  ! CURR_XLATE+1,,AUTO
         3 002003   000000 702211                    TSX2  ! 0,X1
     2225     7025
     2226     7026    2   END READ_SRC_RECORD;
     2227     7027
PL6.E3A0      #004=VDA$FREKEY File=VDA$FILE.:VDA5TSI                             FRI 07/04/97 11:05 Page:295
     2228     7028    1   END VDA$FREKEY;

PL6.E3A0      #004=VDA$FREKEY File=VDA$FILE.:VDA5TSI                             FRI 07/04/97 11:05 Page:296
--  Include file information  --

   XS_MACRO_C.:LIBRARY  is referenced.
   B_ERRORS_C.:LIBRARY  is referenced.
   CP_6_SUBS.:LIBRARY  is referenced.
   CP_6.:LIBRARY  cannot be made into a system file and is referenced.
   VD_PERR_C.:VDA5TOU  is referenced.
   VD_MACROS_M.:VDA5TOU  is referenced.
   B$JIT_C.:E04TOU  was found in the system file and is never referenced.
   CP_6_C.:E04TOU  was found in the system file and is referenced.
      No diagnostics issued in procedure VDA$FREKEY.
PL6.E3A0      #004=VDA$FREKEY File=VDA$FILE.:VDA5TSI                             FRI 07/04/97 11:05 Page:297

 **** Variables and constants ****

  ****  Section 001 RoData VDA$FREKEY

  ****  Scalars and arrays  ****
OctLoc.c.b A Datatyp(siz) R M Lvl/name                 OctLoc.c.b A Datatyp(siz) R M Lvl/name

   110-0-0/d STRC(1080)  r     1 CONST_FPT_CLOSE            0-0-0/d STRC(2088)  r     1 CONST_FPT_OPEN
    72-0-0/d STRC(504)   r     1 CONST_FPT_READ

  ****  Section 002  Data  VDA$FREKEY

  ****  Scalars and arrays  ****
OctLoc.c.b A Datatyp(siz) R M Lvl/name                 OctLoc.c.b A Datatyp(siz) R M Lvl/name

     0-0-0/d STRC(504)   r     1 SRC_XSA

  ****  Auto variables  ****

  ****  Scalars and arrays  ****
OctLoc.c.b A Datatyp(siz) R M Lvl/name                 OctLoc.c.b A Datatyp(siz) R M Lvl/name

     4-0-0/w PTR         r     1 @DEST_STREAM             210-0-0/w PTR         r     1 @DVBYTE
   211-0-0/w PTR         r     1 @EOF_FLAG                  6-0-0/w PTR         r     1 @HOLE
     7-0-0/w PTR         r     1 @HOLE_KEY                  5-0-0/w PTR         r     1 @KEY_INCR
     3-0-0/w PTR         r     1 @SRC_STREAM              207-0-0/w PTR         r     1 @VD_BUFFER$
   177-0-0/w STRC(72)    r     1 ACTUAL$KEY_INCR          177-0-0/w STRC(72)    r     1 ACTUAL_KEY_INCR
   205-0-0/w SBIN        r     1 CURR_XLATE               204-0-0/w PTR         r     1 CURR_XLATE_TABLE$
    *0-0-0/w STRC(864)   r     1 DEST_STREAM               *0-0-0/c UBIN(9)     r     1 DVBYTE
   176-0-0/w BIT         r     1 EOF                       *0-0-0/w BIT         r     1 EOF_FLAG
    20-0-0/d STRC(1080)  r     1 FPT_CLOSE                 56-0-0/d STRC(2088)  r     1 FPT_OPEN
   154-0-0/d STRC(504)   r     1 FPT_READ                  *0-0-0/w SBIN        r     1 HOLE
   201-0-0/w SBIN        r     1 HOLE#                     *0-0-0/w STRC(72)    r     1 HOLE_KEY
    *0-0-0/w STRC(72)    r     1 KEY_INCR                  14-0-0/w PTR         r     1 L1_NODE$
   212-0-0/w SBIN        r     1 NB_BUFFER                214-0-0/w PTR         r     1 PREV_BUFFER$
   172-0-0/w STRC        r     1 READ_KEY                 174-0-0/w STRC(72)    r     1 SPEC
    16-0-0/w UBIN(18)    r     1 SRC_DCB                   17-0-0/w PTR         r     1 SRC_DCB$
PL6.E3A0      #004=VDA$FREKEY File=VDA$FILE.:VDA5TSI                             FRI 07/04/97 11:05 Page:298
    *0-0-0/w STRC(864)   r     1 SRC_STREAM                10-0-0/w PTR         r     1 SRC_XSA_DATA$
    11-0-0/w PTR         r     1 SRC_XSA_KEY$             213-0-0/w SBIN        r     1 TOTAL_ARS
   173-0-0/w PTR         r     1 VD_BUFFER$                *0-0-0/w PTR         r     1 VD_BUFFER$
    12-0-0/w PTR         r     1 VD_ERR$                  150-0-0/d STRC(90)    r     1 VLP_SN
    13-0-0/w PTR         r     1 WINDOWS_L0_NODE$          15-0-0/w PTR         r     1 WINDOW_SPEC$
   203-0-0/w PTR         r     1 XLATE_LOCATIONS_ROOT$

  ****  SYMREF variables  ****

  ****  Scalars and arrays  ****
OctLoc.c.b A Datatyp(siz) R M Lvl/name                 OctLoc.c.b A Datatyp(siz) R M Lvl/name

     0-0-0/w STRC(144)   r     1 VD_$$MON_ACC               0-0-0/w STRC(144)   r     1 VD_$BY
     0-0-0/w STRC(22644) r     1 VD_6E                      0-0-0/w STRC(72)    r     1 VD_KEY_NUMERIC_BOF

  ****  BASED and DCB variables  ****

  ****  Scalars and arrays  ****
OctLoc.c.b A Datatyp(siz) R M Lvl/name                 OctLoc.c.b A Datatyp(siz) R M Lvl/name

     0-0-0/w STRC(72)    r     1 BKEY                       0-0-0/w STRC(828)   r     1 CURR$XLATE_TABLE
     0-0-0/d ASTR(3528)  r     1 F$DCB                      0-0-0/w STRC(468)   r     1 L1$NODE
     0-0-0/w STRC(1944)  r     1 PORT                       0-0-0/d ASTR(3528)  r     1 SRC$DCB
     0-0-0/w ASTR(90)    r     1 SRC$XSA_DATA               0-0-0/w ASTR(90)    r     1 SRC$XSA_KEY
     0-0-0/w ASTR(90)    r     1 VD$BUFFER                  0-0-0/w ASTR(90)    r     1 VD$BUFFER
     0-0-0/w STRC(90)    r     1 VD$BUFFER_HEADER           0-0-0/w STRC(180)   r     1 VD$ERR
     0-0-0/w STRC(36972) r     1 VD$FIT                     0-0-0/w STRC(1944)  r     1 VD$PORT
     0-0-0/w STRC(864)   r     1 VD$STREAM                  0-0-0/w ASTR(81)    r     1 VD$TEXTC_REMOTE
     0-0-0/w STRC(900)   r     1 WINDOW$SPEC                0-0-0/w STRC(468)   r     1 WINDOWS$L0_NODE


   Procedure VDA$FREKEY requires 1028 words for executable code.
   Procedure VDA$FREKEY requires 146 words of local(AUTO) storage.

    No errors detected in file VDA$FILE.:VDA5TSI    .
PL6.E3A0      #004=VDA$FREKEY File=VDA$FILE.:VDA5TSI                             FRI 07/04/97 11:05 Page:299
          *** CROSS REFERENCE LISTING ***
**     DENOTES     IDENTIFIER DEFINITION
<<                 IDENTIFIER'S VALUE SET
>>                 IDENTIFIER'S VALUE USED
<>                 IDENTIFIER SET AND/OR USED
--                 IDENTIFIER REFERENCED
PL6.E3A0      #004=VDA$FREKEY File=VDA$FILE.:VDA5TSI                             FRI 07/04/97 11:05 Page:300
          MINI XREF LISTING

ABORT_REKEY
      6799**LABEL    6554--GOTO     6602--CALLALT  6605--CALLALT  6613--GOTO     6620--GOTO     6635--CALLALT
      6666--CALLALT
ACTUAL$KEY_INCR.BYTES#
      5176**DCL      6409>>DOWHILE  6411<<ASSIGN   6411>>ASSIGN   6412>>IF       6658>>ASSIGN   6662>>ASSIGN
ACTUAL_KEY_INCR
      5157**DCL      5172--REDEF    6403<<ASSIGN   6607>>ASSIGN
ACTUAL_KEY_INCR.BYTES#
      5161**DCL      6404>>IF       6405<<ASSIGN
ACTUAL_KEY_INCR.LENGTH#
      5161**DCL      6406<<ASSIGN
BKEY.BYTES#
      5916**DCL      6587>>IF       6646>>IF       6658<<ASSIGN   6658>>ASSIGN   6662<<ASSIGN   6662>>ASSIGN
CANT_REKEY_FILE_FAILURE
      6391**LABEL    6413--GOTO
CLOSE_SRC_FAILED
      6770**LABEL    6490--CALLALT
CONST_FPT_CLOSE
      4855**DCL      6485>>ASSIGN
CONST_FPT_CLOSE.SN_
      4855**DCL      4855--REDEF
CONST_FPT_CLOSE.UTL_
      4856**DCL      4856--REDEF
CONST_FPT_CLOSE.V
      4860**DCL      4855--DCLINIT
CONST_FPT_CLOSE.V.EXPIRE#
      4870**DCL      4870--REDEF
CONST_FPT_CLOSE.V.TYPE#
      4868**DCL      4868--REDEF
CONST_FPT_CLOSE.V.XTNSIZE#
      4865**DCL      4865--REDEF    4867--REDEF
CONST_FPT_OPEN
PL6.E3A0      #004=VDA$FREKEY File=VDA$FILE.:VDA5TSI                             FRI 07/04/97 11:05 Page:301
      4749**DCL      6493>>ASSIGN   6733>>ASSIGN
CONST_FPT_OPEN.ACSVEH_
      4751**DCL      4752--REDEF
CONST_FPT_OPEN.ALTKEYS_
      4757**DCL      4758--REDEF    4758--REDEF
CONST_FPT_OPEN.HDR_
      4756**DCL      4757--REDEF
CONST_FPT_OPEN.TAB_
      4755**DCL      4756--REDEF
CONST_FPT_OPEN.UHL_
      4749**DCL      4750--REDEF    4750--REDEF
CONST_FPT_OPEN.V
      4758**DCL      4749--DCLINIT
CONST_FPT_OPEN.V.FSN#
      4789**DCL      4789--REDEF    4789--REDEF
CONST_FPT_OPEN.WSN_
      4755**DCL      4755--REDEF
CONST_FPT_READ
      4810**DCL      6594>>ASSIGN
CONST_FPT_READ.STATION_
      4813**DCL      4814--REDEF
CONST_FPT_READ.V
      4814**DCL      4810--DCLINIT
CONST_FPT_READ.V.DVBYTE.REREAD#
      4825**DCL      4825--REDEF
CONST_FPT_READ.V.INDX#
      4823**DCL      4823--REDEF
CURR$XLATE_TABLE
      5775**DCL      6436--CALL     6459<>CALL     6748<>CALL     6755<>CALL
CURR$XLATE_TABLE.FILE_KEY
      5812**DCL      6454<<ASSIGN
CURR$XLATE_TABLE.FILE_KEY.V$
      5814**DCL      6454<>CALL
CURR$XLATE_TABLE.FLINK$
      5801**DCL      6653>>ASSIGN   6695>>ASSIGN   6753>>ASSIGN   6754<<ASSIGN
CURR$XLATE_TABLE.LEVEL#
PL6.E3A0      #004=VDA$FREKEY File=VDA$FILE.:VDA5TSI                             FRI 07/04/97 11:05 Page:302
      5816**DCL      6457<<ASSIGN
CURR$XLATE_TABLE.N_ENTRIES#
      5801**DCL      6645>>DOWHILE  6690>>DOWHILE
CURR$XLATE_TABLE.XLATES
      5856**DCL      6436--CALL
CURR$XLATE_TABLE.XLATES.NEW_KEY
      5897**DCL      6590<<ASSIGN   6649<<ASSIGN   6691<<ASSIGN
CURR$XLATE_TABLE.XLATES.OLD_KEY_LO
      5868**DCL      6587--IF       6646--IF
CURR_XLATE
      5183**DCL      6586<<ASSIGN   6587>>IF       6590>>ASSIGN   6591<<ASSIGN   6591>>ASSIGN   6645>>DOWHILE
      6646>>IF       6649>>ASSIGN   6651<<ASSIGN   6651>>ASSIGN   6654<<ASSIGN   6690>>DOWHILE  6691>>ASSIGN
      6693<<ASSIGN   6693>>ASSIGN   6696<<ASSIGN
CURR_XLATE_TABLE$
      5182**DCL      5775--IMP-PTR  6440<<ASSIGN   6454>>ASSIGN   6454>>CALL     6457>>ASSIGN   6459>>CALL
      6585<<ASSIGN   6587>>IF       6590>>ASSIGN   6644>>DOWHILE  6645>>DOWHILE  6646>>IF       6649>>ASSIGN
      6653<<ASSIGN   6653>>ASSIGN   6689>>DOWHILE  6690>>DOWHILE  6691>>ASSIGN   6695<<ASSIGN   6695>>ASSIGN
      6751<<ASSIGN   6752>>DOWHILE  6753>>ASSIGN   6754>>ASSIGN   6755>>CALL     6756<<ASSIGN
DEST_STREAM
      4358**DCL        86--PROC
DEST_STREAM.PORT$
      4384**DCL      5194--IMP-PTR  6380>>IF       6380>>IF       6387>>IF       6387>>IF       6387>>IF
      6387>>IF       6387>>IF       6395>>ASSIGN   6399>>ASSIGN   6424>>IF       6454>>ASSIGN   6454>>IF
      6454>>CALL     6454>>CALL     6463>>CALL     6476>>IF       6476>>CALL     6476>>CALL     6477>>ASSIGN
      6479>>IF       6480>>CALL     6480>>CALL     6482>>ASSIGN   6521>>CALL     6528>>ASSIGN   6529>>ASSIGN
      6540>>ASSIGN   6547>>ASSIGN   6556>>ASSIGN   6605>>CALL     6607>>ASSIGN   6616>>CALL     6617>>CALL
      6634>>ASSIGN   6635>>CALL     6649>>ASSIGN   6658>>ASSIGN   6658>>ASSIGN   6662>>ASSIGN   6662>>ASSIGN
      6691>>ASSIGN   6698>>ASSIGN   6719>>ASSIGN   6731>>CALL     6737>>ASSIGN   6745>>ASSIGN   6778>>ASSIGN
      6799>>IF       6800>>ASSIGN   6808>>CALL     6809>>ASSIGN   6830>>ASSIGN
DEST_STREAM.PROTECT
      4384**DCL      6387>>IF
DVBYTE IN PROCEDURE READ_SRC_RECORD
      6892**DCL      6889--PROC     7007<<ASSIGN
EOF
      5148**DCL      6602<>CALL     6610>>DOWHILE  6666<>CALL
EOF_FLAG IN PROCEDURE READ_SRC_RECORD
PL6.E3A0      #004=VDA$FREKEY File=VDA$FILE.:VDA5TSI                             FRI 07/04/97 11:05 Page:303
      6893**DCL      6889--PROC     6962<<ASSIGN   7016<<ASSIGN
F$DCB.ACTPOS
      6342**DCL      6342--REDEF
F$DCB.ARS#
      6316**DCL      6316--REDEF
F$DCB.ATTR
      6335**DCL      6336--REDEF
F$DCB.BORROW
      6350**DCL      6350--REDEF    6350--REDEF    6350--REDEF
F$DCB.COMP#
      6330**DCL      6964>>IF
F$DCB.DCBNAME.L
      6364**DCL      6364--IMP-SIZ
F$DCB.EOMCHAR#
      6320**DCL      6320--REDEF
F$DCB.FCD#
      6329**DCL      6799>>IF
F$DCB.FLDID
      6345**DCL      6345--REDEF
F$DCB.FORM$
      6339**DCL      6339--REDEF
F$DCB.FSECT
      6355**DCL      6355--REDEF
F$DCB.FSN#
      6332**DCL      6332--REDEF    6332--REDEF    6333--REDEF
F$DCB.HEADER$
      6338**DCL      6338--REDEF
F$DCB.IXTNSIZE#
      6336**DCL      6336--REDEF
F$DCB.LASTSTA$
      6325**DCL      6325--REDEF
F$DCB.LVL
      6351**DCL      6351--REDEF
F$DCB.NAME#.C
      6326**DCL      6326--REDEF
F$DCB.NOEOF
PL6.E3A0      #004=VDA$FREKEY File=VDA$FILE.:VDA5TSI                             FRI 07/04/97 11:05 Page:304
      6348**DCL      6348--REDEF
F$DCB.NRECS#
      6337**DCL      6337--REDEF
F$DCB.NRECX
      6356**DCL      6356--REDEF
F$DCB.OHDR
      6348**DCL      6348--REDEF
F$DCB.ORG#
      6331**DCL      6331--REDEF
F$DCB.PRECNO
      6354**DCL      6354--REDEF
F$DCB.RCSZ
      6360**DCL      6360--REDEF
F$DCB.RES#
      6327**DCL      6327--REDEF
F$DCB.SETX
      6339**DCL      6339--REDEF
F$DCB.TAB$
      6339**DCL      6339--REDEF
F$DCB.TDA
      6353**DCL      6354--REDEF
F$DCB.WSN#
      6327**DCL      6327--REDEF
FPT_CLOSE
      4938**DCL      6485<<ASSIGN   6490<>CALL     6705<>CALL     6722<>CALL     6804<>CALL     6816<>CALL
FPT_CLOSE.SN_
      4938**DCL      4938--REDEF
FPT_CLOSE.UTL_
      4939**DCL      4939--REDEF
FPT_CLOSE.V
      4943**DCL      6486--ASSIGN
FPT_CLOSE.V.DCB#
      4944**DCL      6487<<ASSIGN   6489<>CALL     6702<<ASSIGN   6704<>CALL     6719<<ASSIGN   6721<>CALL
      6800<<ASSIGN   6803<>CALL     6812<<ASSIGN   6815<>CALL
FPT_CLOSE.V.DISP#
      4947**DCL      6801<<ASSIGN   6813<<ASSIGN
PL6.E3A0      #004=VDA$FREKEY File=VDA$FILE.:VDA5TSI                             FRI 07/04/97 11:05 Page:305
FPT_CLOSE.V.EXPIRE#
      4953**DCL      4953--REDEF
FPT_CLOSE.V.TYPE#
      4951**DCL      4951--REDEF
FPT_CLOSE.V.XTNSIZE#
      4948**DCL      4948--REDEF    4950--REDEF
FPT_CLOSE.V_
      4938**DCL      6486<<ASSIGN
FPT_OPEN
      5022**DCL      6493<<ASSIGN   6498<>CALL     6551<>CALL     6733<<ASSIGN   6740<>CALL     6826<>CALL
FPT_OPEN.ACCT_
      5026**DCL      6542<<ASSIGN
FPT_OPEN.ACSVEH_
      5024**DCL      5025--REDEF
FPT_OPEN.ALTKEYS_
      5030**DCL      5031--REDEF    5031--REDEF
FPT_OPEN.HDR_
      5029**DCL      5030--REDEF
FPT_OPEN.IFPARAM_
      5027**DCL      6547<<ASSIGN
FPT_OPEN.NAME_
      5023**DCL      6543<<ASSIGN
FPT_OPEN.SN_
      5022**DCL      6546<<ASSIGN
FPT_OPEN.TAB_
      5028**DCL      5029--REDEF
FPT_OPEN.UHL_
      5022**DCL      5023--REDEF    5023--REDEF
FPT_OPEN.V
      5031**DCL      6494--ASSIGN   6734--ASSIGN
FPT_OPEN.V.ACS#
      5042**DCL      6495<<ASSIGN   6539<<ASSIGN   6735<<ASSIGN   6820<<ASSIGN
FPT_OPEN.V.DCB#
      5031**DCL      6496<<ASSIGN   6501<>CALL     6540<<ASSIGN   6549<>CALL     6737<<ASSIGN   6739<>CALL
      6822<<ASSIGN   6825<>CALL
FPT_OPEN.V.FSN#
PL6.E3A0      #004=VDA$FREKEY File=VDA$FILE.:VDA5TSI                             FRI 07/04/97 11:05 Page:306
      5062**DCL      5062--REDEF    5062--REDEF
FPT_OPEN.V.FUN#
      5041**DCL      6497<<ASSIGN   6541<<ASSIGN   6736<<ASSIGN   6821<<ASSIGN
FPT_OPEN.V.INITZ.SCRUB#
      5032**DCL      6538<<ASSIGN   6823<<ASSIGN
FPT_OPEN.V_
      5022**DCL      6494<<ASSIGN   6734<<ASSIGN
FPT_OPEN.WSN_
      5028**DCL      5028--REDEF
FPT_READ
      5096**DCL      6594<<ASSIGN   6992<>CALL
FPT_READ.BUF_
      5098**DCL      6978<<ASSIGN   6985<<ASSIGN
FPT_READ.KEY_
      5096**DCL      6596<<ASSIGN
FPT_READ.STATION_
      5099**DCL      5100--REDEF
FPT_READ.V
      5100**DCL      6595--ASSIGN
FPT_READ.V.DCB#
      5100**DCL      6597<<ASSIGN   6964--IF
FPT_READ.V.DVBYTE.CONT#
      5113**DCL      6969<<ASSIGN   6997<<ASSIGN
FPT_READ.V.DVBYTE.REREAD#
      5111**DCL      5111--REDEF
FPT_READ.V.INDX#
      5109**DCL      5109--REDEF
FPT_READ.V_
      5096**DCL      6595<<ASSIGN
HOLE
      4471**DCL        86--PROC     6373--IF       6373>>ASSIGN
HOLE#
      5179**DCL      6372<<ASSIGN   6373<<ASSIGN   6409>>DOWHILE  6661>>IF       6662>>ASSIGN
HOLE_KEY
      4480**DCL        86--PROC
HOLE_KEY.BYTES#
PL6.E3A0      #004=VDA$FREKEY File=VDA$FILE.:VDA5TSI                             FRI 07/04/97 11:05 Page:307
      4484**DCL      6661>>IF
KEY_INCR
      4464**DCL        86--PROC     6403>>ASSIGN
L1$NODE.DESC.SPEC.V$
      5464**DCL      6421>>ASSIGN
L1$NODE.FLINK$
      5411**DCL      6429>>ASSIGN
L1_NODE$
      4911**DCL      5385--IMP-PTR  6418<<ASSIGN   6420>>DOWHILE  6421>>ASSIGN   6429<<ASSIGN   6429>>ASSIGN
M$CLOSE
      2460**DCL-ENT  6490--CALL     6722--CALL     6804--CALL
M$OPEN
      2460**DCL-ENT  6551--CALL     6740--CALL     6826--CALL
NB_BUFFER IN PROCEDURE READ_SRC_RECORD
      6896**DCL      6963<<ASSIGN   6965<<ASSIGN   6973>>CALL     6977>>ASSIGN   6994>>IF       6998<<ASSIGN
      6998>>ASSIGN
OALLOC_FAILED IN PROCEDURE READ_SRC_RECORD
      7015**LABEL    6973--CALLALT
OFREE_FAILED IN PROCEDURE READ_SRC_RECORD
      7015**LABEL    6987--CALLALT  7012--CALLALT
OPEN_SRC_XSA_FAILED
      6777**LABEL    6498--CALLALT
PORT
      5194**DCL      6424--IF       6463<>CALL     6616<>CALL     6617<>CALL     6635<>CALL
PORT.CURRENT
      5247**DCL      6605<>CALL     6731<>CALL
PORT.CURRENT.EOF
      5263**DCL      6698<<ASSIGN
PORT.CURRENT.KEY
      5259**DCL      6607<<ASSIGN   6649>>ASSIGN   6658--ASSIGN   6658--ASSIGN   6662--ASSIGN   6662--ASSIGN
      6691>>ASSIGN
PORT.DCB#
      5221**DCL      6387>>IF       6395>>ASSIGN   6399>>ASSIGN   6521<>CALL     6540>>ASSIGN   6719>>ASSIGN
      6737>>ASSIGN   6778<<ASSIGN   6799--IF       6800>>ASSIGN   6808<>CALL     6809<<ASSIGN
PORT.EXIST#
      5220**DCL      6380>>IF
PL6.E3A0      #004=VDA$FREKEY File=VDA$FILE.:VDA5TSI                             FRI 07/04/97 11:05 Page:308
PORT.FILE_KEY
      5233**DCL      6454>>ASSIGN
PORT.FILE_KEY.REP#
      5235**DCL      6454>>IF
PORT.FILE_KEY.V$
      5235**DCL      6454>>CALL     6454>>CALL
PORT.FIT$
      5221**DCL      6547>>ASSIGN
PORT.INTRINSIC_PROTECT
      5220**DCL      6387>>IF
PORT.LAST_OP#
      5222**DCL      6556<<ASSIGN   6745<<ASSIGN   6830<<ASSIGN
PORT.LEVEL.DATA$
      5281**DCL      6479>>IF       6480>>CALL     6480>>CALL     6482<<ASSIGN
PORT.LEVEL.DATA_MODIFIED
      5281**DCL      6634<<ASSIGN
PORT.LEVEL.KEY_TYPE#
      5265**DCL      6387>>IF       6529<<ASSIGN
PORT.LEVEL.ORG#
      5265**DCL      6387>>IF       6387>>IF       6528<<ASSIGN
PORT.LEVEL.SPEC
      5277**DCL      6477<<ASSIGN
PORT.LEVEL.SPEC.REP#
      5279**DCL      6476>>IF
PORT.LEVEL.SPEC.V$
      5279**DCL      6476>>CALL     6476>>CALL
PREV_BUFFER$ IN PROCEDURE READ_SRC_RECORD
      6898**DCL      6968<<ASSIGN   6979>>IF       6984>>ASSIGN   6984>>ASSIGN   6985>>ASSIGN   6987>>CALL
      6987>>CALL     6989<<ASSIGN   7001<<ASSIGN
READ_FAILED_HARD IN PROCEDURE READ_SRC_RECORD
      7012**LABEL    6996--GOTO
READ_KEY
      5126**DCL      6596--ASSIGN
READ_KEY.BYTES#
      5130**DCL      6646>>IF       6661>>IF
READ_SRC_RECORD
PL6.E3A0      #004=VDA$FREKEY File=VDA$FILE.:VDA5TSI                             FRI 07/04/97 11:05 Page:309
      6889**PROC     6602--CALL     6666--CALL
REKEY_FAILED
      6762**LABEL    6384--GOTO     6394--CALLALT  6426--CALLALT  6436--CALLALT  6459--CALLALT  6463--CALLALT
      6480--CALLALT  6504--CALLALT  6511--CALLALT  6521--CALLALT
SCAN_XLATE_TABLES
      6644**LABEL    6648--EXIT
SPEC
      5141**DCL      6598<<ASSIGN
SPEC.BYTES
      5145**DCL      6602<>CALL     6666<>CALL
SPEC.LENGTH#
      5145**DCL      6601<<ASSIGN
SPEC.REP#
      5145**DCL      6600<<ASSIGN
SPEC.TYPE#
      5145**DCL      6599<<ASSIGN
SRC$DCB.ACCT#
      5553**DCL      6542--ASSIGN   6549<>CALL
SRC$DCB.ACTPOS
      5569**DCL      5569--REDEF
SRC$DCB.ARS#
      5543**DCL      5543--REDEF
SRC$DCB.ATTR
      5562**DCL      5563--REDEF
SRC$DCB.BORROW
      5577**DCL      5577--REDEF    5577--REDEF    5577--REDEF
SRC$DCB.DCBNAME.L
      5591**DCL      5591--IMP-SIZ
SRC$DCB.EOMCHAR#
      5547**DCL      5547--REDEF
SRC$DCB.FCD#
      5556**DCL      6811>>IF       6819>>IF
SRC$DCB.FLDID
      5572**DCL      5572--REDEF
SRC$DCB.FORM$
      5566**DCL      5566--REDEF
PL6.E3A0      #004=VDA$FREKEY File=VDA$FILE.:VDA5TSI                             FRI 07/04/97 11:05 Page:310
SRC$DCB.FSECT
      5582**DCL      5582--REDEF
SRC$DCB.FSN#
      5559**DCL      5559--REDEF    5559--REDEF    5560--REDEF
SRC$DCB.HEADER$
      5565**DCL      5565--REDEF
SRC$DCB.IXTNSIZE#
      5563**DCL      5563--REDEF
SRC$DCB.LASTSTA$
      5552**DCL      5552--REDEF
SRC$DCB.LVL
      5578**DCL      5578--REDEF
SRC$DCB.NAME#
      5553**DCL      6543--ASSIGN   6549<>CALL
SRC$DCB.NAME#.C
      5553**DCL      5553--REDEF
SRC$DCB.NOEOF
      5575**DCL      5575--REDEF
SRC$DCB.NRECS#
      5564**DCL      5564--REDEF    6408>>IF       6409>>DOWHILE
SRC$DCB.NRECX
      5583**DCL      5583--REDEF
SRC$DCB.OHDR
      5575**DCL      5575--REDEF
SRC$DCB.ORG#
      5558**DCL      5558--REDEF
SRC$DCB.PRECNO
      5581**DCL      5581--REDEF
SRC$DCB.PSN#
      5553**DCL      6545>>ASSIGN
SRC$DCB.RCSZ
      5587**DCL      5587--REDEF
SRC$DCB.RES#
      5554**DCL      5554--REDEF
SRC$DCB.SETX
      5566**DCL      5566--REDEF
PL6.E3A0      #004=VDA$FREKEY File=VDA$FILE.:VDA5TSI                             FRI 07/04/97 11:05 Page:311
SRC$DCB.TAB$
      5566**DCL      5566--REDEF
SRC$DCB.TDA
      5580**DCL      5581--REDEF
SRC$DCB.WSN#
      5554**DCL      5554--REDEF
SRC$XSA_DATA
      5618**DCL      6711<>CALL     6834<>CALL
SRC$XSA_DATA.BYTES
      5646**DCL      6507--ASSIGN
SRC$XSA_DATA.LENGTH#
      5644**DCL      5646--IMP-SIZ  6711>>CALL     6834>>CALL
SRC$XSA_KEY
      5676**DCL      6714<>CALL     6837<>CALL
SRC$XSA_KEY.BYTES
      5704**DCL      6514--ASSIGN
SRC$XSA_KEY.LENGTH#
      5702**DCL      5704--IMP-SIZ  6714>>CALL     6837>>CALL
SRC_DCB
      4913**DCL      6399<<ASSIGN   6400--ASSIGN   6487>>ASSIGN   6496>>ASSIGN   6597>>ASSIGN   6702>>ASSIGN
      6716<>CALL     6809>>ASSIGN   6812>>ASSIGN   6822>>ASSIGN
SRC_DCB$
      4914**DCL      5537--IMP-PTR  6400<<ASSIGN   6408>>IF       6409>>DOWHILE  6542>>ASSIGN   6543>>ASSIGN
      6545>>ASSIGN   6549>>CALL     6549>>CALL     6811>>IF       6819>>IF
SRC_STREAM
      4252**DCL        86--PROC     6779<>CALL
SRC_STREAM.PORT$
      4278**DCL      6380>>IF       6380>>IF
SRC_XSA
      4882**DCL      6498<>CALL     6705<>CALL     6816<>CALL     6992<>CALL
SRC_XSA.ARS#
      4886**DCL      6999>>ASSIGN   7006>>ASSIGN
SRC_XSA.BBUF_.BOUND
      4890**DCL      6508<<ASSIGN
SRC_XSA.BBUF_.BUF$
      4891**DCL      6507<<ASSIGN
PL6.E3A0      #004=VDA$FREKEY File=VDA$FILE.:VDA5TSI                             FRI 07/04/97 11:05 Page:312
SRC_XSA.DVBYTE
      4895**DCL      7007>>ASSIGN
SRC_XSA.EOMCHAR#
      4898**DCL      4899--REDEF
SRC_XSA.ERR.CODE
      4887**DCL      6994>>IF       7015>>IF
SRC_XSA.KBUF_.BOUND
      4888**DCL      6515<<ASSIGN
SRC_XSA.KBUF_.BUF$
      4889**DCL      6514<<ASSIGN
SRC_XSA.ORG
      4897**DCL      6501<>CALL     6502>>IF
SRC_XSA.SIG1
      4892**DCL      4892--REDEF
SRC_XSA.SIG2
      4892**DCL      4893--REDEF
SRC_XSA_DATA$
      4907**DCL      5618--IMP-PTR  6369<<ASSIGN   6504<>CALL     6507>>ASSIGN   6710>>IF       6711>>CALL
      6711>>CALL     6833>>IF       6834>>CALL     6834>>CALL
SRC_XSA_KEY$
      4908**DCL      5676--IMP-PTR  6370<<ASSIGN   6511<>CALL     6514>>ASSIGN   6713>>IF       6714>>CALL
      6714>>CALL     6836>>IF       6837>>CALL     6837>>CALL
TOTAL_ARS IN PROCEDURE READ_SRC_RECORD
      6897**DCL      6966<<ASSIGN   6999<<ASSIGN   6999>>ASSIGN   7000>>ASSIGN   7006>>ASSIGN
VD$BUFFER
      5734**DCL      6480<>CALL     6616<>CALL     6617<>CALL     6619<>CALL
VD$BUFFER.LENGTH#
      5760**DCL      5762--IMP-SIZ  6480>>CALL     6616>>CALL     6617>>CALL     6619>>CALL
VD$BUFFER IN PROCEDURE READ_SRC_RECORD
      6926**DCL      6987<>CALL     7012<>CALL
VD$BUFFER.BYTES IN PROCEDURE READ_SRC_RECORD
      6954**DCL      6978--ASSIGN   6984<<ASSIGN   6984>>ASSIGN   6985--ASSIGN
VD$BUFFER.LENGTH# IN PROCEDURE READ_SRC_RECORD
      6952**DCL      6954--IMP-SIZ  6977<<ASSIGN   6978>>ASSIGN   6984>>ASSIGN   6984>>ASSIGN   6985>>ASSIGN
      6985>>ASSIGN   6987>>CALL     7000<<ASSIGN   7006<<ASSIGN   7012>>CALL
VD$BUFFER_HEADER
PL6.E3A0      #004=VDA$FREKEY File=VDA$FILE.:VDA5TSI                             FRI 07/04/97 11:05 Page:313
      6245**DCL      6504--CALL     6511--CALL     6973--CALL
VD$ERR.DCB#
      5969**DCL      6395<<ASSIGN
VD$FIT.FIT
      6307**DCL      6547--ASSIGN
VD$PORT.LEVEL.INTERNAL$
      6173**DCL      6416>>ASSIGN
VD$STREAM.PORT$
      6006**DCL      6416>>ASSIGN   6424>>IF
VD$TEXTC_REMOTE
      6201**DCL      6454<>CALL     6476<>CALL
VD$TEXTC_REMOTE.LENGTH#
      6230**DCL      6232--IMP-SIZ  6454>>CALL     6476>>CALL
VDA$FCLOSE
      4492**DCL-ENT  6779--CALL
VDA$PFLUSH
      4491**DCL-ENT  6463--CALL     6635--CALL
VDA$PWRITE
      4490**DCL-ENT  6617--CALL
VDG$EBREAK_ACKNOWLEDGE
      4501**DCL-ENT  6376--CALL     6612--CALL
VDG$ERRMSG
      4502**DCL-ENT  6394--CALL
VDG$ESCREECH
      4500**DCL-ENT  6383--CALL
VDG$MACC_FREKEY_CLOSE_DEST
      4509**DCL-ENT  6721--CALL     6803--CALL
VDG$MACC_FREKEY_CLOSE_ORIG
      4504**DCL-ENT  6489--CALL
VDG$MACC_FREKEY_CLOSE_SRC_XSA
      4508**DCL-ENT  6704--CALL     6815--CALL
VDG$MACC_FREKEY_OPEN_DEST
      4506**DCL-ENT  6549--CALL
VDG$MACC_FREKEY_OPEN_SRC_XSA
      4505**DCL-ENT  6501--CALL
VDG$MACC_FREKEY_PWRITE
PL6.E3A0      #004=VDA$FREKEY File=VDA$FILE.:VDA5TSI                             FRI 07/04/97 11:05 Page:314
      4507**DCL-ENT  6616--CALL
VDG$MACC_FREKEY_REOPEN_DEST
      4510**DCL-ENT  6739--CALL
VDG$MACC_FREKEY_REOPEN_SRC
      4511**DCL-ENT  6825--CALL
VDG$MONERR
      4503**DCL-ENT  6553--CALL     6707--CALL     6724--CALL     6742--CALL     6770--CALL     6777--CALL
      6828--CALL     7019--CALL
VDG$OALLOC
      4494**DCL-ENT  6436--CALL     6504--CALL     6511--CALL     6973--CALL
VDG$OALLOC_DCB
      4495**DCL-ENT  6521--CALL
VDG$OCLEAR_LOCATION
      4498**DCL-ENT  6605--CALL     6731--CALL
VDG$OCOPY
      4499**DCL-ENT  6454--CALL
VDG$OFREE
      4496**DCL-ENT  6476--CALL     6480--CALL     6619--CALL     6711--CALL     6714--CALL     6755--CALL
      6834--CALL     6837--CALL     6987--CALL     7012--CALL
VDG$OFREE_DCB
      4497**DCL-ENT  6716--CALL     6808--CALL
VDG$XLATE_LOCATIONS
      4493**DCL-ENT  6459--CALL     6748--CALL
VDP$WERASE
      4489**DCL-ENT  6426--CALL
VD_$$MON_ACC.V#
      4641**DCL      6488>>IF       6500>>IF       6548>>IF       6615>>IF       6703>>IF       6720>>IF
      6738>>IF       6802>>IF       6814>>IF       6824>>IF
VD_$BY.V#
      4596**DCL      6405>>ASSIGN
VD_6E.ERR_TAIL$
      4550**DCL      5927--IMP-PTR  6371>>ASSIGN   6395>>ASSIGN   6762>>IF
VD_6E.INTERRUPT.STATE#
      4550**DCL      6375>>IF       6611>>IF
VD_6E.WINDOWS$
      4532**DCL      6416>>ASSIGN
PL6.E3A0      #004=VDA$FREKEY File=VDA$FILE.:VDA5TSI                             FRI 07/04/97 11:05 Page:315
VD_BUFFER$
      5132**DCL      5734--IMP-PTR  6602<>CALL     6616>>CALL     6616>>CALL     6617>>CALL     6617>>CALL
      6619>>CALL     6619>>CALL     6666<>CALL
VD_BUFFER$ IN PROCEDURE READ_SRC_RECORD
      6891**DCL      6889--PROC     6926--IMP-PTR  6967<<ASSIGN   6972>>DOWHILE  6973<>CALL     6977>>ASSIGN
      6978>>ASSIGN   6978>>ASSIGN   6984>>ASSIGN   6984>>ASSIGN   6985>>ASSIGN   6985>>ASSIGN   7000>>ASSIGN
      7001>>ASSIGN   7002<<ASSIGN   7006>>ASSIGN   7012>>CALL     7012>>CALL     7014<<ASSIGN
VD_ERR$
      4909**DCL      6371<<ASSIGN   6762>>IF
VD_KEY_NUMERIC_BOF
      4656**DCL      6590>>ASSIGN
VD_KEY_NUMERIC_BOF.BYTES#
      4665**DCL      6587>>IF
VLP_SN
      5077**DCL      6546--ASSIGN
VLP_SN.NUM#
      5077**DCL      6544<<ASSIGN
VLP_SN.SN#
      5077**DCL      6545<<ASSIGN
WINDOW$SPEC
      5478**DCL      6426<>CALL
WINDOW$SPEC.OPERAND.STREAM$
      5519**DCL      6423>>IF       6424>>IF
WINDOWS$L0_NODE.HEAD$
      5375**DCL      6418>>ASSIGN
WINDOWS_L0_NODE$
      4910**DCL      5292--IMP-PTR  6416<<ASSIGN   6418>>ASSIGN
WINDOW_SPEC$
      4912**DCL      5478--IMP-PTR  6421<<ASSIGN   6422>>IF       6423>>IF       6424>>IF       6426>>CALL
XLATE_LOCATIONS_ROOT$
      5181**DCL      6436<>CALL     6440>>ASSIGN   6585>>ASSIGN   6748>>CALL     6751>>ASSIGN   6753<<ASSIGN
      6756>>ASSIGN
XSA$CLOSE
      4513**DCL-ENT  6705--CALL     6816--CALL
XSA$OPEN
      4513**DCL-ENT  6498--CALL
PL6.E3A0      #004=VDA$FREKEY File=VDA$FILE.:VDA5TSI                             FRI 07/04/97 11:05 Page:316
XSA$READ
      4513**DCL-ENT  6992--CALL
