PL6.E3A0      #001=VDA$FOPEN File=VDA$FILE.:VDA5TSI                              FRI 07/04/97 11:03 Page:1
        1        1        /*M* VDA$FILE - Accessor operations at file-level */
        2        2        /*T***********************************************************/
        3        3        /*T*                                                         */
        4        4        /*T* Copyright (c) Bull HN Information Systems Inc., 1997    */
        5        5        /*T*                                                         */
        6        6        /*T***********************************************************/
        7        7
        8        8        /*X* MCR=NO, DMC=YES */
        9        9        /*T*/
       10       10
       11       11        /*P* NAME: VDA$FILE
       12       12            PURPOSE: Accessor operations at file-level.
       13       13            DESCRIPTION:
       14       14                This module contains three external routines:
       15       15                VDA$FOPEN - Will open a stream's file level to a file.
       16       16                VDA$FCLOSE - Will close a stream's file level.
       17       17                VDA$FDETACH - Will detach a stream from its port. If
       18       18                    appropriate, will free the port.
       19       19                VDA$FREKEY - Rekeys an entire edit-keyed file.
       20       20        */
       21       21
       22       22        /*D* NAME: VDA$FOPEN
       23       23            PARAMETERS:
       24       24                STREAM - VD$STREAM to open.  If this stream is currently open,
       25       25                    we'll first close it.  The stream and its attached port
       26       26                    may already be positioned to the file you wish to access
       27       27                    (via a previous call to VDA$FOPEN), or you may use the
       28       28                    positioning parameters ABSOLUTE and RELATIVE in this call.
       29       29                    The port attached to STREAM may or may not be open to the
       30       30                    requested file already.
       31       31                ABSOLUTE - Optional VD$KEY specifying the absolute location
       32       32                    file key) to position to first.  Must point to a remote
       33       33                    VD$FILE_KEY.
       34       34                    Omit ABSOLUTE for relative-only positioning.
       35       35        *N**N**N*   If ABSOLUTE=%CLEAR, we'll position to the first file in the
       36       36        *N**N**N*       the user's file management directory.
       37       37                    If ABSOLUTE's VD$FILE_KEY.DCB is non-0, then this DCB is
PL6.E3A0      #001=VDA$FOPEN File=VDA$FILE.:VDA5TSI                              FRI 07/04/97 11:03 Page:2
       38       38                        to be used to access the file.  The DCB should already
       39       39                        be !SET to the file to access.  We'll look for a port
       40       40                        already open to this DCB; if none, we'll build a port
       41       41                        and attach this DCB to it.
       42       42                    Else VD$FILE_KEY must contain either an M$FID'd fid, or an
       43       43                        internal file name (in VD$FILE_KEY.UNIQUE.FNAME).
       44       44                        We'll find and attach the appropriate port.
       45       45
       46       46                    The general form for the name part of predefined and
       47       47                        Scratch file keys is:
       48       48                            x6Edit_<dir>_<file>
       49       49                    where:
       50       50                    "x" is the file storage class of the file.  This is a single char,
       51       51                        and comes from VD$DIR_NODE.FILE_STCLASS (settable by
       52       52                        the user).  It is one of the FSTCL_ values, and
       53       53                        specifies where to look for the file.  If the file
       54       54                        storage class for a directory is FSTCL_MIGRATABLE or
       55       55                        FSTCL_EXTERNAL, then the user can't access any external
       56       56                        file which starts with "x6Edit_<dir>".
       57       57                    <dir> is the directory key:  a DK_ value.  There are
       58       58                        five directories:  History, Names, Scratch, Structures,
       59       59                        and Windows.
       60       60                    _<file> is optional, and makes the entire file name unique
       61       61                        for a specific file within the directory.
       62       62                RELATIVE - Signed number of files to move relative to either
       63       63                    the stream's current file-level position or, if given, ABSOLUTE.
       64       64                    RELATIVE < 0 is not legal.
       65       65                OPTIONS - Optional VD$ACCESS_OPTIONS.  If omitted, the file
       66       66                    isn't opened.  If given, then:
       67       67                    .STRUCTURE$ must point to the level 1 VD$FILE_NODE for
       68       68                        the accessor Structure to use.  The Structure specifies
       69       69                        not only the level structure of the physical file,
       70       70                        but also the organization, Key-type, and Spec-type
       71       71                        of the file.  Note that:
       72       72                        o When opening an existing file, if the user specifies
       73       73                            the External structure, s/he can access any type of
       74       74                            external file.  This is because the External structure
PL6.E3A0      #001=VDA$FOPEN File=VDA$FILE.:VDA5TSI                              FRI 07/04/97 11:03 Page:3
       75       75                            doesn't have org or Key-type values in it, so we use
       76       76                            the ones from the actual file.
       77       77                        o When creating a file, the user can use either:
       78       78                            o the External structure, in which case we'll use
       79       79                                default values for org, Key-type, and Spec-type; or
       80       80                            o one of the derivative structures which specify org,
       81       81                                Key-type, and Spec-type (Consec, Names, etc.)
       82       82                        o If the user opens an existing file with a structure
       83       83                            which specifies org, Key-type, or Spec-type, and the
       84       84                            actual file's values differ from those of the structure,
       85       85                            we'll report an error and abort the open.
       86       86                    .EXIST - An EX_ value, specifying the "existence" option
       87       87                        to be applied to the file.
       88       88                    .PROTECT - The "protect" option to be applied to the file:
       89       89                        either %PROTECT (read-only) or %DONT_PROTECT.
       90       90                        Note the rough granularity of this option:  it applies
       91       91                        to all levels of the file structure and to all node
       92       92                        components at the levels.
       93       93                        Basically, this is like a mask of all 1's that we'll
       94       94                        be OR'ing with the protection forced by the Structure,
       95       95                        by file management (for external files), or by the
       96       96                        filenode itself (for internal files).
       97       97            INPUT:
       98       98                VD_ACCESSOR_PRIV - If we're opening/creating an internal file
       99       99                    and we're not doing it on behalf of the user, but
      100      100                    rather are accessing an internally-maintained
      101      101                    file (e.g., Scratch files, etc.), then
      102      102                    VD_ACCESSOR_PRIV must have all bits set (%NAC_ALL_BITS).
      103      103            OUTPUT:
      104      104                PORT.STRUCTURE will be set appropriately.
      105      105                STREAM.FILE_KEY will be set:
      106      106                    If .FILE_KEY is %CLEAR, the requested file doesn't exist,
      107      107                        and there are no files after it in the specified
      108      108                        directory.  This will only happen when RELATIVE > 0.
      109      109                        (When RELATIVE=0, positioning to a non-existent file just
      110      110                        loads the file key into VD$STREAM.FILE_KEY
      111      111                        and leaves the stream closed.)
PL6.E3A0      #001=VDA$FOPEN File=VDA$FILE.:VDA5TSI                              FRI 07/04/97 11:03 Page:4
      112      112                    If .FILE_KEY is not %CLEAR, then it specifies the key of
      113      113                        the requested file.  Note that if ABSOLUTE contained
      114      114                        a .DCB# at entry, we'll fill in the fid-part of the
      115      115                        VD$FILE_KEY from the DCB, in both the stream's
      116      116                        VD$FILE_KEY and in ABSOLUTE's VD$FILE_KEY.
      117      117                If OPTIONS is included in the parameters:
      118      118                    The stream will be open to the file, but will remain
      119      119                        "unpositioned" (no lower-level keys in STREAM.CURRENT.
      120      120                        If the file doesn't exist, an error will be returned.
      121      121                    VD$PORT.EXIST and all STREAM.PROTECTs will be set
      122      122                        from the call parameters.  The VD$PORT.LEVEL.ORGs,
      123      123                        VD$PORT.LEVEL.KEY_TYPEs, VD$PORT.LEVEL.SPEC_TYPEs, and
      124      124                        STREAM.PROTECTs will be set based on the specific
      125      125                        file/structure opened and the PROTECT value passed.
      126      126                VD$STREAM.NEXT may be cleared.
      127      127            DESCRIPTION:
      128      128                Load ABSOLUTE's file key into .FILE_KEY and attach
      129      129                    the stream to an appropriate port.
      130      130                If RELATIVE is > 0, skip that many files in the file directory.
      131      131                In the above, if the stream is already open and we need to
      132      132                    position to a different file than the current one, first
      133      133                    close the stream.
      134      134
      135      135                If OPTIONS wasn't passed, return:  we've positioned to the
      136      136                    requested file.
      137      137                If the port is already open to the requested file, then
      138      138                    the request can't specify EXIST=NEW; if so, reject the open.
      139      139                    Also compare the protection options:  if the request says
      140      140                    %DONT_PROTECT for an external file, then we can't use a port
      141      141                    which is already open to a DCB for input-only.
      142      142                If the current key at the file level is of a non-existent
      143      143                    file and EXIST = %EX_NEW or %EX_ANY, then this OPEN call
      144      144                    will create a new file.
      145      145                    Note:  to create a predefined file, EXIST must be %EX_NEW.
      146      146                If the port isn't open yet, open it.  Merge the info from the
      147      147                    Structure into the VD$PORT.
      148      148                Merge the PROTECT parameter with the protect flags for each level
PL6.E3A0      #001=VDA$FOPEN File=VDA$FILE.:VDA5TSI                              FRI 07/04/97 11:03 Page:5
      149      149                    of the Structure definition, and if the file is
      150      150                    external, with the open-mode of the DCB, into the VD$STREAM.
      151      151        */
      152      152
      153      153        VDA$FOPEN: PROC (STREAM, ABSOLUTE, RELATIVE, OPTIONS) ALTRET;
      154      154
      155      155        %INCLUDE VD_MACROS_M;
      156     2370        %INCLUDE VD_PERR_C;
      157     2518        %INCLUDE CP_6;
      158     2599        %INCLUDE CP_6_SUBS;
      159     3139        %INCLUDE B_ERRORS_C;
      160     4265        %INCLUDE B$JIT;
      161     4555
      162     4556
      163     4557                %VD$STREAM (NAME=STREAM, STCLASS=PARAM);
      164     4663                %VD$KEY (NAME=ABSOLUTE, STCLASS=PARAM);
      165     4677    1   DCL RELATIVE SBIN;
      166     4678        %VD$ACCESS_OPTIONS (NAME=OPTIONS, STCLASS=PARAM);
      167     4707
      168     4708
      169     4709    1   DCL VDA$FCLOSE          ENTRY (1) ALTRET;
      170     4710    1   DCL VDA$FDETACH         ENTRY (1) ALTRET;
      171     4711    1   DCL VDG$OCOPY           ENTRY (2) ALTRET;
      172     4712    1   DCL VDG$OALLOC          ENTRY (3) ALTRET;
      173     4713    1   DCL VDG$OFREE           ENTRY (1) ALTRET;
      174     4714    1   DCL VDG$OALLOC_DCB      ENTRY (1) ALTRET;
      175     4715    1   DCL VDG$OFREE_DCB       ENTRY (1) ALTRET;
      176     4716    1   DCL VDG$EREPORT_ERROR   ENTRY (1);
      177     4717    1   DCL VDG$ESCREECH        ENTRY (3);
      178     4718    1   DCL VDG$EBREAK_ACKNOWLEDGE ENTRY (1);
      179     4719    1   DCL VDG$MACC_FOPEN      ENTRY (4);
      180     4720    1   DCL VDG$MACC_FOPEN_OPEN ENTRY (2);
      181     4721    1   DCL VDG$MACC_RETURN     ENTRY (1);
      182     4722    1   DCL XSF$LOCCODT         ENTRY (2) ALTRET;
      183     4723
      184     4724
      185     4725
PL6.E3A0      #001=VDA$FOPEN File=VDA$FILE.:VDA5TSI                              FRI 07/04/97 11:03 Page:6
      186     4726        %VD_6E (STCLASS=SYMREF);
      187     4762    1   DCL 1 VD_ACCESSOR_PRIV ALIGNED SYMREF,
      188     4763              %VD$NAC (NAME=ACCESS, LEV=2, LAST=YES);
      189     4777        %VD$BUFFER (NAME=VD_$FILETYPE, STCLASS=SYMREF);
      190     4835        %VD$NUMBER (NAME=VD_$$MON_ACC, STCLASS=SYMREF);
      191     4880        %VD$KEY_NUMBER (NAME=VD_KEY_FIRST_CONSEC_REC, STCLASS=SYMREF);
      192     4895    1   DCL B$TCB$ PTR SYMREF;
      193     4896    1   DCL B$JIT$ PTR SYMREF;
      194     4897
      195     4898
      196     4899
      197     4900    1   DCL LEVEL SBIN;
      198     4901    1   DCL VD_ERR$ PTR;
      199     4902    1   DCL VD_NUMBER$ PTR;
      200     4903
      201     4904
      202     4905        %VD$PORT (NAME=PORT, STCLASS="BASED(STREAM.PORT$)");
      203     5003        %VD$FILE_NODE;
      204     5096        %VD$TEXTC_REMOTE;
      205     5157        %VD$FILE_KEY;
      206     5206        %VD$BUFFER;
      207     5264        %VD$BUFFER_HEADER;
      208     5300        %VD$ERR (NAME=VD$ERR, STCLASS="BASED(VD_ERR$)");
      209     5353        %VD$NUMBER (NAME=VD$NUMBER, DIM="(0:2)", STCLASS="BASED(VD_NUMBER$)");
      210     5398    1   DCL SBIN$WORD SBIN BASED;
      211     5399        %B$TCB (NAME=B$TCB, STCLASS="BASED(B$TCB$)");
      212     5402        %B$ALT;
      213     5410
      214     5411
      215     5412
      216     5413    2           IF VD_6E.INTERRUPT.STATE# = %INST_BREAK_QUEUED THEN DO;
      217     5414    2              CALL VDG$EBREAK_ACKNOWLEDGE (%E$BREAK_HIT);
      218     5415    2              ALTRETURN;
      219     5416    2              END;
      220     5417    1           IF VD_$$MON_ACC.V# > 0 THEN
      221     5418    1              CALL VDG$MACC_FOPEN (STREAM, ABSOLUTE, RELATIVE, OPTIONS);
      222     5419
PL6.E3A0      #001=VDA$FOPEN File=VDA$FILE.:VDA5TSI                              FRI 07/04/97 11:03 Page:7
      223     5420    1           IF RELATIVE < 0 THEN
      224     5421    1              CALL VDG$ESCREECH (RELATIVE);
      225     5422
      226     5423    1           CALL FILE_LEVEL_LOCATION
      227     5424    1             ALTRET (FILE_LEVEL_LOCATION_FAILED);
      228     5425
      229     5426    2           IF ADDR(OPTIONS) ~= ADDR(NIL) THEN DO;
      230     5427    2              CALL FILE_LEVEL_OPEN
      231     5428    2                ALTRET (FILE_LEVEL_OPEN_FAILED);
      232     5429    2              END;
      233     5430
      234     5431    1           IF VD_$$MON_ACC.V# > 0 THEN
      235     5432    1              CALL VDG$MACC_RETURN (STREAM);
      236     5433    1           RETURN;
      237     5434
      238     5435
      239     5436    1   FILE_LEVEL_LOCATION_FAILED: ;
      240     5437    1   FILE_LEVEL_OPEN_FAILED: ;
      241     5438    1           ALTRETURN;
      242     5439
      243     5440                %BOX (TITLE=FILE_LEVEL_LOCATION, PAGE=YES);
              5448    1
              5452    1   /***************************************************************************
              5454    1    *                                                                         *
              5458    1            *                            FILE_LEVEL_LOCATION                          *
              5460    1            *                                                                         *
              5462    1           ***************************************************************************/

      244     5466
      245     5467        /*I* NAME: FILE_LEVEL_LOCATION
      246     5468            PARAMETERS:
      247     5469                None.
      248     5470            INPUT:
      249     5471                STREAM - The VD$STREAM to use.
      250     5472                ABSOLUTE, RELATIVE - Same as for main routine.
      251     5473                PORT - The VD$PORT attached to STREAM.
      252     5474            OUTPUT:
PL6.E3A0      #001=VDA$FOPEN File=VDA$FILE.:VDA5TSI                              FRI 07/04/97 11:03 Page:8
      253     5475                STREAM.FILE_KEY will contain the requested file key;
      254     5476                    STREAM will be attached to a port which is also positioned
      255     5477                    to the requested file key.  The stream and port may or
      256     5478                    may not be open to the file, and if open, will be positioned
      257     5479                    to an arbitrary location within the file.
      258     5480                If ABSOLUTE's VD$FILE_KEY.DCB# was non-0 at entry, then
      259     5481                    ABSOLUTE's, STREAM.FILE_KEY's, and PORT.FILE_KEY's
      260     5482                    VD$FILE_ABSOLUTE.UNIQUE, .ASN, .PSN, and .RES will be filled
      261     5483                    in from the dcb.  Also, ABSOLUTE's VD$FILE_KEY.DCB# will be
      262     5484                    zeroed.
      263     5485            DESCRIPTION:
      264     5486                Position the stream to the requested file, and attach it to
      265     5487                an appropriate port:
      266     5488
      267     5489                If RELATIVE=0, the stream may already be positioned to
      268     5490                    ABSOLUTE's file and the port for that file.  If so, return.
      269     5491                If the stream is currently open, close it.  If ABSOLUTE isn't
      270     5492                    %CLEAR, load it into current.
      271     5493                If RELATIVE=0:
      272     5494                    Call FIND_PORT to find/build a port open to ABSOLUTE.
      273     5495                    Return.
      274     5496
      275     5497                So, RELATIVE is > 0:
      276     5498                    If this stream isn't the sole referencer of it's port, or if
      277     5499                        it doesn't have a port, call BUILD_PORT to get
      278     5500                        an unused port.  We need an unused port so we can do
      279     5501                        NXTF opens on it for the relative movement.
      280     5502                    Call FILE_LEVEL_OPEN_NXTF, RELATIVE times.  If we hit the end
      281     5503                        of the directory, clear STREAM.FILE_KEY and return.
      282     5504                        (It's ok to leave a closed port attached.)
      283     5505                    If we find the requested file, call FIND_PORT to see if there
      284     5506                        are any other ports already open to the file.  If so,
      285     5507                        FIND_PORT will detach our current port and reattach us
      286     5508                        to the already-open one.
      287     5509                    Return.
      288     5510        */
      289     5511
PL6.E3A0      #001=VDA$FOPEN File=VDA$FILE.:VDA5TSI                              FRI 07/04/97 11:03 Page:9
      290     5512    1   FILE_LEVEL_LOCATION: PROC ALTRET;
      291     5513
      292     5514
      293     5515    2   DCL I SBIN;
      294     5516    2   DCL ABS_KEY$ PTR;
      295     5517    2   DCL CANDIDATE_KEY$ PTR;
      296     5518    2   DCL DO_THE_CALL BIT(1) ALIGNED;
      297     5519
      298     5520
      299     5521        %VD$TEXTC (NAME=ABS$KEY, STCLASS="BASED(ABS_KEY$)");
      300     5544        %VD$TEXTC (NAME=CAND$KEY, STCLASS="BASED(CANDIDATE_KEY$)");
      301     5567
      302     5568
      303     5569
      304     5570    3           IF ABSOLUTE = %CLEAR THEN DO;
      305     5571    3              IF RELATIVE = 0 THEN
      306     5572    3                 RETURN;   /* No positioning requested: return */
      307     5573    3              END;
      308     5574    3           ELSE DO;
      309     5575                   %GETKEY (KEY=ABSOLUTE, PTR=ABS_KEY$);
      310     5585
      311     5586    3              IF RELATIVE = 0
      312     5587    4                AND STREAM.FILE_KEY ~= %CLEAR THEN DO;
      313     5588                      %GETKEY (KEY=STREAM.FILE_KEY, PTR=CANDIDATE_KEY$);
      314     5598    5                 IF ABS$KEY.BYTES = CAND$KEY.BYTES THEN DO;
      315     5599                         /* We're already at requested key:  just return */
      316     5600    5                    RETURN;
      317     5601    5                    END;
      318     5602    4                 END;
      319     5603    3              END;
      320     5604
      321     5605    2           IF STREAM.PORT$ ~= ADDR(NIL) THEN
      322     5606    3              IF PORT.EXIST# ~= 0 THEN DO;
      323     5607    3                 CALL VDA$FCLOSE (STREAM)
      324     5608    3                   ALTRET (FCLOSE_FAILED);
      325     5609    3                 END;
      326     5610
PL6.E3A0      #001=VDA$FOPEN File=VDA$FILE.:VDA5TSI                              FRI 07/04/97 11:03 Page:10
      327     5611                %CLEARKEY (KEY=STREAM.FILE_KEY);
      328     5621
      329     5622    3           IF RELATIVE = 0 THEN DO;
      330     5623    3              CALL FIND_PORT (ABSOLUTE)
      331     5624    3                ALTRET (FIND_PORT_FAILED);
      332     5625    3              STREAM.FILE_KEY = PORT.FILE_KEY;
      333     5626    4              IF PORT.FILE_KEY.REP# = %REP_REMOTE THEN DO;
      334     5627    4                 CALL VDG$OCOPY (PORT.FILE_KEY.V$ -> VD$FILE_KEY,
      335     5628    4                   STREAM.FILE_KEY.V$)
      336     5629    4                   ALTRET (OCOPY_FAILED);
      337     5630    4                 END;
      338     5631    3              END;
      339     5632
      340     5633    2           ELSE
      341     5634    3   REL_MOVES: DO;
      342     5635    3              DO_THE_CALL = %TRUE; /* Assume we need to find an unused port */
      343     5636    4              IF STREAM.PORT$ ~= ADDR(NIL) THEN DO;
      344     5637    4                 IF PORT.REFS# < 2 THEN
      345     5638    4                    DO_THE_CALL = %FALSE;
      346     5639    4                 END;
      347     5640    4              IF DO_THE_CALL THEN DO;
      348     5641    4                 CALL BUILD_PORT (ABSOLUTE)
      349     5642    4                   ALTRET (BUILD_PORT_FAILED);
      350     5643    4                 END;
      351     5644    4              ELSE DO;
      352     5645                      %CLEARKEY (KEY=PORT.FILE_KEY);
      353     5655    4                 PORT.FILE_KEY = ABSOLUTE;
      354     5656    5                 IF ABSOLUTE.REP# = %REP_REMOTE THEN DO;
      355     5657    5                    CALL VDG$OCOPY (ABSOLUTE.V$ -> VD$FILE_KEY,
      356     5658    5                      PORT.FILE_KEY.V$)
      357     5659    5                      ALTRET (OCOPY_FAILED);
      358     5660    5                    END;
      359     5661    4                 END;
      360     5662
      361     5663    3              I = RELATIVE;
      362     5664    4              DO WHILE I > 0 AND PORT.FILE_KEY ~= %CLEAR;
      363     5665        /*N*          CALL FILE_LEVEL_OPEN_NXTF (PORT)                      */
PL6.E3A0      #001=VDA$FOPEN File=VDA$FILE.:VDA5TSI                              FRI 07/04/97 11:03 Page:11
      364     5666        /*N*            ALTRET (FILE_LEVEL_OPEN_NXTF_FAILED);               */
      365     5667    4                 I = I - 1;
      366     5668    4                 END;
      367     5669    4              IF PORT.FILE_KEY ~= %CLEAR THEN DO;
      368     5670                      /* Find any other port which may already be open to this file */
      369     5671    4                 CALL FIND_PORT (PORT.FILE_KEY)
      370     5672    4                   ALTRET (FIND_PORT_FAILED);
      371     5673    4                 END;
      372     5674
      373     5675    3              STREAM.FILE_KEY = PORT.FILE_KEY;
      374     5676    4              IF PORT.FILE_KEY.REP# = %REP_REMOTE THEN DO;
      375     5677    4                 CALL VDG$OCOPY (PORT.FILE_KEY.V$ -> VD$FILE_KEY,
      376     5678    4                   STREAM.FILE_KEY.V$)
      377     5679    4                   ALTRET (OCOPY_FAILED);
      378     5680    4                 END;
      379     5681    3              END REL_MOVES;
      380     5682
      381     5683    2           RETURN;
      382     5684
      383     5685
      384     5686    2   FCLOSE_FAILED: ;
      385     5687    2   FIND_PORT_FAILED: ;
      386     5688    2   BUILD_PORT_FAILED: ;
      387     5689    2   OCOPY_FAILED: ;
      388     5690        /*N* FILE_LEVEL_OPEN_NXTF_FAILED: ; */
      389     5691    2           ALTRETURN;
      390     5692
      391     5693        %BOX (TITLE=FIND_PORT, PAGE=YES);
              5701    2
              5705    2   /***************************************************************************
              5707    2    *                                                                         *
              5711    2            *                                 FIND_PORT                               *
              5713    2            *                                                                         *
              5715    2           ***************************************************************************/

      392     5719
      393     5720        /*I** NAME: FIND_PORT
PL6.E3A0      #001=VDA$FOPEN File=VDA$FILE.:VDA5TSI                              FRI 07/04/97 11:03 Page:12
      394     5721            PARAMETERS:
      395     5722                KEY - VD$KEY for file key to look for.  This must point to
      396     5723                    a remote VD$FILE_KEY.  If VD$FILE_KEY has a non-0 .DCB,
      397     5724                    we'll find a port attached to that DCB.
      398     5725            INPUT:
      399     5726                STREAM - The VD$STREAM to find a port for; we only use STREAM.PORT$.
      400     5727                VD_6E.PORT_HEAD$, .PORT_TAIL$ - Ptrs to head and tail of
      401     5728                    current chain of VD$PORTs.
      402     5729            OUTPUT:
      403     5730                STREAM.PORT$ will point to the port which is open to KEY.  This may
      404     5731                    be a different port than was passed via STREAM.PORT$ at entry;
      405     5732                    if so, the old port's ref count will be decremented (and if
      406     5733                    no other streams ref it, it will be freed), and the new
      407     5734                    port's ref count will be incremented; this reflects the
      408     5735                    detachment of the stream from the old port and the
      409     5736                    reattachment of the stream to the new port.
      410     5737                If KEY's VD$FILE_KEY.DCB# was non-0 at entry, then
      411     5738                    KEY's and PORT.FILE_KEY's VD$FILE_KEY.UNIQUE, .ASN, .PSN,
      412     5739                    and .RES will be filled in from the dcb.  Also, KEY's
      413     5740                    VD$FILE_KEY.DCB# will be zeroed.
      414     5741            DESCRIPTION:
      415     5742                If STREAM.PORT$ is nil, look for any port open to KEY; if none,
      416     5743                    or if KEY's VD$FILE_KEY.DCB# is set, build a new port for KEY.
      417     5744                If STREAM.PORT$ is not nil, look for any port open to KEY, but
      418     5745                    consider STREAM.PORT$->VD$PORT last.  If we find any other
      419     5746                    port already open to KEY, we assume caller wants to detach
      420     5747                    STREAM from PORT$; we'll decrement the port's ref count
      421     5748                    and close and deallocate it if appropriate (ref count = 0).
      422     5749                    If no port, not even STREAM.PORT$, is already open to KEY,
      423     5750                    we'll detach STREAM from it, allocate a new VD$PORT, and
      424     5751                    attach STREAM to the new port.
      425     5752        */
      426     5753
      427     5754    2   FIND_PORT: PROC (KEY) ALTRET;
      428     5755
      429     5756        %VD$KEY (NAME=KEY, STCLASS=PARAM);
      430     5770
PL6.E3A0      #001=VDA$FOPEN File=VDA$FILE.:VDA5TSI                              FRI 07/04/97 11:03 Page:13
      431     5771
      432     5772    3   DCL GIVEN_KEY$ PTR;
      433     5773    3   DCL CAND_PORT$ PTR;
      434     5774    3   DCL CAND_KEY$ PTR;
      435     5775
      436     5776
      437     5777        %VD$TEXTC (NAME=GIVEN$KEY, STCLASS="BASED(GIVEN_KEY$)");
      438     5800        %VD$FILE_KEY (NAME=FILE$KEY, STCLASS="BASED(KEY.V$)");
      439     5849        %VD$PORT (NAME=CAND$PORT, STCLASS="BASED(CAND_PORT$)");
      440     5947        %VD$TEXTC (NAME=CAND$KEY, STCLASS="BASED(CAND_KEY$)");
      441     5970
      442     5971
      443     5972
      444     5973    3           IF KEY.REP# ~= %REP_REMOTE THEN
      445     5974    3              CALL VDG$ESCREECH (KEY.REP#);
      446     5975    3           GIVEN_KEY$ = ADDR(FILE$KEY.LENGTH#);
      447     5976
      448     5977    3           IF FILE$KEY.DCB# = 0 THEN
      449     5978    4   FIND_NAMED_FILE: DO;
      450     5979    4              CAND_PORT$ = VD_6E.PORT_HEAD$;
      451     5980    4   SEARCH_PORTS:
      452     5981    5              DO WHILE CAND_PORT$ ~= ADDR(NIL);
      453     5982    6                 IF CAND_PORT$ ~= STREAM.PORT$ THEN DO;
      454     5983                         %GETKEY (KEY=CAND$PORT.FILE_KEY, PTR=CAND_KEY$);
      455     5993    6                    IF GIVEN$KEY.BYTES = CAND$KEY.BYTES THEN
      456     5994    6                       EXIT SEARCH_PORTS;
      457     5995    6                    CAND_PORT$ = CAND$PORT.FLINK$;
      458     5996    6                    END;
      459     5997    5                 END SEARCH_PORTS;
      460     5998
      461     5999    4              IF CAND_PORT$ ~= ADDR(NIL) THEN
      462     6000    5   FOUND_MATCH: DO;
      463     6001    6                 IF STREAM.PORT$ ~= ADDR(NIL) THEN DO;
      464     6002    6                    CALL VDA$FDETACH (STREAM)
      465     6003    6                      ALTRET (FDETACH_FAILED);
      466     6004    6                    END;
      467     6005    5                 STREAM.PORT$ = CAND_PORT$;
PL6.E3A0      #001=VDA$FOPEN File=VDA$FILE.:VDA5TSI                              FRI 07/04/97 11:03 Page:14
      468     6006    5                 CAND$PORT.REFS# = CAND$PORT.REFS# + 1;
      469     6007    5                 END FOUND_MATCH;
      470     6008    4              ELSE IF STREAM.PORT$ ~= ADDR(NIL) THEN
      471     6009    5   TEST_ORIGINAL_PORT: DO;
      472     6010                         %GETKEY (KEY=STREAM.PORT$->CAND$PORT.FILE_KEY,
      473     6011                         PTR=CAND_KEY$);
      474     6021    6                    IF GIVEN$KEY.BYTES ~= CAND$KEY.BYTES THEN DO;
      475     6022                            /* Force STREAM.PORT$ to NIL */
      476     6023    6                       CALL VDA$FDETACH (STREAM)
      477     6024    6                         ALTRET (FDETACH_FAILED);
      478     6025    6                       END;
      479     6026    5                    END TEST_ORIGINAL_PORT;
      480     6027    4              END FIND_NAMED_FILE;
      481     6028
      482     6029    3           IF FILE$KEY.DCB# ~= 0
      483     6030    4             OR STREAM.PORT$ = ADDR(NIL) THEN DO;
      484     6031                   /*
      485     6032                   *  Specific DCB requested, or no match found:
      486     6033                   *    build a new port.
      487     6034                   */
      488     6035    4              CALL BUILD_PORT (KEY)
      489     6036    4                ALTRET (BUILD_PORT_FAILED);
      490     6037    4              END;
      491     6038    4           ELSE DO;
      492     6039                   %INCREMENT (INDX=%STG_OPEN_PORT_SHARED);
      493     6042    4              END;
      494     6043
      495     6044    3           RETURN;
      496     6045
      497     6046
      498     6047
      499     6048    3   FDETACH_FAILED: ;
      500     6049    3   BUILD_PORT_FAILED: ;
      501     6050    3           ALTRETURN;
      502     6051
      503     6052    3   END FIND_PORT;
      504     6053
PL6.E3A0      #001=VDA$FOPEN File=VDA$FILE.:VDA5TSI                              FRI 07/04/97 11:03 Page:15
      505     6054        %BOX (TITLE=BUILD_PORT, PAGE=YES);
              6062    3
              6066    3   /***************************************************************************
              6068    3    *                                                                         *
              6072    3            *                                 BUILD_PORT                              *
              6074    3            *                                                                         *
              6076    3           ***************************************************************************/

      506     6080
      507     6081        /*I** NAME: BUILD_PORT
      508     6082            PARAMETERS:
      509     6083                KEY - VD$KEY to build port for.  This must point to
      510     6084                    a remote VD$FILE_KEY.  If VD$FILE_KEY has a non-0 .DCB,
      511     6085                    we'll attach the port to that DCB; the VD$FILE_KEY's
      512     6086                    fid parts should match those of the DCB, however,
      513     6087                    they're ignored, and the port's key is built from the
      514     6088                    DCB and JIT.
      515     6089            INPUT:
      516     6090                STREAM - The VD$STREAM to build a port for; we only use STREAM.PORT$.
      517     6091                VD_6E.PORT_HEAD$, .PORT_TAIL$ - Ptrs to head and tail of
      518     6092                    current chain of VD$PORTs.
      519     6093            OUTPUT:
      520     6094                STREAM.PORT$ will point to a new port with file-level key KEY.
      521     6095                    If a port was passed via STREAM.PORT$ at entry,
      522     6096                    that port's ref count will be decremented (and if
      523     6097                    no other streams ref it, it will be freed), and the new
      524     6098                    port's ref count will be incremented; this reflects the
      525     6099                    detachment of the stream from the old port and the
      526     6100                    reattachment of the stream to the new port.
      527     6101            DESCRIPTION:
      528     6102                If STREAM.PORT$ is nil, just allocate a new port for KEY.
      529     6103                If STREAM.PORT$ is not nil, first detach STREAM from PORT$:
      530     6104                    decrement the port's ref count and close and deallocate it
      531     6105                    if appropriate.  Then we'll allocate a new VD$PORT for KEY,
      532     6106                    and attach STREAM to it.
      533     6107        */
      534     6108
PL6.E3A0      #001=VDA$FOPEN File=VDA$FILE.:VDA5TSI                              FRI 07/04/97 11:03 Page:16
      535     6109    2   BUILD_PORT: PROC (KEY) ALTRET;
      536     6110
      537     6111        %VD$KEY (NAME=KEY, STCLASS=PARAM);
      538     6125
      539     6126
      540     6127    3   DCL NEW_PORT$ PTR;
      541     6128    3   DCL REQ_DCB$ PTR;
      542     6129    3   DCL FILE_KEY$ PTR;
      543     6130
      544     6131
      545     6132        %VD$FILE_KEY (NAME=FILE$KEY, STCLASS="BASED(FILE_KEY$)");
      546     6181        %VD$PORT (NAME=NEW$PORT, STCLASS="BASED(NEW_PORT$)");
      547     6279        %F$DCB (DCBN=REQ$DCB, STCLASS="BASED(REQ_DCB$)");
      548     6336        %VD$TEXTC_REMOTE;
      549     6397
      550     6398
      551     6399
      552     6400    4           IF STREAM.PORT$ ~= ADDR(NIL) THEN DO;
      553     6401    4              CALL VDA$FDETACH (STREAM)
      554     6402    4                ALTRET (FDETACH_FAILED);
      555     6403    4              END;
      556     6404
      557     6405    3           CALL VDG$OALLOC (%CLS_PORT, STREAM.PORT$)
      558     6406    3             ALTRET (OALLOC_FAILED);
      559     6407    3           NEW_PORT$ = STREAM.PORT$;
      560     6408    3           FILE_KEY$ = KEY.V$;
      561     6409
      562     6410    3           NEW$PORT.REFS# = 1;
      563     6411    4           IF FILE$KEY.DCB# ~= 0 THEN DO;
      564     6412    4              NEW$PORT.DCB# = FILE$KEY.DCB#;
      565     6413    4              REQ_DCB$ = DCBADDR(FILE$KEY.DCB#);
      566     6414                   /* Reload VD$FILE_KEY fields from DCB */
      567     6415    4              FILE$KEY.UNIQUE.ACCT = REQ$DCB.ACCT#;
      568     6416    4              FILE$KEY.PSN = REQ$DCB.PSN#;
      569     6417    5              IF FILE$KEY.UNIQUE.ACCT = ' ' THEN DO;
      570     6418    5                 IF REQ$DCB.NAME#.L >= 1
      571     6419    5                   AND SUBSTR(REQ$DCB.NAME#.C, 0, 1) = %CHR_TEMP_FILE THEN
PL6.E3A0      #001=VDA$FOPEN File=VDA$FILE.:VDA5TSI                              FRI 07/04/97 11:03 Page:17
      572     6420    5                    FILE$KEY.UNIQUE.ACCT = B$JIT.ACCN;
      573     6421    5                 ELSE
      574     6422    5                    FILE$KEY.UNIQUE.ACCT = B$JIT.FACCN;
      575     6423    5                 IF (REQ$DCB.PSN# = ' ') THEN
      576     6424    5                    FILE$KEY.PSN = B$JIT.FPSN;
      577     6425    5                 END;
      578     6426    4              FILE$KEY.UNIQUE.FNAME.LENGTH# = REQ$DCB.NAME#.L;
      579     6427    4              FILE$KEY.UNIQUE.FNAME.BYTES =
      580     6428    4                SUBSTR(REQ$DCB.NAME#.C, 0, REQ$DCB.NAME#.L);
      581     6429    4              FILE$KEY.LENGTH# = LENGTHC(FILE$KEY.UNIQUE.ACCT) +
      582     6430    4                LENGTHC(FILE$KEY.UNIQUE.FNAME.LENGTH#) +
      583     6431    4                FILE$KEY.UNIQUE.FNAME.LENGTH#;
      584     6432    4              FILE$KEY.ASN# = REQ$DCB.ASN#;
      585     6433    4              FILE$KEY.RES = REQ$DCB.RES#;
      586     6434    4              FILE$KEY.PASS = REQ$DCB.PASS#;
      587     6435    4              FILE$KEY.DCB# = 0;   /* Zap the DCB ref */
      588     6436    4              END;
      589     6437
      590     6438                %COPYKEY (FKEY=KEY, TKEY=NEW$PORT.FILE_KEY);
      591     6454
      592     6455    3           RETURN;
      593     6456
      594     6457
      595     6458    3   FDETACH_FAILED: ;
      596     6459    3   OALLOC_FAILED: ;
      597     6460    3           ALTRETURN;
      598     6461
      599     6462    3   END BUILD_PORT;
      600     6463
      601     6464
      602     6465    2   END FILE_LEVEL_LOCATION;
      603     6466
      604     6467                %BOX (TITLE=FILE_LEVEL_OPEN, PAGE=YES);
              6475    2
              6479    2   /***************************************************************************
              6481    2    *                                                                         *
              6485    2            *                              FILE_LEVEL_OPEN                            *
PL6.E3A0      #001=VDA$FOPEN File=VDA$FILE.:VDA5TSI                              FRI 07/04/97 11:03 Page:18
              6487    2            *                                                                         *
              6489    2           ***************************************************************************/

      605     6493
      606     6494        /*I* NAME: FILE_LEVEL_OPEN
      607     6495            PARAMETERS:
      608     6496                None.
      609     6497            INPUT:
      610     6498                STREAM must be positioned to the file to open.
      611     6499                PORT must be positioned to the internal or external file to
      612     6500                    open.  By positioned, we mean PORT.FILE__KEY
      613     6501                    must contain the file key to open.  The file may or may
      614     6502                    not exist.  .SPEC and .DATA at %LVL_FILE may or may not
      615     6503                    contain info (perhaps from a previous opening of the file).
      616     6504                    PORT may currently be open or closed to the file.
      617     6505                    If closed, PORT may or may not have a DCB attached; if it
      618     6506                    does, then the DCB has already been !SET to the fid to
      619     6507                    open to only if PORT's file-level Key, which must be
      620     6508                    a VD$FILE_KEY, has a non-0 VD$FILE_KEY.DCB#.
      621     6509                OPTIONS must be given; see description for the main routine
      622     6510                    (except it's not optional here).
      623     6511            OUTPUT:
      624     6512                If the PORT is currently closed, we'll open it:
      625     6513                    PORT.DCB# and PORT.LEVEL.INTERNAL$ (%LVL_FILE) will be set
      626     6514                        appropriately.
      627     6515                    PORT.EXIST#, .INTRINSIC_PROTECT, and .STRUCTURE$ will
      628     6516                        be set appropriately.
      629     6517                    PORT.FIT$ will point to a copy of the file's FIT, if any.
      630     6518                    PORT.SPEC and .DATA$ at %LVL_FILE will be set appropriately.
      631     6519                STREAM.PROTECTs at all levels will be set appropriately.
      632     6520            DESCRIPTION:
      633     6521                If PORT is already open, just check for an existence conflict:
      634     6522                    error is user says NEW but PORT already open to file.
      635     6523                If PORT is closed, open it:
      636     6524                    Find it internal or external.  We only look internal if
      637     6525                        the file key matches our template ("x6Edit_<dir>").
      638     6526                        If we don't find it internal:
PL6.E3A0      #001=VDA$FOPEN File=VDA$FILE.:VDA5TSI                              FRI 07/04/97 11:03 Page:19
      639     6527                            If this is a create open, and the file key matches
      640     6528                                the template, the first char matches the
      641     6529                                directory's FILE_STCLASS, and the first char isn't
      642     6530                                %FSTCL_EXTERNAL, then create the file internal.
      643     6531                            Else open/create the file external.
      644     6532                    Call the appropriate routine to open the file internal or
      645     6533                        external.
      646     6534                Merge info from the Structure and PORT into STREAM.
      647     6535                Check for a protection conflict:  if for some reason we can't
      648     6536                    give the user write access to the file when s/he requests
      649     6537                    it, generate a warning message.
      650     6538        */
      651     6539
      652     6540    1   FILE_LEVEL_OPEN: PROC ALTRET;
      653     6541
      654     6542
      655     6543        /*
      656     6544        *   The following arrays are used when merging the protect flags from
      657     6545        *       the VD$STRUCTURE_LEVEL into the stream.
      658     6546        *   PROTECT_FLAGS_FOR_BOOL uses a bit(1) flag as a subscript:
      659     6547        *       %TRUE yields all 1-bits.
      660     6548        *   PROTECT_FLAGS_FOR_OPTION uses OPTIONS.PROTECT# as a subscript:
      661     6549        *       %PROTECT yields all 1-bits.
      662     6550        */
      663     6551    2   DCL PROTECT_FLAGS_FOR_BOOL (0:1) BIT(%(CO_DATA+1)) CONSTANT
      664     6552    2       INIT (%CLEAR, %CO_ALL_BITS);
      665     6553    2   DCL PROTECT_FLAGS_FOR_OPTION (0:7) BIT(%(CO_DATA+1)) CONSTANT
      666     6554    2       INIT (%CLEAR, %CO_ALL_BITS, %CLEAR*0);
      667     6555
      668     6556
      669     6557
      670     6558    2   DCL DIR_KEY CHAR(%MXNB_FILE_NAME);
      671     6559    2   DCL STRUCTURE_SPEC$ PTR;
      672     6560    2   DCL STRUCTURE_LEVEL_NODE$ PTR;
      673     6561    2   DCL STRUCTURE_LEVEL$ PTR;
      674     6562    2   DCL PORT_KEY$ PTR;
      675     6563    2   DCL PORT_KEY_NAME$ PTR;
PL6.E3A0      #001=VDA$FOPEN File=VDA$FILE.:VDA5TSI                              FRI 07/04/97 11:03 Page:20
      676     6564    2   DCL DIR_NODE$ PTR;
      677     6565    2   DCL FILE_NODE$ PTR;
      678     6566    2   DCL FILE_NODE_KEY_NAME$ PTR;
      679     6567    2   DCL FILE_STCLASS CHAR(%LENGTHC(FSTCL_INTERNAL));
      680     6568    2   DCL PFN_INDEX SBIN;
      681     6569    2   DCL WHERE_TO_INSERT_NEW_FILE$ PTR;
      682     6570    2   DCL ENTIRE_STRUCTURE_PROTECTED BIT(1) ALIGNED;
      683     6571    2   DCL CONSEC_BY_ACCIDENT BIT(1) ALIGNED;
      684     6572
      685     6573
      686     6574        %VD$FILE_NODE (NAME=STRUCTURE, STCLASS="BASED(OPTIONS.STRUCTURE$)");
      687     6667        %VD$STRUCTURE_SPEC (NAME=STRUCTURE$SPEC, STCLASS="BASED(STRUCTURE_SPEC$)");
      688     6704        %VD$FILE_NODE (NAME=STRUCTURE$LEVEL_NODE,
      689     6705            STCLASS="BASED(STRUCTURE_LEVEL_NODE$)");
      690     6798        %VD$STRUCTURE_LEVEL (NAME=STRUCTURE$LEVEL, STCLASS="BASED(STRUCTURE_LEVEL$)");
      691     6845        %VD$FILE_KEY (NAME=PORT$KEY, STCLASS="BASED(PORT_KEY$)");
      692     6894        %VD$TEXTC (NAME=PORT$KEY_NAME, STCLASS="BASED(PORT_KEY_NAME$)",
      693     6895            ALIGNMENT=CALIGNED);
      694     6918        %VD$DIR_NODE (NAME=DIR$NODE, STCLASS="BASED(DIR_NODE$)");
      695     6956        %VD$FILE_NODE (NAME=FILE$NODE, STCLASS="BASED(FILE_NODE$)");
      696     7049        %VD$TEXTC (NAME=FILE$NODE_KEY_NAME, STCLASS="BASED(FILE_NODE_KEY_NAME$)",
      697     7050            ALIGNMENT=CALIGNED);
      698     7073        %VD$FILE_KEY;
      699     7122        %F$DCB;
      700     7179
      701     7180
      702     7181
      703     7182    2           IF STREAM.PORT$ = ADDR(NIL)
      704     7183    2             OR PORT.FILE_KEY = %CLEAR THEN
      705     7184    2              CALL VDG$ESCREECH;
      706     7185
      707     7186    2           IF OPTIONS.PROTECT# = %PROTECT
      708     7187    2             AND OPTIONS.EXIST# = %EX_NEW THEN
      709     7188    2              GOTO PROTECT_CONFLICTS_W_NEW_FAILURE;
      710     7189
      711     7190    2           STRUCTURE_SPEC$ = STRUCTURE.DESC.SPEC.V$;
      712     7191
PL6.E3A0      #001=VDA$FOPEN File=VDA$FILE.:VDA5TSI                              FRI 07/04/97 11:03 Page:21
      713     7192    2           IF PORT.EXIST# ~= 0 THEN
      714     7193    3   PORT_ALREADY_OPEN: DO;
      715     7194    3              IF OPTIONS.EXIST# = %EX_NEW THEN
      716     7195    3                 GOTO EXIST_CONFLICT_FAILURE;
      717     7196    3              END PORT_ALREADY_OPEN;
      718     7197
      719     7198    2           ELSE
      720     7199    3   OPEN_THE_PORT: DO;
      721     7200                   /*  Port is currently closed */
      722     7201    3              PORT_KEY$ = PORT.FILE_KEY.V$;
      723     7202    3              PORT_KEY_NAME$ = ADDR(PORT$KEY.UNIQUE.FNAME);
      724     7203
      725     7204                   /*
      726     7205                   *    See if file is internal or external; if internal, find it.
      727     7206                   */
      728     7207    3              FILE_NODE$ = ADDR(NIL);    /* Assume external file */
      729     7208    3              DIR_NODE$ = ADDR(NIL);
      730     7209    3              WHERE_TO_INSERT_NEW_FILE$ = ADDR(NIL);
      731     7210    3              FILE_STCLASS = PORT$KEY_NAME.BYTES;
      732     7211
      733     7212    3              IF PORT$KEY.DCB# = 0
      734     7213    3                AND PORT$KEY.PSN = ' ' AND PORT$KEY.UNIQUE.ACCT = ' '
      735     7214    3                AND FILE_STCLASS ~= %FSTCL_EXTERNAL
      736     7215    3                AND PORT$KEY_NAME.LENGTH# >= LENGTHC(FILE_STCLASS) +
      737     7216    3                %LENGTHC(PFK_CONSTANT)
      738     7217    3                AND SUBSTR(PORT$KEY_NAME.BYTES, LENGTHC(FILE_STCLASS),
      739     7218    3                %LENGTHC(PFK_CONSTANT)) = %PFK_CONSTANT THEN
      740     7219    4   TEST_FOR_INTERNAL: DO;
      741     7220    4                 CALL INDEX (PFN_INDEX, %CHR_UNDERSCORE, PORT$KEY_NAME.BYTES,
      742     7221    4                   LENGTHC(FILE_STCLASS) + %LENGTHC(PFK_CONSTANT));
      743     7222    4                 DIR_KEY = SUBSTR(PORT$KEY_NAME.BYTES,
      744     7223    4                   LENGTHC(FILE_STCLASS) + %LENGTHC(PFK_CONSTANT),
      745     7224    4                   PFN_INDEX - (LENGTHC(FILE_STCLASS) + %LENGTHC(PFK_CONSTANT)));
      746     7225    4                 DIR_NODE$ = VD_6E.WS.INTERNAL_DIR$;
      747     7226    4   FIND_INTERNAL_DIR_NODE:
      748     7227    5                 DO WHILE DIR_NODE$ ~= ADDR(NIL);
      749     7228    5                    IF DIR$NODE.KEY = DIR_KEY
PL6.E3A0      #001=VDA$FOPEN File=VDA$FILE.:VDA5TSI                              FRI 07/04/97 11:03 Page:22
      750     7229    6                      AND FILE_STCLASS = DIR$NODE.FILE_STCLASS THEN DO;
      751     7230    6                       FILE_NODE$ = DIR$NODE.HEAD$;
      752     7231    6                       EXIT FIND_INTERNAL_DIR_NODE;
      753     7232    6                       END;
      754     7233    5                    DIR_NODE$ = DIR$NODE.FLINK$;
      755     7234    5                    END FIND_INTERNAL_DIR_NODE;
      756     7235
      757     7236    4   FIND_INTERNAL_FILE_NODE:
      758     7237    5                 DO WHILE FILE_NODE$ ~= ADDR(NIL);
      759     7238    6                    IF FILE$NODE.DESC.KEY ~= %CLEAR THEN DO;
      760     7239    6                       FILE_NODE_KEY_NAME$ = ADDR(FILE$NODE.DESC.KEY.V$ ->
      761     7240    6                         VD$FILE_KEY.UNIQUE.FNAME);
      762     7241    6                       IF FILE$NODE_KEY_NAME.BYTES = PORT$KEY_NAME.BYTES THEN
      763     7242    6                          EXIT FIND_INTERNAL_FILE_NODE;
      764     7243    7                       IF FILE$NODE_KEY_NAME.BYTES < PORT$KEY_NAME.BYTES THEN DO;
      765     7244                            /* File not found, but this is where it would go */
      766     7245    7                          WHERE_TO_INSERT_NEW_FILE$ = FILE_NODE$;
      767     7246    7                          FILE_NODE$ = ADDR(NIL);
      768     7247    7                          EXIT FIND_INTERNAL_FILE_NODE;
      769     7248    7                          END;
      770     7249    6                       END;
      771     7250    5                    FILE_NODE$ = FILE$NODE.FLINK$;
      772     7251    5                    END FIND_INTERNAL_FILE_NODE;
      773     7252    4                 END TEST_FOR_INTERNAL;
      774     7253
      775     7254                /*
      776     7255                *    At this point:
      777     7256                *    If we found the file internally, FILE_NODE$ points to it.
      778     7257                *    If we didn't find it:
      779     7258                *        DIR_NODE$ points to the directory in which it
      780     7259                *            belongs (=NIL if it belongs external);
      781     7260                *        WHERE_TO_INSERT_NEW_FILE$ points to the file
      782     7261                *            before which the file should appear (=NIL if
      783     7262                *            the file should appear at the end of the
      784     7263                *            directory).
      785     7264                *        If this is a create-open, then create
      786     7265                *        the file internal; if not a create-open, then look
PL6.E3A0      #001=VDA$FOPEN File=VDA$FILE.:VDA5TSI                              FRI 07/04/97 11:03 Page:23
      787     7266                *        for the file external.
      788     7267                */
      789     7268
      790     7269    3              IF FILE_NODE$ ~= ADDR(NIL)
      791     7270    3                OR (DIR_NODE$ ~= ADDR(NIL)
      792     7271    3                AND (OPTIONS.EXIST# = %EX_NEW
      793     7272    4                OR OPTIONS.EXIST# = %EX_ANY)) THEN DO;
      794     7273    4                 CALL OPEN_THE_PORT_INTERNAL (FILE_NODE$,
      795     7274    4                   WHERE_TO_INSERT_NEW_FILE$, DIR$NODE)
      796     7275    4                   ALTRET (OPEN_THE_PORT_INTERNAL_FAILED);
      797     7276    4                 END;
      798     7277    4              ELSE DO;
      799     7278    4                 CALL OPEN_THE_PORT_EXTERNAL
      800     7279    4                   ALTRET (OPEN_THE_PORT_EXTERNAL_FAILED);
      801     7280    4                 END;
      802     7281    3              END OPEN_THE_PORT;
      803     7282
      804     7283
      805     7284                /*
      806     7285                *  Stream's port is now open.
      807     7286                *  Merge info from Structure and port into stream.
      808     7287                */
      809     7288    2           STRUCTURE_LEVEL_NODE$ = STRUCTURE.HEAD$;
      810     7289    2           ENTIRE_STRUCTURE_PROTECTED = %TRUE; /* Assume no holes */
      811     7290    2           CONSEC_BY_ACCIDENT = %FALSE;    /* Assume user knows */
      812     7291    3           DO LEVEL = %LVL_FILE TO STRUCTURE.COUNT# - 1;
      813     7292    3              STRUCTURE_LEVEL$ = STRUCTURE$LEVEL_NODE.DESC.SPEC.V$;
      814     7293
      815     7294    3              IF PORT.LEVEL.ORG# (LEVEL) = %ORG_CONSEC
      816     7295    3                AND STRUCTURE$LEVEL.ORG# ~= %ORG_CONSEC THEN
      817     7296    3                 CONSEC_BY_ACCIDENT = %TRUE;
      818     7297
      819     7298    3              STREAM.PROTECT (LEVEL) =
      820     7299    3                PROTECT_FLAGS_FOR_BOOL (BITBIN(PORT.INTRINSIC_PROTECT)) |
      821     7300    3                PROTECT_FLAGS_FOR_OPTION (OPTIONS.PROTECT#) |
      822     7301    3                STRUCTURE$LEVEL.PROTECT;
      823     7302    3              IF VD_ACCESSOR_PRIV.ACCESS (%NAC_WRITE)
PL6.E3A0      #001=VDA$FOPEN File=VDA$FILE.:VDA5TSI                              FRI 07/04/97 11:03 Page:24
      824     7303    3                AND VD_ACCESSOR_PRIV.ACCESS (%NAC_DELETE) THEN
      825     7304    3                 STREAM.PROTECT (LEVEL) = %CLEAR;
      826     7305
      827     7306    3              IF STRUCTURE$LEVEL.PROTECT ~= %CO_ALL_BITS THEN
      828     7307    3                 ENTIRE_STRUCTURE_PROTECTED = %FALSE;
      829     7308
      830     7309    3              STRUCTURE_LEVEL_NODE$ = STRUCTURE$LEVEL_NODE.FLINK$;
      831     7310    3              END;
      832     7311
      833     7312    2           IF OPTIONS.PROTECT# = %DONT_PROTECT
      834     7313    2             AND (PORT.INTRINSIC_PROTECT OR ENTIRE_STRUCTURE_PROTECTED)
      835     7314    2             AND NOT (PORT.DCB# = 0 AND VD_ACCESSOR_PRIV.ACCESS (%NAC_WRITE)
      836     7315    3             AND VD_ACCESSOR_PRIV.ACCESS (%NAC_DELETE)) THEN DO;
      837     7316    3              CALL SET_ERROR_WARN (%E$CANT_WRITE);
      838     7317    3              IF PORT.DCB#~=0 THEN
      839     7318    3                 IF DCBADDR(PORT.DCB#) -> F$DCB.FUN# = %IN# THEN
      840     7319    3                    VD$ERR.ERR.CODE# = %E$VD_FILEBUSY;
      841     7320    3              CALL VDG$EREPORT_ERROR;
      842     7321    3              CONSEC_BY_ACCIDENT = %FALSE; /* Don't warn twice */
      843     7322    3              END;
      844     7323
      845     7324    2           IF CONSEC_BY_ACCIDENT
      846     7325    3             AND OPTIONS.PROTECT# ~= %PROTECT THEN DO;
      847     7326                   /*
      848     7327                   *   File actually opened is consec, but user requested
      849     7328                   *    it via an org-less Structure, meaning open any
      850     7329                   *    file by that name no matter what org, or a Structure
      851     7330                   *    specifying some other org.  If the user
      852     7331                   *    thinks they can insert or delete records, they're
      853     7332                   *    sadly mistaken:  warn them.
      854     7333                   */
      855     7334    3              CALL SET_ERROR_WARN (%E$CANT_INSERT_DELETE_RECORDS);
      856     7335    3              CALL VDG$EREPORT_ERROR;
      857     7336    3              END;
      858     7337
      859     7338
      860     7339                /*
PL6.E3A0      #001=VDA$FOPEN File=VDA$FILE.:VDA5TSI                              FRI 07/04/97 11:03 Page:25
      861     7340                *   Stream open! Finally!
      862     7341                */
      863     7342
      864     7343    2           STREAM.LAST_OP# = %ACCOP_OPEN;
      865     7344
      866     7345    2           IF VD_$$MON_ACC.V# > 0 THEN
      867     7346    2              CALL VDG$MACC_RETURN (STREAM);
      868     7347    2           RETURN;
      869     7348
      870     7349
      871     7350
      872     7351    2   PROTECT_CONFLICTS_W_NEW_FAILURE:
      873     7352    2           CALL SET_ERROR_SERIOUS (%E$PROTECT_CONFLICTS_W_NEW);
      874     7353    2           ALTRETURN;
      875     7354
      876     7355
      877     7356    2   EXIST_CONFLICT_FAILURE:
      878     7357    2           CALL SET_ERROR_SERIOUS (%E$VD_CREATERR);
      879     7358    2           ALTRETURN;
      880     7359
      881     7360
      882     7361    2   OALLOC_FAILED: ;
      883     7362    2   OPEN_THE_PORT_INTERNAL_FAILED: ;
      884     7363    2   OPEN_THE_PORT_EXTERNAL_FAILED: ;
      885     7364    2           ALTRETURN;
      886     7365
      887     7366        %BOX (TITLE=OPEN_THE_PORT_INTERNAL, PAGE=YES);
              7374    2
              7378    2   /***************************************************************************
              7380    2    *                                                                         *
              7384    2            *                           OPEN_THE_PORT_INTERNAL                        *
              7386    2            *                                                                         *
              7388    2           ***************************************************************************/

      888     7392
      889     7393        /*I* NAME: OPEN_THE_PORT_INTERNAL
      890     7394            PARAMETERS:
PL6.E3A0      #001=VDA$FOPEN File=VDA$FILE.:VDA5TSI                              FRI 07/04/97 11:03 Page:26
      891     7395                FILE_NODE$ - Points to the VD$FILE_NODE at the file level
      892     7396                    of the internal file we're opening to.  For a create
      893     7397                    open, this must be ADDR(NIL).
      894     7398                INSERT_NODE$ - For a create open, points to the VD$FILE_NODE
      895     7399                    in front of which (in the directory) we should insert the
      896     7400                    file being created; if we should insert the new file at
      897     7401                    the end of the directory, and for non-create opens,
      898     7402                    INSERT_NODE$ must be ADDR(NIL).
      899     7403                DIR_NODE - If this is a create-open, DIR_NODE must be the
      900     7404                    node for the directory in which the file belongs.  Ignored
      901     7405                    for non-create opens.
      902     7406            INPUT:
      903     7407                PORT must be the Port to use; it must currently be closed.
      904     7408                OPTIONS must be the options to use.
      905     7409                STRUCTURE$SPEC must be the VD$STRUCTURE_SPEC to use.
      906     7410            OUTPUT:
      907     7411                PORT's DCB, if any, will be detached.
      908     7412                FILE_NODE$ - If this is a create-open, will point to the
      909     7413                    level-0 FileNode created for the file and inserted into
      910     7414                    DIR_NODE's directory.
      911     7415                PORT.LAST_OP, .EXIST, and .INTRINSIC_PROTECT will be
      912     7416                    set appropriately.
      913     7417                PORT.FIT$ will point to a copy of the file's FIT, if any.
      914     7418                PORT.LEVEL.ORGs, .KEY_TYPEs, and .SPEC_TYPEs will be set from the
      915     7419                    Structure and/or the file actually opened.
      916     7420                PORT.LEVEL.SPEC, .DATA$, and .INTERNAL$ at the file level will
      917     7421                    be set appropriately.
      918     7422            DESCRIPTION:
      919     7423                Free any DCB attached to the port.
      920     7424                If this is a create-open, build the level-0 FileNode and
      921     7425                    insert it into the file tree.
      922     7426                Set values in the port based on the file opened.
      923     7427        */
      924     7428
      925     7429    2   OPEN_THE_PORT_INTERNAL: PROC (FILE_NODE$, INSERT_NODE$, DIR_NODE) ALTRET;
      926     7430
      927     7431    3   DCL FILE_NODE$ PTR;
PL6.E3A0      #001=VDA$FOPEN File=VDA$FILE.:VDA5TSI                              FRI 07/04/97 11:03 Page:27
      928     7432    3   DCL INSERT_NODE$ PTR;
      929     7433        %VD$DIR_NODE (NAME=DIR_NODE, STCLASS=PARAM);
      930     7471
      931     7472
      932     7473
      933     7474        %VD$FILE_NODE (NAME=FILE$NODE, STCLASS="BASED(FILE_NODE$)");
      934     7567        %VD$FILE_NODE (NAME=INSERT$NODE, STCLASS="BASED(INSERT_NODE$)");
      935     7660        %VD$FIT;
      936     7696
      937     7697
      938     7698
      939     7699                %INCREMENT (INDX=%STG_OPEN_INT_FILE);
      940     7702
      941     7703    4           IF PORT.DCB# ~= 0 THEN DO;
      942     7704                   /* Free the DCB attached to this port */
      943     7705    4              CALL VDG$OFREE_DCB (PORT.DCB#)
      944     7706    4                ALTRET (OFREE_DCB_FAILED);
      945     7707    4              END;
      946     7708
      947     7709                /*
      948     7710                *   If this is a create-open, build the level-0 FileNode
      949     7711                *       and insert it into the file tree.
      950     7712                */
      951     7713
      952     7714    3           IF FILE_NODE$ = ADDR(NIL) THEN
      953     7715    4   CREATE_INTERNAL_FILE: DO;
      954     7716    4              CALL VDG$OALLOC (%CLS_FILE_NODE, FILE_NODE$)
      955     7717    4                ALTRET (OALLOC_FAILED);
      956     7718    4              FILE$NODE.DESC.KEY = PORT.FILE_KEY;
      957     7719    5              IF FILE$NODE.DESC.KEY.REP# = %REP_REMOTE THEN DO;
      958     7720    5                 CALL VDG$OCOPY (PORT.FILE_KEY.V$ -> VD$FILE_KEY,
      959     7721    5                   FILE$NODE.DESC.KEY.V$)
      960     7722    5                   ALTRET (OCOPY_FAILED);
      961     7723    5                 END;
      962     7724                   /* Give user full access to this file */
      963     7725    4              FILE$NODE.ACCESS = %NAC_ALL_BITS;
      964     7726
PL6.E3A0      #001=VDA$FOPEN File=VDA$FILE.:VDA5TSI                              FRI 07/04/97 11:03 Page:28
      965     7727                   /* Link FILE$NODE into the file tree */
      966     7728    4              IF INSERT_NODE$ = ADDR(NIL) THEN
      967     7729    4                 FILE$NODE.BLINK$ = DIR_NODE.TAIL$;
      968     7730    4              ELSE
      969     7731    4                 FILE$NODE.BLINK$ = INSERT$NODE.BLINK$;
      970     7732    4              IF FILE$NODE.BLINK$ = ADDR(NIL) THEN
      971     7733    4                 DIR_NODE.HEAD$ = FILE_NODE$;
      972     7734    4              ELSE
      973     7735    4                 FILE$NODE.BLINK$->VD$FILE_NODE.FLINK$ = FILE_NODE$;
      974     7736    4              FILE$NODE.FLINK$ = INSERT_NODE$;
      975     7737    4              IF FILE$NODE.FLINK$ = ADDR(NIL) THEN
      976     7738    4                 DIR_NODE.TAIL$ = FILE_NODE$;
      977     7739    4              ELSE
      978     7740    4                 FILE$NODE.FLINK$->VD$FILE_NODE.BLINK$ = FILE_NODE$;
      979     7741    4              DIR_NODE.COUNT# = DIR_NODE.COUNT# + 1;
      980     7742    4              END CREATE_INTERNAL_FILE;
      981     7743
      982     7744                /* Now we're actually open to the file! Record this fact */
      983     7745    3           PORT.LAST_OP# = %ACCOP_OPEN;
      984     7746    3           PORT.EXIST# = OPTIONS.EXIST#;
      985     7747    3           PORT.LEVEL.INTERNAL$ (%LVL_FILE) = FILE_NODE$;
      986     7748    3           IF (FILE$NODE.ACCESS | VD_ACCESSOR_PRIV) = %CLEAR THEN
      987     7749    3              PORT.INTRINSIC_PROTECT = %TRUE;
      988     7750
      989     7751    3           PORT.LEVEL.SPEC (%LVL_FILE) = FILE$NODE.DESC.SPEC;
      990     7752    4           IF PORT.LEVEL.SPEC.REP# (%LVL_FILE) = %REP_REMOTE THEN DO;
      991     7753    4              CALL VDG$OCOPY (FILE$NODE.DESC.SPEC.V$ -> VD$TEXTC_REMOTE,
      992     7754    4                PORT.LEVEL.SPEC.V$ (%LVL_FILE))
      993     7755    4                ALTRET (OCOPY_FAILED);
      994     7756    4              END;
      995     7757
      996     7758    4           IF FILE$NODE.DESC.DATA$ ~= ADDR(NIL) THEN DO;
      997     7759    4              CALL VDG$OCOPY (FILE$NODE.DESC.DATA$ -> VD$BUFFER,
      998     7760    4                PORT.LEVEL.DATA$ (%LVL_FILE))
      999     7761    4                ALTRET (OCOPY_FAILED);
     1000     7762    4              END;
     1001     7763
PL6.E3A0      #001=VDA$FOPEN File=VDA$FILE.:VDA5TSI                              FRI 07/04/97 11:03 Page:29
     1002     7764                /*
     1003     7765                *  Merge info from STRUCTURE into PORT.
     1004     7766                */
     1005     7767    3           PORT.STRUCTURE$ = OPTIONS.STRUCTURE$;
     1006     7768    4           IF STRUCTURE$SPEC.FIT$ ~= ADDR(NIL) THEN DO;
     1007     7769    4              CALL VDG$OCOPY (STRUCTURE$SPEC.FIT$->VD$FIT, PORT.FIT$)
     1008     7770    4                ALTRET (OCOPY_FAILED);
     1009     7771    4              END;
     1010     7772    3           STRUCTURE_LEVEL_NODE$ = STRUCTURE.HEAD$;
     1011     7773    4           DO LEVEL = %LVL_FILE TO STRUCTURE.COUNT# - 1;
     1012     7774    4              STRUCTURE_LEVEL$ = STRUCTURE$LEVEL_NODE.DESC.SPEC.V$;
     1013     7775    4              PORT.LEVEL.ORG# (LEVEL) = STRUCTURE$LEVEL.ORG#;
     1014     7776    4              PORT.LEVEL.KEY_TYPE# (LEVEL) = STRUCTURE$LEVEL.KEY_TYPE#;
     1015     7777    4              PORT.LEVEL.SPEC_TYPE# (LEVEL) = STRUCTURE$LEVEL.SPEC_TYPE#;
     1016     7778    4              IF PORT.LEVEL.ORG# (LEVEL) = 0 THEN
     1017     7779    4                 PORT.LEVEL.ORG# (LEVEL) = %ORG_KEYED;
     1018     7780    5              IF PORT.LEVEL.KEY_TYPE# (LEVEL) = 0 THEN DO;
     1019     7781    5                 IF LEVEL = %LVL_FILE THEN
     1020     7782    5                    PORT.LEVEL.KEY_TYPE# (LEVEL) = %KT_STRING;
     1021     7783    5                 ELSE
     1022     7784    5                    PORT.LEVEL.KEY_TYPE# (LEVEL) = %KT_NUMBER;
     1023     7785    5                 END;
     1024     7786    4              STRUCTURE_LEVEL_NODE$ = STRUCTURE$LEVEL_NODE.FLINK$;
     1025     7787    4              END;
     1026     7788
     1027     7789    3           RETURN;
     1028     7790
     1029     7791
     1030     7792
     1031     7793    3   OALLOC_FAILED: ;
     1032     7794    3   OFREE_DCB_FAILED: ;
     1033     7795    3   OCOPY_FAILED: ;
     1034     7796    3           ALTRETURN;
     1035     7797
     1036     7798    3   END OPEN_THE_PORT_INTERNAL;
     1037     7799
     1038     7800        %BOX (TITLE=OPEN_THE_PORT_EXTERNAL, PAGE=YES);
PL6.E3A0      #001=VDA$FOPEN File=VDA$FILE.:VDA5TSI                              FRI 07/04/97 11:03 Page:30
              7808    3
              7812    3   /***************************************************************************
              7814    3    *                                                                         *
              7818    3            *                           OPEN_THE_PORT_EXTERNAL                        *
              7820    3            *                                                                         *
              7822    3           ***************************************************************************/

     1039     7826
     1040     7827        /*I* NAME: OPEN_THE_PORT_EXTERNAL
     1041     7828            PARAMETERS:
     1042     7829                None.
     1043     7830            INPUT:
     1044     7831                STREAM must be the stream to use.
     1045     7832                PORT is the port to use; it must be closed.
     1046     7833                STRUCTURE$SPEC must be the VD$STRUCTURE_SPEC to use.
     1047     7834            OUTPUT:
     1048     7835                PORT will have a DCB attached.  If no errors are found,
     1049     7836                    the DCB will be open to the file.
     1050     7837                PORT.LAST_OP, .EXIST, and .INTRINSIC_PROTECT will be
     1051     7838                    set appropriately.
     1052     7839                PORT.FIT$ will point to a copy of the file's FIT.
     1053     7840                PORT.LEVEL.ORGs, .KEY_TYPEs, and .SPEC_TYPEs will be set from the
     1054     7841                    Structure and/or the file actually opened (based on info
     1055     7842                    from the monitor).
     1056     7843            DESCRIPTION:
     1057     7844                Attach a DCB to the port.
     1058     7845                Build the M$OPEN FPT, and open the file.
     1059     7846                Check for correct ASN and file organization.
     1060     7847                Set values in the port from the DCB and the file's FIT.
     1061     7848        */
     1062     7849
     1063     7850    2   OPEN_THE_PORT_EXTERNAL: PROC ALTRET;
     1064     7851
     1065     7852        %FPT_OPEN (FPTN=CONST_FPT_OPEN, STCLASS=CONSTANT,
     1066     7853                ACS=DIRECT, CTG=YES, DISP=NAMED);
     1067     7962
     1068     7963
PL6.E3A0      #001=VDA$FOPEN File=VDA$FILE.:VDA5TSI                              FRI 07/04/97 11:03 Page:31
     1069     7964        /*
     1070     7965        *   The following tables are used only if OPTIONS.PROTECT# = %FALSE.
     1071     7966        *   These tables use %EX_ definitions as the subscript into the table;
     1072     7967        *       we assume %EX_NEW = 1, %EX_OLD = 2, %EX_ANY = 3.
     1073     7968        */
     1074     7969    3   DCL OPEN_FUNCTION (0:7) UBIN BYTE CALIGNED CONSTANT
     1075     7970    3       INIT(0, %CREATE#, %UPDATE#, %CREATE#, 0*0);
     1076     7971    3   DCL OPEN_EXIST (0:7) UBIN BYTE CALIGNED CONSTANT
     1077     7972    3       INIT(0, %ERROR#, 0, %OLDFILE#, 0*0);
     1078     7973
     1079     7974
     1080     7975        /*
     1081     7976        *   The following tables are accessed using %ORG_ definitions as
     1082     7977        *       the subscript into the table.  We assume
     1083     7978        *       %ORG_CONSEC = 1, %ORG_KEYED = 2, %ORG_INDEXED = 3.
     1084     7979        */
     1085     7980    3   DCL OPEN_ORG (0:7) UBIN BYTE CALIGNED CONSTANT
     1086     7981    3       INIT(%KEYED#,   /* Entry 0 is default: Structure specifies no org */
     1087     7982    3               %CONSEC#, %KEYED#, %INDEXED#, 0*0);
     1088     7983    3   DCL DEFAULT_KEY_TYPES_FOR_ORGS (0:7) UBIN HALF HALIGNED CONSTANT
     1089     7984    3       INIT(0, %KT_NUMBER, %KT_EDITKEY, %KT_STRING, 0*0);
     1090     7985
     1091     7986
     1092     7987        %FPT_PFIL (BOF=YES, STCLASS=STATIC);
     1093     8002
     1094     8003
     1095     8004
     1096     8005    3   DCL PORT_KEY$ PTR;
     1097     8006    3   DCL EXT_DCB$ PTR;
     1098     8007    3   DCL DCB_ORG UBIN BYTE;
     1099     8008    3   DCL PORT_FIT$ PTR;
     1100     8009        %FPT_OPEN (STCLASS=AUTO);
     1101     8118        %VLP_SN (STCLASS=AUTO);
     1102     8131
     1103     8132
     1104     8133        %VD$FILE_KEY (NAME=PORT$KEY, STCLASS="BASED(PORT_KEY$)");
     1105     8182        %F$DCB (DCBN=EXT$DCB, STCLASS="BASED(EXT_DCB$)");
PL6.E3A0      #001=VDA$FOPEN File=VDA$FILE.:VDA5TSI                              FRI 07/04/97 11:03 Page:32
     1106     8239        %VD$FIT (NAME=PORT$FIT, STCLASS="BASED(PORT_FIT$)");
     1107     8275
     1108     8276
     1109     8277
     1110     8278                %INCREMENT (INDX=%STG_OPEN_EXT_FILE);
     1111     8281
     1112     8282                /* Get ptr to VD$STRUCTURE_LEVEL for level %LVL_EXT_REC (=1) */
     1113     8283    3           STRUCTURE_LEVEL_NODE$ = STRUCTURE.HEAD$->VD$FILE_NODE.FLINK$;
     1114     8284    3           STRUCTURE_LEVEL$ = STRUCTURE$LEVEL_NODE.DESC.SPEC.V$;
     1115     8285
     1116     8286    3           FPT_OPEN = CONST_FPT_OPEN;
     1117     8287    3           FPT_OPEN.V_ = VECTOR(FPT_OPEN.V);
     1118     8288
     1119     8289    3           PORT_KEY$ = PORT.FILE_KEY.V$;
     1120     8290
     1121     8291    3           IF PORT$KEY.DCB# = 0 THEN
     1122     8292    4   OPEN_TO_FID: DO;
     1123     8293                   /* First, make sure we have a DCB */
     1124     8294    5              IF PORT.DCB# = 0 THEN DO;
     1125     8295    5                 CALL VDG$OALLOC_DCB (PORT.DCB#)
     1126     8296    5                   ALTRET (OALLOC_DCB_FAILED);
     1127     8297    5                 END;
     1128     8298
     1129     8299                   /* Set the FPT's SCRUB and fid fields */
     1130     8300    4              FPT_OPEN.V.INITZ.SCRUB# = %TRUE;
     1131     8301    4              FPT_OPEN.NAME_ = VECTOR(PORT$KEY.UNIQUE.FNAME);
     1132     8302    4              FPT_OPEN.ACCT_ = VECTOR(PORT$KEY.UNIQUE.ACCT);
     1133     8303    4              FPT_OPEN.V.ASN# = PORT$KEY.ASN#;
     1134     8304    4              FPT_OPEN.V.RES# = PORT$KEY.RES;
     1135     8305    4              VLP_SN = %CLEAR;
     1136     8306    4              VLP_SN.NUM# = 1;
     1137     8307    4              VLP_SN.SN# (0) = PORT$KEY.PSN;
     1138     8308    4              FPT_OPEN.SN_ = VECTOR(VLP_SN);
     1139     8309    4              FPT_OPEN.PASS_ = VECTOR(PORT$KEY.PASS);
     1140     8310
     1141     8311                   /*
     1142     8312                   *  If this is a create open, merge params from the
PL6.E3A0      #001=VDA$FOPEN File=VDA$FILE.:VDA5TSI                              FRI 07/04/97 11:03 Page:33
     1143     8313                   *      Structure into the FPT.
     1144     8314                   */
     1145     8315    5              IF OPTIONS.EXIST# ~= %EX_OLD THEN DO;
     1146     8316    6                 IF STRUCTURE$SPEC.FIT$ ~= ADDR(NIL) THEN DO;
     1147     8317    6                    FPT_OPEN.IFPARAM_ =
     1148     8318    6                      VECTOR(STRUCTURE$SPEC.FIT$ -> PORT$FIT.FIT);
     1149     8319    6                    END;
     1150     8320    5                 FPT_OPEN.V.ORG# = OPEN_ORG (STRUCTURE$LEVEL.ORG#);
     1151     8321    5                 FPT_OPEN.V.TYPE# = VD_$FILETYPE.BYTES;
     1152     8322    5                 END;
     1153     8323
     1154     8324                   /*
     1155     8325        *N**N**N*  *   Other FPT_OPEN parameters to consider (these can't be
     1156     8326        *N**N**N*  *      set via IFPARM):
     1157     8327        *N**N**N*  *   COMP - only for create consec|keyed unencrypted disk file
     1158     8328        *N**N**N*  *   EXPIRE - only for create file
     1159     8329        *N**N**N*  *   HDR - only for create UR file
     1160     8330        *N**N**N*  *   LOAD - only for create alternate-indexed file
     1161     8331        *N**N**N*  *   SEED (on FPT_READ/FPT_WRITE) - only for non-indexed
     1162     8332        *N**N**N*  *       non-compressed disk file
     1163     8333        *N**N**N*  *   These values should be set by the user the same way
     1164     8334        *N**N**N*  *       s/he sets/examines [I]FPARAM:  via a forms-mode
     1165     8335        *N**N**N*  *       window.  The value given by the user should probably
     1166     8336        *N**N**N*  *       go into VD$STRUCTURE_LEVEL.
     1167     8337                   */
     1168     8338
     1169     8339    4              END OPEN_TO_FID;
     1170     8340
     1171     8341    4           IF OPTIONS.PROTECT# = %PROTECT THEN DO;
     1172     8342    4              FPT_OPEN.V.FUN# = %IN#;
     1173     8343    4              FPT_OPEN.V.EXIST# = 0;
     1174     8344    4              END;
     1175     8345    4           ELSE DO;
     1176     8346    4              FPT_OPEN.V.FUN# = OPEN_FUNCTION (OPTIONS.EXIST#);
     1177     8347    4              FPT_OPEN.V.EXIST# = OPEN_EXIST (OPTIONS.EXIST#);
     1178     8348    4              END;
     1179     8349
PL6.E3A0      #001=VDA$FOPEN File=VDA$FILE.:VDA5TSI                              FRI 07/04/97 11:03 Page:34
     1180     8350
     1181     8351    3           CALL VDG$OALLOC (%CLS_FIT, PORT.FIT$)
     1182     8352    3             ALTRET (OALLOC_FAILED);
     1183     8353    3           FPT_OPEN.FPARAM_ = VECTOR(PORT.FIT$->PORT$FIT.FIT);
     1184     8354    3           FPT_OPEN.V.DCB# = PORT.DCB#;
     1185     8355    3           IF VD_$$MON_ACC.V# > 10 THEN
     1186     8356    3              CALL VDG$MACC_FOPEN_OPEN (FPT_OPEN.V.DCB#, PORT_KEY$);
     1187     8357    3           CALL M$OPEN (FPT_OPEN)
     1188     8358    4           WHENALTRETURN DO;
     1189     8359    4              IF FPT_OPEN.V.FUN# ~= %UPDATE# THEN GOTO OPEN_FAILED;
     1190     8360    4              FPT_OPEN.V.FUN# = %IN#;
     1191     8361    4              CALL M$RETRY;
     1192     8362    4              END;
     1193     8363
     1194     8364                /* Now we're actually open to the file! Record this fact */
     1195     8365    3           PORT.LAST_OP# = %ACCOP_OPEN;
     1196     8366    3           PORT.EXIST# = OPTIONS.EXIST#;
     1197     8367
     1198     8368    3           EXT_DCB$ = DCBADDR(PORT.DCB#);
     1199     8369    3           IF EXT$DCB.ASN# ~= %FILE# THEN
     1200     8370    3              GOTO BAD_FILE_ASN_FAILURE;
     1201     8371    3           IF (NOT EXT$DCB.FFLG.DELR#) OR (NOT EXT$DCB.FFLG.UPD#)
     1202     8372    4             OR (NOT EXT$DCB.FFLG.WNEW#) THEN DO;
     1203     8373    4              PORT.INTRINSIC_PROTECT = %TRUE;
     1204     8374    4              END;
     1205     8375
     1206     8376                /*
     1207     8377                *   Merge info from Structure and the DCB into PORT.
     1208     8378                */
     1209     8379
     1210     8380    3           PORT.STRUCTURE$ = OPTIONS.STRUCTURE$;
     1211     8381
     1212     8382    4           DO CASE (EXT$DCB.ORG#);
     1213     8383    4            CASE (%CONSEC#, %UR#);
     1214     8384    4              DCB_ORG = %ORG_CONSEC;
     1215     8385    5              IF OPTIONS.EXIST# ~= %EX_NEW THEN DO;
     1216     8386                      /* Rewind the file to BOF */
PL6.E3A0      #001=VDA$FOPEN File=VDA$FILE.:VDA5TSI                              FRI 07/04/97 11:03 Page:35
     1217     8387    5                 FPT_PFIL.V.DCB# = PORT.DCB#;
     1218     8388    5                 CALL M$PFIL (FPT_PFIL)
     1219     8389    5                   ALTRET (PFIL_FAILED);
     1220     8390                      /* DCB is now positioned at first record */
     1221     8391    5                 PORT.CURRENT.KEY (%LVL_EXT_REC-1) = VD_KEY_FIRST_CONSEC_REC;
     1222     8392    5                 END;
     1223     8393    4            CASE (%KEYED#);
     1224     8394    4              DCB_ORG = %ORG_KEYED;
     1225     8395    4            CASE (%INDEXED#, %IREL#);
     1226     8396    4              DCB_ORG = %ORG_INDEXED;
     1227     8397    4              GOTO BAD_FILE_ORG_FAILURE;   /*N* Remove eventually */
     1228     8398    4            CASE (ELSE);
     1229     8399    4              GOTO BAD_FILE_ORG_FAILURE;
     1230     8400    4            END;
     1231     8401
     1232     8402    3           PORT_FIT$ = PORT.FIT$;
     1233     8403    3           PORT$FIT.CODE2$ = ADDR(PORT$FIT.FIT);
     1234     8404    3           PORT$FIT.CODE3$ = ADDR(PORT$FIT.FIT);
     1235     8405    3           CALL XSF$LOCCODT (PORT$FIT.CODE2$, 2)
     1236     8406    4           WHENALTRETURN DO;
     1237     8407    4              PORT$FIT.CODE2$ = ADDR(NIL);
     1238     8408    4              END;
     1239     8409    3           CALL XSF$LOCCODT (PORT$FIT.CODE3$, 3)
     1240     8410    4           WHENALTRETURN DO;
     1241     8411    4              PORT$FIT.CODE3$ = ADDR(NIL);
     1242     8412    4              END;
     1243     8413
     1244     8414    3           PORT.LEVEL.ORG# (%LVL_EXT_REC) = STRUCTURE$LEVEL.ORG#;
     1245     8415    3           IF STRUCTURE$LEVEL.ORG# = 0 THEN
     1246     8416    3              PORT.LEVEL.ORG# (%LVL_EXT_REC) = DCB_ORG;
     1247     8417    4           ELSE DO;
     1248     8418    4              IF STRUCTURE$LEVEL.ORG# ~= DCB_ORG THEN
     1249     8419    4                 GOTO ORG_CONFLICT_FAILURE;
     1250     8420    4              END;
     1251     8421
     1252     8422    3           PORT.LEVEL.KEY_TYPE# (%LVL_EXT_REC) = STRUCTURE$LEVEL.KEY_TYPE#;
     1253     8423    3           IF STRUCTURE$LEVEL.KEY_TYPE# = 0 THEN
PL6.E3A0      #001=VDA$FOPEN File=VDA$FILE.:VDA5TSI                              FRI 07/04/97 11:03 Page:36
     1254     8424    3              PORT.LEVEL.KEY_TYPE# (%LVL_EXT_REC) =
     1255     8425    3                DEFAULT_KEY_TYPES_FOR_ORGS (PORT.LEVEL.ORG# (%LVL_EXT_REC));
     1256     8426    3           IF PORT.LEVEL.ORG# (%LVL_EXT_REC) = %ORG_CONSEC
     1257     8427    3             AND PORT.LEVEL.KEY_TYPE# (%LVL_EXT_REC) ~= %KT_NUMBER THEN
     1258     8428    3              GOTO ORG_KEYTYPE_CONFLICT_FAILURE;
     1259     8429
     1260     8430    3           PORT.LEVEL.SPEC_TYPE# (%LVL_EXT_REC) = STRUCTURE$LEVEL.SPEC_TYPE#;
     1261     8431
     1262     8432    3           RETURN;
     1263     8433
     1264     8434
     1265     8435
     1266     8436    3   OPEN_FAILED:
     1267     8437    3           CALL SET_ERROR_SERIOUS (B$TCB);
     1268     8438    3           ALTRETURN;
     1269     8439
     1270     8440
     1271     8441    3   BAD_FILE_ASN_FAILURE:
     1272     8442    3           CALL SET_ERROR_SERIOUS (%E$FILE_ASN_NOT_ACCESSABLE);
     1273     8443    3           ALTRETURN;
     1274     8444
     1275     8445
     1276     8446    3   PFIL_FAILED:
     1277     8447    3           CALL SET_ERROR_SERIOUS (B$TCB);
     1278     8448    3           ALTRETURN;
     1279     8449
     1280     8450
     1281     8451    3   BAD_FILE_ORG_FAILURE:
     1282     8452    3           CALL SET_ERROR_SERIOUS (%E$FILE_ORG_NOT_ACCESSABLE);
     1283     8453    3           ALTRETURN;
     1284     8454
     1285     8455
     1286     8456    3   ORG_CONFLICT_FAILURE:
     1287     8457    3           CALL SET_ERROR_SERIOUS (%E$ORG_CONFLICT);
     1288     8458    3           ALTRETURN;
     1289     8459
     1290     8460
PL6.E3A0      #001=VDA$FOPEN File=VDA$FILE.:VDA5TSI                              FRI 07/04/97 11:03 Page:37
     1291     8461    3   ORG_KEYTYPE_CONFLICT_FAILURE:
     1292     8462    3           CALL SET_ERROR_SERIOUS (%E$ORG_KEYTYPE_CONFLICT);
     1293     8463    3           ALTRETURN;
     1294     8464
     1295     8465
     1296     8466    3   OALLOC_FAILED: ;
     1297     8467    3   OALLOC_DCB_FAILED: ;
     1298     8468    3   OFREE_FAILED: ;
     1299     8469    3   OFREE_DCB_FAILED: ;
     1300     8470    3           ALTRETURN;
     1301     8471
     1302     8472    3   END OPEN_THE_PORT_EXTERNAL;
     1303     8473
     1304     8474    2   END FILE_LEVEL_OPEN;
     1305     8475
     1306     8476        %EJECT;
PL6.E3A0      #001=VDA$FOPEN File=VDA$FILE.:VDA5TSI                              FRI 07/04/97 11:03 Page:38
     1307     8477    1   SET_ERROR_SERIOUS: PROC (ERR_CODE);
     1308     8478
     1309     8479    2   DCL ERR_CODE SBIN;
     1310     8480    2   DCL T$ PTR;
     1311     8481    2   DCL FLV UBIN;
     1312     8482
     1313     8483    2           FLV = %FLV_SERIOUS;
     1314     8484    2           GOTO COMMON;
     1315     8485
     1316     8486    2   SET_ERROR_WARN: ENTRY (ERR_CODE);
     1317     8487
     1318     8488    2           FLV = %FLV_WARN;
     1319     8489    2   COMMON: ;
     1320     8490    2           CALL VDG$OALLOC (%CLS_ERR, T$)
     1321     8491    2             ALTRET (OALLOC_FAILED);
     1322     8492    2           VD_ERR$ = T$;
     1323     8493    2           IF ADDR(ERR_CODE)~=B$TCB$ THEN
     1324     8494    2              VD$ERR.ERR.CODE# = ERR_CODE;
     1325     8495    2           ELSE IF B$TCB.ALT$->B$ALT.ERR.ERR# = %E$CREATERR THEN
     1326     8496    2                 VD$ERR.ERR.CODE# = %E$VD_CREATERR;
     1327     8497    2              ELSE VD$ERR.ERR = B$TCB.ALT$->B$ALT.ERR;
     1328     8498    2           VD$ERR.FLAGLEV# = FLV;
     1329     8499    2           VD$ERR.DCB# = PORT.DCB#;
     1330     8500    2           VD_NUMBER$ = PINCRW(VD_ERR$, SIZEW(VD$ERR));
     1331     8501    2           VD$NUMBER.OBJECT.CLASS# (0) = %CLS_ORG;
     1332     8502    2           VD$NUMBER.V# (0) = PORT.LEVEL.ORG# (%LVL_EXT_REC);
     1333     8503    2           VD$NUMBER.OBJECT.CLASS# (1) = %CLS_KEY_TYPE;
     1334     8504    2           VD$NUMBER.V# (1) = PORT.LEVEL.KEY_TYPE# (%LVL_EXT_REC);
     1335     8505    2           IF FLV = %FLV_SERIOUS THEN
     1336     8506    2              CALL VDA$FCLOSE (STREAM);   /* Let altret fall thru */
     1337     8507    2   OALLOC_FAILED:;
     1338     8508    2           RETURN;
     1339     8509    2   END SET_ERROR_SERIOUS;
     1340     8510    1   END VDA$FOPEN;
     1341     8511        %EOD;

PL6.E3A0      #001=VDA$FOPEN File=VDA$FILE.:VDA5TSI                              FRI 07/04/97 11:03 Page:39
--  Include file information  --

   B$JIT.:LIBRARY  cannot be made into a system file and is referenced.
   B_ERRORS_C.:LIBRARY  is referenced.
   CP_6_SUBS.:LIBRARY  is referenced.
   CP_6.:LIBRARY  cannot be made into a system file and is referenced.
   VD_PERR_C.:VDA5TOU  is referenced.
   VD_MACROS_M.:VDA5TOU  is referenced.
   B$JIT_C.:E04TOU  was found in the system file and is referenced.
   CP_6_C.:E04TOU  was found in the system file and is referenced.
      No diagnostics issued in procedure VDA$FOPEN.

   Procedure VDA$FOPEN requires 1452 words for executable code.
   Procedure VDA$FOPEN requires 110 words of local(AUTO) storage.

PL6.E3A0      #001=VDA$FOPEN File=VDA$FILE.:VDA5TSI                              FRI 07/04/97 11:03 Page:40

 Object Unit name= VDA$FOPEN                                  File name= VDA$FILE.:VDA5TOU
 UTS= JUL 04 '97 11:03:45.44 FRI                              Compiler= PL-6/E31         Sev=      00
 SharedLib= :SHARED_SYSTEM                                    Alt SharedLib=


    ****  Control sections  ****

 Sect   Type Bound  Init  Size OctSiz  Section name(segment info)
    0   DCB   even  none     0      0  M$UC
    1  RoData even  UTS     72    110  VDA$FOPEN
    2   Data  even  none     4      4  VDA$FOPEN
    3   Proc  even  none  1452   2654  VDA$FOPEN
    4  RoData even  none    39     47  VDA$FOPEN

    ****  Entry defs  ****

                              Check   Calling
                             calling  sequence
  Sect OctLoc Primary Altret sequence   type   Parms  Name
     3      0   yes    yes     yes      Std        4  VDA$FOPEN
PL6.E3A0      #001=VDA$FOPEN File=VDA$FILE.:VDA5TSI                              FRI 07/04/97 11:03 Page:41

  ****  Entry refs  ****

         Check        Calling
        calling       sequence
Altret sequence SRef   type   Args  Name
         yes           Std       1 VDG$EBREAK_ACKNOWLEDGE
         yes           Std       4 VDG$MACC_FOPEN
         yes           Std       3 VDG$ESCREECH
         yes           Std       1 VDG$MACC_RETURN
 yes     yes           Std       1 VDA$FCLOSE
 yes     yes           Std       1 VDG$OFREE
 yes     yes           Std       2 VDG$OCOPY
 yes     yes           Std       1 VDA$FDETACH
 yes     yes           Std       3 VDG$OALLOC
         yes           Std       1 VDG$EREPORT_ERROR
 yes     yes           Std       1 VDG$OFREE_DCB
 yes     yes           Std       1 VDG$OALLOC_DCB
         yes           Std       2 VDG$MACC_FOPEN_OPEN
 yes     yes           Std       2 XSF$LOCCODT
                       nStd      0 X66_AUTO_4
                       Std       0 B_CONSPOOL_D
                       nStd      0 X66_AALT
                       nStd      0 X66_ARET

  ****  Data refs  ****

  Flags:  r = read only, s = secondary
Flgs Name                             Flgs Name                             Flgs Name
     M$UC                                  VD_6E                                 VD_ACCESSOR_PRIV
     VD_$FILETYPE                          VD_$$MON_ACC                          VD_KEY_FIRST_CONSEC_REC
     B$TCB$                                B$JIT$                                B_VECTNIL
PL6.E3A0      #001=VDA$FOPEN File=VDA$FILE.:VDA5TSI                              FRI 07/04/97 11:03 Page:42

  ****  Segment refs  ****

  Flags:  r = read only, s = secondary
Flgs Name                             Flgs Name                             Flgs Name
     ISSID                                 NULLSID                               ROSID
PL6.E3A0      #001=VDA$FOPEN File=VDA$FILE.:VDA5TSI                              FRI 07/04/97 11:03 Page:43


        1        1        /*M* VDA$FILE - Accessor operations at file-level */
        2        2        /*T***********************************************************/
        3        3        /*T*                                                         */
        4        4        /*T* Copyright (c) Bull HN Information Systems Inc., 1997    */
        5        5        /*T*                                                         */
        6        6        /*T***********************************************************/
        7        7
        8        8        /*X* MCR=NO, DMC=YES */
        9        9        /*T*/
       10       10
       11       11        /*P* NAME: VDA$FILE
       12       12            PURPOSE: Accessor operations at file-level.
       13       13            DESCRIPTION:
       14       14                This module contains three external routines:
       15       15                VDA$FOPEN - Will open a stream's file level to a file.
       16       16                VDA$FCLOSE - Will close a stream's file level.
       17       17                VDA$FDETACH - Will detach a stream from its port. If
       18       18                    appropriate, will free the port.
       19       19                VDA$FREKEY - Rekeys an entire edit-keyed file.
       20       20        */
       21       21
       22       22        /*D* NAME: VDA$FOPEN
       23       23            PARAMETERS:
       24       24                STREAM - VD$STREAM to open.  If this stream is currently open,
       25       25                    we'll first close it.  The stream and its attached port
       26       26                    may already be positioned to the file you wish to access
       27       27                    (via a previous call to VDA$FOPEN), or you may use the
       28       28                    positioning parameters ABSOLUTE and RELATIVE in this call.
       29       29                    The port attached to STREAM may or may not be open to the
       30       30                    requested file already.
       31       31                ABSOLUTE - Optional VD$KEY specifying the absolute location
       32       32                    file key) to position to first.  Must point to a remote
       33       33                    VD$FILE_KEY.
       34       34                    Omit ABSOLUTE for relative-only positioning.
       35       35        *N**N**N*   If ABSOLUTE=%CLEAR, we'll position to the first file in the
       36       36        *N**N**N*       the user's file management directory.
PL6.E3A0      #001=VDA$FOPEN File=VDA$FILE.:VDA5TSI                              FRI 07/04/97 11:03 Page:44
       37       37                    If ABSOLUTE's VD$FILE_KEY.DCB is non-0, then this DCB is
       38       38                        to be used to access the file.  The DCB should already
       39       39                        be !SET to the file to access.  We'll look for a port
       40       40                        already open to this DCB; if none, we'll build a port
       41       41                        and attach this DCB to it.
       42       42                    Else VD$FILE_KEY must contain either an M$FID'd fid, or an
       43       43                        internal file name (in VD$FILE_KEY.UNIQUE.FNAME).
       44       44                        We'll find and attach the appropriate port.
       45       45
       46       46                    The general form for the name part of predefined and
       47       47                        Scratch file keys is:
       48       48                            x6Edit_<dir>_<file>
       49       49                    where:
       50       50                    "x" is the file storage class of the file.  This is a single char,
       51       51                        and comes from VD$DIR_NODE.FILE_STCLASS (settable by
       52       52                        the user).  It is one of the FSTCL_ values, and
       53       53                        specifies where to look for the file.  If the file
       54       54                        storage class for a directory is FSTCL_MIGRATABLE or
       55       55                        FSTCL_EXTERNAL, then the user can't access any external
       56       56                        file which starts with "x6Edit_<dir>".
       57       57                    <dir> is the directory key:  a DK_ value.  There are
       58       58                        five directories:  History, Names, Scratch, Structures,
       59       59                        and Windows.
       60       60                    _<file> is optional, and makes the entire file name unique
       61       61                        for a specific file within the directory.
       62       62                RELATIVE - Signed number of files to move relative to either
       63       63                    the stream's current file-level position or, if given, ABSOLUTE.
       64       64                    RELATIVE < 0 is not legal.
       65       65                OPTIONS - Optional VD$ACCESS_OPTIONS.  If omitted, the file
       66       66                    isn't opened.  If given, then:
       67       67                    .STRUCTURE$ must point to the level 1 VD$FILE_NODE for
       68       68                        the accessor Structure to use.  The Structure specifies
       69       69                        not only the level structure of the physical file,
       70       70                        but also the organization, Key-type, and Spec-type
       71       71                        of the file.  Note that:
       72       72                        o When opening an existing file, if the user specifies
       73       73                            the External structure, s/he can access any type of
PL6.E3A0      #001=VDA$FOPEN File=VDA$FILE.:VDA5TSI                              FRI 07/04/97 11:03 Page:45
       74       74                            external file.  This is because the External structure
       75       75                            doesn't have org or Key-type values in it, so we use
       76       76                            the ones from the actual file.
       77       77                        o When creating a file, the user can use either:
       78       78                            o the External structure, in which case we'll use
       79       79                                default values for org, Key-type, and Spec-type; or
       80       80                            o one of the derivative structures which specify org,
       81       81                                Key-type, and Spec-type (Consec, Names, etc.)
       82       82                        o If the user opens an existing file with a structure
       83       83                            which specifies org, Key-type, or Spec-type, and the
       84       84                            actual file's values differ from those of the structure,
       85       85                            we'll report an error and abort the open.
       86       86                    .EXIST - An EX_ value, specifying the "existence" option
       87       87                        to be applied to the file.
       88       88                    .PROTECT - The "protect" option to be applied to the file:
       89       89                        either %PROTECT (read-only) or %DONT_PROTECT.
       90       90                        Note the rough granularity of this option:  it applies
       91       91                        to all levels of the file structure and to all node
       92       92                        components at the levels.
       93       93                        Basically, this is like a mask of all 1's that we'll
       94       94                        be OR'ing with the protection forced by the Structure,
       95       95                        by file management (for external files), or by the
       96       96                        filenode itself (for internal files).
       97       97            INPUT:
       98       98                VD_ACCESSOR_PRIV - If we're opening/creating an internal file
       99       99                    and we're not doing it on behalf of the user, but
      100      100                    rather are accessing an internally-maintained
      101      101                    file (e.g., Scratch files, etc.), then
      102      102                    VD_ACCESSOR_PRIV must have all bits set (%NAC_ALL_BITS).
      103      103            OUTPUT:
      104      104                PORT.STRUCTURE will be set appropriately.
      105      105                STREAM.FILE_KEY will be set:
      106      106                    If .FILE_KEY is %CLEAR, the requested file doesn't exist,
      107      107                        and there are no files after it in the specified
      108      108                        directory.  This will only happen when RELATIVE > 0.
      109      109                        (When RELATIVE=0, positioning to a non-existent file just
      110      110                        loads the file key into VD$STREAM.FILE_KEY
PL6.E3A0      #001=VDA$FOPEN File=VDA$FILE.:VDA5TSI                              FRI 07/04/97 11:03 Page:46
      111      111                        and leaves the stream closed.)
      112      112                    If .FILE_KEY is not %CLEAR, then it specifies the key of
      113      113                        the requested file.  Note that if ABSOLUTE contained
      114      114                        a .DCB# at entry, we'll fill in the fid-part of the
      115      115                        VD$FILE_KEY from the DCB, in both the stream's
      116      116                        VD$FILE_KEY and in ABSOLUTE's VD$FILE_KEY.
      117      117                If OPTIONS is included in the parameters:
      118      118                    The stream will be open to the file, but will remain
      119      119                        "unpositioned" (no lower-level keys in STREAM.CURRENT.
      120      120                        If the file doesn't exist, an error will be returned.
      121      121                    VD$PORT.EXIST and all STREAM.PROTECTs will be set
      122      122                        from the call parameters.  The VD$PORT.LEVEL.ORGs,
      123      123                        VD$PORT.LEVEL.KEY_TYPEs, VD$PORT.LEVEL.SPEC_TYPEs, and
      124      124                        STREAM.PROTECTs will be set based on the specific
      125      125                        file/structure opened and the PROTECT value passed.
      126      126                VD$STREAM.NEXT may be cleared.
      127      127            DESCRIPTION:
      128      128                Load ABSOLUTE's file key into .FILE_KEY and attach
      129      129                    the stream to an appropriate port.
      130      130                If RELATIVE is > 0, skip that many files in the file directory.
      131      131                In the above, if the stream is already open and we need to
      132      132                    position to a different file than the current one, first
      133      133                    close the stream.
      134      134
      135      135                If OPTIONS wasn't passed, return:  we've positioned to the
      136      136                    requested file.
      137      137                If the port is already open to the requested file, then
      138      138                    the request can't specify EXIST=NEW; if so, reject the open.
      139      139                    Also compare the protection options:  if the request says
      140      140                    %DONT_PROTECT for an external file, then we can't use a port
      141      141                    which is already open to a DCB for input-only.
      142      142                If the current key at the file level is of a non-existent
      143      143                    file and EXIST = %EX_NEW or %EX_ANY, then this OPEN call
      144      144                    will create a new file.
      145      145                    Note:  to create a predefined file, EXIST must be %EX_NEW.
      146      146                If the port isn't open yet, open it.  Merge the info from the
      147      147                    Structure into the VD$PORT.
PL6.E3A0      #001=VDA$FOPEN File=VDA$FILE.:VDA5TSI                              FRI 07/04/97 11:03 Page:47
      148      148                Merge the PROTECT parameter with the protect flags for each level
      149      149                    of the Structure definition, and if the file is
      150      150                    external, with the open-mode of the DCB, into the VD$STREAM.
      151      151        */
      152      152
      153      153        VDA$FOPEN: PROC (STREAM, ABSOLUTE, RELATIVE, OPTIONS) ALTRET;

    153  3 000000   000000 700200 xent  VDA$FOPEN    TSX0  ! X66_AUTO_4
         3 000001   000156 000004                    ZERO    110,4

      154      154
      155      155        %INCLUDE VD_MACROS_M;
      156     2370        %INCLUDE VD_PERR_C;
      157     2518        %INCLUDE CP_6;
      158     2599        %INCLUDE CP_6_SUBS;
      159     3139        %INCLUDE B_ERRORS_C;
      160     4265        %INCLUDE B$JIT;
      161     4555
      162     4556
      163     4557                %VD$STREAM (NAME=STREAM, STCLASS=PARAM);
      164     4663                %VD$KEY (NAME=ABSOLUTE, STCLASS=PARAM);
      165     4677    1   DCL RELATIVE SBIN;
      166     4678        %VD$ACCESS_OPTIONS (NAME=OPTIONS, STCLASS=PARAM);
      167     4707
      168     4708
      169     4709    1   DCL VDA$FCLOSE          ENTRY (1) ALTRET;
      170     4710    1   DCL VDA$FDETACH         ENTRY (1) ALTRET;
      171     4711    1   DCL VDG$OCOPY           ENTRY (2) ALTRET;
      172     4712    1   DCL VDG$OALLOC          ENTRY (3) ALTRET;
      173     4713    1   DCL VDG$OFREE           ENTRY (1) ALTRET;
      174     4714    1   DCL VDG$OALLOC_DCB      ENTRY (1) ALTRET;
      175     4715    1   DCL VDG$OFREE_DCB       ENTRY (1) ALTRET;
      176     4716    1   DCL VDG$EREPORT_ERROR   ENTRY (1);
      177     4717    1   DCL VDG$ESCREECH        ENTRY (3);
      178     4718    1   DCL VDG$EBREAK_ACKNOWLEDGE ENTRY (1);
      179     4719    1   DCL VDG$MACC_FOPEN      ENTRY (4);
      180     4720    1   DCL VDG$MACC_FOPEN_OPEN ENTRY (2);
PL6.E3A0      #001=VDA$FOPEN File=VDA$FILE.:VDA5TSI                              FRI 07/04/97 11:03 Page:48
      181     4721    1   DCL VDG$MACC_RETURN     ENTRY (1);
      182     4722    1   DCL XSF$LOCCODT         ENTRY (2) ALTRET;
      183     4723
      184     4724
      185     4725
      186     4726        %VD_6E (STCLASS=SYMREF);
      187     4762    1   DCL 1 VD_ACCESSOR_PRIV ALIGNED SYMREF,
      188     4763              %VD$NAC (NAME=ACCESS, LEV=2, LAST=YES);
      189     4777        %VD$BUFFER (NAME=VD_$FILETYPE, STCLASS=SYMREF);
      190     4835        %VD$NUMBER (NAME=VD_$$MON_ACC, STCLASS=SYMREF);
      191     4880        %VD$KEY_NUMBER (NAME=VD_KEY_FIRST_CONSEC_REC, STCLASS=SYMREF);
      192     4895    1   DCL B$TCB$ PTR SYMREF;
      193     4896    1   DCL B$JIT$ PTR SYMREF;
      194     4897
      195     4898
      196     4899
      197     4900    1   DCL LEVEL SBIN;
      198     4901    1   DCL VD_ERR$ PTR;
      199     4902    1   DCL VD_NUMBER$ PTR;
      200     4903
      201     4904
      202     4905        %VD$PORT (NAME=PORT, STCLASS="BASED(STREAM.PORT$)");
      203     5003        %VD$FILE_NODE;
      204     5096        %VD$TEXTC_REMOTE;
      205     5157        %VD$FILE_KEY;
      206     5206        %VD$BUFFER;
      207     5264        %VD$BUFFER_HEADER;
      208     5300        %VD$ERR (NAME=VD$ERR, STCLASS="BASED(VD_ERR$)");
      209     5353        %VD$NUMBER (NAME=VD$NUMBER, DIM="(0:2)", STCLASS="BASED(VD_NUMBER$)");
      210     5398    1   DCL SBIN$WORD SBIN BASED;
      211     5399        %B$TCB (NAME=B$TCB, STCLASS="BASED(B$TCB$)");
      212     5402        %B$ALT;
      213     5410
      214     5411
      215     5412
      216     5413    2           IF VD_6E.INTERRUPT.STATE# = %INST_BREAK_QUEUED THEN DO;

PL6.E3A0      #001=VDA$FOPEN File=VDA$FILE.:VDA5TSI                              FRI 07/04/97 11:03 Page:49
   5413  3 000002   000027 220000 xsym               LDX0    VD_6E+23
         3 000003   000003 100003                    CMPX0   3,DU
         3 000004   000012 601000 3                  TNZ     s:5417

      217     5414    2              CALL VDG$EBREAK_ACKNOWLEDGE (%E$BREAK_HIT);

   5414  3 000005   000000 630400 4                  EPPR0   0
         3 000006   000017 631400 xsym               EPPR1   B_VECTNIL+15
         3 000007   000000 701000 xent               TSX1    VDG$EBREAK_ACKNOWLEDGE
         3 000010   000000 011000                    NOP     0

      218     5415    2              ALTRETURN;

   5415  3 000011   000000 702200 xent               TSX2  ! X66_AALT

      219     5416    2              END;
      220     5417    1           IF VD_$$MON_ACC.V# > 0 THEN

   5417  3 000012   000003 235000 xsym               LDA     VD_$$MON_ACC+3
         3 000013   000020 604400 3                  TMOZ    s:5420

      221     5418    1              CALL VDG$MACC_FOPEN (STREAM, ABSOLUTE, RELATIVE, OPTIONS);

   5418  3 000014   200003 630500                    EPPR0   @STREAM,,AUTO
         3 000015   000022 631400 xsym               EPPR1   B_VECTNIL+18
         3 000016   000000 701000 xent               TSX1    VDG$MACC_FOPEN
         3 000017   000000 011000                    NOP     0

      222     5419
      223     5420    1           IF RELATIVE < 0 THEN

   5420  3 000020   200005 470500                    LDP0    @RELATIVE,,AUTO
         3 000021   000000 235100                    LDA     0,,PR0
         3 000022   000027 605000 3                  TPL     s:5423

      224     5421    1              CALL VDG$ESCREECH (RELATIVE);

PL6.E3A0      #001=VDA$FOPEN File=VDA$FILE.:VDA5TSI                              FRI 07/04/97 11:03 Page:50
   5421  3 000023   200005 630500                    EPPR0   @RELATIVE,,AUTO
         3 000024   000017 631400 xsym               EPPR1   B_VECTNIL+15
         3 000025   000000 701000 xent               TSX1    VDG$ESCREECH
         3 000026   000000 011000                    NOP     0

      225     5422
      226     5423    1           CALL FILE_LEVEL_LOCATION

   5423  3 000027   000046 701000 3                  TSX1    FILE_LEVEL_LOCATION
         3 000030   000045 702000 3                  TSX2    FILE_LEVEL_LOCATION_FAILED

      227     5424    1             ALTRET (FILE_LEVEL_LOCATION_FAILED);
      228     5425
      229     5426    2           IF ADDR(OPTIONS) ~= ADDR(NIL) THEN DO;

   5426  3 000031   200006 236100                    LDQ     @OPTIONS,,AUTO
         3 000032   000001 116000 xsym               CMPQ    B_VECTNIL+1
         3 000033   000036 600000 3                  TZE     s:5431

      230     5427    2              CALL FILE_LEVEL_OPEN

   5427  3 000034   000727 701000 3                  TSX1    FILE_LEVEL_OPEN
         3 000035   000045 702000 3                  TSX2    FILE_LEVEL_LOCATION_FAILED

      231     5428    2                ALTRET (FILE_LEVEL_OPEN_FAILED);
      232     5429    2              END;

      233     5430
      234     5431    1           IF VD_$$MON_ACC.V# > 0 THEN

   5431  3 000036   000003 235000 xsym               LDA     VD_$$MON_ACC+3
         3 000037   000044 604400 3                  TMOZ    s:5433

      235     5432    1              CALL VDG$MACC_RETURN (STREAM);

   5432  3 000040   200003 630500                    EPPR0   @STREAM,,AUTO
         3 000041   000017 631400 xsym               EPPR1   B_VECTNIL+15
PL6.E3A0      #001=VDA$FOPEN File=VDA$FILE.:VDA5TSI                              FRI 07/04/97 11:03 Page:51
         3 000042   000000 701000 xent               TSX1    VDG$MACC_RETURN
         3 000043   000000 011000                    NOP     0

      236     5433    1           RETURN;

   5433  3 000044   000000 702200 xent               TSX2  ! X66_ARET

   5431  3 000045                       FILE_LEVEL_* null
   5431  3 000045                       FILE_LEVEL_* null
      237     5434
      238     5435
      239     5436    1   FILE_LEVEL_LOCATION_FAILED: ;
      240     5437    1   FILE_LEVEL_OPEN_FAILED: ;
      241     5438    1           ALTRETURN;

   5438  3 000045   000000 702200 xent               TSX2  ! X66_AALT

      242     5439
      243     5440                %BOX (TITLE=FILE_LEVEL_LOCATION, PAGE=YES);
              5448    1
              5452    1   /***************************************************************************
              5454    1    *                                                                         *
              5458    1            *                            FILE_LEVEL_LOCATION                         *
              5460    1            *                                                                        *
              5462    1          ***************************************************************************/

      244     5466
      245     5467        /*I* NAME: FILE_LEVEL_LOCATION
      246     5468            PARAMETERS:
      247     5469                None.
      248     5470            INPUT:
      249     5471                STREAM - The VD$STREAM to use.
      250     5472                ABSOLUTE, RELATIVE - Same as for main routine.
      251     5473                PORT - The VD$PORT attached to STREAM.
      252     5474            OUTPUT:
      253     5475                STREAM.FILE_KEY will contain the requested file key;
      254     5476                    STREAM will be attached to a port which is also positioned
PL6.E3A0      #001=VDA$FOPEN File=VDA$FILE.:VDA5TSI                              FRI 07/04/97 11:03 Page:52
      255     5477                    to the requested file key.  The stream and port may or
      256     5478                    may not be open to the file, and if open, will be positioned
      257     5479                    to an arbitrary location within the file.
      258     5480                If ABSOLUTE's VD$FILE_KEY.DCB# was non-0 at entry, then
      259     5481                    ABSOLUTE's, STREAM.FILE_KEY's, and PORT.FILE_KEY's
      260     5482                    VD$FILE_ABSOLUTE.UNIQUE, .ASN, .PSN, and .RES will be filled
      261     5483                    in from the dcb.  Also, ABSOLUTE's VD$FILE_KEY.DCB# will be
      262     5484                    zeroed.
      263     5485            DESCRIPTION:
      264     5486                Position the stream to the requested file, and attach it to
      265     5487                an appropriate port:
      266     5488
      267     5489                If RELATIVE=0, the stream may already be positioned to
      268     5490                    ABSOLUTE's file and the port for that file.  If so, return.
      269     5491                If the stream is currently open, close it.  If ABSOLUTE isn't
      270     5492                    %CLEAR, load it into current.
      271     5493                If RELATIVE=0:
      272     5494                    Call FIND_PORT to find/build a port open to ABSOLUTE.
      273     5495                    Return.
      274     5496
      275     5497                So, RELATIVE is > 0:
      276     5498                    If this stream isn't the sole referencer of it's port, or if
      277     5499                        it doesn't have a port, call BUILD_PORT to get
      278     5500                        an unused port.  We need an unused port so we can do
      279     5501                        NXTF opens on it for the relative movement.
      280     5502                    Call FILE_LEVEL_OPEN_NXTF, RELATIVE times.  If we hit the end
      281     5503                        of the directory, clear STREAM.FILE_KEY and return.
      282     5504                        (It's ok to leave a closed port attached.)
      283     5505                    If we find the requested file, call FIND_PORT to see if there
      284     5506                        are any other ports already open to the file.  If so,
      285     5507                        FIND_PORT will detach our current port and reattach us
      286     5508                        to the already-open one.
      287     5509                    Return.
      288     5510        */
      289     5511
      290     5512    1   FILE_LEVEL_LOCATION: PROC ALTRET;

PL6.E3A0      #001=VDA$FOPEN File=VDA$FILE.:VDA5TSI                              FRI 07/04/97 11:03 Page:53
   5512  3 000046   200012 741300       FILE_LEVEL_* STX1  ! VD_NUMBER$+1,,AUTO

      291     5513
      292     5514
      293     5515    2   DCL I SBIN;
      294     5516    2   DCL ABS_KEY$ PTR;
      295     5517    2   DCL CANDIDATE_KEY$ PTR;
      296     5518    2   DCL DO_THE_CALL BIT(1) ALIGNED;
      297     5519
      298     5520
      299     5521        %VD$TEXTC (NAME=ABS$KEY, STCLASS="BASED(ABS_KEY$)");
      300     5544        %VD$TEXTC (NAME=CAND$KEY, STCLASS="BASED(CANDIDATE_KEY$)");
      301     5567
      302     5568
      303     5569
      304     5570    3           IF ABSOLUTE = %CLEAR THEN DO;

   5570  3 000047   200004 470500                    LDP0    @ABSOLUTE,,AUTO
         3 000050   000000 106500                    CMPC    fill='000'O
         3 000051   000000 000010                    ADSC9   0,,PR0                   cn=0,n=8
         3 000052   000002 000002 xsym               ADSC9   B_VECTNIL+2              cn=0,n=2
         3 000053   000060 601000 3                  TNZ     s:5582

      305     5571    3              IF RELATIVE = 0 THEN

   5571  3 000054   200005 471500                    LDP1    @RELATIVE,,AUTO
         3 000055   100000 235100                    LDA     0,,PR1
         3 000056   000131 601000 3                  TNZ     s:5605

      306     5572    3                 RETURN;   /* No positioning requested: return */

   5572  3 000057   000001 702211                    TSX2  ! 1,X1

      307     5573    3              END;
      308     5574    3           ELSE DO;

      309     5575                   %GETKEY (KEY=ABSOLUTE, PTR=ABS_KEY$);
PL6.E3A0      #001=VDA$FOPEN File=VDA$FILE.:VDA5TSI                              FRI 07/04/97 11:03 Page:54

   5582  3 000060   000000 720100                    LXL0    0,,PR0
         3 000061   000002 100003                    CMPX0   2,DU
         3 000062   000067 601000 3                  TNZ     s:5582+7

   5582  3 000063   000001 471500                    LDP1    1,,PR0
         3 000064   100002 633500                    EPPR3   2,,PR1
         3 000065   200014 453500                    STP3    ABS_KEY$,,AUTO
         3 000066   000072 710000 3                  TRA     s:5586

   5582  3 000067   200004 236100                    LDQ     @ABSOLUTE,,AUTO
         3 000070   000001 036003                    ADLQ    1,DU
         3 000071   200014 756100                    STQ     ABS_KEY$,,AUTO

      310     5585
      311     5586    3              IF RELATIVE = 0

   5586  3 000072   200005 471500                    LDP1    @RELATIVE,,AUTO
         3 000073   100000 235100                    LDA     0,,PR1
         3 000074   000131 601000 3                  TNZ     s:5605
         3 000075   200003 473500                    LDP3    @STREAM,,AUTO
         3 000076   000000 106500                    CMPC    fill='000'O
         3 000077   300004 000010                    ADSC9   4,,PR3                   cn=0,n=8
         3 000100   000002 000002 xsym               ADSC9   B_VECTNIL+2              cn=0,n=2
         3 000101   000131 600000 3                  TZE     s:5605

      312     5587    4                AND STREAM.FILE_KEY ~= %CLEAR THEN DO;

      313     5588                      %GETKEY (KEY=STREAM.FILE_KEY, PTR=CANDIDATE_KEY$);

   5595  3 000102   300004 722100                    LXL2    4,,PR3
         3 000103   000002 102003                    CMPX2   2,DU
         3 000104   000111 601000 3                  TNZ     s:5595+7

   5595  3 000105   300005 474500                    LDP4    5,,PR3
         3 000106   400002 635500                    EPPR5   2,,PR4
         3 000107   200015 455500                    STP5    CANDIDATE_KEY$,,AUTO
PL6.E3A0      #001=VDA$FOPEN File=VDA$FILE.:VDA5TSI                              FRI 07/04/97 11:03 Page:55
         3 000110   000114 710000 3                  TRA     s:5598

   5595  3 000111   200003 236100                    LDQ     @STREAM,,AUTO
         3 000112   000005 036003                    ADLQ    5,DU
         3 000113   200015 756100                    STQ     CANDIDATE_KEY$,,AUTO

      314     5598    5                 IF ABS$KEY.BYTES = CAND$KEY.BYTES THEN DO;

   5598  3 000114   200014 474500                    LDP4    ABS_KEY$,,AUTO
         3 000115   400000 236100                    LDQ     0,,PR4
         3 000116   000033 772000                    QRL     27
         3 000117   200015 475500                    LDP5    CANDIDATE_KEY$,,AUTO
         3 000120   000000 623006                    EAX3    0,QL
         3 000121   500000 236100                    LDQ     0,,PR5
         3 000122   000033 772000                    QRL     27
         3 000123   000000 624006                    EAX4    0,QL
         3 000124   040140 106540                    CMPC    fill='040'O
         3 000125   400000 200013                    ADSC9   0,,PR4                   cn=1,n=*X3
         3 000126   500000 200014                    ADSC9   0,,PR5                   cn=1,n=*X4
         3 000127   000131 601000 3                  TNZ     s:5605

      315     5599                         /* We're already at requested key:  just return */
      316     5600    5                    RETURN;

   5600  3 000130   000001 702211                    TSX2  ! 1,X1

      317     5601    5                    END;
      318     5602    4                 END;
      319     5603    3              END;
      320     5604
      321     5605    2           IF STREAM.PORT$ ~= ADDR(NIL) THEN

   5605  3 000131   200003 473500                    LDP3    @STREAM,,AUTO
         3 000132   300001 236100                    LDQ     1,,PR3
         3 000133   000001 116000 xsym               CMPQ    B_VECTNIL+1
         3 000134   000144 600000 3                  TZE     s:5618

PL6.E3A0      #001=VDA$FOPEN File=VDA$FILE.:VDA5TSI                              FRI 07/04/97 11:03 Page:56
      322     5606    3              IF PORT.EXIST# ~= 0 THEN DO;

   5606  3 000135   300001 474500                    LDP4    1,,PR3
         3 000136   400003 720100                    LXL0    3,,PR4
         3 000137   000144 600000 3                  TZE     s:5618

      323     5607    3                 CALL VDA$FCLOSE (STREAM)

   5607  3 000140   200003 630500                    EPPR0   @STREAM,,AUTO
         3 000141   000017 631400 xsym               EPPR1   B_VECTNIL+15
         3 000142   000000 701000 xent               TSX1    VDA$FCLOSE
         3 000143   000353 702000 3                  TSX2    FCLOSE_FAILED

      324     5608    3                   ALTRET (FCLOSE_FAILED);
      325     5609    3                 END;

      326     5610
      327     5611                %CLEARKEY (KEY=STREAM.FILE_KEY);

   5618  3 000144   200003 470500                    LDP0    @STREAM,,AUTO
         3 000145   000004 720100                    LXL0    4,,PR0
         3 000146   000002 100003                    CMPX0   2,DU
         3 000147   000161 601000 3                  TNZ     s:5619+2

   5618  3 000150   000005 471500                    LDP1    5,,PR0
         3 000151   200150 451500                    STP1    FLV+1,,AUTO
         3 000152   200150 630500                    EPPR0   FLV+1,,AUTO
         3 000153   000017 631400 xsym               EPPR1   B_VECTNIL+15
         3 000154   000000 701000 xent               TSX1    VDG$OFREE
         3 000155   000157 702000 3                  TSX2    s:5619
         3 000156   000161 710000 3                  TRA     s:5619+2

   5619  3 000157   200012 221300                    LDX1  ! VD_NUMBER$+1,,AUTO
         3 000160   000000 702211                    TSX2  ! 0,X1

   5619  3 000161   200003 470500                    LDP0    @STREAM,,AUTO
         3 000162   000004 450100                    STZ     4,,PR0
PL6.E3A0      #001=VDA$FOPEN File=VDA$FILE.:VDA5TSI                              FRI 07/04/97 11:03 Page:57
         3 000163   000005 450100                    STZ     5,,PR0

      328     5621
      329     5622    3           IF RELATIVE = 0 THEN DO;

   5622  3 000164   200005 471500                    LDP1    @RELATIVE,,AUTO
         3 000165   100000 235100                    LDA     0,,PR1
         3 000166   000215 601000 3                  TNZ     REL_MOVES

      330     5623    3              CALL FIND_PORT (ABSOLUTE)

   5623  3 000167   200004 236100                    LDQ     @ABSOLUTE,,AUTO
         3 000170   200021 756100                    STQ     DO_THE_CALL+3,,AUTO
         3 000171   000355 701000 3                  TSX1    FIND_PORT
         3 000172   000353 702000 3                  TSX2    FCLOSE_FAILED

      331     5624    3                ALTRET (FIND_PORT_FAILED);
      332     5625    3              STREAM.FILE_KEY = PORT.FILE_KEY;

   5625  3 000173   200003 470500                    LDP0    @STREAM,,AUTO
         3 000174   000001 471500                    LDP1    1,,PR0
         3 000175   000100 100500                    MLR     fill='000'O
         3 000176   100010 000010                    ADSC9   8,,PR1                   cn=0,n=8
         3 000177   000004 000010                    ADSC9   4,,PR0                   cn=0,n=8

      333     5626    4              IF PORT.FILE_KEY.REP# = %REP_REMOTE THEN DO;

   5626  3 000200   100010 720100                    LXL0    8,,PR1
         3 000201   000002 100003                    CMPX0   2,DU
         3 000202   000351 601000 3                  TNZ     s:5683

      334     5627    4                 CALL VDG$OCOPY (PORT.FILE_KEY.V$ -> VD$FILE_KEY,

   5627  3 000203   100011 473500                    LDP3    9,,PR1
         3 000204   200003 236100                    LDQ     @STREAM,,AUTO
         3 000205   000005 036003                    ADLQ    5,DU
         3 000206   200151 756100                    STQ     FLV+2,,AUTO
PL6.E3A0      #001=VDA$FOPEN File=VDA$FILE.:VDA5TSI                              FRI 07/04/97 11:03 Page:58
         3 000207   200150 453500                    STP3    FLV+1,,AUTO
         3 000210   200150 630500                    EPPR0   FLV+1,,AUTO
         3 000211   000020 631400 xsym               EPPR1   B_VECTNIL+16
         3 000212   000000 701000 xent               TSX1    VDG$OCOPY
         3 000213   000353 702000 3                  TSX2    FCLOSE_FAILED

      335     5628    4                   STREAM.FILE_KEY.V$)
      336     5629    4                   ALTRET (OCOPY_FAILED);
      337     5630    4                 END;

      338     5631    3              END;

   5631  3 000214   000351 710000 3                  TRA     s:5683

      339     5632
      340     5633    2           ELSE
      341     5634    3   REL_MOVES: DO;

   5634  3 000215                       REL_MOVES    null
      342     5635    3              DO_THE_CALL = %TRUE; /* Assume we need to find an unused port */

   5635  3 000215   400000 236003                    LDQ     -131072,DU
         3 000216   200016 756100                    STQ     DO_THE_CALL,,AUTO

      343     5636    4              IF STREAM.PORT$ ~= ADDR(NIL) THEN DO;

   5636  3 000217   000001 236100                    LDQ     1,,PR0
         3 000220   000001 116000 xsym               CMPQ    B_VECTNIL+1
         3 000221   000227 600000 3                  TZE     s:5640

      344     5637    4                 IF PORT.REFS# < 2 THEN

   5637  3 000222   000001 473500                    LDP3    1,,PR0
         3 000223   300003 220100                    LDX0    3,,PR3
         3 000224   000002 100003                    CMPX0   2,DU
         3 000225   000227 605000 3                  TPL     s:5640

PL6.E3A0      #001=VDA$FOPEN File=VDA$FILE.:VDA5TSI                              FRI 07/04/97 11:03 Page:59
      345     5638    4                    DO_THE_CALL = %FALSE;

   5638  3 000226   200016 450100                    STZ     DO_THE_CALL,,AUTO

      346     5639    4                 END;

      347     5640    4              IF DO_THE_CALL THEN DO;

   5640  3 000227   200016 234100                    SZN     DO_THE_CALL,,AUTO
         3 000230   000236 605000 3                  TPL     s:5652

      348     5641    4                 CALL BUILD_PORT (ABSOLUTE)

   5641  3 000231   200004 236100                    LDQ     @ABSOLUTE,,AUTO
         3 000232   200027 756100                    STQ     PORT_KEY$+1,,AUTO
         3 000233   000543 701000 3                  TSX1    BUILD_PORT
         3 000234   000353 702000 3                  TSX2    FCLOSE_FAILED

      349     5642    4                   ALTRET (BUILD_PORT_FAILED);
      350     5643    4                 END;

   5643  3 000235   000300 710000 3                  TRA     s:5663

      351     5644    4              ELSE DO;

      352     5645                      %CLEARKEY (KEY=PORT.FILE_KEY);

   5652  3 000236   000001 473500                    LDP3    1,,PR0
         3 000237   300010 720100                    LXL0    8,,PR3
         3 000240   000002 100003                    CMPX0   2,DU
         3 000241   000253 601000 3                  TNZ     s:5653+2

   5652  3 000242   300011 474500                    LDP4    9,,PR3
         3 000243   200150 454500                    STP4    FLV+1,,AUTO
         3 000244   200150 630500                    EPPR0   FLV+1,,AUTO
         3 000245   000017 631400 xsym               EPPR1   B_VECTNIL+15
         3 000246   000000 701000 xent               TSX1    VDG$OFREE
PL6.E3A0      #001=VDA$FOPEN File=VDA$FILE.:VDA5TSI                              FRI 07/04/97 11:03 Page:60
         3 000247   000251 702000 3                  TSX2    s:5653
         3 000250   000253 710000 3                  TRA     s:5653+2

   5653  3 000251   200012 221300                    LDX1  ! VD_NUMBER$+1,,AUTO
         3 000252   000000 702211                    TSX2  ! 0,X1

   5653  3 000253   200003 470500                    LDP0    @STREAM,,AUTO
         3 000254   000001 471500                    LDP1    1,,PR0
         3 000255   100010 450100                    STZ     8,,PR1
         3 000256   100011 450100                    STZ     9,,PR1

      353     5655    4                 PORT.FILE_KEY = ABSOLUTE;

   5655  3 000257   000001 471500                    LDP1    1,,PR0
         3 000260   200004 473500                    LDP3    @ABSOLUTE,,AUTO
         3 000261   000100 100500                    MLR     fill='000'O
         3 000262   300000 000010                    ADSC9   0,,PR3                   cn=0,n=8
         3 000263   100010 000010                    ADSC9   8,,PR1                   cn=0,n=8

      354     5656    5                 IF ABSOLUTE.REP# = %REP_REMOTE THEN DO;

   5656  3 000264   300000 720100                    LXL0    0,,PR3
         3 000265   000002 100003                    CMPX0   2,DU
         3 000266   000300 601000 3                  TNZ     s:5663

      355     5657    5                    CALL VDG$OCOPY (ABSOLUTE.V$ -> VD$FILE_KEY,

   5657  3 000267   300001 471500                    LDP1    1,,PR3
         3 000270   000001 474500                    LDP4    1,,PR0
         3 000271   400011 635500                    EPPR5   9,,PR4
         3 000272   200151 455500                    STP5    FLV+2,,AUTO
         3 000273   200150 451500                    STP1    FLV+1,,AUTO
         3 000274   200150 630500                    EPPR0   FLV+1,,AUTO
         3 000275   000020 631400 xsym               EPPR1   B_VECTNIL+16
         3 000276   000000 701000 xent               TSX1    VDG$OCOPY
         3 000277   000353 702000 3                  TSX2    FCLOSE_FAILED

PL6.E3A0      #001=VDA$FOPEN File=VDA$FILE.:VDA5TSI                              FRI 07/04/97 11:03 Page:61
      356     5658    5                      PORT.FILE_KEY.V$)
      357     5659    5                      ALTRET (OCOPY_FAILED);
      358     5660    5                    END;

      359     5661    4                 END;

      360     5662
      361     5663    3              I = RELATIVE;

   5663  3 000300   200005 470500                    LDP0    @RELATIVE,,AUTO
         3 000301   000000 235100                    LDA     0,,PR0
         3 000302   200013 755100                    STA     I,,AUTO

      362     5664    4              DO WHILE I > 0 AND PORT.FILE_KEY ~= %CLEAR;

   5664  3 000303   000306 710000 3                  TRA     s:5668

      363     5665        /*N*          CALL FILE_LEVEL_OPEN_NXTF (PORT)                      */
      364     5666        /*N*            ALTRET (FILE_LEVEL_OPEN_NXTF_FAILED);               */
      365     5667    4                 I = I - 1;

   5667  3 000304   000001 336007                    LCQ     1,DL
         3 000305   200013 056100                    ASQ     I,,AUTO

      366     5668    4                 END;

   5668  3 000306   200013 235100                    LDA     I,,AUTO
         3 000307   000316 604400 3                  TMOZ    s:5669
         3 000310   200003 470500                    LDP0    @STREAM,,AUTO
         3 000311   000001 471500                    LDP1    1,,PR0
         3 000312   000000 106500                    CMPC    fill='000'O
         3 000313   100010 000010                    ADSC9   8,,PR1                   cn=0,n=8
         3 000314   000002 000002 xsym               ADSC9   B_VECTNIL+2              cn=0,n=2
         3 000315   000304 601000 3                  TNZ     s:5667

      367     5669    4              IF PORT.FILE_KEY ~= %CLEAR THEN DO;

PL6.E3A0      #001=VDA$FOPEN File=VDA$FILE.:VDA5TSI                              FRI 07/04/97 11:03 Page:62
   5669  3 000316   200003 470500                    LDP0    @STREAM,,AUTO
         3 000317   000001 471500                    LDP1    1,,PR0
         3 000320   000000 106500                    CMPC    fill='000'O
         3 000321   100010 000010                    ADSC9   8,,PR1                   cn=0,n=8
         3 000322   000002 000002 xsym               ADSC9   B_VECTNIL+2              cn=0,n=2
         3 000323   000330 600000 3                  TZE     s:5675

      368     5670                      /* Find any other port which may already be open to this file */
      369     5671    4                 CALL FIND_PORT (PORT.FILE_KEY)

   5671  3 000324   100010 633500                    EPPR3   8,,PR1
         3 000325   200021 453500                    STP3    DO_THE_CALL+3,,AUTO
         3 000326   000355 701000 3                  TSX1    FIND_PORT
         3 000327   000353 702000 3                  TSX2    FCLOSE_FAILED

      370     5672    4                   ALTRET (FIND_PORT_FAILED);
      371     5673    4                 END;

      372     5674
      373     5675    3              STREAM.FILE_KEY = PORT.FILE_KEY;

   5675  3 000330   200003 470500                    LDP0    @STREAM,,AUTO
         3 000331   000001 471500                    LDP1    1,,PR0
         3 000332   000100 100500                    MLR     fill='000'O
         3 000333   100010 000010                    ADSC9   8,,PR1                   cn=0,n=8
         3 000334   000004 000010                    ADSC9   4,,PR0                   cn=0,n=8

      374     5676    4              IF PORT.FILE_KEY.REP# = %REP_REMOTE THEN DO;

   5676  3 000335   100010 720100                    LXL0    8,,PR1
         3 000336   000002 100003                    CMPX0   2,DU
         3 000337   000351 601000 3                  TNZ     s:5683

      375     5677    4                 CALL VDG$OCOPY (PORT.FILE_KEY.V$ -> VD$FILE_KEY,

   5677  3 000340   100011 473500                    LDP3    9,,PR1
         3 000341   200003 236100                    LDQ     @STREAM,,AUTO
PL6.E3A0      #001=VDA$FOPEN File=VDA$FILE.:VDA5TSI                              FRI 07/04/97 11:03 Page:63
         3 000342   000005 036003                    ADLQ    5,DU
         3 000343   200151 756100                    STQ     FLV+2,,AUTO
         3 000344   200150 453500                    STP3    FLV+1,,AUTO
         3 000345   200150 630500                    EPPR0   FLV+1,,AUTO
         3 000346   000020 631400 xsym               EPPR1   B_VECTNIL+16
         3 000347   000000 701000 xent               TSX1    VDG$OCOPY
         3 000350   000353 702000 3                  TSX2    FCLOSE_FAILED

      376     5678    4                   STREAM.FILE_KEY.V$)
      377     5679    4                   ALTRET (OCOPY_FAILED);
      378     5680    4                 END;

      379     5681    3              END REL_MOVES;

      380     5682
      381     5683    2           RETURN;

   5683  3 000351   200012 221300                    LDX1  ! VD_NUMBER$+1,,AUTO
         3 000352   000001 702211                    TSX2  ! 1,X1

   5676  3 000353                       FCLOSE_FAIL* null
   5676  3 000353                       FIND_PORT_F* null
   5676  3 000353                       BUILD_PORT_* null
   5676  3 000353                       OCOPY_FAILED null
      382     5684
      383     5685
      384     5686    2   FCLOSE_FAILED: ;
      385     5687    2   FIND_PORT_FAILED: ;
      386     5688    2   BUILD_PORT_FAILED: ;
      387     5689    2   OCOPY_FAILED: ;
      388     5690        /*N* FILE_LEVEL_OPEN_NXTF_FAILED: ; */
      389     5691    2           ALTRETURN;

   5691  3 000353   200012 221300                    LDX1  ! VD_NUMBER$+1,,AUTO
         3 000354   000000 702211                    TSX2  ! 0,X1

      390     5692
PL6.E3A0      #001=VDA$FOPEN File=VDA$FILE.:VDA5TSI                              FRI 07/04/97 11:03 Page:64
      391     5693        %BOX (TITLE=FIND_PORT, PAGE=YES);
              5701    2
              5705    2   /***************************************************************************
              5707    2    *                                                                         *
              5711    2            *                                 FIND_PORT                              *
              5713    2            *                                                                        *
              5715    2          ***************************************************************************/

      392     5719
      393     5720        /*I** NAME: FIND_PORT
      394     5721            PARAMETERS:
      395     5722                KEY - VD$KEY for file key to look for.  This must point to
      396     5723                    a remote VD$FILE_KEY.  If VD$FILE_KEY has a non-0 .DCB,
      397     5724                    we'll find a port attached to that DCB.
      398     5725            INPUT:
      399     5726                STREAM - The VD$STREAM to find a port for; we only use STREAM.PORT$.
      400     5727                VD_6E.PORT_HEAD$, .PORT_TAIL$ - Ptrs to head and tail of
      401     5728                    current chain of VD$PORTs.
      402     5729            OUTPUT:
      403     5730                STREAM.PORT$ will point to the port which is open to KEY.  This may
      404     5731                    be a different port than was passed via STREAM.PORT$ at entry;
      405     5732                    if so, the old port's ref count will be decremented (and if
      406     5733                    no other streams ref it, it will be freed), and the new
      407     5734                    port's ref count will be incremented; this reflects the
      408     5735                    detachment of the stream from the old port and the
      409     5736                    reattachment of the stream to the new port.
      410     5737                If KEY's VD$FILE_KEY.DCB# was non-0 at entry, then
      411     5738                    KEY's and PORT.FILE_KEY's VD$FILE_KEY.UNIQUE, .ASN, .PSN,
      412     5739                    and .RES will be filled in from the dcb.  Also, KEY's
      413     5740                    VD$FILE_KEY.DCB# will be zeroed.
      414     5741            DESCRIPTION:
      415     5742                If STREAM.PORT$ is nil, look for any port open to KEY; if none,
      416     5743                    or if KEY's VD$FILE_KEY.DCB# is set, build a new port for KEY.
      417     5744                If STREAM.PORT$ is not nil, look for any port open to KEY, but
      418     5745                    consider STREAM.PORT$->VD$PORT last.  If we find any other
      419     5746                    port already open to KEY, we assume caller wants to detach
      420     5747                    STREAM from PORT$; we'll decrement the port's ref count
PL6.E3A0      #001=VDA$FOPEN File=VDA$FILE.:VDA5TSI                              FRI 07/04/97 11:03 Page:65
      421     5748                    and close and deallocate it if appropriate (ref count = 0).
      422     5749                    If no port, not even STREAM.PORT$, is already open to KEY,
      423     5750                    we'll detach STREAM from it, allocate a new VD$PORT, and
      424     5751                    attach STREAM to the new port.
      425     5752        */
      426     5753
      427     5754    2   FIND_PORT: PROC (KEY) ALTRET;

   5754  3 000355   200020 741300       FIND_PORT    STX1  ! DO_THE_CALL+2,,AUTO

      428     5755
      429     5756        %VD$KEY (NAME=KEY, STCLASS=PARAM);
      430     5770
      431     5771
      432     5772    3   DCL GIVEN_KEY$ PTR;
      433     5773    3   DCL CAND_PORT$ PTR;
      434     5774    3   DCL CAND_KEY$ PTR;
      435     5775
      436     5776
      437     5777        %VD$TEXTC (NAME=GIVEN$KEY, STCLASS="BASED(GIVEN_KEY$)");
      438     5800        %VD$FILE_KEY (NAME=FILE$KEY, STCLASS="BASED(KEY.V$)");
      439     5849        %VD$PORT (NAME=CAND$PORT, STCLASS="BASED(CAND_PORT$)");
      440     5947        %VD$TEXTC (NAME=CAND$KEY, STCLASS="BASED(CAND_KEY$)");
      441     5970
      442     5971
      443     5972
      444     5973    3           IF KEY.REP# ~= %REP_REMOTE THEN

   5973  3 000356   200021 470500                    LDP0    @KEY,,AUTO
         3 000357   000000 720100                    LXL0    0,,PR0
         3 000360   000002 100003                    CMPX0   2,DU
         3 000361   000371 600000 3                  TZE     s:5975

      445     5974    3              CALL VDG$ESCREECH (KEY.REP#);

   5974  3 000362   200021 236100                    LDQ     @KEY,,AUTO
         3 000363   400000 036007                    ADLQ    -131072,DL
PL6.E3A0      #001=VDA$FOPEN File=VDA$FILE.:VDA5TSI                              FRI 07/04/97 11:03 Page:66
         3 000364   200150 756100                    STQ     FLV+1,,AUTO
         3 000365   200150 630500                    EPPR0   FLV+1,,AUTO
         3 000366   000017 631400 xsym               EPPR1   B_VECTNIL+15
         3 000367   000000 701000 xent               TSX1    VDG$ESCREECH
         3 000370   000000 011000                    NOP     0

      446     5975    3           GIVEN_KEY$ = ADDR(FILE$KEY.LENGTH#);

   5975  3 000371   200021 470500                    LDP0    @KEY,,AUTO
         3 000372   000001 471500                    LDP1    1,,PR0
         3 000373   100002 633500                    EPPR3   2,,PR1
         3 000374   200022 453500                    STP3    GIVEN_KEY$,,AUTO

      447     5976
      448     5977    3           IF FILE$KEY.DCB# = 0 THEN

   5977  3 000375   100021 220100                    LDX0    17,,PR1
         3 000376   000521 601000 3                  TNZ     s:6029

      449     5978    4   FIND_NAMED_FILE: DO;

   5978  3 000377                       FIND_NAMED_* null
      450     5979    4              CAND_PORT$ = VD_6E.PORT_HEAD$;

   5979  3 000377   000033 236000 xsym               LDQ     VD_6E+27
         3 000400   200023 756100                    STQ     CAND_PORT$,,AUTO

      451     5980    4   SEARCH_PORTS:
      452     5981    5              DO WHILE CAND_PORT$ ~= ADDR(NIL);

   5981  3 000401   000436 710000 3     SEARCH_PORTS TRA     s:5997

      453     5982    6                 IF CAND_PORT$ ~= STREAM.PORT$ THEN DO;

   5982  3 000402   200003 470500                    LDP0    @STREAM,,AUTO
         3 000403   200023 236100                    LDQ     CAND_PORT$,,AUTO
         3 000404   000001 116100                    CMPQ    1,,PR0
PL6.E3A0      #001=VDA$FOPEN File=VDA$FILE.:VDA5TSI                              FRI 07/04/97 11:03 Page:67
         3 000405   000436 600000 3                  TZE     s:5997

      454     5983                         %GETKEY (KEY=CAND$PORT.FILE_KEY, PTR=CAND_KEY$);

   5990  3 000406   200023 471500                    LDP1    CAND_PORT$,,AUTO
         3 000407   100010 720100                    LXL0    8,,PR1
         3 000410   000002 100003                    CMPX0   2,DU
         3 000411   000416 601000 3                  TNZ     s:5990+8

   5990  3 000412   100011 473500                    LDP3    9,,PR1
         3 000413   300002 634500                    EPPR4   2,,PR3
         3 000414   200024 454500                    STP4    CAND_KEY$,,AUTO
         3 000415   000420 710000 3                  TRA     s:5993

   5990  3 000416   000011 036003                    ADLQ    9,DU
         3 000417   200024 756100                    STQ     CAND_KEY$,,AUTO

      455     5993    6                    IF GIVEN$KEY.BYTES = CAND$KEY.BYTES THEN

   5993  3 000420   200022 473500                    LDP3    GIVEN_KEY$,,AUTO
         3 000421   300000 236100                    LDQ     0,,PR3
         3 000422   000033 772000                    QRL     27
         3 000423   200024 474500                    LDP4    CAND_KEY$,,AUTO
         3 000424   000000 621006                    EAX1    0,QL
         3 000425   400000 236100                    LDQ     0,,PR4
         3 000426   000033 772000                    QRL     27
         3 000427   000000 622006                    EAX2    0,QL
         3 000430   040140 106540                    CMPC    fill='040'O
         3 000431   300000 200011                    ADSC9   0,,PR3                   cn=1,n=*X1
         3 000432   400000 200012                    ADSC9   0,,PR4                   cn=1,n=*X2
         3 000433   000440 600000 3                  TZE     s:5999

      456     5994    6                       EXIT SEARCH_PORTS;
      457     5995    6                    CAND_PORT$ = CAND$PORT.FLINK$;

   5995  3 000434   100002 236100                    LDQ     2,,PR1
         3 000435   200023 756100                    STQ     CAND_PORT$,,AUTO
PL6.E3A0      #001=VDA$FOPEN File=VDA$FILE.:VDA5TSI                              FRI 07/04/97 11:03 Page:68

      458     5996    6                    END;

      459     5997    5                 END SEARCH_PORTS;

   5997  3 000436   000001 116000 xsym               CMPQ    B_VECTNIL+1
         3 000437   000402 601000 3                  TNZ     s:5982

      460     5998
      461     5999    4              IF CAND_PORT$ ~= ADDR(NIL) THEN

   5999  3 000440   200023 236100                    LDQ     CAND_PORT$,,AUTO
         3 000441   000001 116000 xsym               CMPQ    B_VECTNIL+1
         3 000442   000463 600000 3                  TZE     s:6008

      462     6000    5   FOUND_MATCH: DO;

   6000  3 000443                       FOUND_MATCH  null
      463     6001    6                 IF STREAM.PORT$ ~= ADDR(NIL) THEN DO;

   6001  3 000443   200003 470500                    LDP0    @STREAM,,AUTO
         3 000444   000001 236100                    LDQ     1,,PR0
         3 000445   000001 116000 xsym               CMPQ    B_VECTNIL+1
         3 000446   000453 600000 3                  TZE     s:6005

      464     6002    6                    CALL VDA$FDETACH (STREAM)

   6002  3 000447   200003 630500                    EPPR0   @STREAM,,AUTO
         3 000450   000017 631400 xsym               EPPR1   B_VECTNIL+15
         3 000451   000000 701000 xent               TSX1    VDA$FDETACH
         3 000452   000541 702000 3                  TSX2    FDETACH_FAILED

      465     6003    6                      ALTRET (FDETACH_FAILED);
      466     6004    6                    END;

      467     6005    5                 STREAM.PORT$ = CAND_PORT$;

PL6.E3A0      #001=VDA$FOPEN File=VDA$FILE.:VDA5TSI                              FRI 07/04/97 11:03 Page:69
   6005  3 000453   200023 236100                    LDQ     CAND_PORT$,,AUTO
         3 000454   200003 470500                    LDP0    @STREAM,,AUTO
         3 000455   000001 756100                    STQ     1,,PR0

      468     6006    5                 CAND$PORT.REFS# = CAND$PORT.REFS# + 1;

   6006  3 000456   200023 471500                    LDP1    CAND_PORT$,,AUTO
         3 000457   100003 220100                    LDX0    3,,PR1
         3 000460   000001 621010                    EAX1    1,X0
         3 000461   100003 741100                    STX1    3,,PR1

      469     6007    5                 END FOUND_MATCH;

   6007  3 000462   000521 710000 3                  TRA     s:6029

      470     6008    4              ELSE IF STREAM.PORT$ ~= ADDR(NIL) THEN

   6008  3 000463   200003 470500                    LDP0    @STREAM,,AUTO
         3 000464   000001 236100                    LDQ     1,,PR0
         3 000465   000001 116000 xsym               CMPQ    B_VECTNIL+1
         3 000466   000521 600000 3                  TZE     s:6029

      471     6009    5   TEST_ORIGINAL_PORT: DO;

   6009  3 000467                       TEST_ORIGIN* null
      472     6010                         %GETKEY (KEY=STREAM.PORT$->CAND$PORT.FILE_KEY,
      473     6011                         PTR=CAND_KEY$);

   6018  3 000467   000001 471500                    LDP1    1,,PR0
         3 000470   100010 720100                    LXL0    8,,PR1
         3 000471   000002 100003                    CMPX0   2,DU
         3 000472   000477 601000 3                  TNZ     s:6018+4

   6018  3 000473   100011 473500                    LDP3    9,,PR1
         3 000474   300002 634500                    EPPR4   2,,PR3
         3 000475   200024 454500                    STP4    CAND_KEY$,,AUTO
         3 000476   000501 710000 3                  TRA     s:6021
PL6.E3A0      #001=VDA$FOPEN File=VDA$FILE.:VDA5TSI                              FRI 07/04/97 11:03 Page:70

   6018  3 000477   100011 633500                    EPPR3   9,,PR1
         3 000500   200024 453500                    STP3    CAND_KEY$,,AUTO

      474     6021    6                    IF GIVEN$KEY.BYTES ~= CAND$KEY.BYTES THEN DO;

   6021  3 000501   200022 473500                    LDP3    GIVEN_KEY$,,AUTO
         3 000502   300000 236100                    LDQ     0,,PR3
         3 000503   000033 772000                    QRL     27
         3 000504   200024 474500                    LDP4    CAND_KEY$,,AUTO
         3 000505   000000 621006                    EAX1    0,QL
         3 000506   400000 236100                    LDQ     0,,PR4
         3 000507   000033 772000                    QRL     27
         3 000510   000000 622006                    EAX2    0,QL
         3 000511   040140 106540                    CMPC    fill='040'O
         3 000512   300000 200011                    ADSC9   0,,PR3                   cn=1,n=*X1
         3 000513   400000 200012                    ADSC9   0,,PR4                   cn=1,n=*X2
         3 000514   000521 600000 3                  TZE     s:6029

      475     6022                            /* Force STREAM.PORT$ to NIL */
      476     6023    6                       CALL VDA$FDETACH (STREAM)

   6023  3 000515   200003 630500                    EPPR0   @STREAM,,AUTO
         3 000516   000017 631400 xsym               EPPR1   B_VECTNIL+15
         3 000517   000000 701000 xent               TSX1    VDA$FDETACH
         3 000520   000541 702000 3                  TSX2    FDETACH_FAILED

      477     6024    6                         ALTRET (FDETACH_FAILED);
      478     6025    6                       END;

      479     6026    5                    END TEST_ORIGINAL_PORT;

      480     6027    4              END FIND_NAMED_FILE;

      481     6028
      482     6029    3           IF FILE$KEY.DCB# ~= 0

PL6.E3A0      #001=VDA$FOPEN File=VDA$FILE.:VDA5TSI                              FRI 07/04/97 11:03 Page:71
   6029  3 000521   200021 470500                    LDP0    @KEY,,AUTO
         3 000522   000001 471500                    LDP1    1,,PR0
         3 000523   100021 220100                    LDX0    17,,PR1
         3 000524   000531 601000 3                  TNZ     s:6035
         3 000525   200003 473500                    LDP3    @STREAM,,AUTO
         3 000526   300001 236100                    LDQ     1,,PR3
         3 000527   000001 116000 xsym               CMPQ    B_VECTNIL+1
         3 000530   000536 601000 3                  TNZ     s:6040

      483     6030    4             OR STREAM.PORT$ = ADDR(NIL) THEN DO;

      484     6031                   /*
      485     6032                   *  Specific DCB requested, or no match found:
      486     6033                   *    build a new port.
      487     6034                   */
      488     6035    4              CALL BUILD_PORT (KEY)

   6035  3 000531   200021 236100                    LDQ     @KEY,,AUTO
         3 000532   200027 756100                    STQ     PORT_KEY$+1,,AUTO
         3 000533   000543 701000 3                  TSX1    BUILD_PORT
         3 000534   000541 702000 3                  TSX2    FDETACH_FAILED

      489     6036    4                ALTRET (BUILD_PORT_FAILED);
      490     6037    4              END;

   6037  3 000535   000537 710000 3                  TRA     s:6044

      491     6038    4           ELSE DO;

      492     6039                   %INCREMENT (INDX=%STG_OPEN_PORT_SHARED);

   6040  3 000536   000075 054000 xsym               AOS     VD_6E+61

      493     6042    4              END;

      494     6043
      495     6044    3           RETURN;
PL6.E3A0      #001=VDA$FOPEN File=VDA$FILE.:VDA5TSI                              FRI 07/04/97 11:03 Page:72

   6044  3 000537   200020 221300                    LDX1  ! DO_THE_CALL+2,,AUTO
         3 000540   000001 702211                    TSX2  ! 1,X1

   6044  3 000541                       FDETACH_FAI* null
   6044  3 000541                       BUILD_PORT_* null
      496     6045
      497     6046
      498     6047
      499     6048    3   FDETACH_FAILED: ;
      500     6049    3   BUILD_PORT_FAILED: ;
      501     6050    3           ALTRETURN;

   6050  3 000541   200020 221300                    LDX1  ! DO_THE_CALL+2,,AUTO
         3 000542   000000 702211                    TSX2  ! 0,X1

      502     6051
      503     6052    3   END FIND_PORT;
      504     6053
      505     6054        %BOX (TITLE=BUILD_PORT, PAGE=YES);
              6062    3
              6066    3   /***************************************************************************
              6068    3    *                                                                         *
              6072    3            *                                 BUILD_PORT                             *
              6074    3            *                                                                        *
              6076    3          ***************************************************************************/

      506     6080
      507     6081        /*I** NAME: BUILD_PORT
      508     6082            PARAMETERS:
      509     6083                KEY - VD$KEY to build port for.  This must point to
      510     6084                    a remote VD$FILE_KEY.  If VD$FILE_KEY has a non-0 .DCB,
      511     6085                    we'll attach the port to that DCB; the VD$FILE_KEY's
      512     6086                    fid parts should match those of the DCB, however,
      513     6087                    they're ignored, and the port's key is built from the
      514     6088                    DCB and JIT.
      515     6089            INPUT:
PL6.E3A0      #001=VDA$FOPEN File=VDA$FILE.:VDA5TSI                              FRI 07/04/97 11:03 Page:73
      516     6090                STREAM - The VD$STREAM to build a port for; we only use STREAM.PORT$.
      517     6091                VD_6E.PORT_HEAD$, .PORT_TAIL$ - Ptrs to head and tail of
      518     6092                    current chain of VD$PORTs.
      519     6093            OUTPUT:
      520     6094                STREAM.PORT$ will point to a new port with file-level key KEY.
      521     6095                    If a port was passed via STREAM.PORT$ at entry,
      522     6096                    that port's ref count will be decremented (and if
      523     6097                    no other streams ref it, it will be freed), and the new
      524     6098                    port's ref count will be incremented; this reflects the
      525     6099                    detachment of the stream from the old port and the
      526     6100                    reattachment of the stream to the new port.
      527     6101            DESCRIPTION:
      528     6102                If STREAM.PORT$ is nil, just allocate a new port for KEY.
      529     6103                If STREAM.PORT$ is not nil, first detach STREAM from PORT$:
      530     6104                    decrement the port's ref count and close and deallocate it
      531     6105                    if appropriate.  Then we'll allocate a new VD$PORT for KEY,
      532     6106                    and attach STREAM to it.
      533     6107        */
      534     6108
      535     6109    2   BUILD_PORT: PROC (KEY) ALTRET;

   6109  3 000543   200026 741300       BUILD_PORT   STX1  ! STRUCTURE_LEVEL$+1,,AUTO

      536     6110
      537     6111        %VD$KEY (NAME=KEY, STCLASS=PARAM);
      538     6125
      539     6126
      540     6127    3   DCL NEW_PORT$ PTR;
      541     6128    3   DCL REQ_DCB$ PTR;
      542     6129    3   DCL FILE_KEY$ PTR;
      543     6130
      544     6131
      545     6132        %VD$FILE_KEY (NAME=FILE$KEY, STCLASS="BASED(FILE_KEY$)");
      546     6181        %VD$PORT (NAME=NEW$PORT, STCLASS="BASED(NEW_PORT$)");
      547     6279        %F$DCB (DCBN=REQ$DCB, STCLASS="BASED(REQ_DCB$)");
      548     6336        %VD$TEXTC_REMOTE;
      549     6397
PL6.E3A0      #001=VDA$FOPEN File=VDA$FILE.:VDA5TSI                              FRI 07/04/97 11:03 Page:74
      550     6398
      551     6399
      552     6400    4           IF STREAM.PORT$ ~= ADDR(NIL) THEN DO;

   6400  3 000544   200003 470500                    LDP0    @STREAM,,AUTO
         3 000545   000001 236100                    LDQ     1,,PR0
         3 000546   000001 116000 xsym               CMPQ    B_VECTNIL+1
         3 000547   000554 600000 3                  TZE     s:6405

      553     6401    4              CALL VDA$FDETACH (STREAM)

   6401  3 000550   200003 630500                    EPPR0   @STREAM,,AUTO
         3 000551   000017 631400 xsym               EPPR1   B_VECTNIL+15
         3 000552   000000 701000 xent               TSX1    VDA$FDETACH
         3 000553   000725 702000 3                  TSX2    FDETACH_FAILED

      554     6402    4                ALTRET (FDETACH_FAILED);
      555     6403    4              END;

      556     6404
      557     6405    3           CALL VDG$OALLOC (%CLS_PORT, STREAM.PORT$)

   6405  3 000554   200003 236100                    LDQ     @STREAM,,AUTO
         3 000555   000001 036003                    ADLQ    1,DU
         3 000556   000002 235000 4                  LDA     2
         3 000557   200150 757100                    STAQ    FLV+1,,AUTO
         3 000560   200150 630500                    EPPR0   FLV+1,,AUTO
         3 000561   000020 631400 xsym               EPPR1   B_VECTNIL+16
         3 000562   000000 701000 xent               TSX1    VDG$OALLOC
         3 000563   000725 702000 3                  TSX2    FDETACH_FAILED

      558     6406    3             ALTRET (OALLOC_FAILED);
      559     6407    3           NEW_PORT$ = STREAM.PORT$;

   6407  3 000564   200003 470500                    LDP0    @STREAM,,AUTO
         3 000565   000001 236100                    LDQ     1,,PR0
         3 000566   200030 756100                    STQ     NEW_PORT$,,AUTO
PL6.E3A0      #001=VDA$FOPEN File=VDA$FILE.:VDA5TSI                              FRI 07/04/97 11:03 Page:75

      560     6408    3           FILE_KEY$ = KEY.V$;

   6408  3 000567   200027 471500                    LDP1    @KEY,,AUTO
         3 000570   100001 236100                    LDQ     1,,PR1
         3 000571   200032 756100                    STQ     FILE_KEY$,,AUTO

      561     6409
      562     6410    3           NEW$PORT.REFS# = 1;

   6410  3 000572   000001 220003                    LDX0    1,DU
         3 000573   200030 473500                    LDP3    NEW_PORT$,,AUTO
         3 000574   300003 740100                    STX0    3,,PR3

      563     6411    4           IF FILE$KEY.DCB# ~= 0 THEN DO;

   6411  3 000575   200032 474500                    LDP4    FILE_KEY$,,AUTO
         3 000576   400021 221100                    LDX1    17,,PR4
         3 000577   000701 600000 3                  TZE     s:6451

      564     6412    4              NEW$PORT.DCB# = FILE$KEY.DCB#;

   6412  3 000600   300004 441100                    SXL1    4,,PR3

      565     6413    4              REQ_DCB$ = DCBADDR(FILE$KEY.DCB#);

   6413  3 000601   000003 475400 4                  LDP5    3
         3 000602   500000 476500                    LDP6    0,,PR5
         3 000603   400021 222100                    LDX2    17,,PR4
         3 000604   600000 236112                    LDQ     0,X2,PR6
         3 000605   200031 756100                    STQ     REQ_DCB$,,AUTO

      566     6414                   /* Reload VD$FILE_KEY fields from DCB */
      567     6415    4              FILE$KEY.UNIQUE.ACCT = REQ$DCB.ACCT#;

   6415  3 000606   200031 477500                    LDP7    REQ_DCB$,,AUTO
         3 000607   040100 100500                    MLR     fill='040'O
PL6.E3A0      #001=VDA$FOPEN File=VDA$FILE.:VDA5TSI                              FRI 07/04/97 11:03 Page:76
         3 000610   700020 000010                    ADSC9   16,,PR7                  cn=0,n=8
         3 000611   400002 200010                    ADSC9   2,,PR4                   cn=1,n=8

      568     6416    4              FILE$KEY.PSN = REQ$DCB.PSN#;

   6416  3 000612   040100 100500                    MLR     fill='040'O
         3 000613   700024 000006                    ADSC9   20,,PR7                  cn=0,n=6
         3 000614   400015 400006                    ADSC9   13,,PR4                  cn=2,n=6

      569     6417    5              IF FILE$KEY.UNIQUE.ACCT = ' ' THEN DO;

   6417  3 000615   040000 106500                    CMPC    fill='040'O
         3 000616   400002 200010                    ADSC9   2,,PR4                   cn=1,n=8
         3 000617   000035 000001 xsym               ADSC9   B_VECTNIL+29             cn=0,n=1
         3 000620   000647 601000 3                  TNZ     s:6426

      570     6418    5                 IF REQ$DCB.NAME#.L >= 1

   6418  3 000621   700010 236100                    LDQ     8,,PR7
         3 000622   777000 316003                    CANQ    -512,DU
         3 000623   000634 600000 3                  TZE     s:6422
         3 000624   000777 376003                    ANQ     511,DU
         3 000625   000052 116003                    CMPQ    42,DU
         3 000626   000634 601000 3                  TNZ     s:6422

      571     6419    5                   AND SUBSTR(REQ$DCB.NAME#.C, 0, 1) = %CHR_TEMP_FILE THEN
      572     6420    5                    FILE$KEY.UNIQUE.ACCT = B$JIT.ACCN;

   6420  3 000627   000000 470400 xsym               LDP0    B$JIT$
         3 000630   040100 100500                    MLR     fill='040'O
         3 000631   000001 000010                    ADSC9   1,,PR0                   cn=0,n=8
         3 000632   400002 200010                    ADSC9   2,,PR4                   cn=1,n=8
         3 000633   000640 710000 3                  TRA     s:6423

      573     6421    5                 ELSE
      574     6422    5                    FILE$KEY.UNIQUE.ACCT = B$JIT.FACCN;

PL6.E3A0      #001=VDA$FOPEN File=VDA$FILE.:VDA5TSI                              FRI 07/04/97 11:03 Page:77
   6422  3 000634   000000 470400 xsym               LDP0    B$JIT$
         3 000635   040100 100500                    MLR     fill='040'O
         3 000636   000006 000010                    ADSC9   6,,PR0                   cn=0,n=8
         3 000637   400002 200010                    ADSC9   2,,PR4                   cn=1,n=8

      575     6423    5                 IF (REQ$DCB.PSN# = ' ') THEN

   6423  3 000640   040000 106500                    CMPC    fill='040'O
         3 000641   700024 000006                    ADSC9   20,,PR7                  cn=0,n=6
         3 000642   000035 000001 xsym               ADSC9   B_VECTNIL+29             cn=0,n=1
         3 000643   000647 601000 3                  TNZ     s:6426

      576     6424    5                    FILE$KEY.PSN = B$JIT.FPSN;

   6424  3 000644   040100 100500                    MLR     fill='040'O
         3 000645   000021 000006                    ADSC9   17,,PR0                  cn=0,n=6
         3 000646   400015 400006                    ADSC9   13,,PR4                  cn=2,n=6

      577     6425    5                 END;

      578     6426    4              FILE$KEY.UNIQUE.FNAME.LENGTH# = REQ$DCB.NAME#.L;

   6426  3 000647   700010 236100                    LDQ     8,,PR7
         3 000650   000011 772000                    QRL     9
         3 000651   400004 552120                    STBQ    4,'20'O,PR4

      579     6427    4              FILE$KEY.UNIQUE.FNAME.BYTES =

   6427  3 000652   700010 236100                    LDQ     8,,PR7
         3 000653   000033 772000                    QRL     27
         3 000654   000000 621006                    EAX1    0,QL
         3 000655   040100 100540                    MLR     fill='040'O
         3 000656   700010 200011                    ADSC9   8,,PR7                   cn=1,n=*X1
         3 000657   400004 400037                    ADSC9   4,,PR4                   cn=2,n=31

      580     6428    4                SUBSTR(REQ$DCB.NAME#.C, 0, REQ$DCB.NAME#.L);
      581     6429    4              FILE$KEY.LENGTH# = LENGTHC(FILE$KEY.UNIQUE.ACCT) +
PL6.E3A0      #001=VDA$FOPEN File=VDA$FILE.:VDA5TSI                              FRI 07/04/97 11:03 Page:78

   6429  3 000660   400004 236100                    LDQ     4,,PR4
         3 000661   000022 772000                    QRL     18
         3 000662   000777 376007                    ANQ     511,DL
         3 000663   000011 036007                    ADLQ    9,DL
         3 000664   000033 736000                    QLS     27
         3 000665   400002 552140                    STBQ    2,'40'O,PR4

      582     6430    4                LENGTHC(FILE$KEY.UNIQUE.FNAME.LENGTH#) +
      583     6431    4                FILE$KEY.UNIQUE.FNAME.LENGTH#;
      584     6432    4              FILE$KEY.ASN# = REQ$DCB.ASN#;

   6432  3 000666   700032 236100                    LDQ     26,,PR7
         3 000667   000011 736000                    QLS     9
         3 000670   400014 552120                    STBQ    12,'20'O,PR4

      585     6433    4              FILE$KEY.RES = REQ$DCB.RES#;

   6433  3 000671   040100 100500                    MLR     fill='040'O
         3 000672   700026 000004                    ADSC9   22,,PR7                  cn=0,n=4
         3 000673   400014 400004                    ADSC9   12,,PR4                  cn=2,n=4

      586     6434    4              FILE$KEY.PASS = REQ$DCB.PASS#;

   6434  3 000674   700022 237100                    LDAQ    18,,PR7
         3 000675   400017 755100                    STA     15,,PR4
         3 000676   400020 756100                    STQ     16,,PR4

      587     6435    4              FILE$KEY.DCB# = 0;   /* Zap the DCB ref */

   6435  3 000677   000000 221003                    LDX1    0,DU
         3 000700   400021 741100                    STX1    17,,PR4

      588     6436    4              END;

      589     6437
      590     6438                %COPYKEY (FKEY=KEY, TKEY=NEW$PORT.FILE_KEY);
PL6.E3A0      #001=VDA$FOPEN File=VDA$FILE.:VDA5TSI                              FRI 07/04/97 11:03 Page:79

   6451  3 000701   000100 100500                    MLR     fill='000'O
         3 000702   100000 000010                    ADSC9   0,,PR1                   cn=0,n=8
         3 000703   300010 000010                    ADSC9   8,,PR3                   cn=0,n=8

   6451  3 000704   100000 721100                    LXL1    0,,PR1
         3 000705   000002 101003                    CMPX1   2,DU
         3 000706   000723 601000 3                  TNZ     s:6455

   6451  3 000707   100001 470500                    LDP0    1,,PR1
         3 000710   200030 236100                    LDQ     NEW_PORT$,,AUTO
         3 000711   000011 036003                    ADLQ    9,DU
         3 000712   200151 756100                    STQ     FLV+2,,AUTO
         3 000713   200150 450500                    STP0    FLV+1,,AUTO
         3 000714   200150 630500                    EPPR0   FLV+1,,AUTO
         3 000715   000020 631400 xsym               EPPR1   B_VECTNIL+16
         3 000716   000000 701000 xent               TSX1    VDG$OCOPY
         3 000717   000721 702000 3                  TSX2    s:6452
         3 000720   000723 710000 3                  TRA     s:6455

   6452  3 000721   200026 221300                    LDX1  ! STRUCTURE_LEVEL$+1,,AUTO
         3 000722   000000 702211                    TSX2  ! 0,X1

      591     6454
      592     6455    3           RETURN;

   6455  3 000723   200026 221300                    LDX1  ! STRUCTURE_LEVEL$+1,,AUTO
         3 000724   000001 702211                    TSX2  ! 1,X1

   6451  3 000725                       FDETACH_FAI* null
   6451  3 000725                       OALLOC_FAIL* null
      593     6456
      594     6457
      595     6458    3   FDETACH_FAILED: ;
      596     6459    3   OALLOC_FAILED: ;
      597     6460    3           ALTRETURN;

PL6.E3A0      #001=VDA$FOPEN File=VDA$FILE.:VDA5TSI                              FRI 07/04/97 11:03 Page:80
   6460  3 000725   200026 221300                    LDX1  ! STRUCTURE_LEVEL$+1,,AUTO
         3 000726   000000 702211                    TSX2  ! 0,X1

      598     6461
      599     6462    3   END BUILD_PORT;
      600     6463
      601     6464
      602     6465    2   END FILE_LEVEL_LOCATION;
      603     6466
      604     6467                %BOX (TITLE=FILE_LEVEL_OPEN, PAGE=YES);
              6475    2
              6479    2   /***************************************************************************
              6481    2    *                                                                         *
              6485    2            *                              FILE_LEVEL_OPEN                           *
              6487    2            *                                                                        *
              6489    2          ***************************************************************************/

      605     6493
      606     6494        /*I* NAME: FILE_LEVEL_OPEN
      607     6495            PARAMETERS:
      608     6496                None.
      609     6497            INPUT:
      610     6498                STREAM must be positioned to the file to open.
      611     6499                PORT must be positioned to the internal or external file to
      612     6500                    open.  By positioned, we mean PORT.FILE__KEY
      613     6501                    must contain the file key to open.  The file may or may
      614     6502                    not exist.  .SPEC and .DATA at %LVL_FILE may or may not
      615     6503                    contain info (perhaps from a previous opening of the file).
      616     6504                    PORT may currently be open or closed to the file.
      617     6505                    If closed, PORT may or may not have a DCB attached; if it
      618     6506                    does, then the DCB has already been !SET to the fid to
      619     6507                    open to only if PORT's file-level Key, which must be
      620     6508                    a VD$FILE_KEY, has a non-0 VD$FILE_KEY.DCB#.
      621     6509                OPTIONS must be given; see description for the main routine
      622     6510                    (except it's not optional here).
      623     6511            OUTPUT:
      624     6512                If the PORT is currently closed, we'll open it:
PL6.E3A0      #001=VDA$FOPEN File=VDA$FILE.:VDA5TSI                              FRI 07/04/97 11:03 Page:81
      625     6513                    PORT.DCB# and PORT.LEVEL.INTERNAL$ (%LVL_FILE) will be set
      626     6514                        appropriately.
      627     6515                    PORT.EXIST#, .INTRINSIC_PROTECT, and .STRUCTURE$ will
      628     6516                        be set appropriately.
      629     6517                    PORT.FIT$ will point to a copy of the file's FIT, if any.
      630     6518                    PORT.SPEC and .DATA$ at %LVL_FILE will be set appropriately.
      631     6519                STREAM.PROTECTs at all levels will be set appropriately.
      632     6520            DESCRIPTION:
      633     6521                If PORT is already open, just check for an existence conflict:
      634     6522                    error is user says NEW but PORT already open to file.
      635     6523                If PORT is closed, open it:
      636     6524                    Find it internal or external.  We only look internal if
      637     6525                        the file key matches our template ("x6Edit_<dir>").
      638     6526                        If we don't find it internal:
      639     6527                            If this is a create open, and the file key matches
      640     6528                                the template, the first char matches the
      641     6529                                directory's FILE_STCLASS, and the first char isn't
      642     6530                                %FSTCL_EXTERNAL, then create the file internal.
      643     6531                            Else open/create the file external.
      644     6532                    Call the appropriate routine to open the file internal or
      645     6533                        external.
      646     6534                Merge info from the Structure and PORT into STREAM.
      647     6535                Check for a protection conflict:  if for some reason we can't
      648     6536                    give the user write access to the file when s/he requests
      649     6537                    it, generate a warning message.
      650     6538        */
      651     6539
      652     6540    1   FILE_LEVEL_OPEN: PROC ALTRET;

   6540  3 000727   200012 741300       FILE_LEVEL_* STX1  ! VD_NUMBER$+1,,AUTO

      653     6541
      654     6542
      655     6543        /*
      656     6544        *   The following arrays are used when merging the protect flags from
      657     6545        *       the VD$STRUCTURE_LEVEL into the stream.
      658     6546        *   PROTECT_FLAGS_FOR_BOOL uses a bit(1) flag as a subscript:
PL6.E3A0      #001=VDA$FOPEN File=VDA$FILE.:VDA5TSI                              FRI 07/04/97 11:03 Page:82
      659     6547        *       %TRUE yields all 1-bits.
      660     6548        *   PROTECT_FLAGS_FOR_OPTION uses OPTIONS.PROTECT# as a subscript:
      661     6549        *       %PROTECT yields all 1-bits.
      662     6550        */
      663     6551    2   DCL PROTECT_FLAGS_FOR_BOOL (0:1) BIT(%(CO_DATA+1)) CONSTANT
      664     6552    2       INIT (%CLEAR, %CO_ALL_BITS);
      665     6553    2   DCL PROTECT_FLAGS_FOR_OPTION (0:7) BIT(%(CO_DATA+1)) CONSTANT
      666     6554    2       INIT (%CLEAR, %CO_ALL_BITS, %CLEAR*0);
      667     6555
      668     6556
      669     6557
      670     6558    2   DCL DIR_KEY CHAR(%MXNB_FILE_NAME);
      671     6559    2   DCL STRUCTURE_SPEC$ PTR;
      672     6560    2   DCL STRUCTURE_LEVEL_NODE$ PTR;
      673     6561    2   DCL STRUCTURE_LEVEL$ PTR;
      674     6562    2   DCL PORT_KEY$ PTR;
      675     6563    2   DCL PORT_KEY_NAME$ PTR;
      676     6564    2   DCL DIR_NODE$ PTR;
      677     6565    2   DCL FILE_NODE$ PTR;
      678     6566    2   DCL FILE_NODE_KEY_NAME$ PTR;
      679     6567    2   DCL FILE_STCLASS CHAR(%LENGTHC(FSTCL_INTERNAL));
      680     6568    2   DCL PFN_INDEX SBIN;
      681     6569    2   DCL WHERE_TO_INSERT_NEW_FILE$ PTR;
      682     6570    2   DCL ENTIRE_STRUCTURE_PROTECTED BIT(1) ALIGNED;
      683     6571    2   DCL CONSEC_BY_ACCIDENT BIT(1) ALIGNED;
      684     6572
      685     6573
      686     6574        %VD$FILE_NODE (NAME=STRUCTURE, STCLASS="BASED(OPTIONS.STRUCTURE$)");
      687     6667        %VD$STRUCTURE_SPEC (NAME=STRUCTURE$SPEC, STCLASS="BASED(STRUCTURE_SPEC$)");
      688     6704        %VD$FILE_NODE (NAME=STRUCTURE$LEVEL_NODE,
      689     6705            STCLASS="BASED(STRUCTURE_LEVEL_NODE$)");
      690     6798        %VD$STRUCTURE_LEVEL (NAME=STRUCTURE$LEVEL, STCLASS="BASED(STRUCTURE_LEVEL$)");
      691     6845        %VD$FILE_KEY (NAME=PORT$KEY, STCLASS="BASED(PORT_KEY$)");
      692     6894        %VD$TEXTC (NAME=PORT$KEY_NAME, STCLASS="BASED(PORT_KEY_NAME$)",
      693     6895            ALIGNMENT=CALIGNED);
      694     6918        %VD$DIR_NODE (NAME=DIR$NODE, STCLASS="BASED(DIR_NODE$)");
      695     6956        %VD$FILE_NODE (NAME=FILE$NODE, STCLASS="BASED(FILE_NODE$)");
PL6.E3A0      #001=VDA$FOPEN File=VDA$FILE.:VDA5TSI                              FRI 07/04/97 11:03 Page:83
      696     7049        %VD$TEXTC (NAME=FILE$NODE_KEY_NAME, STCLASS="BASED(FILE_NODE_KEY_NAME$)",
      697     7050            ALIGNMENT=CALIGNED);
      698     7073        %VD$FILE_KEY;
      699     7122        %F$DCB;
      700     7179
      701     7180
      702     7181
      703     7182    2           IF STREAM.PORT$ = ADDR(NIL)

   7182  3 000730   200003 470500                    LDP0    @STREAM,,AUTO
         3 000731   000001 236100                    LDQ     1,,PR0
         3 000732   000001 116000 xsym               CMPQ    B_VECTNIL+1
         3 000733   000741 600000 3                  TZE     s:7184
         3 000734   000001 471500                    LDP1    1,,PR0
         3 000735   000000 106500                    CMPC    fill='000'O
         3 000736   100010 000010                    ADSC9   8,,PR1                   cn=0,n=8
         3 000737   000002 000002 xsym               ADSC9   B_VECTNIL+2              cn=0,n=2
         3 000740   000744 601000 3                  TNZ     s:7186

      704     7183    2             OR PORT.FILE_KEY = %CLEAR THEN
      705     7184    2              CALL VDG$ESCREECH;

   7184  3 000741   000002 631400 xsym               EPPR1   B_VECTNIL+2
         3 000742   000000 701000 xent               TSX1    VDG$ESCREECH
         3 000743   000000 011000                    NOP     0

      706     7185
      707     7186    2           IF OPTIONS.PROTECT# = %PROTECT

   7186  3 000744   200006 470500                    LDP0    @OPTIONS,,AUTO
         3 000745   000002 220100                    LDX0    2,,PR0
         3 000746   000001 100003                    CMPX0   1,DU
         3 000747   000753 601000 3                  TNZ     s:7190
         3 000750   000002 721100                    LXL1    2,,PR0
         3 000751   000001 101003                    CMPX1   1,DU
         3 000752   001442 600000 3                  TZE     PROTECT_CONFLICTS_W_NEW_FAILURE

PL6.E3A0      #001=VDA$FOPEN File=VDA$FILE.:VDA5TSI                              FRI 07/04/97 11:03 Page:84
      708     7187    2             AND OPTIONS.EXIST# = %EX_NEW THEN
      709     7188    2              GOTO PROTECT_CONFLICTS_W_NEW_FAILURE;
      710     7189
      711     7190    2           STRUCTURE_SPEC$ = STRUCTURE.DESC.SPEC.V$;

   7190  3 000753   000000 471500                    LDP1    0,,PR0
         3 000754   100007 236100                    LDQ     7,,PR1
         3 000755   200023 756100                    STQ     STRUCTURE_SPEC$,,AUTO

      712     7191
      713     7192    2           IF PORT.EXIST# ~= 0 THEN

   7192  3 000756   200003 473500                    LDP3    @STREAM,,AUTO
         3 000757   300001 474500                    LDP4    1,,PR3
         3 000760   400003 721100                    LXL1    3,,PR4
         3 000761   000766 600000 3                  TZE     OPEN_THE_PORT

      714     7193    3   PORT_ALREADY_OPEN: DO;

   7193  3 000762                       PORT_ALREAD* null
      715     7194    3              IF OPTIONS.EXIST# = %EX_NEW THEN

   7194  3 000762   000002 722100                    LXL2    2,,PR0
         3 000763   000001 102003                    CMPX2   1,DU
         3 000764   001450 600000 3                  TZE     EXIST_CONFLICT_FAILURE

      716     7195    3                 GOTO EXIST_CONFLICT_FAILURE;
      717     7196    3              END PORT_ALREADY_OPEN;

   7196  3 000765   001220 710000 3                  TRA     s:7288

      718     7197
      719     7198    2           ELSE
      720     7199    3   OPEN_THE_PORT: DO;

   7199  3 000766                       OPEN_THE_PO* null
      721     7200                   /*  Port is currently closed */
PL6.E3A0      #001=VDA$FOPEN File=VDA$FILE.:VDA5TSI                              FRI 07/04/97 11:03 Page:85
      722     7201    3              PORT_KEY$ = PORT.FILE_KEY.V$;

   7201  3 000766   400011 236100                    LDQ     9,,PR4
         3 000767   200026 756100                    STQ     PORT_KEY$,,AUTO

      723     7202    3              PORT_KEY_NAME$ = ADDR(PORT$KEY.UNIQUE.FNAME);

   7202  3 000770   000004 036000 4                  ADLQ    4
         3 000771   200027 756100                    STQ     PORT_KEY_NAME$,,AUTO

      724     7203
      725     7204                   /*
      726     7205                   *    See if file is internal or external; if internal, find it.
      727     7206                   */
      728     7207    3              FILE_NODE$ = ADDR(NIL);    /* Assume external file */

   7207  3 000772   000001 236000 xsym               LDQ     B_VECTNIL+1
         3 000773   200031 756100                    STQ     FILE_NODE$,,AUTO

      729     7208    3              DIR_NODE$ = ADDR(NIL);

   7208  3 000774   200030 756100                    STQ     DIR_NODE$,,AUTO

      730     7209    3              WHERE_TO_INSERT_NEW_FILE$ = ADDR(NIL);

   7209  3 000775   200035 756100                    STQ     WHERE_TO_INSERT_NEW_FILE$,,AUTO

      731     7210    3              FILE_STCLASS = PORT$KEY_NAME.BYTES;

   7210  3 000776   200027 471500                    LDP1    PORT_KEY_NAME$,,AUTO
         3 000777   000100 101500                    MRL     fill='000'O
         3 001000   100000 000001                    ADSC9   0,,PR1                   cn=0,n=1
         3 001001   200150 000002                    ADSC9   FLV+1,,AUTO              cn=0,n=2
         3 001002   200150 220100                    LDX0    FLV+1,,AUTO
         3 001003   040100 100540                    MLR     fill='040'O
         3 001004   100000 200010                    ADSC9   0,,PR1                   cn=1,n=*X0
         3 001005   200033 000001                    ADSC9   FILE_STCLASS,,AUTO       cn=0,n=1
PL6.E3A0      #001=VDA$FOPEN File=VDA$FILE.:VDA5TSI                              FRI 07/04/97 11:03 Page:86

      732     7211
      733     7212    3              IF PORT$KEY.DCB# = 0

   7212  3 001006   200026 474500                    LDP4    PORT_KEY$,,AUTO
         3 001007   400021 220100                    LDX0    17,,PR4
         3 001010   001171 601000 3                  TNZ     s:7269
         3 001011   040000 106500                    CMPC    fill='040'O
         3 001012   400015 400006                    ADSC9   13,,PR4                  cn=2,n=6
         3 001013   000035 000001 xsym               ADSC9   B_VECTNIL+29             cn=0,n=1
         3 001014   001171 601000 3                  TNZ     s:7269
         3 001015   040000 106500                    CMPC    fill='040'O
         3 001016   400002 200010                    ADSC9   2,,PR4                   cn=1,n=8
         3 001017   000035 000001 xsym               ADSC9   B_VECTNIL+29             cn=0,n=1
         3 001020   001171 601000 3                  TNZ     s:7269
         3 001021   200033 236100                    LDQ     FILE_STCLASS,,AUTO
         3 001022   777000 376003                    ANQ     -512,DU
         3 001023   072000 116003                    CMPQ    29696,DU
         3 001024   001171 600000 3                  TZE     s:7269
         3 001025   000100 101500                    MRL     fill='000'O
         3 001026   100000 000001                    ADSC9   0,,PR1                   cn=0,n=1
         3 001027   200150 000004                    ADSC9   FLV+1,,AUTO              cn=0,n=4
         3 001030   200150 236100                    LDQ     FLV+1,,AUTO
         3 001031   000007 116007                    CMPQ    7,DL
         3 001032   001171 604000 3                  TMI     s:7269
         3 001033   000100 101500                    MRL     fill='000'O
         3 001034   100000 000001                    ADSC9   0,,PR1                   cn=0,n=1
         3 001035   200151 000002                    ADSC9   FLV+2,,AUTO              cn=0,n=2
         3 001036   200151 220100                    LDX0    FLV+2,,AUTO
         3 001037   040000 106500                    CMPC    fill='040'O
         3 001040   100000 400006                    ADSC9   0,,PR1                   cn=2,n=6
         3 001041   000106 000006 1                  ADSC9   DEFAULT_KEY_TYPES_FOR_ORGS+4 cn=0,n=6
         3 001042   001171 601000 3                  TNZ     s:7269

      734     7213    3                AND PORT$KEY.PSN = ' ' AND PORT$KEY.UNIQUE.ACCT = ' '
      735     7214    3                AND FILE_STCLASS ~= %FSTCL_EXTERNAL
      736     7215    3                AND PORT$KEY_NAME.LENGTH# >= LENGTHC(FILE_STCLASS) +
PL6.E3A0      #001=VDA$FOPEN File=VDA$FILE.:VDA5TSI                              FRI 07/04/97 11:03 Page:87
      737     7216    3                %LENGTHC(PFK_CONSTANT)
      738     7217    3                AND SUBSTR(PORT$KEY_NAME.BYTES, LENGTHC(FILE_STCLASS),
      739     7218    3                %LENGTHC(PFK_CONSTANT)) = %PFK_CONSTANT THEN
      740     7219    4   TEST_FOR_INTERNAL: DO;

   7219  3 001043                       TEST_FOR_IN* null
      741     7220    4                 CALL INDEX (PFN_INDEX, %CHR_UNDERSCORE, PORT$KEY_NAME.BYTES,

   7220  3 001043   000100 101500                    MRL     fill='000'O
         3 001044   100000 000001                    ADSC9   0,,PR1                   cn=0,n=1
         3 001045   200150 000002                    ADSC9   FLV+1,,AUTO              cn=0,n=2
         3 001046   200150 220100                    LDX0    FLV+1,,AUTO
         3 001047   777771 621010                    EAX1    -7,X0
         3 001050   000000 124540                    SCM     mask='000'O
         3 001051   100002 000011                    ADSC9   2,,PR1                   cn=0,n=*X1
         3 001052   000005 000001 4                  ADSC9   5                        cn=0,n=1
         3 001053   200034 000100                    ARG     PFN_INDEX,,AUTO
         3 001054   000007 236007                    LDQ     7,DL
         3 001055   200034 056100                    ASQ     PFN_INDEX,,AUTO

      742     7221    4                   LENGTHC(FILE_STCLASS) + %LENGTHC(PFK_CONSTANT));
      743     7222    4                 DIR_KEY = SUBSTR(PORT$KEY_NAME.BYTES,

   7222  3 001056   000100 101500                    MRL     fill='000'O
         3 001057   100000 000001                    ADSC9   0,,PR1                   cn=0,n=1
         3 001060   200150 000002                    ADSC9   FLV+1,,AUTO              cn=0,n=2
         3 001061   200150 220100                    LDX0    FLV+1,,AUTO
         3 001062   200034 721100                    LXL1    PFN_INDEX,,AUTO
         3 001063   777771 622011                    EAX2    -7,X1
         3 001064   040100 100540                    MLR     fill='040'O
         3 001065   100002 000012                    ADSC9   2,,PR1                   cn=0,n=*X2
         3 001066   200013 000037                    ADSC9   DIR_KEY,,AUTO            cn=0,n=31

      744     7223    4                   LENGTHC(FILE_STCLASS) + %LENGTHC(PFK_CONSTANT),
      745     7224    4                   PFN_INDEX - (LENGTHC(FILE_STCLASS) + %LENGTHC(PFK_CONSTANT)));
      746     7225    4                 DIR_NODE$ = VD_6E.WS.INTERNAL_DIR$;

PL6.E3A0      #001=VDA$FOPEN File=VDA$FILE.:VDA5TSI                              FRI 07/04/97 11:03 Page:88
   7225  3 001067   000017 236000 xsym               LDQ     VD_6E+15
         3 001070   200030 756100                    STQ     DIR_NODE$,,AUTO

      747     7226    4   FIND_INTERNAL_DIR_NODE:
      748     7227    5                 DO WHILE DIR_NODE$ ~= ADDR(NIL);

   7227  3 001071   001110 710000 3     FIND_INTERN* TRA     s:7234

      749     7228    5                    IF DIR$NODE.KEY = DIR_KEY

   7228  3 001072   200030 470500                    LDP0    DIR_NODE$,,AUTO
         3 001073   040100 106500                    CMPC    fill='040'O
         3 001074   000003 000037                    ADSC9   3,,PR0                   cn=0,n=31
         3 001075   200013 000037                    ADSC9   DIR_KEY,,AUTO            cn=0,n=31
         3 001076   001106 601000 3                  TNZ     s:7233
         3 001077   200033 236100                    LDQ     FILE_STCLASS,,AUTO
         3 001100   000013 676100                    ERQ     11,,PR0
         3 001101   777000 376003                    ANQ     -512,DU
         3 001102   001106 601000 3                  TNZ     s:7233

      750     7229    6                      AND FILE_STCLASS = DIR$NODE.FILE_STCLASS THEN DO;

      751     7230    6                       FILE_NODE$ = DIR$NODE.HEAD$;

   7230  3 001103   000015 236100                    LDQ     13,,PR0
         3 001104   200031 756100                    STQ     FILE_NODE$,,AUTO

      752     7231    6                       EXIT FIND_INTERNAL_DIR_NODE;

   7231  3 001105   001112 710000 3                  TRA     FIND_INTERNAL_FILE_NODE

      753     7232    6                       END;
      754     7233    5                    DIR_NODE$ = DIR$NODE.FLINK$;

   7233  3 001106   000002 236100                    LDQ     2,,PR0
         3 001107   200030 756100                    STQ     DIR_NODE$,,AUTO

PL6.E3A0      #001=VDA$FOPEN File=VDA$FILE.:VDA5TSI                              FRI 07/04/97 11:03 Page:89
      755     7234    5                    END FIND_INTERNAL_DIR_NODE;

   7234  3 001110   000001 116000 xsym               CMPQ    B_VECTNIL+1
         3 001111   001072 601000 3                  TNZ     s:7228

      756     7235
      757     7236    4   FIND_INTERNAL_FILE_NODE:
      758     7237    5                 DO WHILE FILE_NODE$ ~= ADDR(NIL);

   7237  3 001112   001166 710000 3     FIND_INTERN* TRA     s:7251

      759     7238    6                    IF FILE$NODE.DESC.KEY ~= %CLEAR THEN DO;

   7238  3 001113   200031 470500                    LDP0    FILE_NODE$,,AUTO
         3 001114   000000 106500                    CMPC    fill='000'O
         3 001115   000004 000010                    ADSC9   4,,PR0                   cn=0,n=8
         3 001116   000002 000002 xsym               ADSC9   B_VECTNIL+2              cn=0,n=2
         3 001117   001164 600000 3                  TZE     s:7250

      760     7239    6                       FILE_NODE_KEY_NAME$ = ADDR(FILE$NODE.DESC.KEY.V$ ->

   7239  3 001120   000005 471500                    LDP1    5,,PR0
         3 001121   200150 451500                    STP1    FLV+1,,AUTO
         3 001122   200150 236100                    LDQ     FLV+1,,AUTO
         3 001123   000004 036000 4                  ADLQ    4
         3 001124   200032 756100                    STQ     FILE_NODE_KEY_NAME$,,AUTO

      761     7240    6                         VD$FILE_KEY.UNIQUE.FNAME);
      762     7241    6                       IF FILE$NODE_KEY_NAME.BYTES = PORT$KEY_NAME.BYTES THEN

   7241  3 001125   200032 471500                    LDP1    FILE_NODE_KEY_NAME$,,AUTO
         3 001126   000100 101500                    MRL     fill='000'O
         3 001127   100000 000001                    ADSC9   0,,PR1                   cn=0,n=1
         3 001130   200150 000002                    ADSC9   FLV+1,,AUTO              cn=0,n=2
         3 001131   200150 220100                    LDX0    FLV+1,,AUTO
         3 001132   200027 473500                    LDP3    PORT_KEY_NAME$,,AUTO
         3 001133   000100 101500                    MRL     fill='000'O
PL6.E3A0      #001=VDA$FOPEN File=VDA$FILE.:VDA5TSI                              FRI 07/04/97 11:03 Page:90
         3 001134   300000 000001                    ADSC9   0,,PR3                   cn=0,n=1
         3 001135   200151 000002                    ADSC9   FLV+2,,AUTO              cn=0,n=2
         3 001136   200151 221100                    LDX1    FLV+2,,AUTO
         3 001137   040140 106540                    CMPC    fill='040'O
         3 001140   100000 200010                    ADSC9   0,,PR1                   cn=1,n=*X0
         3 001141   300000 200011                    ADSC9   0,,PR3                   cn=1,n=*X1
         3 001142   001171 600000 3                  TZE     s:7269

      763     7242    6                          EXIT FIND_INTERNAL_FILE_NODE;
      764     7243    7                       IF FILE$NODE_KEY_NAME.BYTES < PORT$KEY_NAME.BYTES THEN DO;

   7243  3 001143   000100 101500                    MRL     fill='000'O
         3 001144   100000 000001                    ADSC9   0,,PR1                   cn=0,n=1
         3 001145   200150 000002                    ADSC9   FLV+1,,AUTO              cn=0,n=2
         3 001146   200150 220100                    LDX0    FLV+1,,AUTO
         3 001147   000100 101500                    MRL     fill='000'O
         3 001150   300000 000001                    ADSC9   0,,PR3                   cn=0,n=1
         3 001151   200151 000002                    ADSC9   FLV+2,,AUTO              cn=0,n=2
         3 001152   200151 221100                    LDX1    FLV+2,,AUTO
         3 001153   040140 106540                    CMPC    fill='040'O
         3 001154   100000 200010                    ADSC9   0,,PR1                   cn=1,n=*X0
         3 001155   300000 200011                    ADSC9   0,,PR3                   cn=1,n=*X1
         3 001156   001164 603000 3                  TRC     s:7250

      765     7244                            /* File not found, but this is where it would go */
      766     7245    7                          WHERE_TO_INSERT_NEW_FILE$ = FILE_NODE$;

   7245  3 001157   200031 236100                    LDQ     FILE_NODE$,,AUTO
         3 001160   200035 756100                    STQ     WHERE_TO_INSERT_NEW_FILE$,,AUTO

      767     7246    7                          FILE_NODE$ = ADDR(NIL);

   7246  3 001161   000001 236000 xsym               LDQ     B_VECTNIL+1
         3 001162   200031 756100                    STQ     FILE_NODE$,,AUTO

      768     7247    7                          EXIT FIND_INTERNAL_FILE_NODE;

PL6.E3A0      #001=VDA$FOPEN File=VDA$FILE.:VDA5TSI                              FRI 07/04/97 11:03 Page:91
   7247  3 001163   001171 710000 3                  TRA     s:7269

      769     7248    7                          END;
      770     7249    6                       END;
      771     7250    5                    FILE_NODE$ = FILE$NODE.FLINK$;

   7250  3 001164   000002 236100                    LDQ     2,,PR0
         3 001165   200031 756100                    STQ     FILE_NODE$,,AUTO

      772     7251    5                    END FIND_INTERNAL_FILE_NODE;

   7251  3 001166   200031 236100                    LDQ     FILE_NODE$,,AUTO
         3 001167   000001 116000 xsym               CMPQ    B_VECTNIL+1
         3 001170   001113 601000 3                  TNZ     s:7238

      773     7252    4                 END TEST_FOR_INTERNAL;

      774     7253
      775     7254                /*
      776     7255                *    At this point:
      777     7256                *    If we found the file internally, FILE_NODE$ points to it.
      778     7257                *    If we didn't find it:
      779     7258                *        DIR_NODE$ points to the directory in which it
      780     7259                *            belongs (=NIL if it belongs external);
      781     7260                *        WHERE_TO_INSERT_NEW_FILE$ points to the file
      782     7261                *            before which the file should appear (=NIL if
      783     7262                *            the file should appear at the end of the
      784     7263                *            directory).
      785     7264                *        If this is a create-open, then create
      786     7265                *        the file internal; if not a create-open, then look
      787     7266                *        for the file external.
      788     7267                */
      789     7268
      790     7269    3              IF FILE_NODE$ ~= ADDR(NIL)

   7269  3 001171   200031 236100                    LDQ     FILE_NODE$,,AUTO
         3 001172   000001 116000 xsym               CMPQ    B_VECTNIL+1
PL6.E3A0      #001=VDA$FOPEN File=VDA$FILE.:VDA5TSI                              FRI 07/04/97 11:03 Page:92
         3 001173   001205 601000 3                  TNZ     s:7273
         3 001174   200030 236100                    LDQ     DIR_NODE$,,AUTO
         3 001175   000001 116000 xsym               CMPQ    B_VECTNIL+1
         3 001176   001216 600000 3                  TZE     s:7278
         3 001177   200006 470500                    LDP0    @OPTIONS,,AUTO
         3 001200   000002 720100                    LXL0    2,,PR0
         3 001201   000001 100003                    CMPX0   1,DU
         3 001202   001205 600000 3                  TZE     s:7273
         3 001203   000003 100003                    CMPX0   3,DU
         3 001204   001216 601000 3                  TNZ     s:7278

      791     7270    3                OR (DIR_NODE$ ~= ADDR(NIL)
      792     7271    3                AND (OPTIONS.EXIST# = %EX_NEW
      793     7272    4                OR OPTIONS.EXIST# = %EX_ANY)) THEN DO;

      794     7273    4                 CALL OPEN_THE_PORT_INTERNAL (FILE_NODE$,

   7273  3 001205   200030 236100                    LDQ     DIR_NODE$,,AUTO
         3 001206   200043 756100                    STQ     EXT_DCB$+1,,AUTO
         3 001207   200035 630500                    EPPR0   WHERE_TO_INSERT_NEW_FILE$,,AUTO
         3 001210   200042 450500                    STP0    PORT_KEY$+1,,AUTO
         3 001211   200031 631500                    EPPR1   FILE_NODE$,,AUTO
         3 001212   200041 451500                    STP1    CONSEC_BY_ACCIDENT+2,,AUTO
         3 001213   001460 701000 3                  TSX1    OPEN_THE_PORT_INTERNAL
         3 001214   001456 702000 3                  TSX2    OALLOC_FAILED

      795     7274    4                   WHERE_TO_INSERT_NEW_FILE$, DIR$NODE)
      796     7275    4                   ALTRET (OPEN_THE_PORT_INTERNAL_FAILED);
      797     7276    4                 END;

   7276  3 001215   001220 710000 3                  TRA     s:7288

      798     7277    4              ELSE DO;

      799     7278    4                 CALL OPEN_THE_PORT_EXTERNAL

   7278  3 001216   002003 701000 3                  TSX1    OPEN_THE_PORT_EXTERNAL
PL6.E3A0      #001=VDA$FOPEN File=VDA$FILE.:VDA5TSI                              FRI 07/04/97 11:03 Page:93
         3 001217   001456 702000 3                  TSX2    OALLOC_FAILED

      800     7279    4                   ALTRET (OPEN_THE_PORT_EXTERNAL_FAILED);
      801     7280    4                 END;

      802     7281    3              END OPEN_THE_PORT;

      803     7282
      804     7283
      805     7284                /*
      806     7285                *  Stream's port is now open.
      807     7286                *  Merge info from Structure and port into stream.
      808     7287                */
      809     7288    2           STRUCTURE_LEVEL_NODE$ = STRUCTURE.HEAD$;

   7288  3 001220   200006 470500                    LDP0    @OPTIONS,,AUTO
         3 001221   000000 471500                    LDP1    0,,PR0
         3 001222   100012 236100                    LDQ     10,,PR1
         3 001223   200024 756100                    STQ     STRUCTURE_LEVEL_NODE$,,AUTO

      810     7289    2           ENTIRE_STRUCTURE_PROTECTED = %TRUE; /* Assume no holes */

   7289  3 001224   400000 236003                    LDQ     -131072,DU
         3 001225   200036 756100                    STQ     ENTIRE_STRUCTURE_PROTECTED,,AUTO

      811     7290    2           CONSEC_BY_ACCIDENT = %FALSE;    /* Assume user knows */

   7290  3 001226   200037 450100                    STZ     CONSEC_BY_ACCIDENT,,AUTO

      812     7291    3           DO LEVEL = %LVL_FILE TO STRUCTURE.COUNT# - 1;

   7291  3 001227   200007 450100                    STZ     LEVEL,,AUTO
         3 001230   001335 710000 3                  TRA     s:7310+1

      813     7292    3              STRUCTURE_LEVEL$ = STRUCTURE$LEVEL_NODE.DESC.SPEC.V$;

   7292  3 001231   200024 470500                    LDP0    STRUCTURE_LEVEL_NODE$,,AUTO
PL6.E3A0      #001=VDA$FOPEN File=VDA$FILE.:VDA5TSI                              FRI 07/04/97 11:03 Page:94
         3 001232   000007 236100                    LDQ     7,,PR0
         3 001233   200025 756100                    STQ     STRUCTURE_LEVEL$,,AUTO

      814     7293
      815     7294    3              IF PORT.LEVEL.ORG# (LEVEL) = %ORG_CONSEC

   7294  3 001234   200003 471500                    LDP1    @STREAM,,AUTO
         3 001235   100001 473500                    LDP3    1,,PR1
         3 001236   200007 236100                    LDQ     LEVEL,,AUTO
         3 001237   000007 402007                    MPY     7,DL
         3 001240   300023 220106                    LDX0    19,QL,PR3
         3 001241   000001 100003                    CMPX0   1,DU
         3 001242   001251 601000 3                  TNZ     s:7298
         3 001243   200025 474500                    LDP4    STRUCTURE_LEVEL$,,AUTO
         3 001244   400002 721100                    LXL1    2,,PR4
         3 001245   000001 101003                    CMPX1   1,DU
         3 001246   001251 600000 3                  TZE     s:7298

      816     7295    3                AND STRUCTURE$LEVEL.ORG# ~= %ORG_CONSEC THEN
      817     7296    3                 CONSEC_BY_ACCIDENT = %TRUE;

   7296  3 001247   400000 236003                    LDQ     -131072,DU
         3 001250   200037 756100                    STQ     CONSEC_BY_ACCIDENT,,AUTO

      818     7297
      819     7298    3              STREAM.PROTECT (LEVEL) =

   7298  3 001251   300004 236100                    LDQ     4,,PR3
         3 001252   000043 772000                    QRL     35
         3 001253   200006 474500                    LDP4    @OPTIONS,,AUTO
         3 001254   200150 756100                    STQ     FLV+1,,AUTO
         3 001255   400002 236100                    LDQ     2,,PR4
         3 001256   000020 772000                    QRL     16
         3 001257   000006 376000 4                  ANQ     6
         3 001260   003100 060406                    CSL     bolr='003'O
         3 001261   000001 000004 1                  BDSC    PROTECT_FLAGS_FOR_OPTION,Q by=0,bit=0,n=4
         3 001262   200151 000044                    BDSC    FLV+2,,AUTO              by=0,bit=0,n=36
PL6.E3A0      #001=VDA$FOPEN File=VDA$FILE.:VDA5TSI                              FRI 07/04/97 11:03 Page:95
         3 001263   200150 235100                    LDA     FLV+1,,AUTO
         3 001264   000002 735000                    ALS     2
         3 001265   003100 060405                    CSL     bolr='003'O
         3 001266   000000 000004 1                  BDSC    PROTECT_FLAGS_FOR_BOOL,A by=0,bit=0,n=4
         3 001267   200152 000044                    BDSC    FLV+3,,AUTO              by=0,bit=0,n=36
         3 001270   200152 236100                    LDQ     FLV+3,,AUTO
         3 001271   200151 276100                    ORQ     FLV+2,,AUTO
         3 001272   200025 473500                    LDP3    STRUCTURE_LEVEL$,,AUTO
         3 001273   200153 756100                    STQ     FLV+4,,AUTO
         3 001274   300004 236100                    LDQ     4,,PR3
         3 001275   740000 376003                    ANQ     -16384,DU
         3 001276   200154 756100                    STQ     FLV+5,,AUTO
         3 001277   200153 236100                    LDQ     FLV+4,,AUTO
         3 001300   200154 276100                    ORQ     FLV+5,,AUTO
         3 001301   200155 756100                    STQ     FLV+6,,AUTO
         3 001302   200007 235100                    LDA     LEVEL,,AUTO
         3 001303   000002 735000                    ALS     2
         3 001304   001306 605000 3                  TPL     s:7298+29
         3 001305   000044 035003                    ADLA    36,DU
         3 001306   003105 060500                    CSL     bolr='003'O
         3 001307   200155 000044                    BDSC    FLV+6,,AUTO              by=0,bit=0,n=36
         3 001310   100002 400004                    BDSC    2,A,PR1                  by=2,bit=0,n=4

      820     7299    3                PROTECT_FLAGS_FOR_BOOL (BITBIN(PORT.INTRINSIC_PROTECT)) |
      821     7300    3                PROTECT_FLAGS_FOR_OPTION (OPTIONS.PROTECT#) |
      822     7301    3                STRUCTURE$LEVEL.PROTECT;
      823     7302    3              IF VD_ACCESSOR_PRIV.ACCESS (%NAC_WRITE)

   7302  3 001311   000000 236000 xsym               LDQ     VD_ACCESSOR_PRIV
         3 001312   100000 316003                    CANQ    32768,DU
         3 001313   001325 600000 3                  TZE     s:7306
         3 001314   040000 316003                    CANQ    16384,DU
         3 001315   001325 600000 3                  TZE     s:7306

      824     7303    3                AND VD_ACCESSOR_PRIV.ACCESS (%NAC_DELETE) THEN
      825     7304    3                 STREAM.PROTECT (LEVEL) = %CLEAR;

PL6.E3A0      #001=VDA$FOPEN File=VDA$FILE.:VDA5TSI                              FRI 07/04/97 11:03 Page:96
   7304  3 001316   200007 235100                    LDA     LEVEL,,AUTO
         3 001317   000002 735000                    ALS     2
         3 001320   001322 605000 3                  TPL     s:7304+4
         3 001321   000044 035003                    ADLA    36,DU
         3 001322   003105 060400                    CSL     bolr='003'O
         3 001323   000002 000001 xsym               BDSC    B_VECTNIL+2              by=0,bit=0,n=1
         3 001324   100002 400004                    BDSC    2,A,PR1                  by=2,bit=0,n=4

      826     7305
      827     7306    3              IF STRUCTURE$LEVEL.PROTECT ~= %CO_ALL_BITS THEN

   7306  3 001325   300004 236100                    LDQ     4,,PR3
         3 001326   740000 376003                    ANQ     -16384,DU
         3 001327   340000 116003                    CMPQ    114688,DU
         3 001330   001332 600000 3                  TZE     s:7309

      828     7307    3                 ENTIRE_STRUCTURE_PROTECTED = %FALSE;

   7307  3 001331   200036 450100                    STZ     ENTIRE_STRUCTURE_PROTECTED,,AUTO

      829     7308
      830     7309    3              STRUCTURE_LEVEL_NODE$ = STRUCTURE$LEVEL_NODE.FLINK$;

   7309  3 001332   000002 236100                    LDQ     2,,PR0
         3 001333   200024 756100                    STQ     STRUCTURE_LEVEL_NODE$,,AUTO

      831     7310    3              END;

   7310  3 001334   200007 054100                    AOS     LEVEL,,AUTO
         3 001335   200006 470500                    LDP0    @OPTIONS,,AUTO
         3 001336   000000 471500                    LDP1    0,,PR0
         3 001337   200007 236100                    LDQ     LEVEL,,AUTO
         3 001340   100014 116100                    CMPQ    12,,PR1
         3 001341   001231 604000 3                  TMI     s:7292

      832     7311
      833     7312    2           IF OPTIONS.PROTECT# = %DONT_PROTECT
PL6.E3A0      #001=VDA$FOPEN File=VDA$FILE.:VDA5TSI                              FRI 07/04/97 11:03 Page:97

   7312  3 001342   000002 220100                    LDX0    2,,PR0
         3 001343   000002 100003                    CMPX0   2,DU
         3 001344   001412 601000 3                  TNZ     s:7324
         3 001345   200003 473500                    LDP3    @STREAM,,AUTO
         3 001346   300001 474500                    LDP4    1,,PR3
         3 001347   400004 234100                    SZN     4,,PR4
         3 001350   001353 604000 3                  TMI     s:7312+9
         3 001351   200036 234100                    SZN     ENTIRE_STRUCTURE_PROTECTED,,AUTO
         3 001352   001412 605000 3                  TPL     s:7324
         3 001353   400004 721100                    LXL1    4,,PR4
         3 001354   001362 601000 3                  TNZ     s:7316
         3 001355   000000 236000 xsym               LDQ     VD_ACCESSOR_PRIV
         3 001356   100000 316003                    CANQ    32768,DU
         3 001357   001362 600000 3                  TZE     s:7316
         3 001360   040000 316003                    CANQ    16384,DU
         3 001361   001412 601000 3                  TNZ     s:7324

      834     7313    2             AND (PORT.INTRINSIC_PROTECT OR ENTIRE_STRUCTURE_PROTECTED)
      835     7314    2             AND NOT (PORT.DCB# = 0 AND VD_ACCESSOR_PRIV.ACCESS (%NAC_WRITE)
      836     7315    3             AND VD_ACCESSOR_PRIV.ACCESS (%NAC_DELETE)) THEN DO;

      837     7316    3              CALL SET_ERROR_WARN (%E$CANT_WRITE);

   7316  3 001362   000010 236000 4                  LDQ     8
         3 001363   200145 756100                    STQ     VLP_SN+5,,AUTO
         3 001364   002545 701000 3                  TSX1    SET_ERROR_WARN
         3 001365   000000 011000                    NOP     0

      838     7317    3              IF PORT.DCB#~=0 THEN

   7317  3 001366   200003 470500                    LDP0    @STREAM,,AUTO
         3 001367   000001 471500                    LDP1    1,,PR0
         3 001370   100004 720100                    LXL0    4,,PR1
         3 001371   001406 600000 3                  TZE     s:7320

      839     7318    3                 IF DCBADDR(PORT.DCB#) -> F$DCB.FUN# = %IN# THEN
PL6.E3A0      #001=VDA$FOPEN File=VDA$FILE.:VDA5TSI                              FRI 07/04/97 11:03 Page:98

   7318  3 001372   000003 473400 4                  LDP3    3
         3 001373   300000 474500                    LDP4    0,,PR3
         3 001374   400000 475510                    LDP5    0,X0,PR4
         3 001375   500032 236100                    LDQ     26,,PR5
         3 001376   000777 376003                    ANQ     511,DU
         3 001377   000002 116003                    CMPQ    2,DU
         3 001400   001406 601000 3                  TNZ     s:7320

      840     7319    3                    VD$ERR.ERR.CODE# = %E$VD_FILEBUSY;

   7319  3 001401   200010 476500                    LDP6    VD_ERR$,,AUTO
         3 001402   600002 236100                    LDQ     2,,PR6
         3 001403   000011 376000 4                  ANQ     9
         3 001404   004350 276007                    ORQ     2280,DL
         3 001405   600002 756100                    STQ     2,,PR6

      841     7320    3              CALL VDG$EREPORT_ERROR;

   7320  3 001406   000002 631400 xsym               EPPR1   B_VECTNIL+2
         3 001407   000000 701000 xent               TSX1    VDG$EREPORT_ERROR
         3 001410   000000 011000                    NOP     0

      842     7321    3              CONSEC_BY_ACCIDENT = %FALSE; /* Don't warn twice */

   7321  3 001411   200037 450100                    STZ     CONSEC_BY_ACCIDENT,,AUTO

      843     7322    3              END;

      844     7323
      845     7324    2           IF CONSEC_BY_ACCIDENT

   7324  3 001412   200037 234100                    SZN     CONSEC_BY_ACCIDENT,,AUTO
         3 001413   001427 605000 3                  TPL     s:7343
         3 001414   200006 470500                    LDP0    @OPTIONS,,AUTO
         3 001415   000002 220100                    LDX0    2,,PR0
         3 001416   000001 100003                    CMPX0   1,DU
PL6.E3A0      #001=VDA$FOPEN File=VDA$FILE.:VDA5TSI                              FRI 07/04/97 11:03 Page:99
         3 001417   001427 600000 3                  TZE     s:7343

      846     7325    3             AND OPTIONS.PROTECT# ~= %PROTECT THEN DO;

      847     7326                   /*
      848     7327                   *   File actually opened is consec, but user requested
      849     7328                   *    it via an org-less Structure, meaning open any
      850     7329                   *    file by that name no matter what org, or a Structure
      851     7330                   *    specifying some other org.  If the user
      852     7331                   *    thinks they can insert or delete records, they're
      853     7332                   *    sadly mistaken:  warn them.
      854     7333                   */
      855     7334    3              CALL SET_ERROR_WARN (%E$CANT_INSERT_DELETE_RECORDS);

   7334  3 001420   000013 236000 4                  LDQ     11
         3 001421   200145 756100                    STQ     VLP_SN+5,,AUTO
         3 001422   002545 701000 3                  TSX1    SET_ERROR_WARN
         3 001423   000000 011000                    NOP     0

      856     7335    3              CALL VDG$EREPORT_ERROR;

   7335  3 001424   000002 631400 xsym               EPPR1   B_VECTNIL+2
         3 001425   000000 701000 xent               TSX1    VDG$EREPORT_ERROR
         3 001426   000000 011000                    NOP     0

      857     7336    3              END;

      858     7337
      859     7338
      860     7339                /*
      861     7340                *   Stream open! Finally!
      862     7341                */
      863     7342
      864     7343    2           STREAM.LAST_OP# = %ACCOP_OPEN;

   7343  3 001427   000001 220003                    LDX0    1,DU
         3 001430   200003 470500                    LDP0    @STREAM,,AUTO
PL6.E3A0      #001=VDA$FOPEN File=VDA$FILE.:VDA5TSI                              FRI 07/04/97 11:03 Page:100
         3 001431   000002 740100                    STX0    2,,PR0

      865     7344
      866     7345    2           IF VD_$$MON_ACC.V# > 0 THEN

   7345  3 001432   000003 235000 xsym               LDA     VD_$$MON_ACC+3
         3 001433   001440 604400 3                  TMOZ    s:7347

      867     7346    2              CALL VDG$MACC_RETURN (STREAM);

   7346  3 001434   200003 630500                    EPPR0   @STREAM,,AUTO
         3 001435   000017 631400 xsym               EPPR1   B_VECTNIL+15
         3 001436   000000 701000 xent               TSX1    VDG$MACC_RETURN
         3 001437   000000 011000                    NOP     0

      868     7347    2           RETURN;

   7347  3 001440   200012 221300                    LDX1  ! VD_NUMBER$+1,,AUTO
         3 001441   000001 702211                    TSX2  ! 1,X1

      869     7348
      870     7349
      871     7350
      872     7351    2   PROTECT_CONFLICTS_W_NEW_FAILURE:
      873     7352    2           CALL SET_ERROR_SERIOUS (%E$PROTECT_CONFLICTS_W_NEW);

   7352  3 001442   000015 236000 4     PROTECT_CON* LDQ     13
         3 001443   200145 756100                    STQ     VLP_SN+5,,AUTO
         3 001444   002541 701000 3                  TSX1    SET_ERROR_SERIOUS
         3 001445   000000 011000                    NOP     0

      874     7353    2           ALTRETURN;

   7353  3 001446   200012 221300                    LDX1  ! VD_NUMBER$+1,,AUTO
         3 001447   000000 702211                    TSX2  ! 0,X1

      875     7354
PL6.E3A0      #001=VDA$FOPEN File=VDA$FILE.:VDA5TSI                              FRI 07/04/97 11:03 Page:101
      876     7355
      877     7356    2   EXIST_CONFLICT_FAILURE:
      878     7357    2           CALL SET_ERROR_SERIOUS (%E$VD_CREATERR);

   7357  3 001450   000017 236000 4     EXIST_CONFL* LDQ     15
         3 001451   200145 756100                    STQ     VLP_SN+5,,AUTO
         3 001452   002541 701000 3                  TSX1    SET_ERROR_SERIOUS
         3 001453   000000 011000                    NOP     0

      879     7358    2           ALTRETURN;

   7358  3 001454   200012 221300                    LDX1  ! VD_NUMBER$+1,,AUTO
         3 001455   000000 702211                    TSX2  ! 0,X1

   7345  3 001456                       OALLOC_FAIL* null
   7345  3 001456                       OPEN_THE_PO* null
   7345  3 001456                       OPEN_THE_PO* null
      880     7359
      881     7360
      882     7361    2   OALLOC_FAILED: ;
      883     7362    2   OPEN_THE_PORT_INTERNAL_FAILED: ;
      884     7363    2   OPEN_THE_PORT_EXTERNAL_FAILED: ;
      885     7364    2           ALTRETURN;

   7364  3 001456   200012 221300                    LDX1  ! VD_NUMBER$+1,,AUTO
         3 001457   000000 702211                    TSX2  ! 0,X1

      886     7365
      887     7366        %BOX (TITLE=OPEN_THE_PORT_INTERNAL, PAGE=YES);
              7374    2
              7378    2   /***************************************************************************
              7380    2    *                                                                         *
              7384    2            *                           OPEN_THE_PORT_INTERNAL                       *
              7386    2            *                                                                        *
              7388    2          ***************************************************************************/

      888     7392
PL6.E3A0      #001=VDA$FOPEN File=VDA$FILE.:VDA5TSI                              FRI 07/04/97 11:03 Page:102
      889     7393        /*I* NAME: OPEN_THE_PORT_INTERNAL
      890     7394            PARAMETERS:
      891     7395                FILE_NODE$ - Points to the VD$FILE_NODE at the file level
      892     7396                    of the internal file we're opening to.  For a create
      893     7397                    open, this must be ADDR(NIL).
      894     7398                INSERT_NODE$ - For a create open, points to the VD$FILE_NODE
      895     7399                    in front of which (in the directory) we should insert the
      896     7400                    file being created; if we should insert the new file at
      897     7401                    the end of the directory, and for non-create opens,
      898     7402                    INSERT_NODE$ must be ADDR(NIL).
      899     7403                DIR_NODE - If this is a create-open, DIR_NODE must be the
      900     7404                    node for the directory in which the file belongs.  Ignored
      901     7405                    for non-create opens.
      902     7406            INPUT:
      903     7407                PORT must be the Port to use; it must currently be closed.
      904     7408                OPTIONS must be the options to use.
      905     7409                STRUCTURE$SPEC must be the VD$STRUCTURE_SPEC to use.
      906     7410            OUTPUT:
      907     7411                PORT's DCB, if any, will be detached.
      908     7412                FILE_NODE$ - If this is a create-open, will point to the
      909     7413                    level-0 FileNode created for the file and inserted into
      910     7414                    DIR_NODE's directory.
      911     7415                PORT.LAST_OP, .EXIST, and .INTRINSIC_PROTECT will be
      912     7416                    set appropriately.
      913     7417                PORT.FIT$ will point to a copy of the file's FIT, if any.
      914     7418                PORT.LEVEL.ORGs, .KEY_TYPEs, and .SPEC_TYPEs will be set from the
      915     7419                    Structure and/or the file actually opened.
      916     7420                PORT.LEVEL.SPEC, .DATA$, and .INTERNAL$ at the file level will
      917     7421                    be set appropriately.
      918     7422            DESCRIPTION:
      919     7423                Free any DCB attached to the port.
      920     7424                If this is a create-open, build the level-0 FileNode and
      921     7425                    insert it into the file tree.
      922     7426                Set values in the port based on the file opened.
      923     7427        */
      924     7428
      925     7429    2   OPEN_THE_PORT_INTERNAL: PROC (FILE_NODE$, INSERT_NODE$, DIR_NODE) ALTRET;
PL6.E3A0      #001=VDA$FOPEN File=VDA$FILE.:VDA5TSI                              FRI 07/04/97 11:03 Page:103

   7429  3 001460   200040 741300       OPEN_THE_PO* STX1  ! CONSEC_BY_ACCIDENT+1,,AUTO

      926     7430
      927     7431    3   DCL FILE_NODE$ PTR;
      928     7432    3   DCL INSERT_NODE$ PTR;
      929     7433        %VD$DIR_NODE (NAME=DIR_NODE, STCLASS=PARAM);
      930     7471
      931     7472
      932     7473
      933     7474        %VD$FILE_NODE (NAME=FILE$NODE, STCLASS="BASED(FILE_NODE$)");
      934     7567        %VD$FILE_NODE (NAME=INSERT$NODE, STCLASS="BASED(INSERT_NODE$)");
      935     7660        %VD$FIT;
      936     7696
      937     7697
      938     7698
      939     7699                %INCREMENT (INDX=%STG_OPEN_INT_FILE);

   7700  3 001461   000074 054000 xsym               AOS     VD_6E+60

      940     7702
      941     7703    4           IF PORT.DCB# ~= 0 THEN DO;

   7703  3 001462   200003 470500                    LDP0    @STREAM,,AUTO
         3 001463   000001 471500                    LDP1    1,,PR0
         3 001464   100004 720100                    LXL0    4,,PR1
         3 001465   001476 600000 3                  TZE     s:7714

      942     7704                   /* Free the DCB attached to this port */
      943     7705    4              CALL VDG$OFREE_DCB (PORT.DCB#)

   7705  3 001466   200151 451500                    STP1    FLV+2,,AUTO
         3 001467   200151 236100                    LDQ     FLV+2,,AUTO
         3 001470   000020 036000 4                  ADLQ    16
         3 001471   200150 756100                    STQ     FLV+1,,AUTO
         3 001472   200150 630500                    EPPR0   FLV+1,,AUTO
         3 001473   000017 631400 xsym               EPPR1   B_VECTNIL+15
PL6.E3A0      #001=VDA$FOPEN File=VDA$FILE.:VDA5TSI                              FRI 07/04/97 11:03 Page:104
         3 001474   000000 701000 xent               TSX1    VDG$OFREE_DCB
         3 001475   002001 702000 3                  TSX2    OALLOC_FAILED

      944     7706    4                ALTRET (OFREE_DCB_FAILED);
      945     7707    4              END;

      946     7708
      947     7709                /*
      948     7710                *   If this is a create-open, build the level-0 FileNode
      949     7711                *       and insert it into the file tree.
      950     7712                */
      951     7713
      952     7714    3           IF FILE_NODE$ = ADDR(NIL) THEN

   7714  3 001476   200041 470500                    LDP0    @FILE_NODE$,,AUTO
         3 001477   000000 236100                    LDQ     0,,PR0
         3 001500   000001 116000 xsym               CMPQ    B_VECTNIL+1
         3 001501   001611 601000 3                  TNZ     s:7745

      953     7715    4   CREATE_INTERNAL_FILE: DO;

   7715  3 001502                       CREATE_INTE* null
      954     7716    4              CALL VDG$OALLOC (%CLS_FILE_NODE, FILE_NODE$)

   7716  3 001502   200041 236100                    LDQ     @FILE_NODE$,,AUTO
         3 001503   000022 235000 4                  LDA     18
         3 001504   200150 757100                    STAQ    FLV+1,,AUTO
         3 001505   200150 630500                    EPPR0   FLV+1,,AUTO
         3 001506   000020 631400 xsym               EPPR1   B_VECTNIL+16
         3 001507   000000 701000 xent               TSX1    VDG$OALLOC
         3 001510   002001 702000 3                  TSX2    OALLOC_FAILED

      955     7717    4                ALTRET (OALLOC_FAILED);
      956     7718    4              FILE$NODE.DESC.KEY = PORT.FILE_KEY;

   7718  3 001511   200041 470500                    LDP0    @FILE_NODE$,,AUTO
         3 001512   000000 471500                    LDP1    0,,PR0
PL6.E3A0      #001=VDA$FOPEN File=VDA$FILE.:VDA5TSI                              FRI 07/04/97 11:03 Page:105
         3 001513   200003 473500                    LDP3    @STREAM,,AUTO
         3 001514   300001 474500                    LDP4    1,,PR3
         3 001515   000100 100500                    MLR     fill='000'O
         3 001516   400010 000010                    ADSC9   8,,PR4                   cn=0,n=8
         3 001517   100004 000010                    ADSC9   4,,PR1                   cn=0,n=8

      957     7719    5              IF FILE$NODE.DESC.KEY.REP# = %REP_REMOTE THEN DO;

   7719  3 001520   000000 471500                    LDP1    0,,PR0
         3 001521   100004 720100                    LXL0    4,,PR1
         3 001522   000002 100003                    CMPX0   2,DU
         3 001523   001535 601000 3                  TNZ     s:7725

      958     7720    5                 CALL VDG$OCOPY (PORT.FILE_KEY.V$ -> VD$FILE_KEY,

   7720  3 001524   300001 474500                    LDP4    1,,PR3
         3 001525   400011 475500                    LDP5    9,,PR4
         3 001526   100005 636500                    EPPR6   5,,PR1
         3 001527   200151 456500                    STP6    FLV+2,,AUTO
         3 001530   200150 455500                    STP5    FLV+1,,AUTO
         3 001531   200150 630500                    EPPR0   FLV+1,,AUTO
         3 001532   000020 631400 xsym               EPPR1   B_VECTNIL+16
         3 001533   000000 701000 xent               TSX1    VDG$OCOPY
         3 001534   002001 702000 3                  TSX2    OALLOC_FAILED

      959     7721    5                   FILE$NODE.DESC.KEY.V$)
      960     7722    5                   ALTRET (OCOPY_FAILED);
      961     7723    5                 END;

      962     7724                   /* Give user full access to this file */
      963     7725    4              FILE$NODE.ACCESS = %NAC_ALL_BITS;

   7725  3 001535   200041 470500                    LDP0    @FILE_NODE$,,AUTO
         3 001536   000000 471500                    LDP1    0,,PR0
         3 001537   777000 236003                    LDQ     -512,DU
         3 001540   100003 552140                    STBQ    3,'40'O,PR1

PL6.E3A0      #001=VDA$FOPEN File=VDA$FILE.:VDA5TSI                              FRI 07/04/97 11:03 Page:106
      964     7726
      965     7727                   /* Link FILE$NODE into the file tree */
      966     7728    4              IF INSERT_NODE$ = ADDR(NIL) THEN

   7728  3 001541   200042 471500                    LDP1    @INSERT_NODE$,,AUTO
         3 001542   100000 236100                    LDQ     0,,PR1
         3 001543   000001 116000 xsym               CMPQ    B_VECTNIL+1
         3 001544   001552 601000 3                  TNZ     s:7731

      967     7729    4                 FILE$NODE.BLINK$ = DIR_NODE.TAIL$;

   7729  3 001545   000000 473500                    LDP3    0,,PR0
         3 001546   200043 474500                    LDP4    @DIR_NODE,,AUTO
         3 001547   400016 236100                    LDQ     14,,PR4
         3 001550   300001 756100                    STQ     1,,PR3
         3 001551   001556 710000 3                  TRA     s:7732

      968     7730    4              ELSE
      969     7731    4                 FILE$NODE.BLINK$ = INSERT$NODE.BLINK$;

   7731  3 001552   000000 473500                    LDP3    0,,PR0
         3 001553   100000 474500                    LDP4    0,,PR1
         3 001554   400001 236100                    LDQ     1,,PR4
         3 001555   300001 756100                    STQ     1,,PR3

      970     7732    4              IF FILE$NODE.BLINK$ = ADDR(NIL) THEN

   7732  3 001556   000000 473500                    LDP3    0,,PR0
         3 001557   300001 236100                    LDQ     1,,PR3
         3 001560   000001 116000 xsym               CMPQ    B_VECTNIL+1
         3 001561   001566 601000 3                  TNZ     s:7735

      971     7733    4                 DIR_NODE.HEAD$ = FILE_NODE$;

   7733  3 001562   000000 236100                    LDQ     0,,PR0
         3 001563   200043 474500                    LDP4    @DIR_NODE,,AUTO
         3 001564   400015 756100                    STQ     13,,PR4
PL6.E3A0      #001=VDA$FOPEN File=VDA$FILE.:VDA5TSI                              FRI 07/04/97 11:03 Page:107
         3 001565   001571 710000 3                  TRA     s:7736

      972     7734    4              ELSE
      973     7735    4                 FILE$NODE.BLINK$->VD$FILE_NODE.FLINK$ = FILE_NODE$;

   7735  3 001566   300001 474500                    LDP4    1,,PR3
         3 001567   000000 236100                    LDQ     0,,PR0
         3 001570   400002 756100                    STQ     2,,PR4

      974     7736    4              FILE$NODE.FLINK$ = INSERT_NODE$;

   7736  3 001571   000000 473500                    LDP3    0,,PR0
         3 001572   100000 236100                    LDQ     0,,PR1
         3 001573   300002 756100                    STQ     2,,PR3

      975     7737    4              IF FILE$NODE.FLINK$ = ADDR(NIL) THEN

   7737  3 001574   000000 473500                    LDP3    0,,PR0
         3 001575   300002 236100                    LDQ     2,,PR3
         3 001576   000001 116000 xsym               CMPQ    B_VECTNIL+1
         3 001577   001604 601000 3                  TNZ     s:7740

      976     7738    4                 DIR_NODE.TAIL$ = FILE_NODE$;

   7738  3 001600   000000 236100                    LDQ     0,,PR0
         3 001601   200043 474500                    LDP4    @DIR_NODE,,AUTO
         3 001602   400016 756100                    STQ     14,,PR4
         3 001603   001607 710000 3                  TRA     s:7741

      977     7739    4              ELSE
      978     7740    4                 FILE$NODE.FLINK$->VD$FILE_NODE.BLINK$ = FILE_NODE$;

   7740  3 001604   300002 474500                    LDP4    2,,PR3
         3 001605   000000 236100                    LDQ     0,,PR0
         3 001606   400001 756100                    STQ     1,,PR4

      979     7741    4              DIR_NODE.COUNT# = DIR_NODE.COUNT# + 1;
PL6.E3A0      #001=VDA$FOPEN File=VDA$FILE.:VDA5TSI                              FRI 07/04/97 11:03 Page:108

   7741  3 001607   200043 473500                    LDP3    @DIR_NODE,,AUTO
         3 001610   300017 054100                    AOS     15,,PR3

      980     7742    4              END CREATE_INTERNAL_FILE;

      981     7743
      982     7744                /* Now we're actually open to the file! Record this fact */
      983     7745    3           PORT.LAST_OP# = %ACCOP_OPEN;

   7745  3 001611   200003 471500                    LDP1    @STREAM,,AUTO
         3 001612   100001 473500                    LDP3    1,,PR1
         3 001613   000001 220003                    LDX0    1,DU
         3 001614   300007 740100                    STX0    7,,PR3

      984     7746    3           PORT.EXIST# = OPTIONS.EXIST#;

   7746  3 001615   100001 473500                    LDP3    1,,PR1
         3 001616   200006 474500                    LDP4    @OPTIONS,,AUTO
         3 001617   400002 721100                    LXL1    2,,PR4
         3 001620   300003 441100                    SXL1    3,,PR3

      985     7747    3           PORT.LEVEL.INTERNAL$ (%LVL_FILE) = FILE_NODE$;

   7747  3 001621   100001 473500                    LDP3    1,,PR1
         3 001622   000000 236100                    LDQ     0,,PR0
         3 001623   300031 756100                    STQ     25,,PR3

      986     7748    3           IF (FILE$NODE.ACCESS | VD_ACCESSOR_PRIV) = %CLEAR THEN

   7748  3 001624   000000 473500                    LDP3    0,,PR0
         3 001625   000000 236000 xsym               LDQ     VD_ACCESSOR_PRIV
         3 001626   777000 376003                    ANQ     -512,DU
         3 001627   200150 756100                    STQ     FLV+1,,AUTO
         3 001630   300003 236100                    LDQ     3,,PR3
         3 001631   777000 376003                    ANQ     -512,DU
         3 001632   200150 276100                    ORQ     FLV+1,,AUTO
PL6.E3A0      #001=VDA$FOPEN File=VDA$FILE.:VDA5TSI                              FRI 07/04/97 11:03 Page:109
         3 001633   001637 601000 3                  TNZ     s:7751

      987     7749    3              PORT.INTRINSIC_PROTECT = %TRUE;

   7749  3 001634   100001 473500                    LDP3    1,,PR1
         3 001635   400000 236003                    LDQ     -131072,DU
         3 001636   300004 256100                    ORSQ    4,,PR3

      988     7750
      989     7751    3           PORT.LEVEL.SPEC (%LVL_FILE) = FILE$NODE.DESC.SPEC;

   7751  3 001637   100001 473500                    LDP3    1,,PR1
         3 001640   000000 475500                    LDP5    0,,PR0
         3 001641   000100 100500                    MLR     fill='000'O
         3 001642   500006 000010                    ADSC9   6,,PR5                   cn=0,n=8
         3 001643   300025 000010                    ADSC9   21,,PR3                  cn=0,n=8

      990     7752    4           IF PORT.LEVEL.SPEC.REP# (%LVL_FILE) = %REP_REMOTE THEN DO;

   7752  3 001644   100001 473500                    LDP3    1,,PR1
         3 001645   300025 721100                    LXL1    21,,PR3
         3 001646   000002 101003                    CMPX1   2,DU
         3 001647   001661 601000 3                  TNZ     s:7758

      991     7753    4              CALL VDG$OCOPY (FILE$NODE.DESC.SPEC.V$ -> VD$TEXTC_REMOTE,

   7753  3 001650   000000 475500                    LDP5    0,,PR0
         3 001651   500007 476500                    LDP6    7,,PR5
         3 001652   300026 637500                    EPPR7   22,,PR3
         3 001653   200151 457500                    STP7    FLV+2,,AUTO
         3 001654   200150 456500                    STP6    FLV+1,,AUTO
         3 001655   200150 630500                    EPPR0   FLV+1,,AUTO
         3 001656   000020 631400 xsym               EPPR1   B_VECTNIL+16
         3 001657   000000 701000 xent               TSX1    VDG$OCOPY
         3 001660   002001 702000 3                  TSX2    OALLOC_FAILED

      992     7754    4                PORT.LEVEL.SPEC.V$ (%LVL_FILE))
PL6.E3A0      #001=VDA$FOPEN File=VDA$FILE.:VDA5TSI                              FRI 07/04/97 11:03 Page:110
      993     7755    4                ALTRET (OCOPY_FAILED);
      994     7756    4              END;

      995     7757
      996     7758    4           IF FILE$NODE.DESC.DATA$ ~= ADDR(NIL) THEN DO;

   7758  3 001661   200041 470500                    LDP0    @FILE_NODE$,,AUTO
         3 001662   000000 471500                    LDP1    0,,PR0
         3 001663   100010 236100                    LDQ     8,,PR1
         3 001664   000001 116000 xsym               CMPQ    B_VECTNIL+1
         3 001665   001700 600000 3                  TZE     s:7767

      997     7759    4              CALL VDG$OCOPY (FILE$NODE.DESC.DATA$ -> VD$BUFFER,

   7759  3 001666   100010 473500                    LDP3    8,,PR1
         3 001667   200003 474500                    LDP4    @STREAM,,AUTO
         3 001670   400001 475500                    LDP5    1,,PR4
         3 001671   500027 636500                    EPPR6   23,,PR5
         3 001672   200151 456500                    STP6    FLV+2,,AUTO
         3 001673   200150 453500                    STP3    FLV+1,,AUTO
         3 001674   200150 630500                    EPPR0   FLV+1,,AUTO
         3 001675   000020 631400 xsym               EPPR1   B_VECTNIL+16
         3 001676   000000 701000 xent               TSX1    VDG$OCOPY
         3 001677   002001 702000 3                  TSX2    OALLOC_FAILED

      998     7760    4                PORT.LEVEL.DATA$ (%LVL_FILE))
      999     7761    4                ALTRET (OCOPY_FAILED);
     1000     7762    4              END;

     1001     7763
     1002     7764                /*
     1003     7765                *  Merge info from STRUCTURE into PORT.
     1004     7766                */
     1005     7767    3           PORT.STRUCTURE$ = OPTIONS.STRUCTURE$;

   7767  3 001700   200003 470500                    LDP0    @STREAM,,AUTO
         3 001701   000001 471500                    LDP1    1,,PR0
PL6.E3A0      #001=VDA$FOPEN File=VDA$FILE.:VDA5TSI                              FRI 07/04/97 11:03 Page:111
         3 001702   200006 473500                    LDP3    @OPTIONS,,AUTO
         3 001703   300000 236100                    LDQ     0,,PR3
         3 001704   100006 756100                    STQ     6,,PR1

     1006     7768    4           IF STRUCTURE$SPEC.FIT$ ~= ADDR(NIL) THEN DO;

   7768  3 001705   200023 471500                    LDP1    STRUCTURE_SPEC$,,AUTO
         3 001706   100004 236100                    LDQ     4,,PR1
         3 001707   000001 116000 xsym               CMPQ    B_VECTNIL+1
         3 001710   001722 600000 3                  TZE     s:7772

     1007     7769    4              CALL VDG$OCOPY (STRUCTURE$SPEC.FIT$->VD$FIT, PORT.FIT$)

   7769  3 001711   100004 474500                    LDP4    4,,PR1
         3 001712   000001 475500                    LDP5    1,,PR0
         3 001713   500005 636500                    EPPR6   5,,PR5
         3 001714   200151 456500                    STP6    FLV+2,,AUTO
         3 001715   200150 454500                    STP4    FLV+1,,AUTO
         3 001716   200150 630500                    EPPR0   FLV+1,,AUTO
         3 001717   000020 631400 xsym               EPPR1   B_VECTNIL+16
         3 001720   000000 701000 xent               TSX1    VDG$OCOPY
         3 001721   002001 702000 3                  TSX2    OALLOC_FAILED

     1008     7770    4                ALTRET (OCOPY_FAILED);
     1009     7771    4              END;

     1010     7772    3           STRUCTURE_LEVEL_NODE$ = STRUCTURE.HEAD$;

   7772  3 001722   200006 470500                    LDP0    @OPTIONS,,AUTO
         3 001723   000000 471500                    LDP1    0,,PR0
         3 001724   100012 236100                    LDQ     10,,PR1
         3 001725   200024 756100                    STQ     STRUCTURE_LEVEL_NODE$,,AUTO

     1011     7773    4           DO LEVEL = %LVL_FILE TO STRUCTURE.COUNT# - 1;

   7773  3 001726   200007 450100                    STZ     LEVEL,,AUTO
         3 001727   001772 710000 3                  TRA     s:7787+1
PL6.E3A0      #001=VDA$FOPEN File=VDA$FILE.:VDA5TSI                              FRI 07/04/97 11:03 Page:112

     1012     7774    4              STRUCTURE_LEVEL$ = STRUCTURE$LEVEL_NODE.DESC.SPEC.V$;

   7774  3 001730   200024 470500                    LDP0    STRUCTURE_LEVEL_NODE$,,AUTO
         3 001731   000007 236100                    LDQ     7,,PR0
         3 001732   200025 756100                    STQ     STRUCTURE_LEVEL$,,AUTO

     1013     7775    4              PORT.LEVEL.ORG# (LEVEL) = STRUCTURE$LEVEL.ORG#;

   7775  3 001733   200003 471500                    LDP1    @STREAM,,AUTO
         3 001734   100001 473500                    LDP3    1,,PR1
         3 001735   200007 236100                    LDQ     LEVEL,,AUTO
         3 001736   000007 402007                    MPY     7,DL
         3 001737   200025 474500                    LDP4    STRUCTURE_LEVEL$,,AUTO
         3 001740   400002 720100                    LXL0    2,,PR4
         3 001741   300023 740106                    STX0    19,QL,PR3

     1014     7776    4              PORT.LEVEL.KEY_TYPE# (LEVEL) = STRUCTURE$LEVEL.KEY_TYPE#;

   7776  3 001742   100001 473500                    LDP3    1,,PR1
         3 001743   400003 220100                    LDX0    3,,PR4
         3 001744   300023 440106                    SXL0    19,QL,PR3

     1015     7777    4              PORT.LEVEL.SPEC_TYPE# (LEVEL) = STRUCTURE$LEVEL.SPEC_TYPE#;

   7777  3 001745   100001 473500                    LDP3    1,,PR1
         3 001746   400003 720100                    LXL0    3,,PR4
         3 001747   300024 740106                    STX0    20,QL,PR3

     1016     7778    4              IF PORT.LEVEL.ORG# (LEVEL) = 0 THEN

   7778  3 001750   100001 473500                    LDP3    1,,PR1
         3 001751   300023 220106                    LDX0    19,QL,PR3
         3 001752   001755 601000 3                  TNZ     s:7780

     1017     7779    4                 PORT.LEVEL.ORG# (LEVEL) = %ORG_KEYED;

PL6.E3A0      #001=VDA$FOPEN File=VDA$FILE.:VDA5TSI                              FRI 07/04/97 11:03 Page:113
   7779  3 001753   000002 221003                    LDX1    2,DU
         3 001754   300023 741106                    STX1    19,QL,PR3

     1018     7780    5              IF PORT.LEVEL.KEY_TYPE# (LEVEL) = 0 THEN DO;

   7780  3 001755   100001 473500                    LDP3    1,,PR1
         3 001756   300023 720106                    LXL0    19,QL,PR3
         3 001757   001767 601000 3                  TNZ     s:7786

     1019     7781    5                 IF LEVEL = %LVL_FILE THEN

   7781  3 001760   200007 235100                    LDA     LEVEL,,AUTO
         3 001761   001765 601000 3                  TNZ     s:7784

     1020     7782    5                    PORT.LEVEL.KEY_TYPE# (LEVEL) = %KT_STRING;

   7782  3 001762   000002 221003                    LDX1    2,DU
         3 001763   300023 441106                    SXL1    19,QL,PR3
         3 001764   001767 710000 3                  TRA     s:7786

     1021     7783    5                 ELSE
     1022     7784    5                    PORT.LEVEL.KEY_TYPE# (LEVEL) = %KT_NUMBER;

   7784  3 001765   000001 221003                    LDX1    1,DU
         3 001766   300023 441106                    SXL1    19,QL,PR3

     1023     7785    5                 END;

     1024     7786    4              STRUCTURE_LEVEL_NODE$ = STRUCTURE$LEVEL_NODE.FLINK$;

   7786  3 001767   000002 236100                    LDQ     2,,PR0
         3 001770   200024 756100                    STQ     STRUCTURE_LEVEL_NODE$,,AUTO

     1025     7787    4              END;

   7787  3 001771   200007 054100                    AOS     LEVEL,,AUTO
         3 001772   200006 470500                    LDP0    @OPTIONS,,AUTO
PL6.E3A0      #001=VDA$FOPEN File=VDA$FILE.:VDA5TSI                              FRI 07/04/97 11:03 Page:114
         3 001773   000000 471500                    LDP1    0,,PR0
         3 001774   200007 236100                    LDQ     LEVEL,,AUTO
         3 001775   100014 116100                    CMPQ    12,,PR1
         3 001776   001730 604000 3                  TMI     s:7774

     1026     7788
     1027     7789    3           RETURN;

   7789  3 001777   200040 221300                    LDX1  ! CONSEC_BY_ACCIDENT+1,,AUTO
         3 002000   000001 702211                    TSX2  ! 1,X1

   7783  3 002001                       OALLOC_FAIL* null
   7783  3 002001                       OFREE_DCB_F* null
   7783  3 002001                       OCOPY_FAILED null
     1028     7790
     1029     7791
     1030     7792
     1031     7793    3   OALLOC_FAILED: ;
     1032     7794    3   OFREE_DCB_FAILED: ;
     1033     7795    3   OCOPY_FAILED: ;
     1034     7796    3           ALTRETURN;

   7796  3 002001   200040 221300                    LDX1  ! CONSEC_BY_ACCIDENT+1,,AUTO
         3 002002   000000 702211                    TSX2  ! 0,X1

     1035     7797
     1036     7798    3   END OPEN_THE_PORT_INTERNAL;
     1037     7799
     1038     7800        %BOX (TITLE=OPEN_THE_PORT_EXTERNAL, PAGE=YES);
              7808    3
              7812    3   /***************************************************************************
              7814    3    *                                                                         *
              7818    3            *                           OPEN_THE_PORT_EXTERNAL                       *
              7820    3            *                                                                        *
              7822    3          ***************************************************************************/

     1039     7826
PL6.E3A0      #001=VDA$FOPEN File=VDA$FILE.:VDA5TSI                              FRI 07/04/97 11:03 Page:115
     1040     7827        /*I* NAME: OPEN_THE_PORT_EXTERNAL
     1041     7828            PARAMETERS:
     1042     7829                None.
     1043     7830            INPUT:
     1044     7831                STREAM must be the stream to use.
     1045     7832                PORT is the port to use; it must be closed.
     1046     7833                STRUCTURE$SPEC must be the VD$STRUCTURE_SPEC to use.
     1047     7834            OUTPUT:
     1048     7835                PORT will have a DCB attached.  If no errors are found,
     1049     7836                    the DCB will be open to the file.
     1050     7837                PORT.LAST_OP, .EXIST, and .INTRINSIC_PROTECT will be
     1051     7838                    set appropriately.
     1052     7839                PORT.FIT$ will point to a copy of the file's FIT.
     1053     7840                PORT.LEVEL.ORGs, .KEY_TYPEs, and .SPEC_TYPEs will be set from the
     1054     7841                    Structure and/or the file actually opened (based on info
     1055     7842                    from the monitor).
     1056     7843            DESCRIPTION:
     1057     7844                Attach a DCB to the port.
     1058     7845                Build the M$OPEN FPT, and open the file.
     1059     7846                Check for correct ASN and file organization.
     1060     7847                Set values in the port from the DCB and the file's FIT.
     1061     7848        */
     1062     7849
     1063     7850    2   OPEN_THE_PORT_EXTERNAL: PROC ALTRET;

   7850  3 002003   200040 741300       OPEN_THE_PO* STX1  ! CONSEC_BY_ACCIDENT+1,,AUTO

     1064     7851
     1065     7852        %FPT_OPEN (FPTN=CONST_FPT_OPEN, STCLASS=CONSTANT,
     1066     7853                ACS=DIRECT, CTG=YES, DISP=NAMED);
     1067     7962
     1068     7963
     1069     7964        /*
     1070     7965        *   The following tables are used only if OPTIONS.PROTECT# = %FALSE.
     1071     7966        *   These tables use %EX_ definitions as the subscript into the table;
     1072     7967        *       we assume %EX_NEW = 1, %EX_OLD = 2, %EX_ANY = 3.
     1073     7968        */
PL6.E3A0      #001=VDA$FOPEN File=VDA$FILE.:VDA5TSI                              FRI 07/04/97 11:03 Page:116
     1074     7969    3   DCL OPEN_FUNCTION (0:7) UBIN BYTE CALIGNED CONSTANT
     1075     7970    3       INIT(0, %CREATE#, %UPDATE#, %CREATE#, 0*0);
     1076     7971    3   DCL OPEN_EXIST (0:7) UBIN BYTE CALIGNED CONSTANT
     1077     7972    3       INIT(0, %ERROR#, 0, %OLDFILE#, 0*0);
     1078     7973
     1079     7974
     1080     7975        /*
     1081     7976        *   The following tables are accessed using %ORG_ definitions as
     1082     7977        *       the subscript into the table.  We assume
     1083     7978        *       %ORG_CONSEC = 1, %ORG_KEYED = 2, %ORG_INDEXED = 3.
     1084     7979        */
     1085     7980    3   DCL OPEN_ORG (0:7) UBIN BYTE CALIGNED CONSTANT
     1086     7981    3       INIT(%KEYED#,   /* Entry 0 is default: Structure specifies no org */
     1087     7982    3               %CONSEC#, %KEYED#, %INDEXED#, 0*0);
     1088     7983    3   DCL DEFAULT_KEY_TYPES_FOR_ORGS (0:7) UBIN HALF HALIGNED CONSTANT
     1089     7984    3       INIT(0, %KT_NUMBER, %KT_EDITKEY, %KT_STRING, 0*0);
     1090     7985
     1091     7986
     1092     7987        %FPT_PFIL (BOF=YES, STCLASS=STATIC);
     1093     8002
     1094     8003
     1095     8004
     1096     8005    3   DCL PORT_KEY$ PTR;
     1097     8006    3   DCL EXT_DCB$ PTR;
     1098     8007    3   DCL DCB_ORG UBIN BYTE;
     1099     8008    3   DCL PORT_FIT$ PTR;
     1100     8009        %FPT_OPEN (STCLASS=AUTO);
     1101     8118        %VLP_SN (STCLASS=AUTO);
     1102     8131
     1103     8132
     1104     8133        %VD$FILE_KEY (NAME=PORT$KEY, STCLASS="BASED(PORT_KEY$)");
     1105     8182        %F$DCB (DCBN=EXT$DCB, STCLASS="BASED(EXT_DCB$)");
     1106     8239        %VD$FIT (NAME=PORT$FIT, STCLASS="BASED(PORT_FIT$)");
     1107     8275
     1108     8276
     1109     8277
     1110     8278                %INCREMENT (INDX=%STG_OPEN_EXT_FILE);
PL6.E3A0      #001=VDA$FOPEN File=VDA$FILE.:VDA5TSI                              FRI 07/04/97 11:03 Page:117

   8279  3 002004   000073 054000 xsym               AOS     VD_6E+59

     1111     8281
     1112     8282                /* Get ptr to VD$STRUCTURE_LEVEL for level %LVL_EXT_REC (=1) */
     1113     8283    3           STRUCTURE_LEVEL_NODE$ = STRUCTURE.HEAD$->VD$FILE_NODE.FLINK$;

   8283  3 002005   200006 470500                    LDP0    @OPTIONS,,AUTO
         3 002006   000000 471500                    LDP1    0,,PR0
         3 002007   100012 473500                    LDP3    10,,PR1
         3 002010   300002 236100                    LDQ     2,,PR3
         3 002011   200024 756100                    STQ     STRUCTURE_LEVEL_NODE$,,AUTO

     1114     8284    3           STRUCTURE_LEVEL$ = STRUCTURE$LEVEL_NODE.DESC.SPEC.V$;

   8284  3 002012   200024 474500                    LDP4    STRUCTURE_LEVEL_NODE$,,AUTO
         3 002013   400007 236100                    LDQ     7,,PR4
         3 002014   200025 756100                    STQ     STRUCTURE_LEVEL$,,AUTO

     1115     8285
     1116     8286    3           FPT_OPEN = CONST_FPT_OPEN;

   8286  3 002015   000100 100400                    MLR     fill='000'O
         3 002016   000002 000350 1                  ADSC9   CONST_FPT_OPEN           cn=0,n=232
         3 002017   200046 000350                    ADSC9   FPT_OPEN,,AUTO           cn=0,n=232

     1117     8287    3           FPT_OPEN.V_ = VECTOR(FPT_OPEN.V);

   8287  3 002020   000023 235000 4                  LDA     19
         3 002021   200150 452500                    STP2    FLV+1,,AUTO
         3 002022   200150 236100                    LDQ     FLV+1,,AUTO
         3 002023   000112 036003                    ADLQ    74,DU
         3 002024   200046 757100                    STAQ    FPT_OPEN,,AUTO

     1118     8288
     1119     8289    3           PORT_KEY$ = PORT.FILE_KEY.V$;

PL6.E3A0      #001=VDA$FOPEN File=VDA$FILE.:VDA5TSI                              FRI 07/04/97 11:03 Page:118
   8289  3 002025   200003 471500                    LDP1    @STREAM,,AUTO
         3 002026   100001 473500                    LDP3    1,,PR1
         3 002027   300011 236100                    LDQ     9,,PR3
         3 002030   200041 756100                    STQ     PORT_KEY$,,AUTO

     1120     8290
     1121     8291    3           IF PORT$KEY.DCB# = 0 THEN

   8291  3 002031   200041 473500                    LDP3    PORT_KEY$,,AUTO
         3 002032   300021 220100                    LDX0    17,,PR3
         3 002033   002143 601000 3                  TNZ     s:8341

     1122     8292    4   OPEN_TO_FID: DO;

   8292  3 002034                       OPEN_TO_FID  null
     1123     8293                   /* First, make sure we have a DCB */
     1124     8294    5              IF PORT.DCB# = 0 THEN DO;

   8294  3 002034   100001 475500                    LDP5    1,,PR1
         3 002035   500004 722100                    LXL2    4,,PR5
         3 002036   002047 601000 3                  TNZ     s:8300

     1125     8295    5                 CALL VDG$OALLOC_DCB (PORT.DCB#)

   8295  3 002037   200151 455500                    STP5    FLV+2,,AUTO
         3 002040   200151 236100                    LDQ     FLV+2,,AUTO
         3 002041   000020 036000 4                  ADLQ    16
         3 002042   200150 756100                    STQ     FLV+1,,AUTO
         3 002043   200150 630500                    EPPR0   FLV+1,,AUTO
         3 002044   000017 631400 xsym               EPPR1   B_VECTNIL+15
         3 002045   000000 701000 xent               TSX1    VDG$OALLOC_DCB
         3 002046   002537 702000 3                  TSX2    OALLOC_FAILED

     1126     8296    5                   ALTRET (OALLOC_DCB_FAILED);
     1127     8297    5                 END;

     1128     8298
PL6.E3A0      #001=VDA$FOPEN File=VDA$FILE.:VDA5TSI                              FRI 07/04/97 11:03 Page:119
     1129     8299                   /* Set the FPT's SCRUB and fid fields */
     1130     8300    4              FPT_OPEN.V.INITZ.SCRUB# = %TRUE;

   8300  3 002047   400000 236007                    LDQ     -131072,DL
         3 002050   200112 256100                    ORSQ    FPT_OPEN+36,,AUTO

     1131     8301    4              FPT_OPEN.NAME_ = VECTOR(PORT$KEY.UNIQUE.FNAME);

   8301  3 002051   000024 235000 4                  LDA     20
         3 002052   200041 236100                    LDQ     PORT_KEY$,,AUTO
         3 002053   000004 036000 4                  ADLQ    4
         3 002054   200054 757100                    STAQ    FPT_OPEN+6,,AUTO

     1132     8302    4              FPT_OPEN.ACCT_ = VECTOR(PORT$KEY.UNIQUE.ACCT);

   8302  3 002055   000025 235000 4                  LDA     21
         3 002056   200041 236100                    LDQ     PORT_KEY$,,AUTO
         3 002057   000026 036000 4                  ADLQ    22
         3 002060   200072 757100                    STAQ    FPT_OPEN+20,,AUTO

     1133     8303    4              FPT_OPEN.V.ASN# = PORT$KEY.ASN#;

   8303  3 002061   200041 470500                    LDP0    PORT_KEY$,,AUTO
         3 002062   000014 236100                    LDQ     12,,PR0
         3 002063   000022 772000                    QRL     18
         3 002064   200113 552104                    STBQ    FPT_OPEN+37,'04'O,AUTO

     1134     8304    4              FPT_OPEN.V.RES# = PORT$KEY.RES;

   8304  3 002065   000014 235100                    LDA     12,,PR0
         3 002066   000015 236100                    LDQ     13,,PR0
         3 002067   000022 773000                    LRL     18
         3 002070   000027 376000 xsym               ANQ     B_VECTNIL+23
         3 002071   200116 756100                    STQ     FPT_OPEN+40,,AUTO

     1135     8305    4              VLP_SN = %CLEAR;

PL6.E3A0      #001=VDA$FOPEN File=VDA$FILE.:VDA5TSI                              FRI 07/04/97 11:03 Page:120
   8305  3 002072   000100 100400                    MLR     fill='000'O
         3 002073   000002 000001 xsym               ADSC9   B_VECTNIL+2              cn=0,n=1
         3 002074   200140 000012                    ADSC9   VLP_SN,,AUTO             cn=0,n=10

     1136     8306    4              VLP_SN.NUM# = 1;

   8306  3 002075   000001 235007                    LDA     1,DL
         3 002076   200140 755100                    STA     VLP_SN,,AUTO

     1137     8307    4              VLP_SN.SN# (0) = PORT$KEY.PSN;

   8307  3 002077   040100 100500                    MLR     fill='040'O
         3 002100   000015 400006                    ADSC9   13,,PR0                  cn=2,n=6
         3 002101   200141 000006                    ADSC9   VLP_SN+1,,AUTO           cn=0,n=6

     1138     8308    4              FPT_OPEN.SN_ = VECTOR(VLP_SN);

   8308  3 002102   000027 235000 4                  LDA     23
         3 002103   200150 452500                    STP2    FLV+1,,AUTO
         3 002104   200150 236100                    LDQ     FLV+1,,AUTO
         3 002105   000140 036003                    ADLQ    96,DU
         3 002106   200050 757100                    STAQ    FPT_OPEN+2,,AUTO

     1139     8309    4              FPT_OPEN.PASS_ = VECTOR(PORT$KEY.PASS);

   8309  3 002107   000025 235000 4                  LDA     21
         3 002110   200041 236100                    LDQ     PORT_KEY$,,AUTO
         3 002111   000017 036003                    ADLQ    15,DU
         3 002112   200056 757100                    STAQ    FPT_OPEN+8,,AUTO

     1140     8310
     1141     8311                   /*
     1142     8312                   *  If this is a create open, merge params from the
     1143     8313                   *      Structure into the FPT.
     1144     8314                   */
     1145     8315    5              IF OPTIONS.EXIST# ~= %EX_OLD THEN DO;

PL6.E3A0      #001=VDA$FOPEN File=VDA$FILE.:VDA5TSI                              FRI 07/04/97 11:03 Page:121
   8315  3 002113   200006 471500                    LDP1    @OPTIONS,,AUTO
         3 002114   100002 720100                    LXL0    2,,PR1
         3 002115   000002 100003                    CMPX0   2,DU
         3 002116   002143 600000 3                  TZE     s:8341

     1146     8316    6                 IF STRUCTURE$SPEC.FIT$ ~= ADDR(NIL) THEN DO;

   8316  3 002117   200023 473500                    LDP3    STRUCTURE_SPEC$,,AUTO
         3 002120   300004 236100                    LDQ     4,,PR3
         3 002121   000001 116000 xsym               CMPQ    B_VECTNIL+1
         3 002122   002131 600000 3                  TZE     s:8320

     1147     8317    6                    FPT_OPEN.IFPARAM_ =

   8317  3 002123   300004 474500                    LDP4    4,,PR3
         3 002124   000030 235000 4                  LDA     24
         3 002125   200150 454500                    STP4    FLV+1,,AUTO
         3 002126   200150 236100                    LDQ     FLV+1,,AUTO
         3 002127   000003 036003                    ADLQ    3,DU
         3 002130   200074 757100                    STAQ    FPT_OPEN+22,,AUTO

     1148     8318    6                      VECTOR(STRUCTURE$SPEC.FIT$ -> PORT$FIT.FIT);
     1149     8319    6                    END;

     1150     8320    5                 FPT_OPEN.V.ORG# = OPEN_ORG (STRUCTURE$LEVEL.ORG#);

   8320  3 002131   200025 474500                    LDP4    STRUCTURE_LEVEL$,,AUTO
         3 002132   400002 236100                    LDQ     2,,PR4
         3 002133   777777 376007                    ANQ     -1,DL
         3 002134   000100 100406                    MLR     fill='000'O
         3 002135   000100 000001 1                  ADSC9   OPEN_ORG,Q               cn=0,n=1
         3 002136   200114 400001                    ADSC9   FPT_OPEN+38,,AUTO        cn=2,n=1

     1151     8321    5                 FPT_OPEN.V.TYPE# = VD_$FILETYPE.BYTES;

   8321  3 002137   000002 220000 xsym               LDX0    VD_$FILETYPE+2
         3 002140   040100 100440                    MLR     fill='040'O
PL6.E3A0      #001=VDA$FOPEN File=VDA$FILE.:VDA5TSI                              FRI 07/04/97 11:03 Page:122
         3 002141   000002 400010 xsym               ADSC9   VD_$FILETYPE+2           cn=2,n=*X0
         3 002142   200115 000002                    ADSC9   FPT_OPEN+39,,AUTO        cn=0,n=2

     1152     8322    5                 END;

     1153     8323
     1154     8324                   /*
     1155     8325        *N**N**N*  *   Other FPT_OPEN parameters to consider (these can't be
     1156     8326        *N**N**N*  *      set via IFPARM):
     1157     8327        *N**N**N*  *   COMP - only for create consec|keyed unencrypted disk file
     1158     8328        *N**N**N*  *   EXPIRE - only for create file
     1159     8329        *N**N**N*  *   HDR - only for create UR file
     1160     8330        *N**N**N*  *   LOAD - only for create alternate-indexed file
     1161     8331        *N**N**N*  *   SEED (on FPT_READ/FPT_WRITE) - only for non-indexed
     1162     8332        *N**N**N*  *       non-compressed disk file
     1163     8333        *N**N**N*  *   These values should be set by the user the same way
     1164     8334        *N**N**N*  *       s/he sets/examines [I]FPARAM:  via a forms-mode
     1165     8335        *N**N**N*  *       window.  The value given by the user should probably
     1166     8336        *N**N**N*  *       go into VD$STRUCTURE_LEVEL.
     1167     8337                   */
     1168     8338
     1169     8339    4              END OPEN_TO_FID;

     1170     8340
     1171     8341    4           IF OPTIONS.PROTECT# = %PROTECT THEN DO;

   8341  3 002143   200006 470500                    LDP0    @OPTIONS,,AUTO
         3 002144   000002 220100                    LDX0    2,,PR0
         3 002145   000001 100003                    CMPX0   1,DU
         3 002146   002154 601000 3                  TNZ     s:8346

     1172     8342    4              FPT_OPEN.V.FUN# = %IN#;

   8342  3 002147   002000 236007                    LDQ     1024,DL
         3 002150   200113 552110                    STBQ    FPT_OPEN+37,'10'O,AUTO

     1173     8343    4              FPT_OPEN.V.EXIST# = 0;
PL6.E3A0      #001=VDA$FOPEN File=VDA$FILE.:VDA5TSI                              FRI 07/04/97 11:03 Page:123

   8343  3 002151   000031 236000 4                  LDQ     25
         3 002152   200112 356100                    ANSQ    FPT_OPEN+36,,AUTO

     1174     8344    4              END;

   8344  3 002153   002167 710000 3                  TRA     s:8351

     1175     8345    4           ELSE DO;

     1176     8346    4              FPT_OPEN.V.FUN# = OPEN_FUNCTION (OPTIONS.EXIST#);

   8346  3 002154   000002 236100                    LDQ     2,,PR0
         3 002155   777777 376007                    ANQ     -1,DL
         3 002156   000100 100406                    MLR     fill='000'O
         3 002157   000074 000001 1                  ADSC9   OPEN_FUNCTION,Q          cn=0,n=1
         3 002160   200113 400001                    ADSC9   FPT_OPEN+37,,AUTO        cn=2,n=1

     1177     8347    4              FPT_OPEN.V.EXIST# = OPEN_EXIST (OPTIONS.EXIST#);

   8347  3 002161   000002 236100                    LDQ     2,,PR0
         3 002162   777777 376007                    ANQ     -1,DL
         3 002163   000011 402007                    MPY     9,DL
         3 002164   003100 061406                    CSR     bolr='003'O
         3 002165   000076 000011 1                  BDSC    OPEN_EXIST,Q             by=0,bit=0,n=9
         3 002166   200112 600002                    BDSC    FPT_OPEN+36,,AUTO        by=3,bit=0,n=2

     1178     8348    4              END;

     1179     8349
     1180     8350
     1181     8351    3           CALL VDG$OALLOC (%CLS_FIT, PORT.FIT$)

   8351  3 002167   200003 471500                    LDP1    @STREAM,,AUTO
         3 002170   100001 473500                    LDP3    1,,PR1
         3 002171   300005 634500                    EPPR4   5,,PR3
         3 002172   200151 454500                    STP4    FLV+2,,AUTO
PL6.E3A0      #001=VDA$FOPEN File=VDA$FILE.:VDA5TSI                              FRI 07/04/97 11:03 Page:124
         3 002173   000033 236000 4                  LDQ     27
         3 002174   200150 756100                    STQ     FLV+1,,AUTO
         3 002175   200150 630500                    EPPR0   FLV+1,,AUTO
         3 002176   000020 631400 xsym               EPPR1   B_VECTNIL+16
         3 002177   000000 701000 xent               TSX1    VDG$OALLOC
         3 002200   002537 702000 3                  TSX2    OALLOC_FAILED

     1182     8352    3             ALTRET (OALLOC_FAILED);
     1183     8353    3           FPT_OPEN.FPARAM_ = VECTOR(PORT.FIT$->PORT$FIT.FIT);

   8353  3 002201   200003 470500                    LDP0    @STREAM,,AUTO
         3 002202   000001 471500                    LDP1    1,,PR0
         3 002203   100005 473500                    LDP3    5,,PR1
         3 002204   000030 235000 4                  LDA     24
         3 002205   200150 453500                    STP3    FLV+1,,AUTO
         3 002206   200150 236100                    LDQ     FLV+1,,AUTO
         3 002207   000003 036003                    ADLQ    3,DU
         3 002210   200076 757100                    STAQ    FPT_OPEN+24,,AUTO

     1184     8354    3           FPT_OPEN.V.DCB# = PORT.DCB#;

   8354  3 002211   000001 471500                    LDP1    1,,PR0
         3 002212   100004 720100                    LXL0    4,,PR1
         3 002213   200112 740100                    STX0    FPT_OPEN+36,,AUTO

     1185     8355    3           IF VD_$$MON_ACC.V# > 10 THEN

   8355  3 002214   000003 235000 xsym               LDA     VD_$$MON_ACC+3
         3 002215   000012 115007                    CMPA    10,DL
         3 002216   002227 604400 3                  TMOZ    s:8357

     1186     8356    3              CALL VDG$MACC_FOPEN_OPEN (FPT_OPEN.V.DCB#, PORT_KEY$);

   8356  3 002217   200041 631500                    EPPR1   PORT_KEY$,,AUTO
         3 002220   200151 451500                    STP1    FLV+2,,AUTO
         3 002221   200112 633500                    EPPR3   FPT_OPEN+36,,AUTO
         3 002222   200150 453500                    STP3    FLV+1,,AUTO
PL6.E3A0      #001=VDA$FOPEN File=VDA$FILE.:VDA5TSI                              FRI 07/04/97 11:03 Page:125
         3 002223   200150 630500                    EPPR0   FLV+1,,AUTO
         3 002224   000020 631400 xsym               EPPR1   B_VECTNIL+16
         3 002225   000000 701000 xent               TSX1    VDG$MACC_FOPEN_OPEN
         3 002226   000000 011000                    NOP     0

     1187     8357    3           CALL M$OPEN (FPT_OPEN)

   8357  3 002227   200046 630500                    EPPR0   FPT_OPEN,,AUTO
         3 002230   450000 713400                    CLIMB   alt,open
         3 002231   410400 401760                    pmme    nvectors=18
         3 002232   002234 702000 3                  TSX2    s:8359
         3 002233   002244 710000 3                  TRA     s:8365

     1188     8358    4           WHENALTRETURN DO;

     1189     8359    4              IF FPT_OPEN.V.FUN# ~= %UPDATE# THEN GOTO OPEN_FAILED;

   8359  3 002234   200113 236100                    LDQ     FPT_OPEN+37,,AUTO
         3 002235   777000 376007                    ANQ     -512,DL
         3 002236   001000 116007                    CMPQ    512,DL
         3 002237   002473 601000 3                  TNZ     OPEN_FAILED

     1190     8360    4              FPT_OPEN.V.FUN# = %IN#;

   8360  3 002240   002000 236007                    LDQ     1024,DL
         3 002241   200113 552110                    STBQ    FPT_OPEN+37,'10'O,AUTO

     1191     8361    4              CALL M$RETRY;

   8361  3 002242   010010 713400                    CLIMB   4104
         3 002243   000000 401760                    pmme    nvectors=0

     1192     8362    4              END;

     1193     8363
     1194     8364                /* Now we're actually open to the file! Record this fact */
     1195     8365    3           PORT.LAST_OP# = %ACCOP_OPEN;
PL6.E3A0      #001=VDA$FOPEN File=VDA$FILE.:VDA5TSI                              FRI 07/04/97 11:03 Page:126

   8365  3 002244   200003 470500                    LDP0    @STREAM,,AUTO
         3 002245   000001 471500                    LDP1    1,,PR0
         3 002246   000001 220003                    LDX0    1,DU
         3 002247   100007 740100                    STX0    7,,PR1

     1196     8366    3           PORT.EXIST# = OPTIONS.EXIST#;

   8366  3 002250   000001 471500                    LDP1    1,,PR0
         3 002251   200006 473500                    LDP3    @OPTIONS,,AUTO
         3 002252   300002 721100                    LXL1    2,,PR3
         3 002253   100003 441100                    SXL1    3,,PR1

     1197     8367
     1198     8368    3           EXT_DCB$ = DCBADDR(PORT.DCB#);

   8368  3 002254   000001 471500                    LDP1    1,,PR0
         3 002255   000003 474400 4                  LDP4    3
         3 002256   400000 475500                    LDP5    0,,PR4
         3 002257   100004 721100                    LXL1    4,,PR1
         3 002260   500000 236111                    LDQ     0,X1,PR5
         3 002261   200042 756100                    STQ     EXT_DCB$,,AUTO

     1199     8369    3           IF EXT$DCB.ASN# ~= %FILE# THEN

   8369  3 002262   200042 476500                    LDP6    EXT_DCB$,,AUTO
         3 002263   600032 236100                    LDQ     26,,PR6
         3 002264   777000 376007                    ANQ     -512,DL
         3 002265   001000 116007                    CMPQ    512,DL
         3 002266   002501 601000 3                  TNZ     BAD_FILE_ASN_FAILURE

     1200     8370    3              GOTO BAD_FILE_ASN_FAILURE;
     1201     8371    3           IF (NOT EXT$DCB.FFLG.DELR#) OR (NOT EXT$DCB.FFLG.UPD#)

   8371  3 002267   600004 236100                    LDQ     4,,PR6
         3 002270   200000 316003                    CANQ    65536,DU
         3 002271   002276 600000 3                  TZE     s:8373
PL6.E3A0      #001=VDA$FOPEN File=VDA$FILE.:VDA5TSI                              FRI 07/04/97 11:03 Page:127
         3 002272   040000 316003                    CANQ    16384,DU
         3 002273   002276 600000 3                  TZE     s:8373
         3 002274   100000 316003                    CANQ    32768,DU
         3 002275   002300 601000 3                  TNZ     s:8380

     1202     8372    4             OR (NOT EXT$DCB.FFLG.WNEW#) THEN DO;

     1203     8373    4              PORT.INTRINSIC_PROTECT = %TRUE;

   8373  3 002276   400000 236003                    LDQ     -131072,DU
         3 002277   100004 256100                    ORSQ    4,,PR1

     1204     8374    4              END;

     1205     8375
     1206     8376                /*
     1207     8377                *   Merge info from Structure and the DCB into PORT.
     1208     8378                */
     1209     8379
     1210     8380    3           PORT.STRUCTURE$ = OPTIONS.STRUCTURE$;

   8380  3 002300   000001 471500                    LDP1    1,,PR0
         3 002301   300000 236100                    LDQ     0,,PR3
         3 002302   100006 756100                    STQ     6,,PR1

     1211     8381
     1212     8382    4           DO CASE (EXT$DCB.ORG#);

   8382  3 002303   600032 236100                    LDQ     26,,PR6
         3 002304   000033 772000                    QRL     27
         3 002305   000016 116007                    CMPQ    14,DL
         3 002306   002310 602006 3                  TNC     s:8382+5,QL
         3 002307   002356 710000 3                  TRA     s:8399
         3 002310   002356 710000 3                  TRA     s:8399
         3 002311   002326 710000 3                  TRA     s:8384
         3 002312   002350 710000 3                  TRA     s:8394
         3 002313   002356 710000 3                  TRA     s:8399
PL6.E3A0      #001=VDA$FOPEN File=VDA$FILE.:VDA5TSI                              FRI 07/04/97 11:03 Page:128
         3 002314   002326 710000 3                  TRA     s:8384
         3 002315   002356 710000 3                  TRA     s:8399
         3 002316   002353 710000 3                  TRA     s:8396
         3 002317   002356 710000 3                  TRA     s:8399
         3 002320   002356 710000 3                  TRA     s:8399
         3 002321   002356 710000 3                  TRA     s:8399
         3 002322   002356 710000 3                  TRA     s:8399
         3 002323   002356 710000 3                  TRA     s:8399
         3 002324   002356 710000 3                  TRA     s:8399
         3 002325   002353 710000 3                  TRA     s:8396

     1213     8383    4            CASE (%CONSEC#, %UR#);

     1214     8384    4              DCB_ORG = %ORG_CONSEC;

   8384  3 002326   001000 236003                    LDQ     512,DU
         3 002327   200043 756100                    STQ     DCB_ORG,,AUTO

     1215     8385    5              IF OPTIONS.EXIST# ~= %EX_NEW THEN DO;

   8385  3 002330   300002 721100                    LXL1    2,,PR3
         3 002331   000001 101003                    CMPX1   1,DU
         3 002332   002357 600000 3                  TZE     s:8402

     1216     8386                      /* Rewind the file to BOF */
     1217     8387    5                 FPT_PFIL.V.DCB# = PORT.DCB#;

   8387  3 002333   000001 471500                    LDP1    1,,PR0
         3 002334   100004 722100                    LXL2    4,,PR1
         3 002335   000002 742000 2                  STX2    FPT_PFIL+2

     1218     8388    5                 CALL M$PFIL (FPT_PFIL)

   8388  3 002336   000000 630400 2                  EPPR0   FPT_PFIL
         3 002337   440004 713400                    CLIMB   alt,+16388
         3 002340   400000 401760                    pmme    nvectors=1
         3 002341   002507 702000 3                  TSX2    PFIL_FAILED
PL6.E3A0      #001=VDA$FOPEN File=VDA$FILE.:VDA5TSI                              FRI 07/04/97 11:03 Page:129

     1219     8389    5                   ALTRET (PFIL_FAILED);
     1220     8390                      /* DCB is now positioned at first record */
     1221     8391    5                 PORT.CURRENT.KEY (%LVL_EXT_REC-1) = VD_KEY_FIRST_CONSEC_REC;

   8391  3 002342   200003 470500                    LDP0    @STREAM,,AUTO
         3 002343   000001 471500                    LDP1    1,,PR0
         3 002344   000100 100400                    MLR     fill='000'O
         3 002345   000000 000010 xsym               ADSC9   VD_KEY_FIRST_CONSEC_REC  cn=0,n=8
         3 002346   100012 000010                    ADSC9   10,,PR1                  cn=0,n=8

     1222     8392    5                 END;

   8392  3 002347   002357 710000 3                  TRA     s:8402

     1223     8393    4            CASE (%KEYED#);

     1224     8394    4              DCB_ORG = %ORG_KEYED;

   8394  3 002350   002000 236003                    LDQ     1024,DU
         3 002351   200043 756100                    STQ     DCB_ORG,,AUTO
         3 002352   002357 710000 3                  TRA     s:8402

     1225     8395    4            CASE (%INDEXED#, %IREL#);

     1226     8396    4              DCB_ORG = %ORG_INDEXED;

   8396  3 002353   003000 236003                    LDQ     1536,DU
         3 002354   200043 756100                    STQ     DCB_ORG,,AUTO

     1227     8397    4              GOTO BAD_FILE_ORG_FAILURE;   /*N* Remove eventually */

   8397  3 002355   002515 710000 3                  TRA     BAD_FILE_ORG_FAILURE

     1228     8398    4            CASE (ELSE);

     1229     8399    4              GOTO BAD_FILE_ORG_FAILURE;
PL6.E3A0      #001=VDA$FOPEN File=VDA$FILE.:VDA5TSI                              FRI 07/04/97 11:03 Page:130

   8399  3 002356   002515 710000 3                  TRA     BAD_FILE_ORG_FAILURE

     1230     8400    4            END;

     1231     8401
     1232     8402    3           PORT_FIT$ = PORT.FIT$;

   8402  3 002357   000001 471500                    LDP1    1,,PR0
         3 002360   100005 236100                    LDQ     5,,PR1
         3 002361   200044 756100                    STQ     PORT_FIT$,,AUTO

     1233     8403    3           PORT$FIT.CODE2$ = ADDR(PORT$FIT.FIT);

   8403  3 002362   000003 036003                    ADLQ    3,DU
         3 002363   200044 473500                    LDP3    PORT_FIT$,,AUTO
         3 002364   300001 756100                    STQ     1,,PR3

     1234     8404    3           PORT$FIT.CODE3$ = ADDR(PORT$FIT.FIT);

   8404  3 002365   300002 756100                    STQ     2,,PR3

     1235     8405    3           CALL XSF$LOCCODT (PORT$FIT.CODE2$, 2)

   8405  3 002366   000034 236000 4                  LDQ     28
         3 002367   200151 756100                    STQ     FLV+2,,AUTO
         3 002370   200044 236100                    LDQ     PORT_FIT$,,AUTO
         3 002371   000001 036003                    ADLQ    1,DU
         3 002372   200150 756100                    STQ     FLV+1,,AUTO
         3 002373   200150 630500                    EPPR0   FLV+1,,AUTO
         3 002374   000020 631400 xsym               EPPR1   B_VECTNIL+16
         3 002375   000000 701000 xent               TSX1    XSF$LOCCODT
         3 002376   002400 702000 3                  TSX2    s:8407
         3 002377   002403 710000 3                  TRA     s:8409

     1236     8406    4           WHENALTRETURN DO;

PL6.E3A0      #001=VDA$FOPEN File=VDA$FILE.:VDA5TSI                              FRI 07/04/97 11:03 Page:131
     1237     8407    4              PORT$FIT.CODE2$ = ADDR(NIL);

   8407  3 002400   000001 236000 xsym               LDQ     B_VECTNIL+1
         3 002401   200044 470500                    LDP0    PORT_FIT$,,AUTO
         3 002402   000001 756100                    STQ     1,,PR0

     1238     8408    4              END;

     1239     8409    3           CALL XSF$LOCCODT (PORT$FIT.CODE3$, 3)

   8409  3 002403   000035 236000 4                  LDQ     29
         3 002404   200151 756100                    STQ     FLV+2,,AUTO
         3 002405   200044 236100                    LDQ     PORT_FIT$,,AUTO
         3 002406   000002 036003                    ADLQ    2,DU
         3 002407   200150 756100                    STQ     FLV+1,,AUTO
         3 002410   200150 630500                    EPPR0   FLV+1,,AUTO
         3 002411   000020 631400 xsym               EPPR1   B_VECTNIL+16
         3 002412   000000 701000 xent               TSX1    XSF$LOCCODT
         3 002413   002415 702000 3                  TSX2    s:8411
         3 002414   002420 710000 3                  TRA     s:8414

     1240     8410    4           WHENALTRETURN DO;

     1241     8411    4              PORT$FIT.CODE3$ = ADDR(NIL);

   8411  3 002415   000001 236000 xsym               LDQ     B_VECTNIL+1
         3 002416   200044 470500                    LDP0    PORT_FIT$,,AUTO
         3 002417   000002 756100                    STQ     2,,PR0

     1242     8412    4              END;

     1243     8413
     1244     8414    3           PORT.LEVEL.ORG# (%LVL_EXT_REC) = STRUCTURE$LEVEL.ORG#;

   8414  3 002420   200003 470500                    LDP0    @STREAM,,AUTO
         3 002421   000001 471500                    LDP1    1,,PR0
         3 002422   200025 473500                    LDP3    STRUCTURE_LEVEL$,,AUTO
PL6.E3A0      #001=VDA$FOPEN File=VDA$FILE.:VDA5TSI                              FRI 07/04/97 11:03 Page:132
         3 002423   300002 720100                    LXL0    2,,PR3
         3 002424   100032 740100                    STX0    26,,PR1

     1245     8415    3           IF STRUCTURE$LEVEL.ORG# = 0 THEN

   8415  3 002425   300002 720100                    LXL0    2,,PR3
         3 002426   002435 601000 3                  TNZ     s:8418

     1246     8416    3              PORT.LEVEL.ORG# (%LVL_EXT_REC) = DCB_ORG;

   8416  3 002427   000001 471500                    LDP1    1,,PR0
         3 002430   200043 236100                    LDQ     DCB_ORG,,AUTO
         3 002431   000033 772000                    QRL     27
         3 002432   000000 621006                    EAX1    0,QL
         3 002433   100032 741100                    STX1    26,,PR1
         3 002434   002444 710000 3                  TRA     s:8422

     1247     8417    4           ELSE DO;

     1248     8418    4              IF STRUCTURE$LEVEL.ORG# ~= DCB_ORG THEN

   8418  3 002435   200043 236100                    LDQ     DCB_ORG,,AUTO
         3 002436   000033 772000                    QRL     27
         3 002437   200150 756100                    STQ     FLV+1,,AUTO
         3 002440   300002 236100                    LDQ     2,,PR3
         3 002441   777777 376007                    ANQ     -1,DL
         3 002442   200150 116100                    CMPQ    FLV+1,,AUTO
         3 002443   002523 601000 3                  TNZ     ORG_CONFLICT_FAILURE

     1249     8419    4                 GOTO ORG_CONFLICT_FAILURE;
     1250     8420    4              END;

     1251     8421
     1252     8422    3           PORT.LEVEL.KEY_TYPE# (%LVL_EXT_REC) = STRUCTURE$LEVEL.KEY_TYPE#;

   8422  3 002444   000001 471500                    LDP1    1,,PR0
         3 002445   300003 220100                    LDX0    3,,PR3
PL6.E3A0      #001=VDA$FOPEN File=VDA$FILE.:VDA5TSI                              FRI 07/04/97 11:03 Page:133
         3 002446   100032 440100                    SXL0    26,,PR1

     1253     8423    3           IF STRUCTURE$LEVEL.KEY_TYPE# = 0 THEN

   8423  3 002447   300003 220100                    LDX0    3,,PR3
         3 002450   002460 601000 3                  TNZ     s:8426

     1254     8424    3              PORT.LEVEL.KEY_TYPE# (%LVL_EXT_REC) =

   8424  3 002451   000001 471500                    LDP1    1,,PR0
         3 002452   100032 236100                    LDQ     26,,PR1
         3 002453   000022 772000                    QRL     18
         3 002454   000001 736000                    QLS     1
         3 002455   000100 100406                    MLR     fill='000'O
         3 002456   000102 000002 1                  ADSC9   DEFAULT_KEY_TYPES_FOR_ORGS,Q cn=0,n=2
         3 002457   100032 400002                    ADSC9   26,,PR1                  cn=2,n=2

     1255     8425    3                DEFAULT_KEY_TYPES_FOR_ORGS (PORT.LEVEL.ORG# (%LVL_EXT_REC));
     1256     8426    3           IF PORT.LEVEL.ORG# (%LVL_EXT_REC) = %ORG_CONSEC

   8426  3 002460   000001 471500                    LDP1    1,,PR0
         3 002461   100032 220100                    LDX0    26,,PR1
         3 002462   000001 100003                    CMPX0   1,DU
         3 002463   002467 601000 3                  TNZ     s:8430
         3 002464   100032 721100                    LXL1    26,,PR1
         3 002465   000001 101003                    CMPX1   1,DU
         3 002466   002531 601000 3                  TNZ     ORG_KEYTYPE_CONFLICT_FAILURE

     1257     8427    3             AND PORT.LEVEL.KEY_TYPE# (%LVL_EXT_REC) ~= %KT_NUMBER THEN
     1258     8428    3              GOTO ORG_KEYTYPE_CONFLICT_FAILURE;
     1259     8429
     1260     8430    3           PORT.LEVEL.SPEC_TYPE# (%LVL_EXT_REC) = STRUCTURE$LEVEL.SPEC_TYPE#;

   8430  3 002467   300003 721100                    LXL1    3,,PR3
         3 002470   100033 741100                    STX1    27,,PR1

     1261     8431
PL6.E3A0      #001=VDA$FOPEN File=VDA$FILE.:VDA5TSI                              FRI 07/04/97 11:03 Page:134
     1262     8432    3           RETURN;

   8432  3 002471   200040 221300                    LDX1  ! CONSEC_BY_ACCIDENT+1,,AUTO
         3 002472   000001 702211                    TSX2  ! 1,X1

     1263     8433
     1264     8434
     1265     8435
     1266     8436    3   OPEN_FAILED:
     1267     8437    3           CALL SET_ERROR_SERIOUS (B$TCB);

   8437  3 002473   000000 236000 xsym  OPEN_FAILED  LDQ     B$TCB$
         3 002474   200145 756100                    STQ     VLP_SN+5,,AUTO
         3 002475   002541 701000 3                  TSX1    SET_ERROR_SERIOUS
         3 002476   000000 011000                    NOP     0

     1268     8438    3           ALTRETURN;

   8438  3 002477   200040 221300                    LDX1  ! CONSEC_BY_ACCIDENT+1,,AUTO
         3 002500   000000 702211                    TSX2  ! 0,X1

     1269     8439
     1270     8440
     1271     8441    3   BAD_FILE_ASN_FAILURE:
     1272     8442    3           CALL SET_ERROR_SERIOUS (%E$FILE_ASN_NOT_ACCESSABLE);

   8442  3 002501   000037 236000 4     BAD_FILE_AS* LDQ     31
         3 002502   200145 756100                    STQ     VLP_SN+5,,AUTO
         3 002503   002541 701000 3                  TSX1    SET_ERROR_SERIOUS
         3 002504   000000 011000                    NOP     0

     1273     8443    3           ALTRETURN;

   8443  3 002505   200040 221300                    LDX1  ! CONSEC_BY_ACCIDENT+1,,AUTO
         3 002506   000000 702211                    TSX2  ! 0,X1

     1274     8444
PL6.E3A0      #001=VDA$FOPEN File=VDA$FILE.:VDA5TSI                              FRI 07/04/97 11:03 Page:135
     1275     8445
     1276     8446    3   PFIL_FAILED:
     1277     8447    3           CALL SET_ERROR_SERIOUS (B$TCB);

   8447  3 002507   000000 236000 xsym  PFIL_FAILED  LDQ     B$TCB$
         3 002510   200145 756100                    STQ     VLP_SN+5,,AUTO
         3 002511   002541 701000 3                  TSX1    SET_ERROR_SERIOUS
         3 002512   000000 011000                    NOP     0

     1278     8448    3           ALTRETURN;

   8448  3 002513   200040 221300                    LDX1  ! CONSEC_BY_ACCIDENT+1,,AUTO
         3 002514   000000 702211                    TSX2  ! 0,X1

     1279     8449
     1280     8450
     1281     8451    3   BAD_FILE_ORG_FAILURE:
     1282     8452    3           CALL SET_ERROR_SERIOUS (%E$FILE_ORG_NOT_ACCESSABLE);

   8452  3 002515   000041 236000 4     BAD_FILE_OR* LDQ     33
         3 002516   200145 756100                    STQ     VLP_SN+5,,AUTO
         3 002517   002541 701000 3                  TSX1    SET_ERROR_SERIOUS
         3 002520   000000 011000                    NOP     0

     1283     8453    3           ALTRETURN;

   8453  3 002521   200040 221300                    LDX1  ! CONSEC_BY_ACCIDENT+1,,AUTO
         3 002522   000000 702211                    TSX2  ! 0,X1

     1284     8454
     1285     8455
     1286     8456    3   ORG_CONFLICT_FAILURE:
     1287     8457    3           CALL SET_ERROR_SERIOUS (%E$ORG_CONFLICT);

   8457  3 002523   000043 236000 4     ORG_CONFLIC* LDQ     35
         3 002524   200145 756100                    STQ     VLP_SN+5,,AUTO
         3 002525   002541 701000 3                  TSX1    SET_ERROR_SERIOUS
PL6.E3A0      #001=VDA$FOPEN File=VDA$FILE.:VDA5TSI                              FRI 07/04/97 11:03 Page:136
         3 002526   000000 011000                    NOP     0

     1288     8458    3           ALTRETURN;

   8458  3 002527   200040 221300                    LDX1  ! CONSEC_BY_ACCIDENT+1,,AUTO
         3 002530   000000 702211                    TSX2  ! 0,X1

     1289     8459
     1290     8460
     1291     8461    3   ORG_KEYTYPE_CONFLICT_FAILURE:
     1292     8462    3           CALL SET_ERROR_SERIOUS (%E$ORG_KEYTYPE_CONFLICT);

   8462  3 002531   000045 236000 4     ORG_KEYTYPE* LDQ     37
         3 002532   200145 756100                    STQ     VLP_SN+5,,AUTO
         3 002533   002541 701000 3                  TSX1    SET_ERROR_SERIOUS
         3 002534   000000 011000                    NOP     0

     1293     8463    3           ALTRETURN;

   8463  3 002535   200040 221300                    LDX1  ! CONSEC_BY_ACCIDENT+1,,AUTO
         3 002536   000000 702211                    TSX2  ! 0,X1

   8457  3 002537                       OALLOC_FAIL* null
   8457  3 002537                       OALLOC_DCB_* null
   8457  3 002537                       OFREE_FAILED null
   8457  3 002537                       OFREE_DCB_F* null
     1294     8464
     1295     8465
     1296     8466    3   OALLOC_FAILED: ;
     1297     8467    3   OALLOC_DCB_FAILED: ;
     1298     8468    3   OFREE_FAILED: ;
     1299     8469    3   OFREE_DCB_FAILED: ;
     1300     8470    3           ALTRETURN;

   8470  3 002537   200040 221300                    LDX1  ! CONSEC_BY_ACCIDENT+1,,AUTO
         3 002540   000000 702211                    TSX2  ! 0,X1

PL6.E3A0      #001=VDA$FOPEN File=VDA$FILE.:VDA5TSI                              FRI 07/04/97 11:03 Page:137
     1301     8471
     1302     8472    3   END OPEN_THE_PORT_EXTERNAL;
     1303     8473
     1304     8474    2   END FILE_LEVEL_OPEN;
     1305     8475
     1306     8476        %EJECT;
PL6.E3A0      #001=VDA$FOPEN File=VDA$FILE.:VDA5TSI                              FRI 07/04/97 11:03 Page:138
     1307     8477    1   SET_ERROR_SERIOUS: PROC (ERR_CODE);

   8477  3 002541   200144 741300       SET_ERROR_S* STX1  ! VLP_SN+4,,AUTO

     1308     8478
     1309     8479    2   DCL ERR_CODE SBIN;
     1310     8480    2   DCL T$ PTR;
     1311     8481    2   DCL FLV UBIN;
     1312     8482
     1313     8483    2           FLV = %FLV_SERIOUS;

   8483  3 002542   000003 235007                    LDA     3,DL
         3 002543   200147 755100                    STA     FLV,,AUTO

     1314     8484    2           GOTO COMMON;

   8484  3 002544   002550 710000 3                  TRA     COMMON

     1315     8485
     1316     8486    2   SET_ERROR_WARN: ENTRY (ERR_CODE);

   8486  3 002545   200144 741300       SET_ERROR_W* STX1  ! VLP_SN+4,,AUTO

     1317     8487
     1318     8488    2           FLV = %FLV_WARN;

   8488  3 002546   000002 235007                    LDA     2,DL
         3 002547   200147 755100                    STA     FLV,,AUTO

   8488  3 002550                       COMMON       null
     1319     8489    2   COMMON: ;
     1320     8490    2           CALL VDG$OALLOC (%CLS_ERR, T$)

   8490  3 002550   200146 630500                    EPPR0   T$,,AUTO
         3 002551   200151 450500                    STP0    FLV+2,,AUTO
         3 002552   000046 236000 4                  LDQ     38
         3 002553   200150 756100                    STQ     FLV+1,,AUTO
PL6.E3A0      #001=VDA$FOPEN File=VDA$FILE.:VDA5TSI                              FRI 07/04/97 11:03 Page:139
         3 002554   200150 630500                    EPPR0   FLV+1,,AUTO
         3 002555   000020 631400 xsym               EPPR1   B_VECTNIL+16
         3 002556   000000 701000 xent               TSX1    VDG$OALLOC
         3 002557   002652 702000 3                  TSX2    OALLOC_FAILED

     1321     8491    2             ALTRET (OALLOC_FAILED);
     1322     8492    2           VD_ERR$ = T$;

   8492  3 002560   200146 236100                    LDQ     T$,,AUTO
         3 002561   200010 756100                    STQ     VD_ERR$,,AUTO

     1323     8493    2           IF ADDR(ERR_CODE)~=B$TCB$ THEN

   8493  3 002562   200145 236100                    LDQ     @ERR_CODE,,AUTO
         3 002563   000000 116000 xsym               CMPQ    B$TCB$
         3 002564   002575 600000 3                  TZE     s:8495

     1324     8494    2              VD$ERR.ERR.CODE# = ERR_CODE;

   8494  3 002565   200010 470500                    LDP0    VD_ERR$,,AUTO
         3 002566   200145 471500                    LDP1    @ERR_CODE,,AUTO
         3 002567   100000 236100                    LDQ     0,,PR1
         3 002570   000003 736000                    QLS     3
         3 002571   000002 676100                    ERQ     2,,PR0
         3 002572   377770 376007                    ANQ     131064,DL
         3 002573   000002 656100                    ERSQ    2,,PR0
         3 002574   002614 710000 3                  TRA     s:8498

     1325     8495    2           ELSE IF B$TCB.ALT$->B$ALT.ERR.ERR# = %E$CREATERR THEN

   8495  3 002575   000000 470400 xsym               LDP0    B$TCB$
         3 002576   000000 471500                    LDP1    0,,PR0
         3 002577   100102 236100                    LDQ     66,,PR1
         3 002600   377770 376007                    ANQ     131064,DL
         3 002601   001560 116007                    CMPQ    880,DL
         3 002602   002611 601000 3                  TNZ     s:8497

PL6.E3A0      #001=VDA$FOPEN File=VDA$FILE.:VDA5TSI                              FRI 07/04/97 11:03 Page:140
     1326     8496    2                 VD$ERR.ERR.CODE# = %E$VD_CREATERR;

   8496  3 002603   200010 473500                    LDP3    VD_ERR$,,AUTO
         3 002604   300002 236100                    LDQ     2,,PR3
         3 002605   000011 376000 4                  ANQ     9
         3 002606   004240 276007                    ORQ     2208,DL
         3 002607   300002 756100                    STQ     2,,PR3
         3 002610   002614 710000 3                  TRA     s:8498

     1327     8497    2              ELSE VD$ERR.ERR = B$TCB.ALT$->B$ALT.ERR;

   8497  3 002611   100102 236100                    LDQ     66,,PR1
         3 002612   200010 473500                    LDP3    VD_ERR$,,AUTO
         3 002613   300002 756100                    STQ     2,,PR3

     1328     8498    2           VD$ERR.FLAGLEV# = FLV;

   8498  3 002614   200147 720100                    LXL0    FLV,,AUTO
         3 002615   200010 470500                    LDP0    VD_ERR$,,AUTO
         3 002616   000003 740100                    STX0    3,,PR0

     1329     8499    2           VD$ERR.DCB# = PORT.DCB#;

   8499  3 002617   200003 471500                    LDP1    @STREAM,,AUTO
         3 002620   100001 473500                    LDP3    1,,PR1
         3 002621   300004 721100                    LXL1    4,,PR3
         3 002622   000004 741100                    STX1    4,,PR0

     1330     8500    2           VD_NUMBER$ = PINCRW(VD_ERR$, SIZEW(VD$ERR));

   8500  3 002623   200010 236100                    LDQ     VD_ERR$,,AUTO
         3 002624   000005 036003                    ADLQ    5,DU
         3 002625   200011 756100                    STQ     VD_NUMBER$,,AUTO

     1331     8501    2           VD$NUMBER.OBJECT.CLASS# (0) = %CLS_ORG;

   8501  3 002626   000034 222003                    LDX2    28,DU
PL6.E3A0      #001=VDA$FOPEN File=VDA$FILE.:VDA5TSI                              FRI 07/04/97 11:03 Page:141
         3 002627   200011 473500                    LDP3    VD_NUMBER$,,AUTO
         3 002630   300000 742100                    STX2    0,,PR3

     1332     8502    2           VD$NUMBER.V# (0) = PORT.LEVEL.ORG# (%LVL_EXT_REC);

   8502  3 002631   100001 474500                    LDP4    1,,PR1
         3 002632   400032 236100                    LDQ     26,,PR4
         3 002633   000022 772000                    QRL     18
         3 002634   300003 756100                    STQ     3,,PR3

     1333     8503    2           VD$NUMBER.OBJECT.CLASS# (1) = %CLS_KEY_TYPE;

   8503  3 002635   000030 221003                    LDX1    24,DU
         3 002636   300004 741100                    STX1    4,,PR3

     1334     8504    2           VD$NUMBER.V# (1) = PORT.LEVEL.KEY_TYPE# (%LVL_EXT_REC);

   8504  3 002637   100001 474500                    LDP4    1,,PR1
         3 002640   400032 236100                    LDQ     26,,PR4
         3 002641   777777 376007                    ANQ     -1,DL
         3 002642   300007 756100                    STQ     7,,PR3

     1335     8505    2           IF FLV = %FLV_SERIOUS THEN

   8505  3 002643   200147 235100                    LDA     FLV,,AUTO
         3 002644   000003 115007                    CMPA    3,DL
         3 002645   002652 601000 3                  TNZ     OALLOC_FAILED

     1336     8506    2              CALL VDA$FCLOSE (STREAM);   /* Let altret fall thru */

   8506  3 002646   200003 630500                    EPPR0   @STREAM,,AUTO
         3 002647   000017 631400 xsym               EPPR1   B_VECTNIL+15
         3 002650   000000 701000 xent               TSX1    VDA$FCLOSE
         3 002651   000000 011000                    NOP     0

   8505  3 002652                       OALLOC_FAIL* null
     1337     8507    2   OALLOC_FAILED:;
PL6.E3A0      #001=VDA$FOPEN File=VDA$FILE.:VDA5TSI                              FRI 07/04/97 11:03 Page:142
     1338     8508    2           RETURN;

   8508  3 002652   200144 221300                    LDX1  ! VLP_SN+4,,AUTO
         3 002653   000001 702211                    TSX2  ! 1,X1
     1339     8509    2   END SET_ERROR_SERIOUS;
     1340     8510    1   END VDA$FOPEN;
     1341     8511        %EOD;

PL6.E3A0      #001=VDA$FOPEN File=VDA$FILE.:VDA5TSI                              FRI 07/04/97 11:03 Page:143
--  Include file information  --

   B$JIT.:LIBRARY  cannot be made into a system file and is referenced.
   B_ERRORS_C.:LIBRARY  is referenced.
   CP_6_SUBS.:LIBRARY  is referenced.
   CP_6.:LIBRARY  cannot be made into a system file and is referenced.
   VD_PERR_C.:VDA5TOU  is referenced.
   VD_MACROS_M.:VDA5TOU  is referenced.
   B$JIT_C.:E04TOU  was found in the system file and is referenced.
   CP_6_C.:E04TOU  was found in the system file and is referenced.
      No diagnostics issued in procedure VDA$FOPEN.
PL6.E3A0      #001=VDA$FOPEN File=VDA$FILE.:VDA5TSI                              FRI 07/04/97 11:03 Page:144

 **** Variables and constants ****

  ****  Section 001 RoData VDA$FOPEN

  ****  Scalars and arrays  ****
OctLoc.c.b A Datatyp(siz) R M Lvl/name                 OctLoc.c.b A Datatyp(siz) R M Lvl/name

     2-0-0/d STRC(2088)  r     1 CONST_FPT_OPEN
   102-0-0/h UBIN(18)    r     1 DEFAULT_KEY_TYPES_FOR_ORGS(0:7)
    76-0-0/c UBIN(9)     r     1 OPEN_EXIST(0:7)
    74-0-0/c UBIN(9)     r     1 OPEN_FUNCTION(0:7)
   100-0-0/c UBIN(9)     r     1 OPEN_ORG(0:7)
     0-0-0/b BIT (4)     r     1 PROTECT_FLAGS_FOR_BOOL(0:1)
     1-0-0/b BIT (4)     r     1 PROTECT_FLAGS_FOR_OPTION(0:7)

  ****  Section 002  Data  VDA$FOPEN

  ****  Scalars and arrays  ****
OctLoc.c.b A Datatyp(siz) R M Lvl/name                 OctLoc.c.b A Datatyp(siz) R M Lvl/name

     0-0-0/d STRC(144)   r     1 FPT_PFIL

  ****  Auto variables  ****

  ****  Scalars and arrays  ****
OctLoc.c.b A Datatyp(siz) R M Lvl/name                 OctLoc.c.b A Datatyp(siz) R M Lvl/name

     4-0-0/w PTR         r     1 @ABSOLUTE                 43-0-0/w PTR         r     1 @DIR_NODE
   145-0-0/w PTR         r     1 @ERR_CODE                 41-0-0/w PTR         r     1 @FILE_NODE$
    42-0-0/w PTR         r     1 @INSERT_NODE$             21-0-0/w PTR         r     1 @KEY
    27-0-0/w PTR         r     1 @KEY                       6-0-0/w PTR         r     1 @OPTIONS
     5-0-0/w PTR         r     1 @RELATIVE                  3-0-0/w PTR         r     1 @STREAM
    *0-0-0/w STRC(72)    r     1 ABSOLUTE                  14-0-0/w PTR         r     1 ABS_KEY$
    15-0-0/w PTR         r     1 CANDIDATE_KEY$            24-0-0/w PTR         r     1 CAND_KEY$
    23-0-0/w PTR         r     1 CAND_PORT$                37-0-0/w BIT         r     1 CONSEC_BY_ACCIDENT
    43-0-0/w UBIN(9)     r     1 DCB_ORG                   13-0-0/c CHAR(31)    r     1 DIR_KEY
    *0-0-0/w STRC(576)   r     1 DIR_NODE                  30-0-0/w PTR         r     1 DIR_NODE$
PL6.E3A0      #001=VDA$FOPEN File=VDA$FILE.:VDA5TSI                              FRI 07/04/97 11:03 Page:145
    16-0-0/w BIT         r     1 DO_THE_CALL
    36-0-0/w BIT         r     1 ENTIRE_STRUCTURE_PROTECTED
    *0-0-0/w SBIN        r     1 ERR_CODE                  42-0-0/w PTR         r     1 EXT_DCB$
    32-0-0/w PTR         r     1 FILE_KEY$                 31-0-0/w PTR         r     1 FILE_NODE$
    *0-0-0/w PTR         r     1 FILE_NODE$                32-0-0/w PTR         r     1 FILE_NODE_KEY_NAME$
    33-0-0/c CHAR        r     1 FILE_STCLASS             147-0-0/w UBIN        r     1 FLV
    46-0-0/d STRC(2088)  r     1 FPT_OPEN                  22-0-0/w PTR         r     1 GIVEN_KEY$
    13-0-0/w SBIN        r     1 I                         *0-0-0/w PTR         r     1 INSERT_NODE$
    *0-0-0/w STRC(72)    r     1 KEY                       *0-0-0/w STRC(72)    r     1 KEY
     7-0-0/w SBIN        r     1 LEVEL                     30-0-0/w PTR         r     1 NEW_PORT$
    *0-0-0/w STRC(180)   r     1 OPTIONS                   34-0-0/w SBIN        r     1 PFN_INDEX
    44-0-0/w PTR         r     1 PORT_FIT$                 26-0-0/w PTR         r     1 PORT_KEY$
    41-0-0/w PTR         r     1 PORT_KEY$                 27-0-0/w PTR         r     1 PORT_KEY_NAME$
    *0-0-0/w SBIN        r     1 RELATIVE                  31-0-0/w PTR         r     1 REQ_DCB$
    *0-0-0/w STRC(864)   r     1 STREAM                    25-0-0/w PTR         r     1 STRUCTURE_LEVEL$
    24-0-0/w PTR         r     1 STRUCTURE_LEVEL_NODE$
    23-0-0/w PTR         r     1 STRUCTURE_SPEC$          146-0-0/w PTR         r     1 T$
    10-0-0/w PTR         r     1 VD_ERR$                   11-0-0/w PTR         r     1 VD_NUMBER$
   140-0-0/d STRC(90)    r     1 VLP_SN
    35-0-0/w PTR         r     1 WHERE_TO_INSERT_NEW_FILE$

  ****  SYMREF variables  ****

  ****  Scalars and arrays  ****
OctLoc.c.b A Datatyp(siz) R M Lvl/name                 OctLoc.c.b A Datatyp(siz) R M Lvl/name

     0-0-0/w PTR         r     1 B$JIT$                     0-0-0/w PTR         r     1 B$TCB$
     0-0-0/w STRC(144)   r     1 VD_$$MON_ACC               0-0-0/w ASTR(90)    r     1 VD_$FILETYPE
     0-0-0/w STRC(22644) r     1 VD_6E                      0-0-0/w STRC(9)     r     1 VD_ACCESSOR_PRIV
     0-0-0/w STRC(72)    r     1 VD_KEY_FIRST_CONSEC_REC

  ****  BASED and DCB variables  ****

  ****  Scalars and arrays  ****
OctLoc.c.b A Datatyp(siz) R M Lvl/name                 OctLoc.c.b A Datatyp(siz) R M Lvl/name

     0-0-0/w ASTR(9)     r     1 ABS$KEY                    0-0-0/w STRC(2448)  r     1 B$ALT
PL6.E3A0      #001=VDA$FOPEN File=VDA$FILE.:VDA5TSI                              FRI 07/04/97 11:03 Page:146
     0-0-0/d STRC(8856)  r     1 B$JIT                      0-0-0/w STRC(144)   r     1 B$TCB
     0-0-0/w ASTR(9)     r     1 CAND$KEY                   0-0-0/w ASTR(9)     r     1 CAND$KEY
     0-0-0/w STRC(1944)  r     1 CAND$PORT                  0-0-0/w STRC(576)   r     1 DIR$NODE
     0-0-0/d ASTR(3528)  r     1 EXT$DCB                    0-0-0/d ASTR(3528)  r     1 F$DCB
     0-0-0/w STRC(648)   r     1 FILE$KEY                   0-0-0/w STRC(648)   r     1 FILE$KEY
     0-0-0/w STRC(468)   r     1 FILE$NODE                  0-0-0/w STRC(468)   r     1 FILE$NODE
     0-0-0/c ASTR(9)     r     1 FILE$NODE_KEY_NAME         0-0-0/w ASTR(9)     r     1 GIVEN$KEY
     0-0-0/w STRC(468)   r     1 INSERT$NODE                0-0-0/w STRC(1944)  r     1 NEW$PORT
     0-0-0/w STRC(1944)  r     1 PORT                       0-0-0/w STRC(36972) r     1 PORT$FIT
     0-0-0/w STRC(648)   r     1 PORT$KEY                   0-0-0/w STRC(648)   r     1 PORT$KEY
     0-0-0/c ASTR(9)     r     1 PORT$KEY_NAME              0-0-0/d ASTR(3528)  r     1 REQ$DCB
     0-0-0/w STRC(468)   r     1 STRUCTURE                  0-0-0/w STRC(324)   r     1 STRUCTURE$LEVEL
     0-0-0/w STRC(468)   r     1 STRUCTURE$LEVEL_NODE       0-0-0/w STRC(180)   r     1 STRUCTURE$SPEC
     0-0-0/w ASTR(90)    r     1 VD$BUFFER                  0-0-0/w STRC(180)   r     1 VD$ERR
     0-0-0/w STRC(648)   r     1 VD$FILE_KEY                0-0-0/w STRC(648)   r     1 VD$FILE_KEY
     0-0-0/w STRC(468)   r     1 VD$FILE_NODE               0-0-0/w STRC(36972) r     1 VD$FIT
     0-0-0/w STRC(144)   r     1 VD$NUMBER(0:2)
     0-0-0/w ASTR(81)    r     1 VD$TEXTC_REMOTE            0-0-0/w ASTR(81)    r     1 VD$TEXTC_REMOTE


   Procedure VDA$FOPEN requires 1452 words for executable code.
   Procedure VDA$FOPEN requires 110 words of local(AUTO) storage.
PL6.E3A0      #001=VDA$FOPEN File=VDA$FILE.:VDA5TSI                              FRI 07/04/97 11:03 Page:147
          *** CROSS REFERENCE LISTING ***
**     DENOTES     IDENTIFIER DEFINITION
<<                 IDENTIFIER'S VALUE SET
>>                 IDENTIFIER'S VALUE USED
<>                 IDENTIFIER SET AND/OR USED
--                 IDENTIFIER REFERENCED
PL6.E3A0      #001=VDA$FOPEN File=VDA$FILE.:VDA5TSI                              FRI 07/04/97 11:03 Page:148
          MINI XREF LISTING

ABS$KEY.BYTES IN PROCEDURE FILE_LEVEL_LOCATION
      5539**DCL      5598>>IF
ABS$KEY.LENGTH# IN PROCEDURE FILE_LEVEL_LOCATION
      5537**DCL      5539--IMP-SIZ  5598>>IF
ABSOLUTE
      4671**DCL       153--PROC     5418<>CALL     5570>>IF       5623<>CALL     5641<>CALL     5655>>ASSIGN
ABSOLUTE.REP#
      4675**DCL      5582>>IF       5656>>IF
ABSOLUTE.V$
      4675**DCL      5582>>ASSIGN   5582--ASSIGN   5657>>CALL
ABS_KEY$ IN PROCEDURE FILE_LEVEL_LOCATION
      5516**DCL      5529--IMP-PTR  5582<<ASSIGN   5582<<ASSIGN   5598>>IF       5598>>IF
B$ALT.CODE
      5404**DCL      5404--REDEF    5405--REDEF    5405--REDEF
B$ALT.ERR
      5405**DCL      8497>>ASSIGN
B$ALT.ERR.ERR#
      5406**DCL      5406--REDEF    8495>>IF
B$ALT.EVID
      5405**DCL      5405--REDEF    5405--REDEF
B$JIT.ACCN
      4279**DCL      6420>>ASSIGN
B$JIT.CPFLAGS1.SLEAZE
      4373**DCL      4373--REDEF
B$JIT.ERR.MID
      4280**DCL      4280--REDEF
B$JIT.FACCN
      4279**DCL      6422>>ASSIGN
B$JIT.FPSN
      4360**DCL      6424>>ASSIGN
B$JIT.JRESPEAK
      4441**DCL      4442--REDEF
PL6.E3A0      #001=VDA$FOPEN File=VDA$FILE.:VDA5TSI                              FRI 07/04/97 11:03 Page:149
B$JIT.ORIGINATOR_PORT.FROM_CR
      4550**DCL      4550--REDEF    4551--REDEF
B$JIT.PNR
      4454**DCL      4454--REDEF
B$JIT.TSLINE
      4548**DCL      4549--REDEF
B$JIT$
      4896**DCL      4274--IMP-PTR  6420>>ASSIGN   6422>>ASSIGN   6424>>ASSIGN
B$TCB
      5400**DCL      8437<>CALL     8447<>CALL
B$TCB.ALT$
      5400**DCL      8495>>IF       8497>>ASSIGN
B$TCB$
      4895**DCL      5400--IMP-PTR  8437>>CALL     8447>>CALL     8493>>IF       8495>>IF       8497>>ASSIGN
BAD_FILE_ASN_FAILURE IN PROCEDURE OPEN_THE_PORT_EXTERNAL
      8442**LABEL    8370--GOTO
BAD_FILE_ORG_FAILURE IN PROCEDURE OPEN_THE_PORT_EXTERNAL
      8452**LABEL    8397--GOTO     8399--GOTO
BUILD_PORT IN PROCEDURE FILE_LEVEL_LOCATION
      6109**PROC     5641--CALL     6035--CALL
BUILD_PORT_FAILED IN PROCEDURE FILE_LEVEL_LOCATION
      5676**LABEL    5641--CALLALT
BUILD_PORT_FAILED IN PROCEDURE FIND_PORT
      6044**LABEL    6035--CALLALT
CAND$KEY.BYTES IN PROCEDURE FILE_LEVEL_LOCATION
      5562**DCL      5598>>IF
CAND$KEY.LENGTH# IN PROCEDURE FILE_LEVEL_LOCATION
      5560**DCL      5562--IMP-SIZ  5598>>IF
CAND$KEY.BYTES IN PROCEDURE FIND_PORT
      5965**DCL      5993>>IF       6021>>IF
CAND$KEY.LENGTH# IN PROCEDURE FIND_PORT
      5963**DCL      5965--IMP-SIZ  5993>>IF       6021>>IF
CAND$PORT.FILE_KEY.REP# IN PROCEDURE FIND_PORT
      5898**DCL      5990>>IF       6018>>IF
CAND$PORT.FILE_KEY.V$ IN PROCEDURE FIND_PORT
      5898**DCL      5990>>ASSIGN   5990--ASSIGN   6018>>ASSIGN   6018--ASSIGN
PL6.E3A0      #001=VDA$FOPEN File=VDA$FILE.:VDA5TSI                              FRI 07/04/97 11:03 Page:150
CAND$PORT.FLINK$ IN PROCEDURE FIND_PORT
      5883**DCL      5995>>ASSIGN
CAND$PORT.REFS# IN PROCEDURE FIND_PORT
      5883**DCL      6006<<ASSIGN   6006>>ASSIGN
CANDIDATE_KEY$ IN PROCEDURE FILE_LEVEL_LOCATION
      5517**DCL      5552--IMP-PTR  5595<<ASSIGN   5595<<ASSIGN   5598>>IF       5598>>IF
CAND_KEY$ IN PROCEDURE FIND_PORT
      5774**DCL      5955--IMP-PTR  5990<<ASSIGN   5990<<ASSIGN   5993>>IF       5993>>IF       6018<<ASSIGN
      6018<<ASSIGN   6021>>IF       6021>>IF
CAND_PORT$ IN PROCEDURE FIND_PORT
      5773**DCL      5857--IMP-PTR  5979<<ASSIGN   5981>>DOWHILE  5982>>IF       5990>>IF       5990>>ASSIGN
      5990>>ASSIGN   5995<<ASSIGN   5995>>ASSIGN   5999>>IF       6005>>ASSIGN   6006>>ASSIGN   6006>>ASSIGN
COMMON IN PROCEDURE SET_ERROR_SERIOUS
      8488**LABEL    8484--GOTO
CONSEC_BY_ACCIDENT IN PROCEDURE FILE_LEVEL_OPEN
      6571**DCL      7290<<ASSIGN   7296<<ASSIGN   7321<<ASSIGN   7324>>IF
CONST_FPT_OPEN IN PROCEDURE OPEN_THE_PORT_EXTERNAL
      7918**DCL      8286>>ASSIGN
CONST_FPT_OPEN.ACSVEH_ IN PROCEDURE OPEN_THE_PORT_EXTERNAL
      7920**DCL      7921--REDEF
CONST_FPT_OPEN.ALTKEYS_ IN PROCEDURE OPEN_THE_PORT_EXTERNAL
      7926**DCL      7927--REDEF    7927--REDEF
CONST_FPT_OPEN.HDR_ IN PROCEDURE OPEN_THE_PORT_EXTERNAL
      7925**DCL      7926--REDEF
CONST_FPT_OPEN.TAB_ IN PROCEDURE OPEN_THE_PORT_EXTERNAL
      7924**DCL      7925--REDEF
CONST_FPT_OPEN.UHL_ IN PROCEDURE OPEN_THE_PORT_EXTERNAL
      7918**DCL      7919--REDEF    7919--REDEF
CONST_FPT_OPEN.V IN PROCEDURE OPEN_THE_PORT_EXTERNAL
      7927**DCL      7918--DCLINIT
CONST_FPT_OPEN.V.FSN# IN PROCEDURE OPEN_THE_PORT_EXTERNAL
      7958**DCL      7958--REDEF    7958--REDEF
CONST_FPT_OPEN.WSN_ IN PROCEDURE OPEN_THE_PORT_EXTERNAL
      7924**DCL      7924--REDEF
DCB_ORG IN PROCEDURE OPEN_THE_PORT_EXTERNAL
      8007**DCL      8384<<ASSIGN   8394<<ASSIGN   8396<<ASSIGN   8416>>ASSIGN   8418>>IF
PL6.E3A0      #001=VDA$FOPEN File=VDA$FILE.:VDA5TSI                              FRI 07/04/97 11:03 Page:151
DEFAULT_KEY_TYPES_FOR_ORGS IN PROCEDURE OPEN_THE_PORT_EXTERNAL
      7983**DCL      8424>>ASSIGN
DIR$NODE IN PROCEDURE FILE_LEVEL_OPEN
      6926**DCL      7273<>CALL
DIR$NODE.FILE_STCLASS IN PROCEDURE FILE_LEVEL_OPEN
      6953**DCL      7228>>IF
DIR$NODE.FLINK$ IN PROCEDURE FILE_LEVEL_OPEN
      6952**DCL      7233>>ASSIGN
DIR$NODE.HEAD$ IN PROCEDURE FILE_LEVEL_OPEN
      6953**DCL      7230>>ASSIGN
DIR$NODE.KEY IN PROCEDURE FILE_LEVEL_OPEN
      6952**DCL      7228>>IF
DIR_KEY IN PROCEDURE FILE_LEVEL_OPEN
      6558**DCL      7222<<ASSIGN   7228>>IF
DIR_NODE IN PROCEDURE OPEN_THE_PORT_INTERNAL
      7441**DCL      7429--PROC
DIR_NODE.COUNT# IN PROCEDURE OPEN_THE_PORT_INTERNAL
      7468**DCL      7741<<ASSIGN   7741>>ASSIGN
DIR_NODE.HEAD$ IN PROCEDURE OPEN_THE_PORT_INTERNAL
      7468**DCL      7733<<ASSIGN
DIR_NODE.TAIL$ IN PROCEDURE OPEN_THE_PORT_INTERNAL
      7468**DCL      7729>>ASSIGN   7738<<ASSIGN
DIR_NODE$ IN PROCEDURE FILE_LEVEL_OPEN
      6564**DCL      6926--IMP-PTR  7208<<ASSIGN   7225<<ASSIGN   7227>>DOWHILE  7228>>IF       7228>>IF
      7230>>ASSIGN   7233<<ASSIGN   7233>>ASSIGN   7269>>IF       7273>>CALL
DO_THE_CALL IN PROCEDURE FILE_LEVEL_LOCATION
      5518**DCL      5635<<ASSIGN   5638<<ASSIGN   5640>>IF
ENTIRE_STRUCTURE_PROTECTED IN PROCEDURE FILE_LEVEL_OPEN
      6570**DCL      7289<<ASSIGN   7307<<ASSIGN   7312>>IF
ERR_CODE IN PROCEDURE SET_ERROR_SERIOUS
      8479**DCL      8477--PROC     8486--ENTRY    8493--IF       8494>>ASSIGN
EXIST_CONFLICT_FAILURE IN PROCEDURE FILE_LEVEL_OPEN
      7357**LABEL    7195--GOTO
EXT$DCB.ACTPOS IN PROCEDURE OPEN_THE_PORT_EXTERNAL
      8215**DCL      8215--REDEF
EXT$DCB.ARS# IN PROCEDURE OPEN_THE_PORT_EXTERNAL
PL6.E3A0      #001=VDA$FOPEN File=VDA$FILE.:VDA5TSI                              FRI 07/04/97 11:03 Page:152
      8189**DCL      8189--REDEF
EXT$DCB.ASN# IN PROCEDURE OPEN_THE_PORT_EXTERNAL
      8204**DCL      8369>>IF
EXT$DCB.ATTR IN PROCEDURE OPEN_THE_PORT_EXTERNAL
      8208**DCL      8209--REDEF
EXT$DCB.BORROW IN PROCEDURE OPEN_THE_PORT_EXTERNAL
      8223**DCL      8223--REDEF    8223--REDEF    8223--REDEF
EXT$DCB.DCBNAME.L IN PROCEDURE OPEN_THE_PORT_EXTERNAL
      8237**DCL      8237--IMP-SIZ
EXT$DCB.EOMCHAR# IN PROCEDURE OPEN_THE_PORT_EXTERNAL
      8193**DCL      8193--REDEF
EXT$DCB.FFLG.DELR# IN PROCEDURE OPEN_THE_PORT_EXTERNAL
      8194**DCL      8371>>IF
EXT$DCB.FFLG.UPD# IN PROCEDURE OPEN_THE_PORT_EXTERNAL
      8194**DCL      8371>>IF
EXT$DCB.FFLG.WNEW# IN PROCEDURE OPEN_THE_PORT_EXTERNAL
      8194**DCL      8371>>IF
EXT$DCB.FLDID IN PROCEDURE OPEN_THE_PORT_EXTERNAL
      8218**DCL      8218--REDEF
EXT$DCB.FORM$ IN PROCEDURE OPEN_THE_PORT_EXTERNAL
      8212**DCL      8212--REDEF
EXT$DCB.FSECT IN PROCEDURE OPEN_THE_PORT_EXTERNAL
      8228**DCL      8228--REDEF
EXT$DCB.FSN# IN PROCEDURE OPEN_THE_PORT_EXTERNAL
      8205**DCL      8205--REDEF    8205--REDEF    8206--REDEF
EXT$DCB.HEADER$ IN PROCEDURE OPEN_THE_PORT_EXTERNAL
      8211**DCL      8211--REDEF
EXT$DCB.IXTNSIZE# IN PROCEDURE OPEN_THE_PORT_EXTERNAL
      8209**DCL      8209--REDEF
EXT$DCB.LASTSTA$ IN PROCEDURE OPEN_THE_PORT_EXTERNAL
      8198**DCL      8198--REDEF
EXT$DCB.LVL IN PROCEDURE OPEN_THE_PORT_EXTERNAL
      8224**DCL      8224--REDEF
EXT$DCB.NAME#.C IN PROCEDURE OPEN_THE_PORT_EXTERNAL
      8199**DCL      8199--REDEF
EXT$DCB.NOEOF IN PROCEDURE OPEN_THE_PORT_EXTERNAL
PL6.E3A0      #001=VDA$FOPEN File=VDA$FILE.:VDA5TSI                              FRI 07/04/97 11:03 Page:153
      8221**DCL      8221--REDEF
EXT$DCB.NRECS# IN PROCEDURE OPEN_THE_PORT_EXTERNAL
      8210**DCL      8210--REDEF
EXT$DCB.NRECX IN PROCEDURE OPEN_THE_PORT_EXTERNAL
      8229**DCL      8229--REDEF
EXT$DCB.OHDR IN PROCEDURE OPEN_THE_PORT_EXTERNAL
      8221**DCL      8221--REDEF
EXT$DCB.ORG# IN PROCEDURE OPEN_THE_PORT_EXTERNAL
      8204**DCL      8204--REDEF    8382>>DOCASE
EXT$DCB.PRECNO IN PROCEDURE OPEN_THE_PORT_EXTERNAL
      8227**DCL      8227--REDEF
EXT$DCB.RCSZ IN PROCEDURE OPEN_THE_PORT_EXTERNAL
      8233**DCL      8233--REDEF
EXT$DCB.RES# IN PROCEDURE OPEN_THE_PORT_EXTERNAL
      8200**DCL      8200--REDEF
EXT$DCB.SETX IN PROCEDURE OPEN_THE_PORT_EXTERNAL
      8212**DCL      8212--REDEF
EXT$DCB.TAB$ IN PROCEDURE OPEN_THE_PORT_EXTERNAL
      8212**DCL      8212--REDEF
EXT$DCB.TDA IN PROCEDURE OPEN_THE_PORT_EXTERNAL
      8226**DCL      8227--REDEF
EXT$DCB.WSN# IN PROCEDURE OPEN_THE_PORT_EXTERNAL
      8200**DCL      8200--REDEF
EXT_DCB$ IN PROCEDURE OPEN_THE_PORT_EXTERNAL
      8006**DCL      8183--IMP-PTR  8368<<ASSIGN   8369>>IF       8371>>IF       8371>>IF       8371>>IF
      8382>>DOCASE
F$DCB.ACTPOS IN PROCEDURE FILE_LEVEL_OPEN
      7155**DCL      7155--REDEF
F$DCB.ARS# IN PROCEDURE FILE_LEVEL_OPEN
      7129**DCL      7129--REDEF
F$DCB.ATTR IN PROCEDURE FILE_LEVEL_OPEN
      7148**DCL      7149--REDEF
F$DCB.BORROW IN PROCEDURE FILE_LEVEL_OPEN
      7163**DCL      7163--REDEF    7163--REDEF    7163--REDEF
F$DCB.DCBNAME.L IN PROCEDURE FILE_LEVEL_OPEN
      7177**DCL      7177--IMP-SIZ
PL6.E3A0      #001=VDA$FOPEN File=VDA$FILE.:VDA5TSI                              FRI 07/04/97 11:03 Page:154
F$DCB.EOMCHAR# IN PROCEDURE FILE_LEVEL_OPEN
      7133**DCL      7133--REDEF
F$DCB.FLDID IN PROCEDURE FILE_LEVEL_OPEN
      7158**DCL      7158--REDEF
F$DCB.FORM$ IN PROCEDURE FILE_LEVEL_OPEN
      7152**DCL      7152--REDEF
F$DCB.FSECT IN PROCEDURE FILE_LEVEL_OPEN
      7168**DCL      7168--REDEF
F$DCB.FSN# IN PROCEDURE FILE_LEVEL_OPEN
      7145**DCL      7145--REDEF    7145--REDEF    7146--REDEF
F$DCB.FUN# IN PROCEDURE FILE_LEVEL_OPEN
      7144**DCL      7318>>IF
F$DCB.HEADER$ IN PROCEDURE FILE_LEVEL_OPEN
      7151**DCL      7151--REDEF
F$DCB.IXTNSIZE# IN PROCEDURE FILE_LEVEL_OPEN
      7149**DCL      7149--REDEF
F$DCB.LASTSTA$ IN PROCEDURE FILE_LEVEL_OPEN
      7138**DCL      7138--REDEF
F$DCB.LVL IN PROCEDURE FILE_LEVEL_OPEN
      7164**DCL      7164--REDEF
F$DCB.NAME#.C IN PROCEDURE FILE_LEVEL_OPEN
      7139**DCL      7139--REDEF
F$DCB.NOEOF IN PROCEDURE FILE_LEVEL_OPEN
      7161**DCL      7161--REDEF
F$DCB.NRECS# IN PROCEDURE FILE_LEVEL_OPEN
      7150**DCL      7150--REDEF
F$DCB.NRECX IN PROCEDURE FILE_LEVEL_OPEN
      7169**DCL      7169--REDEF
F$DCB.OHDR IN PROCEDURE FILE_LEVEL_OPEN
      7161**DCL      7161--REDEF
F$DCB.ORG# IN PROCEDURE FILE_LEVEL_OPEN
      7144**DCL      7144--REDEF
F$DCB.PRECNO IN PROCEDURE FILE_LEVEL_OPEN
      7167**DCL      7167--REDEF
F$DCB.RCSZ IN PROCEDURE FILE_LEVEL_OPEN
      7173**DCL      7173--REDEF
PL6.E3A0      #001=VDA$FOPEN File=VDA$FILE.:VDA5TSI                              FRI 07/04/97 11:03 Page:155
F$DCB.RES# IN PROCEDURE FILE_LEVEL_OPEN
      7140**DCL      7140--REDEF
F$DCB.SETX IN PROCEDURE FILE_LEVEL_OPEN
      7152**DCL      7152--REDEF
F$DCB.TAB$ IN PROCEDURE FILE_LEVEL_OPEN
      7152**DCL      7152--REDEF
F$DCB.TDA IN PROCEDURE FILE_LEVEL_OPEN
      7166**DCL      7167--REDEF
F$DCB.WSN# IN PROCEDURE FILE_LEVEL_OPEN
      7140**DCL      7140--REDEF
FCLOSE_FAILED IN PROCEDURE FILE_LEVEL_LOCATION
      5676**LABEL    5607--CALLALT
FDETACH_FAILED IN PROCEDURE BUILD_PORT
      6451**LABEL    6401--CALLALT
FDETACH_FAILED IN PROCEDURE FIND_PORT
      6044**LABEL    6002--CALLALT  6023--CALLALT
FILE$KEY.ASN# IN PROCEDURE BUILD_PORT
      6177**DCL      6432<<ASSIGN
FILE$KEY.DCB# IN PROCEDURE BUILD_PORT
      6178**DCL      6411>>IF       6412>>ASSIGN   6413--ASSIGN   6435<<ASSIGN
FILE$KEY.LENGTH# IN PROCEDURE BUILD_PORT
      6175**DCL      6429<<ASSIGN
FILE$KEY.PASS IN PROCEDURE BUILD_PORT
      6178**DCL      6434<<ASSIGN
FILE$KEY.PSN IN PROCEDURE BUILD_PORT
      6178**DCL      6416<<ASSIGN   6424<<ASSIGN
FILE$KEY.RES IN PROCEDURE BUILD_PORT
      6177**DCL      6433<<ASSIGN
FILE$KEY.UNIQUE.ACCT IN PROCEDURE BUILD_PORT
      6176**DCL      6415<<ASSIGN   6417>>IF       6420<<ASSIGN   6422<<ASSIGN   6429--ASSIGN
FILE$KEY.UNIQUE.FNAME.BYTES IN PROCEDURE BUILD_PORT
      6177**DCL      6427<<ASSIGN
FILE$KEY.UNIQUE.FNAME.LENGTH# IN PROCEDURE BUILD_PORT
      6176**DCL      6426<<ASSIGN   6429--ASSIGN   6429>>ASSIGN
FILE$KEY.DCB# IN PROCEDURE FIND_PORT
      5846**DCL      5977>>IF       6029>>IF
PL6.E3A0      #001=VDA$FOPEN File=VDA$FILE.:VDA5TSI                              FRI 07/04/97 11:03 Page:156
FILE$KEY.LENGTH# IN PROCEDURE FIND_PORT
      5843**DCL      5975--ASSIGN
FILE$NODE.DESC.KEY IN PROCEDURE FILE_LEVEL_OPEN
      7027**DCL      7238>>IF
FILE$NODE.DESC.KEY.V$ IN PROCEDURE FILE_LEVEL_OPEN
      7029**DCL      7239>>ASSIGN
FILE$NODE.FLINK$ IN PROCEDURE FILE_LEVEL_OPEN
      6990**DCL      7250>>ASSIGN
FILE$NODE.ACCESS IN PROCEDURE OPEN_THE_PORT_INTERNAL
      7520**DCL      7725<<ASSIGN   7748>>IF
FILE$NODE.BLINK$ IN PROCEDURE OPEN_THE_PORT_INTERNAL
      7508**DCL      7729<<ASSIGN   7731<<ASSIGN   7732>>IF       7735>>ASSIGN
FILE$NODE.DESC.DATA$ IN PROCEDURE OPEN_THE_PORT_INTERNAL
      7563**DCL      7758>>IF       7759>>CALL     7759>>CALL
FILE$NODE.DESC.KEY IN PROCEDURE OPEN_THE_PORT_INTERNAL
      7545**DCL      7718<<ASSIGN
FILE$NODE.DESC.KEY.REP# IN PROCEDURE OPEN_THE_PORT_INTERNAL
      7547**DCL      7719>>IF
FILE$NODE.DESC.KEY.V$ IN PROCEDURE OPEN_THE_PORT_INTERNAL
      7547**DCL      7720<>CALL
FILE$NODE.DESC.SPEC IN PROCEDURE OPEN_THE_PORT_INTERNAL
      7559**DCL      7751>>ASSIGN
FILE$NODE.DESC.SPEC.V$ IN PROCEDURE OPEN_THE_PORT_INTERNAL
      7561**DCL      7753>>CALL     7753>>CALL
FILE$NODE.FLINK$ IN PROCEDURE OPEN_THE_PORT_INTERNAL
      7508**DCL      7736<<ASSIGN   7737>>IF       7740>>ASSIGN
FILE$NODE_KEY_NAME.BYTES IN PROCEDURE FILE_LEVEL_OPEN
      7068**DCL      7241>>IF       7243>>IF
FILE$NODE_KEY_NAME.LENGTH# IN PROCEDURE FILE_LEVEL_OPEN
      7066**DCL      7068--IMP-SIZ  7241>>IF       7243>>IF
FILE_KEY$ IN PROCEDURE BUILD_PORT
      6129**DCL      6148--IMP-PTR  6408<<ASSIGN   6411>>IF       6412>>ASSIGN   6413>>ASSIGN   6415>>ASSIGN
      6416>>ASSIGN   6417>>IF       6420>>ASSIGN   6422>>ASSIGN   6424>>ASSIGN   6426>>ASSIGN   6427>>ASSIGN
      6429>>ASSIGN   6429>>ASSIGN   6432>>ASSIGN   6433>>ASSIGN   6434>>ASSIGN   6435>>ASSIGN
FILE_LEVEL_LOCATION
      5512**PROC     5423--CALL
PL6.E3A0      #001=VDA$FOPEN File=VDA$FILE.:VDA5TSI                              FRI 07/04/97 11:03 Page:157
FILE_LEVEL_LOCATION_FAILED
      5431**LABEL    5423--CALLALT
FILE_LEVEL_OPEN
      6540**PROC     5427--CALL
FILE_LEVEL_OPEN_FAILED
      5431**LABEL    5427--CALLALT
FILE_NODE$ IN PROCEDURE FILE_LEVEL_OPEN
      6565**DCL      6964--IMP-PTR  7207<<ASSIGN   7230<<ASSIGN   7237>>DOWHILE  7238>>IF       7239>>ASSIGN
      7245>>ASSIGN   7246<<ASSIGN   7250<<ASSIGN   7250>>ASSIGN   7269>>IF       7273<>CALL
FILE_NODE$ IN PROCEDURE OPEN_THE_PORT_INTERNAL
      7431**DCL      7429--PROC     7482--IMP-PTR  7714>>IF       7716<>CALL     7718>>ASSIGN   7719>>IF
      7720>>CALL     7725>>ASSIGN   7729>>ASSIGN   7731>>ASSIGN   7732>>IF       7733>>ASSIGN   7735>>ASSIGN
      7735>>ASSIGN   7736>>ASSIGN   7737>>IF       7738>>ASSIGN   7740>>ASSIGN   7740>>ASSIGN   7747>>ASSIGN
      7748>>IF       7751>>ASSIGN   7753>>CALL     7753>>CALL     7758>>IF       7759>>CALL     7759>>CALL
FILE_NODE_KEY_NAME$ IN PROCEDURE FILE_LEVEL_OPEN
      6566**DCL      7058--IMP-PTR  7239<<ASSIGN   7241>>IF       7241>>IF       7243>>IF       7243>>IF
FILE_STCLASS IN PROCEDURE FILE_LEVEL_OPEN
      6567**DCL      7210<<ASSIGN   7212>>IF       7212--IF       7212--IF       7220--CALLBLT  7222--ASSIGN
      7222--ASSIGN   7228>>IF
FIND_INTERNAL_DIR_NODE IN PROCEDURE FILE_LEVEL_OPEN
      7227**LABEL    7231--EXIT
FIND_INTERNAL_FILE_NODE IN PROCEDURE FILE_LEVEL_OPEN
      7237**LABEL    7242--EXIT     7247--EXIT
FIND_PORT IN PROCEDURE FILE_LEVEL_LOCATION
      5754**PROC     5623--CALL     5671--CALL
FIND_PORT_FAILED IN PROCEDURE FILE_LEVEL_LOCATION
      5676**LABEL    5623--CALLALT  5671--CALLALT
FLV IN PROCEDURE SET_ERROR_SERIOUS
      8481**DCL      8483<<ASSIGN   8488<<ASSIGN   8498>>ASSIGN   8505>>IF
FPT_OPEN IN PROCEDURE OPEN_THE_PORT_EXTERNAL
      8074**DCL      8286<<ASSIGN   8357<>CALL
FPT_OPEN.ACCT_ IN PROCEDURE OPEN_THE_PORT_EXTERNAL
      8078**DCL      8302<<ASSIGN
FPT_OPEN.ACSVEH_ IN PROCEDURE OPEN_THE_PORT_EXTERNAL
      8076**DCL      8077--REDEF
FPT_OPEN.ALTKEYS_ IN PROCEDURE OPEN_THE_PORT_EXTERNAL
PL6.E3A0      #001=VDA$FOPEN File=VDA$FILE.:VDA5TSI                              FRI 07/04/97 11:03 Page:158
      8082**DCL      8083--REDEF    8083--REDEF
FPT_OPEN.FPARAM_ IN PROCEDURE OPEN_THE_PORT_EXTERNAL
      8079**DCL      8353<<ASSIGN
FPT_OPEN.HDR_ IN PROCEDURE OPEN_THE_PORT_EXTERNAL
      8081**DCL      8082--REDEF
FPT_OPEN.IFPARAM_ IN PROCEDURE OPEN_THE_PORT_EXTERNAL
      8079**DCL      8317<<ASSIGN
FPT_OPEN.NAME_ IN PROCEDURE OPEN_THE_PORT_EXTERNAL
      8075**DCL      8301<<ASSIGN
FPT_OPEN.PASS_ IN PROCEDURE OPEN_THE_PORT_EXTERNAL
      8076**DCL      8309<<ASSIGN
FPT_OPEN.SN_ IN PROCEDURE OPEN_THE_PORT_EXTERNAL
      8074**DCL      8308<<ASSIGN
FPT_OPEN.TAB_ IN PROCEDURE OPEN_THE_PORT_EXTERNAL
      8080**DCL      8081--REDEF
FPT_OPEN.UHL_ IN PROCEDURE OPEN_THE_PORT_EXTERNAL
      8074**DCL      8075--REDEF    8075--REDEF
FPT_OPEN.V IN PROCEDURE OPEN_THE_PORT_EXTERNAL
      8083**DCL      8287--ASSIGN
FPT_OPEN.V.ASN# IN PROCEDURE OPEN_THE_PORT_EXTERNAL
      8093**DCL      8303<<ASSIGN
FPT_OPEN.V.DCB# IN PROCEDURE OPEN_THE_PORT_EXTERNAL
      8083**DCL      8354<<ASSIGN   8356<>CALL
FPT_OPEN.V.EXIST# IN PROCEDURE OPEN_THE_PORT_EXTERNAL
      8087**DCL      8343<<ASSIGN   8347<<ASSIGN
FPT_OPEN.V.FSN# IN PROCEDURE OPEN_THE_PORT_EXTERNAL
      8114**DCL      8114--REDEF    8114--REDEF
FPT_OPEN.V.FUN# IN PROCEDURE OPEN_THE_PORT_EXTERNAL
      8093**DCL      8342<<ASSIGN   8346<<ASSIGN   8359>>IF       8360<<ASSIGN
FPT_OPEN.V.INITZ.SCRUB# IN PROCEDURE OPEN_THE_PORT_EXTERNAL
      8084**DCL      8300<<ASSIGN
FPT_OPEN.V.ORG# IN PROCEDURE OPEN_THE_PORT_EXTERNAL
      8094**DCL      8320<<ASSIGN
FPT_OPEN.V.RES# IN PROCEDURE OPEN_THE_PORT_EXTERNAL
      8098**DCL      8304<<ASSIGN
FPT_OPEN.V.TYPE# IN PROCEDURE OPEN_THE_PORT_EXTERNAL
PL6.E3A0      #001=VDA$FOPEN File=VDA$FILE.:VDA5TSI                              FRI 07/04/97 11:03 Page:159
      8095**DCL      8321<<ASSIGN
FPT_OPEN.V_ IN PROCEDURE OPEN_THE_PORT_EXTERNAL
      8074**DCL      8287<<ASSIGN
FPT_OPEN.WSN_ IN PROCEDURE OPEN_THE_PORT_EXTERNAL
      8080**DCL      8080--REDEF
FPT_PFIL IN PROCEDURE OPEN_THE_PORT_EXTERNAL
      7998**DCL      8388<>CALL
FPT_PFIL.V IN PROCEDURE OPEN_THE_PORT_EXTERNAL
      7998**DCL      7998--DCLINIT
FPT_PFIL.V.DCB# IN PROCEDURE OPEN_THE_PORT_EXTERNAL
      7998**DCL      8387<<ASSIGN
GIVEN$KEY.BYTES IN PROCEDURE FIND_PORT
      5795**DCL      5993>>IF       6021>>IF
GIVEN$KEY.LENGTH# IN PROCEDURE FIND_PORT
      5793**DCL      5795--IMP-SIZ  5993>>IF       6021>>IF
GIVEN_KEY$ IN PROCEDURE FIND_PORT
      5772**DCL      5785--IMP-PTR  5975<<ASSIGN   5993>>IF       5993>>IF       6021>>IF       6021>>IF
I IN PROCEDURE FILE_LEVEL_LOCATION
      5515**DCL      5663<<ASSIGN   5664>>DOWHILE  5667<<ASSIGN   5667>>ASSIGN
INSERT$NODE.BLINK$ IN PROCEDURE OPEN_THE_PORT_INTERNAL
      7601**DCL      7731>>ASSIGN
INSERT_NODE$ IN PROCEDURE OPEN_THE_PORT_INTERNAL
      7432**DCL      7429--PROC     7575--IMP-PTR  7728>>IF       7731>>ASSIGN   7736>>ASSIGN
KEY IN PROCEDURE BUILD_PORT
      6119**DCL      6109--PROC     6451>>ASSIGN
KEY.REP# IN PROCEDURE BUILD_PORT
      6123**DCL      6451>>IF
KEY.V$ IN PROCEDURE BUILD_PORT
      6123**DCL      6408>>ASSIGN   6451>>CALL     6451>>CALL
KEY IN PROCEDURE FIND_PORT
      5764**DCL      5754--PROC     6035<>CALL
KEY.REP# IN PROCEDURE FIND_PORT
      5768**DCL      5973>>IF       5974<>CALL
KEY.V$ IN PROCEDURE FIND_PORT
      5768**DCL      5816--IMP-PTR  5975>>ASSIGN   5977>>IF       6029>>IF
LEVEL
PL6.E3A0      #001=VDA$FOPEN File=VDA$FILE.:VDA5TSI                              FRI 07/04/97 11:03 Page:160
      4900**DCL      7291<<DOINDEX  7294>>IF       7298>>ASSIGN   7304>>ASSIGN   7773<<DOINDEX  7775>>ASSIGN
      7776>>ASSIGN   7777>>ASSIGN   7778>>IF       7779>>ASSIGN   7780>>IF       7781>>IF       7782>>ASSIGN
      7784>>ASSIGN
M$OPEN
      2527**DCL-ENT  8357--CALL
M$PFIL
      2529**DCL-ENT  8388--CALL
M$RETRY
      2584**DCL-ENT  8361--CALL
NEW$PORT.DCB# IN PROCEDURE BUILD_PORT
      6216**DCL      6412<<ASSIGN
NEW$PORT.FILE_KEY IN PROCEDURE BUILD_PORT
      6228**DCL      6451<<ASSIGN
NEW$PORT.FILE_KEY.V$ IN PROCEDURE BUILD_PORT
      6230**DCL      6451<>CALL
NEW$PORT.REFS# IN PROCEDURE BUILD_PORT
      6215**DCL      6410<<ASSIGN
NEW_PORT$ IN PROCEDURE BUILD_PORT
      6127**DCL      6189--IMP-PTR  6407<<ASSIGN   6410>>ASSIGN   6412>>ASSIGN   6451>>ASSIGN   6451>>CALL
OALLOC_DCB_FAILED IN PROCEDURE OPEN_THE_PORT_EXTERNAL
      8457**LABEL    8295--CALLALT
OALLOC_FAILED IN PROCEDURE BUILD_PORT
      6451**LABEL    6405--CALLALT
OALLOC_FAILED IN PROCEDURE OPEN_THE_PORT_EXTERNAL
      8457**LABEL    8351--CALLALT
OALLOC_FAILED IN PROCEDURE OPEN_THE_PORT_INTERNAL
      7783**LABEL    7716--CALLALT
OALLOC_FAILED IN PROCEDURE SET_ERROR_SERIOUS
      8505**LABEL    8490--CALLALT
OCOPY_FAILED IN PROCEDURE FILE_LEVEL_LOCATION
      5676**LABEL    5627--CALLALT  5657--CALLALT  5677--CALLALT
OCOPY_FAILED IN PROCEDURE OPEN_THE_PORT_INTERNAL
      7783**LABEL    7720--CALLALT  7753--CALLALT  7759--CALLALT  7769--CALLALT
OFREE_DCB_FAILED IN PROCEDURE OPEN_THE_PORT_INTERNAL
      7783**LABEL    7705--CALLALT
OPEN_EXIST IN PROCEDURE OPEN_THE_PORT_EXTERNAL
PL6.E3A0      #001=VDA$FOPEN File=VDA$FILE.:VDA5TSI                              FRI 07/04/97 11:03 Page:161
      7971**DCL      8347>>ASSIGN
OPEN_FAILED IN PROCEDURE OPEN_THE_PORT_EXTERNAL
      8437**LABEL    8359--GOTO
OPEN_FUNCTION IN PROCEDURE OPEN_THE_PORT_EXTERNAL
      7969**DCL      8346>>ASSIGN
OPEN_ORG IN PROCEDURE OPEN_THE_PORT_EXTERNAL
      7980**DCL      8320>>ASSIGN
OPEN_THE_PORT_EXTERNAL IN PROCEDURE FILE_LEVEL_OPEN
      7850**PROC     7278--CALL
OPEN_THE_PORT_EXTERNAL_FAILED IN PROCEDURE FILE_LEVEL_OPEN
      7345**LABEL    7278--CALLALT
OPEN_THE_PORT_INTERNAL IN PROCEDURE FILE_LEVEL_OPEN
      7429**PROC     7273--CALL
OPEN_THE_PORT_INTERNAL_FAILED IN PROCEDURE FILE_LEVEL_OPEN
      7345**LABEL    7273--CALLALT
OPTIONS
      4686**DCL       153--PROC     5418<>CALL     5426--IF
OPTIONS.EXIST#
      4691**DCL      7186>>IF       7194>>IF       7269>>IF       7269>>IF       7746>>ASSIGN   8315>>IF
      8346>>ASSIGN   8347>>ASSIGN   8366>>ASSIGN   8385>>IF
OPTIONS.PROTECT#
      4690**DCL      7186>>IF       7298>>ASSIGN   7312>>IF       7324>>IF       8341>>IF
OPTIONS.STRUCTURE$
      4690**DCL      6582--IMP-PTR  7190>>ASSIGN   7288>>ASSIGN   7291>>DOINDEX  7767>>ASSIGN   7772>>ASSIGN
      7773>>DOINDEX  8283>>ASSIGN   8380>>ASSIGN
ORG_CONFLICT_FAILURE IN PROCEDURE OPEN_THE_PORT_EXTERNAL
      8457**LABEL    8419--GOTO
ORG_KEYTYPE_CONFLICT_FAILURE IN PROCEDURE OPEN_THE_PORT_EXTERNAL
      8462**LABEL    8428--GOTO
PFIL_FAILED IN PROCEDURE OPEN_THE_PORT_EXTERNAL
      8447**LABEL    8388--CALLALT
PFN_INDEX IN PROCEDURE FILE_LEVEL_OPEN
      6568**DCL      7220<<CALLBLT  7222>>ASSIGN
PORT.CURRENT.KEY
      4978**DCL      8391<<ASSIGN
PORT.DCB#
PL6.E3A0      #001=VDA$FOPEN File=VDA$FILE.:VDA5TSI                              FRI 07/04/97 11:03 Page:162
      4940**DCL      7312>>IF       7317>>IF       7318--IF       7703>>IF       7705<>CALL     8294>>IF
      8295<>CALL     8354>>ASSIGN   8368--ASSIGN   8387>>ASSIGN   8499>>ASSIGN
PORT.EXIST#
      4939**DCL      5606>>IF       7192>>IF       7746<<ASSIGN   8366<<ASSIGN
PORT.FILE_KEY
      4952**DCL      5625>>ASSIGN   5653<<ASSIGN   5655<<ASSIGN   5664>>DOWHILE  5669>>IF       5671<>CALL
      5675>>ASSIGN   7182>>IF       7718>>ASSIGN
PORT.FILE_KEY.REP#
      4954**DCL      5626>>IF       5652>>IF       5676>>IF
PORT.FILE_KEY.V$
      4954**DCL      5627>>CALL     5652>>CALL     5652>>CALL     5657<>CALL     5677>>CALL     7201>>ASSIGN
      7720>>CALL     8289>>ASSIGN
PORT.FIT$
      4940**DCL      7769<>CALL     8351<>CALL     8353>>ASSIGN   8402>>ASSIGN
PORT.INTRINSIC_PROTECT
      4939**DCL      7298>>ASSIGN   7312>>IF       7749<<ASSIGN   8373<<ASSIGN
PORT.LAST_OP#
      4941**DCL      7745<<ASSIGN   8365<<ASSIGN
PORT.LEVEL.DATA$
      5000**DCL      7759<>CALL
PORT.LEVEL.INTERNAL$
      5000**DCL      7747<<ASSIGN
PORT.LEVEL.KEY_TYPE#
      4984**DCL      7776<<ASSIGN   7780>>IF       7782<<ASSIGN   7784<<ASSIGN   8422<<ASSIGN   8424<<ASSIGN
      8426>>IF       8504>>ASSIGN
PORT.LEVEL.ORG#
      4984**DCL      7294>>IF       7775<<ASSIGN   7778>>IF       7779<<ASSIGN   8414<<ASSIGN   8416<<ASSIGN
      8424>>ASSIGN   8426>>IF       8502>>ASSIGN
PORT.LEVEL.SPEC
      4996**DCL      7751<<ASSIGN
PORT.LEVEL.SPEC.REP#
      4998**DCL      7752>>IF
PORT.LEVEL.SPEC.V$
      4998**DCL      7753<>CALL
PORT.LEVEL.SPEC_TYPE#
      4984**DCL      7777<<ASSIGN   8430<<ASSIGN
PL6.E3A0      #001=VDA$FOPEN File=VDA$FILE.:VDA5TSI                              FRI 07/04/97 11:03 Page:163
PORT.REFS#
      4939**DCL      5637>>IF
PORT.STRUCTURE$
      4941**DCL      7767<<ASSIGN   8380<<ASSIGN
PORT$FIT.CODE2$ IN PROCEDURE OPEN_THE_PORT_EXTERNAL
      8273**DCL      8403<<ASSIGN   8405<>CALL     8407<<ASSIGN
PORT$FIT.CODE3$ IN PROCEDURE OPEN_THE_PORT_EXTERNAL
      8273**DCL      8404<<ASSIGN   8409<>CALL     8411<<ASSIGN
PORT$FIT.FIT IN PROCEDURE OPEN_THE_PORT_EXTERNAL
      8273**DCL      8317--ASSIGN   8353--ASSIGN   8403--ASSIGN   8404--ASSIGN
PORT$KEY.DCB# IN PROCEDURE FILE_LEVEL_OPEN
      6891**DCL      7212>>IF
PORT$KEY.PSN IN PROCEDURE FILE_LEVEL_OPEN
      6891**DCL      7212>>IF
PORT$KEY.UNIQUE.ACCT IN PROCEDURE FILE_LEVEL_OPEN
      6889**DCL      7212>>IF
PORT$KEY.UNIQUE.FNAME IN PROCEDURE FILE_LEVEL_OPEN
      6889**DCL      7202--ASSIGN
PORT$KEY.ASN# IN PROCEDURE OPEN_THE_PORT_EXTERNAL
      8178**DCL      8303>>ASSIGN
PORT$KEY.DCB# IN PROCEDURE OPEN_THE_PORT_EXTERNAL
      8179**DCL      8291>>IF
PORT$KEY.PASS IN PROCEDURE OPEN_THE_PORT_EXTERNAL
      8179**DCL      8309--ASSIGN
PORT$KEY.PSN IN PROCEDURE OPEN_THE_PORT_EXTERNAL
      8179**DCL      8307>>ASSIGN
PORT$KEY.RES IN PROCEDURE OPEN_THE_PORT_EXTERNAL
      8178**DCL      8304>>ASSIGN
PORT$KEY.UNIQUE.ACCT IN PROCEDURE OPEN_THE_PORT_EXTERNAL
      8177**DCL      8302--ASSIGN
PORT$KEY.UNIQUE.FNAME IN PROCEDURE OPEN_THE_PORT_EXTERNAL
      8177**DCL      8301--ASSIGN
PORT$KEY_NAME.BYTES IN PROCEDURE FILE_LEVEL_OPEN
      6913**DCL      7210>>ASSIGN   7212>>IF       7220>>CALLBLT  7222>>ASSIGN   7241>>IF       7243>>IF
PORT$KEY_NAME.LENGTH# IN PROCEDURE FILE_LEVEL_OPEN
      6911**DCL      6913--IMP-SIZ  7210>>ASSIGN   7212>>IF       7212>>IF       7220>>CALLBLT  7222>>ASSIGN
PL6.E3A0      #001=VDA$FOPEN File=VDA$FILE.:VDA5TSI                              FRI 07/04/97 11:03 Page:164
      7241>>IF       7243>>IF
PORT_FIT$ IN PROCEDURE OPEN_THE_PORT_EXTERNAL
      8008**DCL      8247--IMP-PTR  8402<<ASSIGN   8403>>ASSIGN   8403>>ASSIGN   8404>>ASSIGN   8404>>ASSIGN
      8405>>CALL     8407>>ASSIGN   8409>>CALL     8411>>ASSIGN
PORT_KEY$ IN PROCEDURE FILE_LEVEL_OPEN
      6562**DCL      6861--IMP-PTR  7201<<ASSIGN   7202>>ASSIGN   7212>>IF       7212>>IF       7212>>IF
PORT_KEY$ IN PROCEDURE OPEN_THE_PORT_EXTERNAL
      8005**DCL      8149--IMP-PTR  8289<<ASSIGN   8291>>IF       8301>>ASSIGN   8302>>ASSIGN   8303>>ASSIGN
      8304>>ASSIGN   8307>>ASSIGN   8309>>ASSIGN   8356<>CALL
PORT_KEY_NAME$ IN PROCEDURE FILE_LEVEL_OPEN
      6563**DCL      6903--IMP-PTR  7202<<ASSIGN   7210>>ASSIGN   7210>>ASSIGN   7212>>IF       7212>>IF
      7212>>IF       7220>>CALLBLT  7220>>CALLBLT  7222>>ASSIGN   7222>>ASSIGN   7241>>IF       7241>>IF
      7243>>IF       7243>>IF
PROTECT_CONFLICTS_W_NEW_FAILURE IN PROCEDURE FILE_LEVEL_OPEN
      7352**LABEL    7188--GOTO
PROTECT_FLAGS_FOR_BOOL IN PROCEDURE FILE_LEVEL_OPEN
      6551**DCL      7298>>ASSIGN
PROTECT_FLAGS_FOR_OPTION IN PROCEDURE FILE_LEVEL_OPEN
      6553**DCL      7298>>ASSIGN
RELATIVE
      4677**DCL       153--PROC     5418<>CALL     5420>>IF       5421<>CALL     5571>>IF       5586>>IF
      5622>>IF       5663>>ASSIGN
REQ$DCB.ACCT# IN PROCEDURE BUILD_PORT
      6296**DCL      6415>>ASSIGN
REQ$DCB.ACTPOS IN PROCEDURE BUILD_PORT
      6312**DCL      6312--REDEF
REQ$DCB.ARS# IN PROCEDURE BUILD_PORT
      6286**DCL      6286--REDEF
REQ$DCB.ASN# IN PROCEDURE BUILD_PORT
      6301**DCL      6432>>ASSIGN
REQ$DCB.ATTR IN PROCEDURE BUILD_PORT
      6305**DCL      6306--REDEF
REQ$DCB.BORROW IN PROCEDURE BUILD_PORT
      6320**DCL      6320--REDEF    6320--REDEF    6320--REDEF
REQ$DCB.DCBNAME.L IN PROCEDURE BUILD_PORT
      6334**DCL      6334--IMP-SIZ
PL6.E3A0      #001=VDA$FOPEN File=VDA$FILE.:VDA5TSI                              FRI 07/04/97 11:03 Page:165
REQ$DCB.EOMCHAR# IN PROCEDURE BUILD_PORT
      6290**DCL      6290--REDEF
REQ$DCB.FLDID IN PROCEDURE BUILD_PORT
      6315**DCL      6315--REDEF
REQ$DCB.FORM$ IN PROCEDURE BUILD_PORT
      6309**DCL      6309--REDEF
REQ$DCB.FSECT IN PROCEDURE BUILD_PORT
      6325**DCL      6325--REDEF
REQ$DCB.FSN# IN PROCEDURE BUILD_PORT
      6302**DCL      6302--REDEF    6302--REDEF    6303--REDEF
REQ$DCB.HEADER$ IN PROCEDURE BUILD_PORT
      6308**DCL      6308--REDEF
REQ$DCB.IXTNSIZE# IN PROCEDURE BUILD_PORT
      6306**DCL      6306--REDEF
REQ$DCB.LASTSTA$ IN PROCEDURE BUILD_PORT
      6295**DCL      6295--REDEF
REQ$DCB.LVL IN PROCEDURE BUILD_PORT
      6321**DCL      6321--REDEF
REQ$DCB.NAME#.C IN PROCEDURE BUILD_PORT
      6296**DCL      6296--REDEF    6418>>IF       6427>>ASSIGN
REQ$DCB.NAME#.L IN PROCEDURE BUILD_PORT
      6296**DCL      6418>>IF       6426>>ASSIGN   6427>>ASSIGN
REQ$DCB.NOEOF IN PROCEDURE BUILD_PORT
      6318**DCL      6318--REDEF
REQ$DCB.NRECS# IN PROCEDURE BUILD_PORT
      6307**DCL      6307--REDEF
REQ$DCB.NRECX IN PROCEDURE BUILD_PORT
      6326**DCL      6326--REDEF
REQ$DCB.OHDR IN PROCEDURE BUILD_PORT
      6318**DCL      6318--REDEF
REQ$DCB.ORG# IN PROCEDURE BUILD_PORT
      6301**DCL      6301--REDEF
REQ$DCB.PASS# IN PROCEDURE BUILD_PORT
      6296**DCL      6434>>ASSIGN
REQ$DCB.PRECNO IN PROCEDURE BUILD_PORT
      6324**DCL      6324--REDEF
PL6.E3A0      #001=VDA$FOPEN File=VDA$FILE.:VDA5TSI                              FRI 07/04/97 11:03 Page:166
REQ$DCB.PSN# IN PROCEDURE BUILD_PORT
      6296**DCL      6416>>ASSIGN   6423>>IF
REQ$DCB.RCSZ IN PROCEDURE BUILD_PORT
      6330**DCL      6330--REDEF
REQ$DCB.RES# IN PROCEDURE BUILD_PORT
      6297**DCL      6297--REDEF    6433>>ASSIGN
REQ$DCB.SETX IN PROCEDURE BUILD_PORT
      6309**DCL      6309--REDEF
REQ$DCB.TAB$ IN PROCEDURE BUILD_PORT
      6309**DCL      6309--REDEF
REQ$DCB.TDA IN PROCEDURE BUILD_PORT
      6323**DCL      6324--REDEF
REQ$DCB.WSN# IN PROCEDURE BUILD_PORT
      6297**DCL      6297--REDEF
REQ_DCB$ IN PROCEDURE BUILD_PORT
      6128**DCL      6280--IMP-PTR  6413<<ASSIGN   6415>>ASSIGN   6416>>ASSIGN   6418>>IF       6418>>IF
      6423>>IF       6426>>ASSIGN   6427>>ASSIGN   6427>>ASSIGN   6432>>ASSIGN   6433>>ASSIGN   6434>>ASSIGN
SEARCH_PORTS IN PROCEDURE FIND_PORT
      5981**LABEL    5994--EXIT
SET_ERROR_SERIOUS
      8477**PROC     7352--CALL     7357--CALL     8437--CALL     8442--CALL     8447--CALL     8452--CALL
      8457--CALL     8462--CALL
SET_ERROR_WARN IN PROCEDURE SET_ERROR_SERIOUS
      8486**ENTRY    7316--CALL     7334--CALL
STREAM
      4565**DCL       153--PROC     5418<>CALL     5432<>CALL     5607<>CALL     6002<>CALL     6023<>CALL
      6401<>CALL     7346<>CALL     8506<>CALL
STREAM.FILE_KEY
      4602**DCL      5586>>IF       5619<<ASSIGN   5625<<ASSIGN   5675<<ASSIGN
STREAM.FILE_KEY.REP#
      4604**DCL      5595>>IF       5618>>IF
STREAM.FILE_KEY.V$
      4604**DCL      5595>>ASSIGN   5595--ASSIGN   5618>>CALL     5618>>CALL     5627<>CALL     5677<>CALL
STREAM.LAST_OP#
      4591**DCL      7343<<ASSIGN
STREAM.PORT$
PL6.E3A0      #001=VDA$FOPEN File=VDA$FILE.:VDA5TSI                              FRI 07/04/97 11:03 Page:167
      4591**DCL      4913--IMP-PTR  5605>>IF       5606>>IF       5625>>ASSIGN   5626>>IF       5627>>CALL
      5636>>IF       5637>>IF       5652>>IF       5652>>CALL     5652>>CALL     5653>>ASSIGN   5655>>ASSIGN
      5657>>CALL     5664>>DOWHILE  5669>>IF       5671>>CALL     5675>>ASSIGN   5676>>IF       5677>>CALL
      5982>>IF       6001>>IF       6005<<ASSIGN   6008>>IF       6018>>IF       6018>>ASSIGN   6018>>ASSIGN
      6029>>IF       6400>>IF       6405<>CALL     6407>>ASSIGN   7182>>IF       7182>>IF       7192>>IF
      7201>>ASSIGN   7294>>IF       7298>>ASSIGN   7312>>IF       7312>>IF       7317>>IF       7318>>IF
      7703>>IF       7705>>CALL     7718>>ASSIGN   7720>>CALL     7745>>ASSIGN   7746>>ASSIGN   7747>>ASSIGN
      7749>>ASSIGN   7751>>ASSIGN   7752>>IF       7753>>CALL     7759>>CALL     7767>>ASSIGN   7769>>CALL
      7775>>ASSIGN   7776>>ASSIGN   7777>>ASSIGN   7778>>IF       7779>>ASSIGN   7780>>IF       7782>>ASSIGN
      7784>>ASSIGN   8289>>ASSIGN   8294>>IF       8295>>CALL     8351>>CALL     8353>>ASSIGN   8354>>ASSIGN
      8365>>ASSIGN   8366>>ASSIGN   8368>>ASSIGN   8373>>ASSIGN   8380>>ASSIGN   8387>>ASSIGN   8391>>ASSIGN
      8402>>ASSIGN   8414>>ASSIGN   8416>>ASSIGN   8422>>ASSIGN   8424>>ASSIGN   8424>>ASSIGN   8426>>IF
      8426>>IF       8430>>ASSIGN   8499>>ASSIGN   8502>>ASSIGN   8504>>ASSIGN
STREAM.PROTECT
      4591**DCL      7298<<ASSIGN   7304<<ASSIGN
STRUCTURE.COUNT# IN PROCEDURE FILE_LEVEL_OPEN
      6665**DCL      7291>>DOINDEX  7773>>DOINDEX
STRUCTURE.DESC.SPEC.V$ IN PROCEDURE FILE_LEVEL_OPEN
      6661**DCL      7190>>ASSIGN
STRUCTURE.HEAD$ IN PROCEDURE FILE_LEVEL_OPEN
      6665**DCL      7288>>ASSIGN   7772>>ASSIGN   8283>>ASSIGN
STRUCTURE$LEVEL.KEY_TYPE# IN PROCEDURE FILE_LEVEL_OPEN
      6841**DCL      7776>>ASSIGN   8422>>ASSIGN   8423>>IF
STRUCTURE$LEVEL.ORG# IN PROCEDURE FILE_LEVEL_OPEN
      6841**DCL      7294>>IF       7775>>ASSIGN   8320>>ASSIGN   8414>>ASSIGN   8415>>IF       8418>>IF
STRUCTURE$LEVEL.PROTECT IN PROCEDURE FILE_LEVEL_OPEN
      6842**DCL      7298>>ASSIGN   7306>>IF
STRUCTURE$LEVEL.SPEC_TYPE# IN PROCEDURE FILE_LEVEL_OPEN
      6841**DCL      7777>>ASSIGN   8430>>ASSIGN
STRUCTURE$LEVEL_NODE.DESC.SPEC.V$ IN PROCEDURE FILE_LEVEL_OPEN
      6792**DCL      7292>>ASSIGN   7774>>ASSIGN   8284>>ASSIGN
STRUCTURE$LEVEL_NODE.FLINK$ IN PROCEDURE FILE_LEVEL_OPEN
      6739**DCL      7309>>ASSIGN   7786>>ASSIGN
STRUCTURE$SPEC.FIT$ IN PROCEDURE FILE_LEVEL_OPEN
      6701**DCL      7768>>IF       7769>>CALL     8316>>IF       8317>>ASSIGN
STRUCTURE_LEVEL$ IN PROCEDURE FILE_LEVEL_OPEN
PL6.E3A0      #001=VDA$FOPEN File=VDA$FILE.:VDA5TSI                              FRI 07/04/97 11:03 Page:168
      6561**DCL      6814--IMP-PTR  7292<<ASSIGN   7294>>IF       7298>>ASSIGN   7306>>IF       7774<<ASSIGN
      7775>>ASSIGN   7776>>ASSIGN   7777>>ASSIGN   8284<<ASSIGN   8320>>ASSIGN   8414>>ASSIGN   8415>>IF
      8418>>IF       8422>>ASSIGN   8423>>IF       8430>>ASSIGN
STRUCTURE_LEVEL_NODE$ IN PROCEDURE FILE_LEVEL_OPEN
      6560**DCL      6713--IMP-PTR  7288<<ASSIGN   7292>>ASSIGN   7309<<ASSIGN   7309>>ASSIGN   7772<<ASSIGN
      7774>>ASSIGN   7786<<ASSIGN   7786>>ASSIGN   8283<<ASSIGN   8284>>ASSIGN
STRUCTURE_SPEC$ IN PROCEDURE FILE_LEVEL_OPEN
      6559**DCL      6675--IMP-PTR  7190<<ASSIGN   7768>>IF       7769>>CALL     8316>>IF       8317>>ASSIGN
T$ IN PROCEDURE SET_ERROR_SERIOUS
      8480**DCL      8490<>CALL     8492>>ASSIGN
VD$BUFFER
      5231**DCL      7759<>CALL
VD$BUFFER.LENGTH#
      5257**DCL      5259--IMP-SIZ  7759>>CALL
VD$ERR
      5308**DCL      8500--ASSIGN
VD$ERR.DCB#
      5350**DCL      8499<<ASSIGN
VD$ERR.ERR
      5345**DCL      8497<<ASSIGN
VD$ERR.ERR.CODE#
      5347**DCL      7319<<ASSIGN   8494<<ASSIGN   8496<<ASSIGN
VD$ERR.FLAGLEV#
      5350**DCL      8498<<ASSIGN
VD$FILE_KEY
      5173**DCL      5627<>CALL     5657<>CALL     5677<>CALL
VD$FILE_KEY IN PROCEDURE FILE_LEVEL_OPEN
      7089**DCL      7720<>CALL
VD$FILE_KEY.UNIQUE.FNAME IN PROCEDURE FILE_LEVEL_OPEN
      7117**DCL      7239--ASSIGN
VD$FILE_NODE.BLINK$
      5037**DCL      7740<<ASSIGN
VD$FILE_NODE.FLINK$
      5037**DCL      7735<<ASSIGN   8283>>ASSIGN
VD$FIT IN PROCEDURE OPEN_THE_PORT_INTERNAL
      7668**DCL      7769<>CALL
PL6.E3A0      #001=VDA$FOPEN File=VDA$FILE.:VDA5TSI                              FRI 07/04/97 11:03 Page:169
VD$NUMBER.OBJECT.CLASS#
      5393**DCL      8501<<ASSIGN   8503<<ASSIGN
VD$NUMBER.V#
      5395**DCL      8502<<ASSIGN   8504<<ASSIGN
VD$TEXTC_REMOTE
      5121**DCL      5618<>CALL     5652<>CALL     7753<>CALL
VD$TEXTC_REMOTE.LENGTH#
      5150**DCL      5152--IMP-SIZ  5582--ASSIGN   5595--ASSIGN   5618>>CALL     5652>>CALL     5990--ASSIGN
      6018--ASSIGN   7753>>CALL
VD$TEXTC_REMOTE IN PROCEDURE BUILD_PORT
      6361**DCL      6451<>CALL
VD$TEXTC_REMOTE.LENGTH# IN PROCEDURE BUILD_PORT
      6390**DCL      6392--IMP-SIZ  6451>>CALL
VDA$FCLOSE
      4709**DCL-ENT  5607--CALL     8506--CALL
VDA$FDETACH
      4710**DCL-ENT  6002--CALL     6023--CALL     6401--CALL
VDG$EBREAK_ACKNOWLEDGE
      4718**DCL-ENT  5414--CALL
VDG$EREPORT_ERROR
      4716**DCL-ENT  7320--CALL     7335--CALL
VDG$ESCREECH
      4717**DCL-ENT  5421--CALL     5974--CALL     7184--CALL
VDG$MACC_FOPEN
      4719**DCL-ENT  5418--CALL
VDG$MACC_FOPEN_OPEN
      4720**DCL-ENT  8356--CALL
VDG$MACC_RETURN
      4721**DCL-ENT  5432--CALL     7346--CALL
VDG$OALLOC
      4712**DCL-ENT  6405--CALL     7716--CALL     8351--CALL     8490--CALL
VDG$OALLOC_DCB
      4714**DCL-ENT  8295--CALL
VDG$OCOPY
      4711**DCL-ENT  5627--CALL     5657--CALL     5677--CALL     6451--CALL     7720--CALL     7753--CALL
      7759--CALL     7769--CALL
PL6.E3A0      #001=VDA$FOPEN File=VDA$FILE.:VDA5TSI                              FRI 07/04/97 11:03 Page:170
VDG$OFREE
      4713**DCL-ENT  5618--CALL     5652--CALL
VDG$OFREE_DCB
      4715**DCL-ENT  7705--CALL
VD_$$MON_ACC.V#
      4877**DCL      5417>>IF       5431>>IF       7345>>IF       8355>>IF
VD_$FILETYPE.BYTES
      4830**DCL      8321>>ASSIGN
VD_$FILETYPE.LENGTH#
      4828**DCL      4830--IMP-SIZ  8321>>ASSIGN
VD_6E.INTERRUPT.STATE#
      4758**DCL      5413>>IF
VD_6E.PORT_HEAD$
      4759**DCL      5979>>ASSIGN
VD_6E.STATS#
      4759**DCL      6040<<ASSIGN   6040>>ASSIGN   7700<<ASSIGN   7700>>ASSIGN   8279<<ASSIGN   8279>>ASSIGN
VD_6E.WS.INTERNAL_DIR$
      4742**DCL      7225>>ASSIGN
VD_ACCESSOR_PRIV
      4762**DCL      7748>>IF
VD_ACCESSOR_PRIV.ACCESS
      4774**DCL      7302>>IF       7302>>IF       7312>>IF       7312>>IF
VD_ERR$
      4901**DCL      5308--IMP-PTR  7319>>ASSIGN   8492<<ASSIGN   8494>>ASSIGN   8496>>ASSIGN   8497>>ASSIGN
      8498>>ASSIGN   8499>>ASSIGN   8500>>ASSIGN
VD_KEY_FIRST_CONSEC_REC
      4888**DCL      8391>>ASSIGN
VD_NUMBER$
      4902**DCL      5361--IMP-PTR  8500<<ASSIGN   8501>>ASSIGN   8502>>ASSIGN   8503>>ASSIGN   8504>>ASSIGN
VLP_SN IN PROCEDURE OPEN_THE_PORT_EXTERNAL
      8129**DCL      8305<<ASSIGN   8308--ASSIGN
VLP_SN.NUM# IN PROCEDURE OPEN_THE_PORT_EXTERNAL
      8129**DCL      8306<<ASSIGN
VLP_SN.SN# IN PROCEDURE OPEN_THE_PORT_EXTERNAL
      8129**DCL      8307<<ASSIGN
WHERE_TO_INSERT_NEW_FILE$ IN PROCEDURE FILE_LEVEL_OPEN
PL6.E3A0      #001=VDA$FOPEN File=VDA$FILE.:VDA5TSI                              FRI 07/04/97 11:03 Page:171
      6569**DCL      7209<<ASSIGN   7245<<ASSIGN   7273<>CALL
XSF$LOCCODT
      4722**DCL-ENT  8405--CALL     8409--CALL

