PL6.E3A0      #003=VDA$LDELETE File=VDA$LOWER.:VDA5TSI                           FRI 07/04/97 11:06 Page:135
     1065        1        /*T***********************************************************/
     1066        2        /*T*                                                         */
     1067        3        /*T* Copyright (c) Bull HN Information Systems Inc., 1997    */
     1068        4        /*T*                                                         */
     1069        5        /*T***********************************************************/
     1070        6
     1071        7        /*D* NAME: VDA$LDELETE
     1072        8            PARAMETERS:
     1073        9                STREAM - VD$STREAM to use.  This stream must be open to
     1074       10                    an internal or external file.
     1075       11                RANGE - Optional VD$RANGE specifying the range of nodes to delete.
     1076       12                    This is an inclusive range:  RANGE.START specifies the first
     1077       13                    node to delete and RANGE.ENDD specifies the last node to
     1078       14                    delete.
     1079       15                    RANGE must be one of the following:
     1080       16                    Omitted - We'll delete the lowest node (usually record-level)
     1081       17                        that the stream is currently positioned to.
     1082       18                    BOF, EOF, or specific nodes, specified as follows:
     1083       19                    If .START or .ENDD = %CLEAR, or have only one key which
     1084       20                        equals VD_KEY_NUMERIC_BOF or VD_KEY_STRING_BOF --
     1085       21                        this specifies BOF.
     1086       22                    If .START.EOF or .ENDD.EOF is set, this specifies EOF;
     1087       23                    Else .START.KEY or .ENDD.KEY (%(LVL_LOWER-1)) thru (n) must
     1088       24                        be given:  these are keys for levels %LVL_LOWER thru (n+1)
     1089       25                        of the file.
     1090       26
     1091       27                    Basic rule for RANGE:  we only allow deletion within one
     1092       28                    parent node, of one or more of that parent's kids -- you
     1093       29                    can't delete from some kid of node "A" thru some kid of
     1094       30                    node "B".
     1095       31                    Therefore:
     1096       32                        If RANGE.START = %CLEAR or has only VD_KEY_x_BOF, then
     1097       33                            .ENDD must be either %CLEAR, .ENDD.EOF, or exactly
     1098       34                            one .ENDD.KEY given.
     1099       35                        If RANGE.ENDD.EOF is set, then .START must be either
     1100       36                            %CLEAR, .START.EOF, or exactly one .START.KEY given.
     1101       37                        Of course, if .START.EOF is set then the only valid
PL6.E3A0      #003=VDA$LDELETE File=VDA$LOWER.:VDA5TSI                           FRI 07/04/97 11:06 Page:136
     1102       38                            .ENDD is .ENDD.EOF; if .ENDD = %CLEAR, then the
     1103       39                            only valid .START is %CLEAR or just VD_KEY_x_BOF.
     1104       40                            In either case, nothing will be deleted.
     1105       41                        If neither .START nor .END specify BOF or EOF, then
     1106       42                            the number of keys in .START.KEY and .ENDD.KEY
     1107       43                            must be equal, and all .START.KEYs except the last
     1108       44                            must equal their counterpart in .ENDD.KEY.
     1109       45                            If the file has more than two levels, deletion will
     1110       46                            be at the lowest level given; for example, if the
     1111       47                            file has 5 levels but keys are only given for levels
     1112       48                            1 and 2, we will delete nodes at levels 2 thru 5:
     1113       49                            the specified node(s) at level 2, and all children
     1114       50                            of deleted level 2 nodes.
     1115       51            INPUT:
     1116       52                VD_ACCESSOR_PRIV - If we're deleting from an internal file and
     1117       53                    we're not doing the deletion on behalf of the user, but
     1118       54                    rather are just updating an internally-maintained
     1119       55                    file (e.g., Scratch files, etc.), then the
     1120       56                    VD_ACCESSOR_PRIV's %NAC_DELETE bit must be set.
     1121       57            SCRATCH:
     1122       58                VD_STATIC_TEMP
     1123       59            OUTPUT:
     1124       60                The stream and port will end up positioned to the
     1125       61                    node following the last node deleted (which could be
     1126       62                    eof).
     1127       63                The Presenter will be told of the deletions.
     1128       64                $RECORDS_DELETED will be set to the number of nodes deleted at the
     1129       65                    lowest level at which a key was given (highest level of
     1130       66                    deleted nodes).
     1131       67        *N**N*  If the History file is enabled, the node(s) being deleted, if any,
     1132       68        *N**N*      will be appended to the History file.
     1133       69            DESCRIPTION:
     1134       70        *N**N*  If History is enabled:
     1135       71        *N**N*      Walk the nodes of the file tree which are to be deleted,
     1136       72        *N**N*          VDA$PREADing each into the Port registers and
     1137       73        *N**N*          writing it to the end of the History file.
     1138       74        *N**N*  Else:
PL6.E3A0      #003=VDA$LDELETE File=VDA$LOWER.:VDA5TSI                           FRI 07/04/97 11:06 Page:137
     1139       75                    If the port contains a node which has been modified,
     1140       76                        call VDA$PFLUSH.
     1141       77                If this is a predefined file:
     1142       78                    Loop thru the nodes to be deleted (at just the top level of
     1143       79                        the nodes to be deleted), VDA$PREADing each node and
     1144       80                        calling the appropriate node writer.  This will delete
     1145       81                        the node and all its children, and will free the Port
     1146       82                        Spec and/or Data components.
     1147       83                        The node writer may have side-effects (closing windows),
     1148       84                        and may reject the deletion.
     1149       85                    Leave the Port positioned to the node following the last node
     1150       86                        deleted.
     1151       87                Else (that is, if this isn't a predefined file):
     1152       88                    Call VDA$PDELETE to delete the nodes from the file.
     1153       89                        Leave the Port positioned to the node following the
     1154       90                        last node deleted.
     1155       91        */
     1156       92
     1157       93        VDA$LDELETE: PROC (STREAM, RANGE) ALTRET;
     1158       94
     1159       95
     1160       96        %INCLUDE VD_MACROS_M;
     1161     2311        %INCLUDE VD_PERR_C;
     1162     2459
     1163     2460
     1164     2461        %VD$STREAM (NAME=STREAM, STCLASS=PARAM);
     1165     2567        %VD$RANGE (NAME=RANGE, STCLASS=PARAM);
     1166     2636
     1167     2637
     1168     2638
     1169     2639    1   DCL VDA$PREAD           ENTRY (6) ALTRET;
     1170     2640    1   DCL VDA$PFLUSH          ENTRY (2) ALTRET;
     1171     2641    1   DCL VDA$PDELETE         ENTRY (4) ALTRET;
     1172     2642    1   DCL VDA$LWRITE          ENTRY (4) ALTRET;
     1173     2643    1   DCL VDP$RDELETE         ENTRY (3) ALTRET;
     1174     2644    1   DCL VDG$COMPARE_PTRS_W_RANGE ENTRY (3) ALTRET;
     1175     2645    1   DCL VDG$OCOPY_LOCATION  ENTRY (2) ALTRET;
PL6.E3A0      #003=VDA$LDELETE File=VDA$LOWER.:VDA5TSI                           FRI 07/04/97 11:06 Page:138
     1176     2646    1   DCL VDG$OCLEAR_LOCATION ENTRY (1) ALTRET;
     1177     2647    1   DCL VDG$OALLOC          ENTRY (3) ALTRET;
     1178     2648    1   DCL VDG$OFREE           ENTRY (1) ALTRET;
     1179     2649    1   DCL VDG$OCOPY           ENTRY (2) ALTRET;
     1180     2650    1   DCL VDG$MACC_LDELETE    ENTRY (2);
     1181     2651    1   DCL VDG$MACC_RETURN     ENTRY (1);
     1182     2652    1   DCL VDG$ESCREECH        ENTRY (3);
     1183     2653    1   DCL VDG$EBREAK_ACKNOWLEDGE ENTRY (1);
     1184     2654
     1185     2655
     1186     2656        %VD_6E (STCLASS=SYMREF);
     1187     2692    1   DCL VD_NODE_WRITERS$$ (0:0) EPTR SYMREF;
     1188     2693        %VD$LOCATION (NAME=VD_LOC_$RECORDS_DELETED, STCLASS=SYMREF);
     1189     2721        %VD$NUMBER (NAME=VD_$$MON_ACC, STCLASS=SYMREF);
     1190     2766    1   DCL 1 VD_ACCESSOR_PRIV ALIGNED SYMREF,
     1191     2767            %VD$NAC (NAME=ACCESS, LEV=2, LAST=YES, ALIGNMENT=UNAL, STCLASS=STATIC);
     1192     2781        %VD$KEY_NUMBER (NAME=VD_KEY_NUMERIC_BOF, STCLASS=SYMREF);
     1193     2796
     1194     2797
     1195     2798    1   DCL ZERO_SPEC (0:1) SBIN CONSTANT INIT(0*0);
     1196     2799        %VD_BUFFER (NAME=ZERO_BUFFER, STCLASS=CONSTANT, IBYTES="''");
     1197     2859
     1198     2860
     1199     2861
     1200     2862    1   DCL STRUCTURE_NODE$ PTR;
     1201     2863        %VD$RANGE (NAME=DEL_RANGE, STCLASS=AUTO);
     1202     2932    1   DCL DEL_LEVEL SBIN;
     1203     2933    1   DCL DEL_LEVEL_COUNT SBIN;
     1204     2934    1   DCL INDX SBIN;
     1205     2935    1   DCL LEVEL SBIN;
     1206     2936    1   DCL DEL_START_KEY$ PTR;
     1207     2937    1   DCL DEL_END_KEY$ PTR;
     1208     2938    1   DCL FLUSH_PORT BIT(1) ALIGNED;
     1209     2939    1   DCL HISTORY_ENABLED BIT(1) ALIGNED;
     1210     2940        %VD$LOCATION_PTRS (NAME=LOCATION_PTRS, STCLASS=AUTO);
     1211     2955    1   DCL NODE_WRITER$$ EPTR;
     1212     2956    1   DCL PREDEF_COUNT SBIN;
PL6.E3A0      #003=VDA$LDELETE File=VDA$LOWER.:VDA5TSI                           FRI 07/04/97 11:06 Page:139
     1213     2957        %VD$RANGE (NAME=PREDEF_RANGE, STCLASS=AUTO);
     1214     3026    1   DCL VD_ERR$ PTR;
     1215     3027    1   DCL SUBST_FIELD$ PTR;
     1216     3028
     1217     3029
     1218     3030        %VD$PORT (NAME=PORT, STCLASS="BASED(STREAM.PORT$)");
     1219     3128        %VD$FILE_NODE (NAME=STRUCTURE$NODE, STCLASS="BASED(STRUCTURE_NODE$)");
     1220     3221        %VD$STREAM (NAME=HISTORY$STREAM, STCLASS="BASED(VD_6E.HISTORY$)");
     1221     3327        %VD$STREAM (NAME=EQUALS$STREAM, STCLASS="BASED(VD_6E.EQUALS$)");
     1222     3433        %VD$TEXTC (NAME=DEL$START_KEY, STCLASS="BASED(DEL_START_KEY$)");
     1223     3456        %VD$TEXTC (NAME=DEL$END_KEY, STCLASS="BASED(DEL_END_KEY$)",
     1224     3457            ALIGNMENT=CALIGNED);
     1225     3480        %VD$ERR (NAME=VD$ERR, STCLASS="BASED(VD_ERR$)");
     1226     3533        %VD$POINTER (NAME=SUBST$POINTER, DIM="(0:2)", STCLASS="BASED(SUBST_FIELD$)");
     1227     3578        %VD$TEXTC_REMOTE;
     1228     3639        %VD$BUFFER;
     1229     3697        %VD$FILE_NODE;
     1230     3790        %VD$PORT;
     1231     3888
     1232     3889
     1233     3890
     1234     3891    2           IF VD_6E.INTERRUPT.STATE# = %INST_BREAK_QUEUED THEN DO;
     1235     3892    2              CALL VDG$EBREAK_ACKNOWLEDGE (%E$BREAK_HIT);
     1236     3893    2              ALTRETURN;
     1237     3894    2              END;
     1238     3895    1           IF VD_$$MON_ACC.V# > 0 THEN
     1239     3896    1              CALL VDG$MACC_LDELETE (STREAM, RANGE);
     1240     3897    1           IF PORT.EXIST# = 0 THEN
     1241     3898    1              CALL VDG$ESCREECH (PORT.EXIST#);
     1242     3899    1           STRUCTURE_NODE$ = PORT.STRUCTURE$;
     1243     3900
     1244     3901    1           IF ADDR(RANGE) = ADDR(NIL) THEN
     1245     3902    2   NO_RANGE_GIVEN: DO;
     1246     3903    2              IF STREAM.CURRENT.EOF THEN
     1247     3904    2                 CALL VDG$ESCREECH;
     1248     3905    2              DEL_RANGE.START = STREAM.CURRENT;
     1249     3906    2              DEL_RANGE.ENDD = STREAM.CURRENT;
PL6.E3A0      #003=VDA$LDELETE File=VDA$LOWER.:VDA5TSI                           FRI 07/04/97 11:06 Page:140
     1250     3907    2              DEL_LEVEL = %(LVL_LOWER-1);
     1251     3908    3              DO WHILE (DEL_LEVEL < STRUCTURE$NODE.COUNT# - 1)
     1252     3909    3                AND (DEL_RANGE.START.KEY (DEL_LEVEL) ~= %CLEAR);
     1253     3910    3                 DEL_LEVEL = DEL_LEVEL + 1;
     1254     3911    3                 END;
     1255     3912    2              END NO_RANGE_GIVEN;
     1256     3913    1           ELSE
     1257     3914    2   CHECK_PASSED_RANGE: DO;
     1258     3915    2              DEL_RANGE = RANGE;
     1259     3916    2              IF DEL_RANGE.START = %CLEAR
     1260     3917    2                OR DEL_RANGE.ENDD = %CLEAR
     1261     3918    2                OR DEL_RANGE.START.EOF
     1262     3919    3                OR DEL_RANGE.ENDD.EOF THEN DO;
     1263     3920    3                 IF DEL_RANGE.START = %CLEAR THEN
     1264     3921    3                    IF NOT (DEL_RANGE.ENDD = %CLEAR
     1265     3922    3                      OR DEL_RANGE.ENDD.EOF
     1266     3923    3                      OR DEL_RANGE.ENDD.KEY (1) = %CLEAR) THEN
     1267     3924    3                       GOTO CANT_DEL_ACROSS_NODES_FAILURE;
     1268     3925    3                 IF DEL_RANGE.ENDD.EOF THEN
     1269     3926    3                    IF NOT (DEL_RANGE.START = %CLEAR
     1270     3927    3                      OR DEL_RANGE.START.EOF
     1271     3928    3                      OR DEL_RANGE.START.KEY (1) = %CLEAR) THEN
     1272     3929    3                       GOTO CANT_DEL_ACROSS_NODES_FAILURE;
     1273     3930    3                 IF DEL_RANGE.START.EOF
     1274     3931    3                   AND NOT DEL_RANGE.ENDD.EOF THEN
     1275     3932    3                    GOTO CANT_DEL_ACROSS_NODES_FAILURE;
     1276     3933    3                 IF DEL_RANGE.ENDD = %CLEAR THEN
     1277     3934    3                    IF NOT (DEL_RANGE.START = %CLEAR
     1278     3935    3                      OR (DEL_RANGE.START.KEY (1) = %CLEAR
     1279     3936    3                      AND (DEL_RANGE.START.KEY (0) = VD_KEY_NUMERIC_BOF
     1280     3937    3   /* OR DEL_RANGE.START.KEY (0) = VD_KEY_STRING_BOF */))) THEN
     1281     3938    3                       GOTO CANT_DEL_ACROSS_NODES_FAILURE;
     1282     3939    3                 DEL_LEVEL = %LVL_LOWER;
     1283     3940    3                 END;
     1284     3941    3              ELSE DO;
     1285     3942                      /*
     1286     3943                      *   Verify that kids of only one parent are being deleted.
PL6.E3A0      #003=VDA$LDELETE File=VDA$LOWER.:VDA5TSI                           FRI 07/04/97 11:06 Page:141
     1287     3944                      */
     1288     3945    3                 DEL_LEVEL = STRUCTURE$NODE.COUNT# - 1;    /* Assumption */
     1289     3946    3   CHECK_ONE_PARENT:
     1290     3947    4                 DO INDX = %LVL_LOWER TO STRUCTURE$NODE.COUNT# - 2;
     1291     3948    5                    IF DEL_RANGE.START.KEY (INDX /* -1 +1 */) = %CLEAR THEN DO;
     1292     3949    5                       DEL_LEVEL = INDX;
     1293     3950    5                       EXIT CHECK_ONE_PARENT;
     1294     3951    5                       END;
     1295     3952                         %GETKEY (KEY=DEL_RANGE.START.KEY, INDX=INDX-1,
     1296     3953                         PTR=DEL_START_KEY$);
     1297     3963                         %GETKEY (KEY=DEL_RANGE.ENDD.KEY, INDX=INDX-1,
     1298     3964                         PTR=DEL_END_KEY$);
     1299     3974    4                    IF DEL_RANGE.ENDD.KEY (INDX - 1) = %CLEAR
     1300     3975    4                      OR DEL$START_KEY.BYTES ~= DEL$END_KEY.BYTES THEN
     1301     3976    4                       GOTO CANT_DEL_ACROSS_NODES_FAILURE;
     1302     3977    4                    END CHECK_ONE_PARENT;
     1303     3978    3                 END;
     1304     3979    2              END CHECK_PASSED_RANGE;
     1305     3980
     1306     3981    1           IF PORT.LEVEL.ORG# (DEL_LEVEL) = %ORG_CONSEC
     1307     3982    1             AND PORT.DCB# ~= 0 THEN
     1308     3983    1              GOTO CANT_INSERT_DELETE_REC_FAILURE;
     1309     3984    1           IF STREAM.PROTECT (DEL_LEVEL) ~= %CLEAR THEN
     1310     3985    1              GOTO CANT_DELETE_FAILURE;
     1311     3986
     1312     3987    1           HISTORY_ENABLED = %FALSE;
     1313     3988    1           IF ADDR(STREAM) ~= VD_6E.HISTORY$
     1314     3989    1             AND VD_6E.HISTORY$ ~= ADDR(NIL) THEN
     1315     3990    1              IF HISTORY$STREAM.PORT$ ~= ADDR(NIL) THEN
     1316     3991    1                 IF HISTORY$STREAM.PORT$ -> PORT.EXIST# ~= 0 THEN
     1317     3992    1                    HISTORY_ENABLED = %TRUE;
     1318     3993
     1319     3994    1           IF HISTORY_ENABLED THEN
     1320     3995    2   WRITE_HISTORY: DO;
     1321     3996                   /*N*
     1322     3997                   *N*  Walk the deleted nodes with VDA$PREADs,
     1323     3998                   *N*      calling VDA$LSAVE_OLD_NODE on each.
PL6.E3A0      #003=VDA$LDELETE File=VDA$LOWER.:VDA5TSI                           FRI 07/04/97 11:06 Page:142
     1324     3999                   *N*/
     1325     4000    2              ;
     1326     4001    2              END WRITE_HISTORY;
     1327     4002    1           ELSE
     1328     4003    2   NO_HISTORY: DO;
     1329     4004    2              FLUSH_PORT = %FALSE;
     1330     4005    2   CHECK_FOR_FLUSH:
     1331     4006    3              DO LEVEL = %LVL_LOWER TO STRUCTURE$NODE.COUNT# - 1;
     1332     4007    3                 IF PORT.LEVEL.SPEC_MODIFIED (LEVEL)
     1333     4008    4                   OR PORT.LEVEL.DATA_MODIFIED (LEVEL) THEN DO;
     1334     4009    4                    FLUSH_PORT = %TRUE;
     1335     4010    4                    EXIT CHECK_FOR_FLUSH;
     1336     4011    4                    END;
     1337     4012    3                 END CHECK_FOR_FLUSH;
     1338     4013
     1339     4014    3              IF FLUSH_PORT THEN DO;
     1340     4015    3                 CALL VDA$PFLUSH (PORT, %TO_PRESENTER)
     1341     4016    3                   ALTRET (PFLUSH_FAILED);
     1342     4017    3                 END;
     1343     4018    2              END NO_HISTORY;
     1344     4019
     1345     4020
     1346     4021    1           IF PORT.LEVEL.SPEC_TYPE# (DEL_LEVEL) ~= 0
     1347     4022    1             AND PORT.LEVEL.SPEC_TYPE# (DEL_LEVEL) ~= %SPT_EXT_RECORD THEN
     1348     4023    2   PREDEFINED_FILE: DO;
     1349     4024    2              DEL_LEVEL_COUNT = 0;
     1350     4025    2              LOCATION_PTRS = %CLEAR;
     1351     4026
     1352     4027    2   WHILE_WITHIN_RANGE:
     1353     4028    3              DO WHILE %TRUE;
     1354     4029                      /*
     1355     4030                      * On each pass thru the loop, we PREAD using the
     1356     4031                      *     start location.  We can get away with this
     1357     4032                      *     'cause we delete the node we find each time,
     1358     4033                      *     so the next PREAD, when searching for the first
     1359     4034                      *     node after the start location, will always find
     1360     4035                      *     the next node.
PL6.E3A0      #003=VDA$LDELETE File=VDA$LOWER.:VDA5TSI                           FRI 07/04/97 11:06 Page:143
     1361     4036                      */
     1362     4037    3                 CALL VDA$PREAD (PORT, DEL_RANGE.START, 0, %TRUE)
     1363     4038    3                   ALTRET (PREAD_FAILED);
     1364     4039    3                 IF PORT.CURRENT.EOF THEN
     1365     4040    3                    EXIT WHILE_WITHIN_RANGE;   /* Not within range */
     1366     4041    4                 DO INDX = %(LVL_LOWER-1) TO (DEL_LEVEL - 1);
     1367     4042                         %GETKEY (KEY=PORT.CURRENT.KEY, INDX=INDX,
     1368     4043                         PTR="LOCATION_PTRS.KEY$ (INDX)");
     1369     4053    4                    END;
     1370     4054    3                 LOCATION_PTRS.COUNT# = DEL_LEVEL;
     1371     4055                      /* VDG$COMPARE_PTRS_W_RANGE ignores EOF, so test it here */
     1372     4056    3                 IF DEL_RANGE.START.EOF THEN
     1373     4057    3                    EXIT WHILE_WITHIN_RANGE;   /* Not within range */
     1374     4058    3                 IF NOT DEL_RANGE.ENDD.EOF /* E verything's before EOF */
     1375     4059    4                 THEN DO;
     1376     4060    4                    CALL VDG$COMPARE_PTRS_W_RANGE (LOCATION_PTRS, DEL_RANGE)
     1377     4061    4                      ALTRET (NOT_WITHIN_RANGE);
     1378     4062    4                    END;
     1379     4063
     1380     4064    4                 IF PORT.DCB# = 0 THEN DO;
     1381     4065    4                    IF NOT (PORT.LEVEL.INTERNAL$ (DEL_LEVEL) ->
     1382     4066    4                      VD$FILE_NODE.ACCESS (%NAC_DELETE)
     1383     4067    4                      OR VD_ACCESSOR_PRIV.ACCESS (%NAC_DELETE)) THEN
     1384     4068    4                       GOTO CANT_DELETE_NODE_FAILURE;
     1385     4069    4                    END;
     1386     4070    3                 IF PORT.LEVEL.SPEC_TYPE# (DEL_LEVEL) >= %MX_SPEC_TYPES THEN
     1387     4071    3                    CALL VDG$ESCREECH (PORT.LEVEL.SPEC_TYPE# (DEL_LEVEL));
     1388     4072    3                 NODE_WRITER$$ =
     1389     4073    3                   VD_NODE_WRITERS$$ (PORT.LEVEL.SPEC_TYPE# (DEL_LEVEL));
     1390     4074    4                 IF NODE_WRITER$$ ~= ENTADDR(NIL) THEN DO;
     1391     4075                            /*
     1392     4076                            *  Pass 0-length Spec and Data args to node writer;
     1393     4077                            *      deleting the contents of these components
     1394     4078                            *      will delete the node when appropriate.
     1395     4079                            */
     1396     4080    4                    CALL NODE_WRITER$$ (PORT, ZERO_SPEC, ZERO_BUFFER,
     1397     4081    4                      %TRUE)     /* %TRUE = node exists */
PL6.E3A0      #003=VDA$LDELETE File=VDA$LOWER.:VDA5TSI                           FRI 07/04/97 11:06 Page:144
     1398     4082    4                      ALTRET (NODE_WRITER_FAILED);
     1399     4083    4                    PORT.LAST_OP# = %ACCOP_DELETE;
     1400     4084    4                    DEL_LEVEL_COUNT = DEL_LEVEL_COUNT + 1;
     1401     4085    4                    END;
     1402     4086    4                 ELSE DO;
     1403     4087    4                    PREDEF_RANGE.START = PORT.CURRENT;
     1404     4088    4                    PREDEF_RANGE.ENDD = PORT.CURRENT;
     1405     4089    4                    CALL VDA$PDELETE (PORT, PREDEF_RANGE, DEL_LEVEL,
     1406     4090    4                      PREDEF_COUNT)
     1407     4091    5                    WHENALTRETURN DO;
     1408     4092    5                       CALL CLEAN_UP_AFTER_DELETE
     1409     4093    5                         ALTRET (CLEAN_UP_AFTER_DELETE_FAILED);
     1410     4094    5                       END;
     1411     4095    4                    DEL_LEVEL_COUNT = DEL_LEVEL_COUNT + PREDEF_COUNT;
     1412     4096    4                    END;
     1413     4097    3                 END WHILE_WITHIN_RANGE;
     1414     4098    2              END PREDEFINED_FILE;
     1415     4099    2           ELSE DO;
     1416     4100    2              CALL VDA$PDELETE (PORT, DEL_RANGE, DEL_LEVEL, DEL_LEVEL_COUNT);
     1417     4101    2              END;
     1418     4102    1   NOT_WITHIN_RANGE:;
     1419     4103
     1420     4104    1           CALL CLEAN_UP_AFTER_DELETE
     1421     4105    1             ALTRET (CLEAN_UP_AFTER_DELETE_FAILED);
     1422     4106
     1423     4107
     1424     4108    1           IF VD_$$MON_ACC.V# > 0 THEN
     1425     4109    1              CALL VDG$MACC_RETURN (STREAM);
     1426     4110    1           RETURN;
     1427     4111
     1428     4112
     1429     4113
     1430     4114    1   CANT_INSERT_DELETE_REC_FAILURE:
     1431     4115    1           CALL VDG$OALLOC (%CLS_ERR, VD_ERR$)
     1432     4116    1             ALTRET (OALLOC_FAILED);
     1433     4117    1           VD$ERR.ERR.CODE# = %E$CANT_INSERT_DELETE_RECORDS;
     1434     4118    1           VD$ERR.FLAGLEV# = %FLV_SERIOUS;
PL6.E3A0      #003=VDA$LDELETE File=VDA$LOWER.:VDA5TSI                           FRI 07/04/97 11:06 Page:145
     1435     4119    1           ALTRETURN;
     1436     4120
     1437     4121
     1438     4122    1   CANT_DEL_ACROSS_NODES_FAILURE:
     1439     4123    1           CALL VDG$OALLOC (%CLS_ERR, VD_ERR$)
     1440     4124    1             ALTRET (OALLOC_FAILED);
     1441     4125    1           VD$ERR.ERR.CODE# = %E$CANT_DELETE_ACROSS_NODES;
     1442     4126    1           VD$ERR.FLAGLEV# = %FLV_SERIOUS;
     1443     4127    1           ALTRETURN;
     1444     4128
     1445     4129
     1446     4130    1   CANT_DELETE_FAILURE:
     1447     4131    1           CALL VDG$OALLOC (%CLS_ERR, VD_ERR$)
     1448     4132    1             ALTRET (OALLOC_FAILED);
     1449     4133    1           VD$ERR.ERR.CODE# = %E$CANT_DELETE;
     1450     4134    1           VD$ERR.FLAGLEV# = %FLV_SERIOUS;
     1451     4135    1           VD$ERR.DCB# = PORT.DCB#;
     1452     4136    1           ALTRETURN;
     1453     4137
     1454     4138
     1455     4139    1   CANT_DELETE_NODE_FAILURE:
     1456     4140    1           CALL VDG$OALLOC (%CLS_ERR, VD_ERR$)
     1457     4141    1             ALTRET (OALLOC_FAILED);
     1458     4142    1           VD$ERR.ERR.CODE# = %E$CANT_DELETE_NODE;
     1459     4143    1           VD$ERR.FLAGLEV# = %FLV_SERIOUS;
     1460     4144    1           SUBST_FIELD$ = PINCRW(VD_ERR$, SIZEW(VD$ERR));
     1461     4145    1           SUBST$POINTER.OBJECT.CLASS# (0) = %CLS_PTR_KEY;
     1462     4146    1           SUBST$POINTER.V$ (0) = ADDR(PORT.LEVEL.INTERNAL$ (DEL_LEVEL) ->
     1463     4147    1             VD$FILE_NODE.DESC.KEY);
     1464     4148    1           CALL CLEAN_UP_AFTER_DELETE
     1465     4149    1             ALTRET (CLEAN_UP_AFTER_DELETE_FAILED);
     1466     4150    1           ALTRETURN;
     1467     4151
     1468     4152
     1469     4153    1   NODE_WRITER_FAILED:
     1470     4154    1           CALL CLEAN_UP_AFTER_DELETE
     1471     4155    1             ALTRET (CLEAN_UP_AFTER_DELETE_FAILED);
PL6.E3A0      #003=VDA$LDELETE File=VDA$LOWER.:VDA5TSI                           FRI 07/04/97 11:06 Page:146
     1472     4156    1           ALTRETURN;
     1473     4157
     1474     4158
     1475     4159    1   PFLUSH_FAILED: ;
     1476     4160    1   PREAD_FAILED: ;
     1477     4161    1   RDELETE_FAILED: ;
     1478     4162    1   OALLOC_FAILED: ;
     1479     4163    1   CLEAN_UP_AFTER_DELETE_FAILED: ;
     1480     4164    1           ALTRETURN;
     1481     4165
     1482     4166        %BOX (TITLE=CLEAN_UP_AFTER_DELETE);

              4178    1   /***************************************************************************
              4180    1    *                                                                         *
              4184    1            *                           CLEAN_UP_AFTER_DELETE                         *
              4186    1            *                                                                         *
              4188    1           ***************************************************************************/

     1483     4192
     1484     4193        /*I* NAME: CLEAN_UP_AFTER_DELETE
     1485     4194            PARAMETERS:
     1486     4195                None.
     1487     4196            INPUT:
     1488     4197                STREAM, PORT, DEL_RANGE - The stream and port to use, and
     1489     4198                    the range of nodes to delete.
     1490     4199                DEL_LEVEL_COUNT - # of nodes successfully deleted.
     1491     4200            OUTPUT:
     1492     4201                STREAM.CURRENT will contain a copy of PORT.CURRENT.
     1493     4202                The predefined name $RECORDS_DELETED will be updated.
     1494     4203                The Presenter will be told of the deletions.
     1495     4204            DESCRIPTION:
     1496     4205                Do all that stuff.  (See OUTPUT.)
     1497     4206        */
     1498     4207
     1499     4208    1   CLEAN_UP_AFTER_DELETE: PROC ALTRET;
     1500     4209
     1501     4210
PL6.E3A0      #003=VDA$LDELETE File=VDA$LOWER.:VDA5TSI                           FRI 07/04/97 11:06 Page:147
     1502     4211    2   DCL FAILURE BIT(1) ALIGNED;
     1503     4212    2   DCL 1 SAVE_ACCESSOR_PRIV ALIGNED,
     1504     4213            %VD$NAC (NAME=ACCESS, LEV=2, LAST=YES, ALIGNMENT=UNAL, STCLASS=AUTO);
     1505     4227    2   DCL RECORDS_DELETED$ PTR;
     1506     4228
     1507     4229
     1508     4230        %VD$NUMBER (NAME=RECORDS$DELETED, STCLASS="BASED(RECORDS_DELETED$)");
     1509     4275
     1510     4276
     1511     4277
     1512     4278    2           FAILURE = %FALSE;
     1513     4279    2           CALL VDG$OCLEAR_LOCATION (STREAM.CURRENT)
     1514     4280    2             ALTRET (OCLEAR_LOCATION_FAILED);
     1515     4281    2           CALL VDG$OCOPY_LOCATION (PORT.CURRENT, STREAM.CURRENT)
     1516     4282    2             ALTRET (OCOPY_LOCATION_FAILED);
     1517     4283
     1518     4284                /*
     1519     4285                *   Set the value of $RECORDS_DELETED.
     1520     4286                */
     1521     4287    2           SAVE_ACCESSOR_PRIV = VD_ACCESSOR_PRIV;
     1522     4288    2           VD_ACCESSOR_PRIV = %NAC_ALL_BITS;
     1523     4289    2           CALL VDG$OALLOC (%CLS_NUMBER, RECORDS_DELETED$)
     1524     4290    2             ALTRET (OALLOC_FAILED);
     1525     4291    2           RECORDS$DELETED.V# = DEL_LEVEL_COUNT;
     1526     4292    2           CALL VDA$LWRITE (EQUALS$STREAM, VD_LOC_$RECORDS_DELETED, ,
     1527     4293    2             RECORDS$DELETED)
     1528     4294    3           WHENALTRETURN DO;
     1529     4295    3              FAILURE = %TRUE;
     1530     4296    3              CALL VDG$OFREE (RECORDS$DELETED)
     1531     4297    3                ALTRET (OFREE_FAILED);
     1532     4298    3              END;
     1533     4299    2           CALL VDA$PFLUSH (EQUALS$STREAM.PORT$->VD$PORT, %TO_PRESENTER)
     1534     4300    3           WHENALTRETURN DO;
     1535     4301    3              FAILURE = %TRUE;
     1536     4302    3              END;
     1537     4303    2           VD_ACCESSOR_PRIV = SAVE_ACCESSOR_PRIV;
     1538     4304
PL6.E3A0      #003=VDA$LDELETE File=VDA$LOWER.:VDA5TSI                           FRI 07/04/97 11:06 Page:148
     1539     4305                /*
     1540     4306                *   Tell the Presenter about the deletion.
     1541     4307                */
     1542     4308    2           CALL VDP$RDELETE (PORT.FILE_KEY, DEL_RANGE)
     1543     4309    2             ALTRET (RDELETE_FAILED);
     1544     4310
     1545     4311    2           IF FAILURE THEN
     1546     4312    2              ALTRETURN;
     1547     4313    2           RETURN;
     1548     4314
     1549     4315
     1550     4316
     1551     4317    2   OCLEAR_LOCATION_FAILED: ;
     1552     4318    2   OCOPY_LOCATION_FAILED: ;
     1553     4319    2   OALLOC_FAILED: ;
     1554     4320    2   OFREE_FAILED: ;
     1555     4321    2   RDELETE_FAILED: ;
     1556     4322    2           ALTRETURN;
     1557     4323
     1558     4324    2   END CLEAN_UP_AFTER_DELETE;
     1559     4325
     1560     4326
     1561     4327    1   END VDA$LDELETE;
     1562     4328        %EOD;

PL6.E3A0      #003=VDA$LDELETE File=VDA$LOWER.:VDA5TSI                           FRI 07/04/97 11:06 Page:149
--  Include file information  --

   VD_PERR_C.:VDA5TOU  is referenced.
   VD_MACROS_M.:VDA5TOU  is referenced.
   B$JIT_C.:E04TOU  was found in the system file and is never referenced.
   CP_6_C.:E04TOU  was found in the system file and is never referenced.
      No diagnostics issued in procedure VDA$LDELETE.

   Procedure VDA$LDELETE requires 597 words for executable code.
   Procedure VDA$LDELETE requires 68 words of local(AUTO) storage.

PL6.E3A0      #003=VDA$LDELETE File=VDA$LOWER.:VDA5TSI                           FRI 07/04/97 11:06 Page:150

 Object Unit name= VDA$LDELETE                                File name= VDA$LOWER.:VDA5TOU
 UTS= JUL 04 '97 11:06:24.76 FRI                              Compiler= PL-6/E31         Sev=      00
 SharedLib= :SHARED_SYSTEM                                    Alt SharedLib=


    ****  Control sections  ****

 Sect   Type Bound  Init  Size OctSiz  Section name(segment info)
    0  RoData even  UTS      5      5  VDA$LDELETE
    1   Proc  even  none   597   1125  VDA$LDELETE
    2  RoData even  none    16     20  VDA$LDELETE

    ****  Entry defs  ****

                              Check   Calling
                             calling  sequence
  Sect OctLoc Primary Altret sequence   type   Parms  Name
     1      0   yes    yes     yes      Std        2  VDA$LDELETE
PL6.E3A0      #003=VDA$LDELETE File=VDA$LOWER.:VDA5TSI                           FRI 07/04/97 11:06 Page:151

  ****  Entry refs  ****

         Check        Calling
        calling       sequence
Altret sequence SRef   type   Args  Name
         yes           Std       1 VDG$EBREAK_ACKNOWLEDGE
         yes           Std       2 VDG$MACC_LDELETE
 yes     yes           Std       3 VDG$OALLOC
         yes           Std       3 VDG$ESCREECH
 yes     yes           Std       3 VDG$COMPARE_PTRS_W_RANGE
 yes     yes           Std       4 VDA$PDELETE
         yes           Std       1 VDG$MACC_RETURN
 yes     yes           Std       2 VDA$PFLUSH
 yes     yes           Std       6 VDA$PREAD
 yes     yes           Std       1 VDG$OCLEAR_LOCATION
 yes     yes           Std       2 VDG$OCOPY_LOCATION
 yes     yes           Std       4 VDA$LWRITE
 yes     yes           Std       1 VDG$OFREE
 yes     yes           Std       3 VDP$RDELETE
                       nStd      0 X66_AUTO_2
                       Std       0 B_CONSPOOL_D
                       nStd      0 X66_AALT
                       nStd      0 X66_ARET

  ****  Data refs  ****

  Flags:  r = read only, s = secondary
Flgs Name                             Flgs Name                             Flgs Name
     VD_6E                                 VD_NODE_WRITERS$$                     VD_LOC_$RECORDS_DELETED
     VD_$$MON_ACC                          VD_ACCESSOR_PRIV                      VD_KEY_NUMERIC_BOF
     B_VECTNIL
PL6.E3A0      #003=VDA$LDELETE File=VDA$LOWER.:VDA5TSI                           FRI 07/04/97 11:06 Page:152

  ****  Segment refs  ****

  Flags:  r = read only, s = secondary
Flgs Name                             Flgs Name                             Flgs Name
     NULLSID                               ISSID
PL6.E3A0      #003=VDA$LDELETE File=VDA$LOWER.:VDA5TSI                           FRI 07/04/97 11:06 Page:153


     1065        1        /*T***********************************************************/
     1066        2        /*T*                                                         */
     1067        3        /*T* Copyright (c) Bull HN Information Systems Inc., 1997    */
     1068        4        /*T*                                                         */
     1069        5        /*T***********************************************************/
     1070        6
     1071        7        /*D* NAME: VDA$LDELETE
     1072        8            PARAMETERS:
     1073        9                STREAM - VD$STREAM to use.  This stream must be open to
     1074       10                    an internal or external file.
     1075       11                RANGE - Optional VD$RANGE specifying the range of nodes to delete.
     1076       12                    This is an inclusive range:  RANGE.START specifies the first
     1077       13                    node to delete and RANGE.ENDD specifies the last node to
     1078       14                    delete.
     1079       15                    RANGE must be one of the following:
     1080       16                    Omitted - We'll delete the lowest node (usually record-level)
     1081       17                        that the stream is currently positioned to.
     1082       18                    BOF, EOF, or specific nodes, specified as follows:
     1083       19                    If .START or .ENDD = %CLEAR, or have only one key which
     1084       20                        equals VD_KEY_NUMERIC_BOF or VD_KEY_STRING_BOF --
     1085       21                        this specifies BOF.
     1086       22                    If .START.EOF or .ENDD.EOF is set, this specifies EOF;
     1087       23                    Else .START.KEY or .ENDD.KEY (%(LVL_LOWER-1)) thru (n) must
     1088       24                        be given:  these are keys for levels %LVL_LOWER thru (n+1)
     1089       25                        of the file.
     1090       26
     1091       27                    Basic rule for RANGE:  we only allow deletion within one
     1092       28                    parent node, of one or more of that parent's kids -- you
     1093       29                    can't delete from some kid of node "A" thru some kid of
     1094       30                    node "B".
     1095       31                    Therefore:
     1096       32                        If RANGE.START = %CLEAR or has only VD_KEY_x_BOF, then
     1097       33                            .ENDD must be either %CLEAR, .ENDD.EOF, or exactly
     1098       34                            one .ENDD.KEY given.
     1099       35                        If RANGE.ENDD.EOF is set, then .START must be either
     1100       36                            %CLEAR, .START.EOF, or exactly one .START.KEY given.
PL6.E3A0      #003=VDA$LDELETE File=VDA$LOWER.:VDA5TSI                           FRI 07/04/97 11:06 Page:154
     1101       37                        Of course, if .START.EOF is set then the only valid
     1102       38                            .ENDD is .ENDD.EOF; if .ENDD = %CLEAR, then the
     1103       39                            only valid .START is %CLEAR or just VD_KEY_x_BOF.
     1104       40                            In either case, nothing will be deleted.
     1105       41                        If neither .START nor .END specify BOF or EOF, then
     1106       42                            the number of keys in .START.KEY and .ENDD.KEY
     1107       43                            must be equal, and all .START.KEYs except the last
     1108       44                            must equal their counterpart in .ENDD.KEY.
     1109       45                            If the file has more than two levels, deletion will
     1110       46                            be at the lowest level given; for example, if the
     1111       47                            file has 5 levels but keys are only given for levels
     1112       48                            1 and 2, we will delete nodes at levels 2 thru 5:
     1113       49                            the specified node(s) at level 2, and all children
     1114       50                            of deleted level 2 nodes.
     1115       51            INPUT:
     1116       52                VD_ACCESSOR_PRIV - If we're deleting from an internal file and
     1117       53                    we're not doing the deletion on behalf of the user, but
     1118       54                    rather are just updating an internally-maintained
     1119       55                    file (e.g., Scratch files, etc.), then the
     1120       56                    VD_ACCESSOR_PRIV's %NAC_DELETE bit must be set.
     1121       57            SCRATCH:
     1122       58                VD_STATIC_TEMP
     1123       59            OUTPUT:
     1124       60                The stream and port will end up positioned to the
     1125       61                    node following the last node deleted (which could be
     1126       62                    eof).
     1127       63                The Presenter will be told of the deletions.
     1128       64                $RECORDS_DELETED will be set to the number of nodes deleted at the
     1129       65                    lowest level at which a key was given (highest level of
     1130       66                    deleted nodes).
     1131       67        *N**N*  If the History file is enabled, the node(s) being deleted, if any,
     1132       68        *N**N*      will be appended to the History file.
     1133       69            DESCRIPTION:
     1134       70        *N**N*  If History is enabled:
     1135       71        *N**N*      Walk the nodes of the file tree which are to be deleted,
     1136       72        *N**N*          VDA$PREADing each into the Port registers and
     1137       73        *N**N*          writing it to the end of the History file.
PL6.E3A0      #003=VDA$LDELETE File=VDA$LOWER.:VDA5TSI                           FRI 07/04/97 11:06 Page:155
     1138       74        *N**N*  Else:
     1139       75                    If the port contains a node which has been modified,
     1140       76                        call VDA$PFLUSH.
     1141       77                If this is a predefined file:
     1142       78                    Loop thru the nodes to be deleted (at just the top level of
     1143       79                        the nodes to be deleted), VDA$PREADing each node and
     1144       80                        calling the appropriate node writer.  This will delete
     1145       81                        the node and all its children, and will free the Port
     1146       82                        Spec and/or Data components.
     1147       83                        The node writer may have side-effects (closing windows),
     1148       84                        and may reject the deletion.
     1149       85                    Leave the Port positioned to the node following the last node
     1150       86                        deleted.
     1151       87                Else (that is, if this isn't a predefined file):
     1152       88                    Call VDA$PDELETE to delete the nodes from the file.
     1153       89                        Leave the Port positioned to the node following the
     1154       90                        last node deleted.
     1155       91        */
     1156       92
     1157       93        VDA$LDELETE: PROC (STREAM, RANGE) ALTRET;

     93  1 000000   000000 700200 xent  VDA$LDELETE  TSX0  ! X66_AUTO_2
         1 000001   000104 000002                    ZERO    68,2

     1158       94
     1159       95
     1160       96        %INCLUDE VD_MACROS_M;
     1161     2311        %INCLUDE VD_PERR_C;
     1162     2459
     1163     2460
     1164     2461        %VD$STREAM (NAME=STREAM, STCLASS=PARAM);
     1165     2567        %VD$RANGE (NAME=RANGE, STCLASS=PARAM);
     1166     2636
     1167     2637
     1168     2638
     1169     2639    1   DCL VDA$PREAD           ENTRY (6) ALTRET;
     1170     2640    1   DCL VDA$PFLUSH          ENTRY (2) ALTRET;
PL6.E3A0      #003=VDA$LDELETE File=VDA$LOWER.:VDA5TSI                           FRI 07/04/97 11:06 Page:156
     1171     2641    1   DCL VDA$PDELETE         ENTRY (4) ALTRET;
     1172     2642    1   DCL VDA$LWRITE          ENTRY (4) ALTRET;
     1173     2643    1   DCL VDP$RDELETE         ENTRY (3) ALTRET;
     1174     2644    1   DCL VDG$COMPARE_PTRS_W_RANGE ENTRY (3) ALTRET;
     1175     2645    1   DCL VDG$OCOPY_LOCATION  ENTRY (2) ALTRET;
     1176     2646    1   DCL VDG$OCLEAR_LOCATION ENTRY (1) ALTRET;
     1177     2647    1   DCL VDG$OALLOC          ENTRY (3) ALTRET;
     1178     2648    1   DCL VDG$OFREE           ENTRY (1) ALTRET;
     1179     2649    1   DCL VDG$OCOPY           ENTRY (2) ALTRET;
     1180     2650    1   DCL VDG$MACC_LDELETE    ENTRY (2);
     1181     2651    1   DCL VDG$MACC_RETURN     ENTRY (1);
     1182     2652    1   DCL VDG$ESCREECH        ENTRY (3);
     1183     2653    1   DCL VDG$EBREAK_ACKNOWLEDGE ENTRY (1);
     1184     2654
     1185     2655
     1186     2656        %VD_6E (STCLASS=SYMREF);
     1187     2692    1   DCL VD_NODE_WRITERS$$ (0:0) EPTR SYMREF;
     1188     2693        %VD$LOCATION (NAME=VD_LOC_$RECORDS_DELETED, STCLASS=SYMREF);
     1189     2721        %VD$NUMBER (NAME=VD_$$MON_ACC, STCLASS=SYMREF);
     1190     2766    1   DCL 1 VD_ACCESSOR_PRIV ALIGNED SYMREF,
     1191     2767            %VD$NAC (NAME=ACCESS, LEV=2, LAST=YES, ALIGNMENT=UNAL, STCLASS=STATIC);
     1192     2781        %VD$KEY_NUMBER (NAME=VD_KEY_NUMERIC_BOF, STCLASS=SYMREF);
     1193     2796
     1194     2797
     1195     2798    1   DCL ZERO_SPEC (0:1) SBIN CONSTANT INIT(0*0);
     1196     2799        %VD_BUFFER (NAME=ZERO_BUFFER, STCLASS=CONSTANT, IBYTES="''");
     1197     2859
     1198     2860
     1199     2861
     1200     2862    1   DCL STRUCTURE_NODE$ PTR;
     1201     2863        %VD$RANGE (NAME=DEL_RANGE, STCLASS=AUTO);
     1202     2932    1   DCL DEL_LEVEL SBIN;
     1203     2933    1   DCL DEL_LEVEL_COUNT SBIN;
     1204     2934    1   DCL INDX SBIN;
     1205     2935    1   DCL LEVEL SBIN;
     1206     2936    1   DCL DEL_START_KEY$ PTR;
     1207     2937    1   DCL DEL_END_KEY$ PTR;
PL6.E3A0      #003=VDA$LDELETE File=VDA$LOWER.:VDA5TSI                           FRI 07/04/97 11:06 Page:157
     1208     2938    1   DCL FLUSH_PORT BIT(1) ALIGNED;
     1209     2939    1   DCL HISTORY_ENABLED BIT(1) ALIGNED;
     1210     2940        %VD$LOCATION_PTRS (NAME=LOCATION_PTRS, STCLASS=AUTO);
     1211     2955    1   DCL NODE_WRITER$$ EPTR;
     1212     2956    1   DCL PREDEF_COUNT SBIN;
     1213     2957        %VD$RANGE (NAME=PREDEF_RANGE, STCLASS=AUTO);
     1214     3026    1   DCL VD_ERR$ PTR;
     1215     3027    1   DCL SUBST_FIELD$ PTR;
     1216     3028
     1217     3029
     1218     3030        %VD$PORT (NAME=PORT, STCLASS="BASED(STREAM.PORT$)");
     1219     3128        %VD$FILE_NODE (NAME=STRUCTURE$NODE, STCLASS="BASED(STRUCTURE_NODE$)");
     1220     3221        %VD$STREAM (NAME=HISTORY$STREAM, STCLASS="BASED(VD_6E.HISTORY$)");
     1221     3327        %VD$STREAM (NAME=EQUALS$STREAM, STCLASS="BASED(VD_6E.EQUALS$)");
     1222     3433        %VD$TEXTC (NAME=DEL$START_KEY, STCLASS="BASED(DEL_START_KEY$)");
     1223     3456        %VD$TEXTC (NAME=DEL$END_KEY, STCLASS="BASED(DEL_END_KEY$)",
     1224     3457            ALIGNMENT=CALIGNED);
     1225     3480        %VD$ERR (NAME=VD$ERR, STCLASS="BASED(VD_ERR$)");
     1226     3533        %VD$POINTER (NAME=SUBST$POINTER, DIM="(0:2)", STCLASS="BASED(SUBST_FIELD$)");
     1227     3578        %VD$TEXTC_REMOTE;
     1228     3639        %VD$BUFFER;
     1229     3697        %VD$FILE_NODE;
     1230     3790        %VD$PORT;
     1231     3888
     1232     3889
     1233     3890
     1234     3891    2           IF VD_6E.INTERRUPT.STATE# = %INST_BREAK_QUEUED THEN DO;

   3891  1 000002   000027 220000 xsym               LDX0    VD_6E+23
         1 000003   000003 100003                    CMPX0   3,DU
         1 000004   000012 601000 1                  TNZ     s:3895

     1235     3892    2              CALL VDG$EBREAK_ACKNOWLEDGE (%E$BREAK_HIT);

   3892  1 000005   000000 630400 2                  EPPR0   0
         1 000006   000017 631400 xsym               EPPR1   B_VECTNIL+15
         1 000007   000000 701000 xent               TSX1    VDG$EBREAK_ACKNOWLEDGE
PL6.E3A0      #003=VDA$LDELETE File=VDA$LOWER.:VDA5TSI                           FRI 07/04/97 11:06 Page:158
         1 000010   000000 011000                    NOP     0

     1236     3893    2              ALTRETURN;

   3893  1 000011   000000 702200 xent               TSX2  ! X66_AALT

     1237     3894    2              END;
     1238     3895    1           IF VD_$$MON_ACC.V# > 0 THEN

   3895  1 000012   000003 235000 xsym               LDA     VD_$$MON_ACC+3
         1 000013   000020 604400 1                  TMOZ    s:3897

     1239     3896    1              CALL VDG$MACC_LDELETE (STREAM, RANGE);

   3896  1 000014   200003 630500                    EPPR0   @STREAM,,AUTO
         1 000015   000020 631400 xsym               EPPR1   B_VECTNIL+16
         1 000016   000000 701000 xent               TSX1    VDG$MACC_LDELETE
         1 000017   000000 011000                    NOP     0

     1240     3897    1           IF PORT.EXIST# = 0 THEN

   3897  1 000020   200003 470500                    LDP0    @STREAM,,AUTO
         1 000021   000001 471500                    LDP1    1,,PR0
         1 000022   100003 720100                    LXL0    3,,PR1
         1 000023   000034 601000 1                  TNZ     s:3899

     1241     3898    1              CALL VDG$ESCREECH (PORT.EXIST#);

   3898  1 000024   200101 451500                    STP1    RECORDS_DELETED$+2,,AUTO
         1 000025   200101 236100                    LDQ     RECORDS_DELETED$+2,,AUTO
         1 000026   000001 036000 2                  ADLQ    1
         1 000027   200100 756100                    STQ     RECORDS_DELETED$+1,,AUTO
         1 000030   200100 630500                    EPPR0   RECORDS_DELETED$+1,,AUTO
         1 000031   000017 631400 xsym               EPPR1   B_VECTNIL+15
         1 000032   000000 701000 xent               TSX1    VDG$ESCREECH
         1 000033   000000 011000                    NOP     0

PL6.E3A0      #003=VDA$LDELETE File=VDA$LOWER.:VDA5TSI                           FRI 07/04/97 11:06 Page:159
     1242     3899    1           STRUCTURE_NODE$ = PORT.STRUCTURE$;

   3899  1 000034   200003 470500                    LDP0    @STREAM,,AUTO
         1 000035   000001 471500                    LDP1    1,,PR0
         1 000036   100006 236100                    LDQ     6,,PR1
         1 000037   200005 756100                    STQ     STRUCTURE_NODE$,,AUTO

     1243     3900
     1244     3901    1           IF ADDR(RANGE) = ADDR(NIL) THEN

   3901  1 000040   200004 236100                    LDQ     @RANGE,,AUTO
         1 000041   000001 116000 xsym               CMPQ    B_VECTNIL+1
         1 000042   000076 601000 1                  TNZ     CHECK_PASSED_RANGE

     1245     3902    2   NO_RANGE_GIVEN: DO;

   3902  1 000043                       NO_RANGE_GI* null
     1246     3903    2              IF STREAM.CURRENT.EOF THEN

   3903  1 000043   000016 236100                    LDQ     14,,PR0
         1 000044   400000 316007                    CANQ    -131072,DL
         1 000045   000051 600000 1                  TZE     s:3905

     1247     3904    2                 CALL VDG$ESCREECH;

   3904  1 000046   000002 631400 xsym               EPPR1   B_VECTNIL+2
         1 000047   000000 701000 xent               TSX1    VDG$ESCREECH
         1 000050   000000 011000                    NOP     0

     1248     3905    2              DEL_RANGE.START = STREAM.CURRENT;

   3905  1 000051   200003 470500                    LDP0    @STREAM,,AUTO
         1 000052   000100 100500                    MLR     fill='000'O
         1 000053   000006 000044                    ADSC9   6,,PR0                   cn=0,n=36
         1 000054   200006 000044                    ADSC9   DEL_RANGE,,AUTO          cn=0,n=36

     1249     3906    2              DEL_RANGE.ENDD = STREAM.CURRENT;
PL6.E3A0      #003=VDA$LDELETE File=VDA$LOWER.:VDA5TSI                           FRI 07/04/97 11:06 Page:160

   3906  1 000055   000100 100500                    MLR     fill='000'O
         1 000056   000006 000044                    ADSC9   6,,PR0                   cn=0,n=36
         1 000057   200017 000044                    ADSC9   DEL_RANGE+9,,AUTO        cn=0,n=36

     1250     3907    2              DEL_LEVEL = %(LVL_LOWER-1);

   3907  1 000060   200030 450100                    STZ     DEL_LEVEL,,AUTO

     1251     3908    3              DO WHILE (DEL_LEVEL < STRUCTURE$NODE.COUNT# - 1)

   3908  1 000061   000063 710000 1                  TRA     s:3911

     1252     3909    3                AND (DEL_RANGE.START.KEY (DEL_LEVEL) ~= %CLEAR);
     1253     3910    3                 DEL_LEVEL = DEL_LEVEL + 1;

   3910  1 000062   200030 054100                    AOS     DEL_LEVEL,,AUTO

     1254     3911    3                 END;

   3911  1 000063   200005 470500                    LDP0    STRUCTURE_NODE$,,AUTO
         1 000064   000014 236100                    LDQ     12,,PR0
         1 000065   000001 136007                    SBLQ    1,DL
         1 000066   200030 116100                    CMPQ    DEL_LEVEL,,AUTO
         1 000067   000075 604400 1                  TMOZ    s:3912
         1 000070   200030 235100                    LDA     DEL_LEVEL,,AUTO
         1 000071   000001 735000                    ALS     1
         1 000072   200006 237105                    LDAQ    DEL_RANGE,AL,AUTO
         1 000073   000002 117000 2                  CMPAQ   2
         1 000074   000062 601000 1                  TNZ     s:3910

     1255     3912    2              END NO_RANGE_GIVEN;

   3912  1 000075   000300 710000 1                  TRA     s:3981

     1256     3913    1           ELSE
     1257     3914    2   CHECK_PASSED_RANGE: DO;
PL6.E3A0      #003=VDA$LDELETE File=VDA$LOWER.:VDA5TSI                           FRI 07/04/97 11:06 Page:161

   3914  1 000076                       CHECK_PASSE* null
     1258     3915    2              DEL_RANGE = RANGE;

   3915  1 000076   200004 473500                    LDP3    @RANGE,,AUTO
         1 000077   000100 100500                    MLR     fill='000'O
         1 000100   300000 000110                    ADSC9   0,,PR3                   cn=0,n=72
         1 000101   200006 000110                    ADSC9   DEL_RANGE,,AUTO          cn=0,n=72

     1259     3916    2              IF DEL_RANGE.START = %CLEAR

   3916  1 000102   000000 106500                    CMPC    fill='000'O
         1 000103   200006 000044                    ADSC9   DEL_RANGE,,AUTO          cn=0,n=36
         1 000104   000002 000002 xsym               ADSC9   B_VECTNIL+2              cn=0,n=2
         1 000105   000120 600000 1                  TZE     s:3920
         1 000106   000000 106500                    CMPC    fill='000'O
         1 000107   200017 000044                    ADSC9   DEL_RANGE+9,,AUTO        cn=0,n=36
         1 000110   000002 000002 xsym               ADSC9   B_VECTNIL+2              cn=0,n=2
         1 000111   000120 600000 1                  TZE     s:3920
         1 000112   200016 236100                    LDQ     DEL_RANGE+8,,AUTO
         1 000113   400000 316007                    CANQ    -131072,DL
         1 000114   000120 601000 1                  TNZ     s:3920
         1 000115   200027 236100                    LDQ     DEL_RANGE+17,,AUTO
         1 000116   400000 316007                    CANQ    -131072,DL
         1 000117   000204 600000 1                  TZE     s:3945

     1260     3917    2                OR DEL_RANGE.ENDD = %CLEAR
     1261     3918    2                OR DEL_RANGE.START.EOF
     1262     3919    3                OR DEL_RANGE.ENDD.EOF THEN DO;

     1263     3920    3                 IF DEL_RANGE.START = %CLEAR THEN

   3920  1 000120   000000 106500                    CMPC    fill='000'O
         1 000121   200006 000044                    ADSC9   DEL_RANGE,,AUTO          cn=0,n=36
         1 000122   000002 000002 xsym               ADSC9   B_VECTNIL+2              cn=0,n=2
         1 000123   000137 601000 1                  TNZ     s:3925

PL6.E3A0      #003=VDA$LDELETE File=VDA$LOWER.:VDA5TSI                           FRI 07/04/97 11:06 Page:162
     1264     3921    3                    IF NOT (DEL_RANGE.ENDD = %CLEAR

   3921  1 000124   000000 106500                    CMPC    fill='000'O
         1 000125   200017 000044                    ADSC9   DEL_RANGE+9,,AUTO        cn=0,n=36
         1 000126   000002 000002 xsym               ADSC9   B_VECTNIL+2              cn=0,n=2
         1 000127   000137 600000 1                  TZE     s:3925
         1 000130   200027 236100                    LDQ     DEL_RANGE+17,,AUTO
         1 000131   400000 316007                    CANQ    -131072,DL
         1 000132   000137 601000 1                  TNZ     s:3925
         1 000133   000000 106500                    CMPC    fill='000'O
         1 000134   200021 000010                    ADSC9   DEL_RANGE+11,,AUTO       cn=0,n=8
         1 000135   000002 000002 xsym               ADSC9   B_VECTNIL+2              cn=0,n=2
         1 000136   000664 601000 1                  TNZ     CANT_DEL_ACROSS_NODES_FAILURE

     1265     3922    3                      OR DEL_RANGE.ENDD.EOF
     1266     3923    3                      OR DEL_RANGE.ENDD.KEY (1) = %CLEAR) THEN
     1267     3924    3                       GOTO CANT_DEL_ACROSS_NODES_FAILURE;
     1268     3925    3                 IF DEL_RANGE.ENDD.EOF THEN

   3925  1 000137   200027 236100                    LDQ     DEL_RANGE+17,,AUTO
         1 000140   400000 316007                    CANQ    -131072,DL
         1 000141   000154 600000 1                  TZE     s:3930

     1269     3926    3                    IF NOT (DEL_RANGE.START = %CLEAR

   3926  1 000142   000000 106500                    CMPC    fill='000'O
         1 000143   200006 000044                    ADSC9   DEL_RANGE,,AUTO          cn=0,n=36
         1 000144   000002 000002 xsym               ADSC9   B_VECTNIL+2              cn=0,n=2
         1 000145   000154 600000 1                  TZE     s:3930
         1 000146   200016 236100                    LDQ     DEL_RANGE+8,,AUTO
         1 000147   400000 316007                    CANQ    -131072,DL
         1 000150   000154 601000 1                  TNZ     s:3930
         1 000151   200010 237100                    LDAQ    DEL_RANGE+2,,AUTO
         1 000152   000002 117000 2                  CMPAQ   2
         1 000153   000664 601000 1                  TNZ     CANT_DEL_ACROSS_NODES_FAILURE

     1270     3927    3                      OR DEL_RANGE.START.EOF
PL6.E3A0      #003=VDA$LDELETE File=VDA$LOWER.:VDA5TSI                           FRI 07/04/97 11:06 Page:163
     1271     3928    3                      OR DEL_RANGE.START.KEY (1) = %CLEAR) THEN
     1272     3929    3                       GOTO CANT_DEL_ACROSS_NODES_FAILURE;
     1273     3930    3                 IF DEL_RANGE.START.EOF

   3930  1 000154   200016 236100                    LDQ     DEL_RANGE+8,,AUTO
         1 000155   400000 316007                    CANQ    -131072,DL
         1 000156   000162 600000 1                  TZE     s:3933
         1 000157   200027 236100                    LDQ     DEL_RANGE+17,,AUTO
         1 000160   400000 316007                    CANQ    -131072,DL
         1 000161   000664 600000 1                  TZE     CANT_DEL_ACROSS_NODES_FAILURE

     1274     3931    3                   AND NOT DEL_RANGE.ENDD.EOF THEN
     1275     3932    3                    GOTO CANT_DEL_ACROSS_NODES_FAILURE;
     1276     3933    3                 IF DEL_RANGE.ENDD = %CLEAR THEN

   3933  1 000162   000000 106500                    CMPC    fill='000'O
         1 000163   200017 000044                    ADSC9   DEL_RANGE+9,,AUTO        cn=0,n=36
         1 000164   000002 000002 xsym               ADSC9   B_VECTNIL+2              cn=0,n=2
         1 000165   000201 601000 1                  TNZ     s:3939

     1277     3934    3                    IF NOT (DEL_RANGE.START = %CLEAR

   3934  1 000166   000000 106500                    CMPC    fill='000'O
         1 000167   200006 000044                    ADSC9   DEL_RANGE,,AUTO          cn=0,n=36
         1 000170   000002 000002 xsym               ADSC9   B_VECTNIL+2              cn=0,n=2
         1 000171   000201 600000 1                  TZE     s:3939
         1 000172   200010 237100                    LDAQ    DEL_RANGE+2,,AUTO
         1 000173   000002 117000 2                  CMPAQ   2
         1 000174   000664 601000 1                  TNZ     CANT_DEL_ACROSS_NODES_FAILURE
         1 000175   000000 106500                    CMPC    fill='000'O
         1 000176   200006 000010                    ADSC9   DEL_RANGE,,AUTO          cn=0,n=8
         1 000177   000000 000010 xsym               ADSC9   VD_KEY_NUMERIC_BOF       cn=0,n=8
         1 000200   000664 601000 1                  TNZ     CANT_DEL_ACROSS_NODES_FAILURE

     1278     3935    3                      OR (DEL_RANGE.START.KEY (1) = %CLEAR
     1279     3936    3                      AND (DEL_RANGE.START.KEY (0) = VD_KEY_NUMERIC_BOF
     1280     3937    3   /* OR DEL_RANGE.START.KEY (0) = VD_KEY_STRING_BOF */))) THEN
PL6.E3A0      #003=VDA$LDELETE File=VDA$LOWER.:VDA5TSI                           FRI 07/04/97 11:06 Page:164
     1281     3938    3                       GOTO CANT_DEL_ACROSS_NODES_FAILURE;
     1282     3939    3                 DEL_LEVEL = %LVL_LOWER;

   3939  1 000201   000001 235007                    LDA     1,DL
         1 000202   200030 755100                    STA     DEL_LEVEL,,AUTO

     1283     3940    3                 END;

   3940  1 000203   000300 710000 1                  TRA     s:3981

     1284     3941    3              ELSE DO;

     1285     3942                      /*
     1286     3943                      *   Verify that kids of only one parent are being deleted.
     1287     3944                      */
     1288     3945    3                 DEL_LEVEL = STRUCTURE$NODE.COUNT# - 1;    /* Assumption */

   3945  1 000204   200005 471500                    LDP1    STRUCTURE_NODE$,,AUTO
         1 000205   100014 235100                    LDA     12,,PR1
         1 000206   000001 135007                    SBLA    1,DL
         1 000207   200030 755100                    STA     DEL_LEVEL,,AUTO

     1289     3946    3   CHECK_ONE_PARENT:
     1290     3947    4                 DO INDX = %LVL_LOWER TO STRUCTURE$NODE.COUNT# - 2;

   3947  1 000210   000001 235007       CHECK_ONE_P* LDA     1,DL
         1 000211   200032 755100                    STA     INDX,,AUTO
         1 000212   000273 710000 1                  TRA     s:3977+1

     1291     3948    5                    IF DEL_RANGE.START.KEY (INDX /* -1 +1 */) = %CLEAR THEN DO;

   3948  1 000213   200032 235100                    LDA     INDX,,AUTO
         1 000214   000001 735000                    ALS     1
         1 000215   200006 237105                    LDAQ    DEL_RANGE,AL,AUTO
         1 000216   000002 117000 2                  CMPAQ   2
         1 000217   000223 601000 1                  TNZ     s:3960

PL6.E3A0      #003=VDA$LDELETE File=VDA$LOWER.:VDA5TSI                           FRI 07/04/97 11:06 Page:165
     1292     3949    5                       DEL_LEVEL = INDX;

   3949  1 000220   200032 235100                    LDA     INDX,,AUTO
         1 000221   200030 755100                    STA     DEL_LEVEL,,AUTO

     1293     3950    5                       EXIT CHECK_ONE_PARENT;

   3950  1 000222   000300 710000 1                  TRA     s:3981

     1294     3951    5                       END;
     1295     3952                         %GETKEY (KEY=DEL_RANGE.START.KEY, INDX=INDX-1,
     1296     3953                         PTR=DEL_START_KEY$);

   3960  1 000223   200032 235100                    LDA     INDX,,AUTO
         1 000224   000001 735000                    ALS     1
         1 000225   200004 720105                    LXL0    @RANGE,AL,AUTO
         1 000226   000002 100003                    CMPX0   2,DU
         1 000227   000234 601000 1                  TNZ     s:3960+9

   3960  1 000230   200005 470505                    LDP0    STRUCTURE_NODE$,AL,AUTO
         1 000231   000002 631500                    EPPR1   2,,PR0
         1 000232   200034 451500                    STP1    DEL_START_KEY$,,AUTO
         1 000233   000236 710000 1                  TRA     s:3971

   3960  1 000234   200005 630505                    EPPR0   STRUCTURE_NODE$,AL,AUTO
         1 000235   200034 450500                    STP0    DEL_START_KEY$,,AUTO

     1297     3963                         %GETKEY (KEY=DEL_RANGE.ENDD.KEY, INDX=INDX-1,
     1298     3964                         PTR=DEL_END_KEY$);

   3971  1 000236   200015 721105                    LXL1    DEL_RANGE+7,AL,AUTO
         1 000237   000002 101003                    CMPX1   2,DU
         1 000240   000245 601000 1                  TNZ     s:3971+7

   3971  1 000241   200016 470505                    LDP0    DEL_RANGE+8,AL,AUTO
         1 000242   000002 631500                    EPPR1   2,,PR0
         1 000243   200035 451500                    STP1    DEL_END_KEY$,,AUTO
PL6.E3A0      #003=VDA$LDELETE File=VDA$LOWER.:VDA5TSI                           FRI 07/04/97 11:06 Page:166
         1 000244   000247 710000 1                  TRA     s:3974

   3971  1 000245   200016 630505                    EPPR0   DEL_RANGE+8,AL,AUTO
         1 000246   200035 450500                    STP0    DEL_END_KEY$,,AUTO

     1299     3974    4                    IF DEL_RANGE.ENDD.KEY (INDX - 1) = %CLEAR

   3974  1 000247   200032 236100                    LDQ     INDX,,AUTO
         1 000250   000003 736000                    QLS     3
         1 000251   000000 106506                    CMPC    fill='000'O
         1 000252   200015 000010                    ADSC9   DEL_RANGE+7,Q,AUTO       cn=0,n=8
         1 000253   000002 000002 xsym               ADSC9   B_VECTNIL+2              cn=0,n=2
         1 000254   000664 600000 1                  TZE     CANT_DEL_ACROSS_NODES_FAILURE
         1 000255   200034 470500                    LDP0    DEL_START_KEY$,,AUTO
         1 000256   000000 236100                    LDQ     0,,PR0
         1 000257   000033 772000                    QRL     27
         1 000260   200035 471500                    LDP1    DEL_END_KEY$,,AUTO
         1 000261   000100 101500                    MRL     fill='000'O
         1 000262   100000 000001                    ADSC9   0,,PR1                   cn=0,n=1
         1 000263   200100 000002                    ADSC9   RECORDS_DELETED$+1,,AUTO cn=0,n=2
         1 000264   200100 220100                    LDX0    RECORDS_DELETED$+1,,AUTO
         1 000265   000000 621006                    EAX1    0,QL
         1 000266   040140 106540                    CMPC    fill='040'O
         1 000267   000000 200011                    ADSC9   0,,PR0                   cn=1,n=*X1
         1 000270   100000 200010                    ADSC9   0,,PR1                   cn=1,n=*X0
         1 000271   000664 601000 1                  TNZ     CANT_DEL_ACROSS_NODES_FAILURE

     1300     3975    4                      OR DEL$START_KEY.BYTES ~= DEL$END_KEY.BYTES THEN
     1301     3976    4                       GOTO CANT_DEL_ACROSS_NODES_FAILURE;
     1302     3977    4                    END CHECK_ONE_PARENT;

   3977  1 000272   200032 054100                    AOS     INDX,,AUTO
         1 000273   200005 470500                    LDP0    STRUCTURE_NODE$,,AUTO
         1 000274   000014 236100                    LDQ     12,,PR0
         1 000275   000002 136007                    SBLQ    2,DL
         1 000276   200032 116100                    CMPQ    INDX,,AUTO
         1 000277   000213 605000 1                  TPL     s:3948
PL6.E3A0      #003=VDA$LDELETE File=VDA$LOWER.:VDA5TSI                           FRI 07/04/97 11:06 Page:167

     1303     3978    3                 END;

     1304     3979    2              END CHECK_PASSED_RANGE;

     1305     3980
     1306     3981    1           IF PORT.LEVEL.ORG# (DEL_LEVEL) = %ORG_CONSEC

   3981  1 000300   200003 470500                    LDP0    @STREAM,,AUTO
         1 000301   000001 471500                    LDP1    1,,PR0
         1 000302   200030 236100                    LDQ     DEL_LEVEL,,AUTO
         1 000303   000007 402007                    MPY     7,DL
         1 000304   100023 220106                    LDX0    19,QL,PR1
         1 000305   000001 100003                    CMPX0   1,DU
         1 000306   000311 601000 1                  TNZ     s:3984
         1 000307   100004 721100                    LXL1    4,,PR1
         1 000310   000643 601000 1                  TNZ     CANT_INSERT_DELETE_REC_FAILURE

     1307     3982    1             AND PORT.DCB# ~= 0 THEN
     1308     3983    1              GOTO CANT_INSERT_DELETE_REC_FAILURE;
     1309     3984    1           IF STREAM.PROTECT (DEL_LEVEL) ~= %CLEAR THEN

   3984  1 000311   200030 235100                    LDA     DEL_LEVEL,,AUTO
         1 000312   000002 735000                    ALS     2
         1 000313   000315 605000 1                  TPL     s:3984+4
         1 000314   000044 035003                    ADLA    36,DU
         1 000315   000000 066505                    CMPB    filb='0'B
         1 000316   000002 400004                    BDSC    2,A,PR0                  by=2,bit=0,n=4
         1 000317   000002 000022 xsym               BDSC    B_VECTNIL+2              by=0,bit=0,n=18
         1 000320   000705 601000 1                  TNZ     CANT_DELETE_FAILURE

     1310     3985    1              GOTO CANT_DELETE_FAILURE;
     1311     3986
     1312     3987    1           HISTORY_ENABLED = %FALSE;

   3987  1 000321   200037 450100                    STZ     HISTORY_ENABLED,,AUTO

PL6.E3A0      #003=VDA$LDELETE File=VDA$LOWER.:VDA5TSI                           FRI 07/04/97 11:06 Page:168
     1313     3988    1           IF ADDR(STREAM) ~= VD_6E.HISTORY$

   3988  1 000322   200003 236100                    LDQ     @STREAM,,AUTO
         1 000323   000000 116000 xsym               CMPQ    VD_6E
         1 000324   000341 600000 1                  TZE     s:3994
         1 000325   000000 236000 xsym               LDQ     VD_6E
         1 000326   000001 116000 xsym               CMPQ    B_VECTNIL+1
         1 000327   000341 600000 1                  TZE     s:3994

     1314     3989    1             AND VD_6E.HISTORY$ ~= ADDR(NIL) THEN
     1315     3990    1              IF HISTORY$STREAM.PORT$ ~= ADDR(NIL) THEN

   3990  1 000330   000000 473400 xsym               LDP3    VD_6E
         1 000331   300001 236100                    LDQ     1,,PR3
         1 000332   000001 116000 xsym               CMPQ    B_VECTNIL+1
         1 000333   000341 600000 1                  TZE     s:3994

     1316     3991    1                 IF HISTORY$STREAM.PORT$ -> PORT.EXIST# ~= 0 THEN

   3991  1 000334   300001 474500                    LDP4    1,,PR3
         1 000335   400003 720100                    LXL0    3,,PR4
         1 000336   000341 600000 1                  TZE     s:3994

     1317     3992    1                    HISTORY_ENABLED = %TRUE;

   3992  1 000337   400000 236003                    LDQ     -131072,DU
         1 000340   200037 756100                    STQ     HISTORY_ENABLED,,AUTO

     1318     3993
     1319     3994    1           IF HISTORY_ENABLED THEN

   3994  1 000341   200037 234100                    SZN     HISTORY_ENABLED,,AUTO
         1 000342   000344 605000 1                  TPL     NO_HISTORY

     1320     3995    2   WRITE_HISTORY: DO;

   3995  1 000343                       WRITE_HISTO* null
PL6.E3A0      #003=VDA$LDELETE File=VDA$LOWER.:VDA5TSI                           FRI 07/04/97 11:06 Page:169
     1321     3996                   /*N*
     1322     3997                   *N*  Walk the deleted nodes with VDA$PREADs,
     1323     3998                   *N*      calling VDA$LSAVE_OLD_NODE on each.
     1324     3999                   *N*/
     1325     4000    2              ;
     1326     4001    2              END WRITE_HISTORY;

   4001  1 000343   000402 710000 1                  TRA     s:4021

     1327     4002    1           ELSE
     1328     4003    2   NO_HISTORY: DO;

   4003  1 000344                       NO_HISTORY   null
     1329     4004    2              FLUSH_PORT = %FALSE;

   4004  1 000344   200036 450100                    STZ     FLUSH_PORT,,AUTO

     1330     4005    2   CHECK_FOR_FLUSH:
     1331     4006    3              DO LEVEL = %LVL_LOWER TO STRUCTURE$NODE.COUNT# - 1;

   4006  1 000345   000001 235007       CHECK_FOR_F* LDA     1,DL
         1 000346   200033 755100                    STA     LEVEL,,AUTO
         1 000347   000365 710000 1                  TRA     s:4012+1

     1332     4007    3                 IF PORT.LEVEL.SPEC_MODIFIED (LEVEL)

   4007  1 000350   200003 470500                    LDP0    @STREAM,,AUTO
         1 000351   000001 471500                    LDP1    1,,PR0
         1 000352   200033 236100                    LDQ     LEVEL,,AUTO
         1 000353   000007 402007                    MPY     7,DL
         1 000354   100030 234106                    SZN     24,QL,PR1
         1 000355   000361 604000 1                  TMI     s:4009
         1 000356   100030 236106                    LDQ     24,QL,PR1
         1 000357   200000 316003                    CANQ    65536,DU
         1 000360   000364 600000 1                  TZE     s:4012

     1333     4008    4                   OR PORT.LEVEL.DATA_MODIFIED (LEVEL) THEN DO;
PL6.E3A0      #003=VDA$LDELETE File=VDA$LOWER.:VDA5TSI                           FRI 07/04/97 11:06 Page:170

     1334     4009    4                    FLUSH_PORT = %TRUE;

   4009  1 000361   400000 236003                    LDQ     -131072,DU
         1 000362   200036 756100                    STQ     FLUSH_PORT,,AUTO

     1335     4010    4                    EXIT CHECK_FOR_FLUSH;

   4010  1 000363   000371 710000 1                  TRA     s:4014

     1336     4011    4                    END;
     1337     4012    3                 END CHECK_FOR_FLUSH;

   4012  1 000364   200033 054100                    AOS     LEVEL,,AUTO
         1 000365   200005 473500                    LDP3    STRUCTURE_NODE$,,AUTO
         1 000366   200033 236100                    LDQ     LEVEL,,AUTO
         1 000367   300014 116100                    CMPQ    12,,PR3
         1 000370   000350 604000 1                  TMI     s:4007

     1338     4013
     1339     4014    3              IF FLUSH_PORT THEN DO;

   4014  1 000371   200036 234100                    SZN     FLUSH_PORT,,AUTO
         1 000372   000402 605000 1                  TPL     s:4021

     1340     4015    3                 CALL VDA$PFLUSH (PORT, %TO_PRESENTER)

   4015  1 000373   000004 236000 2                  LDQ     4
         1 000374   200101 756100                    STQ     RECORDS_DELETED$+2,,AUTO
         1 000375   200100 451500                    STP1    RECORDS_DELETED$+1,,AUTO
         1 000376   200100 630500                    EPPR0   RECORDS_DELETED$+1,,AUTO
         1 000377   000020 631400 xsym               EPPR1   B_VECTNIL+16
         1 000400   000000 701000 xent               TSX1    VDA$PFLUSH
         1 000401   000776 702000 1                  TSX2    PFLUSH_FAILED

     1341     4016    3                   ALTRET (PFLUSH_FAILED);
     1342     4017    3                 END;
PL6.E3A0      #003=VDA$LDELETE File=VDA$LOWER.:VDA5TSI                           FRI 07/04/97 11:06 Page:171

     1343     4018    2              END NO_HISTORY;

     1344     4019
     1345     4020
     1346     4021    1           IF PORT.LEVEL.SPEC_TYPE# (DEL_LEVEL) ~= 0

   4021  1 000402   200003 470500                    LDP0    @STREAM,,AUTO
         1 000403   000001 471500                    LDP1    1,,PR0
         1 000404   200030 236100                    LDQ     DEL_LEVEL,,AUTO
         1 000405   000007 402007                    MPY     7,DL
         1 000406   100024 220106                    LDX0    20,QL,PR1
         1 000407   000617 600000 1                  TZE     s:4100
         1 000410   000001 100003                    CMPX0   1,DU
         1 000411   000617 600000 1                  TZE     s:4100

     1347     4022    1             AND PORT.LEVEL.SPEC_TYPE# (DEL_LEVEL) ~= %SPT_EXT_RECORD THEN
     1348     4023    2   PREDEFINED_FILE: DO;

   4023  1 000412                       PREDEFINED_* null
     1349     4024    2              DEL_LEVEL_COUNT = 0;

   4024  1 000412   200031 450100                    STZ     DEL_LEVEL_COUNT,,AUTO

     1350     4025    2              LOCATION_PTRS = %CLEAR;

   4025  1 000413   000100 100400                    MLR     fill='000'O
         1 000414   000002 000001 xsym               ADSC9   B_VECTNIL+2              cn=0,n=1
         1 000415   200040 000024                    ADSC9   LOCATION_PTRS,,AUTO      cn=0,n=20

     1351     4026
     1352     4027    2   WHILE_WITHIN_RANGE:
     1353     4028    3              DO WHILE %TRUE;

   4028  1 000416                       WHILE_WITHI* null
     1354     4029                      /*
     1355     4030                      * On each pass thru the loop, we PREAD using the
PL6.E3A0      #003=VDA$LDELETE File=VDA$LOWER.:VDA5TSI                           FRI 07/04/97 11:06 Page:172
     1356     4031                      *     start location.  We can get away with this
     1357     4032                      *     'cause we delete the node we find each time,
     1358     4033                      *     so the next PREAD, when searching for the first
     1359     4034                      *     node after the start location, will always find
     1360     4035                      *     the next node.
     1361     4036                      */
     1362     4037    3                 CALL VDA$PREAD (PORT, DEL_RANGE.START, 0, %TRUE)

   4037  1 000416   200003 470500                    LDP0    @STREAM,,AUTO
         1 000417   000001 471500                    LDP1    1,,PR0
         1 000420   000006 237000 2                  LDAQ    6
         1 000421   200102 757100                    STAQ    RECORDS_DELETED$+3,,AUTO
         1 000422   200006 633500                    EPPR3   DEL_RANGE,,AUTO
         1 000423   200101 453500                    STP3    RECORDS_DELETED$+2,,AUTO
         1 000424   200100 451500                    STP1    RECORDS_DELETED$+1,,AUTO
         1 000425   200100 630500                    EPPR0   RECORDS_DELETED$+1,,AUTO
         1 000426   000022 631400 xsym               EPPR1   B_VECTNIL+18
         1 000427   000000 701000 xent               TSX1    VDA$PREAD
         1 000430   000776 702000 1                  TSX2    PFLUSH_FAILED

     1363     4038    3                   ALTRET (PREAD_FAILED);
     1364     4039    3                 IF PORT.CURRENT.EOF THEN

   4039  1 000431   200003 470500                    LDP0    @STREAM,,AUTO
         1 000432   000001 471500                    LDP1    1,,PR0
         1 000433   100022 236100                    LDQ     18,,PR1
         1 000434   400000 316007                    CANQ    -131072,DL
         1 000435   000616 601000 1                  TNZ     s:4098

     1365     4040    3                    EXIT WHILE_WITHIN_RANGE;   /* Not within range */
     1366     4041    4                 DO INDX = %(LVL_LOWER-1) TO (DEL_LEVEL - 1);

   4041  1 000436   200032 450100                    STZ     INDX,,AUTO
         1 000437   000460 710000 1                  TRA     s:4053+1

     1367     4042                         %GETKEY (KEY=PORT.CURRENT.KEY, INDX=INDX,
     1368     4043                         PTR="LOCATION_PTRS.KEY$ (INDX)");
PL6.E3A0      #003=VDA$LDELETE File=VDA$LOWER.:VDA5TSI                           FRI 07/04/97 11:06 Page:173

   4050  1 000440   200003 470500                    LDP0    @STREAM,,AUTO
         1 000441   000001 471500                    LDP1    1,,PR0
         1 000442   200032 235100                    LDA     INDX,,AUTO
         1 000443   000001 735000                    ALS     1
         1 000444   100012 720105                    LXL0    10,AL,PR1
         1 000445   000002 100003                    CMPX0   2,DU
         1 000446   000454 601000 1                  TNZ     s:4050+12

   4050  1 000447   100013 473505                    LDP3    11,AL,PR1
         1 000450   300002 634500                    EPPR4   2,,PR3
         1 000451   200032 721100                    LXL1    INDX,,AUTO
         1 000452   200041 454511                    STP4    LOCATION_PTRS+1,X1,AUTO
         1 000453   000457 710000 1                  TRA     s:4053

   4050  1 000454   100013 633505                    EPPR3   11,AL,PR1
         1 000455   200032 721100                    LXL1    INDX,,AUTO
         1 000456   200041 453511                    STP3    LOCATION_PTRS+1,X1,AUTO

     1369     4053    4                    END;

   4053  1 000457   200032 054100                    AOS     INDX,,AUTO
         1 000460   200032 236100                    LDQ     INDX,,AUTO
         1 000461   200030 116100                    CMPQ    DEL_LEVEL,,AUTO
         1 000462   000440 604000 1                  TMI     s:4050

     1370     4054    3                 LOCATION_PTRS.COUNT# = DEL_LEVEL;

   4054  1 000463   200030 236100                    LDQ     DEL_LEVEL,,AUTO
         1 000464   200040 552104                    STBQ    LOCATION_PTRS,'04'O,AUTO

     1371     4055                      /* VDG$COMPARE_PTRS_W_RANGE ignores EOF, so test it here */
     1372     4056    3                 IF DEL_RANGE.START.EOF THEN

   4056  1 000465   200016 236100                    LDQ     DEL_RANGE+8,,AUTO
         1 000466   400000 316007                    CANQ    -131072,DL
         1 000467   000616 601000 1                  TNZ     s:4098
PL6.E3A0      #003=VDA$LDELETE File=VDA$LOWER.:VDA5TSI                           FRI 07/04/97 11:06 Page:174

     1373     4057    3                    EXIT WHILE_WITHIN_RANGE;   /* Not within range */
     1374     4058    3                 IF NOT DEL_RANGE.ENDD.EOF /* E verything's before EOF */

   4058  1 000470   200027 236100                    LDQ     DEL_RANGE+17,,AUTO
         1 000471   400000 316007                    CANQ    -131072,DL
         1 000472   000503 601000 1                  TNZ     s:4064

     1375     4059    4                 THEN DO;

     1376     4060    4                    CALL VDG$COMPARE_PTRS_W_RANGE (LOCATION_PTRS, DEL_RANGE)

   4060  1 000473   200006 631500                    EPPR1   DEL_RANGE,,AUTO
         1 000474   200101 451500                    STP1    RECORDS_DELETED$+2,,AUTO
         1 000475   200040 633500                    EPPR3   LOCATION_PTRS,,AUTO
         1 000476   200100 453500                    STP3    RECORDS_DELETED$+1,,AUTO
         1 000477   200100 630500                    EPPR0   RECORDS_DELETED$+1,,AUTO
         1 000500   000020 631400 xsym               EPPR1   B_VECTNIL+16
         1 000501   000000 701000 xent               TSX1    VDG$COMPARE_PTRS_W_RANGE
         1 000502   000632 702000 1                  TSX2    NOT_WITHIN_RANGE

     1377     4061    4                      ALTRET (NOT_WITHIN_RANGE);
     1378     4062    4                    END;

     1379     4063
     1380     4064    4                 IF PORT.DCB# = 0 THEN DO;

   4064  1 000503   200003 470500                    LDP0    @STREAM,,AUTO
         1 000504   000001 471500                    LDP1    1,,PR0
         1 000505   100004 720100                    LXL0    4,,PR1
         1 000506   000520 601000 1                  TNZ     s:4070

     1381     4065    4                    IF NOT (PORT.LEVEL.INTERNAL$ (DEL_LEVEL) ->

   4065  1 000507   200030 236100                    LDQ     DEL_LEVEL,,AUTO
         1 000510   000007 402007                    MPY     7,DL
         1 000511   100031 473506                    LDP3    25,QL,PR1
PL6.E3A0      #003=VDA$LDELETE File=VDA$LOWER.:VDA5TSI                           FRI 07/04/97 11:06 Page:175
         1 000512   300003 236100                    LDQ     3,,PR3
         1 000513   040000 316003                    CANQ    16384,DU
         1 000514   000520 601000 1                  TNZ     s:4070
         1 000515   000000 236000 xsym               LDQ     VD_ACCESSOR_PRIV
         1 000516   040000 316003                    CANQ    16384,DU
         1 000517   000733 600000 1                  TZE     CANT_DELETE_NODE_FAILURE

     1382     4066    4                      VD$FILE_NODE.ACCESS (%NAC_DELETE)
     1383     4067    4                      OR VD_ACCESSOR_PRIV.ACCESS (%NAC_DELETE)) THEN
     1384     4068    4                       GOTO CANT_DELETE_NODE_FAILURE;
     1385     4069    4                    END;

     1386     4070    3                 IF PORT.LEVEL.SPEC_TYPE# (DEL_LEVEL) >= %MX_SPEC_TYPES THEN

   4070  1 000520   200030 236100                    LDQ     DEL_LEVEL,,AUTO
         1 000521   000007 402007                    MPY     7,DL
         1 000522   100024 221106                    LDX1    20,QL,PR1
         1 000523   000024 101003                    CMPX1   20,DU
         1 000524   000533 602000 1                  TNC     s:4072

     1387     4071    3                    CALL VDG$ESCREECH (PORT.LEVEL.SPEC_TYPE# (DEL_LEVEL));

   4071  1 000525   100024 633506                    EPPR3   20,QL,PR1
         1 000526   200100 453500                    STP3    RECORDS_DELETED$+1,,AUTO
         1 000527   200100 630500                    EPPR0   RECORDS_DELETED$+1,,AUTO
         1 000530   000017 631400 xsym               EPPR1   B_VECTNIL+15
         1 000531   000000 701000 xent               TSX1    VDG$ESCREECH
         1 000532   000000 011000                    NOP     0

     1388     4072    3                 NODE_WRITER$$ =

   4072  1 000533   200003 470500                    LDP0    @STREAM,,AUTO
         1 000534   000001 471500                    LDP1    1,,PR0
         1 000535   200030 236100                    LDQ     DEL_LEVEL,,AUTO
         1 000536   000007 402007                    MPY     7,DL
         1 000537   100024 220106                    LDX0    20,QL,PR1
         1 000540   000000 236010 xsym               LDQ     VD_NODE_WRITERS$$,X0
PL6.E3A0      #003=VDA$LDELETE File=VDA$LOWER.:VDA5TSI                           FRI 07/04/97 11:06 Page:176
         1 000541   200045 756100                    STQ     NODE_WRITER$$,,AUTO

     1389     4073    3                   VD_NODE_WRITERS$$ (PORT.LEVEL.SPEC_TYPE# (DEL_LEVEL));
     1390     4074    4                 IF NODE_WRITER$$ ~= ENTADDR(NIL) THEN DO;

   4074  1 000542   000002 116000 xsym               CMPQ    B_VECTNIL+2
         1 000543   000564 600000 1                  TZE     s:4087

     1391     4075                            /*
     1392     4076                            *  Pass 0-length Spec and Data args to node writer;
     1393     4077                            *      deleting the contents of these components
     1394     4078                            *      will delete the node when appropriate.
     1395     4079                            */
     1396     4080    4                    CALL NODE_WRITER$$ (PORT, ZERO_SPEC, ZERO_BUFFER,

   4080  1 000544   000010 237000 2                  LDAQ    8
         1 000545   200102 757100                    STAQ    RECORDS_DELETED$+3,,AUTO
         1 000546   000012 236000 2                  LDQ     10
         1 000547   200101 756100                    STQ     RECORDS_DELETED$+2,,AUTO
         1 000550   200100 451500                    STP1    RECORDS_DELETED$+1,,AUTO
         1 000551   200100 630500                    EPPR0   RECORDS_DELETED$+1,,AUTO
         1 000552   200045 220100                    LDX0    NODE_WRITER$$,,AUTO
         1 000553   000022 631400 xsym               EPPR1   B_VECTNIL+18
         1 000554   000000 701010                    TSX1    0,X0
         1 000555   000773 702000 1                  TSX2    NODE_WRITER_FAILED

     1397     4081    4                      %TRUE)     /* %TRUE = node exists */
     1398     4082    4                      ALTRET (NODE_WRITER_FAILED);
     1399     4083    4                    PORT.LAST_OP# = %ACCOP_DELETE;

   4083  1 000556   200003 470500                    LDP0    @STREAM,,AUTO
         1 000557   000001 471500                    LDP1    1,,PR0
         1 000560   000006 220003                    LDX0    6,DU
         1 000561   100007 740100                    STX0    7,,PR1

     1400     4084    4                    DEL_LEVEL_COUNT = DEL_LEVEL_COUNT + 1;

PL6.E3A0      #003=VDA$LDELETE File=VDA$LOWER.:VDA5TSI                           FRI 07/04/97 11:06 Page:177
   4084  1 000562   200031 054100                    AOS     DEL_LEVEL_COUNT,,AUTO

     1401     4085    4                    END;

   4085  1 000563   000416 710000 1                  TRA     WHILE_WITHIN_RANGE

     1402     4086    4                 ELSE DO;

     1403     4087    4                    PREDEF_RANGE.START = PORT.CURRENT;

   4087  1 000564   000100 100500                    MLR     fill='000'O
         1 000565   100012 000044                    ADSC9   10,,PR1                  cn=0,n=36
         1 000566   200047 000044                    ADSC9   PREDEF_RANGE,,AUTO       cn=0,n=36

     1404     4088    4                    PREDEF_RANGE.ENDD = PORT.CURRENT;

   4088  1 000567   000001 471500                    LDP1    1,,PR0
         1 000570   000100 100500                    MLR     fill='000'O
         1 000571   100012 000044                    ADSC9   10,,PR1                  cn=0,n=36
         1 000572   200060 000044                    ADSC9   PREDEF_RANGE+9,,AUTO     cn=0,n=36

     1405     4089    4                    CALL VDA$PDELETE (PORT, PREDEF_RANGE, DEL_LEVEL,

   4089  1 000573   000001 471500                    LDP1    1,,PR0
         1 000574   200046 633500                    EPPR3   PREDEF_COUNT,,AUTO
         1 000575   200103 453500                    STP3    RECORDS_DELETED$+4,,AUTO
         1 000576   200030 634500                    EPPR4   DEL_LEVEL,,AUTO
         1 000577   200102 454500                    STP4    RECORDS_DELETED$+3,,AUTO
         1 000600   200047 635500                    EPPR5   PREDEF_RANGE,,AUTO
         1 000601   200101 455500                    STP5    RECORDS_DELETED$+2,,AUTO
         1 000602   200100 451500                    STP1    RECORDS_DELETED$+1,,AUTO
         1 000603   200100 630500                    EPPR0   RECORDS_DELETED$+1,,AUTO
         1 000604   000022 631400 xsym               EPPR1   B_VECTNIL+18
         1 000605   000000 701000 xent               TSX1    VDA$PDELETE
         1 000606   000610 702000 1                  TSX2    s:4092
         1 000607   000612 710000 1                  TRA     s:4095

PL6.E3A0      #003=VDA$LDELETE File=VDA$LOWER.:VDA5TSI                           FRI 07/04/97 11:06 Page:178
     1406     4090    4                      PREDEF_COUNT)
     1407     4091    5                    WHENALTRETURN DO;

     1408     4092    5                       CALL CLEAN_UP_AFTER_DELETE

   4092  1 000610   000777 701000 1                  TSX1    CLEAN_UP_AFTER_DELETE
         1 000611   000776 702000 1                  TSX2    PFLUSH_FAILED

     1409     4093    5                         ALTRET (CLEAN_UP_AFTER_DELETE_FAILED);
     1410     4094    5                       END;

     1411     4095    4                    DEL_LEVEL_COUNT = DEL_LEVEL_COUNT + PREDEF_COUNT;

   4095  1 000612   200031 236100                    LDQ     DEL_LEVEL_COUNT,,AUTO
         1 000613   200046 036100                    ADLQ    PREDEF_COUNT,,AUTO
         1 000614   200031 756100                    STQ     DEL_LEVEL_COUNT,,AUTO

     1412     4096    4                    END;

     1413     4097    3                 END WHILE_WITHIN_RANGE;

   4097  1 000615   000416 710000 1                  TRA     WHILE_WITHIN_RANGE

     1414     4098    2              END PREDEFINED_FILE;

   4098  1 000616   000632 710000 1                  TRA     NOT_WITHIN_RANGE

     1415     4099    2           ELSE DO;

     1416     4100    2              CALL VDA$PDELETE (PORT, DEL_RANGE, DEL_LEVEL, DEL_LEVEL_COUNT);

   4100  1 000617   200031 633500                    EPPR3   DEL_LEVEL_COUNT,,AUTO
         1 000620   200103 453500                    STP3    RECORDS_DELETED$+4,,AUTO
         1 000621   200030 634500                    EPPR4   DEL_LEVEL,,AUTO
         1 000622   200102 454500                    STP4    RECORDS_DELETED$+3,,AUTO
         1 000623   200006 635500                    EPPR5   DEL_RANGE,,AUTO
         1 000624   200101 455500                    STP5    RECORDS_DELETED$+2,,AUTO
PL6.E3A0      #003=VDA$LDELETE File=VDA$LOWER.:VDA5TSI                           FRI 07/04/97 11:06 Page:179
         1 000625   200100 451500                    STP1    RECORDS_DELETED$+1,,AUTO
         1 000626   200100 630500                    EPPR0   RECORDS_DELETED$+1,,AUTO
         1 000627   000022 631400 xsym               EPPR1   B_VECTNIL+18
         1 000630   000000 701000 xent               TSX1    VDA$PDELETE
         1 000631   000000 011000                    NOP     0

     1417     4101    2              END;

   4098  1 000632                       NOT_WITHIN_* null
     1418     4102    1   NOT_WITHIN_RANGE:;
     1419     4103
     1420     4104    1           CALL CLEAN_UP_AFTER_DELETE

   4104  1 000632   000777 701000 1                  TSX1    CLEAN_UP_AFTER_DELETE
         1 000633   000776 702000 1                  TSX2    PFLUSH_FAILED

     1421     4105    1             ALTRET (CLEAN_UP_AFTER_DELETE_FAILED);
     1422     4106
     1423     4107
     1424     4108    1           IF VD_$$MON_ACC.V# > 0 THEN

   4108  1 000634   000003 235000 xsym               LDA     VD_$$MON_ACC+3
         1 000635   000642 604400 1                  TMOZ    s:4110

     1425     4109    1              CALL VDG$MACC_RETURN (STREAM);

   4109  1 000636   200003 630500                    EPPR0   @STREAM,,AUTO
         1 000637   000017 631400 xsym               EPPR1   B_VECTNIL+15
         1 000640   000000 701000 xent               TSX1    VDG$MACC_RETURN
         1 000641   000000 011000                    NOP     0

     1426     4110    1           RETURN;

   4110  1 000642   000000 702200 xent               TSX2  ! X66_ARET

     1427     4111
     1428     4112
PL6.E3A0      #003=VDA$LDELETE File=VDA$LOWER.:VDA5TSI                           FRI 07/04/97 11:06 Page:180
     1429     4113
     1430     4114    1   CANT_INSERT_DELETE_REC_FAILURE:
     1431     4115    1           CALL VDG$OALLOC (%CLS_ERR, VD_ERR$)

   4115  1 000643   200071 633500       CANT_INSERT* EPPR3   VD_ERR$,,AUTO
         1 000644   200101 453500                    STP3    RECORDS_DELETED$+2,,AUTO
         1 000645   000013 236000 2                  LDQ     11
         1 000646   200100 756100                    STQ     RECORDS_DELETED$+1,,AUTO
         1 000647   200100 630500                    EPPR0   RECORDS_DELETED$+1,,AUTO
         1 000650   000020 631400 xsym               EPPR1   B_VECTNIL+16
         1 000651   000000 701000 xent               TSX1    VDG$OALLOC
         1 000652   000776 702000 1                  TSX2    PFLUSH_FAILED

     1432     4116    1             ALTRET (OALLOC_FAILED);
     1433     4117    1           VD$ERR.ERR.CODE# = %E$CANT_INSERT_DELETE_RECORDS;

   4117  1 000653   200071 470500                    LDP0    VD_ERR$,,AUTO
         1 000654   000002 236100                    LDQ     2,,PR0
         1 000655   000014 376000 2                  ANQ     12
         1 000656   004120 276007                    ORQ     2128,DL
         1 000657   000002 756100                    STQ     2,,PR0

     1434     4118    1           VD$ERR.FLAGLEV# = %FLV_SERIOUS;

   4118  1 000660   000003 220003                    LDX0    3,DU
         1 000661   200071 470500                    LDP0    VD_ERR$,,AUTO
         1 000662   000003 740100                    STX0    3,,PR0

     1435     4119    1           ALTRETURN;

   4119  1 000663   000000 702200 xent               TSX2  ! X66_AALT

     1436     4120
     1437     4121
     1438     4122    1   CANT_DEL_ACROSS_NODES_FAILURE:
     1439     4123    1           CALL VDG$OALLOC (%CLS_ERR, VD_ERR$)

PL6.E3A0      #003=VDA$LDELETE File=VDA$LOWER.:VDA5TSI                           FRI 07/04/97 11:06 Page:181
   4123  1 000664   200071 630500       CANT_DEL_AC* EPPR0   VD_ERR$,,AUTO
         1 000665   200101 450500                    STP0    RECORDS_DELETED$+2,,AUTO
         1 000666   000013 236000 2                  LDQ     11
         1 000667   200100 756100                    STQ     RECORDS_DELETED$+1,,AUTO
         1 000670   200100 630500                    EPPR0   RECORDS_DELETED$+1,,AUTO
         1 000671   000020 631400 xsym               EPPR1   B_VECTNIL+16
         1 000672   000000 701000 xent               TSX1    VDG$OALLOC
         1 000673   000776 702000 1                  TSX2    PFLUSH_FAILED

     1440     4124    1             ALTRET (OALLOC_FAILED);
     1441     4125    1           VD$ERR.ERR.CODE# = %E$CANT_DELETE_ACROSS_NODES;

   4125  1 000674   200071 470500                    LDP0    VD_ERR$,,AUTO
         1 000675   000002 236100                    LDQ     2,,PR0
         1 000676   000014 376000 2                  ANQ     12
         1 000677   003760 276007                    ORQ     2032,DL
         1 000700   000002 756100                    STQ     2,,PR0

     1442     4126    1           VD$ERR.FLAGLEV# = %FLV_SERIOUS;

   4126  1 000701   000003 220003                    LDX0    3,DU
         1 000702   200071 470500                    LDP0    VD_ERR$,,AUTO
         1 000703   000003 740100                    STX0    3,,PR0

     1443     4127    1           ALTRETURN;

   4127  1 000704   000000 702200 xent               TSX2  ! X66_AALT

     1444     4128
     1445     4129
     1446     4130    1   CANT_DELETE_FAILURE:
     1447     4131    1           CALL VDG$OALLOC (%CLS_ERR, VD_ERR$)

   4131  1 000705   200071 633500       CANT_DELETE* EPPR3   VD_ERR$,,AUTO
         1 000706   200101 453500                    STP3    RECORDS_DELETED$+2,,AUTO
         1 000707   000013 236000 2                  LDQ     11
         1 000710   200100 756100                    STQ     RECORDS_DELETED$+1,,AUTO
PL6.E3A0      #003=VDA$LDELETE File=VDA$LOWER.:VDA5TSI                           FRI 07/04/97 11:06 Page:182
         1 000711   200100 630500                    EPPR0   RECORDS_DELETED$+1,,AUTO
         1 000712   000020 631400 xsym               EPPR1   B_VECTNIL+16
         1 000713   000000 701000 xent               TSX1    VDG$OALLOC
         1 000714   000776 702000 1                  TSX2    PFLUSH_FAILED

     1448     4132    1             ALTRET (OALLOC_FAILED);
     1449     4133    1           VD$ERR.ERR.CODE# = %E$CANT_DELETE;

   4133  1 000715   200071 470500                    LDP0    VD_ERR$,,AUTO
         1 000716   000002 236100                    LDQ     2,,PR0
         1 000717   000014 376000 2                  ANQ     12
         1 000720   003750 276007                    ORQ     2024,DL
         1 000721   000002 756100                    STQ     2,,PR0

     1450     4134    1           VD$ERR.FLAGLEV# = %FLV_SERIOUS;

   4134  1 000722   000003 220003                    LDX0    3,DU
         1 000723   200071 470500                    LDP0    VD_ERR$,,AUTO
         1 000724   000003 740100                    STX0    3,,PR0

     1451     4135    1           VD$ERR.DCB# = PORT.DCB#;

   4135  1 000725   200003 470500                    LDP0    @STREAM,,AUTO
         1 000726   000001 471500                    LDP1    1,,PR0
         1 000727   100004 721100                    LXL1    4,,PR1
         1 000730   200071 473500                    LDP3    VD_ERR$,,AUTO
         1 000731   300004 741100                    STX1    4,,PR3

     1452     4136    1           ALTRETURN;

   4136  1 000732   000000 702200 xent               TSX2  ! X66_AALT

     1453     4137
     1454     4138
     1455     4139    1   CANT_DELETE_NODE_FAILURE:
     1456     4140    1           CALL VDG$OALLOC (%CLS_ERR, VD_ERR$)

PL6.E3A0      #003=VDA$LDELETE File=VDA$LOWER.:VDA5TSI                           FRI 07/04/97 11:06 Page:183
   4140  1 000733   200071 633500       CANT_DELETE* EPPR3   VD_ERR$,,AUTO
         1 000734   200101 453500                    STP3    RECORDS_DELETED$+2,,AUTO
         1 000735   000013 236000 2                  LDQ     11
         1 000736   200100 756100                    STQ     RECORDS_DELETED$+1,,AUTO
         1 000737   200100 630500                    EPPR0   RECORDS_DELETED$+1,,AUTO
         1 000740   000020 631400 xsym               EPPR1   B_VECTNIL+16
         1 000741   000000 701000 xent               TSX1    VDG$OALLOC
         1 000742   000776 702000 1                  TSX2    PFLUSH_FAILED

     1457     4141    1             ALTRET (OALLOC_FAILED);
     1458     4142    1           VD$ERR.ERR.CODE# = %E$CANT_DELETE_NODE;

   4142  1 000743   200071 470500                    LDP0    VD_ERR$,,AUTO
         1 000744   000002 236100                    LDQ     2,,PR0
         1 000745   000014 376000 2                  ANQ     12
         1 000746   004010 276007                    ORQ     2056,DL
         1 000747   000002 756100                    STQ     2,,PR0

     1459     4143    1           VD$ERR.FLAGLEV# = %FLV_SERIOUS;

   4143  1 000750   000003 220003                    LDX0    3,DU
         1 000751   200071 470500                    LDP0    VD_ERR$,,AUTO
         1 000752   000003 740100                    STX0    3,,PR0

     1460     4144    1           SUBST_FIELD$ = PINCRW(VD_ERR$, SIZEW(VD$ERR));

   4144  1 000753   200071 236100                    LDQ     VD_ERR$,,AUTO
         1 000754   000005 036003                    ADLQ    5,DU
         1 000755   200072 756100                    STQ     SUBST_FIELD$,,AUTO

     1461     4145    1           SUBST$POINTER.OBJECT.CLASS# (0) = %CLS_PTR_KEY;

   4145  1 000756   000043 221003                    LDX1    35,DU
         1 000757   200072 470500                    LDP0    SUBST_FIELD$,,AUTO
         1 000760   000000 741100                    STX1    0,,PR0

     1462     4146    1           SUBST$POINTER.V$ (0) = ADDR(PORT.LEVEL.INTERNAL$ (DEL_LEVEL) ->
PL6.E3A0      #003=VDA$LDELETE File=VDA$LOWER.:VDA5TSI                           FRI 07/04/97 11:06 Page:184

   4146  1 000761   200003 471500                    LDP1    @STREAM,,AUTO
         1 000762   100001 473500                    LDP3    1,,PR1
         1 000763   200030 236100                    LDQ     DEL_LEVEL,,AUTO
         1 000764   000007 402007                    MPY     7,DL
         1 000765   300031 474506                    LDP4    25,QL,PR3
         1 000766   400004 635500                    EPPR5   4,,PR4
         1 000767   000003 455500                    STP5    3,,PR0

     1463     4147    1             VD$FILE_NODE.DESC.KEY);
     1464     4148    1           CALL CLEAN_UP_AFTER_DELETE

   4148  1 000770   000777 701000 1                  TSX1    CLEAN_UP_AFTER_DELETE
         1 000771   000776 702000 1                  TSX2    PFLUSH_FAILED

     1465     4149    1             ALTRET (CLEAN_UP_AFTER_DELETE_FAILED);
     1466     4150    1           ALTRETURN;

   4150  1 000772   000000 702200 xent               TSX2  ! X66_AALT

     1467     4151
     1468     4152
     1469     4153    1   NODE_WRITER_FAILED:
     1470     4154    1           CALL CLEAN_UP_AFTER_DELETE

   4154  1 000773   000777 701000 1     NODE_WRITER* TSX1    CLEAN_UP_AFTER_DELETE
         1 000774   000776 702000 1                  TSX2    PFLUSH_FAILED

     1471     4155    1             ALTRET (CLEAN_UP_AFTER_DELETE_FAILED);
     1472     4156    1           ALTRETURN;

   4156  1 000775   000000 702200 xent               TSX2  ! X66_AALT

   4146  1 000776                       PFLUSH_FAIL* null
   4146  1 000776                       PREAD_FAILED null
   4146  1 000776                       RDELETE_FAI* null
   4146  1 000776                       OALLOC_FAIL* null
PL6.E3A0      #003=VDA$LDELETE File=VDA$LOWER.:VDA5TSI                           FRI 07/04/97 11:06 Page:185
     1473     4157
     1474     4158
     1475     4159    1   PFLUSH_FAILED: ;
     1476     4160    1   PREAD_FAILED: ;
     1477     4161    1   RDELETE_FAILED: ;
     1478     4162    1   OALLOC_FAILED: ;
     1479     4163    1   CLEAN_UP_AFTER_DELETE_FAILED: ;

   4163  1 000776                       CLEAN_UP_AF* null
     1480     4164    1           ALTRETURN;

   4164  1 000776   000000 702200 xent               TSX2  ! X66_AALT

     1481     4165
     1482     4166        %BOX (TITLE=CLEAN_UP_AFTER_DELETE);

              4178    1   /***************************************************************************
              4180    1    *                                                                         *
              4184    1            *                           CLEAN_UP_AFTER_DELETE                        *
              4186    1            *                                                                        *
              4188    1          ***************************************************************************/

     1483     4192
     1484     4193        /*I* NAME: CLEAN_UP_AFTER_DELETE
     1485     4194            PARAMETERS:
     1486     4195                None.
     1487     4196            INPUT:
     1488     4197                STREAM, PORT, DEL_RANGE - The stream and port to use, and
     1489     4198                    the range of nodes to delete.
     1490     4199                DEL_LEVEL_COUNT - # of nodes successfully deleted.
     1491     4200            OUTPUT:
     1492     4201                STREAM.CURRENT will contain a copy of PORT.CURRENT.
     1493     4202                The predefined name $RECORDS_DELETED will be updated.
     1494     4203                The Presenter will be told of the deletions.
     1495     4204            DESCRIPTION:
     1496     4205                Do all that stuff.  (See OUTPUT.)
     1497     4206        */
PL6.E3A0      #003=VDA$LDELETE File=VDA$LOWER.:VDA5TSI                           FRI 07/04/97 11:06 Page:186
     1498     4207
     1499     4208    1   CLEAN_UP_AFTER_DELETE: PROC ALTRET;

   4208  1 000777   200074 741300       CLEAN_UP_AF* STX1  ! SUBST_FIELD$+2,,AUTO

     1500     4209
     1501     4210
     1502     4211    2   DCL FAILURE BIT(1) ALIGNED;
     1503     4212    2   DCL 1 SAVE_ACCESSOR_PRIV ALIGNED,
     1504     4213            %VD$NAC (NAME=ACCESS, LEV=2, LAST=YES, ALIGNMENT=UNAL, STCLASS=AUTO);
     1505     4227    2   DCL RECORDS_DELETED$ PTR;
     1506     4228
     1507     4229
     1508     4230        %VD$NUMBER (NAME=RECORDS$DELETED, STCLASS="BASED(RECORDS_DELETED$)");
     1509     4275
     1510     4276
     1511     4277
     1512     4278    2           FAILURE = %FALSE;

   4278  1 001000   200075 450100                    STZ     FAILURE,,AUTO

     1513     4279    2           CALL VDG$OCLEAR_LOCATION (STREAM.CURRENT)

   4279  1 001001   200003 236100                    LDQ     @STREAM,,AUTO
         1 001002   000006 036003                    ADLQ    6,DU
         1 001003   200100 756100                    STQ     RECORDS_DELETED$+1,,AUTO
         1 001004   200100 630500                    EPPR0   RECORDS_DELETED$+1,,AUTO
         1 001005   000017 631400 xsym               EPPR1   B_VECTNIL+15
         1 001006   000000 701000 xent               TSX1    VDG$OCLEAR_LOCATION
         1 001007   001123 702000 1                  TSX2    OCLEAR_LOCATION_FAILED

     1514     4280    2             ALTRET (OCLEAR_LOCATION_FAILED);
     1515     4281    2           CALL VDG$OCOPY_LOCATION (PORT.CURRENT, STREAM.CURRENT)

   4281  1 001010   200003 470500                    LDP0    @STREAM,,AUTO
         1 001011   000001 471500                    LDP1    1,,PR0
         1 001012   200003 236100                    LDQ     @STREAM,,AUTO
PL6.E3A0      #003=VDA$LDELETE File=VDA$LOWER.:VDA5TSI                           FRI 07/04/97 11:06 Page:187
         1 001013   000006 036003                    ADLQ    6,DU
         1 001014   200101 756100                    STQ     RECORDS_DELETED$+2,,AUTO
         1 001015   100012 633500                    EPPR3   10,,PR1
         1 001016   200100 453500                    STP3    RECORDS_DELETED$+1,,AUTO
         1 001017   200100 630500                    EPPR0   RECORDS_DELETED$+1,,AUTO
         1 001020   000020 631400 xsym               EPPR1   B_VECTNIL+16
         1 001021   000000 701000 xent               TSX1    VDG$OCOPY_LOCATION
         1 001022   001123 702000 1                  TSX2    OCLEAR_LOCATION_FAILED

     1516     4282    2             ALTRET (OCOPY_LOCATION_FAILED);
     1517     4283
     1518     4284                /*
     1519     4285                *   Set the value of $RECORDS_DELETED.
     1520     4286                */
     1521     4287    2           SAVE_ACCESSOR_PRIV = VD_ACCESSOR_PRIV;

   4287  1 001023   000000 236000 xsym               LDQ     VD_ACCESSOR_PRIV
         1 001024   777000 376003                    ANQ     -512,DU
         1 001025   200076 756100                    STQ     SAVE_ACCESSOR_PRIV,,AUTO

     1522     4288    2           VD_ACCESSOR_PRIV = %NAC_ALL_BITS;

   4288  1 001026   777000 236003                    LDQ     -512,DU
         1 001027   000000 756000 xsym               STQ     VD_ACCESSOR_PRIV

     1523     4289    2           CALL VDG$OALLOC (%CLS_NUMBER, RECORDS_DELETED$)

   4289  1 001030   200077 630500                    EPPR0   RECORDS_DELETED$,,AUTO
         1 001031   200101 450500                    STP0    RECORDS_DELETED$+2,,AUTO
         1 001032   000016 236000 2                  LDQ     14
         1 001033   200100 756100                    STQ     RECORDS_DELETED$+1,,AUTO
         1 001034   200100 630500                    EPPR0   RECORDS_DELETED$+1,,AUTO
         1 001035   000020 631400 xsym               EPPR1   B_VECTNIL+16
         1 001036   000000 701000 xent               TSX1    VDG$OALLOC
         1 001037   001123 702000 1                  TSX2    OCLEAR_LOCATION_FAILED

     1524     4290    2             ALTRET (OALLOC_FAILED);
PL6.E3A0      #003=VDA$LDELETE File=VDA$LOWER.:VDA5TSI                           FRI 07/04/97 11:06 Page:188
     1525     4291    2           RECORDS$DELETED.V# = DEL_LEVEL_COUNT;

   4291  1 001040   200077 470500                    LDP0    RECORDS_DELETED$,,AUTO
         1 001041   200031 235100                    LDA     DEL_LEVEL_COUNT,,AUTO
         1 001042   000003 755100                    STA     3,,PR0

     1526     4292    2           CALL VDA$LWRITE (EQUALS$STREAM, VD_LOC_$RECORDS_DELETED, ,

   4292  1 001043   200077 236100                    LDQ     RECORDS_DELETED$,,AUTO
         1 001044   000001 235000 xsym               LDA     B_VECTNIL+1
         1 001045   200102 757100                    STAQ    RECORDS_DELETED$+3,,AUTO
         1 001046   000017 236000 2                  LDQ     15
         1 001047   000001 235000 xsym               LDA     VD_6E+1
         1 001050   200100 757100                    STAQ    RECORDS_DELETED$+1,,AUTO
         1 001051   200100 630500                    EPPR0   RECORDS_DELETED$+1,,AUTO
         1 001052   000022 631400 xsym               EPPR1   B_VECTNIL+18
         1 001053   000000 701000 xent               TSX1    VDA$LWRITE
         1 001054   001056 702000 1                  TSX2    s:4295
         1 001055   001064 710000 1                  TRA     s:4299

     1527     4293    2             RECORDS$DELETED)
     1528     4294    3           WHENALTRETURN DO;

     1529     4295    3              FAILURE = %TRUE;

   4295  1 001056   400000 236003                    LDQ     -131072,DU
         1 001057   200075 756100                    STQ     FAILURE,,AUTO

     1530     4296    3              CALL VDG$OFREE (RECORDS$DELETED)

   4296  1 001060   200077 630500                    EPPR0   RECORDS_DELETED$,,AUTO
         1 001061   000017 631400 xsym               EPPR1   B_VECTNIL+15
         1 001062   000000 701000 xent               TSX1    VDG$OFREE
         1 001063   001123 702000 1                  TSX2    OCLEAR_LOCATION_FAILED

     1531     4297    3                ALTRET (OFREE_FAILED);
     1532     4298    3              END;
PL6.E3A0      #003=VDA$LDELETE File=VDA$LOWER.:VDA5TSI                           FRI 07/04/97 11:06 Page:189

     1533     4299    2           CALL VDA$PFLUSH (EQUALS$STREAM.PORT$->VD$PORT, %TO_PRESENTER)

   4299  1 001064   000001 470400 xsym               LDP0    VD_6E+1
         1 001065   000001 471500                    LDP1    1,,PR0
         1 001066   000004 236000 2                  LDQ     4
         1 001067   200101 756100                    STQ     RECORDS_DELETED$+2,,AUTO
         1 001070   200100 451500                    STP1    RECORDS_DELETED$+1,,AUTO
         1 001071   200100 630500                    EPPR0   RECORDS_DELETED$+1,,AUTO
         1 001072   000020 631400 xsym               EPPR1   B_VECTNIL+16
         1 001073   000000 701000 xent               TSX1    VDA$PFLUSH
         1 001074   001076 702000 1                  TSX2    s:4301
         1 001075   001100 710000 1                  TRA     s:4303

     1534     4300    3           WHENALTRETURN DO;

     1535     4301    3              FAILURE = %TRUE;

   4301  1 001076   400000 236003                    LDQ     -131072,DU
         1 001077   200075 756100                    STQ     FAILURE,,AUTO

     1536     4302    3              END;

     1537     4303    2           VD_ACCESSOR_PRIV = SAVE_ACCESSOR_PRIV;

   4303  1 001100   200076 236100                    LDQ     SAVE_ACCESSOR_PRIV,,AUTO
         1 001101   777000 376003                    ANQ     -512,DU
         1 001102   000000 756000 xsym               STQ     VD_ACCESSOR_PRIV

     1538     4304
     1539     4305                /*
     1540     4306                *   Tell the Presenter about the deletion.
     1541     4307                */
     1542     4308    2           CALL VDP$RDELETE (PORT.FILE_KEY, DEL_RANGE)

   4308  1 001103   200003 470500                    LDP0    @STREAM,,AUTO
         1 001104   000001 471500                    LDP1    1,,PR0
PL6.E3A0      #003=VDA$LDELETE File=VDA$LOWER.:VDA5TSI                           FRI 07/04/97 11:06 Page:190
         1 001105   200006 633500                    EPPR3   DEL_RANGE,,AUTO
         1 001106   200101 453500                    STP3    RECORDS_DELETED$+2,,AUTO
         1 001107   100010 634500                    EPPR4   8,,PR1
         1 001110   200100 454500                    STP4    RECORDS_DELETED$+1,,AUTO
         1 001111   200100 630500                    EPPR0   RECORDS_DELETED$+1,,AUTO
         1 001112   000020 631400 xsym               EPPR1   B_VECTNIL+16
         1 001113   000000 701000 xent               TSX1    VDP$RDELETE
         1 001114   001123 702000 1                  TSX2    OCLEAR_LOCATION_FAILED

     1543     4309    2             ALTRET (RDELETE_FAILED);
     1544     4310
     1545     4311    2           IF FAILURE THEN

   4311  1 001115   200075 234100                    SZN     FAILURE,,AUTO
         1 001116   001121 605000 1                  TPL     s:4313

     1546     4312    2              ALTRETURN;

   4312  1 001117   200074 221300                    LDX1  ! SUBST_FIELD$+2,,AUTO
         1 001120   000000 702211                    TSX2  ! 0,X1

     1547     4313    2           RETURN;

   4313  1 001121   200074 221300                    LDX1  ! SUBST_FIELD$+2,,AUTO
         1 001122   000001 702211                    TSX2  ! 1,X1

   4311  1 001123                       OCLEAR_LOCA* null
   4311  1 001123                       OCOPY_LOCAT* null
   4311  1 001123                       OALLOC_FAIL* null
   4311  1 001123                       OFREE_FAILED null
   4311  1 001123                       RDELETE_FAI* null
     1548     4314
     1549     4315
     1550     4316
     1551     4317    2   OCLEAR_LOCATION_FAILED: ;
     1552     4318    2   OCOPY_LOCATION_FAILED: ;
     1553     4319    2   OALLOC_FAILED: ;
PL6.E3A0      #003=VDA$LDELETE File=VDA$LOWER.:VDA5TSI                           FRI 07/04/97 11:06 Page:191
     1554     4320    2   OFREE_FAILED: ;
     1555     4321    2   RDELETE_FAILED: ;
     1556     4322    2           ALTRETURN;

   4322  1 001123   200074 221300                    LDX1  ! SUBST_FIELD$+2,,AUTO
         1 001124   000000 702211                    TSX2  ! 0,X1
     1557     4323
     1558     4324    2   END CLEAN_UP_AFTER_DELETE;
     1559     4325
     1560     4326
     1561     4327    1   END VDA$LDELETE;
     1562     4328        %EOD;

PL6.E3A0      #003=VDA$LDELETE File=VDA$LOWER.:VDA5TSI                           FRI 07/04/97 11:06 Page:192
--  Include file information  --

   VD_PERR_C.:VDA5TOU  is referenced.
   VD_MACROS_M.:VDA5TOU  is referenced.
   B$JIT_C.:E04TOU  was found in the system file and is never referenced.
   CP_6_C.:E04TOU  was found in the system file and is never referenced.
      No diagnostics issued in procedure VDA$LDELETE.
PL6.E3A0      #003=VDA$LDELETE File=VDA$LOWER.:VDA5TSI                           FRI 07/04/97 11:06 Page:193

 **** Variables and constants ****

  ****  Section 000 RoData VDA$LDELETE

  ****  Scalars and arrays  ****
OctLoc.c.b A Datatyp(siz) R M Lvl/name                 OctLoc.c.b A Datatyp(siz) R M Lvl/name

     2-0-0/w STRC(99)    r     1 ZERO_BUFFER
     0-0-0/w SBIN        r     1 ZERO_SPEC(0:1)

  ****  Auto variables  ****

  ****  Scalars and arrays  ****
OctLoc.c.b A Datatyp(siz) R M Lvl/name                 OctLoc.c.b A Datatyp(siz) R M Lvl/name

     4-0-0/w PTR         r     1 @RANGE                     3-0-0/w PTR         r     1 @STREAM
    35-0-0/w PTR         r     1 DEL_END_KEY$              30-0-0/w SBIN        r     1 DEL_LEVEL
    31-0-0/w SBIN        r     1 DEL_LEVEL_COUNT            6-0-0/w STRC(648)   r     1 DEL_RANGE
    34-0-0/w PTR         r     1 DEL_START_KEY$            75-0-0/w BIT         r     1 FAILURE
    36-0-0/w BIT         r     1 FLUSH_PORT                37-0-0/w BIT         r     1 HISTORY_ENABLED
    32-0-0/w SBIN        r     1 INDX                      33-0-0/w SBIN        r     1 LEVEL
    40-0-0/w STRC(180)   r     1 LOCATION_PTRS             45-0-0/w EPTR        r     1 NODE_WRITER$$
    46-0-0/w SBIN        r     1 PREDEF_COUNT              47-0-0/w STRC(648)   r     1 PREDEF_RANGE
    *0-0-0/w STRC(648)   r     1 RANGE                     77-0-0/w PTR         r     1 RECORDS_DELETED$
    76-0-0/w STRC(9)     r     1 SAVE_ACCESSOR_PRIV        *0-0-0/w STRC(864)   r     1 STREAM
     5-0-0/w PTR         r     1 STRUCTURE_NODE$           72-0-0/w PTR         r     1 SUBST_FIELD$
    71-0-0/w PTR         r     1 VD_ERR$

  ****  SYMREF variables  ****

  ****  Scalars and arrays  ****
OctLoc.c.b A Datatyp(siz) R M Lvl/name                 OctLoc.c.b A Datatyp(siz) R M Lvl/name

     0-0-0/w STRC(144)   r     1 VD_$$MON_ACC               0-0-0/w STRC(22644) r     1 VD_6E
     0-0-0/w STRC(9)     r     1 VD_ACCESSOR_PRIV           0-0-0/w STRC(72)    r     1 VD_KEY_NUMERIC_BOF
     0-0-0/w STRC(324)   r     1 VD_LOC_$RECORDS_DELETED
     0-0-0/w EPTR        r     1 VD_NODE_WRITERS$$(0:0)
PL6.E3A0      #003=VDA$LDELETE File=VDA$LOWER.:VDA5TSI                           FRI 07/04/97 11:06 Page:194

  ****  BASED and DCB variables  ****

  ****  Scalars and arrays  ****
OctLoc.c.b A Datatyp(siz) R M Lvl/name                 OctLoc.c.b A Datatyp(siz) R M Lvl/name

     0-0-0/c ASTR(9)     r     1 DEL$END_KEY                0-0-0/w ASTR(9)     r     1 DEL$START_KEY
     0-0-0/w STRC(864)   r     1 EQUALS$STREAM              0-0-0/w STRC(864)   r     1 HISTORY$STREAM
     0-0-0/w STRC(1944)  r     1 PORT                       0-0-0/w STRC(144)   r     1 RECORDS$DELETED
     0-0-0/w STRC(468)   r     1 STRUCTURE$NODE
     0-0-0/w STRC(144)   r     1 SUBST$POINTER(0:2)
     0-0-0/w ASTR(90)    r     1 VD$BUFFER                  0-0-0/w STRC(180)   r     1 VD$ERR
     0-0-0/w STRC(468)   r     1 VD$FILE_NODE               0-0-0/w STRC(1944)  r     1 VD$PORT
     0-0-0/w ASTR(81)    r     1 VD$TEXTC_REMOTE


   Procedure VDA$LDELETE requires 597 words for executable code.
   Procedure VDA$LDELETE requires 68 words of local(AUTO) storage.
PL6.E3A0      #003=VDA$LDELETE File=VDA$LOWER.:VDA5TSI                           FRI 07/04/97 11:06 Page:195
          *** CROSS REFERENCE LISTING ***
**     DENOTES     IDENTIFIER DEFINITION
<<                 IDENTIFIER'S VALUE SET
>>                 IDENTIFIER'S VALUE USED
<>                 IDENTIFIER SET AND/OR USED
--                 IDENTIFIER REFERENCED
PL6.E3A0      #003=VDA$LDELETE File=VDA$LOWER.:VDA5TSI                           FRI 07/04/97 11:06 Page:196
          MINI XREF LISTING

CANT_DELETE_FAILURE
      4131**LABEL    3985--GOTO
CANT_DELETE_NODE_FAILURE
      4140**LABEL    4068--GOTO
CANT_DEL_ACROSS_NODES_FAILURE
      4123**LABEL    3924--GOTO     3929--GOTO     3932--GOTO     3938--GOTO     3976--GOTO
CANT_INSERT_DELETE_REC_FAILURE
      4115**LABEL    3983--GOTO
CHECK_FOR_FLUSH
      4006**LABEL    4010--EXIT
CHECK_ONE_PARENT
      3947**LABEL    3950--EXIT
CLEAN_UP_AFTER_DELETE
      4208**PROC     4092--CALL     4104--CALL     4148--CALL     4154--CALL
CLEAN_UP_AFTER_DELETE_FAILED
      4163**LABEL    4092--CALLALT  4104--CALLALT  4148--CALLALT  4154--CALLALT
DEL$END_KEY.BYTES
      3475**DCL      3974>>IF
DEL$END_KEY.LENGTH#
      3473**DCL      3475--IMP-SIZ  3974>>IF
DEL$START_KEY.BYTES
      3451**DCL      3974>>IF
DEL$START_KEY.LENGTH#
      3449**DCL      3451--IMP-SIZ  3974>>IF
DEL_END_KEY$
      2937**DCL      3465--IMP-PTR  3971<<ASSIGN   3971<<ASSIGN   3974>>IF       3974>>IF
DEL_LEVEL
      2932**DCL      3907<<ASSIGN   3908>>DOWHILE  3908>>DOWHILE  3910<<ASSIGN   3910>>ASSIGN   3939<<ASSIGN
      3945<<ASSIGN   3949<<ASSIGN   3981>>IF       3984>>IF       4021>>IF       4021>>IF       4041>>DOINDEX
      4054>>ASSIGN   4065>>IF       4070>>IF       4071>>CALL     4072>>ASSIGN   4089<>CALL     4100<>CALL
      4146>>ASSIGN
DEL_LEVEL_COUNT
PL6.E3A0      #003=VDA$LDELETE File=VDA$LOWER.:VDA5TSI                           FRI 07/04/97 11:06 Page:197
      2933**DCL      4024<<ASSIGN   4084<<ASSIGN   4084>>ASSIGN   4095<<ASSIGN   4095>>ASSIGN   4100<>CALL
      4291>>ASSIGN
DEL_RANGE
      2871**DCL      3915<<ASSIGN   4060<>CALL     4100<>CALL     4308<>CALL
DEL_RANGE.ENDD
      2913**DCL      3906<<ASSIGN   3916>>IF       3921>>IF       3933>>IF
DEL_RANGE.ENDD.EOF
      2929**DCL      3916>>IF       3921>>IF       3925>>IF       3930>>IF       4058>>IF
DEL_RANGE.ENDD.KEY
      2925**DCL      3921>>IF       3974>>IF
DEL_RANGE.ENDD.KEY.REP#
      2927**DCL      3971>>IF
DEL_RANGE.ENDD.KEY.V$
      2927**DCL      3971>>ASSIGN   3971--ASSIGN
DEL_RANGE.START
      2885**DCL      3905<<ASSIGN   3916>>IF       3920>>IF       3926>>IF       3934>>IF       4037<>CALL
DEL_RANGE.START.EOF
      2901**DCL      3916>>IF       3926>>IF       3930>>IF       4056>>IF
DEL_RANGE.START.KEY
      2897**DCL      3908>>DOWHILE  3926>>IF       3934>>IF       3934>>IF       3948>>IF
DEL_RANGE.START.KEY.REP#
      2899**DCL      3960>>IF
DEL_RANGE.START.KEY.V$
      2899**DCL      3960>>ASSIGN   3960--ASSIGN
DEL_START_KEY$
      2936**DCL      3441--IMP-PTR  3960<<ASSIGN   3960<<ASSIGN   3974>>IF       3974>>IF
EQUALS$STREAM
      3335**DCL      4292<>CALL
EQUALS$STREAM.PORT$
      3361**DCL      4299>>CALL
FAILURE IN PROCEDURE CLEAN_UP_AFTER_DELETE
      4211**DCL      4278<<ASSIGN   4295<<ASSIGN   4301<<ASSIGN   4311>>IF
FLUSH_PORT
      2938**DCL      4004<<ASSIGN   4009<<ASSIGN   4014>>IF
HISTORY$STREAM.PORT$
      3255**DCL      3990>>IF       3991>>IF
PL6.E3A0      #003=VDA$LDELETE File=VDA$LOWER.:VDA5TSI                           FRI 07/04/97 11:06 Page:198
HISTORY_ENABLED
      2939**DCL      3987<<ASSIGN   3992<<ASSIGN   3994>>IF
INDX
      2934**DCL      3947<<DOINDEX  3948>>IF       3949>>ASSIGN   3960>>IF       3960>>ASSIGN   3960>>ASSIGN
      3971>>IF       3971>>ASSIGN   3971>>ASSIGN   3974>>IF       4041<<DOINDEX  4050>>IF       4050>>ASSIGN
      4050>>ASSIGN   4050>>ASSIGN   4050>>ASSIGN
LEVEL
      2935**DCL      4006<<DOINDEX  4007>>IF       4007>>IF
LOCATION_PTRS
      2948**DCL      4025<<ASSIGN   4060<>CALL
LOCATION_PTRS.COUNT#
      2952**DCL      4054<<ASSIGN
LOCATION_PTRS.KEY$
      2952**DCL      4050<<ASSIGN   4050<<ASSIGN
NODE_WRITER$$
      2955**DCL      4072<<ASSIGN   4074>>IF       4080>>CALL
NODE_WRITER_FAILED
      4154**LABEL    4080--CALLALT
NOT_WITHIN_RANGE
      4098**LABEL    4060--CALLALT
OALLOC_FAILED
      4146**LABEL    4115--CALLALT  4123--CALLALT  4131--CALLALT  4140--CALLALT
OALLOC_FAILED IN PROCEDURE CLEAN_UP_AFTER_DELETE
      4311**LABEL    4289--CALLALT
OCLEAR_LOCATION_FAILED IN PROCEDURE CLEAN_UP_AFTER_DELETE
      4311**LABEL    4279--CALLALT
OCOPY_LOCATION_FAILED IN PROCEDURE CLEAN_UP_AFTER_DELETE
      4311**LABEL    4281--CALLALT
OFREE_FAILED IN PROCEDURE CLEAN_UP_AFTER_DELETE
      4311**LABEL    4296--CALLALT
PFLUSH_FAILED
      4146**LABEL    4015--CALLALT
PORT
      3038**DCL      4015<>CALL     4037<>CALL     4080<>CALL     4089<>CALL     4100<>CALL
PORT.CURRENT
      3091**DCL      4087>>ASSIGN   4088>>ASSIGN   4281<>CALL
PL6.E3A0      #003=VDA$LDELETE File=VDA$LOWER.:VDA5TSI                           FRI 07/04/97 11:06 Page:199
PORT.CURRENT.EOF
      3107**DCL      4039>>IF
PORT.CURRENT.KEY.REP#
      3105**DCL      4050>>IF
PORT.CURRENT.KEY.V$
      3105**DCL      4050>>ASSIGN   4050--ASSIGN
PORT.DCB#
      3065**DCL      3981>>IF       4064>>IF       4135>>ASSIGN
PORT.EXIST#
      3064**DCL      3897>>IF       3898<>CALL     3991>>IF
PORT.FILE_KEY
      3077**DCL      4308<>CALL
PORT.LAST_OP#
      3066**DCL      4083<<ASSIGN
PORT.LEVEL.DATA_MODIFIED
      3125**DCL      4007>>IF
PORT.LEVEL.INTERNAL$
      3125**DCL      4065>>IF       4146>>ASSIGN
PORT.LEVEL.ORG#
      3109**DCL      3981>>IF
PORT.LEVEL.SPEC_MODIFIED
      3125**DCL      4007>>IF
PORT.LEVEL.SPEC_TYPE#
      3109**DCL      4021>>IF       4021>>IF       4070>>IF       4071<>CALL     4072>>ASSIGN
PORT.STRUCTURE$
      3066**DCL      3899>>ASSIGN
PREAD_FAILED
      4146**LABEL    4037--CALLALT
PREDEF_COUNT
      2956**DCL      4089<>CALL     4095>>ASSIGN
PREDEF_RANGE
      2965**DCL      4089<>CALL
PREDEF_RANGE.ENDD
      3007**DCL      4088<<ASSIGN
PREDEF_RANGE.START
      2979**DCL      4087<<ASSIGN
PL6.E3A0      #003=VDA$LDELETE File=VDA$LOWER.:VDA5TSI                           FRI 07/04/97 11:06 Page:200
RANGE
      2575**DCL        93--PROC     3896<>CALL     3901--IF       3915>>ASSIGN
RDELETE_FAILED IN PROCEDURE CLEAN_UP_AFTER_DELETE
      4311**LABEL    4308--CALLALT
RECORDS$DELETED IN PROCEDURE CLEAN_UP_AFTER_DELETE
      4238**DCL      4292<>CALL     4296<>CALL
RECORDS$DELETED.V# IN PROCEDURE CLEAN_UP_AFTER_DELETE
      4272**DCL      4291<<ASSIGN
RECORDS_DELETED$ IN PROCEDURE CLEAN_UP_AFTER_DELETE
      4227**DCL      4238--IMP-PTR  4289<>CALL     4291>>ASSIGN   4292>>CALL     4296>>CALL
SAVE_ACCESSOR_PRIV IN PROCEDURE CLEAN_UP_AFTER_DELETE
      4212**DCL      4287<<ASSIGN   4303>>ASSIGN
STREAM
      2469**DCL        93--PROC     3896<>CALL     3988--IF       4109<>CALL
STREAM.CURRENT
      2520**DCL      3905>>ASSIGN   3906>>ASSIGN   4279<>CALL     4281<>CALL
STREAM.CURRENT.EOF
      2536**DCL      3903>>IF
STREAM.PORT$
      2495**DCL      3038--IMP-PTR  3897>>IF       3898>>CALL     3899>>ASSIGN   3981>>IF       3981>>IF
      4007>>IF       4007>>IF       4015>>CALL     4021>>IF       4021>>IF       4037>>CALL     4039>>IF
      4050>>IF       4050>>ASSIGN   4050>>ASSIGN   4064>>IF       4065>>IF       4070>>IF       4071>>CALL
      4072>>ASSIGN   4080>>CALL     4083>>ASSIGN   4087>>ASSIGN   4088>>ASSIGN   4089>>CALL     4100>>CALL
      4135>>ASSIGN   4146>>ASSIGN   4281>>CALL     4308>>CALL
STREAM.PROTECT
      2495**DCL      3984>>IF
STRUCTURE$NODE.COUNT#
      3219**DCL      3908>>DOWHILE  3945>>ASSIGN   3947>>DOINDEX  4006>>DOINDEX
STRUCTURE_NODE$
      2862**DCL      3136--IMP-PTR  3899<<ASSIGN   3908>>DOWHILE  3945>>ASSIGN   3947>>DOINDEX  4006>>DOINDEX
SUBST$POINTER.OBJECT.CLASS#
      3573**DCL      4145<<ASSIGN
SUBST$POINTER.V$
      3575**DCL      4146<<ASSIGN
SUBST_FIELD$
      3027**DCL      3549--IMP-PTR  4144<<ASSIGN   4145>>ASSIGN   4146>>ASSIGN
PL6.E3A0      #003=VDA$LDELETE File=VDA$LOWER.:VDA5TSI                           FRI 07/04/97 11:06 Page:201
VD$BUFFER.LENGTH#
      3690**DCL      3692--IMP-SIZ
VD$ERR
      3488**DCL      4144--ASSIGN
VD$ERR.DCB#
      3530**DCL      4135<<ASSIGN
VD$ERR.ERR.CODE#
      3527**DCL      4117<<ASSIGN   4125<<ASSIGN   4133<<ASSIGN   4142<<ASSIGN
VD$ERR.FLAGLEV#
      3530**DCL      4118<<ASSIGN   4126<<ASSIGN   4134<<ASSIGN   4143<<ASSIGN
VD$FILE_NODE.ACCESS
      3743**DCL      4065>>IF
VD$FILE_NODE.DESC.KEY
      3768**DCL      4146--ASSIGN
VD$PORT
      3798**DCL      4299<>CALL
VD$TEXTC_REMOTE.LENGTH#
      3632**DCL      3634--IMP-SIZ  3960--ASSIGN   3971--ASSIGN   4050--ASSIGN
VDA$LWRITE
      2642**DCL-ENT  4292--CALL
VDA$PDELETE
      2641**DCL-ENT  4089--CALL     4100--CALL
VDA$PFLUSH
      2640**DCL-ENT  4015--CALL     4299--CALL
VDA$PREAD
      2639**DCL-ENT  4037--CALL
VDG$COMPARE_PTRS_W_RANGE
      2644**DCL-ENT  4060--CALL
VDG$EBREAK_ACKNOWLEDGE
      2653**DCL-ENT  3892--CALL
VDG$ESCREECH
      2652**DCL-ENT  3898--CALL     3904--CALL     4071--CALL
VDG$MACC_LDELETE
      2650**DCL-ENT  3896--CALL
VDG$MACC_RETURN
      2651**DCL-ENT  4109--CALL
PL6.E3A0      #003=VDA$LDELETE File=VDA$LOWER.:VDA5TSI                           FRI 07/04/97 11:06 Page:202
VDG$OALLOC
      2647**DCL-ENT  4115--CALL     4123--CALL     4131--CALL     4140--CALL     4289--CALL
VDG$OCLEAR_LOCATION
      2646**DCL-ENT  4279--CALL
VDG$OCOPY_LOCATION
      2645**DCL-ENT  4281--CALL
VDG$OFREE
      2648**DCL-ENT  4296--CALL
VDP$RDELETE
      2643**DCL-ENT  4308--CALL
VD_$$MON_ACC.V#
      2763**DCL      3895>>IF       4108>>IF
VD_6E.EQUALS$
      2669**DCL      3335--IMP-PTR  4292>>CALL     4299>>CALL
VD_6E.HISTORY$
      2669**DCL      3229--IMP-PTR  3988>>IF       3988>>IF       3990>>IF       3991>>IF
VD_6E.INTERRUPT.STATE#
      2688**DCL      3891>>IF
VD_ACCESSOR_PRIV
      2766**DCL      4287>>ASSIGN   4288<<ASSIGN   4303<<ASSIGN
VD_ACCESSOR_PRIV.ACCESS
      2778**DCL      4065>>IF
VD_ERR$
      3026**DCL      3488--IMP-PTR  4115<>CALL     4117>>ASSIGN   4118>>ASSIGN   4123<>CALL     4125>>ASSIGN
      4126>>ASSIGN   4131<>CALL     4133>>ASSIGN   4134>>ASSIGN   4135>>ASSIGN   4140<>CALL     4142>>ASSIGN
      4143>>ASSIGN   4144>>ASSIGN
VD_KEY_NUMERIC_BOF
      2789**DCL      3934>>IF
VD_LOC_$RECORDS_DELETED
      2701**DCL      4292<>CALL
VD_NODE_WRITERS$$
      2692**DCL      4072>>ASSIGN
WHILE_WITHIN_RANGE
      4028**LABEL    4040--EXIT     4057--EXIT
ZERO_BUFFER
      2825**DCL      4080<>CALL
PL6.E3A0      #003=VDA$LDELETE File=VDA$LOWER.:VDA5TSI                           FRI 07/04/97 11:06 Page:203
ZERO_SPEC
      2798**DCL      4080<>CALL

PL6.E3A0      #004=VDA$LSAVE_OLD_NODE File=VDA$LOWER.:VDA5TSI                    FRI 07/04/97 11:06 Page:204
     1563        1        /*T***********************************************************/
     1564        2        /*T*                                                         */
     1565        3        /*T* Copyright (c) Bull HN Information Systems Inc., 1997    */
     1566        4        /*T*                                                         */
     1567        5        /*T***********************************************************/
     1568        6
     1569        7        /*D* NAME: VDA$LSAVE_OLD_NODE
     1570        8            PARAMTERS:
     1571        9                STREAM - VD$STREAM to use; must not be the stream for the
     1572       10                    History file.  STREAM must be positioned to the old node;
     1573       11                    STREAM's port must contain the old node if NODE_EXISTS = %TRUE.
     1574       12                WRITE_LEVEL specifies the level # of the old node.
     1575       13                NODE_EXISTS - A BIT(1) ALIGNED flag.  If %TRUE, STREAM's PORT
     1576       14                    must contain the old node.
     1577       15                    If NODE_EXISTS = %FALSE, PORT's values are ignored.
     1578       16            INPUT:
     1579       17                VD_6E.HISTORY$ must point to the stream for the History file,
     1580       18                    which must be open.
     1581       19            OUTPUT:
     1582       20                The History file will have a record appended to its end,
     1583       21                    containing a copy of the old node, ready to be encoded
     1584       22                    if necessary.  Note that this record is not encoded by
     1585       23                    VDA$LSAVE_OLD_NODE; the record is encoded only when
     1586       24                    it is written to an external file (which could happen
     1587       25                    as part of the VDA$LWRITE performed by this routine, or
     1588       26                    it could happen much later, if ever).
     1589       27            DESCRIPTION:
     1590       28                Allocate the VD$ENCODED_NODE structure, and build its keys.
     1591       29                If the old node exists, make new copies of its Spec and Data
     1592       30                    components and hang them off the encoded node.
     1593       31                    (We must make new copies, rather than just steal the old
     1594       32                    ones from the Port, 'cause the NODE_WRITER$$ needs to
     1595       33                    see the components it's replacing.)
     1596       34                Write the VD$ENCODED_NODE to the end of the History file.
     1597       35        */
     1598       36
     1599       37        VDA$LSAVE_OLD_NODE: PROC (STREAM, WRITE_LEVEL, NODE_EXISTS) ALTRET;
PL6.E3A0      #004=VDA$LSAVE_OLD_NODE File=VDA$LOWER.:VDA5TSI                    FRI 07/04/97 11:06 Page:205
     1600       38
     1601       39
     1602       40        %INCLUDE VD_MACROS_M;
     1603     2255        %INCLUDE VD_PERR_C;
     1604     2403
     1605     2404        %VD$STREAM (NAME=STREAM, STCLASS=PARAM);
     1606     2510    1   DCL WRITE_LEVEL SBIN;
     1607     2511    1   DCL NODE_EXISTS BIT(1) ALIGNED;
     1608     2512
     1609     2513
     1610     2514    1   DCL VDA$LWRITE          ENTRY (4) ALTRET;
     1611     2515    1   DCL VDA$PFLUSH          ENTRY (2) ALTRET;
     1612     2516    1   DCL VDG$OCOPY           ENTRY (2) ALTRET;
     1613     2517    1   DCL VDG$OCOPY_LOCATION  ENTRY (2) ALTRET;
     1614     2518    1   DCL VDG$OALLOC          ENTRY (3) ALTRET;
     1615     2519    1   DCL VDG$OFREE           ENTRY (1) ALTRET;
     1616     2520    1   DCL VDG$ESCREECH        ENTRY (3);
     1617     2521
     1618     2522
     1619     2523        %VD_6E (STCLASS=SYMREF);
     1620     2559
     1621     2560
     1622     2561        %VD_LOCATION (NAME=HISTORY_EOF, STCLASS=CONSTANT, IEOF=%TRUE);
     1623     2601
     1624     2602
     1625     2603
     1626     2604    1   DCL ENCODED_NODE$ PTR;
     1627     2605
     1628     2606
     1629     2607        %VD$PORT (NAME=PORT, STCLASS="BASED(STREAM.PORT$)");
     1630     2705        %VD$ENCODED_NODE (NAME=ENCODED$NODE, STCLASS="BASED(ENCODED_NODE$)");
     1631     2826        %VD$STREAM (NAME=HISTORY$STREAM, STCLASS="BASED(VD_6E.HISTORY$)");
     1632     2932        %VD$TEXTC_REMOTE;
     1633     2993        %VD$BUFFER;
     1634     3051        %VD$PORT;
     1635     3149
     1636     3150
PL6.E3A0      #004=VDA$LSAVE_OLD_NODE File=VDA$LOWER.:VDA5TSI                    FRI 07/04/97 11:06 Page:206
     1637     3151
     1638     3152    1           IF PORT.EXIST# = 0
     1639     3153    1             OR VD_6E.HISTORY$ = ADDR(NIL) THEN
     1640     3154    1              CALL VDG$ESCREECH (PORT.EXIST#);
     1641     3155
     1642     3156    1           CALL VDG$OALLOC (%CLS_ENCODED_NODE, ENCODED_NODE$)
     1643     3157    1             ALTRET (OALLOC_FAILED);
     1644     3158
     1645     3159                %COPYKEY (FKEY=STREAM.FILE_KEY, TKEY=ENCODED$NODE.DESC.FILE_KEY);
     1646     3175
     1647     3176    1           CALL VDG$OCOPY_LOCATION (STREAM.CURRENT, ENCODED$NODE.DESC.LOCATION)
     1648     3177    1             ALTRET (OCOPY_LOCATION_FAILED);
     1649     3178
     1650     3179    2           IF NODE_EXISTS THEN DO;
     1651     3180                   %COPYSPEC (FSPEC=PORT.LEVEL.SPEC, FINDX=WRITE_LEVEL,
     1652     3181                   TSPEC=ENCODED$NODE.DESC.SPEC);
     1653     3197
     1654     3198    3              IF PORT.LEVEL.DATA$ (WRITE_LEVEL) ~= ADDR(NIL) THEN DO;
     1655     3199    3                 CALL VDG$OCOPY (PORT.LEVEL.DATA$ (WRITE_LEVEL) -> VD$BUFFER,
     1656     3200    3                   ENCODED$NODE.DESC.DATA$)
     1657     3201    3                   ALTRET (OCOPY_FAILED);
     1658     3202    3                 END;
     1659     3203    2              END;
     1660     3204    1           CALL VDA$LWRITE (HISTORY$STREAM, HISTORY_EOF, , ENCODED$NODE)
     1661     3205    1             ALTRET (LWRITE_FAILED);
     1662     3206    1           CALL VDA$PFLUSH (HISTORY$STREAM.PORT$->VD$PORT, %TO_PRESENTER)
     1663     3207    1             ALTRET (PFLUSH_FAILED);
     1664     3208
     1665     3209    1           RETURN;
     1666     3210
     1667     3211
     1668     3212
     1669     3213    1   LWRITE_FAILED:
     1670     3214    1           CALL VDG$OFREE (ENCODED$NODE)
     1671     3215    1             ALTRET (OFREE_FAILED);
     1672     3216    1           ALTRETURN;
     1673     3217
PL6.E3A0      #004=VDA$LSAVE_OLD_NODE File=VDA$LOWER.:VDA5TSI                    FRI 07/04/97 11:06 Page:207
     1674     3218
     1675     3219    1   PFLUSH_FAILED: ;
     1676     3220    1   OALLOC_FAILED: ;
     1677     3221    1   OFREE_FAILED: ;
     1678     3222    1   OCOPY_FAILED: ;
     1679     3223    1   OCOPY_LOCATION_FAILED: ;
     1680     3224    1           ALTRETURN;
     1681     3225
     1682     3226    1   END VDA$LSAVE_OLD_NODE;

PL6.E3A0      #004=VDA$LSAVE_OLD_NODE File=VDA$LOWER.:VDA5TSI                    FRI 07/04/97 11:06 Page:208
--  Include file information  --

   VD_PERR_C.:VDA5TOU  is referenced.
   VD_MACROS_M.:VDA5TOU  is referenced.
   B$JIT_C.:E04TOU  was found in the system file and is never referenced.
   CP_6_C.:E04TOU  was found in the system file and is never referenced.
      No diagnostics issued in procedure VDA$LSAVE_OLD_NODE.

   Procedure VDA$LSAVE_OLD_NODE requires 131 words for executable code.
   Procedure VDA$LSAVE_OLD_NODE requires 12 words of local(AUTO) storage.

    No errors detected in file VDA$LOWER.:VDA5TSI    .

PL6.E3A0      #004=VDA$LSAVE_OLD_NODE File=VDA$LOWER.:VDA5TSI                    FRI 07/04/97 11:06 Page:209

 Object Unit name= VDA$LSAVE_OLD_NODE                         File name= VDA$LOWER.:VDA5TOU
 UTS= JUL 04 '97 11:06:43.00 FRI                              Compiler= PL-6/E31         Sev=      00
 SharedLib= :SHARED_SYSTEM                                    Alt SharedLib=


    ****  Control sections  ****

 Sect   Type Bound  Init  Size OctSiz  Section name(segment info)
    0  RoData even  UTS     11     13  VDA$LSAVE_OLD_NODE
    1   Proc  even  none   131    203  VDA$LSAVE_OLD_NODE
    2  RoData even  none     4      4  VDA$LSAVE_OLD_NODE

    ****  Entry defs  ****

                              Check   Calling
                             calling  sequence
  Sect OctLoc Primary Altret sequence   type   Parms  Name
     1      0   yes    yes     yes      Std        3  VDA$LSAVE_OLD_NODE

  ****  Entry refs  ****

         Check        Calling
        calling       sequence
Altret sequence SRef   type   Args  Name
         yes           Std       3 VDG$ESCREECH
 yes     yes           Std       3 VDG$OALLOC
 yes     yes           Std       4 VDA$LWRITE
 yes     yes           Std       2 VDG$OCOPY
 yes     yes           Std       2 VDG$OCOPY_LOCATION
 yes     yes           Std       1 VDG$OFREE
 yes     yes           Std       2 VDA$PFLUSH
                       nStd      0 X66_AUTO_3
                       Std       0 B_CONSPOOL_D
                       nStd      0 X66_AALT
                       nStd      0 X66_ARET
PL6.E3A0      #004=VDA$LSAVE_OLD_NODE File=VDA$LOWER.:VDA5TSI                    FRI 07/04/97 11:06 Page:210

  ****  Data refs  ****

  Flags:  r = read only, s = secondary
Flgs Name                             Flgs Name                             Flgs Name
     VD_6E                                 B_VECTNIL

  ****  Segment refs  ****

  Flags:  r = read only, s = secondary
Flgs Name                             Flgs Name                             Flgs Name
     ISSID
PL6.E3A0      #004=VDA$LSAVE_OLD_NODE File=VDA$LOWER.:VDA5TSI                    FRI 07/04/97 11:06 Page:211


     1563        1        /*T***********************************************************/
     1564        2        /*T*                                                         */
     1565        3        /*T* Copyright (c) Bull HN Information Systems Inc., 1997    */
     1566        4        /*T*                                                         */
     1567        5        /*T***********************************************************/
     1568        6
     1569        7        /*D* NAME: VDA$LSAVE_OLD_NODE
     1570        8            PARAMTERS:
     1571        9                STREAM - VD$STREAM to use; must not be the stream for the
     1572       10                    History file.  STREAM must be positioned to the old node;
     1573       11                    STREAM's port must contain the old node if NODE_EXISTS = %TRUE.
     1574       12                WRITE_LEVEL specifies the level # of the old node.
     1575       13                NODE_EXISTS - A BIT(1) ALIGNED flag.  If %TRUE, STREAM's PORT
     1576       14                    must contain the old node.
     1577       15                    If NODE_EXISTS = %FALSE, PORT's values are ignored.
     1578       16            INPUT:
     1579       17                VD_6E.HISTORY$ must point to the stream for the History file,
     1580       18                    which must be open.
     1581       19            OUTPUT:
     1582       20                The History file will have a record appended to its end,
     1583       21                    containing a copy of the old node, ready to be encoded
     1584       22                    if necessary.  Note that this record is not encoded by
     1585       23                    VDA$LSAVE_OLD_NODE; the record is encoded only when
     1586       24                    it is written to an external file (which could happen
     1587       25                    as part of the VDA$LWRITE performed by this routine, or
     1588       26                    it could happen much later, if ever).
     1589       27            DESCRIPTION:
     1590       28                Allocate the VD$ENCODED_NODE structure, and build its keys.
     1591       29                If the old node exists, make new copies of its Spec and Data
     1592       30                    components and hang them off the encoded node.
     1593       31                    (We must make new copies, rather than just steal the old
     1594       32                    ones from the Port, 'cause the NODE_WRITER$$ needs to
     1595       33                    see the components it's replacing.)
     1596       34                Write the VD$ENCODED_NODE to the end of the History file.
     1597       35        */
     1598       36
PL6.E3A0      #004=VDA$LSAVE_OLD_NODE File=VDA$LOWER.:VDA5TSI                    FRI 07/04/97 11:06 Page:212
     1599       37        VDA$LSAVE_OLD_NODE: PROC (STREAM, WRITE_LEVEL, NODE_EXISTS) ALTRET;

     37  1 000000   000000 700200 xent  VDA$LSAVE_O* TSX0  ! X66_AUTO_3
         1 000001   000014 000003                    ZERO    12,3

     1600       38
     1601       39
     1602       40        %INCLUDE VD_MACROS_M;
     1603     2255        %INCLUDE VD_PERR_C;
     1604     2403
     1605     2404        %VD$STREAM (NAME=STREAM, STCLASS=PARAM);
     1606     2510    1   DCL WRITE_LEVEL SBIN;
     1607     2511    1   DCL NODE_EXISTS BIT(1) ALIGNED;
     1608     2512
     1609     2513
     1610     2514    1   DCL VDA$LWRITE          ENTRY (4) ALTRET;
     1611     2515    1   DCL VDA$PFLUSH          ENTRY (2) ALTRET;
     1612     2516    1   DCL VDG$OCOPY           ENTRY (2) ALTRET;
     1613     2517    1   DCL VDG$OCOPY_LOCATION  ENTRY (2) ALTRET;
     1614     2518    1   DCL VDG$OALLOC          ENTRY (3) ALTRET;
     1615     2519    1   DCL VDG$OFREE           ENTRY (1) ALTRET;
     1616     2520    1   DCL VDG$ESCREECH        ENTRY (3);
     1617     2521
     1618     2522
     1619     2523        %VD_6E (STCLASS=SYMREF);
     1620     2559
     1621     2560
     1622     2561        %VD_LOCATION (NAME=HISTORY_EOF, STCLASS=CONSTANT, IEOF=%TRUE);
     1623     2601
     1624     2602
     1625     2603
     1626     2604    1   DCL ENCODED_NODE$ PTR;
     1627     2605
     1628     2606
     1629     2607        %VD$PORT (NAME=PORT, STCLASS="BASED(STREAM.PORT$)");
     1630     2705        %VD$ENCODED_NODE (NAME=ENCODED$NODE, STCLASS="BASED(ENCODED_NODE$)");
     1631     2826        %VD$STREAM (NAME=HISTORY$STREAM, STCLASS="BASED(VD_6E.HISTORY$)");
PL6.E3A0      #004=VDA$LSAVE_OLD_NODE File=VDA$LOWER.:VDA5TSI                    FRI 07/04/97 11:06 Page:213
     1632     2932        %VD$TEXTC_REMOTE;
     1633     2993        %VD$BUFFER;
     1634     3051        %VD$PORT;
     1635     3149
     1636     3150
     1637     3151
     1638     3152    1           IF PORT.EXIST# = 0

   3152  1 000002   200003 470500                    LDP0    @STREAM,,AUTO
         1 000003   000001 471500                    LDP1    1,,PR0
         1 000004   100003 720100                    LXL0    3,,PR1
         1 000005   000011 600000 1                  TZE     s:3154
         1 000006   000000 236000 xsym               LDQ     VD_6E
         1 000007   000001 116000 xsym               CMPQ    B_VECTNIL+1
         1 000010   000021 601000 1                  TNZ     s:3156

     1639     3153    1             OR VD_6E.HISTORY$ = ADDR(NIL) THEN
     1640     3154    1              CALL VDG$ESCREECH (PORT.EXIST#);

   3154  1 000011   200011 451500                    STP1    ENCODED_NODE$+3,,AUTO
         1 000012   200011 236100                    LDQ     ENCODED_NODE$+3,,AUTO
         1 000013   000000 036000 2                  ADLQ    0
         1 000014   200010 756100                    STQ     ENCODED_NODE$+2,,AUTO
         1 000015   200010 630500                    EPPR0   ENCODED_NODE$+2,,AUTO
         1 000016   000017 631400 xsym               EPPR1   B_VECTNIL+15
         1 000017   000000 701000 xent               TSX1    VDG$ESCREECH
         1 000020   000000 011000                    NOP     0

     1641     3155
     1642     3156    1           CALL VDG$OALLOC (%CLS_ENCODED_NODE, ENCODED_NODE$)

   3156  1 000021   200006 630500                    EPPR0   ENCODED_NODE$,,AUTO
         1 000022   200011 450500                    STP0    ENCODED_NODE$+3,,AUTO
         1 000023   000001 236000 2                  LDQ     1
         1 000024   200010 756100                    STQ     ENCODED_NODE$+2,,AUTO
         1 000025   200010 630500                    EPPR0   ENCODED_NODE$+2,,AUTO
         1 000026   000020 631400 xsym               EPPR1   B_VECTNIL+16
PL6.E3A0      #004=VDA$LSAVE_OLD_NODE File=VDA$LOWER.:VDA5TSI                    FRI 07/04/97 11:06 Page:214
         1 000027   000000 701000 xent               TSX1    VDG$OALLOC
         1 000030   000202 702000 1                  TSX2    PFLUSH_FAILED

     1643     3157    1             ALTRET (OALLOC_FAILED);
     1644     3158
     1645     3159                %COPYKEY (FKEY=STREAM.FILE_KEY, TKEY=ENCODED$NODE.DESC.FILE_KEY);

   3172  1 000031   200003 470500                    LDP0    @STREAM,,AUTO
         1 000032   200006 471500                    LDP1    ENCODED_NODE$,,AUTO
         1 000033   000100 100500                    MLR     fill='000'O
         1 000034   000004 000010                    ADSC9   4,,PR0                   cn=0,n=8
         1 000035   100012 000010                    ADSC9   10,,PR1                  cn=0,n=8

   3172  1 000036   000004 720100                    LXL0    4,,PR0
         1 000037   000002 100003                    CMPX0   2,DU
         1 000040   000054 601000 1                  TNZ     s:3176

   3172  1 000041   000005 473500                    LDP3    5,,PR0
         1 000042   200006 236100                    LDQ     ENCODED_NODE$,,AUTO
         1 000043   000013 036003                    ADLQ    11,DU
         1 000044   200011 756100                    STQ     ENCODED_NODE$+3,,AUTO
         1 000045   200010 453500                    STP3    ENCODED_NODE$+2,,AUTO
         1 000046   200010 630500                    EPPR0   ENCODED_NODE$+2,,AUTO
         1 000047   000020 631400 xsym               EPPR1   B_VECTNIL+16
         1 000050   000000 701000 xent               TSX1    VDG$OCOPY
         1 000051   000053 702000 1                  TSX2    s:3173
         1 000052   000054 710000 1                  TRA     s:3176

   3173  1 000053   000000 702200 xent               TSX2  ! X66_AALT

     1646     3175
     1647     3176    1           CALL VDG$OCOPY_LOCATION (STREAM.CURRENT, ENCODED$NODE.DESC.LOCATION)

   3176  1 000054   200006 236100                    LDQ     ENCODED_NODE$,,AUTO
         1 000055   000014 036003                    ADLQ    12,DU
         1 000056   200011 756100                    STQ     ENCODED_NODE$+3,,AUTO
         1 000057   200003 236100                    LDQ     @STREAM,,AUTO
PL6.E3A0      #004=VDA$LSAVE_OLD_NODE File=VDA$LOWER.:VDA5TSI                    FRI 07/04/97 11:06 Page:215
         1 000060   000006 036003                    ADLQ    6,DU
         1 000061   200010 756100                    STQ     ENCODED_NODE$+2,,AUTO
         1 000062   200010 630500                    EPPR0   ENCODED_NODE$+2,,AUTO
         1 000063   000020 631400 xsym               EPPR1   B_VECTNIL+16
         1 000064   000000 701000 xent               TSX1    VDG$OCOPY_LOCATION
         1 000065   000202 702000 1                  TSX2    PFLUSH_FAILED

     1648     3177    1             ALTRET (OCOPY_LOCATION_FAILED);
     1649     3178
     1650     3179    2           IF NODE_EXISTS THEN DO;

   3179  1 000066   200005 470500                    LDP0    @NODE_EXISTS,,AUTO
         1 000067   000000 234100                    SZN     0,,PR0
         1 000070   000151 605000 1                  TPL     s:3204

     1651     3180                   %COPYSPEC (FSPEC=PORT.LEVEL.SPEC, FINDX=WRITE_LEVEL,
     1652     3181                   TSPEC=ENCODED$NODE.DESC.SPEC);

   3194  1 000071   200003 471500                    LDP1    @STREAM,,AUTO
         1 000072   100001 473500                    LDP3    1,,PR1
         1 000073   200004 474500                    LDP4    @WRITE_LEVEL,,AUTO
         1 000074   400000 236100                    LDQ     0,,PR4
         1 000075   000007 402007                    MPY     7,DL
         1 000076   000002 736000                    QLS     2
         1 000077   200006 475500                    LDP5    ENCODED_NODE$,,AUTO
         1 000100   000100 100506                    MLR     fill='000'O
         1 000101   300025 000010                    ADSC9   21,Q,PR3                 cn=0,n=8
         1 000102   500026 000010                    ADSC9   22,,PR5                  cn=0,n=8

   3194  1 000103   100001 473500                    LDP3    1,,PR1
         1 000104   400000 236100                    LDQ     0,,PR4
         1 000105   000007 402007                    MPY     7,DL
         1 000106   300025 720106                    LXL0    21,QL,PR3
         1 000107   000002 100003                    CMPX0   2,DU
         1 000110   000126 601000 1                  TNZ     s:3198

   3194  1 000111   400000 236100                    LDQ     0,,PR4
PL6.E3A0      #004=VDA$LSAVE_OLD_NODE File=VDA$LOWER.:VDA5TSI                    FRI 07/04/97 11:06 Page:216
         1 000112   000007 402007                    MPY     7,DL
         1 000113   300026 476506                    LDP6    22,QL,PR3
         1 000114   200006 236100                    LDQ     ENCODED_NODE$,,AUTO
         1 000115   000027 036003                    ADLQ    23,DU
         1 000116   200011 756100                    STQ     ENCODED_NODE$+3,,AUTO
         1 000117   200010 456500                    STP6    ENCODED_NODE$+2,,AUTO
         1 000120   200010 630500                    EPPR0   ENCODED_NODE$+2,,AUTO
         1 000121   000020 631400 xsym               EPPR1   B_VECTNIL+16
         1 000122   000000 701000 xent               TSX1    VDG$OCOPY
         1 000123   000125 702000 1                  TSX2    s:3195
         1 000124   000126 710000 1                  TRA     s:3198

   3195  1 000125   000000 702200 xent               TSX2  ! X66_AALT

     1653     3197
     1654     3198    3              IF PORT.LEVEL.DATA$ (WRITE_LEVEL) ~= ADDR(NIL) THEN DO;

   3198  1 000126   200003 470500                    LDP0    @STREAM,,AUTO
         1 000127   000001 471500                    LDP1    1,,PR0
         1 000130   200004 473500                    LDP3    @WRITE_LEVEL,,AUTO
         1 000131   300000 236100                    LDQ     0,,PR3
         1 000132   000007 402007                    MPY     7,DL
         1 000133   100027 236106                    LDQ     23,QL,PR1
         1 000134   000001 116000 xsym               CMPQ    B_VECTNIL+1
         1 000135   000151 600000 1                  TZE     s:3204

     1655     3199    3                 CALL VDG$OCOPY (PORT.LEVEL.DATA$ (WRITE_LEVEL) -> VD$BUFFER,

   3199  1 000136   300000 236100                    LDQ     0,,PR3
         1 000137   000007 402007                    MPY     7,DL
         1 000140   100027 474506                    LDP4    23,QL,PR1
         1 000141   200006 236100                    LDQ     ENCODED_NODE$,,AUTO
         1 000142   000030 036003                    ADLQ    24,DU
         1 000143   200011 756100                    STQ     ENCODED_NODE$+3,,AUTO
         1 000144   200010 454500                    STP4    ENCODED_NODE$+2,,AUTO
         1 000145   200010 630500                    EPPR0   ENCODED_NODE$+2,,AUTO
         1 000146   000020 631400 xsym               EPPR1   B_VECTNIL+16
PL6.E3A0      #004=VDA$LSAVE_OLD_NODE File=VDA$LOWER.:VDA5TSI                    FRI 07/04/97 11:06 Page:217
         1 000147   000000 701000 xent               TSX1    VDG$OCOPY
         1 000150   000202 702000 1                  TSX2    PFLUSH_FAILED

     1656     3200    3                   ENCODED$NODE.DESC.DATA$)
     1657     3201    3                   ALTRET (OCOPY_FAILED);
     1658     3202    3                 END;

     1659     3203    2              END;

     1660     3204    1           CALL VDA$LWRITE (HISTORY$STREAM, HISTORY_EOF, , ENCODED$NODE)

   3204  1 000151   200006 236100                    LDQ     ENCODED_NODE$,,AUTO
         1 000152   000001 235000 xsym               LDA     B_VECTNIL+1
         1 000153   200012 757100                    STAQ    ENCODED_NODE$+4,,AUTO
         1 000154   000002 236000 2                  LDQ     2
         1 000155   000000 235000 xsym               LDA     VD_6E
         1 000156   200010 757100                    STAQ    ENCODED_NODE$+2,,AUTO
         1 000157   200010 630500                    EPPR0   ENCODED_NODE$+2,,AUTO
         1 000160   000022 631400 xsym               EPPR1   B_VECTNIL+18
         1 000161   000000 701000 xent               TSX1    VDA$LWRITE
         1 000162   000175 702000 1                  TSX2    LWRITE_FAILED

     1661     3205    1             ALTRET (LWRITE_FAILED);
     1662     3206    1           CALL VDA$PFLUSH (HISTORY$STREAM.PORT$->VD$PORT, %TO_PRESENTER)

   3206  1 000163   000000 470400 xsym               LDP0    VD_6E
         1 000164   000001 471500                    LDP1    1,,PR0
         1 000165   000003 236000 2                  LDQ     3
         1 000166   200011 756100                    STQ     ENCODED_NODE$+3,,AUTO
         1 000167   200010 451500                    STP1    ENCODED_NODE$+2,,AUTO
         1 000170   200010 630500                    EPPR0   ENCODED_NODE$+2,,AUTO
         1 000171   000020 631400 xsym               EPPR1   B_VECTNIL+16
         1 000172   000000 701000 xent               TSX1    VDA$PFLUSH
         1 000173   000202 702000 1                  TSX2    PFLUSH_FAILED

     1663     3207    1             ALTRET (PFLUSH_FAILED);
     1664     3208
PL6.E3A0      #004=VDA$LSAVE_OLD_NODE File=VDA$LOWER.:VDA5TSI                    FRI 07/04/97 11:06 Page:218
     1665     3209    1           RETURN;

   3209  1 000174   000000 702200 xent               TSX2  ! X66_ARET

     1666     3210
     1667     3211
     1668     3212
     1669     3213    1   LWRITE_FAILED:
     1670     3214    1           CALL VDG$OFREE (ENCODED$NODE)

   3214  1 000175   200006 630500       LWRITE_FAIL* EPPR0   ENCODED_NODE$,,AUTO
         1 000176   000017 631400 xsym               EPPR1   B_VECTNIL+15
         1 000177   000000 701000 xent               TSX1    VDG$OFREE
         1 000200   000202 702000 1                  TSX2    PFLUSH_FAILED

     1671     3215    1             ALTRET (OFREE_FAILED);
     1672     3216    1           ALTRETURN;

   3216  1 000201   000000 702200 xent               TSX2  ! X66_AALT

   3214  1 000202                       PFLUSH_FAIL* null
   3214  1 000202                       OALLOC_FAIL* null
   3214  1 000202                       OFREE_FAILED null
   3214  1 000202                       OCOPY_FAILED null
   3214  1 000202                       OCOPY_LOCAT* null
     1673     3217
     1674     3218
     1675     3219    1   PFLUSH_FAILED: ;
     1676     3220    1   OALLOC_FAILED: ;
     1677     3221    1   OFREE_FAILED: ;
     1678     3222    1   OCOPY_FAILED: ;
     1679     3223    1   OCOPY_LOCATION_FAILED: ;
     1680     3224    1           ALTRETURN;

   3224  1 000202   000000 702200 xent               TSX2  ! X66_AALT
     1681     3225
     1682     3226    1   END VDA$LSAVE_OLD_NODE;
PL6.E3A0      #004=VDA$LSAVE_OLD_NODE File=VDA$LOWER.:VDA5TSI                    FRI 07/04/97 11:06 Page:219

PL6.E3A0      #004=VDA$LSAVE_OLD_NODE File=VDA$LOWER.:VDA5TSI                    FRI 07/04/97 11:06 Page:220
--  Include file information  --

   VD_PERR_C.:VDA5TOU  is referenced.
   VD_MACROS_M.:VDA5TOU  is referenced.
   B$JIT_C.:E04TOU  was found in the system file and is never referenced.
   CP_6_C.:E04TOU  was found in the system file and is never referenced.
      No diagnostics issued in procedure VDA$LSAVE_OLD_NODE.
PL6.E3A0      #004=VDA$LSAVE_OLD_NODE File=VDA$LOWER.:VDA5TSI                    FRI 07/04/97 11:06 Page:221

 **** Variables and constants ****

  ****  Section 000 RoData VDA$LSAVE_OLD_NODE

  ****  Scalars and arrays  ****
OctLoc.c.b A Datatyp(siz) R M Lvl/name                 OctLoc.c.b A Datatyp(siz) R M Lvl/name

     0-0-0/w STRC(396)   r     1 HISTORY_EOF

  ****  Auto variables  ****

  ****  Scalars and arrays  ****
OctLoc.c.b A Datatyp(siz) R M Lvl/name                 OctLoc.c.b A Datatyp(siz) R M Lvl/name

     5-0-0/w PTR         r     1 @NODE_EXISTS               3-0-0/w PTR         r     1 @STREAM
     4-0-0/w PTR         r     1 @WRITE_LEVEL               6-0-0/w PTR         r     1 ENCODED_NODE$
    *0-0-0/w BIT         r     1 NODE_EXISTS               *0-0-0/w STRC(864)   r     1 STREAM
    *0-0-0/w SBIN        r     1 WRITE_LEVEL

  ****  SYMREF variables  ****

  ****  Scalars and arrays  ****
OctLoc.c.b A Datatyp(siz) R M Lvl/name                 OctLoc.c.b A Datatyp(siz) R M Lvl/name

     0-0-0/w STRC(22644) r     1 VD_6E

  ****  BASED and DCB variables  ****

  ****  Scalars and arrays  ****
OctLoc.c.b A Datatyp(siz) R M Lvl/name                 OctLoc.c.b A Datatyp(siz) R M Lvl/name

     0-0-0/w STRC(900)   r     1 ENCODED$NODE               0-0-0/w STRC(864)   r     1 HISTORY$STREAM
     0-0-0/w STRC(1944)  r     1 PORT                       0-0-0/w ASTR(90)    r     1 VD$BUFFER
     0-0-0/w STRC(1944)  r     1 VD$PORT                    0-0-0/w ASTR(81)    r     1 VD$TEXTC_REMOTE

PL6.E3A0      #004=VDA$LSAVE_OLD_NODE File=VDA$LOWER.:VDA5TSI                    FRI 07/04/97 11:06 Page:222

   Procedure VDA$LSAVE_OLD_NODE requires 131 words for executable code.
   Procedure VDA$LSAVE_OLD_NODE requires 12 words of local(AUTO) storage.

    No errors detected in file VDA$LOWER.:VDA5TSI    .
PL6.E3A0      #004=VDA$LSAVE_OLD_NODE File=VDA$LOWER.:VDA5TSI                    FRI 07/04/97 11:06 Page:223
          *** CROSS REFERENCE LISTING ***
**     DENOTES     IDENTIFIER DEFINITION
<<                 IDENTIFIER'S VALUE SET
>>                 IDENTIFIER'S VALUE USED
<>                 IDENTIFIER SET AND/OR USED
--                 IDENTIFIER REFERENCED
PL6.E3A0      #004=VDA$LSAVE_OLD_NODE File=VDA$LOWER.:VDA5TSI                    FRI 07/04/97 11:06 Page:224
          MINI XREF LISTING

ENCODED$NODE
      2713**DCL      3204<>CALL     3214<>CALL
ENCODED$NODE.DESC.DATA$
      2823**DCL      3199<>CALL
ENCODED$NODE.DESC.FILE_KEY
      2763**DCL      3172<<ASSIGN
ENCODED$NODE.DESC.FILE_KEY.V$
      2765**DCL      3172<>CALL
ENCODED$NODE.DESC.LOCATION
      2777**DCL      3176<>CALL
ENCODED$NODE.DESC.SPEC
      2819**DCL      3194<<ASSIGN
ENCODED$NODE.DESC.SPEC.V$
      2821**DCL      3194<>CALL
ENCODED_NODE$
      2604**DCL      2713--IMP-PTR  3156<>CALL     3172>>ASSIGN   3172>>CALL     3176>>CALL     3194>>ASSIGN
      3194>>CALL     3199>>CALL     3204>>CALL     3214>>CALL
HISTORY$STREAM
      2834**DCL      3204<>CALL
HISTORY$STREAM.PORT$
      2860**DCL      3206>>CALL
HISTORY_EOF
      2572**DCL      3204<>CALL
LWRITE_FAILED
      3214**LABEL    3204--CALLALT
NODE_EXISTS
      2511**DCL        37--PROC     3179>>IF
OALLOC_FAILED
      3214**LABEL    3156--CALLALT
OCOPY_FAILED
      3214**LABEL    3199--CALLALT
OCOPY_LOCATION_FAILED
PL6.E3A0      #004=VDA$LSAVE_OLD_NODE File=VDA$LOWER.:VDA5TSI                    FRI 07/04/97 11:06 Page:225
      3214**LABEL    3176--CALLALT
OFREE_FAILED
      3214**LABEL    3214--CALLALT
PFLUSH_FAILED
      3214**LABEL    3206--CALLALT
PORT.EXIST#
      2641**DCL      3152>>IF       3154<>CALL
PORT.LEVEL.DATA$
      2702**DCL      3198>>IF       3199>>CALL     3199>>CALL
PORT.LEVEL.SPEC
      2698**DCL      3194>>ASSIGN
PORT.LEVEL.SPEC.REP#
      2700**DCL      3194>>IF
PORT.LEVEL.SPEC.V$
      2700**DCL      3194>>CALL     3194>>CALL
STREAM
      2412**DCL        37--PROC
STREAM.CURRENT
      2463**DCL      3176<>CALL
STREAM.FILE_KEY
      2449**DCL      3172>>ASSIGN
STREAM.FILE_KEY.REP#
      2451**DCL      3172>>IF
STREAM.FILE_KEY.V$
      2451**DCL      3172>>CALL     3172>>CALL
STREAM.PORT$
      2438**DCL      2615--IMP-PTR  3152>>IF       3154>>CALL     3194>>ASSIGN   3194>>IF       3194>>CALL
      3194>>CALL     3198>>IF       3199>>CALL     3199>>CALL
VD$BUFFER
      3018**DCL      3199<>CALL
VD$BUFFER.LENGTH#
      3044**DCL      3046--IMP-SIZ  3199>>CALL
VD$PORT
      3059**DCL      3206<>CALL
VD$TEXTC_REMOTE
      2957**DCL      3172<>CALL     3194<>CALL
PL6.E3A0      #004=VDA$LSAVE_OLD_NODE File=VDA$LOWER.:VDA5TSI                    FRI 07/04/97 11:06 Page:226
VD$TEXTC_REMOTE.LENGTH#
      2986**DCL      2988--IMP-SIZ  3172>>CALL     3194>>CALL
VDA$LWRITE
      2514**DCL-ENT  3204--CALL
VDA$PFLUSH
      2515**DCL-ENT  3206--CALL
VDG$ESCREECH
      2520**DCL-ENT  3154--CALL
VDG$OALLOC
      2518**DCL-ENT  3156--CALL
VDG$OCOPY
      2516**DCL-ENT  3172--CALL     3194--CALL     3199--CALL
VDG$OCOPY_LOCATION
      2517**DCL-ENT  3176--CALL
VDG$OFREE
      2519**DCL-ENT  3214--CALL
VD_6E.HISTORY$
      2536**DCL      2834--IMP-PTR  3152>>IF       3204>>CALL     3206>>CALL
WRITE_LEVEL
      2510**DCL        37--PROC     3194>>ASSIGN   3194>>IF       3194>>CALL     3194>>CALL     3198>>IF
      3199>>CALL     3199>>CALL
