PL6.E3A0      #004=VDA$PDELETE File=VDA$PORT.:VDA5TSI                            FRI 07/04/97 11:08 Page:243
     1821        1        /*T***********************************************************/
     1822        2        /*T*                                                         */
     1823        3        /*T* Copyright (c) Bull HN Information Systems Inc., 1997    */
     1824        4        /*T*                                                         */
     1825        5        /*T***********************************************************/
     1826        6
     1827        7        /*D* NAME: VDA$PDELETE
     1828        8            PARAMETERS:
     1829        9                PORT - VD$PORT to use.  This Port must already be open,
     1830       10                    to either an external or internal file.
     1831       11                RANGE - VD$RANGE specifying the range of nodes to delete.
     1832       12                    This is an inclusive range:  RANGE.START specifies the first
     1833       13                    node to delete and RANGE.ENDD specifies the last node to
     1834       14                    delete.
     1835       15                    RANGE must be one of the following:
     1836       16                    BOF, EOF, or specific nodes, specified as follows:
     1837       17                    If .START or .ENDD = %CLEAR, this specifies BOF;
     1838       18                    If .START.EOF or .ENDD.EOF is set, this specifies EOF;
     1839       19                    Else .START.KEY or .ENDD.KEY (%(LVL_LOWER-1)) thru (n) must
     1840       20                        be given:  these are keys for levels %LVL_LOWER thru (n+1)
     1841       21                        of the file.
     1842       22
     1843       23                    Basic rule for RANGE:  we only allow deletion within one
     1844       24                    parent node, of one or more of that parent's kids -- you
     1845       25                    can't delete from some kid of node "A" thru some kid of
     1846       26                    node "B".
     1847       27                    Therefore:
     1848       28                        If RANGE.START = %CLEAR, then .ENDD must be either
     1849       29                            %CLEAR, .ENDD.EOF, or exactly one .ENDD.KEY given.
     1850       30                        If RANGE.ENDD.EOF is set, then .START must be either
     1851       31                            %CLEAR, .START.EOF, or exactly one .START.KEY given.
     1852       32                        Of course, if .START.EOF is set then the only valid
     1853       33                            .ENDD is .ENDD.EOF; if .ENDD = %CLEAR, then the
     1854       34                            only valid .START is %CLEAR.  In either case,
     1855       35                            nothing will be deleted.
     1856       36                        If neither .START nor .END specify BOF or EOF, then
     1857       37                            the number of keys in .START.KEY and .ENDD.KEY
PL6.E3A0      #004=VDA$PDELETE File=VDA$PORT.:VDA5TSI                            FRI 07/04/97 11:08 Page:244
     1858       38                            must be equal, and all .START.KEYs except the last
     1859       39                            must equal their counterpart in .ENDD.KEY.
     1860       40                            If the file has more than two levels, deletion will
     1861       41                            be at the lowest level given; for example, if the
     1862       42                            file has 5 levels but keys are only given for levels
     1863       43                            1 and 2, we will delete nodes at levels 2 thru 5:
     1864       44                            the specified node(s) at level 2, and all children
     1865       45                            of deleted level 2 nodes.
     1866       46                DEL_LEVEL - Top-most level in file structure at which to
     1867       47                    delete; we'll delete specified nodes at DEL_LEVEL and
     1868       48                    all children of the deleted DEL_LEVEL nodes.
     1869       49                    DEL_LEVEL must be > %LVL_FILE;
     1870       50                    for external files, DEL_LEVEL must be %LVL_EXT_REC.
     1871       51                COUNT - Uninitialized SBIN.
     1872       52            INPUT:
     1873       53            SCRATCH
     1874       54                VD_STATIC_TEMP
     1875       55            OUTPUT:
     1876       56                COUNT will contain the number of nodes at DEL_LEVEL which
     1877       57                    were actually deleted; this may be 0.
     1878       58                PORT will be repositioned to the node following the last
     1879       59                    node deleted, or eof.
     1880       60            DESCRIPTION:
     1881       61                Use different procedures for internal and external files.
     1882       62        */
     1883       63
     1884       64        VDA$PDELETE: PROC (PORT, RANGE, DEL_LEVEL, COUNT) ALTRET;
     1885       65
     1886       66
     1887       67        %INCLUDE VD_MACROS_M;
     1888     2282        %INCLUDE VD_PERR_C;
     1889     2430        %INCLUDE CP_6;
     1890     2511        %INCLUDE B_ERRORS_C;
     1891     3637
     1892     3638
     1893     3639        %VD$PORT (NAME=PORT, STCLASS=PARAM);
     1894     3737        %VD$RANGE (NAME=RANGE, STCLASS=PARAM);
PL6.E3A0      #004=VDA$PDELETE File=VDA$PORT.:VDA5TSI                            FRI 07/04/97 11:08 Page:245
     1895     3806    1   DCL DEL_LEVEL SBIN;
     1896     3807    1   DCL COUNT SBIN;
     1897     3808
     1898     3809
     1899     3810
     1900     3811    1   DCL VDA$PREAD           ENTRY (6) ALTRET;
     1901     3812    1   DCL VDG$OALLOC          ENTRY (3) ALTRET;
     1902     3813    1   DCL VDG$OFREE           ENTRY (1) ALTRET;
     1903     3814    1   DCL VDG$OCLEAR_LOCATION ENTRY (1) ALTRET;
     1904     3815    1   DCL VDG$BUILD_LOCATION  ENTRY (6) ALTRET;
     1905     3816    1   DCL VDG$ESCREECH        ENTRY (3);
     1906     3817    1   DCL VDG$MACC_PDELETE_EOF_KEY ENTRY (3);
     1907     3818    1   DCL VDG$MACC_PDELETE_BOF_KEY ENTRY (3);
     1908     3819    1   DCL VDG$MACC_PDELETE_DELREC ENTRY (3);
     1909     3820    1   DCL VDG$MACC_PDELETE_DCB_POS ENTRY (3);
     1910     3821
     1911     3822
     1912     3823        %VD_6E (STCLASS=SYMREF);
     1913     3859    1   DCL 1 VD_STATIC_TEMP SYMREF,
     1914     3860    1         2 START_KEY CHAR(%(MXNB_KEY+1)) ALIGNED,
     1915     3861    1         2 END_KEY CHAR(%(MXNB_KEY+1)) ALIGNED;
     1916     3862    1   DCL B$TCB$ PTR SYMREF;
     1917     3863        %VD$NUMBER (NAME=VD_$$MON_ACC, STCLASS=SYMREF);
     1918     3908
     1919     3909
     1920     3910        %FPT_PFIL (FPTN=CONST_FPT_PFIL, STCLASS=CONSTANT);
     1921     3925        %FPT_PRECORD (FPTN=CONST_FPT_PRECORD, STCLASS=CONSTANT, KEYS=NO,
     1922     3926                KEYR=YES);
     1923     3947        %FPT_DELREC (FPTN=CONST_FPT_DELREC, STCLASS=CONSTANT);
     1924     3966    1   DCL STATIC_TEMP_START$ PTR CONSTANT INIT(ADDR(VD_STATIC_TEMP.START_KEY));
     1925     3967    1   DCL STATIC_TEMP_END$ PTR CONSTANT INIT(ADDR(VD_STATIC_TEMP.END_KEY));
     1926     3968
     1927     3969
     1928     3970
     1929     3971    1   DCL FIXED_KEY_LEN SBIN;
     1930     3972
     1931     3973
PL6.E3A0      #004=VDA$PDELETE File=VDA$PORT.:VDA5TSI                            FRI 07/04/97 11:08 Page:246
     1932     3974        %VD$TEXTC (NAME=STATIC$TEMP_START_KEY, STCLASS="BASED(STATIC_TEMP_START$)");
     1933     3997    1   DCL STATIC$TEMP_START_NUM SBIN BASED(STATIC_TEMP_START$);
     1934     3998    1   DCL STATIC$TEMP_END_NUM SBIN BASED(STATIC_TEMP_END$);
     1935     3999    1   DCL 1 STATIC$TEMP_START_FIXED BASED(STATIC_TEMP_START$),
     1936     4000    1         2 BYTES CHAR(FIXED_KEY_LEN);
     1937     4001    1   DCL 1 STATIC$TEMP_END_FIXED BASED(STATIC_TEMP_END$),
     1938     4002    1         2 BYTES CHAR(FIXED_KEY_LEN);
     1939     4003        %B$TCB (NAME=B$TCB, STCLASS="BASED(B$TCB$)");
     1940     4006        %B$ALT;
     1941     4014
     1942     4015
     1943     4016
     1944     4017    1           IF PORT.EXIST# = 0
     1945     4018    1             OR DEL_LEVEL <= %LVL_FILE THEN
     1946     4019    1              CALL VDG$ESCREECH (PORT.EXIST#, DEL_LEVEL);
     1947     4020
     1948     4021    1           IF PORT.DCB# = 0 THEN
     1949     4022    1              CALL DELETE_INTERNAL
     1950     4023    1                ALTRET (DELETE_INTERNAL_FAILED);
     1951     4024    1           ELSE
     1952     4025    1              CALL DELETE_EXTERNAL
     1953     4026    1                ALTRET (DELETE_EXTERNAL_FAILED);
     1954     4027
     1955     4028    1           RETURN;
     1956     4029
     1957     4030
     1958     4031
     1959     4032    1   DELETE_INTERNAL_FAILED: ;
     1960     4033    1   DELETE_EXTERNAL_FAILED: ;
     1961     4034    1           ALTRETURN;
     1962     4035
     1963     4036                %BOX (TITLE=DELETE_INTERNAL, PAGE=YES);
              4044    1
              4048    1   /***************************************************************************
              4050    1    *                                                                         *
              4054    1            *                              DELETE_INTERNAL                            *
              4056    1            *                                                                         *
PL6.E3A0      #004=VDA$PDELETE File=VDA$PORT.:VDA5TSI                            FRI 07/04/97 11:08 Page:247
              4058    1           ***************************************************************************/

     1964     4062
     1965     4063        /*I* NAME: DELETE_INTERNAL
     1966     4064            PARAMETERS:
     1967     4065                None.
     1968     4066            INPUT:
     1969     4067                PORT - VD$PORT to use.  If it contained any .SPEC/DATA_MODIFIED
     1970     4068                    nodes, they must already have been flushed to the file.
     1971     4069                DEL_LEVEL - Top-most level in file structure at which to
     1972     4070                    delete; we'll delete specified nodes at DEL_LEVEL and all
     1973     4071                    children of the deleted DEL_LEVEL nodes.
     1974     4072                RANGE - Range to delete (inclusive).
     1975     4073            OUTPUT:
     1976     4074                COUNT will contain the number of nodes at DEL_LEVEL
     1977     4075                    which were actually deleted.
     1978     4076                PORT.CURRENT will specify the node following
     1979     4077                    the last node deleted, or if none, eof.
     1980     4078            DESCRIPTION:
     1981     4079                Call VDA$PREAD to find the first node to delete; remember
     1982     4080                    the node.
     1983     4081                Call VDA$PREAD again to find the node following the last node
     1984     4082                    to delete (and incidentally to count the nodes in between).
     1985     4083                If there are any nodes to delete:
     1986     4084                    Delink the nodes from the file tree.
     1987     4085                    Loop thru the nodes, calling VDG$OFREE to free them.
     1988     4086        */
     1989     4087
     1990     4088    1   DELETE_INTERNAL: PROC ALTRET;
     1991     4089
     1992     4090
     1993     4091    2   DCL AT_EOF BIT(1) ALIGNED;
     1994     4092    2   DCL DEL_PARENT$ PTR;
     1995     4093    2   DCL DEL_START$ PTR;
     1996     4094    2   DCL DEL_END$ PTR;
     1997     4095
     1998     4096
PL6.E3A0      #004=VDA$PDELETE File=VDA$PORT.:VDA5TSI                            FRI 07/04/97 11:08 Page:248
     1999     4097        %VD$FILE_NODE (NAME=DEL$PARENT, STCLASS="BASED(DEL_PARENT$)");
     2000     4190        %VD$FILE_NODE (NAME=DEL$START, STCLASS="BASED(DEL_START$)");
     2001     4283        %VD$FILE_NODE (NAME=DEL$END, STCLASS="BASED(DEL_END$)");
     2002     4376        %VD$FILE_NODE;
     2003     4469
     2004     4470
     2005     4471
     2006     4472    2           COUNT = 0;
     2007     4473
     2008     4474    2           CALL VDA$PREAD (PORT, RANGE.START, 0, %FALSE)
     2009     4475    2             ALTRET (PREAD_FAILED);
     2010     4476    2           IF PORT.CURRENT.EOF THEN
     2011     4477    2              RETURN;      /* Nothing to delete */
     2012     4478    2           DEL_START$ = PORT.LEVEL.INTERNAL$ (DEL_LEVEL);
     2013     4479    2           DEL_PARENT$ = PORT.LEVEL.INTERNAL$ (DEL_LEVEL - 1);
     2014     4480
     2015     4481    2           CALL VDA$PREAD (PORT, RANGE.ENDD, 1, %FALSE, , COUNT)
     2016     4482    2             ALTRET (PREAD_FAILED);
     2017     4483    2           DEL_END$ = PORT.LEVEL.INTERNAL$ (DEL_LEVEL);
     2018     4484                /* DEL_END$ points to node FOLLOWING last node to delete */
     2019     4485
     2020     4486    2           IF COUNT > 0
     2021     4487    2             OR DEL_START$ = DEL_END$ THEN
     2022     4488    3   DELETE_NODES: DO;
     2023     4489    3              VD_6E.STATS# (%STG_ACC_INT_DELETIONS) =
     2024     4490    3                VD_6E.STATS# (%STG_ACC_INT_DELETIONS) + COUNT;
     2025     4491                   /*
     2026     4492                   *    When deleting nodes which are contiguous kids of one
     2027     4493                   *    parent, we first delink the nodes from the file
     2028     4494                   *    tree, then free them.
     2029     4495                   *    To delink the nodes from the file tree, there are
     2030     4496                   *    four pointers which need to be adjusted:
     2031     4497                   *        o The forward and backward pointers into the
     2032     4498                   *            nodes to be delinked; these may be sibling
     2033     4499                   *            pointers (.FLINK$/.BLINK$) or parent-child
     2034     4500                   *            pointers (.HEAD$/.TAIL$).
     2035     4501                   *        o The backward link from the first delinked node.
PL6.E3A0      #004=VDA$PDELETE File=VDA$PORT.:VDA5TSI                            FRI 07/04/97 11:08 Page:249
     2036     4502                   *        o The forward link from the last delinked node.
     2037     4503                   */
     2038     4504
     2039     4505    3              IF DEL$START.BLINK$ = ADDR(NIL) THEN
     2040     4506    3                 DEL$PARENT.HEAD$ = DEL_END$;
     2041     4507    3              ELSE
     2042     4508    3                 DEL$START.BLINK$ -> VD$FILE_NODE.FLINK$ = DEL_END$;
     2043     4509    3              IF DEL_END$ = ADDR(NIL) THEN
     2044     4510    3                 DEL$PARENT.TAIL$ = DEL$START.BLINK$;
     2045     4511    4              ELSE DO;
     2046     4512    4                 DEL$END.BLINK$ -> VD$FILE_NODE.FLINK$ = ADDR(NIL);
     2047     4513    4                 DEL$END.BLINK$ = DEL$START.BLINK$;
     2048     4514    4                 END;
     2049     4515    3              DEL$START.BLINK$ = ADDR(NIL);
     2050     4516
     2051     4517    3              DEL$PARENT.COUNT# = DEL$PARENT.COUNT# - COUNT;
     2052     4518    3              IF DEL$PARENT.COUNT# < 0 THEN
     2053     4519    3                 CALL VDG$ESCREECH (DEL$PARENT.COUNT#, COUNT);
     2054     4520
     2055     4521                   /* VDG$OFREE will delete DEL$START and all its .FLINK$s */
     2056     4522    3              CALL VDG$OFREE (DEL$START)
     2057     4523    3                ALTRET (OFREE_FAILED);
     2058     4524    3              END DELETE_NODES;
     2059     4525
     2060     4526    2           PORT.LAST_OP# = %ACCOP_DELETE;
     2061     4527
     2062     4528    2           RETURN;
     2063     4529
     2064     4530
     2065     4531
     2066     4532    2   PREAD_FAILED: ;
     2067     4533    2   OFREE_FAILED: ;
     2068     4534    2           ALTRETURN;
     2069     4535
     2070     4536    2   END DELETE_INTERNAL;
     2071     4537
     2072     4538
PL6.E3A0      #004=VDA$PDELETE File=VDA$PORT.:VDA5TSI                            FRI 07/04/97 11:08 Page:250
     2073     4539                %BOX (TITLE=DELETE_EXTERNAL, PAGE=YES);
              4547    2
              4551    2   /***************************************************************************
              4553    2    *                                                                         *
              4557    2            *                              DELETE_EXTERNAL                            *
              4559    2            *                                                                         *
              4561    2           ***************************************************************************/

     2074     4565
     2075     4566        /*I* NAME: DELETE_EXTERNAL
     2076     4567            PARAMETERS:
     2077     4568            INPUT:
     2078     4569                PORT - VD$PORT to use.  If it contained any .SPEC/DATA_MODIFIED
     2079     4570                    nodes, they must already have been flushed to the file.
     2080     4571                DEL_LEVEL - Top-most level in file structure at which to
     2081     4572                    delete.
     2082     4573                    NOTE:  DEL_LEVEL must = %LVL_EXT_REC.
     2083     4574                RANGE - Range to delete (inclusive).
     2084     4575            OUTPUT:
     2085     4576                COUNT will contain the number of records deleted.
     2086     4577                PORT.CURRENTs will specify the record following
     2087     4578                    the last record deleted, or if none, eof.
     2088     4579            DESCRIPTION:
     2089     4580                If the end of the range to delete is EOF and the start isn't
     2090     4581                    also EOF, do an M$PFIL then M$PRECORD to get the last key
     2091     4582                    of the file.
     2092     4583                If the start of the range to delete is BOF, do an M$PFIL
     2093     4584                    then M$PRECORD to get the first key of the file.
     2094     4585                If the start isn't EOF and the end isn't BOF, and the
     2095     4586                    positionings above didn't find an empty file, do the
     2096     4587                    M$DELREC.
     2097     4588                Position the port to the record following the end of the range.
     2098     4589        */
     2099     4590
     2100     4591    1   DELETE_EXTERNAL: PROC ALTRET;
     2101     4592
     2102     4593
PL6.E3A0      #004=VDA$PDELETE File=VDA$PORT.:VDA5TSI                            FRI 07/04/97 11:08 Page:251
     2103     4594    2   DCL DO_DELREC BIT(1) ALIGNED;
     2104     4595    2   DCL PORT_DCB$ PTR;
     2105     4596    2   DCL DEL_START_KEY$ PTR;
     2106     4597    2   DCL DEL_END_KEY$ PTR;
     2107     4598        %VD$ERR_CODE (NAME=ERR_CODE, STCLASS=AUTO);
     2108     4613        %VD$ERR_CODE (NAME=START_BOF_ERR_CODE, STCLASS=AUTO);
     2109     4628        %FPT_PFIL (FPTN=FPT_PFIL, STCLASS=AUTO);
     2110     4643        %FPT_PRECORD (STCLASS=AUTO);
     2111     4664        %FPT_DELREC (FPTN=FPT_DELREC, STCLASS=AUTO);
     2112     4683    2   DCL VD_ERR$ PTR;
     2113     4684
     2114     4685
     2115     4686        %F$DCB (DCBN=PORT$DCB, STCLASS="BASED(PORT_DCB$)");
     2116     4743        %VD$TEXTC (NAME=DEL$START_KEY, STCLASS="BASED(DEL_START_KEY$)");
     2117     4766        %VD$TEXTC (NAME=DEL$END_KEY, STCLASS="BASED(DEL_END_KEY$)");
     2118     4789        %VD$TEXTC_REMOTE;
     2119     4850        %VD$BUFFER;
     2120     4908        %VD$ERR (NAME=VD$ERR, STCLASS="BASED(VD_ERR$)");
     2121     4961
     2122     4962
     2123     4963
     2124     4964    2           COUNT = 0;
     2125     4965    2           DO_DELREC = %TRUE;  /* Assume there's something to delete */
     2126     4966    2           PORT_DCB$ = DCBADDR(PORT.DCB#);
     2127     4967
     2128     4968    2           FPT_PFIL = CONST_FPT_PFIL;
     2129     4969    2           FPT_PFIL.V_ = VECTOR(FPT_PFIL.V);
     2130     4970    2           FPT_PFIL.V.DCB# = PORT.DCB#;
     2131     4971
     2132     4972    2           FPT_PRECORD = CONST_FPT_PRECORD;
     2133     4973    2           FPT_PRECORD.V_ = VECTOR(FPT_PRECORD.V);
     2134     4974    2           FPT_PRECORD.V.DCB# = PORT.DCB#;
     2135     4975
     2136     4976    2           FPT_DELREC = CONST_FPT_DELREC;
     2137     4977    2           FPT_DELREC.V_ = VECTOR(FPT_DELREC.V);
     2138     4978    2           FPT_DELREC.V.DCB# = PORT.DCB#;
     2139     4979
PL6.E3A0      #004=VDA$PDELETE File=VDA$PORT.:VDA5TSI                            FRI 07/04/97 11:08 Page:252
     2140     4980                /*
     2141     4981                *   First, resolve the end-location of the range to a record
     2142     4982                *       key, and setup FPT_DELREC's end-key.
     2143     4983                */
     2144     4984    2           IF RANGE.ENDD.EOF THEN
     2145     4985    3   FIND_EOF_KEY: DO;
     2146     4986                   /* Read end-key into last half of VD_STATIC_TEMP */
     2147     4987    4              DO CASE (PORT.LEVEL.ORG# (%LVL_EXT_REC));
     2148     4988    4               CASE (%ORG_CONSEC);
     2149     4989    4                 FPT_PRECORD.KEY_ = VECTOR(STATIC$TEMP_END_NUM);
     2150     4990    4               CASE (%ORG_KEYED);
     2151     4991    4                 FPT_PRECORD.KEY_ = VECTOR(VD_STATIC_TEMP.END_KEY);
     2152     4992    4               CASE (%ORG_INDEXED);
     2153     4993    4                 FIXED_KEY_LEN = PORT$DCB.KEYL#;
     2154     4994    4                 FPT_PRECORD.KEY_ = VECTOR(STATIC$TEMP_END_FIXED.BYTES);
     2155     4995    4               CASE (ELSE);
     2156     4996    4                 CALL VDG$ESCREECH (PORT.LEVEL.ORG# (%LVL_EXT_REC));
     2157     4997    4               END;
     2158     4998    3              FPT_DELREC.LKEY_ = FPT_PRECORD.KEY_;
     2159     4999
     2160     5000    3              FPT_PFIL.V.BOF# = %FALSE;
     2161     5001    3              PORT.LAST_OP# = %ACCOP_LOCATION;
     2162     5002    3              CALL M$PFIL (FPT_PFIL)
     2163     5003    3                ALTRET (PFIL_FAILED);
     2164     5004    3              FPT_PRECORD.V.N# = -1;
     2165     5005    3              CALL M$PRECORD (FPT_PRECORD)
     2166     5006    4              WHENALTRETURN DO;
     2167     5007    4                 ERR_CODE = B$TCB.ALT$->B$ALT.ERR;
     2168     5008    4                 IF ERR_CODE.CODE# = %E$BOF THEN
     2169     5009    4                    DO_DELREC = %FALSE;    /* File is empty */
     2170     5010    4                 ELSE
     2171     5011    4                    GOTO PRECORD_FAILED;
     2172     5012    4                 END;
     2173     5013    3              IF VD_$$MON_ACC.V# > 10 THEN
     2174     5014    3                 CALL VDG$MACC_PDELETE_EOF_KEY (FPT_PRECORD.V.DCB#,
     2175     5015    3                   FPT_PRECORD.KEY_, ERR_CODE);
     2176     5016    3              END FIND_EOF_KEY;
PL6.E3A0      #004=VDA$PDELETE File=VDA$PORT.:VDA5TSI                            FRI 07/04/97 11:08 Page:253
     2177     5017    3           ELSE DO;
     2178     5018    3              IF RANGE.ENDD.KEY (%(LVL_EXT_REC-1)) = %CLEAR THEN
     2179     5019    3                 DO_DELREC = %FALSE;   /* End=BOF: nothing to delete */
     2180     5020    4              ELSE DO;
     2181     5021                      %GETKEY (KEY=RANGE.ENDD.KEY, INDX="%(LVL_EXT_REC-1)",
     2182     5022                      PTR=DEL_END_KEY$);
     2183     5032    5                 DO CASE (PORT.LEVEL.ORG# (%LVL_EXT_REC));
     2184     5033    5                  CASE (%ORG_CONSEC);
     2185     5034    5                    FPT_DELREC.LKEY_ = VECTOR(DEL$END_KEY);
     2186     5035    5                  CASE (%ORG_KEYED);
     2187     5036    5                    FPT_DELREC.LKEY_ = VECTOR(DEL$END_KEY);
     2188     5037    5                  CASE (%ORG_INDEXED);
     2189     5038    5                    FPT_DELREC.LKEY_ = VECTOR(DEL$END_KEY.BYTES);
     2190     5039    5                  CASE (ELSE);
     2191     5040    5                    CALL VDG$ESCREECH (PORT.LEVEL.ORG# (%LVL_EXT_REC));
     2192     5041    5                  END;
     2193     5042    4                 END;
     2194     5043    3              END;
     2195     5044
     2196     5045
     2197     5046                /*
     2198     5047                *   Set up FPT_PRECORD to KEYR into VD_STATIC_TEMP.
     2199     5048                *   We set this up even if we don't have to PRECORD to get
     2200     5049                *       the start key, 'cause after the DELREC we'll have to
     2201     5050                *       PRECORD to find out where the DCB is positioned.
     2202     5051                */
     2203     5052    3           DO CASE (PORT.LEVEL.ORG# (%LVL_EXT_REC));
     2204     5053    3            CASE (%ORG_CONSEC);
     2205     5054    3              FPT_PRECORD.KEY_ = VECTOR(STATIC$TEMP_START_NUM);
     2206     5055    3            CASE (%ORG_KEYED);
     2207     5056    3              FPT_PRECORD.KEY_ = VECTOR(VD_STATIC_TEMP.START_KEY);
     2208     5057    3            CASE (%ORG_INDEXED);
     2209     5058    3              FIXED_KEY_LEN = PORT$DCB.KEYL#;
     2210     5059    3              FPT_PRECORD.KEY_ = VECTOR(STATIC$TEMP_START_FIXED.BYTES);
     2211     5060    3            CASE (ELSE);
     2212     5061    3              CALL VDG$ESCREECH (PORT.LEVEL.ORG# (%LVL_EXT_REC));
     2213     5062    3            END;
PL6.E3A0      #004=VDA$PDELETE File=VDA$PORT.:VDA5TSI                            FRI 07/04/97 11:08 Page:254
     2214     5063
     2215     5064
     2216     5065                /*
     2217     5066                *   Resolve the start-location of the range to a record key,
     2218     5067                *       and setup FPT_DELREC's start-key.
     2219     5068                */
     2220     5069    2           IF RANGE.START = %CLEAR THEN
     2221     5070    3   FIND_BOF_KEY: DO;
     2222     5071    3              FPT_DELREC.KEY_ = FPT_PRECORD.KEY_;
     2223     5072    3              FPT_PFIL.V.BOF# = %TRUE;
     2224     5073    3              PORT.LAST_OP# = %ACCOP_LOCATION;
     2225     5074    3              CALL M$PFIL (FPT_PFIL)
     2226     5075    3                ALTRET (PFIL_FAILED);
     2227     5076    3              FPT_PRECORD.V.N# = 0;
     2228     5077    3              START_BOF_ERR_CODE = %CLEAR;
     2229     5078    3              CALL M$PRECORD (FPT_PRECORD)
     2230     5079    4              WHENALTRETURN DO;
     2231     5080    4                 START_BOF_ERR_CODE = B$TCB.ALT$->B$ALT.ERR;
     2232     5081    4                 END;
     2233     5082    3              IF VD_$$MON_ACC.V# > 10 THEN
     2234     5083    3                 CALL VDG$MACC_PDELETE_BOF_KEY (FPT_PRECORD.V.DCB#,
     2235     5084    3                   FPT_PRECORD.KEY_, START_BOF_ERR_CODE);
     2236     5085    3              IF START_BOF_ERR_CODE.CODE# = %E$EOF THEN
     2237     5086    3                 DO_DELREC = %FALSE;
     2238     5087    3              ELSE IF START_BOF_ERR_CODE.CODE# ~= 0 THEN
     2239     5088    3                    GOTO PRECORD_FAILED;
     2240     5089    4                 ELSE DO;
     2241     5090                         /* Check for empty-file:  KEYR key = "clear" */
     2242     5091    5                    DO CASE (PORT.LEVEL.ORG# (%LVL_EXT_REC));
     2243     5092    5                     CASE (%ORG_CONSEC);
     2244     5093    5                       ;   /* No way to tell EOF on consec files */
     2245     5094    5                     CASE (%ORG_KEYED);
     2246     5095    5                       IF STATIC$TEMP_START_KEY.LENGTH# = 0 THEN
     2247     5096    5                          DO_DELREC = %FALSE;
     2248     5097    5                     CASE (%ORG_INDEXED);
     2249     5098    5                       IF STATIC$TEMP_START_FIXED = %CLEAR THEN
     2250     5099    5                          DO_DELREC = %FALSE;
PL6.E3A0      #004=VDA$PDELETE File=VDA$PORT.:VDA5TSI                            FRI 07/04/97 11:08 Page:255
     2251     5100    5                     CASE (ELSE);
     2252     5101    5                       CALL VDG$ESCREECH (PORT.LEVEL.ORG# (%LVL_EXT_REC));
     2253     5102    5                     END;
     2254     5103    4                    END;
     2255     5104    3              END FIND_BOF_KEY;
     2256     5105    3           ELSE DO;
     2257     5106    3              IF RANGE.START.EOF THEN
     2258     5107    3                 DO_DELREC = %FALSE;       /* Nothing to delete */
     2259     5108    4              ELSE DO;
     2260     5109                      %GETKEY (KEY=RANGE.START.KEY, INDX="%(LVL_EXT_REC-1)",
     2261     5110                      PTR=DEL_START_KEY$);
     2262     5120    5                 DO CASE (PORT.LEVEL.ORG# (%LVL_EXT_REC));
     2263     5121    5                  CASE (%ORG_CONSEC);
     2264     5122    5                    FPT_DELREC.KEY_ = VECTOR(DEL$START_KEY);
     2265     5123    5                  CASE (%ORG_KEYED);
     2266     5124    5                    FPT_DELREC.KEY_ = VECTOR(DEL$START_KEY);
     2267     5125    5                  CASE (%ORG_INDEXED);
     2268     5126    5                    FPT_DELREC.KEY_ = VECTOR(DEL$START_KEY.BYTES);
     2269     5127    5                  CASE (ELSE);
     2270     5128    5                    CALL VDG$ESCREECH (PORT.LEVEL.ORG# (%LVL_EXT_REC));
     2271     5129    5                  END;
     2272     5130    4                 END;
     2273     5131    3              END;
     2274     5132
     2275     5133
     2276     5134                /*
     2277     5135                *   Prepare to reposition the port.
     2278     5136                */
     2279     5137
     2280     5138    2           CALL VDG$OCLEAR_LOCATION (PORT.CURRENT)
     2281     5139    2             ALTRET (OCLEAR_LOCATION_FAILED);
     2282     5140                %CLEARSPEC (SPEC=PORT.LEVEL.SPEC, INDX=%LVL_EXT_REC);
     2283     5150    3           IF PORT.LEVEL.DATA$ (%LVL_EXT_REC) ~= ADDR(NIL) THEN DO;
     2284     5151    3              CALL VDG$OFREE (PORT.LEVEL.DATA$ (%LVL_EXT_REC) -> VD$BUFFER)
     2285     5152    3                ALTRET (OFREE_FAILED);
     2286     5153    3              PORT.LEVEL.DATA$ (%LVL_EXT_REC) = ADDR(NIL);
     2287     5154    3              END;
PL6.E3A0      #004=VDA$PDELETE File=VDA$PORT.:VDA5TSI                            FRI 07/04/97 11:08 Page:256
     2288     5155
     2289     5156
     2290     5157    2           IF DO_DELREC THEN
     2291     5158    3   DELREC_AND_POSITION_PORT: DO;
     2292     5159    3              PORT.LAST_OP# = %ACCOP_DELETE;
     2293     5160    3              IF VD_$$MON_ACC.V# > 10 THEN
     2294     5161    3                 CALL VDG$MACC_PDELETE_DELREC (FPT_DELREC.V.DCB#,
     2295     5162    3                   FPT_DELREC.KEY_, FPT_DELREC.LKEY_);
     2296     5163    3              CALL M$DELREC (FPT_DELREC)
     2297     5164    3                ALTRET (DELREC_FAILED);
     2298     5165    3              COUNT = PORT$DCB.ARS#;
     2299     5166                   /*
     2300     5167                   *   Since we did the M$DELREC, we can just M$PRECORD to find
     2301     5168                   *       out where the DCB is positioned.  (FPT_PRECORD should
     2302     5169                   *       still be setup to read key into VD_STATIC_TEMP.START.)
     2303     5170                   */
     2304     5171    3              FPT_PRECORD.V.N# = 0;
     2305     5172    3              ERR_CODE = %CLEAR;
     2306     5173    3              PORT.LAST_OP# = %ACCOP_LOCATION;
     2307     5174    3              CALL M$PRECORD (FPT_PRECORD)
     2308     5175    4              WHENALTRETURN DO;
     2309     5176    4                 ERR_CODE = B$TCB.ALT$->B$ALT.ERR;
     2310     5177    4                 END;
     2311     5178    3              IF VD_$$MON_ACC.V# > 10 THEN
     2312     5179    3                 CALL VDG$MACC_PDELETE_DCB_POS (FPT_PRECORD.V.DCB#,
     2313     5180    3                   FPT_PRECORD.KEY_, ERR_CODE);
     2314     5181    3              CALL VDG$BUILD_LOCATION (ERR_CODE, VD_STATIC_TEMP.START_KEY,
     2315     5182    3                PORT.LEVEL.ORG# (%LVL_EXT_REC),
     2316     5183    3                PORT.LEVEL.KEY_TYPE# (%LVL_EXT_REC), FIXED_KEY_LEN,
     2317     5184    3                PORT.CURRENT)
     2318     5185    3                ALTRET (BUILD_LOCATION_FAILED);
     2319     5186    3              END DELREC_AND_POSITION_PORT;
     2320     5187    2           ELSE
     2321     5188    3   JUST_POSITION_PORT: DO;
     2322     5189                   /*
     2323     5190                   *   If we didn't do the M$DELREC, it's due to one of two things:
     2324     5191                   *     1. The file is empty:  set port position to EOF.
PL6.E3A0      #004=VDA$PDELETE File=VDA$PORT.:VDA5TSI                            FRI 07/04/97 11:08 Page:257
     2325     5192                   *  or 2. RANGE showed nothing to delete:  BOF thru BOF or
     2326     5193                   *           EOF thru EOF.  If RANGE.END = EOF, set port position
     2327     5194                   *           to EOF.  If RANGE.END = BOF, then .START must have
     2328     5195                   *           been BOF too, and we've already got the key of
     2329     5196                   *           the first record in the file (if any) in
     2330     5197                   *           VD_STATIC_TEMP.START_KEY.
     2331     5198                   */
     2332     5199
     2333     5200    4              IF RANGE.ENDD ~= %CLEAR THEN DO;
     2334     5201    4                 PORT.CURRENT.EOF = %TRUE;
     2335     5202    4                 END;
     2336     5203    4              ELSE DO;
     2337     5204                      /* Check for empty-file:  KEYR key = "clear" */
     2338     5205    5                 DO CASE (PORT.LEVEL.ORG# (%LVL_EXT_REC));
     2339     5206    5                  CASE (%ORG_CONSEC);
     2340     5207    5                    ; /* No way to tell EOF on consec files */
     2341     5208    5                  CASE (%ORG_KEYED);
     2342     5209    5                    IF STATIC$TEMP_START_KEY.LENGTH# = 0 THEN
     2343     5210    5                       PORT.CURRENT.EOF = %TRUE;
     2344     5211    5                  CASE (%ORG_INDEXED);
     2345     5212    5                    IF STATIC$TEMP_START_FIXED = %CLEAR THEN
     2346     5213    5                       PORT.CURRENT.EOF = %TRUE;
     2347     5214    5                  CASE (ELSE);
     2348     5215    5                    CALL VDG$ESCREECH (PORT.LEVEL.ORG# (%LVL_EXT_REC));
     2349     5216    5                  END;
     2350     5217
     2351     5218    5                 IF NOT PORT.CURRENT.EOF THEN DO;
     2352     5219    5                    CALL VDG$BUILD_LOCATION (START_BOF_ERR_CODE,
     2353     5220    5                      VD_STATIC_TEMP.START_KEY, PORT.LEVEL.ORG# (%LVL_EXT_REC),
     2354     5221    5                      PORT.LEVEL.KEY_TYPE# (%LVL_EXT_REC), FIXED_KEY_LEN,
     2355     5222    5                      PORT.CURRENT)
     2356     5223    5                      ALTRET (BUILD_LOCATION_FAILED);
     2357     5224    5                    END;
     2358     5225    4                 END;
     2359     5226    3              END JUST_POSITION_PORT;
     2360     5227
     2361     5228
PL6.E3A0      #004=VDA$PDELETE File=VDA$PORT.:VDA5TSI                            FRI 07/04/97 11:08 Page:258
     2362     5229    2           RETURN;
     2363     5230
     2364     5231
     2365     5232
     2366     5233    2   PFIL_FAILED: ;
     2367     5234    2   PRECORD_FAILED: ;
     2368     5235    2   DELREC_FAILED: ;
     2369     5236    2           CALL VDG$OALLOC (%CLS_ERR, VD_ERR$)
     2370     5237    2             ALTRET (OALLOC_FAILED);
     2371     5238    2           VD$ERR.ERR = B$TCB.ALT$->B$ALT.ERR;
     2372     5239    2           VD$ERR.FLAGLEV# = %FLV_SERIOUS;
     2373     5240    2           VD$ERR.DCB# = PORT.DCB#;
     2374     5241    2           ALTRETURN;
     2375     5242
     2376     5243
     2377     5244    2   OALLOC_FAILED: ;
     2378     5245    2   OFREE_FAILED: ;
     2379     5246    2   OCLEAR_LOCATION_FAILED: ;
     2380     5247    2   BUILD_LOCATION_FAILED: ;
     2381     5248    2           ALTRETURN;
     2382     5249
     2383     5250    2   END DELETE_EXTERNAL;
     2384     5251
     2385     5252    1   END VDA$PDELETE;

PL6.E3A0      #004=VDA$PDELETE File=VDA$PORT.:VDA5TSI                            FRI 07/04/97 11:08 Page:259
--  Include file information  --

   B_ERRORS_C.:LIBRARY  is referenced.
   CP_6.:LIBRARY  cannot be made into a system file and is referenced.
   VD_PERR_C.:VDA5TOU  is referenced.
   VD_MACROS_M.:VDA5TOU  is referenced.
   B$JIT_C.:E04TOU  was found in the system file and is never referenced.
   CP_6_C.:E04TOU  was found in the system file and is referenced.
      No diagnostics issued in procedure VDA$PDELETE.

   Procedure VDA$PDELETE requires 680 words for executable code.
   Procedure VDA$PDELETE requires 48 words of local(AUTO) storage.

    No errors detected in file VDA$PORT.:VDA5TSI    .

PL6.E3A0      #004=VDA$PDELETE File=VDA$PORT.:VDA5TSI                            FRI 07/04/97 11:08 Page:260

 Object Unit name= VDA$PDELETE                                File name= VDA$PORT.:VDA5TOU
 UTS= JUL 04 '97 11:08:10.68 FRI                              Compiler= PL-6/E31         Sev=      00
 SharedLib= :SHARED_SYSTEM                                    Alt SharedLib=


    ****  Control sections  ****

 Sect   Type Bound  Init  Size OctSiz  Section name(segment info)
    0   DCB   even  none     0      0  M$UC
    1  RoData even  UTS     26     32  VDA$PDELETE
    2   Proc  even  none   680   1250  VDA$PDELETE
    3  RoData even  none    15     17  VDA$PDELETE

    ****  Entry defs  ****

                              Check   Calling
                             calling  sequence
  Sect OctLoc Primary Altret sequence   type   Parms  Name
     2      0   yes    yes     yes      Std        4  VDA$PDELETE
PL6.E3A0      #004=VDA$PDELETE File=VDA$PORT.:VDA5TSI                            FRI 07/04/97 11:08 Page:261

  ****  Entry refs  ****

         Check        Calling
        calling       sequence
Altret sequence SRef   type   Args  Name
         yes           Std       3 VDG$ESCREECH
 yes     yes           Std       6 VDA$PREAD
 yes     yes           Std       1 VDG$OFREE
         yes           Std       3 VDG$MACC_PDELETE_EOF_KEY
 yes     yes           Std       6 VDG$BUILD_LOCATION
 yes     yes           Std       3 VDG$OALLOC
         yes           Std       3 VDG$MACC_PDELETE_DCB_POS
 yes     yes           Std       1 VDG$OCLEAR_LOCATION
         yes           Std       3 VDG$MACC_PDELETE_DELREC
         yes           Std       3 VDG$MACC_PDELETE_BOF_KEY
                       nStd      0 X66_AUTO_4
                       Std       0 B_CONSPOOL_D
                       nStd      0 X66_ARET
                       nStd      0 X66_AALT

  ****  Data refs  ****

  Flags:  r = read only, s = secondary
Flgs Name                             Flgs Name                             Flgs Name
     M$UC                                  VD_6E                                 VD_STATIC_TEMP
     B$TCB$                                VD_$$MON_ACC                          B_VECTNIL

  ****  Segment refs  ****

  Flags:  r = read only, s = secondary
Flgs Name                             Flgs Name                             Flgs Name
     ISSID                                 NULLSID                               ROSID
PL6.E3A0      #004=VDA$PDELETE File=VDA$PORT.:VDA5TSI                            FRI 07/04/97 11:08 Page:262


     1821        1        /*T***********************************************************/
     1822        2        /*T*                                                         */
     1823        3        /*T* Copyright (c) Bull HN Information Systems Inc., 1997    */
     1824        4        /*T*                                                         */
     1825        5        /*T***********************************************************/
     1826        6
     1827        7        /*D* NAME: VDA$PDELETE
     1828        8            PARAMETERS:
     1829        9                PORT - VD$PORT to use.  This Port must already be open,
     1830       10                    to either an external or internal file.
     1831       11                RANGE - VD$RANGE specifying the range of nodes to delete.
     1832       12                    This is an inclusive range:  RANGE.START specifies the first
     1833       13                    node to delete and RANGE.ENDD specifies the last node to
     1834       14                    delete.
     1835       15                    RANGE must be one of the following:
     1836       16                    BOF, EOF, or specific nodes, specified as follows:
     1837       17                    If .START or .ENDD = %CLEAR, this specifies BOF;
     1838       18                    If .START.EOF or .ENDD.EOF is set, this specifies EOF;
     1839       19                    Else .START.KEY or .ENDD.KEY (%(LVL_LOWER-1)) thru (n) must
     1840       20                        be given:  these are keys for levels %LVL_LOWER thru (n+1)
     1841       21                        of the file.
     1842       22
     1843       23                    Basic rule for RANGE:  we only allow deletion within one
     1844       24                    parent node, of one or more of that parent's kids -- you
     1845       25                    can't delete from some kid of node "A" thru some kid of
     1846       26                    node "B".
     1847       27                    Therefore:
     1848       28                        If RANGE.START = %CLEAR, then .ENDD must be either
     1849       29                            %CLEAR, .ENDD.EOF, or exactly one .ENDD.KEY given.
     1850       30                        If RANGE.ENDD.EOF is set, then .START must be either
     1851       31                            %CLEAR, .START.EOF, or exactly one .START.KEY given.
     1852       32                        Of course, if .START.EOF is set then the only valid
     1853       33                            .ENDD is .ENDD.EOF; if .ENDD = %CLEAR, then the
     1854       34                            only valid .START is %CLEAR.  In either case,
     1855       35                            nothing will be deleted.
     1856       36                        If neither .START nor .END specify BOF or EOF, then
PL6.E3A0      #004=VDA$PDELETE File=VDA$PORT.:VDA5TSI                            FRI 07/04/97 11:08 Page:263
     1857       37                            the number of keys in .START.KEY and .ENDD.KEY
     1858       38                            must be equal, and all .START.KEYs except the last
     1859       39                            must equal their counterpart in .ENDD.KEY.
     1860       40                            If the file has more than two levels, deletion will
     1861       41                            be at the lowest level given; for example, if the
     1862       42                            file has 5 levels but keys are only given for levels
     1863       43                            1 and 2, we will delete nodes at levels 2 thru 5:
     1864       44                            the specified node(s) at level 2, and all children
     1865       45                            of deleted level 2 nodes.
     1866       46                DEL_LEVEL - Top-most level in file structure at which to
     1867       47                    delete; we'll delete specified nodes at DEL_LEVEL and
     1868       48                    all children of the deleted DEL_LEVEL nodes.
     1869       49                    DEL_LEVEL must be > %LVL_FILE;
     1870       50                    for external files, DEL_LEVEL must be %LVL_EXT_REC.
     1871       51                COUNT - Uninitialized SBIN.
     1872       52            INPUT:
     1873       53            SCRATCH
     1874       54                VD_STATIC_TEMP
     1875       55            OUTPUT:
     1876       56                COUNT will contain the number of nodes at DEL_LEVEL which
     1877       57                    were actually deleted; this may be 0.
     1878       58                PORT will be repositioned to the node following the last
     1879       59                    node deleted, or eof.
     1880       60            DESCRIPTION:
     1881       61                Use different procedures for internal and external files.
     1882       62        */
     1883       63
     1884       64        VDA$PDELETE: PROC (PORT, RANGE, DEL_LEVEL, COUNT) ALTRET;

     64  2 000000   000000 700200 xent  VDA$PDELETE  TSX0  ! X66_AUTO_4
         2 000001   000060 000004                    ZERO    48,4

     1885       65
     1886       66
     1887       67        %INCLUDE VD_MACROS_M;
     1888     2282        %INCLUDE VD_PERR_C;
     1889     2430        %INCLUDE CP_6;
PL6.E3A0      #004=VDA$PDELETE File=VDA$PORT.:VDA5TSI                            FRI 07/04/97 11:08 Page:264
     1890     2511        %INCLUDE B_ERRORS_C;
     1891     3637
     1892     3638
     1893     3639        %VD$PORT (NAME=PORT, STCLASS=PARAM);
     1894     3737        %VD$RANGE (NAME=RANGE, STCLASS=PARAM);
     1895     3806    1   DCL DEL_LEVEL SBIN;
     1896     3807    1   DCL COUNT SBIN;
     1897     3808
     1898     3809
     1899     3810
     1900     3811    1   DCL VDA$PREAD           ENTRY (6) ALTRET;
     1901     3812    1   DCL VDG$OALLOC          ENTRY (3) ALTRET;
     1902     3813    1   DCL VDG$OFREE           ENTRY (1) ALTRET;
     1903     3814    1   DCL VDG$OCLEAR_LOCATION ENTRY (1) ALTRET;
     1904     3815    1   DCL VDG$BUILD_LOCATION  ENTRY (6) ALTRET;
     1905     3816    1   DCL VDG$ESCREECH        ENTRY (3);
     1906     3817    1   DCL VDG$MACC_PDELETE_EOF_KEY ENTRY (3);
     1907     3818    1   DCL VDG$MACC_PDELETE_BOF_KEY ENTRY (3);
     1908     3819    1   DCL VDG$MACC_PDELETE_DELREC ENTRY (3);
     1909     3820    1   DCL VDG$MACC_PDELETE_DCB_POS ENTRY (3);
     1910     3821
     1911     3822
     1912     3823        %VD_6E (STCLASS=SYMREF);
     1913     3859    1   DCL 1 VD_STATIC_TEMP SYMREF,
     1914     3860    1         2 START_KEY CHAR(%(MXNB_KEY+1)) ALIGNED,
     1915     3861    1         2 END_KEY CHAR(%(MXNB_KEY+1)) ALIGNED;
     1916     3862    1   DCL B$TCB$ PTR SYMREF;
     1917     3863        %VD$NUMBER (NAME=VD_$$MON_ACC, STCLASS=SYMREF);
     1918     3908
     1919     3909
     1920     3910        %FPT_PFIL (FPTN=CONST_FPT_PFIL, STCLASS=CONSTANT);
     1921     3925        %FPT_PRECORD (FPTN=CONST_FPT_PRECORD, STCLASS=CONSTANT, KEYS=NO,
     1922     3926                KEYR=YES);
     1923     3947        %FPT_DELREC (FPTN=CONST_FPT_DELREC, STCLASS=CONSTANT);
     1924     3966    1   DCL STATIC_TEMP_START$ PTR CONSTANT INIT(ADDR(VD_STATIC_TEMP.START_KEY));
     1925     3967    1   DCL STATIC_TEMP_END$ PTR CONSTANT INIT(ADDR(VD_STATIC_TEMP.END_KEY));
     1926     3968
PL6.E3A0      #004=VDA$PDELETE File=VDA$PORT.:VDA5TSI                            FRI 07/04/97 11:08 Page:265
     1927     3969
     1928     3970
     1929     3971    1   DCL FIXED_KEY_LEN SBIN;
     1930     3972
     1931     3973
     1932     3974        %VD$TEXTC (NAME=STATIC$TEMP_START_KEY, STCLASS="BASED(STATIC_TEMP_START$)");
     1933     3997    1   DCL STATIC$TEMP_START_NUM SBIN BASED(STATIC_TEMP_START$);
     1934     3998    1   DCL STATIC$TEMP_END_NUM SBIN BASED(STATIC_TEMP_END$);
     1935     3999    1   DCL 1 STATIC$TEMP_START_FIXED BASED(STATIC_TEMP_START$),
     1936     4000    1         2 BYTES CHAR(FIXED_KEY_LEN);
     1937     4001    1   DCL 1 STATIC$TEMP_END_FIXED BASED(STATIC_TEMP_END$),
     1938     4002    1         2 BYTES CHAR(FIXED_KEY_LEN);
     1939     4003        %B$TCB (NAME=B$TCB, STCLASS="BASED(B$TCB$)");
     1940     4006        %B$ALT;
     1941     4014
     1942     4015
     1943     4016
     1944     4017    1           IF PORT.EXIST# = 0

   4017  2 000002   200003 470500                    LDP0    @PORT,,AUTO
         2 000003   000003 720100                    LXL0    3,,PR0
         2 000004   000010 600000 2                  TZE     s:4019
         2 000005   200005 471500                    LDP1    @DEL_LEVEL,,AUTO
         2 000006   100000 235100                    LDA     0,,PR1
         2 000007   000021 605400 2                  TPNZ    s:4021

     1945     4018    1             OR DEL_LEVEL <= %LVL_FILE THEN
     1946     4019    1              CALL VDG$ESCREECH (PORT.EXIST#, DEL_LEVEL);

   4019  2 000010   200005 236100                    LDQ     @DEL_LEVEL,,AUTO
         2 000011   200053 756100                    STQ     VD_ERR$+3,,AUTO
         2 000012   200003 236100                    LDQ     @PORT,,AUTO
         2 000013   000000 036000 3                  ADLQ    0
         2 000014   200052 756100                    STQ     VD_ERR$+2,,AUTO
         2 000015   200052 630500                    EPPR0   VD_ERR$+2,,AUTO
         2 000016   000020 631400 xsym               EPPR1   B_VECTNIL+16
         2 000017   000000 701000 xent               TSX1    VDG$ESCREECH
PL6.E3A0      #004=VDA$PDELETE File=VDA$PORT.:VDA5TSI                            FRI 07/04/97 11:08 Page:266
         2 000020   000000 011000                    NOP     0

     1947     4020
     1948     4021    1           IF PORT.DCB# = 0 THEN

   4021  2 000021   200003 470500                    LDP0    @PORT,,AUTO
         2 000022   000004 720100                    LXL0    4,,PR0
         2 000023   000027 601000 2                  TNZ     s:4025

     1949     4022    1              CALL DELETE_INTERNAL

   4022  2 000024   000033 701000 2                  TSX1    DELETE_INTERNAL
         2 000025   000032 702000 2                  TSX2    DELETE_INTERNAL_FAILED
         2 000026   000031 710000 2                  TRA     s:4028

     1950     4023    1                ALTRET (DELETE_INTERNAL_FAILED);
     1951     4024    1           ELSE
     1952     4025    1              CALL DELETE_EXTERNAL

   4025  2 000027   000203 701000 2                  TSX1    DELETE_EXTERNAL
         2 000030   000032 702000 2                  TSX2    DELETE_INTERNAL_FAILED

     1953     4026    1                ALTRET (DELETE_EXTERNAL_FAILED);
     1954     4027
     1955     4028    1           RETURN;

   4028  2 000031   000000 702200 xent               TSX2  ! X66_ARET

   4021  2 000032                       DELETE_INTE* null
   4021  2 000032                       DELETE_EXTE* null
     1956     4029
     1957     4030
     1958     4031
     1959     4032    1   DELETE_INTERNAL_FAILED: ;
     1960     4033    1   DELETE_EXTERNAL_FAILED: ;
     1961     4034    1           ALTRETURN;

PL6.E3A0      #004=VDA$PDELETE File=VDA$PORT.:VDA5TSI                            FRI 07/04/97 11:08 Page:267
   4034  2 000032   000000 702200 xent               TSX2  ! X66_AALT

     1962     4035
     1963     4036                %BOX (TITLE=DELETE_INTERNAL, PAGE=YES);
              4044    1
              4048    1   /***************************************************************************
              4050    1    *                                                                         *
              4054    1            *                              DELETE_INTERNAL                           *
              4056    1            *                                                                        *
              4058    1          ***************************************************************************/

     1964     4062
     1965     4063        /*I* NAME: DELETE_INTERNAL
     1966     4064            PARAMETERS:
     1967     4065                None.
     1968     4066            INPUT:
     1969     4067                PORT - VD$PORT to use.  If it contained any .SPEC/DATA_MODIFIED
     1970     4068                    nodes, they must already have been flushed to the file.
     1971     4069                DEL_LEVEL - Top-most level in file structure at which to
     1972     4070                    delete; we'll delete specified nodes at DEL_LEVEL and all
     1973     4071                    children of the deleted DEL_LEVEL nodes.
     1974     4072                RANGE - Range to delete (inclusive).
     1975     4073            OUTPUT:
     1976     4074                COUNT will contain the number of nodes at DEL_LEVEL
     1977     4075                    which were actually deleted.
     1978     4076                PORT.CURRENT will specify the node following
     1979     4077                    the last node deleted, or if none, eof.
     1980     4078            DESCRIPTION:
     1981     4079                Call VDA$PREAD to find the first node to delete; remember
     1982     4080                    the node.
     1983     4081                Call VDA$PREAD again to find the node following the last node
     1984     4082                    to delete (and incidentally to count the nodes in between).
     1985     4083                If there are any nodes to delete:
     1986     4084                    Delink the nodes from the file tree.
     1987     4085                    Loop thru the nodes, calling VDG$OFREE to free them.
     1988     4086        */
     1989     4087
PL6.E3A0      #004=VDA$PDELETE File=VDA$PORT.:VDA5TSI                            FRI 07/04/97 11:08 Page:268
     1990     4088    1   DELETE_INTERNAL: PROC ALTRET;

   4088  2 000033   200010 741300       DELETE_INTE* STX1  ! FIXED_KEY_LEN+1,,AUTO

     1991     4089
     1992     4090
     1993     4091    2   DCL AT_EOF BIT(1) ALIGNED;
     1994     4092    2   DCL DEL_PARENT$ PTR;
     1995     4093    2   DCL DEL_START$ PTR;
     1996     4094    2   DCL DEL_END$ PTR;
     1997     4095
     1998     4096
     1999     4097        %VD$FILE_NODE (NAME=DEL$PARENT, STCLASS="BASED(DEL_PARENT$)");
     2000     4190        %VD$FILE_NODE (NAME=DEL$START, STCLASS="BASED(DEL_START$)");
     2001     4283        %VD$FILE_NODE (NAME=DEL$END, STCLASS="BASED(DEL_END$)");
     2002     4376        %VD$FILE_NODE;
     2003     4469
     2004     4470
     2005     4471
     2006     4472    2           COUNT = 0;

   4472  2 000034   200006 470500                    LDP0    @COUNT,,AUTO
         2 000035   000000 450100                    STZ     0,,PR0

     2007     4473
     2008     4474    2           CALL VDA$PREAD (PORT, RANGE.START, 0, %FALSE)

   4474  2 000036   000002 237000 3                  LDAQ    2
         2 000037   200054 757100                    STAQ    VD_ERR$+4,,AUTO
         2 000040   200004 236100                    LDQ     @RANGE,,AUTO
         2 000041   200003 235100                    LDA     @PORT,,AUTO
         2 000042   200052 757100                    STAQ    VD_ERR$+2,,AUTO
         2 000043   200052 630500                    EPPR0   VD_ERR$+2,,AUTO
         2 000044   000022 631400 xsym               EPPR1   B_VECTNIL+18
         2 000045   000000 701000 xent               TSX1    VDA$PREAD
         2 000046   000201 702000 2                  TSX2    PREAD_FAILED

PL6.E3A0      #004=VDA$PDELETE File=VDA$PORT.:VDA5TSI                            FRI 07/04/97 11:08 Page:269
     2009     4475    2             ALTRET (PREAD_FAILED);
     2010     4476    2           IF PORT.CURRENT.EOF THEN

   4476  2 000047   200003 470500                    LDP0    @PORT,,AUTO
         2 000050   000022 236100                    LDQ     18,,PR0
         2 000051   400000 316007                    CANQ    -131072,DL
         2 000052   000055 600000 2                  TZE     s:4478

     2011     4477    2              RETURN;      /* Nothing to delete */

   4477  2 000053   200010 221300                    LDX1  ! FIXED_KEY_LEN+1,,AUTO
         2 000054   000001 702211                    TSX2  ! 1,X1

     2012     4478    2           DEL_START$ = PORT.LEVEL.INTERNAL$ (DEL_LEVEL);

   4478  2 000055   200005 471500                    LDP1    @DEL_LEVEL,,AUTO
         2 000056   100000 236100                    LDQ     0,,PR1
         2 000057   000007 402007                    MPY     7,DL
         2 000060   000031 236106                    LDQ     25,QL,PR0
         2 000061   200013 756100                    STQ     DEL_START$,,AUTO

     2013     4479    2           DEL_PARENT$ = PORT.LEVEL.INTERNAL$ (DEL_LEVEL - 1);

   4479  2 000062   100000 236100                    LDQ     0,,PR1
         2 000063   000007 402007                    MPY     7,DL
         2 000064   000022 236106                    LDQ     18,QL,PR0
         2 000065   200012 756100                    STQ     DEL_PARENT$,,AUTO

     2014     4480
     2015     4481    2           CALL VDA$PREAD (PORT, RANGE.ENDD, 1, %FALSE, , COUNT)

   4481  2 000066   200006 236100                    LDQ     @COUNT,,AUTO
         2 000067   000001 235000 xsym               LDA     B_VECTNIL+1
         2 000070   200056 757100                    STAQ    VD_ERR$+6,,AUTO
         2 000071   000004 237000 3                  LDAQ    4
         2 000072   200054 757100                    STAQ    VD_ERR$+4,,AUTO
         2 000073   200004 236100                    LDQ     @RANGE,,AUTO
PL6.E3A0      #004=VDA$PDELETE File=VDA$PORT.:VDA5TSI                            FRI 07/04/97 11:08 Page:270
         2 000074   000011 036003                    ADLQ    9,DU
         2 000075   200003 235100                    LDA     @PORT,,AUTO
         2 000076   200052 757100                    STAQ    VD_ERR$+2,,AUTO
         2 000077   200052 630500                    EPPR0   VD_ERR$+2,,AUTO
         2 000100   000024 631400 xsym               EPPR1   B_VECTNIL+20
         2 000101   000000 701000 xent               TSX1    VDA$PREAD
         2 000102   000201 702000 2                  TSX2    PREAD_FAILED

     2016     4482    2             ALTRET (PREAD_FAILED);
     2017     4483    2           DEL_END$ = PORT.LEVEL.INTERNAL$ (DEL_LEVEL);

   4483  2 000103   200005 470500                    LDP0    @DEL_LEVEL,,AUTO
         2 000104   000000 236100                    LDQ     0,,PR0
         2 000105   000007 402007                    MPY     7,DL
         2 000106   200003 471500                    LDP1    @PORT,,AUTO
         2 000107   100031 236106                    LDQ     25,QL,PR1
         2 000110   200014 756100                    STQ     DEL_END$,,AUTO

     2018     4484                /* DEL_END$ points to node FOLLOWING last node to delete */
     2019     4485
     2020     4486    2           IF COUNT > 0

   4486  2 000111   200006 473500                    LDP3    @COUNT,,AUTO
         2 000112   300000 235100                    LDA     0,,PR3
         2 000113   000116 605400 2                  TPNZ    DELETE_NODES
         2 000114   200013 116100                    CMPQ    DEL_START$,,AUTO
         2 000115   000174 601000 2                  TNZ     s:4526

     2021     4487    2             OR DEL_START$ = DEL_END$ THEN
     2022     4488    3   DELETE_NODES: DO;

   4488  2 000116                       DELETE_NODES null
     2023     4489    3              VD_6E.STATS# (%STG_ACC_INT_DELETIONS) =

   4489  2 000116   000127 236000 xsym               LDQ     VD_6E+87
         2 000117   300000 036100                    ADLQ    0,,PR3
         2 000120   000127 756000 xsym               STQ     VD_6E+87
PL6.E3A0      #004=VDA$PDELETE File=VDA$PORT.:VDA5TSI                            FRI 07/04/97 11:08 Page:271

     2024     4490    3                VD_6E.STATS# (%STG_ACC_INT_DELETIONS) + COUNT;
     2025     4491                   /*
     2026     4492                   *    When deleting nodes which are contiguous kids of one
     2027     4493                   *    parent, we first delink the nodes from the file
     2028     4494                   *    tree, then free them.
     2029     4495                   *    To delink the nodes from the file tree, there are
     2030     4496                   *    four pointers which need to be adjusted:
     2031     4497                   *        o The forward and backward pointers into the
     2032     4498                   *            nodes to be delinked; these may be sibling
     2033     4499                   *            pointers (.FLINK$/.BLINK$) or parent-child
     2034     4500                   *            pointers (.HEAD$/.TAIL$).
     2035     4501                   *        o The backward link from the first delinked node.
     2036     4502                   *        o The forward link from the last delinked node.
     2037     4503                   */
     2038     4504
     2039     4505    3              IF DEL$START.BLINK$ = ADDR(NIL) THEN

   4505  2 000121   200013 474500                    LDP4    DEL_START$,,AUTO
         2 000122   400001 236100                    LDQ     1,,PR4
         2 000123   000001 116000 xsym               CMPQ    B_VECTNIL+1
         2 000124   000131 601000 2                  TNZ     s:4508

     2040     4506    3                 DEL$PARENT.HEAD$ = DEL_END$;

   4506  2 000125   200014 236100                    LDQ     DEL_END$,,AUTO
         2 000126   200012 475500                    LDP5    DEL_PARENT$,,AUTO
         2 000127   500012 756100                    STQ     10,,PR5
         2 000130   000134 710000 2                  TRA     s:4509

     2041     4507    3              ELSE
     2042     4508    3                 DEL$START.BLINK$ -> VD$FILE_NODE.FLINK$ = DEL_END$;

   4508  2 000131   400001 475500                    LDP5    1,,PR4
         2 000132   200014 236100                    LDQ     DEL_END$,,AUTO
         2 000133   500002 756100                    STQ     2,,PR5

PL6.E3A0      #004=VDA$PDELETE File=VDA$PORT.:VDA5TSI                            FRI 07/04/97 11:08 Page:272
     2043     4509    3              IF DEL_END$ = ADDR(NIL) THEN

   4509  2 000134   000001 116000 xsym               CMPQ    B_VECTNIL+1
         2 000135   000142 601000 2                  TNZ     s:4512

     2044     4510    3                 DEL$PARENT.TAIL$ = DEL$START.BLINK$;

   4510  2 000136   400001 236100                    LDQ     1,,PR4
         2 000137   200012 475500                    LDP5    DEL_PARENT$,,AUTO
         2 000140   500013 756100                    STQ     11,,PR5
         2 000141   000150 710000 2                  TRA     s:4515

     2045     4511    4              ELSE DO;

     2046     4512    4                 DEL$END.BLINK$ -> VD$FILE_NODE.FLINK$ = ADDR(NIL);

   4512  2 000142   200014 475500                    LDP5    DEL_END$,,AUTO
         2 000143   500001 476500                    LDP6    1,,PR5
         2 000144   000001 236000 xsym               LDQ     B_VECTNIL+1
         2 000145   600002 756100                    STQ     2,,PR6

     2047     4513    4                 DEL$END.BLINK$ = DEL$START.BLINK$;

   4513  2 000146   400001 236100                    LDQ     1,,PR4
         2 000147   500001 756100                    STQ     1,,PR5

     2048     4514    4                 END;

     2049     4515    3              DEL$START.BLINK$ = ADDR(NIL);

   4515  2 000150   000001 236000 xsym               LDQ     B_VECTNIL+1
         2 000151   400001 756100                    STQ     1,,PR4

     2050     4516
     2051     4517    3              DEL$PARENT.COUNT# = DEL$PARENT.COUNT# - COUNT;

   4517  2 000152   200012 475500                    LDP5    DEL_PARENT$,,AUTO
PL6.E3A0      #004=VDA$PDELETE File=VDA$PORT.:VDA5TSI                            FRI 07/04/97 11:08 Page:273
         2 000153   500014 236100                    LDQ     12,,PR5
         2 000154   300000 136100                    SBLQ    0,,PR3
         2 000155   500014 756100                    STQ     12,,PR5

     2052     4518    3              IF DEL$PARENT.COUNT# < 0 THEN

   4518  2 000156   000170 605000 2                  TPL     s:4522

     2053     4519    3                 CALL VDG$ESCREECH (DEL$PARENT.COUNT#, COUNT);

   4519  2 000157   200006 236100                    LDQ     @COUNT,,AUTO
         2 000160   200053 756100                    STQ     VD_ERR$+3,,AUTO
         2 000161   200012 236100                    LDQ     DEL_PARENT$,,AUTO
         2 000162   000014 036003                    ADLQ    12,DU
         2 000163   200052 756100                    STQ     VD_ERR$+2,,AUTO
         2 000164   200052 630500                    EPPR0   VD_ERR$+2,,AUTO
         2 000165   000020 631400 xsym               EPPR1   B_VECTNIL+16
         2 000166   000000 701000 xent               TSX1    VDG$ESCREECH
         2 000167   000000 011000                    NOP     0

     2054     4520
     2055     4521                   /* VDG$OFREE will delete DEL$START and all its .FLINK$s */
     2056     4522    3              CALL VDG$OFREE (DEL$START)

   4522  2 000170   200013 630500                    EPPR0   DEL_START$,,AUTO
         2 000171   000017 631400 xsym               EPPR1   B_VECTNIL+15
         2 000172   000000 701000 xent               TSX1    VDG$OFREE
         2 000173   000201 702000 2                  TSX2    PREAD_FAILED

     2057     4523    3                ALTRET (OFREE_FAILED);
     2058     4524    3              END DELETE_NODES;

     2059     4525
     2060     4526    2           PORT.LAST_OP# = %ACCOP_DELETE;

   4526  2 000174   000006 220003                    LDX0    6,DU
         2 000175   200003 470500                    LDP0    @PORT,,AUTO
PL6.E3A0      #004=VDA$PDELETE File=VDA$PORT.:VDA5TSI                            FRI 07/04/97 11:08 Page:274
         2 000176   000007 740100                    STX0    7,,PR0

     2061     4527
     2062     4528    2           RETURN;

   4528  2 000177   200010 221300                    LDX1  ! FIXED_KEY_LEN+1,,AUTO
         2 000200   000001 702211                    TSX2  ! 1,X1

   4526  2 000201                       PREAD_FAILED null
   4526  2 000201                       OFREE_FAILED null
     2063     4529
     2064     4530
     2065     4531
     2066     4532    2   PREAD_FAILED: ;
     2067     4533    2   OFREE_FAILED: ;
     2068     4534    2           ALTRETURN;

   4534  2 000201   200010 221300                    LDX1  ! FIXED_KEY_LEN+1,,AUTO
         2 000202   000000 702211                    TSX2  ! 0,X1

     2069     4535
     2070     4536    2   END DELETE_INTERNAL;
     2071     4537
     2072     4538
     2073     4539                %BOX (TITLE=DELETE_EXTERNAL, PAGE=YES);
              4547    2
              4551    2   /***************************************************************************
              4553    2    *                                                                         *
              4557    2            *                              DELETE_EXTERNAL                           *
              4559    2            *                                                                        *
              4561    2          ***************************************************************************/

     2074     4565
     2075     4566        /*I* NAME: DELETE_EXTERNAL
     2076     4567            PARAMETERS:
     2077     4568            INPUT:
     2078     4569                PORT - VD$PORT to use.  If it contained any .SPEC/DATA_MODIFIED
PL6.E3A0      #004=VDA$PDELETE File=VDA$PORT.:VDA5TSI                            FRI 07/04/97 11:08 Page:275
     2079     4570                    nodes, they must already have been flushed to the file.
     2080     4571                DEL_LEVEL - Top-most level in file structure at which to
     2081     4572                    delete.
     2082     4573                    NOTE:  DEL_LEVEL must = %LVL_EXT_REC.
     2083     4574                RANGE - Range to delete (inclusive).
     2084     4575            OUTPUT:
     2085     4576                COUNT will contain the number of records deleted.
     2086     4577                PORT.CURRENTs will specify the record following
     2087     4578                    the last record deleted, or if none, eof.
     2088     4579            DESCRIPTION:
     2089     4580                If the end of the range to delete is EOF and the start isn't
     2090     4581                    also EOF, do an M$PFIL then M$PRECORD to get the last key
     2091     4582                    of the file.
     2092     4583                If the start of the range to delete is BOF, do an M$PFIL
     2093     4584                    then M$PRECORD to get the first key of the file.
     2094     4585                If the start isn't EOF and the end isn't BOF, and the
     2095     4586                    positionings above didn't find an empty file, do the
     2096     4587                    M$DELREC.
     2097     4588                Position the port to the record following the end of the range.
     2098     4589        */
     2099     4590
     2100     4591    1   DELETE_EXTERNAL: PROC ALTRET;

   4591  2 000203   200010 741300       DELETE_EXTE* STX1  ! FIXED_KEY_LEN+1,,AUTO

     2101     4592
     2102     4593
     2103     4594    2   DCL DO_DELREC BIT(1) ALIGNED;
     2104     4595    2   DCL PORT_DCB$ PTR;
     2105     4596    2   DCL DEL_START_KEY$ PTR;
     2106     4597    2   DCL DEL_END_KEY$ PTR;
     2107     4598        %VD$ERR_CODE (NAME=ERR_CODE, STCLASS=AUTO);
     2108     4613        %VD$ERR_CODE (NAME=START_BOF_ERR_CODE, STCLASS=AUTO);
     2109     4628        %FPT_PFIL (FPTN=FPT_PFIL, STCLASS=AUTO);
     2110     4643        %FPT_PRECORD (STCLASS=AUTO);
     2111     4664        %FPT_DELREC (FPTN=FPT_DELREC, STCLASS=AUTO);
     2112     4683    2   DCL VD_ERR$ PTR;
PL6.E3A0      #004=VDA$PDELETE File=VDA$PORT.:VDA5TSI                            FRI 07/04/97 11:08 Page:276
     2113     4684
     2114     4685
     2115     4686        %F$DCB (DCBN=PORT$DCB, STCLASS="BASED(PORT_DCB$)");
     2116     4743        %VD$TEXTC (NAME=DEL$START_KEY, STCLASS="BASED(DEL_START_KEY$)");
     2117     4766        %VD$TEXTC (NAME=DEL$END_KEY, STCLASS="BASED(DEL_END_KEY$)");
     2118     4789        %VD$TEXTC_REMOTE;
     2119     4850        %VD$BUFFER;
     2120     4908        %VD$ERR (NAME=VD$ERR, STCLASS="BASED(VD_ERR$)");
     2121     4961
     2122     4962
     2123     4963
     2124     4964    2           COUNT = 0;

   4964  2 000204   200006 470500                    LDP0    @COUNT,,AUTO
         2 000205   000000 450100                    STZ     0,,PR0

     2125     4965    2           DO_DELREC = %TRUE;  /* Assume there's something to delete */

   4965  2 000206   400000 236003                    LDQ     -131072,DU
         2 000207   200011 756100                    STQ     DO_DELREC,,AUTO

     2126     4966    2           PORT_DCB$ = DCBADDR(PORT.DCB#);

   4966  2 000210   000001 471400 3                  LDP1    1
         2 000211   100000 473500                    LDP3    0,,PR1
         2 000212   200003 474500                    LDP4    @PORT,,AUTO
         2 000213   400004 720100                    LXL0    4,,PR4
         2 000214   300000 236110                    LDQ     0,X0,PR3
         2 000215   200012 756100                    STQ     PORT_DCB$,,AUTO

     2127     4967
     2128     4968    2           FPT_PFIL = CONST_FPT_PFIL;

   4968  2 000216   000100 100400                    MLR     fill='000'O
         2 000217   000000 000020 1                  ADSC9   CONST_FPT_PFIL           cn=0,n=16
         2 000220   200020 000020                    ADSC9   FPT_PFIL,,AUTO           cn=0,n=16

PL6.E3A0      #004=VDA$PDELETE File=VDA$PORT.:VDA5TSI                            FRI 07/04/97 11:08 Page:277
     2129     4969    2           FPT_PFIL.V_ = VECTOR(FPT_PFIL.V);

   4969  2 000221   000006 235000 3                  LDA     6
         2 000222   200052 452500                    STP2    VD_ERR$+2,,AUTO
         2 000223   200052 236100                    LDQ     VD_ERR$+2,,AUTO
         2 000224   000022 036003                    ADLQ    18,DU
         2 000225   200020 757100                    STAQ    FPT_PFIL,,AUTO

     2130     4970    2           FPT_PFIL.V.DCB# = PORT.DCB#;

   4970  2 000226   400004 720100                    LXL0    4,,PR4
         2 000227   200022 740100                    STX0    FPT_PFIL+2,,AUTO

     2131     4971
     2132     4972    2           FPT_PRECORD = CONST_FPT_PRECORD;

   4972  2 000230   000100 100400                    MLR     fill='000'O
         2 000231   000004 000050 1                  ADSC9   CONST_FPT_PRECORD        cn=0,n=40
         2 000232   200024 000050                    ADSC9   FPT_PRECORD,,AUTO        cn=0,n=40

     2133     4973    2           FPT_PRECORD.V_ = VECTOR(FPT_PRECORD.V);

   4973  2 000233   000007 235000 3                  LDA     7
         2 000234   200052 452500                    STP2    VD_ERR$+2,,AUTO
         2 000235   200052 236100                    LDQ     VD_ERR$+2,,AUTO
         2 000236   000032 036003                    ADLQ    26,DU
         2 000237   200024 757100                    STAQ    FPT_PRECORD,,AUTO

     2134     4974    2           FPT_PRECORD.V.DCB# = PORT.DCB#;

   4974  2 000240   400004 721100                    LXL1    4,,PR4
         2 000241   200032 741100                    STX1    FPT_PRECORD+6,,AUTO

     2135     4975
     2136     4976    2           FPT_DELREC = CONST_FPT_DELREC;

   4976  2 000242   000100 100400                    MLR     fill='000'O
PL6.E3A0      #004=VDA$PDELETE File=VDA$PORT.:VDA5TSI                            FRI 07/04/97 11:08 Page:278
         2 000243   000016 000050 1                  ADSC9   CONST_FPT_DELREC         cn=0,n=40
         2 000244   200036 000050                    ADSC9   FPT_DELREC,,AUTO         cn=0,n=40

     2137     4977    2           FPT_DELREC.V_ = VECTOR(FPT_DELREC.V);

   4977  2 000245   000006 235000 3                  LDA     6
         2 000246   200052 452500                    STP2    VD_ERR$+2,,AUTO
         2 000247   200052 236100                    LDQ     VD_ERR$+2,,AUTO
         2 000250   000046 036003                    ADLQ    38,DU
         2 000251   200036 757100                    STAQ    FPT_DELREC,,AUTO

     2138     4978    2           FPT_DELREC.V.DCB# = PORT.DCB#;

   4978  2 000252   400004 722100                    LXL2    4,,PR4
         2 000253   200046 742100                    STX2    FPT_DELREC+8,,AUTO

     2139     4979
     2140     4980                /*
     2141     4981                *   First, resolve the end-location of the range to a record
     2142     4982                *       key, and setup FPT_DELREC's end-key.
     2143     4983                */
     2144     4984    2           IF RANGE.ENDD.EOF THEN

   4984  2 000254   200004 475500                    LDP5    @RANGE,,AUTO
         2 000255   500021 236100                    LDQ     17,,PR5
         2 000256   400000 316007                    CANQ    -131072,DL
         2 000257   000373 600000 2                  TZE     s:5018

     2145     4985    3   FIND_EOF_KEY: DO;

   4985  2 000260                       FIND_EOF_KEY null
     2146     4986                   /* Read end-key into last half of VD_STATIC_TEMP */
     2147     4987    4              DO CASE (PORT.LEVEL.ORG# (%LVL_EXT_REC));

   4987  2 000260   400032 223100                    LDX3    26,,PR4
         2 000261   000004 103003                    CMPX3   4,DU
         2 000262   000264 602013 2                  TNC     FIND_EOF_KEY+4,X3
PL6.E3A0      #004=VDA$PDELETE File=VDA$PORT.:VDA5TSI                            FRI 07/04/97 11:08 Page:279
         2 000263   000312 710000 2                  TRA     s:4996
         2 000264   000312 710000 2                  TRA     s:4996
         2 000265   000270 710000 2                  TRA     s:4989
         2 000266   000274 710000 2                  TRA     s:4991
         2 000267   000277 710000 2                  TRA     s:4993

     2148     4988    4               CASE (%ORG_CONSEC);

     2149     4989    4                 FPT_PRECORD.KEY_ = VECTOR(STATIC$TEMP_END_NUM);

   4989  2 000270   777640 235007                    LDA     -96,DL
         2 000271   000031 236000 1                  LDQ     STATIC_TEMP_END$
         2 000272   200026 757100                    STAQ    FPT_PRECORD+2,,AUTO
         2 000273   000321 710000 2                  TRA     s:4998

     2150     4990    4               CASE (%ORG_KEYED);

     2151     4991    4                 FPT_PRECORD.KEY_ = VECTOR(VD_STATIC_TEMP.END_KEY);

   4991  2 000274   000010 237000 3                  LDAQ    8
         2 000275   200026 757100                    STAQ    FPT_PRECORD+2,,AUTO
         2 000276   000321 710000 2                  TRA     s:4998

     2152     4992    4               CASE (%ORG_INDEXED);

     2153     4993    4                 FIXED_KEY_LEN = PORT$DCB.KEYL#;

   4993  2 000277   200012 476500                    LDP6    PORT_DCB$,,AUTO
         2 000300   600036 236100                    LDQ     30,,PR6
         2 000301   000011 772000                    QRL     9
         2 000302   000777 376007                    ANQ     511,DL
         2 000303   200007 756100                    STQ     FIXED_KEY_LEN,,AUTO

     2154     4994    4                 FPT_PRECORD.KEY_ = VECTOR(STATIC$TEMP_END_FIXED.BYTES);

   4994  2 000304   200007 235100                    LDA     FIXED_KEY_LEN,,AUTO
         2 000305   000020 735000                    ALS     16
PL6.E3A0      #004=VDA$PDELETE File=VDA$PORT.:VDA5TSI                            FRI 07/04/97 11:08 Page:280
         2 000306   000140 135007                    SBLA    96,DL
         2 000307   000031 236000 1                  LDQ     STATIC_TEMP_END$
         2 000310   200026 757100                    STAQ    FPT_PRECORD+2,,AUTO
         2 000311   000321 710000 2                  TRA     s:4998

     2155     4995    4               CASE (ELSE);

     2156     4996    4                 CALL VDG$ESCREECH (PORT.LEVEL.ORG# (%LVL_EXT_REC));

   4996  2 000312   200003 236100                    LDQ     @PORT,,AUTO
         2 000313   000032 036003                    ADLQ    26,DU
         2 000314   200052 756100                    STQ     VD_ERR$+2,,AUTO
         2 000315   200052 630500                    EPPR0   VD_ERR$+2,,AUTO
         2 000316   000017 631400 xsym               EPPR1   B_VECTNIL+15
         2 000317   000000 701000 xent               TSX1    VDG$ESCREECH
         2 000320   000000 011000                    NOP     0

     2157     4997    4               END;

     2158     4998    3              FPT_DELREC.LKEY_ = FPT_PRECORD.KEY_;

   4998  2 000321   200026 237100                    LDAQ    FPT_PRECORD+2,,AUTO
         2 000322   200042 757100                    STAQ    FPT_DELREC+4,,AUTO

     2159     4999
     2160     5000    3              FPT_PFIL.V.BOF# = %FALSE;

   5000  2 000323   000012 236000 3                  LDQ     10
         2 000324   200022 356100                    ANSQ    FPT_PFIL+2,,AUTO

     2161     5001    3              PORT.LAST_OP# = %ACCOP_LOCATION;

   5001  2 000325   000002 220003                    LDX0    2,DU
         2 000326   200003 470500                    LDP0    @PORT,,AUTO
         2 000327   000007 740100                    STX0    7,,PR0

     2162     5002    3              CALL M$PFIL (FPT_PFIL)
PL6.E3A0      #004=VDA$PDELETE File=VDA$PORT.:VDA5TSI                            FRI 07/04/97 11:08 Page:281

   5002  2 000330   200020 630500                    EPPR0   FPT_PFIL,,AUTO
         2 000331   440004 713400                    CLIMB   alt,+16388
         2 000332   400000 401760                    pmme    nvectors=1
         2 000333   001220 702000 2                  TSX2    PFIL_FAILED

     2163     5003    3                ALTRET (PFIL_FAILED);
     2164     5004    3              FPT_PRECORD.V.N# = -1;

   5004  2 000334   000001 335007                    LCA     1,DL
         2 000335   200033 755100                    STA     FPT_PRECORD+7,,AUTO

     2165     5005    3              CALL M$PRECORD (FPT_PRECORD)

   5005  2 000336   200024 630500                    EPPR0   FPT_PRECORD,,AUTO
         2 000337   440003 713400                    CLIMB   alt,+16387
         2 000340   401000 401760                    pmme    nvectors=3
         2 000341   000343 702000 2                  TSX2    s:5007
         2 000342   000355 710000 2                  TRA     s:5013

     2166     5006    4              WHENALTRETURN DO;

     2167     5007    4                 ERR_CODE = B$TCB.ALT$->B$ALT.ERR;

   5007  2 000343   000000 470400 xsym               LDP0    B$TCB$
         2 000344   000000 471500                    LDP1    0,,PR0
         2 000345   100102 236100                    LDQ     66,,PR1
         2 000346   200015 756100                    STQ     ERR_CODE,,AUTO

     2168     5008    4                 IF ERR_CODE.CODE# = %E$BOF THEN

   5008  2 000347   200015 236100                    LDQ     ERR_CODE,,AUTO
         2 000350   377770 376007                    ANQ     131064,DL
         2 000351   000040 116007                    CMPQ    32,DL
         2 000352   001220 601000 2                  TNZ     PFIL_FAILED

     2169     5009    4                    DO_DELREC = %FALSE;    /* File is empty */
PL6.E3A0      #004=VDA$PDELETE File=VDA$PORT.:VDA5TSI                            FRI 07/04/97 11:08 Page:282

   5009  2 000353   200011 450100                    STZ     DO_DELREC,,AUTO
         2 000354   000355 710000 2                  TRA     s:5013

     2170     5010    4                 ELSE
     2171     5011    4                    GOTO PRECORD_FAILED;
     2172     5012    4                 END;
     2173     5013    3              IF VD_$$MON_ACC.V# > 10 THEN

   5013  2 000355   000003 235000 xsym               LDA     VD_$$MON_ACC+3
         2 000356   000012 115007                    CMPA    10,DL
         2 000357   000467 604400 2                  TMOZ    s:5052

     2174     5014    3                 CALL VDG$MACC_PDELETE_EOF_KEY (FPT_PRECORD.V.DCB#,

   5014  2 000360   200015 630500                    EPPR0   ERR_CODE,,AUTO
         2 000361   200054 450500                    STP0    VD_ERR$+4,,AUTO
         2 000362   200026 631500                    EPPR1   FPT_PRECORD+2,,AUTO
         2 000363   200053 451500                    STP1    VD_ERR$+3,,AUTO
         2 000364   200032 633500                    EPPR3   FPT_PRECORD+6,,AUTO
         2 000365   200052 453500                    STP3    VD_ERR$+2,,AUTO
         2 000366   200052 630500                    EPPR0   VD_ERR$+2,,AUTO
         2 000367   000021 631400 xsym               EPPR1   B_VECTNIL+17
         2 000370   000000 701000 xent               TSX1    VDG$MACC_PDELETE_EOF_KEY
         2 000371   000000 011000                    NOP     0

     2175     5015    3                   FPT_PRECORD.KEY_, ERR_CODE);
     2176     5016    3              END FIND_EOF_KEY;

   5016  2 000372   000467 710000 2                  TRA     s:5052

     2177     5017    3           ELSE DO;

     2178     5018    3              IF RANGE.ENDD.KEY (%(LVL_EXT_REC-1)) = %CLEAR THEN

   5018  2 000373   000000 106500                    CMPC    fill='000'O
         2 000374   500011 000010                    ADSC9   9,,PR5                   cn=0,n=8
PL6.E3A0      #004=VDA$PDELETE File=VDA$PORT.:VDA5TSI                            FRI 07/04/97 11:08 Page:283
         2 000375   000002 000002 xsym               ADSC9   B_VECTNIL+2              cn=0,n=2
         2 000376   000401 601000 2                  TNZ     s:5029

     2179     5019    3                 DO_DELREC = %FALSE;   /* End=BOF: nothing to delete */

   5019  2 000377   200011 450100                    STZ     DO_DELREC,,AUTO
         2 000400   000467 710000 2                  TRA     s:5052

     2180     5020    4              ELSE DO;

     2181     5021                      %GETKEY (KEY=RANGE.ENDD.KEY, INDX="%(LVL_EXT_REC-1)",
     2182     5022                      PTR=DEL_END_KEY$);

   5029  2 000401   500011 723100                    LXL3    9,,PR5
         2 000402   000002 103003                    CMPX3   2,DU
         2 000403   000410 601000 2                  TNZ     s:5029+7

   5029  2 000404   500012 476500                    LDP6    10,,PR5
         2 000405   600002 637500                    EPPR7   2,,PR6
         2 000406   200014 457500                    STP7    DEL_END_KEY$,,AUTO
         2 000407   000413 710000 2                  TRA     s:5032

   5029  2 000410   200004 236100                    LDQ     @RANGE,,AUTO
         2 000411   000012 036003                    ADLQ    10,DU
         2 000412   200014 756100                    STQ     DEL_END_KEY$,,AUTO

     2183     5032    5                 DO CASE (PORT.LEVEL.ORG# (%LVL_EXT_REC));

   5032  2 000413   400032 224100                    LDX4    26,,PR4
         2 000414   000004 104003                    CMPX4   4,DU
         2 000415   000417 602014 2                  TNC     s:5032+4,X4
         2 000416   000460 710000 2                  TRA     s:5040
         2 000417   000460 710000 2                  TRA     s:5040
         2 000420   000423 710000 2                  TRA     s:5034
         2 000421   000435 710000 2                  TRA     s:5036
         2 000422   000447 710000 2                  TRA     s:5038

PL6.E3A0      #004=VDA$PDELETE File=VDA$PORT.:VDA5TSI                            FRI 07/04/97 11:08 Page:284
     2184     5033    5                  CASE (%ORG_CONSEC);

     2185     5034    5                    FPT_DELREC.LKEY_ = VECTOR(DEL$END_KEY);

   5034  2 000423   200014 476500                    LDP6    DEL_END_KEY$,,AUTO
         2 000424   600000 236100                    LDQ     0,,PR6
         2 000425   000033 772000                    QRL     27
         2 000426   000001 625006                    EAX5    1,QL
         2 000427   000000 635015                    EAA     0,X5
         2 000430   000002 771000                    ARL     2
         2 000431   000140 135007                    SBLA    96,DL
         2 000432   200014 236100                    LDQ     DEL_END_KEY$,,AUTO
         2 000433   200042 757100                    STAQ    FPT_DELREC+4,,AUTO
         2 000434   000467 710000 2                  TRA     s:5052

     2186     5035    5                  CASE (%ORG_KEYED);

     2187     5036    5                    FPT_DELREC.LKEY_ = VECTOR(DEL$END_KEY);

   5036  2 000435   200014 476500                    LDP6    DEL_END_KEY$,,AUTO
         2 000436   600000 236100                    LDQ     0,,PR6
         2 000437   000033 772000                    QRL     27
         2 000440   000001 625006                    EAX5    1,QL
         2 000441   000000 635015                    EAA     0,X5
         2 000442   000002 771000                    ARL     2
         2 000443   000140 135007                    SBLA    96,DL
         2 000444   200014 236100                    LDQ     DEL_END_KEY$,,AUTO
         2 000445   200042 757100                    STAQ    FPT_DELREC+4,,AUTO
         2 000446   000467 710000 2                  TRA     s:5052

     2188     5037    5                  CASE (%ORG_INDEXED);

     2189     5038    5                    FPT_DELREC.LKEY_ = VECTOR(DEL$END_KEY.BYTES);

   5038  2 000447   200014 476500                    LDP6    DEL_END_KEY$,,AUTO
         2 000450   600000 236100                    LDQ     0,,PR6
         2 000451   000033 772000                    QRL     27
PL6.E3A0      #004=VDA$PDELETE File=VDA$PORT.:VDA5TSI                            FRI 07/04/97 11:08 Page:285
         2 000452   000064 737000                    LLS     52
         2 000453   000140 135007                    SBLA    96,DL
         2 000454   200014 236100                    LDQ     DEL_END_KEY$,,AUTO
         2 000455   200000 036007                    ADLQ    65536,DL
         2 000456   200042 757100                    STAQ    FPT_DELREC+4,,AUTO
         2 000457   000467 710000 2                  TRA     s:5052

     2190     5039    5                  CASE (ELSE);

     2191     5040    5                    CALL VDG$ESCREECH (PORT.LEVEL.ORG# (%LVL_EXT_REC));

   5040  2 000460   200003 236100                    LDQ     @PORT,,AUTO
         2 000461   000032 036003                    ADLQ    26,DU
         2 000462   200052 756100                    STQ     VD_ERR$+2,,AUTO
         2 000463   200052 630500                    EPPR0   VD_ERR$+2,,AUTO
         2 000464   000017 631400 xsym               EPPR1   B_VECTNIL+15
         2 000465   000000 701000 xent               TSX1    VDG$ESCREECH
         2 000466   000000 011000                    NOP     0

     2192     5041    5                  END;

     2193     5042    4                 END;

     2194     5043    3              END;

     2195     5044
     2196     5045
     2197     5046                /*
     2198     5047                *   Set up FPT_PRECORD to KEYR into VD_STATIC_TEMP.
     2199     5048                *   We set this up even if we don't have to PRECORD to get
     2200     5049                *       the start key, 'cause after the DELREC we'll have to
     2201     5050                *       PRECORD to find out where the DCB is positioned.
     2202     5051                */
     2203     5052    3           DO CASE (PORT.LEVEL.ORG# (%LVL_EXT_REC));

   5052  2 000467   200003 470500                    LDP0    @PORT,,AUTO
         2 000470   000032 220100                    LDX0    26,,PR0
PL6.E3A0      #004=VDA$PDELETE File=VDA$PORT.:VDA5TSI                            FRI 07/04/97 11:08 Page:286
         2 000471   000004 100003                    CMPX0   4,DU
         2 000472   000474 602010 2                  TNC     s:5052+5,X0
         2 000473   000522 710000 2                  TRA     s:5061
         2 000474   000522 710000 2                  TRA     s:5061
         2 000475   000500 710000 2                  TRA     s:5054
         2 000476   000504 710000 2                  TRA     s:5056
         2 000477   000507 710000 2                  TRA     s:5058

     2204     5053    3            CASE (%ORG_CONSEC);

     2205     5054    3              FPT_PRECORD.KEY_ = VECTOR(STATIC$TEMP_START_NUM);

   5054  2 000500   777640 235007                    LDA     -96,DL
         2 000501   000030 236000 1                  LDQ     STATIC_TEMP_START$
         2 000502   200026 757100                    STAQ    FPT_PRECORD+2,,AUTO
         2 000503   000531 710000 2                  TRA     s:5069

     2206     5055    3            CASE (%ORG_KEYED);

     2207     5056    3              FPT_PRECORD.KEY_ = VECTOR(VD_STATIC_TEMP.START_KEY);

   5056  2 000504   000014 237000 3                  LDAQ    12
         2 000505   200026 757100                    STAQ    FPT_PRECORD+2,,AUTO
         2 000506   000531 710000 2                  TRA     s:5069

     2208     5057    3            CASE (%ORG_INDEXED);

     2209     5058    3              FIXED_KEY_LEN = PORT$DCB.KEYL#;

   5058  2 000507   200012 471500                    LDP1    PORT_DCB$,,AUTO
         2 000510   100036 236100                    LDQ     30,,PR1
         2 000511   000011 772000                    QRL     9
         2 000512   000777 376007                    ANQ     511,DL
         2 000513   200007 756100                    STQ     FIXED_KEY_LEN,,AUTO

     2210     5059    3              FPT_PRECORD.KEY_ = VECTOR(STATIC$TEMP_START_FIXED.BYTES);

PL6.E3A0      #004=VDA$PDELETE File=VDA$PORT.:VDA5TSI                            FRI 07/04/97 11:08 Page:287
   5059  2 000514   200007 235100                    LDA     FIXED_KEY_LEN,,AUTO
         2 000515   000020 735000                    ALS     16
         2 000516   000140 135007                    SBLA    96,DL
         2 000517   000030 236000 1                  LDQ     STATIC_TEMP_START$
         2 000520   200026 757100                    STAQ    FPT_PRECORD+2,,AUTO
         2 000521   000531 710000 2                  TRA     s:5069

     2211     5060    3            CASE (ELSE);

     2212     5061    3              CALL VDG$ESCREECH (PORT.LEVEL.ORG# (%LVL_EXT_REC));

   5061  2 000522   200003 236100                    LDQ     @PORT,,AUTO
         2 000523   000032 036003                    ADLQ    26,DU
         2 000524   200052 756100                    STQ     VD_ERR$+2,,AUTO
         2 000525   200052 630500                    EPPR0   VD_ERR$+2,,AUTO
         2 000526   000017 631400 xsym               EPPR1   B_VECTNIL+15
         2 000527   000000 701000 xent               TSX1    VDG$ESCREECH
         2 000530   000000 011000                    NOP     0

     2213     5062    3            END;

     2214     5063
     2215     5064
     2216     5065                /*
     2217     5066                *   Resolve the start-location of the range to a record key,
     2218     5067                *       and setup FPT_DELREC's start-key.
     2219     5068                */
     2220     5069    2           IF RANGE.START = %CLEAR THEN

   5069  2 000531   200004 470500                    LDP0    @RANGE,,AUTO
         2 000532   000000 106500                    CMPC    fill='000'O
         2 000533   000000 000044                    ADSC9   0,,PR0                   cn=0,n=36
         2 000534   000002 000002 xsym               ADSC9   B_VECTNIL+2              cn=0,n=2
         2 000535   000651 601000 2                  TNZ     s:5106

     2221     5070    3   FIND_BOF_KEY: DO;

PL6.E3A0      #004=VDA$PDELETE File=VDA$PORT.:VDA5TSI                            FRI 07/04/97 11:08 Page:288
   5070  2 000536                       FIND_BOF_KEY null
     2222     5071    3              FPT_DELREC.KEY_ = FPT_PRECORD.KEY_;

   5071  2 000536   200026 237100                    LDAQ    FPT_PRECORD+2,,AUTO
         2 000537   200040 757100                    STAQ    FPT_DELREC+2,,AUTO

     2223     5072    3              FPT_PFIL.V.BOF# = %TRUE;

   5072  2 000540   400000 236007                    LDQ     -131072,DL
         2 000541   200022 256100                    ORSQ    FPT_PFIL+2,,AUTO

     2224     5073    3              PORT.LAST_OP# = %ACCOP_LOCATION;

   5073  2 000542   000002 220003                    LDX0    2,DU
         2 000543   200003 471500                    LDP1    @PORT,,AUTO
         2 000544   100007 740100                    STX0    7,,PR1

     2225     5074    3              CALL M$PFIL (FPT_PFIL)

   5074  2 000545   200020 630500                    EPPR0   FPT_PFIL,,AUTO
         2 000546   440004 713400                    CLIMB   alt,+16388
         2 000547   400000 401760                    pmme    nvectors=1
         2 000550   001220 702000 2                  TSX2    PFIL_FAILED

     2226     5075    3                ALTRET (PFIL_FAILED);
     2227     5076    3              FPT_PRECORD.V.N# = 0;

   5076  2 000551   200033 450100                    STZ     FPT_PRECORD+7,,AUTO

     2228     5077    3              START_BOF_ERR_CODE = %CLEAR;

   5077  2 000552   200016 450100                    STZ     START_BOF_ERR_CODE,,AUTO

     2229     5078    3              CALL M$PRECORD (FPT_PRECORD)

   5078  2 000553   200024 630500                    EPPR0   FPT_PRECORD,,AUTO
         2 000554   440003 713400                    CLIMB   alt,+16387
PL6.E3A0      #004=VDA$PDELETE File=VDA$PORT.:VDA5TSI                            FRI 07/04/97 11:08 Page:289
         2 000555   401000 401760                    pmme    nvectors=3
         2 000556   000560 702000 2                  TSX2    s:5080
         2 000557   000564 710000 2                  TRA     s:5082

     2230     5079    4              WHENALTRETURN DO;

     2231     5080    4                 START_BOF_ERR_CODE = B$TCB.ALT$->B$ALT.ERR;

   5080  2 000560   000000 470400 xsym               LDP0    B$TCB$
         2 000561   000000 471500                    LDP1    0,,PR0
         2 000562   100102 236100                    LDQ     66,,PR1
         2 000563   200016 756100                    STQ     START_BOF_ERR_CODE,,AUTO

     2232     5081    4                 END;

     2233     5082    3              IF VD_$$MON_ACC.V# > 10 THEN

   5082  2 000564   000003 235000 xsym               LDA     VD_$$MON_ACC+3
         2 000565   000012 115007                    CMPA    10,DL
         2 000566   000601 604400 2                  TMOZ    s:5085

     2234     5083    3                 CALL VDG$MACC_PDELETE_BOF_KEY (FPT_PRECORD.V.DCB#,

   5083  2 000567   200016 630500                    EPPR0   START_BOF_ERR_CODE,,AUTO
         2 000570   200054 450500                    STP0    VD_ERR$+4,,AUTO
         2 000571   200026 631500                    EPPR1   FPT_PRECORD+2,,AUTO
         2 000572   200053 451500                    STP1    VD_ERR$+3,,AUTO
         2 000573   200032 633500                    EPPR3   FPT_PRECORD+6,,AUTO
         2 000574   200052 453500                    STP3    VD_ERR$+2,,AUTO
         2 000575   200052 630500                    EPPR0   VD_ERR$+2,,AUTO
         2 000576   000021 631400 xsym               EPPR1   B_VECTNIL+17
         2 000577   000000 701000 xent               TSX1    VDG$MACC_PDELETE_BOF_KEY
         2 000600   000000 011000                    NOP     0

     2235     5084    3                   FPT_PRECORD.KEY_, START_BOF_ERR_CODE);
     2236     5085    3              IF START_BOF_ERR_CODE.CODE# = %E$EOF THEN

PL6.E3A0      #004=VDA$PDELETE File=VDA$PORT.:VDA5TSI                            FRI 07/04/97 11:08 Page:290
   5085  2 000601   200016 236100                    LDQ     START_BOF_ERR_CODE,,AUTO
         2 000602   377770 376007                    ANQ     131064,DL
         2 000603   000060 116007                    CMPQ    48,DL
         2 000604   000607 601000 2                  TNZ     s:5087

     2237     5086    3                 DO_DELREC = %FALSE;

   5086  2 000605   200011 450100                    STZ     DO_DELREC,,AUTO
         2 000606   000745 710000 2                  TRA     s:5138

     2238     5087    3              ELSE IF START_BOF_ERR_CODE.CODE# ~= 0 THEN

   5087  2 000607   200016 236100                    LDQ     START_BOF_ERR_CODE,,AUTO
         2 000610   377770 316007                    CANQ    131064,DL
         2 000611   001220 601000 2                  TNZ     PFIL_FAILED

     2239     5088    3                    GOTO PRECORD_FAILED;
     2240     5089    4                 ELSE DO;

     2241     5090                         /* Check for empty-file:  KEYR key = "clear" */
     2242     5091    5                    DO CASE (PORT.LEVEL.ORG# (%LVL_EXT_REC));

   5091  2 000612   200003 470500                    LDP0    @PORT,,AUTO
         2 000613   000032 220100                    LDX0    26,,PR0
         2 000614   000004 100003                    CMPX0   4,DU
         2 000615   000617 602010 2                  TNC     s:5091+5,X0
         2 000616   000641 710000 2                  TRA     s:5101
         2 000617   000641 710000 2                  TRA     s:5101
         2 000620   000650 710000 2                  TRA     s:5104
         2 000621   000623 710000 2                  TRA     s:5095
         2 000622   000631 710000 2                  TRA     s:5098

     2243     5092    5                     CASE (%ORG_CONSEC);

     2244     5093    5                       ;   /* No way to tell EOF on consec files */
     2245     5094    5                     CASE (%ORG_KEYED);

PL6.E3A0      #004=VDA$PDELETE File=VDA$PORT.:VDA5TSI                            FRI 07/04/97 11:08 Page:291
     2246     5095    5                       IF STATIC$TEMP_START_KEY.LENGTH# = 0 THEN

   5095  2 000623   000030 471400 1                  LDP1    STATIC_TEMP_START$
         2 000624   100000 236100                    LDQ     0,,PR1
         2 000625   777000 316003                    CANQ    -512,DU
         2 000626   000745 601000 2                  TNZ     s:5138

     2247     5096    5                          DO_DELREC = %FALSE;

   5096  2 000627   200011 450100                    STZ     DO_DELREC,,AUTO
         2 000630   000745 710000 2                  TRA     s:5138

     2248     5097    5                     CASE (%ORG_INDEXED);

     2249     5098    5                       IF STATIC$TEMP_START_FIXED = %CLEAR THEN

   5098  2 000631   000030 471400 1                  LDP1    STATIC_TEMP_START$
         2 000632   200007 721100                    LXL1    FIXED_KEY_LEN,,AUTO
         2 000633   000000 106540                    CMPC    fill='000'O
         2 000634   100000 000011                    ADSC9   0,,PR1                   cn=0,n=*X1
         2 000635   000002 000002 xsym               ADSC9   B_VECTNIL+2              cn=0,n=2
         2 000636   000745 601000 2                  TNZ     s:5138

     2250     5099    5                          DO_DELREC = %FALSE;

   5099  2 000637   200011 450100                    STZ     DO_DELREC,,AUTO
         2 000640   000745 710000 2                  TRA     s:5138

     2251     5100    5                     CASE (ELSE);

     2252     5101    5                       CALL VDG$ESCREECH (PORT.LEVEL.ORG# (%LVL_EXT_REC));

   5101  2 000641   200003 236100                    LDQ     @PORT,,AUTO
         2 000642   000032 036003                    ADLQ    26,DU
         2 000643   200052 756100                    STQ     VD_ERR$+2,,AUTO
         2 000644   200052 630500                    EPPR0   VD_ERR$+2,,AUTO
         2 000645   000017 631400 xsym               EPPR1   B_VECTNIL+15
PL6.E3A0      #004=VDA$PDELETE File=VDA$PORT.:VDA5TSI                            FRI 07/04/97 11:08 Page:292
         2 000646   000000 701000 xent               TSX1    VDG$ESCREECH
         2 000647   000000 011000                    NOP     0

     2253     5102    5                     END;

     2254     5103    4                    END;

     2255     5104    3              END FIND_BOF_KEY;

   5104  2 000650   000745 710000 2                  TRA     s:5138

     2256     5105    3           ELSE DO;

     2257     5106    3              IF RANGE.START.EOF THEN

   5106  2 000651   000010 236100                    LDQ     8,,PR0
         2 000652   400000 316007                    CANQ    -131072,DL
         2 000653   000656 600000 2                  TZE     s:5117

     2258     5107    3                 DO_DELREC = %FALSE;       /* Nothing to delete */

   5107  2 000654   200011 450100                    STZ     DO_DELREC,,AUTO
         2 000655   000745 710000 2                  TRA     s:5138

     2259     5108    4              ELSE DO;

     2260     5109                      %GETKEY (KEY=RANGE.START.KEY, INDX="%(LVL_EXT_REC-1)",
     2261     5110                      PTR=DEL_START_KEY$);

   5117  2 000656   000000 720100                    LXL0    0,,PR0
         2 000657   000002 100003                    CMPX0   2,DU
         2 000660   000665 601000 2                  TNZ     s:5117+7

   5117  2 000661   000001 471500                    LDP1    1,,PR0
         2 000662   100002 633500                    EPPR3   2,,PR1
         2 000663   200013 453500                    STP3    DEL_START_KEY$,,AUTO
         2 000664   000670 710000 2                  TRA     s:5120
PL6.E3A0      #004=VDA$PDELETE File=VDA$PORT.:VDA5TSI                            FRI 07/04/97 11:08 Page:293

   5117  2 000665   200004 236100                    LDQ     @RANGE,,AUTO
         2 000666   000001 036003                    ADLQ    1,DU
         2 000667   200013 756100                    STQ     DEL_START_KEY$,,AUTO

     2262     5120    5                 DO CASE (PORT.LEVEL.ORG# (%LVL_EXT_REC));

   5120  2 000670   200003 471500                    LDP1    @PORT,,AUTO
         2 000671   100032 221100                    LDX1    26,,PR1
         2 000672   000004 101003                    CMPX1   4,DU
         2 000673   000675 602011 2                  TNC     s:5120+5,X1
         2 000674   000736 710000 2                  TRA     s:5128
         2 000675   000736 710000 2                  TRA     s:5128
         2 000676   000701 710000 2                  TRA     s:5122
         2 000677   000713 710000 2                  TRA     s:5124
         2 000700   000725 710000 2                  TRA     s:5126

     2263     5121    5                  CASE (%ORG_CONSEC);

     2264     5122    5                    FPT_DELREC.KEY_ = VECTOR(DEL$START_KEY);

   5122  2 000701   200013 473500                    LDP3    DEL_START_KEY$,,AUTO
         2 000702   300000 236100                    LDQ     0,,PR3
         2 000703   000033 772000                    QRL     27
         2 000704   000001 622006                    EAX2    1,QL
         2 000705   000000 635012                    EAA     0,X2
         2 000706   000002 771000                    ARL     2
         2 000707   000140 135007                    SBLA    96,DL
         2 000710   200013 236100                    LDQ     DEL_START_KEY$,,AUTO
         2 000711   200040 757100                    STAQ    FPT_DELREC+2,,AUTO
         2 000712   000745 710000 2                  TRA     s:5138

     2265     5123    5                  CASE (%ORG_KEYED);

     2266     5124    5                    FPT_DELREC.KEY_ = VECTOR(DEL$START_KEY);

   5124  2 000713   200013 473500                    LDP3    DEL_START_KEY$,,AUTO
PL6.E3A0      #004=VDA$PDELETE File=VDA$PORT.:VDA5TSI                            FRI 07/04/97 11:08 Page:294
         2 000714   300000 236100                    LDQ     0,,PR3
         2 000715   000033 772000                    QRL     27
         2 000716   000001 622006                    EAX2    1,QL
         2 000717   000000 635012                    EAA     0,X2
         2 000720   000002 771000                    ARL     2
         2 000721   000140 135007                    SBLA    96,DL
         2 000722   200013 236100                    LDQ     DEL_START_KEY$,,AUTO
         2 000723   200040 757100                    STAQ    FPT_DELREC+2,,AUTO
         2 000724   000745 710000 2                  TRA     s:5138

     2267     5125    5                  CASE (%ORG_INDEXED);

     2268     5126    5                    FPT_DELREC.KEY_ = VECTOR(DEL$START_KEY.BYTES);

   5126  2 000725   200013 473500                    LDP3    DEL_START_KEY$,,AUTO
         2 000726   300000 236100                    LDQ     0,,PR3
         2 000727   000033 772000                    QRL     27
         2 000730   000064 737000                    LLS     52
         2 000731   000140 135007                    SBLA    96,DL
         2 000732   200013 236100                    LDQ     DEL_START_KEY$,,AUTO
         2 000733   200000 036007                    ADLQ    65536,DL
         2 000734   200040 757100                    STAQ    FPT_DELREC+2,,AUTO
         2 000735   000745 710000 2                  TRA     s:5138

     2269     5127    5                  CASE (ELSE);

     2270     5128    5                    CALL VDG$ESCREECH (PORT.LEVEL.ORG# (%LVL_EXT_REC));

   5128  2 000736   200003 236100                    LDQ     @PORT,,AUTO
         2 000737   000032 036003                    ADLQ    26,DU
         2 000740   200052 756100                    STQ     VD_ERR$+2,,AUTO
         2 000741   200052 630500                    EPPR0   VD_ERR$+2,,AUTO
         2 000742   000017 631400 xsym               EPPR1   B_VECTNIL+15
         2 000743   000000 701000 xent               TSX1    VDG$ESCREECH
         2 000744   000000 011000                    NOP     0

     2271     5129    5                  END;
PL6.E3A0      #004=VDA$PDELETE File=VDA$PORT.:VDA5TSI                            FRI 07/04/97 11:08 Page:295

     2272     5130    4                 END;

     2273     5131    3              END;

     2274     5132
     2275     5133
     2276     5134                /*
     2277     5135                *   Prepare to reposition the port.
     2278     5136                */
     2279     5137
     2280     5138    2           CALL VDG$OCLEAR_LOCATION (PORT.CURRENT)

   5138  2 000745   200003 236100                    LDQ     @PORT,,AUTO
         2 000746   000012 036003                    ADLQ    10,DU
         2 000747   200052 756100                    STQ     VD_ERR$+2,,AUTO
         2 000750   200052 630500                    EPPR0   VD_ERR$+2,,AUTO
         2 000751   000017 631400 xsym               EPPR1   B_VECTNIL+15
         2 000752   000000 701000 xent               TSX1    VDG$OCLEAR_LOCATION
         2 000753   001246 702000 2                  TSX2    OALLOC_FAILED

     2281     5139    2             ALTRET (OCLEAR_LOCATION_FAILED);
     2282     5140                %CLEARSPEC (SPEC=PORT.LEVEL.SPEC, INDX=%LVL_EXT_REC);

   5147  2 000754   200003 470500                    LDP0    @PORT,,AUTO
         2 000755   000034 720100                    LXL0    28,,PR0
         2 000756   000002 100003                    CMPX0   2,DU
         2 000757   000771 601000 2                  TNZ     s:5148+2

   5147  2 000760   000035 471500                    LDP1    29,,PR0
         2 000761   200052 451500                    STP1    VD_ERR$+2,,AUTO
         2 000762   200052 630500                    EPPR0   VD_ERR$+2,,AUTO
         2 000763   000017 631400 xsym               EPPR1   B_VECTNIL+15
         2 000764   000000 701000 xent               TSX1    VDG$OFREE
         2 000765   000767 702000 2                  TSX2    s:5148
         2 000766   000771 710000 2                  TRA     s:5148+2

PL6.E3A0      #004=VDA$PDELETE File=VDA$PORT.:VDA5TSI                            FRI 07/04/97 11:08 Page:296
   5148  2 000767   200010 221300                    LDX1  ! FIXED_KEY_LEN+1,,AUTO
         2 000770   000000 702211                    TSX2  ! 0,X1

   5148  2 000771   200003 470500                    LDP0    @PORT,,AUTO
         2 000772   000034 450100                    STZ     28,,PR0
         2 000773   000035 450100                    STZ     29,,PR0

     2283     5150    3           IF PORT.LEVEL.DATA$ (%LVL_EXT_REC) ~= ADDR(NIL) THEN DO;

   5150  2 000774   000036 236100                    LDQ     30,,PR0
         2 000775   000001 116000 xsym               CMPQ    B_VECTNIL+1
         2 000776   001010 600000 2                  TZE     s:5157

     2284     5151    3              CALL VDG$OFREE (PORT.LEVEL.DATA$ (%LVL_EXT_REC) -> VD$BUFFER)

   5151  2 000777   000036 471500                    LDP1    30,,PR0
         2 001000   200052 451500                    STP1    VD_ERR$+2,,AUTO
         2 001001   200052 630500                    EPPR0   VD_ERR$+2,,AUTO
         2 001002   000017 631400 xsym               EPPR1   B_VECTNIL+15
         2 001003   000000 701000 xent               TSX1    VDG$OFREE
         2 001004   001246 702000 2                  TSX2    OALLOC_FAILED

     2285     5152    3                ALTRET (OFREE_FAILED);
     2286     5153    3              PORT.LEVEL.DATA$ (%LVL_EXT_REC) = ADDR(NIL);

   5153  2 001005   000001 236000 xsym               LDQ     B_VECTNIL+1
         2 001006   200003 470500                    LDP0    @PORT,,AUTO
         2 001007   000036 756100                    STQ     30,,PR0

     2287     5154    3              END;

     2288     5155
     2289     5156
     2290     5157    2           IF DO_DELREC THEN

   5157  2 001010   200011 234100                    SZN     DO_DELREC,,AUTO
         2 001011   001120 605000 2                  TPL     JUST_POSITION_PORT
PL6.E3A0      #004=VDA$PDELETE File=VDA$PORT.:VDA5TSI                            FRI 07/04/97 11:08 Page:297

     2291     5158    3   DELREC_AND_POSITION_PORT: DO;

   5158  2 001012                       DELREC_AND_* null
     2292     5159    3              PORT.LAST_OP# = %ACCOP_DELETE;

   5159  2 001012   000006 220003                    LDX0    6,DU
         2 001013   000007 740100                    STX0    7,,PR0

     2293     5160    3              IF VD_$$MON_ACC.V# > 10 THEN

   5160  2 001014   000003 235000 xsym               LDA     VD_$$MON_ACC+3
         2 001015   000012 115007                    CMPA    10,DL
         2 001016   001031 604400 2                  TMOZ    s:5163

     2294     5161    3                 CALL VDG$MACC_PDELETE_DELREC (FPT_DELREC.V.DCB#,

   5161  2 001017   200042 631500                    EPPR1   FPT_DELREC+4,,AUTO
         2 001020   200054 451500                    STP1    VD_ERR$+4,,AUTO
         2 001021   200040 633500                    EPPR3   FPT_DELREC+2,,AUTO
         2 001022   200053 453500                    STP3    VD_ERR$+3,,AUTO
         2 001023   200046 634500                    EPPR4   FPT_DELREC+8,,AUTO
         2 001024   200052 454500                    STP4    VD_ERR$+2,,AUTO
         2 001025   200052 630500                    EPPR0   VD_ERR$+2,,AUTO
         2 001026   000021 631400 xsym               EPPR1   B_VECTNIL+17
         2 001027   000000 701000 xent               TSX1    VDG$MACC_PDELETE_DELREC
         2 001030   000000 011000                    NOP     0

     2295     5162    3                   FPT_DELREC.KEY_, FPT_DELREC.LKEY_);
     2296     5163    3              CALL M$DELREC (FPT_DELREC)

   5163  2 001031   200036 630500                    EPPR0   FPT_DELREC,,AUTO
         2 001032   440002 713400                    CLIMB   alt,+16386
         2 001033   401400 401760                    pmme    nvectors=4
         2 001034   001220 702000 2                  TSX2    PFIL_FAILED

     2297     5164    3                ALTRET (DELREC_FAILED);
PL6.E3A0      #004=VDA$PDELETE File=VDA$PORT.:VDA5TSI                            FRI 07/04/97 11:08 Page:298
     2298     5165    3              COUNT = PORT$DCB.ARS#;

   5165  2 001035   200012 470500                    LDP0    PORT_DCB$,,AUTO
         2 001036   200006 471500                    LDP1    @COUNT,,AUTO
         2 001037   000000 235100                    LDA     0,,PR0
         2 001040   100000 755100                    STA     0,,PR1

     2299     5166                   /*
     2300     5167                   *   Since we did the M$DELREC, we can just M$PRECORD to find
     2301     5168                   *       out where the DCB is positioned.  (FPT_PRECORD should
     2302     5169                   *       still be setup to read key into VD_STATIC_TEMP.START.)
     2303     5170                   */
     2304     5171    3              FPT_PRECORD.V.N# = 0;

   5171  2 001041   200033 450100                    STZ     FPT_PRECORD+7,,AUTO

     2305     5172    3              ERR_CODE = %CLEAR;

   5172  2 001042   200015 450100                    STZ     ERR_CODE,,AUTO

     2306     5173    3              PORT.LAST_OP# = %ACCOP_LOCATION;

   5173  2 001043   000002 220003                    LDX0    2,DU
         2 001044   200003 473500                    LDP3    @PORT,,AUTO
         2 001045   300007 740100                    STX0    7,,PR3

     2307     5174    3              CALL M$PRECORD (FPT_PRECORD)

   5174  2 001046   200024 630500                    EPPR0   FPT_PRECORD,,AUTO
         2 001047   440003 713400                    CLIMB   alt,+16387
         2 001050   401000 401760                    pmme    nvectors=3
         2 001051   001053 702000 2                  TSX2    s:5176
         2 001052   001057 710000 2                  TRA     s:5178

     2308     5175    4              WHENALTRETURN DO;

     2309     5176    4                 ERR_CODE = B$TCB.ALT$->B$ALT.ERR;
PL6.E3A0      #004=VDA$PDELETE File=VDA$PORT.:VDA5TSI                            FRI 07/04/97 11:08 Page:299

   5176  2 001053   000000 470400 xsym               LDP0    B$TCB$
         2 001054   000000 471500                    LDP1    0,,PR0
         2 001055   100102 236100                    LDQ     66,,PR1
         2 001056   200015 756100                    STQ     ERR_CODE,,AUTO

     2310     5177    4                 END;

     2311     5178    3              IF VD_$$MON_ACC.V# > 10 THEN

   5178  2 001057   000003 235000 xsym               LDA     VD_$$MON_ACC+3
         2 001060   000012 115007                    CMPA    10,DL
         2 001061   001074 604400 2                  TMOZ    s:5181

     2312     5179    3                 CALL VDG$MACC_PDELETE_DCB_POS (FPT_PRECORD.V.DCB#,

   5179  2 001062   200015 630500                    EPPR0   ERR_CODE,,AUTO
         2 001063   200054 450500                    STP0    VD_ERR$+4,,AUTO
         2 001064   200026 631500                    EPPR1   FPT_PRECORD+2,,AUTO
         2 001065   200053 451500                    STP1    VD_ERR$+3,,AUTO
         2 001066   200032 633500                    EPPR3   FPT_PRECORD+6,,AUTO
         2 001067   200052 453500                    STP3    VD_ERR$+2,,AUTO
         2 001070   200052 630500                    EPPR0   VD_ERR$+2,,AUTO
         2 001071   000021 631400 xsym               EPPR1   B_VECTNIL+17
         2 001072   000000 701000 xent               TSX1    VDG$MACC_PDELETE_DCB_POS
         2 001073   000000 011000                    NOP     0

     2313     5180    3                   FPT_PRECORD.KEY_, ERR_CODE);
     2314     5181    3              CALL VDG$BUILD_LOCATION (ERR_CODE, VD_STATIC_TEMP.START_KEY,

   5181  2 001074   200003 236100                    LDQ     @PORT,,AUTO
         2 001075   000012 036003                    ADLQ    10,DU
         2 001076   200057 756100                    STQ     VD_ERR$+7,,AUTO
         2 001077   200007 630500                    EPPR0   FIXED_KEY_LEN,,AUTO
         2 001100   200056 450500                    STP0    VD_ERR$+6,,AUTO
         2 001101   200003 236100                    LDQ     @PORT,,AUTO
         2 001102   000013 036000 3                  ADLQ    11
PL6.E3A0      #004=VDA$PDELETE File=VDA$PORT.:VDA5TSI                            FRI 07/04/97 11:08 Page:300
         2 001103   200055 756100                    STQ     VD_ERR$+5,,AUTO
         2 001104   200003 236100                    LDQ     @PORT,,AUTO
         2 001105   000032 036003                    ADLQ    26,DU
         2 001106   200054 756100                    STQ     VD_ERR$+4,,AUTO
         2 001107   000015 236000 3                  LDQ     13
         2 001110   200053 756100                    STQ     VD_ERR$+3,,AUTO
         2 001111   200015 631500                    EPPR1   ERR_CODE,,AUTO
         2 001112   200052 451500                    STP1    VD_ERR$+2,,AUTO
         2 001113   200052 630500                    EPPR0   VD_ERR$+2,,AUTO
         2 001114   000024 631400 xsym               EPPR1   B_VECTNIL+20
         2 001115   000000 701000 xent               TSX1    VDG$BUILD_LOCATION
         2 001116   001246 702000 2                  TSX2    OALLOC_FAILED

     2315     5182    3                PORT.LEVEL.ORG# (%LVL_EXT_REC),
     2316     5183    3                PORT.LEVEL.KEY_TYPE# (%LVL_EXT_REC), FIXED_KEY_LEN,
     2317     5184    3                PORT.CURRENT)
     2318     5185    3                ALTRET (BUILD_LOCATION_FAILED);
     2319     5186    3              END DELREC_AND_POSITION_PORT;

   5186  2 001117   001216 710000 2                  TRA     s:5229

     2320     5187    2           ELSE
     2321     5188    3   JUST_POSITION_PORT: DO;

   5188  2 001120                       JUST_POSITI* null
     2322     5189                   /*
     2323     5190                   *   If we didn't do the M$DELREC, it's due to one of two things:
     2324     5191                   *     1. The file is empty:  set port position to EOF.
     2325     5192                   *  or 2. RANGE showed nothing to delete:  BOF thru BOF or
     2326     5193                   *           EOF thru EOF.  If RANGE.END = EOF, set port position
     2327     5194                   *           to EOF.  If RANGE.END = BOF, then .START must have
     2328     5195                   *           been BOF too, and we've already got the key of
     2329     5196                   *           the first record in the file (if any) in
     2330     5197                   *           VD_STATIC_TEMP.START_KEY.
     2331     5198                   */
     2332     5199
     2333     5200    4              IF RANGE.ENDD ~= %CLEAR THEN DO;
PL6.E3A0      #004=VDA$PDELETE File=VDA$PORT.:VDA5TSI                            FRI 07/04/97 11:08 Page:301

   5200  2 001120   200004 471500                    LDP1    @RANGE,,AUTO
         2 001121   000000 106500                    CMPC    fill='000'O
         2 001122   100011 000044                    ADSC9   9,,PR1                   cn=0,n=36
         2 001123   000002 000002 xsym               ADSC9   B_VECTNIL+2              cn=0,n=2
         2 001124   001130 600000 2                  TZE     s:5205

     2334     5201    4                 PORT.CURRENT.EOF = %TRUE;

   5201  2 001125   400000 236007                    LDQ     -131072,DL
         2 001126   000022 256100                    ORSQ    18,,PR0

     2335     5202    4                 END;

   5202  2 001127   001216 710000 2                  TRA     s:5229

     2336     5203    4              ELSE DO;

     2337     5204                      /* Check for empty-file:  KEYR key = "clear" */
     2338     5205    5                 DO CASE (PORT.LEVEL.ORG# (%LVL_EXT_REC));

   5205  2 001130   000032 220100                    LDX0    26,,PR0
         2 001131   000004 100003                    CMPX0   4,DU
         2 001132   001134 602010 2                  TNC     s:5205+4,X0
         2 001133   001160 710000 2                  TRA     s:5215
         2 001134   001160 710000 2                  TRA     s:5215
         2 001135   001167 710000 2                  TRA     s:5218
         2 001136   001140 710000 2                  TRA     s:5209
         2 001137   001147 710000 2                  TRA     s:5212

     2339     5206    5                  CASE (%ORG_CONSEC);

     2340     5207    5                    ; /* No way to tell EOF on consec files */
     2341     5208    5                  CASE (%ORG_KEYED);

     2342     5209    5                    IF STATIC$TEMP_START_KEY.LENGTH# = 0 THEN

PL6.E3A0      #004=VDA$PDELETE File=VDA$PORT.:VDA5TSI                            FRI 07/04/97 11:08 Page:302
   5209  2 001140   000030 473400 1                  LDP3    STATIC_TEMP_START$
         2 001141   300000 236100                    LDQ     0,,PR3
         2 001142   777000 316003                    CANQ    -512,DU
         2 001143   001167 601000 2                  TNZ     s:5218

     2343     5210    5                       PORT.CURRENT.EOF = %TRUE;

   5210  2 001144   400000 236007                    LDQ     -131072,DL
         2 001145   000022 256100                    ORSQ    18,,PR0
         2 001146   001167 710000 2                  TRA     s:5218

     2344     5211    5                  CASE (%ORG_INDEXED);

     2345     5212    5                    IF STATIC$TEMP_START_FIXED = %CLEAR THEN

   5212  2 001147   000030 473400 1                  LDP3    STATIC_TEMP_START$
         2 001150   200007 721100                    LXL1    FIXED_KEY_LEN,,AUTO
         2 001151   000000 106540                    CMPC    fill='000'O
         2 001152   300000 000011                    ADSC9   0,,PR3                   cn=0,n=*X1
         2 001153   000002 000002 xsym               ADSC9   B_VECTNIL+2              cn=0,n=2
         2 001154   001167 601000 2                  TNZ     s:5218

     2346     5213    5                       PORT.CURRENT.EOF = %TRUE;

   5213  2 001155   400000 236007                    LDQ     -131072,DL
         2 001156   000022 256100                    ORSQ    18,,PR0
         2 001157   001167 710000 2                  TRA     s:5218

     2347     5214    5                  CASE (ELSE);

     2348     5215    5                    CALL VDG$ESCREECH (PORT.LEVEL.ORG# (%LVL_EXT_REC));

   5215  2 001160   200003 236100                    LDQ     @PORT,,AUTO
         2 001161   000032 036003                    ADLQ    26,DU
         2 001162   200052 756100                    STQ     VD_ERR$+2,,AUTO
         2 001163   200052 630500                    EPPR0   VD_ERR$+2,,AUTO
         2 001164   000017 631400 xsym               EPPR1   B_VECTNIL+15
PL6.E3A0      #004=VDA$PDELETE File=VDA$PORT.:VDA5TSI                            FRI 07/04/97 11:08 Page:303
         2 001165   000000 701000 xent               TSX1    VDG$ESCREECH
         2 001166   000000 011000                    NOP     0

     2349     5216    5                  END;

     2350     5217
     2351     5218    5                 IF NOT PORT.CURRENT.EOF THEN DO;

   5218  2 001167   200003 470500                    LDP0    @PORT,,AUTO
         2 001170   000022 236100                    LDQ     18,,PR0
         2 001171   400000 316007                    CANQ    -131072,DL
         2 001172   001216 601000 2                  TNZ     s:5229

     2352     5219    5                    CALL VDG$BUILD_LOCATION (START_BOF_ERR_CODE,

   5219  2 001173   200003 236100                    LDQ     @PORT,,AUTO
         2 001174   000012 036003                    ADLQ    10,DU
         2 001175   200057 756100                    STQ     VD_ERR$+7,,AUTO
         2 001176   200007 631500                    EPPR1   FIXED_KEY_LEN,,AUTO
         2 001177   200056 451500                    STP1    VD_ERR$+6,,AUTO
         2 001200   200003 236100                    LDQ     @PORT,,AUTO
         2 001201   000013 036000 3                  ADLQ    11
         2 001202   200055 756100                    STQ     VD_ERR$+5,,AUTO
         2 001203   200003 236100                    LDQ     @PORT,,AUTO
         2 001204   000032 036003                    ADLQ    26,DU
         2 001205   200054 756100                    STQ     VD_ERR$+4,,AUTO
         2 001206   000015 236000 3                  LDQ     13
         2 001207   200053 756100                    STQ     VD_ERR$+3,,AUTO
         2 001210   200016 633500                    EPPR3   START_BOF_ERR_CODE,,AUTO
         2 001211   200052 453500                    STP3    VD_ERR$+2,,AUTO
         2 001212   200052 630500                    EPPR0   VD_ERR$+2,,AUTO
         2 001213   000024 631400 xsym               EPPR1   B_VECTNIL+20
         2 001214   000000 701000 xent               TSX1    VDG$BUILD_LOCATION
         2 001215   001246 702000 2                  TSX2    OALLOC_FAILED

     2353     5220    5                      VD_STATIC_TEMP.START_KEY, PORT.LEVEL.ORG# (%LVL_EXT_REC),
     2354     5221    5                      PORT.LEVEL.KEY_TYPE# (%LVL_EXT_REC), FIXED_KEY_LEN,
PL6.E3A0      #004=VDA$PDELETE File=VDA$PORT.:VDA5TSI                            FRI 07/04/97 11:08 Page:304
     2355     5222    5                      PORT.CURRENT)
     2356     5223    5                      ALTRET (BUILD_LOCATION_FAILED);
     2357     5224    5                    END;

     2358     5225    4                 END;

     2359     5226    3              END JUST_POSITION_PORT;

     2360     5227
     2361     5228
     2362     5229    2           RETURN;

   5229  2 001216   200010 221300                    LDX1  ! FIXED_KEY_LEN+1,,AUTO
         2 001217   000001 702211                    TSX2  ! 1,X1

   5223  2 001220                       PFIL_FAILED  null
   5223  2 001220                       PRECORD_FAI* null
   5223  2 001220                       DELREC_FAIL* null
     2363     5230
     2364     5231
     2365     5232
     2366     5233    2   PFIL_FAILED: ;
     2367     5234    2   PRECORD_FAILED: ;
     2368     5235    2   DELREC_FAILED: ;
     2369     5236    2           CALL VDG$OALLOC (%CLS_ERR, VD_ERR$)

   5236  2 001220   200050 630500                    EPPR0   VD_ERR$,,AUTO
         2 001221   200053 450500                    STP0    VD_ERR$+3,,AUTO
         2 001222   000016 236000 3                  LDQ     14
         2 001223   200052 756100                    STQ     VD_ERR$+2,,AUTO
         2 001224   200052 630500                    EPPR0   VD_ERR$+2,,AUTO
         2 001225   000020 631400 xsym               EPPR1   B_VECTNIL+16
         2 001226   000000 701000 xent               TSX1    VDG$OALLOC
         2 001227   001246 702000 2                  TSX2    OALLOC_FAILED

     2370     5237    2             ALTRET (OALLOC_FAILED);
     2371     5238    2           VD$ERR.ERR = B$TCB.ALT$->B$ALT.ERR;
PL6.E3A0      #004=VDA$PDELETE File=VDA$PORT.:VDA5TSI                            FRI 07/04/97 11:08 Page:305

   5238  2 001230   000000 470400 xsym               LDP0    B$TCB$
         2 001231   000000 471500                    LDP1    0,,PR0
         2 001232   100102 236100                    LDQ     66,,PR1
         2 001233   200050 473500                    LDP3    VD_ERR$,,AUTO
         2 001234   300002 756100                    STQ     2,,PR3

     2372     5239    2           VD$ERR.FLAGLEV# = %FLV_SERIOUS;

   5239  2 001235   000003 220003                    LDX0    3,DU
         2 001236   200050 471500                    LDP1    VD_ERR$,,AUTO
         2 001237   100003 740100                    STX0    3,,PR1

     2373     5240    2           VD$ERR.DCB# = PORT.DCB#;

   5240  2 001240   200003 471500                    LDP1    @PORT,,AUTO
         2 001241   100004 721100                    LXL1    4,,PR1
         2 001242   200050 473500                    LDP3    VD_ERR$,,AUTO
         2 001243   300004 741100                    STX1    4,,PR3

     2374     5241    2           ALTRETURN;

   5241  2 001244   200010 221300                    LDX1  ! FIXED_KEY_LEN+1,,AUTO
         2 001245   000000 702211                    TSX2  ! 0,X1

   5240  2 001246                       OALLOC_FAIL* null
   5240  2 001246                       OFREE_FAILED null
   5240  2 001246                       OCLEAR_LOCA* null
   5240  2 001246                       BUILD_LOCAT* null
     2375     5242
     2376     5243
     2377     5244    2   OALLOC_FAILED: ;
     2378     5245    2   OFREE_FAILED: ;
     2379     5246    2   OCLEAR_LOCATION_FAILED: ;
     2380     5247    2   BUILD_LOCATION_FAILED: ;
     2381     5248    2           ALTRETURN;

PL6.E3A0      #004=VDA$PDELETE File=VDA$PORT.:VDA5TSI                            FRI 07/04/97 11:08 Page:306
   5248  2 001246   200010 221300                    LDX1  ! FIXED_KEY_LEN+1,,AUTO
         2 001247   000000 702211                    TSX2  ! 0,X1
     2382     5249
     2383     5250    2   END DELETE_EXTERNAL;
     2384     5251
     2385     5252    1   END VDA$PDELETE;

PL6.E3A0      #004=VDA$PDELETE File=VDA$PORT.:VDA5TSI                            FRI 07/04/97 11:08 Page:307
--  Include file information  --

   B_ERRORS_C.:LIBRARY  is referenced.
   CP_6.:LIBRARY  cannot be made into a system file and is referenced.
   VD_PERR_C.:VDA5TOU  is referenced.
   VD_MACROS_M.:VDA5TOU  is referenced.
   B$JIT_C.:E04TOU  was found in the system file and is never referenced.
   CP_6_C.:E04TOU  was found in the system file and is referenced.
      No diagnostics issued in procedure VDA$PDELETE.
PL6.E3A0      #004=VDA$PDELETE File=VDA$PORT.:VDA5TSI                            FRI 07/04/97 11:08 Page:308

 **** Variables and constants ****

  ****  Section 001 RoData VDA$PDELETE

  ****  Scalars and arrays  ****
OctLoc.c.b A Datatyp(siz) R M Lvl/name                 OctLoc.c.b A Datatyp(siz) R M Lvl/name

    16-0-0/d STRC(360)   r     1 CONST_FPT_DELREC           0-0-0/d STRC(144)   r     1 CONST_FPT_PFIL
     4-0-0/d STRC(360)   r     1 CONST_FPT_PRECORD         31-0-0/w PTR         r     1 STATIC_TEMP_END$
    30-0-0/w PTR         r     1 STATIC_TEMP_START$

  ****  Auto variables  ****

  ****  Scalars and arrays  ****
OctLoc.c.b A Datatyp(siz) R M Lvl/name                 OctLoc.c.b A Datatyp(siz) R M Lvl/name

     6-0-0/w PTR         r     1 @COUNT                     5-0-0/w PTR         r     1 @DEL_LEVEL
     3-0-0/w PTR         r     1 @PORT                      4-0-0/w PTR         r     1 @RANGE
    *0-0-0/w SBIN        r     1 COUNT                     14-0-0/w PTR         r     1 DEL_END$
    14-0-0/w PTR         r     1 DEL_END_KEY$              *0-0-0/w SBIN        r     1 DEL_LEVEL
    12-0-0/w PTR         r     1 DEL_PARENT$               13-0-0/w PTR         r     1 DEL_START$
    13-0-0/w PTR         r     1 DEL_START_KEY$            11-0-0/w BIT         r     1 DO_DELREC
    15-0-0/w STRC        r     1 ERR_CODE                   7-0-0/w SBIN        r     1 FIXED_KEY_LEN
    36-0-0/d STRC(360)   r     1 FPT_DELREC                20-0-0/d STRC(144)   r     1 FPT_PFIL
    24-0-0/d STRC(360)   r     1 FPT_PRECORD               *0-0-0/w STRC(1944)  r     1 PORT
    12-0-0/w PTR         r     1 PORT_DCB$                 *0-0-0/w STRC(648)   r     1 RANGE
    16-0-0/w STRC        r     1 START_BOF_ERR_CODE        50-0-0/w PTR         r     1 VD_ERR$

  ****  SYMREF variables  ****

  ****  Scalars and arrays  ****
OctLoc.c.b A Datatyp(siz) R M Lvl/name                 OctLoc.c.b A Datatyp(siz) R M Lvl/name

     0-0-0/w PTR         r     1 B$TCB$                     0-0-0/w STRC(144)   r     1 VD_$$MON_ACC
     0-0-0/w STRC(22644) r     1 VD_6E                      0-0-0/w STRC(4608)  r     1 VD_STATIC_TEMP

  ****  BASED and DCB variables  ****
PL6.E3A0      #004=VDA$PDELETE File=VDA$PORT.:VDA5TSI                            FRI 07/04/97 11:08 Page:309

  ****  Scalars and arrays  ****
OctLoc.c.b A Datatyp(siz) R M Lvl/name                 OctLoc.c.b A Datatyp(siz) R M Lvl/name

     0-0-0/w STRC(2448)  r     1 B$ALT                      0-0-0/w STRC(144)   r     1 B$TCB
     0-0-0/w STRC(468)   r     1 DEL$END                    0-0-0/w ASTR(9)     r     1 DEL$END_KEY
     0-0-0/w STRC(468)   r     1 DEL$PARENT                 0-0-0/w STRC(468)   r     1 DEL$START
     0-0-0/w ASTR(9)     r     1 DEL$START_KEY              0-0-0/d ASTR(3528)  r     1 PORT$DCB
     0-0-0/c ASTR(0)     r     1 STATIC$TEMP_END_FIXED
     0-0-0/w SBIN        r     1 STATIC$TEMP_END_NUM
     0-0-0/c ASTR(0)     r     1 STATIC$TEMP_START_FIXED
     0-0-0/w ASTR(9)     r     1 STATIC$TEMP_START_KEY
     0-0-0/w SBIN        r     1 STATIC$TEMP_START_NUM
     0-0-0/w ASTR(90)    r     1 VD$BUFFER                  0-0-0/w STRC(180)   r     1 VD$ERR
     0-0-0/w STRC(468)   r     1 VD$FILE_NODE               0-0-0/w ASTR(81)    r     1 VD$TEXTC_REMOTE


   Procedure VDA$PDELETE requires 680 words for executable code.
   Procedure VDA$PDELETE requires 48 words of local(AUTO) storage.

    No errors detected in file VDA$PORT.:VDA5TSI    .
PL6.E3A0      #004=VDA$PDELETE File=VDA$PORT.:VDA5TSI                            FRI 07/04/97 11:08 Page:310
          *** CROSS REFERENCE LISTING ***
**     DENOTES     IDENTIFIER DEFINITION
<<                 IDENTIFIER'S VALUE SET
>>                 IDENTIFIER'S VALUE USED
<>                 IDENTIFIER SET AND/OR USED
--                 IDENTIFIER REFERENCED
PL6.E3A0      #004=VDA$PDELETE File=VDA$PORT.:VDA5TSI                            FRI 07/04/97 11:08 Page:311
          MINI XREF LISTING

B$ALT.CODE
      4008**DCL      4008--REDEF    4009--REDEF    4009--REDEF
B$ALT.ERR
      4009**DCL      5007>>ASSIGN   5080>>ASSIGN   5176>>ASSIGN   5238>>ASSIGN
B$ALT.ERR.ERR#
      4010**DCL      4010--REDEF
B$ALT.EVID
      4009**DCL      4009--REDEF    4009--REDEF
B$TCB.ALT$
      4004**DCL      5007>>ASSIGN   5080>>ASSIGN   5176>>ASSIGN   5238>>ASSIGN
B$TCB$
      3862**DCL      4004--IMP-PTR  5007>>ASSIGN   5080>>ASSIGN   5176>>ASSIGN   5238>>ASSIGN
BUILD_LOCATION_FAILED IN PROCEDURE DELETE_EXTERNAL
      5240**LABEL    5181--CALLALT  5219--CALLALT
CONST_FPT_DELREC
      3958**DCL      4976>>ASSIGN
CONST_FPT_DELREC.V
      3961**DCL      3958--DCLINIT
CONST_FPT_PFIL
      3921**DCL      4968>>ASSIGN
CONST_FPT_PFIL.V
      3921**DCL      3921--DCLINIT
CONST_FPT_PRECORD
      3937**DCL      4972>>ASSIGN
CONST_FPT_PRECORD.V
      3939**DCL      3937--DCLINIT
COUNT
      3807**DCL        64--PROC     4472<<ASSIGN   4481<>CALL     4486>>IF       4489>>ASSIGN   4517>>ASSIGN
      4519<>CALL     4964<<ASSIGN   5165<<ASSIGN
DEL$END.BLINK$ IN PROCEDURE DELETE_INTERNAL
      4317**DCL      4512>>ASSIGN   4513<<ASSIGN
DEL$END_KEY IN PROCEDURE DELETE_EXTERNAL
PL6.E3A0      #004=VDA$PDELETE File=VDA$PORT.:VDA5TSI                            FRI 07/04/97 11:08 Page:312
      4774**DCL      5034--ASSIGN   5036--ASSIGN
DEL$END_KEY.BYTES IN PROCEDURE DELETE_EXTERNAL
      4784**DCL      5038--ASSIGN
DEL$END_KEY.LENGTH# IN PROCEDURE DELETE_EXTERNAL
      4782**DCL      4784--IMP-SIZ  5034>>ASSIGN   5036>>ASSIGN   5038>>ASSIGN
DEL$PARENT.COUNT# IN PROCEDURE DELETE_INTERNAL
      4188**DCL      4517<<ASSIGN   4517>>ASSIGN   4518>>IF       4519<>CALL
DEL$PARENT.HEAD$ IN PROCEDURE DELETE_INTERNAL
      4188**DCL      4506<<ASSIGN
DEL$PARENT.TAIL$ IN PROCEDURE DELETE_INTERNAL
      4188**DCL      4510<<ASSIGN
DEL$START IN PROCEDURE DELETE_INTERNAL
      4198**DCL      4522<>CALL
DEL$START.BLINK$ IN PROCEDURE DELETE_INTERNAL
      4224**DCL      4505>>IF       4508>>ASSIGN   4510>>ASSIGN   4513>>ASSIGN   4515<<ASSIGN
DEL$START_KEY IN PROCEDURE DELETE_EXTERNAL
      4751**DCL      5122--ASSIGN   5124--ASSIGN
DEL$START_KEY.BYTES IN PROCEDURE DELETE_EXTERNAL
      4761**DCL      5126--ASSIGN
DEL$START_KEY.LENGTH# IN PROCEDURE DELETE_EXTERNAL
      4759**DCL      4761--IMP-SIZ  5122>>ASSIGN   5124>>ASSIGN   5126>>ASSIGN
DELETE_EXTERNAL
      4591**PROC     4025--CALL
DELETE_EXTERNAL_FAILED
      4021**LABEL    4025--CALLALT
DELETE_INTERNAL
      4088**PROC     4022--CALL
DELETE_INTERNAL_FAILED
      4021**LABEL    4022--CALLALT
DELREC_FAILED IN PROCEDURE DELETE_EXTERNAL
      5223**LABEL    5163--CALLALT
DEL_END$ IN PROCEDURE DELETE_INTERNAL
      4094**DCL      4291--IMP-PTR  4483<<ASSIGN   4486>>IF       4506>>ASSIGN   4508>>ASSIGN   4509>>IF
      4512>>ASSIGN   4513>>ASSIGN
DEL_END_KEY$ IN PROCEDURE DELETE_EXTERNAL
      4597**DCL      4774--IMP-PTR  5029<<ASSIGN   5029<<ASSIGN   5034>>ASSIGN   5034>>ASSIGN   5036>>ASSIGN
PL6.E3A0      #004=VDA$PDELETE File=VDA$PORT.:VDA5TSI                            FRI 07/04/97 11:08 Page:313
      5036>>ASSIGN   5038>>ASSIGN   5038>>ASSIGN
DEL_LEVEL
      3806**DCL        64--PROC     4017>>IF       4019<>CALL     4478>>ASSIGN   4479>>ASSIGN   4483>>ASSIGN
DEL_PARENT$ IN PROCEDURE DELETE_INTERNAL
      4092**DCL      4105--IMP-PTR  4479<<ASSIGN   4506>>ASSIGN   4510>>ASSIGN   4517>>ASSIGN   4517>>ASSIGN
      4518>>IF       4519>>CALL
DEL_START$ IN PROCEDURE DELETE_INTERNAL
      4093**DCL      4198--IMP-PTR  4478<<ASSIGN   4486>>IF       4505>>IF       4508>>ASSIGN   4510>>ASSIGN
      4513>>ASSIGN   4515>>ASSIGN   4522>>CALL
DEL_START_KEY$ IN PROCEDURE DELETE_EXTERNAL
      4596**DCL      4751--IMP-PTR  5117<<ASSIGN   5117<<ASSIGN   5122>>ASSIGN   5122>>ASSIGN   5124>>ASSIGN
      5124>>ASSIGN   5126>>ASSIGN   5126>>ASSIGN
DO_DELREC IN PROCEDURE DELETE_EXTERNAL
      4594**DCL      4965<<ASSIGN   5009<<ASSIGN   5019<<ASSIGN   5086<<ASSIGN   5096<<ASSIGN   5099<<ASSIGN
      5107<<ASSIGN   5157>>IF
ERR_CODE IN PROCEDURE DELETE_EXTERNAL
      4606**DCL      5007<<ASSIGN   5014<>CALL     5172<<ASSIGN   5176<<ASSIGN   5179<>CALL     5181<>CALL
ERR_CODE.CODE# IN PROCEDURE DELETE_EXTERNAL
      4610**DCL      5008>>IF
FIXED_KEY_LEN
      3971**DCL      4000--IMP-SIZ  4002--IMP-SIZ  4993<<ASSIGN   4994>>ASSIGN   5058<<ASSIGN   5059>>ASSIGN
      5098>>IF       5181<>CALL     5212>>IF       5219<>CALL
FPT_DELREC IN PROCEDURE DELETE_EXTERNAL
      4675**DCL      4976<<ASSIGN   5163<>CALL
FPT_DELREC.KEY_ IN PROCEDURE DELETE_EXTERNAL
      4675**DCL      5071<<ASSIGN   5122<<ASSIGN   5124<<ASSIGN   5126<<ASSIGN   5161<>CALL
FPT_DELREC.LKEY_ IN PROCEDURE DELETE_EXTERNAL
      4677**DCL      4998<<ASSIGN   5034<<ASSIGN   5036<<ASSIGN   5038<<ASSIGN   5161<>CALL
FPT_DELREC.V IN PROCEDURE DELETE_EXTERNAL
      4678**DCL      4977--ASSIGN
FPT_DELREC.V.DCB# IN PROCEDURE DELETE_EXTERNAL
      4679**DCL      4978<<ASSIGN   5161<>CALL
FPT_DELREC.V_ IN PROCEDURE DELETE_EXTERNAL
      4675**DCL      4977<<ASSIGN
FPT_PFIL IN PROCEDURE DELETE_EXTERNAL
      4639**DCL      4968<<ASSIGN   5002<>CALL     5074<>CALL
PL6.E3A0      #004=VDA$PDELETE File=VDA$PORT.:VDA5TSI                            FRI 07/04/97 11:08 Page:314
FPT_PFIL.V IN PROCEDURE DELETE_EXTERNAL
      4639**DCL      4969--ASSIGN
FPT_PFIL.V.BOF# IN PROCEDURE DELETE_EXTERNAL
      4640**DCL      5000<<ASSIGN   5072<<ASSIGN
FPT_PFIL.V.DCB# IN PROCEDURE DELETE_EXTERNAL
      4639**DCL      4970<<ASSIGN
FPT_PFIL.V_ IN PROCEDURE DELETE_EXTERNAL
      4639**DCL      4969<<ASSIGN
FPT_PRECORD IN PROCEDURE DELETE_EXTERNAL
      4654**DCL      4972<<ASSIGN   5005<>CALL     5078<>CALL     5174<>CALL
FPT_PRECORD.KEY_ IN PROCEDURE DELETE_EXTERNAL
      4654**DCL      4989<<ASSIGN   4991<<ASSIGN   4994<<ASSIGN   4998>>ASSIGN   5014<>CALL     5054<<ASSIGN
      5056<<ASSIGN   5059<<ASSIGN   5071>>ASSIGN   5083<>CALL     5179<>CALL
FPT_PRECORD.V IN PROCEDURE DELETE_EXTERNAL
      4656**DCL      4973--ASSIGN
FPT_PRECORD.V.DCB# IN PROCEDURE DELETE_EXTERNAL
      4656**DCL      4974<<ASSIGN   5014<>CALL     5083<>CALL     5179<>CALL
FPT_PRECORD.V.N# IN PROCEDURE DELETE_EXTERNAL
      4660**DCL      5004<<ASSIGN   5076<<ASSIGN   5171<<ASSIGN
FPT_PRECORD.V_ IN PROCEDURE DELETE_EXTERNAL
      4654**DCL      4973<<ASSIGN
M$DELREC
      2441**DCL-ENT  5163--CALL
M$PFIL
      2441**DCL-ENT  5002--CALL     5074--CALL
M$PRECORD
      2443**DCL-ENT  5005--CALL     5078--CALL     5174--CALL
OALLOC_FAILED IN PROCEDURE DELETE_EXTERNAL
      5240**LABEL    5236--CALLALT
OCLEAR_LOCATION_FAILED IN PROCEDURE DELETE_EXTERNAL
      5240**LABEL    5138--CALLALT
OFREE_FAILED IN PROCEDURE DELETE_EXTERNAL
      5240**LABEL    5151--CALLALT
OFREE_FAILED IN PROCEDURE DELETE_INTERNAL
      4526**LABEL    4522--CALLALT
PFIL_FAILED IN PROCEDURE DELETE_EXTERNAL
PL6.E3A0      #004=VDA$PDELETE File=VDA$PORT.:VDA5TSI                            FRI 07/04/97 11:08 Page:315
      5223**LABEL    5002--CALLALT  5074--CALLALT
PORT
      3647**DCL        64--PROC     4474<>CALL     4481<>CALL
PORT.CURRENT
      3700**DCL      5138<>CALL     5181<>CALL     5219<>CALL
PORT.CURRENT.EOF
      3716**DCL      4476>>IF       5201<<ASSIGN   5210<<ASSIGN   5213<<ASSIGN   5218>>IF
PORT.DCB#
      3674**DCL      4021>>IF       4966--ASSIGN   4970>>ASSIGN   4974>>ASSIGN   4978>>ASSIGN   5240>>ASSIGN
PORT.EXIST#
      3673**DCL      4017>>IF       4019<>CALL
PORT.LAST_OP#
      3675**DCL      4526<<ASSIGN   5001<<ASSIGN   5073<<ASSIGN   5159<<ASSIGN   5173<<ASSIGN
PORT.LEVEL.DATA$
      3734**DCL      5150>>IF       5151>>CALL     5151>>CALL     5153<<ASSIGN
PORT.LEVEL.INTERNAL$
      3734**DCL      4478>>ASSIGN   4479>>ASSIGN   4483>>ASSIGN
PORT.LEVEL.KEY_TYPE#
      3718**DCL      5181<>CALL     5219<>CALL
PORT.LEVEL.ORG#
      3718**DCL      4987>>DOCASE   4996<>CALL     5032>>DOCASE   5040<>CALL     5052>>DOCASE   5061<>CALL
      5091>>DOCASE   5101<>CALL     5120>>DOCASE   5128<>CALL     5181<>CALL     5205>>DOCASE   5215<>CALL
      5219<>CALL
PORT.LEVEL.SPEC
      3730**DCL      5148<<ASSIGN
PORT.LEVEL.SPEC.REP#
      3732**DCL      5147>>IF
PORT.LEVEL.SPEC.V$
      3732**DCL      5147>>CALL     5147>>CALL
PORT$DCB.ACTPOS IN PROCEDURE DELETE_EXTERNAL
      4719**DCL      4719--REDEF
PORT$DCB.ARS# IN PROCEDURE DELETE_EXTERNAL
      4693**DCL      4693--REDEF    5165>>ASSIGN
PORT$DCB.ATTR IN PROCEDURE DELETE_EXTERNAL
      4712**DCL      4713--REDEF
PORT$DCB.BORROW IN PROCEDURE DELETE_EXTERNAL
PL6.E3A0      #004=VDA$PDELETE File=VDA$PORT.:VDA5TSI                            FRI 07/04/97 11:08 Page:316
      4727**DCL      4727--REDEF    4727--REDEF    4727--REDEF
PORT$DCB.DCBNAME.L IN PROCEDURE DELETE_EXTERNAL
      4741**DCL      4741--IMP-SIZ
PORT$DCB.EOMCHAR# IN PROCEDURE DELETE_EXTERNAL
      4697**DCL      4697--REDEF
PORT$DCB.FLDID IN PROCEDURE DELETE_EXTERNAL
      4722**DCL      4722--REDEF
PORT$DCB.FORM$ IN PROCEDURE DELETE_EXTERNAL
      4716**DCL      4716--REDEF
PORT$DCB.FSECT IN PROCEDURE DELETE_EXTERNAL
      4732**DCL      4732--REDEF
PORT$DCB.FSN# IN PROCEDURE DELETE_EXTERNAL
      4709**DCL      4709--REDEF    4709--REDEF    4710--REDEF
PORT$DCB.HEADER$ IN PROCEDURE DELETE_EXTERNAL
      4715**DCL      4715--REDEF
PORT$DCB.IXTNSIZE# IN PROCEDURE DELETE_EXTERNAL
      4713**DCL      4713--REDEF
PORT$DCB.KEYL# IN PROCEDURE DELETE_EXTERNAL
      4710**DCL      4993>>ASSIGN   5058>>ASSIGN
PORT$DCB.LASTSTA$ IN PROCEDURE DELETE_EXTERNAL
      4702**DCL      4702--REDEF
PORT$DCB.LVL IN PROCEDURE DELETE_EXTERNAL
      4728**DCL      4728--REDEF
PORT$DCB.NAME#.C IN PROCEDURE DELETE_EXTERNAL
      4703**DCL      4703--REDEF
PORT$DCB.NOEOF IN PROCEDURE DELETE_EXTERNAL
      4725**DCL      4725--REDEF
PORT$DCB.NRECS# IN PROCEDURE DELETE_EXTERNAL
      4714**DCL      4714--REDEF
PORT$DCB.NRECX IN PROCEDURE DELETE_EXTERNAL
      4733**DCL      4733--REDEF
PORT$DCB.OHDR IN PROCEDURE DELETE_EXTERNAL
      4725**DCL      4725--REDEF
PORT$DCB.ORG# IN PROCEDURE DELETE_EXTERNAL
      4708**DCL      4708--REDEF
PORT$DCB.PRECNO IN PROCEDURE DELETE_EXTERNAL
PL6.E3A0      #004=VDA$PDELETE File=VDA$PORT.:VDA5TSI                            FRI 07/04/97 11:08 Page:317
      4731**DCL      4731--REDEF
PORT$DCB.RCSZ IN PROCEDURE DELETE_EXTERNAL
      4737**DCL      4737--REDEF
PORT$DCB.RES# IN PROCEDURE DELETE_EXTERNAL
      4704**DCL      4704--REDEF
PORT$DCB.SETX IN PROCEDURE DELETE_EXTERNAL
      4716**DCL      4716--REDEF
PORT$DCB.TAB$ IN PROCEDURE DELETE_EXTERNAL
      4716**DCL      4716--REDEF
PORT$DCB.TDA IN PROCEDURE DELETE_EXTERNAL
      4730**DCL      4731--REDEF
PORT$DCB.WSN# IN PROCEDURE DELETE_EXTERNAL
      4704**DCL      4704--REDEF
PORT_DCB$ IN PROCEDURE DELETE_EXTERNAL
      4595**DCL      4687--IMP-PTR  4966<<ASSIGN   4993>>ASSIGN   5058>>ASSIGN   5165>>ASSIGN
PREAD_FAILED IN PROCEDURE DELETE_INTERNAL
      4526**LABEL    4474--CALLALT  4481--CALLALT
PRECORD_FAILED IN PROCEDURE DELETE_EXTERNAL
      5223**LABEL    5011--GOTO     5088--GOTO
RANGE
      3745**DCL        64--PROC
RANGE.ENDD
      3787**DCL      4481<>CALL     5200>>IF
RANGE.ENDD.EOF
      3803**DCL      4984>>IF
RANGE.ENDD.KEY
      3799**DCL      5018>>IF
RANGE.ENDD.KEY.REP#
      3801**DCL      5029>>IF
RANGE.ENDD.KEY.V$
      3801**DCL      5029>>ASSIGN   5029--ASSIGN
RANGE.START
      3759**DCL      4474<>CALL     5069>>IF
RANGE.START.EOF
      3775**DCL      5106>>IF
RANGE.START.KEY.REP#
PL6.E3A0      #004=VDA$PDELETE File=VDA$PORT.:VDA5TSI                            FRI 07/04/97 11:08 Page:318
      3773**DCL      5117>>IF
RANGE.START.KEY.V$
      3773**DCL      5117>>ASSIGN   5117--ASSIGN
START_BOF_ERR_CODE IN PROCEDURE DELETE_EXTERNAL
      4621**DCL      5077<<ASSIGN   5080<<ASSIGN   5083<>CALL     5219<>CALL
START_BOF_ERR_CODE.CODE# IN PROCEDURE DELETE_EXTERNAL
      4625**DCL      5085>>IF       5087>>IF
STATIC$TEMP_END_FIXED.BYTES
      4002**DCL      4994--ASSIGN
STATIC$TEMP_END_NUM
      3998**DCL      4989--ASSIGN
STATIC$TEMP_START_FIXED
      3999**DCL      5098>>IF       5212>>IF
STATIC$TEMP_START_FIXED.BYTES
      4000**DCL      5059--ASSIGN
STATIC$TEMP_START_KEY.LENGTH#
      3990**DCL      3992--IMP-SIZ  5095>>IF       5209>>IF
STATIC$TEMP_START_NUM
      3997**DCL      5054--ASSIGN
STATIC_TEMP_END$
      3967**DCL      3998--IMP-PTR  4001--IMP-PTR  4989>>ASSIGN   4994>>ASSIGN
STATIC_TEMP_START$
      3966**DCL      3982--IMP-PTR  3997--IMP-PTR  3999--IMP-PTR  5054>>ASSIGN   5059>>ASSIGN   5095>>IF
      5098>>IF       5209>>IF       5212>>IF
VD$BUFFER IN PROCEDURE DELETE_EXTERNAL
      4875**DCL      5151<>CALL
VD$BUFFER.LENGTH# IN PROCEDURE DELETE_EXTERNAL
      4901**DCL      4903--IMP-SIZ  5151>>CALL
VD$ERR.DCB# IN PROCEDURE DELETE_EXTERNAL
      4958**DCL      5240<<ASSIGN
VD$ERR.ERR IN PROCEDURE DELETE_EXTERNAL
      4953**DCL      5238<<ASSIGN
VD$ERR.FLAGLEV# IN PROCEDURE DELETE_EXTERNAL
      4958**DCL      5239<<ASSIGN
VD$FILE_NODE.FLINK$ IN PROCEDURE DELETE_INTERNAL
      4410**DCL      4508<<ASSIGN   4512<<ASSIGN
PL6.E3A0      #004=VDA$PDELETE File=VDA$PORT.:VDA5TSI                            FRI 07/04/97 11:08 Page:319
VD$TEXTC_REMOTE IN PROCEDURE DELETE_EXTERNAL
      4814**DCL      5147<>CALL
VD$TEXTC_REMOTE.LENGTH# IN PROCEDURE DELETE_EXTERNAL
      4843**DCL      4845--IMP-SIZ  5029--ASSIGN   5117--ASSIGN   5147>>CALL
VDA$PREAD
      3811**DCL-ENT  4474--CALL     4481--CALL
VDG$BUILD_LOCATION
      3815**DCL-ENT  5181--CALL     5219--CALL
VDG$ESCREECH
      3816**DCL-ENT  4019--CALL     4519--CALL     4996--CALL     5040--CALL     5061--CALL     5101--CALL
      5128--CALL     5215--CALL
VDG$MACC_PDELETE_BOF_KEY
      3818**DCL-ENT  5083--CALL
VDG$MACC_PDELETE_DCB_POS
      3820**DCL-ENT  5179--CALL
VDG$MACC_PDELETE_DELREC
      3819**DCL-ENT  5161--CALL
VDG$MACC_PDELETE_EOF_KEY
      3817**DCL-ENT  5014--CALL
VDG$OALLOC
      3812**DCL-ENT  5236--CALL
VDG$OCLEAR_LOCATION
      3814**DCL-ENT  5138--CALL
VDG$OFREE
      3813**DCL-ENT  4522--CALL     5147--CALL     5151--CALL
VD_$$MON_ACC.V#
      3905**DCL      5013>>IF       5082>>IF       5160>>IF       5178>>IF
VD_6E.STATS#
      3856**DCL      4489<<ASSIGN   4489>>ASSIGN
VD_ERR$ IN PROCEDURE DELETE_EXTERNAL
      4683**DCL      4916--IMP-PTR  5236<>CALL     5238>>ASSIGN   5239>>ASSIGN   5240>>ASSIGN
VD_STATIC_TEMP.END_KEY
      3861**DCL      3967--DCLINIT  4991--ASSIGN
VD_STATIC_TEMP.START_KEY
      3860**DCL      3966--DCLINIT  5056--ASSIGN   5181<>CALL     5219<>CALL
