PL6.E3A0      #002=VDA$PWRITE File=VDA$PORT.:VDA5TSI                             FRI 07/04/97 11:07 Page:143
     1113        1        /*T***********************************************************/
     1114        2        /*T*                                                         */
     1115        3        /*T* Copyright (c) Bull HN Information Systems Inc., 1997    */
     1116        4        /*T*                                                         */
     1117        5        /*T***********************************************************/
     1118        6
     1119        7        /*D* NAME: VDA$PWRITE
     1120        8            PARAMETERS:
     1121        9                PORT - VD$PORT to use.  Must be open to an internal or external
     1122       10                    file.  PORT.CURRENT and the port's .INTERNAL$s at all
     1123       11                    levels must be valid, and positioned to the node to
     1124       12                    be written.  At WRITE_LEVEL, the port's Spec and Data
     1125       13                    components, if present, should be copies of those from the
     1126       14                    file (before writing the new components), if any.
     1127       15                WRITE_LEVEL - Level of node to write.  Must not be
     1128       16                    %LVL_FILE or >= # levels in structure (STRUCTURE$NODE.COUNT#).
     1129       17                SPEC - Optional VD$SPEC specifying the new Spec component
     1130       18                    for the node.  If you don't want to affect the
     1131       19                    Spec component, omit this parameter.
     1132       20                    Note - Passing a VD$SPEC which is BASED on a pointer
     1133       21                        which is currently NIL acts as tho you omitted
     1134       22                        the parameter -- the Spec component isn't affected.
     1135       23                    Note - Any dynamic storage pointed-to by SPEC will no
     1136       24                        longer be owned by the caller after this call!!
     1137       25                        Give me a Spec and I keep it, not you.  See SPEC
     1138       26                        under OUTPUT comments.
     1139       27                DATA - Optional VD$BUFFER containing the new Data component
     1140       28                    for the node.  If you don't want to affect the
     1141       29                    Data component, omit this parameter.
     1142       30                    Note - Passing a VD$BUFFER which is BASED on a pointer
     1143       31                        which is currently NIL acts as tho you omitted
     1144       32                        the parameter -- the Data component isn't affected.
     1145       33                    Note - DATA must reside in either dynamic storage, static,
     1146       34                        or constant -- never the caller's auto storage!!
     1147       35                        If DATA resides in dynamic (as indicated by having a
     1148       36                        non-0 .OBJECT.SIZE#), it will no longer be owned
     1149       37                        by the caller after this call.
PL6.E3A0      #002=VDA$PWRITE File=VDA$PORT.:VDA5TSI                             FRI 07/04/97 11:07 Page:144
     1150       38                        Give me a Data buffer and I keep it, not you.  See
     1151       39                        DATA under OUTPUT comments.
     1152       40            OUTPUT:
     1153       41                Upon normal return:
     1154       42                    SPEC will be %CLEAR; the Port now owns the SPEC and
     1155       43                        any dynamic storage pointed-to by SPEC.V$.
     1156       44                    DATA -- if it's dynamic -- will no longer be owned by the
     1157       45                        caller.  The Port owns it now.  The caller should
     1158       46                        spoil it's pointer to the DATA VD$BUFFER.
     1159       47                Upon non-fatal altreturns, SPEC and DATA will be untouched.
     1160       48                    The caller will still own any dynamic storage associated
     1161       49                    with them.
     1162       50                PORT.LEVEL.SPEC and/or .DATA for WRITE_LEVEL will contain/point-to
     1163       51                    SPEC/DATA (unchanged if SPEC/DATA omitted).
     1164       52                For internal files, the VD$FILE_NODE for the node will
     1165       53                    have new copies of the components changed by the write.
     1166       54                PORT.LEVEL.SPEC_MODIFIED and/or .DATA_MODIFIED for WRITE_LEVEL
     1167       55                    will be set.
     1168       56                PORT.LAST_OP will be set.
     1169       57            DESCRIPTION:
     1170       58                At WRITE_LEVEL, free the port's current copy of the
     1171       59                    component(s) being written, and make new copies of them
     1172       60                    (SPEC and/or DATA) for the port.
     1173       61                If this is an internal file, free the VD$FILE_NODE's current
     1174       62                    copy of the component(s) being written, and point the
     1175       63                    VD$FILE_NODE to new copies of them (SPEC and/or DATA).
     1176       64        */
     1177       65
     1178       66        VDA$PWRITE: PROC (PORT, WRITE_LEVEL, SPEC, DATA) ALTRET;
     1179       67
     1180       68
     1181       69        %INCLUDE VD_MACROS_M;
     1182     2284        %INCLUDE VD_PERR_C;
     1183     2432
     1184     2433
     1185     2434        %VD$PORT (NAME=PORT, STCLASS=PARAM);
     1186     2532    1   DCL WRITE_LEVEL SBIN;
PL6.E3A0      #002=VDA$PWRITE File=VDA$PORT.:VDA5TSI                             FRI 07/04/97 11:07 Page:145
     1187     2533        %VD$SPEC (NAME=SPEC, STCLASS=PARAM);
     1188     2547        %VD$BUFFER (NAME=DATA, STCLASS=PARAM);
     1189     2605
     1190     2606
     1191     2607
     1192     2608    1   DCL VDG$OCOPY           ENTRY (2) ALTRET;
     1193     2609    1   DCL VDG$OFREE           ENTRY (1) ALTRET;
     1194     2610    1   DCL VDG$ESCREECH        ENTRY (3);
     1195     2611
     1196     2612
     1197     2613
     1198     2614    1   DCL FILE_NODE$ PTR;
     1199     2615    1   DCL FILE_KEY$ PTR;
     1200     2616    1   DCL NEW_DATA_IS_DIFFERENT BIT(1) ALIGNED;
     1201     2617
     1202     2618
     1203     2619        %VD$FILE_NODE (NAME=FILE$NODE, STCLASS="BASED(FILE_NODE$)");
     1204     2712        %VD$TEXTC (NAME=FILE$KEY, STCLASS="BASED(FILE_KEY$)");
     1205     2735        %VD$TEXTC_REMOTE;
     1206     2796        %VD$TEXTC;
     1207     2819        %VD$BUFFER;
     1208     2877
     1209     2878
     1210     2879
     1211     2880    1           IF PORT.EXIST# = 0
     1212     2881    1             OR WRITE_LEVEL <= %LVL_FILE THEN
     1213     2882    1              CALL VDG$ESCREECH (WRITE_LEVEL);
     1214     2883
     1215     2884    1           PORT.LAST_OP# = %ACCOP_WRITE;
     1216     2885
     1217     2886    1           FILE_NODE$ = PORT.LEVEL.INTERNAL$ (WRITE_LEVEL);
     1218     2887
     1219     2888    2           IF ADDR(SPEC) ~= ADDR(NIL) THEN DO;
     1220     2889    3              IF PORT.DCB# = 0 THEN DO;
     1221     2890                      /*
     1222     2891                      *  For internal files, we should give the original
     1223     2892                      *     copy of the Spec to the FileNode, and make a
PL6.E3A0      #002=VDA$PWRITE File=VDA$PORT.:VDA5TSI                             FRI 07/04/97 11:07 Page:146
     1224     2893                      *     new copy for the Port's registers.  This is
     1225     2894                      *     because, for VD$WINDOW_SPECs, their .STREAM$s
     1226     2895                      *     aren't copied.  A window's stream isn't
     1227     2896                      *     important for the Port, but it is of utmost
     1228     2897                      *     importance that the stream be pointed-to by
     1229     2898                      *     the Spec in the FileNode.
     1230     2899                      */
     1231     2900                      %CLEARSPEC (SPEC=FILE$NODE.DESC.SPEC);
     1232     2910    3                 FILE$NODE.DESC.SPEC = SPEC;
     1233     2911                      %CLEARSPEC (SPEC=PORT.LEVEL.SPEC, INDX=WRITE_LEVEL);
     1234     2921                      %COPYSPEC (FSPEC=SPEC, TSPEC=PORT.LEVEL.SPEC,
     1235     2922                      TINDX=WRITE_LEVEL);
     1236     2938    3                 END;
     1237     2939    3              ELSE DO;
     1238     2940                      %CLEARSPEC (SPEC=PORT.LEVEL.SPEC, INDX=WRITE_LEVEL);
     1239     2950    3                 PORT.LEVEL.SPEC (WRITE_LEVEL) = SPEC;
     1240     2951    3                 END;
     1241     2952    2              PORT.LEVEL.SPEC_MODIFIED (WRITE_LEVEL) = %TRUE;
     1242     2953    2              SPEC = %CLEAR;       /* Port owns Spec now */
     1243     2954    2              END;
     1244     2955
     1245     2956
     1246     2957    2           IF ADDR(DATA) ~= ADDR(NIL) THEN DO;
     1247     2958    2              NEW_DATA_IS_DIFFERENT = %TRUE;
     1248     2959    3              IF PORT.LEVEL.DATA$ (WRITE_LEVEL) ~= ADDR(NIL) THEN DO;
     1249     2960    3                 IF DATA.LENGTH# =
     1250     2961    3                   PORT.LEVEL.DATA$ (WRITE_LEVEL) -> VD$BUFFER.LENGTH#
     1251     2962    3                   AND DATA.BYTES =
     1252     2963    3                   PORT.LEVEL.DATA$ (WRITE_LEVEL) -> VD$BUFFER.BYTES
     1253     2964    3                   AND DATA.FLINK$ = ADDR(NIL)
     1254     2965    3                   AND PORT.LEVEL.DATA$ (WRITE_LEVEL) -> VD$BUFFER.FLINK$ =
     1255     2966    4                   ADDR(NIL) THEN DO;
     1256     2967                         /* New data = old data:  don't update */
     1257     2968    4                    NEW_DATA_IS_DIFFERENT = %FALSE;
     1258     2969    4                    END;
     1259     2970    3                 END;
     1260     2971
PL6.E3A0      #002=VDA$PWRITE File=VDA$PORT.:VDA5TSI                             FRI 07/04/97 11:07 Page:147
     1261     2972    3              IF NEW_DATA_IS_DIFFERENT THEN DO;
     1262     2973    4                 IF PORT.LEVEL.DATA$ (WRITE_LEVEL) ~= ADDR(NIL) THEN DO;
     1263     2974    4                    CALL VDG$OFREE (PORT.LEVEL.DATA$ (WRITE_LEVEL) -> VD$BUFFER)
     1264     2975    4                      ALTRET (OFREE_FAILED);
     1265     2976    4                    END;
     1266     2977    3                 PORT.LEVEL.DATA$ (WRITE_LEVEL) = ADDR(DATA);
     1267     2978    3                 PORT.LEVEL.DATA_MODIFIED (WRITE_LEVEL) = %TRUE;
     1268     2979
     1269     2980    4                 IF PORT.DCB# = 0 THEN DO;
     1270     2981    5                    IF FILE$NODE.DESC.DATA$ ~= ADDR(NIL) THEN DO;
     1271     2982    5                       CALL VDG$OFREE (FILE$NODE.DESC.DATA$ -> VD$BUFFER)
     1272     2983    5                         ALTRET (OFREE_FAILED);
     1273     2984    5                       END;
     1274     2985    4                    CALL VDG$OCOPY (DATA, FILE$NODE.DESC.DATA$)
     1275     2986    4                      ALTRET (OCOPY_FAILED);
     1276     2987    5                    IF DATA.OBJECT.SIZE# > 0 THEN DO;
     1277     2988                         /*
     1278     2989                         * If DATA is dynamic, make sure it goes in the file.
     1279     2990                         * VDA$WRITERS sometimes points globals at it.
     1280     2991                         * BUT, if it's not dynamic, make a copy so that
     1281     2992                         * VDW$STOW_NODE knows how big the data is.
     1282     2993                         */
     1283     2994    5                       PORT.LEVEL.DATA$ (WRITE_LEVEL) = FILE$NODE.DESC.DATA$;
     1284     2995    5                       FILE$NODE.DESC.DATA$ = ADDR(DATA);
     1285     2996    5                       END;
     1286     2997    4                    FILE$NODE.DESC.EOR = %TRUE;
     1287     2998    4                    END;
     1288     2999    3                 END;
     1289     3000    3              ELSE DO;
     1290     3001    4                 IF PORT.LEVEL.DATA$ (WRITE_LEVEL) ~= ADDR(NIL) THEN DO;
     1291     3002    4                    CALL VDG$OFREE (PORT.LEVEL.DATA$ (WRITE_LEVEL) -> VD$BUFFER)
     1292     3003    4                      ALTRET (OFREE_FAILED);
     1293     3004    4                    END;
     1294     3005    3                 PORT.LEVEL.DATA$ (WRITE_LEVEL) = ADDR(DATA);
     1295     3006    3                 PORT.LEVEL.DATA_MODIFIED (WRITE_LEVEL) = %FALSE;
     1296     3007    3                 END;
     1297     3008    2              END;
PL6.E3A0      #002=VDA$PWRITE File=VDA$PORT.:VDA5TSI                             FRI 07/04/97 11:07 Page:148
     1298     3009
     1299     3010    1           RETURN;
     1300     3011
     1301     3012
     1302     3013
     1303     3014    1   OFREE_FAILED: ;
     1304     3015    1   OCOPY_FAILED: ;
     1305     3016    1           ALTRETURN;
     1306     3017
     1307     3018    1   END VDA$PWRITE;
     1308     3019        %EOD;

PL6.E3A0      #002=VDA$PWRITE File=VDA$PORT.:VDA5TSI                             FRI 07/04/97 11:07 Page:149
--  Include file information  --

   VD_PERR_C.:VDA5TOU  is referenced.
   VD_MACROS_M.:VDA5TOU  is referenced.
   B$JIT_C.:E04TOU  was found in the system file and is never referenced.
   CP_6_C.:E04TOU  was found in the system file and is never referenced.
      No diagnostics issued in procedure VDA$PWRITE.

   Procedure VDA$PWRITE requires 262 words for executable code.
   Procedure VDA$PWRITE requires 12 words of local(AUTO) storage.

PL6.E3A0      #002=VDA$PWRITE File=VDA$PORT.:VDA5TSI                             FRI 07/04/97 11:07 Page:150

 Object Unit name= VDA$PWRITE                                 File name= VDA$PORT.:VDA5TOU
 UTS= JUL 04 '97 11:07:39.56 FRI                              Compiler= PL-6/E31         Sev=      00
 SharedLib= :SHARED_SYSTEM                                    Alt SharedLib=


    ****  Control sections  ****

 Sect   Type Bound  Init  Size OctSiz  Section name(segment info)
    0   Proc  even  none   262    406  VDA$PWRITE
    1  RoData even  none     1      1  VDA$PWRITE

    ****  Entry defs  ****

                              Check   Calling
                             calling  sequence
  Sect OctLoc Primary Altret sequence   type   Parms  Name
     0      0   yes    yes     yes      Std        4  VDA$PWRITE

  ****  Entry refs  ****

         Check        Calling
        calling       sequence
Altret sequence SRef   type   Args  Name
         yes           Std       3 VDG$ESCREECH
 yes     yes           Std       1 VDG$OFREE
 yes     yes           Std       2 VDG$OCOPY
                       nStd      0 X66_AUTO_4
                       Std       0 B_CONSPOOL_D
                       nStd      0 X66_AALT
                       nStd      0 X66_ARET

  ****  Data refs  ****

  Flags:  r = read only, s = secondary
Flgs Name                             Flgs Name                             Flgs Name
     B_VECTNIL
PL6.E3A0      #002=VDA$PWRITE File=VDA$PORT.:VDA5TSI                             FRI 07/04/97 11:07 Page:151


     1113        1        /*T***********************************************************/
     1114        2        /*T*                                                         */
     1115        3        /*T* Copyright (c) Bull HN Information Systems Inc., 1997    */
     1116        4        /*T*                                                         */
     1117        5        /*T***********************************************************/
     1118        6
     1119        7        /*D* NAME: VDA$PWRITE
     1120        8            PARAMETERS:
     1121        9                PORT - VD$PORT to use.  Must be open to an internal or external
     1122       10                    file.  PORT.CURRENT and the port's .INTERNAL$s at all
     1123       11                    levels must be valid, and positioned to the node to
     1124       12                    be written.  At WRITE_LEVEL, the port's Spec and Data
     1125       13                    components, if present, should be copies of those from the
     1126       14                    file (before writing the new components), if any.
     1127       15                WRITE_LEVEL - Level of node to write.  Must not be
     1128       16                    %LVL_FILE or >= # levels in structure (STRUCTURE$NODE.COUNT#).
     1129       17                SPEC - Optional VD$SPEC specifying the new Spec component
     1130       18                    for the node.  If you don't want to affect the
     1131       19                    Spec component, omit this parameter.
     1132       20                    Note - Passing a VD$SPEC which is BASED on a pointer
     1133       21                        which is currently NIL acts as tho you omitted
     1134       22                        the parameter -- the Spec component isn't affected.
     1135       23                    Note - Any dynamic storage pointed-to by SPEC will no
     1136       24                        longer be owned by the caller after this call!!
     1137       25                        Give me a Spec and I keep it, not you.  See SPEC
     1138       26                        under OUTPUT comments.
     1139       27                DATA - Optional VD$BUFFER containing the new Data component
     1140       28                    for the node.  If you don't want to affect the
     1141       29                    Data component, omit this parameter.
     1142       30                    Note - Passing a VD$BUFFER which is BASED on a pointer
     1143       31                        which is currently NIL acts as tho you omitted
     1144       32                        the parameter -- the Data component isn't affected.
     1145       33                    Note - DATA must reside in either dynamic storage, static,
     1146       34                        or constant -- never the caller's auto storage!!
     1147       35                        If DATA resides in dynamic (as indicated by having a
     1148       36                        non-0 .OBJECT.SIZE#), it will no longer be owned
PL6.E3A0      #002=VDA$PWRITE File=VDA$PORT.:VDA5TSI                             FRI 07/04/97 11:07 Page:152
     1149       37                        by the caller after this call.
     1150       38                        Give me a Data buffer and I keep it, not you.  See
     1151       39                        DATA under OUTPUT comments.
     1152       40            OUTPUT:
     1153       41                Upon normal return:
     1154       42                    SPEC will be %CLEAR; the Port now owns the SPEC and
     1155       43                        any dynamic storage pointed-to by SPEC.V$.
     1156       44                    DATA -- if it's dynamic -- will no longer be owned by the
     1157       45                        caller.  The Port owns it now.  The caller should
     1158       46                        spoil it's pointer to the DATA VD$BUFFER.
     1159       47                Upon non-fatal altreturns, SPEC and DATA will be untouched.
     1160       48                    The caller will still own any dynamic storage associated
     1161       49                    with them.
     1162       50                PORT.LEVEL.SPEC and/or .DATA for WRITE_LEVEL will contain/point-to
     1163       51                    SPEC/DATA (unchanged if SPEC/DATA omitted).
     1164       52                For internal files, the VD$FILE_NODE for the node will
     1165       53                    have new copies of the components changed by the write.
     1166       54                PORT.LEVEL.SPEC_MODIFIED and/or .DATA_MODIFIED for WRITE_LEVEL
     1167       55                    will be set.
     1168       56                PORT.LAST_OP will be set.
     1169       57            DESCRIPTION:
     1170       58                At WRITE_LEVEL, free the port's current copy of the
     1171       59                    component(s) being written, and make new copies of them
     1172       60                    (SPEC and/or DATA) for the port.
     1173       61                If this is an internal file, free the VD$FILE_NODE's current
     1174       62                    copy of the component(s) being written, and point the
     1175       63                    VD$FILE_NODE to new copies of them (SPEC and/or DATA).
     1176       64        */
     1177       65
     1178       66        VDA$PWRITE: PROC (PORT, WRITE_LEVEL, SPEC, DATA) ALTRET;

     66  0 000000   000000 700200 xent  VDA$PWRITE   TSX0  ! X66_AUTO_4
         0 000001   000014 000004                    ZERO    12,4

     1179       67
     1180       68
     1181       69        %INCLUDE VD_MACROS_M;
PL6.E3A0      #002=VDA$PWRITE File=VDA$PORT.:VDA5TSI                             FRI 07/04/97 11:07 Page:153
     1182     2284        %INCLUDE VD_PERR_C;
     1183     2432
     1184     2433
     1185     2434        %VD$PORT (NAME=PORT, STCLASS=PARAM);
     1186     2532    1   DCL WRITE_LEVEL SBIN;
     1187     2533        %VD$SPEC (NAME=SPEC, STCLASS=PARAM);
     1188     2547        %VD$BUFFER (NAME=DATA, STCLASS=PARAM);
     1189     2605
     1190     2606
     1191     2607
     1192     2608    1   DCL VDG$OCOPY           ENTRY (2) ALTRET;
     1193     2609    1   DCL VDG$OFREE           ENTRY (1) ALTRET;
     1194     2610    1   DCL VDG$ESCREECH        ENTRY (3);
     1195     2611
     1196     2612
     1197     2613
     1198     2614    1   DCL FILE_NODE$ PTR;
     1199     2615    1   DCL FILE_KEY$ PTR;
     1200     2616    1   DCL NEW_DATA_IS_DIFFERENT BIT(1) ALIGNED;
     1201     2617
     1202     2618
     1203     2619        %VD$FILE_NODE (NAME=FILE$NODE, STCLASS="BASED(FILE_NODE$)");
     1204     2712        %VD$TEXTC (NAME=FILE$KEY, STCLASS="BASED(FILE_KEY$)");
     1205     2735        %VD$TEXTC_REMOTE;
     1206     2796        %VD$TEXTC;
     1207     2819        %VD$BUFFER;
     1208     2877
     1209     2878
     1210     2879
     1211     2880    1           IF PORT.EXIST# = 0

   2880  0 000002   200003 470500                    LDP0    @PORT,,AUTO
         0 000003   000003 720100                    LXL0    3,,PR0
         0 000004   000010 600000 0                  TZE     s:2882
         0 000005   200004 471500                    LDP1    @WRITE_LEVEL,,AUTO
         0 000006   100000 235100                    LDA     0,,PR1
         0 000007   000014 605400 0                  TPNZ    s:2884
PL6.E3A0      #002=VDA$PWRITE File=VDA$PORT.:VDA5TSI                             FRI 07/04/97 11:07 Page:154

     1212     2881    1             OR WRITE_LEVEL <= %LVL_FILE THEN
     1213     2882    1              CALL VDG$ESCREECH (WRITE_LEVEL);

   2882  0 000010   200004 630500                    EPPR0   @WRITE_LEVEL,,AUTO
         0 000011   000017 631400 xsym               EPPR1   B_VECTNIL+15
         0 000012   000000 701000 xent               TSX1    VDG$ESCREECH
         0 000013   000000 011000                    NOP     0

     1214     2883
     1215     2884    1           PORT.LAST_OP# = %ACCOP_WRITE;

   2884  0 000014   000005 220003                    LDX0    5,DU
         0 000015   200003 470500                    LDP0    @PORT,,AUTO
         0 000016   000007 740100                    STX0    7,,PR0

     1216     2885
     1217     2886    1           FILE_NODE$ = PORT.LEVEL.INTERNAL$ (WRITE_LEVEL);

   2886  0 000017   200004 471500                    LDP1    @WRITE_LEVEL,,AUTO
         0 000020   100000 236100                    LDQ     0,,PR1
         0 000021   000007 402007                    MPY     7,DL
         0 000022   000031 236106                    LDQ     25,QL,PR0
         0 000023   200007 756100                    STQ     FILE_NODE$,,AUTO

     1218     2887
     1219     2888    2           IF ADDR(SPEC) ~= ADDR(NIL) THEN DO;

   2888  0 000024   200005 236100                    LDQ     @SPEC,,AUTO
         0 000025   000001 116000 xsym               CMPQ    B_VECTNIL+1
         0 000026   000202 600000 0                  TZE     s:2957

     1220     2889    3              IF PORT.DCB# = 0 THEN DO;

   2889  0 000027   000004 721100                    LXL1    4,,PR0
         0 000030   000134 601000 0                  TNZ     s:2947

PL6.E3A0      #002=VDA$PWRITE File=VDA$PORT.:VDA5TSI                             FRI 07/04/97 11:07 Page:155
     1221     2890                      /*
     1222     2891                      *  For internal files, we should give the original
     1223     2892                      *     copy of the Spec to the FileNode, and make a
     1224     2893                      *     new copy for the Port's registers.  This is
     1225     2894                      *     because, for VD$WINDOW_SPECs, their .STREAM$s
     1226     2895                      *     aren't copied.  A window's stream isn't
     1227     2896                      *     important for the Port, but it is of utmost
     1228     2897                      *     importance that the stream be pointed-to by
     1229     2898                      *     the Spec in the FileNode.
     1230     2899                      */
     1231     2900                      %CLEARSPEC (SPEC=FILE$NODE.DESC.SPEC);

   2907  0 000031   200007 473500                    LDP3    FILE_NODE$,,AUTO
         0 000032   300006 722100                    LXL2    6,,PR3
         0 000033   000002 102003                    CMPX2   2,DU
         0 000034   000045 601000 0                  TNZ     s:2908+1

   2907  0 000035   300007 474500                    LDP4    7,,PR3
         0 000036   200012 454500                    STP4    NEW_DATA_IS_DIFFERENT+1,,AUTO
         0 000037   200012 630500                    EPPR0   NEW_DATA_IS_DIFFERENT+1,,AUTO
         0 000040   000017 631400 xsym               EPPR1   B_VECTNIL+15
         0 000041   000000 701000 xent               TSX1    VDG$OFREE
         0 000042   000044 702000 0                  TSX2    s:2908
         0 000043   000045 710000 0                  TRA     s:2908+1

   2908  0 000044   000000 702200 xent               TSX2  ! X66_AALT

   2908  0 000045   200007 470500                    LDP0    FILE_NODE$,,AUTO
         0 000046   000006 450100                    STZ     6,,PR0
         0 000047   000007 450100                    STZ     7,,PR0

     1232     2910    3                 FILE$NODE.DESC.SPEC = SPEC;

   2910  0 000050   200005 471500                    LDP1    @SPEC,,AUTO
         0 000051   000100 100500                    MLR     fill='000'O
         0 000052   100000 000010                    ADSC9   0,,PR1                   cn=0,n=8
         0 000053   000006 000010                    ADSC9   6,,PR0                   cn=0,n=8
PL6.E3A0      #002=VDA$PWRITE File=VDA$PORT.:VDA5TSI                             FRI 07/04/97 11:07 Page:156

     1233     2911                      %CLEARSPEC (SPEC=PORT.LEVEL.SPEC, INDX=WRITE_LEVEL);

   2918  0 000054   200004 473500                    LDP3    @WRITE_LEVEL,,AUTO
         0 000055   300000 236100                    LDQ     0,,PR3
         0 000056   000007 402007                    MPY     7,DL
         0 000057   200003 474500                    LDP4    @PORT,,AUTO
         0 000060   400025 720106                    LXL0    21,QL,PR4
         0 000061   000002 100003                    CMPX0   2,DU
         0 000062   000075 601000 0                  TNZ     s:2919+1

   2918  0 000063   300000 236100                    LDQ     0,,PR3
         0 000064   000007 402007                    MPY     7,DL
         0 000065   400026 475506                    LDP5    22,QL,PR4
         0 000066   200012 455500                    STP5    NEW_DATA_IS_DIFFERENT+1,,AUTO
         0 000067   200012 630500                    EPPR0   NEW_DATA_IS_DIFFERENT+1,,AUTO
         0 000070   000017 631400 xsym               EPPR1   B_VECTNIL+15
         0 000071   000000 701000 xent               TSX1    VDG$OFREE
         0 000072   000074 702000 0                  TSX2    s:2919
         0 000073   000075 710000 0                  TRA     s:2919+1

   2919  0 000074   000000 702200 xent               TSX2  ! X66_AALT

   2919  0 000075   200004 470500                    LDP0    @WRITE_LEVEL,,AUTO
         0 000076   000000 236100                    LDQ     0,,PR0
         0 000077   000007 402007                    MPY     7,DL
         0 000100   200003 471500                    LDP1    @PORT,,AUTO
         0 000101   100025 450106                    STZ     21,QL,PR1
         0 000102   100026 450106                    STZ     22,QL,PR1

     1234     2921                      %COPYSPEC (FSPEC=SPEC, TSPEC=PORT.LEVEL.SPEC,
     1235     2922                      TINDX=WRITE_LEVEL);

   2935  0 000103   000000 236100                    LDQ     0,,PR0
         0 000104   000007 402007                    MPY     7,DL
         0 000105   000002 736000                    QLS     2
         0 000106   200005 473500                    LDP3    @SPEC,,AUTO
PL6.E3A0      #002=VDA$PWRITE File=VDA$PORT.:VDA5TSI                             FRI 07/04/97 11:07 Page:157
         0 000107   000106 100500                    MLR     fill='000'O
         0 000110   300000 000010                    ADSC9   0,,PR3                   cn=0,n=8
         0 000111   100025 000010                    ADSC9   21,Q,PR1                 cn=0,n=8

   2935  0 000112   300000 720100                    LXL0    0,,PR3
         0 000113   000002 100003                    CMPX0   2,DU
         0 000114   000170 601000 0                  TNZ     s:2952

   2935  0 000115   300001 474500                    LDP4    1,,PR3
         0 000116   000000 236100                    LDQ     0,,PR0
         0 000117   000007 402007                    MPY     7,DL
         0 000120   000022 736000                    QLS     18
         0 000121   000026 036003                    ADLQ    22,DU
         0 000122   200003 036100                    ADLQ    @PORT,,AUTO
         0 000123   200013 756100                    STQ     NEW_DATA_IS_DIFFERENT+2,,AUTO
         0 000124   200012 454500                    STP4    NEW_DATA_IS_DIFFERENT+1,,AUTO
         0 000125   200012 630500                    EPPR0   NEW_DATA_IS_DIFFERENT+1,,AUTO
         0 000126   000020 631400 xsym               EPPR1   B_VECTNIL+16
         0 000127   000000 701000 xent               TSX1    VDG$OCOPY
         0 000130   000132 702000 0                  TSX2    s:2936
         0 000131   000133 710000 0                  TRA     s:2938

   2936  0 000132   000000 702200 xent               TSX2  ! X66_AALT

     1236     2938    3                 END;

   2938  0 000133   000170 710000 0                  TRA     s:2952

     1237     2939    3              ELSE DO;

     1238     2940                      %CLEARSPEC (SPEC=PORT.LEVEL.SPEC, INDX=WRITE_LEVEL);

   2947  0 000134   100000 236100                    LDQ     0,,PR1
         0 000135   000007 402007                    MPY     7,DL
         0 000136   000025 722106                    LXL2    21,QL,PR0
         0 000137   000002 102003                    CMPX2   2,DU
         0 000140   000153 601000 0                  TNZ     s:2948+1
PL6.E3A0      #002=VDA$PWRITE File=VDA$PORT.:VDA5TSI                             FRI 07/04/97 11:07 Page:158

   2947  0 000141   100000 236100                    LDQ     0,,PR1
         0 000142   000007 402007                    MPY     7,DL
         0 000143   000026 473506                    LDP3    22,QL,PR0
         0 000144   200012 453500                    STP3    NEW_DATA_IS_DIFFERENT+1,,AUTO
         0 000145   200012 630500                    EPPR0   NEW_DATA_IS_DIFFERENT+1,,AUTO
         0 000146   000017 631400 xsym               EPPR1   B_VECTNIL+15
         0 000147   000000 701000 xent               TSX1    VDG$OFREE
         0 000150   000152 702000 0                  TSX2    s:2948
         0 000151   000153 710000 0                  TRA     s:2948+1

   2948  0 000152   000000 702200 xent               TSX2  ! X66_AALT

   2948  0 000153   200004 470500                    LDP0    @WRITE_LEVEL,,AUTO
         0 000154   000000 236100                    LDQ     0,,PR0
         0 000155   000007 402007                    MPY     7,DL
         0 000156   200003 471500                    LDP1    @PORT,,AUTO
         0 000157   100025 450106                    STZ     21,QL,PR1
         0 000160   100026 450106                    STZ     22,QL,PR1

     1239     2950    3                 PORT.LEVEL.SPEC (WRITE_LEVEL) = SPEC;

   2950  0 000161   000000 236100                    LDQ     0,,PR0
         0 000162   000007 402007                    MPY     7,DL
         0 000163   000002 736000                    QLS     2
         0 000164   200005 473500                    LDP3    @SPEC,,AUTO
         0 000165   000106 100500                    MLR     fill='000'O
         0 000166   300000 000010                    ADSC9   0,,PR3                   cn=0,n=8
         0 000167   100025 000010                    ADSC9   21,Q,PR1                 cn=0,n=8

     1240     2951    3                 END;

     1241     2952    2              PORT.LEVEL.SPEC_MODIFIED (WRITE_LEVEL) = %TRUE;

   2952  0 000170   200004 470500                    LDP0    @WRITE_LEVEL,,AUTO
         0 000171   000000 236100                    LDQ     0,,PR0
         0 000172   000007 402007                    MPY     7,DL
PL6.E3A0      #002=VDA$PWRITE File=VDA$PORT.:VDA5TSI                             FRI 07/04/97 11:07 Page:159
         0 000173   200003 471500                    LDP1    @PORT,,AUTO
         0 000174   000000 620006                    EAX0    0,QL
         0 000175   400000 236003                    LDQ     -131072,DU
         0 000176   100030 256110                    ORSQ    24,X0,PR1

     1242     2953    2              SPEC = %CLEAR;       /* Port owns Spec now */

   2953  0 000177   200005 473500                    LDP3    @SPEC,,AUTO
         0 000200   300000 450100                    STZ     0,,PR3
         0 000201   300001 450100                    STZ     1,,PR3

     1243     2954    2              END;

     1244     2955
     1245     2956
     1246     2957    2           IF ADDR(DATA) ~= ADDR(NIL) THEN DO;

   2957  0 000202   200006 236100                    LDQ     @DATA,,AUTO
         0 000203   000001 116000 xsym               CMPQ    B_VECTNIL+1
         0 000204   000404 600000 0                  TZE     s:3010

     1247     2958    2              NEW_DATA_IS_DIFFERENT = %TRUE;

   2958  0 000205   400000 236003                    LDQ     -131072,DU
         0 000206   200011 756100                    STQ     NEW_DATA_IS_DIFFERENT,,AUTO

     1248     2959    3              IF PORT.LEVEL.DATA$ (WRITE_LEVEL) ~= ADDR(NIL) THEN DO;

   2959  0 000207   200004 470500                    LDP0    @WRITE_LEVEL,,AUTO
         0 000210   000000 236100                    LDQ     0,,PR0
         0 000211   000007 402007                    MPY     7,DL
         0 000212   200003 471500                    LDP1    @PORT,,AUTO
         0 000213   100027 236106                    LDQ     23,QL,PR1
         0 000214   000001 116000 xsym               CMPQ    B_VECTNIL+1
         0 000215   000250 600000 0                  TZE     s:2972

     1249     2960    3                 IF DATA.LENGTH# =
PL6.E3A0      #002=VDA$PWRITE File=VDA$PORT.:VDA5TSI                             FRI 07/04/97 11:07 Page:160

   2960  0 000216   000000 236100                    LDQ     0,,PR0
         0 000217   000007 402007                    MPY     7,DL
         0 000220   100027 473506                    LDP3    23,QL,PR1
         0 000221   200006 474500                    LDP4    @DATA,,AUTO
         0 000222   400002 220100                    LDX0    2,,PR4
         0 000223   300002 100100                    CMPX0   2,,PR3
         0 000224   000250 601000 0                  TNZ     s:2972
         0 000225   000000 236100                    LDQ     0,,PR0
         0 000226   000007 402007                    MPY     7,DL
         0 000227   100027 473506                    LDP3    23,QL,PR1
         0 000230   100027 475506                    LDP5    23,QL,PR1
         0 000231   300002 221100                    LDX1    2,,PR3
         0 000232   040140 106540                    CMPC    fill='040'O
         0 000233   400002 400010                    ADSC9   2,,PR4                   cn=2,n=*X0
         0 000234   500002 400011                    ADSC9   2,,PR5                   cn=2,n=*X1
         0 000235   000250 601000 0                  TNZ     s:2972
         0 000236   400001 236100                    LDQ     1,,PR4
         0 000237   000001 116000 xsym               CMPQ    B_VECTNIL+1
         0 000240   000250 601000 0                  TNZ     s:2972
         0 000241   000000 236100                    LDQ     0,,PR0
         0 000242   000007 402007                    MPY     7,DL
         0 000243   100027 473506                    LDP3    23,QL,PR1
         0 000244   300001 236100                    LDQ     1,,PR3
         0 000245   000001 116000 xsym               CMPQ    B_VECTNIL+1
         0 000246   000250 601000 0                  TNZ     s:2972

     1250     2961    3                   PORT.LEVEL.DATA$ (WRITE_LEVEL) -> VD$BUFFER.LENGTH#
     1251     2962    3                   AND DATA.BYTES =
     1252     2963    3                   PORT.LEVEL.DATA$ (WRITE_LEVEL) -> VD$BUFFER.BYTES
     1253     2964    3                   AND DATA.FLINK$ = ADDR(NIL)
     1254     2965    3                   AND PORT.LEVEL.DATA$ (WRITE_LEVEL) -> VD$BUFFER.FLINK$ =
     1255     2966    4                   ADDR(NIL) THEN DO;

     1256     2967                         /* New data = old data:  don't update */
     1257     2968    4                    NEW_DATA_IS_DIFFERENT = %FALSE;

PL6.E3A0      #002=VDA$PWRITE File=VDA$PORT.:VDA5TSI                             FRI 07/04/97 11:07 Page:161
   2968  0 000247   200011 450100                    STZ     NEW_DATA_IS_DIFFERENT,,AUTO

     1258     2969    4                    END;

     1259     2970    3                 END;

     1260     2971
     1261     2972    3              IF NEW_DATA_IS_DIFFERENT THEN DO;

   2972  0 000250   200011 234100                    SZN     NEW_DATA_IS_DIFFERENT,,AUTO
         0 000251   000352 605000 0                  TPL     s:3001

     1262     2973    4                 IF PORT.LEVEL.DATA$ (WRITE_LEVEL) ~= ADDR(NIL) THEN DO;

   2973  0 000252   000000 236100                    LDQ     0,,PR0
         0 000253   000007 402007                    MPY     7,DL
         0 000254   100027 236106                    LDQ     23,QL,PR1
         0 000255   000001 116000 xsym               CMPQ    B_VECTNIL+1
         0 000256   000267 600000 0                  TZE     s:2977

     1263     2974    4                    CALL VDG$OFREE (PORT.LEVEL.DATA$ (WRITE_LEVEL) -> VD$BUFFER)

   2974  0 000257   000000 236100                    LDQ     0,,PR0
         0 000260   000007 402007                    MPY     7,DL
         0 000261   100027 473506                    LDP3    23,QL,PR1
         0 000262   200012 453500                    STP3    NEW_DATA_IS_DIFFERENT+1,,AUTO
         0 000263   200012 630500                    EPPR0   NEW_DATA_IS_DIFFERENT+1,,AUTO
         0 000264   000017 631400 xsym               EPPR1   B_VECTNIL+15
         0 000265   000000 701000 xent               TSX1    VDG$OFREE
         0 000266   000405 702000 0                  TSX2    OFREE_FAILED

     1264     2975    4                      ALTRET (OFREE_FAILED);
     1265     2976    4                    END;

     1266     2977    3                 PORT.LEVEL.DATA$ (WRITE_LEVEL) = ADDR(DATA);

   2977  0 000267   200004 470500                    LDP0    @WRITE_LEVEL,,AUTO
PL6.E3A0      #002=VDA$PWRITE File=VDA$PORT.:VDA5TSI                             FRI 07/04/97 11:07 Page:162
         0 000270   000000 236100                    LDQ     0,,PR0
         0 000271   000007 402007                    MPY     7,DL
         0 000272   200012 756100                    STQ     NEW_DATA_IS_DIFFERENT+1,,AUTO
         0 000273   200006 236100                    LDQ     @DATA,,AUTO
         0 000274   200003 471500                    LDP1    @PORT,,AUTO
         0 000275   200012 720100                    LXL0    NEW_DATA_IS_DIFFERENT+1,,AUTO
         0 000276   100027 756110                    STQ     23,X0,PR1

     1267     2978    3                 PORT.LEVEL.DATA_MODIFIED (WRITE_LEVEL) = %TRUE;

   2978  0 000277   000000 236100                    LDQ     0,,PR0
         0 000300   000007 402007                    MPY     7,DL
         0 000301   000000 620006                    EAX0    0,QL
         0 000302   200000 236003                    LDQ     65536,DU
         0 000303   100030 256110                    ORSQ    24,X0,PR1

     1268     2979
     1269     2980    4                 IF PORT.DCB# = 0 THEN DO;

   2980  0 000304   100004 720100                    LXL0    4,,PR1
         0 000305   000404 601000 0                  TNZ     s:3010

     1270     2981    5                    IF FILE$NODE.DESC.DATA$ ~= ADDR(NIL) THEN DO;

   2981  0 000306   200007 473500                    LDP3    FILE_NODE$,,AUTO
         0 000307   300010 236100                    LDQ     8,,PR3
         0 000310   000001 116000 xsym               CMPQ    B_VECTNIL+1
         0 000311   000320 600000 0                  TZE     s:2985

     1271     2982    5                       CALL VDG$OFREE (FILE$NODE.DESC.DATA$ -> VD$BUFFER)

   2982  0 000312   300010 474500                    LDP4    8,,PR3
         0 000313   200012 454500                    STP4    NEW_DATA_IS_DIFFERENT+1,,AUTO
         0 000314   200012 630500                    EPPR0   NEW_DATA_IS_DIFFERENT+1,,AUTO
         0 000315   000017 631400 xsym               EPPR1   B_VECTNIL+15
         0 000316   000000 701000 xent               TSX1    VDG$OFREE
         0 000317   000405 702000 0                  TSX2    OFREE_FAILED
PL6.E3A0      #002=VDA$PWRITE File=VDA$PORT.:VDA5TSI                             FRI 07/04/97 11:07 Page:163

     1272     2983    5                         ALTRET (OFREE_FAILED);
     1273     2984    5                       END;

     1274     2985    4                    CALL VDG$OCOPY (DATA, FILE$NODE.DESC.DATA$)

   2985  0 000320   200007 236100                    LDQ     FILE_NODE$,,AUTO
         0 000321   000010 036003                    ADLQ    8,DU
         0 000322   200006 235100                    LDA     @DATA,,AUTO
         0 000323   200012 757100                    STAQ    NEW_DATA_IS_DIFFERENT+1,,AUTO
         0 000324   200012 630500                    EPPR0   NEW_DATA_IS_DIFFERENT+1,,AUTO
         0 000325   000020 631400 xsym               EPPR1   B_VECTNIL+16
         0 000326   000000 701000 xent               TSX1    VDG$OCOPY
         0 000327   000405 702000 0                  TSX2    OFREE_FAILED

     1275     2986    4                      ALTRET (OCOPY_FAILED);
     1276     2987    5                    IF DATA.OBJECT.SIZE# > 0 THEN DO;

   2987  0 000330   200006 470500                    LDP0    @DATA,,AUTO
         0 000331   000000 720100                    LXL0    0,,PR0
         0 000332   000346 604400 0                  TMOZ    s:2997

     1277     2988                         /*
     1278     2989                         * If DATA is dynamic, make sure it goes in the file.
     1279     2990                         * VDA$WRITERS sometimes points globals at it.
     1280     2991                         * BUT, if it's not dynamic, make a copy so that
     1281     2992                         * VDW$STOW_NODE knows how big the data is.
     1282     2993                         */
     1283     2994    5                       PORT.LEVEL.DATA$ (WRITE_LEVEL) = FILE$NODE.DESC.DATA$;

   2994  0 000333   200004 471500                    LDP1    @WRITE_LEVEL,,AUTO
         0 000334   100000 236100                    LDQ     0,,PR1
         0 000335   000007 402007                    MPY     7,DL
         0 000336   200007 473500                    LDP3    FILE_NODE$,,AUTO
         0 000337   200012 756100                    STQ     NEW_DATA_IS_DIFFERENT+1,,AUTO
         0 000340   300010 236100                    LDQ     8,,PR3
         0 000341   200003 474500                    LDP4    @PORT,,AUTO
PL6.E3A0      #002=VDA$PWRITE File=VDA$PORT.:VDA5TSI                             FRI 07/04/97 11:07 Page:164
         0 000342   200012 720100                    LXL0    NEW_DATA_IS_DIFFERENT+1,,AUTO
         0 000343   400027 756110                    STQ     23,X0,PR4

     1284     2995    5                       FILE$NODE.DESC.DATA$ = ADDR(DATA);

   2995  0 000344   200006 236100                    LDQ     @DATA,,AUTO
         0 000345   300010 756100                    STQ     8,,PR3

     1285     2996    5                       END;

     1286     2997    4                    FILE$NODE.DESC.EOR = %TRUE;

   2997  0 000346   200007 471500                    LDP1    FILE_NODE$,,AUTO
         0 000347   400000 236003                    LDQ     -131072,DU
         0 000350   100011 256100                    ORSQ    9,,PR1

     1287     2998    4                    END;

     1288     2999    3                 END;

   2999  0 000351   000404 710000 0                  TRA     s:3010

     1289     3000    3              ELSE DO;

     1290     3001    4                 IF PORT.LEVEL.DATA$ (WRITE_LEVEL) ~= ADDR(NIL) THEN DO;

   3001  0 000352   000000 236100                    LDQ     0,,PR0
         0 000353   000007 402007                    MPY     7,DL
         0 000354   100027 236106                    LDQ     23,QL,PR1
         0 000355   000001 116000 xsym               CMPQ    B_VECTNIL+1
         0 000356   000367 600000 0                  TZE     s:3005

     1291     3002    4                    CALL VDG$OFREE (PORT.LEVEL.DATA$ (WRITE_LEVEL) -> VD$BUFFER)

   3002  0 000357   000000 236100                    LDQ     0,,PR0
         0 000360   000007 402007                    MPY     7,DL
         0 000361   100027 473506                    LDP3    23,QL,PR1
PL6.E3A0      #002=VDA$PWRITE File=VDA$PORT.:VDA5TSI                             FRI 07/04/97 11:07 Page:165
         0 000362   200012 453500                    STP3    NEW_DATA_IS_DIFFERENT+1,,AUTO
         0 000363   200012 630500                    EPPR0   NEW_DATA_IS_DIFFERENT+1,,AUTO
         0 000364   000017 631400 xsym               EPPR1   B_VECTNIL+15
         0 000365   000000 701000 xent               TSX1    VDG$OFREE
         0 000366   000405 702000 0                  TSX2    OFREE_FAILED

     1292     3003    4                      ALTRET (OFREE_FAILED);
     1293     3004    4                    END;

     1294     3005    3                 PORT.LEVEL.DATA$ (WRITE_LEVEL) = ADDR(DATA);

   3005  0 000367   200004 470500                    LDP0    @WRITE_LEVEL,,AUTO
         0 000370   000000 236100                    LDQ     0,,PR0
         0 000371   000007 402007                    MPY     7,DL
         0 000372   200012 756100                    STQ     NEW_DATA_IS_DIFFERENT+1,,AUTO
         0 000373   200006 236100                    LDQ     @DATA,,AUTO
         0 000374   200003 471500                    LDP1    @PORT,,AUTO
         0 000375   200012 720100                    LXL0    NEW_DATA_IS_DIFFERENT+1,,AUTO
         0 000376   100027 756110                    STQ     23,X0,PR1

     1295     3006    3                 PORT.LEVEL.DATA_MODIFIED (WRITE_LEVEL) = %FALSE;

   3006  0 000377   000000 236100                    LDQ     0,,PR0
         0 000400   000007 402007                    MPY     7,DL
         0 000401   000000 620006                    EAX0    0,QL
         0 000402   000000 236000 1                  LDQ     0
         0 000403   100030 356110                    ANSQ    24,X0,PR1

     1296     3007    3                 END;

     1297     3008    2              END;

     1298     3009
     1299     3010    1           RETURN;

   3010  0 000404   000000 702200 xent               TSX2  ! X66_ARET

PL6.E3A0      #002=VDA$PWRITE File=VDA$PORT.:VDA5TSI                             FRI 07/04/97 11:07 Page:166
   3002  0 000405                       OFREE_FAILED null
     1300     3011
     1301     3012
     1302     3013
     1303     3014    1   OFREE_FAILED: ;
     1304     3015    1   OCOPY_FAILED: ;

   3015  0 000405                       OCOPY_FAILED null
     1305     3016    1           ALTRETURN;

   3016  0 000405   000000 702200 xent               TSX2  ! X66_AALT
     1306     3017
     1307     3018    1   END VDA$PWRITE;
     1308     3019        %EOD;

PL6.E3A0      #002=VDA$PWRITE File=VDA$PORT.:VDA5TSI                             FRI 07/04/97 11:07 Page:167
--  Include file information  --

   VD_PERR_C.:VDA5TOU  is referenced.
   VD_MACROS_M.:VDA5TOU  is referenced.
   B$JIT_C.:E04TOU  was found in the system file and is never referenced.
   CP_6_C.:E04TOU  was found in the system file and is never referenced.
      No diagnostics issued in procedure VDA$PWRITE.
PL6.E3A0      #002=VDA$PWRITE File=VDA$PORT.:VDA5TSI                             FRI 07/04/97 11:07 Page:168

 **** Variables and constants ****

  ****  Auto variables  ****

  ****  Scalars and arrays  ****
OctLoc.c.b A Datatyp(siz) R M Lvl/name                 OctLoc.c.b A Datatyp(siz) R M Lvl/name

     6-0-0/w PTR         r     1 @DATA                      3-0-0/w PTR         r     1 @PORT
     5-0-0/w PTR         r     1 @SPEC                      4-0-0/w PTR         r     1 @WRITE_LEVEL
    *0-0-0/w ASTR(90)    r     1 DATA                      10-0-0/w PTR         r     1 FILE_KEY$
     7-0-0/w PTR         r     1 FILE_NODE$
    11-0-0/w BIT         r     1 NEW_DATA_IS_DIFFERENT
    *0-0-0/w STRC(1944)  r     1 PORT                      *0-0-0/w STRC(72)    r     1 SPEC
    *0-0-0/w SBIN        r     1 WRITE_LEVEL

  ****  BASED and DCB variables  ****

  ****  Scalars and arrays  ****
OctLoc.c.b A Datatyp(siz) R M Lvl/name                 OctLoc.c.b A Datatyp(siz) R M Lvl/name

     0-0-0/w ASTR(9)     r     1 FILE$KEY                   0-0-0/w STRC(468)   r     1 FILE$NODE
     0-0-0/w ASTR(90)    r     1 VD$BUFFER                  0-0-0/w ASTR(9)     r     1 VD$TEXTC
     0-0-0/w ASTR(81)    r     1 VD$TEXTC_REMOTE


   Procedure VDA$PWRITE requires 262 words for executable code.
   Procedure VDA$PWRITE requires 12 words of local(AUTO) storage.
PL6.E3A0      #002=VDA$PWRITE File=VDA$PORT.:VDA5TSI                             FRI 07/04/97 11:07 Page:169
          *** CROSS REFERENCE LISTING ***
**     DENOTES     IDENTIFIER DEFINITION
<<                 IDENTIFIER'S VALUE SET
>>                 IDENTIFIER'S VALUE USED
<>                 IDENTIFIER SET AND/OR USED
--                 IDENTIFIER REFERENCED
PL6.E3A0      #002=VDA$PWRITE File=VDA$PORT.:VDA5TSI                             FRI 07/04/97 11:07 Page:170
          MINI XREF LISTING

DATA
      2572**DCL        66--PROC     2957--IF       2977--ASSIGN   2985<>CALL     2995--ASSIGN   3005--ASSIGN
DATA.BYTES
      2600**DCL      2960>>IF
DATA.FLINK$
      2598**DCL      2960>>IF
DATA.LENGTH#
      2598**DCL      2600--IMP-SIZ  2960>>IF       2960>>IF       2985>>CALL
DATA.OBJECT.SIZE#
      2596**DCL      2987>>IF
FILE$KEY.LENGTH#
      2728**DCL      2730--IMP-SIZ
FILE$NODE.DESC.DATA$
      2708**DCL      2981>>IF       2982>>CALL     2982>>CALL     2985<>CALL     2994>>ASSIGN   2995<<ASSIGN
FILE$NODE.DESC.EOR
      2708**DCL      2997<<ASSIGN
FILE$NODE.DESC.SPEC
      2704**DCL      2908<<ASSIGN   2910<<ASSIGN
FILE$NODE.DESC.SPEC.REP#
      2706**DCL      2907>>IF
FILE$NODE.DESC.SPEC.V$
      2706**DCL      2907>>CALL     2907>>CALL
FILE_KEY$
      2615**DCL      2720--IMP-PTR
FILE_NODE$
      2614**DCL      2627--IMP-PTR  2886<<ASSIGN   2907>>IF       2907>>CALL     2907>>CALL     2908>>ASSIGN
      2910>>ASSIGN   2981>>IF       2982>>CALL     2982>>CALL     2985>>CALL     2994>>ASSIGN   2995>>ASSIGN
      2997>>ASSIGN
NEW_DATA_IS_DIFFERENT
      2616**DCL      2958<<ASSIGN   2968<<ASSIGN   2972>>IF
OCOPY_FAILED
      3015**LABEL    2985--CALLALT
PL6.E3A0      #002=VDA$PWRITE File=VDA$PORT.:VDA5TSI                             FRI 07/04/97 11:07 Page:171
OFREE_FAILED
      3002**LABEL    2974--CALLALT  2982--CALLALT  3002--CALLALT
PORT
      2442**DCL        66--PROC
PORT.DCB#
      2469**DCL      2889>>IF       2980>>IF
PORT.EXIST#
      2468**DCL      2880>>IF
PORT.LAST_OP#
      2470**DCL      2884<<ASSIGN
PORT.LEVEL.DATA$
      2529**DCL      2959>>IF       2960>>IF       2960>>IF       2960>>IF       2960>>IF       2973>>IF
      2974>>CALL     2974>>CALL     2977<<ASSIGN   2994<<ASSIGN   3001>>IF       3002>>CALL     3002>>CALL
      3005<<ASSIGN
PORT.LEVEL.DATA_MODIFIED
      2529**DCL      2978<<ASSIGN   3006<<ASSIGN
PORT.LEVEL.INTERNAL$
      2529**DCL      2886>>ASSIGN
PORT.LEVEL.SPEC
      2525**DCL      2919<<ASSIGN   2935<<ASSIGN   2948<<ASSIGN   2950<<ASSIGN
PORT.LEVEL.SPEC.REP#
      2527**DCL      2918>>IF       2947>>IF
PORT.LEVEL.SPEC.V$
      2527**DCL      2918>>CALL     2918>>CALL     2935<>CALL     2947>>CALL     2947>>CALL
PORT.LEVEL.SPEC_MODIFIED
      2529**DCL      2952<<ASSIGN
SPEC
      2541**DCL        66--PROC     2888--IF       2910>>ASSIGN   2935>>ASSIGN   2950>>ASSIGN   2953<<ASSIGN
SPEC.REP#
      2545**DCL      2935>>IF
SPEC.V$
      2545**DCL      2935>>CALL     2935>>CALL
VD$BUFFER
      2844**DCL      2974<>CALL     2982<>CALL     3002<>CALL
VD$BUFFER.BYTES
      2872**DCL      2960>>IF
PL6.E3A0      #002=VDA$PWRITE File=VDA$PORT.:VDA5TSI                             FRI 07/04/97 11:07 Page:172
VD$BUFFER.FLINK$
      2870**DCL      2960>>IF
VD$BUFFER.LENGTH#
      2870**DCL      2872--IMP-SIZ  2960>>IF       2960>>IF       2974>>CALL     2982>>CALL     3002>>CALL
VD$TEXTC.LENGTH#
      2812**DCL      2814--IMP-SIZ
VD$TEXTC_REMOTE
      2760**DCL      2907<>CALL     2918<>CALL     2935<>CALL     2947<>CALL
VD$TEXTC_REMOTE.LENGTH#
      2789**DCL      2791--IMP-SIZ  2907>>CALL     2918>>CALL     2935>>CALL     2947>>CALL
VDG$ESCREECH
      2610**DCL-ENT  2882--CALL
VDG$OCOPY
      2608**DCL-ENT  2935--CALL     2985--CALL
VDG$OFREE
      2609**DCL-ENT  2907--CALL     2918--CALL     2947--CALL     2974--CALL     2982--CALL     3002--CALL
WRITE_LEVEL
      2532**DCL        66--PROC     2880>>IF       2882<>CALL     2886>>ASSIGN   2918>>IF       2918>>CALL
      2918>>CALL     2919>>ASSIGN   2935>>ASSIGN   2935>>CALL     2947>>IF       2947>>CALL     2947>>CALL
      2948>>ASSIGN   2950>>ASSIGN   2952>>ASSIGN   2959>>IF       2960>>IF       2960>>IF       2960>>IF
      2960>>IF       2973>>IF       2974>>CALL     2974>>CALL     2977>>ASSIGN   2978>>ASSIGN   2994>>ASSIGN
      3001>>IF       3002>>CALL     3002>>CALL     3005>>ASSIGN   3006>>ASSIGN

PL6.E3A0      #003=VDA$PFLUSH File=VDA$PORT.:VDA5TSI                             FRI 07/04/97 11:07 Page:173
     1309        1        /*T***********************************************************/
     1310        2        /*T*                                                         */
     1311        3        /*T* Copyright (c) Bull HN Information Systems Inc., 1997    */
     1312        4        /*T*                                                         */
     1313        5        /*T***********************************************************/
     1314        6
     1315        7        /*D* NAME: VDA$PFLUSH
     1316        8            PARAMETERS:
     1317        9                PORT - VD$PORT to use.  This Port must be open to
     1318       10                    an internal or external file.
     1319       11                FROM_PRESENTER - A BIT(1) ALIGNED flag containing either
     1320       12                    %TO_PRESENTER or %FROM_PRESENTER.  This flag is passed on
     1321       13                    (with a caveat) to VDP$RWRITE.  If the caller of
     1322       14                    VDA$PFLUSH is the Presenter, %FROM_PRESENTER should be
     1323       15                    passed; this tells VDP$RWRITE not to update the current
     1324       16                    window.
     1325       17            INPUT:
     1326       18                VD_$STRIP_BLANKS must contain 0 for "don't strip trailing blanks"
     1327       19                    or >0 for "strip all trailing blanks".
     1328       20                VD_$MIN_RECORD must contain the minimum number of bytes
     1329       21                    allowed in a record.  Must be between 0 and VD_$MAX_RECORD.V#,
     1330       22                    inclusive.
     1331       23                VD_$MAX_RECORD must contain the maximum number of bytes
     1332       24                    allowed in a record.  Must be between VD_$MIN_RECORD.V#
     1333       25                    and %MXNB_REC_DATA, inclusive.
     1334       26                VD_$PAD - A VD$BUFFER containing the pad byte(s) to use to extend
     1335       27                    short records.  VD_$PAD's value may be longer than one byte,
     1336       28                    but must be at least one byte long.
     1337       29            OUTPUT:
     1338       30                PORT.LEVEL.SPEC_MODIFIEDs and .DATA_MODIFIEDs will be reset.
     1339       31                For internal files, PORT.LEVEL.INTERNAL$'s VD$FILE_NODE.DESC.SPEC and
     1340       32                    .DATA$ may be altered.
     1341       33                VDP$RWRITE will be called with any changed nodes.
     1342       34            DESCRIPTION:
     1343       35                Loop thru the Port's level-registers, looking for modified
     1344       36                node components.  When we find one:
     1345       37                o Write the change to the file.  For an internal file,
PL6.E3A0      #003=VDA$PFLUSH File=VDA$PORT.:VDA5TSI                             FRI 07/04/97 11:07 Page:174
     1346       38                    VDA$LWRITE has already (inserted and) written the
     1347       39                    node to the file, so we do nothing for internal files.
     1348       40                    For an external file, we M$WRITE with KEYS and
     1349       41                    ONEWKEY=YES (write to file whether key already
     1350       42                    exists or not).
     1351       43                o Call VDP$RWRITE to inform the Presenter of the change.
     1352       44                    Include just enough keys in the VD$LOCATION we pass
     1353       45                    to indicate the level of the node in the file structure.
     1354       46                    If we were called by the Presenter (FROM_PRESENTER set)
     1355       47                    and we didn't change the node's Data component (as
     1356       48                    specified by $MIN_RECORD, $MAX_RECORD, and $STRIP_BLANKS),
     1357       49                    then pass %FROM_PRESENTER on to VDP$RWRITE.  Otherwise,
     1358       50                    pass %TO_PRESENTER on to VDP$RWRITE:  this will force
     1359       51                    the Presenter to update all windows containing the node,
     1360       52                    even the current one.  We want to do this 'cause we
     1361       53                    changed the node from what the user sent to the Pres'r;
     1362       54                    we show the change to the user by updating the window
     1363       55                    with the new Data component.
     1364       56        */
     1365       57
     1366       58        VDA$PFLUSH: PROC (PORT, FROM_PRESENTER) ALTRET;
     1367       59
     1368       60
     1369       61        %INCLUDE VD_MACROS_M;
     1370     2276        %INCLUDE VD_PERR_C;
     1371     2424        %INCLUDE CP_6;
     1372     2505        %INCLUDE B_ERRORS_C;
     1373     3631        %INCLUDE B$TABLES_C;
     1374     3739
     1375     3740
     1376     3741        %VD$PORT (NAME=PORT, STCLASS=PARAM);
     1377     3839    1   DCL FROM_PRESENTER BIT(1) ALIGNED;
     1378     3840
     1379     3841
     1380     3842    1   DCL VDP$RWRITE          ENTRY (5) ALTRET;
     1381     3843    1   DCL VDG$OALLOC          ENTRY (3) ALTRET;
     1382     3844    1   DCL VDG$OFREE           ENTRY (1) ALTRET;
PL6.E3A0      #003=VDA$PFLUSH File=VDA$PORT.:VDA5TSI                             FRI 07/04/97 11:07 Page:175
     1383     3845    1   DCL VDG$MACC_PFLUSH     ENTRY (2);
     1384     3846    1   DCL VDG$MACC_PFLUSH_WRITE ENTRY (3);
     1385     3847    1   DCL VDG$MACC_PFLUSH_REWRITE ENTRY (2);
     1386     3848    1   DCL VDG$MACC_PRETURN    ENTRY (1);
     1387     3849
     1388     3850
     1389     3851        %VD$NUMBER (NAME=VD_$$MON_ACC, STCLASS=SYMREF);
     1390     3896        %VD$NUMBER (NAME=VD_$MAX_RECORD, STCLASS=SYMREF);
     1391     3941        %VD$NUMBER (NAME=VD_$MIN_RECORD, STCLASS=SYMREF);
     1392     3986        %VD$BUFFER (NAME=VD_$PAD, STCLASS=SYMREF);
     1393     4044        %VD$NUMBER (NAME=VD_$STRIP_BLANKS, STCLASS=SYMREF);
     1394     4089    1   DCL B$TCB$ PTR SYMREF;
     1395     4090
     1396     4091
     1397     4092        %B$SR_NON_BLANK;
     1398     4096        %FPT_WRITE (FPTN=CONST_FPT_WRITE, STCLASS=CONSTANT, ONEWKEY=YES);
     1399     4127
     1400     4128
     1401     4129
     1402     4130    1   DCL HAD_ERROR BIT(1) ALIGNED;
     1403     4131    1   DCL STRUCTURE_NODE$ PTR;
     1404     4132        %VD$LOCATION (NAME=CURR_LOCATION, STCLASS=AUTO); /* Doesn't own objects */
     1405     4160    1   DCL LEVEL SBIN;
     1406     4161    1   DCL CANT_WRITE_THIS_LEVEL BIT(1) ALIGNED;
     1407     4162    1   DCL CHANGED_DATA BIT(1) ALIGNED;
     1408     4163    1   DCL STILL_FROM_PRESENTER BIT(1) ALIGNED;
     1409     4164    1   DCL SPEC_TO_PASS$ PTR;
     1410     4165    1   DCL BUFFER_TO_PASS$ PTR;
     1411     4166    1   DCL VD_ERR$ PTR;
     1412     4167
     1413     4168
     1414     4169        %VD$FILE_NODE (NAME=STRUCTURE$NODE, STCLASS="BASED(STRUCTURE_NODE$)");
     1415     4262        %VD$SPEC (NAME=SPEC$TO_PASS, STCLASS="BASED(SPEC_TO_PASS$)");
     1416     4276        %VD$BUFFER (NAME=BUFFER$TO_PASS, STCLASS="BASED(BUFFER_TO_PASS$)");
     1417     4334        %VD$BUFFER;
     1418     4392        %VD$BUFFER_HEADER;
     1419     4428        %VD$FILE_NODE;
PL6.E3A0      #003=VDA$PFLUSH File=VDA$PORT.:VDA5TSI                             FRI 07/04/97 11:07 Page:176
     1420     4521        %VD$TEXTC_REMOTE;
     1421     4582        %VD$ERR (NAME=VD$ERR, STCLASS="BASED(VD_ERR$)");
     1422     4635        %B$TCB (NAME=B$TCB, STCLASS="BASED(B$TCB$)");
     1423     4638        %B$ALT;
     1424     4646
     1425     4647
     1426     4648
     1427     4649    1           HAD_ERROR = %FALSE;
     1428     4650    1           IF VD_$$MON_ACC.V# > 0 THEN
     1429     4651    1              CALL VDG$MACC_PFLUSH (PORT, FROM_PRESENTER);
     1430     4652
     1431     4653    1           STRUCTURE_NODE$ = PORT.STRUCTURE$;
     1432     4654    1           CURR_LOCATION = PORT.CURRENT;
     1433     4655
     1434     4656                /*
     1435     4657                *   EACH_LEVEL loops backward up thru the levels so we
     1436     4658                *       can start out with CURR_LOCATION, then as we
     1437     4659                *       move up the levels just %CLEAR-out a key in
     1438     4660                *       CURR_LOCATION.
     1439     4661                */
     1440     4662    1   EACH_LEVEL:
     1441     4663    2           DO LEVEL = STRUCTURE$NODE.COUNT# - 1 DOWNTO %LVL_LOWER;
     1442     4664    2              IF PORT.LEVEL.SPEC_MODIFIED (LEVEL)
     1443     4665    2                OR PORT.LEVEL.DATA_MODIFIED (LEVEL) THEN
     1444     4666    3   SOMETHINGS_BEEN_MODIFIED: DO;
     1445     4667    3                 CHANGED_DATA = %FALSE;
     1446     4668    4                 IF PORT.LEVEL.DATA_MODIFIED (LEVEL) THEN DO;
     1447     4669    4                    CALL NORMALIZE_DATA (CHANGED_DATA)
     1448     4670    4                      ALTRET (NORMALIZE_DATA_FAILED);
     1449     4671    4                    END;
     1450     4672    3                 CANT_WRITE_THIS_LEVEL = %FALSE;
     1451     4673    4                 IF PORT.DCB# ~= 0 THEN DO;
     1452     4674    4                    CALL EXTERNAL_MODIFIED
     1453     4675    5                    WHENALTRETURN DO;
     1454     4676    5                       CANT_WRITE_THIS_LEVEL = %TRUE;
     1455     4677    5                       HAD_ERROR = %TRUE;
     1456     4678    5                       END;
PL6.E3A0      #003=VDA$PFLUSH File=VDA$PORT.:VDA5TSI                             FRI 07/04/97 11:07 Page:177
     1457     4679    4                    END;
     1458     4680
     1459     4681    4                 IF NOT CANT_WRITE_THIS_LEVEL THEN DO;
     1460     4682                         /* Tell the Presenter about the new node */
     1461     4683    4                    IF PORT.LEVEL.SPEC_MODIFIED (LEVEL) THEN
     1462     4684    4                       SPEC_TO_PASS$ = ADDR(PORT.LEVEL.SPEC (LEVEL));
     1463     4685    4                    ELSE
     1464     4686    4                       SPEC_TO_PASS$ = ADDR(NIL);
     1465     4687    4                    IF PORT.LEVEL.DATA_MODIFIED (LEVEL) THEN
     1466     4688    4                       BUFFER_TO_PASS$ = PORT.LEVEL.DATA$ (LEVEL);
     1467     4689    4                    ELSE
     1468     4690    4                       BUFFER_TO_PASS$ = ADDR(NIL);
     1469     4691    4                    STILL_FROM_PRESENTER = FROM_PRESENTER;
     1470     4692    4                    IF CHANGED_DATA THEN
     1471     4693    4                       STILL_FROM_PRESENTER = %TO_PRESENTER;
     1472     4694    4                    CALL VDP$RWRITE (PORT.FILE_KEY, CURR_LOCATION,
     1473     4695    4                      SPEC$TO_PASS, BUFFER$TO_PASS, STILL_FROM_PRESENTER)
     1474     4696    4                      ALTRET (RWRITE_FAILED);
     1475     4697    4                    END;
     1476     4698
     1477     4699    3                 PORT.LEVEL.SPEC_MODIFIED (LEVEL) = %FALSE;
     1478     4700    3                 PORT.LEVEL.DATA_MODIFIED (LEVEL) = %FALSE;
     1479     4701    3                 END SOMETHINGS_BEEN_MODIFIED;
     1480     4702    2              CURR_LOCATION.KEY (LEVEL-1) = %CLEAR;
     1481     4703    2              END EACH_LEVEL;
     1482     4704
     1483     4705    1           IF HAD_ERROR THEN
     1484     4706    1              ALTRETURN;
     1485     4707
     1486     4708    1           IF VD_$$MON_ACC.V# > 0 THEN
     1487     4709    1              CALL VDG$MACC_PRETURN (PORT);
     1488     4710    1           RETURN;
     1489     4711
     1490     4712
     1491     4713    1   NORMALIZE_DATA_FAILED: ;
     1492     4714    1   EXTERNAL_MODIFIED_FAILED: ;
     1493     4715    1   RWRITE_FAILED: ;
PL6.E3A0      #003=VDA$PFLUSH File=VDA$PORT.:VDA5TSI                             FRI 07/04/97 11:07 Page:178
     1494     4716    1           ALTRETURN;
     1495     4717
     1496     4718                %BOX (TITLE=NORMALIZE_DATA, PAGE=YES);
              4726    1
              4730    1   /***************************************************************************
              4732    1    *                                                                         *
              4736    1            *                               NORMALIZE_DATA                            *
              4738    1            *                                                                         *
              4740    1           ***************************************************************************/

     1497     4744
     1498     4745        /*I* NAME: NORMALIZE_DATA
     1499     4746            PARAMETERS:
     1500     4747                CHANGED_RECORD - Uninitialized BIT(1) ALIGNED.
     1501     4748            INPUT:
     1502     4749                PORT - Same as for external routine.  Must be open to
     1503     4750                    either an internal or external file whose Data
     1504     4751                    component has been modified at LEVEL.
     1505     4752                LEVEL - Level # in PORT at which we found modified
     1506     4753                    Data component.
     1507     4754                PORT.LEVEL.INTERNAL$ (LEVEL) - If the file is internal, this
     1508     4755                    must point to the VD$FILE_NODE for the node.
     1509     4756            OUTPUT:
     1510     4757                If PORT.LEVEL.DATA$'s buffer contents are changed at all
     1511     4758                    by this routine, CHANGED_RECORD will be %TRUE; else
     1512     4759                    CHANGED_RECORD will be %FALSE.
     1513     4760                The PORT.LEVEL.DATA$ pointer may be changed, if we must
     1514     4761                    free the old buffer and allocate a new one.  In such a
     1515     4762                    case, if the file is internal we'll also change the
     1516     4763                    VD$FILE_NODE.DESC.DATA$ pointer.
     1517     4764                PORT.LEVEL.DATA$'s buffer contents may be changed.
     1518     4765            DESCRIPTION:
     1519     4766                If the file is predefined, just return:  the name-controlled
     1520     4767                    normalizing we do is for user data files only.
     1521     4768                If the $STRIP_BLANKS predefined name has been set on, we'll
     1522     4769                    first strip all trailing blanks from the buffer.
     1523     4770                We'll normalize the length of the buffer, padding/stripping
PL6.E3A0      #003=VDA$PFLUSH File=VDA$PORT.:VDA5TSI                             FRI 07/04/97 11:07 Page:179
     1524     4771                    it to be between $MIN_RECORD and $MAX_RECORD,
     1525     4772                    inclusive.  If padding is needed, $PAD will be used as
     1526     4773                    the pad byte(s).
     1527     4774                    Note that if the record has the VFC attribute set (external data
     1528     4775                    records only), then the minimum record length is 1 no matter
     1529     4776                    what the user says (star 22377), and $PAD is ignored:  a VFC
     1530     4777                    char of 'A' is used.  Also that consec file records will always be
     1531     4778                    padded or truncated to the same length as any previous record.
     1532     4779        */
     1533     4780
     1534     4781    1   NORMALIZE_DATA: PROC (CHANGED_RECORD) ALTRET;
     1535     4782
     1536     4783
     1537     4784    2   DCL CHANGED_RECORD BIT(1) ALIGNED;
     1538     4785
     1539     4786
     1540     4787
     1541     4788    2   DCL DATA_BUFFER$ PTR;
     1542     4789    2   DCL T$ PTR; /* pointer for use as an argument */
     1543     4790    2   DCL NON_BLANK_INDEX SBIN;
     1544     4791    2   DCL TABLE_VAL SBIN;
     1545     4792    2   DCL MIN_RECORD UBIN;
     1546     4793    2   DCL TEXTC_DVBYTE$ PTR;
     1547     4794    2   DCL RECORD_NEEDS_VFC BIT(1) ALIGNED;
     1548     4795    2   DCL PAD_POINT SBIN;
     1549     4796    2   DCL NEW_NW SBIN;
     1550     4797    2   DCL I SBIN;
     1551     4798
     1552     4799
     1553     4800        %VD$BUFFER (NAME=DATA$BUFFER, STCLASS="BASED(DATA_BUFFER$)");
     1554     4858    2   DCL 1 TEXTC$DVBYTE BASED(TEXTC_DVBYTE$) ALIGNED,
     1555     4859    2         2 LENGTH# UBIN BYTE CALIGNED,
     1556     4860    2         2 TOP BIT(1),
     1557     4861    2         2 * BIT(1),
     1558     4862    2         2 VFC BIT(1),
     1559     4863    2         2 BIN BIT(1),
     1560     4864    2         2 TRANS BIT(1),
PL6.E3A0      #003=VDA$PFLUSH File=VDA$PORT.:VDA5TSI                             FRI 07/04/97 11:07 Page:180
     1561     4865    2         2 * BIT(4);
     1562     4866        %F$DCB;
     1563     4923
     1564     4924
     1565     4925
     1566     4926    2           CHANGED_RECORD = %FALSE;
     1567     4927    2           IF PORT.LEVEL.SPEC_TYPE# (LEVEL) ~= 0
     1568     4928    2             AND PORT.LEVEL.SPEC_TYPE# (LEVEL) ~= %SPT_EXT_RECORD THEN
     1569     4929    2              RETURN;
     1570     4930                /*
     1571     4931                *N* The above test does not screen out predefined scratch
     1572     4932                *N* files.  To fix #27741, all internal files are screened out
     1573     4933                *N* since, currently, only predefined files are internal.  If
     1574     4934                *N* this ever changes, a better test must be devised.  Code
     1575     4935                *N* below to handle internal files is retained for this reason.
     1576     4936                */
     1577     4937    2           IF PORT.DCB# = 0 THEN
     1578     4938    2              RETURN;
     1579     4939
     1580     4940    2           DATA_BUFFER$ = PORT.LEVEL.DATA$ (LEVEL);
     1581     4941
     1582     4942                /*
     1583     4943                *   Strip trailing blanks if requested.
     1584     4944                */
     1585     4945
     1586     4946    3           IF VD_$STRIP_BLANKS.V# > 0 AND DATA$BUFFER.LENGTH# > 0 THEN DO;
     1587     4947    3              CALL SEARCHR (NON_BLANK_INDEX, TABLE_VAL, B$SR_NON_BLANK,
     1588     4948    3                DATA$BUFFER.BYTES);
     1589     4949    3              IF TABLE_VAL = 0 THEN
     1590     4950    3                 NON_BLANK_INDEX = -1; /* No non-blank in rec */
     1591     4951    4              IF NON_BLANK_INDEX + 1 ~= DATA$BUFFER.LENGTH# THEN DO;
     1592     4952    4                 CHANGED_RECORD = %TRUE;
     1593     4953    4                 DATA$BUFFER.LENGTH# = NON_BLANK_INDEX + 1;
     1594     4954    4                 END;
     1595     4955    3              END;
     1596     4956
     1597     4957                /*
PL6.E3A0      #003=VDA$PFLUSH File=VDA$PORT.:VDA5TSI                             FRI 07/04/97 11:07 Page:181
     1598     4958                * make sure CONSEC files get blanked out properly, and that the
     1599     4959                * display shows their truncation if that occurs.
     1600     4960                */
     1601     4961    3           IF PORT.LEVEL.ORG# (%LVL_EXT_REC) = %ORG_CONSEC THEN DO;
     1602     4962    3              MIN_RECORD = DCBADDR (PORT.DCB#) -> F$DCB.ARS#;
     1603     4963    3              IF MIN_RECORD = 0 THEN EXIT;
     1604     4964    3              IF DATA$BUFFER.LENGTH# <= MIN_RECORD THEN EXIT;
     1605     4965    3              CHANGED_RECORD = %TRUE;
     1606     4966    3              DATA$BUFFER.LENGTH# = MIN_RECORD;
     1607     4967    3              END;
     1608     4968    2           ELSE MIN_RECORD = VD_$MIN_RECORD.V#;
     1609     4969
     1610     4970                /*
     1611     4971                *   Truncate long data to maximum length.
     1612     4972                */
     1613     4973    3           IF DATA$BUFFER.LENGTH# > VD_$MAX_RECORD.V# THEN DO;
     1614     4974    3              CHANGED_RECORD = %TRUE;
     1615     4975    3              DATA$BUFFER.LENGTH# = VD_$MAX_RECORD.V#;
     1616     4976    3              END;
     1617     4977
     1618     4978
     1619     4979                /*
     1620     4980                *   Lengthen short data to minimum length.
     1621     4981                */
     1622     4982
     1623     4983    2           RECORD_NEEDS_VFC = %FALSE;
     1624     4984    3           IF MIN_RECORD < 1 AND PORT.DCB# ~= 0 THEN DO;
     1625     4985                   %GETSPEC (SPEC=PORT.LEVEL.SPEC, INDX=%LVL_EXT_REC,
     1626     4986                   PTR=TEXTC_DVBYTE$);
     1627     4996    4              IF TEXTC$DVBYTE.LENGTH# > 0 THEN DO;
     1628     4997    4                 RECORD_NEEDS_VFC = TEXTC$DVBYTE.VFC;
     1629     4998    4                 IF RECORD_NEEDS_VFC THEN
     1630     4999    4                    MIN_RECORD = 1;
     1631     5000    4                 END;
     1632     5001    3              END;
     1633     5002
     1634     5003    2           IF DATA$BUFFER.LENGTH# < MIN_RECORD THEN
PL6.E3A0      #003=VDA$PFLUSH File=VDA$PORT.:VDA5TSI                             FRI 07/04/97 11:07 Page:182
     1635     5004    3   GUAR_MIN_RECORD: DO;
     1636     5005    3              CHANGED_RECORD = %TRUE;
     1637     5006    3              PAD_POINT = DATA$BUFFER.LENGTH#;
     1638     5007    3              NEW_NW = (LENGTHC(VD$BUFFER_HEADER) + MIN_RECORD +
     1639     5008    3                %(NB_PER_WORD-1)) / %NB_PER_WORD;
     1640     5009    3              IF NEW_NW <= DATA$BUFFER.OBJECT.SIZE# THEN
     1641     5010    4   FITS_IN_OLD_SPACE: DO;
     1642     5011    4                 DATA$BUFFER.LENGTH# = MIN_RECORD;
     1643     5012    5                 IF RECORD_NEEDS_VFC THEN DO;
     1644     5013    5                    DATA$BUFFER.BYTES = %DFLT_VFC;
     1645     5014    5                    PAD_POINT = %LENGTHC(DFLT_VFC);
     1646     5015    5                    END;
     1647     5016    4                 IF PAD_POINT < DATA$BUFFER.LENGTH#
     1648     5017    5                   AND VD_$PAD.BYTES = %CHR_SPACE THEN DO;
     1649     5018    5                    CALL INSERT (DATA$BUFFER.BYTES, PAD_POINT, , %CHR_SPACE);
     1650     5019    5                    END;
     1651     5020    4                 END FITS_IN_OLD_SPACE;
     1652     5021    3              ELSE
     1653     5022    4   COPY_TO_NEW_SPACE: DO;
     1654     5023    4                 CALL VDG$OALLOC (%CLS_BUFFER, T$, NEW_NW)
     1655     5024    4                   ALTRET (OALLOC_FAILED);
     1656     5025    4                 DATA_BUFFER$ = T$;
     1657     5026    4                 DATA$BUFFER.LENGTH# = MIN_RECORD;
     1658     5027    5                 IF RECORD_NEEDS_VFC THEN DO;
     1659     5028    5                    CALL CONCAT (DATA$BUFFER.BYTES, %DFLT_VFC,
     1660     5029    5                      PORT.LEVEL.DATA$ (LEVEL) -> VD$BUFFER.BYTES);
     1661     5030    5                    PAD_POINT = %LENGTHC(DFLT_VFC);
     1662     5031    5                    END;
     1663     5032    4                 ELSE
     1664     5033    4                    DATA$BUFFER.BYTES =
     1665     5034    4                      PORT.LEVEL.DATA$ (LEVEL) -> VD$BUFFER.BYTES;
     1666     5035    4                 CALL VDG$OFREE (PORT.LEVEL.DATA$ (LEVEL) -> VD$BUFFER)
     1667     5036    4                   ALTRET (OFREE_FAILED);
     1668     5037    4                 PORT.LEVEL.DATA$ (LEVEL) = DATA_BUFFER$;
     1669     5038    4                 IF PORT.DCB# = 0 THEN
     1670     5039    4                    PORT.LEVEL.INTERNAL$ (LEVEL) -> VD$FILE_NODE.DESC.DATA$ =
     1671     5040    4                      DATA_BUFFER$;
PL6.E3A0      #003=VDA$PFLUSH File=VDA$PORT.:VDA5TSI                             FRI 07/04/97 11:07 Page:183
     1672     5041    4                 END COPY_TO_NEW_SPACE;
     1673     5042
     1674     5043    3              IF VD_$PAD.BYTES ~= %CHR_SPACE THEN
     1675     5044    4   PAD_WITH_NON_BLANK: DO;
     1676     5045    5                 DO I = PAD_POINT TO (MIN_RECORD - 1)
     1677     5046    5                   BY VD_$PAD.LENGTH#;
     1678     5047    5                    CALL INSERT (DATA$BUFFER.BYTES, I, VD_$PAD.LENGTH#,
     1679     5048    5                      VD_$PAD.BYTES);
     1680     5049    5                    END;
     1681     5050    4                 END PAD_WITH_NON_BLANK;
     1682     5051    3              END GUAR_MIN_RECORD;
     1683     5052
     1684     5053
     1685     5054    2           RETURN;
     1686     5055
     1687     5056
     1688     5057
     1689     5058    2   OALLOC_FAILED: ;
     1690     5059    2   OFREE_FAILED: ;
     1691     5060    2           ALTRETURN;
     1692     5061
     1693     5062    2   END NORMALIZE_DATA;
     1694     5063
     1695     5064                %BOX (TITLE=EXTERNAL_MODIFIED, PAGE=YES);
              5072    2
              5076    2   /***************************************************************************
              5078    2    *                                                                         *
              5082    2            *                             EXTERNAL_MODIFIED                           *
              5084    2            *                                                                         *
              5086    2           ***************************************************************************/

     1696     5090
     1697     5091        /*I* NAME: EXTERNAL_MODIFIED
     1698     5092            PARAMETERS:
     1699     5093                None.
     1700     5094            INPUT:
     1701     5095                PORT - Same as for external routine.
PL6.E3A0      #003=VDA$PFLUSH File=VDA$PORT.:VDA5TSI                             FRI 07/04/97 11:07 Page:184
     1702     5096                    Port must be open to an external file whose Spec
     1703     5097                    and/or Data components have been modified at LEVEL.
     1704     5098                LEVEL - Level # in PORT at which we found modified
     1705     5099                    Spec and/or Data components.
     1706     5100            OUTPUT:
     1707     5101            DESCRIPTION:
     1708     5102                Whenever we write out an external record, we write both the
     1709     5103                    Spec and Data components.
     1710     5104        */
     1711     5105
     1712     5106    1   EXTERNAL_MODIFIED: PROC ALTRET;
     1713     5107
     1714     5108
     1715     5109        %FPT_WRITE (FPTN=FPT_WRITE, STCLASS=AUTO);
     1716     5140    2   DCL PORT_KEY$ PTR;
     1717     5141    2   DCL TEXTC_BITS$ PTR;
     1718     5142        %VD$ERR_CODE (NAME=ERR_CODE, STCLASS=AUTO);
     1719     5157
     1720     5158
     1721     5159        %VD$TEXTC (NAME=PORT$KEY, STCLASS="BASED(PORT_KEY$)");
     1722     5182    2   DCL 1 TEXTC$BITS BASED(TEXTC_BITS$) ALIGNED,
     1723     5183    2         2 CNT UBIN BYTE CALIGNED,
     1724     5184    2         2 BITS BIT(9);
     1725     5185
     1726     5186
     1727     5187
     1728     5188    2           FPT_WRITE = CONST_FPT_WRITE;
     1729     5189    2           FPT_WRITE.V_ = VECTOR(FPT_WRITE.V);
     1730     5190    2           FPT_WRITE.V.DCB# = PORT.DCB#;
     1731     5191    2           FPT_WRITE.BUF_ =
     1732     5192    2             VECTOR(PORT.LEVEL.DATA$ (%LVL_EXT_REC) -> VD$BUFFER.BYTES);
     1733     5193    2           IF PORT.LEVEL.DATA$ (%LVL_EXT_REC) -> VD$BUFFER.LENGTH# = 0 THEN
     1734     5194    2              FPT_WRITE.BUF_ = VECTOR(NIL);
     1735     5195                %GETKEY (KEY=PORT.CURRENT.KEY, INDX="%(LVL_EXT_REC-1)",
     1736     5196                PTR=PORT_KEY$);
     1737     5206
     1738     5207    3           DO CASE (PORT.LEVEL.ORG# (%LVL_EXT_REC));
PL6.E3A0      #003=VDA$PFLUSH File=VDA$PORT.:VDA5TSI                             FRI 07/04/97 11:07 Page:185
     1739     5208    3            CASE (%ORG_CONSEC);
     1740     5209    3              FPT_WRITE.KEY_ = VECTOR(PORT$KEY.BYTES);
     1741     5210    3              FPT_WRITE.V.REWRITE# = %TRUE;
     1742     5211    3            CASE (%ORG_INDEXED);
     1743     5212    3              FPT_WRITE.KEY_ = VECTOR(PORT$KEY.BYTES);
     1744     5213    3            CASE (ELSE);
     1745     5214    3              FPT_WRITE.KEY_ = VECTOR(PORT$KEY);
     1746     5215    3            END;
     1747     5216
     1748     5217    2           FPT_WRITE.V.DVBYTE = %CLEAR;
     1749     5218                %GETSPEC (SPEC=PORT.LEVEL.SPEC, INDX=%LVL_EXT_REC, PTR=TEXTC_BITS$);
     1750     5228    3           IF TEXTC$BITS.CNT > 0 THEN DO;
     1751     5229    3              FPT_WRITE.V.DVBYTE = TEXTC$BITS.BITS;
     1752     5230    3              FPT_WRITE.V.DVBYTE.CONT# = %FALSE;
     1753     5231    3              END;
     1754     5232
     1755     5233    2           ERR_CODE = %CLEAR;
     1756     5234    2           IF VD_$$MON_ACC.V# > 10 THEN
     1757     5235    2              CALL VDG$MACC_PFLUSH_WRITE (FPT_WRITE.V.DCB#, FPT_WRITE.KEY_,
     1758     5236    2                FPT_WRITE.BUF_);
     1759     5237    2           CALL M$WRITE (FPT_WRITE)
     1760     5238    3           WHENALTRETURN DO;
     1761     5239    3              ERR_CODE = B$TCB.ALT$->B$ALT.ERR;
     1762     5240    4              IF PORT.LEVEL.ORG# (%LVL_EXT_REC) = %ORG_CONSEC THEN DO;
     1763     5241    5                 IF ERR_CODE.CODE# = %E$LD THEN DO;
     1764     5242                         /*
     1765     5243                         * If we got E$LD back from a write to a CONSEC file,
     1766     5244                         *    it just means the record length of the written data
     1767     5245                         *    was different from the record length of the record
     1768     5246                         *    being replaced.  We already warned the user about
     1769     5247                         *    this when s/he opened the file for update --
     1770     5248                         *    ignore the error now.
     1771     5249                         */
     1772     5250    5                    ERR_CODE = %CLEAR;  /* Ignore the error */
     1773     5251    5                    END;
     1774     5252    4                 ELSE IF ERR_CODE.CODE# = %E$WRDEL
     1775     5253    5                      AND FPT_WRITE.V.REWRITE# THEN DO;
PL6.E3A0      #003=VDA$PFLUSH File=VDA$PORT.:VDA5TSI                             FRI 07/04/97 11:07 Page:186
     1776     5254                            /*
     1777     5255                            *  Monitor didn't like a rewrite of a consec file record.
     1778     5256                            *  Probably because we were writing a new record at the
     1779     5257                            *    end of the file.  Try writing the record again
     1780     5258                            *    without REWRITE.
     1781     5259                            */
     1782     5260    5                       FPT_WRITE.V.REWRITE# = %FALSE;
     1783     5261    5                       ERR_CODE = %CLEAR;
     1784     5262    5                       IF VD_$$MON_ACC.V# > 10 THEN
     1785     5263    5                          CALL VDG$MACC_PFLUSH_REWRITE (FPT_WRITE.V.DCB#,
     1786     5264    5                            FPT_WRITE.KEY_);
     1787     5265    5                       CALL M$WRITE (FPT_WRITE)
     1788     5266    6                       WHENALTRETURN DO;
     1789     5267    6                          ERR_CODE = B$TCB.ALT$->B$ALT.ERR;
     1790     5268    7                          IF ERR_CODE.CODE# = %E$LD THEN DO;
     1791     5269    7                             ERR_CODE = %CLEAR;  /* Ignore the error */
     1792     5270    7                             END;
     1793     5271    6                          END;
     1794     5272    5                       END;
     1795     5273    4                 END;   /* If consec file */
     1796     5274    3              END;  /* WHENALTRETURN */
     1797     5275
     1798     5276    2           IF ERR_CODE ~= %CLEAR THEN
     1799     5277    2              GOTO WRITE_FAILED;
     1800     5278
     1801     5279    2           RETURN;
     1802     5280
     1803     5281
     1804     5282
     1805     5283    2   WRITE_FAILED:
     1806     5284    2           CALL VDG$OALLOC (%CLS_ERR, VD_ERR$)
     1807     5285    2             ALTRET (OALLOC_FAILED);
     1808     5286    2           VD$ERR.ERR = ERR_CODE;
     1809     5287    2           VD$ERR.FLAGLEV# = %FLV_SERIOUS;
     1810     5288    2           VD$ERR.DCB# = PORT.DCB#;
     1811     5289    2           ALTRETURN;
     1812     5290
PL6.E3A0      #003=VDA$PFLUSH File=VDA$PORT.:VDA5TSI                             FRI 07/04/97 11:07 Page:187
     1813     5291
     1814     5292    2   OALLOC_FAILED: ;
     1815     5293    2           ALTRETURN;
     1816     5294
     1817     5295    2   END EXTERNAL_MODIFIED;
     1818     5296
     1819     5297    1   END VDA$PFLUSH;
     1820     5298        %EOD;

PL6.E3A0      #003=VDA$PFLUSH File=VDA$PORT.:VDA5TSI                             FRI 07/04/97 11:07 Page:188
--  Include file information  --

   B$TABLES_C.:LIBRARY  cannot be made into a system file and is referenced.
   B_ERRORS_C.:LIBRARY  is referenced.
   CP_6.:LIBRARY  cannot be made into a system file and is referenced.
   VD_PERR_C.:VDA5TOU  is referenced.
   VD_MACROS_M.:VDA5TOU  is referenced.
   B$JIT_C.:E04TOU  was found in the system file and is never referenced.
   CP_6_C.:E04TOU  was found in the system file and is referenced.
      No diagnostics issued in procedure VDA$PFLUSH.

   Procedure VDA$PFLUSH requires 555 words for executable code.
   Procedure VDA$PFLUSH requires 48 words of local(AUTO) storage.

PL6.E3A0      #003=VDA$PFLUSH File=VDA$PORT.:VDA5TSI                             FRI 07/04/97 11:07 Page:189

 Object Unit name= VDA$PFLUSH                                 File name= VDA$PORT.:VDA5TOU
 UTS= JUL 04 '97 11:07:48.80 FRI                              Compiler= PL-6/E31         Sev=      00
 SharedLib= :SHARED_SYSTEM                                    Alt SharedLib=


    ****  Control sections  ****

 Sect   Type Bound  Init  Size OctSiz  Section name(segment info)
    0   DCB   even  none     0      0  M$UC
    1  RoData even  UTS     12     14  VDA$PFLUSH
    2   Proc  even  none   555   1053  VDA$PFLUSH
    3  RoData even  none    11     13  VDA$PFLUSH

    ****  Entry defs  ****

                              Check   Calling
                             calling  sequence
  Sect OctLoc Primary Altret sequence   type   Parms  Name
     2      0   yes    yes     yes      Std        2  VDA$PFLUSH

  ****  Entry refs  ****

         Check        Calling
        calling       sequence
Altret sequence SRef   type   Args  Name
         yes          ~proc      0 B_POINTER
         yes           Std       2 VDG$MACC_PFLUSH
 yes     yes           Std       5 VDP$RWRITE
         yes           Std       1 VDG$MACC_PRETURN
 yes     yes           Std       3 VDG$OALLOC
 yes     yes           Std       1 VDG$OFREE
         yes           Std       3 VDG$MACC_PFLUSH_WRITE
         yes           Std       2 VDG$MACC_PFLUSH_REWRITE
                       nStd      0 X66_AUTO_2
                       Std       0 B_CONSPOOL_D
                       nStd      0 X66_AALT
                       nStd      0 X66_ARET
PL6.E3A0      #003=VDA$PFLUSH File=VDA$PORT.:VDA5TSI                             FRI 07/04/97 11:07 Page:190

  ****  Data refs  ****

  Flags:  r = read only, s = secondary
Flgs Name                             Flgs Name                             Flgs Name
     M$UC                                  VD_$$MON_ACC                          VD_$MAX_RECORD
     VD_$MIN_RECORD                        VD_$PAD                               VD_$STRIP_BLANKS
     B$TCB$                           r    B$SR_NON_BLANK$                       B_VECTNIL

  ****  Segment refs  ****

  Flags:  r = read only, s = secondary
Flgs Name                             Flgs Name                             Flgs Name
     ISSID                                 NULLSID                               ROSID
PL6.E3A0      #003=VDA$PFLUSH File=VDA$PORT.:VDA5TSI                             FRI 07/04/97 11:07 Page:191


     1309        1        /*T***********************************************************/
     1310        2        /*T*                                                         */
     1311        3        /*T* Copyright (c) Bull HN Information Systems Inc., 1997    */
     1312        4        /*T*                                                         */
     1313        5        /*T***********************************************************/
     1314        6
     1315        7        /*D* NAME: VDA$PFLUSH
     1316        8            PARAMETERS:
     1317        9                PORT - VD$PORT to use.  This Port must be open to
     1318       10                    an internal or external file.
     1319       11                FROM_PRESENTER - A BIT(1) ALIGNED flag containing either
     1320       12                    %TO_PRESENTER or %FROM_PRESENTER.  This flag is passed on
     1321       13                    (with a caveat) to VDP$RWRITE.  If the caller of
     1322       14                    VDA$PFLUSH is the Presenter, %FROM_PRESENTER should be
     1323       15                    passed; this tells VDP$RWRITE not to update the current
     1324       16                    window.
     1325       17            INPUT:
     1326       18                VD_$STRIP_BLANKS must contain 0 for "don't strip trailing blanks"
     1327       19                    or >0 for "strip all trailing blanks".
     1328       20                VD_$MIN_RECORD must contain the minimum number of bytes
     1329       21                    allowed in a record.  Must be between 0 and VD_$MAX_RECORD.V#,
     1330       22                    inclusive.
     1331       23                VD_$MAX_RECORD must contain the maximum number of bytes
     1332       24                    allowed in a record.  Must be between VD_$MIN_RECORD.V#
     1333       25                    and %MXNB_REC_DATA, inclusive.
     1334       26                VD_$PAD - A VD$BUFFER containing the pad byte(s) to use to extend
     1335       27                    short records.  VD_$PAD's value may be longer than one byte,
     1336       28                    but must be at least one byte long.
     1337       29            OUTPUT:
     1338       30                PORT.LEVEL.SPEC_MODIFIEDs and .DATA_MODIFIEDs will be reset.
     1339       31                For internal files, PORT.LEVEL.INTERNAL$'s VD$FILE_NODE.DESC.SPEC and
     1340       32                    .DATA$ may be altered.
     1341       33                VDP$RWRITE will be called with any changed nodes.
     1342       34            DESCRIPTION:
     1343       35                Loop thru the Port's level-registers, looking for modified
     1344       36                node components.  When we find one:
PL6.E3A0      #003=VDA$PFLUSH File=VDA$PORT.:VDA5TSI                             FRI 07/04/97 11:07 Page:192
     1345       37                o Write the change to the file.  For an internal file,
     1346       38                    VDA$LWRITE has already (inserted and) written the
     1347       39                    node to the file, so we do nothing for internal files.
     1348       40                    For an external file, we M$WRITE with KEYS and
     1349       41                    ONEWKEY=YES (write to file whether key already
     1350       42                    exists or not).
     1351       43                o Call VDP$RWRITE to inform the Presenter of the change.
     1352       44                    Include just enough keys in the VD$LOCATION we pass
     1353       45                    to indicate the level of the node in the file structure.
     1354       46                    If we were called by the Presenter (FROM_PRESENTER set)
     1355       47                    and we didn't change the node's Data component (as
     1356       48                    specified by $MIN_RECORD, $MAX_RECORD, and $STRIP_BLANKS),
     1357       49                    then pass %FROM_PRESENTER on to VDP$RWRITE.  Otherwise,
     1358       50                    pass %TO_PRESENTER on to VDP$RWRITE:  this will force
     1359       51                    the Presenter to update all windows containing the node,
     1360       52                    even the current one.  We want to do this 'cause we
     1361       53                    changed the node from what the user sent to the Pres'r;
     1362       54                    we show the change to the user by updating the window
     1363       55                    with the new Data component.
     1364       56        */
     1365       57
     1366       58        VDA$PFLUSH: PROC (PORT, FROM_PRESENTER) ALTRET;

     58  2 000000   000000 700200 xent  VDA$PFLUSH   TSX0  ! X66_AUTO_2
         2 000001   000060 000002                    ZERO    48,2

     1367       59
     1368       60
     1369       61        %INCLUDE VD_MACROS_M;
     1370     2276        %INCLUDE VD_PERR_C;
     1371     2424        %INCLUDE CP_6;
     1372     2505        %INCLUDE B_ERRORS_C;
     1373     3631        %INCLUDE B$TABLES_C;
     1374     3739
     1375     3740
     1376     3741        %VD$PORT (NAME=PORT, STCLASS=PARAM);
     1377     3839    1   DCL FROM_PRESENTER BIT(1) ALIGNED;
PL6.E3A0      #003=VDA$PFLUSH File=VDA$PORT.:VDA5TSI                             FRI 07/04/97 11:07 Page:193
     1378     3840
     1379     3841
     1380     3842    1   DCL VDP$RWRITE          ENTRY (5) ALTRET;
     1381     3843    1   DCL VDG$OALLOC          ENTRY (3) ALTRET;
     1382     3844    1   DCL VDG$OFREE           ENTRY (1) ALTRET;
     1383     3845    1   DCL VDG$MACC_PFLUSH     ENTRY (2);
     1384     3846    1   DCL VDG$MACC_PFLUSH_WRITE ENTRY (3);
     1385     3847    1   DCL VDG$MACC_PFLUSH_REWRITE ENTRY (2);
     1386     3848    1   DCL VDG$MACC_PRETURN    ENTRY (1);
     1387     3849
     1388     3850
     1389     3851        %VD$NUMBER (NAME=VD_$$MON_ACC, STCLASS=SYMREF);
     1390     3896        %VD$NUMBER (NAME=VD_$MAX_RECORD, STCLASS=SYMREF);
     1391     3941        %VD$NUMBER (NAME=VD_$MIN_RECORD, STCLASS=SYMREF);
     1392     3986        %VD$BUFFER (NAME=VD_$PAD, STCLASS=SYMREF);
     1393     4044        %VD$NUMBER (NAME=VD_$STRIP_BLANKS, STCLASS=SYMREF);
     1394     4089    1   DCL B$TCB$ PTR SYMREF;
     1395     4090
     1396     4091
     1397     4092        %B$SR_NON_BLANK;
     1398     4096        %FPT_WRITE (FPTN=CONST_FPT_WRITE, STCLASS=CONSTANT, ONEWKEY=YES);
     1399     4127
     1400     4128
     1401     4129
     1402     4130    1   DCL HAD_ERROR BIT(1) ALIGNED;
     1403     4131    1   DCL STRUCTURE_NODE$ PTR;
     1404     4132        %VD$LOCATION (NAME=CURR_LOCATION, STCLASS=AUTO); /* Doesn't own objects */
     1405     4160    1   DCL LEVEL SBIN;
     1406     4161    1   DCL CANT_WRITE_THIS_LEVEL BIT(1) ALIGNED;
     1407     4162    1   DCL CHANGED_DATA BIT(1) ALIGNED;
     1408     4163    1   DCL STILL_FROM_PRESENTER BIT(1) ALIGNED;
     1409     4164    1   DCL SPEC_TO_PASS$ PTR;
     1410     4165    1   DCL BUFFER_TO_PASS$ PTR;
     1411     4166    1   DCL VD_ERR$ PTR;
     1412     4167
     1413     4168
     1414     4169        %VD$FILE_NODE (NAME=STRUCTURE$NODE, STCLASS="BASED(STRUCTURE_NODE$)");
PL6.E3A0      #003=VDA$PFLUSH File=VDA$PORT.:VDA5TSI                             FRI 07/04/97 11:07 Page:194
     1415     4262        %VD$SPEC (NAME=SPEC$TO_PASS, STCLASS="BASED(SPEC_TO_PASS$)");
     1416     4276        %VD$BUFFER (NAME=BUFFER$TO_PASS, STCLASS="BASED(BUFFER_TO_PASS$)");
     1417     4334        %VD$BUFFER;
     1418     4392        %VD$BUFFER_HEADER;
     1419     4428        %VD$FILE_NODE;
     1420     4521        %VD$TEXTC_REMOTE;
     1421     4582        %VD$ERR (NAME=VD$ERR, STCLASS="BASED(VD_ERR$)");
     1422     4635        %B$TCB (NAME=B$TCB, STCLASS="BASED(B$TCB$)");
     1423     4638        %B$ALT;
     1424     4646
     1425     4647
     1426     4648
     1427     4649    1           HAD_ERROR = %FALSE;

   4649  2 000002   200005 450100                    STZ     HAD_ERROR,,AUTO

     1428     4650    1           IF VD_$$MON_ACC.V# > 0 THEN

   4650  2 000003   000003 235000 xsym               LDA     VD_$$MON_ACC+3
         2 000004   000011 604400 2                  TMOZ    s:4653

     1429     4651    1              CALL VDG$MACC_PFLUSH (PORT, FROM_PRESENTER);

   4651  2 000005   200003 630500                    EPPR0   @PORT,,AUTO
         2 000006   000020 631400 xsym               EPPR1   B_VECTNIL+16
         2 000007   000000 701000 xent               TSX1    VDG$MACC_PFLUSH
         2 000010   000000 011000                    NOP     0

     1430     4652
     1431     4653    1           STRUCTURE_NODE$ = PORT.STRUCTURE$;

   4653  2 000011   200003 470500                    LDP0    @PORT,,AUTO
         2 000012   000006 236100                    LDQ     6,,PR0
         2 000013   200006 756100                    STQ     STRUCTURE_NODE$,,AUTO

     1432     4654    1           CURR_LOCATION = PORT.CURRENT;

PL6.E3A0      #003=VDA$PFLUSH File=VDA$PORT.:VDA5TSI                             FRI 07/04/97 11:07 Page:195
   4654  2 000014   000100 100500                    MLR     fill='000'O
         2 000015   000012 000044                    ADSC9   10,,PR0                  cn=0,n=36
         2 000016   200007 000044                    ADSC9   CURR_LOCATION,,AUTO      cn=0,n=36

     1433     4655
     1434     4656                /*
     1435     4657                *   EACH_LEVEL loops backward up thru the levels so we
     1436     4658                *       can start out with CURR_LOCATION, then as we
     1437     4659                *       move up the levels just %CLEAR-out a key in
     1438     4660                *       CURR_LOCATION.
     1439     4661                */
     1440     4662    1   EACH_LEVEL:
     1441     4663    2           DO LEVEL = STRUCTURE$NODE.COUNT# - 1 DOWNTO %LVL_LOWER;

   4663  2 000017   200006 471500       EACH_LEVEL   LDP1    STRUCTURE_NODE$,,AUTO
         2 000020   100014 235100                    LDA     12,,PR1
         2 000021   000001 135007                    SBLA    1,DL
         2 000022   200020 755100                    STA     LEVEL,,AUTO
         2 000023   000155 710000 2                  TRA     s:4703+2

     1442     4664    2              IF PORT.LEVEL.SPEC_MODIFIED (LEVEL)

   4664  2 000024   200020 236100                    LDQ     LEVEL,,AUTO
         2 000025   000007 402007                    MPY     7,DL
         2 000026   200003 470500                    LDP0    @PORT,,AUTO
         2 000027   000030 234106                    SZN     24,QL,PR0
         2 000030   000034 604000 2                  TMI     SOMETHINGS_BEEN_MODIFIED
         2 000031   000030 236106                    LDQ     24,QL,PR0
         2 000032   200000 316003                    CANQ    65536,DU
         2 000033   000147 600000 2                  TZE     s:4702

     1443     4665    2                OR PORT.LEVEL.DATA_MODIFIED (LEVEL) THEN
     1444     4666    3   SOMETHINGS_BEEN_MODIFIED: DO;

   4666  2 000034                       SOMETHINGS_* null
     1445     4667    3                 CHANGED_DATA = %FALSE;

PL6.E3A0      #003=VDA$PFLUSH File=VDA$PORT.:VDA5TSI                             FRI 07/04/97 11:07 Page:196
   4667  2 000034   200022 450100                    STZ     CHANGED_DATA,,AUTO

     1446     4668    4                 IF PORT.LEVEL.DATA_MODIFIED (LEVEL) THEN DO;

   4668  2 000035   200020 236100                    LDQ     LEVEL,,AUTO
         2 000036   000007 402007                    MPY     7,DL
         2 000037   000030 236106                    LDQ     24,QL,PR0
         2 000040   200000 316003                    CANQ    65536,DU
         2 000041   000046 600000 2                  TZE     s:4672

     1447     4669    4                    CALL NORMALIZE_DATA (CHANGED_DATA)

   4669  2 000042   200022 631500                    EPPR1   CHANGED_DATA,,AUTO
         2 000043   200031 451500                    STP1    VD_ERR$+3,,AUTO
         2 000044   000172 701000 2                  TSX1    NORMALIZE_DATA
         2 000045   000171 702000 2                  TSX2    NORMALIZE_DATA_FAILED

     1448     4670    4                      ALTRET (NORMALIZE_DATA_FAILED);
     1449     4671    4                    END;

     1450     4672    3                 CANT_WRITE_THIS_LEVEL = %FALSE;

   4672  2 000046   200021 450100                    STZ     CANT_WRITE_THIS_LEVEL,,AUTO

     1451     4673    4                 IF PORT.DCB# ~= 0 THEN DO;

   4673  2 000047   200003 470500                    LDP0    @PORT,,AUTO
         2 000050   000004 720100                    LXL0    4,,PR0
         2 000051   000060 600000 2                  TZE     s:4681

     1452     4674    4                    CALL EXTERNAL_MODIFIED

   4674  2 000052   000562 701000 2                  TSX1    EXTERNAL_MODIFIED
         2 000053   000055 702000 2                  TSX2    s:4676
         2 000054   000060 710000 2                  TRA     s:4681

     1453     4675    5                    WHENALTRETURN DO;
PL6.E3A0      #003=VDA$PFLUSH File=VDA$PORT.:VDA5TSI                             FRI 07/04/97 11:07 Page:197

     1454     4676    5                       CANT_WRITE_THIS_LEVEL = %TRUE;

   4676  2 000055   400000 236003                    LDQ     -131072,DU
         2 000056   200021 756100                    STQ     CANT_WRITE_THIS_LEVEL,,AUTO

     1455     4677    5                       HAD_ERROR = %TRUE;

   4677  2 000057   200005 756100                    STQ     HAD_ERROR,,AUTO

     1456     4678    5                       END;

     1457     4679    4                    END;

     1458     4680
     1459     4681    4                 IF NOT CANT_WRITE_THIS_LEVEL THEN DO;

   4681  2 000060   200021 234100                    SZN     CANT_WRITE_THIS_LEVEL,,AUTO
         2 000061   000137 604000 2                  TMI     s:4699

     1460     4682                         /* Tell the Presenter about the new node */
     1461     4683    4                    IF PORT.LEVEL.SPEC_MODIFIED (LEVEL) THEN

   4683  2 000062   200020 236100                    LDQ     LEVEL,,AUTO
         2 000063   000007 402007                    MPY     7,DL
         2 000064   200003 470500                    LDP0    @PORT,,AUTO
         2 000065   000030 234106                    SZN     24,QL,PR0
         2 000066   000075 605000 2                  TPL     s:4686

     1462     4684    4                       SPEC_TO_PASS$ = ADDR(PORT.LEVEL.SPEC (LEVEL));

   4684  2 000067   200020 236100                    LDQ     LEVEL,,AUTO
         2 000070   000007 402003                    MPY     7,DU
         2 000071   000025 036003                    ADLQ    21,DU
         2 000072   200003 036100                    ADLQ    @PORT,,AUTO
         2 000073   200024 756100                    STQ     SPEC_TO_PASS$,,AUTO
         2 000074   000077 710000 2                  TRA     s:4687
PL6.E3A0      #003=VDA$PFLUSH File=VDA$PORT.:VDA5TSI                             FRI 07/04/97 11:07 Page:198

     1463     4685    4                    ELSE
     1464     4686    4                       SPEC_TO_PASS$ = ADDR(NIL);

   4686  2 000075   000001 236000 xsym               LDQ     B_VECTNIL+1
         2 000076   200024 756100                    STQ     SPEC_TO_PASS$,,AUTO

     1465     4687    4                    IF PORT.LEVEL.DATA_MODIFIED (LEVEL) THEN

   4687  2 000077   200020 236100                    LDQ     LEVEL,,AUTO
         2 000100   000007 402007                    MPY     7,DL
         2 000101   000030 236106                    LDQ     24,QL,PR0
         2 000102   200000 316003                    CANQ    65536,DU
         2 000103   000111 600000 2                  TZE     s:4690

     1466     4688    4                       BUFFER_TO_PASS$ = PORT.LEVEL.DATA$ (LEVEL);

   4688  2 000104   200020 236100                    LDQ     LEVEL,,AUTO
         2 000105   000007 402007                    MPY     7,DL
         2 000106   000027 236106                    LDQ     23,QL,PR0
         2 000107   200025 756100                    STQ     BUFFER_TO_PASS$,,AUTO
         2 000110   000113 710000 2                  TRA     s:4691

     1467     4689    4                    ELSE
     1468     4690    4                       BUFFER_TO_PASS$ = ADDR(NIL);

   4690  2 000111   000001 236000 xsym               LDQ     B_VECTNIL+1
         2 000112   200025 756100                    STQ     BUFFER_TO_PASS$,,AUTO

     1469     4691    4                    STILL_FROM_PRESENTER = FROM_PRESENTER;

   4691  2 000113   200004 471500                    LDP1    @FROM_PRESENTER,,AUTO
         2 000114   100000 236100                    LDQ     0,,PR1
         2 000115   400000 376003                    ANQ     -131072,DU
         2 000116   200023 756100                    STQ     STILL_FROM_PRESENTER,,AUTO

     1470     4692    4                    IF CHANGED_DATA THEN
PL6.E3A0      #003=VDA$PFLUSH File=VDA$PORT.:VDA5TSI                             FRI 07/04/97 11:07 Page:199

   4692  2 000117   200022 234100                    SZN     CHANGED_DATA,,AUTO
         2 000120   000122 605000 2                  TPL     s:4694

     1471     4693    4                       STILL_FROM_PRESENTER = %TO_PRESENTER;

   4693  2 000121   200023 450100                    STZ     STILL_FROM_PRESENTER,,AUTO

     1472     4694    4                    CALL VDP$RWRITE (PORT.FILE_KEY, CURR_LOCATION,

   4694  2 000122   200023 633500                    EPPR3   STILL_FROM_PRESENTER,,AUTO
         2 000123   200056 453500                    STP3    ERR_CODE+6,,AUTO
         2 000124   200024 237100                    LDAQ    SPEC_TO_PASS$,,AUTO
         2 000125   200054 757100                    STAQ    ERR_CODE+4,,AUTO
         2 000126   200007 634500                    EPPR4   CURR_LOCATION,,AUTO
         2 000127   200053 454500                    STP4    ERR_CODE+3,,AUTO
         2 000130   200003 236100                    LDQ     @PORT,,AUTO
         2 000131   000010 036003                    ADLQ    8,DU
         2 000132   200052 756100                    STQ     ERR_CODE+2,,AUTO
         2 000133   200052 630500                    EPPR0   ERR_CODE+2,,AUTO
         2 000134   000023 631400 xsym               EPPR1   B_VECTNIL+19
         2 000135   000000 701000 xent               TSX1    VDP$RWRITE
         2 000136   000171 702000 2                  TSX2    NORMALIZE_DATA_FAILED

     1473     4695    4                      SPEC$TO_PASS, BUFFER$TO_PASS, STILL_FROM_PRESENTER)
     1474     4696    4                      ALTRET (RWRITE_FAILED);
     1475     4697    4                    END;

     1476     4698
     1477     4699    3                 PORT.LEVEL.SPEC_MODIFIED (LEVEL) = %FALSE;

   4699  2 000137   200020 236100                    LDQ     LEVEL,,AUTO
         2 000140   000007 402007                    MPY     7,DL
         2 000141   200003 470500                    LDP0    @PORT,,AUTO
         2 000142   000000 620006                    EAX0    0,QL
         2 000143   000031 236000 xsym               LDQ     B_VECTNIL+25
         2 000144   000030 356110                    ANSQ    24,X0,PR0
PL6.E3A0      #003=VDA$PFLUSH File=VDA$PORT.:VDA5TSI                             FRI 07/04/97 11:07 Page:200

     1478     4700    3                 PORT.LEVEL.DATA_MODIFIED (LEVEL) = %FALSE;

   4700  2 000145   000000 236000 3                  LDQ     0
         2 000146   000030 356110                    ANSQ    24,X0,PR0

     1479     4701    3                 END SOMETHINGS_BEEN_MODIFIED;

     1480     4702    2              CURR_LOCATION.KEY (LEVEL-1) = %CLEAR;

   4702  2 000147   200020 235100                    LDA     LEVEL,,AUTO
         2 000150   000001 735000                    ALS     1
         2 000151   200005 450105                    STZ     HAD_ERROR,AL,AUTO
         2 000152   200006 450105                    STZ     STRUCTURE_NODE$,AL,AUTO

     1481     4703    2              END EACH_LEVEL;

   4703  2 000153   000001 336007                    LCQ     1,DL
         2 000154   200020 056100                    ASQ     LEVEL,,AUTO
         2 000155   200020 235100                    LDA     LEVEL,,AUTO
         2 000156   000024 605400 2                  TPNZ    s:4664

     1482     4704
     1483     4705    1           IF HAD_ERROR THEN

   4705  2 000157   200005 234100                    SZN     HAD_ERROR,,AUTO
         2 000160   000162 605000 2                  TPL     s:4708

     1484     4706    1              ALTRETURN;

   4706  2 000161   000000 702200 xent               TSX2  ! X66_AALT

     1485     4707
     1486     4708    1           IF VD_$$MON_ACC.V# > 0 THEN

   4708  2 000162   000003 236000 xsym               LDQ     VD_$$MON_ACC+3
         2 000163   000170 604400 2                  TMOZ    s:4710
PL6.E3A0      #003=VDA$PFLUSH File=VDA$PORT.:VDA5TSI                             FRI 07/04/97 11:07 Page:201

     1487     4709    1              CALL VDG$MACC_PRETURN (PORT);

   4709  2 000164   200003 630500                    EPPR0   @PORT,,AUTO
         2 000165   000017 631400 xsym               EPPR1   B_VECTNIL+15
         2 000166   000000 701000 xent               TSX1    VDG$MACC_PRETURN
         2 000167   000000 011000                    NOP     0

     1488     4710    1           RETURN;

   4710  2 000170   000000 702200 xent               TSX2  ! X66_ARET

   4708  2 000171                       NORMALIZE_D* null
   4708  2 000171                       EXTERNAL_MO* null
   4708  2 000171                       RWRITE_FAIL* null
     1489     4711
     1490     4712
     1491     4713    1   NORMALIZE_DATA_FAILED: ;
     1492     4714    1   EXTERNAL_MODIFIED_FAILED: ;
     1493     4715    1   RWRITE_FAILED: ;
     1494     4716    1           ALTRETURN;

   4716  2 000171   000000 702200 xent               TSX2  ! X66_AALT

     1495     4717
     1496     4718                %BOX (TITLE=NORMALIZE_DATA, PAGE=YES);
              4726    1
              4730    1   /***************************************************************************
              4732    1    *                                                                         *
              4736    1            *                               NORMALIZE_DATA                           *
              4738    1            *                                                                        *
              4740    1          ***************************************************************************/

     1497     4744
     1498     4745        /*I* NAME: NORMALIZE_DATA
     1499     4746            PARAMETERS:
     1500     4747                CHANGED_RECORD - Uninitialized BIT(1) ALIGNED.
PL6.E3A0      #003=VDA$PFLUSH File=VDA$PORT.:VDA5TSI                             FRI 07/04/97 11:07 Page:202
     1501     4748            INPUT:
     1502     4749                PORT - Same as for external routine.  Must be open to
     1503     4750                    either an internal or external file whose Data
     1504     4751                    component has been modified at LEVEL.
     1505     4752                LEVEL - Level # in PORT at which we found modified
     1506     4753                    Data component.
     1507     4754                PORT.LEVEL.INTERNAL$ (LEVEL) - If the file is internal, this
     1508     4755                    must point to the VD$FILE_NODE for the node.
     1509     4756            OUTPUT:
     1510     4757                If PORT.LEVEL.DATA$'s buffer contents are changed at all
     1511     4758                    by this routine, CHANGED_RECORD will be %TRUE; else
     1512     4759                    CHANGED_RECORD will be %FALSE.
     1513     4760                The PORT.LEVEL.DATA$ pointer may be changed, if we must
     1514     4761                    free the old buffer and allocate a new one.  In such a
     1515     4762                    case, if the file is internal we'll also change the
     1516     4763                    VD$FILE_NODE.DESC.DATA$ pointer.
     1517     4764                PORT.LEVEL.DATA$'s buffer contents may be changed.
     1518     4765            DESCRIPTION:
     1519     4766                If the file is predefined, just return:  the name-controlled
     1520     4767                    normalizing we do is for user data files only.
     1521     4768                If the $STRIP_BLANKS predefined name has been set on, we'll
     1522     4769                    first strip all trailing blanks from the buffer.
     1523     4770                We'll normalize the length of the buffer, padding/stripping
     1524     4771                    it to be between $MIN_RECORD and $MAX_RECORD,
     1525     4772                    inclusive.  If padding is needed, $PAD will be used as
     1526     4773                    the pad byte(s).
     1527     4774                    Note that if the record has the VFC attribute set (external data
     1528     4775                    records only), then the minimum record length is 1 no matter
     1529     4776                    what the user says (star 22377), and $PAD is ignored:  a VFC
     1530     4777                    char of 'A' is used.  Also that consec file records will always be
     1531     4778                    padded or truncated to the same length as any previous record.
     1532     4779        */
     1533     4780
     1534     4781    1   NORMALIZE_DATA: PROC (CHANGED_RECORD) ALTRET;

   4781  2 000172   200030 741300       NORMALIZE_D* STX1  ! VD_ERR$+2,,AUTO

PL6.E3A0      #003=VDA$PFLUSH File=VDA$PORT.:VDA5TSI                             FRI 07/04/97 11:07 Page:203
     1535     4782
     1536     4783
     1537     4784    2   DCL CHANGED_RECORD BIT(1) ALIGNED;
     1538     4785
     1539     4786
     1540     4787
     1541     4788    2   DCL DATA_BUFFER$ PTR;
     1542     4789    2   DCL T$ PTR; /* pointer for use as an argument */
     1543     4790    2   DCL NON_BLANK_INDEX SBIN;
     1544     4791    2   DCL TABLE_VAL SBIN;
     1545     4792    2   DCL MIN_RECORD UBIN;
     1546     4793    2   DCL TEXTC_DVBYTE$ PTR;
     1547     4794    2   DCL RECORD_NEEDS_VFC BIT(1) ALIGNED;
     1548     4795    2   DCL PAD_POINT SBIN;
     1549     4796    2   DCL NEW_NW SBIN;
     1550     4797    2   DCL I SBIN;
     1551     4798
     1552     4799
     1553     4800        %VD$BUFFER (NAME=DATA$BUFFER, STCLASS="BASED(DATA_BUFFER$)");
     1554     4858    2   DCL 1 TEXTC$DVBYTE BASED(TEXTC_DVBYTE$) ALIGNED,
     1555     4859    2         2 LENGTH# UBIN BYTE CALIGNED,
     1556     4860    2         2 TOP BIT(1),
     1557     4861    2         2 * BIT(1),
     1558     4862    2         2 VFC BIT(1),
     1559     4863    2         2 BIN BIT(1),
     1560     4864    2         2 TRANS BIT(1),
     1561     4865    2         2 * BIT(4);
     1562     4866        %F$DCB;
     1563     4923
     1564     4924
     1565     4925
     1566     4926    2           CHANGED_RECORD = %FALSE;

   4926  2 000173   200031 470500                    LDP0    @CHANGED_RECORD,,AUTO
         2 000174   000000 450100                    STZ     0,,PR0

     1567     4927    2           IF PORT.LEVEL.SPEC_TYPE# (LEVEL) ~= 0
PL6.E3A0      #003=VDA$PFLUSH File=VDA$PORT.:VDA5TSI                             FRI 07/04/97 11:07 Page:204

   4927  2 000175   200020 236100                    LDQ     LEVEL,,AUTO
         2 000176   000007 402007                    MPY     7,DL
         2 000177   200003 471500                    LDP1    @PORT,,AUTO
         2 000200   100024 220106                    LDX0    20,QL,PR1
         2 000201   000206 600000 2                  TZE     s:4937
         2 000202   000001 100003                    CMPX0   1,DU
         2 000203   000206 600000 2                  TZE     s:4937

     1568     4928    2             AND PORT.LEVEL.SPEC_TYPE# (LEVEL) ~= %SPT_EXT_RECORD THEN
     1569     4929    2              RETURN;

   4929  2 000204   200030 221300                    LDX1  ! VD_ERR$+2,,AUTO
         2 000205   000001 702211                    TSX2  ! 1,X1

     1570     4930                /*
     1571     4931                *N* The above test does not screen out predefined scratch
     1572     4932                *N* files.  To fix #27741, all internal files are screened out
     1573     4933                *N* since, currently, only predefined files are internal.  If
     1574     4934                *N* this ever changes, a better test must be devised.  Code
     1575     4935                *N* below to handle internal files is retained for this reason.
     1576     4936                */
     1577     4937    2           IF PORT.DCB# = 0 THEN

   4937  2 000206   100004 721100                    LXL1    4,,PR1
         2 000207   000212 601000 2                  TNZ     s:4940

     1578     4938    2              RETURN;

   4938  2 000210   200030 221300                    LDX1  ! VD_ERR$+2,,AUTO
         2 000211   000001 702211                    TSX2  ! 1,X1

     1579     4939
     1580     4940    2           DATA_BUFFER$ = PORT.LEVEL.DATA$ (LEVEL);

   4940  2 000212   100027 236106                    LDQ     23,QL,PR1
         2 000213   200032 756100                    STQ     DATA_BUFFER$,,AUTO
PL6.E3A0      #003=VDA$PFLUSH File=VDA$PORT.:VDA5TSI                             FRI 07/04/97 11:07 Page:205

     1581     4941
     1582     4942                /*
     1583     4943                *   Strip trailing blanks if requested.
     1584     4944                */
     1585     4945
     1586     4946    3           IF VD_$STRIP_BLANKS.V# > 0 AND DATA$BUFFER.LENGTH# > 0 THEN DO;

   4946  2 000214   000003 235000 xsym               LDA     VD_$STRIP_BLANKS+3
         2 000215   000257 604400 2                  TMOZ    s:4961
         2 000216   200032 473500                    LDP3    DATA_BUFFER$,,AUTO
         2 000217   300002 220100                    LDX0    2,,PR3
         2 000220   000257 604400 2                  TMOZ    s:4961

     1587     4947    3              CALL SEARCHR (NON_BLANK_INDEX, TABLE_VAL, B$SR_NON_BLANK,

   4947  2 000221   000000 636010                    EAQ     0,X0
         2 000222   000022 732000                    QRS     18
         2 000223   000000 474400 xsym               LDP4    B$SR_NON_BLANK$
         2 000224   000000 165540                    TCTR
         2 000225   300002 400010                    ADSC9   2,,PR3                   cn=2,n=*X0
         2 000226   400000 000100                    ARG     0,,PR4
         2 000227   200034 000100                    ARG     NON_BLANK_INDEX,,AUTO
         2 000230   200034 235100                    LDA     NON_BLANK_INDEX,,AUTO
         2 000231   000033 771000                    ARL     27
         2 000232   200035 755100                    STA     TABLE_VAL,,AUTO
         2 000233   200034 551140                    STBA    NON_BLANK_INDEX,'40'O,AUTO
         2 000234   000237 606400 2                  TTN     s:4949
         2 000235   200034 054100                    AOS     NON_BLANK_INDEX,,AUTO
         2 000236   200034 156100                    SSQ     NON_BLANK_INDEX,,AUTO

     1588     4948    3                DATA$BUFFER.BYTES);
     1589     4949    3              IF TABLE_VAL = 0 THEN

   4949  2 000237   000000 115003                    CMPA    0,DU
         2 000240   000243 601000 2                  TNZ     s:4951

PL6.E3A0      #003=VDA$PFLUSH File=VDA$PORT.:VDA5TSI                             FRI 07/04/97 11:07 Page:206
     1590     4950    3                 NON_BLANK_INDEX = -1; /* No non-blank in rec */

   4950  2 000241   000001 336007                    LCQ     1,DL
         2 000242   200034 756100                    STQ     NON_BLANK_INDEX,,AUTO

     1591     4951    4              IF NON_BLANK_INDEX + 1 ~= DATA$BUFFER.LENGTH# THEN DO;

   4951  2 000243   300002 236100                    LDQ     2,,PR3
         2 000244   000022 732000                    QRS     18
         2 000245   200052 756100                    STQ     ERR_CODE+2,,AUTO
         2 000246   200034 236100                    LDQ     NON_BLANK_INDEX,,AUTO
         2 000247   000001 036007                    ADLQ    1,DL
         2 000250   200052 116100                    CMPQ    ERR_CODE+2,,AUTO
         2 000251   000257 600000 2                  TZE     s:4961

     1592     4952    4                 CHANGED_RECORD = %TRUE;

   4952  2 000252   400000 236003                    LDQ     -131072,DU
         2 000253   000000 756100                    STQ     0,,PR0

     1593     4953    4                 DATA$BUFFER.LENGTH# = NON_BLANK_INDEX + 1;

   4953  2 000254   200034 720100                    LXL0    NON_BLANK_INDEX,,AUTO
         2 000255   000001 621010                    EAX1    1,X0
         2 000256   300002 741100                    STX1    2,,PR3

     1594     4954    4                 END;

     1595     4955    3              END;

     1596     4956
     1597     4957                /*
     1598     4958                * make sure CONSEC files get blanked out properly, and that the
     1599     4959                * display shows their truncation if that occurs.
     1600     4960                */
     1601     4961    3           IF PORT.LEVEL.ORG# (%LVL_EXT_REC) = %ORG_CONSEC THEN DO;

PL6.E3A0      #003=VDA$PFLUSH File=VDA$PORT.:VDA5TSI                             FRI 07/04/97 11:07 Page:207
   4961  2 000257   100032 220100                    LDX0    26,,PR1
         2 000260   000001 100003                    CMPX0   1,DU
         2 000261   000305 601000 2                  TNZ     s:4968

     1602     4962    3              MIN_RECORD = DCBADDR (PORT.DCB#) -> F$DCB.ARS#;

   4962  2 000262   000001 473400 3                  LDP3    1
         2 000263   300000 474500                    LDP4    0,,PR3
         2 000264   100004 721100                    LXL1    4,,PR1
         2 000265   400000 475511                    LDP5    0,X1,PR4
         2 000266   500000 235100                    LDA     0,,PR5
         2 000267   200036 755100                    STA     MIN_RECORD,,AUTO

     1603     4963    3              IF MIN_RECORD = 0 THEN EXIT;

   4963  2 000270   000304 600000 2                  TZE     s:4967

     1604     4964    3              IF DATA$BUFFER.LENGTH# <= MIN_RECORD THEN EXIT;

   4964  2 000271   200032 476500                    LDP6    DATA_BUFFER$,,AUTO
         2 000272   600002 236100                    LDQ     2,,PR6
         2 000273   000022 732000                    QRS     18
         2 000274   000304 604000 2                  TMI     s:4967
         2 000275   200036 116100                    CMPQ    MIN_RECORD,,AUTO
         2 000276   000304 602000 2                  TNC     s:4967
         2 000277   000304 600000 2                  TZE     s:4967

     1605     4965    3              CHANGED_RECORD = %TRUE;

   4965  2 000300   400000 236003                    LDQ     -131072,DU
         2 000301   000000 756100                    STQ     0,,PR0

     1606     4966    3              DATA$BUFFER.LENGTH# = MIN_RECORD;

   4966  2 000302   000000 620005                    EAX0    0,AL
         2 000303   600002 740100                    STX0    2,,PR6

PL6.E3A0      #003=VDA$PFLUSH File=VDA$PORT.:VDA5TSI                             FRI 07/04/97 11:07 Page:208
     1607     4967    3              END;

   4967  2 000304   000307 710000 2                  TRA     s:4973

     1608     4968    2           ELSE MIN_RECORD = VD_$MIN_RECORD.V#;

   4968  2 000305   000003 235000 xsym               LDA     VD_$MIN_RECORD+3
         2 000306   200036 755100                    STA     MIN_RECORD,,AUTO

     1609     4969
     1610     4970                /*
     1611     4971                *   Truncate long data to maximum length.
     1612     4972                */
     1613     4973    3           IF DATA$BUFFER.LENGTH# > VD_$MAX_RECORD.V# THEN DO;

   4973  2 000307   200032 473500                    LDP3    DATA_BUFFER$,,AUTO
         2 000310   300002 236100                    LDQ     2,,PR3
         2 000311   000022 732000                    QRS     18
         2 000312   000003 116000 xsym               CMPQ    VD_$MAX_RECORD+3
         2 000313   000320 604400 2                  TMOZ    s:4983

     1614     4974    3              CHANGED_RECORD = %TRUE;

   4974  2 000314   400000 236003                    LDQ     -131072,DU
         2 000315   000000 756100                    STQ     0,,PR0

     1615     4975    3              DATA$BUFFER.LENGTH# = VD_$MAX_RECORD.V#;

   4975  2 000316   000003 720000 xsym               LXL0    VD_$MAX_RECORD+3
         2 000317   300002 740100                    STX0    2,,PR3

     1616     4976    3              END;

     1617     4977
     1618     4978
     1619     4979                /*
     1620     4980                *   Lengthen short data to minimum length.
PL6.E3A0      #003=VDA$PFLUSH File=VDA$PORT.:VDA5TSI                             FRI 07/04/97 11:07 Page:209
     1621     4981                */
     1622     4982
     1623     4983    2           RECORD_NEEDS_VFC = %FALSE;

   4983  2 000320   200040 450100                    STZ     RECORD_NEEDS_VFC,,AUTO

     1624     4984    3           IF MIN_RECORD < 1 AND PORT.DCB# ~= 0 THEN DO;

   4984  2 000321   200036 235100                    LDA     MIN_RECORD,,AUTO
         2 000322   000353 601000 2                  TNZ     s:5003
         2 000323   100004 720100                    LXL0    4,,PR1
         2 000324   000353 600000 2                  TZE     s:5003

     1625     4985                   %GETSPEC (SPEC=PORT.LEVEL.SPEC, INDX=%LVL_EXT_REC,
     1626     4986                   PTR=TEXTC_DVBYTE$);

   4993  2 000325   100034 721100                    LXL1    28,,PR1
         2 000326   000002 101003                    CMPX1   2,DU
         2 000327   000334 601000 2                  TNZ     s:4993+7

   4993  2 000330   100035 474500                    LDP4    29,,PR1
         2 000331   400002 635500                    EPPR5   2,,PR4
         2 000332   200037 455500                    STP5    TEXTC_DVBYTE$,,AUTO
         2 000333   000337 710000 2                  TRA     s:4996

   4993  2 000334   200003 236100                    LDQ     @PORT,,AUTO
         2 000335   000035 036003                    ADLQ    29,DU
         2 000336   200037 756100                    STQ     TEXTC_DVBYTE$,,AUTO

     1627     4996    4              IF TEXTC$DVBYTE.LENGTH# > 0 THEN DO;

   4996  2 000337   200037 474500                    LDP4    TEXTC_DVBYTE$,,AUTO
         2 000340   400000 236100                    LDQ     0,,PR4
         2 000341   777000 316003                    CANQ    -512,DU
         2 000342   000353 600000 2                  TZE     s:5003

     1628     4997    4                 RECORD_NEEDS_VFC = TEXTC$DVBYTE.VFC;
PL6.E3A0      #003=VDA$PFLUSH File=VDA$PORT.:VDA5TSI                             FRI 07/04/97 11:07 Page:210

   4997  2 000343   400000 236100                    LDQ     0,,PR4
         2 000344   000013 736000                    QLS     11
         2 000345   400000 376003                    ANQ     -131072,DU
         2 000346   200040 756100                    STQ     RECORD_NEEDS_VFC,,AUTO

     1629     4998    4                 IF RECORD_NEEDS_VFC THEN

   4998  2 000347   200040 234100                    SZN     RECORD_NEEDS_VFC,,AUTO
         2 000350   000353 605000 2                  TPL     s:5003

     1630     4999    4                    MIN_RECORD = 1;

   4999  2 000351   000001 235007                    LDA     1,DL
         2 000352   200036 755100                    STA     MIN_RECORD,,AUTO

     1631     5000    4                 END;

     1632     5001    3              END;

     1633     5002
     1634     5003    2           IF DATA$BUFFER.LENGTH# < MIN_RECORD THEN

   5003  2 000353   300002 236100                    LDQ     2,,PR3
         2 000354   000022 732000                    QRS     18
         2 000355   000360 604000 2                  TMI     GUAR_MIN_RECORD
         2 000356   200036 116100                    CMPQ    MIN_RECORD,,AUTO
         2 000357   000556 603000 2                  TRC     s:5054

     1635     5004    3   GUAR_MIN_RECORD: DO;

   5004  2 000360                       GUAR_MIN_RE* null
     1636     5005    3              CHANGED_RECORD = %TRUE;

   5005  2 000360   400000 236003                    LDQ     -131072,DU
         2 000361   000000 756100                    STQ     0,,PR0

PL6.E3A0      #003=VDA$PFLUSH File=VDA$PORT.:VDA5TSI                             FRI 07/04/97 11:07 Page:211
     1637     5006    3              PAD_POINT = DATA$BUFFER.LENGTH#;

   5006  2 000362   300002 236100                    LDQ     2,,PR3
         2 000363   000022 732000                    QRS     18
         2 000364   200041 756100                    STQ     PAD_POINT,,AUTO

     1638     5007    3              NEW_NW = (LENGTHC(VD$BUFFER_HEADER) + MIN_RECORD +

   5007  2 000365   200036 236100                    LDQ     MIN_RECORD,,AUTO
         2 000366   000015 036007                    ADLQ    13,DL
         2 000367   000002 772000                    QRL     2
         2 000370   200042 756100                    STQ     NEW_NW,,AUTO

     1639     5008    3                %(NB_PER_WORD-1)) / %NB_PER_WORD;
     1640     5009    3              IF NEW_NW <= DATA$BUFFER.OBJECT.SIZE# THEN

   5009  2 000371   300000 236100                    LDQ     0,,PR3
         2 000372   000022 736000                    QLS     18
         2 000373   000022 732000                    QRS     18
         2 000374   200042 116100                    CMPQ    NEW_NW,,AUTO
         2 000375   000431 604000 2                  TMI     COPY_TO_NEW_SPACE

     1641     5010    4   FITS_IN_OLD_SPACE: DO;

   5010  2 000376                       FITS_IN_OLD* null
     1642     5011    4                 DATA$BUFFER.LENGTH# = MIN_RECORD;

   5011  2 000376   000000 620005                    EAX0    0,AL
         2 000377   300002 740100                    STX0    2,,PR3

     1643     5012    5                 IF RECORD_NEEDS_VFC THEN DO;

   5012  2 000400   200040 234100                    SZN     RECORD_NEEDS_VFC,,AUTO
         2 000401   000407 605000 2                  TPL     s:5016

     1644     5013    5                    DATA$BUFFER.BYTES = %DFLT_VFC;

PL6.E3A0      #003=VDA$PFLUSH File=VDA$PORT.:VDA5TSI                             FRI 07/04/97 11:07 Page:212
   5013  2 000402   040140 100400                    MLR     fill='040'O
         2 000403   000002 000001 3                  ADSC9   2                        cn=0,n=1
         2 000404   300002 400010                    ADSC9   2,,PR3                   cn=2,n=*X0

     1645     5014    5                    PAD_POINT = %LENGTHC(DFLT_VFC);

   5014  2 000405   000001 235007                    LDA     1,DL
         2 000406   200041 755100                    STA     PAD_POINT,,AUTO

     1646     5015    5                    END;

     1647     5016    4                 IF PAD_POINT < DATA$BUFFER.LENGTH#

   5016  2 000407   300002 236100                    LDQ     2,,PR3
         2 000410   000022 732000                    QRS     18
         2 000411   200041 116100                    CMPQ    PAD_POINT,,AUTO
         2 000412   000527 604400 2                  TMOZ    s:5043
         2 000413   000002 221000 xsym               LDX1    VD_$PAD+2
         2 000414   040000 106440                    CMPC    fill='040'O
         2 000415   000002 400011 xsym               ADSC9   VD_$PAD+2                cn=2,n=*X1
         2 000416   000035 000001 xsym               ADSC9   B_VECTNIL+29             cn=0,n=1
         2 000417   000527 601000 2                  TNZ     s:5043

     1648     5017    5                   AND VD_$PAD.BYTES = %CHR_SPACE THEN DO;

     1649     5018    5                    CALL INSERT (DATA$BUFFER.BYTES, PAD_POINT, , %CHR_SPACE);

   5018  2 000420   000000 636010                    EAQ     0,X0
         2 000421   000022 732000                    QRS     18
         2 000422   200041 136100                    SBLQ    PAD_POINT,,AUTO
         2 000423   000000 622006                    EAX2    0,QL
         2 000424   200041 235100                    LDA     PAD_POINT,,AUTO
         2 000425   040145 100400                    MLR     fill='040'O
         2 000426   000035 000001 xsym               ADSC9   B_VECTNIL+29             cn=0,n=1
         2 000427   300002 400012                    ADSC9   2,A,PR3                  cn=2,n=*X2

     1650     5019    5                    END;
PL6.E3A0      #003=VDA$PFLUSH File=VDA$PORT.:VDA5TSI                             FRI 07/04/97 11:07 Page:213

     1651     5020    4                 END FITS_IN_OLD_SPACE;

   5020  2 000430   000527 710000 2                  TRA     s:5043

     1652     5021    3              ELSE
     1653     5022    4   COPY_TO_NEW_SPACE: DO;

   5022  2 000431                       COPY_TO_NEW* null
     1654     5023    4                 CALL VDG$OALLOC (%CLS_BUFFER, T$, NEW_NW)

   5023  2 000431   200042 634500                    EPPR4   NEW_NW,,AUTO
         2 000432   200054 454500                    STP4    ERR_CODE+4,,AUTO
         2 000433   200033 635500                    EPPR5   T$,,AUTO
         2 000434   200053 455500                    STP5    ERR_CODE+3,,AUTO
         2 000435   000003 236000 3                  LDQ     3
         2 000436   200052 756100                    STQ     ERR_CODE+2,,AUTO
         2 000437   200052 630500                    EPPR0   ERR_CODE+2,,AUTO
         2 000440   000021 631400 xsym               EPPR1   B_VECTNIL+17
         2 000441   000000 701000 xent               TSX1    VDG$OALLOC
         2 000442   000560 702000 2                  TSX2    OALLOC_FAILED

     1655     5024    4                   ALTRET (OALLOC_FAILED);
     1656     5025    4                 DATA_BUFFER$ = T$;

   5025  2 000443   200033 236100                    LDQ     T$,,AUTO
         2 000444   200032 756100                    STQ     DATA_BUFFER$,,AUTO

     1657     5026    4                 DATA$BUFFER.LENGTH# = MIN_RECORD;

   5026  2 000445   200036 720100                    LXL0    MIN_RECORD,,AUTO
         2 000446   200032 470500                    LDP0    DATA_BUFFER$,,AUTO
         2 000447   000002 740100                    STX0    2,,PR0

     1658     5027    5                 IF RECORD_NEEDS_VFC THEN DO;

   5027  2 000450   200040 234100                    SZN     RECORD_NEEDS_VFC,,AUTO
PL6.E3A0      #003=VDA$PFLUSH File=VDA$PORT.:VDA5TSI                             FRI 07/04/97 11:07 Page:214
         2 000451   000475 605000 2                  TPL     s:5033

     1659     5028    5                    CALL CONCAT (DATA$BUFFER.BYTES, %DFLT_VFC,

   5028  2 000452   200020 236100                    LDQ     LEVEL,,AUTO
         2 000453   000007 402007                    MPY     7,DL
         2 000454   200003 471500                    LDP1    @PORT,,AUTO
         2 000455   100027 473506                    LDP3    23,QL,PR1
         2 000456   300002 221100                    LDX1    2,,PR3
         2 000457   040140 100400                    MLR     fill='040'O
         2 000460   000002 000001 3                  ADSC9   2                        cn=0,n=1
         2 000461   000002 400010                    ADSC9   2,,PR0                   cn=2,n=*X0
         2 000462   000000 636010                    EAQ     0,X0
         2 000463   000022 732000                    QRS     18
         2 000464   000001 116007                    CMPQ    1,DL
         2 000465   000472 604400 2                  TMOZ    s:5030
         2 000466   777777 622010                    EAX2    -1,X0
         2 000467   040140 100540                    MLR     fill='040'O
         2 000470   300002 400011                    ADSC9   2,,PR3                   cn=2,n=*X1
         2 000471   000002 600012                    ADSC9   2,,PR0                   cn=3,n=*X2

     1660     5029    5                      PORT.LEVEL.DATA$ (LEVEL) -> VD$BUFFER.BYTES);
     1661     5030    5                    PAD_POINT = %LENGTHC(DFLT_VFC);

   5030  2 000472   000001 235007                    LDA     1,DL
         2 000473   200041 755100                    STA     PAD_POINT,,AUTO

     1662     5031    5                    END;

   5031  2 000474   000505 710000 2                  TRA     s:5035

     1663     5032    4                 ELSE
     1664     5033    4                    DATA$BUFFER.BYTES =

   5033  2 000475   200020 236100                    LDQ     LEVEL,,AUTO
         2 000476   000007 402007                    MPY     7,DL
         2 000477   200003 471500                    LDP1    @PORT,,AUTO
PL6.E3A0      #003=VDA$PFLUSH File=VDA$PORT.:VDA5TSI                             FRI 07/04/97 11:07 Page:215
         2 000500   100027 473506                    LDP3    23,QL,PR1
         2 000501   300002 221100                    LDX1    2,,PR3
         2 000502   040140 100540                    MLR     fill='040'O
         2 000503   300002 400011                    ADSC9   2,,PR3                   cn=2,n=*X1
         2 000504   000002 400010                    ADSC9   2,,PR0                   cn=2,n=*X0

     1665     5034    4                      PORT.LEVEL.DATA$ (LEVEL) -> VD$BUFFER.BYTES;
     1666     5035    4                 CALL VDG$OFREE (PORT.LEVEL.DATA$ (LEVEL) -> VD$BUFFER)

   5035  2 000505   200020 236100                    LDQ     LEVEL,,AUTO
         2 000506   000007 402007                    MPY     7,DL
         2 000507   100027 473506                    LDP3    23,QL,PR1
         2 000510   200052 453500                    STP3    ERR_CODE+2,,AUTO
         2 000511   200052 630500                    EPPR0   ERR_CODE+2,,AUTO
         2 000512   000017 631400 xsym               EPPR1   B_VECTNIL+15
         2 000513   000000 701000 xent               TSX1    VDG$OFREE
         2 000514   000560 702000 2                  TSX2    OALLOC_FAILED

     1667     5036    4                   ALTRET (OFREE_FAILED);
     1668     5037    4                 PORT.LEVEL.DATA$ (LEVEL) = DATA_BUFFER$;

   5037  2 000515   200020 236100                    LDQ     LEVEL,,AUTO
         2 000516   000007 402007                    MPY     7,DL
         2 000517   000000 620006                    EAX0    0,QL
         2 000520   200032 236100                    LDQ     DATA_BUFFER$,,AUTO
         2 000521   200003 470500                    LDP0    @PORT,,AUTO
         2 000522   000027 756110                    STQ     23,X0,PR0

     1669     5038    4                 IF PORT.DCB# = 0 THEN

   5038  2 000523   000004 721100                    LXL1    4,,PR0
         2 000524   000527 601000 2                  TNZ     s:5043

     1670     5039    4                    PORT.LEVEL.INTERNAL$ (LEVEL) -> VD$FILE_NODE.DESC.DATA$ =

   5039  2 000525   000031 471510                    LDP1    25,X0,PR0
         2 000526   100010 756100                    STQ     8,,PR1
PL6.E3A0      #003=VDA$PFLUSH File=VDA$PORT.:VDA5TSI                             FRI 07/04/97 11:07 Page:216

     1671     5040    4                      DATA_BUFFER$;
     1672     5041    4                 END COPY_TO_NEW_SPACE;

     1673     5042
     1674     5043    3              IF VD_$PAD.BYTES ~= %CHR_SPACE THEN

   5043  2 000527   000002 220000 xsym               LDX0    VD_$PAD+2
         2 000530   040000 106440                    CMPC    fill='040'O
         2 000531   000002 400010 xsym               ADSC9   VD_$PAD+2                cn=2,n=*X0
         2 000532   000035 000001 xsym               ADSC9   B_VECTNIL+29             cn=0,n=1
         2 000533   000556 600000 2                  TZE     s:5054

     1675     5044    4   PAD_WITH_NON_BLANK: DO;

   5044  2 000534                       PAD_WITH_NO* null
     1676     5045    5                 DO I = PAD_POINT TO (MIN_RECORD - 1)

   5045  2 000534   200041 235100                    LDA     PAD_POINT,,AUTO
         2 000535   200043 755100                    STA     I,,AUTO
         2 000536   000552 710000 2                  TRA     s:5049+4

     1677     5046    5                   BY VD_$PAD.LENGTH#;
     1678     5047    5                    CALL INSERT (DATA$BUFFER.BYTES, I, VD_$PAD.LENGTH#,

   5047  2 000537   200032 470500                    LDP0    DATA_BUFFER$,,AUTO
         2 000540   000002 220100                    LDX0    2,,PR0
         2 000541   000002 221000 xsym               LDX1    VD_$PAD+2
         2 000542   200043 235100                    LDA     I,,AUTO
         2 000543   040145 100440                    MLR     fill='040'O
         2 000544   000002 400011 xsym               ADSC9   VD_$PAD+2                cn=2,n=*X1
         2 000545   000002 400011                    ADSC9   2,A,PR0                  cn=2,n=*X1

     1679     5048    5                      VD_$PAD.BYTES);
     1680     5049    5                    END;

   5049  2 000546   000002 236000 xsym               LDQ     VD_$PAD+2
PL6.E3A0      #003=VDA$PFLUSH File=VDA$PORT.:VDA5TSI                             FRI 07/04/97 11:07 Page:217
         2 000547   000022 732000                    QRS     18
         2 000550   200043 036100                    ADLQ    I,,AUTO
         2 000551   200043 756100                    STQ     I,,AUTO
         2 000552   200043 236100                    LDQ     I,,AUTO
         2 000553   000537 604000 2                  TMI     s:5047
         2 000554   200036 116100                    CMPQ    MIN_RECORD,,AUTO
         2 000555   000537 602000 2                  TNC     s:5047

     1681     5050    4                 END PAD_WITH_NON_BLANK;

     1682     5051    3              END GUAR_MIN_RECORD;

     1683     5052
     1684     5053
     1685     5054    2           RETURN;

   5054  2 000556   200030 221300                    LDX1  ! VD_ERR$+2,,AUTO
         2 000557   000001 702211                    TSX2  ! 1,X1

   5045  2 000560                       OALLOC_FAIL* null
   5045  2 000560                       OFREE_FAILED null
     1686     5055
     1687     5056
     1688     5057
     1689     5058    2   OALLOC_FAILED: ;
     1690     5059    2   OFREE_FAILED: ;
     1691     5060    2           ALTRETURN;

   5060  2 000560   200030 221300                    LDX1  ! VD_ERR$+2,,AUTO
         2 000561   000000 702211                    TSX2  ! 0,X1

     1692     5061
     1693     5062    2   END NORMALIZE_DATA;
     1694     5063
     1695     5064                %BOX (TITLE=EXTERNAL_MODIFIED, PAGE=YES);
              5072    2
              5076    2   /***************************************************************************
PL6.E3A0      #003=VDA$PFLUSH File=VDA$PORT.:VDA5TSI                             FRI 07/04/97 11:07 Page:218
              5078    2    *                                                                         *
              5082    2            *                             EXTERNAL_MODIFIED                          *
              5084    2            *                                                                        *
              5086    2          ***************************************************************************/

     1696     5090
     1697     5091        /*I* NAME: EXTERNAL_MODIFIED
     1698     5092            PARAMETERS:
     1699     5093                None.
     1700     5094            INPUT:
     1701     5095                PORT - Same as for external routine.
     1702     5096                    Port must be open to an external file whose Spec
     1703     5097                    and/or Data components have been modified at LEVEL.
     1704     5098                LEVEL - Level # in PORT at which we found modified
     1705     5099                    Spec and/or Data components.
     1706     5100            OUTPUT:
     1707     5101            DESCRIPTION:
     1708     5102                Whenever we write out an external record, we write both the
     1709     5103                    Spec and Data components.
     1710     5104        */
     1711     5105
     1712     5106    1   EXTERNAL_MODIFIED: PROC ALTRET;

   5106  2 000562   200030 741300       EXTERNAL_MO* STX1  ! VD_ERR$+2,,AUTO

     1713     5107
     1714     5108
     1715     5109        %FPT_WRITE (FPTN=FPT_WRITE, STCLASS=AUTO);
     1716     5140    2   DCL PORT_KEY$ PTR;
     1717     5141    2   DCL TEXTC_BITS$ PTR;
     1718     5142        %VD$ERR_CODE (NAME=ERR_CODE, STCLASS=AUTO);
     1719     5157
     1720     5158
     1721     5159        %VD$TEXTC (NAME=PORT$KEY, STCLASS="BASED(PORT_KEY$)");
     1722     5182    2   DCL 1 TEXTC$BITS BASED(TEXTC_BITS$) ALIGNED,
     1723     5183    2         2 CNT UBIN BYTE CALIGNED,
     1724     5184    2         2 BITS BIT(9);
PL6.E3A0      #003=VDA$PFLUSH File=VDA$PORT.:VDA5TSI                             FRI 07/04/97 11:07 Page:219
     1725     5185
     1726     5186
     1727     5187
     1728     5188    2           FPT_WRITE = CONST_FPT_WRITE;

   5188  2 000563   000100 100400                    MLR     fill='000'O
         2 000564   000000 000060 1                  ADSC9   CONST_FPT_WRITE          cn=0,n=48
         2 000565   200032 000060                    ADSC9   FPT_WRITE,,AUTO          cn=0,n=48

     1729     5189    2           FPT_WRITE.V_ = VECTOR(FPT_WRITE.V);

   5189  2 000566   000004 235000 3                  LDA     4
         2 000567   200052 452500                    STP2    ERR_CODE+2,,AUTO
         2 000570   200052 236100                    LDQ     ERR_CODE+2,,AUTO
         2 000571   000042 036003                    ADLQ    34,DU
         2 000572   200032 757100                    STAQ    FPT_WRITE,,AUTO

     1730     5190    2           FPT_WRITE.V.DCB# = PORT.DCB#;

   5190  2 000573   200003 470500                    LDP0    @PORT,,AUTO
         2 000574   000004 720100                    LXL0    4,,PR0
         2 000575   200042 740100                    STX0    NEW_NW,,AUTO

     1731     5191    2           FPT_WRITE.BUF_ =

   5191  2 000576   000036 471500                    LDP1    30,,PR0
         2 000577   100002 222100                    LDX2    2,,PR1
         2 000600   000000 635012                    EAA     0,X2
         2 000601   000002 731000                    ARS     2
         2 000602   000140 135007                    SBLA    96,DL
         2 000603   200052 451500                    STP1    ERR_CODE+2,,AUTO
         2 000604   200052 236100                    LDQ     ERR_CODE+2,,AUTO
         2 000605   000005 036000 3                  ADLQ    5
         2 000606   200036 757100                    STAQ    MIN_RECORD,,AUTO

     1732     5192    2             VECTOR(PORT.LEVEL.DATA$ (%LVL_EXT_REC) -> VD$BUFFER.BYTES);
     1733     5193    2           IF PORT.LEVEL.DATA$ (%LVL_EXT_REC) -> VD$BUFFER.LENGTH# = 0 THEN
PL6.E3A0      #003=VDA$PFLUSH File=VDA$PORT.:VDA5TSI                             FRI 07/04/97 11:07 Page:220

   5193  2 000607   000036 471500                    LDP1    30,,PR0
         2 000610   100002 222100                    LDX2    2,,PR1
         2 000611   000614 601000 2                  TNZ     s:5203

     1734     5194    2              FPT_WRITE.BUF_ = VECTOR(NIL);

   5194  2 000612   000006 237000 3                  LDAQ    6
         2 000613   200036 757100                    STAQ    MIN_RECORD,,AUTO

     1735     5195                %GETKEY (KEY=PORT.CURRENT.KEY, INDX="%(LVL_EXT_REC-1)",
     1736     5196                PTR=PORT_KEY$);

   5203  2 000614   000012 722100                    LXL2    10,,PR0
         2 000615   000002 102003                    CMPX2   2,DU
         2 000616   000623 601000 2                  TNZ     s:5203+7

   5203  2 000617   000013 471500                    LDP1    11,,PR0
         2 000620   100002 633500                    EPPR3   2,,PR1
         2 000621   200046 453500                    STP3    PORT_KEY$,,AUTO
         2 000622   000626 710000 2                  TRA     s:5207

   5203  2 000623   200003 236100                    LDQ     @PORT,,AUTO
         2 000624   000013 036003                    ADLQ    11,DU
         2 000625   200046 756100                    STQ     PORT_KEY$,,AUTO

     1737     5206
     1738     5207    3           DO CASE (PORT.LEVEL.ORG# (%LVL_EXT_REC));

   5207  2 000626   000032 223100                    LDX3    26,,PR0
         2 000627   000004 103003                    CMPX3   4,DU
         2 000630   000632 602013 2                  TNC     s:5207+4,X3
         2 000631   000662 710000 2                  TRA     s:5214
         2 000632   000662 710000 2                  TRA     s:5214
         2 000633   000636 710000 2                  TRA     s:5209
         2 000634   000662 710000 2                  TRA     s:5214
         2 000635   000651 710000 2                  TRA     s:5212
PL6.E3A0      #003=VDA$PFLUSH File=VDA$PORT.:VDA5TSI                             FRI 07/04/97 11:07 Page:221

     1739     5208    3            CASE (%ORG_CONSEC);

     1740     5209    3              FPT_WRITE.KEY_ = VECTOR(PORT$KEY.BYTES);

   5209  2 000636   200046 471500                    LDP1    PORT_KEY$,,AUTO
         2 000637   100000 236100                    LDQ     0,,PR1
         2 000640   000033 772000                    QRL     27
         2 000641   000064 737000                    LLS     52
         2 000642   000140 135007                    SBLA    96,DL
         2 000643   200046 236100                    LDQ     PORT_KEY$,,AUTO
         2 000644   200000 036007                    ADLQ    65536,DL
         2 000645   200034 757100                    STAQ    NON_BLANK_INDEX,,AUTO

     1741     5210    3              FPT_WRITE.V.REWRITE# = %TRUE;

   5210  2 000646   000100 236007                    LDQ     64,DL
         2 000647   200042 256100                    ORSQ    NEW_NW,,AUTO
         2 000650   000673 710000 2                  TRA     s:5217

     1742     5211    3            CASE (%ORG_INDEXED);

     1743     5212    3              FPT_WRITE.KEY_ = VECTOR(PORT$KEY.BYTES);

   5212  2 000651   200046 471500                    LDP1    PORT_KEY$,,AUTO
         2 000652   100000 236100                    LDQ     0,,PR1
         2 000653   000033 772000                    QRL     27
         2 000654   000064 737000                    LLS     52
         2 000655   000140 135007                    SBLA    96,DL
         2 000656   200046 236100                    LDQ     PORT_KEY$,,AUTO
         2 000657   200000 036007                    ADLQ    65536,DL
         2 000660   200034 757100                    STAQ    NON_BLANK_INDEX,,AUTO
         2 000661   000673 710000 2                  TRA     s:5217

     1744     5213    3            CASE (ELSE);

     1745     5214    3              FPT_WRITE.KEY_ = VECTOR(PORT$KEY);
PL6.E3A0      #003=VDA$PFLUSH File=VDA$PORT.:VDA5TSI                             FRI 07/04/97 11:07 Page:222

   5214  2 000662   200046 471500                    LDP1    PORT_KEY$,,AUTO
         2 000663   100000 236100                    LDQ     0,,PR1
         2 000664   000033 772000                    QRL     27
         2 000665   000001 624006                    EAX4    1,QL
         2 000666   000000 635014                    EAA     0,X4
         2 000667   000002 771000                    ARL     2
         2 000670   000140 135007                    SBLA    96,DL
         2 000671   200046 236100                    LDQ     PORT_KEY$,,AUTO
         2 000672   200034 757100                    STAQ    NON_BLANK_INDEX,,AUTO

     1746     5215    3            END;

     1747     5216
     1748     5217    2           FPT_WRITE.V.DVBYTE = %CLEAR;

   5217  2 000673   000000 236003                    LDQ     0,DU
         2 000674   200045 552140                    STBQ    I+2,'40'O,AUTO

     1749     5218                %GETSPEC (SPEC=PORT.LEVEL.SPEC, INDX=%LVL_EXT_REC, PTR=TEXTC_BITS$);

   5225  2 000675   000034 722100                    LXL2    28,,PR0
         2 000676   000002 102003                    CMPX2   2,DU
         2 000677   000704 601000 2                  TNZ     s:5225+7

   5225  2 000700   000035 473500                    LDP3    29,,PR0
         2 000701   300002 634500                    EPPR4   2,,PR3
         2 000702   200047 454500                    STP4    TEXTC_BITS$,,AUTO
         2 000703   000707 710000 2                  TRA     s:5228

   5225  2 000704   200003 236100                    LDQ     @PORT,,AUTO
         2 000705   000035 036003                    ADLQ    29,DU
         2 000706   200047 756100                    STQ     TEXTC_BITS$,,AUTO

     1750     5228    3           IF TEXTC$BITS.CNT > 0 THEN DO;

   5228  2 000707   200047 473500                    LDP3    TEXTC_BITS$,,AUTO
PL6.E3A0      #003=VDA$PFLUSH File=VDA$PORT.:VDA5TSI                             FRI 07/04/97 11:07 Page:223
         2 000710   300000 236100                    LDQ     0,,PR3
         2 000711   777000 316003                    CANQ    -512,DU
         2 000712   000717 600000 2                  TZE     s:5233

     1751     5229    3              FPT_WRITE.V.DVBYTE = TEXTC$BITS.BITS;

   5229  2 000713   000011 736000                    QLS     9
         2 000714   200045 552140                    STBQ    I+2,'40'O,AUTO

     1752     5230    3              FPT_WRITE.V.DVBYTE.CONT# = %FALSE;

   5230  2 000715   000010 236000 3                  LDQ     8
         2 000716   200045 356100                    ANSQ    I+2,,AUTO

     1753     5231    3              END;

     1754     5232
     1755     5233    2           ERR_CODE = %CLEAR;

   5233  2 000717   200050 450100                    STZ     ERR_CODE,,AUTO

     1756     5234    2           IF VD_$$MON_ACC.V# > 10 THEN

   5234  2 000720   000003 236000 xsym               LDQ     VD_$$MON_ACC+3
         2 000721   000012 116007                    CMPQ    10,DL
         2 000722   000735 604400 2                  TMOZ    s:5237

     1757     5235    2              CALL VDG$MACC_PFLUSH_WRITE (FPT_WRITE.V.DCB#, FPT_WRITE.KEY_,

   5235  2 000723   200036 634500                    EPPR4   MIN_RECORD,,AUTO
         2 000724   200054 454500                    STP4    ERR_CODE+4,,AUTO
         2 000725   200034 635500                    EPPR5   NON_BLANK_INDEX,,AUTO
         2 000726   200053 455500                    STP5    ERR_CODE+3,,AUTO
         2 000727   200042 636500                    EPPR6   NEW_NW,,AUTO
         2 000730   200052 456500                    STP6    ERR_CODE+2,,AUTO
         2 000731   200052 630500                    EPPR0   ERR_CODE+2,,AUTO
         2 000732   000021 631400 xsym               EPPR1   B_VECTNIL+17
PL6.E3A0      #003=VDA$PFLUSH File=VDA$PORT.:VDA5TSI                             FRI 07/04/97 11:07 Page:224
         2 000733   000000 701000 xent               TSX1    VDG$MACC_PFLUSH_WRITE
         2 000734   000000 011000                    NOP     0

     1758     5236    2                FPT_WRITE.BUF_);
     1759     5237    2           CALL M$WRITE (FPT_WRITE)

   5237  2 000735   200032 630500                    EPPR0   FPT_WRITE,,AUTO
         2 000736   440001 713400                    CLIMB   alt,write
         2 000737   401400 401760                    pmme    nvectors=4
         2 000740   000742 702000 2                  TSX2    s:5239
         2 000741   001021 710000 2                  TRA     s:5276

     1760     5238    3           WHENALTRETURN DO;

     1761     5239    3              ERR_CODE = B$TCB.ALT$->B$ALT.ERR;

   5239  2 000742   000000 470400 xsym               LDP0    B$TCB$
         2 000743   000000 471500                    LDP1    0,,PR0
         2 000744   100102 236100                    LDQ     66,,PR1
         2 000745   200050 756100                    STQ     ERR_CODE,,AUTO

     1762     5240    4              IF PORT.LEVEL.ORG# (%LVL_EXT_REC) = %ORG_CONSEC THEN DO;

   5240  2 000746   200003 473500                    LDP3    @PORT,,AUTO
         2 000747   300032 220100                    LDX0    26,,PR3
         2 000750   000001 100003                    CMPX0   1,DU
         2 000751   001021 601000 2                  TNZ     s:5276

     1763     5241    5                 IF ERR_CODE.CODE# = %E$LD THEN DO;

   5241  2 000752   200050 236100                    LDQ     ERR_CODE,,AUTO
         2 000753   377770 376007                    ANQ     131064,DL
         2 000754   000070 116007                    CMPQ    56,DL
         2 000755   000760 601000 2                  TNZ     s:5252

     1764     5242                         /*
     1765     5243                         * If we got E$LD back from a write to a CONSEC file,
PL6.E3A0      #003=VDA$PFLUSH File=VDA$PORT.:VDA5TSI                             FRI 07/04/97 11:07 Page:225
     1766     5244                         *    it just means the record length of the written data
     1767     5245                         *    was different from the record length of the record
     1768     5246                         *    being replaced.  We already warned the user about
     1769     5247                         *    this when s/he opened the file for update --
     1770     5248                         *    ignore the error now.
     1771     5249                         */
     1772     5250    5                    ERR_CODE = %CLEAR;  /* Ignore the error */

   5250  2 000756   200050 450100                    STZ     ERR_CODE,,AUTO

     1773     5251    5                    END;

   5251  2 000757   001021 710000 2                  TRA     s:5276

     1774     5252    4                 ELSE IF ERR_CODE.CODE# = %E$WRDEL

   5252  2 000760   001030 116007                    CMPQ    536,DL
         2 000761   001021 601000 2                  TNZ     s:5276
         2 000762   200042 236100                    LDQ     NEW_NW,,AUTO
         2 000763   000100 316007                    CANQ    64,DL
         2 000764   001021 600000 2                  TZE     s:5276

     1775     5253    5                      AND FPT_WRITE.V.REWRITE# THEN DO;

     1776     5254                            /*
     1777     5255                            *  Monitor didn't like a rewrite of a consec file record.
     1778     5256                            *  Probably because we were writing a new record at the
     1779     5257                            *    end of the file.  Try writing the record again
     1780     5258                            *    without REWRITE.
     1781     5259                            */
     1782     5260    5                       FPT_WRITE.V.REWRITE# = %FALSE;

   5260  2 000765   000011 236000 3                  LDQ     9
         2 000766   200042 356100                    ANSQ    NEW_NW,,AUTO

     1783     5261    5                       ERR_CODE = %CLEAR;

PL6.E3A0      #003=VDA$PFLUSH File=VDA$PORT.:VDA5TSI                             FRI 07/04/97 11:07 Page:226
   5261  2 000767   200050 450100                    STZ     ERR_CODE,,AUTO

     1784     5262    5                       IF VD_$$MON_ACC.V# > 10 THEN

   5262  2 000770   000003 235000 xsym               LDA     VD_$$MON_ACC+3
         2 000771   000012 115007                    CMPA    10,DL
         2 000772   001003 604400 2                  TMOZ    s:5265

     1785     5263    5                          CALL VDG$MACC_PFLUSH_REWRITE (FPT_WRITE.V.DCB#,

   5263  2 000773   200034 631500                    EPPR1   NON_BLANK_INDEX,,AUTO
         2 000774   200053 451500                    STP1    ERR_CODE+3,,AUTO
         2 000775   200042 634500                    EPPR4   NEW_NW,,AUTO
         2 000776   200052 454500                    STP4    ERR_CODE+2,,AUTO
         2 000777   200052 630500                    EPPR0   ERR_CODE+2,,AUTO
         2 001000   000020 631400 xsym               EPPR1   B_VECTNIL+16
         2 001001   000000 701000 xent               TSX1    VDG$MACC_PFLUSH_REWRITE
         2 001002   000000 011000                    NOP     0

     1786     5264    5                            FPT_WRITE.KEY_);
     1787     5265    5                       CALL M$WRITE (FPT_WRITE)

   5265  2 001003   200032 630500                    EPPR0   FPT_WRITE,,AUTO
         2 001004   440001 713400                    CLIMB   alt,write
         2 001005   401400 401760                    pmme    nvectors=4
         2 001006   001010 702000 2                  TSX2    s:5267
         2 001007   001021 710000 2                  TRA     s:5276

     1788     5266    6                       WHENALTRETURN DO;

     1789     5267    6                          ERR_CODE = B$TCB.ALT$->B$ALT.ERR;

   5267  2 001010   000000 470400 xsym               LDP0    B$TCB$
         2 001011   000000 471500                    LDP1    0,,PR0
         2 001012   100102 236100                    LDQ     66,,PR1
         2 001013   200050 756100                    STQ     ERR_CODE,,AUTO

PL6.E3A0      #003=VDA$PFLUSH File=VDA$PORT.:VDA5TSI                             FRI 07/04/97 11:07 Page:227
     1790     5268    7                          IF ERR_CODE.CODE# = %E$LD THEN DO;

   5268  2 001014   200050 236100                    LDQ     ERR_CODE,,AUTO
         2 001015   377770 376007                    ANQ     131064,DL
         2 001016   000070 116007                    CMPQ    56,DL
         2 001017   001021 601000 2                  TNZ     s:5276

     1791     5269    7                             ERR_CODE = %CLEAR;  /* Ignore the error */

   5269  2 001020   200050 450100                    STZ     ERR_CODE,,AUTO

     1792     5270    7                             END;

     1793     5271    6                          END;

     1794     5272    5                       END;

     1795     5273    4                 END;   /* If consec file */

     1796     5274    3              END;  /* WHENALTRETURN */

     1797     5275
     1798     5276    2           IF ERR_CODE ~= %CLEAR THEN

   5276  2 001021   200050 235100                    LDA     ERR_CODE,,AUTO
         2 001022   001025 601000 2                  TNZ     WRITE_FAILED

     1799     5277    2              GOTO WRITE_FAILED;
     1800     5278
     1801     5279    2           RETURN;

   5279  2 001023   200030 221300                    LDX1  ! VD_ERR$+2,,AUTO
         2 001024   000001 702211                    TSX2  ! 1,X1

     1802     5280
     1803     5281
     1804     5282
PL6.E3A0      #003=VDA$PFLUSH File=VDA$PORT.:VDA5TSI                             FRI 07/04/97 11:07 Page:228
     1805     5283    2   WRITE_FAILED:
     1806     5284    2           CALL VDG$OALLOC (%CLS_ERR, VD_ERR$)

   5284  2 001025   200026 630500       WRITE_FAILED EPPR0   VD_ERR$,,AUTO
         2 001026   200053 450500                    STP0    ERR_CODE+3,,AUTO
         2 001027   000012 236000 3                  LDQ     10
         2 001030   200052 756100                    STQ     ERR_CODE+2,,AUTO
         2 001031   200052 630500                    EPPR0   ERR_CODE+2,,AUTO
         2 001032   000020 631400 xsym               EPPR1   B_VECTNIL+16
         2 001033   000000 701000 xent               TSX1    VDG$OALLOC
         2 001034   001051 702000 2                  TSX2    OALLOC_FAILED

     1807     5285    2             ALTRET (OALLOC_FAILED);
     1808     5286    2           VD$ERR.ERR = ERR_CODE;

   5286  2 001035   200050 236100                    LDQ     ERR_CODE,,AUTO
         2 001036   200026 470500                    LDP0    VD_ERR$,,AUTO
         2 001037   000002 756100                    STQ     2,,PR0

     1809     5287    2           VD$ERR.FLAGLEV# = %FLV_SERIOUS;

   5287  2 001040   000003 220003                    LDX0    3,DU
         2 001041   200026 470500                    LDP0    VD_ERR$,,AUTO
         2 001042   000003 740100                    STX0    3,,PR0

     1810     5288    2           VD$ERR.DCB# = PORT.DCB#;

   5288  2 001043   200003 470500                    LDP0    @PORT,,AUTO
         2 001044   000004 721100                    LXL1    4,,PR0
         2 001045   200026 471500                    LDP1    VD_ERR$,,AUTO
         2 001046   100004 741100                    STX1    4,,PR1

     1811     5289    2           ALTRETURN;

   5289  2 001047   200030 221300                    LDX1  ! VD_ERR$+2,,AUTO
         2 001050   000000 702211                    TSX2  ! 0,X1

PL6.E3A0      #003=VDA$PFLUSH File=VDA$PORT.:VDA5TSI                             FRI 07/04/97 11:07 Page:229
   5288  2 001051                       OALLOC_FAIL* null
     1812     5290
     1813     5291
     1814     5292    2   OALLOC_FAILED: ;
     1815     5293    2           ALTRETURN;

   5293  2 001051   200030 221300                    LDX1  ! VD_ERR$+2,,AUTO
         2 001052   000000 702211                    TSX2  ! 0,X1
     1816     5294
     1817     5295    2   END EXTERNAL_MODIFIED;
     1818     5296
     1819     5297    1   END VDA$PFLUSH;
     1820     5298        %EOD;

PL6.E3A0      #003=VDA$PFLUSH File=VDA$PORT.:VDA5TSI                             FRI 07/04/97 11:07 Page:230
--  Include file information  --

   B$TABLES_C.:LIBRARY  cannot be made into a system file and is referenced.
   B_ERRORS_C.:LIBRARY  is referenced.
   CP_6.:LIBRARY  cannot be made into a system file and is referenced.
   VD_PERR_C.:VDA5TOU  is referenced.
   VD_MACROS_M.:VDA5TOU  is referenced.
   B$JIT_C.:E04TOU  was found in the system file and is never referenced.
   CP_6_C.:E04TOU  was found in the system file and is referenced.
      No diagnostics issued in procedure VDA$PFLUSH.
PL6.E3A0      #003=VDA$PFLUSH File=VDA$PORT.:VDA5TSI                             FRI 07/04/97 11:07 Page:231

 **** Variables and constants ****

  ****  Section 001 RoData VDA$PFLUSH

  ****  Scalars and arrays  ****
OctLoc.c.b A Datatyp(siz) R M Lvl/name                 OctLoc.c.b A Datatyp(siz) R M Lvl/name

     0-0-0/d STRC(432)   r     1 CONST_FPT_WRITE

  ****  Auto variables  ****

  ****  Scalars and arrays  ****
OctLoc.c.b A Datatyp(siz) R M Lvl/name                 OctLoc.c.b A Datatyp(siz) R M Lvl/name

    31-0-0/w PTR         r     1 @CHANGED_RECORD            4-0-0/w PTR         r     1 @FROM_PRESENTER
     3-0-0/w PTR         r     1 @PORT                     25-0-0/w PTR         r     1 BUFFER_TO_PASS$
    21-0-0/w BIT         r     1 CANT_WRITE_THIS_LEVEL
    22-0-0/w BIT         r     1 CHANGED_DATA              *0-0-0/w BIT         r     1 CHANGED_RECORD
     7-0-0/w STRC(324)   r     1 CURR_LOCATION             32-0-0/w PTR         r     1 DATA_BUFFER$
    50-0-0/w STRC        r     1 ERR_CODE                  32-0-0/d STRC(432)   r     1 FPT_WRITE
    *0-0-0/w BIT         r     1 FROM_PRESENTER             5-0-0/w BIT         r     1 HAD_ERROR
    43-0-0/w SBIN        r     1 I                         20-0-0/w SBIN        r     1 LEVEL
    36-0-0/w UBIN        r     1 MIN_RECORD                42-0-0/w SBIN        r     1 NEW_NW
    34-0-0/w SBIN        r     1 NON_BLANK_INDEX           41-0-0/w SBIN        r     1 PAD_POINT
    *0-0-0/w STRC(1944)  r     1 PORT                      46-0-0/w PTR         r     1 PORT_KEY$
    40-0-0/w BIT         r     1 RECORD_NEEDS_VFC          24-0-0/w PTR         r     1 SPEC_TO_PASS$
    23-0-0/w BIT         r     1 STILL_FROM_PRESENTER       6-0-0/w PTR         r     1 STRUCTURE_NODE$
    33-0-0/w PTR         r     1 T$                        35-0-0/w SBIN        r     1 TABLE_VAL
    47-0-0/w PTR         r     1 TEXTC_BITS$               37-0-0/w PTR         r     1 TEXTC_DVBYTE$
    26-0-0/w PTR         r     1 VD_ERR$

  ****  SYMREF variables  ****

  ****  Scalars and arrays  ****
OctLoc.c.b A Datatyp(siz) R M Lvl/name                 OctLoc.c.b A Datatyp(siz) R M Lvl/name

     0-0-0/w PTR         r     1 B$SR_NON_BLANK$            0-0-0/w PTR         r     1 B$TCB$
PL6.E3A0      #003=VDA$PFLUSH File=VDA$PORT.:VDA5TSI                             FRI 07/04/97 11:07 Page:232
     0-0-0/w STRC(144)   r     1 VD_$$MON_ACC               0-0-0/w STRC(144)   r     1 VD_$MAX_RECORD
     0-0-0/w STRC(144)   r     1 VD_$MIN_RECORD             0-0-0/w ASTR(90)    r     1 VD_$PAD
     0-0-0/w STRC(144)   r     1 VD_$STRIP_BLANKS

  ****  BASED and DCB variables  ****

  ****  Scalars and arrays  ****
OctLoc.c.b A Datatyp(siz) R M Lvl/name                 OctLoc.c.b A Datatyp(siz) R M Lvl/name

     0-0-0/w STRC(2448)  r     1 B$ALT                      0-0-0/d STRC(4608)  r     1 B$SR_NON_BLANK
     0-0-0/w STRC(144)   r     1 B$TCB                      0-0-0/w ASTR(90)    r     1 BUFFER$TO_PASS
     0-0-0/w ASTR(90)    r     1 DATA$BUFFER                0-0-0/d ASTR(3528)  r     1 F$DCB
     0-0-0/w ASTR(9)     r     1 PORT$KEY                   0-0-0/w STRC(72)    r     1 SPEC$TO_PASS
     0-0-0/w STRC(468)   r     1 STRUCTURE$NODE             0-0-0/w STRC(18)    r     1 TEXTC$BITS
     0-0-0/w STRC(18)    r     1 TEXTC$DVBYTE               0-0-0/w ASTR(90)    r     1 VD$BUFFER
     0-0-0/w STRC(90)    r     1 VD$BUFFER_HEADER           0-0-0/w STRC(180)   r     1 VD$ERR
     0-0-0/w STRC(468)   r     1 VD$FILE_NODE               0-0-0/w ASTR(81)    r     1 VD$TEXTC_REMOTE


   Procedure VDA$PFLUSH requires 555 words for executable code.
   Procedure VDA$PFLUSH requires 48 words of local(AUTO) storage.
PL6.E3A0      #003=VDA$PFLUSH File=VDA$PORT.:VDA5TSI                             FRI 07/04/97 11:07 Page:233
          *** CROSS REFERENCE LISTING ***
**     DENOTES     IDENTIFIER DEFINITION
<<                 IDENTIFIER'S VALUE SET
>>                 IDENTIFIER'S VALUE USED
<>                 IDENTIFIER SET AND/OR USED
--                 IDENTIFIER REFERENCED
PL6.E3A0      #003=VDA$PFLUSH File=VDA$PORT.:VDA5TSI                             FRI 07/04/97 11:07 Page:234
          MINI XREF LISTING

B$ALT.CODE
      4640**DCL      4640--REDEF    4641--REDEF    4641--REDEF
B$ALT.ERR
      4641**DCL      5239>>ASSIGN   5267>>ASSIGN
B$ALT.ERR.ERR#
      4642**DCL      4642--REDEF
B$ALT.EVID
      4641**DCL      4641--REDEF    4641--REDEF
B$SR_NON_BLANK
      4094**DCL      4947>>CALLBLT
B$SR_NON_BLANK$
      4093**DCL      4094--IMP-PTR  4947>>CALLBLT
B$TCB.ALT$
      4636**DCL      5239>>ASSIGN   5267>>ASSIGN
B$TCB$
      4089**DCL      4636--IMP-PTR  5239>>ASSIGN   5267>>ASSIGN
BUFFER$TO_PASS
      4301**DCL      4694<>CALL
BUFFER$TO_PASS.LENGTH#
      4327**DCL      4329--IMP-SIZ  4694>>CALL
BUFFER_TO_PASS$
      4165**DCL      4301--IMP-PTR  4688<<ASSIGN   4690<<ASSIGN   4694>>CALL     4694>>CALL
CANT_WRITE_THIS_LEVEL
      4161**DCL      4672<<ASSIGN   4676<<ASSIGN   4681>>IF
CHANGED_DATA
      4162**DCL      4667<<ASSIGN   4669<>CALL     4692>>IF
CHANGED_RECORD IN PROCEDURE NORMALIZE_DATA
      4784**DCL      4781--PROC     4926<<ASSIGN   4952<<ASSIGN   4965<<ASSIGN   4974<<ASSIGN   5005<<ASSIGN
CONST_FPT_WRITE
      4113**DCL      5188>>ASSIGN
CONST_FPT_WRITE.STATION_
      4115**DCL      4115--REDEF
PL6.E3A0      #003=VDA$PFLUSH File=VDA$PORT.:VDA5TSI                             FRI 07/04/97 11:07 Page:235
CONST_FPT_WRITE.V
      4116**DCL      4113--DCLINIT
CONST_FPT_WRITE.V.DVBYTE.VFC#
      4122**DCL      4122--REDEF
CURR_LOCATION
      4140**DCL      4654<<ASSIGN   4694<>CALL
CURR_LOCATION.KEY
      4154**DCL      4702<<ASSIGN
DATA$BUFFER.BYTES IN PROCEDURE NORMALIZE_DATA
      4853**DCL      4947>>CALLBLT  5013<<ASSIGN   5018<<CALLBLT  5028<<CALLBLT  5033<<ASSIGN   5047<<CALLBLT
DATA$BUFFER.LENGTH# IN PROCEDURE NORMALIZE_DATA
      4851**DCL      4853--IMP-SIZ  4946>>IF       4947>>CALLBLT  4951>>IF       4953<<ASSIGN   4964>>IF
      4966<<ASSIGN   4973>>IF       4975<<ASSIGN   5003>>IF       5006>>ASSIGN   5011<<ASSIGN   5013>>ASSIGN
      5016>>IF       5018>>CALLBLT  5026<<ASSIGN   5028>>CALLBLT  5033>>ASSIGN   5047>>CALLBLT
DATA$BUFFER.OBJECT.SIZE# IN PROCEDURE NORMALIZE_DATA
      4849**DCL      5009>>IF
DATA_BUFFER$ IN PROCEDURE NORMALIZE_DATA
      4788**DCL      4825--IMP-PTR  4940<<ASSIGN   4946>>IF       4947>>CALLBLT  4947>>CALLBLT  4951>>IF
      4953>>ASSIGN   4964>>IF       4966>>ASSIGN   4973>>IF       4975>>ASSIGN   5003>>IF       5006>>ASSIGN
      5009>>IF       5011>>ASSIGN   5013>>ASSIGN   5013>>ASSIGN   5016>>IF       5018>>CALLBLT  5018>>CALLBLT
      5025<<ASSIGN   5026>>ASSIGN   5028>>CALLBLT  5028>>CALLBLT  5033>>ASSIGN   5033>>ASSIGN   5037>>ASSIGN
      5039>>ASSIGN   5047>>CALLBLT  5047>>CALLBLT
ERR_CODE IN PROCEDURE EXTERNAL_MODIFIED
      5150**DCL      5233<<ASSIGN   5239<<ASSIGN   5250<<ASSIGN   5261<<ASSIGN   5267<<ASSIGN   5269<<ASSIGN
      5276>>IF       5286>>ASSIGN
ERR_CODE.CODE# IN PROCEDURE EXTERNAL_MODIFIED
      5154**DCL      5241>>IF       5252>>IF       5268>>IF
EXTERNAL_MODIFIED
      5106**PROC     4674--CALL
F$DCB.ACTPOS IN PROCEDURE NORMALIZE_DATA
      4899**DCL      4899--REDEF
F$DCB.ARS# IN PROCEDURE NORMALIZE_DATA
      4873**DCL      4873--REDEF    4962>>ASSIGN
F$DCB.ATTR IN PROCEDURE NORMALIZE_DATA
      4892**DCL      4893--REDEF
F$DCB.BORROW IN PROCEDURE NORMALIZE_DATA
PL6.E3A0      #003=VDA$PFLUSH File=VDA$PORT.:VDA5TSI                             FRI 07/04/97 11:07 Page:236
      4907**DCL      4907--REDEF    4907--REDEF    4907--REDEF
F$DCB.DCBNAME.L IN PROCEDURE NORMALIZE_DATA
      4921**DCL      4921--IMP-SIZ
F$DCB.EOMCHAR# IN PROCEDURE NORMALIZE_DATA
      4877**DCL      4877--REDEF
F$DCB.FLDID IN PROCEDURE NORMALIZE_DATA
      4902**DCL      4902--REDEF
F$DCB.FORM$ IN PROCEDURE NORMALIZE_DATA
      4896**DCL      4896--REDEF
F$DCB.FSECT IN PROCEDURE NORMALIZE_DATA
      4912**DCL      4912--REDEF
F$DCB.FSN# IN PROCEDURE NORMALIZE_DATA
      4889**DCL      4889--REDEF    4889--REDEF    4890--REDEF
F$DCB.HEADER$ IN PROCEDURE NORMALIZE_DATA
      4895**DCL      4895--REDEF
F$DCB.IXTNSIZE# IN PROCEDURE NORMALIZE_DATA
      4893**DCL      4893--REDEF
F$DCB.LASTSTA$ IN PROCEDURE NORMALIZE_DATA
      4882**DCL      4882--REDEF
F$DCB.LVL IN PROCEDURE NORMALIZE_DATA
      4908**DCL      4908--REDEF
F$DCB.NAME#.C IN PROCEDURE NORMALIZE_DATA
      4883**DCL      4883--REDEF
F$DCB.NOEOF IN PROCEDURE NORMALIZE_DATA
      4905**DCL      4905--REDEF
F$DCB.NRECS# IN PROCEDURE NORMALIZE_DATA
      4894**DCL      4894--REDEF
F$DCB.NRECX IN PROCEDURE NORMALIZE_DATA
      4913**DCL      4913--REDEF
F$DCB.OHDR IN PROCEDURE NORMALIZE_DATA
      4905**DCL      4905--REDEF
F$DCB.ORG# IN PROCEDURE NORMALIZE_DATA
      4888**DCL      4888--REDEF
F$DCB.PRECNO IN PROCEDURE NORMALIZE_DATA
      4911**DCL      4911--REDEF
F$DCB.RCSZ IN PROCEDURE NORMALIZE_DATA
PL6.E3A0      #003=VDA$PFLUSH File=VDA$PORT.:VDA5TSI                             FRI 07/04/97 11:07 Page:237
      4917**DCL      4917--REDEF
F$DCB.RES# IN PROCEDURE NORMALIZE_DATA
      4884**DCL      4884--REDEF
F$DCB.SETX IN PROCEDURE NORMALIZE_DATA
      4896**DCL      4896--REDEF
F$DCB.TAB$ IN PROCEDURE NORMALIZE_DATA
      4896**DCL      4896--REDEF
F$DCB.TDA IN PROCEDURE NORMALIZE_DATA
      4910**DCL      4911--REDEF
F$DCB.WSN# IN PROCEDURE NORMALIZE_DATA
      4884**DCL      4884--REDEF
FPT_WRITE IN PROCEDURE EXTERNAL_MODIFIED
      5126**DCL      5188<<ASSIGN   5237<>CALL     5265<>CALL
FPT_WRITE.BUF_ IN PROCEDURE EXTERNAL_MODIFIED
      5126**DCL      5191<<ASSIGN   5194<<ASSIGN   5235<>CALL
FPT_WRITE.KEY_ IN PROCEDURE EXTERNAL_MODIFIED
      5126**DCL      5209<<ASSIGN   5212<<ASSIGN   5214<<ASSIGN   5235<>CALL     5263<>CALL
FPT_WRITE.STATION_ IN PROCEDURE EXTERNAL_MODIFIED
      5128**DCL      5128--REDEF
FPT_WRITE.V IN PROCEDURE EXTERNAL_MODIFIED
      5129**DCL      5189--ASSIGN
FPT_WRITE.V.DCB# IN PROCEDURE EXTERNAL_MODIFIED
      5129**DCL      5190<<ASSIGN   5235<>CALL     5263<>CALL
FPT_WRITE.V.DVBYTE IN PROCEDURE EXTERNAL_MODIFIED
      5134**DCL      5217<<ASSIGN   5229<<ASSIGN
FPT_WRITE.V.DVBYTE.CONT# IN PROCEDURE EXTERNAL_MODIFIED
      5137**DCL      5230<<ASSIGN
FPT_WRITE.V.DVBYTE.VFC# IN PROCEDURE EXTERNAL_MODIFIED
      5135**DCL      5135--REDEF
FPT_WRITE.V.REWRITE# IN PROCEDURE EXTERNAL_MODIFIED
      5132**DCL      5210<<ASSIGN   5252>>IF       5260<<ASSIGN
FPT_WRITE.V_ IN PROCEDURE EXTERNAL_MODIFIED
      5126**DCL      5189<<ASSIGN
FROM_PRESENTER
      3839**DCL        58--PROC     4651<>CALL     4691>>ASSIGN
HAD_ERROR
PL6.E3A0      #003=VDA$PFLUSH File=VDA$PORT.:VDA5TSI                             FRI 07/04/97 11:07 Page:238
      4130**DCL      4649<<ASSIGN   4677<<ASSIGN   4705>>IF
I IN PROCEDURE NORMALIZE_DATA
      4797**DCL      5045<<DOINDEX  5047>>CALLBLT
LEVEL
      4160**DCL      4663<<DOINDEX  4664>>IF       4664>>IF       4668>>IF       4683>>IF       4684>>ASSIGN
      4687>>IF       4688>>ASSIGN   4699>>ASSIGN   4700>>ASSIGN   4702>>ASSIGN   4927>>IF       4927>>IF
      4940>>ASSIGN   5028>>CALLBLT  5028>>CALLBLT  5033>>ASSIGN   5033>>ASSIGN   5035>>CALL     5035>>CALL
      5037>>ASSIGN   5039>>ASSIGN
M$WRITE
      2434**DCL-ENT  5237--CALL     5265--CALL
MIN_RECORD IN PROCEDURE NORMALIZE_DATA
      4792**DCL      4962<<ASSIGN   4963>>IF       4964>>IF       4966>>ASSIGN   4968<<ASSIGN   4984>>IF
      4999<<ASSIGN   5003>>IF       5007>>ASSIGN   5011>>ASSIGN   5026>>ASSIGN   5045>>DOINDEX
NEW_NW IN PROCEDURE NORMALIZE_DATA
      4796**DCL      5007<<ASSIGN   5009>>IF       5023<>CALL
NON_BLANK_INDEX IN PROCEDURE NORMALIZE_DATA
      4790**DCL      4947<<CALLBLT  4950<<ASSIGN   4951>>IF       4953>>ASSIGN
NORMALIZE_DATA
      4781**PROC     4669--CALL
NORMALIZE_DATA_FAILED
      4708**LABEL    4669--CALLALT
OALLOC_FAILED IN PROCEDURE EXTERNAL_MODIFIED
      5288**LABEL    5284--CALLALT
OALLOC_FAILED IN PROCEDURE NORMALIZE_DATA
      5045**LABEL    5023--CALLALT
OFREE_FAILED IN PROCEDURE NORMALIZE_DATA
      5045**LABEL    5035--CALLALT
PAD_POINT IN PROCEDURE NORMALIZE_DATA
      4795**DCL      5006<<ASSIGN   5014<<ASSIGN   5016>>IF       5018>>CALLBLT  5030<<ASSIGN   5045>>DOINDEX
PORT
      3749**DCL        58--PROC     4651<>CALL     4709<>CALL
PORT.CURRENT
      3802**DCL      4654>>ASSIGN
PORT.CURRENT.KEY.REP#
      3816**DCL      5203>>IF
PORT.CURRENT.KEY.V$
PL6.E3A0      #003=VDA$PFLUSH File=VDA$PORT.:VDA5TSI                             FRI 07/04/97 11:07 Page:239
      3816**DCL      5203>>ASSIGN   5203--ASSIGN
PORT.DCB#
      3776**DCL      4673>>IF       4937>>IF       4962--ASSIGN   4984>>IF       5038>>IF       5190>>ASSIGN
      5288>>ASSIGN
PORT.FILE_KEY
      3788**DCL      4694<>CALL
PORT.LEVEL.DATA$
      3836**DCL      4688>>ASSIGN   4940>>ASSIGN   5028>>CALLBLT  5028>>CALLBLT  5033>>ASSIGN   5033>>ASSIGN
      5035>>CALL     5035>>CALL     5037<<ASSIGN   5191>>ASSIGN   5191>>ASSIGN   5193>>IF
PORT.LEVEL.DATA_MODIFIED
      3836**DCL      4664>>IF       4668>>IF       4687>>IF       4700<<ASSIGN
PORT.LEVEL.INTERNAL$
      3836**DCL      5039>>ASSIGN
PORT.LEVEL.ORG#
      3820**DCL      4961>>IF       5207>>DOCASE   5240>>IF
PORT.LEVEL.SPEC
      3832**DCL      4684--ASSIGN
PORT.LEVEL.SPEC.REP#
      3834**DCL      4993>>IF       5225>>IF
PORT.LEVEL.SPEC.V$
      3834**DCL      4993>>ASSIGN   4993--ASSIGN   5225>>ASSIGN   5225--ASSIGN
PORT.LEVEL.SPEC_MODIFIED
      3836**DCL      4664>>IF       4683>>IF       4699<<ASSIGN
PORT.LEVEL.SPEC_TYPE#
      3820**DCL      4927>>IF       4927>>IF
PORT.STRUCTURE$
      3777**DCL      4653>>ASSIGN
PORT$KEY IN PROCEDURE EXTERNAL_MODIFIED
      5167**DCL      5214--ASSIGN
PORT$KEY.BYTES IN PROCEDURE EXTERNAL_MODIFIED
      5177**DCL      5209--ASSIGN   5212--ASSIGN
PORT$KEY.LENGTH# IN PROCEDURE EXTERNAL_MODIFIED
      5175**DCL      5177--IMP-SIZ  5209>>ASSIGN   5212>>ASSIGN   5214>>ASSIGN
PORT_KEY$ IN PROCEDURE EXTERNAL_MODIFIED
      5140**DCL      5167--IMP-PTR  5203<<ASSIGN   5203<<ASSIGN   5209>>ASSIGN   5209>>ASSIGN   5212>>ASSIGN
      5212>>ASSIGN   5214>>ASSIGN   5214>>ASSIGN
PL6.E3A0      #003=VDA$PFLUSH File=VDA$PORT.:VDA5TSI                             FRI 07/04/97 11:07 Page:240
RECORD_NEEDS_VFC IN PROCEDURE NORMALIZE_DATA
      4794**DCL      4983<<ASSIGN   4997<<ASSIGN   4998>>IF       5012>>IF       5027>>IF
RWRITE_FAILED
      4708**LABEL    4694--CALLALT
SPEC$TO_PASS
      4270**DCL      4694<>CALL
SPEC_TO_PASS$
      4164**DCL      4270--IMP-PTR  4684<<ASSIGN   4686<<ASSIGN   4694>>CALL
STILL_FROM_PRESENTER
      4163**DCL      4691<<ASSIGN   4693<<ASSIGN   4694<>CALL
STRUCTURE$NODE.COUNT#
      4260**DCL      4663>>DOINDEX
STRUCTURE_NODE$
      4131**DCL      4177--IMP-PTR  4653<<ASSIGN   4663>>DOINDEX
T$ IN PROCEDURE NORMALIZE_DATA
      4789**DCL      5023<>CALL     5025>>ASSIGN
TABLE_VAL IN PROCEDURE NORMALIZE_DATA
      4791**DCL      4947<<CALLBLT  4949>>IF
TEXTC$BITS.BITS IN PROCEDURE EXTERNAL_MODIFIED
      5184**DCL      5229>>ASSIGN
TEXTC$BITS.CNT IN PROCEDURE EXTERNAL_MODIFIED
      5183**DCL      5228>>IF
TEXTC$DVBYTE.LENGTH# IN PROCEDURE NORMALIZE_DATA
      4859**DCL      4996>>IF
TEXTC$DVBYTE.VFC IN PROCEDURE NORMALIZE_DATA
      4862**DCL      4997>>ASSIGN
TEXTC_BITS$ IN PROCEDURE EXTERNAL_MODIFIED
      5141**DCL      5182--IMP-PTR  5225<<ASSIGN   5225<<ASSIGN   5228>>IF       5229>>ASSIGN
TEXTC_DVBYTE$ IN PROCEDURE NORMALIZE_DATA
      4793**DCL      4858--IMP-PTR  4993<<ASSIGN   4993<<ASSIGN   4996>>IF       4997>>ASSIGN
VD$BUFFER
      4359**DCL      5035<>CALL
VD$BUFFER.BYTES
      4387**DCL      5028>>CALLBLT  5033>>ASSIGN   5191--ASSIGN
VD$BUFFER.LENGTH#
      4385**DCL      4387--IMP-SIZ  5028>>CALLBLT  5033>>ASSIGN   5035>>CALL     5191>>ASSIGN   5193>>IF
PL6.E3A0      #003=VDA$PFLUSH File=VDA$PORT.:VDA5TSI                             FRI 07/04/97 11:07 Page:241
VD$BUFFER_HEADER
      4400**DCL      5007--ASSIGN
VD$ERR.DCB#
      4632**DCL      5288<<ASSIGN
VD$ERR.ERR
      4627**DCL      5286<<ASSIGN
VD$ERR.FLAGLEV#
      4632**DCL      5287<<ASSIGN
VD$FILE_NODE.DESC.DATA$
      4517**DCL      5039<<ASSIGN
VD$TEXTC_REMOTE.LENGTH#
      4575**DCL      4577--IMP-SIZ  4993--ASSIGN   5203--ASSIGN   5225--ASSIGN
VDG$MACC_PFLUSH
      3845**DCL-ENT  4651--CALL
VDG$MACC_PFLUSH_REWRITE
      3847**DCL-ENT  5263--CALL
VDG$MACC_PFLUSH_WRITE
      3846**DCL-ENT  5235--CALL
VDG$MACC_PRETURN
      3848**DCL-ENT  4709--CALL
VDG$OALLOC
      3843**DCL-ENT  5023--CALL     5284--CALL
VDG$OFREE
      3844**DCL-ENT  5035--CALL
VDP$RWRITE
      3842**DCL-ENT  4694--CALL
VD_$$MON_ACC.V#
      3893**DCL      4650>>IF       4708>>IF       5234>>IF       5262>>IF
VD_$MAX_RECORD.V#
      3938**DCL      4973>>IF       4975>>ASSIGN
VD_$MIN_RECORD.V#
      3983**DCL      4968>>ASSIGN
VD_$PAD.BYTES
      4039**DCL      5016>>IF       5043>>IF       5047>>CALLBLT
VD_$PAD.LENGTH#
      4037**DCL      4039--IMP-SIZ  5016>>IF       5043>>IF       5045>>DOINDEX  5047>>CALLBLT  5047>>CALLBLT
PL6.E3A0      #003=VDA$PFLUSH File=VDA$PORT.:VDA5TSI                             FRI 07/04/97 11:07 Page:242
VD_$STRIP_BLANKS.V#
      4086**DCL      4946>>IF
VD_ERR$
      4166**DCL      4590--IMP-PTR  5284<>CALL     5286>>ASSIGN   5287>>ASSIGN   5288>>ASSIGN
WRITE_FAILED IN PROCEDURE EXTERNAL_MODIFIED
      5284**LABEL    5277--GOTO

