PL6.E3A0      #002=VDA$WWINDOWS File=VDA$WRITERS.:VDA5TSI                        FRI 07/04/97 11:10 Page:203
     1604        1        /*T***********************************************************/
     1605        2        /*T*                                                         */
     1606        3        /*T* Copyright (c) Bull HN Information Systems Inc., 1997    */
     1607        4        /*T*                                                         */
     1608        5        /*T***********************************************************/
     1609        6        /*D* NAME: VDA$WWINDOWS
     1610        7            PARAMETERS:
     1611        8                PORT - VD$PORT into which a node from a predefined file has been
     1612        9                    read.  PORT.LEVEL.SPEC (%LVL_LOWER) and .DATA$ (%LVL_LOWER)
     1613       10                    contain copies of the Spec and Data components of the
     1614       11                    old version of the node, if any.
     1615       12                    The user must have write-access to the file.
     1616       13                SPEC - Optional VD$SPEC specifying the new Spec component
     1617       14                    for the node.  If you don't want to affect the
     1618       15                    Spec component, omit this parameter; to erase the
     1619       16                    node's current Spec component, SPEC should specify a
     1620       17                    0-length string.  For the Windows file, erasing the Spec
     1621       18                    component implies that the entire node is to be deleted.
     1622       19                    If passed, SPEC must point to a VD$WINDOW_SPEC.
     1623       20                    Note - Passing a VD$SPEC which is BASED on a pointer
     1624       21                        which is currently NIL acts as tho you omitted
     1625       22                        the parameter -- the Spec component isn't affected.
     1626       23                    Note - Any dynamic storage pointed-to by SPEC will no
     1627       24                        longer be owned by the caller after this call!!
     1628       25                        Give me a Spec and I keep it, not you.  See SPEC
     1629       26                        under OUTPUT comments.
     1630       27                DATA - Optional VD$BUFFER containing the new Data component
     1631       28                    for the node.  If you don't want to affect the
     1632       29                    Data component, omit this parameter; to erase the
     1633       30                    node's current Data component, DATA should specify a
     1634       31                    0-length string (VD$BUFFER.LENGTH# = 0).
     1635       32                    For the Windows file, erasing the Data component does simply
     1636       33                        that:  frees the old Data component.
     1637       34                    Note - Passing a VD$BUFFER which is BASED on a pointer
     1638       35                        which is currently NIL acts as tho you omitted
     1639       36                        the parameter -- the Data component isn't affected.
     1640       37                    Note - DATA must reside in either dynamic storage, static,
PL6.E3A0      #002=VDA$WWINDOWS File=VDA$WRITERS.:VDA5TSI                        FRI 07/04/97 11:10 Page:204
     1641       38                        or constant -- never the caller's auto storage!!
     1642       39                        If DATA resides in dynamic (as indicated by having a
     1643       40                        non-0 .OBJECT.SIZE#), it will no longer be owned
     1644       41                        by the caller after this call.
     1645       42                        Give me a Data buffer and I keep it, not you.  See
     1646       43                        DATA under OUTPUT comments.
     1647       44                NODE_EXISTS - A BIT(1) ALIGNED flag.  If set, then the Port contains
     1648       45                    an old node which is being replaced by SPEC and/or DATA.
     1649       46                    If NODE_EXISTS = %FALSE, then SPEC and DATA represent
     1650       47                    a node which is being inserted into the file.
     1651       48                If NODE_EXISTS = %FALSE (insertion, new window), SPEC's WINDOW$SPEC
     1652       49                must contain:
     1653       50                    .COMMAND - If set, this is a command window:  .OPERAND
     1654       51                            is ignored.
     1655       52                        If reset, this is an editing window:  we'll allocate a
     1656       53                            new stream for the new window.
     1657       54                    .COORDS must specify the .HEIGHT# and .WIDTH# (as # lines
     1658       55                        or percentages) only; .LINE# and .COLUMN# must be 0.
     1659       56                    .OPERAND.STREAM$ should be NIL.
     1660       57                    .OPERAND.EDIT_BLOCK$ must point to a VD$BLOCK_DESC for the
     1661       58                        initial edit block for the new window; may
     1662       59                        be NIL for an initially empty window.
     1663       60                    .OPERAND.EVAL$ - If .EDIT_BLOCK$ is not NIL, .EVAL$ must
     1664       61                        point to a VD$EVAL for the initial range for the
     1665       62                        new window; else must be NIL.
     1666       63                    .DCB# must be 0 for the new window.
     1667       64                    The remaining info in WINDOW$SPEC must be %CLEAR/NIL.
     1668       65                If NODE_EXISTS = %TRUE (replacement), WINDOW$SPEC must contain
     1669       66                    only .COMMAND, .COORDS.HEIGHT#, and .COORDS.WIDTH# (the
     1670       67                    COORDS must be given as numbers of lines, not as percentages).
     1671       68                    The COORDS are the only window parameters which can be
     1672       69                    changed without deleting then reinserting the window.
     1673       70                    The .COMMAND flag must be set to indicate what type of
     1674       71                    window we think we're changing.
     1675       72            INPUT:
     1676       73                VD_CURRENT_WINDOW$ must point to the VD$FILE_NODE (at level
     1677       74                    1 of the Windows file) of the current editing window.
PL6.E3A0      #002=VDA$WWINDOWS File=VDA$WRITERS.:VDA5TSI                        FRI 07/04/97 11:10 Page:205
     1678       75                    If none currently (implying no editing windows at all
     1679       76                    currently), then VD_CURRENT_WINDOW$ must be NIL.
     1680       77                VD_COMMAND_WINDOW$ must point to the VD$FILE_NODE (at level
     1681       78                    1 of the Windows file) of the command window.
     1682       79                    If none currently (implying we're not completely
     1683       80                    initialized yet) then VD_COMMAND_WINDOW$ must be NIL.
     1684       81            OUTPUT:
     1685       82                Upon normal return:
     1686       83                    SPEC will be %CLEAR; the Port now owns the SPEC and any
     1687       84                        dynamic storage pointed-to by SPEC.V$.
     1688       85                    DATA -- if it's dynamic -- will no longer be owned by the
     1689       86                        caller.  The Port owns it now.  The caller should
     1690       87                        spoil it's pointer to the DATA VD$BUFFER.
     1691       88                Upon non-fatal altreturns, SPEC and DATA will be untouched.
     1692       89                    The caller will still own any dynamic storage associated
     1693       90                    with them.
     1694       91                PORT.LEVEL.SPEC (n) and/or .DATA (n) will contain/point-to
     1695       92                    SPEC/DATA (unchanged if SPEC/DATA omitted).
     1696       93                    In the Port only, a special representation is used for
     1697       94                    components which have been "cleared" (contents erased):
     1698       95                    PORT.LEVEL.SPEC/.DATA will refer to
     1699       96                    a 0-length local string or a 0-length (but allocated)
     1700       97                    buffer, as appropriate.  This special representation is
     1701       98                    used so VDA$PFLUSH will know to actively erase a
     1702       99                    component, rather than ignore it, since if PFLUSH sees
     1703      100                    %CLEAR/NIL in the port it will just ignore the component.
     1704      101                The VD$FILE_NODE for the node will have new copies of the components
     1705      102                    changed by the write.  If components have been "cleared", they
     1706      103                    will be %CLEAR/NIL in the VD$FILE_NODE.
     1707      104                WINDOW$SPEC.OPERAND.STREAM$ - If this is an editing window,
     1708      105                    .STREAM$ will be updated to point to a VD$STREAM
     1709      106                    (which will be open to the window's initial EDIT_BLOCK,
     1710      107                    if any).
     1711      108                WINDOW$SPEC.OPERAND.EDIT_BLOCK$ and .EVAL$ - If this is
     1712      109                    insertion of a new editing window, and the window
     1713      110                    creation worked fine but opening to an initial EditBlock
     1714      111                    failed, we'll return normally, but the .EDIT_BLOCK$ and
PL6.E3A0      #002=VDA$WWINDOWS File=VDA$WRITERS.:VDA5TSI                        FRI 07/04/97 11:10 Page:206
     1715      112                    .EVAL$ (if any) will have been freed.  If you try to
     1716      113                    create a window with an EditBlock and the call comes
     1717      114                    back with no EditBlock in the window spec, then you
     1718      115                    know there's a VDA$FOPEN error on the error chain, waiting
     1719      116                    to be reported.
     1720      117                VD_CURRENT_WINDOW$ - For insertion and replacement, the
     1721      118                    affected window will become the new current window.
     1722      119                    For deletion, VD_CURRENT_WINDOW$ will only be changed
     1723      120                    if the deleted window is the current window; in this case,
     1724      121                    the next editing window will become the current window,
     1725      122                    and if there are no other editing windows, VD_CURRENT_WINDOW$
     1726      123                    will be set to NIL.
     1727      124                VD_COMMAND_WINDOW$ - For insertion, the affected window
     1728      125                    will become the new command window (if there already is
     1729      126                    a command window, we'll screech).
     1730      127                    For deletion, VD_COMMAND_WINDOW$ will be set to NIL.
     1731      128            DESCRIPTION:
     1732      129                If we're inserting a new node (opening a new window):
     1733      130                    Build a stream for the window.
     1734      131                    If there is an .OPERAND.EDIT_BLOCK for the new window,
     1735      132                        open the stream to the edit block.
     1736      133                        NOTE that if the open fails, we want to keep going
     1737      134                        so that we complete the creation of the window.
     1738      135                        However, the EditBlock and Eval stack should be freed,
     1739      136                        tho we should return normally when done (assuming the
     1740      137                        creation of the window succeeded).
     1741      138                    Tell the Presenter to create the window.
     1742      139                    Call VDA$PWRITE.
     1743      140                    Set the new current window.
     1744      141                If we're replacing a node (changing a window's COORDS):
     1745      142                    Tell the Presenter to change the window's COORDS.
     1746      143                    The Presenter has changed the old window spec:  set
     1747      144                        the .SPEC_MODIFIED flag in the port to force a PFLUSH.
     1748      145                    Set the new current window.
     1749      146                If we're erasing the Spec component (deleting the node,
     1750      147                    closing the window):
     1751      148                    Tell the Presenter to close the window.
PL6.E3A0      #002=VDA$WWINDOWS File=VDA$WRITERS.:VDA5TSI                        FRI 07/04/97 11:10 Page:207
     1752      149                    If the window being deleted is the current window,
     1753      150                        find a new current window (if any).
     1754      151                    Call VDA$PDELETE.
     1755      152        */
     1756      153
     1757      154        VDA$WWINDOWS: PROC (PORT, SPEC, DATA, NODE_EXISTS) ALTRET;
     1758      155
     1759      156        %INCLUDE VD_MACROS_M;
     1760     2371        %INCLUDE VD_PERR_C;
     1761     2519        %INCLUDE CP_6;
     1762     2600        %INCLUDE CP_6_SUBS;
     1763     3140
     1764     3141
     1765     3142        %VD$PORT (NAME=PORT, STCLASS=PARAM);
     1766     3240        %VD$SPEC (NAME=SPEC, STCLASS=PARAM);
     1767     3254        %VD$BUFFER (NAME=DATA, STCLASS=PARAM);
     1768     3312    1   DCL NODE_EXISTS BIT(1) ALIGNED;
     1769     3313
     1770     3314
     1771     3315    1   DCL VDA$FCLOSE          ENTRY (1) ALTRET;
     1772     3316    1   DCL VDA$FOPEN           ENTRY (4) ALTRET;
     1773     3317    1   DCL VDA$LREAD           ENTRY (4) ALTRET;
     1774     3318    1   DCL VDA$PWRITE          ENTRY (4) ALTRET;
     1775     3319    1   DCL VDA$PDELETE         ENTRY (4) ALTRET;
     1776     3320    1   DCL VDA$PFLUSH          ENTRY (2) ALTRET;
     1777     3321    1   DCL VDP$WNEW            ENTRY (2) ALTRET;
     1778     3322    1   DCL VDP$WCHANGE         ENTRY (2) ALTRET;
     1779     3323    1   DCL VDP$WREMOVE         ENTRY (1) ALTRET;
     1780     3324    1   DCL VDP$NEQUALS_1_WINDOW ENTRY (3) ALTRET;
     1781     3325    1   DCL VDP$NKEYIN_1_WINDOW ENTRY (3) ALTRET;
     1782     3326    1   DCL VDG$OALLOC          ENTRY (3) ALTRET;
     1783     3327    1   DCL VDG$ERRMSG          ENTRY (4) ALTRET;
     1784     3328    1   DCL VDG$OFREE           ENTRY (1) ALTRET;
     1785     3329    1   DCL VDG$OCOPY           ENTRY (2) ALTRET;
     1786     3330    1   DCL VDG$OCOPY_LOCATION  ENTRY (2) ALTRET;
     1787     3331    1   DCL VDG$OCLEAR_LOCATION ENTRY (1) ALTRET;
     1788     3332    1   DCL VDG$ESCREECH        ENTRY (3);
PL6.E3A0      #002=VDA$WWINDOWS File=VDA$WRITERS.:VDA5TSI                        FRI 07/04/97 11:10 Page:208
     1789     3333
     1790     3334
     1791     3335
     1792     3336        %VD_6E (STCLASS=SYMREF);
     1793     3372    1   DCL VD_CURRENT_WINDOW$ PTR SYMREF;
     1794     3373    1   DCL VD_COMMAND_WINDOW$ PTR SYMREF;
     1795     3374    1   DCL VD_2DIM BIT(1) ALIGNED SYMREF;
     1796     3375    1   DCL VD_EDITING_WINDOWS SBIN SYMREF;
     1797     3376        %VD$NUMBER (NAME=VD_$MIN_COMMAND, STCLASS=SYMREF);
     1798     3421        %VD$NUMBER (NAME=VD_$SCREEN, STCLASS=SYMREF);
     1799     3466        %VD$BUFFER (NAME=VD_$WI_BORDER, STCLASS=SYMREF);
     1800     3524
     1801     3525
     1802     3526
     1803     3527    1   DCL ALTRETURN_WHEN_DONE BIT(1) ALIGNED;
     1804     3528    1   DCL WINDOW_SPEC$ PTR;
     1805     3529    1   DCL GIVEN_COMMAND_WINDOW BIT(1) ALIGNED;
     1806     3530
     1807     3531
     1808     3532        %VD$WINDOW_SPEC (NAME=WINDOW$SPEC, STCLASS="BASED(WINDOW_SPEC$)");
     1809     3598        %VD$STREAM (NAME=KEYINS$STREAM, STCLASS="BASED(VD_6E.KEYINS$)");
     1810     3704        %VD$FILE_NODE;
     1811     3797        %VD$WINDOW_SPEC;
     1812     3863        %VD$TEXTC_REMOTE;
     1813     3924        %VD$TEXTC;
     1814     3947
     1815     3948
     1816     3949
     1817     3950    1           ALTRETURN_WHEN_DONE = %FALSE;
     1818     3951    1           IF ADDR(SPEC) = ADDR(NIL) THEN
     1819     3952    1              RETURN;          /* Nothing to do to Spec, so -- nothing to do!!! */
     1820     3953
     1821     3954                %GETSPEC (SPEC=SPEC, PTR=WINDOW_SPEC$);
     1822     3964
     1823     3965    2           IF WINDOW_SPEC$->VD$TEXTC.LENGTH# = 0 THEN DO;
     1824     3966    2              IF NODE_EXISTS THEN
     1825     3967    2                 CALL DELETE_WINDOW
PL6.E3A0      #002=VDA$WWINDOWS File=VDA$WRITERS.:VDA5TSI                        FRI 07/04/97 11:10 Page:209
     1826     3968    2                   ALTRET (DELETE_WINDOW_FAILED);
     1827     3969    2              VD_EDITING_WINDOWS = PORT.LEVEL.INTERNAL$ (%LVL_FILE) ->
     1828     3970    2                VD$FILE_NODE.COUNT#;
     1829     3971    2              END;
     1830     3972    2           ELSE DO;
     1831     3973    2              WINDOW_SPEC$ = SPEC.V$;
     1832     3974    3              IF NOT NODE_EXISTS THEN DO;
     1833     3975    3                 CALL NEW_WINDOW
     1834     3976    3                   ALTRET (NEW_WINDOW_FAILED);
     1835     3977    3                 VD_EDITING_WINDOWS = VD_EDITING_WINDOWS+1;
     1836     3978                      %CLEARSPEC (SPEC=PORT.LEVEL.SPEC, INDX=%LVL_LOWER);
     1837     3988                      %COPYSPEC (TSPEC=PORT.LEVEL.SPEC, TINDX=%LVL_LOWER,
     1838     3989                      FSPEC="PORT.LEVEL.INTERNAL$(%LVL_LOWER) -> VD$FILE_NODE.DESC.SPEC");
     1839     4005    3                 END;
     1840     4006    2              ELSE
     1841     4007    3   CHANGE_WINDOW: DO;
     1842     4008    3                 GIVEN_COMMAND_WINDOW = WINDOW$SPEC.COMMAND;
     1843     4009    3                 CALL VDP$WCHANGE (PORT.LEVEL.INTERNAL$ (%LVL_LOWER) ->
     1844     4010    3                   VD$FILE_NODE, WINDOW$SPEC)
     1845     4011    3                   ALTRET (WCHANGE_FAILED);
     1846     4012    3                 PORT.LEVEL.SPEC_MODIFIED (%LVL_LOWER) = %TRUE;
     1847     4013
     1848     4014    4                 IF GIVEN_COMMAND_WINDOW THEN DO;
     1849     4015    4                    IF VD_COMMAND_WINDOW$ ~=
     1850     4016    4                      PORT.LEVEL.INTERNAL$ (%LVL_LOWER) THEN
     1851     4017    4                       CALL VDG$ESCREECH;
     1852     4018    4                    END;
     1853     4019    3                 ELSE
     1854     4020    3                    VD_CURRENT_WINDOW$ = PORT.LEVEL.INTERNAL$ (%LVL_LOWER);
     1855     4021    3                 END CHANGE_WINDOW;
     1856     4022    2              END;
     1857     4023
     1858     4024    1           IF ALTRETURN_WHEN_DONE THEN
     1859     4025    1              ALTRETURN;
     1860     4026    1           RETURN;
     1861     4027
     1862     4028
PL6.E3A0      #002=VDA$WWINDOWS File=VDA$WRITERS.:VDA5TSI                        FRI 07/04/97 11:10 Page:210
     1863     4029    1   NEW_WINDOW_FAILED: ;
     1864     4030    1   WCHANGE_FAILED: ;
     1865     4031    1   OALLOC_FAILED: ;
     1866     4032    1   DELETE_WINDOW_FAILED: ;
     1867     4033    1           ALTRETURN;
     1868     4034
     1869     4035
     1870     4036        %EJECT;
PL6.E3A0      #002=VDA$WWINDOWS File=VDA$WRITERS.:VDA5TSI                        FRI 07/04/97 11:10 Page:211
     1871     4037        /*D* NAME: VDA$WREWINDOW
     1872     4038           PARAMETERS:
     1873     4039               WINDOW_NODE - VD$FILE_NODE describing the window being changed
     1874     4040                   from 1dim to 2dim.
     1875     4041               SPEC - FromWindow Spec for calling VDP$WNEW.
     1876     4042           DESCRIPTION:
     1877     4043               Provides an entry point for switching from 1dim to 2dim, so that
     1878     4044               keyins and other TRMCTL parameters get stuffed in the new stream
     1879     4045               from the old window spec.
     1880     4046        */
     1881     4047    1   VDA$WREWINDOW: ENTRY (PORT, SPEC) ALTRET;
     1882     4048
     1883     4049    1           CALL RE_WINDOW
     1884     4050    1             ALTRET (WCHANGE_FAILED);
     1885     4051    1           RETURN;
     1886     4052        %BOX (TITLE=NEW_WINDOW, PAGE=YES);
              4060    1
              4064    1   /***************************************************************************
              4066    1    *                                                                         *
              4070    1            *                                 NEW_WINDOW                              *
              4072    1            *                                                                         *
              4074    1           ***************************************************************************/

     1887     4078
     1888     4079        /*I* NAME: NEW_WINDOW
     1889     4080            PARAMETERS:
     1890     4081                None.
     1891     4082            INPUT:
     1892     4083                PORT, SPEC, and DATA as for main routine.
     1893     4084                WINDOW$SPEC is the VD$WINDOW_SPEC for the new window.
     1894     4085            OUTPUT:
     1895     4086                WINDOW$SPEC.TRMCTL, .EDTCTL, .TABS, .INTRO_1, .INTRO_2, and
     1896     4087                    .KEY_DEFINITION_BUFFER$ will be filled in with values appropriate
     1897     4088                    for this window (based on the window's key).
     1898     4089                The SPEC and DATA components will be written to PORT.
     1899     4090                VDP$WNEW will have done anything necessary with the FEP.
     1900     4091            DESCRIPTION:
PL6.E3A0      #002=VDA$WWINDOWS File=VDA$WRITERS.:VDA5TSI                        FRI 07/04/97 11:10 Page:212
     1901     4092                Determine if we're creating the command window or an editing window.
     1902     4093                If it's the command window, we assume there are currently no other
     1903     4094                    windows in 6Edit's "screen".
     1904     4095                If it's an editing window:
     1905     4096                    Make sure there's enough room on the screen for this window.
     1906     4097                    Allocate a VD$STREAM for the window.
     1907     4098                    If the window has an EditBlock, VDA$FOPEN the stream to it.
     1908     4099                Call VDA$PWRITE to write the Spec and Data components.
     1909     4100                Call VDP$WNEW to open the window's DCB and, if appropriate, create the
     1910     4101                    window in the FEP.
     1911     4102                If the FEP created a new window, it will have:
     1912     4103                    o Used the "from-window" (what we call OLD$WINDOW) to obtain
     1913     4104                        "real estate" (space on the terminal screen) for the new
     1914     4105                        window -- the FEP has shrunk the from-window to make room
     1915     4106                        for the new window.
     1916     4107                    o Copied the terminal parameters and IMPs from UC01 to the new
     1917     4108                        window.  But see star #25506; eventually, the FEP may either:
     1918     4109                        o Copy these things from the from-window, in which case our
     1919     4110                            only recourse is to create a new stream for the new window
     1920     4111                            using M$LDEV, which allows us to specify which stream
     1921     4112                            (window) to copy these things from.
     1922     4113                        o Or the FEP may require that we explicitly request that it
     1923     4114                            copy these things from UC01 via a flag in the FPT_OPEN or
     1924     4115                            VLP_WINDOW.
     1925     4116                Search the Equals and Keyins files for values for this window for the
     1926     4117                    terminal control parameters.  We've saved the user's settings for
     1927     4118                    UC01 in VD_ORIGINAL_TRMCTL, _EDTCTL, and _TAB, so:
     1928     4119                    For the Equals values, use the global VD$NUMBERs/VD$BUFFERs.  Set
     1929     4120                        the value appropriate for the new window in WINDOW$SPEC.  If the
     1930     4121                        value is different from the user's value for UC01, then also
     1931     4122                        set the "flush" flag for the parameter group.
     1932     4123                    For the Keyins, loop thru the Keyins file.  (For keyins, there can
     1933     4124                        be "no value" for a name, if the value for the name has a
     1934     4125                        length of 0.)  For each keyin, add the new window's keyin
     1935     4126                        definition to the new window's KEY_DEFINITION_BUFFER.
     1936     4127        */
     1937     4128
PL6.E3A0      #002=VDA$WWINDOWS File=VDA$WRITERS.:VDA5TSI                        FRI 07/04/97 11:10 Page:213
     1938     4129    1   NEW_WINDOW: PROC ALTRET;
     1939     4130
     1940     4131
     1941     4132
     1942     4133    2   DCL STREAM$ PTR;
     1943     4134    2   DCL EDIT_BLOCK$ PTR;
     1944     4135    2   DCL VD_EVAL$ PTR;
     1945     4136    2   DCL NEXT_EVAL$ PTR;
     1946     4137    2   DCL OLD_WINDOW_NODE$ PTR;
     1947     4138    2   DCL OLD_WINDOW$ PTR;
     1948     4139    2   DCL NEW_WINDOW_KEY$ PTR;
     1949     4140    2   DCL NEW_VALUE$ PTR;
     1950     4141        %VD$LOCATION (NAME=BOF_LOC, STCLASS=AUTO);
     1951     4169    2   DCL KEYINS_PORT$ PTR;
     1952     4170    2   DCL KEYIN_NAME$ PTR;
     1953     4171
     1954     4172
     1955     4173        %VD$STREAM (NAME=STREAM, STCLASS="BASED(STREAM$)");
     1956     4279        %VD$BLOCK_DESC (NAME=EDIT$BLOCK, STCLASS="BASED(EDIT_BLOCK$)");
     1957     4426        %VD$EVAL (NAME=VD$EVAL, STCLASS="BASED(VD_EVAL$)");
     1958     4671        %VD$FILE_NODE (NAME=OLD$WINDOW_NODE, STCLASS="BASED(OLD_WINDOW_NODE$)");
     1959     4764        %VD$WINDOW_SPEC (NAME=OLD$WINDOW, STCLASS="BASED(OLD_WINDOW$)");
     1960     4830        %VD$TEXTC_NUMBER (NAME=NEW$WINDOW_KEY, STCLASS="BASED(NEW_WINDOW_KEY$)");
     1961     4844        %VD$BUFFER (NAME=NEW$VALUE_BUFFER, STCLASS="BASED(NEW_VALUE$)");
     1962     4902        %VD$NUMBER (NAME=NEW$VALUE_NUMBER, STCLASS="BASED(NEW_VALUE$)");
     1963     4947        %VD$POINTER (NAME=NEW$VALUE_PTR, STCLASS="BASED(NEW_VALUE$)");
     1964     4992        %VD$PORT (NAME=KEYINS$PORT, STCLASS="BASED(KEYINS_PORT$)");
     1965     5090        %VD$TEXTC (NAME=KEYIN$NAME, STCLASS="BASED(KEYIN_NAME$)");
     1966     5113    2   DCL X SBIN;
     1967     5114    2   DCL 1 VD_EQUALS_INIT(0:0) SYMREF READONLY,
     1968     5115    2         2 KEY$ PTR,
     1969     5116    2         2 SPEC$ PTR,
     1970     5117    2         2 DATA$ PTR,
     1971     5118    2         2 ACCESS$ PTR;
     1972     5119        %VD$NAME_SPEC;
     1973     5167        %VD$BUFFER (NAME=VD$DATA);
     1974     5225
PL6.E3A0      #002=VDA$WWINDOWS File=VDA$WRITERS.:VDA5TSI                        FRI 07/04/97 11:10 Page:214
     1975     5226
     1976     5227
     1977     5228    2           IF NOT WINDOW$SPEC.COMMAND THEN
     1978     5229    3   NEW_EDITING_WINDOW: DO;
     1979     5230                   /* Make sure there's room for this editing window */
     1980     5231    3              OLD_WINDOW_NODE$ = PORT.LEVEL.INTERNAL$ (%LVL_FILE) ->
     1981     5232    3                OLD$WINDOW_NODE.TAIL$;
     1982     5233    3              OLD_WINDOW$ = OLD$WINDOW_NODE.DESC.SPEC.V$;
     1983     5234    3              IF OLD$WINDOW.COORDS.HEIGHT# < 2*(VD_$WI_BORDER.LENGTH#+1)
     1984     5235    3                AND VD_$SCREEN.V# > 0 THEN
     1985     5236    3                 GOTO NO_ROOM_FOR_WINDOW_FAILURE;
     1986     5237                   /* Adjust height if necessary to make it fit */
     1987     5238    3              IF WINDOW$SPEC.COORDS.HEIGHT# > OLD$WINDOW.COORDS.HEIGHT#-2 THEN
     1988     5239    3                 WINDOW$SPEC.COORDS.HEIGHT# = OLD$WINDOW.COORDS.HEIGHT#-2;
     1989     5240
     1990     5241    3              CALL VDG$OALLOC (%CLS_STREAM, STREAM$)
     1991     5242    3                ALTRET (OALLOC_FAILED);
     1992     5243    3              WINDOW$SPEC.OPERAND.STREAM$ = STREAM$;
     1993     5244
     1994     5245    3              EDIT_BLOCK$ = WINDOW$SPEC.OPERAND.EDIT_BLOCK$;
     1995     5246    3              IF EDIT_BLOCK$ ~= ADDR(NIL) THEN
     1996     5247    4   FOPEN_EDIT_BLOCK: DO;
     1997     5248    4                 IF WINDOW$SPEC.OPERAND.EVAL$ = ADDR(NIL) THEN
     1998     5249    4                    CALL VDG$ESCREECH;
     1999     5250    4                 CALL VDA$FOPEN (STREAM, EDIT$BLOCK.FILE_KEY, 0,
     2000     5251    4                   EDIT$BLOCK.OPTIONS)
     2001     5252    5                 WHENRETURN DO;
     2002     5253                         /* Open succeeded */
     2003     5254    5                    IF EDIT$BLOCK.OPTIONS.EXIST# = %EX_NEW THEN
     2004     5255    5                       EDIT$BLOCK.OPTIONS.EXIST# = %EX_OLD;
     2005     5256    5                    END;   /* WhenReturn */
     2006     5257    5                 WHENALTRETURN DO;
     2007     5258                         /* Open failed:  remove the EditBlock */
     2008     5259    5                    CALL VDG$OFREE (EDIT$BLOCK)
     2009     5260    5                      ALTRET (OFREE_FAILED);
     2010     5261    5                    WINDOW$SPEC.OPERAND.EDIT_BLOCK$ = ADDR(NIL);
     2011     5262    5                    VD_EVAL$ = WINDOW$SPEC.OPERAND.EVAL$;
PL6.E3A0      #002=VDA$WWINDOWS File=VDA$WRITERS.:VDA5TSI                        FRI 07/04/97 11:10 Page:215
     2012     5263    5                    WINDOW$SPEC.OPERAND.EVAL$ = ADDR(NIL);
     2013     5264    6                    DO WHILE VD_EVAL$ ~= ADDR(NIL);
     2014     5265    6                       NEXT_EVAL$ = VD$EVAL.BLINK$;
     2015     5266    6                       CALL VDG$OFREE (VD$EVAL)
     2016     5267    6                         ALTRET (OFREE_FAILED);
     2017     5268    6                       VD_EVAL$ = NEXT_EVAL$;
     2018     5269    6                       END;
     2019     5270    5                    END;   /* WhenAltreturn */
     2020     5271    4                 END FOPEN_EDIT_BLOCK;
     2021     5272    3              END NEW_EDITING_WINDOW;
     2022     5273
     2023     5274    2           ELSE OLD_WINDOW$ = ADDR(NIL);
     2024     5275
     2025     5276    2           CALL VDA$PWRITE (PORT, %LVL_LOWER, SPEC, DATA)
     2026     5277    2             ALTRET (PWRITE_FAILED);
     2027     5278                /* We lost our Spec!! Get it back! */
     2028     5279    2           WINDOW_SPEC$ = PORT.LEVEL.INTERNAL$ (%LVL_LOWER) ->
     2029     5280    2             VD$FILE_NODE.DESC.SPEC.V$;
     2030     5281
     2031     5282    3           IF WINDOW$SPEC.COMMAND THEN DO;
     2032     5283    3              IF VD_COMMAND_WINDOW$ ~= ADDR(NIL) THEN
     2033     5284    3                 CALL VDG$ESCREECH;
     2034     5285    3              VD_COMMAND_WINDOW$ = PORT.LEVEL.INTERNAL$ (%LVL_LOWER);
     2035     5286    3              END;
     2036     5287    2           ELSE
     2037     5288    2              VD_CURRENT_WINDOW$ = PORT.LEVEL.INTERNAL$ (%LVL_LOWER);
     2038     5289
     2039     5290                /*
     2040     5291                *  VD_CURRENT_WINDOW$ must be set for the new window
     2041     5292                *     before we call VDP$WNEW.
     2042     5293                */
     2043     5294
     2044     5295                /*
     2045     5296                *   Set the terminal control parameters for the new window.
     2046     5297                */
     2047     5298                %GETKEY (KEY=PORT.CURRENT.KEY, INDX="%(LVL_LOWER-1)",
     2048     5299                PTR=NEW_WINDOW_KEY$);
PL6.E3A0      #002=VDA$WWINDOWS File=VDA$WRITERS.:VDA5TSI                        FRI 07/04/97 11:10 Page:216
     2049     5309
     2050     5310    2           GOTO GET_PARMS;
     2051     5311    2   RE_WINDOW: ENTRY ALTRET;
     2052     5312                %GETKEY (KEY="ADDR(PORT)->VD$FILE_NODE.DESC.KEY",
     2053     5313                PTR=NEW_WINDOW_KEY$);
     2054     5323    2           WINDOW_SPEC$ = ADDR(PORT)-> VD$FILE_NODE.DESC.SPEC.V$;
     2055     5324    2           OLD_WINDOW$ = ADDR(SPEC);
     2056     5325    2   GET_PARMS:;
     2057     5326    2           X = 0;
     2058     5327    3           DO UNTIL VD_EQUALS_INIT.KEY$(X) = ADDR(NIL);
     2059     5328    4              IF VD_EQUALS_INIT.SPEC$(X)->VD$NAME_SPEC.WINDOWABLE THEN DO;
     2060     5329    4                 CALL FIND_VALUE_FOR_WINDOW (VD_EQUALS_INIT.DATA$(X)->VD$DATA);
     2061     5330    4                 IF NEW$VALUE_BUFFER.LENGTH# > 0
     2062     5331    4                   OR NEW$VALUE_BUFFER.OBJECT.CLASS# = %CLS_BUFFER THEN
     2063     5332    4                    CALL VDP$NEQUALS_1_WINDOW
     2064     5333    4                      (VD_EQUALS_INIT.SPEC$(X)->VD$NAME_SPEC,
     2065     5334    4                      NEW$VALUE_BUFFER, WINDOW$SPEC);
     2066     5335    4                 END;
     2067     5336    3              X = X + 1;
     2068     5337    3              END;
     2069     5338                /*N*
     2070     5339                *N* We should check NEW$VALUE_BUFFER.LENGTH# to see if it's 0, and
     2071     5340                *N*   if so, ignore it.  This is because, for most windowable names,
     2072     5341                *N*   a 0-length entry is just a place-holder in the value-chain,
     2073     5342                *N*   and doesn't represent an actual value.
     2074     5343                *N* However, for $INTRO_1 and $INTRO_2, we need some way to represent
     2075     5344                *N*   both:
     2076     5345                *N*     The place-holder in the value-chain; and
     2077     5346                *N*     An empty string as a value (so user can remove an introducer).
     2078     5347                *N* The correct thing to do is to have some indication in the
     2079     5348                *N*   value-chain entries that they are dummy entries, without using
     2080     5349                *N*   the value's string-length do indicate this.
     2081     5350                *N* For now, the user can't remove an introducer, only change it to
     2082     5351                *N*   something else.
     2083     5352                *N*/
     2084     5353
     2085     5354                /*
PL6.E3A0      #002=VDA$WWINDOWS File=VDA$WRITERS.:VDA5TSI                        FRI 07/04/97 11:10 Page:217
     2086     5355                * Tell the Fep about the window
     2087     5356                */
     2088     5357    2           CALL VDP$WNEW (WINDOW$SPEC, OLD$WINDOW)
     2089     5358    2             ALTRET (WNEW_FAILED);
     2090     5359
     2091     5360                /*
     2092     5361                * Forget keyins if there's not really any windows (yet).
     2093     5362                */
     2094     5363    2           IF VD_$SCREEN.V# = 0 THEN RETURN;
     2095     5364
     2096     5365                /*
     2097     5366                *   Set the keyins for the new window.
     2098     5367                *  On the first VDA$LREAD call, position to BOF.
     2099     5368                */
     2100     5369    2           BOF_LOC = %CLEAR;
     2101     5370    2           CALL VDA$LREAD (KEYINS$STREAM, BOF_LOC, 0, %TRUE)
     2102     5371    2             ALTRET (LREAD_FAILED);
     2103     5372    2           KEYINS_PORT$ = KEYINS$STREAM.PORT$;
     2104     5373
     2105     5374    2   EACH_KEYIN:
     2106     5375    3           DO WHILE NOT KEYINS$STREAM.CURRENT.EOF;
     2107     5376    3              CALL FIND_VALUE_FOR_WINDOW (KEYINS$PORT.LEVEL.DATA$ (%LVL_LOWER) ->
              5376                       VD$DATA);
     2108     5377    4              IF NEW$VALUE_BUFFER.LENGTH# > 0 THEN DO;
     2109     5378                      %GETKEY (KEY=KEYINS$PORT.CURRENT.KEY, INDX="%(LVL_LOWER-1)",
     2110     5379                      PTR=KEYIN_NAME$);
     2111     5389    4                 CALL VDP$NKEYIN_1_WINDOW (KEYIN$NAME, NEW$VALUE_BUFFER,
     2112     5390    4                   WINDOW$SPEC)
     2113     5391    4                   ALTRET (NKEYIN_FAILED);
     2114     5392    4                 END;
     2115     5393
     2116     5394                   /* Read next KEYIN */
     2117     5395    3              CALL VDA$LREAD (KEYINS$STREAM, , 1, %TRUE)
     2118     5396    3                ALTRET (LREAD_FAILED);
     2119     5397    3              END EACH_KEYIN;
     2120     5398
     2121     5399    2           RETURN;
PL6.E3A0      #002=VDA$WWINDOWS File=VDA$WRITERS.:VDA5TSI                        FRI 07/04/97 11:10 Page:218
     2122     5400
     2123     5401
     2124     5402
     2125     5403    2   NO_ROOM_FOR_WINDOW_FAILURE:
     2126     5404    2           CALL VDG$ERRMSG (%E$NO_ROOM_FOR_WINDOW);
     2127     5405    2           ALTRETURN;
     2128     5406
     2129     5407
     2130     5408    2   OALLOC_FAILED: ;
     2131     5409    2   OFREE_FAILED: ;
     2132     5410    2   OCOPY_FAILED: ;
     2133     5411    2   PFLUSH_FAILED: ;
     2134     5412    2   PWRITE_FAILED: ;
     2135     5413    2   WNEW_FAILED: ;
     2136     5414    2   LREAD_FAILED: ;
     2137     5415    2   NKEYIN_FAILED: ;
     2138     5416    2           ALTRETURN;
     2139     5417
     2140     5418        %BOX (TITLE=FIND_VALUE_FOR_WINDOW);

              5430    2   /***************************************************************************
              5432    2    *                                                                         *
              5436    2            *                           FIND_VALUE_FOR_WINDOW                         *
              5438    2            *                                                                         *
              5440    2           ***************************************************************************/

     2141     5444
     2142     5445        /*I** NAME: FIND_VALUE_FOR_WINDOW
     2143     5446            PARAMETER:
     2144     5447                VALUE_CHAIN - VD$NUMBER or VD$BUFFER (or any other "buffer_object") for
     2145     5448                    the value for a terminal parameter or KEYIN name.
     2146     5449                    This is the root of a chain of values, where each value in the chain
     2147     5450                    is for a specific window or group of windows, based on their
     2148     5451                    type and key:
     2149     5452                        First entry in chain:  For all windows.
     2150     5453                        Second entry in chain:  For all editing windows (overrides the
     2151     5454                            first entry).
PL6.E3A0      #002=VDA$WWINDOWS File=VDA$WRITERS.:VDA5TSI                        FRI 07/04/97 11:10 Page:219
     2152     5455                        Successive entry in chain:  For specific windows, where
     2153     5456                            entry "e" in the chain is for the window whose key
     2154     5457                            is "e"-%WI_KEY_OFFSET.  A value in this set overrides
     2155     5458                            values in the first or second entries in the chain.
     2156     5459                    Note on 0-length buffer_objects:  these may appear in the chain
     2157     5460                    simply as place-holders.  If so, they do NOT represent a value
     2158     5461                    for this parameter/KEYIN.  Thus, there may be no value for this
     2159     5462                    parameter/KEYIN at all, in which case this routine will return
     2160     5463                    a 0-length buffer_object.
     2161     5464            INPUT:
     2162     5465                NEW$WINDOW_KEY - key for the window.
     2163     5466                WINDOW$SPEC.COMMAND - %TRUE if the window is a command window;
     2164     5467                    %FALSE otherwise.
     2165     5468                NEW_VALUE$ - An uninitialized result pointer.
     2166     5469            OUTPUT:
     2167     5470                VALUE$ will point to the appropriate VD$NUMBER/BUFFER for the window.
     2168     5471                    If this NUMBER/BUFFER has a .LENGTH# of 0, then there is no value
     2169     5472                    (window-specific or otherwise) for this window in this value-chain.
     2170     5473            DESCRIPTION:
     2171     5474                Search the VALUE_CHAIN for the value appropriate for the window,
     2172     5475                based on KEY and COMMAND.
     2173     5476        */
     2174     5477
     2175     5478    2   FIND_VALUE_FOR_WINDOW: PROC (VALUE_CHAIN);
     2176     5479
     2177     5480        %VD$BUFFER (NAME=VALUE_CHAIN, STCLASS=PARAM);
     2178     5538
     2179     5539
     2180     5540    3   DCL CURR_ENTRY$ PTR;
     2181     5541    3   DCL K SBIN;
     2182     5542
     2183     5543
     2184     5544        %VD$BUFFER (NAME=CURR$ENTRY, STCLASS="BASED(CURR_ENTRY$)");
     2185     5602
     2186     5603
     2187     5604    3           NEW_VALUE$ = ADDR(VALUE_CHAIN);
     2188     5605
PL6.E3A0      #002=VDA$WWINDOWS File=VDA$WRITERS.:VDA5TSI                        FRI 07/04/97 11:10 Page:220
     2189     5606    3           CURR_ENTRY$ = VALUE_CHAIN.FLINK$;
     2190     5607    3           IF CURR_ENTRY$ = ADDR(NIL) THEN
     2191     5608    3              RETURN;  /* No values for the editing windows */
     2192     5609    3           IF CURR$ENTRY.LENGTH# > 0 AND NOT WINDOW$SPEC.COMMAND THEN
     2193     5610    3              NEW_VALUE$ = CURR_ENTRY$;    /* Newest guess */
     2194     5611
     2195     5612    4           DO K = NEW$WINDOW_KEY.BYTES# DOWNTO 0;
     2196     5613    4              CURR_ENTRY$ = CURR$ENTRY.FLINK$;
     2197     5614    4              IF CURR_ENTRY$ = ADDR(NIL) THEN
     2198     5615    4                 RETURN;       /* No value for this specific window */
     2199     5616    4              END;
     2200     5617    3           IF CURR$ENTRY.LENGTH# > 0 THEN
     2201     5618    3              NEW_VALUE$ = CURR_ENTRY$;    /* This is it */
     2202     5619
     2203     5620    3           RETURN;
     2204     5621
     2205     5622    3   END FIND_VALUE_FOR_WINDOW;
     2206     5623
     2207     5624    2   END NEW_WINDOW;
     2208     5625
     2209     5626        %BOX (TITLE=DELETE_WINDOW, PAGE=YES);
              5634    2
              5638    2   /***************************************************************************
              5640    2    *                                                                         *
              5644    2            *                               DELETE_WINDOW                             *
              5646    2            *                                                                         *
              5648    2           ***************************************************************************/

     2210     5652
     2211     5653        /*I* NAME: DELETE_WINDOW
     2212     5654            PARAMETERS:
     2213     5655                None.
     2214     5656            INPUT:
     2215     5657                PORT, SPEC, and DATA as for main routine.
     2216     5658            OUTPUT:
     2217     5659                The file node to which PORT is currently positioned will be deleted
     2218     5660                    from the file.
PL6.E3A0      #002=VDA$WWINDOWS File=VDA$WRITERS.:VDA5TSI                        FRI 07/04/97 11:10 Page:221
     2219     5661            DESCRIPTION:
     2220     5662                Determine if we're deleting the command window or an editing window.
     2221     5663                Call VDP$WREMOVE to close the window's DCB.
     2222     5664                If we're deleting the current window, find a new editing window to be
     2223     5665                    the current window.  If we're deleting the only editing window,
     2224     5666                    then turn VD_2DIM off, and "change" the command window to
     2225     5667                    serial (1-dimensional) mode.
     2226     5668                Call VDA$PDELETE to delete the node from the Windows file.
     2227     5669        */
     2228     5670
     2229     5671    1   DELETE_WINDOW: PROC ALTRET;
     2230     5672
     2231     5673
     2232     5674        %VD$RANGE (NAME=DEL_RANGE, STCLASS=AUTO);
     2233     5743    2   DCL COUNT SBIN;
     2234     5744        %VD$WINDOW_SPEC (NAME=SPEC_CLEAR, STCLASS=AUTO);
     2235     5810
     2236     5811        %VD$STREAM;
     2237     5917
     2238     5918
     2239     5919
     2240     5920    2           SPEC_CLEAR = %CLEAR;
     2241     5921    2           WINDOW_SPEC$ = PORT.LEVEL.INTERNAL$ (%LVL_LOWER) ->
     2242     5922    2             VD$FILE_NODE.DESC.SPEC.V$;
     2243     5923        /* Release space to editing windows until there are no more */
     2244     5924    2           IF PORT.LEVEL.INTERNAL$ (%LVL_LOWER) ->
     2245     5925    2             VD$FILE_NODE.BLINK$ = VD_COMMAND_WINDOW$ AND
     2246     5926    2             PORT.LEVEL.INTERNAL$ (%LVL_LOWER) ->
     2247     5927    2             VD$FILE_NODE.FLINK$ ~= ADDR(NIL) THEN
     2248     5928    2              WINDOW$SPEC.COORDS.LINE# = -1;
     2249     5929    2           CALL VDP$WCHANGE (PORT.LEVEL.INTERNAL$ (%LVL_LOWER) -> VD$FILE_NODE,
     2250     5930    2             SPEC_CLEAR) ALTRET (WCHANGE_FAILED);
     2251     5931    2           IF WINDOW$SPEC.OPERAND.STREAM$ ~= ADDR(NIL) THEN
     2252     5932    2              CALL VDA$FCLOSE (WINDOW$SPEC.OPERAND.STREAM$ -> VD$STREAM)
     2253     5933    2                ALTRET (FCLOSE_FAILED);
     2254     5934
     2255     5935    2           CALL VDP$WREMOVE (WINDOW$SPEC)
PL6.E3A0      #002=VDA$WWINDOWS File=VDA$WRITERS.:VDA5TSI                        FRI 07/04/97 11:10 Page:222
     2256     5936    2             ALTRET (WREMOVE_FAILED);
     2257     5937
     2258     5938    2           IF VD_CURRENT_WINDOW$ = PORT.LEVEL.INTERNAL$ (%LVL_LOWER) THEN
     2259     5939    3   FIND_NEW_CURRENT_WINDOW: DO;
     2260     5940                   /* Deleting current editing window:  find new one */
     2261     5941    3              VD_CURRENT_WINDOW$ = VD_CURRENT_WINDOW$ -> VD$FILE_NODE.FLINK$;
     2262     5942    3              IF VD_CURRENT_WINDOW$ = ADDR(NIL) THEN
     2263     5943    3                 VD_CURRENT_WINDOW$ = PORT.LEVEL.INTERNAL$ (%LVL_FILE) ->
     2264     5944    3                   VD$FILE_NODE.HEAD$ -> VD$FILE_NODE.FLINK$;
     2265     5945    4              IF VD_CURRENT_WINDOW$ = PORT.LEVEL.INTERNAL$ (%LVL_LOWER) THEN DO;
     2266     5946                      /* Deleting the only editing window */
     2267     5947    4                 VD_CURRENT_WINDOW$ = ADDR(NIL);
     2268     5948    4                 END;
     2269     5949    3              END;
     2270     5950
     2271     5951    3           IF PORT.LEVEL.INTERNAL$ (%LVL_LOWER) = VD_COMMAND_WINDOW$ THEN DO;
     2272     5952                   /* Deleting the command window */
     2273     5953    3              VD_COMMAND_WINDOW$ = ADDR(NIL);
     2274     5954    3              END;
     2275     5955
     2276     5956    2           CALL VDG$OCOPY_LOCATION (PORT.CURRENT, DEL_RANGE.START)
     2277     5957    2             ALTRET (OCOPY_LOCATION_FAILED);
     2278     5958    2           DEL_RANGE.ENDD = DEL_RANGE.START;
     2279     5959
     2280     5960    2           CALL VDA$PDELETE (PORT, DEL_RANGE, %LVL_LOWER, COUNT)
     2281     5961    2             ALTRET (PDELETE_FAILED);
     2282     5962
     2283     5963    2           CALL VDG$OCLEAR_LOCATION (DEL_RANGE.START)
     2284     5964    2             ALTRET (OCLEAR_LOCATION_FAILED);
     2285     5965
     2286     5966    2           RETURN;
     2287     5967
     2288     5968
     2289     5969
     2290     5970    2   WREMOVE_FAILED: ;
     2291     5971    2   FCLOSE_FAILED: ;
     2292     5972    2   WCHANGE_FAILED: ;
PL6.E3A0      #002=VDA$WWINDOWS File=VDA$WRITERS.:VDA5TSI                        FRI 07/04/97 11:10 Page:223
     2293     5973    2   OCOPY_LOCATION_FAILED: ;
     2294     5974    2   PDELETE_FAILED: ;
     2295     5975    2   OCLEAR_LOCATION_FAILED: ;
     2296     5976    2           ALTRETURN;
     2297     5977
     2298     5978    2   END DELETE_WINDOW;
     2299     5979
     2300     5980    1   END VDA$WWINDOWS;

PL6.E3A0      #002=VDA$WWINDOWS File=VDA$WRITERS.:VDA5TSI                        FRI 07/04/97 11:10 Page:224
--  Include file information  --

   CP_6_SUBS.:LIBRARY  is referenced.
   CP_6.:LIBRARY  cannot be made into a system file and is referenced.
   VD_PERR_C.:VDA5TOU  is referenced.
   VD_MACROS_M.:VDA5TOU  is referenced.
   B$JIT_C.:E04TOU  was found in the system file and is never referenced.
   CP_6_C.:E04TOU  was found in the system file and is referenced.
      No diagnostics issued in procedure VDA$WWINDOWS.

   Procedure VDA$WWINDOWS requires 510 words for executable code.
   Procedure VDA$WWINDOWS requires 60 words of local(AUTO) storage.

    No errors detected in file VDA$WRITERS.:VDA5TSI    .

PL6.E3A0      #002=VDA$WWINDOWS File=VDA$WRITERS.:VDA5TSI                        FRI 07/04/97 11:10 Page:225

 Object Unit name= VDA$WWINDOWS                               File name= VDA$WRITERS.:VDA5TOU
 UTS= JUL 04 '97 11:10:26.32 FRI                              Compiler= PL-6/E31         Sev=      00
 SharedLib= :SHARED_SYSTEM                                    Alt SharedLib=


    ****  Control sections  ****

 Sect   Type Bound  Init  Size OctSiz  Section name(segment info)
    0   DCB   even  none     0      0  M$UC
    1   Proc  even  none   510    776  VDA$WWINDOWS
    2  RoData even  none    10     12  VDA$WWINDOWS

    ****  Entry defs  ****

                              Check   Calling
                             calling  sequence
  Sect OctLoc Primary Altret sequence   type   Parms  Name
     1      0   yes    yes     yes      Std        4  VDA$WWINDOWS
     1    152          yes     yes      Std        2  VDA$WREWINDOW
PL6.E3A0      #002=VDA$WWINDOWS File=VDA$WRITERS.:VDA5TSI                        FRI 07/04/97 11:10 Page:226

  ****  Entry refs  ****

         Check        Calling
        calling       sequence
Altret sequence SRef   type   Args  Name
 yes     yes           Std       1 VDG$OFREE
         yes           Std       3 VDG$ESCREECH
 yes     yes           Std       2 VDG$OCOPY
 yes     yes           Std       2 VDP$WCHANGE
 yes     yes           Std       3 VDG$OALLOC
 yes     yes           Std       3 VDP$NKEYIN_1_WINDOW
 yes     yes           Std       4 VDA$LREAD
 yes     yes           Std       4 VDA$FOPEN
 yes     yes           Std       4 VDG$ERRMSG
 yes     yes           Std       4 VDA$PWRITE
 yes     yes           Std       3 VDP$NEQUALS_1_WINDOW
 yes     yes           Std       2 VDP$WNEW
 yes     yes           Std       1 VDA$FCLOSE
 yes     yes           Std       2 VDG$OCOPY_LOCATION
 yes     yes           Std       4 VDA$PDELETE
 yes     yes           Std       1 VDG$OCLEAR_LOCATION
 yes     yes           Std       1 VDP$WREMOVE
                       nStd      0 X66_AUTO_4
                       Std       0 B_CONSPOOL_D
                       nStd      0 X66_ARET
                       nStd      0 X66_AALT

  ****  Data refs  ****

  Flags:  r = read only, s = secondary
Flgs Name                             Flgs Name                             Flgs Name
     M$UC                                  VD_6E                                 VD_CURRENT_WINDOW$
     VD_COMMAND_WINDOW$                    VD_EDITING_WINDOWS                    VD_$SCREEN
     VD_$WI_BORDER                    r    VD_EQUALS_INIT                        B_VECTNIL
PL6.E3A0      #002=VDA$WWINDOWS File=VDA$WRITERS.:VDA5TSI                        FRI 07/04/97 11:10 Page:227

  ****  Segment refs  ****

  Flags:  r = read only, s = secondary
Flgs Name                             Flgs Name                             Flgs Name
     ISSID
PL6.E3A0      #002=VDA$WWINDOWS File=VDA$WRITERS.:VDA5TSI                        FRI 07/04/97 11:10 Page:228


     1604        1        /*T***********************************************************/
     1605        2        /*T*                                                         */
     1606        3        /*T* Copyright (c) Bull HN Information Systems Inc., 1997    */
     1607        4        /*T*                                                         */
     1608        5        /*T***********************************************************/
     1609        6        /*D* NAME: VDA$WWINDOWS
     1610        7            PARAMETERS:
     1611        8                PORT - VD$PORT into which a node from a predefined file has been
     1612        9                    read.  PORT.LEVEL.SPEC (%LVL_LOWER) and .DATA$ (%LVL_LOWER)
     1613       10                    contain copies of the Spec and Data components of the
     1614       11                    old version of the node, if any.
     1615       12                    The user must have write-access to the file.
     1616       13                SPEC - Optional VD$SPEC specifying the new Spec component
     1617       14                    for the node.  If you don't want to affect the
     1618       15                    Spec component, omit this parameter; to erase the
     1619       16                    node's current Spec component, SPEC should specify a
     1620       17                    0-length string.  For the Windows file, erasing the Spec
     1621       18                    component implies that the entire node is to be deleted.
     1622       19                    If passed, SPEC must point to a VD$WINDOW_SPEC.
     1623       20                    Note - Passing a VD$SPEC which is BASED on a pointer
     1624       21                        which is currently NIL acts as tho you omitted
     1625       22                        the parameter -- the Spec component isn't affected.
     1626       23                    Note - Any dynamic storage pointed-to by SPEC will no
     1627       24                        longer be owned by the caller after this call!!
     1628       25                        Give me a Spec and I keep it, not you.  See SPEC
     1629       26                        under OUTPUT comments.
     1630       27                DATA - Optional VD$BUFFER containing the new Data component
     1631       28                    for the node.  If you don't want to affect the
     1632       29                    Data component, omit this parameter; to erase the
     1633       30                    node's current Data component, DATA should specify a
     1634       31                    0-length string (VD$BUFFER.LENGTH# = 0).
     1635       32                    For the Windows file, erasing the Data component does simply
     1636       33                        that:  frees the old Data component.
     1637       34                    Note - Passing a VD$BUFFER which is BASED on a pointer
     1638       35                        which is currently NIL acts as tho you omitted
     1639       36                        the parameter -- the Data component isn't affected.
PL6.E3A0      #002=VDA$WWINDOWS File=VDA$WRITERS.:VDA5TSI                        FRI 07/04/97 11:10 Page:229
     1640       37                    Note - DATA must reside in either dynamic storage, static,
     1641       38                        or constant -- never the caller's auto storage!!
     1642       39                        If DATA resides in dynamic (as indicated by having a
     1643       40                        non-0 .OBJECT.SIZE#), it will no longer be owned
     1644       41                        by the caller after this call.
     1645       42                        Give me a Data buffer and I keep it, not you.  See
     1646       43                        DATA under OUTPUT comments.
     1647       44                NODE_EXISTS - A BIT(1) ALIGNED flag.  If set, then the Port contains
     1648       45                    an old node which is being replaced by SPEC and/or DATA.
     1649       46                    If NODE_EXISTS = %FALSE, then SPEC and DATA represent
     1650       47                    a node which is being inserted into the file.
     1651       48                If NODE_EXISTS = %FALSE (insertion, new window), SPEC's WINDOW$SPEC
     1652       49                must contain:
     1653       50                    .COMMAND - If set, this is a command window:  .OPERAND
     1654       51                            is ignored.
     1655       52                        If reset, this is an editing window:  we'll allocate a
     1656       53                            new stream for the new window.
     1657       54                    .COORDS must specify the .HEIGHT# and .WIDTH# (as # lines
     1658       55                        or percentages) only; .LINE# and .COLUMN# must be 0.
     1659       56                    .OPERAND.STREAM$ should be NIL.
     1660       57                    .OPERAND.EDIT_BLOCK$ must point to a VD$BLOCK_DESC for the
     1661       58                        initial edit block for the new window; may
     1662       59                        be NIL for an initially empty window.
     1663       60                    .OPERAND.EVAL$ - If .EDIT_BLOCK$ is not NIL, .EVAL$ must
     1664       61                        point to a VD$EVAL for the initial range for the
     1665       62                        new window; else must be NIL.
     1666       63                    .DCB# must be 0 for the new window.
     1667       64                    The remaining info in WINDOW$SPEC must be %CLEAR/NIL.
     1668       65                If NODE_EXISTS = %TRUE (replacement), WINDOW$SPEC must contain
     1669       66                    only .COMMAND, .COORDS.HEIGHT#, and .COORDS.WIDTH# (the
     1670       67                    COORDS must be given as numbers of lines, not as percentages).
     1671       68                    The COORDS are the only window parameters which can be
     1672       69                    changed without deleting then reinserting the window.
     1673       70                    The .COMMAND flag must be set to indicate what type of
     1674       71                    window we think we're changing.
     1675       72            INPUT:
     1676       73                VD_CURRENT_WINDOW$ must point to the VD$FILE_NODE (at level
PL6.E3A0      #002=VDA$WWINDOWS File=VDA$WRITERS.:VDA5TSI                        FRI 07/04/97 11:10 Page:230
     1677       74                    1 of the Windows file) of the current editing window.
     1678       75                    If none currently (implying no editing windows at all
     1679       76                    currently), then VD_CURRENT_WINDOW$ must be NIL.
     1680       77                VD_COMMAND_WINDOW$ must point to the VD$FILE_NODE (at level
     1681       78                    1 of the Windows file) of the command window.
     1682       79                    If none currently (implying we're not completely
     1683       80                    initialized yet) then VD_COMMAND_WINDOW$ must be NIL.
     1684       81            OUTPUT:
     1685       82                Upon normal return:
     1686       83                    SPEC will be %CLEAR; the Port now owns the SPEC and any
     1687       84                        dynamic storage pointed-to by SPEC.V$.
     1688       85                    DATA -- if it's dynamic -- will no longer be owned by the
     1689       86                        caller.  The Port owns it now.  The caller should
     1690       87                        spoil it's pointer to the DATA VD$BUFFER.
     1691       88                Upon non-fatal altreturns, SPEC and DATA will be untouched.
     1692       89                    The caller will still own any dynamic storage associated
     1693       90                    with them.
     1694       91                PORT.LEVEL.SPEC (n) and/or .DATA (n) will contain/point-to
     1695       92                    SPEC/DATA (unchanged if SPEC/DATA omitted).
     1696       93                    In the Port only, a special representation is used for
     1697       94                    components which have been "cleared" (contents erased):
     1698       95                    PORT.LEVEL.SPEC/.DATA will refer to
     1699       96                    a 0-length local string or a 0-length (but allocated)
     1700       97                    buffer, as appropriate.  This special representation is
     1701       98                    used so VDA$PFLUSH will know to actively erase a
     1702       99                    component, rather than ignore it, since if PFLUSH sees
     1703      100                    %CLEAR/NIL in the port it will just ignore the component.
     1704      101                The VD$FILE_NODE for the node will have new copies of the components
     1705      102                    changed by the write.  If components have been "cleared", they
     1706      103                    will be %CLEAR/NIL in the VD$FILE_NODE.
     1707      104                WINDOW$SPEC.OPERAND.STREAM$ - If this is an editing window,
     1708      105                    .STREAM$ will be updated to point to a VD$STREAM
     1709      106                    (which will be open to the window's initial EDIT_BLOCK,
     1710      107                    if any).
     1711      108                WINDOW$SPEC.OPERAND.EDIT_BLOCK$ and .EVAL$ - If this is
     1712      109                    insertion of a new editing window, and the window
     1713      110                    creation worked fine but opening to an initial EditBlock
PL6.E3A0      #002=VDA$WWINDOWS File=VDA$WRITERS.:VDA5TSI                        FRI 07/04/97 11:10 Page:231
     1714      111                    failed, we'll return normally, but the .EDIT_BLOCK$ and
     1715      112                    .EVAL$ (if any) will have been freed.  If you try to
     1716      113                    create a window with an EditBlock and the call comes
     1717      114                    back with no EditBlock in the window spec, then you
     1718      115                    know there's a VDA$FOPEN error on the error chain, waiting
     1719      116                    to be reported.
     1720      117                VD_CURRENT_WINDOW$ - For insertion and replacement, the
     1721      118                    affected window will become the new current window.
     1722      119                    For deletion, VD_CURRENT_WINDOW$ will only be changed
     1723      120                    if the deleted window is the current window; in this case,
     1724      121                    the next editing window will become the current window,
     1725      122                    and if there are no other editing windows, VD_CURRENT_WINDOW$
     1726      123                    will be set to NIL.
     1727      124                VD_COMMAND_WINDOW$ - For insertion, the affected window
     1728      125                    will become the new command window (if there already is
     1729      126                    a command window, we'll screech).
     1730      127                    For deletion, VD_COMMAND_WINDOW$ will be set to NIL.
     1731      128            DESCRIPTION:
     1732      129                If we're inserting a new node (opening a new window):
     1733      130                    Build a stream for the window.
     1734      131                    If there is an .OPERAND.EDIT_BLOCK for the new window,
     1735      132                        open the stream to the edit block.
     1736      133                        NOTE that if the open fails, we want to keep going
     1737      134                        so that we complete the creation of the window.
     1738      135                        However, the EditBlock and Eval stack should be freed,
     1739      136                        tho we should return normally when done (assuming the
     1740      137                        creation of the window succeeded).
     1741      138                    Tell the Presenter to create the window.
     1742      139                    Call VDA$PWRITE.
     1743      140                    Set the new current window.
     1744      141                If we're replacing a node (changing a window's COORDS):
     1745      142                    Tell the Presenter to change the window's COORDS.
     1746      143                    The Presenter has changed the old window spec:  set
     1747      144                        the .SPEC_MODIFIED flag in the port to force a PFLUSH.
     1748      145                    Set the new current window.
     1749      146                If we're erasing the Spec component (deleting the node,
     1750      147                    closing the window):
PL6.E3A0      #002=VDA$WWINDOWS File=VDA$WRITERS.:VDA5TSI                        FRI 07/04/97 11:10 Page:232
     1751      148                    Tell the Presenter to close the window.
     1752      149                    If the window being deleted is the current window,
     1753      150                        find a new current window (if any).
     1754      151                    Call VDA$PDELETE.
     1755      152        */
     1756      153
     1757      154        VDA$WWINDOWS: PROC (PORT, SPEC, DATA, NODE_EXISTS) ALTRET;

    154  1 000000   000000 700200 xent  VDA$WWINDOWS TSX0  ! X66_AUTO_4
         1 000001   000074 000004                    ZERO    60,4

     1758      155
     1759      156        %INCLUDE VD_MACROS_M;
     1760     2371        %INCLUDE VD_PERR_C;
     1761     2519        %INCLUDE CP_6;
     1762     2600        %INCLUDE CP_6_SUBS;
     1763     3140
     1764     3141
     1765     3142        %VD$PORT (NAME=PORT, STCLASS=PARAM);
     1766     3240        %VD$SPEC (NAME=SPEC, STCLASS=PARAM);
     1767     3254        %VD$BUFFER (NAME=DATA, STCLASS=PARAM);
     1768     3312    1   DCL NODE_EXISTS BIT(1) ALIGNED;
     1769     3313
     1770     3314
     1771     3315    1   DCL VDA$FCLOSE          ENTRY (1) ALTRET;
     1772     3316    1   DCL VDA$FOPEN           ENTRY (4) ALTRET;
     1773     3317    1   DCL VDA$LREAD           ENTRY (4) ALTRET;
     1774     3318    1   DCL VDA$PWRITE          ENTRY (4) ALTRET;
     1775     3319    1   DCL VDA$PDELETE         ENTRY (4) ALTRET;
     1776     3320    1   DCL VDA$PFLUSH          ENTRY (2) ALTRET;
     1777     3321    1   DCL VDP$WNEW            ENTRY (2) ALTRET;
     1778     3322    1   DCL VDP$WCHANGE         ENTRY (2) ALTRET;
     1779     3323    1   DCL VDP$WREMOVE         ENTRY (1) ALTRET;
     1780     3324    1   DCL VDP$NEQUALS_1_WINDOW ENTRY (3) ALTRET;
     1781     3325    1   DCL VDP$NKEYIN_1_WINDOW ENTRY (3) ALTRET;
     1782     3326    1   DCL VDG$OALLOC          ENTRY (3) ALTRET;
     1783     3327    1   DCL VDG$ERRMSG          ENTRY (4) ALTRET;
PL6.E3A0      #002=VDA$WWINDOWS File=VDA$WRITERS.:VDA5TSI                        FRI 07/04/97 11:10 Page:233
     1784     3328    1   DCL VDG$OFREE           ENTRY (1) ALTRET;
     1785     3329    1   DCL VDG$OCOPY           ENTRY (2) ALTRET;
     1786     3330    1   DCL VDG$OCOPY_LOCATION  ENTRY (2) ALTRET;
     1787     3331    1   DCL VDG$OCLEAR_LOCATION ENTRY (1) ALTRET;
     1788     3332    1   DCL VDG$ESCREECH        ENTRY (3);
     1789     3333
     1790     3334
     1791     3335
     1792     3336        %VD_6E (STCLASS=SYMREF);
     1793     3372    1   DCL VD_CURRENT_WINDOW$ PTR SYMREF;
     1794     3373    1   DCL VD_COMMAND_WINDOW$ PTR SYMREF;
     1795     3374    1   DCL VD_2DIM BIT(1) ALIGNED SYMREF;
     1796     3375    1   DCL VD_EDITING_WINDOWS SBIN SYMREF;
     1797     3376        %VD$NUMBER (NAME=VD_$MIN_COMMAND, STCLASS=SYMREF);
     1798     3421        %VD$NUMBER (NAME=VD_$SCREEN, STCLASS=SYMREF);
     1799     3466        %VD$BUFFER (NAME=VD_$WI_BORDER, STCLASS=SYMREF);
     1800     3524
     1801     3525
     1802     3526
     1803     3527    1   DCL ALTRETURN_WHEN_DONE BIT(1) ALIGNED;
     1804     3528    1   DCL WINDOW_SPEC$ PTR;
     1805     3529    1   DCL GIVEN_COMMAND_WINDOW BIT(1) ALIGNED;
     1806     3530
     1807     3531
     1808     3532        %VD$WINDOW_SPEC (NAME=WINDOW$SPEC, STCLASS="BASED(WINDOW_SPEC$)");
     1809     3598        %VD$STREAM (NAME=KEYINS$STREAM, STCLASS="BASED(VD_6E.KEYINS$)");
     1810     3704        %VD$FILE_NODE;
     1811     3797        %VD$WINDOW_SPEC;
     1812     3863        %VD$TEXTC_REMOTE;
     1813     3924        %VD$TEXTC;
     1814     3947
     1815     3948
     1816     3949
     1817     3950    1           ALTRETURN_WHEN_DONE = %FALSE;

   3950  1 000002   200007 450100                    STZ     ALTRETURN_WHEN_DONE,,AUTO

PL6.E3A0      #002=VDA$WWINDOWS File=VDA$WRITERS.:VDA5TSI                        FRI 07/04/97 11:10 Page:234
     1818     3951    1           IF ADDR(SPEC) = ADDR(NIL) THEN

   3951  1 000003   200004 236100                    LDQ     @SPEC,,AUTO
         1 000004   000001 116000 xsym               CMPQ    B_VECTNIL+1
         1 000005   000007 601000 1                  TNZ     s:3961

     1819     3952    1              RETURN;          /* Nothing to do to Spec, so -- nothing to do!!! */

   3952  1 000006   000000 702200 xent               TSX2  ! X66_ARET

     1820     3953
     1821     3954                %GETSPEC (SPEC=SPEC, PTR=WINDOW_SPEC$);

   3961  1 000007   200004 470500                    LDP0    @SPEC,,AUTO
         1 000010   000000 720100                    LXL0    0,,PR0
         1 000011   000002 100003                    CMPX0   2,DU
         1 000012   000017 601000 1                  TNZ     s:3961+8

   3961  1 000013   000001 471500                    LDP1    1,,PR0
         1 000014   100002 633500                    EPPR3   2,,PR1
         1 000015   200010 453500                    STP3    WINDOW_SPEC$,,AUTO
         1 000016   000021 710000 1                  TRA     s:3965

   3961  1 000017   000001 036003                    ADLQ    1,DU
         1 000020   200010 756100                    STQ     WINDOW_SPEC$,,AUTO

     1822     3964
     1823     3965    2           IF WINDOW_SPEC$->VD$TEXTC.LENGTH# = 0 THEN DO;

   3965  1 000021   200010 471500                    LDP1    WINDOW_SPEC$,,AUTO
         1 000022   100000 236100                    LDQ     0,,PR1
         1 000023   777000 316003                    CANQ    -512,DU
         1 000024   000037 601000 1                  TNZ     s:3973

     1824     3966    2              IF NODE_EXISTS THEN

   3966  1 000025   200006 473500                    LDP3    @NODE_EXISTS,,AUTO
PL6.E3A0      #002=VDA$WWINDOWS File=VDA$WRITERS.:VDA5TSI                        FRI 07/04/97 11:10 Page:235
         1 000026   300000 234100                    SZN     0,,PR3
         1 000027   000032 605000 1                  TPL     s:3969

     1825     3967    2                 CALL DELETE_WINDOW

   3967  1 000030   000637 701000 1                  TSX1    DELETE_WINDOW
         1 000031   000151 702000 1                  TSX2    NEW_WINDOW_FAILED

     1826     3968    2                   ALTRET (DELETE_WINDOW_FAILED);
     1827     3969    2              VD_EDITING_WINDOWS = PORT.LEVEL.INTERNAL$ (%LVL_FILE) ->

   3969  1 000032   200003 470500                    LDP0    @PORT,,AUTO
         1 000033   000031 471500                    LDP1    25,,PR0
         1 000034   100014 235100                    LDA     12,,PR1
         1 000035   000000 755000 xsym               STA     VD_EDITING_WINDOWS

     1828     3970    2                VD$FILE_NODE.COUNT#;
     1829     3971    2              END;

   3971  1 000036   000145 710000 1                  TRA     s:4024

     1830     3972    2           ELSE DO;

     1831     3973    2              WINDOW_SPEC$ = SPEC.V$;

   3973  1 000037   000001 236100                    LDQ     1,,PR0
         1 000040   200010 756100                    STQ     WINDOW_SPEC$,,AUTO

     1832     3974    3              IF NOT NODE_EXISTS THEN DO;

   3974  1 000041   200006 471500                    LDP1    @NODE_EXISTS,,AUTO
         1 000042   100000 234100                    SZN     0,,PR1
         1 000043   000111 604000 1                  TMI     CHANGE_WINDOW

     1833     3975    3                 CALL NEW_WINDOW

   3975  1 000044   000157 701000 1                  TSX1    NEW_WINDOW
PL6.E3A0      #002=VDA$WWINDOWS File=VDA$WRITERS.:VDA5TSI                        FRI 07/04/97 11:10 Page:236
         1 000045   000151 702000 1                  TSX2    NEW_WINDOW_FAILED

     1834     3976    3                   ALTRET (NEW_WINDOW_FAILED);
     1835     3977    3                 VD_EDITING_WINDOWS = VD_EDITING_WINDOWS+1;

   3977  1 000046   000000 054000 xsym               AOS     VD_EDITING_WINDOWS

     1836     3978                      %CLEARSPEC (SPEC=PORT.LEVEL.SPEC, INDX=%LVL_LOWER);

   3985  1 000047   200003 470500                    LDP0    @PORT,,AUTO
         1 000050   000034 720100                    LXL0    28,,PR0
         1 000051   000002 100003                    CMPX0   2,DU
         1 000052   000063 601000 1                  TNZ     s:3986+1

   3985  1 000053   000035 471500                    LDP1    29,,PR0
         1 000054   200070 451500                    STP1    K+21,,AUTO
         1 000055   200070 630500                    EPPR0   K+21,,AUTO
         1 000056   000017 631400 xsym               EPPR1   B_VECTNIL+15
         1 000057   000000 701000 xent               TSX1    VDG$OFREE
         1 000060   000062 702000 1                  TSX2    s:3986
         1 000061   000063 710000 1                  TRA     s:3986+1

   3986  1 000062   000000 702200 xent               TSX2  ! X66_AALT

   3986  1 000063   200003 470500                    LDP0    @PORT,,AUTO
         1 000064   000034 450100                    STZ     28,,PR0
         1 000065   000035 450100                    STZ     29,,PR0

     1837     3988                      %COPYSPEC (TSPEC=PORT.LEVEL.SPEC, TINDX=%LVL_LOWER,
     1838     3989                      FSPEC="PORT.LEVEL.INTERNAL$(%LVL_LOWER) -> VD$FILE_NODE.DESC.SPEC");

   4002  1 000066   000040 471500                    LDP1    32,,PR0
         1 000067   000100 100500                    MLR     fill='000'O
         1 000070   100006 000010                    ADSC9   6,,PR1                   cn=0,n=8
         1 000071   000034 000010                    ADSC9   28,,PR0                  cn=0,n=8

   4002  1 000072   100006 720100                    LXL0    6,,PR1
PL6.E3A0      #002=VDA$WWINDOWS File=VDA$WRITERS.:VDA5TSI                        FRI 07/04/97 11:10 Page:237
         1 000073   000002 100003                    CMPX0   2,DU
         1 000074   000145 601000 1                  TNZ     s:4024

   4002  1 000075   100007 473500                    LDP3    7,,PR1
         1 000076   200003 236100                    LDQ     @PORT,,AUTO
         1 000077   000035 036003                    ADLQ    29,DU
         1 000100   200071 756100                    STQ     K+22,,AUTO
         1 000101   200070 453500                    STP3    K+21,,AUTO
         1 000102   200070 630500                    EPPR0   K+21,,AUTO
         1 000103   000020 631400 xsym               EPPR1   B_VECTNIL+16
         1 000104   000000 701000 xent               TSX1    VDG$OCOPY
         1 000105   000107 702000 1                  TSX2    s:4003
         1 000106   000110 710000 1                  TRA     s:4005

   4003  1 000107   000000 702200 xent               TSX2  ! X66_AALT

     1839     4005    3                 END;

   4005  1 000110   000145 710000 1                  TRA     s:4024

     1840     4006    2              ELSE
     1841     4007    3   CHANGE_WINDOW: DO;

   4007  1 000111                       CHANGE_WIND* null
     1842     4008    3                 GIVEN_COMMAND_WINDOW = WINDOW$SPEC.COMMAND;

   4008  1 000111   200010 473500                    LDP3    WINDOW_SPEC$,,AUTO
         1 000112   300002 236100                    LDQ     2,,PR3
         1 000113   000011 736000                    QLS     9
         1 000114   400000 376003                    ANQ     -131072,DU
         1 000115   200011 756100                    STQ     GIVEN_COMMAND_WINDOW,,AUTO

     1843     4009    3                 CALL VDP$WCHANGE (PORT.LEVEL.INTERNAL$ (%LVL_LOWER) ->

   4009  1 000116   200003 474500                    LDP4    @PORT,,AUTO
         1 000117   400040 475500                    LDP5    32,,PR4
         1 000120   200010 236100                    LDQ     WINDOW_SPEC$,,AUTO
PL6.E3A0      #002=VDA$WWINDOWS File=VDA$WRITERS.:VDA5TSI                        FRI 07/04/97 11:10 Page:238
         1 000121   200071 756100                    STQ     K+22,,AUTO
         1 000122   200070 455500                    STP5    K+21,,AUTO
         1 000123   200070 630500                    EPPR0   K+21,,AUTO
         1 000124   000020 631400 xsym               EPPR1   B_VECTNIL+16
         1 000125   000000 701000 xent               TSX1    VDP$WCHANGE
         1 000126   000151 702000 1                  TSX2    NEW_WINDOW_FAILED

     1844     4010    3                   VD$FILE_NODE, WINDOW$SPEC)
     1845     4011    3                   ALTRET (WCHANGE_FAILED);
     1846     4012    3                 PORT.LEVEL.SPEC_MODIFIED (%LVL_LOWER) = %TRUE;

   4012  1 000127   200003 470500                    LDP0    @PORT,,AUTO
         1 000130   400000 236003                    LDQ     -131072,DU
         1 000131   000037 256100                    ORSQ    31,,PR0

     1847     4013
     1848     4014    4                 IF GIVEN_COMMAND_WINDOW THEN DO;

   4014  1 000132   200011 234100                    SZN     GIVEN_COMMAND_WINDOW,,AUTO
         1 000133   000143 605000 1                  TPL     s:4020

     1849     4015    4                    IF VD_COMMAND_WINDOW$ ~=

   4015  1 000134   000000 236000 xsym               LDQ     VD_COMMAND_WINDOW$
         1 000135   000040 116100                    CMPQ    32,,PR0
         1 000136   000145 600000 1                  TZE     s:4024

     1850     4016    4                      PORT.LEVEL.INTERNAL$ (%LVL_LOWER) THEN
     1851     4017    4                       CALL VDG$ESCREECH;

   4017  1 000137   000002 631400 xsym               EPPR1   B_VECTNIL+2
         1 000140   000000 701000 xent               TSX1    VDG$ESCREECH
         1 000141   000000 011000                    NOP     0

     1852     4018    4                    END;

   4018  1 000142   000145 710000 1                  TRA     s:4024
PL6.E3A0      #002=VDA$WWINDOWS File=VDA$WRITERS.:VDA5TSI                        FRI 07/04/97 11:10 Page:239

     1853     4019    3                 ELSE
     1854     4020    3                    VD_CURRENT_WINDOW$ = PORT.LEVEL.INTERNAL$ (%LVL_LOWER);

   4020  1 000143   000040 236100                    LDQ     32,,PR0
         1 000144   000000 756000 xsym               STQ     VD_CURRENT_WINDOW$

     1855     4021    3                 END CHANGE_WINDOW;

     1856     4022    2              END;

     1857     4023
     1858     4024    1           IF ALTRETURN_WHEN_DONE THEN

   4024  1 000145   200007 234100                    SZN     ALTRETURN_WHEN_DONE,,AUTO
         1 000146   000150 605000 1                  TPL     s:4026

     1859     4025    1              ALTRETURN;

   4025  1 000147   000000 702200 xent               TSX2  ! X66_AALT

     1860     4026    1           RETURN;

   4026  1 000150   000000 702200 xent               TSX2  ! X66_ARET

   4024  1 000151                       NEW_WINDOW_* null
   4024  1 000151                       WCHANGE_FAI* null
   4024  1 000151                       OALLOC_FAIL* null
   4024  1 000151                       DELETE_WIND* null
     1861     4027
     1862     4028
     1863     4029    1   NEW_WINDOW_FAILED: ;
     1864     4030    1   WCHANGE_FAILED: ;
     1865     4031    1   OALLOC_FAILED: ;
     1866     4032    1   DELETE_WINDOW_FAILED: ;
     1867     4033    1           ALTRETURN;

PL6.E3A0      #002=VDA$WWINDOWS File=VDA$WRITERS.:VDA5TSI                        FRI 07/04/97 11:10 Page:240
   4033  1 000151   000000 702200 xent               TSX2  ! X66_AALT

     1868     4034
     1869     4035
     1870     4036        %EJECT;
PL6.E3A0      #002=VDA$WWINDOWS File=VDA$WRITERS.:VDA5TSI                        FRI 07/04/97 11:10 Page:241
     1871     4037        /*D* NAME: VDA$WREWINDOW
     1872     4038           PARAMETERS:
     1873     4039               WINDOW_NODE - VD$FILE_NODE describing the window being changed
     1874     4040                   from 1dim to 2dim.
     1875     4041               SPEC - FromWindow Spec for calling VDP$WNEW.
     1876     4042           DESCRIPTION:
     1877     4043               Provides an entry point for switching from 1dim to 2dim, so that
     1878     4044               keyins and other TRMCTL parameters get stuffed in the new stream
     1879     4045               from the old window spec.
     1880     4046        */
     1881     4047    1   VDA$WREWINDOW: ENTRY (PORT, SPEC) ALTRET;

   4047  1 000152   000000 700200 xent  VDA$WREWIND* TSX0  ! X66_AUTO_4
         1 000153   000074 000004                    ZERO    60,4

     1882     4048
     1883     4049    1           CALL RE_WINDOW

   4049  1 000154   000364 701000 1                  TSX1    RE_WINDOW
         1 000155   000151 702000 1                  TSX2    NEW_WINDOW_FAILED

     1884     4050    1             ALTRET (WCHANGE_FAILED);
     1885     4051    1           RETURN;

   4051  1 000156   000000 702200 xent               TSX2  ! X66_ARET

     1886     4052        %BOX (TITLE=NEW_WINDOW, PAGE=YES);
              4060    1
              4064    1   /***************************************************************************
              4066    1    *                                                                         *
              4070    1            *                                 NEW_WINDOW                             *
              4072    1            *                                                                        *
              4074    1          ***************************************************************************/

     1887     4078
     1888     4079        /*I* NAME: NEW_WINDOW
     1889     4080            PARAMETERS:
PL6.E3A0      #002=VDA$WWINDOWS File=VDA$WRITERS.:VDA5TSI                        FRI 07/04/97 11:10 Page:242
     1890     4081                None.
     1891     4082            INPUT:
     1892     4083                PORT, SPEC, and DATA as for main routine.
     1893     4084                WINDOW$SPEC is the VD$WINDOW_SPEC for the new window.
     1894     4085            OUTPUT:
     1895     4086                WINDOW$SPEC.TRMCTL, .EDTCTL, .TABS, .INTRO_1, .INTRO_2, and
     1896     4087                    .KEY_DEFINITION_BUFFER$ will be filled in with values appropriate
     1897     4088                    for this window (based on the window's key).
     1898     4089                The SPEC and DATA components will be written to PORT.
     1899     4090                VDP$WNEW will have done anything necessary with the FEP.
     1900     4091            DESCRIPTION:
     1901     4092                Determine if we're creating the command window or an editing window.
     1902     4093                If it's the command window, we assume there are currently no other
     1903     4094                    windows in 6Edit's "screen".
     1904     4095                If it's an editing window:
     1905     4096                    Make sure there's enough room on the screen for this window.
     1906     4097                    Allocate a VD$STREAM for the window.
     1907     4098                    If the window has an EditBlock, VDA$FOPEN the stream to it.
     1908     4099                Call VDA$PWRITE to write the Spec and Data components.
     1909     4100                Call VDP$WNEW to open the window's DCB and, if appropriate, create the
     1910     4101                    window in the FEP.
     1911     4102                If the FEP created a new window, it will have:
     1912     4103                    o Used the "from-window" (what we call OLD$WINDOW) to obtain
     1913     4104                        "real estate" (space on the terminal screen) for the new
     1914     4105                        window -- the FEP has shrunk the from-window to make room
     1915     4106                        for the new window.
     1916     4107                    o Copied the terminal parameters and IMPs from UC01 to the new
     1917     4108                        window.  But see star #25506; eventually, the FEP may either:
     1918     4109                        o Copy these things from the from-window, in which case our
     1919     4110                            only recourse is to create a new stream for the new window
     1920     4111                            using M$LDEV, which allows us to specify which stream
     1921     4112                            (window) to copy these things from.
     1922     4113                        o Or the FEP may require that we explicitly request that it
     1923     4114                            copy these things from UC01 via a flag in the FPT_OPEN or
     1924     4115                            VLP_WINDOW.
     1925     4116                Search the Equals and Keyins files for values for this window for the
     1926     4117                    terminal control parameters.  We've saved the user's settings for
PL6.E3A0      #002=VDA$WWINDOWS File=VDA$WRITERS.:VDA5TSI                        FRI 07/04/97 11:10 Page:243
     1927     4118                    UC01 in VD_ORIGINAL_TRMCTL, _EDTCTL, and _TAB, so:
     1928     4119                    For the Equals values, use the global VD$NUMBERs/VD$BUFFERs.  Set
     1929     4120                        the value appropriate for the new window in WINDOW$SPEC.  If the
     1930     4121                        value is different from the user's value for UC01, then also
     1931     4122                        set the "flush" flag for the parameter group.
     1932     4123                    For the Keyins, loop thru the Keyins file.  (For keyins, there can
     1933     4124                        be "no value" for a name, if the value for the name has a
     1934     4125                        length of 0.)  For each keyin, add the new window's keyin
     1935     4126                        definition to the new window's KEY_DEFINITION_BUFFER.
     1936     4127        */
     1937     4128
     1938     4129    1   NEW_WINDOW: PROC ALTRET;

   4129  1 000157   200012 741300       NEW_WINDOW   STX1  ! GIVEN_COMMAND_WINDOW+1,,AUTO

     1939     4130
     1940     4131
     1941     4132
     1942     4133    2   DCL STREAM$ PTR;
     1943     4134    2   DCL EDIT_BLOCK$ PTR;
     1944     4135    2   DCL VD_EVAL$ PTR;
     1945     4136    2   DCL NEXT_EVAL$ PTR;
     1946     4137    2   DCL OLD_WINDOW_NODE$ PTR;
     1947     4138    2   DCL OLD_WINDOW$ PTR;
     1948     4139    2   DCL NEW_WINDOW_KEY$ PTR;
     1949     4140    2   DCL NEW_VALUE$ PTR;
     1950     4141        %VD$LOCATION (NAME=BOF_LOC, STCLASS=AUTO);
     1951     4169    2   DCL KEYINS_PORT$ PTR;
     1952     4170    2   DCL KEYIN_NAME$ PTR;
     1953     4171
     1954     4172
     1955     4173        %VD$STREAM (NAME=STREAM, STCLASS="BASED(STREAM$)");
     1956     4279        %VD$BLOCK_DESC (NAME=EDIT$BLOCK, STCLASS="BASED(EDIT_BLOCK$)");
     1957     4426        %VD$EVAL (NAME=VD$EVAL, STCLASS="BASED(VD_EVAL$)");
     1958     4671        %VD$FILE_NODE (NAME=OLD$WINDOW_NODE, STCLASS="BASED(OLD_WINDOW_NODE$)");
     1959     4764        %VD$WINDOW_SPEC (NAME=OLD$WINDOW, STCLASS="BASED(OLD_WINDOW$)");
     1960     4830        %VD$TEXTC_NUMBER (NAME=NEW$WINDOW_KEY, STCLASS="BASED(NEW_WINDOW_KEY$)");
PL6.E3A0      #002=VDA$WWINDOWS File=VDA$WRITERS.:VDA5TSI                        FRI 07/04/97 11:10 Page:244
     1961     4844        %VD$BUFFER (NAME=NEW$VALUE_BUFFER, STCLASS="BASED(NEW_VALUE$)");
     1962     4902        %VD$NUMBER (NAME=NEW$VALUE_NUMBER, STCLASS="BASED(NEW_VALUE$)");
     1963     4947        %VD$POINTER (NAME=NEW$VALUE_PTR, STCLASS="BASED(NEW_VALUE$)");
     1964     4992        %VD$PORT (NAME=KEYINS$PORT, STCLASS="BASED(KEYINS_PORT$)");
     1965     5090        %VD$TEXTC (NAME=KEYIN$NAME, STCLASS="BASED(KEYIN_NAME$)");
     1966     5113    2   DCL X SBIN;
     1967     5114    2   DCL 1 VD_EQUALS_INIT(0:0) SYMREF READONLY,
     1968     5115    2         2 KEY$ PTR,
     1969     5116    2         2 SPEC$ PTR,
     1970     5117    2         2 DATA$ PTR,
     1971     5118    2         2 ACCESS$ PTR;
     1972     5119        %VD$NAME_SPEC;
     1973     5167        %VD$BUFFER (NAME=VD$DATA);
     1974     5225
     1975     5226
     1976     5227
     1977     5228    2           IF NOT WINDOW$SPEC.COMMAND THEN

   5228  1 000160   200010 470500                    LDP0    WINDOW_SPEC$,,AUTO
         1 000161   000002 236100                    LDQ     2,,PR0
         1 000162   000400 316003                    CANQ    256,DU
         1 000163   000312 601000 1                  TNZ     s:5274

     1978     5229    3   NEW_EDITING_WINDOW: DO;

   5229  1 000164                       NEW_EDITING* null
     1979     5230                   /* Make sure there's room for this editing window */
     1980     5231    3              OLD_WINDOW_NODE$ = PORT.LEVEL.INTERNAL$ (%LVL_FILE) ->

   5231  1 000164   200003 471500                    LDP1    @PORT,,AUTO
         1 000165   100031 473500                    LDP3    25,,PR1
         1 000166   300013 236100                    LDQ     11,,PR3
         1 000167   200017 756100                    STQ     OLD_WINDOW_NODE$,,AUTO

     1981     5232    3                OLD$WINDOW_NODE.TAIL$;
     1982     5233    3              OLD_WINDOW$ = OLD$WINDOW_NODE.DESC.SPEC.V$;

PL6.E3A0      #002=VDA$WWINDOWS File=VDA$WRITERS.:VDA5TSI                        FRI 07/04/97 11:10 Page:245
   5233  1 000170   200017 474500                    LDP4    OLD_WINDOW_NODE$,,AUTO
         1 000171   400007 236100                    LDQ     7,,PR4
         1 000172   200020 756100                    STQ     OLD_WINDOW$,,AUTO

     1983     5234    3              IF OLD$WINDOW.COORDS.HEIGHT# < 2*(VD_$WI_BORDER.LENGTH#+1)

   5234  1 000173   200020 475500                    LDP5    OLD_WINDOW$,,AUTO
         1 000174   000002 236000 xsym               LDQ     VD_$WI_BORDER+2
         1 000175   777777 376003                    ANQ     -1,DU
         1 000176   000021 732000                    QRS     17
         1 000177   000002 036007                    ADLQ    2,DL
         1 000200   500005 116100                    CMPQ    5,,PR5
         1 000201   000204 604400 1                  TMOZ    s:5238
         1 000202   000003 235000 xsym               LDA     VD_$SCREEN+3
         1 000203   000556 605400 1                  TPNZ    NO_ROOM_FOR_WINDOW_FAILURE

     1984     5235    3                AND VD_$SCREEN.V# > 0 THEN
     1985     5236    3                 GOTO NO_ROOM_FOR_WINDOW_FAILURE;
     1986     5237                   /* Adjust height if necessary to make it fit */
     1987     5238    3              IF WINDOW$SPEC.COORDS.HEIGHT# > OLD$WINDOW.COORDS.HEIGHT#-2 THEN

   5238  1 000204   500005 236100                    LDQ     5,,PR5
         1 000205   000002 136007                    SBLQ    2,DL
         1 000206   000005 116100                    CMPQ    5,,PR0
         1 000207   000211 605000 1                  TPL     s:5241

     1988     5239    3                 WINDOW$SPEC.COORDS.HEIGHT# = OLD$WINDOW.COORDS.HEIGHT#-2;

   5239  1 000210   000005 756100                    STQ     5,,PR0

     1989     5240
     1990     5241    3              CALL VDG$OALLOC (%CLS_STREAM, STREAM$)

   5241  1 000211   200013 633500                    EPPR3   STREAM$,,AUTO
         1 000212   200071 453500                    STP3    K+22,,AUTO
         1 000213   000001 236000 2                  LDQ     1
         1 000214   200070 756100                    STQ     K+21,,AUTO
PL6.E3A0      #002=VDA$WWINDOWS File=VDA$WRITERS.:VDA5TSI                        FRI 07/04/97 11:10 Page:246
         1 000215   200070 630500                    EPPR0   K+21,,AUTO
         1 000216   000020 631400 xsym               EPPR1   B_VECTNIL+16
         1 000217   000000 701000 xent               TSX1    VDG$OALLOC
         1 000220   000564 702000 1                  TSX2    OALLOC_FAILED

     1991     5242    3                ALTRET (OALLOC_FAILED);
     1992     5243    3              WINDOW$SPEC.OPERAND.STREAM$ = STREAM$;

   5243  1 000221   200013 236100                    LDQ     STREAM$,,AUTO
         1 000222   200010 470500                    LDP0    WINDOW_SPEC$,,AUTO
         1 000223   000010 756100                    STQ     8,,PR0

     1993     5244
     1994     5245    3              EDIT_BLOCK$ = WINDOW$SPEC.OPERAND.EDIT_BLOCK$;

   5245  1 000224   000012 236100                    LDQ     10,,PR0
         1 000225   200014 756100                    STQ     EDIT_BLOCK$,,AUTO

     1995     5246    3              IF EDIT_BLOCK$ ~= ADDR(NIL) THEN

   5246  1 000226   000001 116000 xsym               CMPQ    B_VECTNIL+1
         1 000227   000314 600000 1                  TZE     s:5276

     1996     5247    4   FOPEN_EDIT_BLOCK: DO;

   5247  1 000230                       FOPEN_EDIT_* null
     1997     5248    4                 IF WINDOW$SPEC.OPERAND.EVAL$ = ADDR(NIL) THEN

   5248  1 000230   000013 236100                    LDQ     11,,PR0
         1 000231   000001 116000 xsym               CMPQ    B_VECTNIL+1
         1 000232   000236 601000 1                  TNZ     s:5250

     1998     5249    4                    CALL VDG$ESCREECH;

   5249  1 000233   000002 631400 xsym               EPPR1   B_VECTNIL+2
         1 000234   000000 701000 xent               TSX1    VDG$ESCREECH
         1 000235   000000 011000                    NOP     0
PL6.E3A0      #002=VDA$WWINDOWS File=VDA$WRITERS.:VDA5TSI                        FRI 07/04/97 11:10 Page:247

     1999     5250    4                 CALL VDA$FOPEN (STREAM, EDIT$BLOCK.FILE_KEY, 0,

   5250  1 000236   200014 236100                    LDQ     EDIT_BLOCK$,,AUTO
         1 000237   000025 036003                    ADLQ    21,DU
         1 000240   000002 235000 2                  LDA     2
         1 000241   200072 757100                    STAQ    K+23,,AUTO
         1 000242   200014 236100                    LDQ     EDIT_BLOCK$,,AUTO
         1 000243   000001 036003                    ADLQ    1,DU
         1 000244   200013 235100                    LDA     STREAM$,,AUTO
         1 000245   200070 757100                    STAQ    K+21,,AUTO
         1 000246   200070 630500                    EPPR0   K+21,,AUTO
         1 000247   000022 631400 xsym               EPPR1   B_VECTNIL+18
         1 000250   000000 701000 xent               TSX1    VDA$FOPEN
         1 000251   000261 702000 1                  TSX2    s:5259

     2000     5251    4                   EDIT$BLOCK.OPTIONS)
     2001     5252    5                 WHENRETURN DO;

     2002     5253                         /* Open succeeded */
     2003     5254    5                    IF EDIT$BLOCK.OPTIONS.EXIST# = %EX_NEW THEN

   5254  1 000252   200014 470500                    LDP0    EDIT_BLOCK$,,AUTO
         1 000253   000027 720100                    LXL0    23,,PR0
         1 000254   000001 100003                    CMPX0   1,DU
         1 000255   000260 601000 1                  TNZ     s:5256

     2004     5255    5                       EDIT$BLOCK.OPTIONS.EXIST# = %EX_OLD;

   5255  1 000256   000002 221003                    LDX1    2,DU
         1 000257   000027 441100                    SXL1    23,,PR0

     2005     5256    5                    END;   /* WhenReturn */

   5256  1 000260   000311 710000 1                  TRA     s:5272

     2006     5257    5                 WHENALTRETURN DO;
PL6.E3A0      #002=VDA$WWINDOWS File=VDA$WRITERS.:VDA5TSI                        FRI 07/04/97 11:10 Page:248

     2007     5258                         /* Open failed:  remove the EditBlock */
     2008     5259    5                    CALL VDG$OFREE (EDIT$BLOCK)

   5259  1 000261   200014 630500                    EPPR0   EDIT_BLOCK$,,AUTO
         1 000262   000017 631400 xsym               EPPR1   B_VECTNIL+15
         1 000263   000000 701000 xent               TSX1    VDG$OFREE
         1 000264   000564 702000 1                  TSX2    OALLOC_FAILED

     2009     5260    5                      ALTRET (OFREE_FAILED);
     2010     5261    5                    WINDOW$SPEC.OPERAND.EDIT_BLOCK$ = ADDR(NIL);

   5261  1 000265   000001 236000 xsym               LDQ     B_VECTNIL+1
         1 000266   200010 470500                    LDP0    WINDOW_SPEC$,,AUTO
         1 000267   000012 756100                    STQ     10,,PR0

     2011     5262    5                    VD_EVAL$ = WINDOW$SPEC.OPERAND.EVAL$;

   5262  1 000270   000013 236100                    LDQ     11,,PR0
         1 000271   200015 756100                    STQ     VD_EVAL$,,AUTO

     2012     5263    5                    WINDOW$SPEC.OPERAND.EVAL$ = ADDR(NIL);

   5263  1 000272   000001 236000 xsym               LDQ     B_VECTNIL+1
         1 000273   000013 756100                    STQ     11,,PR0

     2013     5264    6                    DO WHILE VD_EVAL$ ~= ADDR(NIL);

   5264  1 000274   000306 710000 1                  TRA     s:5269

     2014     5265    6                       NEXT_EVAL$ = VD$EVAL.BLINK$;

   5265  1 000275   200015 470500                    LDP0    VD_EVAL$,,AUTO
         1 000276   000001 236100                    LDQ     1,,PR0
         1 000277   200016 756100                    STQ     NEXT_EVAL$,,AUTO

     2015     5266    6                       CALL VDG$OFREE (VD$EVAL)
PL6.E3A0      #002=VDA$WWINDOWS File=VDA$WRITERS.:VDA5TSI                        FRI 07/04/97 11:10 Page:249

   5266  1 000300   200015 630500                    EPPR0   VD_EVAL$,,AUTO
         1 000301   000017 631400 xsym               EPPR1   B_VECTNIL+15
         1 000302   000000 701000 xent               TSX1    VDG$OFREE
         1 000303   000564 702000 1                  TSX2    OALLOC_FAILED

     2016     5267    6                         ALTRET (OFREE_FAILED);
     2017     5268    6                       VD_EVAL$ = NEXT_EVAL$;

   5268  1 000304   200016 236100                    LDQ     NEXT_EVAL$,,AUTO
         1 000305   200015 756100                    STQ     VD_EVAL$,,AUTO

     2018     5269    6                       END;

   5269  1 000306   200015 236100                    LDQ     VD_EVAL$,,AUTO
         1 000307   000001 116000 xsym               CMPQ    B_VECTNIL+1
         1 000310   000275 601000 1                  TNZ     s:5265

     2019     5270    5                    END;   /* WhenAltreturn */

     2020     5271    4                 END FOPEN_EDIT_BLOCK;

     2021     5272    3              END NEW_EDITING_WINDOW;

   5272  1 000311   000314 710000 1                  TRA     s:5276

     2022     5273
     2023     5274    2           ELSE OLD_WINDOW$ = ADDR(NIL);

   5274  1 000312   000001 236000 xsym               LDQ     B_VECTNIL+1
         1 000313   200020 756100                    STQ     OLD_WINDOW$,,AUTO

     2024     5275
     2025     5276    2           CALL VDA$PWRITE (PORT, %LVL_LOWER, SPEC, DATA)

   5276  1 000314   200004 237100                    LDAQ    @SPEC,,AUTO
         1 000315   200072 757100                    STAQ    K+23,,AUTO
PL6.E3A0      #002=VDA$WWINDOWS File=VDA$WRITERS.:VDA5TSI                        FRI 07/04/97 11:10 Page:250
         1 000316   000003 236000 2                  LDQ     3
         1 000317   200003 235100                    LDA     @PORT,,AUTO
         1 000320   200070 757100                    STAQ    K+21,,AUTO
         1 000321   200070 630500                    EPPR0   K+21,,AUTO
         1 000322   000022 631400 xsym               EPPR1   B_VECTNIL+18
         1 000323   000000 701000 xent               TSX1    VDA$PWRITE
         1 000324   000564 702000 1                  TSX2    OALLOC_FAILED

     2026     5277    2             ALTRET (PWRITE_FAILED);
     2027     5278                /* We lost our Spec!! Get it back! */
     2028     5279    2           WINDOW_SPEC$ = PORT.LEVEL.INTERNAL$ (%LVL_LOWER) ->

   5279  1 000325   200003 470500                    LDP0    @PORT,,AUTO
         1 000326   000040 471500                    LDP1    32,,PR0
         1 000327   100007 236100                    LDQ     7,,PR1
         1 000330   200010 756100                    STQ     WINDOW_SPEC$,,AUTO

     2029     5280    2             VD$FILE_NODE.DESC.SPEC.V$;
     2030     5281
     2031     5282    3           IF WINDOW$SPEC.COMMAND THEN DO;

   5282  1 000331   200010 473500                    LDP3    WINDOW_SPEC$,,AUTO
         1 000332   300002 236100                    LDQ     2,,PR3
         1 000333   000400 316003                    CANQ    256,DU
         1 000334   000347 600000 1                  TZE     s:5288

     2032     5283    3              IF VD_COMMAND_WINDOW$ ~= ADDR(NIL) THEN

   5283  1 000335   000000 236000 xsym               LDQ     VD_COMMAND_WINDOW$
         1 000336   000001 116000 xsym               CMPQ    B_VECTNIL+1
         1 000337   000343 600000 1                  TZE     s:5285

     2033     5284    3                 CALL VDG$ESCREECH;

   5284  1 000340   000002 631400 xsym               EPPR1   B_VECTNIL+2
         1 000341   000000 701000 xent               TSX1    VDG$ESCREECH
         1 000342   000000 011000                    NOP     0
PL6.E3A0      #002=VDA$WWINDOWS File=VDA$WRITERS.:VDA5TSI                        FRI 07/04/97 11:10 Page:251

     2034     5285    3              VD_COMMAND_WINDOW$ = PORT.LEVEL.INTERNAL$ (%LVL_LOWER);

   5285  1 000343   200003 470500                    LDP0    @PORT,,AUTO
         1 000344   000040 236100                    LDQ     32,,PR0
         1 000345   000000 756000 xsym               STQ     VD_COMMAND_WINDOW$

     2035     5286    3              END;

   5286  1 000346   000351 710000 1                  TRA     s:5306

     2036     5287    2           ELSE
     2037     5288    2              VD_CURRENT_WINDOW$ = PORT.LEVEL.INTERNAL$ (%LVL_LOWER);

   5288  1 000347   000040 236100                    LDQ     32,,PR0
         1 000350   000000 756000 xsym               STQ     VD_CURRENT_WINDOW$

     2038     5289
     2039     5290                /*
     2040     5291                *  VD_CURRENT_WINDOW$ must be set for the new window
     2041     5292                *     before we call VDP$WNEW.
     2042     5293                */
     2043     5294
     2044     5295                /*
     2045     5296                *   Set the terminal control parameters for the new window.
     2046     5297                */
     2047     5298                %GETKEY (KEY=PORT.CURRENT.KEY, INDX="%(LVL_LOWER-1)",
     2048     5299                PTR=NEW_WINDOW_KEY$);

   5306  1 000351   000012 720100                    LXL0    10,,PR0
         1 000352   000002 100003                    CMPX0   2,DU
         1 000353   000360 601000 1                  TNZ     s:5306+7

   5306  1 000354   000013 471500                    LDP1    11,,PR0
         1 000355   100002 633500                    EPPR3   2,,PR1
         1 000356   200021 453500                    STP3    NEW_WINDOW_KEY$,,AUTO
         1 000357   000363 710000 1                  TRA     s:5310
PL6.E3A0      #002=VDA$WWINDOWS File=VDA$WRITERS.:VDA5TSI                        FRI 07/04/97 11:10 Page:252

   5306  1 000360   200003 236100                    LDQ     @PORT,,AUTO
         1 000361   000013 036003                    ADLQ    11,DU
         1 000362   200021 756100                    STQ     NEW_WINDOW_KEY$,,AUTO

     2049     5309
     2050     5310    2           GOTO GET_PARMS;

   5310  1 000363   000404 710000 1                  TRA     GET_PARMS

     2051     5311    2   RE_WINDOW: ENTRY ALTRET;

   5311  1 000364   200012 741300       RE_WINDOW    STX1  ! GIVEN_COMMAND_WINDOW+1,,AUTO

     2052     5312                %GETKEY (KEY="ADDR(PORT)->VD$FILE_NODE.DESC.KEY",
     2053     5313                PTR=NEW_WINDOW_KEY$);

   5320  1 000365   200003 470500                    LDP0    @PORT,,AUTO
         1 000366   000004 720100                    LXL0    4,,PR0
         1 000367   000002 100003                    CMPX0   2,DU
         1 000370   000375 601000 1                  TNZ     s:5320+8

   5320  1 000371   000005 471500                    LDP1    5,,PR0
         1 000372   100002 633500                    EPPR3   2,,PR1
         1 000373   200021 453500                    STP3    NEW_WINDOW_KEY$,,AUTO
         1 000374   000400 710000 1                  TRA     s:5323

   5320  1 000375   200003 236100                    LDQ     @PORT,,AUTO
         1 000376   000005 036003                    ADLQ    5,DU
         1 000377   200021 756100                    STQ     NEW_WINDOW_KEY$,,AUTO

     2054     5323    2           WINDOW_SPEC$ = ADDR(PORT)-> VD$FILE_NODE.DESC.SPEC.V$;

   5323  1 000400   000007 236100                    LDQ     7,,PR0
         1 000401   200010 756100                    STQ     WINDOW_SPEC$,,AUTO

     2055     5324    2           OLD_WINDOW$ = ADDR(SPEC);
PL6.E3A0      #002=VDA$WWINDOWS File=VDA$WRITERS.:VDA5TSI                        FRI 07/04/97 11:10 Page:253

   5324  1 000402   200004 236100                    LDQ     @SPEC,,AUTO
         1 000403   200020 756100                    STQ     OLD_WINDOW$,,AUTO

   5324  1 000404                       GET_PARMS    null
     2056     5325    2   GET_PARMS:;
     2057     5326    2           X = 0;

   5326  1 000404   200036 450100                    STZ     X,,AUTO

     2058     5327    3           DO UNTIL VD_EQUALS_INIT.KEY$(X) = ADDR(NIL);

     2059     5328    4              IF VD_EQUALS_INIT.SPEC$(X)->VD$NAME_SPEC.WINDOWABLE THEN DO;

   5328  1 000405   200036 235100                    LDA     X,,AUTO
         1 000406   000002 735000                    ALS     2
         1 000407   000001 470405 xsym               LDP0    VD_EQUALS_INIT+1,AL
         1 000410   000003 236100                    LDQ     3,,PR0
         1 000411   400000 316007                    CANQ    -131072,DL
         1 000412   000441 600000 1                  TZE     s:5336

     2060     5329    4                 CALL FIND_VALUE_FOR_WINDOW (VD_EQUALS_INIT.DATA$(X)->VD$DATA);

   5329  1 000413   000002 471405 xsym               LDP1    VD_EQUALS_INIT+2,AL
         1 000414   200041 451500                    STP1    SPEC_CLEAR+3,,AUTO
         1 000415   000566 701000 1                  TSX1    FIND_VALUE_FOR_WINDOW
         1 000416   000000 011000                    NOP     0

     2061     5330    4                 IF NEW$VALUE_BUFFER.LENGTH# > 0

   5330  1 000417   200022 470500                    LDP0    NEW_VALUE$,,AUTO
         1 000420   000002 220100                    LDX0    2,,PR0
         1 000421   000425 605400 1                  TPNZ    s:5332
         1 000422   000000 221100                    LDX1    0,,PR0
         1 000423   000004 101003                    CMPX1   4,DU
         1 000424   000441 601000 1                  TNZ     s:5336

PL6.E3A0      #002=VDA$WWINDOWS File=VDA$WRITERS.:VDA5TSI                        FRI 07/04/97 11:10 Page:254
     2062     5331    4                   OR NEW$VALUE_BUFFER.OBJECT.CLASS# = %CLS_BUFFER THEN
     2063     5332    4                    CALL VDP$NEQUALS_1_WINDOW

   5332  1 000425   200036 235100                    LDA     X,,AUTO
         1 000426   000002 735000                    ALS     2
         1 000427   000001 471405 xsym               LDP1    VD_EQUALS_INIT+1,AL
         1 000430   200010 236100                    LDQ     WINDOW_SPEC$,,AUTO
         1 000431   200072 756100                    STQ     K+23,,AUTO
         1 000432   200022 236100                    LDQ     NEW_VALUE$,,AUTO
         1 000433   200071 756100                    STQ     K+22,,AUTO
         1 000434   200070 451500                    STP1    K+21,,AUTO
         1 000435   200070 630500                    EPPR0   K+21,,AUTO
         1 000436   000021 631400 xsym               EPPR1   B_VECTNIL+17
         1 000437   000000 701000 xent               TSX1    VDP$NEQUALS_1_WINDOW
         1 000440   000000 011000                    NOP     0

     2064     5333    4                      (VD_EQUALS_INIT.SPEC$(X)->VD$NAME_SPEC,
     2065     5334    4                      NEW$VALUE_BUFFER, WINDOW$SPEC);
     2066     5335    4                 END;

     2067     5336    3              X = X + 1;

   5336  1 000441   200036 054100                    AOS     X,,AUTO

     2068     5337    3              END;

   5337  1 000442   200036 235100                    LDA     X,,AUTO
         1 000443   000002 735000                    ALS     2
         1 000444   000000 236005 xsym               LDQ     VD_EQUALS_INIT,AL
         1 000445   000001 116000 xsym               CMPQ    B_VECTNIL+1
         1 000446   000405 601000 1                  TNZ     s:5328

     2069     5338                /*N*
     2070     5339                *N* We should check NEW$VALUE_BUFFER.LENGTH# to see if it's 0, and
     2071     5340                *N*   if so, ignore it.  This is because, for most windowable names,
     2072     5341                *N*   a 0-length entry is just a place-holder in the value-chain,
     2073     5342                *N*   and doesn't represent an actual value.
PL6.E3A0      #002=VDA$WWINDOWS File=VDA$WRITERS.:VDA5TSI                        FRI 07/04/97 11:10 Page:255
     2074     5343                *N* However, for $INTRO_1 and $INTRO_2, we need some way to represent
     2075     5344                *N*   both:
     2076     5345                *N*     The place-holder in the value-chain; and
     2077     5346                *N*     An empty string as a value (so user can remove an introducer).
     2078     5347                *N* The correct thing to do is to have some indication in the
     2079     5348                *N*   value-chain entries that they are dummy entries, without using
     2080     5349                *N*   the value's string-length do indicate this.
     2081     5350                *N* For now, the user can't remove an introducer, only change it to
     2082     5351                *N*   something else.
     2083     5352                *N*/
     2084     5353
     2085     5354                /*
     2086     5355                * Tell the Fep about the window
     2087     5356                */
     2088     5357    2           CALL VDP$WNEW (WINDOW$SPEC, OLD$WINDOW)

   5357  1 000447   200020 236100                    LDQ     OLD_WINDOW$,,AUTO
         1 000450   200010 235100                    LDA     WINDOW_SPEC$,,AUTO
         1 000451   200070 757100                    STAQ    K+21,,AUTO
         1 000452   200070 630500                    EPPR0   K+21,,AUTO
         1 000453   000020 631400 xsym               EPPR1   B_VECTNIL+16
         1 000454   000000 701000 xent               TSX1    VDP$WNEW
         1 000455   000564 702000 1                  TSX2    OALLOC_FAILED

     2089     5358    2             ALTRET (WNEW_FAILED);
     2090     5359
     2091     5360                /*
     2092     5361                * Forget keyins if there's not really any windows (yet).
     2093     5362                */
     2094     5363    2           IF VD_$SCREEN.V# = 0 THEN RETURN;

   5363  1 000456   000003 235000 xsym               LDA     VD_$SCREEN+3
         1 000457   000462 601000 1                  TNZ     s:5369

   5363  1 000460   200012 221300                    LDX1  ! GIVEN_COMMAND_WINDOW+1,,AUTO
         1 000461   000001 702211                    TSX2  ! 1,X1

PL6.E3A0      #002=VDA$WWINDOWS File=VDA$WRITERS.:VDA5TSI                        FRI 07/04/97 11:10 Page:256
     2095     5364
     2096     5365                /*
     2097     5366                *   Set the keyins for the new window.
     2098     5367                *  On the first VDA$LREAD call, position to BOF.
     2099     5368                */
     2100     5369    2           BOF_LOC = %CLEAR;

   5369  1 000462   000100 100400                    MLR     fill='000'O
         1 000463   000002 000001 xsym               ADSC9   B_VECTNIL+2              cn=0,n=1
         1 000464   200023 000044                    ADSC9   BOF_LOC,,AUTO            cn=0,n=36

     2101     5370    2           CALL VDA$LREAD (KEYINS$STREAM, BOF_LOC, 0, %TRUE)

   5370  1 000465   000004 237000 2                  LDAQ    4
         1 000466   200072 757100                    STAQ    K+23,,AUTO
         1 000467   200023 630500                    EPPR0   BOF_LOC,,AUTO
         1 000470   200071 450500                    STP0    K+22,,AUTO
         1 000471   000004 236000 xsym               LDQ     VD_6E+4
         1 000472   200070 756100                    STQ     K+21,,AUTO
         1 000473   200070 630500                    EPPR0   K+21,,AUTO
         1 000474   000022 631400 xsym               EPPR1   B_VECTNIL+18
         1 000475   000000 701000 xent               TSX1    VDA$LREAD
         1 000476   000564 702000 1                  TSX2    OALLOC_FAILED

     2102     5371    2             ALTRET (LREAD_FAILED);
     2103     5372    2           KEYINS_PORT$ = KEYINS$STREAM.PORT$;

   5372  1 000477   000004 470400 xsym               LDP0    VD_6E+4
         1 000500   000001 236100                    LDQ     1,,PR0
         1 000501   200034 756100                    STQ     KEYINS_PORT$,,AUTO

     2104     5373
     2105     5374    2   EACH_KEYIN:
     2106     5375    3           DO WHILE NOT KEYINS$STREAM.CURRENT.EOF;

   5375  1 000502   000550 710000 1     EACH_KEYIN   TRA     s:5397

PL6.E3A0      #002=VDA$WWINDOWS File=VDA$WRITERS.:VDA5TSI                        FRI 07/04/97 11:10 Page:257
     2107     5376    3              CALL FIND_VALUE_FOR_WINDOW (KEYINS$PORT.LEVEL.DATA$ (%LVL_LOWER) ->
              5376                       VD$DATA);

   5376  1 000503   200034 470500                    LDP0    KEYINS_PORT$,,AUTO
         1 000504   000036 471500                    LDP1    30,,PR0
         1 000505   200041 451500                    STP1    SPEC_CLEAR+3,,AUTO
         1 000506   000566 701000 1                  TSX1    FIND_VALUE_FOR_WINDOW
         1 000507   000000 011000                    NOP     0

     2108     5377    4              IF NEW$VALUE_BUFFER.LENGTH# > 0 THEN DO;

   5377  1 000510   200022 470500                    LDP0    NEW_VALUE$,,AUTO
         1 000511   000002 220100                    LDX0    2,,PR0
         1 000512   000537 604400 1                  TMOZ    s:5395

     2109     5378                      %GETKEY (KEY=KEYINS$PORT.CURRENT.KEY, INDX="%(LVL_LOWER-1)",
     2110     5379                      PTR=KEYIN_NAME$);

   5386  1 000513   200034 471500                    LDP1    KEYINS_PORT$,,AUTO
         1 000514   100012 721100                    LXL1    10,,PR1
         1 000515   000002 101003                    CMPX1   2,DU
         1 000516   000523 601000 1                  TNZ     s:5386+8

   5386  1 000517   100013 473500                    LDP3    11,,PR1
         1 000520   300002 634500                    EPPR4   2,,PR3
         1 000521   200035 454500                    STP4    KEYIN_NAME$,,AUTO
         1 000522   000526 710000 1                  TRA     s:5389

   5386  1 000523   200034 236100                    LDQ     KEYINS_PORT$,,AUTO
         1 000524   000013 036003                    ADLQ    11,DU
         1 000525   200035 756100                    STQ     KEYIN_NAME$,,AUTO

     2111     5389    4                 CALL VDP$NKEYIN_1_WINDOW (KEYIN$NAME, NEW$VALUE_BUFFER,

   5389  1 000526   200010 236100                    LDQ     WINDOW_SPEC$,,AUTO
         1 000527   200072 756100                    STQ     K+23,,AUTO
         1 000530   200022 236100                    LDQ     NEW_VALUE$,,AUTO
PL6.E3A0      #002=VDA$WWINDOWS File=VDA$WRITERS.:VDA5TSI                        FRI 07/04/97 11:10 Page:258
         1 000531   200035 235100                    LDA     KEYIN_NAME$,,AUTO
         1 000532   200070 757100                    STAQ    K+21,,AUTO
         1 000533   200070 630500                    EPPR0   K+21,,AUTO
         1 000534   000021 631400 xsym               EPPR1   B_VECTNIL+17
         1 000535   000000 701000 xent               TSX1    VDP$NKEYIN_1_WINDOW
         1 000536   000564 702000 1                  TSX2    OALLOC_FAILED

     2112     5390    4                   WINDOW$SPEC)
     2113     5391    4                   ALTRET (NKEYIN_FAILED);
     2114     5392    4                 END;

     2115     5393
     2116     5394                   /* Read next KEYIN */
     2117     5395    3              CALL VDA$LREAD (KEYINS$STREAM, , 1, %TRUE)

   5395  1 000537   000006 237000 2                  LDAQ    6
         1 000540   200072 757100                    STAQ    K+23,,AUTO
         1 000541   000001 236000 xsym               LDQ     B_VECTNIL+1
         1 000542   000004 235000 xsym               LDA     VD_6E+4
         1 000543   200070 757100                    STAQ    K+21,,AUTO
         1 000544   200070 630500                    EPPR0   K+21,,AUTO
         1 000545   000022 631400 xsym               EPPR1   B_VECTNIL+18
         1 000546   000000 701000 xent               TSX1    VDA$LREAD
         1 000547   000564 702000 1                  TSX2    OALLOC_FAILED

     2118     5396    3                ALTRET (LREAD_FAILED);
     2119     5397    3              END EACH_KEYIN;

   5397  1 000550   000004 470400 xsym               LDP0    VD_6E+4
         1 000551   000016 236100                    LDQ     14,,PR0
         1 000552   400000 316007                    CANQ    -131072,DL
         1 000553   000503 600000 1                  TZE     s:5376

     2120     5398
     2121     5399    2           RETURN;

   5399  1 000554   200012 221300                    LDX1  ! GIVEN_COMMAND_WINDOW+1,,AUTO
PL6.E3A0      #002=VDA$WWINDOWS File=VDA$WRITERS.:VDA5TSI                        FRI 07/04/97 11:10 Page:259
         1 000555   000001 702211                    TSX2  ! 1,X1

     2122     5400
     2123     5401
     2124     5402
     2125     5403    2   NO_ROOM_FOR_WINDOW_FAILURE:
     2126     5404    2           CALL VDG$ERRMSG (%E$NO_ROOM_FOR_WINDOW);

   5404  1 000556   000011 630400 2     NO_ROOM_FOR* EPPR0   9
         1 000557   000017 631400 xsym               EPPR1   B_VECTNIL+15
         1 000560   000000 701000 xent               TSX1    VDG$ERRMSG
         1 000561   000000 011000                    NOP     0

     2127     5405    2           ALTRETURN;

   5405  1 000562   200012 221300                    LDX1  ! GIVEN_COMMAND_WINDOW+1,,AUTO
         1 000563   000000 702211                    TSX2  ! 0,X1

   5391  1 000564                       OALLOC_FAIL* null
   5391  1 000564                       OFREE_FAILED null
   5391  1 000564                       OCOPY_FAILED null
   5391  1 000564                       PFLUSH_FAIL* null
   5391  1 000564                       PWRITE_FAIL* null
     2128     5406
     2129     5407
     2130     5408    2   OALLOC_FAILED: ;
     2131     5409    2   OFREE_FAILED: ;
     2132     5410    2   OCOPY_FAILED: ;
     2133     5411    2   PFLUSH_FAILED: ;
     2134     5412    2   PWRITE_FAILED: ;
     2135     5413    2   WNEW_FAILED: ;

   5413  1 000564                       WNEW_FAILED  null
   5413  1 000564                       LREAD_FAILED null
   5413  1 000564                       NKEYIN_FAIL* null
     2136     5414    2   LREAD_FAILED: ;
     2137     5415    2   NKEYIN_FAILED: ;
PL6.E3A0      #002=VDA$WWINDOWS File=VDA$WRITERS.:VDA5TSI                        FRI 07/04/97 11:10 Page:260
     2138     5416    2           ALTRETURN;

   5416  1 000564   200012 221300                    LDX1  ! GIVEN_COMMAND_WINDOW+1,,AUTO
         1 000565   000000 702211                    TSX2  ! 0,X1

     2139     5417
     2140     5418        %BOX (TITLE=FIND_VALUE_FOR_WINDOW);

              5430    2   /***************************************************************************
              5432    2    *                                                                         *
              5436    2            *                           FIND_VALUE_FOR_WINDOW                        *
              5438    2            *                                                                        *
              5440    2          ***************************************************************************/

     2141     5444
     2142     5445        /*I** NAME: FIND_VALUE_FOR_WINDOW
     2143     5446            PARAMETER:
     2144     5447                VALUE_CHAIN - VD$NUMBER or VD$BUFFER (or any other "buffer_object") for
     2145     5448                    the value for a terminal parameter or KEYIN name.
     2146     5449                    This is the root of a chain of values, where each value in the chain
     2147     5450                    is for a specific window or group of windows, based on their
     2148     5451                    type and key:
     2149     5452                        First entry in chain:  For all windows.
     2150     5453                        Second entry in chain:  For all editing windows (overrides the
     2151     5454                            first entry).
     2152     5455                        Successive entry in chain:  For specific windows, where
     2153     5456                            entry "e" in the chain is for the window whose key
     2154     5457                            is "e"-%WI_KEY_OFFSET.  A value in this set overrides
     2155     5458                            values in the first or second entries in the chain.
     2156     5459                    Note on 0-length buffer_objects:  these may appear in the chain
     2157     5460                    simply as place-holders.  If so, they do NOT represent a value
     2158     5461                    for this parameter/KEYIN.  Thus, there may be no value for this
     2159     5462                    parameter/KEYIN at all, in which case this routine will return
     2160     5463                    a 0-length buffer_object.
     2161     5464            INPUT:
     2162     5465                NEW$WINDOW_KEY - key for the window.
     2163     5466                WINDOW$SPEC.COMMAND - %TRUE if the window is a command window;
PL6.E3A0      #002=VDA$WWINDOWS File=VDA$WRITERS.:VDA5TSI                        FRI 07/04/97 11:10 Page:261
     2164     5467                    %FALSE otherwise.
     2165     5468                NEW_VALUE$ - An uninitialized result pointer.
     2166     5469            OUTPUT:
     2167     5470                VALUE$ will point to the appropriate VD$NUMBER/BUFFER for the window.
     2168     5471                    If this NUMBER/BUFFER has a .LENGTH# of 0, then there is no value
     2169     5472                    (window-specific or otherwise) for this window in this value-chain.
     2170     5473            DESCRIPTION:
     2171     5474                Search the VALUE_CHAIN for the value appropriate for the window,
     2172     5475                based on KEY and COMMAND.
     2173     5476        */
     2174     5477
     2175     5478    2   FIND_VALUE_FOR_WINDOW: PROC (VALUE_CHAIN);

   5478  1 000566   200040 741300       FIND_VALUE_* STX1  ! SPEC_CLEAR+2,,AUTO

     2176     5479
     2177     5480        %VD$BUFFER (NAME=VALUE_CHAIN, STCLASS=PARAM);
     2178     5538
     2179     5539
     2180     5540    3   DCL CURR_ENTRY$ PTR;
     2181     5541    3   DCL K SBIN;
     2182     5542
     2183     5543
     2184     5544        %VD$BUFFER (NAME=CURR$ENTRY, STCLASS="BASED(CURR_ENTRY$)");
     2185     5602
     2186     5603
     2187     5604    3           NEW_VALUE$ = ADDR(VALUE_CHAIN);

   5604  1 000567   200041 236100                    LDQ     @VALUE_CHAIN,,AUTO
         1 000570   200022 756100                    STQ     NEW_VALUE$,,AUTO

     2188     5605
     2189     5606    3           CURR_ENTRY$ = VALUE_CHAIN.FLINK$;

   5606  1 000571   200041 470500                    LDP0    @VALUE_CHAIN,,AUTO
         1 000572   000001 236100                    LDQ     1,,PR0
         1 000573   200042 756100                    STQ     CURR_ENTRY$,,AUTO
PL6.E3A0      #002=VDA$WWINDOWS File=VDA$WRITERS.:VDA5TSI                        FRI 07/04/97 11:10 Page:262

     2190     5607    3           IF CURR_ENTRY$ = ADDR(NIL) THEN

   5607  1 000574   000001 116000 xsym               CMPQ    B_VECTNIL+1
         1 000575   000577 601000 1                  TNZ     s:5609

     2191     5608    3              RETURN;  /* No values for the editing windows */

   5608  1 000576   000001 702211                    TSX2  ! 1,X1

     2192     5609    3           IF CURR$ENTRY.LENGTH# > 0 AND NOT WINDOW$SPEC.COMMAND THEN

   5609  1 000577   200042 471500                    LDP1    CURR_ENTRY$,,AUTO
         1 000600   100002 220100                    LDX0    2,,PR1
         1 000601   000610 604400 1                  TMOZ    s:5612
         1 000602   200010 473500                    LDP3    WINDOW_SPEC$,,AUTO
         1 000603   300002 236100                    LDQ     2,,PR3
         1 000604   000400 316003                    CANQ    256,DU
         1 000605   000610 601000 1                  TNZ     s:5612

     2193     5610    3              NEW_VALUE$ = CURR_ENTRY$;    /* Newest guess */

   5610  1 000606   200042 236100                    LDQ     CURR_ENTRY$,,AUTO
         1 000607   200022 756100                    STQ     NEW_VALUE$,,AUTO

     2194     5611
     2195     5612    4           DO K = NEW$WINDOW_KEY.BYTES# DOWNTO 0;

   5612  1 000610   200021 473500                    LDP3    NEW_WINDOW_KEY$,,AUTO
         1 000611   300000 236100                    LDQ     0,,PR3
         1 000612   000032 376000 xsym               ANQ     B_VECTNIL+26
         1 000613   200043 756100                    STQ     K,,AUTO
         1 000614   000626 710000 1                  TRA     s:5616+2

     2196     5613    4              CURR_ENTRY$ = CURR$ENTRY.FLINK$;

   5613  1 000615   200042 470500                    LDP0    CURR_ENTRY$,,AUTO
PL6.E3A0      #002=VDA$WWINDOWS File=VDA$WRITERS.:VDA5TSI                        FRI 07/04/97 11:10 Page:263
         1 000616   000001 236100                    LDQ     1,,PR0
         1 000617   200042 756100                    STQ     CURR_ENTRY$,,AUTO

     2197     5614    4              IF CURR_ENTRY$ = ADDR(NIL) THEN

   5614  1 000620   000001 116000 xsym               CMPQ    B_VECTNIL+1
         1 000621   000624 601000 1                  TNZ     s:5616

     2198     5615    4                 RETURN;       /* No value for this specific window */

   5615  1 000622   200040 221300                    LDX1  ! SPEC_CLEAR+2,,AUTO
         1 000623   000001 702211                    TSX2  ! 1,X1

     2199     5616    4              END;

   5616  1 000624   000001 336007                    LCQ     1,DL
         1 000625   200043 056100                    ASQ     K,,AUTO
         1 000626   200043 235100                    LDA     K,,AUTO
         1 000627   000615 605000 1                  TPL     s:5613

     2200     5617    3           IF CURR$ENTRY.LENGTH# > 0 THEN

   5617  1 000630   200042 470500                    LDP0    CURR_ENTRY$,,AUTO
         1 000631   000002 220100                    LDX0    2,,PR0
         1 000632   000635 604400 1                  TMOZ    s:5620

     2201     5618    3              NEW_VALUE$ = CURR_ENTRY$;    /* This is it */

   5618  1 000633   200042 236100                    LDQ     CURR_ENTRY$,,AUTO
         1 000634   200022 756100                    STQ     NEW_VALUE$,,AUTO

     2202     5619
     2203     5620    3           RETURN;

   5620  1 000635   200040 221300                    LDX1  ! SPEC_CLEAR+2,,AUTO
         1 000636   000001 702211                    TSX2  ! 1,X1

PL6.E3A0      #002=VDA$WWINDOWS File=VDA$WRITERS.:VDA5TSI                        FRI 07/04/97 11:10 Page:264
     2204     5621
     2205     5622    3   END FIND_VALUE_FOR_WINDOW;
     2206     5623
     2207     5624    2   END NEW_WINDOW;
     2208     5625
     2209     5626        %BOX (TITLE=DELETE_WINDOW, PAGE=YES);
              5634    2
              5638    2   /***************************************************************************
              5640    2    *                                                                         *
              5644    2            *                               DELETE_WINDOW                            *
              5646    2            *                                                                        *
              5648    2          ***************************************************************************/

     2210     5652
     2211     5653        /*I* NAME: DELETE_WINDOW
     2212     5654            PARAMETERS:
     2213     5655                None.
     2214     5656            INPUT:
     2215     5657                PORT, SPEC, and DATA as for main routine.
     2216     5658            OUTPUT:
     2217     5659                The file node to which PORT is currently positioned will be deleted
     2218     5660                    from the file.
     2219     5661            DESCRIPTION:
     2220     5662                Determine if we're deleting the command window or an editing window.
     2221     5663                Call VDP$WREMOVE to close the window's DCB.
     2222     5664                If we're deleting the current window, find a new editing window to be
     2223     5665                    the current window.  If we're deleting the only editing window,
     2224     5666                    then turn VD_2DIM off, and "change" the command window to
     2225     5667                    serial (1-dimensional) mode.
     2226     5668                Call VDA$PDELETE to delete the node from the Windows file.
     2227     5669        */
     2228     5670
     2229     5671    1   DELETE_WINDOW: PROC ALTRET;

   5671  1 000637   200012 741300       DELETE_WIND* STX1  ! GIVEN_COMMAND_WINDOW+1,,AUTO

     2230     5672
PL6.E3A0      #002=VDA$WWINDOWS File=VDA$WRITERS.:VDA5TSI                        FRI 07/04/97 11:10 Page:265
     2231     5673
     2232     5674        %VD$RANGE (NAME=DEL_RANGE, STCLASS=AUTO);
     2233     5743    2   DCL COUNT SBIN;
     2234     5744        %VD$WINDOW_SPEC (NAME=SPEC_CLEAR, STCLASS=AUTO);
     2235     5810
     2236     5811        %VD$STREAM;
     2237     5917
     2238     5918
     2239     5919
     2240     5920    2           SPEC_CLEAR = %CLEAR;

   5920  1 000640   000100 100400                    MLR     fill='000'O
         1 000641   000002 000001 xsym               ADSC9   B_VECTNIL+2              cn=0,n=1
         1 000642   200036 000144                    ADSC9   SPEC_CLEAR,,AUTO         cn=0,n=100

     2241     5921    2           WINDOW_SPEC$ = PORT.LEVEL.INTERNAL$ (%LVL_LOWER) ->

   5921  1 000643   200003 470500                    LDP0    @PORT,,AUTO
         1 000644   000040 471500                    LDP1    32,,PR0
         1 000645   100007 236100                    LDQ     7,,PR1
         1 000646   200010 756100                    STQ     WINDOW_SPEC$,,AUTO

     2242     5922    2             VD$FILE_NODE.DESC.SPEC.V$;
     2243     5923        /* Release space to editing windows until there are no more */
     2244     5924    2           IF PORT.LEVEL.INTERNAL$ (%LVL_LOWER) ->

   5924  1 000647   100001 236100                    LDQ     1,,PR1
         1 000650   000000 116000 xsym               CMPQ    VD_COMMAND_WINDOW$
         1 000651   000660 601000 1                  TNZ     s:5929
         1 000652   100002 236100                    LDQ     2,,PR1
         1 000653   000001 116000 xsym               CMPQ    B_VECTNIL+1
         1 000654   000660 600000 1                  TZE     s:5929

     2245     5925    2             VD$FILE_NODE.BLINK$ = VD_COMMAND_WINDOW$ AND
     2246     5926    2             PORT.LEVEL.INTERNAL$ (%LVL_LOWER) ->
     2247     5927    2             VD$FILE_NODE.FLINK$ ~= ADDR(NIL) THEN
     2248     5928    2              WINDOW$SPEC.COORDS.LINE# = -1;
PL6.E3A0      #002=VDA$WWINDOWS File=VDA$WRITERS.:VDA5TSI                        FRI 07/04/97 11:10 Page:266

   5928  1 000655   000001 335007                    LCA     1,DL
         1 000656   200010 473500                    LDP3    WINDOW_SPEC$,,AUTO
         1 000657   300003 755100                    STA     3,,PR3

     2249     5929    2           CALL VDP$WCHANGE (PORT.LEVEL.INTERNAL$ (%LVL_LOWER) -> VD$FILE_NODE,

   5929  1 000660   000040 471500                    LDP1    32,,PR0
         1 000661   200036 633500                    EPPR3   SPEC_CLEAR,,AUTO
         1 000662   200071 453500                    STP3    K+22,,AUTO
         1 000663   200070 451500                    STP1    K+21,,AUTO
         1 000664   200070 630500                    EPPR0   K+21,,AUTO
         1 000665   000020 631400 xsym               EPPR1   B_VECTNIL+16
         1 000666   000000 701000 xent               TSX1    VDP$WCHANGE
         1 000667   000774 702000 1                  TSX2    WREMOVE_FAILED

     2250     5930    2             SPEC_CLEAR) ALTRET (WCHANGE_FAILED);
     2251     5931    2           IF WINDOW$SPEC.OPERAND.STREAM$ ~= ADDR(NIL) THEN

   5931  1 000670   200010 470500                    LDP0    WINDOW_SPEC$,,AUTO
         1 000671   000010 236100                    LDQ     8,,PR0
         1 000672   000001 116000 xsym               CMPQ    B_VECTNIL+1
         1 000673   000702 600000 1                  TZE     s:5935

     2252     5932    2              CALL VDA$FCLOSE (WINDOW$SPEC.OPERAND.STREAM$ -> VD$STREAM)

   5932  1 000674   000010 471500                    LDP1    8,,PR0
         1 000675   200070 451500                    STP1    K+21,,AUTO
         1 000676   200070 630500                    EPPR0   K+21,,AUTO
         1 000677   000017 631400 xsym               EPPR1   B_VECTNIL+15
         1 000700   000000 701000 xent               TSX1    VDA$FCLOSE
         1 000701   000774 702000 1                  TSX2    WREMOVE_FAILED

     2253     5933    2                ALTRET (FCLOSE_FAILED);
     2254     5934
     2255     5935    2           CALL VDP$WREMOVE (WINDOW$SPEC)

PL6.E3A0      #002=VDA$WWINDOWS File=VDA$WRITERS.:VDA5TSI                        FRI 07/04/97 11:10 Page:267
   5935  1 000702   200010 630500                    EPPR0   WINDOW_SPEC$,,AUTO
         1 000703   000017 631400 xsym               EPPR1   B_VECTNIL+15
         1 000704   000000 701000 xent               TSX1    VDP$WREMOVE
         1 000705   000774 702000 1                  TSX2    WREMOVE_FAILED

     2256     5936    2             ALTRET (WREMOVE_FAILED);
     2257     5937
     2258     5938    2           IF VD_CURRENT_WINDOW$ = PORT.LEVEL.INTERNAL$ (%LVL_LOWER) THEN

   5938  1 000706   200003 470500                    LDP0    @PORT,,AUTO
         1 000707   000000 236000 xsym               LDQ     VD_CURRENT_WINDOW$
         1 000710   000040 116100                    CMPQ    32,,PR0
         1 000711   000727 601000 1                  TNZ     s:5951

     2259     5939    3   FIND_NEW_CURRENT_WINDOW: DO;

   5939  1 000712                       FIND_NEW_CU* null
     2260     5940                   /* Deleting current editing window:  find new one */
     2261     5941    3              VD_CURRENT_WINDOW$ = VD_CURRENT_WINDOW$ -> VD$FILE_NODE.FLINK$;

   5941  1 000712   000000 471400 xsym               LDP1    VD_CURRENT_WINDOW$
         1 000713   100002 236100                    LDQ     2,,PR1
         1 000714   000000 756000 xsym               STQ     VD_CURRENT_WINDOW$

     2262     5942    3              IF VD_CURRENT_WINDOW$ = ADDR(NIL) THEN

   5942  1 000715   000001 116000 xsym               CMPQ    B_VECTNIL+1
         1 000716   000723 601000 1                  TNZ     s:5945

     2263     5943    3                 VD_CURRENT_WINDOW$ = PORT.LEVEL.INTERNAL$ (%LVL_FILE) ->

   5943  1 000717   000031 471500                    LDP1    25,,PR0
         1 000720   100012 473500                    LDP3    10,,PR1
         1 000721   300002 236100                    LDQ     2,,PR3
         1 000722   000000 756000 xsym               STQ     VD_CURRENT_WINDOW$

     2264     5944    3                   VD$FILE_NODE.HEAD$ -> VD$FILE_NODE.FLINK$;
PL6.E3A0      #002=VDA$WWINDOWS File=VDA$WRITERS.:VDA5TSI                        FRI 07/04/97 11:10 Page:268
     2265     5945    4              IF VD_CURRENT_WINDOW$ = PORT.LEVEL.INTERNAL$ (%LVL_LOWER) THEN DO;

   5945  1 000723   000040 116100                    CMPQ    32,,PR0
         1 000724   000727 601000 1                  TNZ     s:5951

     2266     5946                      /* Deleting the only editing window */
     2267     5947    4                 VD_CURRENT_WINDOW$ = ADDR(NIL);

   5947  1 000725   000001 236000 xsym               LDQ     B_VECTNIL+1
         1 000726   000000 756000 xsym               STQ     VD_CURRENT_WINDOW$

     2268     5948    4                 END;

     2269     5949    3              END;

     2270     5950
     2271     5951    3           IF PORT.LEVEL.INTERNAL$ (%LVL_LOWER) = VD_COMMAND_WINDOW$ THEN DO;

   5951  1 000727   000040 236100                    LDQ     32,,PR0
         1 000730   000000 116000 xsym               CMPQ    VD_COMMAND_WINDOW$
         1 000731   000734 601000 1                  TNZ     s:5956

     2272     5952                   /* Deleting the command window */
     2273     5953    3              VD_COMMAND_WINDOW$ = ADDR(NIL);

   5953  1 000732   000001 236000 xsym               LDQ     B_VECTNIL+1
         1 000733   000000 756000 xsym               STQ     VD_COMMAND_WINDOW$

     2274     5954    3              END;

     2275     5955
     2276     5956    2           CALL VDG$OCOPY_LOCATION (PORT.CURRENT, DEL_RANGE.START)

   5956  1 000734   200013 631500                    EPPR1   DEL_RANGE,,AUTO
         1 000735   200071 451500                    STP1    K+22,,AUTO
         1 000736   200003 236100                    LDQ     @PORT,,AUTO
         1 000737   000012 036003                    ADLQ    10,DU
PL6.E3A0      #002=VDA$WWINDOWS File=VDA$WRITERS.:VDA5TSI                        FRI 07/04/97 11:10 Page:269
         1 000740   200070 756100                    STQ     K+21,,AUTO
         1 000741   200070 630500                    EPPR0   K+21,,AUTO
         1 000742   000020 631400 xsym               EPPR1   B_VECTNIL+16
         1 000743   000000 701000 xent               TSX1    VDG$OCOPY_LOCATION
         1 000744   000774 702000 1                  TSX2    WREMOVE_FAILED

     2277     5957    2             ALTRET (OCOPY_LOCATION_FAILED);
     2278     5958    2           DEL_RANGE.ENDD = DEL_RANGE.START;

   5958  1 000745   000100 100500                    MLR     fill='000'O
         1 000746   200013 000044                    ADSC9   DEL_RANGE,,AUTO          cn=0,n=36
         1 000747   200024 000044                    ADSC9   BOF_LOC+1,,AUTO          cn=0,n=36

     2279     5959
     2280     5960    2           CALL VDA$PDELETE (PORT, DEL_RANGE, %LVL_LOWER, COUNT)

   5960  1 000750   200035 630500                    EPPR0   COUNT,,AUTO
         1 000751   200073 450500                    STP0    K+24,,AUTO
         1 000752   000003 236000 2                  LDQ     3
         1 000753   200072 756100                    STQ     K+23,,AUTO
         1 000754   200013 631500                    EPPR1   DEL_RANGE,,AUTO
         1 000755   200071 451500                    STP1    K+22,,AUTO
         1 000756   200003 236100                    LDQ     @PORT,,AUTO
         1 000757   200070 756100                    STQ     K+21,,AUTO
         1 000760   200070 630500                    EPPR0   K+21,,AUTO
         1 000761   000022 631400 xsym               EPPR1   B_VECTNIL+18
         1 000762   000000 701000 xent               TSX1    VDA$PDELETE
         1 000763   000774 702000 1                  TSX2    WREMOVE_FAILED

     2281     5961    2             ALTRET (PDELETE_FAILED);
     2282     5962
     2283     5963    2           CALL VDG$OCLEAR_LOCATION (DEL_RANGE.START)

   5963  1 000764   200013 630500                    EPPR0   DEL_RANGE,,AUTO
         1 000765   200070 450500                    STP0    K+21,,AUTO
         1 000766   200070 630500                    EPPR0   K+21,,AUTO
         1 000767   000017 631400 xsym               EPPR1   B_VECTNIL+15
PL6.E3A0      #002=VDA$WWINDOWS File=VDA$WRITERS.:VDA5TSI                        FRI 07/04/97 11:10 Page:270
         1 000770   000000 701000 xent               TSX1    VDG$OCLEAR_LOCATION
         1 000771   000774 702000 1                  TSX2    WREMOVE_FAILED

     2284     5964    2             ALTRET (OCLEAR_LOCATION_FAILED);
     2285     5965
     2286     5966    2           RETURN;

   5966  1 000772   200012 221300                    LDX1  ! GIVEN_COMMAND_WINDOW+1,,AUTO
         1 000773   000001 702211                    TSX2  ! 1,X1

   5958  1 000774                       WREMOVE_FAI* null
   5958  1 000774                       FCLOSE_FAIL* null
   5958  1 000774                       WCHANGE_FAI* null
   5958  1 000774                       OCOPY_LOCAT* null
   5958  1 000774                       PDELETE_FAI* null
     2287     5967
     2288     5968
     2289     5969
     2290     5970    2   WREMOVE_FAILED: ;
     2291     5971    2   FCLOSE_FAILED: ;
     2292     5972    2   WCHANGE_FAILED: ;
     2293     5973    2   OCOPY_LOCATION_FAILED: ;
     2294     5974    2   PDELETE_FAILED: ;
     2295     5975    2   OCLEAR_LOCATION_FAILED: ;

   5975  1 000774                       OCLEAR_LOCA* null
     2296     5976    2           ALTRETURN;

   5976  1 000774   200012 221300                    LDX1  ! GIVEN_COMMAND_WINDOW+1,,AUTO
         1 000775   000000 702211                    TSX2  ! 0,X1
     2297     5977
     2298     5978    2   END DELETE_WINDOW;
     2299     5979
     2300     5980    1   END VDA$WWINDOWS;

PL6.E3A0      #002=VDA$WWINDOWS File=VDA$WRITERS.:VDA5TSI                        FRI 07/04/97 11:10 Page:271
--  Include file information  --

   CP_6_SUBS.:LIBRARY  is referenced.
   CP_6.:LIBRARY  cannot be made into a system file and is referenced.
   VD_PERR_C.:VDA5TOU  is referenced.
   VD_MACROS_M.:VDA5TOU  is referenced.
   B$JIT_C.:E04TOU  was found in the system file and is never referenced.
   CP_6_C.:E04TOU  was found in the system file and is referenced.
      No diagnostics issued in procedure VDA$WWINDOWS.
PL6.E3A0      #002=VDA$WWINDOWS File=VDA$WRITERS.:VDA5TSI                        FRI 07/04/97 11:10 Page:272

 **** Variables and constants ****

  ****  Auto variables  ****

  ****  Scalars and arrays  ****
OctLoc.c.b A Datatyp(siz) R M Lvl/name                 OctLoc.c.b A Datatyp(siz) R M Lvl/name

     5-0-0/w PTR         r     1 @DATA                      6-0-0/w PTR         r     1 @NODE_EXISTS
     3-0-0/w PTR         r     1 @PORT                      4-0-0/w PTR         r     1 @SPEC
    41-0-0/w PTR         r     1 @VALUE_CHAIN               7-0-0/w BIT         r     1 ALTRETURN_WHEN_DONE
    23-0-0/w STRC(324)   r     1 BOF_LOC                   35-0-0/w SBIN        r     1 COUNT
    42-0-0/w PTR         r     1 CURR_ENTRY$               *0-0-0/w ASTR(90)    r     1 DATA
    13-0-0/w STRC(648)   r     1 DEL_RANGE                 14-0-0/w PTR         r     1 EDIT_BLOCK$
    11-0-0/w BIT         r     1 GIVEN_COMMAND_WINDOW      43-0-0/w SBIN        r     1 K
    34-0-0/w PTR         r     1 KEYINS_PORT$              35-0-0/w PTR         r     1 KEYIN_NAME$
    22-0-0/w PTR         r     1 NEW_VALUE$                21-0-0/w PTR         r     1 NEW_WINDOW_KEY$
    16-0-0/w PTR         r     1 NEXT_EVAL$                *0-0-0/w BIT         r     1 NODE_EXISTS
    20-0-0/w PTR         r     1 OLD_WINDOW$               17-0-0/w PTR         r     1 OLD_WINDOW_NODE$
    *0-0-0/w STRC(1944)  r     1 PORT                      *0-0-0/w STRC(72)    r     1 SPEC
    36-0-0/w STRC(900)   r     1 SPEC_CLEAR                13-0-0/w PTR         r     1 STREAM$
    *0-0-0/w ASTR(90)    r     1 VALUE_CHAIN               15-0-0/w PTR         r     1 VD_EVAL$
    10-0-0/w PTR         r     1 WINDOW_SPEC$              36-0-0/w SBIN        r     1 X

  ****  SYMREF variables  ****

  ****  Scalars and arrays  ****
OctLoc.c.b A Datatyp(siz) R M Lvl/name                 OctLoc.c.b A Datatyp(siz) R M Lvl/name

     0-0-0/w STRC(144)   r     1 VD_$SCREEN                 0-0-0/w ASTR(90)    r     1 VD_$WI_BORDER
     0-0-0/w STRC(22644) r     1 VD_6E                      0-0-0/w PTR         r     1 VD_COMMAND_WINDOW$
     0-0-0/w PTR         r     1 VD_CURRENT_WINDOW$         0-0-0/w SBIN        r     1 VD_EDITING_WINDOWS
     0-0-0/w STRC(144)   r     1 VD_EQUALS_INIT(0:0)

  ****  BASED and DCB variables  ****

  ****  Scalars and arrays  ****
OctLoc.c.b A Datatyp(siz) R M Lvl/name                 OctLoc.c.b A Datatyp(siz) R M Lvl/name
PL6.E3A0      #002=VDA$WWINDOWS File=VDA$WRITERS.:VDA5TSI                        FRI 07/04/97 11:10 Page:273

     0-0-0/w ASTR(90)    r     1 CURR$ENTRY                 0-0-0/w STRC(936)   r     1 EDIT$BLOCK
     0-0-0/w ASTR(9)     r     1 KEYIN$NAME                 0-0-0/w STRC(1944)  r     1 KEYINS$PORT
     0-0-0/w STRC(864)   r     1 KEYINS$STREAM              0-0-0/w ASTR(90)    r     1 NEW$VALUE_BUFFER
     0-0-0/w STRC        r     1 NEW$WINDOW_KEY             0-0-0/w STRC(900)   r     1 OLD$WINDOW
     0-0-0/w STRC(468)   r     1 OLD$WINDOW_NODE            0-0-0/w STRC(864)   r     1 STREAM
     0-0-0/w ASTR(90)    r     1 VD$DATA                    0-0-0/w STRC(2124)  r     1 VD$EVAL
     0-0-0/w STRC(468)   r     1 VD$FILE_NODE               0-0-0/w STRC(252)   r     1 VD$NAME_SPEC
     0-0-0/w STRC(864)   r     1 VD$STREAM                  0-0-0/w ASTR(9)     r     1 VD$TEXTC
     0-0-0/w ASTR(81)    r     1 VD$TEXTC_REMOTE            0-0-0/w STRC(900)   r     1 WINDOW$SPEC


   Procedure VDA$WWINDOWS requires 510 words for executable code.
   Procedure VDA$WWINDOWS requires 60 words of local(AUTO) storage.

    No errors detected in file VDA$WRITERS.:VDA5TSI    .
PL6.E3A0      #002=VDA$WWINDOWS File=VDA$WRITERS.:VDA5TSI                        FRI 07/04/97 11:10 Page:274
          *** CROSS REFERENCE LISTING ***
**     DENOTES     IDENTIFIER DEFINITION
<<                 IDENTIFIER'S VALUE SET
>>                 IDENTIFIER'S VALUE USED
<>                 IDENTIFIER SET AND/OR USED
--                 IDENTIFIER REFERENCED
PL6.E3A0      #002=VDA$WWINDOWS File=VDA$WRITERS.:VDA5TSI                        FRI 07/04/97 11:10 Page:275
          MINI XREF LISTING

ALTRETURN_WHEN_DONE
      3527**DCL      3950<<ASSIGN   4024>>IF
BOF_LOC IN PROCEDURE NEW_WINDOW
      4149**DCL      5369<<ASSIGN   5370<>CALL
COUNT IN PROCEDURE DELETE_WINDOW
      5743**DCL      5960<>CALL
CURR$ENTRY.FLINK$ IN PROCEDURE FIND_VALUE_FOR_WINDOW
      5595**DCL      5613>>ASSIGN
CURR$ENTRY.LENGTH# IN PROCEDURE FIND_VALUE_FOR_WINDOW
      5595**DCL      5597--IMP-SIZ  5609>>IF       5617>>IF
CURR_ENTRY$ IN PROCEDURE FIND_VALUE_FOR_WINDOW
      5540**DCL      5569--IMP-PTR  5606<<ASSIGN   5607>>IF       5609>>IF       5610>>ASSIGN   5613<<ASSIGN
      5613>>ASSIGN   5614>>IF       5617>>IF       5618>>ASSIGN
DATA
      3279**DCL       154--PROC     5276<>CALL
DATA.LENGTH#
      3305**DCL      3307--IMP-SIZ  5276>>CALL
DELETE_WINDOW
      5671**PROC     3967--CALL
DELETE_WINDOW_FAILED
      4024**LABEL    3967--CALLALT
DEL_RANGE IN PROCEDURE DELETE_WINDOW
      5682**DCL      5960<>CALL
DEL_RANGE.ENDD IN PROCEDURE DELETE_WINDOW
      5724**DCL      5958<<ASSIGN
DEL_RANGE.START IN PROCEDURE DELETE_WINDOW
      5696**DCL      5956<>CALL     5958>>ASSIGN   5963<>CALL
EDIT$BLOCK IN PROCEDURE NEW_WINDOW
      4287**DCL      5259<>CALL
EDIT$BLOCK.FILE_KEY IN PROCEDURE NEW_WINDOW
      4323**DCL      5250<>CALL
EDIT$BLOCK.OPTIONS IN PROCEDURE NEW_WINDOW
PL6.E3A0      #002=VDA$WWINDOWS File=VDA$WRITERS.:VDA5TSI                        FRI 07/04/97 11:10 Page:276
      4406**DCL      5250<>CALL
EDIT$BLOCK.OPTIONS.EXIST# IN PROCEDURE NEW_WINDOW
      4409**DCL      5254>>IF       5255<<ASSIGN
EDIT_BLOCK$ IN PROCEDURE NEW_WINDOW
      4134**DCL      4287--IMP-PTR  5245<<ASSIGN   5246>>IF       5250>>CALL     5250>>CALL     5254>>IF
      5255>>ASSIGN   5259>>CALL
FCLOSE_FAILED IN PROCEDURE DELETE_WINDOW
      5958**LABEL    5932--CALLALT
FIND_VALUE_FOR_WINDOW IN PROCEDURE NEW_WINDOW
      5478**PROC     5329--CALL     5376--CALL
GET_PARMS IN PROCEDURE NEW_WINDOW
      5324**LABEL    5310--GOTO
GIVEN_COMMAND_WINDOW
      3529**DCL      4008<<ASSIGN   4014>>IF
K IN PROCEDURE FIND_VALUE_FOR_WINDOW
      5541**DCL      5612<<DOINDEX
KEYIN$NAME IN PROCEDURE NEW_WINDOW
      5098**DCL      5389<>CALL
KEYIN$NAME.LENGTH# IN PROCEDURE NEW_WINDOW
      5106**DCL      5108--IMP-SIZ  5389>>CALL
KEYINS$PORT.CURRENT.KEY.REP# IN PROCEDURE NEW_WINDOW
      5067**DCL      5386>>IF
KEYINS$PORT.CURRENT.KEY.V$ IN PROCEDURE NEW_WINDOW
      5067**DCL      5386>>ASSIGN   5386--ASSIGN
KEYINS$PORT.LEVEL.DATA$ IN PROCEDURE NEW_WINDOW
      5087**DCL      5376>>CALL     5376>>CALL
KEYINS$STREAM
      3606**DCL      5370<>CALL     5395<>CALL
KEYINS$STREAM.CURRENT.EOF
      3673**DCL      5375>>DOWHILE
KEYINS$STREAM.PORT$
      3632**DCL      5372>>ASSIGN
KEYINS_PORT$ IN PROCEDURE NEW_WINDOW
      4169**DCL      5000--IMP-PTR  5372<<ASSIGN   5376>>CALL     5376>>CALL     5386>>IF       5386>>ASSIGN
      5386>>ASSIGN
KEYIN_NAME$ IN PROCEDURE NEW_WINDOW
PL6.E3A0      #002=VDA$WWINDOWS File=VDA$WRITERS.:VDA5TSI                        FRI 07/04/97 11:10 Page:277
      4170**DCL      5098--IMP-PTR  5386<<ASSIGN   5386<<ASSIGN   5389>>CALL     5389>>CALL
LREAD_FAILED IN PROCEDURE NEW_WINDOW
      5413**LABEL    5370--CALLALT  5395--CALLALT
NEW$VALUE_BUFFER IN PROCEDURE NEW_WINDOW
      4869**DCL      5332<>CALL     5389<>CALL
NEW$VALUE_BUFFER.LENGTH# IN PROCEDURE NEW_WINDOW
      4895**DCL      4897--IMP-SIZ  5330>>IF       5332>>CALL     5377>>IF       5389>>CALL
NEW$VALUE_BUFFER.OBJECT.CLASS# IN PROCEDURE NEW_WINDOW
      4893**DCL      5330>>IF
NEW$WINDOW_KEY.BYTES# IN PROCEDURE NEW_WINDOW
      4842**DCL      5612>>DOINDEX
NEW_VALUE$ IN PROCEDURE NEW_WINDOW
      4140**DCL      4869--IMP-PTR  4910--IMP-PTR  4963--IMP-PTR  5330>>IF       5330>>IF       5332>>CALL
      5332>>CALL     5377>>IF       5389>>CALL     5389>>CALL     5604<<ASSIGN   5610<<ASSIGN   5618<<ASSIGN
NEW_WINDOW
      4129**PROC     3975--CALL
NEW_WINDOW_FAILED
      4024**LABEL    3975--CALLALT
NEW_WINDOW_KEY$ IN PROCEDURE NEW_WINDOW
      4139**DCL      4838--IMP-PTR  5306<<ASSIGN   5306<<ASSIGN   5320<<ASSIGN   5320<<ASSIGN   5612>>DOINDEX
NEXT_EVAL$ IN PROCEDURE NEW_WINDOW
      4136**DCL      5265<<ASSIGN   5268>>ASSIGN
NKEYIN_FAILED IN PROCEDURE NEW_WINDOW
      5413**LABEL    5389--CALLALT
NODE_EXISTS
      3312**DCL       154--PROC     3966>>IF       3974>>IF
NO_ROOM_FOR_WINDOW_FAILURE IN PROCEDURE NEW_WINDOW
      5404**LABEL    5236--GOTO
OALLOC_FAILED IN PROCEDURE NEW_WINDOW
      5391**LABEL    5241--CALLALT
OCLEAR_LOCATION_FAILED IN PROCEDURE DELETE_WINDOW
      5975**LABEL    5963--CALLALT
OCOPY_LOCATION_FAILED IN PROCEDURE DELETE_WINDOW
      5958**LABEL    5956--CALLALT
OFREE_FAILED IN PROCEDURE NEW_WINDOW
      5391**LABEL    5259--CALLALT  5266--CALLALT
PL6.E3A0      #002=VDA$WWINDOWS File=VDA$WRITERS.:VDA5TSI                        FRI 07/04/97 11:10 Page:278
OLD$WINDOW IN PROCEDURE NEW_WINDOW
      4772**DCL      5357<>CALL
OLD$WINDOW.COORDS.HEIGHT# IN PROCEDURE NEW_WINDOW
      4799**DCL      5234>>IF       5238>>IF       5239>>ASSIGN
OLD$WINDOW_NODE.DESC.SPEC.V$ IN PROCEDURE NEW_WINDOW
      4758**DCL      5233>>ASSIGN
OLD$WINDOW_NODE.TAIL$ IN PROCEDURE NEW_WINDOW
      4762**DCL      5231>>ASSIGN
OLD_WINDOW$ IN PROCEDURE NEW_WINDOW
      4138**DCL      4772--IMP-PTR  5233<<ASSIGN   5234>>IF       5238>>IF       5239>>ASSIGN   5274<<ASSIGN
      5324<<ASSIGN   5357>>CALL
OLD_WINDOW_NODE$ IN PROCEDURE NEW_WINDOW
      4137**DCL      4679--IMP-PTR  5231<<ASSIGN   5233>>ASSIGN
PDELETE_FAILED IN PROCEDURE DELETE_WINDOW
      5958**LABEL    5960--CALLALT
PORT
      3150**DCL       154--PROC     4047--ENTRY    5276<>CALL     5320--IF       5320--ASSIGN   5320--ASSIGN
      5323--ASSIGN   5960<>CALL
PORT.CURRENT
      3203**DCL      5956<>CALL
PORT.CURRENT.KEY.REP#
      3217**DCL      5306>>IF
PORT.CURRENT.KEY.V$
      3217**DCL      5306>>ASSIGN   5306--ASSIGN
PORT.LEVEL.INTERNAL$
      3237**DCL      3969>>ASSIGN   4002>>ASSIGN   4002>>IF       4002>>CALL     4002>>CALL     4009>>CALL
      4015>>IF       4020>>ASSIGN   5231>>ASSIGN   5279>>ASSIGN   5285>>ASSIGN   5288>>ASSIGN   5921>>ASSIGN
      5924>>IF       5924>>IF       5929>>CALL     5938>>IF       5943>>ASSIGN   5945>>IF       5951>>IF
PORT.LEVEL.SPEC
      3233**DCL      3986<<ASSIGN   4002<<ASSIGN
PORT.LEVEL.SPEC.REP#
      3235**DCL      3985>>IF
PORT.LEVEL.SPEC.V$
      3235**DCL      3985>>CALL     3985>>CALL     4002<>CALL
PORT.LEVEL.SPEC_MODIFIED
      3237**DCL      4012<<ASSIGN
PL6.E3A0      #002=VDA$WWINDOWS File=VDA$WRITERS.:VDA5TSI                        FRI 07/04/97 11:10 Page:279
PWRITE_FAILED IN PROCEDURE NEW_WINDOW
      5391**LABEL    5276--CALLALT
RE_WINDOW IN PROCEDURE NEW_WINDOW
      5311**ENTRY    4049--CALL
SPEC
      3248**DCL       154--PROC     3951--IF       4047--ENTRY    5276<>CALL     5324--ASSIGN
SPEC.REP#
      3252**DCL      3961>>IF
SPEC.V$
      3252**DCL      3961>>ASSIGN   3961--ASSIGN   3973>>ASSIGN
SPEC_CLEAR IN PROCEDURE DELETE_WINDOW
      5752**DCL      5920<<ASSIGN   5929<>CALL
STREAM IN PROCEDURE NEW_WINDOW
      4181**DCL      5250<>CALL
STREAM$ IN PROCEDURE NEW_WINDOW
      4133**DCL      4181--IMP-PTR  5241<>CALL     5243>>ASSIGN   5250>>CALL
VALUE_CHAIN IN PROCEDURE FIND_VALUE_FOR_WINDOW
      5505**DCL      5478--PROC     5604--ASSIGN
VALUE_CHAIN.FLINK$ IN PROCEDURE FIND_VALUE_FOR_WINDOW
      5531**DCL      5606>>ASSIGN
VALUE_CHAIN.LENGTH# IN PROCEDURE FIND_VALUE_FOR_WINDOW
      5531**DCL      5533--IMP-SIZ
VD$DATA IN PROCEDURE NEW_WINDOW
      5192**DCL      5329<>CALL     5376<>CALL
VD$DATA.LENGTH# IN PROCEDURE NEW_WINDOW
      5218**DCL      5220--IMP-SIZ  5329>>CALL     5376>>CALL
VD$EVAL IN PROCEDURE NEW_WINDOW
      4434**DCL      5266<>CALL
VD$EVAL.BLINK$ IN PROCEDURE NEW_WINDOW
      4460**DCL      5265>>ASSIGN
VD$FILE_NODE
      3712**DCL      4009<>CALL     5929<>CALL
VD$FILE_NODE.BLINK$
      3738**DCL      5924>>IF
VD$FILE_NODE.COUNT#
      3795**DCL      3969>>ASSIGN
PL6.E3A0      #002=VDA$WWINDOWS File=VDA$WRITERS.:VDA5TSI                        FRI 07/04/97 11:10 Page:280
VD$FILE_NODE.DESC.KEY.REP#
      3777**DCL      5320>>IF
VD$FILE_NODE.DESC.KEY.V$
      3777**DCL      5320>>ASSIGN   5320--ASSIGN
VD$FILE_NODE.DESC.SPEC
      3789**DCL      4002>>ASSIGN
VD$FILE_NODE.DESC.SPEC.REP#
      3791**DCL      4002>>IF
VD$FILE_NODE.DESC.SPEC.V$
      3791**DCL      4002>>CALL     4002>>CALL     5279>>ASSIGN   5323>>ASSIGN   5921>>ASSIGN
VD$FILE_NODE.FLINK$
      3738**DCL      5924>>IF       5941>>ASSIGN   5943>>ASSIGN
VD$FILE_NODE.HEAD$
      3795**DCL      5943>>ASSIGN
VD$NAME_SPEC IN PROCEDURE NEW_WINDOW
      5135**DCL      5332<>CALL
VD$NAME_SPEC.WINDOWABLE IN PROCEDURE NEW_WINDOW
      5163**DCL      5328>>IF
VD$STREAM IN PROCEDURE DELETE_WINDOW
      5819**DCL      5932<>CALL
VD$TEXTC.LENGTH#
      3940**DCL      3942--IMP-SIZ  3965>>IF
VD$TEXTC_REMOTE
      3888**DCL      3985<>CALL     4002<>CALL
VD$TEXTC_REMOTE.LENGTH#
      3917**DCL      3919--IMP-SIZ  3961--ASSIGN   3985>>CALL     4002>>CALL     5306--ASSIGN   5320--ASSIGN
      5386--ASSIGN
VDA$FCLOSE
      3315**DCL-ENT  5932--CALL
VDA$FOPEN
      3316**DCL-ENT  5250--CALL
VDA$LREAD
      3317**DCL-ENT  5370--CALL     5395--CALL
VDA$PDELETE
      3319**DCL-ENT  5960--CALL
VDA$PWRITE
PL6.E3A0      #002=VDA$WWINDOWS File=VDA$WRITERS.:VDA5TSI                        FRI 07/04/97 11:10 Page:281
      3318**DCL-ENT  5276--CALL
VDG$ERRMSG
      3327**DCL-ENT  5404--CALL
VDG$ESCREECH
      3332**DCL-ENT  4017--CALL     5249--CALL     5284--CALL
VDG$OALLOC
      3326**DCL-ENT  5241--CALL
VDG$OCLEAR_LOCATION
      3331**DCL-ENT  5963--CALL
VDG$OCOPY
      3329**DCL-ENT  4002--CALL
VDG$OCOPY_LOCATION
      3330**DCL-ENT  5956--CALL
VDG$OFREE
      3328**DCL-ENT  3985--CALL     5259--CALL     5266--CALL
VDP$NEQUALS_1_WINDOW
      3324**DCL-ENT  5332--CALL
VDP$NKEYIN_1_WINDOW
      3325**DCL-ENT  5389--CALL
VDP$WCHANGE
      3322**DCL-ENT  4009--CALL     5929--CALL
VDP$WNEW
      3321**DCL-ENT  5357--CALL
VDP$WREMOVE
      3323**DCL-ENT  5935--CALL
VD_$SCREEN.V#
      3463**DCL      5234>>IF       5363>>IF
VD_$WI_BORDER.LENGTH#
      3517**DCL      3519--IMP-SIZ  5234>>IF
VD_6E.KEYINS$
      3349**DCL      3606--IMP-PTR  5370>>CALL     5372>>ASSIGN   5375>>DOWHILE  5395>>CALL
VD_COMMAND_WINDOW$
      3373**DCL      4015>>IF       5283>>IF       5285<<ASSIGN   5924>>IF       5951>>IF       5953<<ASSIGN
VD_CURRENT_WINDOW$
      3372**DCL      4020<<ASSIGN   5288<<ASSIGN   5938>>IF       5941<<ASSIGN   5941>>ASSIGN   5942>>IF
      5943<<ASSIGN   5945>>IF       5947<<ASSIGN
PL6.E3A0      #002=VDA$WWINDOWS File=VDA$WRITERS.:VDA5TSI                        FRI 07/04/97 11:10 Page:282
VD_EDITING_WINDOWS
      3375**DCL      3969<<ASSIGN   3977<<ASSIGN   3977>>ASSIGN
VD_EQUALS_INIT.DATA$ IN PROCEDURE NEW_WINDOW
      5117**DCL      5329>>CALL     5329>>CALL
VD_EQUALS_INIT.KEY$ IN PROCEDURE NEW_WINDOW
      5115**DCL      5327>>DOUNTIL
VD_EQUALS_INIT.SPEC$ IN PROCEDURE NEW_WINDOW
      5116**DCL      5328>>IF       5332>>CALL
VD_EVAL$ IN PROCEDURE NEW_WINDOW
      4135**DCL      4434--IMP-PTR  5262<<ASSIGN   5264>>DOWHILE  5265>>ASSIGN   5266>>CALL     5268<<ASSIGN
WCHANGE_FAILED
      4024**LABEL    4009--CALLALT  4049--CALLALT
WCHANGE_FAILED IN PROCEDURE DELETE_WINDOW
      5958**LABEL    5929--CALLALT
WINDOW$SPEC
      3540**DCL      4009<>CALL     5332<>CALL     5357<>CALL     5389<>CALL     5935<>CALL
WINDOW$SPEC.COMMAND
      3566**DCL      4008>>ASSIGN   5228>>IF       5282>>IF       5609>>IF
WINDOW$SPEC.COORDS.HEIGHT#
      3567**DCL      5238>>IF       5239<<ASSIGN
WINDOW$SPEC.COORDS.LINE#
      3566**DCL      5928<<ASSIGN
WINDOW$SPEC.OPERAND.EDIT_BLOCK$
      3581**DCL      5245>>ASSIGN   5261<<ASSIGN
WINDOW$SPEC.OPERAND.EVAL$
      3581**DCL      5248>>IF       5262>>ASSIGN   5263<<ASSIGN
WINDOW$SPEC.OPERAND.STREAM$
      3581**DCL      5243<<ASSIGN   5931>>IF       5932>>CALL
WINDOW_SPEC$
      3528**DCL      3540--IMP-PTR  3961<<ASSIGN   3961<<ASSIGN   3965>>IF       3973<<ASSIGN   4008>>ASSIGN
      4009>>CALL     5228>>IF       5238>>IF       5239>>ASSIGN   5243>>ASSIGN   5245>>ASSIGN   5248>>IF
      5261>>ASSIGN   5262>>ASSIGN   5263>>ASSIGN   5279<<ASSIGN   5282>>IF       5323<<ASSIGN   5332>>CALL
      5357>>CALL     5389>>CALL     5609>>IF       5921<<ASSIGN   5928>>ASSIGN   5931>>IF       5932>>CALL
      5935>>CALL
WNEW_FAILED IN PROCEDURE NEW_WINDOW
      5413**LABEL    5357--CALLALT
PL6.E3A0      #002=VDA$WWINDOWS File=VDA$WRITERS.:VDA5TSI                        FRI 07/04/97 11:10 Page:283
WREMOVE_FAILED IN PROCEDURE DELETE_WINDOW
      5958**LABEL    5935--CALLALT
X IN PROCEDURE NEW_WINDOW
      5113**DCL      5326<<ASSIGN   5327>>DOUNTIL  5328>>IF       5329>>CALL     5329>>CALL     5332>>CALL
      5336<<ASSIGN   5336>>ASSIGN
