PL6.E3A0      #002=VDE$IRANGE File=VDE$INTERPRET.:VDA5TSI                        FRI 07/04/97 11:11 Page:105
      891        1        /*T***********************************************************/
      892        2        /*T*                                                         */
      893        3        /*T* Copyright (c) Bull HN Information Systems Inc., 1997    */
      894        4        /*T*                                                         */
      895        5        /*T***********************************************************/
      896        6
      897        7        /*D* NAME:  VDE$IRANGE
      898        8            PARAMETERS:
      899        9                OPERAND - A VD$OPERAND containing the InTree to evaluate:
      900       10                    .STREAM$ must point to a stream which is already
      901       11                        open to the InTree's domain.
      902       12                    .EDIT_BLOCK$ must point to a block descriptor
      903       13                        specifying the domain (EditBlock) for the InTree.
      904       14                    .EVAL$ must point to the top VD$EVAL on
      905       15                        the evaluation stack.  There are three distinct
      906       16                        situations when VDE$IRANGE is called:
      907       17                        1. At the start of a new editing operation (ie, the
      908       18                            first VDE$IRANGE call after a command processor
      909       19                            (VDI$Cxxx) for an editing command has finished executing).
      910       20                            In this case, there should be exactly one VD$EVAL
      911       21                            in the stack, initialized from the first
      912       22                            VD$IT_SELECT node (if any) in the Intree.  This
      913       23                            VD$EVAL's .STATE# must be %EVST_INITIAL, and its
      914       24                            .RANGE.ENDD must specify where to start
      915       25                            relative movement (if the InTree has no absolute operands).
      916       26                                        !! NOTE !!
      917       27                                Relative evaluation begins at the
      918       28                                location specified by .ENDD, not
      919       29                                .START!!
      920       30                            Test cases:
      921       31                            CO x AF REPE SE 'y'
      922       32                              After the 1st substitution, TOS$EVAL.RANGE will cover
      923       33                              the inserted block (copy of x); the search for 'y' should
      924       34                              start from the END of the inserted block.
      925       35                            CO x AF 'y'; CO x AF 'y'
      926       36                              Should behave exactly identical to previous test case.
      927       37                            'y'; TH 'z'; LO L IS THAT
PL6.E3A0      #002=VDE$IRANGE File=VDE$INTERPRET.:VDA5TSI                        FRI 07/04/97 11:11 Page:106
      928       38                              Search for 'z' should start at END of match of 'y'.
      929       39                            5 | TH 10           (where "|" is " " or ";" or <CR><CMD>)
      930       40                              After evaluating the "5", TOS$EVAL.RANGE will be an
      931       41        *??* BO 5 TH EO 5?    empty range at BO 5.
      932       42                              Final result should be BO 5 TH EO 10.
      933       43                            5 | TH 'y'
      934       44        *??* TH EO 5? *??*    "5" evaluates to BO 5 TH BO 5; "THRU" just changes
      935       45                              the eval state; search for 'y' should start from
      936       46        *??* EO 5? *??*       BO 5.
      937       47                            5 | RE | TH 'y'
      938       48                              "5 RE" evaluates to BO 5 TH EO 5; "THRU" just changes
      939       49                              the eval state; search for 'y' should start from
      940       50                              EO 5.
      941       51                        2. Successive evaluations after the first for repeated
      942       52                            block expressions.  In this case, the evaluation
      943       53                            stack should reflect the last range found for
      944       54                            each generator or IT_SELECT node; the top
      945       55                            VD$EVAL's .STATE# must be %EVST_INITIAL, and its
      946       56                            .RANGE must specify the last operand found for
      947       57                            the generator.  Relative movement will start at the
      948       58                            location specified by the end of that range.
      949       59                        3. Successive evaluations after the first for a single
      950       60                            editing operation.  This will happen only when
      951       61                            the user enters verb-less block expressions; the
      952       62                            first such evaluation will look just like case
      953       63                            1 above.  On successive evaluations, the top
      954       64                            VD$EVAL's .STATE# and .RANGE will specify where
      955       65                            we left off evaluation:  if .STATE# is still
      956       66                            %EVST_INITIAL, it'll look like case 1; if the
      957       67                            user has already given a THRU or ADJUST keyword,
      958       68                            .STATE# will be %EVST_START or _END, which is
      959       69                            this case, case 3:  pick up evaluation from the
      960       70                            given .STATE# and .RANGE.
      961       71                        Note that cases 1 and 2 have the same entry conditions
      962       72                        and are processed identically; only case 3 is
      963       73                        differentiated, by the initial state being something
      964       74                        other than %EVST_INITIAL.
PL6.E3A0      #002=VDE$IRANGE File=VDE$INTERPRET.:VDA5TSI                        FRI 07/04/97 11:11 Page:107
      965       75                    .INTREE$ must point to the InTree to evaluate.
      966       76                        There must be an InTree, although it may be entirely
      967       77                        empty (only a VD$IT_BLOCK_EXPR node).
      968       78                SIGNAL - An uninitialized BIT(1) ALIGNED.
      969       79            INPUT:
      970       80            OUTPUT:
      971       81                SIGNAL will contain true or false:
      972       82                    %TRUE indicates that when evaluating InTree we were
      973       83                        able to find a range which lies partially or completely
      974       84                        within the EditBlock.
      975       85                        The top VD$EVAL in the window's .EVAL$ stack
      976       86                        specifies the found range.
      977       87                    %FALSE indicates failure to find a range for the InTree
      978       88                            due to one of the following reasons:
      979       89                        o The generators in the InTree are exhausted;
      980       90                        o An absolute operand specified a block which lies
      981       91                            completely outside the enclosing block;
      982       92                        o A conditional operand could not find a range
      983       93                            within the enclosing block;
      984       94                        o The starting range for evaluation of the next range
      985       95                            was already (at or) outside the enclosing block.
      986       96                            (See DESCRIPTION for caveats on the "at or".)
      987       97                    NOTE - If SIGNAL=%FALSE is returned, the top VD$EVAL
      988       98                        on the window's .EVAL$ stack may be modified, but
      989       99                        its contents will be irrelevant.
      990      100            DESCRIPTION:
      991      101                Look at the object-class of the InTree node pointed-to by the last
      992      102                    VD$EVAL on the evaluation stack:
      993      103                    o None:  there's no InTree, we're done evaluating,
      994      104                        return SIGNAL = %FALSE.
      995      105                    o Anything except IT_SELECT:  pop this VD$EVAL off the
      996      106                        stack; keep popping til we get to an EVAL which
      997      107                        points to an IT_SELECT node which has some
      998      108                        repetitions remaining.  These VD$EVALs that
      999      109                        we're popping are left over from the last evaluation
     1000      110                        of this InTree, from generators other than IT_SELECTs
     1001      111                        or from IT_SELECTs whose repetitions have run out.
PL6.E3A0      #002=VDE$IRANGE File=VDE$INTERPRET.:VDA5TSI                        FRI 07/04/97 11:11 Page:108
     1002      112        *??*            The only alternatives which survive between successive
     1003      113        *??*            evaluations are those of an IT_SELECT generator.
     1004      114
     1005      115                Loop, evaluating each IT_SELECT node in the InTree.
     1006      116                After evaluating each IT_SELECT node:
     1007      117                Decrement the .REMAINING count.
     1008      118                If the signal is true:
     1009      119                    If this is the last IT_SELECT node in the InTree,
     1010      120                        return with SIGNAL = %TRUE.
     1011      121                    If this isn't the last IT_SELECT node in the InTree,
     1012      122                        push a new VD$EVAL on the stack for the new IT_SELECT
     1013      123                        node:
     1014      124                            new EVAL.RANGE := an empty range at the old
     1015      125                                            tos-VD$EVAL's range start location
     1016      126                            new EVAL.ENCLOSING := old tos-VD$EVAL's range
     1017      127                            new EVAL.STATE := EVST_INITIAL
     1018      128                            new EVAL.REMAINING := new IT_SELECT node's repeat count
     1019      129                        Loop to evaluate the new IT_SELECT node.
     1020      130                If the signal is false, backtrack:
     1021      131                    First, look at the top VD$EVAL on the stack:
     1022      132                        If it's for an IT_SELECT node, forget it:  the first failure
     1023      133                            is failure for all alternatives.
     1024      134                        If it's not for an IT_SELECT node, then failure for one
     1025      135                            alternative doesn't imply anything about the other
     1026      136                            alternatives; if it's .REMAINING > 0, it's Intree node
     1027      137                            can generate more ranges:
     1028      138                            o If it's an OPOR_OR, copy the range and state from the
     1029      139                                previous VD$EVAL on the stack, and begin evaluating
     1030      140                                the IT_OPERAND's second ("right-hand") child.
     1031      141                        If it's an IT_SELECT node or the .REMAINING count is 0, pop
     1032      142                            the VD$EVAL off the stack.
     1033      143                    If we had to pop the stack, see if the new tos-VD$EVAL's
     1034      144                        .REMAINING is > 0; if not, keep popping til we find one whose
     1035      145                        .REMAINING is > 0:  when we do:
     1036      146                        o If it's an IT_SELECT, reset the range to an empty range
     1037      147                            at the current range end location, and reset the
     1038      148                            state to EVST_INITIAL.  Begin evaluating the
PL6.E3A0      #002=VDE$IRANGE File=VDE$INTERPRET.:VDA5TSI                        FRI 07/04/97 11:11 Page:109
     1039      149                            IT_SELECT's children again.
     1040      150                        o If it's an OPOR_OR, do as above for OPOR_OR.
     1041      151                    If we keep popping til we empty the stack, return with SIGNAL =
     1042      152                        %FALSE.
     1043      153        */
     1044      154
     1045      155        VDE$IRANGE: PROC (OPERAND, SIGNAL) ALTRET;
     1046      156
     1047      157
     1048      158        %INCLUDE VD_MACROS_M;
     1049     2373        %INCLUDE VD_PERR_C;
     1050     2521
     1051     2522
     1052     2523        %VD$OPERAND (NAME=OPERAND, STCLASS=PARAM);
     1053     2537    1   DCL SIGNAL BIT(1) ALIGNED;
     1054     2538
     1055     2539
     1056     2540
     1057     2541    1   DCL VDE$IADJUST         ENTRY (3) ALTRET;
     1058     2542    1   DCL VDE$IGUAR_RANGE_IN_RANGE ENTRY (4) ALTRET;
     1059     2543    1   DCL VDG$COMPARE_LOCS    ENTRY (3) ALTRET;
     1060     2544    1   DCL VDG$OALLOC          ENTRY (3) ALTRET;
     1061     2545    1   DCL VDG$OFREE           ENTRY (1) ALTRET;
     1062     2546    1   DCL VDG$OCLEAR_RANGE    ENTRY (1) ALTRET;
     1063     2547    1   DCL VDG$OCOPY_RANGE     ENTRY (2) ALTRET;
     1064     2548    1   DCL VDG$OCLEAR_LOCATION ENTRY (1) ALTRET;
     1065     2549    1   DCL VDG$OCOPY_LOCATION  ENTRY (2) ALTRET;
     1066     2550    1   DCL VDG$ESCREECH        ENTRY (3);
     1067     2551    1   DCL VDG$MEVAL_START_EVAL ENTRY (1);
     1068     2552    1   DCL VDG$MEVAL_FOUND_RANGE ENTRY (1);
     1069     2553
     1070     2554
     1071     2555        %VD$NUMBER (NAME=VD_$$MON_EVAL, STCLASS=SYMREF);
     1072     2600
     1073     2601
     1074     2602
     1075     2603    1   DCL TOS_EVAL$ PTR;
PL6.E3A0      #002=VDE$IRANGE File=VDE$INTERPRET.:VDA5TSI                        FRI 07/04/97 11:11 Page:110
     1076     2604    1   DCL TEST_EVAL$ PTR;
     1077     2605    1   DCL PREV_EVAL$ PTR;
     1078     2606    1   DCL IT_SELECT$ PTR;
     1079     2607    1   DCL TRUNCATED BIT(1) ALIGNED;
     1080     2608    1   DCL COMPLETELY_OUTSIDE BIT(1) ALIGNED;
     1081     2609    1   DCL RCCL SBIN;
     1082     2610
     1083     2611
     1084     2612        %VD$EVAL (NAME=TOS$EVAL, STCLASS="BASED(TOS_EVAL$)");
     1085     2857        %VD$EVAL (NAME=TEST$EVAL, STCLASS="BASED(TEST_EVAL$)");
     1086     3102        %VD$EVAL (NAME=PREV$EVAL, STCLASS="BASED(PREV_EVAL$)");
     1087     3347        %VD$IT_SELECT (NAME=IT$SELECT, STCLASS="BASED(IT_SELECT$)");
     1088     3384        %VD$OBJECT_HEADER;
     1089     3406        %VD$IT_OPERATOR;
     1090     3443
     1091     3444
     1092     3445
     1093     3446    1           SIGNAL = %TRUE;
     1094     3447    1           TOS_EVAL$ = OPERAND.EVAL$;
     1095     3448
     1096     3449    1           IF VD_$$MON_EVAL.V# > 0 THEN
     1097     3450    1              CALL VDG$MEVAL_START_EVAL (OPERAND);
     1098     3451
     1099     3452                /*
     1100     3453                *  Pop the evaluation stack til we get an IT_SELECT which
     1101     3454                *     has some remaining repetitions.
     1102     3455                */
     1103     3456    1   FIND_TOP_SELECT:
     1104     3457    2           DO WHILE TOS_EVAL$ ~= ADDR(NIL);
     1105     3458    2              IF TOS$EVAL.NODE$ ~= ADDR(NIL) THEN
     1106     3459    2                 IF TOS$EVAL.NODE$->VD$OBJECT_HEADER.CLASS# = %CLS_IT_SELECT
     1107     3460    2                   AND TOS$EVAL.REMAINING# > 0 THEN
     1108     3461    2                    EXIT FIND_TOP_SELECT;
     1109     3462    2              IF TOS$EVAL.BLINK$ = ADDR(NIL) THEN
     1110     3463    2                 TOS_EVAL$ = ADDR(NIL);  /* Leave 1 EVAL in stack */
     1111     3464    3              ELSE DO;
     1112     3465    3                 OPERAND.EVAL$ = TOS$EVAL.BLINK$;
PL6.E3A0      #002=VDE$IRANGE File=VDE$INTERPRET.:VDA5TSI                        FRI 07/04/97 11:11 Page:111
     1113     3466    3                 CALL VDG$OFREE (TOS$EVAL)
     1114     3467    3                   ALTRET (OFREE_FAILED);
     1115     3468    3                 TOS_EVAL$ = OPERAND.EVAL$;
     1116     3469    3                 END;
     1117     3470    2              END;
     1118     3471    2           IF TOS_EVAL$ = ADDR(NIL) THEN DO;
     1119     3472    2              SIGNAL = %FALSE;
     1120     3473    2              RETURN;
     1121     3474    2              END;
     1122     3475
     1123     3476
     1124     3477    1   EVAL_SELECTS:
     1125     3478    2           DO UNTIL NOT SIGNAL;
     1126     3479
     1127     3480    2              IF TOS$EVAL.REMAINING# > 0 THEN
     1128     3481    3              DO CASE (TOS$EVAL.NODE$->VD$OBJECT_HEADER.CLASS#);
     1129     3482    3               CASE (%CLS_IT_SELECT);
     1130     3483    3                 CALL ISELECT (OPERAND, SIGNAL)
     1131     3484    3                   ALTRET (ISELECT_FAILED);
     1132     3485    3               CASE (%CLS_IT_OPERATOR);
     1133     3486                      /*N* CALL VDE$IOPERATOR (OPERAND, SIGNAL) */
     1134     3487                      /*N*   ALTRET (IOPERATOR_FAILED);         */
     1135     3488    3               END;
     1136     3489                   /*
     1137     3490                   *  We may have pushed new VD$EVALs on the stack, for
     1138     3491                   *    other generators:  get the new tos-VD$EVAL.
     1139     3492                   */
     1140     3493    2              TOS_EVAL$ = OPERAND.EVAL$;
     1141     3494
     1142     3495                   /* Success or failure, we're doing one evaluation */
     1143     3496    2              TOS$EVAL.REMAINING# = MAXIMUM(0, TOS$EVAL.REMAINING# - 1);
     1144     3497
     1145     3498    2              IF SIGNAL THEN
     1146     3499    3   SIGNAL_TRUE: DO;
     1147     3500    3                 IF VD_$$MON_EVAL.V# > 0 THEN
     1148     3501    3                    CALL VDG$MEVAL_FOUND_RANGE (TOS$EVAL);
     1149     3502                      /*
PL6.E3A0      #002=VDE$IRANGE File=VDE$INTERPRET.:VDA5TSI                        FRI 07/04/97 11:11 Page:112
     1150     3503                      *  Find the IT_SELECT node we're evaluating for.
     1151     3504                      */
     1152     3505    3                 TEST_EVAL$ = TOS_EVAL$;
     1153     3506    3                 IT_SELECT$ = ADDR(NIL);
     1154     3507    4                 DO WHILE IT_SELECT$ = ADDR(NIL);
     1155     3508    5                    DO WHILE TEST$EVAL.NODE$ = ADDR(NIL);
     1156     3509    5                       TEST_EVAL$ = TEST$EVAL.BLINK$;
     1157     3510    5                       END;
     1158     3511    4                    IF TEST$EVAL.NODE$->VD$OBJECT_HEADER.CLASS# =
     1159     3512    4                      %CLS_IT_SELECT THEN
     1160     3513    4                       IT_SELECT$ = TEST$EVAL.NODE$;
     1161     3514    4                    ELSE
     1162     3515    4                       TEST_EVAL$ = TEST$EVAL.BLINK$;
     1163     3516    4                    END;
     1164     3517
     1165     3518                      /* Flink to the next IT_SELECT node */
     1166     3519    3                 IT_SELECT$ = IT$SELECT.FLINK$;
     1167     3520    3                 IF IT_SELECT$ = ADDR(NIL) THEN
     1168     3521    3                    RETURN;        /* Found a range for entire InTree */
     1169     3522
     1170     3523                      /* Push a new VD$EVAL for the new IT_SELECT node */
     1171     3524    3                 PREV_EVAL$ = TOS_EVAL$;
     1172     3525    3                 CALL VDG$OALLOC (%CLS_EVAL, OPERAND.EVAL$)
     1173     3526    3                   ALTRET (OALLOC_FAILED);
     1174     3527    3                 TOS_EVAL$ = OPERAND.EVAL$;
     1175     3528    3                 TOS$EVAL.BLINK$ = PREV_EVAL$;
     1176     3529    3                 CALL VDG$OCOPY_RANGE (PREV$EVAL.RANGE, TOS$EVAL.ENCLOSING)
     1177     3530    3                   ALTRET (OCOPY_RANGE_FAILED);
     1178     3531    3                 CALL VDG$OCOPY_LOCATION (PREV$EVAL.RANGE.START,
     1179     3532    3                   TOS$EVAL.RANGE.START)
     1180     3533    3                   ALTRET (OCOPY_LOCATION_FAILED);
     1181     3534    3                 CALL VDG$OCOPY_LOCATION (PREV$EVAL.RANGE.START,
     1182     3535    3                   TOS$EVAL.RANGE.ENDD)
     1183     3536    3                   ALTRET (OCOPY_LOCATION_FAILED);
     1184     3537    3                 TOS$EVAL.STATE# = %EVST_INITIAL;
     1185     3538    3                 TOS$EVAL.NODE$ = IT_SELECT$;
     1186     3539    3                 IF IT$SELECT.RPT_ALL THEN
PL6.E3A0      #002=VDE$IRANGE File=VDE$INTERPRET.:VDA5TSI                        FRI 07/04/97 11:11 Page:113
     1187     3540    3                    TOS$EVAL.REMAINING# = %MX_REPEAT_COUNT;
     1188     3541    3                 ELSE
     1189     3542    3                    TOS$EVAL.REMAINING# = IT$SELECT.RPT_COUNT#;
     1190     3543    3                 END SIGNAL_TRUE;
     1191     3544    2              ELSE
     1192     3545    3   SIGNAL_FALSE: DO;
     1193     3546    3                 IF TOS$EVAL.NODE$ -> VD$OBJECT_HEADER.CLASS# =
     1194     3547    3                   %CLS_IT_SELECT THEN
     1195     3548    3                    TOS$EVAL.REMAINING# = 0;   /* Don't try any more */
     1196     3549                      /*
     1197     3550                      *  Backtrack to a generator with some alternatives left.
     1198     3551                      */
     1199     3552    4                 DO WHILE TOS$EVAL.REMAINING# <= 0
     1200     3553    4                   AND TOS$EVAL.BLINK$ ~= ADDR(NIL);
     1201     3554    4                    OPERAND.EVAL$ = TOS$EVAL.BLINK$;
     1202     3555    4                    CALL VDG$OFREE (TOS$EVAL)
     1203     3556    4                      ALTRET (OFREE_FAILED);
     1204     3557    4                    TOS_EVAL$ = OPERAND.EVAL$;  /* Load new TOS ptr */
     1205     3558    4                    END;
     1206     3559    4                 IF TOS$EVAL.REMAINING# <= 0 THEN DO;
     1207     3560                         /* No more backtracks: done w/InTree */
     1208     3561    4                    SIGNAL = %FALSE;
     1209     3562    4                    RETURN;
     1210     3563    4                    END;
     1211     3564
     1212     3565    4                 DO CASE (TOS$EVAL.NODE$->VD$OBJECT_HEADER.CLASS#);
     1213     3566    4                  CASE (%CLS_IT_SELECT);
     1214     3567                         /* Start from end of last-found range */
     1215     3568    4                    TOS$EVAL.STATE# = %EVST_INITIAL;
     1216     3569
     1217     3570    4                  CASE (%CLS_IT_OPERATOR);
     1218     3571    4                    PREV_EVAL$ = TOS$EVAL.BLINK$;
     1219     3572    4                    IF PREV_EVAL$ = ADDR(NIL) THEN
     1220     3573    4                       CALL VDG$ESCREECH;
     1221     3574    4                    IF TOS$EVAL.NODE$->VD$IT_OPERATOR.CODE# =
     1222     3575    5                      %OPOR_OR THEN DO;
     1223     3576    5                       CALL VDG$OCLEAR_RANGE (TOS$EVAL.RANGE)
PL6.E3A0      #002=VDE$IRANGE File=VDE$INTERPRET.:VDA5TSI                        FRI 07/04/97 11:11 Page:114
     1224     3577    5                         ALTRET (OCLEAR_RANGE_FAILED);
     1225     3578    5                       CALL VDG$OCOPY_RANGE (PREV$EVAL.RANGE,
     1226     3579    5                         TOS$EVAL.RANGE)
     1227     3580    5                         ALTRET (OCOPY_RANGE_FAILED);
     1228     3581    5                       TOS$EVAL.STATE# = PREV$EVAL.STATE#;
     1229     3582    5                       END;
     1230     3583    4                  END;
     1231     3584
     1232     3585    3                 SIGNAL = %TRUE;
     1233     3586    3                 END SIGNAL_FALSE;
     1234     3587    2              END EVAL_SELECTS;
     1235     3588
     1236     3589
     1237     3590    1           RETURN;
     1238     3591
     1239     3592
     1240     3593
     1241     3594    1   OALLOC_FAILED: ;
     1242     3595    1   OFREE_FAILED: ;
     1243     3596    1   ISELECT_FAILED: ;
     1244     3597    1   OCLEAR_LOCATION_FAILED: ;
     1245     3598    1   OCOPY_LOCATION_FAILED: ;
     1246     3599    1   OCLEAR_RANGE_FAILED: ;
     1247     3600    1   OCOPY_RANGE_FAILED: ;
     1248     3601    1           ALTRETURN;
     1249     3602
     1250     3603
     1251     3604                %BOX (TITLE="ISELECT", PAGE=YES);
              3612    1
              3616    1   /***************************************************************************
              3618    1    *                                                                         *
              3622    1            *                                  ISELECT                                *
              3624    1            *                                                                         *
              3626    1           ***************************************************************************/

     1252     3630
     1253     3631        /*I* NAME:  ISELECT
PL6.E3A0      #002=VDE$IRANGE File=VDE$INTERPRET.:VDA5TSI                        FRI 07/04/97 11:11 Page:115
     1254     3632            PARAMETERS:
     1255     3633                OPERAND - The VD$OPERAND whose InTree we're evaluating.
     1256     3634                    In OPERAND's EVAL$ (top VD$EVAL on the evaluation stack):
     1257     3635                    o TOS$EVAL.RANGE must specify the initial range for
     1258     3636                        evaluation.  This range must lie completely within
     1259     3637                        the enclosing limits (TOS$EVAL.ENCLOSING).
     1260     3638                    o TOS$EVAL.STATE# must contain the state of evaluation.
     1261     3639                    o TOS$EVAL.NODE$ must point to the IT_SELECT InTree node
     1262     3640                        to evaluate.
     1263     3641                    o This IT_SELECT node must have at least one repetition
     1264     3642                        remaining.
     1265     3643                SIGNAL - An uninitialized BIT(1) ALIGNED.
     1266     3644            INPUT:
     1267     3645            OUTPUT:
     1268     3646                OPERAND may have a new VD$EVAL at the top of it's evaluation
     1269     3647                    stack, if we evaluated any generators.
     1270     3648                TOS$EVAL.STATE# and .RANGE may be modified:  they will contain
     1271     3649                    the final state and range bounds evaluated for this
     1272     3650                    IT_SELECT node.
     1273     3651                TOS$EVAL.LAST_FOUND_RANGE will specify the same range that
     1274     3652                    TOS$EVAL.RANGE specified at entry to this routine.
     1275     3653                TOS$EVAL.REMAINING# may be forced to 0 (when we want to stop any
     1276     3654                    further evaluation of an IT_SELECT (???Operator???) node).
     1277     3655                SIGNAL will contain true or false, as described for VDE$IRANGE.
     1278     3656            DESCRIPTION:
     1279     3657                Clear TOS$EVAL.LAST_FOUND_RANGE to begin with.  If this is a repeated
     1280     3658                    SELECT clause, then copy TOS$EVAL.RANGE to .LAST_FOUND_RANGE,
     1281     3659                    so we can compare any newly-found range with the last one found
     1282     3660                    to be sure we're making forward progress.
     1283     3661                    If this isn't a repeated SELECT clause, we want to make sure that
     1284     3662                    the comparison at the end of ISELECT finds progress:  by
     1285     3663                    definition, a single SELECT represents "progress".
     1286     3664                    ((Test case:  ED FI x:  at entry to ISELECT, TOS$EVAL.RANGE
     1287     3665                    is BOF - EOF, and that's the range found for the SELECT.
     1288     3666                    Even tho it's the same as the "last found range", it should
     1289     3667                    succeed.))
     1290     3668                For each child of the IT_SELECT node:
PL6.E3A0      #002=VDE$IRANGE File=VDE$INTERPRET.:VDA5TSI                        FRI 07/04/97 11:11 Page:116
     1291     3669                    Make any state change specified by IT$ADJUST.NEW_STATE#.
     1292     3670                    Call VDE$IADJUST.
     1293     3671                Guarantee that the evaluated range's start bound is
     1294     3672                    located before or equal to its end bound in the domain.
     1295     3673                    If not, switch the start and end bounds.
     1296     3674                If any call to VDE$IADJUST returns a false signal,
     1297     3675                    return immediately.
     1298     3676                Compare the newly-found TOS$EVAL.RANGE with .LAST_FOUND_RANGE:
     1299     3677                    if they're equal, return a false SIGNAL -- and set
     1300     3678                    TOS$EVAL.REMAINING# to 0 to force failure of all alternatives.
     1301     3679                    ((See star 22441, cases 2, 3, and 4 and the case in the star
     1302     3680                    description:
     1303     3681                        REPEAT SE BA SK 1 RE
     1304     3682                        DE L REPE SE RE SE PO 5 TH EO RE
     1305     3683                        CO ST 'A' OV REPE SE RE PO 1 SE '.'
     1306     3684                        EO CURR; CO ST 'X' OV REPE SE BA SK 2 RE SE '.'
     1307     3685                    All these cases need to fail when a REPEAT SELECT finds the same
     1308     3686                    range repeatedly.))
     1309     3687        */
     1310     3688
     1311     3689    1   ISELECT: PROC (OPERAND, SIGNAL) ALTRET;
     1312     3690
     1313     3691        %VD$OPERAND (NAME=OPERAND, STCLASS=PARAM);
     1314     3705    2   DCL SIGNAL BIT(1) ALIGNED;
     1315     3706
     1316     3707
     1317     3708    2   DCL TOS_EVAL$ PTR;
     1318     3709    2   DCL IT_ADJUST$ PTR;
     1319     3710        %VD$LOCATION (NAME=TEMP_START, STCLASS=AUTO);
     1320     3738
     1321     3739
     1322     3740        %VD$EVAL (NAME=TOS$EVAL, STCLASS="BASED(TOS_EVAL$)");
     1323     3985        %VD$IT_ADJUST (NAME=IT$ADJUST, STCLASS="BASED(IT_ADJUST$)");
     1324     4022        %VD$IT_SELECT;
     1325     4059
     1326     4060
     1327     4061
PL6.E3A0      #002=VDE$IRANGE File=VDE$INTERPRET.:VDA5TSI                        FRI 07/04/97 11:11 Page:117
     1328     4062    2           SIGNAL = %TRUE;
     1329     4063    2           TOS_EVAL$ = OPERAND.EVAL$;
     1330     4064    2           CALL VDG$OCLEAR_RANGE (TOS$EVAL.LAST_FOUND_RANGE)
     1331     4065    2             ALTRET (OCLEAR_RANGE_FAILED);
     1332     4066    2           IF TOS$EVAL.NODE$->VD$IT_SELECT.RPT_ALL
     1333     4067    3             OR TOS$EVAL.NODE$->VD$IT_SELECT.RPT_COUNT# > 1 THEN DO;
     1334     4068    3              CALL VDG$OCOPY_RANGE (TOS$EVAL.RANGE, TOS$EVAL.LAST_FOUND_RANGE)
     1335     4069    3                ALTRET (OCOPY_RANGE_FAILED);
     1336     4070    3              END;
     1337     4071
     1338     4072                /*
     1339     4073                *   Evaluate the SELECT clause
     1340     4074                */
     1341     4075
     1342     4076    2           IT_ADJUST$ = TOS$EVAL.NODE$->VD$IT_SELECT.ADJUSTS$;
     1343     4077
     1344     4078    2   EACH_IT_ADJUST:
     1345     4079    3           DO WHILE IT_ADJUST$ ~= ADDR(NIL)
     1346     4080    3             AND SIGNAL;
     1347     4081
     1348     4082    4              DO CASE (IT$ADJUST.NEW_STATE#);
     1349     4083    4               CASE (0);
     1350     4084    4                 ;     /* Do nothing: no state change */
     1351     4085
     1352     4086    4               CASE (%EVST_START, %EVST_END);
     1353     4087                      /* Collapse range to current FP location */
     1354     4088    5                 DO CASE (TOS$EVAL.STATE#);
     1355     4089    5                  CASE (%EVST_INITIAL, %EVST_START);
     1356     4090    5                    CALL VDG$OCLEAR_LOCATION (TOS$EVAL.RANGE.ENDD)
     1357     4091    5                      ALTRET (OCLEAR_LOCATION_FAILED);
     1358     4092    5                    CALL VDG$OCOPY_LOCATION (TOS$EVAL.RANGE.START,
     1359     4093    5                      TOS$EVAL.RANGE.ENDD)
     1360     4094    5                      ALTRET (OCOPY_LOCATION_FAILED);
     1361     4095    5                  CASE (%EVST_END);
     1362     4096    5                    CALL VDG$OCLEAR_LOCATION (TOS$EVAL.RANGE.START)
     1363     4097    5                      ALTRET (OCLEAR_LOCATION_FAILED);
     1364     4098    5                    CALL VDG$OCOPY_LOCATION (TOS$EVAL.RANGE.ENDD,
PL6.E3A0      #002=VDE$IRANGE File=VDE$INTERPRET.:VDA5TSI                        FRI 07/04/97 11:11 Page:118
     1365     4099    5                      TOS$EVAL.RANGE.START)
     1366     4100    5                      ALTRET (OCOPY_LOCATION_FAILED);
     1367     4101    5                  CASE (ELSE);
     1368     4102    5                    CALL VDG$ESCREECH (TOS$EVAL.STATE#);
     1369     4103    5                  END;
     1370     4104    4                 TOS$EVAL.STATE# = IT$ADJUST.NEW_STATE#;
     1371     4105
     1372     4106    4               CASE (%EVST_TOGGLE);
     1373     4107    4                 IF TOS$EVAL.STATE# = %EVST_END THEN
     1374     4108    4                    TOS$EVAL.STATE# = %EVST_START;
     1375     4109    4                 ELSE
     1376     4110    4                    TOS$EVAL.STATE# = %EVST_END;
     1377     4111
     1378     4112    4               CASE (ELSE);
     1379     4113    4                 CALL VDG$ESCREECH (IT$ADJUST.NEW_STATE#);
     1380     4114    4               END;
     1381     4115
     1382     4116    3              CALL VDE$IADJUST (OPERAND, IT$ADJUST, SIGNAL)
     1383     4117    3                ALTRET (IADJUST_FAILED);
     1384     4118                   /*
     1385     4119                   *  We may have pushed new VD$EVALs on the stack, for
     1386     4120                   *    generators other than SELECT: get the new tos-VD$EVAL.
     1387     4121                   */
     1388     4122    3              TOS_EVAL$ = OPERAND.EVAL$;
     1389     4123
     1390     4124    3              IT_ADJUST$ = IT$ADJUST.FLINK$;
     1391     4125    3              END EACH_IT_ADJUST;
     1392     4126
     1393     4127
     1394     4128    2           CALL VDE$IGUAR_RANGE_IN_RANGE (TOS$EVAL.RANGE,
     1395     4129    2             TOS$EVAL.ENCLOSING, TRUNCATED, COMPLETELY_OUTSIDE)
     1396     4130    2             ALTRET (IGUAR_RANGE_IN_RANGE_FAILED);
     1397     4131    2           IF COMPLETELY_OUTSIDE THEN
     1398     4132    2              SIGNAL = %FALSE;
     1399     4133    2           CALL VDG$COMPARE_LOCS (TOS$EVAL.RANGE.START,
     1400     4134    2             TOS$EVAL.RANGE.ENDD, RCCL)
     1401     4135    2             ALTRET (COMPARE_LOCS_FAILED);
PL6.E3A0      #002=VDE$IRANGE File=VDE$INTERPRET.:VDA5TSI                        FRI 07/04/97 11:11 Page:119
     1402     4136    3           IF RCCL > %RCCL_EQUAL THEN DO;
     1403     4137    3              TEMP_START = TOS$EVAL.RANGE.START;
     1404     4138    3              TOS$EVAL.RANGE.START = TOS$EVAL.RANGE.ENDD;
     1405     4139    3              TOS$EVAL.RANGE.ENDD = TEMP_START;
     1406     4140    4              DO CASE (TOS$EVAL.STATE#);
     1407     4141    4               CASE (%EVST_INITIAL, %EVST_START);
     1408     4142    4                 TOS$EVAL.STATE# = %EVST_END;
     1409     4143    4               CASE (%EVST_END);
     1410     4144    4                 TOS$EVAL.STATE# = %EVST_START;
     1411     4145    4               END;
     1412     4146    3              END;
     1413     4147
     1414     4148    3           IF SIGNAL THEN DO;
     1415     4149                   /* Did we find the same range as last time? */
     1416     4150    3              CALL VDG$COMPARE_LOCS (TOS$EVAL.RANGE.START,
     1417     4151    3                TOS$EVAL.LAST_FOUND_RANGE.START, RCCL)
     1418     4152    3                ALTRET (COMPARE_LOCS_FAILED);
     1419     4153    4              IF RCCL = %RCCL_EQUAL THEN DO;
     1420     4154    4                 CALL VDG$COMPARE_LOCS (TOS$EVAL.RANGE.ENDD,
     1421     4155    4                   TOS$EVAL.LAST_FOUND_RANGE.ENDD, RCCL)
     1422     4156    4                   ALTRET (COMPARE_LOCS_FAILED);
     1423     4157    5                 IF RCCL = %RCCL_EQUAL THEN DO;
     1424     4158                         /* Found same range again: fail this and all alternatives */
     1425     4159    5                    SIGNAL = %FALSE;
     1426     4160                         /*N*??* Must we find the VD$EVAL for the IT_SELECT node? *N*/
     1427     4161    5                    TOS$EVAL.REMAINING# = 0;
     1428     4162    5                    END;
     1429     4163    4                 END;
     1430     4164    3              END;
     1431     4165
     1432     4166    2           RETURN;
     1433     4167
     1434     4168
     1435     4169
     1436     4170    2   OCLEAR_RANGE_FAILED: ;
     1437     4171    2   OCOPY_RANGE_FAILED: ;
     1438     4172    2   OCLEAR_LOCATION_FAILED: ;
PL6.E3A0      #002=VDE$IRANGE File=VDE$INTERPRET.:VDA5TSI                        FRI 07/04/97 11:11 Page:120
     1439     4173    2   OCOPY_LOCATION_FAILED: ;
     1440     4174    2   IADJUST_FAILED: ;
     1441     4175    2   IGUAR_RANGE_IN_RANGE_FAILED: ;
     1442     4176    2   COMPARE_LOCS_FAILED: ;
     1443     4177    2           ALTRETURN;
     1444     4178
     1445     4179    2   END ISELECT;
     1446     4180
     1447     4181    1   END VDE$IRANGE;
     1448     4182        %EOD;

PL6.E3A0      #002=VDE$IRANGE File=VDE$INTERPRET.:VDA5TSI                        FRI 07/04/97 11:11 Page:121
--  Include file information  --

   VD_PERR_C.:VDA5TOU  is referenced.
   VD_MACROS_M.:VDA5TOU  is referenced.
   B$JIT_C.:E04TOU  was found in the system file and is never referenced.
   CP_6_C.:E04TOU  was found in the system file and is never referenced.
      No diagnostics issued in procedure VDE$IRANGE.

   Procedure VDE$IRANGE requires 492 words for executable code.
   Procedure VDE$IRANGE requires 30 words of local(AUTO) storage.

PL6.E3A0      #002=VDE$IRANGE File=VDE$INTERPRET.:VDA5TSI                        FRI 07/04/97 11:11 Page:122

 Object Unit name= VDE$IRANGE                                 File name= VDE$INTERPRET.:VDA5TOU
 UTS= JUL 04 '97 11:11:34.68 FRI                              Compiler= PL-6/E31         Sev=      00
 SharedLib= :SHARED_SYSTEM                                    Alt SharedLib=


    ****  Control sections  ****

 Sect   Type Bound  Init  Size OctSiz  Section name(segment info)
    0   Proc  even  none   492    754  VDE$IRANGE
    1  RoData even  none     1      1  VDE$IRANGE

    ****  Entry defs  ****

                              Check   Calling
                             calling  sequence
  Sect OctLoc Primary Altret sequence   type   Parms  Name
     0      0   yes    yes     yes      Std        2  VDE$IRANGE

  ****  Entry refs  ****

         Check        Calling
        calling       sequence
Altret sequence SRef   type   Args  Name
         yes           Std       1 VDG$MEVAL_START_EVAL
         yes           Std       1 VDG$MEVAL_FOUND_RANGE
 yes     yes           Std       3 VDG$OALLOC
 yes     yes           Std       1 VDG$OFREE
         yes           Std       3 VDG$ESCREECH
 yes     yes           Std       1 VDG$OCLEAR_RANGE
 yes     yes           Std       2 VDG$OCOPY_LOCATION
 yes     yes           Std       2 VDG$OCOPY_RANGE
 yes     yes           Std       1 VDG$OCLEAR_LOCATION
 yes     yes           Std       3 VDG$COMPARE_LOCS
 yes     yes           Std       3 VDE$IADJUST
 yes     yes           Std       4 VDE$IGUAR_RANGE_IN_RANGE
                       nStd      0 X66_AUTO_2
                       Std       0 B_CONSPOOL_D
PL6.E3A0      #002=VDE$IRANGE File=VDE$INTERPRET.:VDA5TSI                        FRI 07/04/97 11:11 Page:123
                       nStd      0 X66_ARET
                       nStd      0 X66_AALT

  ****  Data refs  ****

  Flags:  r = read only, s = secondary
Flgs Name                             Flgs Name                             Flgs Name
     VD_$$MON_EVAL                         B_VECTNIL

  ****  Segment refs  ****

  Flags:  r = read only, s = secondary
Flgs Name                             Flgs Name                             Flgs Name
     ISSID
PL6.E3A0      #002=VDE$IRANGE File=VDE$INTERPRET.:VDA5TSI                        FRI 07/04/97 11:11 Page:124


      891        1        /*T***********************************************************/
      892        2        /*T*                                                         */
      893        3        /*T* Copyright (c) Bull HN Information Systems Inc., 1997    */
      894        4        /*T*                                                         */
      895        5        /*T***********************************************************/
      896        6
      897        7        /*D* NAME:  VDE$IRANGE
      898        8            PARAMETERS:
      899        9                OPERAND - A VD$OPERAND containing the InTree to evaluate:
      900       10                    .STREAM$ must point to a stream which is already
      901       11                        open to the InTree's domain.
      902       12                    .EDIT_BLOCK$ must point to a block descriptor
      903       13                        specifying the domain (EditBlock) for the InTree.
      904       14                    .EVAL$ must point to the top VD$EVAL on
      905       15                        the evaluation stack.  There are three distinct
      906       16                        situations when VDE$IRANGE is called:
      907       17                        1. At the start of a new editing operation (ie, the
      908       18                            first VDE$IRANGE call after a command processor
      909       19                            (VDI$Cxxx) for an editing command has finished executing).
      910       20                            In this case, there should be exactly one VD$EVAL
      911       21                            in the stack, initialized from the first
      912       22                            VD$IT_SELECT node (if any) in the Intree.  This
      913       23                            VD$EVAL's .STATE# must be %EVST_INITIAL, and its
      914       24                            .RANGE.ENDD must specify where to start
      915       25                            relative movement (if the InTree has no absolute operands).
      916       26                                        !! NOTE !!
      917       27                                Relative evaluation begins at the
      918       28                                location specified by .ENDD, not
      919       29                                .START!!
      920       30                            Test cases:
      921       31                            CO x AF REPE SE 'y'
      922       32                              After the 1st substitution, TOS$EVAL.RANGE will cover
      923       33                              the inserted block (copy of x); the search for 'y' should
      924       34                              start from the END of the inserted block.
      925       35                            CO x AF 'y'; CO x AF 'y'
      926       36                              Should behave exactly identical to previous test case.
PL6.E3A0      #002=VDE$IRANGE File=VDE$INTERPRET.:VDA5TSI                        FRI 07/04/97 11:11 Page:125
      927       37                            'y'; TH 'z'; LO L IS THAT
      928       38                              Search for 'z' should start at END of match of 'y'.
      929       39                            5 | TH 10           (where "|" is " " or ";" or <CR><CMD>)
      930       40                              After evaluating the "5", TOS$EVAL.RANGE will be an
      931       41        *??* BO 5 TH EO 5?    empty range at BO 5.
      932       42                              Final result should be BO 5 TH EO 10.
      933       43                            5 | TH 'y'
      934       44        *??* TH EO 5? *??*    "5" evaluates to BO 5 TH BO 5; "THRU" just changes
      935       45                              the eval state; search for 'y' should start from
      936       46        *??* EO 5? *??*       BO 5.
      937       47                            5 | RE | TH 'y'
      938       48                              "5 RE" evaluates to BO 5 TH EO 5; "THRU" just changes
      939       49                              the eval state; search for 'y' should start from
      940       50                              EO 5.
      941       51                        2. Successive evaluations after the first for repeated
      942       52                            block expressions.  In this case, the evaluation
      943       53                            stack should reflect the last range found for
      944       54                            each generator or IT_SELECT node; the top
      945       55                            VD$EVAL's .STATE# must be %EVST_INITIAL, and its
      946       56                            .RANGE must specify the last operand found for
      947       57                            the generator.  Relative movement will start at the
      948       58                            location specified by the end of that range.
      949       59                        3. Successive evaluations after the first for a single
      950       60                            editing operation.  This will happen only when
      951       61                            the user enters verb-less block expressions; the
      952       62                            first such evaluation will look just like case
      953       63                            1 above.  On successive evaluations, the top
      954       64                            VD$EVAL's .STATE# and .RANGE will specify where
      955       65                            we left off evaluation:  if .STATE# is still
      956       66                            %EVST_INITIAL, it'll look like case 1; if the
      957       67                            user has already given a THRU or ADJUST keyword,
      958       68                            .STATE# will be %EVST_START or _END, which is
      959       69                            this case, case 3:  pick up evaluation from the
      960       70                            given .STATE# and .RANGE.
      961       71                        Note that cases 1 and 2 have the same entry conditions
      962       72                        and are processed identically; only case 3 is
      963       73                        differentiated, by the initial state being something
PL6.E3A0      #002=VDE$IRANGE File=VDE$INTERPRET.:VDA5TSI                        FRI 07/04/97 11:11 Page:126
      964       74                        other than %EVST_INITIAL.
      965       75                    .INTREE$ must point to the InTree to evaluate.
      966       76                        There must be an InTree, although it may be entirely
      967       77                        empty (only a VD$IT_BLOCK_EXPR node).
      968       78                SIGNAL - An uninitialized BIT(1) ALIGNED.
      969       79            INPUT:
      970       80            OUTPUT:
      971       81                SIGNAL will contain true or false:
      972       82                    %TRUE indicates that when evaluating InTree we were
      973       83                        able to find a range which lies partially or completely
      974       84                        within the EditBlock.
      975       85                        The top VD$EVAL in the window's .EVAL$ stack
      976       86                        specifies the found range.
      977       87                    %FALSE indicates failure to find a range for the InTree
      978       88                            due to one of the following reasons:
      979       89                        o The generators in the InTree are exhausted;
      980       90                        o An absolute operand specified a block which lies
      981       91                            completely outside the enclosing block;
      982       92                        o A conditional operand could not find a range
      983       93                            within the enclosing block;
      984       94                        o The starting range for evaluation of the next range
      985       95                            was already (at or) outside the enclosing block.
      986       96                            (See DESCRIPTION for caveats on the "at or".)
      987       97                    NOTE - If SIGNAL=%FALSE is returned, the top VD$EVAL
      988       98                        on the window's .EVAL$ stack may be modified, but
      989       99                        its contents will be irrelevant.
      990      100            DESCRIPTION:
      991      101                Look at the object-class of the InTree node pointed-to by the last
      992      102                    VD$EVAL on the evaluation stack:
      993      103                    o None:  there's no InTree, we're done evaluating,
      994      104                        return SIGNAL = %FALSE.
      995      105                    o Anything except IT_SELECT:  pop this VD$EVAL off the
      996      106                        stack; keep popping til we get to an EVAL which
      997      107                        points to an IT_SELECT node which has some
      998      108                        repetitions remaining.  These VD$EVALs that
      999      109                        we're popping are left over from the last evaluation
     1000      110                        of this InTree, from generators other than IT_SELECTs
PL6.E3A0      #002=VDE$IRANGE File=VDE$INTERPRET.:VDA5TSI                        FRI 07/04/97 11:11 Page:127
     1001      111                        or from IT_SELECTs whose repetitions have run out.
     1002      112        *??*            The only alternatives which survive between successive
     1003      113        *??*            evaluations are those of an IT_SELECT generator.
     1004      114
     1005      115                Loop, evaluating each IT_SELECT node in the InTree.
     1006      116                After evaluating each IT_SELECT node:
     1007      117                Decrement the .REMAINING count.
     1008      118                If the signal is true:
     1009      119                    If this is the last IT_SELECT node in the InTree,
     1010      120                        return with SIGNAL = %TRUE.
     1011      121                    If this isn't the last IT_SELECT node in the InTree,
     1012      122                        push a new VD$EVAL on the stack for the new IT_SELECT
     1013      123                        node:
     1014      124                            new EVAL.RANGE := an empty range at the old
     1015      125                                            tos-VD$EVAL's range start location
     1016      126                            new EVAL.ENCLOSING := old tos-VD$EVAL's range
     1017      127                            new EVAL.STATE := EVST_INITIAL
     1018      128                            new EVAL.REMAINING := new IT_SELECT node's repeat count
     1019      129                        Loop to evaluate the new IT_SELECT node.
     1020      130                If the signal is false, backtrack:
     1021      131                    First, look at the top VD$EVAL on the stack:
     1022      132                        If it's for an IT_SELECT node, forget it:  the first failure
     1023      133                            is failure for all alternatives.
     1024      134                        If it's not for an IT_SELECT node, then failure for one
     1025      135                            alternative doesn't imply anything about the other
     1026      136                            alternatives; if it's .REMAINING > 0, it's Intree node
     1027      137                            can generate more ranges:
     1028      138                            o If it's an OPOR_OR, copy the range and state from the
     1029      139                                previous VD$EVAL on the stack, and begin evaluating
     1030      140                                the IT_OPERAND's second ("right-hand") child.
     1031      141                        If it's an IT_SELECT node or the .REMAINING count is 0, pop
     1032      142                            the VD$EVAL off the stack.
     1033      143                    If we had to pop the stack, see if the new tos-VD$EVAL's
     1034      144                        .REMAINING is > 0; if not, keep popping til we find one whose
     1035      145                        .REMAINING is > 0:  when we do:
     1036      146                        o If it's an IT_SELECT, reset the range to an empty range
     1037      147                            at the current range end location, and reset the
PL6.E3A0      #002=VDE$IRANGE File=VDE$INTERPRET.:VDA5TSI                        FRI 07/04/97 11:11 Page:128
     1038      148                            state to EVST_INITIAL.  Begin evaluating the
     1039      149                            IT_SELECT's children again.
     1040      150                        o If it's an OPOR_OR, do as above for OPOR_OR.
     1041      151                    If we keep popping til we empty the stack, return with SIGNAL =
     1042      152                        %FALSE.
     1043      153        */
     1044      154
     1045      155        VDE$IRANGE: PROC (OPERAND, SIGNAL) ALTRET;

    155  0 000000   000000 700200 xent  VDE$IRANGE   TSX0  ! X66_AUTO_2
         0 000001   000036 000002                    ZERO    30,2

     1046      156
     1047      157
     1048      158        %INCLUDE VD_MACROS_M;
     1049     2373        %INCLUDE VD_PERR_C;
     1050     2521
     1051     2522
     1052     2523        %VD$OPERAND (NAME=OPERAND, STCLASS=PARAM);
     1053     2537    1   DCL SIGNAL BIT(1) ALIGNED;
     1054     2538
     1055     2539
     1056     2540
     1057     2541    1   DCL VDE$IADJUST         ENTRY (3) ALTRET;
     1058     2542    1   DCL VDE$IGUAR_RANGE_IN_RANGE ENTRY (4) ALTRET;
     1059     2543    1   DCL VDG$COMPARE_LOCS    ENTRY (3) ALTRET;
     1060     2544    1   DCL VDG$OALLOC          ENTRY (3) ALTRET;
     1061     2545    1   DCL VDG$OFREE           ENTRY (1) ALTRET;
     1062     2546    1   DCL VDG$OCLEAR_RANGE    ENTRY (1) ALTRET;
     1063     2547    1   DCL VDG$OCOPY_RANGE     ENTRY (2) ALTRET;
     1064     2548    1   DCL VDG$OCLEAR_LOCATION ENTRY (1) ALTRET;
     1065     2549    1   DCL VDG$OCOPY_LOCATION  ENTRY (2) ALTRET;
     1066     2550    1   DCL VDG$ESCREECH        ENTRY (3);
     1067     2551    1   DCL VDG$MEVAL_START_EVAL ENTRY (1);
     1068     2552    1   DCL VDG$MEVAL_FOUND_RANGE ENTRY (1);
     1069     2553
     1070     2554
PL6.E3A0      #002=VDE$IRANGE File=VDE$INTERPRET.:VDA5TSI                        FRI 07/04/97 11:11 Page:129
     1071     2555        %VD$NUMBER (NAME=VD_$$MON_EVAL, STCLASS=SYMREF);
     1072     2600
     1073     2601
     1074     2602
     1075     2603    1   DCL TOS_EVAL$ PTR;
     1076     2604    1   DCL TEST_EVAL$ PTR;
     1077     2605    1   DCL PREV_EVAL$ PTR;
     1078     2606    1   DCL IT_SELECT$ PTR;
     1079     2607    1   DCL TRUNCATED BIT(1) ALIGNED;
     1080     2608    1   DCL COMPLETELY_OUTSIDE BIT(1) ALIGNED;
     1081     2609    1   DCL RCCL SBIN;
     1082     2610
     1083     2611
     1084     2612        %VD$EVAL (NAME=TOS$EVAL, STCLASS="BASED(TOS_EVAL$)");
     1085     2857        %VD$EVAL (NAME=TEST$EVAL, STCLASS="BASED(TEST_EVAL$)");
     1086     3102        %VD$EVAL (NAME=PREV$EVAL, STCLASS="BASED(PREV_EVAL$)");
     1087     3347        %VD$IT_SELECT (NAME=IT$SELECT, STCLASS="BASED(IT_SELECT$)");
     1088     3384        %VD$OBJECT_HEADER;
     1089     3406        %VD$IT_OPERATOR;
     1090     3443
     1091     3444
     1092     3445
     1093     3446    1           SIGNAL = %TRUE;

   3446  0 000002   400000 236003                    LDQ     -131072,DU
         0 000003   200004 470500                    LDP0    @SIGNAL,,AUTO
         0 000004   000000 756100                    STQ     0,,PR0

     1094     3447    1           TOS_EVAL$ = OPERAND.EVAL$;

   3447  0 000005   200003 471500                    LDP1    @OPERAND,,AUTO
         0 000006   100003 236100                    LDQ     3,,PR1
         0 000007   200005 756100                    STQ     TOS_EVAL$,,AUTO

     1095     3448
     1096     3449    1           IF VD_$$MON_EVAL.V# > 0 THEN

PL6.E3A0      #002=VDE$IRANGE File=VDE$INTERPRET.:VDA5TSI                        FRI 07/04/97 11:11 Page:130
   3449  0 000010   000003 235000 xsym               LDA     VD_$$MON_EVAL+3
         0 000011   000016 604400 0                  TMOZ    FIND_TOP_SELECT

     1097     3450    1              CALL VDG$MEVAL_START_EVAL (OPERAND);

   3450  0 000012   200003 630500                    EPPR0   @OPERAND,,AUTO
         0 000013   000017 631400 xsym               EPPR1   B_VECTNIL+15
         0 000014   000000 701000 xent               TSX1    VDG$MEVAL_START_EVAL
         0 000015   000000 011000                    NOP     0

     1098     3451
     1099     3452                /*
     1100     3453                *  Pop the evaluation stack til we get an IT_SELECT which
     1101     3454                *     has some remaining repetitions.
     1102     3455                */
     1103     3456    1   FIND_TOP_SELECT:
     1104     3457    2           DO WHILE TOS_EVAL$ ~= ADDR(NIL);

   3457  0 000016   000050 710000 0     FIND_TOP_SE* TRA     s:3470

     1105     3458    2              IF TOS$EVAL.NODE$ ~= ADDR(NIL) THEN

   3458  0 000017   200005 470500                    LDP0    TOS_EVAL$,,AUTO
         0 000020   000071 236100                    LDQ     57,,PR0
         0 000021   000001 116000 xsym               CMPQ    B_VECTNIL+1
         0 000022   000031 600000 0                  TZE     s:3462

     1106     3459    2                 IF TOS$EVAL.NODE$->VD$OBJECT_HEADER.CLASS# = %CLS_IT_SELECT

   3459  0 000023   000071 471500                    LDP1    57,,PR0
         0 000024   100000 220100                    LDX0    0,,PR1
         0 000025   000027 100003                    CMPX0   23,DU
         0 000026   000031 601000 0                  TNZ     s:3462
         0 000027   000072 235100                    LDA     58,,PR0
         0 000030   000053 605400 0                  TPNZ    s:3471

     1107     3460    2                   AND TOS$EVAL.REMAINING# > 0 THEN
PL6.E3A0      #002=VDE$IRANGE File=VDE$INTERPRET.:VDA5TSI                        FRI 07/04/97 11:11 Page:131
     1108     3461    2                    EXIT FIND_TOP_SELECT;
     1109     3462    2              IF TOS$EVAL.BLINK$ = ADDR(NIL) THEN

   3462  0 000031   000001 236100                    LDQ     1,,PR0
         0 000032   000001 116000 xsym               CMPQ    B_VECTNIL+1
         0 000033   000037 601000 0                  TNZ     s:3465

     1110     3463    2                 TOS_EVAL$ = ADDR(NIL);  /* Leave 1 EVAL in stack */

   3463  0 000034   000001 236000 xsym               LDQ     B_VECTNIL+1
         0 000035   200005 756100                    STQ     TOS_EVAL$,,AUTO
         0 000036   000050 710000 0                  TRA     s:3470

     1111     3464    3              ELSE DO;

     1112     3465    3                 OPERAND.EVAL$ = TOS$EVAL.BLINK$;

   3465  0 000037   200003 471500                    LDP1    @OPERAND,,AUTO
         0 000040   100003 756100                    STQ     3,,PR1

     1113     3466    3                 CALL VDG$OFREE (TOS$EVAL)

   3466  0 000041   200005 630500                    EPPR0   TOS_EVAL$,,AUTO
         0 000042   000017 631400 xsym               EPPR1   B_VECTNIL+15
         0 000043   000000 701000 xent               TSX1    VDG$OFREE
         0 000044   000402 702000 0                  TSX2    OALLOC_FAILED

     1114     3467    3                   ALTRET (OFREE_FAILED);
     1115     3468    3                 TOS_EVAL$ = OPERAND.EVAL$;

   3468  0 000045   200003 470500                    LDP0    @OPERAND,,AUTO
         0 000046   000003 236100                    LDQ     3,,PR0
         0 000047   200005 756100                    STQ     TOS_EVAL$,,AUTO

     1116     3469    3                 END;

     1117     3470    2              END;
PL6.E3A0      #002=VDE$IRANGE File=VDE$INTERPRET.:VDA5TSI                        FRI 07/04/97 11:11 Page:132

   3470  0 000050   200005 236100                    LDQ     TOS_EVAL$,,AUTO
         0 000051   000001 116000 xsym               CMPQ    B_VECTNIL+1
         0 000052   000017 601000 0                  TNZ     s:3458

     1118     3471    2           IF TOS_EVAL$ = ADDR(NIL) THEN DO;

   3471  0 000053   200005 236100                    LDQ     TOS_EVAL$,,AUTO
         0 000054   000001 116000 xsym               CMPQ    B_VECTNIL+1
         0 000055   000061 601000 0                  TNZ     EVAL_SELECTS

     1119     3472    2              SIGNAL = %FALSE;

   3472  0 000056   200004 470500                    LDP0    @SIGNAL,,AUTO
         0 000057   000000 450100                    STZ     0,,PR0

     1120     3473    2              RETURN;

   3473  0 000060   000000 702200 xent               TSX2  ! X66_ARET

     1121     3474    2              END;
     1122     3475
     1123     3476
     1124     3477    1   EVAL_SELECTS:
     1125     3478    2           DO UNTIL NOT SIGNAL;

   3478  0 000061                       EVAL_SELECTS null
     1126     3479
     1127     3480    2              IF TOS$EVAL.REMAINING# > 0 THEN

   3480  0 000061   200005 470500                    LDP0    TOS_EVAL$,,AUTO
         0 000062   000072 235100                    LDA     58,,PR0
         0 000063   000103 604400 0                  TMOZ    s:3493

     1128     3481    3              DO CASE (TOS$EVAL.NODE$->VD$OBJECT_HEADER.CLASS#);

   3481  0 000064   000071 471500                    LDP1    57,,PR0
PL6.E3A0      #002=VDE$IRANGE File=VDE$INTERPRET.:VDA5TSI                        FRI 07/04/97 11:11 Page:133
         0 000065   100000 236100                    LDQ     0,,PR1
         0 000066   000022 772000                    QRL     18
         0 000067   000027 136007                    SBLQ    23,DL
         0 000070   000001 116007                    CMPQ    1,DL
         0 000071   000073 602006 0                  TNC     s:3481+7,QL
         0 000072   000103 710000 0                  TRA     s:3493
         0 000073   000074 710000 0                  TRA     s:3483

     1129     3482    3               CASE (%CLS_IT_SELECT);

     1130     3483    3                 CALL ISELECT (OPERAND, SIGNAL)

   3483  0 000074   200004 236100                    LDQ     @SIGNAL,,AUTO
         0 000075   200016 756100                    STQ     @OPERAND+1,,AUTO
         0 000076   200003 236100                    LDQ     @OPERAND,,AUTO
         0 000077   200015 756100                    STQ     RCCL+2,,AUTO
         0 000100   000403 701000 0                  TSX1    ISELECT
         0 000101   000402 702000 0                  TSX2    OALLOC_FAILED
         0 000102   000103 710000 0                  TRA     s:3493

     1131     3484    3                   ALTRET (ISELECT_FAILED);
     1132     3485    3               CASE (%CLS_IT_OPERATOR);

     1133     3486                      /*N* CALL VDE$IOPERATOR (OPERAND, SIGNAL) */
     1134     3487                      /*N*   ALTRET (IOPERATOR_FAILED);         */
     1135     3488    3               END;

     1136     3489                   /*
     1137     3490                   *  We may have pushed new VD$EVALs on the stack, for
     1138     3491                   *    other generators:  get the new tos-VD$EVAL.
     1139     3492                   */
     1140     3493    2              TOS_EVAL$ = OPERAND.EVAL$;

   3493  0 000103   200003 470500                    LDP0    @OPERAND,,AUTO
         0 000104   000003 236100                    LDQ     3,,PR0
         0 000105   200005 756100                    STQ     TOS_EVAL$,,AUTO

PL6.E3A0      #002=VDE$IRANGE File=VDE$INTERPRET.:VDA5TSI                        FRI 07/04/97 11:11 Page:134
     1141     3494
     1142     3495                   /* Success or failure, we're doing one evaluation */
     1143     3496    2              TOS$EVAL.REMAINING# = MAXIMUM(0, TOS$EVAL.REMAINING# - 1);

   3496  0 000106   200005 471500                    LDP1    TOS_EVAL$,,AUTO
         0 000107   100072 236100                    LDQ     58,,PR1
         0 000110   000001 136007                    SBLQ    1,DL
         0 000111   000000 116003                    CMPQ    0,DU
         0 000112   000114 605000 0                  TPL     s:3496+6
         0 000113   000000 236003                    LDQ     0,DU
         0 000114   100072 756100                    STQ     58,,PR1

     1144     3497
     1145     3498    2              IF SIGNAL THEN

   3498  0 000115   200004 473500                    LDP3    @SIGNAL,,AUTO
         0 000116   300000 234100                    SZN     0,,PR3
         0 000117   000262 605000 0                  TPL     SIGNAL_FALSE

     1146     3499    3   SIGNAL_TRUE: DO;

   3499  0 000120                       SIGNAL_TRUE  null
     1147     3500    3                 IF VD_$$MON_EVAL.V# > 0 THEN

   3500  0 000120   000003 235000 xsym               LDA     VD_$$MON_EVAL+3
         0 000121   000126 604400 0                  TMOZ    s:3505

     1148     3501    3                    CALL VDG$MEVAL_FOUND_RANGE (TOS$EVAL);

   3501  0 000122   200005 630500                    EPPR0   TOS_EVAL$,,AUTO
         0 000123   000017 631400 xsym               EPPR1   B_VECTNIL+15
         0 000124   000000 701000 xent               TSX1    VDG$MEVAL_FOUND_RANGE
         0 000125   000000 011000                    NOP     0

     1149     3502                      /*
     1150     3503                      *  Find the IT_SELECT node we're evaluating for.
     1151     3504                      */
PL6.E3A0      #002=VDE$IRANGE File=VDE$INTERPRET.:VDA5TSI                        FRI 07/04/97 11:11 Page:135
     1152     3505    3                 TEST_EVAL$ = TOS_EVAL$;

   3505  0 000126   200005 236100                    LDQ     TOS_EVAL$,,AUTO
         0 000127   200006 756100                    STQ     TEST_EVAL$,,AUTO

     1153     3506    3                 IT_SELECT$ = ADDR(NIL);

   3506  0 000130   000001 236000 xsym               LDQ     B_VECTNIL+1
         0 000131   200010 756100                    STQ     IT_SELECT$,,AUTO

     1154     3507    4                 DO WHILE IT_SELECT$ = ADDR(NIL);

   3507  0 000132   000153 710000 0                  TRA     s:3516

     1155     3508    5                    DO WHILE TEST$EVAL.NODE$ = ADDR(NIL);

   3508  0 000133   000137 710000 0                  TRA     s:3510

     1156     3509    5                       TEST_EVAL$ = TEST$EVAL.BLINK$;

   3509  0 000134   200006 470500                    LDP0    TEST_EVAL$,,AUTO
         0 000135   000001 236100                    LDQ     1,,PR0
         0 000136   200006 756100                    STQ     TEST_EVAL$,,AUTO

     1157     3510    5                       END;

   3510  0 000137   200006 470500                    LDP0    TEST_EVAL$,,AUTO
         0 000140   000071 236100                    LDQ     57,,PR0
         0 000141   000001 116000 xsym               CMPQ    B_VECTNIL+1
         0 000142   000134 600000 0                  TZE     s:3509

     1158     3511    4                    IF TEST$EVAL.NODE$->VD$OBJECT_HEADER.CLASS# =

   3511  0 000143   000071 471500                    LDP1    57,,PR0
         0 000144   100000 220100                    LDX0    0,,PR1
         0 000145   000027 100003                    CMPX0   23,DU
         0 000146   000151 601000 0                  TNZ     s:3515
PL6.E3A0      #002=VDE$IRANGE File=VDE$INTERPRET.:VDA5TSI                        FRI 07/04/97 11:11 Page:136

     1159     3512    4                      %CLS_IT_SELECT THEN
     1160     3513    4                       IT_SELECT$ = TEST$EVAL.NODE$;

   3513  0 000147   200010 756100                    STQ     IT_SELECT$,,AUTO
         0 000150   000153 710000 0                  TRA     s:3516

     1161     3514    4                    ELSE
     1162     3515    4                       TEST_EVAL$ = TEST$EVAL.BLINK$;

   3515  0 000151   000001 236100                    LDQ     1,,PR0
         0 000152   200006 756100                    STQ     TEST_EVAL$,,AUTO

     1163     3516    4                    END;

   3516  0 000153   200010 236100                    LDQ     IT_SELECT$,,AUTO
         0 000154   000001 116000 xsym               CMPQ    B_VECTNIL+1
         0 000155   000133 600000 0                  TZE     s:3508

     1164     3517
     1165     3518                      /* Flink to the next IT_SELECT node */
     1166     3519    3                 IT_SELECT$ = IT$SELECT.FLINK$;

   3519  0 000156   200010 470500                    LDP0    IT_SELECT$,,AUTO
         0 000157   000002 236100                    LDQ     2,,PR0
         0 000160   200010 756100                    STQ     IT_SELECT$,,AUTO

     1167     3520    3                 IF IT_SELECT$ = ADDR(NIL) THEN

   3520  0 000161   000001 116000 xsym               CMPQ    B_VECTNIL+1
         0 000162   000164 601000 0                  TNZ     s:3524

     1168     3521    3                    RETURN;        /* Found a range for entire InTree */

   3521  0 000163   000000 702200 xent               TSX2  ! X66_ARET

     1169     3522
PL6.E3A0      #002=VDE$IRANGE File=VDE$INTERPRET.:VDA5TSI                        FRI 07/04/97 11:11 Page:137
     1170     3523                      /* Push a new VD$EVAL for the new IT_SELECT node */
     1171     3524    3                 PREV_EVAL$ = TOS_EVAL$;

   3524  0 000164   200005 236100                    LDQ     TOS_EVAL$,,AUTO
         0 000165   200007 756100                    STQ     PREV_EVAL$,,AUTO

     1172     3525    3                 CALL VDG$OALLOC (%CLS_EVAL, OPERAND.EVAL$)

   3525  0 000166   200003 236100                    LDQ     @OPERAND,,AUTO
         0 000167   000003 036003                    ADLQ    3,DU
         0 000170   000000 235000 1                  LDA     0
         0 000171   200032 757100                    STAQ    TEMP_START+9,,AUTO
         0 000172   200032 630500                    EPPR0   TEMP_START+9,,AUTO
         0 000173   000020 631400 xsym               EPPR1   B_VECTNIL+16
         0 000174   000000 701000 xent               TSX1    VDG$OALLOC
         0 000175   000402 702000 0                  TSX2    OALLOC_FAILED

     1173     3526    3                   ALTRET (OALLOC_FAILED);
     1174     3527    3                 TOS_EVAL$ = OPERAND.EVAL$;

   3527  0 000176   200003 470500                    LDP0    @OPERAND,,AUTO
         0 000177   000003 236100                    LDQ     3,,PR0
         0 000200   200005 756100                    STQ     TOS_EVAL$,,AUTO

     1175     3528    3                 TOS$EVAL.BLINK$ = PREV_EVAL$;

   3528  0 000201   200007 236100                    LDQ     PREV_EVAL$,,AUTO
         0 000202   200005 471500                    LDP1    TOS_EVAL$,,AUTO
         0 000203   100001 756100                    STQ     1,,PR1

     1176     3529    3                 CALL VDG$OCOPY_RANGE (PREV$EVAL.RANGE, TOS$EVAL.ENCLOSING)

   3529  0 000204   200005 236100                    LDQ     TOS_EVAL$,,AUTO
         0 000205   000002 036003                    ADLQ    2,DU
         0 000206   200033 756100                    STQ     TEMP_START+10,,AUTO
         0 000207   200007 236100                    LDQ     PREV_EVAL$,,AUTO
         0 000210   000024 036003                    ADLQ    20,DU
PL6.E3A0      #002=VDE$IRANGE File=VDE$INTERPRET.:VDA5TSI                        FRI 07/04/97 11:11 Page:138
         0 000211   200032 756100                    STQ     TEMP_START+9,,AUTO
         0 000212   200032 630500                    EPPR0   TEMP_START+9,,AUTO
         0 000213   000020 631400 xsym               EPPR1   B_VECTNIL+16
         0 000214   000000 701000 xent               TSX1    VDG$OCOPY_RANGE
         0 000215   000402 702000 0                  TSX2    OALLOC_FAILED

     1177     3530    3                   ALTRET (OCOPY_RANGE_FAILED);
     1178     3531    3                 CALL VDG$OCOPY_LOCATION (PREV$EVAL.RANGE.START,

   3531  0 000216   200005 236100                    LDQ     TOS_EVAL$,,AUTO
         0 000217   000024 036003                    ADLQ    20,DU
         0 000220   200033 756100                    STQ     TEMP_START+10,,AUTO
         0 000221   200007 236100                    LDQ     PREV_EVAL$,,AUTO
         0 000222   000024 036003                    ADLQ    20,DU
         0 000223   200032 756100                    STQ     TEMP_START+9,,AUTO
         0 000224   200032 630500                    EPPR0   TEMP_START+9,,AUTO
         0 000225   000020 631400 xsym               EPPR1   B_VECTNIL+16
         0 000226   000000 701000 xent               TSX1    VDG$OCOPY_LOCATION
         0 000227   000402 702000 0                  TSX2    OALLOC_FAILED

     1179     3532    3                   TOS$EVAL.RANGE.START)
     1180     3533    3                   ALTRET (OCOPY_LOCATION_FAILED);
     1181     3534    3                 CALL VDG$OCOPY_LOCATION (PREV$EVAL.RANGE.START,

   3534  0 000230   200005 236100                    LDQ     TOS_EVAL$,,AUTO
         0 000231   000035 036003                    ADLQ    29,DU
         0 000232   200033 756100                    STQ     TEMP_START+10,,AUTO
         0 000233   200007 236100                    LDQ     PREV_EVAL$,,AUTO
         0 000234   000024 036003                    ADLQ    20,DU
         0 000235   200032 756100                    STQ     TEMP_START+9,,AUTO
         0 000236   200032 630500                    EPPR0   TEMP_START+9,,AUTO
         0 000237   000020 631400 xsym               EPPR1   B_VECTNIL+16
         0 000240   000000 701000 xent               TSX1    VDG$OCOPY_LOCATION
         0 000241   000402 702000 0                  TSX2    OALLOC_FAILED

     1182     3535    3                   TOS$EVAL.RANGE.ENDD)
     1183     3536    3                   ALTRET (OCOPY_LOCATION_FAILED);
PL6.E3A0      #002=VDE$IRANGE File=VDE$INTERPRET.:VDA5TSI                        FRI 07/04/97 11:11 Page:139
     1184     3537    3                 TOS$EVAL.STATE# = %EVST_INITIAL;

   3537  0 000242   000001 220003                    LDX0    1,DU
         0 000243   200005 470500                    LDP0    TOS_EVAL$,,AUTO
         0 000244   000070 740100                    STX0    56,,PR0

     1185     3538    3                 TOS$EVAL.NODE$ = IT_SELECT$;

   3538  0 000245   200010 236100                    LDQ     IT_SELECT$,,AUTO
         0 000246   000071 756100                    STQ     57,,PR0

     1186     3539    3                 IF IT$SELECT.RPT_ALL THEN

   3539  0 000247   200010 471500                    LDP1    IT_SELECT$,,AUTO
         0 000250   100003 234100                    SZN     3,,PR1
         0 000251   000255 605000 0                  TPL     s:3542

     1187     3540    3                    TOS$EVAL.REMAINING# = %MX_REPEAT_COUNT;

   3540  0 000252   377777 235007                    LDA     131071,DL
         0 000253   000072 755100                    STA     58,,PR0
         0 000254   000376 710000 0                  TRA     s:3587

     1188     3541    3                 ELSE
     1189     3542    3                    TOS$EVAL.REMAINING# = IT$SELECT.RPT_COUNT#;

   3542  0 000255   100003 236100                    LDQ     3,,PR1
         0 000256   000022 736000                    QLS     18
         0 000257   000022 732000                    QRS     18
         0 000260   000072 756100                    STQ     58,,PR0

     1190     3543    3                 END SIGNAL_TRUE;

   3543  0 000261   000376 710000 0                  TRA     s:3587

     1191     3544    2              ELSE
     1192     3545    3   SIGNAL_FALSE: DO;
PL6.E3A0      #002=VDE$IRANGE File=VDE$INTERPRET.:VDA5TSI                        FRI 07/04/97 11:11 Page:140

   3545  0 000262                       SIGNAL_FALSE null
     1193     3546    3                 IF TOS$EVAL.NODE$ -> VD$OBJECT_HEADER.CLASS# =

   3546  0 000262   100071 474500                    LDP4    57,,PR1
         0 000263   400000 220100                    LDX0    0,,PR4
         0 000264   000027 100003                    CMPX0   23,DU
         0 000265   000267 601000 0                  TNZ     s:3552

     1194     3547    3                   %CLS_IT_SELECT THEN
     1195     3548    3                    TOS$EVAL.REMAINING# = 0;   /* Don't try any more */

   3548  0 000266   100072 450100                    STZ     58,,PR1

     1196     3549                      /*
     1197     3550                      *  Backtrack to a generator with some alternatives left.
     1198     3551                      */
     1199     3552    4                 DO WHILE TOS$EVAL.REMAINING# <= 0

   3552  0 000267   000303 710000 0                  TRA     s:3558

     1200     3553    4                   AND TOS$EVAL.BLINK$ ~= ADDR(NIL);
     1201     3554    4                    OPERAND.EVAL$ = TOS$EVAL.BLINK$;

   3554  0 000270   200005 470500                    LDP0    TOS_EVAL$,,AUTO
         0 000271   000001 236100                    LDQ     1,,PR0
         0 000272   200003 471500                    LDP1    @OPERAND,,AUTO
         0 000273   100003 756100                    STQ     3,,PR1

     1202     3555    4                    CALL VDG$OFREE (TOS$EVAL)

   3555  0 000274   200005 630500                    EPPR0   TOS_EVAL$,,AUTO
         0 000275   000017 631400 xsym               EPPR1   B_VECTNIL+15
         0 000276   000000 701000 xent               TSX1    VDG$OFREE
         0 000277   000402 702000 0                  TSX2    OALLOC_FAILED

     1203     3556    4                      ALTRET (OFREE_FAILED);
PL6.E3A0      #002=VDE$IRANGE File=VDE$INTERPRET.:VDA5TSI                        FRI 07/04/97 11:11 Page:141
     1204     3557    4                    TOS_EVAL$ = OPERAND.EVAL$;  /* Load new TOS ptr */

   3557  0 000300   200003 470500                    LDP0    @OPERAND,,AUTO
         0 000301   000003 236100                    LDQ     3,,PR0
         0 000302   200005 756100                    STQ     TOS_EVAL$,,AUTO

     1205     3558    4                    END;

   3558  0 000303   200005 471500                    LDP1    TOS_EVAL$,,AUTO
         0 000304   100072 235100                    LDA     58,,PR1
         0 000305   000311 605400 0                  TPNZ    s:3559
         0 000306   100001 236100                    LDQ     1,,PR1
         0 000307   000001 116000 xsym               CMPQ    B_VECTNIL+1
         0 000310   000270 601000 0                  TNZ     s:3554

     1206     3559    4                 IF TOS$EVAL.REMAINING# <= 0 THEN DO;

   3559  0 000311   000000 115003                    CMPA    0,DU
         0 000312   000316 605400 0                  TPNZ    s:3565

     1207     3560                         /* No more backtracks: done w/InTree */
     1208     3561    4                    SIGNAL = %FALSE;

   3561  0 000313   200004 473500                    LDP3    @SIGNAL,,AUTO
         0 000314   300000 450100                    STZ     0,,PR3

     1209     3562    4                    RETURN;

   3562  0 000315   000000 702200 xent               TSX2  ! X66_ARET

     1210     3563    4                    END;
     1211     3564
     1212     3565    4                 DO CASE (TOS$EVAL.NODE$->VD$OBJECT_HEADER.CLASS#);

   3565  0 000316   100071 473500                    LDP3    57,,PR1
         0 000317   300000 236100                    LDQ     0,,PR3
         0 000320   000022 772000                    QRL     18
PL6.E3A0      #002=VDE$IRANGE File=VDE$INTERPRET.:VDA5TSI                        FRI 07/04/97 11:11 Page:142
         0 000321   000026 136007                    SBLQ    22,DL
         0 000322   000002 116007                    CMPQ    2,DL
         0 000323   000325 602006 0                  TNC     s:3565+7,QL
         0 000324   000373 710000 0                  TRA     s:3585
         0 000325   000332 710000 0                  TRA     s:3571
         0 000326   000327 710000 0                  TRA     s:3568

     1213     3566    4                  CASE (%CLS_IT_SELECT);

     1214     3567                         /* Start from end of last-found range */
     1215     3568    4                    TOS$EVAL.STATE# = %EVST_INITIAL;

   3568  0 000327   000001 220003                    LDX0    1,DU
         0 000330   100070 740100                    STX0    56,,PR1
         0 000331   000373 710000 0                  TRA     s:3585

     1216     3569
     1217     3570    4                  CASE (%CLS_IT_OPERATOR);

     1218     3571    4                    PREV_EVAL$ = TOS$EVAL.BLINK$;

   3571  0 000332   100001 236100                    LDQ     1,,PR1
         0 000333   200007 756100                    STQ     PREV_EVAL$,,AUTO

     1219     3572    4                    IF PREV_EVAL$ = ADDR(NIL) THEN

   3572  0 000334   000001 116000 xsym               CMPQ    B_VECTNIL+1
         0 000335   000341 601000 0                  TNZ     s:3574

     1220     3573    4                       CALL VDG$ESCREECH;

   3573  0 000336   000002 631400 xsym               EPPR1   B_VECTNIL+2
         0 000337   000000 701000 xent               TSX1    VDG$ESCREECH
         0 000340   000000 011000                    NOP     0

     1221     3574    4                    IF TOS$EVAL.NODE$->VD$IT_OPERATOR.CODE# =

PL6.E3A0      #002=VDE$IRANGE File=VDE$INTERPRET.:VDA5TSI                        FRI 07/04/97 11:11 Page:143
   3574  0 000341   200005 470500                    LDP0    TOS_EVAL$,,AUTO
         0 000342   000071 471500                    LDP1    57,,PR0
         0 000343   100003 220100                    LDX0    3,,PR1
         0 000344   000003 100003                    CMPX0   3,DU
         0 000345   000373 601000 0                  TNZ     s:3585

     1222     3575    5                      %OPOR_OR THEN DO;

     1223     3576    5                       CALL VDG$OCLEAR_RANGE (TOS$EVAL.RANGE)

   3576  0 000346   200005 236100                    LDQ     TOS_EVAL$,,AUTO
         0 000347   000024 036003                    ADLQ    20,DU
         0 000350   200032 756100                    STQ     TEMP_START+9,,AUTO
         0 000351   200032 630500                    EPPR0   TEMP_START+9,,AUTO
         0 000352   000017 631400 xsym               EPPR1   B_VECTNIL+15
         0 000353   000000 701000 xent               TSX1    VDG$OCLEAR_RANGE
         0 000354   000402 702000 0                  TSX2    OALLOC_FAILED

     1224     3577    5                         ALTRET (OCLEAR_RANGE_FAILED);
     1225     3578    5                       CALL VDG$OCOPY_RANGE (PREV$EVAL.RANGE,

   3578  0 000355   200005 236100                    LDQ     TOS_EVAL$,,AUTO
         0 000356   000024 036003                    ADLQ    20,DU
         0 000357   200033 756100                    STQ     TEMP_START+10,,AUTO
         0 000360   200007 236100                    LDQ     PREV_EVAL$,,AUTO
         0 000361   000024 036003                    ADLQ    20,DU
         0 000362   200032 756100                    STQ     TEMP_START+9,,AUTO
         0 000363   200032 630500                    EPPR0   TEMP_START+9,,AUTO
         0 000364   000020 631400 xsym               EPPR1   B_VECTNIL+16
         0 000365   000000 701000 xent               TSX1    VDG$OCOPY_RANGE
         0 000366   000402 702000 0                  TSX2    OALLOC_FAILED

     1226     3579    5                         TOS$EVAL.RANGE)
     1227     3580    5                         ALTRET (OCOPY_RANGE_FAILED);
     1228     3581    5                       TOS$EVAL.STATE# = PREV$EVAL.STATE#;

   3581  0 000367   200007 470500                    LDP0    PREV_EVAL$,,AUTO
PL6.E3A0      #002=VDE$IRANGE File=VDE$INTERPRET.:VDA5TSI                        FRI 07/04/97 11:11 Page:144
         0 000370   000070 220100                    LDX0    56,,PR0
         0 000371   200005 471500                    LDP1    TOS_EVAL$,,AUTO
         0 000372   100070 740100                    STX0    56,,PR1

     1229     3582    5                       END;

     1230     3583    4                  END;

     1231     3584
     1232     3585    3                 SIGNAL = %TRUE;

   3585  0 000373   400000 236003                    LDQ     -131072,DU
         0 000374   200004 470500                    LDP0    @SIGNAL,,AUTO
         0 000375   000000 756100                    STQ     0,,PR0

     1233     3586    3                 END SIGNAL_FALSE;

     1234     3587    2              END EVAL_SELECTS;

   3587  0 000376   200004 470500                    LDP0    @SIGNAL,,AUTO
         0 000377   000000 234100                    SZN     0,,PR0
         0 000400   000061 604000 0                  TMI     EVAL_SELECTS

     1235     3588
     1236     3589
     1237     3590    1           RETURN;

   3590  0 000401   000000 702200 xent               TSX2  ! X66_ARET

   3577  0 000402                       OALLOC_FAIL* null
   3577  0 000402                       OFREE_FAILED null
     1238     3591
     1239     3592
     1240     3593
     1241     3594    1   OALLOC_FAILED: ;
     1242     3595    1   OFREE_FAILED: ;
     1243     3596    1   ISELECT_FAILED: ;
PL6.E3A0      #002=VDE$IRANGE File=VDE$INTERPRET.:VDA5TSI                        FRI 07/04/97 11:11 Page:145

   3596  0 000402                       ISELECT_FAI* null
   3596  0 000402                       OCLEAR_LOCA* null
   3596  0 000402                       OCOPY_LOCAT* null
   3596  0 000402                       OCLEAR_RANG* null
   3596  0 000402                       OCOPY_RANGE* null
     1244     3597    1   OCLEAR_LOCATION_FAILED: ;
     1245     3598    1   OCOPY_LOCATION_FAILED: ;
     1246     3599    1   OCLEAR_RANGE_FAILED: ;
     1247     3600    1   OCOPY_RANGE_FAILED: ;
     1248     3601    1           ALTRETURN;

   3601  0 000402   000000 702200 xent               TSX2  ! X66_AALT

     1249     3602
     1250     3603
     1251     3604                %BOX (TITLE="ISELECT", PAGE=YES);
              3612    1
              3616    1   /***************************************************************************
              3618    1    *                                                                         *
              3622    1            *                                  ISELECT                               *
              3624    1            *                                                                        *
              3626    1          ***************************************************************************/

     1252     3630
     1253     3631        /*I* NAME:  ISELECT
     1254     3632            PARAMETERS:
     1255     3633                OPERAND - The VD$OPERAND whose InTree we're evaluating.
     1256     3634                    In OPERAND's EVAL$ (top VD$EVAL on the evaluation stack):
     1257     3635                    o TOS$EVAL.RANGE must specify the initial range for
     1258     3636                        evaluation.  This range must lie completely within
     1259     3637                        the enclosing limits (TOS$EVAL.ENCLOSING).
     1260     3638                    o TOS$EVAL.STATE# must contain the state of evaluation.
     1261     3639                    o TOS$EVAL.NODE$ must point to the IT_SELECT InTree node
     1262     3640                        to evaluate.
     1263     3641                    o This IT_SELECT node must have at least one repetition
     1264     3642                        remaining.
PL6.E3A0      #002=VDE$IRANGE File=VDE$INTERPRET.:VDA5TSI                        FRI 07/04/97 11:11 Page:146
     1265     3643                SIGNAL - An uninitialized BIT(1) ALIGNED.
     1266     3644            INPUT:
     1267     3645            OUTPUT:
     1268     3646                OPERAND may have a new VD$EVAL at the top of it's evaluation
     1269     3647                    stack, if we evaluated any generators.
     1270     3648                TOS$EVAL.STATE# and .RANGE may be modified:  they will contain
     1271     3649                    the final state and range bounds evaluated for this
     1272     3650                    IT_SELECT node.
     1273     3651                TOS$EVAL.LAST_FOUND_RANGE will specify the same range that
     1274     3652                    TOS$EVAL.RANGE specified at entry to this routine.
     1275     3653                TOS$EVAL.REMAINING# may be forced to 0 (when we want to stop any
     1276     3654                    further evaluation of an IT_SELECT (???Operator???) node).
     1277     3655                SIGNAL will contain true or false, as described for VDE$IRANGE.
     1278     3656            DESCRIPTION:
     1279     3657                Clear TOS$EVAL.LAST_FOUND_RANGE to begin with.  If this is a repeated
     1280     3658                    SELECT clause, then copy TOS$EVAL.RANGE to .LAST_FOUND_RANGE,
     1281     3659                    so we can compare any newly-found range with the last one found
     1282     3660                    to be sure we're making forward progress.
     1283     3661                    If this isn't a repeated SELECT clause, we want to make sure that
     1284     3662                    the comparison at the end of ISELECT finds progress:  by
     1285     3663                    definition, a single SELECT represents "progress".
     1286     3664                    ((Test case:  ED FI x:  at entry to ISELECT, TOS$EVAL.RANGE
     1287     3665                    is BOF - EOF, and that's the range found for the SELECT.
     1288     3666                    Even tho it's the same as the "last found range", it should
     1289     3667                    succeed.))
     1290     3668                For each child of the IT_SELECT node:
     1291     3669                    Make any state change specified by IT$ADJUST.NEW_STATE#.
     1292     3670                    Call VDE$IADJUST.
     1293     3671                Guarantee that the evaluated range's start bound is
     1294     3672                    located before or equal to its end bound in the domain.
     1295     3673                    If not, switch the start and end bounds.
     1296     3674                If any call to VDE$IADJUST returns a false signal,
     1297     3675                    return immediately.
     1298     3676                Compare the newly-found TOS$EVAL.RANGE with .LAST_FOUND_RANGE:
     1299     3677                    if they're equal, return a false SIGNAL -- and set
     1300     3678                    TOS$EVAL.REMAINING# to 0 to force failure of all alternatives.
     1301     3679                    ((See star 22441, cases 2, 3, and 4 and the case in the star
PL6.E3A0      #002=VDE$IRANGE File=VDE$INTERPRET.:VDA5TSI                        FRI 07/04/97 11:11 Page:147
     1302     3680                    description:
     1303     3681                        REPEAT SE BA SK 1 RE
     1304     3682                        DE L REPE SE RE SE PO 5 TH EO RE
     1305     3683                        CO ST 'A' OV REPE SE RE PO 1 SE '.'
     1306     3684                        EO CURR; CO ST 'X' OV REPE SE BA SK 2 RE SE '.'
     1307     3685                    All these cases need to fail when a REPEAT SELECT finds the same
     1308     3686                    range repeatedly.))
     1309     3687        */
     1310     3688
     1311     3689    1   ISELECT: PROC (OPERAND, SIGNAL) ALTRET;

   3689  0 000403   200014 741300       ISELECT      STX1  ! RCCL+1,,AUTO

     1312     3690
     1313     3691        %VD$OPERAND (NAME=OPERAND, STCLASS=PARAM);
     1314     3705    2   DCL SIGNAL BIT(1) ALIGNED;
     1315     3706
     1316     3707
     1317     3708    2   DCL TOS_EVAL$ PTR;
     1318     3709    2   DCL IT_ADJUST$ PTR;
     1319     3710        %VD$LOCATION (NAME=TEMP_START, STCLASS=AUTO);
     1320     3738
     1321     3739
     1322     3740        %VD$EVAL (NAME=TOS$EVAL, STCLASS="BASED(TOS_EVAL$)");
     1323     3985        %VD$IT_ADJUST (NAME=IT$ADJUST, STCLASS="BASED(IT_ADJUST$)");
     1324     4022        %VD$IT_SELECT;
     1325     4059
     1326     4060
     1327     4061
     1328     4062    2           SIGNAL = %TRUE;

   4062  0 000404   400000 236003                    LDQ     -131072,DU
         0 000405   200016 470500                    LDP0    @SIGNAL,,AUTO
         0 000406   000000 756100                    STQ     0,,PR0

     1329     4063    2           TOS_EVAL$ = OPERAND.EVAL$;

PL6.E3A0      #002=VDE$IRANGE File=VDE$INTERPRET.:VDA5TSI                        FRI 07/04/97 11:11 Page:148
   4063  0 000407   200015 471500                    LDP1    @OPERAND,,AUTO
         0 000410   100003 236100                    LDQ     3,,PR1
         0 000411   200017 756100                    STQ     TOS_EVAL$,,AUTO

     1330     4064    2           CALL VDG$OCLEAR_RANGE (TOS$EVAL.LAST_FOUND_RANGE)

   4064  0 000412   000046 036003                    ADLQ    38,DU
         0 000413   200032 756100                    STQ     TEMP_START+9,,AUTO
         0 000414   200032 630500                    EPPR0   TEMP_START+9,,AUTO
         0 000415   000017 631400 xsym               EPPR1   B_VECTNIL+15
         0 000416   000000 701000 xent               TSX1    VDG$OCLEAR_RANGE
         0 000417   000752 702000 0                  TSX2    OCLEAR_RANGE_FAILED

     1331     4065    2             ALTRET (OCLEAR_RANGE_FAILED);
     1332     4066    2           IF TOS$EVAL.NODE$->VD$IT_SELECT.RPT_ALL

   4066  0 000420   200017 470500                    LDP0    TOS_EVAL$,,AUTO
         0 000421   000071 471500                    LDP1    57,,PR0
         0 000422   100003 234100                    SZN     3,,PR1
         0 000423   000427 604000 0                  TMI     s:4068
         0 000424   100003 720100                    LXL0    3,,PR1
         0 000425   000001 100003                    CMPX0   1,DU
         0 000426   000441 604400 0                  TMOZ    s:4076

     1333     4067    3             OR TOS$EVAL.NODE$->VD$IT_SELECT.RPT_COUNT# > 1 THEN DO;

     1334     4068    3              CALL VDG$OCOPY_RANGE (TOS$EVAL.RANGE, TOS$EVAL.LAST_FOUND_RANGE)

   4068  0 000427   200017 236100                    LDQ     TOS_EVAL$,,AUTO
         0 000430   000046 036003                    ADLQ    38,DU
         0 000431   200033 756100                    STQ     TEMP_START+10,,AUTO
         0 000432   200017 236100                    LDQ     TOS_EVAL$,,AUTO
         0 000433   000024 036003                    ADLQ    20,DU
         0 000434   200032 756100                    STQ     TEMP_START+9,,AUTO
         0 000435   200032 630500                    EPPR0   TEMP_START+9,,AUTO
         0 000436   000020 631400 xsym               EPPR1   B_VECTNIL+16
         0 000437   000000 701000 xent               TSX1    VDG$OCOPY_RANGE
PL6.E3A0      #002=VDE$IRANGE File=VDE$INTERPRET.:VDA5TSI                        FRI 07/04/97 11:11 Page:149
         0 000440   000752 702000 0                  TSX2    OCLEAR_RANGE_FAILED

     1335     4069    3                ALTRET (OCOPY_RANGE_FAILED);
     1336     4070    3              END;

     1337     4071
     1338     4072                /*
     1339     4073                *   Evaluate the SELECT clause
     1340     4074                */
     1341     4075
     1342     4076    2           IT_ADJUST$ = TOS$EVAL.NODE$->VD$IT_SELECT.ADJUSTS$;

   4076  0 000441   200017 470500                    LDP0    TOS_EVAL$,,AUTO
         0 000442   000071 471500                    LDP1    57,,PR0
         0 000443   100004 236100                    LDQ     4,,PR1
         0 000444   200020 756100                    STQ     IT_ADJUST$,,AUTO

     1343     4077
     1344     4078    2   EACH_IT_ADJUST:
     1345     4079    3           DO WHILE IT_ADJUST$ ~= ADDR(NIL)

   4079  0 000445   000611 710000 0     EACH_IT_ADJ* TRA     s:4125

     1346     4080    3             AND SIGNAL;
     1347     4081
     1348     4082    4              DO CASE (IT$ADJUST.NEW_STATE#);

   4082  0 000446   200020 470500                    LDP0    IT_ADJUST$,,AUTO
         0 000447   000003 220100                    LDX0    3,,PR0
         0 000450   000005 100003                    CMPX0   5,DU
         0 000451   000453 602010 0                  TNC     s:4082+5,X0
         0 000452   000563 710000 0                  TRA     s:4113
         0 000453   000572 710000 0                  TRA     s:4116
         0 000454   000563 710000 0                  TRA     s:4113
         0 000455   000460 710000 0                  TRA     s:4088
         0 000456   000460 710000 0                  TRA     s:4088
         0 000457   000551 710000 0                  TRA     s:4107
PL6.E3A0      #002=VDE$IRANGE File=VDE$INTERPRET.:VDA5TSI                        FRI 07/04/97 11:11 Page:150

     1349     4083    4               CASE (0);

     1350     4084    4                 ;     /* Do nothing: no state change */
     1351     4085
     1352     4086    4               CASE (%EVST_START, %EVST_END);

     1353     4087                      /* Collapse range to current FP location */
     1354     4088    5                 DO CASE (TOS$EVAL.STATE#);

   4088  0 000460   200017 471500                    LDP1    TOS_EVAL$,,AUTO
         0 000461   100070 221100                    LDX1    56,,PR1
         0 000462   000004 101003                    CMPX1   4,DU
         0 000463   000465 602011 0                  TNC     s:4088+5,X1
         0 000464   000535 710000 0                  TRA     s:4102
         0 000465   000535 710000 0                  TRA     s:4102
         0 000466   000471 710000 0                  TRA     s:4090
         0 000467   000471 710000 0                  TRA     s:4090
         0 000470   000513 710000 0                  TRA     s:4096

     1355     4089    5                  CASE (%EVST_INITIAL, %EVST_START);

     1356     4090    5                    CALL VDG$OCLEAR_LOCATION (TOS$EVAL.RANGE.ENDD)

   4090  0 000471   200017 236100                    LDQ     TOS_EVAL$,,AUTO
         0 000472   000035 036003                    ADLQ    29,DU
         0 000473   200032 756100                    STQ     TEMP_START+9,,AUTO
         0 000474   200032 630500                    EPPR0   TEMP_START+9,,AUTO
         0 000475   000017 631400 xsym               EPPR1   B_VECTNIL+15
         0 000476   000000 701000 xent               TSX1    VDG$OCLEAR_LOCATION
         0 000477   000752 702000 0                  TSX2    OCLEAR_RANGE_FAILED

     1357     4091    5                      ALTRET (OCLEAR_LOCATION_FAILED);
     1358     4092    5                    CALL VDG$OCOPY_LOCATION (TOS$EVAL.RANGE.START,

   4092  0 000500   200017 236100                    LDQ     TOS_EVAL$,,AUTO
         0 000501   000035 036003                    ADLQ    29,DU
PL6.E3A0      #002=VDE$IRANGE File=VDE$INTERPRET.:VDA5TSI                        FRI 07/04/97 11:11 Page:151
         0 000502   200033 756100                    STQ     TEMP_START+10,,AUTO
         0 000503   200017 236100                    LDQ     TOS_EVAL$,,AUTO
         0 000504   000024 036003                    ADLQ    20,DU
         0 000505   200032 756100                    STQ     TEMP_START+9,,AUTO
         0 000506   200032 630500                    EPPR0   TEMP_START+9,,AUTO
         0 000507   000020 631400 xsym               EPPR1   B_VECTNIL+16
         0 000510   000000 701000 xent               TSX1    VDG$OCOPY_LOCATION
         0 000511   000752 702000 0                  TSX2    OCLEAR_RANGE_FAILED
         0 000512   000544 710000 0                  TRA     s:4104

     1359     4093    5                      TOS$EVAL.RANGE.ENDD)
     1360     4094    5                      ALTRET (OCOPY_LOCATION_FAILED);
     1361     4095    5                  CASE (%EVST_END);

     1362     4096    5                    CALL VDG$OCLEAR_LOCATION (TOS$EVAL.RANGE.START)

   4096  0 000513   200017 236100                    LDQ     TOS_EVAL$,,AUTO
         0 000514   000024 036003                    ADLQ    20,DU
         0 000515   200032 756100                    STQ     TEMP_START+9,,AUTO
         0 000516   200032 630500                    EPPR0   TEMP_START+9,,AUTO
         0 000517   000017 631400 xsym               EPPR1   B_VECTNIL+15
         0 000520   000000 701000 xent               TSX1    VDG$OCLEAR_LOCATION
         0 000521   000752 702000 0                  TSX2    OCLEAR_RANGE_FAILED

     1363     4097    5                      ALTRET (OCLEAR_LOCATION_FAILED);
     1364     4098    5                    CALL VDG$OCOPY_LOCATION (TOS$EVAL.RANGE.ENDD,

   4098  0 000522   200017 236100                    LDQ     TOS_EVAL$,,AUTO
         0 000523   000024 036003                    ADLQ    20,DU
         0 000524   200033 756100                    STQ     TEMP_START+10,,AUTO
         0 000525   200017 236100                    LDQ     TOS_EVAL$,,AUTO
         0 000526   000035 036003                    ADLQ    29,DU
         0 000527   200032 756100                    STQ     TEMP_START+9,,AUTO
         0 000530   200032 630500                    EPPR0   TEMP_START+9,,AUTO
         0 000531   000020 631400 xsym               EPPR1   B_VECTNIL+16
         0 000532   000000 701000 xent               TSX1    VDG$OCOPY_LOCATION
         0 000533   000752 702000 0                  TSX2    OCLEAR_RANGE_FAILED
PL6.E3A0      #002=VDE$IRANGE File=VDE$INTERPRET.:VDA5TSI                        FRI 07/04/97 11:11 Page:152
         0 000534   000544 710000 0                  TRA     s:4104

     1365     4099    5                      TOS$EVAL.RANGE.START)
     1366     4100    5                      ALTRET (OCOPY_LOCATION_FAILED);
     1367     4101    5                  CASE (ELSE);

     1368     4102    5                    CALL VDG$ESCREECH (TOS$EVAL.STATE#);

   4102  0 000535   200017 236100                    LDQ     TOS_EVAL$,,AUTO
         0 000536   000070 036003                    ADLQ    56,DU
         0 000537   200032 756100                    STQ     TEMP_START+9,,AUTO
         0 000540   200032 630500                    EPPR0   TEMP_START+9,,AUTO
         0 000541   000017 631400 xsym               EPPR1   B_VECTNIL+15
         0 000542   000000 701000 xent               TSX1    VDG$ESCREECH
         0 000543   000000 011000                    NOP     0

     1369     4103    5                  END;

     1370     4104    4                 TOS$EVAL.STATE# = IT$ADJUST.NEW_STATE#;

   4104  0 000544   200020 470500                    LDP0    IT_ADJUST$,,AUTO
         0 000545   000003 220100                    LDX0    3,,PR0
         0 000546   200017 471500                    LDP1    TOS_EVAL$,,AUTO
         0 000547   100070 740100                    STX0    56,,PR1
         0 000550   000572 710000 0                  TRA     s:4116

     1371     4105
     1372     4106    4               CASE (%EVST_TOGGLE);

     1373     4107    4                 IF TOS$EVAL.STATE# = %EVST_END THEN

   4107  0 000551   200017 471500                    LDP1    TOS_EVAL$,,AUTO
         0 000552   100070 221100                    LDX1    56,,PR1
         0 000553   000003 101003                    CMPX1   3,DU
         0 000554   000560 601000 0                  TNZ     s:4110

     1374     4108    4                    TOS$EVAL.STATE# = %EVST_START;
PL6.E3A0      #002=VDE$IRANGE File=VDE$INTERPRET.:VDA5TSI                        FRI 07/04/97 11:11 Page:153

   4108  0 000555   000002 222003                    LDX2    2,DU
         0 000556   100070 742100                    STX2    56,,PR1
         0 000557   000572 710000 0                  TRA     s:4116

     1375     4109    4                 ELSE
     1376     4110    4                    TOS$EVAL.STATE# = %EVST_END;

   4110  0 000560   000003 222003                    LDX2    3,DU
         0 000561   100070 742100                    STX2    56,,PR1
         0 000562   000572 710000 0                  TRA     s:4116

     1377     4111
     1378     4112    4               CASE (ELSE);

     1379     4113    4                 CALL VDG$ESCREECH (IT$ADJUST.NEW_STATE#);

   4113  0 000563   200020 236100                    LDQ     IT_ADJUST$,,AUTO
         0 000564   000003 036003                    ADLQ    3,DU
         0 000565   200032 756100                    STQ     TEMP_START+9,,AUTO
         0 000566   200032 630500                    EPPR0   TEMP_START+9,,AUTO
         0 000567   000017 631400 xsym               EPPR1   B_VECTNIL+15
         0 000570   000000 701000 xent               TSX1    VDG$ESCREECH
         0 000571   000000 011000                    NOP     0

     1380     4114    4               END;

     1381     4115
     1382     4116    3              CALL VDE$IADJUST (OPERAND, IT$ADJUST, SIGNAL)

   4116  0 000572   200016 236100                    LDQ     @SIGNAL,,AUTO
         0 000573   200034 756100                    STQ     TEMP_START+11,,AUTO
         0 000574   200020 236100                    LDQ     IT_ADJUST$,,AUTO
         0 000575   200015 235100                    LDA     @OPERAND,,AUTO
         0 000576   200032 757100                    STAQ    TEMP_START+9,,AUTO
         0 000577   200032 630500                    EPPR0   TEMP_START+9,,AUTO
         0 000600   000021 631400 xsym               EPPR1   B_VECTNIL+17
PL6.E3A0      #002=VDE$IRANGE File=VDE$INTERPRET.:VDA5TSI                        FRI 07/04/97 11:11 Page:154
         0 000601   000000 701000 xent               TSX1    VDE$IADJUST
         0 000602   000752 702000 0                  TSX2    OCLEAR_RANGE_FAILED

     1383     4117    3                ALTRET (IADJUST_FAILED);
     1384     4118                   /*
     1385     4119                   *  We may have pushed new VD$EVALs on the stack, for
     1386     4120                   *    generators other than SELECT: get the new tos-VD$EVAL.
     1387     4121                   */
     1388     4122    3              TOS_EVAL$ = OPERAND.EVAL$;

   4122  0 000603   200015 470500                    LDP0    @OPERAND,,AUTO
         0 000604   000003 236100                    LDQ     3,,PR0
         0 000605   200017 756100                    STQ     TOS_EVAL$,,AUTO

     1389     4123
     1390     4124    3              IT_ADJUST$ = IT$ADJUST.FLINK$;

   4124  0 000606   200020 471500                    LDP1    IT_ADJUST$,,AUTO
         0 000607   100002 236100                    LDQ     2,,PR1
         0 000610   200020 756100                    STQ     IT_ADJUST$,,AUTO

     1391     4125    3              END EACH_IT_ADJUST;

   4125  0 000611   000001 116000 xsym               CMPQ    B_VECTNIL+1
         0 000612   000616 600000 0                  TZE     s:4128
         0 000613   200016 470500                    LDP0    @SIGNAL,,AUTO
         0 000614   000000 234100                    SZN     0,,PR0
         0 000615   000446 604000 0                  TMI     s:4082

     1392     4126
     1393     4127
     1394     4128    2           CALL VDE$IGUAR_RANGE_IN_RANGE (TOS$EVAL.RANGE,

   4128  0 000616   200012 630500                    EPPR0   COMPLETELY_OUTSIDE,,AUTO
         0 000617   200035 450500                    STP0    TEMP_START+12,,AUTO
         0 000620   200011 631500                    EPPR1   TRUNCATED,,AUTO
         0 000621   200034 451500                    STP1    TEMP_START+11,,AUTO
PL6.E3A0      #002=VDE$IRANGE File=VDE$INTERPRET.:VDA5TSI                        FRI 07/04/97 11:11 Page:155
         0 000622   200017 236100                    LDQ     TOS_EVAL$,,AUTO
         0 000623   000002 036003                    ADLQ    2,DU
         0 000624   200033 756100                    STQ     TEMP_START+10,,AUTO
         0 000625   200017 236100                    LDQ     TOS_EVAL$,,AUTO
         0 000626   000024 036003                    ADLQ    20,DU
         0 000627   200032 756100                    STQ     TEMP_START+9,,AUTO
         0 000630   200032 630500                    EPPR0   TEMP_START+9,,AUTO
         0 000631   000022 631400 xsym               EPPR1   B_VECTNIL+18
         0 000632   000000 701000 xent               TSX1    VDE$IGUAR_RANGE_IN_RANGE
         0 000633   000752 702000 0                  TSX2    OCLEAR_RANGE_FAILED

     1395     4129    2             TOS$EVAL.ENCLOSING, TRUNCATED, COMPLETELY_OUTSIDE)
     1396     4130    2             ALTRET (IGUAR_RANGE_IN_RANGE_FAILED);
     1397     4131    2           IF COMPLETELY_OUTSIDE THEN

   4131  0 000634   200012 234100                    SZN     COMPLETELY_OUTSIDE,,AUTO
         0 000635   000640 605000 0                  TPL     s:4133

     1398     4132    2              SIGNAL = %FALSE;

   4132  0 000636   200016 470500                    LDP0    @SIGNAL,,AUTO
         0 000637   000000 450100                    STZ     0,,PR0

     1399     4133    2           CALL VDG$COMPARE_LOCS (TOS$EVAL.RANGE.START,

   4133  0 000640   200013 630500                    EPPR0   RCCL,,AUTO
         0 000641   200034 450500                    STP0    TEMP_START+11,,AUTO
         0 000642   200017 236100                    LDQ     TOS_EVAL$,,AUTO
         0 000643   000035 036003                    ADLQ    29,DU
         0 000644   200033 756100                    STQ     TEMP_START+10,,AUTO
         0 000645   200017 236100                    LDQ     TOS_EVAL$,,AUTO
         0 000646   000024 036003                    ADLQ    20,DU
         0 000647   200032 756100                    STQ     TEMP_START+9,,AUTO
         0 000650   200032 630500                    EPPR0   TEMP_START+9,,AUTO
         0 000651   000021 631400 xsym               EPPR1   B_VECTNIL+17
         0 000652   000000 701000 xent               TSX1    VDG$COMPARE_LOCS
         0 000653   000752 702000 0                  TSX2    OCLEAR_RANGE_FAILED
PL6.E3A0      #002=VDE$IRANGE File=VDE$INTERPRET.:VDA5TSI                        FRI 07/04/97 11:11 Page:156

     1400     4134    2             TOS$EVAL.RANGE.ENDD, RCCL)
     1401     4135    2             ALTRET (COMPARE_LOCS_FAILED);
     1402     4136    3           IF RCCL > %RCCL_EQUAL THEN DO;

   4136  0 000654   200013 235100                    LDA     RCCL,,AUTO
         0 000655   000705 604400 0                  TMOZ    s:4148

     1403     4137    3              TEMP_START = TOS$EVAL.RANGE.START;

   4137  0 000656   200017 470500                    LDP0    TOS_EVAL$,,AUTO
         0 000657   000100 100500                    MLR     fill='000'O
         0 000660   000024 000044                    ADSC9   20,,PR0                  cn=0,n=36
         0 000661   200021 000044                    ADSC9   TEMP_START,,AUTO         cn=0,n=36

     1404     4138    3              TOS$EVAL.RANGE.START = TOS$EVAL.RANGE.ENDD;

   4138  0 000662   000100 100500                    MLR     fill='000'O
         0 000663   000035 000044                    ADSC9   29,,PR0                  cn=0,n=36
         0 000664   000024 000044                    ADSC9   20,,PR0                  cn=0,n=36

     1405     4139    3              TOS$EVAL.RANGE.ENDD = TEMP_START;

   4139  0 000665   000100 100500                    MLR     fill='000'O
         0 000666   200021 000044                    ADSC9   TEMP_START,,AUTO         cn=0,n=36
         0 000667   000035 000044                    ADSC9   29,,PR0                  cn=0,n=36

     1406     4140    4              DO CASE (TOS$EVAL.STATE#);

   4140  0 000670   000070 220100                    LDX0    56,,PR0
         0 000671   000004 100003                    CMPX0   4,DU
         0 000672   000674 602010 0                  TNC     s:4140+4,X0
         0 000673   000705 710000 0                  TRA     s:4148
         0 000674   000705 710000 0                  TRA     s:4148
         0 000675   000700 710000 0                  TRA     s:4142
         0 000676   000700 710000 0                  TRA     s:4142
         0 000677   000703 710000 0                  TRA     s:4144
PL6.E3A0      #002=VDE$IRANGE File=VDE$INTERPRET.:VDA5TSI                        FRI 07/04/97 11:11 Page:157

     1407     4141    4               CASE (%EVST_INITIAL, %EVST_START);

     1408     4142    4                 TOS$EVAL.STATE# = %EVST_END;

   4142  0 000700   000003 221003                    LDX1    3,DU
         0 000701   000070 741100                    STX1    56,,PR0
         0 000702   000705 710000 0                  TRA     s:4148

     1409     4143    4               CASE (%EVST_END);

     1410     4144    4                 TOS$EVAL.STATE# = %EVST_START;

   4144  0 000703   000002 221003                    LDX1    2,DU
         0 000704   000070 741100                    STX1    56,,PR0

     1411     4145    4               END;

     1412     4146    3              END;

     1413     4147
     1414     4148    3           IF SIGNAL THEN DO;

   4148  0 000705   200016 470500                    LDP0    @SIGNAL,,AUTO
         0 000706   000000 234100                    SZN     0,,PR0
         0 000707   000750 605000 0                  TPL     s:4166

     1415     4149                   /* Did we find the same range as last time? */
     1416     4150    3              CALL VDG$COMPARE_LOCS (TOS$EVAL.RANGE.START,

   4150  0 000710   200013 631500                    EPPR1   RCCL,,AUTO
         0 000711   200034 451500                    STP1    TEMP_START+11,,AUTO
         0 000712   200017 236100                    LDQ     TOS_EVAL$,,AUTO
         0 000713   000046 036003                    ADLQ    38,DU
         0 000714   200033 756100                    STQ     TEMP_START+10,,AUTO
         0 000715   200017 236100                    LDQ     TOS_EVAL$,,AUTO
         0 000716   000024 036003                    ADLQ    20,DU
PL6.E3A0      #002=VDE$IRANGE File=VDE$INTERPRET.:VDA5TSI                        FRI 07/04/97 11:11 Page:158
         0 000717   200032 756100                    STQ     TEMP_START+9,,AUTO
         0 000720   200032 630500                    EPPR0   TEMP_START+9,,AUTO
         0 000721   000021 631400 xsym               EPPR1   B_VECTNIL+17
         0 000722   000000 701000 xent               TSX1    VDG$COMPARE_LOCS
         0 000723   000752 702000 0                  TSX2    OCLEAR_RANGE_FAILED

     1417     4151    3                TOS$EVAL.LAST_FOUND_RANGE.START, RCCL)
     1418     4152    3                ALTRET (COMPARE_LOCS_FAILED);
     1419     4153    4              IF RCCL = %RCCL_EQUAL THEN DO;

   4153  0 000724   200013 235100                    LDA     RCCL,,AUTO
         0 000725   000750 601000 0                  TNZ     s:4166

     1420     4154    4                 CALL VDG$COMPARE_LOCS (TOS$EVAL.RANGE.ENDD,

   4154  0 000726   200013 630500                    EPPR0   RCCL,,AUTO
         0 000727   200034 450500                    STP0    TEMP_START+11,,AUTO
         0 000730   200017 236100                    LDQ     TOS_EVAL$,,AUTO
         0 000731   000057 036003                    ADLQ    47,DU
         0 000732   200033 756100                    STQ     TEMP_START+10,,AUTO
         0 000733   200017 236100                    LDQ     TOS_EVAL$,,AUTO
         0 000734   000035 036003                    ADLQ    29,DU
         0 000735   200032 756100                    STQ     TEMP_START+9,,AUTO
         0 000736   200032 630500                    EPPR0   TEMP_START+9,,AUTO
         0 000737   000021 631400 xsym               EPPR1   B_VECTNIL+17
         0 000740   000000 701000 xent               TSX1    VDG$COMPARE_LOCS
         0 000741   000752 702000 0                  TSX2    OCLEAR_RANGE_FAILED

     1421     4155    4                   TOS$EVAL.LAST_FOUND_RANGE.ENDD, RCCL)
     1422     4156    4                   ALTRET (COMPARE_LOCS_FAILED);
     1423     4157    5                 IF RCCL = %RCCL_EQUAL THEN DO;

   4157  0 000742   200013 235100                    LDA     RCCL,,AUTO
         0 000743   000750 601000 0                  TNZ     s:4166

     1424     4158                         /* Found same range again: fail this and all alternatives */
     1425     4159    5                    SIGNAL = %FALSE;
PL6.E3A0      #002=VDE$IRANGE File=VDE$INTERPRET.:VDA5TSI                        FRI 07/04/97 11:11 Page:159

   4159  0 000744   200016 470500                    LDP0    @SIGNAL,,AUTO
         0 000745   000000 450100                    STZ     0,,PR0

     1426     4160                         /*N*??* Must we find the VD$EVAL for the IT_SELECT node? *N*/
     1427     4161    5                    TOS$EVAL.REMAINING# = 0;

   4161  0 000746   200017 471500                    LDP1    TOS_EVAL$,,AUTO
         0 000747   100072 450100                    STZ     58,,PR1

     1428     4162    5                    END;

     1429     4163    4                 END;

     1430     4164    3              END;

     1431     4165
     1432     4166    2           RETURN;

   4166  0 000750   200014 221300                    LDX1  ! RCCL+1,,AUTO
         0 000751   000001 702211                    TSX2  ! 1,X1

   4156  0 000752                       OCLEAR_RANG* null
   4156  0 000752                       OCOPY_RANGE* null
   4156  0 000752                       OCLEAR_LOCA* null
   4156  0 000752                       OCOPY_LOCAT* null
   4156  0 000752                       IADJUST_FAI* null
   4156  0 000752                       IGUAR_RANGE* null
   4156  0 000752                       COMPARE_LOC* null
     1433     4167
     1434     4168
     1435     4169
     1436     4170    2   OCLEAR_RANGE_FAILED: ;
     1437     4171    2   OCOPY_RANGE_FAILED: ;
     1438     4172    2   OCLEAR_LOCATION_FAILED: ;
     1439     4173    2   OCOPY_LOCATION_FAILED: ;
     1440     4174    2   IADJUST_FAILED: ;
PL6.E3A0      #002=VDE$IRANGE File=VDE$INTERPRET.:VDA5TSI                        FRI 07/04/97 11:11 Page:160
     1441     4175    2   IGUAR_RANGE_IN_RANGE_FAILED: ;
     1442     4176    2   COMPARE_LOCS_FAILED: ;
     1443     4177    2           ALTRETURN;

   4177  0 000752   200014 221300                    LDX1  ! RCCL+1,,AUTO
         0 000753   000000 702211                    TSX2  ! 0,X1
     1444     4178
     1445     4179    2   END ISELECT;
     1446     4180
     1447     4181    1   END VDE$IRANGE;
     1448     4182        %EOD;

PL6.E3A0      #002=VDE$IRANGE File=VDE$INTERPRET.:VDA5TSI                        FRI 07/04/97 11:11 Page:161
--  Include file information  --

   VD_PERR_C.:VDA5TOU  is referenced.
   VD_MACROS_M.:VDA5TOU  is referenced.
   B$JIT_C.:E04TOU  was found in the system file and is never referenced.
   CP_6_C.:E04TOU  was found in the system file and is never referenced.
      No diagnostics issued in procedure VDE$IRANGE.
PL6.E3A0      #002=VDE$IRANGE File=VDE$INTERPRET.:VDA5TSI                        FRI 07/04/97 11:11 Page:162

 **** Variables and constants ****

  ****  Auto variables  ****

  ****  Scalars and arrays  ****
OctLoc.c.b A Datatyp(siz) R M Lvl/name                 OctLoc.c.b A Datatyp(siz) R M Lvl/name

     3-0-0/w PTR         r     1 @OPERAND                  15-0-0/w PTR         r     1 @OPERAND
     4-0-0/w PTR         r     1 @SIGNAL                   16-0-0/w PTR         r     1 @SIGNAL
    12-0-0/w BIT         r     1 COMPLETELY_OUTSIDE        20-0-0/w PTR         r     1 IT_ADJUST$
    10-0-0/w PTR         r     1 IT_SELECT$                *0-0-0/w STRC(144)   r     1 OPERAND
    *0-0-0/w STRC(144)   r     1 OPERAND                    7-0-0/w PTR         r     1 PREV_EVAL$
    13-0-0/w SBIN        r     1 RCCL                      *0-0-0/w BIT         r     1 SIGNAL
    *0-0-0/w BIT         r     1 SIGNAL                    21-0-0/w STRC(324)   r     1 TEMP_START
     6-0-0/w PTR         r     1 TEST_EVAL$                 5-0-0/w PTR         r     1 TOS_EVAL$
    17-0-0/w PTR         r     1 TOS_EVAL$                 11-0-0/w BIT         r     1 TRUNCATED

  ****  SYMREF variables  ****

  ****  Scalars and arrays  ****
OctLoc.c.b A Datatyp(siz) R M Lvl/name                 OctLoc.c.b A Datatyp(siz) R M Lvl/name

     0-0-0/w STRC(144)   r     1 VD_$$MON_EVAL

  ****  BASED and DCB variables  ****

  ****  Scalars and arrays  ****
OctLoc.c.b A Datatyp(siz) R M Lvl/name                 OctLoc.c.b A Datatyp(siz) R M Lvl/name

     0-0-0/w STRC(216)   r     1 IT$ADJUST                  0-0-0/w STRC(216)   r     1 IT$SELECT
     0-0-0/w STRC(2124)  r     1 PREV$EVAL                  0-0-0/w STRC(2124)  r     1 TEST$EVAL
     0-0-0/w STRC(2124)  r     1 TOS$EVAL                   0-0-0/w STRC(2124)  r     1 TOS$EVAL
     0-0-0/w STRC(216)   r     1 VD$IT_OPERATOR             0-0-0/w STRC(216)   r     1 VD$IT_SELECT
     0-0-0/w STRC        r     1 VD$OBJECT_HEADER

PL6.E3A0      #002=VDE$IRANGE File=VDE$INTERPRET.:VDA5TSI                        FRI 07/04/97 11:11 Page:163

   Procedure VDE$IRANGE requires 492 words for executable code.
   Procedure VDE$IRANGE requires 30 words of local(AUTO) storage.
PL6.E3A0      #002=VDE$IRANGE File=VDE$INTERPRET.:VDA5TSI                        FRI 07/04/97 11:11 Page:164
          *** CROSS REFERENCE LISTING ***
**     DENOTES     IDENTIFIER DEFINITION
<<                 IDENTIFIER'S VALUE SET
>>                 IDENTIFIER'S VALUE USED
<>                 IDENTIFIER SET AND/OR USED
--                 IDENTIFIER REFERENCED
PL6.E3A0      #002=VDE$IRANGE File=VDE$INTERPRET.:VDA5TSI                        FRI 07/04/97 11:11 Page:165
          MINI XREF LISTING

COMPARE_LOCS_FAILED IN PROCEDURE ISELECT
      4156**LABEL    4133--CALLALT  4150--CALLALT  4154--CALLALT
COMPLETELY_OUTSIDE
      2608**DCL      4128<>CALL     4131>>IF
FIND_TOP_SELECT
      3457**LABEL    3461--EXIT
IADJUST_FAILED IN PROCEDURE ISELECT
      4156**LABEL    4116--CALLALT
IGUAR_RANGE_IN_RANGE_FAILED IN PROCEDURE ISELECT
      4156**LABEL    4128--CALLALT
ISELECT
      3689**PROC     3483--CALL
ISELECT_FAILED
      3596**LABEL    3483--CALLALT
IT$ADJUST IN PROCEDURE ISELECT
      3993**DCL      4116<>CALL
IT$ADJUST.FLINK$ IN PROCEDURE ISELECT
      4019**DCL      4124>>ASSIGN
IT$ADJUST.NEW_STATE# IN PROCEDURE ISELECT
      4019**DCL      4082>>DOCASE   4104>>ASSIGN   4113<>CALL
IT$SELECT.FLINK$
      3381**DCL      3519>>ASSIGN
IT$SELECT.RPT_ALL
      3381**DCL      3539>>IF
IT$SELECT.RPT_COUNT#
      3381**DCL      3542>>ASSIGN
IT_ADJUST$ IN PROCEDURE ISELECT
      3709**DCL      3993--IMP-PTR  4076<<ASSIGN   4079>>DOWHILE  4082>>DOCASE   4104>>ASSIGN   4113>>CALL
      4116>>CALL     4124<<ASSIGN   4124>>ASSIGN
IT_SELECT$
      2606**DCL      3355--IMP-PTR  3506<<ASSIGN   3507>>DOWHILE  3513<<ASSIGN   3519<<ASSIGN   3519>>ASSIGN
      3520>>IF       3538>>ASSIGN   3539>>IF       3542>>ASSIGN
PL6.E3A0      #002=VDE$IRANGE File=VDE$INTERPRET.:VDA5TSI                        FRI 07/04/97 11:11 Page:166
OALLOC_FAILED
      3577**LABEL    3525--CALLALT
OCLEAR_LOCATION_FAILED IN PROCEDURE ISELECT
      4156**LABEL    4090--CALLALT  4096--CALLALT
OCLEAR_RANGE_FAILED
      3596**LABEL    3576--CALLALT
OCLEAR_RANGE_FAILED IN PROCEDURE ISELECT
      4156**LABEL    4064--CALLALT
OCOPY_LOCATION_FAILED
      3596**LABEL    3531--CALLALT  3534--CALLALT
OCOPY_LOCATION_FAILED IN PROCEDURE ISELECT
      4156**LABEL    4092--CALLALT  4098--CALLALT
OCOPY_RANGE_FAILED
      3596**LABEL    3529--CALLALT  3578--CALLALT
OCOPY_RANGE_FAILED IN PROCEDURE ISELECT
      4156**LABEL    4068--CALLALT
OFREE_FAILED
      3577**LABEL    3466--CALLALT  3555--CALLALT
OPERAND
      2531**DCL       155--PROC     3450<>CALL     3483<>CALL
OPERAND.EVAL$
      2535**DCL      3447>>ASSIGN   3465<<ASSIGN   3468>>ASSIGN   3493>>ASSIGN   3525<>CALL     3527>>ASSIGN
      3554<<ASSIGN   3557>>ASSIGN
OPERAND IN PROCEDURE ISELECT
      3699**DCL      3689--PROC     4116<>CALL
OPERAND.EVAL$ IN PROCEDURE ISELECT
      3703**DCL      4063>>ASSIGN   4122>>ASSIGN
PREV$EVAL.RANGE
      3216**DCL      3529<>CALL     3578<>CALL
PREV$EVAL.RANGE.START
      3228**DCL      3531<>CALL     3534<>CALL
PREV$EVAL.STATE#
      3344**DCL      3581>>ASSIGN
PREV_EVAL$
      2605**DCL      3110--IMP-PTR  3524<<ASSIGN   3528>>ASSIGN   3529>>CALL     3531>>CALL     3534>>CALL
      3571<<ASSIGN   3572>>IF       3578>>CALL     3581>>ASSIGN
PL6.E3A0      #002=VDE$IRANGE File=VDE$INTERPRET.:VDA5TSI                        FRI 07/04/97 11:11 Page:167
RCCL
      2609**DCL      4133<>CALL     4136>>IF       4150<>CALL     4153>>IF       4154<>CALL     4157>>IF
SIGNAL
      2537**DCL       155--PROC     3446<<ASSIGN   3472<<ASSIGN   3478>>DOUNTIL  3483<>CALL     3498>>IF
      3561<<ASSIGN   3585<<ASSIGN
SIGNAL IN PROCEDURE ISELECT
      3705**DCL      3689--PROC     4062<<ASSIGN   4079>>DOWHILE  4116<>CALL     4132<<ASSIGN   4148>>IF
      4159<<ASSIGN
TEMP_START IN PROCEDURE ISELECT
      3718**DCL      4137<<ASSIGN   4139>>ASSIGN
TEST$EVAL.BLINK$
      2891**DCL      3509>>ASSIGN   3515>>ASSIGN
TEST$EVAL.NODE$
      3099**DCL      3508>>DOWHILE  3511>>IF       3513>>ASSIGN
TEST_EVAL$
      2604**DCL      2865--IMP-PTR  3505<<ASSIGN   3508>>DOWHILE  3509<<ASSIGN   3509>>ASSIGN   3511>>IF
      3513>>ASSIGN   3515<<ASSIGN   3515>>ASSIGN
TOS$EVAL
      2620**DCL      3466<>CALL     3501<>CALL     3555<>CALL
TOS$EVAL.BLINK$
      2646**DCL      3462>>IF       3465>>ASSIGN   3528<<ASSIGN   3552>>DOWHILE  3554>>ASSIGN   3571>>ASSIGN
TOS$EVAL.ENCLOSING
      2657**DCL      3529<>CALL
TOS$EVAL.NODE$
      2854**DCL      3458>>IF       3459>>IF       3481>>DOCASE   3538<<ASSIGN   3546>>IF       3565>>DOCASE
      3574>>IF
TOS$EVAL.RANGE
      2726**DCL      3576<>CALL     3578<>CALL
TOS$EVAL.RANGE.ENDD
      2766**DCL      3534<>CALL
TOS$EVAL.RANGE.START
      2738**DCL      3531<>CALL
TOS$EVAL.REMAINING#
      2854**DCL      3459>>IF       3480>>IF       3496<<ASSIGN   3496>>ASSIGN   3540<<ASSIGN   3542<<ASSIGN
      3548<<ASSIGN   3552>>DOWHILE  3559>>IF
TOS$EVAL.STATE#
PL6.E3A0      #002=VDE$IRANGE File=VDE$INTERPRET.:VDA5TSI                        FRI 07/04/97 11:11 Page:168
      2854**DCL      3537<<ASSIGN   3568<<ASSIGN   3581<<ASSIGN
TOS$EVAL.ENCLOSING IN PROCEDURE ISELECT
      3785**DCL      4128<>CALL
TOS$EVAL.LAST_FOUND_RANGE IN PROCEDURE ISELECT
      3923**DCL      4064<>CALL     4068<>CALL
TOS$EVAL.LAST_FOUND_RANGE.ENDD IN PROCEDURE ISELECT
      3963**DCL      4154<>CALL
TOS$EVAL.LAST_FOUND_RANGE.START IN PROCEDURE ISELECT
      3935**DCL      4150<>CALL
TOS$EVAL.NODE$ IN PROCEDURE ISELECT
      3982**DCL      4066>>IF       4066>>IF       4076>>ASSIGN
TOS$EVAL.RANGE IN PROCEDURE ISELECT
      3854**DCL      4068<>CALL     4128<>CALL
TOS$EVAL.RANGE.ENDD IN PROCEDURE ISELECT
      3894**DCL      4090<>CALL     4092<>CALL     4098<>CALL     4133<>CALL     4138>>ASSIGN   4139<<ASSIGN
      4154<>CALL
TOS$EVAL.RANGE.START IN PROCEDURE ISELECT
      3866**DCL      4092<>CALL     4096<>CALL     4098<>CALL     4133<>CALL     4137>>ASSIGN   4138<<ASSIGN
      4150<>CALL
TOS$EVAL.REMAINING# IN PROCEDURE ISELECT
      3982**DCL      4161<<ASSIGN
TOS$EVAL.STATE# IN PROCEDURE ISELECT
      3982**DCL      4088>>DOCASE   4102<>CALL     4104<<ASSIGN   4107>>IF       4108<<ASSIGN   4110<<ASSIGN
      4140>>DOCASE   4142<<ASSIGN   4144<<ASSIGN
TOS_EVAL$
      2603**DCL      2620--IMP-PTR  3447<<ASSIGN   3457>>DOWHILE  3458>>IF       3459>>IF       3459>>IF
      3462>>IF       3463<<ASSIGN   3465>>ASSIGN   3466>>CALL     3468<<ASSIGN   3471>>IF       3480>>IF
      3481>>DOCASE   3493<<ASSIGN   3496>>ASSIGN   3496>>ASSIGN   3501>>CALL     3505>>ASSIGN   3524>>ASSIGN
      3527<<ASSIGN   3528>>ASSIGN   3529>>CALL     3531>>CALL     3534>>CALL     3537>>ASSIGN   3538>>ASSIGN
      3540>>ASSIGN   3542>>ASSIGN   3546>>IF       3548>>ASSIGN   3552>>DOWHILE  3552>>DOWHILE  3554>>ASSIGN
      3555>>CALL     3557<<ASSIGN   3559>>IF       3565>>DOCASE   3568>>ASSIGN   3571>>ASSIGN   3574>>IF
      3576>>CALL     3578>>CALL     3581>>ASSIGN
TOS_EVAL$ IN PROCEDURE ISELECT
      3708**DCL      3748--IMP-PTR  4063<<ASSIGN   4064>>CALL     4066>>IF       4066>>IF       4068>>CALL
      4068>>CALL     4076>>ASSIGN   4088>>DOCASE   4090>>CALL     4092>>CALL     4092>>CALL     4096>>CALL
      4098>>CALL     4098>>CALL     4102>>CALL     4104>>ASSIGN   4107>>IF       4108>>ASSIGN   4110>>ASSIGN
PL6.E3A0      #002=VDE$IRANGE File=VDE$INTERPRET.:VDA5TSI                        FRI 07/04/97 11:11 Page:169
      4122<<ASSIGN   4128>>CALL     4128>>CALL     4133>>CALL     4133>>CALL     4137>>ASSIGN   4138>>ASSIGN
      4138>>ASSIGN   4139>>ASSIGN   4140>>DOCASE   4142>>ASSIGN   4144>>ASSIGN   4150>>CALL     4150>>CALL
      4154>>CALL     4154>>CALL     4161>>ASSIGN
TRUNCATED
      2607**DCL      4128<>CALL
VD$IT_OPERATOR.CODE#
      3440**DCL      3574>>IF
VD$IT_SELECT.ADJUSTS$ IN PROCEDURE ISELECT
      4057**DCL      4076>>ASSIGN
VD$IT_SELECT.RPT_ALL IN PROCEDURE ISELECT
      4056**DCL      4066>>IF
VD$IT_SELECT.RPT_COUNT# IN PROCEDURE ISELECT
      4056**DCL      4066>>IF
VD$OBJECT_HEADER.CLASS#
      3404**DCL      3459>>IF       3481>>DOCASE   3511>>IF       3546>>IF       3565>>DOCASE
VDE$IADJUST
      2541**DCL-ENT  4116--CALL
VDE$IGUAR_RANGE_IN_RANGE
      2542**DCL-ENT  4128--CALL
VDG$COMPARE_LOCS
      2543**DCL-ENT  4133--CALL     4150--CALL     4154--CALL
VDG$ESCREECH
      2550**DCL-ENT  3573--CALL     4102--CALL     4113--CALL
VDG$MEVAL_FOUND_RANGE
      2552**DCL-ENT  3501--CALL
VDG$MEVAL_START_EVAL
      2551**DCL-ENT  3450--CALL
VDG$OALLOC
      2544**DCL-ENT  3525--CALL
VDG$OCLEAR_LOCATION
      2548**DCL-ENT  4090--CALL     4096--CALL
VDG$OCLEAR_RANGE
      2546**DCL-ENT  3576--CALL     4064--CALL
VDG$OCOPY_LOCATION
      2549**DCL-ENT  3531--CALL     3534--CALL     4092--CALL     4098--CALL
VDG$OCOPY_RANGE
PL6.E3A0      #002=VDE$IRANGE File=VDE$INTERPRET.:VDA5TSI                        FRI 07/04/97 11:11 Page:170
      2547**DCL-ENT  3529--CALL     3578--CALL     4068--CALL
VDG$OFREE
      2545**DCL-ENT  3466--CALL     3555--CALL
VD_$$MON_EVAL.V#
      2597**DCL      3449>>IF       3500>>IF

