PL6.E3A0      #004=VDE$IMOVE_BY_POSITIONS File=VDE$INTERPRET.:VDA5TSI            FRI 07/04/97 11:12 Page:291
     2507        1        /*T***********************************************************/
     2508        2        /*T*                                                         */
     2509        3        /*T* Copyright (c) Bull HN Information Systems Inc., 1997    */
     2510        4        /*T*                                                         */
     2511        5        /*T***********************************************************/
     2512        6        /*D* NAME: VDE$IMOVE_BY_POSITIONS
     2513        7            PARAMETERS:
     2514        8                STREAM - VD$STREAM to use; must be open.  Its file location at
     2515        9                    entry is irrelevent and unknown.
     2516       10                LOC - VD$LOCATION specifying where to begin moving from.
     2517       11                ENCLOSING - Enclosing VD$RANGE for this movement.
     2518       12                MX_RECORDS - Max # records we can read in order to skip
     2519       13                    N_POSITIONS positions.
     2520       14                DIRECTION - UBIN HALF HALIGNED containing a %DIR_ def,
     2521       15                    specifying which direction to move in.
     2522       16                N_POSITIONS - # of positions to move over.
     2523       17                FOUND - Uninitialized BIT(1) ALIGNED.
     2524       18            OUTPUT:
     2525       19                If we could move the requested number of positions and
     2526       20                still remain within the enclosing block:
     2527       21                    FOUND will be set %TRUE.
     2528       22                    LOC will specify the new location in the file after moving
     2529       23                        the requested number of positions.
     2530       24                    MX_RECORDS will be decremented by the number of records we
     2531       25                        read, following the first read of LOC's record.
     2532       26                Else:
     2533       27                    FOUND will be set %FALSE.
     2534       28            DESCRIPTION:
     2535       29                Note that VDE$IMOVE_BY_POSITIONS must read each
     2536       30                    record as it moves N_POSITIONS positions forward or backward.
     2537       31                    But, if the user
     2538       32                    requests moving 10,000 positions but .ENCLOSING is going
     2539       33                    to limit movement to 1 or 2 records, we don't want to
     2540       34                    read the entire file finding the 10,000th position, only
     2541       35                    to find it's out-of-bounds!  Therefore, after each read,
     2542       36                    VDE$IMOVE_BY_POSITIONS checks to see that we're still inside
     2543       37                    .ENCLOSING's bounds and MX_RECORDS's limit.
PL6.E3A0      #004=VDE$IMOVE_BY_POSITIONS File=VDE$INTERPRET.:VDA5TSI            FRI 07/04/97 11:12 Page:292
     2544       38
     2545       39                Procedure:
     2546       40                In the loop that follows:
     2547       41                    LOC contains the key of the record we're moving over;
     2548       42                    NB_RECORD contains the length of this record;
     2549       43                    LOC.POSITION# will point to where we are in this record.
     2550       44                Find the first record using the LOC key.  If this
     2551       45                    record doesn't exist or is EOF, use 0 as the record length.
     2552       46                Now loop while we still need to skip positions:
     2553       47                    If the record's length is greater than the number of
     2554       48                        positions left to skip, then we've got the final
     2555       49                        record.  Adjust LOC.POSITION#.
     2556       50                    Otherwise, we can skip this entire record:  subtract
     2557       51                        its length from the number of positions left to
     2558       52                        skip.  Then get the key and length of the next or
     2559       53                        previous record, and set up LOC and NB_RECORD
     2560       54                        to describe this new record.
     2561       55                    End of loop.
     2562       56                If we found the operand successfully, set FOUND.
     2563       57        */
     2564       58
     2565       59        VDE$IMOVE_BY_POSITIONS: PROC (STREAM, LOC, ENCLOSING, MX_RECORDS, DIRECTION,
     2566       60                  N_POSITIONS, FOUND) ALTRET;
     2567       61
     2568       62        %INCLUDE VD_MACROS_M;
     2569     2277
     2570     2278
     2571     2279        %VD$STREAM (NAME=STREAM, STCLASS=PARAM);
     2572     2385        %VD$LOCATION (NAME=LOC, STCLASS=PARAM);
     2573     2413        %VD$RANGE (NAME=ENCLOSING, STCLASS=PARAM);
     2574     2482    1   DCL MX_RECORDS SBIN;
     2575     2483    1   DCL DIRECTION UBIN HALF HALIGNED;
     2576     2484    1   DCL N_POSITIONS SBIN;
     2577     2485    1   DCL FOUND BIT(1) ALIGNED;
     2578     2486
     2579     2487
     2580     2488    1   DCL VDA$LREAD           ENTRY (4) ALTRET;
PL6.E3A0      #004=VDE$IMOVE_BY_POSITIONS File=VDE$INTERPRET.:VDA5TSI            FRI 07/04/97 11:12 Page:293
     2581     2489    1   DCL VDG$COMPARE_LOCS    ENTRY (3) ALTRET;
     2582     2490    1   DCL VDG$OCOPY           ENTRY (2) ALTRET;
     2583     2491    1   DCL VDG$OFREE           ENTRY (1) ALTRET;
     2584     2492
     2585     2493
     2586     2494    1   DCL N_POS SBIN;         /* Local copy of N_POSITIONS, so I can change it */
     2587     2495    1   DCL LEVEL SBIN;
     2588     2496    1   DCL NB_RECORD SBIN;
     2589     2497    1   DCL PORT$ PTR;
     2590     2498    1   DCL INITIAL_KEY$ PTR;
     2591     2499    1   DCL STREAM_KEY$ PTR;
     2592     2500        %VD$KEY (NAME=MY_KEY, STCLASS=AUTO);    /* Does own objects! */
     2593     2514
     2594     2515
     2595     2516        %VD$PORT (NAME=PORT, STCLASS="BASED(PORT$)");
     2596     2614        %VD$TEXTC (NAME=INITIAL$KEY, STCLASS="BASED(INITIAL_KEY$)");
     2597     2637        %VD$TEXTC (NAME=STREAM$KEY, STCLASS="BASED(STREAM_KEY$)");
     2598     2660        %VD$FILE_NODE;
     2599     2753        %VD$BUFFER;
     2600     2811        %VD$TEXTC_REMOTE;
     2601     2872
     2602     2873
     2603     2874
     2604     2875    1           N_POS = N_POSITIONS;    /* So I can change it */
     2605     2876    1           FOUND = %TRUE;
     2606     2877    1           NB_RECORD = 0;
     2607     2878    1           PORT$ = STREAM.PORT$;
     2608     2879                /* LEVEL is # of lowest level in file structure */
     2609     2880    1           LEVEL = PORT.STRUCTURE$->VD$FILE_NODE.COUNT# - 1;
     2610     2881
     2611     2882                /*
     2612     2883                *  Position the StreamPointer to the LOC key (so
     2613     2884                *   relative and sequential reads will work),
     2614     2885                *   and set up the first record in LOC and NB_RECORD.
     2615     2886                */
     2616     2887
     2617     2888    1           CALL VDA$LREAD (STREAM, LOC, 0, %TRUE)
PL6.E3A0      #004=VDE$IMOVE_BY_POSITIONS File=VDE$INTERPRET.:VDA5TSI            FRI 07/04/97 11:12 Page:294
     2618     2889    1             ALTRET (LREAD_FAILED);
     2619     2890    2           IF NOT STREAM.CURRENT.EOF THEN DO;
     2620     2891                   %GETKEY (KEY=LOC.KEY, INDX=LEVEL-1, PTR=INITIAL_KEY$);
     2621     2901                   %GETKEY (KEY=STREAM.CURRENT.KEY, INDX=LEVEL-1,
     2622     2902                   PTR=STREAM_KEY$);
     2623     2912    3              IF INITIAL$KEY.BYTES = STREAM$KEY.BYTES THEN DO;
     2624     2913                      /* Record exists */
     2625     2914    3                 IF PORT.LEVEL.DATA$ (LEVEL) ~= ADDR(NIL) THEN
     2626     2915    3                    NB_RECORD = PORT.LEVEL.DATA$ (LEVEL) -> VD$BUFFER.LENGTH#;
     2627     2916    3                 END;
     2628     2917    2              END;
     2629     2918
     2630     2919    1           IF DIRECTION = %DIR_FORWARD THEN
     2631     2920    1              NB_RECORD = MAXIMUM (NB_RECORD - LOC.POSITION#, 0);
     2632     2921    1           ELSE
     2633     2922    1              NB_RECORD = LOC.POSITION#;
     2634     2923
     2635     2924                /*
     2636     2925                *   In the following loop, LOC specifies our
     2637     2926                *       current location (which the first time thru may be a
     2638     2927                *       non-existent (virtual) location), and NB_RECORD
     2639     2928                *       is the length of the LOC record (which the
     2640     2929                *       first time thru is just the portion of the first
     2641     2930                *       record which lay in the direction we're moving).
     2642     2931                */
     2643     2932
     2644     2933    1   EACH_RECORD:
     2645     2934    2           DO WHILE N_POS > 0;
     2646     2935    2              CALL ONE_BOUND_CHECK (LOC)
     2647     2936    2                ALTRET (ONE_BOUND_CHECK_FAILED);
     2648     2937    2              IF NOT FOUND THEN
     2649     2938    2                 EXIT EACH_RECORD;     /* Exit loop */
     2650     2939
     2651     2940    3              IF N_POS <= NB_RECORD THEN DO;
     2652     2941                      /* AHA!! Don't need to skip beyond this record! */
     2653     2942    3                 IF DIRECTION = %DIR_FORWARD THEN
     2654     2943    3                    LOC.POSITION# = LOC.POSITION# + N_POS;
PL6.E3A0      #004=VDE$IMOVE_BY_POSITIONS File=VDE$INTERPRET.:VDA5TSI            FRI 07/04/97 11:12 Page:295
     2655     2944    3                 ELSE
     2656     2945    3                    LOC.POSITION# = LOC.POSITION# - N_POS;
     2657     2946    3                 EXIT EACH_RECORD;     /* Exit loop */
     2658     2947    3                 END;
     2659     2948
     2660     2949                   /* Skip this record */
     2661     2950    2              N_POS = N_POS - NB_RECORD;
     2662     2951    3              IF MX_RECORDS <= 0 THEN DO;
     2663     2952                      /* Can't read anymore records:  hit the limit */
     2664     2953    3                 FOUND = %FALSE;
     2665     2954    3                 EXIT EACH_RECORD;
     2666     2955    3                 END;
     2667     2956    2              MX_RECORDS = MX_RECORDS - 1;
     2668     2957
     2669     2958    3              IF DIRECTION = %DIR_FORWARD THEN DO;
     2670     2959    3                 CALL VDA$LREAD (STREAM, , 1, %TRUE)
     2671     2960    3                   ALTRET (LREAD_FAILED);
     2672     2961    4                 IF STREAM.CURRENT.EOF THEN DO;
     2673     2962    4                    FOUND = %FALSE;
     2674     2963    4                    EXIT EACH_RECORD;    /* Exit loop */
     2675     2964    4                    END;
     2676     2965    3                 END;
     2677     2966    3              ELSE DO;     /* Moving backward */
     2678     2967    3                 CALL VDA$LREAD (STREAM, , -1, %TRUE)
     2679     2968    3                   ALTRET (LREAD_FAILED);
     2680     2969    4                 IF STREAM.CURRENT.EOF THEN DO;
     2681     2970    4                    FOUND = %FALSE;
     2682     2971    4                    EXIT EACH_RECORD;         /* Exit loop */
     2683     2972    4                    END;
     2684     2973                      %GETKEY (KEY=LOC.KEY, INDX=LEVEL-1, PTR=INITIAL_KEY$);
     2685     2983                      %GETKEY (KEY=STREAM.CURRENT.KEY, INDX=LEVEL-1,
     2686     2984                      PTR=STREAM_KEY$);
     2687     2994    4                 IF STREAM$KEY >= INITIAL$KEY THEN DO;
     2688     2995                         /*
     2689     2996                         *  If moving backward 1 record gets us a key that
     2690     2997                         *    is >= our initial key, then we hit BOF.
     2691     2998                         */
PL6.E3A0      #004=VDE$IMOVE_BY_POSITIONS File=VDE$INTERPRET.:VDA5TSI            FRI 07/04/97 11:12 Page:296
     2692     2999    4                    FOUND = %FALSE;
     2693     3000    4                    EXIT EACH_RECORD;         /* Exit loop */
     2694     3001    4                    END;
     2695     3002    3                 END;
     2696     3003
     2697     3004                   %CLEARKEY (KEY=LOC.KEY, INDX=LEVEL-1);
     2698     3014                   %COPYKEY (FKEY=STREAM.CURRENT.KEY, FINDX=LEVEL-1,
     2699     3015                   TKEY=LOC.KEY, TINDX=LEVEL-1);
     2700     3031    2              IF PORT.LEVEL.DATA$ (LEVEL) = ADDR(NIL) THEN
     2701     3032    2                 NB_RECORD = 0;
     2702     3033    2              ELSE
     2703     3034    2                 NB_RECORD = PORT.LEVEL.DATA$ (LEVEL) -> VD$BUFFER.LENGTH#;
     2704     3035
     2705     3036    2              IF DIRECTION = %DIR_FORWARD THEN
     2706     3037    2                 LOC.POSITION# = 0;
     2707     3038    2              ELSE
     2708     3039    2                 LOC.POSITION# = NB_RECORD;
     2709     3040    2              END EACH_RECORD;
     2710     3041
     2711     3042
     2712     3043    1           RETURN;
     2713     3044
     2714     3045
     2715     3046
     2716     3047    1   LREAD_FAILED: ;
     2717     3048    1   ONE_BOUND_CHECK_FAILED: ;
     2718     3049    1           ALTRETURN;
     2719     3050
     2720     3051
     2721     3052                %BOX (TITLE="ONE_BOUND_CHECK");

              3064    1   /***************************************************************************
              3066    1    *                                                                         *
              3070    1            *                              ONE_BOUND_CHECK                            *
              3072    1            *                                                                         *
              3074    1           ***************************************************************************/

PL6.E3A0      #004=VDE$IMOVE_BY_POSITIONS File=VDE$INTERPRET.:VDA5TSI            FRI 07/04/97 11:12 Page:297
     2722     3078
     2723     3079    1   ONE_BOUND_CHECK: PROC (LOC) ALTRET;
     2724     3080
     2725     3081        %VD$LOCATION (NAME=LOC, STCLASS=PARAM);
     2726     3109
     2727     3110
     2728     3111    2   DCL RCCL SBIN;
     2729     3112
     2730     3113
     2731     3114    2           CALL VDG$COMPARE_LOCS (LOC, ENCLOSING.START, RCCL)
     2732     3115    2             ALTRET (COMPARE_LOCS_FAILED);
     2733     3116    3           IF RCCL < %RCCL_EQUAL THEN DO;
     2734     3117    3              FOUND = %FALSE;
     2735     3118    3              RETURN;
     2736     3119    3              END;
     2737     3120
     2738     3121    2           CALL VDG$COMPARE_LOCS (LOC, ENCLOSING.ENDD, RCCL)
     2739     3122    2             ALTRET (COMPARE_LOCS_FAILED);
     2740     3123    3           IF RCCL >= %RCCL_EQUAL THEN DO;
     2741     3124    3              FOUND = %FALSE;
     2742     3125    3              RETURN;
     2743     3126    3              END;
     2744     3127
     2745     3128    2           RETURN;
     2746     3129
     2747     3130
     2748     3131    2   COMPARE_LOCS_FAILED: ;
     2749     3132    2           ALTRETURN;
     2750     3133
     2751     3134    2   END ONE_BOUND_CHECK;
     2752     3135
     2753     3136    1   END VDE$IMOVE_BY_POSITIONS;
     2754     3137        %EOD;

PL6.E3A0      #004=VDE$IMOVE_BY_POSITIONS File=VDE$INTERPRET.:VDA5TSI            FRI 07/04/97 11:12 Page:298
--  Include file information  --

   VD_MACROS_M.:VDA5TOU  is referenced.
   B$JIT_C.:E04TOU  was found in the system file and is never referenced.
   CP_6_C.:E04TOU  was found in the system file and is never referenced.
      No diagnostics issued in procedure VDE$IMOVE_BY_POSITIONS.

   Procedure VDE$IMOVE_BY_POSITIONS requires 338 words for executable code.
   Procedure VDE$IMOVE_BY_POSITIONS requires 26 words of local(AUTO) storage.

PL6.E3A0      #004=VDE$IMOVE_BY_POSITIONS File=VDE$INTERPRET.:VDA5TSI            FRI 07/04/97 11:12 Page:299

 Object Unit name= VDE$IMOVE_BY_POSITIONS                     File name= VDE$INTERPRET.:VDA5TOU
 UTS= JUL 04 '97 11:12:22.08 FRI                              Compiler= PL-6/E31         Sev=      00
 SharedLib= :SHARED_SYSTEM                                    Alt SharedLib=


    ****  Control sections  ****

 Sect   Type Bound  Init  Size OctSiz  Section name(segment info)
    0   Proc  even  none   338    522  VDE$IMOVE_BY_POSITIONS
    1  RoData even  none     6      6  VDE$IMOVE_BY_POSITIONS

    ****  Entry defs  ****

                              Check   Calling
                             calling  sequence
  Sect OctLoc Primary Altret sequence   type   Parms  Name
     0      0   yes    yes     yes      Std        7  VDE$IMOVE_BY_POSITIONS

  ****  Entry refs  ****

         Check        Calling
        calling       sequence
Altret sequence SRef   type   Args  Name
 yes     yes           Std       4 VDA$LREAD
 yes     yes           Std       1 VDG$OFREE
 yes     yes           Std       2 VDG$OCOPY
 yes     yes           Std       3 VDG$COMPARE_LOCS
                       nStd      0 X66_AUTO_N
                       Std       0 B_CONSPOOL_D
                       nStd      0 X66_AALT
                       nStd      0 X66_ARET
PL6.E3A0      #004=VDE$IMOVE_BY_POSITIONS File=VDE$INTERPRET.:VDA5TSI            FRI 07/04/97 11:12 Page:300

  ****  Data refs  ****

  Flags:  r = read only, s = secondary
Flgs Name                             Flgs Name                             Flgs Name
     B_VECTNIL

  ****  Segment refs  ****

  Flags:  r = read only, s = secondary
Flgs Name                             Flgs Name                             Flgs Name
     ISSID
PL6.E3A0      #004=VDE$IMOVE_BY_POSITIONS File=VDE$INTERPRET.:VDA5TSI            FRI 07/04/97 11:12 Page:301


     2507        1        /*T***********************************************************/
     2508        2        /*T*                                                         */
     2509        3        /*T* Copyright (c) Bull HN Information Systems Inc., 1997    */
     2510        4        /*T*                                                         */
     2511        5        /*T***********************************************************/
     2512        6        /*D* NAME: VDE$IMOVE_BY_POSITIONS
     2513        7            PARAMETERS:
     2514        8                STREAM - VD$STREAM to use; must be open.  Its file location at
     2515        9                    entry is irrelevent and unknown.
     2516       10                LOC - VD$LOCATION specifying where to begin moving from.
     2517       11                ENCLOSING - Enclosing VD$RANGE for this movement.
     2518       12                MX_RECORDS - Max # records we can read in order to skip
     2519       13                    N_POSITIONS positions.
     2520       14                DIRECTION - UBIN HALF HALIGNED containing a %DIR_ def,
     2521       15                    specifying which direction to move in.
     2522       16                N_POSITIONS - # of positions to move over.
     2523       17                FOUND - Uninitialized BIT(1) ALIGNED.
     2524       18            OUTPUT:
     2525       19                If we could move the requested number of positions and
     2526       20                still remain within the enclosing block:
     2527       21                    FOUND will be set %TRUE.
     2528       22                    LOC will specify the new location in the file after moving
     2529       23                        the requested number of positions.
     2530       24                    MX_RECORDS will be decremented by the number of records we
     2531       25                        read, following the first read of LOC's record.
     2532       26                Else:
     2533       27                    FOUND will be set %FALSE.
     2534       28            DESCRIPTION:
     2535       29                Note that VDE$IMOVE_BY_POSITIONS must read each
     2536       30                    record as it moves N_POSITIONS positions forward or backward.
     2537       31                    But, if the user
     2538       32                    requests moving 10,000 positions but .ENCLOSING is going
     2539       33                    to limit movement to 1 or 2 records, we don't want to
     2540       34                    read the entire file finding the 10,000th position, only
     2541       35                    to find it's out-of-bounds!  Therefore, after each read,
     2542       36                    VDE$IMOVE_BY_POSITIONS checks to see that we're still inside
PL6.E3A0      #004=VDE$IMOVE_BY_POSITIONS File=VDE$INTERPRET.:VDA5TSI            FRI 07/04/97 11:12 Page:302
     2543       37                    .ENCLOSING's bounds and MX_RECORDS's limit.
     2544       38
     2545       39                Procedure:
     2546       40                In the loop that follows:
     2547       41                    LOC contains the key of the record we're moving over;
     2548       42                    NB_RECORD contains the length of this record;
     2549       43                    LOC.POSITION# will point to where we are in this record.
     2550       44                Find the first record using the LOC key.  If this
     2551       45                    record doesn't exist or is EOF, use 0 as the record length.
     2552       46                Now loop while we still need to skip positions:
     2553       47                    If the record's length is greater than the number of
     2554       48                        positions left to skip, then we've got the final
     2555       49                        record.  Adjust LOC.POSITION#.
     2556       50                    Otherwise, we can skip this entire record:  subtract
     2557       51                        its length from the number of positions left to
     2558       52                        skip.  Then get the key and length of the next or
     2559       53                        previous record, and set up LOC and NB_RECORD
     2560       54                        to describe this new record.
     2561       55                    End of loop.
     2562       56                If we found the operand successfully, set FOUND.
     2563       57        */
     2564       58
     2565       59        VDE$IMOVE_BY_POSITIONS: PROC (STREAM, LOC, ENCLOSING, MX_RECORDS, DIRECTION,

     59  0 000000   000000 700200 xent  VDE$IMOVE_B* TSX0  ! X66_AUTO_N
         0 000001   000032 000007                    ZERO    26,7

     2566       60                  N_POSITIONS, FOUND) ALTRET;
     2567       61
     2568       62        %INCLUDE VD_MACROS_M;
     2569     2277
     2570     2278
     2571     2279        %VD$STREAM (NAME=STREAM, STCLASS=PARAM);
     2572     2385        %VD$LOCATION (NAME=LOC, STCLASS=PARAM);
     2573     2413        %VD$RANGE (NAME=ENCLOSING, STCLASS=PARAM);
     2574     2482    1   DCL MX_RECORDS SBIN;
     2575     2483    1   DCL DIRECTION UBIN HALF HALIGNED;
PL6.E3A0      #004=VDE$IMOVE_BY_POSITIONS File=VDE$INTERPRET.:VDA5TSI            FRI 07/04/97 11:12 Page:303
     2576     2484    1   DCL N_POSITIONS SBIN;
     2577     2485    1   DCL FOUND BIT(1) ALIGNED;
     2578     2486
     2579     2487
     2580     2488    1   DCL VDA$LREAD           ENTRY (4) ALTRET;
     2581     2489    1   DCL VDG$COMPARE_LOCS    ENTRY (3) ALTRET;
     2582     2490    1   DCL VDG$OCOPY           ENTRY (2) ALTRET;
     2583     2491    1   DCL VDG$OFREE           ENTRY (1) ALTRET;
     2584     2492
     2585     2493
     2586     2494    1   DCL N_POS SBIN;         /* Local copy of N_POSITIONS, so I can change it */
     2587     2495    1   DCL LEVEL SBIN;
     2588     2496    1   DCL NB_RECORD SBIN;
     2589     2497    1   DCL PORT$ PTR;
     2590     2498    1   DCL INITIAL_KEY$ PTR;
     2591     2499    1   DCL STREAM_KEY$ PTR;
     2592     2500        %VD$KEY (NAME=MY_KEY, STCLASS=AUTO);    /* Does own objects! */
     2593     2514
     2594     2515
     2595     2516        %VD$PORT (NAME=PORT, STCLASS="BASED(PORT$)");
     2596     2614        %VD$TEXTC (NAME=INITIAL$KEY, STCLASS="BASED(INITIAL_KEY$)");
     2597     2637        %VD$TEXTC (NAME=STREAM$KEY, STCLASS="BASED(STREAM_KEY$)");
     2598     2660        %VD$FILE_NODE;
     2599     2753        %VD$BUFFER;
     2600     2811        %VD$TEXTC_REMOTE;
     2601     2872
     2602     2873
     2603     2874
     2604     2875    1           N_POS = N_POSITIONS;    /* So I can change it */

   2875  0 000002   200010 470500                    LDP0    @N_POSITIONS,,AUTO
         0 000003   000000 235100                    LDA     0,,PR0
         0 000004   200012 755100                    STA     N_POS,,AUTO

     2605     2876    1           FOUND = %TRUE;

   2876  0 000005   400000 236003                    LDQ     -131072,DU
PL6.E3A0      #004=VDE$IMOVE_BY_POSITIONS File=VDE$INTERPRET.:VDA5TSI            FRI 07/04/97 11:12 Page:304
         0 000006   200011 471500                    LDP1    @FOUND,,AUTO
         0 000007   100000 756100                    STQ     0,,PR1

     2606     2877    1           NB_RECORD = 0;

   2877  0 000010   200014 450100                    STZ     NB_RECORD,,AUTO

     2607     2878    1           PORT$ = STREAM.PORT$;

   2878  0 000011   200003 473500                    LDP3    @STREAM,,AUTO
         0 000012   300001 236100                    LDQ     1,,PR3
         0 000013   200015 756100                    STQ     PORT$,,AUTO

     2608     2879                /* LEVEL is # of lowest level in file structure */
     2609     2880    1           LEVEL = PORT.STRUCTURE$->VD$FILE_NODE.COUNT# - 1;

   2880  0 000014   200015 474500                    LDP4    PORT$,,AUTO
         0 000015   400006 475500                    LDP5    6,,PR4
         0 000016   500014 235100                    LDA     12,,PR5
         0 000017   000001 135007                    SBLA    1,DL
         0 000020   200013 755100                    STA     LEVEL,,AUTO

     2610     2881
     2611     2882                /*
     2612     2883                *  Position the StreamPointer to the LOC key (so
     2613     2884                *   relative and sequential reads will work),
     2614     2885                *   and set up the first record in LOC and NB_RECORD.
     2615     2886                */
     2616     2887
     2617     2888    1           CALL VDA$LREAD (STREAM, LOC, 0, %TRUE)

   2888  0 000021   000000 237000 1                  LDAQ    0
         0 000022   200030 757100                    STAQ    RCCL+4,,AUTO
         0 000023   200004 236100                    LDQ     @LOC,,AUTO
         0 000024   200003 235100                    LDA     @STREAM,,AUTO
         0 000025   200026 757100                    STAQ    RCCL+2,,AUTO
         0 000026   200026 630500                    EPPR0   RCCL+2,,AUTO
PL6.E3A0      #004=VDE$IMOVE_BY_POSITIONS File=VDE$INTERPRET.:VDA5TSI            FRI 07/04/97 11:12 Page:305
         0 000027   000022 631400 xsym               EPPR1   B_VECTNIL+18
         0 000030   000000 701000 xent               TSX1    VDA$LREAD
         0 000031   000455 702000 0                  TSX2    LREAD_FAILED

     2618     2889    1             ALTRET (LREAD_FAILED);
     2619     2890    2           IF NOT STREAM.CURRENT.EOF THEN DO;

   2890  0 000032   200003 470500                    LDP0    @STREAM,,AUTO
         0 000033   000016 236100                    LDQ     14,,PR0
         0 000034   400000 316007                    CANQ    -131072,DL
         0 000035   000121 601000 0                  TNZ     s:2919

     2620     2891                   %GETKEY (KEY=LOC.KEY, INDX=LEVEL-1, PTR=INITIAL_KEY$);

   2898  0 000036   200013 235100                    LDA     LEVEL,,AUTO
         0 000037   000001 735000                    ALS     1
         0 000040   200004 471500                    LDP1    @LOC,,AUTO
         0 000041   177776 720105                    LXL0    -2,AL,PR1
         0 000042   000002 100003                    CMPX0   2,DU
         0 000043   000050 601000 0                  TNZ     s:2898+10

   2898  0 000044   177777 473505                    LDP3    -1,AL,PR1
         0 000045   300002 634500                    EPPR4   2,,PR3
         0 000046   200016 454500                    STP4    INITIAL_KEY$,,AUTO
         0 000047   000055 710000 0                  TRA     s:2909

   2898  0 000050   200013 236100                    LDQ     LEVEL,,AUTO
         0 000051   000023 736000                    QLS     19
         0 000052   000001 136003                    SBLQ    1,DU
         0 000053   200004 036100                    ADLQ    @LOC,,AUTO
         0 000054   200016 756100                    STQ     INITIAL_KEY$,,AUTO

     2621     2901                   %GETKEY (KEY=STREAM.CURRENT.KEY, INDX=LEVEL-1,
     2622     2902                   PTR=STREAM_KEY$);

   2909  0 000055   000004 721105                    LXL1    4,AL,PR0
         0 000056   000002 101003                    CMPX1   2,DU
PL6.E3A0      #004=VDE$IMOVE_BY_POSITIONS File=VDE$INTERPRET.:VDA5TSI            FRI 07/04/97 11:12 Page:306
         0 000057   000064 601000 0                  TNZ     s:2909+7

   2909  0 000060   000005 473505                    LDP3    5,AL,PR0
         0 000061   300002 634500                    EPPR4   2,,PR3
         0 000062   200017 454500                    STP4    STREAM_KEY$,,AUTO
         0 000063   000071 710000 0                  TRA     s:2912

   2909  0 000064   200013 236100                    LDQ     LEVEL,,AUTO
         0 000065   000023 736000                    QLS     19
         0 000066   000005 036003                    ADLQ    5,DU
         0 000067   200003 036100                    ADLQ    @STREAM,,AUTO
         0 000070   200017 756100                    STQ     STREAM_KEY$,,AUTO

     2623     2912    3              IF INITIAL$KEY.BYTES = STREAM$KEY.BYTES THEN DO;

   2912  0 000071   200016 473500                    LDP3    INITIAL_KEY$,,AUTO
         0 000072   300000 236100                    LDQ     0,,PR3
         0 000073   000033 772000                    QRL     27
         0 000074   200017 474500                    LDP4    STREAM_KEY$,,AUTO
         0 000075   000000 622006                    EAX2    0,QL
         0 000076   400000 236100                    LDQ     0,,PR4
         0 000077   000033 772000                    QRL     27
         0 000100   000000 623006                    EAX3    0,QL
         0 000101   040140 106540                    CMPC    fill='040'O
         0 000102   300000 200012                    ADSC9   0,,PR3                   cn=1,n=*X2
         0 000103   400000 200013                    ADSC9   0,,PR4                   cn=1,n=*X3
         0 000104   000121 601000 0                  TNZ     s:2919

     2624     2913                      /* Record exists */
     2625     2914    3                 IF PORT.LEVEL.DATA$ (LEVEL) ~= ADDR(NIL) THEN

   2914  0 000105   200013 236100                    LDQ     LEVEL,,AUTO
         0 000106   000007 402007                    MPY     7,DL
         0 000107   200015 475500                    LDP5    PORT$,,AUTO
         0 000110   500027 236106                    LDQ     23,QL,PR5
         0 000111   000001 116000 xsym               CMPQ    B_VECTNIL+1
         0 000112   000121 600000 0                  TZE     s:2919
PL6.E3A0      #004=VDE$IMOVE_BY_POSITIONS File=VDE$INTERPRET.:VDA5TSI            FRI 07/04/97 11:12 Page:307

     2626     2915    3                    NB_RECORD = PORT.LEVEL.DATA$ (LEVEL) -> VD$BUFFER.LENGTH#;

   2915  0 000113   200013 236100                    LDQ     LEVEL,,AUTO
         0 000114   000007 402007                    MPY     7,DL
         0 000115   500027 476506                    LDP6    23,QL,PR5
         0 000116   600002 236100                    LDQ     2,,PR6
         0 000117   000022 732000                    QRS     18
         0 000120   200014 756100                    STQ     NB_RECORD,,AUTO

     2627     2916    3                 END;

     2628     2917    2              END;

     2629     2918
     2630     2919    1           IF DIRECTION = %DIR_FORWARD THEN

   2919  0 000121   200007 471500                    LDP1    @DIRECTION,,AUTO
         0 000122   000100 101500                    MRL     fill='000'O
         0 000123   100000 000002                    ADSC9   0,,PR1                   cn=0,n=2
         0 000124   200026 000004                    ADSC9   RCCL+2,,AUTO             cn=0,n=4
         0 000125   200026 236100                    LDQ     RCCL+2,,AUTO
         0 000126   000001 116007                    CMPQ    1,DL
         0 000127   000143 601000 0                  TNZ     s:2922

     2631     2920    1              NB_RECORD = MAXIMUM (NB_RECORD - LOC.POSITION#, 0);

   2920  0 000130   200004 473500                    LDP3    @LOC,,AUTO
         0 000131   300010 236100                    LDQ     8,,PR3
         0 000132   000022 732000                    QRS     18
         0 000133   200026 756100                    STQ     RCCL+2,,AUTO
         0 000134   200014 236100                    LDQ     NB_RECORD,,AUTO
         0 000135   200026 136100                    SBLQ    RCCL+2,,AUTO
         0 000136   000000 116003                    CMPQ    0,DU
         0 000137   000141 605000 0                  TPL     s:2920+9
         0 000140   000000 236003                    LDQ     0,DU
         0 000141   200014 756100                    STQ     NB_RECORD,,AUTO
PL6.E3A0      #004=VDE$IMOVE_BY_POSITIONS File=VDE$INTERPRET.:VDA5TSI            FRI 07/04/97 11:12 Page:308
         0 000142   000147 710000 0                  TRA     EACH_RECORD

     2632     2921    1           ELSE
     2633     2922    1              NB_RECORD = LOC.POSITION#;

   2922  0 000143   200004 473500                    LDP3    @LOC,,AUTO
         0 000144   300010 236100                    LDQ     8,,PR3
         0 000145   000022 732000                    QRS     18
         0 000146   200014 756100                    STQ     NB_RECORD,,AUTO

     2634     2923
     2635     2924                /*
     2636     2925                *   In the following loop, LOC specifies our
     2637     2926                *       current location (which the first time thru may be a
     2638     2927                *       non-existent (virtual) location), and NB_RECORD
     2639     2928                *       is the length of the LOC record (which the
     2640     2929                *       first time thru is just the portion of the first
     2641     2930                *       record which lay in the direction we're moving).
     2642     2931                */
     2643     2932
     2644     2933    1   EACH_RECORD:
     2645     2934    2           DO WHILE N_POS > 0;

   2934  0 000147   200012 235100       EACH_RECORD  LDA     N_POS,,AUTO
         0 000150   000454 604400 0                  TMOZ    s:3043

     2646     2935    2              CALL ONE_BOUND_CHECK (LOC)

   2935  0 000151   200004 236100                    LDQ     @LOC,,AUTO
         0 000152   200023 756100                    STQ     STREAM_KEY$+4,,AUTO
         0 000153   000456 701000 0                  TSX1    ONE_BOUND_CHECK
         0 000154   000455 702000 0                  TSX2    LREAD_FAILED

     2647     2936    2                ALTRET (ONE_BOUND_CHECK_FAILED);
     2648     2937    2              IF NOT FOUND THEN

   2937  0 000155   200011 470500                    LDP0    @FOUND,,AUTO
PL6.E3A0      #004=VDE$IMOVE_BY_POSITIONS File=VDE$INTERPRET.:VDA5TSI            FRI 07/04/97 11:12 Page:309
         0 000156   000000 234100                    SZN     0,,PR0
         0 000157   000454 605000 0                  TPL     s:3043

     2649     2938    2                 EXIT EACH_RECORD;     /* Exit loop */
     2650     2939
     2651     2940    3              IF N_POS <= NB_RECORD THEN DO;

   2940  0 000160   200012 236100                    LDQ     N_POS,,AUTO
         0 000161   200014 116100                    CMPQ    NB_RECORD,,AUTO
         0 000162   000210 605400 0                  TPNZ    s:2950

     2652     2941                      /* AHA!! Don't need to skip beyond this record! */
     2653     2942    3                 IF DIRECTION = %DIR_FORWARD THEN

   2942  0 000163   200007 471500                    LDP1    @DIRECTION,,AUTO
         0 000164   000100 101500                    MRL     fill='000'O
         0 000165   100000 000002                    ADSC9   0,,PR1                   cn=0,n=2
         0 000166   200026 000004                    ADSC9   RCCL+2,,AUTO             cn=0,n=4
         0 000167   200026 236100                    LDQ     RCCL+2,,AUTO
         0 000170   000001 116007                    CMPQ    1,DL
         0 000171   000201 601000 0                  TNZ     s:2945

     2654     2943    3                    LOC.POSITION# = LOC.POSITION# + N_POS;

   2943  0 000172   200004 473500                    LDP3    @LOC,,AUTO
         0 000173   300010 236100                    LDQ     8,,PR3
         0 000174   000022 732000                    QRS     18
         0 000175   200012 036100                    ADLQ    N_POS,,AUTO
         0 000176   000000 620006                    EAX0    0,QL
         0 000177   300010 740100                    STX0    8,,PR3
         0 000200   000207 710000 0                  TRA     s:2946

     2655     2944    3                 ELSE
     2656     2945    3                    LOC.POSITION# = LOC.POSITION# - N_POS;

   2945  0 000201   200004 473500                    LDP3    @LOC,,AUTO
         0 000202   300010 236100                    LDQ     8,,PR3
PL6.E3A0      #004=VDE$IMOVE_BY_POSITIONS File=VDE$INTERPRET.:VDA5TSI            FRI 07/04/97 11:12 Page:310
         0 000203   000022 732000                    QRS     18
         0 000204   200012 136100                    SBLQ    N_POS,,AUTO
         0 000205   000000 620006                    EAX0    0,QL
         0 000206   300010 740100                    STX0    8,,PR3

     2657     2946    3                 EXIT EACH_RECORD;     /* Exit loop */

   2946  0 000207   000454 710000 0                  TRA     s:3043

     2658     2947    3                 END;
     2659     2948
     2660     2949                   /* Skip this record */
     2661     2950    2              N_POS = N_POS - NB_RECORD;

   2950  0 000210   200014 136100                    SBLQ    NB_RECORD,,AUTO
         0 000211   200012 756100                    STQ     N_POS,,AUTO

     2662     2951    3              IF MX_RECORDS <= 0 THEN DO;

   2951  0 000212   200006 471500                    LDP1    @MX_RECORDS,,AUTO
         0 000213   100000 235100                    LDA     0,,PR1
         0 000214   000217 605400 0                  TPNZ    s:2956

     2663     2952                      /* Can't read anymore records:  hit the limit */
     2664     2953    3                 FOUND = %FALSE;

   2953  0 000215   000000 450100                    STZ     0,,PR0

     2665     2954    3                 EXIT EACH_RECORD;

   2954  0 000216   000454 710000 0                  TRA     s:3043

     2666     2955    3                 END;
     2667     2956    2              MX_RECORDS = MX_RECORDS - 1;

   2956  0 000217   000001 336007                    LCQ     1,DL
         0 000220   100000 056100                    ASQ     0,,PR1
PL6.E3A0      #004=VDE$IMOVE_BY_POSITIONS File=VDE$INTERPRET.:VDA5TSI            FRI 07/04/97 11:12 Page:311

     2668     2957
     2669     2958    3              IF DIRECTION = %DIR_FORWARD THEN DO;

   2958  0 000221   200007 473500                    LDP3    @DIRECTION,,AUTO
         0 000222   000100 101500                    MRL     fill='000'O
         0 000223   300000 000002                    ADSC9   0,,PR3                   cn=0,n=2
         0 000224   200026 000004                    ADSC9   RCCL+2,,AUTO             cn=0,n=4
         0 000225   200026 236100                    LDQ     RCCL+2,,AUTO
         0 000226   000001 116007                    CMPQ    1,DL
         0 000227   000250 601000 0                  TNZ     s:2967

     2670     2959    3                 CALL VDA$LREAD (STREAM, , 1, %TRUE)

   2959  0 000230   000002 237000 1                  LDAQ    2
         0 000231   200030 757100                    STAQ    RCCL+4,,AUTO
         0 000232   000001 236000 xsym               LDQ     B_VECTNIL+1
         0 000233   200003 235100                    LDA     @STREAM,,AUTO
         0 000234   200026 757100                    STAQ    RCCL+2,,AUTO
         0 000235   200026 630500                    EPPR0   RCCL+2,,AUTO
         0 000236   000022 631400 xsym               EPPR1   B_VECTNIL+18
         0 000237   000000 701000 xent               TSX1    VDA$LREAD
         0 000240   000455 702000 0                  TSX2    LREAD_FAILED

     2671     2960    3                   ALTRET (LREAD_FAILED);
     2672     2961    4                 IF STREAM.CURRENT.EOF THEN DO;

   2961  0 000241   200003 470500                    LDP0    @STREAM,,AUTO
         0 000242   000016 236100                    LDQ     14,,PR0
         0 000243   400000 316007                    CANQ    -131072,DL
         0 000244   000342 600000 0                  TZE     s:3011

     2673     2962    4                    FOUND = %FALSE;

   2962  0 000245   200011 471500                    LDP1    @FOUND,,AUTO
         0 000246   100000 450100                    STZ     0,,PR1

PL6.E3A0      #004=VDE$IMOVE_BY_POSITIONS File=VDE$INTERPRET.:VDA5TSI            FRI 07/04/97 11:12 Page:312
     2674     2963    4                    EXIT EACH_RECORD;    /* Exit loop */

   2963  0 000247   000454 710000 0                  TRA     s:3043

     2675     2964    4                    END;
     2676     2965    3                 END;
     2677     2966    3              ELSE DO;     /* Moving backward */

     2678     2967    3                 CALL VDA$LREAD (STREAM, , -1, %TRUE)

   2967  0 000250   000004 237000 1                  LDAQ    4
         0 000251   200030 757100                    STAQ    RCCL+4,,AUTO
         0 000252   000001 236000 xsym               LDQ     B_VECTNIL+1
         0 000253   200003 235100                    LDA     @STREAM,,AUTO
         0 000254   200026 757100                    STAQ    RCCL+2,,AUTO
         0 000255   200026 630500                    EPPR0   RCCL+2,,AUTO
         0 000256   000022 631400 xsym               EPPR1   B_VECTNIL+18
         0 000257   000000 701000 xent               TSX1    VDA$LREAD
         0 000260   000455 702000 0                  TSX2    LREAD_FAILED

     2679     2968    3                   ALTRET (LREAD_FAILED);
     2680     2969    4                 IF STREAM.CURRENT.EOF THEN DO;

   2969  0 000261   200003 470500                    LDP0    @STREAM,,AUTO
         0 000262   000016 236100                    LDQ     14,,PR0
         0 000263   400000 316007                    CANQ    -131072,DL
         0 000264   000270 600000 0                  TZE     s:2980

     2681     2970    4                    FOUND = %FALSE;

   2970  0 000265   200011 471500                    LDP1    @FOUND,,AUTO
         0 000266   100000 450100                    STZ     0,,PR1

     2682     2971    4                    EXIT EACH_RECORD;         /* Exit loop */

   2971  0 000267   000454 710000 0                  TRA     s:3043

PL6.E3A0      #004=VDE$IMOVE_BY_POSITIONS File=VDE$INTERPRET.:VDA5TSI            FRI 07/04/97 11:12 Page:313
     2683     2972    4                    END;
     2684     2973                      %GETKEY (KEY=LOC.KEY, INDX=LEVEL-1, PTR=INITIAL_KEY$);

   2980  0 000270   200013 235100                    LDA     LEVEL,,AUTO
         0 000271   000001 735000                    ALS     1
         0 000272   200004 471500                    LDP1    @LOC,,AUTO
         0 000273   177776 720105                    LXL0    -2,AL,PR1
         0 000274   000002 100003                    CMPX0   2,DU
         0 000275   000302 601000 0                  TNZ     s:2980+10

   2980  0 000276   177777 473505                    LDP3    -1,AL,PR1
         0 000277   300002 634500                    EPPR4   2,,PR3
         0 000300   200016 454500                    STP4    INITIAL_KEY$,,AUTO
         0 000301   000307 710000 0                  TRA     s:2991

   2980  0 000302   200013 236100                    LDQ     LEVEL,,AUTO
         0 000303   000023 736000                    QLS     19
         0 000304   000001 136003                    SBLQ    1,DU
         0 000305   200004 036100                    ADLQ    @LOC,,AUTO
         0 000306   200016 756100                    STQ     INITIAL_KEY$,,AUTO

     2685     2983                      %GETKEY (KEY=STREAM.CURRENT.KEY, INDX=LEVEL-1,
     2686     2984                      PTR=STREAM_KEY$);

   2991  0 000307   000004 721105                    LXL1    4,AL,PR0
         0 000310   000002 101003                    CMPX1   2,DU
         0 000311   000316 601000 0                  TNZ     s:2991+7

   2991  0 000312   000005 473505                    LDP3    5,AL,PR0
         0 000313   300002 634500                    EPPR4   2,,PR3
         0 000314   200017 454500                    STP4    STREAM_KEY$,,AUTO
         0 000315   000323 710000 0                  TRA     s:2994

   2991  0 000316   200013 236100                    LDQ     LEVEL,,AUTO
         0 000317   000023 736000                    QLS     19
         0 000320   000005 036003                    ADLQ    5,DU
         0 000321   200003 036100                    ADLQ    @STREAM,,AUTO
PL6.E3A0      #004=VDE$IMOVE_BY_POSITIONS File=VDE$INTERPRET.:VDA5TSI            FRI 07/04/97 11:12 Page:314
         0 000322   200017 756100                    STQ     STREAM_KEY$,,AUTO

     2687     2994    4                 IF STREAM$KEY >= INITIAL$KEY THEN DO;

   2994  0 000323   200017 473500                    LDP3    STREAM_KEY$,,AUTO
         0 000324   300000 236100                    LDQ     0,,PR3
         0 000325   000033 772000                    QRL     27
         0 000326   000001 622006                    EAX2    1,QL
         0 000327   200016 474500                    LDP4    INITIAL_KEY$,,AUTO
         0 000330   400000 236100                    LDQ     0,,PR4
         0 000331   000033 772000                    QRL     27
         0 000332   000001 623006                    EAX3    1,QL
         0 000333   000140 106540                    CMPC    fill='000'O
         0 000334   300000 000012                    ADSC9   0,,PR3                   cn=0,n=*X2
         0 000335   400000 000013                    ADSC9   0,,PR4                   cn=0,n=*X3
         0 000336   000342 602000 0                  TNC     s:3011

     2688     2995                         /*
     2689     2996                         *  If moving backward 1 record gets us a key that
     2690     2997                         *    is >= our initial key, then we hit BOF.
     2691     2998                         */
     2692     2999    4                    FOUND = %FALSE;

   2999  0 000337   200011 475500                    LDP5    @FOUND,,AUTO
         0 000340   500000 450100                    STZ     0,,PR5

     2693     3000    4                    EXIT EACH_RECORD;         /* Exit loop */

   3000  0 000341   000454 710000 0                  TRA     s:3043

     2694     3001    4                    END;
     2695     3002    3                 END;
     2696     3003
     2697     3004                   %CLEARKEY (KEY=LOC.KEY, INDX=LEVEL-1);

   3011  0 000342   200013 235100                    LDA     LEVEL,,AUTO
         0 000343   000001 735000                    ALS     1
PL6.E3A0      #004=VDE$IMOVE_BY_POSITIONS File=VDE$INTERPRET.:VDA5TSI            FRI 07/04/97 11:12 Page:315
         0 000344   200004 471500                    LDP1    @LOC,,AUTO
         0 000345   177776 720105                    LXL0    -2,AL,PR1
         0 000346   000002 100003                    CMPX0   2,DU
         0 000347   000360 601000 0                  TNZ     s:3012+1

   3011  0 000350   177777 473505                    LDP3    -1,AL,PR1
         0 000351   200026 453500                    STP3    RCCL+2,,AUTO
         0 000352   200026 630500                    EPPR0   RCCL+2,,AUTO
         0 000353   000017 631400 xsym               EPPR1   B_VECTNIL+15
         0 000354   000000 701000 xent               TSX1    VDG$OFREE
         0 000355   000357 702000 0                  TSX2    s:3012
         0 000356   000360 710000 0                  TRA     s:3012+1

   3012  0 000357   000000 702200 xent               TSX2  ! X66_AALT

   3012  0 000360   200013 235100                    LDA     LEVEL,,AUTO
         0 000361   000001 735000                    ALS     1
         0 000362   200004 470500                    LDP0    @LOC,,AUTO
         0 000363   077776 450105                    STZ     -2,AL,PR0
         0 000364   077777 450105                    STZ     -1,AL,PR0

     2698     3014                   %COPYKEY (FKEY=STREAM.CURRENT.KEY, FINDX=LEVEL-1,
     2699     3015                   TKEY=LOC.KEY, TINDX=LEVEL-1);

   3028  0 000365   200013 236100                    LDQ     LEVEL,,AUTO
         0 000366   000003 736000                    QLS     3
         0 000367   000002 735000                    ALS     2
         0 000370   200003 471500                    LDP1    @STREAM,,AUTO
         0 000371   000105 100506                    MLR     fill='000'O
         0 000372   100004 000010                    ADSC9   4,Q,PR1                  cn=0,n=8
         0 000373   077776 000010                    ADSC9   -2,A,PR0                 cn=0,n=8

   3028  0 000374   200013 235100                    LDA     LEVEL,,AUTO
         0 000375   000001 735000                    ALS     1
         0 000376   100004 720105                    LXL0    4,AL,PR1
         0 000377   000002 100003                    CMPX0   2,DU
         0 000400   000416 601000 0                  TNZ     s:3031
PL6.E3A0      #004=VDE$IMOVE_BY_POSITIONS File=VDE$INTERPRET.:VDA5TSI            FRI 07/04/97 11:12 Page:316

   3028  0 000401   100005 473505                    LDP3    5,AL,PR1
         0 000402   200013 236100                    LDQ     LEVEL,,AUTO
         0 000403   000023 736000                    QLS     19
         0 000404   000001 136003                    SBLQ    1,DU
         0 000405   200004 036100                    ADLQ    @LOC,,AUTO
         0 000406   200027 756100                    STQ     RCCL+3,,AUTO
         0 000407   200026 453500                    STP3    RCCL+2,,AUTO
         0 000410   200026 630500                    EPPR0   RCCL+2,,AUTO
         0 000411   000020 631400 xsym               EPPR1   B_VECTNIL+16
         0 000412   000000 701000 xent               TSX1    VDG$OCOPY
         0 000413   000415 702000 0                  TSX2    s:3029
         0 000414   000416 710000 0                  TRA     s:3031

   3029  0 000415   000000 702200 xent               TSX2  ! X66_AALT

     2700     3031    2              IF PORT.LEVEL.DATA$ (LEVEL) = ADDR(NIL) THEN

   3031  0 000416   200013 236100                    LDQ     LEVEL,,AUTO
         0 000417   000007 402007                    MPY     7,DL
         0 000420   200015 470500                    LDP0    PORT$,,AUTO
         0 000421   000027 236106                    LDQ     23,QL,PR0
         0 000422   000001 116000 xsym               CMPQ    B_VECTNIL+1
         0 000423   000426 601000 0                  TNZ     s:3034

     2701     3032    2                 NB_RECORD = 0;

   3032  0 000424   200014 450100                    STZ     NB_RECORD,,AUTO
         0 000425   000434 710000 0                  TRA     s:3036

     2702     3033    2              ELSE
     2703     3034    2                 NB_RECORD = PORT.LEVEL.DATA$ (LEVEL) -> VD$BUFFER.LENGTH#;

   3034  0 000426   200013 236100                    LDQ     LEVEL,,AUTO
         0 000427   000007 402007                    MPY     7,DL
         0 000430   000027 471506                    LDP1    23,QL,PR0
         0 000431   100002 236100                    LDQ     2,,PR1
PL6.E3A0      #004=VDE$IMOVE_BY_POSITIONS File=VDE$INTERPRET.:VDA5TSI            FRI 07/04/97 11:12 Page:317
         0 000432   000022 732000                    QRS     18
         0 000433   200014 756100                    STQ     NB_RECORD,,AUTO

     2704     3035
     2705     3036    2              IF DIRECTION = %DIR_FORWARD THEN

   3036  0 000434   200007 471500                    LDP1    @DIRECTION,,AUTO
         0 000435   000100 101500                    MRL     fill='000'O
         0 000436   100000 000002                    ADSC9   0,,PR1                   cn=0,n=2
         0 000437   200026 000004                    ADSC9   RCCL+2,,AUTO             cn=0,n=4
         0 000440   200026 236100                    LDQ     RCCL+2,,AUTO
         0 000441   000001 116007                    CMPQ    1,DL
         0 000442   000447 601000 0                  TNZ     s:3039

     2706     3037    2                 LOC.POSITION# = 0;

   3037  0 000443   000000 220003                    LDX0    0,DU
         0 000444   200004 473500                    LDP3    @LOC,,AUTO
         0 000445   300010 740100                    STX0    8,,PR3
         0 000446   000452 710000 0                  TRA     s:3040

     2707     3038    2              ELSE
     2708     3039    2                 LOC.POSITION# = NB_RECORD;

   3039  0 000447   200014 720100                    LXL0    NB_RECORD,,AUTO
         0 000450   200004 473500                    LDP3    @LOC,,AUTO
         0 000451   300010 740100                    STX0    8,,PR3

     2709     3040    2              END EACH_RECORD;

   3040  0 000452   200012 235100                    LDA     N_POS,,AUTO
         0 000453   000151 605400 0                  TPNZ    s:2935

     2710     3041
     2711     3042
     2712     3043    1           RETURN;

PL6.E3A0      #004=VDE$IMOVE_BY_POSITIONS File=VDE$INTERPRET.:VDA5TSI            FRI 07/04/97 11:12 Page:318
   3043  0 000454   000000 702200 xent               TSX2  ! X66_ARET

   3031  0 000455                       LREAD_FAILED null
     2713     3044
     2714     3045
     2715     3046
     2716     3047    1   LREAD_FAILED: ;
     2717     3048    1   ONE_BOUND_CHECK_FAILED: ;

   3048  0 000455                       ONE_BOUND_C* null
     2718     3049    1           ALTRETURN;

   3049  0 000455   000000 702200 xent               TSX2  ! X66_AALT

     2719     3050
     2720     3051
     2721     3052                %BOX (TITLE="ONE_BOUND_CHECK");

              3064    1   /***************************************************************************
              3066    1    *                                                                         *
              3070    1            *                              ONE_BOUND_CHECK                           *
              3072    1            *                                                                        *
              3074    1          ***************************************************************************/

     2722     3078
     2723     3079    1   ONE_BOUND_CHECK: PROC (LOC) ALTRET;

   3079  0 000456   200022 741300       ONE_BOUND_C* STX1  ! STREAM_KEY$+3,,AUTO

     2724     3080
     2725     3081        %VD$LOCATION (NAME=LOC, STCLASS=PARAM);
     2726     3109
     2727     3110
     2728     3111    2   DCL RCCL SBIN;
     2729     3112
     2730     3113
     2731     3114    2           CALL VDG$COMPARE_LOCS (LOC, ENCLOSING.START, RCCL)
PL6.E3A0      #004=VDE$IMOVE_BY_POSITIONS File=VDE$INTERPRET.:VDA5TSI            FRI 07/04/97 11:12 Page:319

   3114  0 000457   200024 630500                    EPPR0   RCCL,,AUTO
         0 000460   200030 450500                    STP0    RCCL+4,,AUTO
         0 000461   200005 236100                    LDQ     @ENCLOSING,,AUTO
         0 000462   200023 235100                    LDA     @LOC,,AUTO
         0 000463   200026 757100                    STAQ    RCCL+2,,AUTO
         0 000464   200026 630500                    EPPR0   RCCL+2,,AUTO
         0 000465   000021 631400 xsym               EPPR1   B_VECTNIL+17
         0 000466   000000 701000 xent               TSX1    VDG$COMPARE_LOCS
         0 000467   000520 702000 0                  TSX2    COMPARE_LOCS_FAILED

     2732     3115    2             ALTRET (COMPARE_LOCS_FAILED);
     2733     3116    3           IF RCCL < %RCCL_EQUAL THEN DO;

   3116  0 000470   200024 235100                    LDA     RCCL,,AUTO
         0 000471   000476 605000 0                  TPL     s:3121

     2734     3117    3              FOUND = %FALSE;

   3117  0 000472   200011 470500                    LDP0    @FOUND,,AUTO
         0 000473   000000 450100                    STZ     0,,PR0

     2735     3118    3              RETURN;

   3118  0 000474   200022 221300                    LDX1  ! STREAM_KEY$+3,,AUTO
         0 000475   000001 702211                    TSX2  ! 1,X1

     2736     3119    3              END;
     2737     3120
     2738     3121    2           CALL VDG$COMPARE_LOCS (LOC, ENCLOSING.ENDD, RCCL)

   3121  0 000476   200024 630500                    EPPR0   RCCL,,AUTO
         0 000477   200030 450500                    STP0    RCCL+4,,AUTO
         0 000500   200005 236100                    LDQ     @ENCLOSING,,AUTO
         0 000501   000011 036003                    ADLQ    9,DU
         0 000502   200023 235100                    LDA     @LOC,,AUTO
         0 000503   200026 757100                    STAQ    RCCL+2,,AUTO
PL6.E3A0      #004=VDE$IMOVE_BY_POSITIONS File=VDE$INTERPRET.:VDA5TSI            FRI 07/04/97 11:12 Page:320
         0 000504   200026 630500                    EPPR0   RCCL+2,,AUTO
         0 000505   000021 631400 xsym               EPPR1   B_VECTNIL+17
         0 000506   000000 701000 xent               TSX1    VDG$COMPARE_LOCS
         0 000507   000520 702000 0                  TSX2    COMPARE_LOCS_FAILED

     2739     3122    2             ALTRET (COMPARE_LOCS_FAILED);
     2740     3123    3           IF RCCL >= %RCCL_EQUAL THEN DO;

   3123  0 000510   200024 235100                    LDA     RCCL,,AUTO
         0 000511   000516 604000 0                  TMI     s:3128

     2741     3124    3              FOUND = %FALSE;

   3124  0 000512   200011 470500                    LDP0    @FOUND,,AUTO
         0 000513   000000 450100                    STZ     0,,PR0

     2742     3125    3              RETURN;

   3125  0 000514   200022 221300                    LDX1  ! STREAM_KEY$+3,,AUTO
         0 000515   000001 702211                    TSX2  ! 1,X1

     2743     3126    3              END;
     2744     3127
     2745     3128    2           RETURN;

   3128  0 000516   200022 221300                    LDX1  ! STREAM_KEY$+3,,AUTO
         0 000517   000001 702211                    TSX2  ! 1,X1

   3123  0 000520                       COMPARE_LOC* null
     2746     3129
     2747     3130
     2748     3131    2   COMPARE_LOCS_FAILED: ;
     2749     3132    2           ALTRETURN;

   3132  0 000520   200022 221300                    LDX1  ! STREAM_KEY$+3,,AUTO
         0 000521   000000 702211                    TSX2  ! 0,X1
     2750     3133
PL6.E3A0      #004=VDE$IMOVE_BY_POSITIONS File=VDE$INTERPRET.:VDA5TSI            FRI 07/04/97 11:12 Page:321
     2751     3134    2   END ONE_BOUND_CHECK;
     2752     3135
     2753     3136    1   END VDE$IMOVE_BY_POSITIONS;
     2754     3137        %EOD;

PL6.E3A0      #004=VDE$IMOVE_BY_POSITIONS File=VDE$INTERPRET.:VDA5TSI            FRI 07/04/97 11:12 Page:322
--  Include file information  --

   VD_MACROS_M.:VDA5TOU  is referenced.
   B$JIT_C.:E04TOU  was found in the system file and is never referenced.
   CP_6_C.:E04TOU  was found in the system file and is never referenced.
      No diagnostics issued in procedure VDE$IMOVE_BY_POSITIONS.
PL6.E3A0      #004=VDE$IMOVE_BY_POSITIONS File=VDE$INTERPRET.:VDA5TSI            FRI 07/04/97 11:12 Page:323

 **** Variables and constants ****

  ****  Auto variables  ****

  ****  Scalars and arrays  ****
OctLoc.c.b A Datatyp(siz) R M Lvl/name                 OctLoc.c.b A Datatyp(siz) R M Lvl/name

     7-0-0/w PTR         r     1 @DIRECTION                 5-0-0/w PTR         r     1 @ENCLOSING
    11-0-0/w PTR         r     1 @FOUND                     4-0-0/w PTR         r     1 @LOC
    23-0-0/w PTR         r     1 @LOC                       6-0-0/w PTR         r     1 @MX_RECORDS
    10-0-0/w PTR         r     1 @N_POSITIONS               3-0-0/w PTR         r     1 @STREAM
    *0-0-0/h UBIN(18)    r     1 DIRECTION                 *0-0-0/w STRC(648)   r     1 ENCLOSING
    *0-0-0/w BIT         r     1 FOUND                     16-0-0/w PTR         r     1 INITIAL_KEY$
    13-0-0/w SBIN        r     1 LEVEL                     *0-0-0/w STRC(324)   r     1 LOC
    *0-0-0/w STRC(324)   r     1 LOC                       *0-0-0/w SBIN        r     1 MX_RECORDS
    14-0-0/w SBIN        r     1 NB_RECORD                 12-0-0/w SBIN        r     1 N_POS
    *0-0-0/w SBIN        r     1 N_POSITIONS               15-0-0/w PTR         r     1 PORT$
    24-0-0/w SBIN        r     1 RCCL                      *0-0-0/w STRC(864)   r     1 STREAM
    17-0-0/w PTR         r     1 STREAM_KEY$

  ****  BASED and DCB variables  ****

  ****  Scalars and arrays  ****
OctLoc.c.b A Datatyp(siz) R M Lvl/name                 OctLoc.c.b A Datatyp(siz) R M Lvl/name

     0-0-0/w ASTR(9)     r     1 INITIAL$KEY                0-0-0/w STRC(1944)  r     1 PORT
     0-0-0/w ASTR(9)     r     1 STREAM$KEY                 0-0-0/w ASTR(90)    r     1 VD$BUFFER
     0-0-0/w STRC(468)   r     1 VD$FILE_NODE               0-0-0/w ASTR(81)    r     1 VD$TEXTC_REMOTE


   Procedure VDE$IMOVE_BY_POSITIONS requires 338 words for executable code.
   Procedure VDE$IMOVE_BY_POSITIONS requires 26 words of local(AUTO) storage.
PL6.E3A0      #004=VDE$IMOVE_BY_POSITIONS File=VDE$INTERPRET.:VDA5TSI            FRI 07/04/97 11:12 Page:324
          *** CROSS REFERENCE LISTING ***
**     DENOTES     IDENTIFIER DEFINITION
<<                 IDENTIFIER'S VALUE SET
>>                 IDENTIFIER'S VALUE USED
<>                 IDENTIFIER SET AND/OR USED
--                 IDENTIFIER REFERENCED
PL6.E3A0      #004=VDE$IMOVE_BY_POSITIONS File=VDE$INTERPRET.:VDA5TSI            FRI 07/04/97 11:12 Page:325
          MINI XREF LISTING

COMPARE_LOCS_FAILED IN PROCEDURE ONE_BOUND_CHECK
      3123**LABEL    3114--CALLALT  3121--CALLALT
DIRECTION
      2483**DCL        59--PROC     2919>>IF       2942>>IF       2958>>IF       3036>>IF
EACH_RECORD
      2934**LABEL    2938--EXIT     2946--EXIT     2954--EXIT     2963--EXIT     2971--EXIT     3000--EXIT
ENCLOSING
      2421**DCL        59--PROC
ENCLOSING.ENDD
      2463**DCL      3121<>CALL
ENCLOSING.START
      2435**DCL      3114<>CALL
FOUND
      2485**DCL        59--PROC     2876<<ASSIGN   2937>>IF       2953<<ASSIGN   2962<<ASSIGN   2970<<ASSIGN
      2999<<ASSIGN   3117<<ASSIGN   3124<<ASSIGN
INITIAL$KEY
      2622**DCL      2994>>IF
INITIAL$KEY.BYTES
      2632**DCL      2912>>IF
INITIAL$KEY.LENGTH#
      2630**DCL      2632--IMP-SIZ  2912>>IF       2994>>IF
INITIAL_KEY$
      2498**DCL      2622--IMP-PTR  2898<<ASSIGN   2898<<ASSIGN   2912>>IF       2912>>IF       2980<<ASSIGN
      2980<<ASSIGN   2994>>IF       2994>>IF
LEVEL
      2495**DCL      2880<<ASSIGN   2898>>IF       2898>>ASSIGN   2898>>ASSIGN   2909>>IF       2909>>ASSIGN
      2909>>ASSIGN   2914>>IF       2915>>ASSIGN   2980>>IF       2980>>ASSIGN   2980>>ASSIGN   2991>>IF
      2991>>ASSIGN   2991>>ASSIGN   3011>>IF       3011>>CALL     3011>>CALL     3012>>ASSIGN   3028>>ASSIGN
      3028>>ASSIGN   3028>>IF       3028>>CALL     3028>>CALL     3028>>CALL     3031>>IF       3034>>ASSIGN
LOC
      2393**DCL        59--PROC     2888<>CALL     2935<>CALL
LOC.KEY
PL6.E3A0      #004=VDE$IMOVE_BY_POSITIONS File=VDE$INTERPRET.:VDA5TSI            FRI 07/04/97 11:12 Page:326
      2407**DCL      3012<<ASSIGN   3028<<ASSIGN
LOC.KEY.REP#
      2409**DCL      2898>>IF       2980>>IF       3011>>IF
LOC.KEY.V$
      2409**DCL      2898>>ASSIGN   2898--ASSIGN   2980>>ASSIGN   2980--ASSIGN   3011>>CALL     3011>>CALL
      3028<>CALL
LOC.POSITION#
      2411**DCL      2920>>ASSIGN   2922>>ASSIGN   2943<<ASSIGN   2943>>ASSIGN   2945<<ASSIGN   2945>>ASSIGN
      3037<<ASSIGN   3039<<ASSIGN
LOC IN PROCEDURE ONE_BOUND_CHECK
      3089**DCL      3079--PROC     3114<>CALL     3121<>CALL
LREAD_FAILED
      3031**LABEL    2888--CALLALT  2959--CALLALT  2967--CALLALT
MX_RECORDS
      2482**DCL        59--PROC     2951>>IF       2956<<ASSIGN   2956>>ASSIGN
NB_RECORD
      2496**DCL      2877<<ASSIGN   2915<<ASSIGN   2920<<ASSIGN   2920>>ASSIGN   2922<<ASSIGN   2940>>IF
      2950>>ASSIGN   3032<<ASSIGN   3034<<ASSIGN   3039>>ASSIGN
N_POS
      2494**DCL      2875<<ASSIGN   2934>>DOWHILE  2940>>IF       2943>>ASSIGN   2945>>ASSIGN   2950<<ASSIGN
      2950>>ASSIGN
N_POSITIONS
      2484**DCL        59--PROC     2875>>ASSIGN
ONE_BOUND_CHECK
      3079**PROC     2935--CALL
ONE_BOUND_CHECK_FAILED
      3048**LABEL    2935--CALLALT
PORT.LEVEL.DATA$
      2611**DCL      2914>>IF       2915>>ASSIGN   3031>>IF       3034>>ASSIGN
PORT.STRUCTURE$
      2552**DCL      2880>>ASSIGN
PORT$
      2497**DCL      2524--IMP-PTR  2878<<ASSIGN   2880>>ASSIGN   2914>>IF       2915>>ASSIGN   3031>>IF
      3034>>ASSIGN
RCCL IN PROCEDURE ONE_BOUND_CHECK
      3111**DCL      3114<>CALL     3116>>IF       3121<>CALL     3123>>IF
PL6.E3A0      #004=VDE$IMOVE_BY_POSITIONS File=VDE$INTERPRET.:VDA5TSI            FRI 07/04/97 11:12 Page:327
STREAM
      2287**DCL        59--PROC     2888<>CALL     2959<>CALL     2967<>CALL
STREAM.CURRENT.EOF
      2354**DCL      2890>>IF       2961>>IF       2969>>IF
STREAM.CURRENT.KEY
      2350**DCL      3028>>ASSIGN
STREAM.CURRENT.KEY.REP#
      2352**DCL      2909>>IF       2991>>IF       3028>>IF
STREAM.CURRENT.KEY.V$
      2352**DCL      2909>>ASSIGN   2909--ASSIGN   2991>>ASSIGN   2991--ASSIGN   3028>>CALL     3028>>CALL
STREAM.PORT$
      2313**DCL      2878>>ASSIGN
STREAM$KEY
      2645**DCL      2994>>IF
STREAM$KEY.BYTES
      2655**DCL      2912>>IF
STREAM$KEY.LENGTH#
      2653**DCL      2655--IMP-SIZ  2912>>IF       2994>>IF
STREAM_KEY$
      2499**DCL      2645--IMP-PTR  2909<<ASSIGN   2909<<ASSIGN   2912>>IF       2912>>IF       2991<<ASSIGN
      2991<<ASSIGN   2994>>IF       2994>>IF
VD$BUFFER.LENGTH#
      2804**DCL      2806--IMP-SIZ  2915>>ASSIGN   3034>>ASSIGN
VD$FILE_NODE.COUNT#
      2751**DCL      2880>>ASSIGN
VD$TEXTC_REMOTE
      2836**DCL      3011<>CALL     3028<>CALL
VD$TEXTC_REMOTE.LENGTH#
      2865**DCL      2867--IMP-SIZ  2898--ASSIGN   2909--ASSIGN   2980--ASSIGN   2991--ASSIGN   3011>>CALL
      3028>>CALL
VDA$LREAD
      2488**DCL-ENT  2888--CALL     2959--CALL     2967--CALL
VDG$COMPARE_LOCS
      2489**DCL-ENT  3114--CALL     3121--CALL
VDG$OCOPY
      2490**DCL-ENT  3028--CALL
PL6.E3A0      #004=VDE$IMOVE_BY_POSITIONS File=VDE$INTERPRET.:VDA5TSI            FRI 07/04/97 11:12 Page:328
VDG$OFREE
      2491**DCL-ENT  3011--CALL

PL6.E3A0      #005=VDE$IGUAR_RANGE_IN_RANGE File=VDE$INTERPRET.:VDA5TSI          FRI 07/04/97 11:12 Page:329
     2755        1        /*T***********************************************************/
     2756        2        /*T*                                                         */
     2757        3        /*T* Copyright (c) Bull HN Information Systems Inc., 1997    */
     2758        4        /*T*                                                         */
     2759        5        /*T***********************************************************/
     2760        6
     2761        7        /*D* NAME:  VDE$IGUAR_RANGE_IN_RANGE
     2762        8            PARAMETERS:
     2763        9                RANGE - The VD$RANGE to check.
     2764       10                LIMITS - The VD$RANGE to check RANGE against.
     2765       11                TRUNCATED - Uninitialized BIT(1) ALIGNED.
     2766       12                COMPLETELY_OUTSIDE - Uninitialized BIT(1) ALIGNED.
     2767       13            INPUT:
     2768       14                None.
     2769       15            OUTPUT:
     2770       16                RANGE may be modified to be within LIMITS' bounds.
     2771       17                If RANGE must be truncated to lie within LIMITS (that is, if
     2772       18                    some part of RANGE's range lies within LIMITS but not all
     2773       19                    of it), TRUNCATED will be set.
     2774       20                If RANGE specifies a range which lies completely outside
     2775       21                    the LIMITS range, COMPLETELY_OUTSIDE will be set.
     2776       22            DESCRIPTION:
     2777       23                Compare RANGE's bounds against LIMITS's bounds.
     2778       24                If any part (but not all) of the RANGE area lies outside
     2779       25                    LIMITS, then adjust the RANGE bounds so that it lies
     2780       26                    entirely within LIMITS, and return TRUNCATED set.
     2781       27                If all of the RANGE area lies outside LIMITS, then return
     2782       28                    COMPLETELY_OUTSIDE set, without adjusting RANGE.
     2783       29        */
     2784       30
     2785       31        VDE$IGUAR_RANGE_IN_RANGE: PROC (RANGE, LIMITS, TRUNCATED,
     2786       32                  COMPLETELY_OUTSIDE) ALTRET;
     2787       33
     2788       34
     2789       35        %INCLUDE VD_MACROS_M;
     2790     2250        %INCLUDE VD_PERR_C;
     2791     2398
PL6.E3A0      #005=VDE$IGUAR_RANGE_IN_RANGE File=VDE$INTERPRET.:VDA5TSI          FRI 07/04/97 11:12 Page:330
     2792     2399
     2793     2400        %VD$RANGE (NAME=RANGE, STCLASS=PARAM);
     2794     2469        %VD$RANGE (NAME=LIMITS, STCLASS=PARAM);
     2795     2538    1   DCL TRUNCATED BIT(1) ALIGNED;
     2796     2539    1   DCL COMPLETELY_OUTSIDE BIT(1) ALIGNED;
     2797     2540
     2798     2541
     2799     2542    1   DCL VDG$COMPARE_LOCS    ENTRY (3) ALTRET;
     2800     2543    1   DCL VDG$OCLEAR_LOCATION ENTRY (1) ALTRET;
     2801     2544    1   DCL VDG$OCOPY_LOCATION  ENTRY (2) ALTRET;
     2802     2545
     2803     2546
     2804     2547
     2805     2548    1   DCL RCCL SBIN;
     2806     2549
     2807     2550
     2808     2551
     2809     2552    1           TRUNCATED = %FALSE;
     2810     2553    1           COMPLETELY_OUTSIDE = %FALSE;
     2811     2554
     2812     2555    1           CALL VDG$COMPARE_LOCS (RANGE.START, LIMITS.START, RCCL)
     2813     2556    1             ALTRET (COMPARE_LOCS_FAILED);
     2814     2557    2           IF RCCL < %RCCL_EQUAL THEN DO;
     2815     2558    2              CALL VDG$COMPARE_LOCS (RANGE.ENDD, LIMITS.START, RCCL)
     2816     2559    2                ALTRET (COMPARE_LOCS_FAILED);
     2817     2560    3              IF RCCL <= %RCCL_EQUAL THEN DO;
     2818     2561                      /*
     2819     2562                      *  We're completely outside if RANGE.ENDD =< LIMITS.START.
     2820     2563                      *  The "=" part of the test was added for the following
     2821     2564                      *     test case:
     2822     2565                      *         ED 5; ED 4 TH 6
     2823     2566                      *  The evaluation of the "4" was succeeding because
     2824     2567                      *     RANGE was 4,0 - 5,0 and LIMITS was 5,0 - 6,0,
     2825     2568                      *     and RANGE.ENDD = LIMITS.START.  For this case,
     2826     2569                      *     this should be treated as COMPLETELY_OUTSIDE.
     2827     2570                      *  Tentative, tho (as of 10/84); other cases may require
     2828     2571                      *     different behaviour??
PL6.E3A0      #005=VDE$IGUAR_RANGE_IN_RANGE File=VDE$INTERPRET.:VDA5TSI          FRI 07/04/97 11:12 Page:331
     2829     2572                      */
     2830     2573    3                 COMPLETELY_OUTSIDE = %TRUE;
     2831     2574    3                 RETURN;
     2832     2575    3                 END;
     2833     2576    2              TRUNCATED = %TRUE;
     2834     2577    2              CALL VDG$OCLEAR_LOCATION (RANGE.START)
     2835     2578    2                ALTRET (OCLEAR_LOCATION_FAILED);
     2836     2579    2              CALL VDG$OCOPY_LOCATION (LIMITS.START, RANGE.START)
     2837     2580    2                ALTRET (OCOPY_LOCATION_FAILED);
     2838     2581    2              END;
     2839     2582
     2840     2583    1           CALL VDG$COMPARE_LOCS (RANGE.ENDD, LIMITS.ENDD, RCCL)
     2841     2584    1             ALTRET (COMPARE_LOCS_FAILED);
     2842     2585    2           IF RCCL > %RCCL_EQUAL THEN DO;
     2843     2586    2              CALL VDG$COMPARE_LOCS (RANGE.START, LIMITS.ENDD, RCCL)
     2844     2587    2                ALTRET (COMPARE_LOCS_FAILED);
     2845     2588    3              IF RCCL >= %RCCL_EQUAL THEN DO;
     2846     2589    3                 COMPLETELY_OUTSIDE = %TRUE;
     2847     2590    3                 RETURN;
     2848     2591    3                 END;
     2849     2592    2              TRUNCATED = %TRUE;
     2850     2593    2              CALL VDG$OCLEAR_LOCATION (RANGE.ENDD)
     2851     2594    2                ALTRET (OCLEAR_LOCATION_FAILED);
     2852     2595    2              CALL VDG$OCOPY_LOCATION (LIMITS.ENDD, RANGE.ENDD)
     2853     2596    2                ALTRET (OCOPY_LOCATION_FAILED);
     2854     2597    2              END;
     2855     2598
     2856     2599    1           RETURN;
     2857     2600
     2858     2601
     2859     2602    1   COMPARE_LOCS_FAILED: ;
     2860     2603    1   OCLEAR_LOCATION_FAILED: ;
     2861     2604    1   OCOPY_LOCATION_FAILED: ;
     2862     2605    1           ALTRETURN;
     2863     2606
     2864     2607    1   END VDE$IGUAR_RANGE_IN_RANGE;

PL6.E3A0      #005=VDE$IGUAR_RANGE_IN_RANGE File=VDE$INTERPRET.:VDA5TSI          FRI 07/04/97 11:12 Page:332
--  Include file information  --

   VD_PERR_C.:VDA5TOU  is referenced.
   VD_MACROS_M.:VDA5TOU  is referenced.
   B$JIT_C.:E04TOU  was found in the system file and is never referenced.
   CP_6_C.:E04TOU  was found in the system file and is never referenced.
      No diagnostics issued in procedure VDE$IGUAR_RANGE_IN_RANGE.

   Procedure VDE$IGUAR_RANGE_IN_RANGE requires 100 words for executable code.
   Procedure VDE$IGUAR_RANGE_IN_RANGE requires 12 words of local(AUTO) storage.

    No errors detected in file VDE$INTERPRET.:VDA5TSI    .

PL6.E3A0      #005=VDE$IGUAR_RANGE_IN_RANGE File=VDE$INTERPRET.:VDA5TSI          FRI 07/04/97 11:12 Page:333

 Object Unit name= VDE$IGUAR_RANGE_IN_RANGE                   File name= VDE$INTERPRET.:VDA5TOU
 UTS= JUL 04 '97 11:12:33.12 FRI                              Compiler= PL-6/E31         Sev=      00
 SharedLib= :SHARED_SYSTEM                                    Alt SharedLib=


    ****  Control sections  ****

 Sect   Type Bound  Init  Size OctSiz  Section name(segment info)
    0   Proc  even  none   100    144  VDE$IGUAR_RANGE_IN_RANGE

    ****  Entry defs  ****

                              Check   Calling
                             calling  sequence
  Sect OctLoc Primary Altret sequence   type   Parms  Name
     0      0   yes    yes     yes      Std        4  VDE$IGUAR_RANGE_IN_RANGE

  ****  Entry refs  ****

         Check        Calling
        calling       sequence
Altret sequence SRef   type   Args  Name
 yes     yes           Std       3 VDG$COMPARE_LOCS
 yes     yes           Std       1 VDG$OCLEAR_LOCATION
 yes     yes           Std       2 VDG$OCOPY_LOCATION
                       nStd      0 X66_AUTO_4
                       Std       0 B_CONSPOOL_D
                       nStd      0 X66_ARET
                       nStd      0 X66_AALT

  ****  Data refs  ****

  Flags:  r = read only, s = secondary
Flgs Name                             Flgs Name                             Flgs Name
     B_VECTNIL
PL6.E3A0      #005=VDE$IGUAR_RANGE_IN_RANGE File=VDE$INTERPRET.:VDA5TSI          FRI 07/04/97 11:12 Page:334


     2755        1        /*T***********************************************************/
     2756        2        /*T*                                                         */
     2757        3        /*T* Copyright (c) Bull HN Information Systems Inc., 1997    */
     2758        4        /*T*                                                         */
     2759        5        /*T***********************************************************/
     2760        6
     2761        7        /*D* NAME:  VDE$IGUAR_RANGE_IN_RANGE
     2762        8            PARAMETERS:
     2763        9                RANGE - The VD$RANGE to check.
     2764       10                LIMITS - The VD$RANGE to check RANGE against.
     2765       11                TRUNCATED - Uninitialized BIT(1) ALIGNED.
     2766       12                COMPLETELY_OUTSIDE - Uninitialized BIT(1) ALIGNED.
     2767       13            INPUT:
     2768       14                None.
     2769       15            OUTPUT:
     2770       16                RANGE may be modified to be within LIMITS' bounds.
     2771       17                If RANGE must be truncated to lie within LIMITS (that is, if
     2772       18                    some part of RANGE's range lies within LIMITS but not all
     2773       19                    of it), TRUNCATED will be set.
     2774       20                If RANGE specifies a range which lies completely outside
     2775       21                    the LIMITS range, COMPLETELY_OUTSIDE will be set.
     2776       22            DESCRIPTION:
     2777       23                Compare RANGE's bounds against LIMITS's bounds.
     2778       24                If any part (but not all) of the RANGE area lies outside
     2779       25                    LIMITS, then adjust the RANGE bounds so that it lies
     2780       26                    entirely within LIMITS, and return TRUNCATED set.
     2781       27                If all of the RANGE area lies outside LIMITS, then return
     2782       28                    COMPLETELY_OUTSIDE set, without adjusting RANGE.
     2783       29        */
     2784       30
     2785       31        VDE$IGUAR_RANGE_IN_RANGE: PROC (RANGE, LIMITS, TRUNCATED,

     31  0 000000   000000 700200 xent  VDE$IGUAR_R* TSX0  ! X66_AUTO_4
         0 000001   000014 000004                    ZERO    12,4

     2786       32                  COMPLETELY_OUTSIDE) ALTRET;
PL6.E3A0      #005=VDE$IGUAR_RANGE_IN_RANGE File=VDE$INTERPRET.:VDA5TSI          FRI 07/04/97 11:12 Page:335
     2787       33
     2788       34
     2789       35        %INCLUDE VD_MACROS_M;
     2790     2250        %INCLUDE VD_PERR_C;
     2791     2398
     2792     2399
     2793     2400        %VD$RANGE (NAME=RANGE, STCLASS=PARAM);
     2794     2469        %VD$RANGE (NAME=LIMITS, STCLASS=PARAM);
     2795     2538    1   DCL TRUNCATED BIT(1) ALIGNED;
     2796     2539    1   DCL COMPLETELY_OUTSIDE BIT(1) ALIGNED;
     2797     2540
     2798     2541
     2799     2542    1   DCL VDG$COMPARE_LOCS    ENTRY (3) ALTRET;
     2800     2543    1   DCL VDG$OCLEAR_LOCATION ENTRY (1) ALTRET;
     2801     2544    1   DCL VDG$OCOPY_LOCATION  ENTRY (2) ALTRET;
     2802     2545
     2803     2546
     2804     2547
     2805     2548    1   DCL RCCL SBIN;
     2806     2549
     2807     2550
     2808     2551
     2809     2552    1           TRUNCATED = %FALSE;

   2552  0 000002   200005 470500                    LDP0    @TRUNCATED,,AUTO
         0 000003   000000 450100                    STZ     0,,PR0

     2810     2553    1           COMPLETELY_OUTSIDE = %FALSE;

   2553  0 000004   200006 471500                    LDP1    @COMPLETELY_OUTSIDE,,AUTO
         0 000005   100000 450100                    STZ     0,,PR1

     2811     2554
     2812     2555    1           CALL VDG$COMPARE_LOCS (RANGE.START, LIMITS.START, RCCL)

   2555  0 000006   200007 633500                    EPPR3   RCCL,,AUTO
         0 000007   200012 453500                    STP3    RCCL+3,,AUTO
PL6.E3A0      #005=VDE$IGUAR_RANGE_IN_RANGE File=VDE$INTERPRET.:VDA5TSI          FRI 07/04/97 11:12 Page:336
         0 000010   200004 236100                    LDQ     @LIMITS,,AUTO
         0 000011   200003 235100                    LDA     @RANGE,,AUTO
         0 000012   200010 757100                    STAQ    RCCL+1,,AUTO
         0 000013   200010 630500                    EPPR0   RCCL+1,,AUTO
         0 000014   000021 631400 xsym               EPPR1   B_VECTNIL+17
         0 000015   000000 701000 xent               TSX1    VDG$COMPARE_LOCS
         0 000016   000143 702000 0                  TSX2    COMPARE_LOCS_FAILED

     2813     2556    1             ALTRET (COMPARE_LOCS_FAILED);
     2814     2557    2           IF RCCL < %RCCL_EQUAL THEN DO;

   2557  0 000017   200007 235100                    LDA     RCCL,,AUTO
         0 000020   000060 605000 0                  TPL     s:2583

     2815     2558    2              CALL VDG$COMPARE_LOCS (RANGE.ENDD, LIMITS.START, RCCL)

   2558  0 000021   200007 630500                    EPPR0   RCCL,,AUTO
         0 000022   200012 450500                    STP0    RCCL+3,,AUTO
         0 000023   200004 236100                    LDQ     @LIMITS,,AUTO
         0 000024   200011 756100                    STQ     RCCL+2,,AUTO
         0 000025   200003 236100                    LDQ     @RANGE,,AUTO
         0 000026   000011 036003                    ADLQ    9,DU
         0 000027   200010 756100                    STQ     RCCL+1,,AUTO
         0 000030   200010 630500                    EPPR0   RCCL+1,,AUTO
         0 000031   000021 631400 xsym               EPPR1   B_VECTNIL+17
         0 000032   000000 701000 xent               TSX1    VDG$COMPARE_LOCS
         0 000033   000143 702000 0                  TSX2    COMPARE_LOCS_FAILED

     2816     2559    2                ALTRET (COMPARE_LOCS_FAILED);
     2817     2560    3              IF RCCL <= %RCCL_EQUAL THEN DO;

   2560  0 000034   200007 235100                    LDA     RCCL,,AUTO
         0 000035   000042 605400 0                  TPNZ    s:2576

     2818     2561                      /*
     2819     2562                      *  We're completely outside if RANGE.ENDD =< LIMITS.START.
     2820     2563                      *  The "=" part of the test was added for the following
PL6.E3A0      #005=VDE$IGUAR_RANGE_IN_RANGE File=VDE$INTERPRET.:VDA5TSI          FRI 07/04/97 11:12 Page:337
     2821     2564                      *     test case:
     2822     2565                      *         ED 5; ED 4 TH 6
     2823     2566                      *  The evaluation of the "4" was succeeding because
     2824     2567                      *     RANGE was 4,0 - 5,0 and LIMITS was 5,0 - 6,0,
     2825     2568                      *     and RANGE.ENDD = LIMITS.START.  For this case,
     2826     2569                      *     this should be treated as COMPLETELY_OUTSIDE.
     2827     2570                      *  Tentative, tho (as of 10/84); other cases may require
     2828     2571                      *     different behaviour??
     2829     2572                      */
     2830     2573    3                 COMPLETELY_OUTSIDE = %TRUE;

   2573  0 000036   400000 236003                    LDQ     -131072,DU
         0 000037   200006 470500                    LDP0    @COMPLETELY_OUTSIDE,,AUTO
         0 000040   000000 756100                    STQ     0,,PR0

     2831     2574    3                 RETURN;

   2574  0 000041   000000 702200 xent               TSX2  ! X66_ARET

     2832     2575    3                 END;
     2833     2576    2              TRUNCATED = %TRUE;

   2576  0 000042   400000 236003                    LDQ     -131072,DU
         0 000043   200005 470500                    LDP0    @TRUNCATED,,AUTO
         0 000044   000000 756100                    STQ     0,,PR0

     2834     2577    2              CALL VDG$OCLEAR_LOCATION (RANGE.START)

   2577  0 000045   200003 630500                    EPPR0   @RANGE,,AUTO
         0 000046   000017 631400 xsym               EPPR1   B_VECTNIL+15
         0 000047   000000 701000 xent               TSX1    VDG$OCLEAR_LOCATION
         0 000050   000143 702000 0                  TSX2    COMPARE_LOCS_FAILED

     2835     2578    2                ALTRET (OCLEAR_LOCATION_FAILED);
     2836     2579    2              CALL VDG$OCOPY_LOCATION (LIMITS.START, RANGE.START)

   2579  0 000051   200003 236100                    LDQ     @RANGE,,AUTO
PL6.E3A0      #005=VDE$IGUAR_RANGE_IN_RANGE File=VDE$INTERPRET.:VDA5TSI          FRI 07/04/97 11:12 Page:338
         0 000052   200004 235100                    LDA     @LIMITS,,AUTO
         0 000053   200010 757100                    STAQ    RCCL+1,,AUTO
         0 000054   200010 630500                    EPPR0   RCCL+1,,AUTO
         0 000055   000020 631400 xsym               EPPR1   B_VECTNIL+16
         0 000056   000000 701000 xent               TSX1    VDG$OCOPY_LOCATION
         0 000057   000143 702000 0                  TSX2    COMPARE_LOCS_FAILED

     2837     2580    2                ALTRET (OCOPY_LOCATION_FAILED);
     2838     2581    2              END;

     2839     2582
     2840     2583    1           CALL VDG$COMPARE_LOCS (RANGE.ENDD, LIMITS.ENDD, RCCL)

   2583  0 000060   200007 630500                    EPPR0   RCCL,,AUTO
         0 000061   200012 450500                    STP0    RCCL+3,,AUTO
         0 000062   200004 236100                    LDQ     @LIMITS,,AUTO
         0 000063   000011 036003                    ADLQ    9,DU
         0 000064   200011 756100                    STQ     RCCL+2,,AUTO
         0 000065   200003 236100                    LDQ     @RANGE,,AUTO
         0 000066   000011 036003                    ADLQ    9,DU
         0 000067   200010 756100                    STQ     RCCL+1,,AUTO
         0 000070   200010 630500                    EPPR0   RCCL+1,,AUTO
         0 000071   000021 631400 xsym               EPPR1   B_VECTNIL+17
         0 000072   000000 701000 xent               TSX1    VDG$COMPARE_LOCS
         0 000073   000143 702000 0                  TSX2    COMPARE_LOCS_FAILED

     2841     2584    1             ALTRET (COMPARE_LOCS_FAILED);
     2842     2585    2           IF RCCL > %RCCL_EQUAL THEN DO;

   2585  0 000074   200007 235100                    LDA     RCCL,,AUTO
         0 000075   000142 604400 0                  TMOZ    s:2599

     2843     2586    2              CALL VDG$COMPARE_LOCS (RANGE.START, LIMITS.ENDD, RCCL)

   2586  0 000076   200007 630500                    EPPR0   RCCL,,AUTO
         0 000077   200012 450500                    STP0    RCCL+3,,AUTO
         0 000100   200004 236100                    LDQ     @LIMITS,,AUTO
PL6.E3A0      #005=VDE$IGUAR_RANGE_IN_RANGE File=VDE$INTERPRET.:VDA5TSI          FRI 07/04/97 11:12 Page:339
         0 000101   000011 036003                    ADLQ    9,DU
         0 000102   200003 235100                    LDA     @RANGE,,AUTO
         0 000103   200010 757100                    STAQ    RCCL+1,,AUTO
         0 000104   200010 630500                    EPPR0   RCCL+1,,AUTO
         0 000105   000021 631400 xsym               EPPR1   B_VECTNIL+17
         0 000106   000000 701000 xent               TSX1    VDG$COMPARE_LOCS
         0 000107   000143 702000 0                  TSX2    COMPARE_LOCS_FAILED

     2844     2587    2                ALTRET (COMPARE_LOCS_FAILED);
     2845     2588    3              IF RCCL >= %RCCL_EQUAL THEN DO;

   2588  0 000110   200007 235100                    LDA     RCCL,,AUTO
         0 000111   000116 604000 0                  TMI     s:2592

     2846     2589    3                 COMPLETELY_OUTSIDE = %TRUE;

   2589  0 000112   400000 236003                    LDQ     -131072,DU
         0 000113   200006 470500                    LDP0    @COMPLETELY_OUTSIDE,,AUTO
         0 000114   000000 756100                    STQ     0,,PR0

     2847     2590    3                 RETURN;

   2590  0 000115   000000 702200 xent               TSX2  ! X66_ARET

     2848     2591    3                 END;
     2849     2592    2              TRUNCATED = %TRUE;

   2592  0 000116   400000 236003                    LDQ     -131072,DU
         0 000117   200005 470500                    LDP0    @TRUNCATED,,AUTO
         0 000120   000000 756100                    STQ     0,,PR0

     2850     2593    2              CALL VDG$OCLEAR_LOCATION (RANGE.ENDD)

   2593  0 000121   200003 236100                    LDQ     @RANGE,,AUTO
         0 000122   000011 036003                    ADLQ    9,DU
         0 000123   200010 756100                    STQ     RCCL+1,,AUTO
         0 000124   200010 630500                    EPPR0   RCCL+1,,AUTO
PL6.E3A0      #005=VDE$IGUAR_RANGE_IN_RANGE File=VDE$INTERPRET.:VDA5TSI          FRI 07/04/97 11:12 Page:340
         0 000125   000017 631400 xsym               EPPR1   B_VECTNIL+15
         0 000126   000000 701000 xent               TSX1    VDG$OCLEAR_LOCATION
         0 000127   000143 702000 0                  TSX2    COMPARE_LOCS_FAILED

     2851     2594    2                ALTRET (OCLEAR_LOCATION_FAILED);
     2852     2595    2              CALL VDG$OCOPY_LOCATION (LIMITS.ENDD, RANGE.ENDD)

   2595  0 000130   200003 236100                    LDQ     @RANGE,,AUTO
         0 000131   000011 036003                    ADLQ    9,DU
         0 000132   200011 756100                    STQ     RCCL+2,,AUTO
         0 000133   200004 236100                    LDQ     @LIMITS,,AUTO
         0 000134   000011 036003                    ADLQ    9,DU
         0 000135   200010 756100                    STQ     RCCL+1,,AUTO
         0 000136   200010 630500                    EPPR0   RCCL+1,,AUTO
         0 000137   000020 631400 xsym               EPPR1   B_VECTNIL+16
         0 000140   000000 701000 xent               TSX1    VDG$OCOPY_LOCATION
         0 000141   000143 702000 0                  TSX2    COMPARE_LOCS_FAILED

     2853     2596    2                ALTRET (OCOPY_LOCATION_FAILED);
     2854     2597    2              END;

     2855     2598
     2856     2599    1           RETURN;

   2599  0 000142   000000 702200 xent               TSX2  ! X66_ARET

   2594  0 000143                       COMPARE_LOC* null
   2594  0 000143                       OCLEAR_LOCA* null
   2594  0 000143                       OCOPY_LOCAT* null
     2857     2600
     2858     2601
     2859     2602    1   COMPARE_LOCS_FAILED: ;
     2860     2603    1   OCLEAR_LOCATION_FAILED: ;
     2861     2604    1   OCOPY_LOCATION_FAILED: ;
     2862     2605    1           ALTRETURN;

   2605  0 000143   000000 702200 xent               TSX2  ! X66_AALT
PL6.E3A0      #005=VDE$IGUAR_RANGE_IN_RANGE File=VDE$INTERPRET.:VDA5TSI          FRI 07/04/97 11:12 Page:341
     2863     2606
     2864     2607    1   END VDE$IGUAR_RANGE_IN_RANGE;

PL6.E3A0      #005=VDE$IGUAR_RANGE_IN_RANGE File=VDE$INTERPRET.:VDA5TSI          FRI 07/04/97 11:12 Page:342
--  Include file information  --

   VD_PERR_C.:VDA5TOU  is referenced.
   VD_MACROS_M.:VDA5TOU  is referenced.
   B$JIT_C.:E04TOU  was found in the system file and is never referenced.
   CP_6_C.:E04TOU  was found in the system file and is never referenced.
      No diagnostics issued in procedure VDE$IGUAR_RANGE_IN_RANGE.
PL6.E3A0      #005=VDE$IGUAR_RANGE_IN_RANGE File=VDE$INTERPRET.:VDA5TSI          FRI 07/04/97 11:12 Page:343

 **** Variables and constants ****

  ****  Auto variables  ****

  ****  Scalars and arrays  ****
OctLoc.c.b A Datatyp(siz) R M Lvl/name                 OctLoc.c.b A Datatyp(siz) R M Lvl/name

     6-0-0/w PTR         r     1 @COMPLETELY_OUTSIDE        4-0-0/w PTR         r     1 @LIMITS
     3-0-0/w PTR         r     1 @RANGE                     5-0-0/w PTR         r     1 @TRUNCATED
    *0-0-0/w BIT         r     1 COMPLETELY_OUTSIDE        *0-0-0/w STRC(648)   r     1 LIMITS
    *0-0-0/w STRC(648)   r     1 RANGE                      7-0-0/w SBIN        r     1 RCCL
    *0-0-0/w BIT         r     1 TRUNCATED


   Procedure VDE$IGUAR_RANGE_IN_RANGE requires 100 words for executable code.
   Procedure VDE$IGUAR_RANGE_IN_RANGE requires 12 words of local(AUTO) storage.

    No errors detected in file VDE$INTERPRET.:VDA5TSI    .
PL6.E3A0      #005=VDE$IGUAR_RANGE_IN_RANGE File=VDE$INTERPRET.:VDA5TSI          FRI 07/04/97 11:12 Page:344
          *** CROSS REFERENCE LISTING ***
**     DENOTES     IDENTIFIER DEFINITION
<<                 IDENTIFIER'S VALUE SET
>>                 IDENTIFIER'S VALUE USED
<>                 IDENTIFIER SET AND/OR USED
--                 IDENTIFIER REFERENCED
PL6.E3A0      #005=VDE$IGUAR_RANGE_IN_RANGE File=VDE$INTERPRET.:VDA5TSI          FRI 07/04/97 11:12 Page:345
          MINI XREF LISTING

COMPARE_LOCS_FAILED
      2594**LABEL    2555--CALLALT  2558--CALLALT  2583--CALLALT  2586--CALLALT
COMPLETELY_OUTSIDE
      2539**DCL        31--PROC     2553<<ASSIGN   2573<<ASSIGN   2589<<ASSIGN
LIMITS
      2477**DCL        31--PROC
LIMITS.ENDD
      2519**DCL      2583<>CALL     2586<>CALL     2595<>CALL
LIMITS.START
      2491**DCL      2555<>CALL     2558<>CALL     2579<>CALL
OCLEAR_LOCATION_FAILED
      2594**LABEL    2577--CALLALT  2593--CALLALT
OCOPY_LOCATION_FAILED
      2594**LABEL    2579--CALLALT  2595--CALLALT
RANGE
      2408**DCL        31--PROC
RANGE.ENDD
      2450**DCL      2558<>CALL     2583<>CALL     2593<>CALL     2595<>CALL
RANGE.START
      2422**DCL      2555<>CALL     2577<>CALL     2579<>CALL     2586<>CALL
RCCL
      2548**DCL      2555<>CALL     2557>>IF       2558<>CALL     2560>>IF       2583<>CALL     2585>>IF
      2586<>CALL     2588>>IF
TRUNCATED
      2538**DCL        31--PROC     2552<<ASSIGN   2576<<ASSIGN   2592<<ASSIGN
VDG$COMPARE_LOCS
      2542**DCL-ENT  2555--CALL     2558--CALL     2583--CALL     2586--CALL
VDG$OCLEAR_LOCATION
      2543**DCL-ENT  2577--CALL     2593--CALL
VDG$OCOPY_LOCATION
      2544**DCL-ENT  2579--CALL     2595--CALL
