VERSION A05

PL6.E3A0      #001=VDE$IOPEN File=VDE$INTERPRET.:VDA5TSI                         FRI 07/04/97 11:11 Page:1
        1        1        /*M* VDE$INTERPRET - Interpret a window's InTree */
        2        2        /*T***********************************************************/
        3        3        /*T*                                                         */
        4        4        /*T* Copyright (c) Bull HN Information Systems Inc., 1997    */
        5        5        /*T*                                                         */
        6        6        /*T***********************************************************/
        7        7
        8        8        /*X* MCR=NO, DMC=YES */
        9        9        /*T*/
       10       10
       11       11        /*P* NAME:  VDE$INTERPRET
       12       12            PURPOSE:  Interpret a window's InTree.
       13       13            DESCRIPTION:
       14       14                This module contains several external routines:
       15       15
       16       16                VDE$IOPEN
       17       17                Given an editing window, will initialize the window's
       18       18                evaluation stack for the first call to VDE$IRANGE, then open
       19       19                the window's stream to the InTree's domain.
       20       20
       21       21                VDE$IOPEN_SOURCE
       22       22                Version of VDE$IOPEN for opening the source operand.
       23       23                Initializes the source operand for the first call to
       24       24                VDE$IRANGE, except that it doesn't open the stream yet.
       25       25
       26       26                VDE$IRANGE
       27       27                Given an operand whose stream has already been opened to
       28       28                the operand's InTree's domain, VDE$IRANGE will evaluate the
       29       29                InTree, call the Accessor to find the
       30       30                exact record key and position within the record of the
       31       31                start and end bounds of the range, and store that info
       32       32                in the operand's .EVAL.  To perform a
       33       33                repeated operation, the caller should first open the
       34       34                operand to the InTree's domain, then call VDE$IRANGE
       35       35                repeatedly:  VDE$IRANGE will either return a false signal, or
       36       36                will return a true signal and the evaluated range of the InTree.
       37       37
PL6.E3A0      #001=VDE$IOPEN File=VDE$INTERPRET.:VDA5TSI                         FRI 07/04/97 11:11 Page:2
       38       38                VDE$IADJUST
       39       39                Given an IT_ADJUST InTree node for an operand, will
       40       40                evaluate the children of the IT_ADJUST node and return a
       41       41                spec of the location to which they move the FilePointer,
       42       42                and a signal indicating success or failure of the evaluation.
       43       43
       44       44                VDE$IMOVE_BY_POSITIONS
       45       45                Given an open stream and a number of positions to move from a
       46       46                starting location, will find the location which is that number
       47       47                of existing data-component bytes away from the starting location,
       48       48                moving either forward or backward.
       49       49
       50       50                VDE$IGUAR_RANGE_IN_RANGE
       51       51                Given two two VD$RANGEs, one representing a range to check
       52       52                and the other representing the limits against which to check
       53       53                the first range, guarantee that the first range lies within
       54       54                the second range.  Will truncate the range to make it fit,
       55       55                even to the point of yielding an empty range.
       56       56        */
       57       57
       58       58        /*D* NAME:  VDE$IOPEN
       59       59            INPUT:
       60       60                WINDOW_NODE - VD$FILE_NODE at level-1 of the Windows file
       61       61                    for the window to open.  Pointed to by VD_CURRENT_WINDOW$.
       62       62                OPERAND - VD$OPERAND to open; must be WINDOW_NODE's
       63       63                        VD$WINDOW_SPEC.OPERAND:
       64       64                    .STREAM$ must be non-NIL, tho the stream need not be
       65       65                        open yet.
       66       66                    .INTREE$ must point to a VD$IT_BLOCK_EXPR:
       67       67                        If .DOMAINN is %CLEAR, this indicates that the domain
       68       68                            of the block expression is the same as OPERAND's
       69       69                            EditBlock.  OPERAND.EDIT_BLOCK$ must not be NIL.
       70       70                            The InTree's .OPTIONS must contain only those
       71       71                            processing/access options explicitly given by
       72       72                            the user.
       73       73                        If .DOMAINN is not %CLEAR, it must specify the new
       74       74                            EditBlock for the operand.  .OPERAND.EDIT_BLOCK$
PL6.E3A0      #001=VDE$IOPEN File=VDE$INTERPRET.:VDA5TSI                         FRI 07/04/97 11:11 Page:3
       75       75                            may or may not be NIL.  The InTree's .OPTIONS must
       76       76                            contain a complete set of options, unless
       77       77                            .DOMAINN.NEXT or .PREVIOUS is set, in which case
       78       78                            only the options explicitly given by the user
       79       79                            should be set.
       80       80                    .EVAL$ may or may not be NIL.
       81       81            OUTPUT:
       82       82                If OPERAND's InTree's .DOMAINN was non-%CLEAR, an implicit
       83       83                    EDIT command will have been performed for this operand:
       84       84                    OPERAND.EDIT_BLOCK will have a new block-descriptor value.
       85       85                        However, if any errors are encountered, it will have no
       86       86                        value.
       87       87                    WINDOW_NODE's children will be mucked with:
       88       88                    If .DOMAINN.NEXT and .PREVIOUS are %FALSE, WINDOW_NODE's current
       89       89                        child (VD$WINDOW_BLOCK) will contain WINDOW_NODE's old
       90       90                        .OPERAND; also, if that .OPERAND is non-NIL, a new child will
       91       91                        be allocated for the new EditBlock.
       92       92                    If .DOMAINN.NEXT or .PREVIOUS is set, then the
       93       93                        VD$WINDOW_SPEC.CURR_INDEX# will be incremented or
       94       94                        decremented, as appropriate.
       95       95                OPERAND.EVAL$ will be initialized:
       96       96                    OPERAND.EVAL$ will not be NIL.  It's:
       97       97                    .ENCLOSING will be the range from the (possibly new)
       98       98                        EditBlock.
       99       99                    .RANGE will be either:
      100      100                        New domain:  the start boundary of the new EditBlock.
      101      101                        Old domain:  untouched (and so should be the range of
      102      102                            the last SelectedBlock).
      103      103                    .LAST_FOUND_RANGE will be cleared.
      104      104                    .NODE$ will point to the first IT_SELECT node in the
      105      105                        InTree (if any).
      106      106                    .REMAINING# will be set from that IT_SELECT node's
      107      107                        repeat-count (or 0 if no IT_SELECT node).
      108      108                OPERAND.INTREE$'s .DOMAINN will be %CLEAR.
      109      109                    Also, its .OPTIONS will be filled in, if they aren't
      110      110                    already, from the (possibly new) EditBlock's options.
      111      111            DESCRIPTION:
PL6.E3A0      #001=VDE$IOPEN File=VDE$INTERPRET.:VDA5TSI                         FRI 07/04/97 11:11 Page:4
      112      112        *N*     If .DOMAINN is %CLEAR, check the IT$BLOCK_EXPR.OPTIONS:
      113      113        *N*     if any are non-0/CLEAR/NIL (ie, explicitly given by user),
      114      114        *N*     update the current EDIT$BLOCK to reflect the change:
      115      115        *N*         If .STRUCTURE$ given, the new Structure's accessor-
      116      116        *N*             structure must be the same as the old Structure's
      117      117        *N*             accessor-structure.
      118      118        *N*         If the level or component options change and
      119      119        *N*             WINDOW_NODE is passed, tell the Presenter to
      120      120        *N*             erase the window (it'll repaint it properly on
      121      121        *N*             the next read).
      122      122        *N*         If the protect option changes, close and reopen the
      123      123        *N*             file.
      124      124        *N*         Ignore existence option changes between ANY and OLD,
      125      125        *N*             but reject an IT$BLOCK_EXPR.OPTION of NEW when
      126      126        *N*             the EDIT$BLOCK shows ANY or OLD.
      127      127                If the InTree's .DOMAINN is non-%CLEAR, then do an
      128      128                implicit EDIT command:
      129      129                    If .DOMAINN.PREVIOUS is set, save WINDOW$SPEC.OPERAND's
      130      130                        current EditBlock and evaluation stack in the
      131      131                        current WindowBlock, decrement the WindowBlock
      132      132                        index, and reload the EditBlock and evaluation
      133      133                        stack from that WindowBlock.
      134      134                    If .DOMAINN.NEXT is set, do analogous actions in the
      135      135                        forward direction.
      136      136                    Else we've got a whole new EditBlock:
      137      137                        Delete any WindowBlock's after the current one.
      138      138                        Save WINDOW$SPEC.OPERAND's current EditBlock and
      139      139                            evaluation stack in the current WindowBlock.
      140      140                        Allocate a new EditBlock, and initialize it to the InTree's
      141      141                            .DOMAINN.
      142      142                        Set WINDOW$SPEC.OPERAND.EVAL$'s .RANGE to the new EditBlock.
      143      143                        If the window's current child is occupied (ie, if the prior
      144      144                            .OPERAND was non-NIL), then write a new child to this
      145      145                            window containing the window's current EditBlock and
      146      146                            evaluation stack.
      147      147                        Else (if the window's current child is unoccupied), save the
      148      148                            window's current EditBlock and evaluation stack in the
PL6.E3A0      #001=VDE$IOPEN File=VDE$INTERPRET.:VDA5TSI                         FRI 07/04/97 11:11 Page:5
      149      149                            current child.
      150      150                    Open OPERAND's Stream to the EditBlock's file.
      151      151                Initialize OPERAND.EVAL$ for the first call to VDE$IRANGE.
      152      152                    Set its .ENCLOSING from OPERAND.EDIT_BLOCK$'s range.
      153      153        */
      154      154
      155      155        VDE$IOPEN: PROC ALTRET;
      156      156
      157      157        %INCLUDE VD_MACROS_M;
      158     2372        %INCLUDE VD_PERR_C;
      159     2520
      160     2521
      161     2522        %VD$FILE_NODE (NAME=WINDOW_NODE, STCLASS="BASED(VD_CURRENT_WINDOW$)");
      162     2615        %VD$OPERAND (NAME=OPERAND, STCLASS="BASED(OPERAND$)");
      163     2629
      164     2630
      165     2631        /*
      166     2632        *   Local equates.
      167     2633        */
      168     2634        %EQU SCRATCH_FNAME = CONCAT(FSTCL_INTERNAL, PFK_CONSTANT, DK_SCRATCH);
      169     2635
      170     2636
      171     2637
      172     2638    1   DCL VDG$OALLOC          ENTRY (3) ALTRET;
      173     2639    1   DCL VDG$OFREE           ENTRY (1) ALTRET;
      174     2640    1   DCL VDG$OCOPY           ENTRY (2) ALTRET;
      175     2641    1   DCL VDG$OCLEAR_RANGE    ENTRY (1) ALTRET;
      176     2642    1   DCL VDG$OCOPY_RANGE     ENTRY (2) ALTRET;
      177     2643    1   DCL VDG$OCOPY_LOCATION  ENTRY (2) ALTRET;
      178     2644    1   DCL VDA$FOPEN           ENTRY (4) ALTRET;
      179     2645    1   DCL VDA$LWRITE          ENTRY (4) ALTRET;
      180     2646    1   DCL VDA$LDELETE         ENTRY (2) ALTRET;
      181     2647    1   DCL VDA$PFLUSH          ENTRY (2) ALTRET;
      182     2648    1   DCL VDI$PREMOVE_EDIT_BLOCK  ENTRY ALTRET;
      183     2649    1   DCL VDG$ESCREECH        ENTRY (3);
      184     2650    1   DCL VDG$ERRMSG          ENTRY (4) ALTRET;
      185     2651    1   DCL VDG$INFOMSG         ENTRY (4) ALTRET;
PL6.E3A0      #001=VDE$IOPEN File=VDE$INTERPRET.:VDA5TSI                         FRI 07/04/97 11:11 Page:6
      186     2652
      187     2653
      188     2654        %VD_6E (STCLASS=SYMREF);
      189     2690    1   DCL VD_CURRENT_WINDOW$ PTR SYMREF;
      190     2691
      191     2692
      192     2693
      193     2694    1   DCL OPERAND$ PTR;
      194     2695    1   DCL CURR_WINDOW$ PTR;
      195     2696    1   DCL IT_BLOCK_EXPR$ PTR;
      196     2697    1   DCL IT_SELECT$ PTR;
      197     2698    1   DCL TOS_EVAL$ PTR;
      198     2699    1   DCL EDIT_BLOCK$ PTR;
      199     2700    1   DCL DOMAIN_KEY$ PTR;
      200     2701    1   DCL VD_ERR$ PTR;
      201     2702
      202     2703
      203     2704        %VD$IT_BLOCK_EXPR (NAME=IT$BLOCK_EXPR, STCLASS="BASED(IT_BLOCK_EXPR$)");
      204     2854        %VD$IT_SELECT (NAME=IT$SELECT, STCLASS="BASED(IT_SELECT$)");
      205     2891        %VD$EVAL (NAME=TOS$EVAL, STCLASS="BASED(TOS_EVAL$)");
      206     3136        %VD$STREAM (NAME=WINDOWS$STREAM, STCLASS="BASED(VD_6E.WINDOWS$)");
      207     3242        %VD$BLOCK_DESC (NAME=EDIT$BLOCK, STCLASS="BASED(EDIT_BLOCK$)");
      208     3389        %VD$FILE_KEY (NAME=DOMAIN$KEY, STCLASS="BASED(DOMAIN_KEY$)");
      209     3438        %VD$TEXTC_REMOTE;
      210     3499        %VD$WINDOW_SPEC (NAME=CURR$WINDOW, STCLASS="BASED(CURR_WINDOW$)");
      211     3565        %VD$ERR (NAME=VD$ERR_LAST, STCLASS="BASED(VD_6E.ERR_TAIL$)");
      212     3618        %VD$ERR (NAME=VD$ERR_FIRST, STCLASS="BASED(VD_6E.ERR_HEAD$)");
      213     3671        %VD$PORT;
      214     3769
      215     3770
      216     3771
      217     3772    1           CURR_WINDOW$ = WINDOW_NODE.DESC.SPEC.V$;
      218     3773    1           OPERAND$ = ADDR(CURR$WINDOW.OPERAND);
      219     3774    1           IT_BLOCK_EXPR$ = OPERAND.INTREE$;
      220     3775
      221     3776    2           IF IT$BLOCK_EXPR.DOMAINN = %CLEAR THEN DO;
      222     3777                   %INCREMENT (INDX=%STG_BLOCK_IN_EDITBLOCK);
PL6.E3A0      #001=VDE$IOPEN File=VDE$INTERPRET.:VDA5TSI                         FRI 07/04/97 11:11 Page:7
      223     3780    2              CALL UPDATE_OPTIONS
      224     3781    2                ALTRET (UPDATE_OPTIONS_FAILED);
      225     3782    2              END;
      226     3783    2           ELSE DO;
      227     3784    2              IF IT$BLOCK_EXPR.DOMAINN.NEXT
      228     3785    3                OR IT$BLOCK_EXPR.DOMAINN.PREVIOUS THEN DO;
      229     3786    3                 CALL NEXT_PREV_DOMAIN
      230     3787    3                   ALTRET (NEXT_PREV_DOMAIN_FAILED);
      231     3788    3                 END;
      232     3789    3              ELSE DO;
      233     3790                      /*
      234     3791                      *   If the new domain is a Scratch file, it's an error:
      235     3792                      *     only source blocks can be Scratch files, and source
      236     3793                      *     blocks go through VDE$IOPEN_SOURCE, never VDE$IOPEN.
      237     3794                      *N*  Someday, may want to allow editing scratch files???
      238     3795                      */
      239     3796    3                 DOMAIN_KEY$ = IT$BLOCK_EXPR.DOMAINN.FILE_KEY.V$;
      240     3797    3                 IF DOMAIN$KEY.UNIQUE.FNAME.LENGTH# >= %LENGTHC(SCRATCH_FNAME)
      241     3798    3                   AND SUBSTR(DOMAIN$KEY.UNIQUE.FNAME.BYTES,
      242     3799    3                   0, %LENGTHC(SCRATCH_FNAME)) = %SCRATCH_FNAME THEN
      243     3800    3                    GOTO CANT_EDIT_SCRATCH_FAILURE;
      244     3801    3                 CALL NEW_EDIT_BLOCK
      245     3802    3                   ALTRET (NEW_EDIT_BLOCK_FAILED);
      246     3803    3                 END;
      247     3804    2              END;
      248     3805
      249     3806    1           GOTO COMMON_FINISH;
      250     3807        %EJECT;
PL6.E3A0      #001=VDE$IOPEN File=VDE$INTERPRET.:VDA5TSI                         FRI 07/04/97 11:11 Page:8
      251     3808        /*D* NAME:  VDE$IOPEN_SOURCE
      252     3809            INPUT:
      253     3810                VD_6E.SOURCE.OPERAND - The VD$OPERAND to open:
      254     3811                    .STREAM$ must be non-NIL, tho the stream need not be
      255     3812                        open yet.
      256     3813                    .INTREE$, .EDIT_BLOCK$, and .EVAL$ may be non-NIL; their
      257     3814                        values at entry are discarded.
      258     3815                VD_CURRENT_WINDOW$ - Ptr to VD$FILE_NODE at level 1 of the
      259     3816                    Windows file, for the current editing window.  In this
      260     3817                    window's VD$WINDOW_SPEC.OPERAND:
      261     3818                    .INTREE$ must point to a VD$IT_BLOCK_EXPR:
      262     3819                        If .DOMAINN is %CLEAR, this indicates that the domain
      263     3820                            of the block expression is the same as OPERAND's
      264     3821                            EditBlock.  OPERAND.EDIT_BLOCK$ must not be NIL.
      265     3822                            The InTree's .OPTIONS must contain only those
      266     3823                            processing/access options explicitly given by
      267     3824                            the user.
      268     3825                        If .DOMAINN is not %CLEAR, it must specify the new
      269     3826                            EditBlock for the operand.  .OPERAND.EDIT_BLOCK$
      270     3827                            may or may not be NIL.  The InTree's .OPTIONS must
      271     3828                            contain a complete set of options, unless
      272     3829                            .DOMAINN.NEXT or .PREVIOUS is set, in which case
      273     3830                            only the options explicitly given by the user
      274     3831                            should be set.
      275     3832                    .EVAL$ may or may not be NIL.
      276     3833            OUTPUT:
      277     3834                VD_6E.SOURCE.OPERAND:
      278     3835                    .INTREE$ will now point to (and "own") the editing window's
      279     3836                        InTree.
      280     3837                    .EDIT_BLOCK$ will point to a new VD$BLOCK_DESC for the
      281     3838                        enclosing block for the source operand.
      282     3839                    .EVAL$ will point to a new VD$EVAL:
      283     3840                        .ENCLOSING will be the range from the (possibly new)
      284     3841                            EditBlock.
      285     3842                        .RANGE will be either:
      286     3843                            New domain:  the start boundary of the new EditBlock.
      287     3844                            Old domain:  untouched (and so should be the range of
PL6.E3A0      #001=VDE$IOPEN File=VDE$INTERPRET.:VDA5TSI                         FRI 07/04/97 11:11 Page:9
      288     3845                                the last SelectedBlock).
      289     3846                    .LAST_FOUND_RANGE will be cleared.
      290     3847                        .NODE$ will point to the first IT_SELECT node in the
      291     3848                            InTree (if any).
      292     3849                        .REMAINING# will be set from that IT_SELECT node's
      293     3850                            repeat-count (or 0 if no IT_SELECT node).
      294     3851                    .INTREE$'s .DOMAINN will be %CLEAR.
      295     3852                        Also, its .OPTIONS will be filled in, if they aren't
      296     3853                        already, from the (possibly new) EditBlock's options.
      297     3854                The current editing window's .OPERAND.INTREE$ will be NIL.
      298     3855            DESCRIPTION:
      299     3856                Free the objects currently pointed-to by VD_6E.SOURCE.OPERAND's
      300     3857                    .INTREE$, .EDIT_BLOCK$, and .EVAL$.
      301     3858                Move the InTree from the editing window's .OPERAND to
      302     3859                    VD_6E.SOURCE.OPERAND.
      303     3860                If the InTree's .DOMAINN is clear:
      304     3861                    Copy the editing window's .EDIT_BLOCK$ to VD_6E.SOURCE.
      305     3862                    Copy just the top entry of the editing window's evaluation
      306     3863                        stack (.OPERAND.EVAL$) to VD_6E.SOURCE.
      307     3864        *N*         Check the IT$BLOCK_EXPR.OPTIONS:
      308     3865        *N*         if any are non-0/CLEAR/NIL (ie, explicitly given by user),
      309     3866        *N*         update VD_6E.SOURCE.OPERAND.EDIT_BLOCK$ to reflect the
      310     3867        *N*         change:
      311     3868        *N*             If .STRUCTURE$ given, the new Structure's accessor-
      312     3869        *N*                 structure must be the same as the old Structure's
      313     3870        *N*                 accessor-structure.
      314     3871        *N*             Ignore existence option changes between ANY and OLD,
      315     3872        *N*                 but reject an IT$BLOCK_EXPR.OPTION of NEW when
      316     3873        *N*                 the EDIT$BLOCK shows ANY or OLD.
      317     3874                If the InTree's .DOMAINN is non-%CLEAR, build a new
      318     3875                VD_6E.SOURCE.OPERAND.EDIT_BLOCK$ and .EVAL$:
      319     3876                    If .DOMAINN.NEXT or .PREVIOUS is set, build the new
      320     3877                        EditBlock and .EVAL from the next or previous
      321     3878                        WindowBlock in the editing window's EditBlock stack.
      322     3879                    Else build the new EditBlock from .DOMAINN.FILE_KEY and
      323     3880                        .RANGE, and the new .EVAL from the new EditBlock.
      324     3881                Initialize VD_6E.SOURCE.OPERAND.EVAL$ for the first call to
PL6.E3A0      #001=VDE$IOPEN File=VDE$INTERPRET.:VDA5TSI                         FRI 07/04/97 11:11 Page:10
      325     3882                    VDE$IRANGE.  Set its .ENCLOSING from
      326     3883                    VD_6E.SOURCE.OPERAND.EDIT_BLOCK$'s range.
      327     3884        */
      328     3885
      329     3886    1   VDE$IOPEN_SOURCE: ENTRY ALTRET;
      330     3887    1           CURR_WINDOW$ = WINDOW_NODE.DESC.SPEC.V$;
      331     3888    1           OPERAND$ = ADDR(VD_6E.SOURCE.OPERAND);
      332     3889
      333     3890    1           CALL VDG$OFREE (VD_6E.SOURCE.OPERAND.INTREE$ -> IT$BLOCK_EXPR)
      334     3891    1             ALTRET (OFREE_FAILED);
      335     3892    1           VD_6E.SOURCE.OPERAND.INTREE$ = CURR$WINDOW.OPERAND.INTREE$;
      336     3893    1           IT_BLOCK_EXPR$ = CURR$WINDOW.OPERAND.INTREE$;
      337     3894    1           CURR$WINDOW.OPERAND.INTREE$ = ADDR(NIL);
      338     3895
      339     3896    1           CALL VDG$OFREE (VD_6E.SOURCE.OPERAND.EDIT_BLOCK$ -> EDIT$BLOCK)
      340     3897    1             ALTRET (OFREE_FAILED);
      341     3898    1           VD_6E.SOURCE.OPERAND.EDIT_BLOCK$ = ADDR(NIL);
      342     3899
      343     3900    2           DO WHILE VD_6E.SOURCE.OPERAND.EVAL$ ~= ADDR(NIL);
      344     3901    2              TOS_EVAL$ = VD_6E.SOURCE.OPERAND.EVAL$ -> TOS$EVAL.BLINK$;
      345     3902    2              CALL VDG$OFREE (VD_6E.SOURCE.OPERAND.EVAL$ -> TOS$EVAL)
      346     3903    2                ALTRET (OFREE_FAILED);
      347     3904    2              VD_6E.SOURCE.OPERAND.EVAL$ = TOS_EVAL$;
      348     3905    2              END;
      349     3906
      350     3907
      351     3908    1           IT$BLOCK_EXPR.OPTIONS.EXIST# = %EX_OLD; /* Source must exist */
      352     3909    2           IF IT$BLOCK_EXPR.DOMAINN = %CLEAR THEN DO;
      353     3910    2              CALL VDG$OCOPY (CURR$WINDOW.OPERAND.EDIT_BLOCK$->EDIT$BLOCK,
      354     3911    2                VD_6E.SOURCE.OPERAND.EDIT_BLOCK$)
      355     3912    2                ALTRET (OCOPY_FAILED);
      356     3913    2              EDIT_BLOCK$ = VD_6E.SOURCE.OPERAND.EDIT_BLOCK$;
      357     3914    2              CALL VDG$OCOPY (CURR$WINDOW.OPERAND.EVAL$->TOS$EVAL,
      358     3915    2                VD_6E.SOURCE.OPERAND.EVAL$)
      359     3916    2                ALTRET (OCOPY_FAILED);
      360     3917    2              CALL UPDATE_OPTIONS
      361     3918    2                ALTRET (UPDATE_OPTIONS_FAILED);
PL6.E3A0      #001=VDE$IOPEN File=VDE$INTERPRET.:VDA5TSI                         FRI 07/04/97 11:11 Page:11
      362     3919    2              END;
      363     3920    2           ELSE DO;
      364     3921    2              IF IT$BLOCK_EXPR.DOMAINN.NEXT
      365     3922    3                OR IT$BLOCK_EXPR.DOMAINN.PREVIOUS THEN DO;
      366     3923    3                 CALL NEXT_PREV_DOMAIN
      367     3924    3                   ALTRET (NEXT_PREV_DOMAIN_FAILED);
      368     3925    3                 END;
      369     3926    3              ELSE DO;
      370     3927    3                 CALL VDG$OALLOC (%CLS_BLOCK_DESC,
      371     3928    3                   VD_6E.SOURCE.OPERAND.EDIT_BLOCK$)
      372     3929    3                   ALTRET (OALLOC_FAILED);
      373     3930    3                 EDIT_BLOCK$ = VD_6E.SOURCE.OPERAND.EDIT_BLOCK$;
      374     3931    3                 EDIT$BLOCK.FILE_KEY = IT$BLOCK_EXPR.DOMAINN.FILE_KEY;
      375     3932    3                 EDIT$BLOCK.RANGE = IT$BLOCK_EXPR.DOMAINN.RANGE;
      376     3933    3                 IT$BLOCK_EXPR.DOMAINN = %CLEAR;
      377     3934    3                 EDIT$BLOCK.OPTIONS = IT$BLOCK_EXPR.OPTIONS;
      378     3935                      %COPYKEY (FKEY=IT$BLOCK_EXPR.OPTIONS.KEY_INCR,
      379     3936                      TKEY=EDIT$BLOCK.OPTIONS.KEY_INCR);
      380     3952
      381     3953    3                 CALL VDG$OALLOC (%CLS_EVAL, VD_6E.SOURCE.OPERAND.EVAL$)
      382     3954    3                   ALTRET (OALLOC_FAILED);
      383     3955    3                 CALL VDG$OCOPY_RANGE (EDIT$BLOCK.RANGE,
      384     3956    3                   VD_6E.SOURCE.OPERAND.EVAL$ -> TOS$EVAL.RANGE)
      385     3957    3                   ALTRET (OCOPY_RANGE_FAILED);
      386     3958    3                 END;
      387     3959    2              END;
      388     3960    1           VD_6E.SOURCE.OPERAND.EVAL$ -> TOS$EVAL.STATE# = %EVST_INITIAL;
      389     3961
      390     3962        %EJECT;
PL6.E3A0      #001=VDE$IOPEN File=VDE$INTERPRET.:VDA5TSI                         FRI 07/04/97 11:11 Page:12
      391     3963    1   COMMON_FINISH: ;
      392     3964
      393     3965    1           IT_SELECT$ = IT$BLOCK_EXPR.SELECTS$;
      394     3966    1           TOS_EVAL$ = OPERAND.EVAL$;
      395     3967    2           IF TOS_EVAL$ = ADDR(NIL) THEN DO;
      396     3968    2              CALL VDG$OALLOC (%CLS_EVAL, OPERAND.EVAL$)
      397     3969    2                ALTRET (OALLOC_FAILED);
      398     3970    2              TOS_EVAL$ = OPERAND.EVAL$;
      399     3971    2              TOS$EVAL.STATE# = %EVST_INITIAL;
      400     3972    2              END;
      401     3973
      402     3974    1           TOS$EVAL.NODE$ = IT_SELECT$;
      403     3975    2           IF IT_SELECT$ ~= ADDR(NIL) THEN DO;
      404     3976    2              IF IT$SELECT.RPT_ALL THEN
      405     3977    2                 TOS$EVAL.REMAINING# = %MX_REPEAT_COUNT;
      406     3978    2              ELSE
      407     3979    2                 TOS$EVAL.REMAINING# = IT$SELECT.RPT_COUNT#;
      408     3980    2              END;
      409     3981    1           ELSE
      410     3982    1              TOS$EVAL.REMAINING# = 0;
      411     3983
      412     3984    1           EDIT_BLOCK$ = OPERAND.EDIT_BLOCK$;
      413     3985    1           CALL VDG$OCLEAR_RANGE (TOS$EVAL.ENCLOSING)
      414     3986    1             ALTRET (OCLEAR_RANGE_FAILED);
      415     3987    1           CALL VDG$OCOPY_RANGE (EDIT$BLOCK.RANGE, TOS$EVAL.ENCLOSING)
      416     3988    1             ALTRET (OCOPY_RANGE_FAILED);
      417     3989
      418     3990    1           CALL VDG$OCLEAR_RANGE (TOS$EVAL.LAST_FOUND_RANGE)
      419     3991    1             ALTRET (OCLEAR_RANGE_FAILED);
      420     3992
      421     3993    1           RETURN;
      422     3994
      423     3995
      424     3996
      425     3997    1   CANT_EDIT_SCRATCH_FAILURE:
      426     3998    1           CALL VDG$ERRMSG (%E$CANT_EDIT_SCRATCH);
      427     3999
PL6.E3A0      #001=VDE$IOPEN File=VDE$INTERPRET.:VDA5TSI                         FRI 07/04/97 11:11 Page:13
      428     4000
      429     4001    1   OCOPY_FAILED: ;
      430     4002    1   OFREE_FAILED: ;
      431     4003    1   UPDATE_OPTIONS_FAILED: ;
      432     4004    1   NEXT_PREV_DOMAIN_FAILED: ;
      433     4005    1   NEW_EDIT_BLOCK_FAILED: ;
      434     4006    1   OALLOC_FAILED: ;
      435     4007    1   OCLEAR_RANGE_FAILED: ;
      436     4008    1   OCOPY_RANGE_FAILED: ;
      437     4009    1           ALTRETURN;
      438     4010
      439     4011        %BOX (TITLE=UPDATE_OPTIONS, PAGE=YES);
              4019    1
              4023    1   /***************************************************************************
              4025    1    *                                                                         *
              4029    1            *                               UPDATE_OPTIONS                            *
              4031    1            *                                                                         *
              4033    1           ***************************************************************************/

      440     4037
      441     4038        /*I* NAME: UPDATE_OPTIONS
      442     4039            PARAMETERS:
      443     4040                None.
      444     4041            INPUT:
      445     4042                IT$BLOCK_EXPR.OPTIONS must contain only those processing
      446     4043                    options which were explicitly given by the user; the
      447     4044                    other fields should be %CLEAR/NIL.
      448     4045                    Also, .DOMAINN should be %CLEAR in order to get here
      449     4046                    at all.
      450     4047                OPERAND.EDIT_BLOCK$ must point to the current EditBlock
      451     4048                    for this operand.  There must be such a block, whose
      452     4049                    .OPTIONS must be completely filled in and valid.
      453     4050                WINDOW_NODE specifies the window whose operand we're opening.
      454     4051            OUTPUT:
      455     4052                IT$BLOCK_EXPR.OPTIONS will be completely filled in.  Any
      456     4053                    missing fields will be filled in from the EDIT$BLOCK's
      457     4054                    options.
PL6.E3A0      #001=VDE$IOPEN File=VDE$INTERPRET.:VDA5TSI                         FRI 07/04/97 11:11 Page:14
      458     4055        *N*     If the user explicitly gave structure, level, component,
      459     4056        *N*         or protect options, the EditBlock and OPERAND's
      460     4057        *N*         Stream will be updated to reflect the new processing
      461     4058        *N*         status.
      462     4059            DESCRIPTION:
      463     4060        *N*     If the user gave any options, update the EDIT$BLOCK, the
      464     4061        *N*         operand's stream, and the window to reflect the new
      465     4062        *N*         processing status.
      466     4063                If IT$BLOCK_EXPR.OPTIONS has any missing fields, fill them
      467     4064                    in from the EDIT$BLOCK.
      468     4065        */
      469     4066
      470     4067    1   UPDATE_OPTIONS: PROC ALTRET;
      471     4068
      472     4069
      473     4070    2   DCL EDIT_BLOCK$ PTR;
      474     4071
      475     4072
      476     4073        %VD$BLOCK_DESC (NAME=EDIT$BLOCK, STCLASS="BASED(EDIT_BLOCK$)");
      477     4220
      478     4221
      479     4222
      480     4223    2           EDIT_BLOCK$ = OPERAND.EDIT_BLOCK$;
      481     4224
      482     4225    2           IF IT$BLOCK_EXPR.OPTIONS.STRUCTURE$ = ADDR(NIL) THEN
      483     4226    2              IT$BLOCK_EXPR.OPTIONS.STRUCTURE$ = EDIT$BLOCK.OPTIONS.STRUCTURE$;
      484     4227    2           ELSE
      485     4228    2              EDIT$BLOCK.OPTIONS.STRUCTURE$ = IT$BLOCK_EXPR.OPTIONS.STRUCTURE$;
      486     4229
      487     4230    2           IF IT$BLOCK_EXPR.OPTIONS.LEVEL# = 0 THEN
      488     4231    2              IT$BLOCK_EXPR.OPTIONS.LEVEL# = EDIT$BLOCK.OPTIONS.LEVEL#;
      489     4232    2           ELSE
      490     4233    2              EDIT$BLOCK.OPTIONS.LEVEL# = IT$BLOCK_EXPR.OPTIONS.LEVEL#;
      491     4234
      492     4235    2           IF IT$BLOCK_EXPR.OPTIONS.COMPONENT# = 0 THEN
      493     4236    2              IT$BLOCK_EXPR.OPTIONS.COMPONENT# = EDIT$BLOCK.OPTIONS.COMPONENT#;
      494     4237    2           ELSE
PL6.E3A0      #001=VDE$IOPEN File=VDE$INTERPRET.:VDA5TSI                         FRI 07/04/97 11:11 Page:15
      495     4238    2              EDIT$BLOCK.OPTIONS.COMPONENT# = IT$BLOCK_EXPR.OPTIONS.COMPONENT#;
      496     4239
      497     4240    2           IF IT$BLOCK_EXPR.OPTIONS.PROTECT# = 0 THEN
      498     4241    2              IT$BLOCK_EXPR.OPTIONS.PROTECT# = EDIT$BLOCK.OPTIONS.PROTECT#;
      499     4242    2           ELSE
      500     4243    2              EDIT$BLOCK.OPTIONS.PROTECT# = IT$BLOCK_EXPR.OPTIONS.PROTECT#;
      501     4244
      502     4245    2           IF IT$BLOCK_EXPR.OPTIONS.EXIST# = 0 THEN
      503     4246    2              IT$BLOCK_EXPR.OPTIONS.EXIST# = EDIT$BLOCK.OPTIONS.EXIST#;
      504     4247    2           ELSE
      505     4248    2              EDIT$BLOCK.OPTIONS.EXIST# = IT$BLOCK_EXPR.OPTIONS.EXIST#;
      506     4249
      507     4250    2           IF IT$BLOCK_EXPR.OPTIONS.KEY_INCR = %CLEAR THEN
      508     4251    2              IT$BLOCK_EXPR.OPTIONS.KEY_INCR = EDIT$BLOCK.OPTIONS.KEY_INCR;
      509     4252
      510     4253    2           RETURN;
      511     4254
      512     4255    2   END UPDATE_OPTIONS;
      513     4256
      514     4257        %BOX (TITLE=NEXT_PREV_DOMAIN, PAGE=YES);
              4265    2
              4269    2   /***************************************************************************
              4271    2    *                                                                         *
              4275    2            *                              NEXT_PREV_DOMAIN                           *
              4277    2            *                                                                         *
              4279    2           ***************************************************************************/

      515     4283
      516     4284        /*I* NAME: NEXT_PREV_DOMAIN
      517     4285            PARAMETERS:
      518     4286                None.
      519     4287            INPUT:
      520     4288                WINDOW_NODE - VD$FILE_NODE at level-1 of the Windows file.
      521     4289                IT$BLOCK_EXPR.DOMAINN.NEXT or .PREVIOUS must be set:
      522     4290                    one or the other.
      523     4291                IT$BLOCK_EXPR.OPTIONS must contain only those processing/access
      524     4292                    options which have been explicitly given by the user.
PL6.E3A0      #001=VDE$IOPEN File=VDE$INTERPRET.:VDA5TSI                         FRI 07/04/97 11:11 Page:16
      525     4293            OUTPUT:
      526     4294                WINDOW_NODE's VD$WINDOW_SPEC.OPERAND.EDIT_BLOCK$ and
      527     4295                    .EVAL$ will be modified:  they'll be the new values
      528     4296                    for the new EditBlock.
      529     4297                    Also, the VD$WINDOW_SPEC.CURR_INDEX# will be incremented
      530     4298                    or decremented.
      531     4299                WINDOW_NODE's children will be mucked with:  the
      532     4300                    VD$WINDOW_BLOCK for the EditBlock at entry will be
      533     4301                    updated with the at-entry values from .OPERAND.
      534     4302                IT$BLOCK_EXPR.DOMAINN will be %CLEARed.
      535     4303                IT$BLOCK_EXPR.OPTIONS - Any missing fields will be filled in
      536     4304                    from the new EditBlock.
      537     4305            DESCRIPTION:
      538     4306                Find the VD$WINDOW_BLOCK for the current EditBlock,
      539     4307                    and the one for the new EditBlock (next or previous).
      540     4308                Clear CURR$BLOCK's pointers, and move the EditBlock and
      541     4309                    evaluation stack from the VD$WINDOW_SPEC to CURR$BLOCK.
      542     4310                Call VDI$PREMOVE_EDIT_BLOCK just to make sure we do all
      543     4311                    the things that need to be done when removing an
      544     4312                    EditBlock (tell the Presenter, etc).
      545     4313                Copy the EditBlock and evaluation stack from NEW$BLOCK to
      546     4314                    the VD$WINDOW_SPEC.  If there is now no EditBlock
      547     4315                    (NEW$BLOCK had nil pointers), this is an error.
      548     4316                    However, after building the error message, proceed
      549     4317                    with the remaining steps; but don't return at the
      550     4318                    end, ALTRETURN.
      551     4319                If there is now an EditBlock, open the window's stream to it.
      552     4320                    If the open fails, remove the EditBlock again, and set up
      553     4321                    to ALTRETURN at the end.
      554     4322                Clear IT$BLOCK_EXPR.DOMAINN, so when/if we copy this InTree
      555     4323                    to the Source operand and try to open it there, we don't
      556     4324                    try doing all this again.
      557     4325        */
      558     4326
      559     4327    1   NEXT_PREV_DOMAIN: PROC ALTRET;
      560     4328
      561     4329
PL6.E3A0      #001=VDE$IOPEN File=VDE$INTERPRET.:VDA5TSI                         FRI 07/04/97 11:11 Page:17
      562     4330    2   DCL L2_NODE$ PTR;
      563     4331    2   DCL INDX SBIN;
      564     4332    2   DCL CURR_BLOCK$ PTR;
      565     4333    2   DCL NEW_BLOCK$ PTR;
      566     4334    2   DCL CURR_EVAL$ PTR;
      567     4335    2   DCL NEXT_EVAL$ PTR;
      568     4336
      569     4337
      570     4338        %VD$FILE_NODE (NAME=L2$NODE, STCLASS="BASED(L2_NODE$)");
      571     4431        %VD$WINDOW_BLOCK (NAME=CURR$BLOCK, STCLASS="BASED(CURR_BLOCK$)");
      572     4468        %VD$WINDOW_BLOCK (NAME=NEW$BLOCK, STCLASS="BASED(NEW_BLOCK$)");
      573     4505        %VD$EVAL (NAME=CURR$EVAL, STCLASS="BASED(CURR_EVAL$)");
      574     4750        %VD$STREAM;
      575     4856        %VD$BLOCK_DESC;
      576     5003        %VD$EVAL;
      577     5248
      578     5249
      579     5250
      580     5251
      581     5252    2           L2_NODE$ = WINDOW_NODE.HEAD$;
      582     5253    2           INDX = 0;
      583     5254    3           DO WHILE L2_NODE$ ~= ADDR(NIL)
      584     5255    3             AND INDX < CURR$WINDOW.CURR_INDEX#;
      585     5256    3              L2_NODE$ = L2$NODE.FLINK$;
      586     5257    3              INDX = INDX + 1;
      587     5258    3              END;
      588     5259
      589     5260    2           IF L2_NODE$ = ADDR(NIL) THEN
      590     5261    2              GOTO NO_NEXT_PREV_EDIT_BL_FAILURE;
      591     5262
      592     5263    2           CURR_BLOCK$ = L2$NODE.DESC.SPEC.V$;
      593     5264
      594     5265    2           IF IT$BLOCK_EXPR.DOMAINN.NEXT THEN
      595     5266    2              L2_NODE$ = L2$NODE.FLINK$;
      596     5267    2           ELSE
      597     5268    2              L2_NODE$ = L2$NODE.BLINK$;
      598     5269    2           IF L2_NODE$ = ADDR(NIL) THEN
PL6.E3A0      #001=VDE$IOPEN File=VDE$INTERPRET.:VDA5TSI                         FRI 07/04/97 11:11 Page:18
      599     5270    2              GOTO NO_NEXT_PREV_EDIT_BL_FAILURE;
      600     5271    2           NEW_BLOCK$ = L2$NODE.DESC.SPEC.V$;
      601     5272
      602     5273    3           IF OPERAND$ ~= ADDR(VD_6E.SOURCE.OPERAND) THEN DO;
      603     5274    3              IF IT$BLOCK_EXPR.DOMAINN.NEXT THEN
      604     5275    3                 CURR$WINDOW.CURR_INDEX# = CURR$WINDOW.CURR_INDEX# + 1;
      605     5276    3              ELSE
      606     5277    3                 CURR$WINDOW.CURR_INDEX# = CURR$WINDOW.CURR_INDEX# - 1;
      607     5278
      608     5279    3              CALL VDG$OFREE (CURR$BLOCK.EDIT_BLOCK$->VD$BLOCK_DESC)
      609     5280    3                ALTRET (OFREE_FAILED);
      610     5281    3              CURR_EVAL$ = CURR$BLOCK.EVAL$;
      611     5282    4              DO WHILE CURR_EVAL$ ~= ADDR(NIL);
      612     5283    4                 NEXT_EVAL$ = CURR$EVAL.BLINK$;
      613     5284    4                 CALL VDG$OFREE (CURR$EVAL)
      614     5285    4                   ALTRET (OFREE_FAILED);
      615     5286    4                 CURR_EVAL$ = NEXT_EVAL$;
      616     5287    4                 END;
      617     5288
      618     5289    3              CURR$BLOCK.EDIT_BLOCK$ = CURR$WINDOW.OPERAND.EDIT_BLOCK$;
      619     5290    3              CURR$WINDOW.OPERAND.EDIT_BLOCK$ = ADDR(NIL);
      620     5291    3              CURR$BLOCK.EVAL$ = CURR$WINDOW.OPERAND.EVAL$;
      621     5292    3              CURR$WINDOW.OPERAND.EVAL$ = ADDR(NIL);
      622     5293    3              CALL VDI$PREMOVE_EDIT_BLOCK
      623     5294    3                ALTRET (PREMOVE_EDIT_BLOCK_FAILED);
      624     5295    3              END;
      625     5296
      626     5297    2           IT$BLOCK_EXPR.DOMAINN = %CLEAR;
      627     5298
      628     5299    3           IF NEW$BLOCK.EDIT_BLOCK$ ~= ADDR(NIL) THEN DO;
      629     5300    3              CALL VDG$OCOPY (NEW$BLOCK.EDIT_BLOCK$->VD$BLOCK_DESC,
      630     5301    3                OPERAND.EDIT_BLOCK$)
      631     5302    3                ALTRET (OCOPY_FAILED);
      632     5303    3              END;
      633     5304    3           ELSE DO;
      634     5305    3              CALL VDG$ERRMSG (%E$NO_CURRENT_EDIT_BLOCK);
      635     5306    3              ALTRETURN;
PL6.E3A0      #001=VDE$IOPEN File=VDE$INTERPRET.:VDA5TSI                         FRI 07/04/97 11:11 Page:19
      636     5307    3              END;
      637     5308    3           IF NEW$BLOCK.EVAL$ ~= ADDR(NIL) THEN DO;
      638     5309    3              CALL VDG$OCOPY (NEW$BLOCK.EVAL$->VD$EVAL,
      639     5310    3                OPERAND.EVAL$)
      640     5311    3                ALTRET (OCOPY_FAILED);
      641     5312    3              END;
      642     5313
      643     5314    2           EDIT_BLOCK$ = OPERAND.EDIT_BLOCK$;
      644     5315    2           CALL UPDATE_OPTIONS;
      645     5316
      646     5317    3           IF OPERAND$ ~= ADDR(VD_6E.SOURCE.OPERAND) THEN DO;
      647     5318
      648     5319    3              CALL VDA$FOPEN (CURR$WINDOW.OPERAND.STREAM$->VD$STREAM,
      649     5320    3                EDIT$BLOCK.FILE_KEY, 0, EDIT$BLOCK.OPTIONS)
      650     5321    4              WHENRETURN DO;
      651     5322    4                 IF EDIT$BLOCK.OPTIONS.EXIST# = %EX_NEW THEN
      652     5323    4                    EDIT$BLOCK.OPTIONS.EXIST# = %EX_OLD;
      653     5324    4                 END;
      654     5325    4              WHENALTRETURN DO;
      655     5326    4                 CALL VDI$PREMOVE_EDIT_BLOCK
      656     5327    4                   ALTRET (PREMOVE_EDIT_BLOCK_FAILED);
      657     5328    4                 ALTRETURN;
      658     5329    4                 END;
      659     5330    3              END;
      660     5331
      661     5332    2           RETURN;
      662     5333
      663     5334
      664     5335
      665     5336    2   NO_NEXT_PREV_EDIT_BL_FAILURE:
      666     5337    2           IF IT$BLOCK_EXPR.DOMAINN.NEXT THEN
      667     5338    2              CALL VDG$ERRMSG (%E$NO_NEXT_EDIT_BLOCK);
      668     5339    2           ELSE
      669     5340    2              CALL VDG$ERRMSG (%E$NO_PREV_EDIT_BLOCK);
      670     5341    2           IT$BLOCK_EXPR.DOMAINN = %CLEAR;
      671     5342
      672     5343
PL6.E3A0      #001=VDE$IOPEN File=VDE$INTERPRET.:VDA5TSI                         FRI 07/04/97 11:11 Page:20
      673     5344    2   OFREE_FAILED: ;
      674     5345    2   PREMOVE_EDIT_BLOCK_FAILED: ;
      675     5346    2   OCOPY_FAILED: ;
      676     5347    2   OALLOC_FAILED: ;
      677     5348    2           ALTRETURN;
      678     5349
      679     5350    2   END NEXT_PREV_DOMAIN;
      680     5351
      681     5352        %BOX (TITLE=NEW_EDIT_BLOCK, PAGE=YES);
              5360    2
              5364    2   /***************************************************************************
              5366    2    *                                                                         *
              5370    2            *                               NEW_EDIT_BLOCK                            *
              5372    2            *                                                                         *
              5374    2           ***************************************************************************/

      682     5378
      683     5379        /*I* NAME: NEW_EDIT_BLOCK
      684     5380            PARAMETERS:
      685     5381                None.
      686     5382            INPUT:
      687     5383                WINDOW_NODE - VD$FILE_NODE at level-1 of the Windows file.
      688     5384                IT$BLOCK_EXPR.DOMAINN.FILE_KEY and .RANGE must be set.
      689     5385            OUTPUT:
      690     5386                WINDOW_NODE's VD$WINDOW_SPEC.OPERAND.EDIT_BLOCK$ and
      691     5387                    .EVAL$ will be modified:  they'll be the new values
      692     5388                    for the new EditBlock.
      693     5389                    Also, the VD$WINDOW_SPEC.CURR_INDEX# may be incremented.
      694     5390                WINDOW_NODE's children will be mucked with:  the VD$WINDOW_BLOCK
      695     5391                    for the EditBlock at entry will be updated with the at-entry
      696     5392                    values from .OPERAND.
      697     5393                    Also, any VD$WINDOW_BLOCKs after the current one will be deleted
      698     5394                    from the Windows file.
      699     5395                    If the current VD$WINDOW_BLOCK is occupied (non-NIL .OPERAND),
      700     5396                    a new one will be appended with the new EditBlock specification.
      701     5397                IT$BLOCK_EXPR.DOMAINN will be %CLEARed.
      702     5398            DESCRIPTION:
PL6.E3A0      #001=VDE$IOPEN File=VDE$INTERPRET.:VDA5TSI                         FRI 07/04/97 11:11 Page:21
      703     5399                Find the VD$WINDOW_BLOCK for the current EditBlock; there
      704     5400                    must always be a VD$WINDOW_BLOCK, even if there is no
      705     5401                    EditBlock currently.
      706     5402                Delete all VD$WINDOW_BLOCKs after the current one.
      707     5403                Clear CURR$BLOCK's pointers, and move the EditBlock and
      708     5404                    evaluation stack from the VD$WINDOW_SPEC to CURR$BLOCK.
      709     5405                Call VDI$PREMOVE_EDIT_BLOCK just to make sure we do all
      710     5406                    the things that need to be done when removing an
      711     5407                    EditBlock (tell the Presenter, etc).
      712     5408                Open the new EditBlock; if the open fails, we'll remain
      713     5409                    with no current EditBlock (the user can EDIT PREVIOUS
      714     5410                    to get the old one back).
      715     5411                    If the open succeeds, allocate a new EditBlock and VD$EVAL,
      716     5412                    and initialize them to the InTree's new domain.
      717     5413                If the current VD$WINDOW_BLOCK child is occupied, write a new one
      718     5414                    to this window; otherwise, use the current child.
      719     5415                    Save the new EditBlock (or lack thereof) in the new/current child.
      720     5416        */
      721     5417
      722     5418    1   NEW_EDIT_BLOCK: PROC ALTRET;
      723     5419
      724     5420
      725     5421    2   DCL L2_NODE$ PTR;
      726     5422    2   DCL INDX SBIN;
      727     5423    2   DCL CURR_BLOCK$ PTR;
      728     5424    2   DCL CURR_EVAL$ PTR;
      729     5425    2   DCL NEXT_EVAL$ PTR;
      730     5426        %VD$RANGE (NAME=DEL_RANGE, STCLASS=AUTO);
      731     5495    2   DCL OPEN_SUCCEEDED BIT(1) ALIGNED;
      732     5496    2   DCL NEW_CHILD_ALLOCATED BIT(1) ALIGNED;
      733     5497        %VD$SPEC (NAME=WBLOCK_SPEC, STCLASS=AUTO);
      734     5511        %VD$LOCATION (NAME=WBLOCK_LOC, STCLASS=AUTO);
      735     5539
      736     5540
      737     5541        %VD$FILE_NODE (NAME=L2$NODE, STCLASS="BASED(L2_NODE$)");
      738     5634        %VD$WINDOW_BLOCK (NAME=CURR$BLOCK, STCLASS="BASED(CURR_BLOCK$)");
      739     5671        %VD$EVAL (NAME=CURR$EVAL, STCLASS="BASED(CURR_EVAL$)");
PL6.E3A0      #001=VDE$IOPEN File=VDE$INTERPRET.:VDA5TSI                         FRI 07/04/97 11:11 Page:22
      740     5916        %VD$BLOCK_DESC;
      741     6063        %VD$KEY_NUMBER;
      742     6078        %VD$STREAM;
      743     6184        %VD$EVAL;
      744     6429
      745     6430
      746     6431
      747     6432    2           L2_NODE$ = WINDOW_NODE.HEAD$;
      748     6433    2           INDX = 0;
      749     6434    3           DO WHILE L2_NODE$ ~= ADDR(NIL)
      750     6435    3             AND INDX < CURR$WINDOW.CURR_INDEX#;
      751     6436    3              L2_NODE$ = L2$NODE.FLINK$;
      752     6437    3              INDX = INDX + 1;
      753     6438    3              END;
      754     6439    2           CURR_BLOCK$ = L2$NODE.DESC.SPEC.V$;
      755     6440
      756     6441    2           CALL VDG$OFREE (CURR$BLOCK.EDIT_BLOCK$->VD$BLOCK_DESC)
      757     6442    2             ALTRET (OFREE_FAILED);
      758     6443    2           CURR_EVAL$ = CURR$BLOCK.EVAL$;
      759     6444    3           DO WHILE CURR_EVAL$ ~= ADDR(NIL);
      760     6445    3              NEXT_EVAL$ = CURR$EVAL.BLINK$;
      761     6446    3              CALL VDG$OFREE (CURR$EVAL)
      762     6447    3                ALTRET (OFREE_FAILED);
      763     6448    3              CURR_EVAL$ = NEXT_EVAL$;
      764     6449    3              END;
      765     6450
      766     6451    2           CURR$BLOCK.EDIT_BLOCK$ = CURR$WINDOW.OPERAND.EDIT_BLOCK$;
      767     6452    2           CURR$WINDOW.OPERAND.EDIT_BLOCK$ = ADDR(NIL);
      768     6453    2           CURR$BLOCK.EVAL$ = CURR$WINDOW.OPERAND.EVAL$;
      769     6454    2           CURR$WINDOW.OPERAND.EVAL$ = ADDR(NIL);
      770     6455    2           CALL VDI$PREMOVE_EDIT_BLOCK
      771     6456    2             ALTRET (PREMOVE_EDIT_BLOCK_FAILED);
      772     6457
      773     6458    2           DEL_RANGE = %CLEAR;
      774     6459    2           DEL_RANGE.START.KEY (%LVL_LOWER-1) = WINDOW_NODE.DESC.KEY;
      775     6460    2           DEL_RANGE.START.KEY (%LVL_LOWER) = L2$NODE.DESC.KEY;
      776     6461    2           ADDR(DEL_RANGE.START.KEY (%LVL_LOWER)) -> VD$KEY_NUMBER.BYTES# =
PL6.E3A0      #001=VDE$IOPEN File=VDE$INTERPRET.:VDA5TSI                         FRI 07/04/97 11:11 Page:23
      777     6462    2             ADDR(DEL_RANGE.START.KEY (%LVL_LOWER)) -> VD$KEY_NUMBER.BYTES# +
      778     6463    2             1;
      779     6464    2           DEL_RANGE.ENDD = DEL_RANGE.START;
      780     6465    2           ADDR(DEL_RANGE.ENDD.KEY (%LVL_LOWER)) -> VD$KEY_NUMBER.BYTES# =
      781     6466    2             %MX_CONSEC_RECORDS;
      782     6467    2           CALL VDA$LDELETE (WINDOWS$STREAM, DEL_RANGE)
      783     6468    2             ALTRET (LDELETE_FAILED);
      784     6469
      785     6470    2           CALL VDA$FOPEN (CURR$WINDOW.OPERAND.STREAM$->VD$STREAM,
      786     6471    2             IT$BLOCK_EXPR.DOMAINN.FILE_KEY, 0, IT$BLOCK_EXPR.OPTIONS)
      787     6472    3           WHENRETURN DO;
      788     6473    3              OPEN_SUCCEEDED = %TRUE;
      789     6474    3              IF IT$BLOCK_EXPR.OPTIONS.EXIST# = %EX_NEW THEN
      790     6475    3                 IT$BLOCK_EXPR.OPTIONS.EXIST# = %EX_OLD;
      791     6476    3              END;
      792     6477    3           WHENALTRETURN DO;
      793     6478    3              OPEN_SUCCEEDED = %FALSE;
      794     6479    4              IF CURR$BLOCK.EDIT_BLOCK$ ~= ADDR(NIL) THEN DO;
      795     6480    4                 CALL VDG$INFOMSG (%E$INFO_PUSHED_OLD_EDIT_BLOCK);
      796     6481    4                 END;
      797     6482    3              END;
      798     6483
      799     6484    3           IF OPEN_SUCCEEDED THEN DO;
      800     6485                   %INCREMENT (INDX=%STG_BLOCK_NIN_EDITBLOCK);
      801     6488    3              CALL VDG$OALLOC (%CLS_BLOCK_DESC, CURR$WINDOW.OPERAND.EDIT_BLOCK$)
      802     6489    3                ALTRET (OALLOC_FAILED);
      803     6490    3              EDIT_BLOCK$ = CURR$WINDOW.OPERAND.EDIT_BLOCK$;
      804     6491    3              EDIT$BLOCK.FILE_KEY = IT$BLOCK_EXPR.DOMAINN.FILE_KEY;
      805     6492    3              EDIT$BLOCK.RANGE = IT$BLOCK_EXPR.DOMAINN.RANGE;
      806     6493    3              IT$BLOCK_EXPR.DOMAINN = %CLEAR;
      807     6494    3              EDIT$BLOCK.OPTIONS = IT$BLOCK_EXPR.OPTIONS;
      808     6495
      809     6496    3              CALL VDG$OALLOC (%CLS_EVAL, CURR$WINDOW.OPERAND.EVAL$)
      810     6497    3                ALTRET (OALLOC_FAILED);
      811     6498    3              CURR_EVAL$ = CURR$WINDOW.OPERAND.EVAL$;
      812     6499    3              CALL VDG$OCOPY_RANGE (EDIT$BLOCK.RANGE, CURR$EVAL.ENCLOSING)
      813     6500    3                ALTRET (OCOPY_RANGE_FAILED);
PL6.E3A0      #001=VDE$IOPEN File=VDE$INTERPRET.:VDA5TSI                         FRI 07/04/97 11:11 Page:24
      814     6501    3              CALL VDG$OCOPY_RANGE (EDIT$BLOCK.RANGE, CURR$EVAL.RANGE)
      815     6502    3                ALTRET (OCOPY_RANGE_FAILED);
      816     6503    3              CURR$EVAL.STATE# = %EVST_INITIAL;
      817     6504    3              END;
      818     6505
      819     6506    2           NEW_CHILD_ALLOCATED = %FALSE;
      820     6507    3           IF CURR$BLOCK.EDIT_BLOCK$ ~= ADDR(NIL) THEN DO;
      821     6508    3              CALL VDG$OALLOC (%CLS_WINDOW_BLOCK, CURR_BLOCK$)
      822     6509    3                ALTRET (OALLOC_FAILED);
      823     6510    3              NEW_CHILD_ALLOCATED = %TRUE;
      824     6511    3              END;
      825     6512
      826     6513    3           IF CURR$WINDOW.OPERAND.EDIT_BLOCK$ ~= ADDR(NIL) THEN DO;
      827     6514    3              CALL VDG$OCOPY (CURR$WINDOW.OPERAND.EDIT_BLOCK$->VD$BLOCK_DESC,
      828     6515    3                CURR$BLOCK.EDIT_BLOCK$)
      829     6516    3                ALTRET (OCOPY_FAILED);
      830     6517    3              END;
      831     6518    3           IF CURR$WINDOW.OPERAND.EVAL$ ~= ADDR(NIL) THEN DO;
      832     6519    3              CALL VDG$OCOPY (CURR$WINDOW.OPERAND.EVAL$ -> VD$EVAL,
      833     6520    3                CURR$BLOCK.EVAL$)
      834     6521    3                ALTRET (OCOPY_FAILED);
      835     6522    3              END;
      836     6523
      837     6524    3           IF NEW_CHILD_ALLOCATED THEN DO;
      838     6525    3              WBLOCK_SPEC = %CLEAR;
      839     6526    3              WBLOCK_SPEC.TYPE# = %SPT_WINDOW_BLOCK;
      840     6527    3              WBLOCK_SPEC.REP# = %REP_REMOTE;
      841     6528    3              WBLOCK_SPEC.V$ = CURR_BLOCK$;
      842     6529    3              WBLOCK_LOC = %CLEAR;
      843     6530    3              WBLOCK_LOC.KEY (%LVL_LOWER-1) = WINDOW_NODE.DESC.KEY;
      844     6531    3              WBLOCK_LOC.KEY.TYPE# (%LVL_LOWER) = %KT_NUMBER;
      845     6532    3              WBLOCK_LOC.KEY.REP# (%LVL_LOWER) = %REP_LOCAL;
      846     6533    3              ADDR(WBLOCK_LOC.KEY (%LVL_LOWER)) -> VD$KEY_NUMBER.LENGTH# =
      847     6534    3                %NB_NUMERIC_KEY;
      848     6535    3              ADDR(WBLOCK_LOC.KEY (%LVL_LOWER)) -> VD$KEY_NUMBER.BYTES# =
      849     6536    3                WINDOW_NODE.COUNT#;     /* Key for new level-2 child */
      850     6537    3              CURR$WINDOW.CURR_INDEX# = WINDOW_NODE.COUNT#;
PL6.E3A0      #001=VDE$IOPEN File=VDE$INTERPRET.:VDA5TSI                         FRI 07/04/97 11:11 Page:25
      851     6538    3              CALL VDA$LWRITE (WINDOWS$STREAM, WBLOCK_LOC, WBLOCK_SPEC)
      852     6539    3                ALTRET (LWRITE_FAILED);
      853     6540    3              CALL VDA$PFLUSH (WINDOWS$STREAM.PORT$->VD$PORT, %TO_PRESENTER)
      854     6541    3                ALTRET (PFLUSH_FAILED);
      855     6542    3              END;
      856     6543
      857     6544    2           IF NOT OPEN_SUCCEEDED THEN
      858     6545    2              ALTRETURN;
      859     6546    2           RETURN;
      860     6547
      861     6548
      862     6549
      863     6550    2   LWRITE_FAILED:
      864     6551    2           CALL VDG$OFREE (CURR$BLOCK)
      865     6552    2             ALTRET (OFREE_FAILED);
      866     6553    2           ALTRETURN;
      867     6554
      868     6555
      869     6556    2   LDELETE_FAILED:
      870     6557                /* Make this a fatal error (which must be first in chain) */
      871     6558    3           IF VD_6E.ERR_TAIL$ ~= VD_6E.ERR_HEAD$ THEN DO;
      872     6559    3              VD$ERR_FIRST = VD$ERR_LAST;
      873     6560    3              VD$ERR_FIRST.FLAGLEV# = %FLV_FATAL;
      874     6561    3              END;
      875     6562    2           ALTRETURN;
      876     6563
      877     6564
      878     6565    2   OFREE_FAILED: ;
      879     6566    2   PREMOVE_EDIT_BLOCK_FAILED: ;
      880     6567    2   PFLUSH_FAILED: ;
      881     6568    2   OALLOC_FAILED: ;
      882     6569    2   OCOPY_RANGE_FAILED: ;
      883     6570    2   OCOPY_LOCATION_FAILED: ;
      884     6571    2   OCOPY_FAILED: ;
      885     6572    2           ALTRETURN;
      886     6573
      887     6574    2   END NEW_EDIT_BLOCK;
PL6.E3A0      #001=VDE$IOPEN File=VDE$INTERPRET.:VDA5TSI                         FRI 07/04/97 11:11 Page:26
      888     6575
      889     6576    1   END VDE$IOPEN;
      890     6577        %EOD;

PL6.E3A0      #001=VDE$IOPEN File=VDE$INTERPRET.:VDA5TSI                         FRI 07/04/97 11:11 Page:27
--  Include file information  --

   VD_PERR_C.:VDA5TOU  is referenced.
   VD_MACROS_M.:VDA5TOU  is referenced.
   B$JIT_C.:E04TOU  was found in the system file and is never referenced.
   CP_6_C.:E04TOU  was found in the system file and is never referenced.
      No diagnostics issued in procedure VDE$IOPEN.

   Procedure VDE$IOPEN requires 754 words for executable code.
   Procedure VDE$IOPEN requires 54 words of local(AUTO) storage.

PL6.E3A0      #001=VDE$IOPEN File=VDE$INTERPRET.:VDA5TSI                         FRI 07/04/97 11:11 Page:28

 Object Unit name= VDE$IOPEN                                  File name= VDE$INTERPRET.:VDA5TOU
 UTS= JUL 04 '97 11:11:05.48 FRI                              Compiler= PL-6/E31         Sev=      00
 SharedLib= :SHARED_SYSTEM                                    Alt SharedLib=


    ****  Control sections  ****

 Sect   Type Bound  Init  Size OctSiz  Section name(segment info)
    0  RoData even  UTS      4      4  VDE$IOPEN
    1   Proc  even  none   754   1362  VDE$IOPEN
    2  RoData even  none    20     24  VDE$IOPEN

    ****  Entry defs  ****

                              Check   Calling
                             calling  sequence
  Sect OctLoc Primary Altret sequence   type   Parms  Name
     1      0   yes    yes     yes      Std        0  VDE$IOPEN
     1     51          yes     yes      Std        0  VDE$IOPEN_SOURCE
PL6.E3A0      #001=VDE$IOPEN File=VDE$INTERPRET.:VDA5TSI                         FRI 07/04/97 11:11 Page:29

  ****  Entry refs  ****

         Check        Calling
        calling       sequence
Altret sequence SRef   type   Args  Name
 yes     yes           Std       3 VDG$OALLOC
 yes     yes           Std       1 VDG$OCLEAR_RANGE
 yes     yes           Std       1 VDG$OFREE
 yes     yes           Std       2 VDG$OCOPY
 yes     yes           Std       4 VDG$ERRMSG
 yes     yes           Std       2 VDG$OCOPY_RANGE
 yes     yes           Std       0 VDI$PREMOVE_EDIT_BLOCK
 yes     yes           Std       4 VDA$FOPEN
 yes     yes           Std       2 VDA$LDELETE
 yes     yes           Std       4 VDA$LWRITE
 yes     yes           Std       4 VDG$INFOMSG
 yes     yes           Std       2 VDA$PFLUSH
                       nStd      0 X66_AUTO_0
                       Std       0 B_CONSPOOL_D
                       nStd      0 X66_AALT
                       nStd      0 X66_ARET

  ****  Data refs  ****

  Flags:  r = read only, s = secondary
Flgs Name                             Flgs Name                             Flgs Name
     VD_6E                                 VD_CURRENT_WINDOW$                    B_VECTNIL

  ****  Segment refs  ****

  Flags:  r = read only, s = secondary
Flgs Name                             Flgs Name                             Flgs Name
     ISSID
PL6.E3A0      #001=VDE$IOPEN File=VDE$INTERPRET.:VDA5TSI                         FRI 07/04/97 11:11 Page:30


        1        1        /*M* VDE$INTERPRET - Interpret a window's InTree */
        2        2        /*T***********************************************************/
        3        3        /*T*                                                         */
        4        4        /*T* Copyright (c) Bull HN Information Systems Inc., 1997    */
        5        5        /*T*                                                         */
        6        6        /*T***********************************************************/
        7        7
        8        8        /*X* MCR=NO, DMC=YES */
        9        9        /*T*/
       10       10
       11       11        /*P* NAME:  VDE$INTERPRET
       12       12            PURPOSE:  Interpret a window's InTree.
       13       13            DESCRIPTION:
       14       14                This module contains several external routines:
       15       15
       16       16                VDE$IOPEN
       17       17                Given an editing window, will initialize the window's
       18       18                evaluation stack for the first call to VDE$IRANGE, then open
       19       19                the window's stream to the InTree's domain.
       20       20
       21       21                VDE$IOPEN_SOURCE
       22       22                Version of VDE$IOPEN for opening the source operand.
       23       23                Initializes the source operand for the first call to
       24       24                VDE$IRANGE, except that it doesn't open the stream yet.
       25       25
       26       26                VDE$IRANGE
       27       27                Given an operand whose stream has already been opened to
       28       28                the operand's InTree's domain, VDE$IRANGE will evaluate the
       29       29                InTree, call the Accessor to find the
       30       30                exact record key and position within the record of the
       31       31                start and end bounds of the range, and store that info
       32       32                in the operand's .EVAL.  To perform a
       33       33                repeated operation, the caller should first open the
       34       34                operand to the InTree's domain, then call VDE$IRANGE
       35       35                repeatedly:  VDE$IRANGE will either return a false signal, or
       36       36                will return a true signal and the evaluated range of the InTree.
PL6.E3A0      #001=VDE$IOPEN File=VDE$INTERPRET.:VDA5TSI                         FRI 07/04/97 11:11 Page:31
       37       37
       38       38                VDE$IADJUST
       39       39                Given an IT_ADJUST InTree node for an operand, will
       40       40                evaluate the children of the IT_ADJUST node and return a
       41       41                spec of the location to which they move the FilePointer,
       42       42                and a signal indicating success or failure of the evaluation.
       43       43
       44       44                VDE$IMOVE_BY_POSITIONS
       45       45                Given an open stream and a number of positions to move from a
       46       46                starting location, will find the location which is that number
       47       47                of existing data-component bytes away from the starting location,
       48       48                moving either forward or backward.
       49       49
       50       50                VDE$IGUAR_RANGE_IN_RANGE
       51       51                Given two two VD$RANGEs, one representing a range to check
       52       52                and the other representing the limits against which to check
       53       53                the first range, guarantee that the first range lies within
       54       54                the second range.  Will truncate the range to make it fit,
       55       55                even to the point of yielding an empty range.
       56       56        */
       57       57
       58       58        /*D* NAME:  VDE$IOPEN
       59       59            INPUT:
       60       60                WINDOW_NODE - VD$FILE_NODE at level-1 of the Windows file
       61       61                    for the window to open.  Pointed to by VD_CURRENT_WINDOW$.
       62       62                OPERAND - VD$OPERAND to open; must be WINDOW_NODE's
       63       63                        VD$WINDOW_SPEC.OPERAND:
       64       64                    .STREAM$ must be non-NIL, tho the stream need not be
       65       65                        open yet.
       66       66                    .INTREE$ must point to a VD$IT_BLOCK_EXPR:
       67       67                        If .DOMAINN is %CLEAR, this indicates that the domain
       68       68                            of the block expression is the same as OPERAND's
       69       69                            EditBlock.  OPERAND.EDIT_BLOCK$ must not be NIL.
       70       70                            The InTree's .OPTIONS must contain only those
       71       71                            processing/access options explicitly given by
       72       72                            the user.
       73       73                        If .DOMAINN is not %CLEAR, it must specify the new
PL6.E3A0      #001=VDE$IOPEN File=VDE$INTERPRET.:VDA5TSI                         FRI 07/04/97 11:11 Page:32
       74       74                            EditBlock for the operand.  .OPERAND.EDIT_BLOCK$
       75       75                            may or may not be NIL.  The InTree's .OPTIONS must
       76       76                            contain a complete set of options, unless
       77       77                            .DOMAINN.NEXT or .PREVIOUS is set, in which case
       78       78                            only the options explicitly given by the user
       79       79                            should be set.
       80       80                    .EVAL$ may or may not be NIL.
       81       81            OUTPUT:
       82       82                If OPERAND's InTree's .DOMAINN was non-%CLEAR, an implicit
       83       83                    EDIT command will have been performed for this operand:
       84       84                    OPERAND.EDIT_BLOCK will have a new block-descriptor value.
       85       85                        However, if any errors are encountered, it will have no
       86       86                        value.
       87       87                    WINDOW_NODE's children will be mucked with:
       88       88                    If .DOMAINN.NEXT and .PREVIOUS are %FALSE, WINDOW_NODE's current
       89       89                        child (VD$WINDOW_BLOCK) will contain WINDOW_NODE's old
       90       90                        .OPERAND; also, if that .OPERAND is non-NIL, a new child will
       91       91                        be allocated for the new EditBlock.
       92       92                    If .DOMAINN.NEXT or .PREVIOUS is set, then the
       93       93                        VD$WINDOW_SPEC.CURR_INDEX# will be incremented or
       94       94                        decremented, as appropriate.
       95       95                OPERAND.EVAL$ will be initialized:
       96       96                    OPERAND.EVAL$ will not be NIL.  It's:
       97       97                    .ENCLOSING will be the range from the (possibly new)
       98       98                        EditBlock.
       99       99                    .RANGE will be either:
      100      100                        New domain:  the start boundary of the new EditBlock.
      101      101                        Old domain:  untouched (and so should be the range of
      102      102                            the last SelectedBlock).
      103      103                    .LAST_FOUND_RANGE will be cleared.
      104      104                    .NODE$ will point to the first IT_SELECT node in the
      105      105                        InTree (if any).
      106      106                    .REMAINING# will be set from that IT_SELECT node's
      107      107                        repeat-count (or 0 if no IT_SELECT node).
      108      108                OPERAND.INTREE$'s .DOMAINN will be %CLEAR.
      109      109                    Also, its .OPTIONS will be filled in, if they aren't
      110      110                    already, from the (possibly new) EditBlock's options.
PL6.E3A0      #001=VDE$IOPEN File=VDE$INTERPRET.:VDA5TSI                         FRI 07/04/97 11:11 Page:33
      111      111            DESCRIPTION:
      112      112        *N*     If .DOMAINN is %CLEAR, check the IT$BLOCK_EXPR.OPTIONS:
      113      113        *N*     if any are non-0/CLEAR/NIL (ie, explicitly given by user),
      114      114        *N*     update the current EDIT$BLOCK to reflect the change:
      115      115        *N*         If .STRUCTURE$ given, the new Structure's accessor-
      116      116        *N*             structure must be the same as the old Structure's
      117      117        *N*             accessor-structure.
      118      118        *N*         If the level or component options change and
      119      119        *N*             WINDOW_NODE is passed, tell the Presenter to
      120      120        *N*             erase the window (it'll repaint it properly on
      121      121        *N*             the next read).
      122      122        *N*         If the protect option changes, close and reopen the
      123      123        *N*             file.
      124      124        *N*         Ignore existence option changes between ANY and OLD,
      125      125        *N*             but reject an IT$BLOCK_EXPR.OPTION of NEW when
      126      126        *N*             the EDIT$BLOCK shows ANY or OLD.
      127      127                If the InTree's .DOMAINN is non-%CLEAR, then do an
      128      128                implicit EDIT command:
      129      129                    If .DOMAINN.PREVIOUS is set, save WINDOW$SPEC.OPERAND's
      130      130                        current EditBlock and evaluation stack in the
      131      131                        current WindowBlock, decrement the WindowBlock
      132      132                        index, and reload the EditBlock and evaluation
      133      133                        stack from that WindowBlock.
      134      134                    If .DOMAINN.NEXT is set, do analogous actions in the
      135      135                        forward direction.
      136      136                    Else we've got a whole new EditBlock:
      137      137                        Delete any WindowBlock's after the current one.
      138      138                        Save WINDOW$SPEC.OPERAND's current EditBlock and
      139      139                            evaluation stack in the current WindowBlock.
      140      140                        Allocate a new EditBlock, and initialize it to the InTree's
      141      141                            .DOMAINN.
      142      142                        Set WINDOW$SPEC.OPERAND.EVAL$'s .RANGE to the new EditBlock.
      143      143                        If the window's current child is occupied (ie, if the prior
      144      144                            .OPERAND was non-NIL), then write a new child to this
      145      145                            window containing the window's current EditBlock and
      146      146                            evaluation stack.
      147      147                        Else (if the window's current child is unoccupied), save the
PL6.E3A0      #001=VDE$IOPEN File=VDE$INTERPRET.:VDA5TSI                         FRI 07/04/97 11:11 Page:34
      148      148                            window's current EditBlock and evaluation stack in the
      149      149                            current child.
      150      150                    Open OPERAND's Stream to the EditBlock's file.
      151      151                Initialize OPERAND.EVAL$ for the first call to VDE$IRANGE.
      152      152                    Set its .ENCLOSING from OPERAND.EDIT_BLOCK$'s range.
      153      153        */
      154      154
      155      155        VDE$IOPEN: PROC ALTRET;

    155  1 000000   000000 700200 xent  VDE$IOPEN    TSX0  ! X66_AUTO_0
         1 000001   000066 000000                    ZERO    54,0

      156      156
      157      157        %INCLUDE VD_MACROS_M;
      158     2372        %INCLUDE VD_PERR_C;
      159     2520
      160     2521
      161     2522        %VD$FILE_NODE (NAME=WINDOW_NODE, STCLASS="BASED(VD_CURRENT_WINDOW$)");
      162     2615        %VD$OPERAND (NAME=OPERAND, STCLASS="BASED(OPERAND$)");
      163     2629
      164     2630
      165     2631        /*
      166     2632        *   Local equates.
      167     2633        */
      168     2634        %EQU SCRATCH_FNAME = CONCAT(FSTCL_INTERNAL, PFK_CONSTANT, DK_SCRATCH);
      169     2635
      170     2636
      171     2637
      172     2638    1   DCL VDG$OALLOC          ENTRY (3) ALTRET;
      173     2639    1   DCL VDG$OFREE           ENTRY (1) ALTRET;
      174     2640    1   DCL VDG$OCOPY           ENTRY (2) ALTRET;
      175     2641    1   DCL VDG$OCLEAR_RANGE    ENTRY (1) ALTRET;
      176     2642    1   DCL VDG$OCOPY_RANGE     ENTRY (2) ALTRET;
      177     2643    1   DCL VDG$OCOPY_LOCATION  ENTRY (2) ALTRET;
      178     2644    1   DCL VDA$FOPEN           ENTRY (4) ALTRET;
      179     2645    1   DCL VDA$LWRITE          ENTRY (4) ALTRET;
      180     2646    1   DCL VDA$LDELETE         ENTRY (2) ALTRET;
PL6.E3A0      #001=VDE$IOPEN File=VDE$INTERPRET.:VDA5TSI                         FRI 07/04/97 11:11 Page:35
      181     2647    1   DCL VDA$PFLUSH          ENTRY (2) ALTRET;
      182     2648    1   DCL VDI$PREMOVE_EDIT_BLOCK  ENTRY ALTRET;
      183     2649    1   DCL VDG$ESCREECH        ENTRY (3);
      184     2650    1   DCL VDG$ERRMSG          ENTRY (4) ALTRET;
      185     2651    1   DCL VDG$INFOMSG         ENTRY (4) ALTRET;
      186     2652
      187     2653
      188     2654        %VD_6E (STCLASS=SYMREF);
      189     2690    1   DCL VD_CURRENT_WINDOW$ PTR SYMREF;
      190     2691
      191     2692
      192     2693
      193     2694    1   DCL OPERAND$ PTR;
      194     2695    1   DCL CURR_WINDOW$ PTR;
      195     2696    1   DCL IT_BLOCK_EXPR$ PTR;
      196     2697    1   DCL IT_SELECT$ PTR;
      197     2698    1   DCL TOS_EVAL$ PTR;
      198     2699    1   DCL EDIT_BLOCK$ PTR;
      199     2700    1   DCL DOMAIN_KEY$ PTR;
      200     2701    1   DCL VD_ERR$ PTR;
      201     2702
      202     2703
      203     2704        %VD$IT_BLOCK_EXPR (NAME=IT$BLOCK_EXPR, STCLASS="BASED(IT_BLOCK_EXPR$)");
      204     2854        %VD$IT_SELECT (NAME=IT$SELECT, STCLASS="BASED(IT_SELECT$)");
      205     2891        %VD$EVAL (NAME=TOS$EVAL, STCLASS="BASED(TOS_EVAL$)");
      206     3136        %VD$STREAM (NAME=WINDOWS$STREAM, STCLASS="BASED(VD_6E.WINDOWS$)");
      207     3242        %VD$BLOCK_DESC (NAME=EDIT$BLOCK, STCLASS="BASED(EDIT_BLOCK$)");
      208     3389        %VD$FILE_KEY (NAME=DOMAIN$KEY, STCLASS="BASED(DOMAIN_KEY$)");
      209     3438        %VD$TEXTC_REMOTE;
      210     3499        %VD$WINDOW_SPEC (NAME=CURR$WINDOW, STCLASS="BASED(CURR_WINDOW$)");
      211     3565        %VD$ERR (NAME=VD$ERR_LAST, STCLASS="BASED(VD_6E.ERR_TAIL$)");
      212     3618        %VD$ERR (NAME=VD$ERR_FIRST, STCLASS="BASED(VD_6E.ERR_HEAD$)");
      213     3671        %VD$PORT;
      214     3769
      215     3770
      216     3771
      217     3772    1           CURR_WINDOW$ = WINDOW_NODE.DESC.SPEC.V$;
PL6.E3A0      #001=VDE$IOPEN File=VDE$INTERPRET.:VDA5TSI                         FRI 07/04/97 11:11 Page:36

   3772  1 000002   000000 470400 xsym               LDP0    VD_CURRENT_WINDOW$
         1 000003   000007 236100                    LDQ     7,,PR0
         1 000004   200004 756100                    STQ     CURR_WINDOW$,,AUTO

      218     3773    1           OPERAND$ = ADDR(CURR$WINDOW.OPERAND);

   3773  1 000005   000010 036003                    ADLQ    8,DU
         1 000006   200003 756100                    STQ     OPERAND$,,AUTO

      219     3774    1           IT_BLOCK_EXPR$ = OPERAND.INTREE$;

   3774  1 000007   200003 471500                    LDP1    OPERAND$,,AUTO
         1 000010   100001 236100                    LDQ     1,,PR1
         1 000011   200005 756100                    STQ     IT_BLOCK_EXPR$,,AUTO

      220     3775
      221     3776    2           IF IT$BLOCK_EXPR.DOMAINN = %CLEAR THEN DO;

   3776  1 000012   200005 473500                    LDP3    IT_BLOCK_EXPR$,,AUTO
         1 000013   000000 106500                    CMPC    fill='000'O
         1 000014   300003 000124                    ADSC9   3,,PR3                   cn=0,n=84
         1 000015   000002 000002 xsym               ADSC9   B_VECTNIL+2              cn=0,n=2
         1 000016   000023 601000 1                  TNZ     s:3784

      222     3777                   %INCREMENT (INDX=%STG_BLOCK_IN_EDITBLOCK);

   3778  1 000017   000041 054000 xsym               AOS     VD_6E+33

      223     3780    2              CALL UPDATE_OPTIONS

   3780  1 000020   000361 701000 1                  TSX1    UPDATE_OPTIONS
         1 000021   000360 702000 1                  TSX2    OCOPY_FAILED

      224     3781    2                ALTRET (UPDATE_OPTIONS_FAILED);
      225     3782    2              END;

PL6.E3A0      #001=VDE$IOPEN File=VDE$INTERPRET.:VDA5TSI                         FRI 07/04/97 11:11 Page:37
   3782  1 000022   000050 710000 1                  TRA     s:3806

      226     3783    2           ELSE DO;

      227     3784    2              IF IT$BLOCK_EXPR.DOMAINN.NEXT

   3784  1 000023   300003 234100                    SZN     3,,PR3
         1 000024   000030 604000 1                  TMI     s:3786
         1 000025   300003 236100                    LDQ     3,,PR3
         1 000026   200000 316003                    CANQ    65536,DU
         1 000027   000033 600000 1                  TZE     s:3796

      228     3785    3                OR IT$BLOCK_EXPR.DOMAINN.PREVIOUS THEN DO;

      229     3786    3                 CALL NEXT_PREV_DOMAIN

   3786  1 000030   000437 701000 1                  TSX1    NEXT_PREV_DOMAIN
         1 000031   000360 702000 1                  TSX2    OCOPY_FAILED

      230     3787    3                   ALTRET (NEXT_PREV_DOMAIN_FAILED);
      231     3788    3                 END;

   3788  1 000032   000050 710000 1                  TRA     s:3806

      232     3789    3              ELSE DO;

      233     3790                      /*
      234     3791                      *   If the new domain is a Scratch file, it's an error:
      235     3792                      *     only source blocks can be Scratch files, and source
      236     3793                      *     blocks go through VDE$IOPEN_SOURCE, never VDE$IOPEN.
      237     3794                      *N*  Someday, may want to allow editing scratch files???
      238     3795                      */
      239     3796    3                 DOMAIN_KEY$ = IT$BLOCK_EXPR.DOMAINN.FILE_KEY.V$;

   3796  1 000033   300005 236100                    LDQ     5,,PR3
         1 000034   200011 756100                    STQ     DOMAIN_KEY$,,AUTO

PL6.E3A0      #001=VDE$IOPEN File=VDE$INTERPRET.:VDA5TSI                         FRI 07/04/97 11:11 Page:38
      240     3797    3                 IF DOMAIN$KEY.UNIQUE.FNAME.LENGTH# >= %LENGTHC(SCRATCH_FNAME)

   3797  1 000035   200011 474500                    LDP4    DOMAIN_KEY$,,AUTO
         1 000036   400004 236100                    LDQ     4,,PR4
         1 000037   000777 376003                    ANQ     511,DU
         1 000040   000016 116003                    CMPQ    14,DU
         1 000041   000046 602000 1                  TNC     s:3801
         1 000042   040000 106500                    CMPC    fill='040'O
         1 000043   400004 400016                    ADSC9   4,,PR4                   cn=2,n=14
         1 000044   000000 000016 0                  ADSC9   0                        cn=0,n=14
         1 000045   000354 600000 1                  TZE     CANT_EDIT_SCRATCH_FAILURE

      241     3798    3                   AND SUBSTR(DOMAIN$KEY.UNIQUE.FNAME.BYTES,
      242     3799    3                   0, %LENGTHC(SCRATCH_FNAME)) = %SCRATCH_FNAME THEN
      243     3800    3                    GOTO CANT_EDIT_SCRATCH_FAILURE;
      244     3801    3                 CALL NEW_EDIT_BLOCK

   3801  1 000046   000717 701000 1                  TSX1    NEW_EDIT_BLOCK
         1 000047   000360 702000 1                  TSX2    OCOPY_FAILED

      245     3802    3                   ALTRET (NEW_EDIT_BLOCK_FAILED);
      246     3803    3                 END;

      247     3804    2              END;

      248     3805
      249     3806    1           GOTO COMMON_FINISH;

   3806  1 000050   000251 710000 1                  TRA     COMMON_FINISH

      250     3807        %EJECT;
PL6.E3A0      #001=VDE$IOPEN File=VDE$INTERPRET.:VDA5TSI                         FRI 07/04/97 11:11 Page:39
      251     3808        /*D* NAME:  VDE$IOPEN_SOURCE
      252     3809            INPUT:
      253     3810                VD_6E.SOURCE.OPERAND - The VD$OPERAND to open:
      254     3811                    .STREAM$ must be non-NIL, tho the stream need not be
      255     3812                        open yet.
      256     3813                    .INTREE$, .EDIT_BLOCK$, and .EVAL$ may be non-NIL; their
      257     3814                        values at entry are discarded.
      258     3815                VD_CURRENT_WINDOW$ - Ptr to VD$FILE_NODE at level 1 of the
      259     3816                    Windows file, for the current editing window.  In this
      260     3817                    window's VD$WINDOW_SPEC.OPERAND:
      261     3818                    .INTREE$ must point to a VD$IT_BLOCK_EXPR:
      262     3819                        If .DOMAINN is %CLEAR, this indicates that the domain
      263     3820                            of the block expression is the same as OPERAND's
      264     3821                            EditBlock.  OPERAND.EDIT_BLOCK$ must not be NIL.
      265     3822                            The InTree's .OPTIONS must contain only those
      266     3823                            processing/access options explicitly given by
      267     3824                            the user.
      268     3825                        If .DOMAINN is not %CLEAR, it must specify the new
      269     3826                            EditBlock for the operand.  .OPERAND.EDIT_BLOCK$
      270     3827                            may or may not be NIL.  The InTree's .OPTIONS must
      271     3828                            contain a complete set of options, unless
      272     3829                            .DOMAINN.NEXT or .PREVIOUS is set, in which case
      273     3830                            only the options explicitly given by the user
      274     3831                            should be set.
      275     3832                    .EVAL$ may or may not be NIL.
      276     3833            OUTPUT:
      277     3834                VD_6E.SOURCE.OPERAND:
      278     3835                    .INTREE$ will now point to (and "own") the editing window's
      279     3836                        InTree.
      280     3837                    .EDIT_BLOCK$ will point to a new VD$BLOCK_DESC for the
      281     3838                        enclosing block for the source operand.
      282     3839                    .EVAL$ will point to a new VD$EVAL:
      283     3840                        .ENCLOSING will be the range from the (possibly new)
      284     3841                            EditBlock.
      285     3842                        .RANGE will be either:
      286     3843                            New domain:  the start boundary of the new EditBlock.
      287     3844                            Old domain:  untouched (and so should be the range of
PL6.E3A0      #001=VDE$IOPEN File=VDE$INTERPRET.:VDA5TSI                         FRI 07/04/97 11:11 Page:40
      288     3845                                the last SelectedBlock).
      289     3846                    .LAST_FOUND_RANGE will be cleared.
      290     3847                        .NODE$ will point to the first IT_SELECT node in the
      291     3848                            InTree (if any).
      292     3849                        .REMAINING# will be set from that IT_SELECT node's
      293     3850                            repeat-count (or 0 if no IT_SELECT node).
      294     3851                    .INTREE$'s .DOMAINN will be %CLEAR.
      295     3852                        Also, its .OPTIONS will be filled in, if they aren't
      296     3853                        already, from the (possibly new) EditBlock's options.
      297     3854                The current editing window's .OPERAND.INTREE$ will be NIL.
      298     3855            DESCRIPTION:
      299     3856                Free the objects currently pointed-to by VD_6E.SOURCE.OPERAND's
      300     3857                    .INTREE$, .EDIT_BLOCK$, and .EVAL$.
      301     3858                Move the InTree from the editing window's .OPERAND to
      302     3859                    VD_6E.SOURCE.OPERAND.
      303     3860                If the InTree's .DOMAINN is clear:
      304     3861                    Copy the editing window's .EDIT_BLOCK$ to VD_6E.SOURCE.
      305     3862                    Copy just the top entry of the editing window's evaluation
      306     3863                        stack (.OPERAND.EVAL$) to VD_6E.SOURCE.
      307     3864        *N*         Check the IT$BLOCK_EXPR.OPTIONS:
      308     3865        *N*         if any are non-0/CLEAR/NIL (ie, explicitly given by user),
      309     3866        *N*         update VD_6E.SOURCE.OPERAND.EDIT_BLOCK$ to reflect the
      310     3867        *N*         change:
      311     3868        *N*             If .STRUCTURE$ given, the new Structure's accessor-
      312     3869        *N*                 structure must be the same as the old Structure's
      313     3870        *N*                 accessor-structure.
      314     3871        *N*             Ignore existence option changes between ANY and OLD,
      315     3872        *N*                 but reject an IT$BLOCK_EXPR.OPTION of NEW when
      316     3873        *N*                 the EDIT$BLOCK shows ANY or OLD.
      317     3874                If the InTree's .DOMAINN is non-%CLEAR, build a new
      318     3875                VD_6E.SOURCE.OPERAND.EDIT_BLOCK$ and .EVAL$:
      319     3876                    If .DOMAINN.NEXT or .PREVIOUS is set, build the new
      320     3877                        EditBlock and .EVAL from the next or previous
      321     3878                        WindowBlock in the editing window's EditBlock stack.
      322     3879                    Else build the new EditBlock from .DOMAINN.FILE_KEY and
      323     3880                        .RANGE, and the new .EVAL from the new EditBlock.
      324     3881                Initialize VD_6E.SOURCE.OPERAND.EVAL$ for the first call to
PL6.E3A0      #001=VDE$IOPEN File=VDE$INTERPRET.:VDA5TSI                         FRI 07/04/97 11:11 Page:41
      325     3882                    VDE$IRANGE.  Set its .ENCLOSING from
      326     3883                    VD_6E.SOURCE.OPERAND.EDIT_BLOCK$'s range.
      327     3884        */
      328     3885
      329     3886    1   VDE$IOPEN_SOURCE: ENTRY ALTRET;

   3886  1 000051   000000 700200 xent  VDE$IOPEN_S* TSX0  ! X66_AUTO_0
         1 000052   000066 000000                    ZERO    54,0

      330     3887    1           CURR_WINDOW$ = WINDOW_NODE.DESC.SPEC.V$;

   3887  1 000053   000000 470400 xsym               LDP0    VD_CURRENT_WINDOW$
         1 000054   000007 236100                    LDQ     7,,PR0
         1 000055   200004 756100                    STQ     CURR_WINDOW$,,AUTO

      331     3888    1           OPERAND$ = ADDR(VD_6E.SOURCE.OPERAND);

   3888  1 000056   000000 236000 2                  LDQ     0
         1 000057   200003 756100                    STQ     OPERAND$,,AUTO

      332     3889
      333     3890    1           CALL VDG$OFREE (VD_6E.SOURCE.OPERAND.INTREE$ -> IT$BLOCK_EXPR)

   3890  1 000060   000021 630400 xsym               EPPR0   VD_6E+17
         1 000061   000017 631400 xsym               EPPR1   B_VECTNIL+15
         1 000062   000000 701000 xent               TSX1    VDG$OFREE
         1 000063   000360 702000 1                  TSX2    OCOPY_FAILED

      334     3891    1             ALTRET (OFREE_FAILED);
      335     3892    1           VD_6E.SOURCE.OPERAND.INTREE$ = CURR$WINDOW.OPERAND.INTREE$;

   3892  1 000064   200004 470500                    LDP0    CURR_WINDOW$,,AUTO
         1 000065   000011 236100                    LDQ     9,,PR0
         1 000066   000021 756000 xsym               STQ     VD_6E+17

      336     3893    1           IT_BLOCK_EXPR$ = CURR$WINDOW.OPERAND.INTREE$;

PL6.E3A0      #001=VDE$IOPEN File=VDE$INTERPRET.:VDA5TSI                         FRI 07/04/97 11:11 Page:42
   3893  1 000067   000011 236100                    LDQ     9,,PR0
         1 000070   200005 756100                    STQ     IT_BLOCK_EXPR$,,AUTO

      337     3894    1           CURR$WINDOW.OPERAND.INTREE$ = ADDR(NIL);

   3894  1 000071   000001 236000 xsym               LDQ     B_VECTNIL+1
         1 000072   000011 756100                    STQ     9,,PR0

      338     3895
      339     3896    1           CALL VDG$OFREE (VD_6E.SOURCE.OPERAND.EDIT_BLOCK$ -> EDIT$BLOCK)

   3896  1 000073   000022 630400 xsym               EPPR0   VD_6E+18
         1 000074   000017 631400 xsym               EPPR1   B_VECTNIL+15
         1 000075   000000 701000 xent               TSX1    VDG$OFREE
         1 000076   000360 702000 1                  TSX2    OCOPY_FAILED

      340     3897    1             ALTRET (OFREE_FAILED);
      341     3898    1           VD_6E.SOURCE.OPERAND.EDIT_BLOCK$ = ADDR(NIL);

   3898  1 000077   000001 236000 xsym               LDQ     B_VECTNIL+1
         1 000100   000022 756000 xsym               STQ     VD_6E+18

      342     3899
      343     3900    2           DO WHILE VD_6E.SOURCE.OPERAND.EVAL$ ~= ADDR(NIL);

   3900  1 000101   000113 710000 1                  TRA     s:3905

      344     3901    2              TOS_EVAL$ = VD_6E.SOURCE.OPERAND.EVAL$ -> TOS$EVAL.BLINK$;

   3901  1 000102   000023 470400 xsym               LDP0    VD_6E+19
         1 000103   000001 236100                    LDQ     1,,PR0
         1 000104   200007 756100                    STQ     TOS_EVAL$,,AUTO

      345     3902    2              CALL VDG$OFREE (VD_6E.SOURCE.OPERAND.EVAL$ -> TOS$EVAL)

   3902  1 000105   000023 630400 xsym               EPPR0   VD_6E+19
         1 000106   000017 631400 xsym               EPPR1   B_VECTNIL+15
PL6.E3A0      #001=VDE$IOPEN File=VDE$INTERPRET.:VDA5TSI                         FRI 07/04/97 11:11 Page:43
         1 000107   000000 701000 xent               TSX1    VDG$OFREE
         1 000110   000360 702000 1                  TSX2    OCOPY_FAILED

      346     3903    2                ALTRET (OFREE_FAILED);
      347     3904    2              VD_6E.SOURCE.OPERAND.EVAL$ = TOS_EVAL$;

   3904  1 000111   200007 236100                    LDQ     TOS_EVAL$,,AUTO
         1 000112   000023 756000 xsym               STQ     VD_6E+19

      348     3905    2              END;

   3905  1 000113   000023 236000 xsym               LDQ     VD_6E+19
         1 000114   000001 116000 xsym               CMPQ    B_VECTNIL+1
         1 000115   000102 601000 1                  TNZ     s:3901

      349     3906
      350     3907
      351     3908    1           IT$BLOCK_EXPR.OPTIONS.EXIST# = %EX_OLD; /* Source must exist */

   3908  1 000116   000002 220003                    LDX0    2,DU
         1 000117   200005 470500                    LDP0    IT_BLOCK_EXPR$,,AUTO
         1 000120   000032 440100                    SXL0    26,,PR0

      352     3909    2           IF IT$BLOCK_EXPR.DOMAINN = %CLEAR THEN DO;

   3909  1 000121   000000 106500                    CMPC    fill='000'O
         1 000122   000003 000124                    ADSC9   3,,PR0                   cn=0,n=84
         1 000123   000002 000002 xsym               ADSC9   B_VECTNIL+2              cn=0,n=2
         1 000124   000154 601000 1                  TNZ     s:3921

      353     3910    2              CALL VDG$OCOPY (CURR$WINDOW.OPERAND.EDIT_BLOCK$->EDIT$BLOCK,

   3910  1 000125   200004 471500                    LDP1    CURR_WINDOW$,,AUTO
         1 000126   100012 473500                    LDP3    10,,PR1
         1 000127   000001 236000 2                  LDQ     1
         1 000130   200063 756100                    STQ     WBLOCK_LOC+11,,AUTO
         1 000131   200062 453500                    STP3    WBLOCK_LOC+10,,AUTO
PL6.E3A0      #001=VDE$IOPEN File=VDE$INTERPRET.:VDA5TSI                         FRI 07/04/97 11:11 Page:44
         1 000132   200062 630500                    EPPR0   WBLOCK_LOC+10,,AUTO
         1 000133   000020 631400 xsym               EPPR1   B_VECTNIL+16
         1 000134   000000 701000 xent               TSX1    VDG$OCOPY
         1 000135   000360 702000 1                  TSX2    OCOPY_FAILED

      354     3911    2                VD_6E.SOURCE.OPERAND.EDIT_BLOCK$)
      355     3912    2                ALTRET (OCOPY_FAILED);
      356     3913    2              EDIT_BLOCK$ = VD_6E.SOURCE.OPERAND.EDIT_BLOCK$;

   3913  1 000136   000022 236000 xsym               LDQ     VD_6E+18
         1 000137   200010 756100                    STQ     EDIT_BLOCK$,,AUTO

      357     3914    2              CALL VDG$OCOPY (CURR$WINDOW.OPERAND.EVAL$->TOS$EVAL,

   3914  1 000140   200004 470500                    LDP0    CURR_WINDOW$,,AUTO
         1 000141   000013 471500                    LDP1    11,,PR0
         1 000142   000002 236000 2                  LDQ     2
         1 000143   200063 756100                    STQ     WBLOCK_LOC+11,,AUTO
         1 000144   200062 451500                    STP1    WBLOCK_LOC+10,,AUTO
         1 000145   200062 630500                    EPPR0   WBLOCK_LOC+10,,AUTO
         1 000146   000020 631400 xsym               EPPR1   B_VECTNIL+16
         1 000147   000000 701000 xent               TSX1    VDG$OCOPY
         1 000150   000360 702000 1                  TSX2    OCOPY_FAILED

      358     3915    2                VD_6E.SOURCE.OPERAND.EVAL$)
      359     3916    2                ALTRET (OCOPY_FAILED);
      360     3917    2              CALL UPDATE_OPTIONS

   3917  1 000151   000361 701000 1                  TSX1    UPDATE_OPTIONS
         1 000152   000360 702000 1                  TSX2    OCOPY_FAILED

      361     3918    2                ALTRET (UPDATE_OPTIONS_FAILED);
      362     3919    2              END;

   3919  1 000153   000246 710000 1                  TRA     s:3960

      363     3920    2           ELSE DO;
PL6.E3A0      #001=VDE$IOPEN File=VDE$INTERPRET.:VDA5TSI                         FRI 07/04/97 11:11 Page:45

      364     3921    2              IF IT$BLOCK_EXPR.DOMAINN.NEXT

   3921  1 000154   000003 234100                    SZN     3,,PR0
         1 000155   000161 604000 1                  TMI     s:3923
         1 000156   000003 236100                    LDQ     3,,PR0
         1 000157   200000 316003                    CANQ    65536,DU
         1 000160   000164 600000 1                  TZE     s:3927

      365     3922    3                OR IT$BLOCK_EXPR.DOMAINN.PREVIOUS THEN DO;

      366     3923    3                 CALL NEXT_PREV_DOMAIN

   3923  1 000161   000437 701000 1                  TSX1    NEXT_PREV_DOMAIN
         1 000162   000360 702000 1                  TSX2    OCOPY_FAILED

      367     3924    3                   ALTRET (NEXT_PREV_DOMAIN_FAILED);
      368     3925    3                 END;

   3925  1 000163   000246 710000 1                  TRA     s:3960

      369     3926    3              ELSE DO;

      370     3927    3                 CALL VDG$OALLOC (%CLS_BLOCK_DESC,

   3927  1 000164   000003 630400 2                  EPPR0   3
         1 000165   000020 631400 xsym               EPPR1   B_VECTNIL+16
         1 000166   000000 701000 xent               TSX1    VDG$OALLOC
         1 000167   000360 702000 1                  TSX2    OCOPY_FAILED

      371     3928    3                   VD_6E.SOURCE.OPERAND.EDIT_BLOCK$)
      372     3929    3                   ALTRET (OALLOC_FAILED);
      373     3930    3                 EDIT_BLOCK$ = VD_6E.SOURCE.OPERAND.EDIT_BLOCK$;

   3930  1 000170   000022 236000 xsym               LDQ     VD_6E+18
         1 000171   200010 756100                    STQ     EDIT_BLOCK$,,AUTO

PL6.E3A0      #001=VDE$IOPEN File=VDE$INTERPRET.:VDA5TSI                         FRI 07/04/97 11:11 Page:46
      374     3931    3                 EDIT$BLOCK.FILE_KEY = IT$BLOCK_EXPR.DOMAINN.FILE_KEY;

   3931  1 000172   200005 470500                    LDP0    IT_BLOCK_EXPR$,,AUTO
         1 000173   200010 471500                    LDP1    EDIT_BLOCK$,,AUTO
         1 000174   000100 100500                    MLR     fill='000'O
         1 000175   000004 000010                    ADSC9   4,,PR0                   cn=0,n=8
         1 000176   100001 000010                    ADSC9   1,,PR1                   cn=0,n=8

      375     3932    3                 EDIT$BLOCK.RANGE = IT$BLOCK_EXPR.DOMAINN.RANGE;

   3932  1 000177   000100 100500                    MLR     fill='000'O
         1 000200   000006 000110                    ADSC9   6,,PR0                   cn=0,n=72
         1 000201   100003 000110                    ADSC9   3,,PR1                   cn=0,n=72

      376     3933    3                 IT$BLOCK_EXPR.DOMAINN = %CLEAR;

   3933  1 000202   000100 100400                    MLR     fill='000'O
         1 000203   000002 000001 xsym               ADSC9   B_VECTNIL+2              cn=0,n=1
         1 000204   000003 000124                    ADSC9   3,,PR0                   cn=0,n=84

      377     3934    3                 EDIT$BLOCK.OPTIONS = IT$BLOCK_EXPR.OPTIONS;

   3934  1 000205   000100 100500                    MLR     fill='000'O
         1 000206   000030 000024                    ADSC9   24,,PR0                  cn=0,n=20
         1 000207   100025 000024                    ADSC9   21,,PR1                  cn=0,n=20

      378     3935                      %COPYKEY (FKEY=IT$BLOCK_EXPR.OPTIONS.KEY_INCR,
      379     3936                      TKEY=EDIT$BLOCK.OPTIONS.KEY_INCR);

   3949  1 000210   000100 100500                    MLR     fill='000'O
         1 000211   000033 000010                    ADSC9   27,,PR0                  cn=0,n=8
         1 000212   100030 000010                    ADSC9   24,,PR1                  cn=0,n=8

   3949  1 000213   000033 720100                    LXL0    27,,PR0
         1 000214   000002 100003                    CMPX0   2,DU
         1 000215   000230 601000 1                  TNZ     s:3953

PL6.E3A0      #001=VDE$IOPEN File=VDE$INTERPRET.:VDA5TSI                         FRI 07/04/97 11:11 Page:47
   3949  1 000216   000034 473500                    LDP3    28,,PR0
         1 000217   000031 036003                    ADLQ    25,DU
         1 000220   200063 756100                    STQ     WBLOCK_LOC+11,,AUTO
         1 000221   200062 453500                    STP3    WBLOCK_LOC+10,,AUTO
         1 000222   200062 630500                    EPPR0   WBLOCK_LOC+10,,AUTO
         1 000223   000020 631400 xsym               EPPR1   B_VECTNIL+16
         1 000224   000000 701000 xent               TSX1    VDG$OCOPY
         1 000225   000227 702000 1                  TSX2    s:3950
         1 000226   000230 710000 1                  TRA     s:3953

   3950  1 000227   000000 702200 xent               TSX2  ! X66_AALT

      380     3952
      381     3953    3                 CALL VDG$OALLOC (%CLS_EVAL, VD_6E.SOURCE.OPERAND.EVAL$)

   3953  1 000230   000005 630400 2                  EPPR0   5
         1 000231   000020 631400 xsym               EPPR1   B_VECTNIL+16
         1 000232   000000 701000 xent               TSX1    VDG$OALLOC
         1 000233   000360 702000 1                  TSX2    OCOPY_FAILED

      382     3954    3                   ALTRET (OALLOC_FAILED);
      383     3955    3                 CALL VDG$OCOPY_RANGE (EDIT$BLOCK.RANGE,

   3955  1 000234   000023 236000 xsym               LDQ     VD_6E+19
         1 000235   000024 036003                    ADLQ    20,DU
         1 000236   200063 756100                    STQ     WBLOCK_LOC+11,,AUTO
         1 000237   200010 236100                    LDQ     EDIT_BLOCK$,,AUTO
         1 000240   000003 036003                    ADLQ    3,DU
         1 000241   200062 756100                    STQ     WBLOCK_LOC+10,,AUTO
         1 000242   200062 630500                    EPPR0   WBLOCK_LOC+10,,AUTO
         1 000243   000020 631400 xsym               EPPR1   B_VECTNIL+16
         1 000244   000000 701000 xent               TSX1    VDG$OCOPY_RANGE
         1 000245   000360 702000 1                  TSX2    OCOPY_FAILED

      384     3956    3                   VD_6E.SOURCE.OPERAND.EVAL$ -> TOS$EVAL.RANGE)
      385     3957    3                   ALTRET (OCOPY_RANGE_FAILED);
      386     3958    3                 END;
PL6.E3A0      #001=VDE$IOPEN File=VDE$INTERPRET.:VDA5TSI                         FRI 07/04/97 11:11 Page:48

      387     3959    2              END;

      388     3960    1           VD_6E.SOURCE.OPERAND.EVAL$ -> TOS$EVAL.STATE# = %EVST_INITIAL;

   3960  1 000246   000001 220003                    LDX0    1,DU
         1 000247   000023 470400 xsym               LDP0    VD_6E+19
         1 000250   000070 740100                    STX0    56,,PR0

   3960  1 000251                       COMMON_FINI* null
      389     3961
      390     3962        %EJECT;
PL6.E3A0      #001=VDE$IOPEN File=VDE$INTERPRET.:VDA5TSI                         FRI 07/04/97 11:11 Page:49
      391     3963    1   COMMON_FINISH: ;
      392     3964
      393     3965    1           IT_SELECT$ = IT$BLOCK_EXPR.SELECTS$;

   3965  1 000251   200005 470500                    LDP0    IT_BLOCK_EXPR$,,AUTO
         1 000252   000035 236100                    LDQ     29,,PR0
         1 000253   200006 756100                    STQ     IT_SELECT$,,AUTO

      394     3966    1           TOS_EVAL$ = OPERAND.EVAL$;

   3966  1 000254   200003 471500                    LDP1    OPERAND$,,AUTO
         1 000255   100003 236100                    LDQ     3,,PR1
         1 000256   200007 756100                    STQ     TOS_EVAL$,,AUTO

      395     3967    2           IF TOS_EVAL$ = ADDR(NIL) THEN DO;

   3967  1 000257   000001 116000 xsym               CMPQ    B_VECTNIL+1
         1 000260   000277 601000 1                  TNZ     s:3974

      396     3968    2              CALL VDG$OALLOC (%CLS_EVAL, OPERAND.EVAL$)

   3968  1 000261   200003 236100                    LDQ     OPERAND$,,AUTO
         1 000262   000003 036003                    ADLQ    3,DU
         1 000263   000005 235000 2                  LDA     5
         1 000264   200062 757100                    STAQ    WBLOCK_LOC+10,,AUTO
         1 000265   200062 630500                    EPPR0   WBLOCK_LOC+10,,AUTO
         1 000266   000020 631400 xsym               EPPR1   B_VECTNIL+16
         1 000267   000000 701000 xent               TSX1    VDG$OALLOC
         1 000270   000360 702000 1                  TSX2    OCOPY_FAILED

      397     3969    2                ALTRET (OALLOC_FAILED);
      398     3970    2              TOS_EVAL$ = OPERAND.EVAL$;

   3970  1 000271   200003 470500                    LDP0    OPERAND$,,AUTO
         1 000272   000003 236100                    LDQ     3,,PR0
         1 000273   200007 756100                    STQ     TOS_EVAL$,,AUTO

PL6.E3A0      #001=VDE$IOPEN File=VDE$INTERPRET.:VDA5TSI                         FRI 07/04/97 11:11 Page:50
      399     3971    2              TOS$EVAL.STATE# = %EVST_INITIAL;

   3971  1 000274   000001 220003                    LDX0    1,DU
         1 000275   200007 471500                    LDP1    TOS_EVAL$,,AUTO
         1 000276   100070 740100                    STX0    56,,PR1

      400     3972    2              END;

      401     3973
      402     3974    1           TOS$EVAL.NODE$ = IT_SELECT$;

   3974  1 000277   200006 236100                    LDQ     IT_SELECT$,,AUTO
         1 000300   200007 470500                    LDP0    TOS_EVAL$,,AUTO
         1 000301   000071 756100                    STQ     57,,PR0

      403     3975    2           IF IT_SELECT$ ~= ADDR(NIL) THEN DO;

   3975  1 000302   000001 116000 xsym               CMPQ    B_VECTNIL+1
         1 000303   000317 600000 1                  TZE     s:3982

      404     3976    2              IF IT$SELECT.RPT_ALL THEN

   3976  1 000304   200006 471500                    LDP1    IT_SELECT$,,AUTO
         1 000305   100003 234100                    SZN     3,,PR1
         1 000306   000312 605000 1                  TPL     s:3979

      405     3977    2                 TOS$EVAL.REMAINING# = %MX_REPEAT_COUNT;

   3977  1 000307   377777 235007                    LDA     131071,DL
         1 000310   000072 755100                    STA     58,,PR0
         1 000311   000320 710000 1                  TRA     s:3984

      406     3978    2              ELSE
      407     3979    2                 TOS$EVAL.REMAINING# = IT$SELECT.RPT_COUNT#;

   3979  1 000312   100003 236100                    LDQ     3,,PR1
         1 000313   000022 736000                    QLS     18
PL6.E3A0      #001=VDE$IOPEN File=VDE$INTERPRET.:VDA5TSI                         FRI 07/04/97 11:11 Page:51
         1 000314   000022 732000                    QRS     18
         1 000315   000072 756100                    STQ     58,,PR0

      408     3980    2              END;

   3980  1 000316   000320 710000 1                  TRA     s:3984

      409     3981    1           ELSE
      410     3982    1              TOS$EVAL.REMAINING# = 0;

   3982  1 000317   000072 450100                    STZ     58,,PR0

      411     3983
      412     3984    1           EDIT_BLOCK$ = OPERAND.EDIT_BLOCK$;

   3984  1 000320   200003 471500                    LDP1    OPERAND$,,AUTO
         1 000321   100002 236100                    LDQ     2,,PR1
         1 000322   200010 756100                    STQ     EDIT_BLOCK$,,AUTO

      413     3985    1           CALL VDG$OCLEAR_RANGE (TOS$EVAL.ENCLOSING)

   3985  1 000323   200007 236100                    LDQ     TOS_EVAL$,,AUTO
         1 000324   000002 036003                    ADLQ    2,DU
         1 000325   200062 756100                    STQ     WBLOCK_LOC+10,,AUTO
         1 000326   200062 630500                    EPPR0   WBLOCK_LOC+10,,AUTO
         1 000327   000017 631400 xsym               EPPR1   B_VECTNIL+15
         1 000330   000000 701000 xent               TSX1    VDG$OCLEAR_RANGE
         1 000331   000360 702000 1                  TSX2    OCOPY_FAILED

      414     3986    1             ALTRET (OCLEAR_RANGE_FAILED);
      415     3987    1           CALL VDG$OCOPY_RANGE (EDIT$BLOCK.RANGE, TOS$EVAL.ENCLOSING)

   3987  1 000332   200007 236100                    LDQ     TOS_EVAL$,,AUTO
         1 000333   000002 036003                    ADLQ    2,DU
         1 000334   200063 756100                    STQ     WBLOCK_LOC+11,,AUTO
         1 000335   200010 236100                    LDQ     EDIT_BLOCK$,,AUTO
         1 000336   000003 036003                    ADLQ    3,DU
PL6.E3A0      #001=VDE$IOPEN File=VDE$INTERPRET.:VDA5TSI                         FRI 07/04/97 11:11 Page:52
         1 000337   200062 756100                    STQ     WBLOCK_LOC+10,,AUTO
         1 000340   200062 630500                    EPPR0   WBLOCK_LOC+10,,AUTO
         1 000341   000020 631400 xsym               EPPR1   B_VECTNIL+16
         1 000342   000000 701000 xent               TSX1    VDG$OCOPY_RANGE
         1 000343   000360 702000 1                  TSX2    OCOPY_FAILED

      416     3988    1             ALTRET (OCOPY_RANGE_FAILED);
      417     3989
      418     3990    1           CALL VDG$OCLEAR_RANGE (TOS$EVAL.LAST_FOUND_RANGE)

   3990  1 000344   200007 236100                    LDQ     TOS_EVAL$,,AUTO
         1 000345   000046 036003                    ADLQ    38,DU
         1 000346   200062 756100                    STQ     WBLOCK_LOC+10,,AUTO
         1 000347   200062 630500                    EPPR0   WBLOCK_LOC+10,,AUTO
         1 000350   000017 631400 xsym               EPPR1   B_VECTNIL+15
         1 000351   000000 701000 xent               TSX1    VDG$OCLEAR_RANGE
         1 000352   000360 702000 1                  TSX2    OCOPY_FAILED

      419     3991    1             ALTRET (OCLEAR_RANGE_FAILED);
      420     3992
      421     3993    1           RETURN;

   3993  1 000353   000000 702200 xent               TSX2  ! X66_ARET

      422     3994
      423     3995
      424     3996
      425     3997    1   CANT_EDIT_SCRATCH_FAILURE:
      426     3998    1           CALL VDG$ERRMSG (%E$CANT_EDIT_SCRATCH);

   3998  1 000354   000010 630400 2     CANT_EDIT_S* EPPR0   8
         1 000355   000017 631400 xsym               EPPR1   B_VECTNIL+15
         1 000356   000000 701000 xent               TSX1    VDG$ERRMSG
         1 000357   000000 011000                    NOP     0

   3998  1 000360                       OCOPY_FAILED null
   3998  1 000360                       OFREE_FAILED null
PL6.E3A0      #001=VDE$IOPEN File=VDE$INTERPRET.:VDA5TSI                         FRI 07/04/97 11:11 Page:53
   3998  1 000360                       UPDATE_OPTI* null
   3998  1 000360                       NEXT_PREV_D* null
   3998  1 000360                       NEW_EDIT_BL* null
   3998  1 000360                       OALLOC_FAIL* null
   3998  1 000360                       OCLEAR_RANG* null
   3998  1 000360                       OCOPY_RANGE* null
      427     3999
      428     4000
      429     4001    1   OCOPY_FAILED: ;
      430     4002    1   OFREE_FAILED: ;
      431     4003    1   UPDATE_OPTIONS_FAILED: ;
      432     4004    1   NEXT_PREV_DOMAIN_FAILED: ;
      433     4005    1   NEW_EDIT_BLOCK_FAILED: ;
      434     4006    1   OALLOC_FAILED: ;
      435     4007    1   OCLEAR_RANGE_FAILED: ;
      436     4008    1   OCOPY_RANGE_FAILED: ;
      437     4009    1           ALTRETURN;

   4009  1 000360   000000 702200 xent               TSX2  ! X66_AALT

      438     4010
      439     4011        %BOX (TITLE=UPDATE_OPTIONS, PAGE=YES);
              4019    1
              4023    1   /***************************************************************************
              4025    1    *                                                                         *
              4029    1            *                               UPDATE_OPTIONS                           *
              4031    1            *                                                                        *
              4033    1          ***************************************************************************/

      440     4037
      441     4038        /*I* NAME: UPDATE_OPTIONS
      442     4039            PARAMETERS:
      443     4040                None.
      444     4041            INPUT:
      445     4042                IT$BLOCK_EXPR.OPTIONS must contain only those processing
      446     4043                    options which were explicitly given by the user; the
      447     4044                    other fields should be %CLEAR/NIL.
PL6.E3A0      #001=VDE$IOPEN File=VDE$INTERPRET.:VDA5TSI                         FRI 07/04/97 11:11 Page:54
      448     4045                    Also, .DOMAINN should be %CLEAR in order to get here
      449     4046                    at all.
      450     4047                OPERAND.EDIT_BLOCK$ must point to the current EditBlock
      451     4048                    for this operand.  There must be such a block, whose
      452     4049                    .OPTIONS must be completely filled in and valid.
      453     4050                WINDOW_NODE specifies the window whose operand we're opening.
      454     4051            OUTPUT:
      455     4052                IT$BLOCK_EXPR.OPTIONS will be completely filled in.  Any
      456     4053                    missing fields will be filled in from the EDIT$BLOCK's
      457     4054                    options.
      458     4055        *N*     If the user explicitly gave structure, level, component,
      459     4056        *N*         or protect options, the EditBlock and OPERAND's
      460     4057        *N*         Stream will be updated to reflect the new processing
      461     4058        *N*         status.
      462     4059            DESCRIPTION:
      463     4060        *N*     If the user gave any options, update the EDIT$BLOCK, the
      464     4061        *N*         operand's stream, and the window to reflect the new
      465     4062        *N*         processing status.
      466     4063                If IT$BLOCK_EXPR.OPTIONS has any missing fields, fill them
      467     4064                    in from the EDIT$BLOCK.
      468     4065        */
      469     4066
      470     4067    1   UPDATE_OPTIONS: PROC ALTRET;

   4067  1 000361   200024 741300       UPDATE_OPTI* STX1  ! DEL_RANGE+2,,AUTO

      471     4068
      472     4069
      473     4070    2   DCL EDIT_BLOCK$ PTR;
      474     4071
      475     4072
      476     4073        %VD$BLOCK_DESC (NAME=EDIT$BLOCK, STCLASS="BASED(EDIT_BLOCK$)");
      477     4220
      478     4221
      479     4222
      480     4223    2           EDIT_BLOCK$ = OPERAND.EDIT_BLOCK$;

PL6.E3A0      #001=VDE$IOPEN File=VDE$INTERPRET.:VDA5TSI                         FRI 07/04/97 11:11 Page:55
   4223  1 000362   200003 470500                    LDP0    OPERAND$,,AUTO
         1 000363   000002 236100                    LDQ     2,,PR0
         1 000364   200025 756100                    STQ     EDIT_BLOCK$,,AUTO

      481     4224
      482     4225    2           IF IT$BLOCK_EXPR.OPTIONS.STRUCTURE$ = ADDR(NIL) THEN

   4225  1 000365   200005 471500                    LDP1    IT_BLOCK_EXPR$,,AUTO
         1 000366   100030 236100                    LDQ     24,,PR1
         1 000367   000001 116000 xsym               CMPQ    B_VECTNIL+1
         1 000370   000375 601000 1                  TNZ     s:4228

      483     4226    2              IT$BLOCK_EXPR.OPTIONS.STRUCTURE$ = EDIT$BLOCK.OPTIONS.STRUCTURE$;

   4226  1 000371   200025 473500                    LDP3    EDIT_BLOCK$,,AUTO
         1 000372   300025 236100                    LDQ     21,,PR3
         1 000373   100030 756100                    STQ     24,,PR1
         1 000374   000377 710000 1                  TRA     s:4230

      484     4227    2           ELSE
      485     4228    2              EDIT$BLOCK.OPTIONS.STRUCTURE$ = IT$BLOCK_EXPR.OPTIONS.STRUCTURE$;

   4228  1 000375   200025 473500                    LDP3    EDIT_BLOCK$,,AUTO
         1 000376   300025 756100                    STQ     21,,PR3

      486     4229
      487     4230    2           IF IT$BLOCK_EXPR.OPTIONS.LEVEL# = 0 THEN

   4230  1 000377   100031 220100                    LDX0    25,,PR1
         1 000400   000404 601000 1                  TNZ     s:4233

      488     4231    2              IT$BLOCK_EXPR.OPTIONS.LEVEL# = EDIT$BLOCK.OPTIONS.LEVEL#;

   4231  1 000401   300026 222100                    LDX2    22,,PR3
         1 000402   100031 742100                    STX2    25,,PR1
         1 000403   000405 710000 1                  TRA     s:4235

PL6.E3A0      #001=VDE$IOPEN File=VDE$INTERPRET.:VDA5TSI                         FRI 07/04/97 11:11 Page:56
      489     4232    2           ELSE
      490     4233    2              EDIT$BLOCK.OPTIONS.LEVEL# = IT$BLOCK_EXPR.OPTIONS.LEVEL#;

   4233  1 000404   300026 740100                    STX0    22,,PR3

      491     4234
      492     4235    2           IF IT$BLOCK_EXPR.OPTIONS.COMPONENT# = 0 THEN

   4235  1 000405   100031 720100                    LXL0    25,,PR1
         1 000406   000412 601000 1                  TNZ     s:4238

      493     4236    2              IT$BLOCK_EXPR.OPTIONS.COMPONENT# = EDIT$BLOCK.OPTIONS.COMPONENT#;

   4236  1 000407   300026 722100                    LXL2    22,,PR3
         1 000410   100031 442100                    SXL2    25,,PR1
         1 000411   000413 710000 1                  TRA     s:4240

      494     4237    2           ELSE
      495     4238    2              EDIT$BLOCK.OPTIONS.COMPONENT# = IT$BLOCK_EXPR.OPTIONS.COMPONENT#;

   4238  1 000412   300026 440100                    SXL0    22,,PR3

      496     4239
      497     4240    2           IF IT$BLOCK_EXPR.OPTIONS.PROTECT# = 0 THEN

   4240  1 000413   100032 220100                    LDX0    26,,PR1
         1 000414   000420 601000 1                  TNZ     s:4243

      498     4241    2              IT$BLOCK_EXPR.OPTIONS.PROTECT# = EDIT$BLOCK.OPTIONS.PROTECT#;

   4241  1 000415   300027 222100                    LDX2    23,,PR3
         1 000416   100032 742100                    STX2    26,,PR1
         1 000417   000421 710000 1                  TRA     s:4245

      499     4242    2           ELSE
      500     4243    2              EDIT$BLOCK.OPTIONS.PROTECT# = IT$BLOCK_EXPR.OPTIONS.PROTECT#;

PL6.E3A0      #001=VDE$IOPEN File=VDE$INTERPRET.:VDA5TSI                         FRI 07/04/97 11:11 Page:57
   4243  1 000420   300027 740100                    STX0    23,,PR3

      501     4244
      502     4245    2           IF IT$BLOCK_EXPR.OPTIONS.EXIST# = 0 THEN

   4245  1 000421   100032 720100                    LXL0    26,,PR1
         1 000422   000426 601000 1                  TNZ     s:4248

      503     4246    2              IT$BLOCK_EXPR.OPTIONS.EXIST# = EDIT$BLOCK.OPTIONS.EXIST#;

   4246  1 000423   300027 722100                    LXL2    23,,PR3
         1 000424   100032 442100                    SXL2    26,,PR1
         1 000425   000427 710000 1                  TRA     s:4250

      504     4247    2           ELSE
      505     4248    2              EDIT$BLOCK.OPTIONS.EXIST# = IT$BLOCK_EXPR.OPTIONS.EXIST#;

   4248  1 000426   300027 440100                    SXL0    23,,PR3

      506     4249
      507     4250    2           IF IT$BLOCK_EXPR.OPTIONS.KEY_INCR = %CLEAR THEN

   4250  1 000427   000000 106500                    CMPC    fill='000'O
         1 000430   100033 000010                    ADSC9   27,,PR1                  cn=0,n=8
         1 000431   000002 000002 xsym               ADSC9   B_VECTNIL+2              cn=0,n=2
         1 000432   000436 601000 1                  TNZ     s:4253

      508     4251    2              IT$BLOCK_EXPR.OPTIONS.KEY_INCR = EDIT$BLOCK.OPTIONS.KEY_INCR;

   4251  1 000433   000100 100500                    MLR     fill='000'O
         1 000434   300030 000010                    ADSC9   24,,PR3                  cn=0,n=8
         1 000435   100033 000010                    ADSC9   27,,PR1                  cn=0,n=8

      509     4252
      510     4253    2           RETURN;

   4253  1 000436   000001 702211                    TSX2  ! 1,X1
PL6.E3A0      #001=VDE$IOPEN File=VDE$INTERPRET.:VDA5TSI                         FRI 07/04/97 11:11 Page:58

      511     4254
      512     4255    2   END UPDATE_OPTIONS;
      513     4256
      514     4257        %BOX (TITLE=NEXT_PREV_DOMAIN, PAGE=YES);
              4265    2
              4269    2   /***************************************************************************
              4271    2    *                                                                         *
              4275    2            *                              NEXT_PREV_DOMAIN                          *
              4277    2            *                                                                        *
              4279    2          ***************************************************************************/

      515     4283
      516     4284        /*I* NAME: NEXT_PREV_DOMAIN
      517     4285            PARAMETERS:
      518     4286                None.
      519     4287            INPUT:
      520     4288                WINDOW_NODE - VD$FILE_NODE at level-1 of the Windows file.
      521     4289                IT$BLOCK_EXPR.DOMAINN.NEXT or .PREVIOUS must be set:
      522     4290                    one or the other.
      523     4291                IT$BLOCK_EXPR.OPTIONS must contain only those processing/access
      524     4292                    options which have been explicitly given by the user.
      525     4293            OUTPUT:
      526     4294                WINDOW_NODE's VD$WINDOW_SPEC.OPERAND.EDIT_BLOCK$ and
      527     4295                    .EVAL$ will be modified:  they'll be the new values
      528     4296                    for the new EditBlock.
      529     4297                    Also, the VD$WINDOW_SPEC.CURR_INDEX# will be incremented
      530     4298                    or decremented.
      531     4299                WINDOW_NODE's children will be mucked with:  the
      532     4300                    VD$WINDOW_BLOCK for the EditBlock at entry will be
      533     4301                    updated with the at-entry values from .OPERAND.
      534     4302                IT$BLOCK_EXPR.DOMAINN will be %CLEARed.
      535     4303                IT$BLOCK_EXPR.OPTIONS - Any missing fields will be filled in
      536     4304                    from the new EditBlock.
      537     4305            DESCRIPTION:
      538     4306                Find the VD$WINDOW_BLOCK for the current EditBlock,
      539     4307                    and the one for the new EditBlock (next or previous).
PL6.E3A0      #001=VDE$IOPEN File=VDE$INTERPRET.:VDA5TSI                         FRI 07/04/97 11:11 Page:59
      540     4308                Clear CURR$BLOCK's pointers, and move the EditBlock and
      541     4309                    evaluation stack from the VD$WINDOW_SPEC to CURR$BLOCK.
      542     4310                Call VDI$PREMOVE_EDIT_BLOCK just to make sure we do all
      543     4311                    the things that need to be done when removing an
      544     4312                    EditBlock (tell the Presenter, etc).
      545     4313                Copy the EditBlock and evaluation stack from NEW$BLOCK to
      546     4314                    the VD$WINDOW_SPEC.  If there is now no EditBlock
      547     4315                    (NEW$BLOCK had nil pointers), this is an error.
      548     4316                    However, after building the error message, proceed
      549     4317                    with the remaining steps; but don't return at the
      550     4318                    end, ALTRETURN.
      551     4319                If there is now an EditBlock, open the window's stream to it.
      552     4320                    If the open fails, remove the EditBlock again, and set up
      553     4321                    to ALTRETURN at the end.
      554     4322                Clear IT$BLOCK_EXPR.DOMAINN, so when/if we copy this InTree
      555     4323                    to the Source operand and try to open it there, we don't
      556     4324                    try doing all this again.
      557     4325        */
      558     4326
      559     4327    1   NEXT_PREV_DOMAIN: PROC ALTRET;

   4327  1 000437   200014 741300       NEXT_PREV_D* STX1  ! DOMAIN_KEY$+3,,AUTO

      560     4328
      561     4329
      562     4330    2   DCL L2_NODE$ PTR;
      563     4331    2   DCL INDX SBIN;
      564     4332    2   DCL CURR_BLOCK$ PTR;
      565     4333    2   DCL NEW_BLOCK$ PTR;
      566     4334    2   DCL CURR_EVAL$ PTR;
      567     4335    2   DCL NEXT_EVAL$ PTR;
      568     4336
      569     4337
      570     4338        %VD$FILE_NODE (NAME=L2$NODE, STCLASS="BASED(L2_NODE$)");
      571     4431        %VD$WINDOW_BLOCK (NAME=CURR$BLOCK, STCLASS="BASED(CURR_BLOCK$)");
      572     4468        %VD$WINDOW_BLOCK (NAME=NEW$BLOCK, STCLASS="BASED(NEW_BLOCK$)");
      573     4505        %VD$EVAL (NAME=CURR$EVAL, STCLASS="BASED(CURR_EVAL$)");
PL6.E3A0      #001=VDE$IOPEN File=VDE$INTERPRET.:VDA5TSI                         FRI 07/04/97 11:11 Page:60
      574     4750        %VD$STREAM;
      575     4856        %VD$BLOCK_DESC;
      576     5003        %VD$EVAL;
      577     5248
      578     5249
      579     5250
      580     5251
      581     5252    2           L2_NODE$ = WINDOW_NODE.HEAD$;

   5252  1 000440   000000 470400 xsym               LDP0    VD_CURRENT_WINDOW$
         1 000441   000012 236100                    LDQ     10,,PR0
         1 000442   200015 756100                    STQ     L2_NODE$,,AUTO

      582     5253    2           INDX = 0;

   5253  1 000443   200016 450100                    STZ     INDX,,AUTO

      583     5254    3           DO WHILE L2_NODE$ ~= ADDR(NIL)

   5254  1 000444   000451 710000 1                  TRA     s:5258

      584     5255    3             AND INDX < CURR$WINDOW.CURR_INDEX#;
      585     5256    3              L2_NODE$ = L2$NODE.FLINK$;

   5256  1 000445   200015 470500                    LDP0    L2_NODE$,,AUTO
         1 000446   000002 236100                    LDQ     2,,PR0
         1 000447   200015 756100                    STQ     L2_NODE$,,AUTO

      586     5257    3              INDX = INDX + 1;

   5257  1 000450   200016 054100                    AOS     INDX,,AUTO

      587     5258    3              END;

   5258  1 000451   000001 116000 xsym               CMPQ    B_VECTNIL+1
         1 000452   000460 600000 1                  TZE     s:5260
         1 000453   200004 470500                    LDP0    CURR_WINDOW$,,AUTO
PL6.E3A0      #001=VDE$IOPEN File=VDE$INTERPRET.:VDA5TSI                         FRI 07/04/97 11:11 Page:61
         1 000454   000014 236100                    LDQ     12,,PR0
         1 000455   000022 732000                    QRS     18
         1 000456   200016 116100                    CMPQ    INDX,,AUTO
         1 000457   000445 605400 1                  TPNZ    s:5256

      588     5259
      589     5260    2           IF L2_NODE$ = ADDR(NIL) THEN

   5260  1 000460   200015 236100                    LDQ     L2_NODE$,,AUTO
         1 000461   000001 116000 xsym               CMPQ    B_VECTNIL+1
         1 000462   000675 600000 1                  TZE     NO_NEXT_PREV_EDIT_BL_FAILURE

      590     5261    2              GOTO NO_NEXT_PREV_EDIT_BL_FAILURE;
      591     5262
      592     5263    2           CURR_BLOCK$ = L2$NODE.DESC.SPEC.V$;

   5263  1 000463   200015 470500                    LDP0    L2_NODE$,,AUTO
         1 000464   000007 236100                    LDQ     7,,PR0
         1 000465   200017 756100                    STQ     CURR_BLOCK$,,AUTO

      593     5264
      594     5265    2           IF IT$BLOCK_EXPR.DOMAINN.NEXT THEN

   5265  1 000466   200005 471500                    LDP1    IT_BLOCK_EXPR$,,AUTO
         1 000467   100003 234100                    SZN     3,,PR1
         1 000470   000474 605000 1                  TPL     s:5268

      595     5266    2              L2_NODE$ = L2$NODE.FLINK$;

   5266  1 000471   000002 236100                    LDQ     2,,PR0
         1 000472   200015 756100                    STQ     L2_NODE$,,AUTO
         1 000473   000476 710000 1                  TRA     s:5269

      596     5267    2           ELSE
      597     5268    2              L2_NODE$ = L2$NODE.BLINK$;

   5268  1 000474   000001 236100                    LDQ     1,,PR0
PL6.E3A0      #001=VDE$IOPEN File=VDE$INTERPRET.:VDA5TSI                         FRI 07/04/97 11:11 Page:62
         1 000475   200015 756100                    STQ     L2_NODE$,,AUTO

      598     5269    2           IF L2_NODE$ = ADDR(NIL) THEN

   5269  1 000476   000001 116000 xsym               CMPQ    B_VECTNIL+1
         1 000477   000675 600000 1                  TZE     NO_NEXT_PREV_EDIT_BL_FAILURE

      599     5270    2              GOTO NO_NEXT_PREV_EDIT_BL_FAILURE;
      600     5271    2           NEW_BLOCK$ = L2$NODE.DESC.SPEC.V$;

   5271  1 000500   200015 470500                    LDP0    L2_NODE$,,AUTO
         1 000501   000007 236100                    LDQ     7,,PR0
         1 000502   200020 756100                    STQ     NEW_BLOCK$,,AUTO

      601     5272
      602     5273    3           IF OPERAND$ ~= ADDR(VD_6E.SOURCE.OPERAND) THEN DO;

   5273  1 000503   000000 236000 2                  LDQ     0
         1 000504   200003 116100                    CMPQ    OPERAND$,,AUTO
         1 000505   000564 600000 1                  TZE     s:5297

      603     5274    3              IF IT$BLOCK_EXPR.DOMAINN.NEXT THEN

   5274  1 000506   100003 234100                    SZN     3,,PR1
         1 000507   000515 605000 1                  TPL     s:5277

      604     5275    3                 CURR$WINDOW.CURR_INDEX# = CURR$WINDOW.CURR_INDEX# + 1;

   5275  1 000510   200004 473500                    LDP3    CURR_WINDOW$,,AUTO
         1 000511   300014 220100                    LDX0    12,,PR3
         1 000512   000001 621010                    EAX1    1,X0
         1 000513   300014 741100                    STX1    12,,PR3
         1 000514   000521 710000 1                  TRA     s:5279

      605     5276    3              ELSE
      606     5277    3                 CURR$WINDOW.CURR_INDEX# = CURR$WINDOW.CURR_INDEX# - 1;

PL6.E3A0      #001=VDE$IOPEN File=VDE$INTERPRET.:VDA5TSI                         FRI 07/04/97 11:11 Page:63
   5277  1 000515   200004 473500                    LDP3    CURR_WINDOW$,,AUTO
         1 000516   300014 220100                    LDX0    12,,PR3
         1 000517   777777 621010                    EAX1    -1,X0
         1 000520   300014 741100                    STX1    12,,PR3

      607     5278
      608     5279    3              CALL VDG$OFREE (CURR$BLOCK.EDIT_BLOCK$->VD$BLOCK_DESC)

   5279  1 000521   200017 474500                    LDP4    CURR_BLOCK$,,AUTO
         1 000522   400003 475500                    LDP5    3,,PR4
         1 000523   200062 455500                    STP5    WBLOCK_LOC+10,,AUTO
         1 000524   200062 630500                    EPPR0   WBLOCK_LOC+10,,AUTO
         1 000525   000017 631400 xsym               EPPR1   B_VECTNIL+15
         1 000526   000000 701000 xent               TSX1    VDG$OFREE
         1 000527   000715 702000 1                  TSX2    OFREE_FAILED

      609     5280    3                ALTRET (OFREE_FAILED);
      610     5281    3              CURR_EVAL$ = CURR$BLOCK.EVAL$;

   5281  1 000530   200017 470500                    LDP0    CURR_BLOCK$,,AUTO
         1 000531   000004 236100                    LDQ     4,,PR0
         1 000532   200021 756100                    STQ     CURR_EVAL$,,AUTO

      611     5282    4              DO WHILE CURR_EVAL$ ~= ADDR(NIL);

   5282  1 000533   000545 710000 1                  TRA     s:5287

      612     5283    4                 NEXT_EVAL$ = CURR$EVAL.BLINK$;

   5283  1 000534   200021 470500                    LDP0    CURR_EVAL$,,AUTO
         1 000535   000001 236100                    LDQ     1,,PR0
         1 000536   200022 756100                    STQ     NEXT_EVAL$,,AUTO

      613     5284    4                 CALL VDG$OFREE (CURR$EVAL)

   5284  1 000537   200021 630500                    EPPR0   CURR_EVAL$,,AUTO
         1 000540   000017 631400 xsym               EPPR1   B_VECTNIL+15
PL6.E3A0      #001=VDE$IOPEN File=VDE$INTERPRET.:VDA5TSI                         FRI 07/04/97 11:11 Page:64
         1 000541   000000 701000 xent               TSX1    VDG$OFREE
         1 000542   000715 702000 1                  TSX2    OFREE_FAILED

      614     5285    4                   ALTRET (OFREE_FAILED);
      615     5286    4                 CURR_EVAL$ = NEXT_EVAL$;

   5286  1 000543   200022 236100                    LDQ     NEXT_EVAL$,,AUTO
         1 000544   200021 756100                    STQ     CURR_EVAL$,,AUTO

      616     5287    4                 END;

   5287  1 000545   000001 116000 xsym               CMPQ    B_VECTNIL+1
         1 000546   000534 601000 1                  TNZ     s:5283

      617     5288
      618     5289    3              CURR$BLOCK.EDIT_BLOCK$ = CURR$WINDOW.OPERAND.EDIT_BLOCK$;

   5289  1 000547   200004 470500                    LDP0    CURR_WINDOW$,,AUTO
         1 000550   000012 236100                    LDQ     10,,PR0
         1 000551   200017 471500                    LDP1    CURR_BLOCK$,,AUTO
         1 000552   100003 756100                    STQ     3,,PR1

      619     5290    3              CURR$WINDOW.OPERAND.EDIT_BLOCK$ = ADDR(NIL);

   5290  1 000553   000001 236000 xsym               LDQ     B_VECTNIL+1
         1 000554   000012 756100                    STQ     10,,PR0

      620     5291    3              CURR$BLOCK.EVAL$ = CURR$WINDOW.OPERAND.EVAL$;

   5291  1 000555   000013 236100                    LDQ     11,,PR0
         1 000556   100004 756100                    STQ     4,,PR1

      621     5292    3              CURR$WINDOW.OPERAND.EVAL$ = ADDR(NIL);

   5292  1 000557   000001 236000 xsym               LDQ     B_VECTNIL+1
         1 000560   000013 756100                    STQ     11,,PR0

PL6.E3A0      #001=VDE$IOPEN File=VDE$INTERPRET.:VDA5TSI                         FRI 07/04/97 11:11 Page:65
      622     5293    3              CALL VDI$PREMOVE_EDIT_BLOCK

   5293  1 000561   000002 631400 xsym               EPPR1   B_VECTNIL+2
         1 000562   000000 701000 xent               TSX1    VDI$PREMOVE_EDIT_BLOCK
         1 000563   000715 702000 1                  TSX2    OFREE_FAILED

      623     5294    3                ALTRET (PREMOVE_EDIT_BLOCK_FAILED);
      624     5295    3              END;

      625     5296
      626     5297    2           IT$BLOCK_EXPR.DOMAINN = %CLEAR;

   5297  1 000564   200005 470500                    LDP0    IT_BLOCK_EXPR$,,AUTO
         1 000565   000100 100400                    MLR     fill='000'O
         1 000566   000002 000001 xsym               ADSC9   B_VECTNIL+2              cn=0,n=1
         1 000567   000003 000124                    ADSC9   3,,PR0                   cn=0,n=84

      627     5298
      628     5299    3           IF NEW$BLOCK.EDIT_BLOCK$ ~= ADDR(NIL) THEN DO;

   5299  1 000570   200020 471500                    LDP1    NEW_BLOCK$,,AUTO
         1 000571   100003 236100                    LDQ     3,,PR1
         1 000572   000001 116000 xsym               CMPQ    B_VECTNIL+1
         1 000573   000606 600000 1                  TZE     s:5305

      629     5300    3              CALL VDG$OCOPY (NEW$BLOCK.EDIT_BLOCK$->VD$BLOCK_DESC,

   5300  1 000574   100003 473500                    LDP3    3,,PR1
         1 000575   200003 236100                    LDQ     OPERAND$,,AUTO
         1 000576   000002 036003                    ADLQ    2,DU
         1 000577   200063 756100                    STQ     WBLOCK_LOC+11,,AUTO
         1 000600   200062 453500                    STP3    WBLOCK_LOC+10,,AUTO
         1 000601   200062 630500                    EPPR0   WBLOCK_LOC+10,,AUTO
         1 000602   000020 631400 xsym               EPPR1   B_VECTNIL+16
         1 000603   000000 701000 xent               TSX1    VDG$OCOPY
         1 000604   000715 702000 1                  TSX2    OFREE_FAILED

PL6.E3A0      #001=VDE$IOPEN File=VDE$INTERPRET.:VDA5TSI                         FRI 07/04/97 11:11 Page:66
      630     5301    3                OPERAND.EDIT_BLOCK$)
      631     5302    3                ALTRET (OCOPY_FAILED);
      632     5303    3              END;

   5303  1 000605   000614 710000 1                  TRA     s:5308

      633     5304    3           ELSE DO;

      634     5305    3              CALL VDG$ERRMSG (%E$NO_CURRENT_EDIT_BLOCK);

   5305  1 000606   000012 630400 2                  EPPR0   10
         1 000607   000017 631400 xsym               EPPR1   B_VECTNIL+15
         1 000610   000000 701000 xent               TSX1    VDG$ERRMSG
         1 000611   000000 011000                    NOP     0

      635     5306    3              ALTRETURN;

   5306  1 000612   200014 221300                    LDX1  ! DOMAIN_KEY$+3,,AUTO
         1 000613   000000 702211                    TSX2  ! 0,X1

      636     5307    3              END;
      637     5308    3           IF NEW$BLOCK.EVAL$ ~= ADDR(NIL) THEN DO;

   5308  1 000614   200020 470500                    LDP0    NEW_BLOCK$,,AUTO
         1 000615   000004 236100                    LDQ     4,,PR0
         1 000616   000001 116000 xsym               CMPQ    B_VECTNIL+1
         1 000617   000631 600000 1                  TZE     s:5314

      638     5309    3              CALL VDG$OCOPY (NEW$BLOCK.EVAL$->VD$EVAL,

   5309  1 000620   000004 471500                    LDP1    4,,PR0
         1 000621   200003 236100                    LDQ     OPERAND$,,AUTO
         1 000622   000003 036003                    ADLQ    3,DU
         1 000623   200063 756100                    STQ     WBLOCK_LOC+11,,AUTO
         1 000624   200062 451500                    STP1    WBLOCK_LOC+10,,AUTO
         1 000625   200062 630500                    EPPR0   WBLOCK_LOC+10,,AUTO
         1 000626   000020 631400 xsym               EPPR1   B_VECTNIL+16
PL6.E3A0      #001=VDE$IOPEN File=VDE$INTERPRET.:VDA5TSI                         FRI 07/04/97 11:11 Page:67
         1 000627   000000 701000 xent               TSX1    VDG$OCOPY
         1 000630   000715 702000 1                  TSX2    OFREE_FAILED

      639     5310    3                OPERAND.EVAL$)
      640     5311    3                ALTRET (OCOPY_FAILED);
      641     5312    3              END;

      642     5313
      643     5314    2           EDIT_BLOCK$ = OPERAND.EDIT_BLOCK$;

   5314  1 000631   200003 470500                    LDP0    OPERAND$,,AUTO
         1 000632   000002 236100                    LDQ     2,,PR0
         1 000633   200010 756100                    STQ     EDIT_BLOCK$,,AUTO

      644     5315    2           CALL UPDATE_OPTIONS;

   5315  1 000634   000361 701000 1                  TSX1    UPDATE_OPTIONS
         1 000635   000000 011000                    NOP     0

      645     5316
      646     5317    3           IF OPERAND$ ~= ADDR(VD_6E.SOURCE.OPERAND) THEN DO;

   5317  1 000636   000000 236000 2                  LDQ     0
         1 000637   200003 116100                    CMPQ    OPERAND$,,AUTO
         1 000640   000673 600000 1                  TZE     s:5332

      647     5318
      648     5319    3              CALL VDA$FOPEN (CURR$WINDOW.OPERAND.STREAM$->VD$STREAM,

   5319  1 000641   200004 470500                    LDP0    CURR_WINDOW$,,AUTO
         1 000642   000010 471500                    LDP1    8,,PR0
         1 000643   200010 236100                    LDQ     EDIT_BLOCK$,,AUTO
         1 000644   000025 036003                    ADLQ    21,DU
         1 000645   000013 235000 2                  LDA     11
         1 000646   200064 757100                    STAQ    WBLOCK_LOC+12,,AUTO
         1 000647   200010 236100                    LDQ     EDIT_BLOCK$,,AUTO
         1 000650   000001 036003                    ADLQ    1,DU
PL6.E3A0      #001=VDE$IOPEN File=VDE$INTERPRET.:VDA5TSI                         FRI 07/04/97 11:11 Page:68
         1 000651   200063 756100                    STQ     WBLOCK_LOC+11,,AUTO
         1 000652   200062 451500                    STP1    WBLOCK_LOC+10,,AUTO
         1 000653   200062 630500                    EPPR0   WBLOCK_LOC+10,,AUTO
         1 000654   000022 631400 xsym               EPPR1   B_VECTNIL+18
         1 000655   000000 701000 xent               TSX1    VDA$FOPEN
         1 000656   000666 702000 1                  TSX2    s:5326

      649     5320    3                EDIT$BLOCK.FILE_KEY, 0, EDIT$BLOCK.OPTIONS)
      650     5321    4              WHENRETURN DO;

      651     5322    4                 IF EDIT$BLOCK.OPTIONS.EXIST# = %EX_NEW THEN

   5322  1 000657   200010 470500                    LDP0    EDIT_BLOCK$,,AUTO
         1 000660   000027 720100                    LXL0    23,,PR0
         1 000661   000001 100003                    CMPX0   1,DU
         1 000662   000665 601000 1                  TNZ     s:5324

      652     5323    4                    EDIT$BLOCK.OPTIONS.EXIST# = %EX_OLD;

   5323  1 000663   000002 221003                    LDX1    2,DU
         1 000664   000027 441100                    SXL1    23,,PR0

      653     5324    4                 END;

   5324  1 000665   000673 710000 1                  TRA     s:5332

      654     5325    4              WHENALTRETURN DO;

      655     5326    4                 CALL VDI$PREMOVE_EDIT_BLOCK

   5326  1 000666   000002 631400 xsym               EPPR1   B_VECTNIL+2
         1 000667   000000 701000 xent               TSX1    VDI$PREMOVE_EDIT_BLOCK
         1 000670   000715 702000 1                  TSX2    OFREE_FAILED

      656     5327    4                   ALTRET (PREMOVE_EDIT_BLOCK_FAILED);
      657     5328    4                 ALTRETURN;

PL6.E3A0      #001=VDE$IOPEN File=VDE$INTERPRET.:VDA5TSI                         FRI 07/04/97 11:11 Page:69
   5328  1 000671   200014 221300                    LDX1  ! DOMAIN_KEY$+3,,AUTO
         1 000672   000000 702211                    TSX2  ! 0,X1

      658     5329    4                 END;
      659     5330    3              END;

      660     5331
      661     5332    2           RETURN;

   5332  1 000673   200014 221300                    LDX1  ! DOMAIN_KEY$+3,,AUTO
         1 000674   000001 702211                    TSX2  ! 1,X1

      662     5333
      663     5334
      664     5335
      665     5336    2   NO_NEXT_PREV_EDIT_BL_FAILURE:
      666     5337    2           IF IT$BLOCK_EXPR.DOMAINN.NEXT THEN

   5337  1 000675   200005 470500       NO_NEXT_PRE* LDP0    IT_BLOCK_EXPR$,,AUTO
         1 000676   000003 234100                    SZN     3,,PR0
         1 000677   000705 605000 1                  TPL     s:5340

      667     5338    2              CALL VDG$ERRMSG (%E$NO_NEXT_EDIT_BLOCK);

   5338  1 000700   000015 630400 2                  EPPR0   13
         1 000701   000017 631400 xsym               EPPR1   B_VECTNIL+15
         1 000702   000000 701000 xent               TSX1    VDG$ERRMSG
         1 000703   000000 011000                    NOP     0
         1 000704   000711 710000 1                  TRA     s:5341

      668     5339    2           ELSE
      669     5340    2              CALL VDG$ERRMSG (%E$NO_PREV_EDIT_BLOCK);

   5340  1 000705   000017 630400 2                  EPPR0   15
         1 000706   000017 631400 xsym               EPPR1   B_VECTNIL+15
         1 000707   000000 701000 xent               TSX1    VDG$ERRMSG
         1 000710   000000 011000                    NOP     0
PL6.E3A0      #001=VDE$IOPEN File=VDE$INTERPRET.:VDA5TSI                         FRI 07/04/97 11:11 Page:70

      670     5341    2           IT$BLOCK_EXPR.DOMAINN = %CLEAR;

   5341  1 000711   200005 470500                    LDP0    IT_BLOCK_EXPR$,,AUTO
         1 000712   000100 100400                    MLR     fill='000'O
         1 000713   000002 000001 xsym               ADSC9   B_VECTNIL+2              cn=0,n=1
         1 000714   000003 000124                    ADSC9   3,,PR0                   cn=0,n=84

   5341  1 000715                       OFREE_FAILED null
   5341  1 000715                       PREMOVE_EDI* null
   5341  1 000715                       OCOPY_FAILED null
   5341  1 000715                       OALLOC_FAIL* null
      671     5342
      672     5343
      673     5344    2   OFREE_FAILED: ;
      674     5345    2   PREMOVE_EDIT_BLOCK_FAILED: ;
      675     5346    2   OCOPY_FAILED: ;
      676     5347    2   OALLOC_FAILED: ;
      677     5348    2           ALTRETURN;

   5348  1 000715   200014 221300                    LDX1  ! DOMAIN_KEY$+3,,AUTO
         1 000716   000000 702211                    TSX2  ! 0,X1

      678     5349
      679     5350    2   END NEXT_PREV_DOMAIN;
      680     5351
      681     5352        %BOX (TITLE=NEW_EDIT_BLOCK, PAGE=YES);
              5360    2
              5364    2   /***************************************************************************
              5366    2    *                                                                         *
              5370    2            *                               NEW_EDIT_BLOCK                           *
              5372    2            *                                                                        *
              5374    2          ***************************************************************************/

      682     5378
      683     5379        /*I* NAME: NEW_EDIT_BLOCK
      684     5380            PARAMETERS:
PL6.E3A0      #001=VDE$IOPEN File=VDE$INTERPRET.:VDA5TSI                         FRI 07/04/97 11:11 Page:71
      685     5381                None.
      686     5382            INPUT:
      687     5383                WINDOW_NODE - VD$FILE_NODE at level-1 of the Windows file.
      688     5384                IT$BLOCK_EXPR.DOMAINN.FILE_KEY and .RANGE must be set.
      689     5385            OUTPUT:
      690     5386                WINDOW_NODE's VD$WINDOW_SPEC.OPERAND.EDIT_BLOCK$ and
      691     5387                    .EVAL$ will be modified:  they'll be the new values
      692     5388                    for the new EditBlock.
      693     5389                    Also, the VD$WINDOW_SPEC.CURR_INDEX# may be incremented.
      694     5390                WINDOW_NODE's children will be mucked with:  the VD$WINDOW_BLOCK
      695     5391                    for the EditBlock at entry will be updated with the at-entry
      696     5392                    values from .OPERAND.
      697     5393                    Also, any VD$WINDOW_BLOCKs after the current one will be deleted
      698     5394                    from the Windows file.
      699     5395                    If the current VD$WINDOW_BLOCK is occupied (non-NIL .OPERAND),
      700     5396                    a new one will be appended with the new EditBlock specification.
      701     5397                IT$BLOCK_EXPR.DOMAINN will be %CLEARed.
      702     5398            DESCRIPTION:
      703     5399                Find the VD$WINDOW_BLOCK for the current EditBlock; there
      704     5400                    must always be a VD$WINDOW_BLOCK, even if there is no
      705     5401                    EditBlock currently.
      706     5402                Delete all VD$WINDOW_BLOCKs after the current one.
      707     5403                Clear CURR$BLOCK's pointers, and move the EditBlock and
      708     5404                    evaluation stack from the VD$WINDOW_SPEC to CURR$BLOCK.
      709     5405                Call VDI$PREMOVE_EDIT_BLOCK just to make sure we do all
      710     5406                    the things that need to be done when removing an
      711     5407                    EditBlock (tell the Presenter, etc).
      712     5408                Open the new EditBlock; if the open fails, we'll remain
      713     5409                    with no current EditBlock (the user can EDIT PREVIOUS
      714     5410                    to get the old one back).
      715     5411                    If the open succeeds, allocate a new EditBlock and VD$EVAL,
      716     5412                    and initialize them to the InTree's new domain.
      717     5413                If the current VD$WINDOW_BLOCK child is occupied, write a new one
      718     5414                    to this window; otherwise, use the current child.
      719     5415                    Save the new EditBlock (or lack thereof) in the new/current child.
      720     5416        */
      721     5417
PL6.E3A0      #001=VDE$IOPEN File=VDE$INTERPRET.:VDA5TSI                         FRI 07/04/97 11:11 Page:72
      722     5418    1   NEW_EDIT_BLOCK: PROC ALTRET;

   5418  1 000717   200014 741300       NEW_EDIT_BL* STX1  ! DOMAIN_KEY$+3,,AUTO

      723     5419
      724     5420
      725     5421    2   DCL L2_NODE$ PTR;
      726     5422    2   DCL INDX SBIN;
      727     5423    2   DCL CURR_BLOCK$ PTR;
      728     5424    2   DCL CURR_EVAL$ PTR;
      729     5425    2   DCL NEXT_EVAL$ PTR;
      730     5426        %VD$RANGE (NAME=DEL_RANGE, STCLASS=AUTO);
      731     5495    2   DCL OPEN_SUCCEEDED BIT(1) ALIGNED;
      732     5496    2   DCL NEW_CHILD_ALLOCATED BIT(1) ALIGNED;
      733     5497        %VD$SPEC (NAME=WBLOCK_SPEC, STCLASS=AUTO);
      734     5511        %VD$LOCATION (NAME=WBLOCK_LOC, STCLASS=AUTO);
      735     5539
      736     5540
      737     5541        %VD$FILE_NODE (NAME=L2$NODE, STCLASS="BASED(L2_NODE$)");
      738     5634        %VD$WINDOW_BLOCK (NAME=CURR$BLOCK, STCLASS="BASED(CURR_BLOCK$)");
      739     5671        %VD$EVAL (NAME=CURR$EVAL, STCLASS="BASED(CURR_EVAL$)");
      740     5916        %VD$BLOCK_DESC;
      741     6063        %VD$KEY_NUMBER;
      742     6078        %VD$STREAM;
      743     6184        %VD$EVAL;
      744     6429
      745     6430
      746     6431
      747     6432    2           L2_NODE$ = WINDOW_NODE.HEAD$;

   6432  1 000720   000000 470400 xsym               LDP0    VD_CURRENT_WINDOW$
         1 000721   000012 236100                    LDQ     10,,PR0
         1 000722   200015 756100                    STQ     L2_NODE$,,AUTO

      748     6433    2           INDX = 0;

   6433  1 000723   200016 450100                    STZ     INDX,,AUTO
PL6.E3A0      #001=VDE$IOPEN File=VDE$INTERPRET.:VDA5TSI                         FRI 07/04/97 11:11 Page:73

      749     6434    3           DO WHILE L2_NODE$ ~= ADDR(NIL)

   6434  1 000724   000731 710000 1                  TRA     s:6438

      750     6435    3             AND INDX < CURR$WINDOW.CURR_INDEX#;
      751     6436    3              L2_NODE$ = L2$NODE.FLINK$;

   6436  1 000725   200015 470500                    LDP0    L2_NODE$,,AUTO
         1 000726   000002 236100                    LDQ     2,,PR0
         1 000727   200015 756100                    STQ     L2_NODE$,,AUTO

      752     6437    3              INDX = INDX + 1;

   6437  1 000730   200016 054100                    AOS     INDX,,AUTO

      753     6438    3              END;

   6438  1 000731   000001 116000 xsym               CMPQ    B_VECTNIL+1
         1 000732   000740 600000 1                  TZE     s:6439
         1 000733   200004 470500                    LDP0    CURR_WINDOW$,,AUTO
         1 000734   000014 236100                    LDQ     12,,PR0
         1 000735   000022 732000                    QRS     18
         1 000736   200016 116100                    CMPQ    INDX,,AUTO
         1 000737   000725 605400 1                  TPNZ    s:6436

      754     6439    2           CURR_BLOCK$ = L2$NODE.DESC.SPEC.V$;

   6439  1 000740   200015 470500                    LDP0    L2_NODE$,,AUTO
         1 000741   000007 236100                    LDQ     7,,PR0
         1 000742   200017 756100                    STQ     CURR_BLOCK$,,AUTO

      755     6440
      756     6441    2           CALL VDG$OFREE (CURR$BLOCK.EDIT_BLOCK$->VD$BLOCK_DESC)

   6441  1 000743   200017 471500                    LDP1    CURR_BLOCK$,,AUTO
         1 000744   100003 473500                    LDP3    3,,PR1
PL6.E3A0      #001=VDE$IOPEN File=VDE$INTERPRET.:VDA5TSI                         FRI 07/04/97 11:11 Page:74
         1 000745   200062 453500                    STP3    WBLOCK_LOC+10,,AUTO
         1 000746   200062 630500                    EPPR0   WBLOCK_LOC+10,,AUTO
         1 000747   000017 631400 xsym               EPPR1   B_VECTNIL+15
         1 000750   000000 701000 xent               TSX1    VDG$OFREE
         1 000751   001360 702000 1                  TSX2    OFREE_FAILED

      757     6442    2             ALTRET (OFREE_FAILED);
      758     6443    2           CURR_EVAL$ = CURR$BLOCK.EVAL$;

   6443  1 000752   200017 470500                    LDP0    CURR_BLOCK$,,AUTO
         1 000753   000004 236100                    LDQ     4,,PR0
         1 000754   200020 756100                    STQ     CURR_EVAL$,,AUTO

      759     6444    3           DO WHILE CURR_EVAL$ ~= ADDR(NIL);

   6444  1 000755   000767 710000 1                  TRA     s:6449

      760     6445    3              NEXT_EVAL$ = CURR$EVAL.BLINK$;

   6445  1 000756   200020 470500                    LDP0    CURR_EVAL$,,AUTO
         1 000757   000001 236100                    LDQ     1,,PR0
         1 000760   200021 756100                    STQ     NEXT_EVAL$,,AUTO

      761     6446    3              CALL VDG$OFREE (CURR$EVAL)

   6446  1 000761   200020 630500                    EPPR0   CURR_EVAL$,,AUTO
         1 000762   000017 631400 xsym               EPPR1   B_VECTNIL+15
         1 000763   000000 701000 xent               TSX1    VDG$OFREE
         1 000764   001360 702000 1                  TSX2    OFREE_FAILED

      762     6447    3                ALTRET (OFREE_FAILED);
      763     6448    3              CURR_EVAL$ = NEXT_EVAL$;

   6448  1 000765   200021 236100                    LDQ     NEXT_EVAL$,,AUTO
         1 000766   200020 756100                    STQ     CURR_EVAL$,,AUTO

      764     6449    3              END;
PL6.E3A0      #001=VDE$IOPEN File=VDE$INTERPRET.:VDA5TSI                         FRI 07/04/97 11:11 Page:75

   6449  1 000767   000001 116000 xsym               CMPQ    B_VECTNIL+1
         1 000770   000756 601000 1                  TNZ     s:6445

      765     6450
      766     6451    2           CURR$BLOCK.EDIT_BLOCK$ = CURR$WINDOW.OPERAND.EDIT_BLOCK$;

   6451  1 000771   200004 470500                    LDP0    CURR_WINDOW$,,AUTO
         1 000772   000012 236100                    LDQ     10,,PR0
         1 000773   200017 471500                    LDP1    CURR_BLOCK$,,AUTO
         1 000774   100003 756100                    STQ     3,,PR1

      767     6452    2           CURR$WINDOW.OPERAND.EDIT_BLOCK$ = ADDR(NIL);

   6452  1 000775   000001 236000 xsym               LDQ     B_VECTNIL+1
         1 000776   000012 756100                    STQ     10,,PR0

      768     6453    2           CURR$BLOCK.EVAL$ = CURR$WINDOW.OPERAND.EVAL$;

   6453  1 000777   000013 236100                    LDQ     11,,PR0
         1 001000   200017 471500                    LDP1    CURR_BLOCK$,,AUTO
         1 001001   100004 756100                    STQ     4,,PR1

      769     6454    2           CURR$WINDOW.OPERAND.EVAL$ = ADDR(NIL);

   6454  1 001002   000001 236000 xsym               LDQ     B_VECTNIL+1
         1 001003   000013 756100                    STQ     11,,PR0

      770     6455    2           CALL VDI$PREMOVE_EDIT_BLOCK

   6455  1 001004   000002 631400 xsym               EPPR1   B_VECTNIL+2
         1 001005   000000 701000 xent               TSX1    VDI$PREMOVE_EDIT_BLOCK
         1 001006   001360 702000 1                  TSX2    OFREE_FAILED

      771     6456    2             ALTRET (PREMOVE_EDIT_BLOCK_FAILED);
      772     6457
      773     6458    2           DEL_RANGE = %CLEAR;
PL6.E3A0      #001=VDE$IOPEN File=VDE$INTERPRET.:VDA5TSI                         FRI 07/04/97 11:11 Page:76

   6458  1 001007   000100 100400                    MLR     fill='000'O
         1 001010   000002 000001 xsym               ADSC9   B_VECTNIL+2              cn=0,n=1
         1 001011   200022 000110                    ADSC9   DEL_RANGE,,AUTO          cn=0,n=72

      774     6459    2           DEL_RANGE.START.KEY (%LVL_LOWER-1) = WINDOW_NODE.DESC.KEY;

   6459  1 001012   000000 470400 xsym               LDP0    VD_CURRENT_WINDOW$
         1 001013   000100 100500                    MLR     fill='000'O
         1 001014   000004 000010                    ADSC9   4,,PR0                   cn=0,n=8
         1 001015   200022 000010                    ADSC9   DEL_RANGE,,AUTO          cn=0,n=8

      775     6460    2           DEL_RANGE.START.KEY (%LVL_LOWER) = L2$NODE.DESC.KEY;

   6460  1 001016   200015 471500                    LDP1    L2_NODE$,,AUTO
         1 001017   000100 100500                    MLR     fill='000'O
         1 001020   100004 000010                    ADSC9   4,,PR1                   cn=0,n=8
         1 001021   200024 000010                    ADSC9   DEL_RANGE+2,,AUTO        cn=0,n=8

      776     6461    2           ADDR(DEL_RANGE.START.KEY (%LVL_LOWER)) -> VD$KEY_NUMBER.BYTES# =

   6461  1 001022   200025 236100                    LDQ     EDIT_BLOCK$,,AUTO
         1 001023   000001 036007                    ADLQ    1,DL
         1 001024   200025 552134                    STBQ    EDIT_BLOCK$,'34'O,AUTO

      777     6462    2             ADDR(DEL_RANGE.START.KEY (%LVL_LOWER)) -> VD$KEY_NUMBER.BYTES# +
      778     6463    2             1;
      779     6464    2           DEL_RANGE.ENDD = DEL_RANGE.START;

   6464  1 001025   000100 100500                    MLR     fill='000'O
         1 001026   200022 000044                    ADSC9   DEL_RANGE,,AUTO          cn=0,n=36
         1 001027   200033 000044                    ADSC9   EDIT_BLOCK$+6,,AUTO      cn=0,n=36

      780     6465    2           ADDR(DEL_RANGE.ENDD.KEY (%LVL_LOWER)) -> VD$KEY_NUMBER.BYTES# =

   6465  1 001030   000032 236000 xsym               LDQ     B_VECTNIL+26
         1 001031   200036 552134                    STBQ    EDIT_BLOCK$+9,'34'O,AUTO
PL6.E3A0      #001=VDE$IOPEN File=VDE$INTERPRET.:VDA5TSI                         FRI 07/04/97 11:11 Page:77

      781     6466    2             %MX_CONSEC_RECORDS;
      782     6467    2           CALL VDA$LDELETE (WINDOWS$STREAM, DEL_RANGE)

   6467  1 001032   200022 633500                    EPPR3   DEL_RANGE,,AUTO
         1 001033   200063 453500                    STP3    WBLOCK_LOC+11,,AUTO
         1 001034   000006 236000 xsym               LDQ     VD_6E+6
         1 001035   200062 756100                    STQ     WBLOCK_LOC+10,,AUTO
         1 001036   200062 630500                    EPPR0   WBLOCK_LOC+10,,AUTO
         1 001037   000020 631400 xsym               EPPR1   B_VECTNIL+16
         1 001040   000000 701000 xent               TSX1    VDA$LDELETE
         1 001041   001343 702000 1                  TSX2    LDELETE_FAILED

      783     6468    2             ALTRET (LDELETE_FAILED);
      784     6469
      785     6470    2           CALL VDA$FOPEN (CURR$WINDOW.OPERAND.STREAM$->VD$STREAM,

   6470  1 001042   200004 470500                    LDP0    CURR_WINDOW$,,AUTO
         1 001043   000010 471500                    LDP1    8,,PR0
         1 001044   200005 236100                    LDQ     IT_BLOCK_EXPR$,,AUTO
         1 001045   000030 036003                    ADLQ    24,DU
         1 001046   000013 235000 2                  LDA     11
         1 001047   200064 757100                    STAQ    WBLOCK_LOC+12,,AUTO
         1 001050   200005 236100                    LDQ     IT_BLOCK_EXPR$,,AUTO
         1 001051   000004 036003                    ADLQ    4,DU
         1 001052   200063 756100                    STQ     WBLOCK_LOC+11,,AUTO
         1 001053   200062 451500                    STP1    WBLOCK_LOC+10,,AUTO
         1 001054   200062 630500                    EPPR0   WBLOCK_LOC+10,,AUTO
         1 001055   000022 631400 xsym               EPPR1   B_VECTNIL+18
         1 001056   000000 701000 xent               TSX1    VDA$FOPEN
         1 001057   001071 702000 1                  TSX2    s:6478

      786     6471    2             IT$BLOCK_EXPR.DOMAINN.FILE_KEY, 0, IT$BLOCK_EXPR.OPTIONS)
      787     6472    3           WHENRETURN DO;

      788     6473    3              OPEN_SUCCEEDED = %TRUE;

PL6.E3A0      #001=VDE$IOPEN File=VDE$INTERPRET.:VDA5TSI                         FRI 07/04/97 11:11 Page:78
   6473  1 001060   400000 236003                    LDQ     -131072,DU
         1 001061   200044 756100                    STQ     OPEN_SUCCEEDED,,AUTO

      789     6474    3              IF IT$BLOCK_EXPR.OPTIONS.EXIST# = %EX_NEW THEN

   6474  1 001062   200005 470500                    LDP0    IT_BLOCK_EXPR$,,AUTO
         1 001063   000032 720100                    LXL0    26,,PR0
         1 001064   000001 100003                    CMPX0   1,DU
         1 001065   001070 601000 1                  TNZ     s:6476

      790     6475    3                 IT$BLOCK_EXPR.OPTIONS.EXIST# = %EX_OLD;

   6475  1 001066   000002 221003                    LDX1    2,DU
         1 001067   000032 441100                    SXL1    26,,PR0

      791     6476    3              END;

   6476  1 001070   001102 710000 1                  TRA     s:6484

      792     6477    3           WHENALTRETURN DO;

      793     6478    3              OPEN_SUCCEEDED = %FALSE;

   6478  1 001071   200044 450100                    STZ     OPEN_SUCCEEDED,,AUTO

      794     6479    4              IF CURR$BLOCK.EDIT_BLOCK$ ~= ADDR(NIL) THEN DO;

   6479  1 001072   200017 470500                    LDP0    CURR_BLOCK$,,AUTO
         1 001073   000003 236100                    LDQ     3,,PR0
         1 001074   000001 116000 xsym               CMPQ    B_VECTNIL+1
         1 001075   001102 600000 1                  TZE     s:6484

      795     6480    4                 CALL VDG$INFOMSG (%E$INFO_PUSHED_OLD_EDIT_BLOCK);

   6480  1 001076   000021 630400 2                  EPPR0   17
         1 001077   000017 631400 xsym               EPPR1   B_VECTNIL+15
         1 001100   000000 701000 xent               TSX1    VDG$INFOMSG
PL6.E3A0      #001=VDE$IOPEN File=VDE$INTERPRET.:VDA5TSI                         FRI 07/04/97 11:11 Page:79
         1 001101   000000 011000                    NOP     0

      796     6481    4                 END;

      797     6482    3              END;

      798     6483
      799     6484    3           IF OPEN_SUCCEEDED THEN DO;

   6484  1 001102   200044 234100                    SZN     OPEN_SUCCEEDED,,AUTO
         1 001103   001177 605000 1                  TPL     s:6506

      800     6485                   %INCREMENT (INDX=%STG_BLOCK_NIN_EDITBLOCK);

   6486  1 001104   000042 054000 xsym               AOS     VD_6E+34

      801     6488    3              CALL VDG$OALLOC (%CLS_BLOCK_DESC, CURR$WINDOW.OPERAND.EDIT_BLOCK$)

   6488  1 001105   200004 236100                    LDQ     CURR_WINDOW$,,AUTO
         1 001106   000012 036003                    ADLQ    10,DU
         1 001107   000003 235000 2                  LDA     3
         1 001110   200062 757100                    STAQ    WBLOCK_LOC+10,,AUTO
         1 001111   200062 630500                    EPPR0   WBLOCK_LOC+10,,AUTO
         1 001112   000020 631400 xsym               EPPR1   B_VECTNIL+16
         1 001113   000000 701000 xent               TSX1    VDG$OALLOC
         1 001114   001360 702000 1                  TSX2    OFREE_FAILED

      802     6489    3                ALTRET (OALLOC_FAILED);
      803     6490    3              EDIT_BLOCK$ = CURR$WINDOW.OPERAND.EDIT_BLOCK$;

   6490  1 001115   200004 470500                    LDP0    CURR_WINDOW$,,AUTO
         1 001116   000012 236100                    LDQ     10,,PR0
         1 001117   200010 756100                    STQ     EDIT_BLOCK$,,AUTO

      804     6491    3              EDIT$BLOCK.FILE_KEY = IT$BLOCK_EXPR.DOMAINN.FILE_KEY;

   6491  1 001120   200005 471500                    LDP1    IT_BLOCK_EXPR$,,AUTO
PL6.E3A0      #001=VDE$IOPEN File=VDE$INTERPRET.:VDA5TSI                         FRI 07/04/97 11:11 Page:80
         1 001121   200010 473500                    LDP3    EDIT_BLOCK$,,AUTO
         1 001122   000100 100500                    MLR     fill='000'O
         1 001123   100004 000010                    ADSC9   4,,PR1                   cn=0,n=8
         1 001124   300001 000010                    ADSC9   1,,PR3                   cn=0,n=8

      805     6492    3              EDIT$BLOCK.RANGE = IT$BLOCK_EXPR.DOMAINN.RANGE;

   6492  1 001125   000100 100500                    MLR     fill='000'O
         1 001126   100006 000110                    ADSC9   6,,PR1                   cn=0,n=72
         1 001127   300003 000110                    ADSC9   3,,PR3                   cn=0,n=72

      806     6493    3              IT$BLOCK_EXPR.DOMAINN = %CLEAR;

   6493  1 001130   000100 100400                    MLR     fill='000'O
         1 001131   000002 000001 xsym               ADSC9   B_VECTNIL+2              cn=0,n=1
         1 001132   100003 000124                    ADSC9   3,,PR1                   cn=0,n=84

      807     6494    3              EDIT$BLOCK.OPTIONS = IT$BLOCK_EXPR.OPTIONS;

   6494  1 001133   000100 100500                    MLR     fill='000'O
         1 001134   100030 000024                    ADSC9   24,,PR1                  cn=0,n=20
         1 001135   300025 000024                    ADSC9   21,,PR3                  cn=0,n=20

      808     6495
      809     6496    3              CALL VDG$OALLOC (%CLS_EVAL, CURR$WINDOW.OPERAND.EVAL$)

   6496  1 001136   200004 236100                    LDQ     CURR_WINDOW$,,AUTO
         1 001137   000013 036003                    ADLQ    11,DU
         1 001140   000005 235000 2                  LDA     5
         1 001141   200062 757100                    STAQ    WBLOCK_LOC+10,,AUTO
         1 001142   200062 630500                    EPPR0   WBLOCK_LOC+10,,AUTO
         1 001143   000020 631400 xsym               EPPR1   B_VECTNIL+16
         1 001144   000000 701000 xent               TSX1    VDG$OALLOC
         1 001145   001360 702000 1                  TSX2    OFREE_FAILED

      810     6497    3                ALTRET (OALLOC_FAILED);
      811     6498    3              CURR_EVAL$ = CURR$WINDOW.OPERAND.EVAL$;
PL6.E3A0      #001=VDE$IOPEN File=VDE$INTERPRET.:VDA5TSI                         FRI 07/04/97 11:11 Page:81

   6498  1 001146   200004 470500                    LDP0    CURR_WINDOW$,,AUTO
         1 001147   000013 236100                    LDQ     11,,PR0
         1 001150   200020 756100                    STQ     CURR_EVAL$,,AUTO

      812     6499    3              CALL VDG$OCOPY_RANGE (EDIT$BLOCK.RANGE, CURR$EVAL.ENCLOSING)

   6499  1 001151   000002 036003                    ADLQ    2,DU
         1 001152   200063 756100                    STQ     WBLOCK_LOC+11,,AUTO
         1 001153   200010 236100                    LDQ     EDIT_BLOCK$,,AUTO
         1 001154   000003 036003                    ADLQ    3,DU
         1 001155   200062 756100                    STQ     WBLOCK_LOC+10,,AUTO
         1 001156   200062 630500                    EPPR0   WBLOCK_LOC+10,,AUTO
         1 001157   000020 631400 xsym               EPPR1   B_VECTNIL+16
         1 001160   000000 701000 xent               TSX1    VDG$OCOPY_RANGE
         1 001161   001360 702000 1                  TSX2    OFREE_FAILED

      813     6500    3                ALTRET (OCOPY_RANGE_FAILED);
      814     6501    3              CALL VDG$OCOPY_RANGE (EDIT$BLOCK.RANGE, CURR$EVAL.RANGE)

   6501  1 001162   200020 236100                    LDQ     CURR_EVAL$,,AUTO
         1 001163   000024 036003                    ADLQ    20,DU
         1 001164   200063 756100                    STQ     WBLOCK_LOC+11,,AUTO
         1 001165   200010 236100                    LDQ     EDIT_BLOCK$,,AUTO
         1 001166   000003 036003                    ADLQ    3,DU
         1 001167   200062 756100                    STQ     WBLOCK_LOC+10,,AUTO
         1 001170   200062 630500                    EPPR0   WBLOCK_LOC+10,,AUTO
         1 001171   000020 631400 xsym               EPPR1   B_VECTNIL+16
         1 001172   000000 701000 xent               TSX1    VDG$OCOPY_RANGE
         1 001173   001360 702000 1                  TSX2    OFREE_FAILED

      815     6502    3                ALTRET (OCOPY_RANGE_FAILED);
      816     6503    3              CURR$EVAL.STATE# = %EVST_INITIAL;

   6503  1 001174   000001 220003                    LDX0    1,DU
         1 001175   200020 470500                    LDP0    CURR_EVAL$,,AUTO
         1 001176   000070 740100                    STX0    56,,PR0
PL6.E3A0      #001=VDE$IOPEN File=VDE$INTERPRET.:VDA5TSI                         FRI 07/04/97 11:11 Page:82

      817     6504    3              END;

      818     6505
      819     6506    2           NEW_CHILD_ALLOCATED = %FALSE;

   6506  1 001177   200045 450100                    STZ     NEW_CHILD_ALLOCATED,,AUTO

      820     6507    3           IF CURR$BLOCK.EDIT_BLOCK$ ~= ADDR(NIL) THEN DO;

   6507  1 001200   200017 470500                    LDP0    CURR_BLOCK$,,AUTO
         1 001201   000003 236100                    LDQ     3,,PR0
         1 001202   000001 116000 xsym               CMPQ    B_VECTNIL+1
         1 001203   001216 600000 1                  TZE     s:6513

      821     6508    3              CALL VDG$OALLOC (%CLS_WINDOW_BLOCK, CURR_BLOCK$)

   6508  1 001204   200017 631500                    EPPR1   CURR_BLOCK$,,AUTO
         1 001205   200063 451500                    STP1    WBLOCK_LOC+11,,AUTO
         1 001206   000023 236000 2                  LDQ     19
         1 001207   200062 756100                    STQ     WBLOCK_LOC+10,,AUTO
         1 001210   200062 630500                    EPPR0   WBLOCK_LOC+10,,AUTO
         1 001211   000020 631400 xsym               EPPR1   B_VECTNIL+16
         1 001212   000000 701000 xent               TSX1    VDG$OALLOC
         1 001213   001360 702000 1                  TSX2    OFREE_FAILED

      822     6509    3                ALTRET (OALLOC_FAILED);
      823     6510    3              NEW_CHILD_ALLOCATED = %TRUE;

   6510  1 001214   400000 236003                    LDQ     -131072,DU
         1 001215   200045 756100                    STQ     NEW_CHILD_ALLOCATED,,AUTO

      824     6511    3              END;

      825     6512
      826     6513    3           IF CURR$WINDOW.OPERAND.EDIT_BLOCK$ ~= ADDR(NIL) THEN DO;

PL6.E3A0      #001=VDE$IOPEN File=VDE$INTERPRET.:VDA5TSI                         FRI 07/04/97 11:11 Page:83
   6513  1 001216   200004 470500                    LDP0    CURR_WINDOW$,,AUTO
         1 001217   000012 236100                    LDQ     10,,PR0
         1 001220   000001 116000 xsym               CMPQ    B_VECTNIL+1
         1 001221   001233 600000 1                  TZE     s:6518

      827     6514    3              CALL VDG$OCOPY (CURR$WINDOW.OPERAND.EDIT_BLOCK$->VD$BLOCK_DESC,

   6514  1 001222   000012 471500                    LDP1    10,,PR0
         1 001223   200017 236100                    LDQ     CURR_BLOCK$,,AUTO
         1 001224   000003 036003                    ADLQ    3,DU
         1 001225   200063 756100                    STQ     WBLOCK_LOC+11,,AUTO
         1 001226   200062 451500                    STP1    WBLOCK_LOC+10,,AUTO
         1 001227   200062 630500                    EPPR0   WBLOCK_LOC+10,,AUTO
         1 001230   000020 631400 xsym               EPPR1   B_VECTNIL+16
         1 001231   000000 701000 xent               TSX1    VDG$OCOPY
         1 001232   001360 702000 1                  TSX2    OFREE_FAILED

      828     6515    3                CURR$BLOCK.EDIT_BLOCK$)
      829     6516    3                ALTRET (OCOPY_FAILED);
      830     6517    3              END;

      831     6518    3           IF CURR$WINDOW.OPERAND.EVAL$ ~= ADDR(NIL) THEN DO;

   6518  1 001233   200004 470500                    LDP0    CURR_WINDOW$,,AUTO
         1 001234   000013 236100                    LDQ     11,,PR0
         1 001235   000001 116000 xsym               CMPQ    B_VECTNIL+1
         1 001236   001250 600000 1                  TZE     s:6524

      832     6519    3              CALL VDG$OCOPY (CURR$WINDOW.OPERAND.EVAL$ -> VD$EVAL,

   6519  1 001237   000013 471500                    LDP1    11,,PR0
         1 001240   200017 236100                    LDQ     CURR_BLOCK$,,AUTO
         1 001241   000004 036003                    ADLQ    4,DU
         1 001242   200063 756100                    STQ     WBLOCK_LOC+11,,AUTO
         1 001243   200062 451500                    STP1    WBLOCK_LOC+10,,AUTO
         1 001244   200062 630500                    EPPR0   WBLOCK_LOC+10,,AUTO
         1 001245   000020 631400 xsym               EPPR1   B_VECTNIL+16
PL6.E3A0      #001=VDE$IOPEN File=VDE$INTERPRET.:VDA5TSI                         FRI 07/04/97 11:11 Page:84
         1 001246   000000 701000 xent               TSX1    VDG$OCOPY
         1 001247   001360 702000 1                  TSX2    OFREE_FAILED

      833     6520    3                CURR$BLOCK.EVAL$)
      834     6521    3                ALTRET (OCOPY_FAILED);
      835     6522    3              END;

      836     6523
      837     6524    3           IF NEW_CHILD_ALLOCATED THEN DO;

   6524  1 001250   200045 234100                    SZN     NEW_CHILD_ALLOCATED,,AUTO
         1 001251   001327 605000 1                  TPL     s:6544

      838     6525    3              WBLOCK_SPEC = %CLEAR;

   6525  1 001252   000000 235003                    LDA     0,DU
         1 001253   000000 236003                    LDQ     0,DU
         1 001254   200046 757100                    STAQ    WBLOCK_SPEC,,AUTO

      839     6526    3              WBLOCK_SPEC.TYPE# = %SPT_WINDOW_BLOCK;

   6526  1 001255   000007 220003                    LDX0    7,DU
         1 001256   200046 740100                    STX0    WBLOCK_SPEC,,AUTO

      840     6527    3              WBLOCK_SPEC.REP# = %REP_REMOTE;

   6527  1 001257   000002 221003                    LDX1    2,DU
         1 001260   200046 441100                    SXL1    WBLOCK_SPEC,,AUTO

      841     6528    3              WBLOCK_SPEC.V$ = CURR_BLOCK$;

   6528  1 001261   200017 236100                    LDQ     CURR_BLOCK$,,AUTO
         1 001262   200047 756100                    STQ     WBLOCK_SPEC+1,,AUTO

      842     6529    3              WBLOCK_LOC = %CLEAR;

   6529  1 001263   000100 100400                    MLR     fill='000'O
PL6.E3A0      #001=VDE$IOPEN File=VDE$INTERPRET.:VDA5TSI                         FRI 07/04/97 11:11 Page:85
         1 001264   000002 000001 xsym               ADSC9   B_VECTNIL+2              cn=0,n=1
         1 001265   200050 000044                    ADSC9   WBLOCK_LOC,,AUTO         cn=0,n=36

      843     6530    3              WBLOCK_LOC.KEY (%LVL_LOWER-1) = WINDOW_NODE.DESC.KEY;

   6530  1 001266   000000 470400 xsym               LDP0    VD_CURRENT_WINDOW$
         1 001267   000100 100500                    MLR     fill='000'O
         1 001270   000004 000010                    ADSC9   4,,PR0                   cn=0,n=8
         1 001271   200050 000010                    ADSC9   WBLOCK_LOC,,AUTO         cn=0,n=8

      844     6531    3              WBLOCK_LOC.KEY.TYPE# (%LVL_LOWER) = %KT_NUMBER;

   6531  1 001272   000001 222003                    LDX2    1,DU
         1 001273   200052 742100                    STX2    WBLOCK_LOC+2,,AUTO

      845     6532    3              WBLOCK_LOC.KEY.REP# (%LVL_LOWER) = %REP_LOCAL;

   6532  1 001274   200052 442100                    SXL2    WBLOCK_LOC+2,,AUTO

      846     6533    3              ADDR(WBLOCK_LOC.KEY (%LVL_LOWER)) -> VD$KEY_NUMBER.LENGTH# =

   6533  1 001275   003000 236003                    LDQ     1536,DU
         1 001276   200053 552140                    STBQ    WBLOCK_LOC+3,'40'O,AUTO

      847     6534    3                %NB_NUMERIC_KEY;
      848     6535    3              ADDR(WBLOCK_LOC.KEY (%LVL_LOWER)) -> VD$KEY_NUMBER.BYTES# =

   6535  1 001277   000014 236100                    LDQ     12,,PR0
         1 001300   200053 552134                    STBQ    WBLOCK_LOC+3,'34'O,AUTO

      849     6536    3                WINDOW_NODE.COUNT#;     /* Key for new level-2 child */
      850     6537    3              CURR$WINDOW.CURR_INDEX# = WINDOW_NODE.COUNT#;

   6537  1 001301   000014 723100                    LXL3    12,,PR0
         1 001302   200004 471500                    LDP1    CURR_WINDOW$,,AUTO
         1 001303   100014 743100                    STX3    12,,PR1

PL6.E3A0      #001=VDE$IOPEN File=VDE$INTERPRET.:VDA5TSI                         FRI 07/04/97 11:11 Page:86
      851     6538    3              CALL VDA$LWRITE (WINDOWS$STREAM, WBLOCK_LOC, WBLOCK_SPEC)

   6538  1 001304   200046 633500                    EPPR3   WBLOCK_SPEC,,AUTO
         1 001305   200064 453500                    STP3    WBLOCK_LOC+12,,AUTO
         1 001306   200050 634500                    EPPR4   WBLOCK_LOC,,AUTO
         1 001307   200063 454500                    STP4    WBLOCK_LOC+11,,AUTO
         1 001310   000006 236000 xsym               LDQ     VD_6E+6
         1 001311   200062 756100                    STQ     WBLOCK_LOC+10,,AUTO
         1 001312   200062 630500                    EPPR0   WBLOCK_LOC+10,,AUTO
         1 001313   000021 631400 xsym               EPPR1   B_VECTNIL+17
         1 001314   000000 701000 xent               TSX1    VDA$LWRITE
         1 001315   001335 702000 1                  TSX2    LWRITE_FAILED

      852     6539    3                ALTRET (LWRITE_FAILED);
      853     6540    3              CALL VDA$PFLUSH (WINDOWS$STREAM.PORT$->VD$PORT, %TO_PRESENTER)

   6540  1 001316   000006 470400 xsym               LDP0    VD_6E+6
         1 001317   000001 471500                    LDP1    1,,PR0
         1 001320   000013 236000 2                  LDQ     11
         1 001321   200063 756100                    STQ     WBLOCK_LOC+11,,AUTO
         1 001322   200062 451500                    STP1    WBLOCK_LOC+10,,AUTO
         1 001323   200062 630500                    EPPR0   WBLOCK_LOC+10,,AUTO
         1 001324   000020 631400 xsym               EPPR1   B_VECTNIL+16
         1 001325   000000 701000 xent               TSX1    VDA$PFLUSH
         1 001326   001360 702000 1                  TSX2    OFREE_FAILED

      854     6541    3                ALTRET (PFLUSH_FAILED);
      855     6542    3              END;

      856     6543
      857     6544    2           IF NOT OPEN_SUCCEEDED THEN

   6544  1 001327   200044 234100                    SZN     OPEN_SUCCEEDED,,AUTO
         1 001330   001333 604000 1                  TMI     s:6546

      858     6545    2              ALTRETURN;

PL6.E3A0      #001=VDE$IOPEN File=VDE$INTERPRET.:VDA5TSI                         FRI 07/04/97 11:11 Page:87
   6545  1 001331   200014 221300                    LDX1  ! DOMAIN_KEY$+3,,AUTO
         1 001332   000000 702211                    TSX2  ! 0,X1

      859     6546    2           RETURN;

   6546  1 001333   200014 221300                    LDX1  ! DOMAIN_KEY$+3,,AUTO
         1 001334   000001 702211                    TSX2  ! 1,X1

      860     6547
      861     6548
      862     6549
      863     6550    2   LWRITE_FAILED:
      864     6551    2           CALL VDG$OFREE (CURR$BLOCK)

   6551  1 001335   200017 630500       LWRITE_FAIL* EPPR0   CURR_BLOCK$,,AUTO
         1 001336   000017 631400 xsym               EPPR1   B_VECTNIL+15
         1 001337   000000 701000 xent               TSX1    VDG$OFREE
         1 001340   001360 702000 1                  TSX2    OFREE_FAILED

      865     6552    2             ALTRET (OFREE_FAILED);
      866     6553    2           ALTRETURN;

   6553  1 001341   200014 221300                    LDX1  ! DOMAIN_KEY$+3,,AUTO
         1 001342   000000 702211                    TSX2  ! 0,X1

      867     6554
      868     6555
      869     6556    2   LDELETE_FAILED:
      870     6557                /* Make this a fatal error (which must be first in chain) */
      871     6558    3           IF VD_6E.ERR_TAIL$ ~= VD_6E.ERR_HEAD$ THEN DO;

   6558  1 001343   000032 236000 xsym  LDELETE_FAI* LDQ     VD_6E+26
         1 001344   000031 116000 xsym               CMPQ    VD_6E+25
         1 001345   001356 600000 1                  TZE     s:6562

      872     6559    3              VD$ERR_FIRST = VD$ERR_LAST;

PL6.E3A0      #001=VDE$IOPEN File=VDE$INTERPRET.:VDA5TSI                         FRI 07/04/97 11:11 Page:88
   6559  1 001346   000032 470400 xsym               LDP0    VD_6E+26
         1 001347   000031 471400 xsym               LDP1    VD_6E+25
         1 001350   000100 100500                    MLR     fill='000'O
         1 001351   000000 000024                    ADSC9   0,,PR0                   cn=0,n=20
         1 001352   100000 000024                    ADSC9   0,,PR1                   cn=0,n=20

      873     6560    3              VD$ERR_FIRST.FLAGLEV# = %FLV_FATAL;

   6560  1 001353   000004 220003                    LDX0    4,DU
         1 001354   000031 470400 xsym               LDP0    VD_6E+25
         1 001355   000003 740100                    STX0    3,,PR0

      874     6561    3              END;

      875     6562    2           ALTRETURN;

   6562  1 001356   200014 221300                    LDX1  ! DOMAIN_KEY$+3,,AUTO
         1 001357   000000 702211                    TSX2  ! 0,X1

   6558  1 001360                       OFREE_FAILED null
   6558  1 001360                       PREMOVE_EDI* null
   6558  1 001360                       PFLUSH_FAIL* null
   6558  1 001360                       OALLOC_FAIL* null
   6558  1 001360                       OCOPY_RANGE* null
   6558  1 001360                       OCOPY_LOCAT* null
   6558  1 001360                       OCOPY_FAILED null
      876     6563
      877     6564
      878     6565    2   OFREE_FAILED: ;
      879     6566    2   PREMOVE_EDIT_BLOCK_FAILED: ;
      880     6567    2   PFLUSH_FAILED: ;
      881     6568    2   OALLOC_FAILED: ;
      882     6569    2   OCOPY_RANGE_FAILED: ;
      883     6570    2   OCOPY_LOCATION_FAILED: ;
      884     6571    2   OCOPY_FAILED: ;
      885     6572    2           ALTRETURN;

PL6.E3A0      #001=VDE$IOPEN File=VDE$INTERPRET.:VDA5TSI                         FRI 07/04/97 11:11 Page:89
   6572  1 001360   200014 221300                    LDX1  ! DOMAIN_KEY$+3,,AUTO
         1 001361   000000 702211                    TSX2  ! 0,X1
      886     6573
      887     6574    2   END NEW_EDIT_BLOCK;
      888     6575
      889     6576    1   END VDE$IOPEN;
      890     6577        %EOD;

PL6.E3A0      #001=VDE$IOPEN File=VDE$INTERPRET.:VDA5TSI                         FRI 07/04/97 11:11 Page:90
--  Include file information  --

   VD_PERR_C.:VDA5TOU  is referenced.
   VD_MACROS_M.:VDA5TOU  is referenced.
   B$JIT_C.:E04TOU  was found in the system file and is never referenced.
   CP_6_C.:E04TOU  was found in the system file and is never referenced.
      No diagnostics issued in procedure VDE$IOPEN.
PL6.E3A0      #001=VDE$IOPEN File=VDE$INTERPRET.:VDA5TSI                         FRI 07/04/97 11:11 Page:91

 **** Variables and constants ****

  ****  Auto variables  ****

  ****  Scalars and arrays  ****
OctLoc.c.b A Datatyp(siz) R M Lvl/name                 OctLoc.c.b A Datatyp(siz) R M Lvl/name

    17-0-0/w PTR         r     1 CURR_BLOCK$               17-0-0/w PTR         r     1 CURR_BLOCK$
    21-0-0/w PTR         r     1 CURR_EVAL$                20-0-0/w PTR         r     1 CURR_EVAL$
     4-0-0/w PTR         r     1 CURR_WINDOW$              22-0-0/w STRC(648)   r     1 DEL_RANGE
    11-0-0/w PTR         r     1 DOMAIN_KEY$               10-0-0/w PTR         r     1 EDIT_BLOCK$
    25-0-0/w PTR         r     1 EDIT_BLOCK$               16-0-0/w SBIN        r     1 INDX
    16-0-0/w SBIN        r     1 INDX                       5-0-0/w PTR         r     1 IT_BLOCK_EXPR$
     6-0-0/w PTR         r     1 IT_SELECT$                15-0-0/w PTR         r     1 L2_NODE$
    15-0-0/w PTR         r     1 L2_NODE$                  20-0-0/w PTR         r     1 NEW_BLOCK$
    45-0-0/w BIT         r     1 NEW_CHILD_ALLOCATED       22-0-0/w PTR         r     1 NEXT_EVAL$
    21-0-0/w PTR         r     1 NEXT_EVAL$                44-0-0/w BIT         r     1 OPEN_SUCCEEDED
     3-0-0/w PTR         r     1 OPERAND$                   7-0-0/w PTR         r     1 TOS_EVAL$
    50-0-0/w STRC(324)   r     1 WBLOCK_LOC                46-0-0/w STRC(72)    r     1 WBLOCK_SPEC

  ****  SYMREF variables  ****

  ****  Scalars and arrays  ****
OctLoc.c.b A Datatyp(siz) R M Lvl/name                 OctLoc.c.b A Datatyp(siz) R M Lvl/name

     0-0-0/w STRC(22644) r     1 VD_6E                      0-0-0/w PTR         r     1 VD_CURRENT_WINDOW$

  ****  BASED and DCB variables  ****

  ****  Scalars and arrays  ****
OctLoc.c.b A Datatyp(siz) R M Lvl/name                 OctLoc.c.b A Datatyp(siz) R M Lvl/name

     0-0-0/w STRC(180)   r     1 CURR$BLOCK                 0-0-0/w STRC(180)   r     1 CURR$BLOCK
     0-0-0/w STRC(2124)  r     1 CURR$EVAL                  0-0-0/w STRC(2124)  r     1 CURR$EVAL
     0-0-0/w STRC(900)   r     1 CURR$WINDOW                0-0-0/w STRC(648)   r     1 DOMAIN$KEY
     0-0-0/w STRC(936)   r     1 EDIT$BLOCK                 0-0-0/w STRC(936)   r     1 EDIT$BLOCK
     0-0-0/w STRC(1116)  r     1 IT$BLOCK_EXPR              0-0-0/w STRC(216)   r     1 IT$SELECT
PL6.E3A0      #001=VDE$IOPEN File=VDE$INTERPRET.:VDA5TSI                         FRI 07/04/97 11:11 Page:92
     0-0-0/w STRC(468)   r     1 L2$NODE                    0-0-0/w STRC(468)   r     1 L2$NODE
     0-0-0/w STRC(180)   r     1 NEW$BLOCK                  0-0-0/w STRC(144)   r     1 OPERAND
     0-0-0/w STRC(2124)  r     1 TOS$EVAL                   0-0-0/w STRC(936)   r     1 VD$BLOCK_DESC
     0-0-0/w STRC(936)   r     1 VD$BLOCK_DESC              0-0-0/w STRC(180)   r     1 VD$ERR_FIRST
     0-0-0/w STRC(180)   r     1 VD$ERR_LAST                0-0-0/w STRC(2124)  r     1 VD$EVAL
     0-0-0/w STRC(2124)  r     1 VD$EVAL                    0-0-0/w STRC(72)    r     1 VD$KEY_NUMBER
     0-0-0/w STRC(1944)  r     1 VD$PORT                    0-0-0/w STRC(864)   r     1 VD$STREAM
     0-0-0/w STRC(864)   r     1 VD$STREAM                  0-0-0/w ASTR(81)    r     1 VD$TEXTC_REMOTE
     0-0-0/w STRC(864)   r     1 WINDOWS$STREAM             0-0-0/w STRC(468)   r     1 WINDOW_NODE


   Procedure VDE$IOPEN requires 754 words for executable code.
   Procedure VDE$IOPEN requires 54 words of local(AUTO) storage.
PL6.E3A0      #001=VDE$IOPEN File=VDE$INTERPRET.:VDA5TSI                         FRI 07/04/97 11:11 Page:93
          *** CROSS REFERENCE LISTING ***
**     DENOTES     IDENTIFIER DEFINITION
<<                 IDENTIFIER'S VALUE SET
>>                 IDENTIFIER'S VALUE USED
<>                 IDENTIFIER SET AND/OR USED
--                 IDENTIFIER REFERENCED
PL6.E3A0      #001=VDE$IOPEN File=VDE$INTERPRET.:VDA5TSI                         FRI 07/04/97 11:11 Page:94
          MINI XREF LISTING

CANT_EDIT_SCRATCH_FAILURE
      3998**LABEL    3800--GOTO
COMMON_FINISH
      3960**LABEL    3806--GOTO
CURR$BLOCK IN PROCEDURE NEW_EDIT_BLOCK
      5642**DCL      6551<>CALL
CURR$BLOCK.EDIT_BLOCK$ IN PROCEDURE NEW_EDIT_BLOCK
      5668**DCL      6441>>CALL     6451<<ASSIGN   6479>>IF       6507>>IF       6514<>CALL
CURR$BLOCK.EVAL$ IN PROCEDURE NEW_EDIT_BLOCK
      5668**DCL      6443>>ASSIGN   6453<<ASSIGN   6519<>CALL
CURR$BLOCK.EDIT_BLOCK$ IN PROCEDURE NEXT_PREV_DOMAIN
      4465**DCL      5279>>CALL     5289<<ASSIGN
CURR$BLOCK.EVAL$ IN PROCEDURE NEXT_PREV_DOMAIN
      4465**DCL      5281>>ASSIGN   5291<<ASSIGN
CURR$EVAL IN PROCEDURE NEW_EDIT_BLOCK
      5679**DCL      6446<>CALL
CURR$EVAL.BLINK$ IN PROCEDURE NEW_EDIT_BLOCK
      5705**DCL      6445>>ASSIGN
CURR$EVAL.ENCLOSING IN PROCEDURE NEW_EDIT_BLOCK
      5716**DCL      6499<>CALL
CURR$EVAL.RANGE IN PROCEDURE NEW_EDIT_BLOCK
      5785**DCL      6501<>CALL
CURR$EVAL.STATE# IN PROCEDURE NEW_EDIT_BLOCK
      5913**DCL      6503<<ASSIGN
CURR$EVAL IN PROCEDURE NEXT_PREV_DOMAIN
      4513**DCL      5284<>CALL
CURR$EVAL.BLINK$ IN PROCEDURE NEXT_PREV_DOMAIN
      4539**DCL      5283>>ASSIGN
CURR$WINDOW.CURR_INDEX#
      3550**DCL      5254>>DOWHILE  5275<<ASSIGN   5275>>ASSIGN   5277<<ASSIGN   5277>>ASSIGN   6434>>DOWHILE
      6537<<ASSIGN
CURR$WINDOW.OPERAND
PL6.E3A0      #001=VDE$IOPEN File=VDE$INTERPRET.:VDA5TSI                         FRI 07/04/97 11:11 Page:95
      3546**DCL      3773--ASSIGN
CURR$WINDOW.OPERAND.EDIT_BLOCK$
      3548**DCL      3910>>CALL     5289>>ASSIGN   5290<<ASSIGN   6451>>ASSIGN   6452<<ASSIGN   6488<>CALL
      6490>>ASSIGN   6513>>IF       6514>>CALL
CURR$WINDOW.OPERAND.EVAL$
      3548**DCL      3914>>CALL     5291>>ASSIGN   5292<<ASSIGN   6453>>ASSIGN   6454<<ASSIGN   6496<>CALL
      6498>>ASSIGN   6518>>IF       6519>>CALL
CURR$WINDOW.OPERAND.INTREE$
      3548**DCL      3892>>ASSIGN   3893>>ASSIGN   3894<<ASSIGN
CURR$WINDOW.OPERAND.STREAM$
      3548**DCL      5319>>CALL     6470>>CALL
CURR_BLOCK$ IN PROCEDURE NEW_EDIT_BLOCK
      5423**DCL      5642--IMP-PTR  6439<<ASSIGN   6441>>CALL     6443>>ASSIGN   6451>>ASSIGN   6453>>ASSIGN
      6479>>IF       6507>>IF       6508<>CALL     6514>>CALL     6519>>CALL     6528>>ASSIGN   6551>>CALL
CURR_BLOCK$ IN PROCEDURE NEXT_PREV_DOMAIN
      4332**DCL      4439--IMP-PTR  5263<<ASSIGN   5279>>CALL     5281>>ASSIGN   5289>>ASSIGN   5291>>ASSIGN
CURR_EVAL$ IN PROCEDURE NEW_EDIT_BLOCK
      5424**DCL      5679--IMP-PTR  6443<<ASSIGN   6444>>DOWHILE  6445>>ASSIGN   6446>>CALL     6448<<ASSIGN
      6498<<ASSIGN   6499>>CALL     6501>>CALL     6503>>ASSIGN
CURR_EVAL$ IN PROCEDURE NEXT_PREV_DOMAIN
      4334**DCL      4513--IMP-PTR  5281<<ASSIGN   5282>>DOWHILE  5283>>ASSIGN   5284>>CALL     5286<<ASSIGN
CURR_WINDOW$
      2695**DCL      3507--IMP-PTR  3772<<ASSIGN   3773>>ASSIGN   3887<<ASSIGN   3892>>ASSIGN   3893>>ASSIGN
      3894>>ASSIGN   3910>>CALL     3914>>CALL     5254>>DOWHILE  5275>>ASSIGN   5275>>ASSIGN   5277>>ASSIGN
      5277>>ASSIGN   5289>>ASSIGN   5290>>ASSIGN   5291>>ASSIGN   5292>>ASSIGN   5319>>CALL     6434>>DOWHILE
      6451>>ASSIGN   6452>>ASSIGN   6453>>ASSIGN   6454>>ASSIGN   6470>>CALL     6488>>CALL     6490>>ASSIGN
      6496>>CALL     6498>>ASSIGN   6513>>IF       6514>>CALL     6518>>IF       6519>>CALL     6537>>ASSIGN
DEL_RANGE IN PROCEDURE NEW_EDIT_BLOCK
      5434**DCL      6458<<ASSIGN   6467<>CALL
DEL_RANGE.ENDD IN PROCEDURE NEW_EDIT_BLOCK
      5476**DCL      6464<<ASSIGN
DEL_RANGE.ENDD.KEY IN PROCEDURE NEW_EDIT_BLOCK
      5488**DCL      6465--ASSIGN
DEL_RANGE.START IN PROCEDURE NEW_EDIT_BLOCK
      5448**DCL      6464>>ASSIGN
DEL_RANGE.START.KEY IN PROCEDURE NEW_EDIT_BLOCK
PL6.E3A0      #001=VDE$IOPEN File=VDE$INTERPRET.:VDA5TSI                         FRI 07/04/97 11:11 Page:96
      5460**DCL      6459<<ASSIGN   6460<<ASSIGN   6461--ASSIGN   6461--ASSIGN
DOMAIN$KEY.UNIQUE.FNAME.BYTES
      3434**DCL      3797>>IF
DOMAIN$KEY.UNIQUE.FNAME.LENGTH#
      3433**DCL      3797>>IF
DOMAIN_KEY$
      2700**DCL      3405--IMP-PTR  3796<<ASSIGN   3797>>IF       3797>>IF
EDIT$BLOCK
      3250**DCL      3896<>CALL     3910<>CALL
EDIT$BLOCK.FILE_KEY
      3286**DCL      3931<<ASSIGN   5319<>CALL     6491<<ASSIGN
EDIT$BLOCK.OPTIONS
      3369**DCL      3934<<ASSIGN   5319<>CALL     6494<<ASSIGN
EDIT$BLOCK.OPTIONS.EXIST#
      3372**DCL      5322>>IF       5323<<ASSIGN
EDIT$BLOCK.OPTIONS.KEY_INCR
      3383**DCL      3949<<ASSIGN
EDIT$BLOCK.OPTIONS.KEY_INCR.V$
      3385**DCL      3949<>CALL
EDIT$BLOCK.RANGE
      3300**DCL      3932<<ASSIGN   3955<>CALL     3987<>CALL     6492<<ASSIGN   6499<>CALL     6501<>CALL
EDIT$BLOCK.OPTIONS.COMPONENT# IN PROCEDURE UPDATE_OPTIONS
      4202**DCL      4236>>ASSIGN   4238<<ASSIGN
EDIT$BLOCK.OPTIONS.EXIST# IN PROCEDURE UPDATE_OPTIONS
      4203**DCL      4246>>ASSIGN   4248<<ASSIGN
EDIT$BLOCK.OPTIONS.KEY_INCR IN PROCEDURE UPDATE_OPTIONS
      4214**DCL      4251>>ASSIGN
EDIT$BLOCK.OPTIONS.LEVEL# IN PROCEDURE UPDATE_OPTIONS
      4202**DCL      4231>>ASSIGN   4233<<ASSIGN
EDIT$BLOCK.OPTIONS.PROTECT# IN PROCEDURE UPDATE_OPTIONS
      4202**DCL      4241>>ASSIGN   4243<<ASSIGN
EDIT$BLOCK.OPTIONS.STRUCTURE$ IN PROCEDURE UPDATE_OPTIONS
      4202**DCL      4226>>ASSIGN   4228<<ASSIGN
EDIT_BLOCK$
      2699**DCL      3250--IMP-PTR  3913<<ASSIGN   3930<<ASSIGN   3931>>ASSIGN   3932>>ASSIGN   3934>>ASSIGN
      3949>>ASSIGN   3949>>CALL     3955>>CALL     3984<<ASSIGN   3987>>CALL     5314<<ASSIGN   5319>>CALL
PL6.E3A0      #001=VDE$IOPEN File=VDE$INTERPRET.:VDA5TSI                         FRI 07/04/97 11:11 Page:97
      5319>>CALL     5322>>IF       5323>>ASSIGN   6490<<ASSIGN   6491>>ASSIGN   6492>>ASSIGN   6494>>ASSIGN
      6499>>CALL     6501>>CALL
EDIT_BLOCK$ IN PROCEDURE UPDATE_OPTIONS
      4070**DCL      4081--IMP-PTR  4223<<ASSIGN   4226>>ASSIGN   4228>>ASSIGN   4231>>ASSIGN   4233>>ASSIGN
      4236>>ASSIGN   4238>>ASSIGN   4241>>ASSIGN   4243>>ASSIGN   4246>>ASSIGN   4248>>ASSIGN   4251>>ASSIGN
INDX IN PROCEDURE NEW_EDIT_BLOCK
      5422**DCL      6433<<ASSIGN   6434>>DOWHILE  6437<<ASSIGN   6437>>ASSIGN
INDX IN PROCEDURE NEXT_PREV_DOMAIN
      4331**DCL      5253<<ASSIGN   5254>>DOWHILE  5257<<ASSIGN   5257>>ASSIGN
IT$BLOCK_EXPR
      2712**DCL      3890<>CALL
IT$BLOCK_EXPR.DOMAINN
      2738**DCL      3776>>IF       3909>>IF       3933<<ASSIGN   5297<<ASSIGN   5341<<ASSIGN   6493<<ASSIGN
IT$BLOCK_EXPR.DOMAINN.FILE_KEY
      2750**DCL      3931>>ASSIGN   6470<>CALL     6491>>ASSIGN
IT$BLOCK_EXPR.DOMAINN.FILE_KEY.V$
      2752**DCL      3796>>ASSIGN
IT$BLOCK_EXPR.DOMAINN.NEXT
      2738**DCL      3784>>IF       3921>>IF       5265>>IF       5274>>IF       5337>>IF
IT$BLOCK_EXPR.DOMAINN.PREVIOUS
      2738**DCL      3784>>IF       3921>>IF
IT$BLOCK_EXPR.DOMAINN.RANGE
      2764**DCL      3932>>ASSIGN   6492>>ASSIGN
IT$BLOCK_EXPR.OPTIONS
      2833**DCL      3934>>ASSIGN   6470<>CALL     6494>>ASSIGN
IT$BLOCK_EXPR.OPTIONS.COMPONENT#
      2835**DCL      4235>>IF       4236<<ASSIGN   4238>>ASSIGN
IT$BLOCK_EXPR.OPTIONS.EXIST#
      2836**DCL      3908<<ASSIGN   4245>>IF       4246<<ASSIGN   4248>>ASSIGN   6474>>IF       6475<<ASSIGN
IT$BLOCK_EXPR.OPTIONS.KEY_INCR
      2847**DCL      3949>>ASSIGN   4250>>IF       4251<<ASSIGN
IT$BLOCK_EXPR.OPTIONS.KEY_INCR.REP#
      2849**DCL      3949>>IF
IT$BLOCK_EXPR.OPTIONS.KEY_INCR.V$
      2849**DCL      3949>>CALL     3949>>CALL
IT$BLOCK_EXPR.OPTIONS.LEVEL#
PL6.E3A0      #001=VDE$IOPEN File=VDE$INTERPRET.:VDA5TSI                         FRI 07/04/97 11:11 Page:98
      2835**DCL      4230>>IF       4231<<ASSIGN   4233>>ASSIGN
IT$BLOCK_EXPR.OPTIONS.PROTECT#
      2835**DCL      4240>>IF       4241<<ASSIGN   4243>>ASSIGN
IT$BLOCK_EXPR.OPTIONS.STRUCTURE$
      2835**DCL      4225>>IF       4226<<ASSIGN   4228>>ASSIGN
IT$BLOCK_EXPR.SELECTS$
      2852**DCL      3965>>ASSIGN
IT$SELECT.RPT_ALL
      2888**DCL      3976>>IF
IT$SELECT.RPT_COUNT#
      2888**DCL      3979>>ASSIGN
IT_BLOCK_EXPR$
      2696**DCL      2712--IMP-PTR  3774<<ASSIGN   3776>>IF       3784>>IF       3784>>IF       3796>>ASSIGN
      3893<<ASSIGN   3908>>ASSIGN   3909>>IF       3921>>IF       3921>>IF       3931>>ASSIGN   3932>>ASSIGN
      3933>>ASSIGN   3934>>ASSIGN   3949>>ASSIGN   3949>>IF       3949>>CALL     3949>>CALL     3965>>ASSIGN
      4225>>IF       4226>>ASSIGN   4228>>ASSIGN   4230>>IF       4231>>ASSIGN   4233>>ASSIGN   4235>>IF
      4236>>ASSIGN   4238>>ASSIGN   4240>>IF       4241>>ASSIGN   4243>>ASSIGN   4245>>IF       4246>>ASSIGN
      4248>>ASSIGN   4250>>IF       4251>>ASSIGN   5265>>IF       5274>>IF       5297>>ASSIGN   5337>>IF
      5341>>ASSIGN   6470>>CALL     6470>>CALL     6474>>IF       6475>>ASSIGN   6491>>ASSIGN   6492>>ASSIGN
      6493>>ASSIGN   6494>>ASSIGN
IT_SELECT$
      2697**DCL      2862--IMP-PTR  3965<<ASSIGN   3974>>ASSIGN   3975>>IF       3976>>IF       3979>>ASSIGN
L2$NODE.DESC.KEY IN PROCEDURE NEW_EDIT_BLOCK
      5612**DCL      6460>>ASSIGN
L2$NODE.DESC.SPEC.V$ IN PROCEDURE NEW_EDIT_BLOCK
      5628**DCL      6439>>ASSIGN
L2$NODE.FLINK$ IN PROCEDURE NEW_EDIT_BLOCK
      5575**DCL      6436>>ASSIGN
L2$NODE.BLINK$ IN PROCEDURE NEXT_PREV_DOMAIN
      4372**DCL      5268>>ASSIGN
L2$NODE.DESC.SPEC.V$ IN PROCEDURE NEXT_PREV_DOMAIN
      4425**DCL      5263>>ASSIGN   5271>>ASSIGN
L2$NODE.FLINK$ IN PROCEDURE NEXT_PREV_DOMAIN
      4372**DCL      5256>>ASSIGN   5266>>ASSIGN
L2_NODE$ IN PROCEDURE NEW_EDIT_BLOCK
      5421**DCL      5549--IMP-PTR  6432<<ASSIGN   6434>>DOWHILE  6436<<ASSIGN   6436>>ASSIGN   6439>>ASSIGN
PL6.E3A0      #001=VDE$IOPEN File=VDE$INTERPRET.:VDA5TSI                         FRI 07/04/97 11:11 Page:99
      6460>>ASSIGN
L2_NODE$ IN PROCEDURE NEXT_PREV_DOMAIN
      4330**DCL      4346--IMP-PTR  5252<<ASSIGN   5254>>DOWHILE  5256<<ASSIGN   5256>>ASSIGN   5260>>IF
      5263>>ASSIGN   5266<<ASSIGN   5266>>ASSIGN   5268<<ASSIGN   5268>>ASSIGN   5269>>IF       5271>>ASSIGN
LDELETE_FAILED IN PROCEDURE NEW_EDIT_BLOCK
      6558**LABEL    6467--CALLALT
LWRITE_FAILED IN PROCEDURE NEW_EDIT_BLOCK
      6551**LABEL    6538--CALLALT
NEW$BLOCK.EDIT_BLOCK$ IN PROCEDURE NEXT_PREV_DOMAIN
      4502**DCL      5299>>IF       5300>>CALL
NEW$BLOCK.EVAL$ IN PROCEDURE NEXT_PREV_DOMAIN
      4502**DCL      5308>>IF       5309>>CALL
NEW_BLOCK$ IN PROCEDURE NEXT_PREV_DOMAIN
      4333**DCL      4476--IMP-PTR  5271<<ASSIGN   5299>>IF       5300>>CALL     5308>>IF       5309>>CALL
NEW_CHILD_ALLOCATED IN PROCEDURE NEW_EDIT_BLOCK
      5496**DCL      6506<<ASSIGN   6510<<ASSIGN   6524>>IF
NEW_EDIT_BLOCK
      5418**PROC     3801--CALL
NEW_EDIT_BLOCK_FAILED
      3998**LABEL    3801--CALLALT
NEXT_EVAL$ IN PROCEDURE NEW_EDIT_BLOCK
      5425**DCL      6445<<ASSIGN   6448>>ASSIGN
NEXT_EVAL$ IN PROCEDURE NEXT_PREV_DOMAIN
      4335**DCL      5283<<ASSIGN   5286>>ASSIGN
NEXT_PREV_DOMAIN
      4327**PROC     3786--CALL     3923--CALL
NEXT_PREV_DOMAIN_FAILED
      3998**LABEL    3786--CALLALT  3923--CALLALT
NO_NEXT_PREV_EDIT_BL_FAILURE IN PROCEDURE NEXT_PREV_DOMAIN
      5337**LABEL    5261--GOTO     5270--GOTO
OALLOC_FAILED
      3998**LABEL    3927--CALLALT  3953--CALLALT  3968--CALLALT
OALLOC_FAILED IN PROCEDURE NEW_EDIT_BLOCK
      6558**LABEL    6488--CALLALT  6496--CALLALT  6508--CALLALT
OCLEAR_RANGE_FAILED
      3998**LABEL    3985--CALLALT  3990--CALLALT
PL6.E3A0      #001=VDE$IOPEN File=VDE$INTERPRET.:VDA5TSI                         FRI 07/04/97 11:11 Page:100
OCOPY_FAILED
      3998**LABEL    3910--CALLALT  3914--CALLALT
OCOPY_FAILED IN PROCEDURE NEW_EDIT_BLOCK
      6558**LABEL    6514--CALLALT  6519--CALLALT
OCOPY_FAILED IN PROCEDURE NEXT_PREV_DOMAIN
      5341**LABEL    5300--CALLALT  5309--CALLALT
OCOPY_RANGE_FAILED
      3998**LABEL    3955--CALLALT  3987--CALLALT
OCOPY_RANGE_FAILED IN PROCEDURE NEW_EDIT_BLOCK
      6558**LABEL    6499--CALLALT  6501--CALLALT
OFREE_FAILED
      3998**LABEL    3890--CALLALT  3896--CALLALT  3902--CALLALT
OFREE_FAILED IN PROCEDURE NEW_EDIT_BLOCK
      6558**LABEL    6441--CALLALT  6446--CALLALT  6551--CALLALT
OFREE_FAILED IN PROCEDURE NEXT_PREV_DOMAIN
      5341**LABEL    5279--CALLALT  5284--CALLALT
OPEN_SUCCEEDED IN PROCEDURE NEW_EDIT_BLOCK
      5495**DCL      6473<<ASSIGN   6478<<ASSIGN   6484>>IF       6544>>IF
OPERAND.EDIT_BLOCK$
      2627**DCL      3984>>ASSIGN   4223>>ASSIGN   5300<>CALL     5314>>ASSIGN
OPERAND.EVAL$
      2627**DCL      3966>>ASSIGN   3968<>CALL     3970>>ASSIGN   5309<>CALL
OPERAND.INTREE$
      2627**DCL      3774>>ASSIGN
OPERAND$
      2694**DCL      2623--IMP-PTR  3773<<ASSIGN   3774>>ASSIGN   3888<<ASSIGN   3966>>ASSIGN   3968>>CALL
      3970>>ASSIGN   3984>>ASSIGN   4223>>ASSIGN   5273>>IF       5300>>CALL     5309>>CALL     5314>>ASSIGN
      5317>>IF
PFLUSH_FAILED IN PROCEDURE NEW_EDIT_BLOCK
      6558**LABEL    6540--CALLALT
PREMOVE_EDIT_BLOCK_FAILED IN PROCEDURE NEW_EDIT_BLOCK
      6558**LABEL    6455--CALLALT
PREMOVE_EDIT_BLOCK_FAILED IN PROCEDURE NEXT_PREV_DOMAIN
      5341**LABEL    5293--CALLALT  5326--CALLALT
TOS$EVAL
      2899**DCL      3902<>CALL     3914<>CALL
PL6.E3A0      #001=VDE$IOPEN File=VDE$INTERPRET.:VDA5TSI                         FRI 07/04/97 11:11 Page:101
TOS$EVAL.BLINK$
      2925**DCL      3901>>ASSIGN
TOS$EVAL.ENCLOSING
      2936**DCL      3985<>CALL     3987<>CALL
TOS$EVAL.LAST_FOUND_RANGE
      3074**DCL      3990<>CALL
TOS$EVAL.NODE$
      3133**DCL      3974<<ASSIGN
TOS$EVAL.RANGE
      3005**DCL      3955<>CALL
TOS$EVAL.REMAINING#
      3133**DCL      3977<<ASSIGN   3979<<ASSIGN   3982<<ASSIGN
TOS$EVAL.STATE#
      3133**DCL      3960<<ASSIGN   3971<<ASSIGN
TOS_EVAL$
      2698**DCL      2899--IMP-PTR  3901<<ASSIGN   3904>>ASSIGN   3966<<ASSIGN   3967>>IF       3970<<ASSIGN
      3971>>ASSIGN   3974>>ASSIGN   3977>>ASSIGN   3979>>ASSIGN   3982>>ASSIGN   3985>>CALL     3987>>CALL
      3990>>CALL
UPDATE_OPTIONS
      4067**PROC     3780--CALL     3917--CALL     5315--CALL
UPDATE_OPTIONS_FAILED
      3998**LABEL    3780--CALLALT  3917--CALLALT
VD$BLOCK_DESC IN PROCEDURE NEW_EDIT_BLOCK
      5924**DCL      6441<>CALL     6514<>CALL
VD$BLOCK_DESC IN PROCEDURE NEXT_PREV_DOMAIN
      4864**DCL      5279<>CALL     5300<>CALL
VD$ERR_FIRST
      3626**DCL      6559<<ASSIGN
VD$ERR_FIRST.FLAGLEV#
      3668**DCL      6560<<ASSIGN
VD$ERR_LAST
      3573**DCL      6559>>ASSIGN
VD$EVAL IN PROCEDURE NEW_EDIT_BLOCK
      6192**DCL      6519<>CALL
VD$EVAL IN PROCEDURE NEXT_PREV_DOMAIN
      5011**DCL      5309<>CALL
PL6.E3A0      #001=VDE$IOPEN File=VDE$INTERPRET.:VDA5TSI                         FRI 07/04/97 11:11 Page:102
VD$KEY_NUMBER.BYTES# IN PROCEDURE NEW_EDIT_BLOCK
      6075**DCL      6461<<ASSIGN   6461>>ASSIGN   6465<<ASSIGN   6535<<ASSIGN
VD$KEY_NUMBER.LENGTH# IN PROCEDURE NEW_EDIT_BLOCK
      6075**DCL      6533<<ASSIGN
VD$PORT
      3679**DCL      6540<>CALL
VD$STREAM IN PROCEDURE NEW_EDIT_BLOCK
      6086**DCL      6470<>CALL
VD$STREAM IN PROCEDURE NEXT_PREV_DOMAIN
      4758**DCL      5319<>CALL
VD$TEXTC_REMOTE
      3463**DCL      3949<>CALL
VD$TEXTC_REMOTE.LENGTH#
      3492**DCL      3494--IMP-SIZ  3949>>CALL
VDA$FOPEN
      2644**DCL-ENT  5319--CALL     6470--CALL
VDA$LDELETE
      2646**DCL-ENT  6467--CALL
VDA$LWRITE
      2645**DCL-ENT  6538--CALL
VDA$PFLUSH
      2647**DCL-ENT  6540--CALL
VDG$ERRMSG
      2650**DCL-ENT  3998--CALL     5305--CALL     5338--CALL     5340--CALL
VDG$INFOMSG
      2651**DCL-ENT  6480--CALL
VDG$OALLOC
      2638**DCL-ENT  3927--CALL     3953--CALL     3968--CALL     6488--CALL     6496--CALL     6508--CALL
VDG$OCLEAR_RANGE
      2641**DCL-ENT  3985--CALL     3990--CALL
VDG$OCOPY
      2640**DCL-ENT  3910--CALL     3914--CALL     3949--CALL     5300--CALL     5309--CALL     6514--CALL
      6519--CALL
VDG$OCOPY_RANGE
      2642**DCL-ENT  3955--CALL     3987--CALL     6499--CALL     6501--CALL
VDG$OFREE
PL6.E3A0      #001=VDE$IOPEN File=VDE$INTERPRET.:VDA5TSI                         FRI 07/04/97 11:11 Page:103
      2639**DCL-ENT  3890--CALL     3896--CALL     3902--CALL     5279--CALL     5284--CALL     6441--CALL
      6446--CALL     6551--CALL
VDI$PREMOVE_EDIT_BLOCK
      2648**DCL-ENT  5293--CALL     5326--CALL     6455--CALL
VD_6E.ERR_HEAD$
      2686**DCL      3626--IMP-PTR  6558>>IF       6559>>ASSIGN   6560>>ASSIGN
VD_6E.ERR_TAIL$
      2686**DCL      3573--IMP-PTR  6558>>IF       6559>>ASSIGN
VD_6E.SOURCE.OPERAND
      2681**DCL      3888--ASSIGN   5273--IF       5317--IF
VD_6E.SOURCE.OPERAND.EDIT_BLOCK$
      2683**DCL      3896>>CALL     3898<<ASSIGN   3910<>CALL     3913>>ASSIGN   3927<>CALL     3930>>ASSIGN
VD_6E.SOURCE.OPERAND.EVAL$
      2683**DCL      3900>>DOWHILE  3901>>ASSIGN   3902>>CALL     3904<<ASSIGN   3914<>CALL     3953<>CALL
      3955>>CALL     3960>>ASSIGN
VD_6E.SOURCE.OPERAND.INTREE$
      2683**DCL      3890>>CALL     3892<<ASSIGN
VD_6E.STATS#
      2687**DCL      3778<<ASSIGN   3778>>ASSIGN   6486<<ASSIGN   6486>>ASSIGN
VD_6E.WINDOWS$
      2668**DCL      3144--IMP-PTR  6467>>CALL     6538>>CALL     6540>>CALL
VD_CURRENT_WINDOW$
      2690**DCL      2530--IMP-PTR  3772>>ASSIGN   3887>>ASSIGN   5252>>ASSIGN   6432>>ASSIGN   6459>>ASSIGN
      6530>>ASSIGN   6535>>ASSIGN   6537>>ASSIGN
WBLOCK_LOC IN PROCEDURE NEW_EDIT_BLOCK
      5519**DCL      6529<<ASSIGN   6538<>CALL
WBLOCK_LOC.KEY IN PROCEDURE NEW_EDIT_BLOCK
      5533**DCL      6530<<ASSIGN   6533--ASSIGN   6535--ASSIGN
WBLOCK_LOC.KEY.REP# IN PROCEDURE NEW_EDIT_BLOCK
      5535**DCL      6532<<ASSIGN
WBLOCK_LOC.KEY.TYPE# IN PROCEDURE NEW_EDIT_BLOCK
      5535**DCL      6531<<ASSIGN
WBLOCK_SPEC IN PROCEDURE NEW_EDIT_BLOCK
      5505**DCL      6525<<ASSIGN   6538<>CALL
WBLOCK_SPEC.REP# IN PROCEDURE NEW_EDIT_BLOCK
      5509**DCL      6527<<ASSIGN
PL6.E3A0      #001=VDE$IOPEN File=VDE$INTERPRET.:VDA5TSI                         FRI 07/04/97 11:11 Page:104
WBLOCK_SPEC.TYPE# IN PROCEDURE NEW_EDIT_BLOCK
      5509**DCL      6526<<ASSIGN
WBLOCK_SPEC.V$ IN PROCEDURE NEW_EDIT_BLOCK
      5509**DCL      6528<<ASSIGN
WINDOWS$STREAM
      3144**DCL      6467<>CALL     6538<>CALL
WINDOWS$STREAM.PORT$
      3170**DCL      6540>>CALL
WINDOW_NODE.COUNT#
      2613**DCL      6535>>ASSIGN   6537>>ASSIGN
WINDOW_NODE.DESC.KEY
      2593**DCL      6459>>ASSIGN   6530>>ASSIGN
WINDOW_NODE.DESC.SPEC.V$
      2609**DCL      3772>>ASSIGN   3887>>ASSIGN
WINDOW_NODE.HEAD$
      2613**DCL      5252>>ASSIGN   6432>>ASSIGN

