PL6.E3A0      #003=VDE$IADJUST File=VDE$INTERPRET.:VDA5TSI                       FRI 07/04/97 11:11 Page:171
     1449        1        /*T***********************************************************/
     1450        2        /*T*                                                         */
     1451        3        /*T* Copyright (c) Bull HN Information Systems Inc., 1997    */
     1452        4        /*T*                                                         */
     1453        5        /*T***********************************************************/
     1454        6
     1455        7        /*D* NAME:  VDE$IADJUST
     1456        8            PARAMETERS:
     1457        9                OPERAND - VD$OPERAND whose InTree we're evaluating:
     1458       10                    .STREAM$ must point to a stream open to the current
     1459       11                        EditBlock's file.
     1460       12                    .INTREE$ must point to the root node of the InTree being
     1461       13                        evaluated.  Its .OPTIONS must specify the Level and
     1462       14        *N*             Component to use.
     1463       15                    .EDIT_BLOCK$ must point to a block descriptor for
     1464       16                        the current EditBlock.
     1465       17                    .EVAL$ must point to the top VD$EVAL on the evaluation
     1466       18                        stack.  In this VD$EVAL:
     1467       19                        .ENCLOSING must specify the limits on all FilePointer
     1468       20                            movement.
     1469       21                        .RANGE must specify the initial range to move relative
     1470       22                            to.
     1471       23                        .STATE# must specify the current evaluation state.
     1472       24                IT_ADJUST - THRU or ADJUST node whose movement-expr nodes
     1473       25                    nodes are to be evaluated.  It's ok if IT_ADJUST has no
     1474       26                    children.
     1475       27                SIGNAL - An uninitialized BIT(1) ALIGNED.
     1476       28            INPUT:
     1477       29            OUTPUT:
     1478       30                SIGNAL will contain either true or false:
     1479       31                    SIGNAL will contain %TRUE if we were able to find a block
     1480       32                        for the IT_ADJUST node which lies at least partially
     1481       33                        within the enclosing range.
     1482       34                        Also, TOS$EVAL.RANGE has been modified to point to
     1483       35                        this found block.
     1484       36                    SIGNAL will contain %FALSE if we failed to find a range
     1485       37                        for the InTree due to one of the following reasons:
PL6.E3A0      #003=VDE$IADJUST File=VDE$INTERPRET.:VDA5TSI                       FRI 07/04/97 11:11 Page:172
     1486       38                        o An absolute operand specified a range which lies
     1487       39                            completely outside the enclosing range.
     1488       40                        o Not any of a relative operand could be
     1489       41                            found inside the enclosing range.
     1490       42                        o A conditional operand could not find a range
     1491       43                            within the enclosing range.
     1492       44                        Also, TOS$EVAL.RANGE may have been modified.
     1493       45                TOS$EVAL.RANGE (that is, .RANGE in the VD$EVAL on top of the
     1494       46                    evaluation stack) will be modified:  either or both of its
     1495       47                    VD$LOCATIONs may be modified as specified by the
     1496       48                    movement_expr nodes.  Which bound is modified to what is
     1497       49                    based on the TOS$EVAL.STATE#,
     1498       50        *??*        IT_ADJUST.NEW_STATE#,
     1499       51                    the .POINT# option of each of IT_ADJUST's children, and
     1500       52                    whether the child is the last child of an IT_ADJUST or not.
     1501       53                    The table below shows which bound of TOS$EVAL.RANGE
     1502       54                    ("str" is the start bound, "end" is the end bound)
     1503       55                    will be set to which point of the specified operand
     1504       56                    ("BO" is the start location of the operand, "EO"
     1505       57                    is the end location of the operand):
     1506       58
     1507       59                                                     Point
     1508       60                                 ---------------------------------------------
     1509       61                                    AO,       AO, not
     1510       62                      STATE      last child  last child     BO          EO
     1511       63                    ----------   ---------   ---------   ---------   ---------
     1512       64                    _INITIAL     str := BO   str := BO   str := BO   str := EO
     1513       65                                 end := EO   end := BO   end := BO   end := EO
     1514       66
     1515       67                    _START       str := BO   str := BO   str := BO   str := EO
     1516       68
     1517       69        *??*        _END, and
     1518       70        *??*         .NEW_STATE#
     1519       71        *??*         ~= _END     end := BO   end := BO   end := BO   end := EO
     1520       72
     1521       73                    _END         end := EO   end := BO   end := BO   end := EO
     1522       74        *??*         and .NEW_STATE# = _END
PL6.E3A0      #003=VDE$IADJUST File=VDE$INTERPRET.:VDA5TSI                       FRI 07/04/97 11:11 Page:173
     1523       75
     1524       76                    If IT_ADJUST has no children, TOS$EVAL.RANGE will be
     1525       77                    unchanged (we'll do nothing but return SIGNAL = %TRUE).
     1526       78                TOS$EVAL.REMAINING# may be forced to 0 (when we want to stop any
     1527       79                    further evaluation of an IT_SELECT (???Operator???) node).
     1528       80            DESCRIPTION:
     1529       81                Loop thru the chain of movement-expr nodes:
     1530       82
     1531       83                o For %OPAND_FILE, set TOS$EVAL.RANGE to .ENCLOSING.
     1532       84                    (VDE$IOPEN set the initial TOS$EVAL.ENCLOSING to the
     1533       85                    specified file already, and has already altered the
     1534       86                    EditBlock stack appropriately.)
     1535       87                o For %OPAND_PREVIOUS and %OPAND_NEXT, check to see if they
     1536       88                    are the only operand in the entire block expression:
     1537       89                    If so, set TOS$EVAL.RANGE from TOS$EVAL.RANGE.
     1538       90                    If not, set TOS$EVAL.RANGE to TOS$EVAL.ENCLOSING.
     1539       91                    (VDE$IOPEN set the initial TOS$EVAL.ENCLOSING and .RANGE
     1540       92                    and the EditBlock range from the previous or next EditBlock,
     1541       93                    and has already altered the EditBlock stack appropriately.)
     1542       94                o For %OPAND_LO_NAME, read the name from the Locations file,
     1543       95                    and copy the range from the name's block descriptor to
     1544       96                    TOS$EVAL.RANGE.
     1545       97                o For %OPAND_BLOCK_DESC, copy the range from the
     1546       98                    block descriptor to TOS$EVAL.RANGE.
     1547       99                o For absolute %OPAND_NODE (.KEY ~= %CLEAR), store the key in
     1548      100                    TOS$EVAL.RANGE.  If we need to find the end of the operand
     1549      101                    (ie, STATE = %EVST_INITIAL so we need to set both
     1550      102                    start and end bounds), we must call the Accessor
     1551      103                    find the key of the next record.
     1552      104                o For relative %OPAND_NODE (.KEY=%CLEAR), and for %OPAND_POSITION
     1553      105                    and %OPAND_PATTERN, we must go to the file to find the
     1554      106                    location requested.
     1555      107                    If we don't find a match, set TOS$EVAL.REMAINING# to 0,
     1556      108                    to force us out of a REPEAT SELECT "try the next alternative"
     1557      109                    loop in VDE$IRANGE.
     1558      110
     1559      111                After evaluating each movement_expr node:
PL6.E3A0      #003=VDE$IADJUST File=VDE$INTERPRET.:VDA5TSI                       FRI 07/04/97 11:11 Page:174
     1560      112                    Check that the new TOS$EVAL.RANGE bounds lie within
     1561      113                        TOS$EVAL.ENCLOSING; truncate TOS$EVAL.RANGE if necessary.
     1562      114                        If the new TOS$EVAL.RANGE is completely outside the
     1563      115                        TOS$EVAL.ENCLOSING boundaries, we'll force it to specify
     1564      116                        an empty block at the TOS$EVAL.ENCLOSING boundary beyond
     1565      117                        which it lies.
     1566      118                If evaluation of any movement_expr node yields a false SIGNAL,
     1567      119                    stop evaluating the entire chain of movement_expr nodes.
     1568      120
     1569      121                Note that absolute movement is a little different from
     1570      122                relative movement.  For absolute movement, if the requested
     1571      123                operand doesn't exist in the file, then the block resulting
     1572      124                from the movement is an empty block at the specified location.
     1573      125                For relative movement, we always move to the next existing
     1574      126                location in the file (always forward).  We don't want
     1575      127                to do that for absolute movement; specifically, for
     1576      128                record key movement requests, we need to allow the user to
     1577      129                say "CO ... AF 8" when record 8 doesn't exist, and we
     1578      130                must interpret that to be a null block at reckey 8, position
     1579      131                0.
     1580      132
     1581      133                For relative block operands, a 0 SKIP-count is not the same as
     1582      134                no movement.  A 0 SKIP-count specifies the operand (node,
     1583      135                position or pattern) in which the FilePointer currently lies.
     1584      136                For example, "SKIP 0 RECORD" starting from record 5.1,
     1585      137                position 20, yields a range from 5.1 position 0 thru
     1586      138                the start of the next record -- in other words, it
     1587      139                yields the entire record from which we started the
     1588      140                movement.  A 0 SKIP-count disregards the "direction"
     1589      141                of movement; it operates the same whether direction is
     1590      142                BACKWARD or FORWARD.
     1591      143        */
     1592      144
     1593      145        VDE$IADJUST: PROC (OPERAND, IT_ADJUST, SIGNAL) ALTRET;
     1594      146
     1595      147
     1596      148        %INCLUDE VD_MACROS_M;
PL6.E3A0      #003=VDE$IADJUST File=VDE$INTERPRET.:VDA5TSI                       FRI 07/04/97 11:11 Page:175
     1597     2363        %INCLUDE VD_PERR_C;
     1598     2511
     1599     2512
     1600     2513        %VD$OPERAND (NAME=OPERAND, STCLASS=PARAM);
     1601     2527        %VD$IT_ADJUST (NAME=IT_ADJUST, STCLASS=PARAM);
     1602     2564    1   DCL SIGNAL BIT(1) ALIGNED;
     1603     2565
     1604     2566
     1605     2567        /*
     1606     2568        *   Flag for VDA$LREAD's fourth parameter:  whether or not to read.
     1607     2569        */
     1608     2570
     1609     2571        %EQU FIND = FALSE;          /* Find the specified node; don't read it */
     1610     2572        %EQU FIND_AND_READ = TRUE;  /* Find node and read it */
     1611     2573
     1612     2574
     1613     2575    1   DCL VDE$PREAD_LO_NAME   ENTRY (3) ALTRET;
     1614     2576    1   DCL VDE$IMOVE_BY_POSITIONS  ENTRY (7) ALTRET;
     1615     2577    1   DCL VDE$IPATTERN        ENTRY (4) ALTRET;
     1616     2578    1   DCL VDA$LREAD           ENTRY (4) ALTRET;
     1617     2579    1   DCL VDG$OALLOC          ENTRY (3) ALTRET;
     1618     2580    1   DCL VDG$OFREE           ENTRY (1) ALTRET;
     1619     2581    1   DCL VDG$OCOPY           ENTRY (2) ALTRET;
     1620     2582    1   DCL VDG$OCLEAR_RANGE    ENTRY (1) ALTRET;
     1621     2583    1   DCL VDG$OCOPY_RANGE     ENTRY (2) ALTRET;
     1622     2584    1   DCL VDG$OCLEAR_LOCATION ENTRY (1) ALTRET;
     1623     2585    1   DCL VDG$OCOPY_LOCATION  ENTRY (2) ALTRET;
     1624     2586    1   DCL VDG$ESCREECH        ENTRY (3);
     1625     2587    1   DCL X$DEC_CONVERT       ENTRY (2) ALTRET;
     1626     2588
     1627     2589
     1628     2590
     1629     2591        %VD_6E (STCLASS=SYMREF);
     1630     2627        %VD$KEY (NAME=VD_KEY_NUMERIC_BOF, STCLASS=SYMREF);
     1631     2641    1   DCL VD_CMD_OBJECTS$ (0:%(MX_CMD_OBJECTS-1)) PTR SYMREF;
     1632     2642
     1633     2643
PL6.E3A0      #003=VDE$IADJUST File=VDE$INTERPRET.:VDA5TSI                       FRI 07/04/97 11:11 Page:176
     1634     2644
     1635     2645    1   DCL LO_NAME$ PTR;
     1636     2646    1   DCL TOS_EVAL$ PTR;
     1637     2647    1   DCL IT_BLOCK_EXPR$ PTR;
     1638     2648    1   DCL TOS_EVAL_BOUND$ PTR;
     1639     2649    1   DCL TOS_EVAL_RELATIVE_TO$ PTR;
     1640     2650    1   DCL IT_MOVEMENT$ PTR;
     1641     2651    1   DCL STREAM$ PTR;
     1642     2652    1   DCL LEVEL UBIN;
     1643     2653    1   DCL FIND_END_BOUND BIT(1) ALIGNED;
     1644     2654    1   DCL REF_BLOCK_DESC$ PTR;
     1645     2655        %VD$RANGE (NAME=FOUND_RANGE, STCLASS=AUTO);
     1646     2724    1   DCL VD_ERR$ PTR;
     1647     2725    1   DCL SUBST_FIELD$ PTR;
     1648     2726
     1649     2727
     1650     2728        %VD$TEXTC (NAME=LO$NAME, STCLASS="BASED(LO_NAME$)");
     1651     2751        %VD$EVAL (NAME=TOS$EVAL, STCLASS="BASED(TOS_EVAL$)");
     1652     2996        %VD$IT_BLOCK_EXPR (NAME=IT$BLOCK_EXPR, STCLASS="BASED(IT_BLOCK_EXPR$)");
     1653     3146        %VD$LOCATION (NAME=TOS$EVAL_BOUND, STCLASS="BASED(TOS_EVAL_BOUND$)");
     1654     3174        %VD$LOCATION (NAME=TOS$EVAL_RELATIVE_TO,
     1655     3175            STCLASS="BASED(TOS_EVAL_RELATIVE_TO$)");
     1656     3203        %VD$IT_OPERAND (NAME=IT$OPERAND, STCLASS="BASED(IT_MOVEMENT$)");
     1657     3269        %VD$STREAM (NAME=STREAM, STCLASS="BASED(OPERAND.STREAM$)");
     1658     3375        %VD$BLOCK_DESC (NAME=REF$BLOCK_DESC, STCLASS="BASED(REF_BLOCK_DESC$)");
     1659     3522        %VD$ERR (NAME=VD$ERR, STCLASS="BASED(VD_ERR$)");
     1660     3575        %VD$NUMBER (NAME=SUBST$NUMBER, DIM="(0:2)", STCLASS="BASED(SUBST_FIELD$)");
     1661     3620        %VD$POINTER (NAME=SUBST$POINTER, DIM="(0:2)", STCLASS="BASED(SUBST_FIELD$)");
     1662     3665        %VD$STRING_HEADER;
     1663     3701        %VD$BUFFER_HEADER;
     1664     3737        %VD$IT_SELECT;
     1665     3774        %VD$IT_ADJUST;
     1666     3811        %VD$BUFFER;
     1667     3869        %VD$TEXTC_REMOTE;
     1668     3930        %VD$PORT;
     1669     4028
     1670     4029
PL6.E3A0      #003=VDE$IADJUST File=VDE$INTERPRET.:VDA5TSI                       FRI 07/04/97 11:11 Page:177
     1671     4030
     1672     4031    1           SIGNAL = %TRUE;
     1673     4032    1           TOS_EVAL$ = OPERAND.EVAL$;
     1674     4033    1           IT_BLOCK_EXPR$ = OPERAND.INTREE$;
     1675     4034    1           LEVEL = IT$BLOCK_EXPR.OPTIONS.LEVEL#;
     1676     4035    1           IF TOS$EVAL.STATE# ~= %EVST_END THEN
     1677     4036    1              TOS_EVAL_BOUND$ = ADDR(TOS$EVAL.RANGE.START);
     1678     4037    1           ELSE
     1679     4038    1              TOS_EVAL_BOUND$ = ADDR(TOS$EVAL.RANGE.ENDD);
     1680     4039
     1681     4040    1           IT_MOVEMENT$ = IT_ADJUST.MOVEMENTS$;
     1682     4041    1   EACH_MOVEMENT_NODE:
     1683     4042    2           DO WHILE (IT_MOVEMENT$ ~= ADDR(NIL));
     1684     4043    2              IF IT$OPERAND.OPTIONS.DIRECTION# = %DIR_BACKWARD THEN
     1685     4044    2                 TOS_EVAL_RELATIVE_TO$ = ADDR(TOS$EVAL.RANGE.START);
     1686     4045    2              ELSE
     1687     4046    2                 TOS_EVAL_RELATIVE_TO$ = ADDR(TOS$EVAL.RANGE.ENDD);
     1688     4047    2              FIND_END_BOUND = %FALSE;
     1689     4048    2              IF IT$OPERAND.OPTIONS.POINT# = %PNT_EO
     1690     4049    2                OR (IT$OPERAND.OPTIONS.POINT# = %PNT_AO
     1691     4050    2                AND IT_MOVEMENT$ = IT_ADJUST.MOVEMENTS_TAIL$
     1692     4051    2                AND TOS$EVAL.STATE# ~= %EVST_START) THEN
     1693     4052        /*??*         AND IT_ADJUST.NEW_STATE# = %EVST_END))) THEN */
     1694     4053    2                 FIND_END_BOUND = %TRUE;
     1695     4054
     1696     4055    2   MOVEMENT_CODE_CASES:
     1697     4056    3              DO CASE (IT$OPERAND.CODE#);
     1698     4057
     1699     4058    3               CASE (%OPAND_FILE);
     1700     4059                      /*
     1701     4060                      *  For %OPAND_FILE, we assume that VDE$IOPEN has already
     1702     4061                      *     setup the new EditBlock for the operand
     1703     4062                      */
     1704     4063    3                 CALL LOAD_EVAL_FROM_RANGE (TOS$EVAL.ENCLOSING)
     1705     4064    3                   ALTRET (LOAD_EVAL_FROM_RANGE_FAILED);
     1706     4065
     1707     4066
PL6.E3A0      #003=VDE$IADJUST File=VDE$INTERPRET.:VDA5TSI                       FRI 07/04/97 11:11 Page:178
     1708     4067    3               CASE (%OPAND_PREVIOUS, %OPAND_NEXT);
     1709     4068                      /*
     1710     4069                      *  For these operands, we assume that VDE$IOPEN has
     1711     4070                      *     already setup the new EditBlock .RANGE from the
     1712     4071                      *     previous/next EditBlock's .RANGE.
     1713     4072                      */
     1714     4073    3                 IF IT$BLOCK_EXPR.SELECTS$ = IT$BLOCK_EXPR.SELECTS_TAIL$
     1715     4074    3                   AND IT$BLOCK_EXPR.SELECTS$->VD$IT_SELECT.ADJUSTS$ =
     1716     4075    3                   IT$BLOCK_EXPR.SELECTS$->VD$IT_SELECT.ADJUSTS_TAIL$
     1717     4076    3                   AND IT$BLOCK_EXPR.SELECTS$->VD$IT_SELECT.ADJUSTS$->
     1718     4077    3                   VD$IT_ADJUST.MOVEMENTS$ =
     1719     4078    3                   IT$BLOCK_EXPR.SELECTS$->VD$IT_SELECT.ADJUSTS$->
     1720     4079    3                   VD$IT_ADJUST.MOVEMENTS_TAIL$
     1721     4080    3                   AND IT$BLOCK_EXPR.SELECTS$->VD$IT_SELECT.ADJUSTS$->
     1722     4081    3                   VD$IT_ADJUST.MOVEMENTS$ =
     1723     4082    4                   ADDR(IT$OPERAND) THEN DO;
     1724     4083                         /* This is only operand in entire block expression */
     1725     4084    4                    CALL LOAD_EVAL_FROM_RANGE (TOS$EVAL.RANGE)
     1726     4085    4                      ALTRET (LOAD_EVAL_FROM_RANGE_FAILED);
     1727     4086    4                    END;
     1728     4087    4                 ELSE DO;
     1729     4088    4                    CALL LOAD_EVAL_FROM_RANGE (TOS$EVAL.ENCLOSING)
     1730     4089    4                      ALTRET (LOAD_EVAL_FROM_RANGE_FAILED);
     1731     4090    4                    END;
     1732     4091
     1733     4092
     1734     4093    3               CASE (%OPAND_LO_NAME);
     1735     4094                      %GETKEY (KEY=IT$OPERAND.KEY, PTR=LO_NAME$);
     1736     4104    3                 CALL VDE$PREAD_LO_NAME (LO$NAME, REF_BLOCK_DESC$)
     1737     4105    3                   ALTRET (PREAD_LO_NAME_FAILED);
     1738     4106    3                 CALL LOAD_EVAL_FROM_RANGE (REF$BLOCK_DESC.RANGE)
     1739     4107    3                   ALTRET (LOAD_EVAL_FROM_RANGE_FAILED);
     1740     4108
     1741     4109
     1742     4110    3               CASE (%OPAND_BLOCK_DESC);
     1743     4111    3                 REF_BLOCK_DESC$ = IT$OPERAND.PARAM$;
     1744     4112    3                 CALL LOAD_EVAL_FROM_RANGE (REF$BLOCK_DESC.RANGE)
PL6.E3A0      #003=VDE$IADJUST File=VDE$INTERPRET.:VDA5TSI                       FRI 07/04/97 11:11 Page:179
     1745     4113    3                   ALTRET (LOAD_EVAL_FROM_RANGE_FAILED);
     1746     4114
     1747     4115
     1748     4116    3               CASE (%OPAND_NODE);
     1749     4117    4                 IF IT$OPERAND.KEY = %CLEAR THEN DO;
     1750     4118    4                    CALL IREL_NODE
     1751     4119    4                      ALTRET (IREL_NODE_FAILED);
     1752     4120    4                    END;
     1753     4121    4                 ELSE DO;
     1754     4122    4                    CALL IABS_NODE
     1755     4123    4                      ALTRET (IABS_NODE_FAILED);
     1756     4124    4                    END;
     1757     4125
     1758     4126
     1759     4127    3               CASE (%OPAND_POSITION);
     1760     4128    4                 IF IT$OPERAND.KEY = %CLEAR THEN DO;
     1761     4129    4                    CALL IREL_POSITION
     1762     4130    4                      ALTRET (IREL_POSITION_FAILED);
     1763     4131    4                    END;
     1764     4132    4                 ELSE DO;
     1765     4133    4                    CALL IREL_POSITION_N
     1766     4134    4                      ALTRET (IREL_POSITION_N_FAILED);
     1767     4135    4                    END;
     1768     4136
     1769     4137
     1770     4138    3               CASE (%OPAND_PATTERN);
     1771     4139    3                 CALL VDE$IPATTERN (OPERAND, IT$OPERAND, FOUND_RANGE, SIGNAL)
     1772     4140    3                   ALTRET (IPATTERN_FAILED);
     1773     4141    4                 IF SIGNAL THEN DO;
     1774     4142                         /* Note that FOUND_RANGE owns its objects! */
     1775     4143    4                    CALL LOAD_EVAL_FROM_RANGE (FOUND_RANGE)
     1776     4144    4                      ALTRET (LOAD_EVAL_FROM_RANGE_FAILED);
     1777     4145    4                    CALL VDG$OCLEAR_RANGE (FOUND_RANGE)
     1778     4146    4                      ALTRET (OCLEAR_RANGE_FAILED);
     1779     4147    4                    END;
     1780     4148
     1781     4149
PL6.E3A0      #003=VDE$IADJUST File=VDE$INTERPRET.:VDA5TSI                       FRI 07/04/97 11:11 Page:180
     1782     4150    3               CASE (ELSE);
     1783     4151    3                 CALL VDG$ESCREECH (IT$OPERAND.CODE#);
     1784     4152
     1785     4153    3               END MOVEMENT_CODE_CASES;
     1786     4154
     1787     4155    2              IF NOT SIGNAL THEN
     1788     4156    2                 EXIT EACH_MOVEMENT_NODE;
     1789     4157
     1790     4158    2              IT_MOVEMENT$ = IT$OPERAND.FLINK$;
     1791     4159    2              END EACH_MOVEMENT_NODE;
     1792     4160
     1793     4161
     1794     4162    1           RETURN;
     1795     4163
     1796     4164
     1797     4165
     1798     4166    1   PREAD_LO_NAME_FAILED: ;
     1799     4167    1   LOAD_EVAL_FROM_RANGE_FAILED: ;
     1800     4168    1   IABS_NODE_FAILED: ;
     1801     4169    1   IREL_NODE_FAILED: ;
     1802     4170    1   IREL_POSITION_FAILED: ;
     1803     4171    1   IREL_POSITION_N_FAILED: ;
     1804     4172    1   IPATTERN_FAILED: ;
     1805     4173    1   OCLEAR_RANGE_FAILED: ;
     1806     4174    1   OALLOC_FAILED: ;
     1807     4175    1           ALTRETURN;
     1808     4176
     1809     4177                %BOX (TITLE=IREL_NODE, PAGE=YES);
              4185    1
              4189    1   /***************************************************************************
              4191    1    *                                                                         *
              4195    1            *                                 IREL_NODE                               *
              4197    1            *                                                                         *
              4199    1           ***************************************************************************/

     1810     4203
     1811     4204        /*I* NAME: IREL_NODE
PL6.E3A0      #003=VDE$IADJUST File=VDE$INTERPRET.:VDA5TSI                       FRI 07/04/97 11:11 Page:181
     1812     4205            PARAMETERS:
     1813     4206                None.
     1814     4207            INPUT:
     1815     4208                STREAM - VD$STREAM to use; must be open.  It's position at
     1816     4209                    entry is irrelevent and unknown.
     1817     4210                LEVEL - Level to position in.
     1818     4211                FIND_END_BOUND - BIT(1) flag; if %TRUE, find both boundaries
     1819     4212                    of the block operand; if %FALSE, just find the start
     1820     4213                    boundary.
     1821     4214                TOS$EVAL - VD$EVAL whose .RANGE will be set based on
     1822     4215                    its .STATE and other info.
     1823     4216                TOS$EVAL_RELATIVE_TO - Based VD$LOCATION; must be one of
     1824     4217                    TOS$EVAL.RANGE.START or .ENDD.  This is the initial
     1825     4218                    location for relative movement.
     1826     4219                TOS$EVAL_BOUND - Based VD$LOCATION; must be one of
     1827     4220                    TOS$EVAL.RANGE.START or .ENDD.  This is the primary boundary
     1828     4221                    of the range to be set.
     1829     4222                IT$OPERAND - VD$IT_OPERAND which we are evaluating.  Its
     1830     4223                    .CODE# must be %OPAND_NODE, and its .KEY must be
     1831     4224                    non-%CLEAR.
     1832     4225                IT_ADJUST - Parent of IT$OPERAND.
     1833     4226                IT$BLOCK_EXPR - Root node of InTree.
     1834     4227                OPERAND - VD$OPERAND whose InTree we're evaluating.
     1835     4228            OUTPUT:
     1836     4229                TOS$EVAL_BOUND, and optionally TOS$EVAL.RANGE.ENDD, will
     1837     4230                    be set as specified by IT$OPERAND.
     1838     4231                SIGNAL will contain %FALSE if we tried to go beyond BOF
     1839     4232                    or EOF while moving; %TRUE otherwise.
     1840     4233                TOS$EVAL.REMAINING# will be set to 0 if we tried to go beyond
     1841     4234                    BOF or EOF while moving.
     1842     4235            DESCRIPTION:
     1843     4236                If TOS$EVAL_RELATIVE_TO specifies any position within the record
     1844     4237                    marked "<in>" below, then the beginning of each record
     1845     4238                    below is labelled with the movement clause necessary to
     1846     4239                    make it the output TOS$EVAL_BOUND location:
     1847     4240
     1848     4241                BO BA SK 1 RE  or  EO BA SK 2 RE  I___________________I
PL6.E3A0      #003=VDE$IADJUST File=VDE$INTERPRET.:VDA5TSI                       FRI 07/04/97 11:11 Page:182
     1849     4242        (FO or BA) BO SK 0 RE  or  EO BA SK 1 RE  I_______<in>__________I
     1850     4243           BO SK 1 RE  or  (FO or BA) EO SK 0 RE  I________________I
     1851     4244                      BO SK 2 RE  or  EO SK 1 RE  I__________________I
     1852     4245                            etc.
     1853     4246
     1854     4247                Note that if the TOS$EVAL_RELATIVE_TO record doesn't exist, we will
     1855     4248                    first move to the start of the next existing record (if any).
     1856     4249                    TEST CASE for this:
     1857     4250                        CURR; SHL 1    "or DE CURR REPEAT SE RE SE TH PO 1
     1858     4251                    If we don't force the start-bound of the found-range to
     1859     4252                    be a real location, then the first "record" found in
     1860     4253                    the CURRENT block will be BOF,0 - 2,0.  But the
     1861     4254                    POSITION operand will turn that range into BOF,0 - BOF,1!!!
     1862     4255                    The next call to VDE$IRANGE will find 2,0 - 2,1.  The effect
     1863     4256                    will be to skip the first record, since BOF,0 - BOF,1 is
     1864     4257                    an empty block.
     1865     4258                    SO, we first make TOS$EVAL_BOUND 1,0.  Then REPEAT SE RE
     1866     4259                    finds 1,0 - 2,0 and POSITION 1 finds 1,0 - 1,1.
     1867     4260
     1868     4261                Call the Accessor to move the number of nodes requested (even
     1869     4262                    0), starting from the TOS$EVAL_RELATIVE_TO location.
     1870     4263                    Set the new node keys for the new location.  If we hit BOF or
     1871     4264                    EOF during the move, then set TOS$EVAL_BOUND to BOF or EOF and
     1872     4265                    return SIGNAL = %FALSE, but go ahead and load the TOS$EVAL
     1873     4266                    from the "found range" (BOF-BOF or EOF-EOF).
     1874     4267                    Also reset the TOS$EVAL.REMAINING# to 0, to force us out
     1875     4268                    of a REPEAT SELECT "try the next alternative" loop in
     1876     4269                    VDE$IRANGE.
     1877     4270                If we need to find the end of the node, then call the
     1878     4271                    Accessor to find the next record key.
     1879     4272        */
     1880     4273
     1881     4274    1   IREL_NODE: PROC ALTRET;
     1882     4275
     1883     4276
     1884     4277        %VD$RANGE (NAME=NODE_RANGE, STCLASS=AUTO);   /* Doesn't own objects */
     1885     4346        %VD$LOCATION (NAME=OWNS_OBJECTS_LOC, STCLASS=AUTO); /* Owns objects */
PL6.E3A0      #003=VDE$IADJUST File=VDE$INTERPRET.:VDA5TSI                       FRI 07/04/97 11:11 Page:183
     1886     4374    2   DCL SKIP_COUNT SBIN;
     1887     4375    2   DCL INITIAL_KEY$ PTR;
     1888     4376    2   DCL STREAM_KEY$ PTR;
     1889     4377
     1890     4378
     1891     4379        %VD$TEXTC (NAME=INITIAL$KEY, STCLASS="BASED(INITIAL_KEY$)");
     1892     4402        %VD$TEXTC (NAME=STREAM$KEY, STCLASS="BASED(STREAM_KEY$)");
     1893     4425
     1894     4426
     1895     4427
     1896     4428    2           SIGNAL = %TRUE;
     1897     4429    2           NODE_RANGE = %CLEAR;
     1898     4430    2           OWNS_OBJECTS_LOC = %CLEAR;
     1899     4431
     1900     4432    2           SKIP_COUNT = IT$OPERAND.OPTIONS.SKIP#;
     1901     4433    2           IF IT$OPERAND.OPTIONS.DIRECTION# = %DIR_BACKWARD THEN
     1902     4434    2              SKIP_COUNT = - SKIP_COUNT;
     1903     4435
     1904     4436    2           CALL VDA$LREAD (STREAM, TOS$EVAL_RELATIVE_TO, SKIP_COUNT, %FIND)
     1905     4437    2             ALTRET (LREAD_FAILED);
     1906     4438    3           IF STREAM.CURRENT.EOF THEN DO;
     1907     4439    3              SIGNAL = %FALSE;
     1908     4440    3              NODE_RANGE.START.EOF = %TRUE;
     1909     4441    3              NODE_RANGE.ENDD.EOF = %TRUE;
     1910     4442    3              TOS$EVAL.REMAINING# = 0; /* Force exit from REPEAT loop */
     1911     4443    3              END;
     1912     4444    3           ELSE IF IT$OPERAND.OPTIONS.DIRECTION# = %DIR_BACKWARD THEN DO;
     1913     4445                      /* Check to see if we hit BOF */
     1914     4446                      %GETKEY (KEY=TOS$EVAL_RELATIVE_TO.KEY, INDX=LEVEL-1,
     1915     4447                      PTR=INITIAL_KEY$);
     1916     4457                      %GETKEY (KEY=STREAM.CURRENT.KEY, INDX=LEVEL-1,
     1917     4458                      PTR=STREAM_KEY$);
     1918     4468    4                 IF STREAM$KEY.BYTES >= INITIAL$KEY.BYTES THEN DO;
     1919     4469    4                    SIGNAL = %FALSE;       /* Hit BOF */
     1920     4470    4                    NODE_RANGE.START.KEY (%LVL_LOWER-1) = VD_KEY_NUMERIC_BOF;
     1921     4471    4                    NODE_RANGE.ENDD = NODE_RANGE.START;
     1922     4472    4                    TOS$EVAL.REMAINING# = 0;   /* Force exit from REPEAT loop */
PL6.E3A0      #003=VDE$IADJUST File=VDE$INTERPRET.:VDA5TSI                       FRI 07/04/97 11:11 Page:184
     1923     4473    4                    END;
     1924     4474    3                 END;
     1925     4475
     1926     4476    3           IF SIGNAL THEN DO;
     1927     4477    3              NODE_RANGE.START = STREAM.CURRENT;
     1928     4478
     1929     4479    4              IF FIND_END_BOUND THEN DO;
     1930     4480                      /*
     1931     4481                      *   Must make our own copy of NODE_RANGE.START now,
     1932     4482                      *     'cause call to VDA$LREAD below will change
     1933     4483                      *     STREAM.CURRENT, which is the owner of NODE_RANGE.START's
     1934     4484                      *     current objects.
     1935     4485                      */
     1936     4486    4                 CALL VDG$OCOPY_LOCATION (NODE_RANGE.START, OWNS_OBJECTS_LOC)
     1937     4487    4                   ALTRET (OCOPY_LOCATION_FAILED);
     1938     4488    4                 NODE_RANGE.START = OWNS_OBJECTS_LOC;
     1939     4489    4                 CALL VDA$LREAD (STREAM, , 1, %FIND)
     1940     4490    4                   ALTRET (LREAD_FAILED);
     1941     4491    4                 NODE_RANGE.ENDD = STREAM.CURRENT;
     1942     4492    4                 END;
     1943     4493    3              END;
     1944     4494
     1945     4495    2           CALL LOAD_EVAL_FROM_RANGE (NODE_RANGE)
     1946     4496    2             ALTRET (LOAD_EVAL_FROM_RANGE_FAILED);
     1947     4497
     1948     4498    3           IF OWNS_OBJECTS_LOC ~= %CLEAR THEN DO;
     1949     4499    3              CALL VDG$OCLEAR_LOCATION (OWNS_OBJECTS_LOC)
     1950     4500    3                ALTRET (OCLEAR_LOCATION_FAILED);
     1951     4501    3              END;
     1952     4502
     1953     4503    2           RETURN;
     1954     4504
     1955     4505
     1956     4506
     1957     4507    2   LREAD_FAILED: ;
     1958     4508    2   LOAD_EVAL_FROM_RANGE_FAILED: ;
     1959     4509    2   OCOPY_LOCATION_FAILED: ;
PL6.E3A0      #003=VDE$IADJUST File=VDE$INTERPRET.:VDA5TSI                       FRI 07/04/97 11:11 Page:185
     1960     4510    2   OCLEAR_LOCATION_FAILED: ;
     1961     4511    2           ALTRETURN;
     1962     4512
     1963     4513
     1964     4514    2   END IREL_NODE;
     1965     4515
     1966     4516                %BOX (TITLE="IABS_NODE", PAGE=YES);
              4524    2
              4528    2   /***************************************************************************
              4530    2    *                                                                         *
              4534    2            *                                 IABS_NODE                               *
              4536    2            *                                                                         *
              4538    2           ***************************************************************************/

     1967     4542
     1968     4543        /*I* NAME:  IABS_NODE
     1969     4544            PARAMETERS:
     1970     4545                None.
     1971     4546            INPUT:
     1972     4547                STREAM - VD$STREAM to use; must be open.  It's position at
     1973     4548                    entry is irrelevent and unknown.
     1974     4549                LEVEL - Level to position in.
     1975     4550                FIND_END_BOUND - BIT(1) flag; if %TRUE, find both boundaries
     1976     4551                    of the block operand; if %FALSE, just find the start
     1977     4552                    boundary.
     1978     4553                TOS$EVAL - VD$EVAL whose .RANGE will be set based on
     1979     4554                    its .STATE and other info.
     1980     4555                TOS$EVAL_BOUND - Based VD$LOCATION; must be one of
     1981     4556                    TOS$EVAL.RANGE.START or .ENDD.  This is the primary
     1982     4557                    boundary of the range to be set.
     1983     4558                IT$OPERAND - VD$IT_OPERAND which we are evaluating.  Its
     1984     4559                    .CODE# must be %OPAND_NODE, and its .KEY must be
     1985     4560                    non-%CLEAR.  If .KEY is a string-key and the file uses numeric
     1986     4561                    keys, then .KEY must contain a decimal number in character form
     1987     4562                    (optionally with a fractional part).  If the file uses numeric
     1988     4563                    keys, .KEY's numeric value must have been multiplied
     1989     4564                    by 1000 so that fractional digits are shifted into the
PL6.E3A0      #003=VDE$IADJUST File=VDE$INTERPRET.:VDA5TSI                       FRI 07/04/97 11:11 Page:186
     1990     4565                    integer value.  Note that this is true even for consecutive
     1991     4566                    files, where the keys should not have fractional parts;
     1992     4567                    therefore, this routine must divide consecutive keys by
     1993     4568                    1000 to determine their true value.
     1994     4569                IT_ADJUST - Parent of IT$OPERAND.
     1995     4570                IT$BLOCK_EXPR - Root node of InTree.
     1996     4571                OPERAND - VD$OPERAND whose InTree we're evaluating.
     1997     4572            OUTPUT:
     1998     4573                TOS$EVAL_BOUND, and optionally TOS$EVAL.RANGE.ENDD, will
     1999     4574                    be set as specified by IT$OPERAND.
     2000     4575            DESCRIPTION:
     2001     4576                Given an absolute %OPAND_NODE movement request, fill
     2002     4577                TOS$EVAL.RANGE with specs of the bounds of the specified
     2003     4578                node.
     2004     4579        */
     2005     4580
     2006     4581    1   IABS_NODE: PROC ALTRET;
     2007     4582
     2008     4583
     2009     4584        %VD$RANGE (NAME=NODE_RANGE, STCLASS=AUTO);  /* Doesn't own objects! */
     2010     4653    2   DCL NODE_KEY$ PTR;
     2011     4654        %VD$KEY_NUMBER (NAME=NUMERIC_KEY, STCLASS=AUTO);
     2012     4669    2   DCL POINT_INDEX SBIN;
     2013     4670    2   DCL ORIGINAL_LENGTH SBIN;
     2014     4671    2   DCL SBIN_VALUE SBIN;
     2015     4672        %VD_TEXTC (NAME=FRACT, STCLASS=AUTO, MXNB=%MXNB_EDITKEY_FRACT);
     2016     4813    2   DCL ERR_CODE SBIN;
     2017     4814    2   DCL STREAM_KEY$ PTR;
     2018     4815    2   DCL INDX SBIN;
     2019     4816
     2020     4817
     2021     4818        %VD$TEXTC (NAME=NODE$KEY, STCLASS="BASED(NODE_KEY$)");
     2022     4841        %VD$TEXTC (NAME=STREAM$KEY, STCLASS="BASED(STREAM_KEY$)");
     2023     4864        %VD$KEY_NUMBER;
     2024     4879        %VD$KEY;
     2025     4893
     2026     4894
PL6.E3A0      #003=VDE$IADJUST File=VDE$INTERPRET.:VDA5TSI                       FRI 07/04/97 11:11 Page:187
     2027     4895
     2028     4896                /* First, coerce the key to the appropriate type for the file */
     2029     4897
     2030     4898    2           NUMERIC_KEY = IT$OPERAND.KEY;
     2031     4899    2           NUMERIC_KEY.TYPE# = STREAM.PORT$->VD$PORT.LEVEL.KEY_TYPE# (LEVEL);
     2032     4900    2           IF NUMERIC_KEY.TYPE# ~= IT$OPERAND.KEY.TYPE# THEN
     2033     4901    3           DO CASE (NUMERIC_KEY.TYPE#);
     2034     4902    3            CASE (%KT_NUMBER, %KT_EDITKEY);
     2035     4903    4              IF IT$OPERAND.KEY.TYPE# = %KT_STRING THEN DO;
     2036     4904                      /* Convert a string key containing a decimal number to binary */
     2037     4905                      %GETKEY (KEY=IT$OPERAND.KEY, PTR=NODE_KEY$);
     2038     4915                      /*N* If X$EVAL supported fixed-place decimal, wouldn't have to
     2039     4916                      *N*   worry about finding the decimal point ourselves *N*/
     2040     4917    4                 CALL INDEX (POINT_INDEX, %CHR_PERIOD, NODE$KEY.BYTES);
     2041     4918    4                 ORIGINAL_LENGTH = NODE$KEY.LENGTH#;
     2042     4919    4                 NODE$KEY.LENGTH# = POINT_INDEX;
     2043     4920    4                 CALL X$DEC_CONVERT (NODE_KEY$, SBIN_VALUE)
     2044     4921    4                   ALTRET (DEC_CONVERT_FAILED);
     2045     4922    4                 IF SBIN_VALUE < 0 THEN GOTO ILL_NUMKEY_INTEGER_FAILURE;
     2046     4923    4                 NODE$KEY.LENGTH# = ORIGINAL_LENGTH;
     2047     4924    5                 IF NUMERIC_KEY.TYPE# = %KT_NUMBER THEN DO;
     2048     4925    5                    IF SBIN_VALUE > %MX_CONSEC_RECORDS THEN
     2049     4926    5                       GOTO CONSEC_KEY_TOO_BIG_FAILURE;
     2050     4927    5                    IF ORIGINAL_LENGTH > POINT_INDEX THEN
     2051     4928    5                       GOTO CONSEC_KEY_FRACT_FAILURE;
     2052     4929    5                    NUMERIC_KEY.BYTES# = SBIN_VALUE;
     2053     4930    5                    END;
     2054     4931    4                 ELSE IF SBIN_VALUE < %MX_EDITKEY_INTEGER THEN
     2055     4932    4                       NUMERIC_KEY.BYTES# = SBIN_VALUE * 1000;
     2056     4933    4                    ELSE GOTO ILL_NUMKEY_INTEGER_FAILURE;
     2057     4934    4                 SBIN_VALUE = ORIGINAL_LENGTH - POINT_INDEX -
     2058     4935    4                   %LENGTHC(CHR_PERIOD);
     2059     4936    5                 IF SBIN_VALUE > 0 THEN DO;
     2060     4937    5                    IF SBIN_VALUE > LENGTHC(FRACT.BYTES) THEN
     2061     4938    5                       GOTO ILL_EDITKEY_FRACT_FAILURE;
     2062     4939    5                    FRACT.LENGTH# = LENGTHC(FRACT.BYTES);
     2063     4940    5                    FRACT.BYTES = '000';
PL6.E3A0      #003=VDE$IADJUST File=VDE$INTERPRET.:VDA5TSI                       FRI 07/04/97 11:11 Page:188
     2064     4941    5                    SUBSTR(FRACT.BYTES, 0, SBIN_VALUE) =
     2065     4942    5                      SUBSTR(NODE$KEY.BYTES, POINT_INDEX + %LENGTHC(CHR_PERIOD));
     2066     4943    5                    CALL X$DEC_CONVERT (ADDR(FRACT), SBIN_VALUE)
     2067     4944    5                      ALTRET (DEC_CONVERT_FAILED);
     2068     4945    5                    NUMERIC_KEY.BYTES# = NUMERIC_KEY.BYTES# + SBIN_VALUE;
     2069     4946    5                    END;
     2070     4947    4                 END;
     2071     4948    3              ELSE IF NUMERIC_KEY.TYPE# = %KT_EDITKEY THEN
     2072     4949    3                    GOTO ILL_NUMKEY_INTEGER_FAILURE;
     2073     4950    3                 ELSE IF NUMERIC_KEY.BYTES# ~= NUMERIC_KEY.BYTES#/1000 * 1000 THEN
     2074     4951    3                       GOTO CONSEC_KEY_FRACT_FAILURE;
     2075     4952    3                    ELSE NUMERIC_KEY.BYTES# = NUMERIC_KEY.BYTES#/1000;
     2076     4953    3              NODE_KEY$ = ADDR(NIL);
     2077     4954                   %CLEARKEY (KEY=IT$OPERAND.KEY);
     2078     4964    3              NUMERIC_KEY.REP# = %REP_LOCAL;
     2079     4965    3              NUMERIC_KEY.LENGTH# = %NB_NUMERIC_KEY;
     2080     4966    3              IT$OPERAND.KEY = NUMERIC_KEY;
     2081     4967
     2082     4968    3            CASE (%KT_STRING);
     2083     4969        /*N*       Someday, may handle string-keyed files.
     2084     4970        *N*        IF IT$OPERAND.KEY.TYPE# = %KT_NUMBER THEN DO;
     2085     4971        *N*           \* Convert a binary key to a decimal character string *\
     2086     4972        *N*           END;          *N*/
     2087     4973
     2088     4974    3            CASE (ELSE);
     2089     4975    3              CALL VDG$ESCREECH;
     2090     4976    3            END;
     2091     4977
     2092     4978
     2093     4979    2           NODE_RANGE = %CLEAR;
     2094     4980                /* NOTE:  NODE_RANGE never owns any objects itself */
     2095     4981    2           NODE_RANGE.START = TOS$EVAL.RANGE.START;
     2096     4982    2           NODE_RANGE.START.POSITION# = 0;
     2097     4983    2           NODE_RANGE.START.EOF = %FALSE;
     2098     4984    2           NODE_RANGE.START.KEY (LEVEL-1) = IT$OPERAND.KEY;
     2099     4985
     2100     4986                /* Assume key doesn't exist */
PL6.E3A0      #003=VDE$IADJUST File=VDE$INTERPRET.:VDA5TSI                       FRI 07/04/97 11:11 Page:189
     2101     4987    2           NODE_RANGE.ENDD = NODE_RANGE.START;
     2102     4988
     2103     4989    2           IF FIND_END_BOUND THEN
     2104     4990    3   FIND_EO_NODE: DO;
     2105     4991                   /* We need to find the end location of the node */
     2106     4992    3              CALL VDA$LREAD (STREAM, NODE_RANGE.START, 0, %FIND)
     2107     4993    3                ALTRET (LREAD_FAILED);
     2108     4994    4              IF NOT STREAM.CURRENT.EOF THEN DO;
     2109     4995                      %GETKEY (KEY=NODE_RANGE.START.KEY, INDX=LEVEL-1,
     2110     4996                      PTR=NODE_KEY$);
     2111     5006                      %GETKEY (KEY=STREAM.CURRENT.KEY, INDX=LEVEL-1,
     2112     5007                      PTR=STREAM_KEY$);
     2113     5017    5                 IF NODE$KEY.BYTES = STREAM$KEY.BYTES THEN DO;
     2114     5018                         /* <key> exists:  find key of next existing node */
     2115     5019    5                    CALL VDA$LREAD (STREAM, , 1, %FIND)
     2116     5020    5                      ALTRET (LREAD_FAILED);
     2117     5021    5                    NODE_RANGE.ENDD = STREAM.CURRENT;
     2118     5022    5                    END;
     2119     5023    4                 END;
     2120     5024    3              END FIND_EO_NODE;
     2121     5025
     2122     5026    2           CALL LOAD_EVAL_FROM_RANGE (NODE_RANGE)
     2123     5027    2             ALTRET (LOAD_EVAL_FROM_RANGE_FAILED);
     2124     5028
     2125     5029    2           RETURN;
     2126     5030
     2127     5031
     2128     5032
     2129     5033    2   DEC_CONVERT_FAILED:
     2130     5034    2           ERR_CODE = %E$DECIMAL_NOT_LEGAL;
     2131     5035    2           GOTO STRING_KEY_ERROR;
     2132     5036
     2133     5037    2   ILL_NUMKEY_INTEGER_FAILURE:
     2134     5038    2           ERR_CODE = %E$NUMKEY_INTEGER_NOT_LEGAL;
     2135     5039    2           GOTO STRING_KEY_ERROR;
     2136     5040
     2137     5041    2   ILL_EDITKEY_FRACT_FAILURE:
PL6.E3A0      #003=VDE$IADJUST File=VDE$INTERPRET.:VDA5TSI                       FRI 07/04/97 11:11 Page:190
     2138     5042    2           ERR_CODE = %E$EDITKEY_FRACT_NOT_LEGAL;
     2139     5043    2           GOTO STRING_KEY_ERROR;
     2140     5044
     2141     5045    2   CONSEC_KEY_FRACT_FAILURE:
     2142     5046    2           ERR_CODE = %E$CONSEC_KEY_FRACT_NOT_LEGAL;
     2143     5047    2           GOTO STRING_KEY_ERROR;
     2144     5048
     2145     5049    2   CONSEC_KEY_TOO_BIG_FAILURE: ;
     2146     5050    2           ERR_CODE = %E$CONSEC_KEY_TOO_BIG;
     2147     5051
     2148     5052    2   STRING_KEY_ERROR:
     2149     5053    2           CALL VDG$OALLOC (%CLS_ERR, VD_ERR$)
     2150     5054    2             ALTRET (OALLOC_FAILED);
     2151     5055    2           VD$ERR.ERR.CODE# = ERR_CODE;
     2152     5056    2           VD$ERR.FLAGLEV# = %FLV_SERIOUS;
     2153     5057
     2154     5058    2           SUBST_FIELD$ = PINCRW(VD_ERR$, SIZEW(VD$ERR));
     2155     5059    2           INDX = 0;
     2156     5060    3           DO WHILE INDX < %MX_CMD_OBJECTS
     2157     5061    3             AND VD_CMD_OBJECTS$ (INDX) ~= ADDR(NIL);
     2158     5062    3              INDX = INDX + 1;
     2159     5063    3              END;
     2160     5064    2           IF INDX >= %MX_CMD_OBJECTS THEN
     2161     5065    2              CALL VDG$ESCREECH (INDX);
     2162     5066    2           CALL VDG$OALLOC (%CLS_TEXTC_REMOTE, VD_CMD_OBJECTS$ (INDX),
     2163     5067    2             (LENGTHC(VD$STRING_HEADER) + LENGTHC(VD$KEY) + %NB_PER_WORD-3) /
     2164     5068    2             %NB_PER_WORD)
     2165     5069    2             ALTRET (OALLOC_FAILED);
     2166     5070    2           SUBST$POINTER.V$ (0) =
     2167     5071    2             ADDR (VD_CMD_OBJECTS$ (INDX) -> VD$TEXTC_REMOTE.LENGTH#);
     2168     5072    2           SUBST$POINTER.OBJECT.CLASS# (0) = %CLS_PTR_KEY;
     2169     5073                %COPYKEY (FKEY = IT$OPERAND.KEY,
     2170     5074                TKEY = "SUBST$POINTER.V$ (0) -> VD$KEY");
     2171     5090
     2172     5091
     2173     5092    2   LREAD_FAILED: ;
     2174     5093    2   LOAD_EVAL_FROM_RANGE_FAILED: ;
PL6.E3A0      #003=VDE$IADJUST File=VDE$INTERPRET.:VDA5TSI                       FRI 07/04/97 11:11 Page:191
     2175     5094    2   OALLOC_FAILED: ;
     2176     5095    2           ALTRETURN;
     2177     5096
     2178     5097    2   END IABS_NODE;
     2179     5098
     2180     5099                %BOX (TITLE="IREL_POSITION", PAGE=YES);
              5107    2
              5111    2   /***************************************************************************
              5113    2    *                                                                         *
              5117    2            *                               IREL_POSITION                             *
              5119    2            *                                                                         *
              5121    2           ***************************************************************************/

     2181     5125
     2182     5126        /*I* NAME: IREL_POSITION
     2183     5127            PARAMETERS:
     2184     5128                None.
     2185     5129            INPUT:
     2186     5130                STREAM - VD$STREAM to use; must be open.  It's position at
     2187     5131                    entry is irrelevent and unknown.
     2188     5132                LEVEL - Level to position in.  Must be the lowest level of the
     2189     5133                    file structure.
     2190     5134                FIND_END_BOUND - BIT(1) flag; if %TRUE, find both boundaries
     2191     5135                    of the block operand; if %FALSE, just find the start
     2192     5136                    boundary.
     2193     5137                TOS$EVAL - VD$EVAL whose .RANGE will be set based on
     2194     5138                    its .STATE and other info.
     2195     5139                TOS$EVAL.ENCLOSING - Enclosing range for this relative operand.
     2196     5140                TOS$EVAL_RELATIVE_TO - Based VD$LOCATION; must be one of
     2197     5141                    TOS$EVAL.RANGE.START or .ENDD.  This is the initial
     2198     5142                    location for relative movement.
     2199     5143                TOS$EVAL_BOUND - Based VD$LOCATION; must be one of
     2200     5144                    TOS$EVAL.RANGE.START or .ENDD.  This is the primary boundary
     2201     5145                    of the range to be set.
     2202     5146                IT$OPERAND - VD$IT_OPERAND which we are evaluating.  Its
     2203     5147                    .CODE# must be %OPAND_POSITION, and its .KEY must be
     2204     5148                    %CLEAR.
PL6.E3A0      #003=VDE$IADJUST File=VDE$INTERPRET.:VDA5TSI                       FRI 07/04/97 11:11 Page:192
     2205     5149                IT_ADJUST - Parent of IT$OPERAND.
     2206     5150                IT$BLOCK_EXPR - Root node of InTree.
     2207     5151                OPERAND - VD$OPERAND whose InTree we're evaluating.
     2208     5152            OUTPUT:
     2209     5153                TOS$EVAL_BOUND, and optionally TOS$EVAL.RANGE.ENDD, will
     2210     5154                    be set as specified by IT$OPERAND.
     2211     5155                SIGNAL will contain %FALSE if we tried to go beyond BOF
     2212     5156                    or EOF or TOS$EVAL.ENCLOSING while moving; %TRUE otherwise.
     2213     5157            DESCRIPTION:
     2214     5158                Call VDE$IMOVE_BY_POSITIONS to perform the move, setting
     2215     5159                    NODE_RANGE.START.POSITION# to the found location.  If we
     2216     5160                    need to find the end of the operand, its simply
     2217     5161                    one position to the right of the found position.
     2218     5162                    NOTE:  This is true even if the found position
     2219     5163                        doesn't exist or is the last position of the
     2220     5164                        node.  The effect of this is to never allow
     2221     5165                        a POSITION operand to cover the end-of-record
     2222     5166                        boundary (which it would do if the start of the
     2223     5167                        POSITION operand were on one node and the end
     2224     5168                        of the operand on the next node!).
     2225     5169                If we found the operand successfully, load TOS$EVAL.RANGE
     2226     5170                    from the operand's range.
     2227     5171        */
     2228     5172
     2229     5173    1   IREL_POSITION: PROC ALTRET;
     2230     5174
     2231     5175
     2232     5176        /* NODE_RANGE.START does own objects; but NODE_RANGE.ENDD doesn't!!! */
     2233     5177        %VD$RANGE (NAME=NODE_RANGE, STCLASS=AUTO);
     2234     5246    2   DCL SKIP_COUNT SBIN;
     2235     5247    2   DCL MX_RECORDS SBIN;
     2236     5248
     2237     5249
     2238     5250
     2239     5251    2           SIGNAL = %TRUE;
     2240     5252    2           CALL VDG$OCOPY_LOCATION (TOS$EVAL_RELATIVE_TO, NODE_RANGE.START)
     2241     5253    2             ALTRET (OCOPY_LOCATION_FAILED);
PL6.E3A0      #003=VDE$IADJUST File=VDE$INTERPRET.:VDA5TSI                       FRI 07/04/97 11:11 Page:193
     2242     5254    2           NODE_RANGE.ENDD = %CLEAR;   /* For now */
     2243     5255    2           SKIP_COUNT = IT$OPERAND.OPTIONS.SKIP#;
     2244     5256    2           MX_RECORDS = %INFINITY;     /* No limit on # records to skip */
     2245     5257
     2246     5258    2           CALL VDE$IMOVE_BY_POSITIONS (STREAM, NODE_RANGE.START,
     2247     5259    2             TOS$EVAL.ENCLOSING, MX_RECORDS, IT$OPERAND.OPTIONS.DIRECTION#,
     2248     5260    2             SKIP_COUNT, SIGNAL)
     2249     5261    2             ALTRET (IMOVE_BY_POSITIONS_FAILED);
     2250     5262
     2251     5263    3           IF SIGNAL THEN DO;
     2252     5264    4              IF FIND_END_BOUND THEN DO;
     2253     5265    4                 NODE_RANGE.ENDD = NODE_RANGE.START;
     2254     5266    4                 NODE_RANGE.ENDD.POSITION# = NODE_RANGE.ENDD.POSITION# + 1;
     2255     5267    4                 END;
     2256     5268    3              CALL LOAD_EVAL_FROM_RANGE (NODE_RANGE)
     2257     5269    3                ALTRET (LOAD_EVAL_FROM_RANGE_FAILED);
     2258     5270    3              END;
     2259     5271
     2260     5272    2           CALL VDG$OCLEAR_LOCATION (NODE_RANGE.START)
     2261     5273    2             ALTRET (OCLEAR_LOCATION_FAILED);
     2262     5274
     2263     5275    2           RETURN;
     2264     5276
     2265     5277
     2266     5278
     2267     5279    2   IMOVE_BY_POSITIONS_FAILED: ;
     2268     5280    2   LOAD_EVAL_FROM_RANGE_FAILED: ;
     2269     5281    2   OCOPY_LOCATION_FAILED: ;
     2270     5282    2   OCLEAR_LOCATION_FAILED: ;
     2271     5283    2           ALTRETURN;
     2272     5284
     2273     5285    2   END IREL_POSITION;
     2274     5286
     2275     5287                %BOX (TITLE=IREL_POSITION_N, PAGE=YES);
              5295    2
              5299    2   /***************************************************************************
              5301    2    *                                                                         *
PL6.E3A0      #003=VDE$IADJUST File=VDE$INTERPRET.:VDA5TSI                       FRI 07/04/97 11:11 Page:194
              5305    2            *                              IREL_POSITION_N                            *
              5307    2            *                                                                         *
              5309    2           ***************************************************************************/

     2276     5313
     2277     5314        /*I* NAME: IREL_POSITION_N
     2278     5315            PARAMETERS:
     2279     5316                None.
     2280     5317            INPUT:
     2281     5318                STREAM - VD$STREAM to use; must be open.  It's position at
     2282     5319                    entry is irrelevent and unknown.
     2283     5320                LEVEL - Level to position in.
     2284     5321                FIND_END_BOUND - BIT(1) flag; if %TRUE, find both boundaries
     2285     5322                    of the block operand; if %FALSE, just find the start
     2286     5323                    boundary.
     2287     5324                TOS$EVAL - VD$EVAL whose .RANGE will be set based on
     2288     5325                    its .STATE and other info.
     2289     5326                TOS$EVAL_RELATIVE_TO - Based VD$LOCATION; must be one of
     2290     5327                    TOS$EVAL.RANGE.START or .ENDD.  This is the initial
     2291     5328                    location for relative movement.
     2292     5329                TOS$EVAL_BOUND - Based VD$LOCATION; must be one of
     2293     5330                    TOS$EVAL.RANGE.START or .ENDD.  This is the primary boundary
     2294     5331                    of the range to be set.
     2295     5332                IT$OPERAND - VD$IT_OPERAND which we are evaluating.  Its
     2296     5333                    .CODE# must be %OPAND_POSITION, and its .KEY must be
     2297     5334                    non-%CLEAR, specifying (as if it were a VD$KEY_NUMBER)
     2298     5335                    the position number, counting from 0.  (Note that the
     2299     5336                    user gave the position # counting from 1; VDE$PARSE
     2300     5337                    translated it to a 0-offset position number.)
     2301     5338                IT_ADJUST - Parent of IT$OPERAND.
     2302     5339                IT$BLOCK_EXPR - Root node of InTree.
     2303     5340                OPERAND - VD$OPERAND whose InTree we're evaluating.
     2304     5341            OUTPUT:
     2305     5342                TOS$EVAL_BOUND, and optionally TOS$EVAL.RANGE.ENDD, will
     2306     5343                    be set as specified by IT$OPERAND.
     2307     5344                SIGNAL will contain %FALSE if we tried to go beyond BOF
     2308     5345                    or EOF while moving; %TRUE otherwise.
PL6.E3A0      #003=VDE$IADJUST File=VDE$INTERPRET.:VDA5TSI                       FRI 07/04/97 11:11 Page:195
     2309     5346            DESCRIPTION:
     2310     5347                If TOS$EVAL_RELATIVE_TO specifies the record marked "x" below, and
     2311     5348                    IT$OPERAND.KEY specifies the position marked "x" below,
     2312     5349                    then either side of the "|"s below are labelled with the
     2313     5350                    movement clause necessary to make them the output
     2314     5351                    TOS$EVAL_BOUND location:
     2315     5352
     2316     5353                    I__________BO BA SK 1 PO n|_|EO BA SK 1 PO n____________I
     2317     5354                    I__(FO or BA) BO SK 0 PO n|x|EO SK 0 PO n (FO or BA)___I
     2318     5355                    I_____________BO SK 1 PO n|_|EO SK 1 PO n___________I
     2319     5356                    I_____________BO SK 2 PO n|_|EO SK 2 PO n_____________I
     2320     5357                                                  etc.
     2321     5358
     2322     5359                If the SKIP-count is 0, the TOS$EVAL_RELATIVE keys will be
     2323     5360                    unchanged; otherwise, call the Accessor to move
     2324     5361                    the number of nodes necessary, starting from the
     2325     5362                    TOS$EVAL_RELATIVE_TO location.  Set the new node keys
     2326     5363                    for the new location.  If we hit BOF or EOF during
     2327     5364                    the move, then set TOS$EVAL_BOUND to BOF or EOF and
     2328     5365                    return SIGNAL = %FALSE.
     2329     5366                Set the TOS$EVAL_BOUND position to the specified one; if we
     2330     5367                    need to find the end of the operand, simply add one
     2331     5368                    to the position.
     2332     5369                Note that we may point to a position which doesn't exist in
     2333     5370                    the record.  That's fine.
     2334     5371        */
     2335     5372
     2336     5373    1   IREL_POSITION_N: PROC ALTRET;
     2337     5374
     2338     5375
     2339     5376        %VD$RANGE (NAME=NODE_RANGE, STCLASS=AUTO);   /* Doesn't own objects */
     2340     5445    2   DCL SKIP_COUNT SBIN;
     2341     5446    2   DCL INITIAL_KEY$ PTR;
     2342     5447    2   DCL STREAM_KEY$ PTR;
     2343     5448
     2344     5449
     2345     5450        %VD$TEXTC (NAME=INITIAL$KEY, STCLASS="BASED(INITIAL_KEY$)");
PL6.E3A0      #003=VDE$IADJUST File=VDE$INTERPRET.:VDA5TSI                       FRI 07/04/97 11:11 Page:196
     2346     5473        %VD$TEXTC (NAME=STREAM$KEY, STCLASS="BASED(STREAM_KEY$)");
     2347     5496        %VD$KEY_NUMBER;
     2348     5511
     2349     5512
     2350     5513
     2351     5514    2           SIGNAL = %TRUE;
     2352     5515    2           NODE_RANGE.START = TOS$EVAL_RELATIVE_TO;
     2353     5516    2           NODE_RANGE.ENDD = %CLEAR;   /* For now */
     2354     5517
     2355     5518    2           SKIP_COUNT = IT$OPERAND.OPTIONS.SKIP#;
     2356     5519    2           IF IT$OPERAND.OPTIONS.DIRECTION# = %DIR_BACKWARD THEN
     2357     5520    2              SKIP_COUNT = - SKIP_COUNT;
     2358     5521
     2359     5522    3           IF SKIP_COUNT ~= 0 THEN DO;
     2360     5523    3              CALL VDA$LREAD (STREAM, NODE_RANGE.START, SKIP_COUNT, %FIND)
     2361     5524    3                ALTRET (LREAD_FAILED);
     2362     5525    3              IF STREAM.CURRENT.EOF THEN
     2363     5526    3                 SIGNAL = %FALSE;
     2364     5527    4              ELSE IF IT$OPERAND.OPTIONS.DIRECTION# = %DIR_BACKWARD THEN DO;
     2365     5528                         /* Check to see if we hit BOF */
     2366     5529                         %GETKEY (KEY=NODE_RANGE.START.KEY, INDX=LEVEL-1,
     2367     5530                         PTR=INITIAL_KEY$);
     2368     5540                         %GETKEY (KEY=STREAM.CURRENT.KEY, INDX=LEVEL-1,
     2369     5541                         PTR=STREAM_KEY$);
     2370     5551    5                    IF STREAM$KEY.BYTES >= INITIAL$KEY.BYTES THEN DO;
     2371     5552    5                       NODE_RANGE.START = %CLEAR;
     2372     5553    5                       SIGNAL = %FALSE;       /* Hit BOF */
     2373     5554    5                       END;
     2374     5555    4                    END;
     2375     5556    3              NODE_RANGE.START = STREAM.CURRENT;
     2376     5557    3              END;
     2377     5558
     2378     5559    2           IF NOT SIGNAL THEN
     2379     5560    2              RETURN;
     2380     5561
     2381     5562    2           NODE_RANGE.START.POSITION# =
     2382     5563    2             ADDR(IT$OPERAND.KEY) -> VD$KEY_NUMBER.BYTES#;
PL6.E3A0      #003=VDE$IADJUST File=VDE$INTERPRET.:VDA5TSI                       FRI 07/04/97 11:11 Page:197
     2383     5564
     2384     5565    3           IF FIND_END_BOUND THEN DO;
     2385     5566    3              NODE_RANGE.ENDD = NODE_RANGE.START;
     2386     5567    3              NODE_RANGE.ENDD.POSITION# = MINIMUM(%MXNB_DATA,
     2387     5568    3                NODE_RANGE.ENDD.POSITION# + 1);
     2388     5569    3              END;
     2389     5570
     2390     5571    2           CALL LOAD_EVAL_FROM_RANGE (NODE_RANGE)
     2391     5572    2             ALTRET (LOAD_EVAL_FROM_RANGE_FAILED);
     2392     5573
     2393     5574    2           RETURN;
     2394     5575
     2395     5576
     2396     5577
     2397     5578    2   LREAD_FAILED: ;
     2398     5579    2   LOAD_EVAL_FROM_RANGE_FAILED: ;
     2399     5580    2           ALTRETURN;
     2400     5581
     2401     5582
     2402     5583    2   END IREL_POSITION_N;
     2403     5584
     2404     5585                %BOX (TITLE="LOAD_EVAL_FROM_RANGE", PAGE=YES);
              5593    2
              5597    2   /***************************************************************************
              5599    2    *                                                                         *
              5603    2            *                            LOAD_EVAL_FROM_RANGE                         *
              5605    2            *                                                                         *
              5607    2           ***************************************************************************/

     2405     5611
     2406     5612        /*I* NAME: LOAD_EVAL_FROM_RANGE
     2407     5613            PARAMETERS:
     2408     5614                RANGE - VD$RANGE to set TOS$EVAL.RANGE from.
     2409     5615                                        !! NOTE !!
     2410     5616                        RANGE may be an alias for TOS$EVAL.RANGE, or
     2411     5617                        it may point to objects owned by TOS$EVAL.RANGE.
     2412     5618                        Therefore, at entry, we must make our own copy
PL6.E3A0      #003=VDE$IADJUST File=VDE$INTERPRET.:VDA5TSI                       FRI 07/04/97 11:11 Page:198
     2413     5619                        of RANGE before we clear TOS$EVAL.RANGE.
     2414     5620            INPUT:
     2415     5621                TOS$EVAL - VD$EVAL whose .RANGE will be set based on
     2416     5622                    its .STATE and other info.
     2417     5623                TOS$EVAL_BOUND - Based VD$LOCATION; must be one of
     2418     5624                    TOS$EVAL.RANGE.START or .ENDD.  This is the primary
     2419     5625                    boundary of the range to be set from RANGE.
     2420     5626                IT$OPERAND - VD$IT_OPERAND which we're evaluating.
     2421     5627                IT_ADJUST - Parent of IT$OPERAND.
     2422     5628            OUTPUT:
     2423     5629                TOS$EVAL_BOUND, and optionally TOS$EVAL.RANGE.ENDD, will
     2424     5630                    be set appropriately from RANGE.
     2425     5631            DESCRIPTION:
     2426     5632                Based on TOS$EVAL.STATE#,
     2427     5633        *??*     IT_ADJUST.NEW_STATE#,
     2428     5634                IT$OPERAND's .POINT option, and whether IT$OPERAND
     2429     5635                is the last child of IT_ADJUST --
     2430     5636                set TOS$EVAL_BOUND.  If the state is EVST_INITIAL,
     2431     5637                also set TOS$EVAL.RANGE.ENDD.  See the table at
     2432     5638                the heading of VDE$IADJUST for specifics on who sets
     2433     5639                what and why.
     2434     5640        */
     2435     5641
     2436     5642    1   LOAD_EVAL_FROM_RANGE: PROC (RANGE) ALTRET;
     2437     5643
     2438     5644        %VD$RANGE (NAME=RANGE, STCLASS=PARAM);
     2439     5713
     2440     5714
     2441     5715
     2442     5716        %VD$RANGE (NAME=MY_RANGE, STCLASS=AUTO);
     2443     5785    2   DCL SRC_FOR_BOUND$ PTR;
     2444     5786    2   DCL SRC_FOR_ENDD$ PTR;
     2445     5787
     2446     5788
     2447     5789        %VD$LOCATION (NAME=SRC$FOR_BOUND, STCLASS="BASED(SRC_FOR_BOUND$)");
     2448     5817        %VD$LOCATION (NAME=SRC$FOR_ENDD, STCLASS="BASED(SRC_FOR_ENDD$)");
     2449     5845
PL6.E3A0      #003=VDE$IADJUST File=VDE$INTERPRET.:VDA5TSI                       FRI 07/04/97 11:11 Page:199
     2450     5846
     2451     5847
     2452     5848    2           CALL VDG$OCOPY_RANGE (RANGE, MY_RANGE)
     2453     5849    2             ALTRET (OCOPY_RANGE_FAILED);
     2454     5850
     2455     5851    3           IF IT$OPERAND.OPTIONS.POINT# = %PNT_EO THEN DO;
     2456     5852    3              SRC_FOR_BOUND$ = ADDR(MY_RANGE.ENDD);
     2457     5853    3              SRC_FOR_ENDD$ = ADDR(MY_RANGE.ENDD);
     2458     5854    3              END;
     2459     5855    2           ELSE IF IT$OPERAND.OPTIONS.POINT# = %PNT_AO
     2460     5856    3                AND ADDR(IT$OPERAND) = IT_ADJUST.MOVEMENTS_TAIL$ THEN DO;
     2461     5857    3                 IF TOS$EVAL.STATE# = %EVST_END THEN
     2462     5858        /*??*          AND IT_ADJUST.NEW_STATE# = %EVST_END THEN */
     2463     5859    3                    SRC_FOR_BOUND$ = ADDR(MY_RANGE.ENDD);
     2464     5860    3                 ELSE
     2465     5861    3                    SRC_FOR_BOUND$ = ADDR(MY_RANGE.START);
     2466     5862    3                 SRC_FOR_ENDD$ = ADDR(MY_RANGE.ENDD);
     2467     5863    3                 END;
     2468     5864    3              ELSE DO; /* For both %PNT_BO and non-last %PNT_AO */
     2469     5865    3                 SRC_FOR_BOUND$ = ADDR(MY_RANGE.START);
     2470     5866    3                 SRC_FOR_ENDD$ = ADDR(MY_RANGE.START);
     2471     5867    3                 END;
     2472     5868
     2473     5869    2           CALL VDG$OCLEAR_LOCATION (TOS$EVAL_BOUND)
     2474     5870    2             ALTRET (OCLEAR_LOCATION_FAILED);
     2475     5871    2           TOS$EVAL_BOUND = SRC$FOR_BOUND;
     2476     5872
     2477     5873    3           IF TOS$EVAL.STATE# = %EVST_INITIAL THEN DO;
     2478     5874    3              CALL VDG$OCLEAR_LOCATION (TOS$EVAL.RANGE.ENDD)
     2479     5875    3                ALTRET (OCLEAR_LOCATION_FAILED);
     2480     5876    4              IF SRC_FOR_BOUND$ = SRC_FOR_ENDD$ THEN DO;
     2481     5877    4                 CALL VDG$OCOPY_LOCATION (SRC$FOR_ENDD, TOS$EVAL.RANGE.ENDD)
     2482     5878    4                   ALTRET (OCOPY_LOCATION_FAILED);
     2483     5879    4                 END;
     2484     5880    3              ELSE
     2485     5881    3                 TOS$EVAL.RANGE.ENDD = SRC$FOR_ENDD;
     2486     5882    3              END;
PL6.E3A0      #003=VDE$IADJUST File=VDE$INTERPRET.:VDA5TSI                       FRI 07/04/97 11:11 Page:200
     2487     5883    3           ELSE DO;
     2488     5884                   /* Didn't use SRC$FOR_ENDD:  may need to free it */
     2489     5885    4              IF SRC_FOR_BOUND$ ~= SRC_FOR_ENDD$ THEN DO;
     2490     5886    4                 CALL VDG$OCLEAR_LOCATION (SRC$FOR_ENDD)
     2491     5887    4                   ALTRET (OCLEAR_LOCATION_FAILED);
     2492     5888    4                 END;
     2493     5889    3              END;
     2494     5890
     2495     5891    2           RETURN;
     2496     5892
     2497     5893
     2498     5894    2   OCOPY_RANGE_FAILED: ;
     2499     5895    2   OCLEAR_LOCATION_FAILED: ;
     2500     5896    2   OCOPY_LOCATION_FAILED: ;
     2501     5897    2           ALTRETURN;
     2502     5898
     2503     5899    2   END LOAD_EVAL_FROM_RANGE;
     2504     5900
     2505     5901    1   END VDE$IADJUST;
     2506     5902        %EOD;

PL6.E3A0      #003=VDE$IADJUST File=VDE$INTERPRET.:VDA5TSI                       FRI 07/04/97 11:11 Page:201
--  Include file information  --

   VD_PERR_C.:VDA5TOU  is referenced.
   VD_MACROS_M.:VDA5TOU  is referenced.
   B$JIT_C.:E04TOU  was found in the system file and is never referenced.
   CP_6_C.:E04TOU  was found in the system file and is never referenced.
      No diagnostics issued in procedure VDE$IADJUST.

   Procedure VDE$IADJUST requires 962 words for executable code.
   Procedure VDE$IADJUST requires 98 words of local(AUTO) storage.

PL6.E3A0      #003=VDE$IADJUST File=VDE$INTERPRET.:VDA5TSI                       FRI 07/04/97 11:11 Page:202

 Object Unit name= VDE$IADJUST                                File name= VDE$INTERPRET.:VDA5TOU
 UTS= JUL 04 '97 11:11:51.84 FRI                              Compiler= PL-6/E31         Sev=      00
 SharedLib= :SHARED_SYSTEM                                    Alt SharedLib=


    ****  Control sections  ****

 Sect   Type Bound  Init  Size OctSiz  Section name(segment info)
    0  RoData even  UTS      1      1  VDE$IADJUST
    1   Proc  even  none   962   1702  VDE$IADJUST
    2  RoData even  none    11     13  VDE$IADJUST

    ****  Entry defs  ****

                              Check   Calling
                             calling  sequence
  Sect OctLoc Primary Altret sequence   type   Parms  Name
     1      0   yes    yes     yes      Std        3  VDE$IADJUST
PL6.E3A0      #003=VDE$IADJUST File=VDE$INTERPRET.:VDA5TSI                       FRI 07/04/97 11:11 Page:203

  ****  Entry refs  ****

         Check        Calling
        calling       sequence
Altret sequence SRef   type   Args  Name
 yes     yes           Std       1 VDG$OCLEAR_RANGE
 yes     yes           Std       3 VDE$PREAD_LO_NAME
         yes           Std       3 VDG$ESCREECH
 yes     yes           Std       4 VDE$IPATTERN
 yes     yes           Std       4 VDA$LREAD
 yes     yes           Std       2 VDG$OCOPY_LOCATION
 yes     yes           Std       1 VDG$OCLEAR_LOCATION
 yes     yes           Std       2 X$DEC_CONVERT
 yes     yes           Std       3 VDG$OALLOC
 yes     yes           Std       1 VDG$OFREE
 yes     yes           Std       2 VDG$OCOPY
 yes     yes           Std       7 VDE$IMOVE_BY_POSITIONS
 yes     yes           Std       2 VDG$OCOPY_RANGE
                       nStd      0 X66_AUTO_3
                       Std       0 B_CONSPOOL_D
                       nStd      0 X66_ARET
                       nStd      0 X66_AALT

  ****  Data refs  ****

  Flags:  r = read only, s = secondary
Flgs Name                             Flgs Name                             Flgs Name
     VD_KEY_NUMERIC_BOF                    VD_CMD_OBJECTS$                       B_VECTNIL

  ****  Segment refs  ****

  Flags:  r = read only, s = secondary
Flgs Name                             Flgs Name                             Flgs Name
     ISSID
PL6.E3A0      #003=VDE$IADJUST File=VDE$INTERPRET.:VDA5TSI                       FRI 07/04/97 11:11 Page:204


     1449        1        /*T***********************************************************/
     1450        2        /*T*                                                         */
     1451        3        /*T* Copyright (c) Bull HN Information Systems Inc., 1997    */
     1452        4        /*T*                                                         */
     1453        5        /*T***********************************************************/
     1454        6
     1455        7        /*D* NAME:  VDE$IADJUST
     1456        8            PARAMETERS:
     1457        9                OPERAND - VD$OPERAND whose InTree we're evaluating:
     1458       10                    .STREAM$ must point to a stream open to the current
     1459       11                        EditBlock's file.
     1460       12                    .INTREE$ must point to the root node of the InTree being
     1461       13                        evaluated.  Its .OPTIONS must specify the Level and
     1462       14        *N*             Component to use.
     1463       15                    .EDIT_BLOCK$ must point to a block descriptor for
     1464       16                        the current EditBlock.
     1465       17                    .EVAL$ must point to the top VD$EVAL on the evaluation
     1466       18                        stack.  In this VD$EVAL:
     1467       19                        .ENCLOSING must specify the limits on all FilePointer
     1468       20                            movement.
     1469       21                        .RANGE must specify the initial range to move relative
     1470       22                            to.
     1471       23                        .STATE# must specify the current evaluation state.
     1472       24                IT_ADJUST - THRU or ADJUST node whose movement-expr nodes
     1473       25                    nodes are to be evaluated.  It's ok if IT_ADJUST has no
     1474       26                    children.
     1475       27                SIGNAL - An uninitialized BIT(1) ALIGNED.
     1476       28            INPUT:
     1477       29            OUTPUT:
     1478       30                SIGNAL will contain either true or false:
     1479       31                    SIGNAL will contain %TRUE if we were able to find a block
     1480       32                        for the IT_ADJUST node which lies at least partially
     1481       33                        within the enclosing range.
     1482       34                        Also, TOS$EVAL.RANGE has been modified to point to
     1483       35                        this found block.
     1484       36                    SIGNAL will contain %FALSE if we failed to find a range
PL6.E3A0      #003=VDE$IADJUST File=VDE$INTERPRET.:VDA5TSI                       FRI 07/04/97 11:11 Page:205
     1485       37                        for the InTree due to one of the following reasons:
     1486       38                        o An absolute operand specified a range which lies
     1487       39                            completely outside the enclosing range.
     1488       40                        o Not any of a relative operand could be
     1489       41                            found inside the enclosing range.
     1490       42                        o A conditional operand could not find a range
     1491       43                            within the enclosing range.
     1492       44                        Also, TOS$EVAL.RANGE may have been modified.
     1493       45                TOS$EVAL.RANGE (that is, .RANGE in the VD$EVAL on top of the
     1494       46                    evaluation stack) will be modified:  either or both of its
     1495       47                    VD$LOCATIONs may be modified as specified by the
     1496       48                    movement_expr nodes.  Which bound is modified to what is
     1497       49                    based on the TOS$EVAL.STATE#,
     1498       50        *??*        IT_ADJUST.NEW_STATE#,
     1499       51                    the .POINT# option of each of IT_ADJUST's children, and
     1500       52                    whether the child is the last child of an IT_ADJUST or not.
     1501       53                    The table below shows which bound of TOS$EVAL.RANGE
     1502       54                    ("str" is the start bound, "end" is the end bound)
     1503       55                    will be set to which point of the specified operand
     1504       56                    ("BO" is the start location of the operand, "EO"
     1505       57                    is the end location of the operand):
     1506       58
     1507       59                                                     Point
     1508       60                                 ---------------------------------------------
     1509       61                                    AO,       AO, not
     1510       62                      STATE      last child  last child     BO          EO
     1511       63                    ----------   ---------   ---------   ---------   ---------
     1512       64                    _INITIAL     str := BO   str := BO   str := BO   str := EO
     1513       65                                 end := EO   end := BO   end := BO   end := EO
     1514       66
     1515       67                    _START       str := BO   str := BO   str := BO   str := EO
     1516       68
     1517       69        *??*        _END, and
     1518       70        *??*         .NEW_STATE#
     1519       71        *??*         ~= _END     end := BO   end := BO   end := BO   end := EO
     1520       72
     1521       73                    _END         end := EO   end := BO   end := BO   end := EO
PL6.E3A0      #003=VDE$IADJUST File=VDE$INTERPRET.:VDA5TSI                       FRI 07/04/97 11:11 Page:206
     1522       74        *??*         and .NEW_STATE# = _END
     1523       75
     1524       76                    If IT_ADJUST has no children, TOS$EVAL.RANGE will be
     1525       77                    unchanged (we'll do nothing but return SIGNAL = %TRUE).
     1526       78                TOS$EVAL.REMAINING# may be forced to 0 (when we want to stop any
     1527       79                    further evaluation of an IT_SELECT (???Operator???) node).
     1528       80            DESCRIPTION:
     1529       81                Loop thru the chain of movement-expr nodes:
     1530       82
     1531       83                o For %OPAND_FILE, set TOS$EVAL.RANGE to .ENCLOSING.
     1532       84                    (VDE$IOPEN set the initial TOS$EVAL.ENCLOSING to the
     1533       85                    specified file already, and has already altered the
     1534       86                    EditBlock stack appropriately.)
     1535       87                o For %OPAND_PREVIOUS and %OPAND_NEXT, check to see if they
     1536       88                    are the only operand in the entire block expression:
     1537       89                    If so, set TOS$EVAL.RANGE from TOS$EVAL.RANGE.
     1538       90                    If not, set TOS$EVAL.RANGE to TOS$EVAL.ENCLOSING.
     1539       91                    (VDE$IOPEN set the initial TOS$EVAL.ENCLOSING and .RANGE
     1540       92                    and the EditBlock range from the previous or next EditBlock,
     1541       93                    and has already altered the EditBlock stack appropriately.)
     1542       94                o For %OPAND_LO_NAME, read the name from the Locations file,
     1543       95                    and copy the range from the name's block descriptor to
     1544       96                    TOS$EVAL.RANGE.
     1545       97                o For %OPAND_BLOCK_DESC, copy the range from the
     1546       98                    block descriptor to TOS$EVAL.RANGE.
     1547       99                o For absolute %OPAND_NODE (.KEY ~= %CLEAR), store the key in
     1548      100                    TOS$EVAL.RANGE.  If we need to find the end of the operand
     1549      101                    (ie, STATE = %EVST_INITIAL so we need to set both
     1550      102                    start and end bounds), we must call the Accessor
     1551      103                    find the key of the next record.
     1552      104                o For relative %OPAND_NODE (.KEY=%CLEAR), and for %OPAND_POSITION
     1553      105                    and %OPAND_PATTERN, we must go to the file to find the
     1554      106                    location requested.
     1555      107                    If we don't find a match, set TOS$EVAL.REMAINING# to 0,
     1556      108                    to force us out of a REPEAT SELECT "try the next alternative"
     1557      109                    loop in VDE$IRANGE.
     1558      110
PL6.E3A0      #003=VDE$IADJUST File=VDE$INTERPRET.:VDA5TSI                       FRI 07/04/97 11:11 Page:207
     1559      111                After evaluating each movement_expr node:
     1560      112                    Check that the new TOS$EVAL.RANGE bounds lie within
     1561      113                        TOS$EVAL.ENCLOSING; truncate TOS$EVAL.RANGE if necessary.
     1562      114                        If the new TOS$EVAL.RANGE is completely outside the
     1563      115                        TOS$EVAL.ENCLOSING boundaries, we'll force it to specify
     1564      116                        an empty block at the TOS$EVAL.ENCLOSING boundary beyond
     1565      117                        which it lies.
     1566      118                If evaluation of any movement_expr node yields a false SIGNAL,
     1567      119                    stop evaluating the entire chain of movement_expr nodes.
     1568      120
     1569      121                Note that absolute movement is a little different from
     1570      122                relative movement.  For absolute movement, if the requested
     1571      123                operand doesn't exist in the file, then the block resulting
     1572      124                from the movement is an empty block at the specified location.
     1573      125                For relative movement, we always move to the next existing
     1574      126                location in the file (always forward).  We don't want
     1575      127                to do that for absolute movement; specifically, for
     1576      128                record key movement requests, we need to allow the user to
     1577      129                say "CO ... AF 8" when record 8 doesn't exist, and we
     1578      130                must interpret that to be a null block at reckey 8, position
     1579      131                0.
     1580      132
     1581      133                For relative block operands, a 0 SKIP-count is not the same as
     1582      134                no movement.  A 0 SKIP-count specifies the operand (node,
     1583      135                position or pattern) in which the FilePointer currently lies.
     1584      136                For example, "SKIP 0 RECORD" starting from record 5.1,
     1585      137                position 20, yields a range from 5.1 position 0 thru
     1586      138                the start of the next record -- in other words, it
     1587      139                yields the entire record from which we started the
     1588      140                movement.  A 0 SKIP-count disregards the "direction"
     1589      141                of movement; it operates the same whether direction is
     1590      142                BACKWARD or FORWARD.
     1591      143        */
     1592      144
     1593      145        VDE$IADJUST: PROC (OPERAND, IT_ADJUST, SIGNAL) ALTRET;

    145  1 000000   000000 700200 xent  VDE$IADJUST  TSX0  ! X66_AUTO_3
PL6.E3A0      #003=VDE$IADJUST File=VDE$INTERPRET.:VDA5TSI                       FRI 07/04/97 11:11 Page:208
         1 000001   000142 000003                    ZERO    98,3

     1594      146
     1595      147
     1596      148        %INCLUDE VD_MACROS_M;
     1597     2363        %INCLUDE VD_PERR_C;
     1598     2511
     1599     2512
     1600     2513        %VD$OPERAND (NAME=OPERAND, STCLASS=PARAM);
     1601     2527        %VD$IT_ADJUST (NAME=IT_ADJUST, STCLASS=PARAM);
     1602     2564    1   DCL SIGNAL BIT(1) ALIGNED;
     1603     2565
     1604     2566
     1605     2567        /*
     1606     2568        *   Flag for VDA$LREAD's fourth parameter:  whether or not to read.
     1607     2569        */
     1608     2570
     1609     2571        %EQU FIND = FALSE;          /* Find the specified node; don't read it */
     1610     2572        %EQU FIND_AND_READ = TRUE;  /* Find node and read it */
     1611     2573
     1612     2574
     1613     2575    1   DCL VDE$PREAD_LO_NAME   ENTRY (3) ALTRET;
     1614     2576    1   DCL VDE$IMOVE_BY_POSITIONS  ENTRY (7) ALTRET;
     1615     2577    1   DCL VDE$IPATTERN        ENTRY (4) ALTRET;
     1616     2578    1   DCL VDA$LREAD           ENTRY (4) ALTRET;
     1617     2579    1   DCL VDG$OALLOC          ENTRY (3) ALTRET;
     1618     2580    1   DCL VDG$OFREE           ENTRY (1) ALTRET;
     1619     2581    1   DCL VDG$OCOPY           ENTRY (2) ALTRET;
     1620     2582    1   DCL VDG$OCLEAR_RANGE    ENTRY (1) ALTRET;
     1621     2583    1   DCL VDG$OCOPY_RANGE     ENTRY (2) ALTRET;
     1622     2584    1   DCL VDG$OCLEAR_LOCATION ENTRY (1) ALTRET;
     1623     2585    1   DCL VDG$OCOPY_LOCATION  ENTRY (2) ALTRET;
     1624     2586    1   DCL VDG$ESCREECH        ENTRY (3);
     1625     2587    1   DCL X$DEC_CONVERT       ENTRY (2) ALTRET;
     1626     2588
     1627     2589
     1628     2590
PL6.E3A0      #003=VDE$IADJUST File=VDE$INTERPRET.:VDA5TSI                       FRI 07/04/97 11:11 Page:209
     1629     2591        %VD_6E (STCLASS=SYMREF);
     1630     2627        %VD$KEY (NAME=VD_KEY_NUMERIC_BOF, STCLASS=SYMREF);
     1631     2641    1   DCL VD_CMD_OBJECTS$ (0:%(MX_CMD_OBJECTS-1)) PTR SYMREF;
     1632     2642
     1633     2643
     1634     2644
     1635     2645    1   DCL LO_NAME$ PTR;
     1636     2646    1   DCL TOS_EVAL$ PTR;
     1637     2647    1   DCL IT_BLOCK_EXPR$ PTR;
     1638     2648    1   DCL TOS_EVAL_BOUND$ PTR;
     1639     2649    1   DCL TOS_EVAL_RELATIVE_TO$ PTR;
     1640     2650    1   DCL IT_MOVEMENT$ PTR;
     1641     2651    1   DCL STREAM$ PTR;
     1642     2652    1   DCL LEVEL UBIN;
     1643     2653    1   DCL FIND_END_BOUND BIT(1) ALIGNED;
     1644     2654    1   DCL REF_BLOCK_DESC$ PTR;
     1645     2655        %VD$RANGE (NAME=FOUND_RANGE, STCLASS=AUTO);
     1646     2724    1   DCL VD_ERR$ PTR;
     1647     2725    1   DCL SUBST_FIELD$ PTR;
     1648     2726
     1649     2727
     1650     2728        %VD$TEXTC (NAME=LO$NAME, STCLASS="BASED(LO_NAME$)");
     1651     2751        %VD$EVAL (NAME=TOS$EVAL, STCLASS="BASED(TOS_EVAL$)");
     1652     2996        %VD$IT_BLOCK_EXPR (NAME=IT$BLOCK_EXPR, STCLASS="BASED(IT_BLOCK_EXPR$)");
     1653     3146        %VD$LOCATION (NAME=TOS$EVAL_BOUND, STCLASS="BASED(TOS_EVAL_BOUND$)");
     1654     3174        %VD$LOCATION (NAME=TOS$EVAL_RELATIVE_TO,
     1655     3175            STCLASS="BASED(TOS_EVAL_RELATIVE_TO$)");
     1656     3203        %VD$IT_OPERAND (NAME=IT$OPERAND, STCLASS="BASED(IT_MOVEMENT$)");
     1657     3269        %VD$STREAM (NAME=STREAM, STCLASS="BASED(OPERAND.STREAM$)");
     1658     3375        %VD$BLOCK_DESC (NAME=REF$BLOCK_DESC, STCLASS="BASED(REF_BLOCK_DESC$)");
     1659     3522        %VD$ERR (NAME=VD$ERR, STCLASS="BASED(VD_ERR$)");
     1660     3575        %VD$NUMBER (NAME=SUBST$NUMBER, DIM="(0:2)", STCLASS="BASED(SUBST_FIELD$)");
     1661     3620        %VD$POINTER (NAME=SUBST$POINTER, DIM="(0:2)", STCLASS="BASED(SUBST_FIELD$)");
     1662     3665        %VD$STRING_HEADER;
     1663     3701        %VD$BUFFER_HEADER;
     1664     3737        %VD$IT_SELECT;
     1665     3774        %VD$IT_ADJUST;
PL6.E3A0      #003=VDE$IADJUST File=VDE$INTERPRET.:VDA5TSI                       FRI 07/04/97 11:11 Page:210
     1666     3811        %VD$BUFFER;
     1667     3869        %VD$TEXTC_REMOTE;
     1668     3930        %VD$PORT;
     1669     4028
     1670     4029
     1671     4030
     1672     4031    1           SIGNAL = %TRUE;

   4031  1 000002   400000 236003                    LDQ     -131072,DU
         1 000003   200005 470500                    LDP0    @SIGNAL,,AUTO
         1 000004   000000 756100                    STQ     0,,PR0

     1673     4032    1           TOS_EVAL$ = OPERAND.EVAL$;

   4032  1 000005   200003 471500                    LDP1    @OPERAND,,AUTO
         1 000006   100003 236100                    LDQ     3,,PR1
         1 000007   200007 756100                    STQ     TOS_EVAL$,,AUTO

     1674     4033    1           IT_BLOCK_EXPR$ = OPERAND.INTREE$;

   4033  1 000010   100001 236100                    LDQ     1,,PR1
         1 000011   200010 756100                    STQ     IT_BLOCK_EXPR$,,AUTO

     1675     4034    1           LEVEL = IT$BLOCK_EXPR.OPTIONS.LEVEL#;

   4034  1 000012   200010 473500                    LDP3    IT_BLOCK_EXPR$,,AUTO
         1 000013   300031 236100                    LDQ     25,,PR3
         1 000014   000022 732000                    QRS     18
         1 000015   200015 756100                    STQ     LEVEL,,AUTO

     1676     4035    1           IF TOS$EVAL.STATE# ~= %EVST_END THEN

   4035  1 000016   200007 474500                    LDP4    TOS_EVAL$,,AUTO
         1 000017   400070 220100                    LDX0    56,,PR4
         1 000020   000003 100003                    CMPX0   3,DU
         1 000021   000026 600000 1                  TZE     s:4038

PL6.E3A0      #003=VDE$IADJUST File=VDE$INTERPRET.:VDA5TSI                       FRI 07/04/97 11:11 Page:211
     1677     4036    1              TOS_EVAL_BOUND$ = ADDR(TOS$EVAL.RANGE.START);

   4036  1 000022   200007 236100                    LDQ     TOS_EVAL$,,AUTO
         1 000023   000024 036003                    ADLQ    20,DU
         1 000024   200011 756100                    STQ     TOS_EVAL_BOUND$,,AUTO
         1 000025   000031 710000 1                  TRA     s:4040

     1678     4037    1           ELSE
     1679     4038    1              TOS_EVAL_BOUND$ = ADDR(TOS$EVAL.RANGE.ENDD);

   4038  1 000026   200007 236100                    LDQ     TOS_EVAL$,,AUTO
         1 000027   000035 036003                    ADLQ    29,DU
         1 000030   200011 756100                    STQ     TOS_EVAL_BOUND$,,AUTO

     1680     4039
     1681     4040    1           IT_MOVEMENT$ = IT_ADJUST.MOVEMENTS$;

   4040  1 000031   200004 475500                    LDP5    @IT_ADJUST,,AUTO
         1 000032   500004 236100                    LDQ     4,,PR5
         1 000033   200013 756100                    STQ     IT_MOVEMENT$,,AUTO

     1682     4041    1   EACH_MOVEMENT_NODE:
     1683     4042    2           DO WHILE (IT_MOVEMENT$ ~= ADDR(NIL));

   4042  1 000034   000276 710000 1     EACH_MOVEME* TRA     s:4159

     1684     4043    2              IF IT$OPERAND.OPTIONS.DIRECTION# = %DIR_BACKWARD THEN

   4043  1 000035   200013 470500                    LDP0    IT_MOVEMENT$,,AUTO
         1 000036   000005 720100                    LXL0    5,,PR0
         1 000037   000002 100003                    CMPX0   2,DU
         1 000040   000045 601000 1                  TNZ     s:4046

     1685     4044    2                 TOS_EVAL_RELATIVE_TO$ = ADDR(TOS$EVAL.RANGE.START);

   4044  1 000041   200007 236100                    LDQ     TOS_EVAL$,,AUTO
         1 000042   000024 036003                    ADLQ    20,DU
PL6.E3A0      #003=VDE$IADJUST File=VDE$INTERPRET.:VDA5TSI                       FRI 07/04/97 11:11 Page:212
         1 000043   200012 756100                    STQ     TOS_EVAL_RELATIVE_TO$,,AUTO
         1 000044   000050 710000 1                  TRA     s:4047

     1686     4045    2              ELSE
     1687     4046    2                 TOS_EVAL_RELATIVE_TO$ = ADDR(TOS$EVAL.RANGE.ENDD);

   4046  1 000045   200007 236100                    LDQ     TOS_EVAL$,,AUTO
         1 000046   000035 036003                    ADLQ    29,DU
         1 000047   200012 756100                    STQ     TOS_EVAL_RELATIVE_TO$,,AUTO

     1688     4047    2              FIND_END_BOUND = %FALSE;

   4047  1 000050   200016 450100                    STZ     FIND_END_BOUND,,AUTO

     1689     4048    2              IF IT$OPERAND.OPTIONS.POINT# = %PNT_EO

   4048  1 000051   000005 221100                    LDX1    5,,PR0
         1 000052   000003 101003                    CMPX1   3,DU
         1 000053   000066 600000 1                  TZE     s:4053
         1 000054   000001 101003                    CMPX1   1,DU
         1 000055   000070 601000 1                  TNZ     MOVEMENT_CODE_CASES
         1 000056   200004 471500                    LDP1    @IT_ADJUST,,AUTO
         1 000057   200013 236100                    LDQ     IT_MOVEMENT$,,AUTO
         1 000060   100005 116100                    CMPQ    5,,PR1
         1 000061   000070 601000 1                  TNZ     MOVEMENT_CODE_CASES
         1 000062   200007 473500                    LDP3    TOS_EVAL$,,AUTO
         1 000063   300070 222100                    LDX2    56,,PR3
         1 000064   000002 102003                    CMPX2   2,DU
         1 000065   000070 600000 1                  TZE     MOVEMENT_CODE_CASES

     1690     4049    2                OR (IT$OPERAND.OPTIONS.POINT# = %PNT_AO
     1691     4050    2                AND IT_MOVEMENT$ = IT_ADJUST.MOVEMENTS_TAIL$
     1692     4051    2                AND TOS$EVAL.STATE# ~= %EVST_START) THEN
     1693     4052        /*??*         AND IT_ADJUST.NEW_STATE# = %EVST_END))) THEN */
     1694     4053    2                 FIND_END_BOUND = %TRUE;

   4053  1 000066   400000 236003                    LDQ     -131072,DU
PL6.E3A0      #003=VDE$IADJUST File=VDE$INTERPRET.:VDA5TSI                       FRI 07/04/97 11:11 Page:213
         1 000067   200016 756100                    STQ     FIND_END_BOUND,,AUTO

     1695     4054
     1696     4055    2   MOVEMENT_CODE_CASES:
     1697     4056    3              DO CASE (IT$OPERAND.CODE#);

   4056  1 000070   000003 222100       MOVEMENT_CO* LDX2    3,,PR0
         1 000071   000011 102003                    CMPX2   9,DU
         1 000072   000074 602012 1                  TNC     MOVEMENT_CODE_CASES+4,X2
         1 000073   000261 710000 1                  TRA     s:4151
         1 000074   000261 710000 1                  TRA     s:4151
         1 000075   000105 710000 1                  TRA     s:4063
         1 000076   000145 710000 1                  TRA     s:4101
         1 000077   000113 710000 1                  TRA     s:4073
         1 000100   000113 710000 1                  TRA     s:4073
         1 000101   000175 710000 1                  TRA     s:4111
         1 000102   000204 710000 1                  TRA     s:4117
         1 000103   000216 710000 1                  TRA     s:4128
         1 000104   000230 710000 1                  TRA     s:4139

     1698     4057
     1699     4058    3               CASE (%OPAND_FILE);

     1700     4059                      /*
     1701     4060                      *  For %OPAND_FILE, we assume that VDE$IOPEN has already
     1702     4061                      *     setup the new EditBlock for the operand
     1703     4062                      */
     1704     4063    3                 CALL LOAD_EVAL_FROM_RANGE (TOS$EVAL.ENCLOSING)

   4063  1 000105   200007 236100                    LDQ     TOS_EVAL$,,AUTO
         1 000106   000002 036003                    ADLQ    2,DU
         1 000107   200105 756100                    STQ     STREAM_KEY$+3,,AUTO
         1 000110   001551 701000 1                  TSX1    LOAD_EVAL_FROM_RANGE
         1 000111   000301 702000 1                  TSX2    PREAD_LO_NAME_FAILED
         1 000112   000270 710000 1                  TRA     s:4155

     1705     4064    3                   ALTRET (LOAD_EVAL_FROM_RANGE_FAILED);
PL6.E3A0      #003=VDE$IADJUST File=VDE$INTERPRET.:VDA5TSI                       FRI 07/04/97 11:11 Page:214
     1706     4065
     1707     4066
     1708     4067    3               CASE (%OPAND_PREVIOUS, %OPAND_NEXT);

     1709     4068                      /*
     1710     4069                      *  For these operands, we assume that VDE$IOPEN has
     1711     4070                      *     already setup the new EditBlock .RANGE from the
     1712     4071                      *     previous/next EditBlock's .RANGE.
     1713     4072                      */
     1714     4073    3                 IF IT$BLOCK_EXPR.SELECTS$ = IT$BLOCK_EXPR.SELECTS_TAIL$

   4073  1 000113   200010 471500                    LDP1    IT_BLOCK_EXPR$,,AUTO
         1 000114   100035 236100                    LDQ     29,,PR1
         1 000115   100036 116100                    CMPQ    30,,PR1
         1 000116   000137 601000 1                  TNZ     s:4088
         1 000117   100035 473500                    LDP3    29,,PR1
         1 000120   300004 236100                    LDQ     4,,PR3
         1 000121   300005 116100                    CMPQ    5,,PR3
         1 000122   000137 601000 1                  TNZ     s:4088
         1 000123   300004 474500                    LDP4    4,,PR3
         1 000124   400004 236100                    LDQ     4,,PR4
         1 000125   400005 116100                    CMPQ    5,,PR4
         1 000126   000137 601000 1                  TNZ     s:4088
         1 000127   200013 116100                    CMPQ    IT_MOVEMENT$,,AUTO
         1 000130   000137 601000 1                  TNZ     s:4088

     1715     4074    3                   AND IT$BLOCK_EXPR.SELECTS$->VD$IT_SELECT.ADJUSTS$ =
     1716     4075    3                   IT$BLOCK_EXPR.SELECTS$->VD$IT_SELECT.ADJUSTS_TAIL$
     1717     4076    3                   AND IT$BLOCK_EXPR.SELECTS$->VD$IT_SELECT.ADJUSTS$->
     1718     4077    3                   VD$IT_ADJUST.MOVEMENTS$ =
     1719     4078    3                   IT$BLOCK_EXPR.SELECTS$->VD$IT_SELECT.ADJUSTS$->
     1720     4079    3                   VD$IT_ADJUST.MOVEMENTS_TAIL$
     1721     4080    3                   AND IT$BLOCK_EXPR.SELECTS$->VD$IT_SELECT.ADJUSTS$->
     1722     4081    3                   VD$IT_ADJUST.MOVEMENTS$ =
     1723     4082    4                   ADDR(IT$OPERAND) THEN DO;

     1724     4083                         /* This is only operand in entire block expression */
PL6.E3A0      #003=VDE$IADJUST File=VDE$INTERPRET.:VDA5TSI                       FRI 07/04/97 11:11 Page:215
     1725     4084    4                    CALL LOAD_EVAL_FROM_RANGE (TOS$EVAL.RANGE)

   4084  1 000131   200007 236100                    LDQ     TOS_EVAL$,,AUTO
         1 000132   000024 036003                    ADLQ    20,DU
         1 000133   200105 756100                    STQ     STREAM_KEY$+3,,AUTO
         1 000134   001551 701000 1                  TSX1    LOAD_EVAL_FROM_RANGE
         1 000135   000301 702000 1                  TSX2    PREAD_LO_NAME_FAILED

     1726     4085    4                      ALTRET (LOAD_EVAL_FROM_RANGE_FAILED);
     1727     4086    4                    END;

   4086  1 000136   000270 710000 1                  TRA     s:4155

     1728     4087    4                 ELSE DO;

     1729     4088    4                    CALL LOAD_EVAL_FROM_RANGE (TOS$EVAL.ENCLOSING)

   4088  1 000137   200007 236100                    LDQ     TOS_EVAL$,,AUTO
         1 000140   000002 036003                    ADLQ    2,DU
         1 000141   200105 756100                    STQ     STREAM_KEY$+3,,AUTO
         1 000142   001551 701000 1                  TSX1    LOAD_EVAL_FROM_RANGE
         1 000143   000301 702000 1                  TSX2    PREAD_LO_NAME_FAILED

     1730     4089    4                      ALTRET (LOAD_EVAL_FROM_RANGE_FAILED);
     1731     4090    4                    END;

   4090  1 000144   000270 710000 1                  TRA     s:4155

     1732     4091
     1733     4092
     1734     4093    3               CASE (%OPAND_LO_NAME);

     1735     4094                      %GETKEY (KEY=IT$OPERAND.KEY, PTR=LO_NAME$);

   4101  1 000145   000006 723100                    LXL3    6,,PR0
         1 000146   000002 103003                    CMPX3   2,DU
         1 000147   000154 601000 1                  TNZ     s:4101+7
PL6.E3A0      #003=VDE$IADJUST File=VDE$INTERPRET.:VDA5TSI                       FRI 07/04/97 11:11 Page:216

   4101  1 000150   000007 471500                    LDP1    7,,PR0
         1 000151   100002 633500                    EPPR3   2,,PR1
         1 000152   200006 453500                    STP3    LO_NAME$,,AUTO
         1 000153   000157 710000 1                  TRA     s:4104

   4101  1 000154   200013 236100                    LDQ     IT_MOVEMENT$,,AUTO
         1 000155   000007 036003                    ADLQ    7,DU
         1 000156   200006 756100                    STQ     LO_NAME$,,AUTO

     1736     4104    3                 CALL VDE$PREAD_LO_NAME (LO$NAME, REF_BLOCK_DESC$)

   4104  1 000157   200017 631500                    EPPR1   REF_BLOCK_DESC$,,AUTO
         1 000160   200133 451500                    STP1    SRC_FOR_ENDD$+2,,AUTO
         1 000161   200006 236100                    LDQ     LO_NAME$,,AUTO
         1 000162   200132 756100                    STQ     SRC_FOR_ENDD$+1,,AUTO
         1 000163   200132 630500                    EPPR0   SRC_FOR_ENDD$+1,,AUTO
         1 000164   000020 631400 xsym               EPPR1   B_VECTNIL+16
         1 000165   000000 701000 xent               TSX1    VDE$PREAD_LO_NAME
         1 000166   000301 702000 1                  TSX2    PREAD_LO_NAME_FAILED

     1737     4105    3                   ALTRET (PREAD_LO_NAME_FAILED);
     1738     4106    3                 CALL LOAD_EVAL_FROM_RANGE (REF$BLOCK_DESC.RANGE)

   4106  1 000167   200017 236100                    LDQ     REF_BLOCK_DESC$,,AUTO
         1 000170   000003 036003                    ADLQ    3,DU
         1 000171   200105 756100                    STQ     STREAM_KEY$+3,,AUTO
         1 000172   001551 701000 1                  TSX1    LOAD_EVAL_FROM_RANGE
         1 000173   000301 702000 1                  TSX2    PREAD_LO_NAME_FAILED
         1 000174   000270 710000 1                  TRA     s:4155

     1739     4107    3                   ALTRET (LOAD_EVAL_FROM_RANGE_FAILED);
     1740     4108
     1741     4109
     1742     4110    3               CASE (%OPAND_BLOCK_DESC);

     1743     4111    3                 REF_BLOCK_DESC$ = IT$OPERAND.PARAM$;
PL6.E3A0      #003=VDE$IADJUST File=VDE$INTERPRET.:VDA5TSI                       FRI 07/04/97 11:11 Page:217

   4111  1 000175   000010 236100                    LDQ     8,,PR0
         1 000176   200017 756100                    STQ     REF_BLOCK_DESC$,,AUTO

     1744     4112    3                 CALL LOAD_EVAL_FROM_RANGE (REF$BLOCK_DESC.RANGE)

   4112  1 000177   000003 036003                    ADLQ    3,DU
         1 000200   200105 756100                    STQ     STREAM_KEY$+3,,AUTO
         1 000201   001551 701000 1                  TSX1    LOAD_EVAL_FROM_RANGE
         1 000202   000301 702000 1                  TSX2    PREAD_LO_NAME_FAILED
         1 000203   000270 710000 1                  TRA     s:4155

     1745     4113    3                   ALTRET (LOAD_EVAL_FROM_RANGE_FAILED);
     1746     4114
     1747     4115
     1748     4116    3               CASE (%OPAND_NODE);

     1749     4117    4                 IF IT$OPERAND.KEY = %CLEAR THEN DO;

   4117  1 000204   000000 106500                    CMPC    fill='000'O
         1 000205   000006 000010                    ADSC9   6,,PR0                   cn=0,n=8
         1 000206   000002 000002 xsym               ADSC9   B_VECTNIL+2              cn=0,n=2
         1 000207   000213 601000 1                  TNZ     s:4122

     1750     4118    4                    CALL IREL_NODE

   4118  1 000210   000302 701000 1                  TSX1    IREL_NODE
         1 000211   000301 702000 1                  TSX2    PREAD_LO_NAME_FAILED

     1751     4119    4                      ALTRET (IREL_NODE_FAILED);
     1752     4120    4                    END;

   4120  1 000212   000270 710000 1                  TRA     s:4155

     1753     4121    4                 ELSE DO;

     1754     4122    4                    CALL IABS_NODE
PL6.E3A0      #003=VDE$IADJUST File=VDE$INTERPRET.:VDA5TSI                       FRI 07/04/97 11:11 Page:218

   4122  1 000213   000530 701000 1                  TSX1    IABS_NODE
         1 000214   000301 702000 1                  TSX2    PREAD_LO_NAME_FAILED

     1755     4123    4                      ALTRET (IABS_NODE_FAILED);
     1756     4124    4                    END;

   4124  1 000215   000270 710000 1                  TRA     s:4155

     1757     4125
     1758     4126
     1759     4127    3               CASE (%OPAND_POSITION);

     1760     4128    4                 IF IT$OPERAND.KEY = %CLEAR THEN DO;

   4128  1 000216   000000 106500                    CMPC    fill='000'O
         1 000217   000006 000010                    ADSC9   6,,PR0                   cn=0,n=8
         1 000220   000002 000002 xsym               ADSC9   B_VECTNIL+2              cn=0,n=2
         1 000221   000225 601000 1                  TNZ     s:4133

     1761     4129    4                    CALL IREL_POSITION

   4129  1 000222   001256 701000 1                  TSX1    IREL_POSITION
         1 000223   000301 702000 1                  TSX2    PREAD_LO_NAME_FAILED

     1762     4130    4                      ALTRET (IREL_POSITION_FAILED);
     1763     4131    4                    END;

   4131  1 000224   000270 710000 1                  TRA     s:4155

     1764     4132    4                 ELSE DO;

     1765     4133    4                    CALL IREL_POSITION_N

   4133  1 000225   001362 701000 1                  TSX1    IREL_POSITION_N
         1 000226   000301 702000 1                  TSX2    PREAD_LO_NAME_FAILED

PL6.E3A0      #003=VDE$IADJUST File=VDE$INTERPRET.:VDA5TSI                       FRI 07/04/97 11:11 Page:219
     1766     4134    4                      ALTRET (IREL_POSITION_N_FAILED);
     1767     4135    4                    END;

   4135  1 000227   000270 710000 1                  TRA     s:4155

     1768     4136
     1769     4137
     1770     4138    3               CASE (%OPAND_PATTERN);

     1771     4139    3                 CALL VDE$IPATTERN (OPERAND, IT$OPERAND, FOUND_RANGE, SIGNAL)

   4139  1 000230   200005 236100                    LDQ     @SIGNAL,,AUTO
         1 000231   200135 756100                    STQ     SRC_FOR_ENDD$+4,,AUTO
         1 000232   200020 631500                    EPPR1   FOUND_RANGE,,AUTO
         1 000233   200134 451500                    STP1    SRC_FOR_ENDD$+3,,AUTO
         1 000234   200013 236100                    LDQ     IT_MOVEMENT$,,AUTO
         1 000235   200003 235100                    LDA     @OPERAND,,AUTO
         1 000236   200132 757100                    STAQ    SRC_FOR_ENDD$+1,,AUTO
         1 000237   200132 630500                    EPPR0   SRC_FOR_ENDD$+1,,AUTO
         1 000240   000022 631400 xsym               EPPR1   B_VECTNIL+18
         1 000241   000000 701000 xent               TSX1    VDE$IPATTERN
         1 000242   000301 702000 1                  TSX2    PREAD_LO_NAME_FAILED

     1772     4140    3                   ALTRET (IPATTERN_FAILED);
     1773     4141    4                 IF SIGNAL THEN DO;

   4141  1 000243   200005 470500                    LDP0    @SIGNAL,,AUTO
         1 000244   000000 234100                    SZN     0,,PR0
         1 000245   000270 605000 1                  TPL     s:4155

     1774     4142                         /* Note that FOUND_RANGE owns its objects! */
     1775     4143    4                    CALL LOAD_EVAL_FROM_RANGE (FOUND_RANGE)

   4143  1 000246   200020 631500                    EPPR1   FOUND_RANGE,,AUTO
         1 000247   200105 451500                    STP1    STREAM_KEY$+3,,AUTO
         1 000250   001551 701000 1                  TSX1    LOAD_EVAL_FROM_RANGE
         1 000251   000301 702000 1                  TSX2    PREAD_LO_NAME_FAILED
PL6.E3A0      #003=VDE$IADJUST File=VDE$INTERPRET.:VDA5TSI                       FRI 07/04/97 11:11 Page:220

     1776     4144    4                      ALTRET (LOAD_EVAL_FROM_RANGE_FAILED);
     1777     4145    4                    CALL VDG$OCLEAR_RANGE (FOUND_RANGE)

   4145  1 000252   200020 630500                    EPPR0   FOUND_RANGE,,AUTO
         1 000253   200132 450500                    STP0    SRC_FOR_ENDD$+1,,AUTO
         1 000254   200132 630500                    EPPR0   SRC_FOR_ENDD$+1,,AUTO
         1 000255   000017 631400 xsym               EPPR1   B_VECTNIL+15
         1 000256   000000 701000 xent               TSX1    VDG$OCLEAR_RANGE
         1 000257   000301 702000 1                  TSX2    PREAD_LO_NAME_FAILED

     1778     4146    4                      ALTRET (OCLEAR_RANGE_FAILED);
     1779     4147    4                    END;

   4147  1 000260   000270 710000 1                  TRA     s:4155

     1780     4148
     1781     4149
     1782     4150    3               CASE (ELSE);

     1783     4151    3                 CALL VDG$ESCREECH (IT$OPERAND.CODE#);

   4151  1 000261   200013 236100                    LDQ     IT_MOVEMENT$,,AUTO
         1 000262   000003 036003                    ADLQ    3,DU
         1 000263   200132 756100                    STQ     SRC_FOR_ENDD$+1,,AUTO
         1 000264   200132 630500                    EPPR0   SRC_FOR_ENDD$+1,,AUTO
         1 000265   000017 631400 xsym               EPPR1   B_VECTNIL+15
         1 000266   000000 701000 xent               TSX1    VDG$ESCREECH
         1 000267   000000 011000                    NOP     0

     1784     4152
     1785     4153    3               END MOVEMENT_CODE_CASES;

     1786     4154
     1787     4155    2              IF NOT SIGNAL THEN

   4155  1 000270   200005 470500                    LDP0    @SIGNAL,,AUTO
PL6.E3A0      #003=VDE$IADJUST File=VDE$INTERPRET.:VDA5TSI                       FRI 07/04/97 11:11 Page:221
         1 000271   000000 234100                    SZN     0,,PR0
         1 000272   000300 605000 1                  TPL     s:4162

     1788     4156    2                 EXIT EACH_MOVEMENT_NODE;
     1789     4157
     1790     4158    2              IT_MOVEMENT$ = IT$OPERAND.FLINK$;

   4158  1 000273   200013 471500                    LDP1    IT_MOVEMENT$,,AUTO
         1 000274   100002 236100                    LDQ     2,,PR1
         1 000275   200013 756100                    STQ     IT_MOVEMENT$,,AUTO

     1791     4159    2              END EACH_MOVEMENT_NODE;

   4159  1 000276   000001 116000 xsym               CMPQ    B_VECTNIL+1
         1 000277   000035 601000 1                  TNZ     s:4043

     1792     4160
     1793     4161
     1794     4162    1           RETURN;

   4162  1 000300   000000 702200 xent               TSX2  ! X66_ARET

   4162  1 000301                       PREAD_LO_NA* null
   4162  1 000301                       LOAD_EVAL_F* null
   4162  1 000301                       IABS_NODE_F* null
   4162  1 000301                       IREL_NODE_F* null
   4162  1 000301                       IREL_POSITI* null
   4162  1 000301                       IREL_POSITI* null
   4162  1 000301                       IPATTERN_FA* null
   4162  1 000301                       OCLEAR_RANG* null
   4162  1 000301                       OALLOC_FAIL* null
     1795     4163
     1796     4164
     1797     4165
     1798     4166    1   PREAD_LO_NAME_FAILED: ;
     1799     4167    1   LOAD_EVAL_FROM_RANGE_FAILED: ;
     1800     4168    1   IABS_NODE_FAILED: ;
PL6.E3A0      #003=VDE$IADJUST File=VDE$INTERPRET.:VDA5TSI                       FRI 07/04/97 11:11 Page:222
     1801     4169    1   IREL_NODE_FAILED: ;
     1802     4170    1   IREL_POSITION_FAILED: ;
     1803     4171    1   IREL_POSITION_N_FAILED: ;
     1804     4172    1   IPATTERN_FAILED: ;
     1805     4173    1   OCLEAR_RANGE_FAILED: ;
     1806     4174    1   OALLOC_FAILED: ;
     1807     4175    1           ALTRETURN;

   4175  1 000301   000000 702200 xent               TSX2  ! X66_AALT

     1808     4176
     1809     4177                %BOX (TITLE=IREL_NODE, PAGE=YES);
              4185    1
              4189    1   /***************************************************************************
              4191    1    *                                                                         *
              4195    1            *                                 IREL_NODE                              *
              4197    1            *                                                                        *
              4199    1          ***************************************************************************/

     1810     4203
     1811     4204        /*I* NAME: IREL_NODE
     1812     4205            PARAMETERS:
     1813     4206                None.
     1814     4207            INPUT:
     1815     4208                STREAM - VD$STREAM to use; must be open.  It's position at
     1816     4209                    entry is irrelevent and unknown.
     1817     4210                LEVEL - Level to position in.
     1818     4211                FIND_END_BOUND - BIT(1) flag; if %TRUE, find both boundaries
     1819     4212                    of the block operand; if %FALSE, just find the start
     1820     4213                    boundary.
     1821     4214                TOS$EVAL - VD$EVAL whose .RANGE will be set based on
     1822     4215                    its .STATE and other info.
     1823     4216                TOS$EVAL_RELATIVE_TO - Based VD$LOCATION; must be one of
     1824     4217                    TOS$EVAL.RANGE.START or .ENDD.  This is the initial
     1825     4218                    location for relative movement.
     1826     4219                TOS$EVAL_BOUND - Based VD$LOCATION; must be one of
     1827     4220                    TOS$EVAL.RANGE.START or .ENDD.  This is the primary boundary
PL6.E3A0      #003=VDE$IADJUST File=VDE$INTERPRET.:VDA5TSI                       FRI 07/04/97 11:11 Page:223
     1828     4221                    of the range to be set.
     1829     4222                IT$OPERAND - VD$IT_OPERAND which we are evaluating.  Its
     1830     4223                    .CODE# must be %OPAND_NODE, and its .KEY must be
     1831     4224                    non-%CLEAR.
     1832     4225                IT_ADJUST - Parent of IT$OPERAND.
     1833     4226                IT$BLOCK_EXPR - Root node of InTree.
     1834     4227                OPERAND - VD$OPERAND whose InTree we're evaluating.
     1835     4228            OUTPUT:
     1836     4229                TOS$EVAL_BOUND, and optionally TOS$EVAL.RANGE.ENDD, will
     1837     4230                    be set as specified by IT$OPERAND.
     1838     4231                SIGNAL will contain %FALSE if we tried to go beyond BOF
     1839     4232                    or EOF while moving; %TRUE otherwise.
     1840     4233                TOS$EVAL.REMAINING# will be set to 0 if we tried to go beyond
     1841     4234                    BOF or EOF while moving.
     1842     4235            DESCRIPTION:
     1843     4236                If TOS$EVAL_RELATIVE_TO specifies any position within the record
     1844     4237                    marked "<in>" below, then the beginning of each record
     1845     4238                    below is labelled with the movement clause necessary to
     1846     4239                    make it the output TOS$EVAL_BOUND location:
     1847     4240
     1848     4241                BO BA SK 1 RE  or  EO BA SK 2 RE  I___________________I
     1849     4242        (FO or BA) BO SK 0 RE  or  EO BA SK 1 RE  I_______<in>__________I
     1850     4243           BO SK 1 RE  or  (FO or BA) EO SK 0 RE  I________________I
     1851     4244                      BO SK 2 RE  or  EO SK 1 RE  I__________________I
     1852     4245                            etc.
     1853     4246
     1854     4247                Note that if the TOS$EVAL_RELATIVE_TO record doesn't exist, we will
     1855     4248                    first move to the start of the next existing record (if any).
     1856     4249                    TEST CASE for this:
     1857     4250                        CURR; SHL 1    "or DE CURR REPEAT SE RE SE TH PO 1
     1858     4251                    If we don't force the start-bound of the found-range to
     1859     4252                    be a real location, then the first "record" found in
     1860     4253                    the CURRENT block will be BOF,0 - 2,0.  But the
     1861     4254                    POSITION operand will turn that range into BOF,0 - BOF,1!!!
     1862     4255                    The next call to VDE$IRANGE will find 2,0 - 2,1.  The effect
     1863     4256                    will be to skip the first record, since BOF,0 - BOF,1 is
     1864     4257                    an empty block.
PL6.E3A0      #003=VDE$IADJUST File=VDE$INTERPRET.:VDA5TSI                       FRI 07/04/97 11:11 Page:224
     1865     4258                    SO, we first make TOS$EVAL_BOUND 1,0.  Then REPEAT SE RE
     1866     4259                    finds 1,0 - 2,0 and POSITION 1 finds 1,0 - 1,1.
     1867     4260
     1868     4261                Call the Accessor to move the number of nodes requested (even
     1869     4262                    0), starting from the TOS$EVAL_RELATIVE_TO location.
     1870     4263                    Set the new node keys for the new location.  If we hit BOF or
     1871     4264                    EOF during the move, then set TOS$EVAL_BOUND to BOF or EOF and
     1872     4265                    return SIGNAL = %FALSE, but go ahead and load the TOS$EVAL
     1873     4266                    from the "found range" (BOF-BOF or EOF-EOF).
     1874     4267                    Also reset the TOS$EVAL.REMAINING# to 0, to force us out
     1875     4268                    of a REPEAT SELECT "try the next alternative" loop in
     1876     4269                    VDE$IRANGE.
     1877     4270                If we need to find the end of the node, then call the
     1878     4271                    Accessor to find the next record key.
     1879     4272        */
     1880     4273
     1881     4274    1   IREL_NODE: PROC ALTRET;

   4274  1 000302   200044 741300       IREL_NODE    STX1  ! SUBST_FIELD$+1,,AUTO

     1882     4275
     1883     4276
     1884     4277        %VD$RANGE (NAME=NODE_RANGE, STCLASS=AUTO);   /* Doesn't own objects */
     1885     4346        %VD$LOCATION (NAME=OWNS_OBJECTS_LOC, STCLASS=AUTO); /* Owns objects */
     1886     4374    2   DCL SKIP_COUNT SBIN;
     1887     4375    2   DCL INITIAL_KEY$ PTR;
     1888     4376    2   DCL STREAM_KEY$ PTR;
     1889     4377
     1890     4378
     1891     4379        %VD$TEXTC (NAME=INITIAL$KEY, STCLASS="BASED(INITIAL_KEY$)");
     1892     4402        %VD$TEXTC (NAME=STREAM$KEY, STCLASS="BASED(STREAM_KEY$)");
     1893     4425
     1894     4426
     1895     4427
     1896     4428    2           SIGNAL = %TRUE;

   4428  1 000303   400000 236003                    LDQ     -131072,DU
PL6.E3A0      #003=VDE$IADJUST File=VDE$INTERPRET.:VDA5TSI                       FRI 07/04/97 11:11 Page:225
         1 000304   200005 470500                    LDP0    @SIGNAL,,AUTO
         1 000305   000000 756100                    STQ     0,,PR0

     1897     4429    2           NODE_RANGE = %CLEAR;

   4429  1 000306   000100 100400                    MLR     fill='000'O
         1 000307   000002 000001 xsym               ADSC9   B_VECTNIL+2              cn=0,n=1
         1 000310   200045 000110                    ADSC9   NODE_RANGE,,AUTO         cn=0,n=72

     1898     4430    2           OWNS_OBJECTS_LOC = %CLEAR;

   4430  1 000311   000100 100400                    MLR     fill='000'O
         1 000312   000002 000001 xsym               ADSC9   B_VECTNIL+2              cn=0,n=1
         1 000313   200067 000044                    ADSC9   OWNS_OBJECTS_LOC,,AUTO   cn=0,n=36

     1899     4431
     1900     4432    2           SKIP_COUNT = IT$OPERAND.OPTIONS.SKIP#;

   4432  1 000314   200013 471500                    LDP1    IT_MOVEMENT$,,AUTO
         1 000315   100004 236100                    LDQ     4,,PR1
         1 000316   000022 736000                    QLS     18
         1 000317   000022 732000                    QRS     18
         1 000320   200100 756100                    STQ     SKIP_COUNT,,AUTO

     1901     4433    2           IF IT$OPERAND.OPTIONS.DIRECTION# = %DIR_BACKWARD THEN

   4433  1 000321   100005 720100                    LXL0    5,,PR1
         1 000322   000002 100003                    CMPX0   2,DU
         1 000323   000326 601000 1                  TNZ     s:4436

     1902     4434    2              SKIP_COUNT = - SKIP_COUNT;

   4434  1 000324   200100 335100                    LCA     SKIP_COUNT,,AUTO
         1 000325   200100 755100                    STA     SKIP_COUNT,,AUTO

     1903     4435
     1904     4436    2           CALL VDA$LREAD (STREAM, TOS$EVAL_RELATIVE_TO, SKIP_COUNT, %FIND)
PL6.E3A0      #003=VDE$IADJUST File=VDE$INTERPRET.:VDA5TSI                       FRI 07/04/97 11:11 Page:226

   4436  1 000326   200003 473500                    LDP3    @OPERAND,,AUTO
         1 000327   300000 474500                    LDP4    0,,PR3
         1 000330   000000 236000 2                  LDQ     0
         1 000331   200135 756100                    STQ     SRC_FOR_ENDD$+4,,AUTO
         1 000332   200100 635500                    EPPR5   SKIP_COUNT,,AUTO
         1 000333   200134 455500                    STP5    SRC_FOR_ENDD$+3,,AUTO
         1 000334   200012 236100                    LDQ     TOS_EVAL_RELATIVE_TO$,,AUTO
         1 000335   200133 756100                    STQ     SRC_FOR_ENDD$+2,,AUTO
         1 000336   200132 454500                    STP4    SRC_FOR_ENDD$+1,,AUTO
         1 000337   200132 630500                    EPPR0   SRC_FOR_ENDD$+1,,AUTO
         1 000340   000022 631400 xsym               EPPR1   B_VECTNIL+18
         1 000341   000000 701000 xent               TSX1    VDA$LREAD
         1 000342   000526 702000 1                  TSX2    LREAD_FAILED

     1905     4437    2             ALTRET (LREAD_FAILED);
     1906     4438    3           IF STREAM.CURRENT.EOF THEN DO;

   4438  1 000343   200003 470500                    LDP0    @OPERAND,,AUTO
         1 000344   000000 471500                    LDP1    0,,PR0
         1 000345   100016 236100                    LDQ     14,,PR1
         1 000346   400000 316007                    CANQ    -131072,DL
         1 000347   000360 600000 1                  TZE     s:4444

     1907     4439    3              SIGNAL = %FALSE;

   4439  1 000350   200005 473500                    LDP3    @SIGNAL,,AUTO
         1 000351   300000 450100                    STZ     0,,PR3

     1908     4440    3              NODE_RANGE.START.EOF = %TRUE;

   4440  1 000352   400000 236007                    LDQ     -131072,DL
         1 000353   200055 256100                    ORSQ    NODE_RANGE+8,,AUTO

     1909     4441    3              NODE_RANGE.ENDD.EOF = %TRUE;

   4441  1 000354   200066 256100                    ORSQ    NODE_RANGE+17,,AUTO
PL6.E3A0      #003=VDE$IADJUST File=VDE$INTERPRET.:VDA5TSI                       FRI 07/04/97 11:11 Page:227

     1910     4442    3              TOS$EVAL.REMAINING# = 0; /* Force exit from REPEAT loop */

   4442  1 000355   200007 471500                    LDP1    TOS_EVAL$,,AUTO
         1 000356   100072 450100                    STZ     58,,PR1

     1911     4443    3              END;

   4443  1 000357   000442 710000 1                  TRA     s:4476

     1912     4444    3           ELSE IF IT$OPERAND.OPTIONS.DIRECTION# = %DIR_BACKWARD THEN DO;

   4444  1 000360   200013 473500                    LDP3    IT_MOVEMENT$,,AUTO
         1 000361   300005 720100                    LXL0    5,,PR3
         1 000362   000002 100003                    CMPX0   2,DU
         1 000363   000442 601000 1                  TNZ     s:4476

     1913     4445                      /* Check to see if we hit BOF */
     1914     4446                      %GETKEY (KEY=TOS$EVAL_RELATIVE_TO.KEY, INDX=LEVEL-1,
     1915     4447                      PTR=INITIAL_KEY$);

   4454  1 000364   200015 235100                    LDA     LEVEL,,AUTO
         1 000365   000001 735000                    ALS     1
         1 000366   200012 474500                    LDP4    TOS_EVAL_RELATIVE_TO$,,AUTO
         1 000367   477776 721105                    LXL1    -2,AL,PR4
         1 000370   000002 101003                    CMPX1   2,DU
         1 000371   000376 601000 1                  TNZ     s:4454+10

   4454  1 000372   477777 475505                    LDP5    -1,AL,PR4
         1 000373   500002 636500                    EPPR6   2,,PR5
         1 000374   200101 456500                    STP6    INITIAL_KEY$,,AUTO
         1 000375   000403 710000 1                  TRA     s:4465

   4454  1 000376   200015 236100                    LDQ     LEVEL,,AUTO
         1 000377   000023 736000                    QLS     19
         1 000400   000001 136003                    SBLQ    1,DU
         1 000401   200012 036100                    ADLQ    TOS_EVAL_RELATIVE_TO$,,AUTO
PL6.E3A0      #003=VDE$IADJUST File=VDE$INTERPRET.:VDA5TSI                       FRI 07/04/97 11:11 Page:228
         1 000402   200101 756100                    STQ     INITIAL_KEY$,,AUTO

     1916     4457                      %GETKEY (KEY=STREAM.CURRENT.KEY, INDX=LEVEL-1,
     1917     4458                      PTR=STREAM_KEY$);

   4465  1 000403   100004 722105                    LXL2    4,AL,PR1
         1 000404   000002 102003                    CMPX2   2,DU
         1 000405   000412 601000 1                  TNZ     s:4465+7

   4465  1 000406   100005 475505                    LDP5    5,AL,PR1
         1 000407   500002 636500                    EPPR6   2,,PR5
         1 000410   200102 456500                    STP6    STREAM_KEY$,,AUTO
         1 000411   000414 710000 1                  TRA     s:4468

   4465  1 000412   100005 635505                    EPPR5   5,AL,PR1
         1 000413   200102 455500                    STP5    STREAM_KEY$,,AUTO

     1918     4468    4                 IF STREAM$KEY.BYTES >= INITIAL$KEY.BYTES THEN DO;

   4468  1 000414   200102 475500                    LDP5    STREAM_KEY$,,AUTO
         1 000415   500000 236100                    LDQ     0,,PR5
         1 000416   000033 772000                    QRL     27
         1 000417   200101 476500                    LDP6    INITIAL_KEY$,,AUTO
         1 000420   000000 623006                    EAX3    0,QL
         1 000421   600000 236100                    LDQ     0,,PR6
         1 000422   000033 772000                    QRL     27
         1 000423   000000 624006                    EAX4    0,QL
         1 000424   040140 106540                    CMPC    fill='040'O
         1 000425   500000 200013                    ADSC9   0,,PR5                   cn=1,n=*X3
         1 000426   600000 200014                    ADSC9   0,,PR6                   cn=1,n=*X4
         1 000427   000442 602000 1                  TNC     s:4476

     1919     4469    4                    SIGNAL = %FALSE;       /* Hit BOF */

   4469  1 000430   200005 477500                    LDP7    @SIGNAL,,AUTO
         1 000431   700000 450100                    STZ     0,,PR7

PL6.E3A0      #003=VDE$IADJUST File=VDE$INTERPRET.:VDA5TSI                       FRI 07/04/97 11:11 Page:229
     1920     4470    4                    NODE_RANGE.START.KEY (%LVL_LOWER-1) = VD_KEY_NUMERIC_BOF;

   4470  1 000432   000100 100400                    MLR     fill='000'O
         1 000433   000000 000010 xsym               ADSC9   VD_KEY_NUMERIC_BOF       cn=0,n=8
         1 000434   200045 000010                    ADSC9   NODE_RANGE,,AUTO         cn=0,n=8

     1921     4471    4                    NODE_RANGE.ENDD = NODE_RANGE.START;

   4471  1 000435   000100 100500                    MLR     fill='000'O
         1 000436   200045 000044                    ADSC9   NODE_RANGE,,AUTO         cn=0,n=36
         1 000437   200056 000044                    ADSC9   NODE_RANGE+9,,AUTO       cn=0,n=36

     1922     4472    4                    TOS$EVAL.REMAINING# = 0;   /* Force exit from REPEAT loop */

   4472  1 000440   200007 471500                    LDP1    TOS_EVAL$,,AUTO
         1 000441   100072 450100                    STZ     58,,PR1

     1923     4473    4                    END;

     1924     4474    3                 END;

     1925     4475
     1926     4476    3           IF SIGNAL THEN DO;

   4476  1 000442   200005 471500                    LDP1    @SIGNAL,,AUTO
         1 000443   100000 234100                    SZN     0,,PR1
         1 000444   000506 605000 1                  TPL     s:4495

     1927     4477    3              NODE_RANGE.START = STREAM.CURRENT;

   4477  1 000445   000000 473500                    LDP3    0,,PR0
         1 000446   000100 100500                    MLR     fill='000'O
         1 000447   300006 000044                    ADSC9   6,,PR3                   cn=0,n=36
         1 000450   200045 000044                    ADSC9   NODE_RANGE,,AUTO         cn=0,n=36

     1928     4478
     1929     4479    4              IF FIND_END_BOUND THEN DO;
PL6.E3A0      #003=VDE$IADJUST File=VDE$INTERPRET.:VDA5TSI                       FRI 07/04/97 11:11 Page:230

   4479  1 000451   200016 234100                    SZN     FIND_END_BOUND,,AUTO
         1 000452   000506 605000 1                  TPL     s:4495

     1930     4480                      /*
     1931     4481                      *   Must make our own copy of NODE_RANGE.START now,
     1932     4482                      *     'cause call to VDA$LREAD below will change
     1933     4483                      *     STREAM.CURRENT, which is the owner of NODE_RANGE.START's
     1934     4484                      *     current objects.
     1935     4485                      */
     1936     4486    4                 CALL VDG$OCOPY_LOCATION (NODE_RANGE.START, OWNS_OBJECTS_LOC)

   4486  1 000453   200067 633500                    EPPR3   OWNS_OBJECTS_LOC,,AUTO
         1 000454   200133 453500                    STP3    SRC_FOR_ENDD$+2,,AUTO
         1 000455   200045 634500                    EPPR4   NODE_RANGE,,AUTO
         1 000456   200132 454500                    STP4    SRC_FOR_ENDD$+1,,AUTO
         1 000457   200132 630500                    EPPR0   SRC_FOR_ENDD$+1,,AUTO
         1 000460   000020 631400 xsym               EPPR1   B_VECTNIL+16
         1 000461   000000 701000 xent               TSX1    VDG$OCOPY_LOCATION
         1 000462   000526 702000 1                  TSX2    LREAD_FAILED

     1937     4487    4                   ALTRET (OCOPY_LOCATION_FAILED);
     1938     4488    4                 NODE_RANGE.START = OWNS_OBJECTS_LOC;

   4488  1 000463   000100 100500                    MLR     fill='000'O
         1 000464   200067 000044                    ADSC9   OWNS_OBJECTS_LOC,,AUTO   cn=0,n=36
         1 000465   200045 000044                    ADSC9   NODE_RANGE,,AUTO         cn=0,n=36

     1939     4489    4                 CALL VDA$LREAD (STREAM, , 1, %FIND)

   4489  1 000466   200003 470500                    LDP0    @OPERAND,,AUTO
         1 000467   000000 471500                    LDP1    0,,PR0
         1 000470   000002 237000 2                  LDAQ    2
         1 000471   200134 757100                    STAQ    SRC_FOR_ENDD$+3,,AUTO
         1 000472   000001 236000 xsym               LDQ     B_VECTNIL+1
         1 000473   200133 756100                    STQ     SRC_FOR_ENDD$+2,,AUTO
         1 000474   200132 451500                    STP1    SRC_FOR_ENDD$+1,,AUTO
PL6.E3A0      #003=VDE$IADJUST File=VDE$INTERPRET.:VDA5TSI                       FRI 07/04/97 11:11 Page:231
         1 000475   200132 630500                    EPPR0   SRC_FOR_ENDD$+1,,AUTO
         1 000476   000022 631400 xsym               EPPR1   B_VECTNIL+18
         1 000477   000000 701000 xent               TSX1    VDA$LREAD
         1 000500   000526 702000 1                  TSX2    LREAD_FAILED

     1940     4490    4                   ALTRET (LREAD_FAILED);
     1941     4491    4                 NODE_RANGE.ENDD = STREAM.CURRENT;

   4491  1 000501   200003 470500                    LDP0    @OPERAND,,AUTO
         1 000502   000000 471500                    LDP1    0,,PR0
         1 000503   000100 100500                    MLR     fill='000'O
         1 000504   100006 000044                    ADSC9   6,,PR1                   cn=0,n=36
         1 000505   200056 000044                    ADSC9   NODE_RANGE+9,,AUTO       cn=0,n=36

     1942     4492    4                 END;

     1943     4493    3              END;

     1944     4494
     1945     4495    2           CALL LOAD_EVAL_FROM_RANGE (NODE_RANGE)

   4495  1 000506   200045 631500                    EPPR1   NODE_RANGE,,AUTO
         1 000507   200105 451500                    STP1    STREAM_KEY$+3,,AUTO
         1 000510   001551 701000 1                  TSX1    LOAD_EVAL_FROM_RANGE
         1 000511   000526 702000 1                  TSX2    LREAD_FAILED

     1946     4496    2             ALTRET (LOAD_EVAL_FROM_RANGE_FAILED);
     1947     4497
     1948     4498    3           IF OWNS_OBJECTS_LOC ~= %CLEAR THEN DO;

   4498  1 000512   000000 106500                    CMPC    fill='000'O
         1 000513   200067 000044                    ADSC9   OWNS_OBJECTS_LOC,,AUTO   cn=0,n=36
         1 000514   000002 000002 xsym               ADSC9   B_VECTNIL+2              cn=0,n=2
         1 000515   000524 600000 1                  TZE     s:4503

     1949     4499    3              CALL VDG$OCLEAR_LOCATION (OWNS_OBJECTS_LOC)

PL6.E3A0      #003=VDE$IADJUST File=VDE$INTERPRET.:VDA5TSI                       FRI 07/04/97 11:11 Page:232
   4499  1 000516   200067 630500                    EPPR0   OWNS_OBJECTS_LOC,,AUTO
         1 000517   200132 450500                    STP0    SRC_FOR_ENDD$+1,,AUTO
         1 000520   200132 630500                    EPPR0   SRC_FOR_ENDD$+1,,AUTO
         1 000521   000017 631400 xsym               EPPR1   B_VECTNIL+15
         1 000522   000000 701000 xent               TSX1    VDG$OCLEAR_LOCATION
         1 000523   000526 702000 1                  TSX2    LREAD_FAILED

     1950     4500    3                ALTRET (OCLEAR_LOCATION_FAILED);
     1951     4501    3              END;

     1952     4502
     1953     4503    2           RETURN;

   4503  1 000524   200044 221300                    LDX1  ! SUBST_FIELD$+1,,AUTO
         1 000525   000001 702211                    TSX2  ! 1,X1

   4498  1 000526                       LREAD_FAILED null
   4498  1 000526                       LOAD_EVAL_F* null
   4498  1 000526                       OCOPY_LOCAT* null
   4498  1 000526                       OCLEAR_LOCA* null
     1954     4504
     1955     4505
     1956     4506
     1957     4507    2   LREAD_FAILED: ;
     1958     4508    2   LOAD_EVAL_FROM_RANGE_FAILED: ;
     1959     4509    2   OCOPY_LOCATION_FAILED: ;
     1960     4510    2   OCLEAR_LOCATION_FAILED: ;
     1961     4511    2           ALTRETURN;

   4511  1 000526   200044 221300                    LDX1  ! SUBST_FIELD$+1,,AUTO
         1 000527   000000 702211                    TSX2  ! 0,X1

     1962     4512
     1963     4513
     1964     4514    2   END IREL_NODE;
     1965     4515
     1966     4516                %BOX (TITLE="IABS_NODE", PAGE=YES);
PL6.E3A0      #003=VDE$IADJUST File=VDE$INTERPRET.:VDA5TSI                       FRI 07/04/97 11:11 Page:233
              4524    2
              4528    2   /***************************************************************************
              4530    2    *                                                                         *
              4534    2            *                                 IABS_NODE                              *
              4536    2            *                                                                        *
              4538    2          ***************************************************************************/

     1967     4542
     1968     4543        /*I* NAME:  IABS_NODE
     1969     4544            PARAMETERS:
     1970     4545                None.
     1971     4546            INPUT:
     1972     4547                STREAM - VD$STREAM to use; must be open.  It's position at
     1973     4548                    entry is irrelevent and unknown.
     1974     4549                LEVEL - Level to position in.
     1975     4550                FIND_END_BOUND - BIT(1) flag; if %TRUE, find both boundaries
     1976     4551                    of the block operand; if %FALSE, just find the start
     1977     4552                    boundary.
     1978     4553                TOS$EVAL - VD$EVAL whose .RANGE will be set based on
     1979     4554                    its .STATE and other info.
     1980     4555                TOS$EVAL_BOUND - Based VD$LOCATION; must be one of
     1981     4556                    TOS$EVAL.RANGE.START or .ENDD.  This is the primary
     1982     4557                    boundary of the range to be set.
     1983     4558                IT$OPERAND - VD$IT_OPERAND which we are evaluating.  Its
     1984     4559                    .CODE# must be %OPAND_NODE, and its .KEY must be
     1985     4560                    non-%CLEAR.  If .KEY is a string-key and the file uses numeric
     1986     4561                    keys, then .KEY must contain a decimal number in character form
     1987     4562                    (optionally with a fractional part).  If the file uses numeric
     1988     4563                    keys, .KEY's numeric value must have been multiplied
     1989     4564                    by 1000 so that fractional digits are shifted into the
     1990     4565                    integer value.  Note that this is true even for consecutive
     1991     4566                    files, where the keys should not have fractional parts;
     1992     4567                    therefore, this routine must divide consecutive keys by
     1993     4568                    1000 to determine their true value.
     1994     4569                IT_ADJUST - Parent of IT$OPERAND.
     1995     4570                IT$BLOCK_EXPR - Root node of InTree.
     1996     4571                OPERAND - VD$OPERAND whose InTree we're evaluating.
PL6.E3A0      #003=VDE$IADJUST File=VDE$INTERPRET.:VDA5TSI                       FRI 07/04/97 11:11 Page:234
     1997     4572            OUTPUT:
     1998     4573                TOS$EVAL_BOUND, and optionally TOS$EVAL.RANGE.ENDD, will
     1999     4574                    be set as specified by IT$OPERAND.
     2000     4575            DESCRIPTION:
     2001     4576                Given an absolute %OPAND_NODE movement request, fill
     2002     4577                TOS$EVAL.RANGE with specs of the bounds of the specified
     2003     4578                node.
     2004     4579        */
     2005     4580
     2006     4581    1   IABS_NODE: PROC ALTRET;

   4581  1 000530   200044 741300       IABS_NODE    STX1  ! SUBST_FIELD$+1,,AUTO

     2007     4582
     2008     4583
     2009     4584        %VD$RANGE (NAME=NODE_RANGE, STCLASS=AUTO);  /* Doesn't own objects! */
     2010     4653    2   DCL NODE_KEY$ PTR;
     2011     4654        %VD$KEY_NUMBER (NAME=NUMERIC_KEY, STCLASS=AUTO);
     2012     4669    2   DCL POINT_INDEX SBIN;
     2013     4670    2   DCL ORIGINAL_LENGTH SBIN;
     2014     4671    2   DCL SBIN_VALUE SBIN;
     2015     4672        %VD_TEXTC (NAME=FRACT, STCLASS=AUTO, MXNB=%MXNB_EDITKEY_FRACT);
     2016     4813    2   DCL ERR_CODE SBIN;
     2017     4814    2   DCL STREAM_KEY$ PTR;
     2018     4815    2   DCL INDX SBIN;
     2019     4816
     2020     4817
     2021     4818        %VD$TEXTC (NAME=NODE$KEY, STCLASS="BASED(NODE_KEY$)");
     2022     4841        %VD$TEXTC (NAME=STREAM$KEY, STCLASS="BASED(STREAM_KEY$)");
     2023     4864        %VD$KEY_NUMBER;
     2024     4879        %VD$KEY;
     2025     4893
     2026     4894
     2027     4895
     2028     4896                /* First, coerce the key to the appropriate type for the file */
     2029     4897
     2030     4898    2           NUMERIC_KEY = IT$OPERAND.KEY;
PL6.E3A0      #003=VDE$IADJUST File=VDE$INTERPRET.:VDA5TSI                       FRI 07/04/97 11:11 Page:235

   4898  1 000531   200013 470500                    LDP0    IT_MOVEMENT$,,AUTO
         1 000532   000100 100500                    MLR     fill='000'O
         1 000533   000006 000010                    ADSC9   6,,PR0                   cn=0,n=8
         1 000534   200070 000010                    ADSC9   NUMERIC_KEY,,AUTO        cn=0,n=8

     2031     4899    2           NUMERIC_KEY.TYPE# = STREAM.PORT$->VD$PORT.LEVEL.KEY_TYPE# (LEVEL);

   4899  1 000535   200003 471500                    LDP1    @OPERAND,,AUTO
         1 000536   100000 473500                    LDP3    0,,PR1
         1 000537   300001 474500                    LDP4    1,,PR3
         1 000540   200015 236100                    LDQ     LEVEL,,AUTO
         1 000541   000007 402007                    MPY     7,DL
         1 000542   400023 720106                    LXL0    19,QL,PR4
         1 000543   200070 740100                    STX0    NUMERIC_KEY,,AUTO

     2032     4900    2           IF NUMERIC_KEY.TYPE# ~= IT$OPERAND.KEY.TYPE# THEN

   4900  1 000544   000006 100100                    CMPX0   6,,PR0
         1 000545   000767 600000 1                  TZE     s:4979

     2033     4901    3           DO CASE (NUMERIC_KEY.TYPE#);

   4901  1 000546   000004 100003                    CMPX0   4,DU
         1 000547   000551 602010 1                  TNC     s:4901+3,X0
         1 000550   000764 710000 1                  TRA     s:4975
         1 000551   000764 710000 1                  TRA     s:4975
         1 000552   000555 710000 1                  TRA     s:4903
         1 000553   000767 710000 1                  TRA     s:4979
         1 000554   000555 710000 1                  TRA     s:4903

     2034     4902    3            CASE (%KT_NUMBER, %KT_EDITKEY);

     2035     4903    4              IF IT$OPERAND.KEY.TYPE# = %KT_STRING THEN DO;

   4903  1 000555   000006 222100                    LDX2    6,,PR0
         1 000556   000002 102003                    CMPX2   2,DU
PL6.E3A0      #003=VDE$IADJUST File=VDE$INTERPRET.:VDA5TSI                       FRI 07/04/97 11:11 Page:236
         1 000557   000715 601000 1                  TNZ     s:4948

     2036     4904                      /* Convert a string key containing a decimal number to binary */
     2037     4905                      %GETKEY (KEY=IT$OPERAND.KEY, PTR=NODE_KEY$);

   4912  1 000560   000006 723100                    LXL3    6,,PR0
         1 000561   000002 103003                    CMPX3   2,DU
         1 000562   000567 601000 1                  TNZ     s:4912+7

   4912  1 000563   000007 475500                    LDP5    7,,PR0
         1 000564   500002 636500                    EPPR6   2,,PR5
         1 000565   200067 456500                    STP6    NODE_KEY$,,AUTO
         1 000566   000572 710000 1                  TRA     s:4917

   4912  1 000567   200013 236100                    LDQ     IT_MOVEMENT$,,AUTO
         1 000570   000007 036003                    ADLQ    7,DU
         1 000571   200067 756100                    STQ     NODE_KEY$,,AUTO

     2038     4915                      /*N* If X$EVAL supported fixed-place decimal, wouldn't have to
     2039     4916                      *N*   worry about finding the decimal point ourselves *N*/
     2040     4917    4                 CALL INDEX (POINT_INDEX, %CHR_PERIOD, NODE$KEY.BYTES);

   4917  1 000572   200067 473500                    LDP3    NODE_KEY$,,AUTO
         1 000573   300000 236100                    LDQ     0,,PR3
         1 000574   000033 772000                    QRL     27
         1 000575   000000 622006                    EAX2    0,QL
         1 000576   000000 124540                    SCM     mask='000'O
         1 000577   300000 200012                    ADSC9   0,,PR3                   cn=1,n=*X2
         1 000600   000004 000001 2                  ADSC9   4                        cn=0,n=1
         1 000601   200072 000100                    ARG     POINT_INDEX,,AUTO

     2041     4918    4                 ORIGINAL_LENGTH = NODE$KEY.LENGTH#;

   4918  1 000602   200073 756100                    STQ     ORIGINAL_LENGTH,,AUTO

     2042     4919    4                 NODE$KEY.LENGTH# = POINT_INDEX;

PL6.E3A0      #003=VDE$IADJUST File=VDE$INTERPRET.:VDA5TSI                       FRI 07/04/97 11:11 Page:237
   4919  1 000603   200072 236100                    LDQ     POINT_INDEX,,AUTO
         1 000604   000033 736000                    QLS     27
         1 000605   300000 552140                    STBQ    0,'40'O,PR3

     2043     4920    4                 CALL X$DEC_CONVERT (NODE_KEY$, SBIN_VALUE)

   4920  1 000606   200074 633500                    EPPR3   SBIN_VALUE,,AUTO
         1 000607   200133 453500                    STP3    SRC_FOR_ENDD$+2,,AUTO
         1 000610   200067 634500                    EPPR4   NODE_KEY$,,AUTO
         1 000611   200132 454500                    STP4    SRC_FOR_ENDD$+1,,AUTO
         1 000612   200132 630500                    EPPR0   SRC_FOR_ENDD$+1,,AUTO
         1 000613   000020 631400 xsym               EPPR1   B_VECTNIL+16
         1 000614   000000 701000 xent               TSX1    X$DEC_CONVERT
         1 000615   001123 702000 1                  TSX2    DEC_CONVERT_FAILED

     2044     4921    4                   ALTRET (DEC_CONVERT_FAILED);
     2045     4922    4                 IF SBIN_VALUE < 0 THEN GOTO ILL_NUMKEY_INTEGER_FAILURE;

   4922  1 000616   200074 235100                    LDA     SBIN_VALUE,,AUTO
         1 000617   001126 604000 1                  TMI     ILL_NUMKEY_INTEGER_FAILURE

     2046     4923    4                 NODE$KEY.LENGTH# = ORIGINAL_LENGTH;

   4923  1 000620   200067 470500                    LDP0    NODE_KEY$,,AUTO
         1 000621   200073 236100                    LDQ     ORIGINAL_LENGTH,,AUTO
         1 000622   000033 736000                    QLS     27
         1 000623   000000 552140                    STBQ    0,'40'O,PR0

     2047     4924    5                 IF NUMERIC_KEY.TYPE# = %KT_NUMBER THEN DO;

   4924  1 000624   200070 220100                    LDX0    NUMERIC_KEY,,AUTO
         1 000625   000001 100003                    CMPX0   1,DU
         1 000626   000640 601000 1                  TNZ     s:4931

     2048     4925    5                    IF SBIN_VALUE > %MX_CONSEC_RECORDS THEN

   4925  1 000627   200074 235100                    LDA     SBIN_VALUE,,AUTO
PL6.E3A0      #003=VDE$IADJUST File=VDE$INTERPRET.:VDA5TSI                       FRI 07/04/97 11:11 Page:238
         1 000630   000032 115000 xsym               CMPA    B_VECTNIL+26
         1 000631   001137 605400 1                  TPNZ    CONSEC_KEY_TOO_BIG_FAILURE

     2049     4926    5                       GOTO CONSEC_KEY_TOO_BIG_FAILURE;
     2050     4927    5                    IF ORIGINAL_LENGTH > POINT_INDEX THEN

   4927  1 000632   200073 236100                    LDQ     ORIGINAL_LENGTH,,AUTO
         1 000633   200072 116100                    CMPQ    POINT_INDEX,,AUTO
         1 000634   001134 605400 1                  TPNZ    CONSEC_KEY_FRACT_FAILURE

     2051     4928    5                       GOTO CONSEC_KEY_FRACT_FAILURE;
     2052     4929    5                    NUMERIC_KEY.BYTES# = SBIN_VALUE;

   4929  1 000635   200074 236100                    LDQ     SBIN_VALUE,,AUTO
         1 000636   200071 552134                    STBQ    INITIAL_KEY$+1,'34'O,AUTO

     2053     4930    5                    END;

   4930  1 000637   000647 710000 1                  TRA     s:4934

     2054     4931    4                 ELSE IF SBIN_VALUE < %MX_EDITKEY_INTEGER THEN

   4931  1 000640   200074 235100                    LDA     SBIN_VALUE,,AUTO
         1 000641   303237 115007                    CMPA    99999,DL
         1 000642   001126 605000 1                  TPL     ILL_NUMKEY_INTEGER_FAILURE

     2055     4932    4                       NUMERIC_KEY.BYTES# = SBIN_VALUE * 1000;

   4932  1 000643   200074 236100                    LDQ     SBIN_VALUE,,AUTO
         1 000644   001750 402007                    MPY     1000,DL
         1 000645   200071 552134                    STBQ    INITIAL_KEY$+1,'34'O,AUTO
         1 000646   000647 710000 1                  TRA     s:4934

     2056     4933    4                    ELSE GOTO ILL_NUMKEY_INTEGER_FAILURE;
     2057     4934    4                 SBIN_VALUE = ORIGINAL_LENGTH - POINT_INDEX -

   4934  1 000647   200073 236100                    LDQ     ORIGINAL_LENGTH,,AUTO
PL6.E3A0      #003=VDE$IADJUST File=VDE$INTERPRET.:VDA5TSI                       FRI 07/04/97 11:11 Page:239
         1 000650   200072 136100                    SBLQ    POINT_INDEX,,AUTO
         1 000651   000001 136007                    SBLQ    1,DL
         1 000652   200074 756100                    STQ     SBIN_VALUE,,AUTO

     2058     4935    4                   %LENGTHC(CHR_PERIOD);
     2059     4936    5                 IF SBIN_VALUE > 0 THEN DO;

   4936  1 000653   000732 604400 1                  TMOZ    s:4953

     2060     4937    5                    IF SBIN_VALUE > LENGTHC(FRACT.BYTES) THEN

   4937  1 000654   000003 116007                    CMPQ    3,DL
         1 000655   001131 605400 1                  TPNZ    ILL_EDITKEY_FRACT_FAILURE

     2061     4938    5                       GOTO ILL_EDITKEY_FRACT_FAILURE;
     2062     4939    5                    FRACT.LENGTH# = LENGTHC(FRACT.BYTES);

   4939  1 000656   003000 236003                    LDQ     1536,DU
         1 000657   200075 552140                    STBQ    FRACT,'40'O,AUTO

     2063     4940    5                    FRACT.BYTES = '000';

   4940  1 000660   000000 236000 0                  LDQ     0
         1 000661   000011 772000                    QRL     9
         1 000662   200075 552134                    STBQ    FRACT,'34'O,AUTO

     2064     4941    5                    SUBSTR(FRACT.BYTES, 0, SBIN_VALUE) =

   4941  1 000663   200067 470500                    LDP0    NODE_KEY$,,AUTO
         1 000664   000000 236100                    LDQ     0,,PR0
         1 000665   000033 772000                    QRL     27
         1 000666   000000 621006                    EAX1    0,QL
         1 000667   200072 136100                    SBLQ    POINT_INDEX,,AUTO
         1 000670   777777 622006                    EAX2    -1,QL
         1 000671   200072 235100                    LDA     POINT_INDEX,,AUTO
         1 000672   200074 723100                    LXL3    SBIN_VALUE,,AUTO
         1 000673   040140 100545                    MLR     fill='040'O
PL6.E3A0      #003=VDE$IADJUST File=VDE$INTERPRET.:VDA5TSI                       FRI 07/04/97 11:11 Page:240
         1 000674   000000 400012                    ADSC9   0,A,PR0                  cn=2,n=*X2
         1 000675   200075 200013                    ADSC9   FRACT,,AUTO              cn=1,n=*X3

     2065     4942    5                      SUBSTR(NODE$KEY.BYTES, POINT_INDEX + %LENGTHC(CHR_PERIOD));
     2066     4943    5                    CALL X$DEC_CONVERT (ADDR(FRACT), SBIN_VALUE)

   4943  1 000676   200075 631500                    EPPR1   FRACT,,AUTO
         1 000677   200132 451500                    STP1    SRC_FOR_ENDD$+1,,AUTO
         1 000700   200074 633500                    EPPR3   SBIN_VALUE,,AUTO
         1 000701   200135 453500                    STP3    SRC_FOR_ENDD$+4,,AUTO
         1 000702   200132 634500                    EPPR4   SRC_FOR_ENDD$+1,,AUTO
         1 000703   200134 454500                    STP4    SRC_FOR_ENDD$+3,,AUTO
         1 000704   200134 630500                    EPPR0   SRC_FOR_ENDD$+3,,AUTO
         1 000705   000020 631400 xsym               EPPR1   B_VECTNIL+16
         1 000706   000000 701000 xent               TSX1    X$DEC_CONVERT
         1 000707   001123 702000 1                  TSX2    DEC_CONVERT_FAILED

     2067     4944    5                      ALTRET (DEC_CONVERT_FAILED);
     2068     4945    5                    NUMERIC_KEY.BYTES# = NUMERIC_KEY.BYTES# + SBIN_VALUE;

   4945  1 000710   200071 236100                    LDQ     INITIAL_KEY$+1,,AUTO
         1 000711   000032 376000 xsym               ANQ     B_VECTNIL+26
         1 000712   200074 036100                    ADLQ    SBIN_VALUE,,AUTO
         1 000713   200071 552134                    STBQ    INITIAL_KEY$+1,'34'O,AUTO

     2069     4946    5                    END;

     2070     4947    4                 END;

   4947  1 000714   000732 710000 1                  TRA     s:4953

     2071     4948    3              ELSE IF NUMERIC_KEY.TYPE# = %KT_EDITKEY THEN

   4948  1 000715   000003 100003                    CMPX0   3,DU
         1 000716   001126 600000 1                  TZE     ILL_NUMKEY_INTEGER_FAILURE

     2072     4949    3                    GOTO ILL_NUMKEY_INTEGER_FAILURE;
PL6.E3A0      #003=VDE$IADJUST File=VDE$INTERPRET.:VDA5TSI                       FRI 07/04/97 11:11 Page:241
     2073     4950    3                 ELSE IF NUMERIC_KEY.BYTES# ~= NUMERIC_KEY.BYTES#/1000 * 1000 THEN

   4950  1 000717   200071 236100                    LDQ     INITIAL_KEY$+1,,AUTO
         1 000720   000032 376000 xsym               ANQ     B_VECTNIL+26
         1 000721   001750 506007                    DIV     1000,DL
         1 000722   001750 402007                    MPY     1000,DL
         1 000723   200132 756100                    STQ     SRC_FOR_ENDD$+1,,AUTO
         1 000724   200071 236100                    LDQ     INITIAL_KEY$+1,,AUTO
         1 000725   000032 376000 xsym               ANQ     B_VECTNIL+26
         1 000726   200132 116100                    CMPQ    SRC_FOR_ENDD$+1,,AUTO
         1 000727   001134 601000 1                  TNZ     CONSEC_KEY_FRACT_FAILURE

     2074     4951    3                       GOTO CONSEC_KEY_FRACT_FAILURE;
     2075     4952    3                    ELSE NUMERIC_KEY.BYTES# = NUMERIC_KEY.BYTES#/1000;

   4952  1 000730   001750 506007                    DIV     1000,DL
         1 000731   200071 552134                    STBQ    INITIAL_KEY$+1,'34'O,AUTO

     2076     4953    3              NODE_KEY$ = ADDR(NIL);

   4953  1 000732   000001 236000 xsym               LDQ     B_VECTNIL+1
         1 000733   200067 756100                    STQ     NODE_KEY$,,AUTO

     2077     4954                   %CLEARKEY (KEY=IT$OPERAND.KEY);

   4961  1 000734   200013 470500                    LDP0    IT_MOVEMENT$,,AUTO
         1 000735   000006 720100                    LXL0    6,,PR0
         1 000736   000002 100003                    CMPX0   2,DU
         1 000737   000751 601000 1                  TNZ     s:4962+2

   4961  1 000740   000007 471500                    LDP1    7,,PR0
         1 000741   200132 451500                    STP1    SRC_FOR_ENDD$+1,,AUTO
         1 000742   200132 630500                    EPPR0   SRC_FOR_ENDD$+1,,AUTO
         1 000743   000017 631400 xsym               EPPR1   B_VECTNIL+15
         1 000744   000000 701000 xent               TSX1    VDG$OFREE
         1 000745   000747 702000 1                  TSX2    s:4962
         1 000746   000751 710000 1                  TRA     s:4962+2
PL6.E3A0      #003=VDE$IADJUST File=VDE$INTERPRET.:VDA5TSI                       FRI 07/04/97 11:11 Page:242

   4962  1 000747   200044 221300                    LDX1  ! SUBST_FIELD$+1,,AUTO
         1 000750   000000 702211                    TSX2  ! 0,X1

   4962  1 000751   200013 470500                    LDP0    IT_MOVEMENT$,,AUTO
         1 000752   000006 450100                    STZ     6,,PR0
         1 000753   000007 450100                    STZ     7,,PR0

     2078     4964    3              NUMERIC_KEY.REP# = %REP_LOCAL;

   4964  1 000754   000001 220003                    LDX0    1,DU
         1 000755   200070 440100                    SXL0    NUMERIC_KEY,,AUTO

     2079     4965    3              NUMERIC_KEY.LENGTH# = %NB_NUMERIC_KEY;

   4965  1 000756   003000 236003                    LDQ     1536,DU
         1 000757   200071 552140                    STBQ    INITIAL_KEY$+1,'40'O,AUTO

     2080     4966    3              IT$OPERAND.KEY = NUMERIC_KEY;

   4966  1 000760   200070 237100                    LDAQ    NUMERIC_KEY,,AUTO
         1 000761   000006 755100                    STA     6,,PR0
         1 000762   000007 756100                    STQ     7,,PR0
         1 000763   000767 710000 1                  TRA     s:4979

     2081     4967
     2082     4968    3            CASE (%KT_STRING);

     2083     4969        /*N*       Someday, may handle string-keyed files.
     2084     4970        *N*        IF IT$OPERAND.KEY.TYPE# = %KT_NUMBER THEN DO;
     2085     4971        *N*           \* Convert a binary key to a decimal character string *\
     2086     4972        *N*           END;          *N*/
     2087     4973
     2088     4974    3            CASE (ELSE);

     2089     4975    3              CALL VDG$ESCREECH;

PL6.E3A0      #003=VDE$IADJUST File=VDE$INTERPRET.:VDA5TSI                       FRI 07/04/97 11:11 Page:243
   4975  1 000764   000002 631400 xsym               EPPR1   B_VECTNIL+2
         1 000765   000000 701000 xent               TSX1    VDG$ESCREECH
         1 000766   000000 011000                    NOP     0

     2090     4976    3            END;

     2091     4977
     2092     4978
     2093     4979    2           NODE_RANGE = %CLEAR;

   4979  1 000767   000100 100400                    MLR     fill='000'O
         1 000770   000002 000001 xsym               ADSC9   B_VECTNIL+2              cn=0,n=1
         1 000771   200045 000110                    ADSC9   NODE_RANGE,,AUTO         cn=0,n=72

     2094     4980                /* NOTE:  NODE_RANGE never owns any objects itself */
     2095     4981    2           NODE_RANGE.START = TOS$EVAL.RANGE.START;

   4981  1 000772   200007 470500                    LDP0    TOS_EVAL$,,AUTO
         1 000773   000100 100500                    MLR     fill='000'O
         1 000774   000024 000044                    ADSC9   20,,PR0                  cn=0,n=36
         1 000775   200045 000044                    ADSC9   NODE_RANGE,,AUTO         cn=0,n=36

     2096     4982    2           NODE_RANGE.START.POSITION# = 0;

   4982  1 000776   000000 220003                    LDX0    0,DU
         1 000777   200055 740100                    STX0    NODE_RANGE+8,,AUTO

     2097     4983    2           NODE_RANGE.START.EOF = %FALSE;

   4983  1 001000   000005 236000 2                  LDQ     5
         1 001001   200055 356100                    ANSQ    NODE_RANGE+8,,AUTO

     2098     4984    2           NODE_RANGE.START.KEY (LEVEL-1) = IT$OPERAND.KEY;

   4984  1 001002   200015 235100                    LDA     LEVEL,,AUTO
         1 001003   000001 735000                    ALS     1
         1 001004   000002 735000                    ALS     2
PL6.E3A0      #003=VDE$IADJUST File=VDE$INTERPRET.:VDA5TSI                       FRI 07/04/97 11:11 Page:244
         1 001005   200013 471500                    LDP1    IT_MOVEMENT$,,AUTO
         1 001006   000105 100500                    MLR     fill='000'O
         1 001007   100006 000010                    ADSC9   6,,PR1                   cn=0,n=8
         1 001010   200043 000010                    ADSC9   SUBST_FIELD$,A,AUTO      cn=0,n=8

     2099     4985
     2100     4986                /* Assume key doesn't exist */
     2101     4987    2           NODE_RANGE.ENDD = NODE_RANGE.START;

   4987  1 001011   000100 100500                    MLR     fill='000'O
         1 001012   200045 000044                    ADSC9   NODE_RANGE,,AUTO         cn=0,n=36
         1 001013   200056 000044                    ADSC9   NODE_RANGE+9,,AUTO       cn=0,n=36

     2102     4988
     2103     4989    2           IF FIND_END_BOUND THEN

   4989  1 001014   200016 234100                    SZN     FIND_END_BOUND,,AUTO
         1 001015   001115 605000 1                  TPL     s:5026

     2104     4990    3   FIND_EO_NODE: DO;

   4990  1 001016                       FIND_EO_NODE null
     2105     4991                   /* We need to find the end location of the node */
     2106     4992    3              CALL VDA$LREAD (STREAM, NODE_RANGE.START, 0, %FIND)

   4992  1 001016   200003 473500                    LDP3    @OPERAND,,AUTO
         1 001017   300000 474500                    LDP4    0,,PR3
         1 001020   000000 237000 2                  LDAQ    0
         1 001021   200134 757100                    STAQ    SRC_FOR_ENDD$+3,,AUTO
         1 001022   200045 635500                    EPPR5   NODE_RANGE,,AUTO
         1 001023   200133 455500                    STP5    SRC_FOR_ENDD$+2,,AUTO
         1 001024   200132 454500                    STP4    SRC_FOR_ENDD$+1,,AUTO
         1 001025   200132 630500                    EPPR0   SRC_FOR_ENDD$+1,,AUTO
         1 001026   000022 631400 xsym               EPPR1   B_VECTNIL+18
         1 001027   000000 701000 xent               TSX1    VDA$LREAD
         1 001030   001254 702000 1                  TSX2    LREAD_FAILED

PL6.E3A0      #003=VDE$IADJUST File=VDE$INTERPRET.:VDA5TSI                       FRI 07/04/97 11:11 Page:245
     2107     4993    3                ALTRET (LREAD_FAILED);
     2108     4994    4              IF NOT STREAM.CURRENT.EOF THEN DO;

   4994  1 001031   200003 470500                    LDP0    @OPERAND,,AUTO
         1 001032   000000 471500                    LDP1    0,,PR0
         1 001033   100016 236100                    LDQ     14,,PR1
         1 001034   400000 316007                    CANQ    -131072,DL
         1 001035   001115 601000 1                  TNZ     s:5026

     2109     4995                      %GETKEY (KEY=NODE_RANGE.START.KEY, INDX=LEVEL-1,
     2110     4996                      PTR=NODE_KEY$);

   5003  1 001036   200015 235100                    LDA     LEVEL,,AUTO
         1 001037   000001 735000                    ALS     1
         1 001040   200043 720105                    LXL0    SUBST_FIELD$,AL,AUTO
         1 001041   000002 100003                    CMPX0   2,DU
         1 001042   001047 601000 1                  TNZ     s:5003+9

   5003  1 001043   200044 473505                    LDP3    SUBST_FIELD$+1,AL,AUTO
         1 001044   300002 634500                    EPPR4   2,,PR3
         1 001045   200067 454500                    STP4    NODE_KEY$,,AUTO
         1 001046   001051 710000 1                  TRA     s:5014

   5003  1 001047   200044 633505                    EPPR3   SUBST_FIELD$+1,AL,AUTO
         1 001050   200067 453500                    STP3    NODE_KEY$,,AUTO

     2111     5006                      %GETKEY (KEY=STREAM.CURRENT.KEY, INDX=LEVEL-1,
     2112     5007                      PTR=STREAM_KEY$);

   5014  1 001051   000000 471500                    LDP1    0,,PR0
         1 001052   100004 720105                    LXL0    4,AL,PR1
         1 001053   000002 100003                    CMPX0   2,DU
         1 001054   001061 601000 1                  TNZ     s:5014+8

   5014  1 001055   100005 473505                    LDP3    5,AL,PR1
         1 001056   300002 634500                    EPPR4   2,,PR3
         1 001057   200077 454500                    STP4    STREAM_KEY$,,AUTO
PL6.E3A0      #003=VDE$IADJUST File=VDE$INTERPRET.:VDA5TSI                       FRI 07/04/97 11:11 Page:246
         1 001060   001063 710000 1                  TRA     s:5017

   5014  1 001061   100005 633505                    EPPR3   5,AL,PR1
         1 001062   200077 453500                    STP3    STREAM_KEY$,,AUTO

     2113     5017    5                 IF NODE$KEY.BYTES = STREAM$KEY.BYTES THEN DO;

   5017  1 001063   200067 473500                    LDP3    NODE_KEY$,,AUTO
         1 001064   300000 236100                    LDQ     0,,PR3
         1 001065   000033 772000                    QRL     27
         1 001066   200077 474500                    LDP4    STREAM_KEY$,,AUTO
         1 001067   000000 621006                    EAX1    0,QL
         1 001070   400000 236100                    LDQ     0,,PR4
         1 001071   000033 772000                    QRL     27
         1 001072   000000 622006                    EAX2    0,QL
         1 001073   040140 106540                    CMPC    fill='040'O
         1 001074   300000 200011                    ADSC9   0,,PR3                   cn=1,n=*X1
         1 001075   400000 200012                    ADSC9   0,,PR4                   cn=1,n=*X2
         1 001076   001115 601000 1                  TNZ     s:5026

     2114     5018                         /* <key> exists:  find key of next existing node */
     2115     5019    5                    CALL VDA$LREAD (STREAM, , 1, %FIND)

   5019  1 001077   000002 237000 2                  LDAQ    2
         1 001100   200134 757100                    STAQ    SRC_FOR_ENDD$+3,,AUTO
         1 001101   000001 236000 xsym               LDQ     B_VECTNIL+1
         1 001102   200133 756100                    STQ     SRC_FOR_ENDD$+2,,AUTO
         1 001103   200132 451500                    STP1    SRC_FOR_ENDD$+1,,AUTO
         1 001104   200132 630500                    EPPR0   SRC_FOR_ENDD$+1,,AUTO
         1 001105   000022 631400 xsym               EPPR1   B_VECTNIL+18
         1 001106   000000 701000 xent               TSX1    VDA$LREAD
         1 001107   001254 702000 1                  TSX2    LREAD_FAILED

     2116     5020    5                      ALTRET (LREAD_FAILED);
     2117     5021    5                    NODE_RANGE.ENDD = STREAM.CURRENT;

   5021  1 001110   200003 470500                    LDP0    @OPERAND,,AUTO
PL6.E3A0      #003=VDE$IADJUST File=VDE$INTERPRET.:VDA5TSI                       FRI 07/04/97 11:11 Page:247
         1 001111   000000 471500                    LDP1    0,,PR0
         1 001112   000100 100500                    MLR     fill='000'O
         1 001113   100006 000044                    ADSC9   6,,PR1                   cn=0,n=36
         1 001114   200056 000044                    ADSC9   NODE_RANGE+9,,AUTO       cn=0,n=36

     2118     5022    5                    END;

     2119     5023    4                 END;

     2120     5024    3              END FIND_EO_NODE;

     2121     5025
     2122     5026    2           CALL LOAD_EVAL_FROM_RANGE (NODE_RANGE)

   5026  1 001115   200045 630500                    EPPR0   NODE_RANGE,,AUTO
         1 001116   200105 450500                    STP0    STREAM_KEY$+3,,AUTO
         1 001117   001551 701000 1                  TSX1    LOAD_EVAL_FROM_RANGE
         1 001120   001254 702000 1                  TSX2    LREAD_FAILED

     2123     5027    2             ALTRET (LOAD_EVAL_FROM_RANGE_FAILED);
     2124     5028
     2125     5029    2           RETURN;

   5029  1 001121   200044 221300                    LDX1  ! SUBST_FIELD$+1,,AUTO
         1 001122   000001 702211                    TSX2  ! 1,X1

     2126     5030
     2127     5031
     2128     5032
     2129     5033    2   DEC_CONVERT_FAILED:
     2130     5034    2           ERR_CODE = %E$DECIMAL_NOT_LEGAL;

   5034  1 001123   000073 235007       DEC_CONVERT* LDA     59,DL
         1 001124   200076 755100                    STA     ERR_CODE,,AUTO

     2131     5035    2           GOTO STRING_KEY_ERROR;

PL6.E3A0      #003=VDE$IADJUST File=VDE$INTERPRET.:VDA5TSI                       FRI 07/04/97 11:11 Page:248
   5035  1 001125   001141 710000 1                  TRA     STRING_KEY_ERROR

     2132     5036
     2133     5037    2   ILL_NUMKEY_INTEGER_FAILURE:
     2134     5038    2           ERR_CODE = %E$NUMKEY_INTEGER_NOT_LEGAL;

   5038  1 001126   000076 235007       ILL_NUMKEY_* LDA     62,DL
         1 001127   200076 755100                    STA     ERR_CODE,,AUTO

     2135     5039    2           GOTO STRING_KEY_ERROR;

   5039  1 001130   001141 710000 1                  TRA     STRING_KEY_ERROR

     2136     5040
     2137     5041    2   ILL_EDITKEY_FRACT_FAILURE:
     2138     5042    2           ERR_CODE = %E$EDITKEY_FRACT_NOT_LEGAL;

   5042  1 001131   000075 235007       ILL_EDITKEY* LDA     61,DL
         1 001132   200076 755100                    STA     ERR_CODE,,AUTO

     2139     5043    2           GOTO STRING_KEY_ERROR;

   5043  1 001133   001141 710000 1                  TRA     STRING_KEY_ERROR

     2140     5044
     2141     5045    2   CONSEC_KEY_FRACT_FAILURE:
     2142     5046    2           ERR_CODE = %E$CONSEC_KEY_FRACT_NOT_LEGAL;

   5046  1 001134   000074 235007       CONSEC_KEY_* LDA     60,DL
         1 001135   200076 755100                    STA     ERR_CODE,,AUTO

     2143     5047    2           GOTO STRING_KEY_ERROR;

   5047  1 001136   001141 710000 1                  TRA     STRING_KEY_ERROR

   5034  1 001137                       CONSEC_KEY_* null
     2144     5048
PL6.E3A0      #003=VDE$IADJUST File=VDE$INTERPRET.:VDA5TSI                       FRI 07/04/97 11:11 Page:249
     2145     5049    2   CONSEC_KEY_TOO_BIG_FAILURE: ;
     2146     5050    2           ERR_CODE = %E$CONSEC_KEY_TOO_BIG;

   5050  1 001137   000425 236007                    LDQ     277,DL
         1 001140   200076 756100                    STQ     ERR_CODE,,AUTO

     2147     5051
     2148     5052    2   STRING_KEY_ERROR:
     2149     5053    2           CALL VDG$OALLOC (%CLS_ERR, VD_ERR$)

   5053  1 001141   200042 630500       STRING_KEY_* EPPR0   VD_ERR$,,AUTO
         1 001142   200133 450500                    STP0    SRC_FOR_ENDD$+2,,AUTO
         1 001143   000006 236000 2                  LDQ     6
         1 001144   200132 756100                    STQ     SRC_FOR_ENDD$+1,,AUTO
         1 001145   200132 630500                    EPPR0   SRC_FOR_ENDD$+1,,AUTO
         1 001146   000020 631400 xsym               EPPR1   B_VECTNIL+16
         1 001147   000000 701000 xent               TSX1    VDG$OALLOC
         1 001150   001254 702000 1                  TSX2    LREAD_FAILED

     2150     5054    2             ALTRET (OALLOC_FAILED);
     2151     5055    2           VD$ERR.ERR.CODE# = ERR_CODE;

   5055  1 001151   200042 470500                    LDP0    VD_ERR$,,AUTO
         1 001152   200076 236100                    LDQ     ERR_CODE,,AUTO
         1 001153   000003 736000                    QLS     3
         1 001154   000002 676100                    ERQ     2,,PR0
         1 001155   377770 376007                    ANQ     131064,DL
         1 001156   000002 656100                    ERSQ    2,,PR0

     2152     5056    2           VD$ERR.FLAGLEV# = %FLV_SERIOUS;

   5056  1 001157   000003 220003                    LDX0    3,DU
         1 001160   200042 470500                    LDP0    VD_ERR$,,AUTO
         1 001161   000003 740100                    STX0    3,,PR0

     2153     5057
     2154     5058    2           SUBST_FIELD$ = PINCRW(VD_ERR$, SIZEW(VD$ERR));
PL6.E3A0      #003=VDE$IADJUST File=VDE$INTERPRET.:VDA5TSI                       FRI 07/04/97 11:11 Page:250

   5058  1 001162   200042 236100                    LDQ     VD_ERR$,,AUTO
         1 001163   000005 036003                    ADLQ    5,DU
         1 001164   200043 756100                    STQ     SUBST_FIELD$,,AUTO

     2155     5059    2           INDX = 0;

   5059  1 001165   200100 450100                    STZ     INDX,,AUTO

     2156     5060    3           DO WHILE INDX < %MX_CMD_OBJECTS

   5060  1 001166   001170 710000 1                  TRA     s:5063

     2157     5061    3             AND VD_CMD_OBJECTS$ (INDX) ~= ADDR(NIL);
     2158     5062    3              INDX = INDX + 1;

   5062  1 001167   200100 054100                    AOS     INDX,,AUTO

     2159     5063    3              END;

   5063  1 001170   200100 235100                    LDA     INDX,,AUTO
         1 001171   000062 115007                    CMPA    50,DL
         1 001172   001176 605000 1                  TPL     s:5064
         1 001173   000000 236005 xsym               LDQ     VD_CMD_OBJECTS$,AL
         1 001174   000001 116000 xsym               CMPQ    B_VECTNIL+1
         1 001175   001167 601000 1                  TNZ     s:5062

     2160     5064    2           IF INDX >= %MX_CMD_OBJECTS THEN

   5064  1 001176   200100 235100                    LDA     INDX,,AUTO
         1 001177   000062 115007                    CMPA    50,DL
         1 001200   001207 604000 1                  TMI     s:5066

     2161     5065    2              CALL VDG$ESCREECH (INDX);

   5065  1 001201   200100 630500                    EPPR0   INDX,,AUTO
         1 001202   200132 450500                    STP0    SRC_FOR_ENDD$+1,,AUTO
PL6.E3A0      #003=VDE$IADJUST File=VDE$INTERPRET.:VDA5TSI                       FRI 07/04/97 11:11 Page:251
         1 001203   200132 630500                    EPPR0   SRC_FOR_ENDD$+1,,AUTO
         1 001204   000017 631400 xsym               EPPR1   B_VECTNIL+15
         1 001205   000000 701000 xent               TSX1    VDG$ESCREECH
         1 001206   000000 011000                    NOP     0

     2162     5066    2           CALL VDG$OALLOC (%CLS_TEXTC_REMOTE, VD_CMD_OBJECTS$ (INDX),

   5066  1 001207   000010 236000 2                  LDQ     8
         1 001210   200134 756100                    STQ     SRC_FOR_ENDD$+3,,AUTO
         1 001211   200100 720100                    LXL0    INDX,,AUTO
         1 001212   000000 630410 xsym               EPPR0   VD_CMD_OBJECTS$,X0
         1 001213   200133 450500                    STP0    SRC_FOR_ENDD$+2,,AUTO
         1 001214   000011 236000 2                  LDQ     9
         1 001215   200132 756100                    STQ     SRC_FOR_ENDD$+1,,AUTO
         1 001216   200132 630500                    EPPR0   SRC_FOR_ENDD$+1,,AUTO
         1 001217   000021 631400 xsym               EPPR1   B_VECTNIL+17
         1 001220   000000 701000 xent               TSX1    VDG$OALLOC
         1 001221   001254 702000 1                  TSX2    LREAD_FAILED

     2163     5067    2             (LENGTHC(VD$STRING_HEADER) + LENGTHC(VD$KEY) + %NB_PER_WORD-3) /
     2164     5068    2             %NB_PER_WORD)
     2165     5069    2             ALTRET (OALLOC_FAILED);
     2166     5070    2           SUBST$POINTER.V$ (0) =

   5070  1 001222   200100 720100                    LXL0    INDX,,AUTO
         1 001223   000000 470410 xsym               LDP0    VD_CMD_OBJECTS$,X0
         1 001224   000002 631500                    EPPR1   2,,PR0
         1 001225   200043 473500                    LDP3    SUBST_FIELD$,,AUTO
         1 001226   300003 451500                    STP1    3,,PR3

     2167     5071    2             ADDR (VD_CMD_OBJECTS$ (INDX) -> VD$TEXTC_REMOTE.LENGTH#);
     2168     5072    2           SUBST$POINTER.OBJECT.CLASS# (0) = %CLS_PTR_KEY;

   5072  1 001227   000043 220003                    LDX0    35,DU
         1 001230   300000 740100                    STX0    0,,PR3

     2169     5073                %COPYKEY (FKEY = IT$OPERAND.KEY,
PL6.E3A0      #003=VDE$IADJUST File=VDE$INTERPRET.:VDA5TSI                       FRI 07/04/97 11:11 Page:252
     2170     5074                TKEY = "SUBST$POINTER.V$ (0) -> VD$KEY");

   5087  1 001231   200013 470500                    LDP0    IT_MOVEMENT$,,AUTO
         1 001232   000100 100500                    MLR     fill='000'O
         1 001233   000006 000010                    ADSC9   6,,PR0                   cn=0,n=8
         1 001234   100000 000010                    ADSC9   0,,PR1                   cn=0,n=8

   5087  1 001235   000006 721100                    LXL1    6,,PR0
         1 001236   000002 101003                    CMPX1   2,DU
         1 001237   001254 601000 1                  TNZ     LREAD_FAILED

   5087  1 001240   000007 471500                    LDP1    7,,PR0
         1 001241   300003 474500                    LDP4    3,,PR3
         1 001242   400001 635500                    EPPR5   1,,PR4
         1 001243   200133 455500                    STP5    SRC_FOR_ENDD$+2,,AUTO
         1 001244   200132 451500                    STP1    SRC_FOR_ENDD$+1,,AUTO
         1 001245   200132 630500                    EPPR0   SRC_FOR_ENDD$+1,,AUTO
         1 001246   000020 631400 xsym               EPPR1   B_VECTNIL+16
         1 001247   000000 701000 xent               TSX1    VDG$OCOPY
         1 001250   001252 702000 1                  TSX2    s:5088
         1 001251   001254 710000 1                  TRA     LREAD_FAILED

   5088  1 001252   200044 221300                    LDX1  ! SUBST_FIELD$+1,,AUTO
         1 001253   000000 702211                    TSX2  ! 0,X1

   5087  1 001254                       LREAD_FAILED null
   5087  1 001254                       LOAD_EVAL_F* null
   5087  1 001254                       OALLOC_FAIL* null
     2171     5090
     2172     5091
     2173     5092    2   LREAD_FAILED: ;
     2174     5093    2   LOAD_EVAL_FROM_RANGE_FAILED: ;
     2175     5094    2   OALLOC_FAILED: ;
     2176     5095    2           ALTRETURN;

   5095  1 001254   200044 221300                    LDX1  ! SUBST_FIELD$+1,,AUTO
         1 001255   000000 702211                    TSX2  ! 0,X1
PL6.E3A0      #003=VDE$IADJUST File=VDE$INTERPRET.:VDA5TSI                       FRI 07/04/97 11:11 Page:253

     2177     5096
     2178     5097    2   END IABS_NODE;
     2179     5098
     2180     5099                %BOX (TITLE="IREL_POSITION", PAGE=YES);
              5107    2
              5111    2   /***************************************************************************
              5113    2    *                                                                         *
              5117    2            *                               IREL_POSITION                            *
              5119    2            *                                                                        *
              5121    2          ***************************************************************************/

     2181     5125
     2182     5126        /*I* NAME: IREL_POSITION
     2183     5127            PARAMETERS:
     2184     5128                None.
     2185     5129            INPUT:
     2186     5130                STREAM - VD$STREAM to use; must be open.  It's position at
     2187     5131                    entry is irrelevent and unknown.
     2188     5132                LEVEL - Level to position in.  Must be the lowest level of the
     2189     5133                    file structure.
     2190     5134                FIND_END_BOUND - BIT(1) flag; if %TRUE, find both boundaries
     2191     5135                    of the block operand; if %FALSE, just find the start
     2192     5136                    boundary.
     2193     5137                TOS$EVAL - VD$EVAL whose .RANGE will be set based on
     2194     5138                    its .STATE and other info.
     2195     5139                TOS$EVAL.ENCLOSING - Enclosing range for this relative operand.
     2196     5140                TOS$EVAL_RELATIVE_TO - Based VD$LOCATION; must be one of
     2197     5141                    TOS$EVAL.RANGE.START or .ENDD.  This is the initial
     2198     5142                    location for relative movement.
     2199     5143                TOS$EVAL_BOUND - Based VD$LOCATION; must be one of
     2200     5144                    TOS$EVAL.RANGE.START or .ENDD.  This is the primary boundary
     2201     5145                    of the range to be set.
     2202     5146                IT$OPERAND - VD$IT_OPERAND which we are evaluating.  Its
     2203     5147                    .CODE# must be %OPAND_POSITION, and its .KEY must be
     2204     5148                    %CLEAR.
     2205     5149                IT_ADJUST - Parent of IT$OPERAND.
PL6.E3A0      #003=VDE$IADJUST File=VDE$INTERPRET.:VDA5TSI                       FRI 07/04/97 11:11 Page:254
     2206     5150                IT$BLOCK_EXPR - Root node of InTree.
     2207     5151                OPERAND - VD$OPERAND whose InTree we're evaluating.
     2208     5152            OUTPUT:
     2209     5153                TOS$EVAL_BOUND, and optionally TOS$EVAL.RANGE.ENDD, will
     2210     5154                    be set as specified by IT$OPERAND.
     2211     5155                SIGNAL will contain %FALSE if we tried to go beyond BOF
     2212     5156                    or EOF or TOS$EVAL.ENCLOSING while moving; %TRUE otherwise.
     2213     5157            DESCRIPTION:
     2214     5158                Call VDE$IMOVE_BY_POSITIONS to perform the move, setting
     2215     5159                    NODE_RANGE.START.POSITION# to the found location.  If we
     2216     5160                    need to find the end of the operand, its simply
     2217     5161                    one position to the right of the found position.
     2218     5162                    NOTE:  This is true even if the found position
     2219     5163                        doesn't exist or is the last position of the
     2220     5164                        node.  The effect of this is to never allow
     2221     5165                        a POSITION operand to cover the end-of-record
     2222     5166                        boundary (which it would do if the start of the
     2223     5167                        POSITION operand were on one node and the end
     2224     5168                        of the operand on the next node!).
     2225     5169                If we found the operand successfully, load TOS$EVAL.RANGE
     2226     5170                    from the operand's range.
     2227     5171        */
     2228     5172
     2229     5173    1   IREL_POSITION: PROC ALTRET;

   5173  1 001256   200044 741300       IREL_POSITI* STX1  ! SUBST_FIELD$+1,,AUTO

     2230     5174
     2231     5175
     2232     5176        /* NODE_RANGE.START does own objects; but NODE_RANGE.ENDD doesn't!!! */
     2233     5177        %VD$RANGE (NAME=NODE_RANGE, STCLASS=AUTO);
     2234     5246    2   DCL SKIP_COUNT SBIN;
     2235     5247    2   DCL MX_RECORDS SBIN;
     2236     5248
     2237     5249
     2238     5250
     2239     5251    2           SIGNAL = %TRUE;
PL6.E3A0      #003=VDE$IADJUST File=VDE$INTERPRET.:VDA5TSI                       FRI 07/04/97 11:11 Page:255

   5251  1 001257   400000 236003                    LDQ     -131072,DU
         1 001260   200005 470500                    LDP0    @SIGNAL,,AUTO
         1 001261   000000 756100                    STQ     0,,PR0

     2240     5252    2           CALL VDG$OCOPY_LOCATION (TOS$EVAL_RELATIVE_TO, NODE_RANGE.START)

   5252  1 001262   200045 631500                    EPPR1   NODE_RANGE,,AUTO
         1 001263   200133 451500                    STP1    SRC_FOR_ENDD$+2,,AUTO
         1 001264   200012 236100                    LDQ     TOS_EVAL_RELATIVE_TO$,,AUTO
         1 001265   200132 756100                    STQ     SRC_FOR_ENDD$+1,,AUTO
         1 001266   200132 630500                    EPPR0   SRC_FOR_ENDD$+1,,AUTO
         1 001267   000020 631400 xsym               EPPR1   B_VECTNIL+16
         1 001270   000000 701000 xent               TSX1    VDG$OCOPY_LOCATION
         1 001271   001360 702000 1                  TSX2    IMOVE_BY_POSITIONS_FAILED

     2241     5253    2             ALTRET (OCOPY_LOCATION_FAILED);
     2242     5254    2           NODE_RANGE.ENDD = %CLEAR;   /* For now */

   5254  1 001272   000100 100400                    MLR     fill='000'O
         1 001273   000002 000001 xsym               ADSC9   B_VECTNIL+2              cn=0,n=1
         1 001274   200056 000044                    ADSC9   NODE_RANGE+9,,AUTO       cn=0,n=36

     2243     5255    2           SKIP_COUNT = IT$OPERAND.OPTIONS.SKIP#;

   5255  1 001275   200013 470500                    LDP0    IT_MOVEMENT$,,AUTO
         1 001276   000004 236100                    LDQ     4,,PR0
         1 001277   000022 736000                    QLS     18
         1 001300   000022 732000                    QRS     18
         1 001301   200067 756100                    STQ     SKIP_COUNT,,AUTO

     2244     5256    2           MX_RECORDS = %INFINITY;     /* No limit on # records to skip */

   5256  1 001302   000031 235000 xsym               LDA     B_VECTNIL+25
         1 001303   200070 755100                    STA     MX_RECORDS,,AUTO

     2245     5257
PL6.E3A0      #003=VDE$IADJUST File=VDE$INTERPRET.:VDA5TSI                       FRI 07/04/97 11:11 Page:256
     2246     5258    2           CALL VDE$IMOVE_BY_POSITIONS (STREAM, NODE_RANGE.START,

   5258  1 001304   200003 471500                    LDP1    @OPERAND,,AUTO
         1 001305   100000 473500                    LDP3    0,,PR1
         1 001306   200005 236100                    LDQ     @SIGNAL,,AUTO
         1 001307   200140 756100                    STQ     SRC_FOR_ENDD$+7,,AUTO
         1 001310   200067 634500                    EPPR4   SKIP_COUNT,,AUTO
         1 001311   200137 454500                    STP4    SRC_FOR_ENDD$+6,,AUTO
         1 001312   200013 236100                    LDQ     IT_MOVEMENT$,,AUTO
         1 001313   000012 036000 2                  ADLQ    10
         1 001314   200136 756100                    STQ     SRC_FOR_ENDD$+5,,AUTO
         1 001315   200070 635500                    EPPR5   MX_RECORDS,,AUTO
         1 001316   200135 455500                    STP5    SRC_FOR_ENDD$+4,,AUTO
         1 001317   200007 236100                    LDQ     TOS_EVAL$,,AUTO
         1 001320   000002 036003                    ADLQ    2,DU
         1 001321   200134 756100                    STQ     SRC_FOR_ENDD$+3,,AUTO
         1 001322   200045 636500                    EPPR6   NODE_RANGE,,AUTO
         1 001323   200133 456500                    STP6    SRC_FOR_ENDD$+2,,AUTO
         1 001324   200132 453500                    STP3    SRC_FOR_ENDD$+1,,AUTO
         1 001325   200132 630500                    EPPR0   SRC_FOR_ENDD$+1,,AUTO
         1 001326   000025 631400 xsym               EPPR1   B_VECTNIL+21
         1 001327   000000 701000 xent               TSX1    VDE$IMOVE_BY_POSITIONS
         1 001330   001360 702000 1                  TSX2    IMOVE_BY_POSITIONS_FAILED

     2247     5259    2             TOS$EVAL.ENCLOSING, MX_RECORDS, IT$OPERAND.OPTIONS.DIRECTION#,
     2248     5260    2             SKIP_COUNT, SIGNAL)
     2249     5261    2             ALTRET (IMOVE_BY_POSITIONS_FAILED);
     2250     5262
     2251     5263    3           IF SIGNAL THEN DO;

   5263  1 001331   200005 470500                    LDP0    @SIGNAL,,AUTO
         1 001332   000000 234100                    SZN     0,,PR0
         1 001333   001350 605000 1                  TPL     s:5272

     2252     5264    4              IF FIND_END_BOUND THEN DO;

   5264  1 001334   200016 234100                    SZN     FIND_END_BOUND,,AUTO
PL6.E3A0      #003=VDE$IADJUST File=VDE$INTERPRET.:VDA5TSI                       FRI 07/04/97 11:11 Page:257
         1 001335   001344 605000 1                  TPL     s:5268

     2253     5265    4                 NODE_RANGE.ENDD = NODE_RANGE.START;

   5265  1 001336   000100 100500                    MLR     fill='000'O
         1 001337   200045 000044                    ADSC9   NODE_RANGE,,AUTO         cn=0,n=36
         1 001340   200056 000044                    ADSC9   NODE_RANGE+9,,AUTO       cn=0,n=36

     2254     5266    4                 NODE_RANGE.ENDD.POSITION# = NODE_RANGE.ENDD.POSITION# + 1;

   5266  1 001341   200066 220100                    LDX0    NODE_RANGE+17,,AUTO
         1 001342   000001 621010                    EAX1    1,X0
         1 001343   200066 741100                    STX1    NODE_RANGE+17,,AUTO

     2255     5267    4                 END;

     2256     5268    3              CALL LOAD_EVAL_FROM_RANGE (NODE_RANGE)

   5268  1 001344   200045 631500                    EPPR1   NODE_RANGE,,AUTO
         1 001345   200105 451500                    STP1    STREAM_KEY$+3,,AUTO
         1 001346   001551 701000 1                  TSX1    LOAD_EVAL_FROM_RANGE
         1 001347   001360 702000 1                  TSX2    IMOVE_BY_POSITIONS_FAILED

     2257     5269    3                ALTRET (LOAD_EVAL_FROM_RANGE_FAILED);
     2258     5270    3              END;

     2259     5271
     2260     5272    2           CALL VDG$OCLEAR_LOCATION (NODE_RANGE.START)

   5272  1 001350   200045 630500                    EPPR0   NODE_RANGE,,AUTO
         1 001351   200132 450500                    STP0    SRC_FOR_ENDD$+1,,AUTO
         1 001352   200132 630500                    EPPR0   SRC_FOR_ENDD$+1,,AUTO
         1 001353   000017 631400 xsym               EPPR1   B_VECTNIL+15
         1 001354   000000 701000 xent               TSX1    VDG$OCLEAR_LOCATION
         1 001355   001360 702000 1                  TSX2    IMOVE_BY_POSITIONS_FAILED

     2261     5273    2             ALTRET (OCLEAR_LOCATION_FAILED);
PL6.E3A0      #003=VDE$IADJUST File=VDE$INTERPRET.:VDA5TSI                       FRI 07/04/97 11:11 Page:258
     2262     5274
     2263     5275    2           RETURN;

   5275  1 001356   200044 221300                    LDX1  ! SUBST_FIELD$+1,,AUTO
         1 001357   000001 702211                    TSX2  ! 1,X1

   5272  1 001360                       IMOVE_BY_PO* null
   5272  1 001360                       LOAD_EVAL_F* null
   5272  1 001360                       OCOPY_LOCAT* null
   5272  1 001360                       OCLEAR_LOCA* null
     2264     5276
     2265     5277
     2266     5278
     2267     5279    2   IMOVE_BY_POSITIONS_FAILED: ;
     2268     5280    2   LOAD_EVAL_FROM_RANGE_FAILED: ;
     2269     5281    2   OCOPY_LOCATION_FAILED: ;
     2270     5282    2   OCLEAR_LOCATION_FAILED: ;
     2271     5283    2           ALTRETURN;

   5283  1 001360   200044 221300                    LDX1  ! SUBST_FIELD$+1,,AUTO
         1 001361   000000 702211                    TSX2  ! 0,X1

     2272     5284
     2273     5285    2   END IREL_POSITION;
     2274     5286
     2275     5287                %BOX (TITLE=IREL_POSITION_N, PAGE=YES);
              5295    2
              5299    2   /***************************************************************************
              5301    2    *                                                                         *
              5305    2            *                              IREL_POSITION_N                           *
              5307    2            *                                                                        *
              5309    2          ***************************************************************************/

     2276     5313
     2277     5314        /*I* NAME: IREL_POSITION_N
     2278     5315            PARAMETERS:
     2279     5316                None.
PL6.E3A0      #003=VDE$IADJUST File=VDE$INTERPRET.:VDA5TSI                       FRI 07/04/97 11:11 Page:259
     2280     5317            INPUT:
     2281     5318                STREAM - VD$STREAM to use; must be open.  It's position at
     2282     5319                    entry is irrelevent and unknown.
     2283     5320                LEVEL - Level to position in.
     2284     5321                FIND_END_BOUND - BIT(1) flag; if %TRUE, find both boundaries
     2285     5322                    of the block operand; if %FALSE, just find the start
     2286     5323                    boundary.
     2287     5324                TOS$EVAL - VD$EVAL whose .RANGE will be set based on
     2288     5325                    its .STATE and other info.
     2289     5326                TOS$EVAL_RELATIVE_TO - Based VD$LOCATION; must be one of
     2290     5327                    TOS$EVAL.RANGE.START or .ENDD.  This is the initial
     2291     5328                    location for relative movement.
     2292     5329                TOS$EVAL_BOUND - Based VD$LOCATION; must be one of
     2293     5330                    TOS$EVAL.RANGE.START or .ENDD.  This is the primary boundary
     2294     5331                    of the range to be set.
     2295     5332                IT$OPERAND - VD$IT_OPERAND which we are evaluating.  Its
     2296     5333                    .CODE# must be %OPAND_POSITION, and its .KEY must be
     2297     5334                    non-%CLEAR, specifying (as if it were a VD$KEY_NUMBER)
     2298     5335                    the position number, counting from 0.  (Note that the
     2299     5336                    user gave the position # counting from 1; VDE$PARSE
     2300     5337                    translated it to a 0-offset position number.)
     2301     5338                IT_ADJUST - Parent of IT$OPERAND.
     2302     5339                IT$BLOCK_EXPR - Root node of InTree.
     2303     5340                OPERAND - VD$OPERAND whose InTree we're evaluating.
     2304     5341            OUTPUT:
     2305     5342                TOS$EVAL_BOUND, and optionally TOS$EVAL.RANGE.ENDD, will
     2306     5343                    be set as specified by IT$OPERAND.
     2307     5344                SIGNAL will contain %FALSE if we tried to go beyond BOF
     2308     5345                    or EOF while moving; %TRUE otherwise.
     2309     5346            DESCRIPTION:
     2310     5347                If TOS$EVAL_RELATIVE_TO specifies the record marked "x" below, and
     2311     5348                    IT$OPERAND.KEY specifies the position marked "x" below,
     2312     5349                    then either side of the "|"s below are labelled with the
     2313     5350                    movement clause necessary to make them the output
     2314     5351                    TOS$EVAL_BOUND location:
     2315     5352
     2316     5353                    I__________BO BA SK 1 PO n|_|EO BA SK 1 PO n____________I
PL6.E3A0      #003=VDE$IADJUST File=VDE$INTERPRET.:VDA5TSI                       FRI 07/04/97 11:11 Page:260
     2317     5354                    I__(FO or BA) BO SK 0 PO n|x|EO SK 0 PO n (FO or BA)___I
     2318     5355                    I_____________BO SK 1 PO n|_|EO SK 1 PO n___________I
     2319     5356                    I_____________BO SK 2 PO n|_|EO SK 2 PO n_____________I
     2320     5357                                                  etc.
     2321     5358
     2322     5359                If the SKIP-count is 0, the TOS$EVAL_RELATIVE keys will be
     2323     5360                    unchanged; otherwise, call the Accessor to move
     2324     5361                    the number of nodes necessary, starting from the
     2325     5362                    TOS$EVAL_RELATIVE_TO location.  Set the new node keys
     2326     5363                    for the new location.  If we hit BOF or EOF during
     2327     5364                    the move, then set TOS$EVAL_BOUND to BOF or EOF and
     2328     5365                    return SIGNAL = %FALSE.
     2329     5366                Set the TOS$EVAL_BOUND position to the specified one; if we
     2330     5367                    need to find the end of the operand, simply add one
     2331     5368                    to the position.
     2332     5369                Note that we may point to a position which doesn't exist in
     2333     5370                    the record.  That's fine.
     2334     5371        */
     2335     5372
     2336     5373    1   IREL_POSITION_N: PROC ALTRET;

   5373  1 001362   200044 741300       IREL_POSITI* STX1  ! SUBST_FIELD$+1,,AUTO

     2337     5374
     2338     5375
     2339     5376        %VD$RANGE (NAME=NODE_RANGE, STCLASS=AUTO);   /* Doesn't own objects */
     2340     5445    2   DCL SKIP_COUNT SBIN;
     2341     5446    2   DCL INITIAL_KEY$ PTR;
     2342     5447    2   DCL STREAM_KEY$ PTR;
     2343     5448
     2344     5449
     2345     5450        %VD$TEXTC (NAME=INITIAL$KEY, STCLASS="BASED(INITIAL_KEY$)");
     2346     5473        %VD$TEXTC (NAME=STREAM$KEY, STCLASS="BASED(STREAM_KEY$)");
     2347     5496        %VD$KEY_NUMBER;
     2348     5511
     2349     5512
     2350     5513
PL6.E3A0      #003=VDE$IADJUST File=VDE$INTERPRET.:VDA5TSI                       FRI 07/04/97 11:11 Page:261
     2351     5514    2           SIGNAL = %TRUE;

   5514  1 001363   400000 236003                    LDQ     -131072,DU
         1 001364   200005 470500                    LDP0    @SIGNAL,,AUTO
         1 001365   000000 756100                    STQ     0,,PR0

     2352     5515    2           NODE_RANGE.START = TOS$EVAL_RELATIVE_TO;

   5515  1 001366   200012 471500                    LDP1    TOS_EVAL_RELATIVE_TO$,,AUTO
         1 001367   000100 100500                    MLR     fill='000'O
         1 001370   100000 000044                    ADSC9   0,,PR1                   cn=0,n=36
         1 001371   200045 000044                    ADSC9   NODE_RANGE,,AUTO         cn=0,n=36

     2353     5516    2           NODE_RANGE.ENDD = %CLEAR;   /* For now */

   5516  1 001372   000100 100400                    MLR     fill='000'O
         1 001373   000002 000001 xsym               ADSC9   B_VECTNIL+2              cn=0,n=1
         1 001374   200056 000044                    ADSC9   NODE_RANGE+9,,AUTO       cn=0,n=36

     2354     5517
     2355     5518    2           SKIP_COUNT = IT$OPERAND.OPTIONS.SKIP#;

   5518  1 001375   200013 473500                    LDP3    IT_MOVEMENT$,,AUTO
         1 001376   300004 236100                    LDQ     4,,PR3
         1 001377   000022 736000                    QLS     18
         1 001400   000022 732000                    QRS     18
         1 001401   200067 756100                    STQ     SKIP_COUNT,,AUTO

     2356     5519    2           IF IT$OPERAND.OPTIONS.DIRECTION# = %DIR_BACKWARD THEN

   5519  1 001402   300005 720100                    LXL0    5,,PR3
         1 001403   000002 100003                    CMPX0   2,DU
         1 001404   001407 601000 1                  TNZ     s:5522

     2357     5520    2              SKIP_COUNT = - SKIP_COUNT;

   5520  1 001405   200067 335100                    LCA     SKIP_COUNT,,AUTO
PL6.E3A0      #003=VDE$IADJUST File=VDE$INTERPRET.:VDA5TSI                       FRI 07/04/97 11:11 Page:262
         1 001406   200067 755100                    STA     SKIP_COUNT,,AUTO

     2358     5521
     2359     5522    3           IF SKIP_COUNT ~= 0 THEN DO;

   5522  1 001407   200067 235100                    LDA     SKIP_COUNT,,AUTO
         1 001410   001513 600000 1                  TZE     s:5559

     2360     5523    3              CALL VDA$LREAD (STREAM, NODE_RANGE.START, SKIP_COUNT, %FIND)

   5523  1 001411   200003 474500                    LDP4    @OPERAND,,AUTO
         1 001412   400000 475500                    LDP5    0,,PR4
         1 001413   000000 236000 2                  LDQ     0
         1 001414   200135 756100                    STQ     SRC_FOR_ENDD$+4,,AUTO
         1 001415   200067 636500                    EPPR6   SKIP_COUNT,,AUTO
         1 001416   200134 456500                    STP6    SRC_FOR_ENDD$+3,,AUTO
         1 001417   200045 637500                    EPPR7   NODE_RANGE,,AUTO
         1 001420   200133 457500                    STP7    SRC_FOR_ENDD$+2,,AUTO
         1 001421   200132 455500                    STP5    SRC_FOR_ENDD$+1,,AUTO
         1 001422   200132 630500                    EPPR0   SRC_FOR_ENDD$+1,,AUTO
         1 001423   000022 631400 xsym               EPPR1   B_VECTNIL+18
         1 001424   000000 701000 xent               TSX1    VDA$LREAD
         1 001425   001547 702000 1                  TSX2    LREAD_FAILED

     2361     5524    3                ALTRET (LREAD_FAILED);
     2362     5525    3              IF STREAM.CURRENT.EOF THEN

   5525  1 001426   200003 470500                    LDP0    @OPERAND,,AUTO
         1 001427   000000 471500                    LDP1    0,,PR0
         1 001430   100016 236100                    LDQ     14,,PR1
         1 001431   400000 316007                    CANQ    -131072,DL
         1 001432   001436 600000 1                  TZE     s:5527

     2363     5526    3                 SIGNAL = %FALSE;

   5526  1 001433   200005 473500                    LDP3    @SIGNAL,,AUTO
         1 001434   300000 450100                    STZ     0,,PR3
PL6.E3A0      #003=VDE$IADJUST File=VDE$INTERPRET.:VDA5TSI                       FRI 07/04/97 11:11 Page:263
         1 001435   001507 710000 1                  TRA     s:5556

     2364     5527    4              ELSE IF IT$OPERAND.OPTIONS.DIRECTION# = %DIR_BACKWARD THEN DO;

   5527  1 001436   200013 473500                    LDP3    IT_MOVEMENT$,,AUTO
         1 001437   300005 720100                    LXL0    5,,PR3
         1 001440   000002 100003                    CMPX0   2,DU
         1 001441   001507 601000 1                  TNZ     s:5556

     2365     5528                         /* Check to see if we hit BOF */
     2366     5529                         %GETKEY (KEY=NODE_RANGE.START.KEY, INDX=LEVEL-1,
     2367     5530                         PTR=INITIAL_KEY$);

   5537  1 001442   200015 235100                    LDA     LEVEL,,AUTO
         1 001443   000001 735000                    ALS     1
         1 001444   200043 721105                    LXL1    SUBST_FIELD$,AL,AUTO
         1 001445   000002 101003                    CMPX1   2,DU
         1 001446   001453 601000 1                  TNZ     s:5537+9

   5537  1 001447   200044 474505                    LDP4    SUBST_FIELD$+1,AL,AUTO
         1 001450   400002 635500                    EPPR5   2,,PR4
         1 001451   200070 455500                    STP5    INITIAL_KEY$,,AUTO
         1 001452   001455 710000 1                  TRA     s:5548

   5537  1 001453   200044 634505                    EPPR4   SUBST_FIELD$+1,AL,AUTO
         1 001454   200070 454500                    STP4    INITIAL_KEY$,,AUTO

     2368     5540                         %GETKEY (KEY=STREAM.CURRENT.KEY, INDX=LEVEL-1,
     2369     5541                         PTR=STREAM_KEY$);

   5548  1 001455   100004 722105                    LXL2    4,AL,PR1
         1 001456   000002 102003                    CMPX2   2,DU
         1 001457   001464 601000 1                  TNZ     s:5548+7

   5548  1 001460   100005 474505                    LDP4    5,AL,PR1
         1 001461   400002 635500                    EPPR5   2,,PR4
         1 001462   200071 455500                    STP5    STREAM_KEY$,,AUTO
PL6.E3A0      #003=VDE$IADJUST File=VDE$INTERPRET.:VDA5TSI                       FRI 07/04/97 11:11 Page:264
         1 001463   001466 710000 1                  TRA     s:5551

   5548  1 001464   100005 634505                    EPPR4   5,AL,PR1
         1 001465   200071 454500                    STP4    STREAM_KEY$,,AUTO

     2370     5551    5                    IF STREAM$KEY.BYTES >= INITIAL$KEY.BYTES THEN DO;

   5551  1 001466   200071 474500                    LDP4    STREAM_KEY$,,AUTO
         1 001467   400000 236100                    LDQ     0,,PR4
         1 001470   000033 772000                    QRL     27
         1 001471   200070 475500                    LDP5    INITIAL_KEY$,,AUTO
         1 001472   000000 623006                    EAX3    0,QL
         1 001473   500000 236100                    LDQ     0,,PR5
         1 001474   000033 772000                    QRL     27
         1 001475   000000 624006                    EAX4    0,QL
         1 001476   040140 106540                    CMPC    fill='040'O
         1 001477   400000 200013                    ADSC9   0,,PR4                   cn=1,n=*X3
         1 001500   500000 200014                    ADSC9   0,,PR5                   cn=1,n=*X4
         1 001501   001507 602000 1                  TNC     s:5556

     2371     5552    5                       NODE_RANGE.START = %CLEAR;

   5552  1 001502   000100 100400                    MLR     fill='000'O
         1 001503   000002 000001 xsym               ADSC9   B_VECTNIL+2              cn=0,n=1
         1 001504   200045 000044                    ADSC9   NODE_RANGE,,AUTO         cn=0,n=36

     2372     5553    5                       SIGNAL = %FALSE;       /* Hit BOF */

   5553  1 001505   200005 471500                    LDP1    @SIGNAL,,AUTO
         1 001506   100000 450100                    STZ     0,,PR1

     2373     5554    5                       END;

     2374     5555    4                    END;

     2375     5556    3              NODE_RANGE.START = STREAM.CURRENT;

PL6.E3A0      #003=VDE$IADJUST File=VDE$INTERPRET.:VDA5TSI                       FRI 07/04/97 11:11 Page:265
   5556  1 001507   000000 471500                    LDP1    0,,PR0
         1 001510   000100 100500                    MLR     fill='000'O
         1 001511   100006 000044                    ADSC9   6,,PR1                   cn=0,n=36
         1 001512   200045 000044                    ADSC9   NODE_RANGE,,AUTO         cn=0,n=36

     2376     5557    3              END;

     2377     5558
     2378     5559    2           IF NOT SIGNAL THEN

   5559  1 001513   200005 470500                    LDP0    @SIGNAL,,AUTO
         1 001514   000000 234100                    SZN     0,,PR0
         1 001515   001520 604000 1                  TMI     s:5562

     2379     5560    2              RETURN;

   5560  1 001516   200044 221300                    LDX1  ! SUBST_FIELD$+1,,AUTO
         1 001517   000001 702211                    TSX2  ! 1,X1

     2380     5561
     2381     5562    2           NODE_RANGE.START.POSITION# =

   5562  1 001520   200013 471500                    LDP1    IT_MOVEMENT$,,AUTO
         1 001521   100007 720100                    LXL0    7,,PR1
         1 001522   777777 360003                    ANX0    -1,DU
         1 001523   200055 740100                    STX0    NODE_RANGE+8,,AUTO

     2382     5563    2             ADDR(IT$OPERAND.KEY) -> VD$KEY_NUMBER.BYTES#;
     2383     5564
     2384     5565    3           IF FIND_END_BOUND THEN DO;

   5565  1 001524   200016 234100                    SZN     FIND_END_BOUND,,AUTO
         1 001525   001541 605000 1                  TPL     s:5571

     2385     5566    3              NODE_RANGE.ENDD = NODE_RANGE.START;

   5566  1 001526   000100 100500                    MLR     fill='000'O
PL6.E3A0      #003=VDE$IADJUST File=VDE$INTERPRET.:VDA5TSI                       FRI 07/04/97 11:11 Page:266
         1 001527   200045 000044                    ADSC9   NODE_RANGE,,AUTO         cn=0,n=36
         1 001530   200056 000044                    ADSC9   NODE_RANGE+9,,AUTO       cn=0,n=36

     2386     5567    3              NODE_RANGE.ENDD.POSITION# = MINIMUM(%MXNB_DATA,

   5567  1 001531   200066 236100                    LDQ     NODE_RANGE+17,,AUTO
         1 001532   000022 732000                    QRS     18
         1 001533   000001 036007                    ADLQ    1,DL
         1 001534   004000 116007                    CMPQ    2048,DL
         1 001535   001537 604400 1                  TMOZ    s:5567+6
         1 001536   004000 236007                    LDQ     2048,DL
         1 001537   000000 621006                    EAX1    0,QL
         1 001540   200066 741100                    STX1    NODE_RANGE+17,,AUTO

     2387     5568    3                NODE_RANGE.ENDD.POSITION# + 1);
     2388     5569    3              END;

     2389     5570
     2390     5571    2           CALL LOAD_EVAL_FROM_RANGE (NODE_RANGE)

   5571  1 001541   200045 633500                    EPPR3   NODE_RANGE,,AUTO
         1 001542   200105 453500                    STP3    STREAM_KEY$+3,,AUTO
         1 001543   001551 701000 1                  TSX1    LOAD_EVAL_FROM_RANGE
         1 001544   001547 702000 1                  TSX2    LREAD_FAILED

     2391     5572    2             ALTRET (LOAD_EVAL_FROM_RANGE_FAILED);
     2392     5573
     2393     5574    2           RETURN;

   5574  1 001545   200044 221300                    LDX1  ! SUBST_FIELD$+1,,AUTO
         1 001546   000001 702211                    TSX2  ! 1,X1

   5565  1 001547                       LREAD_FAILED null
   5565  1 001547                       LOAD_EVAL_F* null
     2394     5575
     2395     5576
     2396     5577
PL6.E3A0      #003=VDE$IADJUST File=VDE$INTERPRET.:VDA5TSI                       FRI 07/04/97 11:11 Page:267
     2397     5578    2   LREAD_FAILED: ;
     2398     5579    2   LOAD_EVAL_FROM_RANGE_FAILED: ;
     2399     5580    2           ALTRETURN;

   5580  1 001547   200044 221300                    LDX1  ! SUBST_FIELD$+1,,AUTO
         1 001550   000000 702211                    TSX2  ! 0,X1

     2400     5581
     2401     5582
     2402     5583    2   END IREL_POSITION_N;
     2403     5584
     2404     5585                %BOX (TITLE="LOAD_EVAL_FROM_RANGE", PAGE=YES);
              5593    2
              5597    2   /***************************************************************************
              5599    2    *                                                                         *
              5603    2            *                            LOAD_EVAL_FROM_RANGE                        *
              5605    2            *                                                                        *
              5607    2          ***************************************************************************/

     2405     5611
     2406     5612        /*I* NAME: LOAD_EVAL_FROM_RANGE
     2407     5613            PARAMETERS:
     2408     5614                RANGE - VD$RANGE to set TOS$EVAL.RANGE from.
     2409     5615                                        !! NOTE !!
     2410     5616                        RANGE may be an alias for TOS$EVAL.RANGE, or
     2411     5617                        it may point to objects owned by TOS$EVAL.RANGE.
     2412     5618                        Therefore, at entry, we must make our own copy
     2413     5619                        of RANGE before we clear TOS$EVAL.RANGE.
     2414     5620            INPUT:
     2415     5621                TOS$EVAL - VD$EVAL whose .RANGE will be set based on
     2416     5622                    its .STATE and other info.
     2417     5623                TOS$EVAL_BOUND - Based VD$LOCATION; must be one of
     2418     5624                    TOS$EVAL.RANGE.START or .ENDD.  This is the primary
     2419     5625                    boundary of the range to be set from RANGE.
     2420     5626                IT$OPERAND - VD$IT_OPERAND which we're evaluating.
     2421     5627                IT_ADJUST - Parent of IT$OPERAND.
     2422     5628            OUTPUT:
PL6.E3A0      #003=VDE$IADJUST File=VDE$INTERPRET.:VDA5TSI                       FRI 07/04/97 11:11 Page:268
     2423     5629                TOS$EVAL_BOUND, and optionally TOS$EVAL.RANGE.ENDD, will
     2424     5630                    be set appropriately from RANGE.
     2425     5631            DESCRIPTION:
     2426     5632                Based on TOS$EVAL.STATE#,
     2427     5633        *??*     IT_ADJUST.NEW_STATE#,
     2428     5634                IT$OPERAND's .POINT option, and whether IT$OPERAND
     2429     5635                is the last child of IT_ADJUST --
     2430     5636                set TOS$EVAL_BOUND.  If the state is EVST_INITIAL,
     2431     5637                also set TOS$EVAL.RANGE.ENDD.  See the table at
     2432     5638                the heading of VDE$IADJUST for specifics on who sets
     2433     5639                what and why.
     2434     5640        */
     2435     5641
     2436     5642    1   LOAD_EVAL_FROM_RANGE: PROC (RANGE) ALTRET;

   5642  1 001551   200104 741300       LOAD_EVAL_F* STX1  ! STREAM_KEY$+2,,AUTO

     2437     5643
     2438     5644        %VD$RANGE (NAME=RANGE, STCLASS=PARAM);
     2439     5713
     2440     5714
     2441     5715
     2442     5716        %VD$RANGE (NAME=MY_RANGE, STCLASS=AUTO);
     2443     5785    2   DCL SRC_FOR_BOUND$ PTR;
     2444     5786    2   DCL SRC_FOR_ENDD$ PTR;
     2445     5787
     2446     5788
     2447     5789        %VD$LOCATION (NAME=SRC$FOR_BOUND, STCLASS="BASED(SRC_FOR_BOUND$)");
     2448     5817        %VD$LOCATION (NAME=SRC$FOR_ENDD, STCLASS="BASED(SRC_FOR_ENDD$)");
     2449     5845
     2450     5846
     2451     5847
     2452     5848    2           CALL VDG$OCOPY_RANGE (RANGE, MY_RANGE)

   5848  1 001552   200106 630500                    EPPR0   MY_RANGE,,AUTO
         1 001553   200133 450500                    STP0    SRC_FOR_ENDD$+2,,AUTO
         1 001554   200105 236100                    LDQ     @RANGE,,AUTO
PL6.E3A0      #003=VDE$IADJUST File=VDE$INTERPRET.:VDA5TSI                       FRI 07/04/97 11:11 Page:269
         1 001555   200132 756100                    STQ     SRC_FOR_ENDD$+1,,AUTO
         1 001556   200132 630500                    EPPR0   SRC_FOR_ENDD$+1,,AUTO
         1 001557   000020 631400 xsym               EPPR1   B_VECTNIL+16
         1 001560   000000 701000 xent               TSX1    VDG$OCOPY_RANGE
         1 001561   001700 702000 1                  TSX2    OCOPY_RANGE_FAILED

     2453     5849    2             ALTRET (OCOPY_RANGE_FAILED);
     2454     5850
     2455     5851    3           IF IT$OPERAND.OPTIONS.POINT# = %PNT_EO THEN DO;

   5851  1 001562   200013 470500                    LDP0    IT_MOVEMENT$,,AUTO
         1 001563   000005 220100                    LDX0    5,,PR0
         1 001564   000003 100003                    CMPX0   3,DU
         1 001565   001573 601000 1                  TNZ     s:5855

     2456     5852    3              SRC_FOR_BOUND$ = ADDR(MY_RANGE.ENDD);

   5852  1 001566   200117 631500                    EPPR1   MY_RANGE+9,,AUTO
         1 001567   200130 451500                    STP1    SRC_FOR_BOUND$,,AUTO

     2457     5853    3              SRC_FOR_ENDD$ = ADDR(MY_RANGE.ENDD);

   5853  1 001570   200117 633500                    EPPR3   MY_RANGE+9,,AUTO
         1 001571   200131 453500                    STP3    SRC_FOR_ENDD$,,AUTO

     2458     5854    3              END;

   5854  1 001572   001621 710000 1                  TRA     s:5869

     2459     5855    2           ELSE IF IT$OPERAND.OPTIONS.POINT# = %PNT_AO

   5855  1 001573   000001 100003                    CMPX0   1,DU
         1 001574   001615 601000 1                  TNZ     s:5865
         1 001575   200004 471500                    LDP1    @IT_ADJUST,,AUTO
         1 001576   200013 236100                    LDQ     IT_MOVEMENT$,,AUTO
         1 001577   100005 116100                    CMPQ    5,,PR1
         1 001600   001615 601000 1                  TNZ     s:5865
PL6.E3A0      #003=VDE$IADJUST File=VDE$INTERPRET.:VDA5TSI                       FRI 07/04/97 11:11 Page:270

     2460     5856    3                AND ADDR(IT$OPERAND) = IT_ADJUST.MOVEMENTS_TAIL$ THEN DO;

     2461     5857    3                 IF TOS$EVAL.STATE# = %EVST_END THEN

   5857  1 001601   200007 473500                    LDP3    TOS_EVAL$,,AUTO
         1 001602   300070 221100                    LDX1    56,,PR3
         1 001603   000003 101003                    CMPX1   3,DU
         1 001604   001610 601000 1                  TNZ     s:5861

     2462     5858        /*??*          AND IT_ADJUST.NEW_STATE# = %EVST_END THEN */
     2463     5859    3                    SRC_FOR_BOUND$ = ADDR(MY_RANGE.ENDD);

   5859  1 001605   200117 634500                    EPPR4   MY_RANGE+9,,AUTO
         1 001606   200130 454500                    STP4    SRC_FOR_BOUND$,,AUTO
         1 001607   001612 710000 1                  TRA     s:5862

     2464     5860    3                 ELSE
     2465     5861    3                    SRC_FOR_BOUND$ = ADDR(MY_RANGE.START);

   5861  1 001610   200106 634500                    EPPR4   MY_RANGE,,AUTO
         1 001611   200130 454500                    STP4    SRC_FOR_BOUND$,,AUTO

     2466     5862    3                 SRC_FOR_ENDD$ = ADDR(MY_RANGE.ENDD);

   5862  1 001612   200117 635500                    EPPR5   MY_RANGE+9,,AUTO
         1 001613   200131 455500                    STP5    SRC_FOR_ENDD$,,AUTO

     2467     5863    3                 END;

   5863  1 001614   001621 710000 1                  TRA     s:5869

     2468     5864    3              ELSE DO; /* For both %PNT_BO and non-last %PNT_AO */

     2469     5865    3                 SRC_FOR_BOUND$ = ADDR(MY_RANGE.START);

   5865  1 001615   200106 631500                    EPPR1   MY_RANGE,,AUTO
PL6.E3A0      #003=VDE$IADJUST File=VDE$INTERPRET.:VDA5TSI                       FRI 07/04/97 11:11 Page:271
         1 001616   200130 451500                    STP1    SRC_FOR_BOUND$,,AUTO

     2470     5866    3                 SRC_FOR_ENDD$ = ADDR(MY_RANGE.START);

   5866  1 001617   200106 633500                    EPPR3   MY_RANGE,,AUTO
         1 001620   200131 453500                    STP3    SRC_FOR_ENDD$,,AUTO

     2471     5867    3                 END;

     2472     5868
     2473     5869    2           CALL VDG$OCLEAR_LOCATION (TOS$EVAL_BOUND)

   5869  1 001621   200011 630500                    EPPR0   TOS_EVAL_BOUND$,,AUTO
         1 001622   000017 631400 xsym               EPPR1   B_VECTNIL+15
         1 001623   000000 701000 xent               TSX1    VDG$OCLEAR_LOCATION
         1 001624   001700 702000 1                  TSX2    OCOPY_RANGE_FAILED

     2474     5870    2             ALTRET (OCLEAR_LOCATION_FAILED);
     2475     5871    2           TOS$EVAL_BOUND = SRC$FOR_BOUND;

   5871  1 001625   200130 470500                    LDP0    SRC_FOR_BOUND$,,AUTO
         1 001626   200011 471500                    LDP1    TOS_EVAL_BOUND$,,AUTO
         1 001627   000100 100500                    MLR     fill='000'O
         1 001630   000000 000044                    ADSC9   0,,PR0                   cn=0,n=36
         1 001631   100000 000044                    ADSC9   0,,PR1                   cn=0,n=36

     2476     5872
     2477     5873    3           IF TOS$EVAL.STATE# = %EVST_INITIAL THEN DO;

   5873  1 001632   200007 473500                    LDP3    TOS_EVAL$,,AUTO
         1 001633   300070 220100                    LDX0    56,,PR3
         1 001634   000001 100003                    CMPX0   1,DU
         1 001635   001667 601000 1                  TNZ     s:5885

     2478     5874    3              CALL VDG$OCLEAR_LOCATION (TOS$EVAL.RANGE.ENDD)

   5874  1 001636   200007 236100                    LDQ     TOS_EVAL$,,AUTO
PL6.E3A0      #003=VDE$IADJUST File=VDE$INTERPRET.:VDA5TSI                       FRI 07/04/97 11:11 Page:272
         1 001637   000035 036003                    ADLQ    29,DU
         1 001640   200132 756100                    STQ     SRC_FOR_ENDD$+1,,AUTO
         1 001641   200132 630500                    EPPR0   SRC_FOR_ENDD$+1,,AUTO
         1 001642   000017 631400 xsym               EPPR1   B_VECTNIL+15
         1 001643   000000 701000 xent               TSX1    VDG$OCLEAR_LOCATION
         1 001644   001700 702000 1                  TSX2    OCOPY_RANGE_FAILED

     2479     5875    3                ALTRET (OCLEAR_LOCATION_FAILED);
     2480     5876    4              IF SRC_FOR_BOUND$ = SRC_FOR_ENDD$ THEN DO;

   5876  1 001645   200130 236100                    LDQ     SRC_FOR_BOUND$,,AUTO
         1 001646   200131 116100                    CMPQ    SRC_FOR_ENDD$,,AUTO
         1 001647   001661 601000 1                  TNZ     s:5881

     2481     5877    4                 CALL VDG$OCOPY_LOCATION (SRC$FOR_ENDD, TOS$EVAL.RANGE.ENDD)

   5877  1 001650   200007 236100                    LDQ     TOS_EVAL$,,AUTO
         1 001651   000035 036003                    ADLQ    29,DU
         1 001652   200131 235100                    LDA     SRC_FOR_ENDD$,,AUTO
         1 001653   200132 757100                    STAQ    SRC_FOR_ENDD$+1,,AUTO
         1 001654   200132 630500                    EPPR0   SRC_FOR_ENDD$+1,,AUTO
         1 001655   000020 631400 xsym               EPPR1   B_VECTNIL+16
         1 001656   000000 701000 xent               TSX1    VDG$OCOPY_LOCATION
         1 001657   001700 702000 1                  TSX2    OCOPY_RANGE_FAILED

     2482     5878    4                   ALTRET (OCOPY_LOCATION_FAILED);
     2483     5879    4                 END;

   5879  1 001660   001676 710000 1                  TRA     s:5891

     2484     5880    3              ELSE
     2485     5881    3                 TOS$EVAL.RANGE.ENDD = SRC$FOR_ENDD;

   5881  1 001661   200131 470500                    LDP0    SRC_FOR_ENDD$,,AUTO
         1 001662   200007 471500                    LDP1    TOS_EVAL$,,AUTO
         1 001663   000100 100500                    MLR     fill='000'O
         1 001664   000000 000044                    ADSC9   0,,PR0                   cn=0,n=36
PL6.E3A0      #003=VDE$IADJUST File=VDE$INTERPRET.:VDA5TSI                       FRI 07/04/97 11:11 Page:273
         1 001665   100035 000044                    ADSC9   29,,PR1                  cn=0,n=36

     2486     5882    3              END;

   5882  1 001666   001676 710000 1                  TRA     s:5891

     2487     5883    3           ELSE DO;

     2488     5884                   /* Didn't use SRC$FOR_ENDD:  may need to free it */
     2489     5885    4              IF SRC_FOR_BOUND$ ~= SRC_FOR_ENDD$ THEN DO;

   5885  1 001667   200130 236100                    LDQ     SRC_FOR_BOUND$,,AUTO
         1 001670   200131 116100                    CMPQ    SRC_FOR_ENDD$,,AUTO
         1 001671   001676 600000 1                  TZE     s:5891

     2490     5886    4                 CALL VDG$OCLEAR_LOCATION (SRC$FOR_ENDD)

   5886  1 001672   200131 630500                    EPPR0   SRC_FOR_ENDD$,,AUTO
         1 001673   000017 631400 xsym               EPPR1   B_VECTNIL+15
         1 001674   000000 701000 xent               TSX1    VDG$OCLEAR_LOCATION
         1 001675   001700 702000 1                  TSX2    OCOPY_RANGE_FAILED

     2491     5887    4                   ALTRET (OCLEAR_LOCATION_FAILED);
     2492     5888    4                 END;

     2493     5889    3              END;

     2494     5890
     2495     5891    2           RETURN;

   5891  1 001676   200104 221300                    LDX1  ! STREAM_KEY$+2,,AUTO
         1 001677   000001 702211                    TSX2  ! 1,X1

   5881  1 001700                       OCOPY_RANGE* null
   5881  1 001700                       OCLEAR_LOCA* null
   5881  1 001700                       OCOPY_LOCAT* null
     2496     5892
PL6.E3A0      #003=VDE$IADJUST File=VDE$INTERPRET.:VDA5TSI                       FRI 07/04/97 11:11 Page:274
     2497     5893
     2498     5894    2   OCOPY_RANGE_FAILED: ;
     2499     5895    2   OCLEAR_LOCATION_FAILED: ;
     2500     5896    2   OCOPY_LOCATION_FAILED: ;
     2501     5897    2           ALTRETURN;

   5897  1 001700   200104 221300                    LDX1  ! STREAM_KEY$+2,,AUTO
         1 001701   000000 702211                    TSX2  ! 0,X1
     2502     5898
     2503     5899    2   END LOAD_EVAL_FROM_RANGE;
     2504     5900
     2505     5901    1   END VDE$IADJUST;
     2506     5902        %EOD;

PL6.E3A0      #003=VDE$IADJUST File=VDE$INTERPRET.:VDA5TSI                       FRI 07/04/97 11:11 Page:275
--  Include file information  --

   VD_PERR_C.:VDA5TOU  is referenced.
   VD_MACROS_M.:VDA5TOU  is referenced.
   B$JIT_C.:E04TOU  was found in the system file and is never referenced.
   CP_6_C.:E04TOU  was found in the system file and is never referenced.
      No diagnostics issued in procedure VDE$IADJUST.
PL6.E3A0      #003=VDE$IADJUST File=VDE$INTERPRET.:VDA5TSI                       FRI 07/04/97 11:11 Page:276

 **** Variables and constants ****

  ****  Auto variables  ****

  ****  Scalars and arrays  ****
OctLoc.c.b A Datatyp(siz) R M Lvl/name                 OctLoc.c.b A Datatyp(siz) R M Lvl/name

     4-0-0/w PTR         r     1 @IT_ADJUST                 3-0-0/w PTR         r     1 @OPERAND
   105-0-0/w PTR         r     1 @RANGE                     5-0-0/w PTR         r     1 @SIGNAL
    76-0-0/w SBIN        r     1 ERR_CODE                  16-0-0/w BIT         r     1 FIND_END_BOUND
    20-0-0/w STRC(648)   r     1 FOUND_RANGE               75-0-0/c STRC        r     1 FRACT
   100-0-0/w SBIN        r     1 INDX                     101-0-0/w PTR         r     1 INITIAL_KEY$
    70-0-0/w PTR         r     1 INITIAL_KEY$              *0-0-0/w STRC(216)   r     1 IT_ADJUST
    10-0-0/w PTR         r     1 IT_BLOCK_EXPR$            13-0-0/w PTR         r     1 IT_MOVEMENT$
    15-0-0/w UBIN        r     1 LEVEL                      6-0-0/w PTR         r     1 LO_NAME$
    70-0-0/w SBIN        r     1 MX_RECORDS               106-0-0/w STRC(648)   r     1 MY_RANGE
    67-0-0/w PTR         r     1 NODE_KEY$                 45-0-0/w STRC(648)   r     1 NODE_RANGE
    45-0-0/w STRC(648)   r     1 NODE_RANGE                45-0-0/w STRC(648)   r     1 NODE_RANGE
    45-0-0/w STRC(648)   r     1 NODE_RANGE                70-0-0/w STRC(72)    r     1 NUMERIC_KEY
    *0-0-0/w STRC(144)   r     1 OPERAND                   73-0-0/w SBIN        r     1 ORIGINAL_LENGTH
    67-0-0/w STRC(324)   r     1 OWNS_OBJECTS_LOC          72-0-0/w SBIN        r     1 POINT_INDEX
    *0-0-0/w STRC(648)   r     1 RANGE                     17-0-0/w PTR         r     1 REF_BLOCK_DESC$
    74-0-0/w SBIN        r     1 SBIN_VALUE                *0-0-0/w BIT         r     1 SIGNAL
   100-0-0/w SBIN        r     1 SKIP_COUNT                67-0-0/w SBIN        r     1 SKIP_COUNT
    67-0-0/w SBIN        r     1 SKIP_COUNT               130-0-0/w PTR         r     1 SRC_FOR_BOUND$
   131-0-0/w PTR         r     1 SRC_FOR_ENDD$            102-0-0/w PTR         r     1 STREAM_KEY$
    77-0-0/w PTR         r     1 STREAM_KEY$               71-0-0/w PTR         r     1 STREAM_KEY$
    43-0-0/w PTR         r     1 SUBST_FIELD$               7-0-0/w PTR         r     1 TOS_EVAL$
    11-0-0/w PTR         r     1 TOS_EVAL_BOUND$
    12-0-0/w PTR         r     1 TOS_EVAL_RELATIVE_TO$
    42-0-0/w PTR         r     1 VD_ERR$

  ****  SYMREF variables  ****

  ****  Scalars and arrays  ****
OctLoc.c.b A Datatyp(siz) R M Lvl/name                 OctLoc.c.b A Datatyp(siz) R M Lvl/name

PL6.E3A0      #003=VDE$IADJUST File=VDE$INTERPRET.:VDA5TSI                       FRI 07/04/97 11:11 Page:277
     0-0-0/w PTR         r     1 VD_CMD_OBJECTS$(0:49)
     0-0-0/w STRC(72)    r     1 VD_KEY_NUMERIC_BOF

  ****  BASED and DCB variables  ****

  ****  Scalars and arrays  ****
OctLoc.c.b A Datatyp(siz) R M Lvl/name                 OctLoc.c.b A Datatyp(siz) R M Lvl/name

     0-0-0/w ASTR(9)     r     1 INITIAL$KEY                0-0-0/w ASTR(9)     r     1 INITIAL$KEY
     0-0-0/w STRC(1116)  r     1 IT$BLOCK_EXPR              0-0-0/w STRC(324)   r     1 IT$OPERAND
     0-0-0/w ASTR(9)     r     1 LO$NAME                    0-0-0/w ASTR(9)     r     1 NODE$KEY
     0-0-0/w STRC(936)   r     1 REF$BLOCK_DESC             0-0-0/w STRC(324)   r     1 SRC$FOR_BOUND
     0-0-0/w STRC(324)   r     1 SRC$FOR_ENDD               0-0-0/w STRC(864)   r     1 STREAM
     0-0-0/w ASTR(9)     r     1 STREAM$KEY                 0-0-0/w ASTR(9)     r     1 STREAM$KEY
     0-0-0/w ASTR(9)     r     1 STREAM$KEY
     0-0-0/w STRC(144)   r     1 SUBST$POINTER(0:2)
     0-0-0/w STRC(2124)  r     1 TOS$EVAL                   0-0-0/w STRC(324)   r     1 TOS$EVAL_BOUND
     0-0-0/w STRC(324)   r     1 TOS$EVAL_RELATIVE_TO       0-0-0/w ASTR(90)    r     1 VD$BUFFER
     0-0-0/w STRC(180)   r     1 VD$ERR                     0-0-0/w STRC(216)   r     1 VD$IT_ADJUST
     0-0-0/w STRC(216)   r     1 VD$IT_SELECT               0-0-0/w STRC(72)    r     1 VD$KEY
     0-0-0/w STRC(72)    r     1 VD$KEY_NUMBER              0-0-0/w STRC(1944)  r     1 VD$PORT
     0-0-0/w STRC(81)    r     1 VD$STRING_HEADER           0-0-0/w ASTR(81)    r     1 VD$TEXTC_REMOTE


   Procedure VDE$IADJUST requires 962 words for executable code.
   Procedure VDE$IADJUST requires 98 words of local(AUTO) storage.
PL6.E3A0      #003=VDE$IADJUST File=VDE$INTERPRET.:VDA5TSI                       FRI 07/04/97 11:11 Page:278
          *** CROSS REFERENCE LISTING ***
**     DENOTES     IDENTIFIER DEFINITION
<<                 IDENTIFIER'S VALUE SET
>>                 IDENTIFIER'S VALUE USED
<>                 IDENTIFIER SET AND/OR USED
--                 IDENTIFIER REFERENCED
PL6.E3A0      #003=VDE$IADJUST File=VDE$INTERPRET.:VDA5TSI                       FRI 07/04/97 11:11 Page:279
          MINI XREF LISTING

CONSEC_KEY_FRACT_FAILURE IN PROCEDURE IABS_NODE
      5046**LABEL    4928--GOTO     4951--GOTO
CONSEC_KEY_TOO_BIG_FAILURE IN PROCEDURE IABS_NODE
      5034**LABEL    4926--GOTO
DEC_CONVERT_FAILED IN PROCEDURE IABS_NODE
      5034**LABEL    4920--CALLALT  4943--CALLALT
EACH_MOVEMENT_NODE
      4042**LABEL    4156--EXIT
ERR_CODE IN PROCEDURE IABS_NODE
      4813**DCL      5034<<ASSIGN   5038<<ASSIGN   5042<<ASSIGN   5046<<ASSIGN   5050<<ASSIGN   5055>>ASSIGN
FIND_END_BOUND
      2653**DCL      4047<<ASSIGN   4053<<ASSIGN   4479>>IF       4989>>IF       5264>>IF       5565>>IF
FOUND_RANGE
      2663**DCL      4139<>CALL     4143<>CALL     4145<>CALL
FRACT IN PROCEDURE IABS_NODE
      4806**DCL      4943--CALL
FRACT.BYTES IN PROCEDURE IABS_NODE
      4810**DCL      4937--IF       4939--ASSIGN   4940<<ASSIGN   4941<<ASSIGN
FRACT.LENGTH# IN PROCEDURE IABS_NODE
      4810**DCL      4939<<ASSIGN
IABS_NODE
      4581**PROC     4122--CALL
IABS_NODE_FAILED
      4162**LABEL    4122--CALLALT
ILL_EDITKEY_FRACT_FAILURE IN PROCEDURE IABS_NODE
      5042**LABEL    4938--GOTO
ILL_NUMKEY_INTEGER_FAILURE IN PROCEDURE IABS_NODE
      5038**LABEL    4922--GOTO     4933--GOTO     4949--GOTO
IMOVE_BY_POSITIONS_FAILED IN PROCEDURE IREL_POSITION
      5272**LABEL    5258--CALLALT
INDX IN PROCEDURE IABS_NODE
      4815**DCL      5059<<ASSIGN   5060>>DOWHILE  5060>>DOWHILE  5062<<ASSIGN   5062>>ASSIGN   5064>>IF
PL6.E3A0      #003=VDE$IADJUST File=VDE$INTERPRET.:VDA5TSI                       FRI 07/04/97 11:11 Page:280
      5065<>CALL     5066>>CALL     5070>>ASSIGN
INITIAL$KEY.BYTES IN PROCEDURE IREL_NODE
      4397**DCL      4468>>IF
INITIAL$KEY.LENGTH# IN PROCEDURE IREL_NODE
      4395**DCL      4397--IMP-SIZ  4468>>IF
INITIAL$KEY.BYTES IN PROCEDURE IREL_POSITION_N
      5468**DCL      5551>>IF
INITIAL$KEY.LENGTH# IN PROCEDURE IREL_POSITION_N
      5466**DCL      5468--IMP-SIZ  5551>>IF
INITIAL_KEY$ IN PROCEDURE IREL_NODE
      4375**DCL      4387--IMP-PTR  4454<<ASSIGN   4454<<ASSIGN   4468>>IF       4468>>IF
INITIAL_KEY$ IN PROCEDURE IREL_POSITION_N
      5446**DCL      5458--IMP-PTR  5537<<ASSIGN   5537<<ASSIGN   5551>>IF       5551>>IF
IPATTERN_FAILED
      4162**LABEL    4139--CALLALT
IREL_NODE
      4274**PROC     4118--CALL
IREL_NODE_FAILED
      4162**LABEL    4118--CALLALT
IREL_POSITION
      5173**PROC     4129--CALL
IREL_POSITION_FAILED
      4162**LABEL    4129--CALLALT
IREL_POSITION_N
      5373**PROC     4133--CALL
IREL_POSITION_N_FAILED
      4162**LABEL    4133--CALLALT
IT$BLOCK_EXPR.OPTIONS.LEVEL#
      3127**DCL      4034>>ASSIGN
IT$BLOCK_EXPR.SELECTS$
      3144**DCL      4073>>IF       4073>>IF       4073>>IF       4073>>IF       4073>>IF       4073>>IF
IT$BLOCK_EXPR.SELECTS_TAIL$
      3144**DCL      4073>>IF
IT$OPERAND
      3211**DCL      4073--IF       4139<>CALL     5855--IF
IT$OPERAND.CODE#
PL6.E3A0      #003=VDE$IADJUST File=VDE$INTERPRET.:VDA5TSI                       FRI 07/04/97 11:11 Page:281
      3237**DCL      4056>>DOCASE   4151<>CALL
IT$OPERAND.FLINK$
      3237**DCL      4158>>ASSIGN
IT$OPERAND.KEY
      3263**DCL      4117>>IF       4128>>IF       4898>>ASSIGN   4962<<ASSIGN   4966<<ASSIGN   4984>>ASSIGN
      5087>>ASSIGN   5562--ASSIGN
IT$OPERAND.KEY.REP#
      3265**DCL      4101>>IF       4912>>IF       4961>>IF       5087>>IF
IT$OPERAND.KEY.TYPE#
      3265**DCL      4900>>IF       4903>>IF
IT$OPERAND.KEY.V$
      3265**DCL      4101>>ASSIGN   4101--ASSIGN   4912>>ASSIGN   4912--ASSIGN   4961>>CALL     4961>>CALL
      5087>>CALL     5087>>CALL
IT$OPERAND.OPTIONS.DIRECTION#
      3250**DCL      4043>>IF       4433>>IF       4444>>IF       5258<>CALL     5519>>IF       5527>>IF
IT$OPERAND.OPTIONS.POINT#
      3250**DCL      4048>>IF       4048>>IF       5851>>IF       5855>>IF
IT$OPERAND.OPTIONS.SKIP#
      3250**DCL      4432>>ASSIGN   5255>>ASSIGN   5518>>ASSIGN
IT$OPERAND.PARAM$
      3267**DCL      4111>>ASSIGN
IT_ADJUST
      2535**DCL       145--PROC
IT_ADJUST.MOVEMENTS$
      2561**DCL      4040>>ASSIGN
IT_ADJUST.MOVEMENTS_TAIL$
      2562**DCL      4048>>IF       5855>>IF
IT_BLOCK_EXPR$
      2647**DCL      3004--IMP-PTR  4033<<ASSIGN   4034>>ASSIGN   4073>>IF       4073>>IF       4073>>IF
      4073>>IF       4073>>IF       4073>>IF       4073>>IF
IT_MOVEMENT$
      2650**DCL      3211--IMP-PTR  4040<<ASSIGN   4042>>DOWHILE  4043>>IF       4048>>IF       4048>>IF
      4048>>IF       4056>>DOCASE   4073>>IF       4101>>IF       4101>>ASSIGN   4101>>ASSIGN   4111>>ASSIGN
      4117>>IF       4128>>IF       4139>>CALL     4151>>CALL     4158<<ASSIGN   4158>>ASSIGN   4432>>ASSIGN
      4433>>IF       4444>>IF       4898>>ASSIGN   4900>>IF       4903>>IF       4912>>IF       4912>>ASSIGN
      4912>>ASSIGN   4961>>IF       4961>>CALL     4961>>CALL     4962>>ASSIGN   4966>>ASSIGN   4984>>ASSIGN
PL6.E3A0      #003=VDE$IADJUST File=VDE$INTERPRET.:VDA5TSI                       FRI 07/04/97 11:11 Page:282
      5087>>ASSIGN   5087>>IF       5087>>CALL     5087>>CALL     5255>>ASSIGN   5258>>CALL     5518>>ASSIGN
      5519>>IF       5527>>IF       5562>>ASSIGN   5851>>IF       5855>>IF       5855>>IF
LEVEL
      2652**DCL      4034<<ASSIGN   4454>>IF       4454>>ASSIGN   4454>>ASSIGN   4465>>IF       4465>>ASSIGN
      4465>>ASSIGN   4899>>ASSIGN   4984>>ASSIGN   5003>>IF       5003>>ASSIGN   5003>>ASSIGN   5014>>IF
      5014>>ASSIGN   5014>>ASSIGN   5537>>IF       5537>>ASSIGN   5537>>ASSIGN   5548>>IF       5548>>ASSIGN
      5548>>ASSIGN
LO$NAME
      2736**DCL      4104<>CALL
LO$NAME.LENGTH#
      2744**DCL      2746--IMP-SIZ  4104>>CALL
LOAD_EVAL_FROM_RANGE
      5642**PROC     4063--CALL     4084--CALL     4088--CALL     4106--CALL     4112--CALL     4143--CALL
      4495--CALL     5026--CALL     5268--CALL     5571--CALL
LOAD_EVAL_FROM_RANGE_FAILED
      4162**LABEL    4063--CALLALT  4084--CALLALT  4088--CALLALT  4106--CALLALT  4112--CALLALT  4143--CALLALT
LOAD_EVAL_FROM_RANGE_FAILED IN PROCEDURE IABS_NODE
      5087**LABEL    5026--CALLALT
LOAD_EVAL_FROM_RANGE_FAILED IN PROCEDURE IREL_NODE
      4498**LABEL    4495--CALLALT
LOAD_EVAL_FROM_RANGE_FAILED IN PROCEDURE IREL_POSITION
      5272**LABEL    5268--CALLALT
LOAD_EVAL_FROM_RANGE_FAILED IN PROCEDURE IREL_POSITION_N
      5565**LABEL    5571--CALLALT
LO_NAME$
      2645**DCL      2736--IMP-PTR  4101<<ASSIGN   4101<<ASSIGN   4104>>CALL     4104>>CALL
LREAD_FAILED IN PROCEDURE IABS_NODE
      5087**LABEL    4992--CALLALT  5019--CALLALT
LREAD_FAILED IN PROCEDURE IREL_NODE
      4498**LABEL    4436--CALLALT  4489--CALLALT
LREAD_FAILED IN PROCEDURE IREL_POSITION_N
      5565**LABEL    5523--CALLALT
MX_RECORDS IN PROCEDURE IREL_POSITION
      5247**DCL      5256<<ASSIGN   5258<>CALL
MY_RANGE IN PROCEDURE LOAD_EVAL_FROM_RANGE
      5724**DCL      5848<>CALL
PL6.E3A0      #003=VDE$IADJUST File=VDE$INTERPRET.:VDA5TSI                       FRI 07/04/97 11:11 Page:283
MY_RANGE.ENDD IN PROCEDURE LOAD_EVAL_FROM_RANGE
      5766**DCL      5852--ASSIGN   5853--ASSIGN   5859--ASSIGN   5862--ASSIGN
MY_RANGE.START IN PROCEDURE LOAD_EVAL_FROM_RANGE
      5738**DCL      5861--ASSIGN   5865--ASSIGN   5866--ASSIGN
NODE$KEY.BYTES IN PROCEDURE IABS_NODE
      4836**DCL      4917>>CALLBLT  4941>>ASSIGN   5017>>IF
NODE$KEY.LENGTH# IN PROCEDURE IABS_NODE
      4834**DCL      4836--IMP-SIZ  4917>>CALLBLT  4918>>ASSIGN   4919<<ASSIGN   4923<<ASSIGN   4941>>ASSIGN
      5017>>IF
NODE_KEY$ IN PROCEDURE IABS_NODE
      4653**DCL      4826--IMP-PTR  4912<<ASSIGN   4912<<ASSIGN   4917>>CALLBLT  4917>>CALLBLT  4918>>ASSIGN
      4919>>ASSIGN   4920<>CALL     4923>>ASSIGN   4941>>ASSIGN   4941>>ASSIGN   4953<<ASSIGN   5003<<ASSIGN
      5003<<ASSIGN   5017>>IF       5017>>IF
NODE_RANGE IN PROCEDURE IABS_NODE
      4592**DCL      4979<<ASSIGN   5026<>CALL
NODE_RANGE.ENDD IN PROCEDURE IABS_NODE
      4634**DCL      4987<<ASSIGN   5021<<ASSIGN
NODE_RANGE.START IN PROCEDURE IABS_NODE
      4606**DCL      4981<<ASSIGN   4987>>ASSIGN   4992<>CALL
NODE_RANGE.START.EOF IN PROCEDURE IABS_NODE
      4622**DCL      4983<<ASSIGN
NODE_RANGE.START.KEY IN PROCEDURE IABS_NODE
      4618**DCL      4984<<ASSIGN
NODE_RANGE.START.KEY.REP# IN PROCEDURE IABS_NODE
      4620**DCL      5003>>IF
NODE_RANGE.START.KEY.V$ IN PROCEDURE IABS_NODE
      4620**DCL      5003>>ASSIGN   5003--ASSIGN
NODE_RANGE.START.POSITION# IN PROCEDURE IABS_NODE
      4622**DCL      4982<<ASSIGN
NODE_RANGE IN PROCEDURE IREL_NODE
      4285**DCL      4429<<ASSIGN   4495<>CALL
NODE_RANGE.ENDD IN PROCEDURE IREL_NODE
      4327**DCL      4471<<ASSIGN   4491<<ASSIGN
NODE_RANGE.ENDD.EOF IN PROCEDURE IREL_NODE
      4343**DCL      4441<<ASSIGN
NODE_RANGE.START IN PROCEDURE IREL_NODE
PL6.E3A0      #003=VDE$IADJUST File=VDE$INTERPRET.:VDA5TSI                       FRI 07/04/97 11:11 Page:284
      4299**DCL      4471>>ASSIGN   4477<<ASSIGN   4486<>CALL     4488<<ASSIGN
NODE_RANGE.START.EOF IN PROCEDURE IREL_NODE
      4315**DCL      4440<<ASSIGN
NODE_RANGE.START.KEY IN PROCEDURE IREL_NODE
      4311**DCL      4470<<ASSIGN
NODE_RANGE IN PROCEDURE IREL_POSITION
      5185**DCL      5268<>CALL
NODE_RANGE.ENDD IN PROCEDURE IREL_POSITION
      5227**DCL      5254<<ASSIGN   5265<<ASSIGN
NODE_RANGE.ENDD.POSITION# IN PROCEDURE IREL_POSITION
      5243**DCL      5266<<ASSIGN   5266>>ASSIGN
NODE_RANGE.START IN PROCEDURE IREL_POSITION
      5199**DCL      5252<>CALL     5258<>CALL     5265>>ASSIGN   5272<>CALL
NODE_RANGE IN PROCEDURE IREL_POSITION_N
      5384**DCL      5571<>CALL
NODE_RANGE.ENDD IN PROCEDURE IREL_POSITION_N
      5426**DCL      5516<<ASSIGN   5566<<ASSIGN
NODE_RANGE.ENDD.POSITION# IN PROCEDURE IREL_POSITION_N
      5442**DCL      5567<<ASSIGN   5567>>ASSIGN
NODE_RANGE.START IN PROCEDURE IREL_POSITION_N
      5398**DCL      5515<<ASSIGN   5523<>CALL     5552<<ASSIGN   5556<<ASSIGN   5566>>ASSIGN
NODE_RANGE.START.KEY.REP# IN PROCEDURE IREL_POSITION_N
      5412**DCL      5537>>IF
NODE_RANGE.START.KEY.V$ IN PROCEDURE IREL_POSITION_N
      5412**DCL      5537>>ASSIGN   5537--ASSIGN
NODE_RANGE.START.POSITION# IN PROCEDURE IREL_POSITION_N
      5414**DCL      5562<<ASSIGN
NUMERIC_KEY IN PROCEDURE IABS_NODE
      4662**DCL      4898<<ASSIGN   4966>>ASSIGN
NUMERIC_KEY.BYTES# IN PROCEDURE IABS_NODE
      4666**DCL      4929<<ASSIGN   4932<<ASSIGN   4945<<ASSIGN   4945>>ASSIGN   4950>>IF       4950>>IF
      4952<<ASSIGN   4952>>ASSIGN
NUMERIC_KEY.LENGTH# IN PROCEDURE IABS_NODE
      4666**DCL      4965<<ASSIGN
NUMERIC_KEY.REP# IN PROCEDURE IABS_NODE
      4666**DCL      4964<<ASSIGN
PL6.E3A0      #003=VDE$IADJUST File=VDE$INTERPRET.:VDA5TSI                       FRI 07/04/97 11:11 Page:285
NUMERIC_KEY.TYPE# IN PROCEDURE IABS_NODE
      4666**DCL      4899<<ASSIGN   4900>>IF       4901>>DOCASE   4924>>IF       4948>>IF
OALLOC_FAILED IN PROCEDURE IABS_NODE
      5087**LABEL    5053--CALLALT  5066--CALLALT
OCLEAR_LOCATION_FAILED IN PROCEDURE IREL_NODE
      4498**LABEL    4499--CALLALT
OCLEAR_LOCATION_FAILED IN PROCEDURE IREL_POSITION
      5272**LABEL    5272--CALLALT
OCLEAR_LOCATION_FAILED IN PROCEDURE LOAD_EVAL_FROM_RANGE
      5881**LABEL    5869--CALLALT  5874--CALLALT  5886--CALLALT
OCLEAR_RANGE_FAILED
      4162**LABEL    4145--CALLALT
OCOPY_LOCATION_FAILED IN PROCEDURE IREL_NODE
      4498**LABEL    4486--CALLALT
OCOPY_LOCATION_FAILED IN PROCEDURE IREL_POSITION
      5272**LABEL    5252--CALLALT
OCOPY_LOCATION_FAILED IN PROCEDURE LOAD_EVAL_FROM_RANGE
      5881**LABEL    5877--CALLALT
OCOPY_RANGE_FAILED IN PROCEDURE LOAD_EVAL_FROM_RANGE
      5881**LABEL    5848--CALLALT
OPERAND
      2521**DCL       145--PROC     4139<>CALL
OPERAND.EVAL$
      2525**DCL      4032>>ASSIGN
OPERAND.INTREE$
      2525**DCL      4033>>ASSIGN
OPERAND.STREAM$
      2525**DCL      3277--IMP-PTR  4436>>CALL     4438>>IF       4465>>IF       4465>>ASSIGN   4465>>ASSIGN
      4477>>ASSIGN   4489>>CALL     4491>>ASSIGN   4899>>ASSIGN   4992>>CALL     4994>>IF       5014>>IF
      5014>>ASSIGN   5014>>ASSIGN   5019>>CALL     5021>>ASSIGN   5258>>CALL     5523>>CALL     5525>>IF
      5548>>IF       5548>>ASSIGN   5548>>ASSIGN   5556>>ASSIGN
ORIGINAL_LENGTH IN PROCEDURE IABS_NODE
      4670**DCL      4918<<ASSIGN   4923>>ASSIGN   4927>>IF       4934>>ASSIGN
OWNS_OBJECTS_LOC IN PROCEDURE IREL_NODE
      4354**DCL      4430<<ASSIGN   4486<>CALL     4488>>ASSIGN   4498>>IF       4499<>CALL
POINT_INDEX IN PROCEDURE IABS_NODE
PL6.E3A0      #003=VDE$IADJUST File=VDE$INTERPRET.:VDA5TSI                       FRI 07/04/97 11:11 Page:286
      4669**DCL      4917<<CALLBLT  4919>>ASSIGN   4927>>IF       4934>>ASSIGN   4941>>ASSIGN
PREAD_LO_NAME_FAILED
      4162**LABEL    4104--CALLALT
RANGE IN PROCEDURE LOAD_EVAL_FROM_RANGE
      5652**DCL      5642--PROC     5848<>CALL
REF$BLOCK_DESC.RANGE
      3433**DCL      4106<>CALL     4112<>CALL
REF_BLOCK_DESC$
      2654**DCL      3383--IMP-PTR  4104<>CALL     4106>>CALL     4111<<ASSIGN   4112>>CALL
SBIN_VALUE IN PROCEDURE IABS_NODE
      4671**DCL      4920<>CALL     4922>>IF       4925>>IF       4929>>ASSIGN   4931>>IF       4932>>ASSIGN
      4934<<ASSIGN   4936>>IF       4937>>IF       4941>>ASSIGN   4943<>CALL     4945>>ASSIGN
SIGNAL
      2564**DCL       145--PROC     4031<<ASSIGN   4139<>CALL     4141>>IF       4155>>IF       4428<<ASSIGN
      4439<<ASSIGN   4469<<ASSIGN   4476>>IF       5251<<ASSIGN   5258<>CALL     5263>>IF       5514<<ASSIGN
      5526<<ASSIGN   5553<<ASSIGN   5559>>IF
SKIP_COUNT IN PROCEDURE IREL_NODE
      4374**DCL      4432<<ASSIGN   4434<<ASSIGN   4434>>ASSIGN   4436<>CALL
SKIP_COUNT IN PROCEDURE IREL_POSITION
      5246**DCL      5255<<ASSIGN   5258<>CALL
SKIP_COUNT IN PROCEDURE IREL_POSITION_N
      5445**DCL      5518<<ASSIGN   5520<<ASSIGN   5520>>ASSIGN   5522>>IF       5523<>CALL
SRC$FOR_BOUND IN PROCEDURE LOAD_EVAL_FROM_RANGE
      5797**DCL      5871>>ASSIGN
SRC$FOR_ENDD IN PROCEDURE LOAD_EVAL_FROM_RANGE
      5825**DCL      5877<>CALL     5881>>ASSIGN   5886<>CALL
SRC_FOR_BOUND$ IN PROCEDURE LOAD_EVAL_FROM_RANGE
      5785**DCL      5797--IMP-PTR  5852<<ASSIGN   5859<<ASSIGN   5861<<ASSIGN   5865<<ASSIGN   5871>>ASSIGN
      5876>>IF       5885>>IF
SRC_FOR_ENDD$ IN PROCEDURE LOAD_EVAL_FROM_RANGE
      5786**DCL      5825--IMP-PTR  5853<<ASSIGN   5862<<ASSIGN   5866<<ASSIGN   5876>>IF       5877>>CALL
      5881>>ASSIGN   5885>>IF       5886>>CALL
STREAM
      3277**DCL      4436<>CALL     4489<>CALL     4992<>CALL     5019<>CALL     5258<>CALL     5523<>CALL
STREAM.CURRENT
      3328**DCL      4477>>ASSIGN   4491>>ASSIGN   5021>>ASSIGN   5556>>ASSIGN
PL6.E3A0      #003=VDE$IADJUST File=VDE$INTERPRET.:VDA5TSI                       FRI 07/04/97 11:11 Page:287
STREAM.CURRENT.EOF
      3344**DCL      4438>>IF       4994>>IF       5525>>IF
STREAM.CURRENT.KEY.REP#
      3342**DCL      4465>>IF       5014>>IF       5548>>IF
STREAM.CURRENT.KEY.V$
      3342**DCL      4465>>ASSIGN   4465--ASSIGN   5014>>ASSIGN   5014--ASSIGN   5548>>ASSIGN   5548--ASSIGN
STREAM.PORT$
      3303**DCL      4899>>ASSIGN
STREAM$KEY.BYTES IN PROCEDURE IABS_NODE
      4859**DCL      5017>>IF
STREAM$KEY.LENGTH# IN PROCEDURE IABS_NODE
      4857**DCL      4859--IMP-SIZ  5017>>IF
STREAM$KEY.BYTES IN PROCEDURE IREL_NODE
      4420**DCL      4468>>IF
STREAM$KEY.LENGTH# IN PROCEDURE IREL_NODE
      4418**DCL      4420--IMP-SIZ  4468>>IF
STREAM$KEY.BYTES IN PROCEDURE IREL_POSITION_N
      5491**DCL      5551>>IF
STREAM$KEY.LENGTH# IN PROCEDURE IREL_POSITION_N
      5489**DCL      5491--IMP-SIZ  5551>>IF
STREAM_KEY$ IN PROCEDURE IABS_NODE
      4814**DCL      4849--IMP-PTR  5014<<ASSIGN   5014<<ASSIGN   5017>>IF       5017>>IF
STREAM_KEY$ IN PROCEDURE IREL_NODE
      4376**DCL      4410--IMP-PTR  4465<<ASSIGN   4465<<ASSIGN   4468>>IF       4468>>IF
STREAM_KEY$ IN PROCEDURE IREL_POSITION_N
      5447**DCL      5481--IMP-PTR  5548<<ASSIGN   5548<<ASSIGN   5551>>IF       5551>>IF
STRING_KEY_ERROR IN PROCEDURE IABS_NODE
      5053**LABEL    5035--GOTO     5039--GOTO     5043--GOTO     5047--GOTO
SUBST$POINTER.OBJECT.CLASS#
      3660**DCL      5072<<ASSIGN
SUBST$POINTER.V$
      3662**DCL      5070<<ASSIGN   5087>>ASSIGN   5087>>CALL
SUBST_FIELD$
      2725**DCL      3583--IMP-PTR  3636--IMP-PTR  5058<<ASSIGN   5070>>ASSIGN   5072>>ASSIGN   5087>>ASSIGN
      5087>>CALL
TOS$EVAL.ENCLOSING
PL6.E3A0      #003=VDE$IADJUST File=VDE$INTERPRET.:VDA5TSI                       FRI 07/04/97 11:11 Page:288
      2796**DCL      4063<>CALL     4088<>CALL     5258<>CALL
TOS$EVAL.RANGE
      2865**DCL      4084<>CALL
TOS$EVAL.RANGE.ENDD
      2905**DCL      4038--ASSIGN   4046--ASSIGN   5874<>CALL     5877<>CALL     5881<<ASSIGN
TOS$EVAL.RANGE.START
      2877**DCL      4036--ASSIGN   4044--ASSIGN   4981>>ASSIGN
TOS$EVAL.REMAINING#
      2993**DCL      4442<<ASSIGN   4472<<ASSIGN
TOS$EVAL.STATE#
      2993**DCL      4035>>IF       4048>>IF       5857>>IF       5873>>IF
TOS$EVAL_BOUND
      3154**DCL      5869<>CALL     5871<<ASSIGN
TOS$EVAL_RELATIVE_TO
      3183**DCL      4436<>CALL     5252<>CALL     5515>>ASSIGN
TOS$EVAL_RELATIVE_TO.KEY.REP#
      3199**DCL      4454>>IF
TOS$EVAL_RELATIVE_TO.KEY.V$
      3199**DCL      4454>>ASSIGN   4454--ASSIGN
TOS_EVAL$
      2646**DCL      2759--IMP-PTR  4032<<ASSIGN   4035>>IF       4036>>ASSIGN   4038>>ASSIGN   4044>>ASSIGN
      4046>>ASSIGN   4048>>IF       4063>>CALL     4084>>CALL     4088>>CALL     4442>>ASSIGN   4472>>ASSIGN
      4981>>ASSIGN   5258>>CALL     5857>>IF       5873>>IF       5874>>CALL     5877>>CALL     5881>>ASSIGN
TOS_EVAL_BOUND$
      2648**DCL      3154--IMP-PTR  4036<<ASSIGN   4038<<ASSIGN   5869>>CALL     5871>>ASSIGN
TOS_EVAL_RELATIVE_TO$
      2649**DCL      3183--IMP-PTR  4044<<ASSIGN   4046<<ASSIGN   4436>>CALL     4454>>IF       4454>>ASSIGN
      4454>>ASSIGN   5252>>CALL     5515>>ASSIGN
VD$BUFFER.LENGTH#
      3862**DCL      3864--IMP-SIZ
VD$ERR
      3530**DCL      5058--ASSIGN
VD$ERR.ERR.CODE#
      3569**DCL      5055<<ASSIGN
VD$ERR.FLAGLEV#
      3572**DCL      5056<<ASSIGN
PL6.E3A0      #003=VDE$IADJUST File=VDE$INTERPRET.:VDA5TSI                       FRI 07/04/97 11:11 Page:289
VD$IT_ADJUST.MOVEMENTS$
      3808**DCL      4073>>IF       4073>>IF
VD$IT_ADJUST.MOVEMENTS_TAIL$
      3809**DCL      4073>>IF
VD$IT_SELECT.ADJUSTS$
      3772**DCL      4073>>IF       4073>>IF       4073>>IF       4073>>IF
VD$IT_SELECT.ADJUSTS_TAIL$
      3772**DCL      4073>>IF
VD$KEY IN PROCEDURE IABS_NODE
      4887**DCL      5066--CALL     5087<<ASSIGN
VD$KEY.V$ IN PROCEDURE IABS_NODE
      4891**DCL      5087<>CALL
VD$KEY_NUMBER.BYTES# IN PROCEDURE IREL_POSITION_N
      5508**DCL      5562>>ASSIGN
VD$PORT.LEVEL.KEY_TYPE#
      4009**DCL      4899>>ASSIGN
VD$STRING_HEADER
      3673**DCL      5066--CALL
VD$TEXTC_REMOTE
      3894**DCL      4961<>CALL     5087<>CALL
VD$TEXTC_REMOTE.LENGTH#
      3923**DCL      3925--IMP-SIZ  4101--ASSIGN   4454--ASSIGN   4465--ASSIGN   4912--ASSIGN   4961>>CALL
      5003--ASSIGN   5014--ASSIGN   5070--ASSIGN   5087>>CALL     5537--ASSIGN   5548--ASSIGN
VDA$LREAD
      2578**DCL-ENT  4436--CALL     4489--CALL     4992--CALL     5019--CALL     5523--CALL
VDE$IMOVE_BY_POSITIONS
      2576**DCL-ENT  5258--CALL
VDE$IPATTERN
      2577**DCL-ENT  4139--CALL
VDE$PREAD_LO_NAME
      2575**DCL-ENT  4104--CALL
VDG$ESCREECH
      2586**DCL-ENT  4151--CALL     4975--CALL     5065--CALL
VDG$OALLOC
      2579**DCL-ENT  5053--CALL     5066--CALL
VDG$OCLEAR_LOCATION
PL6.E3A0      #003=VDE$IADJUST File=VDE$INTERPRET.:VDA5TSI                       FRI 07/04/97 11:11 Page:290
      2584**DCL-ENT  4499--CALL     5272--CALL     5869--CALL     5874--CALL     5886--CALL
VDG$OCLEAR_RANGE
      2582**DCL-ENT  4145--CALL
VDG$OCOPY
      2581**DCL-ENT  5087--CALL
VDG$OCOPY_LOCATION
      2585**DCL-ENT  4486--CALL     5252--CALL     5877--CALL
VDG$OCOPY_RANGE
      2583**DCL-ENT  5848--CALL
VDG$OFREE
      2580**DCL-ENT  4961--CALL
VD_CMD_OBJECTS$
      2641**DCL      5060>>DOWHILE  5066<>CALL     5070>>ASSIGN
VD_ERR$
      2724**DCL      3530--IMP-PTR  5053<>CALL     5055>>ASSIGN   5056>>ASSIGN   5058>>ASSIGN
VD_KEY_NUMERIC_BOF
      2635**DCL      4470>>ASSIGN
X$DEC_CONVERT
      2587**DCL-ENT  4920--CALL     4943--CALL

