PL6.E3A0      #002=VDE$PPATTERN File=VDE$PARSE.:VDA5TSI                          FRI 07/04/97 11:14 Page:248
     2200        1        /*T***********************************************************/
     2201        2        /*T*                                                         */
     2202        3        /*T* Copyright (c) Bull HN Information Systems Inc., 1997    */
     2203        4        /*T*                                                         */
     2204        5        /*T***********************************************************/
     2205        6
     2206        7        /*D* NAME: VDE$PPATTERN
     2207        8            PARAMETERS:
     2208        9                PT_PATTERN - The T_PATTERN node.  This node must be either
     2209       10                    a .QUOTE node, or the root of a string expression.
     2210       11                PATTERN$ - An uninitialized pointer.
     2211       12            INPUT:
     2212       13                VD_$PATTERN - A VD$POINTER for the predefined name "$PATTERN".
     2213       14                    The value of this name must be either NIL or a pointer to
     2214       15                    a VD$PATTERN structure for the last pattern searched for.
     2215       16            OUTPUT:
     2216       17                PATTERN$ will contain a ptr to a VD$PATTERN structure
     2217       18                    containing the compiled pattern.
     2218       19                VD_$PATTERN.V$ will point to a copy of the VD$PATTERN for
     2219       20                    this pattern string.  Any structure pointed-to by
     2220       21                    VD_$PATTERN.V$ at entry will be freed.
     2221       22            DESCRIPTION:
     2222       23                The ParseTree for PT_PATTERN is:
     2223       24
     2224       25                   T_PATTERN                      T_PATTERN
     2225       26                       |          -- or --            |
     2226       27                    dstring                     T_STRING_EXPR
     2227       28                                                      |
     2228       29                                                   XUE_EXP#
     2229       30
     2230       31
     2231       32                If we have a dstring, set up to use the textc in the dstring node.
     2232       33                If we have an %XUE_EXP node, call VDE$PSTRING to evaluate it.
     2233       34                    By not passing a BUFFER$ parameter to VDE$PSTRING, we're
     2234       35                    telling it to just evaluate the expression.  Then
     2235       36                    set up to use the textc in XUE_ECB.
     2236       37                If the textc for the pattern string is an empty string
PL6.E3A0      #002=VDE$PPATTERN File=VDE$PARSE.:VDA5TSI                          FRI 07/04/97 11:14 Page:249
     2237       38                and VD_$PATTERN.V$ is non-NIL:
     2238       39                    Skip the compilation process altogether.  Just use the
     2239       40                        VD$PATTERN pointed-to by VD_$PATTERN.V$ as
     2240       41                        the pattern to search for.
     2241       42                Otherwise, compile the pattern expression into a VD$PATTERN
     2242       43                structure:
     2243       44                    Allocate and initialize the VD$PATTERN structure.
     2244       45                        We'll just make a guess as to how much storage to
     2245       46                        allocate; if it isn't enough, we'll free the old
     2246       47                        one, allocate a bigger one and try again.
     2247       48                    Call VDE$PPATT_STRING to build the VD$PATTERN from the textc
     2248       49                        for the pattern string.
     2249       50                Free any VD$PATTERN pointed-to by VD_$PATTERN.V$, and point
     2250       51                     VD_$PATTERN.V$ to a copy the VD$PATTERN just built.
     2251       52        */
     2252       53
     2253       54        VDE$PPATTERN: PROC (PT_PATTERN, PATTERN$) ALTRET;
     2254       55
     2255       56        %INCLUDE VD_MACROS_M;
     2256     2271        %INCLUDE VD_PERR_C;
     2257     2419        %INCLUDE VD_NODES0_E;
     2258     2511        %INCLUDE XU_MACRO_C;
     2259     5605        %INCLUDE XU_SUBS_C;
     2260     5697        %INCLUDE XUE_MACRO_C;
     2261     6441
     2262     6442        %PARSE$OUT (NAME=PT_PATTERN, STCLASS="");
     2263     6487    1   DCL PATTERN$ PTR;
     2264     6488
     2265     6489
     2266     6490    1   DCL VDE$PSTRING         ENTRY (5) ALTRET;
     2267     6491    1   DCL VDE$PPATT_STRING    ENTRY (4) ALTRET;
     2268     6492    1   DCL VDG$OALLOC          ENTRY (3) ALTRET;
     2269     6493    1   DCL VDG$OFREE           ENTRY (1) ALTRET;
     2270     6494    1   DCL VDG$OCOPY           ENTRY (2) ALTRET;
     2271     6495    1   DCL VDG$ESCREECH        ENTRY (3);
     2272     6496
     2273     6497
PL6.E3A0      #002=VDE$PPATTERN File=VDE$PARSE.:VDA5TSI                          FRI 07/04/97 11:14 Page:250
     2274     6498        %XUE_ECB (NAME=XUE_ECB, STCLASS=SYMREF);
     2275     6700        %VD$POINTER (NAME=VD_$PATTERN, STCLASS=SYMREF);
     2276     6745
     2277     6746
     2278     6747
     2279     6748    1   DCL PATT_STRING$ PTR;
     2280     6749    1   DCL MX_ENTRIES SBIN;
     2281     6750    1   DCL SCAN_INDEX SBIN;
     2282     6751    1   DCL NEED_MORE_ENTRIES BIT(1) ALIGNED;
     2283     6752
     2284     6753
     2285     6754        %VD$PATTERN (NAME=PATTERN, STCLASS="BASED(PATTERN$)");
     2286     6805        %PARSE$SYM (NAME=OUT$SYM, STCLASS=BASED);
     2287     6843        %PARSE$OUT (NAME=OUT$BLK, STCLASS=BASED);
     2288     6888        %VD$TEXTC (NAME=PATT$STRING, STCLASS="BASED(PATT_STRING$)");
     2289     6911
     2290     6912
     2291     6913
     2292     6914    1           PATTERN$ = ADDR(NIL);
     2293     6915    1           MX_ENTRIES = %N_PATTERN_ENTRIES_INCR;
     2294     6916
     2295     6917    1           IF PT_PATTERN.SUBLK$ (0) -> OUT$SYM.NDTYPE = %DSTRING# THEN
     2296     6918    1              PATT_STRING$ = PT_PATTERN.SUBLK$ (0) -> OUT$SYM.TEXTC$;
     2297     6919    2           ELSE DO;
     2298     6920    2              SCAN_INDEX = 0;
     2299     6921    2              CALL VDE$PSTRING (PT_PATTERN.SUBLK$(0)->OUT$BLK.SUBLK$(0)->
     2300     6922    2                OUT$BLK, SCAN_INDEX)
     2301     6923    2                ALTRET (PSTRING_FAILED);
     2302     6924    2              PATT_STRING$ = XUE_ECB.OUT$;
     2303     6925    2              END;
     2304     6926
     2305     6927    1           IF PATT$STRING.LENGTH# = 0 THEN
     2306     6928    2   USE_LAST_PATTERN: DO;
     2307     6929    2              PATTERN$ = VD_$PATTERN.V$;
     2308     6930    2              VD_$PATTERN.V$ = ADDR(NIL);
     2309     6931    2              END USE_LAST_PATTERN;
     2310     6932
PL6.E3A0      #002=VDE$PPATTERN File=VDE$PARSE.:VDA5TSI                          FRI 07/04/97 11:14 Page:251
     2311     6933
     2312     6934    1   BUILD_PATTERN:
     2313     6935    2           DO WHILE PATTERN$ = ADDR(NIL);
     2314     6936    2              CALL VDG$OALLOC (%CLS_PATTERN, PATTERN$,
     2315     6937    2                POFFW(ADDR(PATTERN.ENTRIES), ADDR(PATTERN)) +
     2316     6938    2                (MX_ENTRIES * SIZEW(PATTERN.ENTRIES)))
     2317     6939    2                ALTRET (OALLOC_FAILED);
     2318     6940    2              IF PATTERN.MX_ENTRIES# ~= MX_ENTRIES THEN
     2319     6941    2                 CALL VDG$ESCREECH (PATTERN.MX_ENTRIES#, MX_ENTRIES);
     2320     6942
     2321     6943    2              SCAN_INDEX = 0;
     2322     6944    2              CALL VDE$PPATT_STRING (PATT$STRING, SCAN_INDEX,
     2323     6945    2                PATTERN, NEED_MORE_ENTRIES)
     2324     6946    2                ALTRET (PPATT_STRING_FAILED);
     2325     6947    3              IF NEED_MORE_ENTRIES THEN DO;
     2326     6948    3                 CALL VDG$OFREE (PATTERN)
     2327     6949    3                   ALTRET (OFREE_FAILED);
     2328     6950    3                 PATTERN$ = ADDR(NIL);
     2329     6951    3                 MX_ENTRIES = MX_ENTRIES + %N_PATTERN_ENTRIES_INCR;
     2330     6952    3                 END;
     2331     6953    2              END BUILD_PATTERN;
     2332     6954
     2333     6955
     2334     6956    2           IF VD_$PATTERN.V$ ~= ADDR(NIL) THEN DO;
     2335     6957    2              CALL VDG$OFREE (VD_$PATTERN.V$ -> PATTERN)
     2336     6958    2                ALTRET (OFREE_FAILED);
     2337     6959    2              END;
     2338     6960    1           CALL VDG$OCOPY (PATTERN, VD_$PATTERN.V$)
     2339     6961    1             ALTRET (OCOPY_FAILED);
     2340     6962
     2341     6963    1           RETURN;
     2342     6964
     2343     6965
     2344     6966
     2345     6967    1   PPATT_STRING_FAILED:
     2346     6968    2           IF PATTERN$ ~= ADDR(NIL) THEN DO;
     2347     6969    2              CALL VDG$OFREE (PATTERN)
PL6.E3A0      #002=VDE$PPATTERN File=VDE$PARSE.:VDA5TSI                          FRI 07/04/97 11:14 Page:252
     2348     6970    2                ALTRET (OFREE_FAILED);
     2349     6971    2              PATTERN$ = ADDR(NIL);
     2350     6972    2              END;
     2351     6973    1           ALTRETURN;
     2352     6974
     2353     6975
     2354     6976    1   PSTRING_FAILED: ;
     2355     6977    1   OALLOC_FAILED: ;
     2356     6978    1   OFREE_FAILED: ;
     2357     6979    1   OCOPY_FAILED: ;
     2358     6980    1           ALTRETURN;
     2359     6981
     2360     6982    1   END VDE$PPATTERN;
     2361     6983        %EOD;

PL6.E3A0      #002=VDE$PPATTERN File=VDE$PARSE.:VDA5TSI                          FRI 07/04/97 11:14 Page:253
--  Include file information  --

   XUE_MACRO_C.:LIBRARY  is referenced.
   XU_SUBS_C.:LIBRARY  is referenced.
   XU_MACRO_C.:LIBRARY  is referenced.
   VD_NODES0_E.:VDA5TOU  is referenced.
   VD_PERR_C.:VDA5TOU  is referenced.
   VD_MACROS_M.:VDA5TOU  is referenced.
   B$JIT_C.:E04TOU  was found in the system file and is never referenced.
   CP_6_C.:E04TOU  was found in the system file and is never referenced.
      No diagnostics issued in procedure VDE$PPATTERN.

   Procedure VDE$PPATTERN requires 145 words for executable code.
   Procedure VDE$PPATTERN requires 18 words of local(AUTO) storage.

PL6.E3A0      #002=VDE$PPATTERN File=VDE$PARSE.:VDA5TSI                          FRI 07/04/97 11:14 Page:254

 Object Unit name= VDE$PPATTERN                               File name= VDE$PARSE.:VDA5TOU
 UTS= JUL 04 '97 11:14:51.60 FRI                              Compiler= PL-6/E31         Sev=      00
 SharedLib= :SHARED_SYSTEM                                    Alt SharedLib=


    ****  Control sections  ****

 Sect   Type Bound  Init  Size OctSiz  Section name(segment info)
    0   Proc  even  none   145    221  VDE$PPATTERN
    1  RoData even  none     4      4  VDE$PPATTERN

    ****  Entry defs  ****

                              Check   Calling
                             calling  sequence
  Sect OctLoc Primary Altret sequence   type   Parms  Name
     0      0   yes    yes     yes      Std        2  VDE$PPATTERN

  ****  Entry refs  ****

         Check        Calling
        calling       sequence
Altret sequence SRef   type   Args  Name
 yes     yes           Std       5 VDE$PSTRING
 yes     yes           Std       3 VDG$OALLOC
         yes           Std       3 VDG$ESCREECH
 yes     yes           Std       4 VDE$PPATT_STRING
 yes     yes           Std       1 VDG$OFREE
 yes     yes           Std       2 VDG$OCOPY
                       nStd      0 X66_AUTO_2
                       Std       0 B_CONSPOOL_D
                       nStd      0 X66_ARET
                       nStd      0 X66_AALT
PL6.E3A0      #002=VDE$PPATTERN File=VDE$PARSE.:VDA5TSI                          FRI 07/04/97 11:14 Page:255

  ****  Data refs  ****

  Flags:  r = read only, s = secondary
Flgs Name                             Flgs Name                             Flgs Name
     XUE_ECB                               VD_$PATTERN                           B_VECTNIL

  ****  Segment refs  ****

  Flags:  r = read only, s = secondary
Flgs Name                             Flgs Name                             Flgs Name
     ISSID
PL6.E3A0      #002=VDE$PPATTERN File=VDE$PARSE.:VDA5TSI                          FRI 07/04/97 11:14 Page:256


     2200        1        /*T***********************************************************/
     2201        2        /*T*                                                         */
     2202        3        /*T* Copyright (c) Bull HN Information Systems Inc., 1997    */
     2203        4        /*T*                                                         */
     2204        5        /*T***********************************************************/
     2205        6
     2206        7        /*D* NAME: VDE$PPATTERN
     2207        8            PARAMETERS:
     2208        9                PT_PATTERN - The T_PATTERN node.  This node must be either
     2209       10                    a .QUOTE node, or the root of a string expression.
     2210       11                PATTERN$ - An uninitialized pointer.
     2211       12            INPUT:
     2212       13                VD_$PATTERN - A VD$POINTER for the predefined name "$PATTERN".
     2213       14                    The value of this name must be either NIL or a pointer to
     2214       15                    a VD$PATTERN structure for the last pattern searched for.
     2215       16            OUTPUT:
     2216       17                PATTERN$ will contain a ptr to a VD$PATTERN structure
     2217       18                    containing the compiled pattern.
     2218       19                VD_$PATTERN.V$ will point to a copy of the VD$PATTERN for
     2219       20                    this pattern string.  Any structure pointed-to by
     2220       21                    VD_$PATTERN.V$ at entry will be freed.
     2221       22            DESCRIPTION:
     2222       23                The ParseTree for PT_PATTERN is:
     2223       24
     2224       25                   T_PATTERN                      T_PATTERN
     2225       26                       |          -- or --            |
     2226       27                    dstring                     T_STRING_EXPR
     2227       28                                                      |
     2228       29                                                   XUE_EXP#
     2229       30
     2230       31
     2231       32                If we have a dstring, set up to use the textc in the dstring node.
     2232       33                If we have an %XUE_EXP node, call VDE$PSTRING to evaluate it.
     2233       34                    By not passing a BUFFER$ parameter to VDE$PSTRING, we're
     2234       35                    telling it to just evaluate the expression.  Then
     2235       36                    set up to use the textc in XUE_ECB.
PL6.E3A0      #002=VDE$PPATTERN File=VDE$PARSE.:VDA5TSI                          FRI 07/04/97 11:14 Page:257
     2236       37                If the textc for the pattern string is an empty string
     2237       38                and VD_$PATTERN.V$ is non-NIL:
     2238       39                    Skip the compilation process altogether.  Just use the
     2239       40                        VD$PATTERN pointed-to by VD_$PATTERN.V$ as
     2240       41                        the pattern to search for.
     2241       42                Otherwise, compile the pattern expression into a VD$PATTERN
     2242       43                structure:
     2243       44                    Allocate and initialize the VD$PATTERN structure.
     2244       45                        We'll just make a guess as to how much storage to
     2245       46                        allocate; if it isn't enough, we'll free the old
     2246       47                        one, allocate a bigger one and try again.
     2247       48                    Call VDE$PPATT_STRING to build the VD$PATTERN from the textc
     2248       49                        for the pattern string.
     2249       50                Free any VD$PATTERN pointed-to by VD_$PATTERN.V$, and point
     2250       51                     VD_$PATTERN.V$ to a copy the VD$PATTERN just built.
     2251       52        */
     2252       53
     2253       54        VDE$PPATTERN: PROC (PT_PATTERN, PATTERN$) ALTRET;

     54  0 000000   000000 700200 xent  VDE$PPATTERN TSX0  ! X66_AUTO_2
         0 000001   000022 000002                    ZERO    18,2

     2254       55
     2255       56        %INCLUDE VD_MACROS_M;
     2256     2271        %INCLUDE VD_PERR_C;
     2257     2419        %INCLUDE VD_NODES0_E;
     2258     2511        %INCLUDE XU_MACRO_C;
     2259     5605        %INCLUDE XU_SUBS_C;
     2260     5697        %INCLUDE XUE_MACRO_C;
     2261     6441
     2262     6442        %PARSE$OUT (NAME=PT_PATTERN, STCLASS="");
     2263     6487    1   DCL PATTERN$ PTR;
     2264     6488
     2265     6489
     2266     6490    1   DCL VDE$PSTRING         ENTRY (5) ALTRET;
     2267     6491    1   DCL VDE$PPATT_STRING    ENTRY (4) ALTRET;
     2268     6492    1   DCL VDG$OALLOC          ENTRY (3) ALTRET;
PL6.E3A0      #002=VDE$PPATTERN File=VDE$PARSE.:VDA5TSI                          FRI 07/04/97 11:14 Page:258
     2269     6493    1   DCL VDG$OFREE           ENTRY (1) ALTRET;
     2270     6494    1   DCL VDG$OCOPY           ENTRY (2) ALTRET;
     2271     6495    1   DCL VDG$ESCREECH        ENTRY (3);
     2272     6496
     2273     6497
     2274     6498        %XUE_ECB (NAME=XUE_ECB, STCLASS=SYMREF);
     2275     6700        %VD$POINTER (NAME=VD_$PATTERN, STCLASS=SYMREF);
     2276     6745
     2277     6746
     2278     6747
     2279     6748    1   DCL PATT_STRING$ PTR;
     2280     6749    1   DCL MX_ENTRIES SBIN;
     2281     6750    1   DCL SCAN_INDEX SBIN;
     2282     6751    1   DCL NEED_MORE_ENTRIES BIT(1) ALIGNED;
     2283     6752
     2284     6753
     2285     6754        %VD$PATTERN (NAME=PATTERN, STCLASS="BASED(PATTERN$)");
     2286     6805        %PARSE$SYM (NAME=OUT$SYM, STCLASS=BASED);
     2287     6843        %PARSE$OUT (NAME=OUT$BLK, STCLASS=BASED);
     2288     6888        %VD$TEXTC (NAME=PATT$STRING, STCLASS="BASED(PATT_STRING$)");
     2289     6911
     2290     6912
     2291     6913
     2292     6914    1           PATTERN$ = ADDR(NIL);

   6914  0 000002   000001 236000 xsym               LDQ     B_VECTNIL+1
         0 000003   200004 470500                    LDP0    @PATTERN$,,AUTO
         0 000004   000000 756100                    STQ     0,,PR0

     2293     6915    1           MX_ENTRIES = %N_PATTERN_ENTRIES_INCR;

   6915  0 000005   000024 235007                    LDA     20,DL
         0 000006   200006 755100                    STA     MX_ENTRIES,,AUTO

     2294     6916
     2295     6917    1           IF PT_PATTERN.SUBLK$ (0) -> OUT$SYM.NDTYPE = %DSTRING# THEN

PL6.E3A0      #002=VDE$PPATTERN File=VDE$PARSE.:VDA5TSI                          FRI 07/04/97 11:14 Page:259
   6917  0 000007   200003 471500                    LDP1    @PT_PATTERN,,AUTO
         0 000010   100003 473500                    LDP3    3,,PR1
         0 000011   300000 236100                    LDQ     0,,PR3
         0 000012   000077 376003                    ANQ     63,DU
         0 000013   000005 116003                    CMPQ    5,DU
         0 000014   000020 601000 0                  TNZ     s:6920

     2296     6918    1              PATT_STRING$ = PT_PATTERN.SUBLK$ (0) -> OUT$SYM.TEXTC$;

   6918  0 000015   300003 236100                    LDQ     3,,PR3
         0 000016   200005 756100                    STQ     PATT_STRING$,,AUTO
         0 000017   000034 710000 0                  TRA     s:6927

     2297     6919    2           ELSE DO;

     2298     6920    2              SCAN_INDEX = 0;

   6920  0 000020   200007 450100                    STZ     SCAN_INDEX,,AUTO

     2299     6921    2              CALL VDE$PSTRING (PT_PATTERN.SUBLK$(0)->OUT$BLK.SUBLK$(0)->

   6921  0 000021   100003 473500                    LDP3    3,,PR1
         0 000022   300003 474500                    LDP4    3,,PR3
         0 000023   200007 635500                    EPPR5   SCAN_INDEX,,AUTO
         0 000024   200013 455500                    STP5    NEED_MORE_ENTRIES+3,,AUTO
         0 000025   200012 454500                    STP4    NEED_MORE_ENTRIES+2,,AUTO
         0 000026   200012 630500                    EPPR0   NEED_MORE_ENTRIES+2,,AUTO
         0 000027   000020 631400 xsym               EPPR1   B_VECTNIL+16
         0 000030   000000 701000 xent               TSX1    VDE$PSTRING
         0 000031   000220 702000 0                  TSX2    PSTRING_FAILED

     2300     6922    2                OUT$BLK, SCAN_INDEX)
     2301     6923    2                ALTRET (PSTRING_FAILED);
     2302     6924    2              PATT_STRING$ = XUE_ECB.OUT$;

   6924  0 000032   000004 236000 xsym               LDQ     XUE_ECB+4
         0 000033   200005 756100                    STQ     PATT_STRING$,,AUTO
PL6.E3A0      #002=VDE$PPATTERN File=VDE$PARSE.:VDA5TSI                          FRI 07/04/97 11:14 Page:260

     2303     6925    2              END;

     2304     6926
     2305     6927    1           IF PATT$STRING.LENGTH# = 0 THEN

   6927  0 000034   200005 470500                    LDP0    PATT_STRING$,,AUTO
         0 000035   000000 236100                    LDQ     0,,PR0
         0 000036   777000 316003                    CANQ    -512,DU
         0 000037   000045 601000 0                  TNZ     BUILD_PATTERN

     2306     6928    2   USE_LAST_PATTERN: DO;

   6928  0 000040                       USE_LAST_PA* null
     2307     6929    2              PATTERN$ = VD_$PATTERN.V$;

   6929  0 000040   000003 236000 xsym               LDQ     VD_$PATTERN+3
         0 000041   200004 471500                    LDP1    @PATTERN$,,AUTO
         0 000042   100000 756100                    STQ     0,,PR1

     2308     6930    2              VD_$PATTERN.V$ = ADDR(NIL);

   6930  0 000043   000001 236000 xsym               LDQ     B_VECTNIL+1
         0 000044   000003 756000 xsym               STQ     VD_$PATTERN+3

     2309     6931    2              END USE_LAST_PATTERN;

     2310     6932
     2311     6933
     2312     6934    1   BUILD_PATTERN:
     2313     6935    2           DO WHILE PATTERN$ = ADDR(NIL);

   6935  0 000045   000155 710000 0     BUILD_PATTE* TRA     s:6953

     2314     6936    2              CALL VDG$OALLOC (%CLS_PATTERN, PATTERN$,

   6936  0 000046   200004 470500                    LDP0    @PATTERN$,,AUTO
PL6.E3A0      #002=VDE$PPATTERN File=VDE$PARSE.:VDA5TSI                          FRI 07/04/97 11:14 Page:261
         0 000047   000000 471500                    LDP1    0,,PR0
         0 000050   200012 451500                    STP1    NEED_MORE_ENTRIES+2,,AUTO
         0 000051   200012 236100                    LDQ     NEED_MORE_ENTRIES+2,,AUTO
         0 000052   000022 772000                    QRL     18
         0 000053   200013 451500                    STP1    NEED_MORE_ENTRIES+3,,AUTO
         0 000054   200014 756100                    STQ     NEED_MORE_ENTRIES+4,,AUTO
         0 000055   200013 236100                    LDQ     NEED_MORE_ENTRIES+3,,AUTO
         0 000056   000003 036003                    ADLQ    3,DU
         0 000057   000022 772000                    QRL     18
         0 000060   200014 136100                    SBLQ    NEED_MORE_ENTRIES+4,,AUTO
         0 000061   200015 756100                    STQ     NEED_MORE_ENTRIES+5,,AUTO
         0 000062   200006 236100                    LDQ     MX_ENTRIES,,AUTO
         0 000063   000002 736000                    QLS     2
         0 000064   200015 036100                    ADLQ    NEED_MORE_ENTRIES+5,,AUTO
         0 000065   200016 756100                    STQ     NEED_MORE_ENTRIES+6,,AUTO
         0 000066   200016 633500                    EPPR3   NEED_MORE_ENTRIES+6,,AUTO
         0 000067   200021 453500                    STP3    NEED_MORE_ENTRIES+9,,AUTO
         0 000070   200004 236100                    LDQ     @PATTERN$,,AUTO
         0 000071   200020 756100                    STQ     NEED_MORE_ENTRIES+8,,AUTO
         0 000072   000001 236000 1                  LDQ     1
         0 000073   200017 756100                    STQ     NEED_MORE_ENTRIES+7,,AUTO
         0 000074   200017 630500                    EPPR0   NEED_MORE_ENTRIES+7,,AUTO
         0 000075   000021 631400 xsym               EPPR1   B_VECTNIL+17
         0 000076   000000 701000 xent               TSX1    VDG$OALLOC
         0 000077   000220 702000 0                  TSX2    PSTRING_FAILED

     2315     6937    2                POFFW(ADDR(PATTERN.ENTRIES), ADDR(PATTERN)) +
     2316     6938    2                (MX_ENTRIES * SIZEW(PATTERN.ENTRIES)))
     2317     6939    2                ALTRET (OALLOC_FAILED);
     2318     6940    2              IF PATTERN.MX_ENTRIES# ~= MX_ENTRIES THEN

   6940  0 000100   200004 470500                    LDP0    @PATTERN$,,AUTO
         0 000101   000000 471500                    LDP1    0,,PR0
         0 000102   100002 236100                    LDQ     2,,PR1
         0 000103   000022 736000                    QLS     18
         0 000104   000022 732000                    QRS     18
         0 000105   200006 116100                    CMPQ    MX_ENTRIES,,AUTO
PL6.E3A0      #002=VDE$PPATTERN File=VDE$PARSE.:VDA5TSI                          FRI 07/04/97 11:14 Page:262
         0 000106   000121 600000 0                  TZE     s:6943

     2319     6941    2                 CALL VDG$ESCREECH (PATTERN.MX_ENTRIES#, MX_ENTRIES);

   6941  0 000107   200006 633500                    EPPR3   MX_ENTRIES,,AUTO
         0 000110   200013 453500                    STP3    NEED_MORE_ENTRIES+3,,AUTO
         0 000111   200014 451500                    STP1    NEED_MORE_ENTRIES+4,,AUTO
         0 000112   200014 236100                    LDQ     NEED_MORE_ENTRIES+4,,AUTO
         0 000113   000002 036000 1                  ADLQ    2
         0 000114   200012 756100                    STQ     NEED_MORE_ENTRIES+2,,AUTO
         0 000115   200012 630500                    EPPR0   NEED_MORE_ENTRIES+2,,AUTO
         0 000116   000020 631400 xsym               EPPR1   B_VECTNIL+16
         0 000117   000000 701000 xent               TSX1    VDG$ESCREECH
         0 000120   000000 011000                    NOP     0

     2320     6942
     2321     6943    2              SCAN_INDEX = 0;

   6943  0 000121   200007 450100                    STZ     SCAN_INDEX,,AUTO

     2322     6944    2              CALL VDE$PPATT_STRING (PATT$STRING, SCAN_INDEX,

   6944  0 000122   200004 470500                    LDP0    @PATTERN$,,AUTO
         0 000123   000000 471500                    LDP1    0,,PR0
         0 000124   200010 633500                    EPPR3   NEED_MORE_ENTRIES,,AUTO
         0 000125   200015 453500                    STP3    NEED_MORE_ENTRIES+5,,AUTO
         0 000126   200014 451500                    STP1    NEED_MORE_ENTRIES+4,,AUTO
         0 000127   200007 634500                    EPPR4   SCAN_INDEX,,AUTO
         0 000130   200013 454500                    STP4    NEED_MORE_ENTRIES+3,,AUTO
         0 000131   200005 236100                    LDQ     PATT_STRING$,,AUTO
         0 000132   200012 756100                    STQ     NEED_MORE_ENTRIES+2,,AUTO
         0 000133   200012 630500                    EPPR0   NEED_MORE_ENTRIES+2,,AUTO
         0 000134   000022 631400 xsym               EPPR1   B_VECTNIL+18
         0 000135   000000 701000 xent               TSX1    VDE$PPATT_STRING
         0 000136   000202 702000 0                  TSX2    PPATT_STRING_FAILED

     2323     6945    2                PATTERN, NEED_MORE_ENTRIES)
PL6.E3A0      #002=VDE$PPATTERN File=VDE$PARSE.:VDA5TSI                          FRI 07/04/97 11:14 Page:263
     2324     6946    2                ALTRET (PPATT_STRING_FAILED);
     2325     6947    3              IF NEED_MORE_ENTRIES THEN DO;

   6947  0 000137   200010 234100                    SZN     NEED_MORE_ENTRIES,,AUTO
         0 000140   000155 605000 0                  TPL     s:6953

     2326     6948    3                 CALL VDG$OFREE (PATTERN)

   6948  0 000141   200004 470500                    LDP0    @PATTERN$,,AUTO
         0 000142   000000 471500                    LDP1    0,,PR0
         0 000143   200012 451500                    STP1    NEED_MORE_ENTRIES+2,,AUTO
         0 000144   200012 630500                    EPPR0   NEED_MORE_ENTRIES+2,,AUTO
         0 000145   000017 631400 xsym               EPPR1   B_VECTNIL+15
         0 000146   000000 701000 xent               TSX1    VDG$OFREE
         0 000147   000220 702000 0                  TSX2    PSTRING_FAILED

     2327     6949    3                   ALTRET (OFREE_FAILED);
     2328     6950    3                 PATTERN$ = ADDR(NIL);

   6950  0 000150   000001 236000 xsym               LDQ     B_VECTNIL+1
         0 000151   200004 470500                    LDP0    @PATTERN$,,AUTO
         0 000152   000000 756100                    STQ     0,,PR0

     2329     6951    3                 MX_ENTRIES = MX_ENTRIES + %N_PATTERN_ENTRIES_INCR;

   6951  0 000153   000024 236007                    LDQ     20,DL
         0 000154   200006 056100                    ASQ     MX_ENTRIES,,AUTO

     2330     6952    3                 END;

     2331     6953    2              END BUILD_PATTERN;

   6953  0 000155   200004 470500                    LDP0    @PATTERN$,,AUTO
         0 000156   000000 236100                    LDQ     0,,PR0
         0 000157   000001 116000 xsym               CMPQ    B_VECTNIL+1
         0 000160   000046 600000 0                  TZE     s:6936

PL6.E3A0      #002=VDE$PPATTERN File=VDE$PARSE.:VDA5TSI                          FRI 07/04/97 11:14 Page:264
     2332     6954
     2333     6955
     2334     6956    2           IF VD_$PATTERN.V$ ~= ADDR(NIL) THEN DO;

   6956  0 000161   000003 236000 xsym               LDQ     VD_$PATTERN+3
         0 000162   000001 116000 xsym               CMPQ    B_VECTNIL+1
         0 000163   000170 600000 0                  TZE     s:6960

     2335     6957    2              CALL VDG$OFREE (VD_$PATTERN.V$ -> PATTERN)

   6957  0 000164   000003 630400 xsym               EPPR0   VD_$PATTERN+3
         0 000165   000017 631400 xsym               EPPR1   B_VECTNIL+15
         0 000166   000000 701000 xent               TSX1    VDG$OFREE
         0 000167   000220 702000 0                  TSX2    PSTRING_FAILED

     2336     6958    2                ALTRET (OFREE_FAILED);
     2337     6959    2              END;

     2338     6960    1           CALL VDG$OCOPY (PATTERN, VD_$PATTERN.V$)

   6960  0 000170   200004 470500                    LDP0    @PATTERN$,,AUTO
         0 000171   000000 471500                    LDP1    0,,PR0
         0 000172   000003 236000 1                  LDQ     3
         0 000173   200013 756100                    STQ     NEED_MORE_ENTRIES+3,,AUTO
         0 000174   200012 451500                    STP1    NEED_MORE_ENTRIES+2,,AUTO
         0 000175   200012 630500                    EPPR0   NEED_MORE_ENTRIES+2,,AUTO
         0 000176   000020 631400 xsym               EPPR1   B_VECTNIL+16
         0 000177   000000 701000 xent               TSX1    VDG$OCOPY
         0 000200   000220 702000 0                  TSX2    PSTRING_FAILED

     2339     6961    1             ALTRET (OCOPY_FAILED);
     2340     6962
     2341     6963    1           RETURN;

   6963  0 000201   000000 702200 xent               TSX2  ! X66_ARET

     2342     6964
PL6.E3A0      #002=VDE$PPATTERN File=VDE$PARSE.:VDA5TSI                          FRI 07/04/97 11:14 Page:265
     2343     6965
     2344     6966
     2345     6967    1   PPATT_STRING_FAILED:
     2346     6968    2           IF PATTERN$ ~= ADDR(NIL) THEN DO;

   6968  0 000202   200004 470500       PPATT_STRIN* LDP0    @PATTERN$,,AUTO
         0 000203   000000 236100                    LDQ     0,,PR0
         0 000204   000001 116000 xsym               CMPQ    B_VECTNIL+1
         0 000205   000217 600000 0                  TZE     s:6973

     2347     6969    2              CALL VDG$OFREE (PATTERN)

   6969  0 000206   000000 471500                    LDP1    0,,PR0
         0 000207   200012 451500                    STP1    NEED_MORE_ENTRIES+2,,AUTO
         0 000210   200012 630500                    EPPR0   NEED_MORE_ENTRIES+2,,AUTO
         0 000211   000017 631400 xsym               EPPR1   B_VECTNIL+15
         0 000212   000000 701000 xent               TSX1    VDG$OFREE
         0 000213   000220 702000 0                  TSX2    PSTRING_FAILED

     2348     6970    2                ALTRET (OFREE_FAILED);
     2349     6971    2              PATTERN$ = ADDR(NIL);

   6971  0 000214   000001 236000 xsym               LDQ     B_VECTNIL+1
         0 000215   200004 470500                    LDP0    @PATTERN$,,AUTO
         0 000216   000000 756100                    STQ     0,,PR0

     2350     6972    2              END;

     2351     6973    1           ALTRETURN;

   6973  0 000217   000000 702200 xent               TSX2  ! X66_AALT

   6968  0 000220                       PSTRING_FAI* null
   6968  0 000220                       OALLOC_FAIL* null
   6968  0 000220                       OFREE_FAILED null
   6968  0 000220                       OCOPY_FAILED null
     2352     6974
PL6.E3A0      #002=VDE$PPATTERN File=VDE$PARSE.:VDA5TSI                          FRI 07/04/97 11:14 Page:266
     2353     6975
     2354     6976    1   PSTRING_FAILED: ;
     2355     6977    1   OALLOC_FAILED: ;
     2356     6978    1   OFREE_FAILED: ;
     2357     6979    1   OCOPY_FAILED: ;
     2358     6980    1           ALTRETURN;

   6980  0 000220   000000 702200 xent               TSX2  ! X66_AALT
     2359     6981
     2360     6982    1   END VDE$PPATTERN;
     2361     6983        %EOD;

PL6.E3A0      #002=VDE$PPATTERN File=VDE$PARSE.:VDA5TSI                          FRI 07/04/97 11:14 Page:267
--  Include file information  --

   XUE_MACRO_C.:LIBRARY  is referenced.
   XU_SUBS_C.:LIBRARY  is referenced.
   XU_MACRO_C.:LIBRARY  is referenced.
   VD_NODES0_E.:VDA5TOU  is referenced.
   VD_PERR_C.:VDA5TOU  is referenced.
   VD_MACROS_M.:VDA5TOU  is referenced.
   B$JIT_C.:E04TOU  was found in the system file and is never referenced.
   CP_6_C.:E04TOU  was found in the system file and is never referenced.
      No diagnostics issued in procedure VDE$PPATTERN.
PL6.E3A0      #002=VDE$PPATTERN File=VDE$PARSE.:VDA5TSI                          FRI 07/04/97 11:14 Page:268

 **** Variables and constants ****

  ****  Auto variables  ****

  ****  Scalars and arrays  ****
OctLoc.c.b A Datatyp(siz) R M Lvl/name                 OctLoc.c.b A Datatyp(siz) R M Lvl/name

     4-0-0/w PTR         r     1 @PATTERN$                  3-0-0/w PTR         r     1 @PT_PATTERN
     6-0-0/w SBIN        r     1 MX_ENTRIES                10-0-0/w BIT         r     1 NEED_MORE_ENTRIES
    *0-0-0/w PTR         r     1 PATTERN$                   5-0-0/w PTR         r     1 PATT_STRING$
    *0-0-0/w STRC(144)   r     1 PT_PATTERN                 7-0-0/w SBIN        r     1 SCAN_INDEX

  ****  SYMREF variables  ****

  ****  Scalars and arrays  ****
OctLoc.c.b A Datatyp(siz) R M Lvl/name                 OctLoc.c.b A Datatyp(siz) R M Lvl/name

     0-0-0/w STRC(144)   r     1 VD_$PATTERN                0-0-0/d STRC(1008)  r     1 XUE_ECB

  ****  BASED and DCB variables  ****

  ****  Scalars and arrays  ****
OctLoc.c.b A Datatyp(siz) R M Lvl/name                 OctLoc.c.b A Datatyp(siz) R M Lvl/name

     0-0-0/w STRC(144)   r     1 OUT$BLK                    0-0-0/w ASTR(153)   r     1 OUT$SYM
     0-0-0/w ASTR(9)     r     1 PATT$STRING                0-0-0/w STRC(252)   r     1 PATTERN


   Procedure VDE$PPATTERN requires 145 words for executable code.
   Procedure VDE$PPATTERN requires 18 words of local(AUTO) storage.
PL6.E3A0      #002=VDE$PPATTERN File=VDE$PARSE.:VDA5TSI                          FRI 07/04/97 11:14 Page:269
          *** CROSS REFERENCE LISTING ***
**     DENOTES     IDENTIFIER DEFINITION
<<                 IDENTIFIER'S VALUE SET
>>                 IDENTIFIER'S VALUE USED
<>                 IDENTIFIER SET AND/OR USED
--                 IDENTIFIER REFERENCED
PL6.E3A0      #002=VDE$PPATTERN File=VDE$PARSE.:VDA5TSI                          FRI 07/04/97 11:14 Page:270
          MINI XREF LISTING

MX_ENTRIES
      6749**DCL      6915<<ASSIGN   6936>>CALL     6940>>IF       6941<>CALL     6951<<ASSIGN   6951>>ASSIGN
NEED_MORE_ENTRIES
      6751**DCL      6944<>CALL     6947>>IF
OALLOC_FAILED
      6968**LABEL    6936--CALLALT
OCOPY_FAILED
      6968**LABEL    6960--CALLALT
OFREE_FAILED
      6968**LABEL    6948--CALLALT  6957--CALLALT  6969--CALLALT
OUT$BLK
      6849**DCL      6921<>CALL
OUT$BLK.SUBLK$
      6882**DCL      6921>>CALL
OUT$SYM.COUNT
      6835**DCL      6838--IMP-SIZ
OUT$SYM.NDTYPE
      6815**DCL      6917>>IF
OUT$SYM.TEXTC$
      6830**DCL      6918>>ASSIGN
PATT$STRING
      6896**DCL      6944<>CALL
PATT$STRING.LENGTH#
      6904**DCL      6906--IMP-SIZ  6927>>IF       6944>>CALL
PATTERN
      6762**DCL      6936--CALL     6944<>CALL     6948<>CALL     6957<>CALL     6960<>CALL     6969<>CALL
PATTERN.ENTRIES
      6799**DCL      6936--CALL     6936--CALL
PATTERN.MX_ENTRIES#
      6788**DCL      6940>>IF       6941<>CALL
PATTERN$
      6487**DCL        54--PROC     6762--IMP-PTR  6914<<ASSIGN   6929<<ASSIGN   6935>>DOWHILE  6936<>CALL
PL6.E3A0      #002=VDE$PPATTERN File=VDE$PARSE.:VDA5TSI                          FRI 07/04/97 11:14 Page:271
      6936>>CALL     6936>>CALL     6940>>IF       6941>>CALL     6944>>CALL     6948>>CALL     6950<<ASSIGN
      6960>>CALL     6968>>IF       6969>>CALL     6971<<ASSIGN
PATT_STRING$
      6748**DCL      6896--IMP-PTR  6918<<ASSIGN   6924<<ASSIGN   6927>>IF       6944>>CALL     6944>>CALL
PPATT_STRING_FAILED
      6968**LABEL    6944--CALLALT
PSTRING_FAILED
      6968**LABEL    6921--CALLALT
PT_PATTERN
      6448**DCL        54--PROC
PT_PATTERN.SUBLK$
      6481**DCL      6917>>IF       6918>>ASSIGN   6921>>CALL
SCAN_INDEX
      6750**DCL      6920<<ASSIGN   6921<>CALL     6943<<ASSIGN   6944<>CALL
VDE$PPATT_STRING
      6491**DCL-ENT  6944--CALL
VDE$PSTRING
      6490**DCL-ENT  6921--CALL
VDG$ESCREECH
      6495**DCL-ENT  6941--CALL
VDG$OALLOC
      6492**DCL-ENT  6936--CALL
VDG$OCOPY
      6494**DCL-ENT  6960--CALL
VDG$OFREE
      6493**DCL-ENT  6948--CALL     6957--CALL     6969--CALL
VD_$PATTERN.V$
      6742**DCL      6929>>ASSIGN   6930<<ASSIGN   6956>>IF       6957>>CALL     6960<>CALL
XUE_ECB.OUT$
      6544**DCL      6924>>ASSIGN

PL6.E3A0      #003=VDE$PPATT_STRING File=VDE$PARSE.:VDA5TSI                      FRI 07/04/97 11:15 Page:272
     2362        1        /*T***********************************************************/
     2363        2        /*T*                                                         */
     2364        3        /*T* Copyright (c) Bull HN Information Systems Inc., 1997    */
     2365        4        /*T*                                                         */
     2366        5        /*T***********************************************************/
     2367        6
     2368        7        /*D* NAME: VDE$PPATT_STRING
     2369        8            PARAMETERS:
     2370        9                PATT_STRING - VD$TEXTC containing the pattern string.
     2371       10                SCAN_INDEX - Index into PATT_STRING.BYTES of the next byte to
     2372       11                    process.
     2373       12                PATTERN - A %VD$PATTERN structure for the pattern so far.
     2374       13                NEED_MORE_ENTRIES - Uninitialized BIT(1) ALIGNED flag.
     2375       14            INPUT:
     2376       15            OUTPUT:
     2377       16                SCAN_INDEX will contain the index into PATT_STRING.BYTES of
     2378       17                    the next byte to process.
     2379       18                PATTERN.N_ENTRIES# and the appropriate .ENTRIES will be filled
     2380       19                    from the pattern string specified by PATT_STRING.
     2381       20                NEED_MORE_ENTRIES will be %TRUE if we ran out of room for
     2382       21                    new entries in PATTERN; else %FALSE.
     2383       22            DESCRIPTION:
     2384       23                Find the next $CONTROL-function in the pattern string.
     2385       24                Call VDG$EXEC_CONTROL to execute the function.  If the
     2386       25                    function is executed entirely by VDG$EXEC_CONTROL,
     2387       26                    loop to find the next $CONTROL function (if any).
     2388       27                When we find a $CONTROL_FUNCTION which VDG$EXEC_CONTROL
     2389       28                    doesn't execute entirely, add a %PS_LITERAL entry to
     2390       29                    PATTERN for the characters of PATT_STRING between the
     2391       30                    last $CONTROL pattern-function and this one.
     2392       31                    Then build a PATTERN entry for the pattern-function:
     2393       32                    $CONTROL-Value - If it has less than two parameters,
     2394       33                        VDG$EXEC_CONTROL will have executed it; if we get
     2395       34                        control, the function has two parameters.
     2396       35                        Build a %PS_VALUE entry for it.
     2397       36                    $CONTROL-Record - Build a %PS_RECORD entry.
     2398       37                    $CONTROL-Current - Build a %PS_CURRENT entry.
PL6.E3A0      #003=VDE$PPATT_STRING File=VDE$PARSE.:VDA5TSI                      FRI 07/04/97 11:15 Page:273
     2399       38                    $CONTROL-Wild String (%?) - Build a %PS_WILD_STRING entry
     2400       39                        with .M = 0 and .N = %INFINITY.
     2401       40                    $CONTROL-Wild Char (?W) - Build a %PS_WILD_STRING entry
     2402       41                        with .M and .N as given in the function invocation.
     2403       42        *N*         $CONTROL-Set of Sequences or -Cases or whatever we
     2404       43        *N*             eventually decide on:
     2405       44        *N*             If this is the "end-of-set" function, just return.
     2406       45        *N*             If this is the "start-of-set" function, allocate
     2407       46        *N*             a new VD$PATTERN and build a %PS_PATTERN entry in
     2408       47        *N*             PATTERN to point to it, then call myself recursively
     2409       48        *N*             to build the nested pattern.
     2410       49        *N*             If this is the "next-case" function, allocate a
     2411       50        *N*             new VD$PATTERN and build a %PS_PATTERN entry in
     2412       51        *N*             PATTERN to point to it, with the ALTERNATIVE bit set.
     2413       52        *N*             Then call myself recursively to build the nested
     2414       53        *N*             pattern alternative.
     2415       54                    $CONTROL-BO Match - Build a %PS_BO_MATCH entry.
     2416       55                    $CONTROL-EO Match - Build a %PS_EO_MATCH entry.
     2417       56                Continue to scan for $CONTROL functions, processing the
     2418       57                    intervening characters as %PS_LITERAL entries and the
     2419       58                    $CONTROL functions as described above.
     2420       59        */
     2421       60
     2422       61        VDE$PPATT_STRING: PROC (PATT_STRING, SCAN_INDEX, PATTERN,
     2423       62                  NEED_MORE_ENTRIES) ALTRET;
     2424       63
     2425       64        %INCLUDE VD_MACROS_M;
     2426     2279        %INCLUDE VD_PERR_C;
     2427     2427        %INCLUDE XU_MACRO_C;
     2428     5521        %INCLUDE XU_SUBS_C;
     2429     5613
     2430     5614
     2431     5615        %VD$TEXTC (NAME=PATT_STRING, STCLASS=PARAM);
     2432     5638    1   DCL SCAN_INDEX SBIN;
     2433     5639        %VD$PATTERN (NAME=PATTERN, STCLASS=PARAM);
     2434     5690    1   DCL NEED_MORE_ENTRIES BIT(1) ALIGNED;
     2435     5691
PL6.E3A0      #003=VDE$PPATT_STRING File=VDE$PARSE.:VDA5TSI                      FRI 07/04/97 11:15 Page:274
     2436     5692
     2437     5693    1   DCL VDG$EXEC_CONTROL    ENTRY (5) ALTRET;
     2438     5694    1   DCL VDG$OALLOC          ENTRY (3) ALTRET;
     2439     5695    1   DCL VDG$ESCREECH        ENTRY (3);
     2440     5696
     2441     5697
     2442     5698        %VD_6E (STCLASS=SYMREF);
     2443     5734        %VD_BUFFER (NAME=VD_$CONTROL, STCLASS=SYMREF, MXNB=%MXNB_$CONTROL);
     2444     5794
     2445     5795
     2446     5796    1   DCL CONTROL_VALUE$ PTR CONSTANT INIT(ADDR(VD_$CONTROL));
     2447     5797
     2448     5798
     2449     5799
     2450     5800    1   DCL SEEN_EO_MATCH BIT(1) ALIGNED;
     2451     5801    1   DCL BO_STRING_INDEX SBIN;
     2452     5802    1   DCL EO_STRING_INDEX SBIN;
     2453     5803    1   DCL CONTROL_INDEX SBIN;
     2454     5804    1   DCL NB_STRING SBIN;
     2455     5805    1   DCL RET_CODE CHAR(1) CALIGNED;
     2456     5806    1   DCL CTRL_ARGS (0:%(MX_CTRL_FN_ARGS-1)) SBIN ALIGNED;
     2457     5807    1   DCL PATT_ENTRY$ PTR;
     2458     5808    1   DCL VD_ERR$ PTR;
     2459     5809    1   DCL SUBST_FIELD$ PTR;
     2460     5810
     2461     5811
     2462     5812        %VD$BUFFER (NAME=CONTROL$VALUE, STCLASS="BASED(CONTROL_VALUE$)");
     2463     5870        %VD$PATT_ENTRY (NAME=PATT$ENTRY, STCLASS="BASED(PATT_ENTRY$)");
     2464     5885        %VD$ERR (NAME=VD$ERR, STCLASS="BASED(VD_ERR$)");
     2465     5938        %VD$NUMBER (NAME=SUBST$NUMBER, DIM="(0:2)", STCLASS="BASED(SUBST_FIELD$)");
     2466     5983        %VD$TEXTC_REMOTE;
     2467     6044        %VD$STRING_HEADER;
     2468     6080
     2469     6081
     2470     6082
     2471     6083    1           NEED_MORE_ENTRIES = %FALSE;
     2472     6084    1           SEEN_EO_MATCH = %FALSE;
PL6.E3A0      #003=VDE$PPATT_STRING File=VDE$PARSE.:VDA5TSI                      FRI 07/04/97 11:15 Page:275
     2473     6085
     2474     6086    1   EACH_PS_LITERAL_AND_$CONTROL:
     2475     6087    2           DO WHILE SCAN_INDEX < PATT_STRING.LENGTH#;
     2476     6088    2              BO_STRING_INDEX = SCAN_INDEX;
     2477     6089    2              RET_CODE = %CHR_SPACE;
     2478     6090    2              IF VD_$CONTROL.LENGTH# = 0 THEN
     2479     6091    2                 SCAN_INDEX = PATT_STRING.LENGTH#;
     2480     6092    3              DO WHILE SCAN_INDEX < PATT_STRING.LENGTH#
     2481     6093    3                AND RET_CODE = %CHR_SPACE;
     2482     6094    3                 CALL INDEX (CONTROL_INDEX, CONTROL$VALUE.BYTES,
     2483     6095    3                   PATT_STRING.BYTES, SCAN_INDEX);
     2484     6096    3                 SCAN_INDEX = CONTROL_INDEX;
     2485     6097    4                 IF CONTROL_INDEX < PATT_STRING.LENGTH# THEN DO;
     2486     6098    4                    NB_STRING = PATT_STRING.LENGTH#;
     2487     6099    4                    CALL VDG$EXEC_CONTROL (NB_STRING, PATT_STRING.BYTES,
     2488     6100    4                      SCAN_INDEX, RET_CODE, CTRL_ARGS)
     2489     6101    4                      ALTRET (EXEC_CONTROL_FAILED);
     2490     6102    4                    PATT_STRING.LENGTH# = NB_STRING;
     2491     6103    4                    END;
     2492     6104    3                 END;
     2493     6105
     2494     6106    2              IF RET_CODE = %CHR_SPACE THEN
     2495     6107    2                 EO_STRING_INDEX = SCAN_INDEX;
     2496     6108    2              ELSE
     2497     6109    2                 EO_STRING_INDEX = CONTROL_INDEX;
     2498     6110    3              IF EO_STRING_INDEX - BO_STRING_INDEX > 0 THEN DO;
     2499     6111    3                 CALL APPEND_LITERAL (BO_STRING_INDEX, EO_STRING_INDEX)
     2500     6112    3                   ALTRET (APPEND_LITERAL_FAILED);
     2501     6113    3                 IF NEED_MORE_ENTRIES THEN
     2502     6114    3                    RETURN;
     2503     6115    3                 END;
     2504     6116
     2505     6117    2              IF RET_CODE ~= %CHR_SPACE THEN
     2506     6118    3   BUILD_PATTERN_ENTRY: DO;
     2507     6119                      /* We found a pattern function */
     2508     6120    4                 IF PATTERN.N_ENTRIES# >= PATTERN.MX_ENTRIES# THEN DO;
     2509     6121    4                    NEED_MORE_ENTRIES = %TRUE;
PL6.E3A0      #003=VDE$PPATT_STRING File=VDE$PARSE.:VDA5TSI                      FRI 07/04/97 11:15 Page:276
     2510     6122    4                    RETURN;
     2511     6123    4                    END;
     2512     6124    3                 PATT_ENTRY$ = ADDR(PATTERN.ENTRIES (PATTERN.N_ENTRIES#));
     2513     6125    3                 PATTERN.N_ENTRIES# = PATTERN.N_ENTRIES# + 1;
     2514     6126
     2515     6127    4                 DO SELECT ASCBIN(RET_CODE);
     2516     6128    4                    SELECT (%ASCBIN(FNID_VALUE));
     2517     6129                         /* This is a $CONTROL-Value function with 2 params */
     2518     6130    4                    PATT$ENTRY.CODE# = %PS_VALUE;
     2519     6131    4                    PATT$ENTRY.M# = CTRL_ARGS (0);
     2520     6132    4                    PATT$ENTRY.N# = CTRL_ARGS (1);
     2521     6133
     2522     6134    4                    SELECT (%ASCBIN(FNID_RECORD));
     2523     6135    4                    PATT$ENTRY.CODE# = %PS_RECORD;
     2524     6136
     2525     6137    4                    SELECT (%ASCBIN(FNID_CURRENT));
     2526     6138    4                    IF CONTROL_INDEX ~= 0
     2527     6139    4                      AND SCAN_INDEX ~= PATT_STRING.LENGTH# THEN
     2528     6140    4                       GOTO CTRLFN_CURR_CONFLICTS_W_MID;
     2529     6141    4                    PATT$ENTRY.CODE# = %PS_CURRENT;
     2530     6142
     2531     6143    4                    SELECT (%ASCBIN(FNID_WILD_STRING));
     2532     6144    4                    PATT$ENTRY.CODE# = %PS_WILD_STRING;
     2533     6145    4                    PATT$ENTRY.M# = 0;
     2534     6146    4                    PATT$ENTRY.N# = %INFINITY;
     2535     6147
     2536     6148    4                    SELECT (%ASCBIN(FNID_WILD_CHAR));
     2537     6149    4                    PATT$ENTRY.CODE# = %PS_WILD_STRING;
     2538     6150    4                    PATT$ENTRY.M# = CTRL_ARGS (0);
     2539     6151    4                    PATT$ENTRY.N# = CTRL_ARGS (1);
     2540     6152
     2541     6153    4                    SELECT (%ASCBIN(FNID_BO_MATCH));
     2542     6154    4                    IF SEEN_EO_MATCH THEN
     2543     6155    4                       GOTO CTRLFN_BOM_NOT_BEFORE_EOM;
     2544     6156    4                    PATT$ENTRY.CODE# = %PS_BO_MATCH;
     2545     6157
     2546     6158    4                    SELECT (%ASCBIN(FNID_EO_MATCH));
PL6.E3A0      #003=VDE$PPATT_STRING File=VDE$PARSE.:VDA5TSI                      FRI 07/04/97 11:15 Page:277
     2547     6159    4                    PATT$ENTRY.CODE# = %PS_EO_MATCH;
     2548     6160    4                    SEEN_EO_MATCH = %TRUE;
     2549     6161
     2550     6162    4                    SELECT (ELSE);
     2551     6163    4                 CALL VDG$ESCREECH (RET_CODE);
     2552     6164    4                    END;
     2553     6165    3                 END BUILD_PATTERN_ENTRY;
     2554     6166    2              END EACH_PS_LITERAL_AND_$CONTROL;
     2555     6167
     2556     6168    1           RETURN;
     2557     6169
     2558     6170
     2559     6171
     2560     6172    1   CTRLFN_CURR_CONFLICTS_W_MID:
     2561     6173    1           CALL VDG$OALLOC (%CLS_ERR, VD_ERR$)
     2562     6174    1             ALTRET (OALLOC_FAILED);
     2563     6175    1           VD$ERR.ERR.CODE# = %E$CTRLFN_CURR_CONFLICTS_W_MID;
     2564     6176    1           VD$ERR.FLAGLEV# = %FLV_SERIOUS;
     2565     6177    1           ALTRETURN;
     2566     6178
     2567     6179
     2568     6180    1   EXEC_CONTROL_FAILED:
     2569     6181    2           IF VD_6E.ERR_HEAD$ ~= VD_6E.ERR_TAIL$ THEN DO;
     2570     6182    2              SUBST_FIELD$ = PINCRW(VD_6E.ERR_HEAD$, SIZEW(VD$ERR));
     2571     6183    2              SUBST$NUMBER.OBJECT.CLASS# (0) = %CLS_NUMBER;
     2572     6184    2              SUBST$NUMBER.V# (0) = CONTROL_INDEX;
     2573     6185    2              END;
     2574     6186    1           ALTRETURN;
     2575     6187
     2576     6188
     2577     6189    1   CTRLFN_BOM_NOT_BEFORE_EOM:
     2578     6190    1           CALL VDG$OALLOC (%CLS_ERR, VD_ERR$)
     2579     6191    1             ALTRET (OALLOC_FAILED);
     2580     6192    1           VD$ERR.ERR.CODE# = %E$CTRLFN_BOM_NOT_BEFORE_EOM;
     2581     6193    1           VD$ERR.FLAGLEV# = %FLV_SERIOUS;
     2582     6194    1           ALTRETURN;
     2583     6195
PL6.E3A0      #003=VDE$PPATT_STRING File=VDE$PARSE.:VDA5TSI                      FRI 07/04/97 11:15 Page:278
     2584     6196
     2585     6197    1   APPEND_LITERAL_FAILED: ;
     2586     6198    1   OALLOC_FAILED: ;
     2587     6199    1           ALTRETURN;
     2588     6200
     2589     6201
     2590     6202                %BOX (TITLE=APPEND_LITERAL, PAGE=YES);
              6210    1
              6214    1   /***************************************************************************
              6216    1    *                                                                         *
              6220    1            *                               APPEND_LITERAL                            *
              6222    1            *                                                                         *
              6224    1           ***************************************************************************/

     2591     6228
     2592     6229        /*I* NAME: APPEND_LITERAL
     2593     6230            PARAMETERS:
     2594     6231                START_INDEX - Index into PATT_STRING.BYTES of the start
     2595     6232                    of the string to build the %PS_LITERAL entry for.
     2596     6233                END_INDEX - Index into PATT_STRING.BYTES of the byte following
     2597     6234                    the last byte of the string to build the %PS_LITERAL entry for.
     2598     6235            INPUT:
     2599     6236                PATTERN - The VD$PATTERN built so far.
     2600     6237                PATT_STRING.BYTES - Char string from which a string for a
     2601     6238                    %PS_LITERAL symbol is to be made.
     2602     6239            OUTPUT:
     2603     6240                NEED_MORE_ENTRIES may be set.
     2604     6241                PATTERN will have an entry appended to it.
     2605     6242            DESCRIPTION:
     2606     6243                Add an entry to PATTERN pointing to a VD$TEXTC_REMOTE
     2607     6244                    containing the literal string.
     2608     6245        */
     2609     6246
     2610     6247    1   APPEND_LITERAL: PROC (START_INDEX, END_INDEX) ALTRET;
     2611     6248
     2612     6249    2   DCL START_INDEX SBIN;
     2613     6250    2   DCL END_INDEX SBIN;
PL6.E3A0      #003=VDE$PPATT_STRING File=VDE$PARSE.:VDA5TSI                      FRI 07/04/97 11:15 Page:279
     2614     6251
     2615     6252
     2616     6253
     2617     6254    2   DCL PATT_ENTRY$ PTR;
     2618     6255
     2619     6256
     2620     6257        %VD$PATT_ENTRY (NAME=PATT$ENTRY, STCLASS="BASED(PATT_ENTRY$)");
     2621     6272
     2622     6273
     2623     6274
     2624     6275    3           IF PATTERN.N_ENTRIES# >= PATTERN.MX_ENTRIES# THEN DO;
     2625     6276    3              NEED_MORE_ENTRIES = %TRUE;
     2626     6277    3              RETURN;
     2627     6278    3              END;
     2628     6279
     2629     6280    2           PATT_ENTRY$ = ADDR(PATTERN.ENTRIES (PATTERN.N_ENTRIES#));
     2630     6281    2           PATTERN.N_ENTRIES# = PATTERN.N_ENTRIES# + 1;
     2631     6282
     2632     6283    2           PATT$ENTRY.CODE# = %PS_LITERAL;
     2633     6284    2           CALL VDG$OALLOC (%CLS_TEXTC_REMOTE, PATT$ENTRY.MATCH$,
     2634     6285    2             (LENGTHC(VD$STRING_HEADER) + (END_INDEX - START_INDEX) +
     2635     6286    2             %(NB_PER_WORD-1)) / %NB_PER_WORD)
     2636     6287    2             ALTRET (OALLOC_FAILED);
     2637     6288    2           PATT$ENTRY.MATCH$->VD$TEXTC_REMOTE.LENGTH# =
     2638     6289    2             END_INDEX - START_INDEX;
     2639     6290    2           PATT$ENTRY.MATCH$->VD$TEXTC_REMOTE.BYTES =
     2640     6291    2             SUBSTR(PATT_STRING.BYTES, START_INDEX, END_INDEX - START_INDEX);
     2641     6292
     2642     6293    2           RETURN;
     2643     6294
     2644     6295
     2645     6296    2   OALLOC_FAILED:
     2646     6297    2           ALTRETURN;
     2647     6298
     2648     6299    2   END APPEND_LITERAL;
     2649     6300
     2650     6301    1   END VDE$PPATT_STRING;
PL6.E3A0      #003=VDE$PPATT_STRING File=VDE$PARSE.:VDA5TSI                      FRI 07/04/97 11:15 Page:280
     2651     6302        %EOD;

PL6.E3A0      #003=VDE$PPATT_STRING File=VDE$PARSE.:VDA5TSI                      FRI 07/04/97 11:15 Page:281
--  Include file information  --

   XU_SUBS_C.:LIBRARY  is referenced.
   XU_MACRO_C.:LIBRARY  is referenced.
   VD_PERR_C.:VDA5TOU  is referenced.
   VD_MACROS_M.:VDA5TOU  is referenced.
   B$JIT_C.:E04TOU  was found in the system file and is never referenced.
   CP_6_C.:E04TOU  was found in the system file and is never referenced.
      No diagnostics issued in procedure VDE$PPATT_STRING.

   Procedure VDE$PPATT_STRING requires 323 words for executable code.
   Procedure VDE$PPATT_STRING requires 28 words of local(AUTO) storage.

PL6.E3A0      #003=VDE$PPATT_STRING File=VDE$PARSE.:VDA5TSI                      FRI 07/04/97 11:15 Page:282

 Object Unit name= VDE$PPATT_STRING                           File name= VDE$PARSE.:VDA5TOU
 UTS= JUL 04 '97 11:15:02.40 FRI                              Compiler= PL-6/E31         Sev=      00
 SharedLib= :SHARED_SYSTEM                                    Alt SharedLib=


    ****  Control sections  ****

 Sect   Type Bound  Init  Size OctSiz  Section name(segment info)
    0  RoData even  UTS      1      1  VDE$PPATT_STRING
    1   Proc  even  none   323    503  VDE$PPATT_STRING
    2  RoData even  none     5      5  VDE$PPATT_STRING

    ****  Entry defs  ****

                              Check   Calling
                             calling  sequence
  Sect OctLoc Primary Altret sequence   type   Parms  Name
     1      0   yes    yes     yes      Std        4  VDE$PPATT_STRING

  ****  Entry refs  ****

         Check        Calling
        calling       sequence
Altret sequence SRef   type   Args  Name
 yes     yes           Std       5 VDG$EXEC_CONTROL
 yes     yes           Std       3 VDG$OALLOC
         yes           Std       3 VDG$ESCREECH
                       nStd      0 X66_AUTO_4
                       nStd      0 X66_INDEX
                       Std       0 B_CONSPOOL_D
                       nStd      0 X66_ARET
                       nStd      0 X66_AALT
PL6.E3A0      #003=VDE$PPATT_STRING File=VDE$PARSE.:VDA5TSI                      FRI 07/04/97 11:15 Page:283

  ****  Data refs  ****

  Flags:  r = read only, s = secondary
Flgs Name                             Flgs Name                             Flgs Name
     VD_6E                                 VD_$CONTROL                           B_VECTNIL

  ****  Segment refs  ****

  Flags:  r = read only, s = secondary
Flgs Name                             Flgs Name                             Flgs Name
     ISSID
PL6.E3A0      #003=VDE$PPATT_STRING File=VDE$PARSE.:VDA5TSI                      FRI 07/04/97 11:15 Page:284


     2362        1        /*T***********************************************************/
     2363        2        /*T*                                                         */
     2364        3        /*T* Copyright (c) Bull HN Information Systems Inc., 1997    */
     2365        4        /*T*                                                         */
     2366        5        /*T***********************************************************/
     2367        6
     2368        7        /*D* NAME: VDE$PPATT_STRING
     2369        8            PARAMETERS:
     2370        9                PATT_STRING - VD$TEXTC containing the pattern string.
     2371       10                SCAN_INDEX - Index into PATT_STRING.BYTES of the next byte to
     2372       11                    process.
     2373       12                PATTERN - A %VD$PATTERN structure for the pattern so far.
     2374       13                NEED_MORE_ENTRIES - Uninitialized BIT(1) ALIGNED flag.
     2375       14            INPUT:
     2376       15            OUTPUT:
     2377       16                SCAN_INDEX will contain the index into PATT_STRING.BYTES of
     2378       17                    the next byte to process.
     2379       18                PATTERN.N_ENTRIES# and the appropriate .ENTRIES will be filled
     2380       19                    from the pattern string specified by PATT_STRING.
     2381       20                NEED_MORE_ENTRIES will be %TRUE if we ran out of room for
     2382       21                    new entries in PATTERN; else %FALSE.
     2383       22            DESCRIPTION:
     2384       23                Find the next $CONTROL-function in the pattern string.
     2385       24                Call VDG$EXEC_CONTROL to execute the function.  If the
     2386       25                    function is executed entirely by VDG$EXEC_CONTROL,
     2387       26                    loop to find the next $CONTROL function (if any).
     2388       27                When we find a $CONTROL_FUNCTION which VDG$EXEC_CONTROL
     2389       28                    doesn't execute entirely, add a %PS_LITERAL entry to
     2390       29                    PATTERN for the characters of PATT_STRING between the
     2391       30                    last $CONTROL pattern-function and this one.
     2392       31                    Then build a PATTERN entry for the pattern-function:
     2393       32                    $CONTROL-Value - If it has less than two parameters,
     2394       33                        VDG$EXEC_CONTROL will have executed it; if we get
     2395       34                        control, the function has two parameters.
     2396       35                        Build a %PS_VALUE entry for it.
     2397       36                    $CONTROL-Record - Build a %PS_RECORD entry.
PL6.E3A0      #003=VDE$PPATT_STRING File=VDE$PARSE.:VDA5TSI                      FRI 07/04/97 11:15 Page:285
     2398       37                    $CONTROL-Current - Build a %PS_CURRENT entry.
     2399       38                    $CONTROL-Wild String (%?) - Build a %PS_WILD_STRING entry
     2400       39                        with .M = 0 and .N = %INFINITY.
     2401       40                    $CONTROL-Wild Char (?W) - Build a %PS_WILD_STRING entry
     2402       41                        with .M and .N as given in the function invocation.
     2403       42        *N*         $CONTROL-Set of Sequences or -Cases or whatever we
     2404       43        *N*             eventually decide on:
     2405       44        *N*             If this is the "end-of-set" function, just return.
     2406       45        *N*             If this is the "start-of-set" function, allocate
     2407       46        *N*             a new VD$PATTERN and build a %PS_PATTERN entry in
     2408       47        *N*             PATTERN to point to it, then call myself recursively
     2409       48        *N*             to build the nested pattern.
     2410       49        *N*             If this is the "next-case" function, allocate a
     2411       50        *N*             new VD$PATTERN and build a %PS_PATTERN entry in
     2412       51        *N*             PATTERN to point to it, with the ALTERNATIVE bit set.
     2413       52        *N*             Then call myself recursively to build the nested
     2414       53        *N*             pattern alternative.
     2415       54                    $CONTROL-BO Match - Build a %PS_BO_MATCH entry.
     2416       55                    $CONTROL-EO Match - Build a %PS_EO_MATCH entry.
     2417       56                Continue to scan for $CONTROL functions, processing the
     2418       57                    intervening characters as %PS_LITERAL entries and the
     2419       58                    $CONTROL functions as described above.
     2420       59        */
     2421       60
     2422       61        VDE$PPATT_STRING: PROC (PATT_STRING, SCAN_INDEX, PATTERN,

     61  1 000000   000000 700200 xent  VDE$PPATT_S* TSX0  ! X66_AUTO_4
         1 000001   000034 000004                    ZERO    28,4

     2423       62                  NEED_MORE_ENTRIES) ALTRET;
     2424       63
     2425       64        %INCLUDE VD_MACROS_M;
     2426     2279        %INCLUDE VD_PERR_C;
     2427     2427        %INCLUDE XU_MACRO_C;
     2428     5521        %INCLUDE XU_SUBS_C;
     2429     5613
     2430     5614
PL6.E3A0      #003=VDE$PPATT_STRING File=VDE$PARSE.:VDA5TSI                      FRI 07/04/97 11:15 Page:286
     2431     5615        %VD$TEXTC (NAME=PATT_STRING, STCLASS=PARAM);
     2432     5638    1   DCL SCAN_INDEX SBIN;
     2433     5639        %VD$PATTERN (NAME=PATTERN, STCLASS=PARAM);
     2434     5690    1   DCL NEED_MORE_ENTRIES BIT(1) ALIGNED;
     2435     5691
     2436     5692
     2437     5693    1   DCL VDG$EXEC_CONTROL    ENTRY (5) ALTRET;
     2438     5694    1   DCL VDG$OALLOC          ENTRY (3) ALTRET;
     2439     5695    1   DCL VDG$ESCREECH        ENTRY (3);
     2440     5696
     2441     5697
     2442     5698        %VD_6E (STCLASS=SYMREF);
     2443     5734        %VD_BUFFER (NAME=VD_$CONTROL, STCLASS=SYMREF, MXNB=%MXNB_$CONTROL);
     2444     5794
     2445     5795
     2446     5796    1   DCL CONTROL_VALUE$ PTR CONSTANT INIT(ADDR(VD_$CONTROL));
     2447     5797
     2448     5798
     2449     5799
     2450     5800    1   DCL SEEN_EO_MATCH BIT(1) ALIGNED;
     2451     5801    1   DCL BO_STRING_INDEX SBIN;
     2452     5802    1   DCL EO_STRING_INDEX SBIN;
     2453     5803    1   DCL CONTROL_INDEX SBIN;
     2454     5804    1   DCL NB_STRING SBIN;
     2455     5805    1   DCL RET_CODE CHAR(1) CALIGNED;
     2456     5806    1   DCL CTRL_ARGS (0:%(MX_CTRL_FN_ARGS-1)) SBIN ALIGNED;
     2457     5807    1   DCL PATT_ENTRY$ PTR;
     2458     5808    1   DCL VD_ERR$ PTR;
     2459     5809    1   DCL SUBST_FIELD$ PTR;
     2460     5810
     2461     5811
     2462     5812        %VD$BUFFER (NAME=CONTROL$VALUE, STCLASS="BASED(CONTROL_VALUE$)");
     2463     5870        %VD$PATT_ENTRY (NAME=PATT$ENTRY, STCLASS="BASED(PATT_ENTRY$)");
     2464     5885        %VD$ERR (NAME=VD$ERR, STCLASS="BASED(VD_ERR$)");
     2465     5938        %VD$NUMBER (NAME=SUBST$NUMBER, DIM="(0:2)", STCLASS="BASED(SUBST_FIELD$)");
     2466     5983        %VD$TEXTC_REMOTE;
     2467     6044        %VD$STRING_HEADER;
PL6.E3A0      #003=VDE$PPATT_STRING File=VDE$PARSE.:VDA5TSI                      FRI 07/04/97 11:15 Page:287
     2468     6080
     2469     6081
     2470     6082
     2471     6083    1           NEED_MORE_ENTRIES = %FALSE;

   6083  1 000002   200006 470500                    LDP0    @NEED_MORE_ENTRIES,,AUTO
         1 000003   000000 450100                    STZ     0,,PR0

     2472     6084    1           SEEN_EO_MATCH = %FALSE;

   6084  1 000004   200007 450100                    STZ     SEEN_EO_MATCH,,AUTO

     2473     6085
     2474     6086    1   EACH_PS_LITERAL_AND_$CONTROL:
     2475     6087    2           DO WHILE SCAN_INDEX < PATT_STRING.LENGTH#;

   6087  1 000005   200004 471500       EACH_PS_LIT* LDP1    @SCAN_INDEX,,AUTO
         1 000006   200003 473500                    LDP3    @PATT_STRING,,AUTO
         1 000007   300000 236100                    LDQ     0,,PR3
         1 000010   000033 772000                    QRL     27
         1 000011   100000 116100                    CMPQ    0,,PR1
         1 000012   000320 604400 1                  TMOZ    s:6168

     2476     6088    2              BO_STRING_INDEX = SCAN_INDEX;

   6088  1 000013   200004 470500                    LDP0    @SCAN_INDEX,,AUTO
         1 000014   000000 235100                    LDA     0,,PR0
         1 000015   200010 755100                    STA     BO_STRING_INDEX,,AUTO

     2477     6089    2              RET_CODE = %CHR_SPACE;

   6089  1 000016   040000 236003                    LDQ     16384,DU
         1 000017   200014 756100                    STQ     RET_CODE,,AUTO

     2478     6090    2              IF VD_$CONTROL.LENGTH# = 0 THEN

   6090  1 000020   000002 220000 xsym               LDX0    VD_$CONTROL+2
PL6.E3A0      #003=VDE$PPATT_STRING File=VDE$PARSE.:VDA5TSI                      FRI 07/04/97 11:15 Page:288
         1 000021   000026 601000 1                  TNZ     s:6092

     2479     6091    2                 SCAN_INDEX = PATT_STRING.LENGTH#;

   6091  1 000022   200003 471500                    LDP1    @PATT_STRING,,AUTO
         1 000023   100000 236100                    LDQ     0,,PR1
         1 000024   000033 772000                    QRL     27
         1 000025   000000 756100                    STQ     0,,PR0

     2480     6092    3              DO WHILE SCAN_INDEX < PATT_STRING.LENGTH#

   6092  1 000026   000104 710000 1                  TRA     s:6104

     2481     6093    3                AND RET_CODE = %CHR_SPACE;
     2482     6094    3                 CALL INDEX (CONTROL_INDEX, CONTROL$VALUE.BYTES,

   6094  1 000027   000000 470400 0                  LDP0    CONTROL_VALUE$
         1 000030   000002 220100                    LDX0    2,,PR0
         1 000031   200003 471500                    LDP1    @PATT_STRING,,AUTO
         1 000032   100000 236100                    LDQ     0,,PR1
         1 000033   000033 772000                    QRL     27
         1 000034   200012 631500                    EPPR1   CONTROL_INDEX,,AUTO
         1 000035   000000 633500                    EPPR3   0,,PR0
         1 000036   000012 221003                    LDX1    10,DU
         1 000037   300000 500511                    A9BD    0,X1,PR3
         1 000040   000000 623010                    EAX3    0,X0
         1 000041   200003 470500                    LDP0    @PATT_STRING,,AUTO
         1 000042   000001 220003                    LDX0    1,DU
         1 000043   000000 500510                    A9BD    0,X0,PR0
         1 000044   000000 620006                    EAX0    0,QL
         1 000045   200004 474500                    LDP4    @SCAN_INDEX,,AUTO
         1 000046   400000 236100                    LDQ     0,,PR4
         1 000047   000000 701000 xent               TSX1    X66_INDEX
         1 000050   000000 011000                    NOP     0

     2483     6095    3                   PATT_STRING.BYTES, SCAN_INDEX);
     2484     6096    3                 SCAN_INDEX = CONTROL_INDEX;
PL6.E3A0      #003=VDE$PPATT_STRING File=VDE$PARSE.:VDA5TSI                      FRI 07/04/97 11:15 Page:289

   6096  1 000051   200012 235100                    LDA     CONTROL_INDEX,,AUTO
         1 000052   400000 755100                    STA     0,,PR4

     2485     6097    4                 IF CONTROL_INDEX < PATT_STRING.LENGTH# THEN DO;

   6097  1 000053   200003 470500                    LDP0    @PATT_STRING,,AUTO
         1 000054   000000 236100                    LDQ     0,,PR0
         1 000055   000033 772000                    QRL     27
         1 000056   200012 116100                    CMPQ    CONTROL_INDEX,,AUTO
         1 000057   000104 604400 1                  TMOZ    s:6104

     2486     6098    4                    NB_STRING = PATT_STRING.LENGTH#;

   6098  1 000060   200013 756100                    STQ     NB_STRING,,AUTO

     2487     6099    4                    CALL VDG$EXEC_CONTROL (NB_STRING, PATT_STRING.BYTES,

   6099  1 000061   200015 631500                    EPPR1   CTRL_ARGS,,AUTO
         1 000062   200032 451500                    STP1    PATT_ENTRY$+5,,AUTO
         1 000063   200014 633500                    EPPR3   RET_CODE,,AUTO
         1 000064   200031 453500                    STP3    PATT_ENTRY$+4,,AUTO
         1 000065   200004 236100                    LDQ     @SCAN_INDEX,,AUTO
         1 000066   200030 756100                    STQ     PATT_ENTRY$+3,,AUTO
         1 000067   200003 236100                    LDQ     @PATT_STRING,,AUTO
         1 000070   200000 036007                    ADLQ    65536,DL
         1 000071   200027 756100                    STQ     PATT_ENTRY$+2,,AUTO
         1 000072   200013 635500                    EPPR5   NB_STRING,,AUTO
         1 000073   200026 455500                    STP5    PATT_ENTRY$+1,,AUTO
         1 000074   200026 630500                    EPPR0   PATT_ENTRY$+1,,AUTO
         1 000075   000023 631400 xsym               EPPR1   B_VECTNIL+19
         1 000076   000000 701000 xent               TSX1    VDG$EXEC_CONTROL
         1 000077   000342 702000 1                  TSX2    EXEC_CONTROL_FAILED

     2488     6100    4                      SCAN_INDEX, RET_CODE, CTRL_ARGS)
     2489     6101    4                      ALTRET (EXEC_CONTROL_FAILED);
     2490     6102    4                    PATT_STRING.LENGTH# = NB_STRING;
PL6.E3A0      #003=VDE$PPATT_STRING File=VDE$PARSE.:VDA5TSI                      FRI 07/04/97 11:15 Page:290

   6102  1 000100   200003 470500                    LDP0    @PATT_STRING,,AUTO
         1 000101   200013 236100                    LDQ     NB_STRING,,AUTO
         1 000102   000033 736000                    QLS     27
         1 000103   000000 552140                    STBQ    0,'40'O,PR0

     2491     6103    4                    END;

     2492     6104    3                 END;

   6104  1 000104   200004 470500                    LDP0    @SCAN_INDEX,,AUTO
         1 000105   200003 471500                    LDP1    @PATT_STRING,,AUTO
         1 000106   100000 236100                    LDQ     0,,PR1
         1 000107   000033 772000                    QRL     27
         1 000110   000000 116100                    CMPQ    0,,PR0
         1 000111   000116 604400 1                  TMOZ    s:6106
         1 000112   200014 236100                    LDQ     RET_CODE,,AUTO
         1 000113   777000 376003                    ANQ     -512,DU
         1 000114   040000 116003                    CMPQ    16384,DU
         1 000115   000027 600000 1                  TZE     s:6094

     2493     6105
     2494     6106    2              IF RET_CODE = %CHR_SPACE THEN

   6106  1 000116   200014 236100                    LDQ     RET_CODE,,AUTO
         1 000117   777000 376003                    ANQ     -512,DU
         1 000120   040000 116003                    CMPQ    16384,DU
         1 000121   000125 601000 1                  TNZ     s:6109

     2495     6107    2                 EO_STRING_INDEX = SCAN_INDEX;

   6107  1 000122   000000 235100                    LDA     0,,PR0
         1 000123   200011 755100                    STA     EO_STRING_INDEX,,AUTO
         1 000124   000127 710000 1                  TRA     s:6110

     2496     6108    2              ELSE
     2497     6109    2                 EO_STRING_INDEX = CONTROL_INDEX;
PL6.E3A0      #003=VDE$PPATT_STRING File=VDE$PARSE.:VDA5TSI                      FRI 07/04/97 11:15 Page:291

   6109  1 000125   200012 235100                    LDA     CONTROL_INDEX,,AUTO
         1 000126   200011 755100                    STA     EO_STRING_INDEX,,AUTO

     2498     6110    3              IF EO_STRING_INDEX - BO_STRING_INDEX > 0 THEN DO;

   6110  1 000127   200011 236100                    LDQ     EO_STRING_INDEX,,AUTO
         1 000130   200010 136100                    SBLQ    BO_STRING_INDEX,,AUTO
         1 000131   000144 604400 1                  TMOZ    s:6117

     2499     6111    3                 CALL APPEND_LITERAL (BO_STRING_INDEX, EO_STRING_INDEX)

   6111  1 000132   200011 633500                    EPPR3   EO_STRING_INDEX,,AUTO
         1 000133   200024 453500                    STP3    @START_INDEX+1,,AUTO
         1 000134   200010 634500                    EPPR4   BO_STRING_INDEX,,AUTO
         1 000135   200023 454500                    STP4    SUBST_FIELD$+2,,AUTO
         1 000136   000377 701000 1                  TSX1    APPEND_LITERAL
         1 000137   000376 702000 1                  TSX2    APPEND_LITERAL_FAILED

     2500     6112    3                   ALTRET (APPEND_LITERAL_FAILED);
     2501     6113    3                 IF NEED_MORE_ENTRIES THEN

   6113  1 000140   200006 470500                    LDP0    @NEED_MORE_ENTRIES,,AUTO
         1 000141   000000 234100                    SZN     0,,PR0
         1 000142   000144 605000 1                  TPL     s:6117

     2502     6114    3                    RETURN;

   6114  1 000143   000000 702200 xent               TSX2  ! X66_ARET

     2503     6115    3                 END;
     2504     6116
     2505     6117    2              IF RET_CODE ~= %CHR_SPACE THEN

   6117  1 000144   200014 236100                    LDQ     RET_CODE,,AUTO
         1 000145   777000 376003                    ANQ     -512,DU
         1 000146   040000 116003                    CMPQ    16384,DU
PL6.E3A0      #003=VDE$PPATT_STRING File=VDE$PARSE.:VDA5TSI                      FRI 07/04/97 11:15 Page:292
         1 000147   000312 600000 1                  TZE     s:6166

     2506     6118    3   BUILD_PATTERN_ENTRY: DO;

   6118  1 000150                       BUILD_PATTE* null
     2507     6119                      /* We found a pattern function */
     2508     6120    4                 IF PATTERN.N_ENTRIES# >= PATTERN.MX_ENTRIES# THEN DO;

   6120  1 000150   200005 470500                    LDP0    @PATTERN,,AUTO
         1 000151   000002 720100                    LXL0    2,,PR0
         1 000152   000002 100100                    CMPX0   2,,PR0
         1 000153   000160 605400 1                  TPNZ    s:6124

     2509     6121    4                    NEED_MORE_ENTRIES = %TRUE;

   6121  1 000154   400000 236003                    LDQ     -131072,DU
         1 000155   200006 471500                    LDP1    @NEED_MORE_ENTRIES,,AUTO
         1 000156   100000 756100                    STQ     0,,PR1

     2510     6122    4                    RETURN;

   6122  1 000157   000000 702200 xent               TSX2  ! X66_ARET

     2511     6123    4                    END;
     2512     6124    3                 PATT_ENTRY$ = ADDR(PATTERN.ENTRIES (PATTERN.N_ENTRIES#));

   6124  1 000160   000002 236100                    LDQ     2,,PR0
         1 000161   000020 732000                    QRS     16
         1 000162   000000 376000 2                  ANQ     0
         1 000163   000022 736000                    QLS     18
         1 000164   000003 036003                    ADLQ    3,DU
         1 000165   200005 036100                    ADLQ    @PATTERN,,AUTO
         1 000166   200017 756100                    STQ     PATT_ENTRY$,,AUTO

     2513     6125    3                 PATTERN.N_ENTRIES# = PATTERN.N_ENTRIES# + 1;

   6125  1 000167   000002 221100                    LDX1    2,,PR0
PL6.E3A0      #003=VDE$PPATT_STRING File=VDE$PARSE.:VDA5TSI                      FRI 07/04/97 11:15 Page:293
         1 000170   000001 622011                    EAX2    1,X1
         1 000171   000002 742100                    STX2    2,,PR0

     2514     6126
     2515     6127    4                 DO SELECT ASCBIN(RET_CODE);

   6127  1 000172   200014 236100                    LDQ     RET_CODE,,AUTO
         1 000173   000033 772000                    QRL     27
         1 000174   000122 116007                    CMPQ    82,DL
         1 000175   000205 602000 1                  TNC     s:6127+11
         1 000176   000231 600000 1                  TZE     s:6135
         1 000177   000126 116007                    CMPQ    86,DL
         1 000200   000304 602000 1                  TNC     s:6163
         1 000201   000221 600000 1                  TZE     s:6130
         1 000202   000127 116007                    CMPQ    87,DL
         1 000203   000304 601000 1                  TNZ     s:6163
         1 000204   000260 710000 1                  TRA     s:6149
         1 000205   000102 116007                    CMPQ    66,DL
         1 000206   000216 602000 1                  TNC     s:6127+20
         1 000207   000270 600000 1                  TZE     s:6154
         1 000210   000103 116007                    CMPQ    67,DL
         1 000211   000304 602000 1                  TNC     s:6163
         1 000212   000235 600000 1                  TZE     s:6138
         1 000213   000105 116007                    CMPQ    69,DL
         1 000214   000304 601000 1                  TNZ     s:6163
         1 000215   000276 710000 1                  TRA     s:6159
         1 000216   000077 116007                    CMPQ    63,DL
         1 000217   000304 601000 1                  TNZ     s:6163
         1 000220   000251 710000 1                  TRA     s:6144

     2516     6128    4                    SELECT (%ASCBIN(FNID_VALUE));

     2517     6129                         /* This is a $CONTROL-Value function with 2 params */
     2518     6130    4                    PATT$ENTRY.CODE# = %PS_VALUE;

   6130  1 000221   000002 221003                    LDX1    2,DU
         1 000222   200017 471500                    LDP1    PATT_ENTRY$,,AUTO
PL6.E3A0      #003=VDE$PPATT_STRING File=VDE$PARSE.:VDA5TSI                      FRI 07/04/97 11:15 Page:294
         1 000223   100000 441100                    SXL1    0,,PR1

     2519     6131    4                    PATT$ENTRY.M# = CTRL_ARGS (0);

   6131  1 000224   200015 235100                    LDA     CTRL_ARGS,,AUTO
         1 000225   100001 755100                    STA     1,,PR1

     2520     6132    4                    PATT$ENTRY.N# = CTRL_ARGS (1);

   6132  1 000226   200016 236100                    LDQ     CTRL_ARGS+1,,AUTO
         1 000227   100002 756100                    STQ     2,,PR1
         1 000230   000312 710000 1                  TRA     s:6166

     2521     6133
     2522     6134    4                    SELECT (%ASCBIN(FNID_RECORD));

     2523     6135    4                    PATT$ENTRY.CODE# = %PS_RECORD;

   6135  1 000231   000005 221003                    LDX1    5,DU
         1 000232   200017 471500                    LDP1    PATT_ENTRY$,,AUTO
         1 000233   100000 441100                    SXL1    0,,PR1
         1 000234   000312 710000 1                  TRA     s:6166

     2524     6136
     2525     6137    4                    SELECT (%ASCBIN(FNID_CURRENT));

     2526     6138    4                    IF CONTROL_INDEX ~= 0

   6138  1 000235   200012 235100                    LDA     CONTROL_INDEX,,AUTO
         1 000236   000245 600000 1                  TZE     s:6141
         1 000237   200004 471500                    LDP1    @SCAN_INDEX,,AUTO
         1 000240   200003 473500                    LDP3    @PATT_STRING,,AUTO
         1 000241   300000 236100                    LDQ     0,,PR3
         1 000242   000033 772000                    QRL     27
         1 000243   100000 116100                    CMPQ    0,,PR1
         1 000244   000321 601000 1                  TNZ     CTRLFN_CURR_CONFLICTS_W_MID

PL6.E3A0      #003=VDE$PPATT_STRING File=VDE$PARSE.:VDA5TSI                      FRI 07/04/97 11:15 Page:295
     2527     6139    4                      AND SCAN_INDEX ~= PATT_STRING.LENGTH# THEN
     2528     6140    4                       GOTO CTRLFN_CURR_CONFLICTS_W_MID;
     2529     6141    4                    PATT$ENTRY.CODE# = %PS_CURRENT;

   6141  1 000245   000006 221003                    LDX1    6,DU
         1 000246   200017 471500                    LDP1    PATT_ENTRY$,,AUTO
         1 000247   100000 441100                    SXL1    0,,PR1
         1 000250   000312 710000 1                  TRA     s:6166

     2530     6142
     2531     6143    4                    SELECT (%ASCBIN(FNID_WILD_STRING));

     2532     6144    4                    PATT$ENTRY.CODE# = %PS_WILD_STRING;

   6144  1 000251   000003 221003                    LDX1    3,DU
         1 000252   200017 471500                    LDP1    PATT_ENTRY$,,AUTO
         1 000253   100000 441100                    SXL1    0,,PR1

     2533     6145    4                    PATT$ENTRY.M# = 0;

   6145  1 000254   100001 450100                    STZ     1,,PR1

     2534     6146    4                    PATT$ENTRY.N# = %INFINITY;

   6146  1 000255   000031 235000 xsym               LDA     B_VECTNIL+25
         1 000256   100002 755100                    STA     2,,PR1
         1 000257   000312 710000 1                  TRA     s:6166

     2535     6147
     2536     6148    4                    SELECT (%ASCBIN(FNID_WILD_CHAR));

     2537     6149    4                    PATT$ENTRY.CODE# = %PS_WILD_STRING;

   6149  1 000260   000003 221003                    LDX1    3,DU
         1 000261   200017 471500                    LDP1    PATT_ENTRY$,,AUTO
         1 000262   100000 441100                    SXL1    0,,PR1

PL6.E3A0      #003=VDE$PPATT_STRING File=VDE$PARSE.:VDA5TSI                      FRI 07/04/97 11:15 Page:296
     2538     6150    4                    PATT$ENTRY.M# = CTRL_ARGS (0);

   6150  1 000263   200015 235100                    LDA     CTRL_ARGS,,AUTO
         1 000264   100001 755100                    STA     1,,PR1

     2539     6151    4                    PATT$ENTRY.N# = CTRL_ARGS (1);

   6151  1 000265   200016 236100                    LDQ     CTRL_ARGS+1,,AUTO
         1 000266   100002 756100                    STQ     2,,PR1
         1 000267   000312 710000 1                  TRA     s:6166

     2540     6152
     2541     6153    4                    SELECT (%ASCBIN(FNID_BO_MATCH));

     2542     6154    4                    IF SEEN_EO_MATCH THEN

   6154  1 000270   200007 234100                    SZN     SEEN_EO_MATCH,,AUTO
         1 000271   000355 604000 1                  TMI     CTRLFN_BOM_NOT_BEFORE_EOM

     2543     6155    4                       GOTO CTRLFN_BOM_NOT_BEFORE_EOM;
     2544     6156    4                    PATT$ENTRY.CODE# = %PS_BO_MATCH;

   6156  1 000272   000007 221003                    LDX1    7,DU
         1 000273   200017 471500                    LDP1    PATT_ENTRY$,,AUTO
         1 000274   100000 441100                    SXL1    0,,PR1
         1 000275   000312 710000 1                  TRA     s:6166

     2545     6157
     2546     6158    4                    SELECT (%ASCBIN(FNID_EO_MATCH));

     2547     6159    4                    PATT$ENTRY.CODE# = %PS_EO_MATCH;

   6159  1 000276   000010 221003                    LDX1    8,DU
         1 000277   200017 471500                    LDP1    PATT_ENTRY$,,AUTO
         1 000300   100000 441100                    SXL1    0,,PR1

     2548     6160    4                    SEEN_EO_MATCH = %TRUE;
PL6.E3A0      #003=VDE$PPATT_STRING File=VDE$PARSE.:VDA5TSI                      FRI 07/04/97 11:15 Page:297

   6160  1 000301   400000 236003                    LDQ     -131072,DU
         1 000302   200007 756100                    STQ     SEEN_EO_MATCH,,AUTO
         1 000303   000312 710000 1                  TRA     s:6166

     2549     6161
     2550     6162    4                    SELECT (ELSE);

     2551     6163    4                 CALL VDG$ESCREECH (RET_CODE);

   6163  1 000304   200014 631500                    EPPR1   RET_CODE,,AUTO
         1 000305   200026 451500                    STP1    PATT_ENTRY$+1,,AUTO
         1 000306   200026 630500                    EPPR0   PATT_ENTRY$+1,,AUTO
         1 000307   000017 631400 xsym               EPPR1   B_VECTNIL+15
         1 000310   000000 701000 xent               TSX1    VDG$ESCREECH
         1 000311   000000 011000                    NOP     0

     2552     6164    4                    END;

     2553     6165    3                 END BUILD_PATTERN_ENTRY;

     2554     6166    2              END EACH_PS_LITERAL_AND_$CONTROL;

   6166  1 000312   200004 470500                    LDP0    @SCAN_INDEX,,AUTO
         1 000313   200003 471500                    LDP1    @PATT_STRING,,AUTO
         1 000314   100000 236100                    LDQ     0,,PR1
         1 000315   000033 772000                    QRL     27
         1 000316   000000 116100                    CMPQ    0,,PR0
         1 000317   000013 605400 1                  TPNZ    s:6088

     2555     6167
     2556     6168    1           RETURN;

   6168  1 000320   000000 702200 xent               TSX2  ! X66_ARET

     2557     6169
     2558     6170
PL6.E3A0      #003=VDE$PPATT_STRING File=VDE$PARSE.:VDA5TSI                      FRI 07/04/97 11:15 Page:298
     2559     6171
     2560     6172    1   CTRLFN_CURR_CONFLICTS_W_MID:
     2561     6173    1           CALL VDG$OALLOC (%CLS_ERR, VD_ERR$)

   6173  1 000321   200020 634500       CTRLFN_CURR* EPPR4   VD_ERR$,,AUTO
         1 000322   200027 454500                    STP4    PATT_ENTRY$+2,,AUTO
         1 000323   000001 236000 2                  LDQ     1
         1 000324   200026 756100                    STQ     PATT_ENTRY$+1,,AUTO
         1 000325   200026 630500                    EPPR0   PATT_ENTRY$+1,,AUTO
         1 000326   000020 631400 xsym               EPPR1   B_VECTNIL+16
         1 000327   000000 701000 xent               TSX1    VDG$OALLOC
         1 000330   000376 702000 1                  TSX2    APPEND_LITERAL_FAILED

     2562     6174    1             ALTRET (OALLOC_FAILED);
     2563     6175    1           VD$ERR.ERR.CODE# = %E$CTRLFN_CURR_CONFLICTS_W_MID;

   6175  1 000331   200020 470500                    LDP0    VD_ERR$,,AUTO
         1 000332   000002 236100                    LDQ     2,,PR0
         1 000333   000002 376000 2                  ANQ     2
         1 000334   001110 276007                    ORQ     584,DL
         1 000335   000002 756100                    STQ     2,,PR0

     2564     6176    1           VD$ERR.FLAGLEV# = %FLV_SERIOUS;

   6176  1 000336   000003 220003                    LDX0    3,DU
         1 000337   200020 470500                    LDP0    VD_ERR$,,AUTO
         1 000340   000003 740100                    STX0    3,,PR0

     2565     6177    1           ALTRETURN;

   6177  1 000341   000000 702200 xent               TSX2  ! X66_AALT

     2566     6178
     2567     6179
     2568     6180    1   EXEC_CONTROL_FAILED:
     2569     6181    2           IF VD_6E.ERR_HEAD$ ~= VD_6E.ERR_TAIL$ THEN DO;

PL6.E3A0      #003=VDE$PPATT_STRING File=VDE$PARSE.:VDA5TSI                      FRI 07/04/97 11:15 Page:299
   6181  1 000342   000031 236000 xsym  EXEC_CONTRO* LDQ     VD_6E+25
         1 000343   000032 116000 xsym               CMPQ    VD_6E+26
         1 000344   000354 600000 1                  TZE     s:6186

     2570     6182    2              SUBST_FIELD$ = PINCRW(VD_6E.ERR_HEAD$, SIZEW(VD$ERR));

   6182  1 000345   000005 036003                    ADLQ    5,DU
         1 000346   200021 756100                    STQ     SUBST_FIELD$,,AUTO

     2571     6183    2              SUBST$NUMBER.OBJECT.CLASS# (0) = %CLS_NUMBER;

   6183  1 000347   000033 220003                    LDX0    27,DU
         1 000350   200021 470500                    LDP0    SUBST_FIELD$,,AUTO
         1 000351   000000 740100                    STX0    0,,PR0

     2572     6184    2              SUBST$NUMBER.V# (0) = CONTROL_INDEX;

   6184  1 000352   200012 235100                    LDA     CONTROL_INDEX,,AUTO
         1 000353   000003 755100                    STA     3,,PR0

     2573     6185    2              END;

     2574     6186    1           ALTRETURN;

   6186  1 000354   000000 702200 xent               TSX2  ! X66_AALT

     2575     6187
     2576     6188
     2577     6189    1   CTRLFN_BOM_NOT_BEFORE_EOM:
     2578     6190    1           CALL VDG$OALLOC (%CLS_ERR, VD_ERR$)

   6190  1 000355   200020 631500       CTRLFN_BOM_* EPPR1   VD_ERR$,,AUTO
         1 000356   200027 451500                    STP1    PATT_ENTRY$+2,,AUTO
         1 000357   000001 236000 2                  LDQ     1
         1 000360   200026 756100                    STQ     PATT_ENTRY$+1,,AUTO
         1 000361   200026 630500                    EPPR0   PATT_ENTRY$+1,,AUTO
         1 000362   000020 631400 xsym               EPPR1   B_VECTNIL+16
PL6.E3A0      #003=VDE$PPATT_STRING File=VDE$PARSE.:VDA5TSI                      FRI 07/04/97 11:15 Page:300
         1 000363   000000 701000 xent               TSX1    VDG$OALLOC
         1 000364   000376 702000 1                  TSX2    APPEND_LITERAL_FAILED

     2579     6191    1             ALTRET (OALLOC_FAILED);
     2580     6192    1           VD$ERR.ERR.CODE# = %E$CTRLFN_BOM_NOT_BEFORE_EOM;

   6192  1 000365   200020 470500                    LDP0    VD_ERR$,,AUTO
         1 000366   000002 236100                    LDQ     2,,PR0
         1 000367   000002 376000 2                  ANQ     2
         1 000370   001140 276007                    ORQ     608,DL
         1 000371   000002 756100                    STQ     2,,PR0

     2581     6193    1           VD$ERR.FLAGLEV# = %FLV_SERIOUS;

   6193  1 000372   000003 220003                    LDX0    3,DU
         1 000373   200020 470500                    LDP0    VD_ERR$,,AUTO
         1 000374   000003 740100                    STX0    3,,PR0

     2582     6194    1           ALTRETURN;

   6194  1 000375   000000 702200 xent               TSX2  ! X66_AALT

   6193  1 000376                       APPEND_LITE* null
   6193  1 000376                       OALLOC_FAIL* null
     2583     6195
     2584     6196
     2585     6197    1   APPEND_LITERAL_FAILED: ;
     2586     6198    1   OALLOC_FAILED: ;
     2587     6199    1           ALTRETURN;

   6199  1 000376   000000 702200 xent               TSX2  ! X66_AALT

     2588     6200
     2589     6201
     2590     6202                %BOX (TITLE=APPEND_LITERAL, PAGE=YES);
              6210    1
              6214    1   /***************************************************************************
PL6.E3A0      #003=VDE$PPATT_STRING File=VDE$PARSE.:VDA5TSI                      FRI 07/04/97 11:15 Page:301
              6216    1    *                                                                         *
              6220    1            *                               APPEND_LITERAL                           *
              6222    1            *                                                                        *
              6224    1          ***************************************************************************/

     2591     6228
     2592     6229        /*I* NAME: APPEND_LITERAL
     2593     6230            PARAMETERS:
     2594     6231                START_INDEX - Index into PATT_STRING.BYTES of the start
     2595     6232                    of the string to build the %PS_LITERAL entry for.
     2596     6233                END_INDEX - Index into PATT_STRING.BYTES of the byte following
     2597     6234                    the last byte of the string to build the %PS_LITERAL entry for.
     2598     6235            INPUT:
     2599     6236                PATTERN - The VD$PATTERN built so far.
     2600     6237                PATT_STRING.BYTES - Char string from which a string for a
     2601     6238                    %PS_LITERAL symbol is to be made.
     2602     6239            OUTPUT:
     2603     6240                NEED_MORE_ENTRIES may be set.
     2604     6241                PATTERN will have an entry appended to it.
     2605     6242            DESCRIPTION:
     2606     6243                Add an entry to PATTERN pointing to a VD$TEXTC_REMOTE
     2607     6244                    containing the literal string.
     2608     6245        */
     2609     6246
     2610     6247    1   APPEND_LITERAL: PROC (START_INDEX, END_INDEX) ALTRET;

   6247  1 000377   200022 741300       APPEND_LITE* STX1  ! SUBST_FIELD$+1,,AUTO

     2611     6248
     2612     6249    2   DCL START_INDEX SBIN;
     2613     6250    2   DCL END_INDEX SBIN;
     2614     6251
     2615     6252
     2616     6253
     2617     6254    2   DCL PATT_ENTRY$ PTR;
     2618     6255
     2619     6256
PL6.E3A0      #003=VDE$PPATT_STRING File=VDE$PARSE.:VDA5TSI                      FRI 07/04/97 11:15 Page:302
     2620     6257        %VD$PATT_ENTRY (NAME=PATT$ENTRY, STCLASS="BASED(PATT_ENTRY$)");
     2621     6272
     2622     6273
     2623     6274
     2624     6275    3           IF PATTERN.N_ENTRIES# >= PATTERN.MX_ENTRIES# THEN DO;

   6275  1 000400   200005 470500                    LDP0    @PATTERN,,AUTO
         1 000401   000002 720100                    LXL0    2,,PR0
         1 000402   000002 100100                    CMPX0   2,,PR0
         1 000403   000411 605400 1                  TPNZ    s:6280

     2625     6276    3              NEED_MORE_ENTRIES = %TRUE;

   6276  1 000404   400000 236003                    LDQ     -131072,DU
         1 000405   200006 471500                    LDP1    @NEED_MORE_ENTRIES,,AUTO
         1 000406   100000 756100                    STQ     0,,PR1

     2626     6277    3              RETURN;

   6277  1 000407   200022 221300                    LDX1  ! SUBST_FIELD$+1,,AUTO
         1 000410   000001 702211                    TSX2  ! 1,X1

     2627     6278    3              END;
     2628     6279
     2629     6280    2           PATT_ENTRY$ = ADDR(PATTERN.ENTRIES (PATTERN.N_ENTRIES#));

   6280  1 000411   000002 236100                    LDQ     2,,PR0
         1 000412   000020 732000                    QRS     16
         1 000413   000000 376000 2                  ANQ     0
         1 000414   000022 736000                    QLS     18
         1 000415   000003 036003                    ADLQ    3,DU
         1 000416   200005 036100                    ADLQ    @PATTERN,,AUTO
         1 000417   200025 756100                    STQ     PATT_ENTRY$,,AUTO

     2630     6281    2           PATTERN.N_ENTRIES# = PATTERN.N_ENTRIES# + 1;

   6281  1 000420   000002 222100                    LDX2    2,,PR0
PL6.E3A0      #003=VDE$PPATT_STRING File=VDE$PARSE.:VDA5TSI                      FRI 07/04/97 11:15 Page:303
         1 000421   000001 623012                    EAX3    1,X2
         1 000422   000002 743100                    STX3    2,,PR0

     2631     6282
     2632     6283    2           PATT$ENTRY.CODE# = %PS_LITERAL;

   6283  1 000423   000001 221003                    LDX1    1,DU
         1 000424   200025 471500                    LDP1    PATT_ENTRY$,,AUTO
         1 000425   100000 441100                    SXL1    0,,PR1

     2633     6284    2           CALL VDG$OALLOC (%CLS_TEXTC_REMOTE, PATT$ENTRY.MATCH$,

   6284  1 000426   200023 473500                    LDP3    @START_INDEX,,AUTO
         1 000427   200024 474500                    LDP4    @END_INDEX,,AUTO
         1 000430   400000 236100                    LDQ     0,,PR4
         1 000431   300000 136100                    SBLQ    0,,PR3
         1 000432   000014 036007                    ADLQ    12,DL
         1 000433   000004 506007                    DIV     4,DL
         1 000434   200026 756100                    STQ     PATT_ENTRY$+1,,AUTO
         1 000435   200026 635500                    EPPR5   PATT_ENTRY$+1,,AUTO
         1 000436   200031 455500                    STP5    PATT_ENTRY$+4,,AUTO
         1 000437   200025 236100                    LDQ     PATT_ENTRY$,,AUTO
         1 000440   000003 036003                    ADLQ    3,DU
         1 000441   200030 756100                    STQ     PATT_ENTRY$+3,,AUTO
         1 000442   000004 236000 2                  LDQ     4
         1 000443   200027 756100                    STQ     PATT_ENTRY$+2,,AUTO
         1 000444   200027 630500                    EPPR0   PATT_ENTRY$+2,,AUTO
         1 000445   000021 631400 xsym               EPPR1   B_VECTNIL+17
         1 000446   000000 701000 xent               TSX1    VDG$OALLOC
         1 000447   000501 702000 1                  TSX2    OALLOC_FAILED

     2634     6285    2             (LENGTHC(VD$STRING_HEADER) + (END_INDEX - START_INDEX) +
     2635     6286    2             %(NB_PER_WORD-1)) / %NB_PER_WORD)
     2636     6287    2             ALTRET (OALLOC_FAILED);
     2637     6288    2           PATT$ENTRY.MATCH$->VD$TEXTC_REMOTE.LENGTH# =

   6288  1 000450   200025 470500                    LDP0    PATT_ENTRY$,,AUTO
PL6.E3A0      #003=VDE$PPATT_STRING File=VDE$PARSE.:VDA5TSI                      FRI 07/04/97 11:15 Page:304
         1 000451   000003 471500                    LDP1    3,,PR0
         1 000452   200023 473500                    LDP3    @START_INDEX,,AUTO
         1 000453   200024 474500                    LDP4    @END_INDEX,,AUTO
         1 000454   400000 236100                    LDQ     0,,PR4
         1 000455   300000 136100                    SBLQ    0,,PR3
         1 000456   000033 736000                    QLS     27
         1 000457   100002 552140                    STBQ    2,'40'O,PR1

     2638     6289    2             END_INDEX - START_INDEX;
     2639     6290    2           PATT$ENTRY.MATCH$->VD$TEXTC_REMOTE.BYTES =

   6290  1 000460   000003 471500                    LDP1    3,,PR0
         1 000461   100002 236100                    LDQ     2,,PR1
         1 000462   000033 772000                    QRL     27
         1 000463   200003 475500                    LDP5    @PATT_STRING,,AUTO
         1 000464   000000 620006                    EAX0    0,QL
         1 000465   500000 236100                    LDQ     0,,PR5
         1 000466   000033 772000                    QRL     27
         1 000467   000000 621006                    EAX1    0,QL
         1 000470   400000 236100                    LDQ     0,,PR4
         1 000471   300000 136100                    SBLQ    0,,PR3
         1 000472   300000 235100                    LDA     0,,PR3
         1 000473   000000 622006                    EAX2    0,QL
         1 000474   040140 100545                    MLR     fill='040'O
         1 000475   500000 200012                    ADSC9   0,A,PR5                  cn=1,n=*X2
         1 000476   100002 200010                    ADSC9   2,,PR1                   cn=1,n=*X0

     2640     6291    2             SUBSTR(PATT_STRING.BYTES, START_INDEX, END_INDEX - START_INDEX);
     2641     6292
     2642     6293    2           RETURN;

   6293  1 000477   200022 221300                    LDX1  ! SUBST_FIELD$+1,,AUTO
         1 000500   000001 702211                    TSX2  ! 1,X1

     2643     6294
     2644     6295
     2645     6296    2   OALLOC_FAILED:
PL6.E3A0      #003=VDE$PPATT_STRING File=VDE$PARSE.:VDA5TSI                      FRI 07/04/97 11:15 Page:305
     2646     6297    2           ALTRETURN;

   6297  1 000501   200022 221300       OALLOC_FAIL* LDX1  ! SUBST_FIELD$+1,,AUTO
         1 000502   000000 702211                    TSX2  ! 0,X1
     2647     6298
     2648     6299    2   END APPEND_LITERAL;
     2649     6300
     2650     6301    1   END VDE$PPATT_STRING;
     2651     6302        %EOD;

PL6.E3A0      #003=VDE$PPATT_STRING File=VDE$PARSE.:VDA5TSI                      FRI 07/04/97 11:15 Page:306
--  Include file information  --

   XU_SUBS_C.:LIBRARY  is referenced.
   XU_MACRO_C.:LIBRARY  is referenced.
   VD_PERR_C.:VDA5TOU  is referenced.
   VD_MACROS_M.:VDA5TOU  is referenced.
   B$JIT_C.:E04TOU  was found in the system file and is never referenced.
   CP_6_C.:E04TOU  was found in the system file and is never referenced.
      No diagnostics issued in procedure VDE$PPATT_STRING.
PL6.E3A0      #003=VDE$PPATT_STRING File=VDE$PARSE.:VDA5TSI                      FRI 07/04/97 11:15 Page:307

 **** Variables and constants ****

  ****  Section 000 RoData VDE$PPATT_STRING

  ****  Scalars and arrays  ****
OctLoc.c.b A Datatyp(siz) R M Lvl/name                 OctLoc.c.b A Datatyp(siz) R M Lvl/name

     0-0-0/w PTR         r     1 CONTROL_VALUE$

  ****  Auto variables  ****

  ****  Scalars and arrays  ****
OctLoc.c.b A Datatyp(siz) R M Lvl/name                 OctLoc.c.b A Datatyp(siz) R M Lvl/name

    24-0-0/w PTR         r     1 @END_INDEX                 6-0-0/w PTR         r     1 @NEED_MORE_ENTRIES
     5-0-0/w PTR         r     1 @PATTERN                   3-0-0/w PTR         r     1 @PATT_STRING
     4-0-0/w PTR         r     1 @SCAN_INDEX               23-0-0/w PTR         r     1 @START_INDEX
    10-0-0/w SBIN        r     1 BO_STRING_INDEX           12-0-0/w SBIN        r     1 CONTROL_INDEX
    15-0-0/w SBIN        r     1 CTRL_ARGS(0:1)
    *0-0-0/w SBIN        r     1 END_INDEX                 11-0-0/w SBIN        r     1 EO_STRING_INDEX
    13-0-0/w SBIN        r     1 NB_STRING                 *0-0-0/w BIT         r     1 NEED_MORE_ENTRIES
    *0-0-0/w STRC(252)   r     1 PATTERN                   17-0-0/w PTR         r     1 PATT_ENTRY$
    25-0-0/w PTR         r     1 PATT_ENTRY$               *0-0-0/w ASTR(9)     r     1 PATT_STRING
    14-0-0/c CHAR        r     1 RET_CODE                  *0-0-0/w SBIN        r     1 SCAN_INDEX
     7-0-0/w BIT         r     1 SEEN_EO_MATCH             *0-0-0/w SBIN        r     1 START_INDEX
    21-0-0/w PTR         r     1 SUBST_FIELD$              20-0-0/w PTR         r     1 VD_ERR$

  ****  SYMREF variables  ****

  ****  Scalars and arrays  ****
OctLoc.c.b A Datatyp(siz) R M Lvl/name                 OctLoc.c.b A Datatyp(siz) R M Lvl/name

     0-0-0/w ASTR(90)    r     1 VD_$CONTROL                0-0-0/w STRC(22644) r     1 VD_6E

  ****  BASED and DCB variables  ****

  ****  Scalars and arrays  ****
PL6.E3A0      #003=VDE$PPATT_STRING File=VDE$PARSE.:VDA5TSI                      FRI 07/04/97 11:15 Page:308
OctLoc.c.b A Datatyp(siz) R M Lvl/name                 OctLoc.c.b A Datatyp(siz) R M Lvl/name

     0-0-0/w ASTR(90)    r     1 CONTROL$VALUE              0-0-0/w STRC(144)   r     1 PATT$ENTRY
     0-0-0/w STRC(144)   r     1 PATT$ENTRY
     0-0-0/w STRC(144)   r     1 SUBST$NUMBER(0:2)
     0-0-0/w STRC(180)   r     1 VD$ERR                     0-0-0/w STRC(81)    r     1 VD$STRING_HEADER
     0-0-0/w ASTR(81)    r     1 VD$TEXTC_REMOTE


   Procedure VDE$PPATT_STRING requires 323 words for executable code.
   Procedure VDE$PPATT_STRING requires 28 words of local(AUTO) storage.
PL6.E3A0      #003=VDE$PPATT_STRING File=VDE$PARSE.:VDA5TSI                      FRI 07/04/97 11:15 Page:309
          *** CROSS REFERENCE LISTING ***
**     DENOTES     IDENTIFIER DEFINITION
<<                 IDENTIFIER'S VALUE SET
>>                 IDENTIFIER'S VALUE USED
<>                 IDENTIFIER SET AND/OR USED
--                 IDENTIFIER REFERENCED
PL6.E3A0      #003=VDE$PPATT_STRING File=VDE$PARSE.:VDA5TSI                      FRI 07/04/97 11:15 Page:310
          MINI XREF LISTING

APPEND_LITERAL
      6247**PROC     6111--CALL
APPEND_LITERAL_FAILED
      6193**LABEL    6111--CALLALT
BO_STRING_INDEX
      5801**DCL      6088<<ASSIGN   6110>>IF       6111<>CALL
CONTROL$VALUE.BYTES
      5865**DCL      6094>>CALLBLT
CONTROL$VALUE.LENGTH#
      5863**DCL      5865--IMP-SIZ  6094>>CALLBLT
CONTROL_INDEX
      5803**DCL      6094<<CALLBLT  6096>>ASSIGN   6097>>IF       6109>>ASSIGN   6138>>IF       6184>>ASSIGN
CONTROL_VALUE$
      5796**DCL      5837--IMP-PTR  6094>>CALLBLT  6094>>CALLBLT
CTRLFN_BOM_NOT_BEFORE_EOM
      6190**LABEL    6155--GOTO
CTRLFN_CURR_CONFLICTS_W_MID
      6173**LABEL    6140--GOTO
CTRL_ARGS
      5806**DCL      6099<>CALL     6131>>ASSIGN   6132>>ASSIGN   6150>>ASSIGN   6151>>ASSIGN
END_INDEX IN PROCEDURE APPEND_LITERAL
      6250**DCL      6247--PROC     6284>>CALL     6288>>ASSIGN   6290>>ASSIGN
EO_STRING_INDEX
      5802**DCL      6107<<ASSIGN   6109<<ASSIGN   6110>>IF       6111<>CALL
EXEC_CONTROL_FAILED
      6181**LABEL    6099--CALLALT
NB_STRING
      5804**DCL      6098<<ASSIGN   6099<>CALL     6102>>ASSIGN
NEED_MORE_ENTRIES
      5690**DCL        61--PROC     6083<<ASSIGN   6113>>IF       6121<<ASSIGN   6276<<ASSIGN
OALLOC_FAILED
      6193**LABEL    6173--CALLALT  6190--CALLALT
PL6.E3A0      #003=VDE$PPATT_STRING File=VDE$PARSE.:VDA5TSI                      FRI 07/04/97 11:15 Page:311
OALLOC_FAILED IN PROCEDURE APPEND_LITERAL
      6297**LABEL    6284--CALLALT
PATT$ENTRY.CODE#
      5882**DCL      6130<<ASSIGN   6135<<ASSIGN   6141<<ASSIGN   6144<<ASSIGN   6149<<ASSIGN   6156<<ASSIGN
      6159<<ASSIGN
PATT$ENTRY.M#
      5882**DCL      6131<<ASSIGN   6145<<ASSIGN   6150<<ASSIGN
PATT$ENTRY.N#
      5882**DCL      6132<<ASSIGN   6146<<ASSIGN   6151<<ASSIGN
PATT$ENTRY.CODE# IN PROCEDURE APPEND_LITERAL
      6269**DCL      6283<<ASSIGN
PATT$ENTRY.MATCH$ IN PROCEDURE APPEND_LITERAL
      6270**DCL      6284<>CALL     6288>>ASSIGN   6290>>ASSIGN   6290>>ASSIGN
PATTERN
      5647**DCL        61--PROC
PATTERN.ENTRIES
      5684**DCL      6124--ASSIGN   6280--ASSIGN
PATTERN.MX_ENTRIES#
      5673**DCL      6120>>IF       6275>>IF
PATTERN.N_ENTRIES#
      5673**DCL      6120>>IF       6124>>ASSIGN   6125<<ASSIGN   6125>>ASSIGN   6275>>IF       6280>>ASSIGN
      6281<<ASSIGN   6281>>ASSIGN
PATT_ENTRY$
      5807**DCL      5878--IMP-PTR  6124<<ASSIGN   6130>>ASSIGN   6131>>ASSIGN   6132>>ASSIGN   6135>>ASSIGN
      6141>>ASSIGN   6144>>ASSIGN   6145>>ASSIGN   6146>>ASSIGN   6149>>ASSIGN   6150>>ASSIGN   6151>>ASSIGN
      6156>>ASSIGN   6159>>ASSIGN
PATT_ENTRY$ IN PROCEDURE APPEND_LITERAL
      6254**DCL      6265--IMP-PTR  6280<<ASSIGN   6283>>ASSIGN   6284>>CALL     6288>>ASSIGN   6290>>ASSIGN
      6290>>ASSIGN
PATT_STRING
      5623**DCL        61--PROC
PATT_STRING.BYTES
      5633**DCL      6094>>CALLBLT  6099<>CALL     6290>>ASSIGN
PATT_STRING.LENGTH#
      5631**DCL      5633--IMP-SIZ  6087>>DOWHILE  6091>>ASSIGN   6092>>DOWHILE  6094>>CALLBLT  6097>>IF
      6098>>ASSIGN   6099>>CALL     6102<<ASSIGN   6138>>IF       6290>>ASSIGN
PL6.E3A0      #003=VDE$PPATT_STRING File=VDE$PARSE.:VDA5TSI                      FRI 07/04/97 11:15 Page:312
RET_CODE
      5805**DCL      6089<<ASSIGN   6092>>DOWHILE  6099<>CALL     6106>>IF       6117>>IF       6127>>DOSELCT
      6163<>CALL
SCAN_INDEX
      5638**DCL        61--PROC     6087>>DOWHILE  6088>>ASSIGN   6091<<ASSIGN   6092>>DOWHILE  6094>>CALLBLT
      6096<<ASSIGN   6099<>CALL     6107>>ASSIGN   6138>>IF
SEEN_EO_MATCH
      5800**DCL      6084<<ASSIGN   6154>>IF       6160<<ASSIGN
START_INDEX IN PROCEDURE APPEND_LITERAL
      6249**DCL      6247--PROC     6284>>CALL     6288>>ASSIGN   6290>>ASSIGN   6290>>ASSIGN
SUBST$NUMBER.OBJECT.CLASS#
      5978**DCL      6183<<ASSIGN
SUBST$NUMBER.V#
      5980**DCL      6184<<ASSIGN
SUBST_FIELD$
      5809**DCL      5946--IMP-PTR  6182<<ASSIGN   6183>>ASSIGN   6184>>ASSIGN
VD$ERR
      5893**DCL      6182--ASSIGN
VD$ERR.ERR.CODE#
      5932**DCL      6175<<ASSIGN   6192<<ASSIGN
VD$ERR.FLAGLEV#
      5935**DCL      6176<<ASSIGN   6193<<ASSIGN
VD$STRING_HEADER
      6052**DCL      6284--CALL
VD$TEXTC_REMOTE.BYTES
      6039**DCL      6290<<ASSIGN
VD$TEXTC_REMOTE.LENGTH#
      6037**DCL      6039--IMP-SIZ  6288<<ASSIGN   6290>>ASSIGN
VDG$ESCREECH
      5695**DCL-ENT  6163--CALL
VDG$EXEC_CONTROL
      5693**DCL-ENT  6099--CALL
VDG$OALLOC
      5694**DCL-ENT  6173--CALL     6190--CALL     6284--CALL
VD_$CONTROL
      5760**DCL      5796--DCLINIT
PL6.E3A0      #003=VDE$PPATT_STRING File=VDE$PARSE.:VDA5TSI                      FRI 07/04/97 11:15 Page:313
VD_$CONTROL.LENGTH#
      5786**DCL      5788--IMP-SIZ  6090>>IF
VD_6E.ERR_HEAD$
      5730**DCL      6181>>IF       6182>>ASSIGN
VD_6E.ERR_TAIL$
      5730**DCL      6181>>IF
VD_ERR$
      5808**DCL      5893--IMP-PTR  6173<>CALL     6175>>ASSIGN   6176>>ASSIGN   6190<>CALL     6192>>ASSIGN
      6193>>ASSIGN

PL6.E3A0      #004=VDE$PXUE_EXP File=VDE$PARSE.:VDA5TSI                          FRI 07/04/97 11:15 Page:314
     2652        1        /*T***********************************************************/
     2653        2        /*T*                                                         */
     2654        3        /*T* Copyright (c) Bull HN Information Systems Inc., 1997    */
     2655        4        /*T*                                                         */
     2656        5        /*T***********************************************************/
     2657        6
     2658        7        /*D* NAME: VDE$PXUE_EXP
     2659        8            PARAMETERS:
     2660        9                PT_XUE_EXP - XUE_EXP# ParseTree node.
     2661       10                NUMBER - Uninitialized SBIN.
     2662       11                BUFFER$ - Optional uninitialized ptr.
     2663       12                RET_CODE - Optional uninitialized CHAR(1) CALIGNED.
     2664       13                CTRL_ARGS - Optional uninitialized array (0:%(MX_CTRL_FN_ARGS-1)
     2665       14                    of words.
     2666       15            INPUT:
     2667       16                XUE_ECB - Static control block for X$EVAL.  It must
     2668       17                    already have a workspace VD$BUFFER allocated for it.
     2669       18                    If PT_XUE_EXP is not passed, XUE_ECB.OUT$ must point to
     2670       19                    the VD$TEXTC value of the string expression.
     2671       20                VD_$CONTROL - The VD$BUFFER for the $CONTROL predefined
     2672       21                    name.  Value's length may be 0.
     2673       22            OUTPUT:
     2674       23                Depends on entry-point.
     2675       24            DESCRIPTION:
     2676       25                This routine contains two entry points:  call VDE$PSTRING
     2677       26                to evaluate the XUE_EXP# node to a string (file of records).
     2678       27                Call VDE$PNUMBER to evaluate the XUE_EXP# node to a number.
     2679       28                $CONTROL-functions are supported for VDE$PSTRING, but not
     2680       29                for VDE$PNUMBER.
     2681       30        */
     2682       31
     2683       32        VDE$PXUE_EXP: PROC (PT_XUE_EXP, NUMBER, BUFFER$, RET_CODE, CTRL_ARGS)
     2684       33                  ALTRET;
     2685       34
     2686       35        %INCLUDE VD_MACROS_M;
     2687     2250        %INCLUDE VD_PERR_C;
     2688     2398        %INCLUDE XUE_MACRO_C;
PL6.E3A0      #004=VDE$PXUE_EXP File=VDE$PARSE.:VDA5TSI                          FRI 07/04/97 11:15 Page:315
     2689     3142        %INCLUDE XU_MACRO_C;
     2690     6236        %INCLUDE XU_PERR_C;
     2691     6427
     2692     6428
     2693     6429        %PARSE$OUT (NAME=PT_XUE_EXP, STCLASS=PARAM);
     2694     6474    1   DCL NUMBER SBIN;
     2695     6475    1   DCL BUFFER$ PTR;
     2696     6476    1   DCL RET_CODE CHAR(1) CALIGNED;
     2697     6477    1   DCL CTRL_ARGS (0:%(MX_CTRL_FN_ARGS-1)) SBIN ALIGNED;
     2698     6478
     2699     6479
     2700     6480    1   DCL X$EVAL              ENTRY (1) ALTRET;
     2701     6481    1   DCL VDG$OALLOC          ENTRY (3) ALTRET;
     2702     6482    1   DCL VDG$OFREE           ENTRY (1) ALTRET;
     2703     6483    1   DCL VDG$EXEC_CONTROL    ENTRY (5) ALTRET;
     2704     6484    1   DCL VDG$ESCREECH        ENTRY (3);
     2705     6485    1   DCL X$DEC_CONVERT       ENTRY (2) ALTRET;
     2706     6486
     2707     6487
     2708     6488        %VD_6E (STCLASS=SYMREF);
     2709     6524        %VD_BUFFER (NAME=VD_$CONTROL, STCLASS=SYMREF, MXNB=%MXNB_$CONTROL);
     2710     6584        %XUE_ECB (NAME=XUE_ECB, STCLASS=SYMREF);
     2711     6786    1   DCL VD_CMD_OBJECTS$ (0:%(MX_CMD_OBJECTS-1)) PTR SYMREF;
     2712     6787
     2713     6788
     2714     6789    1   DCL CONTROL_VALUE$ PTR CONSTANT INIT(ADDR(VD_$CONTROL));
     2715     6790
     2716     6791
     2717     6792
     2718     6793    1   DCL NB_STRING SBIN;
     2719     6794    1   DCL START_NUMBER SBIN;
     2720     6795    1   DCL PARTIAL_LENGTH SBIN;
     2721     6796    1   DCL STRING$ PTR;
     2722     6797    1   DCL VD_ERR$ PTR;
     2723     6798    1   DCL SUBST_FIELD$ PTR;
     2724     6799    1   DCL INDX SBIN;
     2725     6800
PL6.E3A0      #004=VDE$PXUE_EXP File=VDE$PARSE.:VDA5TSI                          FRI 07/04/97 11:15 Page:316
     2726     6801
     2727     6802        %VD$TEXTC (NAME=STRING, STCLASS="BASED(XUE_ECB.OUT$)");
     2728     6825        %VD$BUFFER (NAME=CONTROL$VALUE, STCLASS="BASED(CONTROL_VALUE$)");
     2729     6883        %VD$BUFFER (NAME=BUFFER, STCLASS="BASED(BUFFER$)");
     2730     6941        %VD$ERR (NAME=VD$ERR, STCLASS="BASED(VD_ERR$)");
     2731     6994        %VD$ERR (NAME=FATAL$ERR, STCLASS="BASED(VD_6E.ERR_HEAD$)");
     2732     7047        %VD$ERR (NAME=VD$ERR_LAST, STCLASS="BASED(VD_6E.ERR_TAIL$)");
     2733     7100        %VD$NUMBER (NAME=SUBST$NUMBER, DIM="(0:2)", STCLASS="BASED(SUBST_FIELD$)");
     2734     7145        %VD$POINTER (NAME=SUBST$POINTER, DIM="(0:2)", STCLASS="BASED(SUBST_FIELD$)");
     2735     7190        %VD$BUFFER_HEADER;
     2736     7226        %VD$STRING_HEADER;
     2737     7262        %VD$TEXTC_REMOTE;
     2738     7323
     2739     7324
     2740     7325
     2741     7326        /*D* NAME: VDE$PSTRING
     2742     7327            PARAMETERS:
     2743     7328                PT_XUE_EXP - Optional XUE_EXP# PT node.
     2744     7329                NUMBER - Index into string which is value of PT_XUE_EXP
     2745     7330                    node of next character to process.  If PT_XUE_EXP is
     2746     7331                    passed, NUMBER need not be initialized; else, NUMBER
     2747     7332                    is an index into XUE_ECB.OUT$->VD$TEXTC.BYTES.
     2748     7333                BUFFER$ - Optional uninitialized ptr.
     2749     7334                RET_CODE - Optional uninitialized CHAR(1) CALIGNED.
     2750     7335                CTRL_ARGS - Optional uninitialized array (0:%(MX_CTRL_FN_ARGS-1)
     2751     7336                    of words.
     2752     7337            INPUT:
     2753     7338                Same as for main routine.
     2754     7339            OUTPUT:
     2755     7340                NUMBER will be modified to point to the next character
     2756     7341                    to process.
     2757     7342                If BUFFER$ is not passed, then BUFFER$, RET_CODE, and
     2758     7343                    CTRL_ARGS will be ignored.
     2759     7344                If BUFFER$ is passed:
     2760     7345                    BUFFER$ will contain ADDR(NIL) if there were no characters
     2761     7346                        between NUMBER at entry and either the next $CONTROL
     2762     7347                        function or the end of the string.  Otherwise, BUFFER$
PL6.E3A0      #004=VDE$PXUE_EXP File=VDE$PARSE.:VDA5TSI                          FRI 07/04/97 11:15 Page:317
     2763     7348                        will point to a VD$BUFFER containing those characters.
     2764     7349                    RET_CODE will contain an %FNID_ value, indicating the
     2765     7350                        type of $CONTROL-function found; if none found or
     2766     7351                        it was handled entirely internally, RET_CODE will
     2767     7352                        contain %CHR_SPACE.
     2768     7353                    CTRL_ARGS (if supplied) will be cleared.
     2769     7354                            For the following RET_CODE values, CTRL_ARGS will
     2770     7355                            contain the specified or default values for
     2771     7356                            arguments of the function:
     2772     7357                        %FNID_WILD_CHAR: CTRL_ARGS (0) = minimum # chars to
     2773     7358                            match, CTRL_ARGS (1) = maximum # chars to match.
     2774     7359        *N**N*          %FNID_SET_OF_SEQUENCES: CTRL_ARGS (0) = # chars to match.
     2775     7360                If we ALTRETURN due to a recoverable error, we'll set
     2776     7361                    the "%U1" substitution field of the last VD$ERR to
     2777     7362                    the index into the PT_XUE_EXP node's string value of
     2778     7363                    the error.
     2779     7364                    The caller should set .CMDLINE_INDEX# in that VD$ERR to
     2780     7365                    PT_XUE_EXP's .HI_CHAR.
     2781     7366            DESCRIPTION:
     2782     7367                If PT_XUE_EXP given, call X$EVAL to evaluate it.  If
     2783     7368                    the workspace is too small, release it and allocate a
     2784     7369                    larger one.
     2785     7370                If BUFFER$ is not given, return now.  Otherwise, build a
     2786     7371                    VD$BUFFER for the next portion of the string:
     2787     7372                Find the next $CONTROL-function invocation in the literal:
     2788     7373                Call VDG$EXEC_CONTROL to execute the function.  If
     2789     7374                    VDG$EXEC_CONTROL couldn't execute the entire function,
     2790     7375                    build a VD$BUFFER containing any characters
     2791     7376                    seen up to this invocation, and return an appropriate
     2792     7377                    %FNID_ value in RET_CODE.
     2793     7378                If VDG$EXEC_CONTROL could execute the $CONTROL function
     2794     7379                    entirely, then loop on calling it.
     2795     7380        */
     2796     7381
     2797     7382    1   VDE$PSTRING: ENTRY (PT_XUE_EXP, NUMBER, BUFFER$, RET_CODE, CTRL_ARGS)
     2798     7383    1             ALTRET;
     2799     7384
PL6.E3A0      #004=VDE$PXUE_EXP File=VDE$PARSE.:VDA5TSI                          FRI 07/04/97 11:15 Page:318
     2800     7385
     2801     7386    2           IF ADDR(BUFFER$) ~= ADDR(NIL) THEN DO;
     2802     7387    2              BUFFER$ = ADDR(NIL);
     2803     7388    2              RET_CODE = %CHR_SPACE;
     2804     7389    2              CTRL_ARGS = %CLEAR;
     2805     7390    2              END;
     2806     7391
     2807     7392    2           IF ADDR(PT_XUE_EXP) ~= ADDR(NIL) THEN DO;
     2808     7393    2              CALL EVAL_PT_XUE_EXP
     2809     7394    2                ALTRET (EVAL_PT_XUE_EXP_FAILED);
     2810     7395    2              NUMBER = 0;
     2811     7396    2              END;
     2812     7397    1           IF ADDR(BUFFER$) = ADDR(NIL) THEN
     2813     7398    1              RETURN;
     2814     7399
     2815     7400    1           START_NUMBER = NUMBER;
     2816     7401    1           STRING$ = XUE_ECB.OUT$;
     2817     7402
     2818     7403    1           IF VD_$CONTROL.LENGTH# = 0 THEN
     2819     7404    1              NUMBER = STRING.LENGTH#;
     2820     7405    2           DO WHILE NUMBER < STRING.LENGTH#
     2821     7406    2             AND RET_CODE = %CHR_SPACE;
     2822     7407    2              CALL INDEX (PARTIAL_LENGTH, CONTROL$VALUE.BYTES, STRING.BYTES,
     2823     7408    2                NUMBER);
     2824     7409    2              NUMBER = PARTIAL_LENGTH;
     2825     7410    3              IF NUMBER < STRING.LENGTH# THEN DO;
     2826     7411    3                 NB_STRING = STRING.LENGTH#;
     2827     7412    3                 CALL VDG$EXEC_CONTROL (NB_STRING, STRING.BYTES,
     2828     7413    3                   NUMBER, RET_CODE, CTRL_ARGS)
     2829     7414    3                   ALTRET (EXEC_CONTROL_FAILED);
     2830     7415    3                 STRING.LENGTH# = NB_STRING;
     2831     7416    3                 END;
     2832     7417    2              END;
     2833     7418
     2834     7419    1           IF RET_CODE = %CHR_SPACE THEN
     2835     7420    1              PARTIAL_LENGTH = NUMBER;
     2836     7421    2           IF PARTIAL_LENGTH - START_NUMBER > 0 THEN DO;
PL6.E3A0      #004=VDE$PXUE_EXP File=VDE$PARSE.:VDA5TSI                          FRI 07/04/97 11:15 Page:319
     2837     7422    2              NB_STRING = PARTIAL_LENGTH - START_NUMBER;
     2838     7423    2              CALL VDG$OALLOC (%CLS_BUFFER, BUFFER$,
     2839     7424    2                (LENGTHC(VD$BUFFER_HEADER) + NB_STRING + %NB_PER_WORD-1) /
     2840     7425    2                %NB_PER_WORD)
     2841     7426    2                ALTRET (OALLOC_FAILED);
     2842     7427    2              BUFFER.LENGTH# = NB_STRING;
     2843     7428    2              BUFFER.BYTES = SUBSTR(STRING.BYTES, START_NUMBER,
     2844     7429    2                NB_STRING);
     2845     7430    2              END;
     2846     7431
     2847     7432    1           RETURN;
     2848     7433
     2849     7434
     2850     7435
     2851     7436    1   EXEC_CONTROL_FAILED:
     2852     7437    2           IF VD_6E.ERR_HEAD$ ~= VD_6E.ERR_TAIL$ THEN DO;
     2853     7438    2              SUBST_FIELD$ = PINCRW(VD_6E.ERR_TAIL$, LENGTHW(VD$ERR));
     2854     7439    2              SUBST$NUMBER.OBJECT.CLASS# (0) = %CLS_NUMBER;
     2855     7440    2              SUBST$NUMBER.V# (0) = NUMBER;
     2856     7441    2              END;
     2857     7442    1           ALTRETURN;
     2858     7443
     2859     7444    1   EVAL_PT_XUE_EXP_FAILED: ;
     2860     7445    1   OALLOC_FAILED: ;
     2861     7446    1           ALTRETURN;
     2862     7447
     2863     7448        /*D* NAME: VDE$PNUMBER
     2864     7449            PARAMETERS:
     2865     7450                PT_XUE_EXP - Parse node for %XUE_EXP#.
     2866     7451                NUMBER - Uninitialized SBIN.
     2867     7452            INPUT:
     2868     7453                Same as for main routine.
     2869     7454            OUTPUT:
     2870     7455                NUMBER will contain the numeric value of the evaluated
     2871     7456                    expression.
     2872     7457            DESCRIPTION:
     2873     7458                Call X$EVAL to evaluate the expression into a textc string.
PL6.E3A0      #004=VDE$PXUE_EXP File=VDE$PARSE.:VDA5TSI                          FRI 07/04/97 11:15 Page:320
     2874     7459                Call X$DEC_CONVERT to convert the string to a number.
     2875     7460        */
     2876     7461
     2877     7462    1   VDE$PNUMBER: ENTRY (PT_XUE_EXP, NUMBER) ALTRET;
     2878     7463
     2879     7464
     2880     7465    1           NUMBER = 0;
     2881     7466    1           CALL EVAL_PT_XUE_EXP
     2882     7467    1             ALTRET (EVAL_PT_XUE_EXP_FAILED);
     2883     7468
     2884     7469    1           CALL X$DEC_CONVERT (XUE_ECB.OUT$, NUMBER)
     2885     7470    1             ALTRET (DEC_CONVERT_FAILED);
     2886     7471
     2887     7472    1           RETURN;
     2888     7473
     2889     7474
     2890     7475    1   DEC_CONVERT_FAILED:
     2891     7476    1           CALL VDG$OALLOC (%CLS_ERR, VD_ERR$)
     2892     7477    1             ALTRET (OALLOC_FAILED);
     2893     7478    1           VD$ERR.ERR.CODE# = %E$DECIMAL_NOT_LEGAL;
     2894     7479    1           VD$ERR.FLAGLEV# = %FLV_SERIOUS;
     2895     7480    1           VD$ERR.CMDLINE_INDEX# = PT_XUE_EXP.CPOS;
     2896     7481
     2897     7482    1           SUBST_FIELD$ = PINCRW(VD_ERR$, SIZEW(VD$ERR));
     2898     7483    1           INDX = 0;
     2899     7484    2           DO WHILE INDX < %MX_CMD_OBJECTS
     2900     7485    2             AND VD_CMD_OBJECTS$ (INDX) ~= ADDR(NIL);
     2901     7486    2              INDX = INDX + 1;
     2902     7487    2              END;
     2903     7488    1           IF INDX >= %MX_CMD_OBJECTS THEN
     2904     7489    1              CALL VDG$ESCREECH (INDX);
     2905     7490    1           CALL VDG$OALLOC (%CLS_TEXTC_REMOTE, VD_CMD_OBJECTS$ (INDX),
     2906     7491    1             (LENGTHC(VD$STRING_HEADER) + STRING.LENGTH# + %NB_PER_WORD-1) /
     2907     7492    1             %NB_PER_WORD)
     2908     7493    1             ALTRET (OALLOC_FAILED);
     2909     7494    1           VD_CMD_OBJECTS$ (INDX) -> VD$TEXTC_REMOTE.LENGTH# = STRING.LENGTH#;
     2910     7495    1           VD_CMD_OBJECTS$ (INDX) -> VD$TEXTC_REMOTE.BYTES = STRING.BYTES;
PL6.E3A0      #004=VDE$PXUE_EXP File=VDE$PARSE.:VDA5TSI                          FRI 07/04/97 11:15 Page:321
     2911     7496    1           SUBST$POINTER.OBJECT.CLASS# (0) = %CLS_PTR_TEXTC;
     2912     7497    1           SUBST$POINTER.V$ (0) =
     2913     7498    1             ADDR(VD_CMD_OBJECTS$ (INDX) -> VD$TEXTC_REMOTE.LENGTH#);
     2914     7499    1           ALTRETURN;
     2915     7500
     2916     7501        %BOX (TITLE=EVAL_PT_XUE_EXP, PAGE=YES);
              7509    1
              7513    1   /***************************************************************************
              7515    1    *                                                                         *
              7519    1            *                              EVAL_PT_XUE_EXP                            *
              7521    1            *                                                                         *
              7523    1           ***************************************************************************/

     2917     7527
     2918     7528        /*I* NAME: EVAL_PT_XUE_EXP
     2919     7529            PARAMETERS:
     2920     7530                None.
     2921     7531            INPUT:
     2922     7532                PT_XUE_EXP - Parse node for %XUE_EXP#.
     2923     7533                XUE_ECB - Eval control block for X$EVAL.
     2924     7534            OUTPUT:
     2925     7535                XUE_ECB.OUT$ will point to a VD$TEXTC (owned by X$EVAL)
     2926     7536                    containing the value of the string expression.
     2927     7537                XUE_ECB.WKSZ and .WORK$ may be changed.
     2928     7538            DESCRIPTION:
     2929     7539                Evaluate the expression.
     2930     7540        */
     2931     7541
     2932     7542    1   EVAL_PT_XUE_EXP: PROC ALTRET;
     2933     7543
     2934     7544
     2935     7545    2   DCL WORK_BUFFER$ PTR;
     2936     7546    2   DCL WKSZ SBIN;
     2937     7547
     2938     7548
     2939     7549        %VD$BUFFER (NAME=WORK$BUFFER, STCLASS="BASED(WORK_BUFFER$)");
     2940     7607
PL6.E3A0      #004=VDE$PXUE_EXP File=VDE$PARSE.:VDA5TSI                          FRI 07/04/97 11:15 Page:322
     2941     7608
     2942     7609
     2943     7610    2           XUE_ECB.TREE$ = ADDR(PT_XUE_EXP);
     2944     7611
     2945     7612    2   RE_EVAL:
     2946     7613    2           CALL X$EVAL (XUE_ECB)
     2947     7614    3           WHENRETURN DO; RETURN; END;
     2948     7615
     2949     7616                /*
     2950     7617                *   Got an error from X$EVAL:  is it ours or X$EVAL's?
     2951     7618                *   Our subroutines (eg, VDE$PREAD_NAME_FOR_EVAL and
     2952     7619                *       VDE$PFUNCTIONS) push a VD$ERR onto the error chain
     2953     7620                *       and set (or get set for them) XUE_ECB.ERR.CODE --
     2954     7621                *       but not .ERR.FCG.  However, if it is a monitor error,
     2955     7622                *       they'll push the VD$ERR and set all fields of
     2956     7623                *       XUE_ECB.ERR -- including the .MON bit.
     2957     7624                *   If X$EVAL finds an error, it'll set all fields of
     2958     7625                *       XUE_ECB.ERR -- except the .MON bit.  Also, of course,
     2959     7626                *       it won't push a VD$ERR.
     2960     7627                */
     2961     7628
     2962     7629    3           IF XUE_ECB.ERR.CODE = %E$XUE#SMALLWORK THEN DO;
     2963     7630                   %INCREMENT (INDX=%STG_EXPAND_EVAL);
     2964     7633    4              IF XUE_ECB.WORK$ ~= ADDR(NIL) THEN DO;
     2965     7634    4                 WORK_BUFFER$ = PINCRW(XUE_ECB.WORK$, - SIZEW(VD$BUFFER_HEADER));
     2966     7635    4                 CALL VDG$OFREE (WORK$BUFFER)
     2967     7636    4                   ALTRET (OFREE_FAILED);
     2968     7637    4                 END;
     2969     7638    3              XUE_ECB.WKSZ# = XUE_ECB.WKSZ# + %NW_EVAL_WORK;
     2970     7639    3              WKSZ = SIZEW(VD$BUFFER_HEADER) + XUE_ECB.WKSZ#;
     2971     7640    3              CALL VDG$OALLOC (%CLS_BUFFER, WORK_BUFFER$, WKSZ)
     2972     7641    3                ALTRET (OALLOC_FAILED);
     2973     7642    3              WORK$BUFFER.LENGTH# = (WORK$BUFFER.OBJECT.SIZE# * %NB_PER_WORD) -
     2974     7643    3                LENGTHC(VD$BUFFER_HEADER);
     2975     7644    3              XUE_ECB.WORK$ = PALIGNW(ADDR(WORK$BUFFER.BYTES));
     2976     7645    3              GOTO RE_EVAL;
     2977     7646    3              END;
PL6.E3A0      #004=VDE$PXUE_EXP File=VDE$PARSE.:VDA5TSI                          FRI 07/04/97 11:15 Page:323
     2978     7647
     2979     7648    2           IF XUE_ECB.ERR.FCG ~= %CLEAR
     2980     7649    3             AND XUE_ECB.ERR.MON = %FALSE THEN DO;
     2981     7650                   /* Error is X$EVAL's */
     2982     7651    3              CALL VDG$OALLOC (%CLS_ERR, VD_ERR$)
     2983     7652    3                ALTRET (OALLOC_FAILED);
     2984     7653    3              VD$ERR.ERR = XUE_ECB.ERR;
     2985     7654    3              VD$ERR.FLAGLEV# = %FLV_SERIOUS;
     2986     7655    3              VD$ERR_LAST.CMDLINE_INDEX# = XUE_ECB.ERR_POS#;
     2987     7656    3              END;
     2988     7657    2           ALTRETURN;
     2989     7658
     2990     7659
     2991     7660    2   OALLOC_FAILED: ;
     2992     7661    2   OFREE_FAILED: ;
     2993     7662    2           ALTRETURN;
     2994     7663
     2995     7664    2   END EVAL_PT_XUE_EXP;
     2996     7665
     2997     7666
     2998     7667    1   END VDE$PXUE_EXP;
     2999     7668        %EOD;

PL6.E3A0      #004=VDE$PXUE_EXP File=VDE$PARSE.:VDA5TSI                          FRI 07/04/97 11:15 Page:324
--  Include file information  --

   XU_PERR_C.:LIBRARY  is referenced.
   XU_MACRO_C.:LIBRARY  is referenced.
   XUE_MACRO_C.:LIBRARY  is referenced.
   VD_PERR_C.:VDA5TOU  is referenced.
   VD_MACROS_M.:VDA5TOU  is referenced.
   B$JIT_C.:E04TOU  was found in the system file and is never referenced.
   CP_6_C.:E04TOU  was found in the system file and is never referenced.
      No diagnostics issued in procedure VDE$PXUE_EXP.

   Procedure VDE$PXUE_EXP requires 324 words for executable code.
   Procedure VDE$PXUE_EXP requires 26 words of local(AUTO) storage.

PL6.E3A0      #004=VDE$PXUE_EXP File=VDE$PARSE.:VDA5TSI                          FRI 07/04/97 11:15 Page:325

 Object Unit name= VDE$PXUE_EXP                               File name= VDE$PARSE.:VDA5TOU
 UTS= JUL 04 '97 11:15:16.28 FRI                              Compiler= PL-6/E31         Sev=      00
 SharedLib= :SHARED_SYSTEM                                    Alt SharedLib=


    ****  Control sections  ****

 Sect   Type Bound  Init  Size OctSiz  Section name(segment info)
    0  RoData even  UTS      1      1  VDE$PXUE_EXP
    1   Proc  even  none   324    504  VDE$PXUE_EXP
    2  RoData even  none     9     11  VDE$PXUE_EXP

    ****  Entry defs  ****

                              Check   Calling
                             calling  sequence
  Sect OctLoc Primary Altret sequence   type   Parms  Name
     1      0   yes    yes     yes      Std        5  VDE$PXUE_EXP
     1      3          yes     yes      Std        5  VDE$PSTRING
     1    227          yes     yes      Std        2  VDE$PNUMBER

  ****  Entry refs  ****

         Check        Calling
        calling       sequence
Altret sequence SRef   type   Args  Name
 yes     yes           Std       3 VDG$OALLOC
 yes     yes           Std       2 X$DEC_CONVERT
 yes     yes           Std       5 VDG$EXEC_CONTROL
         yes           Std       3 VDG$ESCREECH
 yes     yes           Std       1 X$EVAL
 yes     yes           Std       1 VDG$OFREE
                       nStd      0 X66_AUTO_5
                       Std       0 B_CONSPOOL_D
                       nStd      0 X66_ARET
                       nStd      0 X66_INDEX
                       nStd      0 X66_AALT
PL6.E3A0      #004=VDE$PXUE_EXP File=VDE$PARSE.:VDA5TSI                          FRI 07/04/97 11:15 Page:326

  ****  Data refs  ****

  Flags:  r = read only, s = secondary
Flgs Name                             Flgs Name                             Flgs Name
     VD_6E                                 VD_$CONTROL                           XUE_ECB
     VD_CMD_OBJECTS$                       B_VECTNIL

  ****  Segment refs  ****

  Flags:  r = read only, s = secondary
Flgs Name                             Flgs Name                             Flgs Name
     ISSID
PL6.E3A0      #004=VDE$PXUE_EXP File=VDE$PARSE.:VDA5TSI                          FRI 07/04/97 11:15 Page:327


     2652        1        /*T***********************************************************/
     2653        2        /*T*                                                         */
     2654        3        /*T* Copyright (c) Bull HN Information Systems Inc., 1997    */
     2655        4        /*T*                                                         */
     2656        5        /*T***********************************************************/
     2657        6
     2658        7        /*D* NAME: VDE$PXUE_EXP
     2659        8            PARAMETERS:
     2660        9                PT_XUE_EXP - XUE_EXP# ParseTree node.
     2661       10                NUMBER - Uninitialized SBIN.
     2662       11                BUFFER$ - Optional uninitialized ptr.
     2663       12                RET_CODE - Optional uninitialized CHAR(1) CALIGNED.
     2664       13                CTRL_ARGS - Optional uninitialized array (0:%(MX_CTRL_FN_ARGS-1)
     2665       14                    of words.
     2666       15            INPUT:
     2667       16                XUE_ECB - Static control block for X$EVAL.  It must
     2668       17                    already have a workspace VD$BUFFER allocated for it.
     2669       18                    If PT_XUE_EXP is not passed, XUE_ECB.OUT$ must point to
     2670       19                    the VD$TEXTC value of the string expression.
     2671       20                VD_$CONTROL - The VD$BUFFER for the $CONTROL predefined
     2672       21                    name.  Value's length may be 0.
     2673       22            OUTPUT:
     2674       23                Depends on entry-point.
     2675       24            DESCRIPTION:
     2676       25                This routine contains two entry points:  call VDE$PSTRING
     2677       26                to evaluate the XUE_EXP# node to a string (file of records).
     2678       27                Call VDE$PNUMBER to evaluate the XUE_EXP# node to a number.
     2679       28                $CONTROL-functions are supported for VDE$PSTRING, but not
     2680       29                for VDE$PNUMBER.
     2681       30        */
     2682       31
     2683       32        VDE$PXUE_EXP: PROC (PT_XUE_EXP, NUMBER, BUFFER$, RET_CODE, CTRL_ARGS)

     32  1 000000   000000 700200 xent  VDE$PXUE_EXP TSX0  ! X66_AUTO_5
         1 000001   000032 000005                    ZERO    26,5
         1 000002   000005 710000 1                  TRA     s:7386
PL6.E3A0      #004=VDE$PXUE_EXP File=VDE$PARSE.:VDA5TSI                          FRI 07/04/97 11:15 Page:328

     2684       33                  ALTRET;
     2685       34
     2686       35        %INCLUDE VD_MACROS_M;
     2687     2250        %INCLUDE VD_PERR_C;
     2688     2398        %INCLUDE XUE_MACRO_C;
     2689     3142        %INCLUDE XU_MACRO_C;
     2690     6236        %INCLUDE XU_PERR_C;
     2691     6427
     2692     6428
     2693     6429        %PARSE$OUT (NAME=PT_XUE_EXP, STCLASS=PARAM);
     2694     6474    1   DCL NUMBER SBIN;
     2695     6475    1   DCL BUFFER$ PTR;
     2696     6476    1   DCL RET_CODE CHAR(1) CALIGNED;
     2697     6477    1   DCL CTRL_ARGS (0:%(MX_CTRL_FN_ARGS-1)) SBIN ALIGNED;
     2698     6478
     2699     6479
     2700     6480    1   DCL X$EVAL              ENTRY (1) ALTRET;
     2701     6481    1   DCL VDG$OALLOC          ENTRY (3) ALTRET;
     2702     6482    1   DCL VDG$OFREE           ENTRY (1) ALTRET;
     2703     6483    1   DCL VDG$EXEC_CONTROL    ENTRY (5) ALTRET;
     2704     6484    1   DCL VDG$ESCREECH        ENTRY (3);
     2705     6485    1   DCL X$DEC_CONVERT       ENTRY (2) ALTRET;
     2706     6486
     2707     6487
     2708     6488        %VD_6E (STCLASS=SYMREF);
     2709     6524        %VD_BUFFER (NAME=VD_$CONTROL, STCLASS=SYMREF, MXNB=%MXNB_$CONTROL);
     2710     6584        %XUE_ECB (NAME=XUE_ECB, STCLASS=SYMREF);
     2711     6786    1   DCL VD_CMD_OBJECTS$ (0:%(MX_CMD_OBJECTS-1)) PTR SYMREF;
     2712     6787
     2713     6788
     2714     6789    1   DCL CONTROL_VALUE$ PTR CONSTANT INIT(ADDR(VD_$CONTROL));
     2715     6790
     2716     6791
     2717     6792
     2718     6793    1   DCL NB_STRING SBIN;
     2719     6794    1   DCL START_NUMBER SBIN;
PL6.E3A0      #004=VDE$PXUE_EXP File=VDE$PARSE.:VDA5TSI                          FRI 07/04/97 11:15 Page:329
     2720     6795    1   DCL PARTIAL_LENGTH SBIN;
     2721     6796    1   DCL STRING$ PTR;
     2722     6797    1   DCL VD_ERR$ PTR;
     2723     6798    1   DCL SUBST_FIELD$ PTR;
     2724     6799    1   DCL INDX SBIN;
     2725     6800
     2726     6801
     2727     6802        %VD$TEXTC (NAME=STRING, STCLASS="BASED(XUE_ECB.OUT$)");
     2728     6825        %VD$BUFFER (NAME=CONTROL$VALUE, STCLASS="BASED(CONTROL_VALUE$)");
     2729     6883        %VD$BUFFER (NAME=BUFFER, STCLASS="BASED(BUFFER$)");
     2730     6941        %VD$ERR (NAME=VD$ERR, STCLASS="BASED(VD_ERR$)");
     2731     6994        %VD$ERR (NAME=FATAL$ERR, STCLASS="BASED(VD_6E.ERR_HEAD$)");
     2732     7047        %VD$ERR (NAME=VD$ERR_LAST, STCLASS="BASED(VD_6E.ERR_TAIL$)");
     2733     7100        %VD$NUMBER (NAME=SUBST$NUMBER, DIM="(0:2)", STCLASS="BASED(SUBST_FIELD$)");
     2734     7145        %VD$POINTER (NAME=SUBST$POINTER, DIM="(0:2)", STCLASS="BASED(SUBST_FIELD$)");
     2735     7190        %VD$BUFFER_HEADER;
     2736     7226        %VD$STRING_HEADER;
     2737     7262        %VD$TEXTC_REMOTE;
     2738     7323
     2739     7324
     2740     7325
     2741     7326        /*D* NAME: VDE$PSTRING
     2742     7327            PARAMETERS:
     2743     7328                PT_XUE_EXP - Optional XUE_EXP# PT node.
     2744     7329                NUMBER - Index into string which is value of PT_XUE_EXP
     2745     7330                    node of next character to process.  If PT_XUE_EXP is
     2746     7331                    passed, NUMBER need not be initialized; else, NUMBER
     2747     7332                    is an index into XUE_ECB.OUT$->VD$TEXTC.BYTES.
     2748     7333                BUFFER$ - Optional uninitialized ptr.
     2749     7334                RET_CODE - Optional uninitialized CHAR(1) CALIGNED.
     2750     7335                CTRL_ARGS - Optional uninitialized array (0:%(MX_CTRL_FN_ARGS-1)
     2751     7336                    of words.
     2752     7337            INPUT:
     2753     7338                Same as for main routine.
     2754     7339            OUTPUT:
     2755     7340                NUMBER will be modified to point to the next character
     2756     7341                    to process.
PL6.E3A0      #004=VDE$PXUE_EXP File=VDE$PARSE.:VDA5TSI                          FRI 07/04/97 11:15 Page:330
     2757     7342                If BUFFER$ is not passed, then BUFFER$, RET_CODE, and
     2758     7343                    CTRL_ARGS will be ignored.
     2759     7344                If BUFFER$ is passed:
     2760     7345                    BUFFER$ will contain ADDR(NIL) if there were no characters
     2761     7346                        between NUMBER at entry and either the next $CONTROL
     2762     7347                        function or the end of the string.  Otherwise, BUFFER$
     2763     7348                        will point to a VD$BUFFER containing those characters.
     2764     7349                    RET_CODE will contain an %FNID_ value, indicating the
     2765     7350                        type of $CONTROL-function found; if none found or
     2766     7351                        it was handled entirely internally, RET_CODE will
     2767     7352                        contain %CHR_SPACE.
     2768     7353                    CTRL_ARGS (if supplied) will be cleared.
     2769     7354                            For the following RET_CODE values, CTRL_ARGS will
     2770     7355                            contain the specified or default values for
     2771     7356                            arguments of the function:
     2772     7357                        %FNID_WILD_CHAR: CTRL_ARGS (0) = minimum # chars to
     2773     7358                            match, CTRL_ARGS (1) = maximum # chars to match.
     2774     7359        *N**N*          %FNID_SET_OF_SEQUENCES: CTRL_ARGS (0) = # chars to match.
     2775     7360                If we ALTRETURN due to a recoverable error, we'll set
     2776     7361                    the "%U1" substitution field of the last VD$ERR to
     2777     7362                    the index into the PT_XUE_EXP node's string value of
     2778     7363                    the error.
     2779     7364                    The caller should set .CMDLINE_INDEX# in that VD$ERR to
     2780     7365                    PT_XUE_EXP's .HI_CHAR.
     2781     7366            DESCRIPTION:
     2782     7367                If PT_XUE_EXP given, call X$EVAL to evaluate it.  If
     2783     7368                    the workspace is too small, release it and allocate a
     2784     7369                    larger one.
     2785     7370                If BUFFER$ is not given, return now.  Otherwise, build a
     2786     7371                    VD$BUFFER for the next portion of the string:
     2787     7372                Find the next $CONTROL-function invocation in the literal:
     2788     7373                Call VDG$EXEC_CONTROL to execute the function.  If
     2789     7374                    VDG$EXEC_CONTROL couldn't execute the entire function,
     2790     7375                    build a VD$BUFFER containing any characters
     2791     7376                    seen up to this invocation, and return an appropriate
     2792     7377                    %FNID_ value in RET_CODE.
     2793     7378                If VDG$EXEC_CONTROL could execute the $CONTROL function
PL6.E3A0      #004=VDE$PXUE_EXP File=VDE$PARSE.:VDA5TSI                          FRI 07/04/97 11:15 Page:331
     2794     7379                    entirely, then loop on calling it.
     2795     7380        */
     2796     7381
     2797     7382    1   VDE$PSTRING: ENTRY (PT_XUE_EXP, NUMBER, BUFFER$, RET_CODE, CTRL_ARGS)

   7382  1 000003   000000 700200 xent  VDE$PSTRING  TSX0  ! X66_AUTO_5
         1 000004   000032 000005                    ZERO    26,5

     2798     7383    1             ALTRET;
     2799     7384
     2800     7385
     2801     7386    2           IF ADDR(BUFFER$) ~= ADDR(NIL) THEN DO;

   7386  1 000005   200005 236100                    LDQ     @BUFFER$,,AUTO
         1 000006   000001 116000 xsym               CMPQ    B_VECTNIL+1
         1 000007   000022 600000 1                  TZE     s:7392

     2802     7387    2              BUFFER$ = ADDR(NIL);

   7387  1 000010   000001 236000 xsym               LDQ     B_VECTNIL+1
         1 000011   200005 470500                    LDP0    @BUFFER$,,AUTO
         1 000012   000000 756100                    STQ     0,,PR0

     2803     7388    2              RET_CODE = %CHR_SPACE;

   7388  1 000013   200006 471500                    LDP1    @RET_CODE,,AUTO
         1 000014   040100 100400                    MLR     fill='040'O
         1 000015   000035 000001 xsym               ADSC9   B_VECTNIL+29             cn=0,n=1
         1 000016   100000 000001                    ADSC9   0,,PR1                   cn=0,n=1

     2804     7389    2              CTRL_ARGS = %CLEAR;

   7389  1 000017   200007 473500                    LDP3    @CTRL_ARGS,,AUTO
         1 000020   300000 450100                    STZ     0,,PR3
         1 000021   300001 450100                    STZ     1,,PR3

     2805     7390    2              END;
PL6.E3A0      #004=VDE$PXUE_EXP File=VDE$PARSE.:VDA5TSI                          FRI 07/04/97 11:15 Page:332

     2806     7391
     2807     7392    2           IF ADDR(PT_XUE_EXP) ~= ADDR(NIL) THEN DO;

   7392  1 000022   200003 236100                    LDQ     @PT_XUE_EXP,,AUTO
         1 000023   000001 116000 xsym               CMPQ    B_VECTNIL+1
         1 000024   000031 600000 1                  TZE     s:7397

     2808     7393    2              CALL EVAL_PT_XUE_EXP

   7393  1 000025   000370 701000 1                  TSX1    EVAL_PT_XUE_EXP
         1 000026   000226 702000 1                  TSX2    EVAL_PT_XUE_EXP_FAILED

     2809     7394    2                ALTRET (EVAL_PT_XUE_EXP_FAILED);
     2810     7395    2              NUMBER = 0;

   7395  1 000027   200004 470500                    LDP0    @NUMBER,,AUTO
         1 000030   000000 450100                    STZ     0,,PR0

     2811     7396    2              END;

     2812     7397    1           IF ADDR(BUFFER$) = ADDR(NIL) THEN

   7397  1 000031   200005 236100                    LDQ     @BUFFER$,,AUTO
         1 000032   000001 116000 xsym               CMPQ    B_VECTNIL+1
         1 000033   000035 601000 1                  TNZ     s:7400

     2813     7398    1              RETURN;

   7398  1 000034   000000 702200 xent               TSX2  ! X66_ARET

     2814     7399
     2815     7400    1           START_NUMBER = NUMBER;

   7400  1 000035   200004 470500                    LDP0    @NUMBER,,AUTO
         1 000036   000000 235100                    LDA     0,,PR0
         1 000037   200011 755100                    STA     START_NUMBER,,AUTO
PL6.E3A0      #004=VDE$PXUE_EXP File=VDE$PARSE.:VDA5TSI                          FRI 07/04/97 11:15 Page:333

     2816     7401    1           STRING$ = XUE_ECB.OUT$;

   7401  1 000040   000004 236000 xsym               LDQ     XUE_ECB+4
         1 000041   200013 756100                    STQ     STRING$,,AUTO

     2817     7402
     2818     7403    1           IF VD_$CONTROL.LENGTH# = 0 THEN

   7403  1 000042   000002 220000 xsym               LDX0    VD_$CONTROL+2
         1 000043   000050 601000 1                  TNZ     s:7405

     2819     7404    1              NUMBER = STRING.LENGTH#;

   7404  1 000044   000004 471400 xsym               LDP1    XUE_ECB+4
         1 000045   100000 236100                    LDQ     0,,PR1
         1 000046   000033 772000                    QRL     27
         1 000047   000000 756100                    STQ     0,,PR0

     2820     7405    2           DO WHILE NUMBER < STRING.LENGTH#

   7405  1 000050   000125 710000 1                  TRA     s:7417

     2821     7406    2             AND RET_CODE = %CHR_SPACE;
     2822     7407    2              CALL INDEX (PARTIAL_LENGTH, CONTROL$VALUE.BYTES, STRING.BYTES,

   7407  1 000051   000000 470400 0                  LDP0    CONTROL_VALUE$
         1 000052   000002 220100                    LDX0    2,,PR0
         1 000053   000004 471400 xsym               LDP1    XUE_ECB+4
         1 000054   100000 236100                    LDQ     0,,PR1
         1 000055   000033 772000                    QRL     27
         1 000056   200012 631500                    EPPR1   PARTIAL_LENGTH,,AUTO
         1 000057   000000 633500                    EPPR3   0,,PR0
         1 000060   000012 221003                    LDX1    10,DU
         1 000061   300000 500511                    A9BD    0,X1,PR3
         1 000062   000000 623010                    EAX3    0,X0
         1 000063   000004 470400 xsym               LDP0    XUE_ECB+4
PL6.E3A0      #004=VDE$PXUE_EXP File=VDE$PARSE.:VDA5TSI                          FRI 07/04/97 11:15 Page:334
         1 000064   000001 220003                    LDX0    1,DU
         1 000065   000000 500510                    A9BD    0,X0,PR0
         1 000066   000000 620006                    EAX0    0,QL
         1 000067   200004 474500                    LDP4    @NUMBER,,AUTO
         1 000070   400000 236100                    LDQ     0,,PR4
         1 000071   000000 701000 xent               TSX1    X66_INDEX
         1 000072   000000 011000                    NOP     0

     2823     7408    2                NUMBER);
     2824     7409    2              NUMBER = PARTIAL_LENGTH;

   7409  1 000073   200012 235100                    LDA     PARTIAL_LENGTH,,AUTO
         1 000074   400000 755100                    STA     0,,PR4

     2825     7410    3              IF NUMBER < STRING.LENGTH# THEN DO;

   7410  1 000075   000004 470400 xsym               LDP0    XUE_ECB+4
         1 000076   000000 236100                    LDQ     0,,PR0
         1 000077   000033 772000                    QRL     27
         1 000100   400000 116100                    CMPQ    0,,PR4
         1 000101   000125 604400 1                  TMOZ    s:7417

     2826     7411    3                 NB_STRING = STRING.LENGTH#;

   7411  1 000102   200010 756100                    STQ     NB_STRING,,AUTO

     2827     7412    3                 CALL VDG$EXEC_CONTROL (NB_STRING, STRING.BYTES,

   7412  1 000103   200007 236100                    LDQ     @CTRL_ARGS,,AUTO
         1 000104   200030 756100                    STQ     WKSZ+6,,AUTO
         1 000105   200006 236100                    LDQ     @RET_CODE,,AUTO
         1 000106   200004 235100                    LDA     @NUMBER,,AUTO
         1 000107   200026 757100                    STAQ    WKSZ+4,,AUTO
         1 000110   000004 236000 xsym               LDQ     XUE_ECB+4
         1 000111   200000 036007                    ADLQ    65536,DL
         1 000112   200025 756100                    STQ     WKSZ+3,,AUTO
         1 000113   200010 631500                    EPPR1   NB_STRING,,AUTO
PL6.E3A0      #004=VDE$PXUE_EXP File=VDE$PARSE.:VDA5TSI                          FRI 07/04/97 11:15 Page:335
         1 000114   200024 451500                    STP1    WKSZ+2,,AUTO
         1 000115   200024 630500                    EPPR0   WKSZ+2,,AUTO
         1 000116   000023 631400 xsym               EPPR1   B_VECTNIL+19
         1 000117   000000 701000 xent               TSX1    VDG$EXEC_CONTROL
         1 000120   000211 702000 1                  TSX2    EXEC_CONTROL_FAILED

     2828     7413    3                   NUMBER, RET_CODE, CTRL_ARGS)
     2829     7414    3                   ALTRET (EXEC_CONTROL_FAILED);
     2830     7415    3                 STRING.LENGTH# = NB_STRING;

   7415  1 000121   000004 470400 xsym               LDP0    XUE_ECB+4
         1 000122   200010 236100                    LDQ     NB_STRING,,AUTO
         1 000123   000033 736000                    QLS     27
         1 000124   000000 552140                    STBQ    0,'40'O,PR0

     2831     7416    3                 END;

     2832     7417    2              END;

   7417  1 000125   200004 470500                    LDP0    @NUMBER,,AUTO
         1 000126   000004 471400 xsym               LDP1    XUE_ECB+4
         1 000127   100000 236100                    LDQ     0,,PR1
         1 000130   000033 772000                    QRL     27
         1 000131   000000 116100                    CMPQ    0,,PR0
         1 000132   000140 604400 1                  TMOZ    s:7419
         1 000133   200006 473500                    LDP3    @RET_CODE,,AUTO
         1 000134   040000 106500                    CMPC    fill='040'O
         1 000135   300000 000001                    ADSC9   0,,PR3                   cn=0,n=1
         1 000136   000035 000001 xsym               ADSC9   B_VECTNIL+29             cn=0,n=1
         1 000137   000051 600000 1                  TZE     s:7407

     2833     7418
     2834     7419    1           IF RET_CODE = %CHR_SPACE THEN

   7419  1 000140   200006 473500                    LDP3    @RET_CODE,,AUTO
         1 000141   040000 106500                    CMPC    fill='040'O
         1 000142   300000 000001                    ADSC9   0,,PR3                   cn=0,n=1
PL6.E3A0      #004=VDE$PXUE_EXP File=VDE$PARSE.:VDA5TSI                          FRI 07/04/97 11:15 Page:336
         1 000143   000035 000001 xsym               ADSC9   B_VECTNIL+29             cn=0,n=1
         1 000144   000147 601000 1                  TNZ     s:7421

     2835     7420    1              PARTIAL_LENGTH = NUMBER;

   7420  1 000145   000000 235100                    LDA     0,,PR0
         1 000146   200012 755100                    STA     PARTIAL_LENGTH,,AUTO

     2836     7421    2           IF PARTIAL_LENGTH - START_NUMBER > 0 THEN DO;

   7421  1 000147   200012 236100                    LDQ     PARTIAL_LENGTH,,AUTO
         1 000150   200011 136100                    SBLQ    START_NUMBER,,AUTO
         1 000151   000210 604400 1                  TMOZ    s:7432

     2837     7422    2              NB_STRING = PARTIAL_LENGTH - START_NUMBER;

   7422  1 000152   200012 236100                    LDQ     PARTIAL_LENGTH,,AUTO
         1 000153   200011 136100                    SBLQ    START_NUMBER,,AUTO
         1 000154   200010 756100                    STQ     NB_STRING,,AUTO

     2838     7423    2              CALL VDG$OALLOC (%CLS_BUFFER, BUFFER$,

   7423  1 000155   000015 036007                    ADLQ    13,DL
         1 000156   000004 506007                    DIV     4,DL
         1 000157   200024 756100                    STQ     WKSZ+2,,AUTO
         1 000160   200024 634500                    EPPR4   WKSZ+2,,AUTO
         1 000161   200027 454500                    STP4    WKSZ+5,,AUTO
         1 000162   200005 236100                    LDQ     @BUFFER$,,AUTO
         1 000163   200026 756100                    STQ     WKSZ+4,,AUTO
         1 000164   000000 236000 2                  LDQ     0
         1 000165   200025 756100                    STQ     WKSZ+3,,AUTO
         1 000166   200025 630500                    EPPR0   WKSZ+3,,AUTO
         1 000167   000021 631400 xsym               EPPR1   B_VECTNIL+17
         1 000170   000000 701000 xent               TSX1    VDG$OALLOC
         1 000171   000226 702000 1                  TSX2    EVAL_PT_XUE_EXP_FAILED

     2839     7424    2                (LENGTHC(VD$BUFFER_HEADER) + NB_STRING + %NB_PER_WORD-1) /
PL6.E3A0      #004=VDE$PXUE_EXP File=VDE$PARSE.:VDA5TSI                          FRI 07/04/97 11:15 Page:337
     2840     7425    2                %NB_PER_WORD)
     2841     7426    2                ALTRET (OALLOC_FAILED);
     2842     7427    2              BUFFER.LENGTH# = NB_STRING;

   7427  1 000172   200005 470500                    LDP0    @BUFFER$,,AUTO
         1 000173   000000 471500                    LDP1    0,,PR0
         1 000174   200010 720100                    LXL0    NB_STRING,,AUTO
         1 000175   100002 740100                    STX0    2,,PR1

     2843     7428    2              BUFFER.BYTES = SUBSTR(STRING.BYTES, START_NUMBER,

   7428  1 000176   000000 471500                    LDP1    0,,PR0
         1 000177   100002 220100                    LDX0    2,,PR1
         1 000200   000004 473400 xsym               LDP3    XUE_ECB+4
         1 000201   300000 236100                    LDQ     0,,PR3
         1 000202   000033 772000                    QRL     27
         1 000203   200010 721100                    LXL1    NB_STRING,,AUTO
         1 000204   200011 235100                    LDA     START_NUMBER,,AUTO
         1 000205   040140 100545                    MLR     fill='040'O
         1 000206   300000 200011                    ADSC9   0,A,PR3                  cn=1,n=*X1
         1 000207   100002 400010                    ADSC9   2,,PR1                   cn=2,n=*X0

     2844     7429    2                NB_STRING);
     2845     7430    2              END;

     2846     7431
     2847     7432    1           RETURN;

   7432  1 000210   000000 702200 xent               TSX2  ! X66_ARET

     2848     7433
     2849     7434
     2850     7435
     2851     7436    1   EXEC_CONTROL_FAILED:
     2852     7437    2           IF VD_6E.ERR_HEAD$ ~= VD_6E.ERR_TAIL$ THEN DO;

   7437  1 000211   000031 236000 xsym  EXEC_CONTRO* LDQ     VD_6E+25
PL6.E3A0      #004=VDE$PXUE_EXP File=VDE$PARSE.:VDA5TSI                          FRI 07/04/97 11:15 Page:338
         1 000212   000032 116000 xsym               CMPQ    VD_6E+26
         1 000213   000225 600000 1                  TZE     s:7442

     2853     7438    2              SUBST_FIELD$ = PINCRW(VD_6E.ERR_TAIL$, LENGTHW(VD$ERR));

   7438  1 000214   000032 236000 xsym               LDQ     VD_6E+26
         1 000215   000005 036003                    ADLQ    5,DU
         1 000216   200015 756100                    STQ     SUBST_FIELD$,,AUTO

     2854     7439    2              SUBST$NUMBER.OBJECT.CLASS# (0) = %CLS_NUMBER;

   7439  1 000217   000033 220003                    LDX0    27,DU
         1 000220   200015 470500                    LDP0    SUBST_FIELD$,,AUTO
         1 000221   000000 740100                    STX0    0,,PR0

     2855     7440    2              SUBST$NUMBER.V# (0) = NUMBER;

   7440  1 000222   200004 471500                    LDP1    @NUMBER,,AUTO
         1 000223   100000 235100                    LDA     0,,PR1
         1 000224   000003 755100                    STA     3,,PR0

     2856     7441    2              END;

     2857     7442    1           ALTRETURN;

   7442  1 000225   000000 702200 xent               TSX2  ! X66_AALT

   7437  1 000226                       EVAL_PT_XUE* null
     2858     7443
     2859     7444    1   EVAL_PT_XUE_EXP_FAILED: ;
     2860     7445    1   OALLOC_FAILED: ;

   7445  1 000226                       OALLOC_FAIL* null
     2861     7446    1           ALTRETURN;

   7446  1 000226   000000 702200 xent               TSX2  ! X66_AALT

PL6.E3A0      #004=VDE$PXUE_EXP File=VDE$PARSE.:VDA5TSI                          FRI 07/04/97 11:15 Page:339
     2862     7447
     2863     7448        /*D* NAME: VDE$PNUMBER
     2864     7449            PARAMETERS:
     2865     7450                PT_XUE_EXP - Parse node for %XUE_EXP#.
     2866     7451                NUMBER - Uninitialized SBIN.
     2867     7452            INPUT:
     2868     7453                Same as for main routine.
     2869     7454            OUTPUT:
     2870     7455                NUMBER will contain the numeric value of the evaluated
     2871     7456                    expression.
     2872     7457            DESCRIPTION:
     2873     7458                Call X$EVAL to evaluate the expression into a textc string.
     2874     7459                Call X$DEC_CONVERT to convert the string to a number.
     2875     7460        */
     2876     7461
     2877     7462    1   VDE$PNUMBER: ENTRY (PT_XUE_EXP, NUMBER) ALTRET;

   7462  1 000227   000000 700200 xent  VDE$PNUMBER  TSX0  ! X66_AUTO_5
         1 000230   000032 000005                    ZERO    26,5

     2878     7463
     2879     7464
     2880     7465    1           NUMBER = 0;

   7465  1 000231   200004 470500                    LDP0    @NUMBER,,AUTO
         1 000232   000000 450100                    STZ     0,,PR0

     2881     7466    1           CALL EVAL_PT_XUE_EXP

   7466  1 000233   000370 701000 1                  TSX1    EVAL_PT_XUE_EXP
         1 000234   000226 702000 1                  TSX2    EVAL_PT_XUE_EXP_FAILED

     2882     7467    1             ALTRET (EVAL_PT_XUE_EXP_FAILED);
     2883     7468
     2884     7469    1           CALL X$DEC_CONVERT (XUE_ECB.OUT$, NUMBER)

   7469  1 000235   200004 236100                    LDQ     @NUMBER,,AUTO
PL6.E3A0      #004=VDE$PXUE_EXP File=VDE$PARSE.:VDA5TSI                          FRI 07/04/97 11:15 Page:340
         1 000236   000001 235000 2                  LDA     1
         1 000237   200024 757100                    STAQ    WKSZ+2,,AUTO
         1 000240   200024 630500                    EPPR0   WKSZ+2,,AUTO
         1 000241   000020 631400 xsym               EPPR1   B_VECTNIL+16
         1 000242   000000 701000 xent               TSX1    X$DEC_CONVERT
         1 000243   000245 702000 1                  TSX2    DEC_CONVERT_FAILED

     2885     7470    1             ALTRET (DEC_CONVERT_FAILED);
     2886     7471
     2887     7472    1           RETURN;

   7472  1 000244   000000 702200 xent               TSX2  ! X66_ARET

     2888     7473
     2889     7474
     2890     7475    1   DEC_CONVERT_FAILED:
     2891     7476    1           CALL VDG$OALLOC (%CLS_ERR, VD_ERR$)

   7476  1 000245   200014 630500       DEC_CONVERT* EPPR0   VD_ERR$,,AUTO
         1 000246   200025 450500                    STP0    WKSZ+3,,AUTO
         1 000247   000002 236000 2                  LDQ     2
         1 000250   200024 756100                    STQ     WKSZ+2,,AUTO
         1 000251   200024 630500                    EPPR0   WKSZ+2,,AUTO
         1 000252   000020 631400 xsym               EPPR1   B_VECTNIL+16
         1 000253   000000 701000 xent               TSX1    VDG$OALLOC
         1 000254   000226 702000 1                  TSX2    EVAL_PT_XUE_EXP_FAILED

     2892     7477    1             ALTRET (OALLOC_FAILED);
     2893     7478    1           VD$ERR.ERR.CODE# = %E$DECIMAL_NOT_LEGAL;

   7478  1 000255   200014 470500                    LDP0    VD_ERR$,,AUTO
         1 000256   000002 236100                    LDQ     2,,PR0
         1 000257   000003 376000 2                  ANQ     3
         1 000260   000730 276007                    ORQ     472,DL
         1 000261   000002 756100                    STQ     2,,PR0

     2894     7479    1           VD$ERR.FLAGLEV# = %FLV_SERIOUS;
PL6.E3A0      #004=VDE$PXUE_EXP File=VDE$PARSE.:VDA5TSI                          FRI 07/04/97 11:15 Page:341

   7479  1 000262   000003 220003                    LDX0    3,DU
         1 000263   200014 470500                    LDP0    VD_ERR$,,AUTO
         1 000264   000003 740100                    STX0    3,,PR0

     2895     7480    1           VD$ERR.CMDLINE_INDEX# = PT_XUE_EXP.CPOS;

   7480  1 000265   200003 470500                    LDP0    @PT_XUE_EXP,,AUTO
         1 000266   000002 721100                    LXL1    2,,PR0
         1 000267   200014 471500                    LDP1    VD_ERR$,,AUTO
         1 000270   100003 441100                    SXL1    3,,PR1

     2896     7481
     2897     7482    1           SUBST_FIELD$ = PINCRW(VD_ERR$, SIZEW(VD$ERR));

   7482  1 000271   200014 236100                    LDQ     VD_ERR$,,AUTO
         1 000272   000005 036003                    ADLQ    5,DU
         1 000273   200015 756100                    STQ     SUBST_FIELD$,,AUTO

     2898     7483    1           INDX = 0;

   7483  1 000274   200016 450100                    STZ     INDX,,AUTO

     2899     7484    2           DO WHILE INDX < %MX_CMD_OBJECTS

   7484  1 000275   000277 710000 1                  TRA     s:7487

     2900     7485    2             AND VD_CMD_OBJECTS$ (INDX) ~= ADDR(NIL);
     2901     7486    2              INDX = INDX + 1;

   7486  1 000276   200016 054100                    AOS     INDX,,AUTO

     2902     7487    2              END;

   7487  1 000277   200016 235100                    LDA     INDX,,AUTO
         1 000300   000062 115007                    CMPA    50,DL
         1 000301   000305 605000 1                  TPL     s:7488
PL6.E3A0      #004=VDE$PXUE_EXP File=VDE$PARSE.:VDA5TSI                          FRI 07/04/97 11:15 Page:342
         1 000302   000000 236005 xsym               LDQ     VD_CMD_OBJECTS$,AL
         1 000303   000001 116000 xsym               CMPQ    B_VECTNIL+1
         1 000304   000276 601000 1                  TNZ     s:7486

     2903     7488    1           IF INDX >= %MX_CMD_OBJECTS THEN

   7488  1 000305   200016 235100                    LDA     INDX,,AUTO
         1 000306   000062 115007                    CMPA    50,DL
         1 000307   000316 604000 1                  TMI     s:7490

     2904     7489    1              CALL VDG$ESCREECH (INDX);

   7489  1 000310   200016 630500                    EPPR0   INDX,,AUTO
         1 000311   200024 450500                    STP0    WKSZ+2,,AUTO
         1 000312   200024 630500                    EPPR0   WKSZ+2,,AUTO
         1 000313   000017 631400 xsym               EPPR1   B_VECTNIL+15
         1 000314   000000 701000 xent               TSX1    VDG$ESCREECH
         1 000315   000000 011000                    NOP     0

     2905     7490    1           CALL VDG$OALLOC (%CLS_TEXTC_REMOTE, VD_CMD_OBJECTS$ (INDX),

   7490  1 000316   000004 470400 xsym               LDP0    XUE_ECB+4
         1 000317   000000 236100                    LDQ     0,,PR0
         1 000320   000033 772000                    QRL     27
         1 000321   000014 036007                    ADLQ    12,DL
         1 000322   000002 772000                    QRL     2
         1 000323   200024 756100                    STQ     WKSZ+2,,AUTO
         1 000324   200024 631500                    EPPR1   WKSZ+2,,AUTO
         1 000325   200027 451500                    STP1    WKSZ+5,,AUTO
         1 000326   200016 720100                    LXL0    INDX,,AUTO
         1 000327   000000 633410 xsym               EPPR3   VD_CMD_OBJECTS$,X0
         1 000330   200026 453500                    STP3    WKSZ+4,,AUTO
         1 000331   000005 236000 2                  LDQ     5
         1 000332   200025 756100                    STQ     WKSZ+3,,AUTO
         1 000333   200025 630500                    EPPR0   WKSZ+3,,AUTO
         1 000334   000021 631400 xsym               EPPR1   B_VECTNIL+17
         1 000335   000000 701000 xent               TSX1    VDG$OALLOC
PL6.E3A0      #004=VDE$PXUE_EXP File=VDE$PARSE.:VDA5TSI                          FRI 07/04/97 11:15 Page:343
         1 000336   000226 702000 1                  TSX2    EVAL_PT_XUE_EXP_FAILED

     2906     7491    1             (LENGTHC(VD$STRING_HEADER) + STRING.LENGTH# + %NB_PER_WORD-1) /
     2907     7492    1             %NB_PER_WORD)
     2908     7493    1             ALTRET (OALLOC_FAILED);
     2909     7494    1           VD_CMD_OBJECTS$ (INDX) -> VD$TEXTC_REMOTE.LENGTH# = STRING.LENGTH#;

   7494  1 000337   200016 720100                    LXL0    INDX,,AUTO
         1 000340   000000 470410 xsym               LDP0    VD_CMD_OBJECTS$,X0
         1 000341   000004 471400 xsym               LDP1    XUE_ECB+4
         1 000342   100000 236100                    LDQ     0,,PR1
         1 000343   000002 552140                    STBQ    2,'40'O,PR0

     2910     7495    1           VD_CMD_OBJECTS$ (INDX) -> VD$TEXTC_REMOTE.BYTES = STRING.BYTES;

   7495  1 000344   200016 720100                    LXL0    INDX,,AUTO
         1 000345   000000 470410 xsym               LDP0    VD_CMD_OBJECTS$,X0
         1 000346   000002 236100                    LDQ     2,,PR0
         1 000347   000033 772000                    QRL     27
         1 000350   000004 471400 xsym               LDP1    XUE_ECB+4
         1 000351   000000 621006                    EAX1    0,QL
         1 000352   100000 236100                    LDQ     0,,PR1
         1 000353   000033 772000                    QRL     27
         1 000354   000000 622006                    EAX2    0,QL
         1 000355   040140 100540                    MLR     fill='040'O
         1 000356   100000 200012                    ADSC9   0,,PR1                   cn=1,n=*X2
         1 000357   000002 200011                    ADSC9   2,,PR0                   cn=1,n=*X1

     2911     7496    1           SUBST$POINTER.OBJECT.CLASS# (0) = %CLS_PTR_TEXTC;

   7496  1 000360   000045 220003                    LDX0    37,DU
         1 000361   200015 470500                    LDP0    SUBST_FIELD$,,AUTO
         1 000362   000000 740100                    STX0    0,,PR0

     2912     7497    1           SUBST$POINTER.V$ (0) =

   7497  1 000363   200016 721100                    LXL1    INDX,,AUTO
PL6.E3A0      #004=VDE$PXUE_EXP File=VDE$PARSE.:VDA5TSI                          FRI 07/04/97 11:15 Page:344
         1 000364   000000 471411 xsym               LDP1    VD_CMD_OBJECTS$,X1
         1 000365   100002 633500                    EPPR3   2,,PR1
         1 000366   000003 453500                    STP3    3,,PR0

     2913     7498    1             ADDR(VD_CMD_OBJECTS$ (INDX) -> VD$TEXTC_REMOTE.LENGTH#);
     2914     7499    1           ALTRETURN;

   7499  1 000367   000000 702200 xent               TSX2  ! X66_AALT

     2915     7500
     2916     7501        %BOX (TITLE=EVAL_PT_XUE_EXP, PAGE=YES);
              7509    1
              7513    1   /***************************************************************************
              7515    1    *                                                                         *
              7519    1            *                              EVAL_PT_XUE_EXP                           *
              7521    1            *                                                                        *
              7523    1          ***************************************************************************/

     2917     7527
     2918     7528        /*I* NAME: EVAL_PT_XUE_EXP
     2919     7529            PARAMETERS:
     2920     7530                None.
     2921     7531            INPUT:
     2922     7532                PT_XUE_EXP - Parse node for %XUE_EXP#.
     2923     7533                XUE_ECB - Eval control block for X$EVAL.
     2924     7534            OUTPUT:
     2925     7535                XUE_ECB.OUT$ will point to a VD$TEXTC (owned by X$EVAL)
     2926     7536                    containing the value of the string expression.
     2927     7537                XUE_ECB.WKSZ and .WORK$ may be changed.
     2928     7538            DESCRIPTION:
     2929     7539                Evaluate the expression.
     2930     7540        */
     2931     7541
     2932     7542    1   EVAL_PT_XUE_EXP: PROC ALTRET;

   7542  1 000370   200020 741300       EVAL_PT_XUE* STX1  ! INDX+2,,AUTO

PL6.E3A0      #004=VDE$PXUE_EXP File=VDE$PARSE.:VDA5TSI                          FRI 07/04/97 11:15 Page:345
     2933     7543
     2934     7544
     2935     7545    2   DCL WORK_BUFFER$ PTR;
     2936     7546    2   DCL WKSZ SBIN;
     2937     7547
     2938     7548
     2939     7549        %VD$BUFFER (NAME=WORK$BUFFER, STCLASS="BASED(WORK_BUFFER$)");
     2940     7607
     2941     7608
     2942     7609
     2943     7610    2           XUE_ECB.TREE$ = ADDR(PT_XUE_EXP);

   7610  1 000371   200003 236100                    LDQ     @PT_XUE_EXP,,AUTO
         1 000372   000000 756000 xsym               STQ     XUE_ECB

     2944     7611
     2945     7612    2   RE_EVAL:
     2946     7613    2           CALL X$EVAL (XUE_ECB)

   7613  1 000373   000006 630400 2     RE_EVAL      EPPR0   6
         1 000374   000017 631400 xsym               EPPR1   B_VECTNIL+15
         1 000375   000000 701000 xent               TSX1    X$EVAL
         1 000376   000401 702000 1                  TSX2    s:7629

     2947     7614    3           WHENRETURN DO; RETURN; END;

   7614  1 000377   200020 221300                    LDX1  ! INDX+2,,AUTO
         1 000400   000001 702211                    TSX2  ! 1,X1

     2948     7615
     2949     7616                /*
     2950     7617                *   Got an error from X$EVAL:  is it ours or X$EVAL's?
     2951     7618                *   Our subroutines (eg, VDE$PREAD_NAME_FOR_EVAL and
     2952     7619                *       VDE$PFUNCTIONS) push a VD$ERR onto the error chain
     2953     7620                *       and set (or get set for them) XUE_ECB.ERR.CODE --
     2954     7621                *       but not .ERR.FCG.  However, if it is a monitor error,
     2955     7622                *       they'll push the VD$ERR and set all fields of
PL6.E3A0      #004=VDE$PXUE_EXP File=VDE$PARSE.:VDA5TSI                          FRI 07/04/97 11:15 Page:346
     2956     7623                *       XUE_ECB.ERR -- including the .MON bit.
     2957     7624                *   If X$EVAL finds an error, it'll set all fields of
     2958     7625                *       XUE_ECB.ERR -- except the .MON bit.  Also, of course,
     2959     7626                *       it won't push a VD$ERR.
     2960     7627                */
     2961     7628
     2962     7629    3           IF XUE_ECB.ERR.CODE = %E$XUE#SMALLWORK THEN DO;

   7629  1 000401   000011 236000 xsym               LDQ     XUE_ECB+9
         1 000402   377770 376007                    ANQ     131064,DL
         1 000403   011510 116007                    CMPQ    4936,DL
         1 000404   000452 601000 1                  TNZ     s:7648

     2963     7630                   %INCREMENT (INDX=%STG_EXPAND_EVAL);

   7631  1 000405   000051 054000 xsym               AOS     VD_6E+41

     2964     7633    4              IF XUE_ECB.WORK$ ~= ADDR(NIL) THEN DO;

   7633  1 000406   000001 236000 xsym               LDQ     XUE_ECB+1
         1 000407   000001 116000 xsym               CMPQ    B_VECTNIL+1
         1 000410   000417 600000 1                  TZE     s:7638

     2965     7634    4                 WORK_BUFFER$ = PINCRW(XUE_ECB.WORK$, - SIZEW(VD$BUFFER_HEADER));

   7634  1 000411   777775 036003                    ADLQ    -3,DU
         1 000412   200021 756100                    STQ     WORK_BUFFER$,,AUTO

     2966     7635    4                 CALL VDG$OFREE (WORK$BUFFER)

   7635  1 000413   200021 630500                    EPPR0   WORK_BUFFER$,,AUTO
         1 000414   000017 631400 xsym               EPPR1   B_VECTNIL+15
         1 000415   000000 701000 xent               TSX1    VDG$OFREE
         1 000416   000502 702000 1                  TSX2    OALLOC_FAILED

     2967     7636    4                   ALTRET (OFREE_FAILED);
     2968     7637    4                 END;
PL6.E3A0      #004=VDE$PXUE_EXP File=VDE$PARSE.:VDA5TSI                          FRI 07/04/97 11:15 Page:347

     2969     7638    3              XUE_ECB.WKSZ# = XUE_ECB.WKSZ# + %NW_EVAL_WORK;

   7638  1 000417   000002 235000 xsym               LDA     XUE_ECB+2
         1 000420   000226 035007                    ADLA    150,DL
         1 000421   000002 755000 xsym               STA     XUE_ECB+2

     2970     7639    3              WKSZ = SIZEW(VD$BUFFER_HEADER) + XUE_ECB.WKSZ#;

   7639  1 000422   000003 035007                    ADLA    3,DL
         1 000423   200022 755100                    STA     WKSZ,,AUTO

     2971     7640    3              CALL VDG$OALLOC (%CLS_BUFFER, WORK_BUFFER$, WKSZ)

   7640  1 000424   200022 630500                    EPPR0   WKSZ,,AUTO
         1 000425   200026 450500                    STP0    WKSZ+4,,AUTO
         1 000426   200021 631500                    EPPR1   WORK_BUFFER$,,AUTO
         1 000427   200025 451500                    STP1    WKSZ+3,,AUTO
         1 000430   000000 236000 2                  LDQ     0
         1 000431   200024 756100                    STQ     WKSZ+2,,AUTO
         1 000432   200024 630500                    EPPR0   WKSZ+2,,AUTO
         1 000433   000021 631400 xsym               EPPR1   B_VECTNIL+17
         1 000434   000000 701000 xent               TSX1    VDG$OALLOC
         1 000435   000502 702000 1                  TSX2    OALLOC_FAILED

     2972     7641    3                ALTRET (OALLOC_FAILED);
     2973     7642    3              WORK$BUFFER.LENGTH# = (WORK$BUFFER.OBJECT.SIZE# * %NB_PER_WORD) -

   7642  1 000436   200021 470500                    LDP0    WORK_BUFFER$,,AUTO
         1 000437   000000 236100                    LDQ     0,,PR0
         1 000440   000022 736000                    QLS     18
         1 000441   000020 732000                    QRS     16
         1 000442   777766 620006                    EAX0    -10,QL
         1 000443   000002 740100                    STX0    2,,PR0

     2974     7643    3                LENGTHC(VD$BUFFER_HEADER);
     2975     7644    3              XUE_ECB.WORK$ = PALIGNW(ADDR(WORK$BUFFER.BYTES));
PL6.E3A0      #004=VDE$PXUE_EXP File=VDE$PARSE.:VDA5TSI                          FRI 07/04/97 11:15 Page:348

   7644  1 000444   200021 236100                    LDQ     WORK_BUFFER$,,AUTO
         1 000445   000007 036000 2                  ADLQ    7
         1 000446   770000 036007                    ADLQ    -4096,DL
         1 000447   000010 376000 2                  ANQ     8
         1 000450   000001 756000 xsym               STQ     XUE_ECB+1

     2976     7645    3              GOTO RE_EVAL;

   7645  1 000451   000373 710000 1                  TRA     RE_EVAL

     2977     7646    3              END;
     2978     7647
     2979     7648    2           IF XUE_ECB.ERR.FCG ~= %CLEAR

   7648  1 000452   000011 236000 xsym               LDQ     XUE_ECB+9
         1 000453   777700 316003                    CANQ    -64,DU
         1 000454   000500 600000 1                  TZE     s:7657
         1 000455   400000 316007                    CANQ    -131072,DL
         1 000456   000500 601000 1                  TNZ     s:7657

     2980     7649    3             AND XUE_ECB.ERR.MON = %FALSE THEN DO;

     2981     7650                   /* Error is X$EVAL's */
     2982     7651    3              CALL VDG$OALLOC (%CLS_ERR, VD_ERR$)

   7651  1 000457   200014 630500                    EPPR0   VD_ERR$,,AUTO
         1 000460   200025 450500                    STP0    WKSZ+3,,AUTO
         1 000461   000002 236000 2                  LDQ     2
         1 000462   200024 756100                    STQ     WKSZ+2,,AUTO
         1 000463   200024 630500                    EPPR0   WKSZ+2,,AUTO
         1 000464   000020 631400 xsym               EPPR1   B_VECTNIL+16
         1 000465   000000 701000 xent               TSX1    VDG$OALLOC
         1 000466   000502 702000 1                  TSX2    OALLOC_FAILED

     2983     7652    3                ALTRET (OALLOC_FAILED);
     2984     7653    3              VD$ERR.ERR = XUE_ECB.ERR;
PL6.E3A0      #004=VDE$PXUE_EXP File=VDE$PARSE.:VDA5TSI                          FRI 07/04/97 11:15 Page:349

   7653  1 000467   000011 236000 xsym               LDQ     XUE_ECB+9
         1 000470   200014 470500                    LDP0    VD_ERR$,,AUTO
         1 000471   000002 756100                    STQ     2,,PR0

     2985     7654    3              VD$ERR.FLAGLEV# = %FLV_SERIOUS;

   7654  1 000472   000003 220003                    LDX0    3,DU
         1 000473   200014 470500                    LDP0    VD_ERR$,,AUTO
         1 000474   000003 740100                    STX0    3,,PR0

     2986     7655    3              VD$ERR_LAST.CMDLINE_INDEX# = XUE_ECB.ERR_POS#;

   7655  1 000475   000010 221000 xsym               LDX1    XUE_ECB+8
         1 000476   000032 470400 xsym               LDP0    VD_6E+26
         1 000477   000003 441100                    SXL1    3,,PR0

     2987     7656    3              END;

     2988     7657    2           ALTRETURN;

   7657  1 000500   200020 221300                    LDX1  ! INDX+2,,AUTO
         1 000501   000000 702211                    TSX2  ! 0,X1

   7655  1 000502                       OALLOC_FAIL* null
   7655  1 000502                       OFREE_FAILED null
     2989     7658
     2990     7659
     2991     7660    2   OALLOC_FAILED: ;
     2992     7661    2   OFREE_FAILED: ;
     2993     7662    2           ALTRETURN;

   7662  1 000502   200020 221300                    LDX1  ! INDX+2,,AUTO
         1 000503   000000 702211                    TSX2  ! 0,X1
     2994     7663
     2995     7664    2   END EVAL_PT_XUE_EXP;
     2996     7665
PL6.E3A0      #004=VDE$PXUE_EXP File=VDE$PARSE.:VDA5TSI                          FRI 07/04/97 11:15 Page:350
     2997     7666
     2998     7667    1   END VDE$PXUE_EXP;
     2999     7668        %EOD;

PL6.E3A0      #004=VDE$PXUE_EXP File=VDE$PARSE.:VDA5TSI                          FRI 07/04/97 11:15 Page:351
--  Include file information  --

   XU_PERR_C.:LIBRARY  is referenced.
   XU_MACRO_C.:LIBRARY  is referenced.
   XUE_MACRO_C.:LIBRARY  is referenced.
   VD_PERR_C.:VDA5TOU  is referenced.
   VD_MACROS_M.:VDA5TOU  is referenced.
   B$JIT_C.:E04TOU  was found in the system file and is never referenced.
   CP_6_C.:E04TOU  was found in the system file and is never referenced.
      No diagnostics issued in procedure VDE$PXUE_EXP.
PL6.E3A0      #004=VDE$PXUE_EXP File=VDE$PARSE.:VDA5TSI                          FRI 07/04/97 11:15 Page:352

 **** Variables and constants ****

  ****  Section 000 RoData VDE$PXUE_EXP

  ****  Scalars and arrays  ****
OctLoc.c.b A Datatyp(siz) R M Lvl/name                 OctLoc.c.b A Datatyp(siz) R M Lvl/name

     0-0-0/w PTR         r     1 CONTROL_VALUE$

  ****  Auto variables  ****

  ****  Scalars and arrays  ****
OctLoc.c.b A Datatyp(siz) R M Lvl/name                 OctLoc.c.b A Datatyp(siz) R M Lvl/name

     5-0-0/w PTR         r     1 @BUFFER$                   7-0-0/w PTR         r     1 @CTRL_ARGS
     4-0-0/w PTR         r     1 @NUMBER                    3-0-0/w PTR         r     1 @PT_XUE_EXP
     6-0-0/w PTR         r     1 @RET_CODE                 *0-0-0/w PTR         r     1 BUFFER$
    *0-0-0/w SBIN        r     1 CTRL_ARGS(0:1)
    16-0-0/w SBIN        r     1 INDX                      10-0-0/w SBIN        r     1 NB_STRING
    *0-0-0/w SBIN        r     1 NUMBER                    12-0-0/w SBIN        r     1 PARTIAL_LENGTH
    *0-0-0/w STRC(144)   r     1 PT_XUE_EXP                *0-0-0/c CHAR        r     1 RET_CODE
    11-0-0/w SBIN        r     1 START_NUMBER              13-0-0/w PTR         r     1 STRING$
    15-0-0/w PTR         r     1 SUBST_FIELD$              14-0-0/w PTR         r     1 VD_ERR$
    22-0-0/w SBIN        r     1 WKSZ                      21-0-0/w PTR         r     1 WORK_BUFFER$

  ****  SYMREF variables  ****

  ****  Scalars and arrays  ****
OctLoc.c.b A Datatyp(siz) R M Lvl/name                 OctLoc.c.b A Datatyp(siz) R M Lvl/name

     0-0-0/w ASTR(90)    r     1 VD_$CONTROL                0-0-0/w STRC(22644) r     1 VD_6E
     0-0-0/w PTR         r     1 VD_CMD_OBJECTS$(0:49)
     0-0-0/d STRC(1008)  r     1 XUE_ECB

  ****  BASED and DCB variables  ****

  ****  Scalars and arrays  ****
PL6.E3A0      #004=VDE$PXUE_EXP File=VDE$PARSE.:VDA5TSI                          FRI 07/04/97 11:15 Page:353
OctLoc.c.b A Datatyp(siz) R M Lvl/name                 OctLoc.c.b A Datatyp(siz) R M Lvl/name

     0-0-0/w ASTR(90)    r     1 BUFFER                     0-0-0/w ASTR(90)    r     1 CONTROL$VALUE
     0-0-0/w ASTR(9)     r     1 STRING
     0-0-0/w STRC(144)   r     1 SUBST$NUMBER(0:2)
     0-0-0/w STRC(144)   r     1 SUBST$POINTER(0:2)
     0-0-0/w STRC(90)    r     1 VD$BUFFER_HEADER           0-0-0/w STRC(180)   r     1 VD$ERR
     0-0-0/w STRC(180)   r     1 VD$ERR_LAST                0-0-0/w STRC(81)    r     1 VD$STRING_HEADER
     0-0-0/w ASTR(81)    r     1 VD$TEXTC_REMOTE            0-0-0/w ASTR(90)    r     1 WORK$BUFFER


   Procedure VDE$PXUE_EXP requires 324 words for executable code.
   Procedure VDE$PXUE_EXP requires 26 words of local(AUTO) storage.
PL6.E3A0      #004=VDE$PXUE_EXP File=VDE$PARSE.:VDA5TSI                          FRI 07/04/97 11:15 Page:354
          *** CROSS REFERENCE LISTING ***
**     DENOTES     IDENTIFIER DEFINITION
<<                 IDENTIFIER'S VALUE SET
>>                 IDENTIFIER'S VALUE USED
<>                 IDENTIFIER SET AND/OR USED
--                 IDENTIFIER REFERENCED
PL6.E3A0      #004=VDE$PXUE_EXP File=VDE$PARSE.:VDA5TSI                          FRI 07/04/97 11:15 Page:355
          MINI XREF LISTING

BUFFER.BYTES
      6936**DCL      7428<<ASSIGN
BUFFER.LENGTH#
      6934**DCL      6936--IMP-SIZ  7427<<ASSIGN   7428>>ASSIGN
BUFFER$
      6475**DCL        32--PROC     6908--IMP-PTR  7382--ENTRY    7386--IF       7387<<ASSIGN   7397--IF
      7423<>CALL     7427>>ASSIGN   7428>>ASSIGN   7428>>ASSIGN
CONTROL$VALUE.BYTES
      6878**DCL      7407>>CALLBLT
CONTROL$VALUE.LENGTH#
      6876**DCL      6878--IMP-SIZ  7407>>CALLBLT
CONTROL_VALUE$
      6789**DCL      6850--IMP-PTR  7407>>CALLBLT  7407>>CALLBLT
CTRL_ARGS
      6477**DCL        32--PROC     7382--ENTRY    7389<<ASSIGN   7412<>CALL
DEC_CONVERT_FAILED
      7476**LABEL    7469--CALLALT
EVAL_PT_XUE_EXP
      7542**PROC     7393--CALL     7466--CALL
EVAL_PT_XUE_EXP_FAILED
      7437**LABEL    7393--CALLALT  7466--CALLALT
EXEC_CONTROL_FAILED
      7437**LABEL    7412--CALLALT
INDX
      6799**DCL      7483<<ASSIGN   7484>>DOWHILE  7484>>DOWHILE  7486<<ASSIGN   7486>>ASSIGN   7488>>IF
      7489<>CALL     7490>>CALL     7494>>ASSIGN   7495>>ASSIGN   7495>>ASSIGN   7497>>ASSIGN
NB_STRING
      6793**DCL      7411<<ASSIGN   7412<>CALL     7415>>ASSIGN   7422<<ASSIGN   7423>>CALL     7427>>ASSIGN
      7428>>ASSIGN
NUMBER
      6474**DCL        32--PROC     7382--ENTRY    7395<<ASSIGN   7400>>ASSIGN   7404<<ASSIGN   7405>>DOWHILE
      7407>>CALLBLT  7409<<ASSIGN   7410>>IF       7412<>CALL     7420>>ASSIGN   7440>>ASSIGN   7462--ENTRY
PL6.E3A0      #004=VDE$PXUE_EXP File=VDE$PARSE.:VDA5TSI                          FRI 07/04/97 11:15 Page:356
      7465<<ASSIGN   7469<>CALL
OALLOC_FAILED
      7445**LABEL    7423--CALLALT  7476--CALLALT  7490--CALLALT
OALLOC_FAILED IN PROCEDURE EVAL_PT_XUE_EXP
      7655**LABEL    7640--CALLALT  7651--CALLALT
OFREE_FAILED IN PROCEDURE EVAL_PT_XUE_EXP
      7655**LABEL    7635--CALLALT
PARTIAL_LENGTH
      6795**DCL      7407<<CALLBLT  7409>>ASSIGN   7420<<ASSIGN   7421>>IF       7422>>ASSIGN
PT_XUE_EXP
      6435**DCL        32--PROC     7382--ENTRY    7392--IF       7462--ENTRY    7610--ASSIGN
PT_XUE_EXP.CPOS
      6461**DCL      7480>>ASSIGN
RET_CODE
      6476**DCL        32--PROC     7382--ENTRY    7388<<ASSIGN   7405>>DOWHILE  7412<>CALL     7419>>IF
RE_EVAL IN PROCEDURE EVAL_PT_XUE_EXP
      7613**LABEL    7645--GOTO
START_NUMBER
      6794**DCL      7400<<ASSIGN   7421>>IF       7422>>ASSIGN   7428>>ASSIGN
STRING.BYTES
      6820**DCL      7407>>CALLBLT  7412<>CALL     7428>>ASSIGN   7495>>ASSIGN
STRING.LENGTH#
      6818**DCL      6820--IMP-SIZ  7404>>ASSIGN   7405>>DOWHILE  7407>>CALLBLT  7410>>IF       7411>>ASSIGN
      7412>>CALL     7415<<ASSIGN   7428>>ASSIGN   7490>>CALL     7494>>ASSIGN   7495>>ASSIGN
STRING$
      6796**DCL      7401<<ASSIGN
SUBST$NUMBER.OBJECT.CLASS#
      7140**DCL      7439<<ASSIGN
SUBST$NUMBER.V#
      7142**DCL      7440<<ASSIGN
SUBST$POINTER.OBJECT.CLASS#
      7185**DCL      7496<<ASSIGN
SUBST$POINTER.V$
      7187**DCL      7497<<ASSIGN
SUBST_FIELD$
      6798**DCL      7108--IMP-PTR  7161--IMP-PTR  7438<<ASSIGN   7439>>ASSIGN   7440>>ASSIGN   7482<<ASSIGN
PL6.E3A0      #004=VDE$PXUE_EXP File=VDE$PARSE.:VDA5TSI                          FRI 07/04/97 11:15 Page:357
      7496>>ASSIGN   7497>>ASSIGN
VD$BUFFER_HEADER
      7198**DCL      7423--CALL     7634--ASSIGN   7639--ASSIGN   7642--ASSIGN
VD$ERR
      6949**DCL      7438--ASSIGN   7482--ASSIGN
VD$ERR.CMDLINE_INDEX#
      6991**DCL      7480<<ASSIGN
VD$ERR.ERR
      6986**DCL      7653<<ASSIGN
VD$ERR.ERR.CODE#
      6988**DCL      7478<<ASSIGN
VD$ERR.FLAGLEV#
      6991**DCL      7479<<ASSIGN   7654<<ASSIGN
VD$ERR_LAST.CMDLINE_INDEX#
      7097**DCL      7655<<ASSIGN
VD$STRING_HEADER
      7234**DCL      7490--CALL
VD$TEXTC_REMOTE.BYTES
      7318**DCL      7495<<ASSIGN
VD$TEXTC_REMOTE.LENGTH#
      7316**DCL      7318--IMP-SIZ  7494<<ASSIGN   7495>>ASSIGN   7497--ASSIGN
VDG$ESCREECH
      6484**DCL-ENT  7489--CALL
VDG$EXEC_CONTROL
      6483**DCL-ENT  7412--CALL
VDG$OALLOC
      6481**DCL-ENT  7423--CALL     7476--CALL     7490--CALL     7640--CALL     7651--CALL
VDG$OFREE
      6482**DCL-ENT  7635--CALL
VD_$CONTROL
      6550**DCL      6789--DCLINIT
VD_$CONTROL.LENGTH#
      6576**DCL      6578--IMP-SIZ  7403>>IF
VD_6E.ERR_HEAD$
      6520**DCL      7002--IMP-PTR  7437>>IF
VD_6E.ERR_TAIL$
PL6.E3A0      #004=VDE$PXUE_EXP File=VDE$PARSE.:VDA5TSI                          FRI 07/04/97 11:15 Page:358
      6520**DCL      7055--IMP-PTR  7437>>IF       7438>>ASSIGN   7655>>ASSIGN
VD_6E.STATS#
      6521**DCL      7631<<ASSIGN   7631>>ASSIGN
VD_CMD_OBJECTS$
      6786**DCL      7484>>DOWHILE  7490<>CALL     7494>>ASSIGN   7495>>ASSIGN   7495>>ASSIGN   7497>>ASSIGN
VD_ERR$
      6797**DCL      6949--IMP-PTR  7476<>CALL     7478>>ASSIGN   7479>>ASSIGN   7480>>ASSIGN   7482>>ASSIGN
      7651<>CALL     7653>>ASSIGN   7654>>ASSIGN
WKSZ IN PROCEDURE EVAL_PT_XUE_EXP
      7546**DCL      7639<<ASSIGN   7640<>CALL
WORK$BUFFER IN PROCEDURE EVAL_PT_XUE_EXP
      7574**DCL      7635<>CALL
WORK$BUFFER.BYTES IN PROCEDURE EVAL_PT_XUE_EXP
      7602**DCL      7644--ASSIGN
WORK$BUFFER.LENGTH# IN PROCEDURE EVAL_PT_XUE_EXP
      7600**DCL      7602--IMP-SIZ  7635>>CALL     7642<<ASSIGN
WORK$BUFFER.OBJECT.SIZE# IN PROCEDURE EVAL_PT_XUE_EXP
      7598**DCL      7642>>ASSIGN
WORK_BUFFER$ IN PROCEDURE EVAL_PT_XUE_EXP
      7545**DCL      7574--IMP-PTR  7634<<ASSIGN   7635>>CALL     7635>>CALL     7640<>CALL     7642>>ASSIGN
      7642>>ASSIGN   7644>>ASSIGN
X$DEC_CONVERT
      6485**DCL-ENT  7469--CALL
X$EVAL
      6480**DCL-ENT  7613--CALL
XUE_ECB
      6598**DCL      7613<>CALL
XUE_ECB.ERR
      6682**DCL      7653>>ASSIGN
XUE_ECB.ERR.CODE
      6686**DCL      7629>>IF
XUE_ECB.ERR.FCG
      6683**DCL      7648>>IF
XUE_ECB.ERR.MON
      6685**DCL      7648>>IF
XUE_ECB.ERR_POS#
PL6.E3A0      #004=VDE$PXUE_EXP File=VDE$PARSE.:VDA5TSI                          FRI 07/04/97 11:15 Page:359
      6665**DCL      7655>>ASSIGN
XUE_ECB.OUT$
      6630**DCL      6810--IMP-PTR  7401>>ASSIGN   7404>>ASSIGN   7405>>DOWHILE  7407>>CALLBLT  7407>>CALLBLT
      7410>>IF       7411>>ASSIGN   7412>>CALL     7412>>CALL     7415>>ASSIGN   7428>>ASSIGN   7428>>ASSIGN
      7469<>CALL     7490>>CALL     7494>>ASSIGN   7495>>ASSIGN   7495>>ASSIGN
XUE_ECB.TREE$
      6602**DCL      7610<<ASSIGN
XUE_ECB.WKSZ#
      6613**DCL      7638<<ASSIGN   7638>>ASSIGN   7639>>ASSIGN
XUE_ECB.WORK$
      6608**DCL      7633>>IF       7634>>ASSIGN   7644<<ASSIGN

PL6.E3A0      #005=VDE$PNUMERIC_KEY File=VDE$PARSE.:VDA5TSI                      FRI 07/04/97 11:15 Page:360
     3000        1        /*T***********************************************************/
     3001        2        /*T*                                                         */
     3002        3        /*T* Copyright (c) Bull HN Information Systems Inc., 1997    */
     3003        4        /*T*                                                         */
     3004        5        /*T***********************************************************/
     3005        6
     3006        7        /*D* NAME: VDE$PNUMERIC_KEY
     3007        8            PARAMETERS:
     3008        9                PT_NUMBER - The NUMBER ParseTree node.  Note that there is
     3009       10                    no %T_NUMBER code, but that other codes (%T_KEY_INCR,
     3010       11                    %T_NUMERIC_KEY) are actually NUMBER nodes.
     3011       12                KEY - Uninitialized VD$KEY.
     3012       13            INPUT:
     3013       14                None.
     3014       15            OUTPUT:
     3015       16                KEY will contain the key specified by the ParseTree nodes.
     3016       17            DESCRIPTION:
     3017       18                The PT_NUMBER node must have one or two children:  T_INTEGER
     3018       19                and/or T_FRACT; either may be omitted but not both; if both
     3019       20                appear, T_INTEGER must be first.  T_INTEGER (if it appears)
     3020       21                is a .DECIMAL PARSE$SYM node; T_FRACT (if it appears) also
     3021       22                is a .DECIMAL PARSE$SYM node.
     3022       23
     3023       24                T_INTEGER's value is multiplied by 1000, and T_FRACT's value
     3024       25                added to it.  The result is stored in KEY as a local
     3025       26                numeric key.
     3026       27                Error if T_INTEGER's value is > %MX_CONSEC_RECORDS.
     3027       28                Error if T_FRACT's value is > %MX_EDITKEY_FRACT.
     3028       29        *N**N*  Note that this routine doesn't know if the key being
     3029       30        *N**N*      specified is for an edit-keyed file or a consecutive
     3030       31        *N**N*      file:  if for a consecutive file, values larger than
     3031       32        *N**N*      99999 should be accepted.  In future, we need some
     3032       33        *N**N*      way to store large numbers as keys in the InTree before
     3033       34        *N**N*      knowing if they should be multiplied by 1000 or not.
     3034       35        *N**N*      For now, we guarantee the integer part is <= 99999, so
     3035       36        *N**N*      we can multiply the value by 1000 without overflowing our
     3036       37        *N**N*      27-bit field in KEY.
PL6.E3A0      #005=VDE$PNUMERIC_KEY File=VDE$PARSE.:VDA5TSI                      FRI 07/04/97 11:15 Page:361
     3037       38                When the InTree is evaluated, we'll know whether the keys
     3038       39                    should be edit-keys or consecutive keys.  At that time,
     3039       40                    we'll check to see that the key isn't too large for
     3040       41                    an edit-key (this module checks that it's not to large
     3041       42                    for a consecutive key), and that a fraction isn't given
     3042       43                    for a consecutive key.
     3043       44        */
     3044       45
     3045       46        VDE$PNUMERIC_KEY: PROC (PT_NUMBER, KEY) ALTRET;
     3046       47
     3047       48
     3048       49        %INCLUDE VD_MACROS_M;
     3049     2264        %INCLUDE VD_PERR_C;
     3050     2412        %INCLUDE VD_NODES0_E;
     3051     2504        %INCLUDE XU_MACRO_C;
     3052     5598
     3053     5599
     3054     5600        %PARSE$OUT (NAME=PT_NUMBER, STCLASS=PARAM);
     3055     5645        %VD$KEY_NUMBER (NAME=KEY, STCLASS=PARAM);
     3056     5660
     3057     5661
     3058     5662    1   DCL VDG$ERRMSG              ENTRY (4) ALTRET;
     3059     5663
     3060     5664
     3061     5665        %VD_6E (STCLASS=SYMREF);
     3062     5701
     3063     5702
     3064     5703    1   DCL SBIN_VALUE SBIN;
     3065     5704    1   DCL SYM_INT$ PTR;
     3066     5705    1   DCL X SBIN;
     3067     5706    1   DCL FRACTMULT(0:3) SBIN CONSTANT INIT(0,100,10,1);
     3068     5707    1   DCL ERR_CODE UBIN;
     3069     5708
     3070     5709
     3071     5710        %PARSE$SYM (NAME=SYM$INT, STCLASS="BASED(SYM_INT$)");
     3072     5748        %VD$ERR (STCLASS="BASED(VD_6E.ERR_TAIL$)");
     3073     5801
PL6.E3A0      #005=VDE$PNUMERIC_KEY File=VDE$PARSE.:VDA5TSI                      FRI 07/04/97 11:15 Page:362
     3074     5802
     3075     5803
     3076     5804    1           KEY = %CLEAR;
     3077     5805    1           KEY.TYPE# = %KT_EDITKEY;
     3078     5806    1           KEY.REP# = %REP_LOCAL;
     3079     5807    1           KEY.LENGTH# = %NB_NUMERIC_KEY;
     3080     5808
     3081     5809    2           DO X=0 TO PT_NUMBER.NSUBLKS-1;
     3082     5810    2              SYM_INT$ = PT_NUMBER.SUBLK$ (X);
     3083     5811                   %INCREMENT (ARRAY=STATS_TOKENS#, INDX="SYM$INT.CODE - %VD_BASE#");
     3084     5814
     3085     5815    2              CALL CHARBIN (SBIN_VALUE, SYM$INT.TEXT);
     3086     5816    3              IF SYM$INT.CODE = %T_INTEGER THEN DO;
     3087     5817    4                 IF SYM$INT.COUNT > 5 THEN DO;
     3088     5818    4                    IF PT_NUMBER.NSUBLKS > 1 THEN
     3089     5819    4                       GOTO ILL_NUMKEY_INTEGER_FAILURE;
     3090     5820    4                    IF SYM$INT.COUNT > 9 OR SBIN_VALUE > %MX_CONSEC_RECORDS THEN
     3091     5821    4                       GOTO CONSEC_KEY_TOO_BIG_FAILURE;
     3092     5822    4                    KEY.BYTES# = SBIN_VALUE;
     3093     5823    4                    KEY.TYPE# = %KT_NUMBER;
     3094     5824    4                    END;
     3095     5825    3                 ELSE
     3096     5826    3                    KEY.BYTES# = SBIN_VALUE * 1000;
     3097     5827    3                 END;
     3098     5828
     3099     5829    3              ELSE DO;
     3100     5830    3                 IF SYM$INT.COUNT > 3 THEN
     3101     5831    3                    GOTO ILL_EDITKEY_FRACT_FAILURE;
     3102     5832    3                 KEY.BYTES# = KEY.BYTES# + SBIN_VALUE * FRACTMULT (SYM$INT.COUNT);
     3103     5833    3                 END;
     3104     5834    2              END;
     3105     5835
     3106     5836    1           RETURN;
     3107     5837
     3108     5838
     3109     5839    1   CONSEC_KEY_TOO_BIG_FAILURE: ;
     3110     5840    1           ERR_CODE = %E$CONSEC_KEY_TOO_BIG;
PL6.E3A0      #005=VDE$PNUMERIC_KEY File=VDE$PARSE.:VDA5TSI                      FRI 07/04/97 11:15 Page:363
     3111     5841    1           GOTO SERIOUS_ERROR;
     3112     5842
     3113     5843
     3114     5844    1   ILL_NUMKEY_INTEGER_FAILURE:
     3115     5845    1           ERR_CODE = %E$NUMKEY_INTEGER_NOT_LEGAL;
     3116     5846    1           GOTO SERIOUS_ERROR;
     3117     5847
     3118     5848
     3119     5849    1   ILL_EDITKEY_FRACT_FAILURE:
     3120     5850    1           ERR_CODE = %E$EDITKEY_FRACT_NOT_LEGAL;
     3121     5851    1           GOTO SERIOUS_ERROR;
     3122     5852
     3123     5853
     3124     5854    1   SERIOUS_ERROR:
     3125     5855    1           KEY = %CLEAR;
     3126     5856    2           CALL VDG$ERRMSG (ERR_CODE) WHENRETURN DO;
     3127     5857    2              VD$ERR.CMDLINE_INDEX# = PT_NUMBER.CPOS;
     3128     5858    2              END;
     3129     5859    1           ALTRETURN;
     3130     5860
     3131     5861
     3132     5862    1   END VDE$PNUMERIC_KEY;
     3133     5863        %EOD;

PL6.E3A0      #005=VDE$PNUMERIC_KEY File=VDE$PARSE.:VDA5TSI                      FRI 07/04/97 11:15 Page:364
--  Include file information  --

   XU_MACRO_C.:LIBRARY  is referenced.
   VD_NODES0_E.:VDA5TOU  is referenced.
   VD_PERR_C.:VDA5TOU  is referenced.
   VD_MACROS_M.:VDA5TOU  is referenced.
   B$JIT_C.:E04TOU  was found in the system file and is never referenced.
   CP_6_C.:E04TOU  was found in the system file and is never referenced.
      No diagnostics issued in procedure VDE$PNUMERIC_KEY.

   Procedure VDE$PNUMERIC_KEY requires 94 words for executable code.
   Procedure VDE$PNUMERIC_KEY requires 12 words of local(AUTO) storage.

PL6.E3A0      #005=VDE$PNUMERIC_KEY File=VDE$PARSE.:VDA5TSI                      FRI 07/04/97 11:15 Page:365

 Object Unit name= VDE$PNUMERIC_KEY                           File name= VDE$PARSE.:VDA5TOU
 UTS= JUL 04 '97 11:15:32.44 FRI                              Compiler= PL-6/E31         Sev=      00
 SharedLib= :SHARED_SYSTEM                                    Alt SharedLib=


    ****  Control sections  ****

 Sect   Type Bound  Init  Size OctSiz  Section name(segment info)
    0  RoData even  UTS      4      4  VDE$PNUMERIC_KEY
    1   Proc  even  none    94    136  VDE$PNUMERIC_KEY

    ****  Entry defs  ****

                              Check   Calling
                             calling  sequence
  Sect OctLoc Primary Altret sequence   type   Parms  Name
     1      0   yes    yes     yes      Std        2  VDE$PNUMERIC_KEY

  ****  Entry refs  ****

         Check        Calling
        calling       sequence
Altret sequence SRef   type   Args  Name
 yes     yes           Std       4 VDG$ERRMSG
                       nStd      0 X66_AUTO_2
                       Std       0 B_CONSPOOL_D
                       nStd      0 X66_ARET
                       nStd      0 X66_AALT

  ****  Data refs  ****

  Flags:  r = read only, s = secondary
Flgs Name                             Flgs Name                             Flgs Name
     VD_6E                                 B_VECTNIL
PL6.E3A0      #005=VDE$PNUMERIC_KEY File=VDE$PARSE.:VDA5TSI                      FRI 07/04/97 11:15 Page:366


     3000        1        /*T***********************************************************/
     3001        2        /*T*                                                         */
     3002        3        /*T* Copyright (c) Bull HN Information Systems Inc., 1997    */
     3003        4        /*T*                                                         */
     3004        5        /*T***********************************************************/
     3005        6
     3006        7        /*D* NAME: VDE$PNUMERIC_KEY
     3007        8            PARAMETERS:
     3008        9                PT_NUMBER - The NUMBER ParseTree node.  Note that there is
     3009       10                    no %T_NUMBER code, but that other codes (%T_KEY_INCR,
     3010       11                    %T_NUMERIC_KEY) are actually NUMBER nodes.
     3011       12                KEY - Uninitialized VD$KEY.
     3012       13            INPUT:
     3013       14                None.
     3014       15            OUTPUT:
     3015       16                KEY will contain the key specified by the ParseTree nodes.
     3016       17            DESCRIPTION:
     3017       18                The PT_NUMBER node must have one or two children:  T_INTEGER
     3018       19                and/or T_FRACT; either may be omitted but not both; if both
     3019       20                appear, T_INTEGER must be first.  T_INTEGER (if it appears)
     3020       21                is a .DECIMAL PARSE$SYM node; T_FRACT (if it appears) also
     3021       22                is a .DECIMAL PARSE$SYM node.
     3022       23
     3023       24                T_INTEGER's value is multiplied by 1000, and T_FRACT's value
     3024       25                added to it.  The result is stored in KEY as a local
     3025       26                numeric key.
     3026       27                Error if T_INTEGER's value is > %MX_CONSEC_RECORDS.
     3027       28                Error if T_FRACT's value is > %MX_EDITKEY_FRACT.
     3028       29        *N**N*  Note that this routine doesn't know if the key being
     3029       30        *N**N*      specified is for an edit-keyed file or a consecutive
     3030       31        *N**N*      file:  if for a consecutive file, values larger than
     3031       32        *N**N*      99999 should be accepted.  In future, we need some
     3032       33        *N**N*      way to store large numbers as keys in the InTree before
     3033       34        *N**N*      knowing if they should be multiplied by 1000 or not.
     3034       35        *N**N*      For now, we guarantee the integer part is <= 99999, so
     3035       36        *N**N*      we can multiply the value by 1000 without overflowing our
PL6.E3A0      #005=VDE$PNUMERIC_KEY File=VDE$PARSE.:VDA5TSI                      FRI 07/04/97 11:15 Page:367
     3036       37        *N**N*      27-bit field in KEY.
     3037       38                When the InTree is evaluated, we'll know whether the keys
     3038       39                    should be edit-keys or consecutive keys.  At that time,
     3039       40                    we'll check to see that the key isn't too large for
     3040       41                    an edit-key (this module checks that it's not to large
     3041       42                    for a consecutive key), and that a fraction isn't given
     3042       43                    for a consecutive key.
     3043       44        */
     3044       45
     3045       46        VDE$PNUMERIC_KEY: PROC (PT_NUMBER, KEY) ALTRET;

     46  1 000000   000000 700200 xent  VDE$PNUMERI* TSX0  ! X66_AUTO_2
         1 000001   000014 000002                    ZERO    12,2

     3046       47
     3047       48
     3048       49        %INCLUDE VD_MACROS_M;
     3049     2264        %INCLUDE VD_PERR_C;
     3050     2412        %INCLUDE VD_NODES0_E;
     3051     2504        %INCLUDE XU_MACRO_C;
     3052     5598
     3053     5599
     3054     5600        %PARSE$OUT (NAME=PT_NUMBER, STCLASS=PARAM);
     3055     5645        %VD$KEY_NUMBER (NAME=KEY, STCLASS=PARAM);
     3056     5660
     3057     5661
     3058     5662    1   DCL VDG$ERRMSG              ENTRY (4) ALTRET;
     3059     5663
     3060     5664
     3061     5665        %VD_6E (STCLASS=SYMREF);
     3062     5701
     3063     5702
     3064     5703    1   DCL SBIN_VALUE SBIN;
     3065     5704    1   DCL SYM_INT$ PTR;
     3066     5705    1   DCL X SBIN;
     3067     5706    1   DCL FRACTMULT(0:3) SBIN CONSTANT INIT(0,100,10,1);
     3068     5707    1   DCL ERR_CODE UBIN;
PL6.E3A0      #005=VDE$PNUMERIC_KEY File=VDE$PARSE.:VDA5TSI                      FRI 07/04/97 11:15 Page:368
     3069     5708
     3070     5709
     3071     5710        %PARSE$SYM (NAME=SYM$INT, STCLASS="BASED(SYM_INT$)");
     3072     5748        %VD$ERR (STCLASS="BASED(VD_6E.ERR_TAIL$)");
     3073     5801
     3074     5802
     3075     5803
     3076     5804    1           KEY = %CLEAR;

   5804  1 000002   200004 470500                    LDP0    @KEY,,AUTO
         1 000003   000000 450100                    STZ     0,,PR0
         1 000004   000001 450100                    STZ     1,,PR0

     3077     5805    1           KEY.TYPE# = %KT_EDITKEY;

   5805  1 000005   000003 220003                    LDX0    3,DU
         1 000006   000000 740100                    STX0    0,,PR0

     3078     5806    1           KEY.REP# = %REP_LOCAL;

   5806  1 000007   000001 221003                    LDX1    1,DU
         1 000010   000000 441100                    SXL1    0,,PR0

     3079     5807    1           KEY.LENGTH# = %NB_NUMERIC_KEY;

   5807  1 000011   003000 236003                    LDQ     1536,DU
         1 000012   000001 552140                    STBQ    1,'40'O,PR0

     3080     5808
     3081     5809    2           DO X=0 TO PT_NUMBER.NSUBLKS-1;

   5809  1 000013   200007 450100                    STZ     X,,AUTO
         1 000014   000101 710000 1                  TRA     s:5834+1

     3082     5810    2              SYM_INT$ = PT_NUMBER.SUBLK$ (X);

   5810  1 000015   200003 470500                    LDP0    @PT_NUMBER,,AUTO
PL6.E3A0      #005=VDE$PNUMERIC_KEY File=VDE$PARSE.:VDA5TSI                      FRI 07/04/97 11:15 Page:369
         1 000016   200007 720100                    LXL0    X,,AUTO
         1 000017   000003 236110                    LDQ     3,X0,PR0
         1 000020   200006 756100                    STQ     SYM_INT$,,AUTO

     3083     5811                   %INCREMENT (ARRAY=STATS_TOKENS#, INDX="SYM$INT.CODE - %VD_BASE#");

   5812  1 000021   200006 471500                    LDP1    SYM_INT$,,AUTO
         1 000022   100000 721100                    LXL1    0,,PR1
         1 000023   776375 054011 xsym               AOS     VD_6E-771,X1

     3084     5814
     3085     5815    2              CALL CHARBIN (SBIN_VALUE, SYM$INT.TEXT);

   5815  1 000024   100004 236100                    LDQ     4,,PR1
         1 000025   000033 772000                    QRL     27
         1 000026   000000 621006                    EAX1    0,QL
         1 000027   000100 305540                    DTB
         1 000030   100004 230011                    NDSC9   4,,PR1                   cn=1,s=nosgn,sf=0,n=*X1
         1 000031   200005 000004                    NDSC9   SBIN_VALUE,,AUTO         cn=0,s=lsgnf,sf=0,n=4

     3086     5816    3              IF SYM$INT.CODE = %T_INTEGER THEN DO;

   5816  1 000032   100000 722100                    LXL2    0,,PR1
         1 000033   002061 102003                    CMPX2   1073,DU
         1 000034   000063 601000 1                  TNZ     s:5830

     3087     5817    4                 IF SYM$INT.COUNT > 5 THEN DO;

   5817  1 000035   000033 736000                    QLS     27
         1 000036   006000 116003                    CMPQ    3072,DU
         1 000037   000056 602000 1                  TNC     s:5826

     3088     5818    4                    IF PT_NUMBER.NSUBLKS > 1 THEN

   5818  1 000040   000001 223100                    LDX3    1,,PR0
         1 000041   000002 103003                    CMPX3   2,DU
         1 000042   000112 603000 1                  TRC     ILL_NUMKEY_INTEGER_FAILURE
PL6.E3A0      #005=VDE$PNUMERIC_KEY File=VDE$PARSE.:VDA5TSI                      FRI 07/04/97 11:15 Page:370

     3089     5819    4                       GOTO ILL_NUMKEY_INTEGER_FAILURE;
     3090     5820    4                    IF SYM$INT.COUNT > 9 OR SBIN_VALUE > %MX_CONSEC_RECORDS THEN

   5820  1 000043   012000 116003                    CMPQ    5120,DU
         1 000044   000107 603000 1                  TRC     CONSEC_KEY_TOO_BIG_FAILURE
         1 000045   200005 235100                    LDA     SBIN_VALUE,,AUTO
         1 000046   000032 115000 xsym               CMPA    B_VECTNIL+26
         1 000047   000107 605400 1                  TPNZ    CONSEC_KEY_TOO_BIG_FAILURE

     3091     5821    4                       GOTO CONSEC_KEY_TOO_BIG_FAILURE;
     3092     5822    4                    KEY.BYTES# = SBIN_VALUE;

   5822  1 000050   200004 473500                    LDP3    @KEY,,AUTO
         1 000051   200005 236100                    LDQ     SBIN_VALUE,,AUTO
         1 000052   300001 552134                    STBQ    1,'34'O,PR3

     3093     5823    4                    KEY.TYPE# = %KT_NUMBER;

   5823  1 000053   000001 221003                    LDX1    1,DU
         1 000054   300000 741100                    STX1    0,,PR3

     3094     5824    4                    END;

   5824  1 000055   000100 710000 1                  TRA     s:5834

     3095     5825    3                 ELSE
     3096     5826    3                    KEY.BYTES# = SBIN_VALUE * 1000;

   5826  1 000056   200004 473500                    LDP3    @KEY,,AUTO
         1 000057   200005 236100                    LDQ     SBIN_VALUE,,AUTO
         1 000060   001750 402007                    MPY     1000,DL
         1 000061   300001 552134                    STBQ    1,'34'O,PR3

     3097     5827    3                 END;

   5827  1 000062   000100 710000 1                  TRA     s:5834
PL6.E3A0      #005=VDE$PNUMERIC_KEY File=VDE$PARSE.:VDA5TSI                      FRI 07/04/97 11:15 Page:371

     3098     5828
     3099     5829    3              ELSE DO;

     3100     5830    3                 IF SYM$INT.COUNT > 3 THEN

   5830  1 000063   000033 736000                    QLS     27
         1 000064   004000 116003                    CMPQ    2048,DU
         1 000065   000115 603000 1                  TRC     ILL_EDITKEY_FRACT_FAILURE

     3101     5831    3                    GOTO ILL_EDITKEY_FRACT_FAILURE;
     3102     5832    3                 KEY.BYTES# = KEY.BYTES# + SBIN_VALUE * FRACTMULT (SYM$INT.COUNT);

   5832  1 000066   200005 236100                    LDQ     SBIN_VALUE,,AUTO
         1 000067   000000 402011 0                  MPY     FRACTMULT,X1
         1 000070   200004 473500                    LDP3    @KEY,,AUTO
         1 000071   200012 756100                    STQ     ERR_CODE+2,,AUTO
         1 000072   300001 236100                    LDQ     1,,PR3
         1 000073   000032 376000 xsym               ANQ     B_VECTNIL+26
         1 000074   200013 756100                    STQ     ERR_CODE+3,,AUTO
         1 000075   200012 236100                    LDQ     ERR_CODE+2,,AUTO
         1 000076   200013 036100                    ADLQ    ERR_CODE+3,,AUTO
         1 000077   300001 552134                    STBQ    1,'34'O,PR3

     3103     5833    3                 END;

     3104     5834    2              END;

   5834  1 000100   200007 054100                    AOS     X,,AUTO
         1 000101   200003 470500                    LDP0    @PT_NUMBER,,AUTO
         1 000102   000001 236100                    LDQ     1,,PR0
         1 000103   000022 772000                    QRL     18
         1 000104   200007 116100                    CMPQ    X,,AUTO
         1 000105   000015 605400 1                  TPNZ    s:5810

     3105     5835
     3106     5836    1           RETURN;
PL6.E3A0      #005=VDE$PNUMERIC_KEY File=VDE$PARSE.:VDA5TSI                      FRI 07/04/97 11:15 Page:372

   5836  1 000106   000000 702200 xent               TSX2  ! X66_ARET

   5826  1 000107                       CONSEC_KEY_* null
     3107     5837
     3108     5838
     3109     5839    1   CONSEC_KEY_TOO_BIG_FAILURE: ;
     3110     5840    1           ERR_CODE = %E$CONSEC_KEY_TOO_BIG;

   5840  1 000107   000425 235007                    LDA     277,DL
         1 000110   200010 755100                    STA     ERR_CODE,,AUTO

     3111     5841    1           GOTO SERIOUS_ERROR;

   5841  1 000111   000120 710000 1                  TRA     SERIOUS_ERROR

     3112     5842
     3113     5843
     3114     5844    1   ILL_NUMKEY_INTEGER_FAILURE:
     3115     5845    1           ERR_CODE = %E$NUMKEY_INTEGER_NOT_LEGAL;

   5845  1 000112   000076 235007       ILL_NUMKEY_* LDA     62,DL
         1 000113   200010 755100                    STA     ERR_CODE,,AUTO

     3116     5846    1           GOTO SERIOUS_ERROR;

   5846  1 000114   000120 710000 1                  TRA     SERIOUS_ERROR

     3117     5847
     3118     5848
     3119     5849    1   ILL_EDITKEY_FRACT_FAILURE:
     3120     5850    1           ERR_CODE = %E$EDITKEY_FRACT_NOT_LEGAL;

   5850  1 000115   000075 235007       ILL_EDITKEY* LDA     61,DL
         1 000116   200010 755100                    STA     ERR_CODE,,AUTO

     3121     5851    1           GOTO SERIOUS_ERROR;
PL6.E3A0      #005=VDE$PNUMERIC_KEY File=VDE$PARSE.:VDA5TSI                      FRI 07/04/97 11:15 Page:373

   5851  1 000117   000120 710000 1                  TRA     SERIOUS_ERROR

     3122     5852
     3123     5853
     3124     5854    1   SERIOUS_ERROR:
     3125     5855    1           KEY = %CLEAR;

   5855  1 000120   200004 473500       SERIOUS_ERR* LDP3    @KEY,,AUTO
         1 000121   300000 450100                    STZ     0,,PR3
         1 000122   300001 450100                    STZ     1,,PR3

     3126     5856    2           CALL VDG$ERRMSG (ERR_CODE) WHENRETURN DO;

   5856  1 000123   200010 634500                    EPPR4   ERR_CODE,,AUTO
         1 000124   200012 454500                    STP4    ERR_CODE+2,,AUTO
         1 000125   200012 630500                    EPPR0   ERR_CODE+2,,AUTO
         1 000126   000017 631400 xsym               EPPR1   B_VECTNIL+15
         1 000127   000000 701000 xent               TSX1    VDG$ERRMSG
         1 000130   000135 702000 1                  TSX2    s:5859

     3127     5857    2              VD$ERR.CMDLINE_INDEX# = PT_NUMBER.CPOS;

   5857  1 000131   200003 470500                    LDP0    @PT_NUMBER,,AUTO
         1 000132   000002 720100                    LXL0    2,,PR0
         1 000133   000032 471400 xsym               LDP1    VD_6E+26
         1 000134   100003 440100                    SXL0    3,,PR1

     3128     5858    2              END;

     3129     5859    1           ALTRETURN;

   5859  1 000135   000000 702200 xent               TSX2  ! X66_AALT
     3130     5860
     3131     5861
     3132     5862    1   END VDE$PNUMERIC_KEY;
     3133     5863        %EOD;
PL6.E3A0      #005=VDE$PNUMERIC_KEY File=VDE$PARSE.:VDA5TSI                      FRI 07/04/97 11:15 Page:374

PL6.E3A0      #005=VDE$PNUMERIC_KEY File=VDE$PARSE.:VDA5TSI                      FRI 07/04/97 11:15 Page:375
--  Include file information  --

   XU_MACRO_C.:LIBRARY  is referenced.
   VD_NODES0_E.:VDA5TOU  is referenced.
   VD_PERR_C.:VDA5TOU  is referenced.
   VD_MACROS_M.:VDA5TOU  is referenced.
   B$JIT_C.:E04TOU  was found in the system file and is never referenced.
   CP_6_C.:E04TOU  was found in the system file and is never referenced.
      No diagnostics issued in procedure VDE$PNUMERIC_KEY.
PL6.E3A0      #005=VDE$PNUMERIC_KEY File=VDE$PARSE.:VDA5TSI                      FRI 07/04/97 11:15 Page:376

 **** Variables and constants ****

  ****  Section 000 RoData VDE$PNUMERIC_KEY

  ****  Scalars and arrays  ****
OctLoc.c.b A Datatyp(siz) R M Lvl/name                 OctLoc.c.b A Datatyp(siz) R M Lvl/name

     0-0-0/w SBIN        r     1 FRACTMULT(0:3)

  ****  Auto variables  ****

  ****  Scalars and arrays  ****
OctLoc.c.b A Datatyp(siz) R M Lvl/name                 OctLoc.c.b A Datatyp(siz) R M Lvl/name

     4-0-0/w PTR         r     1 @KEY                       3-0-0/w PTR         r     1 @PT_NUMBER
    10-0-0/w UBIN        r     1 ERR_CODE                  *0-0-0/w STRC(72)    r     1 KEY
    *0-0-0/w STRC(144)   r     1 PT_NUMBER                  5-0-0/w SBIN        r     1 SBIN_VALUE
     6-0-0/w PTR         r     1 SYM_INT$                   7-0-0/w SBIN        r     1 X

  ****  SYMREF variables  ****

  ****  Scalars and arrays  ****
OctLoc.c.b A Datatyp(siz) R M Lvl/name                 OctLoc.c.b A Datatyp(siz) R M Lvl/name

     0-0-0/w STRC(22644) r     1 VD_6E

  ****  BASED and DCB variables  ****

  ****  Scalars and arrays  ****
OctLoc.c.b A Datatyp(siz) R M Lvl/name                 OctLoc.c.b A Datatyp(siz) R M Lvl/name

     0-0-0/w ASTR(153)   r     1 SYM$INT                    0-0-0/w STRC(180)   r     1 VD$ERR


   Procedure VDE$PNUMERIC_KEY requires 94 words for executable code.
   Procedure VDE$PNUMERIC_KEY requires 12 words of local(AUTO) storage.
PL6.E3A0      #005=VDE$PNUMERIC_KEY File=VDE$PARSE.:VDA5TSI                      FRI 07/04/97 11:15 Page:377
          *** CROSS REFERENCE LISTING ***
**     DENOTES     IDENTIFIER DEFINITION
<<                 IDENTIFIER'S VALUE SET
>>                 IDENTIFIER'S VALUE USED
<>                 IDENTIFIER SET AND/OR USED
--                 IDENTIFIER REFERENCED
PL6.E3A0      #005=VDE$PNUMERIC_KEY File=VDE$PARSE.:VDA5TSI                      FRI 07/04/97 11:15 Page:378
          MINI XREF LISTING

CONSEC_KEY_TOO_BIG_FAILURE
      5826**LABEL    5821--GOTO
ERR_CODE
      5707**DCL      5840<<ASSIGN   5845<<ASSIGN   5850<<ASSIGN   5856<>CALL
FRACTMULT
      5706**DCL      5832>>ASSIGN
ILL_EDITKEY_FRACT_FAILURE
      5850**LABEL    5831--GOTO
ILL_NUMKEY_INTEGER_FAILURE
      5845**LABEL    5819--GOTO
KEY
      5653**DCL        46--PROC     5804<<ASSIGN   5855<<ASSIGN
KEY.BYTES#
      5657**DCL      5822<<ASSIGN   5826<<ASSIGN   5832<<ASSIGN   5832>>ASSIGN
KEY.LENGTH#
      5657**DCL      5807<<ASSIGN
KEY.REP#
      5657**DCL      5806<<ASSIGN
KEY.TYPE#
      5657**DCL      5805<<ASSIGN   5823<<ASSIGN
PT_NUMBER
      5606**DCL        46--PROC
PT_NUMBER.CPOS
      5632**DCL      5857>>ASSIGN
PT_NUMBER.NSUBLKS
      5618**DCL      5809>>DOINDEX  5818>>IF
PT_NUMBER.SUBLK$
      5639**DCL      5810>>ASSIGN
SBIN_VALUE
      5703**DCL      5815<<CALLBLT  5820>>IF       5822>>ASSIGN   5826>>ASSIGN   5832>>ASSIGN
SERIOUS_ERROR
      5855**LABEL    5841--GOTO     5846--GOTO     5851--GOTO
PL6.E3A0      #005=VDE$PNUMERIC_KEY File=VDE$PARSE.:VDA5TSI                      FRI 07/04/97 11:15 Page:379
SYM$INT.CODE
      5723**DCL      5812>>ASSIGN   5812>>ASSIGN   5816>>IF
SYM$INT.COUNT
      5740**DCL      5743--IMP-SIZ  5815>>CALLBLT  5817>>IF       5820>>IF       5830>>IF       5832>>ASSIGN
SYM$INT.TEXT
      5743**DCL      5815>>CALLBLT
SYM_INT$
      5704**DCL      5717--IMP-PTR  5810<<ASSIGN   5812>>ASSIGN   5812>>ASSIGN   5815>>CALLBLT  5815>>CALLBLT
      5816>>IF       5817>>IF       5820>>IF       5830>>IF       5832>>ASSIGN
VD$ERR.CMDLINE_INDEX#
      5798**DCL      5857<<ASSIGN
VDG$ERRMSG
      5662**DCL-ENT  5856--CALL
VD_6E.ERR_TAIL$
      5697**DCL      5756--IMP-PTR  5857>>ASSIGN
VD_6E.STATS_TOKENS#
      5699**DCL      5812<<ASSIGN   5812>>ASSIGN
X
      5705**DCL      5809<<DOINDEX  5810>>ASSIGN

PL6.E3A0      #006=VDE$PFILE_TO_EDIT File=VDE$PARSE.:VDA5TSI                     FRI 07/04/97 11:15 Page:380
     3134        1        /*T***********************************************************/
     3135        2        /*T*                                                         */
     3136        3        /*T* Copyright (c) Bull HN Information Systems Inc., 1997    */
     3137        4        /*T*                                                         */
     3138        5        /*T***********************************************************/
     3139        6
     3140        7        /*D* NAME: VDE$PFILE_TO_EDIT
     3141        8            PARAMETERS:
     3142        9                FID - VD$TEXTC containing the fid of the file to edit.
     3143       10                FILE_KEY - Uninitialized VD$KEY.
     3144       11                RANGE - Optional param; if given, should be an uninitialized VD$RANGE.
     3145       12            INPUT:
     3146       13            OUTPUT:
     3147       14                FILE_KEY will refer to a VD$FILE_KEY specifying the fid.
     3148       15                RANGE (if passed) will be set to BOF thru EOF.
     3149       16            DESCRIPTION:
     3150       17                M$FID the fid into its constituent parts.  Build a VD$FILE_KEY
     3151       18                for them, and setup FILE_KEY to refer to the VD$FILE_KEY.
     3152       19                If RANGE was passed, initialize it to specify BOF thru EOF.
     3153       20        */
     3154       21
     3155       22        VDE$PFILE_TO_EDIT: PROC (FID, FILE_KEY, RANGE) ALTRET;
     3156       23
     3157       24        %INCLUDE VD_MACROS_M;
     3158     2239        %INCLUDE VD_PERR_C;
     3159     2387        %INCLUDE CP_6;
     3160     2468        %INCLUDE CP_6_SUBS;
     3161     3008    1   DCL B$JIT$ PTR SYMREF;
     3162     3009        %INCLUDE B$JIT;
     3163     3299
     3164     3300
     3165     3301        %VD$TEXTC (NAME=FID, STCLASS=PARAM);
     3166     3324        %VD$KEY (NAME=FILE_KEY, STCLASS=PARAM);
     3167     3338        %VD$RANGE (NAME=RANGE, STCLASS=PARAM);
     3168     3407
     3169     3408
     3170     3409    1   DCL VDG$OALLOC          ENTRY (3) ALTRET;
PL6.E3A0      #006=VDE$PFILE_TO_EDIT File=VDE$PARSE.:VDA5TSI                     FRI 07/04/97 11:15 Page:381
     3171     3410    1   DCL VDG$OFREE           ENTRY (1) ALTRET;
     3172     3411
     3173     3412
     3174     3413        %VD$KEY (NAME=VD_KEY_NUMERIC_BOF, STCLASS=SYMREF);
     3175     3427    1   DCL B$TCB$ PTR SYMREF;
     3176     3428
     3177     3429
     3178     3430
     3179     3431    1   DCL FILE_KEY$ PTR;
     3180     3432        %FPT_FID (STCLASS=AUTO);
     3181     3455        %VLP_SN (STCLASS=AUTO);
     3182     3468        %VLP_WSN (STCLASS=AUTO);
     3183     3481    1   DCL VD_ERR$ PTR;
     3184     3482    1   DCL ERR_SUBST$ PTR;
     3185     3483
     3186     3484
     3187     3485        %VD$FILE_KEY (NAME=FILE$KEY, STCLASS="BASED(FILE_KEY$)");
     3188     3534        %VD$ERR (NAME=VD$ERR, STCLASS="BASED(VD_ERR$)");
     3189     3587        %VD$POINTER (NAME=SUBST$POINTER, DIM="(0:2)", STCLASS="BASED(ERR_SUBST$)");
     3190     3632        %B$TCB (NAME=B$TCB, STCLASS="BASED(B$TCB$)");
     3191     3635        %B$ALT;
     3192     3643
     3193     3644
     3194     3645
     3195     3646    1           FILE_KEY = %CLEAR;
     3196     3647    1           FILE_KEY.TYPE# = %KT_STRING;
     3197     3648    1           FILE_KEY.REP# = %REP_REMOTE;
     3198     3649    1           CALL VDG$OALLOC (%CLS_FILE_KEY, FILE_KEY.V$)
     3199     3650    1             ALTRET (OALLOC_FAILED);
     3200     3651    1           FILE_KEY$ = FILE_KEY.V$;
     3201     3652
     3202     3653    1           FPT_FID = %CLEAR;
     3203     3654    1           FPT_FID.V_ = VECTOR(FPT_FID.V);
     3204     3655    1           FPT_FID.RESULTS_ = VECTOR(NIL);
     3205     3656    1           FPT_FID.TEXTFID_ = VECTOR(FID.BYTES);
     3206     3657    1           FPT_FID.NAME_ = VECTOR(FILE$KEY.UNIQUE.FNAME);
     3207     3658    1           FPT_FID.ACCT_ = VECTOR(FILE$KEY.UNIQUE.ACCT);
PL6.E3A0      #006=VDE$PFILE_TO_EDIT File=VDE$PARSE.:VDA5TSI                     FRI 07/04/97 11:15 Page:382
     3208     3659    1           FPT_FID.PASS_ = VECTOR(FILE$KEY.PASS);
     3209     3660    1           FPT_FID.SN_ = VECTOR(VLP_SN);
     3210     3661    1           VLP_SN = %CLEAR;
     3211     3662    1           VLP_SN.NUM# = 1;
     3212     3663    1           FPT_FID.WSN_ = VECTOR(VLP_WSN);
     3213     3664    1           FPT_FID.ASN_ = VECTOR(FILE$KEY.ASN#);
     3214     3665    1           FPT_FID.RES_ = VECTOR(FILE$KEY.RES);
     3215     3666    1           FPT_FID.V.SCRUB.SNAME# = %TRUE;
     3216     3667    1           FPT_FID.V.SCRUB.SACCT# = %TRUE;
     3217     3668    1           FPT_FID.V.SCRUB.SPASS# = %TRUE;
     3218     3669    1           FPT_FID.V.SCRUB.SSN# = %TRUE;
     3219     3670    1           FPT_FID.V.SCRUB.SRES# = %TRUE;
     3220     3671
     3221     3672    1           CALL M$FID (FPT_FID)
     3222     3673    1             ALTRET (FID_FAILED);
     3223     3674
     3224     3675    1           IF FILE$KEY.ASN# ~= %FILE# THEN
     3225     3676    1              GOTO BAD_FILE_ASN_FAILURE;
     3226     3677
     3227     3678    1           FILE$KEY.PSN = VLP_SN.SN# (0);
     3228     3679    2           IF FILE$KEY.UNIQUE.ACCT = ' ' THEN DO;
     3229     3680    2              IF FILE$KEY.UNIQUE.FNAME.LENGTH# >= 1
     3230     3681    2                AND SUBSTR(FILE$KEY.UNIQUE.FNAME.BYTES, 0, 1) =
     3231     3682    2                %CHR_TEMP_FILE THEN
     3232     3683    2                 FILE$KEY.UNIQUE.ACCT = B$JIT.ACCN;
     3233     3684    2              ELSE
     3234     3685    2                 FILE$KEY.UNIQUE.ACCT = B$JIT.FACCN;
     3235     3686    2              IF FILE$KEY.PSN = ' ' THEN
     3236     3687    2                 FILE$KEY.PSN = B$JIT.FPSN;
     3237     3688    2              END;
     3238     3689
     3239     3690    1           FILE$KEY.LENGTH# = LENGTHC(FILE$KEY.UNIQUE.ACCT) +
     3240     3691    1             LENGTHC(FILE$KEY.UNIQUE.FNAME.LENGTH#) +
     3241     3692    1             FILE$KEY.UNIQUE.FNAME.LENGTH#;
     3242     3693
     3243     3694    2           IF ADDR(RANGE) ~= ADDR(NIL) THEN DO;
     3244     3695    2              RANGE = %CLEAR;
PL6.E3A0      #006=VDE$PFILE_TO_EDIT File=VDE$PARSE.:VDA5TSI                     FRI 07/04/97 11:15 Page:383
     3245     3696                   /*N*
     3246     3697                   *N*  Need some way of determining--now or later--whether
     3247     3698                   *N*    the file's keys are numeric or string, 'cause
     3248     3699                   *N*    BOF is represented differently in the two cases.
     3249     3700                   *N*  For now, assume numeric.
     3250     3701                   *N*/
     3251     3702    2              RANGE.START.KEY (%LVL_LOWER-1) = VD_KEY_NUMERIC_BOF;
     3252     3703    2              RANGE.ENDD.EOF = %TRUE;
     3253     3704    2              END;
     3254     3705
     3255     3706    1           RETURN;
     3256     3707
     3257     3708
     3258     3709
     3259     3710    1   FID_FAILED:
     3260     3711    1           CALL VDG$OALLOC (%CLS_ERR, VD_ERR$)
     3261     3712    1             ALTRET (OALLOC_FAILED);
     3262     3713    1           VD$ERR.ERR = B$TCB.ALT$->B$ALT.ERR;
     3263     3714    1           VD$ERR.FLAGLEV# = %FLV_SERIOUS;
     3264     3715    1           GOTO FREE_OBJECTS;
     3265     3716
     3266     3717
     3267     3718    1   BAD_FILE_ASN_FAILURE:
     3268     3719    1           CALL VDG$OALLOC (%CLS_ERR, VD_ERR$)
     3269     3720    1             ALTRET (OALLOC_FAILED);
     3270     3721    1           VD$ERR.ERR.CODE# = %E$FILE_ASN_NOT_ACCESSABLE;
     3271     3722    1           VD$ERR.FLAGLEV# = %FLV_SERIOUS;
     3272     3723    1           ERR_SUBST$ = PINCRW(VD_ERR$, LENGTHW(VD$ERR));
     3273     3724    1           SUBST$POINTER.OBJECT.CLASS# (0) = %CLS_PTR_TEXTC;
     3274     3725    1           SUBST$POINTER.V$ (0) = ADDR(FID);
     3275     3726    1           GOTO FREE_OBJECTS;
     3276     3727
     3277     3728
     3278     3729    1   FREE_OBJECTS:
     3279     3730    1           FILE_KEY = %CLEAR;
     3280     3731    1           CALL VDG$OFREE (FILE$KEY)
     3281     3732    1             ALTRET (OFREE_FAILED);
PL6.E3A0      #006=VDE$PFILE_TO_EDIT File=VDE$PARSE.:VDA5TSI                     FRI 07/04/97 11:15 Page:384
     3282     3733    1           ALTRETURN;
     3283     3734
     3284     3735
     3285     3736    1   OALLOC_FAILED: ;
     3286     3737    1   OFREE_FAILED: ;
     3287     3738    1           ALTRETURN;
     3288     3739
     3289     3740    1   END VDE$PFILE_TO_EDIT;
     3290     3741        %EOD;

PL6.E3A0      #006=VDE$PFILE_TO_EDIT File=VDE$PARSE.:VDA5TSI                     FRI 07/04/97 11:15 Page:385
--  Include file information  --

   B$JIT.:LIBRARY  cannot be made into a system file and is referenced.
   CP_6_SUBS.:LIBRARY  is referenced.
   CP_6.:LIBRARY  cannot be made into a system file and is referenced.
   VD_PERR_C.:VDA5TOU  is referenced.
   VD_MACROS_M.:VDA5TOU  is referenced.
   B$JIT_C.:E04TOU  was found in the system file and is referenced.
   CP_6_C.:E04TOU  was found in the system file and is referenced.
      No diagnostics issued in procedure VDE$PFILE_TO_EDIT.

   Procedure VDE$PFILE_TO_EDIT requires 190 words for executable code.
   Procedure VDE$PFILE_TO_EDIT requires 42 words of local(AUTO) storage.

PL6.E3A0      #006=VDE$PFILE_TO_EDIT File=VDE$PARSE.:VDA5TSI                     FRI 07/04/97 11:15 Page:386

 Object Unit name= VDE$PFILE_TO_EDIT                          File name= VDE$PARSE.:VDA5TOU
 UTS= JUL 04 '97 11:15:41.32 FRI                              Compiler= PL-6/E31         Sev=      00
 SharedLib= :SHARED_SYSTEM                                    Alt SharedLib=


    ****  Control sections  ****

 Sect   Type Bound  Init  Size OctSiz  Section name(segment info)
    0   DCB   even  none     0      0  M$UC
    1   Proc  even  none   190    276  VDE$PFILE_TO_EDIT
    2  RoData even  none    13     15  VDE$PFILE_TO_EDIT

    ****  Entry defs  ****

                              Check   Calling
                             calling  sequence
  Sect OctLoc Primary Altret sequence   type   Parms  Name
     1      0   yes    yes     yes      Std        3  VDE$PFILE_TO_EDIT

  ****  Entry refs  ****

         Check        Calling
        calling       sequence
Altret sequence SRef   type   Args  Name
 yes     yes           Std       3 VDG$OALLOC
 yes     yes           Std       1 VDG$OFREE
                       nStd      0 X66_AUTO_3
                       Std       0 B_CONSPOOL_D
                       nStd      0 X66_ARET
                       nStd      0 X66_AALT
PL6.E3A0      #006=VDE$PFILE_TO_EDIT File=VDE$PARSE.:VDA5TSI                     FRI 07/04/97 11:15 Page:387

  ****  Data refs  ****

  Flags:  r = read only, s = secondary
Flgs Name                             Flgs Name                             Flgs Name
     M$UC                                  B$JIT$                                VD_KEY_NUMERIC_BOF
     B$TCB$                                B_VECTNIL

  ****  Segment refs  ****

  Flags:  r = read only, s = secondary
Flgs Name                             Flgs Name                             Flgs Name
     NULLSID                               ISSID
PL6.E3A0      #006=VDE$PFILE_TO_EDIT File=VDE$PARSE.:VDA5TSI                     FRI 07/04/97 11:15 Page:388


     3134        1        /*T***********************************************************/
     3135        2        /*T*                                                         */
     3136        3        /*T* Copyright (c) Bull HN Information Systems Inc., 1997    */
     3137        4        /*T*                                                         */
     3138        5        /*T***********************************************************/
     3139        6
     3140        7        /*D* NAME: VDE$PFILE_TO_EDIT
     3141        8            PARAMETERS:
     3142        9                FID - VD$TEXTC containing the fid of the file to edit.
     3143       10                FILE_KEY - Uninitialized VD$KEY.
     3144       11                RANGE - Optional param; if given, should be an uninitialized VD$RANGE.
     3145       12            INPUT:
     3146       13            OUTPUT:
     3147       14                FILE_KEY will refer to a VD$FILE_KEY specifying the fid.
     3148       15                RANGE (if passed) will be set to BOF thru EOF.
     3149       16            DESCRIPTION:
     3150       17                M$FID the fid into its constituent parts.  Build a VD$FILE_KEY
     3151       18                for them, and setup FILE_KEY to refer to the VD$FILE_KEY.
     3152       19                If RANGE was passed, initialize it to specify BOF thru EOF.
     3153       20        */
     3154       21
     3155       22        VDE$PFILE_TO_EDIT: PROC (FID, FILE_KEY, RANGE) ALTRET;

     22  1 000000   000000 700200 xent  VDE$PFILE_T* TSX0  ! X66_AUTO_3
         1 000001   000052 000003                    ZERO    42,3

     3156       23
     3157       24        %INCLUDE VD_MACROS_M;
     3158     2239        %INCLUDE VD_PERR_C;
     3159     2387        %INCLUDE CP_6;
     3160     2468        %INCLUDE CP_6_SUBS;
     3161     3008    1   DCL B$JIT$ PTR SYMREF;
     3162     3009        %INCLUDE B$JIT;
     3163     3299
     3164     3300
     3165     3301        %VD$TEXTC (NAME=FID, STCLASS=PARAM);
PL6.E3A0      #006=VDE$PFILE_TO_EDIT File=VDE$PARSE.:VDA5TSI                     FRI 07/04/97 11:15 Page:389
     3166     3324        %VD$KEY (NAME=FILE_KEY, STCLASS=PARAM);
     3167     3338        %VD$RANGE (NAME=RANGE, STCLASS=PARAM);
     3168     3407
     3169     3408
     3170     3409    1   DCL VDG$OALLOC          ENTRY (3) ALTRET;
     3171     3410    1   DCL VDG$OFREE           ENTRY (1) ALTRET;
     3172     3411
     3173     3412
     3174     3413        %VD$KEY (NAME=VD_KEY_NUMERIC_BOF, STCLASS=SYMREF);
     3175     3427    1   DCL B$TCB$ PTR SYMREF;
     3176     3428
     3177     3429
     3178     3430
     3179     3431    1   DCL FILE_KEY$ PTR;
     3180     3432        %FPT_FID (STCLASS=AUTO);
     3181     3455        %VLP_SN (STCLASS=AUTO);
     3182     3468        %VLP_WSN (STCLASS=AUTO);
     3183     3481    1   DCL VD_ERR$ PTR;
     3184     3482    1   DCL ERR_SUBST$ PTR;
     3185     3483
     3186     3484
     3187     3485        %VD$FILE_KEY (NAME=FILE$KEY, STCLASS="BASED(FILE_KEY$)");
     3188     3534        %VD$ERR (NAME=VD$ERR, STCLASS="BASED(VD_ERR$)");
     3189     3587        %VD$POINTER (NAME=SUBST$POINTER, DIM="(0:2)", STCLASS="BASED(ERR_SUBST$)");
     3190     3632        %B$TCB (NAME=B$TCB, STCLASS="BASED(B$TCB$)");
     3191     3635        %B$ALT;
     3192     3643
     3193     3644
     3194     3645
     3195     3646    1           FILE_KEY = %CLEAR;

   3646  1 000002   200004 470500                    LDP0    @FILE_KEY,,AUTO
         1 000003   000000 450100                    STZ     0,,PR0
         1 000004   000001 450100                    STZ     1,,PR0

     3196     3647    1           FILE_KEY.TYPE# = %KT_STRING;

PL6.E3A0      #006=VDE$PFILE_TO_EDIT File=VDE$PARSE.:VDA5TSI                     FRI 07/04/97 11:15 Page:390
   3647  1 000005   000002 220003                    LDX0    2,DU
         1 000006   000000 740100                    STX0    0,,PR0

     3197     3648    1           FILE_KEY.REP# = %REP_REMOTE;

   3648  1 000007   000000 440100                    SXL0    0,,PR0

     3198     3649    1           CALL VDG$OALLOC (%CLS_FILE_KEY, FILE_KEY.V$)

   3649  1 000010   200004 236100                    LDQ     @FILE_KEY,,AUTO
         1 000011   000001 036003                    ADLQ    1,DU
         1 000012   000001 235000 2                  LDA     1
         1 000013   200050 757100                    STAQ    ERR_SUBST$+1,,AUTO
         1 000014   200050 630500                    EPPR0   ERR_SUBST$+1,,AUTO
         1 000015   000020 631400 xsym               EPPR1   B_VECTNIL+16
         1 000016   000000 701000 xent               TSX1    VDG$OALLOC
         1 000017   000275 702000 1                  TSX2    OALLOC_FAILED

     3199     3650    1             ALTRET (OALLOC_FAILED);
     3200     3651    1           FILE_KEY$ = FILE_KEY.V$;

   3651  1 000020   200004 470500                    LDP0    @FILE_KEY,,AUTO
         1 000021   000001 236100                    LDQ     1,,PR0
         1 000022   200006 756100                    STQ     FILE_KEY$,,AUTO

     3201     3652
     3202     3653    1           FPT_FID = %CLEAR;

   3653  1 000023   000100 100400                    MLR     fill='000'O
         1 000024   000002 000001 xsym               ADSC9   B_VECTNIL+2              cn=0,n=1
         1 000025   200010 000140                    ADSC9   FPT_FID,,AUTO            cn=0,n=96

     3203     3654    1           FPT_FID.V_ = VECTOR(FPT_FID.V);

   3654  1 000026   000002 235000 2                  LDA     2
         1 000027   200050 452500                    STP2    ERR_SUBST$+1,,AUTO
         1 000030   200050 236100                    LDQ     ERR_SUBST$+1,,AUTO
PL6.E3A0      #006=VDE$PFILE_TO_EDIT File=VDE$PARSE.:VDA5TSI                     FRI 07/04/97 11:15 Page:391
         1 000031   000034 036003                    ADLQ    28,DU
         1 000032   200010 757100                    STAQ    FPT_FID,,AUTO

     3204     3655    1           FPT_FID.RESULTS_ = VECTOR(NIL);

   3655  1 000033   000004 237000 2                  LDAQ    4
         1 000034   200032 757100                    STAQ    FPT_FID+18,,AUTO

     3205     3656    1           FPT_FID.TEXTFID_ = VECTOR(FID.BYTES);

   3656  1 000035   200003 471500                    LDP1    @FID,,AUTO
         1 000036   100000 236100                    LDQ     0,,PR1
         1 000037   000033 772000                    QRL     27
         1 000040   000064 737000                    LLS     52
         1 000041   000140 135007                    SBLA    96,DL
         1 000042   200003 236100                    LDQ     @FID,,AUTO
         1 000043   200000 036007                    ADLQ    65536,DL
         1 000044   200012 757100                    STAQ    FPT_FID+2,,AUTO

     3206     3657    1           FPT_FID.NAME_ = VECTOR(FILE$KEY.UNIQUE.FNAME);

   3657  1 000045   000003 235000 2                  LDA     3
         1 000046   200006 236100                    LDQ     FILE_KEY$,,AUTO
         1 000047   000006 036000 2                  ADLQ    6
         1 000050   200014 757100                    STAQ    FPT_FID+4,,AUTO

     3207     3658    1           FPT_FID.ACCT_ = VECTOR(FILE$KEY.UNIQUE.ACCT);

   3658  1 000051   000007 235000 2                  LDA     7
         1 000052   200006 236100                    LDQ     FILE_KEY$,,AUTO
         1 000053   000010 036000 2                  ADLQ    8
         1 000054   200016 757100                    STAQ    FPT_FID+6,,AUTO

     3208     3659    1           FPT_FID.PASS_ = VECTOR(FILE$KEY.PASS);

   3659  1 000055   000007 235000 2                  LDA     7
         1 000056   200006 236100                    LDQ     FILE_KEY$,,AUTO
PL6.E3A0      #006=VDE$PFILE_TO_EDIT File=VDE$PARSE.:VDA5TSI                     FRI 07/04/97 11:15 Page:392
         1 000057   000017 036003                    ADLQ    15,DU
         1 000060   200020 757100                    STAQ    FPT_FID+8,,AUTO

     3209     3660    1           FPT_FID.SN_ = VECTOR(VLP_SN);

   3660  1 000061   000002 235000 2                  LDA     2
         1 000062   200050 452500                    STP2    ERR_SUBST$+1,,AUTO
         1 000063   200050 236100                    LDQ     ERR_SUBST$+1,,AUTO
         1 000064   000040 036003                    ADLQ    32,DU
         1 000065   200022 757100                    STAQ    FPT_FID+10,,AUTO

     3210     3661    1           VLP_SN = %CLEAR;

   3661  1 000066   000100 100400                    MLR     fill='000'O
         1 000067   000002 000001 xsym               ADSC9   B_VECTNIL+2              cn=0,n=1
         1 000070   200040 000012                    ADSC9   VLP_SN,,AUTO             cn=0,n=10

     3211     3662    1           VLP_SN.NUM# = 1;

   3662  1 000071   000001 235007                    LDA     1,DL
         1 000072   200040 755100                    STA     VLP_SN,,AUTO

     3212     3663    1           FPT_FID.WSN_ = VECTOR(VLP_WSN);

   3663  1 000073   000007 235000 2                  LDA     7
         1 000074   200050 452500                    STP2    ERR_SUBST$+1,,AUTO
         1 000075   200050 236100                    LDQ     ERR_SUBST$+1,,AUTO
         1 000076   000044 036003                    ADLQ    36,DU
         1 000077   200024 757100                    STAQ    FPT_FID+12,,AUTO

     3213     3664    1           FPT_FID.ASN_ = VECTOR(FILE$KEY.ASN#);

   3664  1 000100   177640 235007                    LDA     65440,DL
         1 000101   200006 236100                    LDQ     FILE_KEY$,,AUTO
         1 000102   000011 036000 2                  ADLQ    9
         1 000103   200026 757100                    STAQ    FPT_FID+14,,AUTO

PL6.E3A0      #006=VDE$PFILE_TO_EDIT File=VDE$PARSE.:VDA5TSI                     FRI 07/04/97 11:15 Page:393
     3214     3665    1           FPT_FID.RES_ = VECTOR(FILE$KEY.RES);

   3665  1 000104   777640 235007                    LDA     -96,DL
         1 000105   200006 236100                    LDQ     FILE_KEY$,,AUTO
         1 000106   000012 036000 2                  ADLQ    10
         1 000107   200030 757100                    STAQ    FPT_FID+16,,AUTO

     3215     3666    1           FPT_FID.V.SCRUB.SNAME# = %TRUE;

   3666  1 000110   400000 236003                    LDQ     -131072,DU
         1 000111   200034 256100                    ORSQ    FPT_FID+20,,AUTO

     3216     3667    1           FPT_FID.V.SCRUB.SACCT# = %TRUE;

   3667  1 000112   200000 236003                    LDQ     65536,DU
         1 000113   200034 256100                    ORSQ    FPT_FID+20,,AUTO

     3217     3668    1           FPT_FID.V.SCRUB.SPASS# = %TRUE;

   3668  1 000114   100000 236003                    LDQ     32768,DU
         1 000115   200034 256100                    ORSQ    FPT_FID+20,,AUTO

     3218     3669    1           FPT_FID.V.SCRUB.SSN# = %TRUE;

   3669  1 000116   040000 236003                    LDQ     16384,DU
         1 000117   200034 256100                    ORSQ    FPT_FID+20,,AUTO

     3219     3670    1           FPT_FID.V.SCRUB.SRES# = %TRUE;

   3670  1 000120   010000 236003                    LDQ     4096,DU
         1 000121   200034 256100                    ORSQ    FPT_FID+20,,AUTO

     3220     3671
     3221     3672    1           CALL M$FID (FPT_FID)

   3672  1 000122   200010 630500                    EPPR0   FPT_FID,,AUTO
         1 000123   420001 713400                    CLIMB   alt,+8193
PL6.E3A0      #006=VDE$PFILE_TO_EDIT File=VDE$PARSE.:VDA5TSI                     FRI 07/04/97 11:15 Page:394
         1 000124   404400 401760                    pmme    nvectors=10
         1 000125   000213 702000 1                  TSX2    FID_FAILED

     3222     3673    1             ALTRET (FID_FAILED);
     3223     3674
     3224     3675    1           IF FILE$KEY.ASN# ~= %FILE# THEN

   3675  1 000126   200006 470500                    LDP0    FILE_KEY$,,AUTO
         1 000127   000014 236100                    LDQ     12,,PR0
         1 000130   000777 376003                    ANQ     511,DU
         1 000131   000001 116003                    CMPQ    1,DU
         1 000132   000234 601000 1                  TNZ     BAD_FILE_ASN_FAILURE

     3225     3676    1              GOTO BAD_FILE_ASN_FAILURE;
     3226     3677
     3227     3678    1           FILE$KEY.PSN = VLP_SN.SN# (0);

   3678  1 000133   040100 100500                    MLR     fill='040'O
         1 000134   200041 000006                    ADSC9   VLP_SN+1,,AUTO           cn=0,n=6
         1 000135   000015 400006                    ADSC9   13,,PR0                  cn=2,n=6

     3228     3679    2           IF FILE$KEY.UNIQUE.ACCT = ' ' THEN DO;

   3679  1 000136   040000 106500                    CMPC    fill='040'O
         1 000137   000002 200010                    ADSC9   2,,PR0                   cn=1,n=8
         1 000140   000035 000001 xsym               ADSC9   B_VECTNIL+29             cn=0,n=1
         1 000141   000170 601000 1                  TNZ     s:3690

     3229     3680    2              IF FILE$KEY.UNIQUE.FNAME.LENGTH# >= 1

   3680  1 000142   000004 236100                    LDQ     4,,PR0
         1 000143   000777 316003                    CANQ    511,DU
         1 000144   000155 600000 1                  TZE     s:3685
         1 000145   777000 376007                    ANQ     -512,DL
         1 000146   052000 116007                    CMPQ    21504,DL
         1 000147   000155 601000 1                  TNZ     s:3685

PL6.E3A0      #006=VDE$PFILE_TO_EDIT File=VDE$PARSE.:VDA5TSI                     FRI 07/04/97 11:15 Page:395
     3230     3681    2                AND SUBSTR(FILE$KEY.UNIQUE.FNAME.BYTES, 0, 1) =
     3231     3682    2                %CHR_TEMP_FILE THEN
     3232     3683    2                 FILE$KEY.UNIQUE.ACCT = B$JIT.ACCN;

   3683  1 000150   000000 471400 xsym               LDP1    B$JIT$
         1 000151   040100 100500                    MLR     fill='040'O
         1 000152   100001 000010                    ADSC9   1,,PR1                   cn=0,n=8
         1 000153   000002 200010                    ADSC9   2,,PR0                   cn=1,n=8
         1 000154   000161 710000 1                  TRA     s:3686

     3233     3684    2              ELSE
     3234     3685    2                 FILE$KEY.UNIQUE.ACCT = B$JIT.FACCN;

   3685  1 000155   000000 471400 xsym               LDP1    B$JIT$
         1 000156   040100 100500                    MLR     fill='040'O
         1 000157   100006 000010                    ADSC9   6,,PR1                   cn=0,n=8
         1 000160   000002 200010                    ADSC9   2,,PR0                   cn=1,n=8

     3235     3686    2              IF FILE$KEY.PSN = ' ' THEN

   3686  1 000161   040000 106500                    CMPC    fill='040'O
         1 000162   000015 400006                    ADSC9   13,,PR0                  cn=2,n=6
         1 000163   000035 000001 xsym               ADSC9   B_VECTNIL+29             cn=0,n=1
         1 000164   000170 601000 1                  TNZ     s:3690

     3236     3687    2                 FILE$KEY.PSN = B$JIT.FPSN;

   3687  1 000165   040100 100500                    MLR     fill='040'O
         1 000166   100021 000006                    ADSC9   17,,PR1                  cn=0,n=6
         1 000167   000015 400006                    ADSC9   13,,PR0                  cn=2,n=6

     3237     3688    2              END;

     3238     3689
     3239     3690    1           FILE$KEY.LENGTH# = LENGTHC(FILE$KEY.UNIQUE.ACCT) +

   3690  1 000170   000004 236100                    LDQ     4,,PR0
PL6.E3A0      #006=VDE$PFILE_TO_EDIT File=VDE$PARSE.:VDA5TSI                     FRI 07/04/97 11:15 Page:396
         1 000171   000022 772000                    QRL     18
         1 000172   000777 376007                    ANQ     511,DL
         1 000173   000011 036007                    ADLQ    9,DL
         1 000174   000033 736000                    QLS     27
         1 000175   000002 552140                    STBQ    2,'40'O,PR0

     3240     3691    1             LENGTHC(FILE$KEY.UNIQUE.FNAME.LENGTH#) +
     3241     3692    1             FILE$KEY.UNIQUE.FNAME.LENGTH#;
     3242     3693
     3243     3694    2           IF ADDR(RANGE) ~= ADDR(NIL) THEN DO;

   3694  1 000176   200005 236100                    LDQ     @RANGE,,AUTO
         1 000177   000001 116000 xsym               CMPQ    B_VECTNIL+1
         1 000200   000212 600000 1                  TZE     s:3706

     3244     3695    2              RANGE = %CLEAR;

   3695  1 000201   200005 471500                    LDP1    @RANGE,,AUTO
         1 000202   000100 100400                    MLR     fill='000'O
         1 000203   000002 000001 xsym               ADSC9   B_VECTNIL+2              cn=0,n=1
         1 000204   100000 000110                    ADSC9   0,,PR1                   cn=0,n=72

     3245     3696                   /*N*
     3246     3697                   *N*  Need some way of determining--now or later--whether
     3247     3698                   *N*    the file's keys are numeric or string, 'cause
     3248     3699                   *N*    BOF is represented differently in the two cases.
     3249     3700                   *N*  For now, assume numeric.
     3250     3701                   *N*/
     3251     3702    2              RANGE.START.KEY (%LVL_LOWER-1) = VD_KEY_NUMERIC_BOF;

   3702  1 000205   000100 100400                    MLR     fill='000'O
         1 000206   000000 000010 xsym               ADSC9   VD_KEY_NUMERIC_BOF       cn=0,n=8
         1 000207   100000 000010                    ADSC9   0,,PR1                   cn=0,n=8

     3252     3703    2              RANGE.ENDD.EOF = %TRUE;

   3703  1 000210   400000 236007                    LDQ     -131072,DL
PL6.E3A0      #006=VDE$PFILE_TO_EDIT File=VDE$PARSE.:VDA5TSI                     FRI 07/04/97 11:15 Page:397
         1 000211   100021 256100                    ORSQ    17,,PR1

     3253     3704    2              END;

     3254     3705
     3255     3706    1           RETURN;

   3706  1 000212   000000 702200 xent               TSX2  ! X66_ARET

     3256     3707
     3257     3708
     3258     3709
     3259     3710    1   FID_FAILED:
     3260     3711    1           CALL VDG$OALLOC (%CLS_ERR, VD_ERR$)

   3711  1 000213   200046 630500       FID_FAILED   EPPR0   VD_ERR$,,AUTO
         1 000214   200051 450500                    STP0    ERR_SUBST$+2,,AUTO
         1 000215   000013 236000 2                  LDQ     11
         1 000216   200050 756100                    STQ     ERR_SUBST$+1,,AUTO
         1 000217   200050 630500                    EPPR0   ERR_SUBST$+1,,AUTO
         1 000220   000020 631400 xsym               EPPR1   B_VECTNIL+16
         1 000221   000000 701000 xent               TSX1    VDG$OALLOC
         1 000222   000275 702000 1                  TSX2    OALLOC_FAILED

     3261     3712    1             ALTRET (OALLOC_FAILED);
     3262     3713    1           VD$ERR.ERR = B$TCB.ALT$->B$ALT.ERR;

   3713  1 000223   000000 470400 xsym               LDP0    B$TCB$
         1 000224   000000 471500                    LDP1    0,,PR0
         1 000225   100102 236100                    LDQ     66,,PR1
         1 000226   200046 473500                    LDP3    VD_ERR$,,AUTO
         1 000227   300002 756100                    STQ     2,,PR3

     3263     3714    1           VD$ERR.FLAGLEV# = %FLV_SERIOUS;

   3714  1 000230   000003 220003                    LDX0    3,DU
         1 000231   200046 471500                    LDP1    VD_ERR$,,AUTO
PL6.E3A0      #006=VDE$PFILE_TO_EDIT File=VDE$PARSE.:VDA5TSI                     FRI 07/04/97 11:15 Page:398
         1 000232   100003 740100                    STX0    3,,PR1

     3264     3715    1           GOTO FREE_OBJECTS;

   3715  1 000233   000265 710000 1                  TRA     FREE_OBJECTS

     3265     3716
     3266     3717
     3267     3718    1   BAD_FILE_ASN_FAILURE:
     3268     3719    1           CALL VDG$OALLOC (%CLS_ERR, VD_ERR$)

   3719  1 000234   200046 631500       BAD_FILE_AS* EPPR1   VD_ERR$,,AUTO
         1 000235   200051 451500                    STP1    ERR_SUBST$+2,,AUTO
         1 000236   000013 236000 2                  LDQ     11
         1 000237   200050 756100                    STQ     ERR_SUBST$+1,,AUTO
         1 000240   200050 630500                    EPPR0   ERR_SUBST$+1,,AUTO
         1 000241   000020 631400 xsym               EPPR1   B_VECTNIL+16
         1 000242   000000 701000 xent               TSX1    VDG$OALLOC
         1 000243   000275 702000 1                  TSX2    OALLOC_FAILED

     3269     3720    1             ALTRET (OALLOC_FAILED);
     3270     3721    1           VD$ERR.ERR.CODE# = %E$FILE_ASN_NOT_ACCESSABLE;

   3721  1 000244   200046 470500                    LDP0    VD_ERR$,,AUTO
         1 000245   000002 236100                    LDQ     2,,PR0
         1 000246   000014 376000 2                  ANQ     12
         1 000247   004270 276007                    ORQ     2232,DL
         1 000250   000002 756100                    STQ     2,,PR0

     3271     3722    1           VD$ERR.FLAGLEV# = %FLV_SERIOUS;

   3722  1 000251   000003 220003                    LDX0    3,DU
         1 000252   200046 470500                    LDP0    VD_ERR$,,AUTO
         1 000253   000003 740100                    STX0    3,,PR0

     3272     3723    1           ERR_SUBST$ = PINCRW(VD_ERR$, LENGTHW(VD$ERR));

PL6.E3A0      #006=VDE$PFILE_TO_EDIT File=VDE$PARSE.:VDA5TSI                     FRI 07/04/97 11:15 Page:399
   3723  1 000254   200046 236100                    LDQ     VD_ERR$,,AUTO
         1 000255   000005 036003                    ADLQ    5,DU
         1 000256   200047 756100                    STQ     ERR_SUBST$,,AUTO

     3273     3724    1           SUBST$POINTER.OBJECT.CLASS# (0) = %CLS_PTR_TEXTC;

   3724  1 000257   000045 221003                    LDX1    37,DU
         1 000260   200047 470500                    LDP0    ERR_SUBST$,,AUTO
         1 000261   000000 741100                    STX1    0,,PR0

     3274     3725    1           SUBST$POINTER.V$ (0) = ADDR(FID);

   3725  1 000262   200003 236100                    LDQ     @FID,,AUTO
         1 000263   000003 756100                    STQ     3,,PR0

     3275     3726    1           GOTO FREE_OBJECTS;

   3726  1 000264   000265 710000 1                  TRA     FREE_OBJECTS

     3276     3727
     3277     3728
     3278     3729    1   FREE_OBJECTS:
     3279     3730    1           FILE_KEY = %CLEAR;

   3730  1 000265   200004 470500       FREE_OBJECTS LDP0    @FILE_KEY,,AUTO
         1 000266   000000 450100                    STZ     0,,PR0
         1 000267   000001 450100                    STZ     1,,PR0

     3280     3731    1           CALL VDG$OFREE (FILE$KEY)

   3731  1 000270   200006 630500                    EPPR0   FILE_KEY$,,AUTO
         1 000271   000017 631400 xsym               EPPR1   B_VECTNIL+15
         1 000272   000000 701000 xent               TSX1    VDG$OFREE
         1 000273   000275 702000 1                  TSX2    OALLOC_FAILED

     3281     3732    1             ALTRET (OFREE_FAILED);
     3282     3733    1           ALTRETURN;
PL6.E3A0      #006=VDE$PFILE_TO_EDIT File=VDE$PARSE.:VDA5TSI                     FRI 07/04/97 11:15 Page:400

   3733  1 000274   000000 702200 xent               TSX2  ! X66_AALT

   3725  1 000275                       OALLOC_FAIL* null
   3725  1 000275                       OFREE_FAILED null
     3283     3734
     3284     3735
     3285     3736    1   OALLOC_FAILED: ;
     3286     3737    1   OFREE_FAILED: ;
     3287     3738    1           ALTRETURN;

   3738  1 000275   000000 702200 xent               TSX2  ! X66_AALT
     3288     3739
     3289     3740    1   END VDE$PFILE_TO_EDIT;
     3290     3741        %EOD;

PL6.E3A0      #006=VDE$PFILE_TO_EDIT File=VDE$PARSE.:VDA5TSI                     FRI 07/04/97 11:15 Page:401
--  Include file information  --

   B$JIT.:LIBRARY  cannot be made into a system file and is referenced.
   CP_6_SUBS.:LIBRARY  is referenced.
   CP_6.:LIBRARY  cannot be made into a system file and is referenced.
   VD_PERR_C.:VDA5TOU  is referenced.
   VD_MACROS_M.:VDA5TOU  is referenced.
   B$JIT_C.:E04TOU  was found in the system file and is referenced.
   CP_6_C.:E04TOU  was found in the system file and is referenced.
      No diagnostics issued in procedure VDE$PFILE_TO_EDIT.
PL6.E3A0      #006=VDE$PFILE_TO_EDIT File=VDE$PARSE.:VDA5TSI                     FRI 07/04/97 11:15 Page:402

 **** Variables and constants ****

  ****  Auto variables  ****

  ****  Scalars and arrays  ****
OctLoc.c.b A Datatyp(siz) R M Lvl/name                 OctLoc.c.b A Datatyp(siz) R M Lvl/name

     3-0-0/w PTR         r     1 @FID                       4-0-0/w PTR         r     1 @FILE_KEY
     5-0-0/w PTR         r     1 @RANGE                    47-0-0/w PTR         r     1 ERR_SUBST$
    *0-0-0/w ASTR(9)     r     1 FID                       *0-0-0/w STRC(72)    r     1 FILE_KEY
     6-0-0/w PTR         r     1 FILE_KEY$                 10-0-0/d STRC(864)   r     1 FPT_FID
    *0-0-0/w STRC(648)   r     1 RANGE                     46-0-0/w PTR         r     1 VD_ERR$
    40-0-0/d STRC(90)    r     1 VLP_SN                    44-0-0/c STRC(72)    r     1 VLP_WSN

  ****  SYMREF variables  ****

  ****  Scalars and arrays  ****
OctLoc.c.b A Datatyp(siz) R M Lvl/name                 OctLoc.c.b A Datatyp(siz) R M Lvl/name

     0-0-0/w PTR         r     1 B$JIT$                     0-0-0/w PTR         r     1 B$TCB$
     0-0-0/w STRC(72)    r     1 VD_KEY_NUMERIC_BOF

  ****  BASED and DCB variables  ****

  ****  Scalars and arrays  ****
OctLoc.c.b A Datatyp(siz) R M Lvl/name                 OctLoc.c.b A Datatyp(siz) R M Lvl/name

     0-0-0/w STRC(2448)  r     1 B$ALT                      0-0-0/d STRC(8856)  r     1 B$JIT
     0-0-0/w STRC(144)   r     1 B$TCB                      0-0-0/w STRC(648)   r     1 FILE$KEY
     0-0-0/w STRC(144)   r     1 SUBST$POINTER(0:2)
     0-0-0/w STRC(180)   r     1 VD$ERR


   Procedure VDE$PFILE_TO_EDIT requires 190 words for executable code.
   Procedure VDE$PFILE_TO_EDIT requires 42 words of local(AUTO) storage.
PL6.E3A0      #006=VDE$PFILE_TO_EDIT File=VDE$PARSE.:VDA5TSI                     FRI 07/04/97 11:15 Page:403
          *** CROSS REFERENCE LISTING ***
**     DENOTES     IDENTIFIER DEFINITION
<<                 IDENTIFIER'S VALUE SET
>>                 IDENTIFIER'S VALUE USED
<>                 IDENTIFIER SET AND/OR USED
--                 IDENTIFIER REFERENCED
PL6.E3A0      #006=VDE$PFILE_TO_EDIT File=VDE$PARSE.:VDA5TSI                     FRI 07/04/97 11:15 Page:404
          MINI XREF LISTING

B$ALT.CODE
      3637**DCL      3637--REDEF    3638--REDEF    3638--REDEF
B$ALT.ERR
      3638**DCL      3713>>ASSIGN
B$ALT.ERR.ERR#
      3639**DCL      3639--REDEF
B$ALT.EVID
      3638**DCL      3638--REDEF    3638--REDEF
B$JIT.ACCN
      3023**DCL      3683>>ASSIGN
B$JIT.CPFLAGS1.SLEAZE
      3117**DCL      3117--REDEF
B$JIT.ERR.MID
      3024**DCL      3024--REDEF
B$JIT.FACCN
      3023**DCL      3685>>ASSIGN
B$JIT.FPSN
      3104**DCL      3687>>ASSIGN
B$JIT.JRESPEAK
      3185**DCL      3186--REDEF
B$JIT.ORIGINATOR_PORT.FROM_CR
      3294**DCL      3294--REDEF    3295--REDEF
B$JIT.PNR
      3198**DCL      3198--REDEF
B$JIT.TSLINE
      3292**DCL      3293--REDEF
B$JIT$
      3008**DCL      3018--IMP-PTR  3683>>ASSIGN   3685>>ASSIGN   3687>>ASSIGN
B$TCB.ALT$
      3633**DCL      3713>>ASSIGN
B$TCB$
      3427**DCL      3633--IMP-PTR  3713>>ASSIGN
PL6.E3A0      #006=VDE$PFILE_TO_EDIT File=VDE$PARSE.:VDA5TSI                     FRI 07/04/97 11:15 Page:405
BAD_FILE_ASN_FAILURE
      3719**LABEL    3676--GOTO
ERR_SUBST$
      3482**DCL      3603--IMP-PTR  3723<<ASSIGN   3724>>ASSIGN   3725>>ASSIGN
FID
      3309**DCL        22--PROC     3725--ASSIGN
FID.BYTES
      3319**DCL      3656--ASSIGN
FID.LENGTH#
      3317**DCL      3319--IMP-SIZ  3656>>ASSIGN
FID_FAILED
      3711**LABEL    3672--CALLALT
FILE$KEY
      3501**DCL      3731<>CALL
FILE$KEY.ASN#
      3530**DCL      3664--ASSIGN   3675>>IF
FILE$KEY.LENGTH#
      3528**DCL      3690<<ASSIGN
FILE$KEY.PASS
      3531**DCL      3659--ASSIGN
FILE$KEY.PSN
      3531**DCL      3678<<ASSIGN   3686>>IF       3687<<ASSIGN
FILE$KEY.RES
      3530**DCL      3665--ASSIGN
FILE$KEY.UNIQUE.ACCT
      3529**DCL      3658--ASSIGN   3679>>IF       3683<<ASSIGN   3685<<ASSIGN   3690--ASSIGN
FILE$KEY.UNIQUE.FNAME
      3529**DCL      3657--ASSIGN
FILE$KEY.UNIQUE.FNAME.BYTES
      3530**DCL      3680>>IF
FILE$KEY.UNIQUE.FNAME.LENGTH#
      3529**DCL      3680>>IF       3690--ASSIGN   3690>>ASSIGN
FILE_KEY
      3332**DCL        22--PROC     3646<<ASSIGN   3730<<ASSIGN
FILE_KEY.REP#
      3336**DCL      3648<<ASSIGN
PL6.E3A0      #006=VDE$PFILE_TO_EDIT File=VDE$PARSE.:VDA5TSI                     FRI 07/04/97 11:15 Page:406
FILE_KEY.TYPE#
      3336**DCL      3647<<ASSIGN
FILE_KEY.V$
      3336**DCL      3649<>CALL     3651>>ASSIGN
FILE_KEY$
      3431**DCL      3501--IMP-PTR  3651<<ASSIGN   3657>>ASSIGN   3658>>ASSIGN   3659>>ASSIGN   3664>>ASSIGN
      3665>>ASSIGN   3675>>IF       3678>>ASSIGN   3679>>IF       3680>>IF       3680>>IF       3683>>ASSIGN
      3685>>ASSIGN   3686>>IF       3687>>ASSIGN   3690>>ASSIGN   3690>>ASSIGN   3731>>CALL
FPT_FID
      3443**DCL      3653<<ASSIGN   3672<>CALL
FPT_FID.ACCT_
      3444**DCL      3658<<ASSIGN
FPT_FID.ASN_
      3446**DCL      3664<<ASSIGN
FPT_FID.NAME_
      3444**DCL      3657<<ASSIGN
FPT_FID.PASS_
      3444**DCL      3659<<ASSIGN
FPT_FID.RESULTS_
      3446**DCL      3655<<ASSIGN
FPT_FID.RES_
      3446**DCL      3665<<ASSIGN
FPT_FID.SN_
      3445**DCL      3660<<ASSIGN
FPT_FID.TEXTFID_
      3443**DCL      3656<<ASSIGN
FPT_FID.V
      3447**DCL      3654--ASSIGN
FPT_FID.V.SCRUB.SACCT#
      3447**DCL      3667<<ASSIGN
FPT_FID.V.SCRUB.SNAME#
      3447**DCL      3666<<ASSIGN
FPT_FID.V.SCRUB.SPASS#
      3448**DCL      3668<<ASSIGN
FPT_FID.V.SCRUB.SRES#
      3449**DCL      3670<<ASSIGN
PL6.E3A0      #006=VDE$PFILE_TO_EDIT File=VDE$PARSE.:VDA5TSI                     FRI 07/04/97 11:15 Page:407
FPT_FID.V.SCRUB.SSN#
      3448**DCL      3669<<ASSIGN
FPT_FID.V_
      3443**DCL      3654<<ASSIGN
FPT_FID.WSN_
      3445**DCL      3663<<ASSIGN
FREE_OBJECTS
      3730**LABEL    3715--GOTO     3726--GOTO
M$FID
      2459**DCL-ENT  3672--CALL
OALLOC_FAILED
      3725**LABEL    3649--CALLALT  3711--CALLALT  3719--CALLALT
OFREE_FAILED
      3725**LABEL    3731--CALLALT
RANGE
      3346**DCL        22--PROC     3694--IF       3695<<ASSIGN
RANGE.ENDD.EOF
      3404**DCL      3703<<ASSIGN
RANGE.START.KEY
      3372**DCL      3702<<ASSIGN
SUBST$POINTER.OBJECT.CLASS#
      3627**DCL      3724<<ASSIGN
SUBST$POINTER.V$
      3629**DCL      3725<<ASSIGN
VD$ERR
      3542**DCL      3723--ASSIGN
VD$ERR.ERR
      3579**DCL      3713<<ASSIGN
VD$ERR.ERR.CODE#
      3581**DCL      3721<<ASSIGN
VD$ERR.FLAGLEV#
      3584**DCL      3714<<ASSIGN   3722<<ASSIGN
VDG$OALLOC
      3409**DCL-ENT  3649--CALL     3711--CALL     3719--CALL
VDG$OFREE
      3410**DCL-ENT  3731--CALL
PL6.E3A0      #006=VDE$PFILE_TO_EDIT File=VDE$PARSE.:VDA5TSI                     FRI 07/04/97 11:15 Page:408
VD_ERR$
      3481**DCL      3542--IMP-PTR  3711<>CALL     3713>>ASSIGN   3714>>ASSIGN   3719<>CALL     3721>>ASSIGN
      3722>>ASSIGN   3723>>ASSIGN
VD_KEY_NUMERIC_BOF
      3421**DCL      3702>>ASSIGN
VLP_SN
      3466**DCL      3660--ASSIGN   3661<<ASSIGN
VLP_SN.NUM#
      3466**DCL      3662<<ASSIGN
VLP_SN.SN#
      3466**DCL      3678>>ASSIGN
VLP_WSN
      3479**DCL      3663--ASSIGN

