PL6.E3A0      #007=VDE$PREAD_LO_NAME File=VDE$PARSE.:VDA5TSI                     FRI 07/04/97 11:15 Page:409
     3291        1        /*T***********************************************************/
     3292        2        /*T*                                                         */
     3293        3        /*T* Copyright (c) Bull HN Information Systems Inc., 1997    */
     3294        4        /*T*                                                         */
     3295        5        /*T***********************************************************/
     3296        6
     3297        7        /*D* NAME: VDE$PREAD_LO_NAME
     3298        8            PARAMETERS:
     3299        9                LO_NAME - VD$TEXTC containing the LO-name.
     3300       10                NAME_DESC$ - Uninitialized ptr.
     3301       11                NAME_NODE$ - Optional uninitialized ptr.
     3302       12            INPUT:
     3303       13                LOCATIONS$STREAM - VD$STREAM open to the Locations Name-file.
     3304       14            OUTPUT:
     3305       15                NAME_DESC$ will point to the VD$BLOCK_DESC which is the
     3306       16                    name's value.
     3307       17                NAME_NODE$, if passed, will point to the VD$FILE_NODE for the
     3308       18                    name in the Locations file.
     3309       19                If we can't find the name in the Locations file, or if the
     3310       20                    name has no value currently, we'll build a VD$ERR and
     3311       21                    altreturn.
     3312       22            DESCRIPTION:
     3313       23                Look up the name in the Locations file.  If found, return
     3314       24                a pointer to its VD$BLOCK_DESC.
     3315       25        */
     3316       26
     3317       27        VDE$PREAD_LO_NAME: PROC (LO_NAME, NAME_DESC$, NAME_NODE$) ALTRET;
     3318       28
     3319       29
     3320       30        %INCLUDE VD_MACROS_M;
     3321     2245        %INCLUDE VD_PERR_C;
     3322     2393        %INCLUDE XU_MACRO_C;
     3323     5487        %INCLUDE B$TABLES_C;
     3324     5595
     3325     5596
     3326     5597        %VD$TEXTC (NAME=LO_NAME, STCLASS=PARAM);
     3327     5620    1   DCL NAME_DESC$ PTR;
PL6.E3A0      #007=VDE$PREAD_LO_NAME File=VDE$PARSE.:VDA5TSI                     FRI 07/04/97 11:15 Page:410
     3328     5621    1   DCL NAME_NODE$ PTR;
     3329     5622
     3330     5623
     3331     5624    1   DCL VDA$LREAD           ENTRY (4) ALTRET;
     3332     5625    1   DCL VDG$OALLOC          ENTRY (3) ALTRET;
     3333     5626    1   DCL VDG$ESCREECH        ENTRY (3);
     3334     5627
     3335     5628
     3336     5629        %VD_6E (STCLASS=SYMREF);
     3337     5665        %B$XL_UPPER;
     3338     5669
     3339     5670
     3340     5671        /* UC_NAME is in STATIC in case we need to report an error */
     3341     5672        %VD_TEXTC_REMOTE (NAME=UC_NAME, STCLASS=STATIC, MXNB=%MXNB_NAME);
     3342     5735
     3343     5736        /* Since UC_NAME is static, LO_LOC can be constant! */
     3344     5737        %VD_LOCATION (NAME=LO_LOC, STCLASS=CONSTANT, INITS=1,
     3345     5738            ITYPE1=%KT_STRING, IREP1=%REP_REMOTE, IBYTES1=UC_NAME);
     3346     5813
     3347     5814
     3348     5815
     3349     5816    1   DCL PORT_KEY$ PTR;
     3350     5817    1   DCL NAME_DATA$ PTR;
     3351     5818    1   DCL VD_ERR$ PTR;
     3352     5819    1   DCL ERR_SUBST$ PTR;
     3353     5820
     3354     5821
     3355     5822        %VD$STREAM (NAME=LOCATIONS$STREAM, STCLASS="BASED(VD_6E.LOCATIONS$)");
     3356     5928        %VD$TEXTC (NAME=PORT$KEY, STCLASS="BASED(PORT_KEY$)");
     3357     5951        %VD$OBJECT_HEADER (NAME=NAME$DATA, STCLASS="BASED(NAME_DATA$)");
     3358     5973        %VD$POINTER (NAME=NAME$DATA_POINTER, STCLASS="BASED(NAME_DATA$)");
     3359     6018        %VD$BUFFER (NAME=NAME$DATA_BUFFER, STCLASS="BASED(NAME_DATA$)");
     3360     6076        %VD$ERR (NAME=VD$ERR, STCLASS="BASED(VD_ERR$)");
     3361     6129        %VD$NUMBER (NAME=SUBST$NUMBER, DIM="(0:2)", STCLASS="BASED(ERR_SUBST$)");
     3362     6174        %VD$POINTER (NAME=SUBST$POINTER, DIM="(0:2)", STCLASS="BASED(ERR_SUBST$)");
     3363     6219        %VD$TEXTC_REMOTE;
     3364     6280        %VD$PORT;
PL6.E3A0      #007=VDE$PREAD_LO_NAME File=VDE$PARSE.:VDA5TSI                     FRI 07/04/97 11:15 Page:411
     3365     6378
     3366     6379
     3367     6380
     3368     6381    1           NAME_DESC$ = ADDR(NIL);
     3369     6382    1           UC_NAME = %CLEAR;
     3370     6383    1           UC_NAME.OBJECT.CLASS# = %CLS_TEXTC_REMOTE;
     3371     6384    1           UC_NAME.LENGTH# = LO_NAME.LENGTH#;
     3372     6385    1           CALL XLATE (SUBSTR(UC_NAME.BYTES, 0, UC_NAME.LENGTH#),
     3373     6386    1             B$XL_UPPER, LO_NAME.BYTES);
     3374     6387    1           CALL VDA$LREAD (LOCATIONS$STREAM, LO_LOC, 0, %TRUE)
     3375     6388    1             ALTRET (LREAD_FAILED);
     3376     6389
     3377     6390                %GETKEY (KEY=LOCATIONS$STREAM.PORT$->VD$PORT.CURRENT.KEY,
     3378     6391                INDX="%(LVL_EXT_REC-1)", PTR=PORT_KEY$);
     3379     6401    1           NAME_DATA$ = LOCATIONS$STREAM.PORT$ ->
     3380     6402    1             VD$PORT.LEVEL.DATA$ (%LVL_EXT_REC);
     3381     6403    1           IF PORT$KEY.BYTES ~= SUBSTR(UC_NAME.BYTES, 0, UC_NAME.LENGTH#)
     3382     6404    1             OR NAME_DATA$ = ADDR(NIL) THEN
     3383     6405    1              GOTO NAME_HAS_NO_VALUE_FAILURE;
     3384     6406    1           IF ADDR(NAME_NODE$) ~= ADDR(NIL) THEN
     3385     6407    1              NAME_NODE$ = LOCATIONS$STREAM.PORT$ ->
     3386     6408    1                VD$PORT.LEVEL.INTERNAL$ (%LVL_EXT_REC);
     3387     6409
     3388     6410    2           DO CASE (NAME$DATA.CLASS#);
     3389     6411    2            CASE (%CLS_PTR_BLOCK_DESC);
     3390     6412    2              NAME_DESC$ = NAME$DATA_POINTER.V$;
     3391     6413    2            CASE (%CLS_BLOCK_BUFFER);
     3392     6414    2              NAME_DESC$ = PALIGNW(ADDR(NAME$DATA_BUFFER.BYTES));
     3393     6415    2            CASE (ELSE);
     3394     6416    2              CALL VDG$ESCREECH (NAME$DATA.CLASS#);
     3395     6417    2            END;
     3396     6418
     3397     6419    1           IF NAME_DESC$ = ADDR(NIL) THEN
     3398     6420    1              GOTO NAME_HAS_NO_VALUE_FAILURE;
     3399     6421
     3400     6422    1           RETURN;
     3401     6423
PL6.E3A0      #007=VDE$PREAD_LO_NAME File=VDE$PARSE.:VDA5TSI                     FRI 07/04/97 11:15 Page:412
     3402     6424
     3403     6425
     3404     6426    1   NAME_HAS_NO_VALUE_FAILURE:
     3405     6427    1           CALL VDG$OALLOC (%CLS_ERR, VD_ERR$)
     3406     6428    1             ALTRET (OALLOC_FAILED);
     3407     6429    1           VD$ERR.ERR.CODE# = %E$NAME_HAS_NO_VALUE;
     3408     6430    1           VD$ERR.FLAGLEV# = %FLV_SERIOUS;
     3409     6431    1           ERR_SUBST$ = PINCRW(VD_ERR$, LENGTHW(VD$ERR));
     3410     6432    1           SUBST$POINTER.OBJECT.CLASS# (0) = %CLS_PTR_TEXTC;
     3411     6433    1           SUBST$POINTER.V$ (0) = ADDR(UC_NAME.LENGTH#);
     3412     6434    1           SUBST$NUMBER.OBJECT.CLASS# (1) = %CLS_NAME_DATA_TYPE;
     3413     6435    1           SUBST$NUMBER.V# (1) = %NDT_LOCATION;
     3414     6436    1           ALTRETURN;
     3415     6437
     3416     6438
     3417     6439    1   LREAD_FAILED: ;
     3418     6440    1   OALLOC_FAILED: ;
     3419     6441    1           ALTRETURN;
     3420     6442
     3421     6443    1   END VDE$PREAD_LO_NAME;
     3422     6444        %EOD;

PL6.E3A0      #007=VDE$PREAD_LO_NAME File=VDE$PARSE.:VDA5TSI                     FRI 07/04/97 11:15 Page:413
--  Include file information  --

   B$TABLES_C.:LIBRARY  cannot be made into a system file and is referenced.
   XU_MACRO_C.:LIBRARY  is referenced.
   VD_PERR_C.:VDA5TOU  is referenced.
   VD_MACROS_M.:VDA5TOU  is referenced.
   B$JIT_C.:E04TOU  was found in the system file and is never referenced.
   CP_6_C.:E04TOU  was found in the system file and is never referenced.
      No diagnostics issued in procedure VDE$PREAD_LO_NAME.

   Procedure VDE$PREAD_LO_NAME requires 154 words for executable code.
   Procedure VDE$PREAD_LO_NAME requires 14 words of local(AUTO) storage.

PL6.E3A0      #007=VDE$PREAD_LO_NAME File=VDE$PARSE.:VDA5TSI                     FRI 07/04/97 11:15 Page:414

 Object Unit name= VDE$PREAD_LO_NAME                          File name= VDE$PARSE.:VDA5TOU
 UTS= JUL 04 '97 11:15:53.96 FRI                              Compiler= PL-6/E31         Sev=      00
 SharedLib= :SHARED_SYSTEM                                    Alt SharedLib=


    ****  Control sections  ****

 Sect   Type Bound  Init  Size OctSiz  Section name(segment info)
    0   Data  even  none    10     12  VDE$PREAD_LO_NAME
    1  RoData even  UTS      9     11  VDE$PREAD_LO_NAME
    2   Proc  even  none   154    232  VDE$PREAD_LO_NAME
    3  RoData even  none     8     10  VDE$PREAD_LO_NAME

    ****  Entry defs  ****

                              Check   Calling
                             calling  sequence
  Sect OctLoc Primary Altret sequence   type   Parms  Name
     2      0   yes    yes     yes      Std        3  VDE$PREAD_LO_NAME

  ****  Entry refs  ****

         Check        Calling
        calling       sequence
Altret sequence SRef   type   Args  Name
         yes          ~proc      0 B_POINTER
 yes     yes           Std       3 VDG$OALLOC
 yes     yes           Std       4 VDA$LREAD
         yes           Std       3 VDG$ESCREECH
                       nStd      0 X66_AUTO_3
                       Std       0 B_CONSPOOL_D
                       nStd      0 X66_ARET
                       nStd      0 X66_AALT
PL6.E3A0      #007=VDE$PREAD_LO_NAME File=VDE$PARSE.:VDA5TSI                     FRI 07/04/97 11:15 Page:415

  ****  Data refs  ****

  Flags:  r = read only, s = secondary
Flgs Name                             Flgs Name                             Flgs Name
     VD_6E                            r    B$XL_UPPER$                           B_VECTNIL

  ****  Segment refs  ****

  Flags:  r = read only, s = secondary
Flgs Name                             Flgs Name                             Flgs Name
     NULLSID                               ISSID
PL6.E3A0      #007=VDE$PREAD_LO_NAME File=VDE$PARSE.:VDA5TSI                     FRI 07/04/97 11:15 Page:416


     3291        1        /*T***********************************************************/
     3292        2        /*T*                                                         */
     3293        3        /*T* Copyright (c) Bull HN Information Systems Inc., 1997    */
     3294        4        /*T*                                                         */
     3295        5        /*T***********************************************************/
     3296        6
     3297        7        /*D* NAME: VDE$PREAD_LO_NAME
     3298        8            PARAMETERS:
     3299        9                LO_NAME - VD$TEXTC containing the LO-name.
     3300       10                NAME_DESC$ - Uninitialized ptr.
     3301       11                NAME_NODE$ - Optional uninitialized ptr.
     3302       12            INPUT:
     3303       13                LOCATIONS$STREAM - VD$STREAM open to the Locations Name-file.
     3304       14            OUTPUT:
     3305       15                NAME_DESC$ will point to the VD$BLOCK_DESC which is the
     3306       16                    name's value.
     3307       17                NAME_NODE$, if passed, will point to the VD$FILE_NODE for the
     3308       18                    name in the Locations file.
     3309       19                If we can't find the name in the Locations file, or if the
     3310       20                    name has no value currently, we'll build a VD$ERR and
     3311       21                    altreturn.
     3312       22            DESCRIPTION:
     3313       23                Look up the name in the Locations file.  If found, return
     3314       24                a pointer to its VD$BLOCK_DESC.
     3315       25        */
     3316       26
     3317       27        VDE$PREAD_LO_NAME: PROC (LO_NAME, NAME_DESC$, NAME_NODE$) ALTRET;

     27  2 000000   000000 700200 xent  VDE$PREAD_L* TSX0  ! X66_AUTO_3
         2 000001   000016 000003                    ZERO    14,3

     3318       28
     3319       29
     3320       30        %INCLUDE VD_MACROS_M;
     3321     2245        %INCLUDE VD_PERR_C;
     3322     2393        %INCLUDE XU_MACRO_C;
PL6.E3A0      #007=VDE$PREAD_LO_NAME File=VDE$PARSE.:VDA5TSI                     FRI 07/04/97 11:15 Page:417
     3323     5487        %INCLUDE B$TABLES_C;
     3324     5595
     3325     5596
     3326     5597        %VD$TEXTC (NAME=LO_NAME, STCLASS=PARAM);
     3327     5620    1   DCL NAME_DESC$ PTR;
     3328     5621    1   DCL NAME_NODE$ PTR;
     3329     5622
     3330     5623
     3331     5624    1   DCL VDA$LREAD           ENTRY (4) ALTRET;
     3332     5625    1   DCL VDG$OALLOC          ENTRY (3) ALTRET;
     3333     5626    1   DCL VDG$ESCREECH        ENTRY (3);
     3334     5627
     3335     5628
     3336     5629        %VD_6E (STCLASS=SYMREF);
     3337     5665        %B$XL_UPPER;
     3338     5669
     3339     5670
     3340     5671        /* UC_NAME is in STATIC in case we need to report an error */
     3341     5672        %VD_TEXTC_REMOTE (NAME=UC_NAME, STCLASS=STATIC, MXNB=%MXNB_NAME);
     3342     5735
     3343     5736        /* Since UC_NAME is static, LO_LOC can be constant! */
     3344     5737        %VD_LOCATION (NAME=LO_LOC, STCLASS=CONSTANT, INITS=1,
     3345     5738            ITYPE1=%KT_STRING, IREP1=%REP_REMOTE, IBYTES1=UC_NAME);
     3346     5813
     3347     5814
     3348     5815
     3349     5816    1   DCL PORT_KEY$ PTR;
     3350     5817    1   DCL NAME_DATA$ PTR;
     3351     5818    1   DCL VD_ERR$ PTR;
     3352     5819    1   DCL ERR_SUBST$ PTR;
     3353     5820
     3354     5821
     3355     5822        %VD$STREAM (NAME=LOCATIONS$STREAM, STCLASS="BASED(VD_6E.LOCATIONS$)");
     3356     5928        %VD$TEXTC (NAME=PORT$KEY, STCLASS="BASED(PORT_KEY$)");
     3357     5951        %VD$OBJECT_HEADER (NAME=NAME$DATA, STCLASS="BASED(NAME_DATA$)");
     3358     5973        %VD$POINTER (NAME=NAME$DATA_POINTER, STCLASS="BASED(NAME_DATA$)");
     3359     6018        %VD$BUFFER (NAME=NAME$DATA_BUFFER, STCLASS="BASED(NAME_DATA$)");
PL6.E3A0      #007=VDE$PREAD_LO_NAME File=VDE$PARSE.:VDA5TSI                     FRI 07/04/97 11:15 Page:418
     3360     6076        %VD$ERR (NAME=VD$ERR, STCLASS="BASED(VD_ERR$)");
     3361     6129        %VD$NUMBER (NAME=SUBST$NUMBER, DIM="(0:2)", STCLASS="BASED(ERR_SUBST$)");
     3362     6174        %VD$POINTER (NAME=SUBST$POINTER, DIM="(0:2)", STCLASS="BASED(ERR_SUBST$)");
     3363     6219        %VD$TEXTC_REMOTE;
     3364     6280        %VD$PORT;
     3365     6378
     3366     6379
     3367     6380
     3368     6381    1           NAME_DESC$ = ADDR(NIL);

   6381  2 000002   000001 236000 xsym               LDQ     B_VECTNIL+1
         2 000003   200004 470500                    LDP0    @NAME_DESC$,,AUTO
         2 000004   000000 756100                    STQ     0,,PR0

     3369     6382    1           UC_NAME = %CLEAR;

   6382  2 000005   000000 100400                    MLR     fill='000'O
         2 000006   000002 000001 xsym               ADSC9   B_VECTNIL+2              cn=0,n=1
         2 000007   000000 000050 0                  ADSC9   UC_NAME                  cn=0,n=40

     3370     6383    1           UC_NAME.OBJECT.CLASS# = %CLS_TEXTC_REMOTE;

   6383  2 000010   000053 220003                    LDX0    43,DU
         2 000011   000000 740000 0                  STX0    UC_NAME

     3371     6384    1           UC_NAME.LENGTH# = LO_NAME.LENGTH#;

   6384  2 000012   200003 471500                    LDP1    @LO_NAME,,AUTO
         2 000013   100000 236100                    LDQ     0,,PR1
         2 000014   000002 552040 0                  STBQ    UC_NAME+2,'40'O

     3372     6385    1           CALL XLATE (SUBSTR(UC_NAME.BYTES, 0, UC_NAME.LENGTH#),

   6385  2 000015   000002 236000 0                  LDQ     UC_NAME+2
         2 000016   000033 772000                    QRL     27
         2 000017   000000 621006                    EAX1    0,QL
         2 000020   100000 236100                    LDQ     0,,PR1
PL6.E3A0      #007=VDE$PREAD_LO_NAME File=VDE$PARSE.:VDA5TSI                     FRI 07/04/97 11:15 Page:419
         2 000021   000033 772000                    QRL     27
         2 000022   000000 622006                    EAX2    0,QL
         2 000023   000000 473400 xsym               LDP3    B$XL_UPPER$
         2 000024   040040 160540                    MVT     fill='040'O
         2 000025   100000 200012                    ADSC9   0,,PR1                   cn=1,n=*X2
         2 000026   000002 200011 0                  ADSC9   UC_NAME+2                cn=1,n=*X1
         2 000027   300000 000100                    ARG     0,,PR3

     3373     6386    1             B$XL_UPPER, LO_NAME.BYTES);
     3374     6387    1           CALL VDA$LREAD (LOCATIONS$STREAM, LO_LOC, 0, %TRUE)

   6387  2 000030   000000 237000 3                  LDAQ    0
         2 000031   200014 757100                    STAQ    ERR_SUBST$+3,,AUTO
         2 000032   000002 236000 3                  LDQ     2
         2 000033   000002 235000 xsym               LDA     VD_6E+2
         2 000034   200012 757100                    STAQ    ERR_SUBST$+1,,AUTO
         2 000035   200012 630500                    EPPR0   ERR_SUBST$+1,,AUTO
         2 000036   000022 631400 xsym               EPPR1   B_VECTNIL+18
         2 000037   000000 701000 xent               TSX1    VDA$LREAD
         2 000040   000231 702000 2                  TSX2    LREAD_FAILED

     3375     6388    1             ALTRET (LREAD_FAILED);
     3376     6389
     3377     6390                %GETKEY (KEY=LOCATIONS$STREAM.PORT$->VD$PORT.CURRENT.KEY,
     3378     6391                INDX="%(LVL_EXT_REC-1)", PTR=PORT_KEY$);

   6398  2 000041   000002 470400 xsym               LDP0    VD_6E+2
         2 000042   000001 471500                    LDP1    1,,PR0
         2 000043   100012 720100                    LXL0    10,,PR1
         2 000044   000002 100003                    CMPX0   2,DU
         2 000045   000052 601000 2                  TNZ     s:6398+9

   6398  2 000046   100013 473500                    LDP3    11,,PR1
         2 000047   300002 634500                    EPPR4   2,,PR3
         2 000050   200006 454500                    STP4    PORT_KEY$,,AUTO
         2 000051   000054 710000 2                  TRA     s:6401

PL6.E3A0      #007=VDE$PREAD_LO_NAME File=VDE$PARSE.:VDA5TSI                     FRI 07/04/97 11:15 Page:420
   6398  2 000052   100013 633500                    EPPR3   11,,PR1
         2 000053   200006 453500                    STP3    PORT_KEY$,,AUTO

     3379     6401    1           NAME_DATA$ = LOCATIONS$STREAM.PORT$ ->

   6401  2 000054   100036 236100                    LDQ     30,,PR1
         2 000055   200007 756100                    STQ     NAME_DATA$,,AUTO

     3380     6402    1             VD$PORT.LEVEL.DATA$ (%LVL_EXT_REC);
     3381     6403    1           IF PORT$KEY.BYTES ~= SUBSTR(UC_NAME.BYTES, 0, UC_NAME.LENGTH#)

   6403  2 000056   200006 473500                    LDP3    PORT_KEY$,,AUTO
         2 000057   300000 236100                    LDQ     0,,PR3
         2 000060   000033 772000                    QRL     27
         2 000061   000000 621006                    EAX1    0,QL
         2 000062   000002 236000 0                  LDQ     UC_NAME+2
         2 000063   000033 772000                    QRL     27
         2 000064   000000 622006                    EAX2    0,QL
         2 000065   040040 106540                    CMPC    fill='040'O
         2 000066   300000 200011                    ADSC9   0,,PR3                   cn=1,n=*X1
         2 000067   000002 200012 0                  ADSC9   UC_NAME+2                cn=1,n=*X2
         2 000070   000174 601000 2                  TNZ     NAME_HAS_NO_VALUE_FAILURE
         2 000071   200007 236100                    LDQ     NAME_DATA$,,AUTO
         2 000072   000001 116000 xsym               CMPQ    B_VECTNIL+1
         2 000073   000174 600000 2                  TZE     NAME_HAS_NO_VALUE_FAILURE

     3382     6404    1             OR NAME_DATA$ = ADDR(NIL) THEN
     3383     6405    1              GOTO NAME_HAS_NO_VALUE_FAILURE;
     3384     6406    1           IF ADDR(NAME_NODE$) ~= ADDR(NIL) THEN

   6406  2 000074   200005 236100                    LDQ     @NAME_NODE$,,AUTO
         2 000075   000001 116000 xsym               CMPQ    B_VECTNIL+1
         2 000076   000102 600000 2                  TZE     s:6410

     3385     6407    1              NAME_NODE$ = LOCATIONS$STREAM.PORT$ ->

   6407  2 000077   100040 236100                    LDQ     32,,PR1
PL6.E3A0      #007=VDE$PREAD_LO_NAME File=VDE$PARSE.:VDA5TSI                     FRI 07/04/97 11:15 Page:421
         2 000100   200005 474500                    LDP4    @NAME_NODE$,,AUTO
         2 000101   400000 756100                    STQ     0,,PR4

     3386     6408    1                VD$PORT.LEVEL.INTERNAL$ (%LVL_EXT_REC);
     3387     6409
     3388     6410    2           DO CASE (NAME$DATA.CLASS#);

   6410  2 000102   200007 470500                    LDP0    NAME_DATA$,,AUTO
         2 000103   000000 220100                    LDX0    0,,PR0
         2 000104   000041 100003                    CMPX0   33,DU
         2 000105   000107 602010 2                  TNC     s:6410+5,X0
         2 000106   000163 710000 2                  TRA     s:6416
         2 000107   000163 710000 2                  TRA     s:6416
         2 000110   000154 710000 2                  TRA     s:6414
         2 000111   000163 710000 2                  TRA     s:6416
         2 000112   000163 710000 2                  TRA     s:6416
         2 000113   000163 710000 2                  TRA     s:6416
         2 000114   000163 710000 2                  TRA     s:6416
         2 000115   000163 710000 2                  TRA     s:6416
         2 000116   000163 710000 2                  TRA     s:6416
         2 000117   000163 710000 2                  TRA     s:6416
         2 000120   000163 710000 2                  TRA     s:6416
         2 000121   000163 710000 2                  TRA     s:6416
         2 000122   000163 710000 2                  TRA     s:6416
         2 000123   000163 710000 2                  TRA     s:6416
         2 000124   000163 710000 2                  TRA     s:6416
         2 000125   000163 710000 2                  TRA     s:6416
         2 000126   000163 710000 2                  TRA     s:6416
         2 000127   000163 710000 2                  TRA     s:6416
         2 000130   000163 710000 2                  TRA     s:6416
         2 000131   000163 710000 2                  TRA     s:6416
         2 000132   000163 710000 2                  TRA     s:6416
         2 000133   000163 710000 2                  TRA     s:6416
         2 000134   000163 710000 2                  TRA     s:6416
         2 000135   000163 710000 2                  TRA     s:6416
         2 000136   000163 710000 2                  TRA     s:6416
         2 000137   000163 710000 2                  TRA     s:6416
PL6.E3A0      #007=VDE$PREAD_LO_NAME File=VDE$PARSE.:VDA5TSI                     FRI 07/04/97 11:15 Page:422
         2 000140   000163 710000 2                  TRA     s:6416
         2 000141   000163 710000 2                  TRA     s:6416
         2 000142   000163 710000 2                  TRA     s:6416
         2 000143   000163 710000 2                  TRA     s:6416
         2 000144   000163 710000 2                  TRA     s:6416
         2 000145   000163 710000 2                  TRA     s:6416
         2 000146   000163 710000 2                  TRA     s:6416
         2 000147   000150 710000 2                  TRA     s:6412

     3389     6411    2            CASE (%CLS_PTR_BLOCK_DESC);

     3390     6412    2              NAME_DESC$ = NAME$DATA_POINTER.V$;

   6412  2 000150   000003 236100                    LDQ     3,,PR0
         2 000151   200004 471500                    LDP1    @NAME_DESC$,,AUTO
         2 000152   100000 756100                    STQ     0,,PR1
         2 000153   000167 710000 2                  TRA     s:6419

     3391     6413    2            CASE (%CLS_BLOCK_BUFFER);

     3392     6414    2              NAME_DESC$ = PALIGNW(ADDR(NAME$DATA_BUFFER.BYTES));

   6414  2 000154   200007 236100                    LDQ     NAME_DATA$,,AUTO
         2 000155   000003 036000 3                  ADLQ    3
         2 000156   770000 036007                    ADLQ    -4096,DL
         2 000157   000004 376000 3                  ANQ     4
         2 000160   200004 471500                    LDP1    @NAME_DESC$,,AUTO
         2 000161   100000 756100                    STQ     0,,PR1
         2 000162   000167 710000 2                  TRA     s:6419

     3393     6415    2            CASE (ELSE);

     3394     6416    2              CALL VDG$ESCREECH (NAME$DATA.CLASS#);

   6416  2 000163   200007 630500                    EPPR0   NAME_DATA$,,AUTO
         2 000164   000017 631400 xsym               EPPR1   B_VECTNIL+15
         2 000165   000000 701000 xent               TSX1    VDG$ESCREECH
PL6.E3A0      #007=VDE$PREAD_LO_NAME File=VDE$PARSE.:VDA5TSI                     FRI 07/04/97 11:15 Page:423
         2 000166   000000 011000                    NOP     0

     3395     6417    2            END;

     3396     6418
     3397     6419    1           IF NAME_DESC$ = ADDR(NIL) THEN

   6419  2 000167   200004 470500                    LDP0    @NAME_DESC$,,AUTO
         2 000170   000000 236100                    LDQ     0,,PR0
         2 000171   000001 116000 xsym               CMPQ    B_VECTNIL+1
         2 000172   000174 600000 2                  TZE     NAME_HAS_NO_VALUE_FAILURE

     3398     6420    1              GOTO NAME_HAS_NO_VALUE_FAILURE;
     3399     6421
     3400     6422    1           RETURN;

   6422  2 000173   000000 702200 xent               TSX2  ! X66_ARET

     3401     6423
     3402     6424
     3403     6425
     3404     6426    1   NAME_HAS_NO_VALUE_FAILURE:
     3405     6427    1           CALL VDG$OALLOC (%CLS_ERR, VD_ERR$)

   6427  2 000174   200010 630500       NAME_HAS_NO* EPPR0   VD_ERR$,,AUTO
         2 000175   200013 450500                    STP0    ERR_SUBST$+2,,AUTO
         2 000176   000005 236000 3                  LDQ     5
         2 000177   200012 756100                    STQ     ERR_SUBST$+1,,AUTO
         2 000200   200012 630500                    EPPR0   ERR_SUBST$+1,,AUTO
         2 000201   000020 631400 xsym               EPPR1   B_VECTNIL+16
         2 000202   000000 701000 xent               TSX1    VDG$OALLOC
         2 000203   000231 702000 2                  TSX2    LREAD_FAILED

     3406     6428    1             ALTRET (OALLOC_FAILED);
     3407     6429    1           VD$ERR.ERR.CODE# = %E$NAME_HAS_NO_VALUE;

   6429  2 000204   200010 470500                    LDP0    VD_ERR$,,AUTO
PL6.E3A0      #007=VDE$PREAD_LO_NAME File=VDE$PARSE.:VDA5TSI                     FRI 07/04/97 11:15 Page:424
         2 000205   000002 236100                    LDQ     2,,PR0
         2 000206   000006 376000 3                  ANQ     6
         2 000207   001520 276007                    ORQ     848,DL
         2 000210   000002 756100                    STQ     2,,PR0

     3408     6430    1           VD$ERR.FLAGLEV# = %FLV_SERIOUS;

   6430  2 000211   000003 220003                    LDX0    3,DU
         2 000212   200010 470500                    LDP0    VD_ERR$,,AUTO
         2 000213   000003 740100                    STX0    3,,PR0

     3409     6431    1           ERR_SUBST$ = PINCRW(VD_ERR$, LENGTHW(VD$ERR));

   6431  2 000214   200010 236100                    LDQ     VD_ERR$,,AUTO
         2 000215   000005 036003                    ADLQ    5,DU
         2 000216   200011 756100                    STQ     ERR_SUBST$,,AUTO

     3410     6432    1           SUBST$POINTER.OBJECT.CLASS# (0) = %CLS_PTR_TEXTC;

   6432  2 000217   000045 221003                    LDX1    37,DU
         2 000220   200011 470500                    LDP0    ERR_SUBST$,,AUTO
         2 000221   000000 741100                    STX1    0,,PR0

     3411     6433    1           SUBST$POINTER.V$ (0) = ADDR(UC_NAME.LENGTH#);

   6433  2 000222   000007 236000 3                  LDQ     7
         2 000223   000003 756100                    STQ     3,,PR0

     3412     6434    1           SUBST$NUMBER.OBJECT.CLASS# (1) = %CLS_NAME_DATA_TYPE;

   6434  2 000224   000031 222003                    LDX2    25,DU
         2 000225   000004 742100                    STX2    4,,PR0

     3413     6435    1           SUBST$NUMBER.V# (1) = %NDT_LOCATION;

   6435  2 000226   000002 235007                    LDA     2,DL
         2 000227   000007 755100                    STA     7,,PR0
PL6.E3A0      #007=VDE$PREAD_LO_NAME File=VDE$PARSE.:VDA5TSI                     FRI 07/04/97 11:15 Page:425

     3414     6436    1           ALTRETURN;

   6436  2 000230   000000 702200 xent               TSX2  ! X66_AALT

   6435  2 000231                       LREAD_FAILED null
   6435  2 000231                       OALLOC_FAIL* null
     3415     6437
     3416     6438
     3417     6439    1   LREAD_FAILED: ;
     3418     6440    1   OALLOC_FAILED: ;
     3419     6441    1           ALTRETURN;

   6441  2 000231   000000 702200 xent               TSX2  ! X66_AALT
     3420     6442
     3421     6443    1   END VDE$PREAD_LO_NAME;
     3422     6444        %EOD;

PL6.E3A0      #007=VDE$PREAD_LO_NAME File=VDE$PARSE.:VDA5TSI                     FRI 07/04/97 11:15 Page:426
--  Include file information  --

   B$TABLES_C.:LIBRARY  cannot be made into a system file and is referenced.
   XU_MACRO_C.:LIBRARY  is referenced.
   VD_PERR_C.:VDA5TOU  is referenced.
   VD_MACROS_M.:VDA5TOU  is referenced.
   B$JIT_C.:E04TOU  was found in the system file and is never referenced.
   CP_6_C.:E04TOU  was found in the system file and is never referenced.
      No diagnostics issued in procedure VDE$PREAD_LO_NAME.
PL6.E3A0      #007=VDE$PREAD_LO_NAME File=VDE$PARSE.:VDA5TSI                     FRI 07/04/97 11:15 Page:427

 **** Variables and constants ****

  ****  Section 000  Data  VDE$PREAD_LO_NAME

  ****  Scalars and arrays  ****
OctLoc.c.b A Datatyp(siz) R M Lvl/name                 OctLoc.c.b A Datatyp(siz) R M Lvl/name

     0-0-0/w STRC(360)   r     1 UC_NAME

  ****  Section 001 RoData VDE$PREAD_LO_NAME

  ****  Scalars and arrays  ****
OctLoc.c.b A Datatyp(siz) R M Lvl/name                 OctLoc.c.b A Datatyp(siz) R M Lvl/name

     0-0-0/w STRC(324)   r     1 LO_LOC

  ****  Auto variables  ****

  ****  Scalars and arrays  ****
OctLoc.c.b A Datatyp(siz) R M Lvl/name                 OctLoc.c.b A Datatyp(siz) R M Lvl/name

     3-0-0/w PTR         r     1 @LO_NAME                   4-0-0/w PTR         r     1 @NAME_DESC$
     5-0-0/w PTR         r     1 @NAME_NODE$               11-0-0/w PTR         r     1 ERR_SUBST$
    *0-0-0/w ASTR(9)     r     1 LO_NAME                    7-0-0/w PTR         r     1 NAME_DATA$
    *0-0-0/w PTR         r     1 NAME_DESC$                *0-0-0/w PTR         r     1 NAME_NODE$
     6-0-0/w PTR         r     1 PORT_KEY$                 10-0-0/w PTR         r     1 VD_ERR$

  ****  SYMREF variables  ****

  ****  Scalars and arrays  ****
OctLoc.c.b A Datatyp(siz) R M Lvl/name                 OctLoc.c.b A Datatyp(siz) R M Lvl/name

     0-0-0/w PTR         r     1 B$XL_UPPER$                0-0-0/w STRC(22644) r     1 VD_6E

  ****  BASED and DCB variables  ****

  ****  Scalars and arrays  ****
PL6.E3A0      #007=VDE$PREAD_LO_NAME File=VDE$PARSE.:VDA5TSI                     FRI 07/04/97 11:15 Page:428
OctLoc.c.b A Datatyp(siz) R M Lvl/name                 OctLoc.c.b A Datatyp(siz) R M Lvl/name

     0-0-0/d STRC(4608)  r     1 B$XL_UPPER                 0-0-0/w STRC(864)   r     1 LOCATIONS$STREAM
     0-0-0/w STRC        r     1 NAME$DATA                  0-0-0/w ASTR(90)    r     1 NAME$DATA_BUFFER
     0-0-0/w STRC(144)   r     1 NAME$DATA_POINTER          0-0-0/w ASTR(9)     r     1 PORT$KEY
     0-0-0/w STRC(144)   r     1 SUBST$NUMBER(0:2)
     0-0-0/w STRC(144)   r     1 SUBST$POINTER(0:2)
     0-0-0/w STRC(180)   r     1 VD$ERR                     0-0-0/w STRC(1944)  r     1 VD$PORT
     0-0-0/w ASTR(81)    r     1 VD$TEXTC_REMOTE


   Procedure VDE$PREAD_LO_NAME requires 154 words for executable code.
   Procedure VDE$PREAD_LO_NAME requires 14 words of local(AUTO) storage.
PL6.E3A0      #007=VDE$PREAD_LO_NAME File=VDE$PARSE.:VDA5TSI                     FRI 07/04/97 11:15 Page:429
          *** CROSS REFERENCE LISTING ***
**     DENOTES     IDENTIFIER DEFINITION
<<                 IDENTIFIER'S VALUE SET
>>                 IDENTIFIER'S VALUE USED
<>                 IDENTIFIER SET AND/OR USED
--                 IDENTIFIER REFERENCED
PL6.E3A0      #007=VDE$PREAD_LO_NAME File=VDE$PARSE.:VDA5TSI                     FRI 07/04/97 11:15 Page:430
          MINI XREF LISTING

B$XL_UPPER
      5667**DCL      6385>>CALLBLT
B$XL_UPPER$
      5666**DCL      5667--IMP-PTR  6385>>CALLBLT
ERR_SUBST$
      5819**DCL      6137--IMP-PTR  6190--IMP-PTR  6431<<ASSIGN   6432>>ASSIGN   6433>>ASSIGN   6434>>ASSIGN
      6435>>ASSIGN
LOCATIONS$STREAM
      5830**DCL      6387<>CALL
LOCATIONS$STREAM.PORT$
      5856**DCL      6398>>IF       6398>>ASSIGN   6398>>ASSIGN   6401>>ASSIGN   6407>>ASSIGN
LO_LOC
      5749**DCL      6387<>CALL
LO_NAME
      5605**DCL        27--PROC
LO_NAME.BYTES
      5615**DCL      6385>>CALLBLT
LO_NAME.LENGTH#
      5613**DCL      5615--IMP-SIZ  6384>>ASSIGN   6385>>CALLBLT
LREAD_FAILED
      6435**LABEL    6387--CALLALT
NAME$DATA.CLASS#
      5971**DCL      6410>>DOCASE   6416<>CALL
NAME$DATA_BUFFER.BYTES
      6071**DCL      6414--ASSIGN
NAME$DATA_BUFFER.LENGTH#
      6069**DCL      6071--IMP-SIZ
NAME$DATA_POINTER.V$
      6015**DCL      6412>>ASSIGN
NAME_DATA$
      5817**DCL      5967--IMP-PTR  5989--IMP-PTR  6043--IMP-PTR  6401<<ASSIGN   6403>>IF       6410>>DOCASE
      6412>>ASSIGN   6414>>ASSIGN   6416>>CALL
PL6.E3A0      #007=VDE$PREAD_LO_NAME File=VDE$PARSE.:VDA5TSI                     FRI 07/04/97 11:15 Page:431
NAME_DESC$
      5620**DCL        27--PROC     6381<<ASSIGN   6412<<ASSIGN   6414<<ASSIGN   6419>>IF
NAME_HAS_NO_VALUE_FAILURE
      6427**LABEL    6405--GOTO     6420--GOTO
NAME_NODE$
      5621**DCL        27--PROC     6406--IF       6407<<ASSIGN
OALLOC_FAILED
      6435**LABEL    6427--CALLALT
PORT$KEY.BYTES
      5946**DCL      6403>>IF
PORT$KEY.LENGTH#
      5944**DCL      5946--IMP-SIZ  6403>>IF
PORT_KEY$
      5816**DCL      5936--IMP-PTR  6398<<ASSIGN   6398<<ASSIGN   6403>>IF       6403>>IF
SUBST$NUMBER.OBJECT.CLASS#
      6169**DCL      6434<<ASSIGN
SUBST$NUMBER.V#
      6171**DCL      6435<<ASSIGN
SUBST$POINTER.OBJECT.CLASS#
      6214**DCL      6432<<ASSIGN
SUBST$POINTER.V$
      6216**DCL      6433<<ASSIGN
UC_NAME
      5698**DCL      5789--DCLINIT  6382<<ASSIGN
UC_NAME.BYTES
      5731**DCL      6385<<CALLBLT  6403>>IF
UC_NAME.LENGTH#
      5727**DCL      6384<<ASSIGN   6385>>CALLBLT  6403>>IF       6433--ASSIGN
UC_NAME.OBJECT.CLASS#
      5725**DCL      6383<<ASSIGN
VD$ERR
      6084**DCL      6431--ASSIGN
VD$ERR.ERR.CODE#
      6123**DCL      6429<<ASSIGN
VD$ERR.FLAGLEV#
      6126**DCL      6430<<ASSIGN
PL6.E3A0      #007=VDE$PREAD_LO_NAME File=VDE$PARSE.:VDA5TSI                     FRI 07/04/97 11:15 Page:432
VD$PORT.CURRENT.KEY.REP#
      6355**DCL      6398>>IF
VD$PORT.CURRENT.KEY.V$
      6355**DCL      6398>>ASSIGN   6398--ASSIGN
VD$PORT.LEVEL.DATA$
      6375**DCL      6401>>ASSIGN
VD$PORT.LEVEL.INTERNAL$
      6375**DCL      6407>>ASSIGN
VD$TEXTC_REMOTE.LENGTH#
      6273**DCL      6275--IMP-SIZ  6398--ASSIGN
VDA$LREAD
      5624**DCL-ENT  6387--CALL
VDG$ESCREECH
      5626**DCL-ENT  6416--CALL
VDG$OALLOC
      5625**DCL-ENT  6427--CALL
VD_6E.LOCATIONS$
      5642**DCL      5830--IMP-PTR  6387>>CALL     6398>>IF       6398>>ASSIGN   6398>>ASSIGN   6401>>ASSIGN
      6407>>ASSIGN
VD_ERR$
      5818**DCL      6084--IMP-PTR  6427<>CALL     6429>>ASSIGN   6430>>ASSIGN   6431>>ASSIGN

PL6.E3A0      #008=VDE$PREAD_NAME_FOR_EVAL File=VDE$PARSE.:VDA5TSI               FRI 07/04/97 11:16 Page:433
     3423        1        /*T***********************************************************/
     3424        2        /*T*                                                         */
     3425        3        /*T* Copyright (c) Bull HN Information Systems Inc., 1997    */
     3426        4        /*T*                                                         */
     3427        5        /*T***********************************************************/
     3428        6
     3429        7        /*D* NAME: VDE$PREAD_NAME_FOR_EVAL
     3430        8            PARAMETERS:
     3431        9                VARPARAM - An XUE_VARPARAM structure for the name to find.
     3432       10            INPUT:
     3433       11            OUTPUT:
     3434       12                If the name is found:
     3435       13                    VARPARAM.VALUE$'s buffer will contain a TEXTC string
     3436       14                        representing the name's value.
     3437       15                If the name is not found:
     3438       16                    VARPARAM.ERR.CODE will be set, and a VD$ERR will be
     3439       17                        pushed onto the error chain specifying the error.
     3440       18            DESCRIPTION:
     3441       19                Force the name to upper-case.
     3442       20                Read for the name in each of the Names files--well, some
     3443       21                    of them, anyway.  We'll never see Keyins or Synonyms
     3444       22                    at this point, so just look in Equals and Locations.
     3445       23                    If the name is a Location name, build a string which is a textual
     3446       24                    description of the location-name's block location, and return
     3447       25                    this as the name's value.
     3448       26                    For now, if the name appears in the location file,
     3449       27                    return an error.
     3450       28        */
     3451       29
     3452       30        VDE$PREAD_NAME_FOR_EVAL: PROC (VARPARAM) ALTRET;
     3453       31
     3454       32
     3455       33        %INCLUDE VD_MACROS_M;
     3456     2248        %INCLUDE VD_PERR_C;
     3457     2396        %INCLUDE XUE_MACRO_C;
     3458     3140        %INCLUDE XUE_SUBS_C;
     3459     3320        %INCLUDE B$TABLES_C;
PL6.E3A0      #008=VDE$PREAD_NAME_FOR_EVAL File=VDE$PARSE.:VDA5TSI               FRI 07/04/97 11:16 Page:434
     3460     3428
     3461     3429
     3462     3430        %XUE_VARPARAM (NAME=VARPARAM, STCLASS="");
     3463     3532
     3464     3533
     3465     3534    1   DCL VDA$LREAD           ENTRY (4) ALTRET;
     3466     3535    1   DCL VDG$FORMAT_NUMBER   ENTRY (6);
     3467     3536    1   DCL VDG$FORMAT_BLOCK_DESC ENTRY (5);
     3468     3537    1   DCL VDG$FORMAT_KEY      ENTRY (5);
     3469     3538    1   DCL VDG$OALLOC          ENTRY (3) ALTRET;
     3470     3539    1   DCL VDG$ESCREECH        ENTRY (3);
     3471     3540
     3472     3541
     3473     3542        %VD_6E (STCLASS=SYMREF);
     3474     3578        %B$XL_UPPER;
     3475     3582        %VD$NUMBER (NAME=VD_$$INCANTATION, STCLASS=SYMREF);
     3476     3627
     3477     3628
     3478     3629        /* UC_NAME is in STATIC in case we need to report an error */
     3479     3630        %VD_TEXTC_REMOTE (NAME=UC_NAME, STCLASS=STATIC, MXNB=%MXNB_NAME);
     3480     3693
     3481     3694        /* Since UC_NAME is static, NAME_LOC can be constant! */
     3482     3695        %VD_LOCATION (NAME=NAME_LOC, STCLASS=CONSTANT, INITS=1,
     3483     3696            ITYPE1=%KT_STRING, IREP1=%REP_REMOTE, IBYTES1=UC_NAME);
     3484     3771
     3485     3772
     3486     3773
     3487     3774    1   DCL PORT_KEY$ PTR;
     3488     3775    1   DCL FILE_NODE$ PTR;
     3489     3776    1   DCL NAME_VALUE$ PTR;
     3490     3777    1   DCL NDT SBIN;
     3491     3778    1   DCL NB_VALUE SBIN;
     3492     3779    1   DCL NODE_KEY$ PTR;
     3493     3780    1   DCL BLOCK_DESC$ PTR;
     3494     3781    1   DCL VD_ERR$ PTR;
     3495     3782    1   DCL SUBST_FIELD$ PTR;
     3496     3783    1   DCL STREAM$ PTR;
PL6.E3A0      #008=VDE$PREAD_NAME_FOR_EVAL File=VDE$PARSE.:VDA5TSI               FRI 07/04/97 11:16 Page:435
     3497     3784
     3498     3785
     3499     3786        %VD$STREAM (NAME=STREAM, STCLASS="BASED(STREAM$)");
     3500     3892        %VD$TEXTC (NAME=PORT$KEY, STCLASS="BASED(PORT_KEY$)");
     3501     3915        %VD$FILE_NODE (NAME=FILE$NODE, STCLASS="BASED(FILE_NODE$)");
     3502     4008        %VD$TEXTC (NAME=VARPARAM$VALUE, STCLASS="BASED(VARPARAM.VALUE$)");
     3503     4031        %VD$BUFFER (NAME=NAME$VALUE, STCLASS="BASED(NAME_VALUE$)");
     3504     4089        %VD$NUMBER (NAME=NAME$NUMBER, STCLASS="BASED(NAME_VALUE$)");
     3505     4134        %VD$POINTER (NAME=NAME$POINTER, STCLASS="BASED(NAME_VALUE$)");
     3506     4179        %VD$TEXTC (NAME=NODE$KEY, STCLASS="BASED(NODE_KEY$)");
     3507     4202        %VD$BLOCK_DESC (NAME=BLOCK$DESC, STCLASS="BASED(BLOCK_DESC$)");
     3508     4349        %VD$ERR (NAME=VD$ERR, STCLASS="BASED(VD_ERR$)");
     3509     4402        %VD$POINTER (NAME=SUBST$POINTER, DIM="(0:2)", STCLASS="BASED(SUBST_FIELD$)");
     3510     4447        %VD$NUMBER (NAME=SUBST$NUMBER, DIM="(0:2)", STCLASS="BASED(SUBST_FIELD$)");
     3511     4492        %VD$PORT;
     3512     4590        %VD$TEXTC_REMOTE;
     3513     4651        %VD$BUFFER_HEADER;
     3514     4687        %VD$KEY;
     3515     4701        %VD$TEXTC;
     3516     4724        %VD$FILE_NODE;
     3517     4817        %XUE_FUNPARAM (NAME=FUNPARAM, STCLASS=BASED);
     3518     4921        %XUE_OPTION (NAME=XUE$OPTION, STCLASS=BASED);
     3519     4977
     3520     4978
     3521     4979
     3522     4980    1           IF VARPARAM.CODE#~=%XUE_FETCH# THEN RETURN;
     3523     4981
     3524     4982    1           UC_NAME = %CLEAR;
     3525     4983    1           UC_NAME.OBJECT.CLASS# = %CLS_TEXTC_REMOTE;
     3526     4984    1           UC_NAME.LENGTH# = VARPARAM.VARIABLE.COUNT#;
     3527     4985    1           CALL XLATE (SUBSTR(UC_NAME.BYTES, 0, UC_NAME.LENGTH#),
     3528     4986    1             B$XL_UPPER, VARPARAM.VARIABLE.TEXT#);
     3529     4987    1           GOTO COMMON;
     3530     4988        %EJECT;
PL6.E3A0      #008=VDE$PREAD_NAME_FOR_EVAL File=VDE$PARSE.:VDA5TSI               FRI 07/04/97 11:16 Page:436
     3531     4989        /*D* NAME: VDE$PREAD_NAME_FOR_FUNCTION
     3532     4990            PARAMETERS:
     3533     4991                FUNPARAM - An XUE_FUNPARAM structure for the name to find.
     3534     4992                           The (single) option contains the name.
     3535     4993            INPUT:
     3536     4994            OUTPUT:
     3537     4995                If the name is found:
     3538     4996                    FUNPARAM.OUT$'s buffer will contain a TEXTC string
     3539     4997                        representing the name's value.
     3540     4998                If the name is not found:
     3541     4999                    FUNPARAM.ERR.CODE will be set, and a VD$ERR will be
     3542     5000                        pushed onto the error chain specifying the error.
     3543     5001            DESCRIPTION:
     3544     5002                Force the name to uppercase.
     3545     5003                Read for the name in each of the Names files--well, some
     3546     5004                    of them, anyway.  We'll never see Keyins or Synonyms
     3547     5005                    at this point, so just look in Equals and Locations.
     3548     5006                    If the name is a Location name, build a string which is a textual
     3549     5007                    description of the location-name's block location, and return
     3550     5008                    this as the name's value.
     3551     5009                    For now, if the name appears in the location file,
     3552     5010                    return an error.
     3553     5011        */
     3554     5012
     3555     5013    1   VDE$PREAD_NAME_FOR_FUNCTION: ENTRY (VARPARAM) ALTRET;
     3556     5014
     3557     5015    1           UC_NAME.LENGTH# =
     3558     5016    1             ADDR(VARPARAM) -> FUNPARAM.OPTION$(0) -> XUE$OPTION.COUNT#;
     3559     5017    1           CALL XLATE (UC_NAME.BYTES, B$XL_UPPER,
     3560     5018    1             ADDR(VARPARAM) -> FUNPARAM.OPTION$(0) -> XUE$OPTION.TEXT#);
     3561     5019
     3562     5020    1   COMMON: ;
     3563     5021                %INCREMENT (INDX=%STG_NAME_READS);
     3564     5024    1           NDT = %NDT_EQUALS;
     3565     5025    1           STREAM$ = VD_6E.EQUALS$;
     3566     5026    1           NAME_VALUE$ = ADDR(NIL);
     3567     5027
PL6.E3A0      #008=VDE$PREAD_NAME_FOR_EVAL File=VDE$PARSE.:VDA5TSI               FRI 07/04/97 11:16 Page:437
     3568     5028                /*
     3569     5029                *   Look for the name in the Equals file.
     3570     5030                */
     3571     5031    2   LOOKUP_NAME: DO WHILE '1'B;
     3572     5032    2              CALL VDA$LREAD (STREAM, NAME_LOC, 0, %TRUE)
     3573     5033    2                ALTRET (LREAD_FAILED);
     3574     5034
     3575     5035                   %GETKEY (KEY=STREAM.PORT$->VD$PORT.CURRENT.KEY,
     3576     5036                   INDX=%LVL_LOWER-1, PTR=PORT_KEY$);
     3577     5046    2              IF PORT$KEY.BYTES =
     3578     5047    2                SUBSTR(UC_NAME.BYTES, 0, UC_NAME.LENGTH#) THEN
     3579     5048    3   FOUND_THE_NAME: DO;
     3580     5049    3                 FILE_NODE$ = STREAM.PORT$ ->
     3581     5050    3                   VD$PORT.LEVEL.INTERNAL$ (%LVL_LOWER);
     3582     5051    4                 IF FILE_NODE$ ~= ADDR(NIL) THEN DO;
     3583     5052    4                    IF (NOT FILE$NODE.ACCESS (%NAC_READ))
     3584     5053    4                      AND VD_$$INCANTATION.V# <= 0 THEN
     3585     5054    4                       GOTO CANT_ACCESS_NODE_FAILURE;
     3586     5055    4                    END;
     3587     5056    3                 NAME_VALUE$ = STREAM.PORT$ ->
     3588     5057    3                   VD$PORT.LEVEL.DATA$ (%LVL_LOWER);
     3589     5058    3                 EXIT LOOKUP_NAME;
     3590     5059    3                 END FOUND_THE_NAME;
     3591     5060    2              ELSE
     3592     5061    3   TRY_LOCATIONS_FILE: DO;
     3593     5062                   /*
     3594     5063                   *   Look for the name in the Locations file.
     3595     5064                   */
     3596     5065    4                 IF NDT = %NDT_LOCATION THEN DO;
     3597     5066    4                    NDT = 0;
     3598     5067    4                    GOTO NAME_HAS_NO_VALUE_FAILURE;
     3599     5068    4                    END;
     3600     5069    3                 STREAM$ = VD_6E.LOCATIONS$;
     3601     5070    3                 NDT = %NDT_LOCATION;
     3602     5071    3                 END TRY_LOCATIONS_FILE;
     3603     5072    2              END LOOKUP_NAME;
     3604     5073
PL6.E3A0      #008=VDE$PREAD_NAME_FOR_EVAL File=VDE$PARSE.:VDA5TSI               FRI 07/04/97 11:16 Page:438
     3605     5074    1           IF NAME_VALUE$ = ADDR(NIL) THEN
     3606     5075    1              GOTO NAME_HAS_NO_VALUE_FAILURE;
     3607     5076
     3608     5077    1           VARPARAM$VALUE.LENGTH# = %MXNB_NAME_VALUE;
     3609     5078    2           DO CASE (NAME$VALUE.OBJECT.CLASS#);
     3610     5079    2            CASE (%CLS_BUFFER, %CLS_FILE_STCLASS);
     3611     5080    2              VARPARAM$VALUE.LENGTH# = MINIMUM (%MXNB_NAME_VALUE,
     3612     5081    2                NAME$VALUE.LENGTH#);
     3613     5082    2              VARPARAM$VALUE.BYTES = NAME$VALUE.BYTES;
     3614     5083
     3615     5084    2            CASE (%CLS_BLOCK_BUFFER, %CLS_PTR_BLOCK_DESC);
     3616     5085    2              IF NAME$VALUE.OBJECT.CLASS# = %CLS_PTR_BLOCK_DESC THEN
     3617     5086    2                 BLOCK_DESC$ = NAME$POINTER.V$;
     3618     5087    2              ELSE
     3619     5088    2                 BLOCK_DESC$ = PINCRW(NAME_VALUE$, SIZEW(VD$BUFFER_HEADER));
     3620     5089    2              CALL VDG$FORMAT_BLOCK_DESC (BLOCK$DESC, %MXNB_NAME_VALUE,
     3621     5090    2                VARPARAM$VALUE.BYTES, 0, NB_VALUE);
     3622     5091    2              VARPARAM$VALUE.LENGTH# = NB_VALUE;
     3623     5092
     3624     5093                /*
     3625     5094                *  Value is binary or structured:  translate to ASCII.
     3626     5095                *  Note that boolean and enumerated object-classes will be
     3627     5096                *    translated into their numbers; however, structured
     3628     5097                *    object-classes will be translated into textual descriptions.
     3629     5098                */
     3630     5099
     3631     5100    2            CASE (%CLS_NUMBER, %CLS_BOOLEAN, %CLS_ORG, %CLS_KEY_TYPE,
     3632     5101    2                %CLS_EXIST, %CLS_NAME_DATA_TYPE, %CLS_COMPONENT, %CLS_POINT,
     3633     5102    2                %CLS_DIRECTION);
     3634     5103                   /* Force ASCII-decimal output by passing %CLS_NUMBER */
     3635     5104    2              CALL VDG$FORMAT_NUMBER (%CLS_NUMBER, NAME$NUMBER.V#,
     3636     5105    2                %MXNB_NAME_VALUE, VARPARAM$VALUE.BYTES, 0, NB_VALUE);
     3637     5106    2              VARPARAM$VALUE.LENGTH# = NB_VALUE;
     3638     5107
     3639     5108    2            CASE (%CLS_PTR_KEY);
     3640     5109                   /*N*
     3641     5110                   *N*  VDG$FORMAT_KEY only works for string keys and
PL6.E3A0      #008=VDE$PREAD_NAME_FOR_EVAL File=VDE$PARSE.:VDA5TSI               FRI 07/04/97 11:16 Page:439
     3642     5111                   *N*      edit keys.  For consec files, we should call
     3643     5112                   *N*      VDG$FORMAT_NUMBER.  But who knows what type of
     3644     5113                   *N*      numeric key this is at this point???
     3645     5114                   *N*/
     3646     5115    2              CALL VDG$FORMAT_KEY (NAME$POINTER.V$->VD$KEY,
     3647     5116    2                %MXNB_NAME_VALUE, VARPARAM$VALUE.BYTES, 0, NB_VALUE);
     3648     5117    2              VARPARAM$VALUE.BYTES = NAME$VALUE.BYTES;
     3649     5118
     3650     5119    2            CASE (%CLS_PTR_TEXTC);
     3651     5120    2              VARPARAM$VALUE.LENGTH# = NAME$POINTER.V$->VD$TEXTC.LENGTH#;
     3652     5121    2              VARPARAM$VALUE.BYTES = NAME$POINTER.V$->VD$TEXTC.BYTES;
     3653     5122
     3654     5123    2            CASE (%CLS_PTR_FILE_NODE);
     3655     5124                   %GETKEY (KEY=NAME$POINTER.V$->VD$FILE_NODE.DESC.KEY,
     3656     5125                   PTR=NODE_KEY$);
     3657     5135    2              VARPARAM$VALUE.LENGTH# = NODE$KEY.LENGTH#;
     3658     5136    2              VARPARAM$VALUE.BYTES = NODE$KEY.BYTES;
     3659     5137
     3660     5138    2            CASE (ELSE);
     3661     5139    2              VARPARAM$VALUE.LENGTH# = LENGTHC(%CHR_BAD_VALUE);
     3662     5140    2              VARPARAM$VALUE.BYTES = %CHR_BAD_VALUE;
     3663     5141    2            END;
     3664     5142
     3665     5143    1           RETURN;
     3666     5144
     3667     5145
     3668     5146
     3669     5147    1   NAME_HAS_NO_VALUE_FAILURE:
     3670     5148    1           VARPARAM.ERR.CODE = %E$NAME_HAS_NO_VALUE;
     3671     5149    1           CALL VDG$OALLOC (%CLS_ERR, VD_ERR$)
     3672     5150    1             ALTRET (OALLOC_FAILED);
     3673     5151    1           VD$ERR.ERR.CODE# = %E$NAME_HAS_NO_VALUE;
     3674     5152    1           VD$ERR.FLAGLEV# = %FLV_SERIOUS;
     3675     5153    1           VD$ERR.CMDLINE_INDEX# = VARPARAM.CPOS#;
     3676     5154    1           SUBST_FIELD$ = PINCRW(VD_ERR$, LENGTHW(VD$ERR));
     3677     5155    1           SUBST$POINTER.OBJECT.CLASS# (0) = %CLS_PTR_TEXTC;
     3678     5156    1           SUBST$POINTER.V$ (0) = ADDR(UC_NAME.LENGTH#);
PL6.E3A0      #008=VDE$PREAD_NAME_FOR_EVAL File=VDE$PARSE.:VDA5TSI               FRI 07/04/97 11:16 Page:440
     3679     5157    2           IF NDT ~= 0 THEN DO;
     3680     5158    2              SUBST$NUMBER.OBJECT.CLASS# (1) = %CLS_NAME_DATA_TYPE;
     3681     5159    2              SUBST$NUMBER.V# (1) = NDT;
     3682     5160    2              END;
     3683     5161    1           ALTRETURN;
     3684     5162
     3685     5163
     3686     5164    1   CANT_ACCESS_NODE_FAILURE:
     3687     5165    1           VARPARAM.ERR.CODE = %E$CANT_ACCESS_NODE;
     3688     5166    1           CALL VDG$OALLOC (%CLS_ERR, VD_ERR$)
     3689     5167    1             ALTRET (OALLOC_FAILED);
     3690     5168    1           VD$ERR.ERR.CODE# = %E$CANT_ACCESS_NODE;
     3691     5169    1           VD$ERR.FLAGLEV# = %FLV_SERIOUS;
     3692     5170    1           VD$ERR.CMDLINE_INDEX# = VARPARAM.CPOS#;
     3693     5171    1           SUBST_FIELD$ = PINCRW(VD_ERR$, SIZEW(VD$ERR));
     3694     5172    1           SUBST$POINTER.OBJECT.CLASS# (0) = %CLS_PTR_KEY;
     3695     5173    1           SUBST$POINTER.V$ (0) = ADDR(FILE$NODE.DESC.KEY);
     3696     5174    1           ALTRETURN;
     3697     5175
     3698     5176
     3699     5177    1   LREAD_FAILED: ;
     3700     5178    1   OALLOC_FAILED: ;
     3701     5179    1           VARPARAM.ERR = VD_6E.ERR_TAIL$->VD$ERR.ERR;
     3702     5180    1           ALTRETURN;
     3703     5181
     3704     5182
     3705     5183    1   END VDE$PREAD_NAME_FOR_EVAL;
     3706     5184        %EOD;

PL6.E3A0      #008=VDE$PREAD_NAME_FOR_EVAL File=VDE$PARSE.:VDA5TSI               FRI 07/04/97 11:16 Page:441
--  Include file information  --

   B$TABLES_C.:LIBRARY  cannot be made into a system file and is referenced.
   XUE_SUBS_C.:LIBRARY  is referenced.
   XUE_MACRO_C.:LIBRARY  is referenced.
   VD_PERR_C.:VDA5TOU  is referenced.
   VD_MACROS_M.:VDA5TOU  is referenced.
   B$JIT_C.:E04TOU  was found in the system file and is never referenced.
   CP_6_C.:E04TOU  was found in the system file and is never referenced.
      No diagnostics issued in procedure VDE$PREAD_NAME_FOR_EVAL.

   Procedure VDE$PREAD_NAME_FOR_EVAL requires 380 words for executable code.
   Procedure VDE$PREAD_NAME_FOR_EVAL requires 22 words of local(AUTO) storage.

PL6.E3A0      #008=VDE$PREAD_NAME_FOR_EVAL File=VDE$PARSE.:VDA5TSI               FRI 07/04/97 11:16 Page:442

 Object Unit name= VDE$PREAD_NAME_FOR_EVAL                    File name= VDE$PARSE.:VDA5TOU
 UTS= JUL 04 '97 11:16:06.20 FRI                              Compiler= PL-6/E31         Sev=      00
 SharedLib= :SHARED_SYSTEM                                    Alt SharedLib=


    ****  Control sections  ****

 Sect   Type Bound  Init  Size OctSiz  Section name(segment info)
    0   Data  even  none    10     12  VDE$PREAD_NAME_FOR_EVAL
    1  RoData even  UTS     10     12  VDE$PREAD_NAME_FOR_EVAL
    2   Proc  even  none   380    574  VDE$PREAD_NAME_FOR_EVAL
    3  RoData even  none    10     12  VDE$PREAD_NAME_FOR_EVAL

    ****  Entry defs  ****

                              Check   Calling
                             calling  sequence
  Sect OctLoc Primary Altret sequence   type   Parms  Name
     2      0   yes    yes     yes      Std        1  VDE$PREAD_NAME_FOR_EVAL
     2     32          yes     yes      Std        1  VDE$PREAD_NAME_FOR_FUNCTION

  ****  Entry refs  ****

         Check        Calling
        calling       sequence
Altret sequence SRef   type   Args  Name
         yes          ~proc      0 B_POINTER
 yes     yes           Std       3 VDG$OALLOC
 yes     yes           Std       4 VDA$LREAD
         yes           Std       5 VDG$FORMAT_BLOCK_DESC
         yes           Std       6 VDG$FORMAT_NUMBER
         yes           Std       5 VDG$FORMAT_KEY
                       nStd      0 X66_AUTO_1
                       nStd      0 X66_ARET
                       Std       0 B_CONSPOOL_D
                       nStd      0 X66_AALT
PL6.E3A0      #008=VDE$PREAD_NAME_FOR_EVAL File=VDE$PARSE.:VDA5TSI               FRI 07/04/97 11:16 Page:443

  ****  Data refs  ****

  Flags:  r = read only, s = secondary
Flgs Name                             Flgs Name                             Flgs Name
     VD_6E                            r    B$XL_UPPER$                           VD_$$INCANTATION
     B_VECTNIL

  ****  Segment refs  ****

  Flags:  r = read only, s = secondary
Flgs Name                             Flgs Name                             Flgs Name
     NULLSID                               ISSID
PL6.E3A0      #008=VDE$PREAD_NAME_FOR_EVAL File=VDE$PARSE.:VDA5TSI               FRI 07/04/97 11:16 Page:444


     3423        1        /*T***********************************************************/
     3424        2        /*T*                                                         */
     3425        3        /*T* Copyright (c) Bull HN Information Systems Inc., 1997    */
     3426        4        /*T*                                                         */
     3427        5        /*T***********************************************************/
     3428        6
     3429        7        /*D* NAME: VDE$PREAD_NAME_FOR_EVAL
     3430        8            PARAMETERS:
     3431        9                VARPARAM - An XUE_VARPARAM structure for the name to find.
     3432       10            INPUT:
     3433       11            OUTPUT:
     3434       12                If the name is found:
     3435       13                    VARPARAM.VALUE$'s buffer will contain a TEXTC string
     3436       14                        representing the name's value.
     3437       15                If the name is not found:
     3438       16                    VARPARAM.ERR.CODE will be set, and a VD$ERR will be
     3439       17                        pushed onto the error chain specifying the error.
     3440       18            DESCRIPTION:
     3441       19                Force the name to upper-case.
     3442       20                Read for the name in each of the Names files--well, some
     3443       21                    of them, anyway.  We'll never see Keyins or Synonyms
     3444       22                    at this point, so just look in Equals and Locations.
     3445       23                    If the name is a Location name, build a string which is a textual
     3446       24                    description of the location-name's block location, and return
     3447       25                    this as the name's value.
     3448       26                    For now, if the name appears in the location file,
     3449       27                    return an error.
     3450       28        */
     3451       29
     3452       30        VDE$PREAD_NAME_FOR_EVAL: PROC (VARPARAM) ALTRET;

     30  2 000000   000000 700200 xent  VDE$PREAD_N* TSX0  ! X66_AUTO_1
         2 000001   000026 000001                    ZERO    22,1

     3453       31
     3454       32
PL6.E3A0      #008=VDE$PREAD_NAME_FOR_EVAL File=VDE$PARSE.:VDA5TSI               FRI 07/04/97 11:16 Page:445
     3455       33        %INCLUDE VD_MACROS_M;
     3456     2248        %INCLUDE VD_PERR_C;
     3457     2396        %INCLUDE XUE_MACRO_C;
     3458     3140        %INCLUDE XUE_SUBS_C;
     3459     3320        %INCLUDE B$TABLES_C;
     3460     3428
     3461     3429
     3462     3430        %XUE_VARPARAM (NAME=VARPARAM, STCLASS="");
     3463     3532
     3464     3533
     3465     3534    1   DCL VDA$LREAD           ENTRY (4) ALTRET;
     3466     3535    1   DCL VDG$FORMAT_NUMBER   ENTRY (6);
     3467     3536    1   DCL VDG$FORMAT_BLOCK_DESC ENTRY (5);
     3468     3537    1   DCL VDG$FORMAT_KEY      ENTRY (5);
     3469     3538    1   DCL VDG$OALLOC          ENTRY (3) ALTRET;
     3470     3539    1   DCL VDG$ESCREECH        ENTRY (3);
     3471     3540
     3472     3541
     3473     3542        %VD_6E (STCLASS=SYMREF);
     3474     3578        %B$XL_UPPER;
     3475     3582        %VD$NUMBER (NAME=VD_$$INCANTATION, STCLASS=SYMREF);
     3476     3627
     3477     3628
     3478     3629        /* UC_NAME is in STATIC in case we need to report an error */
     3479     3630        %VD_TEXTC_REMOTE (NAME=UC_NAME, STCLASS=STATIC, MXNB=%MXNB_NAME);
     3480     3693
     3481     3694        /* Since UC_NAME is static, NAME_LOC can be constant! */
     3482     3695        %VD_LOCATION (NAME=NAME_LOC, STCLASS=CONSTANT, INITS=1,
     3483     3696            ITYPE1=%KT_STRING, IREP1=%REP_REMOTE, IBYTES1=UC_NAME);
     3484     3771
     3485     3772
     3486     3773
     3487     3774    1   DCL PORT_KEY$ PTR;
     3488     3775    1   DCL FILE_NODE$ PTR;
     3489     3776    1   DCL NAME_VALUE$ PTR;
     3490     3777    1   DCL NDT SBIN;
     3491     3778    1   DCL NB_VALUE SBIN;
PL6.E3A0      #008=VDE$PREAD_NAME_FOR_EVAL File=VDE$PARSE.:VDA5TSI               FRI 07/04/97 11:16 Page:446
     3492     3779    1   DCL NODE_KEY$ PTR;
     3493     3780    1   DCL BLOCK_DESC$ PTR;
     3494     3781    1   DCL VD_ERR$ PTR;
     3495     3782    1   DCL SUBST_FIELD$ PTR;
     3496     3783    1   DCL STREAM$ PTR;
     3497     3784
     3498     3785
     3499     3786        %VD$STREAM (NAME=STREAM, STCLASS="BASED(STREAM$)");
     3500     3892        %VD$TEXTC (NAME=PORT$KEY, STCLASS="BASED(PORT_KEY$)");
     3501     3915        %VD$FILE_NODE (NAME=FILE$NODE, STCLASS="BASED(FILE_NODE$)");
     3502     4008        %VD$TEXTC (NAME=VARPARAM$VALUE, STCLASS="BASED(VARPARAM.VALUE$)");
     3503     4031        %VD$BUFFER (NAME=NAME$VALUE, STCLASS="BASED(NAME_VALUE$)");
     3504     4089        %VD$NUMBER (NAME=NAME$NUMBER, STCLASS="BASED(NAME_VALUE$)");
     3505     4134        %VD$POINTER (NAME=NAME$POINTER, STCLASS="BASED(NAME_VALUE$)");
     3506     4179        %VD$TEXTC (NAME=NODE$KEY, STCLASS="BASED(NODE_KEY$)");
     3507     4202        %VD$BLOCK_DESC (NAME=BLOCK$DESC, STCLASS="BASED(BLOCK_DESC$)");
     3508     4349        %VD$ERR (NAME=VD$ERR, STCLASS="BASED(VD_ERR$)");
     3509     4402        %VD$POINTER (NAME=SUBST$POINTER, DIM="(0:2)", STCLASS="BASED(SUBST_FIELD$)");
     3510     4447        %VD$NUMBER (NAME=SUBST$NUMBER, DIM="(0:2)", STCLASS="BASED(SUBST_FIELD$)");
     3511     4492        %VD$PORT;
     3512     4590        %VD$TEXTC_REMOTE;
     3513     4651        %VD$BUFFER_HEADER;
     3514     4687        %VD$KEY;
     3515     4701        %VD$TEXTC;
     3516     4724        %VD$FILE_NODE;
     3517     4817        %XUE_FUNPARAM (NAME=FUNPARAM, STCLASS=BASED);
     3518     4921        %XUE_OPTION (NAME=XUE$OPTION, STCLASS=BASED);
     3519     4977
     3520     4978
     3521     4979
     3522     4980    1           IF VARPARAM.CODE#~=%XUE_FETCH# THEN RETURN;

   4980  2 000002   200003 470500                    LDP0    @VARPARAM,,AUTO
         2 000003   000000 235100                    LDA     0,,PR0
         2 000004   000001 115007                    CMPA    1,DL
         2 000005   000007 600000 2                  TZE     s:4982

PL6.E3A0      #008=VDE$PREAD_NAME_FOR_EVAL File=VDE$PARSE.:VDA5TSI               FRI 07/04/97 11:16 Page:447
   4980  2 000006   000000 702200 xent               TSX2  ! X66_ARET

     3523     4981
     3524     4982    1           UC_NAME = %CLEAR;

   4982  2 000007   000000 100400                    MLR     fill='000'O
         2 000010   000002 000001 xsym               ADSC9   B_VECTNIL+2              cn=0,n=1
         2 000011   000000 000050 0                  ADSC9   UC_NAME                  cn=0,n=40

     3525     4983    1           UC_NAME.OBJECT.CLASS# = %CLS_TEXTC_REMOTE;

   4983  2 000012   000053 220003                    LDX0    43,DU
         2 000013   000000 740000 0                  STX0    UC_NAME

     3526     4984    1           UC_NAME.LENGTH# = VARPARAM.VARIABLE.COUNT#;

   4984  2 000014   000006 236100                    LDQ     6,,PR0
         2 000015   000002 552040 0                  STBQ    UC_NAME+2,'40'O

     3527     4985    1           CALL XLATE (SUBSTR(UC_NAME.BYTES, 0, UC_NAME.LENGTH#),

   4985  2 000016   000002 236000 0                  LDQ     UC_NAME+2
         2 000017   000033 772000                    QRL     27
         2 000020   000000 621006                    EAX1    0,QL
         2 000021   000006 236100                    LDQ     6,,PR0
         2 000022   000033 772000                    QRL     27
         2 000023   000000 622006                    EAX2    0,QL
         2 000024   000000 471400 xsym               LDP1    B$XL_UPPER$
         2 000025   040040 160540                    MVT     fill='040'O
         2 000026   000006 200012                    ADSC9   6,,PR0                   cn=1,n=*X2
         2 000027   000002 200011 0                  ADSC9   UC_NAME+2                cn=1,n=*X1
         2 000030   100000 000100                    ARG     0,,PR1

     3528     4986    1             B$XL_UPPER, VARPARAM.VARIABLE.TEXT#);
     3529     4987    1           GOTO COMMON;

   4987  2 000031   000050 710000 2                  TRA     COMMON
PL6.E3A0      #008=VDE$PREAD_NAME_FOR_EVAL File=VDE$PARSE.:VDA5TSI               FRI 07/04/97 11:16 Page:448

     3530     4988        %EJECT;
PL6.E3A0      #008=VDE$PREAD_NAME_FOR_EVAL File=VDE$PARSE.:VDA5TSI               FRI 07/04/97 11:16 Page:449
     3531     4989        /*D* NAME: VDE$PREAD_NAME_FOR_FUNCTION
     3532     4990            PARAMETERS:
     3533     4991                FUNPARAM - An XUE_FUNPARAM structure for the name to find.
     3534     4992                           The (single) option contains the name.
     3535     4993            INPUT:
     3536     4994            OUTPUT:
     3537     4995                If the name is found:
     3538     4996                    FUNPARAM.OUT$'s buffer will contain a TEXTC string
     3539     4997                        representing the name's value.
     3540     4998                If the name is not found:
     3541     4999                    FUNPARAM.ERR.CODE will be set, and a VD$ERR will be
     3542     5000                        pushed onto the error chain specifying the error.
     3543     5001            DESCRIPTION:
     3544     5002                Force the name to uppercase.
     3545     5003                Read for the name in each of the Names files--well, some
     3546     5004                    of them, anyway.  We'll never see Keyins or Synonyms
     3547     5005                    at this point, so just look in Equals and Locations.
     3548     5006                    If the name is a Location name, build a string which is a textual
     3549     5007                    description of the location-name's block location, and return
     3550     5008                    this as the name's value.
     3551     5009                    For now, if the name appears in the location file,
     3552     5010                    return an error.
     3553     5011        */
     3554     5012
     3555     5013    1   VDE$PREAD_NAME_FOR_FUNCTION: ENTRY (VARPARAM) ALTRET;

   5013  2 000032   000000 700200 xent  VDE$PREAD_N* TSX0  ! X66_AUTO_1
         2 000033   000026 000001                    ZERO    22,1

     3556     5014
     3557     5015    1           UC_NAME.LENGTH# =

   5015  2 000034   200003 470500                    LDP0    @VARPARAM,,AUTO
         2 000035   000007 471500                    LDP1    7,,PR0
         2 000036   100002 236100                    LDQ     2,,PR1
         2 000037   000002 552040 0                  STBQ    UC_NAME+2,'40'O

PL6.E3A0      #008=VDE$PREAD_NAME_FOR_EVAL File=VDE$PARSE.:VDA5TSI               FRI 07/04/97 11:16 Page:450
     3558     5016    1             ADDR(VARPARAM) -> FUNPARAM.OPTION$(0) -> XUE$OPTION.COUNT#;
     3559     5017    1           CALL XLATE (UC_NAME.BYTES, B$XL_UPPER,

   5017  2 000040   100002 236100                    LDQ     2,,PR1
         2 000041   000033 772000                    QRL     27
         2 000042   000000 620006                    EAX0    0,QL
         2 000043   000000 473400 xsym               LDP3    B$XL_UPPER$
         2 000044   040000 160540                    MVT     fill='040'O
         2 000045   100002 200010                    ADSC9   2,,PR1                   cn=1,n=*X0
         2 000046   000002 200037 0                  ADSC9   UC_NAME+2                cn=1,n=31
         2 000047   300000 000100                    ARG     0,,PR3

   5017  2 000050                       COMMON       null
     3560     5018    1             ADDR(VARPARAM) -> FUNPARAM.OPTION$(0) -> XUE$OPTION.TEXT#);
     3561     5019
     3562     5020    1   COMMON: ;
     3563     5021                %INCREMENT (INDX=%STG_NAME_READS);

   5022  2 000050   000100 054000 xsym               AOS     VD_6E+64

     3564     5024    1           NDT = %NDT_EQUALS;

   5024  2 000051   000001 235007                    LDA     1,DL
         2 000052   200007 755100                    STA     NDT,,AUTO

     3565     5025    1           STREAM$ = VD_6E.EQUALS$;

   5025  2 000053   000001 236000 xsym               LDQ     VD_6E+1
         2 000054   200015 756100                    STQ     STREAM$,,AUTO

     3566     5026    1           NAME_VALUE$ = ADDR(NIL);

   5026  2 000055   000001 236000 xsym               LDQ     B_VECTNIL+1
         2 000056   200006 756100                    STQ     NAME_VALUE$,,AUTO

     3567     5027
     3568     5028                /*
PL6.E3A0      #008=VDE$PREAD_NAME_FOR_EVAL File=VDE$PARSE.:VDA5TSI               FRI 07/04/97 11:16 Page:451
     3569     5029                *   Look for the name in the Equals file.
     3570     5030                */
     3571     5031    2   LOOKUP_NAME: DO WHILE '1'B;

   5031  2 000057                       LOOKUP_NAME  null
     3572     5032    2              CALL VDA$LREAD (STREAM, NAME_LOC, 0, %TRUE)

   5032  2 000057   000000 237000 3                  LDAQ    0
         2 000060   200020 757100                    STAQ    STREAM$+3,,AUTO
         2 000061   000002 236000 3                  LDQ     2
         2 000062   200015 235100                    LDA     STREAM$,,AUTO
         2 000063   200016 757100                    STAQ    STREAM$+1,,AUTO
         2 000064   200016 630500                    EPPR0   STREAM$+1,,AUTO
         2 000065   000022 631400 xsym               EPPR1   B_VECTNIL+18
         2 000066   000000 701000 xent               TSX1    VDA$LREAD
         2 000067   000567 702000 2                  TSX2    LREAD_FAILED

     3573     5033    2                ALTRET (LREAD_FAILED);
     3574     5034
     3575     5035                   %GETKEY (KEY=STREAM.PORT$->VD$PORT.CURRENT.KEY,
     3576     5036                   INDX=%LVL_LOWER-1, PTR=PORT_KEY$);

   5043  2 000070   200015 470500                    LDP0    STREAM$,,AUTO
         2 000071   000001 471500                    LDP1    1,,PR0
         2 000072   100012 720100                    LXL0    10,,PR1
         2 000073   000002 100003                    CMPX0   2,DU
         2 000074   000101 601000 2                  TNZ     s:5043+9

   5043  2 000075   100013 473500                    LDP3    11,,PR1
         2 000076   300002 634500                    EPPR4   2,,PR3
         2 000077   200004 454500                    STP4    PORT_KEY$,,AUTO
         2 000100   000103 710000 2                  TRA     s:5046

   5043  2 000101   100013 633500                    EPPR3   11,,PR1
         2 000102   200004 453500                    STP3    PORT_KEY$,,AUTO

     3577     5046    2              IF PORT$KEY.BYTES =
PL6.E3A0      #008=VDE$PREAD_NAME_FOR_EVAL File=VDE$PARSE.:VDA5TSI               FRI 07/04/97 11:16 Page:452

   5046  2 000103   200004 473500                    LDP3    PORT_KEY$,,AUTO
         2 000104   300000 236100                    LDQ     0,,PR3
         2 000105   000033 772000                    QRL     27
         2 000106   000000 621006                    EAX1    0,QL
         2 000107   000002 236000 0                  LDQ     UC_NAME+2
         2 000110   000033 772000                    QRL     27
         2 000111   000000 622006                    EAX2    0,QL
         2 000112   040040 106540                    CMPC    fill='040'O
         2 000113   300000 200011                    ADSC9   0,,PR3                   cn=1,n=*X1
         2 000114   000002 200012 0                  ADSC9   UC_NAME+2                cn=1,n=*X2
         2 000115   000133 601000 2                  TNZ     TRY_LOCATIONS_FILE

     3578     5047    2                SUBSTR(UC_NAME.BYTES, 0, UC_NAME.LENGTH#) THEN
     3579     5048    3   FOUND_THE_NAME: DO;

   5048  2 000116                       FOUND_THE_N* null
     3580     5049    3                 FILE_NODE$ = STREAM.PORT$ ->

   5049  2 000116   100040 236100                    LDQ     32,,PR1
         2 000117   200005 756100                    STQ     FILE_NODE$,,AUTO

     3581     5050    3                   VD$PORT.LEVEL.INTERNAL$ (%LVL_LOWER);
     3582     5051    4                 IF FILE_NODE$ ~= ADDR(NIL) THEN DO;

   5051  2 000120   000001 116000 xsym               CMPQ    B_VECTNIL+1
         2 000121   000130 600000 2                  TZE     s:5056

     3583     5052    4                    IF (NOT FILE$NODE.ACCESS (%NAC_READ))

   5052  2 000122   200005 474500                    LDP4    FILE_NODE$,,AUTO
         2 000123   400003 236100                    LDQ     3,,PR4
         2 000124   200000 316003                    CANQ    65536,DU
         2 000125   000130 601000 2                  TNZ     s:5056
         2 000126   000003 235000 xsym               LDA     VD_$$INCANTATION+3
         2 000127   000524 604400 2                  TMOZ    CANT_ACCESS_NODE_FAILURE

PL6.E3A0      #008=VDE$PREAD_NAME_FOR_EVAL File=VDE$PARSE.:VDA5TSI               FRI 07/04/97 11:16 Page:453
     3584     5053    4                      AND VD_$$INCANTATION.V# <= 0 THEN
     3585     5054    4                       GOTO CANT_ACCESS_NODE_FAILURE;
     3586     5055    4                    END;

     3587     5056    3                 NAME_VALUE$ = STREAM.PORT$ ->

   5056  2 000130   100036 236100                    LDQ     30,,PR1
         2 000131   200006 756100                    STQ     NAME_VALUE$,,AUTO

     3588     5057    3                   VD$PORT.LEVEL.DATA$ (%LVL_LOWER);
     3589     5058    3                 EXIT LOOKUP_NAME;

   5058  2 000132   000145 710000 2                  TRA     s:5074

     3590     5059    3                 END FOUND_THE_NAME;
     3591     5060    2              ELSE
     3592     5061    3   TRY_LOCATIONS_FILE: DO;

   5061  2 000133                       TRY_LOCATIO* null
     3593     5062                   /*
     3594     5063                   *   Look for the name in the Locations file.
     3595     5064                   */
     3596     5065    4                 IF NDT = %NDT_LOCATION THEN DO;

   5065  2 000133   200007 235100                    LDA     NDT,,AUTO
         2 000134   000002 115007                    CMPA    2,DL
         2 000135   000140 601000 2                  TNZ     s:5069

     3597     5066    4                    NDT = 0;

   5066  2 000136   200007 450100                    STZ     NDT,,AUTO

     3598     5067    4                    GOTO NAME_HAS_NO_VALUE_FAILURE;

   5067  2 000137   000455 710000 2                  TRA     NAME_HAS_NO_VALUE_FAILURE

     3599     5068    4                    END;
PL6.E3A0      #008=VDE$PREAD_NAME_FOR_EVAL File=VDE$PARSE.:VDA5TSI               FRI 07/04/97 11:16 Page:454
     3600     5069    3                 STREAM$ = VD_6E.LOCATIONS$;

   5069  2 000140   000002 236000 xsym               LDQ     VD_6E+2
         2 000141   200015 756100                    STQ     STREAM$,,AUTO

     3601     5070    3                 NDT = %NDT_LOCATION;

   5070  2 000142   000002 235007                    LDA     2,DL
         2 000143   200007 755100                    STA     NDT,,AUTO

     3602     5071    3                 END TRY_LOCATIONS_FILE;

     3603     5072    2              END LOOKUP_NAME;

   5072  2 000144   000057 710000 2                  TRA     LOOKUP_NAME

     3604     5073
     3605     5074    1           IF NAME_VALUE$ = ADDR(NIL) THEN

   5074  2 000145   000001 116000 xsym               CMPQ    B_VECTNIL+1
         2 000146   000455 600000 2                  TZE     NAME_HAS_NO_VALUE_FAILURE

     3606     5075    1              GOTO NAME_HAS_NO_VALUE_FAILURE;
     3607     5076
     3608     5077    1           VARPARAM$VALUE.LENGTH# = %MXNB_NAME_VALUE;

   5077  2 000147   200003 474500                    LDP4    @VARPARAM,,AUTO
         2 000150   400004 475500                    LDP5    4,,PR4
         2 000151   777000 236003                    LDQ     -512,DU
         2 000152   500000 552140                    STBQ    0,'40'O,PR5

     3609     5078    2           DO CASE (NAME$VALUE.OBJECT.CLASS#);

   5078  2 000153   200006 471500                    LDP1    NAME_VALUE$,,AUTO
         2 000154   100000 220100                    LDX0    0,,PR1
         2 000155   000046 100003                    CMPX0   38,DU
         2 000156   000160 602010 2                  TNC     s:5078+5,X0
PL6.E3A0      #008=VDE$PREAD_NAME_FOR_EVAL File=VDE$PARSE.:VDA5TSI               FRI 07/04/97 11:16 Page:455
         2 000157   000442 710000 2                  TRA     s:5139
         2 000160   000442 710000 2                  TRA     s:5139
         2 000161   000247 710000 2                  TRA     s:5085
         2 000162   000442 710000 2                  TRA     s:5139
         2 000163   000305 710000 2                  TRA     s:5104
         2 000164   000226 710000 2                  TRA     s:5080
         2 000165   000442 710000 2                  TRA     s:5139
         2 000166   000305 710000 2                  TRA     s:5104
         2 000167   000305 710000 2                  TRA     s:5104
         2 000170   000442 710000 2                  TRA     s:5139
         2 000171   000442 710000 2                  TRA     s:5139
         2 000172   000442 710000 2                  TRA     s:5139
         2 000173   000442 710000 2                  TRA     s:5139
         2 000174   000442 710000 2                  TRA     s:5139
         2 000175   000305 710000 2                  TRA     s:5104
         2 000176   000442 710000 2                  TRA     s:5139
         2 000177   000442 710000 2                  TRA     s:5139
         2 000200   000226 710000 2                  TRA     s:5080
         2 000201   000442 710000 2                  TRA     s:5139
         2 000202   000442 710000 2                  TRA     s:5139
         2 000203   000442 710000 2                  TRA     s:5139
         2 000204   000442 710000 2                  TRA     s:5139
         2 000205   000442 710000 2                  TRA     s:5139
         2 000206   000442 710000 2                  TRA     s:5139
         2 000207   000442 710000 2                  TRA     s:5139
         2 000210   000305 710000 2                  TRA     s:5104
         2 000211   000305 710000 2                  TRA     s:5104
         2 000212   000442 710000 2                  TRA     s:5139
         2 000213   000305 710000 2                  TRA     s:5104
         2 000214   000305 710000 2                  TRA     s:5104
         2 000215   000442 710000 2                  TRA     s:5139
         2 000216   000305 710000 2                  TRA     s:5104
         2 000217   000442 710000 2                  TRA     s:5139
         2 000220   000247 710000 2                  TRA     s:5085
         2 000221   000411 710000 2                  TRA     s:5132
         2 000222   000442 710000 2                  TRA     s:5139
         2 000223   000335 710000 2                  TRA     s:5115
PL6.E3A0      #008=VDE$PREAD_NAME_FOR_EVAL File=VDE$PARSE.:VDA5TSI               FRI 07/04/97 11:16 Page:456
         2 000224   000442 710000 2                  TRA     s:5139
         2 000225   000371 710000 2                  TRA     s:5120

     3610     5079    2            CASE (%CLS_BUFFER, %CLS_FILE_STCLASS);

     3611     5080    2              VARPARAM$VALUE.LENGTH# = MINIMUM (%MXNB_NAME_VALUE,

   5080  2 000226   400004 475500                    LDP5    4,,PR4
         2 000227   100002 236100                    LDQ     2,,PR1
         2 000230   000022 732000                    QRS     18
         2 000231   000777 116007                    CMPQ    511,DL
         2 000232   000234 604400 2                  TMOZ    s:5080+6
         2 000233   000777 236007                    LDQ     511,DL
         2 000234   000033 736000                    QLS     27
         2 000235   500000 552140                    STBQ    0,'40'O,PR5

     3612     5081    2                NAME$VALUE.LENGTH#);
     3613     5082    2              VARPARAM$VALUE.BYTES = NAME$VALUE.BYTES;

   5082  2 000236   400004 475500                    LDP5    4,,PR4
         2 000237   500000 236100                    LDQ     0,,PR5
         2 000240   000033 772000                    QRL     27
         2 000241   100002 220100                    LDX0    2,,PR1
         2 000242   000000 621006                    EAX1    0,QL
         2 000243   040140 100540                    MLR     fill='040'O
         2 000244   100002 400010                    ADSC9   2,,PR1                   cn=2,n=*X0
         2 000245   500000 200011                    ADSC9   0,,PR5                   cn=1,n=*X1
         2 000246   000454 710000 2                  TRA     s:5143

     3614     5083
     3615     5084    2            CASE (%CLS_BLOCK_BUFFER, %CLS_PTR_BLOCK_DESC);

     3616     5085    2              IF NAME$VALUE.OBJECT.CLASS# = %CLS_PTR_BLOCK_DESC THEN

   5085  2 000247   000040 100003                    CMPX0   32,DU
         2 000250   000254 601000 2                  TNZ     s:5088

PL6.E3A0      #008=VDE$PREAD_NAME_FOR_EVAL File=VDE$PARSE.:VDA5TSI               FRI 07/04/97 11:16 Page:457
     3617     5086    2                 BLOCK_DESC$ = NAME$POINTER.V$;

   5086  2 000251   100003 236100                    LDQ     3,,PR1
         2 000252   200012 756100                    STQ     BLOCK_DESC$,,AUTO
         2 000253   000257 710000 2                  TRA     s:5089

     3618     5087    2              ELSE
     3619     5088    2                 BLOCK_DESC$ = PINCRW(NAME_VALUE$, SIZEW(VD$BUFFER_HEADER));

   5088  2 000254   200006 236100                    LDQ     NAME_VALUE$,,AUTO
         2 000255   000003 036003                    ADLQ    3,DU
         2 000256   200012 756100                    STQ     BLOCK_DESC$,,AUTO

     3620     5089    2              CALL VDG$FORMAT_BLOCK_DESC (BLOCK$DESC, %MXNB_NAME_VALUE,

   5089  2 000257   400004 475500                    LDP5    4,,PR4
         2 000260   200010 636500                    EPPR6   NB_VALUE,,AUTO
         2 000261   200022 456500                    STP6    STREAM$+5,,AUTO
         2 000262   000000 236000 3                  LDQ     0
         2 000263   200021 756100                    STQ     STREAM$+4,,AUTO
         2 000264   200023 455500                    STP5    STREAM$+6,,AUTO
         2 000265   200023 236100                    LDQ     STREAM$+6,,AUTO
         2 000266   200000 036007                    ADLQ    65536,DL
         2 000267   200020 756100                    STQ     STREAM$+3,,AUTO
         2 000270   000004 236000 3                  LDQ     4
         2 000271   200012 235100                    LDA     BLOCK_DESC$,,AUTO
         2 000272   200016 757100                    STAQ    STREAM$+1,,AUTO
         2 000273   200016 630500                    EPPR0   STREAM$+1,,AUTO
         2 000274   000023 631400 xsym               EPPR1   B_VECTNIL+19
         2 000275   000000 701000 xent               TSX1    VDG$FORMAT_BLOCK_DESC
         2 000276   000000 011000                    NOP     0

     3621     5090    2                VARPARAM$VALUE.BYTES, 0, NB_VALUE);
     3622     5091    2              VARPARAM$VALUE.LENGTH# = NB_VALUE;

   5091  2 000277   200003 470500                    LDP0    @VARPARAM,,AUTO
         2 000300   000004 471500                    LDP1    4,,PR0
PL6.E3A0      #008=VDE$PREAD_NAME_FOR_EVAL File=VDE$PARSE.:VDA5TSI               FRI 07/04/97 11:16 Page:458
         2 000301   200010 236100                    LDQ     NB_VALUE,,AUTO
         2 000302   000033 736000                    QLS     27
         2 000303   100000 552140                    STBQ    0,'40'O,PR1
         2 000304   000454 710000 2                  TRA     s:5143

     3623     5092
     3624     5093                /*
     3625     5094                *  Value is binary or structured:  translate to ASCII.
     3626     5095                *  Note that boolean and enumerated object-classes will be
     3627     5096                *    translated into their numbers; however, structured
     3628     5097                *    object-classes will be translated into textual descriptions.
     3629     5098                */
     3630     5099
     3631     5100    2            CASE (%CLS_NUMBER, %CLS_BOOLEAN, %CLS_ORG, %CLS_KEY_TYPE,

     3632     5101    2                %CLS_EXIST, %CLS_NAME_DATA_TYPE, %CLS_COMPONENT, %CLS_POINT,
     3633     5102    2                %CLS_DIRECTION);
     3634     5103                   /* Force ASCII-decimal output by passing %CLS_NUMBER */
     3635     5104    2              CALL VDG$FORMAT_NUMBER (%CLS_NUMBER, NAME$NUMBER.V#,

   5104  2 000305   400004 475500                    LDP5    4,,PR4
         2 000306   200010 636500                    EPPR6   NB_VALUE,,AUTO
         2 000307   200023 456500                    STP6    STREAM$+6,,AUTO
         2 000310   000000 236000 3                  LDQ     0
         2 000311   200022 756100                    STQ     STREAM$+5,,AUTO
         2 000312   200024 455500                    STP5    STREAM$+7,,AUTO
         2 000313   200024 236100                    LDQ     STREAM$+7,,AUTO
         2 000314   200000 036007                    ADLQ    65536,DL
         2 000315   000004 235000 3                  LDA     4
         2 000316   200020 757100                    STAQ    STREAM$+3,,AUTO
         2 000317   200006 236100                    LDQ     NAME_VALUE$,,AUTO
         2 000320   000003 036003                    ADLQ    3,DU
         2 000321   000006 235000 3                  LDA     6
         2 000322   200016 757100                    STAQ    STREAM$+1,,AUTO
         2 000323   200016 630500                    EPPR0   STREAM$+1,,AUTO
         2 000324   000024 631400 xsym               EPPR1   B_VECTNIL+20
         2 000325   000000 701000 xent               TSX1    VDG$FORMAT_NUMBER
PL6.E3A0      #008=VDE$PREAD_NAME_FOR_EVAL File=VDE$PARSE.:VDA5TSI               FRI 07/04/97 11:16 Page:459
         2 000326   000000 011000                    NOP     0

     3636     5105    2                %MXNB_NAME_VALUE, VARPARAM$VALUE.BYTES, 0, NB_VALUE);
     3637     5106    2              VARPARAM$VALUE.LENGTH# = NB_VALUE;

   5106  2 000327   200003 470500                    LDP0    @VARPARAM,,AUTO
         2 000330   000004 471500                    LDP1    4,,PR0
         2 000331   200010 236100                    LDQ     NB_VALUE,,AUTO
         2 000332   000033 736000                    QLS     27
         2 000333   100000 552140                    STBQ    0,'40'O,PR1
         2 000334   000454 710000 2                  TRA     s:5143

     3638     5107
     3639     5108    2            CASE (%CLS_PTR_KEY);

     3640     5109                   /*N*
     3641     5110                   *N*  VDG$FORMAT_KEY only works for string keys and
     3642     5111                   *N*      edit keys.  For consec files, we should call
     3643     5112                   *N*      VDG$FORMAT_NUMBER.  But who knows what type of
     3644     5113                   *N*      numeric key this is at this point???
     3645     5114                   *N*/
     3646     5115    2              CALL VDG$FORMAT_KEY (NAME$POINTER.V$->VD$KEY,

   5115  2 000335   100003 475500                    LDP5    3,,PR1
         2 000336   400004 476500                    LDP6    4,,PR4
         2 000337   200010 637500                    EPPR7   NB_VALUE,,AUTO
         2 000340   200022 457500                    STP7    STREAM$+5,,AUTO
         2 000341   000000 236000 3                  LDQ     0
         2 000342   200021 756100                    STQ     STREAM$+4,,AUTO
         2 000343   200023 456500                    STP6    STREAM$+6,,AUTO
         2 000344   200023 236100                    LDQ     STREAM$+6,,AUTO
         2 000345   200000 036007                    ADLQ    65536,DL
         2 000346   200020 756100                    STQ     STREAM$+3,,AUTO
         2 000347   000004 236000 3                  LDQ     4
         2 000350   200017 756100                    STQ     STREAM$+2,,AUTO
         2 000351   200016 455500                    STP5    STREAM$+1,,AUTO
         2 000352   200016 630500                    EPPR0   STREAM$+1,,AUTO
PL6.E3A0      #008=VDE$PREAD_NAME_FOR_EVAL File=VDE$PARSE.:VDA5TSI               FRI 07/04/97 11:16 Page:460
         2 000353   000023 631400 xsym               EPPR1   B_VECTNIL+19
         2 000354   000000 701000 xent               TSX1    VDG$FORMAT_KEY
         2 000355   000000 011000                    NOP     0

     3647     5116    2                %MXNB_NAME_VALUE, VARPARAM$VALUE.BYTES, 0, NB_VALUE);
     3648     5117    2              VARPARAM$VALUE.BYTES = NAME$VALUE.BYTES;

   5117  2 000356   200003 470500                    LDP0    @VARPARAM,,AUTO
         2 000357   000004 471500                    LDP1    4,,PR0
         2 000360   100000 236100                    LDQ     0,,PR1
         2 000361   000033 772000                    QRL     27
         2 000362   200006 473500                    LDP3    NAME_VALUE$,,AUTO
         2 000363   300002 220100                    LDX0    2,,PR3
         2 000364   000000 621006                    EAX1    0,QL
         2 000365   040140 100540                    MLR     fill='040'O
         2 000366   300002 400010                    ADSC9   2,,PR3                   cn=2,n=*X0
         2 000367   100000 200011                    ADSC9   0,,PR1                   cn=1,n=*X1
         2 000370   000454 710000 2                  TRA     s:5143

     3649     5118
     3650     5119    2            CASE (%CLS_PTR_TEXTC);

     3651     5120    2              VARPARAM$VALUE.LENGTH# = NAME$POINTER.V$->VD$TEXTC.LENGTH#;

   5120  2 000371   400004 475500                    LDP5    4,,PR4
         2 000372   100003 476500                    LDP6    3,,PR1
         2 000373   600000 236100                    LDQ     0,,PR6
         2 000374   500000 552140                    STBQ    0,'40'O,PR5

     3652     5121    2              VARPARAM$VALUE.BYTES = NAME$POINTER.V$->VD$TEXTC.BYTES;

   5121  2 000375   400004 475500                    LDP5    4,,PR4
         2 000376   500000 236100                    LDQ     0,,PR5
         2 000377   000033 772000                    QRL     27
         2 000400   100003 476500                    LDP6    3,,PR1
         2 000401   000000 620006                    EAX0    0,QL
         2 000402   600000 236100                    LDQ     0,,PR6
PL6.E3A0      #008=VDE$PREAD_NAME_FOR_EVAL File=VDE$PARSE.:VDA5TSI               FRI 07/04/97 11:16 Page:461
         2 000403   000033 772000                    QRL     27
         2 000404   000000 621006                    EAX1    0,QL
         2 000405   040140 100540                    MLR     fill='040'O
         2 000406   600000 200011                    ADSC9   0,,PR6                   cn=1,n=*X1
         2 000407   500000 200010                    ADSC9   0,,PR5                   cn=1,n=*X0
         2 000410   000454 710000 2                  TRA     s:5143

     3653     5122
     3654     5123    2            CASE (%CLS_PTR_FILE_NODE);

     3655     5124                   %GETKEY (KEY=NAME$POINTER.V$->VD$FILE_NODE.DESC.KEY,
     3656     5125                   PTR=NODE_KEY$);

   5132  2 000411   100003 475500                    LDP5    3,,PR1
         2 000412   500004 721100                    LXL1    4,,PR5
         2 000413   000002 101003                    CMPX1   2,DU
         2 000414   000421 601000 2                  TNZ     s:5132+8

   5132  2 000415   500005 476500                    LDP6    5,,PR5
         2 000416   600002 637500                    EPPR7   2,,PR6
         2 000417   200011 457500                    STP7    NODE_KEY$,,AUTO
         2 000420   000423 710000 2                  TRA     s:5135

   5132  2 000421   500005 636500                    EPPR6   5,,PR5
         2 000422   200011 456500                    STP6    NODE_KEY$,,AUTO

     3657     5135    2              VARPARAM$VALUE.LENGTH# = NODE$KEY.LENGTH#;

   5135  2 000423   400004 476500                    LDP6    4,,PR4
         2 000424   200011 477500                    LDP7    NODE_KEY$,,AUTO
         2 000425   700000 236100                    LDQ     0,,PR7
         2 000426   600000 552140                    STBQ    0,'40'O,PR6

     3658     5136    2              VARPARAM$VALUE.BYTES = NODE$KEY.BYTES;

   5136  2 000427   400004 475500                    LDP5    4,,PR4
         2 000430   500000 236100                    LDQ     0,,PR5
PL6.E3A0      #008=VDE$PREAD_NAME_FOR_EVAL File=VDE$PARSE.:VDA5TSI               FRI 07/04/97 11:16 Page:462
         2 000431   000033 772000                    QRL     27
         2 000432   000000 620006                    EAX0    0,QL
         2 000433   700000 236100                    LDQ     0,,PR7
         2 000434   000033 772000                    QRL     27
         2 000435   000000 621006                    EAX1    0,QL
         2 000436   040140 100540                    MLR     fill='040'O
         2 000437   700000 200011                    ADSC9   0,,PR7                   cn=1,n=*X1
         2 000440   500000 200010                    ADSC9   0,,PR5                   cn=1,n=*X0
         2 000441   000454 710000 2                  TRA     s:5143

     3659     5137
     3660     5138    2            CASE (ELSE);

     3661     5139    2              VARPARAM$VALUE.LENGTH# = LENGTHC(%CHR_BAD_VALUE);

   5139  2 000442   400004 475500                    LDP5    4,,PR4
         2 000443   002000 236003                    LDQ     1024,DU
         2 000444   500000 552140                    STBQ    0,'40'O,PR5

     3662     5140    2              VARPARAM$VALUE.BYTES = %CHR_BAD_VALUE;

   5140  2 000445   400004 475500                    LDP5    4,,PR4
         2 000446   500000 236100                    LDQ     0,,PR5
         2 000447   000033 772000                    QRL     27
         2 000450   000000 620006                    EAX0    0,QL
         2 000451   040140 100400                    MLR     fill='040'O
         2 000452   000011 000002 1                  ADSC9   NAME_LOC+9               cn=0,n=2
         2 000453   500000 200010                    ADSC9   0,,PR5                   cn=1,n=*X0

     3663     5141    2            END;

     3664     5142
     3665     5143    1           RETURN;

   5143  2 000454   000000 702200 xent               TSX2  ! X66_ARET

     3666     5144
PL6.E3A0      #008=VDE$PREAD_NAME_FOR_EVAL File=VDE$PARSE.:VDA5TSI               FRI 07/04/97 11:16 Page:463
     3667     5145
     3668     5146
     3669     5147    1   NAME_HAS_NO_VALUE_FAILURE:
     3670     5148    1           VARPARAM.ERR.CODE = %E$NAME_HAS_NO_VALUE;

   5148  2 000455   200003 474500       NAME_HAS_NO* LDP4    @VARPARAM,,AUTO
         2 000456   400003 236100                    LDQ     3,,PR4
         2 000457   000007 376000 3                  ANQ     7
         2 000460   001520 276007                    ORQ     848,DL
         2 000461   400003 756100                    STQ     3,,PR4

     3671     5149    1           CALL VDG$OALLOC (%CLS_ERR, VD_ERR$)

   5149  2 000462   200013 631500                    EPPR1   VD_ERR$,,AUTO
         2 000463   200017 451500                    STP1    STREAM$+2,,AUTO
         2 000464   000010 236000 3                  LDQ     8
         2 000465   200016 756100                    STQ     STREAM$+1,,AUTO
         2 000466   200016 630500                    EPPR0   STREAM$+1,,AUTO
         2 000467   000020 631400 xsym               EPPR1   B_VECTNIL+16
         2 000470   000000 701000 xent               TSX1    VDG$OALLOC
         2 000471   000567 702000 2                  TSX2    LREAD_FAILED

     3672     5150    1             ALTRET (OALLOC_FAILED);
     3673     5151    1           VD$ERR.ERR.CODE# = %E$NAME_HAS_NO_VALUE;

   5151  2 000472   200013 470500                    LDP0    VD_ERR$,,AUTO
         2 000473   000002 236100                    LDQ     2,,PR0
         2 000474   000007 376000 3                  ANQ     7
         2 000475   001520 276007                    ORQ     848,DL
         2 000476   000002 756100                    STQ     2,,PR0

     3674     5152    1           VD$ERR.FLAGLEV# = %FLV_SERIOUS;

   5152  2 000477   000003 220003                    LDX0    3,DU
         2 000500   200013 470500                    LDP0    VD_ERR$,,AUTO
         2 000501   000003 740100                    STX0    3,,PR0

PL6.E3A0      #008=VDE$PREAD_NAME_FOR_EVAL File=VDE$PARSE.:VDA5TSI               FRI 07/04/97 11:16 Page:464
     3675     5153    1           VD$ERR.CMDLINE_INDEX# = VARPARAM.CPOS#;

   5153  2 000502   200003 470500                    LDP0    @VARPARAM,,AUTO
         2 000503   000001 721100                    LXL1    1,,PR0
         2 000504   200013 471500                    LDP1    VD_ERR$,,AUTO
         2 000505   100003 441100                    SXL1    3,,PR1

     3676     5154    1           SUBST_FIELD$ = PINCRW(VD_ERR$, LENGTHW(VD$ERR));

   5154  2 000506   200013 236100                    LDQ     VD_ERR$,,AUTO
         2 000507   000005 036003                    ADLQ    5,DU
         2 000510   200014 756100                    STQ     SUBST_FIELD$,,AUTO

     3677     5155    1           SUBST$POINTER.OBJECT.CLASS# (0) = %CLS_PTR_TEXTC;

   5155  2 000511   000045 221003                    LDX1    37,DU
         2 000512   200014 471500                    LDP1    SUBST_FIELD$,,AUTO
         2 000513   100000 741100                    STX1    0,,PR1

     3678     5156    1           SUBST$POINTER.V$ (0) = ADDR(UC_NAME.LENGTH#);

   5156  2 000514   000011 236000 3                  LDQ     9
         2 000515   100003 756100                    STQ     3,,PR1

     3679     5157    2           IF NDT ~= 0 THEN DO;

   5157  2 000516   200007 235100                    LDA     NDT,,AUTO
         2 000517   000523 600000 2                  TZE     s:5161

     3680     5158    2              SUBST$NUMBER.OBJECT.CLASS# (1) = %CLS_NAME_DATA_TYPE;

   5158  2 000520   000031 222003                    LDX2    25,DU
         2 000521   100004 742100                    STX2    4,,PR1

     3681     5159    2              SUBST$NUMBER.V# (1) = NDT;

   5159  2 000522   100007 755100                    STA     7,,PR1
PL6.E3A0      #008=VDE$PREAD_NAME_FOR_EVAL File=VDE$PARSE.:VDA5TSI               FRI 07/04/97 11:16 Page:465

     3682     5160    2              END;

     3683     5161    1           ALTRETURN;

   5161  2 000523   000000 702200 xent               TSX2  ! X66_AALT

     3684     5162
     3685     5163
     3686     5164    1   CANT_ACCESS_NODE_FAILURE:
     3687     5165    1           VARPARAM.ERR.CODE = %E$CANT_ACCESS_NODE;

   5165  2 000524   200003 475500       CANT_ACCESS* LDP5    @VARPARAM,,AUTO
         2 000525   500003 236100                    LDQ     3,,PR5
         2 000526   000007 376000 3                  ANQ     7
         2 000527   003770 276007                    ORQ     2040,DL
         2 000530   500003 756100                    STQ     3,,PR5

     3688     5166    1           CALL VDG$OALLOC (%CLS_ERR, VD_ERR$)

   5166  2 000531   200013 631500                    EPPR1   VD_ERR$,,AUTO
         2 000532   200017 451500                    STP1    STREAM$+2,,AUTO
         2 000533   000010 236000 3                  LDQ     8
         2 000534   200016 756100                    STQ     STREAM$+1,,AUTO
         2 000535   200016 630500                    EPPR0   STREAM$+1,,AUTO
         2 000536   000020 631400 xsym               EPPR1   B_VECTNIL+16
         2 000537   000000 701000 xent               TSX1    VDG$OALLOC
         2 000540   000567 702000 2                  TSX2    LREAD_FAILED

     3689     5167    1             ALTRET (OALLOC_FAILED);
     3690     5168    1           VD$ERR.ERR.CODE# = %E$CANT_ACCESS_NODE;

   5168  2 000541   200013 470500                    LDP0    VD_ERR$,,AUTO
         2 000542   000002 236100                    LDQ     2,,PR0
         2 000543   000007 376000 3                  ANQ     7
         2 000544   003770 276007                    ORQ     2040,DL
         2 000545   000002 756100                    STQ     2,,PR0
PL6.E3A0      #008=VDE$PREAD_NAME_FOR_EVAL File=VDE$PARSE.:VDA5TSI               FRI 07/04/97 11:16 Page:466

     3691     5169    1           VD$ERR.FLAGLEV# = %FLV_SERIOUS;

   5169  2 000546   000003 220003                    LDX0    3,DU
         2 000547   200013 470500                    LDP0    VD_ERR$,,AUTO
         2 000550   000003 740100                    STX0    3,,PR0

     3692     5170    1           VD$ERR.CMDLINE_INDEX# = VARPARAM.CPOS#;

   5170  2 000551   200003 470500                    LDP0    @VARPARAM,,AUTO
         2 000552   000001 721100                    LXL1    1,,PR0
         2 000553   200013 471500                    LDP1    VD_ERR$,,AUTO
         2 000554   100003 441100                    SXL1    3,,PR1

     3693     5171    1           SUBST_FIELD$ = PINCRW(VD_ERR$, SIZEW(VD$ERR));

   5171  2 000555   200013 236100                    LDQ     VD_ERR$,,AUTO
         2 000556   000005 036003                    ADLQ    5,DU
         2 000557   200014 756100                    STQ     SUBST_FIELD$,,AUTO

     3694     5172    1           SUBST$POINTER.OBJECT.CLASS# (0) = %CLS_PTR_KEY;

   5172  2 000560   000043 221003                    LDX1    35,DU
         2 000561   200014 471500                    LDP1    SUBST_FIELD$,,AUTO
         2 000562   100000 741100                    STX1    0,,PR1

     3695     5173    1           SUBST$POINTER.V$ (0) = ADDR(FILE$NODE.DESC.KEY);

   5173  2 000563   200005 236100                    LDQ     FILE_NODE$,,AUTO
         2 000564   000004 036003                    ADLQ    4,DU
         2 000565   100003 756100                    STQ     3,,PR1

     3696     5174    1           ALTRETURN;

   5174  2 000566   000000 702200 xent               TSX2  ! X66_AALT

   5173  2 000567                       LREAD_FAILED null
PL6.E3A0      #008=VDE$PREAD_NAME_FOR_EVAL File=VDE$PARSE.:VDA5TSI               FRI 07/04/97 11:16 Page:467
   5173  2 000567                       OALLOC_FAIL* null
     3697     5175
     3698     5176
     3699     5177    1   LREAD_FAILED: ;
     3700     5178    1   OALLOC_FAILED: ;
     3701     5179    1           VARPARAM.ERR = VD_6E.ERR_TAIL$->VD$ERR.ERR;

   5179  2 000567   000032 470400 xsym               LDP0    VD_6E+26
         2 000570   000002 236100                    LDQ     2,,PR0
         2 000571   200003 471500                    LDP1    @VARPARAM,,AUTO
         2 000572   100003 756100                    STQ     3,,PR1

     3702     5180    1           ALTRETURN;

   5180  2 000573   000000 702200 xent               TSX2  ! X66_AALT
     3703     5181
     3704     5182
     3705     5183    1   END VDE$PREAD_NAME_FOR_EVAL;
     3706     5184        %EOD;

PL6.E3A0      #008=VDE$PREAD_NAME_FOR_EVAL File=VDE$PARSE.:VDA5TSI               FRI 07/04/97 11:16 Page:468
--  Include file information  --

   B$TABLES_C.:LIBRARY  cannot be made into a system file and is referenced.
   XUE_SUBS_C.:LIBRARY  is referenced.
   XUE_MACRO_C.:LIBRARY  is referenced.
   VD_PERR_C.:VDA5TOU  is referenced.
   VD_MACROS_M.:VDA5TOU  is referenced.
   B$JIT_C.:E04TOU  was found in the system file and is never referenced.
   CP_6_C.:E04TOU  was found in the system file and is never referenced.
      No diagnostics issued in procedure VDE$PREAD_NAME_FOR_EVAL.
PL6.E3A0      #008=VDE$PREAD_NAME_FOR_EVAL File=VDE$PARSE.:VDA5TSI               FRI 07/04/97 11:16 Page:469

 **** Variables and constants ****

  ****  Section 000  Data  VDE$PREAD_NAME_FOR_EVAL

  ****  Scalars and arrays  ****
OctLoc.c.b A Datatyp(siz) R M Lvl/name                 OctLoc.c.b A Datatyp(siz) R M Lvl/name

     0-0-0/w STRC(360)   r     1 UC_NAME

  ****  Section 001 RoData VDE$PREAD_NAME_FOR_EVAL

  ****  Scalars and arrays  ****
OctLoc.c.b A Datatyp(siz) R M Lvl/name                 OctLoc.c.b A Datatyp(siz) R M Lvl/name

     0-0-0/w STRC(324)   r     1 NAME_LOC

  ****  Auto variables  ****

  ****  Scalars and arrays  ****
OctLoc.c.b A Datatyp(siz) R M Lvl/name                 OctLoc.c.b A Datatyp(siz) R M Lvl/name

     3-0-0/w PTR         r     1 @VARPARAM                 12-0-0/w PTR         r     1 BLOCK_DESC$
     5-0-0/w PTR         r     1 FILE_NODE$                 6-0-0/w PTR         r     1 NAME_VALUE$
    10-0-0/w SBIN        r     1 NB_VALUE                   7-0-0/w SBIN        r     1 NDT
    11-0-0/w PTR         r     1 NODE_KEY$                  4-0-0/w PTR         r     1 PORT_KEY$
    15-0-0/w PTR         r     1 STREAM$                   14-0-0/w PTR         r     1 SUBST_FIELD$
    *0-0-0/w ASTR(225)   r     1 VARPARAM                  13-0-0/w PTR         r     1 VD_ERR$

  ****  SYMREF variables  ****

  ****  Scalars and arrays  ****
OctLoc.c.b A Datatyp(siz) R M Lvl/name                 OctLoc.c.b A Datatyp(siz) R M Lvl/name

     0-0-0/w PTR         r     1 B$XL_UPPER$                0-0-0/w STRC(144)   r     1 VD_$$INCANTATION
     0-0-0/w STRC(22644) r     1 VD_6E

  ****  BASED and DCB variables  ****
PL6.E3A0      #008=VDE$PREAD_NAME_FOR_EVAL File=VDE$PARSE.:VDA5TSI               FRI 07/04/97 11:16 Page:470

  ****  Scalars and arrays  ****
OctLoc.c.b A Datatyp(siz) R M Lvl/name                 OctLoc.c.b A Datatyp(siz) R M Lvl/name

     0-0-0/d STRC(4608)  r     1 B$XL_UPPER                 0-0-0/w STRC(936)   r     1 BLOCK$DESC
     0-0-0/w STRC(468)   r     1 FILE$NODE                  0-0-0/w STRC(288)   r     1 FUNPARAM
     0-0-0/w STRC(144)   r     1 NAME$NUMBER                0-0-0/w STRC(144)   r     1 NAME$POINTER
     0-0-0/w ASTR(90)    r     1 NAME$VALUE                 0-0-0/w ASTR(9)     r     1 NODE$KEY
     0-0-0/w ASTR(9)     r     1 PORT$KEY                   0-0-0/w STRC(864)   r     1 STREAM
     0-0-0/w STRC(144)   r     1 SUBST$NUMBER(0:2)
     0-0-0/w STRC(144)   r     1 SUBST$POINTER(0:2)
     0-0-0/w ASTR(9)     r     1 VARPARAM$VALUE             0-0-0/w STRC(90)    r     1 VD$BUFFER_HEADER
     0-0-0/w STRC(180)   r     1 VD$ERR                     0-0-0/w STRC(468)   r     1 VD$FILE_NODE
     0-0-0/w STRC(72)    r     1 VD$KEY                     0-0-0/w STRC(1944)  r     1 VD$PORT
     0-0-0/w ASTR(9)     r     1 VD$TEXTC                   0-0-0/w ASTR(81)    r     1 VD$TEXTC_REMOTE
     0-0-0/w ASTR(81)    r     1 XUE$OPTION


   Procedure VDE$PREAD_NAME_FOR_EVAL requires 380 words for executable code.
   Procedure VDE$PREAD_NAME_FOR_EVAL requires 22 words of local(AUTO) storage.
PL6.E3A0      #008=VDE$PREAD_NAME_FOR_EVAL File=VDE$PARSE.:VDA5TSI               FRI 07/04/97 11:16 Page:471
          *** CROSS REFERENCE LISTING ***
**     DENOTES     IDENTIFIER DEFINITION
<<                 IDENTIFIER'S VALUE SET
>>                 IDENTIFIER'S VALUE USED
<>                 IDENTIFIER SET AND/OR USED
--                 IDENTIFIER REFERENCED
PL6.E3A0      #008=VDE$PREAD_NAME_FOR_EVAL File=VDE$PARSE.:VDA5TSI               FRI 07/04/97 11:16 Page:472
          MINI XREF LISTING

B$XL_UPPER
      3580**DCL      4985>>CALLBLT  5017>>CALLBLT
B$XL_UPPER$
      3579**DCL      3580--IMP-PTR  4985>>CALLBLT  5017>>CALLBLT
BLOCK$DESC
      4210**DCL      5089<>CALL
BLOCK_DESC$
      3780**DCL      4210--IMP-PTR  5086<<ASSIGN   5088<<ASSIGN   5089>>CALL
CANT_ACCESS_NODE_FAILURE
      5165**LABEL    5054--GOTO
COMMON
      5017**LABEL    4987--GOTO
FILE$NODE.ACCESS
      3961**DCL      5052>>IF
FILE$NODE.DESC.KEY
      3986**DCL      5173--ASSIGN
FILE_NODE$
      3775**DCL      3923--IMP-PTR  5049<<ASSIGN   5051>>IF       5052>>IF       5173>>ASSIGN
FUNPARAM.OPTION$
      4911**DCL      5015>>ASSIGN   5017>>CALLBLT  5017>>CALLBLT
LOOKUP_NAME
      5031**LABEL    5058--EXIT
LREAD_FAILED
      5173**LABEL    5032--CALLALT
NAME$NUMBER.V#
      4131**DCL      5104<>CALL
NAME$POINTER.V$
      4176**DCL      5086>>ASSIGN   5115>>CALL     5120>>ASSIGN   5121>>ASSIGN   5121>>ASSIGN   5132>>IF
      5132>>ASSIGN   5132>>ASSIGN
NAME$VALUE.BYTES
      4084**DCL      5082>>ASSIGN   5117>>ASSIGN
NAME$VALUE.LENGTH#
PL6.E3A0      #008=VDE$PREAD_NAME_FOR_EVAL File=VDE$PARSE.:VDA5TSI               FRI 07/04/97 11:16 Page:473
      4082**DCL      4084--IMP-SIZ  5080>>ASSIGN   5082>>ASSIGN   5117>>ASSIGN
NAME$VALUE.OBJECT.CLASS#
      4080**DCL      5078>>DOCASE   5085>>IF
NAME_HAS_NO_VALUE_FAILURE
      5148**LABEL    5067--GOTO     5075--GOTO
NAME_LOC
      3707**DCL      5032<>CALL
NAME_VALUE$
      3776**DCL      4056--IMP-PTR  4097--IMP-PTR  4150--IMP-PTR  5026<<ASSIGN   5056<<ASSIGN   5074>>IF
      5078>>DOCASE   5080>>ASSIGN   5082>>ASSIGN   5082>>ASSIGN   5085>>IF       5086>>ASSIGN   5088>>ASSIGN
      5104>>CALL     5115>>CALL     5117>>ASSIGN   5117>>ASSIGN   5120>>ASSIGN   5121>>ASSIGN   5121>>ASSIGN
      5132>>IF       5132>>ASSIGN   5132>>ASSIGN
NB_VALUE
      3778**DCL      5089<>CALL     5091>>ASSIGN   5104<>CALL     5106>>ASSIGN   5115<>CALL
NDT
      3777**DCL      5024<<ASSIGN   5065>>IF       5066<<ASSIGN   5070<<ASSIGN   5157>>IF       5159>>ASSIGN
NODE$KEY.BYTES
      4197**DCL      5136>>ASSIGN
NODE$KEY.LENGTH#
      4195**DCL      4197--IMP-SIZ  5135>>ASSIGN   5136>>ASSIGN
NODE_KEY$
      3779**DCL      4187--IMP-PTR  5132<<ASSIGN   5132<<ASSIGN   5135>>ASSIGN   5136>>ASSIGN   5136>>ASSIGN
OALLOC_FAILED
      5173**LABEL    5149--CALLALT  5166--CALLALT
PORT$KEY.BYTES
      3910**DCL      5046>>IF
PORT$KEY.LENGTH#
      3908**DCL      3910--IMP-SIZ  5046>>IF
PORT_KEY$
      3774**DCL      3900--IMP-PTR  5043<<ASSIGN   5043<<ASSIGN   5046>>IF       5046>>IF
STREAM
      3794**DCL      5032<>CALL
STREAM.PORT$
      3820**DCL      5043>>IF       5043>>ASSIGN   5043>>ASSIGN   5049>>ASSIGN   5056>>ASSIGN
STREAM$
      3783**DCL      3794--IMP-PTR  5025<<ASSIGN   5032>>CALL     5043>>IF       5043>>ASSIGN   5043>>ASSIGN
PL6.E3A0      #008=VDE$PREAD_NAME_FOR_EVAL File=VDE$PARSE.:VDA5TSI               FRI 07/04/97 11:16 Page:474
      5049>>ASSIGN   5056>>ASSIGN   5069<<ASSIGN
SUBST$NUMBER.OBJECT.CLASS#
      4487**DCL      5158<<ASSIGN
SUBST$NUMBER.V#
      4489**DCL      5159<<ASSIGN
SUBST$POINTER.OBJECT.CLASS#
      4442**DCL      5155<<ASSIGN   5172<<ASSIGN
SUBST$POINTER.V$
      4444**DCL      5156<<ASSIGN   5173<<ASSIGN
SUBST_FIELD$
      3782**DCL      4418--IMP-PTR  4455--IMP-PTR  5154<<ASSIGN   5155>>ASSIGN   5156>>ASSIGN   5158>>ASSIGN
      5159>>ASSIGN   5171<<ASSIGN   5172>>ASSIGN   5173>>ASSIGN
UC_NAME
      3656**DCL      3747--DCLINIT  4982<<ASSIGN
UC_NAME.BYTES
      3689**DCL      4985<<CALLBLT  5017<<CALLBLT  5046>>IF
UC_NAME.LENGTH#
      3685**DCL      4984<<ASSIGN   4985>>CALLBLT  5015<<ASSIGN   5046>>IF       5156--ASSIGN
UC_NAME.OBJECT.CLASS#
      3683**DCL      4983<<ASSIGN
VARPARAM
      3444**DCL        30--PROC     5013--ENTRY    5015--ASSIGN   5017--CALLBLT  5017--CALLBLT
VARPARAM.CODE#
      3448**DCL      4980>>IF
VARPARAM.CPOS#
      3454**DCL      5153>>ASSIGN   5170>>ASSIGN
VARPARAM.ERR
      3475**DCL      5179<<ASSIGN
VARPARAM.ERR.CODE
      3479**DCL      5148<<ASSIGN   5165<<ASSIGN
VARPARAM.VALUE$
      3489**DCL      4016--IMP-PTR  5077>>ASSIGN   5080>>ASSIGN   5082>>ASSIGN   5082>>ASSIGN   5089>>CALL
      5089>>CALL     5091>>ASSIGN   5104>>CALL     5104>>CALL     5106>>ASSIGN   5115>>CALL     5115>>CALL
      5117>>ASSIGN   5117>>ASSIGN   5120>>ASSIGN   5121>>ASSIGN   5121>>ASSIGN   5135>>ASSIGN   5136>>ASSIGN
      5136>>ASSIGN   5139>>ASSIGN   5140>>ASSIGN   5140>>ASSIGN
VARPARAM.VARIABLE.COUNT#
PL6.E3A0      #008=VDE$PREAD_NAME_FOR_EVAL File=VDE$PARSE.:VDA5TSI               FRI 07/04/97 11:16 Page:475
      3509**DCL      3523--IMP-SIZ  4984>>ASSIGN   4985>>CALLBLT
VARPARAM.VARIABLE.TEXT#
      3523**DCL      4985>>CALLBLT
VARPARAM$VALUE.BYTES
      4026**DCL      5082<<ASSIGN   5089<>CALL     5104<>CALL     5115<>CALL     5117<<ASSIGN   5121<<ASSIGN
      5136<<ASSIGN   5140<<ASSIGN
VARPARAM$VALUE.LENGTH#
      4024**DCL      4026--IMP-SIZ  5077<<ASSIGN   5080<<ASSIGN   5082>>ASSIGN   5089>>CALL     5091<<ASSIGN
      5104>>CALL     5106<<ASSIGN   5115>>CALL     5117>>ASSIGN   5120<<ASSIGN   5121>>ASSIGN   5135<<ASSIGN
      5136>>ASSIGN   5139<<ASSIGN   5140>>ASSIGN
VD$BUFFER_HEADER
      4659**DCL      5088--ASSIGN
VD$ERR
      4357**DCL      5154--ASSIGN   5171--ASSIGN
VD$ERR.CMDLINE_INDEX#
      4399**DCL      5153<<ASSIGN   5170<<ASSIGN
VD$ERR.ERR
      4394**DCL      5179>>ASSIGN
VD$ERR.ERR.CODE#
      4396**DCL      5151<<ASSIGN   5168<<ASSIGN
VD$ERR.FLAGLEV#
      4399**DCL      5152<<ASSIGN   5169<<ASSIGN
VD$FILE_NODE.DESC.KEY.REP#
      4797**DCL      5132>>IF
VD$FILE_NODE.DESC.KEY.V$
      4797**DCL      5132>>ASSIGN   5132--ASSIGN
VD$KEY
      4695**DCL      5115<>CALL
VD$PORT.CURRENT.KEY.REP#
      4567**DCL      5043>>IF
VD$PORT.CURRENT.KEY.V$
      4567**DCL      5043>>ASSIGN   5043--ASSIGN
VD$PORT.LEVEL.DATA$
      4587**DCL      5056>>ASSIGN
VD$PORT.LEVEL.INTERNAL$
      4587**DCL      5049>>ASSIGN
PL6.E3A0      #008=VDE$PREAD_NAME_FOR_EVAL File=VDE$PARSE.:VDA5TSI               FRI 07/04/97 11:16 Page:476
VD$TEXTC.BYTES
      4719**DCL      5121>>ASSIGN
VD$TEXTC.LENGTH#
      4717**DCL      4719--IMP-SIZ  5120>>ASSIGN   5121>>ASSIGN
VD$TEXTC_REMOTE.LENGTH#
      4644**DCL      4646--IMP-SIZ  5043--ASSIGN   5132--ASSIGN
VDA$LREAD
      3534**DCL-ENT  5032--CALL
VDG$FORMAT_BLOCK_DESC
      3536**DCL-ENT  5089--CALL
VDG$FORMAT_KEY
      3537**DCL-ENT  5115--CALL
VDG$FORMAT_NUMBER
      3535**DCL-ENT  5104--CALL
VDG$OALLOC
      3538**DCL-ENT  5149--CALL     5166--CALL
VD_$$INCANTATION.V#
      3624**DCL      5052>>IF
VD_6E.EQUALS$
      3555**DCL      5025>>ASSIGN
VD_6E.ERR_TAIL$
      3574**DCL      5179>>ASSIGN
VD_6E.LOCATIONS$
      3555**DCL      5069>>ASSIGN
VD_6E.STATS#
      3575**DCL      5022<<ASSIGN   5022>>ASSIGN
VD_ERR$
      3781**DCL      4357--IMP-PTR  5149<>CALL     5151>>ASSIGN   5152>>ASSIGN   5153>>ASSIGN   5154>>ASSIGN
      5166<>CALL     5168>>ASSIGN   5169>>ASSIGN   5170>>ASSIGN   5171>>ASSIGN
XUE$OPTION.COUNT#
      4952**DCL      4967--IMP-SIZ  5015>>ASSIGN   5017>>CALLBLT
XUE$OPTION.TEXT#
      4967**DCL      5017>>CALLBLT

PL6.E3A0      #009=VDE$PFUNCTIONS File=VDE$PARSE.:VDA5TSI                        FRI 07/04/97 11:16 Page:477
     3707        1        /*T***********************************************************/
     3708        2        /*T*                                                         */
     3709        3        /*T* Copyright (c) Bull HN Information Systems Inc., 1997    */
     3710        4        /*T*                                                         */
     3711        5        /*T***********************************************************/
     3712        6
     3713        7        /*D* NAME: VDE$PFUNCTIONS
     3714        8            PARAMETERS:
     3715        9                FUNPARAM - An %XUE_FUNPARAM structure specifying the function
     3716       10                    invocation:
     3717       11                    .CODE# is the %T_FN_xxx code for the function to perform.
     3718       12                    .NOPTS# is the number of valid pointers in .OPTION$.
     3719       13                    .OPTION$ is an array of pointers to XUE_OPTION structures.
     3720       14                        Each entry is for a corresponding parameter of the
     3721       15                        function.
     3722       16                    .CPOS# is the char position of the function invocation
     3723       17                        in the command line (for error reporting).
     3724       18                FUNPARAM.OUT$ points to an uninitialized 512-byte buffer.
     3725       19            INPUT:
     3726       20            OUTPUT:
     3727       21                The buffer at FUNPARAM.OUT$ will contain a TEXTC field containing
     3728       22                    the value of the function.
     3729       23                If an error is found:
     3730       24                    FUNPARAM.ERR will contain the error code word, and a
     3731       25                        VD$ERR will be pushed onto the error chain specifying
     3732       26                        the error encountered.
     3733       27            DESCRIPTION:
     3734       28                This routine is called by X$EVAL when it sees the invocation
     3735       29                of a 6Edit-defined function.  This routine evaluates the
     3736       30                function and returns a value to X$EVAL.  What this routine
     3737       31                does depends on the function:
     3738       32
     3739       33                T_FN_CMDVAR
     3740       34                    Call M$CMDVAR to get the value of the IBEX command variable,
     3741       35                        and return the value to X$EVAL.
     3742       36
     3743       37                T_DEF_NAME
PL6.E3A0      #009=VDE$PFUNCTIONS File=VDE$PARSE.:VDA5TSI                        FRI 07/04/97 11:16 Page:478
     3744       38                    Call VDE$PREAD_NAME_FOR_FUNCTION to get the value of an
     3745       39                        internal variable whose name starts with a "$", and
     3746       40                        return the value to X$EVAL.
     3747       41        */
     3748       42
     3749       43        VDE$PFUNCTIONS: PROC (FUNPARAM) ALTRET;
     3750       44
     3751       45
     3752       46        %INCLUDE VD_MACROS_M;
     3753     2261        %INCLUDE VD_NODES0_E;
     3754     2353        %INCLUDE VD_PERR_C;
     3755     2501        %INCLUDE XUE_MACRO_C;
     3756     3245        %INCLUDE CP_6;
     3757     3326
     3758     3327
     3759     3328        %XUE_FUNPARAM (NAME=FUNPARAM, STCLASS=PARAM);
     3760     3432
     3761     3433
     3762     3434    1   DCL I SBIN;
     3763     3435
     3764     3436
     3765     3437    1   DCL VDE$PREAD_NAME_FOR_FUNCTION ENTRY(1) ALTRET;
     3766     3438    1   DCL VDG$OALLOC          ENTRY (3) ALTRET;
     3767     3439    1   DCL VDG$ESCREECH        ENTRY (3);
     3768     3440
     3769     3441
     3770     3442        %VD_6E (STCLASS=SYMREF);
     3771     3478    1   DCL B$TCB$ PTR SYMREF;
     3772     3479
     3773     3480
     3774     3481        %FPT_CMDVAR (FUN=FETCH, NAME=CV_NAME, PRIVATE=NO, STCLASS=STATIC);
     3775     3498        /* CV_NAME is in static in case we have to report an error */
     3776     3499        %VD_TEXTC (NAME=CV_NAME, STCLASS=STATIC, MXNB=%MXNB_NAME);
     3777     3640
     3778     3641
     3779     3642
     3780     3643    1   DCL XUE_OPTION$ PTR;
PL6.E3A0      #009=VDE$PFUNCTIONS File=VDE$PARSE.:VDA5TSI                        FRI 07/04/97 11:16 Page:479
     3781     3644    1   DCL VD_ERR$ PTR;
     3782     3645
     3783     3646
     3784     3647        %XUE_OPTION (NAME=XUE$OPTION, STCLASS="BASED(XUE_OPTION$)");
     3785     3703        %VD_TEXTC (NAME=VALUE$TEXTC, STCLASS="BASED(FUNPARAM.OUT$)",
     3786     3704            MXNB=%MXNB_NAME_VALUE);
     3787     3845        %VD$ERR (NAME=VD$ERR, STCLASS="BASED(VD_ERR$)");
     3788     3898        %B$TCB (NAME=B$TCB, STCLASS="BASED(B$TCB$)");
     3789     3901        %B$ALT;
     3790     3909
     3791     3910
     3792     3911
     3793     3912    1           XUE_OPTION$ = FUNPARAM.OPTION$ (0);
     3794     3913    2           DO CASE (FUNPARAM.CODE#);
     3795     3914
     3796     3915    2            CASE (%T_FN_CMDVAR);
     3797     3916    2              IF FUNPARAM.NOPTS# ~= 1 THEN
     3798     3917    2                 CALL VDG$ESCREECH (FUNPARAM.NOPTS#);
     3799     3918    2              CV_NAME.LENGTH# = XUE$OPTION.COUNT#;
     3800     3919    2              CV_NAME.BYTES = XUE$OPTION.TEXT#;
     3801     3920
     3802     3921    2              FPT_CMDVAR.VALUE_ = VECTOR(VALUE$TEXTC);
     3803     3922    2              CALL M$CMDVAR (FPT_CMDVAR)
     3804     3923    2                ALTRET (CMDVAR_FAILED);
     3805     3924
     3806     3925    2            CASE (%T_DEF_NAME);
     3807     3926    2              CALL VDE$PREAD_NAME_FOR_FUNCTION (FUNPARAM)
     3808     3927    3              WHENALTRETURN DO; ALTRETURN; END;
     3809     3928
     3810     3929    2            CASE (%T_FUNKEY_EXP);
     3811     3930    2              VALUE$TEXTC.LENGTH# = 1;
     3812     3931    3              DO CASE (XUE$OPTION.CODE#);
     3813     3932    3               CASE(ELSE);
     3814     3933    3                 SUBSTR (VALUE$TEXTC.BYTES,0,1) = BINASC(XUE$OPTION.CODE#);
     3815     3934    3                 RETURN;
     3816     3935    3               CASE(511,513); /* BREAK and the "escape" keyname */
     3817     3936    3                 VALUE$TEXTC.LENGTH# = 2; /* Result is an escape sequence */
PL6.E3A0      #009=VDE$PFUNCTIONS File=VDE$PARSE.:VDA5TSI                        FRI 07/04/97 11:16 Page:480
     3818     3937    3                 SUBSTR (VALUE$TEXTC.BYTES,1,1) = BINASC(XUE$OPTION.CODE#);
     3819     3938    3                 SUBSTR (VALUE$TEXTC.BYTES,0,1) = BINASC(511);
     3820     3939    3                 RETURN;
     3821     3940    3               CASE(512); /* Illegal format ($key(X'nn')) */
     3822     3941        /*            FUNPARAM.ERR.CODE = %E$KEYNAME_NOT_SIMPLE;
     3823     3942                      GOTO REPORT_ERROR; */
     3824     3943    3               CASE(514); /* Illegal position (not first) */
     3825     3944    3                 FUNPARAM.ERR.CODE = %E$KEYNAME_NOT_FIRST;
     3826     3945    3                 GOTO REPORT_ERROR;
     3827     3946    3               END;
     3828     3947
     3829     3948    2            CASE (%T_CNTL_EXP);
     3830     3949    2              I = XUE$OPTION.COUNT#;
     3831     3950    2              VALUE$TEXTC.LENGTH# = I;
     3832     3951    3              DO WHILE I>0;
     3833     3952    3                 I = I-1;
     3834     3953    3                 SUBSTR (VALUE$TEXTC.BYTES,I,1) = BITASC ('037'O & ASCBIT (
     3835     3954    3                   SUBSTR (XUE$OPTION.TEXT#,I,1) ) );
     3836     3955    3                 END;
     3837     3956
     3838     3957    2            CASE (ELSE);
     3839     3958    2              CALL VDG$ESCREECH (FUNPARAM.CODE#);
     3840     3959    2            END;
     3841     3960
     3842     3961    1           RETURN;
     3843     3962
     3844     3963
     3845     3964    1   CMDVAR_FAILED:
     3846     3965    1           FUNPARAM.ERR_POS# = FUNPARAM.CPOS#;
     3847     3966    1           FUNPARAM.ERR = B$TCB.ALT$->B$ALT.ERR;
     3848     3967    1   REPORT_ERROR: ;
     3849     3968    1           CALL VDG$OALLOC (%CLS_ERR, VD_ERR$)
     3850     3969    1             ALTRET (OALLOC_FAILED);
     3851     3970    1           VD$ERR.ERR = FUNPARAM.ERR;
     3852     3971    1           VD$ERR.FLAGLEV# = %FLV_SERIOUS;
     3853     3972    1           VD$ERR.CMDLINE_INDEX# = FUNPARAM.CPOS#;
     3854     3973    1           ALTRETURN;
PL6.E3A0      #009=VDE$PFUNCTIONS File=VDE$PARSE.:VDA5TSI                        FRI 07/04/97 11:16 Page:481
     3855     3974
     3856     3975
     3857     3976    1   OALLOC_FAILED: ;
     3858     3977    1           FUNPARAM.ERR = VD_6E.ERR_TAIL$->VD$ERR.ERR;
     3859     3978    1           ALTRETURN;
     3860     3979
     3861     3980    1   END VDE$PFUNCTIONS;

PL6.E3A0      #009=VDE$PFUNCTIONS File=VDE$PARSE.:VDA5TSI                        FRI 07/04/97 11:16 Page:482
--  Include file information  --

   CP_6.:LIBRARY  cannot be made into a system file and is referenced.
   XUE_MACRO_C.:LIBRARY  is referenced.
   VD_PERR_C.:VDA5TOU  is referenced.
   VD_NODES0_E.:VDA5TOU  is referenced.
   VD_MACROS_M.:VDA5TOU  is referenced.
   B$JIT_C.:E04TOU  was found in the system file and is never referenced.
   CP_6_C.:E04TOU  was found in the system file and is referenced.
      No diagnostics issued in procedure VDE$PFUNCTIONS.

   Procedure VDE$PFUNCTIONS requires 175 words for executable code.
   Procedure VDE$PFUNCTIONS requires 10 words of local(AUTO) storage.

    No errors detected in file VDE$PARSE.:VDA5TSI    .

PL6.E3A0      #009=VDE$PFUNCTIONS File=VDE$PARSE.:VDA5TSI                        FRI 07/04/97 11:16 Page:483

 Object Unit name= VDE$PFUNCTIONS                             File name= VDE$PARSE.:VDA5TOU
 UTS= JUL 04 '97 11:16:21.84 FRI                              Compiler= PL-6/E31         Sev=      00
 SharedLib= :SHARED_SYSTEM                                    Alt SharedLib=


    ****  Control sections  ****

 Sect   Type Bound  Init  Size OctSiz  Section name(segment info)
    0   DCB   even  none     0      0  M$UC
    1   Data  even  none    22     26  VDE$PFUNCTIONS
    2   Proc  even  none   175    257  VDE$PFUNCTIONS
    3  RoData even  none     5      5  VDE$PFUNCTIONS

    ****  Entry defs  ****

                              Check   Calling
                             calling  sequence
  Sect OctLoc Primary Altret sequence   type   Parms  Name
     2      0   yes    yes     yes      Std        1  VDE$PFUNCTIONS

  ****  Entry refs  ****

         Check        Calling
        calling       sequence
Altret sequence SRef   type   Args  Name
         yes           Std       3 VDG$ESCREECH
 yes     yes           Std       3 VDG$OALLOC
 yes     yes           Std       1 VDE$PREAD_NAME_FOR_FUNCTION
                       nStd      0 X66_AUTO_1
                       Std       0 B_CONSPOOL_D
                       nStd      0 X66_AALT
                       nStd      0 X66_ARET
PL6.E3A0      #009=VDE$PFUNCTIONS File=VDE$PARSE.:VDA5TSI                        FRI 07/04/97 11:16 Page:484

  ****  Data refs  ****

  Flags:  r = read only, s = secondary
Flgs Name                             Flgs Name                             Flgs Name
     M$UC                                  VD_6E                                 B$TCB$
     B_VECTNIL

  ****  Segment refs  ****

  Flags:  r = read only, s = secondary
Flgs Name                             Flgs Name                             Flgs Name
     ISSID                                 NULLSID
PL6.E3A0      #009=VDE$PFUNCTIONS File=VDE$PARSE.:VDA5TSI                        FRI 07/04/97 11:16 Page:485


     3707        1        /*T***********************************************************/
     3708        2        /*T*                                                         */
     3709        3        /*T* Copyright (c) Bull HN Information Systems Inc., 1997    */
     3710        4        /*T*                                                         */
     3711        5        /*T***********************************************************/
     3712        6
     3713        7        /*D* NAME: VDE$PFUNCTIONS
     3714        8            PARAMETERS:
     3715        9                FUNPARAM - An %XUE_FUNPARAM structure specifying the function
     3716       10                    invocation:
     3717       11                    .CODE# is the %T_FN_xxx code for the function to perform.
     3718       12                    .NOPTS# is the number of valid pointers in .OPTION$.
     3719       13                    .OPTION$ is an array of pointers to XUE_OPTION structures.
     3720       14                        Each entry is for a corresponding parameter of the
     3721       15                        function.
     3722       16                    .CPOS# is the char position of the function invocation
     3723       17                        in the command line (for error reporting).
     3724       18                FUNPARAM.OUT$ points to an uninitialized 512-byte buffer.
     3725       19            INPUT:
     3726       20            OUTPUT:
     3727       21                The buffer at FUNPARAM.OUT$ will contain a TEXTC field containing
     3728       22                    the value of the function.
     3729       23                If an error is found:
     3730       24                    FUNPARAM.ERR will contain the error code word, and a
     3731       25                        VD$ERR will be pushed onto the error chain specifying
     3732       26                        the error encountered.
     3733       27            DESCRIPTION:
     3734       28                This routine is called by X$EVAL when it sees the invocation
     3735       29                of a 6Edit-defined function.  This routine evaluates the
     3736       30                function and returns a value to X$EVAL.  What this routine
     3737       31                does depends on the function:
     3738       32
     3739       33                T_FN_CMDVAR
     3740       34                    Call M$CMDVAR to get the value of the IBEX command variable,
     3741       35                        and return the value to X$EVAL.
     3742       36
PL6.E3A0      #009=VDE$PFUNCTIONS File=VDE$PARSE.:VDA5TSI                        FRI 07/04/97 11:16 Page:486
     3743       37                T_DEF_NAME
     3744       38                    Call VDE$PREAD_NAME_FOR_FUNCTION to get the value of an
     3745       39                        internal variable whose name starts with a "$", and
     3746       40                        return the value to X$EVAL.
     3747       41        */
     3748       42
     3749       43        VDE$PFUNCTIONS: PROC (FUNPARAM) ALTRET;

     43  2 000000   000000 700200 xent  VDE$PFUNCTI* TSX0  ! X66_AUTO_1
         2 000001   000012 000001                    ZERO    10,1

     3750       44
     3751       45
     3752       46        %INCLUDE VD_MACROS_M;
     3753     2261        %INCLUDE VD_NODES0_E;
     3754     2353        %INCLUDE VD_PERR_C;
     3755     2501        %INCLUDE XUE_MACRO_C;
     3756     3245        %INCLUDE CP_6;
     3757     3326
     3758     3327
     3759     3328        %XUE_FUNPARAM (NAME=FUNPARAM, STCLASS=PARAM);
     3760     3432
     3761     3433
     3762     3434    1   DCL I SBIN;
     3763     3435
     3764     3436
     3765     3437    1   DCL VDE$PREAD_NAME_FOR_FUNCTION ENTRY(1) ALTRET;
     3766     3438    1   DCL VDG$OALLOC          ENTRY (3) ALTRET;
     3767     3439    1   DCL VDG$ESCREECH        ENTRY (3);
     3768     3440
     3769     3441
     3770     3442        %VD_6E (STCLASS=SYMREF);
     3771     3478    1   DCL B$TCB$ PTR SYMREF;
     3772     3479
     3773     3480
     3774     3481        %FPT_CMDVAR (FUN=FETCH, NAME=CV_NAME, PRIVATE=NO, STCLASS=STATIC);
     3775     3498        /* CV_NAME is in static in case we have to report an error */
PL6.E3A0      #009=VDE$PFUNCTIONS File=VDE$PARSE.:VDA5TSI                        FRI 07/04/97 11:16 Page:487
     3776     3499        %VD_TEXTC (NAME=CV_NAME, STCLASS=STATIC, MXNB=%MXNB_NAME);
     3777     3640
     3778     3641
     3779     3642
     3780     3643    1   DCL XUE_OPTION$ PTR;
     3781     3644    1   DCL VD_ERR$ PTR;
     3782     3645
     3783     3646
     3784     3647        %XUE_OPTION (NAME=XUE$OPTION, STCLASS="BASED(XUE_OPTION$)");
     3785     3703        %VD_TEXTC (NAME=VALUE$TEXTC, STCLASS="BASED(FUNPARAM.OUT$)",
     3786     3704            MXNB=%MXNB_NAME_VALUE);
     3787     3845        %VD$ERR (NAME=VD$ERR, STCLASS="BASED(VD_ERR$)");
     3788     3898        %B$TCB (NAME=B$TCB, STCLASS="BASED(B$TCB$)");
     3789     3901        %B$ALT;
     3790     3909
     3791     3910
     3792     3911
     3793     3912    1           XUE_OPTION$ = FUNPARAM.OPTION$ (0);

   3912  2 000002   200003 470500                    LDP0    @FUNPARAM,,AUTO
         2 000003   000007 236100                    LDQ     7,,PR0
         2 000004   200005 756100                    STQ     XUE_OPTION$,,AUTO

     3794     3913    2           DO CASE (FUNPARAM.CODE#);

   3913  2 000005   000000 235100                    LDA     0,,PR0
         2 000006   002057 135007                    SBLA    1071,DL
         2 000007   000015 115007                    CMPA    13,DL
         2 000010   000012 602005 2                  TNC     s:3913+5,AL
         2 000011   000213 710000 2                  TRA     s:3958
         2 000012   000027 710000 2                  TRA     s:3916
         2 000013   000065 710000 2                  TRA     s:3926
         2 000014   000213 710000 2                  TRA     s:3958
         2 000015   000213 710000 2                  TRA     s:3958
         2 000016   000213 710000 2                  TRA     s:3958
         2 000017   000213 710000 2                  TRA     s:3958
         2 000020   000213 710000 2                  TRA     s:3958
PL6.E3A0      #009=VDE$PFUNCTIONS File=VDE$PARSE.:VDA5TSI                        FRI 07/04/97 11:16 Page:488
         2 000021   000213 710000 2                  TRA     s:3958
         2 000022   000213 710000 2                  TRA     s:3958
         2 000023   000213 710000 2                  TRA     s:3958
         2 000024   000213 710000 2                  TRA     s:3958
         2 000025   000074 710000 2                  TRA     s:3930
         2 000026   000152 710000 2                  TRA     s:3949

     3795     3914
     3796     3915    2            CASE (%T_FN_CMDVAR);

     3797     3916    2              IF FUNPARAM.NOPTS# ~= 1 THEN

   3916  2 000027   000006 235100                    LDA     6,,PR0
         2 000030   000001 115007                    CMPA    1,DL
         2 000031   000041 600000 2                  TZE     s:3918

     3798     3917    2                 CALL VDG$ESCREECH (FUNPARAM.NOPTS#);

   3917  2 000032   200003 236100                    LDQ     @FUNPARAM,,AUTO
         2 000033   000006 036003                    ADLQ    6,DU
         2 000034   200010 756100                    STQ     VD_ERR$+2,,AUTO
         2 000035   200010 630500                    EPPR0   VD_ERR$+2,,AUTO
         2 000036   000017 631400 xsym               EPPR1   B_VECTNIL+15
         2 000037   000000 701000 xent               TSX1    VDG$ESCREECH
         2 000040   000000 011000                    NOP     0

     3799     3918    2              CV_NAME.LENGTH# = XUE$OPTION.COUNT#;

   3918  2 000041   200005 470500                    LDP0    XUE_OPTION$,,AUTO
         2 000042   000002 236100                    LDQ     2,,PR0
         2 000043   000016 552040 1                  STBQ    CV_NAME,'40'O

     3800     3919    2              CV_NAME.BYTES = XUE$OPTION.TEXT#;

   3919  2 000044   000002 236100                    LDQ     2,,PR0
         2 000045   000033 772000                    QRL     27
         2 000046   000000 620006                    EAX0    0,QL
PL6.E3A0      #009=VDE$PFUNCTIONS File=VDE$PARSE.:VDA5TSI                        FRI 07/04/97 11:16 Page:489
         2 000047   040000 100540                    MLR     fill='040'O
         2 000050   000002 200010                    ADSC9   2,,PR0                   cn=1,n=*X0
         2 000051   000016 200037 1                  ADSC9   CV_NAME                  cn=1,n=31

     3801     3920
     3802     3921    2              FPT_CMDVAR.VALUE_ = VECTOR(VALUE$TEXTC);

   3921  2 000052   200003 471500                    LDP1    @FUNPARAM,,AUTO
         2 000053   100004 473500                    LDP3    4,,PR1
         2 000054   000000 235000 3                  LDA     0
         2 000055   200010 453500                    STP3    VD_ERR$+2,,AUTO
         2 000056   200010 236100                    LDQ     VD_ERR$+2,,AUTO
         2 000057   000004 757000 1                  STAQ    FPT_CMDVAR+4

     3803     3922    2              CALL M$CMDVAR (FPT_CMDVAR)

   3922  2 000060   000000 630400 1                  EPPR0   FPT_CMDVAR
         2 000061   420025 713400                    CLIMB   alt,+8213
         2 000062   402400 401760                    pmme    nvectors=6
         2 000063   000220 702000 2                  TSX2    CMDVAR_FAILED
         2 000064   000217 710000 2                  TRA     s:3961

     3804     3923    2                ALTRET (CMDVAR_FAILED);
     3805     3924
     3806     3925    2            CASE (%T_DEF_NAME);

     3807     3926    2              CALL VDE$PREAD_NAME_FOR_FUNCTION (FUNPARAM)

   3926  2 000065   200003 630500                    EPPR0   @FUNPARAM,,AUTO
         2 000066   000017 631400 xsym               EPPR1   B_VECTNIL+15
         2 000067   000000 701000 xent               TSX1    VDE$PREAD_NAME_FOR_FUNCTION
         2 000070   000072 702000 2                  TSX2    s:3927
         2 000071   000073 710000 2                  TRA     s:3927+1

     3808     3927    3              WHENALTRETURN DO; ALTRETURN; END;

   3927  2 000072   000000 702200 xent               TSX2  ! X66_AALT
PL6.E3A0      #009=VDE$PFUNCTIONS File=VDE$PARSE.:VDA5TSI                        FRI 07/04/97 11:16 Page:490
         2 000073   000217 710000 2                  TRA     s:3961

     3809     3928
     3810     3929    2            CASE (%T_FUNKEY_EXP);

     3811     3930    2              VALUE$TEXTC.LENGTH# = 1;

   3930  2 000074   000004 471500                    LDP1    4,,PR0
         2 000075   000100 101400                    MRL     fill='000'O
         2 000076   000003 000004 xsym               ADSC9   B_VECTNIL+3              cn=0,n=4
         2 000077   100000 000001                    ADSC9   0,,PR1                   cn=0,n=1

     3812     3931    3              DO CASE (XUE$OPTION.CODE#);

   3931  2 000100   200005 471500                    LDP1    XUE_OPTION$,,AUTO
         2 000101   100000 235100                    LDA     0,,PR1
         2 000102   000777 135007                    SBLA    511,DL
         2 000103   000004 115007                    CMPA    4,DL
         2 000104   000106 602005 2                  TNC     s:3931+6,AL
         2 000105   000112 710000 2                  TRA     s:3933
         2 000106   000123 710000 2                  TRA     s:3936
         2 000107   000151 710000 2                  TRA     s:3946
         2 000110   000123 710000 2                  TRA     s:3936
         2 000111   000144 710000 2                  TRA     s:3944

     3813     3932    3               CASE(ELSE);

     3814     3933    3                 SUBSTR (VALUE$TEXTC.BYTES,0,1) = BINASC(XUE$OPTION.CODE#);

   3933  2 000112   000004 473500                    LDP3    4,,PR0
         2 000113   100000 236100                    LDQ     0,,PR1
         2 000114   000033 736000                    QLS     27
         2 000115   000001 276000 3                  ORQ     1
         2 000116   200010 756100                    STQ     VD_ERR$+2,,AUTO
         2 000117   040100 100500                    MLR     fill='040'O
         2 000120   200010 000004                    ADSC9   VD_ERR$+2,,AUTO          cn=0,n=4
         2 000121   300000 200001                    ADSC9   0,,PR3                   cn=1,n=1
PL6.E3A0      #009=VDE$PFUNCTIONS File=VDE$PARSE.:VDA5TSI                        FRI 07/04/97 11:16 Page:491

     3815     3934    3                 RETURN;

   3934  2 000122   000000 702200 xent               TSX2  ! X66_ARET

     3816     3935    3               CASE(511,513); /* BREAK and the "escape" keyname */

     3817     3936    3                 VALUE$TEXTC.LENGTH# = 2; /* Result is an escape sequence */

   3936  2 000123   000004 473500                    LDP3    4,,PR0
         2 000124   000100 101400                    MRL     fill='000'O
         2 000125   000004 000004 xsym               ADSC9   B_VECTNIL+4              cn=0,n=4
         2 000126   300000 000001                    ADSC9   0,,PR3                   cn=0,n=1

     3818     3937    3                 SUBSTR (VALUE$TEXTC.BYTES,1,1) = BINASC(XUE$OPTION.CODE#);

   3937  2 000127   000004 473500                    LDP3    4,,PR0
         2 000130   100000 236100                    LDQ     0,,PR1
         2 000131   000033 736000                    QLS     27
         2 000132   000001 276000 3                  ORQ     1
         2 000133   200010 756100                    STQ     VD_ERR$+2,,AUTO
         2 000134   040100 100500                    MLR     fill='040'O
         2 000135   200010 000004                    ADSC9   VD_ERR$+2,,AUTO          cn=0,n=4
         2 000136   300000 400001                    ADSC9   0,,PR3                   cn=2,n=1

     3819     3938    3                 SUBSTR (VALUE$TEXTC.BYTES,0,1) = BINASC(511);

   3938  2 000137   000004 473500                    LDP3    4,,PR0
         2 000140   040100 100400                    MLR     fill='040'O
         2 000141   000002 000001 3                  ADSC9   2                        cn=0,n=1
         2 000142   300000 200001                    ADSC9   0,,PR3                   cn=1,n=1

     3820     3939    3                 RETURN;

   3939  2 000143   000000 702200 xent               TSX2  ! X66_ARET

     3821     3940    3               CASE(512); /* Illegal format ($key(X'nn')) */
PL6.E3A0      #009=VDE$PFUNCTIONS File=VDE$PARSE.:VDA5TSI                        FRI 07/04/97 11:16 Page:492

     3822     3941        /*            FUNPARAM.ERR.CODE = %E$KEYNAME_NOT_SIMPLE;
     3823     3942                      GOTO REPORT_ERROR; */
     3824     3943    3               CASE(514); /* Illegal position (not first) */

     3825     3944    3                 FUNPARAM.ERR.CODE = %E$KEYNAME_NOT_FIRST;

   3944  2 000144   000003 236100                    LDQ     3,,PR0
         2 000145   000003 376000 3                  ANQ     3
         2 000146   001330 276007                    ORQ     728,DL
         2 000147   000003 756100                    STQ     3,,PR0

     3826     3945    3                 GOTO REPORT_ERROR;

   3945  2 000150   000227 710000 2                  TRA     REPORT_ERROR

     3827     3946    3               END;

   3946  2 000151   000217 710000 2                  TRA     s:3961

     3828     3947
     3829     3948    2            CASE (%T_CNTL_EXP);

     3830     3949    2              I = XUE$OPTION.COUNT#;

   3949  2 000152   200005 471500                    LDP1    XUE_OPTION$,,AUTO
         2 000153   100002 236100                    LDQ     2,,PR1
         2 000154   000033 772000                    QRL     27
         2 000155   200004 756100                    STQ     I,,AUTO

     3831     3950    2              VALUE$TEXTC.LENGTH# = I;

   3950  2 000156   000004 473500                    LDP3    4,,PR0
         2 000157   000100 101500                    MRL     fill='000'O
         2 000160   200004 000004                    ADSC9   I,,AUTO                  cn=0,n=4
         2 000161   300000 000001                    ADSC9   0,,PR3                   cn=0,n=1

PL6.E3A0      #009=VDE$PFUNCTIONS File=VDE$PARSE.:VDA5TSI                        FRI 07/04/97 11:16 Page:493
     3832     3951    3              DO WHILE I>0;

   3951  2 000162   000217 604400 2                  TMOZ    s:3961

     3833     3952    3                 I = I-1;

   3952  2 000163   000001 336007                    LCQ     1,DL
         2 000164   200004 056100                    ASQ     I,,AUTO

     3834     3953    3                 SUBSTR (VALUE$TEXTC.BYTES,I,1) = BITASC ('037'O & ASCBIT (

   3953  2 000165   200003 470500                    LDP0    @FUNPARAM,,AUTO
         2 000166   000004 471500                    LDP1    4,,PR0
         2 000167   200005 473500                    LDP3    XUE_OPTION$,,AUTO
         2 000170   300002 236100                    LDQ     2,,PR3
         2 000171   000033 772000                    QRL     27
         2 000172   200004 235100                    LDA     I,,AUTO
         2 000173   000100 100505                    MLR     fill='000'O
         2 000174   300002 200001                    ADSC9   2,A,PR3                  cn=1,n=1
         2 000175   200010 000004                    ADSC9   VD_ERR$+2,,AUTO          cn=0,n=4
         2 000176   200010 236100                    LDQ     VD_ERR$+2,,AUTO
         2 000177   000022 772000                    QRL     18
         2 000200   000000 620006                    EAX0    0,QL
         2 000201   037000 360003                    ANX0    15872,DU
         2 000202   000000 636010                    EAQ     0,X0
         2 000203   000001 276000 3                  ORQ     1
         2 000204   200011 756100                    STQ     VD_ERR$+3,,AUTO
         2 000205   040105 100500                    MLR     fill='040'O
         2 000206   200011 000004                    ADSC9   VD_ERR$+3,,AUTO          cn=0,n=4
         2 000207   100000 200001                    ADSC9   0,A,PR1                  cn=1,n=1

     3835     3954    3                   SUBSTR (XUE$OPTION.TEXT#,I,1) ) );
     3836     3955    3                 END;

   3955  2 000210   000000 115003                    CMPA    0,DU
         2 000211   000163 605400 2                  TPNZ    s:3952
         2 000212   000217 710000 2                  TRA     s:3961
PL6.E3A0      #009=VDE$PFUNCTIONS File=VDE$PARSE.:VDA5TSI                        FRI 07/04/97 11:16 Page:494

     3837     3956
     3838     3957    2            CASE (ELSE);

     3839     3958    2              CALL VDG$ESCREECH (FUNPARAM.CODE#);

   3958  2 000213   200003 630500                    EPPR0   @FUNPARAM,,AUTO
         2 000214   000017 631400 xsym               EPPR1   B_VECTNIL+15
         2 000215   000000 701000 xent               TSX1    VDG$ESCREECH
         2 000216   000000 011000                    NOP     0

     3840     3959    2            END;

     3841     3960
     3842     3961    1           RETURN;

   3961  2 000217   000000 702200 xent               TSX2  ! X66_ARET

     3843     3962
     3844     3963
     3845     3964    1   CMDVAR_FAILED:
     3846     3965    1           FUNPARAM.ERR_POS# = FUNPARAM.CPOS#;

   3965  2 000220   200003 470500       CMDVAR_FAIL* LDP0    @FUNPARAM,,AUTO
         2 000221   000001 720100                    LXL0    1,,PR0
         2 000222   000002 740100                    STX0    2,,PR0

     3847     3966    1           FUNPARAM.ERR = B$TCB.ALT$->B$ALT.ERR;

   3966  2 000223   000000 471400 xsym               LDP1    B$TCB$
         2 000224   100000 473500                    LDP3    0,,PR1
         2 000225   300102 236100                    LDQ     66,,PR3
         2 000226   000003 756100                    STQ     3,,PR0

   3966  2 000227                       REPORT_ERROR null
     3848     3967    1   REPORT_ERROR: ;
     3849     3968    1           CALL VDG$OALLOC (%CLS_ERR, VD_ERR$)
PL6.E3A0      #009=VDE$PFUNCTIONS File=VDE$PARSE.:VDA5TSI                        FRI 07/04/97 11:16 Page:495

   3968  2 000227   200006 631500                    EPPR1   VD_ERR$,,AUTO
         2 000230   200011 451500                    STP1    VD_ERR$+3,,AUTO
         2 000231   000004 236000 3                  LDQ     4
         2 000232   200010 756100                    STQ     VD_ERR$+2,,AUTO
         2 000233   200010 630500                    EPPR0   VD_ERR$+2,,AUTO
         2 000234   000020 631400 xsym               EPPR1   B_VECTNIL+16
         2 000235   000000 701000 xent               TSX1    VDG$OALLOC
         2 000236   000252 702000 2                  TSX2    OALLOC_FAILED

     3850     3969    1             ALTRET (OALLOC_FAILED);
     3851     3970    1           VD$ERR.ERR = FUNPARAM.ERR;

   3970  2 000237   200003 470500                    LDP0    @FUNPARAM,,AUTO
         2 000240   000003 236100                    LDQ     3,,PR0
         2 000241   200006 471500                    LDP1    VD_ERR$,,AUTO
         2 000242   100002 756100                    STQ     2,,PR1

     3852     3971    1           VD$ERR.FLAGLEV# = %FLV_SERIOUS;

   3971  2 000243   000003 220003                    LDX0    3,DU
         2 000244   200006 471500                    LDP1    VD_ERR$,,AUTO
         2 000245   100003 740100                    STX0    3,,PR1

     3853     3972    1           VD$ERR.CMDLINE_INDEX# = FUNPARAM.CPOS#;

   3972  2 000246   000001 721100                    LXL1    1,,PR0
         2 000247   200006 471500                    LDP1    VD_ERR$,,AUTO
         2 000250   100003 441100                    SXL1    3,,PR1

     3854     3973    1           ALTRETURN;

   3973  2 000251   000000 702200 xent               TSX2  ! X66_AALT

   3972  2 000252                       OALLOC_FAIL* null
     3855     3974
     3856     3975
PL6.E3A0      #009=VDE$PFUNCTIONS File=VDE$PARSE.:VDA5TSI                        FRI 07/04/97 11:16 Page:496
     3857     3976    1   OALLOC_FAILED: ;
     3858     3977    1           FUNPARAM.ERR = VD_6E.ERR_TAIL$->VD$ERR.ERR;

   3977  2 000252   000032 470400 xsym               LDP0    VD_6E+26
         2 000253   000002 236100                    LDQ     2,,PR0
         2 000254   200003 471500                    LDP1    @FUNPARAM,,AUTO
         2 000255   100003 756100                    STQ     3,,PR1

     3859     3978    1           ALTRETURN;

   3978  2 000256   000000 702200 xent               TSX2  ! X66_AALT
     3860     3979
     3861     3980    1   END VDE$PFUNCTIONS;

PL6.E3A0      #009=VDE$PFUNCTIONS File=VDE$PARSE.:VDA5TSI                        FRI 07/04/97 11:16 Page:497
--  Include file information  --

   CP_6.:LIBRARY  cannot be made into a system file and is referenced.
   XUE_MACRO_C.:LIBRARY  is referenced.
   VD_PERR_C.:VDA5TOU  is referenced.
   VD_NODES0_E.:VDA5TOU  is referenced.
   VD_MACROS_M.:VDA5TOU  is referenced.
   B$JIT_C.:E04TOU  was found in the system file and is never referenced.
   CP_6_C.:E04TOU  was found in the system file and is referenced.
      No diagnostics issued in procedure VDE$PFUNCTIONS.
PL6.E3A0      #009=VDE$PFUNCTIONS File=VDE$PARSE.:VDA5TSI                        FRI 07/04/97 11:16 Page:498

 **** Variables and constants ****

  ****  Section 001  Data  VDE$PFUNCTIONS

  ****  Scalars and arrays  ****
OctLoc.c.b A Datatyp(siz) R M Lvl/name                 OctLoc.c.b A Datatyp(siz) R M Lvl/name

    16-0-0/c STRC(288)   r     1 CV_NAME                    0-0-0/d STRC(504)   r     1 FPT_CMDVAR

  ****  Auto variables  ****

  ****  Scalars and arrays  ****
OctLoc.c.b A Datatyp(siz) R M Lvl/name                 OctLoc.c.b A Datatyp(siz) R M Lvl/name

     3-0-0/w PTR         r     1 @FUNPARAM                 *0-0-0/w STRC(288)   r     1 FUNPARAM
     4-0-0/w SBIN        r     1 I                          6-0-0/w PTR         r     1 VD_ERR$
     5-0-0/w PTR         r     1 XUE_OPTION$

  ****  SYMREF variables  ****

  ****  Scalars and arrays  ****
OctLoc.c.b A Datatyp(siz) R M Lvl/name                 OctLoc.c.b A Datatyp(siz) R M Lvl/name

     0-0-0/w PTR         r     1 B$TCB$                     0-0-0/w STRC(22644) r     1 VD_6E

  ****  BASED and DCB variables  ****

  ****  Scalars and arrays  ****
OctLoc.c.b A Datatyp(siz) R M Lvl/name                 OctLoc.c.b A Datatyp(siz) R M Lvl/name

     0-0-0/w STRC(2448)  r     1 B$ALT                      0-0-0/w STRC(144)   r     1 B$TCB
     0-0-0/c STRC(4608)  r     1 VALUE$TEXTC                0-0-0/w STRC(180)   r     1 VD$ERR
     0-0-0/w ASTR(81)    r     1 XUE$OPTION


   Procedure VDE$PFUNCTIONS requires 175 words for executable code.
PL6.E3A0      #009=VDE$PFUNCTIONS File=VDE$PARSE.:VDA5TSI                        FRI 07/04/97 11:16 Page:499
   Procedure VDE$PFUNCTIONS requires 10 words of local(AUTO) storage.

    No errors detected in file VDE$PARSE.:VDA5TSI    .
PL6.E3A0      #009=VDE$PFUNCTIONS File=VDE$PARSE.:VDA5TSI                        FRI 07/04/97 11:16 Page:500
          *** CROSS REFERENCE LISTING ***
**     DENOTES     IDENTIFIER DEFINITION
<<                 IDENTIFIER'S VALUE SET
>>                 IDENTIFIER'S VALUE USED
<>                 IDENTIFIER SET AND/OR USED
--                 IDENTIFIER REFERENCED
PL6.E3A0      #009=VDE$PFUNCTIONS File=VDE$PARSE.:VDA5TSI                        FRI 07/04/97 11:16 Page:501
          MINI XREF LISTING

B$ALT.CODE
      3903**DCL      3903--REDEF    3904--REDEF    3904--REDEF
B$ALT.ERR
      3904**DCL      3966>>ASSIGN
B$ALT.ERR.ERR#
      3905**DCL      3905--REDEF
B$ALT.EVID
      3904**DCL      3904--REDEF    3904--REDEF
B$TCB.ALT$
      3899**DCL      3966>>ASSIGN
B$TCB$
      3478**DCL      3899--IMP-PTR  3966>>ASSIGN
CMDVAR_FAILED
      3965**LABEL    3922--CALLALT
CV_NAME
      3633**DCL      3492--DCLINIT
CV_NAME.BYTES
      3637**DCL      3919<<ASSIGN
CV_NAME.LENGTH#
      3637**DCL      3918<<ASSIGN
FPT_CMDVAR
      3492**DCL      3922<>CALL
FPT_CMDVAR.V
      3494**DCL      3492--DCLINIT
FPT_CMDVAR.VALUE_
      3492**DCL      3921<<ASSIGN
FUNPARAM
      3342**DCL        43--PROC     3926<>CALL
FUNPARAM.CODE#
      3346**DCL      3913>>DOCASE   3958<>CALL
FUNPARAM.CPOS#
      3353**DCL      3965>>ASSIGN   3972>>ASSIGN
PL6.E3A0      #009=VDE$PFUNCTIONS File=VDE$PARSE.:VDA5TSI                        FRI 07/04/97 11:16 Page:502
FUNPARAM.ERR
      3376**DCL      3966<<ASSIGN   3970>>ASSIGN   3977<<ASSIGN
FUNPARAM.ERR.CODE
      3380**DCL      3944<<ASSIGN
FUNPARAM.ERR_POS#
      3359**DCL      3965<<ASSIGN
FUNPARAM.NOPTS#
      3408**DCL      3916>>IF       3917<>CALL
FUNPARAM.OPTION$
      3422**DCL      3912>>ASSIGN
FUNPARAM.OUT$
      3391**DCL      3838--IMP-PTR  3921>>ASSIGN   3930>>ASSIGN   3933>>ASSIGN   3936>>ASSIGN   3937>>ASSIGN
      3938>>ASSIGN   3950>>ASSIGN   3953>>ASSIGN
I
      3434**DCL      3949<<ASSIGN   3950>>ASSIGN   3951>>DOWHILE  3952<<ASSIGN   3952>>ASSIGN   3953>>ASSIGN
      3953>>ASSIGN
M$CMDVAR
      3323**DCL-ENT  3922--CALL
OALLOC_FAILED
      3972**LABEL    3968--CALLALT
REPORT_ERROR
      3966**LABEL    3945--GOTO
VALUE$TEXTC
      3838**DCL      3921--ASSIGN
VALUE$TEXTC.BYTES
      3842**DCL      3933<<ASSIGN   3937<<ASSIGN   3938<<ASSIGN   3953<<ASSIGN
VALUE$TEXTC.LENGTH#
      3842**DCL      3930<<ASSIGN   3936<<ASSIGN   3950<<ASSIGN
VD$ERR.CMDLINE_INDEX#
      3895**DCL      3972<<ASSIGN
VD$ERR.ERR
      3890**DCL      3970<<ASSIGN   3977>>ASSIGN
VD$ERR.FLAGLEV#
      3895**DCL      3971<<ASSIGN
VDE$PREAD_NAME_FOR_FUNCTION
      3437**DCL-ENT  3926--CALL
PL6.E3A0      #009=VDE$PFUNCTIONS File=VDE$PARSE.:VDA5TSI                        FRI 07/04/97 11:16 Page:503
VDG$ESCREECH
      3439**DCL-ENT  3917--CALL     3958--CALL
VDG$OALLOC
      3438**DCL-ENT  3968--CALL
VD_6E.ERR_TAIL$
      3474**DCL      3977>>ASSIGN
VD_ERR$
      3644**DCL      3853--IMP-PTR  3968<>CALL     3970>>ASSIGN   3971>>ASSIGN   3972>>ASSIGN
XUE$OPTION.CODE#
      3665**DCL      3931>>DOCASE   3933>>ASSIGN   3937>>ASSIGN
XUE$OPTION.COUNT#
      3678**DCL      3693--IMP-SIZ  3918>>ASSIGN   3919>>ASSIGN   3949>>ASSIGN   3953>>ASSIGN
XUE$OPTION.TEXT#
      3693**DCL      3919>>ASSIGN   3953>>ASSIGN
XUE_OPTION$
      3643**DCL      3661--IMP-PTR  3912<<ASSIGN   3918>>ASSIGN   3919>>ASSIGN   3919>>ASSIGN   3931>>DOCASE
      3933>>ASSIGN   3937>>ASSIGN   3949>>ASSIGN   3953>>ASSIGN   3953>>ASSIGN
