PL6.E3A0      #001=VDE$PBLOCK_EXPR File=VDE$PARSE.:VDA5TSI                       FRI 07/04/97 11:13 Page:1
        1        1        /*M* VDE$PARSE - Process the ParseTree for a block expression */
        2        2        /*T***********************************************************/
        3        3        /*T*                                                         */
        4        4        /*T* Copyright (c) Bull HN Information Systems Inc., 1997    */
        5        5        /*T*                                                         */
        6        6        /*T***********************************************************/
        7        7
        8        8        /*X* MCR=NO, DMC=YES */
        9        9        /*T*/
       10       10
       11       11        /*P* NAME: VDE$PARSE
       12       12            PURPOSE:  Process the ParseTree for a block expression.
       13       13            DESCRIPTION:
       14       14                This module contains several external routines:
       15       15
       16       16                VDE$PBLOCK_EXPR
       17       17                Parses an entire block expression, turning it into an InTree.
       18       18
       19       19                VDE$PPATTERN
       20       20                Given a T_PATTERN node from the parse tree, will
       21       21                compile the pattern into a VD$PATTERN structure.
       22       22
       23       23                VDE$PPATT_STRING and VDE$PPATT_STRING_EXPR
       24       24                Builds a VD$PATTERN from a pattern string.  This routine is
       25       25                made external so it can call itself recursively.
       26       26
       27       27                VDE$PXUE_EXP
       28       28                Parses string expressions (X$EVAL).  Contains two entry-points:
       29       29                    VDE$PNUMBER evaluates an expression and converts it
       30       30                        to an SBIN word.  Doesn't support $CONTROL-functions
       31       31                        in the expression.
       32       32                    VDE$PSTRING evaluates an expression and converts it
       33       33                        to a set of VD$BUFFERs.  Each call to VDE$PSTRING
       34       34                        returns the next VD$BUFFER for the expression.
       35       35                        Supports $CONTROL-functions in the expression.
       36       36
       37       37                VDE$PNUMERIC_KEY
PL6.E3A0      #001=VDE$PBLOCK_EXPR File=VDE$PARSE.:VDA5TSI                       FRI 07/04/97 11:13 Page:2
       38       38                Parses numeric keys.  These may be consecutive record
       39       39                numbers or edit keys:  at parse time we don't know which
       40       40                kind of key the user gave us.
       41       41
       42       42                VDE$PFILE_TO_EDIT
       43       43                Parses a fid for a file to edit.  M$FIDs it into constituent parts
       44       44                and builds a VD$FILE_KEY for the fid.  Optionally sets up a VD$RANGE
       45       45                covering the entire file.
       46       46
       47       47                VDE$PREAD_LO_NAME
       48       48                Look up a name in the Locations file.  If found, return a pointer
       49       49                to its VD$BLOCK_DESC (unwinds any indirect representations, like
       50       50                VD$POINTER, or VD$BUFFER containing the VD$BLOCK_DESC, etc).
       51       51
       52       52                VDE$PREAD_NAME_FOR_EVAL
       53       53                When X$EVAL sees a name reference in a string expression,
       54       54                it calls this routine to find the value of the name.
       55       55                This routine reads the Equals *N* and Locations *N* files
       56       56                for the name, and returns its value to X$EVAL.
       57       57
       58       58                VDE$PFUNCTIONS
       59       59                When X$EVAL sees a 6Edit function invocation in a string expression,
       60       60                it calls this routine to compute the value of the function.
       61       61        */
       62       62
       63       63        /*D* NAME: VDE$PBLOCK_EXPR
       64       64            PARAMETERS:
       65       65                PT_BLOCK_EXPR - %PARSE$OUT which is root node of the ParseTree
       66       66                    for the block expression to evaluate.  Must have a
       67       67                    .CODE of either %T_BLOCK_EXPR or %T_STRING_EXPR.
       68       68            INPUT:
       69       69                VD_CURRENT_WINDOW$ - Ptr to VD$FILE_NODE at level 1 of the
       70       70                    Windows internal file.  The Spec for this node points to
       71       71                    the VD$WINDOW_SPEC for the current editing window.  There
       72       72                    must be such a window, tho it needn't be editing anything
       73       73                    yet (no EditBlock, Selecting, or InTree).
       74       74                CURR$WINDOW.OPERAND.INTREE$ must be NIL at entry.
PL6.E3A0      #001=VDE$PBLOCK_EXPR File=VDE$PARSE.:VDA5TSI                       FRI 07/04/97 11:13 Page:3
       75       75                CURR$WINDOW.OPERAND.EDIT_BLOCK$ will be nil if there
       76       76                    is no EditBlock yet; non-nil otherwise.
       77       77                CURR$WINDOW.OPERAND.EVAL$ will be nil if there
       78       78                    is no EditBlock yet; non-nil otherwise.
       79       79                    If non-nil, it's VD$EVAL has the range left by the
       80       80                    VDE$Ixxx routines after evaluating the block expr
       81       81                    of the previous command, with a state of
       82       82                    %EVST_INITIAL.  None of the VDE$Pxxx routines will
       83       83                    refer to this VD$EVAL.
       84       84            OUTPUT:
       85       85                The current window will be modified to reflect the new block
       86       86                    expression.  Specifically:
       87       87                    o Ptr to the InTree for the range of the block
       88       88                        expression.  This InTree will contain at least
       89       89                        a VD$IT_BLOCK_EXPR node.  It's .OPTIONS will be
       90       90                        filled in, either from user input or from defaults.
       91       91                    o If this block expression legally specifies a different
       92       92                        domain than the window's current EditBlock, then
       93       93                        IT_BLOCK_EXPR.DOMAINN will be non-%CLEAR.
       94       94                    o If this block expression has moved beyond the
       95       95                        DOMAIN_OPERAND portion of the block expression
       96       96                        syntax, then IT_BLOCK_EXPR.SELECTS$ will be non-nil.
       97       97                    The window in this form is ready for VDE$IOPEN.
       98       98                If any recoverable errors are found, the entire InTree will be
       99       99                    freed.
      100      100            DESCRIPTION:
      101      101                PT_BLOCK_EXPR is either a %T_STRING_EXPR node or a
      102      102                %T_BLOCK_EXPR node with one or more children, as shown below:
      103      103
      104      104                STRING_EXPR
      105      105                    |
      106      106                 XUE_EXP
      107      107
      108      108                or:
      109      109
      110      110                                       BLOCK_EXPR
      111      111                                            |
PL6.E3A0      #001=VDE$PBLOCK_EXPR File=VDE$PARSE.:VDA5TSI                       FRI 07/04/97 11:13 Page:4
      112      112                   ----------------------------------------------------->
      113      113                   |           |            |
      114      114                PROTECT    STRUCTURE      one of:
      115      115                   |           |         o NEXT
      116      116                  DONT        name       o PREVIOUS
      117      117                \__in either order__/    o LO_NAME
      118      118                                              |
      119      119                                             name
      120      120
      121      121                                           { NEW }
      122      122                                         o { OLD }  FILE_FID
      123      123                                           { ANY }     |
      124      124                                                      fid
      125      125
      126      126
      127      127                >----------------------------------------------------
      128      128                   |          |          |             |            |
      129      129                MOVEMENT    one of:   MOVEMENT   SELECT_CLAUSE   KEY_INCR
      130      130                           o THRU                      |
      131      131                           o ADJUST                  REPEAT
      132      132                          \__________________/         |
      133      133                             may be repeated      STRING_EXPR
      134      134                \                                            /
      135      135                 \__________________________________________/
      136      136                            may be repeated
      137      137
      138      138                o All of the child-nodes of T_BLOCK_EXPR are optional,
      139      139                    except that at least one will always be present if
      140      140                    T_BLOCK_EXPR is present.
      141      141                o The MOVEMENT's above may be repeated any number of times.
      142      142                o If the MOVEMENT's following THRU and ADJUST are present,
      143      143                    then the THRU or ADJUST nodes must precede them.
      144      144                o The DONT child of PROTECT is optional.
      145      145                o The REPEAT child of SELECT_CLAUSE is optional.  If present,
      146      146                    its STRING_EXPR child is optional.
      147      147
      148      148                Procedure:
PL6.E3A0      #001=VDE$PBLOCK_EXPR File=VDE$PARSE.:VDA5TSI                       FRI 07/04/97 11:13 Page:5
      149      149                Setup the global data refs:
      150      150                    CURR$WINDOW - VD$WINDOW_SPEC for the current editing window.
      151      151                    EDIT$BLOCK - VD$BLOCK_DESC for the window's EditBlock (if any).
      152      152                Allocate an IT_BLOCK_EXPR node.
      153      153                If PT_BLOCK_EXPR is actually a %T_STRING_EXPR node:
      154      154                    Call XUE$EVAL to evaluate the XUE_EXP expression into
      155      155                        record buffers, and write them to the Scratch Source
      156      156                        file.
      157      157                    Build an IT_OPERAND node referring to the file just
      158      158                        written, and attach it to the InTree.
      159      159                    Load IT$BLOCK_EXPR.DOMAINN and .OPTIONS with the info on
      160      160                        the Scratch Source file.
      161      161                    Return.
      162      162
      163      163                Otherwise, loop thru the children of the PT_BLOCK_EXPR node,
      164      164                    processing the nodes as they appear:
      165      165                o For any processing options (ie, PROTECT, STRUCTURE, NEW,
      166      166                    OLD, ANY):
      167      167                    Set the appropriate value or flag in the IT$BLOCK_EXPR
      168      168                    node.
      169      169                o For any DOMAIN_OPERAND (ie, NEXT, PREVIOUS, FILE_FID,
      170      170                    LO_NAME referring to a different file):
      171      171                    Guarantee that both an IT_SELECT and an IT_ADJUST
      172      172                    node is available.  Call DOMAIN_OPERAND to build
      173      173                    an IT_OPERAND node and attach it to the InTree, and
      174      174                    to load IT$BLOCK_EXPR.DOMAINN with the domain info.
      175      175                o For each MOVEMENT:
      176      176                    Guarantee that both an IT_SELECT and an IT_ADJUST
      177      177                    node is available.  Call MOVEMENTS to build
      178      178                    and attach IT_OPERAND, IT_OPERATOR, and/or IT_COMMAND
      179      179                    nodes.
      180      180                o For THRU or ADJUST:
      181      181                    Guarantee that an IT_SELECT node is available;
      182      182                    allocate a new IT_ADJUST node and append it to the
      183      183                    InTree.  Flag the type of state change to perform:
      184      184                    for THRU, always change to %EVST_END; for ADJUST,
      185      185                    toggle the evaluation state.
PL6.E3A0      #001=VDE$PBLOCK_EXPR File=VDE$PARSE.:VDA5TSI                       FRI 07/04/97 11:13 Page:6
      186      186                o For SELECT:
      187      187                    Allocate a new IT_SELECT node and append it to the InTree.
      188      188        *??*         If there are no IT_SELECT children
      189      189        *??*         of the IT_BLOCK_EXPR node yet, and if this is
      190      190        *??*         not a REPEAT SELECT node, and if HERE has a value
      191      191        *??*         currently, then we want to attach the current value
      192      192        *??*         of the HERE predefined name as the first IT_OPERAND
      193      193        *??*         of the new IT_SELECT node.
      194      194                    Evaluate the possible children of the T_SELECT
      195      195                    node, filling their info into the IT_SELECT node
      196      196                    just built.
      197      197                o For KEY_INCR:
      198      198                    Set the appropriate value in the IT_BLOCK_EXPR node.
      199      199
      200      200                If a recoverable error is detected, we want to free the
      201      201                    InTree.
      202      202        */
      203      203
      204      204        VDE$PBLOCK_EXPR: PROC (PT_BLOCK_EXPR) ALTRET;
      205      205
      206      206        %INCLUDE VD_MACROS_M;
      207     2421        %INCLUDE VD_PERR_C;
      208     2569        %INCLUDE VD_NODES0_E;
      209     2661        %INCLUDE XU_MACRO_C;
      210     5755        %INCLUDE XUE_MACRO_C;
      211     6499
      212     6500
      213     6501        %PARSE$OUT (NAME=PT_BLOCK_EXPR, STCLASS=PARAM);
      214     6546
      215     6547
      216     6548
      217     6549    1   DCL VDE$PSTRING         ENTRY (5) ALTRET;
      218     6550    1   DCL VDE$PNUMBER         ENTRY (2) ALTRET;
      219     6551    1   DCL VDE$PNUMERIC_KEY    ENTRY (2) ALTRET;
      220     6552    1   DCL VDE$PFILE_TO_EDIT   ENTRY (3) ALTRET;
      221     6553    1   DCL VDE$PPATTERN        ENTRY (2) ALTRET;
      222     6554    1   DCL VDE$PREAD_LO_NAME   ENTRY (3) ALTRET;
PL6.E3A0      #001=VDE$PBLOCK_EXPR File=VDE$PARSE.:VDA5TSI                       FRI 07/04/97 11:13 Page:7
      223     6555    1   DCL VDA$FOPEN           ENTRY (4) ALTRET;
      224     6556    1   DCL VDA$LWRITE          ENTRY (4) ALTRET;
      225     6557    1   DCL VDA$LDELETE         ENTRY (2) ALTRET;
      226     6558    1   DCL VDA$FCLOSE          ENTRY (1) ALTRET;
      227     6559    1   DCL VDG$ERRMSG          ENTRY (4) ALTRET;
      228     6560    1   DCL VDG$OCOPY           ENTRY (2) ALTRET;
      229     6561    1   DCL VDG$OCOPY_RANGE     ENTRY (2) ALTRET;
      230     6562    1   DCL VDG$OALLOC          ENTRY (3) ALTRET;
      231     6563    1   DCL VDG$OFREE           ENTRY (1) ALTRET;
      232     6564    1   DCL VDG$ESCREECH        ENTRY (3);
      233     6565    1   DCL X$DEC_CONVERT       ENTRY (2) ALTRET;
      234     6566
      235     6567
      236     6568        %VD_6E (STCLASS=SYMREF);
      237     6604    1   DCL VD_CURRENT_WINDOW$ PTR SYMREF;
      238     6605        %XUE_ECB (NAME=XUE_ECB, STCLASS=SYMREF);
      239     6807        %VD$KEY (NAME=VD_KEY_NUMERIC_BOF, STCLASS=SYMREF);
      240     6821        %VD$NUMBER (NAME=VD_$COMPONENT, STCLASS=SYMREF);
      241     6866        %VD$NUMBER (NAME=VD_$DIRECTION, STCLASS=SYMREF);
      242     6911        %VD$NUMBER (NAME=VD_$EXIST, STCLASS=SYMREF);
      243     6956        %VD$NUMBER (NAME=VD_$POINT, STCLASS=SYMREF);
      244     7001        %VD$NUMBER (NAME=VD_$PROTECT, STCLASS=SYMREF);
      245     7046        %VD$NUMBER (NAME=VD_$SEARCH, STCLASS=SYMREF);
      246     7091        %VD$NUMBER (NAME=VD_$SKIP, STCLASS=SYMREF);
      247     7136        %VD$POINTER (NAME=VD_$STRUCTURE, STCLASS=SYMREF);
      248     7181    1   DCL 1 VD_ACCESSOR_PRIV ALIGNED SYMREF,
      249     7182              %VD$NAC (NAME=ACCESS, LEV=2, LAST=YES);
      250     7196        %VD_FILE_KEY (NAME=VD_FKEY_SCRATCH_SOURCE, STCLASS=SYMREF);
      251     7248        %VD_KEY (NAME=VD_KEY_SCRATCH_SOURCE, STCLASS=SYMREF);
      252     7284    1   DCL VD_CMD_OBJECTS$ (0:%(MX_CMD_OBJECTS-1)) PTR SYMREF;
      253     7285
      254     7286
      255     7287
      256     7288    1   DCL CURR_WINDOW$ PTR;
      257     7289    1   DCL EDIT_BLOCK$ PTR;
      258     7290    1   DCL IT_BLOCK_EXPR$ PTR;
      259     7291    1   DCL LAST_SELECT$ PTR;
PL6.E3A0      #001=VDE$PBLOCK_EXPR File=VDE$PARSE.:VDA5TSI                       FRI 07/04/97 11:13 Page:8
      260     7292    1   DCL LAST_ADJUST$ PTR;
      261     7293    1   DCL LAST_MOVEMENT$ PTR;
      262     7294    1   DCL PREV_CHILD_INDEX SBIN;
      263     7295    1   DCL CHILD_INDEX SBIN;
      264     7296    1   DCL CHILD$ PTR;
      265     7297    1   DCL ERR_SUBST$ PTR;
      266     7298    1   DCL T$ PTR; /* For calling VDG$OALLOC */
      267     7299
      268     7300
      269     7301        %VD$WINDOW_SPEC (NAME=CURR$WINDOW, STCLASS="BASED(CURR_WINDOW$)");
      270     7367        %VD$BLOCK_DESC (NAME=EDIT$BLOCK, STCLASS="BASED(EDIT_BLOCK$)");
      271     7514        %VD$IT_BLOCK_EXPR (NAME=IT$BLOCK_EXPR, STCLASS="BASED(IT_BLOCK_EXPR$)");
      272     7664        %VD$IT_SELECT (NAME=LAST$SELECT, STCLASS="BASED(LAST_SELECT$)");
      273     7701        %VD$IT_ADJUST (NAME=LAST$ADJUST, STCLASS="BASED(LAST_ADJUST$)");
      274     7738        %VD$IT_OPERAND (NAME=LAST$MOVEMENT, STCLASS="BASED(LAST_MOVEMENT$)");
      275     7804        %PARSE$OUT (NAME=CHILD, STCLASS="BASED(CHILD$)");
      276     7849        %VD$KEY_NUMBER;
      277     7864        %VD$ERR (NAME=FATAL$ERR, STCLASS="BASED(VD_6E.ERR_HEAD$)");
      278     7917        %VD$ERR (NAME=LAST$ERR, STCLASS="BASED(VD_6E.ERR_TAIL$)");
      279     7970        %VD$NUMBER (NAME=SUBST$NUMBER, DIM="(0:2)", STCLASS="BASED(ERR_SUBST$)");
      280     8015        %VD$POINTER (NAME=SUBST$POINTER, DIM="(0:2)", STCLASS="BASED(ERR_SUBST$)");
      281     8060        %VD$STREAM (NAME=LOCATIONS$STREAM, STCLASS="BASED(VD_6E.LOCATIONS$)");
      282     8166        %VD$STREAM (NAME=EQUALS$STREAM, STCLASS="BASED(VD_6E.EQUALS$)");
      283     8272        %VD$FILE_NODE;
      284     8365        %VD$IT_SELECT;
      285     8402        %VD$IT_ADJUST;
      286     8439        %VD$IT_OPERAND;
      287     8505        %VD$TEXTC_REMOTE;
      288     8566        %VD$STRING_HEADER;
      289     8602        %VD$PORT;
      290     8700
      291     8701
      292     8702
      293     8703    1           IF VD_CURRENT_WINDOW$ = ADDR(NIL) THEN
      294     8704    1              CALL VDG$ESCREECH;
      295     8705    1           CURR_WINDOW$ = VD_CURRENT_WINDOW$->VD$FILE_NODE.DESC.SPEC.V$;
      296     8706    1           IF CURR_WINDOW$ = ADDR(NIL) THEN
PL6.E3A0      #001=VDE$PBLOCK_EXPR File=VDE$PARSE.:VDA5TSI                       FRI 07/04/97 11:13 Page:9
      297     8707    1              CALL VDG$ESCREECH;
      298     8708    1           EDIT_BLOCK$ = CURR$WINDOW.OPERAND.EDIT_BLOCK$;
      299     8709
      300     8710    1           IF CURR$WINDOW.OPERAND.INTREE$ ~= ADDR(NIL) THEN
      301     8711    1              CALL VDG$ESCREECH;
      302     8712
      303     8713    1           CALL VDG$OALLOC (%CLS_IT_BLOCK_EXPR, CURR$WINDOW.OPERAND.INTREE$)
      304     8714    1             ALTRET (OALLOC_FAILED);
      305     8715    1           IT_BLOCK_EXPR$ = CURR$WINDOW.OPERAND.INTREE$;
      306     8716    1           LAST_SELECT$ = ADDR(NIL);
      307     8717    1           LAST_ADJUST$ = ADDR(NIL);
      308     8718    1           LAST_MOVEMENT$ = ADDR(NIL);
      309     8719
      310     8720                %INCREMENT (ARRAY=STATS_TOKENS#, INDX="PT_BLOCK_EXPR.CODE - %VD_BASE#");
      311     8723
      312     8724    2           IF PT_BLOCK_EXPR.CODE = %T_STRING_EXPR THEN DO;
      313     8725    2              CALL STRING_EXPRESSION
      314     8726    2                ALTRET (STRING_EXPRESSION_FAILED);
      315     8727    2              RETURN;
      316     8728    2              END;
      317     8729
      318     8730    1           CHILD_INDEX = 0;
      319     8731    1           CHILD$ = PT_BLOCK_EXPR.SUBLK$ (CHILD_INDEX);
      320     8732
      321     8733    1           CALL PROCESSING_OPTIONS
      322     8734    1             ALTRET (PROCESSING_OPTIONS_FAILED);
      323     8735    1           CALL DOMAIN_OPERAND
      324     8736    1             ALTRET (DOMAIN_OPERAND_FAILED);
      325     8737
      326     8738                /*
      327     8739                *   At this point:
      328     8740                *   If the user explicitly specified any processing
      329     8741                *       options, they're in IT$BLOCK_EXPR.OPTIONS.
      330     8742                *   If the user explicitly specified a domain operand,
      331     8743                *       IT$BLOCK_EXPR.DOMAINN is non-%CLEAR.
      332     8744                *   If no domain was given but there is no current EditBlock
      333     8745                *       for this window, and we still have some children of
PL6.E3A0      #001=VDE$PBLOCK_EXPR File=VDE$PARSE.:VDA5TSI                       FRI 07/04/97 11:13 Page:10
      334     8746                *       PT_BLOCK_EXPR yet to process, then error out.
      335     8747                */
      336     8748
      337     8749    2           IF IT$BLOCK_EXPR.DOMAINN = %CLEAR THEN DO;
      338     8750    2              IF CURR$WINDOW.OPERAND.EDIT_BLOCK$ = ADDR(NIL)
      339     8751    2                AND CHILD_INDEX < PT_BLOCK_EXPR.NSUBLKS THEN
      340     8752    2                 GOTO NO_EDIT_BLOCK_FAILURE;
      341     8753    2              END;
      342     8754
      343     8755    1           PREV_CHILD_INDEX = -1;
      344     8756    1   SELECT_CLAUSE_LOOP:
      345     8757    2           DO WHILE CHILD_INDEX < PT_BLOCK_EXPR.NSUBLKS
      346     8758    2             AND CHILD_INDEX > PREV_CHILD_INDEX;
      347     8759    2              PREV_CHILD_INDEX = CHILD_INDEX;
      348     8760    2              CALL MOVEMENTS
      349     8761    2                ALTRET (MOVEMENTS_FAILED);
      350     8762
      351     8763    2              CALL ADJUST_LIST
      352     8764    2                ALTRET (ADJUST_LIST_FAILED);
      353     8765
      354     8766    2              CALL SELECT_CLAUSE
      355     8767    2                ALTRET (SELECT_CLAUSE_FAILED);
      356     8768
      357     8769    3              IF CHILD_INDEX < PT_BLOCK_EXPR.NSUBLKS THEN DO;
      358     8770    3                 CHILD$ = PT_BLOCK_EXPR.SUBLK$ (CHILD_INDEX);
      359     8771    4                 IF CHILD.CODE = %T_KEY_INCR THEN DO;
      360     8772    4                    CALL VDE$PNUMERIC_KEY (CHILD, IT$BLOCK_EXPR.OPTIONS.KEY_INCR)
      361     8773    4                      ALTRET (PNUMERIC_KEY_FAILED);
      362     8774    4                    IF ADDR(IT$BLOCK_EXPR.OPTIONS.KEY_INCR) ->
      363     8775    4                      VD$KEY_NUMBER.BYTES# > 65534 THEN
      364     8776    4                       GOTO BAD_KEY_INCR;
      365     8777    4                    CHILD_INDEX = CHILD_INDEX + 1;
      366     8778    4                    EXIT SELECT_CLAUSE_LOOP;
      367     8779    4                    END;
      368     8780    3                 END;
      369     8781    2              END SELECT_CLAUSE_LOOP;
      370     8782
PL6.E3A0      #001=VDE$PBLOCK_EXPR File=VDE$PARSE.:VDA5TSI                       FRI 07/04/97 11:13 Page:11
      371     8783    1           IF CHILD_INDEX < PT_BLOCK_EXPR.NSUBLKS THEN
      372     8784    1              GOTO UNPROCESSED_NODE_FAILURE;
      373     8785
      374     8786    1           RETURN;
      375     8787
      376     8788
      377     8789                %BOX (TITLE="Error Handlers");

              8801    1   /***************************************************************************
              8803    1    *                                                                         *
              8807    1            *                               Error Handlers                            *
              8809    1            *                                                                         *
              8811    1           ***************************************************************************/

      378     8815
      379     8816        /*STRING_NOT_ONLY_OPAND_FAILURE:                                    */
      380     8817        /*      CALL VDG$ERRMSG (%E$STRING_NOT_ONLY_OPAND) ALTRET (OTHER_FAILURE); */
      381     8818        /*      GOTO CMDLINE_ERR;                                                  */
      382     8819
      383     8820
      384     8821    1   BAD_KEY_INCR: ;
      385     8822    1           CALL VDG$ERRMSG (%E$BAD_KEY_INCR) ALTRET (OTHER_FAILURE);
      386     8823    1           GOTO CMDLINE_ERR;
      387     8824
      388     8825
      389     8826    1   NO_EDIT_BLOCK_FAILURE:
      390     8827    1           CALL VDG$ERRMSG (%E$NO_EDIT_BLOCK) ALTRET (OTHER_FAILURE);
      391     8828    1           GOTO CMDLINE_ERR;
      392     8829
      393     8830
      394     8831    1   UNPROCESSED_NODE_FAILURE:
      395     8832    1           CALL VDG$ERRMSG (%E$HUH) ALTRET (OTHER_FAILURE);
      396     8833
      397     8834    1           CHILD$ = PT_BLOCK_EXPR.SUBLK$ (CHILD_INDEX);
      398     8835    2           DO CASE (CHILD.CODE);
      399     8836    2            CASE (%T_PROTECT, %T_STRUCTURE);
      400     8837                   /* Processing option given but not at start of blk expr */
PL6.E3A0      #001=VDE$PBLOCK_EXPR File=VDE$PARSE.:VDA5TSI                       FRI 07/04/97 11:13 Page:12
      401     8838    2              LAST$ERR.ERR.CODE# = %E$PROC_OPT_NOT_1ST;
      402     8839
      403     8840    2            CASE (%T_NEXT, %T_PREVIOUS, %T_NEW, %T_OLD, %T_ANY,
      404     8841    2                %T_FILE_FID, %T_LO_NAME);
      405     8842                   /* Domain operand given but not as 1st in blk expr */
      406     8843    2              LAST$ERR.ERR.CODE# = %E$DOMAIN_OPAND_NOT_1ST;
      407     8844
      408     8845    2            CASE (ELSE);
      409     8846    2              CALL VDG$ESCREECH (CHILD.CODE);
      410     8847    2            END;
      411     8848
      412     8849    1   CMDLINE_ERR: ;
      413     8850    1           LAST$ERR.CMDLINE_INDEX# = CHILD.CPOS;
      414     8851
      415     8852
      416     8853    1   STRING_EXPRESSION_FAILED: ;
      417     8854    1   PROCESSING_OPTIONS_FAILED: ;
      418     8855    1   DOMAIN_OPERAND_FAILED: ;
      419     8856    1   MOVEMENTS_FAILED: ;
      420     8857    1   ADJUST_LIST_FAILED: ;
      421     8858    1   SELECT_CLAUSE_FAILED: ;
      422     8859    1   PNUMERIC_KEY_FAILED: ;
      423     8860
      424     8861    1   OTHER_FAILURE:
      425     8862    1           IF FATAL$ERR.ERR ~= %CLEAR THEN
      426     8863    1              ALTRETURN;
      427     8864    1           CALL VDG$OFREE (IT$BLOCK_EXPR)
      428     8865    1             ALTRET (OFREE_FAILED);
      429     8866    1           CURR$WINDOW.OPERAND.INTREE$ = ADDR(NIL);
      430     8867    1           ALTRETURN;
      431     8868
      432     8869
      433     8870    1   GUAR_LAST_SELECT_FAILED: ;
      434     8871    1   OALLOC_FAILED: ;
      435     8872    1   OFREE_FAILED: ;
      436     8873    1           ALTRETURN;
      437     8874
PL6.E3A0      #001=VDE$PBLOCK_EXPR File=VDE$PARSE.:VDA5TSI                       FRI 07/04/97 11:13 Page:13
      438     8875        %BOX (TITLE=PROCESSING_OPTIONS, PAGE=YES);
              8883    1
              8887    1   /***************************************************************************
              8889    1    *                                                                         *
              8893    1            *                             PROCESSING_OPTIONS                          *
              8895    1            *                                                                         *
              8897    1           ***************************************************************************/

      439     8901
      440     8902        /*I* NAME: PROCESSING_OPTIONS
      441     8903            PARAMETERS:
      442     8904                None.
      443     8905            INPUT:
      444     8906                CHILD_INDEX refers to the next child of PT_BLOCK_EXPR
      445     8907                    to process.
      446     8908                IT$BLOCK_EXPR - Root node of InTree.  It should not have
      447     8909                    any .OPTIONS yet:  its .OPTIONS must be "clear"
      448     8910                    (%CLEAR except pointers are NIL).
      449     8911                VD_$STRUCTURE, VD_$LEVEL, VD_$COMPONENT, VD_$PROTECT, and
      450     8912                    VD_$EXIST must specify the defaults for these options.
      451     8913            OUTPUT:
      452     8914                IT$BLOCK_EXPR.OPTIONS will have in it any options seen.
      453     8915                CHILD_INDEX will be incremented beyond any processed nodes.
      454     8916            SCRATCH:
      455     8917                CHILD$.
      456     8918            DESCRIPTION:
      457     8919                Loop thru PT_BLOCK_EXPR's children while we see one of:
      458     8920                T_PROTECT
      459     8921                    Set .OPTIONS.PROTECT# to %PROTECT or %DONT_PROTECT,
      460     8922                        depending on a T_DONT dangling from the T_PROTECT.
      461     8923        *N*     T_STRUCTURE
      462     8924        *N*         Find the named structure, and point .OPTIONS.STRUCTURE$
      463     8925        *N*             to it's level-1 FileNode in the Structures file.
      464     8926                T_NEW, T_OLD, or T_ANY
      465     8927                    Set the .OPTIONS.EXIST# value.
      466     8928
      467     8929                When done, if we saw any processing options, update the
PL6.E3A0      #001=VDE$PBLOCK_EXPR File=VDE$PARSE.:VDA5TSI                       FRI 07/04/97 11:13 Page:14
      468     8930                    InTree's options.
      469     8931        */
      470     8932
      471     8933    1   PROCESSING_OPTIONS: PROC ALTRET;
      472     8934
      473     8935
      474     8936
      475     8937        %VD$ACCESS_OPTIONS (NAME=OPTIONS, STCLASS=AUTO);
      476     8966
      477     8967
      478     8968
      479     8969    2           OPTIONS = IT$BLOCK_EXPR.OPTIONS;
      480     8970
      481     8971    2   OPTION_LOOP:
      482     8972    3           DO WHILE CHILD_INDEX <= PT_BLOCK_EXPR.NSUBLKS;
      483     8973    3              CHILD$ = PT_BLOCK_EXPR.SUBLK$ (CHILD_INDEX);
      484     8974
      485     8975    4              DO CASE (CHILD.CODE);
      486     8976    4               CASE (%T_PROTECT);
      487     8977    4                 IF OPTIONS.PROTECT# ~= 0 THEN
      488     8978    4                    GOTO TOO_MANY_PROC_OPTS_FAILURE;
      489     8979    4                 IF CHILD.NSUBLKS > 0 THEN
      490     8980    4                    OPTIONS.PROTECT# = %DONT_PROTECT;
      491     8981    4                 ELSE
      492     8982    4                    OPTIONS.PROTECT# = %PROTECT;
      493     8983
      494     8984    4               CASE (%T_STRUCTURE);
      495     8985    4                 IF OPTIONS.STRUCTURE$ ~= ADDR(NIL) THEN
      496     8986    4                    GOTO TOO_MANY_PROC_OPTS_FAILURE;
      497     8987
      498     8988    5                 DO CASE (CHILD.SUBLK$(0) -> CHILD.CODE);
      499     8989    5                  CASE (%T_STRING_KEY);
      500     8990    5                    OPTIONS.STRUCTURE$ = VD_6E.STRUCTURE_STRINGKEY$;
      501     8991
      502     8992    5                  CASE (%T_NUMERIC_KEY);
      503     8993    5                    OPTIONS.STRUCTURE$ = VD_6E.STRUCTURE_EDITKEY$;
      504     8994
PL6.E3A0      #001=VDE$PBLOCK_EXPR File=VDE$PARSE.:VDA5TSI                       FRI 07/04/97 11:13 Page:15
      505     8995    5                  CASE (ELSE);
      506     8996    5                    OPTIONS.STRUCTURE$ = VD_6E.STRUCTURE_SEQUENTIAL$;
      507     8997
      508     8998    5                  END;
      509     8999
      510     9000    4               CASE (%T_NEW);
      511     9001    4                 IF OPTIONS.EXIST# ~= 0 THEN
      512     9002    4                    GOTO TOO_MANY_PROC_OPTS_FAILURE;
      513     9003    4                 OPTIONS.EXIST# = %EX_NEW;
      514     9004
      515     9005    4               CASE (%T_OLD);
      516     9006    4                 IF OPTIONS.EXIST# ~= 0 THEN
      517     9007    4                    GOTO TOO_MANY_PROC_OPTS_FAILURE;
      518     9008    4                 OPTIONS.EXIST# = %EX_OLD;
      519     9009
      520     9010    4               CASE (%T_ANY);
      521     9011    4                 IF OPTIONS.EXIST# ~= 0 THEN
      522     9012    4                    GOTO TOO_MANY_PROC_OPTS_FAILURE;
      523     9013    4                 OPTIONS.EXIST# = %EX_ANY;
      524     9014
      525     9015    4               CASE (ELSE);
      526     9016    4                 EXIT OPTION_LOOP;     /* End of processing options */
      527     9017
      528     9018    4               END;
      529     9019
      530     9020    3              CHILD_INDEX = CHILD_INDEX + 1;
      531     9021    3              END OPTION_LOOP;
      532     9022
      533     9023    2           IT$BLOCK_EXPR.OPTIONS = OPTIONS;
      534     9024
      535     9025    2           RETURN;
      536     9026
      537     9027
      538     9028    2   TOO_MANY_PROC_OPTS_FAILURE:
      539     9029    2           CALL VDG$ERRMSG (%E$TOO_MANY_PROC_OPTS);
      540     9030    2           ALTRETURN;
      541     9031
PL6.E3A0      #001=VDE$PBLOCK_EXPR File=VDE$PARSE.:VDA5TSI                       FRI 07/04/97 11:13 Page:16
      542     9032    2   END PROCESSING_OPTIONS;
      543     9033
      544     9034        %BOX (TITLE=STRING_EXPRESSION, PAGE=YES);
              9042    2
              9046    2   /***************************************************************************
              9048    2    *                                                                         *
              9052    2            *                             STRING_EXPRESSION                           *
              9054    2            *                                                                         *
              9056    2           ***************************************************************************/

      545     9060
      546     9061        /*I* NAME: STRING_EXPRESSION
      547     9062            PARAMETERS:
      548     9063                None.
      549     9064            INPUT:
      550     9065                PT_BLOCK_EXPR must be a PARSE$OUT node whose
      551     9066                    .CODE = %T_STRING_EXPR.
      552     9067                CURR$WINDOW must be the current editing VD$WINDOW_SPEC.
      553     9068                IT$BLOCK_EXPR must exist, but must have no children.
      554     9069                LAST_SELECT$, LAST_ADJUST$, and LAST_MOVEMENT$ must be nil:
      555     9070                    there should be no nodes in the InTree yet.
      556     9071                VD_6E.STRUCTURE_SCRATCH$ must point to the level-1 node in
      557     9072                    the Structures file for the "Scratch" structure.
      558     9073            OUTPUT:
      559     9074                An IT_OPERAND node (%OPAND_FILE) will be attached to
      560     9075                    IT$BLOCK_EXPR.  An IT_SELECT node and an IT_ADJUST node
      561     9076                    for the IT_OPERAND node will be attached also.
      562     9077                LAST_SELECT$, LAST_ADJUST$, and LAST_MOVEMENT$ will be set
      563     9078                    to point to the newly-allocated InTree nodes.
      564     9079                IT$BLOCK_EXPR.DOMAINN will be filled in:  it will refer to
      565     9080                    the entire Scratch Source file.
      566     9081                IT$BLOCK_EXPR.OPTIONS will be filled in, for referencing
      567     9082                    the Data component of a protected, existing Scratch file.
      568     9083            DESCRIPTION:
      569     9084                Call VDE$PXUE_EXP to evaluate the string expression and
      570     9085                    build VD$BUFFERs for it.  Delete any current Scratch
      571     9086                    Source file, and write the buffers to the file.
PL6.E3A0      #001=VDE$PBLOCK_EXPR File=VDE$PARSE.:VDA5TSI                       FRI 07/04/97 11:13 Page:17
      572     9087                Build the IT_OPERAND node, pointing to a VD$FILE_KEY for
      573     9088                    the Scratch Source file.
      574     9089                Allocate IT_SELECT and IT_ADJUST nodes, then attach the
      575     9090                    IT_OPERAND node to them.
      576     9091                Fill in IT$BLOCK_EXPR.DOMAINN and .OPTIONS for the Scratch
      577     9092                    Source file.
      578     9093        */
      579     9094
      580     9095    1   STRING_EXPRESSION: PROC ALTRET;
      581     9096
      582     9097
      583     9098    2   DCL 1 SAVE_ACCESSOR_PRIV ALIGNED,
      584     9099              %VD$NAC (NAME=ACCESS, LEV=2, LAST=YES);
      585     9113    2   DCL STRING_STREAM$ PTR;
      586     9114        %VD$ACCESS_OPTIONS (NAME=OPEN_OPTIONS, STCLASS=AUTO);
      587     9143        %VD$LOCATION (NAME=STRING_LOC, STCLASS=AUTO);
      588     9171    2   DCL XUE_EXP$ PTR;
      589     9172    2   DCL STR_INDEX SBIN;
      590     9173    2   DCL BUFFER$ PTR;
      591     9174    2   DCL RET_CODE CHAR(1) CALIGNED;
      592     9175    2   DCL CTRL_ARGS (0:%(MX_CTRL_FN_ARGS-1)) SBIN ALIGNED;
      593     9176    2   DCL WRITTEN_NODE$ PTR;
      594     9177    2   DCL IT_OPERAND$ PTR;
      595     9178    2   DCL WILD_STRING$ PTR;
      596     9179
      597     9180
      598     9181        %VD$STREAM (NAME=STRING$STREAM, STCLASS="BASED(STRING_STREAM$)");
      599     9287        %PARSE$OUT (NAME=XUE$EXP, STCLASS="BASED(XUE_EXP$)");
      600     9332        %VD$BUFFER (NAME=BUFFER, STCLASS="BASED(BUFFER$)");
      601     9390        %VD$FILE_NODE (NAME=WRITTEN$NODE, STCLASS="BASED(WRITTEN_NODE$)");
      602     9483        %VD$IT_OPERAND (NAME=IT$OPERAND, STCLASS="BASED(IT_OPERAND$)");
      603     9549        %VD$WILD_STRINGS (NAME=WILD$STRINGS, STCLASS="BASED(VD_6E.WILD_STRINGS$)");
      604     9664        %VD$WILD_STRINGS (NAME=WILD$STRING, STCLASS="BASED(WILD_STRING$)");
      605     9779        %VD$KEY_NUMBER;
      606     9794        %VD$TEXTC;
      607     9817
      608     9818
PL6.E3A0      #001=VDE$PBLOCK_EXPR File=VDE$PARSE.:VDA5TSI                       FRI 07/04/97 11:13 Page:18
      609     9819
      610     9820                /*
      611     9821                *   Open a stream to the Scratch Source file.
      612     9822                */
      613     9823
      614     9824    2           STRING_STREAM$ = ADDR(NIL);
      615     9825    2           CALL VDG$OALLOC (%CLS_STREAM, STRING_STREAM$)
      616     9826    2             ALTRET (OALLOC_FAILED);
      617     9827
      618     9828    2           OPEN_OPTIONS = %CLEAR;
      619     9829    2           OPEN_OPTIONS.STRUCTURE$ = VD_6E.STRUCTURE_SCRATCH$;
      620     9830    2           OPEN_OPTIONS.PROTECT# = %DONT_PROTECT;
      621     9831    2           OPEN_OPTIONS.EXIST# = %EX_ANY;
      622     9832
      623     9833                /*
      624     9834                *           !!! CAUTION !!!
      625     9835                *   We're about to reset VD_ACCESSOR_PRIV.  Any premature
      626     9836                *       exits between now and the call to FCLOSE must
      627     9837                *       restore VD_ACCESSOR_PRIV!!!
      628     9838                */
      629     9839
      630     9840    2           SAVE_ACCESSOR_PRIV = VD_ACCESSOR_PRIV;
      631     9841    2           VD_ACCESSOR_PRIV = %NAC_ALL_BITS;
      632     9842    2           CALL VDA$FOPEN (STRING$STREAM, VD_KEY_SCRATCH_SOURCE, 0,
      633     9843    2             OPEN_OPTIONS)
      634     9844    2             ALTRET (FOPEN_FAILED);
      635     9845
      636     9846                /*
      637     9847                *   Update the new-domain and options info in IT$BLOCK_EXPR.
      638     9848                */
      639     9849    2           IT$BLOCK_EXPR.DOMAINN.FILE_KEY = VD_KEY_SCRATCH_SOURCE;
      640     9850    2           IT$BLOCK_EXPR.DOMAINN.RANGE = %CLEAR;
      641     9851    2           IT$BLOCK_EXPR.DOMAINN.RANGE.START.KEY (%LVL_LOWER-1) =
      642     9852    2             VD_KEY_NUMERIC_BOF; /* Scratch files have numeric keys */
      643     9853    2           IT$BLOCK_EXPR.DOMAINN.RANGE.ENDD.EOF = %TRUE;
      644     9854
      645     9855    2           IT$BLOCK_EXPR.OPTIONS.STRUCTURE$ = VD_6E.STRUCTURE_SCRATCH$;
PL6.E3A0      #001=VDE$PBLOCK_EXPR File=VDE$PARSE.:VDA5TSI                       FRI 07/04/97 11:13 Page:19
      646     9856    2           IT$BLOCK_EXPR.OPTIONS.LEVEL# = %LVL_EXT_REC;
      647     9857    2           IT$BLOCK_EXPR.OPTIONS.COMPONENT# = %CO_DATA;
      648     9858                /* Strings can't be changed: flag it protected */
      649     9859    2           IT$BLOCK_EXPR.OPTIONS.PROTECT# = %PROTECT;
      650     9860    2           IT$BLOCK_EXPR.OPTIONS.EXIST# = %EX_OLD;
      651     9861
      652     9862                /* Delete the old file contents, if any */
      653     9863    2           CALL VDA$LDELETE (STRING$STREAM, IT$BLOCK_EXPR.DOMAINN.RANGE)
      654     9864    2             ALTRET (LDELETE_FAILED);
      655     9865
      656     9866
      657     9867                /* Reset any matching wildcard locations */
      658     9868    2           IF VD_6E.WILD_STRINGS$ ~= ADDR(NIL) THEN
      659     9869    2              WILD$STRINGS.N_WILDCARDS# = 0;
      660     9870
      661     9871    2           STRING_LOC = VD_KEY_NUMERIC_BOF;
      662     9872
      663     9873                /*
      664     9874                *   Evaluate the XUE_EXP# node and write it's buffers to the
      665     9875                *       Scratch Source file.
      666     9876                */
      667     9877
      668     9878    2           XUE_EXP$ = PT_BLOCK_EXPR.SUBLK$ (0);
      669     9879    2           STR_INDEX = 0;
      670     9880    3           DO UNTIL STR_INDEX >= XUE_ECB.OUT$->VD$TEXTC.LENGTH#;
      671     9881    3              CALL VDE$PSTRING (XUE$EXP, STR_INDEX, BUFFER$, RET_CODE,
      672     9882    3                CTRL_ARGS)
      673     9883    3                ALTRET (PSTRING_FAILED);
      674     9884    3              IF XUE_EXP$ ~= ADDR(NIL) THEN
      675     9885    3                 XUE_EXP$ = ADDR(NIL);    /* NIL on 2nd thru nth calls */
      676     9886    4              ELSE DO;
      677     9887    4                 ADDR(STRING_LOC.KEY (%(LVL_EXT_REC-1))) ->
      678     9888    4                   VD$KEY_NUMBER.BYTES# =
      679     9889    4                   ADDR(STRING_LOC.KEY (%(LVL_EXT_REC-1))) ->
      680     9890    4                   VD$KEY_NUMBER.BYTES# + 1000;
      681     9891    4                 END;
      682     9892
PL6.E3A0      #001=VDE$PBLOCK_EXPR File=VDE$PARSE.:VDA5TSI                       FRI 07/04/97 11:13 Page:20
      683     9893    4              IF BUFFER$ = ADDR(NIL) THEN DO;
      684     9894    4                 CALL VDG$OALLOC (%CLS_BUFFER, BUFFER$,
      685     9895    4                   POFFW(PALIGNW(ADDR(BUFFER.BYTES)), BUFFER$))
      686     9896    4                   ALTRET (OALLOC_FAILED);
      687     9897    4                 BUFFER.LENGTH# = 0;   /* Build 0-length buffer */
      688     9898    4                 END;
      689     9899
      690     9900                   /*
      691     9901                   *   If we encountered a wildcard, save its position in
      692     9902                   *   WILD$STRINGS
      693     9903                   */
      694     9904
      695     9905    3              IF RET_CODE = %FNID_WILD_CHAR
      696     9906    4                OR RET_CODE = %FNID_WILD_STRING THEN DO;
      697     9907    4                 IF RET_CODE = %FNID_WILD_STRING THEN
      698     9908    4                    CTRL_ARGS(0) = 1;
      699     9909    4                 ELSE IF CTRL_ARGS(1) ~= CTRL_ARGS(0) THEN
      700     9910    4                       GOTO BAD_CTRL_IN_LITERAL_FAILURE;
      701     9911
      702     9912    4                 IF CTRL_ARGS(0) <= 0 THEN
      703     9913    4                    CTRL_ARGS(0) = 1;
      704     9914
      705     9915    5                 IF VD_6E.WILD_STRINGS$ = ADDR(NIL) THEN DO;
      706     9916    5                    CALL VDG$OALLOC (%CLS_BUFFER, T$, SIZEW(WILD$STRINGS) +
      707     9917    5                      %(MX_WILD_STRINGS-1)*SIZEW(WILD$STRINGS.W))
      708     9918    5                      ALTRET (OALLOC_FAILED);
      709     9919    5                    VD_6E.WILD_STRINGS$ = T$;
      710     9920    5                    WILD$STRINGS.N_WILDCARDS# = 0;
      711     9921    5                    END;
      712     9922
      713     9923    4                 IF WILD$STRINGS.N_WILDCARDS# = %MX_WILD_STRINGS THEN
      714     9924    4                    GOTO TOO_MANY_WILD_STRINGS_FAILURE;
      715     9925
      716     9926    4                 WILD_STRING$ = PINCRW (VD_6E.WILD_STRINGS$,
      717     9927    4                   SIZEW(WILD$STRING.W) * WILD$STRINGS.N_WILDCARDS#);
      718     9928    4                 WILD$STRINGS.N_WILDCARDS# = WILD$STRINGS.N_WILDCARDS# + 1;
      719     9929
PL6.E3A0      #001=VDE$PBLOCK_EXPR File=VDE$PARSE.:VDA5TSI                       FRI 07/04/97 11:13 Page:21
      720     9930    4                 WILD$STRING.W.N# = CTRL_ARGS(0);
      721     9931    4                 WILD$STRING.W.RANGE.START = STRING_LOC;
      722     9932    4                 WILD$STRING.W.RANGE.START.POSITION# = BUFFER.LENGTH#;
      723     9933    4                 WILD$STRING.W.RANGE.ENDD = WILD$STRING.W.RANGE.START;
      724     9934
      725     9935    4                 IF STR_INDEX >= XUE_ECB.OUT$->VD$TEXTC.LENGTH# THEN EXIT;
      726     9936    4                 ADDR (WILD$STRING.W.RANGE.ENDD) -> VD$KEY_NUMBER.BYTES# =
      727     9937    4                   ADDR (WILD$STRING.W.RANGE.ENDD) -> VD$KEY_NUMBER.BYTES# + 1;
      728     9938    4                 RET_CODE = %FNID_RECORD;
      729     9939    4                 END;
      730     9940
      731     9941    3              ELSE IF RET_CODE ~= %CHR_SPACE
      732     9942    3                   AND RET_CODE ~= %FNID_RECORD THEN
      733     9943    3                    GOTO BAD_CTRL_IN_LITERAL_FAILURE;
      734     9944
      735     9945    3              CALL VDA$LWRITE (STRING$STREAM, STRING_LOC, , BUFFER)
      736     9946    3                ALTRET (LWRITE_FAILED);
      737     9947    4              IF RET_CODE ~= %FNID_RECORD THEN DO;
      738     9948    4                 WRITTEN_NODE$ = STRING$STREAM.PORT$ ->
      739     9949    4                   VD$PORT.LEVEL.INTERNAL$ (%LVL_EXT_REC);
      740     9950    4                 WRITTEN$NODE.DESC.EOR = %FALSE;
      741     9951    4                 END;
      742     9952    3              END;
      743     9953                /*
      744     9954                *   Make final adjustments in domain info of IT$BLOCK_EXPR
      745     9955                */
      746     9956    3           IF RET_CODE ~= %FNID_RECORD THEN DO;
      747     9957    3              IT$BLOCK_EXPR.DOMAINN.RANGE.ENDD.POSITION# =
      748     9958    3                WRITTEN$NODE.DESC.DATA$ -> BUFFER.LENGTH#;
      749     9959    3              IT$BLOCK_EXPR.DOMAINN.RANGE.ENDD.KEY (%LVL_LOWER-1) =
      750     9960    3                STRING_LOC.KEY (%LVL_EXT_REC - 1);
      751     9961    3              IT$BLOCK_EXPR.DOMAINN.RANGE.ENDD.EOF = %FALSE;
      752     9962    3              END;
      753     9963
      754     9964    2           CALL VDA$FCLOSE (STRING$STREAM)
      755     9965    2             ALTRET (FCLOSE_FAILED);
      756     9966    2           VD_ACCESSOR_PRIV = SAVE_ACCESSOR_PRIV;
PL6.E3A0      #001=VDE$PBLOCK_EXPR File=VDE$PARSE.:VDA5TSI                       FRI 07/04/97 11:13 Page:22
      757     9967
      758     9968                /*
      759     9969                *   Now build the IT_OPERAND node for the Scratch Source file.
      760     9970                */
      761     9971
      762     9972    2           CALL VDG$OALLOC (%CLS_IT_OPERAND, T$)
      763     9973    2             ALTRET (OALLOC_FAILED);
      764     9974    2           IT_OPERAND$ = T$;
      765     9975    2           IT$OPERAND.OPTIONS.POINT# = %PNT_AO;
      766     9976    2           IT$OPERAND.CODE# = %OPAND_FILE;
      767     9977    2           IT$OPERAND.PARAM$ = ADDR(VD_FKEY_SCRATCH_SOURCE);
      768     9978
      769     9979                /*
      770     9980                *   Link IT$OPERAND into the InTree.
      771     9981                */
      772     9982
      773     9983    2           CALL GUAR_LAST_ADJUST
      774     9984    2             ALTRET (GUAR_LAST_ADJUST_FAILED);
      775     9985    2           IT$OPERAND.PARENT$ = LAST_ADJUST$;
      776     9986                /* LAST_MOVEMENT$ should be ADDR(NIL) */
      777     9987    2           LAST_MOVEMENT$ = IT_OPERAND$;
      778     9988    2           LAST$ADJUST.MOVEMENTS$ = IT_OPERAND$;
      779     9989    2           LAST$ADJUST.MOVEMENTS_TAIL$ = IT_OPERAND$;
      780     9990
      781     9991    2           CALL VDG$OFREE (STRING$STREAM);
      782     9992    2           RETURN;
      783     9993
      784     9994
      785     9995
      786     9996    2   BAD_CTRL_IN_LITERAL_FAILURE:
      787     9997    3           CALL VDG$ERRMSG (%E$HUH) WHENRETURN DO;
      788     9998    4              DO SELECT ASCBIN(RET_CODE);
      789     9999    4                 SELECT (%ASCBIN(FNID_VALUE));
      790    10000    4                 LAST$ERR.ERR.CODE# = %E$TOO_MANY_CTRLFN_VALUE_PARAMS;
      791    10001    4                 SELECT (%ASCBIN(FNID_CURRENT));
      792    10002    4                 LAST$ERR.ERR.CODE# = %E$CTRLFN_CURR_CONFLICTS_W_LIT;
      793    10003    4                 SELECT (%ASCBIN(FNID_WILD_CHAR));
PL6.E3A0      #001=VDE$PBLOCK_EXPR File=VDE$PARSE.:VDA5TSI                       FRI 07/04/97 11:13 Page:23
      794    10004    4                 LAST$ERR.ERR.CODE# = %E$TOO_MANY_CTRLFN_WILDC_PARAMS;
      795    10005    4                 SELECT (%ASCBIN(FNID_BO_MATCH));
      796    10006    4                 LAST$ERR.ERR.CODE# = %E$CTRLFN_BOM_CONFLICTS_W_LIT;
      797    10007    4                 SELECT (%ASCBIN(FNID_EO_MATCH));
      798    10008    4                 LAST$ERR.ERR.CODE# = %E$CTRLFN_EOM_CONFLICTS_W_LIT;
      799    10009    4                 END;
      800    10010    3              END;
      801    10011    2           GOTO FREE_BUFFER;
      802    10012
      803    10013
      804    10014    2   TOO_MANY_WILD_STRINGS_FAILURE: ;
      805    10015    2           CALL VDG$ERRMSG (%E$TOO_MANY_WILD_STRINGS, %MX_WILD_STRINGS);
      806    10016
      807    10017
      808    10018    2   LWRITE_FAILED: ;
      809    10019    2   FREE_BUFFER:
      810    10020    2           CALL VDG$OFREE (BUFFER)
      811    10021    2             ALTRET (OFREE_FAILED);
      812    10022
      813    10023
      814    10024    2   FOPEN_FAILED: ;
      815    10025    2   LDELETE_FAILED: ;
      816    10026    2   PSTRING_FAILED: ;
      817    10027    2   FCLOSE_FAILED: ;
      818    10028    2           VD_ACCESSOR_PRIV = SAVE_ACCESSOR_PRIV;
      819    10029
      820    10030
      821    10031    2   GUAR_LAST_ADJUST_FAILED: ;
      822    10032    2   OALLOC_FAILED: ;
      823    10033    2   OFREE_FAILED: ;
      824    10034    2           CALL VDG$OFREE (STRING$STREAM);
      825    10035    2           ALTRETURN;
      826    10036
      827    10037    2   END STRING_EXPRESSION;
      828    10038
      829    10039        %BOX (TITLE=DOMAIN_OPERAND, PAGE=YES);
             10047    2
PL6.E3A0      #001=VDE$PBLOCK_EXPR File=VDE$PARSE.:VDA5TSI                       FRI 07/04/97 11:13 Page:24
             10051    2   /***************************************************************************
             10053    2    *                                                                         *
             10057    2            *                               DOMAIN_OPERAND                            *
             10059    2            *                                                                         *
             10061    2           ***************************************************************************/

      830    10065
      831    10066        /*I* NAME: DOMAIN_OPERAND
      832    10067            PARAMETERS:
      833    10068                OPTIONS - VD$ACCESS_OPTIONS containing only those options
      834    10069                    specified by the user explicitly for this block expression.
      835    10070            INPUT:
      836    10071                CHILD_INDEX refers to the next child of PT_BLOCK_EXPR to
      837    10072                    process.
      838    10073                CURR$WINDOW must be the current editing VD$WINDOW_SPEC.
      839    10074                EDIT$BLOCK must be the VD$BLOCK_DESC for the current
      840    10075                    EditBlock.  If none, CURR$WINDOW.OPERAND.EDIT_BLOCK$ must
      841    10076                    be NIL.
      842    10077                IT$BLOCK_EXPR must exist, but must have no children.
      843    10078                    Its .OPTIONS must contain only those options explicitly
      844    10079                    given by the user for this block expression.
      845    10080                LAST_SELECT$, LAST_ADJUST$, and LAST_MOVEMENT$ must be nil:
      846    10081                    there should be no nodes in the InTree yet.
      847    10082            OUTPUT:
      848    10083                If the CHILD_INDEX child represents a new explicit domain:
      849    10084                    IT$BLOCK_EXPR.DOMAINN will contain the new domain's file
      850    10085                        key and range.
      851    10086                    IT$BLOCK_EXPR.OPTIONS will have any vacant fields filled
      852    10087                        in from the new domain (if the new domain is a
      853    10088                        BlockDescriptor).
      854    10089                    CHILD_INDEX will be incremented beyond any processed nodes.
      855    10090                    A VD$IT_OPERAND will be appended to the InTree.
      856    10091                    LAST_SELECT$, LAST_ADJUST$, and LAST_MOVEMENT$ will be set
      857    10092                        to point to the newly-allocated InTree nodes.
      858    10093            SCRATCH:
      859    10094                CHILD$, CHILD.
      860    10095            DESCRIPTION:
PL6.E3A0      #001=VDE$PBLOCK_EXPR File=VDE$PARSE.:VDA5TSI                       FRI 07/04/97 11:13 Page:25
      861    10096                If CHILD_INDEX is a T_LO_NAME node, and the name's value is a
      862    10097                    block which is in the same file as the current EditBlock,
      863    10098                    then this is not a domain operand:  ignore it and return.
      864    10099                If the CHILD_INDEX node isn't one of the other domain operand
      865    10100                    codes, ignore it and return.
      866    10101                For:
      867    10102                    T_NEXT, T_PREVIOUS:
      868    10103                        Build the IT_OPERAND for these codes.
      869    10104                        Flag IT$BLOCK_EXPR.DOMAINN.NEXT or .PREVIOUS.
      870    10105                    T_FILE_FID:
      871    10106                        Build the IT_OPERAND for this code.  IT_OPERAND.PARAM$
      872    10107                            will point to a VD$FILE_KEY object.
      873    10108                        Set IT$BLOCK_EXPR.DOMAINN.FILE_KEY and .RANGE.
      874    10109                    T_LO_NAME:
      875    10110                        Build the IT_OPERAND for this code.  IT_OPERAND.PARAM$
      876    10111                            will point to a VD$BLOCK_DESC object specifying
      877    10112                            the Location-name's value.
      878    10113                        Set IT$BLOCK_EXPR.DOMAINN.FILE_KEY and .RANGE.
      879    10114
      880    10115                Build both an IT_SELECT and an IT_ADJUST node in the InTree.
      881    10116                Append the IT_OPERAND node with the explicit domain to
      882    10117                    the current last IT_ADJUST node.
      883    10118                Fill in CURR$WINDOW.DOMAINN for the new domain.
      884    10119        */
      885    10120
      886    10121    1   DOMAIN_OPERAND: PROC ALTRET;
      887    10122
      888    10123
      889    10124
      890    10125    2   DCL NAME_DESC$ PTR;
      891    10126    2   DCL NAME_FILE_KEY$ PTR;
      892    10127    2   DCL CURRENT_FILE_KEY$ PTR;
      893    10128    2   DCL IT_OPERAND$ PTR;
      894    10129    2   DCL FILE_KEY$ PTR;
      895    10130    2   DCL VD_PARSED_PREDEF_FILE$ PTR;
      896    10131    2   DCL KEYLENGTH UBIN;
      897    10132
PL6.E3A0      #001=VDE$PBLOCK_EXPR File=VDE$PARSE.:VDA5TSI                       FRI 07/04/97 11:13 Page:26
      898    10133
      899    10134
      900    10135        %PARSE$SYM (NAME=OUT$SYM, STCLASS=BASED);
      901    10173        %VD$BLOCK_DESC (NAME=NAME$DESC, STCLASS="BASED(NAME_DESC$)");
      902    10320        %VD$TEXTC (NAME=NAME$FILE_KEY, STCLASS="BASED(NAME_FILE_KEY$)");
      903    10343        %VD$TEXTC (NAME=CURRENT$FILE_KEY, STCLASS="BASED(CURRENT_FILE_KEY$)");
      904    10366        %VD$IT_OPERAND (NAME=IT$OPERAND, STCLASS="BASED(IT_OPERAND$)");
      905    10432        %VD$FILE_KEY (STCLASS="BASED(FILE_KEY$)");
      906    10481        %VD$DIR_NODE (NAME=PREDEF$NODE, STCLASS="BASED(VD_PARSED_PREDEF_FILE$)");
      907    10519        %VD$FILE_KEY (NAME=PREDEF$KEY, STCLASS="BASED(VD_PARSED_PREDEF_FILE$)");
      908    10568        %VD$TEXTC;
      909    10591
      910    10592
      911    10593
      912    10594
      913    10595    2           CHILD$ = PT_BLOCK_EXPR.SUBLK$ (CHILD_INDEX);
      914    10596    2           IF CHILD.CODE = %T_MOVEMENT AND CHILD.NSUBLKS = 1 THEN
      915    10597    2              CHILD$ = CHILD.SUBLK$(0);
      916    10598
      917    10599    2           IF CHILD.CODE = %T_LO_NAME
      918    10600    3             AND CURR$WINDOW.OPERAND.EDIT_BLOCK$ ~= ADDR(NIL) THEN DO;
      919    10601    3              CALL VDE$PREAD_LO_NAME (CHILD.SUBLK$(0) -> OUT$SYM.TEXTC$ ->
      920    10602    3                VD$TEXTC, NAME_DESC$)
      921    10603    3                ALTRET (PREAD_LO_NAME_FAILED);
      922    10604                   %GETKEY (KEY=NAME$DESC.FILE_KEY, PTR=NAME_FILE_KEY$);
      923    10614                   %GETKEY (KEY=EDIT$BLOCK.FILE_KEY, PTR=CURRENT_FILE_KEY$);
      924    10624    3              IF NAME$FILE_KEY.BYTES = CURRENT$FILE_KEY.BYTES THEN
      925    10625    3                 RETURN;       /* LO-name is not a new domain */
      926    10626    3              END;
      927    10627    2           ELSE IF CHILD.CODE ~= %T_NEXT
      928    10628    2                AND CHILD.CODE ~= %T_PREVIOUS
      929    10629    2                AND CHILD.CODE ~= %T_FILE_FID
      930    10630    2                AND CHILD.CODE ~= %T_PREDEF_FILE_NAME THEN
      931    10631    2                 RETURN;      /* Not a domain operand */
      932    10632
      933    10633                %BOX (TITLE="CHILD is a new domain specification");

PL6.E3A0      #001=VDE$PBLOCK_EXPR File=VDE$PARSE.:VDA5TSI                       FRI 07/04/97 11:13 Page:27
             10645    2   /***************************************************************************
             10647    2    *                                                                         *
             10651    2            *                    CHILD is a new domain specification                  *
             10653    2            *                                                                         *
             10655    2           ***************************************************************************/

      934    10659
      935    10660    2           CALL VDG$OALLOC (%CLS_IT_OPERAND, T$)
      936    10661    2             ALTRET (OALLOC_FAILED);
      937    10662    2           IT_OPERAND$ = T$;
      938    10663    2           IT$OPERAND.OPTIONS.POINT# = %PNT_AO;
      939    10664
      940    10665    3           DO CASE (CHILD.CODE);
      941    10666    3            CASE (%T_NEXT);
      942    10667    3              IT$OPERAND.CODE# = %OPAND_NEXT;
      943    10668    3              IT$BLOCK_EXPR.DOMAINN.NEXT = %TRUE;
      944    10669
      945    10670    3            CASE (%T_PREVIOUS);
      946    10671    3              IT$OPERAND.CODE# = %OPAND_PREVIOUS;
      947    10672    3              IT$BLOCK_EXPR.DOMAINN.PREVIOUS = %TRUE;
      948    10673
      949    10674    3            CASE (%T_FILE_FID);
      950    10675    3              CALL VDE$PFILE_TO_EDIT (CHILD.SUBLK$(0)->OUT$SYM.TEXTC$->VD$TEXTC,
      951    10676    3                IT$BLOCK_EXPR.DOMAINN.FILE_KEY)
      952    10677    3                ALTRET (PFILE_TO_EDIT_FAILED);
      953    10678    3              GOTO FILE_COMMON;
      954    10679
      955    10680    3            CASE (%T_PREDEF_FILE_NAME);
      956    10681    3              CALL VDG$OALLOC (%CLS_FILE_KEY, IT$BLOCK_EXPR.DOMAINN.FILE_KEY.V$)
      957    10682    3                ALTRET (OALLOC_FAILED);
      958    10683    3              IT$BLOCK_EXPR.DOMAINN.FILE_KEY.TYPE# = %KT_STRING;
      959    10684    3              IT$BLOCK_EXPR.DOMAINN.FILE_KEY.REP# = %REP_REMOTE;
      960    10685    3              FILE_KEY$ = IT$BLOCK_EXPR.DOMAINN.FILE_KEY.V$;
      961    10686    3              VD_PARSED_PREDEF_FILE$ =
      962    10687    3                PINCRW(EQUALS$STREAM.FILE_KEY.V$,CHILD.SCRITCH);
      963    10688    3              IF PREDEF$KEY.OBJECT.CLASS# = %CLS_FILE_KEY THEN
      964    10689    3                 VD$FILE_KEY.UNIQUE.FNAME.BYTES = PREDEF$KEY.UNIQUE.FNAME.BYTES;
PL6.E3A0      #001=VDE$PBLOCK_EXPR File=VDE$PARSE.:VDA5TSI                       FRI 07/04/97 11:13 Page:28
      965    10690    3              ELSE
      966    10691    3                 CALL CONCAT (VD$FILE_KEY.UNIQUE.FNAME.BYTES,
      967    10692    3                   PREDEF$NODE.FILE_STCLASS, %PFK_CONSTANT, PREDEF$NODE.KEY);
      968    10693    3              CALL INDEX (KEYLENGTH, ' ', VD$FILE_KEY.UNIQUE.FNAME.BYTES);
      969    10694    3              VD$FILE_KEY.UNIQUE.FNAME.LENGTH# = KEYLENGTH;
      970    10695    3              VD$FILE_KEY.LENGTH# = KEYLENGTH + 9;
      971    10696    3   FILE_COMMON:;
      972    10697    3              IT$OPERAND.CODE# = %OPAND_FILE;
      973    10698    3              IT$BLOCK_EXPR.DOMAINN.RANGE.ENDD.EOF = %TRUE;
      974    10699    3              IT$BLOCK_EXPR.DOMAINN.RANGE.START.KEY (%LVL_LOWER-1) =
      975    10700    3                VD_KEY_NUMERIC_BOF;
      976    10701    3              CALL VDG$OCOPY (IT$BLOCK_EXPR.DOMAINN.FILE_KEY.V$->VD$FILE_KEY,
      977    10702    3                IT$OPERAND.PARAM$)
      978    10703    3                ALTRET (OCOPY_FAILED);
      979    10704    3              IF IT$BLOCK_EXPR.OPTIONS.STRUCTURE$ = ADDR(NIL) THEN
      980    10705    3                 IT$BLOCK_EXPR.OPTIONS.STRUCTURE$ = VD_$STRUCTURE.V$;
      981    10706    3              IF IT$BLOCK_EXPR.OPTIONS.LEVEL# = 0 THEN
      982    10707    3                 IT$BLOCK_EXPR.OPTIONS.LEVEL# = %LVL_LOWER;
      983    10708    3              IF IT$BLOCK_EXPR.OPTIONS.COMPONENT# = 0 THEN
      984    10709    3                 IT$BLOCK_EXPR.OPTIONS.COMPONENT# = VD_$COMPONENT.V#;
      985    10710    3              IF IT$BLOCK_EXPR.OPTIONS.PROTECT# = 0 THEN
      986    10711    3                 IT$BLOCK_EXPR.OPTIONS.PROTECT# = VD_$PROTECT.V#;
      987    10712    3              IF IT$BLOCK_EXPR.OPTIONS.EXIST# = 0 THEN
      988    10713    3                 IT$BLOCK_EXPR.OPTIONS.EXIST# = VD_$EXIST.V#;
      989    10714
      990    10715    3            CASE (%T_LO_NAME);
      991    10716                   /*
      992    10717                   *   At the start of this routine, we read the name's
      993    10718                   *     value; NAME_DESC$ points to the VD$BLOCK_DESC for
      994    10719                   *     the name.
      995    10720                   */
      996    10721    3              IT$OPERAND.CODE# = %OPAND_BLOCK_DESC;
      997    10722    3              CALL VDG$OCOPY (NAME$DESC, IT$OPERAND.PARAM$)
      998    10723    3                ALTRET (OCOPY_FAILED);
      999    10724
     1000    10725    3              IT$BLOCK_EXPR.DOMAINN.FILE_KEY = %CLEAR;
     1001    10726                   %COPYKEY (FKEY=NAME$DESC.FILE_KEY,
PL6.E3A0      #001=VDE$PBLOCK_EXPR File=VDE$PARSE.:VDA5TSI                       FRI 07/04/97 11:13 Page:29
     1002    10727                   TKEY=IT$BLOCK_EXPR.DOMAINN.FILE_KEY);
     1003    10743                   /* EditBlock is the entire file the LO-name points to */
     1004    10744    3              IT$BLOCK_EXPR.DOMAINN.RANGE.START.KEY (%LVL_LOWER-1) =
     1005    10745    3                VD_KEY_NUMERIC_BOF;
     1006    10746    3              IT$BLOCK_EXPR.DOMAINN.RANGE.ENDD.EOF = %TRUE;
     1007    10747                   /*
     1008    10748                   *  Merge the access options from the LO-name's BlockDescriptor
     1009    10749                   *    into any unspecified fields in IT$BLOCK_EXPR.OPTIONS.
     1010    10750                   */
     1011    10751    3              IF IT$BLOCK_EXPR.OPTIONS.STRUCTURE$ = ADDR(NIL) THEN
     1012    10752    3                 IT$BLOCK_EXPR.OPTIONS.STRUCTURE$ =
     1013    10753    3                   NAME$DESC.OPTIONS.STRUCTURE$;
     1014    10754    3              IF IT$BLOCK_EXPR.OPTIONS.LEVEL# = 0 THEN
     1015    10755    3                 IT$BLOCK_EXPR.OPTIONS.LEVEL# = NAME$DESC.OPTIONS.LEVEL#;
     1016    10756    3              IF IT$BLOCK_EXPR.OPTIONS.COMPONENT# = 0 THEN
     1017    10757    3                 IT$BLOCK_EXPR.OPTIONS.COMPONENT# =
     1018    10758    3                   NAME$DESC.OPTIONS.COMPONENT#;
     1019    10759    3              IF IT$BLOCK_EXPR.OPTIONS.PROTECT# = 0 THEN
     1020    10760    3                 IT$BLOCK_EXPR.OPTIONS.PROTECT# = NAME$DESC.OPTIONS.PROTECT#;
     1021    10761    3              IF IT$BLOCK_EXPR.OPTIONS.EXIST# = 0 THEN
     1022    10762    3                 IT$BLOCK_EXPR.OPTIONS.EXIST# = NAME$DESC.OPTIONS.EXIST#;
     1023    10763
     1024    10764    3            CASE (ELSE);
     1025    10765    3              CALL VDG$ESCREECH;
     1026    10766    3            END;
     1027    10767
     1028    10768                /* We've successfully processed the CHILD_INDEX node */
     1029    10769    2           CHILD_INDEX = CHILD_INDEX + 1;
     1030    10770
     1031    10771                /*
     1032    10772                *   Link IT$OPERAND into the InTree.
     1033    10773                */
     1034    10774
     1035    10775    2           CALL GUAR_LAST_ADJUST
     1036    10776    2             ALTRET (GUAR_LAST_ADJUST_FAILED);
     1037    10777    2           IT$OPERAND.PARENT$ = LAST_ADJUST$;
     1038    10778                /* LAST_MOVEMENT$ should be ADDR(NIL) */
PL6.E3A0      #001=VDE$PBLOCK_EXPR File=VDE$PARSE.:VDA5TSI                       FRI 07/04/97 11:13 Page:30
     1039    10779    2           LAST_MOVEMENT$ = IT_OPERAND$;
     1040    10780    2           LAST$ADJUST.MOVEMENTS$ = IT_OPERAND$;
     1041    10781    2           LAST$ADJUST.MOVEMENTS_TAIL$ = IT_OPERAND$;
     1042    10782
     1043    10783    2           RETURN;
     1044    10784
     1045    10785
     1046    10786
     1047    10787    2   PFILE_TO_EDIT_FAILED:
     1048    10788    2           LAST$ERR.CMDLINE_INDEX# = CHILD.CPOS;
     1049    10789    2           CALL VDG$OFREE (IT$OPERAND)
     1050    10790    2             ALTRET (OFREE_FAILED);
     1051    10791    2           ALTRETURN;
     1052    10792
     1053    10793
     1054    10794    2   PREAD_LO_NAME_FAILED: ;
     1055    10795    2   OALLOC_FAILED: ;
     1056    10796    2   OFREE_FAILED: ;
     1057    10797    2   OCOPY_FAILED: ;
     1058    10798    2   OCOPY_RANGE_FAILED: ;
     1059    10799    2   GUAR_LAST_ADJUST_FAILED: ;
     1060    10800    2           ALTRETURN;
     1061    10801
     1062    10802    2   END DOMAIN_OPERAND;
     1063    10803
     1064    10804        %BOX (TITLE=SELECT_CLAUSE, PAGE=YES);
             10812    2
             10816    2   /***************************************************************************
             10818    2    *                                                                         *
             10822    2            *                               SELECT_CLAUSE                             *
             10824    2            *                                                                         *
             10826    2           ***************************************************************************/

     1065    10830
     1066    10831        /*I* NAME: SELECT_CLAUSE
     1067    10832            PARAMETERS:
     1068    10833                None.
PL6.E3A0      #001=VDE$PBLOCK_EXPR File=VDE$PARSE.:VDA5TSI                       FRI 07/04/97 11:13 Page:31
     1069    10834            INPUT:
     1070    10835                CHILD_INDEX refers to the next child of PT_BLOCK_EXPR to
     1071    10836                    process.
     1072    10837                IT$BLOCK_EXPR must exist.
     1073    10838                LAST_SELECT$, LAST_ADJUST$, and LAST_MOVEMENT$ must point
     1074    10839                    to the last nodes at the SELECT, ADJUST, and movement_expr
     1075    10840                    levels of the InTree.  Each should be NIL if there are no
     1076    10841                    nodes at that level.
     1077    10842            OUTPUT:
     1078    10843                If the CHILD_INDEX child is a T_SELECT_CLAUSE node:
     1079    10844                    A new IT_SELECT node will be allocated an attached to
     1080    10845                        the InTree.
     1081    10846                    LAST_SELECT$ will be updated to point to the new node.
     1082    10847                    LAST_ADJUST$ and LAST_MOVEMENT$ will be NIL'd.
     1083    10848                    CHILD_INDEX will be incremented beyond the processed nodes.
     1084    10849            SCRATCH:
     1085    10850                CHILD$, CHILD.
     1086    10851            DESCRIPTION:
     1087    10852                If the CHILD_INDEX node is a T_SELECT_CLAUSE node,
     1088    10853                allocate a new IT_SELECT node and link it into the InTree.
     1089    10854                If the T_SELECT_CLAUSE node has a T_REPEAT node as a child,
     1090    10855                set the appropriate flag in the new IT_SELECT node.
     1091    10856        */
     1092    10857
     1093    10858    1   SELECT_CLAUSE: PROC ALTRET;
     1094    10859
     1095    10860
     1096    10861    2   DCL RPT_COUNT SBIN;
     1097    10862
     1098    10863
     1099    10864
     1100    10865    2           IF CHILD_INDEX >= PT_BLOCK_EXPR.NSUBLKS THEN
     1101    10866    2              RETURN;
     1102    10867    2           CHILD$ = PT_BLOCK_EXPR.SUBLK$ (CHILD_INDEX);
     1103    10868    2           IF CHILD.CODE ~= %T_SELECT_CLAUSE THEN
     1104    10869    2              RETURN;
     1105    10870
PL6.E3A0      #001=VDE$PBLOCK_EXPR File=VDE$PARSE.:VDA5TSI                       FRI 07/04/97 11:13 Page:32
     1106    10871    2           CALL ALLOC_IT_SELECT
     1107    10872    2             ALTRET (ALLOC_IT_SELECT_FAILED);
     1108    10873
     1109    10874    2           IF CHILD.NSUBLKS = 0 THEN
     1110    10875    2              LAST$SELECT.RPT_COUNT# = 1;
     1111    10876    3           ELSE DO;
     1112    10877                   /* Got some sort of repetition */
     1113    10878    3              IF CHILD.SUBLK$ (0) -> CHILD.NSUBLKS = 0 THEN
     1114    10879    3                 LAST$SELECT.RPT_ALL = %TRUE;
     1115    10880    4              ELSE DO;
     1116    10881    4                 CALL VDE$PNUMBER (CHILD.SUBLK$ (0) ->
     1117    10882    4                   CHILD.SUBLK$ (0) -> CHILD, RPT_COUNT)
     1118    10883    4                   ALTRET (PNUMBER_FAILED);
     1119    10884    4                 IF RPT_COUNT < %MN_REPEAT_COUNT
     1120    10885    4                   OR RPT_COUNT > %MX_REPEAT_COUNT THEN
     1121    10886    4                    GOTO RPT_COUNT_NOT_IN_RANGE_FAILURE;
     1122    10887    4                 LAST$SELECT.RPT_COUNT# = RPT_COUNT;
     1123    10888    4                 END;
     1124    10889    3              END;
     1125    10890
     1126    10891        /*??*    IF NOT LAST$SELECT.RPT_ALL#                                 */
     1127    10892        /*??*      AND IT$BLOCK_EXPR.SELECT$ = LAST_SELECT$ THEN DO;         */
     1128    10893        /*??*       CALL ATTACH_HERE_TO_SELECT (LAST$SELECT)                 */
     1129    10894        /*??*         ALTRET (ATTACH_HERE_TO_SELECT_FAILED);                 */
     1130    10895        /*??*       END;                                                     */
     1131    10896
     1132    10897    2           CHILD_INDEX = CHILD_INDEX + 1;
     1133    10898
     1134    10899    2           RETURN;
     1135    10900
     1136    10901
     1137    10902    2   RPT_COUNT_NOT_IN_RANGE_FAILURE:
     1138    10903    3           CALL VDG$ERRMSG (%E$REPEAT_COUNT_NOT_IN_RANGE) WHENRETURN DO;
     1139    10904    3              LAST$ERR.CMDLINE_INDEX# = CHILD.CPOS;
     1140    10905    3              END;
     1141    10906
     1142    10907
PL6.E3A0      #001=VDE$PBLOCK_EXPR File=VDE$PARSE.:VDA5TSI                       FRI 07/04/97 11:13 Page:33
     1143    10908    2   ALLOC_IT_SELECT_FAILED: ;
     1144    10909    2   PNUMBER_FAILED: ;
     1145    10910    2   OALLOC_FAILED: ;
     1146    10911    2           ALTRETURN;
     1147    10912
     1148    10913    2   END SELECT_CLAUSE;
     1149    10914
     1150    10915        %BOX (TITLE=ADJUST_LIST, PAGE=YES);
             10923    2
             10927    2   /***************************************************************************
             10929    2    *                                                                         *
             10933    2            *                                ADJUST_LIST                              *
             10935    2            *                                                                         *
             10937    2           ***************************************************************************/

     1151    10941
     1152    10942        /*I* NAME: ADJUST_LIST
     1153    10943            PARAMETERS:
     1154    10944                None.
     1155    10945            INPUT:
     1156    10946                CHILD_INDEX refers to the next child of PT_BLOCK_EXPR to
     1157    10947                    process.
     1158    10948                IT$BLOCK_EXPR must exist.
     1159    10949                LAST_SELECT$, LAST_ADJUST$, and LAST_MOVEMENT$ must point
     1160    10950                    to the last nodes at the SELECT, ADJUST, and movement_expr
     1161    10951                    levels of the InTree.  Each should be NIL if there are no
     1162    10952                    nodes at that level.
     1163    10953            OUTPUT:
     1164    10954                If the CHILD_INDEX child is a T_THRU or T_ADJUST node:
     1165    10955                    A new IT_ADJUST node will be allocated an attached to
     1166    10956                        the InTree.
     1167    10957                    LAST_ADJUST$ will be updated to point to the new node.
     1168    10958                    IT_OPERAND, IT_OPERATOR, and IT_COMMAND nodes may also
     1169    10959                        be attached to the InTree.
     1170    10960                    LAST_MOVEMENT$ will be NIL'd.
     1171    10961                    CHILD_INDEX will be incremented beyond the processed nodes.
     1172    10962            SCRATCH:
PL6.E3A0      #001=VDE$PBLOCK_EXPR File=VDE$PARSE.:VDA5TSI                       FRI 07/04/97 11:13 Page:34
     1173    10963                CHILD$, CHILD.
     1174    10964            DESCRIPTION:
     1175    10965                If the CHILD_INDEX node is a T_THRU or T_ADJUST node,
     1176    10966                allocate a new IT_ADJUST node and link it into the InTree.
     1177    10967                For T_THRU, set VD$IT_ADJUST.NEW_STATE# to %EVST_END.
     1178    10968                For T_ADJUST, set VD$IT_ADJUST.NEW_STATE# to %EVST_TOGGLE.
     1179    10969                Process all T_MOVEMENT nodes following the THRU/ADJUST node.
     1180    10970        */
     1181    10971
     1182    10972    1   ADJUST_LIST: PROC ALTRET;
     1183    10973
     1184    10974
     1185    10975    2           IF CHILD_INDEX >= PT_BLOCK_EXPR.NSUBLKS THEN
     1186    10976    2              RETURN;
     1187    10977    2           CHILD$ = PT_BLOCK_EXPR.SUBLK$ (CHILD_INDEX);
     1188    10978    2           IF CHILD.CODE ~= %T_THRU AND CHILD.CODE ~= %T_ADJUST THEN
     1189    10979    2              RETURN;
     1190    10980
     1191    10981    2           CALL GUAR_LAST_SELECT
     1192    10982    2             ALTRET (GUAR_LAST_SELECT_FAILED);
     1193    10983    2           CALL ALLOC_IT_ADJUST
     1194    10984    2             ALTRET (ALLOC_IT_ADJUST_FAILED);
     1195    10985    2           IF CHILD.CODE = %T_THRU THEN
     1196    10986    2              LAST$ADJUST.NEW_STATE# = %EVST_END;
     1197    10987    2           ELSE
     1198    10988    2              LAST$ADJUST.NEW_STATE# = %EVST_TOGGLE;
     1199    10989
     1200    10990    2           CHILD_INDEX = CHILD_INDEX + 1;
     1201    10991
     1202    10992    2           CALL MOVEMENTS
     1203    10993    2             ALTRET (MOVEMENTS_FAILED);
     1204    10994
     1205    10995    2           RETURN;
     1206    10996
     1207    10997
     1208    10998
     1209    10999    2   GUAR_LAST_SELECT_FAILED: ;
PL6.E3A0      #001=VDE$PBLOCK_EXPR File=VDE$PARSE.:VDA5TSI                       FRI 07/04/97 11:13 Page:35
     1210    11000    2   ALLOC_IT_ADJUST_FAILED: ;
     1211    11001    2   MOVEMENTS_FAILED: ;
     1212    11002    2           ALTRETURN;
     1213    11003
     1214    11004    2   END ADJUST_LIST;
     1215    11005
     1216    11006        %BOX (TITLE=MOVEMENTS, PAGE=YES);
             11014    2
             11018    2   /***************************************************************************
             11020    2    *                                                                         *
             11024    2            *                                 MOVEMENTS                               *
             11026    2            *                                                                         *
             11028    2           ***************************************************************************/

     1217    11032
     1218    11033        /*I* NAME: MOVEMENTS
     1219    11034            PARAMETERS:
     1220    11035                None.
     1221    11036            INPUT:
     1222    11037                CHILD_INDEX refers to the next child of PT_BLOCK_EXPR to
     1223    11038                    process.
     1224    11039                CURR$WINDOW must be the current editing VD$WINDOW_SPEC.
     1225    11040                EDIT$BLOCK must be the VD$BLOCK_DESC for the current
     1226    11041                    EditBlock.  If none, CURR$WINDOW.OPERAND.EDIT_BLOCK$ must
     1227    11042                    be NIL.
     1228    11043                IT$BLOCK_EXPR must exist.
     1229    11044                LAST_SELECT$, LAST_ADJUST$, and LAST_MOVEMENT$ must point
     1230    11045                    to the last nodes at the SELECT, ADJUST, and movement_expr
     1231    11046                    levels of the InTree.  Each should be NIL if there are no
     1232    11047                    nodes at that level.
     1233    11048            OUTPUT:
     1234    11049                If the CHILD_INDEX node is a T_MOVEMENT or T_LO_NAME node:
     1235    11050                    One or more IT_OPERAND, IT_OPERATOR, and/or IT_COMMAND
     1236    11051                        nodes will be attached to IT$BLOCK_EXPR.  If none
     1237    11052                        yet, an IT_SELECT node and an IT_ADJUST node
     1238    11053                        will be attached also.
     1239    11054                    LAST_MOVEMENT$ will be updated to point to the last of
PL6.E3A0      #001=VDE$PBLOCK_EXPR File=VDE$PARSE.:VDA5TSI                       FRI 07/04/97 11:13 Page:36
     1240    11055                        the added nodes.
     1241    11056                CHILD_INDEX will be incremented beyond the processed nodes.
     1242    11057            SCRATCH:
     1243    11058                CHILD$, CHILD.
     1244    11059            DESCRIPTION:
     1245    11060                At entry, the CHILD_INDEX child may be either a T_MOVEMENT
     1246    11061                    node or a PLO_NAME node; it'll be PLO_NAME if a
     1247    11062                    Location-name was given as the first item in a block
     1248    11063                    expression (and so looked like a domain operand) but
     1249    11064                    the value of the name didn't specify a new domain.
     1250    11065                    Processing of such a Location-name would be deferred
     1251    11066                    for handling by this routine since it really is just
     1252    11067                    an absolute movement operand, not a domain operand.
     1253    11068                Loop while the CHILD_INDEX child is a T_MOVEMENT node:
     1254    11069                The T_MOVEMENT node must have from one to four children:
     1255    11070
     1256    11071                                    MOVEMENT
     1257    11072                                       |
     1258    11073                 --------------------------------------------
     1259    11074                 |            |      |                      |
     1260    11075                SKIP       FORWARD   AO        NUMERIC_KEY <INTEGER,FRACT>
     1261    11076                 |           or      or                     or
     1262    11077            STRING_EXPR   BACKWARD   BO   STRING_KEY <STRING_EXPR <XUE_EXP#> >
     1263    11078                 |                   or                     or
     1264    11079              XUE_EXP#               EO                LEVEL_NAME
     1265    11080                                                            or
     1266    11081                                                        POSITIONS
     1267    11082                                                            or
     1268    11083                                                   POSITIONS <.Decimal>
     1269    11084                                                            or
     1270    11085                                           POSITIONS <STRING_EXPR <XUE_EXP#> >
     1271    11086                                                            or
     1272    11087                                                     PATTERN <.Dstring>
     1273    11088                                                            or
     1274    11089                                             PATTERN <STRING_EXPR <XUE_EXP#> >
     1275    11090                                                            or
     1276    11091                                                    LO_NAME <.symbol>
PL6.E3A0      #001=VDE$PBLOCK_EXPR File=VDE$PARSE.:VDA5TSI                       FRI 07/04/97 11:13 Page:37
     1277    11092
     1278    11093                The first three children may appear in any order, and each
     1279    11094                    is optional.  The last child must appear and must be the
     1280    11095                    last child of the T_MOVEMENT node.
     1281    11096                For NUMERIC_KEY, either one or both children may be present.
     1282    11097                For the remainder, all children shown are mandatory.
     1283    11098
     1284    11099                This routine processes any number of successive T_MOVEMENT nodes.
     1285    11100        */
     1286    11101
     1287    11102    1   MOVEMENTS: PROC ALTRET;
     1288    11103
     1289    11104
     1290    11105    2   DCL IT_OPERAND$ PTR;
     1291    11106        %VD$EVAL_OPTIONS (NAME=EVAL_OPTIONS, STCLASS=AUTO);
     1292    11121    2   DCL SRCH_SEEN BIT(1) ALIGNED;
     1293    11122    2   DCL SKIP_SEEN BIT(1) ALIGNED;
     1294    11123
     1295    11124
     1296    11125        %VD$IT_OPERAND (NAME=IT$OPERAND, STCLASS="BASED(IT_OPERAND$)");
     1297    11191        %PARSE$OUT (NAME=OUT$BLK, STCLASS=BASED);
     1298    11236        %PARSE$SYM (NAME=OUT$SYM, STCLASS=BASED);
     1299    11274
     1300    11275
     1301    11276
     1302    11277    2           IF CHILD_INDEX >= PT_BLOCK_EXPR.NSUBLKS THEN
     1303    11278    2              RETURN;
     1304    11279
     1305    11280    2           CHILD$ = PT_BLOCK_EXPR.SUBLK$ (CHILD_INDEX);
     1306    11281    3           IF CHILD.CODE = %T_LO_NAME THEN DO;
     1307    11282    3              EVAL_OPTIONS = %CLEAR;
     1308    11283    3              SRCH_SEEN = %FALSE;
     1309    11284    3              SKIP_SEEN = %FALSE;
     1310    11285    3              CALL MOVEMENT_OPERAND (CHILD)
     1311    11286    3                ALTRET (MOVEMENT_OPERAND_FAILED);
     1312    11287    3              CHILD_INDEX = CHILD_INDEX + 1;
     1313    11288    3              END;
PL6.E3A0      #001=VDE$PBLOCK_EXPR File=VDE$PARSE.:VDA5TSI                       FRI 07/04/97 11:13 Page:38
     1314    11289
     1315    11290    2   EACH_MOVEMENT:
     1316    11291    3           DO WHILE CHILD_INDEX < PT_BLOCK_EXPR.NSUBLKS;
     1317    11292    3              CHILD$ = PT_BLOCK_EXPR.SUBLK$ (CHILD_INDEX);
     1318    11293    3              IF CHILD.CODE ~= %T_MOVEMENT THEN
     1319    11294    3                 EXIT EACH_MOVEMENT;
     1320    11295    3              EVAL_OPTIONS = %CLEAR;
     1321    11296    3              SRCH_SEEN = %FALSE;
     1322    11297    3              SKIP_SEEN = %FALSE;
     1323    11298    3              CALL MOVEMENT_OPTIONS (CHILD)
     1324    11299    3                ALTRET (MOVEMENT_OPTIONS_FAILED);
     1325    11300    3              CALL MOVEMENT_OPERAND (CHILD.SUBLK$ (CHILD.NSUBLKS-1) -> OUT$BLK)
     1326    11301    3                ALTRET (MOVEMENT_OPERAND_FAILED);
     1327    11302    3              CHILD_INDEX = CHILD_INDEX + 1;
     1328    11303    3              END EACH_MOVEMENT;
     1329    11304
     1330    11305    2           RETURN;
     1331    11306
     1332    11307
     1333    11308
     1334    11309    2   MOVEMENT_OPTIONS_FAILED: ;
     1335    11310    2   MOVEMENT_OPERAND_FAILED: ;
     1336    11311    2           ALTRETURN;
     1337    11312
     1338    11313                %BOX (TITLE=MOVEMENT_OPTIONS);

             11325    2   /***************************************************************************
             11327    2    *                                                                         *
             11331    2            *                              MOVEMENT_OPTIONS                           *
             11333    2            *                                                                         *
             11335    2           ***************************************************************************/

     1339    11339
     1340    11340        /*I** NAME: MOVEMENT_OPTIONS
     1341    11341            PARAMETERS:
     1342    11342                PT_MOVEMENT - PARSE$OUT block whose code is %T_MOVEMENT.
     1343    11343            INPUT:
PL6.E3A0      #001=VDE$PBLOCK_EXPR File=VDE$PARSE.:VDA5TSI                       FRI 07/04/97 11:13 Page:39
     1344    11344                Same as for MOVEMENTS.
     1345    11345                EVAL_OPTIONS, SRCH_SEEN, and SKIP_SEEN should be %CLEAR at entry.
     1346    11346            OUTPUT:
     1347    11347                Same as for MOVEMENTS.  All children of PT_MOVEMENT will
     1348    11348                    be processed except the last one.
     1349    11349                EVAL_OPTIONS, SRCH_SEEN, and SKIP_SEEN will be set based on
     1350    11350                    the options processed.
     1351    11351            DESCRIPTION:
     1352    11352                Same as for MOVEMENTS.
     1353    11353        */
     1354    11354
     1355    11355    2   MOVEMENT_OPTIONS: PROC (PT_MOVEMENT) ALTRET;
     1356    11356
     1357    11357        %PARSE$OUT (NAME=PT_MOVEMENT, STCLASS=PARAM);
     1358    11402
     1359    11403
     1360    11404    3   DCL MOVE_CHILD_INDEX SBIN;
     1361    11405    3   DCL MOVE_CHILD$ PTR;
     1362    11406    3   DCL NUMBER SBIN;
     1363    11407    3   DCL ERR_CODE SBIN;
     1364    11408
     1365    11409
     1366    11410        %PARSE$OUT (NAME=MOVE$CHILD, STCLASS="BASED(MOVE_CHILD$)");
     1367    11455
     1368    11456
     1369    11457
     1370    11458    3   EACH_MOVE_CHILD_EXCEPT_LAST:
     1371    11459    4           DO MOVE_CHILD_INDEX = 0 TO (PT_MOVEMENT.NSUBLKS - 2);
     1372    11460    4              MOVE_CHILD$ = PT_MOVEMENT.SUBLK$ (MOVE_CHILD_INDEX);
     1373    11461                   %INCREMENT (ARRAY=STATS_TOKENS#, INDX="MOVE$CHILD.CODE - %VD_BASE#");
     1374    11464
     1375    11465    5              DO CASE (MOVE$CHILD.CODE);
     1376    11466
     1377    11467    5               CASE (%T_SKIP);
     1378    11468    5                 IF SKIP_SEEN THEN
     1379    11469    5                    GOTO TOO_MANY_SKIPS_FAILURE;
     1380    11470    5                 SKIP_SEEN = %TRUE;
PL6.E3A0      #001=VDE$PBLOCK_EXPR File=VDE$PARSE.:VDA5TSI                       FRI 07/04/97 11:13 Page:40
     1381    11471    5                 IF MOVE$CHILD.SUBLK$(0)->OUT$BLK.CODE =
     1382    11472    6                   %T_STRING_EXPR THEN DO;
     1383    11473    6                    CALL VDE$PNUMBER (MOVE$CHILD.SUBLK$(0)->
     1384    11474    6                      OUT$BLK.SUBLK$(0)->OUT$BLK, NUMBER)
     1385    11475    6                      ALTRET (PNUMBER_FAILED);
     1386    11476    6                    IF NUMBER < %MN_SKIP_COUNT
     1387    11477    6                      OR NUMBER > %MX_SKIP_COUNT THEN
     1388    11478    6                       GOTO SKIP_NOT_IN_RANGE_FAILURE;
     1389    11479    6                    EVAL_OPTIONS.SKIP# = NUMBER;
     1390    11480    6                    END;
     1391    11481
     1392    11482    5               CASE (%T_FORWARD);
     1393    11483    5                 IF EVAL_OPTIONS.DIRECTION# ~= 0 THEN
     1394    11484    5                    GOTO TOO_MANY_DIRECTIONS_FAILURE;
     1395    11485    5                 EVAL_OPTIONS.DIRECTION# = %DIR_FORWARD;
     1396    11486
     1397    11487    5               CASE (%T_BACKWARD);
     1398    11488    5                 IF EVAL_OPTIONS.DIRECTION# ~= 0 THEN
     1399    11489    5                    GOTO TOO_MANY_DIRECTIONS_FAILURE;
     1400    11490    5                 EVAL_OPTIONS.DIRECTION# = %DIR_BACKWARD;
     1401    11491
     1402    11492    5               CASE (%T_AO);
     1403    11493    5                 IF EVAL_OPTIONS.POINT# ~= 0 THEN
     1404    11494    5                    GOTO TOO_MANY_POINTS_FAILURE;
     1405    11495    5                 EVAL_OPTIONS.POINT# = %PNT_AO;
     1406    11496
     1407    11497    5               CASE (%T_BO);
     1408    11498    5                 IF EVAL_OPTIONS.POINT# ~= 0 THEN
     1409    11499    5                    GOTO TOO_MANY_POINTS_FAILURE;
     1410    11500    5                 EVAL_OPTIONS.POINT# = %PNT_BO;
     1411    11501
     1412    11502    5               CASE (%T_EO);
     1413    11503    5                 IF EVAL_OPTIONS.POINT# ~= 0 THEN
     1414    11504    5                    GOTO TOO_MANY_POINTS_FAILURE;
     1415    11505    5                 EVAL_OPTIONS.POINT# = %PNT_EO;
     1416    11506
     1417    11507    5               CASE (ELSE);
PL6.E3A0      #001=VDE$PBLOCK_EXPR File=VDE$PARSE.:VDA5TSI                       FRI 07/04/97 11:13 Page:41
     1418    11508    5                 CALL VDG$ESCREECH (MOVE$CHILD.CODE);
     1419    11509
     1420    11510    5               END;
     1421    11511
     1422    11512    4              END EACH_MOVE_CHILD_EXCEPT_LAST;
     1423    11513
     1424    11514    3           RETURN;
     1425    11515
     1426    11516
     1427    11517                %BOX (TITLE="Error Handlers");

             11529    3   /***************************************************************************
             11531    3    *                                                                         *
             11535    3            *                               Error Handlers                            *
             11537    3            *                                                                         *
             11539    3           ***************************************************************************/

     1428    11543
     1429    11544    3   TOO_MANY_SKIPS_FAILURE:
     1430    11545    3           ERR_CODE = %E$TOO_MANY_SKIPS;
     1431    11546    3           GOTO SERIOUS_USER_ERROR;
     1432    11547
     1433    11548    3   SKIP_NOT_IN_RANGE_FAILURE:
     1434    11549    3           ERR_CODE = %E$SKIP_COUNT_NOT_IN_RANGE;
     1435    11550    3           GOTO SERIOUS_USER_ERROR;
     1436    11551
     1437    11552    3   TOO_MANY_DIRECTIONS_FAILURE:
     1438    11553    3           ERR_CODE = %E$TOO_MANY_DIRECTIONS;
     1439    11554    3           GOTO SERIOUS_USER_ERROR;
     1440    11555
     1441    11556    3   TOO_MANY_POINTS_FAILURE:
     1442    11557    3           ERR_CODE = %E$TOO_MANY_POINTS;
     1443    11558    3           GOTO SERIOUS_USER_ERROR;
     1444    11559
     1445    11560
     1446    11561    3   SERIOUS_USER_ERROR:
     1447    11562    4           CALL VDG$ERRMSG (ERR_CODE) WHENRETURN DO;
PL6.E3A0      #001=VDE$PBLOCK_EXPR File=VDE$PARSE.:VDA5TSI                       FRI 07/04/97 11:13 Page:42
     1448    11563    4              LAST$ERR.CMDLINE_INDEX# = MOVE$CHILD.CPOS;
     1449    11564    4              END;
     1450    11565
     1451    11566
     1452    11567    3   PNUMBER_FAILED: ;
     1453    11568    3   OALLOC_FAILED: ;
     1454    11569    3           ALTRETURN;
     1455    11570
     1456    11571    3   END MOVEMENT_OPTIONS;
     1457    11572
     1458    11573        %BOX (TITLE=MOVEMENT_OPERAND);

             11585    3   /***************************************************************************
             11587    3    *                                                                         *
             11591    3            *                              MOVEMENT_OPERAND                           *
             11593    3            *                                                                         *
             11595    3           ***************************************************************************/

     1459    11599
     1460    11600        /*I** NAME: MOVEMENT_OPERAND
     1461    11601            PARAMETERS:
     1462    11602                OPERAND - PARSE$OUT node for the operand to process.  Usually
     1463    11603                    this is the last child of a %T_MOVEMENT node; however,
     1464    11604                    it can also be a %T_LO_NAME node which appeared as the
     1465    11605                    first operand in a block expression (and so looked like
     1466    11606                    a domain operand), but whose value didn't specify a new
     1467    11607                    domain (and so wasn't processed earlier with the domain
     1468    11608                    operand).
     1469    11609            INPUT:
     1470    11610                Same as for MOVEMENTS.
     1471    11611                EVAL_OPTIONS must have been cleared, then filled with any
     1472    11612                    evaluation options seen for this operand.
     1473    11613                SRCH_SEEN and SKIP_SEEN must be set based on any SKIP or
     1474    11614                    FIND/MATCH options seen for this operand.
     1475    11615            OUTPUT:
     1476    11616                Same as for MOVEMENTS.
     1477    11617                IT_OPERAND$ and LAST_MOVEMENT$ will point to the VD$IT_OPERAND
PL6.E3A0      #001=VDE$PBLOCK_EXPR File=VDE$PARSE.:VDA5TSI                       FRI 07/04/97 11:13 Page:43
     1478    11618                    node for OPERAND.  It will be linked into the InTree;
     1479    11619                    its .OPTIONS will contain EVAL_OPTIONS.
     1480    11620            DESCRIPTION:
     1481    11621                See MOVEMENTS.
     1482    11622        */
     1483    11623
     1484    11624    2   MOVEMENT_OPERAND: PROC (OPERAND) ALTRET;
     1485    11625
     1486    11626        %PARSE$OUT (NAME=OPERAND, STCLASS=PARAM);
     1487    11671
     1488    11672
     1489    11673    3   DCL NUMBER SBIN;
     1490    11674    3   DCL ABS_MOVEMENT BIT(1) ALIGNED;
     1491    11675        %VD$KEY (NAME=KEY, STCLASS=AUTO);
     1492    11689    3   DCL KEY_BUFFER$ PTR;
     1493    11690    3   DCL RET_CODE CHAR(1) CALIGNED;
     1494    11691    3   DCL CTRL_ARGS(0:%(MX_CTRL_FN_ARGS-1)) UBIN;
     1495    11692    3   DCL ERR_CODE SBIN;
     1496    11693
     1497    11694
     1498    11695        %VD$KEY_NUMBER;
     1499    11710        %VD$BUFFER (NAME=KEY$BUFFER, STCLASS="BASED(KEY_BUFFER$)");
     1500    11768
     1501    11769                /*
     1502    11770                *   Fill in the "point" evaluation option:  it's common
     1503    11771                *       to all operands.
     1504    11772                */
     1505    11773
     1506    11774    3           IF EVAL_OPTIONS.POINT# = 0 THEN
     1507    11775    3              EVAL_OPTIONS.POINT# = VD_$POINT.V#;
     1508    11776
     1509    11777
     1510    11778                /*
     1511    11779                *   Process the operand to move over.
     1512    11780                */
     1513    11781
     1514    11782    3           CALL GUAR_LAST_ADJUST
PL6.E3A0      #001=VDE$PBLOCK_EXPR File=VDE$PARSE.:VDA5TSI                       FRI 07/04/97 11:13 Page:44
     1515    11783    3             ALTRET (GUAR_LAST_ADJUST_FAILED);
     1516    11784                %INCREMENT (ARRAY=STATS_TOKENS#, INDX="OPERAND.CODE - %VD_BASE#");
     1517    11787    3           ABS_MOVEMENT = %FALSE;
     1518    11788    3           IT_OPERAND$ = ADDR(NIL);
     1519    11789
     1520    11790    3   MOVE_CHILD_CODE_CASES:
     1521    11791    4           DO CASE (OPERAND.CODE);
     1522    11792
     1523    11793    4            CASE (%T_LO_NAME);
     1524    11794    4              IF SKIP_SEEN
     1525    11795    4                OR EVAL_OPTIONS.DIRECTION# ~= 0 THEN
     1526    11796    4                 GOTO LO_NAME_OPTS_NOT_LEGAL_FAILURE;
     1527    11797    4              CALL PLO_NAME (OPERAND)
     1528    11798    4                ALTRET (PLO_NAME_FAILED);
     1529    11799    4              ABS_MOVEMENT = %TRUE;
     1530    11800
     1531    11801
     1532    11802    4            CASE (%T_NUMERIC_KEY);
     1533    11803    4              IF SKIP_SEEN
     1534    11804    4                OR EVAL_OPTIONS.DIRECTION# ~= 0 THEN
     1535    11805    4                 GOTO KEY_OPTIONS_NOT_LEGAL_FAILURE;
     1536    11806    4              CALL VDE$PNUMERIC_KEY (OPERAND, KEY)
     1537    11807    4                ALTRET (PNUMERIC_KEY_FAILED);
     1538    11808    4              CALL VDG$OALLOC (%CLS_IT_OPERAND, T$)
     1539    11809    4                ALTRET (OALLOC_FAILED);
     1540    11810    4              IT_OPERAND$ = T$;
     1541    11811    4              IT$OPERAND.OPTIONS = EVAL_OPTIONS;
     1542    11812    4              IT$OPERAND.CODE# = %OPAND_NODE;
     1543    11813    4              IT$OPERAND.KEY = KEY;
     1544    11814    4              ABS_MOVEMENT = %TRUE;
     1545    11815
     1546    11816
     1547    11817    4            CASE (%T_STRING_KEY);
     1548    11818    4              IF SKIP_SEEN
     1549    11819    4                OR EVAL_OPTIONS.DIRECTION# ~= 0 THEN
     1550    11820    4                 GOTO KEY_OPTIONS_NOT_LEGAL_FAILURE;
     1551    11821                   /*
PL6.E3A0      #001=VDE$PBLOCK_EXPR File=VDE$PARSE.:VDA5TSI                       FRI 07/04/97 11:13 Page:45
     1552    11822                   *  Note that we don't know what kind of file this key is for;
     1553    11823                   *N*   it could be for a string-keyed file, or
     1554    11824                   *    it could be for a numeric-keyed file.  We'll just
     1555    11825                   *    store it as a string-key in the InTree; later, when the InTree
     1556    11826                   *    is evaluated, if the file is numeric keyed, we'll convert
     1557    11827                   *    the string key to a numeric key.
     1558    11828                   *  OPERAND is the T_STRING_KEY node below:
     1559    11829                   *
     1560    11830                   *                T_STRING_KEY
     1561    11831                   *                    |
     1562    11832                   *                T_STRING_EXPR
     1563    11833                   *                    |
     1564    11834                   *                 XUE_EXP
     1565    11835                   */
     1566    11836    4              KEY = %CLEAR;
     1567    11837    4              KEY.TYPE# = %KT_STRING;
     1568    11838    4              KEY.REP# = %REP_REMOTE;
     1569    11839    4              KEY.V$ = ADDR(NIL);
     1570    11840    4              KEY_BUFFER$ = ADDR(NIL);
     1571    11841    4              CALL VDE$PSTRING (OPERAND.SUBLK$(0)->OUT$BLK.SUBLK$(0)->OUT$BLK,
     1572    11842    4                NUMBER, KEY_BUFFER$, RET_CODE, CTRL_ARGS)
     1573    11843    5              WHENALTRETURN DO;
     1574    11844    5                 CALL VDG$OFREE (KEY$BUFFER)
     1575    11845    5                   ALTRET (OFREE_FAILED);
     1576    11846    5                 GOTO PSTRING_FAILED;
     1577    11847    5                 END;
     1578    11848    5              IF RET_CODE ~= %CHR_SPACE THEN DO;
     1579    11849    5                 CALL VDG$OFREE (KEY$BUFFER)
     1580    11850    5                   ALTRET (OFREE_FAILED);
     1581    11851    5                 GOTO CTRLFN_CONFLICTS_W_KEY_FAILURE;
     1582    11852    5                 END;
     1583    11853                   /* KEY.V$ must point to a VD$TEXTC_REMOTE, not a VD$BUFFER */
     1584    11854    4              CALL VDG$OALLOC (%CLS_TEXTC_REMOTE, KEY.V$,
     1585    11855    4                (LENGTHC(VD$STRING_HEADER) + KEY$BUFFER.LENGTH# +
     1586    11856    4                (%NB_PER_WORD-1)) / %NB_PER_WORD)
     1587    11857    4                ALTRET (OALLOC_FAILED);
     1588    11858    4              KEY.V$->VD$TEXTC_REMOTE.LENGTH# = KEY$BUFFER.LENGTH#;
PL6.E3A0      #001=VDE$PBLOCK_EXPR File=VDE$PARSE.:VDA5TSI                       FRI 07/04/97 11:13 Page:46
     1589    11859    4              KEY.V$->VD$TEXTC_REMOTE.BYTES = KEY$BUFFER.BYTES;
     1590    11860    4              CALL VDG$OFREE (KEY$BUFFER)
     1591    11861    4                ALTRET (OFREE_FAILED);
     1592    11862
     1593    11863    4              CALL VDG$OALLOC (%CLS_IT_OPERAND, T$)
     1594    11864    4                ALTRET (OALLOC_FAILED);
     1595    11865    4              IT_OPERAND$ = T$;
     1596    11866    4              IT$OPERAND.OPTIONS = EVAL_OPTIONS;
     1597    11867    4              IT$OPERAND.CODE# = %OPAND_NODE;
     1598    11868    4              IT$OPERAND.KEY = KEY;
     1599    11869    4              ABS_MOVEMENT = %TRUE;
     1600    11870
     1601    11871
     1602    11872    4            CASE (%T_LEVEL_NAME);
     1603    11873                   /* Fill in the default options for relative operands */
     1604    11874    4              IF NOT SRCH_SEEN THEN
     1605    11875    4                 EVAL_OPTIONS.SRCH = BINBIT(VD_$SEARCH.V#, 1);
     1606    11876    4              IF NOT SKIP_SEEN THEN
     1607    11877    4                 EVAL_OPTIONS.SKIP# = VD_$SKIP.V#;
     1608    11878    4              IF EVAL_OPTIONS.DIRECTION# = 0 THEN
     1609    11879    4                 EVAL_OPTIONS.DIRECTION# = VD_$DIRECTION.V#;
     1610    11880
     1611    11881    4              CALL VDG$OALLOC (%CLS_IT_OPERAND, T$)
     1612    11882    4                ALTRET (OALLOC_FAILED);
     1613    11883    4              IT_OPERAND$ = T$;
     1614    11884    4              IT$OPERAND.OPTIONS = EVAL_OPTIONS;
     1615    11885    4              IT$OPERAND.CODE# = %OPAND_NODE;
     1616    11886
     1617    11887
     1618    11888    4            CASE (%T_POSITIONS);
     1619    11889                   /* Fill in the default options for relative operands */
     1620    11890    4              IF NOT SRCH_SEEN THEN
     1621    11891    4                 EVAL_OPTIONS.SRCH = BINBIT(VD_$SEARCH.V#, 1);
     1622    11892    4              IF NOT SKIP_SEEN THEN
     1623    11893    4                 EVAL_OPTIONS.SKIP# = VD_$SKIP.V#;
     1624    11894    4              IF EVAL_OPTIONS.DIRECTION# = 0 THEN
     1625    11895    4                 EVAL_OPTIONS.DIRECTION# = VD_$DIRECTION.V#;
PL6.E3A0      #001=VDE$PBLOCK_EXPR File=VDE$PARSE.:VDA5TSI                       FRI 07/04/97 11:13 Page:47
     1626    11896
     1627    11897    4              CALL VDG$OALLOC (%CLS_IT_OPERAND, T$)
     1628    11898    4                ALTRET (OALLOC_FAILED);
     1629    11899    4              IT_OPERAND$ = T$;
     1630    11900    4              IT$OPERAND.OPTIONS = EVAL_OPTIONS;
     1631    11901    4              IT$OPERAND.CODE# = %OPAND_POSITION;
     1632    11902
     1633    11903    5              IF OPERAND.NSUBLKS > 0 THEN DO;
     1634    11904                      /* This is a specific position # */
     1635    11905    5                 IF OPERAND.SUBLK$(0)->OUT$BLK.CODE =
     1636    11906    6                   %T_STRING_EXPR THEN DO;
     1637    11907    6                    CALL VDE$PNUMBER (OPERAND.SUBLK$(0)->OUT$BLK,
     1638    11908    6                      NUMBER)
     1639    11909    7                    WHENALTRETURN DO;
     1640    11910    7                       CALL VDG$OFREE (IT$OPERAND)
     1641    11911    7                         ALTRET (OFREE_FAILED);
     1642    11912    7                       GOTO PNUMBER_FAILED;
     1643    11913    7                       END;
     1644    11914    6                    END;
     1645    11915    6                 ELSE DO;
     1646    11916    6                    CALL X$DEC_CONVERT (OPERAND.SUBLK$(0)->OUT$SYM.TEXTC$,
     1647    11917    6                      NUMBER)
     1648    11918    7                    WHENALTRETURN DO;
     1649    11919    7                       CALL VDG$OFREE (IT$OPERAND)
     1650    11920    7                         ALTRET (OFREE_FAILED);
     1651    11921    7                       GOTO DEC_CONVERT_FAILED;
     1652    11922    7                       END;
     1653    11923    6                    END;
     1654    11924    5                 IF NUMBER <= 0
     1655    11925    5                   OR NUMBER > %MXNB_DATA THEN
     1656    11926    5                    GOTO POSITION_NOT_IN_RANGE_FAILURE;
     1657    11927    5                 IT$OPERAND.KEY = %CLEAR;
     1658    11928    5                 IT$OPERAND.KEY.TYPE# = %KT_NUMBER;
     1659    11929    5                 IT$OPERAND.KEY.REP# = %REP_LOCAL;
     1660    11930    5                 ADDR(IT$OPERAND.KEY)->VD$KEY_NUMBER.LENGTH# = %NB_NUMERIC_KEY;
     1661    11931    5                 ADDR(IT$OPERAND.KEY)->VD$KEY_NUMBER.BYTES# = NUMBER - 1;
     1662    11932    5                 END;
PL6.E3A0      #001=VDE$PBLOCK_EXPR File=VDE$PARSE.:VDA5TSI                       FRI 07/04/97 11:13 Page:48
     1663    11933
     1664    11934
     1665    11935    4            CASE (%T_PATTERN);
     1666    11936                   /* Fill in the default options for relative operands */
     1667    11937    4              IF NOT SRCH_SEEN THEN
     1668    11938    4                 EVAL_OPTIONS.SRCH = BINBIT(VD_$SEARCH.V#, 1);
     1669    11939    4              IF NOT SKIP_SEEN THEN
     1670    11940    4                 EVAL_OPTIONS.SKIP# = VD_$SKIP.V#;
     1671    11941    4              IF EVAL_OPTIONS.DIRECTION# = 0 THEN
     1672    11942    4                 EVAL_OPTIONS.DIRECTION# = VD_$DIRECTION.V#;
     1673    11943
     1674    11944    4              CALL VDG$OALLOC (%CLS_IT_OPERAND, T$)
     1675    11945    4                ALTRET (OALLOC_FAILED);
     1676    11946    4              IT_OPERAND$ = T$;
     1677    11947    4              IT$OPERAND.OPTIONS = EVAL_OPTIONS;
     1678    11948    4              IT$OPERAND.CODE# = %OPAND_PATTERN;
     1679    11949    4              CALL VDE$PPATTERN (OPERAND, IT$OPERAND.PARAM$)
     1680    11950    4                ALTRET (PPATTERN_FAILED);
     1681    11951
     1682    11952
     1683    11953    4            CASE (ELSE);
     1684    11954    4              CALL VDG$ESCREECH (OPERAND.CODE);
     1685    11955
     1686    11956    4            END MOVE_CHILD_CODE_CASES;
     1687    11957
     1688    11958
     1689    11959                /*
     1690    11960                *   Link the new IT$OPERAND node into InTree.
     1691    11961                */
     1692    11962
     1693    11963    4           IF ABS_MOVEMENT THEN DO;
     1694    11964    4              CALL ABS_IT_OPERAND
     1695    11965    4                ALTRET (ABS_IT_OPERAND_FAILED);
     1696    11966    4              END;
     1697    11967
     1698    11968    3           IT$OPERAND.PARENT$ = LAST_ADJUST$;
     1699    11969    3           IF LAST_MOVEMENT$ = ADDR(NIL) THEN
PL6.E3A0      #001=VDE$PBLOCK_EXPR File=VDE$PARSE.:VDA5TSI                       FRI 07/04/97 11:13 Page:49
     1700    11970    3              LAST$ADJUST.MOVEMENTS$ = IT_OPERAND$;
     1701    11971    3           ELSE
     1702    11972    3              LAST$MOVEMENT.FLINK$ = IT_OPERAND$;
     1703    11973    3           LAST$ADJUST.MOVEMENTS_TAIL$ = IT_OPERAND$;
     1704    11974    3           LAST_MOVEMENT$ = IT_OPERAND$;
     1705    11975
     1706    11976    3           RETURN;
     1707    11977
     1708    11978
     1709    11979                %BOX (TITLE="Error Handlers");

             11991    3   /***************************************************************************
             11993    3    *                                                                         *
             11997    3            *                               Error Handlers                            *
             11999    3            *                                                                         *
             12001    3           ***************************************************************************/

     1710    12005
     1711    12006    3   LO_NAME_OPTS_NOT_LEGAL_FAILURE:
     1712    12007    3           ERR_CODE = %E$LO_NAME_OPTIONS_NOT_LEGAL;
     1713    12008    3           GOTO SERIOUS_USER_ERROR;
     1714    12009
     1715    12010    3   KEY_OPTIONS_NOT_LEGAL_FAILURE:
     1716    12011    3           ERR_CODE = %E$KEY_OPTIONS_NOT_LEGAL;
     1717    12012    3           GOTO SERIOUS_USER_ERROR;
     1718    12013
     1719    12014    3   CTRLFN_CONFLICTS_W_KEY_FAILURE:
     1720    12015    3           ERR_CODE = %E$CTRLFN_CONFLICTS_W_KEY;
     1721    12016    3           GOTO SERIOUS_USER_ERROR;
     1722    12017
     1723    12018    3   POSITION_NOT_IN_RANGE_FAILURE:
     1724    12019    3           ERR_CODE = %E$POSITION_VALUE_NOT_IN_RANGE;
     1725    12020    3           GOTO SERIOUS_USER_ERROR;
     1726    12021
     1727    12022
     1728    12023    3   SERIOUS_USER_ERROR:
     1729    12024    4           CALL VDG$ERRMSG (ERR_CODE) WHENRETURN DO;
PL6.E3A0      #001=VDE$PBLOCK_EXPR File=VDE$PARSE.:VDA5TSI                       FRI 07/04/97 11:13 Page:50
     1730    12025    4              LAST$ERR.CMDLINE_INDEX# = OPERAND.CPOS;
     1731    12026    4              END;
     1732    12027
     1733    12028
     1734    12029    3   PPATTERN_FAILED:
     1735    12030    3           CALL VDG$OFREE (IT$OPERAND)
     1736    12031    3             ALTRET (OFREE_FAILED);
     1737    12032    3           ALTRETURN;
     1738    12033
     1739    12034
     1740    12035    3   GUAR_LAST_ADJUST_FAILED: ;
     1741    12036    3   PNUMBER_FAILED: ;
     1742    12037    3   PSTRING_FAILED: ;
     1743    12038    3   DEC_CONVERT_FAILED: ;
     1744    12039    3   PLO_NAME_FAILED: ;
     1745    12040    3   PNUMERIC_KEY_FAILED: ;
     1746    12041    3   ABS_IT_OPERAND_FAILED: ;
     1747    12042    3   OFREE_FAILED: ;
     1748    12043    3   OALLOC_FAILED: ;
     1749    12044    3           ALTRETURN;
     1750    12045
     1751    12046
     1752    12047                %BOX (TITLE=PLO_NAME);

             12059    3   /***************************************************************************
             12061    3    *                                                                         *
             12065    3            *                                  PLO_NAME                               *
             12067    3            *                                                                         *
             12069    3           ***************************************************************************/

     1753    12073
     1754    12074        /*I*** NAME: PLO_NAME
     1755    12075            PARAMETERS:
     1756    12076                PT_LO_NAME - PARSE$OUT node whose code is %T_LO_NAME.
     1757    12077            INPUT:
     1758    12078                EVAL_OPTIONS - VD$EVAL_OPTIONS containing values from the
     1759    12079                    T_MOVEMENT clause evaluation options seen so far.
PL6.E3A0      #001=VDE$PBLOCK_EXPR File=VDE$PARSE.:VDA5TSI                       FRI 07/04/97 11:13 Page:51
     1760    12080                IT$BLOCK_EXPR - The VD$IT_BLOCK_EXPR root node of the InTree.
     1761    12081                    Its .DOMAINN must be %CLEAR, or must specify the domain
     1762    12082                    for this block expression.
     1763    12083                EDIT$BLOCK - If IT$BLOCK_EXPR.DOMAINN is %CLEAR, then EDIT$BLOCK
     1764    12084                    must specifiy the domain for this block expression.
     1765    12085                LAST$SELECT, LAST$ADJUST - The last IT_SELECT and IT_ADJUST
     1766    12086                    nodes in the InTree currently.  They must exist.
     1767    12087            OUTPUT:
     1768    12088                If no errors found:
     1769    12089                    IT_OPERAND$ and LAST_MOVEMENT$ will point to the VD$IT_OPERAND
     1770    12090                        node for the LO-name.  It will NOT be linked into the
     1771    12091                        InTree yet; its .OPTIONS will contain EVAL_OPTIONS.
     1772    12092                        Its .CODE# will be either:
     1773    12093                        o %OPAND_LO_NAME; its .KEY will be the key for level 1
     1774    12094                            of the Locations-file for the name.
     1775    12095                        o %OPAND_BLOCK_DESC; its .PARAM$ will point to the
     1776    12096                            VD_BLOCK_DESC which is the value of this operand.
     1777    12097            DESCRIPTION:
     1778    12098                The PT_LO_NAME node must have one child:  an OUT$SYM node
     1779    12099                containing the Location-name.
     1780    12100
     1781    12101                Procedure:
     1782    12102                During the parse, VDI$PUSER_PARSE_RTN should have verified
     1783    12103                    that the name exists in the Locations-file before
     1784    12104                    accepting the T_LO_NAME parse node.
     1785    12105                Read the name from the Locations-file.
     1786    12106                Verify that the file containing the name's value is the same
     1787    12107                    as the file containing the domain of the current block
     1788    12108                    expression.
     1789    12109                Allocate an IT$OPERAND node, and store the name as a key
     1790    12110                    into the Locations-file in the IT$OPERAND node.
     1791    12111                If the name isn't writable by the user and doesn't start
     1792    12112                    with a dollar sign, then make a copy of the name's
     1793    12113                    value (a VD$BLOCK_DESC) and point IT$OPERAND to the copy.
     1794    12114                    This is done for CURRENT, HERE, and THAT because they
     1795    12115                    refer to the respective value at the start of command
     1796    12116                    processing.  Other LO-name references are dynamically
PL6.E3A0      #001=VDE$PBLOCK_EXPR File=VDE$PARSE.:VDA5TSI                       FRI 07/04/97 11:13 Page:52
     1797    12117                    re-evaluated (re-read from the Locations-file) each
     1798    12118                    time they're referenced during block expression evaluation.
     1799    12119                    (This is useful both for the $ENCLOSING, $FP, and $RANGE
     1800    12120                    names, whose values change during evaluation, and for
     1801    12121                    user-defined names in repeated block expressions, whose
     1802    12122                    values may change for each repetition of the evaluation
     1803    12123                    of the block expression.)
     1804    12124        */
     1805    12125
     1806    12126    3   PLO_NAME: PROC (PT_LO_NAME) ALTRET;
     1807    12127
     1808    12128        %PARSE$OUT (NAME=PT_LO_NAME, STCLASS=PARAM);
     1809    12173
     1810    12174
     1811    12175    4   DCL PT_SYMBOL$ PTR;
     1812    12176    4   DCL BLOCK_DESC$ PTR;
     1813    12177    4   DCL NAME_NODE$ PTR;
     1814    12178    4   DCL LO_NAME_FILE_KEY$ PTR;
     1815    12179    4   DCL DOMAIN_FILE_KEY$ PTR;
     1816    12180    4   DCL INDX SBIN;
     1817    12181
     1818    12182
     1819    12183        %PARSE$SYM (NAME=PT$SYMBOL, STCLASS="BASED(PT_SYMBOL$)");
     1820    12221        %VD$BLOCK_DESC (NAME=BLOCK$DESC, STCLASS="BASED(BLOCK_DESC$)");
     1821    12368        %VD$FILE_NODE (NAME=NAME$NODE, STCLASS="BASED(NAME_NODE$)");
     1822    12461        %VD$TEXTC (NAME=LO$NAME_FILE_KEY, STCLASS="BASED(LO_NAME_FILE_KEY$)");
     1823    12484        %VD$TEXTC (NAME=DOMAIN$FILE_KEY, STCLASS="BASED(DOMAIN_FILE_KEY$)");
     1824    12507        %VD$TEXTC;
     1825    12530
     1826    12531
     1827    12532
     1828    12533    4           PT_SYMBOL$ = PT_LO_NAME.SUBLK$ (0);
     1829    12534    4           CALL VDE$PREAD_LO_NAME (PT$SYMBOL.TEXTC$->VD$TEXTC,
     1830    12535    4             BLOCK_DESC$, NAME_NODE$)
     1831    12536    4             ALTRET (PREAD_LO_NAME_FAILED);
     1832    12537
     1833    12538                %GETKEY (KEY=BLOCK$DESC.FILE_KEY, PTR=LO_NAME_FILE_KEY$);
PL6.E3A0      #001=VDE$PBLOCK_EXPR File=VDE$PARSE.:VDA5TSI                       FRI 07/04/97 11:13 Page:53
     1834    12548    5           IF IT$BLOCK_EXPR.DOMAINN = %CLEAR THEN DO;
     1835    12549                   %GETKEY (KEY=EDIT$BLOCK.FILE_KEY, PTR=DOMAIN_FILE_KEY$);
     1836    12559    5              END;
     1837    12560    5           ELSE DO;
     1838    12561                   %GETKEY (KEY=IT$BLOCK_EXPR.DOMAINN.FILE_KEY,
     1839    12562                   PTR=DOMAIN_FILE_KEY$);
     1840    12572    5              END;
     1841    12573    4           IF LO$NAME_FILE_KEY.BYTES ~= DOMAIN$FILE_KEY.BYTES THEN
     1842    12574    4              GOTO DOMAIN_OPAND_NOT_1ST_FAILURE;
     1843    12575
     1844    12576    4           CALL VDG$OALLOC (%CLS_IT_OPERAND, T$)
     1845    12577    4             ALTRET (OALLOC_FAILED);
     1846    12578    4           IT_OPERAND$ = T$;
     1847    12579    4           IT$OPERAND.OPTIONS = EVAL_OPTIONS;
     1848    12580
     1849    12581    4           IF NAME$NODE.ACCESS (%NAC_WRITE)
     1850    12582    5             OR SUBSTR(PT$SYMBOL.TEXT, 0, 1) = %CHR_DOLLAR THEN DO;
     1851    12583    5              IT$OPERAND.CODE# = %OPAND_LO_NAME;
     1852    12584    5              IT$OPERAND.KEY.TYPE# = %KT_STRING;
     1853    12585    5              IT$OPERAND.KEY.REP# = %REP_REMOTE;
     1854    12586    5              CALL VDG$OALLOC (%CLS_TEXTC_REMOTE, IT$OPERAND.KEY.V$,
     1855    12587    5                (LENGTHC(VD$STRING_HEADER) + PT$SYMBOL.COUNT + %NB_PER_WORD-1) /
     1856    12588    5                %NB_PER_WORD)
     1857    12589    5                ALTRET (OALLOC_FAILED);
     1858    12590    5              IT$OPERAND.KEY.V$->VD$TEXTC_REMOTE.LENGTH# = PT$SYMBOL.COUNT;
     1859    12591    5              IT$OPERAND.KEY.V$->VD$TEXTC_REMOTE.BYTES = PT$SYMBOL.TEXT;
     1860    12592    5              END;
     1861    12593    5           ELSE DO;
     1862    12594                   /* Name refers to value at start of command:  save current value */
     1863    12595    5              IT$OPERAND.CODE# = %OPAND_BLOCK_DESC;
     1864    12596    5              CALL VDG$OCOPY (BLOCK$DESC, IT$OPERAND.PARAM$)
     1865    12597    5                ALTRET (OCOPY_FAILED);
     1866    12598    5              END;
     1867    12599
     1868    12600    4           RETURN;
     1869    12601
     1870    12602
PL6.E3A0      #001=VDE$PBLOCK_EXPR File=VDE$PARSE.:VDA5TSI                       FRI 07/04/97 11:13 Page:54
     1871    12603
     1872    12604    4   DOMAIN_OPAND_NOT_1ST_FAILURE:
     1873    12605
     1874    12606    4           INDX = 0;
     1875    12607    5           DO WHILE INDX < %(MX_CMD_OBJECTS-1)
     1876    12608    5             AND VD_CMD_OBJECTS$ (INDX) ~= ADDR(NIL);
     1877    12609    5              INDX = INDX + 1;
     1878    12610    5              END;
     1879    12611    4           IF INDX >= %MX_CMD_OBJECTS - 1 THEN
     1880    12612    4              CALL VDG$ESCREECH;
     1881    12613    4           CALL VDG$OALLOC (%CLS_TEXTC_REMOTE, T$,
     1882    12614    4             (LENGTHC(VD$STRING_HEADER) + PT$SYMBOL.COUNT + %NB_PER_WORD-1) /
     1883    12615    4             %NB_PER_WORD)
     1884    12616    4             ALTRET (OALLOC_FAILED);
     1885    12617    4           VD_CMD_OBJECTS$ (INDX) = T$;
     1886    12618    4           VD_CMD_OBJECTS$(INDX)->VD$TEXTC_REMOTE.LENGTH# = PT$SYMBOL.COUNT;
     1887    12619    4           VD_CMD_OBJECTS$(INDX)->VD$TEXTC_REMOTE.BYTES = PT$SYMBOL.TEXT;
     1888    12620    4           CALL VDG$ERRMSG (%E$DOMAIN_OPAND_NOT_1ST,
     1889    12621    5             VD_CMD_OBJECTS$(INDX)->VD$TEXTC_REMOTE.LENGTH#) WHENRETURN DO;
     1890    12622    5              LAST$ERR.CMDLINE_INDEX# = PT_LO_NAME.CPOS;
     1891    12623    5              END;
     1892    12624
     1893    12625
     1894    12626    4   PREAD_LO_NAME_FAILED: ;
     1895    12627    4   OCOPY_FAILED: ;
     1896    12628    4   OALLOC_FAILED: ;
     1897    12629    4           ALTRETURN;
     1898    12630
     1899    12631
     1900    12632    4   END PLO_NAME;
     1901    12633
     1902    12634                %BOX (TITLE=ABS_IT_OPERAND);

             12646    4   /***************************************************************************
             12648    4    *                                                                         *
             12652    4            *                               ABS_IT_OPERAND                            *
             12654    4            *                                                                         *
PL6.E3A0      #001=VDE$PBLOCK_EXPR File=VDE$PARSE.:VDA5TSI                       FRI 07/04/97 11:13 Page:55
             12656    4           ***************************************************************************/

     1903    12660
     1904    12661        /*I*** NAME: ABS_IT_OPERAND
     1905    12662            PARAMETERS:
     1906    12663                None.
     1907    12664            INPUT:
     1908    12665                IT$BLOCK_EXPR - The IT_BLOCK_EXPR root node for the InTree.
     1909    12666                LAST_SELECT$, LAST$SELECT - (Ptr to) last IT_SELECT node in
     1910    12667                    InTree (it must exist).
     1911    12668                LAST_ADJUST$, LAST$ADJUST - (Ptr to) last child of LAST$SELECT
     1912    12669                    (it must exist).
     1913    12670                LAST_MOVEMENT$, LAST$MOVEMENT - (Ptr to) last child of
     1914    12671                    LAST$ADJUST; NIL if none.
     1915    12672                IT$OPERAND - The movement-level node for the absolute movement
     1916    12673                    request.  It must not yet be linked to the InTree.
     1917    12674                    It must represent an absolute movement operand (a node-key,
     1918    12675                    or a LOCATION-name or block descriptor whose domain matches
     1919    12676                    the current domain for the InTree).
     1920    12677            OUTPUT:
     1921    12678                The InTree will be altered.
     1922    12679                LAST_MOVEMENT$ and SAVED_LAST_MOVEMENT$ will be changed
     1923    12680                    to reflect the modified InTree.
     1924    12681            DESCRIPTION:
     1925    12682                Free the movement-level nodes which are the children of
     1926    12683                    LAST$ADJUST.
     1927    12684                    This discards any previous absolute or relative movement
     1928    12685                    operands for this adjustment of this SELECT clause.
     1929    12686                    However, if:
     1930    12687                    o IT$OPERAND doesn't include a domain spec (ie, is a key
     1931    12688                        spec only);
     1932    12689                    o AND there is only one IT_SELECT node and only one
     1933    12690                        IT_ADJUST node in the entire InTree;
     1934    12691                    o AND the first IT$OPERAND node in the InTree is an explicit
     1935    12692                        domain spec (ie, file, block descriptor, or LOCATION-name);
     1936    12693                    then don't free that first IT$OPERAND node in the InTree.
     1937    12694                    This preserves any domain-spec info given for the block
PL6.E3A0      #001=VDE$PBLOCK_EXPR File=VDE$PARSE.:VDA5TSI                       FRI 07/04/97 11:13 Page:56
     1938    12695                    expression.
     1939    12696        */
     1940    12697
     1941    12698    3   ABS_IT_OPERAND: PROC ALTRET;
     1942    12699
     1943    12700
     1944    12701    4   DCL CURR_MOVE$ PTR;
     1945    12702
     1946    12703
     1947    12704        %VD$IT_OPERAND (NAME=CURR$MOVE, STCLASS="BASED(CURR_MOVE$)");
     1948    12770
     1949    12771
     1950    12772
     1951    12773    4           IF IT$BLOCK_EXPR.SELECTS$ ~= LAST_SELECT$ THEN
     1952    12774    4              GOTO ABS_SEL_NOT_1ST_FAILURE;
     1953    12775    4           IF IT$OPERAND.CODE# = %OPAND_NODE
     1954    12776    4             AND LAST$SELECT.ADJUSTS$ = LAST_ADJUST$
     1955    12777    5             AND LAST$ADJUST.MOVEMENTS$ ~= ADDR(NIL) THEN DO;
     1956    12778    5              CURR_MOVE$ = LAST$ADJUST.MOVEMENTS$;
     1957    12779    5              IF CURR$MOVE.CODE# = %OPAND_FILE
     1958    12780    5                OR CURR$MOVE.CODE# = %OPAND_LO_NAME
     1959    12781    5                OR CURR$MOVE.CODE# = %OPAND_BLOCK_DESC THEN
     1960    12782    6   FIRST_MOVEMENT_IS_DOMAIN: DO;
     1961    12783    6                 CALL VDG$OFREE (CURR$MOVE.FLINK$->VD$IT_OPERAND)
     1962    12784    6                   ALTRET (OFREE_FAILED);
     1963    12785    6                 CURR$MOVE.FLINK$ = ADDR(NIL);
     1964    12786    6                 LAST$ADJUST.MOVEMENTS_TAIL$ = CURR_MOVE$;
     1965    12787    6                 LAST_MOVEMENT$ = CURR_MOVE$;
     1966    12788    6                 END FIRST_MOVEMENT_IS_DOMAIN;
     1967    12789    5              END;
     1968    12790    4           ELSE
     1969    12791    5   PRUNE_ALL_MOVEMENTS: DO;
     1970    12792    5              CALL VDG$OFREE (LAST$ADJUST.MOVEMENTS$ -> VD$IT_OPERAND)
     1971    12793    5                ALTRET (OFREE_FAILED);
     1972    12794    5              LAST$ADJUST.MOVEMENTS$ = ADDR(NIL);
     1973    12795    5              LAST$ADJUST.MOVEMENTS_TAIL$ = ADDR(NIL);
     1974    12796    5              LAST_MOVEMENT$ = ADDR(NIL);
PL6.E3A0      #001=VDE$PBLOCK_EXPR File=VDE$PARSE.:VDA5TSI                       FRI 07/04/97 11:13 Page:57
     1975    12797    5              END PRUNE_ALL_MOVEMENTS;
     1976    12798    4           RETURN;
     1977    12799
     1978    12800
     1979    12801
     1980    12802    4   ABS_SEL_NOT_1ST_FAILURE:
     1981    12803    4           CALL VDG$ERRMSG (%E$ABS_SEL_NOT_1ST);
     1982    12804
     1983    12805
     1984    12806    4   OFREE_FAILED: ;
     1985    12807    4           ALTRETURN;
     1986    12808
     1987    12809    4   END ABS_IT_OPERAND;
     1988    12810
     1989    12811    3   END MOVEMENT_OPERAND;
     1990    12812
     1991    12813    2   END MOVEMENTS;
     1992    12814
     1993    12815                %BOX (TITLE=GUAR_LAST_ADJ, PAGE=YES);
             12823    2
             12827    2   /***************************************************************************
             12829    2    *                                                                         *
             12833    2            *                               GUAR_LAST_ADJ                             *
             12835    2            *                                                                         *
             12837    2           ***************************************************************************/

     1994    12841
     1995    12842        /*I* NAME: GUAR_LAST_ADJUST
     1996    12843            PARAMETERS:
     1997    12844                None.
     1998    12845            INPUT:
     1999    12846                IT$BLOCK_EXPR - Root VD$IT_BLOCK_EXPR node of the InTree.  It
     2000    12847                    must exist.
     2001    12848                LAST_SELECT$, LAST$SELECT - (Ptr to) last VD$IT_SELECT node in
     2002    12849                    the InTree.  If none yet, LAST_SELECT$ must be NIL.
     2003    12850                LAST_ADJUST$, LAST$ADJUST - (Ptr to) last VD$IT_ADJUST node in
     2004    12851                    the InTree.  If none yet, LAST_ADJUST$ must be NIL.
PL6.E3A0      #001=VDE$PBLOCK_EXPR File=VDE$PARSE.:VDA5TSI                       FRI 07/04/97 11:13 Page:58
     2005    12852            OUTPUT:
     2006    12853                LAST_SELECT$ will contain a ptr to the last IT_SELECT node
     2007    12854                    in the InTree.  If there was none before, there will be
     2008    12855                    one now, linked to the InTree as the first IT_SELECT node.
     2009    12856                LAST_ADJUST$ will contain a ptr to the last IT_ADJUST child of
     2010    12857                    the last IT_SELECT node in the InTree.  If there was
     2011    12858                    none before, there will be one now, linked to the InTree as
     2012    12859                    the first IT_ADJUST child of the current last IT_SELECT node.
     2013    12860        *??*         If we had to create a new IT_SELECT node, then LAST$ADJUST
     2014    12861        *??*         will have a copy of HERE's current value as its first
     2015    12862        *??*         IT_OPERAND node.
     2016    12863            DESCRIPTION:
     2017    12864                Guarantee that an IT_SELECT node exists in the InTree.
     2018    12865
     2019    12866                If the last IT_SELECT node in the InTree has no IT_ADJUST
     2020    12867                children, allocate an IT_ADJUST node.
     2021    12868        */
     2022    12869
     2023    12870    1   GUAR_LAST_ADJUST: PROC ALTRET;
     2024    12871
     2025    12872
     2026    12873
     2027    12874    2           CALL GUAR_LAST_SELECT
     2028    12875    2             ALTRET (GUAR_LAST_SELECT_FAILED);
     2029    12876
     2030    12877    3           IF LAST_ADJUST$ = ADDR(NIL) THEN DO;
     2031    12878    3              CALL ALLOC_IT_ADJUST
     2032    12879    3                ALTRET (ALLOC_IT_ADJUST_FAILED);
     2033    12880    3              END;
     2034    12881
     2035    12882    2           RETURN;
     2036    12883
     2037    12884
     2038    12885
     2039    12886    2   GUAR_LAST_SELECT_FAILED: ;
     2040    12887    2   ALLOC_IT_ADJUST_FAILED:
     2041    12888    2           ALTRETURN;
PL6.E3A0      #001=VDE$PBLOCK_EXPR File=VDE$PARSE.:VDA5TSI                       FRI 07/04/97 11:13 Page:59
     2042    12889
     2043    12890    2   END GUAR_LAST_ADJUST;
     2044    12891
     2045    12892
     2046    12893                %BOX (TITLE=GUAR_LAST_SELECT, PAGE=YES);
             12901    2
             12905    2   /***************************************************************************
             12907    2    *                                                                         *
             12911    2            *                              GUAR_LAST_SELECT                           *
             12913    2            *                                                                         *
             12915    2           ***************************************************************************/

     2047    12919
     2048    12920        /*I* NAME: GUAR_LAST_SELECT
     2049    12921            PARAMETERS:
     2050    12922                None.
     2051    12923            INPUT:
     2052    12924                IT$BLOCK_EXPR - Root VD$IT_BLOCK_EXPR node of the InTree.  It
     2053    12925                    must exist.
     2054    12926                LAST_SELECT$, LAST$SELECT - (Ptr to) last VD$IT_SELECT node in
     2055    12927                    the InTree.  If none yet, LAST_SELECT$ must be NIL.
     2056    12928            OUTPUT:
     2057    12929                LAST_SELECT$ will contain a ptr to the last IT_SELECT node
     2058    12930                    in the InTree.  If there was none before, there will be
     2059    12931                    one now, linked to the InTree as the first IT_SELECT node,
     2060    12932                    with a repeat count of 1.
     2061    12933                LAST_ADJUST$, LAST_MOVEMENT$ - If we had to create a new
     2062    12934                    IT_SELECT node, these pointers will be NIL.
     2063    12935        *??*         If we had to create a new IT_SELECT node, then LAST$ADJUST
     2064    12936        *??*         will have a copy of HERE's current value as its first
     2065    12937        *??*         IT_OPERAND node, which will be LAST$MOVEMENT.
     2066    12938            DESCRIPTION:
     2067    12939                If there is no last IT_SELECT node in the Intree, allocate one.
     2068    12940        *??*     Allocate an IT_ADJUST and IT_OPERAND for it which point
     2069    12941        *??*     to a copy of HERE's current value.
     2070    12942        */
     2071    12943
PL6.E3A0      #001=VDE$PBLOCK_EXPR File=VDE$PARSE.:VDA5TSI                       FRI 07/04/97 11:13 Page:60
     2072    12944    1   GUAR_LAST_SELECT: PROC ALTRET;
     2073    12945
     2074    12946
     2075    12947
     2076    12948    3           IF LAST_SELECT$ = ADDR(NIL) THEN DO;
     2077    12949    3              CALL ALLOC_IT_SELECT
     2078    12950    3                ALTRET (ALLOC_IT_SELECT_FAILED);
     2079    12951    3              LAST$SELECT.RPT_COUNT# = 1;
     2080    12952        /*??*         CALL ATTACH_HERE_TO_SELECT (LAST_SELECT$->LAST$SELECT) */
     2081    12953        /*??*           ALTRET (ATTACH_HERE_TO_SELECT_FAILED);               */
     2082    12954    3              END;
     2083    12955
     2084    12956    2           RETURN;
     2085    12957
     2086    12958
     2087    12959
     2088    12960    2   ALLOC_IT_SELECT_FAILED: ;
     2089    12961        /* ATTACH_HERE_TO_SELECT_FAILED: ;  */
     2090    12962    2           ALTRETURN;
     2091    12963
     2092    12964    2   END GUAR_LAST_SELECT;
     2093    12965
     2094    12966        %BOX (TITLE=ALLOC_IT_ADJUST, PAGE=YES);
             12974    2
             12978    2   /***************************************************************************
             12980    2    *                                                                         *
             12984    2            *                              ALLOC_IT_ADJUST                            *
             12986    2            *                                                                         *
             12988    2           ***************************************************************************/

     2095    12992
     2096    12993        /*I* NAME: ALLOC_IT_ADJUST
     2097    12994            PARAMETERS:
     2098    12995                None.
     2099    12996            INPUT:
     2100    12997                LAST$SELECT - The IT_SELECT node for which this IT_ADJUST
     2101    12998                    node is to be allocated.
PL6.E3A0      #001=VDE$PBLOCK_EXPR File=VDE$PARSE.:VDA5TSI                       FRI 07/04/97 11:13 Page:61
     2102    12999                LAST_ADJUST$ - Ptr to current last IT_ADJUST node in the
     2103    13000                    InTree.  If none, LAST_ADJUST$ must be NIL.
     2104    13001            OUTPUT:
     2105    13002                LAST_ADJUST$ will contain a pointer to the newly-allocated
     2106    13003                    and initialized IT_ADJUST node.
     2107    13004                LAST_MOVEMENT$ will be NIL'd.
     2108    13005            DESCRIPTION:
     2109    13006                Allocate an IT_ADJUST node.  Link it as either
     2110    13007                the sibling of the LAST_ADJUST$, or if that's NIL,
     2111    13008                as the child of IT$SELECT.
     2112    13009        */
     2113    13010
     2114    13011    1   ALLOC_IT_ADJUST: PROC ALTRET;
     2115    13012
     2116    13013
     2117    13014    2   DCL NEW_ADJUST$ PTR;
     2118    13015
     2119    13016
     2120    13017        %VD$IT_ADJUST (NAME=NEW$ADJUST, STCLASS="BASED(NEW_ADJUST$)");
     2121    13054
     2122    13055
     2123    13056
     2124    13057    2           CALL VDG$OALLOC (%CLS_IT_ADJUST, T$)
     2125    13058    2             ALTRET (OALLOC_FAILED);
     2126    13059    2           NEW_ADJUST$ = T$;
     2127    13060
     2128    13061    2           NEW$ADJUST.PARENT$ = LAST_SELECT$;
     2129    13062    2           IF LAST_ADJUST$ = ADDR(NIL) THEN
     2130    13063    2              LAST$SELECT.ADJUSTS$ = NEW_ADJUST$;
     2131    13064    2           ELSE
     2132    13065    2              LAST$ADJUST.FLINK$ = NEW_ADJUST$;
     2133    13066    2           LAST$SELECT.ADJUSTS_TAIL$ = NEW_ADJUST$;
     2134    13067    2           LAST_ADJUST$ = NEW_ADJUST$;
     2135    13068    2           LAST_MOVEMENT$ = ADDR(NIL);
     2136    13069
     2137    13070    2           RETURN;
     2138    13071
PL6.E3A0      #001=VDE$PBLOCK_EXPR File=VDE$PARSE.:VDA5TSI                       FRI 07/04/97 11:13 Page:62
     2139    13072
     2140    13073    2   OALLOC_FAILED:
     2141    13074    2           ALTRETURN;
     2142    13075
     2143    13076    2   END ALLOC_IT_ADJUST;
     2144    13077
     2145    13078        %BOX (TITLE=ALLOC_IT_SELECT, PAGE=YES);
             13086    2
             13090    2   /***************************************************************************
             13092    2    *                                                                         *
             13096    2            *                              ALLOC_IT_SELECT                            *
             13098    2            *                                                                         *
             13100    2           ***************************************************************************/

     2146    13104
     2147    13105        /*I* NAME: ALLOC_IT_SELECT
     2148    13106            PARAMETERS:
     2149    13107                None.
     2150    13108            INPUT:
     2151    13109                IT$BLOCK_EXPR - The IT_BLOCK_EXPR node for which this IT_SELECT
     2152    13110                    node is to be allocated.
     2153    13111                LAST_SELECT$ - Ptr to current last IT_SELECT node in the
     2154    13112                    InTree.  If none, LAST_SELECT$ must be NIL.
     2155    13113            OUTPUT:
     2156    13114                LAST_SELECT$ will contain a pointer to the newly-allocated
     2157    13115                    and initialized IT_SELECT node.
     2158    13116                LAST_ADJUST$ and LAST_MOVEMENT$ will be NIL'd.
     2159    13117            DESCRIPTION:
     2160    13118                Allocate an IT_SELECT node.  Link it as either
     2161    13119                the sibling of LAST_SELECT$, or if that's NIL,
     2162    13120                as the child of IT$BLOCK_EXPR.
     2163    13121        */
     2164    13122
     2165    13123    1   ALLOC_IT_SELECT: PROC ALTRET;
     2166    13124
     2167    13125
     2168    13126    2   DCL NEW_SELECT$ PTR;
PL6.E3A0      #001=VDE$PBLOCK_EXPR File=VDE$PARSE.:VDA5TSI                       FRI 07/04/97 11:13 Page:63
     2169    13127
     2170    13128
     2171    13129        %VD$IT_SELECT (NAME=NEW$SELECT, STCLASS="BASED(NEW_SELECT$)");
     2172    13166
     2173    13167
     2174    13168
     2175    13169    2           CALL VDG$OALLOC (%CLS_IT_SELECT, T$)
     2176    13170    2             ALTRET (OALLOC_FAILED);
     2177    13171    2           NEW_SELECT$ = T$;
     2178    13172
     2179    13173    2           NEW$SELECT.PARENT$ = IT_BLOCK_EXPR$;
     2180    13174    2           IF LAST_SELECT$ = ADDR(NIL) THEN
     2181    13175    2              IT$BLOCK_EXPR.SELECTS$ = NEW_SELECT$;
     2182    13176    2           ELSE
     2183    13177    2              LAST$SELECT.FLINK$ = NEW_SELECT$;
     2184    13178    2           IT$BLOCK_EXPR.SELECTS_TAIL$ = NEW_SELECT$;
     2185    13179    2           LAST_SELECT$ = NEW_SELECT$;
     2186    13180    2           LAST_ADJUST$ = ADDR(NIL);
     2187    13181    2           LAST_MOVEMENT$ = ADDR(NIL);
     2188    13182
     2189    13183    2           RETURN;
     2190    13184
     2191    13185
     2192    13186
     2193    13187    2   OALLOC_FAILED: ;
     2194    13188    2           ALTRETURN;
     2195    13189
     2196    13190    2   END ALLOC_IT_SELECT;
     2197    13191
     2198    13192    1   END VDE$PBLOCK_EXPR;
     2199    13193        %EOD;

PL6.E3A0      #001=VDE$PBLOCK_EXPR File=VDE$PARSE.:VDA5TSI                       FRI 07/04/97 11:13 Page:64
--  Include file information  --

   XUE_MACRO_C.:LIBRARY  is referenced.
   XU_MACRO_C.:LIBRARY  is referenced.
   VD_NODES0_E.:VDA5TOU  is referenced.
   VD_PERR_C.:VDA5TOU  is referenced.
   VD_MACROS_M.:VDA5TOU  is referenced.
   B$JIT_C.:E04TOU  was found in the system file and is never referenced.
   CP_6_C.:E04TOU  was found in the system file and is never referenced.
      No diagnostics issued in procedure VDE$PBLOCK_EXPR.

   Procedure VDE$PBLOCK_EXPR requires 2035 words for executable code.
   Procedure VDE$PBLOCK_EXPR requires 54 words of local(AUTO) storage.

PL6.E3A0      #001=VDE$PBLOCK_EXPR File=VDE$PARSE.:VDA5TSI                       FRI 07/04/97 11:13 Page:65

 Object Unit name= VDE$PBLOCK_EXPR                            File name= VDE$PARSE.:VDA5TOU
 UTS= JUL 04 '97 11:13:47.52 FRI                              Compiler= PL-6/E31         Sev=      00
 SharedLib= :SHARED_SYSTEM                                    Alt SharedLib=


    ****  Control sections  ****

 Sect   Type Bound  Init  Size OctSiz  Section name(segment info)
    0  RoData even  UTS      2      2  VDE$PBLOCK_EXPR
    1   Proc  even  none  2035   3763  VDE$PBLOCK_EXPR
    2  RoData even  none    40     50  VDE$PBLOCK_EXPR

    ****  Entry defs  ****

                              Check   Calling
                             calling  sequence
  Sect OctLoc Primary Altret sequence   type   Parms  Name
     1      0   yes    yes     yes      Std        1  VDE$PBLOCK_EXPR
PL6.E3A0      #001=VDE$PBLOCK_EXPR File=VDE$PARSE.:VDA5TSI                       FRI 07/04/97 11:13 Page:66

  ****  Entry refs  ****

         Check        Calling
        calling       sequence
Altret sequence SRef   type   Args  Name
         yes           Std       3 VDG$ESCREECH
 yes     yes           Std       3 VDG$OALLOC
 yes     yes           Std       2 VDE$PNUMERIC_KEY
 yes     yes           Std       1 VDG$OFREE
 yes     yes           Std       4 VDG$ERRMSG
 yes     yes           Std       4 VDA$LWRITE
 yes     yes           Std       4 VDA$FOPEN
 yes     yes           Std       2 VDA$LDELETE
 yes     yes           Std       5 VDE$PSTRING
 yes     yes           Std       1 VDA$FCLOSE
 yes     yes           Std       3 VDE$PREAD_LO_NAME
 yes     yes           Std       3 VDE$PFILE_TO_EDIT
 yes     yes           Std       2 VDG$OCOPY
 yes     yes           Std       2 VDE$PNUMBER
 yes     yes           Std       2 VDE$PPATTERN
 yes     yes           Std       2 X$DEC_CONVERT
                       nStd      0 X66_AUTO_1
                       Std       0 B_CONSPOOL_D
                       nStd      0 X66_ARET
                       nStd      0 X66_AALT

  ****  Data refs  ****

  Flags:  r = read only, s = secondary
Flgs Name                             Flgs Name                             Flgs Name
     VD_6E                                 VD_CURRENT_WINDOW$                    XUE_ECB
     VD_KEY_NUMERIC_BOF                    VD_$COMPONENT                         VD_$DIRECTION
     VD_$EXIST                             VD_$POINT                             VD_$PROTECT
     VD_$SEARCH                            VD_$SKIP                              VD_$STRUCTURE
     VD_ACCESSOR_PRIV                      VD_FKEY_SCRATCH_SOURCE                VD_KEY_SCRATCH_SOURCE
     VD_CMD_OBJECTS$                       B_VECTNIL
PL6.E3A0      #001=VDE$PBLOCK_EXPR File=VDE$PARSE.:VDA5TSI                       FRI 07/04/97 11:13 Page:67

  ****  Segment refs  ****

  Flags:  r = read only, s = secondary
Flgs Name                             Flgs Name                             Flgs Name
     ISSID
PL6.E3A0      #001=VDE$PBLOCK_EXPR File=VDE$PARSE.:VDA5TSI                       FRI 07/04/97 11:13 Page:68


        1        1        /*M* VDE$PARSE - Process the ParseTree for a block expression */
        2        2        /*T***********************************************************/
        3        3        /*T*                                                         */
        4        4        /*T* Copyright (c) Bull HN Information Systems Inc., 1997    */
        5        5        /*T*                                                         */
        6        6        /*T***********************************************************/
        7        7
        8        8        /*X* MCR=NO, DMC=YES */
        9        9        /*T*/
       10       10
       11       11        /*P* NAME: VDE$PARSE
       12       12            PURPOSE:  Process the ParseTree for a block expression.
       13       13            DESCRIPTION:
       14       14                This module contains several external routines:
       15       15
       16       16                VDE$PBLOCK_EXPR
       17       17                Parses an entire block expression, turning it into an InTree.
       18       18
       19       19                VDE$PPATTERN
       20       20                Given a T_PATTERN node from the parse tree, will
       21       21                compile the pattern into a VD$PATTERN structure.
       22       22
       23       23                VDE$PPATT_STRING and VDE$PPATT_STRING_EXPR
       24       24                Builds a VD$PATTERN from a pattern string.  This routine is
       25       25                made external so it can call itself recursively.
       26       26
       27       27                VDE$PXUE_EXP
       28       28                Parses string expressions (X$EVAL).  Contains two entry-points:
       29       29                    VDE$PNUMBER evaluates an expression and converts it
       30       30                        to an SBIN word.  Doesn't support $CONTROL-functions
       31       31                        in the expression.
       32       32                    VDE$PSTRING evaluates an expression and converts it
       33       33                        to a set of VD$BUFFERs.  Each call to VDE$PSTRING
       34       34                        returns the next VD$BUFFER for the expression.
       35       35                        Supports $CONTROL-functions in the expression.
       36       36
PL6.E3A0      #001=VDE$PBLOCK_EXPR File=VDE$PARSE.:VDA5TSI                       FRI 07/04/97 11:13 Page:69
       37       37                VDE$PNUMERIC_KEY
       38       38                Parses numeric keys.  These may be consecutive record
       39       39                numbers or edit keys:  at parse time we don't know which
       40       40                kind of key the user gave us.
       41       41
       42       42                VDE$PFILE_TO_EDIT
       43       43                Parses a fid for a file to edit.  M$FIDs it into constituent parts
       44       44                and builds a VD$FILE_KEY for the fid.  Optionally sets up a VD$RANGE
       45       45                covering the entire file.
       46       46
       47       47                VDE$PREAD_LO_NAME
       48       48                Look up a name in the Locations file.  If found, return a pointer
       49       49                to its VD$BLOCK_DESC (unwinds any indirect representations, like
       50       50                VD$POINTER, or VD$BUFFER containing the VD$BLOCK_DESC, etc).
       51       51
       52       52                VDE$PREAD_NAME_FOR_EVAL
       53       53                When X$EVAL sees a name reference in a string expression,
       54       54                it calls this routine to find the value of the name.
       55       55                This routine reads the Equals *N* and Locations *N* files
       56       56                for the name, and returns its value to X$EVAL.
       57       57
       58       58                VDE$PFUNCTIONS
       59       59                When X$EVAL sees a 6Edit function invocation in a string expression,
       60       60                it calls this routine to compute the value of the function.
       61       61        */
       62       62
       63       63        /*D* NAME: VDE$PBLOCK_EXPR
       64       64            PARAMETERS:
       65       65                PT_BLOCK_EXPR - %PARSE$OUT which is root node of the ParseTree
       66       66                    for the block expression to evaluate.  Must have a
       67       67                    .CODE of either %T_BLOCK_EXPR or %T_STRING_EXPR.
       68       68            INPUT:
       69       69                VD_CURRENT_WINDOW$ - Ptr to VD$FILE_NODE at level 1 of the
       70       70                    Windows internal file.  The Spec for this node points to
       71       71                    the VD$WINDOW_SPEC for the current editing window.  There
       72       72                    must be such a window, tho it needn't be editing anything
       73       73                    yet (no EditBlock, Selecting, or InTree).
PL6.E3A0      #001=VDE$PBLOCK_EXPR File=VDE$PARSE.:VDA5TSI                       FRI 07/04/97 11:13 Page:70
       74       74                CURR$WINDOW.OPERAND.INTREE$ must be NIL at entry.
       75       75                CURR$WINDOW.OPERAND.EDIT_BLOCK$ will be nil if there
       76       76                    is no EditBlock yet; non-nil otherwise.
       77       77                CURR$WINDOW.OPERAND.EVAL$ will be nil if there
       78       78                    is no EditBlock yet; non-nil otherwise.
       79       79                    If non-nil, it's VD$EVAL has the range left by the
       80       80                    VDE$Ixxx routines after evaluating the block expr
       81       81                    of the previous command, with a state of
       82       82                    %EVST_INITIAL.  None of the VDE$Pxxx routines will
       83       83                    refer to this VD$EVAL.
       84       84            OUTPUT:
       85       85                The current window will be modified to reflect the new block
       86       86                    expression.  Specifically:
       87       87                    o Ptr to the InTree for the range of the block
       88       88                        expression.  This InTree will contain at least
       89       89                        a VD$IT_BLOCK_EXPR node.  It's .OPTIONS will be
       90       90                        filled in, either from user input or from defaults.
       91       91                    o If this block expression legally specifies a different
       92       92                        domain than the window's current EditBlock, then
       93       93                        IT_BLOCK_EXPR.DOMAINN will be non-%CLEAR.
       94       94                    o If this block expression has moved beyond the
       95       95                        DOMAIN_OPERAND portion of the block expression
       96       96                        syntax, then IT_BLOCK_EXPR.SELECTS$ will be non-nil.
       97       97                    The window in this form is ready for VDE$IOPEN.
       98       98                If any recoverable errors are found, the entire InTree will be
       99       99                    freed.
      100      100            DESCRIPTION:
      101      101                PT_BLOCK_EXPR is either a %T_STRING_EXPR node or a
      102      102                %T_BLOCK_EXPR node with one or more children, as shown below:
      103      103
      104      104                STRING_EXPR
      105      105                    |
      106      106                 XUE_EXP
      107      107
      108      108                or:
      109      109
      110      110                                       BLOCK_EXPR
PL6.E3A0      #001=VDE$PBLOCK_EXPR File=VDE$PARSE.:VDA5TSI                       FRI 07/04/97 11:13 Page:71
      111      111                                            |
      112      112                   ----------------------------------------------------->
      113      113                   |           |            |
      114      114                PROTECT    STRUCTURE      one of:
      115      115                   |           |         o NEXT
      116      116                  DONT        name       o PREVIOUS
      117      117                \__in either order__/    o LO_NAME
      118      118                                              |
      119      119                                             name
      120      120
      121      121                                           { NEW }
      122      122                                         o { OLD }  FILE_FID
      123      123                                           { ANY }     |
      124      124                                                      fid
      125      125
      126      126
      127      127                >----------------------------------------------------
      128      128                   |          |          |             |            |
      129      129                MOVEMENT    one of:   MOVEMENT   SELECT_CLAUSE   KEY_INCR
      130      130                           o THRU                      |
      131      131                           o ADJUST                  REPEAT
      132      132                          \__________________/         |
      133      133                             may be repeated      STRING_EXPR
      134      134                \                                            /
      135      135                 \__________________________________________/
      136      136                            may be repeated
      137      137
      138      138                o All of the child-nodes of T_BLOCK_EXPR are optional,
      139      139                    except that at least one will always be present if
      140      140                    T_BLOCK_EXPR is present.
      141      141                o The MOVEMENT's above may be repeated any number of times.
      142      142                o If the MOVEMENT's following THRU and ADJUST are present,
      143      143                    then the THRU or ADJUST nodes must precede them.
      144      144                o The DONT child of PROTECT is optional.
      145      145                o The REPEAT child of SELECT_CLAUSE is optional.  If present,
      146      146                    its STRING_EXPR child is optional.
      147      147
PL6.E3A0      #001=VDE$PBLOCK_EXPR File=VDE$PARSE.:VDA5TSI                       FRI 07/04/97 11:13 Page:72
      148      148                Procedure:
      149      149                Setup the global data refs:
      150      150                    CURR$WINDOW - VD$WINDOW_SPEC for the current editing window.
      151      151                    EDIT$BLOCK - VD$BLOCK_DESC for the window's EditBlock (if any).
      152      152                Allocate an IT_BLOCK_EXPR node.
      153      153                If PT_BLOCK_EXPR is actually a %T_STRING_EXPR node:
      154      154                    Call XUE$EVAL to evaluate the XUE_EXP expression into
      155      155                        record buffers, and write them to the Scratch Source
      156      156                        file.
      157      157                    Build an IT_OPERAND node referring to the file just
      158      158                        written, and attach it to the InTree.
      159      159                    Load IT$BLOCK_EXPR.DOMAINN and .OPTIONS with the info on
      160      160                        the Scratch Source file.
      161      161                    Return.
      162      162
      163      163                Otherwise, loop thru the children of the PT_BLOCK_EXPR node,
      164      164                    processing the nodes as they appear:
      165      165                o For any processing options (ie, PROTECT, STRUCTURE, NEW,
      166      166                    OLD, ANY):
      167      167                    Set the appropriate value or flag in the IT$BLOCK_EXPR
      168      168                    node.
      169      169                o For any DOMAIN_OPERAND (ie, NEXT, PREVIOUS, FILE_FID,
      170      170                    LO_NAME referring to a different file):
      171      171                    Guarantee that both an IT_SELECT and an IT_ADJUST
      172      172                    node is available.  Call DOMAIN_OPERAND to build
      173      173                    an IT_OPERAND node and attach it to the InTree, and
      174      174                    to load IT$BLOCK_EXPR.DOMAINN with the domain info.
      175      175                o For each MOVEMENT:
      176      176                    Guarantee that both an IT_SELECT and an IT_ADJUST
      177      177                    node is available.  Call MOVEMENTS to build
      178      178                    and attach IT_OPERAND, IT_OPERATOR, and/or IT_COMMAND
      179      179                    nodes.
      180      180                o For THRU or ADJUST:
      181      181                    Guarantee that an IT_SELECT node is available;
      182      182                    allocate a new IT_ADJUST node and append it to the
      183      183                    InTree.  Flag the type of state change to perform:
      184      184                    for THRU, always change to %EVST_END; for ADJUST,
PL6.E3A0      #001=VDE$PBLOCK_EXPR File=VDE$PARSE.:VDA5TSI                       FRI 07/04/97 11:13 Page:73
      185      185                    toggle the evaluation state.
      186      186                o For SELECT:
      187      187                    Allocate a new IT_SELECT node and append it to the InTree.
      188      188        *??*         If there are no IT_SELECT children
      189      189        *??*         of the IT_BLOCK_EXPR node yet, and if this is
      190      190        *??*         not a REPEAT SELECT node, and if HERE has a value
      191      191        *??*         currently, then we want to attach the current value
      192      192        *??*         of the HERE predefined name as the first IT_OPERAND
      193      193        *??*         of the new IT_SELECT node.
      194      194                    Evaluate the possible children of the T_SELECT
      195      195                    node, filling their info into the IT_SELECT node
      196      196                    just built.
      197      197                o For KEY_INCR:
      198      198                    Set the appropriate value in the IT_BLOCK_EXPR node.
      199      199
      200      200                If a recoverable error is detected, we want to free the
      201      201                    InTree.
      202      202        */
      203      203
      204      204        VDE$PBLOCK_EXPR: PROC (PT_BLOCK_EXPR) ALTRET;

    204  1 000000   000000 700200 xent  VDE$PBLOCK_* TSX0  ! X66_AUTO_1
         1 000001   000066 000001                    ZERO    54,1

      205      205
      206      206        %INCLUDE VD_MACROS_M;
      207     2421        %INCLUDE VD_PERR_C;
      208     2569        %INCLUDE VD_NODES0_E;
      209     2661        %INCLUDE XU_MACRO_C;
      210     5755        %INCLUDE XUE_MACRO_C;
      211     6499
      212     6500
      213     6501        %PARSE$OUT (NAME=PT_BLOCK_EXPR, STCLASS=PARAM);
      214     6546
      215     6547
      216     6548
      217     6549    1   DCL VDE$PSTRING         ENTRY (5) ALTRET;
PL6.E3A0      #001=VDE$PBLOCK_EXPR File=VDE$PARSE.:VDA5TSI                       FRI 07/04/97 11:13 Page:74
      218     6550    1   DCL VDE$PNUMBER         ENTRY (2) ALTRET;
      219     6551    1   DCL VDE$PNUMERIC_KEY    ENTRY (2) ALTRET;
      220     6552    1   DCL VDE$PFILE_TO_EDIT   ENTRY (3) ALTRET;
      221     6553    1   DCL VDE$PPATTERN        ENTRY (2) ALTRET;
      222     6554    1   DCL VDE$PREAD_LO_NAME   ENTRY (3) ALTRET;
      223     6555    1   DCL VDA$FOPEN           ENTRY (4) ALTRET;
      224     6556    1   DCL VDA$LWRITE          ENTRY (4) ALTRET;
      225     6557    1   DCL VDA$LDELETE         ENTRY (2) ALTRET;
      226     6558    1   DCL VDA$FCLOSE          ENTRY (1) ALTRET;
      227     6559    1   DCL VDG$ERRMSG          ENTRY (4) ALTRET;
      228     6560    1   DCL VDG$OCOPY           ENTRY (2) ALTRET;
      229     6561    1   DCL VDG$OCOPY_RANGE     ENTRY (2) ALTRET;
      230     6562    1   DCL VDG$OALLOC          ENTRY (3) ALTRET;
      231     6563    1   DCL VDG$OFREE           ENTRY (1) ALTRET;
      232     6564    1   DCL VDG$ESCREECH        ENTRY (3);
      233     6565    1   DCL X$DEC_CONVERT       ENTRY (2) ALTRET;
      234     6566
      235     6567
      236     6568        %VD_6E (STCLASS=SYMREF);
      237     6604    1   DCL VD_CURRENT_WINDOW$ PTR SYMREF;
      238     6605        %XUE_ECB (NAME=XUE_ECB, STCLASS=SYMREF);
      239     6807        %VD$KEY (NAME=VD_KEY_NUMERIC_BOF, STCLASS=SYMREF);
      240     6821        %VD$NUMBER (NAME=VD_$COMPONENT, STCLASS=SYMREF);
      241     6866        %VD$NUMBER (NAME=VD_$DIRECTION, STCLASS=SYMREF);
      242     6911        %VD$NUMBER (NAME=VD_$EXIST, STCLASS=SYMREF);
      243     6956        %VD$NUMBER (NAME=VD_$POINT, STCLASS=SYMREF);
      244     7001        %VD$NUMBER (NAME=VD_$PROTECT, STCLASS=SYMREF);
      245     7046        %VD$NUMBER (NAME=VD_$SEARCH, STCLASS=SYMREF);
      246     7091        %VD$NUMBER (NAME=VD_$SKIP, STCLASS=SYMREF);
      247     7136        %VD$POINTER (NAME=VD_$STRUCTURE, STCLASS=SYMREF);
      248     7181    1   DCL 1 VD_ACCESSOR_PRIV ALIGNED SYMREF,
      249     7182              %VD$NAC (NAME=ACCESS, LEV=2, LAST=YES);
      250     7196        %VD_FILE_KEY (NAME=VD_FKEY_SCRATCH_SOURCE, STCLASS=SYMREF);
      251     7248        %VD_KEY (NAME=VD_KEY_SCRATCH_SOURCE, STCLASS=SYMREF);
      252     7284    1   DCL VD_CMD_OBJECTS$ (0:%(MX_CMD_OBJECTS-1)) PTR SYMREF;
      253     7285
      254     7286
PL6.E3A0      #001=VDE$PBLOCK_EXPR File=VDE$PARSE.:VDA5TSI                       FRI 07/04/97 11:13 Page:75
      255     7287
      256     7288    1   DCL CURR_WINDOW$ PTR;
      257     7289    1   DCL EDIT_BLOCK$ PTR;
      258     7290    1   DCL IT_BLOCK_EXPR$ PTR;
      259     7291    1   DCL LAST_SELECT$ PTR;
      260     7292    1   DCL LAST_ADJUST$ PTR;
      261     7293    1   DCL LAST_MOVEMENT$ PTR;
      262     7294    1   DCL PREV_CHILD_INDEX SBIN;
      263     7295    1   DCL CHILD_INDEX SBIN;
      264     7296    1   DCL CHILD$ PTR;
      265     7297    1   DCL ERR_SUBST$ PTR;
      266     7298    1   DCL T$ PTR; /* For calling VDG$OALLOC */
      267     7299
      268     7300
      269     7301        %VD$WINDOW_SPEC (NAME=CURR$WINDOW, STCLASS="BASED(CURR_WINDOW$)");
      270     7367        %VD$BLOCK_DESC (NAME=EDIT$BLOCK, STCLASS="BASED(EDIT_BLOCK$)");
      271     7514        %VD$IT_BLOCK_EXPR (NAME=IT$BLOCK_EXPR, STCLASS="BASED(IT_BLOCK_EXPR$)");
      272     7664        %VD$IT_SELECT (NAME=LAST$SELECT, STCLASS="BASED(LAST_SELECT$)");
      273     7701        %VD$IT_ADJUST (NAME=LAST$ADJUST, STCLASS="BASED(LAST_ADJUST$)");
      274     7738        %VD$IT_OPERAND (NAME=LAST$MOVEMENT, STCLASS="BASED(LAST_MOVEMENT$)");
      275     7804        %PARSE$OUT (NAME=CHILD, STCLASS="BASED(CHILD$)");
      276     7849        %VD$KEY_NUMBER;
      277     7864        %VD$ERR (NAME=FATAL$ERR, STCLASS="BASED(VD_6E.ERR_HEAD$)");
      278     7917        %VD$ERR (NAME=LAST$ERR, STCLASS="BASED(VD_6E.ERR_TAIL$)");
      279     7970        %VD$NUMBER (NAME=SUBST$NUMBER, DIM="(0:2)", STCLASS="BASED(ERR_SUBST$)");
      280     8015        %VD$POINTER (NAME=SUBST$POINTER, DIM="(0:2)", STCLASS="BASED(ERR_SUBST$)");
      281     8060        %VD$STREAM (NAME=LOCATIONS$STREAM, STCLASS="BASED(VD_6E.LOCATIONS$)");
      282     8166        %VD$STREAM (NAME=EQUALS$STREAM, STCLASS="BASED(VD_6E.EQUALS$)");
      283     8272        %VD$FILE_NODE;
      284     8365        %VD$IT_SELECT;
      285     8402        %VD$IT_ADJUST;
      286     8439        %VD$IT_OPERAND;
      287     8505        %VD$TEXTC_REMOTE;
      288     8566        %VD$STRING_HEADER;
      289     8602        %VD$PORT;
      290     8700
      291     8701
PL6.E3A0      #001=VDE$PBLOCK_EXPR File=VDE$PARSE.:VDA5TSI                       FRI 07/04/97 11:13 Page:76
      292     8702
      293     8703    1           IF VD_CURRENT_WINDOW$ = ADDR(NIL) THEN

   8703  1 000002   000000 236000 xsym               LDQ     VD_CURRENT_WINDOW$
         1 000003   000001 116000 xsym               CMPQ    B_VECTNIL+1
         1 000004   000010 601000 1                  TNZ     s:8705

      294     8704    1              CALL VDG$ESCREECH;

   8704  1 000005   000002 631400 xsym               EPPR1   B_VECTNIL+2
         1 000006   000000 701000 xent               TSX1    VDG$ESCREECH
         1 000007   000000 011000                    NOP     0

      295     8705    1           CURR_WINDOW$ = VD_CURRENT_WINDOW$->VD$FILE_NODE.DESC.SPEC.V$;

   8705  1 000010   000000 470400 xsym               LDP0    VD_CURRENT_WINDOW$
         1 000011   000007 236100                    LDQ     7,,PR0
         1 000012   200004 756100                    STQ     CURR_WINDOW$,,AUTO

      296     8706    1           IF CURR_WINDOW$ = ADDR(NIL) THEN

   8706  1 000013   000001 116000 xsym               CMPQ    B_VECTNIL+1
         1 000014   000020 601000 1                  TNZ     s:8708

      297     8707    1              CALL VDG$ESCREECH;

   8707  1 000015   000002 631400 xsym               EPPR1   B_VECTNIL+2
         1 000016   000000 701000 xent               TSX1    VDG$ESCREECH
         1 000017   000000 011000                    NOP     0

      298     8708    1           EDIT_BLOCK$ = CURR$WINDOW.OPERAND.EDIT_BLOCK$;

   8708  1 000020   200004 470500                    LDP0    CURR_WINDOW$,,AUTO
         1 000021   000012 236100                    LDQ     10,,PR0
         1 000022   200005 756100                    STQ     EDIT_BLOCK$,,AUTO

      299     8709
PL6.E3A0      #001=VDE$PBLOCK_EXPR File=VDE$PARSE.:VDA5TSI                       FRI 07/04/97 11:13 Page:77
      300     8710    1           IF CURR$WINDOW.OPERAND.INTREE$ ~= ADDR(NIL) THEN

   8710  1 000023   000011 236100                    LDQ     9,,PR0
         1 000024   000001 116000 xsym               CMPQ    B_VECTNIL+1
         1 000025   000031 600000 1                  TZE     s:8713

      301     8711    1              CALL VDG$ESCREECH;

   8711  1 000026   000002 631400 xsym               EPPR1   B_VECTNIL+2
         1 000027   000000 701000 xent               TSX1    VDG$ESCREECH
         1 000030   000000 011000                    NOP     0

      302     8712
      303     8713    1           CALL VDG$OALLOC (%CLS_IT_BLOCK_EXPR, CURR$WINDOW.OPERAND.INTREE$)

   8713  1 000031   200004 236100                    LDQ     CURR_WINDOW$,,AUTO
         1 000032   000011 036003                    ADLQ    9,DU
         1 000033   000001 235000 2                  LDA     1
         1 000034   200060 757100                    STAQ    NEW_SELECT$+1,,AUTO
         1 000035   200060 630500                    EPPR0   NEW_SELECT$+1,,AUTO
         1 000036   000020 631400 xsym               EPPR1   B_VECTNIL+16
         1 000037   000000 701000 xent               TSX1    VDG$OALLOC
         1 000040   000326 702000 1                  TSX2    GUAR_LAST_SELECT_FAILED

      304     8714    1             ALTRET (OALLOC_FAILED);
      305     8715    1           IT_BLOCK_EXPR$ = CURR$WINDOW.OPERAND.INTREE$;

   8715  1 000041   200004 470500                    LDP0    CURR_WINDOW$,,AUTO
         1 000042   000011 236100                    LDQ     9,,PR0
         1 000043   200006 756100                    STQ     IT_BLOCK_EXPR$,,AUTO

      306     8716    1           LAST_SELECT$ = ADDR(NIL);

   8716  1 000044   000001 236000 xsym               LDQ     B_VECTNIL+1
         1 000045   200007 756100                    STQ     LAST_SELECT$,,AUTO

      307     8717    1           LAST_ADJUST$ = ADDR(NIL);
PL6.E3A0      #001=VDE$PBLOCK_EXPR File=VDE$PARSE.:VDA5TSI                       FRI 07/04/97 11:13 Page:78

   8717  1 000046   200010 756100                    STQ     LAST_ADJUST$,,AUTO

      308     8718    1           LAST_MOVEMENT$ = ADDR(NIL);

   8718  1 000047   200011 756100                    STQ     LAST_MOVEMENT$,,AUTO

      309     8719
      310     8720                %INCREMENT (ARRAY=STATS_TOKENS#, INDX="PT_BLOCK_EXPR.CODE - %VD_BASE#");

   8721  1 000050   200003 471500                    LDP1    @PT_BLOCK_EXPR,,AUTO
         1 000051   100000 720100                    LXL0    0,,PR1
         1 000052   776375 054010 xsym               AOS     VD_6E-771,X0

      311     8723
      312     8724    2           IF PT_BLOCK_EXPR.CODE = %T_STRING_EXPR THEN DO;

   8724  1 000053   100000 720100                    LXL0    0,,PR1
         1 000054   002056 100003                    CMPX0   1070,DU
         1 000055   000061 601000 1                  TNZ     s:8730

      313     8725    2              CALL STRING_EXPRESSION

   8725  1 000056   000512 701000 1                  TSX1    STRING_EXPRESSION
         1 000057   000312 702000 1                  TSX2    STRING_EXPRESSION_FAILED

      314     8726    2                ALTRET (STRING_EXPRESSION_FAILED);
      315     8727    2              RETURN;

   8727  1 000060   000000 702200 xent               TSX2  ! X66_ARET

      316     8728    2              END;
      317     8729
      318     8730    1           CHILD_INDEX = 0;

   8730  1 000061   200013 450100                    STZ     CHILD_INDEX,,AUTO

PL6.E3A0      #001=VDE$PBLOCK_EXPR File=VDE$PARSE.:VDA5TSI                       FRI 07/04/97 11:13 Page:79
      319     8731    1           CHILD$ = PT_BLOCK_EXPR.SUBLK$ (CHILD_INDEX);

   8731  1 000062   200013 721100                    LXL1    CHILD_INDEX,,AUTO
         1 000063   100003 236111                    LDQ     3,X1,PR1
         1 000064   200014 756100                    STQ     CHILD$,,AUTO

      320     8732
      321     8733    1           CALL PROCESSING_OPTIONS

   8733  1 000065   000327 701000 1                  TSX1    PROCESSING_OPTIONS
         1 000066   000312 702000 1                  TSX2    STRING_EXPRESSION_FAILED

      322     8734    1             ALTRET (PROCESSING_OPTIONS_FAILED);
      323     8735    1           CALL DOMAIN_OPERAND

   8735  1 000067   001255 701000 1                  TSX1    DOMAIN_OPERAND
         1 000070   000312 702000 1                  TSX2    STRING_EXPRESSION_FAILED

      324     8736    1             ALTRET (DOMAIN_OPERAND_FAILED);
      325     8737
      326     8738                /*
      327     8739                *   At this point:
      328     8740                *   If the user explicitly specified any processing
      329     8741                *       options, they're in IT$BLOCK_EXPR.OPTIONS.
      330     8742                *   If the user explicitly specified a domain operand,
      331     8743                *       IT$BLOCK_EXPR.DOMAINN is non-%CLEAR.
      332     8744                *   If no domain was given but there is no current EditBlock
      333     8745                *       for this window, and we still have some children of
      334     8746                *       PT_BLOCK_EXPR yet to process, then error out.
      335     8747                */
      336     8748
      337     8749    2           IF IT$BLOCK_EXPR.DOMAINN = %CLEAR THEN DO;

   8749  1 000071   200006 470500                    LDP0    IT_BLOCK_EXPR$,,AUTO
         1 000072   000000 106500                    CMPC    fill='000'O
         1 000073   000003 000124                    ADSC9   3,,PR0                   cn=0,n=84
         1 000074   000002 000002 xsym               ADSC9   B_VECTNIL+2              cn=0,n=2
PL6.E3A0      #001=VDE$PBLOCK_EXPR File=VDE$PARSE.:VDA5TSI                       FRI 07/04/97 11:13 Page:80
         1 000075   000107 601000 1                  TNZ     s:8755

      338     8750    2              IF CURR$WINDOW.OPERAND.EDIT_BLOCK$ = ADDR(NIL)

   8750  1 000076   200004 471500                    LDP1    CURR_WINDOW$,,AUTO
         1 000077   100012 236100                    LDQ     10,,PR1
         1 000100   000001 116000 xsym               CMPQ    B_VECTNIL+1
         1 000101   000107 601000 1                  TNZ     s:8755
         1 000102   200003 473500                    LDP3    @PT_BLOCK_EXPR,,AUTO
         1 000103   300001 236100                    LDQ     1,,PR3
         1 000104   000022 772000                    QRL     18
         1 000105   200013 116100                    CMPQ    CHILD_INDEX,,AUTO
         1 000106   000200 605400 1                  TPNZ    NO_EDIT_BLOCK_FAILURE

      339     8751    2                AND CHILD_INDEX < PT_BLOCK_EXPR.NSUBLKS THEN
      340     8752    2                 GOTO NO_EDIT_BLOCK_FAILURE;
      341     8753    2              END;

      342     8754
      343     8755    1           PREV_CHILD_INDEX = -1;

   8755  1 000107   000001 335007                    LCA     1,DL
         1 000110   200012 755100                    STA     PREV_CHILD_INDEX,,AUTO

      344     8756    1   SELECT_CLAUSE_LOOP:
      345     8757    2           DO WHILE CHILD_INDEX < PT_BLOCK_EXPR.NSUBLKS

   8757  1 000111   000155 710000 1     SELECT_CLAU* TRA     s:8781

      346     8758    2             AND CHILD_INDEX > PREV_CHILD_INDEX;
      347     8759    2              PREV_CHILD_INDEX = CHILD_INDEX;

   8759  1 000112   200013 235100                    LDA     CHILD_INDEX,,AUTO
         1 000113   200012 755100                    STA     PREV_CHILD_INDEX,,AUTO

      348     8760    2              CALL MOVEMENTS

PL6.E3A0      #001=VDE$PBLOCK_EXPR File=VDE$PARSE.:VDA5TSI                       FRI 07/04/97 11:13 Page:81
   8760  1 000114   002147 701000 1                  TSX1    MOVEMENTS
         1 000115   000312 702000 1                  TSX2    STRING_EXPRESSION_FAILED

      349     8761    2                ALTRET (MOVEMENTS_FAILED);
      350     8762
      351     8763    2              CALL ADJUST_LIST

   8763  1 000116   002100 701000 1                  TSX1    ADJUST_LIST
         1 000117   000312 702000 1                  TSX2    STRING_EXPRESSION_FAILED

      352     8764    2                ALTRET (ADJUST_LIST_FAILED);
      353     8765
      354     8766    2              CALL SELECT_CLAUSE

   8766  1 000120   002005 701000 1                  TSX1    SELECT_CLAUSE
         1 000121   000312 702000 1                  TSX2    STRING_EXPRESSION_FAILED

      355     8767    2                ALTRET (SELECT_CLAUSE_FAILED);
      356     8768
      357     8769    3              IF CHILD_INDEX < PT_BLOCK_EXPR.NSUBLKS THEN DO;

   8769  1 000122   200003 470500                    LDP0    @PT_BLOCK_EXPR,,AUTO
         1 000123   000001 236100                    LDQ     1,,PR0
         1 000124   000022 772000                    QRL     18
         1 000125   200013 116100                    CMPQ    CHILD_INDEX,,AUTO
         1 000126   000155 604400 1                  TMOZ    s:8781

      358     8770    3                 CHILD$ = PT_BLOCK_EXPR.SUBLK$ (CHILD_INDEX);

   8770  1 000127   200013 720100                    LXL0    CHILD_INDEX,,AUTO
         1 000130   000003 236110                    LDQ     3,X0,PR0
         1 000131   200014 756100                    STQ     CHILD$,,AUTO

      359     8771    4                 IF CHILD.CODE = %T_KEY_INCR THEN DO;

   8771  1 000132   200014 471500                    LDP1    CHILD$,,AUTO
         1 000133   100000 721100                    LXL1    0,,PR1
PL6.E3A0      #001=VDE$PBLOCK_EXPR File=VDE$PARSE.:VDA5TSI                       FRI 07/04/97 11:13 Page:82
         1 000134   002017 101003                    CMPX1   1039,DU
         1 000135   000155 601000 1                  TNZ     s:8781

      360     8772    4                    CALL VDE$PNUMERIC_KEY (CHILD, IT$BLOCK_EXPR.OPTIONS.KEY_INCR)

   8772  1 000136   200006 236100                    LDQ     IT_BLOCK_EXPR$,,AUTO
         1 000137   000033 036003                    ADLQ    27,DU
         1 000140   200014 235100                    LDA     CHILD$,,AUTO
         1 000141   200060 757100                    STAQ    NEW_SELECT$+1,,AUTO
         1 000142   200060 630500                    EPPR0   NEW_SELECT$+1,,AUTO
         1 000143   000020 631400 xsym               EPPR1   B_VECTNIL+16
         1 000144   000000 701000 xent               TSX1    VDE$PNUMERIC_KEY
         1 000145   000312 702000 1                  TSX2    STRING_EXPRESSION_FAILED

      361     8773    4                      ALTRET (PNUMERIC_KEY_FAILED);
      362     8774    4                    IF ADDR(IT$BLOCK_EXPR.OPTIONS.KEY_INCR) ->

   8774  1 000146   200006 470500                    LDP0    IT_BLOCK_EXPR$,,AUTO
         1 000147   000034 236100                    LDQ     28,,PR0
         1 000150   000032 376000 xsym               ANQ     B_VECTNIL+26
         1 000151   177777 116007                    CMPQ    65535,DL
         1 000152   000173 603000 1                  TRC     BAD_KEY_INCR

      363     8775    4                      VD$KEY_NUMBER.BYTES# > 65534 THEN
      364     8776    4                       GOTO BAD_KEY_INCR;
      365     8777    4                    CHILD_INDEX = CHILD_INDEX + 1;

   8777  1 000153   200013 054100                    AOS     CHILD_INDEX,,AUTO

      366     8778    4                    EXIT SELECT_CLAUSE_LOOP;

   8778  1 000154   000165 710000 1                  TRA     s:8783

      367     8779    4                    END;
      368     8780    3                 END;
      369     8781    2              END SELECT_CLAUSE_LOOP;

PL6.E3A0      #001=VDE$PBLOCK_EXPR File=VDE$PARSE.:VDA5TSI                       FRI 07/04/97 11:13 Page:83
   8781  1 000155   200003 470500                    LDP0    @PT_BLOCK_EXPR,,AUTO
         1 000156   000001 236100                    LDQ     1,,PR0
         1 000157   000022 772000                    QRL     18
         1 000160   200013 116100                    CMPQ    CHILD_INDEX,,AUTO
         1 000161   000165 604400 1                  TMOZ    s:8783
         1 000162   200013 236100                    LDQ     CHILD_INDEX,,AUTO
         1 000163   200012 116100                    CMPQ    PREV_CHILD_INDEX,,AUTO
         1 000164   000112 605400 1                  TPNZ    s:8759

      370     8782
      371     8783    1           IF CHILD_INDEX < PT_BLOCK_EXPR.NSUBLKS THEN

   8783  1 000165   200003 470500                    LDP0    @PT_BLOCK_EXPR,,AUTO
         1 000166   000001 236100                    LDQ     1,,PR0
         1 000167   000022 772000                    QRL     18
         1 000170   200013 116100                    CMPQ    CHILD_INDEX,,AUTO
         1 000171   000205 605400 1                  TPNZ    UNPROCESSED_NODE_FAILURE

      372     8784    1              GOTO UNPROCESSED_NODE_FAILURE;
      373     8785
      374     8786    1           RETURN;

   8786  1 000172   000000 702200 xent               TSX2  ! X66_ARET

   8783  1 000173                       BAD_KEY_INCR null
      375     8787
      376     8788
      377     8789                %BOX (TITLE="Error Handlers");

              8801    1   /***************************************************************************
              8803    1    *                                                                         *
              8807    1            *                               Error Handlers                           *
              8809    1            *                                                                        *
              8811    1          ***************************************************************************/

      378     8815
      379     8816        /*STRING_NOT_ONLY_OPAND_FAILURE:                                    */
PL6.E3A0      #001=VDE$PBLOCK_EXPR File=VDE$PARSE.:VDA5TSI                       FRI 07/04/97 11:13 Page:84
      380     8817        /*      CALL VDG$ERRMSG (%E$STRING_NOT_ONLY_OPAND) ALTRET (OTHER_FAILURE); */
      381     8818        /*      GOTO CMDLINE_ERR;                                                  */
      382     8819
      383     8820
      384     8821    1   BAD_KEY_INCR: ;
      385     8822    1           CALL VDG$ERRMSG (%E$BAD_KEY_INCR) ALTRET (OTHER_FAILURE);

   8822  1 000173   000003 630400 2                  EPPR0   3
         1 000174   000017 631400 xsym               EPPR1   B_VECTNIL+15
         1 000175   000000 701000 xent               TSX1    VDG$ERRMSG
         1 000176   000312 702000 1                  TSX2    STRING_EXPRESSION_FAILED

      386     8823    1           GOTO CMDLINE_ERR;

   8823  1 000177   000306 710000 1                  TRA     CMDLINE_ERR

      387     8824
      388     8825
      389     8826    1   NO_EDIT_BLOCK_FAILURE:
      390     8827    1           CALL VDG$ERRMSG (%E$NO_EDIT_BLOCK) ALTRET (OTHER_FAILURE);

   8827  1 000200   000005 630400 2     NO_EDIT_BLO* EPPR0   5
         1 000201   000017 631400 xsym               EPPR1   B_VECTNIL+15
         1 000202   000000 701000 xent               TSX1    VDG$ERRMSG
         1 000203   000312 702000 1                  TSX2    STRING_EXPRESSION_FAILED

      391     8828    1           GOTO CMDLINE_ERR;

   8828  1 000204   000306 710000 1                  TRA     CMDLINE_ERR

      392     8829
      393     8830
      394     8831    1   UNPROCESSED_NODE_FAILURE:
      395     8832    1           CALL VDG$ERRMSG (%E$HUH) ALTRET (OTHER_FAILURE);

   8832  1 000205   000006 630400 2     UNPROCESSED* EPPR0   6
         1 000206   000017 631400 xsym               EPPR1   B_VECTNIL+15
PL6.E3A0      #001=VDE$PBLOCK_EXPR File=VDE$PARSE.:VDA5TSI                       FRI 07/04/97 11:13 Page:85
         1 000207   000000 701000 xent               TSX1    VDG$ERRMSG
         1 000210   000312 702000 1                  TSX2    STRING_EXPRESSION_FAILED

      396     8833
      397     8834    1           CHILD$ = PT_BLOCK_EXPR.SUBLK$ (CHILD_INDEX);

   8834  1 000211   200003 470500                    LDP0    @PT_BLOCK_EXPR,,AUTO
         1 000212   200013 720100                    LXL0    CHILD_INDEX,,AUTO
         1 000213   000003 236110                    LDQ     3,X0,PR0
         1 000214   200014 756100                    STQ     CHILD$,,AUTO

      398     8835    2           DO CASE (CHILD.CODE);

   8835  1 000215   200014 471500                    LDP1    CHILD$,,AUTO
         1 000216   100000 236100                    LDQ     0,,PR1
         1 000217   777777 376007                    ANQ     -1,DL
         1 000220   002011 136007                    SBLQ    1033,DL
         1 000221   000037 116007                    CMPQ    31,DL
         1 000222   000224 602006 1                  TNC     s:8835+7,QL
         1 000223   000277 710000 1                  TRA     s:8846
         1 000224   000263 710000 1                  TRA     s:8838
         1 000225   000277 710000 1                  TRA     s:8846
         1 000226   000263 710000 1                  TRA     s:8838
         1 000227   000277 710000 1                  TRA     s:8846
         1 000230   000277 710000 1                  TRA     s:8846
         1 000231   000277 710000 1                  TRA     s:8846
         1 000232   000277 710000 1                  TRA     s:8846
         1 000233   000277 710000 1                  TRA     s:8846
         1 000234   000277 710000 1                  TRA     s:8846
         1 000235   000277 710000 1                  TRA     s:8846
         1 000236   000277 710000 1                  TRA     s:8846
         1 000237   000277 710000 1                  TRA     s:8846
         1 000240   000277 710000 1                  TRA     s:8846
         1 000241   000277 710000 1                  TRA     s:8846
         1 000242   000277 710000 1                  TRA     s:8846
         1 000243   000277 710000 1                  TRA     s:8846
         1 000244   000277 710000 1                  TRA     s:8846
PL6.E3A0      #001=VDE$PBLOCK_EXPR File=VDE$PARSE.:VDA5TSI                       FRI 07/04/97 11:13 Page:86
         1 000245   000277 710000 1                  TRA     s:8846
         1 000246   000277 710000 1                  TRA     s:8846
         1 000247   000277 710000 1                  TRA     s:8846
         1 000250   000277 710000 1                  TRA     s:8846
         1 000251   000277 710000 1                  TRA     s:8846
         1 000252   000277 710000 1                  TRA     s:8846
         1 000253   000277 710000 1                  TRA     s:8846
         1 000254   000271 710000 1                  TRA     s:8843
         1 000255   000271 710000 1                  TRA     s:8843
         1 000256   000271 710000 1                  TRA     s:8843
         1 000257   000271 710000 1                  TRA     s:8843
         1 000260   000271 710000 1                  TRA     s:8843
         1 000261   000271 710000 1                  TRA     s:8843
         1 000262   000271 710000 1                  TRA     s:8843

      399     8836    2            CASE (%T_PROTECT, %T_STRUCTURE);

      400     8837                   /* Processing option given but not at start of blk expr */
      401     8838    2              LAST$ERR.ERR.CODE# = %E$PROC_OPT_NOT_1ST;

   8838  1 000263   000032 473400 xsym               LDP3    VD_6E+26
         1 000264   300002 236100                    LDQ     2,,PR3
         1 000265   000007 376000 2                  ANQ     7
         1 000266   001270 276007                    ORQ     696,DL
         1 000267   300002 756100                    STQ     2,,PR3
         1 000270   000306 710000 1                  TRA     CMDLINE_ERR

      402     8839
      403     8840    2            CASE (%T_NEXT, %T_PREVIOUS, %T_NEW, %T_OLD, %T_ANY,

      404     8841    2                %T_FILE_FID, %T_LO_NAME);
      405     8842                   /* Domain operand given but not as 1st in blk expr */
      406     8843    2              LAST$ERR.ERR.CODE# = %E$DOMAIN_OPAND_NOT_1ST;

   8843  1 000271   000032 473400 xsym               LDP3    VD_6E+26
         1 000272   300002 236100                    LDQ     2,,PR3
         1 000273   000007 376000 2                  ANQ     7
PL6.E3A0      #001=VDE$PBLOCK_EXPR File=VDE$PARSE.:VDA5TSI                       FRI 07/04/97 11:13 Page:87
         1 000274   001300 276007                    ORQ     704,DL
         1 000275   300002 756100                    STQ     2,,PR3
         1 000276   000306 710000 1                  TRA     CMDLINE_ERR

      407     8844
      408     8845    2            CASE (ELSE);

      409     8846    2              CALL VDG$ESCREECH (CHILD.CODE);

   8846  1 000277   200014 236100                    LDQ     CHILD$,,AUTO
         1 000300   400000 036007                    ADLQ    -131072,DL
         1 000301   200060 756100                    STQ     NEW_SELECT$+1,,AUTO
         1 000302   200060 630500                    EPPR0   NEW_SELECT$+1,,AUTO
         1 000303   000017 631400 xsym               EPPR1   B_VECTNIL+15
         1 000304   000000 701000 xent               TSX1    VDG$ESCREECH
         1 000305   000000 011000                    NOP     0

      410     8847    2            END;

   8845  1 000306                       CMDLINE_ERR  null
      411     8848
      412     8849    1   CMDLINE_ERR: ;
      413     8850    1           LAST$ERR.CMDLINE_INDEX# = CHILD.CPOS;

   8850  1 000306   200014 470500                    LDP0    CHILD$,,AUTO
         1 000307   000002 720100                    LXL0    2,,PR0
         1 000310   000032 471400 xsym               LDP1    VD_6E+26
         1 000311   100003 440100                    SXL0    3,,PR1

   8850  1 000312                       STRING_EXPR* null
   8850  1 000312                       PROCESSING_* null
   8850  1 000312                       DOMAIN_OPER* null
   8850  1 000312                       MOVEMENTS_F* null
   8850  1 000312                       ADJUST_LIST* null
   8850  1 000312                       SELECT_CLAU* null
   8850  1 000312                       PNUMERIC_KE* null
      414     8851
PL6.E3A0      #001=VDE$PBLOCK_EXPR File=VDE$PARSE.:VDA5TSI                       FRI 07/04/97 11:13 Page:88
      415     8852
      416     8853    1   STRING_EXPRESSION_FAILED: ;
      417     8854    1   PROCESSING_OPTIONS_FAILED: ;
      418     8855    1   DOMAIN_OPERAND_FAILED: ;
      419     8856    1   MOVEMENTS_FAILED: ;
      420     8857    1   ADJUST_LIST_FAILED: ;
      421     8858    1   SELECT_CLAUSE_FAILED: ;
      422     8859    1   PNUMERIC_KEY_FAILED: ;
      423     8860
      424     8861    1   OTHER_FAILURE:
      425     8862    1           IF FATAL$ERR.ERR ~= %CLEAR THEN

   8862  1 000312   000031 470400 xsym  OTHER_FAILU* LDP0    VD_6E+25
         1 000313   000002 235100                    LDA     2,,PR0
         1 000314   000316 600000 1                  TZE     s:8864

      426     8863    1              ALTRETURN;

   8863  1 000315   000000 702200 xent               TSX2  ! X66_AALT

      427     8864    1           CALL VDG$OFREE (IT$BLOCK_EXPR)

   8864  1 000316   200006 630500                    EPPR0   IT_BLOCK_EXPR$,,AUTO
         1 000317   000017 631400 xsym               EPPR1   B_VECTNIL+15
         1 000320   000000 701000 xent               TSX1    VDG$OFREE
         1 000321   000326 702000 1                  TSX2    GUAR_LAST_SELECT_FAILED

      428     8865    1             ALTRET (OFREE_FAILED);
      429     8866    1           CURR$WINDOW.OPERAND.INTREE$ = ADDR(NIL);

   8866  1 000322   000001 236000 xsym               LDQ     B_VECTNIL+1
         1 000323   200004 470500                    LDP0    CURR_WINDOW$,,AUTO
         1 000324   000011 756100                    STQ     9,,PR0

      430     8867    1           ALTRETURN;

   8867  1 000325   000000 702200 xent               TSX2  ! X66_AALT
PL6.E3A0      #001=VDE$PBLOCK_EXPR File=VDE$PARSE.:VDA5TSI                       FRI 07/04/97 11:13 Page:89

   8866  1 000326                       GUAR_LAST_S* null
   8866  1 000326                       OALLOC_FAIL* null
   8866  1 000326                       OFREE_FAILED null
      431     8868
      432     8869
      433     8870    1   GUAR_LAST_SELECT_FAILED: ;
      434     8871    1   OALLOC_FAILED: ;
      435     8872    1   OFREE_FAILED: ;
      436     8873    1           ALTRETURN;

   8873  1 000326   000000 702200 xent               TSX2  ! X66_AALT

      437     8874
      438     8875        %BOX (TITLE=PROCESSING_OPTIONS, PAGE=YES);
              8883    1
              8887    1   /***************************************************************************
              8889    1    *                                                                         *
              8893    1            *                             PROCESSING_OPTIONS                         *
              8895    1            *                                                                        *
              8897    1          ***************************************************************************/

      439     8901
      440     8902        /*I* NAME: PROCESSING_OPTIONS
      441     8903            PARAMETERS:
      442     8904                None.
      443     8905            INPUT:
      444     8906                CHILD_INDEX refers to the next child of PT_BLOCK_EXPR
      445     8907                    to process.
      446     8908                IT$BLOCK_EXPR - Root node of InTree.  It should not have
      447     8909                    any .OPTIONS yet:  its .OPTIONS must be "clear"
      448     8910                    (%CLEAR except pointers are NIL).
      449     8911                VD_$STRUCTURE, VD_$LEVEL, VD_$COMPONENT, VD_$PROTECT, and
      450     8912                    VD_$EXIST must specify the defaults for these options.
      451     8913            OUTPUT:
      452     8914                IT$BLOCK_EXPR.OPTIONS will have in it any options seen.
      453     8915                CHILD_INDEX will be incremented beyond any processed nodes.
PL6.E3A0      #001=VDE$PBLOCK_EXPR File=VDE$PARSE.:VDA5TSI                       FRI 07/04/97 11:13 Page:90
      454     8916            SCRATCH:
      455     8917                CHILD$.
      456     8918            DESCRIPTION:
      457     8919                Loop thru PT_BLOCK_EXPR's children while we see one of:
      458     8920                T_PROTECT
      459     8921                    Set .OPTIONS.PROTECT# to %PROTECT or %DONT_PROTECT,
      460     8922                        depending on a T_DONT dangling from the T_PROTECT.
      461     8923        *N*     T_STRUCTURE
      462     8924        *N*         Find the named structure, and point .OPTIONS.STRUCTURE$
      463     8925        *N*             to it's level-1 FileNode in the Structures file.
      464     8926                T_NEW, T_OLD, or T_ANY
      465     8927                    Set the .OPTIONS.EXIST# value.
      466     8928
      467     8929                When done, if we saw any processing options, update the
      468     8930                    InTree's options.
      469     8931        */
      470     8932
      471     8933    1   PROCESSING_OPTIONS: PROC ALTRET;

   8933  1 000327   200020 741300       PROCESSING_* STX1  ! T$+2,,AUTO

      472     8934
      473     8935
      474     8936
      475     8937        %VD$ACCESS_OPTIONS (NAME=OPTIONS, STCLASS=AUTO);
      476     8966
      477     8967
      478     8968
      479     8969    2           OPTIONS = IT$BLOCK_EXPR.OPTIONS;

   8969  1 000330   200006 470500                    LDP0    IT_BLOCK_EXPR$,,AUTO
         1 000331   000100 100500                    MLR     fill='000'O
         1 000332   000030 000024                    ADSC9   24,,PR0                  cn=0,n=20
         1 000333   200021 000024                    ADSC9   OPTIONS,,AUTO            cn=0,n=20

      480     8970
      481     8971    2   OPTION_LOOP:
PL6.E3A0      #001=VDE$PBLOCK_EXPR File=VDE$PARSE.:VDA5TSI                       FRI 07/04/97 11:13 Page:91
      482     8972    3           DO WHILE CHILD_INDEX <= PT_BLOCK_EXPR.NSUBLKS;

   8972  1 000334   200003 471500       OPTION_LOOP  LDP1    @PT_BLOCK_EXPR,,AUTO
         1 000335   100001 236100                    LDQ     1,,PR1
         1 000336   000022 772000                    QRL     18
         1 000337   200013 116100                    CMPQ    CHILD_INDEX,,AUTO
         1 000340   000476 604000 1                  TMI     s:9023

      483     8973    3              CHILD$ = PT_BLOCK_EXPR.SUBLK$ (CHILD_INDEX);

   8973  1 000341   200003 470500                    LDP0    @PT_BLOCK_EXPR,,AUTO
         1 000342   200013 720100                    LXL0    CHILD_INDEX,,AUTO
         1 000343   000003 236110                    LDQ     3,X0,PR0
         1 000344   200014 756100                    STQ     CHILD$,,AUTO

      484     8974
      485     8975    4              DO CASE (CHILD.CODE);

   8975  1 000345   200014 471500                    LDP1    CHILD$,,AUTO
         1 000346   100000 236100                    LDQ     0,,PR1
         1 000347   777777 376007                    ANQ     -1,DL
         1 000350   002011 136007                    SBLQ    1033,DL
         1 000351   000036 116007                    CMPQ    30,DL
         1 000352   000354 602006 1                  TNC     s:8975+7,QL
         1 000353   000470 710000 1                  TRA     s:9016
         1 000354   000412 710000 1                  TRA     s:8977
         1 000355   000470 710000 1                  TRA     s:9016
         1 000356   000424 710000 1                  TRA     s:8985
         1 000357   000470 710000 1                  TRA     s:9016
         1 000360   000470 710000 1                  TRA     s:9016
         1 000361   000470 710000 1                  TRA     s:9016
         1 000362   000470 710000 1                  TRA     s:9016
         1 000363   000470 710000 1                  TRA     s:9016
         1 000364   000470 710000 1                  TRA     s:9016
         1 000365   000470 710000 1                  TRA     s:9016
         1 000366   000470 710000 1                  TRA     s:9016
         1 000367   000470 710000 1                  TRA     s:9016
PL6.E3A0      #001=VDE$PBLOCK_EXPR File=VDE$PARSE.:VDA5TSI                       FRI 07/04/97 11:13 Page:92
         1 000370   000470 710000 1                  TRA     s:9016
         1 000371   000470 710000 1                  TRA     s:9016
         1 000372   000470 710000 1                  TRA     s:9016
         1 000373   000470 710000 1                  TRA     s:9016
         1 000374   000470 710000 1                  TRA     s:9016
         1 000375   000470 710000 1                  TRA     s:9016
         1 000376   000470 710000 1                  TRA     s:9016
         1 000377   000470 710000 1                  TRA     s:9016
         1 000400   000470 710000 1                  TRA     s:9016
         1 000401   000470 710000 1                  TRA     s:9016
         1 000402   000470 710000 1                  TRA     s:9016
         1 000403   000470 710000 1                  TRA     s:9016
         1 000404   000470 710000 1                  TRA     s:9016
         1 000405   000470 710000 1                  TRA     s:9016
         1 000406   000470 710000 1                  TRA     s:9016
         1 000407   000451 710000 1                  TRA     s:9001
         1 000410   000456 710000 1                  TRA     s:9006
         1 000411   000463 710000 1                  TRA     s:9011

      486     8976    4               CASE (%T_PROTECT);

      487     8977    4                 IF OPTIONS.PROTECT# ~= 0 THEN

   8977  1 000412   200023 221100                    LDX1    NAME_FILE_KEY$+1,,AUTO
         1 000413   000504 601000 1                  TNZ     TOO_MANY_PROC_OPTS_FAILURE

      488     8978    4                    GOTO TOO_MANY_PROC_OPTS_FAILURE;
      489     8979    4                 IF CHILD.NSUBLKS > 0 THEN

   8979  1 000414   100001 222100                    LDX2    1,,PR1
         1 000415   000421 600000 1                  TZE     s:8982

      490     8980    4                    OPTIONS.PROTECT# = %DONT_PROTECT;

   8980  1 000416   000002 223003                    LDX3    2,DU
         1 000417   200023 743100                    STX3    NAME_FILE_KEY$+1,,AUTO
         1 000420   000471 710000 1                  TRA     s:9020
PL6.E3A0      #001=VDE$PBLOCK_EXPR File=VDE$PARSE.:VDA5TSI                       FRI 07/04/97 11:13 Page:93

      491     8981    4                 ELSE
      492     8982    4                    OPTIONS.PROTECT# = %PROTECT;

   8982  1 000421   000001 223003                    LDX3    1,DU
         1 000422   200023 743100                    STX3    NAME_FILE_KEY$+1,,AUTO
         1 000423   000471 710000 1                  TRA     s:9020

      493     8983
      494     8984    4               CASE (%T_STRUCTURE);

      495     8985    4                 IF OPTIONS.STRUCTURE$ ~= ADDR(NIL) THEN

   8985  1 000424   200021 236100                    LDQ     OPTIONS,,AUTO
         1 000425   000001 116000 xsym               CMPQ    B_VECTNIL+1
         1 000426   000504 601000 1                  TNZ     TOO_MANY_PROC_OPTS_FAILURE

      496     8986    4                    GOTO TOO_MANY_PROC_OPTS_FAILURE;
      497     8987
      498     8988    5                 DO CASE (CHILD.SUBLK$(0) -> CHILD.CODE);

   8988  1 000427   100003 473500                    LDP3    3,,PR1
         1 000430   300000 236100                    LDQ     0,,PR3
         1 000431   777777 376007                    ANQ     -1,DL
         1 000432   002050 136007                    SBLQ    1064,DL
         1 000433   000002 116007                    CMPQ    2,DL
         1 000434   000436 602006 1                  TNC     s:8988+7,QL
         1 000435   000446 710000 1                  TRA     s:8996
         1 000436   000443 710000 1                  TRA     s:8993
         1 000437   000440 710000 1                  TRA     s:8990

      499     8989    5                  CASE (%T_STRING_KEY);

      500     8990    5                    OPTIONS.STRUCTURE$ = VD_6E.STRUCTURE_STRINGKEY$;

   8990  1 000440   000014 236000 xsym               LDQ     VD_6E+12
         1 000441   200021 756100                    STQ     OPTIONS,,AUTO
PL6.E3A0      #001=VDE$PBLOCK_EXPR File=VDE$PARSE.:VDA5TSI                       FRI 07/04/97 11:13 Page:94
         1 000442   000471 710000 1                  TRA     s:9020

      501     8991
      502     8992    5                  CASE (%T_NUMERIC_KEY);

      503     8993    5                    OPTIONS.STRUCTURE$ = VD_6E.STRUCTURE_EDITKEY$;

   8993  1 000443   000007 236000 xsym               LDQ     VD_6E+7
         1 000444   200021 756100                    STQ     OPTIONS,,AUTO
         1 000445   000471 710000 1                  TRA     s:9020

      504     8994
      505     8995    5                  CASE (ELSE);

      506     8996    5                    OPTIONS.STRUCTURE$ = VD_6E.STRUCTURE_SEQUENTIAL$;

   8996  1 000446   000013 236000 xsym               LDQ     VD_6E+11
         1 000447   200021 756100                    STQ     OPTIONS,,AUTO

      507     8997
      508     8998    5                  END;

   8998  1 000450   000471 710000 1                  TRA     s:9020

      509     8999
      510     9000    4               CASE (%T_NEW);

      511     9001    4                 IF OPTIONS.EXIST# ~= 0 THEN

   9001  1 000451   200023 721100                    LXL1    NAME_FILE_KEY$+1,,AUTO
         1 000452   000504 601000 1                  TNZ     TOO_MANY_PROC_OPTS_FAILURE

      512     9002    4                    GOTO TOO_MANY_PROC_OPTS_FAILURE;
      513     9003    4                 OPTIONS.EXIST# = %EX_NEW;

   9003  1 000453   000001 222003                    LDX2    1,DU
         1 000454   200023 442100                    SXL2    NAME_FILE_KEY$+1,,AUTO
PL6.E3A0      #001=VDE$PBLOCK_EXPR File=VDE$PARSE.:VDA5TSI                       FRI 07/04/97 11:13 Page:95
         1 000455   000471 710000 1                  TRA     s:9020

      514     9004
      515     9005    4               CASE (%T_OLD);

      516     9006    4                 IF OPTIONS.EXIST# ~= 0 THEN

   9006  1 000456   200023 721100                    LXL1    NAME_FILE_KEY$+1,,AUTO
         1 000457   000504 601000 1                  TNZ     TOO_MANY_PROC_OPTS_FAILURE

      517     9007    4                    GOTO TOO_MANY_PROC_OPTS_FAILURE;
      518     9008    4                 OPTIONS.EXIST# = %EX_OLD;

   9008  1 000460   000002 222003                    LDX2    2,DU
         1 000461   200023 442100                    SXL2    NAME_FILE_KEY$+1,,AUTO
         1 000462   000471 710000 1                  TRA     s:9020

      519     9009
      520     9010    4               CASE (%T_ANY);

      521     9011    4                 IF OPTIONS.EXIST# ~= 0 THEN

   9011  1 000463   200023 721100                    LXL1    NAME_FILE_KEY$+1,,AUTO
         1 000464   000504 601000 1                  TNZ     TOO_MANY_PROC_OPTS_FAILURE

      522     9012    4                    GOTO TOO_MANY_PROC_OPTS_FAILURE;
      523     9013    4                 OPTIONS.EXIST# = %EX_ANY;

   9013  1 000465   000003 222003                    LDX2    3,DU
         1 000466   200023 442100                    SXL2    NAME_FILE_KEY$+1,,AUTO
         1 000467   000471 710000 1                  TRA     s:9020

      524     9014
      525     9015    4               CASE (ELSE);

      526     9016    4                 EXIT OPTION_LOOP;     /* End of processing options */

PL6.E3A0      #001=VDE$PBLOCK_EXPR File=VDE$PARSE.:VDA5TSI                       FRI 07/04/97 11:13 Page:96
   9016  1 000470   000476 710000 1                  TRA     s:9023

      527     9017
      528     9018    4               END;

      529     9019
      530     9020    3              CHILD_INDEX = CHILD_INDEX + 1;

   9020  1 000471   200013 054100                    AOS     CHILD_INDEX,,AUTO

      531     9021    3              END OPTION_LOOP;

   9021  1 000472   000001 236100                    LDQ     1,,PR0
         1 000473   000022 772000                    QRL     18
         1 000474   200013 116100                    CMPQ    CHILD_INDEX,,AUTO
         1 000475   000341 605000 1                  TPL     s:8973

      532     9022
      533     9023    2           IT$BLOCK_EXPR.OPTIONS = OPTIONS;

   9023  1 000476   200006 470500                    LDP0    IT_BLOCK_EXPR$,,AUTO
         1 000477   000100 100500                    MLR     fill='000'O
         1 000500   200021 000024                    ADSC9   OPTIONS,,AUTO            cn=0,n=20
         1 000501   000030 000024                    ADSC9   24,,PR0                  cn=0,n=20

      534     9024
      535     9025    2           RETURN;

   9025  1 000502   200020 221300                    LDX1  ! T$+2,,AUTO
         1 000503   000001 702211                    TSX2  ! 1,X1

      536     9026
      537     9027
      538     9028    2   TOO_MANY_PROC_OPTS_FAILURE:
      539     9029    2           CALL VDG$ERRMSG (%E$TOO_MANY_PROC_OPTS);

   9029  1 000504   000011 630400 2     TOO_MANY_PR* EPPR0   9
PL6.E3A0      #001=VDE$PBLOCK_EXPR File=VDE$PARSE.:VDA5TSI                       FRI 07/04/97 11:13 Page:97
         1 000505   000017 631400 xsym               EPPR1   B_VECTNIL+15
         1 000506   000000 701000 xent               TSX1    VDG$ERRMSG
         1 000507   000000 011000                    NOP     0

      540     9030    2           ALTRETURN;

   9030  1 000510   200020 221300                    LDX1  ! T$+2,,AUTO
         1 000511   000000 702211                    TSX2  ! 0,X1

      541     9031
      542     9032    2   END PROCESSING_OPTIONS;
      543     9033
      544     9034        %BOX (TITLE=STRING_EXPRESSION, PAGE=YES);
              9042    2
              9046    2   /***************************************************************************
              9048    2    *                                                                         *
              9052    2            *                             STRING_EXPRESSION                          *
              9054    2            *                                                                        *
              9056    2          ***************************************************************************/

      545     9060
      546     9061        /*I* NAME: STRING_EXPRESSION
      547     9062            PARAMETERS:
      548     9063                None.
      549     9064            INPUT:
      550     9065                PT_BLOCK_EXPR must be a PARSE$OUT node whose
      551     9066                    .CODE = %T_STRING_EXPR.
      552     9067                CURR$WINDOW must be the current editing VD$WINDOW_SPEC.
      553     9068                IT$BLOCK_EXPR must exist, but must have no children.
      554     9069                LAST_SELECT$, LAST_ADJUST$, and LAST_MOVEMENT$ must be nil:
      555     9070                    there should be no nodes in the InTree yet.
      556     9071                VD_6E.STRUCTURE_SCRATCH$ must point to the level-1 node in
      557     9072                    the Structures file for the "Scratch" structure.
      558     9073            OUTPUT:
      559     9074                An IT_OPERAND node (%OPAND_FILE) will be attached to
      560     9075                    IT$BLOCK_EXPR.  An IT_SELECT node and an IT_ADJUST node
      561     9076                    for the IT_OPERAND node will be attached also.
PL6.E3A0      #001=VDE$PBLOCK_EXPR File=VDE$PARSE.:VDA5TSI                       FRI 07/04/97 11:13 Page:98
      562     9077                LAST_SELECT$, LAST_ADJUST$, and LAST_MOVEMENT$ will be set
      563     9078                    to point to the newly-allocated InTree nodes.
      564     9079                IT$BLOCK_EXPR.DOMAINN will be filled in:  it will refer to
      565     9080                    the entire Scratch Source file.
      566     9081                IT$BLOCK_EXPR.OPTIONS will be filled in, for referencing
      567     9082                    the Data component of a protected, existing Scratch file.
      568     9083            DESCRIPTION:
      569     9084                Call VDE$PXUE_EXP to evaluate the string expression and
      570     9085                    build VD$BUFFERs for it.  Delete any current Scratch
      571     9086                    Source file, and write the buffers to the file.
      572     9087                Build the IT_OPERAND node, pointing to a VD$FILE_KEY for
      573     9088                    the Scratch Source file.
      574     9089                Allocate IT_SELECT and IT_ADJUST nodes, then attach the
      575     9090                    IT_OPERAND node to them.
      576     9091                Fill in IT$BLOCK_EXPR.DOMAINN and .OPTIONS for the Scratch
      577     9092                    Source file.
      578     9093        */
      579     9094
      580     9095    1   STRING_EXPRESSION: PROC ALTRET;

   9095  1 000512   200020 741300       STRING_EXPR* STX1  ! T$+2,,AUTO

      581     9096
      582     9097
      583     9098    2   DCL 1 SAVE_ACCESSOR_PRIV ALIGNED,
      584     9099              %VD$NAC (NAME=ACCESS, LEV=2, LAST=YES);
      585     9113    2   DCL STRING_STREAM$ PTR;
      586     9114        %VD$ACCESS_OPTIONS (NAME=OPEN_OPTIONS, STCLASS=AUTO);
      587     9143        %VD$LOCATION (NAME=STRING_LOC, STCLASS=AUTO);
      588     9171    2   DCL XUE_EXP$ PTR;
      589     9172    2   DCL STR_INDEX SBIN;
      590     9173    2   DCL BUFFER$ PTR;
      591     9174    2   DCL RET_CODE CHAR(1) CALIGNED;
      592     9175    2   DCL CTRL_ARGS (0:%(MX_CTRL_FN_ARGS-1)) SBIN ALIGNED;
      593     9176    2   DCL WRITTEN_NODE$ PTR;
      594     9177    2   DCL IT_OPERAND$ PTR;
      595     9178    2   DCL WILD_STRING$ PTR;
PL6.E3A0      #001=VDE$PBLOCK_EXPR File=VDE$PARSE.:VDA5TSI                       FRI 07/04/97 11:13 Page:99
      596     9179
      597     9180
      598     9181        %VD$STREAM (NAME=STRING$STREAM, STCLASS="BASED(STRING_STREAM$)");
      599     9287        %PARSE$OUT (NAME=XUE$EXP, STCLASS="BASED(XUE_EXP$)");
      600     9332        %VD$BUFFER (NAME=BUFFER, STCLASS="BASED(BUFFER$)");
      601     9390        %VD$FILE_NODE (NAME=WRITTEN$NODE, STCLASS="BASED(WRITTEN_NODE$)");
      602     9483        %VD$IT_OPERAND (NAME=IT$OPERAND, STCLASS="BASED(IT_OPERAND$)");
      603     9549        %VD$WILD_STRINGS (NAME=WILD$STRINGS, STCLASS="BASED(VD_6E.WILD_STRINGS$)");
      604     9664        %VD$WILD_STRINGS (NAME=WILD$STRING, STCLASS="BASED(WILD_STRING$)");
      605     9779        %VD$KEY_NUMBER;
      606     9794        %VD$TEXTC;
      607     9817
      608     9818
      609     9819
      610     9820                /*
      611     9821                *   Open a stream to the Scratch Source file.
      612     9822                */
      613     9823
      614     9824    2           STRING_STREAM$ = ADDR(NIL);

   9824  1 000513   000001 236000 xsym               LDQ     B_VECTNIL+1
         1 000514   200022 756100                    STQ     STRING_STREAM$,,AUTO

      615     9825    2           CALL VDG$OALLOC (%CLS_STREAM, STRING_STREAM$)

   9825  1 000515   200022 630500                    EPPR0   STRING_STREAM$,,AUTO
         1 000516   200061 450500                    STP0    NEW_SELECT$+2,,AUTO
         1 000517   000013 236000 2                  LDQ     11
         1 000520   200060 756100                    STQ     NEW_SELECT$+1,,AUTO
         1 000521   200060 630500                    EPPR0   NEW_SELECT$+1,,AUTO
         1 000522   000020 631400 xsym               EPPR1   B_VECTNIL+16
         1 000523   000000 701000 xent               TSX1    VDG$OALLOC
         1 000524   001247 702000 1                  TSX2    GUAR_LAST_ADJUST_FAILED

      616     9826    2             ALTRET (OALLOC_FAILED);
      617     9827
      618     9828    2           OPEN_OPTIONS = %CLEAR;
PL6.E3A0      #001=VDE$PBLOCK_EXPR File=VDE$PARSE.:VDA5TSI                       FRI 07/04/97 11:13 Page:100

   9828  1 000525   000100 100400                    MLR     fill='000'O
         1 000526   000002 000001 xsym               ADSC9   B_VECTNIL+2              cn=0,n=1
         1 000527   200023 000024                    ADSC9   OPEN_OPTIONS,,AUTO       cn=0,n=20

      619     9829    2           OPEN_OPTIONS.STRUCTURE$ = VD_6E.STRUCTURE_SCRATCH$;

   9829  1 000530   000012 236000 xsym               LDQ     VD_6E+10
         1 000531   200023 756100                    STQ     OPEN_OPTIONS,,AUTO

      620     9830    2           OPEN_OPTIONS.PROTECT# = %DONT_PROTECT;

   9830  1 000532   000002 220003                    LDX0    2,DU
         1 000533   200025 740100                    STX0    EVAL_OPTIONS+1,,AUTO

      621     9831    2           OPEN_OPTIONS.EXIST# = %EX_ANY;

   9831  1 000534   000003 221003                    LDX1    3,DU
         1 000535   200025 441100                    SXL1    EVAL_OPTIONS+1,,AUTO

      622     9832
      623     9833                /*
      624     9834                *           !!! CAUTION !!!
      625     9835                *   We're about to reset VD_ACCESSOR_PRIV.  Any premature
      626     9836                *       exits between now and the call to FCLOSE must
      627     9837                *       restore VD_ACCESSOR_PRIV!!!
      628     9838                */
      629     9839
      630     9840    2           SAVE_ACCESSOR_PRIV = VD_ACCESSOR_PRIV;

   9840  1 000536   000000 236000 xsym               LDQ     VD_ACCESSOR_PRIV
         1 000537   777000 376003                    ANQ     -512,DU
         1 000540   200021 756100                    STQ     SAVE_ACCESSOR_PRIV,,AUTO

      631     9841    2           VD_ACCESSOR_PRIV = %NAC_ALL_BITS;

   9841  1 000541   777000 236003                    LDQ     -512,DU
PL6.E3A0      #001=VDE$PBLOCK_EXPR File=VDE$PARSE.:VDA5TSI                       FRI 07/04/97 11:13 Page:101
         1 000542   000000 756000 xsym               STQ     VD_ACCESSOR_PRIV

      632     9842    2           CALL VDA$FOPEN (STRING$STREAM, VD_KEY_SCRATCH_SOURCE, 0,

   9842  1 000543   200023 630500                    EPPR0   OPEN_OPTIONS,,AUTO
         1 000544   200063 450500                    STP0    NEW_SELECT$+4,,AUTO
         1 000545   000014 236000 2                  LDQ     12
         1 000546   200062 756100                    STQ     NEW_SELECT$+3,,AUTO
         1 000547   000015 236000 2                  LDQ     13
         1 000550   200022 235100                    LDA     STRING_STREAM$,,AUTO
         1 000551   200060 757100                    STAQ    NEW_SELECT$+1,,AUTO
         1 000552   200060 630500                    EPPR0   NEW_SELECT$+1,,AUTO
         1 000553   000022 631400 xsym               EPPR1   B_VECTNIL+18
         1 000554   000000 701000 xent               TSX1    VDA$FOPEN
         1 000555   001244 702000 1                  TSX2    FOPEN_FAILED

      633     9843    2             OPEN_OPTIONS)
      634     9844    2             ALTRET (FOPEN_FAILED);
      635     9845
      636     9846                /*
      637     9847                *   Update the new-domain and options info in IT$BLOCK_EXPR.
      638     9848                */
      639     9849    2           IT$BLOCK_EXPR.DOMAINN.FILE_KEY = VD_KEY_SCRATCH_SOURCE;

   9849  1 000556   200006 470500                    LDP0    IT_BLOCK_EXPR$,,AUTO
         1 000557   000100 100400                    MLR     fill='000'O
         1 000560   000000 000010 xsym               ADSC9   VD_KEY_SCRATCH_SOURCE    cn=0,n=8
         1 000561   000004 000010                    ADSC9   4,,PR0                   cn=0,n=8

      640     9850    2           IT$BLOCK_EXPR.DOMAINN.RANGE = %CLEAR;

   9850  1 000562   000100 100400                    MLR     fill='000'O
         1 000563   000002 000001 xsym               ADSC9   B_VECTNIL+2              cn=0,n=1
         1 000564   000006 000110                    ADSC9   6,,PR0                   cn=0,n=72

      641     9851    2           IT$BLOCK_EXPR.DOMAINN.RANGE.START.KEY (%LVL_LOWER-1) =

PL6.E3A0      #001=VDE$PBLOCK_EXPR File=VDE$PARSE.:VDA5TSI                       FRI 07/04/97 11:13 Page:102
   9851  1 000565   000100 100400                    MLR     fill='000'O
         1 000566   000000 000010 xsym               ADSC9   VD_KEY_NUMERIC_BOF       cn=0,n=8
         1 000567   000006 000010                    ADSC9   6,,PR0                   cn=0,n=8

      642     9852    2             VD_KEY_NUMERIC_BOF; /* Scratch files have numeric keys */
      643     9853    2           IT$BLOCK_EXPR.DOMAINN.RANGE.ENDD.EOF = %TRUE;

   9853  1 000570   400000 236007                    LDQ     -131072,DL
         1 000571   000027 256100                    ORSQ    23,,PR0

      644     9854
      645     9855    2           IT$BLOCK_EXPR.OPTIONS.STRUCTURE$ = VD_6E.STRUCTURE_SCRATCH$;

   9855  1 000572   000012 236000 xsym               LDQ     VD_6E+10
         1 000573   000030 756100                    STQ     24,,PR0

      646     9856    2           IT$BLOCK_EXPR.OPTIONS.LEVEL# = %LVL_EXT_REC;

   9856  1 000574   000001 220003                    LDX0    1,DU
         1 000575   000031 740100                    STX0    25,,PR0

      647     9857    2           IT$BLOCK_EXPR.OPTIONS.COMPONENT# = %CO_DATA;

   9857  1 000576   000003 221003                    LDX1    3,DU
         1 000577   000031 441100                    SXL1    25,,PR0

      648     9858                /* Strings can't be changed: flag it protected */
      649     9859    2           IT$BLOCK_EXPR.OPTIONS.PROTECT# = %PROTECT;

   9859  1 000600   000032 740100                    STX0    26,,PR0

      650     9860    2           IT$BLOCK_EXPR.OPTIONS.EXIST# = %EX_OLD;

   9860  1 000601   000002 222003                    LDX2    2,DU
         1 000602   000032 442100                    SXL2    26,,PR0

      651     9861
PL6.E3A0      #001=VDE$PBLOCK_EXPR File=VDE$PARSE.:VDA5TSI                       FRI 07/04/97 11:13 Page:103
      652     9862                /* Delete the old file contents, if any */
      653     9863    2           CALL VDA$LDELETE (STRING$STREAM, IT$BLOCK_EXPR.DOMAINN.RANGE)

   9863  1 000603   200006 236100                    LDQ     IT_BLOCK_EXPR$,,AUTO
         1 000604   000006 036003                    ADLQ    6,DU
         1 000605   200022 235100                    LDA     STRING_STREAM$,,AUTO
         1 000606   200060 757100                    STAQ    NEW_SELECT$+1,,AUTO
         1 000607   200060 630500                    EPPR0   NEW_SELECT$+1,,AUTO
         1 000610   000020 631400 xsym               EPPR1   B_VECTNIL+16
         1 000611   000000 701000 xent               TSX1    VDA$LDELETE
         1 000612   001244 702000 1                  TSX2    FOPEN_FAILED

      654     9864    2             ALTRET (LDELETE_FAILED);
      655     9865
      656     9866
      657     9867                /* Reset any matching wildcard locations */
      658     9868    2           IF VD_6E.WILD_STRINGS$ ~= ADDR(NIL) THEN

   9868  1 000613   000025 236000 xsym               LDQ     VD_6E+21
         1 000614   000001 116000 xsym               CMPQ    B_VECTNIL+1
         1 000615   000621 600000 1                  TZE     s:9871

      659     9869    2              WILD$STRINGS.N_WILDCARDS# = 0;

   9869  1 000616   000000 220003                    LDX0    0,DU
         1 000617   000025 470400 xsym               LDP0    VD_6E+21
         1 000620   000002 440100                    SXL0    2,,PR0

      660     9870
      661     9871    2           STRING_LOC = VD_KEY_NUMERIC_BOF;

   9871  1 000621   000100 100400                    MLR     fill='000'O
         1 000622   000000 000010 xsym               ADSC9   VD_KEY_NUMERIC_BOF       cn=0,n=8
         1 000623   200030 000044                    ADSC9   STRING_LOC,,AUTO         cn=0,n=36

      662     9872
      663     9873                /*
PL6.E3A0      #001=VDE$PBLOCK_EXPR File=VDE$PARSE.:VDA5TSI                       FRI 07/04/97 11:13 Page:104
      664     9874                *   Evaluate the XUE_EXP# node and write it's buffers to the
      665     9875                *       Scratch Source file.
      666     9876                */
      667     9877
      668     9878    2           XUE_EXP$ = PT_BLOCK_EXPR.SUBLK$ (0);

   9878  1 000624   200003 470500                    LDP0    @PT_BLOCK_EXPR,,AUTO
         1 000625   000003 236100                    LDQ     3,,PR0
         1 000626   200041 756100                    STQ     XUE_EXP$,,AUTO

      669     9879    2           STR_INDEX = 0;

   9879  1 000627   200042 450100                    STZ     STR_INDEX,,AUTO

      670     9880    3           DO UNTIL STR_INDEX >= XUE_ECB.OUT$->VD$TEXTC.LENGTH#;

      671     9881    3              CALL VDE$PSTRING (XUE$EXP, STR_INDEX, BUFFER$, RET_CODE,

   9881  1 000630   200045 630500                    EPPR0   CTRL_ARGS,,AUTO
         1 000631   200064 450500                    STP0    NEW_SELECT$+5,,AUTO
         1 000632   200044 631500                    EPPR1   RET_CODE,,AUTO
         1 000633   200063 451500                    STP1    NEW_SELECT$+4,,AUTO
         1 000634   200043 633500                    EPPR3   BUFFER$,,AUTO
         1 000635   200062 453500                    STP3    NEW_SELECT$+3,,AUTO
         1 000636   200042 634500                    EPPR4   STR_INDEX,,AUTO
         1 000637   200061 454500                    STP4    NEW_SELECT$+2,,AUTO
         1 000640   200041 236100                    LDQ     XUE_EXP$,,AUTO
         1 000641   200060 756100                    STQ     NEW_SELECT$+1,,AUTO
         1 000642   200060 630500                    EPPR0   NEW_SELECT$+1,,AUTO
         1 000643   000023 631400 xsym               EPPR1   B_VECTNIL+19
         1 000644   000000 701000 xent               TSX1    VDE$PSTRING
         1 000645   001244 702000 1                  TSX2    FOPEN_FAILED

      672     9882    3                CTRL_ARGS)
      673     9883    3                ALTRET (PSTRING_FAILED);
      674     9884    3              IF XUE_EXP$ ~= ADDR(NIL) THEN

PL6.E3A0      #001=VDE$PBLOCK_EXPR File=VDE$PARSE.:VDA5TSI                       FRI 07/04/97 11:13 Page:105
   9884  1 000646   200041 236100                    LDQ     XUE_EXP$,,AUTO
         1 000647   000001 116000 xsym               CMPQ    B_VECTNIL+1
         1 000650   000654 600000 1                  TZE     s:9887

      675     9885    3                 XUE_EXP$ = ADDR(NIL);    /* NIL on 2nd thru nth calls */

   9885  1 000651   000001 236000 xsym               LDQ     B_VECTNIL+1
         1 000652   200041 756100                    STQ     XUE_EXP$,,AUTO
         1 000653   000657 710000 1                  TRA     s:9893

      676     9886    4              ELSE DO;

      677     9887    4                 ADDR(STRING_LOC.KEY (%(LVL_EXT_REC-1))) ->

   9887  1 000654   200031 236100                    LDQ     STRING_LOC+1,,AUTO
         1 000655   001750 036007                    ADLQ    1000,DL
         1 000656   200031 552134                    STBQ    STRING_LOC+1,'34'O,AUTO

      678     9888    4                   VD$KEY_NUMBER.BYTES# =
      679     9889    4                   ADDR(STRING_LOC.KEY (%(LVL_EXT_REC-1))) ->
      680     9890    4                   VD$KEY_NUMBER.BYTES# + 1000;
      681     9891    4                 END;

      682     9892
      683     9893    4              IF BUFFER$ = ADDR(NIL) THEN DO;

   9893  1 000657   200043 236100                    LDQ     BUFFER$,,AUTO
         1 000660   000001 116000 xsym               CMPQ    B_VECTNIL+1
         1 000661   000710 601000 1                  TNZ     s:9905

      684     9894    4                 CALL VDG$OALLOC (%CLS_BUFFER, BUFFER$,

   9894  1 000662   000016 036000 2                  ADLQ    14
         1 000663   770000 036007                    ADLQ    -4096,DL
         1 000664   000017 376000 2                  ANQ     15
         1 000665   000022 772000                    QRL     18
         1 000666   200043 235100                    LDA     BUFFER$,,AUTO
PL6.E3A0      #001=VDE$PBLOCK_EXPR File=VDE$PARSE.:VDA5TSI                       FRI 07/04/97 11:13 Page:106
         1 000667   000022 771000                    ARL     18
         1 000670   200060 755100                    STA     NEW_SELECT$+1,,AUTO
         1 000671   200060 136100                    SBLQ    NEW_SELECT$+1,,AUTO
         1 000672   200061 756100                    STQ     NEW_SELECT$+2,,AUTO
         1 000673   200061 630500                    EPPR0   NEW_SELECT$+2,,AUTO
         1 000674   200064 450500                    STP0    NEW_SELECT$+5,,AUTO
         1 000675   200043 631500                    EPPR1   BUFFER$,,AUTO
         1 000676   200063 451500                    STP1    NEW_SELECT$+4,,AUTO
         1 000677   000020 236000 2                  LDQ     16
         1 000700   200062 756100                    STQ     NEW_SELECT$+3,,AUTO
         1 000701   200062 630500                    EPPR0   NEW_SELECT$+3,,AUTO
         1 000702   000021 631400 xsym               EPPR1   B_VECTNIL+17
         1 000703   000000 701000 xent               TSX1    VDG$OALLOC
         1 000704   001247 702000 1                  TSX2    GUAR_LAST_ADJUST_FAILED

      685     9895    4                   POFFW(PALIGNW(ADDR(BUFFER.BYTES)), BUFFER$))
      686     9896    4                   ALTRET (OALLOC_FAILED);
      687     9897    4                 BUFFER.LENGTH# = 0;   /* Build 0-length buffer */

   9897  1 000705   000000 220003                    LDX0    0,DU
         1 000706   200043 470500                    LDP0    BUFFER$,,AUTO
         1 000707   000002 740100                    STX0    2,,PR0

      688     9898    4                 END;

      689     9899
      690     9900                   /*
      691     9901                   *   If we encountered a wildcard, save its position in
      692     9902                   *   WILD$STRINGS
      693     9903                   */
      694     9904
      695     9905    3              IF RET_CODE = %FNID_WILD_CHAR

   9905  1 000710   200044 236100                    LDQ     RET_CODE,,AUTO
         1 000711   777000 376003                    ANQ     -512,DU
         1 000712   127000 116003                    CMPQ    44544,DU
         1 000713   000720 600000 1                  TZE     s:9907
PL6.E3A0      #001=VDE$PBLOCK_EXPR File=VDE$PARSE.:VDA5TSI                       FRI 07/04/97 11:13 Page:107
         1 000714   200044 236100                    LDQ     RET_CODE,,AUTO
         1 000715   777000 376003                    ANQ     -512,DU
         1 000716   077000 116003                    CMPQ    32256,DU
         1 000717   001021 601000 1                  TNZ     s:9941

      696     9906    4                OR RET_CODE = %FNID_WILD_STRING THEN DO;

      697     9907    4                 IF RET_CODE = %FNID_WILD_STRING THEN

   9907  1 000720   200044 236100                    LDQ     RET_CODE,,AUTO
         1 000721   777000 376003                    ANQ     -512,DU
         1 000722   077000 116003                    CMPQ    32256,DU
         1 000723   000727 601000 1                  TNZ     s:9909

      698     9908    4                    CTRL_ARGS(0) = 1;

   9908  1 000724   000001 235007                    LDA     1,DL
         1 000725   200045 755100                    STA     CTRL_ARGS,,AUTO
         1 000726   000732 710000 1                  TRA     s:9912

      699     9909    4                 ELSE IF CTRL_ARGS(1) ~= CTRL_ARGS(0) THEN

   9909  1 000727   200046 236100                    LDQ     CURR_MOVE$+1,,AUTO
         1 000730   200045 116100                    CMPQ    CTRL_ARGS,,AUTO
         1 000731   001151 601000 1                  TNZ     BAD_CTRL_IN_LITERAL_FAILURE

      700     9910    4                       GOTO BAD_CTRL_IN_LITERAL_FAILURE;
      701     9911
      702     9912    4                 IF CTRL_ARGS(0) <= 0 THEN

   9912  1 000732   200045 235100                    LDA     CTRL_ARGS,,AUTO
         1 000733   000736 605400 1                  TPNZ    s:9915

      703     9913    4                    CTRL_ARGS(0) = 1;

   9913  1 000734   000001 236007                    LDQ     1,DL
         1 000735   200045 756100                    STQ     CTRL_ARGS,,AUTO
PL6.E3A0      #001=VDE$PBLOCK_EXPR File=VDE$PARSE.:VDA5TSI                       FRI 07/04/97 11:13 Page:108

      704     9914
      705     9915    5                 IF VD_6E.WILD_STRINGS$ = ADDR(NIL) THEN DO;

   9915  1 000736   000025 236000 xsym               LDQ     VD_6E+21
         1 000737   000001 116000 xsym               CMPQ    B_VECTNIL+1
         1 000740   000760 601000 1                  TNZ     s:9923

      706     9916    5                    CALL VDG$OALLOC (%CLS_BUFFER, T$, SIZEW(WILD$STRINGS) +

   9916  1 000741   000022 236000 2                  LDQ     18
         1 000742   200062 756100                    STQ     NEW_SELECT$+3,,AUTO
         1 000743   200016 630500                    EPPR0   T$,,AUTO
         1 000744   200061 450500                    STP0    NEW_SELECT$+2,,AUTO
         1 000745   000020 236000 2                  LDQ     16
         1 000746   200060 756100                    STQ     NEW_SELECT$+1,,AUTO
         1 000747   200060 630500                    EPPR0   NEW_SELECT$+1,,AUTO
         1 000750   000021 631400 xsym               EPPR1   B_VECTNIL+17
         1 000751   000000 701000 xent               TSX1    VDG$OALLOC
         1 000752   001247 702000 1                  TSX2    GUAR_LAST_ADJUST_FAILED

      707     9917    5                      %(MX_WILD_STRINGS-1)*SIZEW(WILD$STRINGS.W))
      708     9918    5                      ALTRET (OALLOC_FAILED);
      709     9919    5                    VD_6E.WILD_STRINGS$ = T$;

   9919  1 000753   200016 236100                    LDQ     T$,,AUTO
         1 000754   000025 756000 xsym               STQ     VD_6E+21

      710     9920    5                    WILD$STRINGS.N_WILDCARDS# = 0;

   9920  1 000755   000000 220003                    LDX0    0,DU
         1 000756   000025 470400 xsym               LDP0    VD_6E+21
         1 000757   000002 440100                    SXL0    2,,PR0

      711     9921    5                    END;

      712     9922
PL6.E3A0      #001=VDE$PBLOCK_EXPR File=VDE$PARSE.:VDA5TSI                       FRI 07/04/97 11:13 Page:109
      713     9923    4                 IF WILD$STRINGS.N_WILDCARDS# = %MX_WILD_STRINGS THEN

   9923  1 000760   000025 470400 xsym               LDP0    VD_6E+21
         1 000761   000002 720100                    LXL0    2,,PR0
         1 000762   000012 100003                    CMPX0   10,DU
         1 000763   001234 600000 1                  TZE     TOO_MANY_WILD_STRINGS_FAILURE

      714     9924    4                    GOTO TOO_MANY_WILD_STRINGS_FAILURE;
      715     9925
      716     9926    4                 WILD_STRING$ = PINCRW (VD_6E.WILD_STRINGS$,

   9926  1 000764   000000 636010                    EAQ     0,X0
         1 000765   000023 402007                    MPY     19,DL
         1 000766   000025 036000 xsym               ADLQ    VD_6E+21
         1 000767   200051 756100                    STQ     WILD_STRING$,,AUTO

      717     9927    4                   SIZEW(WILD$STRING.W) * WILD$STRINGS.N_WILDCARDS#);
      718     9928    4                 WILD$STRINGS.N_WILDCARDS# = WILD$STRINGS.N_WILDCARDS# + 1;

   9928  1 000770   000001 621010                    EAX1    1,X0
         1 000771   000002 441100                    SXL1    2,,PR0

      719     9929
      720     9930    4                 WILD$STRING.W.N# = CTRL_ARGS(0);

   9930  1 000772   200051 470500                    LDP0    WILD_STRING$,,AUTO
         1 000773   200045 235100                    LDA     CTRL_ARGS,,AUTO
         1 000774   000003 755100                    STA     3,,PR0

      721     9931    4                 WILD$STRING.W.RANGE.START = STRING_LOC;

   9931  1 000775   000100 100500                    MLR     fill='000'O
         1 000776   200030 000044                    ADSC9   STRING_LOC,,AUTO         cn=0,n=36
         1 000777   000004 000044                    ADSC9   4,,PR0                   cn=0,n=36

      722     9932    4                 WILD$STRING.W.RANGE.START.POSITION# = BUFFER.LENGTH#;

PL6.E3A0      #001=VDE$PBLOCK_EXPR File=VDE$PARSE.:VDA5TSI                       FRI 07/04/97 11:13 Page:110
   9932  1 001000   200043 471500                    LDP1    BUFFER$,,AUTO
         1 001001   100002 220100                    LDX0    2,,PR1
         1 001002   000014 740100                    STX0    12,,PR0

      723     9933    4                 WILD$STRING.W.RANGE.ENDD = WILD$STRING.W.RANGE.START;

   9933  1 001003   000100 100500                    MLR     fill='000'O
         1 001004   000004 000044                    ADSC9   4,,PR0                   cn=0,n=36
         1 001005   000015 000044                    ADSC9   13,,PR0                  cn=0,n=36

      724     9934
      725     9935    4                 IF STR_INDEX >= XUE_ECB.OUT$->VD$TEXTC.LENGTH# THEN EXIT;

   9935  1 001006   000004 471400 xsym               LDP1    XUE_ECB+4
         1 001007   100000 236100                    LDQ     0,,PR1
         1 001010   000033 772000                    QRL     27
         1 001011   200042 116100                    CMPQ    STR_INDEX,,AUTO
         1 001012   001020 604400 1                  TMOZ    s:9939

      726     9936    4                 ADDR (WILD$STRING.W.RANGE.ENDD) -> VD$KEY_NUMBER.BYTES# =

   9936  1 001013   000016 236100                    LDQ     14,,PR0
         1 001014   000001 036007                    ADLQ    1,DL
         1 001015   000016 552134                    STBQ    14,'34'O,PR0

      727     9937    4                   ADDR (WILD$STRING.W.RANGE.ENDD) -> VD$KEY_NUMBER.BYTES# + 1;
      728     9938    4                 RET_CODE = %FNID_RECORD;

   9938  1 001016   122000 236003                    LDQ     41984,DU
         1 001017   200044 756100                    STQ     RET_CODE,,AUTO

      729     9939    4                 END;

   9939  1 001020   001031 710000 1                  TRA     s:9945

      730     9940
      731     9941    3              ELSE IF RET_CODE ~= %CHR_SPACE
PL6.E3A0      #001=VDE$PBLOCK_EXPR File=VDE$PARSE.:VDA5TSI                       FRI 07/04/97 11:13 Page:111

   9941  1 001021   200044 236100                    LDQ     RET_CODE,,AUTO
         1 001022   777000 376003                    ANQ     -512,DU
         1 001023   040000 116003                    CMPQ    16384,DU
         1 001024   001031 600000 1                  TZE     s:9945
         1 001025   200044 236100                    LDQ     RET_CODE,,AUTO
         1 001026   777000 376003                    ANQ     -512,DU
         1 001027   122000 116003                    CMPQ    41984,DU
         1 001030   001151 601000 1                  TNZ     BAD_CTRL_IN_LITERAL_FAILURE

      732     9942    3                   AND RET_CODE ~= %FNID_RECORD THEN
      733     9943    3                    GOTO BAD_CTRL_IN_LITERAL_FAILURE;
      734     9944
      735     9945    3              CALL VDA$LWRITE (STRING$STREAM, STRING_LOC, , BUFFER)

   9945  1 001031   200043 236100                    LDQ     BUFFER$,,AUTO
         1 001032   000001 235000 xsym               LDA     B_VECTNIL+1
         1 001033   200062 757100                    STAQ    NEW_SELECT$+3,,AUTO
         1 001034   200030 630500                    EPPR0   STRING_LOC,,AUTO
         1 001035   200061 450500                    STP0    NEW_SELECT$+2,,AUTO
         1 001036   200022 236100                    LDQ     STRING_STREAM$,,AUTO
         1 001037   200060 756100                    STQ     NEW_SELECT$+1,,AUTO
         1 001040   200060 630500                    EPPR0   NEW_SELECT$+1,,AUTO
         1 001041   000022 631400 xsym               EPPR1   B_VECTNIL+18
         1 001042   000000 701000 xent               TSX1    VDA$LWRITE
         1 001043   001240 702000 1                  TSX2    LWRITE_FAILED

      736     9946    3                ALTRET (LWRITE_FAILED);
      737     9947    4              IF RET_CODE ~= %FNID_RECORD THEN DO;

   9947  1 001044   200044 236100                    LDQ     RET_CODE,,AUTO
         1 001045   777000 376003                    ANQ     -512,DU
         1 001046   122000 116003                    CMPQ    41984,DU
         1 001047   001057 600000 1                  TZE     s:9952

      738     9948    4                 WRITTEN_NODE$ = STRING$STREAM.PORT$ ->

PL6.E3A0      #001=VDE$PBLOCK_EXPR File=VDE$PARSE.:VDA5TSI                       FRI 07/04/97 11:13 Page:112
   9948  1 001050   200022 470500                    LDP0    STRING_STREAM$,,AUTO
         1 001051   000001 471500                    LDP1    1,,PR0
         1 001052   100040 236100                    LDQ     32,,PR1
         1 001053   200047 756100                    STQ     WRITTEN_NODE$,,AUTO

      739     9949    4                   VD$PORT.LEVEL.INTERNAL$ (%LVL_EXT_REC);
      740     9950    4                 WRITTEN$NODE.DESC.EOR = %FALSE;

   9950  1 001054   200047 473500                    LDP3    WRITTEN_NODE$,,AUTO
         1 001055   000031 236000 xsym               LDQ     B_VECTNIL+25
         1 001056   300011 356100                    ANSQ    9,,PR3

      741     9951    4                 END;

      742     9952    3              END;

   9952  1 001057   000004 470400 xsym               LDP0    XUE_ECB+4
         1 001060   000000 236100                    LDQ     0,,PR0
         1 001061   000033 772000                    QRL     27
         1 001062   200042 116100                    CMPQ    STR_INDEX,,AUTO
         1 001063   000630 605400 1                  TPNZ    s:9881

      743     9953                /*
      744     9954                *   Make final adjustments in domain info of IT$BLOCK_EXPR
      745     9955                */
      746     9956    3           IF RET_CODE ~= %FNID_RECORD THEN DO;

   9956  1 001064   200044 236100                    LDQ     RET_CODE,,AUTO
         1 001065   777000 376003                    ANQ     -512,DU
         1 001066   122000 116003                    CMPQ    41984,DU
         1 001067   001102 600000 1                  TZE     s:9964

      747     9957    3              IT$BLOCK_EXPR.DOMAINN.RANGE.ENDD.POSITION# =

   9957  1 001070   200047 471500                    LDP1    WRITTEN_NODE$,,AUTO
         1 001071   100010 473500                    LDP3    8,,PR1
         1 001072   300002 220100                    LDX0    2,,PR3
PL6.E3A0      #001=VDE$PBLOCK_EXPR File=VDE$PARSE.:VDA5TSI                       FRI 07/04/97 11:13 Page:113
         1 001073   200006 474500                    LDP4    IT_BLOCK_EXPR$,,AUTO
         1 001074   400027 740100                    STX0    23,,PR4

      748     9958    3                WRITTEN$NODE.DESC.DATA$ -> BUFFER.LENGTH#;
      749     9959    3              IT$BLOCK_EXPR.DOMAINN.RANGE.ENDD.KEY (%LVL_LOWER-1) =

   9959  1 001075   200030 237100                    LDAQ    STRING_LOC,,AUTO
         1 001076   400017 755100                    STA     15,,PR4
         1 001077   400020 756100                    STQ     16,,PR4

      750     9960    3                STRING_LOC.KEY (%LVL_EXT_REC - 1);
      751     9961    3              IT$BLOCK_EXPR.DOMAINN.RANGE.ENDD.EOF = %FALSE;

   9961  1 001100   000023 236000 2                  LDQ     19
         1 001101   400027 356100                    ANSQ    23,,PR4

      752     9962    3              END;

      753     9963
      754     9964    2           CALL VDA$FCLOSE (STRING$STREAM)

   9964  1 001102   200022 630500                    EPPR0   STRING_STREAM$,,AUTO
         1 001103   000017 631400 xsym               EPPR1   B_VECTNIL+15
         1 001104   000000 701000 xent               TSX1    VDA$FCLOSE
         1 001105   001244 702000 1                  TSX2    FOPEN_FAILED

      755     9965    2             ALTRET (FCLOSE_FAILED);
      756     9966    2           VD_ACCESSOR_PRIV = SAVE_ACCESSOR_PRIV;

   9966  1 001106   200021 236100                    LDQ     SAVE_ACCESSOR_PRIV,,AUTO
         1 001107   777000 376003                    ANQ     -512,DU
         1 001110   000000 756000 xsym               STQ     VD_ACCESSOR_PRIV

      757     9967
      758     9968                /*
      759     9969                *   Now build the IT_OPERAND node for the Scratch Source file.
      760     9970                */
PL6.E3A0      #001=VDE$PBLOCK_EXPR File=VDE$PARSE.:VDA5TSI                       FRI 07/04/97 11:13 Page:114
      761     9971
      762     9972    2           CALL VDG$OALLOC (%CLS_IT_OPERAND, T$)

   9972  1 001111   200016 630500                    EPPR0   T$,,AUTO
         1 001112   200061 450500                    STP0    NEW_SELECT$+2,,AUTO
         1 001113   000025 236000 2                  LDQ     21
         1 001114   200060 756100                    STQ     NEW_SELECT$+1,,AUTO
         1 001115   200060 630500                    EPPR0   NEW_SELECT$+1,,AUTO
         1 001116   000020 631400 xsym               EPPR1   B_VECTNIL+16
         1 001117   000000 701000 xent               TSX1    VDG$OALLOC
         1 001120   001247 702000 1                  TSX2    GUAR_LAST_ADJUST_FAILED

      763     9973    2             ALTRET (OALLOC_FAILED);
      764     9974    2           IT_OPERAND$ = T$;

   9974  1 001121   200016 236100                    LDQ     T$,,AUTO
         1 001122   200050 756100                    STQ     IT_OPERAND$,,AUTO

      765     9975    2           IT$OPERAND.OPTIONS.POINT# = %PNT_AO;

   9975  1 001123   000001 220003                    LDX0    1,DU
         1 001124   200050 470500                    LDP0    IT_OPERAND$,,AUTO
         1 001125   000005 740100                    STX0    5,,PR0

      766     9976    2           IT$OPERAND.CODE# = %OPAND_FILE;

   9976  1 001126   000003 740100                    STX0    3,,PR0

      767     9977    2           IT$OPERAND.PARAM$ = ADDR(VD_FKEY_SCRATCH_SOURCE);

   9977  1 001127   000026 236000 2                  LDQ     22
         1 001130   000010 756100                    STQ     8,,PR0

      768     9978
      769     9979                /*
      770     9980                *   Link IT$OPERAND into the InTree.
      771     9981                */
PL6.E3A0      #001=VDE$PBLOCK_EXPR File=VDE$PARSE.:VDA5TSI                       FRI 07/04/97 11:13 Page:115
      772     9982
      773     9983    2           CALL GUAR_LAST_ADJUST

   9983  1 001131   003627 701000 1                  TSX1    GUAR_LAST_ADJUST
         1 001132   001247 702000 1                  TSX2    GUAR_LAST_ADJUST_FAILED

      774     9984    2             ALTRET (GUAR_LAST_ADJUST_FAILED);
      775     9985    2           IT$OPERAND.PARENT$ = LAST_ADJUST$;

   9985  1 001133   200010 236100                    LDQ     LAST_ADJUST$,,AUTO
         1 001134   200050 470500                    LDP0    IT_OPERAND$,,AUTO
         1 001135   000001 756100                    STQ     1,,PR0

      776     9986                /* LAST_MOVEMENT$ should be ADDR(NIL) */
      777     9987    2           LAST_MOVEMENT$ = IT_OPERAND$;

   9987  1 001136   200050 236100                    LDQ     IT_OPERAND$,,AUTO
         1 001137   200011 756100                    STQ     LAST_MOVEMENT$,,AUTO

      778     9988    2           LAST$ADJUST.MOVEMENTS$ = IT_OPERAND$;

   9988  1 001140   200010 471500                    LDP1    LAST_ADJUST$,,AUTO
         1 001141   100004 756100                    STQ     4,,PR1

      779     9989    2           LAST$ADJUST.MOVEMENTS_TAIL$ = IT_OPERAND$;

   9989  1 001142   100005 756100                    STQ     5,,PR1

      780     9990
      781     9991    2           CALL VDG$OFREE (STRING$STREAM);

   9991  1 001143   200022 630500                    EPPR0   STRING_STREAM$,,AUTO
         1 001144   000017 631400 xsym               EPPR1   B_VECTNIL+15
         1 001145   000000 701000 xent               TSX1    VDG$OFREE
         1 001146   000000 011000                    NOP     0

      782     9992    2           RETURN;
PL6.E3A0      #001=VDE$PBLOCK_EXPR File=VDE$PARSE.:VDA5TSI                       FRI 07/04/97 11:13 Page:116

   9992  1 001147   200020 221300                    LDX1  ! T$+2,,AUTO
         1 001150   000001 702211                    TSX2  ! 1,X1

      783     9993
      784     9994
      785     9995
      786     9996    2   BAD_CTRL_IN_LITERAL_FAILURE:
      787     9997    3           CALL VDG$ERRMSG (%E$HUH) WHENRETURN DO;

   9997  1 001151   000006 630400 2     BAD_CTRL_IN* EPPR0   6
         1 001152   000017 631400 xsym               EPPR1   B_VECTNIL+15
         1 001153   000000 701000 xent               TSX1    VDG$ERRMSG
         1 001154   001233 702000 1                  TSX2    s:10011

      788     9998    4              DO SELECT ASCBIN(RET_CODE);

   9998  1 001155   200044 236100                    LDQ     RET_CODE,,AUTO
         1 001156   000033 772000                    QRL     27
         1 001157   000126 116007                    CMPQ    86,DL
         1 001160   001165 602000 1                  TNC     s:9998+8
         1 001161   001176 600000 1                  TZE     s:10000
         1 001162   000127 116007                    CMPQ    87,DL
         1 001163   001233 601000 1                  TNZ     s:10011
         1 001164   001212 710000 1                  TRA     s:10004
         1 001165   000103 116007                    CMPQ    67,DL
         1 001166   001173 602000 1                  TNC     s:9998+14
         1 001167   001204 600000 1                  TZE     s:10002
         1 001170   000105 116007                    CMPQ    69,DL
         1 001171   001233 601000 1                  TNZ     s:10011
         1 001172   001226 710000 1                  TRA     s:10008
         1 001173   000102 116007                    CMPQ    66,DL
         1 001174   001233 601000 1                  TNZ     s:10011
         1 001175   001220 710000 1                  TRA     s:10006

      789     9999    4                 SELECT (%ASCBIN(FNID_VALUE));

PL6.E3A0      #001=VDE$PBLOCK_EXPR File=VDE$PARSE.:VDA5TSI                       FRI 07/04/97 11:13 Page:117
      790    10000    4                 LAST$ERR.ERR.CODE# = %E$TOO_MANY_CTRLFN_VALUE_PARAMS;

  10000  1 001176   000032 470400 xsym               LDP0    VD_6E+26
         1 001177   000002 236100                    LDQ     2,,PR0
         1 001200   000007 376000 2                  ANQ     7
         1 001201   000770 276007                    ORQ     504,DL
         1 001202   000002 756100                    STQ     2,,PR0
         1 001203   001233 710000 1                  TRA     s:10011

      791    10001    4                 SELECT (%ASCBIN(FNID_CURRENT));

      792    10002    4                 LAST$ERR.ERR.CODE# = %E$CTRLFN_CURR_CONFLICTS_W_LIT;

  10002  1 001204   000032 470400 xsym               LDP0    VD_6E+26
         1 001205   000002 236100                    LDQ     2,,PR0
         1 001206   000007 376000 2                  ANQ     7
         1 001207   001020 276007                    ORQ     528,DL
         1 001210   000002 756100                    STQ     2,,PR0
         1 001211   001233 710000 1                  TRA     s:10011

      793    10003    4                 SELECT (%ASCBIN(FNID_WILD_CHAR));

      794    10004    4                 LAST$ERR.ERR.CODE# = %E$TOO_MANY_CTRLFN_WILDC_PARAMS;

  10004  1 001212   000032 470400 xsym               LDP0    VD_6E+26
         1 001213   000002 236100                    LDQ     2,,PR0
         1 001214   000007 376000 2                  ANQ     7
         1 001215   001000 276007                    ORQ     512,DL
         1 001216   000002 756100                    STQ     2,,PR0
         1 001217   001233 710000 1                  TRA     s:10011

      795    10005    4                 SELECT (%ASCBIN(FNID_BO_MATCH));

      796    10006    4                 LAST$ERR.ERR.CODE# = %E$CTRLFN_BOM_CONFLICTS_W_LIT;

  10006  1 001220   000032 470400 xsym               LDP0    VD_6E+26
         1 001221   000002 236100                    LDQ     2,,PR0
PL6.E3A0      #001=VDE$PBLOCK_EXPR File=VDE$PARSE.:VDA5TSI                       FRI 07/04/97 11:13 Page:118
         1 001222   000007 376000 2                  ANQ     7
         1 001223   001010 276007                    ORQ     520,DL
         1 001224   000002 756100                    STQ     2,,PR0
         1 001225   001233 710000 1                  TRA     s:10011

      797    10007    4                 SELECT (%ASCBIN(FNID_EO_MATCH));

      798    10008    4                 LAST$ERR.ERR.CODE# = %E$CTRLFN_EOM_CONFLICTS_W_LIT;

  10008  1 001226   000032 470400 xsym               LDP0    VD_6E+26
         1 001227   000002 236100                    LDQ     2,,PR0
         1 001230   000007 376000 2                  ANQ     7
         1 001231   001050 276007                    ORQ     552,DL
         1 001232   000002 756100                    STQ     2,,PR0

      799    10009    4                 END;

      800    10010    3              END;

      801    10011    2           GOTO FREE_BUFFER;

  10011  1 001233   001240 710000 1                  TRA     LWRITE_FAILED

  10002  1 001234                       TOO_MANY_WI* null
      802    10012
      803    10013
      804    10014    2   TOO_MANY_WILD_STRINGS_FAILURE: ;
      805    10015    2           CALL VDG$ERRMSG (%E$TOO_MANY_WILD_STRINGS, %MX_WILD_STRINGS);

  10015  1 001234   000030 630400 2                  EPPR0   24
         1 001235   000020 631400 xsym               EPPR1   B_VECTNIL+16
         1 001236   000000 701000 xent               TSX1    VDG$ERRMSG
         1 001237   000000 011000                    NOP     0

  10015  1 001240                       LWRITE_FAIL* null
      806    10016
      807    10017
PL6.E3A0      #001=VDE$PBLOCK_EXPR File=VDE$PARSE.:VDA5TSI                       FRI 07/04/97 11:13 Page:119
      808    10018    2   LWRITE_FAILED: ;
      809    10019    2   FREE_BUFFER:
      810    10020    2           CALL VDG$OFREE (BUFFER)

  10020  1 001240   200043 630500       FREE_BUFFER  EPPR0   BUFFER$,,AUTO
         1 001241   000017 631400 xsym               EPPR1   B_VECTNIL+15
         1 001242   000000 701000 xent               TSX1    VDG$OFREE
         1 001243   001247 702000 1                  TSX2    GUAR_LAST_ADJUST_FAILED

  10015  1 001244                       FOPEN_FAILED null
  10015  1 001244                       LDELETE_FAI* null
  10015  1 001244                       PSTRING_FAI* null
  10015  1 001244                       FCLOSE_FAIL* null
      811    10021    2             ALTRET (OFREE_FAILED);
      812    10022
      813    10023
      814    10024    2   FOPEN_FAILED: ;
      815    10025    2   LDELETE_FAILED: ;
      816    10026    2   PSTRING_FAILED: ;
      817    10027    2   FCLOSE_FAILED: ;
      818    10028    2           VD_ACCESSOR_PRIV = SAVE_ACCESSOR_PRIV;

  10028  1 001244   200021 236100                    LDQ     SAVE_ACCESSOR_PRIV,,AUTO
         1 001245   777000 376003                    ANQ     -512,DU
         1 001246   000000 756000 xsym               STQ     VD_ACCESSOR_PRIV

  10028  1 001247                       GUAR_LAST_A* null
  10028  1 001247                       OALLOC_FAIL* null
  10028  1 001247                       OFREE_FAILED null
      819    10029
      820    10030
      821    10031    2   GUAR_LAST_ADJUST_FAILED: ;
      822    10032    2   OALLOC_FAILED: ;
      823    10033    2   OFREE_FAILED: ;
      824    10034    2           CALL VDG$OFREE (STRING$STREAM);

  10034  1 001247   200022 630500                    EPPR0   STRING_STREAM$,,AUTO
PL6.E3A0      #001=VDE$PBLOCK_EXPR File=VDE$PARSE.:VDA5TSI                       FRI 07/04/97 11:13 Page:120
         1 001250   000017 631400 xsym               EPPR1   B_VECTNIL+15
         1 001251   000000 701000 xent               TSX1    VDG$OFREE
         1 001252   000000 011000                    NOP     0

      825    10035    2           ALTRETURN;

  10035  1 001253   200020 221300                    LDX1  ! T$+2,,AUTO
         1 001254   000000 702211                    TSX2  ! 0,X1

      826    10036
      827    10037    2   END STRING_EXPRESSION;
      828    10038
      829    10039        %BOX (TITLE=DOMAIN_OPERAND, PAGE=YES);
             10047    2
             10051    2   /***************************************************************************
             10053    2    *                                                                         *
             10057    2            *                               DOMAIN_OPERAND                           *
             10059    2            *                                                                        *
             10061    2          ***************************************************************************/

      830    10065
      831    10066        /*I* NAME: DOMAIN_OPERAND
      832    10067            PARAMETERS:
      833    10068                OPTIONS - VD$ACCESS_OPTIONS containing only those options
      834    10069                    specified by the user explicitly for this block expression.
      835    10070            INPUT:
      836    10071                CHILD_INDEX refers to the next child of PT_BLOCK_EXPR to
      837    10072                    process.
      838    10073                CURR$WINDOW must be the current editing VD$WINDOW_SPEC.
      839    10074                EDIT$BLOCK must be the VD$BLOCK_DESC for the current
      840    10075                    EditBlock.  If none, CURR$WINDOW.OPERAND.EDIT_BLOCK$ must
      841    10076                    be NIL.
      842    10077                IT$BLOCK_EXPR must exist, but must have no children.
      843    10078                    Its .OPTIONS must contain only those options explicitly
      844    10079                    given by the user for this block expression.
      845    10080                LAST_SELECT$, LAST_ADJUST$, and LAST_MOVEMENT$ must be nil:
      846    10081                    there should be no nodes in the InTree yet.
PL6.E3A0      #001=VDE$PBLOCK_EXPR File=VDE$PARSE.:VDA5TSI                       FRI 07/04/97 11:13 Page:121
      847    10082            OUTPUT:
      848    10083                If the CHILD_INDEX child represents a new explicit domain:
      849    10084                    IT$BLOCK_EXPR.DOMAINN will contain the new domain's file
      850    10085                        key and range.
      851    10086                    IT$BLOCK_EXPR.OPTIONS will have any vacant fields filled
      852    10087                        in from the new domain (if the new domain is a
      853    10088                        BlockDescriptor).
      854    10089                    CHILD_INDEX will be incremented beyond any processed nodes.
      855    10090                    A VD$IT_OPERAND will be appended to the InTree.
      856    10091                    LAST_SELECT$, LAST_ADJUST$, and LAST_MOVEMENT$ will be set
      857    10092                        to point to the newly-allocated InTree nodes.
      858    10093            SCRATCH:
      859    10094                CHILD$, CHILD.
      860    10095            DESCRIPTION:
      861    10096                If CHILD_INDEX is a T_LO_NAME node, and the name's value is a
      862    10097                    block which is in the same file as the current EditBlock,
      863    10098                    then this is not a domain operand:  ignore it and return.
      864    10099                If the CHILD_INDEX node isn't one of the other domain operand
      865    10100                    codes, ignore it and return.
      866    10101                For:
      867    10102                    T_NEXT, T_PREVIOUS:
      868    10103                        Build the IT_OPERAND for these codes.
      869    10104                        Flag IT$BLOCK_EXPR.DOMAINN.NEXT or .PREVIOUS.
      870    10105                    T_FILE_FID:
      871    10106                        Build the IT_OPERAND for this code.  IT_OPERAND.PARAM$
      872    10107                            will point to a VD$FILE_KEY object.
      873    10108                        Set IT$BLOCK_EXPR.DOMAINN.FILE_KEY and .RANGE.
      874    10109                    T_LO_NAME:
      875    10110                        Build the IT_OPERAND for this code.  IT_OPERAND.PARAM$
      876    10111                            will point to a VD$BLOCK_DESC object specifying
      877    10112                            the Location-name's value.
      878    10113                        Set IT$BLOCK_EXPR.DOMAINN.FILE_KEY and .RANGE.
      879    10114
      880    10115                Build both an IT_SELECT and an IT_ADJUST node in the InTree.
      881    10116                Append the IT_OPERAND node with the explicit domain to
      882    10117                    the current last IT_ADJUST node.
      883    10118                Fill in CURR$WINDOW.DOMAINN for the new domain.
PL6.E3A0      #001=VDE$PBLOCK_EXPR File=VDE$PARSE.:VDA5TSI                       FRI 07/04/97 11:13 Page:122
      884    10119        */
      885    10120
      886    10121    1   DOMAIN_OPERAND: PROC ALTRET;

  10121  1 001255   200020 741300       DOMAIN_OPER* STX1  ! T$+2,,AUTO

      887    10122
      888    10123
      889    10124
      890    10125    2   DCL NAME_DESC$ PTR;
      891    10126    2   DCL NAME_FILE_KEY$ PTR;
      892    10127    2   DCL CURRENT_FILE_KEY$ PTR;
      893    10128    2   DCL IT_OPERAND$ PTR;
      894    10129    2   DCL FILE_KEY$ PTR;
      895    10130    2   DCL VD_PARSED_PREDEF_FILE$ PTR;
      896    10131    2   DCL KEYLENGTH UBIN;
      897    10132
      898    10133
      899    10134
      900    10135        %PARSE$SYM (NAME=OUT$SYM, STCLASS=BASED);
      901    10173        %VD$BLOCK_DESC (NAME=NAME$DESC, STCLASS="BASED(NAME_DESC$)");
      902    10320        %VD$TEXTC (NAME=NAME$FILE_KEY, STCLASS="BASED(NAME_FILE_KEY$)");
      903    10343        %VD$TEXTC (NAME=CURRENT$FILE_KEY, STCLASS="BASED(CURRENT_FILE_KEY$)");
      904    10366        %VD$IT_OPERAND (NAME=IT$OPERAND, STCLASS="BASED(IT_OPERAND$)");
      905    10432        %VD$FILE_KEY (STCLASS="BASED(FILE_KEY$)");
      906    10481        %VD$DIR_NODE (NAME=PREDEF$NODE, STCLASS="BASED(VD_PARSED_PREDEF_FILE$)");
      907    10519        %VD$FILE_KEY (NAME=PREDEF$KEY, STCLASS="BASED(VD_PARSED_PREDEF_FILE$)");
      908    10568        %VD$TEXTC;
      909    10591
      910    10592
      911    10593
      912    10594
      913    10595    2           CHILD$ = PT_BLOCK_EXPR.SUBLK$ (CHILD_INDEX);

  10595  1 001256   200003 470500                    LDP0    @PT_BLOCK_EXPR,,AUTO
         1 001257   200013 720100                    LXL0    CHILD_INDEX,,AUTO
         1 001260   000003 236110                    LDQ     3,X0,PR0
PL6.E3A0      #001=VDE$PBLOCK_EXPR File=VDE$PARSE.:VDA5TSI                       FRI 07/04/97 11:13 Page:123
         1 001261   200014 756100                    STQ     CHILD$,,AUTO

      914    10596    2           IF CHILD.CODE = %T_MOVEMENT AND CHILD.NSUBLKS = 1 THEN

  10596  1 001262   200014 471500                    LDP1    CHILD$,,AUTO
         1 001263   100000 722100                    LXL2    0,,PR1
         1 001264   002030 102003                    CMPX2   1048,DU
         1 001265   001273 601000 1                  TNZ     s:10599
         1 001266   100001 223100                    LDX3    1,,PR1
         1 001267   000001 103003                    CMPX3   1,DU
         1 001270   001273 601000 1                  TNZ     s:10599

      915    10597    2              CHILD$ = CHILD.SUBLK$(0);

  10597  1 001271   100003 236100                    LDQ     3,,PR1
         1 001272   200014 756100                    STQ     CHILD$,,AUTO

      916    10598
      917    10599    2           IF CHILD.CODE = %T_LO_NAME

  10599  1 001273   200014 471500                    LDP1    CHILD$,,AUTO
         1 001274   100000 722100                    LXL2    0,,PR1
         1 001275   002047 102003                    CMPX2   1063,DU
         1 001276   001360 601000 1                  TNZ     s:10627
         1 001277   200004 473500                    LDP3    CURR_WINDOW$,,AUTO
         1 001300   300012 236100                    LDQ     10,,PR3
         1 001301   000001 116000 xsym               CMPQ    B_VECTNIL+1
         1 001302   001360 600000 1                  TZE     s:10627

      918    10600    3             AND CURR$WINDOW.OPERAND.EDIT_BLOCK$ ~= ADDR(NIL) THEN DO;

      919    10601    3              CALL VDE$PREAD_LO_NAME (CHILD.SUBLK$(0) -> OUT$SYM.TEXTC$ ->

  10601  1 001303   100003 474500                    LDP4    3,,PR1
         1 001304   400003 475500                    LDP5    3,,PR4
         1 001305   200021 636500                    EPPR6   NAME_DESC$,,AUTO
         1 001306   200061 456500                    STP6    NEW_SELECT$+2,,AUTO
PL6.E3A0      #001=VDE$PBLOCK_EXPR File=VDE$PARSE.:VDA5TSI                       FRI 07/04/97 11:13 Page:124
         1 001307   200060 455500                    STP5    NEW_SELECT$+1,,AUTO
         1 001310   200060 630500                    EPPR0   NEW_SELECT$+1,,AUTO
         1 001311   000020 631400 xsym               EPPR1   B_VECTNIL+16
         1 001312   000000 701000 xent               TSX1    VDE$PREAD_LO_NAME
         1 001313   002003 702000 1                  TSX2    PREAD_LO_NAME_FAILED

      920    10602    3                VD$TEXTC, NAME_DESC$)
      921    10603    3                ALTRET (PREAD_LO_NAME_FAILED);
      922    10604                   %GETKEY (KEY=NAME$DESC.FILE_KEY, PTR=NAME_FILE_KEY$);

  10611  1 001314   200021 470500                    LDP0    NAME_DESC$,,AUTO
         1 001315   000001 720100                    LXL0    1,,PR0
         1 001316   000002 100003                    CMPX0   2,DU
         1 001317   001324 601000 1                  TNZ     s:10611+8

  10611  1 001320   000002 471500                    LDP1    2,,PR0
         1 001321   100002 633500                    EPPR3   2,,PR1
         1 001322   200022 453500                    STP3    NAME_FILE_KEY$,,AUTO
         1 001323   001327 710000 1                  TRA     s:10621

  10611  1 001324   200021 236100                    LDQ     NAME_DESC$,,AUTO
         1 001325   000002 036003                    ADLQ    2,DU
         1 001326   200022 756100                    STQ     NAME_FILE_KEY$,,AUTO

      923    10614                   %GETKEY (KEY=EDIT$BLOCK.FILE_KEY, PTR=CURRENT_FILE_KEY$);

  10621  1 001327   200005 471500                    LDP1    EDIT_BLOCK$,,AUTO
         1 001330   100001 721100                    LXL1    1,,PR1
         1 001331   000002 101003                    CMPX1   2,DU
         1 001332   001337 601000 1                  TNZ     s:10621+8

  10621  1 001333   100002 473500                    LDP3    2,,PR1
         1 001334   300002 634500                    EPPR4   2,,PR3
         1 001335   200023 454500                    STP4    CURRENT_FILE_KEY$,,AUTO
         1 001336   001342 710000 1                  TRA     s:10624

  10621  1 001337   200005 236100                    LDQ     EDIT_BLOCK$,,AUTO
PL6.E3A0      #001=VDE$PBLOCK_EXPR File=VDE$PARSE.:VDA5TSI                       FRI 07/04/97 11:13 Page:125
         1 001340   000002 036003                    ADLQ    2,DU
         1 001341   200023 756100                    STQ     CURRENT_FILE_KEY$,,AUTO

      924    10624    3              IF NAME$FILE_KEY.BYTES = CURRENT$FILE_KEY.BYTES THEN

  10624  1 001342   200022 473500                    LDP3    NAME_FILE_KEY$,,AUTO
         1 001343   300000 236100                    LDQ     0,,PR3
         1 001344   000033 772000                    QRL     27
         1 001345   200023 474500                    LDP4    CURRENT_FILE_KEY$,,AUTO
         1 001346   000000 622006                    EAX2    0,QL
         1 001347   400000 236100                    LDQ     0,,PR4
         1 001350   000033 772000                    QRL     27
         1 001351   000000 623006                    EAX3    0,QL
         1 001352   040140 106540                    CMPC    fill='040'O
         1 001353   300000 200012                    ADSC9   0,,PR3                   cn=1,n=*X2
         1 001354   400000 200013                    ADSC9   0,,PR4                   cn=1,n=*X3
         1 001355   001371 601000 1                  TNZ     s:10660

      925    10625    3                 RETURN;       /* LO-name is not a new domain */

  10625  1 001356   200020 221300                    LDX1  ! T$+2,,AUTO
         1 001357   000001 702211                    TSX2  ! 1,X1

      926    10626    3              END;
      927    10627    2           ELSE IF CHILD.CODE ~= %T_NEXT

  10627  1 001360   002041 102003                    CMPX2   1057,DU
         1 001361   001371 600000 1                  TZE     s:10660
         1 001362   002042 102003                    CMPX2   1058,DU
         1 001363   001371 600000 1                  TZE     s:10660
         1 001364   002043 102003                    CMPX2   1059,DU
         1 001365   001371 600000 1                  TZE     s:10660
         1 001366   002000 102003                    CMPX2   1024,DU
         1 001367   001371 600000 1                  TZE     s:10660

      928    10628    2                AND CHILD.CODE ~= %T_PREVIOUS
      929    10629    2                AND CHILD.CODE ~= %T_FILE_FID
PL6.E3A0      #001=VDE$PBLOCK_EXPR File=VDE$PARSE.:VDA5TSI                       FRI 07/04/97 11:13 Page:126
      930    10630    2                AND CHILD.CODE ~= %T_PREDEF_FILE_NAME THEN
      931    10631    2                 RETURN;      /* Not a domain operand */

  10631  1 001370   000001 702211                    TSX2  ! 1,X1

      932    10632
      933    10633                %BOX (TITLE="CHILD is a new domain specification");

             10645    2   /***************************************************************************
             10647    2    *                                                                         *
             10651    2            *                    CHILD is a new domain specification                 *
             10653    2            *                                                                        *
             10655    2          ***************************************************************************/

      934    10659
      935    10660    2           CALL VDG$OALLOC (%CLS_IT_OPERAND, T$)

  10660  1 001371   200016 630500                    EPPR0   T$,,AUTO
         1 001372   200061 450500                    STP0    NEW_SELECT$+2,,AUTO
         1 001373   000025 236000 2                  LDQ     21
         1 001374   200060 756100                    STQ     NEW_SELECT$+1,,AUTO
         1 001375   200060 630500                    EPPR0   NEW_SELECT$+1,,AUTO
         1 001376   000020 631400 xsym               EPPR1   B_VECTNIL+16
         1 001377   000000 701000 xent               TSX1    VDG$OALLOC
         1 001400   002003 702000 1                  TSX2    PREAD_LO_NAME_FAILED

      936    10661    2             ALTRET (OALLOC_FAILED);
      937    10662    2           IT_OPERAND$ = T$;

  10662  1 001401   200016 236100                    LDQ     T$,,AUTO
         1 001402   200024 756100                    STQ     IT_OPERAND$,,AUTO

      938    10663    2           IT$OPERAND.OPTIONS.POINT# = %PNT_AO;

  10663  1 001403   000001 220003                    LDX0    1,DU
         1 001404   200024 470500                    LDP0    IT_OPERAND$,,AUTO
         1 001405   000005 740100                    STX0    5,,PR0
PL6.E3A0      #001=VDE$PBLOCK_EXPR File=VDE$PARSE.:VDA5TSI                       FRI 07/04/97 11:13 Page:127

      939    10664
      940    10665    3           DO CASE (CHILD.CODE);

  10665  1 001406   200014 471500                    LDP1    CHILD$,,AUTO
         1 001407   100000 236100                    LDQ     0,,PR1
         1 001410   777777 376007                    ANQ     -1,DL
         1 001411   002000 136007                    SBLQ    1024,DL
         1 001412   000050 116007                    CMPQ    40,DL
         1 001413   001415 602006 1                  TNC     s:10665+7,QL
         1 001414   001751 710000 1                  TRA     s:10765
         1 001415   001514 710000 1                  TRA     s:10681
         1 001416   001751 710000 1                  TRA     s:10765
         1 001417   001751 710000 1                  TRA     s:10765
         1 001420   001751 710000 1                  TRA     s:10765
         1 001421   001751 710000 1                  TRA     s:10765
         1 001422   001751 710000 1                  TRA     s:10765
         1 001423   001751 710000 1                  TRA     s:10765
         1 001424   001751 710000 1                  TRA     s:10765
         1 001425   001751 710000 1                  TRA     s:10765
         1 001426   001751 710000 1                  TRA     s:10765
         1 001427   001751 710000 1                  TRA     s:10765
         1 001430   001751 710000 1                  TRA     s:10765
         1 001431   001751 710000 1                  TRA     s:10765
         1 001432   001751 710000 1                  TRA     s:10765
         1 001433   001751 710000 1                  TRA     s:10765
         1 001434   001751 710000 1                  TRA     s:10765
         1 001435   001751 710000 1                  TRA     s:10765
         1 001436   001751 710000 1                  TRA     s:10765
         1 001437   001751 710000 1                  TRA     s:10765
         1 001440   001751 710000 1                  TRA     s:10765
         1 001441   001751 710000 1                  TRA     s:10765
         1 001442   001751 710000 1                  TRA     s:10765
         1 001443   001751 710000 1                  TRA     s:10765
         1 001444   001751 710000 1                  TRA     s:10765
         1 001445   001751 710000 1                  TRA     s:10765
         1 001446   001751 710000 1                  TRA     s:10765
PL6.E3A0      #001=VDE$PBLOCK_EXPR File=VDE$PARSE.:VDA5TSI                       FRI 07/04/97 11:13 Page:128
         1 001447   001751 710000 1                  TRA     s:10765
         1 001450   001751 710000 1                  TRA     s:10765
         1 001451   001751 710000 1                  TRA     s:10765
         1 001452   001751 710000 1                  TRA     s:10765
         1 001453   001751 710000 1                  TRA     s:10765
         1 001454   001751 710000 1                  TRA     s:10765
         1 001455   001751 710000 1                  TRA     s:10765
         1 001456   001465 710000 1                  TRA     s:10667
         1 001457   001473 710000 1                  TRA     s:10671
         1 001460   001501 710000 1                  TRA     s:10675
         1 001461   001751 710000 1                  TRA     s:10765
         1 001462   001751 710000 1                  TRA     s:10765
         1 001463   001751 710000 1                  TRA     s:10765
         1 001464   001647 710000 1                  TRA     s:10721

      941    10666    3            CASE (%T_NEXT);

      942    10667    3              IT$OPERAND.CODE# = %OPAND_NEXT;

  10667  1 001465   000003 221003                    LDX1    3,DU
         1 001466   000003 741100                    STX1    3,,PR0

      943    10668    3              IT$BLOCK_EXPR.DOMAINN.NEXT = %TRUE;

  10668  1 001467   200006 473500                    LDP3    IT_BLOCK_EXPR$,,AUTO
         1 001470   400000 236003                    LDQ     -131072,DU
         1 001471   300003 256100                    ORSQ    3,,PR3
         1 001472   001754 710000 1                  TRA     s:10769

      944    10669
      945    10670    3            CASE (%T_PREVIOUS);

      946    10671    3              IT$OPERAND.CODE# = %OPAND_PREVIOUS;

  10671  1 001473   000004 221003                    LDX1    4,DU
         1 001474   000003 741100                    STX1    3,,PR0

PL6.E3A0      #001=VDE$PBLOCK_EXPR File=VDE$PARSE.:VDA5TSI                       FRI 07/04/97 11:13 Page:129
      947    10672    3              IT$BLOCK_EXPR.DOMAINN.PREVIOUS = %TRUE;

  10672  1 001475   200006 473500                    LDP3    IT_BLOCK_EXPR$,,AUTO
         1 001476   200000 236003                    LDQ     65536,DU
         1 001477   300003 256100                    ORSQ    3,,PR3
         1 001500   001754 710000 1                  TRA     s:10769

      948    10673
      949    10674    3            CASE (%T_FILE_FID);

      950    10675    3              CALL VDE$PFILE_TO_EDIT (CHILD.SUBLK$(0)->OUT$SYM.TEXTC$->VD$TEXTC,

  10675  1 001501   100003 473500                    LDP3    3,,PR1
         1 001502   300003 474500                    LDP4    3,,PR3
         1 001503   200006 236100                    LDQ     IT_BLOCK_EXPR$,,AUTO
         1 001504   000004 036003                    ADLQ    4,DU
         1 001505   200061 756100                    STQ     NEW_SELECT$+2,,AUTO
         1 001506   200060 454500                    STP4    NEW_SELECT$+1,,AUTO
         1 001507   200060 630500                    EPPR0   NEW_SELECT$+1,,AUTO
         1 001510   000020 631400 xsym               EPPR1   B_VECTNIL+16
         1 001511   000000 701000 xent               TSX1    VDE$PFILE_TO_EDIT
         1 001512   001771 702000 1                  TSX2    PFILE_TO_EDIT_FAILED

      951    10676    3                IT$BLOCK_EXPR.DOMAINN.FILE_KEY)
      952    10677    3                ALTRET (PFILE_TO_EDIT_FAILED);
      953    10678    3              GOTO FILE_COMMON;

  10678  1 001513   001576 710000 1                  TRA     FILE_COMMON

      954    10679
      955    10680    3            CASE (%T_PREDEF_FILE_NAME);

      956    10681    3              CALL VDG$OALLOC (%CLS_FILE_KEY, IT$BLOCK_EXPR.DOMAINN.FILE_KEY.V$)

  10681  1 001514   200006 236100                    LDQ     IT_BLOCK_EXPR$,,AUTO
         1 001515   000005 036003                    ADLQ    5,DU
         1 001516   000033 235000 2                  LDA     27
PL6.E3A0      #001=VDE$PBLOCK_EXPR File=VDE$PARSE.:VDA5TSI                       FRI 07/04/97 11:13 Page:130
         1 001517   200060 757100                    STAQ    NEW_SELECT$+1,,AUTO
         1 001520   200060 630500                    EPPR0   NEW_SELECT$+1,,AUTO
         1 001521   000020 631400 xsym               EPPR1   B_VECTNIL+16
         1 001522   000000 701000 xent               TSX1    VDG$OALLOC
         1 001523   002003 702000 1                  TSX2    PREAD_LO_NAME_FAILED

      957    10682    3                ALTRET (OALLOC_FAILED);
      958    10683    3              IT$BLOCK_EXPR.DOMAINN.FILE_KEY.TYPE# = %KT_STRING;

  10683  1 001524   000002 220003                    LDX0    2,DU
         1 001525   200006 470500                    LDP0    IT_BLOCK_EXPR$,,AUTO
         1 001526   000004 740100                    STX0    4,,PR0

      959    10684    3              IT$BLOCK_EXPR.DOMAINN.FILE_KEY.REP# = %REP_REMOTE;

  10684  1 001527   000004 440100                    SXL0    4,,PR0

      960    10685    3              FILE_KEY$ = IT$BLOCK_EXPR.DOMAINN.FILE_KEY.V$;

  10685  1 001530   000005 236100                    LDQ     5,,PR0
         1 001531   200025 756100                    STQ     FILE_KEY$,,AUTO

      961    10686    3              VD_PARSED_PREDEF_FILE$ =

  10686  1 001532   200014 471500                    LDP1    CHILD$,,AUTO
         1 001533   100001 721100                    LXL1    1,,PR1
         1 001534   000001 473400 xsym               LDP3    VD_6E+1
         1 001535   300005 474500                    LDP4    5,,PR3
         1 001536   400000 635511                    EPPR5   0,X1,PR4
         1 001537   200026 455500                    STP5    VD_PARSED_PREDEF_FILE$,,AUTO

      962    10687    3                PINCRW(EQUALS$STREAM.FILE_KEY.V$,CHILD.SCRITCH);
      963    10688    3              IF PREDEF$KEY.OBJECT.CLASS# = %CLS_FILE_KEY THEN

  10688  1 001540   500000 222100                    LDX2    0,,PR5
         1 001541   000016 102003                    CMPX2   14,DU
         1 001542   001550 601000 1                  TNZ     s:10691
PL6.E3A0      #001=VDE$PBLOCK_EXPR File=VDE$PARSE.:VDA5TSI                       FRI 07/04/97 11:13 Page:131

      964    10689    3                 VD$FILE_KEY.UNIQUE.FNAME.BYTES = PREDEF$KEY.UNIQUE.FNAME.BYTES;

  10689  1 001543   200025 476500                    LDP6    FILE_KEY$,,AUTO
         1 001544   040100 100500                    MLR     fill='040'O
         1 001545   500004 400037                    ADSC9   4,,PR5                   cn=2,n=31
         1 001546   600004 400037                    ADSC9   4,,PR6                   cn=2,n=31
         1 001547   001562 710000 1                  TRA     s:10693

      965    10690    3              ELSE
      966    10691    3                 CALL CONCAT (VD$FILE_KEY.UNIQUE.FNAME.BYTES,

  10691  1 001550   200025 476500                    LDP6    FILE_KEY$,,AUTO
         1 001551   500013 236100                    LDQ     11,,PR5
         1 001552   000022 772000                    QRL     18
         1 001553   600004 552110                    STBQ    4,'10'O,PR6
         1 001554   040100 100400                    MLR     fill='040'O
         1 001555   000000 000006 0                  ADSC9   0                        cn=0,n=6
         1 001556   600004 600006                    ADSC9   4,,PR6                   cn=3,n=6
         1 001557   040100 100500                    MLR     fill='040'O
         1 001560   500003 000030                    ADSC9   3,,PR5                   cn=0,n=24
         1 001561   600006 200030                    ADSC9   6,,PR6                   cn=1,n=24

      967    10692    3                   PREDEF$NODE.FILE_STCLASS, %PFK_CONSTANT, PREDEF$NODE.KEY);
      968    10693    3              CALL INDEX (KEYLENGTH, ' ', VD$FILE_KEY.UNIQUE.FNAME.BYTES);

  10693  1 001562   200025 470500                    LDP0    FILE_KEY$,,AUTO
         1 001563   000000 124500                    SCM     mask='000'O
         1 001564   000004 400037                    ADSC9   4,,PR0                   cn=2,n=31
         1 001565   000035 000001 xsym               ADSC9   B_VECTNIL+29             cn=0,n=1
         1 001566   200027 000100                    ARG     KEYLENGTH,,AUTO

      969    10694    3              VD$FILE_KEY.UNIQUE.FNAME.LENGTH# = KEYLENGTH;

  10694  1 001567   200027 236100                    LDQ     KEYLENGTH,,AUTO
         1 001570   000022 736000                    QLS     18
         1 001571   000004 552120                    STBQ    4,'20'O,PR0
PL6.E3A0      #001=VDE$PBLOCK_EXPR File=VDE$PARSE.:VDA5TSI                       FRI 07/04/97 11:13 Page:132

      970    10695    3              VD$FILE_KEY.LENGTH# = KEYLENGTH + 9;

  10695  1 001572   200027 236100                    LDQ     KEYLENGTH,,AUTO
         1 001573   000011 036007                    ADLQ    9,DL
         1 001574   000033 736000                    QLS     27
         1 001575   000002 552140                    STBQ    2,'40'O,PR0

  10695  1 001576                       FILE_COMMON  null
      971    10696    3   FILE_COMMON:;
      972    10697    3              IT$OPERAND.CODE# = %OPAND_FILE;

  10697  1 001576   000001 220003                    LDX0    1,DU
         1 001577   200024 470500                    LDP0    IT_OPERAND$,,AUTO
         1 001600   000003 740100                    STX0    3,,PR0

      973    10698    3              IT$BLOCK_EXPR.DOMAINN.RANGE.ENDD.EOF = %TRUE;

  10698  1 001601   200006 471500                    LDP1    IT_BLOCK_EXPR$,,AUTO
         1 001602   400000 236007                    LDQ     -131072,DL
         1 001603   100027 256100                    ORSQ    23,,PR1

      974    10699    3              IT$BLOCK_EXPR.DOMAINN.RANGE.START.KEY (%LVL_LOWER-1) =

  10699  1 001604   000100 100400                    MLR     fill='000'O
         1 001605   000000 000010 xsym               ADSC9   VD_KEY_NUMERIC_BOF       cn=0,n=8
         1 001606   100006 000010                    ADSC9   6,,PR1                   cn=0,n=8

      975    10700    3                VD_KEY_NUMERIC_BOF;
      976    10701    3              CALL VDG$OCOPY (IT$BLOCK_EXPR.DOMAINN.FILE_KEY.V$->VD$FILE_KEY,

  10701  1 001607   100005 473500                    LDP3    5,,PR1
         1 001610   200024 236100                    LDQ     IT_OPERAND$,,AUTO
         1 001611   000010 036003                    ADLQ    8,DU
         1 001612   200061 756100                    STQ     NEW_SELECT$+2,,AUTO
         1 001613   200060 453500                    STP3    NEW_SELECT$+1,,AUTO
         1 001614   200060 630500                    EPPR0   NEW_SELECT$+1,,AUTO
PL6.E3A0      #001=VDE$PBLOCK_EXPR File=VDE$PARSE.:VDA5TSI                       FRI 07/04/97 11:13 Page:133
         1 001615   000020 631400 xsym               EPPR1   B_VECTNIL+16
         1 001616   000000 701000 xent               TSX1    VDG$OCOPY
         1 001617   002003 702000 1                  TSX2    PREAD_LO_NAME_FAILED

      977    10702    3                IT$OPERAND.PARAM$)
      978    10703    3                ALTRET (OCOPY_FAILED);
      979    10704    3              IF IT$BLOCK_EXPR.OPTIONS.STRUCTURE$ = ADDR(NIL) THEN

  10704  1 001620   200006 470500                    LDP0    IT_BLOCK_EXPR$,,AUTO
         1 001621   000030 236100                    LDQ     24,,PR0
         1 001622   000001 116000 xsym               CMPQ    B_VECTNIL+1
         1 001623   001626 601000 1                  TNZ     s:10706

      980    10705    3                 IT$BLOCK_EXPR.OPTIONS.STRUCTURE$ = VD_$STRUCTURE.V$;

  10705  1 001624   000003 236000 xsym               LDQ     VD_$STRUCTURE+3
         1 001625   000030 756100                    STQ     24,,PR0

      981    10706    3              IF IT$BLOCK_EXPR.OPTIONS.LEVEL# = 0 THEN

  10706  1 001626   000031 220100                    LDX0    25,,PR0
         1 001627   001632 601000 1                  TNZ     s:10708

      982    10707    3                 IT$BLOCK_EXPR.OPTIONS.LEVEL# = %LVL_LOWER;

  10707  1 001630   000001 221003                    LDX1    1,DU
         1 001631   000031 741100                    STX1    25,,PR0

      983    10708    3              IF IT$BLOCK_EXPR.OPTIONS.COMPONENT# = 0 THEN

  10708  1 001632   000031 720100                    LXL0    25,,PR0
         1 001633   001636 601000 1                  TNZ     s:10710

      984    10709    3                 IT$BLOCK_EXPR.OPTIONS.COMPONENT# = VD_$COMPONENT.V#;

  10709  1 001634   000003 721000 xsym               LXL1    VD_$COMPONENT+3
         1 001635   000031 441100                    SXL1    25,,PR0
PL6.E3A0      #001=VDE$PBLOCK_EXPR File=VDE$PARSE.:VDA5TSI                       FRI 07/04/97 11:13 Page:134

      985    10710    3              IF IT$BLOCK_EXPR.OPTIONS.PROTECT# = 0 THEN

  10710  1 001636   000032 220100                    LDX0    26,,PR0
         1 001637   001642 601000 1                  TNZ     s:10712

      986    10711    3                 IT$BLOCK_EXPR.OPTIONS.PROTECT# = VD_$PROTECT.V#;

  10711  1 001640   000003 721000 xsym               LXL1    VD_$PROTECT+3
         1 001641   000032 741100                    STX1    26,,PR0

      987    10712    3              IF IT$BLOCK_EXPR.OPTIONS.EXIST# = 0 THEN

  10712  1 001642   000032 720100                    LXL0    26,,PR0
         1 001643   001754 601000 1                  TNZ     s:10769

      988    10713    3                 IT$BLOCK_EXPR.OPTIONS.EXIST# = VD_$EXIST.V#;

  10713  1 001644   000003 721000 xsym               LXL1    VD_$EXIST+3
         1 001645   000032 441100                    SXL1    26,,PR0
         1 001646   001754 710000 1                  TRA     s:10769

      989    10714
      990    10715    3            CASE (%T_LO_NAME);

      991    10716                   /*
      992    10717                   *   At the start of this routine, we read the name's
      993    10718                   *     value; NAME_DESC$ points to the VD$BLOCK_DESC for
      994    10719                   *     the name.
      995    10720                   */
      996    10721    3              IT$OPERAND.CODE# = %OPAND_BLOCK_DESC;

  10721  1 001647   000005 221003                    LDX1    5,DU
         1 001650   000003 741100                    STX1    3,,PR0

      997    10722    3              CALL VDG$OCOPY (NAME$DESC, IT$OPERAND.PARAM$)

PL6.E3A0      #001=VDE$PBLOCK_EXPR File=VDE$PARSE.:VDA5TSI                       FRI 07/04/97 11:13 Page:135
  10722  1 001651   200024 236100                    LDQ     IT_OPERAND$,,AUTO
         1 001652   000010 036003                    ADLQ    8,DU
         1 001653   200021 235100                    LDA     NAME_DESC$,,AUTO
         1 001654   200060 757100                    STAQ    NEW_SELECT$+1,,AUTO
         1 001655   200060 630500                    EPPR0   NEW_SELECT$+1,,AUTO
         1 001656   000020 631400 xsym               EPPR1   B_VECTNIL+16
         1 001657   000000 701000 xent               TSX1    VDG$OCOPY
         1 001660   002003 702000 1                  TSX2    PREAD_LO_NAME_FAILED

      998    10723    3                ALTRET (OCOPY_FAILED);
      999    10724
     1000    10725    3              IT$BLOCK_EXPR.DOMAINN.FILE_KEY = %CLEAR;

  10725  1 001661   200006 470500                    LDP0    IT_BLOCK_EXPR$,,AUTO
         1 001662   000004 450100                    STZ     4,,PR0
         1 001663   000005 450100                    STZ     5,,PR0

     1001    10726                   %COPYKEY (FKEY=NAME$DESC.FILE_KEY,
     1002    10727                   TKEY=IT$BLOCK_EXPR.DOMAINN.FILE_KEY);

  10740  1 001664   200021 471500                    LDP1    NAME_DESC$,,AUTO
         1 001665   000100 100500                    MLR     fill='000'O
         1 001666   100001 000010                    ADSC9   1,,PR1                   cn=0,n=8
         1 001667   000004 000010                    ADSC9   4,,PR0                   cn=0,n=8

  10740  1 001670   200021 471500                    LDP1    NAME_DESC$,,AUTO
         1 001671   100001 720100                    LXL0    1,,PR1
         1 001672   000002 100003                    CMPX0   2,DU
         1 001673   001710 601000 1                  TNZ     s:10744

  10740  1 001674   100002 473500                    LDP3    2,,PR1
         1 001675   200006 236100                    LDQ     IT_BLOCK_EXPR$,,AUTO
         1 001676   000005 036003                    ADLQ    5,DU
         1 001677   200061 756100                    STQ     NEW_SELECT$+2,,AUTO
         1 001700   200060 453500                    STP3    NEW_SELECT$+1,,AUTO
         1 001701   200060 630500                    EPPR0   NEW_SELECT$+1,,AUTO
         1 001702   000020 631400 xsym               EPPR1   B_VECTNIL+16
PL6.E3A0      #001=VDE$PBLOCK_EXPR File=VDE$PARSE.:VDA5TSI                       FRI 07/04/97 11:13 Page:136
         1 001703   000000 701000 xent               TSX1    VDG$OCOPY
         1 001704   001706 702000 1                  TSX2    s:10741
         1 001705   001710 710000 1                  TRA     s:10744

  10741  1 001706   200020 221300                    LDX1  ! T$+2,,AUTO
         1 001707   000000 702211                    TSX2  ! 0,X1

     1003    10743                   /* EditBlock is the entire file the LO-name points to */
     1004    10744    3              IT$BLOCK_EXPR.DOMAINN.RANGE.START.KEY (%LVL_LOWER-1) =

  10744  1 001710   200006 470500                    LDP0    IT_BLOCK_EXPR$,,AUTO
         1 001711   000100 100400                    MLR     fill='000'O
         1 001712   000000 000010 xsym               ADSC9   VD_KEY_NUMERIC_BOF       cn=0,n=8
         1 001713   000006 000010                    ADSC9   6,,PR0                   cn=0,n=8

     1005    10745    3                VD_KEY_NUMERIC_BOF;
     1006    10746    3              IT$BLOCK_EXPR.DOMAINN.RANGE.ENDD.EOF = %TRUE;

  10746  1 001714   400000 236007                    LDQ     -131072,DL
         1 001715   000027 256100                    ORSQ    23,,PR0

     1007    10747                   /*
     1008    10748                   *  Merge the access options from the LO-name's BlockDescriptor
     1009    10749                   *    into any unspecified fields in IT$BLOCK_EXPR.OPTIONS.
     1010    10750                   */
     1011    10751    3              IF IT$BLOCK_EXPR.OPTIONS.STRUCTURE$ = ADDR(NIL) THEN

  10751  1 001716   000030 236100                    LDQ     24,,PR0
         1 001717   000001 116000 xsym               CMPQ    B_VECTNIL+1
         1 001720   001724 601000 1                  TNZ     s:10754

     1012    10752    3                 IT$BLOCK_EXPR.OPTIONS.STRUCTURE$ =

  10752  1 001721   200021 471500                    LDP1    NAME_DESC$,,AUTO
         1 001722   100025 236100                    LDQ     21,,PR1
         1 001723   000030 756100                    STQ     24,,PR0

PL6.E3A0      #001=VDE$PBLOCK_EXPR File=VDE$PARSE.:VDA5TSI                       FRI 07/04/97 11:13 Page:137
     1013    10753    3                   NAME$DESC.OPTIONS.STRUCTURE$;
     1014    10754    3              IF IT$BLOCK_EXPR.OPTIONS.LEVEL# = 0 THEN

  10754  1 001724   000031 220100                    LDX0    25,,PR0
         1 001725   001731 601000 1                  TNZ     s:10756

     1015    10755    3                 IT$BLOCK_EXPR.OPTIONS.LEVEL# = NAME$DESC.OPTIONS.LEVEL#;

  10755  1 001726   200021 471500                    LDP1    NAME_DESC$,,AUTO
         1 001727   100026 221100                    LDX1    22,,PR1
         1 001730   000031 741100                    STX1    25,,PR0

     1016    10756    3              IF IT$BLOCK_EXPR.OPTIONS.COMPONENT# = 0 THEN

  10756  1 001731   000031 720100                    LXL0    25,,PR0
         1 001732   001736 601000 1                  TNZ     s:10759

     1017    10757    3                 IT$BLOCK_EXPR.OPTIONS.COMPONENT# =

  10757  1 001733   200021 471500                    LDP1    NAME_DESC$,,AUTO
         1 001734   100026 721100                    LXL1    22,,PR1
         1 001735   000031 441100                    SXL1    25,,PR0

     1018    10758    3                   NAME$DESC.OPTIONS.COMPONENT#;
     1019    10759    3              IF IT$BLOCK_EXPR.OPTIONS.PROTECT# = 0 THEN

  10759  1 001736   000032 220100                    LDX0    26,,PR0
         1 001737   001743 601000 1                  TNZ     s:10761

     1020    10760    3                 IT$BLOCK_EXPR.OPTIONS.PROTECT# = NAME$DESC.OPTIONS.PROTECT#;

  10760  1 001740   200021 471500                    LDP1    NAME_DESC$,,AUTO
         1 001741   100027 221100                    LDX1    23,,PR1
         1 001742   000032 741100                    STX1    26,,PR0

     1021    10761    3              IF IT$BLOCK_EXPR.OPTIONS.EXIST# = 0 THEN

PL6.E3A0      #001=VDE$PBLOCK_EXPR File=VDE$PARSE.:VDA5TSI                       FRI 07/04/97 11:13 Page:138
  10761  1 001743   000032 720100                    LXL0    26,,PR0
         1 001744   001754 601000 1                  TNZ     s:10769

     1022    10762    3                 IT$BLOCK_EXPR.OPTIONS.EXIST# = NAME$DESC.OPTIONS.EXIST#;

  10762  1 001745   200021 471500                    LDP1    NAME_DESC$,,AUTO
         1 001746   100027 721100                    LXL1    23,,PR1
         1 001747   000032 441100                    SXL1    26,,PR0
         1 001750   001754 710000 1                  TRA     s:10769

     1023    10763
     1024    10764    3            CASE (ELSE);

     1025    10765    3              CALL VDG$ESCREECH;

  10765  1 001751   000002 631400 xsym               EPPR1   B_VECTNIL+2
         1 001752   000000 701000 xent               TSX1    VDG$ESCREECH
         1 001753   000000 011000                    NOP     0

     1026    10766    3            END;

     1027    10767
     1028    10768                /* We've successfully processed the CHILD_INDEX node */
     1029    10769    2           CHILD_INDEX = CHILD_INDEX + 1;

  10769  1 001754   200013 054100                    AOS     CHILD_INDEX,,AUTO

     1030    10770
     1031    10771                /*
     1032    10772                *   Link IT$OPERAND into the InTree.
     1033    10773                */
     1034    10774
     1035    10775    2           CALL GUAR_LAST_ADJUST

  10775  1 001755   003627 701000 1                  TSX1    GUAR_LAST_ADJUST
         1 001756   002003 702000 1                  TSX2    PREAD_LO_NAME_FAILED

PL6.E3A0      #001=VDE$PBLOCK_EXPR File=VDE$PARSE.:VDA5TSI                       FRI 07/04/97 11:13 Page:139
     1036    10776    2             ALTRET (GUAR_LAST_ADJUST_FAILED);
     1037    10777    2           IT$OPERAND.PARENT$ = LAST_ADJUST$;

  10777  1 001757   200010 236100                    LDQ     LAST_ADJUST$,,AUTO
         1 001760   200024 470500                    LDP0    IT_OPERAND$,,AUTO
         1 001761   000001 756100                    STQ     1,,PR0

     1038    10778                /* LAST_MOVEMENT$ should be ADDR(NIL) */
     1039    10779    2           LAST_MOVEMENT$ = IT_OPERAND$;

  10779  1 001762   200024 236100                    LDQ     IT_OPERAND$,,AUTO
         1 001763   200011 756100                    STQ     LAST_MOVEMENT$,,AUTO

     1040    10780    2           LAST$ADJUST.MOVEMENTS$ = IT_OPERAND$;

  10780  1 001764   200010 471500                    LDP1    LAST_ADJUST$,,AUTO
         1 001765   100004 756100                    STQ     4,,PR1

     1041    10781    2           LAST$ADJUST.MOVEMENTS_TAIL$ = IT_OPERAND$;

  10781  1 001766   100005 756100                    STQ     5,,PR1

     1042    10782
     1043    10783    2           RETURN;

  10783  1 001767   200020 221300                    LDX1  ! T$+2,,AUTO
         1 001770   000001 702211                    TSX2  ! 1,X1

     1044    10784
     1045    10785
     1046    10786
     1047    10787    2   PFILE_TO_EDIT_FAILED:
     1048    10788    2           LAST$ERR.CMDLINE_INDEX# = CHILD.CPOS;

  10788  1 001771   200014 470500       PFILE_TO_ED* LDP0    CHILD$,,AUTO
         1 001772   000002 720100                    LXL0    2,,PR0
         1 001773   000032 471400 xsym               LDP1    VD_6E+26
PL6.E3A0      #001=VDE$PBLOCK_EXPR File=VDE$PARSE.:VDA5TSI                       FRI 07/04/97 11:13 Page:140
         1 001774   100003 440100                    SXL0    3,,PR1

     1049    10789    2           CALL VDG$OFREE (IT$OPERAND)

  10789  1 001775   200024 630500                    EPPR0   IT_OPERAND$,,AUTO
         1 001776   000017 631400 xsym               EPPR1   B_VECTNIL+15
         1 001777   000000 701000 xent               TSX1    VDG$OFREE
         1 002000   002003 702000 1                  TSX2    PREAD_LO_NAME_FAILED

     1050    10790    2             ALTRET (OFREE_FAILED);
     1051    10791    2           ALTRETURN;

  10791  1 002001   200020 221300                    LDX1  ! T$+2,,AUTO
         1 002002   000000 702211                    TSX2  ! 0,X1

  10781  1 002003                       PREAD_LO_NA* null
  10781  1 002003                       OALLOC_FAIL* null
  10781  1 002003                       OFREE_FAILED null
  10781  1 002003                       OCOPY_FAILED null
  10781  1 002003                       OCOPY_RANGE* null
  10781  1 002003                       GUAR_LAST_A* null
     1052    10792
     1053    10793
     1054    10794    2   PREAD_LO_NAME_FAILED: ;
     1055    10795    2   OALLOC_FAILED: ;
     1056    10796    2   OFREE_FAILED: ;
     1057    10797    2   OCOPY_FAILED: ;
     1058    10798    2   OCOPY_RANGE_FAILED: ;
     1059    10799    2   GUAR_LAST_ADJUST_FAILED: ;
     1060    10800    2           ALTRETURN;

  10800  1 002003   200020 221300                    LDX1  ! T$+2,,AUTO
         1 002004   000000 702211                    TSX2  ! 0,X1

     1061    10801
     1062    10802    2   END DOMAIN_OPERAND;
     1063    10803
PL6.E3A0      #001=VDE$PBLOCK_EXPR File=VDE$PARSE.:VDA5TSI                       FRI 07/04/97 11:13 Page:141
     1064    10804        %BOX (TITLE=SELECT_CLAUSE, PAGE=YES);
             10812    2
             10816    2   /***************************************************************************
             10818    2    *                                                                         *
             10822    2            *                               SELECT_CLAUSE                            *
             10824    2            *                                                                        *
             10826    2          ***************************************************************************/

     1065    10830
     1066    10831        /*I* NAME: SELECT_CLAUSE
     1067    10832            PARAMETERS:
     1068    10833                None.
     1069    10834            INPUT:
     1070    10835                CHILD_INDEX refers to the next child of PT_BLOCK_EXPR to
     1071    10836                    process.
     1072    10837                IT$BLOCK_EXPR must exist.
     1073    10838                LAST_SELECT$, LAST_ADJUST$, and LAST_MOVEMENT$ must point
     1074    10839                    to the last nodes at the SELECT, ADJUST, and movement_expr
     1075    10840                    levels of the InTree.  Each should be NIL if there are no
     1076    10841                    nodes at that level.
     1077    10842            OUTPUT:
     1078    10843                If the CHILD_INDEX child is a T_SELECT_CLAUSE node:
     1079    10844                    A new IT_SELECT node will be allocated an attached to
     1080    10845                        the InTree.
     1081    10846                    LAST_SELECT$ will be updated to point to the new node.
     1082    10847                    LAST_ADJUST$ and LAST_MOVEMENT$ will be NIL'd.
     1083    10848                    CHILD_INDEX will be incremented beyond the processed nodes.
     1084    10849            SCRATCH:
     1085    10850                CHILD$, CHILD.
     1086    10851            DESCRIPTION:
     1087    10852                If the CHILD_INDEX node is a T_SELECT_CLAUSE node,
     1088    10853                allocate a new IT_SELECT node and link it into the InTree.
     1089    10854                If the T_SELECT_CLAUSE node has a T_REPEAT node as a child,
     1090    10855                set the appropriate flag in the new IT_SELECT node.
     1091    10856        */
     1092    10857
     1093    10858    1   SELECT_CLAUSE: PROC ALTRET;
PL6.E3A0      #001=VDE$PBLOCK_EXPR File=VDE$PARSE.:VDA5TSI                       FRI 07/04/97 11:13 Page:142

  10858  1 002005   200020 741300       SELECT_CLAU* STX1  ! T$+2,,AUTO

     1094    10859
     1095    10860
     1096    10861    2   DCL RPT_COUNT SBIN;
     1097    10862
     1098    10863
     1099    10864
     1100    10865    2           IF CHILD_INDEX >= PT_BLOCK_EXPR.NSUBLKS THEN

  10865  1 002006   200003 470500                    LDP0    @PT_BLOCK_EXPR,,AUTO
         1 002007   000001 236100                    LDQ     1,,PR0
         1 002010   000022 772000                    QRL     18
         1 002011   200013 116100                    CMPQ    CHILD_INDEX,,AUTO
         1 002012   002014 605400 1                  TPNZ    s:10867

     1101    10866    2              RETURN;

  10866  1 002013   000001 702211                    TSX2  ! 1,X1

     1102    10867    2           CHILD$ = PT_BLOCK_EXPR.SUBLK$ (CHILD_INDEX);

  10867  1 002014   200013 720100                    LXL0    CHILD_INDEX,,AUTO
         1 002015   000003 236110                    LDQ     3,X0,PR0
         1 002016   200014 756100                    STQ     CHILD$,,AUTO

     1103    10868    2           IF CHILD.CODE ~= %T_SELECT_CLAUSE THEN

  10868  1 002017   200014 471500                    LDP1    CHILD$,,AUTO
         1 002020   100000 722100                    LXL2    0,,PR1
         1 002021   002020 102003                    CMPX2   1040,DU
         1 002022   002024 600000 1                  TZE     s:10871

     1104    10869    2              RETURN;

  10869  1 002023   000001 702211                    TSX2  ! 1,X1
PL6.E3A0      #001=VDE$PBLOCK_EXPR File=VDE$PARSE.:VDA5TSI                       FRI 07/04/97 11:13 Page:143

     1105    10870
     1106    10871    2           CALL ALLOC_IT_SELECT

  10871  1 002024   003721 701000 1                  TSX1    ALLOC_IT_SELECT
         1 002025   002076 702000 1                  TSX2    ALLOC_IT_SELECT_FAILED

     1107    10872    2             ALTRET (ALLOC_IT_SELECT_FAILED);
     1108    10873
     1109    10874    2           IF CHILD.NSUBLKS = 0 THEN

  10874  1 002026   200014 470500                    LDP0    CHILD$,,AUTO
         1 002027   000001 220100                    LDX0    1,,PR0
         1 002030   002035 601000 1                  TNZ     s:10878

     1110    10875    2              LAST$SELECT.RPT_COUNT# = 1;

  10875  1 002031   000001 221003                    LDX1    1,DU
         1 002032   200007 471500                    LDP1    LAST_SELECT$,,AUTO
         1 002033   100003 441100                    SXL1    3,,PR1
         1 002034   002063 710000 1                  TRA     s:10897

     1111    10876    3           ELSE DO;

     1112    10877                   /* Got some sort of repetition */
     1113    10878    3              IF CHILD.SUBLK$ (0) -> CHILD.NSUBLKS = 0 THEN

  10878  1 002035   000003 471500                    LDP1    3,,PR0
         1 002036   100001 221100                    LDX1    1,,PR1
         1 002037   002044 601000 1                  TNZ     s:10881

     1114    10879    3                 LAST$SELECT.RPT_ALL = %TRUE;

  10879  1 002040   200007 473500                    LDP3    LAST_SELECT$,,AUTO
         1 002041   400000 236003                    LDQ     -131072,DU
         1 002042   300003 256100                    ORSQ    3,,PR3
         1 002043   002063 710000 1                  TRA     s:10897
PL6.E3A0      #001=VDE$PBLOCK_EXPR File=VDE$PARSE.:VDA5TSI                       FRI 07/04/97 11:13 Page:144

     1115    10880    4              ELSE DO;

     1116    10881    4                 CALL VDE$PNUMBER (CHILD.SUBLK$ (0) ->

  10881  1 002044   100003 473500                    LDP3    3,,PR1
         1 002045   200021 634500                    EPPR4   RPT_COUNT,,AUTO
         1 002046   200061 454500                    STP4    NEW_SELECT$+2,,AUTO
         1 002047   200060 453500                    STP3    NEW_SELECT$+1,,AUTO
         1 002050   200060 630500                    EPPR0   NEW_SELECT$+1,,AUTO
         1 002051   000020 631400 xsym               EPPR1   B_VECTNIL+16
         1 002052   000000 701000 xent               TSX1    VDE$PNUMBER
         1 002053   002076 702000 1                  TSX2    ALLOC_IT_SELECT_FAILED

     1117    10882    4                   CHILD.SUBLK$ (0) -> CHILD, RPT_COUNT)
     1118    10883    4                   ALTRET (PNUMBER_FAILED);
     1119    10884    4                 IF RPT_COUNT < %MN_REPEAT_COUNT

  10884  1 002054   200021 235100                    LDA     RPT_COUNT,,AUTO
         1 002055   002066 604000 1                  TMI     RPT_COUNT_NOT_IN_RANGE_FAILURE
         1 002056   377777 115007                    CMPA    131071,DL
         1 002057   002066 605400 1                  TPNZ    RPT_COUNT_NOT_IN_RANGE_FAILURE

     1120    10885    4                   OR RPT_COUNT > %MX_REPEAT_COUNT THEN
     1121    10886    4                    GOTO RPT_COUNT_NOT_IN_RANGE_FAILURE;
     1122    10887    4                 LAST$SELECT.RPT_COUNT# = RPT_COUNT;

  10887  1 002060   000000 620005                    EAX0    0,AL
         1 002061   200007 470500                    LDP0    LAST_SELECT$,,AUTO
         1 002062   000003 440100                    SXL0    3,,PR0

     1123    10888    4                 END;

     1124    10889    3              END;

     1125    10890
     1126    10891        /*??*    IF NOT LAST$SELECT.RPT_ALL#                                 */
PL6.E3A0      #001=VDE$PBLOCK_EXPR File=VDE$PARSE.:VDA5TSI                       FRI 07/04/97 11:13 Page:145
     1127    10892        /*??*      AND IT$BLOCK_EXPR.SELECT$ = LAST_SELECT$ THEN DO;         */
     1128    10893        /*??*       CALL ATTACH_HERE_TO_SELECT (LAST$SELECT)                 */
     1129    10894        /*??*         ALTRET (ATTACH_HERE_TO_SELECT_FAILED);                 */
     1130    10895        /*??*       END;                                                     */
     1131    10896
     1132    10897    2           CHILD_INDEX = CHILD_INDEX + 1;

  10897  1 002063   200013 054100                    AOS     CHILD_INDEX,,AUTO

     1133    10898
     1134    10899    2           RETURN;

  10899  1 002064   200020 221300                    LDX1  ! T$+2,,AUTO
         1 002065   000001 702211                    TSX2  ! 1,X1

     1135    10900
     1136    10901
     1137    10902    2   RPT_COUNT_NOT_IN_RANGE_FAILURE:
     1138    10903    3           CALL VDG$ERRMSG (%E$REPEAT_COUNT_NOT_IN_RANGE) WHENRETURN DO;

  10903  1 002066   000035 630400 2     RPT_COUNT_N* EPPR0   29
         1 002067   000017 631400 xsym               EPPR1   B_VECTNIL+15
         1 002070   000000 701000 xent               TSX1    VDG$ERRMSG
         1 002071   002076 702000 1                  TSX2    ALLOC_IT_SELECT_FAILED

     1139    10904    3              LAST$ERR.CMDLINE_INDEX# = CHILD.CPOS;

  10904  1 002072   200014 470500                    LDP0    CHILD$,,AUTO
         1 002073   000002 720100                    LXL0    2,,PR0
         1 002074   000032 471400 xsym               LDP1    VD_6E+26
         1 002075   100003 440100                    SXL0    3,,PR1

     1140    10905    3              END;

  10897  1 002076                       ALLOC_IT_SE* null
  10897  1 002076                       PNUMBER_FAI* null
  10897  1 002076                       OALLOC_FAIL* null
PL6.E3A0      #001=VDE$PBLOCK_EXPR File=VDE$PARSE.:VDA5TSI                       FRI 07/04/97 11:13 Page:146
     1141    10906
     1142    10907
     1143    10908    2   ALLOC_IT_SELECT_FAILED: ;
     1144    10909    2   PNUMBER_FAILED: ;
     1145    10910    2   OALLOC_FAILED: ;
     1146    10911    2           ALTRETURN;

  10911  1 002076   200020 221300                    LDX1  ! T$+2,,AUTO
         1 002077   000000 702211                    TSX2  ! 0,X1

     1147    10912
     1148    10913    2   END SELECT_CLAUSE;
     1149    10914
     1150    10915        %BOX (TITLE=ADJUST_LIST, PAGE=YES);
             10923    2
             10927    2   /***************************************************************************
             10929    2    *                                                                         *
             10933    2            *                                ADJUST_LIST                             *
             10935    2            *                                                                        *
             10937    2          ***************************************************************************/

     1151    10941
     1152    10942        /*I* NAME: ADJUST_LIST
     1153    10943            PARAMETERS:
     1154    10944                None.
     1155    10945            INPUT:
     1156    10946                CHILD_INDEX refers to the next child of PT_BLOCK_EXPR to
     1157    10947                    process.
     1158    10948                IT$BLOCK_EXPR must exist.
     1159    10949                LAST_SELECT$, LAST_ADJUST$, and LAST_MOVEMENT$ must point
     1160    10950                    to the last nodes at the SELECT, ADJUST, and movement_expr
     1161    10951                    levels of the InTree.  Each should be NIL if there are no
     1162    10952                    nodes at that level.
     1163    10953            OUTPUT:
     1164    10954                If the CHILD_INDEX child is a T_THRU or T_ADJUST node:
     1165    10955                    A new IT_ADJUST node will be allocated an attached to
     1166    10956                        the InTree.
PL6.E3A0      #001=VDE$PBLOCK_EXPR File=VDE$PARSE.:VDA5TSI                       FRI 07/04/97 11:13 Page:147
     1167    10957                    LAST_ADJUST$ will be updated to point to the new node.
     1168    10958                    IT_OPERAND, IT_OPERATOR, and IT_COMMAND nodes may also
     1169    10959                        be attached to the InTree.
     1170    10960                    LAST_MOVEMENT$ will be NIL'd.
     1171    10961                    CHILD_INDEX will be incremented beyond the processed nodes.
     1172    10962            SCRATCH:
     1173    10963                CHILD$, CHILD.
     1174    10964            DESCRIPTION:
     1175    10965                If the CHILD_INDEX node is a T_THRU or T_ADJUST node,
     1176    10966                allocate a new IT_ADJUST node and link it into the InTree.
     1177    10967                For T_THRU, set VD$IT_ADJUST.NEW_STATE# to %EVST_END.
     1178    10968                For T_ADJUST, set VD$IT_ADJUST.NEW_STATE# to %EVST_TOGGLE.
     1179    10969                Process all T_MOVEMENT nodes following the THRU/ADJUST node.
     1180    10970        */
     1181    10971
     1182    10972    1   ADJUST_LIST: PROC ALTRET;

  10972  1 002100   200020 741300       ADJUST_LIST  STX1  ! T$+2,,AUTO

     1183    10973
     1184    10974
     1185    10975    2           IF CHILD_INDEX >= PT_BLOCK_EXPR.NSUBLKS THEN

  10975  1 002101   200003 470500                    LDP0    @PT_BLOCK_EXPR,,AUTO
         1 002102   000001 236100                    LDQ     1,,PR0
         1 002103   000022 772000                    QRL     18
         1 002104   200013 116100                    CMPQ    CHILD_INDEX,,AUTO
         1 002105   002107 605400 1                  TPNZ    s:10977

     1186    10976    2              RETURN;

  10976  1 002106   000001 702211                    TSX2  ! 1,X1

     1187    10977    2           CHILD$ = PT_BLOCK_EXPR.SUBLK$ (CHILD_INDEX);

  10977  1 002107   200013 720100                    LXL0    CHILD_INDEX,,AUTO
         1 002110   000003 236110                    LDQ     3,X0,PR0
PL6.E3A0      #001=VDE$PBLOCK_EXPR File=VDE$PARSE.:VDA5TSI                       FRI 07/04/97 11:13 Page:148
         1 002111   200014 756100                    STQ     CHILD$,,AUTO

     1188    10978    2           IF CHILD.CODE ~= %T_THRU AND CHILD.CODE ~= %T_ADJUST THEN

  10978  1 002112   200014 471500                    LDP1    CHILD$,,AUTO
         1 002113   100000 722100                    LXL2    0,,PR1
         1 002114   002022 102003                    CMPX2   1042,DU
         1 002115   002121 600000 1                  TZE     s:10981
         1 002116   002023 102003                    CMPX2   1043,DU
         1 002117   002121 600000 1                  TZE     s:10981

     1189    10979    2              RETURN;

  10979  1 002120   000001 702211                    TSX2  ! 1,X1

     1190    10980
     1191    10981    2           CALL GUAR_LAST_SELECT

  10981  1 002121   003643 701000 1                  TSX1    GUAR_LAST_SELECT
         1 002122   002145 702000 1                  TSX2    GUAR_LAST_SELECT_FAILED

     1192    10982    2             ALTRET (GUAR_LAST_SELECT_FAILED);
     1193    10983    2           CALL ALLOC_IT_ADJUST

  10983  1 002123   003660 701000 1                  TSX1    ALLOC_IT_ADJUST
         1 002124   002145 702000 1                  TSX2    GUAR_LAST_SELECT_FAILED

     1194    10984    2             ALTRET (ALLOC_IT_ADJUST_FAILED);
     1195    10985    2           IF CHILD.CODE = %T_THRU THEN

  10985  1 002125   200014 470500                    LDP0    CHILD$,,AUTO
         1 002126   000000 720100                    LXL0    0,,PR0
         1 002127   002022 100003                    CMPX0   1042,DU
         1 002130   002135 601000 1                  TNZ     s:10988

     1196    10986    2              LAST$ADJUST.NEW_STATE# = %EVST_END;

PL6.E3A0      #001=VDE$PBLOCK_EXPR File=VDE$PARSE.:VDA5TSI                       FRI 07/04/97 11:13 Page:149
  10986  1 002131   000003 221003                    LDX1    3,DU
         1 002132   200010 471500                    LDP1    LAST_ADJUST$,,AUTO
         1 002133   100003 741100                    STX1    3,,PR1
         1 002134   002140 710000 1                  TRA     s:10990

     1197    10987    2           ELSE
     1198    10988    2              LAST$ADJUST.NEW_STATE# = %EVST_TOGGLE;

  10988  1 002135   000004 221003                    LDX1    4,DU
         1 002136   200010 471500                    LDP1    LAST_ADJUST$,,AUTO
         1 002137   100003 741100                    STX1    3,,PR1

     1199    10989
     1200    10990    2           CHILD_INDEX = CHILD_INDEX + 1;

  10990  1 002140   200013 054100                    AOS     CHILD_INDEX,,AUTO

     1201    10991
     1202    10992    2           CALL MOVEMENTS

  10992  1 002141   002147 701000 1                  TSX1    MOVEMENTS
         1 002142   002145 702000 1                  TSX2    GUAR_LAST_SELECT_FAILED

     1203    10993    2             ALTRET (MOVEMENTS_FAILED);
     1204    10994
     1205    10995    2           RETURN;

  10995  1 002143   200020 221300                    LDX1  ! T$+2,,AUTO
         1 002144   000001 702211                    TSX2  ! 1,X1

  10990  1 002145                       GUAR_LAST_S* null
  10990  1 002145                       ALLOC_IT_AD* null
  10990  1 002145                       MOVEMENTS_F* null
     1206    10996
     1207    10997
     1208    10998
     1209    10999    2   GUAR_LAST_SELECT_FAILED: ;
PL6.E3A0      #001=VDE$PBLOCK_EXPR File=VDE$PARSE.:VDA5TSI                       FRI 07/04/97 11:13 Page:150
     1210    11000    2   ALLOC_IT_ADJUST_FAILED: ;
     1211    11001    2   MOVEMENTS_FAILED: ;
     1212    11002    2           ALTRETURN;

  11002  1 002145   200020 221300                    LDX1  ! T$+2,,AUTO
         1 002146   000000 702211                    TSX2  ! 0,X1

     1213    11003
     1214    11004    2   END ADJUST_LIST;
     1215    11005
     1216    11006        %BOX (TITLE=MOVEMENTS, PAGE=YES);
             11014    2
             11018    2   /***************************************************************************
             11020    2    *                                                                         *
             11024    2            *                                 MOVEMENTS                              *
             11026    2            *                                                                        *
             11028    2          ***************************************************************************/

     1217    11032
     1218    11033        /*I* NAME: MOVEMENTS
     1219    11034            PARAMETERS:
     1220    11035                None.
     1221    11036            INPUT:
     1222    11037                CHILD_INDEX refers to the next child of PT_BLOCK_EXPR to
     1223    11038                    process.
     1224    11039                CURR$WINDOW must be the current editing VD$WINDOW_SPEC.
     1225    11040                EDIT$BLOCK must be the VD$BLOCK_DESC for the current
     1226    11041                    EditBlock.  If none, CURR$WINDOW.OPERAND.EDIT_BLOCK$ must
     1227    11042                    be NIL.
     1228    11043                IT$BLOCK_EXPR must exist.
     1229    11044                LAST_SELECT$, LAST_ADJUST$, and LAST_MOVEMENT$ must point
     1230    11045                    to the last nodes at the SELECT, ADJUST, and movement_expr
     1231    11046                    levels of the InTree.  Each should be NIL if there are no
     1232    11047                    nodes at that level.
     1233    11048            OUTPUT:
     1234    11049                If the CHILD_INDEX node is a T_MOVEMENT or T_LO_NAME node:
     1235    11050                    One or more IT_OPERAND, IT_OPERATOR, and/or IT_COMMAND
PL6.E3A0      #001=VDE$PBLOCK_EXPR File=VDE$PARSE.:VDA5TSI                       FRI 07/04/97 11:13 Page:151
     1236    11051                        nodes will be attached to IT$BLOCK_EXPR.  If none
     1237    11052                        yet, an IT_SELECT node and an IT_ADJUST node
     1238    11053                        will be attached also.
     1239    11054                    LAST_MOVEMENT$ will be updated to point to the last of
     1240    11055                        the added nodes.
     1241    11056                CHILD_INDEX will be incremented beyond the processed nodes.
     1242    11057            SCRATCH:
     1243    11058                CHILD$, CHILD.
     1244    11059            DESCRIPTION:
     1245    11060                At entry, the CHILD_INDEX child may be either a T_MOVEMENT
     1246    11061                    node or a PLO_NAME node; it'll be PLO_NAME if a
     1247    11062                    Location-name was given as the first item in a block
     1248    11063                    expression (and so looked like a domain operand) but
     1249    11064                    the value of the name didn't specify a new domain.
     1250    11065                    Processing of such a Location-name would be deferred
     1251    11066                    for handling by this routine since it really is just
     1252    11067                    an absolute movement operand, not a domain operand.
     1253    11068                Loop while the CHILD_INDEX child is a T_MOVEMENT node:
     1254    11069                The T_MOVEMENT node must have from one to four children:
     1255    11070
     1256    11071                                    MOVEMENT
     1257    11072                                       |
     1258    11073                 --------------------------------------------
     1259    11074                 |            |      |                      |
     1260    11075                SKIP       FORWARD   AO        NUMERIC_KEY <INTEGER,FRACT>
     1261    11076                 |           or      or                     or
     1262    11077            STRING_EXPR   BACKWARD   BO   STRING_KEY <STRING_EXPR <XUE_EXP#> >
     1263    11078                 |                   or                     or
     1264    11079              XUE_EXP#               EO                LEVEL_NAME
     1265    11080                                                            or
     1266    11081                                                        POSITIONS
     1267    11082                                                            or
     1268    11083                                                   POSITIONS <.Decimal>
     1269    11084                                                            or
     1270    11085                                           POSITIONS <STRING_EXPR <XUE_EXP#> >
     1271    11086                                                            or
     1272    11087                                                     PATTERN <.Dstring>
PL6.E3A0      #001=VDE$PBLOCK_EXPR File=VDE$PARSE.:VDA5TSI                       FRI 07/04/97 11:13 Page:152
     1273    11088                                                            or
     1274    11089                                             PATTERN <STRING_EXPR <XUE_EXP#> >
     1275    11090                                                            or
     1276    11091                                                    LO_NAME <.symbol>
     1277    11092
     1278    11093                The first three children may appear in any order, and each
     1279    11094                    is optional.  The last child must appear and must be the
     1280    11095                    last child of the T_MOVEMENT node.
     1281    11096                For NUMERIC_KEY, either one or both children may be present.
     1282    11097                For the remainder, all children shown are mandatory.
     1283    11098
     1284    11099                This routine processes any number of successive T_MOVEMENT nodes.
     1285    11100        */
     1286    11101
     1287    11102    1   MOVEMENTS: PROC ALTRET;

  11102  1 002147   200022 741300       MOVEMENTS    STX1  ! NAME_FILE_KEY$,,AUTO

     1288    11103
     1289    11104
     1290    11105    2   DCL IT_OPERAND$ PTR;
     1291    11106        %VD$EVAL_OPTIONS (NAME=EVAL_OPTIONS, STCLASS=AUTO);
     1292    11121    2   DCL SRCH_SEEN BIT(1) ALIGNED;
     1293    11122    2   DCL SKIP_SEEN BIT(1) ALIGNED;
     1294    11123
     1295    11124
     1296    11125        %VD$IT_OPERAND (NAME=IT$OPERAND, STCLASS="BASED(IT_OPERAND$)");
     1297    11191        %PARSE$OUT (NAME=OUT$BLK, STCLASS=BASED);
     1298    11236        %PARSE$SYM (NAME=OUT$SYM, STCLASS=BASED);
     1299    11274
     1300    11275
     1301    11276
     1302    11277    2           IF CHILD_INDEX >= PT_BLOCK_EXPR.NSUBLKS THEN

  11277  1 002150   200003 470500                    LDP0    @PT_BLOCK_EXPR,,AUTO
         1 002151   000001 236100                    LDQ     1,,PR0
         1 002152   000022 772000                    QRL     18
PL6.E3A0      #001=VDE$PBLOCK_EXPR File=VDE$PARSE.:VDA5TSI                       FRI 07/04/97 11:13 Page:153
         1 002153   200013 116100                    CMPQ    CHILD_INDEX,,AUTO
         1 002154   002156 605400 1                  TPNZ    s:11280

     1303    11278    2              RETURN;

  11278  1 002155   000001 702211                    TSX2  ! 1,X1

     1304    11279
     1305    11280    2           CHILD$ = PT_BLOCK_EXPR.SUBLK$ (CHILD_INDEX);

  11280  1 002156   200013 720100                    LXL0    CHILD_INDEX,,AUTO
         1 002157   000003 236110                    LDQ     3,X0,PR0
         1 002160   200014 756100                    STQ     CHILD$,,AUTO

     1306    11281    3           IF CHILD.CODE = %T_LO_NAME THEN DO;

  11281  1 002161   200014 471500                    LDP1    CHILD$,,AUTO
         1 002162   100000 722100                    LXL2    0,,PR1
         1 002163   002047 102003                    CMPX2   1063,DU
         1 002164   002177 601000 1                  TNZ     EACH_MOVEMENT

     1307    11282    3              EVAL_OPTIONS = %CLEAR;

  11282  1 002165   000000 235003                    LDA     0,DU
         1 002166   000000 236003                    LDQ     0,DU
         1 002167   200024 757100                    STAQ    EVAL_OPTIONS,,AUTO

     1308    11283    3              SRCH_SEEN = %FALSE;

  11283  1 002170   200026 450100                    STZ     SRCH_SEEN,,AUTO

     1309    11284    3              SKIP_SEEN = %FALSE;

  11284  1 002171   200027 450100                    STZ     SKIP_SEEN,,AUTO

     1310    11285    3              CALL MOVEMENT_OPERAND (CHILD)

PL6.E3A0      #001=VDE$PBLOCK_EXPR File=VDE$PARSE.:VDA5TSI                       FRI 07/04/97 11:13 Page:154
  11285  1 002172   200014 236100                    LDQ     CHILD$,,AUTO
         1 002173   200031 756100                    STQ     STRING_LOC+1,,AUTO
         1 002174   002423 701000 1                  TSX1    MOVEMENT_OPERAND
         1 002175   002243 702000 1                  TSX2    MOVEMENT_OPTIONS_FAILED

     1311    11286    3                ALTRET (MOVEMENT_OPERAND_FAILED);
     1312    11287    3              CHILD_INDEX = CHILD_INDEX + 1;

  11287  1 002176   200013 054100                    AOS     CHILD_INDEX,,AUTO

     1313    11288    3              END;

     1314    11289
     1315    11290    2   EACH_MOVEMENT:
     1316    11291    3           DO WHILE CHILD_INDEX < PT_BLOCK_EXPR.NSUBLKS;

  11291  1 002177   200003 470500       EACH_MOVEME* LDP0    @PT_BLOCK_EXPR,,AUTO
         1 002200   000001 236100                    LDQ     1,,PR0
         1 002201   000022 772000                    QRL     18
         1 002202   200013 116100                    CMPQ    CHILD_INDEX,,AUTO
         1 002203   002241 604400 1                  TMOZ    s:11305

     1317    11292    3              CHILD$ = PT_BLOCK_EXPR.SUBLK$ (CHILD_INDEX);

  11292  1 002204   200003 470500                    LDP0    @PT_BLOCK_EXPR,,AUTO
         1 002205   200013 720100                    LXL0    CHILD_INDEX,,AUTO
         1 002206   000003 236110                    LDQ     3,X0,PR0
         1 002207   200014 756100                    STQ     CHILD$,,AUTO

     1318    11293    3              IF CHILD.CODE ~= %T_MOVEMENT THEN

  11293  1 002210   200014 471500                    LDP1    CHILD$,,AUTO
         1 002211   100000 721100                    LXL1    0,,PR1
         1 002212   002030 101003                    CMPX1   1048,DU
         1 002213   002241 601000 1                  TNZ     s:11305

     1319    11294    3                 EXIT EACH_MOVEMENT;
PL6.E3A0      #001=VDE$PBLOCK_EXPR File=VDE$PARSE.:VDA5TSI                       FRI 07/04/97 11:13 Page:155
     1320    11295    3              EVAL_OPTIONS = %CLEAR;

  11295  1 002214   000000 235003                    LDA     0,DU
         1 002215   000000 236003                    LDQ     0,DU
         1 002216   200024 757100                    STAQ    EVAL_OPTIONS,,AUTO

     1321    11296    3              SRCH_SEEN = %FALSE;

  11296  1 002217   200026 450100                    STZ     SRCH_SEEN,,AUTO

     1322    11297    3              SKIP_SEEN = %FALSE;

  11297  1 002220   200027 450100                    STZ     SKIP_SEEN,,AUTO

     1323    11298    3              CALL MOVEMENT_OPTIONS (CHILD)

  11298  1 002221   200014 236100                    LDQ     CHILD$,,AUTO
         1 002222   200031 756100                    STQ     STRING_LOC+1,,AUTO
         1 002223   002245 701000 1                  TSX1    MOVEMENT_OPTIONS
         1 002224   002243 702000 1                  TSX2    MOVEMENT_OPTIONS_FAILED

     1324    11299    3                ALTRET (MOVEMENT_OPTIONS_FAILED);
     1325    11300    3              CALL MOVEMENT_OPERAND (CHILD.SUBLK$ (CHILD.NSUBLKS-1) -> OUT$BLK)

  11300  1 002225   200014 470500                    LDP0    CHILD$,,AUTO
         1 002226   000001 220100                    LDX0    1,,PR0
         1 002227   000002 471510                    LDP1    2,X0,PR0
         1 002230   200031 451500                    STP1    STRING_LOC+1,,AUTO
         1 002231   002423 701000 1                  TSX1    MOVEMENT_OPERAND
         1 002232   002243 702000 1                  TSX2    MOVEMENT_OPTIONS_FAILED

     1326    11301    3                ALTRET (MOVEMENT_OPERAND_FAILED);
     1327    11302    3              CHILD_INDEX = CHILD_INDEX + 1;

  11302  1 002233   200013 054100                    AOS     CHILD_INDEX,,AUTO

     1328    11303    3              END EACH_MOVEMENT;
PL6.E3A0      #001=VDE$PBLOCK_EXPR File=VDE$PARSE.:VDA5TSI                       FRI 07/04/97 11:13 Page:156

  11303  1 002234   200003 470500                    LDP0    @PT_BLOCK_EXPR,,AUTO
         1 002235   000001 236100                    LDQ     1,,PR0
         1 002236   000022 772000                    QRL     18
         1 002237   200013 116100                    CMPQ    CHILD_INDEX,,AUTO
         1 002240   002204 605400 1                  TPNZ    s:11292

     1329    11304
     1330    11305    2           RETURN;

  11305  1 002241   200022 221300                    LDX1  ! NAME_FILE_KEY$,,AUTO
         1 002242   000001 702211                    TSX2  ! 1,X1

  11300  1 002243                       MOVEMENT_OP* null
  11300  1 002243                       MOVEMENT_OP* null
     1331    11306
     1332    11307
     1333    11308
     1334    11309    2   MOVEMENT_OPTIONS_FAILED: ;
     1335    11310    2   MOVEMENT_OPERAND_FAILED: ;
     1336    11311    2           ALTRETURN;

  11311  1 002243   200022 221300                    LDX1  ! NAME_FILE_KEY$,,AUTO
         1 002244   000000 702211                    TSX2  ! 0,X1

     1337    11312
     1338    11313                %BOX (TITLE=MOVEMENT_OPTIONS);

             11325    2   /***************************************************************************
             11327    2    *                                                                         *
             11331    2            *                              MOVEMENT_OPTIONS                          *
             11333    2            *                                                                        *
             11335    2          ***************************************************************************/

     1339    11339
     1340    11340        /*I** NAME: MOVEMENT_OPTIONS
     1341    11341            PARAMETERS:
PL6.E3A0      #001=VDE$PBLOCK_EXPR File=VDE$PARSE.:VDA5TSI                       FRI 07/04/97 11:13 Page:157
     1342    11342                PT_MOVEMENT - PARSE$OUT block whose code is %T_MOVEMENT.
     1343    11343            INPUT:
     1344    11344                Same as for MOVEMENTS.
     1345    11345                EVAL_OPTIONS, SRCH_SEEN, and SKIP_SEEN should be %CLEAR at entry.
     1346    11346            OUTPUT:
     1347    11347                Same as for MOVEMENTS.  All children of PT_MOVEMENT will
     1348    11348                    be processed except the last one.
     1349    11349                EVAL_OPTIONS, SRCH_SEEN, and SKIP_SEEN will be set based on
     1350    11350                    the options processed.
     1351    11351            DESCRIPTION:
     1352    11352                Same as for MOVEMENTS.
     1353    11353        */
     1354    11354
     1355    11355    2   MOVEMENT_OPTIONS: PROC (PT_MOVEMENT) ALTRET;

  11355  1 002245   200030 741300       MOVEMENT_OP* STX1  ! STRING_LOC,,AUTO

     1356    11356
     1357    11357        %PARSE$OUT (NAME=PT_MOVEMENT, STCLASS=PARAM);
     1358    11402
     1359    11403
     1360    11404    3   DCL MOVE_CHILD_INDEX SBIN;
     1361    11405    3   DCL MOVE_CHILD$ PTR;
     1362    11406    3   DCL NUMBER SBIN;
     1363    11407    3   DCL ERR_CODE SBIN;
     1364    11408
     1365    11409
     1366    11410        %PARSE$OUT (NAME=MOVE$CHILD, STCLASS="BASED(MOVE_CHILD$)");
     1367    11455
     1368    11456
     1369    11457
     1370    11458    3   EACH_MOVE_CHILD_EXCEPT_LAST:
     1371    11459    4           DO MOVE_CHILD_INDEX = 0 TO (PT_MOVEMENT.NSUBLKS - 2);

  11459  1 002246   200032 450100       EACH_MOVE_C* STZ     MOVE_CHILD_INDEX,,AUTO
         1 002247   002363 710000 1                  TRA     s:11512+1

PL6.E3A0      #001=VDE$PBLOCK_EXPR File=VDE$PARSE.:VDA5TSI                       FRI 07/04/97 11:13 Page:158
     1372    11460    4              MOVE_CHILD$ = PT_MOVEMENT.SUBLK$ (MOVE_CHILD_INDEX);

  11460  1 002250   200031 470500                    LDP0    @PT_MOVEMENT,,AUTO
         1 002251   200032 720100                    LXL0    MOVE_CHILD_INDEX,,AUTO
         1 002252   000003 236110                    LDQ     3,X0,PR0
         1 002253   200033 756100                    STQ     MOVE_CHILD$,,AUTO

     1373    11461                   %INCREMENT (ARRAY=STATS_TOKENS#, INDX="MOVE$CHILD.CODE - %VD_BASE#");

  11462  1 002254   200033 471500                    LDP1    MOVE_CHILD$,,AUTO
         1 002255   100000 721100                    LXL1    0,,PR1
         1 002256   776375 054011 xsym               AOS     VD_6E-771,X1

     1374    11464
     1375    11465    5              DO CASE (MOVE$CHILD.CODE);

  11465  1 002257   100000 236100                    LDQ     0,,PR1
         1 002260   777777 376007                    ANQ     -1,DL
         1 002261   002033 136007                    SBLQ    1051,DL
         1 002262   000006 116007                    CMPQ    6,DL
         1 002263   002265 602006 1                  TNC     s:11465+6,QL
         1 002264   002353 710000 1                  TRA     s:11508
         1 002265   002273 710000 1                  TRA     s:11468
         1 002266   002322 710000 1                  TRA     s:11483
         1 002267   002327 710000 1                  TRA     s:11488
         1 002270   002341 710000 1                  TRA     s:11498
         1 002271   002334 710000 1                  TRA     s:11493
         1 002272   002346 710000 1                  TRA     s:11503

     1376    11466
     1377    11467    5               CASE (%T_SKIP);

     1378    11468    5                 IF SKIP_SEEN THEN

  11468  1 002273   200027 234100                    SZN     SKIP_SEEN,,AUTO
         1 002274   002373 604000 1                  TMI     TOO_MANY_SKIPS_FAILURE

PL6.E3A0      #001=VDE$PBLOCK_EXPR File=VDE$PARSE.:VDA5TSI                       FRI 07/04/97 11:13 Page:159
     1379    11469    5                    GOTO TOO_MANY_SKIPS_FAILURE;
     1380    11470    5                 SKIP_SEEN = %TRUE;

  11470  1 002275   400000 236003                    LDQ     -131072,DU
         1 002276   200027 756100                    STQ     SKIP_SEEN,,AUTO

     1381    11471    5                 IF MOVE$CHILD.SUBLK$(0)->OUT$BLK.CODE =

  11471  1 002277   100003 473500                    LDP3    3,,PR1
         1 002300   300000 721100                    LXL1    0,,PR3
         1 002301   002056 101003                    CMPX1   1070,DU
         1 002302   002362 601000 1                  TNZ     s:11512

     1382    11472    6                   %T_STRING_EXPR THEN DO;

     1383    11473    6                    CALL VDE$PNUMBER (MOVE$CHILD.SUBLK$(0)->

  11473  1 002303   300003 474500                    LDP4    3,,PR3
         1 002304   200034 635500                    EPPR5   NUMBER,,AUTO
         1 002305   200061 455500                    STP5    NEW_SELECT$+2,,AUTO
         1 002306   200060 454500                    STP4    NEW_SELECT$+1,,AUTO
         1 002307   200060 630500                    EPPR0   NEW_SELECT$+1,,AUTO
         1 002310   000020 631400 xsym               EPPR1   B_VECTNIL+16
         1 002311   000000 701000 xent               TSX1    VDE$PNUMBER
         1 002312   002421 702000 1                  TSX2    PNUMBER_FAILED

     1384    11474    6                      OUT$BLK.SUBLK$(0)->OUT$BLK, NUMBER)
     1385    11475    6                      ALTRET (PNUMBER_FAILED);
     1386    11476    6                    IF NUMBER < %MN_SKIP_COUNT

  11476  1 002313   200034 235100                    LDA     NUMBER,,AUTO
         1 002314   002376 604000 1                  TMI     SKIP_NOT_IN_RANGE_FAILURE
         1 002315   377777 115007                    CMPA    131071,DL
         1 002316   002376 605400 1                  TPNZ    SKIP_NOT_IN_RANGE_FAILURE

     1387    11477    6                      OR NUMBER > %MX_SKIP_COUNT THEN
     1388    11478    6                       GOTO SKIP_NOT_IN_RANGE_FAILURE;
PL6.E3A0      #001=VDE$PBLOCK_EXPR File=VDE$PARSE.:VDA5TSI                       FRI 07/04/97 11:13 Page:160
     1389    11479    6                    EVAL_OPTIONS.SKIP# = NUMBER;

  11479  1 002317   000000 620005                    EAX0    0,AL
         1 002320   200024 440100                    SXL0    EVAL_OPTIONS,,AUTO

     1390    11480    6                    END;

  11480  1 002321   002362 710000 1                  TRA     s:11512

     1391    11481
     1392    11482    5               CASE (%T_FORWARD);

     1393    11483    5                 IF EVAL_OPTIONS.DIRECTION# ~= 0 THEN

  11483  1 002322   200025 721100                    LXL1    FILE_KEY$,,AUTO
         1 002323   002401 601000 1                  TNZ     TOO_MANY_DIRECTIONS_FAILURE

     1394    11484    5                    GOTO TOO_MANY_DIRECTIONS_FAILURE;
     1395    11485    5                 EVAL_OPTIONS.DIRECTION# = %DIR_FORWARD;

  11485  1 002324   000001 222003                    LDX2    1,DU
         1 002325   200025 442100                    SXL2    FILE_KEY$,,AUTO
         1 002326   002362 710000 1                  TRA     s:11512

     1396    11486
     1397    11487    5               CASE (%T_BACKWARD);

     1398    11488    5                 IF EVAL_OPTIONS.DIRECTION# ~= 0 THEN

  11488  1 002327   200025 721100                    LXL1    FILE_KEY$,,AUTO
         1 002330   002401 601000 1                  TNZ     TOO_MANY_DIRECTIONS_FAILURE

     1399    11489    5                    GOTO TOO_MANY_DIRECTIONS_FAILURE;
     1400    11490    5                 EVAL_OPTIONS.DIRECTION# = %DIR_BACKWARD;

  11490  1 002331   000002 222003                    LDX2    2,DU
         1 002332   200025 442100                    SXL2    FILE_KEY$,,AUTO
PL6.E3A0      #001=VDE$PBLOCK_EXPR File=VDE$PARSE.:VDA5TSI                       FRI 07/04/97 11:13 Page:161
         1 002333   002362 710000 1                  TRA     s:11512

     1401    11491
     1402    11492    5               CASE (%T_AO);

     1403    11493    5                 IF EVAL_OPTIONS.POINT# ~= 0 THEN

  11493  1 002334   200025 221100                    LDX1    FILE_KEY$,,AUTO
         1 002335   002404 601000 1                  TNZ     TOO_MANY_POINTS_FAILURE

     1404    11494    5                    GOTO TOO_MANY_POINTS_FAILURE;
     1405    11495    5                 EVAL_OPTIONS.POINT# = %PNT_AO;

  11495  1 002336   000001 222003                    LDX2    1,DU
         1 002337   200025 742100                    STX2    FILE_KEY$,,AUTO
         1 002340   002362 710000 1                  TRA     s:11512

     1406    11496
     1407    11497    5               CASE (%T_BO);

     1408    11498    5                 IF EVAL_OPTIONS.POINT# ~= 0 THEN

  11498  1 002341   200025 221100                    LDX1    FILE_KEY$,,AUTO
         1 002342   002404 601000 1                  TNZ     TOO_MANY_POINTS_FAILURE

     1409    11499    5                    GOTO TOO_MANY_POINTS_FAILURE;
     1410    11500    5                 EVAL_OPTIONS.POINT# = %PNT_BO;

  11500  1 002343   000002 222003                    LDX2    2,DU
         1 002344   200025 742100                    STX2    FILE_KEY$,,AUTO
         1 002345   002362 710000 1                  TRA     s:11512

     1411    11501
     1412    11502    5               CASE (%T_EO);

     1413    11503    5                 IF EVAL_OPTIONS.POINT# ~= 0 THEN

PL6.E3A0      #001=VDE$PBLOCK_EXPR File=VDE$PARSE.:VDA5TSI                       FRI 07/04/97 11:13 Page:162
  11503  1 002346   200025 221100                    LDX1    FILE_KEY$,,AUTO
         1 002347   002404 601000 1                  TNZ     TOO_MANY_POINTS_FAILURE

     1414    11504    5                    GOTO TOO_MANY_POINTS_FAILURE;
     1415    11505    5                 EVAL_OPTIONS.POINT# = %PNT_EO;

  11505  1 002350   000003 222003                    LDX2    3,DU
         1 002351   200025 742100                    STX2    FILE_KEY$,,AUTO
         1 002352   002362 710000 1                  TRA     s:11512

     1416    11506
     1417    11507    5               CASE (ELSE);

     1418    11508    5                 CALL VDG$ESCREECH (MOVE$CHILD.CODE);

  11508  1 002353   200033 236100                    LDQ     MOVE_CHILD$,,AUTO
         1 002354   400000 036007                    ADLQ    -131072,DL
         1 002355   200060 756100                    STQ     NEW_SELECT$+1,,AUTO
         1 002356   200060 630500                    EPPR0   NEW_SELECT$+1,,AUTO
         1 002357   000017 631400 xsym               EPPR1   B_VECTNIL+15
         1 002360   000000 701000 xent               TSX1    VDG$ESCREECH
         1 002361   000000 011000                    NOP     0

     1419    11509
     1420    11510    5               END;

     1421    11511
     1422    11512    4              END EACH_MOVE_CHILD_EXCEPT_LAST;

  11512  1 002362   200032 054100                    AOS     MOVE_CHILD_INDEX,,AUTO
         1 002363   200031 470500                    LDP0    @PT_MOVEMENT,,AUTO
         1 002364   000001 236100                    LDQ     1,,PR0
         1 002365   000022 772000                    QRL     18
         1 002366   000002 136007                    SBLQ    2,DL
         1 002367   200032 116100                    CMPQ    MOVE_CHILD_INDEX,,AUTO
         1 002370   002250 605000 1                  TPL     s:11460

PL6.E3A0      #001=VDE$PBLOCK_EXPR File=VDE$PARSE.:VDA5TSI                       FRI 07/04/97 11:13 Page:163
     1423    11513
     1424    11514    3           RETURN;

  11514  1 002371   200030 221300                    LDX1  ! STRING_LOC,,AUTO
         1 002372   000001 702211                    TSX2  ! 1,X1

     1425    11515
     1426    11516
     1427    11517                %BOX (TITLE="Error Handlers");

             11529    3   /***************************************************************************
             11531    3    *                                                                         *
             11535    3            *                               Error Handlers                           *
             11537    3            *                                                                        *
             11539    3          ***************************************************************************/

     1428    11543
     1429    11544    3   TOO_MANY_SKIPS_FAILURE:
     1430    11545    3           ERR_CODE = %E$TOO_MANY_SKIPS;

  11545  1 002373   000121 235007       TOO_MANY_SK* LDA     81,DL
         1 002374   200035 755100                    STA     ERR_CODE,,AUTO

     1431    11546    3           GOTO SERIOUS_USER_ERROR;

  11546  1 002375   002407 710000 1                  TRA     SERIOUS_USER_ERROR

     1432    11547
     1433    11548    3   SKIP_NOT_IN_RANGE_FAILURE:
     1434    11549    3           ERR_CODE = %E$SKIP_COUNT_NOT_IN_RANGE;

  11549  1 002376   000122 236007       SKIP_NOT_IN* LDQ     82,DL
         1 002377   200035 756100                    STQ     ERR_CODE,,AUTO

     1435    11550    3           GOTO SERIOUS_USER_ERROR;

  11550  1 002400   002407 710000 1                  TRA     SERIOUS_USER_ERROR
PL6.E3A0      #001=VDE$PBLOCK_EXPR File=VDE$PARSE.:VDA5TSI                       FRI 07/04/97 11:13 Page:164

     1436    11551
     1437    11552    3   TOO_MANY_DIRECTIONS_FAILURE:
     1438    11553    3           ERR_CODE = %E$TOO_MANY_DIRECTIONS;

  11553  1 002401   000124 235007       TOO_MANY_DI* LDA     84,DL
         1 002402   200035 755100                    STA     ERR_CODE,,AUTO

     1439    11554    3           GOTO SERIOUS_USER_ERROR;

  11554  1 002403   002407 710000 1                  TRA     SERIOUS_USER_ERROR

     1440    11555
     1441    11556    3   TOO_MANY_POINTS_FAILURE:
     1442    11557    3           ERR_CODE = %E$TOO_MANY_POINTS;

  11557  1 002404   000125 235007       TOO_MANY_PO* LDA     85,DL
         1 002405   200035 755100                    STA     ERR_CODE,,AUTO

     1443    11558    3           GOTO SERIOUS_USER_ERROR;

  11558  1 002406   002407 710000 1                  TRA     SERIOUS_USER_ERROR

     1444    11559
     1445    11560
     1446    11561    3   SERIOUS_USER_ERROR:
     1447    11562    4           CALL VDG$ERRMSG (ERR_CODE) WHENRETURN DO;

  11562  1 002407   200035 630500       SERIOUS_USE* EPPR0   ERR_CODE,,AUTO
         1 002410   200060 450500                    STP0    NEW_SELECT$+1,,AUTO
         1 002411   200060 630500                    EPPR0   NEW_SELECT$+1,,AUTO
         1 002412   000017 631400 xsym               EPPR1   B_VECTNIL+15
         1 002413   000000 701000 xent               TSX1    VDG$ERRMSG
         1 002414   002421 702000 1                  TSX2    PNUMBER_FAILED

     1448    11563    4              LAST$ERR.CMDLINE_INDEX# = MOVE$CHILD.CPOS;

PL6.E3A0      #001=VDE$PBLOCK_EXPR File=VDE$PARSE.:VDA5TSI                       FRI 07/04/97 11:13 Page:165
  11563  1 002415   200033 470500                    LDP0    MOVE_CHILD$,,AUTO
         1 002416   000002 720100                    LXL0    2,,PR0
         1 002417   000032 471400 xsym               LDP1    VD_6E+26
         1 002420   100003 440100                    SXL0    3,,PR1

     1449    11564    4              END;

  11563  1 002421                       PNUMBER_FAI* null
  11563  1 002421                       OALLOC_FAIL* null
     1450    11565
     1451    11566
     1452    11567    3   PNUMBER_FAILED: ;
     1453    11568    3   OALLOC_FAILED: ;
     1454    11569    3           ALTRETURN;

  11569  1 002421   200030 221300                    LDX1  ! STRING_LOC,,AUTO
         1 002422   000000 702211                    TSX2  ! 0,X1

     1455    11570
     1456    11571    3   END MOVEMENT_OPTIONS;
     1457    11572
     1458    11573        %BOX (TITLE=MOVEMENT_OPERAND);

             11585    3   /***************************************************************************
             11587    3    *                                                                         *
             11591    3            *                              MOVEMENT_OPERAND                          *
             11593    3            *                                                                        *
             11595    3          ***************************************************************************/

     1459    11599
     1460    11600        /*I** NAME: MOVEMENT_OPERAND
     1461    11601            PARAMETERS:
     1462    11602                OPERAND - PARSE$OUT node for the operand to process.  Usually
     1463    11603                    this is the last child of a %T_MOVEMENT node; however,
     1464    11604                    it can also be a %T_LO_NAME node which appeared as the
     1465    11605                    first operand in a block expression (and so looked like
     1466    11606                    a domain operand), but whose value didn't specify a new
PL6.E3A0      #001=VDE$PBLOCK_EXPR File=VDE$PARSE.:VDA5TSI                       FRI 07/04/97 11:13 Page:166
     1467    11607                    domain (and so wasn't processed earlier with the domain
     1468    11608                    operand).
     1469    11609            INPUT:
     1470    11610                Same as for MOVEMENTS.
     1471    11611                EVAL_OPTIONS must have been cleared, then filled with any
     1472    11612                    evaluation options seen for this operand.
     1473    11613                SRCH_SEEN and SKIP_SEEN must be set based on any SKIP or
     1474    11614                    FIND/MATCH options seen for this operand.
     1475    11615            OUTPUT:
     1476    11616                Same as for MOVEMENTS.
     1477    11617                IT_OPERAND$ and LAST_MOVEMENT$ will point to the VD$IT_OPERAND
     1478    11618                    node for OPERAND.  It will be linked into the InTree;
     1479    11619                    its .OPTIONS will contain EVAL_OPTIONS.
     1480    11620            DESCRIPTION:
     1481    11621                See MOVEMENTS.
     1482    11622        */
     1483    11623
     1484    11624    2   MOVEMENT_OPERAND: PROC (OPERAND) ALTRET;

  11624  1 002423   200030 741300       MOVEMENT_OP* STX1  ! STRING_LOC,,AUTO

     1485    11625
     1486    11626        %PARSE$OUT (NAME=OPERAND, STCLASS=PARAM);
     1487    11671
     1488    11672
     1489    11673    3   DCL NUMBER SBIN;
     1490    11674    3   DCL ABS_MOVEMENT BIT(1) ALIGNED;
     1491    11675        %VD$KEY (NAME=KEY, STCLASS=AUTO);
     1492    11689    3   DCL KEY_BUFFER$ PTR;
     1493    11690    3   DCL RET_CODE CHAR(1) CALIGNED;
     1494    11691    3   DCL CTRL_ARGS(0:%(MX_CTRL_FN_ARGS-1)) UBIN;
     1495    11692    3   DCL ERR_CODE SBIN;
     1496    11693
     1497    11694
     1498    11695        %VD$KEY_NUMBER;
     1499    11710        %VD$BUFFER (NAME=KEY$BUFFER, STCLASS="BASED(KEY_BUFFER$)");
     1500    11768
PL6.E3A0      #001=VDE$PBLOCK_EXPR File=VDE$PARSE.:VDA5TSI                       FRI 07/04/97 11:13 Page:167
     1501    11769                /*
     1502    11770                *   Fill in the "point" evaluation option:  it's common
     1503    11771                *       to all operands.
     1504    11772                */
     1505    11773
     1506    11774    3           IF EVAL_OPTIONS.POINT# = 0 THEN

  11774  1 002424   200025 220100                    LDX0    FILE_KEY$,,AUTO
         1 002425   002430 601000 1                  TNZ     s:11782

     1507    11775    3              EVAL_OPTIONS.POINT# = VD_$POINT.V#;

  11775  1 002426   000003 722000 xsym               LXL2    VD_$POINT+3
         1 002427   200025 742100                    STX2    FILE_KEY$,,AUTO

     1508    11776
     1509    11777
     1510    11778                /*
     1511    11779                *   Process the operand to move over.
     1512    11780                */
     1513    11781
     1514    11782    3           CALL GUAR_LAST_ADJUST

  11782  1 002430   003627 701000 1                  TSX1    GUAR_LAST_ADJUST
         1 002431   003217 702000 1                  TSX2    GUAR_LAST_ADJUST_FAILED

     1515    11783    3             ALTRET (GUAR_LAST_ADJUST_FAILED);
     1516    11784                %INCREMENT (ARRAY=STATS_TOKENS#, INDX="OPERAND.CODE - %VD_BASE#");

  11785  1 002432   200031 470500                    LDP0    @OPERAND,,AUTO
         1 002433   000000 720100                    LXL0    0,,PR0
         1 002434   776375 054010 xsym               AOS     VD_6E-771,X0

     1517    11787    3           ABS_MOVEMENT = %FALSE;

  11787  1 002435   200033 450100                    STZ     ABS_MOVEMENT,,AUTO

PL6.E3A0      #001=VDE$PBLOCK_EXPR File=VDE$PARSE.:VDA5TSI                       FRI 07/04/97 11:13 Page:168
     1518    11788    3           IT_OPERAND$ = ADDR(NIL);

  11788  1 002436   000001 236000 xsym               LDQ     B_VECTNIL+1
         1 002437   200023 756100                    STQ     IT_OPERAND$,,AUTO

     1519    11789
     1520    11790    3   MOVE_CHILD_CODE_CASES:
     1521    11791    4           DO CASE (OPERAND.CODE);

  11791  1 002440   000000 236100       MOVE_CHILD_* LDQ     0,,PR0
         1 002441   777777 376007                    ANQ     -1,DL
         1 002442   002047 136007                    SBLQ    1063,DL
         1 002443   000006 116007                    CMPQ    6,DL
         1 002444   002446 602006 1                  TNC     MOVE_CHILD_CODE_CASES+6,QL
         1 002445   003126 710000 1                  TRA     s:11954
         1 002446   002454 710000 1                  TRA     s:11794
         1 002447   002467 710000 1                  TRA     s:11803
         1 002450   002531 710000 1                  TRA     s:11818
         1 002451   003056 710000 1                  TRA     s:11937
         1 002452   002734 710000 1                  TRA     s:11890
         1 002453   002674 710000 1                  TRA     s:11874

     1522    11792
     1523    11793    4            CASE (%T_LO_NAME);

     1524    11794    4              IF SKIP_SEEN

  11794  1 002454   200027 234100                    SZN     SKIP_SEEN,,AUTO
         1 002455   003163 604000 1                  TMI     LO_NAME_OPTS_NOT_LEGAL_FAILURE
         1 002456   200025 720100                    LXL0    FILE_KEY$,,AUTO
         1 002457   003163 601000 1                  TNZ     LO_NAME_OPTS_NOT_LEGAL_FAILURE

     1525    11795    4                OR EVAL_OPTIONS.DIRECTION# ~= 0 THEN
     1526    11796    4                 GOTO LO_NAME_OPTS_NOT_LEGAL_FAILURE;
     1527    11797    4              CALL PLO_NAME (OPERAND)

  11797  1 002460   200031 236100                    LDQ     @OPERAND,,AUTO
PL6.E3A0      #001=VDE$PBLOCK_EXPR File=VDE$PARSE.:VDA5TSI                       FRI 07/04/97 11:13 Page:169
         1 002461   200045 756100                    STQ     CTRL_ARGS,,AUTO
         1 002462   003221 701000 1                  TSX1    PLO_NAME
         1 002463   003217 702000 1                  TSX2    GUAR_LAST_ADJUST_FAILED

     1528    11798    4                ALTRET (PLO_NAME_FAILED);
     1529    11799    4              ABS_MOVEMENT = %TRUE;

  11799  1 002464   400000 236003                    LDQ     -131072,DU
         1 002465   200033 756100                    STQ     ABS_MOVEMENT,,AUTO
         1 002466   003135 710000 1                  TRA     s:11963

     1530    11800
     1531    11801
     1532    11802    4            CASE (%T_NUMERIC_KEY);

     1533    11803    4              IF SKIP_SEEN

  11803  1 002467   200027 234100                    SZN     SKIP_SEEN,,AUTO
         1 002470   003166 604000 1                  TMI     KEY_OPTIONS_NOT_LEGAL_FAILURE
         1 002471   200025 720100                    LXL0    FILE_KEY$,,AUTO
         1 002472   003166 601000 1                  TNZ     KEY_OPTIONS_NOT_LEGAL_FAILURE

     1534    11804    4                OR EVAL_OPTIONS.DIRECTION# ~= 0 THEN
     1535    11805    4                 GOTO KEY_OPTIONS_NOT_LEGAL_FAILURE;
     1536    11806    4              CALL VDE$PNUMERIC_KEY (OPERAND, KEY)

  11806  1 002473   200034 631500                    EPPR1   KEY,,AUTO
         1 002474   200061 451500                    STP1    NEW_SELECT$+2,,AUTO
         1 002475   200031 236100                    LDQ     @OPERAND,,AUTO
         1 002476   200060 756100                    STQ     NEW_SELECT$+1,,AUTO
         1 002477   200060 630500                    EPPR0   NEW_SELECT$+1,,AUTO
         1 002500   000020 631400 xsym               EPPR1   B_VECTNIL+16
         1 002501   000000 701000 xent               TSX1    VDE$PNUMERIC_KEY
         1 002502   003217 702000 1                  TSX2    GUAR_LAST_ADJUST_FAILED

     1537    11807    4                ALTRET (PNUMERIC_KEY_FAILED);
     1538    11808    4              CALL VDG$OALLOC (%CLS_IT_OPERAND, T$)
PL6.E3A0      #001=VDE$PBLOCK_EXPR File=VDE$PARSE.:VDA5TSI                       FRI 07/04/97 11:13 Page:170

  11808  1 002503   200016 630500                    EPPR0   T$,,AUTO
         1 002504   200061 450500                    STP0    NEW_SELECT$+2,,AUTO
         1 002505   000025 236000 2                  LDQ     21
         1 002506   200060 756100                    STQ     NEW_SELECT$+1,,AUTO
         1 002507   200060 630500                    EPPR0   NEW_SELECT$+1,,AUTO
         1 002510   000020 631400 xsym               EPPR1   B_VECTNIL+16
         1 002511   000000 701000 xent               TSX1    VDG$OALLOC
         1 002512   003217 702000 1                  TSX2    GUAR_LAST_ADJUST_FAILED

     1539    11809    4                ALTRET (OALLOC_FAILED);
     1540    11810    4              IT_OPERAND$ = T$;

  11810  1 002513   200016 236100                    LDQ     T$,,AUTO
         1 002514   200023 756100                    STQ     IT_OPERAND$,,AUTO

     1541    11811    4              IT$OPERAND.OPTIONS = EVAL_OPTIONS;

  11811  1 002515   200023 470500                    LDP0    IT_OPERAND$,,AUTO
         1 002516   200024 237100                    LDAQ    EVAL_OPTIONS,,AUTO
         1 002517   000004 755100                    STA     4,,PR0
         1 002520   000005 756100                    STQ     5,,PR0

     1542    11812    4              IT$OPERAND.CODE# = %OPAND_NODE;

  11812  1 002521   000006 220003                    LDX0    6,DU
         1 002522   000003 740100                    STX0    3,,PR0

     1543    11813    4              IT$OPERAND.KEY = KEY;

  11813  1 002523   200034 237100                    LDAQ    KEY,,AUTO
         1 002524   000006 755100                    STA     6,,PR0
         1 002525   000007 756100                    STQ     7,,PR0

     1544    11814    4              ABS_MOVEMENT = %TRUE;

  11814  1 002526   400000 236003                    LDQ     -131072,DU
PL6.E3A0      #001=VDE$PBLOCK_EXPR File=VDE$PARSE.:VDA5TSI                       FRI 07/04/97 11:13 Page:171
         1 002527   200033 756100                    STQ     ABS_MOVEMENT,,AUTO
         1 002530   003135 710000 1                  TRA     s:11963

     1545    11815
     1546    11816
     1547    11817    4            CASE (%T_STRING_KEY);

     1548    11818    4              IF SKIP_SEEN

  11818  1 002531   200027 234100                    SZN     SKIP_SEEN,,AUTO
         1 002532   003166 604000 1                  TMI     KEY_OPTIONS_NOT_LEGAL_FAILURE
         1 002533   200025 720100                    LXL0    FILE_KEY$,,AUTO
         1 002534   003166 601000 1                  TNZ     KEY_OPTIONS_NOT_LEGAL_FAILURE

     1549    11819    4                OR EVAL_OPTIONS.DIRECTION# ~= 0 THEN
     1550    11820    4                 GOTO KEY_OPTIONS_NOT_LEGAL_FAILURE;
     1551    11821                   /*
     1552    11822                   *  Note that we don't know what kind of file this key is for;
     1553    11823                   *N*   it could be for a string-keyed file, or
     1554    11824                   *    it could be for a numeric-keyed file.  We'll just
     1555    11825                   *    store it as a string-key in the InTree; later, when the InTree
     1556    11826                   *    is evaluated, if the file is numeric keyed, we'll convert
     1557    11827                   *    the string key to a numeric key.
     1558    11828                   *  OPERAND is the T_STRING_KEY node below:
     1559    11829                   *
     1560    11830                   *                T_STRING_KEY
     1561    11831                   *                    |
     1562    11832                   *                T_STRING_EXPR
     1563    11833                   *                    |
     1564    11834                   *                 XUE_EXP
     1565    11835                   */
     1566    11836    4              KEY = %CLEAR;

  11836  1 002535   000000 235003                    LDA     0,DU
         1 002536   000000 236003                    LDQ     0,DU
         1 002537   200034 757100                    STAQ    KEY,,AUTO

PL6.E3A0      #001=VDE$PBLOCK_EXPR File=VDE$PARSE.:VDA5TSI                       FRI 07/04/97 11:13 Page:172
     1567    11837    4              KEY.TYPE# = %KT_STRING;

  11837  1 002540   000002 221003                    LDX1    2,DU
         1 002541   200034 741100                    STX1    KEY,,AUTO

     1568    11838    4              KEY.REP# = %REP_REMOTE;

  11838  1 002542   200034 441100                    SXL1    KEY,,AUTO

     1569    11839    4              KEY.V$ = ADDR(NIL);

  11839  1 002543   000001 236000 xsym               LDQ     B_VECTNIL+1
         1 002544   200035 756100                    STQ     ERR_CODE,,AUTO

     1570    11840    4              KEY_BUFFER$ = ADDR(NIL);

  11840  1 002545   200036 756100                    STQ     KEY_BUFFER$,,AUTO

     1571    11841    4              CALL VDE$PSTRING (OPERAND.SUBLK$(0)->OUT$BLK.SUBLK$(0)->OUT$BLK,

  11841  1 002546   000003 471500                    LDP1    3,,PR0
         1 002547   100003 473500                    LDP3    3,,PR1
         1 002550   200040 634500                    EPPR4   CTRL_ARGS,,AUTO
         1 002551   200064 454500                    STP4    NEW_SELECT$+5,,AUTO
         1 002552   200037 631500                    EPPR1   RET_CODE,,AUTO
         1 002553   200063 451500                    STP1    NEW_SELECT$+4,,AUTO
         1 002554   200036 635500                    EPPR5   KEY_BUFFER$,,AUTO
         1 002555   200062 455500                    STP5    NEW_SELECT$+3,,AUTO
         1 002556   200032 636500                    EPPR6   NUMBER,,AUTO
         1 002557   200061 456500                    STP6    NEW_SELECT$+2,,AUTO
         1 002560   200060 453500                    STP3    NEW_SELECT$+1,,AUTO
         1 002561   200060 630500                    EPPR0   NEW_SELECT$+1,,AUTO
         1 002562   000023 631400 xsym               EPPR1   B_VECTNIL+19
         1 002563   000000 701000 xent               TSX1    VDE$PSTRING
         1 002564   002566 702000 1                  TSX2    s:11844
         1 002565   002573 710000 1                  TRA     s:11848

PL6.E3A0      #001=VDE$PBLOCK_EXPR File=VDE$PARSE.:VDA5TSI                       FRI 07/04/97 11:13 Page:173
     1572    11842    4                NUMBER, KEY_BUFFER$, RET_CODE, CTRL_ARGS)
     1573    11843    5              WHENALTRETURN DO;

     1574    11844    5                 CALL VDG$OFREE (KEY$BUFFER)

  11844  1 002566   200036 630500                    EPPR0   KEY_BUFFER$,,AUTO
         1 002567   000017 631400 xsym               EPPR1   B_VECTNIL+15
         1 002570   000000 701000 xent               TSX1    VDG$OFREE
         1 002571   003217 702000 1                  TSX2    GUAR_LAST_ADJUST_FAILED

     1575    11845    5                   ALTRET (OFREE_FAILED);
     1576    11846    5                 GOTO PSTRING_FAILED;

  11846  1 002572   003217 710000 1                  TRA     GUAR_LAST_ADJUST_FAILED

     1577    11847    5                 END;
     1578    11848    5              IF RET_CODE ~= %CHR_SPACE THEN DO;

  11848  1 002573   200037 236100                    LDQ     RET_CODE,,AUTO
         1 002574   777000 376003                    ANQ     -512,DU
         1 002575   040000 116003                    CMPQ    16384,DU
         1 002576   002604 600000 1                  TZE     s:11854

     1579    11849    5                 CALL VDG$OFREE (KEY$BUFFER)

  11849  1 002577   200036 630500                    EPPR0   KEY_BUFFER$,,AUTO
         1 002600   000017 631400 xsym               EPPR1   B_VECTNIL+15
         1 002601   000000 701000 xent               TSX1    VDG$OFREE
         1 002602   003217 702000 1                  TSX2    GUAR_LAST_ADJUST_FAILED

     1580    11850    5                   ALTRET (OFREE_FAILED);
     1581    11851    5                 GOTO CTRLFN_CONFLICTS_W_KEY_FAILURE;

  11851  1 002603   003171 710000 1                  TRA     CTRLFN_CONFLICTS_W_KEY_FAILURE

     1582    11852    5                 END;
     1583    11853                   /* KEY.V$ must point to a VD$TEXTC_REMOTE, not a VD$BUFFER */
PL6.E3A0      #001=VDE$PBLOCK_EXPR File=VDE$PARSE.:VDA5TSI                       FRI 07/04/97 11:13 Page:174
     1584    11854    4              CALL VDG$OALLOC (%CLS_TEXTC_REMOTE, KEY.V$,

  11854  1 002604   200036 470500                    LDP0    KEY_BUFFER$,,AUTO
         1 002605   000002 236100                    LDQ     2,,PR0
         1 002606   000022 732000                    QRS     18
         1 002607   000014 036007                    ADLQ    12,DL
         1 002610   000004 506007                    DIV     4,DL
         1 002611   200060 756100                    STQ     NEW_SELECT$+1,,AUTO
         1 002612   200060 631500                    EPPR1   NEW_SELECT$+1,,AUTO
         1 002613   200063 451500                    STP1    NEW_SELECT$+4,,AUTO
         1 002614   200035 633500                    EPPR3   ERR_CODE,,AUTO
         1 002615   200062 453500                    STP3    NEW_SELECT$+3,,AUTO
         1 002616   000037 236000 2                  LDQ     31
         1 002617   200061 756100                    STQ     NEW_SELECT$+2,,AUTO
         1 002620   200061 630500                    EPPR0   NEW_SELECT$+2,,AUTO
         1 002621   000021 631400 xsym               EPPR1   B_VECTNIL+17
         1 002622   000000 701000 xent               TSX1    VDG$OALLOC
         1 002623   003217 702000 1                  TSX2    GUAR_LAST_ADJUST_FAILED

     1585    11855    4                (LENGTHC(VD$STRING_HEADER) + KEY$BUFFER.LENGTH# +
     1586    11856    4                (%NB_PER_WORD-1)) / %NB_PER_WORD)
     1587    11857    4                ALTRET (OALLOC_FAILED);
     1588    11858    4              KEY.V$->VD$TEXTC_REMOTE.LENGTH# = KEY$BUFFER.LENGTH#;

  11858  1 002624   200035 470500                    LDP0    ERR_CODE,,AUTO
         1 002625   200036 471500                    LDP1    KEY_BUFFER$,,AUTO
         1 002626   100002 236100                    LDQ     2,,PR1
         1 002627   000011 736000                    QLS     9
         1 002630   000002 552140                    STBQ    2,'40'O,PR0

     1589    11859    4              KEY.V$->VD$TEXTC_REMOTE.BYTES = KEY$BUFFER.BYTES;

  11859  1 002631   200035 470500                    LDP0    ERR_CODE,,AUTO
         1 002632   000002 236100                    LDQ     2,,PR0
         1 002633   000033 772000                    QRL     27
         1 002634   200036 471500                    LDP1    KEY_BUFFER$,,AUTO
         1 002635   100002 220100                    LDX0    2,,PR1
PL6.E3A0      #001=VDE$PBLOCK_EXPR File=VDE$PARSE.:VDA5TSI                       FRI 07/04/97 11:13 Page:175
         1 002636   000000 621006                    EAX1    0,QL
         1 002637   040140 100540                    MLR     fill='040'O
         1 002640   100002 400010                    ADSC9   2,,PR1                   cn=2,n=*X0
         1 002641   000002 200011                    ADSC9   2,,PR0                   cn=1,n=*X1

     1590    11860    4              CALL VDG$OFREE (KEY$BUFFER)

  11860  1 002642   200036 630500                    EPPR0   KEY_BUFFER$,,AUTO
         1 002643   000017 631400 xsym               EPPR1   B_VECTNIL+15
         1 002644   000000 701000 xent               TSX1    VDG$OFREE
         1 002645   003217 702000 1                  TSX2    GUAR_LAST_ADJUST_FAILED

     1591    11861    4                ALTRET (OFREE_FAILED);
     1592    11862
     1593    11863    4              CALL VDG$OALLOC (%CLS_IT_OPERAND, T$)

  11863  1 002646   200016 630500                    EPPR0   T$,,AUTO
         1 002647   200061 450500                    STP0    NEW_SELECT$+2,,AUTO
         1 002650   000025 236000 2                  LDQ     21
         1 002651   200060 756100                    STQ     NEW_SELECT$+1,,AUTO
         1 002652   200060 630500                    EPPR0   NEW_SELECT$+1,,AUTO
         1 002653   000020 631400 xsym               EPPR1   B_VECTNIL+16
         1 002654   000000 701000 xent               TSX1    VDG$OALLOC
         1 002655   003217 702000 1                  TSX2    GUAR_LAST_ADJUST_FAILED

     1594    11864    4                ALTRET (OALLOC_FAILED);
     1595    11865    4              IT_OPERAND$ = T$;

  11865  1 002656   200016 236100                    LDQ     T$,,AUTO
         1 002657   200023 756100                    STQ     IT_OPERAND$,,AUTO

     1596    11866    4              IT$OPERAND.OPTIONS = EVAL_OPTIONS;

  11866  1 002660   200023 470500                    LDP0    IT_OPERAND$,,AUTO
         1 002661   200024 237100                    LDAQ    EVAL_OPTIONS,,AUTO
         1 002662   000004 755100                    STA     4,,PR0
         1 002663   000005 756100                    STQ     5,,PR0
PL6.E3A0      #001=VDE$PBLOCK_EXPR File=VDE$PARSE.:VDA5TSI                       FRI 07/04/97 11:13 Page:176

     1597    11867    4              IT$OPERAND.CODE# = %OPAND_NODE;

  11867  1 002664   000006 220003                    LDX0    6,DU
         1 002665   000003 740100                    STX0    3,,PR0

     1598    11868    4              IT$OPERAND.KEY = KEY;

  11868  1 002666   200034 237100                    LDAQ    KEY,,AUTO
         1 002667   000006 755100                    STA     6,,PR0
         1 002670   000007 756100                    STQ     7,,PR0

     1599    11869    4              ABS_MOVEMENT = %TRUE;

  11869  1 002671   400000 236003                    LDQ     -131072,DU
         1 002672   200033 756100                    STQ     ABS_MOVEMENT,,AUTO
         1 002673   003135 710000 1                  TRA     s:11963

     1600    11870
     1601    11871
     1602    11872    4            CASE (%T_LEVEL_NAME);

     1603    11873                   /* Fill in the default options for relative operands */
     1604    11874    4              IF NOT SRCH_SEEN THEN

  11874  1 002674   200026 234100                    SZN     SRCH_SEEN,,AUTO
         1 002675   002703 604000 1                  TMI     s:11876

     1605    11875    4                 EVAL_OPTIONS.SRCH = BINBIT(VD_$SEARCH.V#, 1);

  11875  1 002676   000003 236000 xsym               LDQ     VD_$SEARCH+3
         1 002677   000043 736000                    QLS     35
         1 002700   200024 676100                    ERQ     EVAL_OPTIONS,,AUTO
         1 002701   400000 376003                    ANQ     -131072,DU
         1 002702   200024 656100                    ERSQ    EVAL_OPTIONS,,AUTO

     1606    11876    4              IF NOT SKIP_SEEN THEN
PL6.E3A0      #001=VDE$PBLOCK_EXPR File=VDE$PARSE.:VDA5TSI                       FRI 07/04/97 11:13 Page:177

  11876  1 002703   200027 234100                    SZN     SKIP_SEEN,,AUTO
         1 002704   002707 604000 1                  TMI     s:11878

     1607    11877    4                 EVAL_OPTIONS.SKIP# = VD_$SKIP.V#;

  11877  1 002705   000003 720000 xsym               LXL0    VD_$SKIP+3
         1 002706   200024 440100                    SXL0    EVAL_OPTIONS,,AUTO

     1608    11878    4              IF EVAL_OPTIONS.DIRECTION# = 0 THEN

  11878  1 002707   200025 720100                    LXL0    FILE_KEY$,,AUTO
         1 002710   002713 601000 1                  TNZ     s:11881

     1609    11879    4                 EVAL_OPTIONS.DIRECTION# = VD_$DIRECTION.V#;

  11879  1 002711   000003 721000 xsym               LXL1    VD_$DIRECTION+3
         1 002712   200025 441100                    SXL1    FILE_KEY$,,AUTO

     1610    11880
     1611    11881    4              CALL VDG$OALLOC (%CLS_IT_OPERAND, T$)

  11881  1 002713   200016 631500                    EPPR1   T$,,AUTO
         1 002714   200061 451500                    STP1    NEW_SELECT$+2,,AUTO
         1 002715   000025 236000 2                  LDQ     21
         1 002716   200060 756100                    STQ     NEW_SELECT$+1,,AUTO
         1 002717   200060 630500                    EPPR0   NEW_SELECT$+1,,AUTO
         1 002720   000020 631400 xsym               EPPR1   B_VECTNIL+16
         1 002721   000000 701000 xent               TSX1    VDG$OALLOC
         1 002722   003217 702000 1                  TSX2    GUAR_LAST_ADJUST_FAILED

     1612    11882    4                ALTRET (OALLOC_FAILED);
     1613    11883    4              IT_OPERAND$ = T$;

  11883  1 002723   200016 236100                    LDQ     T$,,AUTO
         1 002724   200023 756100                    STQ     IT_OPERAND$,,AUTO

PL6.E3A0      #001=VDE$PBLOCK_EXPR File=VDE$PARSE.:VDA5TSI                       FRI 07/04/97 11:13 Page:178
     1614    11884    4              IT$OPERAND.OPTIONS = EVAL_OPTIONS;

  11884  1 002725   200023 470500                    LDP0    IT_OPERAND$,,AUTO
         1 002726   200024 237100                    LDAQ    EVAL_OPTIONS,,AUTO
         1 002727   000004 755100                    STA     4,,PR0
         1 002730   000005 756100                    STQ     5,,PR0

     1615    11885    4              IT$OPERAND.CODE# = %OPAND_NODE;

  11885  1 002731   000006 220003                    LDX0    6,DU
         1 002732   000003 740100                    STX0    3,,PR0
         1 002733   003135 710000 1                  TRA     s:11963

     1616    11886
     1617    11887
     1618    11888    4            CASE (%T_POSITIONS);

     1619    11889                   /* Fill in the default options for relative operands */
     1620    11890    4              IF NOT SRCH_SEEN THEN

  11890  1 002734   200026 234100                    SZN     SRCH_SEEN,,AUTO
         1 002735   002743 604000 1                  TMI     s:11892

     1621    11891    4                 EVAL_OPTIONS.SRCH = BINBIT(VD_$SEARCH.V#, 1);

  11891  1 002736   000003 236000 xsym               LDQ     VD_$SEARCH+3
         1 002737   000043 736000                    QLS     35
         1 002740   200024 676100                    ERQ     EVAL_OPTIONS,,AUTO
         1 002741   400000 376003                    ANQ     -131072,DU
         1 002742   200024 656100                    ERSQ    EVAL_OPTIONS,,AUTO

     1622    11892    4              IF NOT SKIP_SEEN THEN

  11892  1 002743   200027 234100                    SZN     SKIP_SEEN,,AUTO
         1 002744   002747 604000 1                  TMI     s:11894

     1623    11893    4                 EVAL_OPTIONS.SKIP# = VD_$SKIP.V#;
PL6.E3A0      #001=VDE$PBLOCK_EXPR File=VDE$PARSE.:VDA5TSI                       FRI 07/04/97 11:13 Page:179

  11893  1 002745   000003 720000 xsym               LXL0    VD_$SKIP+3
         1 002746   200024 440100                    SXL0    EVAL_OPTIONS,,AUTO

     1624    11894    4              IF EVAL_OPTIONS.DIRECTION# = 0 THEN

  11894  1 002747   200025 720100                    LXL0    FILE_KEY$,,AUTO
         1 002750   002753 601000 1                  TNZ     s:11897

     1625    11895    4                 EVAL_OPTIONS.DIRECTION# = VD_$DIRECTION.V#;

  11895  1 002751   000003 721000 xsym               LXL1    VD_$DIRECTION+3
         1 002752   200025 441100                    SXL1    FILE_KEY$,,AUTO

     1626    11896
     1627    11897    4              CALL VDG$OALLOC (%CLS_IT_OPERAND, T$)

  11897  1 002753   200016 631500                    EPPR1   T$,,AUTO
         1 002754   200061 451500                    STP1    NEW_SELECT$+2,,AUTO
         1 002755   000025 236000 2                  LDQ     21
         1 002756   200060 756100                    STQ     NEW_SELECT$+1,,AUTO
         1 002757   200060 630500                    EPPR0   NEW_SELECT$+1,,AUTO
         1 002760   000020 631400 xsym               EPPR1   B_VECTNIL+16
         1 002761   000000 701000 xent               TSX1    VDG$OALLOC
         1 002762   003217 702000 1                  TSX2    GUAR_LAST_ADJUST_FAILED

     1628    11898    4                ALTRET (OALLOC_FAILED);
     1629    11899    4              IT_OPERAND$ = T$;

  11899  1 002763   200016 236100                    LDQ     T$,,AUTO
         1 002764   200023 756100                    STQ     IT_OPERAND$,,AUTO

     1630    11900    4              IT$OPERAND.OPTIONS = EVAL_OPTIONS;

  11900  1 002765   200023 470500                    LDP0    IT_OPERAND$,,AUTO
         1 002766   200024 237100                    LDAQ    EVAL_OPTIONS,,AUTO
         1 002767   000004 755100                    STA     4,,PR0
PL6.E3A0      #001=VDE$PBLOCK_EXPR File=VDE$PARSE.:VDA5TSI                       FRI 07/04/97 11:13 Page:180
         1 002770   000005 756100                    STQ     5,,PR0

     1631    11901    4              IT$OPERAND.CODE# = %OPAND_POSITION;

  11901  1 002771   000007 220003                    LDX0    7,DU
         1 002772   000003 740100                    STX0    3,,PR0

     1632    11902
     1633    11903    5              IF OPERAND.NSUBLKS > 0 THEN DO;

  11903  1 002773   200031 471500                    LDP1    @OPERAND,,AUTO
         1 002774   100001 221100                    LDX1    1,,PR1
         1 002775   003135 600000 1                  TZE     s:11963

     1634    11904                      /* This is a specific position # */
     1635    11905    5                 IF OPERAND.SUBLK$(0)->OUT$BLK.CODE =

  11905  1 002776   100003 473500                    LDP3    3,,PR1
         1 002777   300000 722100                    LXL2    0,,PR3
         1 003000   002056 102003                    CMPX2   1070,DU
         1 003001   003020 601000 1                  TNZ     s:11916

     1636    11906    6                   %T_STRING_EXPR THEN DO;

     1637    11907    6                    CALL VDE$PNUMBER (OPERAND.SUBLK$(0)->OUT$BLK,

  11907  1 003002   200032 634500                    EPPR4   NUMBER,,AUTO
         1 003003   200061 454500                    STP4    NEW_SELECT$+2,,AUTO
         1 003004   200060 453500                    STP3    NEW_SELECT$+1,,AUTO
         1 003005   200060 630500                    EPPR0   NEW_SELECT$+1,,AUTO
         1 003006   000020 631400 xsym               EPPR1   B_VECTNIL+16
         1 003007   000000 701000 xent               TSX1    VDE$PNUMBER
         1 003010   003012 702000 1                  TSX2    s:11910
         1 003011   003017 710000 1                  TRA     s:11914

     1638    11908    6                      NUMBER)
     1639    11909    7                    WHENALTRETURN DO;
PL6.E3A0      #001=VDE$PBLOCK_EXPR File=VDE$PARSE.:VDA5TSI                       FRI 07/04/97 11:13 Page:181

     1640    11910    7                       CALL VDG$OFREE (IT$OPERAND)

  11910  1 003012   200023 630500                    EPPR0   IT_OPERAND$,,AUTO
         1 003013   000017 631400 xsym               EPPR1   B_VECTNIL+15
         1 003014   000000 701000 xent               TSX1    VDG$OFREE
         1 003015   003217 702000 1                  TSX2    GUAR_LAST_ADJUST_FAILED

     1641    11911    7                         ALTRET (OFREE_FAILED);
     1642    11912    7                       GOTO PNUMBER_FAILED;

  11912  1 003016   003217 710000 1                  TRA     GUAR_LAST_ADJUST_FAILED

     1643    11913    7                       END;
     1644    11914    6                    END;

  11914  1 003017   003036 710000 1                  TRA     s:11924

     1645    11915    6                 ELSE DO;

     1646    11916    6                    CALL X$DEC_CONVERT (OPERAND.SUBLK$(0)->OUT$SYM.TEXTC$,

  11916  1 003020   200032 634500                    EPPR4   NUMBER,,AUTO
         1 003021   200061 454500                    STP4    NEW_SELECT$+2,,AUTO
         1 003022   300003 635500                    EPPR5   3,,PR3
         1 003023   200060 455500                    STP5    NEW_SELECT$+1,,AUTO
         1 003024   200060 630500                    EPPR0   NEW_SELECT$+1,,AUTO
         1 003025   000020 631400 xsym               EPPR1   B_VECTNIL+16
         1 003026   000000 701000 xent               TSX1    X$DEC_CONVERT
         1 003027   003031 702000 1                  TSX2    s:11919
         1 003030   003036 710000 1                  TRA     s:11924

     1647    11917    6                      NUMBER)
     1648    11918    7                    WHENALTRETURN DO;

     1649    11919    7                       CALL VDG$OFREE (IT$OPERAND)

PL6.E3A0      #001=VDE$PBLOCK_EXPR File=VDE$PARSE.:VDA5TSI                       FRI 07/04/97 11:13 Page:182
  11919  1 003031   200023 630500                    EPPR0   IT_OPERAND$,,AUTO
         1 003032   000017 631400 xsym               EPPR1   B_VECTNIL+15
         1 003033   000000 701000 xent               TSX1    VDG$OFREE
         1 003034   003217 702000 1                  TSX2    GUAR_LAST_ADJUST_FAILED

     1650    11920    7                         ALTRET (OFREE_FAILED);
     1651    11921    7                       GOTO DEC_CONVERT_FAILED;

  11921  1 003035   003217 710000 1                  TRA     GUAR_LAST_ADJUST_FAILED

     1652    11922    7                       END;
     1653    11923    6                    END;

     1654    11924    5                 IF NUMBER <= 0

  11924  1 003036   200032 235100                    LDA     NUMBER,,AUTO
         1 003037   003174 604400 1                  TMOZ    POSITION_NOT_IN_RANGE_FAILURE
         1 003040   004000 115007                    CMPA    2048,DL
         1 003041   003174 605400 1                  TPNZ    POSITION_NOT_IN_RANGE_FAILURE

     1655    11925    5                   OR NUMBER > %MXNB_DATA THEN
     1656    11926    5                    GOTO POSITION_NOT_IN_RANGE_FAILURE;
     1657    11927    5                 IT$OPERAND.KEY = %CLEAR;

  11927  1 003042   200023 470500                    LDP0    IT_OPERAND$,,AUTO
         1 003043   000006 450100                    STZ     6,,PR0
         1 003044   000007 450100                    STZ     7,,PR0

     1658    11928    5                 IT$OPERAND.KEY.TYPE# = %KT_NUMBER;

  11928  1 003045   000001 220003                    LDX0    1,DU
         1 003046   000006 740100                    STX0    6,,PR0

     1659    11929    5                 IT$OPERAND.KEY.REP# = %REP_LOCAL;

  11929  1 003047   000006 440100                    SXL0    6,,PR0

PL6.E3A0      #001=VDE$PBLOCK_EXPR File=VDE$PARSE.:VDA5TSI                       FRI 07/04/97 11:13 Page:183
     1660    11930    5                 ADDR(IT$OPERAND.KEY)->VD$KEY_NUMBER.LENGTH# = %NB_NUMERIC_KEY;

  11930  1 003050   003000 236003                    LDQ     1536,DU
         1 003051   000007 552140                    STBQ    7,'40'O,PR0

     1661    11931    5                 ADDR(IT$OPERAND.KEY)->VD$KEY_NUMBER.BYTES# = NUMBER - 1;

  11931  1 003052   200032 236100                    LDQ     NUMBER,,AUTO
         1 003053   000001 136007                    SBLQ    1,DL
         1 003054   000007 552134                    STBQ    7,'34'O,PR0

     1662    11932    5                 END;

  11932  1 003055   003135 710000 1                  TRA     s:11963

     1663    11933
     1664    11934
     1665    11935    4            CASE (%T_PATTERN);

     1666    11936                   /* Fill in the default options for relative operands */
     1667    11937    4              IF NOT SRCH_SEEN THEN

  11937  1 003056   200026 234100                    SZN     SRCH_SEEN,,AUTO
         1 003057   003065 604000 1                  TMI     s:11939

     1668    11938    4                 EVAL_OPTIONS.SRCH = BINBIT(VD_$SEARCH.V#, 1);

  11938  1 003060   000003 236000 xsym               LDQ     VD_$SEARCH+3
         1 003061   000043 736000                    QLS     35
         1 003062   200024 676100                    ERQ     EVAL_OPTIONS,,AUTO
         1 003063   400000 376003                    ANQ     -131072,DU
         1 003064   200024 656100                    ERSQ    EVAL_OPTIONS,,AUTO

     1669    11939    4              IF NOT SKIP_SEEN THEN

  11939  1 003065   200027 234100                    SZN     SKIP_SEEN,,AUTO
         1 003066   003071 604000 1                  TMI     s:11941
PL6.E3A0      #001=VDE$PBLOCK_EXPR File=VDE$PARSE.:VDA5TSI                       FRI 07/04/97 11:13 Page:184

     1670    11940    4                 EVAL_OPTIONS.SKIP# = VD_$SKIP.V#;

  11940  1 003067   000003 720000 xsym               LXL0    VD_$SKIP+3
         1 003070   200024 440100                    SXL0    EVAL_OPTIONS,,AUTO

     1671    11941    4              IF EVAL_OPTIONS.DIRECTION# = 0 THEN

  11941  1 003071   200025 720100                    LXL0    FILE_KEY$,,AUTO
         1 003072   003075 601000 1                  TNZ     s:11944

     1672    11942    4                 EVAL_OPTIONS.DIRECTION# = VD_$DIRECTION.V#;

  11942  1 003073   000003 721000 xsym               LXL1    VD_$DIRECTION+3
         1 003074   200025 441100                    SXL1    FILE_KEY$,,AUTO

     1673    11943
     1674    11944    4              CALL VDG$OALLOC (%CLS_IT_OPERAND, T$)

  11944  1 003075   200016 631500                    EPPR1   T$,,AUTO
         1 003076   200061 451500                    STP1    NEW_SELECT$+2,,AUTO
         1 003077   000025 236000 2                  LDQ     21
         1 003100   200060 756100                    STQ     NEW_SELECT$+1,,AUTO
         1 003101   200060 630500                    EPPR0   NEW_SELECT$+1,,AUTO
         1 003102   000020 631400 xsym               EPPR1   B_VECTNIL+16
         1 003103   000000 701000 xent               TSX1    VDG$OALLOC
         1 003104   003217 702000 1                  TSX2    GUAR_LAST_ADJUST_FAILED

     1675    11945    4                ALTRET (OALLOC_FAILED);
     1676    11946    4              IT_OPERAND$ = T$;

  11946  1 003105   200016 236100                    LDQ     T$,,AUTO
         1 003106   200023 756100                    STQ     IT_OPERAND$,,AUTO

     1677    11947    4              IT$OPERAND.OPTIONS = EVAL_OPTIONS;

  11947  1 003107   200023 470500                    LDP0    IT_OPERAND$,,AUTO
PL6.E3A0      #001=VDE$PBLOCK_EXPR File=VDE$PARSE.:VDA5TSI                       FRI 07/04/97 11:13 Page:185
         1 003110   200024 237100                    LDAQ    EVAL_OPTIONS,,AUTO
         1 003111   000004 755100                    STA     4,,PR0
         1 003112   000005 756100                    STQ     5,,PR0

     1678    11948    4              IT$OPERAND.CODE# = %OPAND_PATTERN;

  11948  1 003113   000010 220003                    LDX0    8,DU
         1 003114   000003 740100                    STX0    3,,PR0

     1679    11949    4              CALL VDE$PPATTERN (OPERAND, IT$OPERAND.PARAM$)

  11949  1 003115   200023 236100                    LDQ     IT_OPERAND$,,AUTO
         1 003116   000010 036003                    ADLQ    8,DU
         1 003117   200031 235100                    LDA     @OPERAND,,AUTO
         1 003120   200060 757100                    STAQ    NEW_SELECT$+1,,AUTO
         1 003121   200060 630500                    EPPR0   NEW_SELECT$+1,,AUTO
         1 003122   000020 631400 xsym               EPPR1   B_VECTNIL+16
         1 003123   000000 701000 xent               TSX1    VDE$PPATTERN
         1 003124   003211 702000 1                  TSX2    PPATTERN_FAILED
         1 003125   003135 710000 1                  TRA     s:11963

     1680    11950    4                ALTRET (PPATTERN_FAILED);
     1681    11951
     1682    11952
     1683    11953    4            CASE (ELSE);

     1684    11954    4              CALL VDG$ESCREECH (OPERAND.CODE);

  11954  1 003126   200031 236100                    LDQ     @OPERAND,,AUTO
         1 003127   400000 036007                    ADLQ    -131072,DL
         1 003130   200060 756100                    STQ     NEW_SELECT$+1,,AUTO
         1 003131   200060 630500                    EPPR0   NEW_SELECT$+1,,AUTO
         1 003132   000017 631400 xsym               EPPR1   B_VECTNIL+15
         1 003133   000000 701000 xent               TSX1    VDG$ESCREECH
         1 003134   000000 011000                    NOP     0

     1685    11955
PL6.E3A0      #001=VDE$PBLOCK_EXPR File=VDE$PARSE.:VDA5TSI                       FRI 07/04/97 11:13 Page:186
     1686    11956    4            END MOVE_CHILD_CODE_CASES;

     1687    11957
     1688    11958
     1689    11959                /*
     1690    11960                *   Link the new IT$OPERAND node into InTree.
     1691    11961                */
     1692    11962
     1693    11963    4           IF ABS_MOVEMENT THEN DO;

  11963  1 003135   200033 234100                    SZN     ABS_MOVEMENT,,AUTO
         1 003136   003141 605000 1                  TPL     s:11968

     1694    11964    4              CALL ABS_IT_OPERAND

  11964  1 003137   003533 701000 1                  TSX1    ABS_IT_OPERAND
         1 003140   003217 702000 1                  TSX2    GUAR_LAST_ADJUST_FAILED

     1695    11965    4                ALTRET (ABS_IT_OPERAND_FAILED);
     1696    11966    4              END;

     1697    11967
     1698    11968    3           IT$OPERAND.PARENT$ = LAST_ADJUST$;

  11968  1 003141   200010 236100                    LDQ     LAST_ADJUST$,,AUTO
         1 003142   200023 470500                    LDP0    IT_OPERAND$,,AUTO
         1 003143   000001 756100                    STQ     1,,PR0

     1699    11969    3           IF LAST_MOVEMENT$ = ADDR(NIL) THEN

  11969  1 003144   200011 236100                    LDQ     LAST_MOVEMENT$,,AUTO
         1 003145   000001 116000 xsym               CMPQ    B_VECTNIL+1
         1 003146   003153 601000 1                  TNZ     s:11972

     1700    11970    3              LAST$ADJUST.MOVEMENTS$ = IT_OPERAND$;

  11970  1 003147   200023 236100                    LDQ     IT_OPERAND$,,AUTO
PL6.E3A0      #001=VDE$PBLOCK_EXPR File=VDE$PARSE.:VDA5TSI                       FRI 07/04/97 11:13 Page:187
         1 003150   200010 471500                    LDP1    LAST_ADJUST$,,AUTO
         1 003151   100004 756100                    STQ     4,,PR1
         1 003152   003156 710000 1                  TRA     s:11973

     1701    11971    3           ELSE
     1702    11972    3              LAST$MOVEMENT.FLINK$ = IT_OPERAND$;

  11972  1 003153   200023 236100                    LDQ     IT_OPERAND$,,AUTO
         1 003154   200011 471500                    LDP1    LAST_MOVEMENT$,,AUTO
         1 003155   100002 756100                    STQ     2,,PR1

     1703    11973    3           LAST$ADJUST.MOVEMENTS_TAIL$ = IT_OPERAND$;

  11973  1 003156   200010 471500                    LDP1    LAST_ADJUST$,,AUTO
         1 003157   100005 756100                    STQ     5,,PR1

     1704    11974    3           LAST_MOVEMENT$ = IT_OPERAND$;

  11974  1 003160   200011 756100                    STQ     LAST_MOVEMENT$,,AUTO

     1705    11975
     1706    11976    3           RETURN;

  11976  1 003161   200030 221300                    LDX1  ! STRING_LOC,,AUTO
         1 003162   000001 702211                    TSX2  ! 1,X1

     1707    11977
     1708    11978
     1709    11979                %BOX (TITLE="Error Handlers");

             11991    3   /***************************************************************************
             11993    3    *                                                                         *
             11997    3            *                               Error Handlers                           *
             11999    3            *                                                                        *
             12001    3          ***************************************************************************/

     1710    12005
PL6.E3A0      #001=VDE$PBLOCK_EXPR File=VDE$PARSE.:VDA5TSI                       FRI 07/04/97 11:13 Page:188
     1711    12006    3   LO_NAME_OPTS_NOT_LEGAL_FAILURE:
     1712    12007    3           ERR_CODE = %E$LO_NAME_OPTIONS_NOT_LEGAL;

  12007  1 003163   000117 235007       LO_NAME_OPT* LDA     79,DL
         1 003164   200042 755100                    STA     ERR_CODE,,AUTO

     1713    12008    3           GOTO SERIOUS_USER_ERROR;

  12008  1 003165   003177 710000 1                  TRA     SERIOUS_USER_ERROR

     1714    12009
     1715    12010    3   KEY_OPTIONS_NOT_LEGAL_FAILURE:
     1716    12011    3           ERR_CODE = %E$KEY_OPTIONS_NOT_LEGAL;

  12011  1 003166   000116 235007       KEY_OPTIONS* LDA     78,DL
         1 003167   200042 755100                    STA     ERR_CODE,,AUTO

     1717    12012    3           GOTO SERIOUS_USER_ERROR;

  12012  1 003170   003177 710000 1                  TRA     SERIOUS_USER_ERROR

     1718    12013
     1719    12014    3   CTRLFN_CONFLICTS_W_KEY_FAILURE:
     1720    12015    3           ERR_CODE = %E$CTRLFN_CONFLICTS_W_KEY;

  12015  1 003171   000132 235007       CTRLFN_CONF* LDA     90,DL
         1 003172   200042 755100                    STA     ERR_CODE,,AUTO

     1721    12016    3           GOTO SERIOUS_USER_ERROR;

  12016  1 003173   003177 710000 1                  TRA     SERIOUS_USER_ERROR

     1722    12017
     1723    12018    3   POSITION_NOT_IN_RANGE_FAILURE:
     1724    12019    3           ERR_CODE = %E$POSITION_VALUE_NOT_IN_RANGE;

  12019  1 003174   000123 236007       POSITION_NO* LDQ     83,DL
PL6.E3A0      #001=VDE$PBLOCK_EXPR File=VDE$PARSE.:VDA5TSI                       FRI 07/04/97 11:13 Page:189
         1 003175   200042 756100                    STQ     ERR_CODE,,AUTO

     1725    12020    3           GOTO SERIOUS_USER_ERROR;

  12020  1 003176   003177 710000 1                  TRA     SERIOUS_USER_ERROR

     1726    12021
     1727    12022
     1728    12023    3   SERIOUS_USER_ERROR:
     1729    12024    4           CALL VDG$ERRMSG (ERR_CODE) WHENRETURN DO;

  12024  1 003177   200042 630500       SERIOUS_USE* EPPR0   ERR_CODE,,AUTO
         1 003200   200060 450500                    STP0    NEW_SELECT$+1,,AUTO
         1 003201   200060 630500                    EPPR0   NEW_SELECT$+1,,AUTO
         1 003202   000017 631400 xsym               EPPR1   B_VECTNIL+15
         1 003203   000000 701000 xent               TSX1    VDG$ERRMSG
         1 003204   003211 702000 1                  TSX2    PPATTERN_FAILED

     1730    12025    4              LAST$ERR.CMDLINE_INDEX# = OPERAND.CPOS;

  12025  1 003205   200031 470500                    LDP0    @OPERAND,,AUTO
         1 003206   000002 720100                    LXL0    2,,PR0
         1 003207   000032 471400 xsym               LDP1    VD_6E+26
         1 003210   100003 440100                    SXL0    3,,PR1

     1731    12026    4              END;

     1732    12027
     1733    12028
     1734    12029    3   PPATTERN_FAILED:
     1735    12030    3           CALL VDG$OFREE (IT$OPERAND)

  12030  1 003211   200023 630500       PPATTERN_FA* EPPR0   IT_OPERAND$,,AUTO
         1 003212   000017 631400 xsym               EPPR1   B_VECTNIL+15
         1 003213   000000 701000 xent               TSX1    VDG$OFREE
         1 003214   003217 702000 1                  TSX2    GUAR_LAST_ADJUST_FAILED

PL6.E3A0      #001=VDE$PBLOCK_EXPR File=VDE$PARSE.:VDA5TSI                       FRI 07/04/97 11:13 Page:190
     1736    12031    3             ALTRET (OFREE_FAILED);
     1737    12032    3           ALTRETURN;

  12032  1 003215   200030 221300                    LDX1  ! STRING_LOC,,AUTO
         1 003216   000000 702211                    TSX2  ! 0,X1

  12025  1 003217                       GUAR_LAST_A* null
  12025  1 003217                       PNUMBER_FAI* null
  12025  1 003217                       PSTRING_FAI* null
  12025  1 003217                       DEC_CONVERT* null
  12025  1 003217                       PLO_NAME_FA* null
  12025  1 003217                       PNUMERIC_KE* null
  12025  1 003217                       ABS_IT_OPER* null
  12025  1 003217                       OFREE_FAILED null
  12025  1 003217                       OALLOC_FAIL* null
     1738    12033
     1739    12034
     1740    12035    3   GUAR_LAST_ADJUST_FAILED: ;
     1741    12036    3   PNUMBER_FAILED: ;
     1742    12037    3   PSTRING_FAILED: ;
     1743    12038    3   DEC_CONVERT_FAILED: ;
     1744    12039    3   PLO_NAME_FAILED: ;
     1745    12040    3   PNUMERIC_KEY_FAILED: ;
     1746    12041    3   ABS_IT_OPERAND_FAILED: ;
     1747    12042    3   OFREE_FAILED: ;
     1748    12043    3   OALLOC_FAILED: ;
     1749    12044    3           ALTRETURN;

  12044  1 003217   200030 221300                    LDX1  ! STRING_LOC,,AUTO
         1 003220   000000 702211                    TSX2  ! 0,X1

     1750    12045
     1751    12046
     1752    12047                %BOX (TITLE=PLO_NAME);

             12059    3   /***************************************************************************
             12061    3    *                                                                         *
PL6.E3A0      #001=VDE$PBLOCK_EXPR File=VDE$PARSE.:VDA5TSI                       FRI 07/04/97 11:13 Page:191
             12065    3            *                                  PLO_NAME                              *
             12067    3            *                                                                        *
             12069    3          ***************************************************************************/

     1753    12073
     1754    12074        /*I*** NAME: PLO_NAME
     1755    12075            PARAMETERS:
     1756    12076                PT_LO_NAME - PARSE$OUT node whose code is %T_LO_NAME.
     1757    12077            INPUT:
     1758    12078                EVAL_OPTIONS - VD$EVAL_OPTIONS containing values from the
     1759    12079                    T_MOVEMENT clause evaluation options seen so far.
     1760    12080                IT$BLOCK_EXPR - The VD$IT_BLOCK_EXPR root node of the InTree.
     1761    12081                    Its .DOMAINN must be %CLEAR, or must specify the domain
     1762    12082                    for this block expression.
     1763    12083                EDIT$BLOCK - If IT$BLOCK_EXPR.DOMAINN is %CLEAR, then EDIT$BLOCK
     1764    12084                    must specifiy the domain for this block expression.
     1765    12085                LAST$SELECT, LAST$ADJUST - The last IT_SELECT and IT_ADJUST
     1766    12086                    nodes in the InTree currently.  They must exist.
     1767    12087            OUTPUT:
     1768    12088                If no errors found:
     1769    12089                    IT_OPERAND$ and LAST_MOVEMENT$ will point to the VD$IT_OPERAND
     1770    12090                        node for the LO-name.  It will NOT be linked into the
     1771    12091                        InTree yet; its .OPTIONS will contain EVAL_OPTIONS.
     1772    12092                        Its .CODE# will be either:
     1773    12093                        o %OPAND_LO_NAME; its .KEY will be the key for level 1
     1774    12094                            of the Locations-file for the name.
     1775    12095                        o %OPAND_BLOCK_DESC; its .PARAM$ will point to the
     1776    12096                            VD_BLOCK_DESC which is the value of this operand.
     1777    12097            DESCRIPTION:
     1778    12098                The PT_LO_NAME node must have one child:  an OUT$SYM node
     1779    12099                containing the Location-name.
     1780    12100
     1781    12101                Procedure:
     1782    12102                During the parse, VDI$PUSER_PARSE_RTN should have verified
     1783    12103                    that the name exists in the Locations-file before
     1784    12104                    accepting the T_LO_NAME parse node.
     1785    12105                Read the name from the Locations-file.
PL6.E3A0      #001=VDE$PBLOCK_EXPR File=VDE$PARSE.:VDA5TSI                       FRI 07/04/97 11:13 Page:192
     1786    12106                Verify that the file containing the name's value is the same
     1787    12107                    as the file containing the domain of the current block
     1788    12108                    expression.
     1789    12109                Allocate an IT$OPERAND node, and store the name as a key
     1790    12110                    into the Locations-file in the IT$OPERAND node.
     1791    12111                If the name isn't writable by the user and doesn't start
     1792    12112                    with a dollar sign, then make a copy of the name's
     1793    12113                    value (a VD$BLOCK_DESC) and point IT$OPERAND to the copy.
     1794    12114                    This is done for CURRENT, HERE, and THAT because they
     1795    12115                    refer to the respective value at the start of command
     1796    12116                    processing.  Other LO-name references are dynamically
     1797    12117                    re-evaluated (re-read from the Locations-file) each
     1798    12118                    time they're referenced during block expression evaluation.
     1799    12119                    (This is useful both for the $ENCLOSING, $FP, and $RANGE
     1800    12120                    names, whose values change during evaluation, and for
     1801    12121                    user-defined names in repeated block expressions, whose
     1802    12122                    values may change for each repetition of the evaluation
     1803    12123                    of the block expression.)
     1804    12124        */
     1805    12125
     1806    12126    3   PLO_NAME: PROC (PT_LO_NAME) ALTRET;

  12126  1 003221   200044 741300       PLO_NAME     STX1  ! RET_CODE,,AUTO

     1807    12127
     1808    12128        %PARSE$OUT (NAME=PT_LO_NAME, STCLASS=PARAM);
     1809    12173
     1810    12174
     1811    12175    4   DCL PT_SYMBOL$ PTR;
     1812    12176    4   DCL BLOCK_DESC$ PTR;
     1813    12177    4   DCL NAME_NODE$ PTR;
     1814    12178    4   DCL LO_NAME_FILE_KEY$ PTR;
     1815    12179    4   DCL DOMAIN_FILE_KEY$ PTR;
     1816    12180    4   DCL INDX SBIN;
     1817    12181
     1818    12182
     1819    12183        %PARSE$SYM (NAME=PT$SYMBOL, STCLASS="BASED(PT_SYMBOL$)");
PL6.E3A0      #001=VDE$PBLOCK_EXPR File=VDE$PARSE.:VDA5TSI                       FRI 07/04/97 11:13 Page:193
     1820    12221        %VD$BLOCK_DESC (NAME=BLOCK$DESC, STCLASS="BASED(BLOCK_DESC$)");
     1821    12368        %VD$FILE_NODE (NAME=NAME$NODE, STCLASS="BASED(NAME_NODE$)");
     1822    12461        %VD$TEXTC (NAME=LO$NAME_FILE_KEY, STCLASS="BASED(LO_NAME_FILE_KEY$)");
     1823    12484        %VD$TEXTC (NAME=DOMAIN$FILE_KEY, STCLASS="BASED(DOMAIN_FILE_KEY$)");
     1824    12507        %VD$TEXTC;
     1825    12530
     1826    12531
     1827    12532
     1828    12533    4           PT_SYMBOL$ = PT_LO_NAME.SUBLK$ (0);

  12533  1 003222   200045 470500                    LDP0    @PT_LO_NAME,,AUTO
         1 003223   000003 236100                    LDQ     3,,PR0
         1 003224   200046 756100                    STQ     PT_SYMBOL$,,AUTO

     1829    12534    4           CALL VDE$PREAD_LO_NAME (PT$SYMBOL.TEXTC$->VD$TEXTC,

  12534  1 003225   200046 471500                    LDP1    PT_SYMBOL$,,AUTO
         1 003226   100003 473500                    LDP3    3,,PR1
         1 003227   200050 634500                    EPPR4   NAME_NODE$,,AUTO
         1 003230   200062 454500                    STP4    NEW_SELECT$+3,,AUTO
         1 003231   200047 635500                    EPPR5   BLOCK_DESC$,,AUTO
         1 003232   200061 455500                    STP5    NEW_SELECT$+2,,AUTO
         1 003233   200060 453500                    STP3    NEW_SELECT$+1,,AUTO
         1 003234   200060 630500                    EPPR0   NEW_SELECT$+1,,AUTO
         1 003235   000021 631400 xsym               EPPR1   B_VECTNIL+17
         1 003236   000000 701000 xent               TSX1    VDE$PREAD_LO_NAME
         1 003237   003531 702000 1                  TSX2    PREAD_LO_NAME_FAILED

     1830    12535    4             BLOCK_DESC$, NAME_NODE$)
     1831    12536    4             ALTRET (PREAD_LO_NAME_FAILED);
     1832    12537
     1833    12538                %GETKEY (KEY=BLOCK$DESC.FILE_KEY, PTR=LO_NAME_FILE_KEY$);

  12545  1 003240   200047 470500                    LDP0    BLOCK_DESC$,,AUTO
         1 003241   000001 720100                    LXL0    1,,PR0
         1 003242   000002 100003                    CMPX0   2,DU
         1 003243   003250 601000 1                  TNZ     s:12545+8
PL6.E3A0      #001=VDE$PBLOCK_EXPR File=VDE$PARSE.:VDA5TSI                       FRI 07/04/97 11:13 Page:194

  12545  1 003244   000002 471500                    LDP1    2,,PR0
         1 003245   100002 633500                    EPPR3   2,,PR1
         1 003246   200051 453500                    STP3    LO_NAME_FILE_KEY$,,AUTO
         1 003247   003253 710000 1                  TRA     s:12548

  12545  1 003250   200047 236100                    LDQ     BLOCK_DESC$,,AUTO
         1 003251   000002 036003                    ADLQ    2,DU
         1 003252   200051 756100                    STQ     LO_NAME_FILE_KEY$,,AUTO

     1834    12548    5           IF IT$BLOCK_EXPR.DOMAINN = %CLEAR THEN DO;

  12548  1 003253   200006 471500                    LDP1    IT_BLOCK_EXPR$,,AUTO
         1 003254   000000 106500                    CMPC    fill='000'O
         1 003255   100003 000124                    ADSC9   3,,PR1                   cn=0,n=84
         1 003256   000002 000002 xsym               ADSC9   B_VECTNIL+2              cn=0,n=2
         1 003257   003274 601000 1                  TNZ     s:12569

     1835    12549                   %GETKEY (KEY=EDIT$BLOCK.FILE_KEY, PTR=DOMAIN_FILE_KEY$);

  12556  1 003260   200005 473500                    LDP3    EDIT_BLOCK$,,AUTO
         1 003261   300001 721100                    LXL1    1,,PR3
         1 003262   000002 101003                    CMPX1   2,DU
         1 003263   003270 601000 1                  TNZ     s:12556+8

  12556  1 003264   300002 474500                    LDP4    2,,PR3
         1 003265   400002 635500                    EPPR5   2,,PR4
         1 003266   200052 455500                    STP5    DOMAIN_FILE_KEY$,,AUTO
         1 003267   003306 710000 1                  TRA     s:12573

  12556  1 003270   200005 236100                    LDQ     EDIT_BLOCK$,,AUTO
         1 003271   000002 036003                    ADLQ    2,DU
         1 003272   200052 756100                    STQ     DOMAIN_FILE_KEY$,,AUTO

     1836    12559    5              END;

  12559  1 003273   003306 710000 1                  TRA     s:12573
PL6.E3A0      #001=VDE$PBLOCK_EXPR File=VDE$PARSE.:VDA5TSI                       FRI 07/04/97 11:13 Page:195

     1837    12560    5           ELSE DO;

     1838    12561                   %GETKEY (KEY=IT$BLOCK_EXPR.DOMAINN.FILE_KEY,
     1839    12562                   PTR=DOMAIN_FILE_KEY$);

  12569  1 003274   100004 721100                    LXL1    4,,PR1
         1 003275   000002 101003                    CMPX1   2,DU
         1 003276   003303 601000 1                  TNZ     s:12569+7

  12569  1 003277   100005 473500                    LDP3    5,,PR1
         1 003300   300002 634500                    EPPR4   2,,PR3
         1 003301   200052 454500                    STP4    DOMAIN_FILE_KEY$,,AUTO
         1 003302   003306 710000 1                  TRA     s:12573

  12569  1 003303   200006 236100                    LDQ     IT_BLOCK_EXPR$,,AUTO
         1 003304   000005 036003                    ADLQ    5,DU
         1 003305   200052 756100                    STQ     DOMAIN_FILE_KEY$,,AUTO

     1840    12572    5              END;

     1841    12573    4           IF LO$NAME_FILE_KEY.BYTES ~= DOMAIN$FILE_KEY.BYTES THEN

  12573  1 003306   200051 473500                    LDP3    LO_NAME_FILE_KEY$,,AUTO
         1 003307   300000 236100                    LDQ     0,,PR3
         1 003310   000033 772000                    QRL     27
         1 003311   200052 474500                    LDP4    DOMAIN_FILE_KEY$,,AUTO
         1 003312   000000 621006                    EAX1    0,QL
         1 003313   400000 236100                    LDQ     0,,PR4
         1 003314   000033 772000                    QRL     27
         1 003315   000000 622006                    EAX2    0,QL
         1 003316   040140 106540                    CMPC    fill='040'O
         1 003317   300000 200011                    ADSC9   0,,PR3                   cn=1,n=*X1
         1 003320   400000 200012                    ADSC9   0,,PR4                   cn=1,n=*X2
         1 003321   003434 601000 1                  TNZ     DOMAIN_OPAND_NOT_1ST_FAILURE

     1842    12574    4              GOTO DOMAIN_OPAND_NOT_1ST_FAILURE;
PL6.E3A0      #001=VDE$PBLOCK_EXPR File=VDE$PARSE.:VDA5TSI                       FRI 07/04/97 11:13 Page:196
     1843    12575
     1844    12576    4           CALL VDG$OALLOC (%CLS_IT_OPERAND, T$)

  12576  1 003322   200016 635500                    EPPR5   T$,,AUTO
         1 003323   200061 455500                    STP5    NEW_SELECT$+2,,AUTO
         1 003324   000025 236000 2                  LDQ     21
         1 003325   200060 756100                    STQ     NEW_SELECT$+1,,AUTO
         1 003326   200060 630500                    EPPR0   NEW_SELECT$+1,,AUTO
         1 003327   000020 631400 xsym               EPPR1   B_VECTNIL+16
         1 003330   000000 701000 xent               TSX1    VDG$OALLOC
         1 003331   003531 702000 1                  TSX2    PREAD_LO_NAME_FAILED

     1845    12577    4             ALTRET (OALLOC_FAILED);
     1846    12578    4           IT_OPERAND$ = T$;

  12578  1 003332   200016 236100                    LDQ     T$,,AUTO
         1 003333   200023 756100                    STQ     IT_OPERAND$,,AUTO

     1847    12579    4           IT$OPERAND.OPTIONS = EVAL_OPTIONS;

  12579  1 003334   200023 470500                    LDP0    IT_OPERAND$,,AUTO
         1 003335   200024 237100                    LDAQ    EVAL_OPTIONS,,AUTO
         1 003336   000004 755100                    STA     4,,PR0
         1 003337   000005 756100                    STQ     5,,PR0

     1848    12580
     1849    12581    4           IF NAME$NODE.ACCESS (%NAC_WRITE)

  12581  1 003340   200050 471500                    LDP1    NAME_NODE$,,AUTO
         1 003341   100003 236100                    LDQ     3,,PR1
         1 003342   100000 316003                    CANQ    32768,DU
         1 003343   003353 601000 1                  TNZ     s:12583
         1 003344   200046 473500                    LDP3    PT_SYMBOL$,,AUTO
         1 003345   300004 236100                    LDQ     4,,PR3
         1 003346   000033 772000                    QRL     27
         1 003347   300004 236100                    LDQ     4,,PR3
         1 003350   000777 376003                    ANQ     511,DU
PL6.E3A0      #001=VDE$PBLOCK_EXPR File=VDE$PARSE.:VDA5TSI                       FRI 07/04/97 11:13 Page:197
         1 003351   000044 116003                    CMPQ    36,DU
         1 003352   003420 601000 1                  TNZ     s:12595

     1850    12582    5             OR SUBSTR(PT$SYMBOL.TEXT, 0, 1) = %CHR_DOLLAR THEN DO;

     1851    12583    5              IT$OPERAND.CODE# = %OPAND_LO_NAME;

  12583  1 003353   000002 220003                    LDX0    2,DU
         1 003354   000003 740100                    STX0    3,,PR0

     1852    12584    5              IT$OPERAND.KEY.TYPE# = %KT_STRING;

  12584  1 003355   000006 740100                    STX0    6,,PR0

     1853    12585    5              IT$OPERAND.KEY.REP# = %REP_REMOTE;

  12585  1 003356   000006 440100                    SXL0    6,,PR0

     1854    12586    5              CALL VDG$OALLOC (%CLS_TEXTC_REMOTE, IT$OPERAND.KEY.V$,

  12586  1 003357   200046 471500                    LDP1    PT_SYMBOL$,,AUTO
         1 003360   100004 236100                    LDQ     4,,PR1
         1 003361   000033 772000                    QRL     27
         1 003362   000014 036007                    ADLQ    12,DL
         1 003363   000002 772000                    QRL     2
         1 003364   200060 756100                    STQ     NEW_SELECT$+1,,AUTO
         1 003365   200060 633500                    EPPR3   NEW_SELECT$+1,,AUTO
         1 003366   200063 453500                    STP3    NEW_SELECT$+4,,AUTO
         1 003367   200023 236100                    LDQ     IT_OPERAND$,,AUTO
         1 003370   000007 036003                    ADLQ    7,DU
         1 003371   200062 756100                    STQ     NEW_SELECT$+3,,AUTO
         1 003372   000037 236000 2                  LDQ     31
         1 003373   200061 756100                    STQ     NEW_SELECT$+2,,AUTO
         1 003374   200061 630500                    EPPR0   NEW_SELECT$+2,,AUTO
         1 003375   000021 631400 xsym               EPPR1   B_VECTNIL+17
         1 003376   000000 701000 xent               TSX1    VDG$OALLOC
         1 003377   003531 702000 1                  TSX2    PREAD_LO_NAME_FAILED
PL6.E3A0      #001=VDE$PBLOCK_EXPR File=VDE$PARSE.:VDA5TSI                       FRI 07/04/97 11:13 Page:198

     1855    12587    5                (LENGTHC(VD$STRING_HEADER) + PT$SYMBOL.COUNT + %NB_PER_WORD-1) /
     1856    12588    5                %NB_PER_WORD)
     1857    12589    5                ALTRET (OALLOC_FAILED);
     1858    12590    5              IT$OPERAND.KEY.V$->VD$TEXTC_REMOTE.LENGTH# = PT$SYMBOL.COUNT;

  12590  1 003400   200023 470500                    LDP0    IT_OPERAND$,,AUTO
         1 003401   000007 471500                    LDP1    7,,PR0
         1 003402   200046 473500                    LDP3    PT_SYMBOL$,,AUTO
         1 003403   300004 236100                    LDQ     4,,PR3
         1 003404   100002 552140                    STBQ    2,'40'O,PR1

     1859    12591    5              IT$OPERAND.KEY.V$->VD$TEXTC_REMOTE.BYTES = PT$SYMBOL.TEXT;

  12591  1 003405   000007 471500                    LDP1    7,,PR0
         1 003406   100002 236100                    LDQ     2,,PR1
         1 003407   000033 772000                    QRL     27
         1 003410   000000 620006                    EAX0    0,QL
         1 003411   300004 236100                    LDQ     4,,PR3
         1 003412   000033 772000                    QRL     27
         1 003413   000000 621006                    EAX1    0,QL
         1 003414   040140 100540                    MLR     fill='040'O
         1 003415   300004 200011                    ADSC9   4,,PR3                   cn=1,n=*X1
         1 003416   100002 200010                    ADSC9   2,,PR1                   cn=1,n=*X0

     1860    12592    5              END;

  12592  1 003417   003432 710000 1                  TRA     s:12600

     1861    12593    5           ELSE DO;

     1862    12594                   /* Name refers to value at start of command:  save current value */
     1863    12595    5              IT$OPERAND.CODE# = %OPAND_BLOCK_DESC;

  12595  1 003420   000005 220003                    LDX0    5,DU
         1 003421   000003 740100                    STX0    3,,PR0

PL6.E3A0      #001=VDE$PBLOCK_EXPR File=VDE$PARSE.:VDA5TSI                       FRI 07/04/97 11:13 Page:199
     1864    12596    5              CALL VDG$OCOPY (BLOCK$DESC, IT$OPERAND.PARAM$)

  12596  1 003422   200023 236100                    LDQ     IT_OPERAND$,,AUTO
         1 003423   000010 036003                    ADLQ    8,DU
         1 003424   200047 235100                    LDA     BLOCK_DESC$,,AUTO
         1 003425   200060 757100                    STAQ    NEW_SELECT$+1,,AUTO
         1 003426   200060 630500                    EPPR0   NEW_SELECT$+1,,AUTO
         1 003427   000020 631400 xsym               EPPR1   B_VECTNIL+16
         1 003430   000000 701000 xent               TSX1    VDG$OCOPY
         1 003431   003531 702000 1                  TSX2    PREAD_LO_NAME_FAILED

     1865    12597    5                ALTRET (OCOPY_FAILED);
     1866    12598    5              END;

     1867    12599
     1868    12600    4           RETURN;

  12600  1 003432   200044 221300                    LDX1  ! RET_CODE,,AUTO
         1 003433   000001 702211                    TSX2  ! 1,X1

     1869    12601
     1870    12602
     1871    12603
     1872    12604    4   DOMAIN_OPAND_NOT_1ST_FAILURE:
     1873    12605
     1874    12606    4           INDX = 0;

  12606  1 003434   200053 450100       DOMAIN_OPAN* STZ     INDX,,AUTO

     1875    12607    5           DO WHILE INDX < %(MX_CMD_OBJECTS-1)

  12607  1 003435   003437 710000 1                  TRA     s:12610

     1876    12608    5             AND VD_CMD_OBJECTS$ (INDX) ~= ADDR(NIL);
     1877    12609    5              INDX = INDX + 1;

  12609  1 003436   200053 054100                    AOS     INDX,,AUTO
PL6.E3A0      #001=VDE$PBLOCK_EXPR File=VDE$PARSE.:VDA5TSI                       FRI 07/04/97 11:13 Page:200

     1878    12610    5              END;

  12610  1 003437   200053 235100                    LDA     INDX,,AUTO
         1 003440   000061 115007                    CMPA    49,DL
         1 003441   003445 605000 1                  TPL     s:12611
         1 003442   000000 236005 xsym               LDQ     VD_CMD_OBJECTS$,AL
         1 003443   000001 116000 xsym               CMPQ    B_VECTNIL+1
         1 003444   003436 601000 1                  TNZ     s:12609

     1879    12611    4           IF INDX >= %MX_CMD_OBJECTS - 1 THEN

  12611  1 003445   200053 235100                    LDA     INDX,,AUTO
         1 003446   000061 115007                    CMPA    49,DL
         1 003447   003453 604000 1                  TMI     s:12613

     1880    12612    4              CALL VDG$ESCREECH;

  12612  1 003450   000002 631400 xsym               EPPR1   B_VECTNIL+2
         1 003451   000000 701000 xent               TSX1    VDG$ESCREECH
         1 003452   000000 011000                    NOP     0

     1881    12613    4           CALL VDG$OALLOC (%CLS_TEXTC_REMOTE, T$,

  12613  1 003453   200046 470500                    LDP0    PT_SYMBOL$,,AUTO
         1 003454   000004 236100                    LDQ     4,,PR0
         1 003455   000033 772000                    QRL     27
         1 003456   000014 036007                    ADLQ    12,DL
         1 003457   000002 772000                    QRL     2
         1 003460   200060 756100                    STQ     NEW_SELECT$+1,,AUTO
         1 003461   200060 631500                    EPPR1   NEW_SELECT$+1,,AUTO
         1 003462   200063 451500                    STP1    NEW_SELECT$+4,,AUTO
         1 003463   200016 633500                    EPPR3   T$,,AUTO
         1 003464   200062 453500                    STP3    NEW_SELECT$+3,,AUTO
         1 003465   000037 236000 2                  LDQ     31
         1 003466   200061 756100                    STQ     NEW_SELECT$+2,,AUTO
         1 003467   200061 630500                    EPPR0   NEW_SELECT$+2,,AUTO
PL6.E3A0      #001=VDE$PBLOCK_EXPR File=VDE$PARSE.:VDA5TSI                       FRI 07/04/97 11:13 Page:201
         1 003470   000021 631400 xsym               EPPR1   B_VECTNIL+17
         1 003471   000000 701000 xent               TSX1    VDG$OALLOC
         1 003472   003531 702000 1                  TSX2    PREAD_LO_NAME_FAILED

     1882    12614    4             (LENGTHC(VD$STRING_HEADER) + PT$SYMBOL.COUNT + %NB_PER_WORD-1) /
     1883    12615    4             %NB_PER_WORD)
     1884    12616    4             ALTRET (OALLOC_FAILED);
     1885    12617    4           VD_CMD_OBJECTS$ (INDX) = T$;

  12617  1 003473   200016 236100                    LDQ     T$,,AUTO
         1 003474   200053 720100                    LXL0    INDX,,AUTO
         1 003475   000000 756010 xsym               STQ     VD_CMD_OBJECTS$,X0

     1886    12618    4           VD_CMD_OBJECTS$(INDX)->VD$TEXTC_REMOTE.LENGTH# = PT$SYMBOL.COUNT;

  12618  1 003476   000000 470410 xsym               LDP0    VD_CMD_OBJECTS$,X0
         1 003477   200046 471500                    LDP1    PT_SYMBOL$,,AUTO
         1 003500   100004 236100                    LDQ     4,,PR1
         1 003501   000002 552140                    STBQ    2,'40'O,PR0

     1887    12619    4           VD_CMD_OBJECTS$(INDX)->VD$TEXTC_REMOTE.BYTES = PT$SYMBOL.TEXT;

  12619  1 003502   000000 470410 xsym               LDP0    VD_CMD_OBJECTS$,X0
         1 003503   000002 236100                    LDQ     2,,PR0
         1 003504   000033 772000                    QRL     27
         1 003505   000000 621006                    EAX1    0,QL
         1 003506   100004 236100                    LDQ     4,,PR1
         1 003507   000033 772000                    QRL     27
         1 003510   000000 622006                    EAX2    0,QL
         1 003511   040140 100540                    MLR     fill='040'O
         1 003512   100004 200012                    ADSC9   4,,PR1                   cn=1,n=*X2
         1 003513   000002 200011                    ADSC9   2,,PR0                   cn=1,n=*X1

     1888    12620    4           CALL VDG$ERRMSG (%E$DOMAIN_OPAND_NOT_1ST,

  12620  1 003514   000000 470410 xsym               LDP0    VD_CMD_OBJECTS$,X0
         1 003515   000002 633500                    EPPR3   2,,PR0
PL6.E3A0      #001=VDE$PBLOCK_EXPR File=VDE$PARSE.:VDA5TSI                       FRI 07/04/97 11:13 Page:202
         1 003516   200061 453500                    STP3    NEW_SELECT$+2,,AUTO
         1 003517   000041 236000 2                  LDQ     33
         1 003520   200060 756100                    STQ     NEW_SELECT$+1,,AUTO
         1 003521   200060 630500                    EPPR0   NEW_SELECT$+1,,AUTO
         1 003522   000020 631400 xsym               EPPR1   B_VECTNIL+16
         1 003523   000000 701000 xent               TSX1    VDG$ERRMSG
         1 003524   003531 702000 1                  TSX2    PREAD_LO_NAME_FAILED

     1889    12621    5             VD_CMD_OBJECTS$(INDX)->VD$TEXTC_REMOTE.LENGTH#) WHENRETURN DO;

     1890    12622    5              LAST$ERR.CMDLINE_INDEX# = PT_LO_NAME.CPOS;

  12622  1 003525   200045 470500                    LDP0    @PT_LO_NAME,,AUTO
         1 003526   000002 720100                    LXL0    2,,PR0
         1 003527   000032 471400 xsym               LDP1    VD_6E+26
         1 003530   100003 440100                    SXL0    3,,PR1

     1891    12623    5              END;

  12619  1 003531                       PREAD_LO_NA* null
  12619  1 003531                       OCOPY_FAILED null
  12619  1 003531                       OALLOC_FAIL* null
     1892    12624
     1893    12625
     1894    12626    4   PREAD_LO_NAME_FAILED: ;
     1895    12627    4   OCOPY_FAILED: ;
     1896    12628    4   OALLOC_FAILED: ;
     1897    12629    4           ALTRETURN;

  12629  1 003531   200044 221300                    LDX1  ! RET_CODE,,AUTO
         1 003532   000000 702211                    TSX2  ! 0,X1

     1898    12630
     1899    12631
     1900    12632    4   END PLO_NAME;
     1901    12633
     1902    12634                %BOX (TITLE=ABS_IT_OPERAND);
PL6.E3A0      #001=VDE$PBLOCK_EXPR File=VDE$PARSE.:VDA5TSI                       FRI 07/04/97 11:13 Page:203

             12646    4   /***************************************************************************
             12648    4    *                                                                         *
             12652    4            *                               ABS_IT_OPERAND                           *
             12654    4            *                                                                        *
             12656    4          ***************************************************************************/

     1903    12660
     1904    12661        /*I*** NAME: ABS_IT_OPERAND
     1905    12662            PARAMETERS:
     1906    12663                None.
     1907    12664            INPUT:
     1908    12665                IT$BLOCK_EXPR - The IT_BLOCK_EXPR root node for the InTree.
     1909    12666                LAST_SELECT$, LAST$SELECT - (Ptr to) last IT_SELECT node in
     1910    12667                    InTree (it must exist).
     1911    12668                LAST_ADJUST$, LAST$ADJUST - (Ptr to) last child of LAST$SELECT
     1912    12669                    (it must exist).
     1913    12670                LAST_MOVEMENT$, LAST$MOVEMENT - (Ptr to) last child of
     1914    12671                    LAST$ADJUST; NIL if none.
     1915    12672                IT$OPERAND - The movement-level node for the absolute movement
     1916    12673                    request.  It must not yet be linked to the InTree.
     1917    12674                    It must represent an absolute movement operand (a node-key,
     1918    12675                    or a LOCATION-name or block descriptor whose domain matches
     1919    12676                    the current domain for the InTree).
     1920    12677            OUTPUT:
     1921    12678                The InTree will be altered.
     1922    12679                LAST_MOVEMENT$ and SAVED_LAST_MOVEMENT$ will be changed
     1923    12680                    to reflect the modified InTree.
     1924    12681            DESCRIPTION:
     1925    12682                Free the movement-level nodes which are the children of
     1926    12683                    LAST$ADJUST.
     1927    12684                    This discards any previous absolute or relative movement
     1928    12685                    operands for this adjustment of this SELECT clause.
     1929    12686                    However, if:
     1930    12687                    o IT$OPERAND doesn't include a domain spec (ie, is a key
     1931    12688                        spec only);
     1932    12689                    o AND there is only one IT_SELECT node and only one
PL6.E3A0      #001=VDE$PBLOCK_EXPR File=VDE$PARSE.:VDA5TSI                       FRI 07/04/97 11:13 Page:204
     1933    12690                        IT_ADJUST node in the entire InTree;
     1934    12691                    o AND the first IT$OPERAND node in the InTree is an explicit
     1935    12692                        domain spec (ie, file, block descriptor, or LOCATION-name);
     1936    12693                    then don't free that first IT$OPERAND node in the InTree.
     1937    12694                    This preserves any domain-spec info given for the block
     1938    12695                    expression.
     1939    12696        */
     1940    12697
     1941    12698    3   ABS_IT_OPERAND: PROC ALTRET;

  12698  1 003533   200044 741300       ABS_IT_OPER* STX1  ! RET_CODE,,AUTO

     1942    12699
     1943    12700
     1944    12701    4   DCL CURR_MOVE$ PTR;
     1945    12702
     1946    12703
     1947    12704        %VD$IT_OPERAND (NAME=CURR$MOVE, STCLASS="BASED(CURR_MOVE$)");
     1948    12770
     1949    12771
     1950    12772
     1951    12773    4           IF IT$BLOCK_EXPR.SELECTS$ ~= LAST_SELECT$ THEN

  12773  1 003534   200006 470500                    LDP0    IT_BLOCK_EXPR$,,AUTO
         1 003535   000035 236100                    LDQ     29,,PR0
         1 003536   200007 116100                    CMPQ    LAST_SELECT$,,AUTO
         1 003537   003621 601000 1                  TNZ     ABS_SEL_NOT_1ST_FAILURE

     1952    12774    4              GOTO ABS_SEL_NOT_1ST_FAILURE;
     1953    12775    4           IF IT$OPERAND.CODE# = %OPAND_NODE

  12775  1 003540   200023 471500                    LDP1    IT_OPERAND$,,AUTO
         1 003541   100003 220100                    LDX0    3,,PR1
         1 003542   000006 100003                    CMPX0   6,DU
         1 003543   003603 601000 1                  TNZ     PRUNE_ALL_MOVEMENTS
         1 003544   200007 473500                    LDP3    LAST_SELECT$,,AUTO
         1 003545   300004 236100                    LDQ     4,,PR3
PL6.E3A0      #001=VDE$PBLOCK_EXPR File=VDE$PARSE.:VDA5TSI                       FRI 07/04/97 11:13 Page:205
         1 003546   200010 116100                    CMPQ    LAST_ADJUST$,,AUTO
         1 003547   003603 601000 1                  TNZ     PRUNE_ALL_MOVEMENTS
         1 003550   200010 474500                    LDP4    LAST_ADJUST$,,AUTO
         1 003551   400004 236100                    LDQ     4,,PR4
         1 003552   000001 116000 xsym               CMPQ    B_VECTNIL+1
         1 003553   003603 600000 1                  TZE     PRUNE_ALL_MOVEMENTS

     1954    12776    4             AND LAST$SELECT.ADJUSTS$ = LAST_ADJUST$
     1955    12777    5             AND LAST$ADJUST.MOVEMENTS$ ~= ADDR(NIL) THEN DO;

     1956    12778    5              CURR_MOVE$ = LAST$ADJUST.MOVEMENTS$;

  12778  1 003554   200045 756100                    STQ     CURR_MOVE$,,AUTO

     1957    12779    5              IF CURR$MOVE.CODE# = %OPAND_FILE

  12779  1 003555   200045 475500                    LDP5    CURR_MOVE$,,AUTO
         1 003556   500003 222100                    LDX2    3,,PR5
         1 003557   000001 102003                    CMPX2   1,DU
         1 003560   003565 600000 1                  TZE     FIRST_MOVEMENT_IS_DOMAIN
         1 003561   000002 102003                    CMPX2   2,DU
         1 003562   003565 600000 1                  TZE     FIRST_MOVEMENT_IS_DOMAIN
         1 003563   000005 102003                    CMPX2   5,DU
         1 003564   003617 601000 1                  TNZ     s:12798

     1958    12780    5                OR CURR$MOVE.CODE# = %OPAND_LO_NAME
     1959    12781    5                OR CURR$MOVE.CODE# = %OPAND_BLOCK_DESC THEN
     1960    12782    6   FIRST_MOVEMENT_IS_DOMAIN: DO;

  12782  1 003565                       FIRST_MOVEM* null
     1961    12783    6                 CALL VDG$OFREE (CURR$MOVE.FLINK$->VD$IT_OPERAND)

  12783  1 003565   500002 476500                    LDP6    2,,PR5
         1 003566   200060 456500                    STP6    NEW_SELECT$+1,,AUTO
         1 003567   200060 630500                    EPPR0   NEW_SELECT$+1,,AUTO
         1 003570   000017 631400 xsym               EPPR1   B_VECTNIL+15
         1 003571   000000 701000 xent               TSX1    VDG$OFREE
PL6.E3A0      #001=VDE$PBLOCK_EXPR File=VDE$PARSE.:VDA5TSI                       FRI 07/04/97 11:13 Page:206
         1 003572   003625 702000 1                  TSX2    OFREE_FAILED

     1962    12784    6                   ALTRET (OFREE_FAILED);
     1963    12785    6                 CURR$MOVE.FLINK$ = ADDR(NIL);

  12785  1 003573   000001 236000 xsym               LDQ     B_VECTNIL+1
         1 003574   200045 470500                    LDP0    CURR_MOVE$,,AUTO
         1 003575   000002 756100                    STQ     2,,PR0

     1964    12786    6                 LAST$ADJUST.MOVEMENTS_TAIL$ = CURR_MOVE$;

  12786  1 003576   200045 236100                    LDQ     CURR_MOVE$,,AUTO
         1 003577   200010 471500                    LDP1    LAST_ADJUST$,,AUTO
         1 003600   100005 756100                    STQ     5,,PR1

     1965    12787    6                 LAST_MOVEMENT$ = CURR_MOVE$;

  12787  1 003601   200011 756100                    STQ     LAST_MOVEMENT$,,AUTO

     1966    12788    6                 END FIRST_MOVEMENT_IS_DOMAIN;

     1967    12789    5              END;

  12789  1 003602   003617 710000 1                  TRA     s:12798

     1968    12790    4           ELSE
     1969    12791    5   PRUNE_ALL_MOVEMENTS: DO;

  12791  1 003603                       PRUNE_ALL_M* null
     1970    12792    5              CALL VDG$OFREE (LAST$ADJUST.MOVEMENTS$ -> VD$IT_OPERAND)

  12792  1 003603   200010 473500                    LDP3    LAST_ADJUST$,,AUTO
         1 003604   300004 474500                    LDP4    4,,PR3
         1 003605   200060 454500                    STP4    NEW_SELECT$+1,,AUTO
         1 003606   200060 630500                    EPPR0   NEW_SELECT$+1,,AUTO
         1 003607   000017 631400 xsym               EPPR1   B_VECTNIL+15
         1 003610   000000 701000 xent               TSX1    VDG$OFREE
PL6.E3A0      #001=VDE$PBLOCK_EXPR File=VDE$PARSE.:VDA5TSI                       FRI 07/04/97 11:13 Page:207
         1 003611   003625 702000 1                  TSX2    OFREE_FAILED

     1971    12793    5                ALTRET (OFREE_FAILED);
     1972    12794    5              LAST$ADJUST.MOVEMENTS$ = ADDR(NIL);

  12794  1 003612   000001 236000 xsym               LDQ     B_VECTNIL+1
         1 003613   200010 470500                    LDP0    LAST_ADJUST$,,AUTO
         1 003614   000004 756100                    STQ     4,,PR0

     1973    12795    5              LAST$ADJUST.MOVEMENTS_TAIL$ = ADDR(NIL);

  12795  1 003615   000005 756100                    STQ     5,,PR0

     1974    12796    5              LAST_MOVEMENT$ = ADDR(NIL);

  12796  1 003616   200011 756100                    STQ     LAST_MOVEMENT$,,AUTO

     1975    12797    5              END PRUNE_ALL_MOVEMENTS;

     1976    12798    4           RETURN;

  12798  1 003617   200044 221300                    LDX1  ! RET_CODE,,AUTO
         1 003620   000001 702211                    TSX2  ! 1,X1

     1977    12799
     1978    12800
     1979    12801
     1980    12802    4   ABS_SEL_NOT_1ST_FAILURE:
     1981    12803    4           CALL VDG$ERRMSG (%E$ABS_SEL_NOT_1ST);

  12803  1 003621   000043 630400 2     ABS_SEL_NOT* EPPR0   35
         1 003622   000017 631400 xsym               EPPR1   B_VECTNIL+15
         1 003623   000000 701000 xent               TSX1    VDG$ERRMSG
         1 003624   000000 011000                    NOP     0

  12792  1 003625                       OFREE_FAILED null
     1982    12804
PL6.E3A0      #001=VDE$PBLOCK_EXPR File=VDE$PARSE.:VDA5TSI                       FRI 07/04/97 11:13 Page:208
     1983    12805
     1984    12806    4   OFREE_FAILED: ;
     1985    12807    4           ALTRETURN;

  12807  1 003625   200044 221300                    LDX1  ! RET_CODE,,AUTO
         1 003626   000000 702211                    TSX2  ! 0,X1

     1986    12808
     1987    12809    4   END ABS_IT_OPERAND;
     1988    12810
     1989    12811    3   END MOVEMENT_OPERAND;
     1990    12812
     1991    12813    2   END MOVEMENTS;
     1992    12814
     1993    12815                %BOX (TITLE=GUAR_LAST_ADJ, PAGE=YES);
             12823    2
             12827    2   /***************************************************************************
             12829    2    *                                                                         *
             12833    2            *                               GUAR_LAST_ADJ                            *
             12835    2            *                                                                        *
             12837    2          ***************************************************************************/

     1994    12841
     1995    12842        /*I* NAME: GUAR_LAST_ADJUST
     1996    12843            PARAMETERS:
     1997    12844                None.
     1998    12845            INPUT:
     1999    12846                IT$BLOCK_EXPR - Root VD$IT_BLOCK_EXPR node of the InTree.  It
     2000    12847                    must exist.
     2001    12848                LAST_SELECT$, LAST$SELECT - (Ptr to) last VD$IT_SELECT node in
     2002    12849                    the InTree.  If none yet, LAST_SELECT$ must be NIL.
     2003    12850                LAST_ADJUST$, LAST$ADJUST - (Ptr to) last VD$IT_ADJUST node in
     2004    12851                    the InTree.  If none yet, LAST_ADJUST$ must be NIL.
     2005    12852            OUTPUT:
     2006    12853                LAST_SELECT$ will contain a ptr to the last IT_SELECT node
     2007    12854                    in the InTree.  If there was none before, there will be
     2008    12855                    one now, linked to the InTree as the first IT_SELECT node.
PL6.E3A0      #001=VDE$PBLOCK_EXPR File=VDE$PARSE.:VDA5TSI                       FRI 07/04/97 11:13 Page:209
     2009    12856                LAST_ADJUST$ will contain a ptr to the last IT_ADJUST child of
     2010    12857                    the last IT_SELECT node in the InTree.  If there was
     2011    12858                    none before, there will be one now, linked to the InTree as
     2012    12859                    the first IT_ADJUST child of the current last IT_SELECT node.
     2013    12860        *??*         If we had to create a new IT_SELECT node, then LAST$ADJUST
     2014    12861        *??*         will have a copy of HERE's current value as its first
     2015    12862        *??*         IT_OPERAND node.
     2016    12863            DESCRIPTION:
     2017    12864                Guarantee that an IT_SELECT node exists in the InTree.
     2018    12865
     2019    12866                If the last IT_SELECT node in the InTree has no IT_ADJUST
     2020    12867                children, allocate an IT_ADJUST node.
     2021    12868        */
     2022    12869
     2023    12870    1   GUAR_LAST_ADJUST: PROC ALTRET;

  12870  1 003627   200052 741300       GUAR_LAST_A* STX1  ! DOMAIN_FILE_KEY$,,AUTO

     2024    12871
     2025    12872
     2026    12873
     2027    12874    2           CALL GUAR_LAST_SELECT

  12874  1 003630   003643 701000 1                  TSX1    GUAR_LAST_SELECT
         1 003631   003641 702000 1                  TSX2    GUAR_LAST_SELECT_FAILED

     2028    12875    2             ALTRET (GUAR_LAST_SELECT_FAILED);
     2029    12876
     2030    12877    3           IF LAST_ADJUST$ = ADDR(NIL) THEN DO;

  12877  1 003632   200010 236100                    LDQ     LAST_ADJUST$,,AUTO
         1 003633   000001 116000 xsym               CMPQ    B_VECTNIL+1
         1 003634   003637 601000 1                  TNZ     s:12882

     2031    12878    3              CALL ALLOC_IT_ADJUST

  12878  1 003635   003660 701000 1                  TSX1    ALLOC_IT_ADJUST
PL6.E3A0      #001=VDE$PBLOCK_EXPR File=VDE$PARSE.:VDA5TSI                       FRI 07/04/97 11:13 Page:210
         1 003636   003641 702000 1                  TSX2    GUAR_LAST_SELECT_FAILED

     2032    12879    3                ALTRET (ALLOC_IT_ADJUST_FAILED);
     2033    12880    3              END;

     2034    12881
     2035    12882    2           RETURN;

  12882  1 003637   200052 221300                    LDX1  ! DOMAIN_FILE_KEY$,,AUTO
         1 003640   000001 702211                    TSX2  ! 1,X1

  12877  1 003641                       GUAR_LAST_S* null
     2036    12883
     2037    12884
     2038    12885
     2039    12886    2   GUAR_LAST_SELECT_FAILED: ;
     2040    12887    2   ALLOC_IT_ADJUST_FAILED:
     2041    12888    2           ALTRETURN;

  12888  1 003641   200052 221300       ALLOC_IT_AD* LDX1  ! DOMAIN_FILE_KEY$,,AUTO
         1 003642   000000 702211                    TSX2  ! 0,X1

     2042    12889
     2043    12890    2   END GUAR_LAST_ADJUST;
     2044    12891
     2045    12892
     2046    12893                %BOX (TITLE=GUAR_LAST_SELECT, PAGE=YES);
             12901    2
             12905    2   /***************************************************************************
             12907    2    *                                                                         *
             12911    2            *                              GUAR_LAST_SELECT                          *
             12913    2            *                                                                        *
             12915    2          ***************************************************************************/

     2047    12919
     2048    12920        /*I* NAME: GUAR_LAST_SELECT
     2049    12921            PARAMETERS:
PL6.E3A0      #001=VDE$PBLOCK_EXPR File=VDE$PARSE.:VDA5TSI                       FRI 07/04/97 11:13 Page:211
     2050    12922                None.
     2051    12923            INPUT:
     2052    12924                IT$BLOCK_EXPR - Root VD$IT_BLOCK_EXPR node of the InTree.  It
     2053    12925                    must exist.
     2054    12926                LAST_SELECT$, LAST$SELECT - (Ptr to) last VD$IT_SELECT node in
     2055    12927                    the InTree.  If none yet, LAST_SELECT$ must be NIL.
     2056    12928            OUTPUT:
     2057    12929                LAST_SELECT$ will contain a ptr to the last IT_SELECT node
     2058    12930                    in the InTree.  If there was none before, there will be
     2059    12931                    one now, linked to the InTree as the first IT_SELECT node,
     2060    12932                    with a repeat count of 1.
     2061    12933                LAST_ADJUST$, LAST_MOVEMENT$ - If we had to create a new
     2062    12934                    IT_SELECT node, these pointers will be NIL.
     2063    12935        *??*         If we had to create a new IT_SELECT node, then LAST$ADJUST
     2064    12936        *??*         will have a copy of HERE's current value as its first
     2065    12937        *??*         IT_OPERAND node, which will be LAST$MOVEMENT.
     2066    12938            DESCRIPTION:
     2067    12939                If there is no last IT_SELECT node in the Intree, allocate one.
     2068    12940        *??*     Allocate an IT_ADJUST and IT_OPERAND for it which point
     2069    12941        *??*     to a copy of HERE's current value.
     2070    12942        */
     2071    12943
     2072    12944    1   GUAR_LAST_SELECT: PROC ALTRET;

  12944  1 003643   200054 741300       GUAR_LAST_S* STX1  ! INDX+1,,AUTO

     2073    12945
     2074    12946
     2075    12947
     2076    12948    3           IF LAST_SELECT$ = ADDR(NIL) THEN DO;

  12948  1 003644   200007 236100                    LDQ     LAST_SELECT$,,AUTO
         1 003645   000001 116000 xsym               CMPQ    B_VECTNIL+1
         1 003646   003654 601000 1                  TNZ     s:12956

     2077    12949    3              CALL ALLOC_IT_SELECT

PL6.E3A0      #001=VDE$PBLOCK_EXPR File=VDE$PARSE.:VDA5TSI                       FRI 07/04/97 11:13 Page:212
  12949  1 003647   003721 701000 1                  TSX1    ALLOC_IT_SELECT
         1 003650   003656 702000 1                  TSX2    ALLOC_IT_SELECT_FAILED

     2078    12950    3                ALTRET (ALLOC_IT_SELECT_FAILED);
     2079    12951    3              LAST$SELECT.RPT_COUNT# = 1;

  12951  1 003651   000001 220003                    LDX0    1,DU
         1 003652   200007 470500                    LDP0    LAST_SELECT$,,AUTO
         1 003653   000003 440100                    SXL0    3,,PR0

     2080    12952        /*??*         CALL ATTACH_HERE_TO_SELECT (LAST_SELECT$->LAST$SELECT) */
     2081    12953        /*??*           ALTRET (ATTACH_HERE_TO_SELECT_FAILED);               */
     2082    12954    3              END;

     2083    12955
     2084    12956    2           RETURN;

  12956  1 003654   200054 221300                    LDX1  ! INDX+1,,AUTO
         1 003655   000001 702211                    TSX2  ! 1,X1

  12948  1 003656                       ALLOC_IT_SE* null
     2085    12957
     2086    12958
     2087    12959
     2088    12960    2   ALLOC_IT_SELECT_FAILED: ;
     2089    12961        /* ATTACH_HERE_TO_SELECT_FAILED: ;  */
     2090    12962    2           ALTRETURN;

  12962  1 003656   200054 221300                    LDX1  ! INDX+1,,AUTO
         1 003657   000000 702211                    TSX2  ! 0,X1

     2091    12963
     2092    12964    2   END GUAR_LAST_SELECT;
     2093    12965
     2094    12966        %BOX (TITLE=ALLOC_IT_ADJUST, PAGE=YES);
             12974    2
             12978    2   /***************************************************************************
PL6.E3A0      #001=VDE$PBLOCK_EXPR File=VDE$PARSE.:VDA5TSI                       FRI 07/04/97 11:13 Page:213
             12980    2    *                                                                         *
             12984    2            *                              ALLOC_IT_ADJUST                           *
             12986    2            *                                                                        *
             12988    2          ***************************************************************************/

     2095    12992
     2096    12993        /*I* NAME: ALLOC_IT_ADJUST
     2097    12994            PARAMETERS:
     2098    12995                None.
     2099    12996            INPUT:
     2100    12997                LAST$SELECT - The IT_SELECT node for which this IT_ADJUST
     2101    12998                    node is to be allocated.
     2102    12999                LAST_ADJUST$ - Ptr to current last IT_ADJUST node in the
     2103    13000                    InTree.  If none, LAST_ADJUST$ must be NIL.
     2104    13001            OUTPUT:
     2105    13002                LAST_ADJUST$ will contain a pointer to the newly-allocated
     2106    13003                    and initialized IT_ADJUST node.
     2107    13004                LAST_MOVEMENT$ will be NIL'd.
     2108    13005            DESCRIPTION:
     2109    13006                Allocate an IT_ADJUST node.  Link it as either
     2110    13007                the sibling of the LAST_ADJUST$, or if that's NIL,
     2111    13008                as the child of IT$SELECT.
     2112    13009        */
     2113    13010
     2114    13011    1   ALLOC_IT_ADJUST: PROC ALTRET;

  13011  1 003660   200054 741300       ALLOC_IT_AD* STX1  ! INDX+1,,AUTO

     2115    13012
     2116    13013
     2117    13014    2   DCL NEW_ADJUST$ PTR;
     2118    13015
     2119    13016
     2120    13017        %VD$IT_ADJUST (NAME=NEW$ADJUST, STCLASS="BASED(NEW_ADJUST$)");
     2121    13054
     2122    13055
     2123    13056
PL6.E3A0      #001=VDE$PBLOCK_EXPR File=VDE$PARSE.:VDA5TSI                       FRI 07/04/97 11:13 Page:214
     2124    13057    2           CALL VDG$OALLOC (%CLS_IT_ADJUST, T$)

  13057  1 003661   200016 630500                    EPPR0   T$,,AUTO
         1 003662   200061 450500                    STP0    NEW_SELECT$+2,,AUTO
         1 003663   000045 236000 2                  LDQ     37
         1 003664   200060 756100                    STQ     NEW_SELECT$+1,,AUTO
         1 003665   200060 630500                    EPPR0   NEW_SELECT$+1,,AUTO
         1 003666   000020 631400 xsym               EPPR1   B_VECTNIL+16
         1 003667   000000 701000 xent               TSX1    VDG$OALLOC
         1 003670   003717 702000 1                  TSX2    OALLOC_FAILED

     2125    13058    2             ALTRET (OALLOC_FAILED);
     2126    13059    2           NEW_ADJUST$ = T$;

  13059  1 003671   200016 236100                    LDQ     T$,,AUTO
         1 003672   200055 756100                    STQ     NEW_ADJUST$,,AUTO

     2127    13060
     2128    13061    2           NEW$ADJUST.PARENT$ = LAST_SELECT$;

  13061  1 003673   200007 236100                    LDQ     LAST_SELECT$,,AUTO
         1 003674   200055 470500                    LDP0    NEW_ADJUST$,,AUTO
         1 003675   000001 756100                    STQ     1,,PR0

     2129    13062    2           IF LAST_ADJUST$ = ADDR(NIL) THEN

  13062  1 003676   200010 236100                    LDQ     LAST_ADJUST$,,AUTO
         1 003677   000001 116000 xsym               CMPQ    B_VECTNIL+1
         1 003700   003705 601000 1                  TNZ     s:13065

     2130    13063    2              LAST$SELECT.ADJUSTS$ = NEW_ADJUST$;

  13063  1 003701   200055 236100                    LDQ     NEW_ADJUST$,,AUTO
         1 003702   200007 471500                    LDP1    LAST_SELECT$,,AUTO
         1 003703   100004 756100                    STQ     4,,PR1
         1 003704   003710 710000 1                  TRA     s:13066

PL6.E3A0      #001=VDE$PBLOCK_EXPR File=VDE$PARSE.:VDA5TSI                       FRI 07/04/97 11:13 Page:215
     2131    13064    2           ELSE
     2132    13065    2              LAST$ADJUST.FLINK$ = NEW_ADJUST$;

  13065  1 003705   200055 236100                    LDQ     NEW_ADJUST$,,AUTO
         1 003706   200010 471500                    LDP1    LAST_ADJUST$,,AUTO
         1 003707   100002 756100                    STQ     2,,PR1

     2133    13066    2           LAST$SELECT.ADJUSTS_TAIL$ = NEW_ADJUST$;

  13066  1 003710   200007 471500                    LDP1    LAST_SELECT$,,AUTO
         1 003711   100005 756100                    STQ     5,,PR1

     2134    13067    2           LAST_ADJUST$ = NEW_ADJUST$;

  13067  1 003712   200010 756100                    STQ     LAST_ADJUST$,,AUTO

     2135    13068    2           LAST_MOVEMENT$ = ADDR(NIL);

  13068  1 003713   000001 236000 xsym               LDQ     B_VECTNIL+1
         1 003714   200011 756100                    STQ     LAST_MOVEMENT$,,AUTO

     2136    13069
     2137    13070    2           RETURN;

  13070  1 003715   200054 221300                    LDX1  ! INDX+1,,AUTO
         1 003716   000001 702211                    TSX2  ! 1,X1

     2138    13071
     2139    13072
     2140    13073    2   OALLOC_FAILED:
     2141    13074    2           ALTRETURN;

  13074  1 003717   200054 221300       OALLOC_FAIL* LDX1  ! INDX+1,,AUTO
         1 003720   000000 702211                    TSX2  ! 0,X1

     2142    13075
     2143    13076    2   END ALLOC_IT_ADJUST;
PL6.E3A0      #001=VDE$PBLOCK_EXPR File=VDE$PARSE.:VDA5TSI                       FRI 07/04/97 11:13 Page:216
     2144    13077
     2145    13078        %BOX (TITLE=ALLOC_IT_SELECT, PAGE=YES);
             13086    2
             13090    2   /***************************************************************************
             13092    2    *                                                                         *
             13096    2            *                              ALLOC_IT_SELECT                           *
             13098    2            *                                                                        *
             13100    2          ***************************************************************************/

     2146    13104
     2147    13105        /*I* NAME: ALLOC_IT_SELECT
     2148    13106            PARAMETERS:
     2149    13107                None.
     2150    13108            INPUT:
     2151    13109                IT$BLOCK_EXPR - The IT_BLOCK_EXPR node for which this IT_SELECT
     2152    13110                    node is to be allocated.
     2153    13111                LAST_SELECT$ - Ptr to current last IT_SELECT node in the
     2154    13112                    InTree.  If none, LAST_SELECT$ must be NIL.
     2155    13113            OUTPUT:
     2156    13114                LAST_SELECT$ will contain a pointer to the newly-allocated
     2157    13115                    and initialized IT_SELECT node.
     2158    13116                LAST_ADJUST$ and LAST_MOVEMENT$ will be NIL'd.
     2159    13117            DESCRIPTION:
     2160    13118                Allocate an IT_SELECT node.  Link it as either
     2161    13119                the sibling of LAST_SELECT$, or if that's NIL,
     2162    13120                as the child of IT$BLOCK_EXPR.
     2163    13121        */
     2164    13122
     2165    13123    1   ALLOC_IT_SELECT: PROC ALTRET;

  13123  1 003721   200056 741300       ALLOC_IT_SE* STX1  ! NEW_ADJUST$+1,,AUTO

     2166    13124
     2167    13125
     2168    13126    2   DCL NEW_SELECT$ PTR;
     2169    13127
     2170    13128
PL6.E3A0      #001=VDE$PBLOCK_EXPR File=VDE$PARSE.:VDA5TSI                       FRI 07/04/97 11:13 Page:217
     2171    13129        %VD$IT_SELECT (NAME=NEW$SELECT, STCLASS="BASED(NEW_SELECT$)");
     2172    13166
     2173    13167
     2174    13168
     2175    13169    2           CALL VDG$OALLOC (%CLS_IT_SELECT, T$)

  13169  1 003722   200016 630500                    EPPR0   T$,,AUTO
         1 003723   200061 450500                    STP0    NEW_SELECT$+2,,AUTO
         1 003724   000047 236000 2                  LDQ     39
         1 003725   200060 756100                    STQ     NEW_SELECT$+1,,AUTO
         1 003726   200060 630500                    EPPR0   NEW_SELECT$+1,,AUTO
         1 003727   000020 631400 xsym               EPPR1   B_VECTNIL+16
         1 003730   000000 701000 xent               TSX1    VDG$OALLOC
         1 003731   003761 702000 1                  TSX2    OALLOC_FAILED

     2176    13170    2             ALTRET (OALLOC_FAILED);
     2177    13171    2           NEW_SELECT$ = T$;

  13171  1 003732   200016 236100                    LDQ     T$,,AUTO
         1 003733   200057 756100                    STQ     NEW_SELECT$,,AUTO

     2178    13172
     2179    13173    2           NEW$SELECT.PARENT$ = IT_BLOCK_EXPR$;

  13173  1 003734   200006 236100                    LDQ     IT_BLOCK_EXPR$,,AUTO
         1 003735   200057 470500                    LDP0    NEW_SELECT$,,AUTO
         1 003736   000001 756100                    STQ     1,,PR0

     2180    13174    2           IF LAST_SELECT$ = ADDR(NIL) THEN

  13174  1 003737   200007 236100                    LDQ     LAST_SELECT$,,AUTO
         1 003740   000001 116000 xsym               CMPQ    B_VECTNIL+1
         1 003741   003746 601000 1                  TNZ     s:13177

     2181    13175    2              IT$BLOCK_EXPR.SELECTS$ = NEW_SELECT$;

  13175  1 003742   200057 236100                    LDQ     NEW_SELECT$,,AUTO
PL6.E3A0      #001=VDE$PBLOCK_EXPR File=VDE$PARSE.:VDA5TSI                       FRI 07/04/97 11:13 Page:218
         1 003743   200006 471500                    LDP1    IT_BLOCK_EXPR$,,AUTO
         1 003744   100035 756100                    STQ     29,,PR1
         1 003745   003751 710000 1                  TRA     s:13178

     2182    13176    2           ELSE
     2183    13177    2              LAST$SELECT.FLINK$ = NEW_SELECT$;

  13177  1 003746   200057 236100                    LDQ     NEW_SELECT$,,AUTO
         1 003747   200007 471500                    LDP1    LAST_SELECT$,,AUTO
         1 003750   100002 756100                    STQ     2,,PR1

     2184    13178    2           IT$BLOCK_EXPR.SELECTS_TAIL$ = NEW_SELECT$;

  13178  1 003751   200006 471500                    LDP1    IT_BLOCK_EXPR$,,AUTO
         1 003752   100036 756100                    STQ     30,,PR1

     2185    13179    2           LAST_SELECT$ = NEW_SELECT$;

  13179  1 003753   200007 756100                    STQ     LAST_SELECT$,,AUTO

     2186    13180    2           LAST_ADJUST$ = ADDR(NIL);

  13180  1 003754   000001 236000 xsym               LDQ     B_VECTNIL+1
         1 003755   200010 756100                    STQ     LAST_ADJUST$,,AUTO

     2187    13181    2           LAST_MOVEMENT$ = ADDR(NIL);

  13181  1 003756   200011 756100                    STQ     LAST_MOVEMENT$,,AUTO

     2188    13182
     2189    13183    2           RETURN;

  13183  1 003757   200056 221300                    LDX1  ! NEW_ADJUST$+1,,AUTO
         1 003760   000001 702211                    TSX2  ! 1,X1

  13181  1 003761                       OALLOC_FAIL* null
     2190    13184
PL6.E3A0      #001=VDE$PBLOCK_EXPR File=VDE$PARSE.:VDA5TSI                       FRI 07/04/97 11:13 Page:219
     2191    13185
     2192    13186
     2193    13187    2   OALLOC_FAILED: ;
     2194    13188    2           ALTRETURN;

  13188  1 003761   200056 221300                    LDX1  ! NEW_ADJUST$+1,,AUTO
         1 003762   000000 702211                    TSX2  ! 0,X1
     2195    13189
     2196    13190    2   END ALLOC_IT_SELECT;
     2197    13191
     2198    13192    1   END VDE$PBLOCK_EXPR;
     2199    13193        %EOD;

PL6.E3A0      #001=VDE$PBLOCK_EXPR File=VDE$PARSE.:VDA5TSI                       FRI 07/04/97 11:13 Page:220
--  Include file information  --

   XUE_MACRO_C.:LIBRARY  is referenced.
   XU_MACRO_C.:LIBRARY  is referenced.
   VD_NODES0_E.:VDA5TOU  is referenced.
   VD_PERR_C.:VDA5TOU  is referenced.
   VD_MACROS_M.:VDA5TOU  is referenced.
   B$JIT_C.:E04TOU  was found in the system file and is never referenced.
   CP_6_C.:E04TOU  was found in the system file and is never referenced.
      No diagnostics issued in procedure VDE$PBLOCK_EXPR.
PL6.E3A0      #001=VDE$PBLOCK_EXPR File=VDE$PARSE.:VDA5TSI                       FRI 07/04/97 11:13 Page:221

 **** Variables and constants ****

  ****  Auto variables  ****

  ****  Scalars and arrays  ****
OctLoc.c.b A Datatyp(siz) R M Lvl/name                 OctLoc.c.b A Datatyp(siz) R M Lvl/name

    31-0-0/w PTR         r     1 @OPERAND                   3-0-0/w PTR         r     1 @PT_BLOCK_EXPR
    45-0-0/w PTR         r     1 @PT_LO_NAME               31-0-0/w PTR         r     1 @PT_MOVEMENT
    33-0-0/w BIT         r     1 ABS_MOVEMENT              47-0-0/w PTR         r     1 BLOCK_DESC$
    43-0-0/w PTR         r     1 BUFFER$                   14-0-0/w PTR         r     1 CHILD$
    13-0-0/w SBIN        r     1 CHILD_INDEX
    45-0-0/w SBIN        r     1 CTRL_ARGS(0:1)
    40-0-0/w UBIN        r     1 CTRL_ARGS(0:1)
    23-0-0/w PTR         r     1 CURRENT_FILE_KEY$         45-0-0/w PTR         r     1 CURR_MOVE$
     4-0-0/w PTR         r     1 CURR_WINDOW$              52-0-0/w PTR         r     1 DOMAIN_FILE_KEY$
     5-0-0/w PTR         r     1 EDIT_BLOCK$               35-0-0/w SBIN        r     1 ERR_CODE
    42-0-0/w SBIN        r     1 ERR_CODE                  15-0-0/w PTR         r     1 ERR_SUBST$
    24-0-0/w STRC(72)    r     1 EVAL_OPTIONS              25-0-0/w PTR         r     1 FILE_KEY$
    53-0-0/w SBIN        r     1 INDX                       6-0-0/w PTR         r     1 IT_BLOCK_EXPR$
    50-0-0/w PTR         r     1 IT_OPERAND$               24-0-0/w PTR         r     1 IT_OPERAND$
    23-0-0/w PTR         r     1 IT_OPERAND$               34-0-0/w STRC(72)    r     1 KEY
    27-0-0/w UBIN        r     1 KEYLENGTH                 36-0-0/w PTR         r     1 KEY_BUFFER$
    10-0-0/w PTR         r     1 LAST_ADJUST$              11-0-0/w PTR         r     1 LAST_MOVEMENT$
     7-0-0/w PTR         r     1 LAST_SELECT$              51-0-0/w PTR         r     1 LO_NAME_FILE_KEY$
    33-0-0/w PTR         r     1 MOVE_CHILD$               32-0-0/w SBIN        r     1 MOVE_CHILD_INDEX
    21-0-0/w PTR         r     1 NAME_DESC$                22-0-0/w PTR         r     1 NAME_FILE_KEY$
    50-0-0/w PTR         r     1 NAME_NODE$                55-0-0/w PTR         r     1 NEW_ADJUST$
    57-0-0/w PTR         r     1 NEW_SELECT$               34-0-0/w SBIN        r     1 NUMBER
    32-0-0/w SBIN        r     1 NUMBER                    23-0-0/w STRC(180)   r     1 OPEN_OPTIONS
    *0-0-0/w STRC(144)   r     1 OPERAND                   21-0-0/w STRC(180)   r     1 OPTIONS
    12-0-0/w SBIN        r     1 PREV_CHILD_INDEX          *0-0-0/w STRC(144)   r     1 PT_BLOCK_EXPR
    *0-0-0/w STRC(144)   r     1 PT_LO_NAME                *0-0-0/w STRC(144)   r     1 PT_MOVEMENT
    46-0-0/w PTR         r     1 PT_SYMBOL$                44-0-0/c CHAR        r     1 RET_CODE
    37-0-0/c CHAR        r     1 RET_CODE                  21-0-0/w SBIN        r     1 RPT_COUNT
    21-0-0/w STRC(9)     r     1 SAVE_ACCESSOR_PRIV        27-0-0/w BIT         r     1 SKIP_SEEN
    26-0-0/w BIT         r     1 SRCH_SEEN                 30-0-0/w STRC(324)   r     1 STRING_LOC
PL6.E3A0      #001=VDE$PBLOCK_EXPR File=VDE$PARSE.:VDA5TSI                       FRI 07/04/97 11:13 Page:222
    22-0-0/w PTR         r     1 STRING_STREAM$            42-0-0/w SBIN        r     1 STR_INDEX
    16-0-0/w PTR         r     1 T$
    26-0-0/w PTR         r     1 VD_PARSED_PREDEF_FILE$
    51-0-0/w PTR         r     1 WILD_STRING$              47-0-0/w PTR         r     1 WRITTEN_NODE$
    41-0-0/w PTR         r     1 XUE_EXP$

  ****  SYMREF variables  ****

  ****  Scalars and arrays  ****
OctLoc.c.b A Datatyp(siz) R M Lvl/name                 OctLoc.c.b A Datatyp(siz) R M Lvl/name

     0-0-0/w STRC(144)   r     1 VD_$COMPONENT              0-0-0/w STRC(144)   r     1 VD_$DIRECTION
     0-0-0/w STRC(144)   r     1 VD_$EXIST                  0-0-0/w STRC(144)   r     1 VD_$POINT
     0-0-0/w STRC(144)   r     1 VD_$PROTECT                0-0-0/w STRC(144)   r     1 VD_$SEARCH
     0-0-0/w STRC(144)   r     1 VD_$SKIP                   0-0-0/w STRC(144)   r     1 VD_$STRUCTURE
     0-0-0/w STRC(22644) r     1 VD_6E                      0-0-0/w STRC(9)     r     1 VD_ACCESSOR_PRIV
     0-0-0/w PTR         r     1 VD_CMD_OBJECTS$(0:49)
     0-0-0/w PTR         r     1 VD_CURRENT_WINDOW$
     0-0-0/w STRC(648)   r     1 VD_FKEY_SCRATCH_SOURCE
     0-0-0/w STRC(72)    r     1 VD_KEY_NUMERIC_BOF
     0-0-0/w STRC(72)    r     1 VD_KEY_SCRATCH_SOURCE
     0-0-0/d STRC(1008)  r     1 XUE_ECB

  ****  BASED and DCB variables  ****

  ****  Scalars and arrays  ****
OctLoc.c.b A Datatyp(siz) R M Lvl/name                 OctLoc.c.b A Datatyp(siz) R M Lvl/name

     0-0-0/w STRC(936)   r     1 BLOCK$DESC                 0-0-0/w ASTR(90)    r     1 BUFFER
     0-0-0/w STRC(144)   r     1 CHILD                      0-0-0/w STRC(324)   r     1 CURR$MOVE
     0-0-0/w STRC(900)   r     1 CURR$WINDOW                0-0-0/w ASTR(9)     r     1 CURRENT$FILE_KEY
     0-0-0/w ASTR(9)     r     1 DOMAIN$FILE_KEY            0-0-0/w STRC(936)   r     1 EDIT$BLOCK
     0-0-0/w STRC(864)   r     1 EQUALS$STREAM              0-0-0/w STRC(180)   r     1 FATAL$ERR
     0-0-0/w STRC(1116)  r     1 IT$BLOCK_EXPR              0-0-0/w STRC(324)   r     1 IT$OPERAND
     0-0-0/w STRC(324)   r     1 IT$OPERAND                 0-0-0/w STRC(324)   r     1 IT$OPERAND
     0-0-0/w ASTR(90)    r     1 KEY$BUFFER                 0-0-0/w STRC(216)   r     1 LAST$ADJUST
     0-0-0/w STRC(180)   r     1 LAST$ERR                   0-0-0/w STRC(324)   r     1 LAST$MOVEMENT
PL6.E3A0      #001=VDE$PBLOCK_EXPR File=VDE$PARSE.:VDA5TSI                       FRI 07/04/97 11:13 Page:223
     0-0-0/w STRC(216)   r     1 LAST$SELECT                0-0-0/w ASTR(9)     r     1 LO$NAME_FILE_KEY
     0-0-0/w STRC(144)   r     1 MOVE$CHILD                 0-0-0/w STRC(936)   r     1 NAME$DESC
     0-0-0/w ASTR(9)     r     1 NAME$FILE_KEY              0-0-0/w STRC(468)   r     1 NAME$NODE
     0-0-0/w STRC(216)   r     1 NEW$ADJUST                 0-0-0/w STRC(216)   r     1 NEW$SELECT
     0-0-0/w STRC(144)   r     1 OUT$BLK                    0-0-0/w ASTR(153)   r     1 OUT$SYM
     0-0-0/w ASTR(153)   r     1 OUT$SYM                    0-0-0/w STRC(648)   r     1 PREDEF$KEY
     0-0-0/w STRC(576)   r     1 PREDEF$NODE                0-0-0/w ASTR(153)   r     1 PT$SYMBOL
     0-0-0/w STRC(864)   r     1 STRING$STREAM              0-0-0/w STRC(648)   r     1 VD$FILE_KEY
     0-0-0/w STRC(468)   r     1 VD$FILE_NODE               0-0-0/w STRC(324)   r     1 VD$IT_OPERAND
     0-0-0/w STRC(72)    r     1 VD$KEY_NUMBER              0-0-0/w STRC(72)    r     1 VD$KEY_NUMBER
     0-0-0/w STRC(72)    r     1 VD$KEY_NUMBER              0-0-0/w STRC(1944)  r     1 VD$PORT
     0-0-0/w STRC(81)    r     1 VD$STRING_HEADER           0-0-0/w ASTR(9)     r     1 VD$TEXTC
     0-0-0/w ASTR(9)     r     1 VD$TEXTC                   0-0-0/w ASTR(9)     r     1 VD$TEXTC
     0-0-0/w ASTR(81)    r     1 VD$TEXTC_REMOTE            0-0-0/w STRC(792)   r     1 WILD$STRING
     0-0-0/w STRC(792)   r     1 WILD$STRINGS               0-0-0/w STRC(468)   r     1 WRITTEN$NODE
     0-0-0/w STRC(144)   r     1 XUE$EXP


   Procedure VDE$PBLOCK_EXPR requires 2035 words for executable code.
   Procedure VDE$PBLOCK_EXPR requires 54 words of local(AUTO) storage.
PL6.E3A0      #001=VDE$PBLOCK_EXPR File=VDE$PARSE.:VDA5TSI                       FRI 07/04/97 11:13 Page:224
          *** CROSS REFERENCE LISTING ***
**     DENOTES     IDENTIFIER DEFINITION
<<                 IDENTIFIER'S VALUE SET
>>                 IDENTIFIER'S VALUE USED
<>                 IDENTIFIER SET AND/OR USED
--                 IDENTIFIER REFERENCED
PL6.E3A0      #001=VDE$PBLOCK_EXPR File=VDE$PARSE.:VDA5TSI                       FRI 07/04/97 11:13 Page:225
          MINI XREF LISTING

ABS_IT_OPERAND IN PROCEDURE MOVEMENT_OPERAND
     12698**PROC    11964--CALL
ABS_IT_OPERAND_FAILED IN PROCEDURE MOVEMENT_OPERAND
     12025**LABEL   11964--CALLALT
ABS_MOVEMENT IN PROCEDURE MOVEMENT_OPERAND
     11674**DCL     11787<<ASSIGN  11799<<ASSIGN  11814<<ASSIGN  11869<<ASSIGN  11963>>IF
ABS_SEL_NOT_1ST_FAILURE IN PROCEDURE ABS_IT_OPERAND
     12803**LABEL   12774--GOTO
ADJUST_LIST
     10972**PROC     8763--CALL
ADJUST_LIST_FAILED
      8850**LABEL    8763--CALLALT
ALLOC_IT_ADJUST
     13011**PROC    10983--CALL    12878--CALL
ALLOC_IT_ADJUST_FAILED IN PROCEDURE ADJUST_LIST
     10990**LABEL   10983--CALLALT
ALLOC_IT_ADJUST_FAILED IN PROCEDURE GUAR_LAST_ADJUST
     12888**LABEL   12878--CALLALT
ALLOC_IT_SELECT
     13123**PROC    10871--CALL    12949--CALL
ALLOC_IT_SELECT_FAILED IN PROCEDURE GUAR_LAST_SELECT
     12948**LABEL   12949--CALLALT
ALLOC_IT_SELECT_FAILED IN PROCEDURE SELECT_CLAUSE
     10897**LABEL   10871--CALLALT
BAD_CTRL_IN_LITERAL_FAILURE IN PROCEDURE STRING_EXPRESSION
      9997**LABEL    9910--GOTO     9943--GOTO
BAD_KEY_INCR
      8783**LABEL    8776--GOTO
BLOCK$DESC IN PROCEDURE PLO_NAME
     12229**DCL     12596<>CALL
BLOCK$DESC.FILE_KEY.REP# IN PROCEDURE PLO_NAME
     12267**DCL     12545>>IF
PL6.E3A0      #001=VDE$PBLOCK_EXPR File=VDE$PARSE.:VDA5TSI                       FRI 07/04/97 11:13 Page:226
BLOCK$DESC.FILE_KEY.V$ IN PROCEDURE PLO_NAME
     12267**DCL     12545>>ASSIGN  12545--ASSIGN
BLOCK_DESC$ IN PROCEDURE PLO_NAME
     12176**DCL     12229--IMP-PTR 12534<>CALL    12545>>IF      12545>>ASSIGN  12545>>ASSIGN  12596>>CALL
BUFFER IN PROCEDURE STRING_EXPRESSION
      9357**DCL      9945<>CALL    10020<>CALL
BUFFER.BYTES IN PROCEDURE STRING_EXPRESSION
      9385**DCL      9894--CALL
BUFFER.LENGTH# IN PROCEDURE STRING_EXPRESSION
      9383**DCL      9385--IMP-SIZ  9897<<ASSIGN   9932>>ASSIGN   9945>>CALL     9957>>ASSIGN  10020>>CALL
BUFFER$ IN PROCEDURE STRING_EXPRESSION
      9173**DCL      9357--IMP-PTR  9881<>CALL     9893>>IF       9894<>CALL     9894>>CALL     9894>>CALL
      9897>>ASSIGN   9932>>ASSIGN   9945>>CALL     9945>>CALL    10020>>CALL    10020>>CALL
CHILD
      7810**DCL      8772<>CALL    10881<>CALL    11285<>CALL    11298<>CALL
CHILD.CODE
      7818**DCL      8771>>IF       8835>>DOCASE   8846<>CALL     8975>>DOCASE   8988>>DOCASE  10596>>IF
     10599>>IF      10627>>IF      10627>>IF      10627>>IF      10627>>IF      10665>>DOCASE  10868>>IF
     10978>>IF      10978>>IF      10985>>IF      11281>>IF      11293>>IF
CHILD.CPOS
      7836**DCL      8850>>ASSIGN  10788>>ASSIGN  10904>>ASSIGN
CHILD.NSUBLKS
      7822**DCL      8979>>IF      10596>>IF      10874>>IF      10878>>IF      11300>>CALL
CHILD.SCRITCH
      7826**DCL     10686>>ASSIGN
CHILD.SUBLK$
      7843**DCL      8988>>DOCASE  10597>>ASSIGN  10601>>CALL    10601>>CALL    10675>>CALL    10675>>CALL
     10878>>IF      10881>>CALL    10881>>CALL    11300>>CALL
CHILD$
      7296**DCL      7810--IMP-PTR  8731<<ASSIGN   8770<<ASSIGN   8771>>IF       8772>>CALL     8834<<ASSIGN
      8835>>DOCASE   8846>>CALL     8850>>ASSIGN   8973<<ASSIGN   8975>>DOCASE   8979>>IF       8988>>DOCASE
     10595<<ASSIGN  10596>>IF      10596>>IF      10597<<ASSIGN  10597>>ASSIGN  10599>>IF      10601>>CALL
     10601>>CALL    10627>>IF      10627>>IF      10627>>IF      10627>>IF      10665>>DOCASE  10675>>CALL
     10675>>CALL    10686>>ASSIGN  10788>>ASSIGN  10867<<ASSIGN  10868>>IF      10874>>IF      10878>>IF
     10881>>CALL    10904>>ASSIGN  10977<<ASSIGN  10978>>IF      10978>>IF      10985>>IF      11280<<ASSIGN
     11281>>IF      11285>>CALL    11292<<ASSIGN  11293>>IF      11298>>CALL    11300>>CALL    11300>>CALL
PL6.E3A0      #001=VDE$PBLOCK_EXPR File=VDE$PARSE.:VDA5TSI                       FRI 07/04/97 11:13 Page:227
CHILD_INDEX
      7295**DCL      8730<<ASSIGN   8731>>ASSIGN   8750>>IF       8757>>DOWHILE  8757>>DOWHILE  8759>>ASSIGN
      8769>>IF       8770>>ASSIGN   8777<<ASSIGN   8777>>ASSIGN   8783>>IF       8834>>ASSIGN   8972>>DOWHILE
      8973>>ASSIGN   9020<<ASSIGN   9020>>ASSIGN  10595>>ASSIGN  10769<<ASSIGN  10769>>ASSIGN  10865>>IF
     10867>>ASSIGN  10897<<ASSIGN  10897>>ASSIGN  10975>>IF      10977>>ASSIGN  10990<<ASSIGN  10990>>ASSIGN
     11277>>IF      11280>>ASSIGN  11287<<ASSIGN  11287>>ASSIGN  11291>>DOWHILE 11292>>ASSIGN  11302<<ASSIGN
     11302>>ASSIGN
CMDLINE_ERR
      8845**LABEL    8823--GOTO     8828--GOTO
CTRLFN_CONFLICTS_W_KEY_FAILURE IN PROCEDURE MOVEMENT_OPERAND
     12015**LABEL   11851--GOTO
CTRL_ARGS IN PROCEDURE MOVEMENT_OPERAND
     11691**DCL     11841<>CALL
CTRL_ARGS IN PROCEDURE STRING_EXPRESSION
      9175**DCL      9881<>CALL     9908<<ASSIGN   9909>>IF       9909>>IF       9912>>IF       9913<<ASSIGN
      9930>>ASSIGN
CURR$MOVE.CODE# IN PROCEDURE ABS_IT_OPERAND
     12738**DCL     12779>>IF      12779>>IF      12779>>IF
CURR$MOVE.FLINK$ IN PROCEDURE ABS_IT_OPERAND
     12738**DCL     12783>>CALL    12785<<ASSIGN
CURR$WINDOW.OPERAND.EDIT_BLOCK$
      7350**DCL      8708>>ASSIGN   8750>>IF      10599>>IF
CURR$WINDOW.OPERAND.INTREE$
      7350**DCL      8710>>IF       8713<>CALL     8715>>ASSIGN   8866<<ASSIGN
CURRENT$FILE_KEY.BYTES IN PROCEDURE DOMAIN_OPERAND
     10361**DCL     10624>>IF
CURRENT$FILE_KEY.LENGTH# IN PROCEDURE DOMAIN_OPERAND
     10359**DCL     10361--IMP-SIZ 10624>>IF
CURRENT_FILE_KEY$ IN PROCEDURE DOMAIN_OPERAND
     10127**DCL     10351--IMP-PTR 10621<<ASSIGN  10621<<ASSIGN  10624>>IF      10624>>IF
CURR_MOVE$ IN PROCEDURE ABS_IT_OPERAND
     12701**DCL     12712--IMP-PTR 12778<<ASSIGN  12779>>IF      12779>>IF      12779>>IF      12783>>CALL
     12785>>ASSIGN  12786>>ASSIGN  12787>>ASSIGN
CURR_WINDOW$
      7288**DCL      7309--IMP-PTR  8705<<ASSIGN   8706>>IF       8708>>ASSIGN   8710>>IF       8713>>CALL
      8715>>ASSIGN   8750>>IF       8866>>ASSIGN  10599>>IF
PL6.E3A0      #001=VDE$PBLOCK_EXPR File=VDE$PARSE.:VDA5TSI                       FRI 07/04/97 11:13 Page:228
DEC_CONVERT_FAILED IN PROCEDURE MOVEMENT_OPERAND
     12025**LABEL   11921--GOTO
DOMAIN$FILE_KEY.BYTES IN PROCEDURE PLO_NAME
     12502**DCL     12573>>IF
DOMAIN$FILE_KEY.LENGTH# IN PROCEDURE PLO_NAME
     12500**DCL     12502--IMP-SIZ 12573>>IF
DOMAIN_FILE_KEY$ IN PROCEDURE PLO_NAME
     12179**DCL     12492--IMP-PTR 12556<<ASSIGN  12556<<ASSIGN  12569<<ASSIGN  12569<<ASSIGN  12573>>IF
     12573>>IF
DOMAIN_OPAND_NOT_1ST_FAILURE IN PROCEDURE PLO_NAME
     12606**LABEL   12574--GOTO
DOMAIN_OPERAND
     10121**PROC     8735--CALL
DOMAIN_OPERAND_FAILED
      8850**LABEL    8735--CALLALT
EACH_MOVEMENT IN PROCEDURE MOVEMENTS
     11291**LABEL   11294--EXIT
EDIT$BLOCK.FILE_KEY.REP#
      7413**DCL     10621>>IF      12556>>IF
EDIT$BLOCK.FILE_KEY.V$
      7413**DCL     10621>>ASSIGN  10621--ASSIGN  12556>>ASSIGN  12556--ASSIGN
EDIT_BLOCK$
      7289**DCL      7375--IMP-PTR  8708<<ASSIGN  10621>>IF      10621>>ASSIGN  10621>>ASSIGN  12556>>IF
     12556>>ASSIGN  12556>>ASSIGN
EQUALS$STREAM.FILE_KEY.V$
      8213**DCL     10686>>ASSIGN
ERR_CODE IN PROCEDURE MOVEMENT_OPERAND
     11692**DCL     12007<<ASSIGN  12011<<ASSIGN  12015<<ASSIGN  12019<<ASSIGN  12024<>CALL
ERR_CODE IN PROCEDURE MOVEMENT_OPTIONS
     11407**DCL     11545<<ASSIGN  11549<<ASSIGN  11553<<ASSIGN  11557<<ASSIGN  11562<>CALL
ERR_SUBST$
      7297**DCL      7978--IMP-PTR  8031--IMP-PTR
EVAL_OPTIONS IN PROCEDURE MOVEMENTS
     11114**DCL     11282<<ASSIGN  11295<<ASSIGN  11811>>ASSIGN  11866>>ASSIGN  11884>>ASSIGN  11900>>ASSIGN
     11947>>ASSIGN  12579>>ASSIGN
EVAL_OPTIONS.DIRECTION# IN PROCEDURE MOVEMENTS
PL6.E3A0      #001=VDE$PBLOCK_EXPR File=VDE$PARSE.:VDA5TSI                       FRI 07/04/97 11:13 Page:229
     11118**DCL     11483>>IF      11485<<ASSIGN  11488>>IF      11490<<ASSIGN  11794>>IF      11803>>IF
     11818>>IF      11878>>IF      11879<<ASSIGN  11894>>IF      11895<<ASSIGN  11941>>IF      11942<<ASSIGN
EVAL_OPTIONS.POINT# IN PROCEDURE MOVEMENTS
     11118**DCL     11493>>IF      11495<<ASSIGN  11498>>IF      11500<<ASSIGN  11503>>IF      11505<<ASSIGN
     11774>>IF      11775<<ASSIGN
EVAL_OPTIONS.SKIP# IN PROCEDURE MOVEMENTS
     11118**DCL     11479<<ASSIGN  11877<<ASSIGN  11893<<ASSIGN  11940<<ASSIGN
EVAL_OPTIONS.SRCH IN PROCEDURE MOVEMENTS
     11118**DCL     11875<<ASSIGN  11891<<ASSIGN  11938<<ASSIGN
FATAL$ERR.ERR
      7909**DCL      8862>>IF
FCLOSE_FAILED IN PROCEDURE STRING_EXPRESSION
     10015**LABEL    9964--CALLALT
FILE_COMMON IN PROCEDURE DOMAIN_OPERAND
     10695**LABEL   10678--GOTO
FILE_KEY$ IN PROCEDURE DOMAIN_OPERAND
     10129**DCL     10448--IMP-PTR 10685<<ASSIGN  10689>>ASSIGN  10691>>CALLBLT 10693>>CALLBLT 10694>>ASSIGN
     10695>>ASSIGN
FOPEN_FAILED IN PROCEDURE STRING_EXPRESSION
     10015**LABEL    9842--CALLALT
FREE_BUFFER IN PROCEDURE STRING_EXPRESSION
     10020**LABEL   10011--GOTO
GUAR_LAST_ADJUST
     12870**PROC     9983--CALL    10775--CALL    11782--CALL
GUAR_LAST_ADJUST_FAILED IN PROCEDURE DOMAIN_OPERAND
     10781**LABEL   10775--CALLALT
GUAR_LAST_ADJUST_FAILED IN PROCEDURE MOVEMENT_OPERAND
     12025**LABEL   11782--CALLALT
GUAR_LAST_ADJUST_FAILED IN PROCEDURE STRING_EXPRESSION
     10028**LABEL    9983--CALLALT
GUAR_LAST_SELECT
     12944**PROC    10981--CALL    12874--CALL
GUAR_LAST_SELECT_FAILED IN PROCEDURE ADJUST_LIST
     10990**LABEL   10981--CALLALT
GUAR_LAST_SELECT_FAILED IN PROCEDURE GUAR_LAST_ADJUST
     12877**LABEL   12874--CALLALT
PL6.E3A0      #001=VDE$PBLOCK_EXPR File=VDE$PARSE.:VDA5TSI                       FRI 07/04/97 11:13 Page:230
INDX IN PROCEDURE PLO_NAME
     12180**DCL     12606<<ASSIGN  12607>>DOWHILE 12607>>DOWHILE 12609<<ASSIGN  12609>>ASSIGN  12611>>IF
     12617>>ASSIGN  12618>>ASSIGN  12619>>ASSIGN  12619>>ASSIGN  12620>>CALL
IT$BLOCK_EXPR
      7522**DCL      8864<>CALL
IT$BLOCK_EXPR.DOMAINN
      7548**DCL      8749>>IF      12548>>IF
IT$BLOCK_EXPR.DOMAINN.FILE_KEY
      7560**DCL      9849<<ASSIGN  10675<>CALL    10725<<ASSIGN  10740<<ASSIGN
IT$BLOCK_EXPR.DOMAINN.FILE_KEY.REP#
      7562**DCL     10684<<ASSIGN  12569>>IF
IT$BLOCK_EXPR.DOMAINN.FILE_KEY.TYPE#
      7562**DCL     10683<<ASSIGN
IT$BLOCK_EXPR.DOMAINN.FILE_KEY.V$
      7562**DCL     10681<>CALL    10685>>ASSIGN  10701>>CALL    10740<>CALL    12569>>ASSIGN  12569--ASSIGN
IT$BLOCK_EXPR.DOMAINN.NEXT
      7548**DCL     10668<<ASSIGN
IT$BLOCK_EXPR.DOMAINN.PREVIOUS
      7548**DCL     10672<<ASSIGN
IT$BLOCK_EXPR.DOMAINN.RANGE
      7574**DCL      9850<<ASSIGN   9863<>CALL
IT$BLOCK_EXPR.DOMAINN.RANGE.ENDD.EOF
      7630**DCL      9853<<ASSIGN   9961<<ASSIGN  10698<<ASSIGN  10746<<ASSIGN
IT$BLOCK_EXPR.DOMAINN.RANGE.ENDD.KEY
      7626**DCL      9959<<ASSIGN
IT$BLOCK_EXPR.DOMAINN.RANGE.ENDD.POSITION#
      7630**DCL      9957<<ASSIGN
IT$BLOCK_EXPR.DOMAINN.RANGE.START.KEY
      7598**DCL      9851<<ASSIGN  10699<<ASSIGN  10744<<ASSIGN
IT$BLOCK_EXPR.OPTIONS
      7643**DCL      8969>>ASSIGN   9023<<ASSIGN
IT$BLOCK_EXPR.OPTIONS.COMPONENT#
      7645**DCL      9857<<ASSIGN  10708>>IF      10709<<ASSIGN  10756>>IF      10757<<ASSIGN
IT$BLOCK_EXPR.OPTIONS.EXIST#
      7646**DCL      9860<<ASSIGN  10712>>IF      10713<<ASSIGN  10761>>IF      10762<<ASSIGN
IT$BLOCK_EXPR.OPTIONS.KEY_INCR
PL6.E3A0      #001=VDE$PBLOCK_EXPR File=VDE$PARSE.:VDA5TSI                       FRI 07/04/97 11:13 Page:231
      7657**DCL      8772<>CALL     8774--IF
IT$BLOCK_EXPR.OPTIONS.LEVEL#
      7645**DCL      9856<<ASSIGN  10706>>IF      10707<<ASSIGN  10754>>IF      10755<<ASSIGN
IT$BLOCK_EXPR.OPTIONS.PROTECT#
      7645**DCL      9859<<ASSIGN  10710>>IF      10711<<ASSIGN  10759>>IF      10760<<ASSIGN
IT$BLOCK_EXPR.OPTIONS.STRUCTURE$
      7645**DCL      9855<<ASSIGN  10704>>IF      10705<<ASSIGN  10751>>IF      10752<<ASSIGN
IT$BLOCK_EXPR.SELECTS$
      7662**DCL     12773>>IF      13175<<ASSIGN
IT$BLOCK_EXPR.SELECTS_TAIL$
      7662**DCL     13178<<ASSIGN
IT$OPERAND IN PROCEDURE DOMAIN_OPERAND
     10374**DCL     10789<>CALL
IT$OPERAND.CODE# IN PROCEDURE DOMAIN_OPERAND
     10400**DCL     10667<<ASSIGN  10671<<ASSIGN  10697<<ASSIGN  10721<<ASSIGN
IT$OPERAND.OPTIONS.POINT# IN PROCEDURE DOMAIN_OPERAND
     10413**DCL     10663<<ASSIGN
IT$OPERAND.PARAM$ IN PROCEDURE DOMAIN_OPERAND
     10430**DCL     10701<>CALL    10722<>CALL
IT$OPERAND.PARENT$ IN PROCEDURE DOMAIN_OPERAND
     10400**DCL     10777<<ASSIGN
IT$OPERAND IN PROCEDURE MOVEMENTS
     11133**DCL     11910<>CALL    11919<>CALL    12030<>CALL
IT$OPERAND.CODE# IN PROCEDURE MOVEMENTS
     11159**DCL     11812<<ASSIGN  11867<<ASSIGN  11885<<ASSIGN  11901<<ASSIGN  11948<<ASSIGN  12583<<ASSIGN
     12595<<ASSIGN  12775>>IF
IT$OPERAND.KEY IN PROCEDURE MOVEMENTS
     11185**DCL     11813<<ASSIGN  11868<<ASSIGN  11927<<ASSIGN  11930--ASSIGN  11931--ASSIGN
IT$OPERAND.KEY.REP# IN PROCEDURE MOVEMENTS
     11187**DCL     11929<<ASSIGN  12585<<ASSIGN
IT$OPERAND.KEY.TYPE# IN PROCEDURE MOVEMENTS
     11187**DCL     11928<<ASSIGN  12584<<ASSIGN
IT$OPERAND.KEY.V$ IN PROCEDURE MOVEMENTS
     11187**DCL     12586<>CALL    12590>>ASSIGN  12591>>ASSIGN  12591>>ASSIGN
IT$OPERAND.OPTIONS IN PROCEDURE MOVEMENTS
     11170**DCL     11811<<ASSIGN  11866<<ASSIGN  11884<<ASSIGN  11900<<ASSIGN  11947<<ASSIGN  12579<<ASSIGN
PL6.E3A0      #001=VDE$PBLOCK_EXPR File=VDE$PARSE.:VDA5TSI                       FRI 07/04/97 11:13 Page:232
IT$OPERAND.PARAM$ IN PROCEDURE MOVEMENTS
     11189**DCL     11949<>CALL    12596<>CALL
IT$OPERAND.PARENT$ IN PROCEDURE MOVEMENTS
     11159**DCL     11968<<ASSIGN
IT$OPERAND.CODE# IN PROCEDURE STRING_EXPRESSION
      9517**DCL      9976<<ASSIGN
IT$OPERAND.OPTIONS.POINT# IN PROCEDURE STRING_EXPRESSION
      9530**DCL      9975<<ASSIGN
IT$OPERAND.PARAM$ IN PROCEDURE STRING_EXPRESSION
      9547**DCL      9977<<ASSIGN
IT$OPERAND.PARENT$ IN PROCEDURE STRING_EXPRESSION
      9517**DCL      9985<<ASSIGN
IT_BLOCK_EXPR$
      7290**DCL      7522--IMP-PTR  8715<<ASSIGN   8749>>IF       8772>>CALL     8774>>IF       8864>>CALL
      8969>>ASSIGN   9023>>ASSIGN   9849>>ASSIGN   9850>>ASSIGN   9851>>ASSIGN   9853>>ASSIGN   9855>>ASSIGN
      9856>>ASSIGN   9857>>ASSIGN   9859>>ASSIGN   9860>>ASSIGN   9863>>CALL     9957>>ASSIGN   9959>>ASSIGN
      9961>>ASSIGN  10668>>ASSIGN  10672>>ASSIGN  10675>>CALL    10681>>CALL    10683>>ASSIGN  10684>>ASSIGN
     10685>>ASSIGN  10698>>ASSIGN  10699>>ASSIGN  10701>>CALL    10704>>IF      10705>>ASSIGN  10706>>IF
     10707>>ASSIGN  10708>>IF      10709>>ASSIGN  10710>>IF      10711>>ASSIGN  10712>>IF      10713>>ASSIGN
     10725>>ASSIGN  10740>>ASSIGN  10740>>CALL    10744>>ASSIGN  10746>>ASSIGN  10751>>IF      10752>>ASSIGN
     10754>>IF      10755>>ASSIGN  10756>>IF      10757>>ASSIGN  10759>>IF      10760>>ASSIGN  10761>>IF
     10762>>ASSIGN  12548>>IF      12569>>IF      12569>>ASSIGN  12569>>ASSIGN  12773>>IF      13173>>ASSIGN
     13175>>ASSIGN  13178>>ASSIGN
IT_OPERAND$ IN PROCEDURE DOMAIN_OPERAND
     10128**DCL     10374--IMP-PTR 10662<<ASSIGN  10663>>ASSIGN  10667>>ASSIGN  10671>>ASSIGN  10697>>ASSIGN
     10701>>CALL    10721>>ASSIGN  10722>>CALL    10777>>ASSIGN  10779>>ASSIGN  10780>>ASSIGN  10781>>ASSIGN
     10789>>CALL
IT_OPERAND$ IN PROCEDURE MOVEMENTS
     11105**DCL     11133--IMP-PTR 11788<<ASSIGN  11810<<ASSIGN  11811>>ASSIGN  11812>>ASSIGN  11813>>ASSIGN
     11865<<ASSIGN  11866>>ASSIGN  11867>>ASSIGN  11868>>ASSIGN  11883<<ASSIGN  11884>>ASSIGN  11885>>ASSIGN
     11899<<ASSIGN  11900>>ASSIGN  11901>>ASSIGN  11910>>CALL    11919>>CALL    11927>>ASSIGN  11928>>ASSIGN
     11929>>ASSIGN  11930>>ASSIGN  11931>>ASSIGN  11946<<ASSIGN  11947>>ASSIGN  11948>>ASSIGN  11949>>CALL
     11968>>ASSIGN  11970>>ASSIGN  11972>>ASSIGN  11973>>ASSIGN  11974>>ASSIGN  12030>>CALL    12578<<ASSIGN
     12579>>ASSIGN  12583>>ASSIGN  12584>>ASSIGN  12585>>ASSIGN  12586>>CALL    12590>>ASSIGN  12591>>ASSIGN
     12591>>ASSIGN  12595>>ASSIGN  12596>>CALL    12775>>IF
IT_OPERAND$ IN PROCEDURE STRING_EXPRESSION
PL6.E3A0      #001=VDE$PBLOCK_EXPR File=VDE$PARSE.:VDA5TSI                       FRI 07/04/97 11:13 Page:233
      9177**DCL      9491--IMP-PTR  9974<<ASSIGN   9975>>ASSIGN   9976>>ASSIGN   9977>>ASSIGN   9985>>ASSIGN
      9987>>ASSIGN   9988>>ASSIGN   9989>>ASSIGN
KEY IN PROCEDURE MOVEMENT_OPERAND
     11683**DCL     11806<>CALL    11813>>ASSIGN  11836<<ASSIGN  11868>>ASSIGN
KEY.REP# IN PROCEDURE MOVEMENT_OPERAND
     11687**DCL     11838<<ASSIGN
KEY.TYPE# IN PROCEDURE MOVEMENT_OPERAND
     11687**DCL     11837<<ASSIGN
KEY.V$ IN PROCEDURE MOVEMENT_OPERAND
     11687**DCL     11839<<ASSIGN  11854<>CALL    11858>>ASSIGN  11859>>ASSIGN  11859>>ASSIGN
KEY$BUFFER IN PROCEDURE MOVEMENT_OPERAND
     11735**DCL     11844<>CALL    11849<>CALL    11860<>CALL
KEY$BUFFER.BYTES IN PROCEDURE MOVEMENT_OPERAND
     11763**DCL     11859>>ASSIGN
KEY$BUFFER.LENGTH# IN PROCEDURE MOVEMENT_OPERAND
     11761**DCL     11763--IMP-SIZ 11844>>CALL    11849>>CALL    11854>>CALL    11858>>ASSIGN  11859>>ASSIGN
     11860>>CALL
KEYLENGTH IN PROCEDURE DOMAIN_OPERAND
     10131**DCL     10693<<CALLBLT 10694>>ASSIGN  10695>>ASSIGN
KEY_BUFFER$ IN PROCEDURE MOVEMENT_OPERAND
     11689**DCL     11735--IMP-PTR 11840<<ASSIGN  11841<>CALL    11844>>CALL    11844>>CALL    11849>>CALL
     11849>>CALL    11854>>CALL    11858>>ASSIGN  11859>>ASSIGN  11859>>ASSIGN  11860>>CALL    11860>>CALL
KEY_OPTIONS_NOT_LEGAL_FAILURE IN PROCEDURE MOVEMENT_OPERAND
     12011**LABEL   11805--GOTO    11820--GOTO
LAST$ADJUST.FLINK$
      7735**DCL     13065<<ASSIGN
LAST$ADJUST.MOVEMENTS$
      7735**DCL      9988<<ASSIGN  10780<<ASSIGN  11970<<ASSIGN  12775>>IF      12778>>ASSIGN  12792>>CALL
     12794<<ASSIGN
LAST$ADJUST.MOVEMENTS_TAIL$
      7736**DCL      9989<<ASSIGN  10781<<ASSIGN  11973<<ASSIGN  12786<<ASSIGN  12795<<ASSIGN
LAST$ADJUST.NEW_STATE#
      7735**DCL     10986<<ASSIGN  10988<<ASSIGN
LAST$ERR.CMDLINE_INDEX#
      7967**DCL      8850<<ASSIGN  10788<<ASSIGN  10904<<ASSIGN  11563<<ASSIGN  12025<<ASSIGN  12622<<ASSIGN
LAST$ERR.ERR.CODE#
PL6.E3A0      #001=VDE$PBLOCK_EXPR File=VDE$PARSE.:VDA5TSI                       FRI 07/04/97 11:13 Page:234
      7964**DCL      8838<<ASSIGN   8843<<ASSIGN  10000<<ASSIGN  10002<<ASSIGN  10004<<ASSIGN  10006<<ASSIGN
     10008<<ASSIGN
LAST$MOVEMENT.FLINK$
      7772**DCL     11972<<ASSIGN
LAST$SELECT.ADJUSTS$
      7699**DCL     12775>>IF      13063<<ASSIGN
LAST$SELECT.ADJUSTS_TAIL$
      7699**DCL     13066<<ASSIGN
LAST$SELECT.FLINK$
      7698**DCL     13177<<ASSIGN
LAST$SELECT.RPT_ALL
      7698**DCL     10879<<ASSIGN
LAST$SELECT.RPT_COUNT#
      7698**DCL     10875<<ASSIGN  10887<<ASSIGN  12951<<ASSIGN
LAST_ADJUST$
      7292**DCL      7709--IMP-PTR  8717<<ASSIGN   9985>>ASSIGN   9988>>ASSIGN   9989>>ASSIGN  10777>>ASSIGN
     10780>>ASSIGN  10781>>ASSIGN  10986>>ASSIGN  10988>>ASSIGN  11968>>ASSIGN  11970>>ASSIGN  11973>>ASSIGN
     12775>>IF      12775>>IF      12778>>ASSIGN  12786>>ASSIGN  12792>>CALL    12794>>ASSIGN  12795>>ASSIGN
     12877>>IF      13062>>IF      13065>>ASSIGN  13067<<ASSIGN  13180<<ASSIGN
LAST_MOVEMENT$
      7293**DCL      7746--IMP-PTR  8718<<ASSIGN   9987<<ASSIGN  10779<<ASSIGN  11969>>IF      11972>>ASSIGN
     11974<<ASSIGN  12787<<ASSIGN  12796<<ASSIGN  13068<<ASSIGN  13181<<ASSIGN
LAST_SELECT$
      7291**DCL      7672--IMP-PTR  8716<<ASSIGN  10875>>ASSIGN  10879>>ASSIGN  10887>>ASSIGN  12773>>IF
     12775>>IF      12948>>IF      12951>>ASSIGN  13061>>ASSIGN  13063>>ASSIGN  13066>>ASSIGN  13174>>IF
     13177>>ASSIGN  13179<<ASSIGN
LDELETE_FAILED IN PROCEDURE STRING_EXPRESSION
     10015**LABEL    9863--CALLALT
LO$NAME_FILE_KEY.BYTES IN PROCEDURE PLO_NAME
     12479**DCL     12573>>IF
LO$NAME_FILE_KEY.LENGTH# IN PROCEDURE PLO_NAME
     12477**DCL     12479--IMP-SIZ 12573>>IF
LO_NAME_FILE_KEY$ IN PROCEDURE PLO_NAME
     12178**DCL     12469--IMP-PTR 12545<<ASSIGN  12545<<ASSIGN  12573>>IF      12573>>IF
LO_NAME_OPTS_NOT_LEGAL_FAILURE IN PROCEDURE MOVEMENT_OPERAND
     12007**LABEL   11796--GOTO
PL6.E3A0      #001=VDE$PBLOCK_EXPR File=VDE$PARSE.:VDA5TSI                       FRI 07/04/97 11:13 Page:235
LWRITE_FAILED IN PROCEDURE STRING_EXPRESSION
     10015**LABEL    9945--CALLALT
MOVE$CHILD.CODE IN PROCEDURE MOVEMENT_OPTIONS
     11424**DCL     11462>>ASSIGN  11462>>ASSIGN  11465>>DOCASE  11508<>CALL
MOVE$CHILD.CPOS IN PROCEDURE MOVEMENT_OPTIONS
     11442**DCL     11563>>ASSIGN
MOVE$CHILD.SUBLK$ IN PROCEDURE MOVEMENT_OPTIONS
     11449**DCL     11471>>IF      11473>>CALL
MOVEMENTS
     11102**PROC     8760--CALL    10992--CALL
MOVEMENTS_FAILED
      8850**LABEL    8760--CALLALT
MOVEMENTS_FAILED IN PROCEDURE ADJUST_LIST
     10990**LABEL   10992--CALLALT
MOVEMENT_OPERAND IN PROCEDURE MOVEMENTS
     11624**PROC    11285--CALL    11300--CALL
MOVEMENT_OPERAND_FAILED IN PROCEDURE MOVEMENTS
     11300**LABEL   11285--CALLALT 11300--CALLALT
MOVEMENT_OPTIONS IN PROCEDURE MOVEMENTS
     11355**PROC    11298--CALL
MOVEMENT_OPTIONS_FAILED IN PROCEDURE MOVEMENTS
     11300**LABEL   11298--CALLALT
MOVE_CHILD$ IN PROCEDURE MOVEMENT_OPTIONS
     11405**DCL     11416--IMP-PTR 11460<<ASSIGN  11462>>ASSIGN  11462>>ASSIGN  11465>>DOCASE  11471>>IF
     11473>>CALL    11508>>CALL    11563>>ASSIGN
MOVE_CHILD_INDEX IN PROCEDURE MOVEMENT_OPTIONS
     11404**DCL     11459<<DOINDEX 11460>>ASSIGN
NAME$DESC IN PROCEDURE DOMAIN_OPERAND
     10181**DCL     10722<>CALL
NAME$DESC.FILE_KEY IN PROCEDURE DOMAIN_OPERAND
     10217**DCL     10740>>ASSIGN
NAME$DESC.FILE_KEY.REP# IN PROCEDURE DOMAIN_OPERAND
     10219**DCL     10611>>IF      10740>>IF
NAME$DESC.FILE_KEY.V$ IN PROCEDURE DOMAIN_OPERAND
     10219**DCL     10611>>ASSIGN  10611--ASSIGN  10740>>CALL    10740>>CALL
NAME$DESC.OPTIONS.COMPONENT# IN PROCEDURE DOMAIN_OPERAND
PL6.E3A0      #001=VDE$PBLOCK_EXPR File=VDE$PARSE.:VDA5TSI                       FRI 07/04/97 11:13 Page:236
     10302**DCL     10757>>ASSIGN
NAME$DESC.OPTIONS.EXIST# IN PROCEDURE DOMAIN_OPERAND
     10303**DCL     10762>>ASSIGN
NAME$DESC.OPTIONS.LEVEL# IN PROCEDURE DOMAIN_OPERAND
     10302**DCL     10755>>ASSIGN
NAME$DESC.OPTIONS.PROTECT# IN PROCEDURE DOMAIN_OPERAND
     10302**DCL     10760>>ASSIGN
NAME$DESC.OPTIONS.STRUCTURE$ IN PROCEDURE DOMAIN_OPERAND
     10302**DCL     10752>>ASSIGN
NAME$FILE_KEY.BYTES IN PROCEDURE DOMAIN_OPERAND
     10338**DCL     10624>>IF
NAME$FILE_KEY.LENGTH# IN PROCEDURE DOMAIN_OPERAND
     10336**DCL     10338--IMP-SIZ 10624>>IF
NAME$NODE.ACCESS IN PROCEDURE PLO_NAME
     12414**DCL     12581>>IF
NAME_DESC$ IN PROCEDURE DOMAIN_OPERAND
     10125**DCL     10181--IMP-PTR 10601<>CALL    10611>>IF      10611>>ASSIGN  10611>>ASSIGN  10722>>CALL
     10740>>ASSIGN  10740>>IF      10740>>CALL    10740>>CALL    10752>>ASSIGN  10755>>ASSIGN  10757>>ASSIGN
     10760>>ASSIGN  10762>>ASSIGN
NAME_FILE_KEY$ IN PROCEDURE DOMAIN_OPERAND
     10126**DCL     10328--IMP-PTR 10611<<ASSIGN  10611<<ASSIGN  10624>>IF      10624>>IF
NAME_NODE$ IN PROCEDURE PLO_NAME
     12177**DCL     12376--IMP-PTR 12534<>CALL    12581>>IF
NEW$ADJUST.PARENT$ IN PROCEDURE ALLOC_IT_ADJUST
     13051**DCL     13061<<ASSIGN
NEW$SELECT.PARENT$ IN PROCEDURE ALLOC_IT_SELECT
     13163**DCL     13173<<ASSIGN
NEW_ADJUST$ IN PROCEDURE ALLOC_IT_ADJUST
     13014**DCL     13025--IMP-PTR 13059<<ASSIGN  13061>>ASSIGN  13063>>ASSIGN  13065>>ASSIGN  13066>>ASSIGN
     13067>>ASSIGN
NEW_SELECT$ IN PROCEDURE ALLOC_IT_SELECT
     13126**DCL     13137--IMP-PTR 13171<<ASSIGN  13173>>ASSIGN  13175>>ASSIGN  13177>>ASSIGN  13178>>ASSIGN
     13179>>ASSIGN
NO_EDIT_BLOCK_FAILURE
      8827**LABEL    8752--GOTO
NUMBER IN PROCEDURE MOVEMENT_OPERAND
PL6.E3A0      #001=VDE$PBLOCK_EXPR File=VDE$PARSE.:VDA5TSI                       FRI 07/04/97 11:13 Page:237
     11673**DCL     11841<>CALL    11907<>CALL    11916<>CALL    11924>>IF      11924>>IF      11931>>ASSIGN
NUMBER IN PROCEDURE MOVEMENT_OPTIONS
     11406**DCL     11473<>CALL    11476>>IF      11476>>IF      11479>>ASSIGN
OALLOC_FAILED
      8866**LABEL    8713--CALLALT
OALLOC_FAILED IN PROCEDURE ALLOC_IT_ADJUST
     13074**LABEL   13057--CALLALT
OALLOC_FAILED IN PROCEDURE ALLOC_IT_SELECT
     13181**LABEL   13169--CALLALT
OALLOC_FAILED IN PROCEDURE DOMAIN_OPERAND
     10781**LABEL   10660--CALLALT 10681--CALLALT
OALLOC_FAILED IN PROCEDURE MOVEMENT_OPERAND
     12025**LABEL   11808--CALLALT 11854--CALLALT 11863--CALLALT 11881--CALLALT 11897--CALLALT 11944--CALLALT
OALLOC_FAILED IN PROCEDURE PLO_NAME
     12619**LABEL   12576--CALLALT 12586--CALLALT 12613--CALLALT
OALLOC_FAILED IN PROCEDURE STRING_EXPRESSION
     10028**LABEL    9825--CALLALT  9894--CALLALT  9916--CALLALT  9972--CALLALT
OCOPY_FAILED IN PROCEDURE DOMAIN_OPERAND
     10781**LABEL   10701--CALLALT 10722--CALLALT
OCOPY_FAILED IN PROCEDURE PLO_NAME
     12619**LABEL   12596--CALLALT
OFREE_FAILED
      8866**LABEL    8864--CALLALT
OFREE_FAILED IN PROCEDURE ABS_IT_OPERAND
     12792**LABEL   12783--CALLALT 12792--CALLALT
OFREE_FAILED IN PROCEDURE DOMAIN_OPERAND
     10781**LABEL   10789--CALLALT
OFREE_FAILED IN PROCEDURE MOVEMENT_OPERAND
     12025**LABEL   11844--CALLALT 11849--CALLALT 11860--CALLALT 11910--CALLALT 11919--CALLALT 12030--CALLALT
OFREE_FAILED IN PROCEDURE STRING_EXPRESSION
     10028**LABEL   10020--CALLALT
OPEN_OPTIONS IN PROCEDURE STRING_EXPRESSION
      9122**DCL      9828<<ASSIGN   9842<>CALL
OPEN_OPTIONS.EXIST# IN PROCEDURE STRING_EXPRESSION
      9127**DCL      9831<<ASSIGN
OPEN_OPTIONS.PROTECT# IN PROCEDURE STRING_EXPRESSION
PL6.E3A0      #001=VDE$PBLOCK_EXPR File=VDE$PARSE.:VDA5TSI                       FRI 07/04/97 11:13 Page:238
      9126**DCL      9830<<ASSIGN
OPEN_OPTIONS.STRUCTURE$ IN PROCEDURE STRING_EXPRESSION
      9126**DCL      9829<<ASSIGN
OPERAND IN PROCEDURE MOVEMENT_OPERAND
     11632**DCL     11624--PROC    11797<>CALL    11806<>CALL    11949<>CALL
OPERAND.CODE IN PROCEDURE MOVEMENT_OPERAND
     11640**DCL     11785>>ASSIGN  11785>>ASSIGN  11791>>DOCASE  11954<>CALL
OPERAND.CPOS IN PROCEDURE MOVEMENT_OPERAND
     11658**DCL     12025>>ASSIGN
OPERAND.NSUBLKS IN PROCEDURE MOVEMENT_OPERAND
     11644**DCL     11903>>IF
OPERAND.SUBLK$ IN PROCEDURE MOVEMENT_OPERAND
     11665**DCL     11841>>CALL    11905>>IF      11907>>CALL    11916>>CALL
OPTIONS IN PROCEDURE PROCESSING_OPTIONS
      8945**DCL      8969<<ASSIGN   9023>>ASSIGN
OPTIONS.EXIST# IN PROCEDURE PROCESSING_OPTIONS
      8950**DCL      9001>>IF       9003<<ASSIGN   9006>>IF       9008<<ASSIGN   9011>>IF       9013<<ASSIGN
OPTIONS.PROTECT# IN PROCEDURE PROCESSING_OPTIONS
      8949**DCL      8977>>IF       8980<<ASSIGN   8982<<ASSIGN
OPTIONS.STRUCTURE$ IN PROCEDURE PROCESSING_OPTIONS
      8949**DCL      8985>>IF       8990<<ASSIGN   8993<<ASSIGN   8996<<ASSIGN
OPTION_LOOP IN PROCEDURE PROCESSING_OPTIONS
      8972**LABEL    9016--EXIT
OTHER_FAILURE
      8862**LABEL    8822--CALLALT  8827--CALLALT  8832--CALLALT
OUT$BLK IN PROCEDURE MOVEMENTS
     11197**DCL     11300<>CALL    11473<>CALL    11841<>CALL    11907<>CALL
OUT$BLK.CODE IN PROCEDURE MOVEMENTS
     11205**DCL     11471>>IF      11905>>IF
OUT$BLK.SUBLK$ IN PROCEDURE MOVEMENTS
     11230**DCL     11473>>CALL    11841>>CALL
OUT$SYM.COUNT IN PROCEDURE DOMAIN_OPERAND
     10165**DCL     10168--IMP-SIZ
OUT$SYM.TEXTC$ IN PROCEDURE DOMAIN_OPERAND
     10160**DCL     10601>>CALL    10601>>CALL    10675>>CALL    10675>>CALL
OUT$SYM.COUNT IN PROCEDURE MOVEMENTS
PL6.E3A0      #001=VDE$PBLOCK_EXPR File=VDE$PARSE.:VDA5TSI                       FRI 07/04/97 11:13 Page:239
     11266**DCL     11269--IMP-SIZ
OUT$SYM.TEXTC$ IN PROCEDURE MOVEMENTS
     11261**DCL     11916<>CALL
PFILE_TO_EDIT_FAILED IN PROCEDURE DOMAIN_OPERAND
     10788**LABEL   10675--CALLALT
PLO_NAME IN PROCEDURE MOVEMENT_OPERAND
     12126**PROC    11797--CALL
PLO_NAME_FAILED IN PROCEDURE MOVEMENT_OPERAND
     12025**LABEL   11797--CALLALT
PNUMBER_FAILED IN PROCEDURE MOVEMENT_OPERAND
     12025**LABEL   11912--GOTO
PNUMBER_FAILED IN PROCEDURE MOVEMENT_OPTIONS
     11563**LABEL   11473--CALLALT
PNUMBER_FAILED IN PROCEDURE SELECT_CLAUSE
     10897**LABEL   10881--CALLALT
PNUMERIC_KEY_FAILED
      8850**LABEL    8772--CALLALT
PNUMERIC_KEY_FAILED IN PROCEDURE MOVEMENT_OPERAND
     12025**LABEL   11806--CALLALT
POSITION_NOT_IN_RANGE_FAILURE IN PROCEDURE MOVEMENT_OPERAND
     12019**LABEL   11926--GOTO
PPATTERN_FAILED IN PROCEDURE MOVEMENT_OPERAND
     12030**LABEL   11949--CALLALT
PREAD_LO_NAME_FAILED IN PROCEDURE DOMAIN_OPERAND
     10781**LABEL   10601--CALLALT
PREAD_LO_NAME_FAILED IN PROCEDURE PLO_NAME
     12619**LABEL   12534--CALLALT
PREDEF$KEY.OBJECT.CLASS# IN PROCEDURE DOMAIN_OPERAND
     10560**DCL     10688>>IF
PREDEF$KEY.UNIQUE.FNAME.BYTES IN PROCEDURE DOMAIN_OPERAND
     10564**DCL     10689>>ASSIGN
PREDEF$NODE.FILE_STCLASS IN PROCEDURE DOMAIN_OPERAND
     10516**DCL     10691>>CALLBLT
PREDEF$NODE.KEY IN PROCEDURE DOMAIN_OPERAND
     10515**DCL     10691>>CALLBLT
PREV_CHILD_INDEX
PL6.E3A0      #001=VDE$PBLOCK_EXPR File=VDE$PARSE.:VDA5TSI                       FRI 07/04/97 11:13 Page:240
      7294**DCL      8755<<ASSIGN   8757>>DOWHILE  8759<<ASSIGN
PROCESSING_OPTIONS
      8933**PROC     8733--CALL
PROCESSING_OPTIONS_FAILED
      8850**LABEL    8733--CALLALT
PSTRING_FAILED IN PROCEDURE MOVEMENT_OPERAND
     12025**LABEL   11846--GOTO
PSTRING_FAILED IN PROCEDURE STRING_EXPRESSION
     10015**LABEL    9881--CALLALT
PT$SYMBOL.COUNT IN PROCEDURE PLO_NAME
     12213**DCL     12216--IMP-SIZ 12581>>IF      12586>>CALL    12590>>ASSIGN  12591>>ASSIGN  12613>>CALL
     12618>>ASSIGN  12619>>ASSIGN
PT$SYMBOL.TEXT IN PROCEDURE PLO_NAME
     12216**DCL     12581>>IF      12591>>ASSIGN  12619>>ASSIGN
PT$SYMBOL.TEXTC$ IN PROCEDURE PLO_NAME
     12208**DCL     12534>>CALL    12534>>CALL
PT_BLOCK_EXPR
      6507**DCL       204--PROC
PT_BLOCK_EXPR.CODE
      6515**DCL      8721>>ASSIGN   8721>>ASSIGN   8724>>IF
PT_BLOCK_EXPR.NSUBLKS
      6519**DCL      8750>>IF       8757>>DOWHILE  8769>>IF       8783>>IF       8972>>DOWHILE 10865>>IF
     10975>>IF      11277>>IF      11291>>DOWHILE
PT_BLOCK_EXPR.SUBLK$
      6540**DCL      8731>>ASSIGN   8770>>ASSIGN   8834>>ASSIGN   8973>>ASSIGN   9878>>ASSIGN  10595>>ASSIGN
     10867>>ASSIGN  10977>>ASSIGN  11280>>ASSIGN  11292>>ASSIGN
PT_LO_NAME IN PROCEDURE PLO_NAME
     12134**DCL     12126--PROC
PT_LO_NAME.CPOS IN PROCEDURE PLO_NAME
     12160**DCL     12622>>ASSIGN
PT_LO_NAME.SUBLK$ IN PROCEDURE PLO_NAME
     12167**DCL     12533>>ASSIGN
PT_MOVEMENT IN PROCEDURE MOVEMENT_OPTIONS
     11363**DCL     11355--PROC
PT_MOVEMENT.NSUBLKS IN PROCEDURE MOVEMENT_OPTIONS
     11375**DCL     11459>>DOINDEX
PL6.E3A0      #001=VDE$PBLOCK_EXPR File=VDE$PARSE.:VDA5TSI                       FRI 07/04/97 11:13 Page:241
PT_MOVEMENT.SUBLK$ IN PROCEDURE MOVEMENT_OPTIONS
     11396**DCL     11460>>ASSIGN
PT_SYMBOL$ IN PROCEDURE PLO_NAME
     12175**DCL     12190--IMP-PTR 12533<<ASSIGN  12534>>CALL    12534>>CALL    12581>>IF      12581>>IF
     12586>>CALL    12590>>ASSIGN  12591>>ASSIGN  12591>>ASSIGN  12613>>CALL    12618>>ASSIGN  12619>>ASSIGN
     12619>>ASSIGN
RET_CODE IN PROCEDURE MOVEMENT_OPERAND
     11690**DCL     11841<>CALL    11848>>IF
RET_CODE IN PROCEDURE STRING_EXPRESSION
      9174**DCL      9881<>CALL     9905>>IF       9905>>IF       9907>>IF       9938<<ASSIGN   9941>>IF
      9941>>IF       9947>>IF       9956>>IF       9998>>DOSELCT
RPT_COUNT IN PROCEDURE SELECT_CLAUSE
     10861**DCL     10881<>CALL    10884>>IF      10884>>IF      10887>>ASSIGN
RPT_COUNT_NOT_IN_RANGE_FAILURE IN PROCEDURE SELECT_CLAUSE
     10903**LABEL   10886--GOTO
SAVE_ACCESSOR_PRIV IN PROCEDURE STRING_EXPRESSION
      9098**DCL      9840<<ASSIGN   9966>>ASSIGN  10028>>ASSIGN
SELECT_CLAUSE
     10858**PROC     8766--CALL
SELECT_CLAUSE_FAILED
      8850**LABEL    8766--CALLALT
SELECT_CLAUSE_LOOP
      8757**LABEL    8778--EXIT
SERIOUS_USER_ERROR IN PROCEDURE MOVEMENT_OPERAND
     12024**LABEL   12008--GOTO    12012--GOTO    12016--GOTO    12020--GOTO
SERIOUS_USER_ERROR IN PROCEDURE MOVEMENT_OPTIONS
     11562**LABEL   11546--GOTO    11550--GOTO    11554--GOTO    11558--GOTO
SKIP_NOT_IN_RANGE_FAILURE IN PROCEDURE MOVEMENT_OPTIONS
     11549**LABEL   11478--GOTO
SKIP_SEEN IN PROCEDURE MOVEMENTS
     11122**DCL     11284<<ASSIGN  11297<<ASSIGN  11468>>IF      11470<<ASSIGN  11794>>IF      11803>>IF
     11818>>IF      11876>>IF      11892>>IF      11939>>IF
SRCH_SEEN IN PROCEDURE MOVEMENTS
     11121**DCL     11283<<ASSIGN  11296<<ASSIGN  11874>>IF      11890>>IF      11937>>IF
STRING$STREAM IN PROCEDURE STRING_EXPRESSION
      9189**DCL      9842<>CALL     9863<>CALL     9945<>CALL     9964<>CALL     9991<>CALL    10034<>CALL
PL6.E3A0      #001=VDE$PBLOCK_EXPR File=VDE$PARSE.:VDA5TSI                       FRI 07/04/97 11:13 Page:242
STRING$STREAM.PORT$ IN PROCEDURE STRING_EXPRESSION
      9215**DCL      9948>>ASSIGN
STRING_EXPRESSION
      9095**PROC     8725--CALL
STRING_EXPRESSION_FAILED
      8850**LABEL    8725--CALLALT
STRING_LOC IN PROCEDURE STRING_EXPRESSION
      9151**DCL      9871<<ASSIGN   9931>>ASSIGN   9945<>CALL
STRING_LOC.KEY IN PROCEDURE STRING_EXPRESSION
      9165**DCL      9887--ASSIGN   9887--ASSIGN   9959>>ASSIGN
STRING_STREAM$ IN PROCEDURE STRING_EXPRESSION
      9113**DCL      9189--IMP-PTR  9824<<ASSIGN   9825<>CALL     9842>>CALL     9863>>CALL     9945>>CALL
      9948>>ASSIGN   9964>>CALL     9991>>CALL    10034>>CALL
STR_INDEX IN PROCEDURE STRING_EXPRESSION
      9172**DCL      9879<<ASSIGN   9880>>DOUNTIL  9881<>CALL     9935>>IF
T$
      7298**DCL      9916<>CALL     9919>>ASSIGN   9972<>CALL     9974>>ASSIGN  10660<>CALL    10662>>ASSIGN
     11808<>CALL    11810>>ASSIGN  11863<>CALL    11865>>ASSIGN  11881<>CALL    11883>>ASSIGN  11897<>CALL
     11899>>ASSIGN  11944<>CALL    11946>>ASSIGN  12576<>CALL    12578>>ASSIGN  12613<>CALL    12617>>ASSIGN
     13057<>CALL    13059>>ASSIGN  13169<>CALL    13171>>ASSIGN
TOO_MANY_DIRECTIONS_FAILURE IN PROCEDURE MOVEMENT_OPTIONS
     11553**LABEL   11484--GOTO    11489--GOTO
TOO_MANY_POINTS_FAILURE IN PROCEDURE MOVEMENT_OPTIONS
     11557**LABEL   11494--GOTO    11499--GOTO    11504--GOTO
TOO_MANY_PROC_OPTS_FAILURE IN PROCEDURE PROCESSING_OPTIONS
      9029**LABEL    8978--GOTO     8986--GOTO     9002--GOTO     9007--GOTO     9012--GOTO
TOO_MANY_SKIPS_FAILURE IN PROCEDURE MOVEMENT_OPTIONS
     11545**LABEL   11469--GOTO
TOO_MANY_WILD_STRINGS_FAILURE IN PROCEDURE STRING_EXPRESSION
     10002**LABEL    9924--GOTO
UNPROCESSED_NODE_FAILURE
      8832**LABEL    8784--GOTO
VD$FILE_KEY IN PROCEDURE DOMAIN_OPERAND
     10448**DCL     10701<>CALL
VD$FILE_KEY.LENGTH# IN PROCEDURE DOMAIN_OPERAND
     10475**DCL     10695<<ASSIGN
PL6.E3A0      #001=VDE$PBLOCK_EXPR File=VDE$PARSE.:VDA5TSI                       FRI 07/04/97 11:13 Page:243
VD$FILE_KEY.UNIQUE.FNAME.BYTES IN PROCEDURE DOMAIN_OPERAND
     10477**DCL     10689<<ASSIGN  10691<<CALLBLT 10693>>CALLBLT
VD$FILE_KEY.UNIQUE.FNAME.LENGTH# IN PROCEDURE DOMAIN_OPERAND
     10476**DCL     10694<<ASSIGN
VD$FILE_NODE.DESC.SPEC.V$
      8359**DCL      8705>>ASSIGN
VD$IT_OPERAND
      8447**DCL     12783<>CALL    12792<>CALL
VD$KEY_NUMBER.BYTES#
      7861**DCL      8774>>IF
VD$KEY_NUMBER.BYTES# IN PROCEDURE MOVEMENT_OPERAND
     11707**DCL     11931<<ASSIGN
VD$KEY_NUMBER.LENGTH# IN PROCEDURE MOVEMENT_OPERAND
     11707**DCL     11930<<ASSIGN
VD$KEY_NUMBER.BYTES# IN PROCEDURE STRING_EXPRESSION
      9791**DCL      9887<<ASSIGN   9887>>ASSIGN   9936<<ASSIGN   9936>>ASSIGN
VD$PORT.LEVEL.INTERNAL$
      8697**DCL      9948>>ASSIGN
VD$STRING_HEADER
      8574**DCL     11854--CALL    12586--CALL    12613--CALL
VD$TEXTC IN PROCEDURE DOMAIN_OPERAND
     10576**DCL     10601<>CALL    10675<>CALL
VD$TEXTC.LENGTH# IN PROCEDURE DOMAIN_OPERAND
     10584**DCL     10586--IMP-SIZ 10601>>CALL    10675>>CALL
VD$TEXTC IN PROCEDURE PLO_NAME
     12515**DCL     12534<>CALL
VD$TEXTC.LENGTH# IN PROCEDURE PLO_NAME
     12523**DCL     12525--IMP-SIZ 12534>>CALL
VD$TEXTC.LENGTH# IN PROCEDURE STRING_EXPRESSION
      9810**DCL      9812--IMP-SIZ  9880>>DOUNTIL  9935>>IF
VD$TEXTC_REMOTE
      8530**DCL     10740<>CALL
VD$TEXTC_REMOTE.BYTES
      8561**DCL     11859<<ASSIGN  12591<<ASSIGN  12619<<ASSIGN
VD$TEXTC_REMOTE.LENGTH#
      8559**DCL      8561--IMP-SIZ 10611--ASSIGN  10621--ASSIGN  10740>>CALL    11858<<ASSIGN  11859>>ASSIGN
PL6.E3A0      #001=VDE$PBLOCK_EXPR File=VDE$PARSE.:VDA5TSI                       FRI 07/04/97 11:13 Page:244
     12545--ASSIGN  12556--ASSIGN  12569--ASSIGN  12590<<ASSIGN  12591>>ASSIGN  12618<<ASSIGN  12619>>ASSIGN
     12620<>CALL
VDA$FCLOSE
      6558**DCL-ENT  9964--CALL
VDA$FOPEN
      6555**DCL-ENT  9842--CALL
VDA$LDELETE
      6557**DCL-ENT  9863--CALL
VDA$LWRITE
      6556**DCL-ENT  9945--CALL
VDE$PFILE_TO_EDIT
      6552**DCL-ENT 10675--CALL
VDE$PNUMBER
      6550**DCL-ENT 10881--CALL    11473--CALL    11907--CALL
VDE$PNUMERIC_KEY
      6551**DCL-ENT  8772--CALL    11806--CALL
VDE$PPATTERN
      6553**DCL-ENT 11949--CALL
VDE$PREAD_LO_NAME
      6554**DCL-ENT 10601--CALL    12534--CALL
VDE$PSTRING
      6549**DCL-ENT  9881--CALL    11841--CALL
VDG$ERRMSG
      6559**DCL-ENT  8822--CALL     8827--CALL     8832--CALL     9029--CALL     9997--CALL    10015--CALL
     10903--CALL    11562--CALL    12024--CALL    12620--CALL    12803--CALL
VDG$ESCREECH
      6564**DCL-ENT  8704--CALL     8707--CALL     8711--CALL     8846--CALL    10765--CALL    11508--CALL
     11954--CALL    12612--CALL
VDG$OALLOC
      6562**DCL-ENT  8713--CALL     9825--CALL     9894--CALL     9916--CALL     9972--CALL    10660--CALL
     10681--CALL    11808--CALL    11854--CALL    11863--CALL    11881--CALL    11897--CALL    11944--CALL
     12576--CALL    12586--CALL    12613--CALL    13057--CALL    13169--CALL
VDG$OCOPY
      6560**DCL-ENT 10701--CALL    10722--CALL    10740--CALL    12596--CALL
VDG$OFREE
      6563**DCL-ENT  8864--CALL     9991--CALL    10020--CALL    10034--CALL    10789--CALL    11844--CALL
PL6.E3A0      #001=VDE$PBLOCK_EXPR File=VDE$PARSE.:VDA5TSI                       FRI 07/04/97 11:13 Page:245
     11849--CALL    11860--CALL    11910--CALL    11919--CALL    12030--CALL    12783--CALL    12792--CALL
VD_$COMPONENT.V#
      6863**DCL     10709>>ASSIGN
VD_$DIRECTION.V#
      6908**DCL     11879>>ASSIGN  11895>>ASSIGN  11942>>ASSIGN
VD_$EXIST.V#
      6953**DCL     10713>>ASSIGN
VD_$POINT.V#
      6998**DCL     11775>>ASSIGN
VD_$PROTECT.V#
      7043**DCL     10711>>ASSIGN
VD_$SEARCH.V#
      7088**DCL     11875>>ASSIGN  11891>>ASSIGN  11938>>ASSIGN
VD_$SKIP.V#
      7133**DCL     11877>>ASSIGN  11893>>ASSIGN  11940>>ASSIGN
VD_$STRUCTURE.V$
      7178**DCL     10705>>ASSIGN
VD_6E.EQUALS$
      6581**DCL      8174--IMP-PTR 10686>>ASSIGN
VD_6E.ERR_HEAD$
      6600**DCL      7872--IMP-PTR  8862>>IF
VD_6E.ERR_TAIL$
      6600**DCL      7925--IMP-PTR  8838>>ASSIGN   8843>>ASSIGN   8850>>ASSIGN  10000>>ASSIGN  10002>>ASSIGN
     10004>>ASSIGN  10006>>ASSIGN  10008>>ASSIGN  10788>>ASSIGN  10904>>ASSIGN  11563>>ASSIGN  12025>>ASSIGN
     12622>>ASSIGN
VD_6E.LOCATIONS$
      6581**DCL      8068--IMP-PTR
VD_6E.STATS_TOKENS#
      6602**DCL      8721<<ASSIGN   8721>>ASSIGN  11462<<ASSIGN  11462>>ASSIGN  11785<<ASSIGN  11785>>ASSIGN
VD_6E.STRUCTURE_EDITKEY$
      6582**DCL      8993>>ASSIGN
VD_6E.STRUCTURE_SCRATCH$
      6583**DCL      9829>>ASSIGN   9855>>ASSIGN
VD_6E.STRUCTURE_SEQUENTIAL$
      6583**DCL      8996>>ASSIGN
VD_6E.STRUCTURE_STRINGKEY$
PL6.E3A0      #001=VDE$PBLOCK_EXPR File=VDE$PARSE.:VDA5TSI                       FRI 07/04/97 11:13 Page:246
      6583**DCL      8990>>ASSIGN
VD_6E.WILD_STRINGS$
      6599**DCL      9564--IMP-PTR  9868>>IF       9869>>ASSIGN   9915>>IF       9919<<ASSIGN   9920>>ASSIGN
      9923>>IF       9926>>ASSIGN   9926>>ASSIGN   9928>>ASSIGN   9928>>ASSIGN
VD_ACCESSOR_PRIV
      7181**DCL      9840>>ASSIGN   9841<<ASSIGN   9966<<ASSIGN  10028<<ASSIGN
VD_CMD_OBJECTS$
      7284**DCL     12607>>DOWHILE 12617<<ASSIGN  12618>>ASSIGN  12619>>ASSIGN  12619>>ASSIGN  12620>>CALL
VD_CURRENT_WINDOW$
      6604**DCL      8703>>IF       8705>>ASSIGN
VD_FKEY_SCRATCH_SOURCE
      7214**DCL      9977--ASSIGN
VD_KEY_NUMERIC_BOF
      6815**DCL      9851>>ASSIGN   9871>>ASSIGN  10699>>ASSIGN  10744>>ASSIGN
VD_KEY_SCRATCH_SOURCE
      7259**DCL      9842<>CALL     9849>>ASSIGN
VD_PARSED_PREDEF_FILE$ IN PROCEDURE DOMAIN_OPERAND
     10130**DCL     10489--IMP-PTR 10535--IMP-PTR 10686<<ASSIGN  10688>>IF      10689>>ASSIGN  10691>>CALLBLT
     10691>>CALLBLT
WILD$STRING.W IN PROCEDURE STRING_EXPRESSION
      9707**DCL      9926--ASSIGN
WILD$STRING.W.N# IN PROCEDURE STRING_EXPRESSION
      9707**DCL      9930<<ASSIGN
WILD$STRING.W.RANGE.ENDD IN PROCEDURE STRING_EXPRESSION
      9759**DCL      9933<<ASSIGN   9936--ASSIGN   9936--ASSIGN
WILD$STRING.W.RANGE.START IN PROCEDURE STRING_EXPRESSION
      9731**DCL      9931<<ASSIGN   9933>>ASSIGN
WILD$STRING.W.RANGE.START.POSITION# IN PROCEDURE STRING_EXPRESSION
      9747**DCL      9932<<ASSIGN
WILD$STRINGS IN PROCEDURE STRING_EXPRESSION
      9564**DCL      9916--CALL
WILD$STRINGS.N_WILDCARDS# IN PROCEDURE STRING_EXPRESSION
      9592**DCL      9869<<ASSIGN   9920<<ASSIGN   9923>>IF       9926>>ASSIGN   9928<<ASSIGN   9928>>ASSIGN
WILD$STRINGS.W IN PROCEDURE STRING_EXPRESSION
      9592**DCL      9916--CALL
WILD_STRING$ IN PROCEDURE STRING_EXPRESSION
PL6.E3A0      #001=VDE$PBLOCK_EXPR File=VDE$PARSE.:VDA5TSI                       FRI 07/04/97 11:13 Page:247
      9178**DCL      9679--IMP-PTR  9926<<ASSIGN   9930>>ASSIGN   9931>>ASSIGN   9932>>ASSIGN   9933>>ASSIGN
      9933>>ASSIGN   9936>>ASSIGN   9936>>ASSIGN
WRITTEN$NODE.DESC.DATA$ IN PROCEDURE STRING_EXPRESSION
      9479**DCL      9957>>ASSIGN
WRITTEN$NODE.DESC.EOR IN PROCEDURE STRING_EXPRESSION
      9479**DCL      9950<<ASSIGN
WRITTEN_NODE$ IN PROCEDURE STRING_EXPRESSION
      9176**DCL      9398--IMP-PTR  9948<<ASSIGN   9950>>ASSIGN   9957>>ASSIGN
X$DEC_CONVERT
      6565**DCL-ENT 11916--CALL
XUE$EXP IN PROCEDURE STRING_EXPRESSION
      9293**DCL      9881<>CALL
XUE_ECB.OUT$
      6651**DCL      9880>>DOUNTIL  9935>>IF
XUE_EXP$ IN PROCEDURE STRING_EXPRESSION
      9171**DCL      9293--IMP-PTR  9878<<ASSIGN   9881>>CALL     9884>>IF       9885<<ASSIGN

