VERSION A05

PL6.E3A0      #001=VDG$MAIN File=VDG$MAIN.:VDA5TSI                               FRI 07/04/97 11:18 Page:1
        1        1        /*M* VDG$MAIN - Main procedure for 6Edit */
        2        2        /*T***********************************************************/
        3        3        /*T*                                                         */
        4        4        /*T* Copyright (c) Bull HN Information Systems Inc., 1997    */
        5        5        /*T*                                                         */
        6        6        /*T***********************************************************/
        7        7
        8        8        /*X* MCR=NO, DMC=YES */
        9        9        /*T*/
       10       10
       11       11
       12       12        /*P* NAME: VDG$MAIN
       13       13            PURPOSE:
       14       14                Main procedure for 6Edit.
       15       15            DESCRIPTION:
       16       16                This module contains several external routines:
       17       17
       18       18                VDG$MAIN
       19       19                Main program for 6Edit processor.  Receives initial control
       20       20                from the command processor.  Initializes the world, prepares
       21       21                to process the optional context file and the invocation
       22       22                command line, validates the initial workspace,
       23       23                establishes BREAK control, then calls VDI$PDRIVER
       24       24                to begin processing commands.
       25       25
       26       26                VDG$MINIT
       27       27                Initialization routine.  Contains (almost) all global static
       28       28                data, initializes it, prepares dynamic data segments for
       29       29                VDG$OALLOC, initializes control blocks for library routines.
       30       30
       31       31                VDG$MTERMINATE
       32       32                Termination routine.  Called when user types END command,
       33       33                or when fatal error encountered.  Closes all files and all
       34       34                windows, restores the terminal to its original state,
       35       35                passes any user-specified $RESTORE command to IBEX,
       36       36                updates the statistics file, reports any final, fatal
       37       37                error message, and exits setting the STEPCC and IBEX-error-code
PL6.E3A0      #001=VDG$MAIN File=VDG$MAIN.:VDA5TSI                               FRI 07/04/97 11:18 Page:2
       38       38                appropriately.
       39       39        */
       40       40
       41       41        /*D* NAME: VDG$MAIN
       42       42            PARAMETERS:
       43       43                None.
       44       44            INPUT:
       45       45                B$JIT.FACCT - User's !DIR account.
       46       46                B$JIT.ACCT - User's logon account.
       47       47                If B$JIT.PRFLAGS.CONTINUED = %FALSE, then
       48       48                    B$JIT.CCBUF contains B$JIT.CCARS chars of command line
       49       49                    text.  B$JIT.CCDISP is the offset into B$JIT.CCBUF
       50       50                    of the left parenthesis in front of the "options"
       51       51                    (command-list).
       52       52                Else:
       53       53                    The file *CONTINUATION_COMMANDS contains the records of a
       54       54                    multiline invocation command line, including the
       55       55                    first line with its rununit fid.  B$JIT.CCARS contains
       56       56                    the total number of bytes in all the records in the file.
       57       57                    B$JIT.CCDISP is the offset into the entire set of
       58       58                    characters (as tho the records of the *CONTINUATION_COMMANDS
       59       59                    file were laid end-to-end) of the left parenthesis.
       60       60            DESCRIPTION:
       61       61                VDG$MAIN gets initial control from IBEX.
       62       62                Call VDG$MINIT, VDP$WINIT, and VDG$WINIT, in that order, to initialize
       63       63                    everything to the point where we can allocate dynamic storage and
       64       64                    converse with the user in serial mode.
       65       65                If the user used incorrect syntax to invoke 6Edit, write the error
       66       66                    message and abort.
       67       67                Take exit-control, BREAK-control, and some trap-controls.
       68       68                Push a first VD$CMD_STREAM for the command window.  This is always
       69       69                    the bottom VD$CMD_STREAM on the command-stream stack.
       70       70                Look for command input from 4 places; if we find any, push
       71       71                    VD$CMD_STREAMs onto the command stream stack in the following order:
       72       72                      1) M$SI assigned to non-interactive file => CS_DCB
       73       73                      2) Options on invocation command line    => CS_BUFFER
       74       74                      3) M$FILE (DCB #1 on invocation line)    => CS_TREE w/ED cmd
PL6.E3A0      #001=VDG$MAIN File=VDG$MAIN.:VDA5TSI                               FRI 07/04/97 11:18 Page:3
       75       75                      4) Context file                          => CS_DCB
       76       76                    Note that the VD$CMD_STREAMs will be processed in the opposite
       77       77                    order:
       78       78                      1) First the context file, to let the user override any
       79       79                            operational defaults (such as terminal parameters) and to
       80       80                            define any synonyms the user expects to be able to use in
       81       81                            the other inputs.
       82       82                      2) If DCB #1 on the invocation command line was set, an already-
       83       83                            encoded InTree specifying an EDIT DCB command for the #1
       84       84                            DCB.
       85       85                      3) The invocation command line options;
       86       86                      4) M$SI assigned to a READ-file of 6Edit commands. M$SI is used
       87       87                            last because, when it's set to something interactive
       88       88                            (another window), it's used last then (tho no
       89       89                            VD$CMD_STREAM is pushed for it in that case).
       90       90                Prepare to process the invocation command line options.
       91       91                    Either B$JIT.CCBUF has the entire invocation command line, or
       92       92                        a multi-line invocation command line is stored in a temporary
       93       93                        file built by IBEX.
       94       94                    If CCBUF has the command-line, copy it to dynamic storage.
       95       95                    If the command-line is in a file, read the file records
       96       96                        into dynamic storage, laying them end-to-end, so
       97       97                        they form one huge command line.
       98       98                    Push a VD$CMD_STREAM pointing to the new command line.
       99       99                    Position the CMD$STREAM so the first char parsed is just
      100      100                        beyond the left parenthesis preceding the "options"
      101      101                        (or where IBEX says the left paren is via B$JIT.CCDISP).
      102      102                        Also omit the optional trailing right parenthesis from
      103      103                        the buffer.
      104      104                See if the user assigned M$FILE (either on the invocation
      105      105                    command line as #1, or via a prior SET command).  If so, build
      106      106                    an encoded EDIT DCB command in a VD$CMD_STREAM's InTree and push
      107      107                    it onto the command stream stack.
      108      108                    Also, flag the fact that the user assigned M$FILE, so that
      109      109                    when we're reading the context file we'll know to ignore any
      110      110                    Windows in it.
      111      111                Search for a context file, using a file name and a list of accounts
PL6.E3A0      #001=VDG$MAIN File=VDG$MAIN.:VDA5TSI                               FRI 07/04/97 11:18 Page:4
      112      112                        to search.  The default name includes %SETUP_FN_PROFILE in it,
      113      113                        specifying that each account is to be searched for that name,
      114      114                        both omitting and including the terminal profile at that point
      115      115                        in the name.
      116      116                    But first, see if the IBEX command variable "SETUP_6EDIT" has a
      117      117                        value; if so, M$FID it's value.  If there is an account part,
      118      118                        it replaces the entire default account search list (we'll only
      119      119                        search the one given account).  In the name part, replace any
      120      120                        appearance of %SETUP_FN_USER with the user's JIT.UNAME.
      121      121                    Test-open the name, both with and without the terminal profile if
      122      122                        %SETUP_FN_PROFILE is included in the name, in all accounts
      123      123                        specified by the account list.
      124      124                    If we find a file, push a VD$CMD_STREAM for the file.  By leaving
      125      125                    it on the top of the stack, it becomes the first command stream.
      126      126                Open the context file (if any) and check its file type:  if it's a
      127      127                    workspace file, load it into the internal workspace now.
      128      128                Create the command window structure in the internal Windows file.
      129      129                    If we can screen edit and the user hasn't overridden
      130      130                    screen-editing, the command window will also be created in the FEP.
      131      131
      132      132                Call VDI$PDRIVER to begin processing commands.  If we pushed any
      133      133                    VD$CMD_STREAMs above, they will be the first commands that
      134      134                    VDI$PDRIVER will process.  When done with them, it will begin
      135      135                    reading commands from the terminal.
      136      136                When/if VDI$PDRIVER returns, call VDG$MTERMINATE to close all files
      137      137                    and return to IBEX.
      138      138        */
      139      139
      140      140        VDG$MAIN: PROC;
      141      141
      142      142
      143      143        %INCLUDE CP_6;
      144      224        %INCLUDE CP_6_SUBS;
      145      764        %INCLUDE B_ERRORS_C;
      146     1890        %INCLUDE XUE_MACRO_C;
      147     2634        %INCLUDE VD_MACROS_M;
      148     4849        %INCLUDE VD_PERR_C;
PL6.E3A0      #001=VDG$MAIN File=VDG$MAIN.:VDA5TSI                               FRI 07/04/97 11:18 Page:5
      149     4997        %INCLUDE VD_NODES0_E;
      150     5089        %INCLUDE B$JIT;
      151     5379        %INCLUDE B$TABLES_C;
      152     5487
      153     5488
      154     5489    1   DCL VDG$MINIT           ENTRY ALTRET;
      155     5490    1   DCL VDP$WINIT           ENTRY ALTRET;
      156     5491    1   DCL VDG$WINIT           ENTRY ALTRET;
      157     5492    1   DCL VDI$PREAD_FILE_OPEN ENTRY ALTRET;
      158     5493    1   DCL VDI$PREAD_FILE_READ ENTRY (2) ALTRET;
      159     5494    1   DCL VDI$PREAD_FILE_CLOSE ENTRY ALTRET;
      160     5495    1   DCL VDA$LWRITE          ENTRY (4) ALTRET;
      161     5496    1   DCL VDA$PFLUSH          ENTRY (2) ALTRET;
      162     5497    1   DCL VDE$PSTRING         ENTRY(5) ALTRET;
      163     5498    1   DCL VDG$ERRMSG          ENTRY(4) ALTRET;
      164     5499    1   DCL VDI$CSET_COUNT      ENTRY(2) ALTRET;
      165     5500    1   DCL VDW$LOAD            ENTRY (1) ALTRET;
      166     5501    1   DCL VDG$MTERMINATE      ENTRY;
      167     5502    1   DCL VDG$EXCON           ENTRY ASYNC;
      168     5503    1   DCL VDG$EBREAK          ENTRY ASYNC;
      169     5504    1   DCL VDG$ETRAP           ENTRY ASYNC;
      170     5505    1   DCL VDG$EREPORT_ERROR   ENTRY (1);
      171     5506    1   DCL VDG$ESCREECH        ENTRY (3);
      172     5507    1   DCL VDG$OALLOC          ENTRY (3) ALTRET;
      173     5508    1   DCL VDG$OALLOC_DCB      ENTRY (1) ALTRET;
      174     5509    1   DCL VDG$OFREE           ENTRY (1) ALTRET;
      175     5510
      176     5511
      177     5512    1   DCL M$SI DCB;
      178     5513    1   DCL M$FILE DCB;
      179     5514
      180     5515    1   DCL CONTEXT_DCB#     UBIN(18);
      181     5516
      182     5517    1   DCL B$JIT$ PTR SYMREF;
      183     5518    1   DCL B$TCB$ PTR SYMREF;
      184     5519        %VD_6E (NAME=VD_6E, STCLASS=SYMREF);
      185     5555    1   DCL VD_COMMAND_WINDOW$ PTR SYMREF;
PL6.E3A0      #001=VDG$MAIN File=VDG$MAIN.:VDA5TSI                               FRI 07/04/97 11:18 Page:6
      186     5556    1   DCL VD_SCREEN_HEIGHT SBIN SYMREF;
      187     5557        %VD_BUFFER (NAME=VD_$CONTEXT, STCLASS=SYMREF, MXNB=%MXNB_FID);
      188     5617        %VD$NUMBER (NAME=VD_$COMMAND, STCLASS=SYMREF);
      189     5662        %VD$NUMBER (NAME=VD_$SCREEN, STCLASS=SYMREF);
      190     5707    1   DCL VD_EDITING_HEIGHT SBIN SYMREF;
      191     5708    1   DCL VD_TOP_LINE SBIN SYMREF;
      192     5709    1   DCL VD_OLD_$SCREEN SBIN SYMREF;
      193     5710        %VD$LOCATION (NAME=VD_LOC_$SCREEN, STCLASS=SYMREF);
      194     5738        %VD$BUFFER (NAME=VD_$INITIALIZE, STCLASS=SYMREF);
      195     5796        %XUE_ECB (STCLASS=SYMREF);
      196     5998        %B$SR_NON_BLANK;
      197     6002        %B$XL_UPPER;
      198     6006        %VD_KEY (NAME=VD_KEY_NUMERIC_BOF, STCLASS=SYMREF);
      199     6042        %VD_TEXTC (NAME=VD_STATIC_TEMP, STCLASS=SYMREF, MXNB=%MXNB_NAME_VALUE);
      200     6183
      201     6184
      202     6185
      203     6186        %FPT_OPEN (FPTN=CONST_TEST_OPEN, STCLASS=CONSTANT, FUN=IN, TEST=YES);
      204     6295        %FPT_XCON (STCLASS=CONSTANT, UENTRY=VDG$EXCON);
      205     6309        %FPT_INT (FPTN=ENABLE_BRK,
      206     6310                 UENTRY=VDG$EBREAK,
      207     6311                 STCLASS="CONSTANT SYMDEF");
      208     6325
      209     6326        %FPT_INT (FPTN=DISABLE_BRK,
      210     6327                 UENTRY=NIL,
      211     6328                 STCLASS="CONSTANT SYMDEF");
      212     6342
      213     6343        %FPT_TRAP (STCLASS=CONSTANT, ARITHMETIC=VDG$ETRAP, ERRORS=VDG$ETRAP,
      214     6344            DIVIDE_CHECK=TRAP, OVERFLOW=TRAP,
      215     6345            COMMAND=TRAP, IPR=TRAP, LOCKUP=TRAP, MEMORY=TRAP,
      216     6346            MISSING_PAGE=TRAP, MISSING_SEG=TRAP, SECURITY_1=TRAP,
      217     6347            SECURITY_2=TRAP);
      218     6370
      219     6371
      220     6372        /* Location in the Windows file for the command window */
      221     6373        %VD_LOCATION (NAME=COMMAND_WINDOW_LOC, STCLASS=CONSTANT, INITS=1,
      222     6374            ITYPE1=%KT_NUMBER, IREP1=%REP_LOCAL, IBYTES1=%WK_COMMAND_WINDOW);
PL6.E3A0      #001=VDG$MAIN File=VDG$MAIN.:VDA5TSI                               FRI 07/04/97 11:18 Page:7
      223     6449
      224     6450
      225     6451    1   DCL VD_ERR$ PTR;
      226     6452    1   DCL ERR_SUBST$ PTR;
      227     6453        %FPT_OPEN (FPTN=TEST_OPEN, STCLASS=AUTO);
      228     6562    1   DCL CMD_WINDOW_STREAM$ PTR;
      229     6563    1   DCL SI_STREAM$ PTR;
      230     6564    1   DCL INVOCATION_STREAM$ PTR;
      231     6565    1   DCL MFILE_STREAM$ PTR;
      232     6566    1   DCL CONTEXT_STREAM$ PTR;
      233     6567    1   DCL 1 LOAD_FLAGS ALIGNED,
      234     6568              %VD$PDFF (NAME=F, STCLASS=AUTO, LEV=2, LAST=YES);
      235     6582        %VD_TEXTC (NAME=FUNNY_TEXT, STCLASS=AUTO, MXNB=%MXNB_ERR_SUBST);
      236     6723    1   DCL SUCCESSFULLY_OPENED BIT(1) ALIGNED;
      237     6724    1   DCL WINDOW_SPEC$ PTR;
      238     6725        %VD$SPEC (NAME=WSPEC, STCLASS=AUTO);
      239     6739    1   DCL ACTUAL_ERR$ PTR;
      240     6740
      241     6741
      242     6742        %F$DCB;
      243     6799        %B$TCB (NAME=B$TCB, STCLASS="BASED(B$TCB$)");
      244     6802        %B$ALT;
      245     6810        %VD$ERR (NAME=VD$ERR, STCLASS="BASED(VD_ERR$)");
      246     6863        %VD$POINTER (NAME=ERR$SUBST, DIM="(0:2)", STCLASS="BASED(ERR_SUBST$)");
      247     6908        %VD$ERR (NAME=FATAL$ERR, STCLASS="BASED(VD_6E.ERR_HEAD$)");
      248     6961        %VD$CMD_STREAM (NAME=SI$STREAM, STCLASS="BASED(SI_STREAM$)");
      249     7000        %VD$CMD_STREAM (NAME=CONTEXT$STREAM, STCLASS="BASED(CONTEXT_STREAM$)");
      250     7039        %VD$CMD_STREAM (NAME=TOP$CMD_STREAM, STCLASS="BASED(VD_6E.CMD_STREAM$)");
      251     7078        %VD$STREAM (NAME=WINDOWS$STREAM, STCLASS="BASED(VD_6E.WINDOWS$)");
      252     7184        %VD$WINDOW_SPEC (NAME=WINDOW$SPEC, STCLASS="BASED(WINDOW_SPEC$)");
      253     7250        %VD$PORT;
      254     7348        %VD$BUFFER_HEADER;
      255     7384        %VD$BUFFER;
      256     7442        %VD$STRING_HEADER;
      257     7478        %VD$TEXTC_REMOTE;
      258     7539    1   DCL 1 VD$ERR_HEAD BASED(VD_6E.ERR_HEAD$) ALIGNED,
      259     7540              %VD$ERR (NAME=VD_ERR, LEV=2, LAST=NO);
PL6.E3A0      #001=VDG$MAIN File=VDG$MAIN.:VDA5TSI                               FRI 07/04/97 11:18 Page:8
      260     7593              %VD$NUMBER (NAME=ERR_SUBST, DIM="(0:2)", LEV=2, LAST=YES);
      261     7638    1   DCL 1 ACTUAL$ERR BASED(ACTUAL_ERR$) ALIGNED,
      262     7639              %VD$ERR (NAME=VD_ERR, LEV=2, LAST=NO);
      263     7692              %VD$NUMBER (NAME=ERR_SUBST, DIM="(0:2)", LEV=2, LAST=YES);
      264     7737
      265     7738
      266     7739
      267     7740    1           VD_6E.WINDOWS$ = ADDR(NIL); /* No command-window yet */
      268     7741    1           VD_COMMAND_WINDOW$ = ADDR(NIL);
      269     7742
      270     7743    1           SI_STREAM$ = ADDR(NIL);
      271     7744    1           INVOCATION_STREAM$ = ADDR(NIL);
      272     7745    1           MFILE_STREAM$ = ADDR(NIL);
      273     7746    1           CONTEXT_STREAM$ = ADDR(NIL);
      274     7747
      275     7748    1           CALL VDG$MINIT
      276     7749    2           WHENALTRETURN DO;
      277     7750    2   FATAL_ERR: VD_6E.ERR_TAIL$ -> VD$ERR.FLAGLEV# = %FLV_FATAL;
      278     7751    2              CALL VDG$EREPORT_ERROR; /* We'll never come back from this */
      279     7752    2              END;
      280     7753
      281     7754                /*
      282     7755                *   VDP$WINIT must be called before VDG$WINIT, to get terminal params
      283     7756                *       from the FEP.
      284     7757                */
      285     7758    1           CALL VDP$WINIT ALTRET(FATAL_ERR);
      286     7759
      287     7760                /*
      288     7761                *   Initialize the internal workspace, creating all mandatory
      289     7762                *       entries (e.g., Structures-file entries).
      290     7763                */
      291     7764    1           CALL VDG$WINIT ALTRET(FATAL_ERR);
      292     7765
      293     7766
      294     7767                /**************************************************************
      295     7768                *
      296     7769                *   Now we're fully initialized; we can converse with the user.
PL6.E3A0      #001=VDG$MAIN File=VDG$MAIN.:VDA5TSI                               FRI 07/04/97 11:18 Page:9
      297     7770                *
      298     7771                */
      299     7772
      300     7773                /* Report error if bad invocation syntax */
      301     7774    2           IF B$JIT.PRFLAGS.NSSYNTAX THEN DO;
      302     7775    2              FUNNY_TEXT.LENGTH# = MINIMUM (B$JIT.CCDISP,
      303     7776    2                LENGTHC(FUNNY_TEXT.BYTES));
      304     7777    2              FUNNY_TEXT.BYTES = B$JIT.CCBUF;
      305     7778    2              CALL VDG$ERRMSG (%E$INVOK_NOT_RECOGNIZED, FUNNY_TEXT)
      306     7779    2                ALTRET (FATAL_ERR);
      307     7780    2              END;
      308     7781
      309     7782    1           CALL M$XCON (FPT_XCON);
      310     7783    1           CALL M$INT (ENABLE_BRK);
      311     7784    1           CALL M$TRAP (FPT_TRAP);
      312     7785
      313     7786                /* Push a VD$CMD_STREAM for the command window */
      314     7787    1           CALL VDG$OALLOC (%CLS_CMD_STREAM, CMD_WINDOW_STREAM$)
      315     7788    1             ALTRET (FATAL_ERR);
      316     7789    1           TOP$CMD_STREAM.TYPE# = %CS_ME;
      317     7790
      318     7791                /*
      319     7792                *  If M$SI is assigned to something non-interactive,
      320     7793                *      push it on the command-stream stack.
      321     7794                */
      322     7795
      323     7796    1           TEST_OPEN = CONST_TEST_OPEN;
      324     7797    1           TEST_OPEN.V_ = VECTOR(TEST_OPEN.V);
      325     7798    1           TEST_OPEN.V.DCB# = DCBNUM(M$SI);
      326     7799    1           CALL M$OPEN (TEST_OPEN)
      327     7800    2           WHENALTRETURN DO; ; END; /* Ignore errors */
      328     7801    2           IF NOT DCBADDR(TEST_OPEN.V.DCB#)->F$DCB.DDEV.IC# THEN DO;
      329     7802    2              CALL VDG$OALLOC (%CLS_CMD_STREAM, SI_STREAM$)
      330     7803    2                ALTRET (FATAL_ERR);
      331     7804    2              SI$STREAM.TYPE# = %CS_DCB;
      332     7805    2              SI$STREAM.DCB# = TEST_OPEN.V.DCB#;
      333     7806    2              SI$STREAM.ECHO = %TRUE; /* Echo if echoing */
PL6.E3A0      #001=VDG$MAIN File=VDG$MAIN.:VDA5TSI                               FRI 07/04/97 11:18 Page:10
      334     7807    2              END;
      335     7808
      336     7809                /*
      337     7810                *  Push invocation command line, and possible continuation
      338     7811                *      file, on command-stream stack.
      339     7812                */
      340     7813
      341     7814    1           CALL PUSH_INVOK_CMD (INVOCATION_STREAM$) ALTRET (FATAL_ERR);
      342     7815
      343     7816                /*
      344     7817                *  If the user set #1 (M$FILE), push an EDIT command for it.
      345     7818                */
      346     7819
      347     7820    2           IF DCBADDR(DCBNUM(M$FILE))->F$DCB.AMR# AND NOT B$JIT.PRFLAGS.SI THEN DO;
      348     7821                   /* User set M$FILE DCB */
      349     7822    2              CALL PUSH_EDIT_CMD (DCBNUM(M$FILE), MFILE_STREAM$)
      350     7823    2                ALTRET (FATAL_ERR);
      351     7824    2              END;
      352     7825
      353     7826                /*
      354     7827                *   Search for a context file, and push it onto the command
      355     7828                *       stream stack.
      356     7829                */
      357     7830
      358     7831    1           CALL PUSH_CONTEXT_FILE (CONTEXT_STREAM$, TEST_OPEN)
      359     7832    1             ALTRET (FATAL_ERR);
      360     7833    2           IF CONTEXT_STREAM$ ~= ADDR(NIL) THEN DO;
      361     7834    2              CALL VDI$PREAD_FILE_OPEN
      362     7835    3              WHENALTRETURN DO;
      363     7836    3                 IF FATAL$ERR.ERR ~= %CLEAR THEN
      364     7837    3                    GOTO FATAL_ERR;
      365     7838    3                 CALL VDG$OFREE (CONTEXT$STREAM) ALTRET (FATAL_ERR);
      366     7839    3                 CONTEXT_STREAM$ = ADDR(NIL);
      367     7840    3                 END;
      368     7841    2              END;
      369     7842                /* Build a message identifying the context file we found, if any */
      370     7843    1           CALL VDG$OALLOC (%CLS_ERR, VD_ERR$) ALTRET (FATAL_ERR);
PL6.E3A0      #001=VDG$MAIN File=VDG$MAIN.:VDA5TSI                               FRI 07/04/97 11:18 Page:11
      371     7844    2           IF CONTEXT_STREAM$ ~= ADDR(NIL) THEN DO;
      372     7845    2              VD$ERR.ERR.CODE# = %E$INFO_READING;
      373     7846    2              VD$ERR.FLAGLEV# = %FLV_INFO;
      374     7847    2              VD$ERR.DCB# = CONTEXT$STREAM.DCB#;
      375     7848                   /*       !!!!!!!!!  CAUTION  !!!!!!!!!!!
      376     7849                   *  We're stash the DCB # of the context file in the VD$ERR, but we
      377     7850                   *    don't actually report this E$INFO_READING message until after
      378     7851                   *    we (possibly) close the stream--and thereby free the DCB.
      379     7852                   *  This isn't real safe, but we take the chance, assuming that
      380     7853                   *    we won't be allocating any DCBs between the time we close
      381     7854                   *    the context stream and the time we report the E$INFO_READING
      382     7855                   *    message.  (This is only a problem if the context file is
      383     7856                   *    and encoded workspace file; only then do we close it before
      384     7857                   *    reporting E$INFO_READING.)
      385     7858                   */
      386     7859    2              END;
      387     7860    2           ELSE DO;
      388     7861    2              VD$ERR.ERR = B$TCB.ALT$->B$ALT.ERR;
      389     7862    2              VD$ERR.FLAGLEV# = %FLV_WARN;
      390     7863    2              VD$ERR.DCB# = CONTEXT_DCB#;
      391     7864    2              END;
      392     7865
      393     7866                /*
      394     7867                * Start out in $SCREEN=2 mode, so that $INITIALIZE can affect
      395     7868                * the building of the command window.
      396     7869                */
      397     7870    1           VD_OLD_$SCREEN = VD_$SCREEN.V#;
      398     7871    2           IF VD_OLD_$SCREEN>0 THEN DO;
      399     7872    2              CALL VDI$CSET_COUNT (VD_LOC_$SCREEN, 2);
      400     7873    2              VD_$COMMAND.V# = 0; /* Go to editing window automatically */
      401     7874    2              END;
      402     7875
      403     7876                /*
      404     7877                *   If we found an encoded workspace file in our search for a context
      405     7878                *       file, initialize the internal workspace from it.
      406     7879                */
      407     7880
PL6.E3A0      #001=VDG$MAIN File=VDG$MAIN.:VDA5TSI                               FRI 07/04/97 11:18 Page:12
      408     7881    1           IF CONTEXT_STREAM$ ~= ADDR(NIL) THEN
      409     7882    2              IF CONTEXT$STREAM.FILE_TYPE = %CHR_ENCODED_TYPE THEN DO;
      410     7883    2                 LOAD_FLAGS = %CLEAR;
      411     7884    2                 LOAD_FLAGS.F (%PDFF_EQUALS) = %TRUE;
      412     7885                      /* We can load keyins only if we're timesharing */
      413     7886    2                 IF B$JIT.MODE = %M_INT# THEN
      414     7887    2                    LOAD_FLAGS.F (%PDFF_KEYINS) = %TRUE;
      415     7888    2                 LOAD_FLAGS.F (%PDFF_LOCATIONS) = %TRUE;
      416     7889    2                 LOAD_FLAGS.F (%PDFF_SYNONYMS) = %TRUE;
      417     7890        /*N*          LOAD_FLAGS.F (%PDFF_STRUCTURES) = %TRUE; VD_6E points at 'em */
      418     7891    2                 LOAD_FLAGS.F (%PDFF_WINDOWS) = %TRUE;
      419     7892
      420     7893    2                 CALL VDW$LOAD (LOAD_FLAGS)
      421     7894    3                 WHENRETURN DO;
      422     7895        /* If the workspace file failed, keep it on the stack, and let VDI$PDRIVER
      423     7896           clean up.  That way, any additional commands (like an implicit editing
      424     7897           command) will get ignored. */
      425     7898    3                    CALL VDI$PREAD_FILE_CLOSE;
      426     7899    3                    CALL VDG$OFREE (CONTEXT$STREAM);
      427     7900    3                    CONTEXT_STREAM$ = ADDR(NIL);
      428     7901    3                    END;
      429     7902    2                 IF VD_$INITIALIZE.LENGTH#>0 THEN
      430     7903    2                    CALL PUSH_INITIALIZE_CMDS;
      431     7904    2                 END;
      432     7905
      433     7906    1           IF VD_COMMAND_WINDOW$ = ADDR(NIL) THEN
      434     7907    2   CREATE_COMMAND_WINDOW: DO;
      435     7908                   /*
      436     7909                   *  We don't have a command window record in the Windows file yet:
      437     7910                   *    create one.  (We could have gotten a command window from a
      438     7911                   *    workspace-type context file.)
      439     7912                   *  If we're coming up screen-editing, the command window in the FEP
      440     7913                   *    will also be created.
      441     7914                   */
      442     7915
      443     7916    2              CALL VDG$OALLOC (%CLS_WINDOW_SPEC, WINDOW_SPEC$)
      444     7917    3              WHENALTRETURN DO;
PL6.E3A0      #001=VDG$MAIN File=VDG$MAIN.:VDA5TSI                               FRI 07/04/97 11:18 Page:13
      445     7918    3                 CALL VDG$EREPORT_ERROR;      /* We won't return from this */
      446     7919    3                 END;
      447     7920    2              WINDOW$SPEC.COMMAND = %TRUE;
      448     7921    2              WINDOW$SPEC.COORDS.LINE# = VD_TOP_LINE;
      449     7922    2              WINDOW$SPEC.COORDS.HEIGHT# = VD_EDITING_HEIGHT;
      450     7923    2              WSPEC = %CLEAR;
      451     7924    2              WSPEC.TYPE# = %SPT_WINDOW_SPEC;
      452     7925    2              WSPEC.REP# = %REP_REMOTE;
      453     7926    2              WSPEC.V$ = WINDOW_SPEC$;
      454     7927    2              CALL VDA$LWRITE (WINDOWS$STREAM, COMMAND_WINDOW_LOC, WSPEC)
      455     7928    2                ALTRET (FATAL_ERR);
      456     7929    2              CALL VDA$PFLUSH (WINDOWS$STREAM.PORT$->VD$PORT, %TO_PRESENTER)
      457     7930    2                ALTRET (FATAL_ERR);
      458     7931
      459     7932    2              VD_COMMAND_WINDOW$ = WINDOWS$STREAM.PORT$->
      460     7933    2                VD$PORT.LEVEL.INTERNAL$ (%LVL_LOWER);
      461     7934    2              END CREATE_COMMAND_WINDOW;
      462     7935
      463     7936
      464     7937                /*
      465     7938                *  Now, write any error messages we've accumulated to the command
      466     7939                *    window.
      467     7940                */
      468     7941    2           IF VD_6E.ERR_TAIL$ ~= VD_6E.ERR_HEAD$ THEN DO;
      469     7942    2              CALL VDG$EREPORT_ERROR;  /* We WILL come back from this!! */
      470     7943    2              END;
      471     7944
      472     7945
      473     7946                /*
      474     7947                *  If the top command-stream (other than the context file) is a
      475     7948                *    file or a DCB, then open it now.
      476     7949                *  (If the open fails, pop the command-stream and try opening
      477     7950                *    the next; loop til we find one that opens!)
      478     7951                */
      479     7952    2           IF CONTEXT_STREAM$ = ADDR(NIL) THEN DO;
      480     7953    3              DO UNTIL SUCCESSFULLY_OPENED;
      481     7954    3                 SUCCESSFULLY_OPENED = %TRUE;
PL6.E3A0      #001=VDG$MAIN File=VDG$MAIN.:VDA5TSI                               FRI 07/04/97 11:18 Page:14
      482     7955    3                 IF TOP$CMD_STREAM.TYPE# = %CS_FILE
      483     7956    4                   OR TOP$CMD_STREAM.TYPE# = %CS_DCB THEN DO;
      484     7957    4                    CALL VDI$PREAD_FILE_OPEN
      485     7958    5                    WHENALTRETURN DO;
      486     7959    5                       CALL VDG$OFREE (TOP$CMD_STREAM);
      487     7960    5                       CALL VDG$EREPORT_ERROR;
      488     7961    5                       SUCCESSFULLY_OPENED = %FALSE;
      489     7962    5                       END;
      490     7963    4                    END;
      491     7964    3                 END;
      492     7965    2              END;
      493     7966
      494     7967
      495     7968        %BOX (TITLE=PUSH_INVOK_CMD, PAGE=YES);
              7976    2
              7980    2   /***************************************************************************
              7982    2    *                                                                         *
              7986    2            *                               PUSH_INVOK_CMD                            *
              7988    2            *                                                                         *
              7990    2           ***************************************************************************/

      496     7994
      497     7995        /*I* NAME: PUSH_INVOK_CMD
      498     7996            PARAMETERS:
      499     7997                CMD_STREAM$ - An uninitialized PTR.
      500     7998            INPUT:
      501     7999            OUTPUT:
      502     8000                CMD_STREAM$ will contain either ADDR(NIL); or a pointer to
      503     8001                    CMD$STREAM, whose .RECORD$ points to the invocation command.
      504     8002                If a VD$CMD_STREAM is pushed on the command stream stack,
      505     8003                    then VD_6E.CMD_STREAM$ will be modified.
      506     8004            DESCRIPTION:
      507     8005                If B$JIT.CCBUF holds the invocation command line, copy it to a
      508     8006                    VD$BUFFER.
      509     8007                If the invocation command line resides in an IBEX
      510     8008                    continuation file, just point CMD$STREAM at the file and let
      511     8009                    XUG process the continuation again.
PL6.E3A0      #001=VDG$MAIN File=VDG$MAIN.:VDA5TSI                               FRI 07/04/97 11:18 Page:15
      512     8010                Push a VD$CMD_STREAM pointing to this buffer.  Set the
      513     8011                    CMD$STREAM.POSITION# to point to the first character.
      514     8012        */
      515     8013
      516     8014    1   PUSH_INVOK_CMD: PROC (CMD_STREAM$) ALTRET;
      517     8015
      518     8016    2   DCL CMD_STREAM$ PTR;
      519     8017
      520     8018
      521     8019    2   DCL INVOK_BUFFER$ PTR;
      522     8020    2   DCL EOF_FLAG BIT(1) ALIGNED;
      523     8021
      524     8022
      525     8023        %VD$CMD_STREAM (NAME=CMD$STREAM, STCLASS="BASED(CMD_STREAM$)");
      526     8062        %VD$BUFFER (NAME=INVOK$BUFFER, STCLASS="BASED(INVOK_BUFFER$)");
      527     8120
      528     8121
      529     8122
      530     8123    2           CALL VDG$OALLOC (%CLS_CMD_STREAM, CMD_STREAM$)
      531     8124    2             ALTRET (OALLOC_FAILED);
      532     8125
      533     8126    3           IF NOT B$JIT.PRFLAGS.CONTINUED THEN DO;
      534     8127    3              CALL VDG$OALLOC (%CLS_BUFFER, INVOK_BUFFER$,
      535     8128    3                (LENGTHC(VD$BUFFER_HEADER) + B$JIT.CCARS + %NB_PER_WORD - 1) /
      536     8129    3                %NB_PER_WORD)
      537     8130    3                ALTRET (OALLOC_FAILED);
      538     8131    3              INVOK$BUFFER.LENGTH# = B$JIT.CCARS;
      539     8132    3              CMD$STREAM.RECORD$ = INVOK_BUFFER$;
      540     8133    3              CMD$STREAM.TYPE# = %CS_BUFFER;
      541     8134    3              INVOK$BUFFER.BYTES = B$JIT.CCBUF;
      542     8135    3              END;
      543     8136    3           ELSE DO;
      544     8137    3              CMD$STREAM.TYPE# = %CS_FILE;
      545     8138    3              CMD$STREAM.FILE.LENGTH# = %LENGTHC(%CHR_CONT_CMD_NAME);
      546     8139    3              CMD$STREAM.FILE.BYTES = %CHR_CONT_CMD_NAME;
      547     8140    3              END;
      548     8141
PL6.E3A0      #001=VDG$MAIN File=VDG$MAIN.:VDA5TSI                               FRI 07/04/97 11:18 Page:16
      549     8142    2           RETURN;
      550     8143
      551     8144
      552     8145    2   OALLOC_FAILED: ;
      553     8146    2           CMD_STREAM$ = ADDR(NIL);
      554     8147    2           ALTRETURN;
      555     8148
      556     8149    2   END PUSH_INVOK_CMD;
      557     8150
      558     8151        %BOX (TITLE=PUSH_EDIT_CMD, PAGE=YES);
              8159    2
              8163    2   /***************************************************************************
              8165    2    *                                                                         *
              8169    2            *                               PUSH_EDIT_CMD                             *
              8171    2            *                                                                         *
              8173    2           ***************************************************************************/

      559     8177
      560     8178        /*I* NAME: PUSH_EDIT_CMD
      561     8179            PARAMETERS:
      562     8180                DCB_TO_EDIT - A WORD containing the DCB # to edit.
      563     8181                CMD_STREAM$ - An uninitialized PTR.
      564     8182            INPUT:
      565     8183            OUTPUT:
      566     8184                CMD_STREAM$ will a pointer to CMD$STREAM, whose .RECORD$ points to an
      567     8185                    InTree for an EDIT command to edit the specified DCB.
      568     8186                If a VD$CMD_STREAM is pushed on the command stream stack,
      569     8187                    then VD_6E.CMD_STREAM$ will be modified.
      570     8188            DESCRIPTION:
      571     8189                Push a VD$CMD_STREAM, and build an InTree for an EDIT command.
      572     8190                The InTree we build is:
      573     8191
      574     8192                    IT_COMMAND w/.CODE = %T_EDIT_CMD
      575     8193                     and .PARAM$(0)->----
      576     8194                                         |
      577     8195                                    IT_BLOCK_EXPR w/.DOMAINN specifying the DCB
      578     8196                                         |
PL6.E3A0      #001=VDG$MAIN File=VDG$MAIN.:VDA5TSI                               FRI 07/04/97 11:18 Page:17
      579     8197                                    IT_SELECT w/.RPT_COUNT of 1
      580     8198                                         |
      581     8199                                    IT_ADJUST
      582     8200                                         |
      583     8201                                    IT_OPERAND w/.CODE = %OPAND_FILE
      584     8202                                     and .OPTIONS.POINT = %PNT_AO
      585     8203
      586     8204                We don't really need the file key in the IT_OPERAND we build, because
      587     8205                the file info is in IT_BLOCK_EXPR.DOMAINN.
      588     8206        */
      589     8207
      590     8208    1   PUSH_EDIT_CMD: PROC (DCB_TO_EDIT, CMD_STREAM$) ALTRET;
      591     8209
      592     8210    2   DCL DCB_TO_EDIT SBIN;
      593     8211    2   DCL CMD_STREAM$ PTR;
      594     8212
      595     8213
      596     8214
      597     8215    2   DCL IT_COMMAND$ PTR;
      598     8216    2   DCL IT_BLOCK_EXPR$ PTR;
      599     8217    2   DCL IT_SELECT$ PTR;
      600     8218    2   DCL IT_ADJUST$ PTR;
      601     8219    2   DCL IT_OPERAND$ PTR;
      602     8220    2   DCL EDIT_FILE_KEY$ PTR;
      603     8221
      604     8222
      605     8223        %VD$CMD_STREAM (NAME=CMD$STREAM, STCLASS="BASED(CMD_STREAM$)");
      606     8262        %VD$IT_COMMAND (NAME=IT$COMMAND, STCLASS="BASED(IT_COMMAND$)");
      607     8300        %VD$IT_BLOCK_EXPR (NAME=IT$BLOCK_EXPR, STCLASS="BASED(IT_BLOCK_EXPR$)");
      608     8450        %VD$IT_SELECT (NAME=IT$SELECT, STCLASS="BASED(IT_SELECT$)");
      609     8487        %VD$IT_ADJUST (NAME=IT$ADJUST, STCLASS="BASED(IT_ADJUST$)");
      610     8524        %VD$IT_OPERAND (NAME=IT$OPERAND, STCLASS="BASED(IT_OPERAND$)");
      611     8590        %VD$FILE_KEY (NAME=EDIT$FILE_KEY, STCLASS="BASED(EDIT_FILE_KEY$)");
      612     8639
      613     8640
      614     8641
      615     8642    2           CALL VDG$OALLOC (%CLS_CMD_STREAM, CMD_STREAM$)
PL6.E3A0      #001=VDG$MAIN File=VDG$MAIN.:VDA5TSI                               FRI 07/04/97 11:18 Page:18
      616     8643    2             ALTRET (OALLOC_FAILED);
      617     8644
      618     8645    2           CMD$STREAM.TYPE# = %CS_BUFFER;
      619     8646    2           CALL VDG$OALLOC (%CLS_IT_COMMAND, IT_COMMAND$)
      620     8647    2             ALTRET (OALLOC_FAILED);
      621     8648    2           CMD$STREAM.INTREE$ = IT_COMMAND$;
      622     8649    2           IT$COMMAND.CODE# = %T_EDIT_CMD;
      623     8650
      624     8651    2           CALL VDG$OALLOC (%CLS_IT_BLOCK_EXPR, IT_BLOCK_EXPR$)
      625     8652    2             ALTRET (OALLOC_FAILED);
      626     8653    2           IT$COMMAND.PARAM$ (0) = IT_BLOCK_EXPR$;
      627     8654                /*N*
      628     8655                *N*  Need some way to determine--now or later?--if file's keys are
      629     8656                *N*     numeric or string, 'cause BOF is represented differently in
      630     8657                *N*     the two cases.
      631     8658                *N*  For now, assume numeric keys.
      632     8659                *N*/
      633     8660    2           IT$BLOCK_EXPR.DOMAINN.RANGE.START.KEY (%LVL_LOWER-1) =
      634     8661    2             VD_KEY_NUMERIC_BOF;
      635     8662    2           IT$BLOCK_EXPR.DOMAINN.RANGE.ENDD.EOF = %TRUE;
      636     8663    2           IT$BLOCK_EXPR.OPTIONS.STRUCTURE$ = VD_6E.STRUCTURE_EXTERNAL$;
      637     8664    2           IT$BLOCK_EXPR.OPTIONS.LEVEL# = %LVL_EXT_REC;
      638     8665    2           IT$BLOCK_EXPR.OPTIONS.COMPONENT# = %CO_DATA;
      639     8666    2           IT$BLOCK_EXPR.OPTIONS.PROTECT# = %DONT_PROTECT;
      640     8667    2           IT$BLOCK_EXPR.OPTIONS.EXIST# = %EX_OLD;
      641     8668    2           IT$BLOCK_EXPR.DOMAINN.FILE_KEY.TYPE# = %KT_STRING;
      642     8669    2           IT$BLOCK_EXPR.DOMAINN.FILE_KEY.REP# = %REP_REMOTE;
      643     8670
      644     8671    2           CALL VDG$OALLOC (%CLS_FILE_KEY, EDIT_FILE_KEY$)
      645     8672    2             ALTRET (OALLOC_FAILED);
      646     8673    2           IT$BLOCK_EXPR.DOMAINN.FILE_KEY.V$ = EDIT_FILE_KEY$;
      647     8674    2           EDIT$FILE_KEY.DCB# = DCB_TO_EDIT;
      648     8675
      649     8676    2           CALL VDG$OALLOC (%CLS_IT_SELECT, IT_SELECT$)
      650     8677    2             ALTRET (OALLOC_FAILED);
      651     8678    2           IT$BLOCK_EXPR.SELECTS$ = IT_SELECT$;
      652     8679    2           IT$BLOCK_EXPR.SELECTS_TAIL$ = IT_SELECT$;
PL6.E3A0      #001=VDG$MAIN File=VDG$MAIN.:VDA5TSI                               FRI 07/04/97 11:18 Page:19
      653     8680    2           IT$SELECT.RPT_COUNT# = 1;
      654     8681
      655     8682    2           CALL VDG$OALLOC (%CLS_IT_ADJUST, IT_ADJUST$)
      656     8683    2             ALTRET (OALLOC_FAILED);
      657     8684    2           IT$SELECT.ADJUSTS$ = IT_ADJUST$;
      658     8685    2           IT$SELECT.ADJUSTS_TAIL$ = IT_ADJUST$;
      659     8686
      660     8687    2           CALL VDG$OALLOC (%CLS_IT_OPERAND, IT_OPERAND$)
      661     8688    2             ALTRET (OALLOC_FAILED);
      662     8689    2           IT$ADJUST.MOVEMENTS$ = IT_OPERAND$;
      663     8690    2           IT$ADJUST.MOVEMENTS_TAIL$ = IT_OPERAND$;
      664     8691    2           IT$OPERAND.CODE# = %OPAND_FILE;
      665     8692    2           IT$OPERAND.OPTIONS.POINT# = %PNT_AO;
      666     8693
      667     8694    2           RETURN;
      668     8695
      669     8696
      670     8697    2   OALLOC_FAILED:
      671     8698    2           CMD_STREAM$ = ADDR(NIL);
      672     8699    2           ALTRETURN;
      673     8700
      674     8701    2   END PUSH_EDIT_CMD;
      675     8702
      676     8703        %BOX (TITLE=PUSH_CONTEXT_FILE, PAGE=YES);
              8711    2
              8715    2   /***************************************************************************
              8717    2    *                                                                         *
              8721    2            *                             PUSH_CONTEXT_FILE                           *
              8723    2            *                                                                         *
              8725    2           ***************************************************************************/

      677     8729
      678     8730        /*I* NAME: PUSH_CONTEXT_FILE
      679     8731            PARAMETERS:
      680     8732                CMD_STREAM$ - An uninitialized PTR.
      681     8733                TEST_OPEN - FPT_OPEN with TEST=YES and FUN=IN.
      682     8734            INPUT:
PL6.E3A0      #001=VDG$MAIN File=VDG$MAIN.:VDA5TSI                               FRI 07/04/97 11:18 Page:20
      683     8735            OUTPUT:
      684     8736                CMD_STREAM$ will contain either ADDR(NIL), or a pointer to
      685     8737                    a CMD$STREAM allocated for the context file.
      686     8738                CMD$STREAM.DCB# will contain the number of a DCB which is assigned to
      687     8739                    (but NOT open to) the found context file.
      688     8740                If a VD$CMD_STREAM is pushed on the command stream stack,
      689     8741                    then VD_6E.CMD_STREAM$ will be modified.
      690     8742            SCRATCH:
      691     8743                TEST_OPEN will be mucked with.
      692     8744            DESCRIPTION:
      693     8745                Search for a context file; if we find one, push a VD$CMD_STREAM for
      694     8746                it onto the command stream stack.
      695     8747        */
      696     8748
      697     8749    1   PUSH_CONTEXT_FILE: PROC (CMD_STREAM$, TEST_OPEN) ALTRET;
      698     8750
      699     8751    2   DCL CMD_STREAM$ PTR;
      700     8752        %FPT_OPEN (FPTN=TEST_OPEN, STCLASS=PARAM);
      701     8861
      702     8862
      703     8863
      704     8864        %FPT_GLINEATTR (STCLASS=CONSTANT, DCB=M$UC, LINEATTR=LINEATTR);
      705     8889        %VLP_LINEATTR (FPTN=LINEATTR, STCLASS=STATIC);
      706     8911        %FPT_CMDVAR (FPTN=CONST_FPT_CMDVAR, STCLASS=CONSTANT,
      707     8912           FUN=FETCH, NAME=CMDVAR_NAME);
      708     8929        %VD_TEXTC (NAME=CMDVAR_NAME, STCLASS=CONSTANT, IBYTES=%CHR_CMDVAR_NAME);
      709     9070        %FPT_FID (FPTN=CONST_FPT_FID, STCLASS=CONSTANT);
      710     9093        %FPT_UNFID (FPTN=CONST_FPT_UNFID, STCLASS=CONSTANT);
      711     9111
      712     9112
      713     9113        %FPT_CMDVAR (STCLASS=AUTO);
      714     9130        %FPT_FID (STCLASS=AUTO);
      715     9153        %FPT_UNFID (STCLASS=AUTO);
      716     9171        %VD_TEXTC (NAME=CONTEXT_NAME, STCLASS=AUTO, MXNB=%MXNB_FILE_NAME);
      717     9312        %VD_TEXTC (NAME=PROFILED_NAME, STCLASS=AUTO, MXNB=%MXNB_FILE_NAME);
      718     9453    2   DCL CONTEXT_ACCT (0:%MX_CONTEXT_ACCT_LIST) CHAR(%MXNB_FILE_ACCT);
      719     9454        %VLP_PASS (FPTN=CONTEXT_PASS, STCLASS=AUTO);
PL6.E3A0      #001=VDG$MAIN File=VDG$MAIN.:VDA5TSI                               FRI 07/04/97 11:18 Page:21
      720     9467        %VLP_SN (FPTN=CONTEXT_SN, STCLASS=AUTO);
      721     9480        %VLP_WSN (FPTN=CONTEXT_WSN, STCLASS=AUTO);
      722     9493    2   DCL UNAME_INDEX SBIN;
      723     9494    2   DCL PROFILE_INDEX SBIN;
      724     9495        %VD_TEXTC (NAME=TEMP_NAME, STCLASS=AUTO, MXNB=MXNB_FILE_NAME);
      725     9636    2   DCL TEMP_ACCT CHAR(%MXNB_FILE_ACCT) ALIGNED;
      726     9637    2   DCL ACCT SBIN;
      727     9638    2   DCL MAXACCT SBIN;
      728     9639    2   DCL FOUND_CONTEXT_FILE BIT(1) ALIGNED;
      729     9640    2   DCL LAST_NON_BLANK SBIN;
      730     9641    2   DCL SINK SBIN;
      731     9642
      732     9643
      733     9644
      734     9645        %VD$CMD_STREAM (NAME=CMD$STREAM, STCLASS="BASED(CMD_STREAM$)");
      735     9684    2   DCL UNFID$FID CHAR(%MXNB_NAME_VALUE) BASED;
      736     9685        %VD$TEXTC;
      737     9708
      738     9709
      739     9710
      740     9711    2           CMD_STREAM$ = ADDR(NIL);
      741     9712
      742     9713    2           CALL VDG$OALLOC_DCB (CONTEXT_DCB#)
      743     9714    3           WHENALTRETURN DO; ALTRETURN; END;
      744     9715    2           TEST_OPEN.V.DCB# = CONTEXT_DCB#;
      745     9716    2           TEST_OPEN.V.ASN# = %FILE#;
      746     9717    2           TEST_OPEN.V.INITZ.SCRUB# = %TRUE;
      747     9718
      748     9719    3           IF B$JIT.MODE = %M_INT# THEN DO;
      749     9720    3              CALL M$GLINEATTR (FPT_GLINEATTR)
      750     9721    3                ALTRET (GLINEATTR_FAILED);
      751     9722    3              END;
      752     9723    2           ELSE
      753     9724    2              LINEATTR.PROTXTC.CNT = 0;
      754     9725
      755     9726    2           FPT_CMDVAR = CONST_FPT_CMDVAR;
      756     9727    2           FPT_CMDVAR.V_ = VECTOR(FPT_CMDVAR.V);
PL6.E3A0      #001=VDG$MAIN File=VDG$MAIN.:VDA5TSI                               FRI 07/04/97 11:18 Page:22
      757     9728    2           FPT_CMDVAR.VALUE_ = VECTOR(VD_STATIC_TEMP);
      758     9729    2           CALL M$CMDVAR (FPT_CMDVAR)
      759     9730    3           WHENALTRETURN DO;
      760     9731    3              IF B$TCB.ALT$->B$ALT.ERR.CODE ~= %E$NOTCMDNAME THEN
      761     9732    3                 GOTO CMDVAR_FAILED;
      762     9733    3              VD_STATIC_TEMP.LENGTH# = 0;
      763     9734    3              END;
      764     9735                /* Assume default name and acct */
      765     9736    2           CONTEXT_NAME.LENGTH# = LENGTHC(%CHR_CONTEXT_NAME);
      766     9737    2           CONTEXT_NAME.BYTES = %CHR_CONTEXT_NAME;
      767     9738    2           CONTEXT_ACCT (0) = ' '; /* Try !DIR account first */
      768     9739    2           CONTEXT_ACCT (1) = B$JIT.ACCN;   /* Then user's logon account */
      769     9740    2           CONTEXT_ACCT (2) = %CHR_LIBRARY_ACCT;    /* Finally, the library */
      770     9741    2           MAXACCT = 3;
      771     9742
      772     9743    2           IF VD_STATIC_TEMP.LENGTH# ~= 0 THEN
      773     9744    3   GOT_CMDVAR_VALUE: DO;
      774     9745                   /* Command variable has a value:  M$FID it to get its parts */
      775     9746    3              FPT_FID = CONST_FPT_FID;
      776     9747    3              FPT_FID.V_ = VECTOR(FPT_FID.V);
      777     9748    3              FPT_FID.TEXTFID_ = VECTOR(SUBSTR(VD_STATIC_TEMP.BYTES, 0,
      778     9749    3                VD_STATIC_TEMP.LENGTH#));
      779     9750    3              FPT_FID.NAME_ = VECTOR(TEMP_NAME);
      780     9751    3              FPT_FID.ACCT_ = VECTOR(TEMP_ACCT);
      781     9752    3              FPT_FID.PASS_ = VECTOR(CONTEXT_PASS);
      782     9753    3              FPT_FID.SN_ = VECTOR(CONTEXT_SN);
      783     9754    3              FPT_FID.WSN_ = VECTOR(CONTEXT_WSN);
      784     9755    3              FPT_FID.ASN_ = VECTOR(TEST_OPEN.V.ASN#);
      785     9756    3              FPT_FID.RES_ = VECTOR(TEST_OPEN.V.RES#);
      786     9757    3              CALL M$FID (FPT_FID)
      787     9758    3                ALTRET (FID_FAILED);
      788     9759    3              TEST_OPEN.PASS_ = VECTOR(CONTEXT_PASS);
      789     9760    3              TEST_OPEN.SN_ = VECTOR(CONTEXT_SN);
      790     9761    3              TEST_OPEN.WSN_ = VECTOR(CONTEXT_WSN);
      791     9762
      792     9763    3              IF TEMP_NAME.LENGTH# > 0 THEN
      793     9764    4   CMDVAR_VALUE_HAS_NAME: DO;
PL6.E3A0      #001=VDG$MAIN File=VDG$MAIN.:VDA5TSI                               FRI 07/04/97 11:18 Page:23
      794     9765    4                 CONTEXT_NAME = TEMP_NAME;
      795     9766                      /* If name has %SETUP_FN_USER in it, substitute user's name */
      796     9767    4                 CALL XLATE (VD_STATIC_TEMP.BYTES, B$XL_UPPER,
      797     9768    4                   SUBSTR(CONTEXT_NAME.BYTES, 0, CONTEXT_NAME.LENGTH#));
      798     9769    4                 CALL INDEX (UNAME_INDEX, %SETUP_FN_USER,
      799     9770    4                   SUBSTR(VD_STATIC_TEMP.BYTES, 0, CONTEXT_NAME.LENGTH#));
      800     9771    4                 CALL SEARCHR (LAST_NON_BLANK, SINK, B$SR_NON_BLANK,
      801     9772    4                   B$JIT.UNAME);
      802     9773    4                 IF UNAME_INDEX < CONTEXT_NAME.LENGTH#
      803     9774    5                   AND LAST_NON_BLANK < LENGTHC(B$JIT.UNAME) THEN DO;
      804     9775    6                    IF UNAME_INDEX > 0 THEN DO;
      805     9776    6                       TEMP_NAME.BYTES = SUBSTR(CONTEXT_NAME.BYTES, 0,
      806     9777    6                         UNAME_INDEX);
      807     9778    6                       TEMP_NAME.LENGTH# = UNAME_INDEX;
      808     9779    6                       IF SUBSTR(TEMP_NAME.BYTES, TEMP_NAME.LENGTH# - 1, 1) ~=
      809     9780    7                         %CHR_UNDERSCORE THEN DO;
      810     9781    7                          CALL INSERT (TEMP_NAME.BYTES, TEMP_NAME.LENGTH#, ,
      811     9782    7                            %CHR_UNDERSCORE);
      812     9783    7                          TEMP_NAME.LENGTH# = MINIMUM (LENGTHC(TEMP_NAME.BYTES),
      813     9784    7                            TEMP_NAME.LENGTH# + 1);
      814     9785    7                          END;
      815     9786    6                       END;
      816     9787    5                    CALL INSERT (TEMP_NAME.BYTES, TEMP_NAME.LENGTH#, ,
      817     9788    5                      B$JIT.UNAME);
      818     9789    5                    TEMP_NAME.LENGTH# = MINIMUM (LENGTHC(TEMP_NAME.BYTES),
      819     9790    5                      TEMP_NAME.LENGTH# + LAST_NON_BLANK + 1);
      820     9791    6                    IF UNAME_INDEX + 2 < CONTEXT_NAME.LENGTH# THEN DO;
      821     9792    6                       IF SUBSTR(CONTEXT_NAME.BYTES, UNAME_INDEX + 2, 1) ~=
      822     9793    7                         %CHR_UNDERSCORE THEN DO;
      823     9794    7                          CALL INSERT (TEMP_NAME.BYTES, TEMP_NAME.LENGTH#, ,
      824     9795    7                            %CHR_UNDERSCORE);
      825     9796    7                          TEMP_NAME.LENGTH# = MINIMUM (LENGTHC(TEMP_NAME.BYTES),
      826     9797    7                            TEMP_NAME.LENGTH# + 1);
      827     9798    7                          END;
      828     9799    6                       CALL INSERT (TEMP_NAME.BYTES, TEMP_NAME.LENGTH#, ,
      829     9800    6                         SUBSTR(CONTEXT_NAME.BYTES, UNAME_INDEX + 2));
      830     9801    6                       TEMP_NAME.LENGTH# = MINIMUM (LENGTHC(TEMP_NAME.BYTES),
PL6.E3A0      #001=VDG$MAIN File=VDG$MAIN.:VDA5TSI                               FRI 07/04/97 11:18 Page:24
      831     9802    6                         TEMP_NAME.LENGTH# + (CONTEXT_NAME.LENGTH# -
      832     9803    6                         (UNAME_INDEX + 2)));
      833     9804    6                       END;
      834     9805    5                    CONTEXT_NAME = TEMP_NAME;
      835     9806    5                    END;
      836     9807    4                 END CMDVAR_VALUE_HAS_NAME;
      837     9808
      838     9809    4              IF TEMP_ACCT ~= ' ' THEN DO;
      839     9810    4                 CONTEXT_ACCT (0) = TEMP_ACCT;
      840     9811    4                 MAXACCT = 1;
      841     9812    4                 END;
      842     9813    3              END GOT_CMDVAR_VALUE;
      843     9814
      844     9815    2           PROFILED_NAME.LENGTH# = 0;
      845     9816    2           CALL XLATE (VD_STATIC_TEMP.BYTES, B$XL_UPPER,
      846     9817    2             SUBSTR(CONTEXT_NAME.BYTES, 0, CONTEXT_NAME.LENGTH#));
      847     9818    2           CALL INDEX (PROFILE_INDEX, %SETUP_FN_PROFILE,
      848     9819    2             SUBSTR(VD_STATIC_TEMP.BYTES, 0, CONTEXT_NAME.LENGTH#));
      849     9820    3           IF PROFILE_INDEX < CONTEXT_NAME.LENGTH# THEN DO;
      850     9821                   /* Substitute the terminal profile into the file name */
      851     9822    4              IF PROFILE_INDEX > 0 THEN DO;
      852     9823    4                 PROFILED_NAME.LENGTH# = PROFILE_INDEX;
      853     9824    4                 PROFILED_NAME.BYTES =
      854     9825    4                   SUBSTR(CONTEXT_NAME.BYTES, 0, PROFILE_INDEX);
      855     9826    4                 IF SUBSTR(PROFILED_NAME.BYTES, PROFILED_NAME.LENGTH# - 1, 1) ~=
      856     9827    5                   %CHR_UNDERSCORE THEN DO;
      857     9828    5                    CALL INSERT (PROFILED_NAME.BYTES, PROFILED_NAME.LENGTH#, ,
      858     9829    5                      %CHR_UNDERSCORE);
      859     9830    5                    PROFILED_NAME.LENGTH# = MINIMUM (LENGTHC(PROFILED_NAME.BYTES),
      860     9831    5                      PROFILED_NAME.LENGTH# + 1);
      861     9832    5                    END;
      862     9833    4                 END;
      863     9834    3              CALL INSERT (PROFILED_NAME.BYTES, PROFILED_NAME.LENGTH#, ,
      864     9835    3                SUBSTR(LINEATTR.PROTXTC.TXT, 0, LINEATTR.PROTXTC.CNT));
      865     9836    3              PROFILED_NAME.LENGTH# = MINIMUM (LENGTHC(PROFILED_NAME.BYTES),
      866     9837    3                PROFILED_NAME.LENGTH# + LINEATTR.PROTXTC.CNT);
      867     9838    4              IF PROFILE_INDEX + 2 < CONTEXT_NAME.LENGTH# THEN DO;
PL6.E3A0      #001=VDG$MAIN File=VDG$MAIN.:VDA5TSI                               FRI 07/04/97 11:18 Page:25
      868     9839    4                 IF SUBSTR(CONTEXT_NAME.BYTES, PROFILE_INDEX + 2, 1) ~=
      869     9840    5                   %CHR_UNDERSCORE THEN DO;
      870     9841    5                    CALL INSERT (PROFILED_NAME.BYTES, PROFILED_NAME.LENGTH#, ,
      871     9842    5                      %CHR_UNDERSCORE);
      872     9843    5                    PROFILED_NAME.LENGTH# = MINIMUM (LENGTHC(PROFILED_NAME.BYTES),
      873     9844    5                      PROFILED_NAME.LENGTH# + 1);
      874     9845    5                    END;
      875     9846    4                 CALL INSERT (PROFILED_NAME.BYTES, PROFILED_NAME.LENGTH#, ,
      876     9847    4                   SUBSTR(CONTEXT_NAME.BYTES, PROFILE_INDEX + 2));
      877     9848    4                 PROFILED_NAME.LENGTH# = MINIMUM (LENGTHC(PROFILED_NAME.BYTES),
      878     9849    4                   PROFILED_NAME.LENGTH# + (CONTEXT_NAME.LENGTH# -
      879     9850    4                   (PROFILE_INDEX + 2)));
      880     9851    4                 END;
      881     9852                   /* Remove the %SETUP_FN_PROFILE from CONTEXT_NAME */
      882     9853    3              TEMP_NAME.BYTES = SUBSTR(CONTEXT_NAME.BYTES, PROFILE_INDEX + 2);
      883     9854    3              CONTEXT_NAME.LENGTH# = CONTEXT_NAME.LENGTH# - 2;
      884     9855    3              CALL INSERT (CONTEXT_NAME.BYTES, PROFILE_INDEX, , TEMP_NAME.BYTES);
      885     9856    3              END;
      886     9857
      887     9858    2           ACCT = 0;
      888     9859    2           FOUND_CONTEXT_FILE = %FALSE;
      889     9860    3           DO UNTIL ACCT = MAXACCT OR FOUND_CONTEXT_FILE;
      890     9861    3              TEST_OPEN.ACCT_ = VECTOR(CONTEXT_ACCT(ACCT));
      891     9862    4              IF PROFILED_NAME.LENGTH# > 0 THEN DO;
      892     9863    4                 TEST_OPEN.NAME_ = VECTOR(PROFILED_NAME);
      893     9864    4                 CALL M$OPEN (TEST_OPEN)
      894     9865    5                 WHENRETURN DO;
      895     9866    5                    FOUND_CONTEXT_FILE = %TRUE;
      896     9867    5                    END;
      897     9868    5                 WHENALTRETURN DO;
      898     9869    5                    IF B$TCB.ALT$ -> B$ALT.ERR.CODE ~= %E$NOFILE THEN
      899     9870    5                       GOTO OPEN_FAILED;
      900     9871    5                    END;
      901     9872    4                 END;
      902     9873    4              IF NOT FOUND_CONTEXT_FILE THEN DO;
      903     9874    4                 TEST_OPEN.NAME_ = VECTOR(CONTEXT_NAME);
      904     9875    4                 CALL M$OPEN (TEST_OPEN)
PL6.E3A0      #001=VDG$MAIN File=VDG$MAIN.:VDA5TSI                               FRI 07/04/97 11:18 Page:26
      905     9876    5                 WHENRETURN DO;
      906     9877    5                    FOUND_CONTEXT_FILE = %TRUE;
      907     9878    5                    END;
      908     9879    5                 WHENALTRETURN DO;
      909     9880    5                    IF B$TCB.ALT$ -> B$ALT.ERR.CODE ~= %E$NOFILE THEN
      910     9881    5                       GOTO OPEN_FAILED;
      911     9882    5                    END;
      912     9883    4                 END;
      913     9884    3              ACCT = ACCT + 1;
      914     9885    3              END;
      915     9886
      916     9887    3           IF FOUND_CONTEXT_FILE THEN DO;
      917     9888    3              CALL VDG$OALLOC (%CLS_CMD_STREAM, CMD_STREAM$)
      918     9889    3                ALTRET (OALLOC_FAILED);
      919     9890    3              CMD$STREAM.TYPE# = %CS_DCB;
      920     9891    3              CMD$STREAM.DCB# = TEST_OPEN.V.DCB#;
      921     9892    3              TEST_OPEN.V.DCB# = 0;
      922     9893                   /* Never echo the context file */
      923     9894    3              CMD$STREAM.ECHO = %FALSE;
      924     9895
      925     9896                   /* Assign the fid of the context file to the $CONTEXT name */
      926     9897    3              FPT_UNFID = CONST_FPT_UNFID;
      927     9898    3              FPT_UNFID.V_ = VECTOR(FPT_UNFID.V);
      928     9899    3              FPT_UNFID.TEXTFID_ = VECTOR(VD_STATIC_TEMP);
      929     9900    3              FPT_UNFID.V.DCB# = CMD$STREAM.DCB#;
      930     9901    3              CALL M$UNFID (FPT_UNFID)
      931     9902    3                ALTRET (UNFID_FAILED);
      932     9903    3              CALL SEARCHR (LAST_NON_BLANK, SINK, B$SR_NON_BLANK,
      933     9904    3                ADDR(VD_STATIC_TEMP)->UNFID$FID);
      934     9905    3              VD_$CONTEXT.LENGTH# = LAST_NON_BLANK + 1;
      935     9906    3              VD_$CONTEXT.FLINK$ -> VD$BUFFER.LENGTH# = VD_$CONTEXT.LENGTH#;
      936     9907    3              VD_$CONTEXT.FLINK$ -> VD$BUFFER.BYTES =
      937     9908    3                SUBSTR(ADDR(VD_STATIC_TEMP)->UNFID$FID, 0, VD_$CONTEXT.LENGTH#);
      938     9909    3              RETURN;
      939     9910    3              END;
      940     9911                /* Didn't find context file - report the ALTRET */
      941     9912    2   OPEN_FAILED: ;
PL6.E3A0      #001=VDG$MAIN File=VDG$MAIN.:VDA5TSI                               FRI 07/04/97 11:18 Page:27
      942     9913    2   GLINEATTR_FAILED: ;
      943     9914    2   CMDVAR_FAILED: ;
      944     9915    2   UNFID_FAILED: ;
      945     9916    2           FATAL$ERR.ERR = B$TCB.ALT$->B$ALT.ERR;
      946     9917    2           FATAL$ERR.DCB# = B$TCB.ALT$->B$ALT.DCB#;
      947     9918    2           ALTRETURN;
      948     9919
      949     9920
      950     9921
      951     9922    2   FID_FAILED:
      952     9923    2           ERR_SUBST$ = PINCRW(ADDR(FATAL$ERR), SIZEW(VD$ERR));
      953     9924    2           FATAL$ERR.ERR.CODE# = %E$SETUP_6EDIT_NOT_FID;
      954     9925    2           ERR$SUBST.OBJECT.CLASS# (0) = %CLS_PTR_TEXTC;
      955     9926    2           ERR$SUBST.V$ (0) = ADDR(VD_STATIC_TEMP);
      956     9927
      957     9928
      958     9929    2   OALLOC_FAILED: ;
      959     9930    2   OALLOC_DCB_FAILED: ;
      960     9931    2           ALTRETURN;
      961     9932
      962     9933    2   END PUSH_CONTEXT_FILE;
      963     9934
      964     9935        %BOX (TITLE=PUSH_INITIALIZE_CMDS, PAGE=YES);
              9943    2
              9947    2   /***************************************************************************
              9949    2    *                                                                         *
              9953    2            *                            PUSH_INITIALIZE_CMDS                         *
              9955    2            *                                                                         *
              9957    2           ***************************************************************************/

      965     9961
      966     9962        /*I* NAME: PUSH_INITIALIZE_CMDS
      967     9963            PARAMETERS:
      968     9964                NONE
      969     9965            INPUT:
      970     9966                VD_$INITIALIZE is a global VD$BUFFER containing (probably
      971     9967                    indirectly) a string expression.
PL6.E3A0      #001=VDG$MAIN File=VDG$MAIN.:VDA5TSI                               FRI 07/04/97 11:18 Page:28
      972     9968            OUTPUT:
      973     9969                Another VD$CMD_STREAM with a chain of buffers corresponding to
      974     9970                    the records defined by the string expression.
      975     9971        */
      976     9972
      977     9973    1   PUSH_INITIALIZE_CMDS: PROC ALTRET;
      978     9974
      979     9975    2   DCL BUFFER$ PTR;
      980     9976        %VD$BUFFER (NAME=RECORD, STCLASS="BASED(BUFFER$)");
      981    10034    2   DCL INDX SBIN;
      982    10035    2   DCL RET_CODE CHAR(1);
      983    10036    2   DCL CTRL_ARGS(0:%(MX_CTRL_FN_ARGS-1)) SBIN;
      984    10037
      985    10038    2           CALL VDG$OALLOC (%CLS_CMD_STREAM, BUFFER$) ALTRET (FATAL_ERR);
      986    10039    2           TOP$CMD_STREAM.TYPE# = %CS_BUFFER;
      987    10040
      988    10041    2           VD_STATIC_TEMP.LENGTH# = VD_$INITIALIZE.FLINK$ -> RECORD.LENGTH#;
      989    10042    2           VD_STATIC_TEMP.BYTES = VD_$INITIALIZE.FLINK$ -> RECORD.BYTES;
      990    10043    2           XUE_ECB.OUT$ = ADDR(VD_STATIC_TEMP);
      991    10044    2           INDX = 0;
      992    10045    2           BUFFER$ = PINCRW(ADDR(TOP$CMD_STREAM.RECORD$),
      993    10046    2             POFFW (ADDR(RECORD), ADDR(RECORD.FLINK$)));
      994    10047    3           DO UNTIL INDX >= VD_STATIC_TEMP.LENGTH#;
      995    10048    3              CALL VDE$PSTRING (, INDX, RECORD.FLINK$, RET_CODE, CTRL_ARGS)
      996    10049    3                ALTRET (FATAL_ERR);
      997    10050    4              IF RET_CODE ~= %CHR_SPACE AND RET_CODE ~= %FNID_RECORD THEN DO;
      998    10051    4                 CALL VDG$ERRMSG (%E$BAD_CTRLFN_IN_INITIALIZE);
      999    10052    4                 CALL VDG$OFREE (VD_6E.CMD_STREAM$);
     1000    10053    4   FATAL_ERR:    ALTRETURN;
     1001    10054    4                 END;
     1002    10055    3              IF RECORD.FLINK$ ~= ADDR(NIL) THEN
     1003    10056    3                 BUFFER$ = RECORD.FLINK$;
     1004    10057    3              END;
     1005    10058    2   END PUSH_INITIALIZE_CMDS;
     1006    10059    1   END VDG$MAIN;
     1007    10060        %EOD;

PL6.E3A0      #001=VDG$MAIN File=VDG$MAIN.:VDA5TSI                               FRI 07/04/97 11:18 Page:29
--  Include file information  --

   B$TABLES_C.:LIBRARY  cannot be made into a system file and is referenced.
   B$JIT.:LIBRARY  cannot be made into a system file and is referenced.
   VD_NODES0_E.:VDA5TOU  is referenced.
   VD_PERR_C.:VDA5TOU  is referenced.
   VD_MACROS_M.:VDA5TOU  is referenced.
   XUE_MACRO_C.:LIBRARY  is referenced.
   B_ERRORS_C.:LIBRARY  is referenced.
   CP_6_SUBS.:LIBRARY  is referenced.
   CP_6.:LIBRARY  cannot be made into a system file and is referenced.
   B$JIT_C.:E04TOU  was found in the system file and is referenced.
   CP_6_C.:E04TOU  was found in the system file and is referenced.
      No diagnostics issued in procedure VDG$MAIN.

   Procedure VDG$MAIN requires 1176 words for executable code.
   Procedure VDG$MAIN requires 214 words of local(AUTO) storage.

PL6.E3A0      #001=VDG$MAIN File=VDG$MAIN.:VDA5TSI                               FRI 07/04/97 11:18 Page:30

 Object Unit name= VDG$MAIN                                   File name= VDG$MAIN.:VDA5TOU
 UTS= JUL 04 '97 11:18:37.12 FRI                              Compiler= PL-6/E31         Sev=      00
 SharedLib= :SHARED_SYSTEM                                    Alt SharedLib=


    ****  Control sections  ****

 Sect   Type Bound  Init  Size OctSiz  Section name(segment info)
    0   DCB   even  none     0      0  M$UC
    1   DCB   even  none     0      0  M$SI
    2   DCB   even  none     0      0  M$FILE
    3  RoData even  UTS    179    263  VDG$MAIN
    4   Data  even  none    16     20  VDG$MAIN
    5   Proc  even  none  1176   2230  VDG$MAIN
    6  RoData even  none    39     47  VDG$MAIN

    ****  Entry defs  ****

                              Check   Calling
                             calling  sequence
  Sect OctLoc Primary Altret sequence   type   Parms  Name
     5      0   yes            yes      Std        0  VDG$MAIN

  ****  Data defs  ****

 Sect OctLoc  Name                           Sect OctLoc  Name
    3    100  ENABLE_BRK                         3    104  DISABLE_BRK
PL6.E3A0      #001=VDG$MAIN File=VDG$MAIN.:VDA5TSI                               FRI 07/04/97 11:18 Page:31

  ****  Entry refs  ****

         Check        Calling
        calling       sequence
Altret sequence SRef   type   Args  Name
         yes          ~proc      0 B_POINTER
         yes          Async      0 VDG$EXCON
 yes     yes           Std       0 VDG$MINIT
         yes           Std       1 VDG$EREPORT_ERROR
 yes     yes           Std       4 VDA$LWRITE
 yes     yes           Std       3 VDG$OALLOC
         yes          Async      0 VDG$EBREAK
 yes     yes           Std       0 VDP$WINIT
 yes     yes           Std       0 VDI$PREAD_FILE_OPEN
 yes     yes           Std       1 VDG$OFREE
 yes     yes           Std       0 VDI$PREAD_FILE_CLOSE
         yes          Async      0 VDG$ETRAP
 yes     yes           Std       0 VDG$WINIT
 yes     yes           Std       4 VDG$ERRMSG
 yes     yes           Std       1 VDW$LOAD
 yes     yes           Std       2 VDI$CSET_COUNT
 yes     yes           Std       2 VDA$PFLUSH
 yes     yes           Std       1 VDG$OALLOC_DCB
 yes     yes           Std       5 VDE$PSTRING
                       nStd      0 X66_AUTO_0
                       Std       0 B_CONSPOOL_D
                       nStd      0 X66_ARET
PL6.E3A0      #001=VDG$MAIN File=VDG$MAIN.:VDA5TSI                               FRI 07/04/97 11:18 Page:32

  ****  Data refs  ****

  Flags:  r = read only, s = secondary
Flgs Name                             Flgs Name                             Flgs Name
     M$UC                                  M$SI                                  M$FILE
     B$JIT$                                B$TCB$                                VD_6E
     VD_COMMAND_WINDOW$                    VD_$CONTEXT                           VD_$COMMAND
     VD_$SCREEN                            VD_EDITING_HEIGHT                     VD_TOP_LINE
     VD_OLD_$SCREEN                        VD_LOC_$SCREEN                        VD_$INITIALIZE
     XUE_ECB                          r    B$SR_NON_BLANK$                  r    B$XL_UPPER$
     VD_KEY_NUMERIC_BOF                    VD_STATIC_TEMP                        B_VECTNIL

  ****  Segment refs  ****

  Flags:  r = read only, s = secondary
Flgs Name                             Flgs Name                             Flgs Name
     ISSID                                 NULLSID                               ROSID
PL6.E3A0      #001=VDG$MAIN File=VDG$MAIN.:VDA5TSI                               FRI 07/04/97 11:18 Page:33


        1        1        /*M* VDG$MAIN - Main procedure for 6Edit */
        2        2        /*T***********************************************************/
        3        3        /*T*                                                         */
        4        4        /*T* Copyright (c) Bull HN Information Systems Inc., 1997    */
        5        5        /*T*                                                         */
        6        6        /*T***********************************************************/
        7        7
        8        8        /*X* MCR=NO, DMC=YES */
        9        9        /*T*/
       10       10
       11       11
       12       12        /*P* NAME: VDG$MAIN
       13       13            PURPOSE:
       14       14                Main procedure for 6Edit.
       15       15            DESCRIPTION:
       16       16                This module contains several external routines:
       17       17
       18       18                VDG$MAIN
       19       19                Main program for 6Edit processor.  Receives initial control
       20       20                from the command processor.  Initializes the world, prepares
       21       21                to process the optional context file and the invocation
       22       22                command line, validates the initial workspace,
       23       23                establishes BREAK control, then calls VDI$PDRIVER
       24       24                to begin processing commands.
       25       25
       26       26                VDG$MINIT
       27       27                Initialization routine.  Contains (almost) all global static
       28       28                data, initializes it, prepares dynamic data segments for
       29       29                VDG$OALLOC, initializes control blocks for library routines.
       30       30
       31       31                VDG$MTERMINATE
       32       32                Termination routine.  Called when user types END command,
       33       33                or when fatal error encountered.  Closes all files and all
       34       34                windows, restores the terminal to its original state,
       35       35                passes any user-specified $RESTORE command to IBEX,
       36       36                updates the statistics file, reports any final, fatal
PL6.E3A0      #001=VDG$MAIN File=VDG$MAIN.:VDA5TSI                               FRI 07/04/97 11:18 Page:34
       37       37                error message, and exits setting the STEPCC and IBEX-error-code
       38       38                appropriately.
       39       39        */
       40       40
       41       41        /*D* NAME: VDG$MAIN
       42       42            PARAMETERS:
       43       43                None.
       44       44            INPUT:
       45       45                B$JIT.FACCT - User's !DIR account.
       46       46                B$JIT.ACCT - User's logon account.
       47       47                If B$JIT.PRFLAGS.CONTINUED = %FALSE, then
       48       48                    B$JIT.CCBUF contains B$JIT.CCARS chars of command line
       49       49                    text.  B$JIT.CCDISP is the offset into B$JIT.CCBUF
       50       50                    of the left parenthesis in front of the "options"
       51       51                    (command-list).
       52       52                Else:
       53       53                    The file *CONTINUATION_COMMANDS contains the records of a
       54       54                    multiline invocation command line, including the
       55       55                    first line with its rununit fid.  B$JIT.CCARS contains
       56       56                    the total number of bytes in all the records in the file.
       57       57                    B$JIT.CCDISP is the offset into the entire set of
       58       58                    characters (as tho the records of the *CONTINUATION_COMMANDS
       59       59                    file were laid end-to-end) of the left parenthesis.
       60       60            DESCRIPTION:
       61       61                VDG$MAIN gets initial control from IBEX.
       62       62                Call VDG$MINIT, VDP$WINIT, and VDG$WINIT, in that order, to initialize
       63       63                    everything to the point where we can allocate dynamic storage and
       64       64                    converse with the user in serial mode.
       65       65                If the user used incorrect syntax to invoke 6Edit, write the error
       66       66                    message and abort.
       67       67                Take exit-control, BREAK-control, and some trap-controls.
       68       68                Push a first VD$CMD_STREAM for the command window.  This is always
       69       69                    the bottom VD$CMD_STREAM on the command-stream stack.
       70       70                Look for command input from 4 places; if we find any, push
       71       71                    VD$CMD_STREAMs onto the command stream stack in the following order:
       72       72                      1) M$SI assigned to non-interactive file => CS_DCB
       73       73                      2) Options on invocation command line    => CS_BUFFER
PL6.E3A0      #001=VDG$MAIN File=VDG$MAIN.:VDA5TSI                               FRI 07/04/97 11:18 Page:35
       74       74                      3) M$FILE (DCB #1 on invocation line)    => CS_TREE w/ED cmd
       75       75                      4) Context file                          => CS_DCB
       76       76                    Note that the VD$CMD_STREAMs will be processed in the opposite
       77       77                    order:
       78       78                      1) First the context file, to let the user override any
       79       79                            operational defaults (such as terminal parameters) and to
       80       80                            define any synonyms the user expects to be able to use in
       81       81                            the other inputs.
       82       82                      2) If DCB #1 on the invocation command line was set, an already-
       83       83                            encoded InTree specifying an EDIT DCB command for the #1
       84       84                            DCB.
       85       85                      3) The invocation command line options;
       86       86                      4) M$SI assigned to a READ-file of 6Edit commands. M$SI is used
       87       87                            last because, when it's set to something interactive
       88       88                            (another window), it's used last then (tho no
       89       89                            VD$CMD_STREAM is pushed for it in that case).
       90       90                Prepare to process the invocation command line options.
       91       91                    Either B$JIT.CCBUF has the entire invocation command line, or
       92       92                        a multi-line invocation command line is stored in a temporary
       93       93                        file built by IBEX.
       94       94                    If CCBUF has the command-line, copy it to dynamic storage.
       95       95                    If the command-line is in a file, read the file records
       96       96                        into dynamic storage, laying them end-to-end, so
       97       97                        they form one huge command line.
       98       98                    Push a VD$CMD_STREAM pointing to the new command line.
       99       99                    Position the CMD$STREAM so the first char parsed is just
      100      100                        beyond the left parenthesis preceding the "options"
      101      101                        (or where IBEX says the left paren is via B$JIT.CCDISP).
      102      102                        Also omit the optional trailing right parenthesis from
      103      103                        the buffer.
      104      104                See if the user assigned M$FILE (either on the invocation
      105      105                    command line as #1, or via a prior SET command).  If so, build
      106      106                    an encoded EDIT DCB command in a VD$CMD_STREAM's InTree and push
      107      107                    it onto the command stream stack.
      108      108                    Also, flag the fact that the user assigned M$FILE, so that
      109      109                    when we're reading the context file we'll know to ignore any
      110      110                    Windows in it.
PL6.E3A0      #001=VDG$MAIN File=VDG$MAIN.:VDA5TSI                               FRI 07/04/97 11:18 Page:36
      111      111                Search for a context file, using a file name and a list of accounts
      112      112                        to search.  The default name includes %SETUP_FN_PROFILE in it,
      113      113                        specifying that each account is to be searched for that name,
      114      114                        both omitting and including the terminal profile at that point
      115      115                        in the name.
      116      116                    But first, see if the IBEX command variable "SETUP_6EDIT" has a
      117      117                        value; if so, M$FID it's value.  If there is an account part,
      118      118                        it replaces the entire default account search list (we'll only
      119      119                        search the one given account).  In the name part, replace any
      120      120                        appearance of %SETUP_FN_USER with the user's JIT.UNAME.
      121      121                    Test-open the name, both with and without the terminal profile if
      122      122                        %SETUP_FN_PROFILE is included in the name, in all accounts
      123      123                        specified by the account list.
      124      124                    If we find a file, push a VD$CMD_STREAM for the file.  By leaving
      125      125                    it on the top of the stack, it becomes the first command stream.
      126      126                Open the context file (if any) and check its file type:  if it's a
      127      127                    workspace file, load it into the internal workspace now.
      128      128                Create the command window structure in the internal Windows file.
      129      129                    If we can screen edit and the user hasn't overridden
      130      130                    screen-editing, the command window will also be created in the FEP.
      131      131
      132      132                Call VDI$PDRIVER to begin processing commands.  If we pushed any
      133      133                    VD$CMD_STREAMs above, they will be the first commands that
      134      134                    VDI$PDRIVER will process.  When done with them, it will begin
      135      135                    reading commands from the terminal.
      136      136                When/if VDI$PDRIVER returns, call VDG$MTERMINATE to close all files
      137      137                    and return to IBEX.
      138      138        */
      139      139
      140      140        VDG$MAIN: PROC;

    140  5 000000   000000 700200 xent  VDG$MAIN     TSX0  ! X66_AUTO_0
         5 000001   000326 000000                    ZERO    214,0

      141      141
      142      142
      143      143        %INCLUDE CP_6;
PL6.E3A0      #001=VDG$MAIN File=VDG$MAIN.:VDA5TSI                               FRI 07/04/97 11:18 Page:37
      144      224        %INCLUDE CP_6_SUBS;
      145      764        %INCLUDE B_ERRORS_C;
      146     1890        %INCLUDE XUE_MACRO_C;
      147     2634        %INCLUDE VD_MACROS_M;
      148     4849        %INCLUDE VD_PERR_C;
      149     4997        %INCLUDE VD_NODES0_E;
      150     5089        %INCLUDE B$JIT;
      151     5379        %INCLUDE B$TABLES_C;
      152     5487
      153     5488
      154     5489    1   DCL VDG$MINIT           ENTRY ALTRET;
      155     5490    1   DCL VDP$WINIT           ENTRY ALTRET;
      156     5491    1   DCL VDG$WINIT           ENTRY ALTRET;
      157     5492    1   DCL VDI$PREAD_FILE_OPEN ENTRY ALTRET;
      158     5493    1   DCL VDI$PREAD_FILE_READ ENTRY (2) ALTRET;
      159     5494    1   DCL VDI$PREAD_FILE_CLOSE ENTRY ALTRET;
      160     5495    1   DCL VDA$LWRITE          ENTRY (4) ALTRET;
      161     5496    1   DCL VDA$PFLUSH          ENTRY (2) ALTRET;
      162     5497    1   DCL VDE$PSTRING         ENTRY(5) ALTRET;
      163     5498    1   DCL VDG$ERRMSG          ENTRY(4) ALTRET;
      164     5499    1   DCL VDI$CSET_COUNT      ENTRY(2) ALTRET;
      165     5500    1   DCL VDW$LOAD            ENTRY (1) ALTRET;
      166     5501    1   DCL VDG$MTERMINATE      ENTRY;
      167     5502    1   DCL VDG$EXCON           ENTRY ASYNC;
      168     5503    1   DCL VDG$EBREAK          ENTRY ASYNC;
      169     5504    1   DCL VDG$ETRAP           ENTRY ASYNC;
      170     5505    1   DCL VDG$EREPORT_ERROR   ENTRY (1);
      171     5506    1   DCL VDG$ESCREECH        ENTRY (3);
      172     5507    1   DCL VDG$OALLOC          ENTRY (3) ALTRET;
      173     5508    1   DCL VDG$OALLOC_DCB      ENTRY (1) ALTRET;
      174     5509    1   DCL VDG$OFREE           ENTRY (1) ALTRET;
      175     5510
      176     5511
      177     5512    1   DCL M$SI DCB;
      178     5513    1   DCL M$FILE DCB;
      179     5514
      180     5515    1   DCL CONTEXT_DCB#     UBIN(18);
PL6.E3A0      #001=VDG$MAIN File=VDG$MAIN.:VDA5TSI                               FRI 07/04/97 11:18 Page:38
      181     5516
      182     5517    1   DCL B$JIT$ PTR SYMREF;
      183     5518    1   DCL B$TCB$ PTR SYMREF;
      184     5519        %VD_6E (NAME=VD_6E, STCLASS=SYMREF);
      185     5555    1   DCL VD_COMMAND_WINDOW$ PTR SYMREF;
      186     5556    1   DCL VD_SCREEN_HEIGHT SBIN SYMREF;
      187     5557        %VD_BUFFER (NAME=VD_$CONTEXT, STCLASS=SYMREF, MXNB=%MXNB_FID);
      188     5617        %VD$NUMBER (NAME=VD_$COMMAND, STCLASS=SYMREF);
      189     5662        %VD$NUMBER (NAME=VD_$SCREEN, STCLASS=SYMREF);
      190     5707    1   DCL VD_EDITING_HEIGHT SBIN SYMREF;
      191     5708    1   DCL VD_TOP_LINE SBIN SYMREF;
      192     5709    1   DCL VD_OLD_$SCREEN SBIN SYMREF;
      193     5710        %VD$LOCATION (NAME=VD_LOC_$SCREEN, STCLASS=SYMREF);
      194     5738        %VD$BUFFER (NAME=VD_$INITIALIZE, STCLASS=SYMREF);
      195     5796        %XUE_ECB (STCLASS=SYMREF);
      196     5998        %B$SR_NON_BLANK;
      197     6002        %B$XL_UPPER;
      198     6006        %VD_KEY (NAME=VD_KEY_NUMERIC_BOF, STCLASS=SYMREF);
      199     6042        %VD_TEXTC (NAME=VD_STATIC_TEMP, STCLASS=SYMREF, MXNB=%MXNB_NAME_VALUE);
      200     6183
      201     6184
      202     6185
      203     6186        %FPT_OPEN (FPTN=CONST_TEST_OPEN, STCLASS=CONSTANT, FUN=IN, TEST=YES);
      204     6295        %FPT_XCON (STCLASS=CONSTANT, UENTRY=VDG$EXCON);
      205     6309        %FPT_INT (FPTN=ENABLE_BRK,
      206     6310                 UENTRY=VDG$EBREAK,
      207     6311                 STCLASS="CONSTANT SYMDEF");
      208     6325
      209     6326        %FPT_INT (FPTN=DISABLE_BRK,
      210     6327                 UENTRY=NIL,
      211     6328                 STCLASS="CONSTANT SYMDEF");
      212     6342
      213     6343        %FPT_TRAP (STCLASS=CONSTANT, ARITHMETIC=VDG$ETRAP, ERRORS=VDG$ETRAP,
      214     6344            DIVIDE_CHECK=TRAP, OVERFLOW=TRAP,
      215     6345            COMMAND=TRAP, IPR=TRAP, LOCKUP=TRAP, MEMORY=TRAP,
      216     6346            MISSING_PAGE=TRAP, MISSING_SEG=TRAP, SECURITY_1=TRAP,
      217     6347            SECURITY_2=TRAP);
PL6.E3A0      #001=VDG$MAIN File=VDG$MAIN.:VDA5TSI                               FRI 07/04/97 11:18 Page:39
      218     6370
      219     6371
      220     6372        /* Location in the Windows file for the command window */
      221     6373        %VD_LOCATION (NAME=COMMAND_WINDOW_LOC, STCLASS=CONSTANT, INITS=1,
      222     6374            ITYPE1=%KT_NUMBER, IREP1=%REP_LOCAL, IBYTES1=%WK_COMMAND_WINDOW);
      223     6449
      224     6450
      225     6451    1   DCL VD_ERR$ PTR;
      226     6452    1   DCL ERR_SUBST$ PTR;
      227     6453        %FPT_OPEN (FPTN=TEST_OPEN, STCLASS=AUTO);
      228     6562    1   DCL CMD_WINDOW_STREAM$ PTR;
      229     6563    1   DCL SI_STREAM$ PTR;
      230     6564    1   DCL INVOCATION_STREAM$ PTR;
      231     6565    1   DCL MFILE_STREAM$ PTR;
      232     6566    1   DCL CONTEXT_STREAM$ PTR;
      233     6567    1   DCL 1 LOAD_FLAGS ALIGNED,
      234     6568              %VD$PDFF (NAME=F, STCLASS=AUTO, LEV=2, LAST=YES);
      235     6582        %VD_TEXTC (NAME=FUNNY_TEXT, STCLASS=AUTO, MXNB=%MXNB_ERR_SUBST);
      236     6723    1   DCL SUCCESSFULLY_OPENED BIT(1) ALIGNED;
      237     6724    1   DCL WINDOW_SPEC$ PTR;
      238     6725        %VD$SPEC (NAME=WSPEC, STCLASS=AUTO);
      239     6739    1   DCL ACTUAL_ERR$ PTR;
      240     6740
      241     6741
      242     6742        %F$DCB;
      243     6799        %B$TCB (NAME=B$TCB, STCLASS="BASED(B$TCB$)");
      244     6802        %B$ALT;
      245     6810        %VD$ERR (NAME=VD$ERR, STCLASS="BASED(VD_ERR$)");
      246     6863        %VD$POINTER (NAME=ERR$SUBST, DIM="(0:2)", STCLASS="BASED(ERR_SUBST$)");
      247     6908        %VD$ERR (NAME=FATAL$ERR, STCLASS="BASED(VD_6E.ERR_HEAD$)");
      248     6961        %VD$CMD_STREAM (NAME=SI$STREAM, STCLASS="BASED(SI_STREAM$)");
      249     7000        %VD$CMD_STREAM (NAME=CONTEXT$STREAM, STCLASS="BASED(CONTEXT_STREAM$)");
      250     7039        %VD$CMD_STREAM (NAME=TOP$CMD_STREAM, STCLASS="BASED(VD_6E.CMD_STREAM$)");
      251     7078        %VD$STREAM (NAME=WINDOWS$STREAM, STCLASS="BASED(VD_6E.WINDOWS$)");
      252     7184        %VD$WINDOW_SPEC (NAME=WINDOW$SPEC, STCLASS="BASED(WINDOW_SPEC$)");
      253     7250        %VD$PORT;
      254     7348        %VD$BUFFER_HEADER;
PL6.E3A0      #001=VDG$MAIN File=VDG$MAIN.:VDA5TSI                               FRI 07/04/97 11:18 Page:40
      255     7384        %VD$BUFFER;
      256     7442        %VD$STRING_HEADER;
      257     7478        %VD$TEXTC_REMOTE;
      258     7539    1   DCL 1 VD$ERR_HEAD BASED(VD_6E.ERR_HEAD$) ALIGNED,
      259     7540              %VD$ERR (NAME=VD_ERR, LEV=2, LAST=NO);
      260     7593              %VD$NUMBER (NAME=ERR_SUBST, DIM="(0:2)", LEV=2, LAST=YES);
      261     7638    1   DCL 1 ACTUAL$ERR BASED(ACTUAL_ERR$) ALIGNED,
      262     7639              %VD$ERR (NAME=VD_ERR, LEV=2, LAST=NO);
      263     7692              %VD$NUMBER (NAME=ERR_SUBST, DIM="(0:2)", LEV=2, LAST=YES);
      264     7737
      265     7738
      266     7739
      267     7740    1           VD_6E.WINDOWS$ = ADDR(NIL); /* No command-window yet */

   7740  5 000002   000001 236000 xsym               LDQ     B_VECTNIL+1
         5 000003   000006 756000 xsym               STQ     VD_6E+6

      268     7741    1           VD_COMMAND_WINDOW$ = ADDR(NIL);

   7741  5 000004   000000 756000 xsym               STQ     VD_COMMAND_WINDOW$

      269     7742
      270     7743    1           SI_STREAM$ = ADDR(NIL);

   7743  5 000005   200101 756100                    STQ     SI_STREAM$,,AUTO

      271     7744    1           INVOCATION_STREAM$ = ADDR(NIL);

   7744  5 000006   200102 756100                    STQ     INVOCATION_STREAM$,,AUTO

      272     7745    1           MFILE_STREAM$ = ADDR(NIL);

   7745  5 000007   200103 756100                    STQ     MFILE_STREAM$,,AUTO

      273     7746    1           CONTEXT_STREAM$ = ADDR(NIL);

   7746  5 000010   200104 756100                    STQ     CONTEXT_STREAM$,,AUTO
PL6.E3A0      #001=VDG$MAIN File=VDG$MAIN.:VDA5TSI                               FRI 07/04/97 11:18 Page:41

      274     7747
      275     7748    1           CALL VDG$MINIT

   7748  5 000011   000002 631400 xsym               EPPR1   B_VECTNIL+2
         5 000012   000000 701000 xent               TSX1    VDG$MINIT
         5 000013   000015 702000 5                  TSX2    FATAL_ERR
         5 000014   000023 710000 5                  TRA     s:7758

      276     7749    2           WHENALTRETURN DO;

      277     7750    2   FATAL_ERR: VD_6E.ERR_TAIL$ -> VD$ERR.FLAGLEV# = %FLV_FATAL;

   7750  5 000015   000004 220003       FATAL_ERR    LDX0    4,DU
         5 000016   000032 470400 xsym               LDP0    VD_6E+26
         5 000017   000003 740100                    STX0    3,,PR0

      278     7751    2              CALL VDG$EREPORT_ERROR; /* We'll never come back from this */

   7751  5 000020   000002 631400 xsym               EPPR1   B_VECTNIL+2
         5 000021   000000 701000 xent               TSX1    VDG$EREPORT_ERROR
         5 000022   000000 011000                    NOP     0

      279     7752    2              END;

      280     7753
      281     7754                /*
      282     7755                *   VDP$WINIT must be called before VDG$WINIT, to get terminal params
      283     7756                *       from the FEP.
      284     7757                */
      285     7758    1           CALL VDP$WINIT ALTRET(FATAL_ERR);

   7758  5 000023   000002 631400 xsym               EPPR1   B_VECTNIL+2
         5 000024   000000 701000 xent               TSX1    VDP$WINIT
         5 000025   000015 702000 5                  TSX2    FATAL_ERR

      286     7759
PL6.E3A0      #001=VDG$MAIN File=VDG$MAIN.:VDA5TSI                               FRI 07/04/97 11:18 Page:42
      287     7760                /*
      288     7761                *   Initialize the internal workspace, creating all mandatory
      289     7762                *       entries (e.g., Structures-file entries).
      290     7763                */
      291     7764    1           CALL VDG$WINIT ALTRET(FATAL_ERR);

   7764  5 000026   000002 631400 xsym               EPPR1   B_VECTNIL+2
         5 000027   000000 701000 xent               TSX1    VDG$WINIT
         5 000030   000015 702000 5                  TSX2    FATAL_ERR

      292     7765
      293     7766
      294     7767                /**************************************************************
      295     7768                *
      296     7769                *   Now we're fully initialized; we can converse with the user.
      297     7770                *
      298     7771                */
      299     7772
      300     7773                /* Report error if bad invocation syntax */
      301     7774    2           IF B$JIT.PRFLAGS.NSSYNTAX THEN DO;

   7774  5 000031   000000 470400 xsym               LDP0    B$JIT$
         5 000032   000030 236100                    LDQ     24,,PR0
         5 000033   002000 316003                    CANQ    1024,DU
         5 000034   000060 600000 5                  TZE     s:7782

      302     7775    2              FUNNY_TEXT.LENGTH# = MINIMUM (B$JIT.CCDISP,

   7775  5 000035   000032 236100                    LDQ     26,,PR0
         5 000036   000022 736000                    QLS     18
         5 000037   000022 732000                    QRS     18
         5 000040   000037 116007                    CMPQ    31,DL
         5 000041   000043 604400 5                  TMOZ    s:7775+6
         5 000042   000037 236007                    LDQ     31,DL
         5 000043   000033 736000                    QLS     27
         5 000044   200106 552140                    STBQ    FUNNY_TEXT,'40'O,AUTO

PL6.E3A0      #001=VDG$MAIN File=VDG$MAIN.:VDA5TSI                               FRI 07/04/97 11:18 Page:43
      303     7776    2                LENGTHC(FUNNY_TEXT.BYTES));
      304     7777    2              FUNNY_TEXT.BYTES = B$JIT.CCBUF;

   7777  5 000045   040100 100500                    MLR     fill='040'O
         5 000046   000033 000037                    ADSC9   27,,PR0                  cn=0,n=31
         5 000047   200106 200037                    ADSC9   FUNNY_TEXT,,AUTO         cn=1,n=31

      305     7778    2              CALL VDG$ERRMSG (%E$INVOK_NOT_RECOGNIZED, FUNNY_TEXT)

   7778  5 000050   200106 631500                    EPPR1   FUNNY_TEXT,,AUTO
         5 000051   200321 451500                    STP1    SINK+3,,AUTO
         5 000052   000000 236000 6                  LDQ     0
         5 000053   200320 756100                    STQ     SINK+2,,AUTO
         5 000054   200320 630500                    EPPR0   SINK+2,,AUTO
         5 000055   000020 631400 xsym               EPPR1   B_VECTNIL+16
         5 000056   000000 701000 xent               TSX1    VDG$ERRMSG
         5 000057   000015 702000 5                  TSX2    FATAL_ERR

      306     7779    2                ALTRET (FATAL_ERR);
      307     7780    2              END;

      308     7781
      309     7782    1           CALL M$XCON (FPT_XCON);

   7782  5 000060   000072 630400 3                  EPPR0   FPT_XCON
         5 000061   010003 713400                    CLIMB   4099
         5 000062   400400 401760                    pmme    nvectors=2

      310     7783    1           CALL M$INT (ENABLE_BRK);

   7783  5 000063   000100 630400 3                  EPPR0   ENABLE_BRK
         5 000064   010002 713400                    CLIMB   4098
         5 000065   400000 401760                    pmme    nvectors=1

      311     7784    1           CALL M$TRAP (FPT_TRAP);

   7784  5 000066   000110 630400 3                  EPPR0   FPT_TRAP
PL6.E3A0      #001=VDG$MAIN File=VDG$MAIN.:VDA5TSI                               FRI 07/04/97 11:18 Page:44
         5 000067   010004 713400                    CLIMB   4100
         5 000070   400400 401760                    pmme    nvectors=2

      312     7785
      313     7786                /* Push a VD$CMD_STREAM for the command window */
      314     7787    1           CALL VDG$OALLOC (%CLS_CMD_STREAM, CMD_WINDOW_STREAM$)

   7787  5 000071   200100 630500                    EPPR0   CMD_WINDOW_STREAM$,,AUTO
         5 000072   200321 450500                    STP0    SINK+3,,AUTO
         5 000073   000001 236000 6                  LDQ     1
         5 000074   200320 756100                    STQ     SINK+2,,AUTO
         5 000075   200320 630500                    EPPR0   SINK+2,,AUTO
         5 000076   000020 631400 xsym               EPPR1   B_VECTNIL+16
         5 000077   000000 701000 xent               TSX1    VDG$OALLOC
         5 000100   000015 702000 5                  TSX2    FATAL_ERR

      315     7788    1             ALTRET (FATAL_ERR);
      316     7789    1           TOP$CMD_STREAM.TYPE# = %CS_ME;

   7789  5 000101   000002 220003                    LDX0    2,DU
         5 000102   000026 470400 xsym               LDP0    VD_6E+22
         5 000103   000002 740100                    STX0    2,,PR0

      317     7790
      318     7791                /*
      319     7792                *  If M$SI is assigned to something non-interactive,
      320     7793                *      push it on the command-stream stack.
      321     7794                */
      322     7795
      323     7796    1           TEST_OPEN = CONST_TEST_OPEN;

   7796  5 000104   000100 100400                    MLR     fill='000'O
         5 000105   000000 000350 3                  ADSC9   CONST_TEST_OPEN          cn=0,n=232
         5 000106   200006 000350                    ADSC9   TEST_OPEN,,AUTO          cn=0,n=232

      324     7797    1           TEST_OPEN.V_ = VECTOR(TEST_OPEN.V);

PL6.E3A0      #001=VDG$MAIN File=VDG$MAIN.:VDA5TSI                               FRI 07/04/97 11:18 Page:45
   7797  5 000107   000002 235000 6                  LDA     2
         5 000110   200320 452500                    STP2    SINK+2,,AUTO
         5 000111   200320 236100                    LDQ     SINK+2,,AUTO
         5 000112   000052 036003                    ADLQ    42,DU
         5 000113   200006 757100                    STAQ    TEST_OPEN,,AUTO

      325     7798    1           TEST_OPEN.V.DCB# = DCBNUM(M$SI);

   7798  5 000114   000000 236007 xsym               LDQ     M$SI,DL
         5 000115   000000 621006                    EAX1    0,QL
         5 000116   200052 741100                    STX1    TEST_OPEN+36,,AUTO

      326     7799    1           CALL M$OPEN (TEST_OPEN)

   7799  5 000117   200006 630500                    EPPR0   TEST_OPEN,,AUTO
         5 000120   450000 713400                    CLIMB   alt,open
         5 000121   410400 401760                    pmme    nvectors=18
         5 000122   000124 702000 5                  TSX2    s:7801
         5 000123   000124 710000 5                  TRA     s:7801

      327     7800    2           WHENALTRETURN DO; ; END; /* Ignore errors */

      328     7801    2           IF NOT DCBADDR(TEST_OPEN.V.DCB#)->F$DCB.DDEV.IC# THEN DO;

   7801  5 000124   000003 470400 6                  LDP0    3
         5 000125   000000 471500                    LDP1    0,,PR0
         5 000126   200052 220100                    LDX0    TEST_OPEN+36,,AUTO
         5 000127   100000 473510                    LDP3    0,X0,PR1
         5 000130   300004 236100                    LDQ     4,,PR3
         5 000131   100000 316007                    CANQ    32768,DL
         5 000132   000154 601000 5                  TNZ     s:7814

      329     7802    2              CALL VDG$OALLOC (%CLS_CMD_STREAM, SI_STREAM$)

   7802  5 000133   200101 634500                    EPPR4   SI_STREAM$,,AUTO
         5 000134   200321 454500                    STP4    SINK+3,,AUTO
         5 000135   000001 236000 6                  LDQ     1
PL6.E3A0      #001=VDG$MAIN File=VDG$MAIN.:VDA5TSI                               FRI 07/04/97 11:18 Page:46
         5 000136   200320 756100                    STQ     SINK+2,,AUTO
         5 000137   200320 630500                    EPPR0   SINK+2,,AUTO
         5 000140   000020 631400 xsym               EPPR1   B_VECTNIL+16
         5 000141   000000 701000 xent               TSX1    VDG$OALLOC
         5 000142   000015 702000 5                  TSX2    FATAL_ERR

      330     7803    2                ALTRET (FATAL_ERR);
      331     7804    2              SI$STREAM.TYPE# = %CS_DCB;

   7804  5 000143   000004 220003                    LDX0    4,DU
         5 000144   200101 470500                    LDP0    SI_STREAM$,,AUTO
         5 000145   000002 740100                    STX0    2,,PR0

      332     7805    2              SI$STREAM.DCB# = TEST_OPEN.V.DCB#;

   7805  5 000146   200052 221100                    LDX1    TEST_OPEN+36,,AUTO
         5 000147   200101 470500                    LDP0    SI_STREAM$,,AUTO
         5 000150   000024 741100                    STX1    20,,PR0

      333     7806    2              SI$STREAM.ECHO = %TRUE; /* Echo if echoing */

   7806  5 000151   200101 470500                    LDP0    SI_STREAM$,,AUTO
         5 000152   400000 236007                    LDQ     -131072,DL
         5 000153   000027 256100                    ORSQ    23,,PR0

      334     7807    2              END;

      335     7808
      336     7809                /*
      337     7810                *  Push invocation command line, and possible continuation
      338     7811                *      file, on command-stream stack.
      339     7812                */
      340     7813
      341     7814    1           CALL PUSH_INVOK_CMD (INVOCATION_STREAM$) ALTRET (FATAL_ERR);

   7814  5 000154   200102 630500                    EPPR0   INVOCATION_STREAM$,,AUTO
         5 000155   200125 450500                    STP0    ACTUAL_ERR$+3,,AUTO
PL6.E3A0      #001=VDG$MAIN File=VDG$MAIN.:VDA5TSI                               FRI 07/04/97 11:18 Page:47
         5 000156   000504 701000 5                  TSX1    PUSH_INVOK_CMD
         5 000157   000015 702000 5                  TSX2    FATAL_ERR

      342     7815
      343     7816                /*
      344     7817                *  If the user set #1 (M$FILE), push an EDIT command for it.
      345     7818                */
      346     7819
      347     7820    2           IF DCBADDR(DCBNUM(M$FILE))->F$DCB.AMR# AND NOT B$JIT.PRFLAGS.SI THEN DO;

   7820  5 000160   000000 236007 xsym               LDQ     M$FILE,DL
         5 000161   000003 470400 6                  LDP0    3
         5 000162   000000 471500                    LDP1    0,,PR0
         5 000163   100000 473506                    LDP3    0,QL,PR1
         5 000164   300031 236100                    LDQ     25,,PR3
         5 000165   010000 316007                    CANQ    4096,DL
         5 000166   000202 600000 5                  TZE     s:7831
         5 000167   000000 473400 xsym               LDP3    B$JIT$
         5 000170   300030 234100                    SZN     24,,PR3
         5 000171   000202 604000 5                  TMI     s:7831

      348     7821                   /* User set M$FILE DCB */
      349     7822    2              CALL PUSH_EDIT_CMD (DCBNUM(M$FILE), MFILE_STREAM$)

   7822  5 000172   000000 236007 xsym               LDQ     M$FILE,DL
         5 000173   200325 756100                    STQ     SINK+7,,AUTO
         5 000174   200103 634500                    EPPR4   MFILE_STREAM$,,AUTO
         5 000175   200126 454500                    STP4    BUFFER$+1,,AUTO
         5 000176   200325 635500                    EPPR5   SINK+7,,AUTO
         5 000177   200125 455500                    STP5    ACTUAL_ERR$+3,,AUTO
         5 000200   000601 701000 5                  TSX1    PUSH_EDIT_CMD
         5 000201   000015 702000 5                  TSX2    FATAL_ERR

      350     7823    2                ALTRET (FATAL_ERR);
      351     7824    2              END;

      352     7825
PL6.E3A0      #001=VDG$MAIN File=VDG$MAIN.:VDA5TSI                               FRI 07/04/97 11:18 Page:48
      353     7826                /*
      354     7827                *   Search for a context file, and push it onto the command
      355     7828                *       stream stack.
      356     7829                */
      357     7830
      358     7831    1           CALL PUSH_CONTEXT_FILE (CONTEXT_STREAM$, TEST_OPEN)

   7831  5 000202   200006 630500                    EPPR0   TEST_OPEN,,AUTO
         5 000203   200126 450500                    STP0    BUFFER$+1,,AUTO
         5 000204   200104 631500                    EPPR1   CONTEXT_STREAM$,,AUTO
         5 000205   200125 451500                    STP1    ACTUAL_ERR$+3,,AUTO
         5 000206   001010 701000 5                  TSX1    PUSH_CONTEXT_FILE
         5 000207   000015 702000 5                  TSX2    FATAL_ERR

      359     7832    1             ALTRET (FATAL_ERR);
      360     7833    2           IF CONTEXT_STREAM$ ~= ADDR(NIL) THEN DO;

   7833  5 000210   200104 236100                    LDQ     CONTEXT_STREAM$,,AUTO
         5 000211   000001 116000 xsym               CMPQ    B_VECTNIL+1
         5 000212   000230 600000 5                  TZE     s:7843

      361     7834    2              CALL VDI$PREAD_FILE_OPEN

   7834  5 000213   000002 631400 xsym               EPPR1   B_VECTNIL+2
         5 000214   000000 701000 xent               TSX1    VDI$PREAD_FILE_OPEN
         5 000215   000217 702000 5                  TSX2    s:7836
         5 000216   000230 710000 5                  TRA     s:7843

      362     7835    3              WHENALTRETURN DO;

      363     7836    3                 IF FATAL$ERR.ERR ~= %CLEAR THEN

   7836  5 000217   000031 470400 xsym               LDP0    VD_6E+25
         5 000220   000002 235100                    LDA     2,,PR0
         5 000221   000015 601000 5                  TNZ     FATAL_ERR

      364     7837    3                    GOTO FATAL_ERR;
PL6.E3A0      #001=VDG$MAIN File=VDG$MAIN.:VDA5TSI                               FRI 07/04/97 11:18 Page:49
      365     7838    3                 CALL VDG$OFREE (CONTEXT$STREAM) ALTRET (FATAL_ERR);

   7838  5 000222   200104 630500                    EPPR0   CONTEXT_STREAM$,,AUTO
         5 000223   000017 631400 xsym               EPPR1   B_VECTNIL+15
         5 000224   000000 701000 xent               TSX1    VDG$OFREE
         5 000225   000015 702000 5                  TSX2    FATAL_ERR

      366     7839    3                 CONTEXT_STREAM$ = ADDR(NIL);

   7839  5 000226   000001 236000 xsym               LDQ     B_VECTNIL+1
         5 000227   200104 756100                    STQ     CONTEXT_STREAM$,,AUTO

      367     7840    3                 END;

      368     7841    2              END;

      369     7842                /* Build a message identifying the context file we found, if any */
      370     7843    1           CALL VDG$OALLOC (%CLS_ERR, VD_ERR$) ALTRET (FATAL_ERR);

   7843  5 000230   200004 630500                    EPPR0   VD_ERR$,,AUTO
         5 000231   200321 450500                    STP0    SINK+3,,AUTO
         5 000232   000004 236000 6                  LDQ     4
         5 000233   200320 756100                    STQ     SINK+2,,AUTO
         5 000234   200320 630500                    EPPR0   SINK+2,,AUTO
         5 000235   000020 631400 xsym               EPPR1   B_VECTNIL+16
         5 000236   000000 701000 xent               TSX1    VDG$OALLOC
         5 000237   000015 702000 5                  TSX2    FATAL_ERR

      371     7844    2           IF CONTEXT_STREAM$ ~= ADDR(NIL) THEN DO;

   7844  5 000240   200104 236100                    LDQ     CONTEXT_STREAM$,,AUTO
         5 000241   000001 116000 xsym               CMPQ    B_VECTNIL+1
         5 000242   000260 600000 5                  TZE     s:7861

      372     7845    2              VD$ERR.ERR.CODE# = %E$INFO_READING;

   7845  5 000243   200004 470500                    LDP0    VD_ERR$,,AUTO
PL6.E3A0      #001=VDG$MAIN File=VDG$MAIN.:VDA5TSI                               FRI 07/04/97 11:18 Page:50
         5 000244   000002 236100                    LDQ     2,,PR0
         5 000245   000005 376000 6                  ANQ     5
         5 000246   000130 276007                    ORQ     88,DL
         5 000247   000002 756100                    STQ     2,,PR0

      373     7846    2              VD$ERR.FLAGLEV# = %FLV_INFO;

   7846  5 000250   000001 220003                    LDX0    1,DU
         5 000251   200004 470500                    LDP0    VD_ERR$,,AUTO
         5 000252   000003 740100                    STX0    3,,PR0

      374     7847    2              VD$ERR.DCB# = CONTEXT$STREAM.DCB#;

   7847  5 000253   200104 470500                    LDP0    CONTEXT_STREAM$,,AUTO
         5 000254   000024 221100                    LDX1    20,,PR0
         5 000255   200004 471500                    LDP1    VD_ERR$,,AUTO
         5 000256   100004 741100                    STX1    4,,PR1

      375     7848                   /*       !!!!!!!!!  CAUTION  !!!!!!!!!!!
      376     7849                   *  We're stash the DCB # of the context file in the VD$ERR, but we
      377     7850                   *    don't actually report this E$INFO_READING message until after
      378     7851                   *    we (possibly) close the stream--and thereby free the DCB.
      379     7852                   *  This isn't real safe, but we take the chance, assuming that
      380     7853                   *    we won't be allocating any DCBs between the time we close
      381     7854                   *    the context stream and the time we report the E$INFO_READING
      382     7855                   *    message.  (This is only a problem if the context file is
      383     7856                   *    and encoded workspace file; only then do we close it before
      384     7857                   *    reporting E$INFO_READING.)
      385     7858                   */
      386     7859    2              END;

   7859  5 000257   000273 710000 5                  TRA     s:7870

      387     7860    2           ELSE DO;

      388     7861    2              VD$ERR.ERR = B$TCB.ALT$->B$ALT.ERR;

PL6.E3A0      #001=VDG$MAIN File=VDG$MAIN.:VDA5TSI                               FRI 07/04/97 11:18 Page:51
   7861  5 000260   000000 470400 xsym               LDP0    B$TCB$
         5 000261   000000 471500                    LDP1    0,,PR0
         5 000262   100102 236100                    LDQ     66,,PR1
         5 000263   200004 473500                    LDP3    VD_ERR$,,AUTO
         5 000264   300002 756100                    STQ     2,,PR3

      389     7862    2              VD$ERR.FLAGLEV# = %FLV_WARN;

   7862  5 000265   000002 220003                    LDX0    2,DU
         5 000266   200004 471500                    LDP1    VD_ERR$,,AUTO
         5 000267   100003 740100                    STX0    3,,PR1

      390     7863    2              VD$ERR.DCB# = CONTEXT_DCB#;

   7863  5 000270   200003 221100                    LDX1    CONTEXT_DCB#,,AUTO
         5 000271   200004 471500                    LDP1    VD_ERR$,,AUTO
         5 000272   100004 741100                    STX1    4,,PR1

      391     7864    2              END;

      392     7865
      393     7866                /*
      394     7867                * Start out in $SCREEN=2 mode, so that $INITIALIZE can affect
      395     7868                * the building of the command window.
      396     7869                */
      397     7870    1           VD_OLD_$SCREEN = VD_$SCREEN.V#;

   7870  5 000273   000003 235000 xsym               LDA     VD_$SCREEN+3
         5 000274   000000 755000 xsym               STA     VD_OLD_$SCREEN

      398     7871    2           IF VD_OLD_$SCREEN>0 THEN DO;

   7871  5 000275   000303 604400 5                  TMOZ    s:7881

      399     7872    2              CALL VDI$CSET_COUNT (VD_LOC_$SCREEN, 2);

   7872  5 000276   000006 630400 6                  EPPR0   6
PL6.E3A0      #001=VDG$MAIN File=VDG$MAIN.:VDA5TSI                               FRI 07/04/97 11:18 Page:52
         5 000277   000020 631400 xsym               EPPR1   B_VECTNIL+16
         5 000300   000000 701000 xent               TSX1    VDI$CSET_COUNT
         5 000301   000000 011000                    NOP     0

      400     7873    2              VD_$COMMAND.V# = 0; /* Go to editing window automatically */

   7873  5 000302   000003 450000 xsym               STZ     VD_$COMMAND+3

      401     7874    2              END;

      402     7875
      403     7876                /*
      404     7877                *   If we found an encoded workspace file in our search for a context
      405     7878                *       file, initialize the internal workspace from it.
      406     7879                */
      407     7880
      408     7881    1           IF CONTEXT_STREAM$ ~= ADDR(NIL) THEN

   7881  5 000303   200104 236100                    LDQ     CONTEXT_STREAM$,,AUTO
         5 000304   000001 116000 xsym               CMPQ    B_VECTNIL+1
         5 000305   000355 600000 5                  TZE     s:7906

      409     7882    2              IF CONTEXT$STREAM.FILE_TYPE = %CHR_ENCODED_TYPE THEN DO;

   7882  5 000306   200104 470500                    LDP0    CONTEXT_STREAM$,,AUTO
         5 000307   000024 720100                    LXL0    20,,PR0
         5 000310   000244 100000 3                  CMPX0   CONST_FPT_UNFID+22
         5 000311   000355 601000 5                  TNZ     s:7906

      410     7883    2                 LOAD_FLAGS = %CLEAR;

   7883  5 000312   200105 450100                    STZ     LOAD_FLAGS,,AUTO

      411     7884    2                 LOAD_FLAGS.F (%PDFF_EQUALS) = %TRUE;

   7884  5 000313   200000 236003                    LDQ     65536,DU
         5 000314   200105 256100                    ORSQ    LOAD_FLAGS,,AUTO
PL6.E3A0      #001=VDG$MAIN File=VDG$MAIN.:VDA5TSI                               FRI 07/04/97 11:18 Page:53

      412     7885                      /* We can load keyins only if we're timesharing */
      413     7886    2                 IF B$JIT.MODE = %M_INT# THEN

   7886  5 000315   000000 471400 xsym               LDP1    B$JIT$
         5 000316   100000 236100                    LDQ     0,,PR1
         5 000317   740000 376003                    ANQ     -16384,DU
         5 000320   140000 116003                    CMPQ    49152,DU
         5 000321   000324 601000 5                  TNZ     s:7888

      414     7887    2                    LOAD_FLAGS.F (%PDFF_KEYINS) = %TRUE;

   7887  5 000322   100000 236003                    LDQ     32768,DU
         5 000323   200105 256100                    ORSQ    LOAD_FLAGS,,AUTO

      415     7888    2                 LOAD_FLAGS.F (%PDFF_LOCATIONS) = %TRUE;

   7888  5 000324   040000 236003                    LDQ     16384,DU
         5 000325   200105 256100                    ORSQ    LOAD_FLAGS,,AUTO

      416     7889    2                 LOAD_FLAGS.F (%PDFF_SYNONYMS) = %TRUE;

   7889  5 000326   020000 236003                    LDQ     8192,DU
         5 000327   200105 256100                    ORSQ    LOAD_FLAGS,,AUTO

      417     7890        /*N*          LOAD_FLAGS.F (%PDFF_STRUCTURES) = %TRUE; VD_6E points at 'em */
      418     7891    2                 LOAD_FLAGS.F (%PDFF_WINDOWS) = %TRUE;

   7891  5 000330   004000 236003                    LDQ     2048,DU
         5 000331   200105 256100                    ORSQ    LOAD_FLAGS,,AUTO

      419     7892
      420     7893    2                 CALL VDW$LOAD (LOAD_FLAGS)

   7893  5 000332   200105 633500                    EPPR3   LOAD_FLAGS,,AUTO
         5 000333   200320 453500                    STP3    SINK+2,,AUTO
         5 000334   200320 630500                    EPPR0   SINK+2,,AUTO
PL6.E3A0      #001=VDG$MAIN File=VDG$MAIN.:VDA5TSI                               FRI 07/04/97 11:18 Page:54
         5 000335   000017 631400 xsym               EPPR1   B_VECTNIL+15
         5 000336   000000 701000 xent               TSX1    VDW$LOAD
         5 000337   000351 702000 5                  TSX2    s:7902

      421     7894    3                 WHENRETURN DO;

      422     7895        /* If the workspace file failed, keep it on the stack, and let VDI$PDRIVER
      423     7896           clean up.  That way, any additional commands (like an implicit editing
      424     7897           command) will get ignored. */
      425     7898    3                    CALL VDI$PREAD_FILE_CLOSE;

   7898  5 000340   000002 631400 xsym               EPPR1   B_VECTNIL+2
         5 000341   000000 701000 xent               TSX1    VDI$PREAD_FILE_CLOSE
         5 000342   000000 011000                    NOP     0

      426     7899    3                    CALL VDG$OFREE (CONTEXT$STREAM);

   7899  5 000343   200104 630500                    EPPR0   CONTEXT_STREAM$,,AUTO
         5 000344   000017 631400 xsym               EPPR1   B_VECTNIL+15
         5 000345   000000 701000 xent               TSX1    VDG$OFREE
         5 000346   000000 011000                    NOP     0

      427     7900    3                    CONTEXT_STREAM$ = ADDR(NIL);

   7900  5 000347   000001 236000 xsym               LDQ     B_VECTNIL+1
         5 000350   200104 756100                    STQ     CONTEXT_STREAM$,,AUTO

      428     7901    3                    END;

      429     7902    2                 IF VD_$INITIALIZE.LENGTH#>0 THEN

   7902  5 000351   000002 220000 xsym               LDX0    VD_$INITIALIZE+2
         5 000352   000355 604400 5                  TMOZ    s:7906

      430     7903    2                    CALL PUSH_INITIALIZE_CMDS;

   7903  5 000353   002111 701000 5                  TSX1    PUSH_INITIALIZE_CMDS
PL6.E3A0      #001=VDG$MAIN File=VDG$MAIN.:VDA5TSI                               FRI 07/04/97 11:18 Page:55
         5 000354   000000 011000                    NOP     0

      431     7904    2                 END;

      432     7905
      433     7906    1           IF VD_COMMAND_WINDOW$ = ADDR(NIL) THEN

   7906  5 000355   000000 236000 xsym               LDQ     VD_COMMAND_WINDOW$
         5 000356   000001 116000 xsym               CMPQ    B_VECTNIL+1
         5 000357   000444 601000 5                  TNZ     s:7941

      434     7907    2   CREATE_COMMAND_WINDOW: DO;

   7907  5 000360                       CREATE_COMM* null
      435     7908                   /*
      436     7909                   *  We don't have a command window record in the Windows file yet:
      437     7910                   *    create one.  (We could have gotten a command window from a
      438     7911                   *    workspace-type context file.)
      439     7912                   *  If we're coming up screen-editing, the command window in the FEP
      440     7913                   *    will also be created.
      441     7914                   */
      442     7915
      443     7916    2              CALL VDG$OALLOC (%CLS_WINDOW_SPEC, WINDOW_SPEC$)

   7916  5 000360   200117 630500                    EPPR0   WINDOW_SPEC$,,AUTO
         5 000361   200321 450500                    STP0    SINK+3,,AUTO
         5 000362   000011 236000 6                  LDQ     9
         5 000363   200320 756100                    STQ     SINK+2,,AUTO
         5 000364   200320 630500                    EPPR0   SINK+2,,AUTO
         5 000365   000020 631400 xsym               EPPR1   B_VECTNIL+16
         5 000366   000000 701000 xent               TSX1    VDG$OALLOC
         5 000367   000371 702000 5                  TSX2    s:7918
         5 000370   000374 710000 5                  TRA     s:7920

      444     7917    3              WHENALTRETURN DO;

      445     7918    3                 CALL VDG$EREPORT_ERROR;      /* We won't return from this */
PL6.E3A0      #001=VDG$MAIN File=VDG$MAIN.:VDA5TSI                               FRI 07/04/97 11:18 Page:56

   7918  5 000371   000002 631400 xsym               EPPR1   B_VECTNIL+2
         5 000372   000000 701000 xent               TSX1    VDG$EREPORT_ERROR
         5 000373   000000 011000                    NOP     0

      446     7919    3                 END;

      447     7920    2              WINDOW$SPEC.COMMAND = %TRUE;

   7920  5 000374   200117 470500                    LDP0    WINDOW_SPEC$,,AUTO
         5 000375   000400 236003                    LDQ     256,DU
         5 000376   000002 256100                    ORSQ    2,,PR0

      448     7921    2              WINDOW$SPEC.COORDS.LINE# = VD_TOP_LINE;

   7921  5 000377   200117 470500                    LDP0    WINDOW_SPEC$,,AUTO
         5 000400   000000 235000 xsym               LDA     VD_TOP_LINE
         5 000401   000003 755100                    STA     3,,PR0

      449     7922    2              WINDOW$SPEC.COORDS.HEIGHT# = VD_EDITING_HEIGHT;

   7922  5 000402   200117 470500                    LDP0    WINDOW_SPEC$,,AUTO
         5 000403   000000 235000 xsym               LDA     VD_EDITING_HEIGHT
         5 000404   000005 755100                    STA     5,,PR0

      450     7923    2              WSPEC = %CLEAR;

   7923  5 000405   000000 235003                    LDA     0,DU
         5 000406   000000 236003                    LDQ     0,DU
         5 000407   200120 757100                    STAQ    WSPEC,,AUTO

      451     7924    2              WSPEC.TYPE# = %SPT_WINDOW_SPEC;

   7924  5 000410   000006 220003                    LDX0    6,DU
         5 000411   200120 740100                    STX0    WSPEC,,AUTO

      452     7925    2              WSPEC.REP# = %REP_REMOTE;
PL6.E3A0      #001=VDG$MAIN File=VDG$MAIN.:VDA5TSI                               FRI 07/04/97 11:18 Page:57

   7925  5 000412   000002 221003                    LDX1    2,DU
         5 000413   200120 441100                    SXL1    WSPEC,,AUTO

      453     7926    2              WSPEC.V$ = WINDOW_SPEC$;

   7926  5 000414   200117 236100                    LDQ     WINDOW_SPEC$,,AUTO
         5 000415   200121 756100                    STQ     WSPEC+1,,AUTO

      454     7927    2              CALL VDA$LWRITE (WINDOWS$STREAM, COMMAND_WINDOW_LOC, WSPEC)

   7927  5 000416   200120 630500                    EPPR0   WSPEC,,AUTO
         5 000417   200322 450500                    STP0    SINK+4,,AUTO
         5 000420   000012 236000 6                  LDQ     10
         5 000421   000006 235000 xsym               LDA     VD_6E+6
         5 000422   200320 757100                    STAQ    SINK+2,,AUTO
         5 000423   200320 630500                    EPPR0   SINK+2,,AUTO
         5 000424   000021 631400 xsym               EPPR1   B_VECTNIL+17
         5 000425   000000 701000 xent               TSX1    VDA$LWRITE
         5 000426   000015 702000 5                  TSX2    FATAL_ERR

      455     7928    2                ALTRET (FATAL_ERR);
      456     7929    2              CALL VDA$PFLUSH (WINDOWS$STREAM.PORT$->VD$PORT, %TO_PRESENTER)

   7929  5 000427   000006 470400 xsym               LDP0    VD_6E+6
         5 000430   000001 471500                    LDP1    1,,PR0
         5 000431   000013 236000 6                  LDQ     11
         5 000432   200321 756100                    STQ     SINK+3,,AUTO
         5 000433   200320 451500                    STP1    SINK+2,,AUTO
         5 000434   200320 630500                    EPPR0   SINK+2,,AUTO
         5 000435   000020 631400 xsym               EPPR1   B_VECTNIL+16
         5 000436   000000 701000 xent               TSX1    VDA$PFLUSH
         5 000437   000015 702000 5                  TSX2    FATAL_ERR

      457     7930    2                ALTRET (FATAL_ERR);
      458     7931
      459     7932    2              VD_COMMAND_WINDOW$ = WINDOWS$STREAM.PORT$->
PL6.E3A0      #001=VDG$MAIN File=VDG$MAIN.:VDA5TSI                               FRI 07/04/97 11:18 Page:58

   7932  5 000440   000006 470400 xsym               LDP0    VD_6E+6
         5 000441   000001 471500                    LDP1    1,,PR0
         5 000442   100040 236100                    LDQ     32,,PR1
         5 000443   000000 756000 xsym               STQ     VD_COMMAND_WINDOW$

      460     7933    2                VD$PORT.LEVEL.INTERNAL$ (%LVL_LOWER);
      461     7934    2              END CREATE_COMMAND_WINDOW;

      462     7935
      463     7936
      464     7937                /*
      465     7938                *  Now, write any error messages we've accumulated to the command
      466     7939                *    window.
      467     7940                */
      468     7941    2           IF VD_6E.ERR_TAIL$ ~= VD_6E.ERR_HEAD$ THEN DO;

   7941  5 000444   000032 236000 xsym               LDQ     VD_6E+26
         5 000445   000031 116000 xsym               CMPQ    VD_6E+25
         5 000446   000452 600000 5                  TZE     s:7952

      469     7942    2              CALL VDG$EREPORT_ERROR;  /* We WILL come back from this!! */

   7942  5 000447   000002 631400 xsym               EPPR1   B_VECTNIL+2
         5 000450   000000 701000 xent               TSX1    VDG$EREPORT_ERROR
         5 000451   000000 011000                    NOP     0

      470     7943    2              END;

      471     7944
      472     7945
      473     7946                /*
      474     7947                *  If the top command-stream (other than the context file) is a
      475     7948                *    file or a DCB, then open it now.
      476     7949                *  (If the open fails, pop the command-stream and try opening
      477     7950                *    the next; loop til we find one that opens!)
      478     7951                */
PL6.E3A0      #001=VDG$MAIN File=VDG$MAIN.:VDA5TSI                               FRI 07/04/97 11:18 Page:59
      479     7952    2           IF CONTEXT_STREAM$ = ADDR(NIL) THEN DO;

   7952  5 000452   200104 236100                    LDQ     CONTEXT_STREAM$,,AUTO
         5 000453   000001 116000 xsym               CMPQ    B_VECTNIL+1
         5 000454   000503 601000 5                  TNZ     s:7965

      480     7953    3              DO UNTIL SUCCESSFULLY_OPENED;

      481     7954    3                 SUCCESSFULLY_OPENED = %TRUE;

   7954  5 000455   400000 236003                    LDQ     -131072,DU
         5 000456   200116 756100                    STQ     SUCCESSFULLY_OPENED,,AUTO

      482     7955    3                 IF TOP$CMD_STREAM.TYPE# = %CS_FILE

   7955  5 000457   000026 470400 xsym               LDP0    VD_6E+22
         5 000460   000002 220100                    LDX0    2,,PR0
         5 000461   000003 100003                    CMPX0   3,DU
         5 000462   000465 600000 5                  TZE     s:7957
         5 000463   000004 100003                    CMPX0   4,DU
         5 000464   000501 601000 5                  TNZ     s:7964

      483     7956    4                   OR TOP$CMD_STREAM.TYPE# = %CS_DCB THEN DO;

      484     7957    4                    CALL VDI$PREAD_FILE_OPEN

   7957  5 000465   000002 631400 xsym               EPPR1   B_VECTNIL+2
         5 000466   000000 701000 xent               TSX1    VDI$PREAD_FILE_OPEN
         5 000467   000471 702000 5                  TSX2    s:7959
         5 000470   000501 710000 5                  TRA     s:7964

      485     7958    5                    WHENALTRETURN DO;

      486     7959    5                       CALL VDG$OFREE (TOP$CMD_STREAM);

   7959  5 000471   000026 630400 xsym               EPPR0   VD_6E+22
         5 000472   000017 631400 xsym               EPPR1   B_VECTNIL+15
PL6.E3A0      #001=VDG$MAIN File=VDG$MAIN.:VDA5TSI                               FRI 07/04/97 11:18 Page:60
         5 000473   000000 701000 xent               TSX1    VDG$OFREE
         5 000474   000000 011000                    NOP     0

      487     7960    5                       CALL VDG$EREPORT_ERROR;

   7960  5 000475   000002 631400 xsym               EPPR1   B_VECTNIL+2
         5 000476   000000 701000 xent               TSX1    VDG$EREPORT_ERROR
         5 000477   000000 011000                    NOP     0

      488     7961    5                       SUCCESSFULLY_OPENED = %FALSE;

   7961  5 000500   200116 450100                    STZ     SUCCESSFULLY_OPENED,,AUTO

      489     7962    5                       END;

      490     7963    4                    END;

      491     7964    3                 END;

   7964  5 000501   200116 234100                    SZN     SUCCESSFULLY_OPENED,,AUTO
         5 000502   000455 605000 5                  TPL     s:7954

      492     7965    2              END;

   7965  5 000503   002227 710000 5                  TRA     s:10059

      493     7966
      494     7967
      495     7968        %BOX (TITLE=PUSH_INVOK_CMD, PAGE=YES);
              7976    2
              7980    2   /***************************************************************************
              7982    2    *                                                                         *
              7986    2            *                               PUSH_INVOK_CMD                           *
              7988    2            *                                                                        *
              7990    2          ***************************************************************************/

      496     7994
PL6.E3A0      #001=VDG$MAIN File=VDG$MAIN.:VDA5TSI                               FRI 07/04/97 11:18 Page:61
      497     7995        /*I* NAME: PUSH_INVOK_CMD
      498     7996            PARAMETERS:
      499     7997                CMD_STREAM$ - An uninitialized PTR.
      500     7998            INPUT:
      501     7999            OUTPUT:
      502     8000                CMD_STREAM$ will contain either ADDR(NIL); or a pointer to
      503     8001                    CMD$STREAM, whose .RECORD$ points to the invocation command.
      504     8002                If a VD$CMD_STREAM is pushed on the command stream stack,
      505     8003                    then VD_6E.CMD_STREAM$ will be modified.
      506     8004            DESCRIPTION:
      507     8005                If B$JIT.CCBUF holds the invocation command line, copy it to a
      508     8006                    VD$BUFFER.
      509     8007                If the invocation command line resides in an IBEX
      510     8008                    continuation file, just point CMD$STREAM at the file and let
      511     8009                    XUG process the continuation again.
      512     8010                Push a VD$CMD_STREAM pointing to this buffer.  Set the
      513     8011                    CMD$STREAM.POSITION# to point to the first character.
      514     8012        */
      515     8013
      516     8014    1   PUSH_INVOK_CMD: PROC (CMD_STREAM$) ALTRET;

   8014  5 000504   200124 741300       PUSH_INVOK_* STX1  ! ACTUAL_ERR$+2,,AUTO

      517     8015
      518     8016    2   DCL CMD_STREAM$ PTR;
      519     8017
      520     8018
      521     8019    2   DCL INVOK_BUFFER$ PTR;
      522     8020    2   DCL EOF_FLAG BIT(1) ALIGNED;
      523     8021
      524     8022
      525     8023        %VD$CMD_STREAM (NAME=CMD$STREAM, STCLASS="BASED(CMD_STREAM$)");
      526     8062        %VD$BUFFER (NAME=INVOK$BUFFER, STCLASS="BASED(INVOK_BUFFER$)");
      527     8120
      528     8121
      529     8122
      530     8123    2           CALL VDG$OALLOC (%CLS_CMD_STREAM, CMD_STREAM$)
PL6.E3A0      #001=VDG$MAIN File=VDG$MAIN.:VDA5TSI                               FRI 07/04/97 11:18 Page:62

   8123  5 000505   200125 236100                    LDQ     @CMD_STREAM$,,AUTO
         5 000506   000001 235000 6                  LDA     1
         5 000507   200320 757100                    STAQ    SINK+2,,AUTO
         5 000510   200320 630500                    EPPR0   SINK+2,,AUTO
         5 000511   000020 631400 xsym               EPPR1   B_VECTNIL+16
         5 000512   000000 701000 xent               TSX1    VDG$OALLOC
         5 000513   000574 702000 5                  TSX2    OALLOC_FAILED

      531     8124    2             ALTRET (OALLOC_FAILED);
      532     8125
      533     8126    3           IF NOT B$JIT.PRFLAGS.CONTINUED THEN DO;

   8126  5 000514   000000 470400 xsym               LDP0    B$JIT$
         5 000515   000030 430100                    FSZN    24,,PR0
         5 000516   000557 604000 5                  TMI     s:8137

      534     8127    3              CALL VDG$OALLOC (%CLS_BUFFER, INVOK_BUFFER$,

   8127  5 000517   000032 236100                    LDQ     26,,PR0
         5 000520   000022 732000                    QRS     18
         5 000521   000015 036007                    ADLQ    13,DL
         5 000522   000004 506007                    DIV     4,DL
         5 000523   200320 756100                    STQ     SINK+2,,AUTO
         5 000524   200320 631500                    EPPR1   SINK+2,,AUTO
         5 000525   200323 451500                    STP1    SINK+5,,AUTO
         5 000526   200126 633500                    EPPR3   INVOK_BUFFER$,,AUTO
         5 000527   200322 453500                    STP3    SINK+4,,AUTO
         5 000530   000014 236000 6                  LDQ     12
         5 000531   200321 756100                    STQ     SINK+3,,AUTO
         5 000532   200321 630500                    EPPR0   SINK+3,,AUTO
         5 000533   000021 631400 xsym               EPPR1   B_VECTNIL+17
         5 000534   000000 701000 xent               TSX1    VDG$OALLOC
         5 000535   000574 702000 5                  TSX2    OALLOC_FAILED

      535     8128    3                (LENGTHC(VD$BUFFER_HEADER) + B$JIT.CCARS + %NB_PER_WORD - 1) /
      536     8129    3                %NB_PER_WORD)
PL6.E3A0      #001=VDG$MAIN File=VDG$MAIN.:VDA5TSI                               FRI 07/04/97 11:18 Page:63
      537     8130    3                ALTRET (OALLOC_FAILED);
      538     8131    3              INVOK$BUFFER.LENGTH# = B$JIT.CCARS;

   8131  5 000536   000000 470400 xsym               LDP0    B$JIT$
         5 000537   000032 220100                    LDX0    26,,PR0
         5 000540   200126 471500                    LDP1    INVOK_BUFFER$,,AUTO
         5 000541   100002 740100                    STX0    2,,PR1

      539     8132    3              CMD$STREAM.RECORD$ = INVOK_BUFFER$;

   8132  5 000542   200125 471500                    LDP1    @CMD_STREAM$,,AUTO
         5 000543   100000 473500                    LDP3    0,,PR1
         5 000544   200126 236100                    LDQ     INVOK_BUFFER$,,AUTO
         5 000545   300025 756100                    STQ     21,,PR3

      540     8133    3              CMD$STREAM.TYPE# = %CS_BUFFER;

   8133  5 000546   100000 473500                    LDP3    0,,PR1
         5 000547   000001 220003                    LDX0    1,DU
         5 000550   300002 740100                    STX0    2,,PR3

      541     8134    3              INVOK$BUFFER.BYTES = B$JIT.CCBUF;

   8134  5 000551   200126 473500                    LDP3    INVOK_BUFFER$,,AUTO
         5 000552   300002 221100                    LDX1    2,,PR3
         5 000553   040140 100500                    MLR     fill='040'O
         5 000554   000033 000400                    ADSC9   27,,PR0                  cn=0,n=256
         5 000555   300002 400011                    ADSC9   2,,PR3                   cn=2,n=*X1

      542     8135    3              END;

   8135  5 000556   000572 710000 5                  TRA     s:8142

      543     8136    3           ELSE DO;

      544     8137    3              CMD$STREAM.TYPE# = %CS_FILE;

PL6.E3A0      #001=VDG$MAIN File=VDG$MAIN.:VDA5TSI                               FRI 07/04/97 11:18 Page:64
   8137  5 000557   200125 471500                    LDP1    @CMD_STREAM$,,AUTO
         5 000560   100000 473500                    LDP3    0,,PR1
         5 000561   000003 220003                    LDX0    3,DU
         5 000562   300002 740100                    STX0    2,,PR3

      545     8138    3              CMD$STREAM.FILE.LENGTH# = %LENGTHC(%CHR_CONT_CMD_NAME);

   8138  5 000563   100000 473500                    LDP3    0,,PR1
         5 000564   026000 236007                    LDQ     11264,DL
         5 000565   300002 552110                    STBQ    2,'10'O,PR3

      546     8139    3              CMD$STREAM.FILE.BYTES = %CHR_CONT_CMD_NAME;

   8139  5 000566   100000 473500                    LDP3    0,,PR1
         5 000567   040100 100400                    MLR     fill='040'O
         5 000570   000245 000026 3                  ADSC9   CONST_FPT_UNFID+23       cn=0,n=22
         5 000571   300002 600104                    ADSC9   2,,PR3                   cn=3,n=68

      547     8140    3              END;

      548     8141
      549     8142    2           RETURN;

   8142  5 000572   200124 221300                    LDX1  ! ACTUAL_ERR$+2,,AUTO
         5 000573   000001 702211                    TSX2  ! 1,X1

   8132  5 000574                       OALLOC_FAIL* null
      550     8143
      551     8144
      552     8145    2   OALLOC_FAILED: ;
      553     8146    2           CMD_STREAM$ = ADDR(NIL);

   8146  5 000574   000001 236000 xsym               LDQ     B_VECTNIL+1
         5 000575   200125 470500                    LDP0    @CMD_STREAM$,,AUTO
         5 000576   000000 756100                    STQ     0,,PR0

      554     8147    2           ALTRETURN;
PL6.E3A0      #001=VDG$MAIN File=VDG$MAIN.:VDA5TSI                               FRI 07/04/97 11:18 Page:65

   8147  5 000577   200124 221300                    LDX1  ! ACTUAL_ERR$+2,,AUTO
         5 000600   000000 702211                    TSX2  ! 0,X1

      555     8148
      556     8149    2   END PUSH_INVOK_CMD;
      557     8150
      558     8151        %BOX (TITLE=PUSH_EDIT_CMD, PAGE=YES);
              8159    2
              8163    2   /***************************************************************************
              8165    2    *                                                                         *
              8169    2            *                               PUSH_EDIT_CMD                            *
              8171    2            *                                                                        *
              8173    2          ***************************************************************************/

      559     8177
      560     8178        /*I* NAME: PUSH_EDIT_CMD
      561     8179            PARAMETERS:
      562     8180                DCB_TO_EDIT - A WORD containing the DCB # to edit.
      563     8181                CMD_STREAM$ - An uninitialized PTR.
      564     8182            INPUT:
      565     8183            OUTPUT:
      566     8184                CMD_STREAM$ will a pointer to CMD$STREAM, whose .RECORD$ points to an
      567     8185                    InTree for an EDIT command to edit the specified DCB.
      568     8186                If a VD$CMD_STREAM is pushed on the command stream stack,
      569     8187                    then VD_6E.CMD_STREAM$ will be modified.
      570     8188            DESCRIPTION:
      571     8189                Push a VD$CMD_STREAM, and build an InTree for an EDIT command.
      572     8190                The InTree we build is:
      573     8191
      574     8192                    IT_COMMAND w/.CODE = %T_EDIT_CMD
      575     8193                     and .PARAM$(0)->----
      576     8194                                         |
      577     8195                                    IT_BLOCK_EXPR w/.DOMAINN specifying the DCB
      578     8196                                         |
      579     8197                                    IT_SELECT w/.RPT_COUNT of 1
      580     8198                                         |
PL6.E3A0      #001=VDG$MAIN File=VDG$MAIN.:VDA5TSI                               FRI 07/04/97 11:18 Page:66
      581     8199                                    IT_ADJUST
      582     8200                                         |
      583     8201                                    IT_OPERAND w/.CODE = %OPAND_FILE
      584     8202                                     and .OPTIONS.POINT = %PNT_AO
      585     8203
      586     8204                We don't really need the file key in the IT_OPERAND we build, because
      587     8205                the file info is in IT_BLOCK_EXPR.DOMAINN.
      588     8206        */
      589     8207
      590     8208    1   PUSH_EDIT_CMD: PROC (DCB_TO_EDIT, CMD_STREAM$) ALTRET;

   8208  5 000601   200124 741300       PUSH_EDIT_C* STX1  ! ACTUAL_ERR$+2,,AUTO

      591     8209
      592     8210    2   DCL DCB_TO_EDIT SBIN;
      593     8211    2   DCL CMD_STREAM$ PTR;
      594     8212
      595     8213
      596     8214
      597     8215    2   DCL IT_COMMAND$ PTR;
      598     8216    2   DCL IT_BLOCK_EXPR$ PTR;
      599     8217    2   DCL IT_SELECT$ PTR;
      600     8218    2   DCL IT_ADJUST$ PTR;
      601     8219    2   DCL IT_OPERAND$ PTR;
      602     8220    2   DCL EDIT_FILE_KEY$ PTR;
      603     8221
      604     8222
      605     8223        %VD$CMD_STREAM (NAME=CMD$STREAM, STCLASS="BASED(CMD_STREAM$)");
      606     8262        %VD$IT_COMMAND (NAME=IT$COMMAND, STCLASS="BASED(IT_COMMAND$)");
      607     8300        %VD$IT_BLOCK_EXPR (NAME=IT$BLOCK_EXPR, STCLASS="BASED(IT_BLOCK_EXPR$)");
      608     8450        %VD$IT_SELECT (NAME=IT$SELECT, STCLASS="BASED(IT_SELECT$)");
      609     8487        %VD$IT_ADJUST (NAME=IT$ADJUST, STCLASS="BASED(IT_ADJUST$)");
      610     8524        %VD$IT_OPERAND (NAME=IT$OPERAND, STCLASS="BASED(IT_OPERAND$)");
      611     8590        %VD$FILE_KEY (NAME=EDIT$FILE_KEY, STCLASS="BASED(EDIT_FILE_KEY$)");
      612     8639
      613     8640
      614     8641
PL6.E3A0      #001=VDG$MAIN File=VDG$MAIN.:VDA5TSI                               FRI 07/04/97 11:18 Page:67
      615     8642    2           CALL VDG$OALLOC (%CLS_CMD_STREAM, CMD_STREAM$)

   8642  5 000602   200126 236100                    LDQ     @CMD_STREAM$,,AUTO
         5 000603   000001 235000 6                  LDA     1
         5 000604   200320 757100                    STAQ    SINK+2,,AUTO
         5 000605   200320 630500                    EPPR0   SINK+2,,AUTO
         5 000606   000020 631400 xsym               EPPR1   B_VECTNIL+16
         5 000607   000000 701000 xent               TSX1    VDG$OALLOC
         5 000610   001003 702000 5                  TSX2    OALLOC_FAILED

      616     8643    2             ALTRET (OALLOC_FAILED);
      617     8644
      618     8645    2           CMD$STREAM.TYPE# = %CS_BUFFER;

   8645  5 000611   200126 470500                    LDP0    @CMD_STREAM$,,AUTO
         5 000612   000000 471500                    LDP1    0,,PR0
         5 000613   000001 220003                    LDX0    1,DU
         5 000614   100002 740100                    STX0    2,,PR1

      619     8646    2           CALL VDG$OALLOC (%CLS_IT_COMMAND, IT_COMMAND$)

   8646  5 000615   200127 631500                    EPPR1   IT_COMMAND$,,AUTO
         5 000616   200321 451500                    STP1    SINK+3,,AUTO
         5 000617   000016 236000 6                  LDQ     14
         5 000620   200320 756100                    STQ     SINK+2,,AUTO
         5 000621   200320 630500                    EPPR0   SINK+2,,AUTO
         5 000622   000020 631400 xsym               EPPR1   B_VECTNIL+16
         5 000623   000000 701000 xent               TSX1    VDG$OALLOC
         5 000624   001003 702000 5                  TSX2    OALLOC_FAILED

      620     8647    2             ALTRET (OALLOC_FAILED);
      621     8648    2           CMD$STREAM.INTREE$ = IT_COMMAND$;

   8648  5 000625   200126 470500                    LDP0    @CMD_STREAM$,,AUTO
         5 000626   000000 471500                    LDP1    0,,PR0
         5 000627   200127 236100                    LDQ     IT_COMMAND$,,AUTO
         5 000630   100026 756100                    STQ     22,,PR1
PL6.E3A0      #001=VDG$MAIN File=VDG$MAIN.:VDA5TSI                               FRI 07/04/97 11:18 Page:68

      622     8649    2           IT$COMMAND.CODE# = %T_EDIT_CMD;

   8649  5 000631   001752 220003                    LDX0    1002,DU
         5 000632   200127 471500                    LDP1    IT_COMMAND$,,AUTO
         5 000633   100003 740100                    STX0    3,,PR1

      623     8650
      624     8651    2           CALL VDG$OALLOC (%CLS_IT_BLOCK_EXPR, IT_BLOCK_EXPR$)

   8651  5 000634   200130 631500                    EPPR1   IT_BLOCK_EXPR$,,AUTO
         5 000635   200321 451500                    STP1    SINK+3,,AUTO
         5 000636   000020 236000 6                  LDQ     16
         5 000637   200320 756100                    STQ     SINK+2,,AUTO
         5 000640   200320 630500                    EPPR0   SINK+2,,AUTO
         5 000641   000020 631400 xsym               EPPR1   B_VECTNIL+16
         5 000642   000000 701000 xent               TSX1    VDG$OALLOC
         5 000643   001003 702000 5                  TSX2    OALLOC_FAILED

      625     8652    2             ALTRET (OALLOC_FAILED);
      626     8653    2           IT$COMMAND.PARAM$ (0) = IT_BLOCK_EXPR$;

   8653  5 000644   200130 236100                    LDQ     IT_BLOCK_EXPR$,,AUTO
         5 000645   200127 470500                    LDP0    IT_COMMAND$,,AUTO
         5 000646   000006 756100                    STQ     6,,PR0

      627     8654                /*N*
      628     8655                *N*  Need some way to determine--now or later?--if file's keys are
      629     8656                *N*     numeric or string, 'cause BOF is represented differently in
      630     8657                *N*     the two cases.
      631     8658                *N*  For now, assume numeric keys.
      632     8659                *N*/
      633     8660    2           IT$BLOCK_EXPR.DOMAINN.RANGE.START.KEY (%LVL_LOWER-1) =

   8660  5 000647   200130 470500                    LDP0    IT_BLOCK_EXPR$,,AUTO
         5 000650   000100 100400                    MLR     fill='000'O
         5 000651   000000 000010 xsym               ADSC9   VD_KEY_NUMERIC_BOF       cn=0,n=8
PL6.E3A0      #001=VDG$MAIN File=VDG$MAIN.:VDA5TSI                               FRI 07/04/97 11:18 Page:69
         5 000652   000006 000010                    ADSC9   6,,PR0                   cn=0,n=8

      634     8661    2             VD_KEY_NUMERIC_BOF;
      635     8662    2           IT$BLOCK_EXPR.DOMAINN.RANGE.ENDD.EOF = %TRUE;

   8662  5 000653   200130 470500                    LDP0    IT_BLOCK_EXPR$,,AUTO
         5 000654   400000 236007                    LDQ     -131072,DL
         5 000655   000027 256100                    ORSQ    23,,PR0

      636     8663    2           IT$BLOCK_EXPR.OPTIONS.STRUCTURE$ = VD_6E.STRUCTURE_EXTERNAL$;

   8663  5 000656   000010 236000 xsym               LDQ     VD_6E+8
         5 000657   200130 470500                    LDP0    IT_BLOCK_EXPR$,,AUTO
         5 000660   000030 756100                    STQ     24,,PR0

      637     8664    2           IT$BLOCK_EXPR.OPTIONS.LEVEL# = %LVL_EXT_REC;

   8664  5 000661   000001 220003                    LDX0    1,DU
         5 000662   200130 470500                    LDP0    IT_BLOCK_EXPR$,,AUTO
         5 000663   000031 740100                    STX0    25,,PR0

      638     8665    2           IT$BLOCK_EXPR.OPTIONS.COMPONENT# = %CO_DATA;

   8665  5 000664   000003 221003                    LDX1    3,DU
         5 000665   200130 470500                    LDP0    IT_BLOCK_EXPR$,,AUTO
         5 000666   000031 441100                    SXL1    25,,PR0

      639     8666    2           IT$BLOCK_EXPR.OPTIONS.PROTECT# = %DONT_PROTECT;

   8666  5 000667   000002 222003                    LDX2    2,DU
         5 000670   200130 470500                    LDP0    IT_BLOCK_EXPR$,,AUTO
         5 000671   000032 742100                    STX2    26,,PR0

      640     8667    2           IT$BLOCK_EXPR.OPTIONS.EXIST# = %EX_OLD;

   8667  5 000672   200130 470500                    LDP0    IT_BLOCK_EXPR$,,AUTO
         5 000673   000032 442100                    SXL2    26,,PR0
PL6.E3A0      #001=VDG$MAIN File=VDG$MAIN.:VDA5TSI                               FRI 07/04/97 11:18 Page:70

      641     8668    2           IT$BLOCK_EXPR.DOMAINN.FILE_KEY.TYPE# = %KT_STRING;

   8668  5 000674   200130 470500                    LDP0    IT_BLOCK_EXPR$,,AUTO
         5 000675   000004 742100                    STX2    4,,PR0

      642     8669    2           IT$BLOCK_EXPR.DOMAINN.FILE_KEY.REP# = %REP_REMOTE;

   8669  5 000676   200130 470500                    LDP0    IT_BLOCK_EXPR$,,AUTO
         5 000677   000004 442100                    SXL2    4,,PR0

      643     8670
      644     8671    2           CALL VDG$OALLOC (%CLS_FILE_KEY, EDIT_FILE_KEY$)

   8671  5 000700   200134 630500                    EPPR0   EDIT_FILE_KEY$,,AUTO
         5 000701   200321 450500                    STP0    SINK+3,,AUTO
         5 000702   000022 236000 6                  LDQ     18
         5 000703   200320 756100                    STQ     SINK+2,,AUTO
         5 000704   200320 630500                    EPPR0   SINK+2,,AUTO
         5 000705   000020 631400 xsym               EPPR1   B_VECTNIL+16
         5 000706   000000 701000 xent               TSX1    VDG$OALLOC
         5 000707   001003 702000 5                  TSX2    OALLOC_FAILED

      645     8672    2             ALTRET (OALLOC_FAILED);
      646     8673    2           IT$BLOCK_EXPR.DOMAINN.FILE_KEY.V$ = EDIT_FILE_KEY$;

   8673  5 000710   200134 236100                    LDQ     EDIT_FILE_KEY$,,AUTO
         5 000711   200130 470500                    LDP0    IT_BLOCK_EXPR$,,AUTO
         5 000712   000005 756100                    STQ     5,,PR0

      647     8674    2           EDIT$FILE_KEY.DCB# = DCB_TO_EDIT;

   8674  5 000713   200125 470500                    LDP0    @DCB_TO_EDIT,,AUTO
         5 000714   000000 720100                    LXL0    0,,PR0
         5 000715   200134 471500                    LDP1    EDIT_FILE_KEY$,,AUTO
         5 000716   100021 740100                    STX0    17,,PR1

PL6.E3A0      #001=VDG$MAIN File=VDG$MAIN.:VDA5TSI                               FRI 07/04/97 11:18 Page:71
      648     8675
      649     8676    2           CALL VDG$OALLOC (%CLS_IT_SELECT, IT_SELECT$)

   8676  5 000717   200131 631500                    EPPR1   IT_SELECT$,,AUTO
         5 000720   200321 451500                    STP1    SINK+3,,AUTO
         5 000721   000024 236000 6                  LDQ     20
         5 000722   200320 756100                    STQ     SINK+2,,AUTO
         5 000723   200320 630500                    EPPR0   SINK+2,,AUTO
         5 000724   000020 631400 xsym               EPPR1   B_VECTNIL+16
         5 000725   000000 701000 xent               TSX1    VDG$OALLOC
         5 000726   001003 702000 5                  TSX2    OALLOC_FAILED

      650     8677    2             ALTRET (OALLOC_FAILED);
      651     8678    2           IT$BLOCK_EXPR.SELECTS$ = IT_SELECT$;

   8678  5 000727   200131 236100                    LDQ     IT_SELECT$,,AUTO
         5 000730   200130 470500                    LDP0    IT_BLOCK_EXPR$,,AUTO
         5 000731   000035 756100                    STQ     29,,PR0

      652     8679    2           IT$BLOCK_EXPR.SELECTS_TAIL$ = IT_SELECT$;

   8679  5 000732   200131 236100                    LDQ     IT_SELECT$,,AUTO
         5 000733   200130 470500                    LDP0    IT_BLOCK_EXPR$,,AUTO
         5 000734   000036 756100                    STQ     30,,PR0

      653     8680    2           IT$SELECT.RPT_COUNT# = 1;

   8680  5 000735   000001 220003                    LDX0    1,DU
         5 000736   200131 470500                    LDP0    IT_SELECT$,,AUTO
         5 000737   000003 440100                    SXL0    3,,PR0

      654     8681
      655     8682    2           CALL VDG$OALLOC (%CLS_IT_ADJUST, IT_ADJUST$)

   8682  5 000740   200132 630500                    EPPR0   IT_ADJUST$,,AUTO
         5 000741   200321 450500                    STP0    SINK+3,,AUTO
         5 000742   000026 236000 6                  LDQ     22
PL6.E3A0      #001=VDG$MAIN File=VDG$MAIN.:VDA5TSI                               FRI 07/04/97 11:18 Page:72
         5 000743   200320 756100                    STQ     SINK+2,,AUTO
         5 000744   200320 630500                    EPPR0   SINK+2,,AUTO
         5 000745   000020 631400 xsym               EPPR1   B_VECTNIL+16
         5 000746   000000 701000 xent               TSX1    VDG$OALLOC
         5 000747   001003 702000 5                  TSX2    OALLOC_FAILED

      656     8683    2             ALTRET (OALLOC_FAILED);
      657     8684    2           IT$SELECT.ADJUSTS$ = IT_ADJUST$;

   8684  5 000750   200132 236100                    LDQ     IT_ADJUST$,,AUTO
         5 000751   200131 470500                    LDP0    IT_SELECT$,,AUTO
         5 000752   000004 756100                    STQ     4,,PR0

      658     8685    2           IT$SELECT.ADJUSTS_TAIL$ = IT_ADJUST$;

   8685  5 000753   200132 236100                    LDQ     IT_ADJUST$,,AUTO
         5 000754   200131 470500                    LDP0    IT_SELECT$,,AUTO
         5 000755   000005 756100                    STQ     5,,PR0

      659     8686
      660     8687    2           CALL VDG$OALLOC (%CLS_IT_OPERAND, IT_OPERAND$)

   8687  5 000756   200133 630500                    EPPR0   IT_OPERAND$,,AUTO
         5 000757   200321 450500                    STP0    SINK+3,,AUTO
         5 000760   000030 236000 6                  LDQ     24
         5 000761   200320 756100                    STQ     SINK+2,,AUTO
         5 000762   200320 630500                    EPPR0   SINK+2,,AUTO
         5 000763   000020 631400 xsym               EPPR1   B_VECTNIL+16
         5 000764   000000 701000 xent               TSX1    VDG$OALLOC
         5 000765   001003 702000 5                  TSX2    OALLOC_FAILED

      661     8688    2             ALTRET (OALLOC_FAILED);
      662     8689    2           IT$ADJUST.MOVEMENTS$ = IT_OPERAND$;

   8689  5 000766   200133 236100                    LDQ     IT_OPERAND$,,AUTO
         5 000767   200132 470500                    LDP0    IT_ADJUST$,,AUTO
         5 000770   000004 756100                    STQ     4,,PR0
PL6.E3A0      #001=VDG$MAIN File=VDG$MAIN.:VDA5TSI                               FRI 07/04/97 11:18 Page:73

      663     8690    2           IT$ADJUST.MOVEMENTS_TAIL$ = IT_OPERAND$;

   8690  5 000771   200133 236100                    LDQ     IT_OPERAND$,,AUTO
         5 000772   200132 470500                    LDP0    IT_ADJUST$,,AUTO
         5 000773   000005 756100                    STQ     5,,PR0

      664     8691    2           IT$OPERAND.CODE# = %OPAND_FILE;

   8691  5 000774   000001 220003                    LDX0    1,DU
         5 000775   200133 470500                    LDP0    IT_OPERAND$,,AUTO
         5 000776   000003 740100                    STX0    3,,PR0

      665     8692    2           IT$OPERAND.OPTIONS.POINT# = %PNT_AO;

   8692  5 000777   200133 470500                    LDP0    IT_OPERAND$,,AUTO
         5 001000   000005 740100                    STX0    5,,PR0

      666     8693
      667     8694    2           RETURN;

   8694  5 001001   200124 221300                    LDX1  ! ACTUAL_ERR$+2,,AUTO
         5 001002   000001 702211                    TSX2  ! 1,X1

      668     8695
      669     8696
      670     8697    2   OALLOC_FAILED:
      671     8698    2           CMD_STREAM$ = ADDR(NIL);

   8698  5 001003   000001 236000 xsym  OALLOC_FAIL* LDQ     B_VECTNIL+1
         5 001004   200126 470500                    LDP0    @CMD_STREAM$,,AUTO
         5 001005   000000 756100                    STQ     0,,PR0

      672     8699    2           ALTRETURN;

   8699  5 001006   200124 221300                    LDX1  ! ACTUAL_ERR$+2,,AUTO
         5 001007   000000 702211                    TSX2  ! 0,X1
PL6.E3A0      #001=VDG$MAIN File=VDG$MAIN.:VDA5TSI                               FRI 07/04/97 11:18 Page:74

      673     8700
      674     8701    2   END PUSH_EDIT_CMD;
      675     8702
      676     8703        %BOX (TITLE=PUSH_CONTEXT_FILE, PAGE=YES);
              8711    2
              8715    2   /***************************************************************************
              8717    2    *                                                                         *
              8721    2            *                             PUSH_CONTEXT_FILE                          *
              8723    2            *                                                                        *
              8725    2          ***************************************************************************/

      677     8729
      678     8730        /*I* NAME: PUSH_CONTEXT_FILE
      679     8731            PARAMETERS:
      680     8732                CMD_STREAM$ - An uninitialized PTR.
      681     8733                TEST_OPEN - FPT_OPEN with TEST=YES and FUN=IN.
      682     8734            INPUT:
      683     8735            OUTPUT:
      684     8736                CMD_STREAM$ will contain either ADDR(NIL), or a pointer to
      685     8737                    a CMD$STREAM allocated for the context file.
      686     8738                CMD$STREAM.DCB# will contain the number of a DCB which is assigned to
      687     8739                    (but NOT open to) the found context file.
      688     8740                If a VD$CMD_STREAM is pushed on the command stream stack,
      689     8741                    then VD_6E.CMD_STREAM$ will be modified.
      690     8742            SCRATCH:
      691     8743                TEST_OPEN will be mucked with.
      692     8744            DESCRIPTION:
      693     8745                Search for a context file; if we find one, push a VD$CMD_STREAM for
      694     8746                it onto the command stream stack.
      695     8747        */
      696     8748
      697     8749    1   PUSH_CONTEXT_FILE: PROC (CMD_STREAM$, TEST_OPEN) ALTRET;

   8749  5 001010   200124 741300       PUSH_CONTEX* STX1  ! ACTUAL_ERR$+2,,AUTO

      698     8750
PL6.E3A0      #001=VDG$MAIN File=VDG$MAIN.:VDA5TSI                               FRI 07/04/97 11:18 Page:75
      699     8751    2   DCL CMD_STREAM$ PTR;
      700     8752        %FPT_OPEN (FPTN=TEST_OPEN, STCLASS=PARAM);
      701     8861
      702     8862
      703     8863
      704     8864        %FPT_GLINEATTR (STCLASS=CONSTANT, DCB=M$UC, LINEATTR=LINEATTR);
      705     8889        %VLP_LINEATTR (FPTN=LINEATTR, STCLASS=STATIC);
      706     8911        %FPT_CMDVAR (FPTN=CONST_FPT_CMDVAR, STCLASS=CONSTANT,
      707     8912           FUN=FETCH, NAME=CMDVAR_NAME);
      708     8929        %VD_TEXTC (NAME=CMDVAR_NAME, STCLASS=CONSTANT, IBYTES=%CHR_CMDVAR_NAME);
      709     9070        %FPT_FID (FPTN=CONST_FPT_FID, STCLASS=CONSTANT);
      710     9093        %FPT_UNFID (FPTN=CONST_FPT_UNFID, STCLASS=CONSTANT);
      711     9111
      712     9112
      713     9113        %FPT_CMDVAR (STCLASS=AUTO);
      714     9130        %FPT_FID (STCLASS=AUTO);
      715     9153        %FPT_UNFID (STCLASS=AUTO);
      716     9171        %VD_TEXTC (NAME=CONTEXT_NAME, STCLASS=AUTO, MXNB=%MXNB_FILE_NAME);
      717     9312        %VD_TEXTC (NAME=PROFILED_NAME, STCLASS=AUTO, MXNB=%MXNB_FILE_NAME);
      718     9453    2   DCL CONTEXT_ACCT (0:%MX_CONTEXT_ACCT_LIST) CHAR(%MXNB_FILE_ACCT);
      719     9454        %VLP_PASS (FPTN=CONTEXT_PASS, STCLASS=AUTO);
      720     9467        %VLP_SN (FPTN=CONTEXT_SN, STCLASS=AUTO);
      721     9480        %VLP_WSN (FPTN=CONTEXT_WSN, STCLASS=AUTO);
      722     9493    2   DCL UNAME_INDEX SBIN;
      723     9494    2   DCL PROFILE_INDEX SBIN;
      724     9495        %VD_TEXTC (NAME=TEMP_NAME, STCLASS=AUTO, MXNB=MXNB_FILE_NAME);
      725     9636    2   DCL TEMP_ACCT CHAR(%MXNB_FILE_ACCT) ALIGNED;
      726     9637    2   DCL ACCT SBIN;
      727     9638    2   DCL MAXACCT SBIN;
      728     9639    2   DCL FOUND_CONTEXT_FILE BIT(1) ALIGNED;
      729     9640    2   DCL LAST_NON_BLANK SBIN;
      730     9641    2   DCL SINK SBIN;
      731     9642
      732     9643
      733     9644
      734     9645        %VD$CMD_STREAM (NAME=CMD$STREAM, STCLASS="BASED(CMD_STREAM$)");
      735     9684    2   DCL UNFID$FID CHAR(%MXNB_NAME_VALUE) BASED;
PL6.E3A0      #001=VDG$MAIN File=VDG$MAIN.:VDA5TSI                               FRI 07/04/97 11:18 Page:76
      736     9685        %VD$TEXTC;
      737     9708
      738     9709
      739     9710
      740     9711    2           CMD_STREAM$ = ADDR(NIL);

   9711  5 001011   000001 236000 xsym               LDQ     B_VECTNIL+1
         5 001012   200125 470500                    LDP0    @CMD_STREAM$,,AUTO
         5 001013   000000 756100                    STQ     0,,PR0

      741     9712
      742     9713    2           CALL VDG$OALLOC_DCB (CONTEXT_DCB#)

   9713  5 001014   200003 631500                    EPPR1   CONTEXT_DCB#,,AUTO
         5 001015   200320 451500                    STP1    SINK+2,,AUTO
         5 001016   200320 630500                    EPPR0   SINK+2,,AUTO
         5 001017   000017 631400 xsym               EPPR1   B_VECTNIL+15
         5 001020   000000 701000 xent               TSX1    VDG$OALLOC_DCB
         5 001021   001023 702000 5                  TSX2    s:9714
         5 001022   001025 710000 5                  TRA     s:9715

      743     9714    3           WHENALTRETURN DO; ALTRETURN; END;

   9714  5 001023   200124 221300                    LDX1  ! ACTUAL_ERR$+2,,AUTO
         5 001024   000000 702211                    TSX2  ! 0,X1

      744     9715    2           TEST_OPEN.V.DCB# = CONTEXT_DCB#;

   9715  5 001025   200003 220100                    LDX0    CONTEXT_DCB#,,AUTO
         5 001026   200126 470500                    LDP0    @TEST_OPEN,,AUTO
         5 001027   000044 740100                    STX0    36,,PR0

      745     9716    2           TEST_OPEN.V.ASN# = %FILE#;

   9716  5 001030   000001 236007                    LDQ     1,DL
         5 001031   000045 552104                    STBQ    37,'04'O,PR0

PL6.E3A0      #001=VDG$MAIN File=VDG$MAIN.:VDA5TSI                               FRI 07/04/97 11:18 Page:77
      746     9717    2           TEST_OPEN.V.INITZ.SCRUB# = %TRUE;

   9717  5 001032   400000 236007                    LDQ     -131072,DL
         5 001033   000044 256100                    ORSQ    36,,PR0

      747     9718
      748     9719    3           IF B$JIT.MODE = %M_INT# THEN DO;

   9719  5 001034   000000 471400 xsym               LDP1    B$JIT$
         5 001035   100000 236100                    LDQ     0,,PR1
         5 001036   740000 376003                    ANQ     -16384,DU
         5 001037   140000 116003                    CMPQ    49152,DU
         5 001040   001046 601000 5                  TNZ     s:9724

      749     9720    3              CALL M$GLINEATTR (FPT_GLINEATTR)

   9720  5 001041   000134 630400 3                  EPPR0   FPT_GLINEATTR
         5 001042   560005 713400                    CLIMB   alt,+57349
         5 001043   401000 401760                    pmme    nvectors=3
         5 001044   002057 702000 5                  TSX2    OPEN_FAILED

      750     9721    3                ALTRET (GLINEATTR_FAILED);
      751     9722    3              END;

   9722  5 001045   001050 710000 5                  TRA     s:9726

      752     9723    2           ELSE
      753     9724    2              LINEATTR.PROTXTC.CNT = 0;

   9724  5 001046   000000 236003                    LDQ     0,DU
         5 001047   000002 552040 4                  STBQ    LINEATTR+2,'40'O

      754     9725
      755     9726    2           FPT_CMDVAR = CONST_FPT_CMDVAR;

   9726  5 001050   000100 100400                    MLR     fill='000'O
         5 001051   000144 000070 3                  ADSC9   CONST_FPT_CMDVAR         cn=0,n=56
PL6.E3A0      #001=VDG$MAIN File=VDG$MAIN.:VDA5TSI                               FRI 07/04/97 11:18 Page:78
         5 001052   200130 000070                    ADSC9   FPT_CMDVAR,,AUTO         cn=0,n=56

      756     9727    2           FPT_CMDVAR.V_ = VECTOR(FPT_CMDVAR.V);

   9727  5 001053   000031 235000 6                  LDA     25
         5 001054   200320 452500                    STP2    SINK+2,,AUTO
         5 001055   200320 236100                    LDQ     SINK+2,,AUTO
         5 001056   000144 036003                    ADLQ    100,DU
         5 001057   200130 757100                    STAQ    FPT_CMDVAR,,AUTO

      757     9728    2           FPT_CMDVAR.VALUE_ = VECTOR(VD_STATIC_TEMP);

   9728  5 001060   000032 237000 6                  LDAQ    26
         5 001061   200134 757100                    STAQ    EDIT_FILE_KEY$,,AUTO

      758     9729    2           CALL M$CMDVAR (FPT_CMDVAR)

   9729  5 001062   200130 630500                    EPPR0   FPT_CMDVAR,,AUTO
         5 001063   420025 713400                    CLIMB   alt,+8213
         5 001064   402400 401760                    pmme    nvectors=6
         5 001065   001067 702000 5                  TSX2    s:9731
         5 001066   001077 710000 5                  TRA     s:9736

      759     9730    3           WHENALTRETURN DO;

      760     9731    3              IF B$TCB.ALT$->B$ALT.ERR.CODE ~= %E$NOTCMDNAME THEN

   9731  5 001067   000000 470400 xsym               LDP0    B$TCB$
         5 001070   000000 471500                    LDP1    0,,PR0
         5 001071   100102 236100                    LDQ     66,,PR1
         5 001072   377770 376007                    ANQ     131064,DL
         5 001073   015050 116007                    CMPQ    6696,DL
         5 001074   002057 601000 5                  TNZ     OPEN_FAILED

      761     9732    3                 GOTO CMDVAR_FAILED;
      762     9733    3              VD_STATIC_TEMP.LENGTH# = 0;

PL6.E3A0      #001=VDG$MAIN File=VDG$MAIN.:VDA5TSI                               FRI 07/04/97 11:18 Page:79
   9733  5 001075   000000 236003                    LDQ     0,DU
         5 001076   000000 552040 xsym               STBQ    VD_STATIC_TEMP,'40'O

      763     9734    3              END;

      764     9735                /* Assume default name and acct */
      765     9736    2           CONTEXT_NAME.LENGTH# = LENGTHC(%CHR_CONTEXT_NAME);

   9736  5 001077   020000 236003                    LDQ     8192,DU
         5 001100   200224 552140                    STBQ    CONTEXT_NAME,'40'O,AUTO

      766     9737    2           CONTEXT_NAME.BYTES = %CHR_CONTEXT_NAME;

   9737  5 001101   040100 100400                    MLR     fill='040'O
         5 001102   000253 000020 3                  ADSC9   CONST_FPT_UNFID+29       cn=0,n=16
         5 001103   200224 200037                    ADSC9   CONTEXT_NAME,,AUTO       cn=1,n=31

      767     9738    2           CONTEXT_ACCT (0) = ' '; /* Try !DIR account first */

   9738  5 001104   000035 235000 xsym               LDA     B_VECTNIL+29
         5 001105   000035 236000 xsym               LDQ     B_VECTNIL+29
         5 001106   200244 757100                    STAQ    CONTEXT_ACCT,,AUTO

      768     9739    2           CONTEXT_ACCT (1) = B$JIT.ACCN;   /* Then user's logon account */

   9739  5 001107   000000 470400 xsym               LDP0    B$JIT$
         5 001110   040100 100500                    MLR     fill='040'O
         5 001111   000001 000010                    ADSC9   1,,PR0                   cn=0,n=8
         5 001112   200246 000010                    ADSC9   CONTEXT_ACCT+2,,AUTO     cn=0,n=8

      769     9740    2           CONTEXT_ACCT (2) = %CHR_LIBRARY_ACCT;    /* Finally, the library */

   9740  5 001113   040100 100400                    MLR     fill='040'O
         5 001114   000257 000010 3                  ADSC9   CONST_FPT_UNFID+33       cn=0,n=8
         5 001115   200250 000010                    ADSC9   CONTEXT_ACCT+4,,AUTO     cn=0,n=8

      770     9741    2           MAXACCT = 3;
PL6.E3A0      #001=VDG$MAIN File=VDG$MAIN.:VDA5TSI                               FRI 07/04/97 11:18 Page:80

   9741  5 001116   000003 235007                    LDA     3,DL
         5 001117   200313 755100                    STA     MAXACCT,,AUTO

      771     9742
      772     9743    2           IF VD_STATIC_TEMP.LENGTH# ~= 0 THEN

   9743  5 001120   000000 236000 xsym               LDQ     VD_STATIC_TEMP
         5 001121   777000 316003                    CANQ    -512,DU
         5 001122   001454 600000 5                  TZE     s:9815

      773     9744    3   GOT_CMDVAR_VALUE: DO;

   9744  5 001123                       GOT_CMDVAR_* null
      774     9745                   /* Command variable has a value:  M$FID it to get its parts */
      775     9746    3              FPT_FID = CONST_FPT_FID;

   9746  5 001123   000100 100400                    MLR     fill='000'O
         5 001124   000166 000140 3                  ADSC9   CONST_FPT_FID            cn=0,n=96
         5 001125   200146 000140                    ADSC9   FPT_FID,,AUTO            cn=0,n=96

      776     9747    3              FPT_FID.V_ = VECTOR(FPT_FID.V);

   9747  5 001126   000034 235000 6                  LDA     28
         5 001127   200320 452500                    STP2    SINK+2,,AUTO
         5 001130   200320 236100                    LDQ     SINK+2,,AUTO
         5 001131   000172 036003                    ADLQ    122,DU
         5 001132   200146 757100                    STAQ    FPT_FID,,AUTO

      777     9748    3              FPT_FID.TEXTFID_ = VECTOR(SUBSTR(VD_STATIC_TEMP.BYTES, 0,

   9748  5 001133   000000 236000 xsym               LDQ     VD_STATIC_TEMP
         5 001134   000033 772000                    QRL     27
         5 001135   000064 737000                    LLS     52
         5 001136   000140 135007                    SBLA    96,DL
         5 001137   000035 236000 6                  LDQ     29
         5 001140   200150 757100                    STAQ    FPT_FID+2,,AUTO
PL6.E3A0      #001=VDG$MAIN File=VDG$MAIN.:VDA5TSI                               FRI 07/04/97 11:18 Page:81

      778     9749    3                VD_STATIC_TEMP.LENGTH#));
      779     9750    3              FPT_FID.NAME_ = VECTOR(TEMP_NAME);

   9750  5 001141   000036 235000 6                  LDA     30
         5 001142   200320 452500                    STP2    SINK+2,,AUTO
         5 001143   200320 236100                    LDQ     SINK+2,,AUTO
         5 001144   000300 036003                    ADLQ    192,DU
         5 001145   200152 757100                    STAQ    FPT_FID+4,,AUTO

      780     9751    3              FPT_FID.ACCT_ = VECTOR(TEMP_ACCT);

   9751  5 001146   000031 235000 6                  LDA     25
         5 001147   200320 452500                    STP2    SINK+2,,AUTO
         5 001150   200320 236100                    LDQ     SINK+2,,AUTO
         5 001151   000310 036003                    ADLQ    200,DU
         5 001152   200154 757100                    STAQ    FPT_FID+6,,AUTO

      781     9752    3              FPT_FID.PASS_ = VECTOR(CONTEXT_PASS);

   9752  5 001153   000031 235000 6                  LDA     25
         5 001154   200320 452500                    STP2    SINK+2,,AUTO
         5 001155   200320 236100                    LDQ     SINK+2,,AUTO
         5 001156   000266 036003                    ADLQ    182,DU
         5 001157   200156 757100                    STAQ    FPT_FID+8,,AUTO

      782     9753    3              FPT_FID.SN_ = VECTOR(CONTEXT_SN);

   9753  5 001160   000034 235000 6                  LDA     28
         5 001161   200320 452500                    STP2    SINK+2,,AUTO
         5 001162   200320 236100                    LDQ     SINK+2,,AUTO
         5 001163   000270 036003                    ADLQ    184,DU
         5 001164   200160 757100                    STAQ    FPT_FID+10,,AUTO

      783     9754    3              FPT_FID.WSN_ = VECTOR(CONTEXT_WSN);

   9754  5 001165   000031 235000 6                  LDA     25
PL6.E3A0      #001=VDG$MAIN File=VDG$MAIN.:VDA5TSI                               FRI 07/04/97 11:18 Page:82
         5 001166   200320 452500                    STP2    SINK+2,,AUTO
         5 001167   200320 236100                    LDQ     SINK+2,,AUTO
         5 001170   000274 036003                    ADLQ    188,DU
         5 001171   200162 757100                    STAQ    FPT_FID+12,,AUTO

      784     9755    3              FPT_FID.ASN_ = VECTOR(TEST_OPEN.V.ASN#);

   9755  5 001172   177640 235007                    LDA     65440,DL
         5 001173   200126 236100                    LDQ     @TEST_OPEN,,AUTO
         5 001174   000037 036000 6                  ADLQ    31
         5 001175   200164 757100                    STAQ    FPT_FID+14,,AUTO

      785     9756    3              FPT_FID.RES_ = VECTOR(TEST_OPEN.V.RES#);

   9756  5 001176   777640 235007                    LDA     -96,DL
         5 001177   200126 236100                    LDQ     @TEST_OPEN,,AUTO
         5 001200   000050 036003                    ADLQ    40,DU
         5 001201   200166 757100                    STAQ    FPT_FID+16,,AUTO

      786     9757    3              CALL M$FID (FPT_FID)

   9757  5 001202   200146 630500                    EPPR0   FPT_FID,,AUTO
         5 001203   420001 713400                    CLIMB   alt,+8193
         5 001204   404400 401760                    pmme    nvectors=10
         5 001205   002072 702000 5                  TSX2    FID_FAILED

      787     9758    3                ALTRET (FID_FAILED);
      788     9759    3              TEST_OPEN.PASS_ = VECTOR(CONTEXT_PASS);

   9759  5 001206   000031 235000 6                  LDA     25
         5 001207   200320 452500                    STP2    SINK+2,,AUTO
         5 001210   200320 236100                    LDQ     SINK+2,,AUTO
         5 001211   000266 036003                    ADLQ    182,DU
         5 001212   200126 470500                    LDP0    @TEST_OPEN,,AUTO
         5 001213   000010 757100                    STAQ    8,,PR0

      789     9760    3              TEST_OPEN.SN_ = VECTOR(CONTEXT_SN);
PL6.E3A0      #001=VDG$MAIN File=VDG$MAIN.:VDA5TSI                               FRI 07/04/97 11:18 Page:83

   9760  5 001214   000034 235000 6                  LDA     28
         5 001215   200320 452500                    STP2    SINK+2,,AUTO
         5 001216   200320 236100                    LDQ     SINK+2,,AUTO
         5 001217   000270 036003                    ADLQ    184,DU
         5 001220   000002 757100                    STAQ    2,,PR0

      790     9761    3              TEST_OPEN.WSN_ = VECTOR(CONTEXT_WSN);

   9761  5 001221   000031 235000 6                  LDA     25
         5 001222   200320 452500                    STP2    SINK+2,,AUTO
         5 001223   200320 236100                    LDQ     SINK+2,,AUTO
         5 001224   000274 036003                    ADLQ    188,DU
         5 001225   000032 757100                    STAQ    26,,PR0

      791     9762
      792     9763    3              IF TEMP_NAME.LENGTH# > 0 THEN

   9763  5 001226   200300 236100                    LDQ     TEMP_NAME,,AUTO
         5 001227   777000 316003                    CANQ    -512,DU
         5 001230   001445 600000 5                  TZE     s:9809

      793     9764    4   CMDVAR_VALUE_HAS_NAME: DO;

   9764  5 001231                       CMDVAR_VALU* null
      794     9765    4                 CONTEXT_NAME = TEMP_NAME;

   9765  5 001231   000100 100500                    MLR     fill='000'O
         5 001232   200300 000040                    ADSC9   TEMP_NAME,,AUTO          cn=0,n=32
         5 001233   200224 000040                    ADSC9   CONTEXT_NAME,,AUTO       cn=0,n=32

      795     9766                      /* If name has %SETUP_FN_USER in it, substitute user's name */
      796     9767    4                 CALL XLATE (VD_STATIC_TEMP.BYTES, B$XL_UPPER,

   9767  5 001234   200224 236100                    LDQ     CONTEXT_NAME,,AUTO
         5 001235   000033 772000                    QRL     27
         5 001236   000000 620006                    EAX0    0,QL
PL6.E3A0      #001=VDG$MAIN File=VDG$MAIN.:VDA5TSI                               FRI 07/04/97 11:18 Page:84
         5 001237   000000 471400 xsym               LDP1    B$XL_UPPER$
         5 001240   040000 160540                    MVT     fill='040'O
         5 001241   200224 200010                    ADSC9   CONTEXT_NAME,,AUTO       cn=1,n=*X0
         5 001242   000000 200777 xsym               ADSC9   VD_STATIC_TEMP           cn=1,n=511
         5 001243   100000 000100                    ARG     0,,PR1

      797     9768    4                   SUBSTR(CONTEXT_NAME.BYTES, 0, CONTEXT_NAME.LENGTH#));
      798     9769    4                 CALL INDEX (UNAME_INDEX, %SETUP_FN_USER,

   9769  5 001244   200224 236100                    LDQ     CONTEXT_NAME,,AUTO
         5 001245   000033 772000                    QRL     27
         5 001246   000000 620006                    EAX0    0,QL
         5 001247   000000 120440                    SCD
         5 001250   000000 200010 xsym               ADSC9   VD_STATIC_TEMP           cn=1,n=*X0
         5 001251   000261 000002 3                  ADSC9   CONST_FPT_UNFID+35       cn=0,n=2
         5 001252   200276 000100                    ARG     UNAME_INDEX,,AUTO
         5 001253   001255 607000 5                  TTF     s:9771
         5 001254   200276 054100                    AOS     UNAME_INDEX,,AUTO

      799     9770    4                   SUBSTR(VD_STATIC_TEMP.BYTES, 0, CONTEXT_NAME.LENGTH#));
      800     9771    4                 CALL SEARCHR (LAST_NON_BLANK, SINK, B$SR_NON_BLANK,

   9771  5 001255   000000 473400 xsym               LDP3    B$SR_NON_BLANK$
         5 001256   000000 474400 xsym               LDP4    B$JIT$
         5 001257   000000 165500                    TCTR
         5 001260   400003 000014                    ADSC9   3,,PR4                   cn=0,n=12
         5 001261   300000 000100                    ARG     0,,PR3
         5 001262   200315 000100                    ARG     LAST_NON_BLANK,,AUTO
         5 001263   200315 235100                    LDA     LAST_NON_BLANK,,AUTO
         5 001264   000033 771000                    ARL     27
         5 001265   200316 755100                    STA     SINK,,AUTO
         5 001266   200315 551140                    STBA    LAST_NON_BLANK,'40'O,AUTO
         5 001267   001272 606400 5                  TTN     s:9773
         5 001270   000013 236007                    LDQ     11,DL
         5 001271   200315 156100                    SSQ     LAST_NON_BLANK,,AUTO

      801     9772    4                   B$JIT.UNAME);
PL6.E3A0      #001=VDG$MAIN File=VDG$MAIN.:VDA5TSI                               FRI 07/04/97 11:18 Page:85
      802     9773    4                 IF UNAME_INDEX < CONTEXT_NAME.LENGTH#

   9773  5 001272   200224 236100                    LDQ     CONTEXT_NAME,,AUTO
         5 001273   000033 772000                    QRL     27
         5 001274   200276 116100                    CMPQ    UNAME_INDEX,,AUTO
         5 001275   001445 604400 5                  TMOZ    s:9809
         5 001276   200315 235100                    LDA     LAST_NON_BLANK,,AUTO
         5 001277   000014 115007                    CMPA    12,DL
         5 001300   001445 605000 5                  TPL     s:9809

      803     9774    5                   AND LAST_NON_BLANK < LENGTHC(B$JIT.UNAME) THEN DO;

      804     9775    6                    IF UNAME_INDEX > 0 THEN DO;

   9775  5 001301   200276 235100                    LDA     UNAME_INDEX,,AUTO
         5 001302   001336 604400 5                  TMOZ    s:9787

      805     9776    6                       TEMP_NAME.BYTES = SUBSTR(CONTEXT_NAME.BYTES, 0,

   9776  5 001303   000000 620005                    EAX0    0,AL
         5 001304   040100 100540                    MLR     fill='040'O
         5 001305   200224 200010                    ADSC9   CONTEXT_NAME,,AUTO       cn=1,n=*X0
         5 001306   200300 200037                    ADSC9   TEMP_NAME,,AUTO          cn=1,n=31

      806     9777    6                         UNAME_INDEX);
      807     9778    6                       TEMP_NAME.LENGTH# = UNAME_INDEX;

   9778  5 001307   200276 236100                    LDQ     UNAME_INDEX,,AUTO
         5 001310   000033 736000                    QLS     27
         5 001311   200300 552140                    STBQ    TEMP_NAME,'40'O,AUTO

      808     9779    6                       IF SUBSTR(TEMP_NAME.BYTES, TEMP_NAME.LENGTH# - 1, 1) ~=

   9779  5 001312   200300 236100                    LDQ     TEMP_NAME,,AUTO
         5 001313   000033 772000                    QRL     27
         5 001314   040000 106506                    CMPC    fill='040'O
         5 001315   200300 000001                    ADSC9   TEMP_NAME,Q,AUTO         cn=0,n=1
PL6.E3A0      #001=VDG$MAIN File=VDG$MAIN.:VDA5TSI                               FRI 07/04/97 11:18 Page:86
         5 001316   000040 000001 6                  ADSC9   32                       cn=0,n=1
         5 001317   001336 600000 5                  TZE     s:9787

      809     9780    7                         %CHR_UNDERSCORE THEN DO;

      810     9781    7                          CALL INSERT (TEMP_NAME.BYTES, TEMP_NAME.LENGTH#, ,

   9781  5 001320   777740 620006                    EAX0    -32,QL
         5 001321   777777 660003                    ERX0    -1,DU
         5 001322   040146 100400                    MLR     fill='040'O
         5 001323   000040 000001 6                  ADSC9   32                       cn=0,n=1
         5 001324   200300 200010                    ADSC9   TEMP_NAME,Q,AUTO         cn=1,n=*X0

      811     9782    7                            %CHR_UNDERSCORE);
      812     9783    7                          TEMP_NAME.LENGTH# = MINIMUM (LENGTHC(TEMP_NAME.BYTES),

   9783  5 001325   200300 236100                    LDQ     TEMP_NAME,,AUTO
         5 001326   000033 772000                    QRL     27
         5 001327   000001 036007                    ADLQ    1,DL
         5 001330   000037 116007                    CMPQ    31,DL
         5 001331   001334 602000 5                  TNC     s:9783+7
         5 001332   001334 600000 5                  TZE     s:9783+7
         5 001333   000037 236007                    LDQ     31,DL
         5 001334   000033 736000                    QLS     27
         5 001335   200300 552140                    STBQ    TEMP_NAME,'40'O,AUTO

      813     9784    7                            TEMP_NAME.LENGTH# + 1);
      814     9785    7                          END;

      815     9786    6                       END;

      816     9787    5                    CALL INSERT (TEMP_NAME.BYTES, TEMP_NAME.LENGTH#, ,

   9787  5 001336   200300 236100                    LDQ     TEMP_NAME,,AUTO
         5 001337   000033 772000                    QRL     27
         5 001340   777740 620006                    EAX0    -32,QL
         5 001341   777777 660003                    ERX0    -1,DU
PL6.E3A0      #001=VDG$MAIN File=VDG$MAIN.:VDA5TSI                               FRI 07/04/97 11:18 Page:87
         5 001342   040146 100500                    MLR     fill='040'O
         5 001343   400003 000014                    ADSC9   3,,PR4                   cn=0,n=12
         5 001344   200300 200010                    ADSC9   TEMP_NAME,Q,AUTO         cn=1,n=*X0

      817     9788    5                      B$JIT.UNAME);
      818     9789    5                    TEMP_NAME.LENGTH# = MINIMUM (LENGTHC(TEMP_NAME.BYTES),

   9789  5 001345   200300 236100                    LDQ     TEMP_NAME,,AUTO
         5 001346   000033 772000                    QRL     27
         5 001347   200315 036100                    ADLQ    LAST_NON_BLANK,,AUTO
         5 001350   000001 036007                    ADLQ    1,DL
         5 001351   000037 116007                    CMPQ    31,DL
         5 001352   001354 604400 5                  TMOZ    s:9789+7
         5 001353   000037 236007                    LDQ     31,DL
         5 001354   000033 736000                    QLS     27
         5 001355   200300 552140                    STBQ    TEMP_NAME,'40'O,AUTO

      819     9790    5                      TEMP_NAME.LENGTH# + LAST_NON_BLANK + 1);
      820     9791    6                    IF UNAME_INDEX + 2 < CONTEXT_NAME.LENGTH# THEN DO;

   9791  5 001356   200224 236100                    LDQ     CONTEXT_NAME,,AUTO
         5 001357   000033 772000                    QRL     27
         5 001360   200320 756100                    STQ     SINK+2,,AUTO
         5 001361   200276 236100                    LDQ     UNAME_INDEX,,AUTO
         5 001362   000002 036007                    ADLQ    2,DL
         5 001363   200320 116100                    CMPQ    SINK+2,,AUTO
         5 001364   001442 605000 5                  TPL     s:9805

      821     9792    6                       IF SUBSTR(CONTEXT_NAME.BYTES, UNAME_INDEX + 2, 1) ~=

   9792  5 001365   200276 235100                    LDA     UNAME_INDEX,,AUTO
         5 001366   040000 106505                    CMPC    fill='040'O
         5 001367   200224 600001                    ADSC9   CONTEXT_NAME,A,AUTO      cn=3,n=1
         5 001370   000040 000001 6                  ADSC9   32                       cn=0,n=1
         5 001371   001412 600000 5                  TZE     s:9799

      822     9793    7                         %CHR_UNDERSCORE THEN DO;
PL6.E3A0      #001=VDG$MAIN File=VDG$MAIN.:VDA5TSI                               FRI 07/04/97 11:18 Page:88

      823     9794    7                          CALL INSERT (TEMP_NAME.BYTES, TEMP_NAME.LENGTH#, ,

   9794  5 001372   200300 236100                    LDQ     TEMP_NAME,,AUTO
         5 001373   000033 772000                    QRL     27
         5 001374   777740 620006                    EAX0    -32,QL
         5 001375   777777 660003                    ERX0    -1,DU
         5 001376   040146 100400                    MLR     fill='040'O
         5 001377   000040 000001 6                  ADSC9   32                       cn=0,n=1
         5 001400   200300 200010                    ADSC9   TEMP_NAME,Q,AUTO         cn=1,n=*X0

      824     9795    7                            %CHR_UNDERSCORE);
      825     9796    7                          TEMP_NAME.LENGTH# = MINIMUM (LENGTHC(TEMP_NAME.BYTES),

   9796  5 001401   200300 236100                    LDQ     TEMP_NAME,,AUTO
         5 001402   000033 772000                    QRL     27
         5 001403   000001 036007                    ADLQ    1,DL
         5 001404   000037 116007                    CMPQ    31,DL
         5 001405   001410 602000 5                  TNC     s:9796+7
         5 001406   001410 600000 5                  TZE     s:9796+7
         5 001407   000037 236007                    LDQ     31,DL
         5 001410   000033 736000                    QLS     27
         5 001411   200300 552140                    STBQ    TEMP_NAME,'40'O,AUTO

      826     9797    7                            TEMP_NAME.LENGTH# + 1);
      827     9798    7                          END;

      828     9799    6                       CALL INSERT (TEMP_NAME.BYTES, TEMP_NAME.LENGTH#, ,

   9799  5 001412   200300 236100                    LDQ     TEMP_NAME,,AUTO
         5 001413   000033 772000                    QRL     27
         5 001414   777740 620006                    EAX0    -32,QL
         5 001415   777777 660003                    ERX0    -1,DU
         5 001416   777742 621005                    EAX1    -30,AL
         5 001417   777777 661003                    ERX1    -1,DU
         5 001420   040146 100545                    MLR     fill='040'O
         5 001421   200224 600011                    ADSC9   CONTEXT_NAME,A,AUTO      cn=3,n=*X1
PL6.E3A0      #001=VDG$MAIN File=VDG$MAIN.:VDA5TSI                               FRI 07/04/97 11:18 Page:89
         5 001422   200300 200010                    ADSC9   TEMP_NAME,Q,AUTO         cn=1,n=*X0

      829     9800    6                         SUBSTR(CONTEXT_NAME.BYTES, UNAME_INDEX + 2));
      830     9801    6                       TEMP_NAME.LENGTH# = MINIMUM (LENGTHC(TEMP_NAME.BYTES),

   9801  5 001423   200224 236100                    LDQ     CONTEXT_NAME,,AUTO
         5 001424   000033 772000                    QRL     27
         5 001425   200276 136100                    SBLQ    UNAME_INDEX,,AUTO
         5 001426   200320 756100                    STQ     SINK+2,,AUTO
         5 001427   200300 236100                    LDQ     TEMP_NAME,,AUTO
         5 001430   000033 772000                    QRL     27
         5 001431   200321 756100                    STQ     SINK+3,,AUTO
         5 001432   200320 236100                    LDQ     SINK+2,,AUTO
         5 001433   200321 036100                    ADLQ    SINK+3,,AUTO
         5 001434   000002 136007                    SBLQ    2,DL
         5 001435   000037 116007                    CMPQ    31,DL
         5 001436   001440 604400 5                  TMOZ    s:9801+13
         5 001437   000037 236007                    LDQ     31,DL
         5 001440   000033 736000                    QLS     27
         5 001441   200300 552140                    STBQ    TEMP_NAME,'40'O,AUTO

      831     9802    6                         TEMP_NAME.LENGTH# + (CONTEXT_NAME.LENGTH# -
      832     9803    6                         (UNAME_INDEX + 2)));
      833     9804    6                       END;

      834     9805    5                    CONTEXT_NAME = TEMP_NAME;

   9805  5 001442   000100 100500                    MLR     fill='000'O
         5 001443   200300 000040                    ADSC9   TEMP_NAME,,AUTO          cn=0,n=32
         5 001444   200224 000040                    ADSC9   CONTEXT_NAME,,AUTO       cn=0,n=32

      835     9806    5                    END;

      836     9807    4                 END CMDVAR_VALUE_HAS_NAME;

      837     9808
      838     9809    4              IF TEMP_ACCT ~= ' ' THEN DO;
PL6.E3A0      #001=VDG$MAIN File=VDG$MAIN.:VDA5TSI                               FRI 07/04/97 11:18 Page:90

   9809  5 001445   200310 237100                    LDAQ    TEMP_ACCT,,AUTO
         5 001446   000042 117000 6                  CMPAQ   34
         5 001447   001454 600000 5                  TZE     s:9815

      839     9810    4                 CONTEXT_ACCT (0) = TEMP_ACCT;

   9810  5 001450   200310 237100                    LDAQ    TEMP_ACCT,,AUTO
         5 001451   200244 757100                    STAQ    CONTEXT_ACCT,,AUTO

      840     9811    4                 MAXACCT = 1;

   9811  5 001452   000001 235007                    LDA     1,DL
         5 001453   200313 755100                    STA     MAXACCT,,AUTO

      841     9812    4                 END;

      842     9813    3              END GOT_CMDVAR_VALUE;

      843     9814
      844     9815    2           PROFILED_NAME.LENGTH# = 0;

   9815  5 001454   000000 236003                    LDQ     0,DU
         5 001455   200234 552140                    STBQ    PROFILED_NAME,'40'O,AUTO

      845     9816    2           CALL XLATE (VD_STATIC_TEMP.BYTES, B$XL_UPPER,

   9816  5 001456   200224 236100                    LDQ     CONTEXT_NAME,,AUTO
         5 001457   000033 772000                    QRL     27
         5 001460   000000 620006                    EAX0    0,QL
         5 001461   000000 470400 xsym               LDP0    B$XL_UPPER$
         5 001462   040000 160540                    MVT     fill='040'O
         5 001463   200224 200010                    ADSC9   CONTEXT_NAME,,AUTO       cn=1,n=*X0
         5 001464   000000 200777 xsym               ADSC9   VD_STATIC_TEMP           cn=1,n=511
         5 001465   000000 000100                    ARG     0,,PR0

      846     9817    2             SUBSTR(CONTEXT_NAME.BYTES, 0, CONTEXT_NAME.LENGTH#));
PL6.E3A0      #001=VDG$MAIN File=VDG$MAIN.:VDA5TSI                               FRI 07/04/97 11:18 Page:91
      847     9818    2           CALL INDEX (PROFILE_INDEX, %SETUP_FN_PROFILE,

   9818  5 001466   200224 236100                    LDQ     CONTEXT_NAME,,AUTO
         5 001467   000033 772000                    QRL     27
         5 001470   000000 620006                    EAX0    0,QL
         5 001471   000000 120440                    SCD
         5 001472   000000 200010 xsym               ADSC9   VD_STATIC_TEMP           cn=1,n=*X0
         5 001473   000262 000002 3                  ADSC9   CONST_FPT_UNFID+36       cn=0,n=2
         5 001474   200277 000100                    ARG     PROFILE_INDEX,,AUTO
         5 001475   001477 607000 5                  TTF     s:9820
         5 001476   200277 054100                    AOS     PROFILE_INDEX,,AUTO

      848     9819    2             SUBSTR(VD_STATIC_TEMP.BYTES, 0, CONTEXT_NAME.LENGTH#));
      849     9820    3           IF PROFILE_INDEX < CONTEXT_NAME.LENGTH# THEN DO;

   9820  5 001477   200224 236100                    LDQ     CONTEXT_NAME,,AUTO
         5 001500   000033 772000                    QRL     27
         5 001501   200277 116100                    CMPQ    PROFILE_INDEX,,AUTO
         5 001502   001671 604400 5                  TMOZ    s:9858

      850     9821                   /* Substitute the terminal profile into the file name */
      851     9822    4              IF PROFILE_INDEX > 0 THEN DO;

   9822  5 001503   200277 235100                    LDA     PROFILE_INDEX,,AUTO
         5 001504   001540 604400 5                  TMOZ    s:9834

      852     9823    4                 PROFILED_NAME.LENGTH# = PROFILE_INDEX;

   9823  5 001505   200277 236100                    LDQ     PROFILE_INDEX,,AUTO
         5 001506   000033 736000                    QLS     27
         5 001507   200234 552140                    STBQ    PROFILED_NAME,'40'O,AUTO

      853     9824    4                 PROFILED_NAME.BYTES =

   9824  5 001510   000000 620005                    EAX0    0,AL
         5 001511   040100 100540                    MLR     fill='040'O
         5 001512   200224 200010                    ADSC9   CONTEXT_NAME,,AUTO       cn=1,n=*X0
PL6.E3A0      #001=VDG$MAIN File=VDG$MAIN.:VDA5TSI                               FRI 07/04/97 11:18 Page:92
         5 001513   200234 200037                    ADSC9   PROFILED_NAME,,AUTO      cn=1,n=31

      854     9825    4                   SUBSTR(CONTEXT_NAME.BYTES, 0, PROFILE_INDEX);
      855     9826    4                 IF SUBSTR(PROFILED_NAME.BYTES, PROFILED_NAME.LENGTH# - 1, 1) ~=

   9826  5 001514   200234 236100                    LDQ     PROFILED_NAME,,AUTO
         5 001515   000033 772000                    QRL     27
         5 001516   040000 106506                    CMPC    fill='040'O
         5 001517   200234 000001                    ADSC9   PROFILED_NAME,Q,AUTO     cn=0,n=1
         5 001520   000040 000001 6                  ADSC9   32                       cn=0,n=1
         5 001521   001540 600000 5                  TZE     s:9834

      856     9827    5                   %CHR_UNDERSCORE THEN DO;

      857     9828    5                    CALL INSERT (PROFILED_NAME.BYTES, PROFILED_NAME.LENGTH#, ,

   9828  5 001522   777740 620006                    EAX0    -32,QL
         5 001523   777777 660003                    ERX0    -1,DU
         5 001524   040146 100400                    MLR     fill='040'O
         5 001525   000040 000001 6                  ADSC9   32                       cn=0,n=1
         5 001526   200234 200010                    ADSC9   PROFILED_NAME,Q,AUTO     cn=1,n=*X0

      858     9829    5                      %CHR_UNDERSCORE);
      859     9830    5                    PROFILED_NAME.LENGTH# = MINIMUM (LENGTHC(PROFILED_NAME.BYTES),

   9830  5 001527   200234 236100                    LDQ     PROFILED_NAME,,AUTO
         5 001530   000033 772000                    QRL     27
         5 001531   000001 036007                    ADLQ    1,DL
         5 001532   000037 116007                    CMPQ    31,DL
         5 001533   001536 602000 5                  TNC     s:9830+7
         5 001534   001536 600000 5                  TZE     s:9830+7
         5 001535   000037 236007                    LDQ     31,DL
         5 001536   000033 736000                    QLS     27
         5 001537   200234 552140                    STBQ    PROFILED_NAME,'40'O,AUTO

      860     9831    5                      PROFILED_NAME.LENGTH# + 1);
      861     9832    5                    END;
PL6.E3A0      #001=VDG$MAIN File=VDG$MAIN.:VDA5TSI                               FRI 07/04/97 11:18 Page:93

      862     9833    4                 END;

      863     9834    3              CALL INSERT (PROFILED_NAME.BYTES, PROFILED_NAME.LENGTH#, ,

   9834  5 001540   000002 236000 4                  LDQ     LINEATTR+2
         5 001541   000033 772000                    QRL     27
         5 001542   000000 620006                    EAX0    0,QL
         5 001543   200234 236100                    LDQ     PROFILED_NAME,,AUTO
         5 001544   000033 772000                    QRL     27
         5 001545   777740 621006                    EAX1    -32,QL
         5 001546   777777 661003                    ERX1    -1,DU
         5 001547   040146 100440                    MLR     fill='040'O
         5 001550   000002 200010 4                  ADSC9   LINEATTR+2               cn=1,n=*X0
         5 001551   200234 200011                    ADSC9   PROFILED_NAME,Q,AUTO     cn=1,n=*X1

      864     9835    3                SUBSTR(LINEATTR.PROTXTC.TXT, 0, LINEATTR.PROTXTC.CNT));
      865     9836    3              PROFILED_NAME.LENGTH# = MINIMUM (LENGTHC(PROFILED_NAME.BYTES),

   9836  5 001552   000002 236000 4                  LDQ     LINEATTR+2
         5 001553   000033 772000                    QRL     27
         5 001554   200320 756100                    STQ     SINK+2,,AUTO
         5 001555   200234 236100                    LDQ     PROFILED_NAME,,AUTO
         5 001556   000033 772000                    QRL     27
         5 001557   200320 036100                    ADLQ    SINK+2,,AUTO
         5 001560   000037 116007                    CMPQ    31,DL
         5 001561   001564 602000 5                  TNC     s:9836+10
         5 001562   001564 600000 5                  TZE     s:9836+10
         5 001563   000037 236007                    LDQ     31,DL
         5 001564   000033 736000                    QLS     27
         5 001565   200234 552140                    STBQ    PROFILED_NAME,'40'O,AUTO

      866     9837    3                PROFILED_NAME.LENGTH# + LINEATTR.PROTXTC.CNT);
      867     9838    4              IF PROFILE_INDEX + 2 < CONTEXT_NAME.LENGTH# THEN DO;

   9838  5 001566   200224 236100                    LDQ     CONTEXT_NAME,,AUTO
         5 001567   000033 772000                    QRL     27
PL6.E3A0      #001=VDG$MAIN File=VDG$MAIN.:VDA5TSI                               FRI 07/04/97 11:18 Page:94
         5 001570   200320 756100                    STQ     SINK+2,,AUTO
         5 001571   200277 236100                    LDQ     PROFILE_INDEX,,AUTO
         5 001572   000002 036007                    ADLQ    2,DL
         5 001573   200320 116100                    CMPQ    SINK+2,,AUTO
         5 001574   001652 605000 5                  TPL     s:9853

      868     9839    4                 IF SUBSTR(CONTEXT_NAME.BYTES, PROFILE_INDEX + 2, 1) ~=

   9839  5 001575   200277 235100                    LDA     PROFILE_INDEX,,AUTO
         5 001576   040000 106505                    CMPC    fill='040'O
         5 001577   200224 600001                    ADSC9   CONTEXT_NAME,A,AUTO      cn=3,n=1
         5 001600   000040 000001 6                  ADSC9   32                       cn=0,n=1
         5 001601   001622 600000 5                  TZE     s:9846

      869     9840    5                   %CHR_UNDERSCORE THEN DO;

      870     9841    5                    CALL INSERT (PROFILED_NAME.BYTES, PROFILED_NAME.LENGTH#, ,

   9841  5 001602   200234 236100                    LDQ     PROFILED_NAME,,AUTO
         5 001603   000033 772000                    QRL     27
         5 001604   777740 620006                    EAX0    -32,QL
         5 001605   777777 660003                    ERX0    -1,DU
         5 001606   040146 100400                    MLR     fill='040'O
         5 001607   000040 000001 6                  ADSC9   32                       cn=0,n=1
         5 001610   200234 200010                    ADSC9   PROFILED_NAME,Q,AUTO     cn=1,n=*X0

      871     9842    5                      %CHR_UNDERSCORE);
      872     9843    5                    PROFILED_NAME.LENGTH# = MINIMUM (LENGTHC(PROFILED_NAME.BYTES),

   9843  5 001611   200234 236100                    LDQ     PROFILED_NAME,,AUTO
         5 001612   000033 772000                    QRL     27
         5 001613   000001 036007                    ADLQ    1,DL
         5 001614   000037 116007                    CMPQ    31,DL
         5 001615   001620 602000 5                  TNC     s:9843+7
         5 001616   001620 600000 5                  TZE     s:9843+7
         5 001617   000037 236007                    LDQ     31,DL
         5 001620   000033 736000                    QLS     27
PL6.E3A0      #001=VDG$MAIN File=VDG$MAIN.:VDA5TSI                               FRI 07/04/97 11:18 Page:95
         5 001621   200234 552140                    STBQ    PROFILED_NAME,'40'O,AUTO

      873     9844    5                      PROFILED_NAME.LENGTH# + 1);
      874     9845    5                    END;

      875     9846    4                 CALL INSERT (PROFILED_NAME.BYTES, PROFILED_NAME.LENGTH#, ,

   9846  5 001622   200234 236100                    LDQ     PROFILED_NAME,,AUTO
         5 001623   000033 772000                    QRL     27
         5 001624   777740 620006                    EAX0    -32,QL
         5 001625   777777 660003                    ERX0    -1,DU
         5 001626   777742 621005                    EAX1    -30,AL
         5 001627   777777 661003                    ERX1    -1,DU
         5 001630   040146 100545                    MLR     fill='040'O
         5 001631   200224 600011                    ADSC9   CONTEXT_NAME,A,AUTO      cn=3,n=*X1
         5 001632   200234 200010                    ADSC9   PROFILED_NAME,Q,AUTO     cn=1,n=*X0

      876     9847    4                   SUBSTR(CONTEXT_NAME.BYTES, PROFILE_INDEX + 2));
      877     9848    4                 PROFILED_NAME.LENGTH# = MINIMUM (LENGTHC(PROFILED_NAME.BYTES),

   9848  5 001633   200224 236100                    LDQ     CONTEXT_NAME,,AUTO
         5 001634   000033 772000                    QRL     27
         5 001635   200277 136100                    SBLQ    PROFILE_INDEX,,AUTO
         5 001636   200320 756100                    STQ     SINK+2,,AUTO
         5 001637   200234 236100                    LDQ     PROFILED_NAME,,AUTO
         5 001640   000033 772000                    QRL     27
         5 001641   200321 756100                    STQ     SINK+3,,AUTO
         5 001642   200320 236100                    LDQ     SINK+2,,AUTO
         5 001643   200321 036100                    ADLQ    SINK+3,,AUTO
         5 001644   000002 136007                    SBLQ    2,DL
         5 001645   000037 116007                    CMPQ    31,DL
         5 001646   001650 604400 5                  TMOZ    s:9848+13
         5 001647   000037 236007                    LDQ     31,DL
         5 001650   000033 736000                    QLS     27
         5 001651   200234 552140                    STBQ    PROFILED_NAME,'40'O,AUTO

      878     9849    4                   PROFILED_NAME.LENGTH# + (CONTEXT_NAME.LENGTH# -
PL6.E3A0      #001=VDG$MAIN File=VDG$MAIN.:VDA5TSI                               FRI 07/04/97 11:18 Page:96
      879     9850    4                   (PROFILE_INDEX + 2)));
      880     9851    4                 END;

      881     9852                   /* Remove the %SETUP_FN_PROFILE from CONTEXT_NAME */
      882     9853    3              TEMP_NAME.BYTES = SUBSTR(CONTEXT_NAME.BYTES, PROFILE_INDEX + 2);

   9853  5 001652   200277 720100                    LXL0    PROFILE_INDEX,,AUTO
         5 001653   777742 620010                    EAX0    -30,X0
         5 001654   777777 660003                    ERX0    -1,DU
         5 001655   200277 235100                    LDA     PROFILE_INDEX,,AUTO
         5 001656   040100 100545                    MLR     fill='040'O
         5 001657   200224 600010                    ADSC9   CONTEXT_NAME,A,AUTO      cn=3,n=*X0
         5 001660   200300 200037                    ADSC9   TEMP_NAME,,AUTO          cn=1,n=31

      883     9854    3              CONTEXT_NAME.LENGTH# = CONTEXT_NAME.LENGTH# - 2;

   9854  5 001661   200224 236100                    LDQ     CONTEXT_NAME,,AUTO
         5 001662   776000 036003                    ADLQ    -1024,DU
         5 001663   200224 552140                    STBQ    CONTEXT_NAME,'40'O,AUTO

      884     9855    3              CALL INSERT (CONTEXT_NAME.BYTES, PROFILE_INDEX, , TEMP_NAME.BYTES);

   9855  5 001664   777740 621005                    EAX1    -32,AL
         5 001665   777777 661003                    ERX1    -1,DU
         5 001666   040145 100500                    MLR     fill='040'O
         5 001667   200300 200037                    ADSC9   TEMP_NAME,,AUTO          cn=1,n=31
         5 001670   200224 200011                    ADSC9   CONTEXT_NAME,A,AUTO      cn=1,n=*X1

      885     9856    3              END;

      886     9857
      887     9858    2           ACCT = 0;

   9858  5 001671   200312 450100                    STZ     ACCT,,AUTO

      888     9859    2           FOUND_CONTEXT_FILE = %FALSE;

PL6.E3A0      #001=VDG$MAIN File=VDG$MAIN.:VDA5TSI                               FRI 07/04/97 11:18 Page:97
   9859  5 001672   200314 450100                    STZ     FOUND_CONTEXT_FILE,,AUTO

      889     9860    3           DO UNTIL ACCT = MAXACCT OR FOUND_CONTEXT_FILE;

      890     9861    3              TEST_OPEN.ACCT_ = VECTOR(CONTEXT_ACCT(ACCT));

   9861  5 001673   000031 235000 6                  LDA     25
         5 001674   200320 452500                    STP2    SINK+2,,AUTO
         5 001675   200312 236100                    LDQ     ACCT,,AUTO
         5 001676   000023 736000                    QLS     19
         5 001677   000244 036003                    ADLQ    164,DU
         5 001700   200320 036100                    ADLQ    SINK+2,,AUTO
         5 001701   200126 470500                    LDP0    @TEST_OPEN,,AUTO
         5 001702   000024 757100                    STAQ    20,,PR0

      891     9862    4              IF PROFILED_NAME.LENGTH# > 0 THEN DO;

   9862  5 001703   200234 236100                    LDQ     PROFILED_NAME,,AUTO
         5 001704   777000 316003                    CANQ    -512,DU
         5 001705   001727 600000 5                  TZE     s:9873

      892     9863    4                 TEST_OPEN.NAME_ = VECTOR(PROFILED_NAME);

   9863  5 001706   000036 235000 6                  LDA     30
         5 001707   200320 452500                    STP2    SINK+2,,AUTO
         5 001710   200320 236100                    LDQ     SINK+2,,AUTO
         5 001711   000234 036003                    ADLQ    156,DU
         5 001712   000006 757100                    STAQ    6,,PR0

      893     9864    4                 CALL M$OPEN (TEST_OPEN)

   9864  5 001713   450000 713400                    CLIMB   alt,open
         5 001714   410400 401760                    pmme    nvectors=18
         5 001715   001721 702000 5                  TSX2    s:9869

      894     9865    5                 WHENRETURN DO;

PL6.E3A0      #001=VDG$MAIN File=VDG$MAIN.:VDA5TSI                               FRI 07/04/97 11:18 Page:98
      895     9866    5                    FOUND_CONTEXT_FILE = %TRUE;

   9866  5 001716   400000 236003                    LDQ     -131072,DU
         5 001717   200314 756100                    STQ     FOUND_CONTEXT_FILE,,AUTO

      896     9867    5                    END;

   9867  5 001720   001727 710000 5                  TRA     s:9873

      897     9868    5                 WHENALTRETURN DO;

      898     9869    5                    IF B$TCB.ALT$ -> B$ALT.ERR.CODE ~= %E$NOFILE THEN

   9869  5 001721   000000 470400 xsym               LDP0    B$TCB$
         5 001722   000000 471500                    LDP1    0,,PR0
         5 001723   100102 236100                    LDQ     66,,PR1
         5 001724   377770 376007                    ANQ     131064,DL
         5 001725   001610 116007                    CMPQ    904,DL
         5 001726   002057 601000 5                  TNZ     OPEN_FAILED

      899     9870    5                       GOTO OPEN_FAILED;
      900     9871    5                    END;

      901     9872    4                 END;

      902     9873    4              IF NOT FOUND_CONTEXT_FILE THEN DO;

   9873  5 001727   200314 234100                    SZN     FOUND_CONTEXT_FILE,,AUTO
         5 001730   001753 604000 5                  TMI     s:9884

      903     9874    4                 TEST_OPEN.NAME_ = VECTOR(CONTEXT_NAME);

   9874  5 001731   000036 235000 6                  LDA     30
         5 001732   200320 452500                    STP2    SINK+2,,AUTO
         5 001733   200320 236100                    LDQ     SINK+2,,AUTO
         5 001734   000224 036003                    ADLQ    148,DU
         5 001735   200126 470500                    LDP0    @TEST_OPEN,,AUTO
PL6.E3A0      #001=VDG$MAIN File=VDG$MAIN.:VDA5TSI                               FRI 07/04/97 11:18 Page:99
         5 001736   000006 757100                    STAQ    6,,PR0

      904     9875    4                 CALL M$OPEN (TEST_OPEN)

   9875  5 001737   450000 713400                    CLIMB   alt,open
         5 001740   410400 401760                    pmme    nvectors=18
         5 001741   001745 702000 5                  TSX2    s:9880

      905     9876    5                 WHENRETURN DO;

      906     9877    5                    FOUND_CONTEXT_FILE = %TRUE;

   9877  5 001742   400000 236003                    LDQ     -131072,DU
         5 001743   200314 756100                    STQ     FOUND_CONTEXT_FILE,,AUTO

      907     9878    5                    END;

   9878  5 001744   001753 710000 5                  TRA     s:9884

      908     9879    5                 WHENALTRETURN DO;

      909     9880    5                    IF B$TCB.ALT$ -> B$ALT.ERR.CODE ~= %E$NOFILE THEN

   9880  5 001745   000000 470400 xsym               LDP0    B$TCB$
         5 001746   000000 471500                    LDP1    0,,PR0
         5 001747   100102 236100                    LDQ     66,,PR1
         5 001750   377770 376007                    ANQ     131064,DL
         5 001751   001610 116007                    CMPQ    904,DL
         5 001752   002057 601000 5                  TNZ     OPEN_FAILED

      910     9881    5                       GOTO OPEN_FAILED;
      911     9882    5                    END;

      912     9883    4                 END;

      913     9884    3              ACCT = ACCT + 1;

PL6.E3A0      #001=VDG$MAIN File=VDG$MAIN.:VDA5TSI                               FRI 07/04/97 11:18 Page:100
   9884  5 001753   200312 054100                    AOS     ACCT,,AUTO

      914     9885    3              END;

   9885  5 001754   200312 236100                    LDQ     ACCT,,AUTO
         5 001755   200313 116100                    CMPQ    MAXACCT,,AUTO
         5 001756   001761 600000 5                  TZE     s:9887
         5 001757   200314 234100                    SZN     FOUND_CONTEXT_FILE,,AUTO
         5 001760   001673 605000 5                  TPL     s:9861

      915     9886
      916     9887    3           IF FOUND_CONTEXT_FILE THEN DO;

   9887  5 001761   200314 234100                    SZN     FOUND_CONTEXT_FILE,,AUTO
         5 001762   002057 605000 5                  TPL     OPEN_FAILED

      917     9888    3              CALL VDG$OALLOC (%CLS_CMD_STREAM, CMD_STREAM$)

   9888  5 001763   200125 236100                    LDQ     @CMD_STREAM$,,AUTO
         5 001764   000001 235000 6                  LDA     1
         5 001765   200320 757100                    STAQ    SINK+2,,AUTO
         5 001766   200320 630500                    EPPR0   SINK+2,,AUTO
         5 001767   000020 631400 xsym               EPPR1   B_VECTNIL+16
         5 001770   000000 701000 xent               TSX1    VDG$OALLOC
         5 001771   002107 702000 5                  TSX2    OALLOC_FAILED

      918     9889    3                ALTRET (OALLOC_FAILED);
      919     9890    3              CMD$STREAM.TYPE# = %CS_DCB;

   9890  5 001772   200125 470500                    LDP0    @CMD_STREAM$,,AUTO
         5 001773   000000 471500                    LDP1    0,,PR0
         5 001774   000004 220003                    LDX0    4,DU
         5 001775   100002 740100                    STX0    2,,PR1

      920     9891    3              CMD$STREAM.DCB# = TEST_OPEN.V.DCB#;

   9891  5 001776   000000 471500                    LDP1    0,,PR0
PL6.E3A0      #001=VDG$MAIN File=VDG$MAIN.:VDA5TSI                               FRI 07/04/97 11:18 Page:101
         5 001777   200126 473500                    LDP3    @TEST_OPEN,,AUTO
         5 002000   300044 221100                    LDX1    36,,PR3
         5 002001   100024 741100                    STX1    20,,PR1

      921     9892    3              TEST_OPEN.V.DCB# = 0;

   9892  5 002002   000000 221003                    LDX1    0,DU
         5 002003   300044 741100                    STX1    36,,PR3

      922     9893                   /* Never echo the context file */
      923     9894    3              CMD$STREAM.ECHO = %FALSE;

   9894  5 002004   000000 471500                    LDP1    0,,PR0
         5 002005   000041 236000 6                  LDQ     33
         5 002006   100027 356100                    ANSQ    23,,PR1

      924     9895
      925     9896                   /* Assign the fid of the context file to the $CONTEXT name */
      926     9897    3              FPT_UNFID = CONST_FPT_UNFID;

   9897  5 002007   000100 100400                    MLR     fill='000'O
         5 002010   000216 000130 3                  ADSC9   CONST_FPT_UNFID          cn=0,n=88
         5 002011   200176 000130                    ADSC9   FPT_UNFID,,AUTO          cn=0,n=88

      927     9898    3              FPT_UNFID.V_ = VECTOR(FPT_UNFID.V);

   9898  5 002012   000031 235000 6                  LDA     25
         5 002013   200320 452500                    STP2    SINK+2,,AUTO
         5 002014   200320 236100                    LDQ     SINK+2,,AUTO
         5 002015   000222 036003                    ADLQ    146,DU
         5 002016   200176 757100                    STAQ    FPT_UNFID,,AUTO

      928     9899    3              FPT_UNFID.TEXTFID_ = VECTOR(VD_STATIC_TEMP);

   9899  5 002017   000032 237000 6                  LDAQ    26
         5 002020   200200 757100                    STAQ    FPT_UNFID+2,,AUTO

PL6.E3A0      #001=VDG$MAIN File=VDG$MAIN.:VDA5TSI                               FRI 07/04/97 11:18 Page:102
      929     9900    3              FPT_UNFID.V.DCB# = CMD$STREAM.DCB#;

   9900  5 002021   000000 471500                    LDP1    0,,PR0
         5 002022   100024 222100                    LDX2    20,,PR1
         5 002023   200222 742100                    STX2    FPT_UNFID+20,,AUTO

      930     9901    3              CALL M$UNFID (FPT_UNFID)

   9901  5 002024   200176 630500                    EPPR0   FPT_UNFID,,AUTO
         5 002025   420021 713400                    CLIMB   alt,+8209
         5 002026   404400 401760                    pmme    nvectors=10
         5 002027   002057 702000 5                  TSX2    OPEN_FAILED

      931     9902    3                ALTRET (UNFID_FAILED);
      932     9903    3              CALL SEARCHR (LAST_NON_BLANK, SINK, B$SR_NON_BLANK,

   9903  5 002030   000000 470400 xsym               LDP0    B$SR_NON_BLANK$
         5 002031   000000 165400                    TCTR
         5 002032   000000 000777 xsym               ADSC9   VD_STATIC_TEMP           cn=0,n=511
         5 002033   000000 000100                    ARG     0,,PR0
         5 002034   200315 000100                    ARG     LAST_NON_BLANK,,AUTO
         5 002035   200315 235100                    LDA     LAST_NON_BLANK,,AUTO
         5 002036   000033 771000                    ARL     27
         5 002037   200316 755100                    STA     SINK,,AUTO
         5 002040   200315 551140                    STBA    LAST_NON_BLANK,'40'O,AUTO
         5 002041   002044 606400 5                  TTN     s:9905
         5 002042   000776 236007                    LDQ     510,DL
         5 002043   200315 156100                    SSQ     LAST_NON_BLANK,,AUTO

      933     9904    3                ADDR(VD_STATIC_TEMP)->UNFID$FID);
      934     9905    3              VD_$CONTEXT.LENGTH# = LAST_NON_BLANK + 1;

   9905  5 002044   200315 720100                    LXL0    LAST_NON_BLANK,,AUTO
         5 002045   000001 621010                    EAX1    1,X0
         5 002046   000002 741000 xsym               STX1    VD_$CONTEXT+2

      935     9906    3              VD_$CONTEXT.FLINK$ -> VD$BUFFER.LENGTH# = VD_$CONTEXT.LENGTH#;
PL6.E3A0      #001=VDG$MAIN File=VDG$MAIN.:VDA5TSI                               FRI 07/04/97 11:18 Page:103

   9906  5 002047   000001 471400 xsym               LDP1    VD_$CONTEXT+1
         5 002050   100002 741100                    STX1    2,,PR1

      936     9907    3              VD_$CONTEXT.FLINK$ -> VD$BUFFER.BYTES =

   9907  5 002051   000002 222000 xsym               LDX2    VD_$CONTEXT+2
         5 002052   040140 100440                    MLR     fill='040'O
         5 002053   000000 000012 xsym               ADSC9   VD_STATIC_TEMP           cn=0,n=*X2
         5 002054   100002 400011                    ADSC9   2,,PR1                   cn=2,n=*X1

      937     9908    3                SUBSTR(ADDR(VD_STATIC_TEMP)->UNFID$FID, 0, VD_$CONTEXT.LENGTH#);
      938     9909    3              RETURN;

   9909  5 002055   200124 221300                    LDX1  ! ACTUAL_ERR$+2,,AUTO
         5 002056   000001 702211                    TSX2  ! 1,X1

      939     9910    3              END;

   9910  5 002057                       OPEN_FAILED  null
   9910  5 002057                       GLINEATTR_F* null
   9910  5 002057                       CMDVAR_FAIL* null
   9910  5 002057                       UNFID_FAILED null
      940     9911                /* Didn't find context file - report the ALTRET */
      941     9912    2   OPEN_FAILED: ;
      942     9913    2   GLINEATTR_FAILED: ;
      943     9914    2   CMDVAR_FAILED: ;
      944     9915    2   UNFID_FAILED: ;
      945     9916    2           FATAL$ERR.ERR = B$TCB.ALT$->B$ALT.ERR;

   9916  5 002057   000000 470400 xsym               LDP0    B$TCB$
         5 002060   000000 471500                    LDP1    0,,PR0
         5 002061   100102 236100                    LDQ     66,,PR1
         5 002062   000031 473400 xsym               LDP3    VD_6E+25
         5 002063   300002 756100                    STQ     2,,PR3

      946     9917    2           FATAL$ERR.DCB# = B$TCB.ALT$->B$ALT.DCB#;
PL6.E3A0      #001=VDG$MAIN File=VDG$MAIN.:VDA5TSI                               FRI 07/04/97 11:18 Page:104

   9917  5 002064   000000 471500                    LDP1    0,,PR0
         5 002065   100101 720100                    LXL0    65,,PR1
         5 002066   000031 473400 xsym               LDP3    VD_6E+25
         5 002067   300004 740100                    STX0    4,,PR3

      947     9918    2           ALTRETURN;

   9918  5 002070   200124 221300                    LDX1  ! ACTUAL_ERR$+2,,AUTO
         5 002071   000000 702211                    TSX2  ! 0,X1

      948     9919
      949     9920
      950     9921
      951     9922    2   FID_FAILED:
      952     9923    2           ERR_SUBST$ = PINCRW(ADDR(FATAL$ERR), SIZEW(VD$ERR));

   9923  5 002072   000031 236000 xsym  FID_FAILED   LDQ     VD_6E+25
         5 002073   000005 036003                    ADLQ    5,DU
         5 002074   200005 756100                    STQ     ERR_SUBST$,,AUTO

      953     9924    2           FATAL$ERR.ERR.CODE# = %E$SETUP_6EDIT_NOT_FID;

   9924  5 002075   000031 470400 xsym               LDP0    VD_6E+25
         5 002076   000002 236100                    LDQ     2,,PR0
         5 002077   000005 376000 6                  ANQ     5
         5 002100   000140 276007                    ORQ     96,DL
         5 002101   000002 756100                    STQ     2,,PR0

      954     9925    2           ERR$SUBST.OBJECT.CLASS# (0) = %CLS_PTR_TEXTC;

   9925  5 002102   000045 220003                    LDX0    37,DU
         5 002103   200005 470500                    LDP0    ERR_SUBST$,,AUTO
         5 002104   000000 740100                    STX0    0,,PR0

      955     9926    2           ERR$SUBST.V$ (0) = ADDR(VD_STATIC_TEMP);

PL6.E3A0      #001=VDG$MAIN File=VDG$MAIN.:VDA5TSI                               FRI 07/04/97 11:18 Page:105
   9926  5 002105   000033 236000 6                  LDQ     27
         5 002106   000003 756100                    STQ     3,,PR0

   9926  5 002107                       OALLOC_FAIL* null
   9926  5 002107                       OALLOC_DCB_* null
      956     9927
      957     9928
      958     9929    2   OALLOC_FAILED: ;
      959     9930    2   OALLOC_DCB_FAILED: ;
      960     9931    2           ALTRETURN;

   9931  5 002107   200124 221300                    LDX1  ! ACTUAL_ERR$+2,,AUTO
         5 002110   000000 702211                    TSX2  ! 0,X1

      961     9932
      962     9933    2   END PUSH_CONTEXT_FILE;
      963     9934
      964     9935        %BOX (TITLE=PUSH_INITIALIZE_CMDS, PAGE=YES);
              9943    2
              9947    2   /***************************************************************************
              9949    2    *                                                                         *
              9953    2            *                            PUSH_INITIALIZE_CMDS                        *
              9955    2            *                                                                        *
              9957    2          ***************************************************************************/

      965     9961
      966     9962        /*I* NAME: PUSH_INITIALIZE_CMDS
      967     9963            PARAMETERS:
      968     9964                NONE
      969     9965            INPUT:
      970     9966                VD_$INITIALIZE is a global VD$BUFFER containing (probably
      971     9967                    indirectly) a string expression.
      972     9968            OUTPUT:
      973     9969                Another VD$CMD_STREAM with a chain of buffers corresponding to
      974     9970                    the records defined by the string expression.
      975     9971        */
      976     9972
PL6.E3A0      #001=VDG$MAIN File=VDG$MAIN.:VDA5TSI                               FRI 07/04/97 11:18 Page:106
      977     9973    1   PUSH_INITIALIZE_CMDS: PROC ALTRET;

   9973  5 002111   200124 741300       PUSH_INITIA* STX1  ! ACTUAL_ERR$+2,,AUTO

      978     9974
      979     9975    2   DCL BUFFER$ PTR;
      980     9976        %VD$BUFFER (NAME=RECORD, STCLASS="BASED(BUFFER$)");
      981    10034    2   DCL INDX SBIN;
      982    10035    2   DCL RET_CODE CHAR(1);
      983    10036    2   DCL CTRL_ARGS(0:%(MX_CTRL_FN_ARGS-1)) SBIN;
      984    10037
      985    10038    2           CALL VDG$OALLOC (%CLS_CMD_STREAM, BUFFER$) ALTRET (FATAL_ERR);

  10038  5 002112   200125 630500                    EPPR0   BUFFER$,,AUTO
         5 002113   200321 450500                    STP0    SINK+3,,AUTO
         5 002114   000001 236000 6                  LDQ     1
         5 002115   200320 756100                    STQ     SINK+2,,AUTO
         5 002116   200320 630500                    EPPR0   SINK+2,,AUTO
         5 002117   000020 631400 xsym               EPPR1   B_VECTNIL+16
         5 002120   000000 701000 xent               TSX1    VDG$OALLOC
         5 002121   002212 702000 5                  TSX2    FATAL_ERR

      986    10039    2           TOP$CMD_STREAM.TYPE# = %CS_BUFFER;

  10039  5 002122   000001 220003                    LDX0    1,DU
         5 002123   000026 470400 xsym               LDP0    VD_6E+22
         5 002124   000002 740100                    STX0    2,,PR0

      987    10040
      988    10041    2           VD_STATIC_TEMP.LENGTH# = VD_$INITIALIZE.FLINK$ -> RECORD.LENGTH#;

  10041  5 002125   000001 470400 xsym               LDP0    VD_$INITIALIZE+1
         5 002126   000002 236100                    LDQ     2,,PR0
         5 002127   000011 736000                    QLS     9
         5 002130   000000 552040 xsym               STBQ    VD_STATIC_TEMP,'40'O

      989    10042    2           VD_STATIC_TEMP.BYTES = VD_$INITIALIZE.FLINK$ -> RECORD.BYTES;
PL6.E3A0      #001=VDG$MAIN File=VDG$MAIN.:VDA5TSI                               FRI 07/04/97 11:18 Page:107

  10042  5 002131   000002 221100                    LDX1    2,,PR0
         5 002132   040000 100540                    MLR     fill='040'O
         5 002133   000002 400011                    ADSC9   2,,PR0                   cn=2,n=*X1
         5 002134   000000 200777 xsym               ADSC9   VD_STATIC_TEMP           cn=1,n=511

      990    10043    2           XUE_ECB.OUT$ = ADDR(VD_STATIC_TEMP);

  10043  5 002135   000033 236000 6                  LDQ     27
         5 002136   000004 756000 xsym               STQ     XUE_ECB+4

      991    10044    2           INDX = 0;

  10044  5 002137   200126 450100                    STZ     INDX,,AUTO

      992    10045    2           BUFFER$ = PINCRW(ADDR(TOP$CMD_STREAM.RECORD$),

  10045  5 002140   200125 236100                    LDQ     BUFFER$,,AUTO
         5 002141   000001 036003                    ADLQ    1,DU
         5 002142   000022 772000                    QRL     18
         5 002143   200320 756100                    STQ     SINK+2,,AUTO
         5 002144   200125 236100                    LDQ     BUFFER$,,AUTO
         5 002145   000022 772000                    QRL     18
         5 002146   200320 136100                    SBLQ    SINK+2,,AUTO
         5 002147   000022 736000                    QLS     18
         5 002150   000025 036003                    ADLQ    21,DU
         5 002151   000026 036000 xsym               ADLQ    VD_6E+22
         5 002152   200125 756100                    STQ     BUFFER$,,AUTO

      993    10046    2             POFFW (ADDR(RECORD), ADDR(RECORD.FLINK$)));
      994    10047    3           DO UNTIL INDX >= VD_STATIC_TEMP.LENGTH#;

      995    10048    3              CALL VDE$PSTRING (, INDX, RECORD.FLINK$, RET_CODE, CTRL_ARGS)

  10048  5 002153   200130 630500                    EPPR0   CTRL_ARGS,,AUTO
         5 002154   200324 450500                    STP0    SINK+6,,AUTO
         5 002155   200127 631500                    EPPR1   RET_CODE,,AUTO
PL6.E3A0      #001=VDG$MAIN File=VDG$MAIN.:VDA5TSI                               FRI 07/04/97 11:18 Page:108
         5 002156   200323 451500                    STP1    SINK+5,,AUTO
         5 002157   200125 236100                    LDQ     BUFFER$,,AUTO
         5 002160   000001 036003                    ADLQ    1,DU
         5 002161   200322 756100                    STQ     SINK+4,,AUTO
         5 002162   200126 633500                    EPPR3   INDX,,AUTO
         5 002163   200321 453500                    STP3    SINK+3,,AUTO
         5 002164   000001 236000 xsym               LDQ     B_VECTNIL+1
         5 002165   200320 756100                    STQ     SINK+2,,AUTO
         5 002166   200320 630500                    EPPR0   SINK+2,,AUTO
         5 002167   000023 631400 xsym               EPPR1   B_VECTNIL+19
         5 002170   000000 701000 xent               TSX1    VDE$PSTRING
         5 002171   002212 702000 5                  TSX2    FATAL_ERR

      996    10049    3                ALTRET (FATAL_ERR);
      997    10050    4              IF RET_CODE ~= %CHR_SPACE AND RET_CODE ~= %FNID_RECORD THEN DO;

  10050  5 002172   200127 236100                    LDQ     RET_CODE,,AUTO
         5 002173   777000 376003                    ANQ     -512,DU
         5 002174   040000 116003                    CMPQ    16384,DU
         5 002175   002214 600000 5                  TZE     s:10055
         5 002176   200127 236100                    LDQ     RET_CODE,,AUTO
         5 002177   777000 376003                    ANQ     -512,DU
         5 002200   122000 116003                    CMPQ    41984,DU
         5 002201   002214 600000 5                  TZE     s:10055

      998    10051    4                 CALL VDG$ERRMSG (%E$BAD_CTRLFN_IN_INITIALIZE);

  10051  5 002202   000045 630400 6                  EPPR0   37
         5 002203   000017 631400 xsym               EPPR1   B_VECTNIL+15
         5 002204   000000 701000 xent               TSX1    VDG$ERRMSG
         5 002205   000000 011000                    NOP     0

      999    10052    4                 CALL VDG$OFREE (VD_6E.CMD_STREAM$);

  10052  5 002206   000046 630400 6                  EPPR0   38
         5 002207   000017 631400 xsym               EPPR1   B_VECTNIL+15
         5 002210   000000 701000 xent               TSX1    VDG$OFREE
PL6.E3A0      #001=VDG$MAIN File=VDG$MAIN.:VDA5TSI                               FRI 07/04/97 11:18 Page:109
         5 002211   000000 011000                    NOP     0

     1000    10053    4   FATAL_ERR:    ALTRETURN;

  10053  5 002212   200124 221300       FATAL_ERR    LDX1  ! ACTUAL_ERR$+2,,AUTO
         5 002213   000000 702211                    TSX2  ! 0,X1

     1001    10054    4                 END;
     1002    10055    3              IF RECORD.FLINK$ ~= ADDR(NIL) THEN

  10055  5 002214   200125 470500                    LDP0    BUFFER$,,AUTO
         5 002215   000001 236100                    LDQ     1,,PR0
         5 002216   000001 116000 xsym               CMPQ    B_VECTNIL+1
         5 002217   002221 600000 5                  TZE     s:10057

     1003    10056    3                 BUFFER$ = RECORD.FLINK$;

  10056  5 002220   200125 756100                    STQ     BUFFER$,,AUTO

     1004    10057    3              END;

  10057  5 002221   000000 236000 xsym               LDQ     VD_STATIC_TEMP
         5 002222   000033 772000                    QRL     27
         5 002223   200126 116100                    CMPQ    INDX,,AUTO
         5 002224   002153 605400 5                  TPNZ    s:10048

     1005    10058    2   END PUSH_INITIALIZE_CMDS;

  10058  5 002225   200124 221300                    LDX1  ! ACTUAL_ERR$+2,,AUTO
         5 002226   000001 702211                    TSX2  ! 1,X1

     1006    10059    1   END VDG$MAIN;

  10059  5 002227   000000 702200 xent               TSX2  ! X66_ARET
     1007    10060        %EOD;

PL6.E3A0      #001=VDG$MAIN File=VDG$MAIN.:VDA5TSI                               FRI 07/04/97 11:18 Page:110
--  Include file information  --

   B$TABLES_C.:LIBRARY  cannot be made into a system file and is referenced.
   B$JIT.:LIBRARY  cannot be made into a system file and is referenced.
   VD_NODES0_E.:VDA5TOU  is referenced.
   VD_PERR_C.:VDA5TOU  is referenced.
   VD_MACROS_M.:VDA5TOU  is referenced.
   XUE_MACRO_C.:LIBRARY  is referenced.
   B_ERRORS_C.:LIBRARY  is referenced.
   CP_6_SUBS.:LIBRARY  is referenced.
   CP_6.:LIBRARY  cannot be made into a system file and is referenced.
   B$JIT_C.:E04TOU  was found in the system file and is referenced.
   CP_6_C.:E04TOU  was found in the system file and is referenced.
      No diagnostics issued in procedure VDG$MAIN.
PL6.E3A0      #001=VDG$MAIN File=VDG$MAIN.:VDA5TSI                               FRI 07/04/97 11:18 Page:111

 **** Variables and constants ****

  ****  Section 003 RoData VDG$MAIN

  ****  Scalars and arrays  ****
OctLoc.c.b A Datatyp(siz) R M Lvl/name                 OctLoc.c.b A Datatyp(siz) R M Lvl/name

   162-0-0/c STRC(108)   r     1 CMDVAR_NAME              122-0-0/w STRC(324)   r     1 COMMAND_WINDOW_LOC
   144-0-0/d STRC(504)   r     1 CONST_FPT_CMDVAR         166-0-0/d STRC(864)   r     1 CONST_FPT_FID
   216-0-0/d STRC(792)   r     1 CONST_FPT_UNFID            0-0-0/d STRC(2088)  r     1 CONST_TEST_OPEN
   104-0-0/d STRC(144)   r     1 DISABLE_BRK              100-0-0/d STRC(144)   r     1 ENABLE_BRK
   134-0-0/d STRC(288)   r     1 FPT_GLINEATTR            110-0-0/d STRC(360)   r     1 FPT_TRAP
    72-0-0/d STRC(216)   r     1 FPT_XCON

  ****  Section 004  Data  VDG$MAIN

  ****  Scalars and arrays  ****
OctLoc.c.b A Datatyp(siz) R M Lvl/name                 OctLoc.c.b A Datatyp(siz) R M Lvl/name

     0-0-0/d STRC(576)   r     1 LINEATTR

  ****  Auto variables  ****

  ****  Scalars and arrays  ****
OctLoc.c.b A Datatyp(siz) R M Lvl/name                 OctLoc.c.b A Datatyp(siz) R M Lvl/name

   125-0-0/w PTR         r     1 @CMD_STREAM$             126-0-0/w PTR         r     1 @CMD_STREAM$
   125-0-0/w PTR         r     1 @CMD_STREAM$             125-0-0/w PTR         r     1 @DCB_TO_EDIT
   126-0-0/w PTR         r     1 @TEST_OPEN               312-0-0/w SBIN        r     1 ACCT
   122-0-0/w PTR         r     1 ACTUAL_ERR$              125-0-0/w PTR         r     1 BUFFER$
    *0-0-0/w PTR         r     1 CMD_STREAM$               *0-0-0/w PTR         r     1 CMD_STREAM$
    *0-0-0/w PTR         r     1 CMD_STREAM$              100-0-0/w PTR         r     1 CMD_WINDOW_STREAM$
   244-0-0/c CHAR(8)     r     1 CONTEXT_ACCT(0:8)
     3-0-0/w UBIN(18)    r     1 CONTEXT_DCB#             224-0-0/c STRC(288)   r     1 CONTEXT_NAME
   266-0-0/c STRC(72)    r     1 CONTEXT_PASS             270-0-0/d STRC(90)    r     1 CONTEXT_SN
   104-0-0/w PTR         r     1 CONTEXT_STREAM$          274-0-0/c STRC(72)    r     1 CONTEXT_WSN
   130-0-0/w SBIN        r     1 CTRL_ARGS(0:1)
PL6.E3A0      #001=VDG$MAIN File=VDG$MAIN.:VDA5TSI                               FRI 07/04/97 11:18 Page:112
    *0-0-0/w SBIN        r     1 DCB_TO_EDIT              134-0-0/w PTR         r     1 EDIT_FILE_KEY$
     5-0-0/w PTR         r     1 ERR_SUBST$               314-0-0/w BIT         r     1 FOUND_CONTEXT_FILE
   130-0-0/d STRC(504)   r     1 FPT_CMDVAR               146-0-0/d STRC(864)   r     1 FPT_FID
   176-0-0/d STRC(792)   r     1 FPT_UNFID                106-0-0/c STRC(288)   r     1 FUNNY_TEXT
   126-0-0/w SBIN        r     1 INDX                     102-0-0/w PTR         r     1 INVOCATION_STREAM$
   126-0-0/w PTR         r     1 INVOK_BUFFER$            132-0-0/w PTR         r     1 IT_ADJUST$
   130-0-0/w PTR         r     1 IT_BLOCK_EXPR$           127-0-0/w PTR         r     1 IT_COMMAND$
   133-0-0/w PTR         r     1 IT_OPERAND$              131-0-0/w PTR         r     1 IT_SELECT$
   315-0-0/w SBIN        r     1 LAST_NON_BLANK           105-0-0/w STRC(9)     r     1 LOAD_FLAGS
   313-0-0/w SBIN        r     1 MAXACCT                  103-0-0/w PTR         r     1 MFILE_STREAM$
   234-0-0/c STRC(288)   r     1 PROFILED_NAME            277-0-0/w SBIN        r     1 PROFILE_INDEX
   127-0-0/c CHAR        r     1 RET_CODE                 316-0-0/w SBIN        r     1 SINK
   101-0-0/w PTR         r     1 SI_STREAM$               116-0-0/w BIT         r     1 SUCCESSFULLY_OPENED
   310-0-0/w CHAR(8)     r     1 TEMP_ACCT                300-0-0/c STRC(288)   r     1 TEMP_NAME
     6-0-0/d STRC(2088)  r     1 TEST_OPEN                 *0-0-0/d STRC(2088)  r     1 TEST_OPEN
   276-0-0/w SBIN        r     1 UNAME_INDEX                4-0-0/w PTR         r     1 VD_ERR$
   117-0-0/w PTR         r     1 WINDOW_SPEC$             120-0-0/w STRC(72)    r     1 WSPEC

  ****  SYMREF variables  ****

  ****  Scalars and arrays  ****
OctLoc.c.b A Datatyp(siz) R M Lvl/name                 OctLoc.c.b A Datatyp(siz) R M Lvl/name

     0-0-0/w PTR         r     1 B$JIT$                     0-0-0/w PTR         r     1 B$SR_NON_BLANK$
     0-0-0/w PTR         r     1 B$TCB$                     0-0-0/w PTR         r     1 B$XL_UPPER$
     0-0-0/w STRC(144)   r     1 VD_$COMMAND                0-0-0/w ASTR(90)    r     1 VD_$CONTEXT
     0-0-0/w ASTR(90)    r     1 VD_$INITIALIZE             0-0-0/w STRC(144)   r     1 VD_$SCREEN
     0-0-0/w STRC(22644) r     1 VD_6E                      0-0-0/w PTR         r     1 VD_COMMAND_WINDOW$
     0-0-0/w SBIN        r     1 VD_EDITING_HEIGHT          0-0-0/w STRC(72)    r     1 VD_KEY_NUMERIC_BOF
     0-0-0/w STRC(324)   r     1 VD_LOC_$SCREEN             0-0-0/w SBIN        r     1 VD_OLD_$SCREEN
     0-0-0/c STRC(4608)  r     1 VD_STATIC_TEMP             0-0-0/w SBIN        r     1 VD_TOP_LINE
     0-0-0/d STRC(1008)  r     1 XUE_ECB

  ****  BASED and DCB variables  ****

  ****  Scalars and arrays  ****
OctLoc.c.b A Datatyp(siz) R M Lvl/name                 OctLoc.c.b A Datatyp(siz) R M Lvl/name
PL6.E3A0      #001=VDG$MAIN File=VDG$MAIN.:VDA5TSI                               FRI 07/04/97 11:18 Page:113

     0-0-0/w STRC(2448)  r     1 B$ALT                      0-0-0/d STRC(8856)  r     1 B$JIT
     0-0-0/d STRC(4608)  r     1 B$SR_NON_BLANK             0-0-0/w STRC(144)   r     1 B$TCB
     0-0-0/d STRC(4608)  r     1 B$XL_UPPER                 0-0-0/w STRC(900)   r     1 CMD$STREAM
     0-0-0/w STRC(900)   r     1 CMD$STREAM                 0-0-0/w STRC(900)   r     1 CMD$STREAM
     0-0-0/w STRC(900)   r     1 CONTEXT$STREAM             0-0-0/w STRC(648)   r     1 EDIT$FILE_KEY
     0-0-0/w STRC(144)   r     1 ERR$SUBST(0:2)
     0-0-0/d ASTR(3528)  r     1 F$DCB                      0-0-0/w STRC(180)   r     1 FATAL$ERR
     0-0-0/w ASTR(90)    r     1 INVOK$BUFFER               0-0-0/w STRC(216)   r     1 IT$ADJUST
     0-0-0/w STRC(1116)  r     1 IT$BLOCK_EXPR              0-0-0/w STRC(540)   r     1 IT$COMMAND
     0-0-0/w STRC(324)   r     1 IT$OPERAND                 0-0-0/w STRC(216)   r     1 IT$SELECT
     0-0-0N  NULL        r     1 M$FILE                     0-0-0N  NULL        r     1 M$SI
     0-0-0N  NULL        r     1 M$UC                       0-0-0/w ASTR(90)    r     1 RECORD
     0-0-0/w STRC(900)   r     1 SI$STREAM                  0-0-0/w STRC(900)   r     1 TOP$CMD_STREAM
     0-0-0/c CHAR(511)   r     1 UNFID$FID                  0-0-0/w ASTR(90)    r     1 VD$BUFFER
     0-0-0/w STRC(90)    r     1 VD$BUFFER_HEADER           0-0-0/w STRC(180)   r     1 VD$ERR
     0-0-0/w STRC(1944)  r     1 VD$PORT                    0-0-0/w ASTR(9)     r     1 VD$TEXTC
     0-0-0/w ASTR(81)    r     1 VD$TEXTC_REMOTE            0-0-0/w STRC(900)   r     1 WINDOW$SPEC
     0-0-0/w STRC(864)   r     1 WINDOWS$STREAM


   Procedure VDG$MAIN requires 1176 words for executable code.
   Procedure VDG$MAIN requires 214 words of local(AUTO) storage.
PL6.E3A0      #001=VDG$MAIN File=VDG$MAIN.:VDA5TSI                               FRI 07/04/97 11:18 Page:114
          *** CROSS REFERENCE LISTING ***
**     DENOTES     IDENTIFIER DEFINITION
<<                 IDENTIFIER'S VALUE SET
>>                 IDENTIFIER'S VALUE USED
<>                 IDENTIFIER SET AND/OR USED
--                 IDENTIFIER REFERENCED
PL6.E3A0      #001=VDG$MAIN File=VDG$MAIN.:VDA5TSI                               FRI 07/04/97 11:18 Page:115
          MINI XREF LISTING

ACCT IN PROCEDURE PUSH_CONTEXT_FILE
      9637**DCL      9858<<ASSIGN   9860>>DOUNTIL  9861>>ASSIGN   9884<<ASSIGN   9884>>ASSIGN
ACTUAL_ERR$
      6739**DCL      7638--IMP-PTR
B$ALT.CODE
      6804**DCL      6804--REDEF    6805--REDEF    6805--REDEF
B$ALT.DCB#
      6805**DCL      9917>>ASSIGN
B$ALT.ERR
      6805**DCL      7861>>ASSIGN   9916>>ASSIGN
B$ALT.ERR.CODE
      6806**DCL      9731>>IF       9869>>IF       9880>>IF
B$ALT.ERR.ERR#
      6806**DCL      6806--REDEF
B$ALT.EVID
      6805**DCL      6805--REDEF    6805--REDEF
B$JIT.ACCN
      5103**DCL      9739>>ASSIGN
B$JIT.CCARS
      5191**DCL      8127>>CALL     8131>>ASSIGN
B$JIT.CCBUF
      5191**DCL      7777>>ASSIGN   8134>>ASSIGN
B$JIT.CCDISP
      5191**DCL      7775>>ASSIGN
B$JIT.CPFLAGS1.SLEAZE
      5197**DCL      5197--REDEF
B$JIT.ERR.MID
      5104**DCL      5104--REDEF
B$JIT.JRESPEAK
      5265**DCL      5266--REDEF
B$JIT.MODE
      5098**DCL      7886>>IF       9719>>IF
PL6.E3A0      #001=VDG$MAIN File=VDG$MAIN.:VDA5TSI                               FRI 07/04/97 11:18 Page:116
B$JIT.ORIGINATOR_PORT.FROM_CR
      5374**DCL      5374--REDEF    5375--REDEF
B$JIT.PNR
      5278**DCL      5278--REDEF
B$JIT.PRFLAGS.CONTINUED
      5187**DCL      8126>>IF
B$JIT.PRFLAGS.NSSYNTAX
      5187**DCL      7774>>IF
B$JIT.PRFLAGS.SI
      5187**DCL      7820>>IF
B$JIT.TSLINE
      5372**DCL      5373--REDEF
B$JIT.UNAME
      5103**DCL      9771>>CALLBLT  9773--IF       9787>>CALLBLT
B$JIT$
      5517**DCL      5098--IMP-PTR  7774>>IF       7775>>ASSIGN   7777>>ASSIGN   7820>>IF       7886>>IF
      8126>>IF       8127>>CALL     8131>>ASSIGN   8134>>ASSIGN   9719>>IF       9739>>ASSIGN   9771>>CALLBLT
      9787>>CALLBLT
B$SR_NON_BLANK
      6000**DCL      9771>>CALLBLT  9903>>CALLBLT
B$SR_NON_BLANK$
      5999**DCL      6000--IMP-PTR  9771>>CALLBLT  9903>>CALLBLT
B$TCB.ALT$
      6800**DCL      7861>>ASSIGN   9731>>IF       9869>>IF       9880>>IF       9916>>ASSIGN   9917>>ASSIGN
B$TCB$
      5518**DCL      6800--IMP-PTR  7861>>ASSIGN   9731>>IF       9869>>IF       9880>>IF       9916>>ASSIGN
      9917>>ASSIGN
B$XL_UPPER
      6004**DCL      9767>>CALLBLT  9816>>CALLBLT
B$XL_UPPER$
      6003**DCL      6004--IMP-PTR  9767>>CALLBLT  9816>>CALLBLT
BUFFER$ IN PROCEDURE PUSH_INITIALIZE_CMDS
      9975**DCL     10001--IMP-PTR 10038<>CALL    10045<<ASSIGN  10045>>ASSIGN  10045>>ASSIGN  10048>>CALL
     10055>>IF      10056<<ASSIGN  10056>>ASSIGN
CMD$STREAM.DCB# IN PROCEDURE PUSH_CONTEXT_FILE
      9680**DCL      9891<<ASSIGN   9900>>ASSIGN
PL6.E3A0      #001=VDG$MAIN File=VDG$MAIN.:VDA5TSI                               FRI 07/04/97 11:18 Page:117
CMD$STREAM.ECHO IN PROCEDURE PUSH_CONTEXT_FILE
      9681**DCL      9894<<ASSIGN
CMD$STREAM.TYPE# IN PROCEDURE PUSH_CONTEXT_FILE
      9679**DCL      9890<<ASSIGN
CMD$STREAM.INTREE$ IN PROCEDURE PUSH_EDIT_CMD
      8258**DCL      8648<<ASSIGN
CMD$STREAM.TYPE# IN PROCEDURE PUSH_EDIT_CMD
      8257**DCL      8645<<ASSIGN
CMD$STREAM.FILE.BYTES IN PROCEDURE PUSH_INVOK_CMD
      8057**DCL      8139<<ASSIGN
CMD$STREAM.FILE.LENGTH# IN PROCEDURE PUSH_INVOK_CMD
      8057**DCL      8138<<ASSIGN
CMD$STREAM.RECORD$ IN PROCEDURE PUSH_INVOK_CMD
      8058**DCL      8132<<ASSIGN
CMD$STREAM.TYPE# IN PROCEDURE PUSH_INVOK_CMD
      8057**DCL      8133<<ASSIGN   8137<<ASSIGN
CMDVAR_FAILED IN PROCEDURE PUSH_CONTEXT_FILE
      9910**LABEL    9732--GOTO
CMDVAR_NAME IN PROCEDURE PUSH_CONTEXT_FILE
      9063**DCL      8923--DCLINIT
CMD_STREAM$ IN PROCEDURE PUSH_CONTEXT_FILE
      8751**DCL      8749--PROC     9653--IMP-PTR  9711<<ASSIGN   9888<>CALL     9890>>ASSIGN   9891>>ASSIGN
      9894>>ASSIGN   9900>>ASSIGN
CMD_STREAM$ IN PROCEDURE PUSH_EDIT_CMD
      8211**DCL      8208--PROC     8231--IMP-PTR  8642<>CALL     8645>>ASSIGN   8648>>ASSIGN   8698<<ASSIGN
CMD_STREAM$ IN PROCEDURE PUSH_INVOK_CMD
      8016**DCL      8014--PROC     8031--IMP-PTR  8123<>CALL     8132>>ASSIGN   8133>>ASSIGN   8137>>ASSIGN
      8138>>ASSIGN   8139>>ASSIGN   8146<<ASSIGN
CMD_WINDOW_STREAM$
      6562**DCL      7787<>CALL
COMMAND_WINDOW_LOC
      6385**DCL      7927<>CALL
CONST_FPT_CMDVAR IN PROCEDURE PUSH_CONTEXT_FILE
      8923**DCL      9726>>ASSIGN
CONST_FPT_CMDVAR.V IN PROCEDURE PUSH_CONTEXT_FILE
      8925**DCL      8923--DCLINIT
PL6.E3A0      #001=VDG$MAIN File=VDG$MAIN.:VDA5TSI                               FRI 07/04/97 11:18 Page:118
CONST_FPT_FID IN PROCEDURE PUSH_CONTEXT_FILE
      9081**DCL      9746>>ASSIGN
CONST_FPT_FID.V IN PROCEDURE PUSH_CONTEXT_FILE
      9085**DCL      9081--DCLINIT
CONST_FPT_UNFID IN PROCEDURE PUSH_CONTEXT_FILE
      9104**DCL      9897>>ASSIGN
CONST_FPT_UNFID.V IN PROCEDURE PUSH_CONTEXT_FILE
      9108**DCL      9104--DCLINIT
CONST_TEST_OPEN
      6251**DCL      7796>>ASSIGN
CONST_TEST_OPEN.ACSVEH_
      6253**DCL      6254--REDEF
CONST_TEST_OPEN.ALTKEYS_
      6259**DCL      6260--REDEF    6260--REDEF
CONST_TEST_OPEN.HDR_
      6258**DCL      6259--REDEF
CONST_TEST_OPEN.TAB_
      6257**DCL      6258--REDEF
CONST_TEST_OPEN.UHL_
      6251**DCL      6252--REDEF    6252--REDEF
CONST_TEST_OPEN.V
      6260**DCL      6251--DCLINIT
CONST_TEST_OPEN.V.FSN#
      6291**DCL      6291--REDEF    6291--REDEF
CONST_TEST_OPEN.WSN_
      6257**DCL      6257--REDEF
CONTEXT$STREAM
      7008**DCL      7838<>CALL     7899<>CALL
CONTEXT$STREAM.DCB#
      7035**DCL      7847>>ASSIGN
CONTEXT$STREAM.FILE_TYPE
      7035**DCL      7882>>IF
CONTEXT_ACCT IN PROCEDURE PUSH_CONTEXT_FILE
      9453**DCL      9738<<ASSIGN   9739<<ASSIGN   9740<<ASSIGN   9810<<ASSIGN   9861--ASSIGN
CONTEXT_DCB#
      5515**DCL      7863>>ASSIGN   9713<>CALL     9715>>ASSIGN
PL6.E3A0      #001=VDG$MAIN File=VDG$MAIN.:VDA5TSI                               FRI 07/04/97 11:18 Page:119
CONTEXT_NAME IN PROCEDURE PUSH_CONTEXT_FILE
      9305**DCL      9765<<ASSIGN   9805<<ASSIGN   9874--ASSIGN
CONTEXT_NAME.BYTES IN PROCEDURE PUSH_CONTEXT_FILE
      9309**DCL      9737<<ASSIGN   9767>>CALLBLT  9776>>ASSIGN   9792>>IF       9799>>CALLBLT  9816>>CALLBLT
      9824>>ASSIGN   9839>>IF       9846>>CALLBLT  9853>>ASSIGN   9855<<CALLBLT
CONTEXT_NAME.LENGTH# IN PROCEDURE PUSH_CONTEXT_FILE
      9309**DCL      9736<<ASSIGN   9767>>CALLBLT  9769>>CALLBLT  9773>>IF       9791>>IF       9801>>ASSIGN
      9816>>CALLBLT  9818>>CALLBLT  9820>>IF       9838>>IF       9848>>ASSIGN   9854<<ASSIGN   9854>>ASSIGN
CONTEXT_PASS IN PROCEDURE PUSH_CONTEXT_FILE
      9465**DCL      9752--ASSIGN   9759--ASSIGN
CONTEXT_SN IN PROCEDURE PUSH_CONTEXT_FILE
      9478**DCL      9753--ASSIGN   9760--ASSIGN
CONTEXT_STREAM$
      6566**DCL      7008--IMP-PTR  7746<<ASSIGN   7831<>CALL     7833>>IF       7838>>CALL     7839<<ASSIGN
      7844>>IF       7847>>ASSIGN   7881>>IF       7882>>IF       7899>>CALL     7900<<ASSIGN   7952>>IF
CONTEXT_WSN IN PROCEDURE PUSH_CONTEXT_FILE
      9491**DCL      9754--ASSIGN   9761--ASSIGN
CTRL_ARGS IN PROCEDURE PUSH_INITIALIZE_CMDS
     10036**DCL     10048<>CALL
DCB_TO_EDIT IN PROCEDURE PUSH_EDIT_CMD
      8210**DCL      8208--PROC     8674>>ASSIGN
DISABLE_BRK.V
      6339**DCL      6339--DCLINIT
EDIT$FILE_KEY.DCB# IN PROCEDURE PUSH_EDIT_CMD
      8636**DCL      8674<<ASSIGN
EDIT_FILE_KEY$ IN PROCEDURE PUSH_EDIT_CMD
      8220**DCL      8606--IMP-PTR  8671<>CALL     8673>>ASSIGN   8674>>ASSIGN
ENABLE_BRK
      6322**DCL      7783<>CALL
ENABLE_BRK.V
      6322**DCL      6322--DCLINIT
ERR$SUBST.OBJECT.CLASS#
      6903**DCL      9925<<ASSIGN
ERR$SUBST.V$
      6905**DCL      9926<<ASSIGN
ERR_SUBST$
PL6.E3A0      #001=VDG$MAIN File=VDG$MAIN.:VDA5TSI                               FRI 07/04/97 11:18 Page:120
      6452**DCL      6879--IMP-PTR  9923<<ASSIGN   9925>>ASSIGN   9926>>ASSIGN
F$DCB.ACTPOS
      6775**DCL      6775--REDEF
F$DCB.AMR#
      6762**DCL      7820>>IF
F$DCB.ARS#
      6749**DCL      6749--REDEF
F$DCB.ATTR
      6768**DCL      6769--REDEF
F$DCB.BORROW
      6783**DCL      6783--REDEF    6783--REDEF    6783--REDEF
F$DCB.DCBNAME.L
      6797**DCL      6797--IMP-SIZ
F$DCB.DDEV.IC#
      6755**DCL      7801>>IF
F$DCB.EOMCHAR#
      6753**DCL      6753--REDEF
F$DCB.FLDID
      6778**DCL      6778--REDEF
F$DCB.FORM$
      6772**DCL      6772--REDEF
F$DCB.FSECT
      6788**DCL      6788--REDEF
F$DCB.FSN#
      6765**DCL      6765--REDEF    6765--REDEF    6766--REDEF
F$DCB.HEADER$
      6771**DCL      6771--REDEF
F$DCB.IXTNSIZE#
      6769**DCL      6769--REDEF
F$DCB.LASTSTA$
      6758**DCL      6758--REDEF
F$DCB.LVL
      6784**DCL      6784--REDEF
F$DCB.NAME#.C
      6759**DCL      6759--REDEF
F$DCB.NOEOF
PL6.E3A0      #001=VDG$MAIN File=VDG$MAIN.:VDA5TSI                               FRI 07/04/97 11:18 Page:121
      6781**DCL      6781--REDEF
F$DCB.NRECS#
      6770**DCL      6770--REDEF
F$DCB.NRECX
      6789**DCL      6789--REDEF
F$DCB.OHDR
      6781**DCL      6781--REDEF
F$DCB.ORG#
      6764**DCL      6764--REDEF
F$DCB.PRECNO
      6787**DCL      6787--REDEF
F$DCB.RCSZ
      6793**DCL      6793--REDEF
F$DCB.RES#
      6760**DCL      6760--REDEF
F$DCB.SETX
      6772**DCL      6772--REDEF
F$DCB.TAB$
      6772**DCL      6772--REDEF
F$DCB.TDA
      6786**DCL      6787--REDEF
F$DCB.WSN#
      6760**DCL      6760--REDEF
FATAL$ERR
      6916**DCL      9923--ASSIGN
FATAL$ERR.DCB#
      6958**DCL      9917<<ASSIGN
FATAL$ERR.ERR
      6953**DCL      7836>>IF       9916<<ASSIGN
FATAL$ERR.ERR.CODE#
      6955**DCL      9924<<ASSIGN
FATAL_ERR
      7750**LABEL    7758--CALLALT  7764--CALLALT  7778--CALLALT  7787--CALLALT  7802--CALLALT  7814--CALLALT
      7822--CALLALT  7831--CALLALT  7837--GOTO     7838--CALLALT  7843--CALLALT  7927--CALLALT  7929--CALLALT
FATAL_ERR IN PROCEDURE PUSH_INITIALIZE_CMDS
     10053**LABEL   10038--CALLALT 10048--CALLALT
PL6.E3A0      #001=VDG$MAIN File=VDG$MAIN.:VDA5TSI                               FRI 07/04/97 11:18 Page:122
FID_FAILED IN PROCEDURE PUSH_CONTEXT_FILE
      9923**LABEL    9757--CALLALT
FOUND_CONTEXT_FILE IN PROCEDURE PUSH_CONTEXT_FILE
      9639**DCL      9859<<ASSIGN   9860>>DOUNTIL  9866<<ASSIGN   9873>>IF       9877<<ASSIGN   9887>>IF
FPT_CMDVAR IN PROCEDURE PUSH_CONTEXT_FILE
      9124**DCL      9726<<ASSIGN   9729<>CALL
FPT_CMDVAR.V IN PROCEDURE PUSH_CONTEXT_FILE
      9126**DCL      9727--ASSIGN
FPT_CMDVAR.VALUE_ IN PROCEDURE PUSH_CONTEXT_FILE
      9124**DCL      9728<<ASSIGN
FPT_CMDVAR.V_ IN PROCEDURE PUSH_CONTEXT_FILE
      9124**DCL      9727<<ASSIGN
FPT_FID IN PROCEDURE PUSH_CONTEXT_FILE
      9141**DCL      9746<<ASSIGN   9757<>CALL
FPT_FID.ACCT_ IN PROCEDURE PUSH_CONTEXT_FILE
      9142**DCL      9751<<ASSIGN
FPT_FID.ASN_ IN PROCEDURE PUSH_CONTEXT_FILE
      9144**DCL      9755<<ASSIGN
FPT_FID.NAME_ IN PROCEDURE PUSH_CONTEXT_FILE
      9142**DCL      9750<<ASSIGN
FPT_FID.PASS_ IN PROCEDURE PUSH_CONTEXT_FILE
      9142**DCL      9752<<ASSIGN
FPT_FID.RES_ IN PROCEDURE PUSH_CONTEXT_FILE
      9144**DCL      9756<<ASSIGN
FPT_FID.SN_ IN PROCEDURE PUSH_CONTEXT_FILE
      9143**DCL      9753<<ASSIGN
FPT_FID.TEXTFID_ IN PROCEDURE PUSH_CONTEXT_FILE
      9141**DCL      9748<<ASSIGN
FPT_FID.V IN PROCEDURE PUSH_CONTEXT_FILE
      9145**DCL      9747--ASSIGN
FPT_FID.V_ IN PROCEDURE PUSH_CONTEXT_FILE
      9141**DCL      9747<<ASSIGN
FPT_FID.WSN_ IN PROCEDURE PUSH_CONTEXT_FILE
      9143**DCL      9754<<ASSIGN
FPT_GLINEATTR IN PROCEDURE PUSH_CONTEXT_FILE
      8879**DCL      9720<>CALL
PL6.E3A0      #001=VDG$MAIN File=VDG$MAIN.:VDA5TSI                               FRI 07/04/97 11:18 Page:123
FPT_GLINEATTR.V IN PROCEDURE PUSH_CONTEXT_FILE
      8887**DCL      8881--DCLINIT
FPT_TRAP
      6358**DCL      7784<>CALL
FPT_TRAP.V
      6358**DCL      6358--DCLINIT
FPT_UNFID IN PROCEDURE PUSH_CONTEXT_FILE
      9164**DCL      9897<<ASSIGN   9901<>CALL
FPT_UNFID.TEXTFID_ IN PROCEDURE PUSH_CONTEXT_FILE
      9164**DCL      9899<<ASSIGN
FPT_UNFID.V IN PROCEDURE PUSH_CONTEXT_FILE
      9168**DCL      9898--ASSIGN
FPT_UNFID.V.DCB# IN PROCEDURE PUSH_CONTEXT_FILE
      9168**DCL      9900<<ASSIGN
FPT_UNFID.V_ IN PROCEDURE PUSH_CONTEXT_FILE
      9164**DCL      9898<<ASSIGN
FPT_XCON
      6306**DCL      7782<>CALL
FPT_XCON.V
      6307**DCL      6306--DCLINIT
FUNNY_TEXT
      6716**DCL      7778<>CALL
FUNNY_TEXT.BYTES
      6720**DCL      7775--ASSIGN   7777<<ASSIGN
FUNNY_TEXT.LENGTH#
      6720**DCL      7775<<ASSIGN
GLINEATTR_FAILED IN PROCEDURE PUSH_CONTEXT_FILE
      9910**LABEL    9720--CALLALT
INDX IN PROCEDURE PUSH_INITIALIZE_CMDS
     10034**DCL     10044<<ASSIGN  10047>>DOUNTIL 10048<>CALL
INVOCATION_STREAM$
      6564**DCL      7744<<ASSIGN   7814<>CALL
INVOK$BUFFER.BYTES IN PROCEDURE PUSH_INVOK_CMD
      8115**DCL      8134<<ASSIGN
INVOK$BUFFER.LENGTH# IN PROCEDURE PUSH_INVOK_CMD
      8113**DCL      8115--IMP-SIZ  8131<<ASSIGN   8134>>ASSIGN
PL6.E3A0      #001=VDG$MAIN File=VDG$MAIN.:VDA5TSI                               FRI 07/04/97 11:18 Page:124
INVOK_BUFFER$ IN PROCEDURE PUSH_INVOK_CMD
      8019**DCL      8087--IMP-PTR  8127<>CALL     8131>>ASSIGN   8132>>ASSIGN   8134>>ASSIGN   8134>>ASSIGN
IT$ADJUST.MOVEMENTS$ IN PROCEDURE PUSH_EDIT_CMD
      8521**DCL      8689<<ASSIGN
IT$ADJUST.MOVEMENTS_TAIL$ IN PROCEDURE PUSH_EDIT_CMD
      8522**DCL      8690<<ASSIGN
IT$BLOCK_EXPR.DOMAINN.FILE_KEY.REP# IN PROCEDURE PUSH_EDIT_CMD
      8348**DCL      8669<<ASSIGN
IT$BLOCK_EXPR.DOMAINN.FILE_KEY.TYPE# IN PROCEDURE PUSH_EDIT_CMD
      8348**DCL      8668<<ASSIGN
IT$BLOCK_EXPR.DOMAINN.FILE_KEY.V$ IN PROCEDURE PUSH_EDIT_CMD
      8348**DCL      8673<<ASSIGN
IT$BLOCK_EXPR.DOMAINN.RANGE.ENDD.EOF IN PROCEDURE PUSH_EDIT_CMD
      8416**DCL      8662<<ASSIGN
IT$BLOCK_EXPR.DOMAINN.RANGE.START.KEY IN PROCEDURE PUSH_EDIT_CMD
      8384**DCL      8660<<ASSIGN
IT$BLOCK_EXPR.OPTIONS.COMPONENT# IN PROCEDURE PUSH_EDIT_CMD
      8431**DCL      8665<<ASSIGN
IT$BLOCK_EXPR.OPTIONS.EXIST# IN PROCEDURE PUSH_EDIT_CMD
      8432**DCL      8667<<ASSIGN
IT$BLOCK_EXPR.OPTIONS.LEVEL# IN PROCEDURE PUSH_EDIT_CMD
      8431**DCL      8664<<ASSIGN
IT$BLOCK_EXPR.OPTIONS.PROTECT# IN PROCEDURE PUSH_EDIT_CMD
      8431**DCL      8666<<ASSIGN
IT$BLOCK_EXPR.OPTIONS.STRUCTURE$ IN PROCEDURE PUSH_EDIT_CMD
      8431**DCL      8663<<ASSIGN
IT$BLOCK_EXPR.SELECTS$ IN PROCEDURE PUSH_EDIT_CMD
      8448**DCL      8678<<ASSIGN
IT$BLOCK_EXPR.SELECTS_TAIL$ IN PROCEDURE PUSH_EDIT_CMD
      8448**DCL      8679<<ASSIGN
IT$COMMAND.CODE# IN PROCEDURE PUSH_EDIT_CMD
      8296**DCL      8649<<ASSIGN
IT$COMMAND.PARAM$ IN PROCEDURE PUSH_EDIT_CMD
      8297**DCL      8653<<ASSIGN
IT$OPERAND.CODE# IN PROCEDURE PUSH_EDIT_CMD
      8558**DCL      8691<<ASSIGN
PL6.E3A0      #001=VDG$MAIN File=VDG$MAIN.:VDA5TSI                               FRI 07/04/97 11:18 Page:125
IT$OPERAND.OPTIONS.POINT# IN PROCEDURE PUSH_EDIT_CMD
      8571**DCL      8692<<ASSIGN
IT$SELECT.ADJUSTS$ IN PROCEDURE PUSH_EDIT_CMD
      8485**DCL      8684<<ASSIGN
IT$SELECT.ADJUSTS_TAIL$ IN PROCEDURE PUSH_EDIT_CMD
      8485**DCL      8685<<ASSIGN
IT$SELECT.RPT_COUNT# IN PROCEDURE PUSH_EDIT_CMD
      8484**DCL      8680<<ASSIGN
IT_ADJUST$ IN PROCEDURE PUSH_EDIT_CMD
      8218**DCL      8495--IMP-PTR  8682<>CALL     8684>>ASSIGN   8685>>ASSIGN   8689>>ASSIGN   8690>>ASSIGN
IT_BLOCK_EXPR$ IN PROCEDURE PUSH_EDIT_CMD
      8216**DCL      8308--IMP-PTR  8651<>CALL     8653>>ASSIGN   8660>>ASSIGN   8662>>ASSIGN   8663>>ASSIGN
      8664>>ASSIGN   8665>>ASSIGN   8666>>ASSIGN   8667>>ASSIGN   8668>>ASSIGN   8669>>ASSIGN   8673>>ASSIGN
      8678>>ASSIGN   8679>>ASSIGN
IT_COMMAND$ IN PROCEDURE PUSH_EDIT_CMD
      8215**DCL      8270--IMP-PTR  8646<>CALL     8648>>ASSIGN   8649>>ASSIGN   8653>>ASSIGN
IT_OPERAND$ IN PROCEDURE PUSH_EDIT_CMD
      8219**DCL      8532--IMP-PTR  8687<>CALL     8689>>ASSIGN   8690>>ASSIGN   8691>>ASSIGN   8692>>ASSIGN
IT_SELECT$ IN PROCEDURE PUSH_EDIT_CMD
      8217**DCL      8458--IMP-PTR  8676<>CALL     8678>>ASSIGN   8679>>ASSIGN   8680>>ASSIGN   8684>>ASSIGN
      8685>>ASSIGN
LAST_NON_BLANK IN PROCEDURE PUSH_CONTEXT_FILE
      9640**DCL      9771<<CALLBLT  9773>>IF       9789>>ASSIGN   9903<<CALLBLT  9905>>ASSIGN
LINEATTR IN PROCEDURE PUSH_CONTEXT_FILE
      8905**DCL      8885--DCLINIT
LINEATTR.PROFILE# IN PROCEDURE PUSH_CONTEXT_FILE
      8907**DCL      8907--REDEF
LINEATTR.PROTXTC.CNT IN PROCEDURE PUSH_CONTEXT_FILE
      8907**DCL      9724<<ASSIGN   9834>>CALLBLT  9836>>ASSIGN
LINEATTR.PROTXTC.TXT IN PROCEDURE PUSH_CONTEXT_FILE
      8908**DCL      9834>>CALLBLT
LOAD_FLAGS
      6567**DCL      7883<<ASSIGN   7893<>CALL
LOAD_FLAGS.F
      6579**DCL      7884<<ASSIGN   7887<<ASSIGN   7888<<ASSIGN   7889<<ASSIGN   7891<<ASSIGN
M$CMDVAR
PL6.E3A0      #001=VDG$MAIN File=VDG$MAIN.:VDA5TSI                               FRI 07/04/97 11:18 Page:126
       221**DCL-ENT  9729--CALL
M$FID
       215**DCL-ENT  9757--CALL
M$FILE
      5513**DCL      7820--IF       7822<>CALL
M$GLINEATTR
       177**DCL-ENT  9720--CALL
M$INT
       207**DCL-ENT  7783--CALL
M$OPEN
       152**DCL-ENT  7799--CALL     9864--CALL     9875--CALL
M$SI
      5512**DCL      7798>>ASSIGN
M$TRAP
       206**DCL-ENT  7784--CALL
M$UNFID
       215**DCL-ENT  9901--CALL
M$XCON
       207**DCL-ENT  7782--CALL
MAXACCT IN PROCEDURE PUSH_CONTEXT_FILE
      9638**DCL      9741<<ASSIGN   9811<<ASSIGN   9860>>DOUNTIL
MFILE_STREAM$
      6565**DCL      7745<<ASSIGN   7822<>CALL
OALLOC_FAILED IN PROCEDURE PUSH_CONTEXT_FILE
      9926**LABEL    9888--CALLALT
OALLOC_FAILED IN PROCEDURE PUSH_EDIT_CMD
      8698**LABEL    8642--CALLALT  8646--CALLALT  8651--CALLALT  8671--CALLALT  8676--CALLALT  8682--CALLALT
      8687--CALLALT
OALLOC_FAILED IN PROCEDURE PUSH_INVOK_CMD
      8132**LABEL    8123--CALLALT  8127--CALLALT
OPEN_FAILED IN PROCEDURE PUSH_CONTEXT_FILE
      9910**LABEL    9870--GOTO     9881--GOTO
PROFILED_NAME IN PROCEDURE PUSH_CONTEXT_FILE
      9446**DCL      9863--ASSIGN
PROFILED_NAME.BYTES IN PROCEDURE PUSH_CONTEXT_FILE
      9450**DCL      9824<<ASSIGN   9826>>IF       9828<<CALLBLT  9830--ASSIGN   9834<<CALLBLT  9836--ASSIGN
PL6.E3A0      #001=VDG$MAIN File=VDG$MAIN.:VDA5TSI                               FRI 07/04/97 11:18 Page:127
      9841<<CALLBLT  9843--ASSIGN   9846<<CALLBLT  9848--ASSIGN
PROFILED_NAME.LENGTH# IN PROCEDURE PUSH_CONTEXT_FILE
      9450**DCL      9815<<ASSIGN   9823<<ASSIGN   9826>>IF       9828>>CALLBLT  9830<<ASSIGN   9830>>ASSIGN
      9834>>CALLBLT  9836<<ASSIGN   9836>>ASSIGN   9841>>CALLBLT  9843<<ASSIGN   9843>>ASSIGN   9846>>CALLBLT
      9848<<ASSIGN   9848>>ASSIGN   9862>>IF
PROFILE_INDEX IN PROCEDURE PUSH_CONTEXT_FILE
      9494**DCL      9818<<CALLBLT  9820>>IF       9822>>IF       9823>>ASSIGN   9824>>ASSIGN   9838>>IF
      9839>>IF       9846>>CALLBLT  9848>>ASSIGN   9853>>ASSIGN   9855>>CALLBLT
PUSH_CONTEXT_FILE
      8749**PROC     7831--CALL
PUSH_EDIT_CMD
      8208**PROC     7822--CALL
PUSH_INITIALIZE_CMDS
      9973**PROC     7903--CALL
PUSH_INVOK_CMD
      8014**PROC     7814--CALL
RECORD IN PROCEDURE PUSH_INITIALIZE_CMDS
     10001**DCL     10045--ASSIGN
RECORD.BYTES IN PROCEDURE PUSH_INITIALIZE_CMDS
     10029**DCL     10042>>ASSIGN
RECORD.FLINK$ IN PROCEDURE PUSH_INITIALIZE_CMDS
     10027**DCL     10045--ASSIGN  10048<>CALL    10055>>IF      10056>>ASSIGN
RECORD.LENGTH# IN PROCEDURE PUSH_INITIALIZE_CMDS
     10027**DCL     10029--IMP-SIZ 10041>>ASSIGN  10042>>ASSIGN
RET_CODE IN PROCEDURE PUSH_INITIALIZE_CMDS
     10035**DCL     10048<>CALL    10050>>IF      10050>>IF
SI$STREAM.DCB#
      6996**DCL      7805<<ASSIGN
SI$STREAM.ECHO
      6997**DCL      7806<<ASSIGN
SI$STREAM.TYPE#
      6995**DCL      7804<<ASSIGN
SINK IN PROCEDURE PUSH_CONTEXT_FILE
      9641**DCL      9771<<CALLBLT  9903<<CALLBLT
SI_STREAM$
      6563**DCL      6969--IMP-PTR  7743<<ASSIGN   7802<>CALL     7804>>ASSIGN   7805>>ASSIGN   7806>>ASSIGN
PL6.E3A0      #001=VDG$MAIN File=VDG$MAIN.:VDA5TSI                               FRI 07/04/97 11:18 Page:128
SUCCESSFULLY_OPENED
      6723**DCL      7953>>DOUNTIL  7954<<ASSIGN   7961<<ASSIGN
TEMP_ACCT IN PROCEDURE PUSH_CONTEXT_FILE
      9636**DCL      9751--ASSIGN   9809>>IF       9810>>ASSIGN
TEMP_NAME IN PROCEDURE PUSH_CONTEXT_FILE
      9629**DCL      9750--ASSIGN   9765>>ASSIGN   9805>>ASSIGN
TEMP_NAME.BYTES IN PROCEDURE PUSH_CONTEXT_FILE
      9633**DCL      9776<<ASSIGN   9779>>IF       9781<<CALLBLT  9783--ASSIGN   9787<<CALLBLT  9789--ASSIGN
      9794<<CALLBLT  9796--ASSIGN   9799<<CALLBLT  9801--ASSIGN   9853<<ASSIGN   9855>>CALLBLT
TEMP_NAME.LENGTH# IN PROCEDURE PUSH_CONTEXT_FILE
      9633**DCL      9763>>IF       9778<<ASSIGN   9779>>IF       9781>>CALLBLT  9783<<ASSIGN   9783>>ASSIGN
      9787>>CALLBLT  9789<<ASSIGN   9789>>ASSIGN   9794>>CALLBLT  9796<<ASSIGN   9796>>ASSIGN   9799>>CALLBLT
      9801<<ASSIGN   9801>>ASSIGN
TEST_OPEN
      6518**DCL      7796<<ASSIGN   7799<>CALL     7831<>CALL
TEST_OPEN.ACSVEH_
      6520**DCL      6521--REDEF
TEST_OPEN.ALTKEYS_
      6526**DCL      6527--REDEF    6527--REDEF
TEST_OPEN.HDR_
      6525**DCL      6526--REDEF
TEST_OPEN.TAB_
      6524**DCL      6525--REDEF
TEST_OPEN.UHL_
      6518**DCL      6519--REDEF    6519--REDEF
TEST_OPEN.V
      6527**DCL      7797--ASSIGN
TEST_OPEN.V.DCB#
      6527**DCL      7798<<ASSIGN   7801--IF       7805>>ASSIGN
TEST_OPEN.V.FSN#
      6558**DCL      6558--REDEF    6558--REDEF
TEST_OPEN.V_
      6518**DCL      7797<<ASSIGN
TEST_OPEN.WSN_
      6524**DCL      6524--REDEF
TEST_OPEN IN PROCEDURE PUSH_CONTEXT_FILE
PL6.E3A0      #001=VDG$MAIN File=VDG$MAIN.:VDA5TSI                               FRI 07/04/97 11:18 Page:129
      8817**DCL      8749--PROC     9864<>CALL     9875<>CALL
TEST_OPEN.ACCT_ IN PROCEDURE PUSH_CONTEXT_FILE
      8821**DCL      9861<<ASSIGN
TEST_OPEN.ACSVEH_ IN PROCEDURE PUSH_CONTEXT_FILE
      8819**DCL      8820--REDEF
TEST_OPEN.ALTKEYS_ IN PROCEDURE PUSH_CONTEXT_FILE
      8825**DCL      8826--REDEF    8826--REDEF
TEST_OPEN.HDR_ IN PROCEDURE PUSH_CONTEXT_FILE
      8824**DCL      8825--REDEF
TEST_OPEN.NAME_ IN PROCEDURE PUSH_CONTEXT_FILE
      8818**DCL      9863<<ASSIGN   9874<<ASSIGN
TEST_OPEN.PASS_ IN PROCEDURE PUSH_CONTEXT_FILE
      8819**DCL      9759<<ASSIGN
TEST_OPEN.SN_ IN PROCEDURE PUSH_CONTEXT_FILE
      8817**DCL      9760<<ASSIGN
TEST_OPEN.TAB_ IN PROCEDURE PUSH_CONTEXT_FILE
      8823**DCL      8824--REDEF
TEST_OPEN.UHL_ IN PROCEDURE PUSH_CONTEXT_FILE
      8817**DCL      8818--REDEF    8818--REDEF
TEST_OPEN.V.ASN# IN PROCEDURE PUSH_CONTEXT_FILE
      8836**DCL      9716<<ASSIGN   9755--ASSIGN
TEST_OPEN.V.DCB# IN PROCEDURE PUSH_CONTEXT_FILE
      8826**DCL      9715<<ASSIGN   9891>>ASSIGN   9892<<ASSIGN
TEST_OPEN.V.FSN# IN PROCEDURE PUSH_CONTEXT_FILE
      8857**DCL      8857--REDEF    8857--REDEF
TEST_OPEN.V.INITZ.SCRUB# IN PROCEDURE PUSH_CONTEXT_FILE
      8827**DCL      9717<<ASSIGN
TEST_OPEN.V.RES# IN PROCEDURE PUSH_CONTEXT_FILE
      8841**DCL      9756--ASSIGN
TEST_OPEN.WSN_ IN PROCEDURE PUSH_CONTEXT_FILE
      8823**DCL      8823--REDEF    9761<<ASSIGN
TOP$CMD_STREAM
      7047**DCL      7959<>CALL
TOP$CMD_STREAM.RECORD$
      7074**DCL     10045--ASSIGN
TOP$CMD_STREAM.TYPE#
PL6.E3A0      #001=VDG$MAIN File=VDG$MAIN.:VDA5TSI                               FRI 07/04/97 11:18 Page:130
      7073**DCL      7789<<ASSIGN   7955>>IF       7955>>IF      10039<<ASSIGN
UNAME_INDEX IN PROCEDURE PUSH_CONTEXT_FILE
      9493**DCL      9769<<CALLBLT  9773>>IF       9775>>IF       9776>>ASSIGN   9778>>ASSIGN   9791>>IF
      9792>>IF       9799>>CALLBLT  9801>>ASSIGN
UNFID$FID IN PROCEDURE PUSH_CONTEXT_FILE
      9684**DCL      9903>>CALLBLT  9907>>ASSIGN
UNFID_FAILED IN PROCEDURE PUSH_CONTEXT_FILE
      9910**LABEL    9901--CALLALT
VD$BUFFER.BYTES
      7437**DCL      9907<<ASSIGN
VD$BUFFER.LENGTH#
      7435**DCL      7437--IMP-SIZ  9906<<ASSIGN   9907>>ASSIGN
VD$BUFFER_HEADER
      7356**DCL      8127--CALL
VD$ERR
      6818**DCL      9923--ASSIGN
VD$ERR.DCB#
      6860**DCL      7847<<ASSIGN   7863<<ASSIGN
VD$ERR.ERR
      6855**DCL      7861<<ASSIGN
VD$ERR.ERR.CODE#
      6857**DCL      7845<<ASSIGN
VD$ERR.FLAGLEV#
      6860**DCL      7750<<ASSIGN   7846<<ASSIGN   7862<<ASSIGN
VD$PORT
      7258**DCL      7929<>CALL
VD$PORT.LEVEL.INTERNAL$
      7345**DCL      7932>>ASSIGN
VD$TEXTC.LENGTH# IN PROCEDURE PUSH_CONTEXT_FILE
      9701**DCL      9703--IMP-SIZ
VD$TEXTC_REMOTE.LENGTH#
      7532**DCL      7534--IMP-SIZ
VDA$LWRITE
      5495**DCL-ENT  7927--CALL
VDA$PFLUSH
      5496**DCL-ENT  7929--CALL
PL6.E3A0      #001=VDG$MAIN File=VDG$MAIN.:VDA5TSI                               FRI 07/04/97 11:18 Page:131
VDE$PSTRING
      5497**DCL-ENT 10048--CALL
VDG$EBREAK
      5503**DCL-ENT  6322--DCLINIT
VDG$EREPORT_ERROR
      5505**DCL-ENT  7751--CALL     7918--CALL     7942--CALL     7960--CALL
VDG$ERRMSG
      5498**DCL-ENT  7778--CALL    10051--CALL
VDG$ETRAP
      5504**DCL-ENT  6359--DCLINIT  6360--DCLINIT
VDG$EXCON
      5502**DCL-ENT  6307--DCLINIT
VDG$MINIT
      5489**DCL-ENT  7748--CALL
VDG$OALLOC
      5507**DCL-ENT  7787--CALL     7802--CALL     7843--CALL     7916--CALL     8123--CALL     8127--CALL
      8642--CALL     8646--CALL     8651--CALL     8671--CALL     8676--CALL     8682--CALL     8687--CALL
      9888--CALL    10038--CALL
VDG$OALLOC_DCB
      5508**DCL-ENT  9713--CALL
VDG$OFREE
      5509**DCL-ENT  7838--CALL     7899--CALL     7959--CALL    10052--CALL
VDG$WINIT
      5491**DCL-ENT  7764--CALL
VDI$CSET_COUNT
      5499**DCL-ENT  7872--CALL
VDI$PREAD_FILE_CLOSE
      5494**DCL-ENT  7898--CALL
VDI$PREAD_FILE_OPEN
      5492**DCL-ENT  7834--CALL     7957--CALL
VDP$WINIT
      5490**DCL-ENT  7758--CALL
VDW$LOAD
      5500**DCL-ENT  7893--CALL
VD_$COMMAND.V#
      5659**DCL      7873<<ASSIGN
PL6.E3A0      #001=VDG$MAIN File=VDG$MAIN.:VDA5TSI                               FRI 07/04/97 11:18 Page:132
VD_$CONTEXT.FLINK$
      5609**DCL      9906>>ASSIGN   9907>>ASSIGN   9907>>ASSIGN
VD_$CONTEXT.LENGTH#
      5609**DCL      5611--IMP-SIZ  9905<<ASSIGN   9906>>ASSIGN   9907>>ASSIGN
VD_$INITIALIZE.FLINK$
      5789**DCL     10041>>ASSIGN  10042>>ASSIGN  10042>>ASSIGN
VD_$INITIALIZE.LENGTH#
      5789**DCL      5791--IMP-SIZ  7902>>IF
VD_$SCREEN.V#
      5704**DCL      7870>>ASSIGN
VD_6E.CMD_STREAM$
      5550**DCL      7047--IMP-PTR  7789>>ASSIGN   7955>>IF       7955>>IF       7959>>CALL    10039>>ASSIGN
     10045>>ASSIGN  10052<>CALL
VD_6E.ERR_HEAD$
      5551**DCL      6916--IMP-PTR  7539--IMP-PTR  7836>>IF       7941>>IF       9916>>ASSIGN   9917>>ASSIGN
      9923>>ASSIGN   9924>>ASSIGN
VD_6E.ERR_TAIL$
      5551**DCL      7750>>ASSIGN   7941>>IF
VD_6E.STRUCTURE_EXTERNAL$
      5533**DCL      8663>>ASSIGN
VD_6E.WINDOWS$
      5533**DCL      7086--IMP-PTR  7740<<ASSIGN   7927>>CALL     7929>>CALL     7932>>ASSIGN
VD_COMMAND_WINDOW$
      5555**DCL      7741<<ASSIGN   7906>>IF       7932<<ASSIGN
VD_EDITING_HEIGHT
      5707**DCL      7922>>ASSIGN
VD_ERR$
      6451**DCL      6818--IMP-PTR  7843<>CALL     7845>>ASSIGN   7846>>ASSIGN   7847>>ASSIGN   7861>>ASSIGN
      7862>>ASSIGN   7863>>ASSIGN
VD_KEY_NUMERIC_BOF
      6017**DCL      8660>>ASSIGN
VD_LOC_$SCREEN
      5718**DCL      7872<>CALL
VD_OLD_$SCREEN
      5709**DCL      7870<<ASSIGN   7871>>IF
VD_STATIC_TEMP
PL6.E3A0      #001=VDG$MAIN File=VDG$MAIN.:VDA5TSI                               FRI 07/04/97 11:18 Page:133
      6176**DCL      9728--ASSIGN   9899--ASSIGN   9903--CALLBLT  9907--ASSIGN   9926--ASSIGN  10043--ASSIGN
VD_STATIC_TEMP.BYTES
      6180**DCL      9748--ASSIGN   9767<<CALLBLT  9769>>CALLBLT  9816<<CALLBLT  9818>>CALLBLT 10042<<ASSIGN
VD_STATIC_TEMP.LENGTH#
      6180**DCL      9733<<ASSIGN   9743>>IF       9748>>ASSIGN  10041<<ASSIGN  10047>>DOUNTIL
VD_TOP_LINE
      5708**DCL      7921>>ASSIGN
WINDOW$SPEC.COMMAND
      7218**DCL      7920<<ASSIGN
WINDOW$SPEC.COORDS.HEIGHT#
      7219**DCL      7922<<ASSIGN
WINDOW$SPEC.COORDS.LINE#
      7218**DCL      7921<<ASSIGN
WINDOWS$STREAM
      7086**DCL      7927<>CALL
WINDOWS$STREAM.PORT$
      7112**DCL      7929>>CALL     7932>>ASSIGN
WINDOW_SPEC$
      6724**DCL      7192--IMP-PTR  7916<>CALL     7920>>ASSIGN   7921>>ASSIGN   7922>>ASSIGN   7926>>ASSIGN
WSPEC
      6733**DCL      7923<<ASSIGN   7927<>CALL
WSPEC.REP#
      6737**DCL      7925<<ASSIGN
WSPEC.TYPE#
      6737**DCL      7924<<ASSIGN
WSPEC.V$
      6737**DCL      7926<<ASSIGN
XUE_ECB.OUT$
      5842**DCL     10043<<ASSIGN

PL6.E3A0      #002=VDG$START File=VDG$MAIN.:VDA5TSI                              FRI 07/04/97 11:19 Page:134
     1008        1        /*T***********************************************************/
     1009        2        /*T*                                                         */
     1010        3        /*T* Copyright (c) Bull HN Information Systems Inc., 1997    */
     1011        4        /*T*                                                         */
     1012        5        /*T***********************************************************/
     1013        6        /*D* NAME: VDG$START
     1014        7             DESCRIPTION:
     1015        8                Main entry point for 6edit so that the VDG$MAIN auto can be reused.
     1016        9        */
     1017       10        VDG$START: PROC MAIN;
     1018       11
     1019       12    1   DCL VDG$MAIN            ENTRY;
     1020       13    1   DCL VDG$MTERMINATE      ENTRY;
     1021       14    1   DCL VDI$PDRIVER         ENTRY ALTRET;
     1022       15
     1023       16    1           CALL VDG$MAIN;
     1024       17                /*
     1025       18                *   Begin processing commands.
     1026       19                */
     1027       20
     1028       21    1           CALL VDI$PDRIVER;
     1029       22
     1030       23    1           CALL VDG$MTERMINATE; /* We'll never come back from this */
     1031       24
     1032       25    1   END VDG$START;
     1033       26        %EOD;

PL6.E3A0      #002=VDG$START File=VDG$MAIN.:VDA5TSI                              FRI 07/04/97 11:19 Page:135
--  Include file information  --

   B$JIT_C.:E04TOU  was found in the system file and is never referenced.
   CP_6_C.:E04TOU  was found in the system file and is never referenced.
      No diagnostics issued in procedure VDG$START.

   Procedure VDG$START requires 12 words for executable code.
   Procedure VDG$START requires 4 words of local(AUTO) storage.

PL6.E3A0      #002=VDG$START File=VDG$MAIN.:VDA5TSI                              FRI 07/04/97 11:19 Page:136

 Object Unit name= VDG$START                                  File name= VDG$MAIN.:VDA5TOU
 UTS= JUL 04 '97 11:19:23.00 FRI                              Compiler= PL-6/E31         Sev=      00
 SharedLib= :SHARED_SYSTEM                                    Alt SharedLib=


    ****  Control sections  ****

 Sect   Type Bound  Init  Size OctSiz  Section name(segment info)
    0   Proc  even  none    12     14  VDG$START

    ****  Entry defs  ****

                              Check   Calling
                             calling  sequence
  Sect OctLoc Primary Altret sequence   type   Parms  Name
     0      0   yes            yes      Main       0  VDG$START

  ****  Entry refs  ****

         Check        Calling
        calling       sequence
Altret sequence SRef   type   Args  Name
         yes           Std       0 VDG$MAIN
 yes     yes           Std       0 VDI$PDRIVER
         yes           Std       0 VDG$MTERMINATE
                       nStd      0 X66_MAUTO
                       Std       0 B_CONSPOOL_D
                       nStd      0 X66_MARET

  ****  Data refs  ****

  Flags:  r = read only, s = secondary
Flgs Name                             Flgs Name                             Flgs Name
     B_VECTNIL
PL6.E3A0      #002=VDG$START File=VDG$MAIN.:VDA5TSI                              FRI 07/04/97 11:19 Page:137


     1008        1        /*T***********************************************************/
     1009        2        /*T*                                                         */
     1010        3        /*T* Copyright (c) Bull HN Information Systems Inc., 1997    */
     1011        4        /*T*                                                         */
     1012        5        /*T***********************************************************/
     1013        6        /*D* NAME: VDG$START
     1014        7             DESCRIPTION:
     1015        8                Main entry point for 6edit so that the VDG$MAIN auto can be reused.
     1016        9        */
     1017       10        VDG$START: PROC MAIN;

     10  0 000000   000000 700200 xent  VDG$START    TSX0  ! X66_MAUTO
         0 000001   000004 000000                    ZERO    4,0

     1018       11
     1019       12    1   DCL VDG$MAIN            ENTRY;
     1020       13    1   DCL VDG$MTERMINATE      ENTRY;
     1021       14    1   DCL VDI$PDRIVER         ENTRY ALTRET;
     1022       15
     1023       16    1           CALL VDG$MAIN;

     16  0 000002   000002 631400 xsym               EPPR1   B_VECTNIL+2
         0 000003   000000 701000 xent               TSX1    VDG$MAIN
         0 000004   000000 011000                    NOP     0

     1024       17                /*
     1025       18                *   Begin processing commands.
     1026       19                */
     1027       20
     1028       21    1           CALL VDI$PDRIVER;

     21  0 000005   000002 631400 xsym               EPPR1   B_VECTNIL+2
         0 000006   000000 701000 xent               TSX1    VDI$PDRIVER
         0 000007   000000 011000                    NOP     0

     1029       22
PL6.E3A0      #002=VDG$START File=VDG$MAIN.:VDA5TSI                              FRI 07/04/97 11:19 Page:138
     1030       23    1           CALL VDG$MTERMINATE; /* We'll never come back from this */

     23  0 000010   000002 631400 xsym               EPPR1   B_VECTNIL+2
         0 000011   000000 701000 xent               TSX1    VDG$MTERMINATE
         0 000012   000000 011000                    NOP     0

     1031       24
     1032       25    1   END VDG$START;

     25  0 000013   000000 702200 xent               TSX2  ! X66_MARET
     1033       26        %EOD;

PL6.E3A0      #002=VDG$START File=VDG$MAIN.:VDA5TSI                              FRI 07/04/97 11:19 Page:139
--  Include file information  --

   B$JIT_C.:E04TOU  was found in the system file and is never referenced.
   CP_6_C.:E04TOU  was found in the system file and is never referenced.
      No diagnostics issued in procedure VDG$START.
PL6.E3A0      #002=VDG$START File=VDG$MAIN.:VDA5TSI                              FRI 07/04/97 11:19 Page:140

 **** Variables and constants ****


   Procedure VDG$START requires 12 words for executable code.
   Procedure VDG$START requires 4 words of local(AUTO) storage.
PL6.E3A0      #002=VDG$START File=VDG$MAIN.:VDA5TSI                              FRI 07/04/97 11:19 Page:141
          *** CROSS REFERENCE LISTING ***
**     DENOTES     IDENTIFIER DEFINITION
<<                 IDENTIFIER'S VALUE SET
>>                 IDENTIFIER'S VALUE USED
<>                 IDENTIFIER SET AND/OR USED
--                 IDENTIFIER REFERENCED
PL6.E3A0      #002=VDG$START File=VDG$MAIN.:VDA5TSI                              FRI 07/04/97 11:19 Page:142
          MINI XREF LISTING

VDG$MAIN
        12**DCL-ENT    16--CALL
VDG$MTERMINATE
        13**DCL-ENT    23--CALL
VDI$PDRIVER
        14**DCL-ENT    21--CALL

