PL6.E3A0      #004=VDG$MTERMINATE File=VDG$MAIN.:VDA5TSI                         FRI 07/04/97 11:20 Page:231
     1971        1        /*T***********************************************************/
     1972        2        /*T*                                                         */
     1973        3        /*T* Copyright (c) Bull HN Information Systems Inc., 1997    */
     1974        4        /*T*                                                         */
     1975        5        /*T***********************************************************/
     1976        6
     1977        7        /*D* NAME: VDG$MTERMINATE
     1978        8            PARAMETERS:
     1979        9                None.
     1980       10            INPUT:
     1981       11                VD_6E.STATS#, .STATS_OBJECTS#, .STATS_ERRORS#, and .STATS_TOKENS#
     1982       12                    arrays should contain the statistics for this invocation
     1983       13                    of the editor.
     1984       14                VD_6E.ERR_HEAD$ must point to a VD$ERR which is reserved for
     1985       15                    fatal errors.  If there is no fatal (or initialization) error
     1986       16                    to report, this VD$ERR's .ERR should be %CLEAR.  Note that
     1987       17                    only this first fatal error is handled by VDG$MTERMINATE;
     1988       18                    non-fatal errors should have been reported before getting
     1989       19                    here.  We allow a fatal error to get to MTERMINATE so
     1990       20                    a final, fatal error message will remain on the user's
     1991       21                    screen after the Pres'r restores the screen to its original
     1992       22                    state.
     1993       23                VD_6E.WINDOWS$ should be NIL, or point to a VD$STREAM which is
     1994       24                    open to the Windows file.
     1995       25                VD_6E.SOURCE.OPERAND.STREAM$ should be NIL, or point to a VD$STREAM
     1996       26                    for the Source operand (open or closed).
     1997       27                VD_6E.INTERRUPT should contain any info about an asynchronous
     1998       28                    event being processed; if none is being processed,
     1999       29                    VD_6E.INTERRUPT.CODE# should = %CLEAR.  Specifically, if
     2000       30                    we're terminating due to a hardware fault, we should RETURN
     2001       31                    when done, rather than M$EXITing.
     2002       32                XUG_GETCMD - If there is a fatal error to report, then XUG_GETCMD
     2003       33                    must be filled in and ready for a call to XUG$ERRMSG.
     2004       34                    Specifically, its .ERR_CODE, .FLGLEV, .USE_EPOS, .EPOS,
     2005       35                    .ERRDCB, and .F1_, .F2_, and .F3_ must be filled in.
     2006       36                VD_$RESTORE is a VD$BUFFER whose value is an IBEX command.
     2007       37                    It may have a 0-length value.
PL6.E3A0      #004=VDG$MTERMINATE File=VDG$MAIN.:VDA5TSI                         FRI 07/04/97 11:20 Page:232
     2008       38                VD_EXIT should point to the error code word (if any) for the
     2009       39                    last error, and must contain the STEPCC value to be
     2010       40                    returned to the monitor for 6Edit.
     2011       41            OUTPUT:
     2012       42                None.
     2013       43            DESCRIPTION:
     2014       44                If VD_6E.ERR_HEAD$ contains an error at entry, we'll ignore
     2015       45                    most errors we might get during termination; otherwise
     2016       46                    we'll report these errors.
     2017       47                Close all streams.
     2018       48                Update the system statistics file.
     2019       49                Call the Presenter's termination entry-point, to restore the
     2020       50                    user's terminal to its pre-invocation state.
     2021       51                If VD_$RESTORE has a non-NIL value, pass the value to IBEX to execute.
     2022       52                If we were entered with a fatal error, call XUG$ERRMSG to
     2023       53                    write the error message.
     2024       54                    Also, if the error is %E$HUH (internal error), M$ALIB
     2025       55                    to DELTA to PLUGH to the terminal.
     2026       56                If VD_6E.INTERRUPT shows that we were interrupted by a hardware
     2027       57                    fault, then we were called by an ASYNC routine, and
     2028       58                    the top frame of the TCB's exceptional condition stack
     2029       59                    describes the error.  Instead of M$EXITing, we should
     2030       60                    just return:  this will re-execute the offending
     2031       61                    instruction, which should yield the appropriate monitor
     2032       62                    response (we should no longer be trapping hardware faults).
     2033       63                Otherwise, look at VD_EXIT's STEPCC value:  based on that value,
     2034       64                    either M$EXIT or M$ERR back to the monitor.
     2035       65        */
     2036       66
     2037       67        VDG$MTERMINATE: PROC;
     2038       68
     2039       69
     2040       70        %INCLUDE CP_6;
     2041      151        %INCLUDE B_ERRORS_C;
     2042     1277        %INCLUDE VD_MACROS_M;
     2043     3492        %INCLUDE VD_PERR_C;
     2044     3640        %INCLUDE VD_NODES0_E;
PL6.E3A0      #004=VDG$MTERMINATE File=VDG$MAIN.:VDA5TSI                         FRI 07/04/97 11:20 Page:233
     2045     3732        %INCLUDE XU_MACRO_C;
     2046     6826        %INCLUDE XUG_ENTRY;
     2047     6857        %INCLUDE B$TABLES_C;
     2048     6965        %INCLUDE B$JIT;
     2049     7255        %INCLUDE CP_6_SUBS;
     2050     7795        %INCLUDE XUD_UTS_M;
     2051     7877
     2052     7878
     2053     7879    1   DCL VDA$FCLOSE          ENTRY (1) ALTRET;
     2054     7880    1   DCL VDG$EREPORT_ERROR   ENTRY (1);
     2055     7881    1   DCL VDP$WTERMINATE      ENTRY;
     2056     7882
     2057     7883
     2058     7884    1   DCL M$ME DCB;
     2059     7885    1   DCL M$DO DCB;
     2060     7886    1   DCL M$E9 DCB;
     2061     7887    1   DCL B$TCB$ PTR SYMREF;
     2062     7888    1   DCL B$JIT$ PTR SYMREF;
     2063     7889    1   DCL VD_UTS_START UBIN SYMREF;
     2064     7890        %VD_6E (STCLASS=SYMREF);
     2065     7926        %XUG_GETCMD (NAME=XUG_GETCMD, STCLASS=SYMREF);
     2066     8264        %VD_BUFFER (NAME=VD_$RESTORE, STCLASS=SYMREF, MXNB=%MXNB_$RESTORE);
     2067     8324        %FPT_EXIT (FPTN=VD_EXIT, STCLASS=SYMREF);
     2068     8339        %VD_TEXTC (NAME=B_VERSION, STCLASS=SYMREF, MXNB=%NB_VERSION);
     2069     8480        %B$SR_NON_BLANK;
     2070     8484        %B$XL_UPPER;
     2071     8488        %XUD$UTS_ENTRIES;
     2072     8520
     2073     8521
     2074     8522
     2075     8523        %FPT_ALIB (STCLASS=CONSTANT, CMD=DELTA_CMD, LIBNAME=DELTA_FID, RETRN=YES);
     2076     8540    1   DCL DELTA_CMD CHAR(0) CONSTANT INIT('PLUGH');
     2077     8541        %VD_TEXTC (NAME=DELTA_FID, STCLASS=CONSTANT, IBYTES='DELTA_NEW');
     2078     8682        %FPT_XCON (FPTN=REVOKE_EXIT_CONTROL, STCLASS=CONSTANT, UENTRY=NIL);
     2079     8696
     2080     8697
     2081     8698
PL6.E3A0      #004=VDG$MTERMINATE File=VDG$MAIN.:VDA5TSI                         FRI 07/04/97 11:20 Page:234
     2082     8699        %VD$ERR (NAME=ORIG_ERR, STCLASS=AUTO);
     2083     8752
     2084     8753
     2085     8754        %VD$ERR (NAME=FATAL$ERR, STCLASS="BASED(VD_6E.ERR_HEAD$)");
     2086     8807        %VD$TEXTC;
     2087     8830        %B$TCB;
     2088     8833        %B$ALT;
     2089     8841        %F$DCB;
     2090     8898
     2091     8899
     2092     8900
     2093     8901    1           ORIG_ERR = FATAL$ERR;
     2094     8902
     2095     8903    1           CALL CLOSE_ALL_STREAMS;
     2096     8904    1           GOTO UPDATE_STATS;
     2097     8905
     2098     8906
     2099     8907    1   VDG$MTERMINATE_FORCED: ENTRY;    /* If we screech while we're screeching */
     2100     8908    1           ORIG_ERR = FATAL$ERR;
     2101     8909
     2102     8910
     2103     8911    1   UPDATE_STATS:
     2104     8912    1           CALL UPDATE_STATISTICS_FILE;
     2105     8913
     2106     8914    1           CALL VDP$WTERMINATE;
     2107     8915
     2108     8916                /*
     2109     8917                *   Hey!! The terminal has been restored to it's pre-invocation
     2110     8918                *       state now -- so we can write to it if we want!!
     2111     8919                */
     2112     8920
     2113     8921    2           IF ORIG_ERR.ERR ~= %CLEAR THEN DO;
     2114     8922                   /* VDG$EREPORT_ERROR already setup XUG_GETCMD with error info */
     2115     8923    2              CALL XUG$ERRMSG (XUG_GETCMD);
     2116     8924    2              END;
     2117     8925    2           IF ORIG_ERR.ERR.CODE# = %E$HUH THEN DO;
     2118     8926    2              CALL M$ALIB (FPT_ALIB)       /* PL to the terminal */
PL6.E3A0      #004=VDG$MTERMINATE File=VDG$MAIN.:VDA5TSI                         FRI 07/04/97 11:20 Page:235
     2119     8927    3              WHENALTRETURN DO; ; END;
     2120     8928    2              END;
     2121     8929
     2122     8930    1           IF VD_$RESTORE.LENGTH# > 0 AND VD_$RESTORE.BYTES ~= '0' THEN
     2123     8931    1              CALL PROCESS_RESTORE;
     2124     8932
     2125     8933
     2126     8934    2           IF VD_6E.INTERRUPT.STATE# = %INST_HW_TRAPPED THEN DO;
     2127     8935    2              VD_6E.INTERRUPT.STATE# = %INST_PROCESSING;
     2128     8936    2              RETURN;  /* Return from ASYNC routine (VDI$INT_TRAP) */
     2129     8937    2              END;
     2130     8938
     2131     8939    1           CALL M$XCON (REVOKE_EXIT_CONTROL);
     2132     8940    1           IF VD_EXIT.V.STEPCC# = 0 THEN
     2133     8941    1              CALL M$EXIT (VD_EXIT);
     2134     8942    1           ELSE
     2135     8943    1              CALL M$ERR (VD_EXIT);
     2136     8944
     2137     8945
     2138     8946        %BOX (TITLE=CLOSE_ALL_STREAMS, PAGE=YES);
              8954    1
              8958    1   /***************************************************************************
              8960    1    *                                                                         *
              8964    1            *                             CLOSE_ALL_STREAMS                           *
              8966    1            *                                                                         *
              8968    1           ***************************************************************************/

     2139     8972
     2140     8973        /*I* NAME: CLOSE_ALL_STREAMS
     2141     8974            PARAMETERS:
     2142     8975                None.
     2143     8976            INPUT:
     2144     8977                ORIG_ERR must contain the original VD$ERR pointed-to by
     2145     8978                    VD_6E.ERR_HEAD$ at entry to VDG$MTERMINATE.
     2146     8979            OUTPUT:
     2147     8980                The VD$ERR at VD_6E.ERR_HEAD$ will be cleared.
     2148     8981            DESCRIPTION:
PL6.E3A0      #004=VDG$MTERMINATE File=VDG$MAIN.:VDA5TSI                         FRI 07/04/97 11:20 Page:236
     2149     8982                Loop thru the windows file, and close all streams to which
     2150     8983                editing windows are open.
     2151     8984                Close the Source stream.
     2152     8985                Note that doing these closes could cause a fatal error, and
     2153     8986                we always want to report the original fatal error from entry
     2154     8987                to VDG$MTERMINATE.
     2155     8988                If we get an error during these closes:
     2156     8989                    If we've saved a fatal error, ignore the new error.
     2157     8990                    If we didn't save a fatal error, then report the
     2158     8991                        new error immediately.
     2159     8992        */
     2160     8993
     2161     8994    1   CLOSE_ALL_STREAMS: PROC;
     2162     8995
     2163     8996    2   DCL L0_NODE$ PTR;
     2164     8997    2   DCL L1_NODE$ PTR;
     2165     8998    2   DCL WINDOW_SPEC$ PTR;
     2166     8999
     2167     9000
     2168     9001        %VD$FILE_NODE (NAME=L0$NODE, STCLASS="BASED(L0_NODE$)");
     2169     9094        %VD$FILE_NODE (NAME=L1$NODE, STCLASS="BASED(L1_NODE$)");
     2170     9187        %VD$WINDOW_SPEC (NAME=WINDOW$SPEC, STCLASS="BASED(WINDOW_SPEC$)");
     2171     9253        %VD$STREAM;
     2172     9359        %VD$PORT;
     2173     9457
     2174     9458
     2175     9459
     2176     9460
     2177     9461                /*
     2178     9462                *   Loop thru the Windows file, closing any Streams the
     2179     9463                *       windows have left open.
     2180     9464                */
     2181     9465
     2182     9466    2           IF VD_6E.WINDOWS$ = ADDR(NIL) THEN RETURN;
     2183     9467    2           IF VD_6E.WINDOWS$->VD$STREAM.PORT$ = ADDR(NIL) THEN RETURN;
     2184     9468    2           IF VD_6E.WINDOWS$->VD$STREAM.PORT$->VD$PORT.EXIST# = 0 THEN RETURN;
     2185     9469    2           L0_NODE$ = VD_6E.WINDOWS$->VD$STREAM.PORT$->
PL6.E3A0      #004=VDG$MTERMINATE File=VDG$MAIN.:VDA5TSI                         FRI 07/04/97 11:20 Page:237
     2186     9470    2             VD$PORT.LEVEL.INTERNAL$ (%LVL_FILE);
     2187     9471    2           IF L0_NODE$ = ADDR(NIL) THEN RETURN;
     2188     9472
     2189     9473    2           L1_NODE$ = L0$NODE.HEAD$;
     2190     9474    3           DO WHILE L1_NODE$ ~= ADDR(NIL);
     2191     9475    3              WINDOW_SPEC$ = L1$NODE.DESC.SPEC.V$;
     2192     9476    3              IF WINDOW_SPEC$ ~= ADDR(NIL) THEN
     2193     9477    4                 IF WINDOW$SPEC.OPERAND.STREAM$ ~= ADDR(NIL) THEN DO;
     2194     9478    4                    CALL VDA$FCLOSE (WINDOW$SPEC.OPERAND.STREAM$->VD$STREAM)
     2195     9479    5                    WHENALTRETURN DO;
     2196     9480    5                       IF ORIG_ERR.ERR = %CLEAR THEN
     2197     9481    5                          CALL VDG$EREPORT_ERROR;
     2198     9482    5                       END;
     2199     9483    4                    END;
     2200     9484    3              L1_NODE$ = L1$NODE.FLINK$;
     2201     9485    3              END;
     2202     9486
     2203     9487
     2204     9488                /*
     2205     9489                *   Close the Source stream, if it's open.
     2206     9490                */
     2207     9491
     2208     9492    3           IF VD_6E.SOURCE.OPERAND.STREAM$ ~= ADDR(NIL) THEN DO;
     2209     9493    3              CALL VDA$FCLOSE (VD_6E.SOURCE.OPERAND.STREAM$->VD$STREAM)
     2210     9494    4              WHENALTRETURN DO;
     2211     9495    4                 IF ORIG_ERR.ERR = %CLEAR THEN
     2212     9496    4                    CALL VDG$EREPORT_ERROR;
     2213     9497    4                 END;
     2214     9498    3              END;
     2215     9499
     2216     9500    2           RETURN;
     2217     9501
     2218     9502    2   END CLOSE_ALL_STREAMS;
     2219     9503
     2220     9504        %BOX (TITLE=UPDATE_STATISTICS_FILE, PAGE=YES);
              9512    2
              9516    2   /***************************************************************************
PL6.E3A0      #004=VDG$MTERMINATE File=VDG$MAIN.:VDA5TSI                         FRI 07/04/97 11:20 Page:238
              9518    2    *                                                                         *
              9522    2            *                           UPDATE_STATISTICS_FILE                        *
              9524    2            *                                                                         *
              9526    2           ***************************************************************************/

     2221     9530
     2222     9531        /*I* NAME: UPDATE_STATISTICS_FILE
     2223     9532            PARAMETERS:
     2224     9533                None.
     2225     9534            INPUT:
     2226     9535            OUTPUT:
     2227     9536            DESCRIPTION:
     2228     9537        */
     2229     9538
     2230     9539    1   UPDATE_STATISTICS_FILE: PROC;
     2231     9540
     2232     9541
     2233     9542        /*
     2234     9543        *   Local definitions for statistics file.
     2235     9544        */
     2236     9545
     2237     9546        %EQU NB_STATS_KEY = 7;      /* Length of record key */
     2238     9547
     2239     9548        %EQU STK_TOTAL = 'TOTAL  '; /* Key of totals record */
     2240     9549        %EQU STK_ERROR = 'ERROR_n'; /* Key of error recs ("n" is bucket#) */
     2241     9550        %EQU STK_CMDLN = 'CMDLN_n'; /* Key of user-cmdline records */
     2242     9551        %EQU STK_FILES = 'FILES_n'; /* Key of file-opens records */
     2243     9552        %EQU STK_DURATION = 'DURAT_n'; /* Key of session-duration records */
     2244     9553
     2245     9554        /*
     2246     9555        *   Total # records in file:  1 TOTAL record, and 10*3 other
     2247     9556        *       records (10 buckets for each of 3 record types).
     2248     9557        */
     2249     9558
     2250     9559        %EQU N_STKEYS = 31;
     2251     9560
     2252     9561        /*  How to compute the bucket #s for each record type */
PL6.E3A0      #004=VDG$MTERMINATE File=VDG$MAIN.:VDA5TSI                         FRI 07/04/97 11:20 Page:239
     2253     9562
     2254     9563        %EQU STDIV_ERROR = 20;      /* # errors per bucket */
     2255     9564        %EQU STDIV_CMDLN = 50;      /* # cmdlines per bucket */
     2256     9565        %EQU STDIV_DURATION = 120; /* # seconds duration per bucket */
     2257     9566
     2258     9567        /*
     2259     9568        *   Local definitions for offsets into:
     2260     9569        *       o The statistics file record key, and
     2261     9570        *       o The statistics file record itself.
     2262     9571        */
     2263     9572
     2264     9573        %EQU KEYOFS_BUCKET_NUM = NB_STATS_KEY - 1;
     2265     9574
     2266     9575        /*
     2267     9576        *   Word at offset 0 = # updates of this stats record;
     2268     9577        *           offset 1 = execution time in 6Edit represented by this
     2269     9578        *                       update, in (microseconds / 524288).
     2270     9579        *   Stats arrays start at offset 2.
     2271     9580        */
     2272     9581        %EQU RECOFS_GEN = 2;
     2273     9582        %EQU RECOFS_OBJECTS = RECOFS_GEN + STG_MX + 1;
     2274     9583        %EQU RECOFS_ERRORS = RECOFS_OBJECTS + CLS_MX + 1;
     2275     9584        %EQU RECOFS_TOKENS = RECOFS_ERRORS + MX_ERROR_CODE + 1;
     2276     9585        %EQU RECOFS_END = RECOFS_TOKENS + MX_TOKEN + 1;
     2277     9586
     2278     9587
     2279     9588
     2280     9589        %FPT_MONINFO (STCLASS=CONSTANT, SITEINFO=VLR_SITEINFO);
     2281     9604        %FPT_OPEN (FPTN=CONST_STATS_OPEN, DCB=M$E9, ASN=FILE, FUN=CREATE,
     2282     9605            EXIST=OLDFILE, ACCT=STATS_ACCT, ACCESS=STATS_ACCESS,
     2283     9606            ORG=KEYED, ACS=DIRECT, IXTNSIZE="%(N_STKEYS * RECOFS_END / 1000)",
     2284     9607            SCRUB=YES, SHARE=ALL, TYPE=%CHR_STATS_TYPE, PASS=STATS_PASS);
     2285     9716        %VLP_ACCT (FPTN=STATS_ACCT, STCLASS=CONSTANT, ACCT=%CHR_STATS_ACCT);
     2286     9729        %VLP_PASS (FPTN=STATS_PASS, STCLASS=CONSTANT, PASS=%CHR_STATS_PASS);
     2287     9742
     2288     9743        %VLP_ATTR (FPTN=STATS_ACCESS, STCLASS=CONSTANT);
     2289     9757        %VLP_ACCESS (STCLASS=CONSTANT, READ=YES, WNEW=YES, UPD=YES, DELR=YES,
PL6.E3A0      #004=VDG$MTERMINATE File=VDG$MAIN.:VDA5TSI                         FRI 07/04/97 11:20 Page:240
     2290     9758            ACCT='?', LAST=";");
     2291     9775
     2292     9776        %FPT_ENQ (FPTN=STATS_ENQ, STCLASS=CONSTANT, DCB=M$E9, RNAME=STATS_RNAME,
     2293     9777            SHARE=NONE, WAIT_TIME=%MX_STATS_ENQ_WAIT);
     2294     9795        %FPT_DEQ (FPTN=STATS_DEQ, STCLASS=CONSTANT, DCB=M$E9, RNAME=STATS_RNAME);
     2295     9812        %VD_TEXTC (NAME=STATS_RNAME, STCLASS=CONSTANT, IBYTES=%CHR_STATS_RNAME);
     2296     9953        %FPT_CLOSE (FPTN=STATS_CLOSE, STCLASS=CONSTANT, DCB=M$E9, DISP=SAVE);
     2297     9995
     2298     9996
     2299     9997        %FPT_TIME (FPTN=CONST_FPT_TIME, STCLASS=CONSTANT, SOURCE=CLOCK,
     2300     9998            DEST=UTS);
     2301    10017
     2302    10018
     2303    10019
     2304    10020        %VLR_SITEINFO (STCLASS=STATIC);
     2305    10039
     2306    10040
     2307    10041
     2308    10042        %FPT_OPEN (FPTN=STATS_OPEN, STCLASS=AUTO);
     2309    10151        %VD_TEXTC (NAME=STATS_NAME, STCLASS=AUTO, MXNB=%MXNB_FILE_NAME);
     2310    10292        %FPT_XEQTIME (STCLASS=AUTO);
     2311    10305    2   DCL 1 XEQTIME DALIGNED,
     2312    10306    2         2 * BIT(18),
     2313    10307    2         2 MICROS_DIV_512K UBIN(35) UNAL,
     2314    10308    2         2 * BIT(19),
     2315    10309    2         2 * BIT(72);
     2316    10310    2   DCL BUCKET_NUM SBIN;
     2317    10311        %FPT_TIME (STCLASS=AUTO);
     2318    10330    2   DCL UTS_END UBIN;
     2319    10331
     2320    10332
     2321    10333
     2322    10334    2           CALL M$MONINFO (FPT_MONINFO);
     2323    10335    2           IF SUBSTR(VLR_SITEINFO.SITE_NAME#.C, 0,
     2324    10336    2             VLR_SITEINFO.SITE_NAME#.L) ~= %CHR_STATS_SITE_A
     2325    10337    2             AND SUBSTR(VLR_SITEINFO.SITE_NAME#.C, 0,
     2326    10338    2             VLR_SITEINFO.SITE_NAME#.L) ~= %CHR_STATS_SITE_B THEN
PL6.E3A0      #004=VDG$MTERMINATE File=VDG$MAIN.:VDA5TSI                         FRI 07/04/97 11:20 Page:241
     2327    10339    2              RETURN;
     2328    10340
     2329    10341    2           STATS_OPEN = CONST_STATS_OPEN;
     2330    10342    2           STATS_OPEN.NAME_ = VECTOR(STATS_NAME);
     2331    10343    2           STATS_OPEN.V_ = VECTOR(STATS_OPEN.V);
     2332    10344    2           CALL CONCAT (STATS_NAME.BYTES, %CHR_STATS_NAME, %CHR_UNDERSCORE,
     2333    10345    2             SUBSTR(B_VERSION.BYTES, 0, B_VERSION.LENGTH#));
     2334    10346    2           STATS_NAME.LENGTH# = %LENGTHC(CHR_STATS_NAME) +
     2335    10347    2             %LENGTHC(CHR_UNDERSCORE) + B_VERSION.LENGTH#;
     2336    10348    2           CALL M$OPEN (STATS_OPEN)
     2337    10349    3           WHENALTRETURN DO;
     2338    10350    3              RETURN;
     2339    10351    3              END;
     2340    10352
     2341    10353    2           CALL M$ENQ (STATS_ENQ)      /* Get in line for excl access */
     2342    10354    2             ALTRET (CLOSE_STATS);
     2343    10355
     2344    10356    2           XEQTIME = %CLEAR;
     2345    10357    2           FPT_XEQTIME.BUF_ = VECTOR(XEQTIME);
     2346    10358    2           CALL M$XEQTIME (FPT_XEQTIME);
     2347    10359
     2348    10360    2           CALL SUM_INTO_STATS_REC (%STK_TOTAL);
     2349    10361
     2350    10362    2           BUCKET_NUM = VD_6E.STATS_ERRORS# (0) / %STDIV_ERROR;
     2351    10363    2           CALL SUM_INTO_STATS_REC (%STK_ERROR, MINIMUM(BUCKET_NUM, 9));
     2352    10364
     2353    10365    2           BUCKET_NUM =
     2354    10366    2             VD_6E.STATS_TOKENS# (%T_COMMAND_LINE - %VD_BASE#) / %STDIV_CMDLN;
     2355    10367    2           CALL SUM_INTO_STATS_REC (%STK_CMDLN, MINIMUM(BUCKET_NUM, 9));
     2356    10368
     2357    10369    2           FPT_TIME = CONST_FPT_TIME;
     2358    10370    2           FPT_TIME.V_ = VECTOR(FPT_TIME.V);
     2359    10371    2           FPT_TIME.TSTAMP_ = VECTOR(UTS_END);
     2360    10372    2           CALL M$TIME (FPT_TIME)
     2361    10373    3           WHENRETURN DO;
     2362    10374    3              CALL XUD$UTS_DIFF_SEC (BUCKET_NUM,UTS_END,VD_UTS_START);
     2363    10375    3              BUCKET_NUM = BUCKET_NUM/%STDIV_DURATION;
PL6.E3A0      #004=VDG$MTERMINATE File=VDG$MAIN.:VDA5TSI                         FRI 07/04/97 11:20 Page:242
     2364    10376    3              CALL SUM_INTO_STATS_REC (%STK_DURATION,
     2365    10377    3                MINIMUM(BUCKET_NUM, 9));
     2366    10378    3              END;
     2367    10379
     2368    10380
     2369    10381    2           CALL M$DEQ (STATS_DEQ)      /* Release the stats file */
     2370    10382    3           WHENALTRETURN DO; ; END;
     2371    10383
     2372    10384    2   CLOSE_STATS:
     2373    10385    2           CALL M$CLOSE (STATS_CLOSE)
     2374    10386    3           WHENALTRETURN DO; ; END;
     2375    10387
     2376    10388    2           RETURN;
     2377    10389
     2378    10390                %BOX (TITLE=SUM_INTO_STATS_REC);

             10402    2   /***************************************************************************
             10404    2    *                                                                         *
             10408    2            *                             SUM_INTO_STATS_REC                          *
             10410    2            *                                                                         *
             10412    2           ***************************************************************************/

     2379    10416
     2380    10417    2   SUM_INTO_STATS_REC: PROC (KEY, BUCKET);
     2381    10418    3   DCL KEY CHAR(%NB_STATS_KEY);
     2382    10419    3   DCL BUCKET UBIN;
     2383    10420
     2384    10421
     2385    10422        %FPT_READ (FPTN=CONST_STATS_READ, DCB=M$E9, KEYS=YES);
     2386    10461        %FPT_WRITE (FPTN=CONST_STATS_WRITE, DCB=M$E9);
     2387    10492
     2388    10493
     2389    10494    3   DCL I UBIN;
     2390    10495        %FPT_READ (FPTN=STATS_READ, STCLASS="");
     2391    10534        %FPT_WRITE (FPTN=STATS_WRITE, STCLASS="");
     2392    10565        %VD_TEXTC (NAME=STATS_KEY, STCLASS="", MXNB=%NB_STATS_KEY);
     2393    10706    3   DCL STATS_REC (0:%RECOFS_END) SBIN;
PL6.E3A0      #004=VDG$MTERMINATE File=VDG$MAIN.:VDA5TSI                         FRI 07/04/97 11:20 Page:243
     2394    10707
     2395    10708
     2396    10709
     2397    10710    3           STATS_READ = CONST_STATS_READ;
     2398    10711    3           STATS_READ.V_ = VECTOR(STATS_READ.V);
     2399    10712    3           STATS_READ.BUF_ = VECTOR(STATS_REC);
     2400    10713    3           STATS_READ.KEY_ = VECTOR(STATS_KEY);
     2401    10714    3           STATS_WRITE = CONST_STATS_WRITE;
     2402    10715    3           STATS_WRITE.V_ = VECTOR(STATS_WRITE.V);
     2403    10716    3           STATS_WRITE.BUF_ = VECTOR(STATS_REC);
     2404    10717    3           STATS_WRITE.KEY_ = VECTOR(STATS_KEY);
     2405    10718
     2406    10719    3           STATS_KEY.LENGTH# = %NB_STATS_KEY;
     2407    10720    3           STATS_KEY.BYTES = KEY;
     2408    10721    3           IF ADDR(BUCKET) ~= ADDR(NIL) THEN
     2409    10722    3              CALL INSERT (STATS_KEY.BYTES, %KEYOFS_BUCKET_NUM, 1,
     2410    10723    3                BITASC(BINBIT(BUCKET,9)|ASCBIT('0')));
     2411    10724
     2412    10725    3           CALL M$READ (STATS_READ)
     2413    10726    3             ALTRET (STATS_READ_FAILED);
     2414    10727
     2415    10728    4           DO %NEVER;
     2416    10729    4   STATS_READ_FAILED:
     2417    10730    4              STATS_REC = %CLEAR;
     2418    10731    4              END;
     2419    10732
     2420    10733    3           STATS_REC (0) = STATS_REC (0) + 1;
     2421    10734    3           STATS_REC (1) = STATS_REC (1) + XEQTIME.MICROS_DIV_512K;
     2422    10735
     2423    10736    4           DO I = 0 TO %STG_MX;
     2424    10737    4              STATS_REC (%RECOFS_GEN+I) =
     2425    10738    4                STATS_REC (%RECOFS_GEN+I) + VD_6E.STATS# (I);
     2426    10739    4              END;
     2427    10740
     2428    10741    4           DO I = 0 TO %STG_MX;
     2429    10742    4              STATS_REC (%RECOFS_OBJECTS+I) =
     2430    10743    4                STATS_REC (%RECOFS_OBJECTS+I) + VD_6E.STATS_OBJECTS# (I);
PL6.E3A0      #004=VDG$MTERMINATE File=VDG$MAIN.:VDA5TSI                         FRI 07/04/97 11:20 Page:244
     2431    10744    4              END;
     2432    10745
     2433    10746    4           DO I = 0 TO %MX_TOKEN;
     2434    10747    4              STATS_REC (%RECOFS_TOKENS+I) =
     2435    10748    4                STATS_REC (%RECOFS_TOKENS+I) + VD_6E.STATS_TOKENS# (I);
     2436    10749    4              END;
     2437    10750
     2438    10751    4           DO I = 0 TO %MX_ERROR_CODE;
     2439    10752    4              STATS_REC (%RECOFS_ERRORS+I) =
     2440    10753    4                STATS_REC (%RECOFS_ERRORS+I) + VD_6E.STATS_ERRORS# (I);
     2441    10754    4              END;
     2442    10755
     2443    10756
     2444    10757
     2445    10758    3           CALL M$WRITE (STATS_WRITE)
     2446    10759    3             ALTRET (STATS_WRITE_FAILED);
     2447    10760
     2448    10761    3   STATS_WRITE_FAILED:
     2449    10762
     2450    10763    3           RETURN;
     2451    10764
     2452    10765    3   END SUM_INTO_STATS_REC;
     2453    10766
     2454    10767    2   END UPDATE_STATISTICS_FILE;
     2455    10768
     2456    10769        %BOX (TITLE=PROCESS_RESTORE, PAGE=YES);
             10777    2
             10781    2   /***************************************************************************
             10783    2    *                                                                         *
             10787    2            *                              PROCESS_RESTORE                            *
             10789    2            *                                                                         *
             10791    2           ***************************************************************************/

     2457    10795
     2458    10796        /*I* NAME: PROCESS_RESTORE
     2459    10797            PARAMETERS:
     2460    10798                None.
PL6.E3A0      #004=VDG$MTERMINATE File=VDG$MAIN.:VDA5TSI                         FRI 07/04/97 11:20 Page:245
     2461    10799            INPUT:
     2462    10800                VD_$RESTORE must have a non-0-length value.
     2463    10801            OUTPUT:
     2464    10802                None.
     2465    10803            DESCRIPTION:
     2466    10804                If $RESTORE contains a !XEQ command, and if we were M$LINKed-to, then
     2467    10805                    report an error and return.  Currently, if we M$YC to IBEX
     2468    10806                    with an XEQ command, IBEX will copy the XEQ-file to JF.  This has
     2469    10807                    two undesireable effects:
     2470    10808                        1.  The commands in the XEQ-file aren't executed until the
     2471    10809                            processor who M$LINKed to us finally exits back to IBEX.
     2472    10810                            Usually, however, 6Edit users expect commands in their
     2473    10811                            $RESTORE XEQ-file to be executed immediately, to restore
     2474    10812                            IMPs, reset terminal parameters, etc.
     2475    10813                        2.  Worse yet, the commands sitting in JF will cause the
     2476    10814                            processor who M$LINKed to us to get eof on the next read
     2477    10815                            from the command stream -- usually, causing him to exit,
     2478    10816                            or perhaps to read the commands from the XEQ-file as
     2479    10817                            commands to him!
     2480    10818                    Instead, we tell the user that, sorry, we can't do the XEQ command
     2481    10819                    right now.
     2482    10820        *N**N*                  Note that this test is specific
     2483    10821        *N**N*                  to IBEX as the command processor.
     2484    10822        *N**N*                  Ideal fix is to either:
     2485    10823        *N**N*                    o Fix IBEX to handle XEQ immediately,
     2486    10824        *N**N*                      so we don't have to do this test; or
     2487    10825        *N**N*                    o Have some way that we could tell if
     2488    10826        *N**N*                      IBEX is the current CP or not.
     2489    10827                Otherwise, pass the value of $RESTORE to the command processor to
     2490    10828                    execute.
     2491    10829        */
     2492    10830
     2493    10831    1   PROCESS_RESTORE: PROC;
     2494    10832
     2495    10833
     2496    10834        %FPT_YC (LINK=YES, STCLASS=STATIC);
     2497    10851
PL6.E3A0      #004=VDG$MTERMINATE File=VDG$MAIN.:VDA5TSI                         FRI 07/04/97 11:20 Page:246
     2498    10852
     2499    10853    2   DCL INDX SBIN;
     2500    10854    2   DCL IBEX_VERB CHAR(%LENGTHC(CHR_IBEX_XEQ_VERB));
     2501    10855    2   DCL SINK SBIN;
     2502    10856
     2503    10857
     2504    10858
     2505    10859    2           IF B$JIT.PROG_ENTRY = %PE_LINK# THEN
     2506    10860    3   REJECT_XEQ_COMMAND: DO;
     2507    10861    3              INDX = 0;
     2508    10862    3              CALL SEARCH (INDX, SINK, B$SR_NON_BLANK,
     2509    10863    3                SUBSTR(VD_$RESTORE.BYTES, 0, VD_$RESTORE.LENGTH#), INDX);
     2510    10864    3              IF VD_$RESTORE.LENGTH# - INDX >= LENGTHC(%CHR_IBEX_PROMPT)
     2511    10865    3                AND SUBSTR(VD_$RESTORE.BYTES, INDX, LENGTHC(%CHR_IBEX_PROMPT)) =
     2512    10866    3                %CHR_IBEX_PROMPT THEN
     2513    10867    3                 INDX = INDX + LENGTHC(%CHR_IBEX_PROMPT);
     2514    10868    4              IF INDX < VD_$RESTORE.LENGTH# THEN DO;
     2515    10869    4                 CALL SEARCH (INDX, SINK, B$SR_NON_BLANK,
     2516    10870    4                   SUBSTR(VD_$RESTORE.BYTES, 0, VD_$RESTORE.LENGTH#), INDX);
     2517    10871    4                 IF VD_$RESTORE.LENGTH# - INDX >=
     2518    10872    5                   LENGTHC(%CHR_IBEX_XEQ_VERB) THEN DO;
     2519    10873    5                    CALL XLATE (IBEX_VERB, B$XL_UPPER,
     2520    10874    5                      SUBSTR(VD_$RESTORE.BYTES, INDX,
     2521    10875    5                      LENGTHC(%CHR_IBEX_XEQ_VERB)));
     2522    10876    6                    IF IBEX_VERB = %CHR_IBEX_XEQ_VERB THEN DO;
     2523    10877                               /* This is an IBEX XEQ command - reject it */
     2524    10878    6                       GOTO CANT_DO_IBEX_XEQ_FAILURE;
     2525    10879    6                       END;
     2526    10880    5                    END;
     2527    10881    4                 END;
     2528    10882    3              END REJECT_XEQ_COMMAND;
     2529    10883
     2530    10884    2           FPT_YC.CMD_ = VECTOR(SUBSTR(VD_$RESTORE.BYTES, 0, VD_$RESTORE.LENGTH#));
     2531    10885    2           CALL M$YC (FPT_YC)
     2532    10886    2             ALTRET (YC_FAILED);
     2533    10887
     2534    10888    2           RETURN;
PL6.E3A0      #004=VDG$MTERMINATE File=VDG$MAIN.:VDA5TSI                         FRI 07/04/97 11:20 Page:247
     2535    10889
     2536    10890
     2537    10891
     2538    10892    2   CANT_DO_IBEX_XEQ_FAILURE:
     2539    10893    2           XUG_GETCMD.ERR_CODE = %CLEAR;
     2540    10894    2           XUG_GETCMD.ERR_CODE.FCG# = %CONCAT(FCG, FCG_MID_GLOBAL);
     2541    10895    2           XUG_GETCMD.ERR_CODE.CODE# = %E$CANT_DO_IBEX_XEQ;
     2542    10896    2           XUG_GETCMD.FLGLEV# = %FLV_SERIOUS;
     2543    10897    2           XUG_GETCMD.F1_ = VECTOR(PINCRC(ADDR(VD_$RESTORE.LENGTH#),
     2544    10898    2             LENGTHC(VD_$RESTORE.LENGTH#) - LENGTHC(VD$TEXTC.LENGTH#)) ->
     2545    10899    2             VD$TEXTC);
     2546    10900    2           XUG_GETCMD.F2_ = VECTOR(NIL);
     2547    10901    2           XUG_GETCMD.F3_ = VECTOR(NIL);
     2548    10902    2           CALL XUG$ERRMSG (XUG_GETCMD);
     2549    10903    2           RETURN;
     2550    10904
     2551    10905
     2552    10906    2   YC_FAILED:
     2553    10907    2           XUG_GETCMD.ERR_CODE = B$TCB$->B$TCB.ALT$->B$ALT.ERR;
     2554    10908    2           XUG_GETCMD.FLGLEV# = %FLV_SERIOUS;
     2555    10909    2           XUG_GETCMD.ERRDCB# = 0;
     2556    10910    2           XUG_GETCMD.F1_ = VECTOR(NIL);
     2557    10911    2           XUG_GETCMD.F2_ = VECTOR(NIL);
     2558    10912    2           XUG_GETCMD.F3_ = VECTOR(NIL);
     2559    10913    2           CALL XUG$ERRMSG (XUG_GETCMD);
     2560    10914    2           RETURN;
     2561    10915
     2562    10916    2   END PROCESS_RESTORE;
     2563    10917
     2564    10918    1   END VDG$MTERMINATE;

PL6.E3A0      #004=VDG$MTERMINATE File=VDG$MAIN.:VDA5TSI                         FRI 07/04/97 11:20 Page:248
--  Include file information  --

   XUD_UTS_M.:TOOLE04  is referenced.
   CP_6_SUBS.:LIBRARY  is referenced.
   B$JIT.:LIBRARY  cannot be made into a system file and is referenced.
   B$TABLES_C.:LIBRARY  cannot be made into a system file and is referenced.
   XUG_ENTRY.:LIBRARY  cannot be made into a system file and is referenced.
   XU_MACRO_C.:LIBRARY  is referenced.
   VD_NODES0_E.:VDA5TOU  is referenced.
   VD_PERR_C.:VDA5TOU  is referenced.
   VD_MACROS_M.:VDA5TOU  is referenced.
   B_ERRORS_C.:LIBRARY  is referenced.
   CP_6.:LIBRARY  cannot be made into a system file and is referenced.
   B$JIT_C.:E04TOU  was found in the system file and is referenced.
   CP_6_C.:E04TOU  was found in the system file and is referenced.
      No diagnostics issued in procedure VDG$MTERMINATE.

   Procedure VDG$MTERMINATE requires 536 words for executable code.
   Procedure VDG$MTERMINATE requires 740 words of local(AUTO) storage.

    No errors detected in file VDG$MAIN.:VDA5TSI    .

PL6.E3A0      #004=VDG$MTERMINATE File=VDG$MAIN.:VDA5TSI                         FRI 07/04/97 11:20 Page:249

 Object Unit name= VDG$MTERMINATE                             File name= VDG$MAIN.:VDA5TOU
 UTS= JUL 04 '97 11:20:06.84 FRI                              Compiler= PL-6/E31         Sev=      00
 SharedLib= :SHARED_SYSTEM                                    Alt SharedLib=


    ****  Control sections  ****

 Sect   Type Bound  Init  Size OctSiz  Section name(segment info)
    0   DCB   even  none     0      0  M$UC
    1   DCB   even  none     0      0  M$ME
    2   DCB   even  none     0      0  M$DO
    3   DCB   even  none     0      0  M$E9
    4  RoData even  UTS    124    174  VDG$MTERMINATE
    5   Data  even  none   154    232  VDG$MTERMINATE
    6   Proc  even  none   536   1030  VDG$MTERMINATE
    7  RoData even  none    22     26  VDG$MTERMINATE

    ****  Entry defs  ****

                              Check   Calling
                             calling  sequence
  Sect OctLoc Primary Altret sequence   type   Parms  Name
     6      0   yes            yes      Std        0  VDG$MTERMINATE
     6     11                  yes      Std        0  VDG$MTERMINATE_FORCED
PL6.E3A0      #004=VDG$MTERMINATE File=VDG$MAIN.:VDA5TSI                         FRI 07/04/97 11:20 Page:250

  ****  Entry refs  ****

         Check        Calling
        calling       sequence
Altret sequence SRef   type   Args  Name
         yes          ~proc      0 B_POINTER
         yes           Std       0 VDP$WTERMINATE
 yes     yes           Std       1 XUG$ERRMSG
 yes     yes           Std       1 VDA$FCLOSE
         yes           Std       1 VDG$EREPORT_ERROR
 yes     yes           Std       3 XUD$UTS_DIFF_SEC
                       nStd      0 X66_AUTO_0
                       Std       0 B_CONSPOOL_D
                       nStd      0 X66_ARET

  ****  Data refs  ****

  Flags:  r = read only, s = secondary
Flgs Name                             Flgs Name                             Flgs Name
     M$UC                                  M$ME                                  M$DO
     M$E9                                  B$TCB$                                B$JIT$
     VD_UTS_START                          VD_6E                                 XUG_GETCMD
     VD_$RESTORE                           VD_EXIT                               B_VERSION
r    B$SR_NON_BLANK$                  r    B$XL_UPPER$                           B_VECTNIL

  ****  Segment refs  ****

  Flags:  r = read only, s = secondary
Flgs Name                             Flgs Name                             Flgs Name
     ISSID                                 NULLSID
PL6.E3A0      #004=VDG$MTERMINATE File=VDG$MAIN.:VDA5TSI                         FRI 07/04/97 11:20 Page:251


     1971        1        /*T***********************************************************/
     1972        2        /*T*                                                         */
     1973        3        /*T* Copyright (c) Bull HN Information Systems Inc., 1997    */
     1974        4        /*T*                                                         */
     1975        5        /*T***********************************************************/
     1976        6
     1977        7        /*D* NAME: VDG$MTERMINATE
     1978        8            PARAMETERS:
     1979        9                None.
     1980       10            INPUT:
     1981       11                VD_6E.STATS#, .STATS_OBJECTS#, .STATS_ERRORS#, and .STATS_TOKENS#
     1982       12                    arrays should contain the statistics for this invocation
     1983       13                    of the editor.
     1984       14                VD_6E.ERR_HEAD$ must point to a VD$ERR which is reserved for
     1985       15                    fatal errors.  If there is no fatal (or initialization) error
     1986       16                    to report, this VD$ERR's .ERR should be %CLEAR.  Note that
     1987       17                    only this first fatal error is handled by VDG$MTERMINATE;
     1988       18                    non-fatal errors should have been reported before getting
     1989       19                    here.  We allow a fatal error to get to MTERMINATE so
     1990       20                    a final, fatal error message will remain on the user's
     1991       21                    screen after the Pres'r restores the screen to its original
     1992       22                    state.
     1993       23                VD_6E.WINDOWS$ should be NIL, or point to a VD$STREAM which is
     1994       24                    open to the Windows file.
     1995       25                VD_6E.SOURCE.OPERAND.STREAM$ should be NIL, or point to a VD$STREAM
     1996       26                    for the Source operand (open or closed).
     1997       27                VD_6E.INTERRUPT should contain any info about an asynchronous
     1998       28                    event being processed; if none is being processed,
     1999       29                    VD_6E.INTERRUPT.CODE# should = %CLEAR.  Specifically, if
     2000       30                    we're terminating due to a hardware fault, we should RETURN
     2001       31                    when done, rather than M$EXITing.
     2002       32                XUG_GETCMD - If there is a fatal error to report, then XUG_GETCMD
     2003       33                    must be filled in and ready for a call to XUG$ERRMSG.
     2004       34                    Specifically, its .ERR_CODE, .FLGLEV, .USE_EPOS, .EPOS,
     2005       35                    .ERRDCB, and .F1_, .F2_, and .F3_ must be filled in.
     2006       36                VD_$RESTORE is a VD$BUFFER whose value is an IBEX command.
PL6.E3A0      #004=VDG$MTERMINATE File=VDG$MAIN.:VDA5TSI                         FRI 07/04/97 11:20 Page:252
     2007       37                    It may have a 0-length value.
     2008       38                VD_EXIT should point to the error code word (if any) for the
     2009       39                    last error, and must contain the STEPCC value to be
     2010       40                    returned to the monitor for 6Edit.
     2011       41            OUTPUT:
     2012       42                None.
     2013       43            DESCRIPTION:
     2014       44                If VD_6E.ERR_HEAD$ contains an error at entry, we'll ignore
     2015       45                    most errors we might get during termination; otherwise
     2016       46                    we'll report these errors.
     2017       47                Close all streams.
     2018       48                Update the system statistics file.
     2019       49                Call the Presenter's termination entry-point, to restore the
     2020       50                    user's terminal to its pre-invocation state.
     2021       51                If VD_$RESTORE has a non-NIL value, pass the value to IBEX to execute.
     2022       52                If we were entered with a fatal error, call XUG$ERRMSG to
     2023       53                    write the error message.
     2024       54                    Also, if the error is %E$HUH (internal error), M$ALIB
     2025       55                    to DELTA to PLUGH to the terminal.
     2026       56                If VD_6E.INTERRUPT shows that we were interrupted by a hardware
     2027       57                    fault, then we were called by an ASYNC routine, and
     2028       58                    the top frame of the TCB's exceptional condition stack
     2029       59                    describes the error.  Instead of M$EXITing, we should
     2030       60                    just return:  this will re-execute the offending
     2031       61                    instruction, which should yield the appropriate monitor
     2032       62                    response (we should no longer be trapping hardware faults).
     2033       63                Otherwise, look at VD_EXIT's STEPCC value:  based on that value,
     2034       64                    either M$EXIT or M$ERR back to the monitor.
     2035       65        */
     2036       66
     2037       67        VDG$MTERMINATE: PROC;

     67  6 000000   000000 700200 xent  VDG$MTERMIN* TSX0  ! X66_AUTO_0
         6 000001   001344 000000                    ZERO    740,0

     2038       68
     2039       69
PL6.E3A0      #004=VDG$MTERMINATE File=VDG$MAIN.:VDA5TSI                         FRI 07/04/97 11:20 Page:253
     2040       70        %INCLUDE CP_6;
     2041      151        %INCLUDE B_ERRORS_C;
     2042     1277        %INCLUDE VD_MACROS_M;
     2043     3492        %INCLUDE VD_PERR_C;
     2044     3640        %INCLUDE VD_NODES0_E;
     2045     3732        %INCLUDE XU_MACRO_C;
     2046     6826        %INCLUDE XUG_ENTRY;
     2047     6857        %INCLUDE B$TABLES_C;
     2048     6965        %INCLUDE B$JIT;
     2049     7255        %INCLUDE CP_6_SUBS;
     2050     7795        %INCLUDE XUD_UTS_M;
     2051     7877
     2052     7878
     2053     7879    1   DCL VDA$FCLOSE          ENTRY (1) ALTRET;
     2054     7880    1   DCL VDG$EREPORT_ERROR   ENTRY (1);
     2055     7881    1   DCL VDP$WTERMINATE      ENTRY;
     2056     7882
     2057     7883
     2058     7884    1   DCL M$ME DCB;
     2059     7885    1   DCL M$DO DCB;
     2060     7886    1   DCL M$E9 DCB;
     2061     7887    1   DCL B$TCB$ PTR SYMREF;
     2062     7888    1   DCL B$JIT$ PTR SYMREF;
     2063     7889    1   DCL VD_UTS_START UBIN SYMREF;
     2064     7890        %VD_6E (STCLASS=SYMREF);
     2065     7926        %XUG_GETCMD (NAME=XUG_GETCMD, STCLASS=SYMREF);
     2066     8264        %VD_BUFFER (NAME=VD_$RESTORE, STCLASS=SYMREF, MXNB=%MXNB_$RESTORE);
     2067     8324        %FPT_EXIT (FPTN=VD_EXIT, STCLASS=SYMREF);
     2068     8339        %VD_TEXTC (NAME=B_VERSION, STCLASS=SYMREF, MXNB=%NB_VERSION);
     2069     8480        %B$SR_NON_BLANK;
     2070     8484        %B$XL_UPPER;
     2071     8488        %XUD$UTS_ENTRIES;
     2072     8520
     2073     8521
     2074     8522
     2075     8523        %FPT_ALIB (STCLASS=CONSTANT, CMD=DELTA_CMD, LIBNAME=DELTA_FID, RETRN=YES);
     2076     8540    1   DCL DELTA_CMD CHAR(0) CONSTANT INIT('PLUGH');
PL6.E3A0      #004=VDG$MTERMINATE File=VDG$MAIN.:VDA5TSI                         FRI 07/04/97 11:20 Page:254
     2077     8541        %VD_TEXTC (NAME=DELTA_FID, STCLASS=CONSTANT, IBYTES='DELTA_NEW');
     2078     8682        %FPT_XCON (FPTN=REVOKE_EXIT_CONTROL, STCLASS=CONSTANT, UENTRY=NIL);
     2079     8696
     2080     8697
     2081     8698
     2082     8699        %VD$ERR (NAME=ORIG_ERR, STCLASS=AUTO);
     2083     8752
     2084     8753
     2085     8754        %VD$ERR (NAME=FATAL$ERR, STCLASS="BASED(VD_6E.ERR_HEAD$)");
     2086     8807        %VD$TEXTC;
     2087     8830        %B$TCB;
     2088     8833        %B$ALT;
     2089     8841        %F$DCB;
     2090     8898
     2091     8899
     2092     8900
     2093     8901    1           ORIG_ERR = FATAL$ERR;

   8901  6 000002   000031 470400 xsym               LDP0    VD_6E+25
         6 000003   000100 100500                    MLR     fill='000'O
         6 000004   000000 000024                    ADSC9   0,,PR0                   cn=0,n=20
         6 000005   200003 000024                    ADSC9   ORIG_ERR,,AUTO           cn=0,n=20

     2094     8902
     2095     8903    1           CALL CLOSE_ALL_STREAMS;

   8903  6 000006   000077 701000 6                  TSX1    CLOSE_ALL_STREAMS
         6 000007   000000 011000                    NOP     0

     2096     8904    1           GOTO UPDATE_STATS;

   8904  6 000010   000017 710000 6                  TRA     UPDATE_STATS

     2097     8905
     2098     8906
     2099     8907    1   VDG$MTERMINATE_FORCED: ENTRY;    /* If we screech while we're screeching */

PL6.E3A0      #004=VDG$MTERMINATE File=VDG$MAIN.:VDA5TSI                         FRI 07/04/97 11:20 Page:255
   8907  6 000011   000000 700200 xent  VDG$MTERMIN* TSX0  ! X66_AUTO_0
         6 000012   001344 000000                    ZERO    740,0

     2100     8908    1           ORIG_ERR = FATAL$ERR;

   8908  6 000013   000031 470400 xsym               LDP0    VD_6E+25
         6 000014   000100 100500                    MLR     fill='000'O
         6 000015   000000 000024                    ADSC9   0,,PR0                   cn=0,n=20
         6 000016   200003 000024                    ADSC9   ORIG_ERR,,AUTO           cn=0,n=20

     2101     8909
     2102     8910
     2103     8911    1   UPDATE_STATS:
     2104     8912    1           CALL UPDATE_STATISTICS_FILE;

   8912  6 000017   000177 701000 6     UPDATE_STATS TSX1    UPDATE_STATISTICS_FILE
         6 000020   000000 011000                    NOP     0

     2105     8913
     2106     8914    1           CALL VDP$WTERMINATE;

   8914  6 000021   000002 631400 xsym               EPPR1   B_VECTNIL+2
         6 000022   000000 701000 xent               TSX1    VDP$WTERMINATE
         6 000023   000000 011000                    NOP     0

     2107     8915
     2108     8916                /*
     2109     8917                *   Hey!! The terminal has been restored to it's pre-invocation
     2110     8918                *       state now -- so we can write to it if we want!!
     2111     8919                */
     2112     8920
     2113     8921    2           IF ORIG_ERR.ERR ~= %CLEAR THEN DO;

   8921  6 000024   200005 235100                    LDA     ORIG_ERR+2,,AUTO
         6 000025   000032 600000 6                  TZE     s:8925

     2114     8922                   /* VDG$EREPORT_ERROR already setup XUG_GETCMD with error info */
PL6.E3A0      #004=VDG$MTERMINATE File=VDG$MAIN.:VDA5TSI                         FRI 07/04/97 11:20 Page:256
     2115     8923    2              CALL XUG$ERRMSG (XUG_GETCMD);

   8923  6 000026   000000 630400 7                  EPPR0   0
         6 000027   000017 631400 xsym               EPPR1   B_VECTNIL+15
         6 000030   000000 701000 xent               TSX1    XUG$ERRMSG
         6 000031   000000 011000                    NOP     0

     2116     8924    2              END;

     2117     8925    2           IF ORIG_ERR.ERR.CODE# = %E$HUH THEN DO;

   8925  6 000032   200005 236100                    LDQ     ORIG_ERR+2,,AUTO
         6 000033   377770 376007                    ANQ     131064,DL
         6 000034   000010 116007                    CMPQ    8,DL
         6 000035   000043 601000 6                  TNZ     s:8930

     2118     8926    2              CALL M$ALIB (FPT_ALIB)       /* PL to the terminal */

   8926  6 000036   000000 630400 4                  EPPR0   FPT_ALIB
         6 000037   400007 713400                    CLIMB   alt,+7
         6 000040   401400 401760                    pmme    nvectors=4
         6 000041   000043 702000 6                  TSX2    s:8930
         6 000042   000043 710000 6                  TRA     s:8930

     2119     8927    3              WHENALTRETURN DO; ; END;

     2120     8928    2              END;

     2121     8929
     2122     8930    1           IF VD_$RESTORE.LENGTH# > 0 AND VD_$RESTORE.BYTES ~= '0' THEN

   8930  6 000043   000002 220000 xsym               LDX0    VD_$RESTORE+2
         6 000044   000053 604400 6                  TMOZ    s:8934
         6 000045   040000 106440                    CMPC    fill='040'O
         6 000046   000002 400010 xsym               ADSC9   VD_$RESTORE+2            cn=2,n=*X0
         6 000047   000001 000001 7                  ADSC9   1                        cn=0,n=1
         6 000050   000053 600000 6                  TZE     s:8934
PL6.E3A0      #004=VDG$MTERMINATE File=VDG$MAIN.:VDA5TSI                         FRI 07/04/97 11:20 Page:257

     2123     8931    1              CALL PROCESS_RESTORE;

   8931  6 000051   000625 701000 6                  TSX1    PROCESS_RESTORE
         6 000052   000000 011000                    NOP     0

     2124     8932
     2125     8933
     2126     8934    2           IF VD_6E.INTERRUPT.STATE# = %INST_HW_TRAPPED THEN DO;

   8934  6 000053   000027 220000 xsym               LDX0    VD_6E+23
         6 000054   000004 100003                    CMPX0   4,DU
         6 000055   000061 601000 6                  TNZ     s:8939

     2127     8935    2              VD_6E.INTERRUPT.STATE# = %INST_PROCESSING;

   8935  6 000056   000001 221003                    LDX1    1,DU
         6 000057   000027 741000 xsym               STX1    VD_6E+23

     2128     8936    2              RETURN;  /* Return from ASYNC routine (VDI$INT_TRAP) */

   8936  6 000060   000000 702200 xent               TSX2  ! X66_ARET

     2129     8937    2              END;
     2130     8938
     2131     8939    1           CALL M$XCON (REVOKE_EXIT_CONTROL);

   8939  6 000061   000020 630400 4                  EPPR0   REVOKE_EXIT_CONTROL
         6 000062   010003 713400                    CLIMB   4099
         6 000063   400400 401760                    pmme    nvectors=2

     2132     8940    1           IF VD_EXIT.V.STEPCC# = 0 THEN

   8940  6 000064   000004 236000 xsym               LDQ     VD_EXIT+4
         6 000065   777000 316003                    CANQ    -512,DU
         6 000066   000073 601000 6                  TNZ     s:8943

PL6.E3A0      #004=VDG$MTERMINATE File=VDG$MAIN.:VDA5TSI                         FRI 07/04/97 11:20 Page:258
     2133     8941    1              CALL M$EXIT (VD_EXIT);

   8941  6 000067   000000 630400 xsym               EPPR0   VD_EXIT
         6 000070   000001 713400                    CLIMB   exit
         6 000071   400400 401760                    pmme    nvectors=2
         6 000072   000076 710000 6                  TRA     s:8943+3

     2134     8942    1           ELSE
     2135     8943    1              CALL M$ERR (VD_EXIT);

   8943  6 000073   000000 630400 xsym               EPPR0   VD_EXIT
         6 000074   000002 713400                    CLIMB   err
         6 000075   400400 401760                    pmme    nvectors=2
         6 000076   001027 710000 6                  TRA     s:10918

     2136     8944
     2137     8945
     2138     8946        %BOX (TITLE=CLOSE_ALL_STREAMS, PAGE=YES);
              8954    1
              8958    1   /***************************************************************************
              8960    1    *                                                                         *
              8964    1            *                             CLOSE_ALL_STREAMS                          *
              8966    1            *                                                                        *
              8968    1          ***************************************************************************/

     2139     8972
     2140     8973        /*I* NAME: CLOSE_ALL_STREAMS
     2141     8974            PARAMETERS:
     2142     8975                None.
     2143     8976            INPUT:
     2144     8977                ORIG_ERR must contain the original VD$ERR pointed-to by
     2145     8978                    VD_6E.ERR_HEAD$ at entry to VDG$MTERMINATE.
     2146     8979            OUTPUT:
     2147     8980                The VD$ERR at VD_6E.ERR_HEAD$ will be cleared.
     2148     8981            DESCRIPTION:
     2149     8982                Loop thru the windows file, and close all streams to which
     2150     8983                editing windows are open.
PL6.E3A0      #004=VDG$MTERMINATE File=VDG$MAIN.:VDA5TSI                         FRI 07/04/97 11:20 Page:259
     2151     8984                Close the Source stream.
     2152     8985                Note that doing these closes could cause a fatal error, and
     2153     8986                we always want to report the original fatal error from entry
     2154     8987                to VDG$MTERMINATE.
     2155     8988                If we get an error during these closes:
     2156     8989                    If we've saved a fatal error, ignore the new error.
     2157     8990                    If we didn't save a fatal error, then report the
     2158     8991                        new error immediately.
     2159     8992        */
     2160     8993
     2161     8994    1   CLOSE_ALL_STREAMS: PROC;

   8994  6 000077   200010 741300       CLOSE_ALL_S* STX1  ! ORIG_ERR+5,,AUTO

     2162     8995
     2163     8996    2   DCL L0_NODE$ PTR;
     2164     8997    2   DCL L1_NODE$ PTR;
     2165     8998    2   DCL WINDOW_SPEC$ PTR;
     2166     8999
     2167     9000
     2168     9001        %VD$FILE_NODE (NAME=L0$NODE, STCLASS="BASED(L0_NODE$)");
     2169     9094        %VD$FILE_NODE (NAME=L1$NODE, STCLASS="BASED(L1_NODE$)");
     2170     9187        %VD$WINDOW_SPEC (NAME=WINDOW$SPEC, STCLASS="BASED(WINDOW_SPEC$)");
     2171     9253        %VD$STREAM;
     2172     9359        %VD$PORT;
     2173     9457
     2174     9458
     2175     9459
     2176     9460
     2177     9461                /*
     2178     9462                *   Loop thru the Windows file, closing any Streams the
     2179     9463                *       windows have left open.
     2180     9464                */
     2181     9465
     2182     9466    2           IF VD_6E.WINDOWS$ = ADDR(NIL) THEN RETURN;

   9466  6 000100   000006 236000 xsym               LDQ     VD_6E+6
PL6.E3A0      #004=VDG$MTERMINATE File=VDG$MAIN.:VDA5TSI                         FRI 07/04/97 11:20 Page:260
         6 000101   000001 116000 xsym               CMPQ    B_VECTNIL+1
         6 000102   000104 601000 6                  TNZ     s:9467

   9466  6 000103   000001 702211                    TSX2  ! 1,X1

     2183     9467    2           IF VD_6E.WINDOWS$->VD$STREAM.PORT$ = ADDR(NIL) THEN RETURN;

   9467  6 000104   000006 470400 xsym               LDP0    VD_6E+6
         6 000105   000001 236100                    LDQ     1,,PR0
         6 000106   000001 116000 xsym               CMPQ    B_VECTNIL+1
         6 000107   000111 601000 6                  TNZ     s:9468

   9467  6 000110   000001 702211                    TSX2  ! 1,X1

     2184     9468    2           IF VD_6E.WINDOWS$->VD$STREAM.PORT$->VD$PORT.EXIST# = 0 THEN RETURN;

   9468  6 000111   000001 471500                    LDP1    1,,PR0
         6 000112   100003 720100                    LXL0    3,,PR1
         6 000113   000115 601000 6                  TNZ     s:9469

   9468  6 000114   000001 702211                    TSX2  ! 1,X1

     2185     9469    2           L0_NODE$ = VD_6E.WINDOWS$->VD$STREAM.PORT$->

   9469  6 000115   100031 236100                    LDQ     25,,PR1
         6 000116   200011 756100                    STQ     L0_NODE$,,AUTO

     2186     9470    2             VD$PORT.LEVEL.INTERNAL$ (%LVL_FILE);
     2187     9471    2           IF L0_NODE$ = ADDR(NIL) THEN RETURN;

   9471  6 000117   000001 116000 xsym               CMPQ    B_VECTNIL+1
         6 000120   000122 601000 6                  TNZ     s:9473

   9471  6 000121   000001 702211                    TSX2  ! 1,X1

     2188     9472
     2189     9473    2           L1_NODE$ = L0$NODE.HEAD$;
PL6.E3A0      #004=VDG$MTERMINATE File=VDG$MAIN.:VDA5TSI                         FRI 07/04/97 11:20 Page:261

   9473  6 000122   200011 473500                    LDP3    L0_NODE$,,AUTO
         6 000123   300012 236100                    LDQ     10,,PR3
         6 000124   200012 756100                    STQ     L1_NODE$,,AUTO

     2190     9474    3           DO WHILE L1_NODE$ ~= ADDR(NIL);

   9474  6 000125   000156 710000 6                  TRA     s:9485

     2191     9475    3              WINDOW_SPEC$ = L1$NODE.DESC.SPEC.V$;

   9475  6 000126   200012 470500                    LDP0    L1_NODE$,,AUTO
         6 000127   000007 236100                    LDQ     7,,PR0
         6 000130   200013 756100                    STQ     WINDOW_SPEC$,,AUTO

     2192     9476    3              IF WINDOW_SPEC$ ~= ADDR(NIL) THEN

   9476  6 000131   000001 116000 xsym               CMPQ    B_VECTNIL+1
         6 000132   000153 600000 6                  TZE     s:9484

     2193     9477    4                 IF WINDOW$SPEC.OPERAND.STREAM$ ~= ADDR(NIL) THEN DO;

   9477  6 000133   200013 471500                    LDP1    WINDOW_SPEC$,,AUTO
         6 000134   100010 236100                    LDQ     8,,PR1
         6 000135   000001 116000 xsym               CMPQ    B_VECTNIL+1
         6 000136   000153 600000 6                  TZE     s:9484

     2194     9478    4                    CALL VDA$FCLOSE (WINDOW$SPEC.OPERAND.STREAM$->VD$STREAM)

   9478  6 000137   100010 473500                    LDP3    8,,PR1
         6 000140   201336 453500                    STP3    STATS_REC+604,,AUTO
         6 000141   201336 630500                    EPPR0   STATS_REC+604,,AUTO
         6 000142   000017 631400 xsym               EPPR1   B_VECTNIL+15
         6 000143   000000 701000 xent               TSX1    VDA$FCLOSE
         6 000144   000146 702000 6                  TSX2    s:9480
         6 000145   000153 710000 6                  TRA     s:9484

PL6.E3A0      #004=VDG$MTERMINATE File=VDG$MAIN.:VDA5TSI                         FRI 07/04/97 11:20 Page:262
     2195     9479    5                    WHENALTRETURN DO;

     2196     9480    5                       IF ORIG_ERR.ERR = %CLEAR THEN

   9480  6 000146   200005 235100                    LDA     ORIG_ERR+2,,AUTO
         6 000147   000153 601000 6                  TNZ     s:9484

     2197     9481    5                          CALL VDG$EREPORT_ERROR;

   9481  6 000150   000002 631400 xsym               EPPR1   B_VECTNIL+2
         6 000151   000000 701000 xent               TSX1    VDG$EREPORT_ERROR
         6 000152   000000 011000                    NOP     0

     2198     9482    5                       END;

     2199     9483    4                    END;

     2200     9484    3              L1_NODE$ = L1$NODE.FLINK$;

   9484  6 000153   200012 470500                    LDP0    L1_NODE$,,AUTO
         6 000154   000002 236100                    LDQ     2,,PR0
         6 000155   200012 756100                    STQ     L1_NODE$,,AUTO

     2201     9485    3              END;

   9485  6 000156   000001 116000 xsym               CMPQ    B_VECTNIL+1
         6 000157   000126 601000 6                  TNZ     s:9475

     2202     9486
     2203     9487
     2204     9488                /*
     2205     9489                *   Close the Source stream, if it's open.
     2206     9490                */
     2207     9491
     2208     9492    3           IF VD_6E.SOURCE.OPERAND.STREAM$ ~= ADDR(NIL) THEN DO;

   9492  6 000160   000020 236000 xsym               LDQ     VD_6E+16
PL6.E3A0      #004=VDG$MTERMINATE File=VDG$MAIN.:VDA5TSI                         FRI 07/04/97 11:20 Page:263
         6 000161   000001 116000 xsym               CMPQ    B_VECTNIL+1
         6 000162   000175 600000 6                  TZE     s:9500

     2209     9493    3              CALL VDA$FCLOSE (VD_6E.SOURCE.OPERAND.STREAM$->VD$STREAM)

   9493  6 000163   000020 630400 xsym               EPPR0   VD_6E+16
         6 000164   000017 631400 xsym               EPPR1   B_VECTNIL+15
         6 000165   000000 701000 xent               TSX1    VDA$FCLOSE
         6 000166   000170 702000 6                  TSX2    s:9495
         6 000167   000175 710000 6                  TRA     s:9500

     2210     9494    4              WHENALTRETURN DO;

     2211     9495    4                 IF ORIG_ERR.ERR = %CLEAR THEN

   9495  6 000170   200005 235100                    LDA     ORIG_ERR+2,,AUTO
         6 000171   000175 601000 6                  TNZ     s:9500

     2212     9496    4                    CALL VDG$EREPORT_ERROR;

   9496  6 000172   000002 631400 xsym               EPPR1   B_VECTNIL+2
         6 000173   000000 701000 xent               TSX1    VDG$EREPORT_ERROR
         6 000174   000000 011000                    NOP     0

     2213     9497    4                 END;

     2214     9498    3              END;

     2215     9499
     2216     9500    2           RETURN;

   9500  6 000175   200010 221300                    LDX1  ! ORIG_ERR+5,,AUTO
         6 000176   000001 702211                    TSX2  ! 1,X1

     2217     9501
     2218     9502    2   END CLOSE_ALL_STREAMS;
     2219     9503
PL6.E3A0      #004=VDG$MTERMINATE File=VDG$MAIN.:VDA5TSI                         FRI 07/04/97 11:20 Page:264
     2220     9504        %BOX (TITLE=UPDATE_STATISTICS_FILE, PAGE=YES);
              9512    2
              9516    2   /***************************************************************************
              9518    2    *                                                                         *
              9522    2            *                           UPDATE_STATISTICS_FILE                       *
              9524    2            *                                                                        *
              9526    2          ***************************************************************************/

     2221     9530
     2222     9531        /*I* NAME: UPDATE_STATISTICS_FILE
     2223     9532            PARAMETERS:
     2224     9533                None.
     2225     9534            INPUT:
     2226     9535            OUTPUT:
     2227     9536            DESCRIPTION:
     2228     9537        */
     2229     9538
     2230     9539    1   UPDATE_STATISTICS_FILE: PROC;

   9539  6 000177   200010 741300       UPDATE_STAT* STX1  ! ORIG_ERR+5,,AUTO

     2231     9540
     2232     9541
     2233     9542        /*
     2234     9543        *   Local definitions for statistics file.
     2235     9544        */
     2236     9545
     2237     9546        %EQU NB_STATS_KEY = 7;      /* Length of record key */
     2238     9547
     2239     9548        %EQU STK_TOTAL = 'TOTAL  '; /* Key of totals record */
     2240     9549        %EQU STK_ERROR = 'ERROR_n'; /* Key of error recs ("n" is bucket#) */
     2241     9550        %EQU STK_CMDLN = 'CMDLN_n'; /* Key of user-cmdline records */
     2242     9551        %EQU STK_FILES = 'FILES_n'; /* Key of file-opens records */
     2243     9552        %EQU STK_DURATION = 'DURAT_n'; /* Key of session-duration records */
     2244     9553
     2245     9554        /*
     2246     9555        *   Total # records in file:  1 TOTAL record, and 10*3 other
PL6.E3A0      #004=VDG$MTERMINATE File=VDG$MAIN.:VDA5TSI                         FRI 07/04/97 11:20 Page:265
     2247     9556        *       records (10 buckets for each of 3 record types).
     2248     9557        */
     2249     9558
     2250     9559        %EQU N_STKEYS = 31;
     2251     9560
     2252     9561        /*  How to compute the bucket #s for each record type */
     2253     9562
     2254     9563        %EQU STDIV_ERROR = 20;      /* # errors per bucket */
     2255     9564        %EQU STDIV_CMDLN = 50;      /* # cmdlines per bucket */
     2256     9565        %EQU STDIV_DURATION = 120; /* # seconds duration per bucket */
     2257     9566
     2258     9567        /*
     2259     9568        *   Local definitions for offsets into:
     2260     9569        *       o The statistics file record key, and
     2261     9570        *       o The statistics file record itself.
     2262     9571        */
     2263     9572
     2264     9573        %EQU KEYOFS_BUCKET_NUM = NB_STATS_KEY - 1;
     2265     9574
     2266     9575        /*
     2267     9576        *   Word at offset 0 = # updates of this stats record;
     2268     9577        *           offset 1 = execution time in 6Edit represented by this
     2269     9578        *                       update, in (microseconds / 524288).
     2270     9579        *   Stats arrays start at offset 2.
     2271     9580        */
     2272     9581        %EQU RECOFS_GEN = 2;
     2273     9582        %EQU RECOFS_OBJECTS = RECOFS_GEN + STG_MX + 1;
     2274     9583        %EQU RECOFS_ERRORS = RECOFS_OBJECTS + CLS_MX + 1;
     2275     9584        %EQU RECOFS_TOKENS = RECOFS_ERRORS + MX_ERROR_CODE + 1;
     2276     9585        %EQU RECOFS_END = RECOFS_TOKENS + MX_TOKEN + 1;
     2277     9586
     2278     9587
     2279     9588
     2280     9589        %FPT_MONINFO (STCLASS=CONSTANT, SITEINFO=VLR_SITEINFO);
     2281     9604        %FPT_OPEN (FPTN=CONST_STATS_OPEN, DCB=M$E9, ASN=FILE, FUN=CREATE,
     2282     9605            EXIST=OLDFILE, ACCT=STATS_ACCT, ACCESS=STATS_ACCESS,
     2283     9606            ORG=KEYED, ACS=DIRECT, IXTNSIZE="%(N_STKEYS * RECOFS_END / 1000)",
PL6.E3A0      #004=VDG$MTERMINATE File=VDG$MAIN.:VDA5TSI                         FRI 07/04/97 11:20 Page:266
     2284     9607            SCRUB=YES, SHARE=ALL, TYPE=%CHR_STATS_TYPE, PASS=STATS_PASS);
     2285     9716        %VLP_ACCT (FPTN=STATS_ACCT, STCLASS=CONSTANT, ACCT=%CHR_STATS_ACCT);
     2286     9729        %VLP_PASS (FPTN=STATS_PASS, STCLASS=CONSTANT, PASS=%CHR_STATS_PASS);
     2287     9742
     2288     9743        %VLP_ATTR (FPTN=STATS_ACCESS, STCLASS=CONSTANT);
     2289     9757        %VLP_ACCESS (STCLASS=CONSTANT, READ=YES, WNEW=YES, UPD=YES, DELR=YES,
     2290     9758            ACCT='?', LAST=";");
     2291     9775
     2292     9776        %FPT_ENQ (FPTN=STATS_ENQ, STCLASS=CONSTANT, DCB=M$E9, RNAME=STATS_RNAME,
     2293     9777            SHARE=NONE, WAIT_TIME=%MX_STATS_ENQ_WAIT);
     2294     9795        %FPT_DEQ (FPTN=STATS_DEQ, STCLASS=CONSTANT, DCB=M$E9, RNAME=STATS_RNAME);
     2295     9812        %VD_TEXTC (NAME=STATS_RNAME, STCLASS=CONSTANT, IBYTES=%CHR_STATS_RNAME);
     2296     9953        %FPT_CLOSE (FPTN=STATS_CLOSE, STCLASS=CONSTANT, DCB=M$E9, DISP=SAVE);
     2297     9995
     2298     9996
     2299     9997        %FPT_TIME (FPTN=CONST_FPT_TIME, STCLASS=CONSTANT, SOURCE=CLOCK,
     2300     9998            DEST=UTS);
     2301    10017
     2302    10018
     2303    10019
     2304    10020        %VLR_SITEINFO (STCLASS=STATIC);
     2305    10039
     2306    10040
     2307    10041
     2308    10042        %FPT_OPEN (FPTN=STATS_OPEN, STCLASS=AUTO);
     2309    10151        %VD_TEXTC (NAME=STATS_NAME, STCLASS=AUTO, MXNB=%MXNB_FILE_NAME);
     2310    10292        %FPT_XEQTIME (STCLASS=AUTO);
     2311    10305    2   DCL 1 XEQTIME DALIGNED,
     2312    10306    2         2 * BIT(18),
     2313    10307    2         2 MICROS_DIV_512K UBIN(35) UNAL,
     2314    10308    2         2 * BIT(19),
     2315    10309    2         2 * BIT(72);
     2316    10310    2   DCL BUCKET_NUM SBIN;
     2317    10311        %FPT_TIME (STCLASS=AUTO);
     2318    10330    2   DCL UTS_END UBIN;
     2319    10331
     2320    10332
PL6.E3A0      #004=VDG$MTERMINATE File=VDG$MAIN.:VDA5TSI                         FRI 07/04/97 11:20 Page:267
     2321    10333
     2322    10334    2           CALL M$MONINFO (FPT_MONINFO);

  10334  6 000200   000026 630400 4                  EPPR0   FPT_MONINFO
         6 000201   020023 713400                    CLIMB   8211
         6 000202   402400 401760                    pmme    nvectors=6

     2323    10335    2           IF SUBSTR(VLR_SITEINFO.SITE_NAME#.C, 0,

  10335  6 000203   000073 236000 5                  LDQ     VLR_SITEINFO+1
         6 000204   000033 772000                    QRL     27
         6 000205   000000 620006                    EAX0    0,QL
         6 000206   040000 106440                    CMPC    fill='040'O
         6 000207   000073 200010 5                  ADSC9   VLR_SITEINFO+1           cn=1,n=*X0
         6 000210   000152 000011 4                  ADSC9   CONST_FPT_TIME+12        cn=0,n=9
         6 000211   000223 600000 6                  TZE     s:10341
         6 000212   000073 236000 5                  LDQ     VLR_SITEINFO+1
         6 000213   000033 772000                    QRL     27
         6 000214   000000 620006                    EAX0    0,QL
         6 000215   040000 106440                    CMPC    fill='040'O
         6 000216   000073 200010 5                  ADSC9   VLR_SITEINFO+1           cn=1,n=*X0
         6 000217   000155 000011 4                  ADSC9   CONST_FPT_TIME+15        cn=0,n=9
         6 000220   000223 600000 6                  TZE     s:10341

     2324    10336    2             VLR_SITEINFO.SITE_NAME#.L) ~= %CHR_STATS_SITE_A
     2325    10337    2             AND SUBSTR(VLR_SITEINFO.SITE_NAME#.C, 0,
     2326    10338    2             VLR_SITEINFO.SITE_NAME#.L) ~= %CHR_STATS_SITE_B THEN
     2327    10339    2              RETURN;

  10339  6 000221   200010 221300                    LDX1  ! ORIG_ERR+5,,AUTO
         6 000222   000001 702211                    TSX2  ! 1,X1

     2328    10340
     2329    10341    2           STATS_OPEN = CONST_STATS_OPEN;

  10341  6 000223   000100 100400                    MLR     fill='000'O
         6 000224   000000 000350 5                  ADSC9   CONST_STATS_OPEN         cn=0,n=232
PL6.E3A0      #004=VDG$MTERMINATE File=VDG$MAIN.:VDA5TSI                         FRI 07/04/97 11:20 Page:268
         6 000225   200012 000350                    ADSC9   STATS_OPEN,,AUTO         cn=0,n=232

     2330    10342    2           STATS_OPEN.NAME_ = VECTOR(STATS_NAME);

  10342  6 000226   000002 235000 7                  LDA     2
         6 000227   201336 452500                    STP2    STATS_REC+604,,AUTO
         6 000230   201336 236100                    LDQ     STATS_REC+604,,AUTO
         6 000231   000104 036003                    ADLQ    68,DU
         6 000232   200020 757100                    STAQ    SINK+5,,AUTO

     2331    10343    2           STATS_OPEN.V_ = VECTOR(STATS_OPEN.V);

  10343  6 000233   000003 235000 7                  LDA     3
         6 000234   201336 452500                    STP2    STATS_REC+604,,AUTO
         6 000235   201336 236100                    LDQ     STATS_REC+604,,AUTO
         6 000236   000056 036003                    ADLQ    46,DU
         6 000237   200012 757100                    STAQ    STATS_OPEN,,AUTO

     2332    10344    2           CALL CONCAT (STATS_NAME.BYTES, %CHR_STATS_NAME, %CHR_UNDERSCORE,

  10344  6 000240   000000 236000 xsym               LDQ     B_VERSION
         6 000241   000033 772000                    QRL     27
         6 000242   040100 100400                    MLR     fill='040'O
         6 000243   000160 000011 4                  ADSC9   CONST_FPT_TIME+18        cn=0,n=9
         6 000244   200104 200011                    ADSC9   STATS_NAME,,AUTO         cn=1,n=9
         6 000245   000000 620006                    EAX0    0,QL
         6 000246   137000 236007                    LDQ     48640,DL
         6 000247   200106 552110                    STBQ    STATS_NAME+2,'10'O,AUTO
         6 000250   040100 100440                    MLR     fill='040'O
         6 000251   000000 200010 xsym               ADSC9   B_VERSION                cn=1,n=*X0
         6 000252   200106 600025                    ADSC9   STATS_NAME+2,,AUTO       cn=3,n=21

     2333    10345    2             SUBSTR(B_VERSION.BYTES, 0, B_VERSION.LENGTH#));
     2334    10346    2           STATS_NAME.LENGTH# = %LENGTHC(CHR_STATS_NAME) +

  10346  6 000253   000000 236000 xsym               LDQ     B_VERSION
         6 000254   000033 772000                    QRL     27
PL6.E3A0      #004=VDG$MTERMINATE File=VDG$MAIN.:VDA5TSI                         FRI 07/04/97 11:20 Page:269
         6 000255   000012 036007                    ADLQ    10,DL
         6 000256   000033 736000                    QLS     27
         6 000257   200104 552140                    STBQ    STATS_NAME,'40'O,AUTO

     2335    10347    2             %LENGTHC(CHR_UNDERSCORE) + B_VERSION.LENGTH#;
     2336    10348    2           CALL M$OPEN (STATS_OPEN)

  10348  6 000260   200012 630500                    EPPR0   STATS_OPEN,,AUTO
         6 000261   450000 713400                    CLIMB   alt,open
         6 000262   410400 401760                    pmme    nvectors=18
         6 000263   000265 702000 6                  TSX2    s:10350
         6 000264   000267 710000 6                  TRA     s:10353

     2337    10349    3           WHENALTRETURN DO;

     2338    10350    3              RETURN;

  10350  6 000265   200010 221300                    LDX1  ! ORIG_ERR+5,,AUTO
         6 000266   000001 702211                    TSX2  ! 1,X1

     2339    10351    3              END;
     2340    10352
     2341    10353    2           CALL M$ENQ (STATS_ENQ)      /* Get in line for excl access */

  10353  6 000267   000052 630400 4                  EPPR0   STATS_ENQ
         6 000270   420002 713400                    CLIMB   alt,+8194
         6 000271   401000 401760                    pmme    nvectors=3
         6 000272   000431 702000 6                  TSX2    CLOSE_STATS

     2342    10354    2             ALTRET (CLOSE_STATS);
     2343    10355
     2344    10356    2           XEQTIME = %CLEAR;

  10356  6 000273   000100 100400                    MLR     fill='000'O
         6 000274   000002 000001 xsym               ADSC9   B_VECTNIL+2              cn=0,n=1
         6 000275   200116 000020                    ADSC9   XEQTIME,,AUTO            cn=0,n=16

PL6.E3A0      #004=VDG$MTERMINATE File=VDG$MAIN.:VDA5TSI                         FRI 07/04/97 11:20 Page:270
     2345    10357    2           FPT_XEQTIME.BUF_ = VECTOR(XEQTIME);

  10357  6 000276   000004 235000 7                  LDA     4
         6 000277   201336 452500                    STP2    STATS_REC+604,,AUTO
         6 000300   201336 236100                    LDQ     STATS_REC+604,,AUTO
         6 000301   000116 036003                    ADLQ    78,DU
         6 000302   200114 757100                    STAQ    FPT_XEQTIME,,AUTO

     2346    10358    2           CALL M$XEQTIME (FPT_XEQTIME);

  10358  6 000303   200114 630500                    EPPR0   FPT_XEQTIME,,AUTO
         6 000304   020011 713400                    CLIMB   8201
         6 000305   400000 401760                    pmme    nvectors=1

     2347    10359
     2348    10360    2           CALL SUM_INTO_STATS_REC (%STK_TOTAL);

  10360  6 000306   000001 236000 xsym               LDQ     B_VECTNIL+1
         6 000307   200144 756100                    STQ     @KEY+1,,AUTO
         6 000310   000005 236000 7                  LDQ     5
         6 000311   200143 756100                    STQ     UTS_END+3,,AUTO
         6 000312   000440 701000 6                  TSX1    SUM_INTO_STATS_REC
         6 000313   000000 011000                    NOP     0

     2349    10361
     2350    10362    2           BUCKET_NUM = VD_6E.STATS_ERRORS# (0) / %STDIV_ERROR;

  10362  6 000314   000511 236000 xsym               LDQ     VD_6E+329
         6 000315   000024 506007                    DIV     20,DL
         6 000316   200122 756100                    STQ     BUCKET_NUM,,AUTO

     2351    10363    2           CALL SUM_INTO_STATS_REC (%STK_ERROR, MINIMUM(BUCKET_NUM, 9));

  10363  6 000317   000011 236007                    LDQ     9,DL
         6 000320   000323 604000 6                  TMI     s:10363+4
         6 000321   200122 116100                    CMPQ    BUCKET_NUM,,AUTO
         6 000322   000324 604400 6                  TMOZ    s:10363+5
PL6.E3A0      #004=VDG$MTERMINATE File=VDG$MAIN.:VDA5TSI                         FRI 07/04/97 11:20 Page:271
         6 000323   200122 236100                    LDQ     BUCKET_NUM,,AUTO
         6 000324   201341 756100                    STQ     STATS_REC+607,,AUTO
         6 000325   201341 630500                    EPPR0   STATS_REC+607,,AUTO
         6 000326   200144 450500                    STP0    @KEY+1,,AUTO
         6 000327   000006 236000 7                  LDQ     6
         6 000330   200143 756100                    STQ     UTS_END+3,,AUTO
         6 000331   000440 701000 6                  TSX1    SUM_INTO_STATS_REC
         6 000332   000000 011000                    NOP     0

     2352    10364
     2353    10365    2           BUCKET_NUM =

  10365  6 000333   000346 236000 xsym               LDQ     VD_6E+230
         6 000334   000062 506007                    DIV     50,DL
         6 000335   200122 756100                    STQ     BUCKET_NUM,,AUTO

     2354    10366    2             VD_6E.STATS_TOKENS# (%T_COMMAND_LINE - %VD_BASE#) / %STDIV_CMDLN;
     2355    10367    2           CALL SUM_INTO_STATS_REC (%STK_CMDLN, MINIMUM(BUCKET_NUM, 9));

  10367  6 000336   000011 236007                    LDQ     9,DL
         6 000337   000342 604000 6                  TMI     s:10367+4
         6 000340   200122 116100                    CMPQ    BUCKET_NUM,,AUTO
         6 000341   000343 604400 6                  TMOZ    s:10367+5
         6 000342   200122 236100                    LDQ     BUCKET_NUM,,AUTO
         6 000343   201342 756100                    STQ     STATS_REC+608,,AUTO
         6 000344   201342 630500                    EPPR0   STATS_REC+608,,AUTO
         6 000345   200144 450500                    STP0    @KEY+1,,AUTO
         6 000346   000007 236000 7                  LDQ     7
         6 000347   200143 756100                    STQ     UTS_END+3,,AUTO
         6 000350   000440 701000 6                  TSX1    SUM_INTO_STATS_REC
         6 000351   000000 011000                    NOP     0

     2356    10368
     2357    10369    2           FPT_TIME = CONST_FPT_TIME;

  10369  6 000352   000100 100400                    MLR     fill='000'O
         6 000353   000136 000060 4                  ADSC9   CONST_FPT_TIME           cn=0,n=48
PL6.E3A0      #004=VDG$MTERMINATE File=VDG$MAIN.:VDA5TSI                         FRI 07/04/97 11:20 Page:272
         6 000354   200124 000060                    ADSC9   FPT_TIME,,AUTO           cn=0,n=48

     2358    10370    2           FPT_TIME.V_ = VECTOR(FPT_TIME.V);

  10370  6 000355   000010 235000 7                  LDA     8
         6 000356   201336 452500                    STP2    STATS_REC+604,,AUTO
         6 000357   201336 236100                    LDQ     STATS_REC+604,,AUTO
         6 000360   000136 036003                    ADLQ    94,DU
         6 000361   200124 757100                    STAQ    FPT_TIME,,AUTO

     2359    10371    2           FPT_TIME.TSTAMP_ = VECTOR(UTS_END);

  10371  6 000362   777640 235007                    LDA     -96,DL
         6 000363   201336 452500                    STP2    STATS_REC+604,,AUTO
         6 000364   201336 236100                    LDQ     STATS_REC+604,,AUTO
         6 000365   000140 036003                    ADLQ    96,DU
         6 000366   200134 757100                    STAQ    FPT_TIME+8,,AUTO

     2360    10372    2           CALL M$TIME (FPT_TIME)

  10372  6 000367   200124 630500                    EPPR0   FPT_TIME,,AUTO
         6 000370   420004 713400                    CLIMB   alt,+8196
         6 000371   402000 401760                    pmme    nvectors=5
         6 000372   000424 702000 6                  TSX2    s:10381

     2361    10373    3           WHENRETURN DO;

     2362    10374    3              CALL XUD$UTS_DIFF_SEC (BUCKET_NUM,UTS_END,VD_UTS_START);

  10374  6 000373   000011 236000 7                  LDQ     9
         6 000374   201340 756100                    STQ     STATS_REC+606,,AUTO
         6 000375   200140 630500                    EPPR0   UTS_END,,AUTO
         6 000376   201337 450500                    STP0    STATS_REC+605,,AUTO
         6 000377   200122 631500                    EPPR1   BUCKET_NUM,,AUTO
         6 000400   201336 451500                    STP1    STATS_REC+604,,AUTO
         6 000401   201336 630500                    EPPR0   STATS_REC+604,,AUTO
         6 000402   000021 631400 xsym               EPPR1   B_VECTNIL+17
PL6.E3A0      #004=VDG$MTERMINATE File=VDG$MAIN.:VDA5TSI                         FRI 07/04/97 11:20 Page:273
         6 000403   000000 701000 xent               TSX1    XUD$UTS_DIFF_SEC
         6 000404   000000 011000                    NOP     0

     2363    10375    3              BUCKET_NUM = BUCKET_NUM/%STDIV_DURATION;

  10375  6 000405   200122 236100                    LDQ     BUCKET_NUM,,AUTO
         6 000406   000170 506007                    DIV     120,DL
         6 000407   200122 756100                    STQ     BUCKET_NUM,,AUTO

     2364    10376    3              CALL SUM_INTO_STATS_REC (%STK_DURATION,

  10376  6 000410   000011 236007                    LDQ     9,DL
         6 000411   000414 604000 6                  TMI     s:10376+4
         6 000412   200122 116100                    CMPQ    BUCKET_NUM,,AUTO
         6 000413   000415 604400 6                  TMOZ    s:10376+5
         6 000414   200122 236100                    LDQ     BUCKET_NUM,,AUTO
         6 000415   201343 756100                    STQ     STATS_REC+609,,AUTO
         6 000416   201343 630500                    EPPR0   STATS_REC+609,,AUTO
         6 000417   200144 450500                    STP0    @KEY+1,,AUTO
         6 000420   000012 236000 7                  LDQ     10
         6 000421   200143 756100                    STQ     UTS_END+3,,AUTO
         6 000422   000440 701000 6                  TSX1    SUM_INTO_STATS_REC
         6 000423   000000 011000                    NOP     0

     2365    10377    3                MINIMUM(BUCKET_NUM, 9));
     2366    10378    3              END;

     2367    10379
     2368    10380
     2369    10381    2           CALL M$DEQ (STATS_DEQ)      /* Release the stats file */

  10381  6 000424   000064 630400 4                  EPPR0   STATS_DEQ
         6 000425   420003 713400                    CLIMB   alt,+8195
         6 000426   401000 401760                    pmme    nvectors=3
         6 000427   000431 702000 6                  TSX2    CLOSE_STATS
         6 000430   000431 710000 6                  TRA     CLOSE_STATS

PL6.E3A0      #004=VDG$MTERMINATE File=VDG$MAIN.:VDA5TSI                         FRI 07/04/97 11:20 Page:274
     2370    10382    3           WHENALTRETURN DO; ; END;

     2371    10383
     2372    10384    2   CLOSE_STATS:
     2373    10385    2           CALL M$CLOSE (STATS_CLOSE)

  10385  6 000431   000100 630400 4     CLOSE_STATS  EPPR0   STATS_CLOSE
         6 000432   450001 713400                    CLIMB   alt,close
         6 000433   406000 401760                    pmme    nvectors=13
         6 000434   000436 702000 6                  TSX2    s:10388
         6 000435   000436 710000 6                  TRA     s:10388

     2374    10386    3           WHENALTRETURN DO; ; END;

     2375    10387
     2376    10388    2           RETURN;

  10388  6 000436   200010 221300                    LDX1  ! ORIG_ERR+5,,AUTO
         6 000437   000001 702211                    TSX2  ! 1,X1

     2377    10389
     2378    10390                %BOX (TITLE=SUM_INTO_STATS_REC);

             10402    2   /***************************************************************************
             10404    2    *                                                                         *
             10408    2            *                             SUM_INTO_STATS_REC                         *
             10410    2            *                                                                        *
             10412    2          ***************************************************************************/

     2379    10416
     2380    10417    2   SUM_INTO_STATS_REC: PROC (KEY, BUCKET);

  10417  6 000440   200142 741300       SUM_INTO_ST* STX1  ! UTS_END+2,,AUTO

     2381    10418    3   DCL KEY CHAR(%NB_STATS_KEY);
     2382    10419    3   DCL BUCKET UBIN;
     2383    10420
PL6.E3A0      #004=VDG$MTERMINATE File=VDG$MAIN.:VDA5TSI                         FRI 07/04/97 11:20 Page:275
     2384    10421
     2385    10422        %FPT_READ (FPTN=CONST_STATS_READ, DCB=M$E9, KEYS=YES);
     2386    10461        %FPT_WRITE (FPTN=CONST_STATS_WRITE, DCB=M$E9);
     2387    10492
     2388    10493
     2389    10494    3   DCL I UBIN;
     2390    10495        %FPT_READ (FPTN=STATS_READ, STCLASS="");
     2391    10534        %FPT_WRITE (FPTN=STATS_WRITE, STCLASS="");
     2392    10565        %VD_TEXTC (NAME=STATS_KEY, STCLASS="", MXNB=%NB_STATS_KEY);
     2393    10706    3   DCL STATS_REC (0:%RECOFS_END) SBIN;
     2394    10707
     2395    10708
     2396    10709
     2397    10710    3           STATS_READ = CONST_STATS_READ;

  10710  6 000441   000100 100400                    MLR     fill='000'O
         6 000442   000170 000070 5                  ADSC9   CONST_STATS_READ         cn=0,n=56
         6 000443   200146 000070                    ADSC9   STATS_READ,,AUTO         cn=0,n=56

     2398    10711    3           STATS_READ.V_ = VECTOR(STATS_READ.V);

  10711  6 000444   000013 235000 7                  LDA     11
         6 000445   201336 452500                    STP2    STATS_REC+604,,AUTO
         6 000446   201336 236100                    LDQ     STATS_REC+604,,AUTO
         6 000447   000156 036003                    ADLQ    110,DU
         6 000450   200146 757100                    STAQ    STATS_READ,,AUTO

     2399    10712    3           STATS_READ.BUF_ = VECTOR(STATS_REC);

  10712  6 000451   000014 235000 7                  LDA     12
         6 000452   201336 452500                    STP2    STATS_REC+604,,AUTO
         6 000453   201336 236100                    LDQ     STATS_REC+604,,AUTO
         6 000454   000202 036003                    ADLQ    130,DU
         6 000455   200152 757100                    STAQ    STATS_READ+4,,AUTO

     2400    10713    3           STATS_READ.KEY_ = VECTOR(STATS_KEY);

PL6.E3A0      #004=VDG$MTERMINATE File=VDG$MAIN.:VDA5TSI                         FRI 07/04/97 11:20 Page:276
  10713  6 000456   000010 235000 7                  LDA     8
         6 000457   201336 452500                    STP2    STATS_REC+604,,AUTO
         6 000460   201336 236100                    LDQ     STATS_REC+604,,AUTO
         6 000461   000200 036003                    ADLQ    128,DU
         6 000462   200150 757100                    STAQ    STATS_READ+2,,AUTO

     2401    10714    3           STATS_WRITE = CONST_STATS_WRITE;

  10714  6 000463   000100 100400                    MLR     fill='000'O
         6 000464   000206 000060 5                  ADSC9   CONST_STATS_WRITE        cn=0,n=48
         6 000465   200164 000060                    ADSC9   STATS_WRITE,,AUTO        cn=0,n=48

     2402    10715    3           STATS_WRITE.V_ = VECTOR(STATS_WRITE.V);

  10715  6 000466   000004 235000 7                  LDA     4
         6 000467   201336 452500                    STP2    STATS_REC+604,,AUTO
         6 000470   201336 236100                    LDQ     STATS_REC+604,,AUTO
         6 000471   000174 036003                    ADLQ    124,DU
         6 000472   200164 757100                    STAQ    STATS_WRITE,,AUTO

     2403    10716    3           STATS_WRITE.BUF_ = VECTOR(STATS_REC);

  10716  6 000473   000014 235000 7                  LDA     12
         6 000474   201336 452500                    STP2    STATS_REC+604,,AUTO
         6 000475   201336 236100                    LDQ     STATS_REC+604,,AUTO
         6 000476   000202 036003                    ADLQ    130,DU
         6 000477   200170 757100                    STAQ    STATS_WRITE+4,,AUTO

     2404    10717    3           STATS_WRITE.KEY_ = VECTOR(STATS_KEY);

  10717  6 000500   000010 235000 7                  LDA     8
         6 000501   201336 452500                    STP2    STATS_REC+604,,AUTO
         6 000502   201336 236100                    LDQ     STATS_REC+604,,AUTO
         6 000503   000200 036003                    ADLQ    128,DU
         6 000504   200166 757100                    STAQ    STATS_WRITE+2,,AUTO

     2405    10718
PL6.E3A0      #004=VDG$MTERMINATE File=VDG$MAIN.:VDA5TSI                         FRI 07/04/97 11:20 Page:277
     2406    10719    3           STATS_KEY.LENGTH# = %NB_STATS_KEY;

  10719  6 000505   007000 236003                    LDQ     3584,DU
         6 000506   200200 552140                    STBQ    STATS_KEY,'40'O,AUTO

     2407    10720    3           STATS_KEY.BYTES = KEY;

  10720  6 000507   200143 470500                    LDP0    @KEY,,AUTO
         6 000510   040100 100500                    MLR     fill='040'O
         6 000511   000000 000007                    ADSC9   0,,PR0                   cn=0,n=7
         6 000512   200200 200007                    ADSC9   STATS_KEY,,AUTO          cn=1,n=7

     2408    10721    3           IF ADDR(BUCKET) ~= ADDR(NIL) THEN

  10721  6 000513   200144 236100                    LDQ     @BUCKET,,AUTO
         6 000514   000001 116000 xsym               CMPQ    B_VECTNIL+1
         6 000515   000530 600000 6                  TZE     s:10725

     2409    10722    3              CALL INSERT (STATS_KEY.BYTES, %KEYOFS_BUCKET_NUM, 1,

  10722  6 000516   200144 471500                    LDP1    @BUCKET,,AUTO
         6 000517   100000 236100                    LDQ     0,,PR1
         6 000520   000033 736000                    QLS     27
         6 000521   000022 772000                    QRL     18
         6 000522   000000 620006                    EAX0    0,QL
         6 000523   060000 260003                    ORX0    24576,DU
         6 000524   000000 636010                    EAQ     0,X0
         6 000525   000015 276000 7                  ORQ     13
         6 000526   000033 772000                    QRL     27
         6 000527   200201 552104                    STBQ    STATS_KEY+1,'04'O,AUTO

     2410    10723    3                BITASC(BINBIT(BUCKET,9)|ASCBIT('0')));
     2411    10724
     2412    10725    3           CALL M$READ (STATS_READ)

  10725  6 000530   200146 630500                    EPPR0   STATS_READ,,AUTO
         6 000531   440000 713400                    CLIMB   alt,read
PL6.E3A0      #004=VDG$MTERMINATE File=VDG$MAIN.:VDA5TSI                         FRI 07/04/97 11:20 Page:278
         6 000532   401400 401760                    pmme    nvectors=4
         6 000533   000535 702000 6                  TSX2    STATS_READ_FAILED

     2413    10726    3             ALTRET (STATS_READ_FAILED);
     2414    10727
     2415    10728    4           DO %NEVER;

  10728  6 000534   000540 710000 6                  TRA     s:10733

     2416    10729    4   STATS_READ_FAILED:
     2417    10730    4              STATS_REC = %CLEAR;

  10730  6 000535   000100 100400       STATS_READ_* MLR     fill='000'O
         6 000536   000002 000001 xsym               ADSC9   B_VECTNIL+2              cn=0,n=1
         6 000537   200202 004554                    ADSC9   STATS_REC,,AUTO          cn=0,n=2412

     2418    10731    4              END;

     2419    10732
     2420    10733    3           STATS_REC (0) = STATS_REC (0) + 1;

  10733  6 000540   200202 054100                    AOS     STATS_REC,,AUTO

     2421    10734    3           STATS_REC (1) = STATS_REC (1) + XEQTIME.MICROS_DIV_512K;

  10734  6 000541   200116 235100                    LDA     XEQTIME,,AUTO
         6 000542   200117 236100                    LDQ     XEQTIME+1,,AUTO
         6 000543   000023 773000                    LRL     19
         6 000544   000031 376000 xsym               ANQ     B_VECTNIL+25
         6 000545   200203 036100                    ADLQ    STATS_REC+1,,AUTO
         6 000546   200203 756100                    STQ     STATS_REC+1,,AUTO

     2422    10735
     2423    10736    4           DO I = 0 TO %STG_MX;

  10736  6 000547   200145 450100                    STZ     I,,AUTO

PL6.E3A0      #004=VDG$MTERMINATE File=VDG$MAIN.:VDA5TSI                         FRI 07/04/97 11:20 Page:279
     2424    10737    4              STATS_REC (%RECOFS_GEN+I) =

  10737  6 000550   200145 720100                    LXL0    I,,AUTO
         6 000551   200204 236110                    LDQ     STATS_REC+2,X0,AUTO
         6 000552   000035 036010 xsym               ADLQ    VD_6E+29,X0
         6 000553   200204 756110                    STQ     STATS_REC+2,X0,AUTO

     2425    10738    4                STATS_REC (%RECOFS_GEN+I) + VD_6E.STATS# (I);
     2426    10739    4              END;

  10739  6 000554   200145 235100                    LDA     I,,AUTO
         6 000555   000001 035007                    ADLA    1,DL
         6 000556   200145 755100                    STA     I,,AUTO
         6 000557   000144 115007                    CMPA    100,DL
         6 000560   000550 602000 6                  TNC     s:10737

     2427    10740
     2428    10741    4           DO I = 0 TO %STG_MX;

  10741  6 000561   200145 450100                    STZ     I,,AUTO

     2429    10742    4              STATS_REC (%RECOFS_OBJECTS+I) =

  10742  6 000562   200145 720100                    LXL0    I,,AUTO
         6 000563   200350 236110                    LDQ     STATS_REC+102,X0,AUTO
         6 000564   000201 036010 xsym               ADLQ    VD_6E+129,X0
         6 000565   200350 756110                    STQ     STATS_REC+102,X0,AUTO

     2430    10743    4                STATS_REC (%RECOFS_OBJECTS+I) + VD_6E.STATS_OBJECTS# (I);
     2431    10744    4              END;

  10744  6 000566   200145 235100                    LDA     I,,AUTO
         6 000567   000001 035007                    ADLA    1,DL
         6 000570   200145 755100                    STA     I,,AUTO
         6 000571   000144 115007                    CMPA    100,DL
         6 000572   000562 602000 6                  TNC     s:10742

PL6.E3A0      #004=VDG$MTERMINATE File=VDG$MAIN.:VDA5TSI                         FRI 07/04/97 11:20 Page:280
     2432    10745
     2433    10746    4           DO I = 0 TO %MX_TOKEN;

  10746  6 000573   200145 450100                    STZ     I,,AUTO

     2434    10747    4              STATS_REC (%RECOFS_TOKENS+I) =

  10747  6 000574   200145 720100                    LXL0    I,,AUTO
         6 000575   201170 236110                    LDQ     STATS_REC+502,X0,AUTO
         6 000576   000345 036010 xsym               ADLQ    VD_6E+229,X0
         6 000577   201170 756110                    STQ     STATS_REC+502,X0,AUTO

     2435    10748    4                STATS_REC (%RECOFS_TOKENS+I) + VD_6E.STATS_TOKENS# (I);
     2436    10749    4              END;

  10749  6 000600   200145 235100                    LDA     I,,AUTO
         6 000601   000001 035007                    ADLA    1,DL
         6 000602   200145 755100                    STA     I,,AUTO
         6 000603   000144 115007                    CMPA    100,DL
         6 000604   000574 602000 6                  TNC     s:10747

     2437    10750
     2438    10751    4           DO I = 0 TO %MX_ERROR_CODE;

  10751  6 000605   200145 450100                    STZ     I,,AUTO

     2439    10752    4              STATS_REC (%RECOFS_ERRORS+I) =

  10752  6 000606   200145 720100                    LXL0    I,,AUTO
         6 000607   200514 236110                    LDQ     STATS_REC+202,X0,AUTO
         6 000610   000511 036010 xsym               ADLQ    VD_6E+329,X0
         6 000611   200514 756110                    STQ     STATS_REC+202,X0,AUTO

     2440    10753    4                STATS_REC (%RECOFS_ERRORS+I) + VD_6E.STATS_ERRORS# (I);
     2441    10754    4              END;

  10754  6 000612   200145 235100                    LDA     I,,AUTO
PL6.E3A0      #004=VDG$MTERMINATE File=VDG$MAIN.:VDA5TSI                         FRI 07/04/97 11:20 Page:281
         6 000613   000001 035007                    ADLA    1,DL
         6 000614   200145 755100                    STA     I,,AUTO
         6 000615   000454 115007                    CMPA    300,DL
         6 000616   000606 602000 6                  TNC     s:10752

     2442    10755
     2443    10756
     2444    10757
     2445    10758    3           CALL M$WRITE (STATS_WRITE)

  10758  6 000617   200164 630500                    EPPR0   STATS_WRITE,,AUTO
         6 000620   440001 713400                    CLIMB   alt,write
         6 000621   401400 401760                    pmme    nvectors=4
         6 000622   000623 702000 6                  TSX2    STATS_WRITE_FAILED

     2446    10759    3             ALTRET (STATS_WRITE_FAILED);
     2447    10760
     2448    10761    3   STATS_WRITE_FAILED:
     2449    10762
     2450    10763    3           RETURN;

  10763  6 000623   200142 221300       STATS_WRITE* LDX1  ! UTS_END+2,,AUTO
         6 000624   000001 702211                    TSX2  ! 1,X1

     2451    10764
     2452    10765    3   END SUM_INTO_STATS_REC;
     2453    10766
     2454    10767    2   END UPDATE_STATISTICS_FILE;
     2455    10768
     2456    10769        %BOX (TITLE=PROCESS_RESTORE, PAGE=YES);
             10777    2
             10781    2   /***************************************************************************
             10783    2    *                                                                         *
             10787    2            *                              PROCESS_RESTORE                           *
             10789    2            *                                                                        *
             10791    2          ***************************************************************************/

PL6.E3A0      #004=VDG$MTERMINATE File=VDG$MAIN.:VDA5TSI                         FRI 07/04/97 11:20 Page:282
     2457    10795
     2458    10796        /*I* NAME: PROCESS_RESTORE
     2459    10797            PARAMETERS:
     2460    10798                None.
     2461    10799            INPUT:
     2462    10800                VD_$RESTORE must have a non-0-length value.
     2463    10801            OUTPUT:
     2464    10802                None.
     2465    10803            DESCRIPTION:
     2466    10804                If $RESTORE contains a !XEQ command, and if we were M$LINKed-to, then
     2467    10805                    report an error and return.  Currently, if we M$YC to IBEX
     2468    10806                    with an XEQ command, IBEX will copy the XEQ-file to JF.  This has
     2469    10807                    two undesireable effects:
     2470    10808                        1.  The commands in the XEQ-file aren't executed until the
     2471    10809                            processor who M$LINKed to us finally exits back to IBEX.
     2472    10810                            Usually, however, 6Edit users expect commands in their
     2473    10811                            $RESTORE XEQ-file to be executed immediately, to restore
     2474    10812                            IMPs, reset terminal parameters, etc.
     2475    10813                        2.  Worse yet, the commands sitting in JF will cause the
     2476    10814                            processor who M$LINKed to us to get eof on the next read
     2477    10815                            from the command stream -- usually, causing him to exit,
     2478    10816                            or perhaps to read the commands from the XEQ-file as
     2479    10817                            commands to him!
     2480    10818                    Instead, we tell the user that, sorry, we can't do the XEQ command
     2481    10819                    right now.
     2482    10820        *N**N*                  Note that this test is specific
     2483    10821        *N**N*                  to IBEX as the command processor.
     2484    10822        *N**N*                  Ideal fix is to either:
     2485    10823        *N**N*                    o Fix IBEX to handle XEQ immediately,
     2486    10824        *N**N*                      so we don't have to do this test; or
     2487    10825        *N**N*                    o Have some way that we could tell if
     2488    10826        *N**N*                      IBEX is the current CP or not.
     2489    10827                Otherwise, pass the value of $RESTORE to the command processor to
     2490    10828                    execute.
     2491    10829        */
     2492    10830
     2493    10831    1   PROCESS_RESTORE: PROC;
PL6.E3A0      #004=VDG$MTERMINATE File=VDG$MAIN.:VDA5TSI                         FRI 07/04/97 11:20 Page:283

  10831  6 000625   200010 741300       PROCESS_RES* STX1  ! ORIG_ERR+5,,AUTO

     2494    10832
     2495    10833
     2496    10834        %FPT_YC (LINK=YES, STCLASS=STATIC);
     2497    10851
     2498    10852
     2499    10853    2   DCL INDX SBIN;
     2500    10854    2   DCL IBEX_VERB CHAR(%LENGTHC(CHR_IBEX_XEQ_VERB));
     2501    10855    2   DCL SINK SBIN;
     2502    10856
     2503    10857
     2504    10858
     2505    10859    2           IF B$JIT.PROG_ENTRY = %PE_LINK# THEN

  10859  6 000626   000000 470400 xsym               LDP0    B$JIT$
         6 000627   000170 236100                    LDQ     120,,PR0
         6 000630   777000 376003                    ANQ     -512,DU
         6 000631   020000 116003                    CMPQ    8192,DU
         6 000632   000727 601000 6                  TNZ     s:10884

     2506    10860    3   REJECT_XEQ_COMMAND: DO;

  10860  6 000633                       REJECT_XEQ_* null
     2507    10861    3              INDX = 0;

  10861  6 000633   200011 450100                    STZ     INDX,,AUTO

     2508    10862    3              CALL SEARCH (INDX, SINK, B$SR_NON_BLANK,

  10862  6 000634   000002 236000 xsym               LDQ     VD_$RESTORE+2
         6 000635   000022 732000                    QRS     18
         6 000636   200011 136100                    SBLQ    INDX,,AUTO
         6 000637   201336 756100                    STQ     STATS_REC+604,,AUTO
         6 000640   200011 236100                    LDQ     INDX,,AUTO
         6 000641   000000 471400 xsym               LDP1    B$SR_NON_BLANK$
PL6.E3A0      #004=VDG$MTERMINATE File=VDG$MAIN.:VDA5TSI                         FRI 07/04/97 11:20 Page:284
         6 000642   201336 720100                    LXL0    STATS_REC+604,,AUTO
         6 000643   000000 164446                    TCT
         6 000644   000002 400010 xsym               ADSC9   VD_$RESTORE+2,Q          cn=2,n=*X0
         6 000645   100000 000100                    ARG     0,,PR1
         6 000646   200011 000100                    ARG     INDX,,AUTO
         6 000647   200011 235100                    LDA     INDX,,AUTO
         6 000650   000033 771000                    ARL     27
         6 000651   200013 755100                    STA     SINK,,AUTO
         6 000652   200011 551140                    STBA    INDX,'40'O,AUTO
         6 000653   200011 056100                    ASQ     INDX,,AUTO

     2509    10863    3                SUBSTR(VD_$RESTORE.BYTES, 0, VD_$RESTORE.LENGTH#), INDX);
     2510    10864    3              IF VD_$RESTORE.LENGTH# - INDX >= LENGTHC(%CHR_IBEX_PROMPT)

  10864  6 000654   000002 236000 xsym               LDQ     VD_$RESTORE+2
         6 000655   000022 732000                    QRS     18
         6 000656   200011 136100                    SBLQ    INDX,,AUTO
         6 000657   000666 604400 6                  TMOZ    s:10868
         6 000660   200011 236100                    LDQ     INDX,,AUTO
         6 000661   040000 106406                    CMPC    fill='040'O
         6 000662   000002 400001 xsym               ADSC9   VD_$RESTORE+2,Q          cn=2,n=1
         6 000663   000016 000001 7                  ADSC9   14                       cn=0,n=1
         6 000664   000666 601000 6                  TNZ     s:10868

     2511    10865    3                AND SUBSTR(VD_$RESTORE.BYTES, INDX, LENGTHC(%CHR_IBEX_PROMPT)) =
     2512    10866    3                %CHR_IBEX_PROMPT THEN
     2513    10867    3                 INDX = INDX + LENGTHC(%CHR_IBEX_PROMPT);

  10867  6 000665   200011 054100                    AOS     INDX,,AUTO

     2514    10868    4              IF INDX < VD_$RESTORE.LENGTH# THEN DO;

  10868  6 000666   000002 236000 xsym               LDQ     VD_$RESTORE+2
         6 000667   000022 732000                    QRS     18
         6 000670   200011 116100                    CMPQ    INDX,,AUTO
         6 000671   000727 604400 6                  TMOZ    s:10884

PL6.E3A0      #004=VDG$MTERMINATE File=VDG$MAIN.:VDA5TSI                         FRI 07/04/97 11:20 Page:285
     2515    10869    4                 CALL SEARCH (INDX, SINK, B$SR_NON_BLANK,

  10869  6 000672   200011 136100                    SBLQ    INDX,,AUTO
         6 000673   201336 756100                    STQ     STATS_REC+604,,AUTO
         6 000674   200011 236100                    LDQ     INDX,,AUTO
         6 000675   201336 720100                    LXL0    STATS_REC+604,,AUTO
         6 000676   000000 164446                    TCT
         6 000677   000002 400010 xsym               ADSC9   VD_$RESTORE+2,Q          cn=2,n=*X0
         6 000700   100000 000100                    ARG     0,,PR1
         6 000701   200011 000100                    ARG     INDX,,AUTO
         6 000702   200011 235100                    LDA     INDX,,AUTO
         6 000703   000033 771000                    ARL     27
         6 000704   200013 755100                    STA     SINK,,AUTO
         6 000705   200011 551140                    STBA    INDX,'40'O,AUTO
         6 000706   200011 056100                    ASQ     INDX,,AUTO

     2516    10870    4                   SUBSTR(VD_$RESTORE.BYTES, 0, VD_$RESTORE.LENGTH#), INDX);
     2517    10871    4                 IF VD_$RESTORE.LENGTH# - INDX >=

  10871  6 000707   000002 236000 xsym               LDQ     VD_$RESTORE+2
         6 000710   000022 732000                    QRS     18
         6 000711   200011 136100                    SBLQ    INDX,,AUTO
         6 000712   000003 116007                    CMPQ    3,DL
         6 000713   000727 604000 6                  TMI     s:10884

     2518    10872    5                   LENGTHC(%CHR_IBEX_XEQ_VERB) THEN DO;

     2519    10873    5                    CALL XLATE (IBEX_VERB, B$XL_UPPER,

  10873  6 000714   200011 236100                    LDQ     INDX,,AUTO
         6 000715   000000 473400 xsym               LDP3    B$XL_UPPER$
         6 000716   040100 160406                    MVT     fill='040'O
         6 000717   000002 400003 xsym               ADSC9   VD_$RESTORE+2,Q          cn=2,n=3
         6 000720   200012 000003                    ADSC9   IBEX_VERB,,AUTO          cn=0,n=3
         6 000721   300000 000100                    ARG     0,,PR3

     2520    10874    5                      SUBSTR(VD_$RESTORE.BYTES, INDX,
PL6.E3A0      #004=VDG$MTERMINATE File=VDG$MAIN.:VDA5TSI                         FRI 07/04/97 11:20 Page:286
     2521    10875    5                      LENGTHC(%CHR_IBEX_XEQ_VERB)));
     2522    10876    6                    IF IBEX_VERB = %CHR_IBEX_XEQ_VERB THEN DO;

  10876  6 000722   200012 236100                    LDQ     IBEX_VERB,,AUTO
         6 000723   000173 676000 4                  ERQ     CONST_FPT_TIME+29
         6 000724   000017 376000 7                  ANQ     15
         6 000725   000727 601000 6                  TNZ     s:10884

     2523    10877                               /* This is an IBEX XEQ command - reject it */
     2524    10878    6                       GOTO CANT_DO_IBEX_XEQ_FAILURE;

  10878  6 000726   000743 710000 6                  TRA     CANT_DO_IBEX_XEQ_FAILURE

     2525    10879    6                       END;
     2526    10880    5                    END;
     2527    10881    4                 END;
     2528    10882    3              END REJECT_XEQ_COMMAND;
     2529    10883
     2530    10884    2           FPT_YC.CMD_ = VECTOR(SUBSTR(VD_$RESTORE.BYTES, 0, VD_$RESTORE.LENGTH#));

  10884  6 000727   000002 235000 xsym               LDA     VD_$RESTORE+2
         6 000730   777777 375003                    ANA     -1,DU
         6 000731   000002 731000                    ARS     2
         6 000732   000140 135007                    SBLA    96,DL
         6 000733   000020 236000 7                  LDQ     16
         6 000734   000222 757000 5                  STAQ    FPT_YC

     2531    10885    2           CALL M$YC (FPT_YC)

  10885  6 000735   000222 630400 5                  EPPR0   FPT_YC
         6 000736   400011 713400                    CLIMB   alt,+9
         6 000737   401000 401760                    pmme    nvectors=3
         6 000740   001001 702000 6                  TSX2    YC_FAILED

     2532    10886    2             ALTRET (YC_FAILED);
     2533    10887
     2534    10888    2           RETURN;
PL6.E3A0      #004=VDG$MTERMINATE File=VDG$MAIN.:VDA5TSI                         FRI 07/04/97 11:20 Page:287

  10888  6 000741   200010 221300                    LDX1  ! ORIG_ERR+5,,AUTO
         6 000742   000001 702211                    TSX2  ! 1,X1

     2535    10889
     2536    10890
     2537    10891
     2538    10892    2   CANT_DO_IBEX_XEQ_FAILURE:
     2539    10893    2           XUG_GETCMD.ERR_CODE = %CLEAR;

  10893  6 000743   000010 450000 xsym  CANT_DO_IBE* STZ     XUG_GETCMD+8

     2540    10894    2           XUG_GETCMD.ERR_CODE.FCG# = %CONCAT(FCG, FCG_MID_GLOBAL);

  10894  6 000744   260407 220003                    LDX0    90375,DU
         6 000745   000010 740000 xsym               STX0    XUG_GETCMD+8

     2541    10895    2           XUG_GETCMD.ERR_CODE.CODE# = %E$CANT_DO_IBEX_XEQ;

  10895  6 000746   000010 236000 xsym               LDQ     XUG_GETCMD+8
         6 000747   000021 376000 7                  ANQ     17
         6 000750   000150 276007                    ORQ     104,DL
         6 000751   000010 756000 xsym               STQ     XUG_GETCMD+8

     2542    10896    2           XUG_GETCMD.FLGLEV# = %FLV_SERIOUS;

  10896  6 000752   000003 236003                    LDQ     3,DU
         6 000753   000006 552020 xsym               STBQ    XUG_GETCMD+6,'20'O

     2543    10897    2           XUG_GETCMD.F1_ = VECTOR(PINCRC(ADDR(VD_$RESTORE.LENGTH#),

  10897  6 000754   000002 222000 xsym               LDX2    VD_$RESTORE+2
         6 000755   000777 362003                    ANX2    511,DU
         6 000756   000001 623012                    EAX3    1,X2
         6 000757   000000 635013                    EAA     0,X3
         6 000760   000002 771000                    ARL     2
         6 000761   000140 135007                    SBLA    96,DL
PL6.E3A0      #004=VDG$MTERMINATE File=VDG$MAIN.:VDA5TSI                         FRI 07/04/97 11:20 Page:288
         6 000762   000022 236000 7                  LDQ     18
         6 000763   000017 755000 xsym               STA     XUG_GETCMD+15
         6 000764   000020 756000 xsym               STQ     XUG_GETCMD+16

     2544    10898    2             LENGTHC(VD_$RESTORE.LENGTH#) - LENGTHC(VD$TEXTC.LENGTH#)) ->
     2545    10899    2             VD$TEXTC);
     2546    10900    2           XUG_GETCMD.F2_ = VECTOR(NIL);

  10900  6 000765   000024 237000 7                  LDAQ    20
         6 000766   000021 755000 xsym               STA     XUG_GETCMD+17
         6 000767   000022 756000 xsym               STQ     XUG_GETCMD+18

     2547    10901    2           XUG_GETCMD.F3_ = VECTOR(NIL);

  10901  6 000770   000024 237000 7                  LDAQ    20
         6 000771   000023 755000 xsym               STA     XUG_GETCMD+19
         6 000772   000024 756000 xsym               STQ     XUG_GETCMD+20

     2548    10902    2           CALL XUG$ERRMSG (XUG_GETCMD);

  10902  6 000773   000000 630400 7                  EPPR0   0
         6 000774   000017 631400 xsym               EPPR1   B_VECTNIL+15
         6 000775   000000 701000 xent               TSX1    XUG$ERRMSG
         6 000776   000000 011000                    NOP     0

     2549    10903    2           RETURN;

  10903  6 000777   200010 221300                    LDX1  ! ORIG_ERR+5,,AUTO
         6 001000   000001 702211                    TSX2  ! 1,X1

     2550    10904
     2551    10905
     2552    10906    2   YC_FAILED:
     2553    10907    2           XUG_GETCMD.ERR_CODE = B$TCB$->B$TCB.ALT$->B$ALT.ERR;

  10907  6 001001   000000 470400 xsym  YC_FAILED    LDP0    B$TCB$
         6 001002   000000 471500                    LDP1    0,,PR0
PL6.E3A0      #004=VDG$MTERMINATE File=VDG$MAIN.:VDA5TSI                         FRI 07/04/97 11:20 Page:289
         6 001003   100102 236100                    LDQ     66,,PR1
         6 001004   000010 756000 xsym               STQ     XUG_GETCMD+8

     2554    10908    2           XUG_GETCMD.FLGLEV# = %FLV_SERIOUS;

  10908  6 001005   000003 236003                    LDQ     3,DU
         6 001006   000006 552020 xsym               STBQ    XUG_GETCMD+6,'20'O

     2555    10909    2           XUG_GETCMD.ERRDCB# = 0;

  10909  6 001007   000011 450000 xsym               STZ     XUG_GETCMD+9

     2556    10910    2           XUG_GETCMD.F1_ = VECTOR(NIL);

  10910  6 001010   000024 237000 7                  LDAQ    20
         6 001011   000017 755000 xsym               STA     XUG_GETCMD+15
         6 001012   000020 756000 xsym               STQ     XUG_GETCMD+16

     2557    10911    2           XUG_GETCMD.F2_ = VECTOR(NIL);

  10911  6 001013   000024 237000 7                  LDAQ    20
         6 001014   000021 755000 xsym               STA     XUG_GETCMD+17
         6 001015   000022 756000 xsym               STQ     XUG_GETCMD+18

     2558    10912    2           XUG_GETCMD.F3_ = VECTOR(NIL);

  10912  6 001016   000024 237000 7                  LDAQ    20
         6 001017   000023 755000 xsym               STA     XUG_GETCMD+19
         6 001020   000024 756000 xsym               STQ     XUG_GETCMD+20

     2559    10913    2           CALL XUG$ERRMSG (XUG_GETCMD);

  10913  6 001021   000000 630400 7                  EPPR0   0
         6 001022   000017 631400 xsym               EPPR1   B_VECTNIL+15
         6 001023   000000 701000 xent               TSX1    XUG$ERRMSG
         6 001024   000000 011000                    NOP     0

PL6.E3A0      #004=VDG$MTERMINATE File=VDG$MAIN.:VDA5TSI                         FRI 07/04/97 11:20 Page:290
     2560    10914    2           RETURN;

  10914  6 001025   200010 221300                    LDX1  ! ORIG_ERR+5,,AUTO
         6 001026   000001 702211                    TSX2  ! 1,X1

     2561    10915
     2562    10916    2   END PROCESS_RESTORE;
     2563    10917
     2564    10918    1   END VDG$MTERMINATE;

  10918  6 001027   000000 702200 xent               TSX2  ! X66_ARET

PL6.E3A0      #004=VDG$MTERMINATE File=VDG$MAIN.:VDA5TSI                         FRI 07/04/97 11:20 Page:291
--  Include file information  --

   XUD_UTS_M.:TOOLE04  is referenced.
   CP_6_SUBS.:LIBRARY  is referenced.
   B$JIT.:LIBRARY  cannot be made into a system file and is referenced.
   B$TABLES_C.:LIBRARY  cannot be made into a system file and is referenced.
   XUG_ENTRY.:LIBRARY  cannot be made into a system file and is referenced.
   XU_MACRO_C.:LIBRARY  is referenced.
   VD_NODES0_E.:VDA5TOU  is referenced.
   VD_PERR_C.:VDA5TOU  is referenced.
   VD_MACROS_M.:VDA5TOU  is referenced.
   B_ERRORS_C.:LIBRARY  is referenced.
   CP_6.:LIBRARY  cannot be made into a system file and is referenced.
   B$JIT_C.:E04TOU  was found in the system file and is referenced.
   CP_6_C.:E04TOU  was found in the system file and is referenced.
      No diagnostics issued in procedure VDG$MTERMINATE.
PL6.E3A0      #004=VDG$MTERMINATE File=VDG$MAIN.:VDA5TSI                         FRI 07/04/97 11:20 Page:292

 **** Variables and constants ****

  ****  Section 004 RoData VDG$MTERMINATE

  ****  Scalars and arrays  ****
OctLoc.c.b A Datatyp(siz) R M Lvl/name                 OctLoc.c.b A Datatyp(siz) R M Lvl/name

   136-0-0/d STRC(432)   r     1 CONST_FPT_TIME            12-0-0/c CHAR(5)     r     1 DELTA_CMD
    14-0-0/c STRC(90)    r     1 DELTA_FID                  0-0-0/d STRC(360)   r     1 FPT_ALIB
    26-0-0/d STRC(432)   r     1 FPT_MONINFO               20-0-0/d STRC(216)   r     1 REVOKE_EXIT_CONTROL
    46-0-0/w STRC(126)   r     1 STATS_ACCESS              42-0-0/c STRC(72)    r     1 STATS_ACCT
   100-0-0/d STRC(1080)  r     1 STATS_CLOSE               64-0-0/d STRC(288)   r     1 STATS_DEQ
    52-0-0/d STRC(360)   r     1 STATS_ENQ                 44-0-0/c STRC(72)    r     1 STATS_PASS
    74-0-0/c STRC(90)    r     1 STATS_RNAME

  ****  Section 005  Data  VDG$MTERMINATE

  ****  Scalars and arrays  ****
OctLoc.c.b A Datatyp(siz) R M Lvl/name                 OctLoc.c.b A Datatyp(siz) R M Lvl/name

     0-0-0/d STRC(2088)  r     1 CONST_STATS_OPEN         170-0-0/d STRC(504)   r     1 CONST_STATS_READ
   206-0-0/d STRC(432)   r     1 CONST_STATS_WRITE        222-0-0/d STRC(288)   r     1 FPT_YC
    72-0-0/d STRC(2232)  r     1 VLR_SITEINFO

  ****  Auto variables  ****

  ****  Scalars and arrays  ****
OctLoc.c.b A Datatyp(siz) R M Lvl/name                 OctLoc.c.b A Datatyp(siz) R M Lvl/name

   144-0-0/w PTR         r     1 @BUCKET                  143-0-0/w PTR         r     1 @KEY
    *0-0-0/w UBIN        r     1 BUCKET                   122-0-0/w SBIN        r     1 BUCKET_NUM
   124-0-0/d STRC(432)   r     1 FPT_TIME                 114-0-0/d STRC(72)    r     1 FPT_XEQTIME
   145-0-0/w UBIN        r     1 I                         12-0-0/c CHAR(3)     r     1 IBEX_VERB
    11-0-0/w SBIN        r     1 INDX                      *0-0-0/c CHAR(7)     r     1 KEY
    11-0-0/w PTR         r     1 L0_NODE$                  12-0-0/w PTR         r     1 L1_NODE$
     3-0-0/w STRC(180)   r     1 ORIG_ERR                  13-0-0/w SBIN        r     1 SINK
   200-0-0/c STRC(72)    r     1 STATS_KEY                104-0-0/c STRC(288)   r     1 STATS_NAME
PL6.E3A0      #004=VDG$MTERMINATE File=VDG$MAIN.:VDA5TSI                         FRI 07/04/97 11:20 Page:293
    12-0-0/d STRC(2088)  r     1 STATS_OPEN               146-0-0/d STRC(504)   r     1 STATS_READ
   202-0-0/w SBIN        r     1 STATS_REC(0:602)
   164-0-0/d STRC(432)   r     1 STATS_WRITE              140-0-0/w UBIN        r     1 UTS_END
    13-0-0/w PTR         r     1 WINDOW_SPEC$             116-0-0/d STRC(144)   r     1 XEQTIME

  ****  SYMREF variables  ****

  ****  Scalars and arrays  ****
OctLoc.c.b A Datatyp(siz) R M Lvl/name                 OctLoc.c.b A Datatyp(siz) R M Lvl/name

     0-0-0/w PTR         r     1 B$JIT$                     0-0-0/w PTR         r     1 B$SR_NON_BLANK$
     0-0-0/w PTR         r     1 B$TCB$                     0-0-0/w PTR         r     1 B$XL_UPPER$
     0-0-0/c STRC(63)    r     1 B_VERSION                  0-0-0/w ASTR(90)    r     1 VD_$RESTORE
     0-0-0/w STRC(22644) r     1 VD_6E                      0-0-0/d STRC(216)   r     1 VD_EXIT
     0-0-0/w UBIN        r     1 VD_UTS_START               0-0-0/d STRC(1512)  r     1 XUG_GETCMD

  ****  BASED and DCB variables  ****

  ****  Scalars and arrays  ****
OctLoc.c.b A Datatyp(siz) R M Lvl/name                 OctLoc.c.b A Datatyp(siz) R M Lvl/name

     0-0-0/w STRC(2448)  r     1 B$ALT                      0-0-0/d STRC(8856)  r     1 B$JIT
     0-0-0/d STRC(4608)  r     1 B$SR_NON_BLANK             0-0-0/w STRC(144)   r     1 B$TCB
     0-0-0/d STRC(4608)  r     1 B$XL_UPPER                 0-0-0/d ASTR(3528)  r     1 F$DCB
     0-0-0/w STRC(180)   r     1 FATAL$ERR                  0-0-0/w STRC(468)   r     1 L0$NODE
     0-0-0/w STRC(468)   r     1 L1$NODE                    0-0-0N  NULL        r     1 M$E9
     0-0-0/w STRC(1944)  r     1 VD$PORT                    0-0-0/w STRC(864)   r     1 VD$STREAM
     0-0-0/w ASTR(9)     r     1 VD$TEXTC                   0-0-0/w STRC(900)   r     1 WINDOW$SPEC


   Procedure VDG$MTERMINATE requires 536 words for executable code.
   Procedure VDG$MTERMINATE requires 740 words of local(AUTO) storage.

    No errors detected in file VDG$MAIN.:VDA5TSI    .
PL6.E3A0      #004=VDG$MTERMINATE File=VDG$MAIN.:VDA5TSI                         FRI 07/04/97 11:20 Page:294
          *** CROSS REFERENCE LISTING ***
**     DENOTES     IDENTIFIER DEFINITION
<<                 IDENTIFIER'S VALUE SET
>>                 IDENTIFIER'S VALUE USED
<>                 IDENTIFIER SET AND/OR USED
--                 IDENTIFIER REFERENCED
PL6.E3A0      #004=VDG$MTERMINATE File=VDG$MAIN.:VDA5TSI                         FRI 07/04/97 11:20 Page:295
          MINI XREF LISTING

B$ALT.CODE
      8835**DCL      8835--REDEF    8836--REDEF    8836--REDEF
B$ALT.ERR
      8836**DCL     10907>>ASSIGN
B$ALT.ERR.ERR#
      8837**DCL      8837--REDEF
B$ALT.EVID
      8836**DCL      8836--REDEF    8836--REDEF
B$JIT.CPFLAGS1.SLEAZE
      7073**DCL      7073--REDEF
B$JIT.ERR.MID
      6980**DCL      6980--REDEF
B$JIT.JRESPEAK
      7141**DCL      7142--REDEF
B$JIT.ORIGINATOR_PORT.FROM_CR
      7250**DCL      7250--REDEF    7251--REDEF
B$JIT.PNR
      7154**DCL      7154--REDEF
B$JIT.PROG_ENTRY
      7129**DCL     10859>>IF
B$JIT.TSLINE
      7248**DCL      7249--REDEF
B$JIT$
      7888**DCL      6974--IMP-PTR 10859>>IF
B$SR_NON_BLANK
      8482**DCL     10862>>CALLBLT 10869>>CALLBLT
B$SR_NON_BLANK$
      8481**DCL      8482--IMP-PTR 10862>>CALLBLT 10869>>CALLBLT
B$TCB.ALT$
      8831**DCL     10907>>ASSIGN
B$TCB$
      7887**DCL     10907>>ASSIGN
PL6.E3A0      #004=VDG$MTERMINATE File=VDG$MAIN.:VDA5TSI                         FRI 07/04/97 11:20 Page:296
B$XL_UPPER
      8486**DCL     10873>>CALLBLT
B$XL_UPPER$
      8485**DCL      8486--IMP-PTR 10873>>CALLBLT
BUCKET IN PROCEDURE SUM_INTO_STATS_REC
     10419**DCL     10417--PROC    10721--IF      10722>>CALLBLT
BUCKET_NUM IN PROCEDURE UPDATE_STATISTICS_FILE
     10310**DCL     10362<<ASSIGN  10363>>CALL    10365<<ASSIGN  10367>>CALL    10374<>CALL    10375<<ASSIGN
     10375>>ASSIGN  10376>>CALL
B_VERSION.BYTES
      8477**DCL     10344>>CALLBLT
B_VERSION.LENGTH#
      8477**DCL     10344>>CALLBLT 10346>>ASSIGN
CANT_DO_IBEX_XEQ_FAILURE IN PROCEDURE PROCESS_RESTORE
     10893**LABEL   10878--GOTO
CLOSE_ALL_STREAMS
      8994**PROC     8903--CALL
CLOSE_STATS IN PROCEDURE UPDATE_STATISTICS_FILE
     10385**LABEL   10353--CALLALT
CONST_FPT_TIME IN PROCEDURE UPDATE_STATISTICS_FILE
     10009**DCL     10369>>ASSIGN
CONST_FPT_TIME.V IN PROCEDURE UPDATE_STATISTICS_FILE
     10013**DCL     10009--DCLINIT
CONST_STATS_OPEN IN PROCEDURE UPDATE_STATISTICS_FILE
      9672**DCL     10341>>ASSIGN
CONST_STATS_OPEN.ACSVEH_ IN PROCEDURE UPDATE_STATISTICS_FILE
      9674**DCL      9675--REDEF
CONST_STATS_OPEN.ALTKEYS_ IN PROCEDURE UPDATE_STATISTICS_FILE
      9680**DCL      9681--REDEF    9681--REDEF
CONST_STATS_OPEN.HDR_ IN PROCEDURE UPDATE_STATISTICS_FILE
      9679**DCL      9680--REDEF
CONST_STATS_OPEN.TAB_ IN PROCEDURE UPDATE_STATISTICS_FILE
      9678**DCL      9679--REDEF
CONST_STATS_OPEN.UHL_ IN PROCEDURE UPDATE_STATISTICS_FILE
      9672**DCL      9673--REDEF    9673--REDEF
CONST_STATS_OPEN.V IN PROCEDURE UPDATE_STATISTICS_FILE
PL6.E3A0      #004=VDG$MTERMINATE File=VDG$MAIN.:VDA5TSI                         FRI 07/04/97 11:20 Page:297
      9681**DCL      9672--DCLINIT
CONST_STATS_OPEN.V.FSN# IN PROCEDURE UPDATE_STATISTICS_FILE
      9712**DCL      9712--REDEF    9712--REDEF
CONST_STATS_OPEN.WSN_ IN PROCEDURE UPDATE_STATISTICS_FILE
      9678**DCL      9678--REDEF
CONST_STATS_READ IN PROCEDURE SUM_INTO_STATS_REC
     10439**DCL     10710>>ASSIGN
CONST_STATS_READ.STATION_ IN PROCEDURE SUM_INTO_STATS_REC
     10442**DCL     10443--REDEF
CONST_STATS_READ.V IN PROCEDURE SUM_INTO_STATS_REC
     10443**DCL     10439--DCLINIT
CONST_STATS_READ.V.DVBYTE.REREAD# IN PROCEDURE SUM_INTO_STATS_REC
     10454**DCL     10454--REDEF
CONST_STATS_READ.V.INDX# IN PROCEDURE SUM_INTO_STATS_REC
     10452**DCL     10452--REDEF
CONST_STATS_WRITE IN PROCEDURE SUM_INTO_STATS_REC
     10478**DCL     10714>>ASSIGN
CONST_STATS_WRITE.STATION_ IN PROCEDURE SUM_INTO_STATS_REC
     10480**DCL     10480--REDEF
CONST_STATS_WRITE.V IN PROCEDURE SUM_INTO_STATS_REC
     10481**DCL     10478--DCLINIT
CONST_STATS_WRITE.V.DVBYTE.VFC# IN PROCEDURE SUM_INTO_STATS_REC
     10487**DCL     10487--REDEF
DELTA_CMD
      8540**DCL      8534--DCLINIT
DELTA_FID
      8675**DCL      8534--DCLINIT
F$DCB.ACTPOS
      8874**DCL      8874--REDEF
F$DCB.ARS#
      8848**DCL      8848--REDEF
F$DCB.ATTR
      8867**DCL      8868--REDEF
F$DCB.BORROW
      8882**DCL      8882--REDEF    8882--REDEF    8882--REDEF
F$DCB.DCBNAME.L
PL6.E3A0      #004=VDG$MTERMINATE File=VDG$MAIN.:VDA5TSI                         FRI 07/04/97 11:20 Page:298
      8896**DCL      8896--IMP-SIZ
F$DCB.EOMCHAR#
      8852**DCL      8852--REDEF
F$DCB.FLDID
      8877**DCL      8877--REDEF
F$DCB.FORM$
      8871**DCL      8871--REDEF
F$DCB.FSECT
      8887**DCL      8887--REDEF
F$DCB.FSN#
      8864**DCL      8864--REDEF    8864--REDEF    8865--REDEF
F$DCB.HEADER$
      8870**DCL      8870--REDEF
F$DCB.IXTNSIZE#
      8868**DCL      8868--REDEF
F$DCB.LASTSTA$
      8857**DCL      8857--REDEF
F$DCB.LVL
      8883**DCL      8883--REDEF
F$DCB.NAME#.C
      8858**DCL      8858--REDEF
F$DCB.NOEOF
      8880**DCL      8880--REDEF
F$DCB.NRECS#
      8869**DCL      8869--REDEF
F$DCB.NRECX
      8888**DCL      8888--REDEF
F$DCB.OHDR
      8880**DCL      8880--REDEF
F$DCB.ORG#
      8863**DCL      8863--REDEF
F$DCB.PRECNO
      8886**DCL      8886--REDEF
F$DCB.RCSZ
      8892**DCL      8892--REDEF
F$DCB.RES#
PL6.E3A0      #004=VDG$MTERMINATE File=VDG$MAIN.:VDA5TSI                         FRI 07/04/97 11:20 Page:299
      8859**DCL      8859--REDEF
F$DCB.SETX
      8871**DCL      8871--REDEF
F$DCB.TAB$
      8871**DCL      8871--REDEF
F$DCB.TDA
      8885**DCL      8886--REDEF
F$DCB.WSN#
      8859**DCL      8859--REDEF
FATAL$ERR
      8762**DCL      8901>>ASSIGN   8908>>ASSIGN
FPT_ALIB
      8534**DCL      8926<>CALL
FPT_ALIB.V
      8535**DCL      8535--DCLINIT
FPT_MONINFO IN PROCEDURE UPDATE_STATISTICS_FILE
      9600**DCL     10334<>CALL
FPT_TIME IN PROCEDURE UPDATE_STATISTICS_FILE
     10322**DCL     10369<<ASSIGN  10372<>CALL
FPT_TIME.TSTAMP_ IN PROCEDURE UPDATE_STATISTICS_FILE
     10325**DCL     10371<<ASSIGN
FPT_TIME.V IN PROCEDURE UPDATE_STATISTICS_FILE
     10326**DCL     10370--ASSIGN
FPT_TIME.V_ IN PROCEDURE UPDATE_STATISTICS_FILE
     10322**DCL     10370<<ASSIGN
FPT_XEQTIME IN PROCEDURE UPDATE_STATISTICS_FILE
     10303**DCL     10358<>CALL
FPT_XEQTIME.BUF_ IN PROCEDURE UPDATE_STATISTICS_FILE
     10303**DCL     10357<<ASSIGN
FPT_YC IN PROCEDURE PROCESS_RESTORE
     10847**DCL     10885<>CALL
FPT_YC.CMD_ IN PROCEDURE PROCESS_RESTORE
     10847**DCL     10884<<ASSIGN
FPT_YC.V IN PROCEDURE PROCESS_RESTORE
     10848**DCL     10847--DCLINIT
I IN PROCEDURE SUM_INTO_STATS_REC
PL6.E3A0      #004=VDG$MTERMINATE File=VDG$MAIN.:VDA5TSI                         FRI 07/04/97 11:20 Page:300
     10494**DCL     10736<<DOINDEX 10737>>ASSIGN  10737>>ASSIGN  10737>>ASSIGN  10741<<DOINDEX 10742>>ASSIGN
     10742>>ASSIGN  10742>>ASSIGN  10746<<DOINDEX 10747>>ASSIGN  10747>>ASSIGN  10747>>ASSIGN  10751<<DOINDEX
     10752>>ASSIGN  10752>>ASSIGN  10752>>ASSIGN
IBEX_VERB IN PROCEDURE PROCESS_RESTORE
     10854**DCL     10873<<CALLBLT 10876>>IF
INDX IN PROCEDURE PROCESS_RESTORE
     10853**DCL     10861<<ASSIGN  10862<<CALLBLT 10862>>CALLBLT 10864>>IF      10864>>IF      10867<<ASSIGN
     10867>>ASSIGN  10868>>IF      10869<<CALLBLT 10869>>CALLBLT 10871>>IF      10873>>CALLBLT
KEY IN PROCEDURE SUM_INTO_STATS_REC
     10418**DCL     10417--PROC    10720>>ASSIGN
L0$NODE.HEAD$ IN PROCEDURE CLOSE_ALL_STREAMS
      9092**DCL      9473>>ASSIGN
L0_NODE$ IN PROCEDURE CLOSE_ALL_STREAMS
      8996**DCL      9009--IMP-PTR  9469<<ASSIGN   9471>>IF       9473>>ASSIGN
L1$NODE.DESC.SPEC.V$ IN PROCEDURE CLOSE_ALL_STREAMS
      9181**DCL      9475>>ASSIGN
L1$NODE.FLINK$ IN PROCEDURE CLOSE_ALL_STREAMS
      9128**DCL      9484>>ASSIGN
L1_NODE$ IN PROCEDURE CLOSE_ALL_STREAMS
      8997**DCL      9102--IMP-PTR  9473<<ASSIGN   9474>>DOWHILE  9475>>ASSIGN   9484<<ASSIGN   9484>>ASSIGN
M$ALIB
        92**DCL-ENT  8926--CALL
M$CLOSE
        79**DCL-ENT 10385--CALL
M$DEQ
       146**DCL-ENT 10381--CALL
M$ENQ
       145**DCL-ENT 10353--CALL
M$ERR
        91**DCL-ENT  8943--CALL
M$EXIT
        91**DCL-ENT  8941--CALL
M$MONINFO
       147**DCL-ENT 10334--CALL
M$OPEN
        79**DCL-ENT 10348--CALL
PL6.E3A0      #004=VDG$MTERMINATE File=VDG$MAIN.:VDA5TSI                         FRI 07/04/97 11:20 Page:301
M$READ
        80**DCL-ENT 10725--CALL
M$TIME
       146**DCL-ENT 10372--CALL
M$WRITE
        80**DCL-ENT 10758--CALL
M$XCON
       134**DCL-ENT  8939--CALL
M$XEQTIME
       147**DCL-ENT 10358--CALL
M$YC
        93**DCL-ENT 10885--CALL
ORIG_ERR
      8707**DCL      8901<<ASSIGN   8908<<ASSIGN
ORIG_ERR.ERR
      8744**DCL      8921>>IF       9480>>IF       9495>>IF
ORIG_ERR.ERR.CODE#
      8746**DCL      8925>>IF
PROCESS_RESTORE
     10831**PROC     8931--CALL
REVOKE_EXIT_CONTROL
      8693**DCL      8939<>CALL
REVOKE_EXIT_CONTROL.V
      8694**DCL      8693--DCLINIT
SINK IN PROCEDURE PROCESS_RESTORE
     10855**DCL     10862<<CALLBLT 10869<<CALLBLT
STATS_ACCESS IN PROCEDURE UPDATE_STATISTICS_FILE
      9754**DCL      9674--DCLINIT
STATS_ACCESS.Q IN PROCEDURE UPDATE_STATISTICS_FILE
      9755**DCL      9754--DCLINIT
STATS_ACCT IN PROCEDURE UPDATE_STATISTICS_FILE
      9727**DCL      9677--DCLINIT
STATS_CLOSE IN PROCEDURE UPDATE_STATISTICS_FILE
      9976**DCL     10385<>CALL
STATS_CLOSE.SN_ IN PROCEDURE UPDATE_STATISTICS_FILE
      9976**DCL      9976--REDEF
PL6.E3A0      #004=VDG$MTERMINATE File=VDG$MAIN.:VDA5TSI                         FRI 07/04/97 11:20 Page:302
STATS_CLOSE.UTL_ IN PROCEDURE UPDATE_STATISTICS_FILE
      9977**DCL      9977--REDEF
STATS_CLOSE.V IN PROCEDURE UPDATE_STATISTICS_FILE
      9981**DCL      9976--DCLINIT
STATS_CLOSE.V.EXPIRE# IN PROCEDURE UPDATE_STATISTICS_FILE
      9991**DCL      9991--REDEF
STATS_CLOSE.V.TYPE# IN PROCEDURE UPDATE_STATISTICS_FILE
      9989**DCL      9989--REDEF
STATS_CLOSE.V.XTNSIZE# IN PROCEDURE UPDATE_STATISTICS_FILE
      9986**DCL      9986--REDEF    9988--REDEF
STATS_DEQ IN PROCEDURE UPDATE_STATISTICS_FILE
      9806**DCL     10381<>CALL
STATS_DEQ.V IN PROCEDURE UPDATE_STATISTICS_FILE
      9807**DCL      9806--DCLINIT
STATS_ENQ IN PROCEDURE UPDATE_STATISTICS_FILE
      9788**DCL     10353<>CALL
STATS_ENQ.V IN PROCEDURE UPDATE_STATISTICS_FILE
      9789**DCL      9788--DCLINIT
STATS_KEY IN PROCEDURE SUM_INTO_STATS_REC
     10699**DCL     10713--ASSIGN  10717--ASSIGN
STATS_KEY.BYTES IN PROCEDURE SUM_INTO_STATS_REC
     10703**DCL     10720<<ASSIGN  10722<<CALLBLT
STATS_KEY.LENGTH# IN PROCEDURE SUM_INTO_STATS_REC
     10703**DCL     10719<<ASSIGN
STATS_NAME IN PROCEDURE UPDATE_STATISTICS_FILE
     10285**DCL     10342--ASSIGN
STATS_NAME.BYTES IN PROCEDURE UPDATE_STATISTICS_FILE
     10289**DCL     10344<<CALLBLT
STATS_NAME.LENGTH# IN PROCEDURE UPDATE_STATISTICS_FILE
     10289**DCL     10346<<ASSIGN
STATS_OPEN IN PROCEDURE UPDATE_STATISTICS_FILE
     10107**DCL     10341<<ASSIGN  10348<>CALL
STATS_OPEN.ACSVEH_ IN PROCEDURE UPDATE_STATISTICS_FILE
     10109**DCL     10110--REDEF
STATS_OPEN.ALTKEYS_ IN PROCEDURE UPDATE_STATISTICS_FILE
     10115**DCL     10116--REDEF   10116--REDEF
PL6.E3A0      #004=VDG$MTERMINATE File=VDG$MAIN.:VDA5TSI                         FRI 07/04/97 11:20 Page:303
STATS_OPEN.HDR_ IN PROCEDURE UPDATE_STATISTICS_FILE
     10114**DCL     10115--REDEF
STATS_OPEN.NAME_ IN PROCEDURE UPDATE_STATISTICS_FILE
     10108**DCL     10342<<ASSIGN
STATS_OPEN.TAB_ IN PROCEDURE UPDATE_STATISTICS_FILE
     10113**DCL     10114--REDEF
STATS_OPEN.UHL_ IN PROCEDURE UPDATE_STATISTICS_FILE
     10107**DCL     10108--REDEF   10108--REDEF
STATS_OPEN.V IN PROCEDURE UPDATE_STATISTICS_FILE
     10116**DCL     10343--ASSIGN
STATS_OPEN.V.FSN# IN PROCEDURE UPDATE_STATISTICS_FILE
     10147**DCL     10147--REDEF   10147--REDEF
STATS_OPEN.V_ IN PROCEDURE UPDATE_STATISTICS_FILE
     10107**DCL     10343<<ASSIGN
STATS_OPEN.WSN_ IN PROCEDURE UPDATE_STATISTICS_FILE
     10113**DCL     10113--REDEF
STATS_PASS IN PROCEDURE UPDATE_STATISTICS_FILE
      9740**DCL      9674--DCLINIT
STATS_READ IN PROCEDURE SUM_INTO_STATS_REC
     10512**DCL     10710<<ASSIGN  10725<>CALL
STATS_READ.BUF_ IN PROCEDURE SUM_INTO_STATS_REC
     10514**DCL     10712<<ASSIGN
STATS_READ.KEY_ IN PROCEDURE SUM_INTO_STATS_REC
     10512**DCL     10713<<ASSIGN
STATS_READ.STATION_ IN PROCEDURE SUM_INTO_STATS_REC
     10515**DCL     10516--REDEF
STATS_READ.V IN PROCEDURE SUM_INTO_STATS_REC
     10516**DCL     10711--ASSIGN
STATS_READ.V.DVBYTE.REREAD# IN PROCEDURE SUM_INTO_STATS_REC
     10527**DCL     10527--REDEF
STATS_READ.V.INDX# IN PROCEDURE SUM_INTO_STATS_REC
     10525**DCL     10525--REDEF
STATS_READ.V_ IN PROCEDURE SUM_INTO_STATS_REC
     10512**DCL     10711<<ASSIGN
STATS_READ_FAILED IN PROCEDURE SUM_INTO_STATS_REC
     10730**LABEL   10725--CALLALT
PL6.E3A0      #004=VDG$MTERMINATE File=VDG$MAIN.:VDA5TSI                         FRI 07/04/97 11:20 Page:304
STATS_REC IN PROCEDURE SUM_INTO_STATS_REC
     10706**DCL     10712--ASSIGN  10716--ASSIGN  10730<<ASSIGN  10733<<ASSIGN  10733>>ASSIGN  10734<<ASSIGN
     10734>>ASSIGN  10737<<ASSIGN  10737>>ASSIGN  10742<<ASSIGN  10742>>ASSIGN  10747<<ASSIGN  10747>>ASSIGN
     10752<<ASSIGN  10752>>ASSIGN
STATS_RNAME IN PROCEDURE UPDATE_STATISTICS_FILE
      9946**DCL      9788--DCLINIT  9806--DCLINIT
STATS_WRITE IN PROCEDURE SUM_INTO_STATS_REC
     10551**DCL     10714<<ASSIGN  10758<>CALL
STATS_WRITE.BUF_ IN PROCEDURE SUM_INTO_STATS_REC
     10551**DCL     10716<<ASSIGN
STATS_WRITE.KEY_ IN PROCEDURE SUM_INTO_STATS_REC
     10551**DCL     10717<<ASSIGN
STATS_WRITE.STATION_ IN PROCEDURE SUM_INTO_STATS_REC
     10553**DCL     10553--REDEF
STATS_WRITE.V IN PROCEDURE SUM_INTO_STATS_REC
     10554**DCL     10715--ASSIGN
STATS_WRITE.V.DVBYTE.VFC# IN PROCEDURE SUM_INTO_STATS_REC
     10560**DCL     10560--REDEF
STATS_WRITE.V_ IN PROCEDURE SUM_INTO_STATS_REC
     10551**DCL     10715<<ASSIGN
STATS_WRITE_FAILED IN PROCEDURE SUM_INTO_STATS_REC
     10763**LABEL   10758--CALLALT
SUM_INTO_STATS_REC IN PROCEDURE UPDATE_STATISTICS_FILE
     10417**PROC    10360--CALL    10363--CALL    10367--CALL    10376--CALL
UPDATE_STATISTICS_FILE
      9539**PROC     8912--CALL
UPDATE_STATS
      8912**LABEL    8904--GOTO
UTS_END IN PROCEDURE UPDATE_STATISTICS_FILE
     10330**DCL     10371--ASSIGN  10374<>CALL
VD$PORT.EXIST# IN PROCEDURE CLOSE_ALL_STREAMS
      9393**DCL      9468>>IF
VD$PORT.LEVEL.INTERNAL$ IN PROCEDURE CLOSE_ALL_STREAMS
      9454**DCL      9469>>ASSIGN
VD$STREAM IN PROCEDURE CLOSE_ALL_STREAMS
      9261**DCL      9478<>CALL     9493<>CALL
PL6.E3A0      #004=VDG$MTERMINATE File=VDG$MAIN.:VDA5TSI                         FRI 07/04/97 11:20 Page:305
VD$STREAM.PORT$ IN PROCEDURE CLOSE_ALL_STREAMS
      9287**DCL      9467>>IF       9468>>IF       9469>>ASSIGN
VD$TEXTC
      8815**DCL     10897--ASSIGN
VD$TEXTC.LENGTH#
      8823**DCL      8825--IMP-SIZ 10897--ASSIGN  10897--ASSIGN  10897>>ASSIGN
VDA$FCLOSE
      7879**DCL-ENT  9478--CALL     9493--CALL
VDG$EREPORT_ERROR
      7880**DCL-ENT  9481--CALL     9496--CALL
VDP$WTERMINATE
      7881**DCL-ENT  8914--CALL
VD_$RESTORE.BYTES
      8318**DCL      8930>>IF      10862>>CALLBLT 10864>>IF      10869>>CALLBLT 10873>>CALLBLT 10884--ASSIGN
VD_$RESTORE.LENGTH#
      8316**DCL      8318--IMP-SIZ  8930>>IF       8930>>IF      10862>>CALLBLT 10862>>CALLBLT 10864>>IF
     10864>>IF      10868>>IF      10869>>CALLBLT 10869>>CALLBLT 10871>>IF      10873>>CALLBLT 10884>>ASSIGN
     10884>>ASSIGN  10897--ASSIGN  10897--ASSIGN  10897--ASSIGN  10897--ASSIGN
VD_6E.ERR_HEAD$
      7922**DCL      8762--IMP-PTR  8901>>ASSIGN   8908>>ASSIGN
VD_6E.INTERRUPT.STATE#
      7922**DCL      8934>>IF       8935<<ASSIGN
VD_6E.SOURCE.OPERAND.STREAM$
      7919**DCL      9492>>IF       9493>>CALL
VD_6E.STATS#
      7923**DCL     10737>>ASSIGN
VD_6E.STATS_ERRORS#
      7924**DCL     10362>>ASSIGN  10752>>ASSIGN
VD_6E.STATS_OBJECTS#
      7923**DCL     10742>>ASSIGN
VD_6E.STATS_TOKENS#
      7924**DCL     10365>>ASSIGN  10747>>ASSIGN
VD_6E.WINDOWS$
      7904**DCL      9466>>IF       9467>>IF       9468>>IF       9469>>ASSIGN
VD_EXIT
      8335**DCL      8941<>CALL     8943<>CALL
PL6.E3A0      #004=VDG$MTERMINATE File=VDG$MAIN.:VDA5TSI                         FRI 07/04/97 11:20 Page:306
VD_EXIT.V.STEPCC#
      8336**DCL      8336--REDEF    8940>>IF
VD_UTS_START
      7889**DCL     10374<>CALL
VLR_SITEINFO IN PROCEDURE UPDATE_STATISTICS_FILE
     10031**DCL      9600--DCLINIT
VLR_SITEINFO.SITE_NAME#.C IN PROCEDURE UPDATE_STATISTICS_FILE
     10032**DCL     10335>>IF      10335>>IF
VLR_SITEINFO.SITE_NAME#.L IN PROCEDURE UPDATE_STATISTICS_FILE
     10032**DCL     10335>>IF      10335>>IF
WINDOW$SPEC.OPERAND.STREAM$ IN PROCEDURE CLOSE_ALL_STREAMS
      9236**DCL      9477>>IF       9478>>CALL
WINDOW_SPEC$ IN PROCEDURE CLOSE_ALL_STREAMS
      8998**DCL      9195--IMP-PTR  9475<<ASSIGN   9476>>IF       9477>>IF       9478>>CALL
XEQTIME IN PROCEDURE UPDATE_STATISTICS_FILE
     10305**DCL     10356<<ASSIGN  10357--ASSIGN
XEQTIME.MICROS_DIV_512K IN PROCEDURE UPDATE_STATISTICS_FILE
     10307**DCL     10734>>ASSIGN
XUD$UTS_DIFF_SEC
      8495**DCL-ENT 10374--CALL
XUG$ERRMSG
      6840**DCL-ENT  8923--CALL    10902--CALL    10913--CALL
XUG_GETCMD
      7939**DCL      8923<>CALL    10902<>CALL    10913<>CALL
XUG_GETCMD.ERRDCB#
      8098**DCL     10909<<ASSIGN
XUG_GETCMD.ERR_CODE
      8087**DCL     10893<<ASSIGN  10907<<ASSIGN
XUG_GETCMD.ERR_CODE.CODE#
      8090**DCL     10895<<ASSIGN
XUG_GETCMD.ERR_CODE.FCG#
      8088**DCL     10894<<ASSIGN
XUG_GETCMD.F1_
      8136**DCL     10897<<ASSIGN  10910<<ASSIGN
XUG_GETCMD.F2_
      8140**DCL     10900<<ASSIGN  10911<<ASSIGN
PL6.E3A0      #004=VDG$MTERMINATE File=VDG$MAIN.:VDA5TSI                         FRI 07/04/97 11:20 Page:307
XUG_GETCMD.F3_
      8144**DCL     10901<<ASSIGN  10912<<ASSIGN
XUG_GETCMD.FLGLEV#
      8044**DCL     10896<<ASSIGN  10908<<ASSIGN
XUG_GETCMD.OUT$
      7944**DCL      7950--REDEF
YC_FAILED IN PROCEDURE PROCESS_RESTORE
     10907**LABEL   10885--CALLALT
