PL6.E3A0      #003=VDG$MINIT File=VDG$MAIN.:VDA5TSI                              FRI 07/04/97 11:19 Page:143
     1034        1        /*T***********************************************************/
     1035        2        /*T*                                                         */
     1036        3        /*T* Copyright (c) Bull HN Information Systems Inc., 1997    */
     1037        4        /*T*                                                         */
     1038        5        /*T***********************************************************/
     1039        6
     1040        7        /*D* NAME: VDG$MINIT
     1041        8            PARAMETERS:
     1042        9                None.
     1043       10            INPUT:
     1044       11                None.
     1045       12            OUTPUT:
     1046       13                All global static data in the Int'r's domain will be
     1047       14                    initialized.
     1048       15                VD_6E.WS.INTERNAL_DIR$ will point to a chain of VD$DIR_NODEs,
     1049       16                    one for each internal directory.
     1050       17                VD_6E.HISTORY$, .EQUALS$, .LOCATIONS$, .SYNONYMS, .KEYINS$,
     1051       18                    and .WINDOWS$ will point to closed VD$STREAMs.
     1052       19            DESCRIPTION:
     1053       20                Initialize all static global data.
     1054       21                Create the directory of internal files (empty initially).
     1055       22                Allocate Streams for all predefined files (no Ports, tho).
     1056       23        */
     1057       24
     1058       25        VDG$MINIT: PROC ALTRET;
     1059       26
     1060       27        %INCLUDE CP_6;
     1061      108        %INCLUDE NK_VFC_C;
     1062      182        %INCLUDE VD_MACROS_M;
     1063     2397        %INCLUDE VD_NODES0_E;
     1064     2489        %INCLUDE VD_PERR_C;
     1065     2637        %INCLUDE XU_MACRO_C;
     1066     5731        %INCLUDE XUM_MACRO_C;
     1067     5758        %INCLUDE XUH_MACRO_C;
     1068     5842        %INCLUDE XUE_MACRO_C;
     1069     6586        %INCLUDE XUG_ENTRY;
     1070     6617
PL6.E3A0      #003=VDG$MINIT File=VDG$MAIN.:VDA5TSI                              FRI 07/04/97 11:19 Page:144
     1071     6618
     1072     6619    1   DCL VDI$PFIX_WINDOWS              ENTRY ALTRET;
     1073     6620    1   DCL VDI$PUSER_PARSE_RTN         ENTRY (1);
     1074     6621    1   DCL VDI$PGET_COMMAND_RECORD     ENTRY (5) ALTRET;
     1075     6622    1   DCL VDI$PGLOBAL_COMMANDS        ENTRY (2) ALTRET;
     1076     6623    1   DCL VDE$PREAD_NAME_FOR_EVAL     ENTRY (1) ALTRET;
     1077     6624    1   DCL VDE$PFUNCTIONS              ENTRY (1) ALTRET;
     1078     6625    1   DCL VDG$OALLOC                  ENTRY (3) ALTRET;
     1079     6626
     1080     6627    1   DCL VDA$RNAMES                  ENTRY (1) ALTRET;
     1081     6628    1   DCL VDA$WNAMES                  ENTRY (4) ALTRET;
     1082     6629    1   DCL VDA$WWINDOWS                ENTRY (4) ALTRET;
     1083     6630
     1084     6631
     1085     6632    1   DCL M$ME DCB;
     1086     6633    1   DCL M$DO DCB;
     1087     6634    1   DCL M$LO DCB;
     1088     6635    1   DCL M$EW DCB;
     1089     6636    1   DCL M$LM DCB;
     1090     6637
     1091     6638
     1092     6639
     1093     6640    1   DCL VD_COMMAND_LINE SBIN SYMREF;    /* 6Edit command parse nodes */
     1094     6641
     1095     6642
     1096     6643        %BOX (TITLE="Static globals");

              6655    1   /***************************************************************************
              6657    1    *                                                                         *
              6661    1            *                               Static globals                            *
              6663    1            *                                                                         *
              6665    1           ***************************************************************************/

     1097     6669
     1098     6670        %VD_6E (NAME=VD_6E, STCLASS="STATIC SYMDEF");
     1099     6706
     1100     6707        %VD$DCBS (NAME=VD_DCBS, STCLASS="STATIC SYMDEF");
PL6.E3A0      #003=VDG$MINIT File=VDG$MAIN.:VDA5TSI                              FRI 07/04/97 11:19 Page:145
     1101     6722
     1102     6723    1   DCL VD_UTS_START UBIN STATIC SYMDEF INIT(0);
     1103     6724
     1104     6725    1   DCL VD_WORST_FLAGLEV UBIN STATIC SYMDEF INIT(0);
     1105     6726
     1106     6727    1   DCL VD_LAST_CWIN_ACTIVITY UBIN STATIC SYMDEF INIT(0);
     1107     6728
     1108     6729    1   DCL VD_FORCE_READ_FROM UBIN STATIC SYMDEF INIT(%RF_DONT_CARE);
     1109     6730
     1110     6731    1   DCL VD_EOF_DELETED BIT(36) STATIC SYMDEF INIT('0'B);
     1111     6732
     1112     6733        /*
     1113     6734        *   Dimensions of the UC (user-domain) window we're given at start-up.
     1114     6735        *   If:
     1115     6736        *       VD_SCREEN_HEIGHT < %MN_SCREEN_EDITING_HEIGHT:  we can't screen-edit
     1116     6737        *           on this terminal, or we're running in batch, ghost, or TP mode.
     1117     6738        *           We will still have nodes in the Windows file for the command
     1118     6739        *           window and (usually only 1) editing window, but the FEP won't
     1119     6740        *           know these things as windows.
     1120     6741        *       VD_SCREEN_HEIGHT >= %MN_SCREEN_EDITING_HEIGHT:  we can screen-edit.
     1121     6742        *           We'll have DCBs open to FEP windows for all nodes in the Windows
     1122     6743        *           file.
     1123     6744        *   Note VD_SCREEN_HEIGHT just says if it's possible to screen-edit
     1124     6745        *       or not; the user can tell us that s/he doesn't WANT to
     1125     6746        *       screen-edit by setting the $SCREEN predefined name to a value
     1126     6747        *       < %MN_SCREEN_EDITING_HEIGHT.
     1127     6748        *N* Following paragraph has been de-implemented due to star 25801:
     1128     6749        *N*   Note VD_$SCREEN.V# just says if the user wants to screen-edit or not;
     1129     6750        *N*       6Edit will actually go "2-dimensional" only when there's at least
     1130     6751        *N*       one editing window open.  VD_2DIM determines whether we're actually
     1131     6752        *N*       screen editing (VD_2DIM = %TRUE) or either (1) the user told us not
     1132     6753        *N*       to screen edit, or (2) we can't screen edit, or (3) we're waiting til
     1133     6754        *N*       the first editing window is opened before we screen edit.
     1134     6755        */
     1135     6756    1   DCL VD_SCREEN_HEIGHT SBIN STATIC SYMDEF INIT(0);
     1136     6757    1   DCL VD_SCREEN_WIDTH SBIN STATIC SYMDEF INIT(0);
     1137     6758    1   DCL VD_2DIM BIT(1) ALIGNED STATIC SYMDEF INIT(%FALSE);
PL6.E3A0      #003=VDG$MINIT File=VDG$MAIN.:VDA5TSI                              FRI 07/04/97 11:19 Page:146
     1138     6759    1   DCL VD_EDITING_WINDOWS SBIN STATIC SYMDEF INIT(0);
     1139     6760    1   DCL VD_EDITING_HEIGHT SBIN STATIC SYMDEF INIT(0);
     1140     6761    1   DCL VD_OLD_$SCREEN SBIN STATIC SYMDEF INIT(0);
     1141     6762
     1142     6763        /* Original terminal parameters before 6Edit was started */
     1143     6764        %VLP_TRMCTL (FPTN=VD_ORIGINAL_EDTCTL, STCLASS="STATIC SYMDEF");
     1144     6804        %VLP_TRMCTL (FPTN=VD_ORIGINAL_TRMCTL, STCLASS="STATIC SYMDEF");
     1145     6844        %VLP_TAB (FPTN=VD_ORIGINAL_TAB, STCLASS="STATIC SYMDEF");
     1146     6858        %VLP_PLATEN (FPTN=VD_ORIGINAL_PLATEN, STCLASS="STATIC SYMDEF");
     1147     6880
     1148     6881        /*
     1149     6882        *   VD_CURRENT_WINDOW$
     1150     6883        *   Pointer to the VD$FILE_NODE (in the Windows file) of the current
     1151     6884        *       window.  This will always be an editing window.  Nil if no
     1152     6885        *       editing windows are open currently (this will only be true
     1153     6886        *       during initialization).
     1154     6887        */
     1155     6888    1   DCL VD_CURRENT_WINDOW$ PTR STATIC SYMDEF;
     1156     6889
     1157     6890        /*
     1158     6891        *   VD_COMMAND_WINDOW$
     1159     6892        *   Pointer to the VD$FILE_NODE (in the Windows file) of the
     1160     6893        *       command window.  If NIL, there isn't a command window yet,
     1161     6894        *       so we can't write to it yet (we're not yet fully initialized).
     1162     6895        */
     1163     6896    1   DCL VD_COMMAND_WINDOW$ PTR STATIC SYMDEF;
     1164     6897
     1165     6898
     1166     6899        /*
     1167     6900        *   VD_ACCESSOR_PRIV - A set of %NAC_s specifying the privileges
     1168     6901        *   for a caller to the Accessor.
     1169     6902        *   These flags, when set, allow the caller to override the
     1170     6903        *   access privilege restrictions of internal file nodes.
     1171     6904        *   If the caller is working on behalf of the user (eg, deleting
     1172     6905        *   records the FEP told us to delete, or processing a user-typed
     1173     6906        *   command), VD_ACCESSOR_PRIV should have all bits reset (%CLEAR).
     1174     6907        *   However, if the caller is performing an internal update of
PL6.E3A0      #003=VDG$MINIT File=VDG$MAIN.:VDA5TSI                              FRI 07/04/97 11:19 Page:147
     1175     6908        *   an internal file (eg, updating $LEFTOVER after a partially
     1176     6909        *   successful (and partially-failed) copy/move command),
     1177     6910        *   VD_ACCESSOR_PRIV should have all bits set (%NAC_ALL_BITS -- full
     1178     6911        *   privileges).
     1179     6912        */
     1180     6913    1   DCL 1 VD_ACCESSOR_PRIV ALIGNED STATIC SYMDEF,
     1181     6914           %VD$NAC (NAME=*, LEV=2, LAST=YES);
     1182     6928
     1183     6929        /*
     1184     6930        *   VD_CMD_OBJECTS$
     1185     6931        *   This array of pointers is used when we need to allocate dynamic
     1186     6932        *       storage for an object when there is no obvious "owner" who
     1187     6933        *       will later free the object.  For example, VDE$PFUNCTIONS
     1188     6934        *       (which is called by X$EVAL) needs to allocate VD$TEXTC_REMOTE
     1189     6935        *       objects, but who will free them?
     1190     6936        *   The answer is, VDI$PGET_COMMAND_RECORD.  Before reading the
     1191     6937        *       next command, VDI$PGET_COMMAND_RECORD runs thru
     1192     6938        *       VD_CMD_OBJECTS$, freeing any non-NIL pointers it finds.
     1193     6939        *   This array is set to all NILs during initialization; to use
     1194     6940        *       a slot, look for the first NIL and it's yours.
     1195     6941        */
     1196     6942    1   DCL VD_CMD_OBJECTS$ (0:%(MX_CMD_OBJECTS-1)) PTR STATIC SYMDEF;
     1197     6943        %VD$ENCODED_FILE_SPEC (NAME=VD_LAST_LOADED_FILE_SPEC, STCLASS="STATIC SYMDEF");
     1198     6972
     1199     6973
     1200     6974        /*
     1201     6975        *   Control blocks for library routines.
     1202     6976        */
     1203     6977
     1204     6978        %XUM_MCB (NAME=VD_MCB_SMALL, STCLASS="STATIC SYMDEF",
     1205     6979            TP=%XUM_WORDS#, MS=%MNNW_DYN_STORAGE);
     1206     6984        %XUM_MCB (NAME=VD_MCB_LARGE, STCLASS="STATIC SYMDEF",
     1207     6985            TP=%XUM_WORDS#, MS=%MNNW_DYN_STORAGE);
     1208     6990
     1209     6991        %P_PCB (NAME=VD_PCB, STCLASS="STATIC SYMDEF",
     1210     6992            C=YES, C_LD='  ', C_TL='  ', CNTU=YES, NBL=NO);
     1211     7191
PL6.E3A0      #003=VDG$MINIT File=VDG$MAIN.:VDA5TSI                              FRI 07/04/97 11:19 Page:148
     1212     7192        %XUG_INIT (NAME=XUG_INIT, STCLASS="STATIC SYMDEF",
     1213     7193        /*N* PREPROCESS=X$PRE_PROCESS, PPCB=XUE_PPCB, */
     1214     7194            WSEG=0,             /* Make XUG get it's own data segment */
     1215     7195            PCB=VD_PCB, PASS=BLANK, GOODCMD=NO, NO_DOWNGRADE=YES,
     1216     7196            POST_EXEC=VDI$PFIX_WINDOWS,
     1217     7197            PRE_EXEC=VDI$PGLOBAL_COMMANDS, DONT_REREAD_CCBUF=YES);
     1218     7610
     1219     7611        %XUG_GETCMD (NAME=XUG_GETCMD, STCLASS="STATIC SYMDEF",
     1220     7612            NODES=VD_COMMAND_LINE, XUH=XUH_PARAM, CONTINUE_OK=YES,
     1221     7613            INDCB=M$ME, PROMPT=CMD_PROMPT, PROMPT_VFC=YES,
     1222     7614            READR=VDI$PGET_COMMAND_RECORD, SFROUTINE=VDI$PUSER_PARSE_RTN,
     1223     7615            OUTDCB=M$LO,
     1224     7616            DCB_PARAM=M$ME);
     1225     7954    1   DCL CMD_PROMPT CHAR(0) CONSTANT INIT(%CONCAT(VFC_TRANSITION0,CHR_PROMPT));
     1226     7955
     1227     7956        %XUH_PARAM (NAME=XUH_PARAM, STCLASS="STATIC SYMDEF",
     1228     7957            OUTDCB1=M$ME, OUTDCB2=M$LO, PROCNAME=VD_PNAME, PROCACCT=VD_PACCT);
     1229     8018        %VLP_NAME (FPTN=VD_PNAME,
     1230     8019                    NAME='6EDIT');
     1231     8046        %VLP_ACCT (FPTN=VD_PACCT,
     1232     8047                    ACCT=':SYS');
     1233     8060
     1234     8061        %XUE_ECB (NAME=XUE_ECB, STCLASS="STATIC SYMDEF",
     1235     8062            WORK_DCB=M$EW, CMDVARS=NO, INPUT_DCB=M$ME,
     1236     8063            FUN=VDE$PFUNCTIONS, VAR=VDE$PREAD_NAME_FOR_EVAL);
     1237     8265
     1238     8266        %FPT_EXIT (FPTN=VD_EXIT, STCLASS="STATIC SYMDEF");
     1239     8281
     1240     8282
     1241     8283        %BOX (TITLE="Constant globals", PAGE=YES);
              8291    1
              8295    1   /***************************************************************************
              8297    1    *                                                                         *
              8301    1            *                              Constant globals                           *
              8303    1            *                                                                         *
              8305    1           ***************************************************************************/

PL6.E3A0      #003=VDG$MINIT File=VDG$MAIN.:VDA5TSI                              FRI 07/04/97 11:19 Page:149
     1242     8309        %BOX (TITLE="Table of reserved words");

              8321    1   /***************************************************************************
              8323    1    *                                                                         *
              8327    1            *                          Table of reserved words                        *
              8329    1            *                                                                         *
              8331    1           ***************************************************************************/

     1243     8335        /*
     1244     8336        *   VD_RESERVED_TABLE$
     1245     8337        *   This array points to lists of the reserved words (excluding the
     1246     8338        *       level-names of Structures and the names of predefined files).
     1247     8339        *       The subscript into this array is the length of the reserved
     1248     8340        *       words in that list; each list contains reserved words of only
     1249     8341        *       one length, from 0 (always the empty list) to %MXNB_RESERVED_WORD.
     1250     8342        *   The list of words pointed-to by entries in VD_RESERVED_TABLE$
     1251     8343        *       are simply CALIGNED character strings, all munched together.
     1252     8344        *       We search such a list by PINCRC'ing a based char-string
     1253     8345        *       through the list.  The end of each list is marked by a single
     1254     8346        *       space character.
     1255     8347        */
     1256     8348
     1257     8349    1   DCL VD_RESERVED_TABLE$ (0:%MXNB_RESERVED_WORD) PTR CONSTANT SYMDEF ALIGNED
     1258     8350    1       INIT(ADDR(NIL), ADDR(RW1), ADDR(RW2), ADDR(RW3), ADDR(RW4),
     1259     8351    1            ADDR(RW5), ADDR(RW6), ADDR(RW7), ADDR(RW8), ADDR(RW9),
     1260     8352    1            ADDR(NIL)*0);
     1261     8353
     1262     8354    1   DCL RW1 CHAR(0) CONSTANT INIT(%CONCAT(
     1263     8355    1           'E', 'H', 'Q', 'X', ' '));
     1264     8356
     1265     8357        %SET ACC=CONCAT('AD', 'AF', 'AL', 'AN', 'AO', 'BA', 'BE', 'BL', 'BO');
     1266     8358
     1267     8359    1   DCL RW2 CHAR(0) CONSTANT INIT(%CONCAT(
     1268     8360                ACC,
     1269     8361                'BY', 'CO', 'DE', 'DI', /*'DO',*/ 'ED', 'EN', 'EO', 'EQ',
     1270     8362                'EX', 'FI', 'FO', 'HE', 'IF', 'IN', 'IS', 'KE', 'LI', 'LO',
     1271     8363                'MO', 'NE', 'NU', 'OF', 'OL', 'ON', 'OV', 'PA', 'PE', 'PO',
PL6.E3A0      #003=VDG$MINIT File=VDG$MAIN.:VDA5TSI                              FRI 07/04/97 11:19 Page:150
     1272     8364                'PR', 'QU', 'SE', 'SH', 'SK', 'ST', 'SY', 'TH', 'TO',
     1273     8365    1           'WI', 'XI', ' '));
     1274     8366
     1275     8367    1   DCL RW3 CHAR(0) CONSTANT INIT(%CONCAT(
     1276     8368                'ALL', 'ANY', 'DIR', 'END', 'EXI', 'HEL', 'KEY', 'NEW',
     1277     8369    1           'OLD', 'OUT', 'QUI', 'XIT', ' '));
     1278     8370
     1279     8371    1   DCL RW4 CHAR(0) CONSTANT INIT(%CONCAT(
     1280     8372                'DATE', 'DONT', 'EDIT', 'ELSE', 'EXIT', 'FILE', 'HELP',
     1281     8373                'MOVE', 'NEXT', 'OUTP', 'OVER', 'PREV', 'QUIT', 'READ',
     1282     8374                'REPE', 'REST', 'SAVE', 'SESS', 'SETU', 'SHOW', 'SKIP',
     1283     8375    1           'THRU', 'TIME', ' '));
     1284     8376
     1285     8377    1   DCL RW5 CHAR(0) CONSTANT INIT(%CONCAT(
     1286     8378                'AFTER', 'BLOCK', 'ENTER', 'ERASE', 'KEYIN', 'LINES', 'OUTPU',
     1287     8379                'PRINT', 'SETUP',
     1288     8380    1           ' '));
     1289     8381
     1290     8382    1   DCL RW6 CHAR(0) CONSTANT INIT(%CONCAT(
     1291     8383                'ADJUST', 'DELETE', 'EQUALS', 'NUMBER', 'OUTPUT', 'REPEAT',
     1292     8384    1           'SELECT', 'STRING', 'WINDOW', ' '));
     1293     8385
     1294     8386    1   DCL RW7 CHAR(0) CONSTANT INIT(%CONCAT(
     1295     8387                'COMMAND', 'DISPLAY', 'EDITING', 'FORWARD', 'PATTERN', 'PERCENT',
     1296     8388    1           'PROTECT', 'RESTORE', 'SESSION', 'SYNONYM', 'THROUGH', ' '));
     1297     8389
     1298     8390    1   DCL RW8 CHAR(0) CONSTANT INIT(%CONCAT(
     1299     8391    1           'BACKWARD', 'LOCATION', 'PATTERNS', 'POSITION', 'PREVIOUS', ' '));
     1300     8392
     1301     8393    1   DCL RW9 CHAR(0) CONSTANT INIT(%CONCAT(
     1302     8394    1           'BEGINNING', 'POSITIONS', 'DIRECTORY', ' '));
     1303     8395
     1304     8396
     1305     8397        %BOX (TITLE="Tables of displayed words for enumerated types");

              8409    1   /***************************************************************************
              8411    1    *                                                                         *
PL6.E3A0      #003=VDG$MINIT File=VDG$MAIN.:VDA5TSI                              FRI 07/04/97 11:19 Page:151
              8415    1            *               Tables of displayed words for enumerated types            *
              8417    1            *                                                                         *
              8419    1           ***************************************************************************/

     1306     8423
     1307     8424        /*
     1308     8425        *   The following tables use enumerated data types as subscripts into the table.
     1309     8426        *       Therefore, entries must appear in the same order as the enumerated
     1310     8427        *       values.
     1311     8428        *   Each table is:
     1312     8429        *       .N_ENTRIES# - Number of entries in table.
     1313     8430        *       .DW (0 : n_entries-1) - VD$TEXTC forms of displayed-word to be used
     1314     8431        *           for the values of the enumerated type.  For example, the displayed
     1315     8432        *           word for %ORG_CONSEC is found at VD_DW_ORG.DW (%ORG_CONSEC).
     1316     8433        *   All tables except BOOLEAN_NAMES must have %CHR_BAD_VALUE as entry # 0.
     1317     8434        *       This entry is used when the enumerated value is outside the table's
     1318     8435        *       range (< 0 or > .N_ENTRIES#-1);
     1319     8436        *   It's important for the user that the word(s) displayed for an enumerated
     1320     8437        *       value be exactly the same as the ones s/he uses in the 6Edit command
     1321     8438        *       language to set the enumerated value in the first place.  Hence these
     1322     8439        *       "displayed words" should actually be fragments of valid 6Edit command
     1323     8440        *       language.
     1324     8441        */
     1325     8442
     1326     8443        /* For boolean values */
     1327     8444    1   DCL 1 VD_DW_BOOLEAN CONSTANT SYMDEF,
     1328     8445    1         2 N_ENTRIES# SBIN INIT(2),
     1329     8446              %VD_TEXTC (NAME=DW, DIM="(0:1)", LEVEL=2, MXNB=%MXNB_DW, INITS=2,
     1330     8447                IBYTES="%DW_OFF", IBYTES1="%DW_ON");
     1331     8588
     1332     8589        /* For %CO_ values */
     1333     8590    1   DCL 1 VD_DW_COMPONENT CONSTANT SYMDEF,
     1334     8591    1         2 N_ENTRIES# SBIN INIT(4),
     1335     8592              %VD_TEXTC (NAME=DW, DIM="(0:3)", LEVEL=2, MXNB=%MXNB_DW, INITS=4,
     1336     8593                IBYTES="%CHR_BAD_VALUE",
     1337     8594                IBYTES1="%DW_KEY", IBYTES2="%DW_SPEC", IBYTES3="%DW_DATA");
     1338     8735
PL6.E3A0      #003=VDG$MINIT File=VDG$MAIN.:VDA5TSI                              FRI 07/04/97 11:19 Page:152
     1339     8736        /* For %DIR_ values */
     1340     8737    1   DCL 1 VD_DW_DIRECTION CONSTANT SYMDEF,
     1341     8738    1         2 N_ENTRIES# SBIN INIT(3),
     1342     8739              %VD_TEXTC (NAME=DW, DIM="(0:2)", LEVEL=2, MXNB=%MXNB_DW, INITS=3,
     1343     8740                IBYTES="%CHR_BAD_VALUE",
     1344     8741                IBYTES1="%DW_FORWARD", IBYTES2="%DW_BACKWARD");
     1345     8882
     1346     8883        /* For %EX_ values */
     1347     8884    1   DCL 1 VD_DW_EXIST CONSTANT SYMDEF,
     1348     8885    1         2 N_ENTRIES# SBIN INIT(4),
     1349     8886              %VD_TEXTC (NAME=DW, DIM="(0:3)", LEVEL=2, MXNB=%MXNB_DW, INITS=4,
     1350     8887                IBYTES="%CHR_BAD_VALUE",
     1351     8888                IBYTES1="%DW_NEW", IBYTES2="%DW_OLD", IBYTES3="%DW_ANY");
     1352     9029
     1353     9030        /* For %KT_ values */
     1354     9031    1   DCL 1 VD_DW_KEY_TYPE CONSTANT SYMDEF,
     1355     9032    1         2 N_ENTRIES# SBIN INIT(8),
     1356     9033              %VD_TEXTC (NAME=DW, DIM="(0:7)", LEVEL=2, MXNB=%MXNB_DW, INITS=8,
     1357     9034                IBYTES="%CHR_BAD_VALUE",
     1358     9035                IBYTES1="%DW_NUMBER", IBYTES2="%DW_STRING", IBYTES3="%DW_SEQUENTIAL",
     1359     9036                IBYTES4='BIN10', IBYTES5='BINHLF', IBYTES6='BIN521',
     1360     9037                IBYTES7="%DW_STRING");
     1361     9178
     1362     9179        /* For %NDT_ values */
     1363     9180    1   DCL 1 VD_DW_NAME_DATA_TYPE CONSTANT SYMDEF,
     1364     9181    1         2 N_ENTRIES# SBIN INIT(5),
     1365     9182              %VD_TEXTC (NAME=DW, DIM="(0:4)", LEVEL=2, MXNB=%MXNB_DW, INITS=5,
     1366     9183                IBYTES="%CHR_BAD_VALUE",
     1367     9184                IBYTES1="%DW_EQUALS", IBYTES2="%DW_LOCATION",
     1368     9185                IBYTES3="%DW_SYNONYM", IBYTES4="%DW_KEYIN");
     1369     9326
     1370     9327        /* For %ORG_ values */
     1371     9328    1   DCL 1 VD_DW_ORG CONSTANT SYMDEF,
     1372     9329    1         2 N_ENTRIES# SBIN INIT(4),
     1373     9330              %VD_TEXTC (NAME=DW, DIM="(0:3)", LEVEL=2, MXNB=%MXNB_DW, INITS=4,
     1374     9331                IBYTES="%CHR_BAD_VALUE",
     1375     9332                IBYTES1="%DW_CONSEC", IBYTES2="%DW_KEYED", IBYTES3="%DW_INDEXED");
PL6.E3A0      #003=VDG$MINIT File=VDG$MAIN.:VDA5TSI                              FRI 07/04/97 11:19 Page:153
     1376     9473
     1377     9474        /* For %PNT_ values */
     1378     9475    1   DCL 1 VD_DW_POINT CONSTANT SYMDEF,
     1379     9476    1         2 N_ENTRIES# SBIN INIT(4),
     1380     9477              %VD_TEXTC (NAME=DW, DIM="(0:3)", LEVEL=2, MXNB=%MXNB_DW, INITS=4,
     1381     9478                IBYTES="%CHR_BAD_VALUE",
     1382     9479                IBYTES1="%DW_AO", IBYTES2="%DW_BO", IBYTES3="%DW_EO");
     1383     9620
     1384     9621        /* For %PROTECT and %DONT_PROTECT values */
     1385     9622    1   DCL 1 VD_DW_PROTECT CONSTANT SYMDEF,
     1386     9623    1         2 N_ENTRIES# SBIN INIT(3),
     1387     9624              %VD_TEXTC (NAME=DW, DIM="(0:2)", LEVEL=2, MXNB=%MXNB_DW, INITS=3,
     1388     9625                IBYTES="%CHR_BAD_VALUE",
     1389     9626                IBYTES1="%DW_PROTECT",
     1390     9627                IBYTES2="%CONCAT(DW_DONT,CHR_UNDERSCORE,DW_PROTECT)");
     1391     9768
     1392     9769
     1393     9770        %BOX (TITLE="Global SEARCH and XLATE tables");

              9782    1   /***************************************************************************
              9784    1    *                                                                         *
              9788    1            *                       Global SEARCH and XLATE tables                    *
              9790    1            *                                                                         *
              9792    1           ***************************************************************************/

     1394     9796
     1395     9797        /* Find any reserved special characters */
     1396     9798    1   DCL 1 VD_SEARCH_RESERVED_SPECIALS ALIGNED CONSTANT SYMDEF,
     1397     9799    1         2 * (0:511) UBIN BYTE CALIGNED
     1398     9800    1             INIT (0*%ASCBIN(''''), 1, 1, 1,           /* '  (  ) */
     1399     9801    1                   0*%(ASCBIN(',')-ASCBIN(')')-1), 1,  /* , */
     1400     9802    1                   0*%(ASCBIN('.')-ASCBIN(',')-1), 1,  /* . */
     1401     9803    1                   0*%(ASCBIN(';')-ASCBIN('.')-1), 1,  /* ; */
     1402     9804    1                   0*%(ASCBIN('?')-ASCBIN(';')-1), 1,  /* ? */
     1403     9805    1                   0*0);
     1404     9806
     1405     9807
PL6.E3A0      #003=VDG$MINIT File=VDG$MAIN.:VDA5TSI                              FRI 07/04/97 11:19 Page:154
     1406     9808        /*
     1407     9809        *   Translate characters into their "class" codes.
     1408     9810        *   Non-displayable chars (those < '040'O and those > '200'O) are
     1409     9811        *       mapped into %CCL_WHSP (white space) -- characters to be
     1410     9812        *       skipped and ignored.
     1411     9813        *   Six characters could be coded as either %CCL_SPEC or %CCL_NAME.
     1412     9814        *       They look like "special characters" to English-speakers, but
     1413     9815        *       certain European versions of ASCII use these character codes
     1414     9816        *       for their non-English alphabetics (oomlated characters and such).
     1415     9817        *       These characters are:
     1416     9818        *           Octal codes             Graphics
     1417     9819        *            133,134,135             [ \ ]
     1418     9820        *            173,174,175             { | }
     1419     9821        *       By making them %CCL_SPEC, their use in synonyms is limited
     1420     9822        *       to all-special-character synonym names.
     1421     9823        *       If they were made (or patched) %CCL_NAME, they could be used
     1422     9824        *       in name-type synonyms, just like A, B, C, ...
     1423     9825        *   The reserved special characters are:
     1424     9826        *       ' ( ) , . ; ?
     1425     9827        */
     1426     9828
     1427     9829    1   DCL 1 VD_XLATE_CHAR_CLASS ALIGNED CONSTANT SYMDEF,
     1428     9830    1         2 * (0:511) UBIN BYTE CALIGNED INIT(
     1429     9831    1       %CCL_WHSP, %CCL_WHSP, %CCL_WHSP, %CCL_WHSP,     /* 000 - 003 */
     1430     9832    1       %CCL_WHSP, %CCL_WHSP, %CCL_WHSP, %CCL_WHSP,     /* 004 - 007 */
     1431     9833    1       %CCL_WHSP, %CCL_WHSP, %CCL_WHSP, %CCL_WHSP,     /* 010 - 013 */
     1432     9834    1       %CCL_WHSP, %CCL_WHSP, %CCL_WHSP, %CCL_WHSP,     /* 014 - 017 */
     1433     9835    1       %CCL_WHSP, %CCL_WHSP, %CCL_WHSP, %CCL_WHSP,     /* 020 - 023 */
     1434     9836    1       %CCL_WHSP, %CCL_WHSP, %CCL_WHSP, %CCL_WHSP,     /* 024 - 027 */
     1435     9837    1       %CCL_WHSP, %CCL_WHSP, %CCL_WHSP, %CCL_WHSP,     /* 030 - 033 */
     1436     9838    1       %CCL_WHSP, %CCL_WHSP, %CCL_WHSP, %CCL_WHSP,     /* 034 - 037 */
     1437     9839    1       %CCL_WHSP, %CCL_SPEC, %CCL_SPEC, %CCL_NAME,     /* 040 - 043 */
     1438     9840    1       %CCL_NAME, %CCL_SPEC, %CCL_SPEC, %CCL_RES,      /* 044 - 047 */
     1439     9841    1       %CCL_RES, %CCL_RES, %CCL_SPEC, %CCL_SPEC,       /* 050 - 053 */
     1440     9842    1       %CCL_RES, %CCL_SPEC, %CCL_DOT, %CCL_SPEC,       /* 054 - 057 */
     1441     9843    1       %CCL_NUM, %CCL_NUM, %CCL_NUM, %CCL_NUM,         /* 060 - 063 */
     1442     9844    1       %CCL_NUM, %CCL_NUM, %CCL_NUM, %CCL_NUM,         /* 064 - 067 */
PL6.E3A0      #003=VDG$MINIT File=VDG$MAIN.:VDA5TSI                              FRI 07/04/97 11:19 Page:155
     1443     9845    1       %CCL_NUM, %CCL_NUM, %CCL_SPEC, %CCL_RES,        /* 070 - 073 */
     1444     9846    1       %CCL_SPEC, %CCL_SPEC, %CCL_SPEC, %CCL_RES,      /* 074 - 077 */
     1445     9847    1       %CCL_NAME, %CCL_NAME, %CCL_NAME, %CCL_NAME,     /* 100 - 103 */
     1446     9848    1       %CCL_NAME, %CCL_NAME, %CCL_NAME, %CCL_NAME,     /* 104 - 107 */
     1447     9849    1       %CCL_NAME, %CCL_NAME, %CCL_NAME, %CCL_NAME,     /* 110 - 113 */
     1448     9850    1       %CCL_NAME, %CCL_NAME, %CCL_NAME, %CCL_NAME,     /* 114 - 117 */
     1449     9851    1       %CCL_NAME, %CCL_NAME, %CCL_NAME, %CCL_NAME,     /* 120 - 123 */
     1450     9852    1       %CCL_NAME, %CCL_NAME, %CCL_NAME, %CCL_NAME,     /* 124 - 127 */
     1451     9853    1       %CCL_NAME, %CCL_NAME, %CCL_NAME, %CCL_SPEC,     /* 130 - 133 */
     1452     9854    1       %CCL_SPEC, %CCL_SPEC, %CCL_SPEC, %CCL_NAME,     /* 134 - 137 */
     1453     9855    1       %CCL_SPEC, %CCL_NAME, %CCL_NAME, %CCL_NAME,     /* 140 - 143 */
     1454     9856    1       %CCL_NAME, %CCL_NAME, %CCL_NAME, %CCL_NAME,     /* 144 - 147 */
     1455     9857    1       %CCL_NAME, %CCL_NAME, %CCL_NAME, %CCL_NAME,     /* 150 - 153 */
     1456     9858    1       %CCL_NAME, %CCL_NAME, %CCL_NAME, %CCL_NAME,     /* 154 - 157 */
     1457     9859    1       %CCL_NAME, %CCL_NAME, %CCL_NAME, %CCL_NAME,     /* 160 - 163 */
     1458     9860    1       %CCL_NAME, %CCL_NAME, %CCL_NAME, %CCL_NAME,     /* 164 - 167 */
     1459     9861    1       %CCL_NAME, %CCL_NAME, %CCL_NAME, %CCL_SPEC,     /* 170 - 173 */
     1460     9862    1       %CCL_SPEC, %CCL_SPEC, %CCL_SPEC, %CCL_WHSP,     /* 174 - 177 */
     1461     9863    1       %CCL_WHSP*0);                                   /* 200 - 777 */
     1462     9864
     1463     9865
     1464     9866        %BOX (TITLE="Object class descriptions");

              9878    1   /***************************************************************************
              9880    1    *                                                                         *
              9884    1            *                         Object class descriptions                       *
              9886    1            *                                                                         *
              9888    1           ***************************************************************************/

     1465     9892
     1466     9893        /*  Based macros to define lengths of objects */
     1467     9894
     1468     9895        %VD$FILE_KEY;
     1469     9944        %VD$NAME_SPEC;
     1470     9992        %VD$WINDOW_SPEC;
     1471    10058        %VD$WINDOW_BLOCK;
     1472    10095        %VD$TABS;
PL6.E3A0      #003=VDG$MINIT File=VDG$MAIN.:VDA5TSI                              FRI 07/04/97 11:19 Page:156
     1473    10132        %VD$STRUCTURE_SPEC;
     1474    10169        %VD$STRUCTURE_LEVEL;
     1475    10216        %VD$ERR (LAST=NO);
     1476    10269          %VD$NUMBER (DIM="(0:2)", LEV=2, LAST=YES);
     1477    10314        %VD$BUFFER;
     1478    10372        %VD$BUFFER_HEADER;
     1479    10408        %VD$STRING_HEADER;
     1480    10444        %VD$NUMBER;
     1481    10489        %VD$POINTER;
     1482    10534        %VD$IT_BLOCK_EXPR;
     1483    10684        %VD$IT_SELECT;
     1484    10721        %VD$IT_ADJUST;
     1485    10758        %VD$IT_OPERAND;
     1486    10824        %VD$IT_OPERATOR;
     1487    10861        %VD$IT_COMMAND;
     1488    10899        %VD$ENCODED_NODE;
     1489    11020        %VD$DIR_NODE;
     1490    11058        %VD$FILE_NODE;
     1491    11151        %VD$BLOCK_DESC;
     1492    11298        %VD$CMD_STREAM;
     1493    11337        %VD$EVAL_PATTERN;
     1494    11444        %VD$EVAL;
     1495    11689        %VD$STREAM;
     1496    11795        %VD$PORT;
     1497    11893        %VD$FIT;
     1498    11929        %VD$BUFFER_HEADER (NAME=VD$BLOCK_BUFFER, LAST=NO);
     1499    11965          %VD$BLOCK_DESC (LEV=2, LAST=YES);
     1500    12112
     1501    12113
     1502    12114        %EQU T=TRUE;    /* Shorthand */
     1503    12115        %EQU F=FALSE;
     1504    12116
     1505    12117
     1506    12118        %VD_OBJECTS (NAME=VD_OBJECTS, STCLASS="CONSTANT SYMDEF",
     1507    12119            DIM="(0:%(CLS_MX-1))",
     1508    12120         ISIZE1="LENGTHW(VD$BLOCK_BUFFER)", IBUF1=%T,       /* CLS_BLOCK_BUFFER */
     1509    12121         ISIZE2="LENGTHW(VD$BLOCK_DESC)",
PL6.E3A0      #003=VDG$MINIT File=VDG$MAIN.:VDA5TSI                              FRI 07/04/97 11:19 Page:157
     1510    12122         ISIZE3="LENGTHW(VD$NUMBER)", IBUF3=%T, IBUFN3=%T,  /* CLS_BOOLEAN */
     1511    12123                 IFMT3=VD_DW_BOOLEAN,
     1512    12124         ISIZE4=0, IBUF4=%T,                                /* VD$BUFFER is var-len */
     1513    12125         ISIZE5="LENGTHW(VD$CMD_STREAM)",
     1514    12126         ISIZE6="LENGTHW(VD$NUMBER)", IBUF6=%T, IBUFN6=%T,  /* CLS_COMPONENT */
     1515    12127                 IFMT6=VD_DW_COMPONENT,
     1516    12128         ISIZE7="LENGTHW(VD$NUMBER)", IBUF7=%T, IBUFN7=%T,  /* CLS_DIRECTION */
     1517    12129                 IFMT7=VD_DW_DIRECTION,
     1518    12130         ISIZE8="LENGTHW(VD$DIR_NODE)",
     1519    12131         ISIZE9="LENGTHW(VD$ENCODED_NODE)", IBUF9=%T,
     1520    12132         ISIZE10="LENGTHW(VD$ERR)",
     1521    12133         ISIZE11="LENGTHW(VD$EVAL)",
     1522    12134         ISIZE12="LENGTHW(VD$EVAL_PATTERN)",
     1523    12135         ISIZE13="LENGTHW(VD$NUMBER)", IBUF13=%T, IBUFN13=%T,   /* CLS_EXIST */
     1524    12136                 IFMT13=VD_DW_EXIST,
     1525    12137         /*
     1526    12138         * VD$FILE_KEY is a "string object" technically, but only so
     1527    12139         *   it's first chars (.UNIQUE) can be compared as a TEXTC string.
     1528    12140         *   VD$FILE_KEY also contains info beyond the length specified
     1529    12141         *   by it's .LENGTH#, so it should be treated as a fixed-length
     1530    12142         *   object when copying.  Therefore, ISTRn=%FALSE.
     1531    12143         */
     1532    12144         ISIZE14="LENGTHW(VD$FILE_KEY)",
     1533    12145         ISIZE15="LENGTHW(VD$FILE_NODE)",
     1534    12146         ISIZE16="LENGTHW(VD$NUMBER)", IBUF16=%T, IBUFN16=%T,   /* CLS_FILE_STCLASS */
     1535    12147         ISIZE17="LENGTHW(VD$FIT)",
     1536    12148         ISIZE18="LENGTHW(VD$IT_ADJUST)", IINT18=%T,
     1537    12149         ISIZE19="LENGTHW(VD$IT_BLOCK_EXPR)", IINT19=%T,
     1538    12150         ISIZE20="LENGTHW(VD$IT_COMMAND)", IINT20=%T,
     1539    12151         ISIZE21="LENGTHW(VD$IT_OPERAND)", IINT21=%T,
     1540    12152         ISIZE22="LENGTHW(VD$IT_OPERATOR)", IINT22=%T,
     1541    12153         ISIZE23="LENGTHW(VD$IT_SELECT)", IINT23=%T,
     1542    12154         ISIZE24="LENGTHW(VD$NUMBER)", IBUF24=%T, IBUFN24=%T,   /* CLS_KEY_TYPE */
     1543    12155                 IFMT24=VD_DW_KEY_TYPE,
     1544    12156         ISIZE25="LENGTHW(VD$NUMBER)", IBUF25=%T, IBUFN25=%T,   /* CLS_NAME_DATA_TYPE */
     1545    12157                 IFMT25=VD_DW_NAME_DATA_TYPE,
     1546    12158         ISIZE26="LENGTHW(VD$NAME_SPEC)", ISTR26=%T,
PL6.E3A0      #003=VDG$MINIT File=VDG$MAIN.:VDA5TSI                              FRI 07/04/97 11:19 Page:158
     1547    12159         ISIZE27="LENGTHW(VD$NUMBER)", IBUF27=%T, IBUFN27=%T,
     1548    12160         ISIZE28="LENGTHW(VD$NUMBER)", IBUF28=%T, IBUFN28=%T,   /* CLS_ORG */
     1549    12161                 IFMT28=VD_DW_ORG,
     1550    12162         ISIZE29=0, IARR29=%T,                              /* VD$PATTERN is var-len */
     1551    12163         ISIZE30="LENGTHW(VD$NUMBER)", IBUF30=%T, IBUFN30=%T,   /* CLS_POINT */
     1552    12164                 IFMT30=VD_DW_POINT,
     1553    12165         ISIZE31="LENGTHW(VD$PORT)",
     1554    12166         ISIZE32="LENGTHW(VD$POINTER)", IBUF32=%T, IBUFP32=%T,  /* CLS_PTR_BLOCK_DESC */
     1555    12167         ISIZE33="LENGTHW(VD$POINTER)", IBUF33=%T, IBUFP33=%T,  /* CLS_PTR_FILE_NODE */
     1556    12168         ISIZE34="LENGTHW(VD$POINTER)", IBUF34=%T, IBUFP34=%T,  /* CLS_PTR_INTREE */
     1557    12169         ISIZE35="LENGTHW(VD$POINTER)", IBUF35=%T, IBUFP35=%T,  /* CLS_PTR_KEY */
     1558    12170         ISIZE36="LENGTHW(VD$POINTER)", IBUF36=%T, IBUFP36=%T,  /* CLS_PTR_LOCATION */
     1559    12171         ISIZE37="LENGTHW(VD$POINTER)", IBUF37=%T, IBUFP37=%T,  /* CLS_PTR_TEXTC */
     1560    12172         ISIZE38=0, IARR38=%T,                      /* VD$RECORD_SET is var-len */
     1561    12173         ISIZE39="LENGTHW(VD$STREAM)",
     1562    12174         ISIZE40="LENGTHW(VD$STRUCTURE_LEVEL)", ISTR40=%T,
     1563    12175         ISIZE41="LENGTHW(VD$STRUCTURE_SPEC)", ISTR41=%T,
     1564    12176         ISIZE42="LENGTHW(VD$TABS)", IARR42=%T,
     1565    12177         ISIZE43=0, ISTR43=%T,                      /* VD$TEXTC_REMOTE is var-len */
     1566    12178         ISIZE44="LENGTHW(VD$WINDOW_BLOCK)", ISTR44=%T,
     1567    12179         ISIZE45="LENGTHW(VD$WINDOW_SPEC)", ISTR45=%T,
     1568    12180         ISIZE46=0, IARR46=%T,                      /* VD$XLATE_LOCATIONS is var-len */
     1569    12181         ISIZE47="LENGTHW(VD$NUMBER)", IBUF47=%T, IBUFN47=%T,   /* CLS_PROTECT */
     1570    12182                 IFMT47=VD_DW_PROTECT,
     1571    12183         ISIZE55=-1);
     1572    12223
     1573    12224
     1574    12225        %BOX (TITLE="Pre-initialized VD$FILE_KEYs, VD$LOCATIONs, and VD$KEYs");

             12237    1   /***************************************************************************
             12239    1    *                                                                         *
             12243    1            *          Pre-initialized VD$FILE_KEYs, VD$LOCATIONs, and VD$KEYs        *
             12245    1            *                                                                         *
             12247    1           ***************************************************************************/

     1575    12251
     1576    12252        /*
PL6.E3A0      #003=VDG$MINIT File=VDG$MAIN.:VDA5TSI                              FRI 07/04/97 11:19 Page:159
     1577    12253        *   Certain predefined files and names have VD$FILE_KEYs, VD$LOCATIONs,
     1578    12254        *       or VD$KEYs pre-initialized and ready to pass to the Accessor
     1579    12255        *       as the ABSOLUTE parameter on VDA$FOPEN, VDA$LREAD, and VDA$LWRITE
     1580    12256        *       calls.
     1581    12257        */
     1582    12258
     1583    12259        %VD_KEY (NAME=VD_KEY_SCRATCH_LEFTOVER, STCLASS="CONSTANT SYMDEF",
     1584    12260            ITYPE=%KT_STRING, IREP=%REP_REMOTE,
     1585    12261            IBYTES=VD_FKEY_SCRATCH_LEFTOVER);
     1586    12297        %VD_FILE_KEY (NAME=VD_FKEY_SCRATCH_LEFTOVER, STCLASS="CONSTANT SYMDEF",
     1587    12298            IFNAME="%CONCAT(FSTCL_INTERNAL, PFK_CONSTANT, DK_SCRATCH, CHR_UNDERSCORE, PFN_SC
             12298        RATCH_LEFTOVER)");
     1588    12350
     1589    12351        %VD_KEY (NAME=VD_KEY_SCRATCH_SOURCE, STCLASS="CONSTANT SYMDEF",
     1590    12352            ITYPE=%KT_STRING, IREP=%REP_REMOTE, IBYTES=VD_FKEY_SCRATCH_SOURCE);
     1591    12388        %VD_FILE_KEY (NAME=VD_FKEY_SCRATCH_SOURCE, STCLASS="CONSTANT SYMDEF",
     1592    12389            IFNAME="%CONCAT(FSTCL_INTERNAL, PFK_CONSTANT, DK_SCRATCH, CHR_UNDERSCORE, PFN_SC
             12389        RATCH_SOURCE)");
     1593    12441
     1594    12442
     1595    12443        %VD_LOCATION (NAME=VD_LOC_$LEFTOVER, STCLASS="CONSTANT SYMDEF", INITS=1,
     1596    12444            ITYPE1=%KT_STRING, IREP1=%REP_REMOTE, IBYTES1=STR_$LEFTOVER);
     1597    12519        %VD_TEXTC_REMOTE (NAME=STR_$LEFTOVER, STCLASS=CONSTANT,
     1598    12520            IBYTES='$LEFTOVER');
     1599    12583
     1600    12584        %VD_LOCATION (NAME=VD_LOC_$MATCHES, STCLASS="CONSTANT SYMDEF", INITS=1,
     1601    12585            ITYPE1=%KT_STRING, IREP1=%REP_REMOTE, IBYTES1=STR_$MATCHES);
     1602    12660        %VD_TEXTC_REMOTE (NAME=STR_$MATCHES, STCLASS=CONSTANT, IBYTES='$MATCHES');
     1603    12723
     1604    12724        %VD_LOCATION (NAME=VD_LOC_$NOT_COPIED, STCLASS="CONSTANT SYMDEF", INITS=1,
     1605    12725            ITYPE1=%KT_STRING, IREP1=%REP_REMOTE, IBYTES1=STR_$NOT_COPIED);
     1606    12800        %VD_TEXTC_REMOTE (NAME=STR_$NOT_COPIED, STCLASS=CONSTANT,
     1607    12801            IBYTES='$NOT_COPIED');
     1608    12864
     1609    12865        %VD_LOCATION (NAME=VD_LOC_$RECORDS_DELETED, STCLASS="CONSTANT SYMDEF",
     1610    12866            INITS=1,
     1611    12867            ITYPE1=%KT_STRING, IREP1=%REP_REMOTE, IBYTES1=STR_$RECORDS_DELETED);
PL6.E3A0      #003=VDG$MINIT File=VDG$MAIN.:VDA5TSI                              FRI 07/04/97 11:19 Page:160
     1612    12942        %VD_TEXTC_REMOTE (NAME=STR_$RECORDS_DELETED, STCLASS=CONSTANT,
     1613    12943            IBYTES='$RECORDS_DELETED');
     1614    13006
     1615    13007        %VD_LOCATION (NAME=VD_LOC_$RECORDS_INSERTED, STCLASS="CONSTANT SYMDEF",
     1616    13008            INITS=1,
     1617    13009            ITYPE1=%KT_STRING, IREP1=%REP_REMOTE, IBYTES1=STR_$RECORDS_INSERTED);
     1618    13084        %VD_TEXTC_REMOTE (NAME=STR_$RECORDS_INSERTED, STCLASS=CONSTANT,
     1619    13085            IBYTES='$RECORDS_INSERTED');
     1620    13148
     1621    13149        %VD_LOCATION (NAME=VD_LOC_$SCREEN, STCLASS="CONSTANT SYMDEF", INITS=1,
     1622    13150            ITYPE1=%KT_STRING, IREP1=%REP_REMOTE, IBYTES1=STR_$SCREEN);
     1623    13225        %VD_TEXTC_REMOTE (NAME=STR_$SCREEN, STCLASS=CONSTANT, IBYTES='$SCREEN');
     1624    13288
     1625    13289        %VD_LOCATION (NAME=VD_LOC_$SITES, STCLASS="CONSTANT SYMDEF", INITS=1,
     1626    13290            ITYPE1=%KT_STRING, IREP1=%REP_REMOTE, IBYTES1=STR_$SITES);
     1627    13365        %VD_TEXTC_REMOTE (NAME=STR_$SITES, STCLASS=CONSTANT, IBYTES='$SITES');
     1628    13428
     1629    13429
     1630    13430
     1631    13431        /*
     1632    13432        *   BOF is represented differently for string vs. numeric keys.
     1633    13433        */
     1634    13434
     1635    13435        %VD_KEY (NAME=VD_KEY_NUMERIC_BOF, STCLASS="CONSTANT SYMDEF",
     1636    13436            ITYPE=%KT_NUMBER, IREP=%REP_LOCAL, IBYTES=0);
     1637    13472        /*N* %VD_KEY (NAME=VD_KEY_STRING_BOF, STCLASS="CONSTANT SYMDEF", */
     1638    13473        /*N*     ITYPE=%KT_STRING, IREP=%REP_LOCAL, IBYTES="''"); */
     1639    13474
     1640    13475
     1641    13476        /*
     1642    13477        *   VD_KEY_FIRST_CONSEC_REC is different from the abstract "BOF" location,
     1643    13478        *       which is represented by VD_KEY_<num|str>_BOF for all file orgs.
     1644    13479        *       Below is the key of the actual first record in a consec/UR file.
     1645    13480        */
     1646    13481        %VD_KEY (NAME=VD_KEY_FIRST_CONSEC_REC, STCLASS="CONSTANT SYMDEF",
     1647    13482            ITYPE=%KT_NUMBER, IREP=%REP_LOCAL, IBYTES=%MN_CONSEC_KEY);
     1648    13518        %VD_KEY (NAME=VD_KEY_MN_EDITKEY, STCLASS=CONSTANT SYMDEF,
PL6.E3A0      #003=VDG$MINIT File=VDG$MAIN.:VDA5TSI                              FRI 07/04/97 11:19 Page:161
     1649    13519            ITYPE=%KT_EDITKEY, IREP=%REP_LOCAL, IBYTES=%MN_EDITKEY);
     1650    13555        %VD_KEY (NAME=VD_KEY_MX_EDITKEY, STCLASS=CONSTANT SYMDEF,
     1651    13556            ITYPE=%KT_EDITKEY, IREP=%REP_LOCAL, IBYTES=%MX_EDITKEY);
     1652    13592
     1653    13593
     1654    13594        %BOX (TITLE="Tables of predefined-file-node readers and writers");

             13606    1   /***************************************************************************
             13608    1    *                                                                         *
             13612    1            *             Tables of predefined-file-node readers and writers          *
             13614    1            *                                                                         *
             13616    1           ***************************************************************************/

     1655    13620
     1656    13621        /*
     1657    13622        *   The nodes of predefined files contain formatted info (PL-6
     1658    13623        *       structures); a routine is used to read and write
     1659    13624        *       the Spec and/or Data components of these nodes for the user.
     1660    13625        *       This is used to perform side-effects, such as creating
     1661    13626        *       or destroying windows, mapping the internal form of a value
     1662    13627        *       into a display- or entry-oriented character form, etc.
     1663    13628        *   The index into the VD_NODE_xx$$ tables is the Spec type (%SPT_
     1664    13629        *       value) for the node being read or written.
     1665    13630        */
     1666    13631
     1667    13632    1   DCL VD_NODE_READERS$$ (0:%(MX_SPEC_TYPES-1)) EPTR CONSTANT SYMDEF
     1668    13633    1       INIT(ENTADDR(NIL),                  /* 0 */
     1669    13634    1           ENTADDR(NIL),                   /* Records from external files */
     1670    13635    1           ENTADDR(NIL),                   /* History file, level 1 */
     1671    13636    1           ENTADDR(VDA$RNAMES),            /* Names files, level 1 */
     1672    13637    1           ENTADDR(NIL),                   /* Structures file, level 1 */
     1673    13638    1           ENTADDR(NIL),                   /* Structures file, level 2 */
     1674    13639    1           ENTADDR(NIL),                   /* Windows file, level 1 */
     1675    13640    1           ENTADDR(NIL),                   /* Windows file, level 2 */
     1676    13641    1           ENTADDR(NIL)*0);
     1677    13642
     1678    13643
PL6.E3A0      #003=VDG$MINIT File=VDG$MAIN.:VDA5TSI                              FRI 07/04/97 11:19 Page:162
     1679    13644    1   DCL VD_NODE_WRITERS$$ (0:%(MX_SPEC_TYPES-1)) EPTR CONSTANT SYMDEF
     1680    13645    1       INIT(ENTADDR(NIL),                  /* 0 */
     1681    13646    1           ENTADDR(NIL),                   /* Records from external files */
     1682    13647    1           ENTADDR(NIL),                   /* History file, level 1 */
     1683    13648    1           ENTADDR(VDA$WNAMES),            /* Names files, level 1 */
     1684    13649    1           ENTADDR(NIL),                   /* Structures file, level 1 */
     1685    13650    1           ENTADDR(NIL),                   /* Structures file, level 2 */
     1686    13651    1           ENTADDR(VDA$WWINDOWS),          /* Windows file, level 1 */
     1687    13652    1           ENTADDR(NIL),                   /* Windows file, level 2 */
     1688    13653    1           ENTADDR(NIL)*0);
     1689    13654
     1690    13655
     1691    13656        %BOX (TITLE="Initialization procedure", PAGE=YES);
             13664    1
             13668    1   /***************************************************************************
             13670    1    *                                                                         *
             13674    1            *                          Initialization procedure                       *
             13676    1            *                                                                         *
             13678    1           ***************************************************************************/

     1692    13682
     1693    13683    1   DCL B$TCB$ PTR SYMREF;
     1694    13684
     1695    13685
     1696    13686        %FPT_TIME (DEST=UTS, SOURCE=CLOCK, TSTAMP=VD_UTS_START, STCLASS=STATIC);
     1697    13705        /*
     1698    13706        *   FATAL_ERR is the static VD$ERR which is always at the head of
     1699    13707        *       the VD$ERR chain.  Tho all other VD$ERRs are "objects",
     1700    13708        *       and so are dynamically allocated, FATAL_ERR is statically
     1701    13709        *       allocated so we have some way to report errors during
     1702    13710        *       allocation!!
     1703    13711        */
     1704    13712    1   DCL 1 FATAL_ERR STATIC,
     1705    13713           %VD$ERR (NAME=VD_ERR, STCLASS=STATIC, LEV=2, LAST=NO);
     1706    13766           %VD$NUMBER (NAME="*", DIM="(0:2)", STCLASS=STATIC, LEV=2, LAST=YES);
     1707    13811
     1708    13812        %VD_TEXTC (NAME=ERRMSG_FID, STCLASS=STATIC, MXNB=31);
PL6.E3A0      #003=VDG$MINIT File=VDG$MAIN.:VDA5TSI                              FRI 07/04/97 11:19 Page:163
     1709    13953
     1710    13954
     1711    13955    1   DCL STREAM$ PTR;
     1712    13956    1   DCL INTERNAL_DIR_TAIL$ PTR;
     1713    13957    1   DCL I UBIN;
     1714    13958
     1715    13959
     1716    13960        %VD$STREAM (NAME=STREAM, STCLASS="BASED(STREAM$)");
     1717    14066        %VD$KEY_NUMBER (NAME=KEY$NUMBER, STCLASS=BASED);
     1718    14081        %B$TCB (NAME=B$TCB, STCLASS="BASED(B$TCB$)");
     1719    14084        %B$ALT;
     1720    14092        %F$DCB;
     1721    14149
     1722    14150
     1723    14151
     1724    14152                /*  Initialize the static symdefs */
     1725    14153
     1726    14154    1           VD_6E = %CLEAR;
     1727    14155    1           VD_6E.HISTORY$ = ADDR(NIL);
     1728    14156    1           VD_6E.EQUALS$ = ADDR(NIL);
     1729    14157    1           VD_6E.LOCATIONS$ = ADDR(NIL);
     1730    14158    1           VD_6E.SYNONYMS$ = ADDR(NIL);
     1731    14159    1           VD_6E.KEYINS$ = ADDR(NIL);
     1732    14160    1           VD_6E.STRUCTURES$ = ADDR(NIL);
     1733    14161    1           VD_6E.STRUCTURE_EXTERNAL$ = ADDR(NIL);
     1734    14162    1           VD_6E.WINDOWS$ = ADDR(NIL);
     1735    14163    1           VD_6E.WS.INTERNAL_DIR$ = ADDR(NIL);
     1736    14164    1           VD_6E.SOURCE.OPERAND.STREAM$ = ADDR(NIL);
     1737    14165    1           VD_6E.SOURCE.OPERAND.EDIT_BLOCK$ = ADDR(NIL);
     1738    14166    1           VD_6E.SOURCE.OPERAND.EVAL$ = ADDR(NIL);
     1739    14167    1           VD_6E.SOURCE.OPERAND.INTREE$ = ADDR(NIL);
     1740    14168    1           VD_6E.CMD_STREAM$ = ADDR(NIL);
     1741    14169    1           VD_6E.INTERRUPT.STATE# = %INST_PROCESSING;
     1742    14170    1           VD_6E.INTERRUPT.CMD_LINE$ = ADDR(NIL);
     1743    14171    1           VD_6E.ERR_HEAD$ = ADDR(FATAL_ERR);
     1744    14172    1           VD_6E.ERR_TAIL$ = ADDR(FATAL_ERR);
     1745    14173    1           VD_6E.PORT_HEAD$ = ADDR(NIL);
PL6.E3A0      #003=VDG$MINIT File=VDG$MAIN.:VDA5TSI                              FRI 07/04/97 11:19 Page:164
     1746    14174    1           VD_6E.PORT_TAIL$ = ADDR(NIL);
     1747    14175    1           VD_6E.WILD_STRINGS$ = ADDR(NIL);
     1748    14176
     1749    14177    1           FATAL_ERR = %CLEAR;
     1750    14178    1           FATAL_ERR.VD_ERR.FLINK$ = ADDR(NIL);
     1751    14179
     1752    14180    1           VD_CURRENT_WINDOW$ = ADDR(NIL);
     1753    14181    1           VD_COMMAND_WINDOW$ = ADDR(NIL);
     1754    14182
     1755    14183    1           VD_ACCESSOR_PRIV = %CLEAR;
     1756    14184
     1757    14185    1           VD_DCBS = %CLEAR;
     1758    14186
     1759    14187    2           DO I = 0 TO %(MX_CMD_OBJECTS-1);
     1760    14188    2              VD_CMD_OBJECTS$ (I) = ADDR(NIL);
     1761    14189    2              END;
     1762    14190
     1763    14191    1           VD_LAST_LOADED_FILE_SPEC = %CLEAR;
     1764    14192
     1765    14193    1           VD_EXIT.CODE_ = VECTOR(FATAL_ERR.VD_ERR.ERR);
     1766    14194    1           VD_EXIT.V.STEPCC# = %STEPCC_OK;
     1767    14195
     1768    14196    1           CALL M$TIME (FPT_TIME);
     1769    14197
     1770    14198
     1771    14199    1           CALL INIT_MCB (VD_MCB_SMALL) ALTRET (INIT_MCB_FAILED);
     1772    14200    1           CALL INIT_MCB (VD_MCB_LARGE) ALTRET (INIT_MCB_FAILED);
     1773    14201
     1774    14202
     1775    14203                /*
     1776    14204                *   Can now allocate dynamic storage.
     1777    14205                */
     1778    14206
     1779    14207    1           INTERNAL_DIR_TAIL$ = ADDR(NIL);
     1780    14208    1           CALL BUILD_DIR_NODE (%LENGTHC(DK_HISTORY), %DK_HISTORY)
     1781    14209    1             ALTRET (BUILD_DIR_NODE_FAILED);
     1782    14210    1           CALL BUILD_DIR_NODE (%LENGTHC(DK_NAMES), %DK_NAMES)
PL6.E3A0      #003=VDG$MINIT File=VDG$MAIN.:VDA5TSI                              FRI 07/04/97 11:19 Page:165
     1783    14211    1             ALTRET (BUILD_DIR_NODE_FAILED);
     1784    14212    1           CALL BUILD_DIR_NODE (%LENGTHC(DK_SCRATCH), %DK_SCRATCH)
     1785    14213    1             ALTRET (BUILD_DIR_NODE_FAILED);
     1786    14214    1           CALL BUILD_DIR_NODE (%LENGTHC(DK_STRUCTURES), %DK_STRUCTURES)
     1787    14215    1             ALTRET (BUILD_DIR_NODE_FAILED);
     1788    14216    1           CALL BUILD_DIR_NODE (%LENGTHC(DK_WINDOWS), %DK_WINDOWS)
     1789    14217    1             ALTRET (BUILD_DIR_NODE_FAILED);
     1790    14218
     1791    14219
     1792    14220    1           CALL VDG$OALLOC (%CLS_STREAM, VD_6E.SOURCE.OPERAND.STREAM$)
     1793    14221    1             ALTRET (OALLOC_FAILED);
     1794    14222    1           CALL VDG$OALLOC (%CLS_STREAM, VD_6E.EQUALS$)
     1795    14223    1             ALTRET (OALLOC_FAILED);
     1796    14224    1           CALL VDG$OALLOC (%CLS_STREAM, VD_6E.LOCATIONS$)
     1797    14225    1             ALTRET (OALLOC_FAILED);
     1798    14226    1           CALL VDG$OALLOC (%CLS_STREAM, VD_6E.SYNONYMS$)
     1799    14227    1             ALTRET (OALLOC_FAILED);
     1800    14228    1           CALL VDG$OALLOC (%CLS_STREAM, VD_6E.STRUCTURES$)
     1801    14229    1             ALTRET (OALLOC_FAILED);
     1802    14230    1           CALL VDG$OALLOC (%CLS_STREAM, VD_6E.KEYINS$)
     1803    14231    1             ALTRET (OALLOC_FAILED);
     1804    14232    1           CALL VDG$OALLOC (%CLS_STREAM, VD_6E.WINDOWS$)
     1805    14233    1             ALTRET (OALLOC_FAILED);
     1806    14234
     1807    14235
     1808    14236                /*
     1809    14237                *   We must allocate our own pre-processor ECB work area.
     1810    14238                *   We won't get a chance to expand this work area:  make it
     1811    14239                *       big now.
     1812    14240                */
     1813    14241        /*      XUE_PPCB.ECB.WKSZ# = %(NW_EVAL_WORK * 3);                   */
     1814    14242        /*      CALL VDG$OALLOC (%CLS_BUFFER, XUE_PPCB.ECB.WORK$,            */
     1815    14243        /*        SIZEW(VD$BUFFER_HEADER) + %NW_EVAL_WORK)                  */
     1816    14244        /*        ALTRET (OALLOC_FAILED);                                   */
     1817    14245        /*      XUE_PPCB.ECB.WORK$->VD$BUFFER.LENGTH# =                     */
     1818    14246        /*        ((SIZEW(VD$BUFFER_HEADER) + %NW_EVAL_WORK) *              */
     1819    14247        /*        %NB_PER_WORD) - LENGTHC(VD$BUFFER_HEADER);                */
PL6.E3A0      #003=VDG$MINIT File=VDG$MAIN.:VDA5TSI                              FRI 07/04/97 11:19 Page:166
     1820    14248        /*      XUE_PPCB.ECB.WORK$ = PALIGNW(ADDR(XUE_PPCB.ECB.WORK$ ->     */
     1821    14249        /*        VD$BUFFER.BYTES));                                        */
     1822    14250
     1823    14251
     1824    14252    1           XUE_ECB.WKSZ# = %NW_EVAL_WORK;
     1825    14253    1           CALL VDG$OALLOC (%CLS_BUFFER, XUE_ECB.WORK$,
     1826    14254    1             SIZEW(VD$BUFFER_HEADER) + %NW_EVAL_WORK)
     1827    14255    1             ALTRET (OALLOC_FAILED);
     1828    14256    1           XUE_ECB.WORK$->VD$BUFFER.LENGTH# =
     1829    14257    1             ((SIZEW(VD$BUFFER_HEADER) + %NW_EVAL_WORK) *
     1830    14258    1             %NB_PER_WORD) - LENGTHC(VD$BUFFER_HEADER);
     1831    14259    1           XUE_ECB.WORK$ = PALIGNW(ADDR(XUE_ECB.WORK$ -> VD$BUFFER.BYTES));
     1832    14260
     1833    14261
     1834    14262    1           CALL XUG$INIT (XUG_GETCMD, XUG_INIT)
     1835    14263    1             ALTRET (XUG_INIT_FAILED);
     1836    14264
     1837    14265
     1838    14266    1           CALL CONCAT (ERRMSG_FID.BYTES,
     1839    14267    1             %CONCAT(CHR_ERRFILE_NAME, CHR_PERIOD),
     1840    14268    1             DCBADDR(DCBNUM(M$LM))->F$DCB.ACCT#);
     1841    14269    1           ERRMSG_FID.LENGTH# =
     1842    14270    1             %LENGTHC(CONCAT(CHR_ERRFILE_NAME, CHR_PERIOD)) +
     1843    14271    1             LENGTHC(DCBADDR(DCBNUM(M$LM))->F$DCB.ACCT#);
     1844    14272    1           XUG_GETCMD.ERRMFID$ = ADDR(ERRMSG_FID);
     1845    14273    1           CALL XUG$SETERRMSG (XUG_GETCMD)
     1846    14274    1             ALTRET (XUG_SETERRMSG_FAILED);
     1847    14275
     1848    14276
     1849    14277    1           RETURN;
     1850    14278
     1851    14279
     1852    14280                %BOX (TITLE="Error Handlers");

             14292    1   /***************************************************************************
             14294    1    *                                                                         *
             14298    1            *                               Error Handlers                            *
PL6.E3A0      #003=VDG$MINIT File=VDG$MAIN.:VDA5TSI                              FRI 07/04/97 11:19 Page:167
             14300    1            *                                                                         *
             14302    1           ***************************************************************************/

     1853    14306
     1854    14307                /*
     1855    14308                *   We can't really talk to the user via the command
     1856    14309                *       window or the Presenter yet, so when we get an
     1857    14310                *       error, we always treat it as fatal.
     1858    14311                */
     1859    14312
     1860    14313    1   XUG_INIT_FAILED: ;
     1861    14314    1   XUG_SETERRMSG_FAILED: ;
     1862    14315    1           FATAL_ERR.VD_ERR.ERR.CODE# = %E$PARSE_FAILED;
     1863    14316    1           FATAL_ERR.VD_ERR.FLAGLEV# = %FLV_FATAL;
     1864    14317    1           ALTRETURN;
     1865    14318
     1866    14319
     1867    14320    1   INIT_MCB_FAILED: ;
     1868    14321    1   BUILD_DIR_NODE_FAILED: ;
     1869    14322    1   OALLOC_FAILED: ;
     1870    14323    1           FATAL_ERR.VD_ERR.FLAGLEV# = %FLV_FATAL;
     1871    14324    1           ALTRETURN;
     1872    14325
     1873    14326
     1874    14327                %BOX (TITLE=INIT_MCB, PAGE=YES);
             14335    1
             14339    1   /***************************************************************************
             14341    1    *                                                                         *
             14345    1            *                                  INIT_MCB                               *
             14347    1            *                                                                         *
             14349    1           ***************************************************************************/

     1875    14353
     1876    14354        /*I* NAME: INIT_MCB
     1877    14355            PARAMETERS:
     1878    14356                MCB - XUM$MCB to initialize.
     1879    14357            INPUT:
PL6.E3A0      #003=VDG$MINIT File=VDG$MAIN.:VDA5TSI                              FRI 07/04/97 11:19 Page:168
     1880    14358                FATAL_ERR must be ready to use.
     1881    14359            OUTPUT:
     1882    14360                MCB will be initialized, ready for VDG$OALLOC to use.
     1883    14361                    A new data segment will have been obtained for the
     1884    14362                    MCB.
     1885    14363            DESCRIPTION:
     1886    14364                Obtain a new data segment from the monitor.  Initialize the
     1887    14365                MCB to point to it.
     1888    14366        */
     1889    14367
     1890    14368    1   INIT_MCB: PROC (MCB) ALTRET;
     1891    14369        %XUM$MCB (NAME=MCB, STCLASS="");
     1892    14373
     1893    14374
     1894    14375        %FPT_GDS (RESULTS=GDS_RESULTS, SEGSIZE=%NW_DATA_SEG_INCR);
     1895    14391    2   DCL GDS_RESULTS VECTOR STATIC;
     1896    14392
     1897    14393
     1898    14394
     1899    14395    2           GDS_RESULTS = VECTOR(NIL);
     1900    14396    2           CALL M$GDS (FPT_GDS) ALTRET (GDS_FAILED);
     1901    14397
     1902    14398    2           MCB.SEGMENT_BASE$ = VBASE(GDS_RESULTS);
     1903    14399    2           MCB.HI_SEGMENT$ = VBASE(GDS_RESULTS);
     1904    14400    2           MCB.WKSZ = (VBOUND(GDS_RESULTS) + 1) / %NB_PER_WORD;
     1905    14401
     1906    14402    2           RETURN;
     1907    14403
     1908    14404
     1909    14405
     1910    14406    2   GDS_FAILED:
     1911    14407    2           FATAL_ERR.VD_ERR.ERR = B$TCB.ALT$->B$ALT.ERR;
     1912    14408    2           FATAL_ERR.VD_ERR.FLAGLEV# = %FLV_FATAL;
     1913    14409    2           ALTRETURN;
     1914    14410
     1915    14411    2   END INIT_MCB;
     1916    14412
PL6.E3A0      #003=VDG$MINIT File=VDG$MAIN.:VDA5TSI                              FRI 07/04/97 11:19 Page:169
     1917    14413
     1918    14414                %BOX (TITLE=BUILD_DIR_NODE, PAGE=YES);
             14422    2
             14426    2   /***************************************************************************
             14428    2    *                                                                         *
             14432    2            *                               BUILD_DIR_NODE                            *
             14434    2            *                                                                         *
             14436    2           ***************************************************************************/

     1919    14440
     1920    14441        /*I* NAME: BUILD_DIR_NODE
     1921    14442            PARAMETERS:
     1922    14443                DIR_KEY_LEN - # of bytes in DIR_KEY below.
     1923    14444                DIR_KEY - A %DK_ value, specifying the key for the VD$DIR_NODE.
     1924    14445            INPUT:
     1925    14446                We must be able to allocate dynamic storage.
     1926    14447                VD_6E.WS.INTERNAL_DIR$ must point to the first VD$DIR_NODE
     1927    14448                    in the chain; if none yet, it must be ADDR(NIL).
     1928    14449                INTERNAL_DIR_TAIL$ must point to the last VD$DIR_NODE in
     1929    14450                    the chain; if none yet, it must be ADDR(NIL).
     1930    14451            OUTPUT:
     1931    14452                A VD$DIR_NODE will be appended to VD_6E.WS.INTERNAL_DIR$.
     1932    14453            DESCRIPTION:
     1933    14454                Allocate and initialized a VD$DIR_NODE.  Append it to the
     1934    14455                chain rooted in VD_6E.WS.INTERNAL_DIR$.
     1935    14456        */
     1936    14457
     1937    14458    1   BUILD_DIR_NODE: PROC (DIR_KEY_LEN, DIR_KEY) ALTRET;
     1938    14459    2   DCL DIR_KEY_LEN SBIN;
     1939    14460    2   DCL DIR_KEY CHAR(DIR_KEY_LEN) CALIGNED;
     1940    14461
     1941    14462
     1942    14463    2   DCL DIR_NODE$ PTR;
     1943    14464
     1944    14465
     1945    14466        %VD$DIR_NODE (NAME=DIR$NODE, STCLASS="BASED(DIR_NODE$)");
     1946    14504
PL6.E3A0      #003=VDG$MINIT File=VDG$MAIN.:VDA5TSI                              FRI 07/04/97 11:19 Page:170
     1947    14505
     1948    14506
     1949    14507    2           CALL VDG$OALLOC (%CLS_DIR_NODE, DIR_NODE$)
     1950    14508    2             ALTRET (OALLOC_FAILED);
     1951    14509    2           DIR$NODE.KEY = DIR_KEY;
     1952    14510    2           DIR$NODE.FILE_STCLASS = %FSTCL_INTERNAL;
     1953    14511
     1954    14512    2           DIR$NODE.BLINK$ = INTERNAL_DIR_TAIL$;
     1955    14513    2           IF INTERNAL_DIR_TAIL$ = ADDR(NIL) THEN
     1956    14514    2              VD_6E.WS.INTERNAL_DIR$ = DIR_NODE$;
     1957    14515    2           ELSE
     1958    14516    2              DIR$NODE.BLINK$->DIR$NODE.FLINK$ = DIR_NODE$;
     1959    14517    2           INTERNAL_DIR_TAIL$ = DIR_NODE$;
     1960    14518
     1961    14519    2           RETURN;
     1962    14520
     1963    14521
     1964    14522    2   OALLOC_FAILED: ;
     1965    14523    2           ALTRETURN;
     1966    14524
     1967    14525    2   END BUILD_DIR_NODE;
     1968    14526
     1969    14527    1   END VDG$MINIT;
     1970    14528        %EOD;

PL6.E3A0      #003=VDG$MINIT File=VDG$MAIN.:VDA5TSI                              FRI 07/04/97 11:19 Page:171
--  Include file information  --

   XUG_ENTRY.:LIBRARY  cannot be made into a system file and is referenced.
   XUE_MACRO_C.:LIBRARY  is referenced.
   XUH_MACRO_C.:LIBRARY  is referenced.
   XUM_MACRO_C.:LIBRARY  is referenced.
   XU_MACRO_C.:LIBRARY  is referenced.
   VD_PERR_C.:VDA5TOU  is referenced.
   VD_NODES0_E.:VDA5TOU  is referenced.
   VD_MACROS_M.:VDA5TOU  is referenced.
   NK_VFC_C.:LIBRARY  is referenced.
   CP_6.:LIBRARY  cannot be made into a system file and is referenced.
   B$JIT_C.:E04TOU  was found in the system file and is never referenced.
   CP_6_C.:E04TOU  was found in the system file and is referenced.
      No diagnostics issued in procedure VDG$MINIT.

   Procedure VDG$MINIT requires 240 words for executable code.
   Procedure VDG$MINIT requires 12 words of local(AUTO) storage.

PL6.E3A0      #003=VDG$MINIT File=VDG$MAIN.:VDA5TSI                              FRI 07/04/97 11:19 Page:172

 Object Unit name= VDG$MINIT                                  File name= VDG$MAIN.:VDA5TOU
 UTS= JUL 04 '97 11:19:24.36 FRI                              Compiler= PL-6/E31         Sev=      00
 SharedLib= :SHARED_SYSTEM                                    Alt SharedLib=


    ****  Control sections  ****

 Sect   Type Bound  Init  Size OctSiz  Section name(segment info)
    0   DCB   even  none     0      0  M$UC
    1   DCB   even  none     0      0  M$ME
    2   DCB   even  none     0      0  M$DO
    3   DCB   even  none     0      0  M$LO
    4   DCB   even  none     0      0  M$EW
    5   DCB   even  none     0      0  M$LM
    6   Data  even  none   976   1720  VDG$MINIT
    7  RoData even  UTS   1103   2117  VDG$MINIT
    8   Proc  even  none   240    360  VDG$MINIT
    9  RoData even  none    43     53  VDG$MINIT

    ****  Entry defs  ****

                              Check   Calling
                             calling  sequence
  Sect OctLoc Primary Altret sequence   type   Parms  Name
     8      0   yes    yes     yes      Std        0  VDG$MINIT
PL6.E3A0      #003=VDG$MINIT File=VDG$MAIN.:VDA5TSI                              FRI 07/04/97 11:19 Page:173

  ****  Data defs  ****

 Sect OctLoc  Name                           Sect OctLoc  Name
    6      0  VD_6E                              6   1165  VD_DCBS
    6   1167  VD_UTS_START                       6   1170  VD_WORST_FLAGLEV
    6   1171  VD_LAST_CWIN_ACTIVITY              6   1172  VD_FORCE_READ_FROM
    6   1173  VD_EOF_DELETED                     6   1174  VD_SCREEN_HEIGHT
    6   1175  VD_SCREEN_WIDTH                    6   1176  VD_2DIM
    6   1177  VD_EDITING_WINDOWS                 6   1200  VD_EDITING_HEIGHT
    6   1201  VD_OLD_$SCREEN                     6   1202  VD_ORIGINAL_EDTCTL
    6   1206  VD_ORIGINAL_TRMCTL                 6   1212  VD_ORIGINAL_TAB
    6   1222  VD_ORIGINAL_PLATEN                 6   1226  VD_CURRENT_WINDOW$
    6   1227  VD_COMMAND_WINDOW$                 6   1230  VD_ACCESSOR_PRIV
    6   1231  VD_CMD_OBJECTS$                    6   1313  VD_LAST_LOADED_FILE_SPEC
    6   1323  VD_MCB_SMALL                       6   1334  VD_MCB_LARGE
    6   1345  VD_PCB                             6   1364  XUG_INIT
    6   1430  XUG_GETCMD                         6   1502  XUH_PARAM
    6   1600  XUE_ECB                            6   1634  VD_EXIT
    7      1  VD_RESERVED_TABLE$                 7    216  VD_DW_BOOLEAN
    7    237  VD_DW_COMPONENT                    7    300  VD_DW_DIRECTION
    7    331  VD_DW_EXIST                        7    372  VD_DW_KEY_TYPE
    7    473  VD_DW_NAME_DATA_TYPE               7    544  VD_DW_ORG
    7    605  VD_DW_POINT                        7    646  VD_DW_PROTECT
    7    677  VD_SEARCH_RESERVED_SPECIALS        7   1077  VD_XLATE_CHAR_CLASS
    7   1277  VD_OBJECTS                         7   1605  VD_KEY_SCRATCH_LEFTOVER
    7   1607  VD_FKEY_SCRATCH_LEFTOVER           7   1631  VD_KEY_SCRATCH_SOURCE
    7   1633  VD_FKEY_SCRATCH_SOURCE             7   1655  VD_LOC_$LEFTOVER
    7   1673  VD_LOC_$MATCHES                    7   1711  VD_LOC_$NOT_COPIED
    7   1727  VD_LOC_$RECORDS_DELETED            7   1747  VD_LOC_$RECORDS_INSERTED
    7   1767  VD_LOC_$SCREEN                     7   2004  VD_LOC_$SITES
    7   2021  VD_KEY_NUMERIC_BOF                 7   2023  VD_KEY_FIRST_CONSEC_REC
    7   2025  VD_KEY_MN_EDITKEY                  7   2027  VD_KEY_MX_EDITKEY
    7   2031  VD_NODE_READERS$$                  7   2055  VD_NODE_WRITERS$$
PL6.E3A0      #003=VDG$MINIT File=VDG$MAIN.:VDA5TSI                              FRI 07/04/97 11:19 Page:174

  ****  Entry refs  ****

         Check        Calling
        calling       sequence
Altret sequence SRef   type   Args  Name
 yes     yes           Std       2 VDI$PGLOBAL_COMMANDS
 yes     yes           Std       0 VDI$PFIX_WINDOWS
 yes     yes           Std       2 XTX$ADAPT
         yes           Std       1 VDI$PUSER_PARSE_RTN
 yes     yes           Std       1 VDE$PREAD_NAME_FOR_EVAL
 yes     yes           Std       3 VDG$OALLOC
 yes     yes           Std       1 XUG$SETERRMSG
 yes     yes           Std       5 VDI$PGET_COMMAND_RECORD
 yes     yes           Std       1 VDA$RNAMES
 yes     yes           Std       4 VDA$WNAMES
 yes     yes           Std       4 VDA$WWINDOWS
 yes     yes           Std       1 VDE$PFUNCTIONS
 yes     yes           Std       2 XUG$INIT
                       nStd      0 X66_AUTO_0
                       Std       0 B_CONSPOOL_D
                       nStd      0 X66_ARET
                       nStd      0 X66_AALT

  ****  Data refs  ****

  Flags:  r = read only, s = secondary
Flgs Name                             Flgs Name                             Flgs Name
     M$UC                                  M$ME                                  M$DO
     M$LO                                  M$EW                                  M$LM
     VD_COMMAND_LINE                       B$TCB$                                B_VECTNIL

  ****  Segment refs  ****

  Flags:  r = read only, s = secondary
Flgs Name                             Flgs Name                             Flgs Name
     NULLSID                               ISSID                                 ROSID
PL6.E3A0      #003=VDG$MINIT File=VDG$MAIN.:VDA5TSI                              FRI 07/04/97 11:19 Page:175


     1034        1        /*T***********************************************************/
     1035        2        /*T*                                                         */
     1036        3        /*T* Copyright (c) Bull HN Information Systems Inc., 1997    */
     1037        4        /*T*                                                         */
     1038        5        /*T***********************************************************/
     1039        6
     1040        7        /*D* NAME: VDG$MINIT
     1041        8            PARAMETERS:
     1042        9                None.
     1043       10            INPUT:
     1044       11                None.
     1045       12            OUTPUT:
     1046       13                All global static data in the Int'r's domain will be
     1047       14                    initialized.
     1048       15                VD_6E.WS.INTERNAL_DIR$ will point to a chain of VD$DIR_NODEs,
     1049       16                    one for each internal directory.
     1050       17                VD_6E.HISTORY$, .EQUALS$, .LOCATIONS$, .SYNONYMS, .KEYINS$,
     1051       18                    and .WINDOWS$ will point to closed VD$STREAMs.
     1052       19            DESCRIPTION:
     1053       20                Initialize all static global data.
     1054       21                Create the directory of internal files (empty initially).
     1055       22                Allocate Streams for all predefined files (no Ports, tho).
     1056       23        */
     1057       24
     1058       25        VDG$MINIT: PROC ALTRET;

     25  8 000000   000000 700200 xent  VDG$MINIT    TSX0  ! X66_AUTO_0
         8 000001   000014 000000                    ZERO    12,0

     1059       26
     1060       27        %INCLUDE CP_6;
     1061      108        %INCLUDE NK_VFC_C;
     1062      182        %INCLUDE VD_MACROS_M;
     1063     2397        %INCLUDE VD_NODES0_E;
     1064     2489        %INCLUDE VD_PERR_C;
     1065     2637        %INCLUDE XU_MACRO_C;
PL6.E3A0      #003=VDG$MINIT File=VDG$MAIN.:VDA5TSI                              FRI 07/04/97 11:19 Page:176
     1066     5731        %INCLUDE XUM_MACRO_C;
     1067     5758        %INCLUDE XUH_MACRO_C;
     1068     5842        %INCLUDE XUE_MACRO_C;
     1069     6586        %INCLUDE XUG_ENTRY;
     1070     6617
     1071     6618
     1072     6619    1   DCL VDI$PFIX_WINDOWS              ENTRY ALTRET;
     1073     6620    1   DCL VDI$PUSER_PARSE_RTN         ENTRY (1);
     1074     6621    1   DCL VDI$PGET_COMMAND_RECORD     ENTRY (5) ALTRET;
     1075     6622    1   DCL VDI$PGLOBAL_COMMANDS        ENTRY (2) ALTRET;
     1076     6623    1   DCL VDE$PREAD_NAME_FOR_EVAL     ENTRY (1) ALTRET;
     1077     6624    1   DCL VDE$PFUNCTIONS              ENTRY (1) ALTRET;
     1078     6625    1   DCL VDG$OALLOC                  ENTRY (3) ALTRET;
     1079     6626
     1080     6627    1   DCL VDA$RNAMES                  ENTRY (1) ALTRET;
     1081     6628    1   DCL VDA$WNAMES                  ENTRY (4) ALTRET;
     1082     6629    1   DCL VDA$WWINDOWS                ENTRY (4) ALTRET;
     1083     6630
     1084     6631
     1085     6632    1   DCL M$ME DCB;
     1086     6633    1   DCL M$DO DCB;
     1087     6634    1   DCL M$LO DCB;
     1088     6635    1   DCL M$EW DCB;
     1089     6636    1   DCL M$LM DCB;
     1090     6637
     1091     6638
     1092     6639
     1093     6640    1   DCL VD_COMMAND_LINE SBIN SYMREF;    /* 6Edit command parse nodes */
     1094     6641
     1095     6642
     1096     6643        %BOX (TITLE="Static globals");

              6655    1   /***************************************************************************
              6657    1    *                                                                         *
              6661    1            *                               Static globals                           *
              6663    1            *                                                                        *
              6665    1          ***************************************************************************/
PL6.E3A0      #003=VDG$MINIT File=VDG$MAIN.:VDA5TSI                              FRI 07/04/97 11:19 Page:177

     1097     6669
     1098     6670        %VD_6E (NAME=VD_6E, STCLASS="STATIC SYMDEF");
     1099     6706
     1100     6707        %VD$DCBS (NAME=VD_DCBS, STCLASS="STATIC SYMDEF");
     1101     6722
     1102     6723    1   DCL VD_UTS_START UBIN STATIC SYMDEF INIT(0);
     1103     6724
     1104     6725    1   DCL VD_WORST_FLAGLEV UBIN STATIC SYMDEF INIT(0);
     1105     6726
     1106     6727    1   DCL VD_LAST_CWIN_ACTIVITY UBIN STATIC SYMDEF INIT(0);
     1107     6728
     1108     6729    1   DCL VD_FORCE_READ_FROM UBIN STATIC SYMDEF INIT(%RF_DONT_CARE);
     1109     6730
     1110     6731    1   DCL VD_EOF_DELETED BIT(36) STATIC SYMDEF INIT('0'B);
     1111     6732
     1112     6733        /*
     1113     6734        *   Dimensions of the UC (user-domain) window we're given at start-up.
     1114     6735        *   If:
     1115     6736        *       VD_SCREEN_HEIGHT < %MN_SCREEN_EDITING_HEIGHT:  we can't screen-edit
     1116     6737        *           on this terminal, or we're running in batch, ghost, or TP mode.
     1117     6738        *           We will still have nodes in the Windows file for the command
     1118     6739        *           window and (usually only 1) editing window, but the FEP won't
     1119     6740        *           know these things as windows.
     1120     6741        *       VD_SCREEN_HEIGHT >= %MN_SCREEN_EDITING_HEIGHT:  we can screen-edit.
     1121     6742        *           We'll have DCBs open to FEP windows for all nodes in the Windows
     1122     6743        *           file.
     1123     6744        *   Note VD_SCREEN_HEIGHT just says if it's possible to screen-edit
     1124     6745        *       or not; the user can tell us that s/he doesn't WANT to
     1125     6746        *       screen-edit by setting the $SCREEN predefined name to a value
     1126     6747        *       < %MN_SCREEN_EDITING_HEIGHT.
     1127     6748        *N* Following paragraph has been de-implemented due to star 25801:
     1128     6749        *N*   Note VD_$SCREEN.V# just says if the user wants to screen-edit or not;
     1129     6750        *N*       6Edit will actually go "2-dimensional" only when there's at least
     1130     6751        *N*       one editing window open.  VD_2DIM determines whether we're actually
     1131     6752        *N*       screen editing (VD_2DIM = %TRUE) or either (1) the user told us not
     1132     6753        *N*       to screen edit, or (2) we can't screen edit, or (3) we're waiting til
PL6.E3A0      #003=VDG$MINIT File=VDG$MAIN.:VDA5TSI                              FRI 07/04/97 11:19 Page:178
     1133     6754        *N*       the first editing window is opened before we screen edit.
     1134     6755        */
     1135     6756    1   DCL VD_SCREEN_HEIGHT SBIN STATIC SYMDEF INIT(0);
     1136     6757    1   DCL VD_SCREEN_WIDTH SBIN STATIC SYMDEF INIT(0);
     1137     6758    1   DCL VD_2DIM BIT(1) ALIGNED STATIC SYMDEF INIT(%FALSE);
     1138     6759    1   DCL VD_EDITING_WINDOWS SBIN STATIC SYMDEF INIT(0);
     1139     6760    1   DCL VD_EDITING_HEIGHT SBIN STATIC SYMDEF INIT(0);
     1140     6761    1   DCL VD_OLD_$SCREEN SBIN STATIC SYMDEF INIT(0);
     1141     6762
     1142     6763        /* Original terminal parameters before 6Edit was started */
     1143     6764        %VLP_TRMCTL (FPTN=VD_ORIGINAL_EDTCTL, STCLASS="STATIC SYMDEF");
     1144     6804        %VLP_TRMCTL (FPTN=VD_ORIGINAL_TRMCTL, STCLASS="STATIC SYMDEF");
     1145     6844        %VLP_TAB (FPTN=VD_ORIGINAL_TAB, STCLASS="STATIC SYMDEF");
     1146     6858        %VLP_PLATEN (FPTN=VD_ORIGINAL_PLATEN, STCLASS="STATIC SYMDEF");
     1147     6880
     1148     6881        /*
     1149     6882        *   VD_CURRENT_WINDOW$
     1150     6883        *   Pointer to the VD$FILE_NODE (in the Windows file) of the current
     1151     6884        *       window.  This will always be an editing window.  Nil if no
     1152     6885        *       editing windows are open currently (this will only be true
     1153     6886        *       during initialization).
     1154     6887        */
     1155     6888    1   DCL VD_CURRENT_WINDOW$ PTR STATIC SYMDEF;
     1156     6889
     1157     6890        /*
     1158     6891        *   VD_COMMAND_WINDOW$
     1159     6892        *   Pointer to the VD$FILE_NODE (in the Windows file) of the
     1160     6893        *       command window.  If NIL, there isn't a command window yet,
     1161     6894        *       so we can't write to it yet (we're not yet fully initialized).
     1162     6895        */
     1163     6896    1   DCL VD_COMMAND_WINDOW$ PTR STATIC SYMDEF;
     1164     6897
     1165     6898
     1166     6899        /*
     1167     6900        *   VD_ACCESSOR_PRIV - A set of %NAC_s specifying the privileges
     1168     6901        *   for a caller to the Accessor.
     1169     6902        *   These flags, when set, allow the caller to override the
PL6.E3A0      #003=VDG$MINIT File=VDG$MAIN.:VDA5TSI                              FRI 07/04/97 11:19 Page:179
     1170     6903        *   access privilege restrictions of internal file nodes.
     1171     6904        *   If the caller is working on behalf of the user (eg, deleting
     1172     6905        *   records the FEP told us to delete, or processing a user-typed
     1173     6906        *   command), VD_ACCESSOR_PRIV should have all bits reset (%CLEAR).
     1174     6907        *   However, if the caller is performing an internal update of
     1175     6908        *   an internal file (eg, updating $LEFTOVER after a partially
     1176     6909        *   successful (and partially-failed) copy/move command),
     1177     6910        *   VD_ACCESSOR_PRIV should have all bits set (%NAC_ALL_BITS -- full
     1178     6911        *   privileges).
     1179     6912        */
     1180     6913    1   DCL 1 VD_ACCESSOR_PRIV ALIGNED STATIC SYMDEF,
     1181     6914           %VD$NAC (NAME=*, LEV=2, LAST=YES);
     1182     6928
     1183     6929        /*
     1184     6930        *   VD_CMD_OBJECTS$
     1185     6931        *   This array of pointers is used when we need to allocate dynamic
     1186     6932        *       storage for an object when there is no obvious "owner" who
     1187     6933        *       will later free the object.  For example, VDE$PFUNCTIONS
     1188     6934        *       (which is called by X$EVAL) needs to allocate VD$TEXTC_REMOTE
     1189     6935        *       objects, but who will free them?
     1190     6936        *   The answer is, VDI$PGET_COMMAND_RECORD.  Before reading the
     1191     6937        *       next command, VDI$PGET_COMMAND_RECORD runs thru
     1192     6938        *       VD_CMD_OBJECTS$, freeing any non-NIL pointers it finds.
     1193     6939        *   This array is set to all NILs during initialization; to use
     1194     6940        *       a slot, look for the first NIL and it's yours.
     1195     6941        */
     1196     6942    1   DCL VD_CMD_OBJECTS$ (0:%(MX_CMD_OBJECTS-1)) PTR STATIC SYMDEF;
     1197     6943        %VD$ENCODED_FILE_SPEC (NAME=VD_LAST_LOADED_FILE_SPEC, STCLASS="STATIC SYMDEF");
     1198     6972
     1199     6973
     1200     6974        /*
     1201     6975        *   Control blocks for library routines.
     1202     6976        */
     1203     6977
     1204     6978        %XUM_MCB (NAME=VD_MCB_SMALL, STCLASS="STATIC SYMDEF",
     1205     6979            TP=%XUM_WORDS#, MS=%MNNW_DYN_STORAGE);
     1206     6984        %XUM_MCB (NAME=VD_MCB_LARGE, STCLASS="STATIC SYMDEF",
PL6.E3A0      #003=VDG$MINIT File=VDG$MAIN.:VDA5TSI                              FRI 07/04/97 11:19 Page:180
     1207     6985            TP=%XUM_WORDS#, MS=%MNNW_DYN_STORAGE);
     1208     6990
     1209     6991        %P_PCB (NAME=VD_PCB, STCLASS="STATIC SYMDEF",
     1210     6992            C=YES, C_LD='  ', C_TL='  ', CNTU=YES, NBL=NO);
     1211     7191
     1212     7192        %XUG_INIT (NAME=XUG_INIT, STCLASS="STATIC SYMDEF",
     1213     7193        /*N* PREPROCESS=X$PRE_PROCESS, PPCB=XUE_PPCB, */
     1214     7194            WSEG=0,             /* Make XUG get it's own data segment */
     1215     7195            PCB=VD_PCB, PASS=BLANK, GOODCMD=NO, NO_DOWNGRADE=YES,
     1216     7196            POST_EXEC=VDI$PFIX_WINDOWS,
     1217     7197            PRE_EXEC=VDI$PGLOBAL_COMMANDS, DONT_REREAD_CCBUF=YES);
     1218     7610
     1219     7611        %XUG_GETCMD (NAME=XUG_GETCMD, STCLASS="STATIC SYMDEF",
     1220     7612            NODES=VD_COMMAND_LINE, XUH=XUH_PARAM, CONTINUE_OK=YES,
     1221     7613            INDCB=M$ME, PROMPT=CMD_PROMPT, PROMPT_VFC=YES,
     1222     7614            READR=VDI$PGET_COMMAND_RECORD, SFROUTINE=VDI$PUSER_PARSE_RTN,
     1223     7615            OUTDCB=M$LO,
     1224     7616            DCB_PARAM=M$ME);
     1225     7954    1   DCL CMD_PROMPT CHAR(0) CONSTANT INIT(%CONCAT(VFC_TRANSITION0,CHR_PROMPT));
     1226     7955
     1227     7956        %XUH_PARAM (NAME=XUH_PARAM, STCLASS="STATIC SYMDEF",
     1228     7957            OUTDCB1=M$ME, OUTDCB2=M$LO, PROCNAME=VD_PNAME, PROCACCT=VD_PACCT);
     1229     8018        %VLP_NAME (FPTN=VD_PNAME,
     1230     8019                    NAME='6EDIT');
     1231     8046        %VLP_ACCT (FPTN=VD_PACCT,
     1232     8047                    ACCT=':SYS');
     1233     8060
     1234     8061        %XUE_ECB (NAME=XUE_ECB, STCLASS="STATIC SYMDEF",
     1235     8062            WORK_DCB=M$EW, CMDVARS=NO, INPUT_DCB=M$ME,
     1236     8063            FUN=VDE$PFUNCTIONS, VAR=VDE$PREAD_NAME_FOR_EVAL);
     1237     8265
     1238     8266        %FPT_EXIT (FPTN=VD_EXIT, STCLASS="STATIC SYMDEF");
     1239     8281
     1240     8282
     1241     8283        %BOX (TITLE="Constant globals", PAGE=YES);
              8291    1
              8295    1   /***************************************************************************
PL6.E3A0      #003=VDG$MINIT File=VDG$MAIN.:VDA5TSI                              FRI 07/04/97 11:19 Page:181
              8297    1    *                                                                         *
              8301    1            *                              Constant globals                          *
              8303    1            *                                                                        *
              8305    1          ***************************************************************************/

     1242     8309        %BOX (TITLE="Table of reserved words");

              8321    1   /***************************************************************************
              8323    1    *                                                                         *
              8327    1            *                          Table of reserved words                       *
              8329    1            *                                                                        *
              8331    1          ***************************************************************************/

     1243     8335        /*
     1244     8336        *   VD_RESERVED_TABLE$
     1245     8337        *   This array points to lists of the reserved words (excluding the
     1246     8338        *       level-names of Structures and the names of predefined files).
     1247     8339        *       The subscript into this array is the length of the reserved
     1248     8340        *       words in that list; each list contains reserved words of only
     1249     8341        *       one length, from 0 (always the empty list) to %MXNB_RESERVED_WORD.
     1250     8342        *   The list of words pointed-to by entries in VD_RESERVED_TABLE$
     1251     8343        *       are simply CALIGNED character strings, all munched together.
     1252     8344        *       We search such a list by PINCRC'ing a based char-string
     1253     8345        *       through the list.  The end of each list is marked by a single
     1254     8346        *       space character.
     1255     8347        */
     1256     8348
     1257     8349    1   DCL VD_RESERVED_TABLE$ (0:%MXNB_RESERVED_WORD) PTR CONSTANT SYMDEF ALIGNED
     1258     8350    1       INIT(ADDR(NIL), ADDR(RW1), ADDR(RW2), ADDR(RW3), ADDR(RW4),
     1259     8351    1            ADDR(RW5), ADDR(RW6), ADDR(RW7), ADDR(RW8), ADDR(RW9),
     1260     8352    1            ADDR(NIL)*0);
     1261     8353
     1262     8354    1   DCL RW1 CHAR(0) CONSTANT INIT(%CONCAT(
     1263     8355    1           'E', 'H', 'Q', 'X', ' '));
     1264     8356
     1265     8357        %SET ACC=CONCAT('AD', 'AF', 'AL', 'AN', 'AO', 'BA', 'BE', 'BL', 'BO');
     1266     8358
PL6.E3A0      #003=VDG$MINIT File=VDG$MAIN.:VDA5TSI                              FRI 07/04/97 11:19 Page:182
     1267     8359    1   DCL RW2 CHAR(0) CONSTANT INIT(%CONCAT(
     1268     8360                ACC,
     1269     8361                'BY', 'CO', 'DE', 'DI', /*'DO',*/ 'ED', 'EN', 'EO', 'EQ',
     1270     8362                'EX', 'FI', 'FO', 'HE', 'IF', 'IN', 'IS', 'KE', 'LI', 'LO',
     1271     8363                'MO', 'NE', 'NU', 'OF', 'OL', 'ON', 'OV', 'PA', 'PE', 'PO',
     1272     8364                'PR', 'QU', 'SE', 'SH', 'SK', 'ST', 'SY', 'TH', 'TO',
     1273     8365    1           'WI', 'XI', ' '));
     1274     8366
     1275     8367    1   DCL RW3 CHAR(0) CONSTANT INIT(%CONCAT(
     1276     8368                'ALL', 'ANY', 'DIR', 'END', 'EXI', 'HEL', 'KEY', 'NEW',
     1277     8369    1           'OLD', 'OUT', 'QUI', 'XIT', ' '));
     1278     8370
     1279     8371    1   DCL RW4 CHAR(0) CONSTANT INIT(%CONCAT(
     1280     8372                'DATE', 'DONT', 'EDIT', 'ELSE', 'EXIT', 'FILE', 'HELP',
     1281     8373                'MOVE', 'NEXT', 'OUTP', 'OVER', 'PREV', 'QUIT', 'READ',
     1282     8374                'REPE', 'REST', 'SAVE', 'SESS', 'SETU', 'SHOW', 'SKIP',
     1283     8375    1           'THRU', 'TIME', ' '));
     1284     8376
     1285     8377    1   DCL RW5 CHAR(0) CONSTANT INIT(%CONCAT(
     1286     8378                'AFTER', 'BLOCK', 'ENTER', 'ERASE', 'KEYIN', 'LINES', 'OUTPU',
     1287     8379                'PRINT', 'SETUP',
     1288     8380    1           ' '));
     1289     8381
     1290     8382    1   DCL RW6 CHAR(0) CONSTANT INIT(%CONCAT(
     1291     8383                'ADJUST', 'DELETE', 'EQUALS', 'NUMBER', 'OUTPUT', 'REPEAT',
     1292     8384    1           'SELECT', 'STRING', 'WINDOW', ' '));
     1293     8385
     1294     8386    1   DCL RW7 CHAR(0) CONSTANT INIT(%CONCAT(
     1295     8387                'COMMAND', 'DISPLAY', 'EDITING', 'FORWARD', 'PATTERN', 'PERCENT',
     1296     8388    1           'PROTECT', 'RESTORE', 'SESSION', 'SYNONYM', 'THROUGH', ' '));
     1297     8389
     1298     8390    1   DCL RW8 CHAR(0) CONSTANT INIT(%CONCAT(
     1299     8391    1           'BACKWARD', 'LOCATION', 'PATTERNS', 'POSITION', 'PREVIOUS', ' '));
     1300     8392
     1301     8393    1   DCL RW9 CHAR(0) CONSTANT INIT(%CONCAT(
     1302     8394    1           'BEGINNING', 'POSITIONS', 'DIRECTORY', ' '));
     1303     8395
PL6.E3A0      #003=VDG$MINIT File=VDG$MAIN.:VDA5TSI                              FRI 07/04/97 11:19 Page:183
     1304     8396
     1305     8397        %BOX (TITLE="Tables of displayed words for enumerated types");

              8409    1   /***************************************************************************
              8411    1    *                                                                         *
              8415    1            *               Tables of displayed words for enumerated types           *
              8417    1            *                                                                        *
              8419    1          ***************************************************************************/

     1306     8423
     1307     8424        /*
     1308     8425        *   The following tables use enumerated data types as subscripts into the table.
     1309     8426        *       Therefore, entries must appear in the same order as the enumerated
     1310     8427        *       values.
     1311     8428        *   Each table is:
     1312     8429        *       .N_ENTRIES# - Number of entries in table.
     1313     8430        *       .DW (0 : n_entries-1) - VD$TEXTC forms of displayed-word to be used
     1314     8431        *           for the values of the enumerated type.  For example, the displayed
     1315     8432        *           word for %ORG_CONSEC is found at VD_DW_ORG.DW (%ORG_CONSEC).
     1316     8433        *   All tables except BOOLEAN_NAMES must have %CHR_BAD_VALUE as entry # 0.
     1317     8434        *       This entry is used when the enumerated value is outside the table's
     1318     8435        *       range (< 0 or > .N_ENTRIES#-1);
     1319     8436        *   It's important for the user that the word(s) displayed for an enumerated
     1320     8437        *       value be exactly the same as the ones s/he uses in the 6Edit command
     1321     8438        *       language to set the enumerated value in the first place.  Hence these
     1322     8439        *       "displayed words" should actually be fragments of valid 6Edit command
     1323     8440        *       language.
     1324     8441        */
     1325     8442
     1326     8443        /* For boolean values */
     1327     8444    1   DCL 1 VD_DW_BOOLEAN CONSTANT SYMDEF,
     1328     8445    1         2 N_ENTRIES# SBIN INIT(2),
     1329     8446              %VD_TEXTC (NAME=DW, DIM="(0:1)", LEVEL=2, MXNB=%MXNB_DW, INITS=2,
     1330     8447                IBYTES="%DW_OFF", IBYTES1="%DW_ON");
     1331     8588
     1332     8589        /* For %CO_ values */
     1333     8590    1   DCL 1 VD_DW_COMPONENT CONSTANT SYMDEF,
PL6.E3A0      #003=VDG$MINIT File=VDG$MAIN.:VDA5TSI                              FRI 07/04/97 11:19 Page:184
     1334     8591    1         2 N_ENTRIES# SBIN INIT(4),
     1335     8592              %VD_TEXTC (NAME=DW, DIM="(0:3)", LEVEL=2, MXNB=%MXNB_DW, INITS=4,
     1336     8593                IBYTES="%CHR_BAD_VALUE",
     1337     8594                IBYTES1="%DW_KEY", IBYTES2="%DW_SPEC", IBYTES3="%DW_DATA");
     1338     8735
     1339     8736        /* For %DIR_ values */
     1340     8737    1   DCL 1 VD_DW_DIRECTION CONSTANT SYMDEF,
     1341     8738    1         2 N_ENTRIES# SBIN INIT(3),
     1342     8739              %VD_TEXTC (NAME=DW, DIM="(0:2)", LEVEL=2, MXNB=%MXNB_DW, INITS=3,
     1343     8740                IBYTES="%CHR_BAD_VALUE",
     1344     8741                IBYTES1="%DW_FORWARD", IBYTES2="%DW_BACKWARD");
     1345     8882
     1346     8883        /* For %EX_ values */
     1347     8884    1   DCL 1 VD_DW_EXIST CONSTANT SYMDEF,
     1348     8885    1         2 N_ENTRIES# SBIN INIT(4),
     1349     8886              %VD_TEXTC (NAME=DW, DIM="(0:3)", LEVEL=2, MXNB=%MXNB_DW, INITS=4,
     1350     8887                IBYTES="%CHR_BAD_VALUE",
     1351     8888                IBYTES1="%DW_NEW", IBYTES2="%DW_OLD", IBYTES3="%DW_ANY");
     1352     9029
     1353     9030        /* For %KT_ values */
     1354     9031    1   DCL 1 VD_DW_KEY_TYPE CONSTANT SYMDEF,
     1355     9032    1         2 N_ENTRIES# SBIN INIT(8),
     1356     9033              %VD_TEXTC (NAME=DW, DIM="(0:7)", LEVEL=2, MXNB=%MXNB_DW, INITS=8,
     1357     9034                IBYTES="%CHR_BAD_VALUE",
     1358     9035                IBYTES1="%DW_NUMBER", IBYTES2="%DW_STRING", IBYTES3="%DW_SEQUENTIAL",
     1359     9036                IBYTES4='BIN10', IBYTES5='BINHLF', IBYTES6='BIN521',
     1360     9037                IBYTES7="%DW_STRING");
     1361     9178
     1362     9179        /* For %NDT_ values */
     1363     9180    1   DCL 1 VD_DW_NAME_DATA_TYPE CONSTANT SYMDEF,
     1364     9181    1         2 N_ENTRIES# SBIN INIT(5),
     1365     9182              %VD_TEXTC (NAME=DW, DIM="(0:4)", LEVEL=2, MXNB=%MXNB_DW, INITS=5,
     1366     9183                IBYTES="%CHR_BAD_VALUE",
     1367     9184                IBYTES1="%DW_EQUALS", IBYTES2="%DW_LOCATION",
     1368     9185                IBYTES3="%DW_SYNONYM", IBYTES4="%DW_KEYIN");
     1369     9326
     1370     9327        /* For %ORG_ values */
PL6.E3A0      #003=VDG$MINIT File=VDG$MAIN.:VDA5TSI                              FRI 07/04/97 11:19 Page:185
     1371     9328    1   DCL 1 VD_DW_ORG CONSTANT SYMDEF,
     1372     9329    1         2 N_ENTRIES# SBIN INIT(4),
     1373     9330              %VD_TEXTC (NAME=DW, DIM="(0:3)", LEVEL=2, MXNB=%MXNB_DW, INITS=4,
     1374     9331                IBYTES="%CHR_BAD_VALUE",
     1375     9332                IBYTES1="%DW_CONSEC", IBYTES2="%DW_KEYED", IBYTES3="%DW_INDEXED");
     1376     9473
     1377     9474        /* For %PNT_ values */
     1378     9475    1   DCL 1 VD_DW_POINT CONSTANT SYMDEF,
     1379     9476    1         2 N_ENTRIES# SBIN INIT(4),
     1380     9477              %VD_TEXTC (NAME=DW, DIM="(0:3)", LEVEL=2, MXNB=%MXNB_DW, INITS=4,
     1381     9478                IBYTES="%CHR_BAD_VALUE",
     1382     9479                IBYTES1="%DW_AO", IBYTES2="%DW_BO", IBYTES3="%DW_EO");
     1383     9620
     1384     9621        /* For %PROTECT and %DONT_PROTECT values */
     1385     9622    1   DCL 1 VD_DW_PROTECT CONSTANT SYMDEF,
     1386     9623    1         2 N_ENTRIES# SBIN INIT(3),
     1387     9624              %VD_TEXTC (NAME=DW, DIM="(0:2)", LEVEL=2, MXNB=%MXNB_DW, INITS=3,
     1388     9625                IBYTES="%CHR_BAD_VALUE",
     1389     9626                IBYTES1="%DW_PROTECT",
     1390     9627                IBYTES2="%CONCAT(DW_DONT,CHR_UNDERSCORE,DW_PROTECT)");
     1391     9768
     1392     9769
     1393     9770        %BOX (TITLE="Global SEARCH and XLATE tables");

              9782    1   /***************************************************************************
              9784    1    *                                                                         *
              9788    1            *                       Global SEARCH and XLATE tables                   *
              9790    1            *                                                                        *
              9792    1          ***************************************************************************/

     1394     9796
     1395     9797        /* Find any reserved special characters */
     1396     9798    1   DCL 1 VD_SEARCH_RESERVED_SPECIALS ALIGNED CONSTANT SYMDEF,
     1397     9799    1         2 * (0:511) UBIN BYTE CALIGNED
     1398     9800    1             INIT (0*%ASCBIN(''''), 1, 1, 1,           /* '  (  ) */
     1399     9801    1                   0*%(ASCBIN(',')-ASCBIN(')')-1), 1,  /* , */
     1400     9802    1                   0*%(ASCBIN('.')-ASCBIN(',')-1), 1,  /* . */
PL6.E3A0      #003=VDG$MINIT File=VDG$MAIN.:VDA5TSI                              FRI 07/04/97 11:19 Page:186
     1401     9803    1                   0*%(ASCBIN(';')-ASCBIN('.')-1), 1,  /* ; */
     1402     9804    1                   0*%(ASCBIN('?')-ASCBIN(';')-1), 1,  /* ? */
     1403     9805    1                   0*0);
     1404     9806
     1405     9807
     1406     9808        /*
     1407     9809        *   Translate characters into their "class" codes.
     1408     9810        *   Non-displayable chars (those < '040'O and those > '200'O) are
     1409     9811        *       mapped into %CCL_WHSP (white space) -- characters to be
     1410     9812        *       skipped and ignored.
     1411     9813        *   Six characters could be coded as either %CCL_SPEC or %CCL_NAME.
     1412     9814        *       They look like "special characters" to English-speakers, but
     1413     9815        *       certain European versions of ASCII use these character codes
     1414     9816        *       for their non-English alphabetics (oomlated characters and such).
     1415     9817        *       These characters are:
     1416     9818        *           Octal codes             Graphics
     1417     9819        *            133,134,135             [ \ ]
     1418     9820        *            173,174,175             { | }
     1419     9821        *       By making them %CCL_SPEC, their use in synonyms is limited
     1420     9822        *       to all-special-character synonym names.
     1421     9823        *       If they were made (or patched) %CCL_NAME, they could be used
     1422     9824        *       in name-type synonyms, just like A, B, C, ...
     1423     9825        *   The reserved special characters are:
     1424     9826        *       ' ( ) , . ; ?
     1425     9827        */
     1426     9828
     1427     9829    1   DCL 1 VD_XLATE_CHAR_CLASS ALIGNED CONSTANT SYMDEF,
     1428     9830    1         2 * (0:511) UBIN BYTE CALIGNED INIT(
     1429     9831    1       %CCL_WHSP, %CCL_WHSP, %CCL_WHSP, %CCL_WHSP,     /* 000 - 003 */
     1430     9832    1       %CCL_WHSP, %CCL_WHSP, %CCL_WHSP, %CCL_WHSP,     /* 004 - 007 */
     1431     9833    1       %CCL_WHSP, %CCL_WHSP, %CCL_WHSP, %CCL_WHSP,     /* 010 - 013 */
     1432     9834    1       %CCL_WHSP, %CCL_WHSP, %CCL_WHSP, %CCL_WHSP,     /* 014 - 017 */
     1433     9835    1       %CCL_WHSP, %CCL_WHSP, %CCL_WHSP, %CCL_WHSP,     /* 020 - 023 */
     1434     9836    1       %CCL_WHSP, %CCL_WHSP, %CCL_WHSP, %CCL_WHSP,     /* 024 - 027 */
     1435     9837    1       %CCL_WHSP, %CCL_WHSP, %CCL_WHSP, %CCL_WHSP,     /* 030 - 033 */
     1436     9838    1       %CCL_WHSP, %CCL_WHSP, %CCL_WHSP, %CCL_WHSP,     /* 034 - 037 */
     1437     9839    1       %CCL_WHSP, %CCL_SPEC, %CCL_SPEC, %CCL_NAME,     /* 040 - 043 */
PL6.E3A0      #003=VDG$MINIT File=VDG$MAIN.:VDA5TSI                              FRI 07/04/97 11:19 Page:187
     1438     9840    1       %CCL_NAME, %CCL_SPEC, %CCL_SPEC, %CCL_RES,      /* 044 - 047 */
     1439     9841    1       %CCL_RES, %CCL_RES, %CCL_SPEC, %CCL_SPEC,       /* 050 - 053 */
     1440     9842    1       %CCL_RES, %CCL_SPEC, %CCL_DOT, %CCL_SPEC,       /* 054 - 057 */
     1441     9843    1       %CCL_NUM, %CCL_NUM, %CCL_NUM, %CCL_NUM,         /* 060 - 063 */
     1442     9844    1       %CCL_NUM, %CCL_NUM, %CCL_NUM, %CCL_NUM,         /* 064 - 067 */
     1443     9845    1       %CCL_NUM, %CCL_NUM, %CCL_SPEC, %CCL_RES,        /* 070 - 073 */
     1444     9846    1       %CCL_SPEC, %CCL_SPEC, %CCL_SPEC, %CCL_RES,      /* 074 - 077 */
     1445     9847    1       %CCL_NAME, %CCL_NAME, %CCL_NAME, %CCL_NAME,     /* 100 - 103 */
     1446     9848    1       %CCL_NAME, %CCL_NAME, %CCL_NAME, %CCL_NAME,     /* 104 - 107 */
     1447     9849    1       %CCL_NAME, %CCL_NAME, %CCL_NAME, %CCL_NAME,     /* 110 - 113 */
     1448     9850    1       %CCL_NAME, %CCL_NAME, %CCL_NAME, %CCL_NAME,     /* 114 - 117 */
     1449     9851    1       %CCL_NAME, %CCL_NAME, %CCL_NAME, %CCL_NAME,     /* 120 - 123 */
     1450     9852    1       %CCL_NAME, %CCL_NAME, %CCL_NAME, %CCL_NAME,     /* 124 - 127 */
     1451     9853    1       %CCL_NAME, %CCL_NAME, %CCL_NAME, %CCL_SPEC,     /* 130 - 133 */
     1452     9854    1       %CCL_SPEC, %CCL_SPEC, %CCL_SPEC, %CCL_NAME,     /* 134 - 137 */
     1453     9855    1       %CCL_SPEC, %CCL_NAME, %CCL_NAME, %CCL_NAME,     /* 140 - 143 */
     1454     9856    1       %CCL_NAME, %CCL_NAME, %CCL_NAME, %CCL_NAME,     /* 144 - 147 */
     1455     9857    1       %CCL_NAME, %CCL_NAME, %CCL_NAME, %CCL_NAME,     /* 150 - 153 */
     1456     9858    1       %CCL_NAME, %CCL_NAME, %CCL_NAME, %CCL_NAME,     /* 154 - 157 */
     1457     9859    1       %CCL_NAME, %CCL_NAME, %CCL_NAME, %CCL_NAME,     /* 160 - 163 */
     1458     9860    1       %CCL_NAME, %CCL_NAME, %CCL_NAME, %CCL_NAME,     /* 164 - 167 */
     1459     9861    1       %CCL_NAME, %CCL_NAME, %CCL_NAME, %CCL_SPEC,     /* 170 - 173 */
     1460     9862    1       %CCL_SPEC, %CCL_SPEC, %CCL_SPEC, %CCL_WHSP,     /* 174 - 177 */
     1461     9863    1       %CCL_WHSP*0);                                   /* 200 - 777 */
     1462     9864
     1463     9865
     1464     9866        %BOX (TITLE="Object class descriptions");

              9878    1   /***************************************************************************
              9880    1    *                                                                         *
              9884    1            *                         Object class descriptions                      *
              9886    1            *                                                                        *
              9888    1          ***************************************************************************/

     1465     9892
     1466     9893        /*  Based macros to define lengths of objects */
     1467     9894
PL6.E3A0      #003=VDG$MINIT File=VDG$MAIN.:VDA5TSI                              FRI 07/04/97 11:19 Page:188
     1468     9895        %VD$FILE_KEY;
     1469     9944        %VD$NAME_SPEC;
     1470     9992        %VD$WINDOW_SPEC;
     1471    10058        %VD$WINDOW_BLOCK;
     1472    10095        %VD$TABS;
     1473    10132        %VD$STRUCTURE_SPEC;
     1474    10169        %VD$STRUCTURE_LEVEL;
     1475    10216        %VD$ERR (LAST=NO);
     1476    10269          %VD$NUMBER (DIM="(0:2)", LEV=2, LAST=YES);
     1477    10314        %VD$BUFFER;
     1478    10372        %VD$BUFFER_HEADER;
     1479    10408        %VD$STRING_HEADER;
     1480    10444        %VD$NUMBER;
     1481    10489        %VD$POINTER;
     1482    10534        %VD$IT_BLOCK_EXPR;
     1483    10684        %VD$IT_SELECT;
     1484    10721        %VD$IT_ADJUST;
     1485    10758        %VD$IT_OPERAND;
     1486    10824        %VD$IT_OPERATOR;
     1487    10861        %VD$IT_COMMAND;
     1488    10899        %VD$ENCODED_NODE;
     1489    11020        %VD$DIR_NODE;
     1490    11058        %VD$FILE_NODE;
     1491    11151        %VD$BLOCK_DESC;
     1492    11298        %VD$CMD_STREAM;
     1493    11337        %VD$EVAL_PATTERN;
     1494    11444        %VD$EVAL;
     1495    11689        %VD$STREAM;
     1496    11795        %VD$PORT;
     1497    11893        %VD$FIT;
     1498    11929        %VD$BUFFER_HEADER (NAME=VD$BLOCK_BUFFER, LAST=NO);
     1499    11965          %VD$BLOCK_DESC (LEV=2, LAST=YES);
     1500    12112
     1501    12113
     1502    12114        %EQU T=TRUE;    /* Shorthand */
     1503    12115        %EQU F=FALSE;
     1504    12116
PL6.E3A0      #003=VDG$MINIT File=VDG$MAIN.:VDA5TSI                              FRI 07/04/97 11:19 Page:189
     1505    12117
     1506    12118        %VD_OBJECTS (NAME=VD_OBJECTS, STCLASS="CONSTANT SYMDEF",
     1507    12119            DIM="(0:%(CLS_MX-1))",
     1508    12120         ISIZE1="LENGTHW(VD$BLOCK_BUFFER)", IBUF1=%T,       /* CLS_BLOCK_BUFFER */
     1509    12121         ISIZE2="LENGTHW(VD$BLOCK_DESC)",
     1510    12122         ISIZE3="LENGTHW(VD$NUMBER)", IBUF3=%T, IBUFN3=%T,  /* CLS_BOOLEAN */
     1511    12123                 IFMT3=VD_DW_BOOLEAN,
     1512    12124         ISIZE4=0, IBUF4=%T,                                /* VD$BUFFER is var-len */
     1513    12125         ISIZE5="LENGTHW(VD$CMD_STREAM)",
     1514    12126         ISIZE6="LENGTHW(VD$NUMBER)", IBUF6=%T, IBUFN6=%T,  /* CLS_COMPONENT */
     1515    12127                 IFMT6=VD_DW_COMPONENT,
     1516    12128         ISIZE7="LENGTHW(VD$NUMBER)", IBUF7=%T, IBUFN7=%T,  /* CLS_DIRECTION */
     1517    12129                 IFMT7=VD_DW_DIRECTION,
     1518    12130         ISIZE8="LENGTHW(VD$DIR_NODE)",
     1519    12131         ISIZE9="LENGTHW(VD$ENCODED_NODE)", IBUF9=%T,
     1520    12132         ISIZE10="LENGTHW(VD$ERR)",
     1521    12133         ISIZE11="LENGTHW(VD$EVAL)",
     1522    12134         ISIZE12="LENGTHW(VD$EVAL_PATTERN)",
     1523    12135         ISIZE13="LENGTHW(VD$NUMBER)", IBUF13=%T, IBUFN13=%T,   /* CLS_EXIST */
     1524    12136                 IFMT13=VD_DW_EXIST,
     1525    12137         /*
     1526    12138         * VD$FILE_KEY is a "string object" technically, but only so
     1527    12139         *   it's first chars (.UNIQUE) can be compared as a TEXTC string.
     1528    12140         *   VD$FILE_KEY also contains info beyond the length specified
     1529    12141         *   by it's .LENGTH#, so it should be treated as a fixed-length
     1530    12142         *   object when copying.  Therefore, ISTRn=%FALSE.
     1531    12143         */
     1532    12144         ISIZE14="LENGTHW(VD$FILE_KEY)",
     1533    12145         ISIZE15="LENGTHW(VD$FILE_NODE)",
     1534    12146         ISIZE16="LENGTHW(VD$NUMBER)", IBUF16=%T, IBUFN16=%T,   /* CLS_FILE_STCLASS */
     1535    12147         ISIZE17="LENGTHW(VD$FIT)",
     1536    12148         ISIZE18="LENGTHW(VD$IT_ADJUST)", IINT18=%T,
     1537    12149         ISIZE19="LENGTHW(VD$IT_BLOCK_EXPR)", IINT19=%T,
     1538    12150         ISIZE20="LENGTHW(VD$IT_COMMAND)", IINT20=%T,
     1539    12151         ISIZE21="LENGTHW(VD$IT_OPERAND)", IINT21=%T,
     1540    12152         ISIZE22="LENGTHW(VD$IT_OPERATOR)", IINT22=%T,
     1541    12153         ISIZE23="LENGTHW(VD$IT_SELECT)", IINT23=%T,
PL6.E3A0      #003=VDG$MINIT File=VDG$MAIN.:VDA5TSI                              FRI 07/04/97 11:19 Page:190
     1542    12154         ISIZE24="LENGTHW(VD$NUMBER)", IBUF24=%T, IBUFN24=%T,   /* CLS_KEY_TYPE */
     1543    12155                 IFMT24=VD_DW_KEY_TYPE,
     1544    12156         ISIZE25="LENGTHW(VD$NUMBER)", IBUF25=%T, IBUFN25=%T,   /* CLS_NAME_DATA_TYPE */
     1545    12157                 IFMT25=VD_DW_NAME_DATA_TYPE,
     1546    12158         ISIZE26="LENGTHW(VD$NAME_SPEC)", ISTR26=%T,
     1547    12159         ISIZE27="LENGTHW(VD$NUMBER)", IBUF27=%T, IBUFN27=%T,
     1548    12160         ISIZE28="LENGTHW(VD$NUMBER)", IBUF28=%T, IBUFN28=%T,   /* CLS_ORG */
     1549    12161                 IFMT28=VD_DW_ORG,
     1550    12162         ISIZE29=0, IARR29=%T,                              /* VD$PATTERN is var-len */
     1551    12163         ISIZE30="LENGTHW(VD$NUMBER)", IBUF30=%T, IBUFN30=%T,   /* CLS_POINT */
     1552    12164                 IFMT30=VD_DW_POINT,
     1553    12165         ISIZE31="LENGTHW(VD$PORT)",
     1554    12166         ISIZE32="LENGTHW(VD$POINTER)", IBUF32=%T, IBUFP32=%T,  /* CLS_PTR_BLOCK_DESC */
     1555    12167         ISIZE33="LENGTHW(VD$POINTER)", IBUF33=%T, IBUFP33=%T,  /* CLS_PTR_FILE_NODE */
     1556    12168         ISIZE34="LENGTHW(VD$POINTER)", IBUF34=%T, IBUFP34=%T,  /* CLS_PTR_INTREE */
     1557    12169         ISIZE35="LENGTHW(VD$POINTER)", IBUF35=%T, IBUFP35=%T,  /* CLS_PTR_KEY */
     1558    12170         ISIZE36="LENGTHW(VD$POINTER)", IBUF36=%T, IBUFP36=%T,  /* CLS_PTR_LOCATION */
     1559    12171         ISIZE37="LENGTHW(VD$POINTER)", IBUF37=%T, IBUFP37=%T,  /* CLS_PTR_TEXTC */
     1560    12172         ISIZE38=0, IARR38=%T,                      /* VD$RECORD_SET is var-len */
     1561    12173         ISIZE39="LENGTHW(VD$STREAM)",
     1562    12174         ISIZE40="LENGTHW(VD$STRUCTURE_LEVEL)", ISTR40=%T,
     1563    12175         ISIZE41="LENGTHW(VD$STRUCTURE_SPEC)", ISTR41=%T,
     1564    12176         ISIZE42="LENGTHW(VD$TABS)", IARR42=%T,
     1565    12177         ISIZE43=0, ISTR43=%T,                      /* VD$TEXTC_REMOTE is var-len */
     1566    12178         ISIZE44="LENGTHW(VD$WINDOW_BLOCK)", ISTR44=%T,
     1567    12179         ISIZE45="LENGTHW(VD$WINDOW_SPEC)", ISTR45=%T,
     1568    12180         ISIZE46=0, IARR46=%T,                      /* VD$XLATE_LOCATIONS is var-len */
     1569    12181         ISIZE47="LENGTHW(VD$NUMBER)", IBUF47=%T, IBUFN47=%T,   /* CLS_PROTECT */
     1570    12182                 IFMT47=VD_DW_PROTECT,
     1571    12183         ISIZE55=-1);
     1572    12223
     1573    12224
     1574    12225        %BOX (TITLE="Pre-initialized VD$FILE_KEYs, VD$LOCATIONs, and VD$KEYs");

             12237    1   /***************************************************************************
             12239    1    *                                                                         *
             12243    1            *          Pre-initialized VD$FILE_KEYs, VD$LOCATIONs, and VD$KEYs       *
PL6.E3A0      #003=VDG$MINIT File=VDG$MAIN.:VDA5TSI                              FRI 07/04/97 11:19 Page:191
             12245    1            *                                                                        *
             12247    1          ***************************************************************************/

     1575    12251
     1576    12252        /*
     1577    12253        *   Certain predefined files and names have VD$FILE_KEYs, VD$LOCATIONs,
     1578    12254        *       or VD$KEYs pre-initialized and ready to pass to the Accessor
     1579    12255        *       as the ABSOLUTE parameter on VDA$FOPEN, VDA$LREAD, and VDA$LWRITE
     1580    12256        *       calls.
     1581    12257        */
     1582    12258
     1583    12259        %VD_KEY (NAME=VD_KEY_SCRATCH_LEFTOVER, STCLASS="CONSTANT SYMDEF",
     1584    12260            ITYPE=%KT_STRING, IREP=%REP_REMOTE,
     1585    12261            IBYTES=VD_FKEY_SCRATCH_LEFTOVER);
     1586    12297        %VD_FILE_KEY (NAME=VD_FKEY_SCRATCH_LEFTOVER, STCLASS="CONSTANT SYMDEF",
     1587    12298           IFNAME="%CONCAT(FSTCL_INTERNAL, PFK_CONSTANT, DK_SCRATCH, CHR_UNDERSCORE, PFN_SC
             12298        RATCH_LEFTOVER)");
     1588    12350
     1589    12351        %VD_KEY (NAME=VD_KEY_SCRATCH_SOURCE, STCLASS="CONSTANT SYMDEF",
     1590    12352            ITYPE=%KT_STRING, IREP=%REP_REMOTE, IBYTES=VD_FKEY_SCRATCH_SOURCE);
     1591    12388        %VD_FILE_KEY (NAME=VD_FKEY_SCRATCH_SOURCE, STCLASS="CONSTANT SYMDEF",
     1592    12389           IFNAME="%CONCAT(FSTCL_INTERNAL, PFK_CONSTANT, DK_SCRATCH, CHR_UNDERSCORE, PFN_SC
             12389        RATCH_SOURCE)");
     1593    12441
     1594    12442
     1595    12443        %VD_LOCATION (NAME=VD_LOC_$LEFTOVER, STCLASS="CONSTANT SYMDEF", INITS=1,
     1596    12444            ITYPE1=%KT_STRING, IREP1=%REP_REMOTE, IBYTES1=STR_$LEFTOVER);
     1597    12519        %VD_TEXTC_REMOTE (NAME=STR_$LEFTOVER, STCLASS=CONSTANT,
     1598    12520            IBYTES='$LEFTOVER');
     1599    12583
     1600    12584        %VD_LOCATION (NAME=VD_LOC_$MATCHES, STCLASS="CONSTANT SYMDEF", INITS=1,
     1601    12585            ITYPE1=%KT_STRING, IREP1=%REP_REMOTE, IBYTES1=STR_$MATCHES);
     1602    12660        %VD_TEXTC_REMOTE (NAME=STR_$MATCHES, STCLASS=CONSTANT, IBYTES='$MATCHES');
     1603    12723
     1604    12724        %VD_LOCATION (NAME=VD_LOC_$NOT_COPIED, STCLASS="CONSTANT SYMDEF", INITS=1,
     1605    12725            ITYPE1=%KT_STRING, IREP1=%REP_REMOTE, IBYTES1=STR_$NOT_COPIED);
     1606    12800        %VD_TEXTC_REMOTE (NAME=STR_$NOT_COPIED, STCLASS=CONSTANT,
PL6.E3A0      #003=VDG$MINIT File=VDG$MAIN.:VDA5TSI                              FRI 07/04/97 11:19 Page:192
     1607    12801            IBYTES='$NOT_COPIED');
     1608    12864
     1609    12865        %VD_LOCATION (NAME=VD_LOC_$RECORDS_DELETED, STCLASS="CONSTANT SYMDEF",
     1610    12866            INITS=1,
     1611    12867            ITYPE1=%KT_STRING, IREP1=%REP_REMOTE, IBYTES1=STR_$RECORDS_DELETED);
     1612    12942        %VD_TEXTC_REMOTE (NAME=STR_$RECORDS_DELETED, STCLASS=CONSTANT,
     1613    12943            IBYTES='$RECORDS_DELETED');
     1614    13006
     1615    13007        %VD_LOCATION (NAME=VD_LOC_$RECORDS_INSERTED, STCLASS="CONSTANT SYMDEF",
     1616    13008            INITS=1,
     1617    13009            ITYPE1=%KT_STRING, IREP1=%REP_REMOTE, IBYTES1=STR_$RECORDS_INSERTED);
     1618    13084        %VD_TEXTC_REMOTE (NAME=STR_$RECORDS_INSERTED, STCLASS=CONSTANT,
     1619    13085            IBYTES='$RECORDS_INSERTED');
     1620    13148
     1621    13149        %VD_LOCATION (NAME=VD_LOC_$SCREEN, STCLASS="CONSTANT SYMDEF", INITS=1,
     1622    13150            ITYPE1=%KT_STRING, IREP1=%REP_REMOTE, IBYTES1=STR_$SCREEN);
     1623    13225        %VD_TEXTC_REMOTE (NAME=STR_$SCREEN, STCLASS=CONSTANT, IBYTES='$SCREEN');
     1624    13288
     1625    13289        %VD_LOCATION (NAME=VD_LOC_$SITES, STCLASS="CONSTANT SYMDEF", INITS=1,
     1626    13290            ITYPE1=%KT_STRING, IREP1=%REP_REMOTE, IBYTES1=STR_$SITES);
     1627    13365        %VD_TEXTC_REMOTE (NAME=STR_$SITES, STCLASS=CONSTANT, IBYTES='$SITES');
     1628    13428
     1629    13429
     1630    13430
     1631    13431        /*
     1632    13432        *   BOF is represented differently for string vs. numeric keys.
     1633    13433        */
     1634    13434
     1635    13435        %VD_KEY (NAME=VD_KEY_NUMERIC_BOF, STCLASS="CONSTANT SYMDEF",
     1636    13436            ITYPE=%KT_NUMBER, IREP=%REP_LOCAL, IBYTES=0);
     1637    13472        /*N* %VD_KEY (NAME=VD_KEY_STRING_BOF, STCLASS="CONSTANT SYMDEF", */
     1638    13473        /*N*     ITYPE=%KT_STRING, IREP=%REP_LOCAL, IBYTES="''"); */
     1639    13474
     1640    13475
     1641    13476        /*
     1642    13477        *   VD_KEY_FIRST_CONSEC_REC is different from the abstract "BOF" location,
     1643    13478        *       which is represented by VD_KEY_<num|str>_BOF for all file orgs.
PL6.E3A0      #003=VDG$MINIT File=VDG$MAIN.:VDA5TSI                              FRI 07/04/97 11:19 Page:193
     1644    13479        *       Below is the key of the actual first record in a consec/UR file.
     1645    13480        */
     1646    13481        %VD_KEY (NAME=VD_KEY_FIRST_CONSEC_REC, STCLASS="CONSTANT SYMDEF",
     1647    13482            ITYPE=%KT_NUMBER, IREP=%REP_LOCAL, IBYTES=%MN_CONSEC_KEY);
     1648    13518        %VD_KEY (NAME=VD_KEY_MN_EDITKEY, STCLASS=CONSTANT SYMDEF,
     1649    13519            ITYPE=%KT_EDITKEY, IREP=%REP_LOCAL, IBYTES=%MN_EDITKEY);
     1650    13555        %VD_KEY (NAME=VD_KEY_MX_EDITKEY, STCLASS=CONSTANT SYMDEF,
     1651    13556            ITYPE=%KT_EDITKEY, IREP=%REP_LOCAL, IBYTES=%MX_EDITKEY);
     1652    13592
     1653    13593
     1654    13594        %BOX (TITLE="Tables of predefined-file-node readers and writers");

             13606    1   /***************************************************************************
             13608    1    *                                                                         *
             13612    1            *             Tables of predefined-file-node readers and writers         *
             13614    1            *                                                                        *
             13616    1          ***************************************************************************/

     1655    13620
     1656    13621        /*
     1657    13622        *   The nodes of predefined files contain formatted info (PL-6
     1658    13623        *       structures); a routine is used to read and write
     1659    13624        *       the Spec and/or Data components of these nodes for the user.
     1660    13625        *       This is used to perform side-effects, such as creating
     1661    13626        *       or destroying windows, mapping the internal form of a value
     1662    13627        *       into a display- or entry-oriented character form, etc.
     1663    13628        *   The index into the VD_NODE_xx$$ tables is the Spec type (%SPT_
     1664    13629        *       value) for the node being read or written.
     1665    13630        */
     1666    13631
     1667    13632    1   DCL VD_NODE_READERS$$ (0:%(MX_SPEC_TYPES-1)) EPTR CONSTANT SYMDEF
     1668    13633    1       INIT(ENTADDR(NIL),                  /* 0 */
     1669    13634    1           ENTADDR(NIL),                   /* Records from external files */
     1670    13635    1           ENTADDR(NIL),                   /* History file, level 1 */
     1671    13636    1           ENTADDR(VDA$RNAMES),            /* Names files, level 1 */
     1672    13637    1           ENTADDR(NIL),                   /* Structures file, level 1 */
     1673    13638    1           ENTADDR(NIL),                   /* Structures file, level 2 */
PL6.E3A0      #003=VDG$MINIT File=VDG$MAIN.:VDA5TSI                              FRI 07/04/97 11:19 Page:194
     1674    13639    1           ENTADDR(NIL),                   /* Windows file, level 1 */
     1675    13640    1           ENTADDR(NIL),                   /* Windows file, level 2 */
     1676    13641    1           ENTADDR(NIL)*0);
     1677    13642
     1678    13643
     1679    13644    1   DCL VD_NODE_WRITERS$$ (0:%(MX_SPEC_TYPES-1)) EPTR CONSTANT SYMDEF
     1680    13645    1       INIT(ENTADDR(NIL),                  /* 0 */
     1681    13646    1           ENTADDR(NIL),                   /* Records from external files */
     1682    13647    1           ENTADDR(NIL),                   /* History file, level 1 */
     1683    13648    1           ENTADDR(VDA$WNAMES),            /* Names files, level 1 */
     1684    13649    1           ENTADDR(NIL),                   /* Structures file, level 1 */
     1685    13650    1           ENTADDR(NIL),                   /* Structures file, level 2 */
     1686    13651    1           ENTADDR(VDA$WWINDOWS),          /* Windows file, level 1 */
     1687    13652    1           ENTADDR(NIL),                   /* Windows file, level 2 */
     1688    13653    1           ENTADDR(NIL)*0);
     1689    13654
     1690    13655
     1691    13656        %BOX (TITLE="Initialization procedure", PAGE=YES);
             13664    1
             13668    1   /***************************************************************************
             13670    1    *                                                                         *
             13674    1            *                          Initialization procedure                      *
             13676    1            *                                                                        *
             13678    1          ***************************************************************************/

     1692    13682
     1693    13683    1   DCL B$TCB$ PTR SYMREF;
     1694    13684
     1695    13685
     1696    13686        %FPT_TIME (DEST=UTS, SOURCE=CLOCK, TSTAMP=VD_UTS_START, STCLASS=STATIC);
     1697    13705        /*
     1698    13706        *   FATAL_ERR is the static VD$ERR which is always at the head of
     1699    13707        *       the VD$ERR chain.  Tho all other VD$ERRs are "objects",
     1700    13708        *       and so are dynamically allocated, FATAL_ERR is statically
     1701    13709        *       allocated so we have some way to report errors during
     1702    13710        *       allocation!!
     1703    13711        */
PL6.E3A0      #003=VDG$MINIT File=VDG$MAIN.:VDA5TSI                              FRI 07/04/97 11:19 Page:195
     1704    13712    1   DCL 1 FATAL_ERR STATIC,
     1705    13713           %VD$ERR (NAME=VD_ERR, STCLASS=STATIC, LEV=2, LAST=NO);
     1706    13766           %VD$NUMBER (NAME="*", DIM="(0:2)", STCLASS=STATIC, LEV=2, LAST=YES);
     1707    13811
     1708    13812        %VD_TEXTC (NAME=ERRMSG_FID, STCLASS=STATIC, MXNB=31);
     1709    13953
     1710    13954
     1711    13955    1   DCL STREAM$ PTR;
     1712    13956    1   DCL INTERNAL_DIR_TAIL$ PTR;
     1713    13957    1   DCL I UBIN;
     1714    13958
     1715    13959
     1716    13960        %VD$STREAM (NAME=STREAM, STCLASS="BASED(STREAM$)");
     1717    14066        %VD$KEY_NUMBER (NAME=KEY$NUMBER, STCLASS=BASED);
     1718    14081        %B$TCB (NAME=B$TCB, STCLASS="BASED(B$TCB$)");
     1719    14084        %B$ALT;
     1720    14092        %F$DCB;
     1721    14149
     1722    14150
     1723    14151
     1724    14152                /*  Initialize the static symdefs */
     1725    14153
     1726    14154    1           VD_6E = %CLEAR;

  14154  8 000002   000000 100400                    MLR     fill='000'O
         8 000003   000002 000001 xsym               ADSC9   B_VECTNIL+2              cn=0,n=1
         8 000004   000000 004724 6                  ADSC9   VD_6E                    cn=0,n=2516

     1727    14155    1           VD_6E.HISTORY$ = ADDR(NIL);

  14155  8 000005   000001 236000 xsym               LDQ     B_VECTNIL+1
         8 000006   000000 756000 6                  STQ     VD_6E

     1728    14156    1           VD_6E.EQUALS$ = ADDR(NIL);

  14156  8 000007   000001 756000 6                  STQ     VD_6E+1

PL6.E3A0      #003=VDG$MINIT File=VDG$MAIN.:VDA5TSI                              FRI 07/04/97 11:19 Page:196
     1729    14157    1           VD_6E.LOCATIONS$ = ADDR(NIL);

  14157  8 000010   000002 756000 6                  STQ     VD_6E+2

     1730    14158    1           VD_6E.SYNONYMS$ = ADDR(NIL);

  14158  8 000011   000003 756000 6                  STQ     VD_6E+3

     1731    14159    1           VD_6E.KEYINS$ = ADDR(NIL);

  14159  8 000012   000004 756000 6                  STQ     VD_6E+4

     1732    14160    1           VD_6E.STRUCTURES$ = ADDR(NIL);

  14160  8 000013   000005 756000 6                  STQ     VD_6E+5

     1733    14161    1           VD_6E.STRUCTURE_EXTERNAL$ = ADDR(NIL);

  14161  8 000014   000010 756000 6                  STQ     VD_6E+8

     1734    14162    1           VD_6E.WINDOWS$ = ADDR(NIL);

  14162  8 000015   000006 756000 6                  STQ     VD_6E+6

     1735    14163    1           VD_6E.WS.INTERNAL_DIR$ = ADDR(NIL);

  14163  8 000016   000017 756000 6                  STQ     VD_6E+15

     1736    14164    1           VD_6E.SOURCE.OPERAND.STREAM$ = ADDR(NIL);

  14164  8 000017   000020 756000 6                  STQ     VD_6E+16

     1737    14165    1           VD_6E.SOURCE.OPERAND.EDIT_BLOCK$ = ADDR(NIL);

  14165  8 000020   000022 756000 6                  STQ     VD_6E+18

     1738    14166    1           VD_6E.SOURCE.OPERAND.EVAL$ = ADDR(NIL);
PL6.E3A0      #003=VDG$MINIT File=VDG$MAIN.:VDA5TSI                              FRI 07/04/97 11:19 Page:197

  14166  8 000021   000023 756000 6                  STQ     VD_6E+19

     1739    14167    1           VD_6E.SOURCE.OPERAND.INTREE$ = ADDR(NIL);

  14167  8 000022   000021 756000 6                  STQ     VD_6E+17

     1740    14168    1           VD_6E.CMD_STREAM$ = ADDR(NIL);

  14168  8 000023   000026 756000 6                  STQ     VD_6E+22

     1741    14169    1           VD_6E.INTERRUPT.STATE# = %INST_PROCESSING;

  14169  8 000024   000001 220003                    LDX0    1,DU
         8 000025   000027 740000 6                  STX0    VD_6E+23

     1742    14170    1           VD_6E.INTERRUPT.CMD_LINE$ = ADDR(NIL);

  14170  8 000026   000030 756000 6                  STQ     VD_6E+24

     1743    14171    1           VD_6E.ERR_HEAD$ = ADDR(FATAL_ERR);

  14171  8 000027   000000 236000 9                  LDQ     0
         8 000030   000031 756000 6                  STQ     VD_6E+25

     1744    14172    1           VD_6E.ERR_TAIL$ = ADDR(FATAL_ERR);

  14172  8 000031   000032 756000 6                  STQ     VD_6E+26

     1745    14173    1           VD_6E.PORT_HEAD$ = ADDR(NIL);

  14173  8 000032   000001 236000 xsym               LDQ     B_VECTNIL+1
         8 000033   000033 756000 6                  STQ     VD_6E+27

     1746    14174    1           VD_6E.PORT_TAIL$ = ADDR(NIL);

  14174  8 000034   000034 756000 6                  STQ     VD_6E+28
PL6.E3A0      #003=VDG$MINIT File=VDG$MAIN.:VDA5TSI                              FRI 07/04/97 11:19 Page:198

     1747    14175    1           VD_6E.WILD_STRINGS$ = ADDR(NIL);

  14175  8 000035   000025 756000 6                  STQ     VD_6E+21

     1748    14176
     1749    14177    1           FATAL_ERR = %CLEAR;

  14177  8 000036   000000 100400                    MLR     fill='000'O
         8 000037   000002 000001 xsym               ADSC9   B_VECTNIL+2              cn=0,n=1
         8 000040   001656 000104 6                  ADSC9   FATAL_ERR                cn=0,n=68

     1750    14178    1           FATAL_ERR.VD_ERR.FLINK$ = ADDR(NIL);

  14178  8 000041   001657 756000 6                  STQ     FATAL_ERR+1

     1751    14179
     1752    14180    1           VD_CURRENT_WINDOW$ = ADDR(NIL);

  14180  8 000042   001226 756000 6                  STQ     VD_CURRENT_WINDOW$

     1753    14181    1           VD_COMMAND_WINDOW$ = ADDR(NIL);

  14181  8 000043   001227 756000 6                  STQ     VD_COMMAND_WINDOW$

     1754    14182
     1755    14183    1           VD_ACCESSOR_PRIV = %CLEAR;

  14183  8 000044   001230 450000 6                  STZ     VD_ACCESSOR_PRIV

     1756    14184
     1757    14185    1           VD_DCBS = %CLEAR;

  14185  8 000045   001165 450000 6                  STZ     VD_DCBS
         8 000046   001166 450000 6                  STZ     VD_DCBS+1

     1758    14186
PL6.E3A0      #003=VDG$MINIT File=VDG$MAIN.:VDA5TSI                              FRI 07/04/97 11:19 Page:199
     1759    14187    2           DO I = 0 TO %(MX_CMD_OBJECTS-1);

  14187  8 000047   200005 450100                    STZ     I,,AUTO

     1760    14188    2              VD_CMD_OBJECTS$ (I) = ADDR(NIL);

  14188  8 000050   000001 236000 xsym               LDQ     B_VECTNIL+1
         8 000051   200005 720100                    LXL0    I,,AUTO
         8 000052   001231 756010 6                  STQ     VD_CMD_OBJECTS$,X0

     1761    14189    2              END;

  14189  8 000053   200005 235100                    LDA     I,,AUTO
         8 000054   000001 035007                    ADLA    1,DL
         8 000055   200005 755100                    STA     I,,AUTO
         8 000056   000062 115007                    CMPA    50,DL
         8 000057   000050 602000 8                  TNC     s:14188

     1762    14190
     1763    14191    1           VD_LAST_LOADED_FILE_SPEC = %CLEAR;

  14191  8 000060   000000 100400                    MLR     fill='000'O
         8 000061   000002 000001 xsym               ADSC9   B_VECTNIL+2              cn=0,n=1
         8 000062   001313 000040 6                  ADSC9   VD_LAST_LOADED_FILE_SPEC cn=0,n=32

     1764    14192
     1765    14193    1           VD_EXIT.CODE_ = VECTOR(FATAL_ERR.VD_ERR.ERR);

  14193  8 000063   000002 237000 9                  LDAQ    2
         8 000064   001636 757000 6                  STAQ    VD_EXIT+2

     1766    14194    1           VD_EXIT.V.STEPCC# = %STEPCC_OK;

  14194  8 000065   000000 236003                    LDQ     0,DU
         8 000066   001640 552040 6                  STBQ    VD_EXIT+4,'40'O

     1767    14195
PL6.E3A0      #003=VDG$MINIT File=VDG$MAIN.:VDA5TSI                              FRI 07/04/97 11:19 Page:200
     1768    14196    1           CALL M$TIME (FPT_TIME);

  14196  8 000067   001642 630400 6                  EPPR0   FPT_TIME
         8 000070   020004 713400                    CLIMB   8196
         8 000071   402000 401760                    pmme    nvectors=5

     1769    14197
     1770    14198
     1771    14199    1           CALL INIT_MCB (VD_MCB_SMALL) ALTRET (INIT_MCB_FAILED);

  14199  8 000072   000004 236000 9                  LDQ     4
         8 000073   200007 756100                    STQ     I+2,,AUTO
         8 000074   000261 701000 8                  TSX1    INIT_MCB
         8 000075   000256 702000 8                  TSX2    INIT_MCB_FAILED

     1772    14200    1           CALL INIT_MCB (VD_MCB_LARGE) ALTRET (INIT_MCB_FAILED);

  14200  8 000076   000005 236000 9                  LDQ     5
         8 000077   200007 756100                    STQ     I+2,,AUTO
         8 000100   000261 701000 8                  TSX1    INIT_MCB
         8 000101   000256 702000 8                  TSX2    INIT_MCB_FAILED

     1773    14201
     1774    14202
     1775    14203                /*
     1776    14204                *   Can now allocate dynamic storage.
     1777    14205                */
     1778    14206
     1779    14207    1           INTERNAL_DIR_TAIL$ = ADDR(NIL);

  14207  8 000102   000001 236000 xsym               LDQ     B_VECTNIL+1
         8 000103   200004 756100                    STQ     INTERNAL_DIR_TAIL$,,AUTO

     1780    14208    1           CALL BUILD_DIR_NODE (%LENGTHC(DK_HISTORY), %DK_HISTORY)

  14208  8 000104   000006 236000 9                  LDQ     6
         8 000105   200010 756100                    STQ     @DIR_KEY_LEN+1,,AUTO
PL6.E3A0      #003=VDG$MINIT File=VDG$MAIN.:VDA5TSI                              FRI 07/04/97 11:19 Page:201
         8 000106   000007 236000 9                  LDQ     7
         8 000107   200007 756100                    STQ     I+2,,AUTO
         8 000110   000314 701000 8                  TSX1    BUILD_DIR_NODE
         8 000111   000256 702000 8                  TSX2    INIT_MCB_FAILED

     1781    14209    1             ALTRET (BUILD_DIR_NODE_FAILED);
     1782    14210    1           CALL BUILD_DIR_NODE (%LENGTHC(DK_NAMES), %DK_NAMES)

  14210  8 000112   000010 236000 9                  LDQ     8
         8 000113   200010 756100                    STQ     @DIR_KEY_LEN+1,,AUTO
         8 000114   000011 236000 9                  LDQ     9
         8 000115   200007 756100                    STQ     I+2,,AUTO
         8 000116   000314 701000 8                  TSX1    BUILD_DIR_NODE
         8 000117   000256 702000 8                  TSX2    INIT_MCB_FAILED

     1783    14211    1             ALTRET (BUILD_DIR_NODE_FAILED);
     1784    14212    1           CALL BUILD_DIR_NODE (%LENGTHC(DK_SCRATCH), %DK_SCRATCH)

  14212  8 000120   000012 236000 9                  LDQ     10
         8 000121   200010 756100                    STQ     @DIR_KEY_LEN+1,,AUTO
         8 000122   000007 236000 9                  LDQ     7
         8 000123   200007 756100                    STQ     I+2,,AUTO
         8 000124   000314 701000 8                  TSX1    BUILD_DIR_NODE
         8 000125   000256 702000 8                  TSX2    INIT_MCB_FAILED

     1785    14213    1             ALTRET (BUILD_DIR_NODE_FAILED);
     1786    14214    1           CALL BUILD_DIR_NODE (%LENGTHC(DK_STRUCTURES), %DK_STRUCTURES)

  14214  8 000126   000013 236000 9                  LDQ     11
         8 000127   200010 756100                    STQ     @DIR_KEY_LEN+1,,AUTO
         8 000130   000014 236000 9                  LDQ     12
         8 000131   200007 756100                    STQ     I+2,,AUTO
         8 000132   000314 701000 8                  TSX1    BUILD_DIR_NODE
         8 000133   000256 702000 8                  TSX2    INIT_MCB_FAILED

     1787    14215    1             ALTRET (BUILD_DIR_NODE_FAILED);
     1788    14216    1           CALL BUILD_DIR_NODE (%LENGTHC(DK_WINDOWS), %DK_WINDOWS)
PL6.E3A0      #003=VDG$MINIT File=VDG$MAIN.:VDA5TSI                              FRI 07/04/97 11:19 Page:202

  14216  8 000134   000015 236000 9                  LDQ     13
         8 000135   200010 756100                    STQ     @DIR_KEY_LEN+1,,AUTO
         8 000136   000007 236000 9                  LDQ     7
         8 000137   200007 756100                    STQ     I+2,,AUTO
         8 000140   000314 701000 8                  TSX1    BUILD_DIR_NODE
         8 000141   000256 702000 8                  TSX2    INIT_MCB_FAILED

     1789    14217    1             ALTRET (BUILD_DIR_NODE_FAILED);
     1790    14218
     1791    14219
     1792    14220    1           CALL VDG$OALLOC (%CLS_STREAM, VD_6E.SOURCE.OPERAND.STREAM$)

  14220  8 000142   000017 630400 9                  EPPR0   15
         8 000143   000020 631400 xsym               EPPR1   B_VECTNIL+16
         8 000144   000000 701000 xent               TSX1    VDG$OALLOC
         8 000145   000256 702000 8                  TSX2    INIT_MCB_FAILED

     1793    14221    1             ALTRET (OALLOC_FAILED);
     1794    14222    1           CALL VDG$OALLOC (%CLS_STREAM, VD_6E.EQUALS$)

  14222  8 000146   000021 630400 9                  EPPR0   17
         8 000147   000020 631400 xsym               EPPR1   B_VECTNIL+16
         8 000150   000000 701000 xent               TSX1    VDG$OALLOC
         8 000151   000256 702000 8                  TSX2    INIT_MCB_FAILED

     1795    14223    1             ALTRET (OALLOC_FAILED);
     1796    14224    1           CALL VDG$OALLOC (%CLS_STREAM, VD_6E.LOCATIONS$)

  14224  8 000152   000023 630400 9                  EPPR0   19
         8 000153   000020 631400 xsym               EPPR1   B_VECTNIL+16
         8 000154   000000 701000 xent               TSX1    VDG$OALLOC
         8 000155   000256 702000 8                  TSX2    INIT_MCB_FAILED

     1797    14225    1             ALTRET (OALLOC_FAILED);
     1798    14226    1           CALL VDG$OALLOC (%CLS_STREAM, VD_6E.SYNONYMS$)

PL6.E3A0      #003=VDG$MINIT File=VDG$MAIN.:VDA5TSI                              FRI 07/04/97 11:19 Page:203
  14226  8 000156   000025 630400 9                  EPPR0   21
         8 000157   000020 631400 xsym               EPPR1   B_VECTNIL+16
         8 000160   000000 701000 xent               TSX1    VDG$OALLOC
         8 000161   000256 702000 8                  TSX2    INIT_MCB_FAILED

     1799    14227    1             ALTRET (OALLOC_FAILED);
     1800    14228    1           CALL VDG$OALLOC (%CLS_STREAM, VD_6E.STRUCTURES$)

  14228  8 000162   000027 630400 9                  EPPR0   23
         8 000163   000020 631400 xsym               EPPR1   B_VECTNIL+16
         8 000164   000000 701000 xent               TSX1    VDG$OALLOC
         8 000165   000256 702000 8                  TSX2    INIT_MCB_FAILED

     1801    14229    1             ALTRET (OALLOC_FAILED);
     1802    14230    1           CALL VDG$OALLOC (%CLS_STREAM, VD_6E.KEYINS$)

  14230  8 000166   000031 630400 9                  EPPR0   25
         8 000167   000020 631400 xsym               EPPR1   B_VECTNIL+16
         8 000170   000000 701000 xent               TSX1    VDG$OALLOC
         8 000171   000256 702000 8                  TSX2    INIT_MCB_FAILED

     1803    14231    1             ALTRET (OALLOC_FAILED);
     1804    14232    1           CALL VDG$OALLOC (%CLS_STREAM, VD_6E.WINDOWS$)

  14232  8 000172   000033 630400 9                  EPPR0   27
         8 000173   000020 631400 xsym               EPPR1   B_VECTNIL+16
         8 000174   000000 701000 xent               TSX1    VDG$OALLOC
         8 000175   000256 702000 8                  TSX2    INIT_MCB_FAILED

     1805    14233    1             ALTRET (OALLOC_FAILED);
     1806    14234
     1807    14235
     1808    14236                /*
     1809    14237                *   We must allocate our own pre-processor ECB work area.
     1810    14238                *   We won't get a chance to expand this work area:  make it
     1811    14239                *       big now.
     1812    14240                */
PL6.E3A0      #003=VDG$MINIT File=VDG$MAIN.:VDA5TSI                              FRI 07/04/97 11:19 Page:204
     1813    14241        /*      XUE_PPCB.ECB.WKSZ# = %(NW_EVAL_WORK * 3);                   */
     1814    14242        /*      CALL VDG$OALLOC (%CLS_BUFFER, XUE_PPCB.ECB.WORK$,            */
     1815    14243        /*        SIZEW(VD$BUFFER_HEADER) + %NW_EVAL_WORK)                  */
     1816    14244        /*        ALTRET (OALLOC_FAILED);                                   */
     1817    14245        /*      XUE_PPCB.ECB.WORK$->VD$BUFFER.LENGTH# =                     */
     1818    14246        /*        ((SIZEW(VD$BUFFER_HEADER) + %NW_EVAL_WORK) *              */
     1819    14247        /*        %NB_PER_WORD) - LENGTHC(VD$BUFFER_HEADER);                */
     1820    14248        /*      XUE_PPCB.ECB.WORK$ = PALIGNW(ADDR(XUE_PPCB.ECB.WORK$ ->     */
     1821    14249        /*        VD$BUFFER.BYTES));                                        */
     1822    14250
     1823    14251
     1824    14252    1           XUE_ECB.WKSZ# = %NW_EVAL_WORK;

  14252  8 000176   000226 235007                    LDA     150,DL
         8 000177   001602 755000 6                  STA     XUE_ECB+2

     1825    14253    1           CALL VDG$OALLOC (%CLS_BUFFER, XUE_ECB.WORK$,

  14253  8 000200   000036 630400 9                  EPPR0   30
         8 000201   000021 631400 xsym               EPPR1   B_VECTNIL+17
         8 000202   000000 701000 xent               TSX1    VDG$OALLOC
         8 000203   000256 702000 8                  TSX2    INIT_MCB_FAILED

     1826    14254    1             SIZEW(VD$BUFFER_HEADER) + %NW_EVAL_WORK)
     1827    14255    1             ALTRET (OALLOC_FAILED);
     1828    14256    1           XUE_ECB.WORK$->VD$BUFFER.LENGTH# =

  14256  8 000204   001132 220003                    LDX0    602,DU
         8 000205   001601 470400 6                  LDP0    XUE_ECB+1
         8 000206   000002 740100                    STX0    2,,PR0

     1829    14257    1             ((SIZEW(VD$BUFFER_HEADER) + %NW_EVAL_WORK) *
     1830    14258    1             %NB_PER_WORD) - LENGTHC(VD$BUFFER_HEADER);
     1831    14259    1           XUE_ECB.WORK$ = PALIGNW(ADDR(XUE_ECB.WORK$ -> VD$BUFFER.BYTES));

  14259  8 000207   001601 236000 6                  LDQ     XUE_ECB+1
         8 000210   000041 036000 9                  ADLQ    33
PL6.E3A0      #003=VDG$MINIT File=VDG$MAIN.:VDA5TSI                              FRI 07/04/97 11:19 Page:205
         8 000211   770000 036007                    ADLQ    -4096,DL
         8 000212   000042 376000 9                  ANQ     34
         8 000213   001601 756000 6                  STQ     XUE_ECB+1

     1832    14260
     1833    14261
     1834    14262    1           CALL XUG$INIT (XUG_GETCMD, XUG_INIT)

  14262  8 000214   000043 630400 9                  EPPR0   35
         8 000215   000020 631400 xsym               EPPR1   B_VECTNIL+16
         8 000216   000000 701000 xent               TSX1    XUG$INIT
         8 000217   000247 702000 8                  TSX2    XUG_INIT_FAILED

     1835    14263    1             ALTRET (XUG_INIT_FAILED);
     1836    14264
     1837    14265
     1838    14266    1           CALL CONCAT (ERRMSG_FID.BYTES,

  14266  8 000220   000000 236007 xsym               LDQ     M$LM,DL
         8 000221   000045 470400 9                  LDP0    37
         8 000222   000000 471500                    LDP1    0,,PR0
         8 000223   100000 473506                    LDP3    0,QL,PR1
         8 000224   040000 100400                    MLR     fill='040'O
         8 000225   002114 000012 7                  ADSC9   VD_NODE_WRITERS$$+31     cn=0,n=10
         8 000226   001677 200012 6                  ADSC9   ERRMSG_FID               cn=1,n=10
         8 000227   040000 100500                    MLR     fill='040'O
         8 000230   300020 000010                    ADSC9   16,,PR3                  cn=0,n=8
         8 000231   001701 600025 6                  ADSC9   ERRMSG_FID+2             cn=3,n=21

     1839    14267    1             %CONCAT(CHR_ERRFILE_NAME, CHR_PERIOD),
     1840    14268    1             DCBADDR(DCBNUM(M$LM))->F$DCB.ACCT#);
     1841    14269    1           ERRMSG_FID.LENGTH# =

  14269  8 000232   000000 236007 xsym               LDQ     M$LM,DL
         8 000233   000045 470400 9                  LDP0    37
         8 000234   000000 471500                    LDP1    0,,PR0
         8 000235   100000 473506                    LDP3    0,QL,PR1
PL6.E3A0      #003=VDG$MINIT File=VDG$MAIN.:VDA5TSI                              FRI 07/04/97 11:19 Page:206
         8 000236   022000 236003                    LDQ     9216,DU
         8 000237   001677 552040 6                  STBQ    ERRMSG_FID,'40'O

     1842    14270    1             %LENGTHC(CONCAT(CHR_ERRFILE_NAME, CHR_PERIOD)) +
     1843    14271    1             LENGTHC(DCBADDR(DCBNUM(M$LM))->F$DCB.ACCT#);
     1844    14272    1           XUG_GETCMD.ERRMFID$ = ADDR(ERRMSG_FID);

  14272  8 000240   000046 236000 9                  LDQ     38
         8 000241   001432 756000 6                  STQ     XUG_GETCMD+2

     1845    14273    1           CALL XUG$SETERRMSG (XUG_GETCMD)

  14273  8 000242   000043 630400 9                  EPPR0   35
         8 000243   000017 631400 xsym               EPPR1   B_VECTNIL+15
         8 000244   000000 701000 xent               TSX1    XUG$SETERRMSG
         8 000245   000247 702000 8                  TSX2    XUG_INIT_FAILED

     1846    14274    1             ALTRET (XUG_SETERRMSG_FAILED);
     1847    14275
     1848    14276
     1849    14277    1           RETURN;

  14277  8 000246   000000 702200 xent               TSX2  ! X66_ARET

  14272  8 000247                       XUG_INIT_FA* null
  14272  8 000247                       XUG_SETERRM* null
     1850    14278
     1851    14279
     1852    14280                %BOX (TITLE="Error Handlers");

             14292    1   /***************************************************************************
             14294    1    *                                                                         *
             14298    1            *                               Error Handlers                           *
             14300    1            *                                                                        *
             14302    1          ***************************************************************************/

     1853    14306
PL6.E3A0      #003=VDG$MINIT File=VDG$MAIN.:VDA5TSI                              FRI 07/04/97 11:19 Page:207
     1854    14307                /*
     1855    14308                *   We can't really talk to the user via the command
     1856    14309                *       window or the Presenter yet, so when we get an
     1857    14310                *       error, we always treat it as fatal.
     1858    14311                */
     1859    14312
     1860    14313    1   XUG_INIT_FAILED: ;
     1861    14314    1   XUG_SETERRMSG_FAILED: ;
     1862    14315    1           FATAL_ERR.VD_ERR.ERR.CODE# = %E$PARSE_FAILED;

  14315  8 000247   001660 236000 6                  LDQ     FATAL_ERR+2
         8 000250   000047 376000 9                  ANQ     39
         8 000251   001130 276007                    ORQ     600,DL
         8 000252   001660 756000 6                  STQ     FATAL_ERR+2

     1863    14316    1           FATAL_ERR.VD_ERR.FLAGLEV# = %FLV_FATAL;

  14316  8 000253   000004 220003                    LDX0    4,DU
         8 000254   001661 740000 6                  STX0    FATAL_ERR+3

     1864    14317    1           ALTRETURN;

  14317  8 000255   000000 702200 xent               TSX2  ! X66_AALT

  14316  8 000256                       INIT_MCB_FA* null
  14316  8 000256                       BUILD_DIR_N* null
  14316  8 000256                       OALLOC_FAIL* null
     1865    14318
     1866    14319
     1867    14320    1   INIT_MCB_FAILED: ;
     1868    14321    1   BUILD_DIR_NODE_FAILED: ;
     1869    14322    1   OALLOC_FAILED: ;
     1870    14323    1           FATAL_ERR.VD_ERR.FLAGLEV# = %FLV_FATAL;

  14323  8 000256   000004 220003                    LDX0    4,DU
         8 000257   001661 740000 6                  STX0    FATAL_ERR+3

PL6.E3A0      #003=VDG$MINIT File=VDG$MAIN.:VDA5TSI                              FRI 07/04/97 11:19 Page:208
     1871    14324    1           ALTRETURN;

  14324  8 000260   000000 702200 xent               TSX2  ! X66_AALT

     1872    14325
     1873    14326
     1874    14327                %BOX (TITLE=INIT_MCB, PAGE=YES);
             14335    1
             14339    1   /***************************************************************************
             14341    1    *                                                                         *
             14345    1            *                                  INIT_MCB                              *
             14347    1            *                                                                        *
             14349    1          ***************************************************************************/

     1875    14353
     1876    14354        /*I* NAME: INIT_MCB
     1877    14355            PARAMETERS:
     1878    14356                MCB - XUM$MCB to initialize.
     1879    14357            INPUT:
     1880    14358                FATAL_ERR must be ready to use.
     1881    14359            OUTPUT:
     1882    14360                MCB will be initialized, ready for VDG$OALLOC to use.
     1883    14361                    A new data segment will have been obtained for the
     1884    14362                    MCB.
     1885    14363            DESCRIPTION:
     1886    14364                Obtain a new data segment from the monitor.  Initialize the
     1887    14365                MCB to point to it.
     1888    14366        */
     1889    14367
     1890    14368    1   INIT_MCB: PROC (MCB) ALTRET;

  14368  8 000261   200006 741300       INIT_MCB     STX1  ! I+1,,AUTO

     1891    14369        %XUM$MCB (NAME=MCB, STCLASS="");
     1892    14373
     1893    14374
     1894    14375        %FPT_GDS (RESULTS=GDS_RESULTS, SEGSIZE=%NW_DATA_SEG_INCR);
PL6.E3A0      #003=VDG$MINIT File=VDG$MAIN.:VDA5TSI                              FRI 07/04/97 11:19 Page:209
     1895    14391    2   DCL GDS_RESULTS VECTOR STATIC;
     1896    14392
     1897    14393
     1898    14394
     1899    14395    2           GDS_RESULTS = VECTOR(NIL);

  14395  8 000262   000050 237000 9                  LDAQ    40
         8 000263   001716 757000 6                  STAQ    GDS_RESULTS

     1900    14396    2           CALL M$GDS (FPT_GDS) ALTRET (GDS_FAILED);

  14396  8 000264   001710 630400 6                  EPPR0   FPT_GDS
         8 000265   430001 713400                    CLIMB   alt,gds
         8 000266   400400 401760                    pmme    nvectors=2
         8 000267   000304 702000 8                  TSX2    GDS_FAILED

     1901    14397
     1902    14398    2           MCB.SEGMENT_BASE$ = VBASE(GDS_RESULTS);

  14398  8 000270   001717 236000 6                  LDQ     GDS_RESULTS+1
         8 000271   200007 470500                    LDP0    @MCB,,AUTO
         8 000272   000002 756100                    STQ     2,,PR0

     1903    14399    2           MCB.HI_SEGMENT$ = VBASE(GDS_RESULTS);

  14399  8 000273   001717 236000 6                  LDQ     GDS_RESULTS+1
         8 000274   000003 756100                    STQ     3,,PR0

     1904    14400    2           MCB.WKSZ = (VBOUND(GDS_RESULTS) + 1) / %NB_PER_WORD;

  14400  8 000275   001716 236000 6                  LDQ     GDS_RESULTS
         8 000276   000020 772000                    QRL     16
         8 000277   000001 036007                    ADLQ    1,DL
         8 000300   000002 772000                    QRL     2
         8 000301   000004 756100                    STQ     4,,PR0

     1905    14401
PL6.E3A0      #003=VDG$MINIT File=VDG$MAIN.:VDA5TSI                              FRI 07/04/97 11:19 Page:210
     1906    14402    2           RETURN;

  14402  8 000302   200006 221300                    LDX1  ! I+1,,AUTO
         8 000303   000001 702211                    TSX2  ! 1,X1

     1907    14403
     1908    14404
     1909    14405
     1910    14406    2   GDS_FAILED:
     1911    14407    2           FATAL_ERR.VD_ERR.ERR = B$TCB.ALT$->B$ALT.ERR;

  14407  8 000304   000000 470400 xsym  GDS_FAILED   LDP0    B$TCB$
         8 000305   000000 471500                    LDP1    0,,PR0
         8 000306   100102 236100                    LDQ     66,,PR1
         8 000307   001660 756000 6                  STQ     FATAL_ERR+2

     1912    14408    2           FATAL_ERR.VD_ERR.FLAGLEV# = %FLV_FATAL;

  14408  8 000310   000004 220003                    LDX0    4,DU
         8 000311   001661 740000 6                  STX0    FATAL_ERR+3

     1913    14409    2           ALTRETURN;

  14409  8 000312   200006 221300                    LDX1  ! I+1,,AUTO
         8 000313   000000 702211                    TSX2  ! 0,X1

     1914    14410
     1915    14411    2   END INIT_MCB;
     1916    14412
     1917    14413
     1918    14414                %BOX (TITLE=BUILD_DIR_NODE, PAGE=YES);
             14422    2
             14426    2   /***************************************************************************
             14428    2    *                                                                         *
             14432    2            *                               BUILD_DIR_NODE                           *
             14434    2            *                                                                        *
             14436    2          ***************************************************************************/
PL6.E3A0      #003=VDG$MINIT File=VDG$MAIN.:VDA5TSI                              FRI 07/04/97 11:19 Page:211

     1919    14440
     1920    14441        /*I* NAME: BUILD_DIR_NODE
     1921    14442            PARAMETERS:
     1922    14443                DIR_KEY_LEN - # of bytes in DIR_KEY below.
     1923    14444                DIR_KEY - A %DK_ value, specifying the key for the VD$DIR_NODE.
     1924    14445            INPUT:
     1925    14446                We must be able to allocate dynamic storage.
     1926    14447                VD_6E.WS.INTERNAL_DIR$ must point to the first VD$DIR_NODE
     1927    14448                    in the chain; if none yet, it must be ADDR(NIL).
     1928    14449                INTERNAL_DIR_TAIL$ must point to the last VD$DIR_NODE in
     1929    14450                    the chain; if none yet, it must be ADDR(NIL).
     1930    14451            OUTPUT:
     1931    14452                A VD$DIR_NODE will be appended to VD_6E.WS.INTERNAL_DIR$.
     1932    14453            DESCRIPTION:
     1933    14454                Allocate and initialized a VD$DIR_NODE.  Append it to the
     1934    14455                chain rooted in VD_6E.WS.INTERNAL_DIR$.
     1935    14456        */
     1936    14457
     1937    14458    1   BUILD_DIR_NODE: PROC (DIR_KEY_LEN, DIR_KEY) ALTRET;

  14458  8 000314   200006 741300       BUILD_DIR_N* STX1  ! I+1,,AUTO

     1938    14459    2   DCL DIR_KEY_LEN SBIN;
     1939    14460    2   DCL DIR_KEY CHAR(DIR_KEY_LEN) CALIGNED;
     1940    14461
     1941    14462
     1942    14463    2   DCL DIR_NODE$ PTR;
     1943    14464
     1944    14465
     1945    14466        %VD$DIR_NODE (NAME=DIR$NODE, STCLASS="BASED(DIR_NODE$)");
     1946    14504
     1947    14505
     1948    14506
     1949    14507    2           CALL VDG$OALLOC (%CLS_DIR_NODE, DIR_NODE$)

  14507  8 000315   200011 630500                    EPPR0   DIR_NODE$,,AUTO
PL6.E3A0      #003=VDG$MINIT File=VDG$MAIN.:VDA5TSI                              FRI 07/04/97 11:19 Page:212
         8 000316   200013 450500                    STP0    DIR_NODE$+2,,AUTO
         8 000317   000052 236000 9                  LDQ     42
         8 000320   200012 756100                    STQ     DIR_NODE$+1,,AUTO
         8 000321   200012 630500                    EPPR0   DIR_NODE$+1,,AUTO
         8 000322   000020 631400 xsym               EPPR1   B_VECTNIL+16
         8 000323   000000 701000 xent               TSX1    VDG$OALLOC
         8 000324   000356 702000 8                  TSX2    OALLOC_FAILED

     1950    14508    2             ALTRET (OALLOC_FAILED);
     1951    14509    2           DIR$NODE.KEY = DIR_KEY;

  14509  8 000325   200007 470500                    LDP0    @DIR_KEY_LEN,,AUTO
         8 000326   000000 720100                    LXL0    0,,PR0
         8 000327   200010 471500                    LDP1    @DIR_KEY,,AUTO
         8 000330   200011 473500                    LDP3    DIR_NODE$,,AUTO
         8 000331   040100 100540                    MLR     fill='040'O
         8 000332   100000 000010                    ADSC9   0,,PR1                   cn=0,n=*X0
         8 000333   300003 000037                    ADSC9   3,,PR3                   cn=0,n=31

     1952    14510    2           DIR$NODE.FILE_STCLASS = %FSTCL_INTERNAL;

  14510  8 000334   200011 473500                    LDP3    DIR_NODE$,,AUTO
         8 000335   042000 236003                    LDQ     17408,DU
         8 000336   300013 552140                    STBQ    11,'40'O,PR3

     1953    14511
     1954    14512    2           DIR$NODE.BLINK$ = INTERNAL_DIR_TAIL$;

  14512  8 000337   200004 236100                    LDQ     INTERNAL_DIR_TAIL$,,AUTO
         8 000340   300001 756100                    STQ     1,,PR3

     1955    14513    2           IF INTERNAL_DIR_TAIL$ = ADDR(NIL) THEN

  14513  8 000341   000001 116000 xsym               CMPQ    B_VECTNIL+1
         8 000342   000346 601000 8                  TNZ     s:14516

     1956    14514    2              VD_6E.WS.INTERNAL_DIR$ = DIR_NODE$;
PL6.E3A0      #003=VDG$MINIT File=VDG$MAIN.:VDA5TSI                              FRI 07/04/97 11:19 Page:213

  14514  8 000343   200011 236100                    LDQ     DIR_NODE$,,AUTO
         8 000344   000017 756000 6                  STQ     VD_6E+15
         8 000345   000352 710000 8                  TRA     s:14517

     1957    14515    2           ELSE
     1958    14516    2              DIR$NODE.BLINK$->DIR$NODE.FLINK$ = DIR_NODE$;

  14516  8 000346   200011 473500                    LDP3    DIR_NODE$,,AUTO
         8 000347   300001 474500                    LDP4    1,,PR3
         8 000350   200011 236100                    LDQ     DIR_NODE$,,AUTO
         8 000351   400002 756100                    STQ     2,,PR4

     1959    14517    2           INTERNAL_DIR_TAIL$ = DIR_NODE$;

  14517  8 000352   200011 236100                    LDQ     DIR_NODE$,,AUTO
         8 000353   200004 756100                    STQ     INTERNAL_DIR_TAIL$,,AUTO

     1960    14518
     1961    14519    2           RETURN;

  14519  8 000354   200006 221300                    LDX1  ! I+1,,AUTO
         8 000355   000001 702211                    TSX2  ! 1,X1

  14517  8 000356                       OALLOC_FAIL* null
     1962    14520
     1963    14521
     1964    14522    2   OALLOC_FAILED: ;
     1965    14523    2           ALTRETURN;

  14523  8 000356   200006 221300                    LDX1  ! I+1,,AUTO
         8 000357   000000 702211                    TSX2  ! 0,X1
     1966    14524
     1967    14525    2   END BUILD_DIR_NODE;
     1968    14526
     1969    14527    1   END VDG$MINIT;
     1970    14528        %EOD;
PL6.E3A0      #003=VDG$MINIT File=VDG$MAIN.:VDA5TSI                              FRI 07/04/97 11:19 Page:214

PL6.E3A0      #003=VDG$MINIT File=VDG$MAIN.:VDA5TSI                              FRI 07/04/97 11:19 Page:215
--  Include file information  --

   XUG_ENTRY.:LIBRARY  cannot be made into a system file and is referenced.
   XUE_MACRO_C.:LIBRARY  is referenced.
   XUH_MACRO_C.:LIBRARY  is referenced.
   XUM_MACRO_C.:LIBRARY  is referenced.
   XU_MACRO_C.:LIBRARY  is referenced.
   VD_PERR_C.:VDA5TOU  is referenced.
   VD_NODES0_E.:VDA5TOU  is referenced.
   VD_MACROS_M.:VDA5TOU  is referenced.
   NK_VFC_C.:LIBRARY  is referenced.
   CP_6.:LIBRARY  cannot be made into a system file and is referenced.
   B$JIT_C.:E04TOU  was found in the system file and is never referenced.
   CP_6_C.:E04TOU  was found in the system file and is referenced.
      No diagnostics issued in procedure VDG$MINIT.
PL6.E3A0      #003=VDG$MINIT File=VDG$MAIN.:VDA5TSI                              FRI 07/04/97 11:19 Page:216

 **** Variables and constants ****

  ****  Section 006  Data  VDG$MINIT

  ****  Scalars and arrays  ****
OctLoc.c.b A Datatyp(siz) R M Lvl/name                 OctLoc.c.b A Datatyp(siz) R M Lvl/name

  1677-0-0/c STRC(288)   r     1 ERRMSG_FID              1656-0-0/w STRC(612)   r     1 FATAL_ERR
  1710-0-0/d STRC(216)   r     1 FPT_GDS                 1642-0-0/d STRC(432)   r     1 FPT_TIME
  1716-0-0/d VECT        r     1 GDS_RESULTS                0-0-0/w STRC(22644) r     1 VD_6E
  1230-0-0/w STRC(9)     r     1 VD_ACCESSOR_PRIV
  1231-0-0/w PTR         r     1 VD_CMD_OBJECTS$(0:49)
  1227-0-0/w PTR         r     1 VD_COMMAND_WINDOW$      1226-0-0/w PTR         r     1 VD_CURRENT_WINDOW$
  1165-0-0/w STRC(72)    r     1 VD_DCBS                 1634-0-0/d STRC(216)   r     1 VD_EXIT
  1313-0-0/w STRC(288)   r     1 VD_LAST_LOADED_FILE_SPEC
  1334-0-0/w STRC(324)   r     1 VD_MCB_LARGE            1323-0-0/w STRC(324)   r     1 VD_MCB_SMALL
  1576-0-0/c STRC(72)    r     1 VD_PACCT                1345-0-0/w STRC(504)   r     1 VD_PCB
  1574-0-0/c STRC(54)    r     1 VD_PNAME                1167-0-0/w UBIN        r     1 VD_UTS_START
  1600-0-0/d STRC(1008)  r     1 XUE_ECB                 1430-0-0/d STRC(1512)  r     1 XUG_GETCMD
  1364-0-0/d STRC(1296)  r     1 XUG_INIT                1502-0-0/d STRC(2052)  r     1 XUH_PARAM

  ****  Section 007 RoData VDG$MINIT

  ****  Scalars and arrays  ****
OctLoc.c.b A Datatyp(siz) R M Lvl/name                 OctLoc.c.b A Datatyp(siz) R M Lvl/name

     0-0-0/c CHAR(2)     r     1 CMD_PROMPT                21-0-0/c CHAR(5)     r     1 RW1
    23-0-0/c CHAR(97)    r     1 RW2                       54-0-0/c CHAR(37)    r     1 RW3
    66-0-0/c CHAR(93)    r     1 RW4                      116-0-0/c CHAR(46)    r     1 RW5
   132-0-0/c CHAR(55)    r     1 RW6                      150-0-0/c CHAR(78)    r     1 RW7
   174-0-0/c CHAR(41)    r     1 RW8                      207-0-0/c CHAR(28)    r     1 RW9
  1666-0-0/w STRC(162)   r     1 STR_$LEFTOVER           1704-0-0/w STRC(153)   r     1 STR_$MATCHES
  1722-0-0/w STRC(180)   r     1 STR_$NOT_COPIED         1740-0-0/w STRC(225)   r     1 STR_$RECORDS_DELETED
  1760-0-0/w STRC(234)   r     1 STR_$RECORDS_INSERTED
  2000-0-0/w STRC(144)   r     1 STR_$SCREEN             2015-0-0/w STRC(135)   r     1 STR_$SITES
   216-0-0/w STRC(612)   r     1 VD_DW_BOOLEAN            237-0-0/w STRC(1188)  r     1 VD_DW_COMPONENT
   300-0-0/w STRC(900)   r     1 VD_DW_DIRECTION          331-0-0/w STRC(1188)  r     1 VD_DW_EXIST
PL6.E3A0      #003=VDG$MINIT File=VDG$MAIN.:VDA5TSI                              FRI 07/04/97 11:19 Page:217
   372-0-0/w STRC(2340)  r     1 VD_DW_KEY_TYPE           473-0-0/w STRC(1476)  r     1 VD_DW_NAME_DATA_TYPE
   544-0-0/w STRC(1188)  r     1 VD_DW_ORG                605-0-0/w STRC(1188)  r     1 VD_DW_POINT
   646-0-0/w STRC(900)   r     1 VD_DW_PROTECT
  1607-0-0/w STRC(648)   r     1 VD_FKEY_SCRATCH_LEFTOVER
  1633-0-0/w STRC(648)   r     1 VD_FKEY_SCRATCH_SOURCE
  2031-0-0/w EPTR        r     1 VD_NODE_READERS$$(0:19)
  2055-0-0/w EPTR        r     1 VD_NODE_WRITERS$$(0:19)

  ****  Auto variables  ****

  ****  Scalars and arrays  ****
OctLoc.c.b A Datatyp(siz) R M Lvl/name                 OctLoc.c.b A Datatyp(siz) R M Lvl/name

    10-0-0/w PTR         r     1 @DIR_KEY                   7-0-0/w PTR         r     1 @DIR_KEY_LEN
     7-0-0/w PTR         r     1 @MCB                      *0-0-0/c ACHR        r     1 DIR_KEY
    *0-0-0/w SBIN        r     1 DIR_KEY_LEN               11-0-0/w PTR         r     1 DIR_NODE$
     5-0-0/w UBIN        r     1 I                          4-0-0/w PTR         r     1 INTERNAL_DIR_TAIL$
    *0-0-0/w STRC(324)   r     1 MCB                        3-0-0/w PTR         r     1 STREAM$

  ****  SYMREF variables  ****

  ****  Scalars and arrays  ****
OctLoc.c.b A Datatyp(siz) R M Lvl/name                 OctLoc.c.b A Datatyp(siz) R M Lvl/name

     0-0-0/w PTR         r     1 B$TCB$                     0-0-0/w SBIN        r     1 VD_COMMAND_LINE

  ****  BASED and DCB variables  ****

  ****  Scalars and arrays  ****
OctLoc.c.b A Datatyp(siz) R M Lvl/name                 OctLoc.c.b A Datatyp(siz) R M Lvl/name

     0-0-0/w STRC(2448)  r     1 B$ALT                      0-0-0/w STRC(144)   r     1 B$TCB
     0-0-0/w STRC(576)   r     1 DIR$NODE                   0-0-0/d ASTR(3528)  r     1 F$DCB
     0-0-0N  NULL        r     1 M$EW                       0-0-0N  NULL        r     1 M$LM
     0-0-0N  NULL        r     1 M$LO                       0-0-0N  NULL        r     1 M$ME
     0-0-0/w STRC(1044)  r     1 VD$BLOCK_BUFFER            0-0-0/w STRC(936)   r     1 VD$BLOCK_DESC
     0-0-0/w ASTR(90)    r     1 VD$BUFFER                  0-0-0/w STRC(90)    r     1 VD$BUFFER_HEADER
PL6.E3A0      #003=VDG$MINIT File=VDG$MAIN.:VDA5TSI                              FRI 07/04/97 11:19 Page:218
     0-0-0/w STRC(900)   r     1 VD$CMD_STREAM              0-0-0/w STRC(576)   r     1 VD$DIR_NODE
     0-0-0/w STRC(900)   r     1 VD$ENCODED_NODE            0-0-0/w STRC(612)   r     1 VD$ERR
     0-0-0/w STRC(2124)  r     1 VD$EVAL                    0-0-0/w STRC(864)   r     1 VD$EVAL_PATTERN
     0-0-0/w STRC(648)   r     1 VD$FILE_KEY                0-0-0/w STRC(468)   r     1 VD$FILE_NODE
     0-0-0/w STRC(36972) r     1 VD$FIT                     0-0-0/w STRC(216)   r     1 VD$IT_ADJUST
     0-0-0/w STRC(1116)  r     1 VD$IT_BLOCK_EXPR           0-0-0/w STRC(540)   r     1 VD$IT_COMMAND
     0-0-0/w STRC(324)   r     1 VD$IT_OPERAND              0-0-0/w STRC(216)   r     1 VD$IT_OPERATOR
     0-0-0/w STRC(216)   r     1 VD$IT_SELECT               0-0-0/w STRC(252)   r     1 VD$NAME_SPEC
     0-0-0/w STRC(144)   r     1 VD$NUMBER                  0-0-0/w STRC(144)   r     1 VD$POINTER
     0-0-0/w STRC(1944)  r     1 VD$PORT                    0-0-0/w STRC(864)   r     1 VD$STREAM
     0-0-0/w STRC(324)   r     1 VD$STRUCTURE_LEVEL         0-0-0/w STRC(180)   r     1 VD$STRUCTURE_SPEC
     0-0-0/w STRC(396)   r     1 VD$TABS                    0-0-0/w STRC(180)   r     1 VD$WINDOW_BLOCK
     0-0-0/w STRC(900)   r     1 VD$WINDOW_SPEC


   Procedure VDG$MINIT requires 240 words for executable code.
   Procedure VDG$MINIT requires 12 words of local(AUTO) storage.
PL6.E3A0      #003=VDG$MINIT File=VDG$MAIN.:VDA5TSI                              FRI 07/04/97 11:19 Page:219
          *** CROSS REFERENCE LISTING ***
**     DENOTES     IDENTIFIER DEFINITION
<<                 IDENTIFIER'S VALUE SET
>>                 IDENTIFIER'S VALUE USED
<>                 IDENTIFIER SET AND/OR USED
--                 IDENTIFIER REFERENCED
PL6.E3A0      #003=VDG$MINIT File=VDG$MAIN.:VDA5TSI                              FRI 07/04/97 11:19 Page:220
          MINI XREF LISTING

B$ALT.CODE
     14086**DCL     14086--REDEF   14087--REDEF   14087--REDEF
B$ALT.ERR
     14087**DCL     14407>>ASSIGN
B$ALT.ERR.ERR#
     14088**DCL     14088--REDEF
B$ALT.EVID
     14087**DCL     14087--REDEF   14087--REDEF
B$TCB.ALT$
     14082**DCL     14407>>ASSIGN
B$TCB$
     13683**DCL     14082--IMP-PTR 14407>>ASSIGN
BUILD_DIR_NODE
     14458**PROC    14208--CALL    14210--CALL    14212--CALL    14214--CALL    14216--CALL
BUILD_DIR_NODE_FAILED
     14316**LABEL   14208--CALLALT 14210--CALLALT 14212--CALLALT 14214--CALLALT 14216--CALLALT
CMD_PROMPT
      7954**DCL      7838--DCLINIT
DIR$NODE.BLINK$ IN PROCEDURE BUILD_DIR_NODE
     14500**DCL     14512<<ASSIGN  14516>>ASSIGN
DIR$NODE.FILE_STCLASS IN PROCEDURE BUILD_DIR_NODE
     14501**DCL     14510<<ASSIGN
DIR$NODE.FLINK$ IN PROCEDURE BUILD_DIR_NODE
     14500**DCL     14516<<ASSIGN
DIR$NODE.KEY IN PROCEDURE BUILD_DIR_NODE
     14500**DCL     14509<<ASSIGN
DIR_KEY IN PROCEDURE BUILD_DIR_NODE
     14460**DCL     14458--PROC    14509>>ASSIGN
DIR_KEY_LEN IN PROCEDURE BUILD_DIR_NODE
     14459**DCL     14458--PROC    14460--IMP-SIZ 14509>>ASSIGN
DIR_NODE$ IN PROCEDURE BUILD_DIR_NODE
     14463**DCL     14474--IMP-PTR 14507<>CALL    14509>>ASSIGN  14510>>ASSIGN  14512>>ASSIGN  14514>>ASSIGN
PL6.E3A0      #003=VDG$MINIT File=VDG$MAIN.:VDA5TSI                              FRI 07/04/97 11:19 Page:221
     14516>>ASSIGN  14516>>ASSIGN  14517>>ASSIGN
ERRMSG_FID
     13946**DCL     14272--ASSIGN
ERRMSG_FID.BYTES
     13950**DCL     14266<<CALLBLT
ERRMSG_FID.LENGTH#
     13950**DCL     14269<<ASSIGN
F$DCB.ACCT#
     14109**DCL     14266>>CALLBLT 14269--ASSIGN
F$DCB.ACTPOS
     14125**DCL     14125--REDEF
F$DCB.ARS#
     14099**DCL     14099--REDEF
F$DCB.ATTR
     14118**DCL     14119--REDEF
F$DCB.BORROW
     14133**DCL     14133--REDEF   14133--REDEF   14133--REDEF
F$DCB.DCBNAME.L
     14147**DCL     14147--IMP-SIZ
F$DCB.EOMCHAR#
     14103**DCL     14103--REDEF
F$DCB.FLDID
     14128**DCL     14128--REDEF
F$DCB.FORM$
     14122**DCL     14122--REDEF
F$DCB.FSECT
     14138**DCL     14138--REDEF
F$DCB.FSN#
     14115**DCL     14115--REDEF   14115--REDEF   14116--REDEF
F$DCB.HEADER$
     14121**DCL     14121--REDEF
F$DCB.IXTNSIZE#
     14119**DCL     14119--REDEF
F$DCB.LASTSTA$
     14108**DCL     14108--REDEF
F$DCB.LVL
PL6.E3A0      #003=VDG$MINIT File=VDG$MAIN.:VDA5TSI                              FRI 07/04/97 11:19 Page:222
     14134**DCL     14134--REDEF
F$DCB.NAME#.C
     14109**DCL     14109--REDEF
F$DCB.NOEOF
     14131**DCL     14131--REDEF
F$DCB.NRECS#
     14120**DCL     14120--REDEF
F$DCB.NRECX
     14139**DCL     14139--REDEF
F$DCB.OHDR
     14131**DCL     14131--REDEF
F$DCB.ORG#
     14114**DCL     14114--REDEF
F$DCB.PRECNO
     14137**DCL     14137--REDEF
F$DCB.RCSZ
     14143**DCL     14143--REDEF
F$DCB.RES#
     14110**DCL     14110--REDEF
F$DCB.SETX
     14122**DCL     14122--REDEF
F$DCB.TAB$
     14122**DCL     14122--REDEF
F$DCB.TDA
     14136**DCL     14137--REDEF
F$DCB.WSN#
     14110**DCL     14110--REDEF
FATAL_ERR
     13712**DCL     14171--ASSIGN  14172--ASSIGN  14177<<ASSIGN
FATAL_ERR.VD_ERR.ERR
     13758**DCL     14193--ASSIGN  14407<<ASSIGN
FATAL_ERR.VD_ERR.ERR.CODE#
     13760**DCL     14315<<ASSIGN
FATAL_ERR.VD_ERR.FLAGLEV#
     13763**DCL     14316<<ASSIGN  14323<<ASSIGN  14408<<ASSIGN
FATAL_ERR.VD_ERR.FLINK$
PL6.E3A0      #003=VDG$MINIT File=VDG$MAIN.:VDA5TSI                              FRI 07/04/97 11:19 Page:223
     13747**DCL     14178<<ASSIGN
FPT_GDS IN PROCEDURE INIT_MCB
     14386**DCL     14396<>CALL
FPT_GDS.V IN PROCEDURE INIT_MCB
     14386**DCL     14386--DCLINIT
FPT_TIME
     13697**DCL     14196<>CALL
FPT_TIME.V
     13701**DCL     13697--DCLINIT
GDS_FAILED IN PROCEDURE INIT_MCB
     14407**LABEL   14396--CALLALT
GDS_RESULTS IN PROCEDURE INIT_MCB
     14391**DCL     14386--DCLINIT 14395<<ASSIGN  14398>>ASSIGN  14399>>ASSIGN  14400>>ASSIGN
I
     13957**DCL     14187<<DOINDEX 14188>>ASSIGN
INIT_MCB
     14368**PROC    14199--CALL    14200--CALL
INIT_MCB_FAILED
     14316**LABEL   14199--CALLALT 14200--CALLALT
INTERNAL_DIR_TAIL$
     13956**DCL     14207<<ASSIGN  14512>>ASSIGN  14513>>IF      14517<<ASSIGN
M$GDS
        71**DCL-ENT 14396--CALL
M$LM
      6636**DCL     14266--CALLBLT 14269--ASSIGN
M$TIME
       103**DCL-ENT 14196--CALL
MCB IN PROCEDURE INIT_MCB
     14370**DCL     14368--PROC
MCB.HI_SEGMENT$ IN PROCEDURE INIT_MCB
     14370**DCL     14399<<ASSIGN
MCB.SEGMENT_BASE$ IN PROCEDURE INIT_MCB
     14370**DCL     14398<<ASSIGN
MCB.WKSZ IN PROCEDURE INIT_MCB
     14370**DCL     14400<<ASSIGN
OALLOC_FAILED
PL6.E3A0      #003=VDG$MINIT File=VDG$MAIN.:VDA5TSI                              FRI 07/04/97 11:19 Page:224
     14316**LABEL   14220--CALLALT 14222--CALLALT 14224--CALLALT 14226--CALLALT 14228--CALLALT 14230--CALLALT
     14232--CALLALT 14253--CALLALT
OALLOC_FAILED IN PROCEDURE BUILD_DIR_NODE
     14517**LABEL   14507--CALLALT
RW1
      8354**DCL      8350--DCLINIT
RW2
      8359**DCL      8350--DCLINIT
RW3
      8367**DCL      8350--DCLINIT
RW4
      8371**DCL      8350--DCLINIT
RW5
      8377**DCL      8351--DCLINIT
RW6
      8382**DCL      8351--DCLINIT
RW7
      8386**DCL      8351--DCLINIT
RW8
      8390**DCL      8351--DCLINIT
RW9
      8393**DCL      8351--DCLINIT
STREAM$
     13955**DCL     13968--IMP-PTR
STR_$LEFTOVER
     12546**DCL     12495--DCLINIT
STR_$MATCHES
     12686**DCL     12636--DCLINIT
STR_$NOT_COPIED
     12827**DCL     12776--DCLINIT
STR_$RECORDS_DELETED
     12969**DCL     12918--DCLINIT
STR_$RECORDS_INSERTED
     13111**DCL     13060--DCLINIT
STR_$SCREEN
     13251**DCL     13201--DCLINIT
PL6.E3A0      #003=VDG$MINIT File=VDG$MAIN.:VDA5TSI                              FRI 07/04/97 11:19 Page:225
STR_$SITES
     13391**DCL     13341--DCLINIT
VD$BLOCK_BUFFER
     11937**DCL     12190--DCLINIT
VD$BLOCK_DESC
     11159**DCL     12190--DCLINIT
VD$BUFFER.BYTES
     10367**DCL     14259--ASSIGN
VD$BUFFER.LENGTH#
     10365**DCL     10367--IMP-SIZ 14256<<ASSIGN
VD$BUFFER_HEADER
     10380**DCL     14253--CALL    14256--ASSIGN  14256--ASSIGN
VD$CMD_STREAM
     11306**DCL     12190--DCLINIT
VD$DIR_NODE
     11028**DCL     12190--DCLINIT
VD$ENCODED_NODE
     10907**DCL     12190--DCLINIT
VD$ERR
     10224**DCL     12191--DCLINIT
VD$EVAL
     11452**DCL     12191--DCLINIT
VD$EVAL_PATTERN
     11345**DCL     12191--DCLINIT
VD$FILE_KEY
      9911**DCL     12191--DCLINIT
VD$FILE_NODE
     11066**DCL     12191--DCLINIT
VD$FIT
     11901**DCL     12191--DCLINIT
VD$IT_ADJUST
     10729**DCL     12191--DCLINIT
VD$IT_BLOCK_EXPR
     10542**DCL     12191--DCLINIT
VD$IT_COMMAND
     10869**DCL     12191--DCLINIT
PL6.E3A0      #003=VDG$MINIT File=VDG$MAIN.:VDA5TSI                              FRI 07/04/97 11:19 Page:226
VD$IT_OPERAND
     10766**DCL     12191--DCLINIT
VD$IT_OPERATOR
     10832**DCL     12191--DCLINIT
VD$IT_SELECT
     10692**DCL     12191--DCLINIT
VD$NAME_SPEC
      9960**DCL     12192--DCLINIT
VD$NUMBER
     10452**DCL     12190--DCLINIT 12190--DCLINIT 12190--DCLINIT 12191--DCLINIT 12191--DCLINIT 12191--DCLINIT
     12191--DCLINIT 12192--DCLINIT 12192--DCLINIT 12192--DCLINIT 12193--DCLINIT
VD$POINTER
     10505**DCL     12192--DCLINIT 12192--DCLINIT 12192--DCLINIT 12192--DCLINIT 12192--DCLINIT 12192--DCLINIT
VD$PORT
     11803**DCL     12192--DCLINIT
VD$STREAM
     11697**DCL     12192--DCLINIT
VD$STRUCTURE_LEVEL
     10185**DCL     12192--DCLINIT
VD$STRUCTURE_SPEC
     10140**DCL     12192--DCLINIT
VD$TABS
     10103**DCL     12193--DCLINIT
VD$WINDOW_BLOCK
     10066**DCL     12193--DCLINIT
VD$WINDOW_SPEC
     10000**DCL     12193--DCLINIT
VDA$RNAMES
      6627**DCL-ENT 13636--DCLINIT
VDA$WNAMES
      6628**DCL-ENT 13648--DCLINIT
VDA$WWINDOWS
      6629**DCL-ENT 13651--DCLINIT
VDE$PFUNCTIONS
      6624**DCL-ENT  8116--DCLINIT
VDE$PREAD_NAME_FOR_EVAL
PL6.E3A0      #003=VDG$MINIT File=VDG$MAIN.:VDA5TSI                              FRI 07/04/97 11:19 Page:227
      6623**DCL-ENT  8125--DCLINIT
VDG$OALLOC
      6625**DCL-ENT 14220--CALL    14222--CALL    14224--CALL    14226--CALL    14228--CALL    14230--CALL
     14232--CALL    14253--CALL    14507--CALL
VDI$PFIX_WINDOWS
      6619**DCL-ENT  7275--DCLINIT
VDI$PGET_COMMAND_RECORD
      6621**DCL-ENT  7852--DCLINIT
VDI$PGLOBAL_COMMANDS
      6622**DCL-ENT  7257--DCLINIT
VDI$PUSER_PARSE_RTN
      6620**DCL-ENT  7879--DCLINIT
VD_6E
      6678**DCL     14154<<ASSIGN
VD_6E.CMD_STREAM$
      6701**DCL     14168<<ASSIGN
VD_6E.EQUALS$
      6683**DCL     14156<<ASSIGN  14222<>CALL
VD_6E.ERR_HEAD$
      6702**DCL     14171<<ASSIGN
VD_6E.ERR_TAIL$
      6702**DCL     14172<<ASSIGN
VD_6E.HISTORY$
      6683**DCL     14155<<ASSIGN
VD_6E.INTERRUPT.CMD_LINE$
      6702**DCL     14170<<ASSIGN
VD_6E.INTERRUPT.STATE#
      6702**DCL     14169<<ASSIGN
VD_6E.KEYINS$
      6683**DCL     14159<<ASSIGN  14230<>CALL
VD_6E.LOCATIONS$
      6683**DCL     14157<<ASSIGN  14224<>CALL
VD_6E.PORT_HEAD$
      6703**DCL     14173<<ASSIGN
VD_6E.PORT_TAIL$
      6703**DCL     14174<<ASSIGN
PL6.E3A0      #003=VDG$MINIT File=VDG$MAIN.:VDA5TSI                              FRI 07/04/97 11:19 Page:228
VD_6E.SOURCE.OPERAND.EDIT_BLOCK$
      6699**DCL     14165<<ASSIGN
VD_6E.SOURCE.OPERAND.EVAL$
      6699**DCL     14166<<ASSIGN
VD_6E.SOURCE.OPERAND.INTREE$
      6699**DCL     14167<<ASSIGN
VD_6E.SOURCE.OPERAND.STREAM$
      6699**DCL     14164<<ASSIGN  14220<>CALL
VD_6E.STRUCTURES$
      6683**DCL     14160<<ASSIGN  14228<>CALL
VD_6E.STRUCTURE_EXTERNAL$
      6684**DCL     14161<<ASSIGN
VD_6E.SYNONYMS$
      6683**DCL     14158<<ASSIGN  14226<>CALL
VD_6E.WILD_STRINGS$
      6701**DCL     14175<<ASSIGN
VD_6E.WINDOWS$
      6684**DCL     14162<<ASSIGN  14232<>CALL
VD_6E.WS.INTERNAL_DIR$
      6686**DCL     14163<<ASSIGN  14514<<ASSIGN
VD_ACCESSOR_PRIV
      6913**DCL     14183<<ASSIGN
VD_CMD_OBJECTS$
      6942**DCL     14188<<ASSIGN
VD_COMMAND_LINE
      6640**DCL      7630--DCLINIT
VD_COMMAND_WINDOW$
      6896**DCL     14181<<ASSIGN
VD_CURRENT_WINDOW$
      6888**DCL     14180<<ASSIGN
VD_DCBS
      6715**DCL     14185<<ASSIGN
VD_DW_BOOLEAN
      8444**DCL     12215--DCLINIT
VD_DW_COMPONENT
      8590**DCL     12215--DCLINIT
PL6.E3A0      #003=VDG$MINIT File=VDG$MAIN.:VDA5TSI                              FRI 07/04/97 11:19 Page:229
VD_DW_DIRECTION
      8737**DCL     12216--DCLINIT
VD_DW_EXIST
      8884**DCL     12216--DCLINIT
VD_DW_KEY_TYPE
      9031**DCL     12217--DCLINIT
VD_DW_NAME_DATA_TYPE
      9180**DCL     12217--DCLINIT
VD_DW_ORG
      9328**DCL     12218--DCLINIT
VD_DW_POINT
      9475**DCL     12218--DCLINIT
VD_DW_PROTECT
      9622**DCL     12219--DCLINIT
VD_EXIT.CODE_
      8277**DCL     14193<<ASSIGN
VD_EXIT.V
      8277**DCL      8277--DCLINIT
VD_EXIT.V.STEPCC#
      8278**DCL      8278--REDEF   14194<<ASSIGN
VD_FKEY_SCRATCH_LEFTOVER
     12316**DCL     12292--DCLINIT
VD_FKEY_SCRATCH_SOURCE
     12407**DCL     12383--DCLINIT
VD_LAST_LOADED_FILE_SPEC
      6951**DCL     14191<<ASSIGN
VD_MCB_LARGE
      6986**DCL     14200<>CALL
VD_MCB_SMALL
      6980**DCL     14199<>CALL
VD_ORIGINAL_EDTCTL.BREAKCOUNT
      6793**DCL      6793--REDEF
VD_ORIGINAL_TRMCTL.BREAKCOUNT
      6833**DCL      6833--REDEF
VD_PACCT
      8058**DCL      7982--DCLINIT
PL6.E3A0      #003=VDG$MINIT File=VDG$MAIN.:VDA5TSI                              FRI 07/04/97 11:19 Page:230
VD_PCB
      7010**DCL      7352--DCLINIT
VD_PNAME
      8044**DCL      7981--DCLINIT
VD_UTS_START
      6723**DCL     13701--DCLINIT
XTX$ADAPT
      7214**DCL-ENT  7530--DCLINIT
XUE_ECB.WKSZ#
      8092**DCL     14252<<ASSIGN
XUE_ECB.WORK$
      8087**DCL     14253<>CALL    14256>>ASSIGN  14259<<ASSIGN  14259>>ASSIGN
XUG$INIT
      6597**DCL-ENT 14262--CALL
XUG$SETERRMSG
      6601**DCL-ENT 14273--CALL
XUG_GETCMD
      7629**DCL     14262<>CALL    14273<>CALL
XUG_GETCMD.ERRMFID$
      7648**DCL     14272<<ASSIGN
XUG_GETCMD.OUT$
      7634**DCL      7640--REDEF
XUG_INIT
      7219**DCL     14262<>CALL
XUG_INIT_FAILED
     14272**LABEL   14262--CALLALT
XUG_SETERRMSG_FAILED
     14272**LABEL   14273--CALLALT
XUH_PARAM
      7977**DCL      7667--DCLINIT

