PL6.E3A0      #003=VDG$OCOPY File=VDG$OBJECTS.:VDA5TSI                           FRI 07/04/97 11:21 Page:77
      510        1        /*T***********************************************************/
      511        2        /*T*                                                         */
      512        3        /*T* Copyright (c) Bull HN Information Systems Inc., 1997    */
      513        4        /*T*                                                         */
      514        5        /*T***********************************************************/
      515        6
      516        7        /*D* NAME: VDG$OCOPY
      517        8            PARAMETERS:
      518        9                ORIGINAL - Actual VD$OBJECT_HEADER (or any sub- or super-part
      519       10                    thereof) in object to make new copy of.
      520       11                    NOTE:  During initialization, we OCOPY "objects" which
      521       12                        actually reside in static or constant storage.  These
      522       13                        "objects" have .OBJECT.SIZE# and .LENGTH# values of
      523       14                        0; instead, the fixed-length of these structures
      524       15                        should be used (based on their object class, which
      525       16                        is accurate) and legal .SIZE#s and .LENGTH#s should
      526       17                        be stored in the new copy of the object.  To
      527       18                        determine if ORIGINAL is one of these static or
      528       19                        constant "objects", test if:
      529       20                            (1) ORIGINAL.OBJECT.SIZE# is 0 or (for string
      530       21                                    and buffer objects) ORIGINAL.LENGTH# is 0;
      531       22                        and (2) ORIGINAL.OBJECT.CLASS# is neither
      532       23                                    %CLS_TEXTC_REMOTE nor %CLS_BUFFER.
      533       24                        Note that we may normally be called with a 0-length
      534       25                        string or buffer to copy; however, this will only
      535       26                        happen when ORIGINAL.OBJECT.CLASS# is either
      536       27                        %CLS_TEXTC_REMOTE or %CLS_BUFFER.
      537       28                NEW$ - Uninitialized ptr.
      538       29            INPUT:
      539       30                None.
      540       31            OUTPUT:
      541       32                NEW$ will contain a pointer to the new copy of the object.
      542       33                Pointers within the object pointed-to by NEW$ which themselves point
      543       34                to objects will be initialized with pointers to new copies of those
      544       35                objects, with the following exceptions:
      545       36                    o Objects pointed-to by ORIGINAL but which ORIGINAL doesn't
      546       37                        "own" (ie, ORIGINAL doesn't have the primary pointer to the
PL6.E3A0      #003=VDG$OCOPY File=VDG$OBJECTS.:VDA5TSI                           FRI 07/04/97 11:21 Page:78
      547       38                        object and isn't responsible for freeing it when done with it)
      548       39                        will not be copied, but NEW$'s object will contain a copy
      549       40                        of the pointer from ORIGINAL.
      550       41                    o For most object classes, if they have a .BLINK$ pointer,
      551       42                        it will be NIL in the NEW$ copy of the object.
      552       43                        EXCEPTION:  %CLS_EVAL objects will have their .BLINK$s
      553       44                        copied.
      554       45                        NOTE:  If ORIGINAL has a .FLINK$ pointer, NEW$'s object will
      555       46                        contain a pointer to a new copy of the FLINK$'d object.
      556       47                    o If an object class has a .PARENT$ pointer, it will be NIL
      557       48                        in the NEW$ copy of the object.
      558       49                    o If an object class points to a VD$STREAM or VD$RECORD_SET, the
      559       50                        pointer will be NIL in the NEW$ copy of the object.
      560       51            DESCRIPTION:
      561       52                Calls VDG$OALLOC to allocate a new object of some class,
      562       53                then fills in the new object with the original one.
      563       54                Certain pointers within the original object point to
      564       55                objects which themselves must be OCOPY'ed by calling
      565       56                VDG$OCOPY recursively.
      566       57        */
      567       58
      568       59        VDG$OCOPY: PROC (ORIGINAL, NEW_PARAM$) ALTRET;
      569       60
      570       61
      571       62        %INCLUDE VD_MACROS_M;
      572     2277
      573     2278
      574     2279        %VD$OBJECT_HEADER (NAME=ORIGINAL, STCLASS=PARAM);
      575     2301    1   DCL NEW_PARAM$ PTR PARAM;
      576     2302
      577     2303
      578     2304    1   DCL VDG$OALLOC         ENTRY (3) ALTRET;
      579     2305    1   DCL VDG$OCOPY_RANGE    ENTRY (2) ALTRET;
      580     2306    1   DCL VDG$OCOPY_LOCATION ENTRY (2) ALTRET;
      581     2307    1   DCL VDG$ESCREECH       ENTRY (3);
      582     2308
      583     2309
PL6.E3A0      #003=VDG$OCOPY File=VDG$OBJECTS.:VDA5TSI                           FRI 07/04/97 11:21 Page:79
      584     2310        %VD_OBJECTS (NAME=VD_OBJECTS, STCLASS=SYMREF);
      585     2350
      586     2351
      587     2352    1   DCL ORIGINAL$ PTR;
      588     2353    1   DCL NEW$ PTR;
      589     2354    1   DCL ORIGINAL_CLASS SBIN;
      590     2355    1   DCL OBJECT_LENGTH UBIN;
      591     2356    1   DCL NBYTES UBIN;
      592     2357    1   DCL N_ENTRIES SBIN;
      593     2358    1   DCL PTR$ PTR;
      594     2359    1   DCL NEW_PTR$ PTR;
      595     2360    1   DCL I SBIN;
      596     2361
      597     2362
      598     2363    1   DCL VARIABLE$OBJECT CHAR(NBYTES) BASED;
      599     2364        %VD$INTREE_NODE (STCLASS="BASED(ORIGINAL$)");
      600     2400        %VD$BLOCK_DESC (STCLASS="BASED(ORIGINAL$)");
      601     2547        %VD$BUFFER (STCLASS="BASED(ORIGINAL$)");
      602     2605        %VD$BUFFER_HEADER (STCLASS="BASED(ORIGINAL$)");
      603     2641        %VD$ENCODED_NODE (STCLASS="BASED(ORIGINAL$)");
      604     2762        %VD$EVAL (STCLASS="BASED(ORIGINAL$)");
      605     3007        %VD$EVAL_PATTERN (STCLASS="BASED(ORIGINAL$)");
      606     3114        %VD$FILE_KEY (STCLASS="BASED(ORIGINAL$)");
      607     3163        %VD$FILE_NODE (STCLASS="BASED(ORIGINAL$)");
      608     3256        %VD$FIT (STCLASS="BASED(ORIGINAL$)");
      609     3292        %VD$IT_ADJUST (STCLASS="BASED(ORIGINAL$)");
      610     3329        %VD$IT_BLOCK_EXPR (STCLASS="BASED(ORIGINAL$)");
      611     3479        %VD$IT_COMMAND (STCLASS="BASED(ORIGINAL$)");
      612     3517        %VD$IT_OPERAND (STCLASS="BASED(ORIGINAL$)");
      613     3583        %VD$IT_OPERATOR (STCLASS="BASED(ORIGINAL$)");
      614     3620        %VD$IT_SELECT (STCLASS="BASED(ORIGINAL$)");
      615     3657        %VD$OBJECT_HEADER (STCLASS="BASED(ORIGINAL$)");
      616     3679        %VD$PATTERN (STCLASS="BASED(ORIGINAL$)");
      617     3730        %VD$RECORD_SET (STCLASS="BASED(ORIGINAL$)");
      618     3808        %VD$STRING_HEADER (STCLASS="BASED(ORIGINAL$)");
      619     3844        %VD$STRUCTURE_SPEC (STCLASS="BASED(ORIGINAL$)");
      620     3881        %VD$TABS (STCLASS="BASED(ORIGINAL$)");
PL6.E3A0      #003=VDG$OCOPY File=VDG$OBJECTS.:VDA5TSI                           FRI 07/04/97 11:21 Page:80
      621     3918        %VD$TEXTC_REMOTE (STCLASS="BASED(ORIGINAL$)");
      622     3979        %VD$WINDOW_BLOCK (STCLASS="BASED(ORIGINAL$)");
      623     4016        %VD$WINDOW_SPEC (STCLASS="BASED(ORIGINAL$)");
      624     4082
      625     4083
      626     4084
      627     4085    1           ORIGINAL$ = ADDR(ORIGINAL);
      628     4086    1           ORIGINAL_CLASS = ORIGINAL.CLASS#;
      629     4087    1           IF ORIGINAL_CLASS >= %CLS_MX
      630     4088    2             OR VD_OBJECTS.SIZE (ORIGINAL_CLASS) < 0 THEN DO;
      631     4089    2              CALL VDG$ESCREECH (ORIGINAL_CLASS);
      632     4090    2              END;
      633     4091
      634     4092    2           DO CASE (ORIGINAL_CLASS);
      635     4093    2            CASE (%CLS_BUFFER);
      636     4094    2              OBJECT_LENGTH =
      637     4095    2                (VD$BUFFER.LENGTH#
      638     4096    2                + SIZEC(VD$BUFFER_HEADER)
      639     4097    2                + 3) / %NB_PER_WORD;
      640     4098    2            CASE (%CLS_TEXTC_REMOTE);
      641     4099    2              OBJECT_LENGTH =
      642     4100    2                (VD$TEXTC_REMOTE.LENGTH#
      643     4101    2                + SIZEC(VD$STRING_HEADER)
      644     4102    2                + 3) / %NB_PER_WORD;
      645     4103    2            CASE (ELSE);
      646     4104    2              IF ORIGINAL.SIZE# = 0 THEN
      647     4105    2                 OBJECT_LENGTH = VD_OBJECTS.SIZE (ORIGINAL_CLASS);
      648     4106    2              ELSE
      649     4107    2                 OBJECT_LENGTH =
      650     4108    2                   ORIGINAL.SIZE#;
      651     4109    2            END;
      652     4110
      653     4111    1           CALL VDG$OALLOC (ORIGINAL_CLASS, NEW_PARAM$, OBJECT_LENGTH)
      654     4112    1             ALTRET (OALLOC_FAILED);
      655     4113    1           NEW$ = NEW_PARAM$;
      656     4114
      657     4115    1           NBYTES = (OBJECT_LENGTH * %NB_PER_WORD) - SIZEC(VD$OBJECT_HEADER);
PL6.E3A0      #003=VDG$OCOPY File=VDG$OBJECTS.:VDA5TSI                           FRI 07/04/97 11:21 Page:81
      658     4116
      659     4117    2           IF VD_OBJECTS.STR (ORIGINAL_CLASS) THEN DO;
      660     4118    2              IF VD$TEXTC_REMOTE.LENGTH# = 0
      661     4119    2                AND ORIGINAL_CLASS ~= %CLS_TEXTC_REMOTE THEN
      662     4120    2                 NBYTES = NBYTES - (LENGTHC(VD$STRING_HEADER) -
      663     4121    2                   LENGTHC(VD$OBJECT_HEADER));
      664     4122    2              ELSE
      665     4123    2                 NBYTES = VD$TEXTC_REMOTE.LENGTH#;
      666     4124    2              NEW$->VD$TEXTC_REMOTE.LENGTH# = NBYTES;
      667     4125    2              NEW$->VD$TEXTC_REMOTE.BYTES =
      668     4126    2                ADDR(VD$TEXTC_REMOTE.BYTES)->VARIABLE$OBJECT;
      669     4127    2              IF VD$STRING_HEADER.FLINK$ ~= ADDR(NIL) THEN
      670     4128    3   OCOPY_STRING_FLINK: DO;
      671     4129    3                 CALL VDG$OCOPY (VD$STRING_HEADER.FLINK$->VD$STRING_HEADER,
      672     4130    3                   NEW$->VD$STRING_HEADER.FLINK$)
      673     4131    3                   ALTRET (OCOPY_FAILED);
      674     4132    3                 END OCOPY_STRING_FLINK;
      675     4133    2              END;
      676     4134    2           ELSE IF VD_OBJECTS.BUF (ORIGINAL_CLASS) THEN DO;
      677     4135    2                 IF VD$BUFFER.LENGTH# = 0
      678     4136    2                   AND ORIGINAL_CLASS ~= %CLS_BUFFER THEN
      679     4137    2                    NBYTES = NBYTES - (LENGTHC(VD$BUFFER_HEADER) -
      680     4138    2                      LENGTHC(VD$OBJECT_HEADER));
      681     4139    2                 ELSE
      682     4140    2                    NBYTES = VD$BUFFER.LENGTH#;
      683     4141    2                 NEW$->VD$BUFFER.LENGTH# = VD$BUFFER.LENGTH#;
      684     4142    2                 ADDR(NEW$->VD$BUFFER.BYTES)->VARIABLE$OBJECT =
      685     4143    2                   ADDR(VD$BUFFER.BYTES)->VARIABLE$OBJECT;
      686     4144    2                 IF VD$BUFFER_HEADER.FLINK$ ~= ADDR(NIL) THEN
      687     4145    3   OCOPY_BUFFER_FLINK: DO;
      688     4146    3                    CALL VDG$OCOPY (VD$BUFFER_HEADER.FLINK$->VD$BUFFER_HEADER,
      689     4147    3                      NEW$->VD$BUFFER_HEADER.FLINK$)
      690     4148    3                      ALTRET (OCOPY_FAILED);
      691     4149    3                    END OCOPY_BUFFER_FLINK;
      692     4150    2                 END;
      693     4151    2              ELSE DO;
      694     4152    2                 PINCRW(NEW$, SIZEW(VD$OBJECT_HEADER))->
PL6.E3A0      #003=VDG$OCOPY File=VDG$OBJECTS.:VDA5TSI                           FRI 07/04/97 11:21 Page:82
      695     4153    2                   VARIABLE$OBJECT =
      696     4154    2                   PINCRW(ORIGINAL$, SIZEW(VD$OBJECT_HEADER))->
      697     4155    2                   VARIABLE$OBJECT;
      698     4156    2                 END;
      699     4157
      700     4158
      701     4159    2           DO CASE (ORIGINAL_CLASS);
      702     4160
      703     4161    2            CASE (%CLS_BLOCK_DESC, %CLS_BLOCK_BUFFER);
      704     4162    2              PTR$ = ORIGINAL$;
      705     4163    2              NEW_PTR$ = NEW$;
      706     4164    3              IF ORIGINAL_CLASS = %CLS_BLOCK_BUFFER THEN DO;
      707     4165    3                 PTR$ = PALIGNW(ADDR(VD$BUFFER.BYTES));
      708     4166    3                 NEW_PTR$ = PALIGNW(ADDR(NEW$->VD$BUFFER.BYTES));
      709     4167    3                 NEW_PTR$->VD$BLOCK_DESC.OBJECT = PTR$->VD$BLOCK_DESC.OBJECT;
      710     4168    3                 END;
      711     4169                   %COPYKEY (FKEY=PTR$->VD$BLOCK_DESC.FILE_KEY,
      712     4170                   TKEY=NEW_PTR$->VD$BLOCK_DESC.FILE_KEY);
      713     4186
      714     4187    2              CALL VDG$OCOPY_RANGE (PTR$->VD$BLOCK_DESC.RANGE,
      715     4188    2                NEW_PTR$->VD$BLOCK_DESC.RANGE)
      716     4189    2                ALTRET (OCOPY_RANGE_FAILED);
      717     4190
      718     4191                   /* BlockDesc doesn't own .OPTIONS.STRUCTURE$->: don't make a new copy */
      719     4192                   %COPYKEY (FKEY=PTR$->VD$BLOCK_DESC.OPTIONS.KEY_INCR,
      720     4193                   TKEY=NEW_PTR$->VD$BLOCK_DESC.OPTIONS.KEY_INCR);
      721     4209
      722     4210
      723     4211    2            CASE (%CLS_ENCODED_NODE);
      724     4212                   %COPYKEY (FKEY=VD$ENCODED_NODE.DESC.FILE_KEY,
      725     4213                   TKEY=NEW$->VD$ENCODED_NODE.DESC.FILE_KEY);
      726     4229
      727     4230    2              CALL VDG$OCOPY_LOCATION (VD$ENCODED_NODE.DESC.LOCATION,
      728     4231    2                NEW$->VD$ENCODED_NODE.DESC.LOCATION)
      729     4232    2                ALTRET (OCOPY_LOCATION_FAILED);
      730     4233
      731     4234                   %COPYSPEC (FSPEC=VD$ENCODED_NODE.DESC.SPEC,
PL6.E3A0      #003=VDG$OCOPY File=VDG$OBJECTS.:VDA5TSI                           FRI 07/04/97 11:21 Page:83
      732     4235                   TSPEC=NEW$->VD$ENCODED_NODE.DESC.SPEC);
      733     4251
      734     4252    2              IF VD$ENCODED_NODE.DESC.DATA$ ~= ADDR(NIL) THEN
      735     4253    3   OCOPY_ENCODED_NODE_DESC_DATA: DO;
      736     4254    3                 CALL VDG$OCOPY (VD$ENCODED_NODE.DESC.DATA$->VD$BUFFER,
      737     4255    3                   NEW$->VD$ENCODED_NODE.DESC.DATA$)
      738     4256    3                   ALTRET (OCOPY_FAILED);
      739     4257    3                 END OCOPY_ENCODED_NODE_DESC_DATA;
      740     4258
      741     4259
      742     4260    2            CASE (%CLS_EVAL);
      743     4261    2              NEW$->VD$EVAL.BLINK$ = ADDR(NIL); /* Don't copy */
      744     4262    2              CALL VDG$OCOPY_RANGE (VD$EVAL.ENCLOSING, NEW$->VD$EVAL.ENCLOSING)
      745     4263    2                ALTRET (OCOPY_RANGE_FAILED);
      746     4264    2              CALL VDG$OCOPY_RANGE (VD$EVAL.RANGE, NEW$->VD$EVAL.RANGE)
      747     4265    2                ALTRET (OCOPY_RANGE_FAILED);
      748     4266    2              CALL VDG$OCOPY_RANGE (VD$EVAL.LAST_FOUND_RANGE,
      749     4267    2                NEW$->VD$EVAL.LAST_FOUND_RANGE)
      750     4268    2                ALTRET (OCOPY_RANGE_FAILED);
      751     4269                   /* Eval doesn't own .NODE$->: don't make a new copy */
      752     4270
      753     4271
      754     4272    2            CASE (%CLS_EVAL_PATTERN);
      755     4273    2              NEW$->VD$EVAL_PATTERN.BLINK$ = ADDR(NIL); /* Don't copy */
      756     4274    2              CALL VDG$OCOPY_RANGE (VD$EVAL_PATTERN.RANGE,
      757     4275    2                NEW$->VD$EVAL_PATTERN.RANGE)
      758     4276    2                ALTRET (OCOPY_RANGE_FAILED);
      759     4277                   /* EVAL_PATTERN doesn't own .PATTERN$->: don't make a new copy */
      760     4278
      761     4279
      762     4280    2            CASE (%CLS_FILE_KEY);
      763     4281    2              IF VD$FILE_KEY.FLINK$ ~= ADDR(NIL) THEN
      764     4282    3   OCOPY_FILE_KEY_FLINK: DO;
      765     4283    3                 CALL VDG$OCOPY (VD$FILE_KEY.FLINK$->VD$STRING_HEADER,
      766     4284    3                   NEW$->VD$FILE_KEY.FLINK$)
      767     4285    3                   ALTRET (OCOPY_FAILED);
      768     4286    3                 END OCOPY_FILE_KEY_FLINK;
PL6.E3A0      #003=VDG$OCOPY File=VDG$OBJECTS.:VDA5TSI                           FRI 07/04/97 11:21 Page:84
      769     4287
      770     4288
      771     4289    2            CASE (%CLS_FILE_NODE);
      772     4290    2              NEW$->VD$FILE_NODE.BLINK$ = ADDR(NIL); /* Don't copy */
      773     4291    2              IF VD$FILE_NODE.FLINK$ ~= ADDR(NIL) THEN
      774     4292    3   OCOPY_FILE_NODE_FLINK: DO;
      775     4293    3                 CALL VDG$OCOPY (VD$FILE_NODE.FLINK$->VD$FILE_NODE,
      776     4294    3                   NEW$->VD$FILE_NODE.FLINK$)
      777     4295    3                   ALTRET (OCOPY_FAILED);
      778     4296    3                 END OCOPY_FILE_NODE_FLINK;
      779     4297
      780     4298                   %COPYKEY (FKEY=VD$FILE_NODE.DESC.KEY,
      781     4299                   TKEY=NEW$->VD$FILE_NODE.DESC.KEY);
      782     4315
      783     4316                   %COPYSPEC (FSPEC=VD$FILE_NODE.DESC.SPEC,
      784     4317                   TSPEC=NEW$->VD$FILE_NODE.DESC.SPEC);
      785     4333    2              IF VD$FILE_NODE.DESC.DATA$ ~= ADDR(NIL) THEN
      786     4334    3   OCOPY_FILE_NODE_DESC_DATA: DO;
      787     4335    3                 CALL VDG$OCOPY (VD$FILE_NODE.DESC.DATA$->VD$BUFFER,
      788     4336    3                   NEW$->VD$FILE_NODE.DESC.DATA$)
      789     4337    3                   ALTRET (OCOPY_FAILED);
      790     4338    3                 END OCOPY_FILE_NODE_DESC_DATA;
      791     4339
      792     4340    2              IF VD$FILE_NODE.HEAD$ ~= ADDR(NIL) THEN
      793     4341    3   OCOPY_FILE_NODE_HEAD: DO;
      794     4342    3                 CALL VDG$OCOPY (VD$FILE_NODE.HEAD$->VD$FILE_NODE,
      795     4343    3                   NEW$->VD$FILE_NODE.HEAD$)
      796     4344    3                   ALTRET (OCOPY_FAILED);
      797     4345
      798     4346    3                 NEW$->VD$FILE_NODE.TAIL$ = NEW$->VD$FILE_NODE.HEAD$;
      799     4347    4                 DO WHILE (NEW$->VD$FILE_NODE.TAIL$ ~= ADDR(NIL));
      800     4348    4                    NEW$->VD$FILE_NODE.TAIL$ = NEW$->VD$FILE_NODE.TAIL$->
      801     4349    4                      VD$FILE_NODE.FLINK$;
      802     4350    4                    END;
      803     4351    3                 END OCOPY_FILE_NODE_HEAD;
      804     4352
      805     4353
PL6.E3A0      #003=VDG$OCOPY File=VDG$OBJECTS.:VDA5TSI                           FRI 07/04/97 11:21 Page:85
      806     4354    2            CASE (%CLS_FIT);
      807     4355    2              NEW$->VD$FIT.CODE2$ =
      808     4356    2                PINCRW(NEW$, POFFW(VD$FIT.CODE2$, ORIGINAL$));
      809     4357    2              NEW$->VD$FIT.CODE3$ =
      810     4358    2                PINCRW(NEW$, POFFW(VD$FIT.CODE3$, ORIGINAL$));
      811     4359
      812     4360
      813     4361    2            CASE (%CLS_IT_ADJUST);
      814     4362    2              NEW$->VD$IT_ADJUST.PARENT$ = ADDR(NIL); /* Don't copy */
      815     4363    2              IF VD$IT_ADJUST.FLINK$ ~= ADDR(NIL) THEN
      816     4364    3   OCOPY_IT_ADJUST_FLINK: DO;
      817     4365    3                 CALL VDG$OCOPY (VD$IT_ADJUST.FLINK$->VD$IT_ADJUST,
      818     4366    3                   NEW$->VD$IT_ADJUST.FLINK$)
      819     4367    3                   ALTRET (OCOPY_FAILED);
      820     4368    3                 END OCOPY_IT_ADJUST_FLINK;
      821     4369
      822     4370    2              IF VD$IT_ADJUST.MOVEMENTS$ ~= ADDR(NIL) THEN
      823     4371    3   OCOPY_IT_ADJUST_MOVEMENTS: DO;
      824     4372                      /* VD$IT_ADJUST.MOVEMENTS$ actually points to any InTree node */
      825     4373    3                 CALL VDG$OCOPY (VD$IT_ADJUST.MOVEMENTS$->VD$INTREE_NODE,
      826     4374    3                   NEW$->VD$IT_ADJUST.MOVEMENTS$)
      827     4375    3                   ALTRET (OCOPY_FAILED);
      828     4376
      829     4377    3                 NEW$->VD$IT_ADJUST.MOVEMENTS_TAIL$ =
      830     4378    3                   NEW$->VD$IT_ADJUST.MOVEMENTS$;
      831     4379    4                 DO WHILE (NEW$->VD$IT_ADJUST.MOVEMENTS_TAIL$ ~= ADDR(NIL));
      832     4380    4                    NEW$->VD$IT_ADJUST.MOVEMENTS_TAIL$->
      833     4381    4                      VD$INTREE_NODE.PARENT$ = NEW$;
      834     4382    4                    NEW$->VD$IT_ADJUST.MOVEMENTS_TAIL$ =
      835     4383    4                      NEW$->VD$IT_ADJUST.MOVEMENTS_TAIL$->
      836     4384    4                      VD$INTREE_NODE.FLINK$;
      837     4385    4                    END;
      838     4386    3                 END OCOPY_IT_ADJUST_MOVEMENTS;
      839     4387
      840     4388
      841     4389    2            CASE (%CLS_IT_BLOCK_EXPR);
      842     4390    2              IF VD$IT_BLOCK_EXPR.FLINK$ ~= ADDR(NIL) THEN
PL6.E3A0      #003=VDG$OCOPY File=VDG$OBJECTS.:VDA5TSI                           FRI 07/04/97 11:21 Page:86
      843     4391    3   OCOPY_IT_BLOCK_EXPR_FLINK: DO;
      844     4392    3                 CALL VDG$OCOPY (VD$IT_BLOCK_EXPR.FLINK$->VD$IT_BLOCK_EXPR,
      845     4393    3                   NEW$->VD$IT_BLOCK_EXPR.FLINK$)
      846     4394    3                   ALTRET (OCOPY_FAILED);
      847     4395    3                 END OCOPY_IT_BLOCK_EXPR_FLINK;
      848     4396
      849     4397                   %COPYKEY (FKEY="VD$IT_BLOCK_EXPR.DOMAINN.FILE_KEY",
      850     4398                   TKEY="NEW$->VD$IT_BLOCK_EXPR.DOMAINN.FILE_KEY");
      851     4414    2              CALL VDG$OCOPY_RANGE (VD$IT_BLOCK_EXPR.DOMAINN.RANGE,
      852     4415    2                NEW$->VD$IT_BLOCK_EXPR.DOMAINN.RANGE)
      853     4416    2                ALTRET (OCOPY_RANGE_FAILED);
      854     4417
      855     4418                  /* ItBlockExpr doesn't own .OPTIONS.STRUCTURE$->: don't make a new copy */
      856     4419                   %COPYKEY (FKEY=VD$IT_BLOCK_EXPR.OPTIONS.KEY_INCR,
      857     4420                   TKEY=NEW$->VD$IT_BLOCK_EXPR.OPTIONS.KEY_INCR);
      858     4436
      859     4437    2              IF VD$IT_BLOCK_EXPR.SELECTS$ ~= ADDR(NIL) THEN
      860     4438    3   OCOPY_IT_BLOCK_EXPR_SELECTS: DO;
      861     4439    3                 CALL VDG$OCOPY (VD$IT_BLOCK_EXPR.SELECTS$->VD$IT_SELECT,
      862     4440    3                   NEW$->VD$IT_BLOCK_EXPR.SELECTS$)
      863     4441    3                   ALTRET (OCOPY_FAILED);
      864     4442
      865     4443    3                 NEW$->VD$IT_BLOCK_EXPR.SELECTS_TAIL$ =
      866     4444    3                   NEW$->VD$IT_BLOCK_EXPR.SELECTS$;
      867     4445    4                 DO WHILE (NEW$->VD$IT_BLOCK_EXPR.SELECTS_TAIL$ ~= ADDR(NIL));
      868     4446    4                    NEW$->VD$IT_BLOCK_EXPR.SELECTS_TAIL$->
      869     4447    4                      VD$IT_SELECT.PARENT$ = NEW$;
      870     4448    4                    NEW$->VD$IT_BLOCK_EXPR.SELECTS_TAIL$ =
      871     4449    4                      NEW$->VD$IT_BLOCK_EXPR.SELECTS_TAIL$->
      872     4450    4                      VD$IT_SELECT.FLINK$;
      873     4451    4                    END;
      874     4452    3                 END OCOPY_IT_BLOCK_EXPR_SELECTS;
      875     4453
      876     4454
      877     4455    2            CASE (%CLS_IT_COMMAND);
      878     4456    2              NEW$->VD$IT_COMMAND.PARENT$ = ADDR(NIL); /* Don't copy */
      879     4457    2              IF VD$IT_COMMAND.FLINK$ ~= ADDR(NIL) THEN
PL6.E3A0      #003=VDG$OCOPY File=VDG$OBJECTS.:VDA5TSI                           FRI 07/04/97 11:21 Page:87
      880     4458    3   OCOPY_IT_COMMAND_FLINK: DO;
      881     4459    3                 CALL VDG$OCOPY (VD$IT_COMMAND.FLINK$->VD$INTREE_NODE,
      882     4460    3                   NEW$->VD$IT_COMMAND.FLINK$)
      883     4461    3                   ALTRET (OCOPY_FAILED);
      884     4462    3                 END OCOPY_IT_COMMAND_FLINK;
      885     4463
      886     4464                   /* IT_COMMAND doesn't own .PT_BLOCK_EXPR$->: don't make new copy */
      887     4465
      888     4466    3              DO I = 0 TO %(MX_COMMAND_PARAMS-1);
      889     4467    3                 IF VD$IT_COMMAND.PARAM$ (I) ~= ADDR(NIL) THEN
      890     4468    4   OCOPY_IT_COMMAND_PARAM: DO;
      891     4469    4                    CALL VDG$OCOPY (VD$IT_COMMAND.PARAM$ (I)->
      892     4470    4                      VD$OBJECT_HEADER,
      893     4471    4                      NEW$->VD$IT_COMMAND.PARAM$ (I))
      894     4472    4                      ALTRET (OCOPY_FAILED);
      895     4473    4                    END OCOPY_IT_COMMAND_PARAM;
      896     4474    3                 END;
      897     4475
      898     4476
      899     4477    2            CASE (%CLS_IT_OPERAND);
      900     4478    2              NEW$->VD$IT_OPERAND.PARENT$ = ADDR(NIL); /* Don't copy */
      901     4479    2              IF VD$IT_OPERAND.FLINK$ ~= ADDR(NIL) THEN
      902     4480    3   OCOPY_IT_OPERAND_FLINK: DO;
      903     4481    3                 CALL VDG$OCOPY (VD$IT_OPERAND.FLINK$->VD$INTREE_NODE,
      904     4482    3                   NEW$->VD$IT_OPERAND.FLINK$)
      905     4483    3                   ALTRET (OCOPY_FAILED);
      906     4484    3                 END OCOPY_IT_OPERAND_FLINK;
      907     4485
      908     4486                   %COPYKEY (FKEY=VD$IT_OPERAND.KEY, TKEY=NEW$->VD$IT_OPERAND.KEY);
      909     4502    2              IF VD$IT_OPERAND.PARAM$ ~= ADDR(NIL) THEN
      910     4503    3   OCOPY_IT_OPERAND_PARAM: DO;
      911     4504    3                 CALL VDG$OCOPY (VD$IT_OPERAND.PARAM$->VD$OBJECT_HEADER,
      912     4505    3                   NEW$->VD$IT_OPERAND.PARAM$)
      913     4506    3                   ALTRET (OCOPY_FAILED);
      914     4507    3                 END OCOPY_IT_OPERAND_PARAM;
      915     4508
      916     4509
PL6.E3A0      #003=VDG$OCOPY File=VDG$OBJECTS.:VDA5TSI                           FRI 07/04/97 11:21 Page:88
      917     4510    2            CASE (%CLS_IT_OPERATOR);
      918     4511    2              NEW$->VD$IT_OPERATOR.PARENT$ = ADDR(NIL); /* Don't copy */
      919     4512    2              IF VD$IT_OPERATOR.FLINK$ ~= ADDR(NIL) THEN
      920     4513    3   OCOPY_IT_OPERATOR_FLINK: DO;
      921     4514    3                 CALL VDG$OCOPY (VD$IT_OPERATOR.FLINK$->VD$INTREE_NODE,
      922     4515    3                   NEW$->VD$IT_OPERATOR.FLINK$)
      923     4516    3                   ALTRET (OCOPY_FAILED);
      924     4517    3                 END OCOPY_IT_OPERATOR_FLINK;
      925     4518
      926     4519    2              IF VD$IT_OPERATOR.OPERAND$ ~= ADDR(NIL) THEN
      927     4520    3   OCOPY_IT_OPERATOR_OPERAND: DO;
      928     4521    3                 CALL VDG$OCOPY (VD$IT_OPERATOR.OPERAND$->VD$INTREE_NODE,
      929     4522    3                   NEW$->VD$IT_OPERATOR.OPERAND$)
      930     4523    3                   ALTRET (OCOPY_FAILED);
      931     4524    3                 END OCOPY_IT_OPERATOR_OPERAND;
      932     4525
      933     4526    2              IF VD$IT_OPERATOR.R_OPERAND$ ~= ADDR(NIL) THEN
      934     4527    3   OCOPY_IT_OPERATOR_R_OPERAND: DO;
      935     4528    3                 CALL VDG$OCOPY (VD$IT_OPERATOR.R_OPERAND$->VD$INTREE_NODE,
      936     4529    3                   NEW$->VD$IT_OPERATOR.R_OPERAND$)
      937     4530    3                   ALTRET (OCOPY_FAILED);
      938     4531    3                 END OCOPY_IT_OPERATOR_R_OPERAND;
      939     4532
      940     4533
      941     4534    2            CASE (%CLS_IT_SELECT);
      942     4535    2              NEW$->VD$IT_SELECT.PARENT$ = ADDR(NIL); /* Don't copy */
      943     4536    2              IF VD$IT_SELECT.FLINK$ ~= ADDR(NIL) THEN
      944     4537    3   OCOPY_IT_SELECT_FLINK: DO;
      945     4538    3                 CALL VDG$OCOPY (VD$IT_SELECT.FLINK$->VD$IT_SELECT,
      946     4539    3                   NEW$->VD$IT_SELECT.FLINK$)
      947     4540    3                   ALTRET (OCOPY_FAILED);
      948     4541    3                 END OCOPY_IT_SELECT_FLINK;
      949     4542
      950     4543    2              IF VD$IT_SELECT.ADJUSTS$ ~= ADDR(NIL) THEN
      951     4544    3   OCOPY_IT_SELECT_ADJUSTS: DO;
      952     4545    3                 CALL VDG$OCOPY (VD$IT_SELECT.ADJUSTS$->VD$IT_ADJUST,
      953     4546    3                   NEW$->VD$IT_SELECT.ADJUSTS$)
PL6.E3A0      #003=VDG$OCOPY File=VDG$OBJECTS.:VDA5TSI                           FRI 07/04/97 11:21 Page:89
      954     4547    3                   ALTRET (OCOPY_FAILED);
      955     4548
      956     4549    3                 NEW$->VD$IT_SELECT.ADJUSTS_TAIL$ =
      957     4550    3                   NEW$->VD$IT_SELECT.ADJUSTS$;
      958     4551    4                 DO WHILE (NEW$->VD$IT_SELECT.ADJUSTS_TAIL$ ~= ADDR(NIL));
      959     4552    4                    NEW$->VD$IT_SELECT.ADJUSTS_TAIL$->
      960     4553    4                      VD$IT_ADJUST.PARENT$ = NEW$;
      961     4554    4                    NEW$->VD$IT_SELECT.ADJUSTS_TAIL$ =
      962     4555    4                      NEW$->VD$IT_SELECT.ADJUSTS_TAIL$->
      963     4556    4                      VD$IT_ADJUST.FLINK$;
      964     4557    4                    END;
      965     4558    3                 END OCOPY_IT_SELECT_ADJUSTS;
      966     4559
      967     4560
      968     4561    2            CASE (%CLS_PATTERN);
      969     4562    2              N_ENTRIES = (VD$PATTERN.OBJECT.SIZE# -
      970     4563    2                POFFW(ADDR(VD$PATTERN.ENTRIES), ORIGINAL$)) /
      971     4564    2                SIZEW(VD$PATTERN.ENTRIES);
      972     4565    2              IF N_ENTRIES ~= VD$PATTERN.MX_ENTRIES#
      973     4566    2                OR VD$PATTERN.N_ENTRIES# > N_ENTRIES THEN
      974     4567    2                 CALL VDG$ESCREECH (VD$PATTERN.N_ENTRIES#);
      975     4568    3              DO I = 0 TO (VD$PATTERN.N_ENTRIES# - 1);
      976     4569    4                 IF VD$PATTERN.ENTRIES.MATCH$ (I) ~= ADDR(NIL) THEN DO;
      977     4570    4                    CALL VDG$OCOPY (VD$PATTERN.ENTRIES.MATCH$ (I) ->
      978     4571    4                      VD$OBJECT_HEADER, NEW$->VD$PATTERN.ENTRIES.MATCH$ (I))
      979     4572    4                      ALTRET (OCOPY_FAILED);
      980     4573    4                    END;
      981     4574    3                 END;
      982     4575
      983     4576
      984     4577    2            CASE (%CLS_WINDOW_BLOCK);
      985     4578    2              IF VD$WINDOW_BLOCK.EDIT_BLOCK$ ~= ADDR(NIL) THEN
      986     4579    3   OCOPY_WINDOW_BLOCK_EDIT_BLOCK: DO;
      987     4580    3                 CALL VDG$OCOPY (VD$WINDOW_BLOCK.EDIT_BLOCK$->
      988     4581    3                   VD$BLOCK_DESC,
      989     4582    3                   NEW$->VD$WINDOW_BLOCK.EDIT_BLOCK$)
      990     4583    3                   ALTRET (OCOPY_FAILED);
PL6.E3A0      #003=VDG$OCOPY File=VDG$OBJECTS.:VDA5TSI                           FRI 07/04/97 11:21 Page:90
      991     4584    3                 END OCOPY_WINDOW_BLOCK_EDIT_BLOCK;
      992     4585
      993     4586    2              IF VD$WINDOW_BLOCK.EVAL$ ~= ADDR(NIL) THEN
      994     4587    3   OCOPY_WINDOW_BLOCK_EVAL: DO;
      995     4588    3                 CALL VDG$OCOPY (VD$WINDOW_BLOCK.EVAL$->VD$EVAL,
      996     4589    3                   NEW$->VD$WINDOW_BLOCK.EVAL$)
      997     4590    3                   ALTRET (OCOPY_FAILED);
      998     4591    3                 PTR$ = VD$WINDOW_BLOCK.EVAL$->VD$EVAL.BLINK$;
      999     4592    3                 NEW_PTR$ = NEW$->VD$WINDOW_BLOCK.EVAL$;
     1000     4593    4                 DO WHILE PTR$ ~= ADDR(NIL);
     1001     4594    4                    CALL VDG$OCOPY (PTR$->VD$EVAL, NEW_PTR$->VD$EVAL.BLINK$)
     1002     4595    4                      ALTRET (OCOPY_FAILED);
     1003     4596    4                    PTR$ = PTR$->VD$EVAL.BLINK$;
     1004     4597    4                    NEW_PTR$ = NEW_PTR$->VD$EVAL.BLINK$;
     1005     4598    4                    END;
     1006     4599    3                 END OCOPY_WINDOW_BLOCK_EVAL;
     1007     4600
     1008     4601
     1009     4602    2            CASE (%CLS_WINDOW_SPEC);
     1010     4603    2              NEW$->VD$WINDOW_SPEC.OPERAND.STREAM$ = ADDR(NIL); /* Don't copy */
     1011     4604
     1012     4605    2              IF VD$WINDOW_SPEC.OPERAND.INTREE$ ~= ADDR(NIL) THEN
     1013     4606    3   OCOPY_WINDOW_SPEC_INTREE: DO;
     1014     4607    3                 CALL VDG$OCOPY (VD$WINDOW_SPEC.OPERAND.INTREE$->VD$IT_BLOCK_EXPR,
     1015     4608    3                   NEW$->VD$WINDOW_SPEC.OPERAND.INTREE$)
     1016     4609    3                   ALTRET (OCOPY_FAILED);
     1017     4610    3                 END OCOPY_WINDOW_SPEC_INTREE;
     1018     4611
     1019     4612    2              IF VD$WINDOW_SPEC.OPERAND.EDIT_BLOCK$ ~= ADDR(NIL) THEN
     1020     4613    3   OCOPY_WINDOW_SPEC_EDIT_BLOCK: DO;
     1021     4614    3                 CALL VDG$OCOPY (VD$WINDOW_SPEC.OPERAND.EDIT_BLOCK$->
     1022     4615    3                   VD$BLOCK_DESC,
     1023     4616    3                   NEW$->VD$WINDOW_SPEC.OPERAND.EDIT_BLOCK$)
     1024     4617    3                   ALTRET (OCOPY_FAILED);
     1025     4618    3                 END OCOPY_WINDOW_SPEC_EDIT_BLOCK;
     1026     4619
     1027     4620    2              IF VD$WINDOW_SPEC.OPERAND.EVAL$ ~= ADDR(NIL) THEN
PL6.E3A0      #003=VDG$OCOPY File=VDG$OBJECTS.:VDA5TSI                           FRI 07/04/97 11:21 Page:91
     1028     4621    3   OCOPY_WINDOW_SPEC_EVAL: DO;
     1029     4622    3                 CALL VDG$OCOPY (VD$WINDOW_SPEC.OPERAND.EVAL$->VD$EVAL,
     1030     4623    3                   NEW$->VD$WINDOW_SPEC.OPERAND.EVAL$)
     1031     4624    3                   ALTRET (OCOPY_FAILED);
     1032     4625    3                 PTR$ = VD$WINDOW_SPEC.OPERAND.EVAL$->VD$EVAL.BLINK$;
     1033     4626    3                 NEW_PTR$ = NEW$->VD$WINDOW_SPEC.OPERAND.EVAL$;
     1034     4627    4                 DO WHILE PTR$ ~= ADDR(NIL);
     1035     4628    4                    CALL VDG$OCOPY (PTR$->VD$EVAL, NEW_PTR$->VD$EVAL.BLINK$)
     1036     4629    4                      ALTRET (OCOPY_FAILED);
     1037     4630    4                    PTR$ = PTR$->VD$EVAL.BLINK$;
     1038     4631    4                    NEW_PTR$ = NEW_PTR$->VD$EVAL.BLINK$;
     1039     4632    4                    END;
     1040     4633    3                 END OCOPY_WINDOW_SPEC_EVAL;
     1041     4634
     1042     4635    2              NEW$->VD$WINDOW_SPEC.RECORD_SET$ = ADDR(NIL); /* Don't copy */
     1043     4636
     1044     4637
     1045     4638    2              IF VD$WINDOW_SPEC.TABS$ ~= ADDR(NIL) THEN
     1046     4639    3   OCOPY_WINDOW_SPEC_TABS: DO;
     1047     4640    3                 CALL VDG$OCOPY (VD$WINDOW_SPEC.TABS$->VD$TABS,
     1048     4641    3                   NEW$->VD$WINDOW_SPEC.TABS$)
     1049     4642    3                   ALTRET (OCOPY_FAILED);
     1050     4643    3                 END OCOPY_WINDOW_SPEC_TABS;
     1051     4644
     1052     4645    2              IF VD$WINDOW_SPEC.EOFMARK$ ~= ADDR(NIL) THEN
     1053     4646    3   OCOPY_WINDOW_SPEC_EOFMARK: DO;
     1054     4647    3                 CALL VDG$OCOPY (VD$WINDOW_SPEC.EOFMARK$->VD$BUFFER,
     1055     4648    3                   NEW$->VD$WINDOW_SPEC.EOFMARK$)
     1056     4649    3                   ALTRET (OCOPY_FAILED);
     1057     4650    3                 END OCOPY_WINDOW_SPEC_EOFMARK;
     1058     4651
     1059     4652    2              IF VD$WINDOW_SPEC.KEY_DEFINITION_BUFFER$ ~= ADDR(NIL) THEN
     1060     4653    3   OCOPY_WINDOW_SPEC_KEY_DEF_BUF: DO;
     1061     4654    3                 CALL VDG$OCOPY (VD$WINDOW_SPEC.KEY_DEFINITION_BUFFER$->
     1062     4655    3                   VD$BUFFER,
     1063     4656    3                   NEW$->VD$WINDOW_SPEC.KEY_DEFINITION_BUFFER$)
     1064     4657    3                   ALTRET (OCOPY_FAILED);
PL6.E3A0      #003=VDG$OCOPY File=VDG$OBJECTS.:VDA5TSI                           FRI 07/04/97 11:21 Page:92
     1065     4658    3                 END OCOPY_WINDOW_SPEC_KEY_DEF_BUF;
     1066     4659
     1067     4660
     1068     4661    2            CASE (%CLS_BUFFER,
     1069     4662    2                   %CLS_TEXTC_REMOTE,
     1070     4663    2                   %CLS_NAME_SPEC,
     1071     4664    2                   %CLS_STRUCTURE_LEVEL,
     1072     4665    2                   %CLS_NUMBER,
     1073     4666    2                   %CLS_BOOLEAN,
     1074     4667    2                   %CLS_FILE_STCLASS,
     1075     4668    2                   %CLS_ORG,
     1076     4669    2                   %CLS_KEY_TYPE,
     1077     4670    2                   %CLS_EXIST,
     1078     4671    2                   %CLS_NAME_DATA_TYPE,
     1079     4672    2                   %CLS_COMPONENT,
     1080     4673    2                   %CLS_DIRECTION,
     1081     4674    2                   %CLS_POINT,
     1082     4675    2                   %CLS_PROTECT,
     1083     4676    2                   %CLS_STRUCTURE_SPEC,
     1084     4677                     /*
     1085     4678                     *  The %CLS_PTR_x pointers point to objects owned by others:
     1086     4679                     *      just copy the pointers (which we've already done)
     1087     4680                     */
     1088     4681    2                   %CLS_PTR_BLOCK_DESC,
     1089     4682    2                   %CLS_PTR_LOCATION,
     1090     4683    2                   %CLS_PTR_KEY,
     1091     4684    2                   %CLS_PTR_TEXTC,
     1092     4685    2                   %CLS_PTR_FILE_NODE,
     1093     4686    2                   %CLS_PTR_INTREE);
     1094     4687                   /*  Don' do nuthin':
     1095     4688                       these objects need no further processing.  */
     1096     4689
     1097     4690
     1098     4691    2            CASE (%CLS_CMD_STREAM,
     1099     4692    2                   %CLS_DIR_NODE,
     1100     4693    2                   %CLS_ERR,
     1101     4694    2                   %CLS_STREAM,
PL6.E3A0      #003=VDG$OCOPY File=VDG$OBJECTS.:VDA5TSI                           FRI 07/04/97 11:21 Page:93
     1102     4695    2                   %CLS_PORT,
     1103     4696    2                   %CLS_RECORD_SET,
     1104     4697    2                   ELSE);
     1105     4698                   /*  Internal error:
     1106     4699                       either a non-OCOPY-able object class was passed,
     1107     4700                       or an unknown object class was passed.  */
     1108     4701    2              CALL VDG$ESCREECH (ORIGINAL_CLASS);
     1109     4702
     1110     4703    2            END;
     1111     4704
     1112     4705    1           RETURN;
     1113     4706
     1114     4707
     1115     4708
     1116     4709    1   OALLOC_FAILED: ;
     1117     4710    1   OCOPY_FAILED: ;
     1118     4711    1   OCOPY_RANGE_FAILED: ;
     1119     4712    1   OCOPY_LOCATION_FAILED: ;
     1120     4713    1           ALTRETURN;
     1121     4714
     1122     4715    1   END VDG$OCOPY;
     1123     4716        %EOD;

PL6.E3A0      #003=VDG$OCOPY File=VDG$OBJECTS.:VDA5TSI                           FRI 07/04/97 11:21 Page:94
--  Include file information  --

   VD_MACROS_M.:VDA5TOU  is referenced.
   B$JIT_C.:E04TOU  was found in the system file and is never referenced.
   CP_6_C.:E04TOU  was found in the system file and is never referenced.
      No diagnostics issued in procedure VDG$OCOPY.

   Procedure VDG$OCOPY requires 1081 words for executable code.
   Procedure VDG$OCOPY requires 18 words of local(AUTO) storage.

PL6.E3A0      #003=VDG$OCOPY File=VDG$OBJECTS.:VDA5TSI                           FRI 07/04/97 11:21 Page:95

 Object Unit name= VDG$OCOPY                                  File name= VDG$OBJECTS.:VDA5TOU
 UTS= JUL 04 '97 11:21:20.12 FRI                              Compiler= PL-6/E31         Sev=      00
 SharedLib= :SHARED_SYSTEM                                    Alt SharedLib=


    ****  Control sections  ****

 Sect   Type Bound  Init  Size OctSiz  Section name(segment info)
    0   Proc  even  none  1081   2071  VDG$OCOPY
    1  RoData even  none     2      2  VDG$OCOPY

    ****  Entry defs  ****

                              Check   Calling
                             calling  sequence
  Sect OctLoc Primary Altret sequence   type   Parms  Name
     0      0   yes    yes     yes      Std        2  VDG$OCOPY

  ****  Entry refs  ****

         Check        Calling
        calling       sequence
Altret sequence SRef   type   Args  Name
         yes           Std       3 VDG$ESCREECH
 yes     yes           Std       3 VDG$OALLOC
 yes     yes           Std       2 VDG$OCOPY_LOCATION
 yes     yes           Std       2 VDG$OCOPY_RANGE
                       nStd      0 X66_AUTO_2
                       Std       0 B_CONSPOOL_D
                       nStd      0 X66_AALT
                       nStd      0 X66_ARET
PL6.E3A0      #003=VDG$OCOPY File=VDG$OBJECTS.:VDA5TSI                           FRI 07/04/97 11:21 Page:96

  ****  Data refs  ****

  Flags:  r = read only, s = secondary
Flgs Name                             Flgs Name                             Flgs Name
     VD_OBJECTS                            B_VECTNIL
PL6.E3A0      #003=VDG$OCOPY File=VDG$OBJECTS.:VDA5TSI                           FRI 07/04/97 11:21 Page:97


      510        1        /*T***********************************************************/
      511        2        /*T*                                                         */
      512        3        /*T* Copyright (c) Bull HN Information Systems Inc., 1997    */
      513        4        /*T*                                                         */
      514        5        /*T***********************************************************/
      515        6
      516        7        /*D* NAME: VDG$OCOPY
      517        8            PARAMETERS:
      518        9                ORIGINAL - Actual VD$OBJECT_HEADER (or any sub- or super-part
      519       10                    thereof) in object to make new copy of.
      520       11                    NOTE:  During initialization, we OCOPY "objects" which
      521       12                        actually reside in static or constant storage.  These
      522       13                        "objects" have .OBJECT.SIZE# and .LENGTH# values of
      523       14                        0; instead, the fixed-length of these structures
      524       15                        should be used (based on their object class, which
      525       16                        is accurate) and legal .SIZE#s and .LENGTH#s should
      526       17                        be stored in the new copy of the object.  To
      527       18                        determine if ORIGINAL is one of these static or
      528       19                        constant "objects", test if:
      529       20                            (1) ORIGINAL.OBJECT.SIZE# is 0 or (for string
      530       21                                    and buffer objects) ORIGINAL.LENGTH# is 0;
      531       22                        and (2) ORIGINAL.OBJECT.CLASS# is neither
      532       23                                    %CLS_TEXTC_REMOTE nor %CLS_BUFFER.
      533       24                        Note that we may normally be called with a 0-length
      534       25                        string or buffer to copy; however, this will only
      535       26                        happen when ORIGINAL.OBJECT.CLASS# is either
      536       27                        %CLS_TEXTC_REMOTE or %CLS_BUFFER.
      537       28                NEW$ - Uninitialized ptr.
      538       29            INPUT:
      539       30                None.
      540       31            OUTPUT:
      541       32                NEW$ will contain a pointer to the new copy of the object.
      542       33                Pointers within the object pointed-to by NEW$ which themselves point
      543       34                to objects will be initialized with pointers to new copies of those
      544       35                objects, with the following exceptions:
      545       36                    o Objects pointed-to by ORIGINAL but which ORIGINAL doesn't
PL6.E3A0      #003=VDG$OCOPY File=VDG$OBJECTS.:VDA5TSI                           FRI 07/04/97 11:21 Page:98
      546       37                        "own" (ie, ORIGINAL doesn't have the primary pointer to the
      547       38                        object and isn't responsible for freeing it when done with it)
      548       39                        will not be copied, but NEW$'s object will contain a copy
      549       40                        of the pointer from ORIGINAL.
      550       41                    o For most object classes, if they have a .BLINK$ pointer,
      551       42                        it will be NIL in the NEW$ copy of the object.
      552       43                        EXCEPTION:  %CLS_EVAL objects will have their .BLINK$s
      553       44                        copied.
      554       45                        NOTE:  If ORIGINAL has a .FLINK$ pointer, NEW$'s object will
      555       46                        contain a pointer to a new copy of the FLINK$'d object.
      556       47                    o If an object class has a .PARENT$ pointer, it will be NIL
      557       48                        in the NEW$ copy of the object.
      558       49                    o If an object class points to a VD$STREAM or VD$RECORD_SET, the
      559       50                        pointer will be NIL in the NEW$ copy of the object.
      560       51            DESCRIPTION:
      561       52                Calls VDG$OALLOC to allocate a new object of some class,
      562       53                then fills in the new object with the original one.
      563       54                Certain pointers within the original object point to
      564       55                objects which themselves must be OCOPY'ed by calling
      565       56                VDG$OCOPY recursively.
      566       57        */
      567       58
      568       59        VDG$OCOPY: PROC (ORIGINAL, NEW_PARAM$) ALTRET;

     59  0 000000   000000 700200 xent  VDG$OCOPY    TSX0  ! X66_AUTO_2
         0 000001   000022 000002                    ZERO    18,2

      569       60
      570       61
      571       62        %INCLUDE VD_MACROS_M;
      572     2277
      573     2278
      574     2279        %VD$OBJECT_HEADER (NAME=ORIGINAL, STCLASS=PARAM);
      575     2301    1   DCL NEW_PARAM$ PTR PARAM;
      576     2302
      577     2303
      578     2304    1   DCL VDG$OALLOC         ENTRY (3) ALTRET;
PL6.E3A0      #003=VDG$OCOPY File=VDG$OBJECTS.:VDA5TSI                           FRI 07/04/97 11:21 Page:99
      579     2305    1   DCL VDG$OCOPY_RANGE    ENTRY (2) ALTRET;
      580     2306    1   DCL VDG$OCOPY_LOCATION ENTRY (2) ALTRET;
      581     2307    1   DCL VDG$ESCREECH       ENTRY (3);
      582     2308
      583     2309
      584     2310        %VD_OBJECTS (NAME=VD_OBJECTS, STCLASS=SYMREF);
      585     2350
      586     2351
      587     2352    1   DCL ORIGINAL$ PTR;
      588     2353    1   DCL NEW$ PTR;
      589     2354    1   DCL ORIGINAL_CLASS SBIN;
      590     2355    1   DCL OBJECT_LENGTH UBIN;
      591     2356    1   DCL NBYTES UBIN;
      592     2357    1   DCL N_ENTRIES SBIN;
      593     2358    1   DCL PTR$ PTR;
      594     2359    1   DCL NEW_PTR$ PTR;
      595     2360    1   DCL I SBIN;
      596     2361
      597     2362
      598     2363    1   DCL VARIABLE$OBJECT CHAR(NBYTES) BASED;
      599     2364        %VD$INTREE_NODE (STCLASS="BASED(ORIGINAL$)");
      600     2400        %VD$BLOCK_DESC (STCLASS="BASED(ORIGINAL$)");
      601     2547        %VD$BUFFER (STCLASS="BASED(ORIGINAL$)");
      602     2605        %VD$BUFFER_HEADER (STCLASS="BASED(ORIGINAL$)");
      603     2641        %VD$ENCODED_NODE (STCLASS="BASED(ORIGINAL$)");
      604     2762        %VD$EVAL (STCLASS="BASED(ORIGINAL$)");
      605     3007        %VD$EVAL_PATTERN (STCLASS="BASED(ORIGINAL$)");
      606     3114        %VD$FILE_KEY (STCLASS="BASED(ORIGINAL$)");
      607     3163        %VD$FILE_NODE (STCLASS="BASED(ORIGINAL$)");
      608     3256        %VD$FIT (STCLASS="BASED(ORIGINAL$)");
      609     3292        %VD$IT_ADJUST (STCLASS="BASED(ORIGINAL$)");
      610     3329        %VD$IT_BLOCK_EXPR (STCLASS="BASED(ORIGINAL$)");
      611     3479        %VD$IT_COMMAND (STCLASS="BASED(ORIGINAL$)");
      612     3517        %VD$IT_OPERAND (STCLASS="BASED(ORIGINAL$)");
      613     3583        %VD$IT_OPERATOR (STCLASS="BASED(ORIGINAL$)");
      614     3620        %VD$IT_SELECT (STCLASS="BASED(ORIGINAL$)");
      615     3657        %VD$OBJECT_HEADER (STCLASS="BASED(ORIGINAL$)");
PL6.E3A0      #003=VDG$OCOPY File=VDG$OBJECTS.:VDA5TSI                           FRI 07/04/97 11:21 Page:100
      616     3679        %VD$PATTERN (STCLASS="BASED(ORIGINAL$)");
      617     3730        %VD$RECORD_SET (STCLASS="BASED(ORIGINAL$)");
      618     3808        %VD$STRING_HEADER (STCLASS="BASED(ORIGINAL$)");
      619     3844        %VD$STRUCTURE_SPEC (STCLASS="BASED(ORIGINAL$)");
      620     3881        %VD$TABS (STCLASS="BASED(ORIGINAL$)");
      621     3918        %VD$TEXTC_REMOTE (STCLASS="BASED(ORIGINAL$)");
      622     3979        %VD$WINDOW_BLOCK (STCLASS="BASED(ORIGINAL$)");
      623     4016        %VD$WINDOW_SPEC (STCLASS="BASED(ORIGINAL$)");
      624     4082
      625     4083
      626     4084
      627     4085    1           ORIGINAL$ = ADDR(ORIGINAL);

   4085  0 000002   200003 236100                    LDQ     @ORIGINAL,,AUTO
         0 000003   200005 756100                    STQ     ORIGINAL$,,AUTO

      628     4086    1           ORIGINAL_CLASS = ORIGINAL.CLASS#;

   4086  0 000004   200003 470500                    LDP0    @ORIGINAL,,AUTO
         0 000005   000000 236100                    LDQ     0,,PR0
         0 000006   000022 772000                    QRL     18
         0 000007   200007 756100                    STQ     ORIGINAL_CLASS,,AUTO

      629     4087    1           IF ORIGINAL_CLASS >= %CLS_MX

   4087  0 000010   000143 116007                    CMPQ    99,DL
         0 000011   000016 605000 0                  TPL     s:4089
         0 000012   200007 235100                    LDA     ORIGINAL_CLASS,,AUTO
         0 000013   000001 735000                    ALS     1
         0 000014   000000 220005 xsym               LDX0    VD_OBJECTS,AL
         0 000015   000024 605000 0                  TPL     s:4092

      630     4088    2             OR VD_OBJECTS.SIZE (ORIGINAL_CLASS) < 0 THEN DO;

      631     4089    2              CALL VDG$ESCREECH (ORIGINAL_CLASS);

   4089  0 000016   200007 631500                    EPPR1   ORIGINAL_CLASS,,AUTO
PL6.E3A0      #003=VDG$OCOPY File=VDG$OBJECTS.:VDA5TSI                           FRI 07/04/97 11:21 Page:101
         0 000017   200016 451500                    STP1    I+1,,AUTO
         0 000020   200016 630500                    EPPR0   I+1,,AUTO
         0 000021   000017 631400 xsym               EPPR1   B_VECTNIL+15
         0 000022   000000 701000 xent               TSX1    VDG$ESCREECH
         0 000023   000000 011000                    NOP     0

      632     4090    2              END;

      633     4091
      634     4092    2           DO CASE (ORIGINAL_CLASS);

   4092  0 000024   200007 235100                    LDA     ORIGINAL_CLASS,,AUTO
         0 000025   000004 135007                    SBLA    4,DL
         0 000026   000050 115007                    CMPA    40,DL
         0 000027   000031 602005 0                  TNC     s:4092+5,AL
         0 000030   000117 710000 0                  TRA     s:4104
         0 000031   000101 710000 0                  TRA     s:4094
         0 000032   000117 710000 0                  TRA     s:4104
         0 000033   000117 710000 0                  TRA     s:4104
         0 000034   000117 710000 0                  TRA     s:4104
         0 000035   000117 710000 0                  TRA     s:4104
         0 000036   000117 710000 0                  TRA     s:4104
         0 000037   000117 710000 0                  TRA     s:4104
         0 000040   000117 710000 0                  TRA     s:4104
         0 000041   000117 710000 0                  TRA     s:4104
         0 000042   000117 710000 0                  TRA     s:4104
         0 000043   000117 710000 0                  TRA     s:4104
         0 000044   000117 710000 0                  TRA     s:4104
         0 000045   000117 710000 0                  TRA     s:4104
         0 000046   000117 710000 0                  TRA     s:4104
         0 000047   000117 710000 0                  TRA     s:4104
         0 000050   000117 710000 0                  TRA     s:4104
         0 000051   000117 710000 0                  TRA     s:4104
         0 000052   000117 710000 0                  TRA     s:4104
         0 000053   000117 710000 0                  TRA     s:4104
         0 000054   000117 710000 0                  TRA     s:4104
         0 000055   000117 710000 0                  TRA     s:4104
PL6.E3A0      #003=VDG$OCOPY File=VDG$OBJECTS.:VDA5TSI                           FRI 07/04/97 11:21 Page:102
         0 000056   000117 710000 0                  TRA     s:4104
         0 000057   000117 710000 0                  TRA     s:4104
         0 000060   000117 710000 0                  TRA     s:4104
         0 000061   000117 710000 0                  TRA     s:4104
         0 000062   000117 710000 0                  TRA     s:4104
         0 000063   000117 710000 0                  TRA     s:4104
         0 000064   000117 710000 0                  TRA     s:4104
         0 000065   000117 710000 0                  TRA     s:4104
         0 000066   000117 710000 0                  TRA     s:4104
         0 000067   000117 710000 0                  TRA     s:4104
         0 000070   000117 710000 0                  TRA     s:4104
         0 000071   000117 710000 0                  TRA     s:4104
         0 000072   000117 710000 0                  TRA     s:4104
         0 000073   000117 710000 0                  TRA     s:4104
         0 000074   000117 710000 0                  TRA     s:4104
         0 000075   000117 710000 0                  TRA     s:4104
         0 000076   000117 710000 0                  TRA     s:4104
         0 000077   000117 710000 0                  TRA     s:4104
         0 000100   000110 710000 0                  TRA     s:4099

      635     4093    2            CASE (%CLS_BUFFER);

      636     4094    2              OBJECT_LENGTH =

   4094  0 000101   200005 470500                    LDP0    ORIGINAL$,,AUTO
         0 000102   000002 236100                    LDQ     2,,PR0
         0 000103   000022 732000                    QRS     18
         0 000104   000017 036007                    ADLQ    15,DL
         0 000105   000004 506007                    DIV     4,DL
         0 000106   200010 756100                    STQ     OBJECT_LENGTH,,AUTO
         0 000107   000134 710000 0                  TRA     s:4111

      637     4095    2                (VD$BUFFER.LENGTH#
      638     4096    2                + SIZEC(VD$BUFFER_HEADER)
      639     4097    2                + 3) / %NB_PER_WORD;
      640     4098    2            CASE (%CLS_TEXTC_REMOTE);

PL6.E3A0      #003=VDG$OCOPY File=VDG$OBJECTS.:VDA5TSI                           FRI 07/04/97 11:21 Page:103
      641     4099    2              OBJECT_LENGTH =

   4099  0 000110   200005 470500                    LDP0    ORIGINAL$,,AUTO
         0 000111   000002 236100                    LDQ     2,,PR0
         0 000112   000033 772000                    QRL     27
         0 000113   000017 036007                    ADLQ    15,DL
         0 000114   000002 772000                    QRL     2
         0 000115   200010 756100                    STQ     OBJECT_LENGTH,,AUTO
         0 000116   000134 710000 0                  TRA     s:4111

      642     4100    2                (VD$TEXTC_REMOTE.LENGTH#
      643     4101    2                + SIZEC(VD$STRING_HEADER)
      644     4102    2                + 3) / %NB_PER_WORD;
      645     4103    2            CASE (ELSE);

      646     4104    2              IF ORIGINAL.SIZE# = 0 THEN

   4104  0 000117   200003 470500                    LDP0    @ORIGINAL,,AUTO
         0 000120   000000 720100                    LXL0    0,,PR0
         0 000121   000130 601000 0                  TNZ     s:4107

      647     4105    2                 OBJECT_LENGTH = VD_OBJECTS.SIZE (ORIGINAL_CLASS);

   4105  0 000122   200007 236100                    LDQ     ORIGINAL_CLASS,,AUTO
         0 000123   000001 736000                    QLS     1
         0 000124   000000 236006 xsym               LDQ     VD_OBJECTS,QL
         0 000125   000022 732000                    QRS     18
         0 000126   200010 756100                    STQ     OBJECT_LENGTH,,AUTO
         0 000127   000134 710000 0                  TRA     s:4111

      648     4106    2              ELSE
      649     4107    2                 OBJECT_LENGTH =

   4107  0 000130   000000 236100                    LDQ     0,,PR0
         0 000131   000022 736000                    QLS     18
         0 000132   000022 732000                    QRS     18
         0 000133   200010 756100                    STQ     OBJECT_LENGTH,,AUTO
PL6.E3A0      #003=VDG$OCOPY File=VDG$OBJECTS.:VDA5TSI                           FRI 07/04/97 11:21 Page:104

      650     4108    2                   ORIGINAL.SIZE#;
      651     4109    2            END;

      652     4110
      653     4111    1           CALL VDG$OALLOC (ORIGINAL_CLASS, NEW_PARAM$, OBJECT_LENGTH)

   4111  0 000134   200010 630500                    EPPR0   OBJECT_LENGTH,,AUTO
         0 000135   200020 450500                    STP0    I+3,,AUTO
         0 000136   200004 236100                    LDQ     @NEW_PARAM$,,AUTO
         0 000137   200017 756100                    STQ     I+2,,AUTO
         0 000140   200007 631500                    EPPR1   ORIGINAL_CLASS,,AUTO
         0 000141   200016 451500                    STP1    I+1,,AUTO
         0 000142   200016 630500                    EPPR0   I+1,,AUTO
         0 000143   000021 631400 xsym               EPPR1   B_VECTNIL+17
         0 000144   000000 701000 xent               TSX1    VDG$OALLOC
         0 000145   002070 702000 0                  TSX2    OALLOC_FAILED

      654     4112    1             ALTRET (OALLOC_FAILED);
      655     4113    1           NEW$ = NEW_PARAM$;

   4113  0 000146   200004 470500                    LDP0    @NEW_PARAM$,,AUTO
         0 000147   000000 236100                    LDQ     0,,PR0
         0 000150   200006 756100                    STQ     NEW$,,AUTO

      656     4114
      657     4115    1           NBYTES = (OBJECT_LENGTH * %NB_PER_WORD) - SIZEC(VD$OBJECT_HEADER);

   4115  0 000151   200010 235100                    LDA     OBJECT_LENGTH,,AUTO
         0 000152   000002 735000                    ALS     2
         0 000153   000004 135007                    SBLA    4,DL
         0 000154   200011 755100                    STA     NBYTES,,AUTO

      658     4116
      659     4117    2           IF VD_OBJECTS.STR (ORIGINAL_CLASS) THEN DO;

   4117  0 000155   200007 235100                    LDA     ORIGINAL_CLASS,,AUTO
PL6.E3A0      #003=VDG$OCOPY File=VDG$OBJECTS.:VDA5TSI                           FRI 07/04/97 11:21 Page:105
         0 000156   000001 735000                    ALS     1
         0 000157   000000 236005 xsym               LDQ     VD_OBJECTS,AL
         0 000160   040000 316007                    CANQ    16384,DL
         0 000161   000230 600000 0                  TZE     s:4134

      660     4118    2              IF VD$TEXTC_REMOTE.LENGTH# = 0

   4118  0 000162   200005 471500                    LDP1    ORIGINAL$,,AUTO
         0 000163   100002 236100                    LDQ     2,,PR1
         0 000164   777000 316003                    CANQ    -512,DU
         0 000165   000175 601000 0                  TNZ     s:4123
         0 000166   200007 235100                    LDA     ORIGINAL_CLASS,,AUTO
         0 000167   000053 115007                    CMPA    43,DL
         0 000170   000175 600000 0                  TZE     s:4123

      661     4119    2                AND ORIGINAL_CLASS ~= %CLS_TEXTC_REMOTE THEN
      662     4120    2                 NBYTES = NBYTES - (LENGTHC(VD$STRING_HEADER) -

   4120  0 000171   200011 235100                    LDA     NBYTES,,AUTO
         0 000172   000005 135007                    SBLA    5,DL
         0 000173   200011 755100                    STA     NBYTES,,AUTO
         0 000174   000200 710000 0                  TRA     s:4124

      663     4121    2                   LENGTHC(VD$OBJECT_HEADER));
      664     4122    2              ELSE
      665     4123    2                 NBYTES = VD$TEXTC_REMOTE.LENGTH#;

   4123  0 000175   100002 236100                    LDQ     2,,PR1
         0 000176   000033 772000                    QRL     27
         0 000177   200011 756100                    STQ     NBYTES,,AUTO

      666     4124    2              NEW$->VD$TEXTC_REMOTE.LENGTH# = NBYTES;

   4124  0 000200   200006 473500                    LDP3    NEW$,,AUTO
         0 000201   200011 236100                    LDQ     NBYTES,,AUTO
         0 000202   000033 736000                    QLS     27
         0 000203   300002 552140                    STBQ    2,'40'O,PR3
PL6.E3A0      #003=VDG$OCOPY File=VDG$OBJECTS.:VDA5TSI                           FRI 07/04/97 11:21 Page:106

      667     4125    2              NEW$->VD$TEXTC_REMOTE.BYTES =

   4125  0 000204   300002 236100                    LDQ     2,,PR3
         0 000205   000033 772000                    QRL     27
         0 000206   200011 720100                    LXL0    NBYTES,,AUTO
         0 000207   000000 621006                    EAX1    0,QL
         0 000210   040140 100540                    MLR     fill='040'O
         0 000211   100002 200010                    ADSC9   2,,PR1                   cn=1,n=*X0
         0 000212   300002 200011                    ADSC9   2,,PR3                   cn=1,n=*X1

      668     4126    2                ADDR(VD$TEXTC_REMOTE.BYTES)->VARIABLE$OBJECT;
      669     4127    2              IF VD$STRING_HEADER.FLINK$ ~= ADDR(NIL) THEN

   4127  0 000213   100001 236100                    LDQ     1,,PR1
         0 000214   000001 116000 xsym               CMPQ    B_VECTNIL+1
         0 000215   000301 600000 0                  TZE     s:4159

      670     4128    3   OCOPY_STRING_FLINK: DO;

   4128  0 000216                       OCOPY_STRIN* null
      671     4129    3                 CALL VDG$OCOPY (VD$STRING_HEADER.FLINK$->VD$STRING_HEADER,

   4129  0 000216   100001 474500                    LDP4    1,,PR1
         0 000217   200006 236100                    LDQ     NEW$,,AUTO
         0 000220   000001 036003                    ADLQ    1,DU
         0 000221   200017 756100                    STQ     I+2,,AUTO
         0 000222   200016 454500                    STP4    I+1,,AUTO
         0 000223   200016 630500                    EPPR0   I+1,,AUTO
         0 000224   000020 631400 xsym               EPPR1   B_VECTNIL+16
         0 000225   000000 701000 0                  TSX1    s:59
         0 000226   002070 702000 0                  TSX2    OALLOC_FAILED

      672     4130    3                   NEW$->VD$STRING_HEADER.FLINK$)
      673     4131    3                   ALTRET (OCOPY_FAILED);
      674     4132    3                 END OCOPY_STRING_FLINK;

PL6.E3A0      #003=VDG$OCOPY File=VDG$OBJECTS.:VDA5TSI                           FRI 07/04/97 11:21 Page:107
      675     4133    2              END;

   4133  0 000227   000301 710000 0                  TRA     s:4159

      676     4134    2           ELSE IF VD_OBJECTS.BUF (ORIGINAL_CLASS) THEN DO;

   4134  0 000230   400000 316007                    CANQ    -131072,DL
         0 000231   000273 600000 0                  TZE     s:4152

      677     4135    2                 IF VD$BUFFER.LENGTH# = 0

   4135  0 000232   200005 471500                    LDP1    ORIGINAL$,,AUTO
         0 000233   100002 220100                    LDX0    2,,PR1
         0 000234   000244 601000 0                  TNZ     s:4140
         0 000235   200007 235100                    LDA     ORIGINAL_CLASS,,AUTO
         0 000236   000004 115007                    CMPA    4,DL
         0 000237   000244 600000 0                  TZE     s:4140

      678     4136    2                   AND ORIGINAL_CLASS ~= %CLS_BUFFER THEN
      679     4137    2                    NBYTES = NBYTES - (LENGTHC(VD$BUFFER_HEADER) -

   4137  0 000240   200011 236100                    LDQ     NBYTES,,AUTO
         0 000241   000006 136007                    SBLQ    6,DL
         0 000242   200011 756100                    STQ     NBYTES,,AUTO
         0 000243   000247 710000 0                  TRA     s:4141

      680     4138    2                      LENGTHC(VD$OBJECT_HEADER));
      681     4139    2                 ELSE
      682     4140    2                    NBYTES = VD$BUFFER.LENGTH#;

   4140  0 000244   100002 236100                    LDQ     2,,PR1
         0 000245   000022 732000                    QRS     18
         0 000246   200011 756100                    STQ     NBYTES,,AUTO

      683     4141    2                 NEW$->VD$BUFFER.LENGTH# = VD$BUFFER.LENGTH#;

   4141  0 000247   200006 473500                    LDP3    NEW$,,AUTO
PL6.E3A0      #003=VDG$OCOPY File=VDG$OBJECTS.:VDA5TSI                           FRI 07/04/97 11:21 Page:108
         0 000250   300002 740100                    STX0    2,,PR3

      684     4142    2                 ADDR(NEW$->VD$BUFFER.BYTES)->VARIABLE$OBJECT =

   4142  0 000251   000000 621006                    EAX1    0,QL
         0 000252   200011 722100                    LXL2    NBYTES,,AUTO
         0 000253   040140 100540                    MLR     fill='040'O
         0 000254   100002 400011                    ADSC9   2,,PR1                   cn=2,n=*X1
         0 000255   300002 400012                    ADSC9   2,,PR3                   cn=2,n=*X2

      685     4143    2                   ADDR(VD$BUFFER.BYTES)->VARIABLE$OBJECT;
      686     4144    2                 IF VD$BUFFER_HEADER.FLINK$ ~= ADDR(NIL) THEN

   4144  0 000256   100001 236100                    LDQ     1,,PR1
         0 000257   000001 116000 xsym               CMPQ    B_VECTNIL+1
         0 000260   000301 600000 0                  TZE     s:4159

      687     4145    3   OCOPY_BUFFER_FLINK: DO;

   4145  0 000261                       OCOPY_BUFFE* null
      688     4146    3                    CALL VDG$OCOPY (VD$BUFFER_HEADER.FLINK$->VD$BUFFER_HEADER,

   4146  0 000261   100001 474500                    LDP4    1,,PR1
         0 000262   200006 236100                    LDQ     NEW$,,AUTO
         0 000263   000001 036003                    ADLQ    1,DU
         0 000264   200017 756100                    STQ     I+2,,AUTO
         0 000265   200016 454500                    STP4    I+1,,AUTO
         0 000266   200016 630500                    EPPR0   I+1,,AUTO
         0 000267   000020 631400 xsym               EPPR1   B_VECTNIL+16
         0 000270   000000 701000 0                  TSX1    s:59
         0 000271   002070 702000 0                  TSX2    OALLOC_FAILED

      689     4147    3                      NEW$->VD$BUFFER_HEADER.FLINK$)
      690     4148    3                      ALTRET (OCOPY_FAILED);
      691     4149    3                    END OCOPY_BUFFER_FLINK;

      692     4150    2                 END;
PL6.E3A0      #003=VDG$OCOPY File=VDG$OBJECTS.:VDA5TSI                           FRI 07/04/97 11:21 Page:109

   4150  0 000272   000301 710000 0                  TRA     s:4159

      693     4151    2              ELSE DO;

      694     4152    2                 PINCRW(NEW$, SIZEW(VD$OBJECT_HEADER))->

   4152  0 000273   200005 471500                    LDP1    ORIGINAL$,,AUTO
         0 000274   200011 720100                    LXL0    NBYTES,,AUTO
         0 000275   200006 473500                    LDP3    NEW$,,AUTO
         0 000276   040140 100540                    MLR     fill='040'O
         0 000277   100001 000010                    ADSC9   1,,PR1                   cn=0,n=*X0
         0 000300   300001 000010                    ADSC9   1,,PR3                   cn=0,n=*X0

      695     4153    2                   VARIABLE$OBJECT =
      696     4154    2                   PINCRW(ORIGINAL$, SIZEW(VD$OBJECT_HEADER))->
      697     4155    2                   VARIABLE$OBJECT;
      698     4156    2                 END;

      699     4157
      700     4158
      701     4159    2           DO CASE (ORIGINAL_CLASS);

   4159  0 000301   200007 235100                    LDA     ORIGINAL_CLASS,,AUTO
         0 000302   000060 115007                    CMPA    48,DL
         0 000303   000305 602005 0                  TNC     s:4159+4,AL
         0 000304   002061 710000 0                  TRA     s:4701
         0 000305   002061 710000 0                  TRA     s:4701
         0 000306   000365 710000 0                  TRA     s:4162
         0 000307   000365 710000 0                  TRA     s:4162
         0 000310   002067 710000 0                  TRA     s:4705
         0 000311   002067 710000 0                  TRA     s:4705
         0 000312   002061 710000 0                  TRA     s:4701
         0 000313   002067 710000 0                  TRA     s:4705
         0 000314   002067 710000 0                  TRA     s:4705
         0 000315   002061 710000 0                  TRA     s:4701
         0 000316   000472 710000 0                  TRA     s:4226
PL6.E3A0      #003=VDG$OCOPY File=VDG$OBJECTS.:VDA5TSI                           FRI 07/04/97 11:21 Page:110
         0 000317   002061 710000 0                  TRA     s:4701
         0 000320   000570 710000 0                  TRA     s:4261
         0 000321   000632 710000 0                  TRA     s:4273
         0 000322   002067 710000 0                  TRA     s:4705
         0 000323   000650 710000 0                  TRA     s:4281
         0 000324   000666 710000 0                  TRA     s:4290
         0 000325   002067 710000 0                  TRA     s:4705
         0 000326   001021 710000 0                  TRA     s:4355
         0 000327   001046 710000 0                  TRA     s:4362
         0 000330   001121 710000 0                  TRA     s:4390
         0 000331   001251 710000 0                  TRA     s:4456
         0 000332   001317 710000 0                  TRA     s:4478
         0 000333   001400 710000 0                  TRA     s:4511
         0 000334   001453 710000 0                  TRA     s:4535
         0 000335   002067 710000 0                  TRA     s:4705
         0 000336   002067 710000 0                  TRA     s:4705
         0 000337   002067 710000 0                  TRA     s:4705
         0 000340   002067 710000 0                  TRA     s:4705
         0 000341   002067 710000 0                  TRA     s:4705
         0 000342   001526 710000 0                  TRA     s:4562
         0 000343   002067 710000 0                  TRA     s:4705
         0 000344   002061 710000 0                  TRA     s:4701
         0 000345   002067 710000 0                  TRA     s:4705
         0 000346   002067 710000 0                  TRA     s:4705
         0 000347   002067 710000 0                  TRA     s:4705
         0 000350   002067 710000 0                  TRA     s:4705
         0 000351   002067 710000 0                  TRA     s:4705
         0 000352   002067 710000 0                  TRA     s:4705
         0 000353   002061 710000 0                  TRA     s:4701
         0 000354   002061 710000 0                  TRA     s:4701
         0 000355   002067 710000 0                  TRA     s:4705
         0 000356   002067 710000 0                  TRA     s:4705
         0 000357   002061 710000 0                  TRA     s:4701
         0 000360   002067 710000 0                  TRA     s:4705
         0 000361   001617 710000 0                  TRA     s:4578
         0 000362   001703 710000 0                  TRA     s:4603
         0 000363   002061 710000 0                  TRA     s:4701
PL6.E3A0      #003=VDG$OCOPY File=VDG$OBJECTS.:VDA5TSI                           FRI 07/04/97 11:21 Page:111
         0 000364   002067 710000 0                  TRA     s:4705

      702     4160
      703     4161    2            CASE (%CLS_BLOCK_DESC, %CLS_BLOCK_BUFFER);

      704     4162    2              PTR$ = ORIGINAL$;

   4162  0 000365   200005 236100                    LDQ     ORIGINAL$,,AUTO
         0 000366   200013 756100                    STQ     PTR$,,AUTO

      705     4163    2              NEW_PTR$ = NEW$;

   4163  0 000367   200006 236100                    LDQ     NEW$,,AUTO
         0 000370   200014 756100                    STQ     NEW_PTR$,,AUTO

      706     4164    3              IF ORIGINAL_CLASS = %CLS_BLOCK_BUFFER THEN DO;

   4164  0 000371   000001 115007                    CMPA    1,DL
         0 000372   000411 601000 0                  TNZ     s:4183

      707     4165    3                 PTR$ = PALIGNW(ADDR(VD$BUFFER.BYTES));

   4165  0 000373   200005 236100                    LDQ     ORIGINAL$,,AUTO
         0 000374   000000 036000 1                  ADLQ    0
         0 000375   770000 036007                    ADLQ    -4096,DL
         0 000376   000001 376000 1                  ANQ     1
         0 000377   200013 756100                    STQ     PTR$,,AUTO

      708     4166    3                 NEW_PTR$ = PALIGNW(ADDR(NEW$->VD$BUFFER.BYTES));

   4166  0 000400   200006 236100                    LDQ     NEW$,,AUTO
         0 000401   000000 036000 1                  ADLQ    0
         0 000402   770000 036007                    ADLQ    -4096,DL
         0 000403   000001 376000 1                  ANQ     1
         0 000404   200014 756100                    STQ     NEW_PTR$,,AUTO

      709     4167    3                 NEW_PTR$->VD$BLOCK_DESC.OBJECT = PTR$->VD$BLOCK_DESC.OBJECT;
PL6.E3A0      #003=VDG$OCOPY File=VDG$OBJECTS.:VDA5TSI                           FRI 07/04/97 11:21 Page:112

   4167  0 000405   200013 470500                    LDP0    PTR$,,AUTO
         0 000406   000000 236100                    LDQ     0,,PR0
         0 000407   200014 471500                    LDP1    NEW_PTR$,,AUTO
         0 000410   100000 756100                    STQ     0,,PR1

      710     4168    3                 END;

      711     4169                   %COPYKEY (FKEY=PTR$->VD$BLOCK_DESC.FILE_KEY,
      712     4170                   TKEY=NEW_PTR$->VD$BLOCK_DESC.FILE_KEY);

   4183  0 000411   200013 470500                    LDP0    PTR$,,AUTO
         0 000412   200014 471500                    LDP1    NEW_PTR$,,AUTO
         0 000413   000100 100500                    MLR     fill='000'O
         0 000414   000001 000010                    ADSC9   1,,PR0                   cn=0,n=8
         0 000415   100001 000010                    ADSC9   1,,PR1                   cn=0,n=8

   4183  0 000416   000001 720100                    LXL0    1,,PR0
         0 000417   000002 100003                    CMPX0   2,DU
         0 000420   000434 601000 0                  TNZ     s:4187

   4183  0 000421   000002 473500                    LDP3    2,,PR0
         0 000422   200014 236100                    LDQ     NEW_PTR$,,AUTO
         0 000423   000002 036003                    ADLQ    2,DU
         0 000424   200017 756100                    STQ     I+2,,AUTO
         0 000425   200016 453500                    STP3    I+1,,AUTO
         0 000426   200016 630500                    EPPR0   I+1,,AUTO
         0 000427   000020 631400 xsym               EPPR1   B_VECTNIL+16
         0 000430   000000 701000 0                  TSX1    s:59
         0 000431   000433 702000 0                  TSX2    s:4184
         0 000432   000434 710000 0                  TRA     s:4187

   4184  0 000433   000000 702200 xent               TSX2  ! X66_AALT

      713     4186
      714     4187    2              CALL VDG$OCOPY_RANGE (PTR$->VD$BLOCK_DESC.RANGE,

PL6.E3A0      #003=VDG$OCOPY File=VDG$OBJECTS.:VDA5TSI                           FRI 07/04/97 11:21 Page:113
   4187  0 000434   200014 236100                    LDQ     NEW_PTR$,,AUTO
         0 000435   000003 036003                    ADLQ    3,DU
         0 000436   200017 756100                    STQ     I+2,,AUTO
         0 000437   200013 236100                    LDQ     PTR$,,AUTO
         0 000440   000003 036003                    ADLQ    3,DU
         0 000441   200016 756100                    STQ     I+1,,AUTO
         0 000442   200016 630500                    EPPR0   I+1,,AUTO
         0 000443   000020 631400 xsym               EPPR1   B_VECTNIL+16
         0 000444   000000 701000 xent               TSX1    VDG$OCOPY_RANGE
         0 000445   002070 702000 0                  TSX2    OALLOC_FAILED

      715     4188    2                NEW_PTR$->VD$BLOCK_DESC.RANGE)
      716     4189    2                ALTRET (OCOPY_RANGE_FAILED);
      717     4190
      718     4191                   /* BlockDesc doesn't own .OPTIONS.STRUCTURE$->: don't make a new copy */
      719     4192                   %COPYKEY (FKEY=PTR$->VD$BLOCK_DESC.OPTIONS.KEY_INCR,
      720     4193                   TKEY=NEW_PTR$->VD$BLOCK_DESC.OPTIONS.KEY_INCR);

   4206  0 000446   200013 470500                    LDP0    PTR$,,AUTO
         0 000447   200014 471500                    LDP1    NEW_PTR$,,AUTO
         0 000450   000100 100500                    MLR     fill='000'O
         0 000451   000030 000010                    ADSC9   24,,PR0                  cn=0,n=8
         0 000452   100030 000010                    ADSC9   24,,PR1                  cn=0,n=8

   4206  0 000453   000030 720100                    LXL0    24,,PR0
         0 000454   000002 100003                    CMPX0   2,DU
         0 000455   002067 601000 0                  TNZ     s:4705

   4206  0 000456   000031 473500                    LDP3    25,,PR0
         0 000457   200014 236100                    LDQ     NEW_PTR$,,AUTO
         0 000460   000031 036003                    ADLQ    25,DU
         0 000461   200017 756100                    STQ     I+2,,AUTO
         0 000462   200016 453500                    STP3    I+1,,AUTO
         0 000463   200016 630500                    EPPR0   I+1,,AUTO
         0 000464   000020 631400 xsym               EPPR1   B_VECTNIL+16
         0 000465   000000 701000 0                  TSX1    s:59
         0 000466   000470 702000 0                  TSX2    s:4207
PL6.E3A0      #003=VDG$OCOPY File=VDG$OBJECTS.:VDA5TSI                           FRI 07/04/97 11:21 Page:114
         0 000467   000471 710000 0                  TRA     s:4207+1

   4207  0 000470   000000 702200 xent               TSX2  ! X66_AALT

   4207  0 000471   002067 710000 0                  TRA     s:4705

      721     4209
      722     4210
      723     4211    2            CASE (%CLS_ENCODED_NODE);

      724     4212                   %COPYKEY (FKEY=VD$ENCODED_NODE.DESC.FILE_KEY,
      725     4213                   TKEY=NEW$->VD$ENCODED_NODE.DESC.FILE_KEY);

   4226  0 000472   200005 470500                    LDP0    ORIGINAL$,,AUTO
         0 000473   200006 471500                    LDP1    NEW$,,AUTO
         0 000474   000100 100500                    MLR     fill='000'O
         0 000475   000012 000010                    ADSC9   10,,PR0                  cn=0,n=8
         0 000476   100012 000010                    ADSC9   10,,PR1                  cn=0,n=8

   4226  0 000477   000012 720100                    LXL0    10,,PR0
         0 000500   000002 100003                    CMPX0   2,DU
         0 000501   000515 601000 0                  TNZ     s:4230

   4226  0 000502   000013 473500                    LDP3    11,,PR0
         0 000503   200006 236100                    LDQ     NEW$,,AUTO
         0 000504   000013 036003                    ADLQ    11,DU
         0 000505   200017 756100                    STQ     I+2,,AUTO
         0 000506   200016 453500                    STP3    I+1,,AUTO
         0 000507   200016 630500                    EPPR0   I+1,,AUTO
         0 000510   000020 631400 xsym               EPPR1   B_VECTNIL+16
         0 000511   000000 701000 0                  TSX1    s:59
         0 000512   000514 702000 0                  TSX2    s:4227
         0 000513   000515 710000 0                  TRA     s:4230

   4227  0 000514   000000 702200 xent               TSX2  ! X66_AALT

      726     4229
PL6.E3A0      #003=VDG$OCOPY File=VDG$OBJECTS.:VDA5TSI                           FRI 07/04/97 11:21 Page:115
      727     4230    2              CALL VDG$OCOPY_LOCATION (VD$ENCODED_NODE.DESC.LOCATION,

   4230  0 000515   200006 236100                    LDQ     NEW$,,AUTO
         0 000516   000014 036003                    ADLQ    12,DU
         0 000517   200017 756100                    STQ     I+2,,AUTO
         0 000520   200005 236100                    LDQ     ORIGINAL$,,AUTO
         0 000521   000014 036003                    ADLQ    12,DU
         0 000522   200016 756100                    STQ     I+1,,AUTO
         0 000523   200016 630500                    EPPR0   I+1,,AUTO
         0 000524   000020 631400 xsym               EPPR1   B_VECTNIL+16
         0 000525   000000 701000 xent               TSX1    VDG$OCOPY_LOCATION
         0 000526   002070 702000 0                  TSX2    OALLOC_FAILED

      728     4231    2                NEW$->VD$ENCODED_NODE.DESC.LOCATION)
      729     4232    2                ALTRET (OCOPY_LOCATION_FAILED);
      730     4233
      731     4234                   %COPYSPEC (FSPEC=VD$ENCODED_NODE.DESC.SPEC,
      732     4235                   TSPEC=NEW$->VD$ENCODED_NODE.DESC.SPEC);

   4248  0 000527   200005 470500                    LDP0    ORIGINAL$,,AUTO
         0 000530   200006 471500                    LDP1    NEW$,,AUTO
         0 000531   000100 100500                    MLR     fill='000'O
         0 000532   000026 000010                    ADSC9   22,,PR0                  cn=0,n=8
         0 000533   100026 000010                    ADSC9   22,,PR1                  cn=0,n=8

   4248  0 000534   000026 720100                    LXL0    22,,PR0
         0 000535   000002 100003                    CMPX0   2,DU
         0 000536   000552 601000 0                  TNZ     s:4252

   4248  0 000537   000027 473500                    LDP3    23,,PR0
         0 000540   200006 236100                    LDQ     NEW$,,AUTO
         0 000541   000027 036003                    ADLQ    23,DU
         0 000542   200017 756100                    STQ     I+2,,AUTO
         0 000543   200016 453500                    STP3    I+1,,AUTO
         0 000544   200016 630500                    EPPR0   I+1,,AUTO
         0 000545   000020 631400 xsym               EPPR1   B_VECTNIL+16
         0 000546   000000 701000 0                  TSX1    s:59
PL6.E3A0      #003=VDG$OCOPY File=VDG$OBJECTS.:VDA5TSI                           FRI 07/04/97 11:21 Page:116
         0 000547   000551 702000 0                  TSX2    s:4249
         0 000550   000552 710000 0                  TRA     s:4252

   4249  0 000551   000000 702200 xent               TSX2  ! X66_AALT

      733     4251
      734     4252    2              IF VD$ENCODED_NODE.DESC.DATA$ ~= ADDR(NIL) THEN

   4252  0 000552   200005 470500                    LDP0    ORIGINAL$,,AUTO
         0 000553   000030 236100                    LDQ     24,,PR0
         0 000554   000001 116000 xsym               CMPQ    B_VECTNIL+1
         0 000555   002067 600000 0                  TZE     s:4705

      735     4253    3   OCOPY_ENCODED_NODE_DESC_DATA: DO;

   4253  0 000556                       OCOPY_ENCOD* null
      736     4254    3                 CALL VDG$OCOPY (VD$ENCODED_NODE.DESC.DATA$->VD$BUFFER,

   4254  0 000556   000030 471500                    LDP1    24,,PR0
         0 000557   200006 236100                    LDQ     NEW$,,AUTO
         0 000560   000030 036003                    ADLQ    24,DU
         0 000561   200017 756100                    STQ     I+2,,AUTO
         0 000562   200016 451500                    STP1    I+1,,AUTO
         0 000563   200016 630500                    EPPR0   I+1,,AUTO
         0 000564   000020 631400 xsym               EPPR1   B_VECTNIL+16
         0 000565   000000 701000 0                  TSX1    s:59
         0 000566   002070 702000 0                  TSX2    OALLOC_FAILED

      737     4255    3                   NEW$->VD$ENCODED_NODE.DESC.DATA$)
      738     4256    3                   ALTRET (OCOPY_FAILED);
      739     4257    3                 END OCOPY_ENCODED_NODE_DESC_DATA;

   4257  0 000567   002067 710000 0                  TRA     s:4705

      740     4258
      741     4259
      742     4260    2            CASE (%CLS_EVAL);
PL6.E3A0      #003=VDG$OCOPY File=VDG$OBJECTS.:VDA5TSI                           FRI 07/04/97 11:21 Page:117

      743     4261    2              NEW$->VD$EVAL.BLINK$ = ADDR(NIL); /* Don't copy */

   4261  0 000570   000001 236000 xsym               LDQ     B_VECTNIL+1
         0 000571   200006 470500                    LDP0    NEW$,,AUTO
         0 000572   000001 756100                    STQ     1,,PR0

      744     4262    2              CALL VDG$OCOPY_RANGE (VD$EVAL.ENCLOSING, NEW$->VD$EVAL.ENCLOSING)

   4262  0 000573   200006 236100                    LDQ     NEW$,,AUTO
         0 000574   000002 036003                    ADLQ    2,DU
         0 000575   200017 756100                    STQ     I+2,,AUTO
         0 000576   200005 236100                    LDQ     ORIGINAL$,,AUTO
         0 000577   000002 036003                    ADLQ    2,DU
         0 000600   200016 756100                    STQ     I+1,,AUTO
         0 000601   200016 630500                    EPPR0   I+1,,AUTO
         0 000602   000020 631400 xsym               EPPR1   B_VECTNIL+16
         0 000603   000000 701000 xent               TSX1    VDG$OCOPY_RANGE
         0 000604   002070 702000 0                  TSX2    OALLOC_FAILED

      745     4263    2                ALTRET (OCOPY_RANGE_FAILED);
      746     4264    2              CALL VDG$OCOPY_RANGE (VD$EVAL.RANGE, NEW$->VD$EVAL.RANGE)

   4264  0 000605   200006 236100                    LDQ     NEW$,,AUTO
         0 000606   000024 036003                    ADLQ    20,DU
         0 000607   200017 756100                    STQ     I+2,,AUTO
         0 000610   200005 236100                    LDQ     ORIGINAL$,,AUTO
         0 000611   000024 036003                    ADLQ    20,DU
         0 000612   200016 756100                    STQ     I+1,,AUTO
         0 000613   200016 630500                    EPPR0   I+1,,AUTO
         0 000614   000020 631400 xsym               EPPR1   B_VECTNIL+16
         0 000615   000000 701000 xent               TSX1    VDG$OCOPY_RANGE
         0 000616   002070 702000 0                  TSX2    OALLOC_FAILED

      747     4265    2                ALTRET (OCOPY_RANGE_FAILED);
      748     4266    2              CALL VDG$OCOPY_RANGE (VD$EVAL.LAST_FOUND_RANGE,

PL6.E3A0      #003=VDG$OCOPY File=VDG$OBJECTS.:VDA5TSI                           FRI 07/04/97 11:21 Page:118
   4266  0 000617   200006 236100                    LDQ     NEW$,,AUTO
         0 000620   000046 036003                    ADLQ    38,DU
         0 000621   200017 756100                    STQ     I+2,,AUTO
         0 000622   200005 236100                    LDQ     ORIGINAL$,,AUTO
         0 000623   000046 036003                    ADLQ    38,DU
         0 000624   200016 756100                    STQ     I+1,,AUTO
         0 000625   200016 630500                    EPPR0   I+1,,AUTO
         0 000626   000020 631400 xsym               EPPR1   B_VECTNIL+16
         0 000627   000000 701000 xent               TSX1    VDG$OCOPY_RANGE
         0 000630   002070 702000 0                  TSX2    OALLOC_FAILED
         0 000631   002067 710000 0                  TRA     s:4705

      749     4267    2                NEW$->VD$EVAL.LAST_FOUND_RANGE)
      750     4268    2                ALTRET (OCOPY_RANGE_FAILED);
      751     4269                   /* Eval doesn't own .NODE$->: don't make a new copy */
      752     4270
      753     4271
      754     4272    2            CASE (%CLS_EVAL_PATTERN);

      755     4273    2              NEW$->VD$EVAL_PATTERN.BLINK$ = ADDR(NIL); /* Don't copy */

   4273  0 000632   000001 236000 xsym               LDQ     B_VECTNIL+1
         0 000633   200006 470500                    LDP0    NEW$,,AUTO
         0 000634   000001 756100                    STQ     1,,PR0

      756     4274    2              CALL VDG$OCOPY_RANGE (VD$EVAL_PATTERN.RANGE,

   4274  0 000635   200006 236100                    LDQ     NEW$,,AUTO
         0 000636   000002 036003                    ADLQ    2,DU
         0 000637   200017 756100                    STQ     I+2,,AUTO
         0 000640   200005 236100                    LDQ     ORIGINAL$,,AUTO
         0 000641   000002 036003                    ADLQ    2,DU
         0 000642   200016 756100                    STQ     I+1,,AUTO
         0 000643   200016 630500                    EPPR0   I+1,,AUTO
         0 000644   000020 631400 xsym               EPPR1   B_VECTNIL+16
         0 000645   000000 701000 xent               TSX1    VDG$OCOPY_RANGE
         0 000646   002070 702000 0                  TSX2    OALLOC_FAILED
PL6.E3A0      #003=VDG$OCOPY File=VDG$OBJECTS.:VDA5TSI                           FRI 07/04/97 11:21 Page:119
         0 000647   002067 710000 0                  TRA     s:4705

      757     4275    2                NEW$->VD$EVAL_PATTERN.RANGE)
      758     4276    2                ALTRET (OCOPY_RANGE_FAILED);
      759     4277                   /* EVAL_PATTERN doesn't own .PATTERN$->: don't make a new copy */
      760     4278
      761     4279
      762     4280    2            CASE (%CLS_FILE_KEY);

      763     4281    2              IF VD$FILE_KEY.FLINK$ ~= ADDR(NIL) THEN

   4281  0 000650   200005 470500                    LDP0    ORIGINAL$,,AUTO
         0 000651   000001 236100                    LDQ     1,,PR0
         0 000652   000001 116000 xsym               CMPQ    B_VECTNIL+1
         0 000653   002067 600000 0                  TZE     s:4705

      764     4282    3   OCOPY_FILE_KEY_FLINK: DO;

   4282  0 000654                       OCOPY_FILE_* null
      765     4283    3                 CALL VDG$OCOPY (VD$FILE_KEY.FLINK$->VD$STRING_HEADER,

   4283  0 000654   000001 471500                    LDP1    1,,PR0
         0 000655   200006 236100                    LDQ     NEW$,,AUTO
         0 000656   000001 036003                    ADLQ    1,DU
         0 000657   200017 756100                    STQ     I+2,,AUTO
         0 000660   200016 451500                    STP1    I+1,,AUTO
         0 000661   200016 630500                    EPPR0   I+1,,AUTO
         0 000662   000020 631400 xsym               EPPR1   B_VECTNIL+16
         0 000663   000000 701000 0                  TSX1    s:59
         0 000664   002070 702000 0                  TSX2    OALLOC_FAILED

      766     4284    3                   NEW$->VD$FILE_KEY.FLINK$)
      767     4285    3                   ALTRET (OCOPY_FAILED);
      768     4286    3                 END OCOPY_FILE_KEY_FLINK;

   4286  0 000665   002067 710000 0                  TRA     s:4705

PL6.E3A0      #003=VDG$OCOPY File=VDG$OBJECTS.:VDA5TSI                           FRI 07/04/97 11:21 Page:120
      769     4287
      770     4288
      771     4289    2            CASE (%CLS_FILE_NODE);

      772     4290    2              NEW$->VD$FILE_NODE.BLINK$ = ADDR(NIL); /* Don't copy */

   4290  0 000666   000001 236000 xsym               LDQ     B_VECTNIL+1
         0 000667   200006 470500                    LDP0    NEW$,,AUTO
         0 000670   000001 756100                    STQ     1,,PR0

      773     4291    2              IF VD$FILE_NODE.FLINK$ ~= ADDR(NIL) THEN

   4291  0 000671   200005 471500                    LDP1    ORIGINAL$,,AUTO
         0 000672   100002 236100                    LDQ     2,,PR1
         0 000673   000001 116000 xsym               CMPQ    B_VECTNIL+1
         0 000674   000706 600000 0                  TZE     s:4312

      774     4292    3   OCOPY_FILE_NODE_FLINK: DO;

   4292  0 000675                       OCOPY_FILE_* null
      775     4293    3                 CALL VDG$OCOPY (VD$FILE_NODE.FLINK$->VD$FILE_NODE,

   4293  0 000675   100002 473500                    LDP3    2,,PR1
         0 000676   200006 236100                    LDQ     NEW$,,AUTO
         0 000677   000002 036003                    ADLQ    2,DU
         0 000700   200017 756100                    STQ     I+2,,AUTO
         0 000701   200016 453500                    STP3    I+1,,AUTO
         0 000702   200016 630500                    EPPR0   I+1,,AUTO
         0 000703   000020 631400 xsym               EPPR1   B_VECTNIL+16
         0 000704   000000 701000 0                  TSX1    s:59
         0 000705   002070 702000 0                  TSX2    OALLOC_FAILED

      776     4294    3                   NEW$->VD$FILE_NODE.FLINK$)
      777     4295    3                   ALTRET (OCOPY_FAILED);
      778     4296    3                 END OCOPY_FILE_NODE_FLINK;

      779     4297
PL6.E3A0      #003=VDG$OCOPY File=VDG$OBJECTS.:VDA5TSI                           FRI 07/04/97 11:21 Page:121
      780     4298                   %COPYKEY (FKEY=VD$FILE_NODE.DESC.KEY,
      781     4299                   TKEY=NEW$->VD$FILE_NODE.DESC.KEY);

   4312  0 000706   200005 470500                    LDP0    ORIGINAL$,,AUTO
         0 000707   200006 471500                    LDP1    NEW$,,AUTO
         0 000710   000100 100500                    MLR     fill='000'O
         0 000711   000004 000010                    ADSC9   4,,PR0                   cn=0,n=8
         0 000712   100004 000010                    ADSC9   4,,PR1                   cn=0,n=8

   4312  0 000713   000004 720100                    LXL0    4,,PR0
         0 000714   000002 100003                    CMPX0   2,DU
         0 000715   000731 601000 0                  TNZ     s:4330

   4312  0 000716   000005 473500                    LDP3    5,,PR0
         0 000717   200006 236100                    LDQ     NEW$,,AUTO
         0 000720   000005 036003                    ADLQ    5,DU
         0 000721   200017 756100                    STQ     I+2,,AUTO
         0 000722   200016 453500                    STP3    I+1,,AUTO
         0 000723   200016 630500                    EPPR0   I+1,,AUTO
         0 000724   000020 631400 xsym               EPPR1   B_VECTNIL+16
         0 000725   000000 701000 0                  TSX1    s:59
         0 000726   000730 702000 0                  TSX2    s:4313
         0 000727   000731 710000 0                  TRA     s:4330

   4313  0 000730   000000 702200 xent               TSX2  ! X66_AALT

      782     4315
      783     4316                   %COPYSPEC (FSPEC=VD$FILE_NODE.DESC.SPEC,
      784     4317                   TSPEC=NEW$->VD$FILE_NODE.DESC.SPEC);

   4330  0 000731   200005 470500                    LDP0    ORIGINAL$,,AUTO
         0 000732   200006 471500                    LDP1    NEW$,,AUTO
         0 000733   000100 100500                    MLR     fill='000'O
         0 000734   000006 000010                    ADSC9   6,,PR0                   cn=0,n=8
         0 000735   100006 000010                    ADSC9   6,,PR1                   cn=0,n=8

   4330  0 000736   000006 720100                    LXL0    6,,PR0
PL6.E3A0      #003=VDG$OCOPY File=VDG$OBJECTS.:VDA5TSI                           FRI 07/04/97 11:21 Page:122
         0 000737   000002 100003                    CMPX0   2,DU
         0 000740   000754 601000 0                  TNZ     s:4333

   4330  0 000741   000007 473500                    LDP3    7,,PR0
         0 000742   200006 236100                    LDQ     NEW$,,AUTO
         0 000743   000007 036003                    ADLQ    7,DU
         0 000744   200017 756100                    STQ     I+2,,AUTO
         0 000745   200016 453500                    STP3    I+1,,AUTO
         0 000746   200016 630500                    EPPR0   I+1,,AUTO
         0 000747   000020 631400 xsym               EPPR1   B_VECTNIL+16
         0 000750   000000 701000 0                  TSX1    s:59
         0 000751   000753 702000 0                  TSX2    s:4331
         0 000752   000754 710000 0                  TRA     s:4333

   4331  0 000753   000000 702200 xent               TSX2  ! X66_AALT

      785     4333    2              IF VD$FILE_NODE.DESC.DATA$ ~= ADDR(NIL) THEN

   4333  0 000754   200005 470500                    LDP0    ORIGINAL$,,AUTO
         0 000755   000010 236100                    LDQ     8,,PR0
         0 000756   000001 116000 xsym               CMPQ    B_VECTNIL+1
         0 000757   000771 600000 0                  TZE     s:4340

      786     4334    3   OCOPY_FILE_NODE_DESC_DATA: DO;

   4334  0 000760                       OCOPY_FILE_* null
      787     4335    3                 CALL VDG$OCOPY (VD$FILE_NODE.DESC.DATA$->VD$BUFFER,

   4335  0 000760   000010 471500                    LDP1    8,,PR0
         0 000761   200006 236100                    LDQ     NEW$,,AUTO
         0 000762   000010 036003                    ADLQ    8,DU
         0 000763   200017 756100                    STQ     I+2,,AUTO
         0 000764   200016 451500                    STP1    I+1,,AUTO
         0 000765   200016 630500                    EPPR0   I+1,,AUTO
         0 000766   000020 631400 xsym               EPPR1   B_VECTNIL+16
         0 000767   000000 701000 0                  TSX1    s:59
         0 000770   002070 702000 0                  TSX2    OALLOC_FAILED
PL6.E3A0      #003=VDG$OCOPY File=VDG$OBJECTS.:VDA5TSI                           FRI 07/04/97 11:21 Page:123

      788     4336    3                   NEW$->VD$FILE_NODE.DESC.DATA$)
      789     4337    3                   ALTRET (OCOPY_FAILED);
      790     4338    3                 END OCOPY_FILE_NODE_DESC_DATA;

      791     4339
      792     4340    2              IF VD$FILE_NODE.HEAD$ ~= ADDR(NIL) THEN

   4340  0 000771   200005 470500                    LDP0    ORIGINAL$,,AUTO
         0 000772   000012 236100                    LDQ     10,,PR0
         0 000773   000001 116000 xsym               CMPQ    B_VECTNIL+1
         0 000774   002067 600000 0                  TZE     s:4705

      793     4341    3   OCOPY_FILE_NODE_HEAD: DO;

   4341  0 000775                       OCOPY_FILE_* null
      794     4342    3                 CALL VDG$OCOPY (VD$FILE_NODE.HEAD$->VD$FILE_NODE,

   4342  0 000775   000012 471500                    LDP1    10,,PR0
         0 000776   200006 236100                    LDQ     NEW$,,AUTO
         0 000777   000012 036003                    ADLQ    10,DU
         0 001000   200017 756100                    STQ     I+2,,AUTO
         0 001001   200016 451500                    STP1    I+1,,AUTO
         0 001002   200016 630500                    EPPR0   I+1,,AUTO
         0 001003   000020 631400 xsym               EPPR1   B_VECTNIL+16
         0 001004   000000 701000 0                  TSX1    s:59
         0 001005   002070 702000 0                  TSX2    OALLOC_FAILED

      795     4343    3                   NEW$->VD$FILE_NODE.HEAD$)
      796     4344    3                   ALTRET (OCOPY_FAILED);
      797     4345
      798     4346    3                 NEW$->VD$FILE_NODE.TAIL$ = NEW$->VD$FILE_NODE.HEAD$;

   4346  0 001006   200006 470500                    LDP0    NEW$,,AUTO
         0 001007   000012 236100                    LDQ     10,,PR0
         0 001010   000013 756100                    STQ     11,,PR0

PL6.E3A0      #003=VDG$OCOPY File=VDG$OBJECTS.:VDA5TSI                           FRI 07/04/97 11:21 Page:124
      799     4347    4                 DO WHILE (NEW$->VD$FILE_NODE.TAIL$ ~= ADDR(NIL));

   4347  0 001011   001016 710000 0                  TRA     s:4350

      800     4348    4                    NEW$->VD$FILE_NODE.TAIL$ = NEW$->VD$FILE_NODE.TAIL$->

   4348  0 001012   200006 470500                    LDP0    NEW$,,AUTO
         0 001013   000013 471500                    LDP1    11,,PR0
         0 001014   100002 236100                    LDQ     2,,PR1
         0 001015   000013 756100                    STQ     11,,PR0

      801     4349    4                      VD$FILE_NODE.FLINK$;
      802     4350    4                    END;

   4350  0 001016   000001 116000 xsym               CMPQ    B_VECTNIL+1
         0 001017   001012 601000 0                  TNZ     s:4348

      803     4351    3                 END OCOPY_FILE_NODE_HEAD;

   4351  0 001020   002067 710000 0                  TRA     s:4705

      804     4352
      805     4353
      806     4354    2            CASE (%CLS_FIT);

      807     4355    2              NEW$->VD$FIT.CODE2$ =

   4355  0 001021   200005 236100                    LDQ     ORIGINAL$,,AUTO
         0 001022   000022 772000                    QRL     18
         0 001023   200016 756100                    STQ     I+1,,AUTO
         0 001024   200005 470500                    LDP0    ORIGINAL$,,AUTO
         0 001025   000001 236100                    LDQ     1,,PR0
         0 001026   000022 772000                    QRL     18
         0 001027   200016 136100                    SBLQ    I+1,,AUTO
         0 001030   000022 736000                    QLS     18
         0 001031   200006 036100                    ADLQ    NEW$,,AUTO
         0 001032   200006 471500                    LDP1    NEW$,,AUTO
PL6.E3A0      #003=VDG$OCOPY File=VDG$OBJECTS.:VDA5TSI                           FRI 07/04/97 11:21 Page:125
         0 001033   100001 756100                    STQ     1,,PR1

      808     4356    2                PINCRW(NEW$, POFFW(VD$FIT.CODE2$, ORIGINAL$));
      809     4357    2              NEW$->VD$FIT.CODE3$ =

   4357  0 001034   200005 235100                    LDA     ORIGINAL$,,AUTO
         0 001035   000022 771000                    ARL     18
         0 001036   200016 755100                    STA     I+1,,AUTO
         0 001037   000002 236100                    LDQ     2,,PR0
         0 001040   000022 772000                    QRL     18
         0 001041   200016 136100                    SBLQ    I+1,,AUTO
         0 001042   000022 736000                    QLS     18
         0 001043   200006 036100                    ADLQ    NEW$,,AUTO
         0 001044   100002 756100                    STQ     2,,PR1
         0 001045   002067 710000 0                  TRA     s:4705

      810     4358    2                PINCRW(NEW$, POFFW(VD$FIT.CODE3$, ORIGINAL$));
      811     4359
      812     4360
      813     4361    2            CASE (%CLS_IT_ADJUST);

      814     4362    2              NEW$->VD$IT_ADJUST.PARENT$ = ADDR(NIL); /* Don't copy */

   4362  0 001046   000001 236000 xsym               LDQ     B_VECTNIL+1
         0 001047   200006 470500                    LDP0    NEW$,,AUTO
         0 001050   000001 756100                    STQ     1,,PR0

      815     4363    2              IF VD$IT_ADJUST.FLINK$ ~= ADDR(NIL) THEN

   4363  0 001051   200005 471500                    LDP1    ORIGINAL$,,AUTO
         0 001052   100002 236100                    LDQ     2,,PR1
         0 001053   000001 116000 xsym               CMPQ    B_VECTNIL+1
         0 001054   001066 600000 0                  TZE     s:4370

      816     4364    3   OCOPY_IT_ADJUST_FLINK: DO;

   4364  0 001055                       OCOPY_IT_AD* null
PL6.E3A0      #003=VDG$OCOPY File=VDG$OBJECTS.:VDA5TSI                           FRI 07/04/97 11:21 Page:126
      817     4365    3                 CALL VDG$OCOPY (VD$IT_ADJUST.FLINK$->VD$IT_ADJUST,

   4365  0 001055   100002 473500                    LDP3    2,,PR1
         0 001056   200006 236100                    LDQ     NEW$,,AUTO
         0 001057   000002 036003                    ADLQ    2,DU
         0 001060   200017 756100                    STQ     I+2,,AUTO
         0 001061   200016 453500                    STP3    I+1,,AUTO
         0 001062   200016 630500                    EPPR0   I+1,,AUTO
         0 001063   000020 631400 xsym               EPPR1   B_VECTNIL+16
         0 001064   000000 701000 0                  TSX1    s:59
         0 001065   002070 702000 0                  TSX2    OALLOC_FAILED

      818     4366    3                   NEW$->VD$IT_ADJUST.FLINK$)
      819     4367    3                   ALTRET (OCOPY_FAILED);
      820     4368    3                 END OCOPY_IT_ADJUST_FLINK;

      821     4369
      822     4370    2              IF VD$IT_ADJUST.MOVEMENTS$ ~= ADDR(NIL) THEN

   4370  0 001066   200005 470500                    LDP0    ORIGINAL$,,AUTO
         0 001067   000004 236100                    LDQ     4,,PR0
         0 001070   000001 116000 xsym               CMPQ    B_VECTNIL+1
         0 001071   002067 600000 0                  TZE     s:4705

      823     4371    3   OCOPY_IT_ADJUST_MOVEMENTS: DO;

   4371  0 001072                       OCOPY_IT_AD* null
      824     4372                      /* VD$IT_ADJUST.MOVEMENTS$ actually points to any InTree node */
      825     4373    3                 CALL VDG$OCOPY (VD$IT_ADJUST.MOVEMENTS$->VD$INTREE_NODE,

   4373  0 001072   000004 471500                    LDP1    4,,PR0
         0 001073   200006 236100                    LDQ     NEW$,,AUTO
         0 001074   000004 036003                    ADLQ    4,DU
         0 001075   200017 756100                    STQ     I+2,,AUTO
         0 001076   200016 451500                    STP1    I+1,,AUTO
         0 001077   200016 630500                    EPPR0   I+1,,AUTO
         0 001100   000020 631400 xsym               EPPR1   B_VECTNIL+16
PL6.E3A0      #003=VDG$OCOPY File=VDG$OBJECTS.:VDA5TSI                           FRI 07/04/97 11:21 Page:127
         0 001101   000000 701000 0                  TSX1    s:59
         0 001102   002070 702000 0                  TSX2    OALLOC_FAILED

      826     4374    3                   NEW$->VD$IT_ADJUST.MOVEMENTS$)
      827     4375    3                   ALTRET (OCOPY_FAILED);
      828     4376
      829     4377    3                 NEW$->VD$IT_ADJUST.MOVEMENTS_TAIL$ =

   4377  0 001103   200006 470500                    LDP0    NEW$,,AUTO
         0 001104   000004 236100                    LDQ     4,,PR0
         0 001105   000005 756100                    STQ     5,,PR0

      830     4378    3                   NEW$->VD$IT_ADJUST.MOVEMENTS$;
      831     4379    4                 DO WHILE (NEW$->VD$IT_ADJUST.MOVEMENTS_TAIL$ ~= ADDR(NIL));

   4379  0 001106   001116 710000 0                  TRA     s:4385

      832     4380    4                    NEW$->VD$IT_ADJUST.MOVEMENTS_TAIL$->

   4380  0 001107   200006 470500                    LDP0    NEW$,,AUTO
         0 001110   000005 471500                    LDP1    5,,PR0
         0 001111   200006 236100                    LDQ     NEW$,,AUTO
         0 001112   100001 756100                    STQ     1,,PR1

      833     4381    4                      VD$INTREE_NODE.PARENT$ = NEW$;
      834     4382    4                    NEW$->VD$IT_ADJUST.MOVEMENTS_TAIL$ =

   4382  0 001113   000005 471500                    LDP1    5,,PR0
         0 001114   100002 236100                    LDQ     2,,PR1
         0 001115   000005 756100                    STQ     5,,PR0

      835     4383    4                      NEW$->VD$IT_ADJUST.MOVEMENTS_TAIL$->
      836     4384    4                      VD$INTREE_NODE.FLINK$;
      837     4385    4                    END;

   4385  0 001116   000001 116000 xsym               CMPQ    B_VECTNIL+1
         0 001117   001107 601000 0                  TNZ     s:4380
PL6.E3A0      #003=VDG$OCOPY File=VDG$OBJECTS.:VDA5TSI                           FRI 07/04/97 11:21 Page:128

      838     4386    3                 END OCOPY_IT_ADJUST_MOVEMENTS;

   4386  0 001120   002067 710000 0                  TRA     s:4705

      839     4387
      840     4388
      841     4389    2            CASE (%CLS_IT_BLOCK_EXPR);

      842     4390    2              IF VD$IT_BLOCK_EXPR.FLINK$ ~= ADDR(NIL) THEN

   4390  0 001121   200005 470500                    LDP0    ORIGINAL$,,AUTO
         0 001122   000002 236100                    LDQ     2,,PR0
         0 001123   000001 116000 xsym               CMPQ    B_VECTNIL+1
         0 001124   001136 600000 0                  TZE     s:4411

      843     4391    3   OCOPY_IT_BLOCK_EXPR_FLINK: DO;

   4391  0 001125                       OCOPY_IT_BL* null
      844     4392    3                 CALL VDG$OCOPY (VD$IT_BLOCK_EXPR.FLINK$->VD$IT_BLOCK_EXPR,

   4392  0 001125   000002 471500                    LDP1    2,,PR0
         0 001126   200006 236100                    LDQ     NEW$,,AUTO
         0 001127   000002 036003                    ADLQ    2,DU
         0 001130   200017 756100                    STQ     I+2,,AUTO
         0 001131   200016 451500                    STP1    I+1,,AUTO
         0 001132   200016 630500                    EPPR0   I+1,,AUTO
         0 001133   000020 631400 xsym               EPPR1   B_VECTNIL+16
         0 001134   000000 701000 0                  TSX1    s:59
         0 001135   002070 702000 0                  TSX2    OALLOC_FAILED

      845     4393    3                   NEW$->VD$IT_BLOCK_EXPR.FLINK$)
      846     4394    3                   ALTRET (OCOPY_FAILED);
      847     4395    3                 END OCOPY_IT_BLOCK_EXPR_FLINK;

      848     4396
      849     4397                   %COPYKEY (FKEY="VD$IT_BLOCK_EXPR.DOMAINN.FILE_KEY",
PL6.E3A0      #003=VDG$OCOPY File=VDG$OBJECTS.:VDA5TSI                           FRI 07/04/97 11:21 Page:129
      850     4398                   TKEY="NEW$->VD$IT_BLOCK_EXPR.DOMAINN.FILE_KEY");

   4411  0 001136   200005 470500                    LDP0    ORIGINAL$,,AUTO
         0 001137   200006 471500                    LDP1    NEW$,,AUTO
         0 001140   000100 100500                    MLR     fill='000'O
         0 001141   000004 000010                    ADSC9   4,,PR0                   cn=0,n=8
         0 001142   100004 000010                    ADSC9   4,,PR1                   cn=0,n=8

   4411  0 001143   000004 720100                    LXL0    4,,PR0
         0 001144   000002 100003                    CMPX0   2,DU
         0 001145   001161 601000 0                  TNZ     s:4414

   4411  0 001146   000005 473500                    LDP3    5,,PR0
         0 001147   200006 236100                    LDQ     NEW$,,AUTO
         0 001150   000005 036003                    ADLQ    5,DU
         0 001151   200017 756100                    STQ     I+2,,AUTO
         0 001152   200016 453500                    STP3    I+1,,AUTO
         0 001153   200016 630500                    EPPR0   I+1,,AUTO
         0 001154   000020 631400 xsym               EPPR1   B_VECTNIL+16
         0 001155   000000 701000 0                  TSX1    s:59
         0 001156   001160 702000 0                  TSX2    s:4412
         0 001157   001161 710000 0                  TRA     s:4414

   4412  0 001160   000000 702200 xent               TSX2  ! X66_AALT

      851     4414    2              CALL VDG$OCOPY_RANGE (VD$IT_BLOCK_EXPR.DOMAINN.RANGE,

   4414  0 001161   200006 236100                    LDQ     NEW$,,AUTO
         0 001162   000006 036003                    ADLQ    6,DU
         0 001163   200017 756100                    STQ     I+2,,AUTO
         0 001164   200005 236100                    LDQ     ORIGINAL$,,AUTO
         0 001165   000006 036003                    ADLQ    6,DU
         0 001166   200016 756100                    STQ     I+1,,AUTO
         0 001167   200016 630500                    EPPR0   I+1,,AUTO
         0 001170   000020 631400 xsym               EPPR1   B_VECTNIL+16
         0 001171   000000 701000 xent               TSX1    VDG$OCOPY_RANGE
         0 001172   002070 702000 0                  TSX2    OALLOC_FAILED
PL6.E3A0      #003=VDG$OCOPY File=VDG$OBJECTS.:VDA5TSI                           FRI 07/04/97 11:21 Page:130

      852     4415    2                NEW$->VD$IT_BLOCK_EXPR.DOMAINN.RANGE)
      853     4416    2                ALTRET (OCOPY_RANGE_FAILED);
      854     4417
      855     4418                 /* ItBlockExpr doesn't own .OPTIONS.STRUCTURE$->: don't make a new copy */
      856     4419                   %COPYKEY (FKEY=VD$IT_BLOCK_EXPR.OPTIONS.KEY_INCR,
      857     4420                   TKEY=NEW$->VD$IT_BLOCK_EXPR.OPTIONS.KEY_INCR);

   4433  0 001173   200005 470500                    LDP0    ORIGINAL$,,AUTO
         0 001174   200006 471500                    LDP1    NEW$,,AUTO
         0 001175   000100 100500                    MLR     fill='000'O
         0 001176   000033 000010                    ADSC9   27,,PR0                  cn=0,n=8
         0 001177   100033 000010                    ADSC9   27,,PR1                  cn=0,n=8

   4433  0 001200   000033 720100                    LXL0    27,,PR0
         0 001201   000002 100003                    CMPX0   2,DU
         0 001202   001216 601000 0                  TNZ     s:4437

   4433  0 001203   000034 473500                    LDP3    28,,PR0
         0 001204   200006 236100                    LDQ     NEW$,,AUTO
         0 001205   000034 036003                    ADLQ    28,DU
         0 001206   200017 756100                    STQ     I+2,,AUTO
         0 001207   200016 453500                    STP3    I+1,,AUTO
         0 001210   200016 630500                    EPPR0   I+1,,AUTO
         0 001211   000020 631400 xsym               EPPR1   B_VECTNIL+16
         0 001212   000000 701000 0                  TSX1    s:59
         0 001213   001215 702000 0                  TSX2    s:4434
         0 001214   001216 710000 0                  TRA     s:4437

   4434  0 001215   000000 702200 xent               TSX2  ! X66_AALT

      858     4436
      859     4437    2              IF VD$IT_BLOCK_EXPR.SELECTS$ ~= ADDR(NIL) THEN

   4437  0 001216   200005 470500                    LDP0    ORIGINAL$,,AUTO
         0 001217   000035 236100                    LDQ     29,,PR0
         0 001220   000001 116000 xsym               CMPQ    B_VECTNIL+1
PL6.E3A0      #003=VDG$OCOPY File=VDG$OBJECTS.:VDA5TSI                           FRI 07/04/97 11:21 Page:131
         0 001221   002067 600000 0                  TZE     s:4705

      860     4438    3   OCOPY_IT_BLOCK_EXPR_SELECTS: DO;

   4438  0 001222                       OCOPY_IT_BL* null
      861     4439    3                 CALL VDG$OCOPY (VD$IT_BLOCK_EXPR.SELECTS$->VD$IT_SELECT,

   4439  0 001222   000035 471500                    LDP1    29,,PR0
         0 001223   200006 236100                    LDQ     NEW$,,AUTO
         0 001224   000035 036003                    ADLQ    29,DU
         0 001225   200017 756100                    STQ     I+2,,AUTO
         0 001226   200016 451500                    STP1    I+1,,AUTO
         0 001227   200016 630500                    EPPR0   I+1,,AUTO
         0 001230   000020 631400 xsym               EPPR1   B_VECTNIL+16
         0 001231   000000 701000 0                  TSX1    s:59
         0 001232   002070 702000 0                  TSX2    OALLOC_FAILED

      862     4440    3                   NEW$->VD$IT_BLOCK_EXPR.SELECTS$)
      863     4441    3                   ALTRET (OCOPY_FAILED);
      864     4442
      865     4443    3                 NEW$->VD$IT_BLOCK_EXPR.SELECTS_TAIL$ =

   4443  0 001233   200006 470500                    LDP0    NEW$,,AUTO
         0 001234   000035 236100                    LDQ     29,,PR0
         0 001235   000036 756100                    STQ     30,,PR0

      866     4444    3                   NEW$->VD$IT_BLOCK_EXPR.SELECTS$;
      867     4445    4                 DO WHILE (NEW$->VD$IT_BLOCK_EXPR.SELECTS_TAIL$ ~= ADDR(NIL));

   4445  0 001236   001246 710000 0                  TRA     s:4451

      868     4446    4                    NEW$->VD$IT_BLOCK_EXPR.SELECTS_TAIL$->

   4446  0 001237   200006 470500                    LDP0    NEW$,,AUTO
         0 001240   000036 471500                    LDP1    30,,PR0
         0 001241   200006 236100                    LDQ     NEW$,,AUTO
         0 001242   100001 756100                    STQ     1,,PR1
PL6.E3A0      #003=VDG$OCOPY File=VDG$OBJECTS.:VDA5TSI                           FRI 07/04/97 11:21 Page:132

      869     4447    4                      VD$IT_SELECT.PARENT$ = NEW$;
      870     4448    4                    NEW$->VD$IT_BLOCK_EXPR.SELECTS_TAIL$ =

   4448  0 001243   000036 471500                    LDP1    30,,PR0
         0 001244   100002 236100                    LDQ     2,,PR1
         0 001245   000036 756100                    STQ     30,,PR0

      871     4449    4                      NEW$->VD$IT_BLOCK_EXPR.SELECTS_TAIL$->
      872     4450    4                      VD$IT_SELECT.FLINK$;
      873     4451    4                    END;

   4451  0 001246   000001 116000 xsym               CMPQ    B_VECTNIL+1
         0 001247   001237 601000 0                  TNZ     s:4446

      874     4452    3                 END OCOPY_IT_BLOCK_EXPR_SELECTS;

   4452  0 001250   002067 710000 0                  TRA     s:4705

      875     4453
      876     4454
      877     4455    2            CASE (%CLS_IT_COMMAND);

      878     4456    2              NEW$->VD$IT_COMMAND.PARENT$ = ADDR(NIL); /* Don't copy */

   4456  0 001251   000001 236000 xsym               LDQ     B_VECTNIL+1
         0 001252   200006 470500                    LDP0    NEW$,,AUTO
         0 001253   000001 756100                    STQ     1,,PR0

      879     4457    2              IF VD$IT_COMMAND.FLINK$ ~= ADDR(NIL) THEN

   4457  0 001254   200005 471500                    LDP1    ORIGINAL$,,AUTO
         0 001255   100002 236100                    LDQ     2,,PR1
         0 001256   000001 116000 xsym               CMPQ    B_VECTNIL+1
         0 001257   001271 600000 0                  TZE     s:4466

      880     4458    3   OCOPY_IT_COMMAND_FLINK: DO;
PL6.E3A0      #003=VDG$OCOPY File=VDG$OBJECTS.:VDA5TSI                           FRI 07/04/97 11:21 Page:133

   4458  0 001260                       OCOPY_IT_CO* null
      881     4459    3                 CALL VDG$OCOPY (VD$IT_COMMAND.FLINK$->VD$INTREE_NODE,

   4459  0 001260   100002 473500                    LDP3    2,,PR1
         0 001261   200006 236100                    LDQ     NEW$,,AUTO
         0 001262   000002 036003                    ADLQ    2,DU
         0 001263   200017 756100                    STQ     I+2,,AUTO
         0 001264   200016 453500                    STP3    I+1,,AUTO
         0 001265   200016 630500                    EPPR0   I+1,,AUTO
         0 001266   000020 631400 xsym               EPPR1   B_VECTNIL+16
         0 001267   000000 701000 0                  TSX1    s:59
         0 001270   002070 702000 0                  TSX2    OALLOC_FAILED

      882     4460    3                   NEW$->VD$IT_COMMAND.FLINK$)
      883     4461    3                   ALTRET (OCOPY_FAILED);
      884     4462    3                 END OCOPY_IT_COMMAND_FLINK;

      885     4463
      886     4464                   /* IT_COMMAND doesn't own .PT_BLOCK_EXPR$->: don't make new copy */
      887     4465
      888     4466    3              DO I = 0 TO %(MX_COMMAND_PARAMS-1);

   4466  0 001271   200015 450100                    STZ     I,,AUTO

      889     4467    3                 IF VD$IT_COMMAND.PARAM$ (I) ~= ADDR(NIL) THEN

   4467  0 001272   200005 470500                    LDP0    ORIGINAL$,,AUTO
         0 001273   200015 720100                    LXL0    I,,AUTO
         0 001274   000006 236110                    LDQ     6,X0,PR0
         0 001275   000001 116000 xsym               CMPQ    B_VECTNIL+1
         0 001276   001312 600000 0                  TZE     s:4474

      890     4468    4   OCOPY_IT_COMMAND_PARAM: DO;

   4468  0 001277                       OCOPY_IT_CO* null
      891     4469    4                    CALL VDG$OCOPY (VD$IT_COMMAND.PARAM$ (I)->
PL6.E3A0      #003=VDG$OCOPY File=VDG$OBJECTS.:VDA5TSI                           FRI 07/04/97 11:21 Page:134

   4469  0 001277   000006 471510                    LDP1    6,X0,PR0
         0 001300   200015 236100                    LDQ     I,,AUTO
         0 001301   000022 736000                    QLS     18
         0 001302   000006 036003                    ADLQ    6,DU
         0 001303   200006 036100                    ADLQ    NEW$,,AUTO
         0 001304   200017 756100                    STQ     I+2,,AUTO
         0 001305   200016 451500                    STP1    I+1,,AUTO
         0 001306   200016 630500                    EPPR0   I+1,,AUTO
         0 001307   000020 631400 xsym               EPPR1   B_VECTNIL+16
         0 001310   000000 701000 0                  TSX1    s:59
         0 001311   002070 702000 0                  TSX2    OALLOC_FAILED

      892     4470    4                      VD$OBJECT_HEADER,
      893     4471    4                      NEW$->VD$IT_COMMAND.PARAM$ (I))
      894     4472    4                      ALTRET (OCOPY_FAILED);
      895     4473    4                    END OCOPY_IT_COMMAND_PARAM;

      896     4474    3                 END;

   4474  0 001312   200015 054100                    AOS     I,,AUTO
         0 001313   200015 235100                    LDA     I,,AUTO
         0 001314   000010 115007                    CMPA    8,DL
         0 001315   001272 604400 0                  TMOZ    s:4467
         0 001316   002067 710000 0                  TRA     s:4705

      897     4475
      898     4476
      899     4477    2            CASE (%CLS_IT_OPERAND);

      900     4478    2              NEW$->VD$IT_OPERAND.PARENT$ = ADDR(NIL); /* Don't copy */

   4478  0 001317   000001 236000 xsym               LDQ     B_VECTNIL+1
         0 001320   200006 470500                    LDP0    NEW$,,AUTO
         0 001321   000001 756100                    STQ     1,,PR0

      901     4479    2              IF VD$IT_OPERAND.FLINK$ ~= ADDR(NIL) THEN
PL6.E3A0      #003=VDG$OCOPY File=VDG$OBJECTS.:VDA5TSI                           FRI 07/04/97 11:21 Page:135

   4479  0 001322   200005 471500                    LDP1    ORIGINAL$,,AUTO
         0 001323   100002 236100                    LDQ     2,,PR1
         0 001324   000001 116000 xsym               CMPQ    B_VECTNIL+1
         0 001325   001337 600000 0                  TZE     s:4499

      902     4480    3   OCOPY_IT_OPERAND_FLINK: DO;

   4480  0 001326                       OCOPY_IT_OP* null
      903     4481    3                 CALL VDG$OCOPY (VD$IT_OPERAND.FLINK$->VD$INTREE_NODE,

   4481  0 001326   100002 473500                    LDP3    2,,PR1
         0 001327   200006 236100                    LDQ     NEW$,,AUTO
         0 001330   000002 036003                    ADLQ    2,DU
         0 001331   200017 756100                    STQ     I+2,,AUTO
         0 001332   200016 453500                    STP3    I+1,,AUTO
         0 001333   200016 630500                    EPPR0   I+1,,AUTO
         0 001334   000020 631400 xsym               EPPR1   B_VECTNIL+16
         0 001335   000000 701000 0                  TSX1    s:59
         0 001336   002070 702000 0                  TSX2    OALLOC_FAILED

      904     4482    3                   NEW$->VD$IT_OPERAND.FLINK$)
      905     4483    3                   ALTRET (OCOPY_FAILED);
      906     4484    3                 END OCOPY_IT_OPERAND_FLINK;

      907     4485
      908     4486                   %COPYKEY (FKEY=VD$IT_OPERAND.KEY, TKEY=NEW$->VD$IT_OPERAND.KEY);

   4499  0 001337   200005 470500                    LDP0    ORIGINAL$,,AUTO
         0 001340   200006 471500                    LDP1    NEW$,,AUTO
         0 001341   000100 100500                    MLR     fill='000'O
         0 001342   000006 000010                    ADSC9   6,,PR0                   cn=0,n=8
         0 001343   100006 000010                    ADSC9   6,,PR1                   cn=0,n=8

   4499  0 001344   000006 720100                    LXL0    6,,PR0
         0 001345   000002 100003                    CMPX0   2,DU
         0 001346   001362 601000 0                  TNZ     s:4502
PL6.E3A0      #003=VDG$OCOPY File=VDG$OBJECTS.:VDA5TSI                           FRI 07/04/97 11:21 Page:136

   4499  0 001347   000007 473500                    LDP3    7,,PR0
         0 001350   200006 236100                    LDQ     NEW$,,AUTO
         0 001351   000007 036003                    ADLQ    7,DU
         0 001352   200017 756100                    STQ     I+2,,AUTO
         0 001353   200016 453500                    STP3    I+1,,AUTO
         0 001354   200016 630500                    EPPR0   I+1,,AUTO
         0 001355   000020 631400 xsym               EPPR1   B_VECTNIL+16
         0 001356   000000 701000 0                  TSX1    s:59
         0 001357   001361 702000 0                  TSX2    s:4500
         0 001360   001362 710000 0                  TRA     s:4502

   4500  0 001361   000000 702200 xent               TSX2  ! X66_AALT

      909     4502    2              IF VD$IT_OPERAND.PARAM$ ~= ADDR(NIL) THEN

   4502  0 001362   200005 470500                    LDP0    ORIGINAL$,,AUTO
         0 001363   000010 236100                    LDQ     8,,PR0
         0 001364   000001 116000 xsym               CMPQ    B_VECTNIL+1
         0 001365   002067 600000 0                  TZE     s:4705

      910     4503    3   OCOPY_IT_OPERAND_PARAM: DO;

   4503  0 001366                       OCOPY_IT_OP* null
      911     4504    3                 CALL VDG$OCOPY (VD$IT_OPERAND.PARAM$->VD$OBJECT_HEADER,

   4504  0 001366   000010 471500                    LDP1    8,,PR0
         0 001367   200006 236100                    LDQ     NEW$,,AUTO
         0 001370   000010 036003                    ADLQ    8,DU
         0 001371   200017 756100                    STQ     I+2,,AUTO
         0 001372   200016 451500                    STP1    I+1,,AUTO
         0 001373   200016 630500                    EPPR0   I+1,,AUTO
         0 001374   000020 631400 xsym               EPPR1   B_VECTNIL+16
         0 001375   000000 701000 0                  TSX1    s:59
         0 001376   002070 702000 0                  TSX2    OALLOC_FAILED

      912     4505    3                   NEW$->VD$IT_OPERAND.PARAM$)
PL6.E3A0      #003=VDG$OCOPY File=VDG$OBJECTS.:VDA5TSI                           FRI 07/04/97 11:21 Page:137
      913     4506    3                   ALTRET (OCOPY_FAILED);
      914     4507    3                 END OCOPY_IT_OPERAND_PARAM;

   4507  0 001377   002067 710000 0                  TRA     s:4705

      915     4508
      916     4509
      917     4510    2            CASE (%CLS_IT_OPERATOR);

      918     4511    2              NEW$->VD$IT_OPERATOR.PARENT$ = ADDR(NIL); /* Don't copy */

   4511  0 001400   000001 236000 xsym               LDQ     B_VECTNIL+1
         0 001401   200006 470500                    LDP0    NEW$,,AUTO
         0 001402   000001 756100                    STQ     1,,PR0

      919     4512    2              IF VD$IT_OPERATOR.FLINK$ ~= ADDR(NIL) THEN

   4512  0 001403   200005 471500                    LDP1    ORIGINAL$,,AUTO
         0 001404   100002 236100                    LDQ     2,,PR1
         0 001405   000001 116000 xsym               CMPQ    B_VECTNIL+1
         0 001406   001420 600000 0                  TZE     s:4519

      920     4513    3   OCOPY_IT_OPERATOR_FLINK: DO;

   4513  0 001407                       OCOPY_IT_OP* null
      921     4514    3                 CALL VDG$OCOPY (VD$IT_OPERATOR.FLINK$->VD$INTREE_NODE,

   4514  0 001407   100002 473500                    LDP3    2,,PR1
         0 001410   200006 236100                    LDQ     NEW$,,AUTO
         0 001411   000002 036003                    ADLQ    2,DU
         0 001412   200017 756100                    STQ     I+2,,AUTO
         0 001413   200016 453500                    STP3    I+1,,AUTO
         0 001414   200016 630500                    EPPR0   I+1,,AUTO
         0 001415   000020 631400 xsym               EPPR1   B_VECTNIL+16
         0 001416   000000 701000 0                  TSX1    s:59
         0 001417   002070 702000 0                  TSX2    OALLOC_FAILED

PL6.E3A0      #003=VDG$OCOPY File=VDG$OBJECTS.:VDA5TSI                           FRI 07/04/97 11:21 Page:138
      922     4515    3                   NEW$->VD$IT_OPERATOR.FLINK$)
      923     4516    3                   ALTRET (OCOPY_FAILED);
      924     4517    3                 END OCOPY_IT_OPERATOR_FLINK;

      925     4518
      926     4519    2              IF VD$IT_OPERATOR.OPERAND$ ~= ADDR(NIL) THEN

   4519  0 001420   200005 470500                    LDP0    ORIGINAL$,,AUTO
         0 001421   000004 236100                    LDQ     4,,PR0
         0 001422   000001 116000 xsym               CMPQ    B_VECTNIL+1
         0 001423   001435 600000 0                  TZE     s:4526

      927     4520    3   OCOPY_IT_OPERATOR_OPERAND: DO;

   4520  0 001424                       OCOPY_IT_OP* null
      928     4521    3                 CALL VDG$OCOPY (VD$IT_OPERATOR.OPERAND$->VD$INTREE_NODE,

   4521  0 001424   000004 471500                    LDP1    4,,PR0
         0 001425   200006 236100                    LDQ     NEW$,,AUTO
         0 001426   000004 036003                    ADLQ    4,DU
         0 001427   200017 756100                    STQ     I+2,,AUTO
         0 001430   200016 451500                    STP1    I+1,,AUTO
         0 001431   200016 630500                    EPPR0   I+1,,AUTO
         0 001432   000020 631400 xsym               EPPR1   B_VECTNIL+16
         0 001433   000000 701000 0                  TSX1    s:59
         0 001434   002070 702000 0                  TSX2    OALLOC_FAILED

      929     4522    3                   NEW$->VD$IT_OPERATOR.OPERAND$)
      930     4523    3                   ALTRET (OCOPY_FAILED);
      931     4524    3                 END OCOPY_IT_OPERATOR_OPERAND;

      932     4525
      933     4526    2              IF VD$IT_OPERATOR.R_OPERAND$ ~= ADDR(NIL) THEN

   4526  0 001435   200005 470500                    LDP0    ORIGINAL$,,AUTO
         0 001436   000005 236100                    LDQ     5,,PR0
         0 001437   000001 116000 xsym               CMPQ    B_VECTNIL+1
PL6.E3A0      #003=VDG$OCOPY File=VDG$OBJECTS.:VDA5TSI                           FRI 07/04/97 11:21 Page:139
         0 001440   002067 600000 0                  TZE     s:4705

      934     4527    3   OCOPY_IT_OPERATOR_R_OPERAND: DO;

   4527  0 001441                       OCOPY_IT_OP* null
      935     4528    3                 CALL VDG$OCOPY (VD$IT_OPERATOR.R_OPERAND$->VD$INTREE_NODE,

   4528  0 001441   000005 471500                    LDP1    5,,PR0
         0 001442   200006 236100                    LDQ     NEW$,,AUTO
         0 001443   000005 036003                    ADLQ    5,DU
         0 001444   200017 756100                    STQ     I+2,,AUTO
         0 001445   200016 451500                    STP1    I+1,,AUTO
         0 001446   200016 630500                    EPPR0   I+1,,AUTO
         0 001447   000020 631400 xsym               EPPR1   B_VECTNIL+16
         0 001450   000000 701000 0                  TSX1    s:59
         0 001451   002070 702000 0                  TSX2    OALLOC_FAILED

      936     4529    3                   NEW$->VD$IT_OPERATOR.R_OPERAND$)
      937     4530    3                   ALTRET (OCOPY_FAILED);
      938     4531    3                 END OCOPY_IT_OPERATOR_R_OPERAND;

   4531  0 001452   002067 710000 0                  TRA     s:4705

      939     4532
      940     4533
      941     4534    2            CASE (%CLS_IT_SELECT);

      942     4535    2              NEW$->VD$IT_SELECT.PARENT$ = ADDR(NIL); /* Don't copy */

   4535  0 001453   000001 236000 xsym               LDQ     B_VECTNIL+1
         0 001454   200006 470500                    LDP0    NEW$,,AUTO
         0 001455   000001 756100                    STQ     1,,PR0

      943     4536    2              IF VD$IT_SELECT.FLINK$ ~= ADDR(NIL) THEN

   4536  0 001456   200005 471500                    LDP1    ORIGINAL$,,AUTO
         0 001457   100002 236100                    LDQ     2,,PR1
PL6.E3A0      #003=VDG$OCOPY File=VDG$OBJECTS.:VDA5TSI                           FRI 07/04/97 11:21 Page:140
         0 001460   000001 116000 xsym               CMPQ    B_VECTNIL+1
         0 001461   001473 600000 0                  TZE     s:4543

      944     4537    3   OCOPY_IT_SELECT_FLINK: DO;

   4537  0 001462                       OCOPY_IT_SE* null
      945     4538    3                 CALL VDG$OCOPY (VD$IT_SELECT.FLINK$->VD$IT_SELECT,

   4538  0 001462   100002 473500                    LDP3    2,,PR1
         0 001463   200006 236100                    LDQ     NEW$,,AUTO
         0 001464   000002 036003                    ADLQ    2,DU
         0 001465   200017 756100                    STQ     I+2,,AUTO
         0 001466   200016 453500                    STP3    I+1,,AUTO
         0 001467   200016 630500                    EPPR0   I+1,,AUTO
         0 001470   000020 631400 xsym               EPPR1   B_VECTNIL+16
         0 001471   000000 701000 0                  TSX1    s:59
         0 001472   002070 702000 0                  TSX2    OALLOC_FAILED

      946     4539    3                   NEW$->VD$IT_SELECT.FLINK$)
      947     4540    3                   ALTRET (OCOPY_FAILED);
      948     4541    3                 END OCOPY_IT_SELECT_FLINK;

      949     4542
      950     4543    2              IF VD$IT_SELECT.ADJUSTS$ ~= ADDR(NIL) THEN

   4543  0 001473   200005 470500                    LDP0    ORIGINAL$,,AUTO
         0 001474   000004 236100                    LDQ     4,,PR0
         0 001475   000001 116000 xsym               CMPQ    B_VECTNIL+1
         0 001476   002067 600000 0                  TZE     s:4705

      951     4544    3   OCOPY_IT_SELECT_ADJUSTS: DO;

   4544  0 001477                       OCOPY_IT_SE* null
      952     4545    3                 CALL VDG$OCOPY (VD$IT_SELECT.ADJUSTS$->VD$IT_ADJUST,

   4545  0 001477   000004 471500                    LDP1    4,,PR0
         0 001500   200006 236100                    LDQ     NEW$,,AUTO
PL6.E3A0      #003=VDG$OCOPY File=VDG$OBJECTS.:VDA5TSI                           FRI 07/04/97 11:21 Page:141
         0 001501   000004 036003                    ADLQ    4,DU
         0 001502   200017 756100                    STQ     I+2,,AUTO
         0 001503   200016 451500                    STP1    I+1,,AUTO
         0 001504   200016 630500                    EPPR0   I+1,,AUTO
         0 001505   000020 631400 xsym               EPPR1   B_VECTNIL+16
         0 001506   000000 701000 0                  TSX1    s:59
         0 001507   002070 702000 0                  TSX2    OALLOC_FAILED

      953     4546    3                   NEW$->VD$IT_SELECT.ADJUSTS$)
      954     4547    3                   ALTRET (OCOPY_FAILED);
      955     4548
      956     4549    3                 NEW$->VD$IT_SELECT.ADJUSTS_TAIL$ =

   4549  0 001510   200006 470500                    LDP0    NEW$,,AUTO
         0 001511   000004 236100                    LDQ     4,,PR0
         0 001512   000005 756100                    STQ     5,,PR0

      957     4550    3                   NEW$->VD$IT_SELECT.ADJUSTS$;
      958     4551    4                 DO WHILE (NEW$->VD$IT_SELECT.ADJUSTS_TAIL$ ~= ADDR(NIL));

   4551  0 001513   001523 710000 0                  TRA     s:4557

      959     4552    4                    NEW$->VD$IT_SELECT.ADJUSTS_TAIL$->

   4552  0 001514   200006 470500                    LDP0    NEW$,,AUTO
         0 001515   000005 471500                    LDP1    5,,PR0
         0 001516   200006 236100                    LDQ     NEW$,,AUTO
         0 001517   100001 756100                    STQ     1,,PR1

      960     4553    4                      VD$IT_ADJUST.PARENT$ = NEW$;
      961     4554    4                    NEW$->VD$IT_SELECT.ADJUSTS_TAIL$ =

   4554  0 001520   000005 471500                    LDP1    5,,PR0
         0 001521   100002 236100                    LDQ     2,,PR1
         0 001522   000005 756100                    STQ     5,,PR0

      962     4555    4                      NEW$->VD$IT_SELECT.ADJUSTS_TAIL$->
PL6.E3A0      #003=VDG$OCOPY File=VDG$OBJECTS.:VDA5TSI                           FRI 07/04/97 11:21 Page:142
      963     4556    4                      VD$IT_ADJUST.FLINK$;
      964     4557    4                    END;

   4557  0 001523   000001 116000 xsym               CMPQ    B_VECTNIL+1
         0 001524   001514 601000 0                  TNZ     s:4552

      965     4558    3                 END OCOPY_IT_SELECT_ADJUSTS;

   4558  0 001525   002067 710000 0                  TRA     s:4705

      966     4559
      967     4560
      968     4561    2            CASE (%CLS_PATTERN);

      969     4562    2              N_ENTRIES = (VD$PATTERN.OBJECT.SIZE# -

   4562  0 001526   200005 236100                    LDQ     ORIGINAL$,,AUTO
         0 001527   000003 036003                    ADLQ    3,DU
         0 001530   000022 772000                    QRL     18
         0 001531   200005 235100                    LDA     ORIGINAL$,,AUTO
         0 001532   000022 771000                    ARL     18
         0 001533   200016 755100                    STA     I+1,,AUTO
         0 001534   200016 136100                    SBLQ    I+1,,AUTO
         0 001535   200017 756100                    STQ     I+2,,AUTO
         0 001536   200005 470500                    LDP0    ORIGINAL$,,AUTO
         0 001537   000000 236100                    LDQ     0,,PR0
         0 001540   000022 736000                    QLS     18
         0 001541   000022 732000                    QRS     18
         0 001542   200017 136100                    SBLQ    I+2,,AUTO
         0 001543   000004 506007                    DIV     4,DL
         0 001544   200012 756100                    STQ     N_ENTRIES,,AUTO

      970     4563    2                POFFW(ADDR(VD$PATTERN.ENTRIES), ORIGINAL$)) /
      971     4564    2                SIZEW(VD$PATTERN.ENTRIES);
      972     4565    2              IF N_ENTRIES ~= VD$PATTERN.MX_ENTRIES#

   4565  0 001545   000002 236100                    LDQ     2,,PR0
PL6.E3A0      #003=VDG$OCOPY File=VDG$OBJECTS.:VDA5TSI                           FRI 07/04/97 11:21 Page:143
         0 001546   000022 736000                    QLS     18
         0 001547   000022 732000                    QRS     18
         0 001550   200012 116100                    CMPQ    N_ENTRIES,,AUTO
         0 001551   001556 601000 0                  TNZ     s:4567
         0 001552   000002 236100                    LDQ     2,,PR0
         0 001553   000022 732000                    QRS     18
         0 001554   200012 116100                    CMPQ    N_ENTRIES,,AUTO
         0 001555   001565 604400 0                  TMOZ    s:4568

      973     4566    2                OR VD$PATTERN.N_ENTRIES# > N_ENTRIES THEN
      974     4567    2                 CALL VDG$ESCREECH (VD$PATTERN.N_ENTRIES#);

   4567  0 001556   200005 236100                    LDQ     ORIGINAL$,,AUTO
         0 001557   000002 036003                    ADLQ    2,DU
         0 001560   200016 756100                    STQ     I+1,,AUTO
         0 001561   200016 630500                    EPPR0   I+1,,AUTO
         0 001562   000017 631400 xsym               EPPR1   B_VECTNIL+15
         0 001563   000000 701000 xent               TSX1    VDG$ESCREECH
         0 001564   000000 011000                    NOP     0

      975     4568    3              DO I = 0 TO (VD$PATTERN.N_ENTRIES# - 1);

   4568  0 001565   200015 450100                    STZ     I,,AUTO
         0 001566   001611 710000 0                  TRA     s:4574+1

      976     4569    4                 IF VD$PATTERN.ENTRIES.MATCH$ (I) ~= ADDR(NIL) THEN DO;

   4569  0 001567   200015 235100                    LDA     I,,AUTO
         0 001570   000002 735000                    ALS     2
         0 001571   200005 470500                    LDP0    ORIGINAL$,,AUTO
         0 001572   000006 236105                    LDQ     6,AL,PR0
         0 001573   000001 116000 xsym               CMPQ    B_VECTNIL+1
         0 001574   001610 600000 0                  TZE     s:4574

      977     4570    4                    CALL VDG$OCOPY (VD$PATTERN.ENTRIES.MATCH$ (I) ->

   4570  0 001575   000006 471505                    LDP1    6,AL,PR0
PL6.E3A0      #003=VDG$OCOPY File=VDG$OBJECTS.:VDA5TSI                           FRI 07/04/97 11:21 Page:144
         0 001576   200015 236100                    LDQ     I,,AUTO
         0 001577   000024 736000                    QLS     20
         0 001600   000006 036003                    ADLQ    6,DU
         0 001601   200006 036100                    ADLQ    NEW$,,AUTO
         0 001602   200017 756100                    STQ     I+2,,AUTO
         0 001603   200016 451500                    STP1    I+1,,AUTO
         0 001604   200016 630500                    EPPR0   I+1,,AUTO
         0 001605   000020 631400 xsym               EPPR1   B_VECTNIL+16
         0 001606   000000 701000 0                  TSX1    s:59
         0 001607   002070 702000 0                  TSX2    OALLOC_FAILED

      978     4571    4                      VD$OBJECT_HEADER, NEW$->VD$PATTERN.ENTRIES.MATCH$ (I))
      979     4572    4                      ALTRET (OCOPY_FAILED);
      980     4573    4                    END;

      981     4574    3                 END;

   4574  0 001610   200015 054100                    AOS     I,,AUTO
         0 001611   200005 470500                    LDP0    ORIGINAL$,,AUTO
         0 001612   000002 236100                    LDQ     2,,PR0
         0 001613   000022 732000                    QRS     18
         0 001614   200015 116100                    CMPQ    I,,AUTO
         0 001615   001567 605400 0                  TPNZ    s:4569
         0 001616   002067 710000 0                  TRA     s:4705

      982     4575
      983     4576
      984     4577    2            CASE (%CLS_WINDOW_BLOCK);

      985     4578    2              IF VD$WINDOW_BLOCK.EDIT_BLOCK$ ~= ADDR(NIL) THEN

   4578  0 001617   200005 470500                    LDP0    ORIGINAL$,,AUTO
         0 001620   000003 236100                    LDQ     3,,PR0
         0 001621   000001 116000 xsym               CMPQ    B_VECTNIL+1
         0 001622   001634 600000 0                  TZE     s:4586

      986     4579    3   OCOPY_WINDOW_BLOCK_EDIT_BLOCK: DO;
PL6.E3A0      #003=VDG$OCOPY File=VDG$OBJECTS.:VDA5TSI                           FRI 07/04/97 11:21 Page:145

   4579  0 001623                       OCOPY_WINDO* null
      987     4580    3                 CALL VDG$OCOPY (VD$WINDOW_BLOCK.EDIT_BLOCK$->

   4580  0 001623   000003 471500                    LDP1    3,,PR0
         0 001624   200006 236100                    LDQ     NEW$,,AUTO
         0 001625   000003 036003                    ADLQ    3,DU
         0 001626   200017 756100                    STQ     I+2,,AUTO
         0 001627   200016 451500                    STP1    I+1,,AUTO
         0 001630   200016 630500                    EPPR0   I+1,,AUTO
         0 001631   000020 631400 xsym               EPPR1   B_VECTNIL+16
         0 001632   000000 701000 0                  TSX1    s:59
         0 001633   002070 702000 0                  TSX2    OALLOC_FAILED

      988     4581    3                   VD$BLOCK_DESC,
      989     4582    3                   NEW$->VD$WINDOW_BLOCK.EDIT_BLOCK$)
      990     4583    3                   ALTRET (OCOPY_FAILED);
      991     4584    3                 END OCOPY_WINDOW_BLOCK_EDIT_BLOCK;

      992     4585
      993     4586    2              IF VD$WINDOW_BLOCK.EVAL$ ~= ADDR(NIL) THEN

   4586  0 001634   200005 470500                    LDP0    ORIGINAL$,,AUTO
         0 001635   000004 236100                    LDQ     4,,PR0
         0 001636   000001 116000 xsym               CMPQ    B_VECTNIL+1
         0 001637   002067 600000 0                  TZE     s:4705

      994     4587    3   OCOPY_WINDOW_BLOCK_EVAL: DO;

   4587  0 001640                       OCOPY_WINDO* null
      995     4588    3                 CALL VDG$OCOPY (VD$WINDOW_BLOCK.EVAL$->VD$EVAL,

   4588  0 001640   000004 471500                    LDP1    4,,PR0
         0 001641   200006 236100                    LDQ     NEW$,,AUTO
         0 001642   000004 036003                    ADLQ    4,DU
         0 001643   200017 756100                    STQ     I+2,,AUTO
         0 001644   200016 451500                    STP1    I+1,,AUTO
PL6.E3A0      #003=VDG$OCOPY File=VDG$OBJECTS.:VDA5TSI                           FRI 07/04/97 11:21 Page:146
         0 001645   200016 630500                    EPPR0   I+1,,AUTO
         0 001646   000020 631400 xsym               EPPR1   B_VECTNIL+16
         0 001647   000000 701000 0                  TSX1    s:59
         0 001650   002070 702000 0                  TSX2    OALLOC_FAILED

      996     4589    3                   NEW$->VD$WINDOW_BLOCK.EVAL$)
      997     4590    3                   ALTRET (OCOPY_FAILED);
      998     4591    3                 PTR$ = VD$WINDOW_BLOCK.EVAL$->VD$EVAL.BLINK$;

   4591  0 001651   200005 470500                    LDP0    ORIGINAL$,,AUTO
         0 001652   000004 471500                    LDP1    4,,PR0
         0 001653   100001 236100                    LDQ     1,,PR1
         0 001654   200013 756100                    STQ     PTR$,,AUTO

      999     4592    3                 NEW_PTR$ = NEW$->VD$WINDOW_BLOCK.EVAL$;

   4592  0 001655   200006 473500                    LDP3    NEW$,,AUTO
         0 001656   300004 236100                    LDQ     4,,PR3
         0 001657   200014 756100                    STQ     NEW_PTR$,,AUTO

     1000     4593    4                 DO WHILE PTR$ ~= ADDR(NIL);

   4593  0 001660   001677 710000 0                  TRA     s:4598

     1001     4594    4                    CALL VDG$OCOPY (PTR$->VD$EVAL, NEW_PTR$->VD$EVAL.BLINK$)

   4594  0 001661   200014 236100                    LDQ     NEW_PTR$,,AUTO
         0 001662   000001 036003                    ADLQ    1,DU
         0 001663   200013 235100                    LDA     PTR$,,AUTO
         0 001664   200016 757100                    STAQ    I+1,,AUTO
         0 001665   200016 630500                    EPPR0   I+1,,AUTO
         0 001666   000020 631400 xsym               EPPR1   B_VECTNIL+16
         0 001667   000000 701000 0                  TSX1    s:59
         0 001670   002070 702000 0                  TSX2    OALLOC_FAILED

     1002     4595    4                      ALTRET (OCOPY_FAILED);
     1003     4596    4                    PTR$ = PTR$->VD$EVAL.BLINK$;
PL6.E3A0      #003=VDG$OCOPY File=VDG$OBJECTS.:VDA5TSI                           FRI 07/04/97 11:21 Page:147

   4596  0 001671   200013 470500                    LDP0    PTR$,,AUTO
         0 001672   000001 236100                    LDQ     1,,PR0
         0 001673   200013 756100                    STQ     PTR$,,AUTO

     1004     4597    4                    NEW_PTR$ = NEW_PTR$->VD$EVAL.BLINK$;

   4597  0 001674   200014 470500                    LDP0    NEW_PTR$,,AUTO
         0 001675   000001 236100                    LDQ     1,,PR0
         0 001676   200014 756100                    STQ     NEW_PTR$,,AUTO

     1005     4598    4                    END;

   4598  0 001677   200013 236100                    LDQ     PTR$,,AUTO
         0 001700   000001 116000 xsym               CMPQ    B_VECTNIL+1
         0 001701   001661 601000 0                  TNZ     s:4594

     1006     4599    3                 END OCOPY_WINDOW_BLOCK_EVAL;

   4599  0 001702   002067 710000 0                  TRA     s:4705

     1007     4600
     1008     4601
     1009     4602    2            CASE (%CLS_WINDOW_SPEC);

     1010     4603    2              NEW$->VD$WINDOW_SPEC.OPERAND.STREAM$ = ADDR(NIL); /* Don't copy */

   4603  0 001703   000001 236000 xsym               LDQ     B_VECTNIL+1
         0 001704   200006 470500                    LDP0    NEW$,,AUTO
         0 001705   000010 756100                    STQ     8,,PR0

     1011     4604
     1012     4605    2              IF VD$WINDOW_SPEC.OPERAND.INTREE$ ~= ADDR(NIL) THEN

   4605  0 001706   200005 471500                    LDP1    ORIGINAL$,,AUTO
         0 001707   100011 236100                    LDQ     9,,PR1
         0 001710   000001 116000 xsym               CMPQ    B_VECTNIL+1
PL6.E3A0      #003=VDG$OCOPY File=VDG$OBJECTS.:VDA5TSI                           FRI 07/04/97 11:21 Page:148
         0 001711   001723 600000 0                  TZE     s:4612

     1013     4606    3   OCOPY_WINDOW_SPEC_INTREE: DO;

   4606  0 001712                       OCOPY_WINDO* null
     1014     4607    3                 CALL VDG$OCOPY (VD$WINDOW_SPEC.OPERAND.INTREE$->VD$IT_BLOCK_EXPR,

   4607  0 001712   100011 473500                    LDP3    9,,PR1
         0 001713   200006 236100                    LDQ     NEW$,,AUTO
         0 001714   000011 036003                    ADLQ    9,DU
         0 001715   200017 756100                    STQ     I+2,,AUTO
         0 001716   200016 453500                    STP3    I+1,,AUTO
         0 001717   200016 630500                    EPPR0   I+1,,AUTO
         0 001720   000020 631400 xsym               EPPR1   B_VECTNIL+16
         0 001721   000000 701000 0                  TSX1    s:59
         0 001722   002070 702000 0                  TSX2    OALLOC_FAILED

     1015     4608    3                   NEW$->VD$WINDOW_SPEC.OPERAND.INTREE$)
     1016     4609    3                   ALTRET (OCOPY_FAILED);
     1017     4610    3                 END OCOPY_WINDOW_SPEC_INTREE;

     1018     4611
     1019     4612    2              IF VD$WINDOW_SPEC.OPERAND.EDIT_BLOCK$ ~= ADDR(NIL) THEN

   4612  0 001723   200005 470500                    LDP0    ORIGINAL$,,AUTO
         0 001724   000012 236100                    LDQ     10,,PR0
         0 001725   000001 116000 xsym               CMPQ    B_VECTNIL+1
         0 001726   001740 600000 0                  TZE     s:4620

     1020     4613    3   OCOPY_WINDOW_SPEC_EDIT_BLOCK: DO;

   4613  0 001727                       OCOPY_WINDO* null
     1021     4614    3                 CALL VDG$OCOPY (VD$WINDOW_SPEC.OPERAND.EDIT_BLOCK$->

   4614  0 001727   000012 471500                    LDP1    10,,PR0
         0 001730   200006 236100                    LDQ     NEW$,,AUTO
         0 001731   000012 036003                    ADLQ    10,DU
PL6.E3A0      #003=VDG$OCOPY File=VDG$OBJECTS.:VDA5TSI                           FRI 07/04/97 11:21 Page:149
         0 001732   200017 756100                    STQ     I+2,,AUTO
         0 001733   200016 451500                    STP1    I+1,,AUTO
         0 001734   200016 630500                    EPPR0   I+1,,AUTO
         0 001735   000020 631400 xsym               EPPR1   B_VECTNIL+16
         0 001736   000000 701000 0                  TSX1    s:59
         0 001737   002070 702000 0                  TSX2    OALLOC_FAILED

     1022     4615    3                   VD$BLOCK_DESC,
     1023     4616    3                   NEW$->VD$WINDOW_SPEC.OPERAND.EDIT_BLOCK$)
     1024     4617    3                   ALTRET (OCOPY_FAILED);
     1025     4618    3                 END OCOPY_WINDOW_SPEC_EDIT_BLOCK;

     1026     4619
     1027     4620    2              IF VD$WINDOW_SPEC.OPERAND.EVAL$ ~= ADDR(NIL) THEN

   4620  0 001740   200005 470500                    LDP0    ORIGINAL$,,AUTO
         0 001741   000013 236100                    LDQ     11,,PR0
         0 001742   000001 116000 xsym               CMPQ    B_VECTNIL+1
         0 001743   002006 600000 0                  TZE     s:4635

     1028     4621    3   OCOPY_WINDOW_SPEC_EVAL: DO;

   4621  0 001744                       OCOPY_WINDO* null
     1029     4622    3                 CALL VDG$OCOPY (VD$WINDOW_SPEC.OPERAND.EVAL$->VD$EVAL,

   4622  0 001744   000013 471500                    LDP1    11,,PR0
         0 001745   200006 236100                    LDQ     NEW$,,AUTO
         0 001746   000013 036003                    ADLQ    11,DU
         0 001747   200017 756100                    STQ     I+2,,AUTO
         0 001750   200016 451500                    STP1    I+1,,AUTO
         0 001751   200016 630500                    EPPR0   I+1,,AUTO
         0 001752   000020 631400 xsym               EPPR1   B_VECTNIL+16
         0 001753   000000 701000 0                  TSX1    s:59
         0 001754   002070 702000 0                  TSX2    OALLOC_FAILED

     1030     4623    3                   NEW$->VD$WINDOW_SPEC.OPERAND.EVAL$)
     1031     4624    3                   ALTRET (OCOPY_FAILED);
PL6.E3A0      #003=VDG$OCOPY File=VDG$OBJECTS.:VDA5TSI                           FRI 07/04/97 11:21 Page:150
     1032     4625    3                 PTR$ = VD$WINDOW_SPEC.OPERAND.EVAL$->VD$EVAL.BLINK$;

   4625  0 001755   200005 470500                    LDP0    ORIGINAL$,,AUTO
         0 001756   000013 471500                    LDP1    11,,PR0
         0 001757   100001 236100                    LDQ     1,,PR1
         0 001760   200013 756100                    STQ     PTR$,,AUTO

     1033     4626    3                 NEW_PTR$ = NEW$->VD$WINDOW_SPEC.OPERAND.EVAL$;

   4626  0 001761   200006 473500                    LDP3    NEW$,,AUTO
         0 001762   300013 236100                    LDQ     11,,PR3
         0 001763   200014 756100                    STQ     NEW_PTR$,,AUTO

     1034     4627    4                 DO WHILE PTR$ ~= ADDR(NIL);

   4627  0 001764   002003 710000 0                  TRA     s:4632

     1035     4628    4                    CALL VDG$OCOPY (PTR$->VD$EVAL, NEW_PTR$->VD$EVAL.BLINK$)

   4628  0 001765   200014 236100                    LDQ     NEW_PTR$,,AUTO
         0 001766   000001 036003                    ADLQ    1,DU
         0 001767   200013 235100                    LDA     PTR$,,AUTO
         0 001770   200016 757100                    STAQ    I+1,,AUTO
         0 001771   200016 630500                    EPPR0   I+1,,AUTO
         0 001772   000020 631400 xsym               EPPR1   B_VECTNIL+16
         0 001773   000000 701000 0                  TSX1    s:59
         0 001774   002070 702000 0                  TSX2    OALLOC_FAILED

     1036     4629    4                      ALTRET (OCOPY_FAILED);
     1037     4630    4                    PTR$ = PTR$->VD$EVAL.BLINK$;

   4630  0 001775   200013 470500                    LDP0    PTR$,,AUTO
         0 001776   000001 236100                    LDQ     1,,PR0
         0 001777   200013 756100                    STQ     PTR$,,AUTO

     1038     4631    4                    NEW_PTR$ = NEW_PTR$->VD$EVAL.BLINK$;

PL6.E3A0      #003=VDG$OCOPY File=VDG$OBJECTS.:VDA5TSI                           FRI 07/04/97 11:21 Page:151
   4631  0 002000   200014 470500                    LDP0    NEW_PTR$,,AUTO
         0 002001   000001 236100                    LDQ     1,,PR0
         0 002002   200014 756100                    STQ     NEW_PTR$,,AUTO

     1039     4632    4                    END;

   4632  0 002003   200013 236100                    LDQ     PTR$,,AUTO
         0 002004   000001 116000 xsym               CMPQ    B_VECTNIL+1
         0 002005   001765 601000 0                  TNZ     s:4628

     1040     4633    3                 END OCOPY_WINDOW_SPEC_EVAL;

     1041     4634
     1042     4635    2              NEW$->VD$WINDOW_SPEC.RECORD_SET$ = ADDR(NIL); /* Don't copy */

   4635  0 002006   000001 236000 xsym               LDQ     B_VECTNIL+1
         0 002007   200006 470500                    LDP0    NEW$,,AUTO
         0 002010   000016 756100                    STQ     14,,PR0

     1043     4636
     1044     4637
     1045     4638    2              IF VD$WINDOW_SPEC.TABS$ ~= ADDR(NIL) THEN

   4638  0 002011   200005 471500                    LDP1    ORIGINAL$,,AUTO
         0 002012   100024 236100                    LDQ     20,,PR1
         0 002013   000001 116000 xsym               CMPQ    B_VECTNIL+1
         0 002014   002026 600000 0                  TZE     s:4645

     1046     4639    3   OCOPY_WINDOW_SPEC_TABS: DO;

   4639  0 002015                       OCOPY_WINDO* null
     1047     4640    3                 CALL VDG$OCOPY (VD$WINDOW_SPEC.TABS$->VD$TABS,

   4640  0 002015   100024 473500                    LDP3    20,,PR1
         0 002016   200006 236100                    LDQ     NEW$,,AUTO
         0 002017   000024 036003                    ADLQ    20,DU
         0 002020   200017 756100                    STQ     I+2,,AUTO
PL6.E3A0      #003=VDG$OCOPY File=VDG$OBJECTS.:VDA5TSI                           FRI 07/04/97 11:21 Page:152
         0 002021   200016 453500                    STP3    I+1,,AUTO
         0 002022   200016 630500                    EPPR0   I+1,,AUTO
         0 002023   000020 631400 xsym               EPPR1   B_VECTNIL+16
         0 002024   000000 701000 0                  TSX1    s:59
         0 002025   002070 702000 0                  TSX2    OALLOC_FAILED

     1048     4641    3                   NEW$->VD$WINDOW_SPEC.TABS$)
     1049     4642    3                   ALTRET (OCOPY_FAILED);
     1050     4643    3                 END OCOPY_WINDOW_SPEC_TABS;

     1051     4644
     1052     4645    2              IF VD$WINDOW_SPEC.EOFMARK$ ~= ADDR(NIL) THEN

   4645  0 002026   200005 470500                    LDP0    ORIGINAL$,,AUTO
         0 002027   000025 236100                    LDQ     21,,PR0
         0 002030   000001 116000 xsym               CMPQ    B_VECTNIL+1
         0 002031   002043 600000 0                  TZE     s:4652

     1053     4646    3   OCOPY_WINDOW_SPEC_EOFMARK: DO;

   4646  0 002032                       OCOPY_WINDO* null
     1054     4647    3                 CALL VDG$OCOPY (VD$WINDOW_SPEC.EOFMARK$->VD$BUFFER,

   4647  0 002032   000025 471500                    LDP1    21,,PR0
         0 002033   200006 236100                    LDQ     NEW$,,AUTO
         0 002034   000025 036003                    ADLQ    21,DU
         0 002035   200017 756100                    STQ     I+2,,AUTO
         0 002036   200016 451500                    STP1    I+1,,AUTO
         0 002037   200016 630500                    EPPR0   I+1,,AUTO
         0 002040   000020 631400 xsym               EPPR1   B_VECTNIL+16
         0 002041   000000 701000 0                  TSX1    s:59
         0 002042   002070 702000 0                  TSX2    OALLOC_FAILED

     1055     4648    3                   NEW$->VD$WINDOW_SPEC.EOFMARK$)
     1056     4649    3                   ALTRET (OCOPY_FAILED);
     1057     4650    3                 END OCOPY_WINDOW_SPEC_EOFMARK;

PL6.E3A0      #003=VDG$OCOPY File=VDG$OBJECTS.:VDA5TSI                           FRI 07/04/97 11:21 Page:153
     1058     4651
     1059     4652    2              IF VD$WINDOW_SPEC.KEY_DEFINITION_BUFFER$ ~= ADDR(NIL) THEN

   4652  0 002043   200005 470500                    LDP0    ORIGINAL$,,AUTO
         0 002044   000030 236100                    LDQ     24,,PR0
         0 002045   000001 116000 xsym               CMPQ    B_VECTNIL+1
         0 002046   002067 600000 0                  TZE     s:4705

     1060     4653    3   OCOPY_WINDOW_SPEC_KEY_DEF_BUF: DO;

   4653  0 002047                       OCOPY_WINDO* null
     1061     4654    3                 CALL VDG$OCOPY (VD$WINDOW_SPEC.KEY_DEFINITION_BUFFER$->

   4654  0 002047   000030 471500                    LDP1    24,,PR0
         0 002050   200006 236100                    LDQ     NEW$,,AUTO
         0 002051   000030 036003                    ADLQ    24,DU
         0 002052   200017 756100                    STQ     I+2,,AUTO
         0 002053   200016 451500                    STP1    I+1,,AUTO
         0 002054   200016 630500                    EPPR0   I+1,,AUTO
         0 002055   000020 631400 xsym               EPPR1   B_VECTNIL+16
         0 002056   000000 701000 0                  TSX1    s:59
         0 002057   002070 702000 0                  TSX2    OALLOC_FAILED

     1062     4655    3                   VD$BUFFER,
     1063     4656    3                   NEW$->VD$WINDOW_SPEC.KEY_DEFINITION_BUFFER$)
     1064     4657    3                   ALTRET (OCOPY_FAILED);
     1065     4658    3                 END OCOPY_WINDOW_SPEC_KEY_DEF_BUF;

   4658  0 002060   002067 710000 0                  TRA     s:4705

     1066     4659
     1067     4660
     1068     4661    2            CASE (%CLS_BUFFER,

     1069     4662    2                   %CLS_TEXTC_REMOTE,
     1070     4663    2                   %CLS_NAME_SPEC,
     1071     4664    2                   %CLS_STRUCTURE_LEVEL,
PL6.E3A0      #003=VDG$OCOPY File=VDG$OBJECTS.:VDA5TSI                           FRI 07/04/97 11:21 Page:154
     1072     4665    2                   %CLS_NUMBER,
     1073     4666    2                   %CLS_BOOLEAN,
     1074     4667    2                   %CLS_FILE_STCLASS,
     1075     4668    2                   %CLS_ORG,
     1076     4669    2                   %CLS_KEY_TYPE,
     1077     4670    2                   %CLS_EXIST,
     1078     4671    2                   %CLS_NAME_DATA_TYPE,
     1079     4672    2                   %CLS_COMPONENT,
     1080     4673    2                   %CLS_DIRECTION,
     1081     4674    2                   %CLS_POINT,
     1082     4675    2                   %CLS_PROTECT,
     1083     4676    2                   %CLS_STRUCTURE_SPEC,
     1084     4677                     /*
     1085     4678                     *  The %CLS_PTR_x pointers point to objects owned by others:
     1086     4679                     *      just copy the pointers (which we've already done)
     1087     4680                     */
     1088     4681    2                   %CLS_PTR_BLOCK_DESC,
     1089     4682    2                   %CLS_PTR_LOCATION,
     1090     4683    2                   %CLS_PTR_KEY,
     1091     4684    2                   %CLS_PTR_TEXTC,
     1092     4685    2                   %CLS_PTR_FILE_NODE,
     1093     4686    2                   %CLS_PTR_INTREE);
     1094     4687                   /*  Don' do nuthin':
     1095     4688                       these objects need no further processing.  */
     1096     4689
     1097     4690
     1098     4691    2            CASE (%CLS_CMD_STREAM,

     1099     4692    2                   %CLS_DIR_NODE,
     1100     4693    2                   %CLS_ERR,
     1101     4694    2                   %CLS_STREAM,
     1102     4695    2                   %CLS_PORT,
     1103     4696    2                   %CLS_RECORD_SET,
     1104     4697    2                   ELSE);
     1105     4698                   /*  Internal error:
     1106     4699                       either a non-OCOPY-able object class was passed,
     1107     4700                       or an unknown object class was passed.  */
PL6.E3A0      #003=VDG$OCOPY File=VDG$OBJECTS.:VDA5TSI                           FRI 07/04/97 11:21 Page:155
     1108     4701    2              CALL VDG$ESCREECH (ORIGINAL_CLASS);

   4701  0 002061   200007 630500                    EPPR0   ORIGINAL_CLASS,,AUTO
         0 002062   200016 450500                    STP0    I+1,,AUTO
         0 002063   200016 630500                    EPPR0   I+1,,AUTO
         0 002064   000017 631400 xsym               EPPR1   B_VECTNIL+15
         0 002065   000000 701000 xent               TSX1    VDG$ESCREECH
         0 002066   000000 011000                    NOP     0

     1109     4702
     1110     4703    2            END;

     1111     4704
     1112     4705    1           RETURN;

   4705  0 002067   000000 702200 xent               TSX2  ! X66_ARET

     1113     4706
     1114     4707
     1115     4708
     1116     4709    1   OALLOC_FAILED: ;

   4709  0 002070                       OALLOC_FAIL* null
   4709  0 002070                       OCOPY_FAILED null
   4709  0 002070                       OCOPY_RANGE* null
   4709  0 002070                       OCOPY_LOCAT* null
     1117     4710    1   OCOPY_FAILED: ;
     1118     4711    1   OCOPY_RANGE_FAILED: ;
     1119     4712    1   OCOPY_LOCATION_FAILED: ;
     1120     4713    1           ALTRETURN;

   4713  0 002070   000000 702200 xent               TSX2  ! X66_AALT
     1121     4714
     1122     4715    1   END VDG$OCOPY;
     1123     4716        %EOD;

PL6.E3A0      #003=VDG$OCOPY File=VDG$OBJECTS.:VDA5TSI                           FRI 07/04/97 11:21 Page:156
--  Include file information  --

   VD_MACROS_M.:VDA5TOU  is referenced.
   B$JIT_C.:E04TOU  was found in the system file and is never referenced.
   CP_6_C.:E04TOU  was found in the system file and is never referenced.
      No diagnostics issued in procedure VDG$OCOPY.
PL6.E3A0      #003=VDG$OCOPY File=VDG$OBJECTS.:VDA5TSI                           FRI 07/04/97 11:21 Page:157

 **** Variables and constants ****

  ****  Auto variables  ****

  ****  Scalars and arrays  ****
OctLoc.c.b A Datatyp(siz) R M Lvl/name                 OctLoc.c.b A Datatyp(siz) R M Lvl/name

     4-0-0/w PTR         r     1 @NEW_PARAM$                3-0-0/w PTR         r     1 @ORIGINAL
    15-0-0/w SBIN        r     1 I                         11-0-0/w UBIN        r     1 NBYTES
     6-0-0/w PTR         r     1 NEW$                      *0-0-0/w PTR         r     1 NEW_PARAM$
    14-0-0/w PTR         r     1 NEW_PTR$                  12-0-0/w SBIN        r     1 N_ENTRIES
    10-0-0/w UBIN        r     1 OBJECT_LENGTH             *0-0-0/w STRC        r     1 ORIGINAL
     5-0-0/w PTR         r     1 ORIGINAL$                  7-0-0/w SBIN        r     1 ORIGINAL_CLASS
    13-0-0/w PTR         r     1 PTR$

  ****  SYMREF variables  ****

  ****  Scalars and arrays  ****
OctLoc.c.b A Datatyp(siz) R M Lvl/name                 OctLoc.c.b A Datatyp(siz) R M Lvl/name

     0-0-0/w STRC(72)    r     1 VD_OBJECTS(0:98)

  ****  BASED and DCB variables  ****

  ****  Scalars and arrays  ****
OctLoc.c.b A Datatyp(siz) R M Lvl/name                 OctLoc.c.b A Datatyp(siz) R M Lvl/name

     0-0-0/c ACHR        r     1 VARIABLE$OBJECT            0-0-0/w STRC(936)   r     1 VD$BLOCK_DESC
     0-0-0/w ASTR(90)    r     1 VD$BUFFER                  0-0-0/w STRC(90)    r     1 VD$BUFFER_HEADER
     0-0-0/w STRC(900)   r     1 VD$ENCODED_NODE            0-0-0/w STRC(2124)  r     1 VD$EVAL
     0-0-0/w STRC(864)   r     1 VD$EVAL_PATTERN            0-0-0/w STRC(648)   r     1 VD$FILE_KEY
     0-0-0/w STRC(468)   r     1 VD$FILE_NODE               0-0-0/w STRC(36972) r     1 VD$FIT
     0-0-0/w STRC(108)   r     1 VD$INTREE_NODE             0-0-0/w STRC(216)   r     1 VD$IT_ADJUST
     0-0-0/w STRC(1116)  r     1 VD$IT_BLOCK_EXPR           0-0-0/w STRC(540)   r     1 VD$IT_COMMAND
     0-0-0/w STRC(324)   r     1 VD$IT_OPERAND              0-0-0/w STRC(216)   r     1 VD$IT_OPERATOR
     0-0-0/w STRC(216)   r     1 VD$IT_SELECT               0-0-0/w STRC        r     1 VD$OBJECT_HEADER
     0-0-0/w STRC(252)   r     1 VD$PATTERN                 0-0-0/w STRC(81)    r     1 VD$STRING_HEADER
PL6.E3A0      #003=VDG$OCOPY File=VDG$OBJECTS.:VDA5TSI                           FRI 07/04/97 11:21 Page:158
     0-0-0/w STRC(396)   r     1 VD$TABS                    0-0-0/w ASTR(81)    r     1 VD$TEXTC_REMOTE
     0-0-0/w STRC(180)   r     1 VD$WINDOW_BLOCK            0-0-0/w STRC(900)   r     1 VD$WINDOW_SPEC


   Procedure VDG$OCOPY requires 1081 words for executable code.
   Procedure VDG$OCOPY requires 18 words of local(AUTO) storage.
PL6.E3A0      #003=VDG$OCOPY File=VDG$OBJECTS.:VDA5TSI                           FRI 07/04/97 11:21 Page:159
          *** CROSS REFERENCE LISTING ***
**     DENOTES     IDENTIFIER DEFINITION
<<                 IDENTIFIER'S VALUE SET
>>                 IDENTIFIER'S VALUE USED
<>                 IDENTIFIER SET AND/OR USED
--                 IDENTIFIER REFERENCED
PL6.E3A0      #003=VDG$OCOPY File=VDG$OBJECTS.:VDA5TSI                           FRI 07/04/97 11:21 Page:160
          MINI XREF LISTING

I
      2360**DCL      4466<<DOINDEX  4467>>IF       4469>>CALL     4469>>CALL     4568<<DOINDEX  4569>>IF
      4570>>CALL     4570>>CALL
NBYTES
      2356**DCL      2363--IMP-SIZ  4115<<ASSIGN   4120<<ASSIGN   4120>>ASSIGN   4123<<ASSIGN   4124>>ASSIGN
      4125>>ASSIGN   4137<<ASSIGN   4137>>ASSIGN   4140<<ASSIGN   4142>>ASSIGN   4142>>ASSIGN   4152>>ASSIGN
      4152>>ASSIGN
NEW$
      2353**DCL      4113<<ASSIGN   4124>>ASSIGN   4125>>ASSIGN   4125>>ASSIGN   4129>>CALL     4141>>ASSIGN
      4142>>ASSIGN   4146>>CALL     4152>>ASSIGN   4163>>ASSIGN   4166>>ASSIGN   4226>>ASSIGN   4226>>CALL
      4230>>CALL     4248>>ASSIGN   4248>>CALL     4254>>CALL     4261>>ASSIGN   4262>>CALL     4264>>CALL
      4266>>CALL     4273>>ASSIGN   4274>>CALL     4283>>CALL     4290>>ASSIGN   4293>>CALL     4312>>ASSIGN
      4312>>CALL     4330>>ASSIGN   4330>>CALL     4335>>CALL     4342>>CALL     4346>>ASSIGN   4346>>ASSIGN
      4347>>DOWHILE  4348>>ASSIGN   4348>>ASSIGN   4355>>ASSIGN   4355>>ASSIGN   4357>>ASSIGN   4357>>ASSIGN
      4362>>ASSIGN   4365>>CALL     4373>>CALL     4377>>ASSIGN   4377>>ASSIGN   4379>>DOWHILE  4380>>ASSIGN
      4380>>ASSIGN   4382>>ASSIGN   4382>>ASSIGN   4392>>CALL     4411>>ASSIGN   4411>>CALL     4414>>CALL
      4433>>ASSIGN   4433>>CALL     4439>>CALL     4443>>ASSIGN   4443>>ASSIGN   4445>>DOWHILE  4446>>ASSIGN
      4446>>ASSIGN   4448>>ASSIGN   4448>>ASSIGN   4456>>ASSIGN   4459>>CALL     4469>>CALL     4478>>ASSIGN
      4481>>CALL     4499>>ASSIGN   4499>>CALL     4504>>CALL     4511>>ASSIGN   4514>>CALL     4521>>CALL
      4528>>CALL     4535>>ASSIGN   4538>>CALL     4545>>CALL     4549>>ASSIGN   4549>>ASSIGN   4551>>DOWHILE
      4552>>ASSIGN   4552>>ASSIGN   4554>>ASSIGN   4554>>ASSIGN   4570>>CALL     4580>>CALL     4588>>CALL
      4592>>ASSIGN   4603>>ASSIGN   4607>>CALL     4614>>CALL     4622>>CALL     4626>>ASSIGN   4635>>ASSIGN
      4640>>CALL     4647>>CALL     4654>>CALL
NEW_PARAM$
      2301**DCL        59--PROC     4111<>CALL     4113>>ASSIGN
NEW_PTR$
      2359**DCL      4163<<ASSIGN   4166<<ASSIGN   4167>>ASSIGN   4183>>ASSIGN   4183>>CALL     4187>>CALL
      4206>>ASSIGN   4206>>CALL     4592<<ASSIGN   4594>>CALL     4597<<ASSIGN   4597>>ASSIGN   4626<<ASSIGN
      4628>>CALL     4631<<ASSIGN   4631>>ASSIGN
N_ENTRIES
      2357**DCL      4562<<ASSIGN   4565>>IF       4565>>IF
OALLOC_FAILED
PL6.E3A0      #003=VDG$OCOPY File=VDG$OBJECTS.:VDA5TSI                           FRI 07/04/97 11:21 Page:161
      4709**LABEL    4111--CALLALT
OBJECT_LENGTH
      2355**DCL      4094<<ASSIGN   4099<<ASSIGN   4105<<ASSIGN   4107<<ASSIGN   4111<>CALL     4115>>ASSIGN
OCOPY_FAILED
      4709**LABEL    4129--CALLALT  4146--CALLALT  4254--CALLALT  4283--CALLALT  4293--CALLALT  4335--CALLALT
      4342--CALLALT  4365--CALLALT  4373--CALLALT  4392--CALLALT  4439--CALLALT  4459--CALLALT  4469--CALLALT
      4481--CALLALT  4504--CALLALT  4514--CALLALT  4521--CALLALT  4528--CALLALT  4538--CALLALT  4545--CALLALT
      4570--CALLALT  4580--CALLALT  4588--CALLALT  4594--CALLALT  4607--CALLALT  4614--CALLALT  4622--CALLALT
      4628--CALLALT  4640--CALLALT  4647--CALLALT  4654--CALLALT
OCOPY_LOCATION_FAILED
      4709**LABEL    4230--CALLALT
OCOPY_RANGE_FAILED
      4709**LABEL    4187--CALLALT  4262--CALLALT  4264--CALLALT  4266--CALLALT  4274--CALLALT  4414--CALLALT
ORIGINAL
      2295**DCL        59--PROC     4085--ASSIGN
ORIGINAL.CLASS#
      2299**DCL      4086>>ASSIGN
ORIGINAL.SIZE#
      2299**DCL      4104>>IF       4107>>ASSIGN
ORIGINAL$
      2352**DCL      2372--IMP-PTR  2408--IMP-PTR  2572--IMP-PTR  2613--IMP-PTR  2649--IMP-PTR  2770--IMP-PTR
      3015--IMP-PTR  3130--IMP-PTR  3171--IMP-PTR  3264--IMP-PTR  3300--IMP-PTR  3337--IMP-PTR  3487--IMP-PTR
      3525--IMP-PTR  3591--IMP-PTR  3628--IMP-PTR  3673--IMP-PTR  3687--IMP-PTR  3738--IMP-PTR  3816--IMP-PTR
      3852--IMP-PTR  3889--IMP-PTR  3943--IMP-PTR  3987--IMP-PTR  4024--IMP-PTR  4085<<ASSIGN   4094>>ASSIGN
      4099>>ASSIGN   4118>>IF       4123>>ASSIGN   4125>>ASSIGN   4127>>IF       4129>>CALL     4135>>IF
      4140>>ASSIGN   4141>>ASSIGN   4142>>ASSIGN   4144>>IF       4146>>CALL     4152>>ASSIGN   4162>>ASSIGN
      4165>>ASSIGN   4226>>ASSIGN   4226>>IF       4226>>CALL     4226>>CALL     4230>>CALL     4248>>ASSIGN
      4248>>IF       4248>>CALL     4248>>CALL     4252>>IF       4254>>CALL     4254>>CALL     4262>>CALL
      4264>>CALL     4266>>CALL     4274>>CALL     4281>>IF       4283>>CALL     4291>>IF       4293>>CALL
      4312>>ASSIGN   4312>>IF       4312>>CALL     4312>>CALL     4330>>ASSIGN   4330>>IF       4330>>CALL
      4330>>CALL     4333>>IF       4335>>CALL     4335>>CALL     4340>>IF       4342>>CALL     4355>>ASSIGN
      4355>>ASSIGN   4357>>ASSIGN   4357>>ASSIGN   4363>>IF       4365>>CALL     4370>>IF       4373>>CALL
      4390>>IF       4392>>CALL     4411>>ASSIGN   4411>>IF       4411>>CALL     4411>>CALL     4414>>CALL
      4433>>ASSIGN   4433>>IF       4433>>CALL     4433>>CALL     4437>>IF       4439>>CALL     4457>>IF
      4459>>CALL     4467>>IF       4469>>CALL     4479>>IF       4481>>CALL     4499>>ASSIGN   4499>>IF
      4499>>CALL     4499>>CALL     4502>>IF       4504>>CALL     4512>>IF       4514>>CALL     4519>>IF
PL6.E3A0      #003=VDG$OCOPY File=VDG$OBJECTS.:VDA5TSI                           FRI 07/04/97 11:21 Page:162
      4521>>CALL     4526>>IF       4528>>CALL     4536>>IF       4538>>CALL     4543>>IF       4545>>CALL
      4562>>ASSIGN   4562>>ASSIGN   4562>>ASSIGN   4565>>IF       4565>>IF       4567>>CALL     4568>>DOINDEX
      4569>>IF       4570>>CALL     4578>>IF       4580>>CALL     4586>>IF       4588>>CALL     4591>>ASSIGN
      4605>>IF       4607>>CALL     4612>>IF       4614>>CALL     4620>>IF       4622>>CALL     4625>>ASSIGN
      4638>>IF       4640>>CALL     4645>>IF       4647>>CALL     4647>>CALL     4652>>IF       4654>>CALL
      4654>>CALL
ORIGINAL_CLASS
      2354**DCL      4086<<ASSIGN   4087>>IF       4087>>IF       4089<>CALL     4092>>DOCASE   4105>>ASSIGN
      4111<>CALL     4117>>IF       4118>>IF       4134>>IF       4135>>IF       4159>>DOCASE   4164>>IF
      4701<>CALL
PTR$
      2358**DCL      4162<<ASSIGN   4165<<ASSIGN   4167>>ASSIGN   4183>>ASSIGN   4183>>IF       4183>>CALL
      4183>>CALL     4187>>CALL     4206>>ASSIGN   4206>>IF       4206>>CALL     4206>>CALL     4591<<ASSIGN
      4593>>DOWHILE  4594>>CALL     4596<<ASSIGN   4596>>ASSIGN   4625<<ASSIGN   4627>>DOWHILE  4628>>CALL
      4630<<ASSIGN   4630>>ASSIGN
VARIABLE$OBJECT
      2363**DCL      4125>>ASSIGN   4142<<ASSIGN   4142>>ASSIGN   4152<<ASSIGN   4152>>ASSIGN
VD$BLOCK_DESC
      2408**DCL      4580<>CALL     4614<>CALL
VD$BLOCK_DESC.FILE_KEY
      2444**DCL      4183<<ASSIGN   4183>>ASSIGN
VD$BLOCK_DESC.FILE_KEY.REP#
      2446**DCL      4183>>IF
VD$BLOCK_DESC.FILE_KEY.V$
      2446**DCL      4183>>CALL     4183>>CALL     4183<>CALL
VD$BLOCK_DESC.OBJECT
      2430**DCL      4167<<ASSIGN   4167>>ASSIGN
VD$BLOCK_DESC.OPTIONS.KEY_INCR
      2541**DCL      4206<<ASSIGN   4206>>ASSIGN
VD$BLOCK_DESC.OPTIONS.KEY_INCR.REP#
      2543**DCL      4206>>IF
VD$BLOCK_DESC.OPTIONS.KEY_INCR.V$
      2543**DCL      4206>>CALL     4206>>CALL     4206<>CALL
VD$BLOCK_DESC.RANGE
      2458**DCL      4187<>CALL     4187<>CALL
VD$BUFFER
PL6.E3A0      #003=VDG$OCOPY File=VDG$OBJECTS.:VDA5TSI                           FRI 07/04/97 11:21 Page:163
      2572**DCL      4254<>CALL     4335<>CALL     4647<>CALL     4654<>CALL
VD$BUFFER.BYTES
      2600**DCL      4142--ASSIGN   4142--ASSIGN   4165--ASSIGN   4166--ASSIGN
VD$BUFFER.LENGTH#
      2598**DCL      2600--IMP-SIZ  4094>>ASSIGN   4135>>IF       4140>>ASSIGN   4141<<ASSIGN   4141>>ASSIGN
      4254>>CALL     4335>>CALL     4647>>CALL     4654>>CALL
VD$BUFFER_HEADER
      2613**DCL      4094--ASSIGN   4137--ASSIGN   4146<>CALL
VD$BUFFER_HEADER.FLINK$
      2639**DCL      4144>>IF       4146>>CALL     4146<>CALL
VD$ENCODED_NODE.DESC.DATA$
      2759**DCL      4252>>IF       4254>>CALL     4254>>CALL     4254<>CALL
VD$ENCODED_NODE.DESC.FILE_KEY
      2699**DCL      4226<<ASSIGN   4226>>ASSIGN
VD$ENCODED_NODE.DESC.FILE_KEY.REP#
      2701**DCL      4226>>IF
VD$ENCODED_NODE.DESC.FILE_KEY.V$
      2701**DCL      4226>>CALL     4226>>CALL     4226<>CALL
VD$ENCODED_NODE.DESC.LOCATION
      2713**DCL      4230<>CALL     4230<>CALL
VD$ENCODED_NODE.DESC.SPEC
      2755**DCL      4248<<ASSIGN   4248>>ASSIGN
VD$ENCODED_NODE.DESC.SPEC.REP#
      2757**DCL      4248>>IF
VD$ENCODED_NODE.DESC.SPEC.V$
      2757**DCL      4248>>CALL     4248>>CALL     4248<>CALL
VD$EVAL
      2770**DCL      4588<>CALL     4594<>CALL     4622<>CALL     4628<>CALL
VD$EVAL.BLINK$
      2796**DCL      4261<<ASSIGN   4591>>ASSIGN   4594<>CALL     4596>>ASSIGN   4597>>ASSIGN   4625>>ASSIGN
      4628<>CALL     4630>>ASSIGN   4631>>ASSIGN
VD$EVAL.ENCLOSING
      2807**DCL      4262<>CALL     4262<>CALL
VD$EVAL.LAST_FOUND_RANGE
      2945**DCL      4266<>CALL     4266<>CALL
VD$EVAL.RANGE
PL6.E3A0      #003=VDG$OCOPY File=VDG$OBJECTS.:VDA5TSI                           FRI 07/04/97 11:21 Page:164
      2876**DCL      4264<>CALL     4264<>CALL
VD$EVAL_PATTERN.BLINK$
      3041**DCL      4273<<ASSIGN
VD$EVAL_PATTERN.RANGE
      3052**DCL      4274<>CALL     4274<>CALL
VD$FILE_KEY.FLINK$
      3157**DCL      4281>>IF       4283>>CALL     4283<>CALL
VD$FILE_NODE
      3171**DCL      4293<>CALL     4342<>CALL
VD$FILE_NODE.BLINK$
      3197**DCL      4290<<ASSIGN
VD$FILE_NODE.DESC.DATA$
      3252**DCL      4333>>IF       4335>>CALL     4335>>CALL     4335<>CALL
VD$FILE_NODE.DESC.KEY
      3234**DCL      4312<<ASSIGN   4312>>ASSIGN
VD$FILE_NODE.DESC.KEY.REP#
      3236**DCL      4312>>IF
VD$FILE_NODE.DESC.KEY.V$
      3236**DCL      4312>>CALL     4312>>CALL     4312<>CALL
VD$FILE_NODE.DESC.SPEC
      3248**DCL      4330<<ASSIGN   4330>>ASSIGN
VD$FILE_NODE.DESC.SPEC.REP#
      3250**DCL      4330>>IF
VD$FILE_NODE.DESC.SPEC.V$
      3250**DCL      4330>>CALL     4330>>CALL     4330<>CALL
VD$FILE_NODE.FLINK$
      3197**DCL      4291>>IF       4293>>CALL     4293<>CALL     4348>>ASSIGN
VD$FILE_NODE.HEAD$
      3254**DCL      4340>>IF       4342>>CALL     4342<>CALL     4346>>ASSIGN
VD$FILE_NODE.TAIL$
      3254**DCL      4346<<ASSIGN   4347>>DOWHILE  4348<<ASSIGN   4348>>ASSIGN
VD$FIT.CODE2$
      3290**DCL      4355<<ASSIGN   4355>>ASSIGN
VD$FIT.CODE3$
      3290**DCL      4357<<ASSIGN   4357>>ASSIGN
VD$INTREE_NODE
PL6.E3A0      #003=VDG$OCOPY File=VDG$OBJECTS.:VDA5TSI                           FRI 07/04/97 11:21 Page:165
      2372**DCL      4373<>CALL     4459<>CALL     4481<>CALL     4514<>CALL     4521<>CALL     4528<>CALL
VD$INTREE_NODE.FLINK$
      2398**DCL      4382>>ASSIGN
VD$INTREE_NODE.PARENT$
      2398**DCL      4380<<ASSIGN
VD$IT_ADJUST
      3300**DCL      4365<>CALL     4545<>CALL
VD$IT_ADJUST.FLINK$
      3326**DCL      4363>>IF       4365>>CALL     4365<>CALL     4554>>ASSIGN
VD$IT_ADJUST.MOVEMENTS$
      3326**DCL      4370>>IF       4373>>CALL     4373<>CALL     4377>>ASSIGN
VD$IT_ADJUST.MOVEMENTS_TAIL$
      3327**DCL      4377<<ASSIGN   4379>>DOWHILE  4380>>ASSIGN   4382<<ASSIGN   4382>>ASSIGN
VD$IT_ADJUST.PARENT$
      3326**DCL      4362<<ASSIGN   4552<<ASSIGN
VD$IT_BLOCK_EXPR
      3337**DCL      4392<>CALL     4607<>CALL
VD$IT_BLOCK_EXPR.DOMAINN.FILE_KEY
      3375**DCL      4411<<ASSIGN   4411>>ASSIGN
VD$IT_BLOCK_EXPR.DOMAINN.FILE_KEY.REP#
      3377**DCL      4411>>IF
VD$IT_BLOCK_EXPR.DOMAINN.FILE_KEY.V$
      3377**DCL      4411>>CALL     4411>>CALL     4411<>CALL
VD$IT_BLOCK_EXPR.DOMAINN.RANGE
      3389**DCL      4414<>CALL     4414<>CALL
VD$IT_BLOCK_EXPR.FLINK$
      3363**DCL      4390>>IF       4392>>CALL     4392<>CALL
VD$IT_BLOCK_EXPR.OPTIONS.KEY_INCR
      3472**DCL      4433<<ASSIGN   4433>>ASSIGN
VD$IT_BLOCK_EXPR.OPTIONS.KEY_INCR.REP#
      3474**DCL      4433>>IF
VD$IT_BLOCK_EXPR.OPTIONS.KEY_INCR.V$
      3474**DCL      4433>>CALL     4433>>CALL     4433<>CALL
VD$IT_BLOCK_EXPR.SELECTS$
      3477**DCL      4437>>IF       4439>>CALL     4439<>CALL     4443>>ASSIGN
VD$IT_BLOCK_EXPR.SELECTS_TAIL$
PL6.E3A0      #003=VDG$OCOPY File=VDG$OBJECTS.:VDA5TSI                           FRI 07/04/97 11:21 Page:166
      3477**DCL      4443<<ASSIGN   4445>>DOWHILE  4446>>ASSIGN   4448<<ASSIGN   4448>>ASSIGN
VD$IT_COMMAND.FLINK$
      3513**DCL      4457>>IF       4459>>CALL     4459<>CALL
VD$IT_COMMAND.PARAM$
      3514**DCL      4467>>IF       4469>>CALL     4469<>CALL
VD$IT_COMMAND.PARENT$
      3513**DCL      4456<<ASSIGN
VD$IT_OPERAND.FLINK$
      3551**DCL      4479>>IF       4481>>CALL     4481<>CALL
VD$IT_OPERAND.KEY
      3577**DCL      4499<<ASSIGN   4499>>ASSIGN
VD$IT_OPERAND.KEY.REP#
      3579**DCL      4499>>IF
VD$IT_OPERAND.KEY.V$
      3579**DCL      4499>>CALL     4499>>CALL     4499<>CALL
VD$IT_OPERAND.PARAM$
      3581**DCL      4502>>IF       4504>>CALL     4504<>CALL
VD$IT_OPERAND.PARENT$
      3551**DCL      4478<<ASSIGN
VD$IT_OPERATOR.FLINK$
      3617**DCL      4512>>IF       4514>>CALL     4514<>CALL
VD$IT_OPERATOR.OPERAND$
      3617**DCL      4519>>IF       4521>>CALL     4521<>CALL
VD$IT_OPERATOR.PARENT$
      3617**DCL      4511<<ASSIGN
VD$IT_OPERATOR.R_OPERAND$
      3618**DCL      4526>>IF       4528>>CALL     4528<>CALL
VD$IT_SELECT
      3628**DCL      4439<>CALL     4538<>CALL
VD$IT_SELECT.ADJUSTS$
      3655**DCL      4543>>IF       4545>>CALL     4545<>CALL     4549>>ASSIGN
VD$IT_SELECT.ADJUSTS_TAIL$
      3655**DCL      4549<<ASSIGN   4551>>DOWHILE  4552>>ASSIGN   4554<<ASSIGN   4554>>ASSIGN
VD$IT_SELECT.FLINK$
      3654**DCL      4448>>ASSIGN   4536>>IF       4538>>CALL     4538<>CALL
VD$IT_SELECT.PARENT$
PL6.E3A0      #003=VDG$OCOPY File=VDG$OBJECTS.:VDA5TSI                           FRI 07/04/97 11:21 Page:167
      3654**DCL      4446<<ASSIGN   4535<<ASSIGN
VD$OBJECT_HEADER
      3673**DCL      4115--ASSIGN   4120--ASSIGN   4137--ASSIGN   4152--ASSIGN   4152--ASSIGN   4469<>CALL
      4504<>CALL     4570<>CALL
VD$PATTERN.ENTRIES
      3724**DCL      4562--ASSIGN   4562--ASSIGN
VD$PATTERN.ENTRIES.MATCH$
      3727**DCL      4569>>IF       4570>>CALL     4570<>CALL
VD$PATTERN.MX_ENTRIES#
      3713**DCL      4565>>IF
VD$PATTERN.N_ENTRIES#
      3713**DCL      4565>>IF       4567<>CALL     4568>>DOINDEX
VD$PATTERN.OBJECT.SIZE#
      3711**DCL      4562>>ASSIGN
VD$STRING_HEADER
      3816**DCL      4099--ASSIGN   4120--ASSIGN   4129<>CALL     4283<>CALL
VD$STRING_HEADER.FLINK$
      3842**DCL      4127>>IF       4129>>CALL     4129<>CALL
VD$TABS
      3889**DCL      4640<>CALL
VD$TEXTC_REMOTE
      3943**DCL      4183<>CALL     4206<>CALL     4226<>CALL     4248<>CALL     4312<>CALL     4330<>CALL
      4411<>CALL     4433<>CALL     4499<>CALL
VD$TEXTC_REMOTE.BYTES
      3974**DCL      4125<<ASSIGN   4125--ASSIGN
VD$TEXTC_REMOTE.LENGTH#
      3972**DCL      3974--IMP-SIZ  4099>>ASSIGN   4118>>IF       4123>>ASSIGN   4124<<ASSIGN   4125>>ASSIGN
      4183>>CALL     4206>>CALL     4226>>CALL     4248>>CALL     4312>>CALL     4330>>CALL     4411>>CALL
      4433>>CALL     4499>>CALL
VD$WINDOW_BLOCK.EDIT_BLOCK$
      4013**DCL      4578>>IF       4580>>CALL     4580<>CALL
VD$WINDOW_BLOCK.EVAL$
      4013**DCL      4586>>IF       4588>>CALL     4588<>CALL     4591>>ASSIGN   4592>>ASSIGN
VD$WINDOW_SPEC.EOFMARK$
      4078**DCL      4645>>IF       4647>>CALL     4647>>CALL     4647<>CALL
VD$WINDOW_SPEC.KEY_DEFINITION_BUFFER$
PL6.E3A0      #003=VDG$OCOPY File=VDG$OBJECTS.:VDA5TSI                           FRI 07/04/97 11:21 Page:168
      4079**DCL      4652>>IF       4654>>CALL     4654>>CALL     4654<>CALL
VD$WINDOW_SPEC.OPERAND.EDIT_BLOCK$
      4065**DCL      4612>>IF       4614>>CALL     4614<>CALL
VD$WINDOW_SPEC.OPERAND.EVAL$
      4065**DCL      4620>>IF       4622>>CALL     4622<>CALL     4625>>ASSIGN   4626>>ASSIGN
VD$WINDOW_SPEC.OPERAND.INTREE$
      4065**DCL      4605>>IF       4607>>CALL     4607<>CALL
VD$WINDOW_SPEC.OPERAND.STREAM$
      4065**DCL      4603<<ASSIGN
VD$WINDOW_SPEC.RECORD_SET$
      4068**DCL      4635<<ASSIGN
VD$WINDOW_SPEC.TABS$
      4077**DCL      4638>>IF       4640>>CALL     4640<>CALL
VDG$ESCREECH
      2307**DCL-ENT  4089--CALL     4567--CALL     4701--CALL
VDG$OALLOC
      2304**DCL-ENT  4111--CALL
VDG$OCOPY
        59**PROC     4129--CALL     4146--CALL     4183--CALL     4206--CALL     4226--CALL     4248--CALL
      4254--CALL     4283--CALL     4293--CALL     4312--CALL     4330--CALL     4335--CALL     4342--CALL
      4365--CALL     4373--CALL     4392--CALL     4411--CALL     4433--CALL     4439--CALL     4459--CALL
      4469--CALL     4481--CALL     4499--CALL     4504--CALL     4514--CALL     4521--CALL     4528--CALL
      4538--CALL     4545--CALL     4570--CALL     4580--CALL     4588--CALL     4594--CALL     4607--CALL
      4614--CALL     4622--CALL     4628--CALL     4640--CALL     4647--CALL     4654--CALL
VDG$OCOPY_LOCATION
      2306**DCL-ENT  4230--CALL
VDG$OCOPY_RANGE
      2305**DCL-ENT  4187--CALL     4262--CALL     4264--CALL     4266--CALL     4274--CALL     4414--CALL
VD_OBJECTS.BUF
      2321**DCL      4134>>IF
VD_OBJECTS.SIZE
      2317**DCL      4087>>IF       4105>>ASSIGN
VD_OBJECTS.STR
      2331**DCL      4117>>IF

PL6.E3A0      #004=VDG$OCOPY_RANGE File=VDG$OBJECTS.:VDA5TSI                     FRI 07/04/97 11:21 Page:169
     1124        1        /*T***********************************************************/
     1125        2        /*T*                                                         */
     1126        3        /*T* Copyright (c) Bull HN Information Systems Inc., 1997    */
     1127        4        /*T*                                                         */
     1128        5        /*T***********************************************************/
     1129        6
     1130        7        /*D* NAME: VDG$OCOPY_RANGE
     1131        8            PARAMETERS:
     1132        9                ORIGINAL - Actual VD$RANGE to make a new copy of.
     1133       10                NEW_VD$RANGE - Caller-allocated area in which to put
     1134       11                    the new VD$RANGE.
     1135       12            INPUT:
     1136       13                None.
     1137       14            OUTPUT:
     1138       15                NEW_VD$RANGE will contain a copy of ORIGINAL.
     1139       16            DESCRIPTION:
     1140       17                The new VD$RANGE (the space for which is allocated by
     1141       18                the caller) is filled in by calling VDG$OCOPY_LOCATION
     1142       19                twice.
     1143       20        */
     1144       21
     1145       22        VDG$OCOPY_RANGE: PROC (ORIGINAL, NEW_VD$RANGE) ALTRET;
     1146       23
     1147       24
     1148       25        %INCLUDE VD_MACROS_M;
     1149     2240
     1150     2241
     1151     2242        %VD$RANGE (NAME=ORIGINAL, STCLASS=PARAM);
     1152     2311        %VD$RANGE (NAME=NEW_VD$RANGE, STCLASS=PARAM);
     1153     2380
     1154     2381
     1155     2382    1   DCL VDG$OCOPY_LOCATION ENTRY (2) ALTRET;
     1156     2383
     1157     2384
     1158     2385    1           CALL VDG$OCOPY_LOCATION (ORIGINAL.START, NEW_VD$RANGE.START)
     1159     2386    1             ALTRET (OCOPY_LOCATION_FAILED);
     1160     2387
PL6.E3A0      #004=VDG$OCOPY_RANGE File=VDG$OBJECTS.:VDA5TSI                     FRI 07/04/97 11:21 Page:170
     1161     2388    1           CALL VDG$OCOPY_LOCATION (ORIGINAL.ENDD, NEW_VD$RANGE.ENDD)
     1162     2389    1             ALTRET (OCOPY_LOCATION_FAILED);
     1163     2390
     1164     2391    1           RETURN;
     1165     2392
     1166     2393
     1167     2394
     1168     2395    1   OCOPY_LOCATION_FAILED:
     1169     2396    1           ALTRETURN;
     1170     2397
     1171     2398    1   END VDG$OCOPY_RANGE;
     1172     2399        %EOD;

PL6.E3A0      #004=VDG$OCOPY_RANGE File=VDG$OBJECTS.:VDA5TSI                     FRI 07/04/97 11:21 Page:171
--  Include file information  --

   VD_MACROS_M.:VDA5TOU  is referenced.
   B$JIT_C.:E04TOU  was found in the system file and is never referenced.
   CP_6_C.:E04TOU  was found in the system file and is never referenced.
      No diagnostics issued in procedure VDG$OCOPY_RANGE.

   Procedure VDG$OCOPY_RANGE requires 18 words for executable code.
   Procedure VDG$OCOPY_RANGE requires 8 words of local(AUTO) storage.

PL6.E3A0      #004=VDG$OCOPY_RANGE File=VDG$OBJECTS.:VDA5TSI                     FRI 07/04/97 11:21 Page:172

 Object Unit name= VDG$OCOPY_RANGE                            File name= VDG$OBJECTS.:VDA5TOU
 UTS= JUL 04 '97 11:21:45.72 FRI                              Compiler= PL-6/E31         Sev=      00
 SharedLib= :SHARED_SYSTEM                                    Alt SharedLib=


    ****  Control sections  ****

 Sect   Type Bound  Init  Size OctSiz  Section name(segment info)
    0   Proc  even  none    18     22  VDG$OCOPY_RANGE

    ****  Entry defs  ****

                              Check   Calling
                             calling  sequence
  Sect OctLoc Primary Altret sequence   type   Parms  Name
     0      0   yes    yes     yes      Std        2  VDG$OCOPY_RANGE

  ****  Entry refs  ****

         Check        Calling
        calling       sequence
Altret sequence SRef   type   Args  Name
 yes     yes           Std       2 VDG$OCOPY_LOCATION
                       nStd      0 X66_AUTO_2
                       Std       0 B_CONSPOOL_D
                       nStd      0 X66_ARET
                       nStd      0 X66_AALT

  ****  Data refs  ****

  Flags:  r = read only, s = secondary
Flgs Name                             Flgs Name                             Flgs Name
     B_VECTNIL
PL6.E3A0      #004=VDG$OCOPY_RANGE File=VDG$OBJECTS.:VDA5TSI                     FRI 07/04/97 11:21 Page:173


     1124        1        /*T***********************************************************/
     1125        2        /*T*                                                         */
     1126        3        /*T* Copyright (c) Bull HN Information Systems Inc., 1997    */
     1127        4        /*T*                                                         */
     1128        5        /*T***********************************************************/
     1129        6
     1130        7        /*D* NAME: VDG$OCOPY_RANGE
     1131        8            PARAMETERS:
     1132        9                ORIGINAL - Actual VD$RANGE to make a new copy of.
     1133       10                NEW_VD$RANGE - Caller-allocated area in which to put
     1134       11                    the new VD$RANGE.
     1135       12            INPUT:
     1136       13                None.
     1137       14            OUTPUT:
     1138       15                NEW_VD$RANGE will contain a copy of ORIGINAL.
     1139       16            DESCRIPTION:
     1140       17                The new VD$RANGE (the space for which is allocated by
     1141       18                the caller) is filled in by calling VDG$OCOPY_LOCATION
     1142       19                twice.
     1143       20        */
     1144       21
     1145       22        VDG$OCOPY_RANGE: PROC (ORIGINAL, NEW_VD$RANGE) ALTRET;

     22  0 000000   000000 700200 xent  VDG$OCOPY_R* TSX0  ! X66_AUTO_2
         0 000001   000010 000002                    ZERO    8,2

     1146       23
     1147       24
     1148       25        %INCLUDE VD_MACROS_M;
     1149     2240
     1150     2241
     1151     2242        %VD$RANGE (NAME=ORIGINAL, STCLASS=PARAM);
     1152     2311        %VD$RANGE (NAME=NEW_VD$RANGE, STCLASS=PARAM);
     1153     2380
     1154     2381
     1155     2382    1   DCL VDG$OCOPY_LOCATION ENTRY (2) ALTRET;
PL6.E3A0      #004=VDG$OCOPY_RANGE File=VDG$OBJECTS.:VDA5TSI                     FRI 07/04/97 11:21 Page:174
     1156     2383
     1157     2384
     1158     2385    1           CALL VDG$OCOPY_LOCATION (ORIGINAL.START, NEW_VD$RANGE.START)

   2385  0 000002   200003 630500                    EPPR0   @ORIGINAL,,AUTO
         0 000003   000020 631400 xsym               EPPR1   B_VECTNIL+16
         0 000004   000000 701000 xent               TSX1    VDG$OCOPY_LOCATION
         0 000005   000021 702000 0                  TSX2    OCOPY_LOCATION_FAILED

     1159     2386    1             ALTRET (OCOPY_LOCATION_FAILED);
     1160     2387
     1161     2388    1           CALL VDG$OCOPY_LOCATION (ORIGINAL.ENDD, NEW_VD$RANGE.ENDD)

   2388  0 000006   200004 236100                    LDQ     @NEW_VD$RANGE,,AUTO
         0 000007   000011 036003                    ADLQ    9,DU
         0 000010   200007 756100                    STQ     @NEW_VD$RANGE+3,,AUTO
         0 000011   200003 236100                    LDQ     @ORIGINAL,,AUTO
         0 000012   000011 036003                    ADLQ    9,DU
         0 000013   200006 756100                    STQ     @NEW_VD$RANGE+2,,AUTO
         0 000014   200006 630500                    EPPR0   @NEW_VD$RANGE+2,,AUTO
         0 000015   000020 631400 xsym               EPPR1   B_VECTNIL+16
         0 000016   000000 701000 xent               TSX1    VDG$OCOPY_LOCATION
         0 000017   000021 702000 0                  TSX2    OCOPY_LOCATION_FAILED

     1162     2389    1             ALTRET (OCOPY_LOCATION_FAILED);
     1163     2390
     1164     2391    1           RETURN;

   2391  0 000020   000000 702200 xent               TSX2  ! X66_ARET

     1165     2392
     1166     2393
     1167     2394
     1168     2395    1   OCOPY_LOCATION_FAILED:
     1169     2396    1           ALTRETURN;

   2396  0 000021   000000 702200 xent  OCOPY_LOCAT* TSX2  ! X66_AALT
PL6.E3A0      #004=VDG$OCOPY_RANGE File=VDG$OBJECTS.:VDA5TSI                     FRI 07/04/97 11:21 Page:175
     1170     2397
     1171     2398    1   END VDG$OCOPY_RANGE;
     1172     2399        %EOD;

PL6.E3A0      #004=VDG$OCOPY_RANGE File=VDG$OBJECTS.:VDA5TSI                     FRI 07/04/97 11:21 Page:176
--  Include file information  --

   VD_MACROS_M.:VDA5TOU  is referenced.
   B$JIT_C.:E04TOU  was found in the system file and is never referenced.
   CP_6_C.:E04TOU  was found in the system file and is never referenced.
      No diagnostics issued in procedure VDG$OCOPY_RANGE.
PL6.E3A0      #004=VDG$OCOPY_RANGE File=VDG$OBJECTS.:VDA5TSI                     FRI 07/04/97 11:21 Page:177

 **** Variables and constants ****

  ****  Auto variables  ****

  ****  Scalars and arrays  ****
OctLoc.c.b A Datatyp(siz) R M Lvl/name                 OctLoc.c.b A Datatyp(siz) R M Lvl/name

     4-0-0/w PTR         r     1 @NEW_VD$RANGE              3-0-0/w PTR         r     1 @ORIGINAL
    *0-0-0/w STRC(648)   r     1 NEW_VD$RANGE              *0-0-0/w STRC(648)   r     1 ORIGINAL


   Procedure VDG$OCOPY_RANGE requires 18 words for executable code.
   Procedure VDG$OCOPY_RANGE requires 8 words of local(AUTO) storage.
PL6.E3A0      #004=VDG$OCOPY_RANGE File=VDG$OBJECTS.:VDA5TSI                     FRI 07/04/97 11:21 Page:178
          *** CROSS REFERENCE LISTING ***
**     DENOTES     IDENTIFIER DEFINITION
<<                 IDENTIFIER'S VALUE SET
>>                 IDENTIFIER'S VALUE USED
<>                 IDENTIFIER SET AND/OR USED
--                 IDENTIFIER REFERENCED
PL6.E3A0      #004=VDG$OCOPY_RANGE File=VDG$OBJECTS.:VDA5TSI                     FRI 07/04/97 11:21 Page:179
          MINI XREF LISTING

NEW_VD$RANGE
      2319**DCL        22--PROC
NEW_VD$RANGE.ENDD
      2361**DCL      2388<>CALL
NEW_VD$RANGE.START
      2333**DCL      2385<>CALL
OCOPY_LOCATION_FAILED
      2396**LABEL    2385--CALLALT  2388--CALLALT
ORIGINAL
      2250**DCL        22--PROC
ORIGINAL.ENDD
      2292**DCL      2388<>CALL
ORIGINAL.START
      2264**DCL      2385<>CALL
VDG$OCOPY_LOCATION
      2382**DCL-ENT  2385--CALL     2388--CALL

PL6.E3A0      #005=VDG$OCOPY_LOCATION File=VDG$OBJECTS.:VDA5TSI                  FRI 07/04/97 11:21 Page:180
     1173        1        /*T***********************************************************/
     1174        2        /*T*                                                         */
     1175        3        /*T* Copyright (c) Bull HN Information Systems Inc., 1997    */
     1176        4        /*T*                                                         */
     1177        5        /*T***********************************************************/
     1178        6
     1179        7        /*D* NAME: VDG$OCOPY_LOCATION
     1180        8            PARAMETERS:
     1181        9                ORIGINAL - Actual VD$LOCATION to make a new copy of.
     1182       10                NEW_VD$LOCATION - Caller-allocated area in which to put
     1183       11                    the new VD$LOCATION.
     1184       12            INPUT:
     1185       13                None.
     1186       14            OUTPUT:
     1187       15                NEW_VD$LOCATION will contain a copy of ORIGINAL.
     1188       16            DESCRIPTION:
     1189       17                The new VD$LOCATION (the space for which is allocated by
     1190       18                the caller) is filled in by copying each element of the
     1191       19                KEY array.
     1192       20                POSITION# and EOF# are then filled in.
     1193       21        */
     1194       22
     1195       23        VDG$OCOPY_LOCATION: PROC (ORIGINAL, NEW_VD$LOCATION) ALTRET;
     1196       24
     1197       25
     1198       26        %INCLUDE VD_MACROS_M;
     1199     2241
     1200     2242
     1201     2243        %VD$LOCATION (NAME=ORIGINAL, STCLASS=PARAM);
     1202     2271        %VD$LOCATION (NAME=NEW_VD$LOCATION, STCLASS=PARAM);
     1203     2299
     1204     2300
     1205     2301    1   DCL VDG$OCOPY     ENTRY (2) ALTRET;
     1206     2302
     1207     2303
     1208     2304    1   DCL KEY_INDEX UBIN;
     1209     2305
PL6.E3A0      #005=VDG$OCOPY_LOCATION File=VDG$OBJECTS.:VDA5TSI                  FRI 07/04/97 11:21 Page:181
     1210     2306
     1211     2307        %VD$TEXTC_REMOTE;
     1212     2368
     1213     2369
     1214     2370    2           DO KEY_INDEX = 0 TO %MX_LOCATION_LEVELS - 1;
     1215     2371                   %COPYKEY (FKEY=ORIGINAL.KEY, FINDX=KEY_INDEX,
     1216     2372                   TKEY=NEW_VD$LOCATION.KEY, TINDX=KEY_INDEX);
     1217     2388    2              END;
     1218     2389
     1219     2390    1           NEW_VD$LOCATION.POSITION# = ORIGINAL.POSITION#;
     1220     2391    1           NEW_VD$LOCATION.EOF = ORIGINAL.EOF;
     1221     2392
     1222     2393    1           RETURN;
     1223     2394
     1224     2395    1   END VDG$OCOPY_LOCATION;
     1225     2396        %EOD;

PL6.E3A0      #005=VDG$OCOPY_LOCATION File=VDG$OBJECTS.:VDA5TSI                  FRI 07/04/97 11:21 Page:182
--  Include file information  --

   VD_MACROS_M.:VDA5TOU  is referenced.
   B$JIT_C.:E04TOU  was found in the system file and is never referenced.
   CP_6_C.:E04TOU  was found in the system file and is never referenced.
      No diagnostics issued in procedure VDG$OCOPY_LOCATION.

   Procedure VDG$OCOPY_LOCATION requires 47 words for executable code.
   Procedure VDG$OCOPY_LOCATION requires 8 words of local(AUTO) storage.

PL6.E3A0      #005=VDG$OCOPY_LOCATION File=VDG$OBJECTS.:VDA5TSI                  FRI 07/04/97 11:21 Page:183

 Object Unit name= VDG$OCOPY_LOCATION                         File name= VDG$OBJECTS.:VDA5TOU
 UTS= JUL 04 '97 11:21:50.16 FRI                              Compiler= PL-6/E31         Sev=      00
 SharedLib= :SHARED_SYSTEM                                    Alt SharedLib=


    ****  Control sections  ****

 Sect   Type Bound  Init  Size OctSiz  Section name(segment info)
    0   Proc  even  none    47     57  VDG$OCOPY_LOCATION

    ****  Entry defs  ****

                              Check   Calling
                             calling  sequence
  Sect OctLoc Primary Altret sequence   type   Parms  Name
     0      0   yes    yes     yes      Std        2  VDG$OCOPY_LOCATION

  ****  Entry refs  ****

         Check        Calling
        calling       sequence
Altret sequence SRef   type   Args  Name
 yes     yes           Std       2 VDG$OCOPY
                       nStd      0 X66_AUTO_2
                       Std       0 B_CONSPOOL_D
                       nStd      0 X66_AALT
                       nStd      0 X66_ARET

  ****  Data refs  ****

  Flags:  r = read only, s = secondary
Flgs Name                             Flgs Name                             Flgs Name
     B_VECTNIL
PL6.E3A0      #005=VDG$OCOPY_LOCATION File=VDG$OBJECTS.:VDA5TSI                  FRI 07/04/97 11:21 Page:184


     1173        1        /*T***********************************************************/
     1174        2        /*T*                                                         */
     1175        3        /*T* Copyright (c) Bull HN Information Systems Inc., 1997    */
     1176        4        /*T*                                                         */
     1177        5        /*T***********************************************************/
     1178        6
     1179        7        /*D* NAME: VDG$OCOPY_LOCATION
     1180        8            PARAMETERS:
     1181        9                ORIGINAL - Actual VD$LOCATION to make a new copy of.
     1182       10                NEW_VD$LOCATION - Caller-allocated area in which to put
     1183       11                    the new VD$LOCATION.
     1184       12            INPUT:
     1185       13                None.
     1186       14            OUTPUT:
     1187       15                NEW_VD$LOCATION will contain a copy of ORIGINAL.
     1188       16            DESCRIPTION:
     1189       17                The new VD$LOCATION (the space for which is allocated by
     1190       18                the caller) is filled in by copying each element of the
     1191       19                KEY array.
     1192       20                POSITION# and EOF# are then filled in.
     1193       21        */
     1194       22
     1195       23        VDG$OCOPY_LOCATION: PROC (ORIGINAL, NEW_VD$LOCATION) ALTRET;

     23  0 000000   000000 700200 xent  VDG$OCOPY_L* TSX0  ! X66_AUTO_2
         0 000001   000010 000002                    ZERO    8,2

     1196       24
     1197       25
     1198       26        %INCLUDE VD_MACROS_M;
     1199     2241
     1200     2242
     1201     2243        %VD$LOCATION (NAME=ORIGINAL, STCLASS=PARAM);
     1202     2271        %VD$LOCATION (NAME=NEW_VD$LOCATION, STCLASS=PARAM);
     1203     2299
     1204     2300
PL6.E3A0      #005=VDG$OCOPY_LOCATION File=VDG$OBJECTS.:VDA5TSI                  FRI 07/04/97 11:21 Page:185
     1205     2301    1   DCL VDG$OCOPY     ENTRY (2) ALTRET;
     1206     2302
     1207     2303
     1208     2304    1   DCL KEY_INDEX UBIN;
     1209     2305
     1210     2306
     1211     2307        %VD$TEXTC_REMOTE;
     1212     2368
     1213     2369
     1214     2370    2           DO KEY_INDEX = 0 TO %MX_LOCATION_LEVELS - 1;

   2370  0 000002   200005 450100                    STZ     KEY_INDEX,,AUTO
         0 000003   000043 710000 0                  TRA     s:2388+3

     1215     2371                   %COPYKEY (FKEY=ORIGINAL.KEY, FINDX=KEY_INDEX,
     1216     2372                   TKEY=NEW_VD$LOCATION.KEY, TINDX=KEY_INDEX);

   2385  0 000004   200005 235100                    LDA     KEY_INDEX,,AUTO
         0 000005   000001 735000                    ALS     1
         0 000006   200005 236100                    LDQ     KEY_INDEX,,AUTO
         0 000007   000003 736000                    QLS     3
         0 000010   000002 735000                    ALS     2
         0 000011   200003 470500                    LDP0    @ORIGINAL,,AUTO
         0 000012   200004 471500                    LDP1    @NEW_VD$LOCATION,,AUTO
         0 000013   000105 100506                    MLR     fill='000'O
         0 000014   000000 000010                    ADSC9   0,Q,PR0                  cn=0,n=8
         0 000015   100000 000010                    ADSC9   0,A,PR1                  cn=0,n=8

   2385  0 000016   200005 235100                    LDA     KEY_INDEX,,AUTO
         0 000017   000001 735000                    ALS     1
         0 000020   000000 720105                    LXL0    0,AL,PR0
         0 000021   000002 100003                    CMPX0   2,DU
         0 000022   000040 601000 0                  TNZ     s:2388

   2385  0 000023   000001 473505                    LDP3    1,AL,PR0
         0 000024   200005 236100                    LDQ     KEY_INDEX,,AUTO
         0 000025   000023 736000                    QLS     19
PL6.E3A0      #005=VDG$OCOPY_LOCATION File=VDG$OBJECTS.:VDA5TSI                  FRI 07/04/97 11:21 Page:186
         0 000026   000001 036003                    ADLQ    1,DU
         0 000027   200004 036100                    ADLQ    @NEW_VD$LOCATION,,AUTO
         0 000030   200007 756100                    STQ     KEY_INDEX+2,,AUTO
         0 000031   200006 453500                    STP3    KEY_INDEX+1,,AUTO
         0 000032   200006 630500                    EPPR0   KEY_INDEX+1,,AUTO
         0 000033   000020 631400 xsym               EPPR1   B_VECTNIL+16
         0 000034   000000 701000 xent               TSX1    VDG$OCOPY
         0 000035   000037 702000 0                  TSX2    s:2386
         0 000036   000040 710000 0                  TRA     s:2388

   2386  0 000037   000000 702200 xent               TSX2  ! X66_AALT

     1217     2388    2              END;

   2388  0 000040   200005 235100                    LDA     KEY_INDEX,,AUTO
         0 000041   000001 035007                    ADLA    1,DL
         0 000042   200005 755100                    STA     KEY_INDEX,,AUTO
         0 000043   200005 235100                    LDA     KEY_INDEX,,AUTO
         0 000044   000004 115007                    CMPA    4,DL
         0 000045   000004 602000 0                  TNC     s:2385

     1218     2389
     1219     2390    1           NEW_VD$LOCATION.POSITION# = ORIGINAL.POSITION#;

   2390  0 000046   200003 470500                    LDP0    @ORIGINAL,,AUTO
         0 000047   000010 220100                    LDX0    8,,PR0
         0 000050   200004 471500                    LDP1    @NEW_VD$LOCATION,,AUTO
         0 000051   100010 740100                    STX0    8,,PR1

     1220     2391    1           NEW_VD$LOCATION.EOF = ORIGINAL.EOF;

   2391  0 000052   000010 236100                    LDQ     8,,PR0
         0 000053   100010 676100                    ERQ     8,,PR1
         0 000054   400000 376007                    ANQ     -131072,DL
         0 000055   100010 656100                    ERSQ    8,,PR1

     1221     2392
PL6.E3A0      #005=VDG$OCOPY_LOCATION File=VDG$OBJECTS.:VDA5TSI                  FRI 07/04/97 11:21 Page:187
     1222     2393    1           RETURN;

   2393  0 000056   000000 702200 xent               TSX2  ! X66_ARET
     1223     2394
     1224     2395    1   END VDG$OCOPY_LOCATION;
     1225     2396        %EOD;

PL6.E3A0      #005=VDG$OCOPY_LOCATION File=VDG$OBJECTS.:VDA5TSI                  FRI 07/04/97 11:21 Page:188
--  Include file information  --

   VD_MACROS_M.:VDA5TOU  is referenced.
   B$JIT_C.:E04TOU  was found in the system file and is never referenced.
   CP_6_C.:E04TOU  was found in the system file and is never referenced.
      No diagnostics issued in procedure VDG$OCOPY_LOCATION.
PL6.E3A0      #005=VDG$OCOPY_LOCATION File=VDG$OBJECTS.:VDA5TSI                  FRI 07/04/97 11:21 Page:189

 **** Variables and constants ****

  ****  Auto variables  ****

  ****  Scalars and arrays  ****
OctLoc.c.b A Datatyp(siz) R M Lvl/name                 OctLoc.c.b A Datatyp(siz) R M Lvl/name

     4-0-0/w PTR         r     1 @NEW_VD$LOCATION           3-0-0/w PTR         r     1 @ORIGINAL
     5-0-0/w UBIN        r     1 KEY_INDEX                 *0-0-0/w STRC(324)   r     1 NEW_VD$LOCATION
    *0-0-0/w STRC(324)   r     1 ORIGINAL

  ****  BASED and DCB variables  ****

  ****  Scalars and arrays  ****
OctLoc.c.b A Datatyp(siz) R M Lvl/name                 OctLoc.c.b A Datatyp(siz) R M Lvl/name

     0-0-0/w ASTR(81)    r     1 VD$TEXTC_REMOTE


   Procedure VDG$OCOPY_LOCATION requires 47 words for executable code.
   Procedure VDG$OCOPY_LOCATION requires 8 words of local(AUTO) storage.
PL6.E3A0      #005=VDG$OCOPY_LOCATION File=VDG$OBJECTS.:VDA5TSI                  FRI 07/04/97 11:21 Page:190
          *** CROSS REFERENCE LISTING ***
**     DENOTES     IDENTIFIER DEFINITION
<<                 IDENTIFIER'S VALUE SET
>>                 IDENTIFIER'S VALUE USED
<>                 IDENTIFIER SET AND/OR USED
--                 IDENTIFIER REFERENCED
PL6.E3A0      #005=VDG$OCOPY_LOCATION File=VDG$OBJECTS.:VDA5TSI                  FRI 07/04/97 11:21 Page:191
          MINI XREF LISTING

KEY_INDEX
      2304**DCL      2370<<DOINDEX  2385>>ASSIGN   2385>>ASSIGN   2385>>IF       2385>>CALL     2385>>CALL
      2385>>CALL
NEW_VD$LOCATION
      2279**DCL        23--PROC
NEW_VD$LOCATION.EOF
      2297**DCL      2391<<ASSIGN
NEW_VD$LOCATION.KEY
      2293**DCL      2385<<ASSIGN
NEW_VD$LOCATION.KEY.V$
      2295**DCL      2385<>CALL
NEW_VD$LOCATION.POSITION#
      2297**DCL      2390<<ASSIGN
ORIGINAL
      2251**DCL        23--PROC
ORIGINAL.EOF
      2269**DCL      2391>>ASSIGN
ORIGINAL.KEY
      2265**DCL      2385>>ASSIGN
ORIGINAL.KEY.REP#
      2267**DCL      2385>>IF
ORIGINAL.KEY.V$
      2267**DCL      2385>>CALL     2385>>CALL
ORIGINAL.POSITION#
      2269**DCL      2390>>ASSIGN
VD$TEXTC_REMOTE
      2332**DCL      2385<>CALL
VD$TEXTC_REMOTE.LENGTH#
      2361**DCL      2363--IMP-SIZ  2385>>CALL
VDG$OCOPY
      2301**DCL-ENT  2385--CALL

