VERSION A05

PL6.E3A0      #001=VDG$OALLOC File=VDG$OBJECTS.:VDA5TSI                          FRI 07/04/97 11:20 Page:1
        1        1        /*M* VDG$OBJECTS - Common operations on dynamic objects */
        2        2        /*T***********************************************************/
        3        3        /*T*                                                         */
        4        4        /*T* Copyright (c) Bull HN Information Systems Inc., 1997    */
        5        5        /*T*                                                         */
        6        6        /*T***********************************************************/
        7        7
        8        8        /*X* MCR=NO, DMC=YES */
        9        9        /*T*/
       10       10
       11       11        /*P* NAME:  VDG$OBJECTS
       12       12            PURPOSE:
       13       13                Common operations on objects on the heap.
       14       14            DESCRIPTION:
       15       15                This module contains several external routines.
       16       16
       17       17                VDG$OALLOC
       18       18                Uses XUM$MANAGE to dynamically allocate objects.  Automatically
       19       19                determines size to allocate based on object class.  Clears
       20       20                the entire object, except object header, to %CLEAR; also
       21       21                stores ADDR(NIL) in all pointer cells in the object.  For
       22       22                some object classes, also "pushes" the object onto a stack or
       23       23                chain of similar objects.
       24       24                Two data segments contain XUM$MANAGE'd storage:  one for
       25       25                small objects, one for large objects.
       26       26
       27       27                VDG$OALLOC_DCB
       28       28                Returns an unused DCB.  Pulls one from our list of unused
       29       29                DCBs; if list is empty, M$GETDCBs one.
       30       30
       31       31                VDG$OCOPY
       32       32                Creates a new object which is a copy of an existing object.
       33       33                If the original object points to other objects, VDG$OCOPY
       34       34                will make new copies of the attached objects, too.
       35       35
       36       36                VDG$OCOPY_x     (x = RANGE, LOCATION, KEY)
       37       37                Special version of VDG$OCOPY for specific PL6 structures
PL6.E3A0      #001=VDG$OALLOC File=VDG$OBJECTS.:VDA5TSI                          FRI 07/04/97 11:20 Page:2
       38       38                which aren't objects themselves, but which may point to
       39       39                other objects.  VDG$OCOPY_x copies all attached objects
       40       40                as well as the original structure.
       41       41
       42       42                VDG$OFREE
       43       43                Uses XUM$MANAGE to free dynamically-allocated objects.
       44       44                If the object points to other objects, will free the attached
       45       45                objects, too.
       46       46                For some object classes, will also "pop" the object from a global
       47       47                stack.
       48       48
       49       49                VDG$OFREE_DCB
       50       50                Free a DCB.  Puts it into our list of unused DCBs; if list
       51       51                is full, M$RELDCBs it.
       52       52
       53       53                VDG$OCLEAR_x        (x = RANGE, LOCATION)
       54       54                Special version of VDG$OFREE for specific PL6 structures
       55       55                which aren't objects themselves, but which may point to
       56       56                other objects.  VDG$OCLEAR_x frees any attached objects,
       57       57                then %CLEARs/NILs the original structure.
       58       58        */
       59       59
       60       60        /*D* NAME: VDG$OALLOC
       61       61            PARAMETERS:
       62       62                CLASS - A %CLS_ def; class of object to allocate.
       63       63                PTR$ - An uninitialized PTR.
       64       64                SIZE - Optional: # words to allocate for variable-length objects.
       65       65            INPUT:
       66       66                VD_MCB_LARGE - XUM$MCB for large-object heap.
       67       67                VD_MCB_SMALL - XUM$MCB for small-object heap.
       68       68                VD_OBJECTS - Info about object classes.
       69       69            OUTPUT:
       70       70                PTR$ will contain a pointer to the first word of the object;
       71       71                    this is the address of the VD$OBJECT_HEADER element of
       72       72                    the allocated structure; this element will be filled in.
       73       73                CAUTION:  Callers must not %CLEAR the storage allocated for
       74       74                    them, since this would also clear the VD$OBJECT_HEADER
PL6.E3A0      #001=VDG$OALLOC File=VDG$OBJECTS.:VDA5TSI                          FRI 07/04/97 11:20 Page:3
       75       75                    (which we just filled in).  VDG$OALLOC will clear the
       76       76                    storage allocated before returning, including storing
       77       77                    ADDR(NIL) in any pointer cells.
       78       78            DESCRIPTION:
       79       79                Calls X$ALLOCATE to allocate the storage.  If we can't get
       80       80                    enough storage, expands the data segment and calls
       81       81                    X$ALLOCATE again.
       82       82                Clear the allocated storage to %CLEAR, then fill in any
       83       83                    pointer cells with ADDR(NIL).
       84       84                        NOTE - VD$KEY.V$ and VD$SPEC.V$ are not filled in
       85       85                        with NIL, 'cause in their %CLEAR state .REP# = 0,
       86       86                        and .V$ is only a pointer when .REP# = %REP_REMOTE.
       87       87
       88       88                Certain objects get linked to the end of a predefined chain when
       89       89                    they are allocated:
       90       90                    Object:          Is linked to the tail of:
       91       91                    -----------      ----------------------------
       92       92                    %CLS_CMD_STREAM  VD_6E.CMD_STREAM$ (points to tail)
       93       93                    %CLS_ERR         VD_6E.ERR_HEAD$/.ERR_TAIL$
       94       94                    %CLS_PORT        VD_6E.PORT_HEAD$/.PORT_TAIL$
       95       95        */
       96       96
       97       97        VDG$OALLOC: PROC (CLASS, PTR_PARAM$, SIZE) ALTRET;
       98       98
       99       99
      100      100        %INCLUDE VD_MACROS_M;
      101     2315        %INCLUDE VD_PERR_C;
      102     2463        %INCLUDE CP_6;
      103     2544        %INCLUDE XU_PERR_C;
      104     2735        %INCLUDE XUM_MACRO_C;
      105     2762
      106     2763
      107     2764    1   DCL CLASS UBIN;
      108     2765    1   DCL PTR_PARAM$ PTR;
      109     2766    1   DCL SIZE UBIN;
      110     2767
      111     2768
PL6.E3A0      #001=VDG$OALLOC File=VDG$OBJECTS.:VDA5TSI                          FRI 07/04/97 11:20 Page:4
      112     2769    1   DCL X$ALLOCATE      ENTRY (1) ALTRET;
      113     2770    1   DCL VDG$ESCREECH    ENTRY (3);
      114     2771
      115     2772
      116     2773    1   DCL B$TCB$ PTR SYMREF;
      117     2774        %VD_6E (STCLASS=SYMREF);
      118     2810        %VD_OBJECTS (NAME=VD_OBJECTS, STCLASS=SYMREF);
      119     2850        %XUM$MCB (NAME=VD_MCB_LARGE, STCLASS=SYMREF);
      120     2854        %XUM$MCB (NAME=VD_MCB_SMALL, STCLASS=SYMREF);
      121     2858
      122     2859
      123     2860        %FPT_GDS (RESULTS=GDS_RESULTS, SEGSIZE=%NW_DATA_SEG_INCR);
      124     2876    1   DCL GDS_RESULTS VECTOR STATIC;
      125     2877
      126     2878
      127     2879    1   DCL PTR$ PTR;
      128     2880    1   DCL LEVEL_INDEX UBIN;
      129     2881    1   DCL MCB$ PTR;
      130     2882    1   DCL NWORDS SBIN;
      131     2883    1   DCL NBYTES SBIN;
      132     2884    1   DCL SEG_PTR$ PTR;
      133     2885    1   DCL 1 SEG_PTR REDEF SEG_PTR$,
      134     2886    1         2 * UBIN(24) UNAL,
      135     2887    1         2 SEGID BIT(12) UNAL;
      136     2888    1   DCL SEG_PTR2$ PTR;
      137     2889    1   DCL 1 SEG_PTR2 REDEF SEG_PTR2$,
      138     2890    1         2 * UBIN(24) UNAL,
      139     2891    1         2 SEGID BIT(12) UNAL;
      140     2892    1   DCL PTR2$ PTR;
      141     2893    1   DCL I SBIN;
      142     2894
      143     2895
      144     2896        %XUM$MCB (NAME=MCB, STCLASS="BASED(MCB$)");
      145     2900    1   DCL 1 VAR_LEN_STRUCTURE BASED(PTR$),
      146     2901    1         2 * CHAR(NBYTES);
      147     2902        %VD$OBJECT_HEADER (NAME=OBJECT$HEADER, STCLASS="BASED(PTR$)");
      148     2924        %VD$STRING_HEADER;
PL6.E3A0      #001=VDG$OALLOC File=VDG$OBJECTS.:VDA5TSI                          FRI 07/04/97 11:20 Page:5
      149     2960        %VD$BUFFER_HEADER;
      150     2996        %VD$BLOCK_DESC;
      151     3143        %VD$BUFFER;
      152     3201        %VD$CMD_STREAM;
      153     3240        %VD$DIR_NODE;
      154     3278        %VD$ENCODED_NODE;
      155     3399        %VD$ERR;
      156     3452        %VD$EVAL;
      157     3697        %VD$FILE_KEY;
      158     3746        %VD$FILE_NODE;
      159     3839        %VD$FIT;
      160     3875        %VD$IT_ADJUST;
      161     3912        %VD$IT_BLOCK_EXPR;
      162     4062        %VD$IT_COMMAND;
      163     4100        %VD$IT_OPERAND;
      164     4166        %VD$IT_OPERATOR;
      165     4203        %VD$IT_SELECT;
      166     4240        %VD$PATTERN;
      167     4291        %VD$EVAL_PATTERN;
      168     4398        %VD$POINTER;
      169     4443        %VD$PORT;
      170     4541        %VD$RECORD_SET;
      171     4619        %VD$STREAM;
      172     4725        %VD$STRUCTURE_SPEC;
      173     4762        %VD$TABS;
      174     4799        %VD$TEXTC_REMOTE;
      175     4860        %VD$WINDOW_BLOCK;
      176     4897        %VD$WINDOW_SPEC;
      177     4963        %VD$XLATE_LOCATIONS;
      178     5099        %B$TCB;
      179     5102        %B$ALT;
      180     5110        %VD$ERR (NAME=ERR$HEAD, STCLASS="BASED(VD_6E.ERR_HEAD$)");
      181     5163
      182     5164
      183     5165    1   OALLOC:
      184     5166    1           IF CLASS >= %CLS_MX
      185     5167    1             OR VD_OBJECTS.SIZE (CLASS) < 0 THEN
PL6.E3A0      #001=VDG$OALLOC File=VDG$OBJECTS.:VDA5TSI                          FRI 07/04/97 11:20 Page:6
      186     5168    1              CALL VDG$ESCREECH (CLASS);
      187     5169    1           IF ADDR(SIZE) = ADDR(NIL) THEN
      188     5170    1              NWORDS = VD_OBJECTS.SIZE (CLASS);
      189     5171    1           ELSE
      190     5172    1              NWORDS = SIZE;
      191     5173    1           IF NWORDS <= 0 THEN
      192     5174    1              CALL VDG$ESCREECH (CLASS, NWORDS);
      193     5175
      194     5176    1           IF NWORDS > %MXNW_SMALL_SEGMENT_CHUNK THEN
      195     5177    1              MCB$ = ADDR(VD_MCB_LARGE);
      196     5178    1           ELSE
      197     5179    1              MCB$ = ADDR(VD_MCB_SMALL);
      198     5180    1           MCB.SIZE = NWORDS;
      199     5181    1           CALL X$ALLOCATE (MCB) ALTRET (ALLOCATE_FAILED);
      200     5182    1           PTR$ = MCB.ADDRESS$;
      201     5183    1           PTR_PARAM$ = MCB.ADDRESS$;
      202     5184
      203     5185                /*
      204     5186                *  Check to make sure we got the storage from the segment we
      205     5187                *   asked to get it from.
      206     5188                */
      207     5189    1           SEG_PTR$ = PTR$;
      208     5190    1           SEG_PTR2$ = MCB.SEGMENT_BASE$;
      209     5191    1           IF SEG_PTR.SEGID ~= SEG_PTR2.SEGID THEN
      210     5192    1              CALL VDG$ESCREECH;
      211     5193
      212     5194    1           NBYTES = NWORDS * %NB_PER_WORD;
      213     5195    1           VAR_LEN_STRUCTURE = %CLEAR;
      214     5196    1           OBJECT$HEADER.CLASS# = CLASS;
      215     5197    1           OBJECT$HEADER.SIZE# = NWORDS;
      216     5198    2           IF VD_OBJECTS.STR (CLASS) THEN DO;
      217     5199    2              PTR$->VD$TEXTC_REMOTE.FLINK$ = ADDR(NIL);
      218     5200    2              PTR$->VD$TEXTC_REMOTE.LENGTH# = NBYTES - LENGTHC(VD$STRING_HEADER);
      219     5201    2              END;
      220     5202    2           ELSE IF VD_OBJECTS.BUF (CLASS) THEN DO;
      221     5203    2                 PTR$->VD$BUFFER.FLINK$ = ADDR(NIL);
      222     5204    2                 PTR$->VD$BUFFER.LENGTH# = NBYTES - LENGTHC(VD$BUFFER_HEADER);
PL6.E3A0      #001=VDG$OALLOC File=VDG$OBJECTS.:VDA5TSI                          FRI 07/04/97 11:20 Page:7
      223     5205    2                 END;
      224     5206                %INCREMENT (ARRAY=STATS_OBJECTS#, INDX=CLASS);
      225     5209
      226     5210                /*
      227     5211                *   If appropriate, link the object onto the end of a chain.
      228     5212                *   Also, NIL out any pointers in the structure.
      229     5213                */
      230     5214
      231     5215    2           DO CASE (CLASS);
      232     5216    2            CASE (%CLS_BLOCK_DESC);
      233     5217    2              PTR$->VD$BLOCK_DESC.OPTIONS.STRUCTURE$ = ADDR(NIL);
      234     5218
      235     5219    2            CASE (%CLS_BLOCK_BUFFER);
      236     5220    2              PTR2$ = PALIGNW(ADDR(PTR$->VD$BUFFER.BYTES));
      237     5221    2              PTR2$->VD$BLOCK_DESC.OBJECT.CLASS# = %CLS_BLOCK_DESC;
      238     5222    2              PTR2$->VD$BLOCK_DESC.OPTIONS.STRUCTURE$ = ADDR(NIL);
      239     5223
      240     5224    2            CASE (%CLS_CMD_STREAM);
      241     5225    2              PTR$->VD$CMD_STREAM.BLINK$ = VD_6E.CMD_STREAM$;
      242     5226    2              VD_6E.CMD_STREAM$ = PTR$;
      243     5227    2              PTR$->VD$CMD_STREAM.RECORD$ = ADDR(NIL);
      244     5228    2              PTR$->VD$CMD_STREAM.INTREE$ = ADDR(NIL);
      245     5229
      246     5230    2            CASE (%CLS_DIR_NODE);
      247     5231                   /*
      248     5232                   *    DIR_NODEs are linked together by the caller since
      249     5233                   *    there isn't a global pointer to the tail of the chain.
      250     5234                   */
      251     5235    2              PTR$->VD$DIR_NODE.BLINK$ = ADDR(NIL);
      252     5236    2              PTR$->VD$DIR_NODE.FLINK$ = ADDR(NIL);
      253     5237    2              PTR$->VD$DIR_NODE.STRUCTURE$ = ADDR(NIL);
      254     5238    2              PTR$->VD$DIR_NODE.HEAD$ = ADDR(NIL);
      255     5239    2              PTR$->VD$DIR_NODE.TAIL$ = ADDR(NIL);
      256     5240
      257     5241    2            CASE (%CLS_ENCODED_NODE);
      258     5242    2              PTR$->VD$ENCODED_NODE.DESC.DATA$ = ADDR(NIL);
      259     5243
PL6.E3A0      #001=VDG$OALLOC File=VDG$OBJECTS.:VDA5TSI                          FRI 07/04/97 11:20 Page:8
      260     5244    2            CASE (%CLS_ERR);
      261     5245    2              PTR$->VD$ERR.FLINK$ = ADDR(NIL);
      262     5246    2              PTR$->VD$ERR.CMDLINE_INDEX# = -1;
      263     5247    2              IF VD_6E.ERR_HEAD$ = ADDR(NIL) THEN
      264     5248    2                 VD_6E.ERR_HEAD$ = PTR$;
      265     5249    2              ELSE
      266     5250    2                 VD_6E.ERR_TAIL$->VD$ERR.FLINK$ = PTR$;
      267     5251    2              VD_6E.ERR_TAIL$ = PTR$;
      268     5252
      269     5253    2            CASE (%CLS_EVAL);
      270     5254    2              PTR$->VD$EVAL.BLINK$ = ADDR(NIL);
      271     5255    2              PTR$->VD$EVAL.NODE$ = ADDR(NIL);
      272     5256
      273     5257    2            CASE (%CLS_FILE_KEY);
      274     5258    2              PTR$->VD$FILE_KEY.FLINK$ = ADDR(NIL);
      275     5259    2              PTR$->VD$FILE_KEY.UNIQUE.ACCT = %CHR_SPACE;
      276     5260    2              PTR$->VD$FILE_KEY.RES = %CHR_SPACE;
      277     5261    2              PTR$->VD$FILE_KEY.PSN = %CHR_SPACE;
      278     5262    2              PTR$->VD$FILE_KEY.PASS = %CHR_SPACE;
      279     5263
      280     5264    2            CASE (%CLS_FILE_NODE);
      281     5265    2              PTR$->VD$FILE_NODE.BLINK$ = ADDR(NIL);
      282     5266    2              PTR$->VD$FILE_NODE.FLINK$ = ADDR(NIL);
      283     5267    2              PTR$->VD$FILE_NODE.DESC.DATA$ = ADDR(NIL);
      284     5268    2              PTR$->VD$FILE_NODE.HEAD$ = ADDR(NIL);
      285     5269    2              PTR$->VD$FILE_NODE.TAIL$ = ADDR(NIL);
      286     5270
      287     5271    2            CASE (%CLS_FIT);
      288     5272    2              PTR$->VD$FIT.CODE2$ = ADDR(NIL);
      289     5273    2              PTR$->VD$FIT.CODE3$ = ADDR(NIL);
      290     5274
      291     5275    2            CASE (%CLS_IT_ADJUST);
      292     5276    2              PTR$->VD$IT_ADJUST.PARENT$ = ADDR(NIL);
      293     5277    2              PTR$->VD$IT_ADJUST.FLINK$ = ADDR(NIL);
      294     5278    2              PTR$->VD$IT_ADJUST.MOVEMENTS$ = ADDR(NIL);
      295     5279    2              PTR$->VD$IT_ADJUST.MOVEMENTS_TAIL$ = ADDR(NIL);
      296     5280
PL6.E3A0      #001=VDG$OALLOC File=VDG$OBJECTS.:VDA5TSI                          FRI 07/04/97 11:20 Page:9
      297     5281    2            CASE (%CLS_IT_BLOCK_EXPR);
      298     5282    2              PTR$->VD$IT_BLOCK_EXPR.PARENT$ = ADDR(NIL);
      299     5283    2              PTR$->VD$IT_BLOCK_EXPR.FLINK$ = ADDR(NIL);
      300     5284    2              PTR$->VD$IT_BLOCK_EXPR.OPTIONS.STRUCTURE$ = ADDR(NIL);
      301     5285    2              PTR$->VD$IT_BLOCK_EXPR.SELECTS$ = ADDR(NIL);
      302     5286    2              PTR$->VD$IT_BLOCK_EXPR.SELECTS_TAIL$ = ADDR(NIL);
      303     5287
      304     5288    2            CASE (%CLS_IT_COMMAND);
      305     5289    2              PTR$->VD$IT_COMMAND.PARENT$ = ADDR(NIL);
      306     5290    2              PTR$->VD$IT_COMMAND.FLINK$ = ADDR(NIL);
      307     5291    2              PTR$->VD$IT_COMMAND.PT_BLOCK_EXPR$ = ADDR(NIL);
      308     5292    3              DO I = 0 TO %(MX_COMMAND_PARAMS-1);
      309     5293    3                 PTR$->VD$IT_COMMAND.PARAM$ (I) = ADDR(NIL);
      310     5294    3                 END;
      311     5295
      312     5296    2            CASE (%CLS_IT_OPERAND);
      313     5297    2              PTR$->VD$IT_OPERAND.PARENT$ = ADDR(NIL);
      314     5298    2              PTR$->VD$IT_OPERAND.FLINK$ = ADDR(NIL);
      315     5299    2              PTR$->VD$IT_OPERAND.PARAM$ = ADDR(NIL);
      316     5300
      317     5301    2            CASE (%CLS_IT_OPERATOR);
      318     5302    2              PTR$->VD$IT_OPERATOR.PARENT$ = ADDR(NIL);
      319     5303    2              PTR$->VD$IT_OPERATOR.FLINK$ = ADDR(NIL);
      320     5304    2              PTR$->VD$IT_OPERATOR.OPERAND$ = ADDR(NIL);
      321     5305    2              PTR$->VD$IT_OPERATOR.R_OPERAND$ = ADDR(NIL);
      322     5306
      323     5307    2            CASE (%CLS_IT_SELECT);
      324     5308    2              PTR$->VD$IT_SELECT.PARENT$ = ADDR(NIL);
      325     5309    2              PTR$->VD$IT_SELECT.FLINK$ = ADDR(NIL);
      326     5310    2              PTR$->VD$IT_SELECT.ADJUSTS$ = ADDR(NIL);
      327     5311    2              PTR$->VD$IT_SELECT.ADJUSTS_TAIL$ = ADDR(NIL);
      328     5312
      329     5313    2            CASE (%CLS_PATTERN);
      330     5314    2              PTR$->VD$PATTERN.MX_ENTRIES# = (NWORDS -
      331     5315    2                POFFW(ADDR(PTR$->VD$PATTERN.ENTRIES), PTR$)) /
      332     5316    2                SIZEW(VD$PATTERN.ENTRIES);
      333     5317    3              DO I = 0 TO (PTR$->VD$PATTERN.MX_ENTRIES# - 1);
PL6.E3A0      #001=VDG$OALLOC File=VDG$OBJECTS.:VDA5TSI                          FRI 07/04/97 11:20 Page:10
      334     5318    3                 PTR$->VD$PATTERN.ENTRIES.MATCH$ (I) = ADDR(NIL);
      335     5319    3                 END;
      336     5320
      337     5321    2            CASE (%CLS_EVAL_PATTERN);
      338     5322    2              PTR$->VD$EVAL_PATTERN.BLINK$ = ADDR(NIL);
      339     5323    2              PTR$->VD$EVAL_PATTERN.PATTERN$ = ADDR(NIL);
      340     5324
      341     5325    2            CASE (%CLS_PORT);
      342     5326    2              PTR$->VD$PORT.FLINK$ = ADDR(NIL);
      343     5327    2              PTR$->VD$PORT.BLINK$ = VD_6E.PORT_TAIL$;
      344     5328    2              IF VD_6E.PORT_TAIL$ = ADDR(NIL) THEN
      345     5329    2                 VD_6E.PORT_HEAD$ = PTR$;
      346     5330    2              ELSE
      347     5331    2                 VD_6E.PORT_TAIL$->VD$PORT.FLINK$ = PTR$;
      348     5332    2              VD_6E.PORT_TAIL$ = PTR$;
      349     5333    2              PTR$->VD$PORT.FIT$ = ADDR(NIL);
      350     5334    2              PTR$->VD$PORT.STRUCTURE$ = ADDR(NIL);
      351     5335    3              DO LEVEL_INDEX = 0 TO %MX_ACCESS_LEVELS - 1;
      352     5336    3                 PTR$->VD$PORT.LEVEL.DATA$ (LEVEL_INDEX) = ADDR(NIL);
      353     5337    3                 PTR$->VD$PORT.LEVEL.INTERNAL$ (LEVEL_INDEX) = ADDR(NIL);
      354     5338    3                 END;
      355     5339
      356     5340    2            CASE (%CLS_PTR_BLOCK_DESC, %CLS_PTR_FILE_NODE, %CLS_PTR_INTREE,
      357     5341    2                   %CLS_PTR_KEY, %CLS_PTR_LOCATION, %CLS_PTR_TEXTC);
      358     5342    2              PTR$->VD$POINTER.V$ = ADDR(NIL);
      359     5343
      360     5344    2            CASE (%CLS_RECORD_SET);
      361     5345    2              PTR$->VD$RECORD_SET.MX_ENTRIES# = (NWORDS -
      362     5346    2                POFFW(ADDR(PTR$->VD$RECORD_SET.DESC), PTR$)) /
      363     5347    2                SIZEW(VD$RECORD_SET.DESC);
      364     5348    3              DO I = 0 TO (PTR$->VD$RECORD_SET.MX_ENTRIES# - 1);
      365     5349    3                 PTR$->VD$RECORD_SET.DESC.DATA$ (I) = ADDR(NIL);
      366     5350    3                 END;
      367     5351
      368     5352    2            CASE (%CLS_STREAM);
      369     5353    2              PTR$->VD$STREAM.PORT$ = ADDR(NIL);
      370     5354
PL6.E3A0      #001=VDG$OALLOC File=VDG$OBJECTS.:VDA5TSI                          FRI 07/04/97 11:20 Page:11
      371     5355    2            CASE (%CLS_STRUCTURE_SPEC);
      372     5356    2              PTR$->VD$STRUCTURE_SPEC.ACCESSOR$ = ADDR(NIL);
      373     5357    2              PTR$->VD$STRUCTURE_SPEC.FIT$ = ADDR(NIL);
      374     5358
      375     5359    2            CASE (%CLS_TABS);
      376     5360    2              PTR$->VD$TABS.FLINK$ = ADDR(NIL);
      377     5361    2              PTR$->VD$TABS.MX_ENTRIES# = ((NWORDS * %NB_PER_WORD) -
      378     5362    2                POFFC(ADDR(PTR$->VD$TABS.STOPS#), PTR$)) /
      379     5363    2                LENGTHC(VD$TABS.STOPS# (0));
      380     5364
      381     5365    2            CASE (%CLS_WINDOW_BLOCK);
      382     5366    2              PTR$->VD$WINDOW_BLOCK.EDIT_BLOCK$ = ADDR(NIL);
      383     5367    2              PTR$->VD$WINDOW_BLOCK.EVAL$ = ADDR(NIL);
      384     5368
      385     5369    2            CASE (%CLS_WINDOW_SPEC);
      386     5370    2              PTR$->VD$WINDOW_SPEC.OPERAND.STREAM$ = ADDR(NIL);
      387     5371    2              PTR$->VD$WINDOW_SPEC.OPERAND.INTREE$ = ADDR(NIL);
      388     5372    2              PTR$->VD$WINDOW_SPEC.OPERAND.EDIT_BLOCK$ = ADDR(NIL);
      389     5373    2              PTR$->VD$WINDOW_SPEC.OPERAND.EVAL$ = ADDR(NIL);
      390     5374    2              PTR$->VD$WINDOW_SPEC.RECORD_SET$ = ADDR(NIL);
      391     5375    2              PTR$->VD$WINDOW_SPEC.SCREEN_UPDATED = %TRUE;
      392     5376    2              PTR$->VD$WINDOW_SPEC.TABS$ = ADDR(NIL);
      393     5377    2              PTR$->VD$WINDOW_SPEC.EOFMARK$ = ADDR(NIL);
      394     5378    2              PTR$->VD$WINDOW_SPEC.KEY_DEFINITION_BUFFER$ = ADDR(NIL);
      395     5379
      396     5380    2            CASE (%CLS_XLATE_LOCATIONS);
      397     5381    2              PTR$->VD$XLATE_LOCATIONS.FLINK$ = ADDR(NIL);
      398     5382    2              PTR$->VD$XLATE_LOCATIONS.MX_ENTRIES# = (NWORDS -
      399     5383    2                POFFW(ADDR(PTR$->VD$XLATE_LOCATIONS.XLATES), PTR$)) /
      400     5384    2                SIZEW(VD$XLATE_LOCATIONS.XLATES);
      401     5385
      402     5386    2            CASE (ELSE);
      403     5387    2              ;       /* No linking/NILing for other objects */
      404     5388    2            END;
      405     5389
      406     5390
      407     5391    1   OALLOC_RET:                 /* Label here so can debug w/o listings */
PL6.E3A0      #001=VDG$OALLOC File=VDG$OBJECTS.:VDA5TSI                          FRI 07/04/97 11:20 Page:12
      408     5392    1           RETURN;
      409     5393
      410     5394
      411     5395    1   ALLOCATE_FAILED:
      412     5396    2           IF MCB.ERR.CODE = %E$NOSPACE THEN DO;
      413     5397    2              VBASE(GDS_RESULTS) = MCB.SEGMENT_BASE$;
      414     5398    2              CALL M$GDS (FPT_GDS)
      415     5399    2                ALTRET (GDS_FAILED);
      416     5400    2              MCB.WKSZ = (VBOUND(GDS_RESULTS) + 1) / %NB_PER_WORD;
      417     5401
      418     5402    2              IF ADDR(MCB) = ADDR(VD_MCB_SMALL) THEN
      419     5403                      %INCREMENT (INDX=%STG_EXPAND_SEG_SMALL);
      420     5406    2              ELSE IF ADDR(MCB) = ADDR(VD_MCB_LARGE) THEN
      421     5407                         %INCREMENT (INDX=%STG_EXPAND_SEG_LARGE);
      422     5410
      423     5411    2              GOTO OALLOC;
      424     5412    2              END;
      425     5413
      426     5414    1           ERR$HEAD.ERR.CODE# = %E$ALLOCATE_FAILED;
      427     5415    1           ERR$HEAD.FLAGLEV# = %FLV_FATAL;
      428     5416    1           ALTRETURN;
      429     5417
      430     5418
      431     5419    1   GDS_FAILED:
      432     5420    1           ERR$HEAD.ERR = B$TCB$->B$TCB.ALT$->B$ALT.ERR;
      433     5421    1           ERR$HEAD.FLAGLEV# = %FLV_FATAL;
      434     5422    1           ALTRETURN;
      435     5423
      436     5424    1   END VDG$OALLOC;
      437     5425        %EOD;

PL6.E3A0      #001=VDG$OALLOC File=VDG$OBJECTS.:VDA5TSI                          FRI 07/04/97 11:20 Page:13
--  Include file information  --

   XUM_MACRO_C.:LIBRARY  is referenced.
   XU_PERR_C.:LIBRARY  is referenced.
   CP_6.:LIBRARY  cannot be made into a system file and is referenced.
   VD_PERR_C.:VDA5TOU  is referenced.
   VD_MACROS_M.:VDA5TOU  is referenced.
   B$JIT_C.:E04TOU  was found in the system file and is never referenced.
   CP_6_C.:E04TOU  was found in the system file and is referenced.
      No diagnostics issued in procedure VDG$OALLOC.

   Procedure VDG$OALLOC requires 485 words for executable code.
   Procedure VDG$OALLOC requires 20 words of local(AUTO) storage.

PL6.E3A0      #001=VDG$OALLOC File=VDG$OBJECTS.:VDA5TSI                          FRI 07/04/97 11:20 Page:14

 Object Unit name= VDG$OALLOC                                 File name= VDG$OBJECTS.:VDA5TOU
 UTS= JUL 04 '97 11:20:51.20 FRI                              Compiler= PL-6/E31         Sev=      00
 SharedLib= :SHARED_SYSTEM                                    Alt SharedLib=


    ****  Control sections  ****

 Sect   Type Bound  Init  Size OctSiz  Section name(segment info)
    0   DCB   even  none     0      0  M$UC
    1   Data  even  none     8     10  VDG$OALLOC
    2   Proc  even  none   485    745  VDG$OALLOC
    3  RoData even  none     6      6  VDG$OALLOC

    ****  Entry defs  ****

                              Check   Calling
                             calling  sequence
  Sect OctLoc Primary Altret sequence   type   Parms  Name
     2      0   yes    yes     yes      Std        3  VDG$OALLOC

  ****  Entry refs  ****

         Check        Calling
        calling       sequence
Altret sequence SRef   type   Args  Name
         yes           Std       3 VDG$ESCREECH
 yes     yes           Std       1 X$ALLOCATE
                       nStd      0 X66_AUTO_3
                       Std       0 B_CONSPOOL_D
                       nStd      0 X66_ARET
                       nStd      0 X66_AALT
PL6.E3A0      #001=VDG$OALLOC File=VDG$OBJECTS.:VDA5TSI                          FRI 07/04/97 11:20 Page:15

  ****  Data refs  ****

  Flags:  r = read only, s = secondary
Flgs Name                             Flgs Name                             Flgs Name
     M$UC                                  B$TCB$                                VD_6E
     VD_OBJECTS                            VD_MCB_LARGE                          VD_MCB_SMALL
     B_VECTNIL

  ****  Segment refs  ****

  Flags:  r = read only, s = secondary
Flgs Name                             Flgs Name                             Flgs Name
     ISSID
PL6.E3A0      #001=VDG$OALLOC File=VDG$OBJECTS.:VDA5TSI                          FRI 07/04/97 11:20 Page:16


        1        1        /*M* VDG$OBJECTS - Common operations on dynamic objects */
        2        2        /*T***********************************************************/
        3        3        /*T*                                                         */
        4        4        /*T* Copyright (c) Bull HN Information Systems Inc., 1997    */
        5        5        /*T*                                                         */
        6        6        /*T***********************************************************/
        7        7
        8        8        /*X* MCR=NO, DMC=YES */
        9        9        /*T*/
       10       10
       11       11        /*P* NAME:  VDG$OBJECTS
       12       12            PURPOSE:
       13       13                Common operations on objects on the heap.
       14       14            DESCRIPTION:
       15       15                This module contains several external routines.
       16       16
       17       17                VDG$OALLOC
       18       18                Uses XUM$MANAGE to dynamically allocate objects.  Automatically
       19       19                determines size to allocate based on object class.  Clears
       20       20                the entire object, except object header, to %CLEAR; also
       21       21                stores ADDR(NIL) in all pointer cells in the object.  For
       22       22                some object classes, also "pushes" the object onto a stack or
       23       23                chain of similar objects.
       24       24                Two data segments contain XUM$MANAGE'd storage:  one for
       25       25                small objects, one for large objects.
       26       26
       27       27                VDG$OALLOC_DCB
       28       28                Returns an unused DCB.  Pulls one from our list of unused
       29       29                DCBs; if list is empty, M$GETDCBs one.
       30       30
       31       31                VDG$OCOPY
       32       32                Creates a new object which is a copy of an existing object.
       33       33                If the original object points to other objects, VDG$OCOPY
       34       34                will make new copies of the attached objects, too.
       35       35
       36       36                VDG$OCOPY_x     (x = RANGE, LOCATION, KEY)
PL6.E3A0      #001=VDG$OALLOC File=VDG$OBJECTS.:VDA5TSI                          FRI 07/04/97 11:20 Page:17
       37       37                Special version of VDG$OCOPY for specific PL6 structures
       38       38                which aren't objects themselves, but which may point to
       39       39                other objects.  VDG$OCOPY_x copies all attached objects
       40       40                as well as the original structure.
       41       41
       42       42                VDG$OFREE
       43       43                Uses XUM$MANAGE to free dynamically-allocated objects.
       44       44                If the object points to other objects, will free the attached
       45       45                objects, too.
       46       46                For some object classes, will also "pop" the object from a global
       47       47                stack.
       48       48
       49       49                VDG$OFREE_DCB
       50       50                Free a DCB.  Puts it into our list of unused DCBs; if list
       51       51                is full, M$RELDCBs it.
       52       52
       53       53                VDG$OCLEAR_x        (x = RANGE, LOCATION)
       54       54                Special version of VDG$OFREE for specific PL6 structures
       55       55                which aren't objects themselves, but which may point to
       56       56                other objects.  VDG$OCLEAR_x frees any attached objects,
       57       57                then %CLEARs/NILs the original structure.
       58       58        */
       59       59
       60       60        /*D* NAME: VDG$OALLOC
       61       61            PARAMETERS:
       62       62                CLASS - A %CLS_ def; class of object to allocate.
       63       63                PTR$ - An uninitialized PTR.
       64       64                SIZE - Optional: # words to allocate for variable-length objects.
       65       65            INPUT:
       66       66                VD_MCB_LARGE - XUM$MCB for large-object heap.
       67       67                VD_MCB_SMALL - XUM$MCB for small-object heap.
       68       68                VD_OBJECTS - Info about object classes.
       69       69            OUTPUT:
       70       70                PTR$ will contain a pointer to the first word of the object;
       71       71                    this is the address of the VD$OBJECT_HEADER element of
       72       72                    the allocated structure; this element will be filled in.
       73       73                CAUTION:  Callers must not %CLEAR the storage allocated for
PL6.E3A0      #001=VDG$OALLOC File=VDG$OBJECTS.:VDA5TSI                          FRI 07/04/97 11:20 Page:18
       74       74                    them, since this would also clear the VD$OBJECT_HEADER
       75       75                    (which we just filled in).  VDG$OALLOC will clear the
       76       76                    storage allocated before returning, including storing
       77       77                    ADDR(NIL) in any pointer cells.
       78       78            DESCRIPTION:
       79       79                Calls X$ALLOCATE to allocate the storage.  If we can't get
       80       80                    enough storage, expands the data segment and calls
       81       81                    X$ALLOCATE again.
       82       82                Clear the allocated storage to %CLEAR, then fill in any
       83       83                    pointer cells with ADDR(NIL).
       84       84                        NOTE - VD$KEY.V$ and VD$SPEC.V$ are not filled in
       85       85                        with NIL, 'cause in their %CLEAR state .REP# = 0,
       86       86                        and .V$ is only a pointer when .REP# = %REP_REMOTE.
       87       87
       88       88                Certain objects get linked to the end of a predefined chain when
       89       89                    they are allocated:
       90       90                    Object:          Is linked to the tail of:
       91       91                    -----------      ----------------------------
       92       92                    %CLS_CMD_STREAM  VD_6E.CMD_STREAM$ (points to tail)
       93       93                    %CLS_ERR         VD_6E.ERR_HEAD$/.ERR_TAIL$
       94       94                    %CLS_PORT        VD_6E.PORT_HEAD$/.PORT_TAIL$
       95       95        */
       96       96
       97       97        VDG$OALLOC: PROC (CLASS, PTR_PARAM$, SIZE) ALTRET;

     97  2 000000   000000 700200 xent  VDG$OALLOC   TSX0  ! X66_AUTO_3
         2 000001   000024 000003                    ZERO    20,3

       98       98
       99       99
      100      100        %INCLUDE VD_MACROS_M;
      101     2315        %INCLUDE VD_PERR_C;
      102     2463        %INCLUDE CP_6;
      103     2544        %INCLUDE XU_PERR_C;
      104     2735        %INCLUDE XUM_MACRO_C;
      105     2762
      106     2763
PL6.E3A0      #001=VDG$OALLOC File=VDG$OBJECTS.:VDA5TSI                          FRI 07/04/97 11:20 Page:19
      107     2764    1   DCL CLASS UBIN;
      108     2765    1   DCL PTR_PARAM$ PTR;
      109     2766    1   DCL SIZE UBIN;
      110     2767
      111     2768
      112     2769    1   DCL X$ALLOCATE      ENTRY (1) ALTRET;
      113     2770    1   DCL VDG$ESCREECH    ENTRY (3);
      114     2771
      115     2772
      116     2773    1   DCL B$TCB$ PTR SYMREF;
      117     2774        %VD_6E (STCLASS=SYMREF);
      118     2810        %VD_OBJECTS (NAME=VD_OBJECTS, STCLASS=SYMREF);
      119     2850        %XUM$MCB (NAME=VD_MCB_LARGE, STCLASS=SYMREF);
      120     2854        %XUM$MCB (NAME=VD_MCB_SMALL, STCLASS=SYMREF);
      121     2858
      122     2859
      123     2860        %FPT_GDS (RESULTS=GDS_RESULTS, SEGSIZE=%NW_DATA_SEG_INCR);
      124     2876    1   DCL GDS_RESULTS VECTOR STATIC;
      125     2877
      126     2878
      127     2879    1   DCL PTR$ PTR;
      128     2880    1   DCL LEVEL_INDEX UBIN;
      129     2881    1   DCL MCB$ PTR;
      130     2882    1   DCL NWORDS SBIN;
      131     2883    1   DCL NBYTES SBIN;
      132     2884    1   DCL SEG_PTR$ PTR;
      133     2885    1   DCL 1 SEG_PTR REDEF SEG_PTR$,
      134     2886    1         2 * UBIN(24) UNAL,
      135     2887    1         2 SEGID BIT(12) UNAL;
      136     2888    1   DCL SEG_PTR2$ PTR;
      137     2889    1   DCL 1 SEG_PTR2 REDEF SEG_PTR2$,
      138     2890    1         2 * UBIN(24) UNAL,
      139     2891    1         2 SEGID BIT(12) UNAL;
      140     2892    1   DCL PTR2$ PTR;
      141     2893    1   DCL I SBIN;
      142     2894
      143     2895
PL6.E3A0      #001=VDG$OALLOC File=VDG$OBJECTS.:VDA5TSI                          FRI 07/04/97 11:20 Page:20
      144     2896        %XUM$MCB (NAME=MCB, STCLASS="BASED(MCB$)");
      145     2900    1   DCL 1 VAR_LEN_STRUCTURE BASED(PTR$),
      146     2901    1         2 * CHAR(NBYTES);
      147     2902        %VD$OBJECT_HEADER (NAME=OBJECT$HEADER, STCLASS="BASED(PTR$)");
      148     2924        %VD$STRING_HEADER;
      149     2960        %VD$BUFFER_HEADER;
      150     2996        %VD$BLOCK_DESC;
      151     3143        %VD$BUFFER;
      152     3201        %VD$CMD_STREAM;
      153     3240        %VD$DIR_NODE;
      154     3278        %VD$ENCODED_NODE;
      155     3399        %VD$ERR;
      156     3452        %VD$EVAL;
      157     3697        %VD$FILE_KEY;
      158     3746        %VD$FILE_NODE;
      159     3839        %VD$FIT;
      160     3875        %VD$IT_ADJUST;
      161     3912        %VD$IT_BLOCK_EXPR;
      162     4062        %VD$IT_COMMAND;
      163     4100        %VD$IT_OPERAND;
      164     4166        %VD$IT_OPERATOR;
      165     4203        %VD$IT_SELECT;
      166     4240        %VD$PATTERN;
      167     4291        %VD$EVAL_PATTERN;
      168     4398        %VD$POINTER;
      169     4443        %VD$PORT;
      170     4541        %VD$RECORD_SET;
      171     4619        %VD$STREAM;
      172     4725        %VD$STRUCTURE_SPEC;
      173     4762        %VD$TABS;
      174     4799        %VD$TEXTC_REMOTE;
      175     4860        %VD$WINDOW_BLOCK;
      176     4897        %VD$WINDOW_SPEC;
      177     4963        %VD$XLATE_LOCATIONS;
      178     5099        %B$TCB;
      179     5102        %B$ALT;
      180     5110        %VD$ERR (NAME=ERR$HEAD, STCLASS="BASED(VD_6E.ERR_HEAD$)");
PL6.E3A0      #001=VDG$OALLOC File=VDG$OBJECTS.:VDA5TSI                          FRI 07/04/97 11:20 Page:21
      181     5163
      182     5164
      183     5165    1   OALLOC:
      184     5166    1           IF CLASS >= %CLS_MX

   5166  2 000002   200003 470500       OALLOC       LDP0    @CLASS,,AUTO
         2 000003   000000 235100                    LDA     0,,PR0
         2 000004   000143 115007                    CMPA    99,DL
         2 000005   000012 603000 2                  TRC     s:5168
         2 000006   000000 235100                    LDA     0,,PR0
         2 000007   000001 735000                    ALS     1
         2 000010   000000 220005 xsym               LDX0    VD_OBJECTS,AL
         2 000011   000016 605000 2                  TPL     s:5169

      185     5167    1             OR VD_OBJECTS.SIZE (CLASS) < 0 THEN
      186     5168    1              CALL VDG$ESCREECH (CLASS);

   5168  2 000012   200003 630500                    EPPR0   @CLASS,,AUTO
         2 000013   000017 631400 xsym               EPPR1   B_VECTNIL+15
         2 000014   000000 701000 xent               TSX1    VDG$ESCREECH
         2 000015   000000 011000                    NOP     0

      187     5169    1           IF ADDR(SIZE) = ADDR(NIL) THEN

   5169  2 000016   200005 236100                    LDQ     @SIZE,,AUTO
         2 000017   000001 116000 xsym               CMPQ    B_VECTNIL+1
         2 000020   000030 601000 2                  TNZ     s:5172

      188     5170    1              NWORDS = VD_OBJECTS.SIZE (CLASS);

   5170  2 000021   200003 470500                    LDP0    @CLASS,,AUTO
         2 000022   000000 235100                    LDA     0,,PR0
         2 000023   000001 735000                    ALS     1
         2 000024   000000 236005 xsym               LDQ     VD_OBJECTS,AL
         2 000025   000022 732000                    QRS     18
         2 000026   200011 756100                    STQ     NWORDS,,AUTO
         2 000027   000033 710000 2                  TRA     s:5173
PL6.E3A0      #001=VDG$OALLOC File=VDG$OBJECTS.:VDA5TSI                          FRI 07/04/97 11:20 Page:22

      189     5171    1           ELSE
      190     5172    1              NWORDS = SIZE;

   5172  2 000030   200005 470500                    LDP0    @SIZE,,AUTO
         2 000031   000000 235100                    LDA     0,,PR0
         2 000032   200011 755100                    STA     NWORDS,,AUTO

      191     5173    1           IF NWORDS <= 0 THEN

   5173  2 000033   200011 235100                    LDA     NWORDS,,AUTO
         2 000034   000045 605400 2                  TPNZ    s:5176

      192     5174    1              CALL VDG$ESCREECH (CLASS, NWORDS);

   5174  2 000035   200011 630500                    EPPR0   NWORDS,,AUTO
         2 000036   200021 450500                    STP0    I+3,,AUTO
         2 000037   200003 236100                    LDQ     @CLASS,,AUTO
         2 000040   200020 756100                    STQ     I+2,,AUTO
         2 000041   200020 630500                    EPPR0   I+2,,AUTO
         2 000042   000020 631400 xsym               EPPR1   B_VECTNIL+16
         2 000043   000000 701000 xent               TSX1    VDG$ESCREECH
         2 000044   000000 011000                    NOP     0

      193     5175
      194     5176    1           IF NWORDS > %MXNW_SMALL_SEGMENT_CHUNK THEN

   5176  2 000045   200011 235100                    LDA     NWORDS,,AUTO
         2 000046   000013 115007                    CMPA    11,DL
         2 000047   000053 604400 2                  TMOZ    s:5179

      195     5177    1              MCB$ = ADDR(VD_MCB_LARGE);

   5177  2 000050   000000 236000 3                  LDQ     0
         2 000051   200010 756100                    STQ     MCB$,,AUTO
         2 000052   000055 710000 2                  TRA     s:5180

PL6.E3A0      #001=VDG$OALLOC File=VDG$OBJECTS.:VDA5TSI                          FRI 07/04/97 11:20 Page:23
      196     5178    1           ELSE
      197     5179    1              MCB$ = ADDR(VD_MCB_SMALL);

   5179  2 000053   000001 236000 3                  LDQ     1
         2 000054   200010 756100                    STQ     MCB$,,AUTO

      198     5180    1           MCB.SIZE = NWORDS;

   5180  2 000055   200010 470500                    LDP0    MCB$,,AUTO
         2 000056   000006 755100                    STA     6,,PR0

      199     5181    1           CALL X$ALLOCATE (MCB) ALTRET (ALLOCATE_FAILED);

   5181  2 000057   200010 630500                    EPPR0   MCB$,,AUTO
         2 000060   000017 631400 xsym               EPPR1   B_VECTNIL+15
         2 000061   000000 701000 xent               TSX1    X$ALLOCATE
         2 000062   000670 702000 2                  TSX2    ALLOCATE_FAILED

      200     5182    1           PTR$ = MCB.ADDRESS$;

   5182  2 000063   200010 470500                    LDP0    MCB$,,AUTO
         2 000064   000000 236100                    LDQ     0,,PR0
         2 000065   200006 756100                    STQ     PTR$,,AUTO

      201     5183    1           PTR_PARAM$ = MCB.ADDRESS$;

   5183  2 000066   200004 471500                    LDP1    @PTR_PARAM$,,AUTO
         2 000067   100000 756100                    STQ     0,,PR1

      202     5184
      203     5185                /*
      204     5186                *  Check to make sure we got the storage from the segment we
      205     5187                *   asked to get it from.
      206     5188                */
      207     5189    1           SEG_PTR$ = PTR$;

   5189  2 000070   200013 756100                    STQ     SEG_PTR$,,AUTO
PL6.E3A0      #001=VDG$OALLOC File=VDG$OBJECTS.:VDA5TSI                          FRI 07/04/97 11:20 Page:24

      208     5190    1           SEG_PTR2$ = MCB.SEGMENT_BASE$;

   5190  2 000071   000002 236100                    LDQ     2,,PR0
         2 000072   200014 756100                    STQ     SEG_PTR2$,,AUTO

      209     5191    1           IF SEG_PTR.SEGID ~= SEG_PTR2.SEGID THEN

   5191  2 000073   200013 236100                    LDQ     SEG_PTR$,,AUTO
         2 000074   200014 676100                    ERQ     SEG_PTR2$,,AUTO
         2 000075   007777 376007                    ANQ     4095,DL
         2 000076   000102 600000 2                  TZE     s:5194

      210     5192    1              CALL VDG$ESCREECH;

   5192  2 000077   000002 631400 xsym               EPPR1   B_VECTNIL+2
         2 000100   000000 701000 xent               TSX1    VDG$ESCREECH
         2 000101   000000 011000                    NOP     0

      211     5193
      212     5194    1           NBYTES = NWORDS * %NB_PER_WORD;

   5194  2 000102   200011 235100                    LDA     NWORDS,,AUTO
         2 000103   000002 735000                    ALS     2
         2 000104   200012 755100                    STA     NBYTES,,AUTO

      213     5195    1           VAR_LEN_STRUCTURE = %CLEAR;

   5195  2 000105   200006 470500                    LDP0    PTR$,,AUTO
         2 000106   000000 620005                    EAX0    0,AL
         2 000107   000140 100400                    MLR     fill='000'O
         2 000110   000002 000001 xsym               ADSC9   B_VECTNIL+2              cn=0,n=1
         2 000111   000000 000010                    ADSC9   0,,PR0                   cn=0,n=*X0

      214     5196    1           OBJECT$HEADER.CLASS# = CLASS;

   5196  2 000112   200003 471500                    LDP1    @CLASS,,AUTO
PL6.E3A0      #001=VDG$OALLOC File=VDG$OBJECTS.:VDA5TSI                          FRI 07/04/97 11:20 Page:25
         2 000113   100000 720100                    LXL0    0,,PR1
         2 000114   000000 740100                    STX0    0,,PR0

      215     5197    1           OBJECT$HEADER.SIZE# = NWORDS;

   5197  2 000115   200011 721100                    LXL1    NWORDS,,AUTO
         2 000116   000000 441100                    SXL1    0,,PR0

      216     5198    2           IF VD_OBJECTS.STR (CLASS) THEN DO;

   5198  2 000117   100000 235100                    LDA     0,,PR1
         2 000120   000001 735000                    ALS     1
         2 000121   000000 236005 xsym               LDQ     VD_OBJECTS,AL
         2 000122   040000 316007                    CANQ    16384,DL
         2 000123   000133 600000 2                  TZE     s:5202

      217     5199    2              PTR$->VD$TEXTC_REMOTE.FLINK$ = ADDR(NIL);

   5199  2 000124   000001 236000 xsym               LDQ     B_VECTNIL+1
         2 000125   000001 756100                    STQ     1,,PR0

      218     5200    2              PTR$->VD$TEXTC_REMOTE.LENGTH# = NBYTES - LENGTHC(VD$STRING_HEADER);

   5200  2 000126   200012 236100                    LDQ     NBYTES,,AUTO
         2 000127   000011 136007                    SBLQ    9,DL
         2 000130   000033 736000                    QLS     27
         2 000131   000002 552140                    STBQ    2,'40'O,PR0

      219     5201    2              END;

   5201  2 000132   000142 710000 2                  TRA     s:5207

      220     5202    2           ELSE IF VD_OBJECTS.BUF (CLASS) THEN DO;

   5202  2 000133   400000 316007                    CANQ    -131072,DL
         2 000134   000142 600000 2                  TZE     s:5207

PL6.E3A0      #001=VDG$OALLOC File=VDG$OBJECTS.:VDA5TSI                          FRI 07/04/97 11:20 Page:26
      221     5203    2                 PTR$->VD$BUFFER.FLINK$ = ADDR(NIL);

   5203  2 000135   000001 236000 xsym               LDQ     B_VECTNIL+1
         2 000136   000001 756100                    STQ     1,,PR0

      222     5204    2                 PTR$->VD$BUFFER.LENGTH# = NBYTES - LENGTHC(VD$BUFFER_HEADER);

   5204  2 000137   200012 722100                    LXL2    NBYTES,,AUTO
         2 000140   777766 623012                    EAX3    -10,X2
         2 000141   000002 743100                    STX3    2,,PR0

      223     5205    2                 END;

      224     5206                %INCREMENT (ARRAY=STATS_OBJECTS#, INDX=CLASS);

   5207  2 000142   100000 722100                    LXL2    0,,PR1
         2 000143   000201 054012 xsym               AOS     VD_6E+129,X2

      225     5209
      226     5210                /*
      227     5211                *   If appropriate, link the object onto the end of a chain.
      228     5212                *   Also, NIL out any pointers in the structure.
      229     5213                */
      230     5214
      231     5215    2           DO CASE (CLASS);

   5215  2 000144   100000 235100                    LDA     0,,PR1
         2 000145   000057 115007                    CMPA    47,DL
         2 000146   000150 602005 2                  TNC     s:5215+4,AL
         2 000147   000667 710000 2                  TRA     OALLOC_RET
         2 000150   000667 710000 2                  TRA     OALLOC_RET
         2 000151   000232 710000 2                  TRA     s:5220
         2 000152   000227 710000 2                  TRA     s:5217
         2 000153   000667 710000 2                  TRA     OALLOC_RET
         2 000154   000667 710000 2                  TRA     OALLOC_RET
         2 000155   000245 710000 2                  TRA     s:5225
         2 000156   000667 710000 2                  TRA     OALLOC_RET
PL6.E3A0      #001=VDG$OALLOC File=VDG$OBJECTS.:VDA5TSI                          FRI 07/04/97 11:20 Page:27
         2 000157   000667 710000 2                  TRA     OALLOC_RET
         2 000160   000255 710000 2                  TRA     s:5235
         2 000161   000265 710000 2                  TRA     s:5242
         2 000162   000270 710000 2                  TRA     s:5245
         2 000163   000307 710000 2                  TRA     s:5254
         2 000164   000466 710000 2                  TRA     s:5322
         2 000165   000667 710000 2                  TRA     OALLOC_RET
         2 000166   000314 710000 2                  TRA     s:5258
         2 000167   000334 710000 2                  TRA     s:5265
         2 000170   000667 710000 2                  TRA     OALLOC_RET
         2 000171   000344 710000 2                  TRA     s:5272
         2 000172   000351 710000 2                  TRA     s:5276
         2 000173   000360 710000 2                  TRA     s:5282
         2 000174   000370 710000 2                  TRA     s:5289
         2 000175   000407 710000 2                  TRA     s:5297
         2 000176   000415 710000 2                  TRA     s:5302
         2 000177   000424 710000 2                  TRA     s:5308
         2 000200   000667 710000 2                  TRA     OALLOC_RET
         2 000201   000667 710000 2                  TRA     OALLOC_RET
         2 000202   000667 710000 2                  TRA     OALLOC_RET
         2 000203   000667 710000 2                  TRA     OALLOC_RET
         2 000204   000667 710000 2                  TRA     OALLOC_RET
         2 000205   000433 710000 2                  TRA     s:5314
         2 000206   000667 710000 2                  TRA     OALLOC_RET
         2 000207   000473 710000 2                  TRA     s:5326
         2 000210   000535 710000 2                  TRA     s:5342
         2 000211   000535 710000 2                  TRA     s:5342
         2 000212   000535 710000 2                  TRA     s:5342
         2 000213   000535 710000 2                  TRA     s:5342
         2 000214   000535 710000 2                  TRA     s:5342
         2 000215   000535 710000 2                  TRA     s:5342
         2 000216   000540 710000 2                  TRA     s:5345
         2 000217   000574 710000 2                  TRA     s:5353
         2 000220   000667 710000 2                  TRA     OALLOC_RET
         2 000221   000577 710000 2                  TRA     s:5356
         2 000222   000603 710000 2                  TRA     s:5360
         2 000223   000667 710000 2                  TRA     OALLOC_RET
PL6.E3A0      #001=VDG$OALLOC File=VDG$OBJECTS.:VDA5TSI                          FRI 07/04/97 11:20 Page:28
         2 000224   000626 710000 2                  TRA     s:5366
         2 000225   000632 710000 2                  TRA     s:5370
         2 000226   000647 710000 2                  TRA     s:5381

      232     5216    2            CASE (%CLS_BLOCK_DESC);

      233     5217    2              PTR$->VD$BLOCK_DESC.OPTIONS.STRUCTURE$ = ADDR(NIL);

   5217  2 000227   000001 236000 xsym               LDQ     B_VECTNIL+1
         2 000230   000025 756100                    STQ     21,,PR0
         2 000231   000667 710000 2                  TRA     OALLOC_RET

      234     5218
      235     5219    2            CASE (%CLS_BLOCK_BUFFER);

      236     5220    2              PTR2$ = PALIGNW(ADDR(PTR$->VD$BUFFER.BYTES));

   5220  2 000232   200006 236100                    LDQ     PTR$,,AUTO
         2 000233   000002 036000 3                  ADLQ    2
         2 000234   770000 036007                    ADLQ    -4096,DL
         2 000235   000003 376000 3                  ANQ     3
         2 000236   200015 756100                    STQ     PTR2$,,AUTO

      237     5221    2              PTR2$->VD$BLOCK_DESC.OBJECT.CLASS# = %CLS_BLOCK_DESC;

   5221  2 000237   000002 220003                    LDX0    2,DU
         2 000240   200015 473500                    LDP3    PTR2$,,AUTO
         2 000241   300000 740100                    STX0    0,,PR3

      238     5222    2              PTR2$->VD$BLOCK_DESC.OPTIONS.STRUCTURE$ = ADDR(NIL);

   5222  2 000242   000001 236000 xsym               LDQ     B_VECTNIL+1
         2 000243   300025 756100                    STQ     21,,PR3
         2 000244   000667 710000 2                  TRA     OALLOC_RET

      239     5223
      240     5224    2            CASE (%CLS_CMD_STREAM);
PL6.E3A0      #001=VDG$OALLOC File=VDG$OBJECTS.:VDA5TSI                          FRI 07/04/97 11:20 Page:29

      241     5225    2              PTR$->VD$CMD_STREAM.BLINK$ = VD_6E.CMD_STREAM$;

   5225  2 000245   000026 236000 xsym               LDQ     VD_6E+22
         2 000246   000001 756100                    STQ     1,,PR0

      242     5226    2              VD_6E.CMD_STREAM$ = PTR$;

   5226  2 000247   200006 236100                    LDQ     PTR$,,AUTO
         2 000250   000026 756000 xsym               STQ     VD_6E+22

      243     5227    2              PTR$->VD$CMD_STREAM.RECORD$ = ADDR(NIL);

   5227  2 000251   000001 236000 xsym               LDQ     B_VECTNIL+1
         2 000252   000025 756100                    STQ     21,,PR0

      244     5228    2              PTR$->VD$CMD_STREAM.INTREE$ = ADDR(NIL);

   5228  2 000253   000026 756100                    STQ     22,,PR0
         2 000254   000667 710000 2                  TRA     OALLOC_RET

      245     5229
      246     5230    2            CASE (%CLS_DIR_NODE);

      247     5231                   /*
      248     5232                   *    DIR_NODEs are linked together by the caller since
      249     5233                   *    there isn't a global pointer to the tail of the chain.
      250     5234                   */
      251     5235    2              PTR$->VD$DIR_NODE.BLINK$ = ADDR(NIL);

   5235  2 000255   000001 236000 xsym               LDQ     B_VECTNIL+1
         2 000256   000001 756100                    STQ     1,,PR0

      252     5236    2              PTR$->VD$DIR_NODE.FLINK$ = ADDR(NIL);

   5236  2 000257   000001 236000 xsym               LDQ     B_VECTNIL+1
         2 000260   000002 756100                    STQ     2,,PR0
PL6.E3A0      #001=VDG$OALLOC File=VDG$OBJECTS.:VDA5TSI                          FRI 07/04/97 11:20 Page:30

      253     5237    2              PTR$->VD$DIR_NODE.STRUCTURE$ = ADDR(NIL);

   5237  2 000261   000014 756100                    STQ     12,,PR0

      254     5238    2              PTR$->VD$DIR_NODE.HEAD$ = ADDR(NIL);

   5238  2 000262   000015 756100                    STQ     13,,PR0

      255     5239    2              PTR$->VD$DIR_NODE.TAIL$ = ADDR(NIL);

   5239  2 000263   000016 756100                    STQ     14,,PR0
         2 000264   000667 710000 2                  TRA     OALLOC_RET

      256     5240
      257     5241    2            CASE (%CLS_ENCODED_NODE);

      258     5242    2              PTR$->VD$ENCODED_NODE.DESC.DATA$ = ADDR(NIL);

   5242  2 000265   000001 236000 xsym               LDQ     B_VECTNIL+1
         2 000266   000030 756100                    STQ     24,,PR0
         2 000267   000667 710000 2                  TRA     OALLOC_RET

      259     5243
      260     5244    2            CASE (%CLS_ERR);

      261     5245    2              PTR$->VD$ERR.FLINK$ = ADDR(NIL);

   5245  2 000270   000001 236000 xsym               LDQ     B_VECTNIL+1
         2 000271   000001 756100                    STQ     1,,PR0

      262     5246    2              PTR$->VD$ERR.CMDLINE_INDEX# = -1;

   5246  2 000272   777777 220003                    LDX0    -1,DU
         2 000273   000003 440100                    SXL0    3,,PR0

      263     5247    2              IF VD_6E.ERR_HEAD$ = ADDR(NIL) THEN
PL6.E3A0      #001=VDG$OALLOC File=VDG$OBJECTS.:VDA5TSI                          FRI 07/04/97 11:20 Page:31

   5247  2 000274   000031 236000 xsym               LDQ     VD_6E+25
         2 000275   000001 116000 xsym               CMPQ    B_VECTNIL+1
         2 000276   000302 601000 2                  TNZ     s:5250

      264     5248    2                 VD_6E.ERR_HEAD$ = PTR$;

   5248  2 000277   200006 236100                    LDQ     PTR$,,AUTO
         2 000300   000031 756000 xsym               STQ     VD_6E+25
         2 000301   000305 710000 2                  TRA     s:5251

      265     5249    2              ELSE
      266     5250    2                 VD_6E.ERR_TAIL$->VD$ERR.FLINK$ = PTR$;

   5250  2 000302   200006 236100                    LDQ     PTR$,,AUTO
         2 000303   000032 473400 xsym               LDP3    VD_6E+26
         2 000304   300001 756100                    STQ     1,,PR3

      267     5251    2              VD_6E.ERR_TAIL$ = PTR$;

   5251  2 000305   000032 756000 xsym               STQ     VD_6E+26
         2 000306   000667 710000 2                  TRA     OALLOC_RET

      268     5252
      269     5253    2            CASE (%CLS_EVAL);

      270     5254    2              PTR$->VD$EVAL.BLINK$ = ADDR(NIL);

   5254  2 000307   000001 236000 xsym               LDQ     B_VECTNIL+1
         2 000310   000001 756100                    STQ     1,,PR0

      271     5255    2              PTR$->VD$EVAL.NODE$ = ADDR(NIL);

   5255  2 000311   000001 236000 xsym               LDQ     B_VECTNIL+1
         2 000312   000071 756100                    STQ     57,,PR0
         2 000313   000667 710000 2                  TRA     OALLOC_RET

PL6.E3A0      #001=VDG$OALLOC File=VDG$OBJECTS.:VDA5TSI                          FRI 07/04/97 11:20 Page:32
      272     5256
      273     5257    2            CASE (%CLS_FILE_KEY);

      274     5258    2              PTR$->VD$FILE_KEY.FLINK$ = ADDR(NIL);

   5258  2 000314   000001 236000 xsym               LDQ     B_VECTNIL+1
         2 000315   000001 756100                    STQ     1,,PR0

      275     5259    2              PTR$->VD$FILE_KEY.UNIQUE.ACCT = %CHR_SPACE;

   5259  2 000316   040100 100400                    MLR     fill='040'O
         2 000317   000035 000001 xsym               ADSC9   B_VECTNIL+29             cn=0,n=1
         2 000320   000002 200010                    ADSC9   2,,PR0                   cn=1,n=8

      276     5260    2              PTR$->VD$FILE_KEY.RES = %CHR_SPACE;

   5260  2 000321   040100 100400                    MLR     fill='040'O
         2 000322   000035 000001 xsym               ADSC9   B_VECTNIL+29             cn=0,n=1
         2 000323   000014 400004                    ADSC9   12,,PR0                  cn=2,n=4

      277     5261    2              PTR$->VD$FILE_KEY.PSN = %CHR_SPACE;

   5261  2 000324   040100 100400                    MLR     fill='040'O
         2 000325   000035 000001 xsym               ADSC9   B_VECTNIL+29             cn=0,n=1
         2 000326   000015 400006                    ADSC9   13,,PR0                  cn=2,n=6

      278     5262    2              PTR$->VD$FILE_KEY.PASS = %CHR_SPACE;

   5262  2 000327   000035 235000 xsym               LDA     B_VECTNIL+29
         2 000330   000035 236000 xsym               LDQ     B_VECTNIL+29
         2 000331   000017 755100                    STA     15,,PR0
         2 000332   000020 756100                    STQ     16,,PR0
         2 000333   000667 710000 2                  TRA     OALLOC_RET

      279     5263
      280     5264    2            CASE (%CLS_FILE_NODE);

PL6.E3A0      #001=VDG$OALLOC File=VDG$OBJECTS.:VDA5TSI                          FRI 07/04/97 11:20 Page:33
      281     5265    2              PTR$->VD$FILE_NODE.BLINK$ = ADDR(NIL);

   5265  2 000334   000001 236000 xsym               LDQ     B_VECTNIL+1
         2 000335   000001 756100                    STQ     1,,PR0

      282     5266    2              PTR$->VD$FILE_NODE.FLINK$ = ADDR(NIL);

   5266  2 000336   000001 236000 xsym               LDQ     B_VECTNIL+1
         2 000337   000002 756100                    STQ     2,,PR0

      283     5267    2              PTR$->VD$FILE_NODE.DESC.DATA$ = ADDR(NIL);

   5267  2 000340   000010 756100                    STQ     8,,PR0

      284     5268    2              PTR$->VD$FILE_NODE.HEAD$ = ADDR(NIL);

   5268  2 000341   000012 756100                    STQ     10,,PR0

      285     5269    2              PTR$->VD$FILE_NODE.TAIL$ = ADDR(NIL);

   5269  2 000342   000013 756100                    STQ     11,,PR0
         2 000343   000667 710000 2                  TRA     OALLOC_RET

      286     5270
      287     5271    2            CASE (%CLS_FIT);

      288     5272    2              PTR$->VD$FIT.CODE2$ = ADDR(NIL);

   5272  2 000344   000001 236000 xsym               LDQ     B_VECTNIL+1
         2 000345   000001 756100                    STQ     1,,PR0

      289     5273    2              PTR$->VD$FIT.CODE3$ = ADDR(NIL);

   5273  2 000346   000001 236000 xsym               LDQ     B_VECTNIL+1
         2 000347   000002 756100                    STQ     2,,PR0
         2 000350   000667 710000 2                  TRA     OALLOC_RET

PL6.E3A0      #001=VDG$OALLOC File=VDG$OBJECTS.:VDA5TSI                          FRI 07/04/97 11:20 Page:34
      290     5274
      291     5275    2            CASE (%CLS_IT_ADJUST);

      292     5276    2              PTR$->VD$IT_ADJUST.PARENT$ = ADDR(NIL);

   5276  2 000351   000001 236000 xsym               LDQ     B_VECTNIL+1
         2 000352   000001 756100                    STQ     1,,PR0

      293     5277    2              PTR$->VD$IT_ADJUST.FLINK$ = ADDR(NIL);

   5277  2 000353   000001 236000 xsym               LDQ     B_VECTNIL+1
         2 000354   000002 756100                    STQ     2,,PR0

      294     5278    2              PTR$->VD$IT_ADJUST.MOVEMENTS$ = ADDR(NIL);

   5278  2 000355   000004 756100                    STQ     4,,PR0

      295     5279    2              PTR$->VD$IT_ADJUST.MOVEMENTS_TAIL$ = ADDR(NIL);

   5279  2 000356   000005 756100                    STQ     5,,PR0
         2 000357   000667 710000 2                  TRA     OALLOC_RET

      296     5280
      297     5281    2            CASE (%CLS_IT_BLOCK_EXPR);

      298     5282    2              PTR$->VD$IT_BLOCK_EXPR.PARENT$ = ADDR(NIL);

   5282  2 000360   000001 236000 xsym               LDQ     B_VECTNIL+1
         2 000361   000001 756100                    STQ     1,,PR0

      299     5283    2              PTR$->VD$IT_BLOCK_EXPR.FLINK$ = ADDR(NIL);

   5283  2 000362   000001 236000 xsym               LDQ     B_VECTNIL+1
         2 000363   000002 756100                    STQ     2,,PR0

      300     5284    2              PTR$->VD$IT_BLOCK_EXPR.OPTIONS.STRUCTURE$ = ADDR(NIL);

PL6.E3A0      #001=VDG$OALLOC File=VDG$OBJECTS.:VDA5TSI                          FRI 07/04/97 11:20 Page:35
   5284  2 000364   000030 756100                    STQ     24,,PR0

      301     5285    2              PTR$->VD$IT_BLOCK_EXPR.SELECTS$ = ADDR(NIL);

   5285  2 000365   000035 756100                    STQ     29,,PR0

      302     5286    2              PTR$->VD$IT_BLOCK_EXPR.SELECTS_TAIL$ = ADDR(NIL);

   5286  2 000366   000036 756100                    STQ     30,,PR0
         2 000367   000667 710000 2                  TRA     OALLOC_RET

      303     5287
      304     5288    2            CASE (%CLS_IT_COMMAND);

      305     5289    2              PTR$->VD$IT_COMMAND.PARENT$ = ADDR(NIL);

   5289  2 000370   000001 236000 xsym               LDQ     B_VECTNIL+1
         2 000371   000001 756100                    STQ     1,,PR0

      306     5290    2              PTR$->VD$IT_COMMAND.FLINK$ = ADDR(NIL);

   5290  2 000372   000001 236000 xsym               LDQ     B_VECTNIL+1
         2 000373   000002 756100                    STQ     2,,PR0

      307     5291    2              PTR$->VD$IT_COMMAND.PT_BLOCK_EXPR$ = ADDR(NIL);

   5291  2 000374   000004 756100                    STQ     4,,PR0

      308     5292    3              DO I = 0 TO %(MX_COMMAND_PARAMS-1);

   5292  2 000375   200016 450100                    STZ     I,,AUTO

      309     5293    3                 PTR$->VD$IT_COMMAND.PARAM$ (I) = ADDR(NIL);

   5293  2 000376   000001 236000 xsym               LDQ     B_VECTNIL+1
         2 000377   200006 470500                    LDP0    PTR$,,AUTO
         2 000400   200016 720100                    LXL0    I,,AUTO
PL6.E3A0      #001=VDG$OALLOC File=VDG$OBJECTS.:VDA5TSI                          FRI 07/04/97 11:20 Page:36
         2 000401   000006 756110                    STQ     6,X0,PR0

      310     5294    3                 END;

   5294  2 000402   200016 054100                    AOS     I,,AUTO
         2 000403   200016 235100                    LDA     I,,AUTO
         2 000404   000010 115007                    CMPA    8,DL
         2 000405   000376 604400 2                  TMOZ    s:5293
         2 000406   000667 710000 2                  TRA     OALLOC_RET

      311     5295
      312     5296    2            CASE (%CLS_IT_OPERAND);

      313     5297    2              PTR$->VD$IT_OPERAND.PARENT$ = ADDR(NIL);

   5297  2 000407   000001 236000 xsym               LDQ     B_VECTNIL+1
         2 000410   000001 756100                    STQ     1,,PR0

      314     5298    2              PTR$->VD$IT_OPERAND.FLINK$ = ADDR(NIL);

   5298  2 000411   000001 236000 xsym               LDQ     B_VECTNIL+1
         2 000412   000002 756100                    STQ     2,,PR0

      315     5299    2              PTR$->VD$IT_OPERAND.PARAM$ = ADDR(NIL);

   5299  2 000413   000010 756100                    STQ     8,,PR0
         2 000414   000667 710000 2                  TRA     OALLOC_RET

      316     5300
      317     5301    2            CASE (%CLS_IT_OPERATOR);

      318     5302    2              PTR$->VD$IT_OPERATOR.PARENT$ = ADDR(NIL);

   5302  2 000415   000001 236000 xsym               LDQ     B_VECTNIL+1
         2 000416   000001 756100                    STQ     1,,PR0

      319     5303    2              PTR$->VD$IT_OPERATOR.FLINK$ = ADDR(NIL);
PL6.E3A0      #001=VDG$OALLOC File=VDG$OBJECTS.:VDA5TSI                          FRI 07/04/97 11:20 Page:37

   5303  2 000417   000001 236000 xsym               LDQ     B_VECTNIL+1
         2 000420   000002 756100                    STQ     2,,PR0

      320     5304    2              PTR$->VD$IT_OPERATOR.OPERAND$ = ADDR(NIL);

   5304  2 000421   000004 756100                    STQ     4,,PR0

      321     5305    2              PTR$->VD$IT_OPERATOR.R_OPERAND$ = ADDR(NIL);

   5305  2 000422   000005 756100                    STQ     5,,PR0
         2 000423   000667 710000 2                  TRA     OALLOC_RET

      322     5306
      323     5307    2            CASE (%CLS_IT_SELECT);

      324     5308    2              PTR$->VD$IT_SELECT.PARENT$ = ADDR(NIL);

   5308  2 000424   000001 236000 xsym               LDQ     B_VECTNIL+1
         2 000425   000001 756100                    STQ     1,,PR0

      325     5309    2              PTR$->VD$IT_SELECT.FLINK$ = ADDR(NIL);

   5309  2 000426   000001 236000 xsym               LDQ     B_VECTNIL+1
         2 000427   000002 756100                    STQ     2,,PR0

      326     5310    2              PTR$->VD$IT_SELECT.ADJUSTS$ = ADDR(NIL);

   5310  2 000430   000004 756100                    STQ     4,,PR0

      327     5311    2              PTR$->VD$IT_SELECT.ADJUSTS_TAIL$ = ADDR(NIL);

   5311  2 000431   000005 756100                    STQ     5,,PR0
         2 000432   000667 710000 2                  TRA     OALLOC_RET

      328     5312
      329     5313    2            CASE (%CLS_PATTERN);
PL6.E3A0      #001=VDG$OALLOC File=VDG$OBJECTS.:VDA5TSI                          FRI 07/04/97 11:20 Page:38

      330     5314    2              PTR$->VD$PATTERN.MX_ENTRIES# = (NWORDS -

   5314  2 000433   200006 236100                    LDQ     PTR$,,AUTO
         2 000434   000003 036003                    ADLQ    3,DU
         2 000435   000022 772000                    QRL     18
         2 000436   200006 235100                    LDA     PTR$,,AUTO
         2 000437   000022 771000                    ARL     18
         2 000440   200020 755100                    STA     I+2,,AUTO
         2 000441   200020 136100                    SBLQ    I+2,,AUTO
         2 000442   200021 756100                    STQ     I+3,,AUTO
         2 000443   200011 236100                    LDQ     NWORDS,,AUTO
         2 000444   200021 136100                    SBLQ    I+3,,AUTO
         2 000445   000004 506007                    DIV     4,DL
         2 000446   000000 620006                    EAX0    0,QL
         2 000447   000002 440100                    SXL0    2,,PR0

      331     5315    2                POFFW(ADDR(PTR$->VD$PATTERN.ENTRIES), PTR$)) /
      332     5316    2                SIZEW(VD$PATTERN.ENTRIES);
      333     5317    3              DO I = 0 TO (PTR$->VD$PATTERN.MX_ENTRIES# - 1);

   5317  2 000450   200016 450100                    STZ     I,,AUTO
         2 000451   000460 710000 2                  TRA     s:5319+1

      334     5318    3                 PTR$->VD$PATTERN.ENTRIES.MATCH$ (I) = ADDR(NIL);

   5318  2 000452   200016 235100                    LDA     I,,AUTO
         2 000453   000002 735000                    ALS     2
         2 000454   000001 236000 xsym               LDQ     B_VECTNIL+1
         2 000455   200006 470500                    LDP0    PTR$,,AUTO
         2 000456   000006 756105                    STQ     6,AL,PR0

      335     5319    3                 END;

   5319  2 000457   200016 054100                    AOS     I,,AUTO
         2 000460   000002 236100                    LDQ     2,,PR0
         2 000461   000022 736000                    QLS     18
PL6.E3A0      #001=VDG$OALLOC File=VDG$OBJECTS.:VDA5TSI                          FRI 07/04/97 11:20 Page:39
         2 000462   000022 732000                    QRS     18
         2 000463   200016 116100                    CMPQ    I,,AUTO
         2 000464   000452 605400 2                  TPNZ    s:5318
         2 000465   000667 710000 2                  TRA     OALLOC_RET

      336     5320
      337     5321    2            CASE (%CLS_EVAL_PATTERN);

      338     5322    2              PTR$->VD$EVAL_PATTERN.BLINK$ = ADDR(NIL);

   5322  2 000466   000001 236000 xsym               LDQ     B_VECTNIL+1
         2 000467   000001 756100                    STQ     1,,PR0

      339     5323    2              PTR$->VD$EVAL_PATTERN.PATTERN$ = ADDR(NIL);

   5323  2 000470   000001 236000 xsym               LDQ     B_VECTNIL+1
         2 000471   000024 756100                    STQ     20,,PR0
         2 000472   000667 710000 2                  TRA     OALLOC_RET

      340     5324
      341     5325    2            CASE (%CLS_PORT);

      342     5326    2              PTR$->VD$PORT.FLINK$ = ADDR(NIL);

   5326  2 000473   000001 236000 xsym               LDQ     B_VECTNIL+1
         2 000474   000002 756100                    STQ     2,,PR0

      343     5327    2              PTR$->VD$PORT.BLINK$ = VD_6E.PORT_TAIL$;

   5327  2 000475   000034 236000 xsym               LDQ     VD_6E+28
         2 000476   000001 756100                    STQ     1,,PR0

      344     5328    2              IF VD_6E.PORT_TAIL$ = ADDR(NIL) THEN

   5328  2 000477   000034 236000 xsym               LDQ     VD_6E+28
         2 000500   000001 116000 xsym               CMPQ    B_VECTNIL+1
         2 000501   000505 601000 2                  TNZ     s:5331
PL6.E3A0      #001=VDG$OALLOC File=VDG$OBJECTS.:VDA5TSI                          FRI 07/04/97 11:20 Page:40

      345     5329    2                 VD_6E.PORT_HEAD$ = PTR$;

   5329  2 000502   200006 236100                    LDQ     PTR$,,AUTO
         2 000503   000033 756000 xsym               STQ     VD_6E+27
         2 000504   000510 710000 2                  TRA     s:5332

      346     5330    2              ELSE
      347     5331    2                 VD_6E.PORT_TAIL$->VD$PORT.FLINK$ = PTR$;

   5331  2 000505   200006 236100                    LDQ     PTR$,,AUTO
         2 000506   000034 473400 xsym               LDP3    VD_6E+28
         2 000507   300002 756100                    STQ     2,,PR3

      348     5332    2              VD_6E.PORT_TAIL$ = PTR$;

   5332  2 000510   000034 756000 xsym               STQ     VD_6E+28

      349     5333    2              PTR$->VD$PORT.FIT$ = ADDR(NIL);

   5333  2 000511   000001 236000 xsym               LDQ     B_VECTNIL+1
         2 000512   000005 756100                    STQ     5,,PR0

      350     5334    2              PTR$->VD$PORT.STRUCTURE$ = ADDR(NIL);

   5334  2 000513   000006 756100                    STQ     6,,PR0

      351     5335    3              DO LEVEL_INDEX = 0 TO %MX_ACCESS_LEVELS - 1;

   5335  2 000514   200007 450100                    STZ     LEVEL_INDEX,,AUTO
         2 000515   000531 710000 2                  TRA     s:5338+3

      352     5336    3                 PTR$->VD$PORT.LEVEL.DATA$ (LEVEL_INDEX) = ADDR(NIL);

   5336  2 000516   200007 236100                    LDQ     LEVEL_INDEX,,AUTO
         2 000517   000007 402007                    MPY     7,DL
         2 000520   000000 620006                    EAX0    0,QL
PL6.E3A0      #001=VDG$OALLOC File=VDG$OBJECTS.:VDA5TSI                          FRI 07/04/97 11:20 Page:41
         2 000521   000001 236000 xsym               LDQ     B_VECTNIL+1
         2 000522   200006 470500                    LDP0    PTR$,,AUTO
         2 000523   000027 756110                    STQ     23,X0,PR0

      353     5337    3                 PTR$->VD$PORT.LEVEL.INTERNAL$ (LEVEL_INDEX) = ADDR(NIL);

   5337  2 000524   000001 236000 xsym               LDQ     B_VECTNIL+1
         2 000525   000031 756110                    STQ     25,X0,PR0

      354     5338    3                 END;

   5338  2 000526   200007 235100                    LDA     LEVEL_INDEX,,AUTO
         2 000527   000001 035007                    ADLA    1,DL
         2 000530   200007 755100                    STA     LEVEL_INDEX,,AUTO
         2 000531   200007 235100                    LDA     LEVEL_INDEX,,AUTO
         2 000532   000005 115007                    CMPA    5,DL
         2 000533   000516 602000 2                  TNC     s:5336
         2 000534   000667 710000 2                  TRA     OALLOC_RET

      355     5339
      356     5340    2            CASE (%CLS_PTR_BLOCK_DESC, %CLS_PTR_FILE_NODE, %CLS_PTR_INTREE,

      357     5341    2                   %CLS_PTR_KEY, %CLS_PTR_LOCATION, %CLS_PTR_TEXTC);
      358     5342    2              PTR$->VD$POINTER.V$ = ADDR(NIL);

   5342  2 000535   000001 236000 xsym               LDQ     B_VECTNIL+1
         2 000536   000003 756100                    STQ     3,,PR0
         2 000537   000667 710000 2                  TRA     OALLOC_RET

      359     5343
      360     5344    2            CASE (%CLS_RECORD_SET);

      361     5345    2              PTR$->VD$RECORD_SET.MX_ENTRIES# = (NWORDS -

   5345  2 000540   200006 236100                    LDQ     PTR$,,AUTO
         2 000541   000003 036003                    ADLQ    3,DU
         2 000542   000022 772000                    QRL     18
PL6.E3A0      #001=VDG$OALLOC File=VDG$OBJECTS.:VDA5TSI                          FRI 07/04/97 11:20 Page:42
         2 000543   200006 235100                    LDA     PTR$,,AUTO
         2 000544   000022 771000                    ARL     18
         2 000545   200020 755100                    STA     I+2,,AUTO
         2 000546   200020 136100                    SBLQ    I+2,,AUTO
         2 000547   200021 756100                    STQ     I+3,,AUTO
         2 000550   200011 236100                    LDQ     NWORDS,,AUTO
         2 000551   200021 136100                    SBLQ    I+3,,AUTO
         2 000552   000006 506007                    DIV     6,DL
         2 000553   000000 620006                    EAX0    0,QL
         2 000554   000002 440100                    SXL0    2,,PR0

      362     5346    2                POFFW(ADDR(PTR$->VD$RECORD_SET.DESC), PTR$)) /
      363     5347    2                SIZEW(VD$RECORD_SET.DESC);
      364     5348    3              DO I = 0 TO (PTR$->VD$RECORD_SET.MX_ENTRIES# - 1);

   5348  2 000555   200016 450100                    STZ     I,,AUTO
         2 000556   000566 710000 2                  TRA     s:5350+1

      365     5349    3                 PTR$->VD$RECORD_SET.DESC.DATA$ (I) = ADDR(NIL);

   5349  2 000557   200016 236100                    LDQ     I,,AUTO
         2 000560   000006 402007                    MPY     6,DL
         2 000561   000000 620006                    EAX0    0,QL
         2 000562   000001 236000 xsym               LDQ     B_VECTNIL+1
         2 000563   200006 470500                    LDP0    PTR$,,AUTO
         2 000564   000007 756110                    STQ     7,X0,PR0

      366     5350    3                 END;

   5350  2 000565   200016 054100                    AOS     I,,AUTO
         2 000566   000002 236100                    LDQ     2,,PR0
         2 000567   000022 736000                    QLS     18
         2 000570   000022 732000                    QRS     18
         2 000571   200016 116100                    CMPQ    I,,AUTO
         2 000572   000557 605400 2                  TPNZ    s:5349
         2 000573   000667 710000 2                  TRA     OALLOC_RET

PL6.E3A0      #001=VDG$OALLOC File=VDG$OBJECTS.:VDA5TSI                          FRI 07/04/97 11:20 Page:43
      367     5351
      368     5352    2            CASE (%CLS_STREAM);

      369     5353    2              PTR$->VD$STREAM.PORT$ = ADDR(NIL);

   5353  2 000574   000001 236000 xsym               LDQ     B_VECTNIL+1
         2 000575   000001 756100                    STQ     1,,PR0
         2 000576   000667 710000 2                  TRA     OALLOC_RET

      370     5354
      371     5355    2            CASE (%CLS_STRUCTURE_SPEC);

      372     5356    2              PTR$->VD$STRUCTURE_SPEC.ACCESSOR$ = ADDR(NIL);

   5356  2 000577   000001 236000 xsym               LDQ     B_VECTNIL+1
         2 000600   000003 756100                    STQ     3,,PR0

      373     5357    2              PTR$->VD$STRUCTURE_SPEC.FIT$ = ADDR(NIL);

   5357  2 000601   000004 756100                    STQ     4,,PR0
         2 000602   000667 710000 2                  TRA     OALLOC_RET

      374     5358
      375     5359    2            CASE (%CLS_TABS);

      376     5360    2              PTR$->VD$TABS.FLINK$ = ADDR(NIL);

   5360  2 000603   000001 236000 xsym               LDQ     B_VECTNIL+1
         2 000604   000001 756100                    STQ     1,,PR0

      377     5361    2              PTR$->VD$TABS.MX_ENTRIES# = ((NWORDS * %NB_PER_WORD) -

   5361  2 000605   200006 236100                    LDQ     PTR$,,AUTO
         2 000606   000004 036000 3                  ADLQ    4
         2 000607   000020 772000                    QRL     16
         2 000610   200020 756100                    STQ     I+2,,AUTO
         2 000611   200006 236100                    LDQ     PTR$,,AUTO
PL6.E3A0      #001=VDG$OALLOC File=VDG$OBJECTS.:VDA5TSI                          FRI 07/04/97 11:20 Page:44
         2 000612   000020 772000                    QRL     16
         2 000613   200021 756100                    STQ     I+3,,AUTO
         2 000614   200020 236100                    LDQ     I+2,,AUTO
         2 000615   200021 136100                    SBLQ    I+3,,AUTO
         2 000616   200022 756100                    STQ     I+4,,AUTO
         2 000617   200011 336100                    LCQ     NWORDS,,AUTO
         2 000620   000002 736000                    QLS     2
         2 000621   200022 036100                    ADLQ    I+4,,AUTO
         2 000622   777777 620006                    EAX0    -1,QL
         2 000623   777777 660003                    ERX0    -1,DU
         2 000624   000002 440100                    SXL0    2,,PR0
         2 000625   000667 710000 2                  TRA     OALLOC_RET

      378     5362    2                POFFC(ADDR(PTR$->VD$TABS.STOPS#), PTR$)) /
      379     5363    2                LENGTHC(VD$TABS.STOPS# (0));
      380     5364
      381     5365    2            CASE (%CLS_WINDOW_BLOCK);

      382     5366    2              PTR$->VD$WINDOW_BLOCK.EDIT_BLOCK$ = ADDR(NIL);

   5366  2 000626   000001 236000 xsym               LDQ     B_VECTNIL+1
         2 000627   000003 756100                    STQ     3,,PR0

      383     5367    2              PTR$->VD$WINDOW_BLOCK.EVAL$ = ADDR(NIL);

   5367  2 000630   000004 756100                    STQ     4,,PR0
         2 000631   000667 710000 2                  TRA     OALLOC_RET

      384     5368
      385     5369    2            CASE (%CLS_WINDOW_SPEC);

      386     5370    2              PTR$->VD$WINDOW_SPEC.OPERAND.STREAM$ = ADDR(NIL);

   5370  2 000632   000001 236000 xsym               LDQ     B_VECTNIL+1
         2 000633   000010 756100                    STQ     8,,PR0

      387     5371    2              PTR$->VD$WINDOW_SPEC.OPERAND.INTREE$ = ADDR(NIL);
PL6.E3A0      #001=VDG$OALLOC File=VDG$OBJECTS.:VDA5TSI                          FRI 07/04/97 11:20 Page:45

   5371  2 000634   000011 756100                    STQ     9,,PR0

      388     5372    2              PTR$->VD$WINDOW_SPEC.OPERAND.EDIT_BLOCK$ = ADDR(NIL);

   5372  2 000635   000012 756100                    STQ     10,,PR0

      389     5373    2              PTR$->VD$WINDOW_SPEC.OPERAND.EVAL$ = ADDR(NIL);

   5373  2 000636   000013 756100                    STQ     11,,PR0

      390     5374    2              PTR$->VD$WINDOW_SPEC.RECORD_SET$ = ADDR(NIL);

   5374  2 000637   000016 756100                    STQ     14,,PR0

      391     5375    2              PTR$->VD$WINDOW_SPEC.SCREEN_UPDATED = %TRUE;

   5375  2 000640   100000 236003                    LDQ     32768,DU
         2 000641   000015 256100                    ORSQ    13,,PR0

      392     5376    2              PTR$->VD$WINDOW_SPEC.TABS$ = ADDR(NIL);

   5376  2 000642   000001 236000 xsym               LDQ     B_VECTNIL+1
         2 000643   000024 756100                    STQ     20,,PR0

      393     5377    2              PTR$->VD$WINDOW_SPEC.EOFMARK$ = ADDR(NIL);

   5377  2 000644   000025 756100                    STQ     21,,PR0

      394     5378    2              PTR$->VD$WINDOW_SPEC.KEY_DEFINITION_BUFFER$ = ADDR(NIL);

   5378  2 000645   000030 756100                    STQ     24,,PR0
         2 000646   000667 710000 2                  TRA     OALLOC_RET

      395     5379
      396     5380    2            CASE (%CLS_XLATE_LOCATIONS);

PL6.E3A0      #001=VDG$OALLOC File=VDG$OBJECTS.:VDA5TSI                          FRI 07/04/97 11:20 Page:46
      397     5381    2              PTR$->VD$XLATE_LOCATIONS.FLINK$ = ADDR(NIL);

   5381  2 000647   000001 236000 xsym               LDQ     B_VECTNIL+1
         2 000650   000002 756100                    STQ     2,,PR0

      398     5382    2              PTR$->VD$XLATE_LOCATIONS.MX_ENTRIES# = (NWORDS -

   5382  2 000651   200006 236100                    LDQ     PTR$,,AUTO
         2 000652   000017 036003                    ADLQ    15,DU
         2 000653   000022 772000                    QRL     18
         2 000654   200006 235100                    LDA     PTR$,,AUTO
         2 000655   000022 771000                    ARL     18
         2 000656   200020 755100                    STA     I+2,,AUTO
         2 000657   200020 136100                    SBLQ    I+2,,AUTO
         2 000660   200021 756100                    STQ     I+3,,AUTO
         2 000661   200011 236100                    LDQ     NWORDS,,AUTO
         2 000662   200021 136100                    SBLQ    I+3,,AUTO
         2 000663   000010 506007                    DIV     8,DL
         2 000664   000000 620006                    EAX0    0,QL
         2 000665   000001 440100                    SXL0    1,,PR0
         2 000666   000667 710000 2                  TRA     OALLOC_RET

      399     5383    2                POFFW(ADDR(PTR$->VD$XLATE_LOCATIONS.XLATES), PTR$)) /
      400     5384    2                SIZEW(VD$XLATE_LOCATIONS.XLATES);
      401     5385
      402     5386    2            CASE (ELSE);

      403     5387    2              ;       /* No linking/NILing for other objects */
      404     5388    2            END;

      405     5389
      406     5390
      407     5391    1   OALLOC_RET:                 /* Label here so can debug w/o listings */
      408     5392    1           RETURN;

   5392  2 000667   000000 702200 xent  OALLOC_RET   TSX2  ! X66_ARET

PL6.E3A0      #001=VDG$OALLOC File=VDG$OBJECTS.:VDA5TSI                          FRI 07/04/97 11:20 Page:47
      409     5393
      410     5394
      411     5395    1   ALLOCATE_FAILED:
      412     5396    2           IF MCB.ERR.CODE = %E$NOSPACE THEN DO;

   5396  2 000670   200010 470500       ALLOCATE_FA* LDP0    MCB$,,AUTO
         2 000671   000010 236100                    LDQ     8,,PR0
         2 000672   377770 376007                    ANQ     131064,DL
         2 000673   003120 116007                    CMPQ    1616,DL
         2 000674   000723 601000 2                  TNZ     s:5414

      413     5397    2              VBASE(GDS_RESULTS) = MCB.SEGMENT_BASE$;

   5397  2 000675   000002 236100                    LDQ     2,,PR0
         2 000676   000007 756000 1                  STQ     GDS_RESULTS+1

      414     5398    2              CALL M$GDS (FPT_GDS)

   5398  2 000677   000000 630400 1                  EPPR0   FPT_GDS
         2 000700   430001 713400                    CLIMB   alt,gds
         2 000701   400400 401760                    pmme    nvectors=2
         2 000702   000734 702000 2                  TSX2    GDS_FAILED

      415     5399    2                ALTRET (GDS_FAILED);
      416     5400    2              MCB.WKSZ = (VBOUND(GDS_RESULTS) + 1) / %NB_PER_WORD;

   5400  2 000703   000006 236000 1                  LDQ     GDS_RESULTS
         2 000704   000020 772000                    QRL     16
         2 000705   000001 036007                    ADLQ    1,DL
         2 000706   000002 772000                    QRL     2
         2 000707   200010 470500                    LDP0    MCB$,,AUTO
         2 000710   000004 756100                    STQ     4,,PR0

      417     5401
      418     5402    2              IF ADDR(MCB) = ADDR(VD_MCB_SMALL) THEN

   5402  2 000711   000001 236000 3                  LDQ     1
PL6.E3A0      #001=VDG$OALLOC File=VDG$OBJECTS.:VDA5TSI                          FRI 07/04/97 11:20 Page:48
         2 000712   200010 116100                    CMPQ    MCB$,,AUTO
         2 000713   000716 601000 2                  TNZ     s:5406

      419     5403                      %INCREMENT (INDX=%STG_EXPAND_SEG_SMALL);

   5404  2 000714   000047 054000 xsym               AOS     VD_6E+39
         2 000715   000722 710000 2                  TRA     s:5411

      420     5406    2              ELSE IF ADDR(MCB) = ADDR(VD_MCB_LARGE) THEN

   5406  2 000716   000000 236000 3                  LDQ     0
         2 000717   200010 116100                    CMPQ    MCB$,,AUTO
         2 000720   000722 601000 2                  TNZ     s:5411

      421     5407                         %INCREMENT (INDX=%STG_EXPAND_SEG_LARGE);

   5408  2 000721   000050 054000 xsym               AOS     VD_6E+40

      422     5410
      423     5411    2              GOTO OALLOC;

   5411  2 000722   000002 710000 2                  TRA     OALLOC

      424     5412    2              END;
      425     5413
      426     5414    1           ERR$HEAD.ERR.CODE# = %E$ALLOCATE_FAILED;

   5414  2 000723   000031 471400 xsym               LDP1    VD_6E+25
         2 000724   100002 236100                    LDQ     2,,PR1
         2 000725   000005 376000 3                  ANQ     5
         2 000726   000020 276007                    ORQ     16,DL
         2 000727   100002 756100                    STQ     2,,PR1

      427     5415    1           ERR$HEAD.FLAGLEV# = %FLV_FATAL;

   5415  2 000730   000004 220003                    LDX0    4,DU
         2 000731   000031 471400 xsym               LDP1    VD_6E+25
PL6.E3A0      #001=VDG$OALLOC File=VDG$OBJECTS.:VDA5TSI                          FRI 07/04/97 11:20 Page:49
         2 000732   100003 740100                    STX0    3,,PR1

      428     5416    1           ALTRETURN;

   5416  2 000733   000000 702200 xent               TSX2  ! X66_AALT

      429     5417
      430     5418
      431     5419    1   GDS_FAILED:
      432     5420    1           ERR$HEAD.ERR = B$TCB$->B$TCB.ALT$->B$ALT.ERR;

   5420  2 000734   000000 470400 xsym  GDS_FAILED   LDP0    B$TCB$
         2 000735   000000 471500                    LDP1    0,,PR0
         2 000736   100102 236100                    LDQ     66,,PR1
         2 000737   000031 473400 xsym               LDP3    VD_6E+25
         2 000740   300002 756100                    STQ     2,,PR3

      433     5421    1           ERR$HEAD.FLAGLEV# = %FLV_FATAL;

   5421  2 000741   000004 220003                    LDX0    4,DU
         2 000742   000031 471400 xsym               LDP1    VD_6E+25
         2 000743   100003 740100                    STX0    3,,PR1

      434     5422    1           ALTRETURN;

   5422  2 000744   000000 702200 xent               TSX2  ! X66_AALT
      435     5423
      436     5424    1   END VDG$OALLOC;
      437     5425        %EOD;

PL6.E3A0      #001=VDG$OALLOC File=VDG$OBJECTS.:VDA5TSI                          FRI 07/04/97 11:20 Page:50
--  Include file information  --

   XUM_MACRO_C.:LIBRARY  is referenced.
   XU_PERR_C.:LIBRARY  is referenced.
   CP_6.:LIBRARY  cannot be made into a system file and is referenced.
   VD_PERR_C.:VDA5TOU  is referenced.
   VD_MACROS_M.:VDA5TOU  is referenced.
   B$JIT_C.:E04TOU  was found in the system file and is never referenced.
   CP_6_C.:E04TOU  was found in the system file and is referenced.
      No diagnostics issued in procedure VDG$OALLOC.
PL6.E3A0      #001=VDG$OALLOC File=VDG$OBJECTS.:VDA5TSI                          FRI 07/04/97 11:20 Page:51

 **** Variables and constants ****

  ****  Section 001  Data  VDG$OALLOC

  ****  Scalars and arrays  ****
OctLoc.c.b A Datatyp(siz) R M Lvl/name                 OctLoc.c.b A Datatyp(siz) R M Lvl/name

     0-0-0/d STRC(216)   r     1 FPT_GDS                    6-0-0/d VECT        r     1 GDS_RESULTS

  ****  Auto variables  ****

  ****  Scalars and arrays  ****
OctLoc.c.b A Datatyp(siz) R M Lvl/name                 OctLoc.c.b A Datatyp(siz) R M Lvl/name

     3-0-0/w PTR         r     1 @CLASS                     4-0-0/w PTR         r     1 @PTR_PARAM$
     5-0-0/w PTR         r     1 @SIZE                     *0-0-0/w UBIN        r     1 CLASS
    16-0-0/w SBIN        r     1 I                          7-0-0/w UBIN        r     1 LEVEL_INDEX
    10-0-0/w PTR         r     1 MCB$                      12-0-0/w SBIN        r     1 NBYTES
    11-0-0/w SBIN        r     1 NWORDS                     6-0-0/w PTR         r     1 PTR$
    15-0-0/w PTR         r     1 PTR2$                     *0-0-0/w PTR         r     1 PTR_PARAM$
    13-0-0/w STRC        r     1 SEG_PTR                   13-0-0/w PTR         r     1 SEG_PTR$
    14-0-0/w STRC        r     1 SEG_PTR2                  14-0-0/w PTR         r     1 SEG_PTR2$
    *0-0-0/w UBIN        r     1 SIZE

  ****  SYMREF variables  ****

  ****  Scalars and arrays  ****
OctLoc.c.b A Datatyp(siz) R M Lvl/name                 OctLoc.c.b A Datatyp(siz) R M Lvl/name

     0-0-0/w PTR         r     1 B$TCB$                     0-0-0/w STRC(22644) r     1 VD_6E
     0-0-0/w STRC(324)   r     1 VD_MCB_LARGE               0-0-0/w STRC(324)   r     1 VD_MCB_SMALL
     0-0-0/w STRC(72)    r     1 VD_OBJECTS(0:98)

  ****  BASED and DCB variables  ****

  ****  Scalars and arrays  ****
OctLoc.c.b A Datatyp(siz) R M Lvl/name                 OctLoc.c.b A Datatyp(siz) R M Lvl/name
PL6.E3A0      #001=VDG$OALLOC File=VDG$OBJECTS.:VDA5TSI                          FRI 07/04/97 11:20 Page:52

     0-0-0/w STRC(2448)  r     1 B$ALT                      0-0-0/w STRC(144)   r     1 B$TCB
     0-0-0/w STRC(180)   r     1 ERR$HEAD                   0-0-0/w STRC(324)   r     1 MCB
     0-0-0/w STRC        r     1 OBJECT$HEADER              0-0-0/c ASTR(0)     r     1 VAR_LEN_STRUCTURE
     0-0-0/w STRC(936)   r     1 VD$BLOCK_DESC              0-0-0/w ASTR(90)    r     1 VD$BUFFER
     0-0-0/w STRC(90)    r     1 VD$BUFFER_HEADER           0-0-0/w STRC(900)   r     1 VD$CMD_STREAM
     0-0-0/w STRC(576)   r     1 VD$DIR_NODE                0-0-0/w STRC(900)   r     1 VD$ENCODED_NODE
     0-0-0/w STRC(180)   r     1 VD$ERR                     0-0-0/w STRC(2124)  r     1 VD$EVAL
     0-0-0/w STRC(864)   r     1 VD$EVAL_PATTERN            0-0-0/w STRC(648)   r     1 VD$FILE_KEY
     0-0-0/w STRC(468)   r     1 VD$FILE_NODE               0-0-0/w STRC(36972) r     1 VD$FIT
     0-0-0/w STRC(216)   r     1 VD$IT_ADJUST               0-0-0/w STRC(1116)  r     1 VD$IT_BLOCK_EXPR
     0-0-0/w STRC(540)   r     1 VD$IT_COMMAND              0-0-0/w STRC(324)   r     1 VD$IT_OPERAND
     0-0-0/w STRC(216)   r     1 VD$IT_OPERATOR             0-0-0/w STRC(216)   r     1 VD$IT_SELECT
     0-0-0/w STRC(252)   r     1 VD$PATTERN                 0-0-0/w STRC(144)   r     1 VD$POINTER
     0-0-0/w STRC(1944)  r     1 VD$PORT                    0-0-0/w STRC(324)   r     1 VD$RECORD_SET
     0-0-0/w STRC(864)   r     1 VD$STREAM                  0-0-0/w STRC(81)    r     1 VD$STRING_HEADER
     0-0-0/w STRC(180)   r     1 VD$STRUCTURE_SPEC          0-0-0/w STRC(396)   r     1 VD$TABS
     0-0-0/w ASTR(81)    r     1 VD$TEXTC_REMOTE            0-0-0/w STRC(180)   r     1 VD$WINDOW_BLOCK
     0-0-0/w STRC(900)   r     1 VD$WINDOW_SPEC             0-0-0/w STRC(828)   r     1 VD$XLATE_LOCATIONS


   Procedure VDG$OALLOC requires 485 words for executable code.
   Procedure VDG$OALLOC requires 20 words of local(AUTO) storage.
PL6.E3A0      #001=VDG$OALLOC File=VDG$OBJECTS.:VDA5TSI                          FRI 07/04/97 11:20 Page:53
          *** CROSS REFERENCE LISTING ***
**     DENOTES     IDENTIFIER DEFINITION
<<                 IDENTIFIER'S VALUE SET
>>                 IDENTIFIER'S VALUE USED
<>                 IDENTIFIER SET AND/OR USED
--                 IDENTIFIER REFERENCED
PL6.E3A0      #001=VDG$OALLOC File=VDG$OBJECTS.:VDA5TSI                          FRI 07/04/97 11:20 Page:54
          MINI XREF LISTING

ALLOCATE_FAILED
      5396**LABEL    5181--CALLALT
B$ALT.CODE
      5104**DCL      5104--REDEF    5105--REDEF    5105--REDEF
B$ALT.ERR
      5105**DCL      5420>>ASSIGN
B$ALT.ERR.ERR#
      5106**DCL      5106--REDEF
B$ALT.EVID
      5105**DCL      5105--REDEF    5105--REDEF
B$TCB.ALT$
      5100**DCL      5420>>ASSIGN
B$TCB$
      2773**DCL      5420>>ASSIGN
CLASS
      2764**DCL        97--PROC     5166>>IF       5166>>IF       5168<>CALL     5170>>ASSIGN   5174<>CALL
      5196>>ASSIGN   5198>>IF       5202>>IF       5207>>ASSIGN   5207>>ASSIGN   5215>>DOCASE
ERR$HEAD.ERR
      5155**DCL      5420<<ASSIGN
ERR$HEAD.ERR.CODE#
      5157**DCL      5414<<ASSIGN
ERR$HEAD.FLAGLEV#
      5160**DCL      5415<<ASSIGN   5421<<ASSIGN
FPT_GDS
      2871**DCL      5398<>CALL
FPT_GDS.V
      2871**DCL      2871--DCLINIT
GDS_FAILED
      5420**LABEL    5398--CALLALT
GDS_RESULTS
      2876**DCL      2871--DCLINIT  5397<<ASSIGN   5400>>ASSIGN
I
PL6.E3A0      #001=VDG$OALLOC File=VDG$OBJECTS.:VDA5TSI                          FRI 07/04/97 11:20 Page:55
      2893**DCL      5292<<DOINDEX  5293>>ASSIGN   5317<<DOINDEX  5318>>ASSIGN   5348<<DOINDEX  5349>>ASSIGN
LEVEL_INDEX
      2880**DCL      5335<<DOINDEX  5336>>ASSIGN   5337>>ASSIGN
M$GDS
      2507**DCL-ENT  5398--CALL
MCB
      2897**DCL      5181<>CALL     5402--IF       5406--IF
MCB.ADDRESS$
      2897**DCL      5182>>ASSIGN   5183>>ASSIGN
MCB.ERR.CODE
      2898**DCL      5396>>IF
MCB.SEGMENT_BASE$
      2897**DCL      5190>>ASSIGN   5397>>ASSIGN
MCB.SIZE
      2897**DCL      5180<<ASSIGN
MCB.WKSZ
      2897**DCL      5400<<ASSIGN
MCB$
      2881**DCL      2897--IMP-PTR  5177<<ASSIGN   5179<<ASSIGN   5180>>ASSIGN   5181>>CALL     5182>>ASSIGN
      5183>>ASSIGN   5190>>ASSIGN   5396>>IF       5397>>ASSIGN   5400>>ASSIGN   5402>>IF       5406>>IF
NBYTES
      2883**DCL      2901--IMP-SIZ  5194<<ASSIGN   5195>>ASSIGN   5200>>ASSIGN   5204>>ASSIGN
NWORDS
      2882**DCL      5170<<ASSIGN   5172<<ASSIGN   5173>>IF       5174<>CALL     5176>>IF       5180>>ASSIGN
      5194>>ASSIGN   5197>>ASSIGN   5314>>ASSIGN   5345>>ASSIGN   5361>>ASSIGN   5382>>ASSIGN
OALLOC
      5166**LABEL    5411--GOTO
OBJECT$HEADER.CLASS#
      2922**DCL      5196<<ASSIGN
OBJECT$HEADER.SIZE#
      2922**DCL      5197<<ASSIGN
PTR$
      2879**DCL      2900--IMP-PTR  2918--IMP-PTR  5182<<ASSIGN   5189>>ASSIGN   5195>>ASSIGN   5196>>ASSIGN
      5197>>ASSIGN   5199>>ASSIGN   5200>>ASSIGN   5203>>ASSIGN   5204>>ASSIGN   5217>>ASSIGN   5220>>ASSIGN
      5225>>ASSIGN   5226>>ASSIGN   5227>>ASSIGN   5228>>ASSIGN   5235>>ASSIGN   5236>>ASSIGN   5237>>ASSIGN
      5238>>ASSIGN   5239>>ASSIGN   5242>>ASSIGN   5245>>ASSIGN   5246>>ASSIGN   5248>>ASSIGN   5250>>ASSIGN
PL6.E3A0      #001=VDG$OALLOC File=VDG$OBJECTS.:VDA5TSI                          FRI 07/04/97 11:20 Page:56
      5251>>ASSIGN   5254>>ASSIGN   5255>>ASSIGN   5258>>ASSIGN   5259>>ASSIGN   5260>>ASSIGN   5261>>ASSIGN
      5262>>ASSIGN   5265>>ASSIGN   5266>>ASSIGN   5267>>ASSIGN   5268>>ASSIGN   5269>>ASSIGN   5272>>ASSIGN
      5273>>ASSIGN   5276>>ASSIGN   5277>>ASSIGN   5278>>ASSIGN   5279>>ASSIGN   5282>>ASSIGN   5283>>ASSIGN
      5284>>ASSIGN   5285>>ASSIGN   5286>>ASSIGN   5289>>ASSIGN   5290>>ASSIGN   5291>>ASSIGN   5293>>ASSIGN
      5297>>ASSIGN   5298>>ASSIGN   5299>>ASSIGN   5302>>ASSIGN   5303>>ASSIGN   5304>>ASSIGN   5305>>ASSIGN
      5308>>ASSIGN   5309>>ASSIGN   5310>>ASSIGN   5311>>ASSIGN   5314>>ASSIGN   5314>>ASSIGN   5314>>ASSIGN
      5317>>DOINDEX  5318>>ASSIGN   5322>>ASSIGN   5323>>ASSIGN   5326>>ASSIGN   5327>>ASSIGN   5329>>ASSIGN
      5331>>ASSIGN   5332>>ASSIGN   5333>>ASSIGN   5334>>ASSIGN   5336>>ASSIGN   5337>>ASSIGN   5342>>ASSIGN
      5345>>ASSIGN   5345>>ASSIGN   5345>>ASSIGN   5348>>DOINDEX  5349>>ASSIGN   5353>>ASSIGN   5356>>ASSIGN
      5357>>ASSIGN   5360>>ASSIGN   5361>>ASSIGN   5361>>ASSIGN   5361>>ASSIGN   5366>>ASSIGN   5367>>ASSIGN
      5370>>ASSIGN   5371>>ASSIGN   5372>>ASSIGN   5373>>ASSIGN   5374>>ASSIGN   5375>>ASSIGN   5376>>ASSIGN
      5377>>ASSIGN   5378>>ASSIGN   5381>>ASSIGN   5382>>ASSIGN   5382>>ASSIGN   5382>>ASSIGN
PTR2$
      2892**DCL      5220<<ASSIGN   5221>>ASSIGN   5222>>ASSIGN
PTR_PARAM$
      2765**DCL        97--PROC     5183<<ASSIGN
SEG_PTR.SEGID
      2887**DCL      5191>>IF
SEG_PTR$
      2884**DCL      2885--REDEF    5189<<ASSIGN
SEG_PTR2.SEGID
      2891**DCL      5191>>IF
SEG_PTR2$
      2888**DCL      2889--REDEF    5190<<ASSIGN
SIZE
      2766**DCL        97--PROC     5169--IF       5172>>ASSIGN
VAR_LEN_STRUCTURE
      2900**DCL      5195<<ASSIGN
VD$BLOCK_DESC.OBJECT.CLASS#
      3028**DCL      5221<<ASSIGN
VD$BLOCK_DESC.OPTIONS.STRUCTURE$
      3125**DCL      5217<<ASSIGN   5222<<ASSIGN
VD$BUFFER.BYTES
      3196**DCL      5220--ASSIGN
VD$BUFFER.FLINK$
      3194**DCL      5203<<ASSIGN
PL6.E3A0      #001=VDG$OALLOC File=VDG$OBJECTS.:VDA5TSI                          FRI 07/04/97 11:20 Page:57
VD$BUFFER.LENGTH#
      3194**DCL      3196--IMP-SIZ  5204<<ASSIGN
VD$BUFFER_HEADER
      2968**DCL      5204--ASSIGN
VD$CMD_STREAM.BLINK$
      3235**DCL      5225<<ASSIGN
VD$CMD_STREAM.INTREE$
      3236**DCL      5228<<ASSIGN
VD$CMD_STREAM.RECORD$
      3236**DCL      5227<<ASSIGN
VD$DIR_NODE.BLINK$
      3274**DCL      5235<<ASSIGN
VD$DIR_NODE.FLINK$
      3274**DCL      5236<<ASSIGN
VD$DIR_NODE.HEAD$
      3275**DCL      5238<<ASSIGN
VD$DIR_NODE.STRUCTURE$
      3275**DCL      5237<<ASSIGN
VD$DIR_NODE.TAIL$
      3275**DCL      5239<<ASSIGN
VD$ENCODED_NODE.DESC.DATA$
      3396**DCL      5242<<ASSIGN
VD$ERR.CMDLINE_INDEX#
      3449**DCL      5246<<ASSIGN
VD$ERR.FLINK$
      3433**DCL      5245<<ASSIGN   5250<<ASSIGN
VD$EVAL.BLINK$
      3486**DCL      5254<<ASSIGN
VD$EVAL.NODE$
      3694**DCL      5255<<ASSIGN
VD$EVAL_PATTERN.BLINK$
      4325**DCL      5322<<ASSIGN
VD$EVAL_PATTERN.PATTERN$
      4395**DCL      5323<<ASSIGN
VD$FILE_KEY.FLINK$
      3740**DCL      5258<<ASSIGN
PL6.E3A0      #001=VDG$OALLOC File=VDG$OBJECTS.:VDA5TSI                          FRI 07/04/97 11:20 Page:58
VD$FILE_KEY.PASS
      3743**DCL      5262<<ASSIGN
VD$FILE_KEY.PSN
      3743**DCL      5261<<ASSIGN
VD$FILE_KEY.RES
      3742**DCL      5260<<ASSIGN
VD$FILE_KEY.UNIQUE.ACCT
      3741**DCL      5259<<ASSIGN
VD$FILE_NODE.BLINK$
      3780**DCL      5265<<ASSIGN
VD$FILE_NODE.DESC.DATA$
      3835**DCL      5267<<ASSIGN
VD$FILE_NODE.FLINK$
      3780**DCL      5266<<ASSIGN
VD$FILE_NODE.HEAD$
      3837**DCL      5268<<ASSIGN
VD$FILE_NODE.TAIL$
      3837**DCL      5269<<ASSIGN
VD$FIT.CODE2$
      3873**DCL      5272<<ASSIGN
VD$FIT.CODE3$
      3873**DCL      5273<<ASSIGN
VD$IT_ADJUST.FLINK$
      3909**DCL      5277<<ASSIGN
VD$IT_ADJUST.MOVEMENTS$
      3909**DCL      5278<<ASSIGN
VD$IT_ADJUST.MOVEMENTS_TAIL$
      3910**DCL      5279<<ASSIGN
VD$IT_ADJUST.PARENT$
      3909**DCL      5276<<ASSIGN
VD$IT_BLOCK_EXPR.FLINK$
      3946**DCL      5283<<ASSIGN
VD$IT_BLOCK_EXPR.OPTIONS.STRUCTURE$
      4043**DCL      5284<<ASSIGN
VD$IT_BLOCK_EXPR.PARENT$
      3946**DCL      5282<<ASSIGN
PL6.E3A0      #001=VDG$OALLOC File=VDG$OBJECTS.:VDA5TSI                          FRI 07/04/97 11:20 Page:59
VD$IT_BLOCK_EXPR.SELECTS$
      4060**DCL      5285<<ASSIGN
VD$IT_BLOCK_EXPR.SELECTS_TAIL$
      4060**DCL      5286<<ASSIGN
VD$IT_COMMAND.FLINK$
      4096**DCL      5290<<ASSIGN
VD$IT_COMMAND.PARAM$
      4097**DCL      5293<<ASSIGN
VD$IT_COMMAND.PARENT$
      4096**DCL      5289<<ASSIGN
VD$IT_COMMAND.PT_BLOCK_EXPR$
      4097**DCL      5291<<ASSIGN
VD$IT_OPERAND.FLINK$
      4134**DCL      5298<<ASSIGN
VD$IT_OPERAND.PARAM$
      4164**DCL      5299<<ASSIGN
VD$IT_OPERAND.PARENT$
      4134**DCL      5297<<ASSIGN
VD$IT_OPERATOR.FLINK$
      4200**DCL      5303<<ASSIGN
VD$IT_OPERATOR.OPERAND$
      4200**DCL      5304<<ASSIGN
VD$IT_OPERATOR.PARENT$
      4200**DCL      5302<<ASSIGN
VD$IT_OPERATOR.R_OPERAND$
      4201**DCL      5305<<ASSIGN
VD$IT_SELECT.ADJUSTS$
      4238**DCL      5310<<ASSIGN
VD$IT_SELECT.ADJUSTS_TAIL$
      4238**DCL      5311<<ASSIGN
VD$IT_SELECT.FLINK$
      4237**DCL      5309<<ASSIGN
VD$IT_SELECT.PARENT$
      4237**DCL      5308<<ASSIGN
VD$PATTERN.ENTRIES
      4285**DCL      5314--ASSIGN   5314--ASSIGN
PL6.E3A0      #001=VDG$OALLOC File=VDG$OBJECTS.:VDA5TSI                          FRI 07/04/97 11:20 Page:60
VD$PATTERN.ENTRIES.MATCH$
      4288**DCL      5318<<ASSIGN
VD$PATTERN.MX_ENTRIES#
      4274**DCL      5314<<ASSIGN   5317>>DOINDEX
VD$POINTER.V$
      4440**DCL      5342<<ASSIGN
VD$PORT.BLINK$
      4477**DCL      5327<<ASSIGN
VD$PORT.FIT$
      4478**DCL      5333<<ASSIGN
VD$PORT.FLINK$
      4477**DCL      5326<<ASSIGN   5331<<ASSIGN
VD$PORT.LEVEL.DATA$
      4538**DCL      5336<<ASSIGN
VD$PORT.LEVEL.INTERNAL$
      4538**DCL      5337<<ASSIGN
VD$PORT.STRUCTURE$
      4479**DCL      5334<<ASSIGN
VD$RECORD_SET.DESC
      4586**DCL      5345--ASSIGN   5345--ASSIGN
VD$RECORD_SET.DESC.DATA$
      4616**DCL      5349<<ASSIGN
VD$RECORD_SET.MX_ENTRIES#
      4575**DCL      5345<<ASSIGN   5348>>DOINDEX
VD$STREAM.PORT$
      4653**DCL      5353<<ASSIGN
VD$STRING_HEADER
      2932**DCL      5200--ASSIGN
VD$STRUCTURE_SPEC.ACCESSOR$
      4759**DCL      5356<<ASSIGN
VD$STRUCTURE_SPEC.FIT$
      4759**DCL      5357<<ASSIGN
VD$TABS.FLINK$
      4796**DCL      5360<<ASSIGN
VD$TABS.MX_ENTRIES#
      4796**DCL      5361<<ASSIGN
PL6.E3A0      #001=VDG$OALLOC File=VDG$OBJECTS.:VDA5TSI                          FRI 07/04/97 11:20 Page:61
VD$TABS.STOPS#
      4797**DCL      5361--ASSIGN   5361--ASSIGN
VD$TEXTC_REMOTE.FLINK$
      4853**DCL      5199<<ASSIGN
VD$TEXTC_REMOTE.LENGTH#
      4853**DCL      4855--IMP-SIZ  5200<<ASSIGN
VD$WINDOW_BLOCK.EDIT_BLOCK$
      4894**DCL      5366<<ASSIGN
VD$WINDOW_BLOCK.EVAL$
      4894**DCL      5367<<ASSIGN
VD$WINDOW_SPEC.EOFMARK$
      4959**DCL      5377<<ASSIGN
VD$WINDOW_SPEC.KEY_DEFINITION_BUFFER$
      4960**DCL      5378<<ASSIGN
VD$WINDOW_SPEC.OPERAND.EDIT_BLOCK$
      4946**DCL      5372<<ASSIGN
VD$WINDOW_SPEC.OPERAND.EVAL$
      4946**DCL      5373<<ASSIGN
VD$WINDOW_SPEC.OPERAND.INTREE$
      4946**DCL      5371<<ASSIGN
VD$WINDOW_SPEC.OPERAND.STREAM$
      4946**DCL      5370<<ASSIGN
VD$WINDOW_SPEC.RECORD_SET$
      4949**DCL      5374<<ASSIGN
VD$WINDOW_SPEC.SCREEN_UPDATED
      4949**DCL      5375<<ASSIGN
VD$WINDOW_SPEC.TABS$
      4958**DCL      5376<<ASSIGN
VD$XLATE_LOCATIONS.FLINK$
      4996**DCL      5381<<ASSIGN
VD$XLATE_LOCATIONS.MX_ENTRIES#
      4996**DCL      5382<<ASSIGN
VD$XLATE_LOCATIONS.XLATES
      5051**DCL      5382--ASSIGN   5382--ASSIGN
VDG$ESCREECH
      2770**DCL-ENT  5168--CALL     5174--CALL     5192--CALL
PL6.E3A0      #001=VDG$OALLOC File=VDG$OBJECTS.:VDA5TSI                          FRI 07/04/97 11:20 Page:62
VD_6E.CMD_STREAM$
      2805**DCL      5225>>ASSIGN   5226<<ASSIGN
VD_6E.ERR_HEAD$
      2806**DCL      5118--IMP-PTR  5247>>IF       5248<<ASSIGN   5414>>ASSIGN   5415>>ASSIGN   5420>>ASSIGN
      5421>>ASSIGN
VD_6E.ERR_TAIL$
      2806**DCL      5250>>ASSIGN   5251<<ASSIGN
VD_6E.PORT_HEAD$
      2807**DCL      5329<<ASSIGN
VD_6E.PORT_TAIL$
      2807**DCL      5327>>ASSIGN   5328>>IF       5331>>ASSIGN   5332<<ASSIGN
VD_6E.STATS#
      2807**DCL      5404<<ASSIGN   5404>>ASSIGN   5408<<ASSIGN   5408>>ASSIGN
VD_6E.STATS_OBJECTS#
      2807**DCL      5207<<ASSIGN   5207>>ASSIGN
VD_MCB_LARGE
      2851**DCL      5177--ASSIGN   5406--IF
VD_MCB_SMALL
      2855**DCL      5179--ASSIGN   5402--IF
VD_OBJECTS.BUF
      2821**DCL      5202>>IF
VD_OBJECTS.SIZE
      2817**DCL      5166>>IF       5170>>ASSIGN
VD_OBJECTS.STR
      2831**DCL      5198>>IF
X$ALLOCATE
      2769**DCL-ENT  5181--CALL

PL6.E3A0      #002=VDG$OALLOC_DCB File=VDG$OBJECTS.:VDA5TSI                      FRI 07/04/97 11:21 Page:63
      438        1        /*T***********************************************************/
      439        2        /*T*                                                         */
      440        3        /*T* Copyright (c) Bull HN Information Systems Inc., 1997    */
      441        4        /*T*                                                         */
      442        5        /*T***********************************************************/
      443        6
      444        7        /*D* NAME: VDG$OALLOC_DCB
      445        8            PARAMETERS:
      446        9                DCB# - Uninitialized UBIN HALF HALIGNED.
      447       10            INPUT:
      448       11                VD_DCBS must contain info about the currently allocated
      449       12                    DCBs.
      450       13            OUTPUT:
      451       14                DCB# will contain the number of a closed DCB.  This may
      452       15                    have been pulled from VD_DCBS (and so may still be
      453       16                    assigned to a file or device), or may be a newly-
      454       17                    allocated DCB.
      455       18            DESCRIPTION:
      456       19                See if there are any free DCBs in VD_DCBs; if so, pull one
      457       20                from the list.  Else call M$GETDCB to allocate a new DCB.
      458       21        */
      459       22
      460       23        VDG$OALLOC_DCB: PROC (DCB#) ALTRET;
      461       24
      462       25
      463       26        %INCLUDE VD_MACROS_M;
      464     2241        %INCLUDE CP_6;
      465     2322
      466     2323    1   DCL DCB# UBIN HALF HALIGNED;
      467     2324
      468     2325
      469     2326    1   DCL B$TCB$ PTR SYMREF;
      470     2327        %VD_6E (STCLASS=SYMREF);
      471     2363        %VD$DCBS (NAME=VD_DCBS, STCLASS=SYMREF);
      472     2378
      473     2379
      474     2380        %FPT_GETDCB (DCBNAME=DCB_NAME);
PL6.E3A0      #002=VDG$OALLOC_DCB File=VDG$OBJECTS.:VDA5TSI                      FRI 07/04/97 11:21 Page:64
      475     2395    1   DCL 1 DCB_NAME STATIC,
      476     2396    1         2 * UBIN BYTE CALIGNED INIT(%(LENGTHC(CHR_DCB_PREFIX)+2)),
      477     2397    1         2 * CHAR(0) CALIGNED INIT(%CHR_DCB_PREFIX),
      478     2398    1         2 NUM CHAR(2) CALIGNED;
      479     2399
      480     2400
      481     2401        %VD$ERR (NAME=ERR$HEAD, STCLASS="BASED(VD_6E.ERR_HEAD$)");
      482     2454        %B$TCB (NAME=B$TCB, STCLASS="BASED(B$TCB$)");
      483     2457        %B$ALT;
      484     2465
      485     2466
      486     2467
      487     2468    2           IF VD_DCBS.N_FREE# <= 0 THEN DO;
      488     2469    2              CALL BINCHAR (DCB_NAME.NUM, VD_DCBS.N_DYNAMIC#);
      489     2470    2              FPT_GETDCB.DCBNUM_ = VECTOR(DCB#);
      490     2471    2              CALL M$GETDCB (FPT_GETDCB)
      491     2472    2                ALTRET (GETDCB_FAILED);
      492     2473    2              VD_DCBS.N_DYNAMIC# = VD_DCBS.N_DYNAMIC# + 1;
      493     2474    2              END;
      494     2475    2           ELSE DO;
      495     2476    2              VD_DCBS.N_FREE# = VD_DCBS.N_FREE# - 1;
      496     2477    2              DCB# = VD_DCBS.FREE_DCB# (VD_DCBS.N_FREE#);
      497     2478    2              END;
      498     2479
      499     2480    1           RETURN;
      500     2481
      501     2482
      502     2483
      503     2484    1   GETDCB_FAILED:
      504     2485    1           ERR$HEAD.ERR = B$TCB.ALT$->B$ALT.ERR;
      505     2486    1           ERR$HEAD.FLAGLEV# = %FLV_FATAL;
      506     2487    1           ALTRETURN;
      507     2488
      508     2489    1   END VDG$OALLOC_DCB;
      509     2490        %EOD;

PL6.E3A0      #002=VDG$OALLOC_DCB File=VDG$OBJECTS.:VDA5TSI                      FRI 07/04/97 11:21 Page:65
--  Include file information  --

   CP_6.:LIBRARY  cannot be made into a system file and is referenced.
   VD_MACROS_M.:VDA5TOU  is referenced.
   B$JIT_C.:E04TOU  was found in the system file and is never referenced.
   CP_6_C.:E04TOU  was found in the system file and is referenced.
      No diagnostics issued in procedure VDG$OALLOC_DCB.

   Procedure VDG$OALLOC_DCB requires 38 words for executable code.
   Procedure VDG$OALLOC_DCB requires 4 words of local(AUTO) storage.

PL6.E3A0      #002=VDG$OALLOC_DCB File=VDG$OBJECTS.:VDA5TSI                      FRI 07/04/97 11:21 Page:66

 Object Unit name= VDG$OALLOC_DCB                             File name= VDG$OBJECTS.:VDA5TOU
 UTS= JUL 04 '97 11:21:13.88 FRI                              Compiler= PL-6/E31         Sev=      00
 SharedLib= :SHARED_SYSTEM                                    Alt SharedLib=


    ****  Control sections  ****

 Sect   Type Bound  Init  Size OctSiz  Section name(segment info)
    0   DCB   even  none     0      0  M$UC
    1   Data  even  none    10     12  VDG$OALLOC_DCB
    2   Proc  even  none    38     46  VDG$OALLOC_DCB

    ****  Entry defs  ****

                              Check   Calling
                             calling  sequence
  Sect OctLoc Primary Altret sequence   type   Parms  Name
     2      0   yes    yes     yes      Std        1  VDG$OALLOC_DCB

  ****  Entry refs  ****

         Check        Calling
        calling       sequence
Altret sequence SRef   type   Args  Name
                       nStd      0 X66_AUTO_1
                       nStd      0 X66_ARET
                       nStd      0 X66_AALT

  ****  Data refs  ****

  Flags:  r = read only, s = secondary
Flgs Name                             Flgs Name                             Flgs Name
     M$UC                                  B$TCB$                                VD_6E
     VD_DCBS
PL6.E3A0      #002=VDG$OALLOC_DCB File=VDG$OBJECTS.:VDA5TSI                      FRI 07/04/97 11:21 Page:67

  ****  Segment refs  ****

  Flags:  r = read only, s = secondary
Flgs Name                             Flgs Name                             Flgs Name
     ISSID                                 NULLSID
PL6.E3A0      #002=VDG$OALLOC_DCB File=VDG$OBJECTS.:VDA5TSI                      FRI 07/04/97 11:21 Page:68


      438        1        /*T***********************************************************/
      439        2        /*T*                                                         */
      440        3        /*T* Copyright (c) Bull HN Information Systems Inc., 1997    */
      441        4        /*T*                                                         */
      442        5        /*T***********************************************************/
      443        6
      444        7        /*D* NAME: VDG$OALLOC_DCB
      445        8            PARAMETERS:
      446        9                DCB# - Uninitialized UBIN HALF HALIGNED.
      447       10            INPUT:
      448       11                VD_DCBS must contain info about the currently allocated
      449       12                    DCBs.
      450       13            OUTPUT:
      451       14                DCB# will contain the number of a closed DCB.  This may
      452       15                    have been pulled from VD_DCBS (and so may still be
      453       16                    assigned to a file or device), or may be a newly-
      454       17                    allocated DCB.
      455       18            DESCRIPTION:
      456       19                See if there are any free DCBs in VD_DCBs; if so, pull one
      457       20                from the list.  Else call M$GETDCB to allocate a new DCB.
      458       21        */
      459       22
      460       23        VDG$OALLOC_DCB: PROC (DCB#) ALTRET;

     23  2 000000   000000 700200 xent  VDG$OALLOC_* TSX0  ! X66_AUTO_1
         2 000001   000004 000001                    ZERO    4,1

      461       24
      462       25
      463       26        %INCLUDE VD_MACROS_M;
      464     2241        %INCLUDE CP_6;
      465     2322
      466     2323    1   DCL DCB# UBIN HALF HALIGNED;
      467     2324
      468     2325
      469     2326    1   DCL B$TCB$ PTR SYMREF;
PL6.E3A0      #002=VDG$OALLOC_DCB File=VDG$OBJECTS.:VDA5TSI                      FRI 07/04/97 11:21 Page:69
      470     2327        %VD_6E (STCLASS=SYMREF);
      471     2363        %VD$DCBS (NAME=VD_DCBS, STCLASS=SYMREF);
      472     2378
      473     2379
      474     2380        %FPT_GETDCB (DCBNAME=DCB_NAME);
      475     2395    1   DCL 1 DCB_NAME STATIC,
      476     2396    1         2 * UBIN BYTE CALIGNED INIT(%(LENGTHC(CHR_DCB_PREFIX)+2)),
      477     2397    1         2 * CHAR(0) CALIGNED INIT(%CHR_DCB_PREFIX),
      478     2398    1         2 NUM CHAR(2) CALIGNED;
      479     2399
      480     2400
      481     2401        %VD$ERR (NAME=ERR$HEAD, STCLASS="BASED(VD_6E.ERR_HEAD$)");
      482     2454        %B$TCB (NAME=B$TCB, STCLASS="BASED(B$TCB$)");
      483     2457        %B$ALT;
      484     2465
      485     2466
      486     2467
      487     2468    2           IF VD_DCBS.N_FREE# <= 0 THEN DO;

   2468  2 000002   000000 720000 xsym               LXL0    VD_DCBS
         2 000003   000022 605400 2                  TPNZ    s:2476

      488     2469    2              CALL BINCHAR (DCB_NAME.NUM, VD_DCBS.N_DYNAMIC#);

   2469  2 000004   000000 301400                    BTD
         2 000005   000000 000002 xsym               NDSC9   VD_DCBS                  cn=0,s=lsgnf,sf=0,n=2
         2 000006   000011 230002 1                  NDSC9   DCB_NAME+1               cn=1,s=nosgn,sf=0,n=2

      489     2470    2              FPT_GETDCB.DCBNUM_ = VECTOR(DCB#);

   2470  2 000007   377640 235007                    LDA     130976,DL
         2 000010   200003 236100                    LDQ     @DCB#,,AUTO
         2 000011   000004 757000 1                  STAQ    FPT_GETDCB+4

      490     2471    2              CALL M$GETDCB (FPT_GETDCB)

   2471  2 000012   000000 630400 1                  EPPR0   FPT_GETDCB
PL6.E3A0      #002=VDG$OALLOC_DCB File=VDG$OBJECTS.:VDA5TSI                      FRI 07/04/97 11:21 Page:70
         2 000013   460002 713400                    CLIMB   alt,+24578
         2 000014   401000 401760                    pmme    nvectors=3
         2 000015   000035 702000 2                  TSX2    GETDCB_FAILED

      491     2472    2                ALTRET (GETDCB_FAILED);
      492     2473    2              VD_DCBS.N_DYNAMIC# = VD_DCBS.N_DYNAMIC# + 1;

   2473  2 000016   000000 220000 xsym               LDX0    VD_DCBS
         2 000017   000001 621010                    EAX1    1,X0
         2 000020   000000 741000 xsym               STX1    VD_DCBS

      493     2474    2              END;

   2474  2 000021   000034 710000 2                  TRA     s:2480

      494     2475    2           ELSE DO;

      495     2476    2              VD_DCBS.N_FREE# = VD_DCBS.N_FREE# - 1;

   2476  2 000022   777777 621010                    EAX1    -1,X0
         2 000023   000000 441000 xsym               SXL1    VD_DCBS

      496     2477    2              DCB# = VD_DCBS.FREE_DCB# (VD_DCBS.N_FREE#);

   2477  2 000024   000000 236000 xsym               LDQ     VD_DCBS
         2 000025   000022 736000                    QLS     18
         2 000026   000022 732000                    QRS     18
         2 000027   000001 736000                    QLS     1
         2 000030   200003 470500                    LDP0    @DCB#,,AUTO
         2 000031   000100 100406                    MLR     fill='000'O
         2 000032   000001 000002 xsym               ADSC9   VD_DCBS+1,Q              cn=0,n=2
         2 000033   000000 000002                    ADSC9   0,,PR0                   cn=0,n=2

      497     2478    2              END;

      498     2479
      499     2480    1           RETURN;
PL6.E3A0      #002=VDG$OALLOC_DCB File=VDG$OBJECTS.:VDA5TSI                      FRI 07/04/97 11:21 Page:71

   2480  2 000034   000000 702200 xent               TSX2  ! X66_ARET

      500     2481
      501     2482
      502     2483
      503     2484    1   GETDCB_FAILED:
      504     2485    1           ERR$HEAD.ERR = B$TCB.ALT$->B$ALT.ERR;

   2485  2 000035   000000 470400 xsym  GETDCB_FAIL* LDP0    B$TCB$
         2 000036   000000 471500                    LDP1    0,,PR0
         2 000037   100102 236100                    LDQ     66,,PR1
         2 000040   000031 473400 xsym               LDP3    VD_6E+25
         2 000041   300002 756100                    STQ     2,,PR3

      505     2486    1           ERR$HEAD.FLAGLEV# = %FLV_FATAL;

   2486  2 000042   000004 220003                    LDX0    4,DU
         2 000043   000031 471400 xsym               LDP1    VD_6E+25
         2 000044   100003 740100                    STX0    3,,PR1

      506     2487    1           ALTRETURN;

   2487  2 000045   000000 702200 xent               TSX2  ! X66_AALT
      507     2488
      508     2489    1   END VDG$OALLOC_DCB;
      509     2490        %EOD;

PL6.E3A0      #002=VDG$OALLOC_DCB File=VDG$OBJECTS.:VDA5TSI                      FRI 07/04/97 11:21 Page:72
--  Include file information  --

   CP_6.:LIBRARY  cannot be made into a system file and is referenced.
   VD_MACROS_M.:VDA5TOU  is referenced.
   B$JIT_C.:E04TOU  was found in the system file and is never referenced.
   CP_6_C.:E04TOU  was found in the system file and is referenced.
      No diagnostics issued in procedure VDG$OALLOC_DCB.
PL6.E3A0      #002=VDG$OALLOC_DCB File=VDG$OBJECTS.:VDA5TSI                      FRI 07/04/97 11:21 Page:73

 **** Variables and constants ****

  ****  Section 001  Data  VDG$OALLOC_DCB

  ****  Scalars and arrays  ****
OctLoc.c.b A Datatyp(siz) R M Lvl/name                 OctLoc.c.b A Datatyp(siz) R M Lvl/name

    10-0-0/c STRC(63)    r     1 DCB_NAME                   0-0-0/d STRC(288)   r     1 FPT_GETDCB

  ****  Auto variables  ****

  ****  Scalars and arrays  ****
OctLoc.c.b A Datatyp(siz) R M Lvl/name                 OctLoc.c.b A Datatyp(siz) R M Lvl/name

     3-0-0/w PTR         r     1 @DCB#                     *0-0-0/h UBIN(18)    r     1 DCB#

  ****  SYMREF variables  ****

  ****  Scalars and arrays  ****
OctLoc.c.b A Datatyp(siz) R M Lvl/name                 OctLoc.c.b A Datatyp(siz) R M Lvl/name

     0-0-0/w PTR         r     1 B$TCB$                     0-0-0/w STRC(22644) r     1 VD_6E
     0-0-0/w STRC(72)    r     1 VD_DCBS

  ****  BASED and DCB variables  ****

  ****  Scalars and arrays  ****
OctLoc.c.b A Datatyp(siz) R M Lvl/name                 OctLoc.c.b A Datatyp(siz) R M Lvl/name

     0-0-0/w STRC(2448)  r     1 B$ALT                      0-0-0/w STRC(144)   r     1 B$TCB
     0-0-0/w STRC(180)   r     1 ERR$HEAD


   Procedure VDG$OALLOC_DCB requires 38 words for executable code.
   Procedure VDG$OALLOC_DCB requires 4 words of local(AUTO) storage.
PL6.E3A0      #002=VDG$OALLOC_DCB File=VDG$OBJECTS.:VDA5TSI                      FRI 07/04/97 11:21 Page:74
          *** CROSS REFERENCE LISTING ***
**     DENOTES     IDENTIFIER DEFINITION
<<                 IDENTIFIER'S VALUE SET
>>                 IDENTIFIER'S VALUE USED
<>                 IDENTIFIER SET AND/OR USED
--                 IDENTIFIER REFERENCED
PL6.E3A0      #002=VDG$OALLOC_DCB File=VDG$OBJECTS.:VDA5TSI                      FRI 07/04/97 11:21 Page:75
          MINI XREF LISTING

B$ALT.CODE
      2459**DCL      2459--REDEF    2460--REDEF    2460--REDEF
B$ALT.ERR
      2460**DCL      2485>>ASSIGN
B$ALT.ERR.ERR#
      2461**DCL      2461--REDEF
B$ALT.EVID
      2460**DCL      2460--REDEF    2460--REDEF
B$TCB.ALT$
      2455**DCL      2485>>ASSIGN
B$TCB$
      2326**DCL      2455--IMP-PTR  2485>>ASSIGN
DCB#
      2323**DCL        23--PROC     2470--ASSIGN   2477<<ASSIGN
DCB_NAME
      2395**DCL      2391--DCLINIT
DCB_NAME.NUM
      2398**DCL      2469<<CALLBLT
ERR$HEAD.ERR
      2446**DCL      2485<<ASSIGN
ERR$HEAD.FLAGLEV#
      2451**DCL      2486<<ASSIGN
FPT_GETDCB
      2391**DCL      2471<>CALL
FPT_GETDCB.DCBNUM_
      2391**DCL      2470<<ASSIGN
FPT_GETDCB.V
      2392**DCL      2391--DCLINIT
GETDCB_FAILED
      2485**LABEL    2471--CALLALT
M$GETDCB
      2256**DCL-ENT  2471--CALL
PL6.E3A0      #002=VDG$OALLOC_DCB File=VDG$OBJECTS.:VDA5TSI                      FRI 07/04/97 11:21 Page:76
VD_6E.ERR_HEAD$
      2359**DCL      2409--IMP-PTR  2485>>ASSIGN   2486>>ASSIGN
VD_DCBS.FREE_DCB#
      2375**DCL      2477>>ASSIGN
VD_DCBS.N_DYNAMIC#
      2375**DCL      2469>>CALLBLT  2473<<ASSIGN   2473>>ASSIGN
VD_DCBS.N_FREE#
      2375**DCL      2468>>IF       2476<<ASSIGN   2476>>ASSIGN   2477>>ASSIGN

