PL6.E3A0      #006=VDG$OFREE File=VDG$OBJECTS.:VDA5TSI                           FRI 07/04/97 11:21 Page:192
     1226        1        /*T***********************************************************/
     1227        2        /*T*                                                         */
     1228        3        /*T* Copyright (c) Bull HN Information Systems Inc., 1997    */
     1229        4        /*T*                                                         */
     1230        5        /*T***********************************************************/
     1231        6
     1232        7        /*D* NAME: VDG$OFREE
     1233        8            PARAMETERS:
     1234        9                OBJECT_HEADER - Actual VD$OBJECT_HEADER (or any sub- or
     1235       10                    super-part thereof) in object to free.
     1236       11                    OBJECT_HEADER.SIZE# should contain # words allocated for
     1237       12                    object.  If the "object" doesn't reside in dynamic
     1238       13                    storage (eg, if it's one of initialization's constants
     1239       14                    or in someone's auto storage), then .SIZE# must be 0.
     1240       15            INPUT:
     1241       16                VD_MCB_LARGE - XUM$MCB for large-object heap.
     1242       17                VD_MCB_SMALL - XUM$MCB for small-object heap.
     1243       18                VD_OBJECTS - Info about object classes.
     1244       19            OUTPUT:
     1245       20                None.
     1246       21            DESCRIPTION:
     1247       22                Free any objects pointed-to by this object.
     1248       23                If OBJECT_HEADER is one of a set of specific object classes, pop
     1249       24                it from a predefined stack:
     1250       25                    Object:          Is popped from:
     1251       26                    -----------      ----------------------------
     1252       27                    %CLS_CMD_STREAM  VD_6E.CMD_STREAM$ (points to tail)
     1253       28                    %CLS_PORT        VD_6E.PORT_HEAD$/.PORT_TAIL$
     1254       29                    (%CLS_ERR is not popped 'cause it has no backward pointer,
     1255       30                    'cause VD$ERRs are never freed individually, just all-at-once
     1256       31                    after the error is reported, so they aren't really a stack.)
     1257       32                Calls X$DEALLOCATE to deallocate the object itself.
     1258       33        */
     1259       34
     1260       35        VDG$OFREE: PROC (OBJECT_HEADER) ALTRET;
     1261       36
     1262       37
PL6.E3A0      #006=VDG$OFREE File=VDG$OBJECTS.:VDA5TSI                           FRI 07/04/97 11:21 Page:193
     1263       38        %INCLUDE VD_MACROS_M;
     1264     2253        %INCLUDE VD_PERR_C;
     1265     2401        %INCLUDE XUM_MACRO_C;
     1266     2428
     1267     2429
     1268     2430        %VD$OBJECT_HEADER (NAME=OBJECT_HEADER, STCLASS=PARAM);
     1269     2452
     1270     2453
     1271     2454    1   DCL VDG$OFREE_DCB       ENTRY (1) ALTRET;
     1272     2455    1   DCL VDG$OCLEAR_RANGE    ENTRY (1) ALTRET;
     1273     2456    1   DCL VDG$OCLEAR_LOCATION ENTRY (1) ALTRET;
     1274     2457    1   DCL X$DEALLOCATE        ENTRY (1) ALTRET;
     1275     2458    1   DCL VDG$ESCREECH        ENTRY (3);
     1276     2459
     1277     2460
     1278     2461        %VD_6E (STCLASS=SYMREF);
     1279     2497        %VD_OBJECTS (NAME=VD_OBJECTS, STCLASS=SYMREF);
     1280     2537        %XUM$MCB (NAME=VD_MCB_LARGE, STCLASS=SYMREF);
     1281     2541        %XUM$MCB (NAME=VD_MCB_SMALL, STCLASS=SYMREF);
     1282     2545
     1283     2546
     1284     2547    1   DCL MCB$ PTR;
     1285     2548    1   DCL NWORDS SBIN;
     1286     2549    1   DCL N_ENTRIES SBIN;
     1287     2550    1   DCL PTR$ PTR;
     1288     2551    1   DCL 1 SEG_PTR REDEF PTR$,
     1289     2552    1         2 * UBIN(24) UNAL,
     1290     2553    1         2 SEGID BIT(12) UNAL;
     1291     2554    1   DCL SEG_PTR2$ PTR;
     1292     2555    1   DCL 1 SEG_PTR2 REDEF SEG_PTR2$,
     1293     2556    1         2 * UBIN(24) UNAL,
     1294     2557    1         2 SEGID BIT(12) UNAL;
     1295     2558    1   DCL PTR2$ PTR;
     1296     2559    1   DCL I SBIN;
     1297     2560    1   DCL SBIN_WORD$ PTR;
     1298     2561
     1299     2562
PL6.E3A0      #006=VDG$OFREE File=VDG$OBJECTS.:VDA5TSI                           FRI 07/04/97 11:21 Page:194
     1300     2563        %XUM$MCB (NAME=MCB, STCLASS="BASED(MCB$)");
     1301     2567    1   DCL SBIN$WORD SBIN BASED(SBIN_WORD$);
     1302     2568        %VD$ERR (NAME=ERR$HEAD, STCLASS="BASED(VD_6E.ERR_HEAD$)");
     1303     2621        %VD$OBJECT_HEADER;
     1304     2643
     1305     2644        %VD$BLOCK_DESC (STCLASS="BASED(PTR$)");
     1306     2791        %VD$BUFFER (STCLASS="BASED(PTR$)");
     1307     2849        %VD$BUFFER_HEADER (STCLASS="BASED(PTR$)");
     1308     2885        %VD$CMD_STREAM (STCLASS="BASED(PTR$)");
     1309     2924        %VD$DIR_NODE (STCLASS="BASED(PTR$)");
     1310     2962        %VD$ENCODED_NODE (STCLASS="BASED(PTR$)");
     1311     3083        %VD$ERR (STCLASS="BASED(PTR$)");
     1312     3136        %VD$EVAL (STCLASS="BASED(PTR$)");
     1313     3381        %VD$EVAL_PATTERN (STCLASS="BASED(PTR$)");
     1314     3488        %VD$FILE_KEY (STCLASS="BASED(PTR$)");
     1315     3537        %VD$FILE_NODE (STCLASS="BASED(PTR$)");
     1316     3630        %VD$FIT (STCLASS="BASED(PTR$)");
     1317     3666        %VD$IT_ADJUST (STCLASS="BASED(PTR$)");
     1318     3703        %VD$IT_BLOCK_EXPR (STCLASS="BASED(PTR$)");
     1319     3853        %VD$IT_COMMAND (STCLASS="BASED(PTR$)");
     1320     3891        %VD$IT_OPERAND (STCLASS="BASED(PTR$)");
     1321     3957        %VD$IT_OPERATOR (STCLASS="BASED(PTR$)");
     1322     3994        %VD$IT_SELECT (STCLASS="BASED(PTR$)");
     1323     4031        %VD$NAME_SPEC (STCLASS="BASED(PTR$)");
     1324     4079        %VD$PATTERN (STCLASS="BASED(PTR$)");
     1325     4130        %VD$PORT (STCLASS="BASED(PTR$)");
     1326     4228        %VD$RECORD_SET (STCLASS="BASED(PTR$)");
     1327     4306        %VD$STREAM (STCLASS="BASED(PTR$)");
     1328     4412        %VD$STRING_HEADER (STCLASS="BASED(PTR$)");
     1329     4448        %VD$STRUCTURE_SPEC (STCLASS="BASED(PTR$)");
     1330     4485        %VD$TABS (STCLASS="BASED(PTR$)");
     1331     4522        %VD$TEXTC_REMOTE (STCLASS="BASED(PTR$)");
     1332     4583        %VD$WINDOW_BLOCK (STCLASS="BASED(PTR$)");
     1333     4620        %VD$WINDOW_SPEC (STCLASS="BASED(PTR$)");
     1334     4686        %VD$XLATE_LOCATIONS (STCLASS="BASED(PTR$)");
     1335     4822
     1336     4823
PL6.E3A0      #006=VDG$OFREE File=VDG$OBJECTS.:VDA5TSI                           FRI 07/04/97 11:21 Page:195
     1337     4824
     1338     4825    1   OFREE:
     1339     4826    1           PTR$ = ADDR(OBJECT_HEADER);
     1340     4827    1           IF PTR$ = ADDR(NIL) THEN
     1341     4828    1              RETURN;
     1342     4829
     1343     4830    1           IF OBJECT_HEADER.CLASS# >= %CLS_MX
     1344     4831    2             OR VD_OBJECTS.SIZE (OBJECT_HEADER.CLASS#) < 0 THEN DO;
     1345     4832    2              CALL VDG$ESCREECH (OBJECT_HEADER);
     1346     4833    2              END;
     1347     4834
     1348     4835    1           IF VD_OBJECTS.STR (OBJECT_HEADER.CLASS#)
     1349     4836    1             AND VD$STRING_HEADER.FLINK$ ~= ADDR(NIL) THEN
     1350     4837    1              CALL VDG$OFREE (VD$STRING_HEADER.FLINK$->VD$STRING_HEADER)
     1351     4838    1                ALTRET (OFREE_FAILED);
     1352     4839    1           ELSE IF VD_OBJECTS.BUF (OBJECT_HEADER.CLASS#)
     1353     4840    2                AND VD$BUFFER_HEADER.FLINK$ ~= ADDR(NIL) THEN DO;
     1354     4841    2                 CALL VDG$OFREE (VD$BUFFER_HEADER.FLINK$->VD$BUFFER_HEADER)
     1355     4842    2                   ALTRET (OFREE_FAILED);
     1356     4843    2                 END;
     1357     4844
     1358     4845                /* Do object-class-specific actions */
     1359     4846    2           DO CASE (OBJECT_HEADER.CLASS#);
     1360     4847
     1361     4848    2            CASE (%CLS_BLOCK_BUFFER);
     1362     4849                   /* Don't free VD$BLOCK_DESC.OPTIONS.STRUCTURE$ */
     1363     4850    2              PTR2$ = PALIGNW(ADDR(VD$BUFFER.BYTES));
     1364     4851                   %CLEARKEY (KEY="PTR2$->VD$BLOCK_DESC.FILE_KEY");
     1365     4861    2              CALL VDG$OCLEAR_RANGE (PTR2$->VD$BLOCK_DESC.RANGE)
     1366     4862    2                ALTRET (OCLEAR_RANGE_FAILED);
     1367     4863
     1368     4864    2            CASE (%CLS_BLOCK_DESC);
     1369     4865                   /* Don't free VD$BLOCK_DESC.OPTIONS.STRUCTURE$ */
     1370     4866                   %CLEARKEY (KEY=VD$BLOCK_DESC.FILE_KEY);
     1371     4876    2              CALL VDG$OCLEAR_RANGE (VD$BLOCK_DESC.RANGE)
     1372     4877    2                ALTRET (OCLEAR_RANGE_FAILED);
     1373     4878
PL6.E3A0      #006=VDG$OFREE File=VDG$OBJECTS.:VDA5TSI                           FRI 07/04/97 11:21 Page:196
     1374     4879    2            CASE (%CLS_CMD_STREAM);
     1375     4880    2              VD_6E.CMD_STREAM$ = VD$CMD_STREAM.BLINK$;
     1376     4881                   /* Don't free VD$CMD_STREAM.BLINK$ */
     1377     4882    2              IF VD$CMD_STREAM.RECORD$ ~= ADDR(NIL) THEN
     1378     4883    2                 CALL VDG$OFREE (VD$CMD_STREAM.RECORD$->VD$BUFFER)
     1379     4884    2                   ALTRET (OFREE_FAILED);
     1380     4885    2              IF VD$CMD_STREAM.INTREE$ ~= ADDR(NIL) THEN
     1381     4886    2                 CALL VDG$OFREE (VD$CMD_STREAM.INTREE$->VD$IT_COMMAND)
     1382     4887    2                   ALTRET (OFREE_FAILED);
     1383     4888
     1384     4889    2            CASE (%CLS_DIR_NODE);
     1385     4890                   /* Don't free VD$DIR_NODE.BLINK$ */
     1386     4891                   /* Don't free VD$DIR_NODE.STRUCTURE$ */
     1387     4892    2              IF VD$DIR_NODE.FLINK$ ~= ADDR(NIL) THEN
     1388     4893    2                 CALL VDG$OFREE (VD$DIR_NODE.FLINK$->VD$DIR_NODE)
     1389     4894    2                   ALTRET (OFREE_FAILED);
     1390     4895    2              IF VD$DIR_NODE.HEAD$ ~= ADDR(NIL) THEN
     1391     4896    2                 CALL VDG$OFREE (VD$DIR_NODE.HEAD$->VD$FILE_NODE)
     1392     4897    2                   ALTRET (OFREE_FAILED);
     1393     4898
     1394     4899    2            CASE (%CLS_ENCODED_NODE);
     1395     4900                   %CLEARKEY (KEY=VD$ENCODED_NODE.DESC.FILE_KEY);
     1396     4910    2              CALL VDG$OCLEAR_LOCATION (VD$ENCODED_NODE.DESC.LOCATION)
     1397     4911    2                ALTRET (OCLEAR_LOCATION_FAILED);
     1398     4912    2              IF VD$ENCODED_NODE.DESC.DATA$ ~= ADDR(NIL) THEN
     1399     4913    2                 CALL VDG$OFREE (VD$ENCODED_NODE.DESC.DATA$->VD$BUFFER)
     1400     4914    2                   ALTRET (OFREE_FAILED);
     1401     4915
     1402     4916    2            CASE (%CLS_ERR);
     1403     4917    2              IF VD$ERR.FLINK$ ~= ADDR(NIL) THEN
     1404     4918    2                 CALL VDG$OFREE (VD$ERR.FLINK$->VD$ERR)
     1405     4919    2                   ALTRET (OFREE_FAILED);
     1406     4920
     1407     4921    2            CASE (%CLS_EVAL);
     1408     4922                   /* Don't free VD$EVAL.BLINK$ */
     1409     4923    2              CALL VDG$OCLEAR_RANGE (VD$EVAL.ENCLOSING)
     1410     4924    2                ALTRET (OCLEAR_RANGE_FAILED);
PL6.E3A0      #006=VDG$OFREE File=VDG$OBJECTS.:VDA5TSI                           FRI 07/04/97 11:21 Page:197
     1411     4925    2              CALL VDG$OCLEAR_RANGE (VD$EVAL.RANGE)
     1412     4926    2                ALTRET (OCLEAR_RANGE_FAILED);
     1413     4927    2              CALL VDG$OCLEAR_RANGE (VD$EVAL.LAST_FOUND_RANGE)
     1414     4928    2                ALTRET (OCLEAR_RANGE_FAILED);
     1415     4929                   /* Don't free VD$EVAL.NODE$ */
     1416     4930
     1417     4931    2            CASE (%CLS_EVAL_PATTERN);
     1418     4932                      /* Don't free VD$EVAL_PATTERN.BLINK$ */
     1419     4933    2              CALL VDG$OCLEAR_RANGE (VD$EVAL_PATTERN.RANGE)
     1420     4934    2                ALTRET (OCLEAR_RANGE_FAILED);
     1421     4935                      /* Don't free VD$EVAL_PATTERN.PATTERN$ */
     1422     4936
     1423     4937    2            CASE (%CLS_FILE_KEY);
     1424     4938    2              IF VD$FILE_KEY.FLINK$ ~= ADDR(NIL) THEN
     1425     4939    2                 CALL VDG$OFREE (VD$FILE_KEY.FLINK$->VD$STRING_HEADER)
     1426     4940    2                   ALTRET (OFREE_FAILED);
     1427     4941
     1428     4942    2            CASE (%CLS_FILE_NODE);
     1429     4943                   /* Don't free VD$FILE_NODE.BLINK$ */
     1430     4944    2              IF VD$FILE_NODE.FLINK$ ~= ADDR(NIL) THEN
     1431     4945    2                 CALL VDG$OFREE (VD$FILE_NODE.FLINK$->VD$FILE_NODE)
     1432     4946    2                   ALTRET (OFREE_FAILED);
     1433     4947                   %CLEARKEY (KEY=VD$FILE_NODE.DESC.KEY);
     1434     4957                   %CLEARSPEC (SPEC=VD$FILE_NODE.DESC.SPEC);
     1435     4967    2              IF VD$FILE_NODE.DESC.DATA$ ~= ADDR(NIL) THEN
     1436     4968    2                 CALL VDG$OFREE (VD$FILE_NODE.DESC.DATA$->VD$BUFFER)
     1437     4969    2                   ALTRET (OFREE_FAILED);
     1438     4970    2              IF VD$FILE_NODE.HEAD$ ~= ADDR(NIL) THEN
     1439     4971    2                 CALL VDG$OFREE (VD$FILE_NODE.HEAD$->VD$FILE_NODE)
     1440     4972    2                   ALTRET (OFREE_FAILED);
     1441     4973
     1442     4974    2            CASE (%CLS_FIT);
     1443     4975                   /* Don't free VD$FIT.CODE2$ */
     1444     4976                   /* Don't free VD$FIT.CODE3$ */
     1445     4977    2              ;
     1446     4978
     1447     4979    2            CASE (%CLS_IT_ADJUST);
PL6.E3A0      #006=VDG$OFREE File=VDG$OBJECTS.:VDA5TSI                           FRI 07/04/97 11:21 Page:198
     1448     4980                   /* Don't free VD$IT_ADJUST.PARENT$ */
     1449     4981    2              IF VD$IT_ADJUST.FLINK$ ~= ADDR(NIL) THEN
     1450     4982    2                 CALL VDG$OFREE (VD$IT_ADJUST.FLINK$->VD$IT_ADJUST)
     1451     4983    2                   ALTRET (OFREE_FAILED);
     1452     4984    2              IF VD$IT_ADJUST.MOVEMENTS$ ~= ADDR(NIL) THEN
     1453     4985    2                 CALL VDG$OFREE (VD$IT_ADJUST.MOVEMENTS$->VD$IT_OPERAND)
     1454     4986    2                   ALTRET (OFREE_FAILED);
     1455     4987
     1456     4988    2            CASE (%CLS_IT_BLOCK_EXPR);
     1457     4989                   /* Don't free VD$IT_BLOCK_EXPR.PARENT$ */
     1458     4990                   /* Don't free VD$IT_BLOCK_EXPR.OPTIONS.STRUCTURE$ */
     1459     4991    2              IF VD$IT_BLOCK_EXPR.FLINK$ ~= ADDR(NIL) THEN
     1460     4992    2                 CALL VDG$OFREE (VD$IT_BLOCK_EXPR.FLINK$->VD$IT_BLOCK_EXPR)
     1461     4993    2                   ALTRET (OFREE_FAILED);
     1462     4994                   %CLEARKEY (KEY=VD$IT_BLOCK_EXPR.DOMAINN.FILE_KEY);
     1463     5004    2              CALL VDG$OCLEAR_RANGE (VD$IT_BLOCK_EXPR.DOMAINN.RANGE)
     1464     5005    2                ALTRET (OCLEAR_RANGE_FAILED);
     1465     5006    2              IF VD$IT_BLOCK_EXPR.SELECTS$ ~= ADDR(NIL) THEN
     1466     5007    2                 CALL VDG$OFREE (VD$IT_BLOCK_EXPR.SELECTS$->VD$IT_SELECT)
     1467     5008    2                   ALTRET (OFREE_FAILED);
     1468     5009
     1469     5010    2            CASE (%CLS_IT_COMMAND);
     1470     5011                   /* Don't free VD$IT_COMMAND.PARENT$ */
     1471     5012    2              IF VD$IT_COMMAND.FLINK$ ~= ADDR(NIL) THEN
     1472     5013    2                 CALL VDG$OFREE (VD$IT_COMMAND.FLINK$->VD$IT_COMMAND)
     1473     5014    2                   ALTRET (OFREE_FAILED);
     1474     5015                      /* Don't free .PT_BLOCK_EXPR$->:  VD$IT_COMMAND doesn't own it */
     1475     5016    3              DO I = 0 TO %(MX_COMMAND_PARAMS-1);
     1476     5017    3                 IF VD$IT_COMMAND.PARAM$ (I) ~= ADDR(NIL) THEN
     1477     5018    3                    CALL VDG$OFREE (VD$IT_COMMAND.PARAM$(I)->VD$OBJECT_HEADER)
     1478     5019    3                      ALTRET (OFREE_FAILED);
     1479     5020    3                 END;
     1480     5021
     1481     5022    2            CASE (%CLS_IT_OPERAND);
     1482     5023                   /* Don't free VD$IT_OPERAND.PARENT$ */
     1483     5024    2              IF VD$IT_OPERAND.FLINK$ ~= ADDR(NIL) THEN
     1484     5025    2                 CALL VDG$OFREE (VD$IT_OPERAND.FLINK$->VD$IT_OPERAND)
PL6.E3A0      #006=VDG$OFREE File=VDG$OBJECTS.:VDA5TSI                           FRI 07/04/97 11:21 Page:199
     1485     5026    2                   ALTRET (OFREE_FAILED);
     1486     5027    2              IF VD$IT_OPERAND.PARAM$ ~= ADDR(NIL) THEN
     1487     5028    2                 CALL VDG$OFREE (VD$IT_OPERAND.PARAM$->VD$OBJECT_HEADER)
     1488     5029    2                   ALTRET (OFREE_FAILED);
     1489     5030
     1490     5031    2            CASE (%CLS_IT_OPERATOR);
     1491     5032                   /* Don't free VD$IT_OPERATOR.PARENT$ */
     1492     5033    2              IF VD$IT_OPERATOR.FLINK$ ~= ADDR(NIL) THEN
     1493     5034    2                 CALL VDG$OFREE (VD$IT_OPERATOR.FLINK$->VD$IT_OPERATOR)
     1494     5035    2                   ALTRET (OFREE_FAILED);
     1495     5036    2              IF VD$IT_OPERATOR.OPERAND$ ~= ADDR(NIL) THEN
     1496     5037    2                 CALL VDG$OFREE (VD$IT_OPERATOR.OPERAND$->VD$IT_OPERAND)
     1497     5038    2                   ALTRET (OFREE_FAILED);
     1498     5039    2              IF VD$IT_OPERATOR.R_OPERAND$ ~= ADDR(NIL) THEN
     1499     5040    2                 CALL VDG$OFREE (VD$IT_OPERATOR.R_OPERAND$->VD$IT_OPERAND)
     1500     5041    2                   ALTRET (OFREE_FAILED);
     1501     5042
     1502     5043    2            CASE (%CLS_IT_SELECT);
     1503     5044                   /* Don't free VD$IT_SELECT.PARENT$ */
     1504     5045    2              IF VD$IT_SELECT.FLINK$ ~= ADDR(NIL) THEN
     1505     5046    2                 CALL VDG$OFREE (VD$IT_SELECT.FLINK$->VD$IT_SELECT)
     1506     5047    2                   ALTRET (OFREE_FAILED);
     1507     5048    2              IF VD$IT_SELECT.ADJUSTS$ ~= ADDR(NIL) THEN
     1508     5049    2                 CALL VDG$OFREE (VD$IT_SELECT.ADJUSTS$->VD$IT_ADJUST)
     1509     5050    2                   ALTRET (OFREE_FAILED);
     1510     5051
     1511     5052    2            CASE (%CLS_PATTERN);
     1512     5053    2              N_ENTRIES = (VD$PATTERN.OBJECT.SIZE# -
     1513     5054    2                POFFW(ADDR(VD$PATTERN.ENTRIES), PTR$)) /
     1514     5055    2                SIZEW(VD$PATTERN.ENTRIES);
     1515     5056    2              IF N_ENTRIES ~= VD$PATTERN.MX_ENTRIES#
     1516     5057    2                OR VD$PATTERN.N_ENTRIES# > N_ENTRIES THEN
     1517     5058    2                 CALL VDG$ESCREECH (VD$PATTERN.N_ENTRIES#);
     1518     5059    3              DO I = 0 TO (VD$PATTERN.N_ENTRIES# - 1);
     1519     5060    4                 IF VD$PATTERN.ENTRIES.MATCH$ (I) ~= ADDR(NIL) THEN DO;
     1520     5061    4                    CALL VDG$OFREE (VD$PATTERN.ENTRIES.MATCH$ (I) ->
     1521     5062    4                      VD$OBJECT_HEADER)
PL6.E3A0      #006=VDG$OFREE File=VDG$OBJECTS.:VDA5TSI                           FRI 07/04/97 11:21 Page:200
     1522     5063    4                      ALTRET (OFREE_FAILED);
     1523     5064    4                    END;
     1524     5065    3                 END;
     1525     5066
     1526     5067    2            CASE (%CLS_PORT);
     1527     5068                   /* Delink VD$PORT from doubly-linked chain */
     1528     5069    2              IF VD$PORT.BLINK$ = ADDR(NIL) THEN
     1529     5070    2                 VD_6E.PORT_HEAD$ = VD$PORT.FLINK$;
     1530     5071    2              ELSE
     1531     5072    2                 VD$PORT.BLINK$->VD$PORT.FLINK$ = VD$PORT.FLINK$;
     1532     5073    2              IF VD$PORT.FLINK$ = ADDR(NIL) THEN
     1533     5074    2                 VD_6E.PORT_TAIL$ = VD$PORT.BLINK$;
     1534     5075    2              ELSE
     1535     5076    2                 VD$PORT.FLINK$->VD$PORT.BLINK$ = VD$PORT.BLINK$;
     1536     5077                   /* Don't free VD$PORT.BLINK$ */
     1537     5078                   /* Don't free VD$PORT.FLINK$ */
     1538     5079                   /* Don't free VD$PORT.STRUCTURE$ */
     1539     5080                   /* Don't free VD$PORT.LEVEL.INTERNAL$ */
     1540     5081    3              IF VD$PORT.DCB# ~= 0 THEN DO;
     1541     5082    3                 CALL VDG$OFREE_DCB (VD$PORT.DCB#)
     1542     5083    3                   ALTRET (OFREE_DCB_FAILED);
     1543     5084    3                 END;
     1544     5085    2              IF VD$PORT.FIT$ ~= ADDR(NIL) THEN
     1545     5086    2                 CALL VDG$OFREE (VD$PORT.FIT$->VD$FIT)
     1546     5087    2                   ALTRET (OFREE_FAILED);
     1547     5088                   %CLEARKEY (KEY=VD$PORT.FILE_KEY);
     1548     5098    2              CALL VDG$OCLEAR_LOCATION (VD$PORT.CURRENT)
     1549     5099    2                ALTRET (OCLEAR_LOCATION_FAILED);
     1550     5100    3              DO I = 0 TO %MX_ACCESS_LEVELS - 1;
     1551     5101    3                 IF VD$PORT.LEVEL.DATA$ (I) ~= ADDR(NIL) THEN
     1552     5102    3                    CALL VDG$OFREE (VD$PORT.LEVEL.DATA$ (I) -> VD$BUFFER)
     1553     5103    3                      ALTRET (OFREE_FAILED);
     1554     5104    3                 END;
     1555     5105
     1556     5106    2            CASE (%CLS_RECORD_SET);
     1557     5107    3              DO I = 0 TO (VD$RECORD_SET.N_ENTRIES# - 1);
     1558     5108                      %CLEARKEY (KEY=VD$RECORD_SET.DESC.KEY, INDX=I);
PL6.E3A0      #006=VDG$OFREE File=VDG$OBJECTS.:VDA5TSI                           FRI 07/04/97 11:21 Page:201
     1559     5118    3                 IF VD$RECORD_SET.DESC.DATA$ (I) ~= ADDR(NIL) THEN
     1560     5119    3                    CALL VDG$OFREE (VD$RECORD_SET.DESC.DATA$ (I) -> VD$BUFFER)
     1561     5120    3                      ALTRET (OFREE_FAILED);
     1562     5121    3                 END;
     1563     5122
     1564     5123    2            CASE (%CLS_STREAM);
     1565     5124                   /* Don't free VD$STREAM.PORT$ */
     1566     5125                   %CLEARKEY (KEY=VD$STREAM.FILE_KEY);
     1567     5135    2              CALL VDG$OCLEAR_LOCATION (VD$STREAM.CURRENT)
     1568     5136    2                ALTRET (OCLEAR_LOCATION_FAILED);
     1569     5137    2              CALL VDG$OCLEAR_LOCATION (VD$STREAM.NEXT)
     1570     5138    2                ALTRET (OCLEAR_LOCATION_FAILED);
     1571     5139
     1572     5140    2            CASE (%CLS_STRUCTURE_SPEC);
     1573     5141                   /* Don't free VD$STRUCTURE_SPEC.ACCESSOR$ */
     1574     5142    2              IF VD$STRUCTURE_SPEC.FIT$ ~= ADDR(NIL) THEN
     1575     5143    2                 CALL VDG$OFREE (VD$STRUCTURE_SPEC.FIT$->VD$FIT)
     1576     5144    2                   ALTRET (OFREE_FAILED);
     1577     5145
     1578     5146    2            CASE (%CLS_WINDOW_BLOCK);
     1579     5147    2              IF VD$WINDOW_BLOCK.EDIT_BLOCK$ ~= ADDR(NIL) THEN
     1580     5148    2                 CALL VDG$OFREE (VD$WINDOW_BLOCK.EDIT_BLOCK$->VD$BLOCK_DESC)
     1581     5149    2                   ALTRET (OFREE_FAILED);
     1582     5150    2              IF VD$WINDOW_BLOCK.EVAL$ ~= ADDR(NIL) THEN
     1583     5151    2                 CALL VDG$OFREE (VD$WINDOW_BLOCK.EVAL$->VD$EVAL)
     1584     5152    2                   ALTRET (OFREE_FAILED);
     1585     5153
     1586     5154    2            CASE (%CLS_WINDOW_SPEC);
     1587     5155    2              IF VD$WINDOW_SPEC.OPERAND.STREAM$ ~= ADDR(NIL) THEN
     1588     5156    2                 CALL VDG$OFREE (VD$WINDOW_SPEC.OPERAND.STREAM$->VD$STREAM)
     1589     5157    2                   ALTRET (OFREE_FAILED);
     1590     5158    2              IF VD$WINDOW_SPEC.OPERAND.EDIT_BLOCK$ ~= ADDR(NIL) THEN
     1591     5159    2                 CALL VDG$OFREE (VD$WINDOW_SPEC.OPERAND.EDIT_BLOCK$->VD$BLOCK_DESC)
     1592     5160    2                   ALTRET (OFREE_FAILED);
     1593     5161    2              IF VD$WINDOW_SPEC.OPERAND.EVAL$ ~= ADDR(NIL) THEN
     1594     5162    2                 CALL VDG$OFREE (VD$WINDOW_SPEC.OPERAND.EVAL$->VD$EVAL)
     1595     5163    2                   ALTRET (OFREE_FAILED);
PL6.E3A0      #006=VDG$OFREE File=VDG$OBJECTS.:VDA5TSI                           FRI 07/04/97 11:21 Page:202
     1596     5164    2              IF VD$WINDOW_SPEC.OPERAND.INTREE$ ~= ADDR(NIL) THEN
     1597     5165    2                 CALL VDG$OFREE (VD$WINDOW_SPEC.OPERAND.INTREE$->VD$IT_BLOCK_EXPR)
     1598     5166    2                   ALTRET (OFREE_FAILED);
     1599     5167    2              IF VD$WINDOW_SPEC.RECORD_SET$ ~= ADDR(NIL) THEN
     1600     5168    2                 CALL VDG$OFREE (VD$WINDOW_SPEC.RECORD_SET$->VD$RECORD_SET)
     1601     5169    2                   ALTRET (OFREE_FAILED);
     1602     5170    2              IF VD$WINDOW_SPEC.EOFMARK$ ~= ADDR(NIL) THEN
     1603     5171    2                 CALL VDG$OFREE (VD$WINDOW_SPEC.EOFMARK$->VD$BUFFER)
     1604     5172    2                   ALTRET (OFREE_FAILED);
     1605     5173    2              IF VD$WINDOW_SPEC.TABS$ ~= ADDR(NIL) THEN
     1606     5174    2                 CALL VDG$OFREE (VD$WINDOW_SPEC.TABS$->VD$TABS)
     1607     5175    2                   ALTRET (OFREE_FAILED);
     1608     5176    2              IF VD$WINDOW_SPEC.KEY_DEFINITION_BUFFER$ ~= ADDR(NIL) THEN
     1609     5177    2                 CALL VDG$OFREE (VD$WINDOW_SPEC.KEY_DEFINITION_BUFFER$ ->
     1610     5178    2                   VD$BUFFER)
     1611     5179    2                   ALTRET (OFREE_FAILED);
     1612     5180
     1613     5181    2            CASE (%CLS_XLATE_LOCATIONS);
     1614     5182                   %CLEARKEY (KEY=VD$XLATE_LOCATIONS.FILE_KEY);
     1615     5192    2              CALL VDG$OCLEAR_LOCATION (VD$XLATE_LOCATIONS.PREFIX)
     1616     5193    2                ALTRET (OCLEAR_LOCATION_FAILED);
     1617     5194
     1618     5195    2              N_ENTRIES = (VD$XLATE_LOCATIONS.OBJECT.SIZE# -
     1619     5196    2                POFFW(ADDR(VD$XLATE_LOCATIONS.XLATES), PTR$)) /
     1620     5197    2                SIZEW(VD$XLATE_LOCATIONS.XLATES);
     1621     5198    2              IF N_ENTRIES ~= VD$XLATE_LOCATIONS.MX_ENTRIES#
     1622     5199    2                OR VD$XLATE_LOCATIONS.N_ENTRIES# > N_ENTRIES THEN
     1623     5200    2                 CALL VDG$ESCREECH (VD$XLATE_LOCATIONS.N_ENTRIES#);
     1624     5201    3              DO I = 0 TO (VD$XLATE_LOCATIONS.N_ENTRIES# - 1);
     1625     5202                      %CLEARKEY (KEY=VD$XLATE_LOCATIONS.XLATES.OLD_KEY_LO, INDX=I);
     1626     5212                      %CLEARKEY (KEY=VD$XLATE_LOCATIONS.XLATES.OLD_KEY_HI, INDX=I);
     1627     5222                      %CLEARKEY (KEY=VD$XLATE_LOCATIONS.XLATES.NEW_KEY, INDX=I);
     1628     5232    3                 END;
     1629     5233
     1630     5234    2            CASE (ELSE);
     1631     5235    2              ; /* No special handling for other objects */
     1632     5236    2            END;
PL6.E3A0      #006=VDG$OFREE File=VDG$OBJECTS.:VDA5TSI                           FRI 07/04/97 11:21 Page:203
     1633     5237
     1634     5238
     1635     5239                /*
     1636     5240                * Finally, deallocate the object
     1637     5241                * Make sure XUM's "chunk-size" word is within reasonable bounds
     1638     5242                */
     1639     5243
     1640     5244    1           NWORDS = OBJECT_HEADER.SIZE#;
     1641     5245    1           IF NWORDS = 0 THEN
     1642     5246    1              RETURN;  /* Object not owned or not dynamic: don't free */
     1643     5247    1           SBIN_WORD$ = PINCRW(ADDR(OBJECT_HEADER), -1);
     1644     5248    1           IF SBIN$WORD <= NWORDS
     1645     5249    2             OR SBIN$WORD > (NWORDS + 3 + %MNNW_DYN_STORAGE) THEN DO;
     1646     5250    2              CALL VDG$ESCREECH (NWORDS, SBIN$WORD);
     1647     5251    2              END;
     1648     5252
     1649     5253                /* Make sure the pointer points to one of our data segments */
     1650     5254    1           SEG_PTR2$ = VD_MCB_SMALL.SEGMENT_BASE$;
     1651     5255    1           IF SEG_PTR.SEGID = SEG_PTR2.SEGID THEN
     1652     5256    1              MCB$ = ADDR(VD_MCB_SMALL);
     1653     5257    2           ELSE DO;
     1654     5258    2              SEG_PTR2$ = VD_MCB_LARGE.SEGMENT_BASE$;
     1655     5259    2              IF SEG_PTR.SEGID = SEG_PTR2.SEGID THEN
     1656     5260    2                 MCB$ = ADDR(VD_MCB_LARGE);
     1657     5261    2              ELSE CALL VDG$ESCREECH;
     1658     5262    2              END;
     1659     5263    1           MCB.SIZE = NWORDS;
     1660     5264    1           MCB.ADDRESS$ = ADDR(OBJECT_HEADER);
     1661     5265    1           CALL X$DEALLOCATE (MCB) ALTRET (DEALLOCATE_FAILED);
     1662     5266    1           RETURN;
     1663     5267
     1664     5268
     1665     5269    1   DEALLOCATE_FAILED:
     1666     5270    1           ERR$HEAD.ERR.CODE# = %E$DEALLOCATE_FAILED;
     1667     5271    1           ERR$HEAD.FLAGLEV# = %FLV_FATAL;
     1668     5272    1           ALTRETURN;
     1669     5273
PL6.E3A0      #006=VDG$OFREE File=VDG$OBJECTS.:VDA5TSI                           FRI 07/04/97 11:21 Page:204
     1670     5274    1   OFREE_FAILED: ;
     1671     5275    1   OFREE_DCB_FAILED: ;
     1672     5276    1   OCLEAR_RANGE_FAILED: ;
     1673     5277    1   OCLEAR_LOCATION_FAILED: ;
     1674     5278    1           ALTRETURN;
     1675     5279
     1676     5280    1   END VDG$OFREE;
     1677     5281        %EOD;

PL6.E3A0      #006=VDG$OFREE File=VDG$OBJECTS.:VDA5TSI                           FRI 07/04/97 11:21 Page:205
--  Include file information  --

   XUM_MACRO_C.:LIBRARY  is referenced.
   VD_PERR_C.:VDA5TOU  is referenced.
   VD_MACROS_M.:VDA5TOU  is referenced.
   B$JIT_C.:E04TOU  was found in the system file and is never referenced.
   CP_6_C.:E04TOU  was found in the system file and is never referenced.
      No diagnostics issued in procedure VDG$OFREE.

   Procedure VDG$OFREE requires 999 words for executable code.
   Procedure VDG$OFREE requires 14 words of local(AUTO) storage.

PL6.E3A0      #006=VDG$OFREE File=VDG$OBJECTS.:VDA5TSI                           FRI 07/04/97 11:21 Page:206

 Object Unit name= VDG$OFREE                                  File name= VDG$OBJECTS.:VDA5TOU
 UTS= JUL 04 '97 11:21:55.04 FRI                              Compiler= PL-6/E31         Sev=      00
 SharedLib= :SHARED_SYSTEM                                    Alt SharedLib=


    ****  Control sections  ****

 Sect   Type Bound  Init  Size OctSiz  Section name(segment info)
    0   Proc  even  none   999   1747  VDG$OFREE
    1  RoData even  none     6      6  VDG$OFREE

    ****  Entry defs  ****

                              Check   Calling
                             calling  sequence
  Sect OctLoc Primary Altret sequence   type   Parms  Name
     0      0   yes    yes     yes      Std        1  VDG$OFREE

  ****  Entry refs  ****

         Check        Calling
        calling       sequence
Altret sequence SRef   type   Args  Name
         yes           Std       3 VDG$ESCREECH
 yes     yes           Std       1 VDG$OCLEAR_RANGE
 yes     yes           Std       1 X$DEALLOCATE
 yes     yes           Std       1 VDG$OCLEAR_LOCATION
 yes     yes           Std       1 VDG$OFREE_DCB
                       nStd      0 X66_AUTO_1
                       Std       0 B_CONSPOOL_D
                       nStd      0 X66_ARET
                       nStd      0 X66_AALT
PL6.E3A0      #006=VDG$OFREE File=VDG$OBJECTS.:VDA5TSI                           FRI 07/04/97 11:21 Page:207

  ****  Data refs  ****

  Flags:  r = read only, s = secondary
Flgs Name                             Flgs Name                             Flgs Name
     VD_6E                                 VD_OBJECTS                            VD_MCB_LARGE
     VD_MCB_SMALL                          B_VECTNIL

  ****  Segment refs  ****

  Flags:  r = read only, s = secondary
Flgs Name                             Flgs Name                             Flgs Name
     ISSID
PL6.E3A0      #006=VDG$OFREE File=VDG$OBJECTS.:VDA5TSI                           FRI 07/04/97 11:21 Page:208


     1226        1        /*T***********************************************************/
     1227        2        /*T*                                                         */
     1228        3        /*T* Copyright (c) Bull HN Information Systems Inc., 1997    */
     1229        4        /*T*                                                         */
     1230        5        /*T***********************************************************/
     1231        6
     1232        7        /*D* NAME: VDG$OFREE
     1233        8            PARAMETERS:
     1234        9                OBJECT_HEADER - Actual VD$OBJECT_HEADER (or any sub- or
     1235       10                    super-part thereof) in object to free.
     1236       11                    OBJECT_HEADER.SIZE# should contain # words allocated for
     1237       12                    object.  If the "object" doesn't reside in dynamic
     1238       13                    storage (eg, if it's one of initialization's constants
     1239       14                    or in someone's auto storage), then .SIZE# must be 0.
     1240       15            INPUT:
     1241       16                VD_MCB_LARGE - XUM$MCB for large-object heap.
     1242       17                VD_MCB_SMALL - XUM$MCB for small-object heap.
     1243       18                VD_OBJECTS - Info about object classes.
     1244       19            OUTPUT:
     1245       20                None.
     1246       21            DESCRIPTION:
     1247       22                Free any objects pointed-to by this object.
     1248       23                If OBJECT_HEADER is one of a set of specific object classes, pop
     1249       24                it from a predefined stack:
     1250       25                    Object:          Is popped from:
     1251       26                    -----------      ----------------------------
     1252       27                    %CLS_CMD_STREAM  VD_6E.CMD_STREAM$ (points to tail)
     1253       28                    %CLS_PORT        VD_6E.PORT_HEAD$/.PORT_TAIL$
     1254       29                    (%CLS_ERR is not popped 'cause it has no backward pointer,
     1255       30                    'cause VD$ERRs are never freed individually, just all-at-once
     1256       31                    after the error is reported, so they aren't really a stack.)
     1257       32                Calls X$DEALLOCATE to deallocate the object itself.
     1258       33        */
     1259       34
     1260       35        VDG$OFREE: PROC (OBJECT_HEADER) ALTRET;

PL6.E3A0      #006=VDG$OFREE File=VDG$OBJECTS.:VDA5TSI                           FRI 07/04/97 11:21 Page:209
     35  0 000000   000000 700200 xent  VDG$OFREE    TSX0  ! X66_AUTO_1
         0 000001   000016 000001                    ZERO    14,1

     1261       36
     1262       37
     1263       38        %INCLUDE VD_MACROS_M;
     1264     2253        %INCLUDE VD_PERR_C;
     1265     2401        %INCLUDE XUM_MACRO_C;
     1266     2428
     1267     2429
     1268     2430        %VD$OBJECT_HEADER (NAME=OBJECT_HEADER, STCLASS=PARAM);
     1269     2452
     1270     2453
     1271     2454    1   DCL VDG$OFREE_DCB       ENTRY (1) ALTRET;
     1272     2455    1   DCL VDG$OCLEAR_RANGE    ENTRY (1) ALTRET;
     1273     2456    1   DCL VDG$OCLEAR_LOCATION ENTRY (1) ALTRET;
     1274     2457    1   DCL X$DEALLOCATE        ENTRY (1) ALTRET;
     1275     2458    1   DCL VDG$ESCREECH        ENTRY (3);
     1276     2459
     1277     2460
     1278     2461        %VD_6E (STCLASS=SYMREF);
     1279     2497        %VD_OBJECTS (NAME=VD_OBJECTS, STCLASS=SYMREF);
     1280     2537        %XUM$MCB (NAME=VD_MCB_LARGE, STCLASS=SYMREF);
     1281     2541        %XUM$MCB (NAME=VD_MCB_SMALL, STCLASS=SYMREF);
     1282     2545
     1283     2546
     1284     2547    1   DCL MCB$ PTR;
     1285     2548    1   DCL NWORDS SBIN;
     1286     2549    1   DCL N_ENTRIES SBIN;
     1287     2550    1   DCL PTR$ PTR;
     1288     2551    1   DCL 1 SEG_PTR REDEF PTR$,
     1289     2552    1         2 * UBIN(24) UNAL,
     1290     2553    1         2 SEGID BIT(12) UNAL;
     1291     2554    1   DCL SEG_PTR2$ PTR;
     1292     2555    1   DCL 1 SEG_PTR2 REDEF SEG_PTR2$,
     1293     2556    1         2 * UBIN(24) UNAL,
     1294     2557    1         2 SEGID BIT(12) UNAL;
PL6.E3A0      #006=VDG$OFREE File=VDG$OBJECTS.:VDA5TSI                           FRI 07/04/97 11:21 Page:210
     1295     2558    1   DCL PTR2$ PTR;
     1296     2559    1   DCL I SBIN;
     1297     2560    1   DCL SBIN_WORD$ PTR;
     1298     2561
     1299     2562
     1300     2563        %XUM$MCB (NAME=MCB, STCLASS="BASED(MCB$)");
     1301     2567    1   DCL SBIN$WORD SBIN BASED(SBIN_WORD$);
     1302     2568        %VD$ERR (NAME=ERR$HEAD, STCLASS="BASED(VD_6E.ERR_HEAD$)");
     1303     2621        %VD$OBJECT_HEADER;
     1304     2643
     1305     2644        %VD$BLOCK_DESC (STCLASS="BASED(PTR$)");
     1306     2791        %VD$BUFFER (STCLASS="BASED(PTR$)");
     1307     2849        %VD$BUFFER_HEADER (STCLASS="BASED(PTR$)");
     1308     2885        %VD$CMD_STREAM (STCLASS="BASED(PTR$)");
     1309     2924        %VD$DIR_NODE (STCLASS="BASED(PTR$)");
     1310     2962        %VD$ENCODED_NODE (STCLASS="BASED(PTR$)");
     1311     3083        %VD$ERR (STCLASS="BASED(PTR$)");
     1312     3136        %VD$EVAL (STCLASS="BASED(PTR$)");
     1313     3381        %VD$EVAL_PATTERN (STCLASS="BASED(PTR$)");
     1314     3488        %VD$FILE_KEY (STCLASS="BASED(PTR$)");
     1315     3537        %VD$FILE_NODE (STCLASS="BASED(PTR$)");
     1316     3630        %VD$FIT (STCLASS="BASED(PTR$)");
     1317     3666        %VD$IT_ADJUST (STCLASS="BASED(PTR$)");
     1318     3703        %VD$IT_BLOCK_EXPR (STCLASS="BASED(PTR$)");
     1319     3853        %VD$IT_COMMAND (STCLASS="BASED(PTR$)");
     1320     3891        %VD$IT_OPERAND (STCLASS="BASED(PTR$)");
     1321     3957        %VD$IT_OPERATOR (STCLASS="BASED(PTR$)");
     1322     3994        %VD$IT_SELECT (STCLASS="BASED(PTR$)");
     1323     4031        %VD$NAME_SPEC (STCLASS="BASED(PTR$)");
     1324     4079        %VD$PATTERN (STCLASS="BASED(PTR$)");
     1325     4130        %VD$PORT (STCLASS="BASED(PTR$)");
     1326     4228        %VD$RECORD_SET (STCLASS="BASED(PTR$)");
     1327     4306        %VD$STREAM (STCLASS="BASED(PTR$)");
     1328     4412        %VD$STRING_HEADER (STCLASS="BASED(PTR$)");
     1329     4448        %VD$STRUCTURE_SPEC (STCLASS="BASED(PTR$)");
     1330     4485        %VD$TABS (STCLASS="BASED(PTR$)");
     1331     4522        %VD$TEXTC_REMOTE (STCLASS="BASED(PTR$)");
PL6.E3A0      #006=VDG$OFREE File=VDG$OBJECTS.:VDA5TSI                           FRI 07/04/97 11:21 Page:211
     1332     4583        %VD$WINDOW_BLOCK (STCLASS="BASED(PTR$)");
     1333     4620        %VD$WINDOW_SPEC (STCLASS="BASED(PTR$)");
     1334     4686        %VD$XLATE_LOCATIONS (STCLASS="BASED(PTR$)");
     1335     4822
     1336     4823
     1337     4824
     1338     4825    1   OFREE:
     1339     4826    1           PTR$ = ADDR(OBJECT_HEADER);

   4826  0 000002   200003 236100       OFREE        LDQ     @OBJECT_HEADER,,AUTO
         0 000003   200007 756100                    STQ     PTR$,,AUTO

     1340     4827    1           IF PTR$ = ADDR(NIL) THEN

   4827  0 000004   000001 116000 xsym               CMPQ    B_VECTNIL+1
         0 000005   000007 601000 0                  TNZ     s:4830

     1341     4828    1              RETURN;

   4828  0 000006   000000 702200 xent               TSX2  ! X66_ARET

     1342     4829
     1343     4830    1           IF OBJECT_HEADER.CLASS# >= %CLS_MX

   4830  0 000007   200003 470500                    LDP0    @OBJECT_HEADER,,AUTO
         0 000010   000000 220100                    LDX0    0,,PR0
         0 000011   000143 100003                    CMPX0   99,DU
         0 000012   000017 603000 0                  TRC     s:4832
         0 000013   000000 221100                    LDX1    0,,PR0
         0 000014   000000 021100                    ADLX1   0,,PR0
         0 000015   000000 222011 xsym               LDX2    VD_OBJECTS,X1
         0 000016   000023 605000 0                  TPL     s:4835

     1344     4831    2             OR VD_OBJECTS.SIZE (OBJECT_HEADER.CLASS#) < 0 THEN DO;

     1345     4832    2              CALL VDG$ESCREECH (OBJECT_HEADER);

PL6.E3A0      #006=VDG$OFREE File=VDG$OBJECTS.:VDA5TSI                           FRI 07/04/97 11:21 Page:212
   4832  0 000017   200003 630500                    EPPR0   @OBJECT_HEADER,,AUTO
         0 000020   000017 631400 xsym               EPPR1   B_VECTNIL+15
         0 000021   000000 701000 xent               TSX1    VDG$ESCREECH
         0 000022   000000 011000                    NOP     0

     1346     4833    2              END;

     1347     4834
     1348     4835    1           IF VD_OBJECTS.STR (OBJECT_HEADER.CLASS#)

   4835  0 000023   200003 470500                    LDP0    @OBJECT_HEADER,,AUTO
         0 000024   000000 220100                    LDX0    0,,PR0
         0 000025   000000 020100                    ADLX0   0,,PR0
         0 000026   000000 236010 xsym               LDQ     VD_OBJECTS,X0
         0 000027   040000 316007                    CANQ    16384,DL
         0 000030   000044 600000 0                  TZE     s:4839
         0 000031   200007 471500                    LDP1    PTR$,,AUTO
         0 000032   100001 236100                    LDQ     1,,PR1
         0 000033   000001 116000 xsym               CMPQ    B_VECTNIL+1
         0 000034   000044 600000 0                  TZE     s:4839

     1349     4836    1             AND VD$STRING_HEADER.FLINK$ ~= ADDR(NIL) THEN
     1350     4837    1              CALL VDG$OFREE (VD$STRING_HEADER.FLINK$->VD$STRING_HEADER)

   4837  0 000035   100001 473500                    LDP3    1,,PR1
         0 000036   200014 453500                    STP3    SBIN_WORD$+1,,AUTO
         0 000037   200014 630500                    EPPR0   SBIN_WORD$+1,,AUTO
         0 000040   000017 631400 xsym               EPPR1   B_VECTNIL+15
         0 000041   000000 701000 0                  TSX1    s:35
         0 000042   001746 702000 0                  TSX2    OFREE_FAILED
         0 000043   000061 710000 0                  TRA     s:4846

     1351     4838    1                ALTRET (OFREE_FAILED);
     1352     4839    1           ELSE IF VD_OBJECTS.BUF (OBJECT_HEADER.CLASS#)

   4839  0 000044   000000 236010 xsym               LDQ     VD_OBJECTS,X0
         0 000045   400000 316007                    CANQ    -131072,DL
PL6.E3A0      #006=VDG$OFREE File=VDG$OBJECTS.:VDA5TSI                           FRI 07/04/97 11:21 Page:213
         0 000046   000061 600000 0                  TZE     s:4846
         0 000047   200007 471500                    LDP1    PTR$,,AUTO
         0 000050   100001 236100                    LDQ     1,,PR1
         0 000051   000001 116000 xsym               CMPQ    B_VECTNIL+1
         0 000052   000061 600000 0                  TZE     s:4846

     1353     4840    2                AND VD$BUFFER_HEADER.FLINK$ ~= ADDR(NIL) THEN DO;

     1354     4841    2                 CALL VDG$OFREE (VD$BUFFER_HEADER.FLINK$->VD$BUFFER_HEADER)

   4841  0 000053   100001 473500                    LDP3    1,,PR1
         0 000054   200014 453500                    STP3    SBIN_WORD$+1,,AUTO
         0 000055   200014 630500                    EPPR0   SBIN_WORD$+1,,AUTO
         0 000056   000017 631400 xsym               EPPR1   B_VECTNIL+15
         0 000057   000000 701000 0                  TSX1    s:35
         0 000060   001746 702000 0                  TSX2    OFREE_FAILED

     1355     4842    2                   ALTRET (OFREE_FAILED);
     1356     4843    2                 END;

     1357     4844
     1358     4845                /* Do object-class-specific actions */
     1359     4846    2           DO CASE (OBJECT_HEADER.CLASS#);

   4846  0 000061   200003 470500                    LDP0    @OBJECT_HEADER,,AUTO
         0 000062   000000 220100                    LDX0    0,,PR0
         0 000063   000057 100003                    CMPX0   47,DU
         0 000064   000066 602010 0                  TNC     s:4846+5,X0
         0 000065   001644 710000 0                  TRA     s:5244
         0 000066   001644 710000 0                  TRA     s:5244
         0 000067   000145 710000 0                  TRA     s:4850
         0 000070   000201 710000 0                  TRA     s:4873
         0 000071   001644 710000 0                  TRA     s:5244
         0 000072   001644 710000 0                  TRA     s:5244
         0 000073   000230 710000 0                  TRA     s:4880
         0 000074   001644 710000 0                  TRA     s:5244
         0 000075   001644 710000 0                  TRA     s:5244
PL6.E3A0      #006=VDG$OFREE File=VDG$OBJECTS.:VDA5TSI                           FRI 07/04/97 11:21 Page:214
         0 000076   000257 710000 0                  TRA     s:4892
         0 000077   000304 710000 0                  TRA     s:4907
         0 000100   000345 710000 0                  TRA     s:4917
         0 000101   000360 710000 0                  TRA     s:4923
         0 000102   000406 710000 0                  TRA     s:4933
         0 000103   001644 710000 0                  TRA     s:5244
         0 000104   000416 710000 0                  TRA     s:4938
         0 000105   000431 710000 0                  TRA     s:4944
         0 000106   001644 710000 0                  TRA     s:5244
         0 000107   001644 710000 0                  TRA     s:5244
         0 000110   000524 710000 0                  TRA     s:4981
         0 000111   000551 710000 0                  TRA     s:4991
         0 000112   000624 710000 0                  TRA     s:5012
         0 000113   000657 710000 0                  TRA     s:5024
         0 000114   000704 710000 0                  TRA     s:5033
         0 000115   000743 710000 0                  TRA     s:5045
         0 000116   001644 710000 0                  TRA     s:5244
         0 000117   001644 710000 0                  TRA     s:5244
         0 000120   001644 710000 0                  TRA     s:5244
         0 000121   001644 710000 0                  TRA     s:5244
         0 000122   001644 710000 0                  TRA     s:5244
         0 000123   000770 710000 0                  TRA     s:5053
         0 000124   001644 710000 0                  TRA     s:5244
         0 000125   001054 710000 0                  TRA     s:5069
         0 000126   001644 710000 0                  TRA     s:5244
         0 000127   001644 710000 0                  TRA     s:5244
         0 000130   001644 710000 0                  TRA     s:5244
         0 000131   001644 710000 0                  TRA     s:5244
         0 000132   001644 710000 0                  TRA     s:5244
         0 000133   001644 710000 0                  TRA     s:5244
         0 000134   001175 710000 0                  TRA     s:5107
         0 000135   001244 710000 0                  TRA     s:5132
         0 000136   001644 710000 0                  TRA     s:5244
         0 000137   001302 710000 0                  TRA     s:5142
         0 000140   001644 710000 0                  TRA     s:5244
         0 000141   001644 710000 0                  TRA     s:5244
         0 000142   001315 710000 0                  TRA     s:5147
PL6.E3A0      #006=VDG$OFREE File=VDG$OBJECTS.:VDA5TSI                           FRI 07/04/97 11:21 Page:215
         0 000143   001342 710000 0                  TRA     s:5155
         0 000144   001463 710000 0                  TRA     s:5189

     1360     4847
     1361     4848    2            CASE (%CLS_BLOCK_BUFFER);

     1362     4849                   /* Don't free VD$BLOCK_DESC.OPTIONS.STRUCTURE$ */
     1363     4850    2              PTR2$ = PALIGNW(ADDR(VD$BUFFER.BYTES));

   4850  0 000145   200007 236100                    LDQ     PTR$,,AUTO
         0 000146   000000 036000 1                  ADLQ    0
         0 000147   770000 036007                    ADLQ    -4096,DL
         0 000150   000001 376000 1                  ANQ     1
         0 000151   200011 756100                    STQ     PTR2$,,AUTO

     1364     4851                   %CLEARKEY (KEY="PTR2$->VD$BLOCK_DESC.FILE_KEY");

   4858  0 000152   200011 471500                    LDP1    PTR2$,,AUTO
         0 000153   100001 721100                    LXL1    1,,PR1
         0 000154   000002 101003                    CMPX1   2,DU
         0 000155   000166 601000 0                  TNZ     s:4859+1

   4858  0 000156   100002 473500                    LDP3    2,,PR1
         0 000157   200014 453500                    STP3    SBIN_WORD$+1,,AUTO
         0 000160   200014 630500                    EPPR0   SBIN_WORD$+1,,AUTO
         0 000161   000017 631400 xsym               EPPR1   B_VECTNIL+15
         0 000162   000000 701000 0                  TSX1    s:35
         0 000163   000165 702000 0                  TSX2    s:4859
         0 000164   000166 710000 0                  TRA     s:4859+1

   4859  0 000165   000000 702200 xent               TSX2  ! X66_AALT

   4859  0 000166   200011 470500                    LDP0    PTR2$,,AUTO
         0 000167   000001 450100                    STZ     1,,PR0
         0 000170   000002 450100                    STZ     2,,PR0

     1365     4861    2              CALL VDG$OCLEAR_RANGE (PTR2$->VD$BLOCK_DESC.RANGE)
PL6.E3A0      #006=VDG$OFREE File=VDG$OBJECTS.:VDA5TSI                           FRI 07/04/97 11:21 Page:216

   4861  0 000171   200011 236100                    LDQ     PTR2$,,AUTO
         0 000172   000003 036003                    ADLQ    3,DU
         0 000173   200014 756100                    STQ     SBIN_WORD$+1,,AUTO
         0 000174   200014 630500                    EPPR0   SBIN_WORD$+1,,AUTO
         0 000175   000017 631400 xsym               EPPR1   B_VECTNIL+15
         0 000176   000000 701000 xent               TSX1    VDG$OCLEAR_RANGE
         0 000177   001746 702000 0                  TSX2    OFREE_FAILED
         0 000200   001644 710000 0                  TRA     s:5244

     1366     4862    2                ALTRET (OCLEAR_RANGE_FAILED);
     1367     4863
     1368     4864    2            CASE (%CLS_BLOCK_DESC);

     1369     4865                   /* Don't free VD$BLOCK_DESC.OPTIONS.STRUCTURE$ */
     1370     4866                   %CLEARKEY (KEY=VD$BLOCK_DESC.FILE_KEY);

   4873  0 000201   200007 471500                    LDP1    PTR$,,AUTO
         0 000202   100001 721100                    LXL1    1,,PR1
         0 000203   000002 101003                    CMPX1   2,DU
         0 000204   000215 601000 0                  TNZ     s:4874+1

   4873  0 000205   100002 473500                    LDP3    2,,PR1
         0 000206   200014 453500                    STP3    SBIN_WORD$+1,,AUTO
         0 000207   200014 630500                    EPPR0   SBIN_WORD$+1,,AUTO
         0 000210   000017 631400 xsym               EPPR1   B_VECTNIL+15
         0 000211   000000 701000 0                  TSX1    s:35
         0 000212   000214 702000 0                  TSX2    s:4874
         0 000213   000215 710000 0                  TRA     s:4874+1

   4874  0 000214   000000 702200 xent               TSX2  ! X66_AALT

   4874  0 000215   200007 470500                    LDP0    PTR$,,AUTO
         0 000216   000001 450100                    STZ     1,,PR0
         0 000217   000002 450100                    STZ     2,,PR0

     1371     4876    2              CALL VDG$OCLEAR_RANGE (VD$BLOCK_DESC.RANGE)
PL6.E3A0      #006=VDG$OFREE File=VDG$OBJECTS.:VDA5TSI                           FRI 07/04/97 11:21 Page:217

   4876  0 000220   200007 236100                    LDQ     PTR$,,AUTO
         0 000221   000003 036003                    ADLQ    3,DU
         0 000222   200014 756100                    STQ     SBIN_WORD$+1,,AUTO
         0 000223   200014 630500                    EPPR0   SBIN_WORD$+1,,AUTO
         0 000224   000017 631400 xsym               EPPR1   B_VECTNIL+15
         0 000225   000000 701000 xent               TSX1    VDG$OCLEAR_RANGE
         0 000226   001746 702000 0                  TSX2    OFREE_FAILED
         0 000227   001644 710000 0                  TRA     s:5244

     1372     4877    2                ALTRET (OCLEAR_RANGE_FAILED);
     1373     4878
     1374     4879    2            CASE (%CLS_CMD_STREAM);

     1375     4880    2              VD_6E.CMD_STREAM$ = VD$CMD_STREAM.BLINK$;

   4880  0 000230   200007 471500                    LDP1    PTR$,,AUTO
         0 000231   100001 236100                    LDQ     1,,PR1
         0 000232   000026 756000 xsym               STQ     VD_6E+22

     1376     4881                   /* Don't free VD$CMD_STREAM.BLINK$ */
     1377     4882    2              IF VD$CMD_STREAM.RECORD$ ~= ADDR(NIL) THEN

   4882  0 000233   100025 236100                    LDQ     21,,PR1
         0 000234   000001 116000 xsym               CMPQ    B_VECTNIL+1
         0 000235   000244 600000 0                  TZE     s:4885

     1378     4883    2                 CALL VDG$OFREE (VD$CMD_STREAM.RECORD$->VD$BUFFER)

   4883  0 000236   100025 473500                    LDP3    21,,PR1
         0 000237   200014 453500                    STP3    SBIN_WORD$+1,,AUTO
         0 000240   200014 630500                    EPPR0   SBIN_WORD$+1,,AUTO
         0 000241   000017 631400 xsym               EPPR1   B_VECTNIL+15
         0 000242   000000 701000 0                  TSX1    s:35
         0 000243   001746 702000 0                  TSX2    OFREE_FAILED

     1379     4884    2                   ALTRET (OFREE_FAILED);
PL6.E3A0      #006=VDG$OFREE File=VDG$OBJECTS.:VDA5TSI                           FRI 07/04/97 11:21 Page:218
     1380     4885    2              IF VD$CMD_STREAM.INTREE$ ~= ADDR(NIL) THEN

   4885  0 000244   200007 470500                    LDP0    PTR$,,AUTO
         0 000245   000026 236100                    LDQ     22,,PR0
         0 000246   000001 116000 xsym               CMPQ    B_VECTNIL+1
         0 000247   001644 600000 0                  TZE     s:5244

     1381     4886    2                 CALL VDG$OFREE (VD$CMD_STREAM.INTREE$->VD$IT_COMMAND)

   4886  0 000250   000026 471500                    LDP1    22,,PR0
         0 000251   200014 451500                    STP1    SBIN_WORD$+1,,AUTO
         0 000252   200014 630500                    EPPR0   SBIN_WORD$+1,,AUTO
         0 000253   000017 631400 xsym               EPPR1   B_VECTNIL+15
         0 000254   000000 701000 0                  TSX1    s:35
         0 000255   001746 702000 0                  TSX2    OFREE_FAILED
         0 000256   001644 710000 0                  TRA     s:5244

     1382     4887    2                   ALTRET (OFREE_FAILED);
     1383     4888
     1384     4889    2            CASE (%CLS_DIR_NODE);

     1385     4890                   /* Don't free VD$DIR_NODE.BLINK$ */
     1386     4891                   /* Don't free VD$DIR_NODE.STRUCTURE$ */
     1387     4892    2              IF VD$DIR_NODE.FLINK$ ~= ADDR(NIL) THEN

   4892  0 000257   200007 471500                    LDP1    PTR$,,AUTO
         0 000260   100002 236100                    LDQ     2,,PR1
         0 000261   000001 116000 xsym               CMPQ    B_VECTNIL+1
         0 000262   000271 600000 0                  TZE     s:4895

     1388     4893    2                 CALL VDG$OFREE (VD$DIR_NODE.FLINK$->VD$DIR_NODE)

   4893  0 000263   100002 473500                    LDP3    2,,PR1
         0 000264   200014 453500                    STP3    SBIN_WORD$+1,,AUTO
         0 000265   200014 630500                    EPPR0   SBIN_WORD$+1,,AUTO
         0 000266   000017 631400 xsym               EPPR1   B_VECTNIL+15
         0 000267   000000 701000 0                  TSX1    s:35
PL6.E3A0      #006=VDG$OFREE File=VDG$OBJECTS.:VDA5TSI                           FRI 07/04/97 11:21 Page:219
         0 000270   001746 702000 0                  TSX2    OFREE_FAILED

     1389     4894    2                   ALTRET (OFREE_FAILED);
     1390     4895    2              IF VD$DIR_NODE.HEAD$ ~= ADDR(NIL) THEN

   4895  0 000271   200007 470500                    LDP0    PTR$,,AUTO
         0 000272   000015 236100                    LDQ     13,,PR0
         0 000273   000001 116000 xsym               CMPQ    B_VECTNIL+1
         0 000274   001644 600000 0                  TZE     s:5244

     1391     4896    2                 CALL VDG$OFREE (VD$DIR_NODE.HEAD$->VD$FILE_NODE)

   4896  0 000275   000015 471500                    LDP1    13,,PR0
         0 000276   200014 451500                    STP1    SBIN_WORD$+1,,AUTO
         0 000277   200014 630500                    EPPR0   SBIN_WORD$+1,,AUTO
         0 000300   000017 631400 xsym               EPPR1   B_VECTNIL+15
         0 000301   000000 701000 0                  TSX1    s:35
         0 000302   001746 702000 0                  TSX2    OFREE_FAILED
         0 000303   001644 710000 0                  TRA     s:5244

     1392     4897    2                   ALTRET (OFREE_FAILED);
     1393     4898
     1394     4899    2            CASE (%CLS_ENCODED_NODE);

     1395     4900                   %CLEARKEY (KEY=VD$ENCODED_NODE.DESC.FILE_KEY);

   4907  0 000304   200007 471500                    LDP1    PTR$,,AUTO
         0 000305   100012 721100                    LXL1    10,,PR1
         0 000306   000002 101003                    CMPX1   2,DU
         0 000307   000320 601000 0                  TNZ     s:4908+1

   4907  0 000310   100013 473500                    LDP3    11,,PR1
         0 000311   200014 453500                    STP3    SBIN_WORD$+1,,AUTO
         0 000312   200014 630500                    EPPR0   SBIN_WORD$+1,,AUTO
         0 000313   000017 631400 xsym               EPPR1   B_VECTNIL+15
         0 000314   000000 701000 0                  TSX1    s:35
         0 000315   000317 702000 0                  TSX2    s:4908
PL6.E3A0      #006=VDG$OFREE File=VDG$OBJECTS.:VDA5TSI                           FRI 07/04/97 11:21 Page:220
         0 000316   000320 710000 0                  TRA     s:4908+1

   4908  0 000317   000000 702200 xent               TSX2  ! X66_AALT

   4908  0 000320   200007 470500                    LDP0    PTR$,,AUTO
         0 000321   000012 450100                    STZ     10,,PR0
         0 000322   000013 450100                    STZ     11,,PR0

     1396     4910    2              CALL VDG$OCLEAR_LOCATION (VD$ENCODED_NODE.DESC.LOCATION)

   4910  0 000323   200007 236100                    LDQ     PTR$,,AUTO
         0 000324   000014 036003                    ADLQ    12,DU
         0 000325   200014 756100                    STQ     SBIN_WORD$+1,,AUTO
         0 000326   200014 630500                    EPPR0   SBIN_WORD$+1,,AUTO
         0 000327   000017 631400 xsym               EPPR1   B_VECTNIL+15
         0 000330   000000 701000 xent               TSX1    VDG$OCLEAR_LOCATION
         0 000331   001746 702000 0                  TSX2    OFREE_FAILED

     1397     4911    2                ALTRET (OCLEAR_LOCATION_FAILED);
     1398     4912    2              IF VD$ENCODED_NODE.DESC.DATA$ ~= ADDR(NIL) THEN

   4912  0 000332   200007 470500                    LDP0    PTR$,,AUTO
         0 000333   000030 236100                    LDQ     24,,PR0
         0 000334   000001 116000 xsym               CMPQ    B_VECTNIL+1
         0 000335   001644 600000 0                  TZE     s:5244

     1399     4913    2                 CALL VDG$OFREE (VD$ENCODED_NODE.DESC.DATA$->VD$BUFFER)

   4913  0 000336   000030 471500                    LDP1    24,,PR0
         0 000337   200014 451500                    STP1    SBIN_WORD$+1,,AUTO
         0 000340   200014 630500                    EPPR0   SBIN_WORD$+1,,AUTO
         0 000341   000017 631400 xsym               EPPR1   B_VECTNIL+15
         0 000342   000000 701000 0                  TSX1    s:35
         0 000343   001746 702000 0                  TSX2    OFREE_FAILED
         0 000344   001644 710000 0                  TRA     s:5244

     1400     4914    2                   ALTRET (OFREE_FAILED);
PL6.E3A0      #006=VDG$OFREE File=VDG$OBJECTS.:VDA5TSI                           FRI 07/04/97 11:21 Page:221
     1401     4915
     1402     4916    2            CASE (%CLS_ERR);

     1403     4917    2              IF VD$ERR.FLINK$ ~= ADDR(NIL) THEN

   4917  0 000345   200007 471500                    LDP1    PTR$,,AUTO
         0 000346   100001 236100                    LDQ     1,,PR1
         0 000347   000001 116000 xsym               CMPQ    B_VECTNIL+1
         0 000350   001644 600000 0                  TZE     s:5244

     1404     4918    2                 CALL VDG$OFREE (VD$ERR.FLINK$->VD$ERR)

   4918  0 000351   100001 473500                    LDP3    1,,PR1
         0 000352   200014 453500                    STP3    SBIN_WORD$+1,,AUTO
         0 000353   200014 630500                    EPPR0   SBIN_WORD$+1,,AUTO
         0 000354   000017 631400 xsym               EPPR1   B_VECTNIL+15
         0 000355   000000 701000 0                  TSX1    s:35
         0 000356   001746 702000 0                  TSX2    OFREE_FAILED
         0 000357   001644 710000 0                  TRA     s:5244

     1405     4919    2                   ALTRET (OFREE_FAILED);
     1406     4920
     1407     4921    2            CASE (%CLS_EVAL);

     1408     4922                   /* Don't free VD$EVAL.BLINK$ */
     1409     4923    2              CALL VDG$OCLEAR_RANGE (VD$EVAL.ENCLOSING)

   4923  0 000360   200007 236100                    LDQ     PTR$,,AUTO
         0 000361   000002 036003                    ADLQ    2,DU
         0 000362   200014 756100                    STQ     SBIN_WORD$+1,,AUTO
         0 000363   200014 630500                    EPPR0   SBIN_WORD$+1,,AUTO
         0 000364   000017 631400 xsym               EPPR1   B_VECTNIL+15
         0 000365   000000 701000 xent               TSX1    VDG$OCLEAR_RANGE
         0 000366   001746 702000 0                  TSX2    OFREE_FAILED

     1410     4924    2                ALTRET (OCLEAR_RANGE_FAILED);
     1411     4925    2              CALL VDG$OCLEAR_RANGE (VD$EVAL.RANGE)
PL6.E3A0      #006=VDG$OFREE File=VDG$OBJECTS.:VDA5TSI                           FRI 07/04/97 11:21 Page:222

   4925  0 000367   200007 236100                    LDQ     PTR$,,AUTO
         0 000370   000024 036003                    ADLQ    20,DU
         0 000371   200014 756100                    STQ     SBIN_WORD$+1,,AUTO
         0 000372   200014 630500                    EPPR0   SBIN_WORD$+1,,AUTO
         0 000373   000017 631400 xsym               EPPR1   B_VECTNIL+15
         0 000374   000000 701000 xent               TSX1    VDG$OCLEAR_RANGE
         0 000375   001746 702000 0                  TSX2    OFREE_FAILED

     1412     4926    2                ALTRET (OCLEAR_RANGE_FAILED);
     1413     4927    2              CALL VDG$OCLEAR_RANGE (VD$EVAL.LAST_FOUND_RANGE)

   4927  0 000376   200007 236100                    LDQ     PTR$,,AUTO
         0 000377   000046 036003                    ADLQ    38,DU
         0 000400   200014 756100                    STQ     SBIN_WORD$+1,,AUTO
         0 000401   200014 630500                    EPPR0   SBIN_WORD$+1,,AUTO
         0 000402   000017 631400 xsym               EPPR1   B_VECTNIL+15
         0 000403   000000 701000 xent               TSX1    VDG$OCLEAR_RANGE
         0 000404   001746 702000 0                  TSX2    OFREE_FAILED
         0 000405   001644 710000 0                  TRA     s:5244

     1414     4928    2                ALTRET (OCLEAR_RANGE_FAILED);
     1415     4929                   /* Don't free VD$EVAL.NODE$ */
     1416     4930
     1417     4931    2            CASE (%CLS_EVAL_PATTERN);

     1418     4932                      /* Don't free VD$EVAL_PATTERN.BLINK$ */
     1419     4933    2              CALL VDG$OCLEAR_RANGE (VD$EVAL_PATTERN.RANGE)

   4933  0 000406   200007 236100                    LDQ     PTR$,,AUTO
         0 000407   000002 036003                    ADLQ    2,DU
         0 000410   200014 756100                    STQ     SBIN_WORD$+1,,AUTO
         0 000411   200014 630500                    EPPR0   SBIN_WORD$+1,,AUTO
         0 000412   000017 631400 xsym               EPPR1   B_VECTNIL+15
         0 000413   000000 701000 xent               TSX1    VDG$OCLEAR_RANGE
         0 000414   001746 702000 0                  TSX2    OFREE_FAILED
         0 000415   001644 710000 0                  TRA     s:5244
PL6.E3A0      #006=VDG$OFREE File=VDG$OBJECTS.:VDA5TSI                           FRI 07/04/97 11:21 Page:223

     1420     4934    2                ALTRET (OCLEAR_RANGE_FAILED);
     1421     4935                      /* Don't free VD$EVAL_PATTERN.PATTERN$ */
     1422     4936
     1423     4937    2            CASE (%CLS_FILE_KEY);

     1424     4938    2              IF VD$FILE_KEY.FLINK$ ~= ADDR(NIL) THEN

   4938  0 000416   200007 471500                    LDP1    PTR$,,AUTO
         0 000417   100001 236100                    LDQ     1,,PR1
         0 000420   000001 116000 xsym               CMPQ    B_VECTNIL+1
         0 000421   001644 600000 0                  TZE     s:5244

     1425     4939    2                 CALL VDG$OFREE (VD$FILE_KEY.FLINK$->VD$STRING_HEADER)

   4939  0 000422   100001 473500                    LDP3    1,,PR1
         0 000423   200014 453500                    STP3    SBIN_WORD$+1,,AUTO
         0 000424   200014 630500                    EPPR0   SBIN_WORD$+1,,AUTO
         0 000425   000017 631400 xsym               EPPR1   B_VECTNIL+15
         0 000426   000000 701000 0                  TSX1    s:35
         0 000427   001746 702000 0                  TSX2    OFREE_FAILED
         0 000430   001644 710000 0                  TRA     s:5244

     1426     4940    2                   ALTRET (OFREE_FAILED);
     1427     4941
     1428     4942    2            CASE (%CLS_FILE_NODE);

     1429     4943                   /* Don't free VD$FILE_NODE.BLINK$ */
     1430     4944    2              IF VD$FILE_NODE.FLINK$ ~= ADDR(NIL) THEN

   4944  0 000431   200007 471500                    LDP1    PTR$,,AUTO
         0 000432   100002 236100                    LDQ     2,,PR1
         0 000433   000001 116000 xsym               CMPQ    B_VECTNIL+1
         0 000434   000443 600000 0                  TZE     s:4954

     1431     4945    2                 CALL VDG$OFREE (VD$FILE_NODE.FLINK$->VD$FILE_NODE)

PL6.E3A0      #006=VDG$OFREE File=VDG$OBJECTS.:VDA5TSI                           FRI 07/04/97 11:21 Page:224
   4945  0 000435   100002 473500                    LDP3    2,,PR1
         0 000436   200014 453500                    STP3    SBIN_WORD$+1,,AUTO
         0 000437   200014 630500                    EPPR0   SBIN_WORD$+1,,AUTO
         0 000440   000017 631400 xsym               EPPR1   B_VECTNIL+15
         0 000441   000000 701000 0                  TSX1    s:35
         0 000442   001746 702000 0                  TSX2    OFREE_FAILED

     1432     4946    2                   ALTRET (OFREE_FAILED);
     1433     4947                   %CLEARKEY (KEY=VD$FILE_NODE.DESC.KEY);

   4954  0 000443   200007 470500                    LDP0    PTR$,,AUTO
         0 000444   000004 720100                    LXL0    4,,PR0
         0 000445   000002 100003                    CMPX0   2,DU
         0 000446   000457 601000 0                  TNZ     s:4955+1

   4954  0 000447   000005 471500                    LDP1    5,,PR0
         0 000450   200014 451500                    STP1    SBIN_WORD$+1,,AUTO
         0 000451   200014 630500                    EPPR0   SBIN_WORD$+1,,AUTO
         0 000452   000017 631400 xsym               EPPR1   B_VECTNIL+15
         0 000453   000000 701000 0                  TSX1    s:35
         0 000454   000456 702000 0                  TSX2    s:4955
         0 000455   000457 710000 0                  TRA     s:4955+1

   4955  0 000456   000000 702200 xent               TSX2  ! X66_AALT

   4955  0 000457   200007 470500                    LDP0    PTR$,,AUTO
         0 000460   000004 450100                    STZ     4,,PR0
         0 000461   000005 450100                    STZ     5,,PR0

     1434     4957                   %CLEARSPEC (SPEC=VD$FILE_NODE.DESC.SPEC);

   4964  0 000462   000006 720100                    LXL0    6,,PR0
         0 000463   000002 100003                    CMPX0   2,DU
         0 000464   000475 601000 0                  TNZ     s:4965+1

   4964  0 000465   000007 471500                    LDP1    7,,PR0
         0 000466   200014 451500                    STP1    SBIN_WORD$+1,,AUTO
PL6.E3A0      #006=VDG$OFREE File=VDG$OBJECTS.:VDA5TSI                           FRI 07/04/97 11:21 Page:225
         0 000467   200014 630500                    EPPR0   SBIN_WORD$+1,,AUTO
         0 000470   000017 631400 xsym               EPPR1   B_VECTNIL+15
         0 000471   000000 701000 0                  TSX1    s:35
         0 000472   000474 702000 0                  TSX2    s:4965
         0 000473   000475 710000 0                  TRA     s:4965+1

   4965  0 000474   000000 702200 xent               TSX2  ! X66_AALT

   4965  0 000475   200007 470500                    LDP0    PTR$,,AUTO
         0 000476   000006 450100                    STZ     6,,PR0
         0 000477   000007 450100                    STZ     7,,PR0

     1435     4967    2              IF VD$FILE_NODE.DESC.DATA$ ~= ADDR(NIL) THEN

   4967  0 000500   000010 236100                    LDQ     8,,PR0
         0 000501   000001 116000 xsym               CMPQ    B_VECTNIL+1
         0 000502   000511 600000 0                  TZE     s:4970

     1436     4968    2                 CALL VDG$OFREE (VD$FILE_NODE.DESC.DATA$->VD$BUFFER)

   4968  0 000503   000010 471500                    LDP1    8,,PR0
         0 000504   200014 451500                    STP1    SBIN_WORD$+1,,AUTO
         0 000505   200014 630500                    EPPR0   SBIN_WORD$+1,,AUTO
         0 000506   000017 631400 xsym               EPPR1   B_VECTNIL+15
         0 000507   000000 701000 0                  TSX1    s:35
         0 000510   001746 702000 0                  TSX2    OFREE_FAILED

     1437     4969    2                   ALTRET (OFREE_FAILED);
     1438     4970    2              IF VD$FILE_NODE.HEAD$ ~= ADDR(NIL) THEN

   4970  0 000511   200007 470500                    LDP0    PTR$,,AUTO
         0 000512   000012 236100                    LDQ     10,,PR0
         0 000513   000001 116000 xsym               CMPQ    B_VECTNIL+1
         0 000514   001644 600000 0                  TZE     s:5244

     1439     4971    2                 CALL VDG$OFREE (VD$FILE_NODE.HEAD$->VD$FILE_NODE)

PL6.E3A0      #006=VDG$OFREE File=VDG$OBJECTS.:VDA5TSI                           FRI 07/04/97 11:21 Page:226
   4971  0 000515   000012 471500                    LDP1    10,,PR0
         0 000516   200014 451500                    STP1    SBIN_WORD$+1,,AUTO
         0 000517   200014 630500                    EPPR0   SBIN_WORD$+1,,AUTO
         0 000520   000017 631400 xsym               EPPR1   B_VECTNIL+15
         0 000521   000000 701000 0                  TSX1    s:35
         0 000522   001746 702000 0                  TSX2    OFREE_FAILED
         0 000523   001644 710000 0                  TRA     s:5244

     1440     4972    2                   ALTRET (OFREE_FAILED);
     1441     4973
     1442     4974    2            CASE (%CLS_FIT);

     1443     4975                   /* Don't free VD$FIT.CODE2$ */
     1444     4976                   /* Don't free VD$FIT.CODE3$ */
     1445     4977    2              ;
     1446     4978
     1447     4979    2            CASE (%CLS_IT_ADJUST);

     1448     4980                   /* Don't free VD$IT_ADJUST.PARENT$ */
     1449     4981    2              IF VD$IT_ADJUST.FLINK$ ~= ADDR(NIL) THEN

   4981  0 000524   200007 471500                    LDP1    PTR$,,AUTO
         0 000525   100002 236100                    LDQ     2,,PR1
         0 000526   000001 116000 xsym               CMPQ    B_VECTNIL+1
         0 000527   000536 600000 0                  TZE     s:4984

     1450     4982    2                 CALL VDG$OFREE (VD$IT_ADJUST.FLINK$->VD$IT_ADJUST)

   4982  0 000530   100002 473500                    LDP3    2,,PR1
         0 000531   200014 453500                    STP3    SBIN_WORD$+1,,AUTO
         0 000532   200014 630500                    EPPR0   SBIN_WORD$+1,,AUTO
         0 000533   000017 631400 xsym               EPPR1   B_VECTNIL+15
         0 000534   000000 701000 0                  TSX1    s:35
         0 000535   001746 702000 0                  TSX2    OFREE_FAILED

     1451     4983    2                   ALTRET (OFREE_FAILED);
     1452     4984    2              IF VD$IT_ADJUST.MOVEMENTS$ ~= ADDR(NIL) THEN
PL6.E3A0      #006=VDG$OFREE File=VDG$OBJECTS.:VDA5TSI                           FRI 07/04/97 11:21 Page:227

   4984  0 000536   200007 470500                    LDP0    PTR$,,AUTO
         0 000537   000004 236100                    LDQ     4,,PR0
         0 000540   000001 116000 xsym               CMPQ    B_VECTNIL+1
         0 000541   001644 600000 0                  TZE     s:5244

     1453     4985    2                 CALL VDG$OFREE (VD$IT_ADJUST.MOVEMENTS$->VD$IT_OPERAND)

   4985  0 000542   000004 471500                    LDP1    4,,PR0
         0 000543   200014 451500                    STP1    SBIN_WORD$+1,,AUTO
         0 000544   200014 630500                    EPPR0   SBIN_WORD$+1,,AUTO
         0 000545   000017 631400 xsym               EPPR1   B_VECTNIL+15
         0 000546   000000 701000 0                  TSX1    s:35
         0 000547   001746 702000 0                  TSX2    OFREE_FAILED
         0 000550   001644 710000 0                  TRA     s:5244

     1454     4986    2                   ALTRET (OFREE_FAILED);
     1455     4987
     1456     4988    2            CASE (%CLS_IT_BLOCK_EXPR);

     1457     4989                   /* Don't free VD$IT_BLOCK_EXPR.PARENT$ */
     1458     4990                   /* Don't free VD$IT_BLOCK_EXPR.OPTIONS.STRUCTURE$ */
     1459     4991    2              IF VD$IT_BLOCK_EXPR.FLINK$ ~= ADDR(NIL) THEN

   4991  0 000551   200007 471500                    LDP1    PTR$,,AUTO
         0 000552   100002 236100                    LDQ     2,,PR1
         0 000553   000001 116000 xsym               CMPQ    B_VECTNIL+1
         0 000554   000563 600000 0                  TZE     s:5001

     1460     4992    2                 CALL VDG$OFREE (VD$IT_BLOCK_EXPR.FLINK$->VD$IT_BLOCK_EXPR)

   4992  0 000555   100002 473500                    LDP3    2,,PR1
         0 000556   200014 453500                    STP3    SBIN_WORD$+1,,AUTO
         0 000557   200014 630500                    EPPR0   SBIN_WORD$+1,,AUTO
         0 000560   000017 631400 xsym               EPPR1   B_VECTNIL+15
         0 000561   000000 701000 0                  TSX1    s:35
         0 000562   001746 702000 0                  TSX2    OFREE_FAILED
PL6.E3A0      #006=VDG$OFREE File=VDG$OBJECTS.:VDA5TSI                           FRI 07/04/97 11:21 Page:228

     1461     4993    2                   ALTRET (OFREE_FAILED);
     1462     4994                   %CLEARKEY (KEY=VD$IT_BLOCK_EXPR.DOMAINN.FILE_KEY);

   5001  0 000563   200007 470500                    LDP0    PTR$,,AUTO
         0 000564   000004 720100                    LXL0    4,,PR0
         0 000565   000002 100003                    CMPX0   2,DU
         0 000566   000577 601000 0                  TNZ     s:5002+1

   5001  0 000567   000005 471500                    LDP1    5,,PR0
         0 000570   200014 451500                    STP1    SBIN_WORD$+1,,AUTO
         0 000571   200014 630500                    EPPR0   SBIN_WORD$+1,,AUTO
         0 000572   000017 631400 xsym               EPPR1   B_VECTNIL+15
         0 000573   000000 701000 0                  TSX1    s:35
         0 000574   000576 702000 0                  TSX2    s:5002
         0 000575   000577 710000 0                  TRA     s:5002+1

   5002  0 000576   000000 702200 xent               TSX2  ! X66_AALT

   5002  0 000577   200007 470500                    LDP0    PTR$,,AUTO
         0 000600   000004 450100                    STZ     4,,PR0
         0 000601   000005 450100                    STZ     5,,PR0

     1463     5004    2              CALL VDG$OCLEAR_RANGE (VD$IT_BLOCK_EXPR.DOMAINN.RANGE)

   5004  0 000602   200007 236100                    LDQ     PTR$,,AUTO
         0 000603   000006 036003                    ADLQ    6,DU
         0 000604   200014 756100                    STQ     SBIN_WORD$+1,,AUTO
         0 000605   200014 630500                    EPPR0   SBIN_WORD$+1,,AUTO
         0 000606   000017 631400 xsym               EPPR1   B_VECTNIL+15
         0 000607   000000 701000 xent               TSX1    VDG$OCLEAR_RANGE
         0 000610   001746 702000 0                  TSX2    OFREE_FAILED

     1464     5005    2                ALTRET (OCLEAR_RANGE_FAILED);
     1465     5006    2              IF VD$IT_BLOCK_EXPR.SELECTS$ ~= ADDR(NIL) THEN

   5006  0 000611   200007 470500                    LDP0    PTR$,,AUTO
PL6.E3A0      #006=VDG$OFREE File=VDG$OBJECTS.:VDA5TSI                           FRI 07/04/97 11:21 Page:229
         0 000612   000035 236100                    LDQ     29,,PR0
         0 000613   000001 116000 xsym               CMPQ    B_VECTNIL+1
         0 000614   001644 600000 0                  TZE     s:5244

     1466     5007    2                 CALL VDG$OFREE (VD$IT_BLOCK_EXPR.SELECTS$->VD$IT_SELECT)

   5007  0 000615   000035 471500                    LDP1    29,,PR0
         0 000616   200014 451500                    STP1    SBIN_WORD$+1,,AUTO
         0 000617   200014 630500                    EPPR0   SBIN_WORD$+1,,AUTO
         0 000620   000017 631400 xsym               EPPR1   B_VECTNIL+15
         0 000621   000000 701000 0                  TSX1    s:35
         0 000622   001746 702000 0                  TSX2    OFREE_FAILED
         0 000623   001644 710000 0                  TRA     s:5244

     1467     5008    2                   ALTRET (OFREE_FAILED);
     1468     5009
     1469     5010    2            CASE (%CLS_IT_COMMAND);

     1470     5011                   /* Don't free VD$IT_COMMAND.PARENT$ */
     1471     5012    2              IF VD$IT_COMMAND.FLINK$ ~= ADDR(NIL) THEN

   5012  0 000624   200007 471500                    LDP1    PTR$,,AUTO
         0 000625   100002 236100                    LDQ     2,,PR1
         0 000626   000001 116000 xsym               CMPQ    B_VECTNIL+1
         0 000627   000636 600000 0                  TZE     s:5016

     1472     5013    2                 CALL VDG$OFREE (VD$IT_COMMAND.FLINK$->VD$IT_COMMAND)

   5013  0 000630   100002 473500                    LDP3    2,,PR1
         0 000631   200014 453500                    STP3    SBIN_WORD$+1,,AUTO
         0 000632   200014 630500                    EPPR0   SBIN_WORD$+1,,AUTO
         0 000633   000017 631400 xsym               EPPR1   B_VECTNIL+15
         0 000634   000000 701000 0                  TSX1    s:35
         0 000635   001746 702000 0                  TSX2    OFREE_FAILED

     1473     5014    2                   ALTRET (OFREE_FAILED);
     1474     5015                      /* Don't free .PT_BLOCK_EXPR$->:  VD$IT_COMMAND doesn't own it */
PL6.E3A0      #006=VDG$OFREE File=VDG$OBJECTS.:VDA5TSI                           FRI 07/04/97 11:21 Page:230
     1475     5016    3              DO I = 0 TO %(MX_COMMAND_PARAMS-1);

   5016  0 000636   200012 450100                    STZ     I,,AUTO

     1476     5017    3                 IF VD$IT_COMMAND.PARAM$ (I) ~= ADDR(NIL) THEN

   5017  0 000637   200007 470500                    LDP0    PTR$,,AUTO
         0 000640   200012 720100                    LXL0    I,,AUTO
         0 000641   000006 236110                    LDQ     6,X0,PR0
         0 000642   000001 116000 xsym               CMPQ    B_VECTNIL+1
         0 000643   000652 600000 0                  TZE     s:5020

     1477     5018    3                    CALL VDG$OFREE (VD$IT_COMMAND.PARAM$(I)->VD$OBJECT_HEADER)

   5018  0 000644   000006 471510                    LDP1    6,X0,PR0
         0 000645   200014 451500                    STP1    SBIN_WORD$+1,,AUTO
         0 000646   200014 630500                    EPPR0   SBIN_WORD$+1,,AUTO
         0 000647   000017 631400 xsym               EPPR1   B_VECTNIL+15
         0 000650   000000 701000 0                  TSX1    s:35
         0 000651   001746 702000 0                  TSX2    OFREE_FAILED

     1478     5019    3                      ALTRET (OFREE_FAILED);
     1479     5020    3                 END;

   5020  0 000652   200012 054100                    AOS     I,,AUTO
         0 000653   200012 235100                    LDA     I,,AUTO
         0 000654   000010 115007                    CMPA    8,DL
         0 000655   000637 604400 0                  TMOZ    s:5017
         0 000656   001644 710000 0                  TRA     s:5244

     1480     5021
     1481     5022    2            CASE (%CLS_IT_OPERAND);

     1482     5023                   /* Don't free VD$IT_OPERAND.PARENT$ */
     1483     5024    2              IF VD$IT_OPERAND.FLINK$ ~= ADDR(NIL) THEN

   5024  0 000657   200007 471500                    LDP1    PTR$,,AUTO
PL6.E3A0      #006=VDG$OFREE File=VDG$OBJECTS.:VDA5TSI                           FRI 07/04/97 11:21 Page:231
         0 000660   100002 236100                    LDQ     2,,PR1
         0 000661   000001 116000 xsym               CMPQ    B_VECTNIL+1
         0 000662   000671 600000 0                  TZE     s:5027

     1484     5025    2                 CALL VDG$OFREE (VD$IT_OPERAND.FLINK$->VD$IT_OPERAND)

   5025  0 000663   100002 473500                    LDP3    2,,PR1
         0 000664   200014 453500                    STP3    SBIN_WORD$+1,,AUTO
         0 000665   200014 630500                    EPPR0   SBIN_WORD$+1,,AUTO
         0 000666   000017 631400 xsym               EPPR1   B_VECTNIL+15
         0 000667   000000 701000 0                  TSX1    s:35
         0 000670   001746 702000 0                  TSX2    OFREE_FAILED

     1485     5026    2                   ALTRET (OFREE_FAILED);
     1486     5027    2              IF VD$IT_OPERAND.PARAM$ ~= ADDR(NIL) THEN

   5027  0 000671   200007 470500                    LDP0    PTR$,,AUTO
         0 000672   000010 236100                    LDQ     8,,PR0
         0 000673   000001 116000 xsym               CMPQ    B_VECTNIL+1
         0 000674   001644 600000 0                  TZE     s:5244

     1487     5028    2                 CALL VDG$OFREE (VD$IT_OPERAND.PARAM$->VD$OBJECT_HEADER)

   5028  0 000675   000010 471500                    LDP1    8,,PR0
         0 000676   200014 451500                    STP1    SBIN_WORD$+1,,AUTO
         0 000677   200014 630500                    EPPR0   SBIN_WORD$+1,,AUTO
         0 000700   000017 631400 xsym               EPPR1   B_VECTNIL+15
         0 000701   000000 701000 0                  TSX1    s:35
         0 000702   001746 702000 0                  TSX2    OFREE_FAILED
         0 000703   001644 710000 0                  TRA     s:5244

     1488     5029    2                   ALTRET (OFREE_FAILED);
     1489     5030
     1490     5031    2            CASE (%CLS_IT_OPERATOR);

     1491     5032                   /* Don't free VD$IT_OPERATOR.PARENT$ */
     1492     5033    2              IF VD$IT_OPERATOR.FLINK$ ~= ADDR(NIL) THEN
PL6.E3A0      #006=VDG$OFREE File=VDG$OBJECTS.:VDA5TSI                           FRI 07/04/97 11:21 Page:232

   5033  0 000704   200007 471500                    LDP1    PTR$,,AUTO
         0 000705   100002 236100                    LDQ     2,,PR1
         0 000706   000001 116000 xsym               CMPQ    B_VECTNIL+1
         0 000707   000716 600000 0                  TZE     s:5036

     1493     5034    2                 CALL VDG$OFREE (VD$IT_OPERATOR.FLINK$->VD$IT_OPERATOR)

   5034  0 000710   100002 473500                    LDP3    2,,PR1
         0 000711   200014 453500                    STP3    SBIN_WORD$+1,,AUTO
         0 000712   200014 630500                    EPPR0   SBIN_WORD$+1,,AUTO
         0 000713   000017 631400 xsym               EPPR1   B_VECTNIL+15
         0 000714   000000 701000 0                  TSX1    s:35
         0 000715   001746 702000 0                  TSX2    OFREE_FAILED

     1494     5035    2                   ALTRET (OFREE_FAILED);
     1495     5036    2              IF VD$IT_OPERATOR.OPERAND$ ~= ADDR(NIL) THEN

   5036  0 000716   200007 470500                    LDP0    PTR$,,AUTO
         0 000717   000004 236100                    LDQ     4,,PR0
         0 000720   000001 116000 xsym               CMPQ    B_VECTNIL+1
         0 000721   000730 600000 0                  TZE     s:5039

     1496     5037    2                 CALL VDG$OFREE (VD$IT_OPERATOR.OPERAND$->VD$IT_OPERAND)

   5037  0 000722   000004 471500                    LDP1    4,,PR0
         0 000723   200014 451500                    STP1    SBIN_WORD$+1,,AUTO
         0 000724   200014 630500                    EPPR0   SBIN_WORD$+1,,AUTO
         0 000725   000017 631400 xsym               EPPR1   B_VECTNIL+15
         0 000726   000000 701000 0                  TSX1    s:35
         0 000727   001746 702000 0                  TSX2    OFREE_FAILED

     1497     5038    2                   ALTRET (OFREE_FAILED);
     1498     5039    2              IF VD$IT_OPERATOR.R_OPERAND$ ~= ADDR(NIL) THEN

   5039  0 000730   200007 470500                    LDP0    PTR$,,AUTO
         0 000731   000005 236100                    LDQ     5,,PR0
PL6.E3A0      #006=VDG$OFREE File=VDG$OBJECTS.:VDA5TSI                           FRI 07/04/97 11:21 Page:233
         0 000732   000001 116000 xsym               CMPQ    B_VECTNIL+1
         0 000733   001644 600000 0                  TZE     s:5244

     1499     5040    2                 CALL VDG$OFREE (VD$IT_OPERATOR.R_OPERAND$->VD$IT_OPERAND)

   5040  0 000734   000005 471500                    LDP1    5,,PR0
         0 000735   200014 451500                    STP1    SBIN_WORD$+1,,AUTO
         0 000736   200014 630500                    EPPR0   SBIN_WORD$+1,,AUTO
         0 000737   000017 631400 xsym               EPPR1   B_VECTNIL+15
         0 000740   000000 701000 0                  TSX1    s:35
         0 000741   001746 702000 0                  TSX2    OFREE_FAILED
         0 000742   001644 710000 0                  TRA     s:5244

     1500     5041    2                   ALTRET (OFREE_FAILED);
     1501     5042
     1502     5043    2            CASE (%CLS_IT_SELECT);

     1503     5044                   /* Don't free VD$IT_SELECT.PARENT$ */
     1504     5045    2              IF VD$IT_SELECT.FLINK$ ~= ADDR(NIL) THEN

   5045  0 000743   200007 471500                    LDP1    PTR$,,AUTO
         0 000744   100002 236100                    LDQ     2,,PR1
         0 000745   000001 116000 xsym               CMPQ    B_VECTNIL+1
         0 000746   000755 600000 0                  TZE     s:5048

     1505     5046    2                 CALL VDG$OFREE (VD$IT_SELECT.FLINK$->VD$IT_SELECT)

   5046  0 000747   100002 473500                    LDP3    2,,PR1
         0 000750   200014 453500                    STP3    SBIN_WORD$+1,,AUTO
         0 000751   200014 630500                    EPPR0   SBIN_WORD$+1,,AUTO
         0 000752   000017 631400 xsym               EPPR1   B_VECTNIL+15
         0 000753   000000 701000 0                  TSX1    s:35
         0 000754   001746 702000 0                  TSX2    OFREE_FAILED

     1506     5047    2                   ALTRET (OFREE_FAILED);
     1507     5048    2              IF VD$IT_SELECT.ADJUSTS$ ~= ADDR(NIL) THEN

PL6.E3A0      #006=VDG$OFREE File=VDG$OBJECTS.:VDA5TSI                           FRI 07/04/97 11:21 Page:234
   5048  0 000755   200007 470500                    LDP0    PTR$,,AUTO
         0 000756   000004 236100                    LDQ     4,,PR0
         0 000757   000001 116000 xsym               CMPQ    B_VECTNIL+1
         0 000760   001644 600000 0                  TZE     s:5244

     1508     5049    2                 CALL VDG$OFREE (VD$IT_SELECT.ADJUSTS$->VD$IT_ADJUST)

   5049  0 000761   000004 471500                    LDP1    4,,PR0
         0 000762   200014 451500                    STP1    SBIN_WORD$+1,,AUTO
         0 000763   200014 630500                    EPPR0   SBIN_WORD$+1,,AUTO
         0 000764   000017 631400 xsym               EPPR1   B_VECTNIL+15
         0 000765   000000 701000 0                  TSX1    s:35
         0 000766   001746 702000 0                  TSX2    OFREE_FAILED
         0 000767   001644 710000 0                  TRA     s:5244

     1509     5050    2                   ALTRET (OFREE_FAILED);
     1510     5051
     1511     5052    2            CASE (%CLS_PATTERN);

     1512     5053    2              N_ENTRIES = (VD$PATTERN.OBJECT.SIZE# -

   5053  0 000770   200007 236100                    LDQ     PTR$,,AUTO
         0 000771   000003 036003                    ADLQ    3,DU
         0 000772   000022 772000                    QRL     18
         0 000773   200007 235100                    LDA     PTR$,,AUTO
         0 000774   000022 771000                    ARL     18
         0 000775   200014 755100                    STA     SBIN_WORD$+1,,AUTO
         0 000776   200014 136100                    SBLQ    SBIN_WORD$+1,,AUTO
         0 000777   200015 756100                    STQ     SBIN_WORD$+2,,AUTO
         0 001000   200007 471500                    LDP1    PTR$,,AUTO
         0 001001   100000 236100                    LDQ     0,,PR1
         0 001002   000022 736000                    QLS     18
         0 001003   000022 732000                    QRS     18
         0 001004   200015 136100                    SBLQ    SBIN_WORD$+2,,AUTO
         0 001005   000004 506007                    DIV     4,DL
         0 001006   200006 756100                    STQ     N_ENTRIES,,AUTO

PL6.E3A0      #006=VDG$OFREE File=VDG$OBJECTS.:VDA5TSI                           FRI 07/04/97 11:21 Page:235
     1513     5054    2                POFFW(ADDR(VD$PATTERN.ENTRIES), PTR$)) /
     1514     5055    2                SIZEW(VD$PATTERN.ENTRIES);
     1515     5056    2              IF N_ENTRIES ~= VD$PATTERN.MX_ENTRIES#

   5056  0 001007   100002 236100                    LDQ     2,,PR1
         0 001010   000022 736000                    QLS     18
         0 001011   000022 732000                    QRS     18
         0 001012   200006 116100                    CMPQ    N_ENTRIES,,AUTO
         0 001013   001020 601000 0                  TNZ     s:5058
         0 001014   100002 236100                    LDQ     2,,PR1
         0 001015   000022 732000                    QRS     18
         0 001016   200006 116100                    CMPQ    N_ENTRIES,,AUTO
         0 001017   001027 604400 0                  TMOZ    s:5059

     1516     5057    2                OR VD$PATTERN.N_ENTRIES# > N_ENTRIES THEN
     1517     5058    2                 CALL VDG$ESCREECH (VD$PATTERN.N_ENTRIES#);

   5058  0 001020   200007 236100                    LDQ     PTR$,,AUTO
         0 001021   000002 036003                    ADLQ    2,DU
         0 001022   200014 756100                    STQ     SBIN_WORD$+1,,AUTO
         0 001023   200014 630500                    EPPR0   SBIN_WORD$+1,,AUTO
         0 001024   000017 631400 xsym               EPPR1   B_VECTNIL+15
         0 001025   000000 701000 xent               TSX1    VDG$ESCREECH
         0 001026   000000 011000                    NOP     0

     1518     5059    3              DO I = 0 TO (VD$PATTERN.N_ENTRIES# - 1);

   5059  0 001027   200012 450100                    STZ     I,,AUTO
         0 001030   001046 710000 0                  TRA     s:5065+1

     1519     5060    4                 IF VD$PATTERN.ENTRIES.MATCH$ (I) ~= ADDR(NIL) THEN DO;

   5060  0 001031   200012 235100                    LDA     I,,AUTO
         0 001032   000002 735000                    ALS     2
         0 001033   200007 470500                    LDP0    PTR$,,AUTO
         0 001034   000006 236105                    LDQ     6,AL,PR0
         0 001035   000001 116000 xsym               CMPQ    B_VECTNIL+1
PL6.E3A0      #006=VDG$OFREE File=VDG$OBJECTS.:VDA5TSI                           FRI 07/04/97 11:21 Page:236
         0 001036   001045 600000 0                  TZE     s:5065

     1520     5061    4                    CALL VDG$OFREE (VD$PATTERN.ENTRIES.MATCH$ (I) ->

   5061  0 001037   000006 471505                    LDP1    6,AL,PR0
         0 001040   200014 451500                    STP1    SBIN_WORD$+1,,AUTO
         0 001041   200014 630500                    EPPR0   SBIN_WORD$+1,,AUTO
         0 001042   000017 631400 xsym               EPPR1   B_VECTNIL+15
         0 001043   000000 701000 0                  TSX1    s:35
         0 001044   001746 702000 0                  TSX2    OFREE_FAILED

     1521     5062    4                      VD$OBJECT_HEADER)
     1522     5063    4                      ALTRET (OFREE_FAILED);
     1523     5064    4                    END;

     1524     5065    3                 END;

   5065  0 001045   200012 054100                    AOS     I,,AUTO
         0 001046   200007 470500                    LDP0    PTR$,,AUTO
         0 001047   000002 236100                    LDQ     2,,PR0
         0 001050   000022 732000                    QRS     18
         0 001051   200012 116100                    CMPQ    I,,AUTO
         0 001052   001031 605400 0                  TPNZ    s:5060
         0 001053   001644 710000 0                  TRA     s:5244

     1525     5066
     1526     5067    2            CASE (%CLS_PORT);

     1527     5068                   /* Delink VD$PORT from doubly-linked chain */
     1528     5069    2              IF VD$PORT.BLINK$ = ADDR(NIL) THEN

   5069  0 001054   200007 471500                    LDP1    PTR$,,AUTO
         0 001055   100001 236100                    LDQ     1,,PR1
         0 001056   000001 116000 xsym               CMPQ    B_VECTNIL+1
         0 001057   001063 601000 0                  TNZ     s:5072

     1529     5070    2                 VD_6E.PORT_HEAD$ = VD$PORT.FLINK$;
PL6.E3A0      #006=VDG$OFREE File=VDG$OBJECTS.:VDA5TSI                           FRI 07/04/97 11:21 Page:237

   5070  0 001060   100002 236100                    LDQ     2,,PR1
         0 001061   000033 756000 xsym               STQ     VD_6E+27
         0 001062   001066 710000 0                  TRA     s:5073

     1530     5071    2              ELSE
     1531     5072    2                 VD$PORT.BLINK$->VD$PORT.FLINK$ = VD$PORT.FLINK$;

   5072  0 001063   100001 473500                    LDP3    1,,PR1
         0 001064   100002 236100                    LDQ     2,,PR1
         0 001065   300002 756100                    STQ     2,,PR3

     1532     5073    2              IF VD$PORT.FLINK$ = ADDR(NIL) THEN

   5073  0 001066   100002 236100                    LDQ     2,,PR1
         0 001067   000001 116000 xsym               CMPQ    B_VECTNIL+1
         0 001070   001074 601000 0                  TNZ     s:5076

     1533     5074    2                 VD_6E.PORT_TAIL$ = VD$PORT.BLINK$;

   5074  0 001071   100001 236100                    LDQ     1,,PR1
         0 001072   000034 756000 xsym               STQ     VD_6E+28
         0 001073   001077 710000 0                  TRA     s:5081

     1534     5075    2              ELSE
     1535     5076    2                 VD$PORT.FLINK$->VD$PORT.BLINK$ = VD$PORT.BLINK$;

   5076  0 001074   100002 473500                    LDP3    2,,PR1
         0 001075   100001 236100                    LDQ     1,,PR1
         0 001076   300001 756100                    STQ     1,,PR3

     1536     5077                   /* Don't free VD$PORT.BLINK$ */
     1537     5078                   /* Don't free VD$PORT.FLINK$ */
     1538     5079                   /* Don't free VD$PORT.STRUCTURE$ */
     1539     5080                   /* Don't free VD$PORT.LEVEL.INTERNAL$ */
     1540     5081    3              IF VD$PORT.DCB# ~= 0 THEN DO;

PL6.E3A0      #006=VDG$OFREE File=VDG$OBJECTS.:VDA5TSI                           FRI 07/04/97 11:21 Page:238
   5081  0 001077   100004 720100                    LXL0    4,,PR1
         0 001100   001110 600000 0                  TZE     s:5085

     1541     5082    3                 CALL VDG$OFREE_DCB (VD$PORT.DCB#)

   5082  0 001101   200007 236100                    LDQ     PTR$,,AUTO
         0 001102   000002 036000 1                  ADLQ    2
         0 001103   200014 756100                    STQ     SBIN_WORD$+1,,AUTO
         0 001104   200014 630500                    EPPR0   SBIN_WORD$+1,,AUTO
         0 001105   000017 631400 xsym               EPPR1   B_VECTNIL+15
         0 001106   000000 701000 xent               TSX1    VDG$OFREE_DCB
         0 001107   001746 702000 0                  TSX2    OFREE_FAILED

     1542     5083    3                   ALTRET (OFREE_DCB_FAILED);
     1543     5084    3                 END;

     1544     5085    2              IF VD$PORT.FIT$ ~= ADDR(NIL) THEN

   5085  0 001110   200007 470500                    LDP0    PTR$,,AUTO
         0 001111   000005 236100                    LDQ     5,,PR0
         0 001112   000001 116000 xsym               CMPQ    B_VECTNIL+1
         0 001113   001122 600000 0                  TZE     s:5095

     1545     5086    2                 CALL VDG$OFREE (VD$PORT.FIT$->VD$FIT)

   5086  0 001114   000005 471500                    LDP1    5,,PR0
         0 001115   200014 451500                    STP1    SBIN_WORD$+1,,AUTO
         0 001116   200014 630500                    EPPR0   SBIN_WORD$+1,,AUTO
         0 001117   000017 631400 xsym               EPPR1   B_VECTNIL+15
         0 001120   000000 701000 0                  TSX1    s:35
         0 001121   001746 702000 0                  TSX2    OFREE_FAILED

     1546     5087    2                   ALTRET (OFREE_FAILED);
     1547     5088                   %CLEARKEY (KEY=VD$PORT.FILE_KEY);

   5095  0 001122   200007 470500                    LDP0    PTR$,,AUTO
         0 001123   000010 720100                    LXL0    8,,PR0
PL6.E3A0      #006=VDG$OFREE File=VDG$OBJECTS.:VDA5TSI                           FRI 07/04/97 11:21 Page:239
         0 001124   000002 100003                    CMPX0   2,DU
         0 001125   001136 601000 0                  TNZ     s:5096+1

   5095  0 001126   000011 471500                    LDP1    9,,PR0
         0 001127   200014 451500                    STP1    SBIN_WORD$+1,,AUTO
         0 001130   200014 630500                    EPPR0   SBIN_WORD$+1,,AUTO
         0 001131   000017 631400 xsym               EPPR1   B_VECTNIL+15
         0 001132   000000 701000 0                  TSX1    s:35
         0 001133   001135 702000 0                  TSX2    s:5096
         0 001134   001136 710000 0                  TRA     s:5096+1

   5096  0 001135   000000 702200 xent               TSX2  ! X66_AALT

   5096  0 001136   200007 470500                    LDP0    PTR$,,AUTO
         0 001137   000010 450100                    STZ     8,,PR0
         0 001140   000011 450100                    STZ     9,,PR0

     1548     5098    2              CALL VDG$OCLEAR_LOCATION (VD$PORT.CURRENT)

   5098  0 001141   200007 236100                    LDQ     PTR$,,AUTO
         0 001142   000012 036003                    ADLQ    10,DU
         0 001143   200014 756100                    STQ     SBIN_WORD$+1,,AUTO
         0 001144   200014 630500                    EPPR0   SBIN_WORD$+1,,AUTO
         0 001145   000017 631400 xsym               EPPR1   B_VECTNIL+15
         0 001146   000000 701000 xent               TSX1    VDG$OCLEAR_LOCATION
         0 001147   001746 702000 0                  TSX2    OFREE_FAILED

     1549     5099    2                ALTRET (OCLEAR_LOCATION_FAILED);
     1550     5100    3              DO I = 0 TO %MX_ACCESS_LEVELS - 1;

   5100  0 001150   200012 450100                    STZ     I,,AUTO
         0 001151   001171 710000 0                  TRA     s:5104+1

     1551     5101    3                 IF VD$PORT.LEVEL.DATA$ (I) ~= ADDR(NIL) THEN

   5101  0 001152   200012 236100                    LDQ     I,,AUTO
         0 001153   000007 402007                    MPY     7,DL
PL6.E3A0      #006=VDG$OFREE File=VDG$OBJECTS.:VDA5TSI                           FRI 07/04/97 11:21 Page:240
         0 001154   200007 470500                    LDP0    PTR$,,AUTO
         0 001155   000027 236106                    LDQ     23,QL,PR0
         0 001156   000001 116000 xsym               CMPQ    B_VECTNIL+1
         0 001157   001170 600000 0                  TZE     s:5104

     1552     5102    3                    CALL VDG$OFREE (VD$PORT.LEVEL.DATA$ (I) -> VD$BUFFER)

   5102  0 001160   200012 236100                    LDQ     I,,AUTO
         0 001161   000007 402007                    MPY     7,DL
         0 001162   000027 471506                    LDP1    23,QL,PR0
         0 001163   200014 451500                    STP1    SBIN_WORD$+1,,AUTO
         0 001164   200014 630500                    EPPR0   SBIN_WORD$+1,,AUTO
         0 001165   000017 631400 xsym               EPPR1   B_VECTNIL+15
         0 001166   000000 701000 0                  TSX1    s:35
         0 001167   001746 702000 0                  TSX2    OFREE_FAILED

     1553     5103    3                      ALTRET (OFREE_FAILED);
     1554     5104    3                 END;

   5104  0 001170   200012 054100                    AOS     I,,AUTO
         0 001171   200012 235100                    LDA     I,,AUTO
         0 001172   000004 115007                    CMPA    4,DL
         0 001173   001152 604400 0                  TMOZ    s:5101
         0 001174   001644 710000 0                  TRA     s:5244

     1555     5105
     1556     5106    2            CASE (%CLS_RECORD_SET);

     1557     5107    3              DO I = 0 TO (VD$RECORD_SET.N_ENTRIES# - 1);

   5107  0 001175   200012 450100                    STZ     I,,AUTO
         0 001176   001236 710000 0                  TRA     s:5121+1

     1558     5108                      %CLEARKEY (KEY=VD$RECORD_SET.DESC.KEY, INDX=I);

   5115  0 001177   200012 236100                    LDQ     I,,AUTO
         0 001200   000006 402007                    MPY     6,DL
PL6.E3A0      #006=VDG$OFREE File=VDG$OBJECTS.:VDA5TSI                           FRI 07/04/97 11:21 Page:241
         0 001201   200007 470500                    LDP0    PTR$,,AUTO
         0 001202   000003 720106                    LXL0    3,QL,PR0
         0 001203   000002 100003                    CMPX0   2,DU
         0 001204   001215 601000 0                  TNZ     s:5116+1

   5115  0 001205   000004 471506                    LDP1    4,QL,PR0
         0 001206   200014 451500                    STP1    SBIN_WORD$+1,,AUTO
         0 001207   200014 630500                    EPPR0   SBIN_WORD$+1,,AUTO
         0 001210   000017 631400 xsym               EPPR1   B_VECTNIL+15
         0 001211   000000 701000 0                  TSX1    s:35
         0 001212   001214 702000 0                  TSX2    s:5116
         0 001213   001215 710000 0                  TRA     s:5116+1

   5116  0 001214   000000 702200 xent               TSX2  ! X66_AALT

   5116  0 001215   200012 236100                    LDQ     I,,AUTO
         0 001216   000006 402007                    MPY     6,DL
         0 001217   200007 470500                    LDP0    PTR$,,AUTO
         0 001220   000003 450106                    STZ     3,QL,PR0
         0 001221   000004 450106                    STZ     4,QL,PR0

     1559     5118    3                 IF VD$RECORD_SET.DESC.DATA$ (I) ~= ADDR(NIL) THEN

   5118  0 001222   000007 236106                    LDQ     7,QL,PR0
         0 001223   000001 116000 xsym               CMPQ    B_VECTNIL+1
         0 001224   001235 600000 0                  TZE     s:5121

     1560     5119    3                    CALL VDG$OFREE (VD$RECORD_SET.DESC.DATA$ (I) -> VD$BUFFER)

   5119  0 001225   200012 236100                    LDQ     I,,AUTO
         0 001226   000006 402007                    MPY     6,DL
         0 001227   000007 471506                    LDP1    7,QL,PR0
         0 001230   200014 451500                    STP1    SBIN_WORD$+1,,AUTO
         0 001231   200014 630500                    EPPR0   SBIN_WORD$+1,,AUTO
         0 001232   000017 631400 xsym               EPPR1   B_VECTNIL+15
         0 001233   000000 701000 0                  TSX1    s:35
         0 001234   001746 702000 0                  TSX2    OFREE_FAILED
PL6.E3A0      #006=VDG$OFREE File=VDG$OBJECTS.:VDA5TSI                           FRI 07/04/97 11:21 Page:242

     1561     5120    3                      ALTRET (OFREE_FAILED);
     1562     5121    3                 END;

   5121  0 001235   200012 054100                    AOS     I,,AUTO
         0 001236   200007 470500                    LDP0    PTR$,,AUTO
         0 001237   000002 236100                    LDQ     2,,PR0
         0 001240   000022 732000                    QRS     18
         0 001241   200012 116100                    CMPQ    I,,AUTO
         0 001242   001177 605400 0                  TPNZ    s:5115
         0 001243   001644 710000 0                  TRA     s:5244

     1563     5122
     1564     5123    2            CASE (%CLS_STREAM);

     1565     5124                   /* Don't free VD$STREAM.PORT$ */
     1566     5125                   %CLEARKEY (KEY=VD$STREAM.FILE_KEY);

   5132  0 001244   200007 471500                    LDP1    PTR$,,AUTO
         0 001245   100004 721100                    LXL1    4,,PR1
         0 001246   000002 101003                    CMPX1   2,DU
         0 001247   001260 601000 0                  TNZ     s:5133+1

   5132  0 001250   100005 473500                    LDP3    5,,PR1
         0 001251   200014 453500                    STP3    SBIN_WORD$+1,,AUTO
         0 001252   200014 630500                    EPPR0   SBIN_WORD$+1,,AUTO
         0 001253   000017 631400 xsym               EPPR1   B_VECTNIL+15
         0 001254   000000 701000 0                  TSX1    s:35
         0 001255   001257 702000 0                  TSX2    s:5133
         0 001256   001260 710000 0                  TRA     s:5133+1

   5133  0 001257   000000 702200 xent               TSX2  ! X66_AALT

   5133  0 001260   200007 470500                    LDP0    PTR$,,AUTO
         0 001261   000004 450100                    STZ     4,,PR0
         0 001262   000005 450100                    STZ     5,,PR0

PL6.E3A0      #006=VDG$OFREE File=VDG$OBJECTS.:VDA5TSI                           FRI 07/04/97 11:21 Page:243
     1567     5135    2              CALL VDG$OCLEAR_LOCATION (VD$STREAM.CURRENT)

   5135  0 001263   200007 236100                    LDQ     PTR$,,AUTO
         0 001264   000006 036003                    ADLQ    6,DU
         0 001265   200014 756100                    STQ     SBIN_WORD$+1,,AUTO
         0 001266   200014 630500                    EPPR0   SBIN_WORD$+1,,AUTO
         0 001267   000017 631400 xsym               EPPR1   B_VECTNIL+15
         0 001270   000000 701000 xent               TSX1    VDG$OCLEAR_LOCATION
         0 001271   001746 702000 0                  TSX2    OFREE_FAILED

     1568     5136    2                ALTRET (OCLEAR_LOCATION_FAILED);
     1569     5137    2              CALL VDG$OCLEAR_LOCATION (VD$STREAM.NEXT)

   5137  0 001272   200007 236100                    LDQ     PTR$,,AUTO
         0 001273   000017 036003                    ADLQ    15,DU
         0 001274   200014 756100                    STQ     SBIN_WORD$+1,,AUTO
         0 001275   200014 630500                    EPPR0   SBIN_WORD$+1,,AUTO
         0 001276   000017 631400 xsym               EPPR1   B_VECTNIL+15
         0 001277   000000 701000 xent               TSX1    VDG$OCLEAR_LOCATION
         0 001300   001746 702000 0                  TSX2    OFREE_FAILED
         0 001301   001644 710000 0                  TRA     s:5244

     1570     5138    2                ALTRET (OCLEAR_LOCATION_FAILED);
     1571     5139
     1572     5140    2            CASE (%CLS_STRUCTURE_SPEC);

     1573     5141                   /* Don't free VD$STRUCTURE_SPEC.ACCESSOR$ */
     1574     5142    2              IF VD$STRUCTURE_SPEC.FIT$ ~= ADDR(NIL) THEN

   5142  0 001302   200007 471500                    LDP1    PTR$,,AUTO
         0 001303   100004 236100                    LDQ     4,,PR1
         0 001304   000001 116000 xsym               CMPQ    B_VECTNIL+1
         0 001305   001644 600000 0                  TZE     s:5244

     1575     5143    2                 CALL VDG$OFREE (VD$STRUCTURE_SPEC.FIT$->VD$FIT)

   5143  0 001306   100004 473500                    LDP3    4,,PR1
PL6.E3A0      #006=VDG$OFREE File=VDG$OBJECTS.:VDA5TSI                           FRI 07/04/97 11:21 Page:244
         0 001307   200014 453500                    STP3    SBIN_WORD$+1,,AUTO
         0 001310   200014 630500                    EPPR0   SBIN_WORD$+1,,AUTO
         0 001311   000017 631400 xsym               EPPR1   B_VECTNIL+15
         0 001312   000000 701000 0                  TSX1    s:35
         0 001313   001746 702000 0                  TSX2    OFREE_FAILED
         0 001314   001644 710000 0                  TRA     s:5244

     1576     5144    2                   ALTRET (OFREE_FAILED);
     1577     5145
     1578     5146    2            CASE (%CLS_WINDOW_BLOCK);

     1579     5147    2              IF VD$WINDOW_BLOCK.EDIT_BLOCK$ ~= ADDR(NIL) THEN

   5147  0 001315   200007 471500                    LDP1    PTR$,,AUTO
         0 001316   100003 236100                    LDQ     3,,PR1
         0 001317   000001 116000 xsym               CMPQ    B_VECTNIL+1
         0 001320   001327 600000 0                  TZE     s:5150

     1580     5148    2                 CALL VDG$OFREE (VD$WINDOW_BLOCK.EDIT_BLOCK$->VD$BLOCK_DESC)

   5148  0 001321   100003 473500                    LDP3    3,,PR1
         0 001322   200014 453500                    STP3    SBIN_WORD$+1,,AUTO
         0 001323   200014 630500                    EPPR0   SBIN_WORD$+1,,AUTO
         0 001324   000017 631400 xsym               EPPR1   B_VECTNIL+15
         0 001325   000000 701000 0                  TSX1    s:35
         0 001326   001746 702000 0                  TSX2    OFREE_FAILED

     1581     5149    2                   ALTRET (OFREE_FAILED);
     1582     5150    2              IF VD$WINDOW_BLOCK.EVAL$ ~= ADDR(NIL) THEN

   5150  0 001327   200007 470500                    LDP0    PTR$,,AUTO
         0 001330   000004 236100                    LDQ     4,,PR0
         0 001331   000001 116000 xsym               CMPQ    B_VECTNIL+1
         0 001332   001644 600000 0                  TZE     s:5244

     1583     5151    2                 CALL VDG$OFREE (VD$WINDOW_BLOCK.EVAL$->VD$EVAL)

PL6.E3A0      #006=VDG$OFREE File=VDG$OBJECTS.:VDA5TSI                           FRI 07/04/97 11:21 Page:245
   5151  0 001333   000004 471500                    LDP1    4,,PR0
         0 001334   200014 451500                    STP1    SBIN_WORD$+1,,AUTO
         0 001335   200014 630500                    EPPR0   SBIN_WORD$+1,,AUTO
         0 001336   000017 631400 xsym               EPPR1   B_VECTNIL+15
         0 001337   000000 701000 0                  TSX1    s:35
         0 001340   001746 702000 0                  TSX2    OFREE_FAILED
         0 001341   001644 710000 0                  TRA     s:5244

     1584     5152    2                   ALTRET (OFREE_FAILED);
     1585     5153
     1586     5154    2            CASE (%CLS_WINDOW_SPEC);

     1587     5155    2              IF VD$WINDOW_SPEC.OPERAND.STREAM$ ~= ADDR(NIL) THEN

   5155  0 001342   200007 471500                    LDP1    PTR$,,AUTO
         0 001343   100010 236100                    LDQ     8,,PR1
         0 001344   000001 116000 xsym               CMPQ    B_VECTNIL+1
         0 001345   001354 600000 0                  TZE     s:5158

     1588     5156    2                 CALL VDG$OFREE (VD$WINDOW_SPEC.OPERAND.STREAM$->VD$STREAM)

   5156  0 001346   100010 473500                    LDP3    8,,PR1
         0 001347   200014 453500                    STP3    SBIN_WORD$+1,,AUTO
         0 001350   200014 630500                    EPPR0   SBIN_WORD$+1,,AUTO
         0 001351   000017 631400 xsym               EPPR1   B_VECTNIL+15
         0 001352   000000 701000 0                  TSX1    s:35
         0 001353   001746 702000 0                  TSX2    OFREE_FAILED

     1589     5157    2                   ALTRET (OFREE_FAILED);
     1590     5158    2              IF VD$WINDOW_SPEC.OPERAND.EDIT_BLOCK$ ~= ADDR(NIL) THEN

   5158  0 001354   200007 470500                    LDP0    PTR$,,AUTO
         0 001355   000012 236100                    LDQ     10,,PR0
         0 001356   000001 116000 xsym               CMPQ    B_VECTNIL+1
         0 001357   001366 600000 0                  TZE     s:5161

     1591     5159    2                 CALL VDG$OFREE (VD$WINDOW_SPEC.OPERAND.EDIT_BLOCK$->VD$BLOCK_DESC)
PL6.E3A0      #006=VDG$OFREE File=VDG$OBJECTS.:VDA5TSI                           FRI 07/04/97 11:21 Page:246

   5159  0 001360   000012 471500                    LDP1    10,,PR0
         0 001361   200014 451500                    STP1    SBIN_WORD$+1,,AUTO
         0 001362   200014 630500                    EPPR0   SBIN_WORD$+1,,AUTO
         0 001363   000017 631400 xsym               EPPR1   B_VECTNIL+15
         0 001364   000000 701000 0                  TSX1    s:35
         0 001365   001746 702000 0                  TSX2    OFREE_FAILED

     1592     5160    2                   ALTRET (OFREE_FAILED);
     1593     5161    2              IF VD$WINDOW_SPEC.OPERAND.EVAL$ ~= ADDR(NIL) THEN

   5161  0 001366   200007 470500                    LDP0    PTR$,,AUTO
         0 001367   000013 236100                    LDQ     11,,PR0
         0 001370   000001 116000 xsym               CMPQ    B_VECTNIL+1
         0 001371   001400 600000 0                  TZE     s:5164

     1594     5162    2                 CALL VDG$OFREE (VD$WINDOW_SPEC.OPERAND.EVAL$->VD$EVAL)

   5162  0 001372   000013 471500                    LDP1    11,,PR0
         0 001373   200014 451500                    STP1    SBIN_WORD$+1,,AUTO
         0 001374   200014 630500                    EPPR0   SBIN_WORD$+1,,AUTO
         0 001375   000017 631400 xsym               EPPR1   B_VECTNIL+15
         0 001376   000000 701000 0                  TSX1    s:35
         0 001377   001746 702000 0                  TSX2    OFREE_FAILED

     1595     5163    2                   ALTRET (OFREE_FAILED);
     1596     5164    2              IF VD$WINDOW_SPEC.OPERAND.INTREE$ ~= ADDR(NIL) THEN

   5164  0 001400   200007 470500                    LDP0    PTR$,,AUTO
         0 001401   000011 236100                    LDQ     9,,PR0
         0 001402   000001 116000 xsym               CMPQ    B_VECTNIL+1
         0 001403   001412 600000 0                  TZE     s:5167

     1597     5165    2                 CALL VDG$OFREE (VD$WINDOW_SPEC.OPERAND.INTREE$->VD$IT_BLOCK_EXPR)

   5165  0 001404   000011 471500                    LDP1    9,,PR0
         0 001405   200014 451500                    STP1    SBIN_WORD$+1,,AUTO
PL6.E3A0      #006=VDG$OFREE File=VDG$OBJECTS.:VDA5TSI                           FRI 07/04/97 11:21 Page:247
         0 001406   200014 630500                    EPPR0   SBIN_WORD$+1,,AUTO
         0 001407   000017 631400 xsym               EPPR1   B_VECTNIL+15
         0 001410   000000 701000 0                  TSX1    s:35
         0 001411   001746 702000 0                  TSX2    OFREE_FAILED

     1598     5166    2                   ALTRET (OFREE_FAILED);
     1599     5167    2              IF VD$WINDOW_SPEC.RECORD_SET$ ~= ADDR(NIL) THEN

   5167  0 001412   200007 470500                    LDP0    PTR$,,AUTO
         0 001413   000016 236100                    LDQ     14,,PR0
         0 001414   000001 116000 xsym               CMPQ    B_VECTNIL+1
         0 001415   001424 600000 0                  TZE     s:5170

     1600     5168    2                 CALL VDG$OFREE (VD$WINDOW_SPEC.RECORD_SET$->VD$RECORD_SET)

   5168  0 001416   000016 471500                    LDP1    14,,PR0
         0 001417   200014 451500                    STP1    SBIN_WORD$+1,,AUTO
         0 001420   200014 630500                    EPPR0   SBIN_WORD$+1,,AUTO
         0 001421   000017 631400 xsym               EPPR1   B_VECTNIL+15
         0 001422   000000 701000 0                  TSX1    s:35
         0 001423   001746 702000 0                  TSX2    OFREE_FAILED

     1601     5169    2                   ALTRET (OFREE_FAILED);
     1602     5170    2              IF VD$WINDOW_SPEC.EOFMARK$ ~= ADDR(NIL) THEN

   5170  0 001424   200007 470500                    LDP0    PTR$,,AUTO
         0 001425   000025 236100                    LDQ     21,,PR0
         0 001426   000001 116000 xsym               CMPQ    B_VECTNIL+1
         0 001427   001436 600000 0                  TZE     s:5173

     1603     5171    2                 CALL VDG$OFREE (VD$WINDOW_SPEC.EOFMARK$->VD$BUFFER)

   5171  0 001430   000025 471500                    LDP1    21,,PR0
         0 001431   200014 451500                    STP1    SBIN_WORD$+1,,AUTO
         0 001432   200014 630500                    EPPR0   SBIN_WORD$+1,,AUTO
         0 001433   000017 631400 xsym               EPPR1   B_VECTNIL+15
         0 001434   000000 701000 0                  TSX1    s:35
PL6.E3A0      #006=VDG$OFREE File=VDG$OBJECTS.:VDA5TSI                           FRI 07/04/97 11:21 Page:248
         0 001435   001746 702000 0                  TSX2    OFREE_FAILED

     1604     5172    2                   ALTRET (OFREE_FAILED);
     1605     5173    2              IF VD$WINDOW_SPEC.TABS$ ~= ADDR(NIL) THEN

   5173  0 001436   200007 470500                    LDP0    PTR$,,AUTO
         0 001437   000024 236100                    LDQ     20,,PR0
         0 001440   000001 116000 xsym               CMPQ    B_VECTNIL+1
         0 001441   001450 600000 0                  TZE     s:5176

     1606     5174    2                 CALL VDG$OFREE (VD$WINDOW_SPEC.TABS$->VD$TABS)

   5174  0 001442   000024 471500                    LDP1    20,,PR0
         0 001443   200014 451500                    STP1    SBIN_WORD$+1,,AUTO
         0 001444   200014 630500                    EPPR0   SBIN_WORD$+1,,AUTO
         0 001445   000017 631400 xsym               EPPR1   B_VECTNIL+15
         0 001446   000000 701000 0                  TSX1    s:35
         0 001447   001746 702000 0                  TSX2    OFREE_FAILED

     1607     5175    2                   ALTRET (OFREE_FAILED);
     1608     5176    2              IF VD$WINDOW_SPEC.KEY_DEFINITION_BUFFER$ ~= ADDR(NIL) THEN

   5176  0 001450   200007 470500                    LDP0    PTR$,,AUTO
         0 001451   000030 236100                    LDQ     24,,PR0
         0 001452   000001 116000 xsym               CMPQ    B_VECTNIL+1
         0 001453   001644 600000 0                  TZE     s:5244

     1609     5177    2                 CALL VDG$OFREE (VD$WINDOW_SPEC.KEY_DEFINITION_BUFFER$ ->

   5177  0 001454   000030 471500                    LDP1    24,,PR0
         0 001455   200014 451500                    STP1    SBIN_WORD$+1,,AUTO
         0 001456   200014 630500                    EPPR0   SBIN_WORD$+1,,AUTO
         0 001457   000017 631400 xsym               EPPR1   B_VECTNIL+15
         0 001460   000000 701000 0                  TSX1    s:35
         0 001461   001746 702000 0                  TSX2    OFREE_FAILED
         0 001462   001644 710000 0                  TRA     s:5244

PL6.E3A0      #006=VDG$OFREE File=VDG$OBJECTS.:VDA5TSI                           FRI 07/04/97 11:21 Page:249
     1610     5178    2                   VD$BUFFER)
     1611     5179    2                   ALTRET (OFREE_FAILED);
     1612     5180
     1613     5181    2            CASE (%CLS_XLATE_LOCATIONS);

     1614     5182                   %CLEARKEY (KEY=VD$XLATE_LOCATIONS.FILE_KEY);

   5189  0 001463   200007 471500                    LDP1    PTR$,,AUTO
         0 001464   100003 721100                    LXL1    3,,PR1
         0 001465   000002 101003                    CMPX1   2,DU
         0 001466   001477 601000 0                  TNZ     s:5190+1

   5189  0 001467   100004 473500                    LDP3    4,,PR1
         0 001470   200014 453500                    STP3    SBIN_WORD$+1,,AUTO
         0 001471   200014 630500                    EPPR0   SBIN_WORD$+1,,AUTO
         0 001472   000017 631400 xsym               EPPR1   B_VECTNIL+15
         0 001473   000000 701000 0                  TSX1    s:35
         0 001474   001476 702000 0                  TSX2    s:5190
         0 001475   001477 710000 0                  TRA     s:5190+1

   5190  0 001476   000000 702200 xent               TSX2  ! X66_AALT

   5190  0 001477   200007 470500                    LDP0    PTR$,,AUTO
         0 001500   000003 450100                    STZ     3,,PR0
         0 001501   000004 450100                    STZ     4,,PR0

     1615     5192    2              CALL VDG$OCLEAR_LOCATION (VD$XLATE_LOCATIONS.PREFIX)

   5192  0 001502   200007 236100                    LDQ     PTR$,,AUTO
         0 001503   000006 036003                    ADLQ    6,DU
         0 001504   200014 756100                    STQ     SBIN_WORD$+1,,AUTO
         0 001505   200014 630500                    EPPR0   SBIN_WORD$+1,,AUTO
         0 001506   000017 631400 xsym               EPPR1   B_VECTNIL+15
         0 001507   000000 701000 xent               TSX1    VDG$OCLEAR_LOCATION
         0 001510   001746 702000 0                  TSX2    OFREE_FAILED

     1616     5193    2                ALTRET (OCLEAR_LOCATION_FAILED);
PL6.E3A0      #006=VDG$OFREE File=VDG$OBJECTS.:VDA5TSI                           FRI 07/04/97 11:21 Page:250
     1617     5194
     1618     5195    2              N_ENTRIES = (VD$XLATE_LOCATIONS.OBJECT.SIZE# -

   5195  0 001511   200007 236100                    LDQ     PTR$,,AUTO
         0 001512   000017 036003                    ADLQ    15,DU
         0 001513   000022 772000                    QRL     18
         0 001514   200007 235100                    LDA     PTR$,,AUTO
         0 001515   000022 771000                    ARL     18
         0 001516   200014 755100                    STA     SBIN_WORD$+1,,AUTO
         0 001517   200014 136100                    SBLQ    SBIN_WORD$+1,,AUTO
         0 001520   200015 756100                    STQ     SBIN_WORD$+2,,AUTO
         0 001521   200007 470500                    LDP0    PTR$,,AUTO
         0 001522   000000 236100                    LDQ     0,,PR0
         0 001523   000022 736000                    QLS     18
         0 001524   000022 732000                    QRS     18
         0 001525   200015 136100                    SBLQ    SBIN_WORD$+2,,AUTO
         0 001526   000010 506007                    DIV     8,DL
         0 001527   200006 756100                    STQ     N_ENTRIES,,AUTO

     1619     5196    2                POFFW(ADDR(VD$XLATE_LOCATIONS.XLATES), PTR$)) /
     1620     5197    2                SIZEW(VD$XLATE_LOCATIONS.XLATES);
     1621     5198    2              IF N_ENTRIES ~= VD$XLATE_LOCATIONS.MX_ENTRIES#

   5198  0 001530   000001 236100                    LDQ     1,,PR0
         0 001531   000022 736000                    QLS     18
         0 001532   000022 732000                    QRS     18
         0 001533   200006 116100                    CMPQ    N_ENTRIES,,AUTO
         0 001534   001541 601000 0                  TNZ     s:5200
         0 001535   000001 236100                    LDQ     1,,PR0
         0 001536   000022 732000                    QRS     18
         0 001537   200006 116100                    CMPQ    N_ENTRIES,,AUTO
         0 001540   001550 604400 0                  TMOZ    s:5201

     1622     5199    2                OR VD$XLATE_LOCATIONS.N_ENTRIES# > N_ENTRIES THEN
     1623     5200    2                 CALL VDG$ESCREECH (VD$XLATE_LOCATIONS.N_ENTRIES#);

   5200  0 001541   200007 236100                    LDQ     PTR$,,AUTO
PL6.E3A0      #006=VDG$OFREE File=VDG$OBJECTS.:VDA5TSI                           FRI 07/04/97 11:21 Page:251
         0 001542   000001 036003                    ADLQ    1,DU
         0 001543   200014 756100                    STQ     SBIN_WORD$+1,,AUTO
         0 001544   200014 630500                    EPPR0   SBIN_WORD$+1,,AUTO
         0 001545   000017 631400 xsym               EPPR1   B_VECTNIL+15
         0 001546   000000 701000 xent               TSX1    VDG$ESCREECH
         0 001547   000000 011000                    NOP     0

     1624     5201    3              DO I = 0 TO (VD$XLATE_LOCATIONS.N_ENTRIES# - 1);

   5201  0 001550   200012 450100                    STZ     I,,AUTO
         0 001551   001636 710000 0                  TRA     s:5232+1

     1625     5202                      %CLEARKEY (KEY=VD$XLATE_LOCATIONS.XLATES.OLD_KEY_LO, INDX=I);

   5209  0 001552   200012 235100                    LDA     I,,AUTO
         0 001553   000003 735000                    ALS     3
         0 001554   200007 470500                    LDP0    PTR$,,AUTO
         0 001555   000017 720105                    LXL0    15,AL,PR0
         0 001556   000002 100003                    CMPX0   2,DU
         0 001557   001570 601000 0                  TNZ     s:5210+1

   5209  0 001560   000020 471505                    LDP1    16,AL,PR0
         0 001561   200014 451500                    STP1    SBIN_WORD$+1,,AUTO
         0 001562   200014 630500                    EPPR0   SBIN_WORD$+1,,AUTO
         0 001563   000017 631400 xsym               EPPR1   B_VECTNIL+15
         0 001564   000000 701000 0                  TSX1    s:35
         0 001565   001567 702000 0                  TSX2    s:5210
         0 001566   001570 710000 0                  TRA     s:5210+1

   5210  0 001567   000000 702200 xent               TSX2  ! X66_AALT

   5210  0 001570   200012 235100                    LDA     I,,AUTO
         0 001571   000003 735000                    ALS     3
         0 001572   200007 470500                    LDP0    PTR$,,AUTO
         0 001573   000017 450105                    STZ     15,AL,PR0
         0 001574   000020 450105                    STZ     16,AL,PR0

PL6.E3A0      #006=VDG$OFREE File=VDG$OBJECTS.:VDA5TSI                           FRI 07/04/97 11:21 Page:252
     1626     5212                      %CLEARKEY (KEY=VD$XLATE_LOCATIONS.XLATES.OLD_KEY_HI, INDX=I);

   5219  0 001575   000021 720105                    LXL0    17,AL,PR0
         0 001576   000002 100003                    CMPX0   2,DU
         0 001577   001610 601000 0                  TNZ     s:5220+1

   5219  0 001600   000022 471505                    LDP1    18,AL,PR0
         0 001601   200014 451500                    STP1    SBIN_WORD$+1,,AUTO
         0 001602   200014 630500                    EPPR0   SBIN_WORD$+1,,AUTO
         0 001603   000017 631400 xsym               EPPR1   B_VECTNIL+15
         0 001604   000000 701000 0                  TSX1    s:35
         0 001605   001607 702000 0                  TSX2    s:5220
         0 001606   001610 710000 0                  TRA     s:5220+1

   5220  0 001607   000000 702200 xent               TSX2  ! X66_AALT

   5220  0 001610   200012 235100                    LDA     I,,AUTO
         0 001611   000003 735000                    ALS     3
         0 001612   200007 470500                    LDP0    PTR$,,AUTO
         0 001613   000021 450105                    STZ     17,AL,PR0
         0 001614   000022 450105                    STZ     18,AL,PR0

     1627     5222                      %CLEARKEY (KEY=VD$XLATE_LOCATIONS.XLATES.NEW_KEY, INDX=I);

   5229  0 001615   000024 720105                    LXL0    20,AL,PR0
         0 001616   000002 100003                    CMPX0   2,DU
         0 001617   001630 601000 0                  TNZ     s:5230+1

   5229  0 001620   000025 471505                    LDP1    21,AL,PR0
         0 001621   200014 451500                    STP1    SBIN_WORD$+1,,AUTO
         0 001622   200014 630500                    EPPR0   SBIN_WORD$+1,,AUTO
         0 001623   000017 631400 xsym               EPPR1   B_VECTNIL+15
         0 001624   000000 701000 0                  TSX1    s:35
         0 001625   001627 702000 0                  TSX2    s:5230
         0 001626   001630 710000 0                  TRA     s:5230+1

   5230  0 001627   000000 702200 xent               TSX2  ! X66_AALT
PL6.E3A0      #006=VDG$OFREE File=VDG$OBJECTS.:VDA5TSI                           FRI 07/04/97 11:21 Page:253

   5230  0 001630   200012 235100                    LDA     I,,AUTO
         0 001631   000003 735000                    ALS     3
         0 001632   200007 470500                    LDP0    PTR$,,AUTO
         0 001633   000024 450105                    STZ     20,AL,PR0
         0 001634   000025 450105                    STZ     21,AL,PR0

     1628     5232    3                 END;

   5232  0 001635   200012 054100                    AOS     I,,AUTO
         0 001636   200007 470500                    LDP0    PTR$,,AUTO
         0 001637   000001 236100                    LDQ     1,,PR0
         0 001640   000022 732000                    QRS     18
         0 001641   200012 116100                    CMPQ    I,,AUTO
         0 001642   001552 605400 0                  TPNZ    s:5209
         0 001643   001644 710000 0                  TRA     s:5244

     1629     5233
     1630     5234    2            CASE (ELSE);

     1631     5235    2              ; /* No special handling for other objects */
     1632     5236    2            END;

     1633     5237
     1634     5238
     1635     5239                /*
     1636     5240                * Finally, deallocate the object
     1637     5241                * Make sure XUM's "chunk-size" word is within reasonable bounds
     1638     5242                */
     1639     5243
     1640     5244    1           NWORDS = OBJECT_HEADER.SIZE#;

   5244  0 001644   200003 470500                    LDP0    @OBJECT_HEADER,,AUTO
         0 001645   000000 236100                    LDQ     0,,PR0
         0 001646   000022 736000                    QLS     18
         0 001647   000022 732000                    QRS     18
         0 001650   200005 756100                    STQ     NWORDS,,AUTO
PL6.E3A0      #006=VDG$OFREE File=VDG$OBJECTS.:VDA5TSI                           FRI 07/04/97 11:21 Page:254

     1641     5245    1           IF NWORDS = 0 THEN

   5245  0 001651   001653 601000 0                  TNZ     s:5247

     1642     5246    1              RETURN;  /* Object not owned or not dynamic: don't free */

   5246  0 001652   000000 702200 xent               TSX2  ! X66_ARET

     1643     5247    1           SBIN_WORD$ = PINCRW(ADDR(OBJECT_HEADER), -1);

   5247  0 001653   200003 236100                    LDQ     @OBJECT_HEADER,,AUTO
         0 001654   777777 036003                    ADLQ    -1,DU
         0 001655   200013 756100                    STQ     SBIN_WORD$,,AUTO

     1644     5248    1           IF SBIN$WORD <= NWORDS

   5248  0 001656   200013 471500                    LDP1    SBIN_WORD$,,AUTO
         0 001657   100000 236100                    LDQ     0,,PR1
         0 001660   200005 116100                    CMPQ    NWORDS,,AUTO
         0 001661   001666 604400 0                  TMOZ    s:5250
         0 001662   200005 236100                    LDQ     NWORDS,,AUTO
         0 001663   000005 036007                    ADLQ    5,DL
         0 001664   100000 116100                    CMPQ    0,,PR1
         0 001665   001676 605000 0                  TPL     s:5254

     1645     5249    2             OR SBIN$WORD > (NWORDS + 3 + %MNNW_DYN_STORAGE) THEN DO;

     1646     5250    2              CALL VDG$ESCREECH (NWORDS, SBIN$WORD);

   5250  0 001666   200013 236100                    LDQ     SBIN_WORD$,,AUTO
         0 001667   200015 756100                    STQ     SBIN_WORD$+2,,AUTO
         0 001670   200005 633500                    EPPR3   NWORDS,,AUTO
         0 001671   200014 453500                    STP3    SBIN_WORD$+1,,AUTO
         0 001672   200014 630500                    EPPR0   SBIN_WORD$+1,,AUTO
         0 001673   000020 631400 xsym               EPPR1   B_VECTNIL+16
         0 001674   000000 701000 xent               TSX1    VDG$ESCREECH
PL6.E3A0      #006=VDG$OFREE File=VDG$OBJECTS.:VDA5TSI                           FRI 07/04/97 11:21 Page:255
         0 001675   000000 011000                    NOP     0

     1647     5251    2              END;

     1648     5252
     1649     5253                /* Make sure the pointer points to one of our data segments */
     1650     5254    1           SEG_PTR2$ = VD_MCB_SMALL.SEGMENT_BASE$;

   5254  0 001676   000002 236000 xsym               LDQ     VD_MCB_SMALL+2
         0 001677   200010 756100                    STQ     SEG_PTR2$,,AUTO

     1651     5255    1           IF SEG_PTR.SEGID = SEG_PTR2.SEGID THEN

   5255  0 001700   200007 236100                    LDQ     PTR$,,AUTO
         0 001701   200010 676100                    ERQ     SEG_PTR2$,,AUTO
         0 001702   007777 376007                    ANQ     4095,DL
         0 001703   001707 601000 0                  TNZ     s:5258

     1652     5256    1              MCB$ = ADDR(VD_MCB_SMALL);

   5256  0 001704   000003 236000 1                  LDQ     3
         0 001705   200004 756100                    STQ     MCB$,,AUTO
         0 001706   001723 710000 0                  TRA     s:5263

     1653     5257    2           ELSE DO;

     1654     5258    2              SEG_PTR2$ = VD_MCB_LARGE.SEGMENT_BASE$;

   5258  0 001707   000002 236000 xsym               LDQ     VD_MCB_LARGE+2
         0 001710   200010 756100                    STQ     SEG_PTR2$,,AUTO

     1655     5259    2              IF SEG_PTR.SEGID = SEG_PTR2.SEGID THEN

   5259  0 001711   200007 236100                    LDQ     PTR$,,AUTO
         0 001712   200010 676100                    ERQ     SEG_PTR2$,,AUTO
         0 001713   007777 376007                    ANQ     4095,DL
         0 001714   001720 601000 0                  TNZ     s:5261
PL6.E3A0      #006=VDG$OFREE File=VDG$OBJECTS.:VDA5TSI                           FRI 07/04/97 11:21 Page:256

     1656     5260    2                 MCB$ = ADDR(VD_MCB_LARGE);

   5260  0 001715   000004 236000 1                  LDQ     4
         0 001716   200004 756100                    STQ     MCB$,,AUTO
         0 001717   001723 710000 0                  TRA     s:5263

     1657     5261    2              ELSE CALL VDG$ESCREECH;

   5261  0 001720   000002 631400 xsym               EPPR1   B_VECTNIL+2
         0 001721   000000 701000 xent               TSX1    VDG$ESCREECH
         0 001722   000000 011000                    NOP     0

     1658     5262    2              END;

     1659     5263    1           MCB.SIZE = NWORDS;

   5263  0 001723   200004 470500                    LDP0    MCB$,,AUTO
         0 001724   200005 235100                    LDA     NWORDS,,AUTO
         0 001725   000006 755100                    STA     6,,PR0

     1660     5264    1           MCB.ADDRESS$ = ADDR(OBJECT_HEADER);

   5264  0 001726   200003 236100                    LDQ     @OBJECT_HEADER,,AUTO
         0 001727   000000 756100                    STQ     0,,PR0

     1661     5265    1           CALL X$DEALLOCATE (MCB) ALTRET (DEALLOCATE_FAILED);

   5265  0 001730   200004 630500                    EPPR0   MCB$,,AUTO
         0 001731   000017 631400 xsym               EPPR1   B_VECTNIL+15
         0 001732   000000 701000 xent               TSX1    X$DEALLOCATE
         0 001733   001735 702000 0                  TSX2    DEALLOCATE_FAILED

     1662     5266    1           RETURN;

   5266  0 001734   000000 702200 xent               TSX2  ! X66_ARET

PL6.E3A0      #006=VDG$OFREE File=VDG$OBJECTS.:VDA5TSI                           FRI 07/04/97 11:21 Page:257
     1663     5267
     1664     5268
     1665     5269    1   DEALLOCATE_FAILED:
     1666     5270    1           ERR$HEAD.ERR.CODE# = %E$DEALLOCATE_FAILED;

   5270  0 001735   000031 470400 xsym  DEALLOCATE_* LDP0    VD_6E+25
         0 001736   000002 236100                    LDQ     2,,PR0
         0 001737   000005 376000 1                  ANQ     5
         0 001740   000030 276007                    ORQ     24,DL
         0 001741   000002 756100                    STQ     2,,PR0

     1667     5271    1           ERR$HEAD.FLAGLEV# = %FLV_FATAL;

   5271  0 001742   000004 220003                    LDX0    4,DU
         0 001743   000031 470400 xsym               LDP0    VD_6E+25
         0 001744   000003 740100                    STX0    3,,PR0

     1668     5272    1           ALTRETURN;

   5272  0 001745   000000 702200 xent               TSX2  ! X66_AALT

   5271  0 001746                       OFREE_FAILED null
   5271  0 001746                       OFREE_DCB_F* null
   5271  0 001746                       OCLEAR_RANG* null
   5271  0 001746                       OCLEAR_LOCA* null
     1669     5273
     1670     5274    1   OFREE_FAILED: ;
     1671     5275    1   OFREE_DCB_FAILED: ;
     1672     5276    1   OCLEAR_RANGE_FAILED: ;
     1673     5277    1   OCLEAR_LOCATION_FAILED: ;
     1674     5278    1           ALTRETURN;

   5278  0 001746   000000 702200 xent               TSX2  ! X66_AALT
     1675     5279
     1676     5280    1   END VDG$OFREE;
     1677     5281        %EOD;

PL6.E3A0      #006=VDG$OFREE File=VDG$OBJECTS.:VDA5TSI                           FRI 07/04/97 11:21 Page:258
--  Include file information  --

   XUM_MACRO_C.:LIBRARY  is referenced.
   VD_PERR_C.:VDA5TOU  is referenced.
   VD_MACROS_M.:VDA5TOU  is referenced.
   B$JIT_C.:E04TOU  was found in the system file and is never referenced.
   CP_6_C.:E04TOU  was found in the system file and is never referenced.
      No diagnostics issued in procedure VDG$OFREE.
PL6.E3A0      #006=VDG$OFREE File=VDG$OBJECTS.:VDA5TSI                           FRI 07/04/97 11:21 Page:259

 **** Variables and constants ****

  ****  Auto variables  ****

  ****  Scalars and arrays  ****
OctLoc.c.b A Datatyp(siz) R M Lvl/name                 OctLoc.c.b A Datatyp(siz) R M Lvl/name

     3-0-0/w PTR         r     1 @OBJECT_HEADER            12-0-0/w SBIN        r     1 I
     4-0-0/w PTR         r     1 MCB$                       5-0-0/w SBIN        r     1 NWORDS
     6-0-0/w SBIN        r     1 N_ENTRIES                 *0-0-0/w STRC        r     1 OBJECT_HEADER
     7-0-0/w PTR         r     1 PTR$                      11-0-0/w PTR         r     1 PTR2$
    13-0-0/w PTR         r     1 SBIN_WORD$                 7-0-0/w STRC        r     1 SEG_PTR
    10-0-0/w STRC        r     1 SEG_PTR2                  10-0-0/w PTR         r     1 SEG_PTR2$

  ****  SYMREF variables  ****

  ****  Scalars and arrays  ****
OctLoc.c.b A Datatyp(siz) R M Lvl/name                 OctLoc.c.b A Datatyp(siz) R M Lvl/name

     0-0-0/w STRC(22644) r     1 VD_6E                      0-0-0/w STRC(324)   r     1 VD_MCB_LARGE
     0-0-0/w STRC(324)   r     1 VD_MCB_SMALL
     0-0-0/w STRC(72)    r     1 VD_OBJECTS(0:98)

  ****  BASED and DCB variables  ****

  ****  Scalars and arrays  ****
OctLoc.c.b A Datatyp(siz) R M Lvl/name                 OctLoc.c.b A Datatyp(siz) R M Lvl/name

     0-0-0/w STRC(180)   r     1 ERR$HEAD                   0-0-0/w STRC(324)   r     1 MCB
     0-0-0/w SBIN        r     1 SBIN$WORD                  0-0-0/w STRC(936)   r     1 VD$BLOCK_DESC
     0-0-0/w ASTR(90)    r     1 VD$BUFFER                  0-0-0/w STRC(90)    r     1 VD$BUFFER_HEADER
     0-0-0/w STRC(900)   r     1 VD$CMD_STREAM              0-0-0/w STRC(576)   r     1 VD$DIR_NODE
     0-0-0/w STRC(900)   r     1 VD$ENCODED_NODE            0-0-0/w STRC(180)   r     1 VD$ERR
     0-0-0/w STRC(2124)  r     1 VD$EVAL                    0-0-0/w STRC(864)   r     1 VD$EVAL_PATTERN
     0-0-0/w STRC(648)   r     1 VD$FILE_KEY                0-0-0/w STRC(468)   r     1 VD$FILE_NODE
     0-0-0/w STRC(36972) r     1 VD$FIT                     0-0-0/w STRC(216)   r     1 VD$IT_ADJUST
     0-0-0/w STRC(1116)  r     1 VD$IT_BLOCK_EXPR           0-0-0/w STRC(540)   r     1 VD$IT_COMMAND
PL6.E3A0      #006=VDG$OFREE File=VDG$OBJECTS.:VDA5TSI                           FRI 07/04/97 11:21 Page:260
     0-0-0/w STRC(324)   r     1 VD$IT_OPERAND              0-0-0/w STRC(216)   r     1 VD$IT_OPERATOR
     0-0-0/w STRC(216)   r     1 VD$IT_SELECT               0-0-0/w STRC        r     1 VD$OBJECT_HEADER
     0-0-0/w STRC(252)   r     1 VD$PATTERN                 0-0-0/w STRC(1944)  r     1 VD$PORT
     0-0-0/w STRC(324)   r     1 VD$RECORD_SET              0-0-0/w STRC(864)   r     1 VD$STREAM
     0-0-0/w STRC(81)    r     1 VD$STRING_HEADER           0-0-0/w STRC(180)   r     1 VD$STRUCTURE_SPEC
     0-0-0/w STRC(396)   r     1 VD$TABS                    0-0-0/w ASTR(81)    r     1 VD$TEXTC_REMOTE
     0-0-0/w STRC(180)   r     1 VD$WINDOW_BLOCK            0-0-0/w STRC(900)   r     1 VD$WINDOW_SPEC
     0-0-0/w STRC(828)   r     1 VD$XLATE_LOCATIONS


   Procedure VDG$OFREE requires 999 words for executable code.
   Procedure VDG$OFREE requires 14 words of local(AUTO) storage.
PL6.E3A0      #006=VDG$OFREE File=VDG$OBJECTS.:VDA5TSI                           FRI 07/04/97 11:21 Page:261
          *** CROSS REFERENCE LISTING ***
**     DENOTES     IDENTIFIER DEFINITION
<<                 IDENTIFIER'S VALUE SET
>>                 IDENTIFIER'S VALUE USED
<>                 IDENTIFIER SET AND/OR USED
--                 IDENTIFIER REFERENCED
PL6.E3A0      #006=VDG$OFREE File=VDG$OBJECTS.:VDA5TSI                           FRI 07/04/97 11:21 Page:262
          MINI XREF LISTING

DEALLOCATE_FAILED
      5270**LABEL    5265--CALLALT
ERR$HEAD.ERR.CODE#
      2615**DCL      5270<<ASSIGN
ERR$HEAD.FLAGLEV#
      2618**DCL      5271<<ASSIGN
I
      2559**DCL      5016<<DOINDEX  5017>>IF       5018>>CALL     5059<<DOINDEX  5060>>IF       5061>>CALL
      5100<<DOINDEX  5101>>IF       5102>>CALL     5102>>CALL     5107<<DOINDEX  5115>>IF       5115>>CALL
      5115>>CALL     5116>>ASSIGN   5118>>IF       5119>>CALL     5119>>CALL     5201<<DOINDEX  5209>>IF
      5209>>CALL     5209>>CALL     5210>>ASSIGN   5219>>IF       5219>>CALL     5219>>CALL     5220>>ASSIGN
      5229>>IF       5229>>CALL     5229>>CALL     5230>>ASSIGN
MCB
      2564**DCL      5265<>CALL
MCB.ADDRESS$
      2564**DCL      5264<<ASSIGN
MCB.SIZE
      2564**DCL      5263<<ASSIGN
MCB$
      2547**DCL      2564--IMP-PTR  5256<<ASSIGN   5260<<ASSIGN   5263>>ASSIGN   5264>>ASSIGN   5265>>CALL
NWORDS
      2548**DCL      5244<<ASSIGN   5245>>IF       5248>>IF       5248>>IF       5250<>CALL     5263>>ASSIGN
N_ENTRIES
      2549**DCL      5053<<ASSIGN   5056>>IF       5056>>IF       5195<<ASSIGN   5198>>IF       5198>>IF
OBJECT_HEADER
      2446**DCL        35--PROC     4826--ASSIGN   4832<>CALL     5247--ASSIGN   5264--ASSIGN
OBJECT_HEADER.CLASS#
      2450**DCL      4830>>IF       4830>>IF       4835>>IF       4839>>IF       4846>>DOCASE
OBJECT_HEADER.SIZE#
      2450**DCL      5244>>ASSIGN
OCLEAR_LOCATION_FAILED
      5271**LABEL    4910--CALLALT  5098--CALLALT  5135--CALLALT  5137--CALLALT  5192--CALLALT
PL6.E3A0      #006=VDG$OFREE File=VDG$OBJECTS.:VDA5TSI                           FRI 07/04/97 11:21 Page:263
OCLEAR_RANGE_FAILED
      5271**LABEL    4861--CALLALT  4876--CALLALT  4923--CALLALT  4925--CALLALT  4927--CALLALT  4933--CALLALT
      5004--CALLALT
OFREE_DCB_FAILED
      5271**LABEL    5082--CALLALT
OFREE_FAILED
      5271**LABEL    4837--CALLALT  4841--CALLALT  4883--CALLALT  4886--CALLALT  4893--CALLALT  4896--CALLALT
      4913--CALLALT  4918--CALLALT  4939--CALLALT  4945--CALLALT  4968--CALLALT  4971--CALLALT  4982--CALLALT
      4985--CALLALT  4992--CALLALT  5007--CALLALT  5013--CALLALT  5018--CALLALT  5025--CALLALT  5028--CALLALT
      5034--CALLALT  5037--CALLALT  5040--CALLALT  5046--CALLALT  5049--CALLALT  5061--CALLALT  5086--CALLALT
      5102--CALLALT  5119--CALLALT  5143--CALLALT  5148--CALLALT  5151--CALLALT  5156--CALLALT  5159--CALLALT
      5162--CALLALT  5165--CALLALT  5168--CALLALT  5171--CALLALT  5174--CALLALT  5177--CALLALT
PTR$
      2550**DCL      2551--REDEF    2652--IMP-PTR  2816--IMP-PTR  2857--IMP-PTR  2893--IMP-PTR  2932--IMP-PTR
      2970--IMP-PTR  3091--IMP-PTR  3144--IMP-PTR  3389--IMP-PTR  3504--IMP-PTR  3545--IMP-PTR  3638--IMP-PTR
      3674--IMP-PTR  3711--IMP-PTR  3861--IMP-PTR  3899--IMP-PTR  3965--IMP-PTR  4002--IMP-PTR  4047--IMP-PTR
      4087--IMP-PTR  4138--IMP-PTR  4236--IMP-PTR  4314--IMP-PTR  4420--IMP-PTR  4456--IMP-PTR  4493--IMP-PTR
      4547--IMP-PTR  4591--IMP-PTR  4628--IMP-PTR  4693--IMP-PTR  4826<<ASSIGN   4827>>IF       4835>>IF
      4837>>CALL     4839>>IF       4841>>CALL     4850>>ASSIGN   4873>>IF       4873>>CALL     4873>>CALL
      4874>>ASSIGN   4876>>CALL     4880>>ASSIGN   4882>>IF       4883>>CALL     4883>>CALL     4885>>IF
      4886>>CALL     4892>>IF       4893>>CALL     4895>>IF       4896>>CALL     4907>>IF       4907>>CALL
      4907>>CALL     4908>>ASSIGN   4910>>CALL     4912>>IF       4913>>CALL     4913>>CALL     4917>>IF
      4918>>CALL     4923>>CALL     4925>>CALL     4927>>CALL     4933>>CALL     4938>>IF       4939>>CALL
      4944>>IF       4945>>CALL     4954>>IF       4954>>CALL     4954>>CALL     4955>>ASSIGN   4964>>IF
      4964>>CALL     4964>>CALL     4965>>ASSIGN   4967>>IF       4968>>CALL     4968>>CALL     4970>>IF
      4971>>CALL     4981>>IF       4982>>CALL     4984>>IF       4985>>CALL     4991>>IF       4992>>CALL
      5001>>IF       5001>>CALL     5001>>CALL     5002>>ASSIGN   5004>>CALL     5006>>IF       5007>>CALL
      5012>>IF       5013>>CALL     5017>>IF       5018>>CALL     5024>>IF       5025>>CALL     5027>>IF
      5028>>CALL     5033>>IF       5034>>CALL     5036>>IF       5037>>CALL     5039>>IF       5040>>CALL
      5045>>IF       5046>>CALL     5048>>IF       5049>>CALL     5053>>ASSIGN   5053>>ASSIGN   5053>>ASSIGN
      5056>>IF       5056>>IF       5058>>CALL     5059>>DOINDEX  5060>>IF       5061>>CALL     5069>>IF
      5070>>ASSIGN   5072>>ASSIGN   5072>>ASSIGN   5073>>IF       5074>>ASSIGN   5076>>ASSIGN   5076>>ASSIGN
      5081>>IF       5082>>CALL     5085>>IF       5086>>CALL     5095>>IF       5095>>CALL     5095>>CALL
      5096>>ASSIGN   5098>>CALL     5101>>IF       5102>>CALL     5102>>CALL     5107>>DOINDEX  5115>>IF
      5115>>CALL     5115>>CALL     5116>>ASSIGN   5118>>IF       5119>>CALL     5119>>CALL     5132>>IF
      5132>>CALL     5132>>CALL     5133>>ASSIGN   5135>>CALL     5137>>CALL     5142>>IF       5143>>CALL
PL6.E3A0      #006=VDG$OFREE File=VDG$OBJECTS.:VDA5TSI                           FRI 07/04/97 11:21 Page:264
      5147>>IF       5148>>CALL     5150>>IF       5151>>CALL     5155>>IF       5156>>CALL     5158>>IF
      5159>>CALL     5161>>IF       5162>>CALL     5164>>IF       5165>>CALL     5167>>IF       5168>>CALL
      5170>>IF       5171>>CALL     5171>>CALL     5173>>IF       5174>>CALL     5176>>IF       5177>>CALL
      5177>>CALL     5189>>IF       5189>>CALL     5189>>CALL     5190>>ASSIGN   5192>>CALL     5195>>ASSIGN
      5195>>ASSIGN   5195>>ASSIGN   5198>>IF       5198>>IF       5200>>CALL     5201>>DOINDEX  5209>>IF
      5209>>CALL     5209>>CALL     5210>>ASSIGN   5219>>IF       5219>>CALL     5219>>CALL     5220>>ASSIGN
      5229>>IF       5229>>CALL     5229>>CALL     5230>>ASSIGN
PTR2$
      2558**DCL      4850<<ASSIGN   4858>>IF       4858>>CALL     4858>>CALL     4859>>ASSIGN   4861>>CALL
SBIN$WORD
      2567**DCL      5248>>IF       5248>>IF       5250<>CALL
SBIN_WORD$
      2560**DCL      2567--IMP-PTR  5247<<ASSIGN   5248>>IF       5248>>IF       5250>>CALL
SEG_PTR.SEGID
      2553**DCL      5255>>IF       5259>>IF
SEG_PTR2.SEGID
      2557**DCL      5255>>IF       5259>>IF
SEG_PTR2$
      2554**DCL      2555--REDEF    5254<<ASSIGN   5258<<ASSIGN
VD$BLOCK_DESC
      2652**DCL      5148<>CALL     5159<>CALL
VD$BLOCK_DESC.FILE_KEY
      2688**DCL      4859<<ASSIGN   4874<<ASSIGN
VD$BLOCK_DESC.FILE_KEY.REP#
      2690**DCL      4858>>IF       4873>>IF
VD$BLOCK_DESC.FILE_KEY.V$
      2690**DCL      4858>>CALL     4858>>CALL     4873>>CALL     4873>>CALL
VD$BLOCK_DESC.RANGE
      2702**DCL      4861<>CALL     4876<>CALL
VD$BUFFER
      2816**DCL      4883<>CALL     4913<>CALL     4968<>CALL     5102<>CALL     5119<>CALL     5171<>CALL
      5177<>CALL
VD$BUFFER.BYTES
      2844**DCL      4850--ASSIGN
VD$BUFFER.LENGTH#
      2842**DCL      2844--IMP-SIZ  4883>>CALL     4913>>CALL     4968>>CALL     5102>>CALL     5119>>CALL
PL6.E3A0      #006=VDG$OFREE File=VDG$OBJECTS.:VDA5TSI                           FRI 07/04/97 11:21 Page:265
      5171>>CALL     5177>>CALL
VD$BUFFER_HEADER
      2857**DCL      4841<>CALL
VD$BUFFER_HEADER.FLINK$
      2883**DCL      4839>>IF       4841>>CALL
VD$CMD_STREAM.BLINK$
      2919**DCL      4880>>ASSIGN
VD$CMD_STREAM.INTREE$
      2920**DCL      4885>>IF       4886>>CALL
VD$CMD_STREAM.RECORD$
      2920**DCL      4882>>IF       4883>>CALL     4883>>CALL
VD$DIR_NODE
      2932**DCL      4893<>CALL
VD$DIR_NODE.FLINK$
      2958**DCL      4892>>IF       4893>>CALL
VD$DIR_NODE.HEAD$
      2959**DCL      4895>>IF       4896>>CALL
VD$ENCODED_NODE.DESC.DATA$
      3080**DCL      4912>>IF       4913>>CALL     4913>>CALL
VD$ENCODED_NODE.DESC.FILE_KEY
      3020**DCL      4908<<ASSIGN
VD$ENCODED_NODE.DESC.FILE_KEY.REP#
      3022**DCL      4907>>IF
VD$ENCODED_NODE.DESC.FILE_KEY.V$
      3022**DCL      4907>>CALL     4907>>CALL
VD$ENCODED_NODE.DESC.LOCATION
      3034**DCL      4910<>CALL
VD$ERR
      3091**DCL      4918<>CALL
VD$ERR.FLINK$
      3117**DCL      4917>>IF       4918>>CALL
VD$EVAL
      3144**DCL      5151<>CALL     5162<>CALL
VD$EVAL.ENCLOSING
      3181**DCL      4923<>CALL
VD$EVAL.LAST_FOUND_RANGE
PL6.E3A0      #006=VDG$OFREE File=VDG$OBJECTS.:VDA5TSI                           FRI 07/04/97 11:21 Page:266
      3319**DCL      4927<>CALL
VD$EVAL.RANGE
      3250**DCL      4925<>CALL
VD$EVAL_PATTERN.RANGE
      3426**DCL      4933<>CALL
VD$FILE_KEY.FLINK$
      3531**DCL      4938>>IF       4939>>CALL
VD$FILE_NODE
      3545**DCL      4896<>CALL     4945<>CALL     4971<>CALL
VD$FILE_NODE.DESC.DATA$
      3626**DCL      4967>>IF       4968>>CALL     4968>>CALL
VD$FILE_NODE.DESC.KEY
      3608**DCL      4955<<ASSIGN
VD$FILE_NODE.DESC.KEY.REP#
      3610**DCL      4954>>IF
VD$FILE_NODE.DESC.KEY.V$
      3610**DCL      4954>>CALL     4954>>CALL
VD$FILE_NODE.DESC.SPEC
      3622**DCL      4965<<ASSIGN
VD$FILE_NODE.DESC.SPEC.REP#
      3624**DCL      4964>>IF
VD$FILE_NODE.DESC.SPEC.V$
      3624**DCL      4964>>CALL     4964>>CALL
VD$FILE_NODE.FLINK$
      3571**DCL      4944>>IF       4945>>CALL
VD$FILE_NODE.HEAD$
      3628**DCL      4970>>IF       4971>>CALL
VD$FIT
      3638**DCL      5086<>CALL     5143<>CALL
VD$IT_ADJUST
      3674**DCL      4982<>CALL     5049<>CALL
VD$IT_ADJUST.FLINK$
      3700**DCL      4981>>IF       4982>>CALL
VD$IT_ADJUST.MOVEMENTS$
      3700**DCL      4984>>IF       4985>>CALL
VD$IT_BLOCK_EXPR
PL6.E3A0      #006=VDG$OFREE File=VDG$OBJECTS.:VDA5TSI                           FRI 07/04/97 11:21 Page:267
      3711**DCL      4992<>CALL     5165<>CALL
VD$IT_BLOCK_EXPR.DOMAINN.FILE_KEY
      3749**DCL      5002<<ASSIGN
VD$IT_BLOCK_EXPR.DOMAINN.FILE_KEY.REP#
      3751**DCL      5001>>IF
VD$IT_BLOCK_EXPR.DOMAINN.FILE_KEY.V$
      3751**DCL      5001>>CALL     5001>>CALL
VD$IT_BLOCK_EXPR.DOMAINN.RANGE
      3763**DCL      5004<>CALL
VD$IT_BLOCK_EXPR.FLINK$
      3737**DCL      4991>>IF       4992>>CALL
VD$IT_BLOCK_EXPR.SELECTS$
      3851**DCL      5006>>IF       5007>>CALL
VD$IT_COMMAND
      3861**DCL      4886<>CALL     5013<>CALL
VD$IT_COMMAND.FLINK$
      3887**DCL      5012>>IF       5013>>CALL
VD$IT_COMMAND.PARAM$
      3888**DCL      5017>>IF       5018>>CALL
VD$IT_OPERAND
      3899**DCL      4985<>CALL     5025<>CALL     5037<>CALL     5040<>CALL
VD$IT_OPERAND.FLINK$
      3925**DCL      5024>>IF       5025>>CALL
VD$IT_OPERAND.PARAM$
      3955**DCL      5027>>IF       5028>>CALL
VD$IT_OPERATOR
      3965**DCL      5034<>CALL
VD$IT_OPERATOR.FLINK$
      3991**DCL      5033>>IF       5034>>CALL
VD$IT_OPERATOR.OPERAND$
      3991**DCL      5036>>IF       5037>>CALL
VD$IT_OPERATOR.R_OPERAND$
      3992**DCL      5039>>IF       5040>>CALL
VD$IT_SELECT
      4002**DCL      5007<>CALL     5046<>CALL
VD$IT_SELECT.ADJUSTS$
PL6.E3A0      #006=VDG$OFREE File=VDG$OBJECTS.:VDA5TSI                           FRI 07/04/97 11:21 Page:268
      4029**DCL      5048>>IF       5049>>CALL
VD$IT_SELECT.FLINK$
      4028**DCL      5045>>IF       5046>>CALL
VD$OBJECT_HEADER
      2637**DCL      5018<>CALL     5028<>CALL     5061<>CALL
VD$PATTERN.ENTRIES
      4124**DCL      5053--ASSIGN   5053--ASSIGN
VD$PATTERN.ENTRIES.MATCH$
      4127**DCL      5060>>IF       5061>>CALL
VD$PATTERN.MX_ENTRIES#
      4113**DCL      5056>>IF
VD$PATTERN.N_ENTRIES#
      4113**DCL      5056>>IF       5058<>CALL     5059>>DOINDEX
VD$PATTERN.OBJECT.SIZE#
      4111**DCL      5053>>ASSIGN
VD$PORT.BLINK$
      4164**DCL      5069>>IF       5072>>ASSIGN   5074>>ASSIGN   5076<<ASSIGN   5076>>ASSIGN
VD$PORT.CURRENT
      4191**DCL      5098<>CALL
VD$PORT.DCB#
      4165**DCL      5081>>IF       5082<>CALL
VD$PORT.FILE_KEY
      4177**DCL      5096<<ASSIGN
VD$PORT.FILE_KEY.REP#
      4179**DCL      5095>>IF
VD$PORT.FILE_KEY.V$
      4179**DCL      5095>>CALL     5095>>CALL
VD$PORT.FIT$
      4165**DCL      5085>>IF       5086>>CALL
VD$PORT.FLINK$
      4164**DCL      5070>>ASSIGN   5072<<ASSIGN   5072>>ASSIGN   5073>>IF       5076>>ASSIGN
VD$PORT.LEVEL.DATA$
      4225**DCL      5101>>IF       5102>>CALL     5102>>CALL
VD$RECORD_SET
      4236**DCL      5168<>CALL
VD$RECORD_SET.DESC.DATA$
PL6.E3A0      #006=VDG$OFREE File=VDG$OBJECTS.:VDA5TSI                           FRI 07/04/97 11:21 Page:269
      4303**DCL      5118>>IF       5119>>CALL     5119>>CALL
VD$RECORD_SET.DESC.KEY
      4285**DCL      5116<<ASSIGN
VD$RECORD_SET.DESC.KEY.REP#
      4287**DCL      5115>>IF
VD$RECORD_SET.DESC.KEY.V$
      4287**DCL      5115>>CALL     5115>>CALL
VD$RECORD_SET.N_ENTRIES#
      4262**DCL      5107>>DOINDEX
VD$STREAM
      4314**DCL      5156<>CALL
VD$STREAM.CURRENT
      4365**DCL      5135<>CALL
VD$STREAM.FILE_KEY
      4351**DCL      5133<<ASSIGN
VD$STREAM.FILE_KEY.REP#
      4353**DCL      5132>>IF
VD$STREAM.FILE_KEY.V$
      4353**DCL      5132>>CALL     5132>>CALL
VD$STREAM.NEXT
      4393**DCL      5137<>CALL
VD$STRING_HEADER
      4420**DCL      4837<>CALL     4939<>CALL
VD$STRING_HEADER.FLINK$
      4446**DCL      4835>>IF       4837>>CALL
VD$STRUCTURE_SPEC.FIT$
      4482**DCL      5142>>IF       5143>>CALL
VD$TABS
      4493**DCL      5174<>CALL
VD$TEXTC_REMOTE
      4547**DCL      4858<>CALL     4873<>CALL     4907<>CALL     4954<>CALL     4964<>CALL     5001<>CALL
      5095<>CALL     5115<>CALL     5132<>CALL     5189<>CALL     5209<>CALL     5219<>CALL     5229<>CALL
VD$TEXTC_REMOTE.LENGTH#
      4576**DCL      4578--IMP-SIZ  4858>>CALL     4873>>CALL     4907>>CALL     4954>>CALL     4964>>CALL
      5001>>CALL     5095>>CALL     5115>>CALL     5132>>CALL     5189>>CALL     5209>>CALL     5219>>CALL
      5229>>CALL
PL6.E3A0      #006=VDG$OFREE File=VDG$OBJECTS.:VDA5TSI                           FRI 07/04/97 11:21 Page:270
VD$WINDOW_BLOCK.EDIT_BLOCK$
      4617**DCL      5147>>IF       5148>>CALL
VD$WINDOW_BLOCK.EVAL$
      4617**DCL      5150>>IF       5151>>CALL
VD$WINDOW_SPEC.EOFMARK$
      4682**DCL      5170>>IF       5171>>CALL     5171>>CALL
VD$WINDOW_SPEC.KEY_DEFINITION_BUFFER$
      4683**DCL      5176>>IF       5177>>CALL     5177>>CALL
VD$WINDOW_SPEC.OPERAND.EDIT_BLOCK$
      4669**DCL      5158>>IF       5159>>CALL
VD$WINDOW_SPEC.OPERAND.EVAL$
      4669**DCL      5161>>IF       5162>>CALL
VD$WINDOW_SPEC.OPERAND.INTREE$
      4669**DCL      5164>>IF       5165>>CALL
VD$WINDOW_SPEC.OPERAND.STREAM$
      4669**DCL      5155>>IF       5156>>CALL
VD$WINDOW_SPEC.RECORD_SET$
      4672**DCL      5167>>IF       5168>>CALL
VD$WINDOW_SPEC.TABS$
      4681**DCL      5173>>IF       5174>>CALL
VD$XLATE_LOCATIONS.FILE_KEY
      4730**DCL      5190<<ASSIGN
VD$XLATE_LOCATIONS.FILE_KEY.REP#
      4732**DCL      5189>>IF
VD$XLATE_LOCATIONS.FILE_KEY.V$
      4732**DCL      5189>>CALL     5189>>CALL
VD$XLATE_LOCATIONS.MX_ENTRIES#
      4719**DCL      5198>>IF
VD$XLATE_LOCATIONS.N_ENTRIES#
      4719**DCL      5198>>IF       5200<>CALL     5201>>DOINDEX
VD$XLATE_LOCATIONS.OBJECT.SIZE#
      4717**DCL      5195>>ASSIGN
VD$XLATE_LOCATIONS.PREFIX
      4745**DCL      5192<>CALL
VD$XLATE_LOCATIONS.XLATES
      4774**DCL      5195--ASSIGN   5195--ASSIGN
PL6.E3A0      #006=VDG$OFREE File=VDG$OBJECTS.:VDA5TSI                           FRI 07/04/97 11:21 Page:271
VD$XLATE_LOCATIONS.XLATES.NEW_KEY
      4815**DCL      5230<<ASSIGN
VD$XLATE_LOCATIONS.XLATES.NEW_KEY.REP#
      4817**DCL      5229>>IF
VD$XLATE_LOCATIONS.XLATES.NEW_KEY.V$
      4817**DCL      5229>>CALL     5229>>CALL
VD$XLATE_LOCATIONS.XLATES.OLD_KEY_HI
      4800**DCL      5220<<ASSIGN
VD$XLATE_LOCATIONS.XLATES.OLD_KEY_HI.REP#
      4802**DCL      5219>>IF
VD$XLATE_LOCATIONS.XLATES.OLD_KEY_HI.V$
      4802**DCL      5219>>CALL     5219>>CALL
VD$XLATE_LOCATIONS.XLATES.OLD_KEY_LO
      4786**DCL      5210<<ASSIGN
VD$XLATE_LOCATIONS.XLATES.OLD_KEY_LO.REP#
      4788**DCL      5209>>IF
VD$XLATE_LOCATIONS.XLATES.OLD_KEY_LO.V$
      4788**DCL      5209>>CALL     5209>>CALL
VDG$ESCREECH
      2458**DCL-ENT  4832--CALL     5058--CALL     5200--CALL     5250--CALL     5261--CALL
VDG$OCLEAR_LOCATION
      2456**DCL-ENT  4910--CALL     5098--CALL     5135--CALL     5137--CALL     5192--CALL
VDG$OCLEAR_RANGE
      2455**DCL-ENT  4861--CALL     4876--CALL     4923--CALL     4925--CALL     4927--CALL     4933--CALL
      5004--CALL
VDG$OFREE
        35**PROC     4837--CALL     4841--CALL     4858--CALL     4873--CALL     4883--CALL     4886--CALL
      4893--CALL     4896--CALL     4907--CALL     4913--CALL     4918--CALL     4939--CALL     4945--CALL
      4954--CALL     4964--CALL     4968--CALL     4971--CALL     4982--CALL     4985--CALL     4992--CALL
      5001--CALL     5007--CALL     5013--CALL     5018--CALL     5025--CALL     5028--CALL     5034--CALL
      5037--CALL     5040--CALL     5046--CALL     5049--CALL     5061--CALL     5086--CALL     5095--CALL
      5102--CALL     5115--CALL     5119--CALL     5132--CALL     5143--CALL     5148--CALL     5151--CALL
      5156--CALL     5159--CALL     5162--CALL     5165--CALL     5168--CALL     5171--CALL     5174--CALL
      5177--CALL     5189--CALL     5209--CALL     5219--CALL     5229--CALL
VDG$OFREE_DCB
      2454**DCL-ENT  5082--CALL
PL6.E3A0      #006=VDG$OFREE File=VDG$OBJECTS.:VDA5TSI                           FRI 07/04/97 11:21 Page:272
VD_6E.CMD_STREAM$
      2492**DCL      4880<<ASSIGN
VD_6E.ERR_HEAD$
      2493**DCL      2576--IMP-PTR  5270>>ASSIGN   5271>>ASSIGN
VD_6E.PORT_HEAD$
      2494**DCL      5070<<ASSIGN
VD_6E.PORT_TAIL$
      2494**DCL      5074<<ASSIGN
VD_MCB_LARGE
      2538**DCL      5260--ASSIGN
VD_MCB_LARGE.SEGMENT_BASE$
      2538**DCL      5258>>ASSIGN
VD_MCB_SMALL
      2542**DCL      5256--ASSIGN
VD_MCB_SMALL.SEGMENT_BASE$
      2542**DCL      5254>>ASSIGN
VD_OBJECTS.BUF
      2508**DCL      4839>>IF
VD_OBJECTS.SIZE
      2504**DCL      4830>>IF
VD_OBJECTS.STR
      2518**DCL      4835>>IF
X$DEALLOCATE
      2457**DCL-ENT  5265--CALL

PL6.E3A0      #007=VDG$OFREE_DCB File=VDG$OBJECTS.:VDA5TSI                       FRI 07/04/97 11:22 Page:273
     1678        1        /*T***********************************************************/
     1679        2        /*T*                                                         */
     1680        3        /*T* Copyright (c) Bull HN Information Systems Inc., 1997    */
     1681        4        /*T*                                                         */
     1682        5        /*T***********************************************************/
     1683        6
     1684        7        /*D* NAME: VDG$OFREE_DCB
     1685        8            PARAMETERS:
     1686        9                DCB# - UBIN HALF HALIGNED containing DCB number.
     1687       10            INPUT:
     1688       11                VD_DCBS must contain info about the currently allocated
     1689       12                    DCBs.
     1690       13            OUTPUT:
     1691       14                DCB# may be added to VD_DCBS.
     1692       15            DESCRIPTION:
     1693       16                If DCB#'s name isn't one of ours, don't actually free the
     1694       17                    DCB, 'cause it's one set by the user and given to us
     1695       18                    to use for editing (ala M$SI on the invocation command
     1696       19                    line).
     1697       20                If there is any room in VD_DCBs, stash DCB# there; else
     1698       21                call M$RELDCB to release it.
     1699       22        */
     1700       23
     1701       24        VDG$OFREE_DCB: PROC (DCB#) ALTRET;
     1702       25
     1703       26
     1704       27        %INCLUDE VD_MACROS_M;
     1705     2242        %INCLUDE CP_6;
     1706     2323
     1707     2324    1   DCL DCB# UBIN HALF HALIGNED;
     1708     2325
     1709     2326
     1710     2327    1   DCL VDG$EREPORT_ERROR       ENTRY (1);
     1711     2328    1   DCL VDG$OALLOC              ENTRY (3) ALTRET;
     1712     2329
     1713     2330
     1714     2331    1   DCL B$TCB$ PTR SYMREF;
PL6.E3A0      #007=VDG$OFREE_DCB File=VDG$OBJECTS.:VDA5TSI                       FRI 07/04/97 11:22 Page:274
     1715     2332        %VD$DCBS (NAME=VD_DCBS, STCLASS=SYMREF);
     1716     2347
     1717     2348        %FPT_RELDCB;
     1718     2362
     1719     2363
     1720     2364    1   DCL THE_DCB$ PTR;
     1721     2365    1   DCL VD_ERR$ PTR;
     1722     2366
     1723     2367
     1724     2368        %F$DCB (DCBN=THE$DCB, STCLASS="BASED(THE_DCB$)");
     1725     2425        %B$TCB (NAME=B$TCB, STCLASS="BASED(B$TCB$)");
     1726     2428        %B$ALT;
     1727     2436        %VD$ERR (NAME=VD$ERR, STCLASS="BASED(VD_ERR$)");
     1728     2489
     1729     2490
     1730     2491
     1731     2492    1           THE_DCB$ = DCBADDR(DCB#);
     1732     2493    1           IF THE$DCB.DCBNAME.L ~= %(LENGTHC(CHR_DCB_PREFIX)+2) THEN
     1733     2494    1              RETURN;
     1734     2495    1           IF SUBSTR(THE$DCB.DCBNAME.N, 0, %LENGTHC(CHR_DCB_PREFIX)) ~=
     1735     2496    1             %CHR_DCB_PREFIX THEN
     1736     2497    1              RETURN;
     1737     2498
     1738     2499    2           IF VD_DCBS.N_FREE# < %N_FREE_DCB_ENTRIES THEN DO;
     1739     2500    2              VD_DCBS.FREE_DCB# (VD_DCBS.N_FREE#) = DCB#;
     1740     2501    2              VD_DCBS.N_FREE# = VD_DCBS.N_FREE# + 1;
     1741     2502    2              END;
     1742     2503    2           ELSE DO;
     1743     2504    2              FPT_RELDCB.V.DCB# = DCB#;
     1744     2505    2              DCB# = 0;
     1745     2506    2              CALL M$RELDCB (FPT_RELDCB)
     1746     2507    3              WHENALTRETURN DO;
     1747     2508    3                 CALL VDG$OALLOC (%CLS_ERR, VD_ERR$)
     1748     2509    3                   ALTRET (OALLOC_FAILED);
     1749     2510    3                 VD$ERR.ERR = B$TCB.ALT$->B$ALT.ERR;
     1750     2511    3                 VD$ERR.FLAGLEV# = %FLV_WARN;
     1751     2512    3                 VD$ERR.DCB# = FPT_RELDCB.V.DCB#;
PL6.E3A0      #007=VDG$OFREE_DCB File=VDG$OBJECTS.:VDA5TSI                       FRI 07/04/97 11:22 Page:275
     1752     2513    3                 CALL VDG$EREPORT_ERROR;
     1753     2514    3                 END;
     1754     2515    2              END;
     1755     2516
     1756     2517    1           RETURN;
     1757     2518
     1758     2519
     1759     2520
     1760     2521    1   OALLOC_FAILED: ;
     1761     2522    1           ALTRETURN;
     1762     2523
     1763     2524    1   END VDG$OFREE_DCB;
     1764     2525        %EOD;

PL6.E3A0      #007=VDG$OFREE_DCB File=VDG$OBJECTS.:VDA5TSI                       FRI 07/04/97 11:22 Page:276
--  Include file information  --

   CP_6.:LIBRARY  cannot be made into a system file and is referenced.
   VD_MACROS_M.:VDA5TOU  is referenced.
   B$JIT_C.:E04TOU  was found in the system file and is never referenced.
   CP_6_C.:E04TOU  was found in the system file and is referenced.
      No diagnostics issued in procedure VDG$OFREE_DCB.

   Procedure VDG$OFREE_DCB requires 74 words for executable code.
   Procedure VDG$OFREE_DCB requires 8 words of local(AUTO) storage.

PL6.E3A0      #007=VDG$OFREE_DCB File=VDG$OBJECTS.:VDA5TSI                       FRI 07/04/97 11:22 Page:277

 Object Unit name= VDG$OFREE_DCB                              File name= VDG$OBJECTS.:VDA5TOU
 UTS= JUL 04 '97 11:22:20.68 FRI                              Compiler= PL-6/E31         Sev=      00
 SharedLib= :SHARED_SYSTEM                                    Alt SharedLib=


    ****  Control sections  ****

 Sect   Type Bound  Init  Size OctSiz  Section name(segment info)
    0   DCB   even  none     0      0  M$UC
    1   Data  even  none     4      4  VDG$OFREE_DCB
    2  RoData even  UTS      1      1  VDG$OFREE_DCB
    3   Proc  even  none    74    112  VDG$OFREE_DCB
    4  RoData even  none     2      2  VDG$OFREE_DCB

    ****  Entry defs  ****

                              Check   Calling
                             calling  sequence
  Sect OctLoc Primary Altret sequence   type   Parms  Name
     3      0   yes    yes     yes      Std        1  VDG$OFREE_DCB

  ****  Entry refs  ****

         Check        Calling
        calling       sequence
Altret sequence SRef   type   Args  Name
 yes     yes           Std       3 VDG$OALLOC
         yes           Std       1 VDG$EREPORT_ERROR
                       nStd      0 X66_AUTO_1
                       nStd      0 X66_ARET
                       Std       0 B_CONSPOOL_D
                       nStd      0 X66_AALT
PL6.E3A0      #007=VDG$OFREE_DCB File=VDG$OBJECTS.:VDA5TSI                       FRI 07/04/97 11:22 Page:278

  ****  Data refs  ****

  Flags:  r = read only, s = secondary
Flgs Name                             Flgs Name                             Flgs Name
     M$UC                                  B$TCB$                                VD_DCBS
     B_VECTNIL

  ****  Segment refs  ****

  Flags:  r = read only, s = secondary
Flgs Name                             Flgs Name                             Flgs Name
     ISSID                                 ROSID
PL6.E3A0      #007=VDG$OFREE_DCB File=VDG$OBJECTS.:VDA5TSI                       FRI 07/04/97 11:22 Page:279


     1678        1        /*T***********************************************************/
     1679        2        /*T*                                                         */
     1680        3        /*T* Copyright (c) Bull HN Information Systems Inc., 1997    */
     1681        4        /*T*                                                         */
     1682        5        /*T***********************************************************/
     1683        6
     1684        7        /*D* NAME: VDG$OFREE_DCB
     1685        8            PARAMETERS:
     1686        9                DCB# - UBIN HALF HALIGNED containing DCB number.
     1687       10            INPUT:
     1688       11                VD_DCBS must contain info about the currently allocated
     1689       12                    DCBs.
     1690       13            OUTPUT:
     1691       14                DCB# may be added to VD_DCBS.
     1692       15            DESCRIPTION:
     1693       16                If DCB#'s name isn't one of ours, don't actually free the
     1694       17                    DCB, 'cause it's one set by the user and given to us
     1695       18                    to use for editing (ala M$SI on the invocation command
     1696       19                    line).
     1697       20                If there is any room in VD_DCBs, stash DCB# there; else
     1698       21                call M$RELDCB to release it.
     1699       22        */
     1700       23
     1701       24        VDG$OFREE_DCB: PROC (DCB#) ALTRET;

     24  3 000000   000000 700200 xent  VDG$OFREE_D* TSX0  ! X66_AUTO_1
         3 000001   000010 000001                    ZERO    8,1

     1702       25
     1703       26
     1704       27        %INCLUDE VD_MACROS_M;
     1705     2242        %INCLUDE CP_6;
     1706     2323
     1707     2324    1   DCL DCB# UBIN HALF HALIGNED;
     1708     2325
     1709     2326
PL6.E3A0      #007=VDG$OFREE_DCB File=VDG$OBJECTS.:VDA5TSI                       FRI 07/04/97 11:22 Page:280
     1710     2327    1   DCL VDG$EREPORT_ERROR       ENTRY (1);
     1711     2328    1   DCL VDG$OALLOC              ENTRY (3) ALTRET;
     1712     2329
     1713     2330
     1714     2331    1   DCL B$TCB$ PTR SYMREF;
     1715     2332        %VD$DCBS (NAME=VD_DCBS, STCLASS=SYMREF);
     1716     2347
     1717     2348        %FPT_RELDCB;
     1718     2362
     1719     2363
     1720     2364    1   DCL THE_DCB$ PTR;
     1721     2365    1   DCL VD_ERR$ PTR;
     1722     2366
     1723     2367
     1724     2368        %F$DCB (DCBN=THE$DCB, STCLASS="BASED(THE_DCB$)");
     1725     2425        %B$TCB (NAME=B$TCB, STCLASS="BASED(B$TCB$)");
     1726     2428        %B$ALT;
     1727     2436        %VD$ERR (NAME=VD$ERR, STCLASS="BASED(VD_ERR$)");
     1728     2489
     1729     2490
     1730     2491
     1731     2492    1           THE_DCB$ = DCBADDR(DCB#);

   2492  3 000002   000000 470400 4                  LDP0    0
         3 000003   000000 471500                    LDP1    0,,PR0
         3 000004   200003 473500                    LDP3    @DCB#,,AUTO
         3 000005   000100 100500                    MLR     fill='000'O
         3 000006   300000 000002                    ADSC9   0,,PR3                   cn=0,n=2
         3 000007   200006 000004                    ADSC9   VD_ERR$+1,,AUTO          cn=0,n=4
         3 000010   200006 220100                    LDX0    VD_ERR$+1,,AUTO
         3 000011   100000 236110                    LDQ     0,X0,PR1
         3 000012   200004 756100                    STQ     THE_DCB$,,AUTO

     1732     2493    1           IF THE$DCB.DCBNAME.L ~= %(LENGTHC(CHR_DCB_PREFIX)+2) THEN

   2493  3 000013   200004 474500                    LDP4    THE_DCB$,,AUTO
         3 000014   400140 236100                    LDQ     96,,PR4
PL6.E3A0      #007=VDG$OFREE_DCB File=VDG$OBJECTS.:VDA5TSI                       FRI 07/04/97 11:22 Page:281
         3 000015   037000 376003                    ANQ     15872,DU
         3 000016   006000 116003                    CMPQ    3072,DU
         3 000017   000021 600000 3                  TZE     s:2495

     1733     2494    1              RETURN;

   2494  3 000020   000000 702200 xent               TSX2  ! X66_ARET

     1734     2495    1           IF SUBSTR(THE$DCB.DCBNAME.N, 0, %LENGTHC(CHR_DCB_PREFIX)) ~=

   2495  3 000021   400140 236100                    LDQ     96,,PR4
         3 000022   000033 772000                    QRL     27
         3 000023   000037 376007                    ANQ     31,DL
         3 000024   040000 106500                    CMPC    fill='040'O
         3 000025   400140 200004                    ADSC9   96,,PR4                  cn=1,n=4
         3 000026   000000 000004 2                  ADSC9   0                        cn=0,n=4
         3 000027   000031 600000 3                  TZE     s:2499

     1735     2496    1             %CHR_DCB_PREFIX THEN
     1736     2497    1              RETURN;

   2497  3 000030   000000 702200 xent               TSX2  ! X66_ARET

     1737     2498
     1738     2499    2           IF VD_DCBS.N_FREE# < %N_FREE_DCB_ENTRIES THEN DO;

   2499  3 000031   000000 720000 xsym               LXL0    VD_DCBS
         3 000032   000024 100003                    CMPX0   20,DU
         3 000033   000047 605000 3                  TPL     s:2504

     1739     2500    2              VD_DCBS.FREE_DCB# (VD_DCBS.N_FREE#) = DCB#;

   2500  3 000034   000000 236000 xsym               LDQ     VD_DCBS
         3 000035   000022 736000                    QLS     18
         3 000036   000022 732000                    QRS     18
         3 000037   000001 736000                    QLS     1
         3 000040   000006 100500                    MLR     fill='000'O
PL6.E3A0      #007=VDG$OFREE_DCB File=VDG$OBJECTS.:VDA5TSI                       FRI 07/04/97 11:22 Page:282
         3 000041   300000 000002                    ADSC9   0,,PR3                   cn=0,n=2
         3 000042   000001 000002 xsym               ADSC9   VD_DCBS+1,Q              cn=0,n=2

     1740     2501    2              VD_DCBS.N_FREE# = VD_DCBS.N_FREE# + 1;

   2501  3 000043   000000 720000 xsym               LXL0    VD_DCBS
         3 000044   000001 621010                    EAX1    1,X0
         3 000045   000000 441000 xsym               SXL1    VD_DCBS

     1741     2502    2              END;

   2502  3 000046   000110 710000 3                  TRA     s:2517

     1742     2503    2           ELSE DO;

     1743     2504    2              FPT_RELDCB.V.DCB# = DCB#;

   2504  3 000047   000000 100500                    MLR     fill='000'O
         3 000050   300000 000002                    ADSC9   0,,PR3                   cn=0,n=2
         3 000051   000002 000002 1                  ADSC9   FPT_RELDCB+2             cn=0,n=2

     1744     2505    2              DCB# = 0;

   2505  3 000052   000100 101400                    MRL     fill='000'O
         3 000053   000002 000004 xsym               ADSC9   B_VECTNIL+2              cn=0,n=4
         3 000054   300000 000002                    ADSC9   0,,PR3                   cn=0,n=2

     1745     2506    2              CALL M$RELDCB (FPT_RELDCB)

   2506  3 000055   000000 630400 1                  EPPR0   FPT_RELDCB
         3 000056   460003 713400                    CLIMB   alt,+24579
         3 000057   400000 401760                    pmme    nvectors=1
         3 000060   000062 702000 3                  TSX2    s:2508
         3 000061   000110 710000 3                  TRA     s:2517

     1746     2507    3              WHENALTRETURN DO;

PL6.E3A0      #007=VDG$OFREE_DCB File=VDG$OBJECTS.:VDA5TSI                       FRI 07/04/97 11:22 Page:283
     1747     2508    3                 CALL VDG$OALLOC (%CLS_ERR, VD_ERR$)

   2508  3 000062   200005 630500                    EPPR0   VD_ERR$,,AUTO
         3 000063   200007 450500                    STP0    VD_ERR$+2,,AUTO
         3 000064   000001 236000 4                  LDQ     1
         3 000065   200006 756100                    STQ     VD_ERR$+1,,AUTO
         3 000066   200006 630500                    EPPR0   VD_ERR$+1,,AUTO
         3 000067   000020 631400 xsym               EPPR1   B_VECTNIL+16
         3 000070   000000 701000 xent               TSX1    VDG$OALLOC
         3 000071   000111 702000 3                  TSX2    OALLOC_FAILED

     1748     2509    3                   ALTRET (OALLOC_FAILED);
     1749     2510    3                 VD$ERR.ERR = B$TCB.ALT$->B$ALT.ERR;

   2510  3 000072   000000 470400 xsym               LDP0    B$TCB$
         3 000073   000000 471500                    LDP1    0,,PR0
         3 000074   100102 236100                    LDQ     66,,PR1
         3 000075   200005 473500                    LDP3    VD_ERR$,,AUTO
         3 000076   300002 756100                    STQ     2,,PR3

     1750     2511    3                 VD$ERR.FLAGLEV# = %FLV_WARN;

   2511  3 000077   000002 220003                    LDX0    2,DU
         3 000100   200005 471500                    LDP1    VD_ERR$,,AUTO
         3 000101   100003 740100                    STX0    3,,PR1

     1751     2512    3                 VD$ERR.DCB# = FPT_RELDCB.V.DCB#;

   2512  3 000102   000002 221000 1                  LDX1    FPT_RELDCB+2
         3 000103   200005 471500                    LDP1    VD_ERR$,,AUTO
         3 000104   100004 741100                    STX1    4,,PR1

     1752     2513    3                 CALL VDG$EREPORT_ERROR;

   2513  3 000105   000002 631400 xsym               EPPR1   B_VECTNIL+2
         3 000106   000000 701000 xent               TSX1    VDG$EREPORT_ERROR
         3 000107   000000 011000                    NOP     0
PL6.E3A0      #007=VDG$OFREE_DCB File=VDG$OBJECTS.:VDA5TSI                       FRI 07/04/97 11:22 Page:284

     1753     2514    3                 END;

     1754     2515    2              END;

     1755     2516
     1756     2517    1           RETURN;

   2517  3 000110   000000 702200 xent               TSX2  ! X66_ARET

   2517  3 000111                       OALLOC_FAIL* null
     1757     2518
     1758     2519
     1759     2520
     1760     2521    1   OALLOC_FAILED: ;
     1761     2522    1           ALTRETURN;

   2522  3 000111   000000 702200 xent               TSX2  ! X66_AALT
     1762     2523
     1763     2524    1   END VDG$OFREE_DCB;
     1764     2525        %EOD;

PL6.E3A0      #007=VDG$OFREE_DCB File=VDG$OBJECTS.:VDA5TSI                       FRI 07/04/97 11:22 Page:285
--  Include file information  --

   CP_6.:LIBRARY  cannot be made into a system file and is referenced.
   VD_MACROS_M.:VDA5TOU  is referenced.
   B$JIT_C.:E04TOU  was found in the system file and is never referenced.
   CP_6_C.:E04TOU  was found in the system file and is referenced.
      No diagnostics issued in procedure VDG$OFREE_DCB.
PL6.E3A0      #007=VDG$OFREE_DCB File=VDG$OBJECTS.:VDA5TSI                       FRI 07/04/97 11:22 Page:286

 **** Variables and constants ****

  ****  Section 001  Data  VDG$OFREE_DCB

  ****  Scalars and arrays  ****
OctLoc.c.b A Datatyp(siz) R M Lvl/name                 OctLoc.c.b A Datatyp(siz) R M Lvl/name

     0-0-0/d STRC(144)   r     1 FPT_RELDCB

  ****  Auto variables  ****

  ****  Scalars and arrays  ****
OctLoc.c.b A Datatyp(siz) R M Lvl/name                 OctLoc.c.b A Datatyp(siz) R M Lvl/name

     3-0-0/w PTR         r     1 @DCB#                     *0-0-0/h UBIN(18)    r     1 DCB#
     4-0-0/w PTR         r     1 THE_DCB$                   5-0-0/w PTR         r     1 VD_ERR$

  ****  SYMREF variables  ****

  ****  Scalars and arrays  ****
OctLoc.c.b A Datatyp(siz) R M Lvl/name                 OctLoc.c.b A Datatyp(siz) R M Lvl/name

     0-0-0/w PTR         r     1 B$TCB$                     0-0-0/w STRC(72)    r     1 VD_DCBS

  ****  BASED and DCB variables  ****

  ****  Scalars and arrays  ****
OctLoc.c.b A Datatyp(siz) R M Lvl/name                 OctLoc.c.b A Datatyp(siz) R M Lvl/name

     0-0-0/w STRC(2448)  r     1 B$ALT                      0-0-0/w STRC(144)   r     1 B$TCB
     0-0-0/d ASTR(3528)  r     1 THE$DCB                    0-0-0/w STRC(180)   r     1 VD$ERR


   Procedure VDG$OFREE_DCB requires 74 words for executable code.
   Procedure VDG$OFREE_DCB requires 8 words of local(AUTO) storage.
PL6.E3A0      #007=VDG$OFREE_DCB File=VDG$OBJECTS.:VDA5TSI                       FRI 07/04/97 11:22 Page:287
          *** CROSS REFERENCE LISTING ***
**     DENOTES     IDENTIFIER DEFINITION
<<                 IDENTIFIER'S VALUE SET
>>                 IDENTIFIER'S VALUE USED
<>                 IDENTIFIER SET AND/OR USED
--                 IDENTIFIER REFERENCED
PL6.E3A0      #007=VDG$OFREE_DCB File=VDG$OBJECTS.:VDA5TSI                       FRI 07/04/97 11:22 Page:288
          MINI XREF LISTING

B$ALT.CODE
      2430**DCL      2430--REDEF    2431--REDEF    2431--REDEF
B$ALT.ERR
      2431**DCL      2510>>ASSIGN
B$ALT.ERR.ERR#
      2432**DCL      2432--REDEF
B$ALT.EVID
      2431**DCL      2431--REDEF    2431--REDEF
B$TCB.ALT$
      2426**DCL      2510>>ASSIGN
B$TCB$
      2331**DCL      2426--IMP-PTR  2510>>ASSIGN
DCB#
      2324**DCL        24--PROC     2492--ASSIGN   2500>>ASSIGN   2504>>ASSIGN   2505<<ASSIGN
FPT_RELDCB
      2359**DCL      2506<>CALL
FPT_RELDCB.V
      2359**DCL      2359--DCLINIT
FPT_RELDCB.V.DCB#
      2359**DCL      2504<<ASSIGN   2512>>ASSIGN
M$RELDCB
      2257**DCL-ENT  2506--CALL
OALLOC_FAILED
      2517**LABEL    2508--CALLALT
THE$DCB.ACTPOS
      2401**DCL      2401--REDEF
THE$DCB.ARS#
      2375**DCL      2375--REDEF
THE$DCB.ATTR
      2394**DCL      2395--REDEF
THE$DCB.BORROW
      2409**DCL      2409--REDEF    2409--REDEF    2409--REDEF
PL6.E3A0      #007=VDG$OFREE_DCB File=VDG$OBJECTS.:VDA5TSI                       FRI 07/04/97 11:22 Page:289
THE$DCB.DCBNAME.L
      2423**DCL      2423--IMP-SIZ  2493>>IF       2495>>IF
THE$DCB.DCBNAME.N
      2423**DCL      2495>>IF
THE$DCB.EOMCHAR#
      2379**DCL      2379--REDEF
THE$DCB.FLDID
      2404**DCL      2404--REDEF
THE$DCB.FORM$
      2398**DCL      2398--REDEF
THE$DCB.FSECT
      2414**DCL      2414--REDEF
THE$DCB.FSN#
      2391**DCL      2391--REDEF    2391--REDEF    2392--REDEF
THE$DCB.HEADER$
      2397**DCL      2397--REDEF
THE$DCB.IXTNSIZE#
      2395**DCL      2395--REDEF
THE$DCB.LASTSTA$
      2384**DCL      2384--REDEF
THE$DCB.LVL
      2410**DCL      2410--REDEF
THE$DCB.NAME#.C
      2385**DCL      2385--REDEF
THE$DCB.NOEOF
      2407**DCL      2407--REDEF
THE$DCB.NRECS#
      2396**DCL      2396--REDEF
THE$DCB.NRECX
      2415**DCL      2415--REDEF
THE$DCB.OHDR
      2407**DCL      2407--REDEF
THE$DCB.ORG#
      2390**DCL      2390--REDEF
THE$DCB.PRECNO
      2413**DCL      2413--REDEF
PL6.E3A0      #007=VDG$OFREE_DCB File=VDG$OBJECTS.:VDA5TSI                       FRI 07/04/97 11:22 Page:290
THE$DCB.RCSZ
      2419**DCL      2419--REDEF
THE$DCB.RES#
      2386**DCL      2386--REDEF
THE$DCB.SETX
      2398**DCL      2398--REDEF
THE$DCB.TAB$
      2398**DCL      2398--REDEF
THE$DCB.TDA
      2412**DCL      2413--REDEF
THE$DCB.WSN#
      2386**DCL      2386--REDEF
THE_DCB$
      2364**DCL      2369--IMP-PTR  2492<<ASSIGN   2493>>IF       2495>>IF       2495>>IF
VD$ERR.DCB#
      2486**DCL      2512<<ASSIGN
VD$ERR.ERR
      2481**DCL      2510<<ASSIGN
VD$ERR.FLAGLEV#
      2486**DCL      2511<<ASSIGN
VDG$EREPORT_ERROR
      2327**DCL-ENT  2513--CALL
VDG$OALLOC
      2328**DCL-ENT  2508--CALL
VD_DCBS.FREE_DCB#
      2344**DCL      2500<<ASSIGN
VD_DCBS.N_FREE#
      2344**DCL      2499>>IF       2500>>ASSIGN   2501<<ASSIGN   2501>>ASSIGN
VD_ERR$
      2365**DCL      2444--IMP-PTR  2508<>CALL     2510>>ASSIGN   2511>>ASSIGN   2512>>ASSIGN

PL6.E3A0      #008=VDG$OCLEAR_RANGE File=VDG$OBJECTS.:VDA5TSI                    FRI 07/04/97 11:22 Page:291
     1765        1        /*T***********************************************************/
     1766        2        /*T*                                                         */
     1767        3        /*T* Copyright (c) Bull HN Information Systems Inc., 1997    */
     1768        4        /*T*                                                         */
     1769        5        /*T***********************************************************/
     1770        6
     1771        7        /*D* NAME: VDG$OCLEAR_RANGE
     1772        8            PARAMETERS:
     1773        9                VD$RANGE - VD$RANGE to clear.
     1774       10            INPUT:
     1775       11                None.
     1776       12            OUTPUT:
     1777       13                VD$RANGE will contain %CLEAR.
     1778       14            DESCRIPTION:
     1779       15                The VD$RANGE is cleared by calling VDG$OCLEAR_LOCATION twice.
     1780       16        */
     1781       17
     1782       18        VDG$OCLEAR_RANGE: PROC (VD$RANGE) ALTRET;
     1783       19
     1784       20
     1785       21        %INCLUDE VD_MACROS_M;
     1786     2236
     1787     2237
     1788     2238        %VD$RANGE (STCLASS=PARAM);
     1789     2307
     1790     2308
     1791     2309    1   DCL VDG$OCLEAR_LOCATION ENTRY (1) ALTRET;
     1792     2310
     1793     2311
     1794     2312    1           CALL VDG$OCLEAR_LOCATION (VD$RANGE.START)
     1795     2313    1           WHENALTRETURN
     1796     2314    2           DO;
     1797     2315    2              ALTRETURN;
     1798     2316    2              END;
     1799     2317
     1800     2318    1           CALL VDG$OCLEAR_LOCATION (VD$RANGE.ENDD)
     1801     2319    1           WHENALTRETURN
PL6.E3A0      #008=VDG$OCLEAR_RANGE File=VDG$OBJECTS.:VDA5TSI                    FRI 07/04/97 11:22 Page:292
     1802     2320    2           DO;
     1803     2321    2              ALTRETURN;
     1804     2322    2              END;
     1805     2323
     1806     2324    1           RETURN;
     1807     2325
     1808     2326    1   END VDG$OCLEAR_RANGE;
     1809     2327        %EOD;

PL6.E3A0      #008=VDG$OCLEAR_RANGE File=VDG$OBJECTS.:VDA5TSI                    FRI 07/04/97 11:22 Page:293
--  Include file information  --

   VD_MACROS_M.:VDA5TOU  is referenced.
   B$JIT_C.:E04TOU  was found in the system file and is never referenced.
   CP_6_C.:E04TOU  was found in the system file and is never referenced.
      No diagnostics issued in procedure VDG$OCLEAR_RANGE.

   Procedure VDG$OCLEAR_RANGE requires 18 words for executable code.
   Procedure VDG$OCLEAR_RANGE requires 6 words of local(AUTO) storage.

PL6.E3A0      #008=VDG$OCLEAR_RANGE File=VDG$OBJECTS.:VDA5TSI                    FRI 07/04/97 11:22 Page:294

 Object Unit name= VDG$OCLEAR_RANGE                           File name= VDG$OBJECTS.:VDA5TOU
 UTS= JUL 04 '97 11:22:28.44 FRI                              Compiler= PL-6/E31         Sev=      00
 SharedLib= :SHARED_SYSTEM                                    Alt SharedLib=


    ****  Control sections  ****

 Sect   Type Bound  Init  Size OctSiz  Section name(segment info)
    0   Proc  even  none    18     22  VDG$OCLEAR_RANGE

    ****  Entry defs  ****

                              Check   Calling
                             calling  sequence
  Sect OctLoc Primary Altret sequence   type   Parms  Name
     0      0   yes    yes     yes      Std        1  VDG$OCLEAR_RANGE

  ****  Entry refs  ****

         Check        Calling
        calling       sequence
Altret sequence SRef   type   Args  Name
 yes     yes           Std       1 VDG$OCLEAR_LOCATION
                       nStd      0 X66_AUTO_1
                       Std       0 B_CONSPOOL_D
                       nStd      0 X66_AALT
                       nStd      0 X66_ARET

  ****  Data refs  ****

  Flags:  r = read only, s = secondary
Flgs Name                             Flgs Name                             Flgs Name
     B_VECTNIL
PL6.E3A0      #008=VDG$OCLEAR_RANGE File=VDG$OBJECTS.:VDA5TSI                    FRI 07/04/97 11:22 Page:295


     1765        1        /*T***********************************************************/
     1766        2        /*T*                                                         */
     1767        3        /*T* Copyright (c) Bull HN Information Systems Inc., 1997    */
     1768        4        /*T*                                                         */
     1769        5        /*T***********************************************************/
     1770        6
     1771        7        /*D* NAME: VDG$OCLEAR_RANGE
     1772        8            PARAMETERS:
     1773        9                VD$RANGE - VD$RANGE to clear.
     1774       10            INPUT:
     1775       11                None.
     1776       12            OUTPUT:
     1777       13                VD$RANGE will contain %CLEAR.
     1778       14            DESCRIPTION:
     1779       15                The VD$RANGE is cleared by calling VDG$OCLEAR_LOCATION twice.
     1780       16        */
     1781       17
     1782       18        VDG$OCLEAR_RANGE: PROC (VD$RANGE) ALTRET;

     18  0 000000   000000 700200 xent  VDG$OCLEAR_* TSX0  ! X66_AUTO_1
         0 000001   000006 000001                    ZERO    6,1

     1783       19
     1784       20
     1785       21        %INCLUDE VD_MACROS_M;
     1786     2236
     1787     2237
     1788     2238        %VD$RANGE (STCLASS=PARAM);
     1789     2307
     1790     2308
     1791     2309    1   DCL VDG$OCLEAR_LOCATION ENTRY (1) ALTRET;
     1792     2310
     1793     2311
     1794     2312    1           CALL VDG$OCLEAR_LOCATION (VD$RANGE.START)

   2312  0 000002   200003 630500                    EPPR0   @VD$RANGE,,AUTO
PL6.E3A0      #008=VDG$OCLEAR_RANGE File=VDG$OBJECTS.:VDA5TSI                    FRI 07/04/97 11:22 Page:296
         0 000003   000017 631400 xsym               EPPR1   B_VECTNIL+15
         0 000004   000000 701000 xent               TSX1    VDG$OCLEAR_LOCATION
         0 000005   000007 702000 0                  TSX2    s:2315
         0 000006   000010 710000 0                  TRA     s:2318

     1795     2313    1           WHENALTRETURN
     1796     2314    2           DO;

     1797     2315    2              ALTRETURN;

   2315  0 000007   000000 702200 xent               TSX2  ! X66_AALT

     1798     2316    2              END;
     1799     2317
     1800     2318    1           CALL VDG$OCLEAR_LOCATION (VD$RANGE.ENDD)

   2318  0 000010   200003 236100                    LDQ     @VD$RANGE,,AUTO
         0 000011   000011 036003                    ADLQ    9,DU
         0 000012   200004 756100                    STQ     @VD$RANGE+1,,AUTO
         0 000013   200004 630500                    EPPR0   @VD$RANGE+1,,AUTO
         0 000014   000017 631400 xsym               EPPR1   B_VECTNIL+15
         0 000015   000000 701000 xent               TSX1    VDG$OCLEAR_LOCATION
         0 000016   000020 702000 0                  TSX2    s:2321
         0 000017   000021 710000 0                  TRA     s:2324

     1801     2319    1           WHENALTRETURN
     1802     2320    2           DO;

     1803     2321    2              ALTRETURN;

   2321  0 000020   000000 702200 xent               TSX2  ! X66_AALT

     1804     2322    2              END;
     1805     2323
     1806     2324    1           RETURN;

   2324  0 000021   000000 702200 xent               TSX2  ! X66_ARET
PL6.E3A0      #008=VDG$OCLEAR_RANGE File=VDG$OBJECTS.:VDA5TSI                    FRI 07/04/97 11:22 Page:297
     1807     2325
     1808     2326    1   END VDG$OCLEAR_RANGE;
     1809     2327        %EOD;

PL6.E3A0      #008=VDG$OCLEAR_RANGE File=VDG$OBJECTS.:VDA5TSI                    FRI 07/04/97 11:22 Page:298
--  Include file information  --

   VD_MACROS_M.:VDA5TOU  is referenced.
   B$JIT_C.:E04TOU  was found in the system file and is never referenced.
   CP_6_C.:E04TOU  was found in the system file and is never referenced.
      No diagnostics issued in procedure VDG$OCLEAR_RANGE.
PL6.E3A0      #008=VDG$OCLEAR_RANGE File=VDG$OBJECTS.:VDA5TSI                    FRI 07/04/97 11:22 Page:299

 **** Variables and constants ****

  ****  Auto variables  ****

  ****  Scalars and arrays  ****
OctLoc.c.b A Datatyp(siz) R M Lvl/name                 OctLoc.c.b A Datatyp(siz) R M Lvl/name

     3-0-0/w PTR         r     1 @VD$RANGE                 *0-0-0/w STRC(648)   r     1 VD$RANGE


   Procedure VDG$OCLEAR_RANGE requires 18 words for executable code.
   Procedure VDG$OCLEAR_RANGE requires 6 words of local(AUTO) storage.
PL6.E3A0      #008=VDG$OCLEAR_RANGE File=VDG$OBJECTS.:VDA5TSI                    FRI 07/04/97 11:22 Page:300
          *** CROSS REFERENCE LISTING ***
**     DENOTES     IDENTIFIER DEFINITION
<<                 IDENTIFIER'S VALUE SET
>>                 IDENTIFIER'S VALUE USED
<>                 IDENTIFIER SET AND/OR USED
--                 IDENTIFIER REFERENCED
PL6.E3A0      #008=VDG$OCLEAR_RANGE File=VDG$OBJECTS.:VDA5TSI                    FRI 07/04/97 11:22 Page:301
          MINI XREF LISTING

VD$RANGE
      2246**DCL        18--PROC
VD$RANGE.ENDD
      2288**DCL      2318<>CALL
VD$RANGE.START
      2260**DCL      2312<>CALL
VDG$OCLEAR_LOCATION
      2309**DCL-ENT  2312--CALL     2318--CALL

PL6.E3A0      #009=VDG$OCLEAR_LOCATION File=VDG$OBJECTS.:VDA5TSI                 FRI 07/04/97 11:22 Page:302
     1810        1        /*T***********************************************************/
     1811        2        /*T*                                                         */
     1812        3        /*T* Copyright (c) Bull HN Information Systems Inc., 1997    */
     1813        4        /*T*                                                         */
     1814        5        /*T***********************************************************/
     1815        6
     1816        7        /*D* NAME: VDG$OCLEAR_LOCATION
     1817        8            PARAMETERS:
     1818        9                VD$LOCATION - VD$LOCATION to clear.
     1819       10            INPUT:
     1820       11                None.
     1821       12            OUTPUT:
     1822       13                VD$LOCATION will contain %CLEAR.
     1823       14            DESCRIPTION:
     1824       15                The VD$LOCATION is cleared by calling %CLEARKEY for
     1825       16                each element of the KEY array.
     1826       17        */
     1827       18
     1828       19        VDG$OCLEAR_LOCATION: PROC (VD$LOCATION) ALTRET;
     1829       20
     1830       21
     1831       22        %INCLUDE VD_MACROS_M;
     1832     2237
     1833     2238
     1834     2239        %VD$LOCATION (STCLASS=PARAM);
     1835     2267
     1836     2268
     1837     2269    1   DCL VDG$OFREE           ENTRY (1) ALTRET;
     1838     2270
     1839     2271    1   DCL KEY_INDEX UBIN;
     1840     2272
     1841     2273
     1842     2274        %VD$TEXTC_REMOTE;
     1843     2335
     1844     2336
     1845     2337    2           DO KEY_INDEX = 0 TO %MX_LOCATION_LEVELS - 1;
     1846     2338                   %CLEARKEY (KEY=VD$LOCATION.KEY, INDX=KEY_INDEX);
PL6.E3A0      #009=VDG$OCLEAR_LOCATION File=VDG$OBJECTS.:VDA5TSI                 FRI 07/04/97 11:22 Page:303
     1847     2348    2              END;
     1848     2349
     1849     2350    1           VD$LOCATION = %CLEAR;
     1850     2351
     1851     2352    1           RETURN;
     1852     2353
     1853     2354    1   END VDG$OCLEAR_LOCATION;

PL6.E3A0      #009=VDG$OCLEAR_LOCATION File=VDG$OBJECTS.:VDA5TSI                 FRI 07/04/97 11:22 Page:304
--  Include file information  --

   VD_MACROS_M.:VDA5TOU  is referenced.
   B$JIT_C.:E04TOU  was found in the system file and is never referenced.
   CP_6_C.:E04TOU  was found in the system file and is never referenced.
      No diagnostics issued in procedure VDG$OCLEAR_LOCATION.

   Procedure VDG$OCLEAR_LOCATION requires 34 words for executable code.
   Procedure VDG$OCLEAR_LOCATION requires 8 words of local(AUTO) storage.

    No errors detected in file VDG$OBJECTS.:VDA5TSI    .

PL6.E3A0      #009=VDG$OCLEAR_LOCATION File=VDG$OBJECTS.:VDA5TSI                 FRI 07/04/97 11:22 Page:305

 Object Unit name= VDG$OCLEAR_LOCATION                        File name= VDG$OBJECTS.:VDA5TOU
 UTS= JUL 04 '97 11:22:32.56 FRI                              Compiler= PL-6/E31         Sev=      00
 SharedLib= :SHARED_SYSTEM                                    Alt SharedLib=


    ****  Control sections  ****

 Sect   Type Bound  Init  Size OctSiz  Section name(segment info)
    0   Proc  even  none    34     42  VDG$OCLEAR_LOCATION

    ****  Entry defs  ****

                              Check   Calling
                             calling  sequence
  Sect OctLoc Primary Altret sequence   type   Parms  Name
     0      0   yes    yes     yes      Std        1  VDG$OCLEAR_LOCATION

  ****  Entry refs  ****

         Check        Calling
        calling       sequence
Altret sequence SRef   type   Args  Name
 yes     yes           Std       1 VDG$OFREE
                       nStd      0 X66_AUTO_1
                       Std       0 B_CONSPOOL_D
                       nStd      0 X66_AALT
                       nStd      0 X66_ARET

  ****  Data refs  ****

  Flags:  r = read only, s = secondary
Flgs Name                             Flgs Name                             Flgs Name
     B_VECTNIL
PL6.E3A0      #009=VDG$OCLEAR_LOCATION File=VDG$OBJECTS.:VDA5TSI                 FRI 07/04/97 11:22 Page:306


     1810        1        /*T***********************************************************/
     1811        2        /*T*                                                         */
     1812        3        /*T* Copyright (c) Bull HN Information Systems Inc., 1997    */
     1813        4        /*T*                                                         */
     1814        5        /*T***********************************************************/
     1815        6
     1816        7        /*D* NAME: VDG$OCLEAR_LOCATION
     1817        8            PARAMETERS:
     1818        9                VD$LOCATION - VD$LOCATION to clear.
     1819       10            INPUT:
     1820       11                None.
     1821       12            OUTPUT:
     1822       13                VD$LOCATION will contain %CLEAR.
     1823       14            DESCRIPTION:
     1824       15                The VD$LOCATION is cleared by calling %CLEARKEY for
     1825       16                each element of the KEY array.
     1826       17        */
     1827       18
     1828       19        VDG$OCLEAR_LOCATION: PROC (VD$LOCATION) ALTRET;

     19  0 000000   000000 700200 xent  VDG$OCLEAR_* TSX0  ! X66_AUTO_1
         0 000001   000010 000001                    ZERO    8,1

     1829       20
     1830       21
     1831       22        %INCLUDE VD_MACROS_M;
     1832     2237
     1833     2238
     1834     2239        %VD$LOCATION (STCLASS=PARAM);
     1835     2267
     1836     2268
     1837     2269    1   DCL VDG$OFREE           ENTRY (1) ALTRET;
     1838     2270
     1839     2271    1   DCL KEY_INDEX UBIN;
     1840     2272
     1841     2273
PL6.E3A0      #009=VDG$OCLEAR_LOCATION File=VDG$OBJECTS.:VDA5TSI                 FRI 07/04/97 11:22 Page:307
     1842     2274        %VD$TEXTC_REMOTE;
     1843     2335
     1844     2336
     1845     2337    2           DO KEY_INDEX = 0 TO %MX_LOCATION_LEVELS - 1;

   2337  0 000002   200004 450100                    STZ     KEY_INDEX,,AUTO
         0 000003   000032 710000 0                  TRA     s:2348+3

     1846     2338                   %CLEARKEY (KEY=VD$LOCATION.KEY, INDX=KEY_INDEX);

   2345  0 000004   200004 235100                    LDA     KEY_INDEX,,AUTO
         0 000005   000001 735000                    ALS     1
         0 000006   200003 470500                    LDP0    @VD$LOCATION,,AUTO
         0 000007   000000 720105                    LXL0    0,AL,PR0
         0 000010   000002 100003                    CMPX0   2,DU
         0 000011   000022 601000 0                  TNZ     s:2346+1

   2345  0 000012   000001 471505                    LDP1    1,AL,PR0
         0 000013   200006 451500                    STP1    KEY_INDEX+2,,AUTO
         0 000014   200006 630500                    EPPR0   KEY_INDEX+2,,AUTO
         0 000015   000017 631400 xsym               EPPR1   B_VECTNIL+15
         0 000016   000000 701000 xent               TSX1    VDG$OFREE
         0 000017   000021 702000 0                  TSX2    s:2346
         0 000020   000022 710000 0                  TRA     s:2346+1

   2346  0 000021   000000 702200 xent               TSX2  ! X66_AALT

   2346  0 000022   200004 235100                    LDA     KEY_INDEX,,AUTO
         0 000023   000001 735000                    ALS     1
         0 000024   200003 470500                    LDP0    @VD$LOCATION,,AUTO
         0 000025   000000 450105                    STZ     0,AL,PR0
         0 000026   000001 450105                    STZ     1,AL,PR0

     1847     2348    2              END;

   2348  0 000027   200004 236100                    LDQ     KEY_INDEX,,AUTO
         0 000030   000001 036007                    ADLQ    1,DL
PL6.E3A0      #009=VDG$OCLEAR_LOCATION File=VDG$OBJECTS.:VDA5TSI                 FRI 07/04/97 11:22 Page:308
         0 000031   200004 756100                    STQ     KEY_INDEX,,AUTO
         0 000032   200004 235100                    LDA     KEY_INDEX,,AUTO
         0 000033   000004 115007                    CMPA    4,DL
         0 000034   000004 602000 0                  TNC     s:2345

     1848     2349
     1849     2350    1           VD$LOCATION = %CLEAR;

   2350  0 000035   200003 470500                    LDP0    @VD$LOCATION,,AUTO
         0 000036   000100 100400                    MLR     fill='000'O
         0 000037   000002 000001 xsym               ADSC9   B_VECTNIL+2              cn=0,n=1
         0 000040   000000 000044                    ADSC9   0,,PR0                   cn=0,n=36

     1850     2351
     1851     2352    1           RETURN;

   2352  0 000041   000000 702200 xent               TSX2  ! X66_ARET
     1852     2353
     1853     2354    1   END VDG$OCLEAR_LOCATION;

PL6.E3A0      #009=VDG$OCLEAR_LOCATION File=VDG$OBJECTS.:VDA5TSI                 FRI 07/04/97 11:22 Page:309
--  Include file information  --

   VD_MACROS_M.:VDA5TOU  is referenced.
   B$JIT_C.:E04TOU  was found in the system file and is never referenced.
   CP_6_C.:E04TOU  was found in the system file and is never referenced.
      No diagnostics issued in procedure VDG$OCLEAR_LOCATION.
PL6.E3A0      #009=VDG$OCLEAR_LOCATION File=VDG$OBJECTS.:VDA5TSI                 FRI 07/04/97 11:22 Page:310

 **** Variables and constants ****

  ****  Auto variables  ****

  ****  Scalars and arrays  ****
OctLoc.c.b A Datatyp(siz) R M Lvl/name                 OctLoc.c.b A Datatyp(siz) R M Lvl/name

     3-0-0/w PTR         r     1 @VD$LOCATION               4-0-0/w UBIN        r     1 KEY_INDEX
    *0-0-0/w STRC(324)   r     1 VD$LOCATION

  ****  BASED and DCB variables  ****

  ****  Scalars and arrays  ****
OctLoc.c.b A Datatyp(siz) R M Lvl/name                 OctLoc.c.b A Datatyp(siz) R M Lvl/name

     0-0-0/w ASTR(81)    r     1 VD$TEXTC_REMOTE


   Procedure VDG$OCLEAR_LOCATION requires 34 words for executable code.
   Procedure VDG$OCLEAR_LOCATION requires 8 words of local(AUTO) storage.

    No errors detected in file VDG$OBJECTS.:VDA5TSI    .
PL6.E3A0      #009=VDG$OCLEAR_LOCATION File=VDG$OBJECTS.:VDA5TSI                 FRI 07/04/97 11:22 Page:311
          *** CROSS REFERENCE LISTING ***
**     DENOTES     IDENTIFIER DEFINITION
<<                 IDENTIFIER'S VALUE SET
>>                 IDENTIFIER'S VALUE USED
<>                 IDENTIFIER SET AND/OR USED
--                 IDENTIFIER REFERENCED
PL6.E3A0      #009=VDG$OCLEAR_LOCATION File=VDG$OBJECTS.:VDA5TSI                 FRI 07/04/97 11:22 Page:312
          MINI XREF LISTING

KEY_INDEX
      2271**DCL      2337<<DOINDEX  2345>>IF       2345>>CALL     2345>>CALL     2346>>ASSIGN
VD$LOCATION
      2247**DCL        19--PROC     2350<<ASSIGN
VD$LOCATION.KEY
      2261**DCL      2346<<ASSIGN
VD$LOCATION.KEY.REP#
      2263**DCL      2345>>IF
VD$LOCATION.KEY.V$
      2263**DCL      2345>>CALL     2345>>CALL
VD$TEXTC_REMOTE
      2299**DCL      2345<>CALL
VD$TEXTC_REMOTE.LENGTH#
      2328**DCL      2330--IMP-SIZ  2345>>CALL
VDG$OFREE
      2269**DCL-ENT  2345--CALL
