VERSION A05

PL6.E3A0      #001=STUBS File=VDG$STUBS.:VDA5TSI                                 FRI 07/04/97 11:22 Page:1
        1        1        /*M* VDG$STUBS - Stubs for testing 6Edit */
        2        2        /*T***********************************************************/
        3        3        /*T*                                                         */
        4        4        /*T* Copyright (c) Bull HN Information Systems Inc., 1997    */
        5        5        /*T*                                                         */
        6        6        /*T***********************************************************/
        7        7
        8        8        STUBS:  PROC (P1, P2, P3, P4, P5);
        9        9
       10       10        %INCLUDE CP_6;
       11       91
       12       92
       13       93    1   DCL P1 SBIN;
       14       94    1   DCL P2 SBIN;
       15       95    1   DCL P3 SBIN;
       16       96    1   DCL P4 SBIN;
       17       97    1   DCL P5 SBIN;
       18       98
       19       99    1   VDG$MACC_FOPEN: ENTRY (P1, P2, P3, P4);
       20      100    1   VDG$MACC_FOPEN_OPEN: ENTRY (P1, P2);
       21      101    1   VDG$MACC_FDETACH_CLOSE: ENTRY (P1);
       22      102    1   VDG$MACC_FREKEY_CLOSE_ORIG: ENTRY (P1);
       23      103    1   VDG$MACC_FREKEY_OPEN_SRC_XSA: ENTRY (P1, P2);
       24      104    1   VDG$MACC_FREKEY_OPEN_DEST: ENTRY (P1, P2, P3);
       25      105    1   VDG$MACC_FREKEY_PWRITE: ENTRY (P1, P2);
       26      106    1   VDG$MACC_FREKEY_CLOSE_SRC_XSA: ENTRY (P1);
       27      107    1   VDG$MACC_FREKEY_CLOSE_DEST: ENTRY (P1);
       28      108    1   VDG$MACC_FREKEY_REOPEN_DEST: ENTRY (P1);
       29      109    1   VDG$MACC_FREKEY_REOPEN_SRC: ENTRY (P1);
       30      110    1   VDG$MACC_LREAD: ENTRY (P1, P2, P3, P4);
       31      111    1   VDG$MACC_LWRITE: ENTRY (P1, P2, P3, P4);
       32      112    1   VDG$MACC_LDELETE: ENTRY (P1, P2);
       33      113    1   VDG$MACC_RETURN: ENTRY (P1);
       34      114    1   VDG$MACC_PREAD_B4_READ: ENTRY (P1, P2, P3, P4);
       35      115    1   VDG$MACC_PREAD_AF_READ: ENTRY (P1, P2, P3);
       36      116    1   VDG$MACC_PREAD_B4_PRECORD: ENTRY (P1, P2, P3, P4);
       37      117    1   VDG$MACC_PREAD_AF_PRECORD: ENTRY (P1, P2);
PL6.E3A0      #001=STUBS File=VDG$STUBS.:VDA5TSI                                 FRI 07/04/97 11:22 Page:2
       38      118    1   VDG$MACC_PREAD_PFIL: ENTRY (P1, P2);
       39      119    1   VDG$MACC_PFLUSH: ENTRY (P1, P2);
       40      120    1   VDG$MACC_PFLUSH_WRITE: ENTRY (P1, P2, P3);
       41      121    1   VDG$MACC_PFLUSH_REWRITE: ENTRY (P1, P2);
       42      122    1   VDG$MACC_PRETURN: ENTRY (P1);
       43      123    1   VDG$MACC_PDELETE_EOF_KEY: ENTRY (P1, P2, P3);
       44      124    1   VDG$MACC_PDELETE_BOF_KEY: ENTRY (P1, P2, P3);
       45      125    1   VDG$MACC_PDELETE_DELREC: ENTRY (P1, P2, P3);
       46      126    1   VDG$MACC_PDELETE_DCB_POS: ENTRY (P1, P2, P3);
       47      127
       48      128    1   VDG$MEVAL_START_EVAL: ENTRY (P1);
       49      129    1   VDG$MEVAL_FOUND_RANGE: ENTRY (P1);
       50      130
       51      131    1   VDG$MPRES_WCHANGE: ENTRY (P1, P2);
       52      132    1   VDG$MPRES_WCHANGE_RETURN: ENTRY (P1, P2);
       53      133    1   VDG$MPRES_WNEW: ENTRY (P1, P2);
       54      134    1   VDG$MPRES_WNEW_RETURN: ENTRY (P1, P2);
       55      135    1   VDG$MPRES_WREMOVE: ENTRY (P1);
       56      136    1   VDG$MPRES_RETURN: ENTRY (P1);
       57      137    1   VDG$MPRES_RDELETE: ENTRY (P1, P2, P3);
       58      138    1   VDG$MPRES_RDELETE_RETURN: ENTRY;
       59      139    1   VDG$MPRES_RWRITE: ENTRY (P1, P2, P3, P4);
       60      140    1   VDG$MPRES_RWRITE_RETURN: ENTRY;
       61      141    1   VDG$MPRES_WERASE: ENTRY (P1);
       62      142    1   VDG$MPRES_WSCROLL_DOWN: ENTRY (P1, P2);
       63      143    1   VDG$MPRES_WSCROLL_UP: ENTRY (P1, P2, P3, P4);
       64      144    1   VDG$MPRES_WREAD: ENTRY (P1, P2, P3);
       65      145    1   VDG$MPRES_WREAD_RETURN: ENTRY (P1, P2);
       66      146    1   VDG$MPRES_WWRITE: ENTRY (P1);
       67      147    1   VDG$MPRES_NFLUSH: ENTRY;
       68      148    1   VDG$MPRES_FEPSTRMCTL: ENTRY (P1, P2, P3);
       69      149    1   VDG$MPRES_FEPOPEN: ENTRY (P1, P2, P3, P4);
       70      150    1   VDG$MPRES_FEPDEVICE: ENTRY (P1);
       71      151    1   VDG$MPRES_FEPWRITE: ENTRY (P1, P2, P3);
       72      152    1   VDG$MPRES_FEPWEOF: ENTRY (P1, P2);
       73      153    1   VDG$MPRES_FEPERASE: ENTRY (P1, P2, P3);
       74      154    1   VDG$MPRES_FEPREAD: ENTRY (P1, P2);
PL6.E3A0      #001=STUBS File=VDG$STUBS.:VDA5TSI                                 FRI 07/04/97 11:22 Page:3
       75      155    1   VDG$MPRES_FEPREAD_RETURN: ENTRY (P1, P2, P3);
       76      156    1   VDG$MPRES_FEPSINPUT: ENTRY (P1, P2);
       77      157    1   VDG$MPRES_FEPDELREC: ENTRY (P1, P2, P3);
       78      158
       79      159    1   VDG$MEVAL_RREAD: ENTRY (P1, P2, P3, P4);
       80      160    1   VDG$MEVAL_RREAD_RETURN: ENTRY (P1);
       81      161    1   VDG$MEVAL_RGET: ENTRY (P1, P2);
       82      162    1   VDG$MEVAL_RGET_RETURN: ENTRY (P1, P2);
       83      163    1   VDG$MEVAL_RPUT: ENTRY (P1, P2, P3, P4);
       84      164    1   VDG$MEVAL_RPUT_EXISTING_KEY: ENTRY (P1, P2);
       85      165    1   VDG$MEVAL_RPUT_RETURN: ENTRY (P1, P2);
       86      166
       87      167    1           RETURN;
       88      168
       89      169    1   END STUBS;

PL6.E3A0      #001=STUBS File=VDG$STUBS.:VDA5TSI                                 FRI 07/04/97 11:22 Page:4
--  Include file information  --

   CP_6.:LIBRARY  cannot be made into a system file and is referenced.
   B$JIT_C.:E04TOU  was found in the system file and is never referenced.
   CP_6_C.:E04TOU  was found in the system file and is referenced.
      No diagnostics issued in procedure STUBS.

   Procedure STUBS requires 195 words for executable code.
   Procedure STUBS requires 8 words of local(AUTO) storage.

    No errors detected in file VDG$STUBS.:VDA5TSI    .

PL6.E3A0      #001=STUBS File=VDG$STUBS.:VDA5TSI                                 FRI 07/04/97 11:22 Page:5

 Object Unit name= STUBS                                      File name= VDG$STUBS.:VDA5TOU
 UTS= JUL 04 '97 11:22:45.00 FRI                              Compiler= PL-6/E31         Sev=      00
 SharedLib= :SHARED_SYSTEM                                    Alt SharedLib=


    ****  Control sections  ****

 Sect   Type Bound  Init  Size OctSiz  Section name(segment info)
    0   DCB   even  none     0      0  M$UC
    1   Proc  even  none   195    303  STUBS

    ****  Entry defs  ****

                              Check   Calling
                             calling  sequence
  Sect OctLoc Primary Altret sequence   type   Parms  Name
     1      0   yes            yes      Std        5  STUBS
     1      3                  yes      Std        4  VDG$MACC_FOPEN
     1      6                  yes      Std        2  VDG$MACC_FOPEN_OPEN
     1     11                  yes      Std        1  VDG$MACC_FDETACH_CLOSE
     1     14                  yes      Std        1  VDG$MACC_FREKEY_CLOSE_ORIG
     1     17                  yes      Std        2  VDG$MACC_FREKEY_OPEN_SRC_XSA
     1     22                  yes      Std        3  VDG$MACC_FREKEY_OPEN_DEST
     1     25                  yes      Std        2  VDG$MACC_FREKEY_PWRITE
     1     30                  yes      Std        1  VDG$MACC_FREKEY_CLOSE_SRC_XSA
     1     33                  yes      Std        1  VDG$MACC_FREKEY_CLOSE_DEST
     1     36                  yes      Std        1  VDG$MACC_FREKEY_REOPEN_DEST
     1     41                  yes      Std        1  VDG$MACC_FREKEY_REOPEN_SRC
     1     44                  yes      Std        4  VDG$MACC_LREAD
     1     47                  yes      Std        4  VDG$MACC_LWRITE
     1     52                  yes      Std        2  VDG$MACC_LDELETE
     1     55                  yes      Std        1  VDG$MACC_RETURN
     1     60                  yes      Std        4  VDG$MACC_PREAD_B4_READ
     1     63                  yes      Std        3  VDG$MACC_PREAD_AF_READ
     1     66                  yes      Std        4  VDG$MACC_PREAD_B4_PRECORD
     1     71                  yes      Std        2  VDG$MACC_PREAD_AF_PRECORD
     1     74                  yes      Std        2  VDG$MACC_PREAD_PFIL
PL6.E3A0      #001=STUBS File=VDG$STUBS.:VDA5TSI                                 FRI 07/04/97 11:22 Page:6
     1     77                  yes      Std        2  VDG$MACC_PFLUSH
     1    102                  yes      Std        3  VDG$MACC_PFLUSH_WRITE
     1    105                  yes      Std        2  VDG$MACC_PFLUSH_REWRITE
     1    110                  yes      Std        1  VDG$MACC_PRETURN
     1    113                  yes      Std        3  VDG$MACC_PDELETE_EOF_KEY
     1    116                  yes      Std        3  VDG$MACC_PDELETE_BOF_KEY
     1    121                  yes      Std        3  VDG$MACC_PDELETE_DELREC
     1    124                  yes      Std        3  VDG$MACC_PDELETE_DCB_POS
     1    127                  yes      Std        1  VDG$MEVAL_START_EVAL
     1    132                  yes      Std        1  VDG$MEVAL_FOUND_RANGE
     1    135                  yes      Std        2  VDG$MPRES_WCHANGE
     1    140                  yes      Std        2  VDG$MPRES_WCHANGE_RETURN
     1    143                  yes      Std        2  VDG$MPRES_WNEW
     1    146                  yes      Std        2  VDG$MPRES_WNEW_RETURN
     1    151                  yes      Std        1  VDG$MPRES_WREMOVE
     1    154                  yes      Std        1  VDG$MPRES_RETURN
     1    157                  yes      Std        3  VDG$MPRES_RDELETE
     1    162                  yes      Std        0  VDG$MPRES_RDELETE_RETURN
     1    165                  yes      Std        4  VDG$MPRES_RWRITE
     1    170                  yes      Std        0  VDG$MPRES_RWRITE_RETURN
     1    173                  yes      Std        1  VDG$MPRES_WERASE
     1    176                  yes      Std        2  VDG$MPRES_WSCROLL_DOWN
     1    201                  yes      Std        4  VDG$MPRES_WSCROLL_UP
     1    204                  yes      Std        3  VDG$MPRES_WREAD
     1    207                  yes      Std        2  VDG$MPRES_WREAD_RETURN
     1    212                  yes      Std        1  VDG$MPRES_WWRITE
     1    215                  yes      Std        0  VDG$MPRES_NFLUSH
     1    220                  yes      Std        3  VDG$MPRES_FEPSTRMCTL
     1    223                  yes      Std        4  VDG$MPRES_FEPOPEN
     1    226                  yes      Std        1  VDG$MPRES_FEPDEVICE
     1    231                  yes      Std        3  VDG$MPRES_FEPWRITE
     1    234                  yes      Std        2  VDG$MPRES_FEPWEOF
     1    237                  yes      Std        3  VDG$MPRES_FEPERASE
     1    242                  yes      Std        2  VDG$MPRES_FEPREAD
     1    245                  yes      Std        3  VDG$MPRES_FEPREAD_RETURN
     1    250                  yes      Std        2  VDG$MPRES_FEPSINPUT
     1    253                  yes      Std        3  VDG$MPRES_FEPDELREC
PL6.E3A0      #001=STUBS File=VDG$STUBS.:VDA5TSI                                 FRI 07/04/97 11:22 Page:7
     1    256                  yes      Std        4  VDG$MEVAL_RREAD
     1    261                  yes      Std        1  VDG$MEVAL_RREAD_RETURN
     1    264                  yes      Std        2  VDG$MEVAL_RGET
     1    267                  yes      Std        2  VDG$MEVAL_RGET_RETURN
     1    272                  yes      Std        4  VDG$MEVAL_RPUT
     1    275                  yes      Std        2  VDG$MEVAL_RPUT_EXISTING_KEY
     1    300                  yes      Std        2  VDG$MEVAL_RPUT_RETURN

  ****  Entry refs  ****

         Check        Calling
        calling       sequence
Altret sequence SRef   type   Args  Name
                       nStd      0 X66_AUTO_5
                       nStd      0 X66_ARET

  ****  Data refs  ****

  Flags:  r = read only, s = secondary
Flgs Name                             Flgs Name                             Flgs Name
     M$UC
PL6.E3A0      #001=STUBS File=VDG$STUBS.:VDA5TSI                                 FRI 07/04/97 11:22 Page:8


        1        1        /*M* VDG$STUBS - Stubs for testing 6Edit */
        2        2        /*T***********************************************************/
        3        3        /*T*                                                         */
        4        4        /*T* Copyright (c) Bull HN Information Systems Inc., 1997    */
        5        5        /*T*                                                         */
        6        6        /*T***********************************************************/
        7        7
        8        8        STUBS:  PROC (P1, P2, P3, P4, P5);

      8  1 000000   000000 700200 xent  STUBS        TSX0  ! X66_AUTO_5
         1 000001   000010 000005                    ZERO    8,5
         1 000002   000005 710000 1                  TRA     s:99+2

        9        9
       10       10        %INCLUDE CP_6;
       11       91
       12       92
       13       93    1   DCL P1 SBIN;
       14       94    1   DCL P2 SBIN;
       15       95    1   DCL P3 SBIN;
       16       96    1   DCL P4 SBIN;
       17       97    1   DCL P5 SBIN;
       18       98
       19       99    1   VDG$MACC_FOPEN: ENTRY (P1, P2, P3, P4);

     99  1 000003   000000 700200 xent  VDG$MACC_FO* TSX0  ! X66_AUTO_5
         1 000004   000010 000005                    ZERO    8,5
         1 000005   000010 710000 1                  TRA     s:100+2

       20      100    1   VDG$MACC_FOPEN_OPEN: ENTRY (P1, P2);

    100  1 000006   000000 700200 xent  VDG$MACC_FO* TSX0  ! X66_AUTO_5
         1 000007   000010 000005                    ZERO    8,5
         1 000010   000013 710000 1                  TRA     s:101+2

       21      101    1   VDG$MACC_FDETACH_CLOSE: ENTRY (P1);
PL6.E3A0      #001=STUBS File=VDG$STUBS.:VDA5TSI                                 FRI 07/04/97 11:22 Page:9

    101  1 000011   000000 700200 xent  VDG$MACC_FD* TSX0  ! X66_AUTO_5
         1 000012   000010 000005                    ZERO    8,5
         1 000013   000016 710000 1                  TRA     s:102+2

       22      102    1   VDG$MACC_FREKEY_CLOSE_ORIG: ENTRY (P1);

    102  1 000014   000000 700200 xent  VDG$MACC_FR* TSX0  ! X66_AUTO_5
         1 000015   000010 000005                    ZERO    8,5
         1 000016   000021 710000 1                  TRA     s:103+2

       23      103    1   VDG$MACC_FREKEY_OPEN_SRC_XSA: ENTRY (P1, P2);

    103  1 000017   000000 700200 xent  VDG$MACC_FR* TSX0  ! X66_AUTO_5
         1 000020   000010 000005                    ZERO    8,5
         1 000021   000024 710000 1                  TRA     s:104+2

       24      104    1   VDG$MACC_FREKEY_OPEN_DEST: ENTRY (P1, P2, P3);

    104  1 000022   000000 700200 xent  VDG$MACC_FR* TSX0  ! X66_AUTO_5
         1 000023   000010 000005                    ZERO    8,5
         1 000024   000027 710000 1                  TRA     s:105+2

       25      105    1   VDG$MACC_FREKEY_PWRITE: ENTRY (P1, P2);

    105  1 000025   000000 700200 xent  VDG$MACC_FR* TSX0  ! X66_AUTO_5
         1 000026   000010 000005                    ZERO    8,5
         1 000027   000032 710000 1                  TRA     s:106+2

       26      106    1   VDG$MACC_FREKEY_CLOSE_SRC_XSA: ENTRY (P1);

    106  1 000030   000000 700200 xent  VDG$MACC_FR* TSX0  ! X66_AUTO_5
         1 000031   000010 000005                    ZERO    8,5
         1 000032   000035 710000 1                  TRA     s:107+2

       27      107    1   VDG$MACC_FREKEY_CLOSE_DEST: ENTRY (P1);

PL6.E3A0      #001=STUBS File=VDG$STUBS.:VDA5TSI                                 FRI 07/04/97 11:22 Page:10
    107  1 000033   000000 700200 xent  VDG$MACC_FR* TSX0  ! X66_AUTO_5
         1 000034   000010 000005                    ZERO    8,5
         1 000035   000040 710000 1                  TRA     s:108+2

       28      108    1   VDG$MACC_FREKEY_REOPEN_DEST: ENTRY (P1);

    108  1 000036   000000 700200 xent  VDG$MACC_FR* TSX0  ! X66_AUTO_5
         1 000037   000010 000005                    ZERO    8,5
         1 000040   000043 710000 1                  TRA     s:109+2

       29      109    1   VDG$MACC_FREKEY_REOPEN_SRC: ENTRY (P1);

    109  1 000041   000000 700200 xent  VDG$MACC_FR* TSX0  ! X66_AUTO_5
         1 000042   000010 000005                    ZERO    8,5
         1 000043   000046 710000 1                  TRA     s:110+2

       30      110    1   VDG$MACC_LREAD: ENTRY (P1, P2, P3, P4);

    110  1 000044   000000 700200 xent  VDG$MACC_LR* TSX0  ! X66_AUTO_5
         1 000045   000010 000005                    ZERO    8,5
         1 000046   000051 710000 1                  TRA     s:111+2

       31      111    1   VDG$MACC_LWRITE: ENTRY (P1, P2, P3, P4);

    111  1 000047   000000 700200 xent  VDG$MACC_LW* TSX0  ! X66_AUTO_5
         1 000050   000010 000005                    ZERO    8,5
         1 000051   000054 710000 1                  TRA     s:112+2

       32      112    1   VDG$MACC_LDELETE: ENTRY (P1, P2);

    112  1 000052   000000 700200 xent  VDG$MACC_LD* TSX0  ! X66_AUTO_5
         1 000053   000010 000005                    ZERO    8,5
         1 000054   000057 710000 1                  TRA     s:113+2

       33      113    1   VDG$MACC_RETURN: ENTRY (P1);

    113  1 000055   000000 700200 xent  VDG$MACC_RE* TSX0  ! X66_AUTO_5
PL6.E3A0      #001=STUBS File=VDG$STUBS.:VDA5TSI                                 FRI 07/04/97 11:22 Page:11
         1 000056   000010 000005                    ZERO    8,5
         1 000057   000062 710000 1                  TRA     s:114+2

       34      114    1   VDG$MACC_PREAD_B4_READ: ENTRY (P1, P2, P3, P4);

    114  1 000060   000000 700200 xent  VDG$MACC_PR* TSX0  ! X66_AUTO_5
         1 000061   000010 000005                    ZERO    8,5
         1 000062   000065 710000 1                  TRA     s:115+2

       35      115    1   VDG$MACC_PREAD_AF_READ: ENTRY (P1, P2, P3);

    115  1 000063   000000 700200 xent  VDG$MACC_PR* TSX0  ! X66_AUTO_5
         1 000064   000010 000005                    ZERO    8,5
         1 000065   000070 710000 1                  TRA     s:116+2

       36      116    1   VDG$MACC_PREAD_B4_PRECORD: ENTRY (P1, P2, P3, P4);

    116  1 000066   000000 700200 xent  VDG$MACC_PR* TSX0  ! X66_AUTO_5
         1 000067   000010 000005                    ZERO    8,5
         1 000070   000073 710000 1                  TRA     s:117+2

       37      117    1   VDG$MACC_PREAD_AF_PRECORD: ENTRY (P1, P2);

    117  1 000071   000000 700200 xent  VDG$MACC_PR* TSX0  ! X66_AUTO_5
         1 000072   000010 000005                    ZERO    8,5
         1 000073   000076 710000 1                  TRA     s:118+2

       38      118    1   VDG$MACC_PREAD_PFIL: ENTRY (P1, P2);

    118  1 000074   000000 700200 xent  VDG$MACC_PR* TSX0  ! X66_AUTO_5
         1 000075   000010 000005                    ZERO    8,5
         1 000076   000101 710000 1                  TRA     s:119+2

       39      119    1   VDG$MACC_PFLUSH: ENTRY (P1, P2);

    119  1 000077   000000 700200 xent  VDG$MACC_PF* TSX0  ! X66_AUTO_5
         1 000100   000010 000005                    ZERO    8,5
PL6.E3A0      #001=STUBS File=VDG$STUBS.:VDA5TSI                                 FRI 07/04/97 11:22 Page:12
         1 000101   000104 710000 1                  TRA     s:120+2

       40      120    1   VDG$MACC_PFLUSH_WRITE: ENTRY (P1, P2, P3);

    120  1 000102   000000 700200 xent  VDG$MACC_PF* TSX0  ! X66_AUTO_5
         1 000103   000010 000005                    ZERO    8,5
         1 000104   000107 710000 1                  TRA     s:121+2

       41      121    1   VDG$MACC_PFLUSH_REWRITE: ENTRY (P1, P2);

    121  1 000105   000000 700200 xent  VDG$MACC_PF* TSX0  ! X66_AUTO_5
         1 000106   000010 000005                    ZERO    8,5
         1 000107   000112 710000 1                  TRA     s:122+2

       42      122    1   VDG$MACC_PRETURN: ENTRY (P1);

    122  1 000110   000000 700200 xent  VDG$MACC_PR* TSX0  ! X66_AUTO_5
         1 000111   000010 000005                    ZERO    8,5
         1 000112   000115 710000 1                  TRA     s:123+2

       43      123    1   VDG$MACC_PDELETE_EOF_KEY: ENTRY (P1, P2, P3);

    123  1 000113   000000 700200 xent  VDG$MACC_PD* TSX0  ! X66_AUTO_5
         1 000114   000010 000005                    ZERO    8,5
         1 000115   000120 710000 1                  TRA     s:124+2

       44      124    1   VDG$MACC_PDELETE_BOF_KEY: ENTRY (P1, P2, P3);

    124  1 000116   000000 700200 xent  VDG$MACC_PD* TSX0  ! X66_AUTO_5
         1 000117   000010 000005                    ZERO    8,5
         1 000120   000123 710000 1                  TRA     s:125+2

       45      125    1   VDG$MACC_PDELETE_DELREC: ENTRY (P1, P2, P3);

    125  1 000121   000000 700200 xent  VDG$MACC_PD* TSX0  ! X66_AUTO_5
         1 000122   000010 000005                    ZERO    8,5
         1 000123   000126 710000 1                  TRA     s:126+2
PL6.E3A0      #001=STUBS File=VDG$STUBS.:VDA5TSI                                 FRI 07/04/97 11:22 Page:13

       46      126    1   VDG$MACC_PDELETE_DCB_POS: ENTRY (P1, P2, P3);

    126  1 000124   000000 700200 xent  VDG$MACC_PD* TSX0  ! X66_AUTO_5
         1 000125   000010 000005                    ZERO    8,5
         1 000126   000131 710000 1                  TRA     s:128+2

       47      127
       48      128    1   VDG$MEVAL_START_EVAL: ENTRY (P1);

    128  1 000127   000000 700200 xent  VDG$MEVAL_S* TSX0  ! X66_AUTO_5
         1 000130   000010 000005                    ZERO    8,5
         1 000131   000134 710000 1                  TRA     s:129+2

       49      129    1   VDG$MEVAL_FOUND_RANGE: ENTRY (P1);

    129  1 000132   000000 700200 xent  VDG$MEVAL_F* TSX0  ! X66_AUTO_5
         1 000133   000010 000005                    ZERO    8,5
         1 000134   000137 710000 1                  TRA     s:131+2

       50      130
       51      131    1   VDG$MPRES_WCHANGE: ENTRY (P1, P2);

    131  1 000135   000000 700200 xent  VDG$MPRES_W* TSX0  ! X66_AUTO_5
         1 000136   000010 000005                    ZERO    8,5
         1 000137   000142 710000 1                  TRA     s:132+2

       52      132    1   VDG$MPRES_WCHANGE_RETURN: ENTRY (P1, P2);

    132  1 000140   000000 700200 xent  VDG$MPRES_W* TSX0  ! X66_AUTO_5
         1 000141   000010 000005                    ZERO    8,5
         1 000142   000145 710000 1                  TRA     s:133+2

       53      133    1   VDG$MPRES_WNEW: ENTRY (P1, P2);

    133  1 000143   000000 700200 xent  VDG$MPRES_W* TSX0  ! X66_AUTO_5
         1 000144   000010 000005                    ZERO    8,5
PL6.E3A0      #001=STUBS File=VDG$STUBS.:VDA5TSI                                 FRI 07/04/97 11:22 Page:14
         1 000145   000150 710000 1                  TRA     s:134+2

       54      134    1   VDG$MPRES_WNEW_RETURN: ENTRY (P1, P2);

    134  1 000146   000000 700200 xent  VDG$MPRES_W* TSX0  ! X66_AUTO_5
         1 000147   000010 000005                    ZERO    8,5
         1 000150   000153 710000 1                  TRA     s:135+2

       55      135    1   VDG$MPRES_WREMOVE: ENTRY (P1);

    135  1 000151   000000 700200 xent  VDG$MPRES_W* TSX0  ! X66_AUTO_5
         1 000152   000010 000005                    ZERO    8,5
         1 000153   000156 710000 1                  TRA     s:136+2

       56      136    1   VDG$MPRES_RETURN: ENTRY (P1);

    136  1 000154   000000 700200 xent  VDG$MPRES_R* TSX0  ! X66_AUTO_5
         1 000155   000010 000005                    ZERO    8,5
         1 000156   000161 710000 1                  TRA     s:137+2

       57      137    1   VDG$MPRES_RDELETE: ENTRY (P1, P2, P3);

    137  1 000157   000000 700200 xent  VDG$MPRES_R* TSX0  ! X66_AUTO_5
         1 000160   000010 000005                    ZERO    8,5
         1 000161   000164 710000 1                  TRA     s:138+2

       58      138    1   VDG$MPRES_RDELETE_RETURN: ENTRY;

    138  1 000162   000000 700200 xent  VDG$MPRES_R* TSX0  ! X66_AUTO_5
         1 000163   000010 000005                    ZERO    8,5
         1 000164   000167 710000 1                  TRA     s:139+2

       59      139    1   VDG$MPRES_RWRITE: ENTRY (P1, P2, P3, P4);

    139  1 000165   000000 700200 xent  VDG$MPRES_R* TSX0  ! X66_AUTO_5
         1 000166   000010 000005                    ZERO    8,5
         1 000167   000172 710000 1                  TRA     s:140+2
PL6.E3A0      #001=STUBS File=VDG$STUBS.:VDA5TSI                                 FRI 07/04/97 11:22 Page:15

       60      140    1   VDG$MPRES_RWRITE_RETURN: ENTRY;

    140  1 000170   000000 700200 xent  VDG$MPRES_R* TSX0  ! X66_AUTO_5
         1 000171   000010 000005                    ZERO    8,5
         1 000172   000175 710000 1                  TRA     s:141+2

       61      141    1   VDG$MPRES_WERASE: ENTRY (P1);

    141  1 000173   000000 700200 xent  VDG$MPRES_W* TSX0  ! X66_AUTO_5
         1 000174   000010 000005                    ZERO    8,5
         1 000175   000200 710000 1                  TRA     s:142+2

       62      142    1   VDG$MPRES_WSCROLL_DOWN: ENTRY (P1, P2);

    142  1 000176   000000 700200 xent  VDG$MPRES_W* TSX0  ! X66_AUTO_5
         1 000177   000010 000005                    ZERO    8,5
         1 000200   000203 710000 1                  TRA     s:143+2

       63      143    1   VDG$MPRES_WSCROLL_UP: ENTRY (P1, P2, P3, P4);

    143  1 000201   000000 700200 xent  VDG$MPRES_W* TSX0  ! X66_AUTO_5
         1 000202   000010 000005                    ZERO    8,5
         1 000203   000206 710000 1                  TRA     s:144+2

       64      144    1   VDG$MPRES_WREAD: ENTRY (P1, P2, P3);

    144  1 000204   000000 700200 xent  VDG$MPRES_W* TSX0  ! X66_AUTO_5
         1 000205   000010 000005                    ZERO    8,5
         1 000206   000211 710000 1                  TRA     s:145+2

       65      145    1   VDG$MPRES_WREAD_RETURN: ENTRY (P1, P2);

    145  1 000207   000000 700200 xent  VDG$MPRES_W* TSX0  ! X66_AUTO_5
         1 000210   000010 000005                    ZERO    8,5
         1 000211   000214 710000 1                  TRA     s:146+2

PL6.E3A0      #001=STUBS File=VDG$STUBS.:VDA5TSI                                 FRI 07/04/97 11:22 Page:16
       66      146    1   VDG$MPRES_WWRITE: ENTRY (P1);

    146  1 000212   000000 700200 xent  VDG$MPRES_W* TSX0  ! X66_AUTO_5
         1 000213   000010 000005                    ZERO    8,5
         1 000214   000217 710000 1                  TRA     s:147+2

       67      147    1   VDG$MPRES_NFLUSH: ENTRY;

    147  1 000215   000000 700200 xent  VDG$MPRES_N* TSX0  ! X66_AUTO_5
         1 000216   000010 000005                    ZERO    8,5
         1 000217   000222 710000 1                  TRA     s:148+2

       68      148    1   VDG$MPRES_FEPSTRMCTL: ENTRY (P1, P2, P3);

    148  1 000220   000000 700200 xent  VDG$MPRES_F* TSX0  ! X66_AUTO_5
         1 000221   000010 000005                    ZERO    8,5
         1 000222   000225 710000 1                  TRA     s:149+2

       69      149    1   VDG$MPRES_FEPOPEN: ENTRY (P1, P2, P3, P4);

    149  1 000223   000000 700200 xent  VDG$MPRES_F* TSX0  ! X66_AUTO_5
         1 000224   000010 000005                    ZERO    8,5
         1 000225   000230 710000 1                  TRA     s:150+2

       70      150    1   VDG$MPRES_FEPDEVICE: ENTRY (P1);

    150  1 000226   000000 700200 xent  VDG$MPRES_F* TSX0  ! X66_AUTO_5
         1 000227   000010 000005                    ZERO    8,5
         1 000230   000233 710000 1                  TRA     s:151+2

       71      151    1   VDG$MPRES_FEPWRITE: ENTRY (P1, P2, P3);

    151  1 000231   000000 700200 xent  VDG$MPRES_F* TSX0  ! X66_AUTO_5
         1 000232   000010 000005                    ZERO    8,5
         1 000233   000236 710000 1                  TRA     s:152+2

       72      152    1   VDG$MPRES_FEPWEOF: ENTRY (P1, P2);
PL6.E3A0      #001=STUBS File=VDG$STUBS.:VDA5TSI                                 FRI 07/04/97 11:22 Page:17

    152  1 000234   000000 700200 xent  VDG$MPRES_F* TSX0  ! X66_AUTO_5
         1 000235   000010 000005                    ZERO    8,5
         1 000236   000241 710000 1                  TRA     s:153+2

       73      153    1   VDG$MPRES_FEPERASE: ENTRY (P1, P2, P3);

    153  1 000237   000000 700200 xent  VDG$MPRES_F* TSX0  ! X66_AUTO_5
         1 000240   000010 000005                    ZERO    8,5
         1 000241   000244 710000 1                  TRA     s:154+2

       74      154    1   VDG$MPRES_FEPREAD: ENTRY (P1, P2);

    154  1 000242   000000 700200 xent  VDG$MPRES_F* TSX0  ! X66_AUTO_5
         1 000243   000010 000005                    ZERO    8,5
         1 000244   000247 710000 1                  TRA     s:155+2

       75      155    1   VDG$MPRES_FEPREAD_RETURN: ENTRY (P1, P2, P3);

    155  1 000245   000000 700200 xent  VDG$MPRES_F* TSX0  ! X66_AUTO_5
         1 000246   000010 000005                    ZERO    8,5
         1 000247   000252 710000 1                  TRA     s:156+2

       76      156    1   VDG$MPRES_FEPSINPUT: ENTRY (P1, P2);

    156  1 000250   000000 700200 xent  VDG$MPRES_F* TSX0  ! X66_AUTO_5
         1 000251   000010 000005                    ZERO    8,5
         1 000252   000255 710000 1                  TRA     s:157+2

       77      157    1   VDG$MPRES_FEPDELREC: ENTRY (P1, P2, P3);

    157  1 000253   000000 700200 xent  VDG$MPRES_F* TSX0  ! X66_AUTO_5
         1 000254   000010 000005                    ZERO    8,5
         1 000255   000260 710000 1                  TRA     s:159+2

       78      158
       79      159    1   VDG$MEVAL_RREAD: ENTRY (P1, P2, P3, P4);
PL6.E3A0      #001=STUBS File=VDG$STUBS.:VDA5TSI                                 FRI 07/04/97 11:22 Page:18

    159  1 000256   000000 700200 xent  VDG$MEVAL_R* TSX0  ! X66_AUTO_5
         1 000257   000010 000005                    ZERO    8,5
         1 000260   000263 710000 1                  TRA     s:160+2

       80      160    1   VDG$MEVAL_RREAD_RETURN: ENTRY (P1);

    160  1 000261   000000 700200 xent  VDG$MEVAL_R* TSX0  ! X66_AUTO_5
         1 000262   000010 000005                    ZERO    8,5
         1 000263   000266 710000 1                  TRA     s:161+2

       81      161    1   VDG$MEVAL_RGET: ENTRY (P1, P2);

    161  1 000264   000000 700200 xent  VDG$MEVAL_R* TSX0  ! X66_AUTO_5
         1 000265   000010 000005                    ZERO    8,5
         1 000266   000271 710000 1                  TRA     s:162+2

       82      162    1   VDG$MEVAL_RGET_RETURN: ENTRY (P1, P2);

    162  1 000267   000000 700200 xent  VDG$MEVAL_R* TSX0  ! X66_AUTO_5
         1 000270   000010 000005                    ZERO    8,5
         1 000271   000274 710000 1                  TRA     s:163+2

       83      163    1   VDG$MEVAL_RPUT: ENTRY (P1, P2, P3, P4);

    163  1 000272   000000 700200 xent  VDG$MEVAL_R* TSX0  ! X66_AUTO_5
         1 000273   000010 000005                    ZERO    8,5
         1 000274   000277 710000 1                  TRA     s:164+2

       84      164    1   VDG$MEVAL_RPUT_EXISTING_KEY: ENTRY (P1, P2);

    164  1 000275   000000 700200 xent  VDG$MEVAL_R* TSX0  ! X66_AUTO_5
         1 000276   000010 000005                    ZERO    8,5
         1 000277   000302 710000 1                  TRA     s:167

       85      165    1   VDG$MEVAL_RPUT_RETURN: ENTRY (P1, P2);

PL6.E3A0      #001=STUBS File=VDG$STUBS.:VDA5TSI                                 FRI 07/04/97 11:22 Page:19
    165  1 000300   000000 700200 xent  VDG$MEVAL_R* TSX0  ! X66_AUTO_5
         1 000301   000010 000005                    ZERO    8,5

       86      166
       87      167    1           RETURN;

    167  1 000302   000000 702200 xent               TSX2  ! X66_ARET
       88      168
       89      169    1   END STUBS;

PL6.E3A0      #001=STUBS File=VDG$STUBS.:VDA5TSI                                 FRI 07/04/97 11:22 Page:20
--  Include file information  --

   CP_6.:LIBRARY  cannot be made into a system file and is referenced.
   B$JIT_C.:E04TOU  was found in the system file and is never referenced.
   CP_6_C.:E04TOU  was found in the system file and is referenced.
      No diagnostics issued in procedure STUBS.
PL6.E3A0      #001=STUBS File=VDG$STUBS.:VDA5TSI                                 FRI 07/04/97 11:22 Page:21

 **** Variables and constants ****

  ****  Auto variables  ****

  ****  Scalars and arrays  ****
OctLoc.c.b A Datatyp(siz) R M Lvl/name                 OctLoc.c.b A Datatyp(siz) R M Lvl/name

     3-0-0/w PTR         r     1 @P1                        4-0-0/w PTR         r     1 @P2
     5-0-0/w PTR         r     1 @P3                        6-0-0/w PTR         r     1 @P4
     7-0-0/w PTR         r     1 @P5                       *0-0-0/w SBIN        r     1 P1
    *0-0-0/w SBIN        r     1 P2                        *0-0-0/w SBIN        r     1 P3
    *0-0-0/w SBIN        r     1 P4                        *0-0-0/w SBIN        r     1 P5


   Procedure STUBS requires 195 words for executable code.
   Procedure STUBS requires 8 words of local(AUTO) storage.

    No errors detected in file VDG$STUBS.:VDA5TSI    .
PL6.E3A0      #001=STUBS File=VDG$STUBS.:VDA5TSI                                 FRI 07/04/97 11:22 Page:22
          *** CROSS REFERENCE LISTING ***
**     DENOTES     IDENTIFIER DEFINITION
<<                 IDENTIFIER'S VALUE SET
>>                 IDENTIFIER'S VALUE USED
<>                 IDENTIFIER SET AND/OR USED
--                 IDENTIFIER REFERENCED
PL6.E3A0      #001=STUBS File=VDG$STUBS.:VDA5TSI                                 FRI 07/04/97 11:22 Page:23
          MINI XREF LISTING

P1
        93**DCL         8--PROC       99--ENTRY     100--ENTRY     101--ENTRY     102--ENTRY     103--ENTRY
       104--ENTRY     105--ENTRY     106--ENTRY     107--ENTRY     108--ENTRY     109--ENTRY     110--ENTRY
       111--ENTRY     112--ENTRY     113--ENTRY     114--ENTRY     115--ENTRY     116--ENTRY     117--ENTRY
       118--ENTRY     119--ENTRY     120--ENTRY     121--ENTRY     122--ENTRY     123--ENTRY     124--ENTRY
       125--ENTRY     126--ENTRY     128--ENTRY     129--ENTRY     131--ENTRY     132--ENTRY     133--ENTRY
       134--ENTRY     135--ENTRY     136--ENTRY     137--ENTRY     139--ENTRY     141--ENTRY     142--ENTRY
       143--ENTRY     144--ENTRY     145--ENTRY     146--ENTRY     148--ENTRY     149--ENTRY     150--ENTRY
       151--ENTRY     152--ENTRY     153--ENTRY     154--ENTRY     155--ENTRY     156--ENTRY     157--ENTRY
       159--ENTRY     160--ENTRY     161--ENTRY     162--ENTRY     163--ENTRY     164--ENTRY     165--ENTRY
P2
        94**DCL         8--PROC       99--ENTRY     100--ENTRY     103--ENTRY     104--ENTRY     105--ENTRY
       110--ENTRY     111--ENTRY     112--ENTRY     114--ENTRY     115--ENTRY     116--ENTRY     117--ENTRY
       118--ENTRY     119--ENTRY     120--ENTRY     121--ENTRY     123--ENTRY     124--ENTRY     125--ENTRY
       126--ENTRY     131--ENTRY     132--ENTRY     133--ENTRY     134--ENTRY     137--ENTRY     139--ENTRY
       142--ENTRY     143--ENTRY     144--ENTRY     145--ENTRY     148--ENTRY     149--ENTRY     151--ENTRY
       152--ENTRY     153--ENTRY     154--ENTRY     155--ENTRY     156--ENTRY     157--ENTRY     159--ENTRY
       161--ENTRY     162--ENTRY     163--ENTRY     164--ENTRY     165--ENTRY
P3
        95**DCL         8--PROC       99--ENTRY     104--ENTRY     110--ENTRY     111--ENTRY     114--ENTRY
       115--ENTRY     116--ENTRY     120--ENTRY     123--ENTRY     124--ENTRY     125--ENTRY     126--ENTRY
       137--ENTRY     139--ENTRY     143--ENTRY     144--ENTRY     148--ENTRY     149--ENTRY     151--ENTRY
       153--ENTRY     155--ENTRY     157--ENTRY     159--ENTRY     163--ENTRY
P4
        96**DCL         8--PROC       99--ENTRY     110--ENTRY     111--ENTRY     114--ENTRY     116--ENTRY
       139--ENTRY     143--ENTRY     149--ENTRY     159--ENTRY     163--ENTRY
P5
        97**DCL         8--PROC
