PL6.E3A0      #017=VDG$EXEC_CONTROL File=VDG$UTILITY.:VDA5TSI                    FRI 07/04/97 11:24 Page:335
     1993        1        /*T***********************************************************/
     1994        2        /*T*                                                         */
     1995        3        /*T* Copyright (c) Bull HN Information Systems Inc., 1997    */
     1996        4        /*T*                                                         */
     1997        5        /*T***********************************************************/
     1998        6
     1999        7        /*D* NAME:  VDG$EXEC_CONTROL
     2000        8            PARAMETERS:
     2001        9                LN_TEXT:  # bytes in text string.
     2002       10                TEXT:  Text string.
     2003       11                CONTROL_INDEX:  Index into TEXT of the $CONTROL character.
     2004       12                RET_CODE:  An uninitialized CHAR(1) CALIGNED.
     2005       13                CTRL_ARGS:  An optional, uninitialized array of SBIN words.
     2006       14                    If given, there must be %MX_CTRL_FN_ARGS entries in the array.
     2007       15            INPUT:
     2008       16                VD_$CONTROL:  VD_BUFFER for the predefined name $CONTROL.
     2009       17                    Value's length must not be 0.
     2010       18            SCRATCH:
     2011       19                VD_STATIC_TEMP
     2012       20            OUTPUT:
     2013       21                LN_TEXT may be decreased if the $CONTROL function causes
     2014       22                    removal of text from TEXT.
     2015       23                TEXT will be modified, based on the $CONTROL function
     2016       24                    executed.
     2017       25                CONTROL_INDEX will contain the index into TEXT of the next
     2018       26                    char to scan for $CONTROL functions.
     2019       27                RET_CODE will contain either:
     2020       28                    o a space character, indicating that all processing was
     2021       29                        performed; or
     2022       30                    o a $CONTROL-function id character (%FNID_xxx),
     2023       31                        indicating some additional processing is necessary,
     2024       32                        and specifying which function was found.
     2025       33                CTRL_ARGS (if supplied) will be cleared.
     2026       34                        For the following $CONTROL-Functions, CTRL_ARGS will
     2027       35                        contain the specified or default values for arguments
     2028       36                        of the function:
     2029       37                    %FNID_WILD_CHAR:  CTRL_ARGS (0) = minimum # chars to match,
PL6.E3A0      #017=VDG$EXEC_CONTROL File=VDG$UTILITY.:VDA5TSI                    FRI 07/04/97 11:24 Page:336
     2030       38                        CTRL_ARGS (1) = maximum # chars to match.
     2031       39        *N*         %FNID_SET_OF_SEQUENCES:  CTRL_ARGS(0) = length of sequence
     2032       40        *N*             to match.
     2033       41            DESCRIPTION:
     2034       42                Delimit the entire $CONTROL-function.  This will be in one
     2035       43                of two forms:
     2036       44                For Literal, %FNID_RECORD, _CURRENT, _WILD_STRING,
     2037       45                    _BO_MATCH, and _EO_MATCH:
     2038       46                                %f
     2039       47                For %FNID_VALUE, _WILD_CHAR, and _SET_OF_SEQUENCES:
     2040       48                                %f(ppp...)
     2041       49                where:
     2042       50                    "%" represents the current value of $CONTROL name.
     2043       51                    "f" is the function identifier.
     2044       52                    "ppp..." is a mandatory list of numeric parameters,
     2045       53                            separated by commas.
     2046       54
     2047       55                Execute the function.  All function executions involve at
     2048       56                least removing the function invokation from the text string.
     2049       57                Some function executions are partial; return the appropriate
     2050       58                return code and optional arguments.
     2051       59        */
     2052       60
     2053       61        VDG$EXEC_CONTROL: PROC (LN_TEXT, TEXT, CONTROL_INDEX, RET_CODE, CTRL_ARGS)
     2054       62                  ALTRET;
     2055       63
     2056       64
     2057       65        %INCLUDE VD_MACROS_M;
     2058     2280        %INCLUDE VD_PERR_C;
     2059     2428        %INCLUDE B$TABLES_C;
     2060     2536
     2061     2537
     2062     2538    1   DCL LN_TEXT UBIN;
     2063     2539    1   DCL TEXT CHAR(LN_TEXT) CALIGNED;
     2064     2540    1   DCL CONTROL_INDEX UBIN;
     2065     2541    1   DCL RET_CODE CHAR(1) CALIGNED;
     2066     2542    1   DCL CTRL_ARGS (0:%(MX_CTRL_FN_ARGS-1)) SBIN ALIGNED;
PL6.E3A0      #017=VDG$EXEC_CONTROL File=VDG$UTILITY.:VDA5TSI                    FRI 07/04/97 11:24 Page:337
     2067     2543
     2068     2544
     2069     2545    1   DCL X$DEC_CONVERT       ENTRY (2) ALTRET;
     2070     2546    1   DCL VDG$OALLOC          ENTRY (3) ALTRET;
     2071     2547    1   DCL VDG$ESCREECH        ENTRY (3);
     2072     2548
     2073     2549
     2074     2550        %VD_6E (STCLASS=SYMREF);
     2075     2586        %B$XL_UPPER;
     2076     2590        %VD_BUFFER (NAME=VD_$CONTROL, STCLASS=SYMREF, MXNB=%MXNB_$CONTROL);
     2077     2650
     2078     2651
     2079     2652    1   DCL PTR_$CONTROL$ PTR CONSTANT INIT(ADDR(VD_$CONTROL));
     2080     2653
     2081     2654
     2082     2655
     2083     2656    1   DCL FUNC_ID CHAR(1) ALIGNED;
     2084     2657    1   DCL POST_INDEX SBIN;
     2085     2658    1   DCL PARAM_INDEX (0:%MX_CTRL_FN_ARGS) SBIN;
     2086     2659    1   DCL PARAM_LN (0:%MX_CTRL_FN_ARGS) SBIN;
     2087     2660    1   DCL NUM_PARAMS SBIN;
     2088     2661    1   DCL I SBIN;
     2089     2662        %VD_TEXTC (NAME=DEC, STCLASS="", MXNB=%MXNB_NUM_LITERAL);
     2090     2803    1   DCL ARG_VALUES (0:%(MX_CTRL_FN_ARGS-1)) SBIN ALIGNED;
     2091     2804    1   DCL ERR_CODE SBIN;
     2092     2805    1   DCL VD_ERR$ PTR;
     2093     2806    1   DCL SUBST_FIELD$ PTR;
     2094     2807    1   DCL ERR_MIN_VALUE SBIN;
     2095     2808    1   DCL ERR_MAX_VALUE SBIN;
     2096     2809
     2097     2810
     2098     2811        %VD$BUFFER (NAME=VD$CONTROL, STCLASS="BASED(PTR_$CONTROL$)");
     2099     2869        %VD$ERR (NAME=VD$ERR, STCLASS="BASED(VD_ERR$)");
     2100     2922        %VD$NUMBER (NAME=SUBST$NUMBER, DIM="(0:2)", STCLASS="BASED(SUBST_FIELD$)");
     2101     2967
     2102     2968
     2103     2969    1           RET_CODE = %CHR_SPACE;
PL6.E3A0      #017=VDG$EXEC_CONTROL File=VDG$UTILITY.:VDA5TSI                    FRI 07/04/97 11:24 Page:338
     2104     2970    1           IF ADDR(CTRL_ARGS) ~= ADDR(NIL) THEN
     2105     2971    1              CTRL_ARGS = %CLEAR;
     2106     2972    1           PARAM_INDEX = %CLEAR;
     2107     2973    1           PARAM_LN = %CLEAR;
     2108     2974    1           NUM_PARAMS = 0;
     2109     2975    1           ARG_VALUES = %CLEAR;
     2110     2976
     2111     2977                /* Delimit the function invokation */
     2112     2978
     2113     2979    1           FUNC_ID =
     2114     2980    1             SUBSTR(TEXT, CONTROL_INDEX + VD_$CONTROL.LENGTH#, 1);
     2115     2981    1           CALL XLATE (FUNC_ID, B$XL_UPPER, FUNC_ID);
     2116     2982    1           POST_INDEX = CONTROL_INDEX + VD_$CONTROL.LENGTH# + 1;
     2117     2983
     2118     2984    2           DO SELECT (FUNC_ID);
     2119     2985    2              SELECT (%FNID_VALUE, %FNID_WILD_CHAR
     2120     2986    2             /*N* , %FNID_SET_OF_SEQUENCES *N*/ );
     2121     2987                   /*
     2122     2988                   *    These $CONTROL-Functions require numeric parameters.
     2123     2989                   */
     2124     2990    2              IF SUBSTR(TEXT, POST_INDEX, 1) ~= %CHR_LPAREN THEN
     2125     2991    2                 GOTO NO_CTRLFN_LEFT_PAREN;
     2126     2992    2              PARAM_INDEX (0) = POST_INDEX + 1;
     2127     2993    2              CALL INDEX (POST_INDEX, %CHR_RPAREN, TEXT, PARAM_INDEX (0))
     2128     2994    2                ALTRET (NO_CTRLFN_RIGHT_PAREN);
     2129     2995    2              POST_INDEX = POST_INDEX + 1;
     2130     2996
     2131     2997    3              DO WHILE PARAM_INDEX (NUM_PARAMS) < POST_INDEX;
     2132     2998    3                 NUM_PARAMS = NUM_PARAMS + 1;
     2133     2999    3                 CALL INDEX (PARAM_INDEX (NUM_PARAMS), %CHR_COMMA, TEXT,
     2134     3000    3                   PARAM_INDEX (NUM_PARAMS - 1));
     2135     3001    3                 PARAM_INDEX (NUM_PARAMS) = MINIMUM (POST_INDEX,
     2136     3002    3                   PARAM_INDEX (NUM_PARAMS) + %LENGTHC(CHR_COMMA));
     2137     3003    3                 END;
     2138     3004    3              DO I = 0 TO (NUM_PARAMS - 1);
     2139     3005    3                 PARAM_LN (I) = PARAM_INDEX (I+1) - PARAM_INDEX (I) -
     2140     3006    3                   %LENGTHC(CHR_COMMA);
PL6.E3A0      #017=VDG$EXEC_CONTROL File=VDG$UTILITY.:VDA5TSI                    FRI 07/04/97 11:24 Page:339
     2141     3007    3                 END;
     2142     3008
     2143     3009    3              DO SELECT (FUNC_ID); /* Initialize default values */
     2144     3010    3                 SELECT (%FNID_VALUE);
     2145     3011    3                 ARG_VALUES (0) = 0;
     2146     3012    3                 ARG_VALUES (1) = %MX_BYTE_VALUE;
     2147     3013    3                 SELECT (%FNID_WILD_CHAR);
     2148     3014    3                 ARG_VALUES (0) = 0;
     2149     3015    3                 ARG_VALUES (1) = %INFINITY;
     2150     3016                    /*N* SELECT (%FNID_SET_OF_SEQUENCES);   *N*/
     2151     3017                    /*N*   ARG_VALUES (0) = 1;              *N*/
     2152     3018                    /*N*   ARG_VALUES (1) = 0;              *N*/
     2153     3019    3                 END;
     2154     3020                   /*
     2155     3021                   *  If we have:            ARG_VALUES should get:
     2156     3022                   *     ()                      dflt, dflt
     2157     3023                   *     (,)                     dflt, dflt
     2158     3024                   *     (m)                     m, m
     2159     3025                   *     (m,)                    m, dflt
     2160     3026                   *     (,n)                    dflt, n
     2161     3027                   *     (m,n)                   m, n
     2162     3028                   */
     2163     3029    2              IF PARAM_LN (0) > 0
     2164     3030    2                AND SUBSTR(TEXT, PARAM_INDEX (0), PARAM_LN (0)) ~=
     2165     3031    3                %CHR_SPACE THEN DO;
     2166     3032                      /* Got "m" */
     2167     3033    3                 IF PARAM_LN (0) > %MXNB_NUM_LITERAL THEN
     2168     3034    3                    GOTO CTRLFN_NUM_PARAM_NOT_LEGAL;
     2169     3035    3                 DEC.LENGTH# = PARAM_LN (0);
     2170     3036    3                 DEC.BYTES = SUBSTR(TEXT, PARAM_INDEX (0), PARAM_LN (0));
     2171     3037    3                 CALL X$DEC_CONVERT (ADDR(DEC), ARG_VALUES (0))
     2172     3038    3                   ALTRET (DEC_CONVERT_FAILED);
     2173     3039    3                 IF NUM_PARAMS = 1
     2174     3040    4   /*N* AND FUNC_ID ~= %FNID_SET_OF_SEQUENCES *N*/ THEN DO;
     2175     3041                         /* Got "m" alone:  no comma, no "n" */
     2176     3042    4                    ARG_VALUES (1) = ARG_VALUES (0);
     2177     3043    4                    END;
PL6.E3A0      #017=VDG$EXEC_CONTROL File=VDG$UTILITY.:VDA5TSI                    FRI 07/04/97 11:24 Page:340
     2178     3044    3                 END;
     2179     3045    2              IF NUM_PARAMS > 1
     2180     3046    2                AND PARAM_LN (1) > 0
     2181     3047    2                AND SUBSTR(TEXT, PARAM_INDEX (1), PARAM_LN (1)) ~=
     2182     3048    3                %CHR_SPACE THEN DO;
     2183     3049                      /* Got "n" */
     2184     3050    3                 DEC.LENGTH# = PARAM_LN (1);
     2185     3051    3                 DEC.BYTES = SUBSTR (TEXT, PARAM_INDEX (1), PARAM_LN (1));
     2186     3052    3                 CALL X$DEC_CONVERT (ADDR(DEC), ARG_VALUES (1))
     2187     3053    3                   ALTRET (DEC_CONVERT_FAILED);
     2188     3054    3                 END;
     2189     3055
     2190     3056    2              END;
     2191     3057
     2192     3058
     2193     3059                %BOX (TITLE="Execute the function");

              3071    2   /***************************************************************************
              3073    2    *                                                                         *
              3077    2            *                            Execute the function                         *
              3079    2            *                                                                         *
              3081    2           ***************************************************************************/

     2194     3085
     2195     3086    1           IF VD$CONTROL.BYTES = SUBSTR (TEXT, POST_INDEX-1, VD_$CONTROL.LENGTH#)
     2196     3087    2           THEN DO;
     2197     3088                   /*
     2198     3089                   *    $CONTROL-Literal function.
     2199     3090                   */
     2200     3091                   %INCREMENT (INDX=%STG_CTRL_LITERAL);
     2201     3094    2              CONTROL_INDEX = CONTROL_INDEX + VD_$CONTROL.LENGTH#;
     2202     3095    2              POST_INDEX = CONTROL_INDEX + VD_$CONTROL.LENGTH#;
     2203     3096    2              SUBSTR (TEXT, CONTROL_INDEX) = SUBSTR (TEXT, POST_INDEX);
     2204     3097    2              LN_TEXT = LN_TEXT + CONTROL_INDEX - POST_INDEX;
     2205     3098    2              RETURN;
     2206     3099    2              END;
     2207     3100    1           ELSE
PL6.E3A0      #017=VDG$EXEC_CONTROL File=VDG$UTILITY.:VDA5TSI                    FRI 07/04/97 11:24 Page:341
     2208     3101    1   FUNC_ID_CASES:
     2209     3102    2           DO SELECT ASCBIN(FUNC_ID);
     2210     3103    2              SELECT (%ASCBIN(FNID_VALUE));
     2211     3104                   %INCREMENT (INDX=%STG_CTRL_VALUE);
     2212     3107    2              IF NUM_PARAMS > 2 THEN
     2213     3108    2                 GOTO TOO_MANY_CTRLFN_VALUE_PARAMS;
     2214     3109    2              IF ARG_VALUES (0) < 0 OR ARG_VALUES (0) > %MX_BYTE_VALUE
     2215     3110    3                OR ARG_VALUES (1) < 0 OR ARG_VALUES (1) > %MX_BYTE_VALUE THEN DO;
     2216     3111    3                 ERR_MIN_VALUE = 0;
     2217     3112    3                 ERR_MAX_VALUE = %MX_BYTE_VALUE;
     2218     3113    3                 GOTO CTRLFN_NUM_PARAM_NOT_INRANGE;
     2219     3114    3                 END;
     2220     3115    2              CALL INSERT (TEXT, CONTROL_INDEX, 1, BINASC(ARG_VALUES(0)));
     2221     3116    2              CONTROL_INDEX = CONTROL_INDEX + 1;
     2222     3117    2              SUBSTR (TEXT, CONTROL_INDEX) = SUBSTR (TEXT, POST_INDEX);
     2223     3118    2              LN_TEXT = LN_TEXT + CONTROL_INDEX - POST_INDEX;
     2224     3119    3              IF NUM_PARAMS > 1 THEN DO;
     2225     3120    3                 IF ADDR(CTRL_ARGS) = ADDR(NIL) THEN
     2226     3121    3                    GOTO TOO_MANY_CTRLFN_VALUE_PARAMS;
     2227     3122    3                 CTRL_ARGS = ARG_VALUES;
     2228     3123    3                 RET_CODE = FUNC_ID;
     2229     3124    3                 END;
     2230     3125    2              ELSE
     2231     3126    2                 RET_CODE = %CHR_SPACE;
     2232     3127
     2233     3128
     2234     3129    2              SELECT (%ASCBIN(FNID_RECORD));
     2235     3130                   %INCREMENT (INDX=%STG_CTRL_RECORD);
     2236     3133    2              CONTROL_INDEX = POST_INDEX;
     2237     3134    2              RET_CODE = FUNC_ID;
     2238     3135
     2239     3136
     2240     3137        /*N*
     2241     3138        *N*      SELECT (%ASCBIN(FNID_CURRENT));
     2242     3139        *N*        %INCREMENT (INDX=%STG_CTRL_CURRENT);
     2243     3140        *N*        CONTROL_INDEX = POST_INDEX;
     2244     3141        *N*        RET_CODE = FUNC_ID;
PL6.E3A0      #017=VDG$EXEC_CONTROL File=VDG$UTILITY.:VDA5TSI                    FRI 07/04/97 11:24 Page:342
     2245     3142        *N*/
     2246     3143
     2247     3144
     2248     3145    2              SELECT (%ASCBIN(FNID_WILD_CHAR));
     2249     3146                   %INCREMENT (INDX=%STG_CTRL_WILD_CHAR);
     2250     3149    2              IF NUM_PARAMS > 2 THEN
     2251     3150    2                 GOTO TOO_MANY_CTRLFN_WILDC_PARAMS;
     2252     3151    2              IF ARG_VALUES (0) < 0
     2253     3152    3                OR ARG_VALUES (1) < 0 THEN DO;
     2254     3153    3                 ERR_MIN_VALUE = 0;
     2255     3154    3                 ERR_MAX_VALUE = %INFINITY;
     2256     3155    3                 GOTO CTRLFN_NUM_PARAM_NOT_INRANGE;
     2257     3156    3                 END;
     2258     3157    2              CONTROL_INDEX = POST_INDEX;
     2259     3158    2              IF ADDR(CTRL_ARGS) ~= ADDR(NIL) THEN
     2260     3159    2                 CTRL_ARGS = ARG_VALUES;
     2261     3160    2              RET_CODE = FUNC_ID;
     2262     3161
     2263     3162
     2264     3163    2              SELECT (%ASCBIN(FNID_WILD_STRING));
     2265     3164                   %INCREMENT (INDX=%STG_CTRL_WILD_STRING);
     2266     3167    2              CONTROL_INDEX = POST_INDEX;
     2267     3168    2              RET_CODE = FUNC_ID;
     2268     3169
     2269     3170
     2270     3171        /*N*
     2271     3172        *N*      SELECT (%ASCBIN(FNID_SET_OF_SEQUENCES));
     2272     3173        *N*        %INCREMENT (INDX=%STG_CTRL_SET_OF_SEQUENCES);
     2273     3174        *N*        IF NUM_PARAMS > 1 THEN
     2274     3175        *N*           GOTO TOO_MANY_CTRLFN_SETSQ_PARAMS;
     2275     3176        *N*        ERR_MIN_VALUE = 0;
     2276     3177        *N*        ERR_MAX_VALUE = LENGTHC(TEXT) - POST_INDEX -
     2277     3178        *N*          VD_$CONTROL.LENGTH# - %LENGTHC(FNID_SET_OF_SEQUENCES);
     2278     3179        *N*        IF ARG_VALUES (0) < ERR_MIN_VALUE
     2279     3180        *N*          OR ARG_VALUES (0) > ERR_MAX_VALUE THEN
     2280     3181        *N*           GOTO CTRLFN_NUM_PARAM_NOT_INRANGE;
     2281     3182        *N*        CONTROL_INDEX = POST_INDEX;
PL6.E3A0      #017=VDG$EXEC_CONTROL File=VDG$UTILITY.:VDA5TSI                    FRI 07/04/97 11:24 Page:343
     2282     3183        *N*        IF ADDR(CTRL_ARGS) ~= ADDR(NIL) THEN
     2283     3184        *N*           CTRL_ARGS = ARG_VALUES;
     2284     3185        *N*        RET_CODE = FUNC_ID;
     2285     3186        *N*/
     2286     3187
     2287     3188
     2288     3189    2              SELECT (%ASCBIN(FNID_BO_MATCH));
     2289     3190                   %INCREMENT (INDX=%STG_CTRL_BO_MATCH);
     2290     3193    2              CONTROL_INDEX = POST_INDEX;
     2291     3194    2              RET_CODE = FUNC_ID;
     2292     3195
     2293     3196
     2294     3197    2              SELECT (%ASCBIN(FNID_EO_MATCH));
     2295     3198                   %INCREMENT (INDX=%STG_CTRL_EO_MATCH);
     2296     3201    2              CONTROL_INDEX = POST_INDEX;
     2297     3202    2              RET_CODE = FUNC_ID;
     2298     3203
     2299     3204
     2300     3205    2              SELECT (ELSE);
     2301     3206    2           GOTO CTRLFN_ID_NOT_LEGAL;
     2302     3207
     2303     3208    2              END FUNC_ID_CASES;
     2304     3209
     2305     3210    1           RETURN;
     2306     3211
     2307     3212
     2308     3213
     2309     3214                %BOX (TITLE="Error Handlers");

              3226    1   /***************************************************************************
              3228    1    *                                                                         *
              3232    1            *                               Error Handlers                            *
              3234    1            *                                                                         *
              3236    1           ***************************************************************************/

     2310     3240
     2311     3241    1   NO_CTRLFN_LEFT_PAREN:
PL6.E3A0      #017=VDG$EXEC_CONTROL File=VDG$UTILITY.:VDA5TSI                    FRI 07/04/97 11:24 Page:344
     2312     3242    1           ERR_CODE = %E$NO_CTRLFN_LEFT_PAREN;
     2313     3243    1           GOTO SERIOUS_ALTRETURN;
     2314     3244
     2315     3245    1   NO_CTRLFN_RIGHT_PAREN:
     2316     3246    1           ERR_CODE = %E$NO_CTRLFN_RIGHT_PAREN;
     2317     3247    1           GOTO SERIOUS_ALTRETURN;
     2318     3248
     2319     3249    1   CTRLFN_NUM_PARAM_NOT_LEGAL: ;
     2320     3250    1   DEC_CONVERT_FAILED: ;
     2321     3251    1           ERR_CODE = %E$CTRLFN_NUM_PARAM_NOT_LEGAL;
     2322     3252    1           GOTO SERIOUS_ALTRETURN;
     2323     3253
     2324     3254    1   CTRLFN_NUM_PARAM_NOT_INRANGE:
     2325     3255    1           ERR_CODE = %E$CTRLFN_NUM_PARAM_NOT_INRANGE;
     2326     3256    1           GOTO SERIOUS_ALTRETURN;
     2327     3257
     2328     3258    1   TOO_MANY_CTRLFN_VALUE_PARAMS:
     2329     3259    1           ERR_CODE = %E$TOO_MANY_CTRLFN_VALUE_PARAMS;
     2330     3260    1           GOTO SERIOUS_ALTRETURN;
     2331     3261
     2332     3262    1   TOO_MANY_CTRLFN_WILDC_PARAMS:
     2333     3263    1           ERR_CODE = %E$TOO_MANY_CTRLFN_WILDC_PARAMS;
     2334     3264    1           GOTO SERIOUS_ALTRETURN;
     2335     3265
     2336     3266    1   MOVE_TEXT_DOWN_FAILED: ;
     2337     3267    1   CTRLFN_ID_NOT_LEGAL:
     2338     3268    1           ERR_CODE = %E$CTRLFN_ID_NOT_LEGAL;
     2339     3269    1           GOTO SERIOUS_ALTRETURN;
     2340     3270
     2341     3271
     2342     3272    1   SERIOUS_ALTRETURN:
     2343     3273    1           CALL VDG$OALLOC (%CLS_ERR, VD_ERR$)
     2344     3274    1             ALTRET (OALLOC_FAILED);
     2345     3275    1           VD$ERR.ERR.CODE# = ERR_CODE;
     2346     3276    1           VD$ERR.FLAGLEV# = %FLV_SERIOUS;
     2347     3277    2           IF ERR_CODE = %E$CTRLFN_NUM_PARAM_NOT_INRANGE THEN DO;
     2348     3278    2              SUBST_FIELD$ = PINCRW(VD_ERR$, LENGTHW(VD$ERR));
PL6.E3A0      #017=VDG$EXEC_CONTROL File=VDG$UTILITY.:VDA5TSI                    FRI 07/04/97 11:24 Page:345
     2349     3279    2              SUBST$NUMBER.OBJECT.CLASS# (0) = %CLS_NUMBER;
     2350     3280    2              SUBST$NUMBER.V# (0) = ERR_MIN_VALUE;
     2351     3281    2              SUBST$NUMBER.OBJECT.CLASS# (1) = %CLS_NUMBER;
     2352     3282    2              SUBST$NUMBER.V# (1) = ERR_MAX_VALUE;
     2353     3283    2              END;
     2354     3284    1           ALTRETURN;
     2355     3285
     2356     3286
     2357     3287
     2358     3288    1   OALLOC_FAILED: ;
     2359     3289    1           ALTRETURN;
     2360     3290
     2361     3291    1   END VDG$EXEC_CONTROL;
     2362     3292        %EOD;

PL6.E3A0      #017=VDG$EXEC_CONTROL File=VDG$UTILITY.:VDA5TSI                    FRI 07/04/97 11:24 Page:346
--  Include file information  --

   B$TABLES_C.:LIBRARY  cannot be made into a system file and is referenced.
   VD_PERR_C.:VDA5TOU  is referenced.
   VD_MACROS_M.:VDA5TOU  is referenced.
   B$JIT_C.:E04TOU  was found in the system file and is never referenced.
   CP_6_C.:E04TOU  was found in the system file and is never referenced.
      No diagnostics issued in procedure VDG$EXEC_CONTROL.

   Procedure VDG$EXEC_CONTROL requires 448 words for executable code.
   Procedure VDG$EXEC_CONTROL requires 46 words of local(AUTO) storage.

PL6.E3A0      #017=VDG$EXEC_CONTROL File=VDG$UTILITY.:VDA5TSI                    FRI 07/04/97 11:24 Page:347

 Object Unit name= VDG$EXEC_CONTROL                           File name= VDG$UTILITY.:VDA5TOU
 UTS= JUL 04 '97 11:24:57.08 FRI                              Compiler= PL-6/E31         Sev=      00
 SharedLib= :SHARED_SYSTEM                                    Alt SharedLib=


    ****  Control sections  ****

 Sect   Type Bound  Init  Size OctSiz  Section name(segment info)
    0  RoData even  UTS      1      1  VDG$EXEC_CONTROL
    1   Proc  even  none   448    700  VDG$EXEC_CONTROL
    2  RoData even  none     5      5  VDG$EXEC_CONTROL

    ****  Entry defs  ****

                              Check   Calling
                             calling  sequence
  Sect OctLoc Primary Altret sequence   type   Parms  Name
     1      0   yes    yes     yes      Std        5  VDG$EXEC_CONTROL

  ****  Entry refs  ****

         Check        Calling
        calling       sequence
Altret sequence SRef   type   Args  Name
         yes          ~proc      0 B_POINTER
 yes     yes           Std       2 X$DEC_CONVERT
 yes     yes           Std       3 VDG$OALLOC
                       nStd      0 X66_AUTO_5
                       Std       0 B_CONSPOOL_D
                       nStd      0 X66_ARET
                       nStd      0 X66_AALT
PL6.E3A0      #017=VDG$EXEC_CONTROL File=VDG$UTILITY.:VDA5TSI                    FRI 07/04/97 11:24 Page:348

  ****  Data refs  ****

  Flags:  r = read only, s = secondary
Flgs Name                             Flgs Name                             Flgs Name
     VD_6E                            r    B$XL_UPPER$                           VD_$CONTROL
     B_VECTNIL

  ****  Segment refs  ****

  Flags:  r = read only, s = secondary
Flgs Name                             Flgs Name                             Flgs Name
     ISSID
PL6.E3A0      #017=VDG$EXEC_CONTROL File=VDG$UTILITY.:VDA5TSI                    FRI 07/04/97 11:24 Page:349


     1993        1        /*T***********************************************************/
     1994        2        /*T*                                                         */
     1995        3        /*T* Copyright (c) Bull HN Information Systems Inc., 1997    */
     1996        4        /*T*                                                         */
     1997        5        /*T***********************************************************/
     1998        6
     1999        7        /*D* NAME:  VDG$EXEC_CONTROL
     2000        8            PARAMETERS:
     2001        9                LN_TEXT:  # bytes in text string.
     2002       10                TEXT:  Text string.
     2003       11                CONTROL_INDEX:  Index into TEXT of the $CONTROL character.
     2004       12                RET_CODE:  An uninitialized CHAR(1) CALIGNED.
     2005       13                CTRL_ARGS:  An optional, uninitialized array of SBIN words.
     2006       14                    If given, there must be %MX_CTRL_FN_ARGS entries in the array.
     2007       15            INPUT:
     2008       16                VD_$CONTROL:  VD_BUFFER for the predefined name $CONTROL.
     2009       17                    Value's length must not be 0.
     2010       18            SCRATCH:
     2011       19                VD_STATIC_TEMP
     2012       20            OUTPUT:
     2013       21                LN_TEXT may be decreased if the $CONTROL function causes
     2014       22                    removal of text from TEXT.
     2015       23                TEXT will be modified, based on the $CONTROL function
     2016       24                    executed.
     2017       25                CONTROL_INDEX will contain the index into TEXT of the next
     2018       26                    char to scan for $CONTROL functions.
     2019       27                RET_CODE will contain either:
     2020       28                    o a space character, indicating that all processing was
     2021       29                        performed; or
     2022       30                    o a $CONTROL-function id character (%FNID_xxx),
     2023       31                        indicating some additional processing is necessary,
     2024       32                        and specifying which function was found.
     2025       33                CTRL_ARGS (if supplied) will be cleared.
     2026       34                        For the following $CONTROL-Functions, CTRL_ARGS will
     2027       35                        contain the specified or default values for arguments
     2028       36                        of the function:
PL6.E3A0      #017=VDG$EXEC_CONTROL File=VDG$UTILITY.:VDA5TSI                    FRI 07/04/97 11:24 Page:350
     2029       37                    %FNID_WILD_CHAR:  CTRL_ARGS (0) = minimum # chars to match,
     2030       38                        CTRL_ARGS (1) = maximum # chars to match.
     2031       39        *N*         %FNID_SET_OF_SEQUENCES:  CTRL_ARGS(0) = length of sequence
     2032       40        *N*             to match.
     2033       41            DESCRIPTION:
     2034       42                Delimit the entire $CONTROL-function.  This will be in one
     2035       43                of two forms:
     2036       44                For Literal, %FNID_RECORD, _CURRENT, _WILD_STRING,
     2037       45                    _BO_MATCH, and _EO_MATCH:
     2038       46                                %f
     2039       47                For %FNID_VALUE, _WILD_CHAR, and _SET_OF_SEQUENCES:
     2040       48                                %f(ppp...)
     2041       49                where:
     2042       50                    "%" represents the current value of $CONTROL name.
     2043       51                    "f" is the function identifier.
     2044       52                    "ppp..." is a mandatory list of numeric parameters,
     2045       53                            separated by commas.
     2046       54
     2047       55                Execute the function.  All function executions involve at
     2048       56                least removing the function invokation from the text string.
     2049       57                Some function executions are partial; return the appropriate
     2050       58                return code and optional arguments.
     2051       59        */
     2052       60
     2053       61        VDG$EXEC_CONTROL: PROC (LN_TEXT, TEXT, CONTROL_INDEX, RET_CODE, CTRL_ARGS)

     61  1 000000   000000 700200 xent  VDG$EXEC_CO* TSX0  ! X66_AUTO_5
         1 000001   000056 000005                    ZERO    46,5

     2054       62                  ALTRET;
     2055       63
     2056       64
     2057       65        %INCLUDE VD_MACROS_M;
     2058     2280        %INCLUDE VD_PERR_C;
     2059     2428        %INCLUDE B$TABLES_C;
     2060     2536
     2061     2537
PL6.E3A0      #017=VDG$EXEC_CONTROL File=VDG$UTILITY.:VDA5TSI                    FRI 07/04/97 11:24 Page:351
     2062     2538    1   DCL LN_TEXT UBIN;
     2063     2539    1   DCL TEXT CHAR(LN_TEXT) CALIGNED;
     2064     2540    1   DCL CONTROL_INDEX UBIN;
     2065     2541    1   DCL RET_CODE CHAR(1) CALIGNED;
     2066     2542    1   DCL CTRL_ARGS (0:%(MX_CTRL_FN_ARGS-1)) SBIN ALIGNED;
     2067     2543
     2068     2544
     2069     2545    1   DCL X$DEC_CONVERT       ENTRY (2) ALTRET;
     2070     2546    1   DCL VDG$OALLOC          ENTRY (3) ALTRET;
     2071     2547    1   DCL VDG$ESCREECH        ENTRY (3);
     2072     2548
     2073     2549
     2074     2550        %VD_6E (STCLASS=SYMREF);
     2075     2586        %B$XL_UPPER;
     2076     2590        %VD_BUFFER (NAME=VD_$CONTROL, STCLASS=SYMREF, MXNB=%MXNB_$CONTROL);
     2077     2650
     2078     2651
     2079     2652    1   DCL PTR_$CONTROL$ PTR CONSTANT INIT(ADDR(VD_$CONTROL));
     2080     2653
     2081     2654
     2082     2655
     2083     2656    1   DCL FUNC_ID CHAR(1) ALIGNED;
     2084     2657    1   DCL POST_INDEX SBIN;
     2085     2658    1   DCL PARAM_INDEX (0:%MX_CTRL_FN_ARGS) SBIN;
     2086     2659    1   DCL PARAM_LN (0:%MX_CTRL_FN_ARGS) SBIN;
     2087     2660    1   DCL NUM_PARAMS SBIN;
     2088     2661    1   DCL I SBIN;
     2089     2662        %VD_TEXTC (NAME=DEC, STCLASS="", MXNB=%MXNB_NUM_LITERAL);
     2090     2803    1   DCL ARG_VALUES (0:%(MX_CTRL_FN_ARGS-1)) SBIN ALIGNED;
     2091     2804    1   DCL ERR_CODE SBIN;
     2092     2805    1   DCL VD_ERR$ PTR;
     2093     2806    1   DCL SUBST_FIELD$ PTR;
     2094     2807    1   DCL ERR_MIN_VALUE SBIN;
     2095     2808    1   DCL ERR_MAX_VALUE SBIN;
     2096     2809
     2097     2810
     2098     2811        %VD$BUFFER (NAME=VD$CONTROL, STCLASS="BASED(PTR_$CONTROL$)");
PL6.E3A0      #017=VDG$EXEC_CONTROL File=VDG$UTILITY.:VDA5TSI                    FRI 07/04/97 11:24 Page:352
     2099     2869        %VD$ERR (NAME=VD$ERR, STCLASS="BASED(VD_ERR$)");
     2100     2922        %VD$NUMBER (NAME=SUBST$NUMBER, DIM="(0:2)", STCLASS="BASED(SUBST_FIELD$)");
     2101     2967
     2102     2968
     2103     2969    1           RET_CODE = %CHR_SPACE;

   2969  1 000002   200006 470500                    LDP0    @RET_CODE,,AUTO
         1 000003   040100 100400                    MLR     fill='040'O
         1 000004   000035 000001 xsym               ADSC9   B_VECTNIL+29             cn=0,n=1
         1 000005   000000 000001                    ADSC9   0,,PR0                   cn=0,n=1

     2104     2970    1           IF ADDR(CTRL_ARGS) ~= ADDR(NIL) THEN

   2970  1 000006   200007 236100                    LDQ     @CTRL_ARGS,,AUTO
         1 000007   000001 116000 xsym               CMPQ    B_VECTNIL+1
         1 000010   000014 600000 1                  TZE     s:2972

     2105     2971    1              CTRL_ARGS = %CLEAR;

   2971  1 000011   200007 471500                    LDP1    @CTRL_ARGS,,AUTO
         1 000012   100000 450100                    STZ     0,,PR1
         1 000013   100001 450100                    STZ     1,,PR1

     2106     2972    1           PARAM_INDEX = %CLEAR;

   2972  1 000014   000100 100400                    MLR     fill='000'O
         1 000015   000002 000001 xsym               ADSC9   B_VECTNIL+2              cn=0,n=1
         1 000016   200012 000014                    ADSC9   PARAM_INDEX,,AUTO        cn=0,n=12

     2107     2973    1           PARAM_LN = %CLEAR;

   2973  1 000017   000100 100400                    MLR     fill='000'O
         1 000020   000002 000001 xsym               ADSC9   B_VECTNIL+2              cn=0,n=1
         1 000021   200015 000014                    ADSC9   PARAM_LN,,AUTO           cn=0,n=12

     2108     2974    1           NUM_PARAMS = 0;

PL6.E3A0      #017=VDG$EXEC_CONTROL File=VDG$UTILITY.:VDA5TSI                    FRI 07/04/97 11:24 Page:353
   2974  1 000022   200020 450100                    STZ     NUM_PARAMS,,AUTO

     2109     2975    1           ARG_VALUES = %CLEAR;

   2975  1 000023   000000 235003                    LDA     0,DU
         1 000024   000000 236003                    LDQ     0,DU
         1 000025   200042 757100                    STAQ    ARG_VALUES,,AUTO

     2110     2976
     2111     2977                /* Delimit the function invokation */
     2112     2978
     2113     2979    1           FUNC_ID =

   2979  1 000026   200003 471500                    LDP1    @LN_TEXT,,AUTO
         1 000027   100000 720100                    LXL0    0,,PR1
         1 000030   200005 473500                    LDP3    @CONTROL_INDEX,,AUTO
         1 000031   000002 236000 xsym               LDQ     VD_$CONTROL+2
         1 000032   000022 732000                    QRS     18
         1 000033   300000 036100                    ADLQ    0,,PR3
         1 000034   200004 474500                    LDP4    @TEXT,,AUTO
         1 000035   040100 100506                    MLR     fill='040'O
         1 000036   400000 000001                    ADSC9   0,Q,PR4                  cn=0,n=1
         1 000037   200010 000001                    ADSC9   FUNC_ID,,AUTO            cn=0,n=1

     2114     2980    1             SUBSTR(TEXT, CONTROL_INDEX + VD_$CONTROL.LENGTH#, 1);
     2115     2981    1           CALL XLATE (FUNC_ID, B$XL_UPPER, FUNC_ID);

   2981  1 000040   000000 475400 xsym               LDP5    B$XL_UPPER$
         1 000041   040100 160500                    MVT     fill='040'O
         1 000042   200010 000001                    ADSC9   FUNC_ID,,AUTO            cn=0,n=1
         1 000043   200010 000001                    ADSC9   FUNC_ID,,AUTO            cn=0,n=1
         1 000044   500000 000100                    ARG     0,,PR5

     2116     2982    1           POST_INDEX = CONTROL_INDEX + VD_$CONTROL.LENGTH# + 1;

   2982  1 000045   000002 236000 xsym               LDQ     VD_$CONTROL+2
         1 000046   000022 732000                    QRS     18
PL6.E3A0      #017=VDG$EXEC_CONTROL File=VDG$UTILITY.:VDA5TSI                    FRI 07/04/97 11:24 Page:354
         1 000047   300000 036100                    ADLQ    0,,PR3
         1 000050   000001 036007                    ADLQ    1,DL
         1 000051   200011 756100                    STQ     POST_INDEX,,AUTO

     2117     2983
     2118     2984    2           DO SELECT (FUNC_ID);

   2984  1 000052   200010 236100                    LDQ     FUNC_ID,,AUTO
         1 000053   777000 376003                    ANQ     -512,DU
         1 000054   126000 116003                    CMPQ    44032,DU
         1 000055   000315 602000 1                  TNC     s:3086
         1 000056   200010 236100                    LDQ     FUNC_ID,,AUTO
         1 000057   777000 376003                    ANQ     -512,DU
         1 000060   126000 116003                    CMPQ    44032,DU
         1 000061   000067 600000 1                  TZE     s:2990
         1 000062   200010 236100                    LDQ     FUNC_ID,,AUTO
         1 000063   777000 376003                    ANQ     -512,DU
         1 000064   127000 116003                    CMPQ    44544,DU
         1 000065   000315 601000 1                  TNZ     s:3086
         1 000066   000067 710000 1                  TRA     s:2990

     2119     2985    2              SELECT (%FNID_VALUE, %FNID_WILD_CHAR

     2120     2986    2             /*N* , %FNID_SET_OF_SEQUENCES *N*/ );
     2121     2987                   /*
     2122     2988                   *    These $CONTROL-Functions require numeric parameters.
     2123     2989                   */
     2124     2990    2              IF SUBSTR(TEXT, POST_INDEX, 1) ~= %CHR_LPAREN THEN

   2990  1 000067   200011 236100                    LDQ     POST_INDEX,,AUTO
         1 000070   040000 106506                    CMPC    fill='040'O
         1 000071   400000 000001                    ADSC9   0,Q,PR4                  cn=0,n=1
         1 000072   000000 000001 2                  ADSC9   0                        cn=0,n=1
         1 000073   000612 601000 1                  TNZ     NO_CTRLFN_LEFT_PAREN

     2125     2991    2                 GOTO NO_CTRLFN_LEFT_PAREN;
     2126     2992    2              PARAM_INDEX (0) = POST_INDEX + 1;
PL6.E3A0      #017=VDG$EXEC_CONTROL File=VDG$UTILITY.:VDA5TSI                    FRI 07/04/97 11:24 Page:355

   2992  1 000074   000001 036007                    ADLQ    1,DL
         1 000075   200012 756100                    STQ     PARAM_INDEX,,AUTO

     2127     2993    2              CALL INDEX (POST_INDEX, %CHR_RPAREN, TEXT, PARAM_INDEX (0))

   2993  1 000076   000000 636010                    EAQ     0,X0
         1 000077   000022 772000                    QRL     18
         1 000100   200012 136100                    SBLQ    PARAM_INDEX,,AUTO
         1 000101   200052 756100                    STQ     ERR_MAX_VALUE+2,,AUTO
         1 000102   200012 236100                    LDQ     PARAM_INDEX,,AUTO
         1 000103   200052 720100                    LXL0    ERR_MAX_VALUE+2,,AUTO
         1 000104   200012 235100                    LDA     PARAM_INDEX,,AUTO
         1 000105   000000 124545                    SCM     mask='000'O
         1 000106   400000 000010                    ADSC9   0,A,PR4                  cn=0,n=*X0
         1 000107   000001 000001 2                  ADSC9   1                        cn=0,n=1
         1 000110   200011 000100                    ARG     POST_INDEX,,AUTO
         1 000111   200011 056100                    ASQ     POST_INDEX,,AUTO
         1 000112   000615 606400 1                  TTN     NO_CTRLFN_RIGHT_PAREN

     2128     2994    2                ALTRET (NO_CTRLFN_RIGHT_PAREN);
     2129     2995    2              POST_INDEX = POST_INDEX + 1;

   2995  1 000113   200011 054100                    AOS     POST_INDEX,,AUTO

     2130     2996
     2131     2997    3              DO WHILE PARAM_INDEX (NUM_PARAMS) < POST_INDEX;

   2997  1 000114   200020 720100                    LXL0    NUM_PARAMS,,AUTO
         1 000115   200012 236110                    LDQ     PARAM_INDEX,X0,AUTO
         1 000116   200011 116100                    CMPQ    POST_INDEX,,AUTO
         1 000117   000151 605000 1                  TPL     s:3004

     2132     2998    3                 NUM_PARAMS = NUM_PARAMS + 1;

   2998  1 000120   200020 054100                    AOS     NUM_PARAMS,,AUTO

PL6.E3A0      #017=VDG$EXEC_CONTROL File=VDG$UTILITY.:VDA5TSI                    FRI 07/04/97 11:24 Page:356
     2133     2999    3                 CALL INDEX (PARAM_INDEX (NUM_PARAMS), %CHR_COMMA, TEXT,

   2999  1 000121   200003 470500                    LDP0    @LN_TEXT,,AUTO
         1 000122   000000 720100                    LXL0    0,,PR0
         1 000123   200020 721100                    LXL1    NUM_PARAMS,,AUTO
         1 000124   000000 636010                    EAQ     0,X0
         1 000125   000022 772000                    QRL     18
         1 000126   200011 136111                    SBLQ    POST_INDEX,X1,AUTO
         1 000127   200011 235111                    LDA     POST_INDEX,X1,AUTO
         1 000130   200052 756100                    STQ     ERR_MAX_VALUE+2,,AUTO
         1 000131   200011 236111                    LDQ     POST_INDEX,X1,AUTO
         1 000132   200004 471500                    LDP1    @TEXT,,AUTO
         1 000133   200052 720100                    LXL0    ERR_MAX_VALUE+2,,AUTO
         1 000134   000000 124545                    SCM     mask='000'O
         1 000135   100000 000010                    ADSC9   0,A,PR1                  cn=0,n=*X0
         1 000136   000002 000001 2                  ADSC9   2                        cn=0,n=1
         1 000137   200012 000111                    ARG     PARAM_INDEX,X1,AUTO
         1 000140   200012 056111                    ASQ     PARAM_INDEX,X1,AUTO

     2134     3000    3                   PARAM_INDEX (NUM_PARAMS - 1));
     2135     3001    3                 PARAM_INDEX (NUM_PARAMS) = MINIMUM (POST_INDEX,

   3001  1 000141   200012 236111                    LDQ     PARAM_INDEX,X1,AUTO
         1 000142   000001 036007                    ADLQ    1,DL
         1 000143   200011 116100                    CMPQ    POST_INDEX,,AUTO
         1 000144   000146 604400 1                  TMOZ    s:3001+5
         1 000145   200011 236100                    LDQ     POST_INDEX,,AUTO
         1 000146   200012 756111                    STQ     PARAM_INDEX,X1,AUTO

     2136     3002    3                   PARAM_INDEX (NUM_PARAMS) + %LENGTHC(CHR_COMMA));
     2137     3003    3                 END;

   3003  1 000147   200011 116100                    CMPQ    POST_INDEX,,AUTO
         1 000150   000120 604000 1                  TMI     s:2998

     2138     3004    3              DO I = 0 TO (NUM_PARAMS - 1);

PL6.E3A0      #017=VDG$EXEC_CONTROL File=VDG$UTILITY.:VDA5TSI                    FRI 07/04/97 11:24 Page:357
   3004  1 000151   200021 450100                    STZ     I,,AUTO
         1 000152   000161 710000 1                  TRA     s:3007+1

     2139     3005    3                 PARAM_LN (I) = PARAM_INDEX (I+1) - PARAM_INDEX (I) -

   3005  1 000153   200021 720100                    LXL0    I,,AUTO
         1 000154   200013 236110                    LDQ     PARAM_INDEX+1,X0,AUTO
         1 000155   200012 136110                    SBLQ    PARAM_INDEX,X0,AUTO
         1 000156   000001 136007                    SBLQ    1,DL
         1 000157   200015 756110                    STQ     PARAM_LN,X0,AUTO

     2140     3006    3                   %LENGTHC(CHR_COMMA);
     2141     3007    3                 END;

   3007  1 000160   200021 054100                    AOS     I,,AUTO
         1 000161   200021 236100                    LDQ     I,,AUTO
         1 000162   200020 116100                    CMPQ    NUM_PARAMS,,AUTO
         1 000163   000153 604000 1                  TMI     s:3005

     2142     3008
     2143     3009    3              DO SELECT (FUNC_ID); /* Initialize default values */

   3009  1 000164   200010 236100                    LDQ     FUNC_ID,,AUTO
         1 000165   777000 376003                    ANQ     -512,DU
         1 000166   126000 116003                    CMPQ    44032,DU
         1 000167   000210 602000 1                  TNC     s:3029
         1 000170   200010 236100                    LDQ     FUNC_ID,,AUTO
         1 000171   777000 376003                    ANQ     -512,DU
         1 000172   126000 116003                    CMPQ    44032,DU
         1 000173   000201 600000 1                  TZE     s:3011
         1 000174   200010 236100                    LDQ     FUNC_ID,,AUTO
         1 000175   777000 376003                    ANQ     -512,DU
         1 000176   127000 116003                    CMPQ    44544,DU
         1 000177   000210 601000 1                  TNZ     s:3029
         1 000200   000205 710000 1                  TRA     s:3014

     2144     3010    3                 SELECT (%FNID_VALUE);
PL6.E3A0      #017=VDG$EXEC_CONTROL File=VDG$UTILITY.:VDA5TSI                    FRI 07/04/97 11:24 Page:358

     2145     3011    3                 ARG_VALUES (0) = 0;

   3011  1 000201   200042 450100                    STZ     ARG_VALUES,,AUTO

     2146     3012    3                 ARG_VALUES (1) = %MX_BYTE_VALUE;

   3012  1 000202   000777 235007                    LDA     511,DL
         1 000203   200043 755100                    STA     ARG_VALUES+1,,AUTO
         1 000204   000210 710000 1                  TRA     s:3029

     2147     3013    3                 SELECT (%FNID_WILD_CHAR);

     2148     3014    3                 ARG_VALUES (0) = 0;

   3014  1 000205   200042 450100                    STZ     ARG_VALUES,,AUTO

     2149     3015    3                 ARG_VALUES (1) = %INFINITY;

   3015  1 000206   000031 235000 xsym               LDA     B_VECTNIL+25
         1 000207   200043 755100                    STA     ARG_VALUES+1,,AUTO

     2150     3016                    /*N* SELECT (%FNID_SET_OF_SEQUENCES);   *N*/
     2151     3017                    /*N*   ARG_VALUES (0) = 1;              *N*/
     2152     3018                    /*N*   ARG_VALUES (1) = 0;              *N*/
     2153     3019    3                 END;

     2154     3020                   /*
     2155     3021                   *  If we have:            ARG_VALUES should get:
     2156     3022                   *     ()                      dflt, dflt
     2157     3023                   *     (,)                     dflt, dflt
     2158     3024                   *     (m)                     m, m
     2159     3025                   *     (m,)                    m, dflt
     2160     3026                   *     (,n)                    dflt, n
     2161     3027                   *     (m,n)                   m, n
     2162     3028                   */
     2163     3029    2              IF PARAM_LN (0) > 0
PL6.E3A0      #017=VDG$EXEC_CONTROL File=VDG$UTILITY.:VDA5TSI                    FRI 07/04/97 11:24 Page:359

   3029  1 000210   200015 235100                    LDA     PARAM_LN,,AUTO
         1 000211   000254 604400 1                  TMOZ    s:3045
         1 000212   200003 470500                    LDP0    @LN_TEXT,,AUTO
         1 000213   000000 720100                    LXL0    0,,PR0
         1 000214   200004 471500                    LDP1    @TEXT,,AUTO
         1 000215   000000 621005                    EAX1    0,AL
         1 000216   200012 235100                    LDA     PARAM_INDEX,,AUTO
         1 000217   040000 106545                    CMPC    fill='040'O
         1 000220   100000 000011                    ADSC9   0,A,PR1                  cn=0,n=*X1
         1 000221   000035 000001 xsym               ADSC9   B_VECTNIL+29             cn=0,n=1
         1 000222   000254 600000 1                  TZE     s:3045

     2164     3030    2                AND SUBSTR(TEXT, PARAM_INDEX (0), PARAM_LN (0)) ~=
     2165     3031    3                %CHR_SPACE THEN DO;

     2166     3032                      /* Got "m" */
     2167     3033    3                 IF PARAM_LN (0) > %MXNB_NUM_LITERAL THEN

   3033  1 000223   200015 236100                    LDQ     PARAM_LN,,AUTO
         1 000224   000077 116007                    CMPQ    63,DL
         1 000225   000620 605400 1                  TPNZ    CTRLFN_NUM_PARAM_NOT_LEGAL

     2168     3034    3                    GOTO CTRLFN_NUM_PARAM_NOT_LEGAL;
     2169     3035    3                 DEC.LENGTH# = PARAM_LN (0);

   3035  1 000226   000033 736000                    QLS     27
         1 000227   200022 552140                    STBQ    DEC,'40'O,AUTO

     2170     3036    3                 DEC.BYTES = SUBSTR(TEXT, PARAM_INDEX (0), PARAM_LN (0));

   3036  1 000230   000000 720100                    LXL0    0,,PR0
         1 000231   200015 721100                    LXL1    PARAM_LN,,AUTO
         1 000232   040100 100545                    MLR     fill='040'O
         1 000233   100000 000011                    ADSC9   0,A,PR1                  cn=0,n=*X1
         1 000234   200022 200077                    ADSC9   DEC,,AUTO                cn=1,n=63

PL6.E3A0      #017=VDG$EXEC_CONTROL File=VDG$UTILITY.:VDA5TSI                    FRI 07/04/97 11:24 Page:360
     2171     3037    3                 CALL X$DEC_CONVERT (ADDR(DEC), ARG_VALUES (0))

   3037  1 000235   200022 633500                    EPPR3   DEC,,AUTO
         1 000236   200052 453500                    STP3    ERR_MAX_VALUE+2,,AUTO
         1 000237   200042 634500                    EPPR4   ARG_VALUES,,AUTO
         1 000240   200055 454500                    STP4    ERR_MAX_VALUE+5,,AUTO
         1 000241   200052 635500                    EPPR5   ERR_MAX_VALUE+2,,AUTO
         1 000242   200054 455500                    STP5    ERR_MAX_VALUE+4,,AUTO
         1 000243   200054 630500                    EPPR0   ERR_MAX_VALUE+4,,AUTO
         1 000244   000020 631400 xsym               EPPR1   B_VECTNIL+16
         1 000245   000000 701000 xent               TSX1    X$DEC_CONVERT
         1 000246   000620 702000 1                  TSX2    CTRLFN_NUM_PARAM_NOT_LEGAL

     2172     3038    3                   ALTRET (DEC_CONVERT_FAILED);
     2173     3039    3                 IF NUM_PARAMS = 1

   3039  1 000247   200020 235100                    LDA     NUM_PARAMS,,AUTO
         1 000250   000001 115007                    CMPA    1,DL
         1 000251   000254 601000 1                  TNZ     s:3045

     2174     3040    4   /*N* AND FUNC_ID ~= %FNID_SET_OF_SEQUENCES *N*/ THEN DO;

     2175     3041                         /* Got "m" alone:  no comma, no "n" */
     2176     3042    4                    ARG_VALUES (1) = ARG_VALUES (0);

   3042  1 000252   200042 236100                    LDQ     ARG_VALUES,,AUTO
         1 000253   200043 756100                    STQ     ARG_VALUES+1,,AUTO

     2177     3043    4                    END;

     2178     3044    3                 END;

     2179     3045    2              IF NUM_PARAMS > 1

   3045  1 000254   200020 235100                    LDA     NUM_PARAMS,,AUTO
         1 000255   000001 115007                    CMPA    1,DL
         1 000256   000315 604400 1                  TMOZ    s:3086
PL6.E3A0      #017=VDG$EXEC_CONTROL File=VDG$UTILITY.:VDA5TSI                    FRI 07/04/97 11:24 Page:361
         1 000257   200016 236100                    LDQ     PARAM_LN+1,,AUTO
         1 000260   000315 604400 1                  TMOZ    s:3086
         1 000261   200003 470500                    LDP0    @LN_TEXT,,AUTO
         1 000262   000000 720100                    LXL0    0,,PR0
         1 000263   200004 471500                    LDP1    @TEXT,,AUTO
         1 000264   000000 621006                    EAX1    0,QL
         1 000265   200013 236100                    LDQ     PARAM_INDEX+1,,AUTO
         1 000266   040000 106546                    CMPC    fill='040'O
         1 000267   100000 000011                    ADSC9   0,Q,PR1                  cn=0,n=*X1
         1 000270   000035 000001 xsym               ADSC9   B_VECTNIL+29             cn=0,n=1
         1 000271   000315 600000 1                  TZE     s:3086

     2180     3046    2                AND PARAM_LN (1) > 0
     2181     3047    2                AND SUBSTR(TEXT, PARAM_INDEX (1), PARAM_LN (1)) ~=
     2182     3048    3                %CHR_SPACE THEN DO;

     2183     3049                      /* Got "n" */
     2184     3050    3                 DEC.LENGTH# = PARAM_LN (1);

   3050  1 000272   200016 236100                    LDQ     PARAM_LN+1,,AUTO
         1 000273   000033 736000                    QLS     27
         1 000274   200022 552140                    STBQ    DEC,'40'O,AUTO

     2185     3051    3                 DEC.BYTES = SUBSTR (TEXT, PARAM_INDEX (1), PARAM_LN (1));

   3051  1 000275   000000 720100                    LXL0    0,,PR0
         1 000276   200016 721100                    LXL1    PARAM_LN+1,,AUTO
         1 000277   200013 236100                    LDQ     PARAM_INDEX+1,,AUTO
         1 000300   040100 100546                    MLR     fill='040'O
         1 000301   100000 000011                    ADSC9   0,Q,PR1                  cn=0,n=*X1
         1 000302   200022 200077                    ADSC9   DEC,,AUTO                cn=1,n=63

     2186     3052    3                 CALL X$DEC_CONVERT (ADDR(DEC), ARG_VALUES (1))

   3052  1 000303   200022 633500                    EPPR3   DEC,,AUTO
         1 000304   200052 453500                    STP3    ERR_MAX_VALUE+2,,AUTO
         1 000305   200043 634500                    EPPR4   ARG_VALUES+1,,AUTO
PL6.E3A0      #017=VDG$EXEC_CONTROL File=VDG$UTILITY.:VDA5TSI                    FRI 07/04/97 11:24 Page:362
         1 000306   200055 454500                    STP4    ERR_MAX_VALUE+5,,AUTO
         1 000307   200052 635500                    EPPR5   ERR_MAX_VALUE+2,,AUTO
         1 000310   200054 455500                    STP5    ERR_MAX_VALUE+4,,AUTO
         1 000311   200054 630500                    EPPR0   ERR_MAX_VALUE+4,,AUTO
         1 000312   000020 631400 xsym               EPPR1   B_VECTNIL+16
         1 000313   000000 701000 xent               TSX1    X$DEC_CONVERT
         1 000314   000620 702000 1                  TSX2    CTRLFN_NUM_PARAM_NOT_LEGAL

     2187     3053    3                   ALTRET (DEC_CONVERT_FAILED);
     2188     3054    3                 END;

     2189     3055
     2190     3056    2              END;

     2191     3057
     2192     3058
     2193     3059                %BOX (TITLE="Execute the function");

              3071    2   /***************************************************************************
              3073    2    *                                                                         *
              3077    2            *                            Execute the function                        *
              3079    2            *                                                                        *
              3081    2          ***************************************************************************/

     2194     3085
     2195     3086    1           IF VD$CONTROL.BYTES = SUBSTR (TEXT, POST_INDEX-1, VD_$CONTROL.LENGTH#)

   3086  1 000315   000000 470400 0                  LDP0    PTR_$CONTROL$
         1 000316   000002 220100                    LDX0    2,,PR0
         1 000317   200003 471500                    LDP1    @LN_TEXT,,AUTO
         1 000320   100000 721100                    LXL1    0,,PR1
         1 000321   200004 473500                    LDP3    @TEXT,,AUTO
         1 000322   000002 222000 xsym               LDX2    VD_$CONTROL+2
         1 000323   200011 235100                    LDA     POST_INDEX,,AUTO
         1 000324   040145 106540                    CMPC    fill='040'O
         1 000325   000002 400010                    ADSC9   2,,PR0                   cn=2,n=*X0
         1 000326   377777 600012                    ADSC9   -1,A,PR3                 cn=3,n=*X2
PL6.E3A0      #017=VDG$EXEC_CONTROL File=VDG$UTILITY.:VDA5TSI                    FRI 07/04/97 11:24 Page:363
         1 000327   000366 601000 1                  TNZ     FUNC_ID_CASES

     2196     3087    2           THEN DO;

     2197     3088                   /*
     2198     3089                   *    $CONTROL-Literal function.
     2199     3090                   */
     2200     3091                   %INCREMENT (INDX=%STG_CTRL_LITERAL);

   3092  1 000330   000054 054000 xsym               AOS     VD_6E+44

     2201     3094    2              CONTROL_INDEX = CONTROL_INDEX + VD_$CONTROL.LENGTH#;

   3094  1 000331   200005 474500                    LDP4    @CONTROL_INDEX,,AUTO
         1 000332   000002 236000 xsym               LDQ     VD_$CONTROL+2
         1 000333   000022 732000                    QRS     18
         1 000334   400000 036100                    ADLQ    0,,PR4
         1 000335   400000 756100                    STQ     0,,PR4

     2202     3095    2              POST_INDEX = CONTROL_INDEX + VD_$CONTROL.LENGTH#;

   3095  1 000336   000002 236000 xsym               LDQ     VD_$CONTROL+2
         1 000337   000022 732000                    QRS     18
         1 000340   400000 036100                    ADLQ    0,,PR4
         1 000341   200011 756100                    STQ     POST_INDEX,,AUTO

     2203     3096    2              SUBSTR (TEXT, CONTROL_INDEX) = SUBSTR (TEXT, POST_INDEX);

   3096  1 000342   100000 720100                    LXL0    0,,PR1
         1 000343   000000 636010                    EAQ     0,X0
         1 000344   000022 772000                    QRL     18
         1 000345   400000 136100                    SBLQ    0,,PR4
         1 000346   400000 235100                    LDA     0,,PR4
         1 000347   200052 756100                    STQ     ERR_MAX_VALUE+2,,AUTO
         1 000350   000000 636010                    EAQ     0,X0
         1 000351   000022 772000                    QRL     18
         1 000352   200011 136100                    SBLQ    POST_INDEX,,AUTO
PL6.E3A0      #017=VDG$EXEC_CONTROL File=VDG$UTILITY.:VDA5TSI                    FRI 07/04/97 11:24 Page:364
         1 000353   000000 620006                    EAX0    0,QL
         1 000354   200011 236100                    LDQ     POST_INDEX,,AUTO
         1 000355   200052 721100                    LXL1    ERR_MAX_VALUE+2,,AUTO
         1 000356   040145 100546                    MLR     fill='040'O
         1 000357   300000 000010                    ADSC9   0,Q,PR3                  cn=0,n=*X0
         1 000360   300000 000011                    ADSC9   0,A,PR3                  cn=0,n=*X1

     2204     3097    2              LN_TEXT = LN_TEXT + CONTROL_INDEX - POST_INDEX;

   3097  1 000361   100000 236100                    LDQ     0,,PR1
         1 000362   400000 036100                    ADLQ    0,,PR4
         1 000363   200011 136100                    SBLQ    POST_INDEX,,AUTO
         1 000364   100000 756100                    STQ     0,,PR1

     2205     3098    2              RETURN;

   3098  1 000365   000000 702200 xent               TSX2  ! X66_ARET

     2206     3099    2              END;
     2207     3100    1           ELSE
     2208     3101    1   FUNC_ID_CASES:
     2209     3102    2           DO SELECT ASCBIN(FUNC_ID);

   3102  1 000366   200010 236100       FUNC_ID_CAS* LDQ     FUNC_ID,,AUTO
         1 000367   000033 772000                    QRL     27
         1 000370   000122 116007                    CMPQ    82,DL
         1 000371   000401 602000 1                  TNC     FUNC_ID_CASES+11
         1 000372   000515 600000 1                  TZE     s:3131
         1 000373   000126 116007                    CMPQ    86,DL
         1 000374   000610 602000 1                  TNC     s:3206
         1 000375   000412 600000 1                  TZE     s:3105
         1 000376   000127 116007                    CMPQ    87,DL
         1 000377   000610 601000 1                  TNZ     s:3206
         1 000400   000525 710000 1                  TRA     s:3147
         1 000401   000102 116007                    CMPQ    66,DL
         1 000402   000407 602000 1                  TNC     FUNC_ID_CASES+17
         1 000403   000570 600000 1                  TZE     s:3191
PL6.E3A0      #017=VDG$EXEC_CONTROL File=VDG$UTILITY.:VDA5TSI                    FRI 07/04/97 11:24 Page:365
         1 000404   000105 116007                    CMPQ    69,DL
         1 000405   000610 601000 1                  TNZ     s:3206
         1 000406   000600 710000 1                  TRA     s:3199
         1 000407   000077 116007                    CMPQ    63,DL
         1 000410   000610 601000 1                  TNZ     s:3206
         1 000411   000560 710000 1                  TRA     s:3165

     2210     3103    2              SELECT (%ASCBIN(FNID_VALUE));

     2211     3104                   %INCREMENT (INDX=%STG_CTRL_VALUE);

   3105  1 000412   000055 054000 xsym               AOS     VD_6E+45

     2212     3107    2              IF NUM_PARAMS > 2 THEN

   3107  1 000413   200020 235100                    LDA     NUM_PARAMS,,AUTO
         1 000414   000002 115007                    CMPA    2,DL
         1 000415   000626 605400 1                  TPNZ    TOO_MANY_CTRLFN_VALUE_PARAMS

     2213     3108    2                 GOTO TOO_MANY_CTRLFN_VALUE_PARAMS;
     2214     3109    2              IF ARG_VALUES (0) < 0 OR ARG_VALUES (0) > %MX_BYTE_VALUE

   3109  1 000416   200042 235100                    LDA     ARG_VALUES,,AUTO
         1 000417   000426 604000 1                  TMI     s:3111
         1 000420   000777 115007                    CMPA    511,DL
         1 000421   000426 605400 1                  TPNZ    s:3111
         1 000422   200043 235100                    LDA     ARG_VALUES+1,,AUTO
         1 000423   000426 604000 1                  TMI     s:3111
         1 000424   000777 115007                    CMPA    511,DL
         1 000425   000432 604400 1                  TMOZ    s:3115

     2215     3110    3                OR ARG_VALUES (1) < 0 OR ARG_VALUES (1) > %MX_BYTE_VALUE THEN DO;

     2216     3111    3                 ERR_MIN_VALUE = 0;

   3111  1 000426   200047 450100                    STZ     ERR_MIN_VALUE,,AUTO

PL6.E3A0      #017=VDG$EXEC_CONTROL File=VDG$UTILITY.:VDA5TSI                    FRI 07/04/97 11:24 Page:366
     2217     3112    3                 ERR_MAX_VALUE = %MX_BYTE_VALUE;

   3112  1 000427   000777 235007                    LDA     511,DL
         1 000430   200050 755100                    STA     ERR_MAX_VALUE,,AUTO

     2218     3113    3                 GOTO CTRLFN_NUM_PARAM_NOT_INRANGE;

   3113  1 000431   000623 710000 1                  TRA     CTRLFN_NUM_PARAM_NOT_INRANGE

     2219     3114    3                 END;
     2220     3115    2              CALL INSERT (TEXT, CONTROL_INDEX, 1, BINASC(ARG_VALUES(0)));

   3115  1 000432   100000 720100                    LXL0    0,,PR1
         1 000433   200042 236100                    LDQ     ARG_VALUES,,AUTO
         1 000434   000033 736000                    QLS     27
         1 000435   000003 276000 2                  ORQ     3
         1 000436   200005 474500                    LDP4    @CONTROL_INDEX,,AUTO
         1 000437   400000 235100                    LDA     0,,PR4
         1 000440   200052 756100                    STQ     ERR_MAX_VALUE+2,,AUTO
         1 000441   040105 100500                    MLR     fill='040'O
         1 000442   200052 000004                    ADSC9   ERR_MAX_VALUE+2,,AUTO    cn=0,n=4
         1 000443   300000 000001                    ADSC9   0,A,PR3                  cn=0,n=1

     2221     3116    2              CONTROL_INDEX = CONTROL_INDEX + 1;

   3116  1 000444   400000 235100                    LDA     0,,PR4
         1 000445   000001 035007                    ADLA    1,DL
         1 000446   400000 755100                    STA     0,,PR4

     2222     3117    2              SUBSTR (TEXT, CONTROL_INDEX) = SUBSTR (TEXT, POST_INDEX);

   3117  1 000447   100000 720100                    LXL0    0,,PR1
         1 000450   000000 636010                    EAQ     0,X0
         1 000451   000022 772000                    QRL     18
         1 000452   400000 136100                    SBLQ    0,,PR4
         1 000453   200052 756100                    STQ     ERR_MAX_VALUE+2,,AUTO
         1 000454   000000 636010                    EAQ     0,X0
PL6.E3A0      #017=VDG$EXEC_CONTROL File=VDG$UTILITY.:VDA5TSI                    FRI 07/04/97 11:24 Page:367
         1 000455   000022 772000                    QRL     18
         1 000456   200011 136100                    SBLQ    POST_INDEX,,AUTO
         1 000457   000000 620006                    EAX0    0,QL
         1 000460   200011 236100                    LDQ     POST_INDEX,,AUTO
         1 000461   200052 721100                    LXL1    ERR_MAX_VALUE+2,,AUTO
         1 000462   040145 100546                    MLR     fill='040'O
         1 000463   300000 000010                    ADSC9   0,Q,PR3                  cn=0,n=*X0
         1 000464   300000 000011                    ADSC9   0,A,PR3                  cn=0,n=*X1

     2223     3118    2              LN_TEXT = LN_TEXT + CONTROL_INDEX - POST_INDEX;

   3118  1 000465   100000 236100                    LDQ     0,,PR1
         1 000466   400000 036100                    ADLQ    0,,PR4
         1 000467   200011 136100                    SBLQ    POST_INDEX,,AUTO
         1 000470   100000 756100                    STQ     0,,PR1

     2224     3119    3              IF NUM_PARAMS > 1 THEN DO;

   3119  1 000471   200020 235100                    LDA     NUM_PARAMS,,AUTO
         1 000472   000001 115007                    CMPA    1,DL
         1 000473   000510 604400 1                  TMOZ    s:3126

     2225     3120    3                 IF ADDR(CTRL_ARGS) = ADDR(NIL) THEN

   3120  1 000474   200007 236100                    LDQ     @CTRL_ARGS,,AUTO
         1 000475   000001 116000 xsym               CMPQ    B_VECTNIL+1
         1 000476   000626 600000 1                  TZE     TOO_MANY_CTRLFN_VALUE_PARAMS

     2226     3121    3                    GOTO TOO_MANY_CTRLFN_VALUE_PARAMS;
     2227     3122    3                 CTRL_ARGS = ARG_VALUES;

   3122  1 000477   200007 475500                    LDP5    @CTRL_ARGS,,AUTO
         1 000500   200042 237100                    LDAQ    ARG_VALUES,,AUTO
         1 000501   500000 755100                    STA     0,,PR5
         1 000502   500001 756100                    STQ     1,,PR5

     2228     3123    3                 RET_CODE = FUNC_ID;
PL6.E3A0      #017=VDG$EXEC_CONTROL File=VDG$UTILITY.:VDA5TSI                    FRI 07/04/97 11:24 Page:368

   3123  1 000503   200006 476500                    LDP6    @RET_CODE,,AUTO
         1 000504   040100 100500                    MLR     fill='040'O
         1 000505   200010 000001                    ADSC9   FUNC_ID,,AUTO            cn=0,n=1
         1 000506   600000 000001                    ADSC9   0,,PR6                   cn=0,n=1

     2229     3124    3                 END;

   3124  1 000507   000611 710000 1                  TRA     s:3210

     2230     3125    2              ELSE
     2231     3126    2                 RET_CODE = %CHR_SPACE;

   3126  1 000510   200006 475500                    LDP5    @RET_CODE,,AUTO
         1 000511   040100 100400                    MLR     fill='040'O
         1 000512   000035 000001 xsym               ADSC9   B_VECTNIL+29             cn=0,n=1
         1 000513   500000 000001                    ADSC9   0,,PR5                   cn=0,n=1
         1 000514   000611 710000 1                  TRA     s:3210

     2232     3127
     2233     3128
     2234     3129    2              SELECT (%ASCBIN(FNID_RECORD));

     2235     3130                   %INCREMENT (INDX=%STG_CTRL_RECORD);

   3131  1 000515   000056 054000 xsym               AOS     VD_6E+46

     2236     3133    2              CONTROL_INDEX = POST_INDEX;

   3133  1 000516   200005 474500                    LDP4    @CONTROL_INDEX,,AUTO
         1 000517   400000 755100                    STA     0,,PR4

     2237     3134    2              RET_CODE = FUNC_ID;

   3134  1 000520   200006 475500                    LDP5    @RET_CODE,,AUTO
         1 000521   040100 100500                    MLR     fill='040'O
         1 000522   200010 000001                    ADSC9   FUNC_ID,,AUTO            cn=0,n=1
PL6.E3A0      #017=VDG$EXEC_CONTROL File=VDG$UTILITY.:VDA5TSI                    FRI 07/04/97 11:24 Page:369
         1 000523   500000 000001                    ADSC9   0,,PR5                   cn=0,n=1
         1 000524   000611 710000 1                  TRA     s:3210

     2238     3135
     2239     3136
     2240     3137        /*N*
     2241     3138        *N*      SELECT (%ASCBIN(FNID_CURRENT));
     2242     3139        *N*        %INCREMENT (INDX=%STG_CTRL_CURRENT);
     2243     3140        *N*        CONTROL_INDEX = POST_INDEX;
     2244     3141        *N*        RET_CODE = FUNC_ID;
     2245     3142        *N*/
     2246     3143
     2247     3144
     2248     3145    2              SELECT (%ASCBIN(FNID_WILD_CHAR));

     2249     3146                   %INCREMENT (INDX=%STG_CTRL_WILD_CHAR);

   3147  1 000525   000060 054000 xsym               AOS     VD_6E+48

     2250     3149    2              IF NUM_PARAMS > 2 THEN

   3149  1 000526   200020 235100                    LDA     NUM_PARAMS,,AUTO
         1 000527   000002 115007                    CMPA    2,DL
         1 000530   000631 605400 1                  TPNZ    TOO_MANY_CTRLFN_WILDC_PARAMS

     2251     3150    2                 GOTO TOO_MANY_CTRLFN_WILDC_PARAMS;
     2252     3151    2              IF ARG_VALUES (0) < 0

   3151  1 000531   200042 235100                    LDA     ARG_VALUES,,AUTO
         1 000532   000535 604000 1                  TMI     s:3153
         1 000533   200043 235100                    LDA     ARG_VALUES+1,,AUTO
         1 000534   000541 605000 1                  TPL     s:3157

     2253     3152    3                OR ARG_VALUES (1) < 0 THEN DO;

     2254     3153    3                 ERR_MIN_VALUE = 0;

PL6.E3A0      #017=VDG$EXEC_CONTROL File=VDG$UTILITY.:VDA5TSI                    FRI 07/04/97 11:24 Page:370
   3153  1 000535   200047 450100                    STZ     ERR_MIN_VALUE,,AUTO

     2255     3154    3                 ERR_MAX_VALUE = %INFINITY;

   3154  1 000536   000031 235000 xsym               LDA     B_VECTNIL+25
         1 000537   200050 755100                    STA     ERR_MAX_VALUE,,AUTO

     2256     3155    3                 GOTO CTRLFN_NUM_PARAM_NOT_INRANGE;

   3155  1 000540   000623 710000 1                  TRA     CTRLFN_NUM_PARAM_NOT_INRANGE

     2257     3156    3                 END;
     2258     3157    2              CONTROL_INDEX = POST_INDEX;

   3157  1 000541   200011 235100                    LDA     POST_INDEX,,AUTO
         1 000542   200005 474500                    LDP4    @CONTROL_INDEX,,AUTO
         1 000543   400000 755100                    STA     0,,PR4

     2259     3158    2              IF ADDR(CTRL_ARGS) ~= ADDR(NIL) THEN

   3158  1 000544   200007 236100                    LDQ     @CTRL_ARGS,,AUTO
         1 000545   000001 116000 xsym               CMPQ    B_VECTNIL+1
         1 000546   000553 600000 1                  TZE     s:3160

     2260     3159    2                 CTRL_ARGS = ARG_VALUES;

   3159  1 000547   200007 475500                    LDP5    @CTRL_ARGS,,AUTO
         1 000550   200042 237100                    LDAQ    ARG_VALUES,,AUTO
         1 000551   500000 755100                    STA     0,,PR5
         1 000552   500001 756100                    STQ     1,,PR5

     2261     3160    2              RET_CODE = FUNC_ID;

   3160  1 000553   200006 475500                    LDP5    @RET_CODE,,AUTO
         1 000554   040100 100500                    MLR     fill='040'O
         1 000555   200010 000001                    ADSC9   FUNC_ID,,AUTO            cn=0,n=1
         1 000556   500000 000001                    ADSC9   0,,PR5                   cn=0,n=1
PL6.E3A0      #017=VDG$EXEC_CONTROL File=VDG$UTILITY.:VDA5TSI                    FRI 07/04/97 11:24 Page:371
         1 000557   000611 710000 1                  TRA     s:3210

     2262     3161
     2263     3162
     2264     3163    2              SELECT (%ASCBIN(FNID_WILD_STRING));

     2265     3164                   %INCREMENT (INDX=%STG_CTRL_WILD_STRING);

   3165  1 000560   000061 054000 xsym               AOS     VD_6E+49

     2266     3167    2              CONTROL_INDEX = POST_INDEX;

   3167  1 000561   200005 474500                    LDP4    @CONTROL_INDEX,,AUTO
         1 000562   400000 755100                    STA     0,,PR4

     2267     3168    2              RET_CODE = FUNC_ID;

   3168  1 000563   200006 475500                    LDP5    @RET_CODE,,AUTO
         1 000564   040100 100500                    MLR     fill='040'O
         1 000565   200010 000001                    ADSC9   FUNC_ID,,AUTO            cn=0,n=1
         1 000566   500000 000001                    ADSC9   0,,PR5                   cn=0,n=1
         1 000567   000611 710000 1                  TRA     s:3210

     2268     3169
     2269     3170
     2270     3171        /*N*
     2271     3172        *N*      SELECT (%ASCBIN(FNID_SET_OF_SEQUENCES));
     2272     3173        *N*        %INCREMENT (INDX=%STG_CTRL_SET_OF_SEQUENCES);
     2273     3174        *N*        IF NUM_PARAMS > 1 THEN
     2274     3175        *N*           GOTO TOO_MANY_CTRLFN_SETSQ_PARAMS;
     2275     3176        *N*        ERR_MIN_VALUE = 0;
     2276     3177        *N*        ERR_MAX_VALUE = LENGTHC(TEXT) - POST_INDEX -
     2277     3178        *N*          VD_$CONTROL.LENGTH# - %LENGTHC(FNID_SET_OF_SEQUENCES);
     2278     3179        *N*        IF ARG_VALUES (0) < ERR_MIN_VALUE
     2279     3180        *N*          OR ARG_VALUES (0) > ERR_MAX_VALUE THEN
     2280     3181        *N*           GOTO CTRLFN_NUM_PARAM_NOT_INRANGE;
     2281     3182        *N*        CONTROL_INDEX = POST_INDEX;
PL6.E3A0      #017=VDG$EXEC_CONTROL File=VDG$UTILITY.:VDA5TSI                    FRI 07/04/97 11:24 Page:372
     2282     3183        *N*        IF ADDR(CTRL_ARGS) ~= ADDR(NIL) THEN
     2283     3184        *N*           CTRL_ARGS = ARG_VALUES;
     2284     3185        *N*        RET_CODE = FUNC_ID;
     2285     3186        *N*/
     2286     3187
     2287     3188
     2288     3189    2              SELECT (%ASCBIN(FNID_BO_MATCH));

     2289     3190                   %INCREMENT (INDX=%STG_CTRL_BO_MATCH);

   3191  1 000570   000063 054000 xsym               AOS     VD_6E+51

     2290     3193    2              CONTROL_INDEX = POST_INDEX;

   3193  1 000571   200005 474500                    LDP4    @CONTROL_INDEX,,AUTO
         1 000572   400000 755100                    STA     0,,PR4

     2291     3194    2              RET_CODE = FUNC_ID;

   3194  1 000573   200006 475500                    LDP5    @RET_CODE,,AUTO
         1 000574   040100 100500                    MLR     fill='040'O
         1 000575   200010 000001                    ADSC9   FUNC_ID,,AUTO            cn=0,n=1
         1 000576   500000 000001                    ADSC9   0,,PR5                   cn=0,n=1
         1 000577   000611 710000 1                  TRA     s:3210

     2292     3195
     2293     3196
     2294     3197    2              SELECT (%ASCBIN(FNID_EO_MATCH));

     2295     3198                   %INCREMENT (INDX=%STG_CTRL_EO_MATCH);

   3199  1 000600   000064 054000 xsym               AOS     VD_6E+52

     2296     3201    2              CONTROL_INDEX = POST_INDEX;

   3201  1 000601   200005 474500                    LDP4    @CONTROL_INDEX,,AUTO
         1 000602   400000 755100                    STA     0,,PR4
PL6.E3A0      #017=VDG$EXEC_CONTROL File=VDG$UTILITY.:VDA5TSI                    FRI 07/04/97 11:24 Page:373

     2297     3202    2              RET_CODE = FUNC_ID;

   3202  1 000603   200006 475500                    LDP5    @RET_CODE,,AUTO
         1 000604   040100 100500                    MLR     fill='040'O
         1 000605   200010 000001                    ADSC9   FUNC_ID,,AUTO            cn=0,n=1
         1 000606   500000 000001                    ADSC9   0,,PR5                   cn=0,n=1
         1 000607   000611 710000 1                  TRA     s:3210

     2298     3203
     2299     3204
     2300     3205    2              SELECT (ELSE);

     2301     3206    2           GOTO CTRLFN_ID_NOT_LEGAL;

   3206  1 000610   000634 710000 1                  TRA     MOVE_TEXT_DOWN_FAILED

     2302     3207
     2303     3208    2              END FUNC_ID_CASES;

     2304     3209
     2305     3210    1           RETURN;

   3210  1 000611   000000 702200 xent               TSX2  ! X66_ARET

     2306     3211
     2307     3212
     2308     3213
     2309     3214                %BOX (TITLE="Error Handlers");

              3226    1   /***************************************************************************
              3228    1    *                                                                         *
              3232    1            *                               Error Handlers                           *
              3234    1            *                                                                        *
              3236    1          ***************************************************************************/

     2310     3240
PL6.E3A0      #017=VDG$EXEC_CONTROL File=VDG$UTILITY.:VDA5TSI                    FRI 07/04/97 11:24 Page:374
     2311     3241    1   NO_CTRLFN_LEFT_PAREN:
     2312     3242    1           ERR_CODE = %E$NO_CTRLFN_LEFT_PAREN;

   3242  1 000612   000065 235007       NO_CTRLFN_L* LDA     53,DL
         1 000613   200044 755100                    STA     ERR_CODE,,AUTO

     2313     3243    1           GOTO SERIOUS_ALTRETURN;

   3243  1 000614   000637 710000 1                  TRA     SERIOUS_ALTRETURN

     2314     3244
     2315     3245    1   NO_CTRLFN_RIGHT_PAREN:
     2316     3246    1           ERR_CODE = %E$NO_CTRLFN_RIGHT_PAREN;

   3246  1 000615   000066 235007       NO_CTRLFN_R* LDA     54,DL
         1 000616   200044 755100                    STA     ERR_CODE,,AUTO

     2317     3247    1           GOTO SERIOUS_ALTRETURN;

   3247  1 000617   000637 710000 1                  TRA     SERIOUS_ALTRETURN

   3243  1 000620                       CTRLFN_NUM_* null
   3243  1 000620                       DEC_CONVERT* null
     2318     3248
     2319     3249    1   CTRLFN_NUM_PARAM_NOT_LEGAL: ;
     2320     3250    1   DEC_CONVERT_FAILED: ;
     2321     3251    1           ERR_CODE = %E$CTRLFN_NUM_PARAM_NOT_LEGAL;

   3251  1 000620   000067 235007                    LDA     55,DL
         1 000621   200044 755100                    STA     ERR_CODE,,AUTO

     2322     3252    1           GOTO SERIOUS_ALTRETURN;

   3252  1 000622   000637 710000 1                  TRA     SERIOUS_ALTRETURN

     2323     3253
     2324     3254    1   CTRLFN_NUM_PARAM_NOT_INRANGE:
PL6.E3A0      #017=VDG$EXEC_CONTROL File=VDG$UTILITY.:VDA5TSI                    FRI 07/04/97 11:24 Page:375
     2325     3255    1           ERR_CODE = %E$CTRLFN_NUM_PARAM_NOT_INRANGE;

   3255  1 000623   000070 235007       CTRLFN_NUM_* LDA     56,DL
         1 000624   200044 755100                    STA     ERR_CODE,,AUTO

     2326     3256    1           GOTO SERIOUS_ALTRETURN;

   3256  1 000625   000637 710000 1                  TRA     SERIOUS_ALTRETURN

     2327     3257
     2328     3258    1   TOO_MANY_CTRLFN_VALUE_PARAMS:
     2329     3259    1           ERR_CODE = %E$TOO_MANY_CTRLFN_VALUE_PARAMS;

   3259  1 000626   000077 236007       TOO_MANY_CT* LDQ     63,DL
         1 000627   200044 756100                    STQ     ERR_CODE,,AUTO

     2330     3260    1           GOTO SERIOUS_ALTRETURN;

   3260  1 000630   000637 710000 1                  TRA     SERIOUS_ALTRETURN

     2331     3261
     2332     3262    1   TOO_MANY_CTRLFN_WILDC_PARAMS:
     2333     3263    1           ERR_CODE = %E$TOO_MANY_CTRLFN_WILDC_PARAMS;

   3263  1 000631   000100 235007       TOO_MANY_CT* LDA     64,DL
         1 000632   200044 755100                    STA     ERR_CODE,,AUTO

     2334     3264    1           GOTO SERIOUS_ALTRETURN;

   3264  1 000633   000637 710000 1                  TRA     SERIOUS_ALTRETURN

   3251  1 000634                       MOVE_TEXT_D* null
     2335     3265
     2336     3266    1   MOVE_TEXT_DOWN_FAILED: ;
     2337     3267    1   CTRLFN_ID_NOT_LEGAL:
     2338     3268    1           ERR_CODE = %E$CTRLFN_ID_NOT_LEGAL;

PL6.E3A0      #017=VDG$EXEC_CONTROL File=VDG$UTILITY.:VDA5TSI                    FRI 07/04/97 11:24 Page:376
   3268  1 000634   000071 235007       CTRLFN_ID_N* LDA     57,DL
         1 000635   200044 755100                    STA     ERR_CODE,,AUTO

     2339     3269    1           GOTO SERIOUS_ALTRETURN;

   3269  1 000636   000637 710000 1                  TRA     SERIOUS_ALTRETURN

     2340     3270
     2341     3271
     2342     3272    1   SERIOUS_ALTRETURN:
     2343     3273    1           CALL VDG$OALLOC (%CLS_ERR, VD_ERR$)

   3273  1 000637   200045 630500       SERIOUS_ALT* EPPR0   VD_ERR$,,AUTO
         1 000640   200053 450500                    STP0    ERR_MAX_VALUE+3,,AUTO
         1 000641   000004 236000 2                  LDQ     4
         1 000642   200052 756100                    STQ     ERR_MAX_VALUE+2,,AUTO
         1 000643   200052 630500                    EPPR0   ERR_MAX_VALUE+2,,AUTO
         1 000644   000020 631400 xsym               EPPR1   B_VECTNIL+16
         1 000645   000000 701000 xent               TSX1    VDG$OALLOC
         1 000646   000677 702000 1                  TSX2    OALLOC_FAILED

     2344     3274    1             ALTRET (OALLOC_FAILED);
     2345     3275    1           VD$ERR.ERR.CODE# = ERR_CODE;

   3275  1 000647   200045 470500                    LDP0    VD_ERR$,,AUTO
         1 000650   200044 236100                    LDQ     ERR_CODE,,AUTO
         1 000651   000003 736000                    QLS     3
         1 000652   000002 676100                    ERQ     2,,PR0
         1 000653   377770 376007                    ANQ     131064,DL
         1 000654   000002 656100                    ERSQ    2,,PR0

     2346     3276    1           VD$ERR.FLAGLEV# = %FLV_SERIOUS;

   3276  1 000655   000003 220003                    LDX0    3,DU
         1 000656   200045 470500                    LDP0    VD_ERR$,,AUTO
         1 000657   000003 740100                    STX0    3,,PR0

PL6.E3A0      #017=VDG$EXEC_CONTROL File=VDG$UTILITY.:VDA5TSI                    FRI 07/04/97 11:24 Page:377
     2347     3277    2           IF ERR_CODE = %E$CTRLFN_NUM_PARAM_NOT_INRANGE THEN DO;

   3277  1 000660   200044 235100                    LDA     ERR_CODE,,AUTO
         1 000661   000070 115007                    CMPA    56,DL
         1 000662   000676 601000 1                  TNZ     s:3284

     2348     3278    2              SUBST_FIELD$ = PINCRW(VD_ERR$, LENGTHW(VD$ERR));

   3278  1 000663   200045 236100                    LDQ     VD_ERR$,,AUTO
         1 000664   000005 036003                    ADLQ    5,DU
         1 000665   200046 756100                    STQ     SUBST_FIELD$,,AUTO

     2349     3279    2              SUBST$NUMBER.OBJECT.CLASS# (0) = %CLS_NUMBER;

   3279  1 000666   000033 221003                    LDX1    27,DU
         1 000667   200046 470500                    LDP0    SUBST_FIELD$,,AUTO
         1 000670   000000 741100                    STX1    0,,PR0

     2350     3280    2              SUBST$NUMBER.V# (0) = ERR_MIN_VALUE;

   3280  1 000671   200047 235100                    LDA     ERR_MIN_VALUE,,AUTO
         1 000672   000003 755100                    STA     3,,PR0

     2351     3281    2              SUBST$NUMBER.OBJECT.CLASS# (1) = %CLS_NUMBER;

   3281  1 000673   000004 741100                    STX1    4,,PR0

     2352     3282    2              SUBST$NUMBER.V# (1) = ERR_MAX_VALUE;

   3282  1 000674   200050 235100                    LDA     ERR_MAX_VALUE,,AUTO
         1 000675   000007 755100                    STA     7,,PR0

     2353     3283    2              END;

     2354     3284    1           ALTRETURN;

   3284  1 000676   000000 702200 xent               TSX2  ! X66_AALT
PL6.E3A0      #017=VDG$EXEC_CONTROL File=VDG$UTILITY.:VDA5TSI                    FRI 07/04/97 11:24 Page:378

   3282  1 000677                       OALLOC_FAIL* null
     2355     3285
     2356     3286
     2357     3287
     2358     3288    1   OALLOC_FAILED: ;
     2359     3289    1           ALTRETURN;

   3289  1 000677   000000 702200 xent               TSX2  ! X66_AALT
     2360     3290
     2361     3291    1   END VDG$EXEC_CONTROL;
     2362     3292        %EOD;

PL6.E3A0      #017=VDG$EXEC_CONTROL File=VDG$UTILITY.:VDA5TSI                    FRI 07/04/97 11:24 Page:379
--  Include file information  --

   B$TABLES_C.:LIBRARY  cannot be made into a system file and is referenced.
   VD_PERR_C.:VDA5TOU  is referenced.
   VD_MACROS_M.:VDA5TOU  is referenced.
   B$JIT_C.:E04TOU  was found in the system file and is never referenced.
   CP_6_C.:E04TOU  was found in the system file and is never referenced.
      No diagnostics issued in procedure VDG$EXEC_CONTROL.
PL6.E3A0      #017=VDG$EXEC_CONTROL File=VDG$UTILITY.:VDA5TSI                    FRI 07/04/97 11:24 Page:380

 **** Variables and constants ****

  ****  Section 000 RoData VDG$EXEC_CONTROL

  ****  Scalars and arrays  ****
OctLoc.c.b A Datatyp(siz) R M Lvl/name                 OctLoc.c.b A Datatyp(siz) R M Lvl/name

     0-0-0/w PTR         r     1 PTR_$CONTROL$

  ****  Auto variables  ****

  ****  Scalars and arrays  ****
OctLoc.c.b A Datatyp(siz) R M Lvl/name                 OctLoc.c.b A Datatyp(siz) R M Lvl/name

     5-0-0/w PTR         r     1 @CONTROL_INDEX             7-0-0/w PTR         r     1 @CTRL_ARGS
     3-0-0/w PTR         r     1 @LN_TEXT                   6-0-0/w PTR         r     1 @RET_CODE
     4-0-0/w PTR         r     1 @TEXT
    42-0-0/w SBIN        r     1 ARG_VALUES(0:1)
    *0-0-0/w UBIN        r     1 CONTROL_INDEX
    *0-0-0/w SBIN        r     1 CTRL_ARGS(0:1)
    22-0-0/c STRC(576)   r     1 DEC                       44-0-0/w SBIN        r     1 ERR_CODE
    50-0-0/w SBIN        r     1 ERR_MAX_VALUE             47-0-0/w SBIN        r     1 ERR_MIN_VALUE
    10-0-0/w CHAR        r     1 FUNC_ID                   21-0-0/w SBIN        r     1 I
    *0-0-0/w UBIN        r     1 LN_TEXT                   20-0-0/w SBIN        r     1 NUM_PARAMS
    12-0-0/w SBIN        r     1 PARAM_INDEX(0:2)
    15-0-0/w SBIN        r     1 PARAM_LN(0:2)
    11-0-0/w SBIN        r     1 POST_INDEX                *0-0-0/c CHAR        r     1 RET_CODE
    46-0-0/w PTR         r     1 SUBST_FIELD$              *0-0-0/c ACHR        r     1 TEXT
    45-0-0/w PTR         r     1 VD_ERR$

  ****  SYMREF variables  ****

  ****  Scalars and arrays  ****
OctLoc.c.b A Datatyp(siz) R M Lvl/name                 OctLoc.c.b A Datatyp(siz) R M Lvl/name

     0-0-0/w PTR         r     1 B$XL_UPPER$                0-0-0/w ASTR(90)    r     1 VD_$CONTROL
     0-0-0/w STRC(22644) r     1 VD_6E
PL6.E3A0      #017=VDG$EXEC_CONTROL File=VDG$UTILITY.:VDA5TSI                    FRI 07/04/97 11:24 Page:381

  ****  BASED and DCB variables  ****

  ****  Scalars and arrays  ****
OctLoc.c.b A Datatyp(siz) R M Lvl/name                 OctLoc.c.b A Datatyp(siz) R M Lvl/name

     0-0-0/d STRC(4608)  r     1 B$XL_UPPER
     0-0-0/w STRC(144)   r     1 SUBST$NUMBER(0:2)
     0-0-0/w ASTR(90)    r     1 VD$CONTROL                 0-0-0/w STRC(180)   r     1 VD$ERR


   Procedure VDG$EXEC_CONTROL requires 448 words for executable code.
   Procedure VDG$EXEC_CONTROL requires 46 words of local(AUTO) storage.
PL6.E3A0      #017=VDG$EXEC_CONTROL File=VDG$UTILITY.:VDA5TSI                    FRI 07/04/97 11:24 Page:382
          *** CROSS REFERENCE LISTING ***
**     DENOTES     IDENTIFIER DEFINITION
<<                 IDENTIFIER'S VALUE SET
>>                 IDENTIFIER'S VALUE USED
<>                 IDENTIFIER SET AND/OR USED
--                 IDENTIFIER REFERENCED
PL6.E3A0      #017=VDG$EXEC_CONTROL File=VDG$UTILITY.:VDA5TSI                    FRI 07/04/97 11:24 Page:383
          MINI XREF LISTING

ARG_VALUES
      2803**DCL      2975<<ASSIGN   3011<<ASSIGN   3012<<ASSIGN   3014<<ASSIGN   3015<<ASSIGN   3037<>CALL
      3042<<ASSIGN   3042>>ASSIGN   3052<>CALL     3109>>IF       3109>>IF       3109>>IF       3109>>IF
      3115>>CALLBLT  3122>>ASSIGN   3151>>IF       3151>>IF       3159>>ASSIGN
B$XL_UPPER
      2588**DCL      2981>>CALLBLT
B$XL_UPPER$
      2587**DCL      2588--IMP-PTR  2981>>CALLBLT
CONTROL_INDEX
      2540**DCL        61--PROC     2979>>ASSIGN   2982>>ASSIGN   3094<<ASSIGN   3094>>ASSIGN   3095>>ASSIGN
      3096>>ASSIGN   3097>>ASSIGN   3115>>CALLBLT  3116<<ASSIGN   3116>>ASSIGN   3117>>ASSIGN   3118>>ASSIGN
      3133<<ASSIGN   3157<<ASSIGN   3167<<ASSIGN   3193<<ASSIGN   3201<<ASSIGN
CTRLFN_ID_NOT_LEGAL
      3268**LABEL    3206--GOTO
CTRLFN_NUM_PARAM_NOT_INRANGE
      3255**LABEL    3113--GOTO     3155--GOTO
CTRLFN_NUM_PARAM_NOT_LEGAL
      3243**LABEL    3034--GOTO
CTRL_ARGS
      2542**DCL        61--PROC     2970--IF       2971<<ASSIGN   3120--IF       3122<<ASSIGN   3158--IF
      3159<<ASSIGN
DEC
      2796**DCL      3037--CALL     3052--CALL
DEC.BYTES
      2800**DCL      3036<<ASSIGN   3051<<ASSIGN
DEC.LENGTH#
      2800**DCL      3035<<ASSIGN   3050<<ASSIGN
DEC_CONVERT_FAILED
      3243**LABEL    3037--CALLALT  3052--CALLALT
ERR_CODE
      2804**DCL      3242<<ASSIGN   3246<<ASSIGN   3251<<ASSIGN   3255<<ASSIGN   3259<<ASSIGN   3263<<ASSIGN
      3268<<ASSIGN   3275>>ASSIGN   3277>>IF
PL6.E3A0      #017=VDG$EXEC_CONTROL File=VDG$UTILITY.:VDA5TSI                    FRI 07/04/97 11:24 Page:384
ERR_MAX_VALUE
      2808**DCL      3112<<ASSIGN   3154<<ASSIGN   3282>>ASSIGN
ERR_MIN_VALUE
      2807**DCL      3111<<ASSIGN   3153<<ASSIGN   3280>>ASSIGN
FUNC_ID
      2656**DCL      2979<<ASSIGN   2981<<CALLBLT  2981>>CALLBLT  2984>>DOSELCT  3009>>DOSELCT  3102>>DOSELCT
      3123>>ASSIGN   3134>>ASSIGN   3160>>ASSIGN   3168>>ASSIGN   3194>>ASSIGN   3202>>ASSIGN
I
      2661**DCL      3004<<DOINDEX  3005>>ASSIGN   3005>>ASSIGN   3005>>ASSIGN
LN_TEXT
      2538**DCL        61--PROC     2539--IMP-SIZ  2979>>ASSIGN   2990>>IF       2993>>CALLBLT  2999>>CALLBLT
      3029>>IF       3036>>ASSIGN   3045>>IF       3051>>ASSIGN   3086>>IF       3096>>ASSIGN   3096>>ASSIGN
      3097<<ASSIGN   3097>>ASSIGN   3115>>CALLBLT  3117>>ASSIGN   3117>>ASSIGN   3118<<ASSIGN   3118>>ASSIGN
NO_CTRLFN_LEFT_PAREN
      3242**LABEL    2991--GOTO
NO_CTRLFN_RIGHT_PAREN
      3246**LABEL    2993--CALLALT
NUM_PARAMS
      2660**DCL      2974<<ASSIGN   2997>>DOWHILE  2998<<ASSIGN   2998>>ASSIGN   2999>>CALLBLT  2999>>CALLBLT
      3001>>ASSIGN   3001>>ASSIGN   3004>>DOINDEX  3039>>IF       3045>>IF       3107>>IF       3119>>IF
      3149>>IF
OALLOC_FAILED
      3282**LABEL    3273--CALLALT
PARAM_INDEX
      2658**DCL      2972<<ASSIGN   2992<<ASSIGN   2993>>CALLBLT  2997>>DOWHILE  2999<<CALLBLT  2999>>CALLBLT
      3001<<ASSIGN   3001>>ASSIGN   3005>>ASSIGN   3005>>ASSIGN   3029>>IF       3036>>ASSIGN   3045>>IF
      3051>>ASSIGN
PARAM_LN
      2659**DCL      2973<<ASSIGN   3005<<ASSIGN   3029>>IF       3029>>IF       3033>>IF       3035>>ASSIGN
      3036>>ASSIGN   3045>>IF       3045>>IF       3050>>ASSIGN   3051>>ASSIGN
POST_INDEX
      2657**DCL      2982<<ASSIGN   2990>>IF       2992>>ASSIGN   2993<<CALLBLT  2995<<ASSIGN   2995>>ASSIGN
      2997>>DOWHILE  3001>>ASSIGN   3086>>IF       3095<<ASSIGN   3096>>ASSIGN   3097>>ASSIGN   3117>>ASSIGN
      3118>>ASSIGN   3133>>ASSIGN   3157>>ASSIGN   3167>>ASSIGN   3193>>ASSIGN   3201>>ASSIGN
PTR_$CONTROL$
      2652**DCL      2836--IMP-PTR  3086>>IF       3086>>IF
PL6.E3A0      #017=VDG$EXEC_CONTROL File=VDG$UTILITY.:VDA5TSI                    FRI 07/04/97 11:24 Page:385
RET_CODE
      2541**DCL        61--PROC     2969<<ASSIGN   3123<<ASSIGN   3126<<ASSIGN   3134<<ASSIGN   3160<<ASSIGN
      3168<<ASSIGN   3194<<ASSIGN   3202<<ASSIGN
SERIOUS_ALTRETURN
      3273**LABEL    3243--GOTO     3247--GOTO     3252--GOTO     3256--GOTO     3260--GOTO     3264--GOTO
      3269--GOTO
SUBST$NUMBER.OBJECT.CLASS#
      2962**DCL      3279<<ASSIGN   3281<<ASSIGN
SUBST$NUMBER.V#
      2964**DCL      3280<<ASSIGN   3282<<ASSIGN
SUBST_FIELD$
      2806**DCL      2930--IMP-PTR  3278<<ASSIGN   3279>>ASSIGN   3280>>ASSIGN   3281>>ASSIGN   3282>>ASSIGN
TEXT
      2539**DCL        61--PROC     2979>>ASSIGN   2990>>IF       2993>>CALLBLT  2999>>CALLBLT  3029>>IF
      3036>>ASSIGN   3045>>IF       3051>>ASSIGN   3086>>IF       3096<<ASSIGN   3096>>ASSIGN   3115<<CALLBLT
      3117<<ASSIGN   3117>>ASSIGN
TOO_MANY_CTRLFN_VALUE_PARAMS
      3259**LABEL    3108--GOTO     3121--GOTO
TOO_MANY_CTRLFN_WILDC_PARAMS
      3263**LABEL    3150--GOTO
VD$CONTROL.BYTES
      2864**DCL      3086>>IF
VD$CONTROL.LENGTH#
      2862**DCL      2864--IMP-SIZ  3086>>IF
VD$ERR
      2877**DCL      3278--ASSIGN
VD$ERR.ERR.CODE#
      2916**DCL      3275<<ASSIGN
VD$ERR.FLAGLEV#
      2919**DCL      3276<<ASSIGN
VDG$OALLOC
      2546**DCL-ENT  3273--CALL
VD_$CONTROL
      2616**DCL      2652--DCLINIT
VD_$CONTROL.LENGTH#
      2642**DCL      2644--IMP-SIZ  2979>>ASSIGN   2982>>ASSIGN   3086>>IF       3094>>ASSIGN   3095>>ASSIGN
PL6.E3A0      #017=VDG$EXEC_CONTROL File=VDG$UTILITY.:VDA5TSI                    FRI 07/04/97 11:24 Page:386
VD_6E.STATS#
      2583**DCL      3092<<ASSIGN   3092>>ASSIGN   3105<<ASSIGN   3105>>ASSIGN   3131<<ASSIGN   3131>>ASSIGN
      3147<<ASSIGN   3147>>ASSIGN   3165<<ASSIGN   3165>>ASSIGN   3191<<ASSIGN   3191>>ASSIGN   3199<<ASSIGN
      3199>>ASSIGN
VD_ERR$
      2805**DCL      2877--IMP-PTR  3273<>CALL     3275>>ASSIGN   3276>>ASSIGN   3278>>ASSIGN
X$DEC_CONVERT
      2545**DCL-ENT  3037--CALL     3052--CALL

PL6.E3A0      #018=VDG$XLATE_LOCATIONS File=VDG$UTILITY.:VDA5TSI                 FRI 07/04/97 11:25 Page:387
     2363        1        /*T***********************************************************/
     2364        2        /*T*                                                         */
     2365        3        /*T* Copyright (c) Bull HN Information Systems Inc., 1997    */
     2366        4        /*T*                                                         */
     2367        5        /*T***********************************************************/
     2368        6
     2369        7        /*D* NAME: VDG$XLATE_LOCATIONS
     2370        8            PARAMETERS:
     2371        9                XLATE_LOCATIONS - Root VD$XLATE_LOCATIONS specifying the
     2372       10                    translations to build or make.  XLATE_LOCATIONS may be the
     2373       11                    "root" or first entry in a .FLINK$d chain of VD$XLATE_LOCATIONS.
     2374       12                    XLATE_LOCATIONS (first entry in chain) must contain:
     2375       13                        .FLINK$, .N_ENTRIES, .MX_ENTRIES - As documented.
     2376       14                        .FILE_KEY - Fid of file whose locations are locations are
     2377       15                            to be translated.
     2378       16                        .PREFIX - Keys at levels 1 thru .LEVEL specifying which
     2379       17                            locations are to be translated.
     2380       18                        .LEVEL - Level of file structure at which translation
     2381       19                            is to occur.
     2382       20                    In successive VD$XLATE_LOCATIONS in the chain, only
     2383       21                    .FLINK$, .N_ENTRIES, .MX_ENTRIES, and .XLATES must appear.
     2384       22                    If ACTION = %XLATE_LOCATION, then XLATE_LOCATIONS.XLATES
     2385       23                        must specify the translations to perform.
     2386       24                    If ACTION = %XLATE_BUILD, then XLATE_LOCATIONS.N_ENTRIES
     2387       25                        must be 0.  (.MX_ENTRIES should be some reasonable number.)
     2388       26                        Also, there should be no other VD$XLATE_LOCATIONSs in the
     2389       27                        chain.
     2390       28                ACTION - An %XLATE_ def, specifying what action to take with
     2391       29                    each location found which matches the XLATE_LOCATIONS.FILE_KEY
     2392       30                    and .PREFIX.
     2393       31            INPUT:
     2394       32                VD_6E.LOCATIONS$ - Ptr to VD$STREAM open to the Locations
     2395       33                    internal file.
     2396       34                VD_6E.WINDOWS$ - Ptr to VD$STREAM open to the Windows internal
     2397       35                    file.
     2398       36                VD_6E.SOURCE.OPERAND - VD$OPERAND for the source operand.
     2399       37            OUTPUT:
PL6.E3A0      #018=VDG$XLATE_LOCATIONS File=VDG$UTILITY.:VDA5TSI                 FRI 07/04/97 11:25 Page:388
     2400       38                If ACTION = %XLATE_BUILD:
     2401       39                    XLATE_LOCATIONS will have .XLATES added for each VD$LOCATION
     2402       40                        in the Locations and Windows files and the source operand
     2403       41                        which matches the specified file key and prefix.
     2404       42                        The added .XLATES will be sorted in .OLD_KEY_LO order.
     2405       43                        They will have:
     2406       44                            .OLD_KEY_LO - Key from the candidate VD$LOCATION
     2407       45                                at level XLATE_LOCATIONS.LEVEL.
     2408       46                            .OLD_KEY_HI - Same key as in .OLD_KEY_LO.
     2409       47                            .OLD_POS_LO - 0.
     2410       48                            .OLD_POS_HI - %MXNB_DATA.
     2411       49                            .NEW_KEY, .NEW_POS, .NEW_POS_INCR - %CLEAR.
     2412       50                If ACTION = %XLATE_LOCATION:
     2413       51                    Each VD$LOCATIONS in the Locations and Windows files and
     2414       52                        the source operand will be translated according to
     2415       53                        XLATE_LOCATIONS.XLATES.
     2416       54            DESCRIPTION:
     2417       55                First, position the Locations-file to EOF.  We do this so that
     2418       56                    if we do "xlate" a Location-name's value, we can be sure
     2419       57                    there aren't any other copies of that name's value lying
     2420       58                    around anywhere (like in PORT.LEVEL.DATA$).  Positioning
     2421       59                    to EOF will force the VD$PORT to be cleared.
     2422       60                    (Test case:
     2423       61                        LO L IS 3 PO 10
     2424       62                        DE 3
     2425       63                        L           "Should put cursor at BO 4
     2426       64                    .)
     2427       65
     2428       66                Examine the source operand, and walk the Locations and Windows files,
     2429       67                looking for VD$LOCATIONs which fit the criteria specified
     2430       68                by XLATE_LOCATIONS.FILE_KEY and .PREFIX.
     2431       69                In each VD$WINDOW_SPEC.OPERAND and in VD_6E.SOURCE.OPERAND,
     2432       70                the following VD$LOCATIONs are examined:
     2433       71                    .EDIT_BLOCK$->VD$BLOCK_DESC.RANGE.START and .ENDD
     2434       72                    .EVAL$->VD$EVAL.ENCLOSING.START and .ENDD
     2435       73                    .EVAL$->VD$EVAL.RANGE.START and .ENDD
     2436       74                    .EVAL$->VD$EVAL.BLINK$->VD$EVAL.ENCLOSING and .RANGE, ad infinitum
PL6.E3A0      #018=VDG$XLATE_LOCATIONS File=VDG$UTILITY.:VDA5TSI                 FRI 07/04/97 11:25 Page:389
     2437       75                In VD$WINDOW_BLOCK, the following VD$LOCATIONs are examined:
     2438       76                    .EDIT_BLOCK$->VD$BLOCK_DESC.RANGE.START and .ENDD
     2439       77                    .EVAL$->VD$EVAL.ENCLOSING.START and .ENDD
     2440       78                    .EVAL$->VD$EVAL.RANGE.START and .ENDD
     2441       79                    .EVAL$->VD$EVAL.BLINK$->VD$EVAL.ENCLOSING and .RANGE, ad infinitum
     2442       80                The Data components of entries in the Locations file are
     2443       81                either VD$BLOCK_BUFFERs containing VD$BLOCK_DESCs or VD$POINTERs
     2444       82                pointing to VD$BLOCK_DESCs.  In these VD$BLOCK_DESCs, the
     2445       83                following VD$LOCATIONs are examined:
     2446       84                    .RANGE.START
     2447       85                    .RANGE.ENDD
     2448       86
     2449       87                When examining a VD$LOCATION:
     2450       88                    If the file key for the location matches XLATE_LOCATIONS.FILE_KEY,
     2451       89                    and all keys at levels 1 thru XLATE_LOCATIONS.LEVEL match
     2452       90                    XLATE_LOCATIONS.PREFIX, then this is a "candidate":
     2453       91                        Search for a matching entry in XLATE_LOCATIONS.XLATES
     2454       92                            for this candidate:  candidate key between .OLD_KEY_LO
     2455       93                            and .OLD_KEY_HI, candidate position >= .OLD_POS_LO.
     2456       94                        If ACTION = %XLATE_BUILD:
     2457       95                            If we don't find a matching entry, build a new entry for
     2458       96                            the candidate location, inserting into the xlate tables in
     2459       97                            ascending order sorted by .OLD_KEY_LO.
     2460       98                        If ACTION = %XLATE_LOCATION:
     2461       99                            If we do find a matching entry, translate the
     2462      100                            candidate location according to the entry.
     2463      101        */
     2464      102
     2465      103        VDG$XLATE_LOCATIONS: PROC (XLATE_LOCATIONS, ACTION) ALTRET;
     2466      104
     2467      105        %INCLUDE VD_MACROS_M;
     2468     2320
     2469     2321
     2470     2322        %VD$XLATE_LOCATIONS (NAME=XLATE_LOCATIONS, STCLASS=PARAM);
     2471     2458    1   DCL ACTION SBIN;
     2472     2459
     2473     2460
PL6.E3A0      #018=VDG$XLATE_LOCATIONS File=VDG$UTILITY.:VDA5TSI                 FRI 07/04/97 11:25 Page:390
     2474     2461    1   DCL VDA$LREAD           ENTRY (4) ALTRET;
     2475     2462    1   DCL VDG$OALLOC          ENTRY (3) ALTRET;
     2476     2463    1   DCL VDG$OCOPY           ENTRY (2) ALTRET;
     2477     2464    1   DCL VDG$OFREE           ENTRY (1) ALTRET;
     2478     2465    1   DCL VDG$ESCREECH        ENTRY (3);
     2479     2466
     2480     2467
     2481     2468        %VD_6E (STCLASS=SYMREF);
     2482     2504
     2483     2505
     2484     2506        %VD_LOCATION (NAME=ABSOLUTE_EOF, STCLASS=CONSTANT, IEOF=%TRUE);
     2485     2546
     2486     2547
     2487     2548    1   DCL PREFIX_KEY$ (0:%MX_ACCESS_LEVELS) PTR;
     2488     2549    1   DCL LEVEL SBIN;
     2489     2550    1   DCL L0_NODE$ PTR;
     2490     2551    1   DCL L1_NODE$ PTR;
     2491     2552    1   DCL L2_NODE$ PTR;
     2492     2553    1   DCL NAME_DATA$ PTR;
     2493     2554    1   DCL NAME_DESC$ PTR;
     2494     2555    1   DCL WINDOW_SPEC$ PTR;
     2495     2556    1   DCL WINDOW_BLOCK$ PTR;
     2496     2557    1   DCL THIS_EVAL$ PTR;
     2497     2558    1   DCL BLOCK_IS_CANDIDATE BIT(1) ALIGNED;
     2498     2559    1   DCL SOURCE_STRING_OPERAND BIT(1) ALIGNED;
     2499     2560
     2500     2561
     2501     2562        %VD$FILE_NODE (NAME=L0$NODE, STCLASS="BASED(L0_NODE$)");
     2502     2655        %VD$FILE_NODE (NAME=L1$NODE, STCLASS="BASED(L1_NODE$)");
     2503     2748        %VD$FILE_NODE (NAME=L2$NODE, STCLASS="BASED(L2_NODE$)");
     2504     2841        %VD$OBJECT_HEADER (NAME=NAME$DATA, STCLASS="BASED(NAME_DATA$)");
     2505     2863        %VD$POINTER (NAME=NAME$DATA_POINTER, STCLASS="BASED(NAME_DATA$)");
     2506     2908        %VD$BUFFER (NAME=NAME$DATA_BUFFER, STCLASS="BASED(NAME_DATA$)");
     2507     2966        %VD$BLOCK_DESC (NAME=NAME$DESC, STCLASS="BASED(NAME_DESC$)");
     2508     3113        %VD$WINDOW_SPEC (NAME=WINDOW$SPEC, STCLASS="BASED(WINDOW_SPEC$)");
     2509     3179        %VD$WINDOW_BLOCK (NAME=WINDOW$BLOCK, STCLASS="BASED(WINDOW_BLOCK$)");
     2510     3216        %VD$EVAL (NAME=THIS$EVAL, STCLASS="BASED(THIS_EVAL$)");
PL6.E3A0      #018=VDG$XLATE_LOCATIONS File=VDG$UTILITY.:VDA5TSI                 FRI 07/04/97 11:25 Page:391
     2511     3461        %VD$STREAM;
     2512     3567        %VD$PORT;
     2513     3665        %VD$BLOCK_DESC;
     2514     3812        %VD$TEXTC;
     2515     3835        %VD$TEXTC_REMOTE;
     2516     3896
     2517     3897
     2518     3898
     2519     3899    1           IF ACTION = %XLATE_LOCATION
     2520     3900    1             AND XLATE_LOCATIONS.N_ENTRIES# <= 0 THEN
     2521     3901    1              RETURN;
     2522     3902
     2523     3903    1           CALL VDA$LREAD (VD_6E.LOCATIONS$->VD$STREAM, ABSOLUTE_EOF,
     2524     3904    1             0, %FALSE)
     2525     3905    1             ALTRET (LREAD_FAILED);
     2526     3906
     2527     3907                %GETKEY (KEY=XLATE_LOCATIONS.FILE_KEY,
     2528     3908                PTR="PREFIX_KEY$ (%LVL_FILE)");
     2529     3918    2           DO LEVEL = 1 TO (XLATE_LOCATIONS.LEVEL# - 1);
     2530     3919                   %GETKEY (KEY=XLATE_LOCATIONS.PREFIX.KEY, INDX=LEVEL-1,
     2531     3920                   PTR="PREFIX_KEY$ (LEVEL)");
     2532     3930    2              END;
     2533     3931
     2534     3932    1           CALL EXAMINE_OPERAND (VD_6E.SOURCE.OPERAND)
     2535     3933    1             ALTRET (EXAMINE_OPERAND_FAILED);
     2536     3934
     2537     3935    1           L0_NODE$ = VD_6E.LOCATIONS$->VD$STREAM.PORT$ ->
     2538     3936    1             VD$PORT.LEVEL.INTERNAL$ (%LVL_FILE);
     2539     3937    1           L1_NODE$ = ADDR(NIL);
     2540     3938    1           IF L0_NODE$ ~= ADDR(NIL) THEN
     2541     3939    1              L1_NODE$ = L0$NODE.HEAD$;
     2542     3940
     2543     3941    1   EACH_LOCATIONS_NODE:
     2544     3942    2           DO WHILE L1_NODE$ ~= ADDR(NIL);
     2545     3943    2              NAME_DATA$ = L1$NODE.DESC.DATA$;
     2546     3944    3              IF NAME_DATA$ ~= ADDR(NIL) THEN DO;
     2547     3945    4                 DO CASE (NAME$DATA.CLASS#);
PL6.E3A0      #018=VDG$XLATE_LOCATIONS File=VDG$UTILITY.:VDA5TSI                 FRI 07/04/97 11:25 Page:392
     2548     3946    4                  CASE (%CLS_PTR_BLOCK_DESC);
     2549     3947    4                    NAME_DESC$ = NAME$DATA_POINTER.V$;
     2550     3948    4                  CASE (%CLS_BLOCK_BUFFER);
     2551     3949    4                    NAME_DESC$ = PALIGNW(ADDR(NAME$DATA_BUFFER.BYTES));
     2552     3950    4                  CASE (ELSE);
     2553     3951    4                    CALL VDG$ESCREECH (NAME$DATA.CLASS#);
     2554     3952    4                  END;
     2555     3953    4                 IF NAME_DESC$ ~= ADDR(NIL) THEN DO;
     2556     3954    4                    CALL EXAMINE_BLOCK_DESC (NAME$DESC)
     2557     3955    4                      ALTRET (EXAMINE_BLOCK_DESC_FAILED);
     2558     3956    4                    END;
     2559     3957    3                 END;
     2560     3958    2              L1_NODE$ = L1$NODE.FLINK$;
     2561     3959    2              END EACH_LOCATIONS_NODE;
     2562     3960
     2563     3961
     2564     3962    1           L0_NODE$ = VD_6E.WINDOWS$->VD$STREAM.PORT$ ->
     2565     3963    1             VD$PORT.LEVEL.INTERNAL$ (%LVL_FILE);
     2566     3964    1           L1_NODE$ = ADDR(NIL);
     2567     3965    1           IF L0_NODE$ ~= ADDR(NIL) THEN
     2568     3966    1              L1_NODE$ = L0$NODE.HEAD$;
     2569     3967
     2570     3968    1   EACH_WINDOWS_L1_NODE:
     2571     3969    2           DO WHILE L1_NODE$ ~= ADDR(NIL);
     2572     3970    2              WINDOW_SPEC$ = L1$NODE.DESC.SPEC.V$;
     2573     3971    3              IF WINDOW_SPEC$ ~= ADDR(NIL) THEN DO;
     2574     3972    3                 CALL EXAMINE_OPERAND (WINDOW$SPEC.OPERAND)
     2575     3973    3                   ALTRET (EXAMINE_OPERAND_FAILED);
     2576     3974    3                 END;
     2577     3975
     2578     3976    2              L2_NODE$ = L1$NODE.HEAD$;
     2579     3977    2   EACH_WINDOWS_L2_NODE:
     2580     3978    3              DO WHILE L2_NODE$ ~= ADDR(NIL);
     2581     3979    3                 WINDOW_BLOCK$ = L2$NODE.DESC.SPEC.V$;
     2582     3980    3                 IF WINDOW_BLOCK$ ~= ADDR(NIL) THEN
     2583     3981    4                    IF WINDOW$BLOCK.EDIT_BLOCK$ ~= ADDR(NIL) THEN DO;
     2584     3982    4                       CALL EXAMINE_BLOCK_DESC (WINDOW$BLOCK.EDIT_BLOCK$ ->
PL6.E3A0      #018=VDG$XLATE_LOCATIONS File=VDG$UTILITY.:VDA5TSI                 FRI 07/04/97 11:25 Page:393
     2585     3983    4                         VD$BLOCK_DESC)
     2586     3984    4                         ALTRET (EXAMINE_BLOCK_DESC_FAILED);
     2587     3985
     2588     3986    4                       THIS_EVAL$ = WINDOW$BLOCK.EVAL$;
     2589     3987    4                       IF BLOCK_IS_CANDIDATE THEN
     2590     3988    5                       DO WHILE THIS_EVAL$ ~= ADDR(NIL);
     2591     3989    5                          CALL EXAMINE_EVAL (THIS$EVAL)
     2592     3990    5                            ALTRET (EXAMINE_EVAL_FAILED);
     2593     3991    5                          THIS_EVAL$ = THIS$EVAL.BLINK$;
     2594     3992    5                          END;
     2595     3993    4                       END;
     2596     3994
     2597     3995    3                 L2_NODE$ = L2$NODE.FLINK$;
     2598     3996    3                 END EACH_WINDOWS_L2_NODE;
     2599     3997
     2600     3998    2              L1_NODE$ = L1$NODE.FLINK$;
     2601     3999    2              END EACH_WINDOWS_L1_NODE;
     2602     4000
     2603     4001    1           RETURN;
     2604     4002
     2605     4003
     2606     4004
     2607     4005    1   LREAD_FAILED: ;
     2608     4006    1   EXAMINE_OPERAND_FAILED: ;
     2609     4007    1   EXAMINE_BLOCK_DESC_FAILED: ;
     2610     4008    1   EXAMINE_EVAL_FAILED: ;
     2611     4009    1           ALTRETURN;
     2612     4010
     2613     4011        %BOX (TITLE=EXAMINE_OPERAND, PAGE=YES);
              4019    1
              4023    1   /***************************************************************************
              4025    1    *                                                                         *
              4029    1            *                              EXAMINE_OPERAND                            *
              4031    1            *                                                                         *
              4033    1           ***************************************************************************/

     2614     4037
PL6.E3A0      #018=VDG$XLATE_LOCATIONS File=VDG$UTILITY.:VDA5TSI                 FRI 07/04/97 11:25 Page:394
     2615     4038        /*I* NAME: EXAMINE_OPERAND
     2616     4039            PARAMETERS:
     2617     4040                OPERAND - VD$OPERAND to examine, looking for candidate locations.
     2618     4041            INPUT:
     2619     4042                XLATE_LOCATIONS - Same as main routine.
     2620     4043                ACTION - Same as main routine.
     2621     4044                PREFIX_KEY$ - Array of ptrs to VD$TEXTCs for prefix keys at
     2622     4045                    levels 0 thru (XLATE_LOCATIONS.LEVEL-1).
     2623     4046            OUTPUT:
     2624     4047                Same as main routine, but just for OPERAND's VD$LOCATIONS.
     2625     4048            DESCRIPTION:
     2626     4049                Examine each of the VD$LOCATIONs in OPERAND.
     2627     4050        */
     2628     4051
     2629     4052    1   EXAMINE_OPERAND: PROC (OPERAND) ALTRET;
     2630     4053
     2631     4054        %VD$OPERAND (NAME=OPERAND, STCLASS=PARAM);
     2632     4068        %VD$WILD_STRINGS (STCLASS="BASED(VD_6E.WILD_STRINGS$)");
     2633     4183        %VD$WILD_STRINGS (NAME=WILD, STCLASS="BASED(THIS_WILD$)");
     2634     4298
     2635     4299
     2636     4300
     2637     4301    2   DCL THIS_WILD$ PTR;
     2638     4302    2   DCL THIS_EVAL$ PTR;
     2639     4303
     2640     4304
     2641     4305        %VD$EVAL (NAME=THIS$EVAL, STCLASS="BASED(THIS_EVAL$)");
     2642     4550
     2643     4551
     2644     4552    2           SOURCE_STRING_OPERAND = '0'B;
     2645     4553    3           IF OPERAND.EDIT_BLOCK$ ~= ADDR(NIL) THEN DO;
     2646     4554    3              CALL EXAMINE_BLOCK_DESC (OPERAND.EDIT_BLOCK$ -> VD$BLOCK_DESC)
     2647     4555    3                ALTRET (EXAMINE_BLOCK_DESC_FAILED);
     2648     4556
     2649     4557    3              IF NOT BLOCK_IS_CANDIDATE THEN EXIT;
     2650     4558    3              IF ADDR(OPERAND) = ADDR(VD_6E.SOURCE.OPERAND)
     2651     4559    3                AND OPERAND.EDIT_BLOCK$ -> VD$BLOCK_DESC.OPTIONS.STRUCTURE$ =
PL6.E3A0      #018=VDG$XLATE_LOCATIONS File=VDG$UTILITY.:VDA5TSI                 FRI 07/04/97 11:25 Page:395
     2652     4560    3                VD_6E.STRUCTURE_SCRATCH$ THEN SOURCE_STRING_OPERAND = '1'B;
     2653     4561
     2654     4562                   /*
     2655     4563                   *   This must be inserting or deleting the wildcard matches
     2656     4564                   *   for a literal string.  Adjust EVAL backwards.
     2657     4565                   */
     2658     4566
     2659     4567    3              THIS_EVAL$ = OPERAND.EVAL$;
     2660     4568    4              DO WHILE THIS_EVAL$ ~= ADDR(NIL);
     2661     4569    4                 CALL EXAMINE_EVAL (THIS$EVAL)
     2662     4570    4                   ALTRET (EXAMINE_EVAL_FAILED);
     2663     4571    4                 THIS_EVAL$ = THIS$EVAL.BLINK$;
     2664     4572    4                 END;
     2665     4573    3              IF NOT SOURCE_STRING_OPERAND THEN EXIT;
     2666     4574    3              SOURCE_STRING_OPERAND = '0'B;
     2667     4575                   /*
     2668     4576                   *   Adjust the rest of the wildcard matches for a literal string.
     2669     4577                   */
     2670     4578
     2671     4579    3              THIS_WILD$ = PINCRW (VD_6E.WILD_STRINGS$,
     2672     4580    3                VD$WILD_STRINGS.N_WILDCARDS# * SIZEW(WILD.W));
     2673     4581
     2674     4582    4              DO UNTIL THIS_WILD$ = VD_6E.WILD_STRINGS$;
     2675     4583    4                 THIS_WILD$ = PINCRW (THIS_WILD$, -SIZEW(WILD.W));
     2676     4584                      /*
     2677     4585                      * On an insert, VDI$BINSERT sets EOF in the insertion
     2678     4586                      * range.  These ranges are sorted by position, so stop
     2679     4587                      * adjusting when we get to the insertion one, so that
     2680     4588                      * lower adjacent ones don't get moved.
     2681     4589                      */
     2682     4590    4                 IF WILD.W.RANGE.START.EOF THEN EXIT;
     2683     4591
     2684     4592    4                 CALL CANDIDATE_LOCATION (WILD.W.RANGE.START)
     2685     4593    4                   ALTRET (CANDIDATE_LOCATION_FAILED);
     2686     4594    4                 CALL CANDIDATE_LOCATION_END (WILD.W.RANGE.ENDD)
     2687     4595    4                   ALTRET (CANDIDATE_LOCATION_FAILED);
     2688     4596    4                 END;
PL6.E3A0      #018=VDG$XLATE_LOCATIONS File=VDG$UTILITY.:VDA5TSI                 FRI 07/04/97 11:25 Page:396
     2689     4597
     2690     4598    3              END;
     2691     4599
     2692     4600    2           RETURN;
     2693     4601
     2694     4602
     2695     4603    2   CANDIDATE_LOCATION_FAILED: ;
     2696     4604    2   EXAMINE_BLOCK_DESC_FAILED: ;
     2697     4605    2   EXAMINE_EVAL_FAILED: ;
     2698     4606    2           ALTRETURN;
     2699     4607
     2700     4608    2   END EXAMINE_OPERAND;
     2701     4609
     2702     4610        %BOX (TITLE=EXAMINE_BLOCK_DESC, PAGE=YES);
              4618    2
              4622    2   /***************************************************************************
              4624    2    *                                                                         *
              4628    2            *                             EXAMINE_BLOCK_DESC                          *
              4630    2            *                                                                         *
              4632    2           ***************************************************************************/

     2703     4636
     2704     4637        /*I* NAME: EXAMINE_BLOCK_DESC
     2705     4638            PARAMETERS:
     2706     4639                BLOCK_DESC - VD$BLOCK_DESC to examine, looking for candidate
     2707     4640                    locations.
     2708     4641            INPUT:
     2709     4642                XLATE_LOCATIONS - Same as main routine.
     2710     4643                ACTION - Same as main routine.
     2711     4644                PREFIX_KEY$ - Array of ptrs to VD$TEXTCs for prefix keys at
     2712     4645                    levels 0 thru (XLATE_LOCATIONS.LEVEL-1).
     2713     4646            OUTPUT:
     2714     4647                BLOCK_IS_CANDIDATE will be set %TRUE if BLOCK_DESC's .FILE_KEY
     2715     4648                    matches XLATE_LOCATIONS.FILE_KEY, and if BLOCK_DESC.RANGE's
     2716     4649                    locations have the same prefix as XLATE_LOCATIONS.PREFIX.
     2717     4650                    Otherwise, BLOCK_IS_CANDIDATE will be set %FALSE.
     2718     4651                Same as main routine, but just for BLOCK_DESC's VD$LOCATIONS.
PL6.E3A0      #018=VDG$XLATE_LOCATIONS File=VDG$UTILITY.:VDA5TSI                 FRI 07/04/97 11:25 Page:397
     2719     4652            DESCRIPTION:
     2720     4653                First, see if this block has the same prefix (levels 0 thru
     2721     4654                    XLATE_LOCATIONS.LEVEL - 1) as the one specified in
     2722     4655                    XLATE_LOCATIONS.FILE_KEY and .PREFIX.  If not, set
     2723     4656                    BLOCK_IS_CANDIDATE to false and return.
     2724     4657                    If BLOCK_DESC.RANGE.START is EOF, then this block is not
     2725     4658                    a candidate (note .RANGE.ENDD could only legally be EOF
     2726     4659                    also).  If BLOCK_DESC.RANGE.START has no keys, then this
     2727     4660                    block could only be a candidate if the translation level
     2728     4661                    is level 1, and so there are no prefix keys to be matched
     2729     4662                    below the file level (level 0).
     2730     4663                If this block is a candidate for translation, examine each of
     2731     4664                    the candidate VD$LOCATIONs in BLOCK_DESC and process them
     2732     4665                    according to ACTION.
     2733     4666        */
     2734     4667
     2735     4668    1   EXAMINE_BLOCK_DESC: PROC (BLOCK_DESC) ALTRET;
     2736     4669
     2737     4670        %VD$BLOCK_DESC (NAME=BLOCK_DESC, STCLASS=PARAM);
     2738     4817
     2739     4818
     2740     4819    2   DCL LEVEL SBIN;
     2741     4820    2   DCL BLOCK_KEY$ PTR;
     2742     4821
     2743     4822
     2744     4823        %VD$TEXTC (NAME=BLOCK$KEY, STCLASS="BASED(BLOCK_KEY$)");
     2745     4846
     2746     4847
     2747     4848
     2748     4849    2           BLOCK_IS_CANDIDATE = %FALSE;
     2749     4850
     2750     4851                %GETKEY (KEY=BLOCK_DESC.FILE_KEY, PTR=BLOCK_KEY$);
     2751     4861    2           IF BLOCK$KEY.BYTES ~= PREFIX_KEY$ (%LVL_FILE) -> VD$TEXTC.BYTES
     2752     4862    2             OR BLOCK_DESC.RANGE.START.EOF
     2753     4863    2             OR (BLOCK_DESC.RANGE.START.KEY = %CLEAR
     2754     4864    2             AND XLATE_LOCATIONS.LEVEL# > %LVL_LOWER) THEN
     2755     4865    2              RETURN;
PL6.E3A0      #018=VDG$XLATE_LOCATIONS File=VDG$UTILITY.:VDA5TSI                 FRI 07/04/97 11:25 Page:398
     2756     4866
     2757     4867    3           DO LEVEL = 1 TO (XLATE_LOCATIONS.LEVEL# - 1);
     2758     4868    3              IF BLOCK_DESC.RANGE.START.KEY (LEVEL - 1) = %CLEAR THEN
     2759     4869    3                 RETURN;
     2760     4870                   %GETKEY (KEY=BLOCK_DESC.RANGE.START.KEY, INDX=LEVEL-1,
     2761     4871                   PTR=BLOCK_KEY$);
     2762     4881    3              IF BLOCK$KEY.BYTES ~= PREFIX_KEY$ (LEVEL) -> VD$TEXTC.BYTES THEN
     2763     4882    3                 RETURN;
     2764     4883    3              END;
     2765     4884
     2766     4885    2           BLOCK_IS_CANDIDATE = %TRUE;
     2767     4886
     2768     4887    2           CALL CANDIDATE_LOCATION (BLOCK_DESC.RANGE.START)
     2769     4888    2             ALTRET (CANDIDATE_LOCATION_FAILED);
     2770     4889    2           CALL CANDIDATE_LOCATION_END (BLOCK_DESC.RANGE.ENDD)
     2771     4890    2             ALTRET (CANDIDATE_LOCATION_FAILED);
     2772     4891
     2773     4892    2           RETURN;
     2774     4893
     2775     4894
     2776     4895    2   CANDIDATE_LOCATION_FAILED: ;
     2777     4896    2           ALTRETURN;
     2778     4897
     2779     4898    2   END EXAMINE_BLOCK_DESC;
     2780     4899
     2781     4900        %BOX (TITLE=EXAMINE_EVAL, PAGE=YES);
              4908    2
              4912    2   /***************************************************************************
              4914    2    *                                                                         *
              4918    2            *                                EXAMINE_EVAL                             *
              4920    2            *                                                                         *
              4922    2           ***************************************************************************/

     2782     4926
     2783     4927        /*I* NAME: EXAMINE_EVAL
     2784     4928            PARAMETERS:
     2785     4929                EVAL - VD$EVAL to examine.  The EDIT_BLOCK$ for the VD$OPERAND
PL6.E3A0      #018=VDG$XLATE_LOCATIONS File=VDG$UTILITY.:VDA5TSI                 FRI 07/04/97 11:25 Page:399
     2786     4930                    to which EVAL belongs must already have been verified to
     2787     4931                    match XLATE_LOCATIONS.FILE_KEY and .PREFIX at levels
     2788     4932                    0 thru (XLATE_LOCATIONS.LEVEL - 1).
     2789     4933            INPUT:
     2790     4934                XLATE_LOCATIONS - Same as for main routine.
     2791     4935                ACTION - Same as for main routine.
     2792     4936            OUTPUT:
     2793     4937                CANDIDATE, XLATE_LOCATIONS - Same as for main routine, based
     2794     4938                    on ACTION.
     2795     4939            DESCRIPTION:
     2796     4940                Process each VD$LOCATION in EVAL.
     2797     4941        */
     2798     4942
     2799     4943    1   EXAMINE_EVAL: PROC (EVAL) ALTRET;
     2800     4944
     2801     4945        %VD$EVAL (NAME=EVAL, STCLASS=PARAM);
     2802     5190
     2803     5191
     2804     5192
     2805     5193    2           CALL CANDIDATE_LOCATION (EVAL.ENCLOSING.START)
     2806     5194    2             ALTRET (CANDIDATE_LOCATION_FAILED);
     2807     5195    2           CALL CANDIDATE_LOCATION_END (EVAL.ENCLOSING.ENDD)
     2808     5196    2             ALTRET (CANDIDATE_LOCATION_FAILED);
     2809     5197    2           CALL CANDIDATE_LOCATION (EVAL.RANGE.START)
     2810     5198    2             ALTRET (CANDIDATE_LOCATION_FAILED);
     2811     5199    2           CALL CANDIDATE_LOCATION_END (EVAL.RANGE.ENDD)
     2812     5200    2             ALTRET (CANDIDATE_LOCATION_FAILED);
     2813     5201
     2814     5202    2           RETURN;
     2815     5203
     2816     5204
     2817     5205    2   CANDIDATE_LOCATION_FAILED: ;
     2818     5206    2           ALTRETURN;
     2819     5207
     2820     5208    2   END EXAMINE_EVAL;
     2821     5209
     2822     5210        %BOX (TITLE=CANDIDATE_LOCATION, PAGE=YES);
PL6.E3A0      #018=VDG$XLATE_LOCATIONS File=VDG$UTILITY.:VDA5TSI                 FRI 07/04/97 11:25 Page:400
              5218    2
              5222    2   /***************************************************************************
              5224    2    *                                                                         *
              5228    2            *                             CANDIDATE_LOCATION                          *
              5230    2            *                                                                         *
              5232    2           ***************************************************************************/

     2823     5236
     2824     5237        /*I* NAME: CANDIDATE_LOCATION
     2825     5238            PARAMETERS:
     2826     5239                CANDIDATE - VD$LOCATION which has already been verified to match
     2827     5240                    XLATE_LOCATIONS.FILE_KEY and .PREFIX at levels 0 thru
     2828     5241                    (XLATE_LOCATIONS.LEVEL - 1).
     2829     5242            INPUT:
     2830     5243                XLATE_LOCATIONS - Same as for main routine.
     2831     5244                ACTION - Same as for main routine.
     2832     5245            OUTPUT:
     2833     5246                CANDIDATE, XLATE_LOCATIONS - Same as for main routine, based on ACTION.
     2834     5247            DESCRIPTION:
     2835     5248                Search XLATE_LOCATIONS.XLATES to see if CANDIDATE matches any entry.
     2836     5249                We assume it matches only one entry.  Then look at ACTION:
     2837     5250                    %XLATE_BUILD - If CANDIDATE matches an entry, just return.
     2838     5251                        If it doesn't, add an entry to .XLATES for CANDIDATE, inserting
     2839     5252                        it into the tables in ascending order sorted by .OLD_KEY_LO.
     2840     5253                    %XLATE_LOCATION - If CANDIDATE doesn't match an entry,
     2841     5254                        just return.  If it does, translate CANDIDATE according
     2842     5255                        to the entry in .XLATES.
     2843     5256        */
     2844     5257
     2845     5258    1   CANDIDATE_LOCATION: PROC (CANDIDATE) ALTRET;
     2846     5259
     2847     5260        %VD$LOCATION (NAME=CANDIDATE, STCLASS=PARAM);
     2848     5288
     2849     5289
     2850     5290    2   DCL CURR_TABLE$ PTR;
     2851     5291    2   DCL PREV_TABLE$ PTR;
     2852     5292    2   DCL CAND_KEY$ PTR;
PL6.E3A0      #018=VDG$XLATE_LOCATIONS File=VDG$UTILITY.:VDA5TSI                 FRI 07/04/97 11:25 Page:401
     2853     5293    2   DCL INDX SBIN;
     2854     5294    2   DCL INSERT_BEFORE SBIN;
     2855     5295    2   DCL XLATE_ENTRY$ PTR;
     2856     5296    2   DCL XLATE_KEY_LO$ PTR;
     2857     5297    2   DCL XLATE_KEY_HI$ PTR;
     2858     5298    2   DCL SPLIT_TABLE$ PTR;
     2859     5299    2   DCL VAR_LEN SBIN;
     2860     5300    2   DCL RANGE_END BIT(1);
     2861     5301
     2862     5302
     2863     5303        %VD$XLATE_LOCATIONS (NAME=CURR$TABLE, STCLASS="BASED(CURR_TABLE$)");
     2864     5439        %VD$XLATE_LOCATIONS (NAME=PREV$TABLE, STCLASS="BASED(PREV_TABLE$)");
     2865     5575        %VD$XLATE_ENTRY (NAME=XLATE$ENTRY, STCLASS="BASED(XLATE_ENTRY$)");
     2866     5632        %VD$TEXTC (NAME=CAND$KEY, STCLASS="BASED(CAND_KEY$)");
     2867     5655        %VD$TEXTC (NAME=XLATE$KEY_LO, STCLASS="BASED(XLATE_KEY_LO$)");
     2868     5678        %VD$TEXTC (NAME=XLATE$KEY_HI, STCLASS="BASED(XLATE_KEY_HI$)");
     2869     5701        %VD$XLATE_LOCATIONS (NAME=SPLIT$TABLE, STCLASS="BASED(SPLIT_TABLE$)");
     2870     5837    2   DCL VAR$LEN CHAR(VAR_LEN) BASED;
     2871     5838
     2872     5839
     2873     5840    2           RANGE_END = SOURCE_STRING_OPERAND;
     2874     5841    2           GOTO BEGIN;
     2875     5842
     2876     5843    2   CANDIDATE_LOCATION_END: ENTRY (CANDIDATE) ALTRET;
     2877     5844
     2878     5845    2           RANGE_END = ~ RANGE_END;
     2879     5846    2   BEGIN:  ;
     2880     5847
     2881     5848    2           IF CANDIDATE.EOF THEN
     2882     5849    2              RETURN;      /* Nothing to XLATE */
     2883     5850    2           PREV_TABLE$ = ADDR(NIL);
     2884     5851    2           CURR_TABLE$ = ADDR(XLATE_LOCATIONS);
     2885     5852    2           INSERT_BEFORE = -1;
     2886     5853                %GETKEY (KEY=CANDIDATE.KEY, INDX=LEVEL-1, PTR=CAND_KEY$);
     2887     5863
     2888     5864    2   EACH_TABLE_IN_CHAIN:
     2889     5865    3           DO WHILE CURR_TABLE$ ~= ADDR(NIL);
PL6.E3A0      #018=VDG$XLATE_LOCATIONS File=VDG$UTILITY.:VDA5TSI                 FRI 07/04/97 11:25 Page:402
     2890     5866
     2891     5867    3   EACH_XLATE_ENTRY:
     2892     5868    4              DO INDX = 0 TO (CURR$TABLE.N_ENTRIES# - 1);
     2893     5869    4                 XLATE_ENTRY$ = ADDR(CURR$TABLE.XLATES (INDX));
     2894     5870                      %GETKEY (KEY=XLATE$ENTRY.OLD_KEY_LO, PTR=XLATE_KEY_LO$);
     2895     5880                      %GETKEY (KEY=XLATE$ENTRY.OLD_KEY_HI, PTR=XLATE_KEY_HI$);
     2896     5890    4                 IF CAND$KEY.BYTES >= XLATE$KEY_LO.BYTES
     2897     5891    4                   AND CAND$KEY.BYTES <= XLATE$KEY_HI.BYTES THEN
     2898     5892    4                    EXIT EACH_TABLE_IN_CHAIN;
     2899     5893    4                 IF ACTION = %XLATE_BUILD
     2900     5894    5                   AND CAND$KEY.BYTES < XLATE$KEY_LO.BYTES THEN DO;
     2901     5895                         /* Insert new entry before this one */
     2902     5896    5                    INSERT_BEFORE = INDX;
     2903     5897    5                    EXIT EACH_TABLE_IN_CHAIN;
     2904     5898    5                    END;
     2905     5899    4                 END EACH_XLATE_ENTRY;
     2906     5900
     2907     5901    3              PREV_TABLE$ = CURR_TABLE$;
     2908     5902    3              CURR_TABLE$ = CURR$TABLE.FLINK$;
     2909     5903    3              END EACH_TABLE_IN_CHAIN;
     2910     5904
     2911     5905
     2912     5906    3           DO CASE (ACTION);
     2913     5907    3            CASE (%XLATE_BUILD);
     2914     5908    3              IF CURR_TABLE$ ~= ADDR(NIL) AND INSERT_BEFORE < 0 THEN
     2915     5909    3                 RETURN;   /* Found matching entry:  do nothing */
     2916     5910                   /*
     2917     5911                   *  Build new entry for CANDIDATE.
     2918     5912                   *  If CURR_TABLE$ = ADDR(NIL), append the new entry to the end of
     2919     5913                   *    PREV_TABLE$.
     2920     5914                   *  Else insert the new entry in front of
     2921     5915                   *    CURR$TABLE.XLATES (INSERT_BEFORE).
     2922     5916                   */
     2923     5917    4              IF CURR_TABLE$ = ADDR(NIL) THEN DO;
     2924     5918    4                 CURR_TABLE$ = PREV_TABLE$;
     2925     5919    4                 IF CURR_TABLE$ = ADDR(NIL) THEN
     2926     5920    4                    CURR_TABLE$ = ADDR(XLATE_LOCATIONS);
PL6.E3A0      #018=VDG$XLATE_LOCATIONS File=VDG$UTILITY.:VDA5TSI                 FRI 07/04/97 11:25 Page:403
     2927     5921    4                 IF CURR$TABLE.N_ENTRIES# >=
     2928     5922    5                   (CURR$TABLE.MX_ENTRIES# / 4) * 3 THEN DO;
     2929     5923                         /* CURR table is > 75% occupied:  allocate a new table */
     2930     5924    5                    PREV_TABLE$ = CURR_TABLE$;
     2931     5925    5                    CALL VDG$OALLOC (%CLS_XLATE_LOCATIONS, CURR_TABLE$,
     2932     5926    5                      SIZEW(CURR$TABLE) +
     2933     5927    5                      (SIZEW(CURR$TABLE.XLATES) * %N_LOCATION_XLATES))
     2934     5928    5                      ALTRET (OALLOC_FAILED);
     2935     5929    5                    CURR$TABLE.FLINK$ = PREV$TABLE.FLINK$;
     2936     5930    5                    PREV$TABLE.FLINK$ = CURR_TABLE$;
     2937     5931    5                    END;
     2938     5932    4                 XLATE_ENTRY$ = ADDR(CURR$TABLE.XLATES (CURR$TABLE.N_ENTRIES#));
     2939     5933    4                 CURR$TABLE.N_ENTRIES# = CURR$TABLE.N_ENTRIES# + 1;
     2940     5934    4                 END;
     2941     5935    4              ELSE DO;
     2942     5936    5                 IF CURR$TABLE.N_ENTRIES# >= CURR$TABLE.MX_ENTRIES# THEN DO;
     2943     5937                         /* Split this table into two tables */
     2944     5938    5                    CALL VDG$OALLOC (%CLS_XLATE_LOCATIONS, SPLIT_TABLE$,
     2945     5939    5                      SIZEW(CURR$TABLE) +
     2946     5940    5                      (SIZEW(CURR$TABLE.XLATES) * %N_LOCATION_XLATES))
     2947     5941    5                      ALTRET (OALLOC_FAILED);
     2948     5942    5                    SPLIT$TABLE.FLINK$ = CURR$TABLE.FLINK$;
     2949     5943    5                    CURR$TABLE.FLINK$ = SPLIT_TABLE$;
     2950     5944    5                    SPLIT$TABLE.N_ENTRIES# = CURR$TABLE.N_ENTRIES# / 2;
     2951     5945    5                    VAR_LEN = SIZEC(CURR$TABLE.XLATES) * SPLIT$TABLE.N_ENTRIES#;
     2952     5946    5                    ADDR(SPLIT$TABLE.XLATES)->VAR$LEN =
     2953     5947    5                      ADDR(CURR$TABLE.XLATES (INSERT_BEFORE))->VAR$LEN;
     2954     5948    5                    CURR$TABLE.N_ENTRIES# = CURR$TABLE.N_ENTRIES# -
     2955     5949    5                      SPLIT$TABLE.N_ENTRIES#;
     2956     5950    6                    IF INSERT_BEFORE > CURR$TABLE.N_ENTRIES# THEN DO;
     2957     5951    6                       INSERT_BEFORE = INSERT_BEFORE - CURR$TABLE.N_ENTRIES#;
     2958     5952    6                       CURR_TABLE$ = CURR$TABLE.FLINK$;
     2959     5953    6                       END;
     2960     5954    5                    END;
     2961     5955                      /* Slide the rest of this table up 1 entry */
     2962     5956    5                 DO INDX = CURR$TABLE.N_ENTRIES# - 1 DOWNTO INSERT_BEFORE;
     2963     5957    5                    CURR$TABLE.XLATES (INDX + 1) = CURR$TABLE.XLATES (INDX);
PL6.E3A0      #018=VDG$XLATE_LOCATIONS File=VDG$UTILITY.:VDA5TSI                 FRI 07/04/97 11:25 Page:404
     2964     5958    5                    END;
     2965     5959    4                 XLATE_ENTRY$ = ADDR(CURR$TABLE.XLATES (INSERT_BEFORE));
     2966     5960    4                 CURR$TABLE.N_ENTRIES# = CURR$TABLE.N_ENTRIES# + 1;
     2967     5961    4                 END;
     2968     5962
     2969     5963                   %COPYKEY (FKEY=CANDIDATE.KEY, FINDX=LEVEL-1,
     2970     5964                   TKEY=XLATE$ENTRY.OLD_KEY_LO);
     2971     5980                   %COPYKEY (FKEY=XLATE$ENTRY.OLD_KEY_LO,
     2972     5981                   TKEY=XLATE$ENTRY.OLD_KEY_HI);
     2973     5997                   %COPYKEY (FKEY=XLATE$ENTRY.OLD_KEY_LO,
     2974     5998                   TKEY=XLATE$ENTRY.NEW_KEY);
     2975     6014    3              XLATE$ENTRY.OLD_POS_HI# = -1; /* Indicate rekey operation */
     2976     6015
     2977     6016
     2978     6017
     2979     6018    3            CASE (%XLATE_LOCATION);
     2980     6019    3              IF CURR_TABLE$ = ADDR(NIL) THEN
     2981     6020    3                 RETURN;   /* No matching entry:  do nothing */
     2982     6021                   /*
     2983     6022                   * Locations before the affected area are unchanged.
     2984     6023                   */
     2985     6024    3              IF CAND$KEY.BYTES = XLATE$KEY_LO.BYTES
     2986     6025    3                AND (CANDIDATE.POSITION# < XLATE$ENTRY.OLD_POS_LO#
     2987     6026                   /*
     2988     6027                   * As are range end points at the point of an insertion.
     2989     6028                   */
     2990     6029    3                OR CANDIDATE.POSITION# = XLATE$ENTRY.OLD_POS_LO#
     2991     6030    3                AND CANDIDATE.POSITION# = XLATE$ENTRY.OLD_POS_HI#
     2992     6031    3                AND CAND$KEY.BYTES = XLATE$KEY_HI.BYTES AND RANGE_END) THEN
     2993     6032    3                 RETURN;  /* Don't do any translation */
     2994     6033                   /*
     2995     6034                   * If we moved the start of a range, make sure we move the
     2996     6035                   * the end using the same rules.
     2997     6036                   */
     2998     6037    3              RANGE_END = '1'B;
     2999     6038
     3000     6039                   /*
PL6.E3A0      #018=VDG$XLATE_LOCATIONS File=VDG$UTILITY.:VDA5TSI                 FRI 07/04/97 11:25 Page:405
     3001     6040                   * Interior locations should all collapse to the new location.
     3002     6041                   */
     3003     6042    3              IF CAND$KEY.BYTES < XLATE$KEY_HI.BYTES THEN
     3004     6043    3                 CANDIDATE.POSITION# = 0;
     3005     6044                   %CLEARKEY (KEY=CANDIDATE.KEY, INDX=LEVEL-1);
     3006     6054                   %COPYKEY (FKEY=XLATE$ENTRY.NEW_KEY, TKEY=CANDIDATE.KEY,
     3007     6055                   TINDX=LEVEL-1);
     3008     6071
     3009     6072    3              IF CANDIDATE.POSITION# <= XLATE$ENTRY.OLD_POS_HI# THEN
     3010     6073    3                 CANDIDATE.POSITION# = XLATE$ENTRY.NEW_POS#;
     3011     6074    3              ELSE
     3012     6075    3                 CANDIDATE.POSITION# = CANDIDATE.POSITION# +
     3013     6076    3                   XLATE$ENTRY.NEW_POS_INCR#;
     3014     6077
     3015     6078
     3016     6079
     3017     6080    3            CASE (ELSE);
     3018     6081    3              CALL VDG$ESCREECH (ACTION);
     3019     6082    3            END;
     3020     6083
     3021     6084
     3022     6085    2           RETURN;
     3023     6086
     3024     6087
     3025     6088
     3026     6089    2   OALLOC_FAILED: ;
     3027     6090    2           ALTRETURN;
     3028     6091
     3029     6092    2   END CANDIDATE_LOCATION;
     3030     6093
     3031     6094    1   END VDG$XLATE_LOCATIONS;

PL6.E3A0      #018=VDG$XLATE_LOCATIONS File=VDG$UTILITY.:VDA5TSI                 FRI 07/04/97 11:25 Page:406
--  Include file information  --

   VD_MACROS_M.:VDA5TOU  is referenced.
   B$JIT_C.:E04TOU  was found in the system file and is never referenced.
   CP_6_C.:E04TOU  was found in the system file and is never referenced.
      No diagnostics issued in procedure VDG$XLATE_LOCATIONS.

   Procedure VDG$XLATE_LOCATIONS requires 842 words for executable code.
   Procedure VDG$XLATE_LOCATIONS requires 48 words of local(AUTO) storage.

    No errors detected in file VDG$UTILITY.:VDA5TSI    .

PL6.E3A0      #018=VDG$XLATE_LOCATIONS File=VDG$UTILITY.:VDA5TSI                 FRI 07/04/97 11:25 Page:407

 Object Unit name= VDG$XLATE_LOCATIONS                        File name= VDG$UTILITY.:VDA5TOU
 UTS= JUL 04 '97 11:25:11.92 FRI                              Compiler= PL-6/E31         Sev=      00
 SharedLib= :SHARED_SYSTEM                                    Alt SharedLib=


    ****  Control sections  ****

 Sect   Type Bound  Init  Size OctSiz  Section name(segment info)
    0  RoData even  UTS     11     13  VDG$XLATE_LOCATIONS
    1   Proc  even  none   842   1512  VDG$XLATE_LOCATIONS
    2  RoData even  none    12     14  VDG$XLATE_LOCATIONS

    ****  Entry defs  ****

                              Check   Calling
                             calling  sequence
  Sect OctLoc Primary Altret sequence   type   Parms  Name
     1      0   yes    yes     yes      Std        2  VDG$XLATE_LOCATIONS

  ****  Entry refs  ****

         Check        Calling
        calling       sequence
Altret sequence SRef   type   Args  Name
 yes     yes           Std       4 VDA$LREAD
         yes           Std       3 VDG$ESCREECH
 yes     yes           Std       3 VDG$OALLOC
 yes     yes           Std       2 VDG$OCOPY
 yes     yes           Std       1 VDG$OFREE
                       nStd      0 X66_AUTO_2
                       nStd      0 X66_ARET
                       Std       0 B_CONSPOOL_D
                       nStd      0 X66_AALT
PL6.E3A0      #018=VDG$XLATE_LOCATIONS File=VDG$UTILITY.:VDA5TSI                 FRI 07/04/97 11:25 Page:408

  ****  Data refs  ****

  Flags:  r = read only, s = secondary
Flgs Name                             Flgs Name                             Flgs Name
     VD_6E                                 B_VECTNIL

  ****  Segment refs  ****

  Flags:  r = read only, s = secondary
Flgs Name                             Flgs Name                             Flgs Name
     ISSID
PL6.E3A0      #018=VDG$XLATE_LOCATIONS File=VDG$UTILITY.:VDA5TSI                 FRI 07/04/97 11:25 Page:409


     2363        1        /*T***********************************************************/
     2364        2        /*T*                                                         */
     2365        3        /*T* Copyright (c) Bull HN Information Systems Inc., 1997    */
     2366        4        /*T*                                                         */
     2367        5        /*T***********************************************************/
     2368        6
     2369        7        /*D* NAME: VDG$XLATE_LOCATIONS
     2370        8            PARAMETERS:
     2371        9                XLATE_LOCATIONS - Root VD$XLATE_LOCATIONS specifying the
     2372       10                    translations to build or make.  XLATE_LOCATIONS may be the
     2373       11                    "root" or first entry in a .FLINK$d chain of VD$XLATE_LOCATIONS.
     2374       12                    XLATE_LOCATIONS (first entry in chain) must contain:
     2375       13                        .FLINK$, .N_ENTRIES, .MX_ENTRIES - As documented.
     2376       14                        .FILE_KEY - Fid of file whose locations are locations are
     2377       15                            to be translated.
     2378       16                        .PREFIX - Keys at levels 1 thru .LEVEL specifying which
     2379       17                            locations are to be translated.
     2380       18                        .LEVEL - Level of file structure at which translation
     2381       19                            is to occur.
     2382       20                    In successive VD$XLATE_LOCATIONS in the chain, only
     2383       21                    .FLINK$, .N_ENTRIES, .MX_ENTRIES, and .XLATES must appear.
     2384       22                    If ACTION = %XLATE_LOCATION, then XLATE_LOCATIONS.XLATES
     2385       23                        must specify the translations to perform.
     2386       24                    If ACTION = %XLATE_BUILD, then XLATE_LOCATIONS.N_ENTRIES
     2387       25                        must be 0.  (.MX_ENTRIES should be some reasonable number.)
     2388       26                        Also, there should be no other VD$XLATE_LOCATIONSs in the
     2389       27                        chain.
     2390       28                ACTION - An %XLATE_ def, specifying what action to take with
     2391       29                    each location found which matches the XLATE_LOCATIONS.FILE_KEY
     2392       30                    and .PREFIX.
     2393       31            INPUT:
     2394       32                VD_6E.LOCATIONS$ - Ptr to VD$STREAM open to the Locations
     2395       33                    internal file.
     2396       34                VD_6E.WINDOWS$ - Ptr to VD$STREAM open to the Windows internal
     2397       35                    file.
     2398       36                VD_6E.SOURCE.OPERAND - VD$OPERAND for the source operand.
PL6.E3A0      #018=VDG$XLATE_LOCATIONS File=VDG$UTILITY.:VDA5TSI                 FRI 07/04/97 11:25 Page:410
     2399       37            OUTPUT:
     2400       38                If ACTION = %XLATE_BUILD:
     2401       39                    XLATE_LOCATIONS will have .XLATES added for each VD$LOCATION
     2402       40                        in the Locations and Windows files and the source operand
     2403       41                        which matches the specified file key and prefix.
     2404       42                        The added .XLATES will be sorted in .OLD_KEY_LO order.
     2405       43                        They will have:
     2406       44                            .OLD_KEY_LO - Key from the candidate VD$LOCATION
     2407       45                                at level XLATE_LOCATIONS.LEVEL.
     2408       46                            .OLD_KEY_HI - Same key as in .OLD_KEY_LO.
     2409       47                            .OLD_POS_LO - 0.
     2410       48                            .OLD_POS_HI - %MXNB_DATA.
     2411       49                            .NEW_KEY, .NEW_POS, .NEW_POS_INCR - %CLEAR.
     2412       50                If ACTION = %XLATE_LOCATION:
     2413       51                    Each VD$LOCATIONS in the Locations and Windows files and
     2414       52                        the source operand will be translated according to
     2415       53                        XLATE_LOCATIONS.XLATES.
     2416       54            DESCRIPTION:
     2417       55                First, position the Locations-file to EOF.  We do this so that
     2418       56                    if we do "xlate" a Location-name's value, we can be sure
     2419       57                    there aren't any other copies of that name's value lying
     2420       58                    around anywhere (like in PORT.LEVEL.DATA$).  Positioning
     2421       59                    to EOF will force the VD$PORT to be cleared.
     2422       60                    (Test case:
     2423       61                        LO L IS 3 PO 10
     2424       62                        DE 3
     2425       63                        L           "Should put cursor at BO 4
     2426       64                    .)
     2427       65
     2428       66                Examine the source operand, and walk the Locations and Windows files,
     2429       67                looking for VD$LOCATIONs which fit the criteria specified
     2430       68                by XLATE_LOCATIONS.FILE_KEY and .PREFIX.
     2431       69                In each VD$WINDOW_SPEC.OPERAND and in VD_6E.SOURCE.OPERAND,
     2432       70                the following VD$LOCATIONs are examined:
     2433       71                    .EDIT_BLOCK$->VD$BLOCK_DESC.RANGE.START and .ENDD
     2434       72                    .EVAL$->VD$EVAL.ENCLOSING.START and .ENDD
     2435       73                    .EVAL$->VD$EVAL.RANGE.START and .ENDD
PL6.E3A0      #018=VDG$XLATE_LOCATIONS File=VDG$UTILITY.:VDA5TSI                 FRI 07/04/97 11:25 Page:411
     2436       74                    .EVAL$->VD$EVAL.BLINK$->VD$EVAL.ENCLOSING and .RANGE, ad infinitum
     2437       75                In VD$WINDOW_BLOCK, the following VD$LOCATIONs are examined:
     2438       76                    .EDIT_BLOCK$->VD$BLOCK_DESC.RANGE.START and .ENDD
     2439       77                    .EVAL$->VD$EVAL.ENCLOSING.START and .ENDD
     2440       78                    .EVAL$->VD$EVAL.RANGE.START and .ENDD
     2441       79                    .EVAL$->VD$EVAL.BLINK$->VD$EVAL.ENCLOSING and .RANGE, ad infinitum
     2442       80                The Data components of entries in the Locations file are
     2443       81                either VD$BLOCK_BUFFERs containing VD$BLOCK_DESCs or VD$POINTERs
     2444       82                pointing to VD$BLOCK_DESCs.  In these VD$BLOCK_DESCs, the
     2445       83                following VD$LOCATIONs are examined:
     2446       84                    .RANGE.START
     2447       85                    .RANGE.ENDD
     2448       86
     2449       87                When examining a VD$LOCATION:
     2450       88                    If the file key for the location matches XLATE_LOCATIONS.FILE_KEY,
     2451       89                    and all keys at levels 1 thru XLATE_LOCATIONS.LEVEL match
     2452       90                    XLATE_LOCATIONS.PREFIX, then this is a "candidate":
     2453       91                        Search for a matching entry in XLATE_LOCATIONS.XLATES
     2454       92                            for this candidate:  candidate key between .OLD_KEY_LO
     2455       93                            and .OLD_KEY_HI, candidate position >= .OLD_POS_LO.
     2456       94                        If ACTION = %XLATE_BUILD:
     2457       95                            If we don't find a matching entry, build a new entry for
     2458       96                            the candidate location, inserting into the xlate tables in
     2459       97                            ascending order sorted by .OLD_KEY_LO.
     2460       98                        If ACTION = %XLATE_LOCATION:
     2461       99                            If we do find a matching entry, translate the
     2462      100                            candidate location according to the entry.
     2463      101        */
     2464      102
     2465      103        VDG$XLATE_LOCATIONS: PROC (XLATE_LOCATIONS, ACTION) ALTRET;

    103  1 000000   000000 700200 xent  VDG$XLATE_L* TSX0  ! X66_AUTO_2
         1 000001   000060 000002                    ZERO    48,2

     2466      104
     2467      105        %INCLUDE VD_MACROS_M;
     2468     2320
PL6.E3A0      #018=VDG$XLATE_LOCATIONS File=VDG$UTILITY.:VDA5TSI                 FRI 07/04/97 11:25 Page:412
     2469     2321
     2470     2322        %VD$XLATE_LOCATIONS (NAME=XLATE_LOCATIONS, STCLASS=PARAM);
     2471     2458    1   DCL ACTION SBIN;
     2472     2459
     2473     2460
     2474     2461    1   DCL VDA$LREAD           ENTRY (4) ALTRET;
     2475     2462    1   DCL VDG$OALLOC          ENTRY (3) ALTRET;
     2476     2463    1   DCL VDG$OCOPY           ENTRY (2) ALTRET;
     2477     2464    1   DCL VDG$OFREE           ENTRY (1) ALTRET;
     2478     2465    1   DCL VDG$ESCREECH        ENTRY (3);
     2479     2466
     2480     2467
     2481     2468        %VD_6E (STCLASS=SYMREF);
     2482     2504
     2483     2505
     2484     2506        %VD_LOCATION (NAME=ABSOLUTE_EOF, STCLASS=CONSTANT, IEOF=%TRUE);
     2485     2546
     2486     2547
     2487     2548    1   DCL PREFIX_KEY$ (0:%MX_ACCESS_LEVELS) PTR;
     2488     2549    1   DCL LEVEL SBIN;
     2489     2550    1   DCL L0_NODE$ PTR;
     2490     2551    1   DCL L1_NODE$ PTR;
     2491     2552    1   DCL L2_NODE$ PTR;
     2492     2553    1   DCL NAME_DATA$ PTR;
     2493     2554    1   DCL NAME_DESC$ PTR;
     2494     2555    1   DCL WINDOW_SPEC$ PTR;
     2495     2556    1   DCL WINDOW_BLOCK$ PTR;
     2496     2557    1   DCL THIS_EVAL$ PTR;
     2497     2558    1   DCL BLOCK_IS_CANDIDATE BIT(1) ALIGNED;
     2498     2559    1   DCL SOURCE_STRING_OPERAND BIT(1) ALIGNED;
     2499     2560
     2500     2561
     2501     2562        %VD$FILE_NODE (NAME=L0$NODE, STCLASS="BASED(L0_NODE$)");
     2502     2655        %VD$FILE_NODE (NAME=L1$NODE, STCLASS="BASED(L1_NODE$)");
     2503     2748        %VD$FILE_NODE (NAME=L2$NODE, STCLASS="BASED(L2_NODE$)");
     2504     2841        %VD$OBJECT_HEADER (NAME=NAME$DATA, STCLASS="BASED(NAME_DATA$)");
     2505     2863        %VD$POINTER (NAME=NAME$DATA_POINTER, STCLASS="BASED(NAME_DATA$)");
PL6.E3A0      #018=VDG$XLATE_LOCATIONS File=VDG$UTILITY.:VDA5TSI                 FRI 07/04/97 11:25 Page:413
     2506     2908        %VD$BUFFER (NAME=NAME$DATA_BUFFER, STCLASS="BASED(NAME_DATA$)");
     2507     2966        %VD$BLOCK_DESC (NAME=NAME$DESC, STCLASS="BASED(NAME_DESC$)");
     2508     3113        %VD$WINDOW_SPEC (NAME=WINDOW$SPEC, STCLASS="BASED(WINDOW_SPEC$)");
     2509     3179        %VD$WINDOW_BLOCK (NAME=WINDOW$BLOCK, STCLASS="BASED(WINDOW_BLOCK$)");
     2510     3216        %VD$EVAL (NAME=THIS$EVAL, STCLASS="BASED(THIS_EVAL$)");
     2511     3461        %VD$STREAM;
     2512     3567        %VD$PORT;
     2513     3665        %VD$BLOCK_DESC;
     2514     3812        %VD$TEXTC;
     2515     3835        %VD$TEXTC_REMOTE;
     2516     3896
     2517     3897
     2518     3898
     2519     3899    1           IF ACTION = %XLATE_LOCATION

   3899  1 000002   200004 470500                    LDP0    @ACTION,,AUTO
         1 000003   000000 235100                    LDA     0,,PR0
         1 000004   000002 115007                    CMPA    2,DL
         1 000005   000012 601000 1                  TNZ     s:3903
         1 000006   200003 471500                    LDP1    @XLATE_LOCATIONS,,AUTO
         1 000007   100001 220100                    LDX0    1,,PR1
         1 000010   000012 605400 1                  TPNZ    s:3903

     2520     3900    1             AND XLATE_LOCATIONS.N_ENTRIES# <= 0 THEN
     2521     3901    1              RETURN;

   3901  1 000011   000000 702200 xent               TSX2  ! X66_ARET

     2522     3902
     2523     3903    1           CALL VDA$LREAD (VD_6E.LOCATIONS$->VD$STREAM, ABSOLUTE_EOF,

   3903  1 000012   000000 237000 2                  LDAQ    0
         1 000013   200056 757100                    STAQ    RANGE_END+4,,AUTO
         1 000014   000002 236000 2                  LDQ     2
         1 000015   000002 235000 xsym               LDA     VD_6E+2
         1 000016   200054 757100                    STAQ    RANGE_END+2,,AUTO
         1 000017   200054 630500                    EPPR0   RANGE_END+2,,AUTO
PL6.E3A0      #018=VDG$XLATE_LOCATIONS File=VDG$UTILITY.:VDA5TSI                 FRI 07/04/97 11:25 Page:414
         1 000020   000022 631400 xsym               EPPR1   B_VECTNIL+18
         1 000021   000000 701000 xent               TSX1    VDA$LREAD
         1 000022   000315 702000 1                  TSX2    LREAD_FAILED

     2524     3904    1             0, %FALSE)
     2525     3905    1             ALTRET (LREAD_FAILED);
     2526     3906
     2527     3907                %GETKEY (KEY=XLATE_LOCATIONS.FILE_KEY,
     2528     3908                PTR="PREFIX_KEY$ (%LVL_FILE)");

   3915  1 000023   200003 470500                    LDP0    @XLATE_LOCATIONS,,AUTO
         1 000024   000003 720100                    LXL0    3,,PR0
         1 000025   000002 100003                    CMPX0   2,DU
         1 000026   000033 601000 1                  TNZ     s:3915+8

   3915  1 000027   000004 471500                    LDP1    4,,PR0
         1 000030   100002 633500                    EPPR3   2,,PR1
         1 000031   200005 453500                    STP3    PREFIX_KEY$,,AUTO
         1 000032   000036 710000 1                  TRA     s:3918

   3915  1 000033   200003 236100                    LDQ     @XLATE_LOCATIONS,,AUTO
         1 000034   000004 036003                    ADLQ    4,DU
         1 000035   200005 756100                    STQ     PREFIX_KEY$,,AUTO

     2529     3918    2           DO LEVEL = 1 TO (XLATE_LOCATIONS.LEVEL# - 1);

   3918  1 000036   000001 235007                    LDA     1,DL
         1 000037   200013 755100                    STA     LEVEL,,AUTO
         1 000040   000063 710000 1                  TRA     s:3930+1

     2530     3919                   %GETKEY (KEY=XLATE_LOCATIONS.PREFIX.KEY, INDX=LEVEL-1,
     2531     3920                   PTR="PREFIX_KEY$ (LEVEL)");

   3927  1 000041   200013 235100                    LDA     LEVEL,,AUTO
         1 000042   000001 735000                    ALS     1
         1 000043   200003 470500                    LDP0    @XLATE_LOCATIONS,,AUTO
         1 000044   000004 720105                    LXL0    4,AL,PR0
PL6.E3A0      #018=VDG$XLATE_LOCATIONS File=VDG$UTILITY.:VDA5TSI                 FRI 07/04/97 11:25 Page:415
         1 000045   000002 100003                    CMPX0   2,DU
         1 000046   000054 601000 1                  TNZ     s:3927+11

   3927  1 000047   000005 471505                    LDP1    5,AL,PR0
         1 000050   100002 633500                    EPPR3   2,,PR1
         1 000051   200013 721100                    LXL1    LEVEL,,AUTO
         1 000052   200005 453511                    STP3    PREFIX_KEY$,X1,AUTO
         1 000053   000062 710000 1                  TRA     s:3930

   3927  1 000054   200013 236100                    LDQ     LEVEL,,AUTO
         1 000055   000023 736000                    QLS     19
         1 000056   000005 036003                    ADLQ    5,DU
         1 000057   200003 036100                    ADLQ    @XLATE_LOCATIONS,,AUTO
         1 000060   200013 721100                    LXL1    LEVEL,,AUTO
         1 000061   200005 756111                    STQ     PREFIX_KEY$,X1,AUTO

     2532     3930    2              END;

   3930  1 000062   200013 054100                    AOS     LEVEL,,AUTO
         1 000063   000005 236100                    LDQ     5,,PR0
         1 000064   000022 732000                    QRS     18
         1 000065   200013 116100                    CMPQ    LEVEL,,AUTO
         1 000066   000041 605400 1                  TPNZ    s:3927

     2533     3931
     2534     3932    1           CALL EXAMINE_OPERAND (VD_6E.SOURCE.OPERAND)

   3932  1 000067   000003 236000 2                  LDQ     3
         1 000070   200027 756100                    STQ     SOURCE_STRING_OPERAND+2,,AUTO
         1 000071   000316 701000 1                  TSX1    EXAMINE_OPERAND
         1 000072   000315 702000 1                  TSX2    LREAD_FAILED

     2535     3933    1             ALTRET (EXAMINE_OPERAND_FAILED);
     2536     3934
     2537     3935    1           L0_NODE$ = VD_6E.LOCATIONS$->VD$STREAM.PORT$ ->

   3935  1 000073   000002 470400 xsym               LDP0    VD_6E+2
PL6.E3A0      #018=VDG$XLATE_LOCATIONS File=VDG$UTILITY.:VDA5TSI                 FRI 07/04/97 11:25 Page:416
         1 000074   000001 471500                    LDP1    1,,PR0
         1 000075   100031 236100                    LDQ     25,,PR1
         1 000076   200014 756100                    STQ     L0_NODE$,,AUTO

     2538     3936    1             VD$PORT.LEVEL.INTERNAL$ (%LVL_FILE);
     2539     3937    1           L1_NODE$ = ADDR(NIL);

   3937  1 000077   000001 236000 xsym               LDQ     B_VECTNIL+1
         1 000100   200015 756100                    STQ     L1_NODE$,,AUTO

     2540     3938    1           IF L0_NODE$ ~= ADDR(NIL) THEN

   3938  1 000101   200014 236100                    LDQ     L0_NODE$,,AUTO
         1 000102   000001 116000 xsym               CMPQ    B_VECTNIL+1
         1 000103   000107 600000 1                  TZE     EACH_LOCATIONS_NODE

     2541     3939    1              L1_NODE$ = L0$NODE.HEAD$;

   3939  1 000104   200014 473500                    LDP3    L0_NODE$,,AUTO
         1 000105   300012 236100                    LDQ     10,,PR3
         1 000106   200015 756100                    STQ     L1_NODE$,,AUTO

     2542     3940
     2543     3941    1   EACH_LOCATIONS_NODE:
     2544     3942    2           DO WHILE L1_NODE$ ~= ADDR(NIL);

   3942  1 000107   000210 710000 1     EACH_LOCATI* TRA     s:3959

     2545     3943    2              NAME_DATA$ = L1$NODE.DESC.DATA$;

   3943  1 000110   200015 470500                    LDP0    L1_NODE$,,AUTO
         1 000111   000010 236100                    LDQ     8,,PR0
         1 000112   200017 756100                    STQ     NAME_DATA$,,AUTO

     2546     3944    3              IF NAME_DATA$ ~= ADDR(NIL) THEN DO;

   3944  1 000113   000001 116000 xsym               CMPQ    B_VECTNIL+1
PL6.E3A0      #018=VDG$XLATE_LOCATIONS File=VDG$UTILITY.:VDA5TSI                 FRI 07/04/97 11:25 Page:417
         1 000114   000205 600000 1                  TZE     s:3958

     2547     3945    4                 DO CASE (NAME$DATA.CLASS#);

   3945  1 000115   200017 471500                    LDP1    NAME_DATA$,,AUTO
         1 000116   100000 220100                    LDX0    0,,PR1
         1 000117   000041 100003                    CMPX0   33,DU
         1 000120   000122 602010 1                  TNC     s:3945+5,X0
         1 000121   000173 710000 1                  TRA     s:3951
         1 000122   000173 710000 1                  TRA     s:3951
         1 000123   000166 710000 1                  TRA     s:3949
         1 000124   000173 710000 1                  TRA     s:3951
         1 000125   000173 710000 1                  TRA     s:3951
         1 000126   000173 710000 1                  TRA     s:3951
         1 000127   000173 710000 1                  TRA     s:3951
         1 000130   000173 710000 1                  TRA     s:3951
         1 000131   000173 710000 1                  TRA     s:3951
         1 000132   000173 710000 1                  TRA     s:3951
         1 000133   000173 710000 1                  TRA     s:3951
         1 000134   000173 710000 1                  TRA     s:3951
         1 000135   000173 710000 1                  TRA     s:3951
         1 000136   000173 710000 1                  TRA     s:3951
         1 000137   000173 710000 1                  TRA     s:3951
         1 000140   000173 710000 1                  TRA     s:3951
         1 000141   000173 710000 1                  TRA     s:3951
         1 000142   000173 710000 1                  TRA     s:3951
         1 000143   000173 710000 1                  TRA     s:3951
         1 000144   000173 710000 1                  TRA     s:3951
         1 000145   000173 710000 1                  TRA     s:3951
         1 000146   000173 710000 1                  TRA     s:3951
         1 000147   000173 710000 1                  TRA     s:3951
         1 000150   000173 710000 1                  TRA     s:3951
         1 000151   000173 710000 1                  TRA     s:3951
         1 000152   000173 710000 1                  TRA     s:3951
         1 000153   000173 710000 1                  TRA     s:3951
         1 000154   000173 710000 1                  TRA     s:3951
         1 000155   000173 710000 1                  TRA     s:3951
PL6.E3A0      #018=VDG$XLATE_LOCATIONS File=VDG$UTILITY.:VDA5TSI                 FRI 07/04/97 11:25 Page:418
         1 000156   000173 710000 1                  TRA     s:3951
         1 000157   000173 710000 1                  TRA     s:3951
         1 000160   000173 710000 1                  TRA     s:3951
         1 000161   000173 710000 1                  TRA     s:3951
         1 000162   000163 710000 1                  TRA     s:3947

     2548     3946    4                  CASE (%CLS_PTR_BLOCK_DESC);

     2549     3947    4                    NAME_DESC$ = NAME$DATA_POINTER.V$;

   3947  1 000163   100003 236100                    LDQ     3,,PR1
         1 000164   200020 756100                    STQ     NAME_DESC$,,AUTO
         1 000165   000177 710000 1                  TRA     s:3953

     2550     3948    4                  CASE (%CLS_BLOCK_BUFFER);

     2551     3949    4                    NAME_DESC$ = PALIGNW(ADDR(NAME$DATA_BUFFER.BYTES));

   3949  1 000166   000004 036000 2                  ADLQ    4
         1 000167   770000 036007                    ADLQ    -4096,DL
         1 000170   000005 376000 2                  ANQ     5
         1 000171   200020 756100                    STQ     NAME_DESC$,,AUTO
         1 000172   000177 710000 1                  TRA     s:3953

     2552     3950    4                  CASE (ELSE);

     2553     3951    4                    CALL VDG$ESCREECH (NAME$DATA.CLASS#);

   3951  1 000173   200017 630500                    EPPR0   NAME_DATA$,,AUTO
         1 000174   000017 631400 xsym               EPPR1   B_VECTNIL+15
         1 000175   000000 701000 xent               TSX1    VDG$ESCREECH
         1 000176   000000 011000                    NOP     0

     2554     3952    4                  END;

     2555     3953    4                 IF NAME_DESC$ ~= ADDR(NIL) THEN DO;

PL6.E3A0      #018=VDG$XLATE_LOCATIONS File=VDG$UTILITY.:VDA5TSI                 FRI 07/04/97 11:25 Page:419
   3953  1 000177   200020 236100                    LDQ     NAME_DESC$,,AUTO
         1 000200   000001 116000 xsym               CMPQ    B_VECTNIL+1
         1 000201   000205 600000 1                  TZE     s:3958

     2556     3954    4                    CALL EXAMINE_BLOCK_DESC (NAME$DESC)

   3954  1 000202   200033 756100                    STQ     THIS_EVAL$+2,,AUTO
         1 000203   000422 701000 1                  TSX1    EXAMINE_BLOCK_DESC
         1 000204   000315 702000 1                  TSX2    LREAD_FAILED

     2557     3955    4                      ALTRET (EXAMINE_BLOCK_DESC_FAILED);
     2558     3956    4                    END;

     2559     3957    3                 END;

     2560     3958    2              L1_NODE$ = L1$NODE.FLINK$;

   3958  1 000205   200015 470500                    LDP0    L1_NODE$,,AUTO
         1 000206   000002 236100                    LDQ     2,,PR0
         1 000207   200015 756100                    STQ     L1_NODE$,,AUTO

     2561     3959    2              END EACH_LOCATIONS_NODE;

   3959  1 000210   200015 236100                    LDQ     L1_NODE$,,AUTO
         1 000211   000001 116000 xsym               CMPQ    B_VECTNIL+1
         1 000212   000110 601000 1                  TNZ     s:3943

     2562     3960
     2563     3961
     2564     3962    1           L0_NODE$ = VD_6E.WINDOWS$->VD$STREAM.PORT$ ->

   3962  1 000213   000006 470400 xsym               LDP0    VD_6E+6
         1 000214   000001 471500                    LDP1    1,,PR0
         1 000215   100031 236100                    LDQ     25,,PR1
         1 000216   200014 756100                    STQ     L0_NODE$,,AUTO

     2565     3963    1             VD$PORT.LEVEL.INTERNAL$ (%LVL_FILE);
PL6.E3A0      #018=VDG$XLATE_LOCATIONS File=VDG$UTILITY.:VDA5TSI                 FRI 07/04/97 11:25 Page:420
     2566     3964    1           L1_NODE$ = ADDR(NIL);

   3964  1 000217   000001 236000 xsym               LDQ     B_VECTNIL+1
         1 000220   200015 756100                    STQ     L1_NODE$,,AUTO

     2567     3965    1           IF L0_NODE$ ~= ADDR(NIL) THEN

   3965  1 000221   200014 236100                    LDQ     L0_NODE$,,AUTO
         1 000222   000001 116000 xsym               CMPQ    B_VECTNIL+1
         1 000223   000227 600000 1                  TZE     EACH_WINDOWS_L1_NODE

     2568     3966    1              L1_NODE$ = L0$NODE.HEAD$;

   3966  1 000224   200014 473500                    LDP3    L0_NODE$,,AUTO
         1 000225   300012 236100                    LDQ     10,,PR3
         1 000226   200015 756100                    STQ     L1_NODE$,,AUTO

     2569     3967
     2570     3968    1   EACH_WINDOWS_L1_NODE:
     2571     3969    2           DO WHILE L1_NODE$ ~= ADDR(NIL);

   3969  1 000227   000311 710000 1     EACH_WINDOW* TRA     s:3999

     2572     3970    2              WINDOW_SPEC$ = L1$NODE.DESC.SPEC.V$;

   3970  1 000230   200015 470500                    LDP0    L1_NODE$,,AUTO
         1 000231   000007 236100                    LDQ     7,,PR0
         1 000232   200021 756100                    STQ     WINDOW_SPEC$,,AUTO

     2573     3971    3              IF WINDOW_SPEC$ ~= ADDR(NIL) THEN DO;

   3971  1 000233   000001 116000 xsym               CMPQ    B_VECTNIL+1
         1 000234   000241 600000 1                  TZE     s:3976

     2574     3972    3                 CALL EXAMINE_OPERAND (WINDOW$SPEC.OPERAND)

   3972  1 000235   000010 036003                    ADLQ    8,DU
PL6.E3A0      #018=VDG$XLATE_LOCATIONS File=VDG$UTILITY.:VDA5TSI                 FRI 07/04/97 11:25 Page:421
         1 000236   200027 756100                    STQ     SOURCE_STRING_OPERAND+2,,AUTO
         1 000237   000316 701000 1                  TSX1    EXAMINE_OPERAND
         1 000240   000315 702000 1                  TSX2    LREAD_FAILED

     2575     3973    3                   ALTRET (EXAMINE_OPERAND_FAILED);
     2576     3974    3                 END;

     2577     3975
     2578     3976    2              L2_NODE$ = L1$NODE.HEAD$;

   3976  1 000241   200015 470500                    LDP0    L1_NODE$,,AUTO
         1 000242   000012 236100                    LDQ     10,,PR0
         1 000243   200016 756100                    STQ     L2_NODE$,,AUTO

     2579     3977    2   EACH_WINDOWS_L2_NODE:
     2580     3978    3              DO WHILE L2_NODE$ ~= ADDR(NIL);

   3978  1 000244   000304 710000 1     EACH_WINDOW* TRA     s:3996

     2581     3979    3                 WINDOW_BLOCK$ = L2$NODE.DESC.SPEC.V$;

   3979  1 000245   200016 470500                    LDP0    L2_NODE$,,AUTO
         1 000246   000007 236100                    LDQ     7,,PR0
         1 000247   200022 756100                    STQ     WINDOW_BLOCK$,,AUTO

     2582     3980    3                 IF WINDOW_BLOCK$ ~= ADDR(NIL) THEN

   3980  1 000250   000001 116000 xsym               CMPQ    B_VECTNIL+1
         1 000251   000301 600000 1                  TZE     s:3995

     2583     3981    4                    IF WINDOW$BLOCK.EDIT_BLOCK$ ~= ADDR(NIL) THEN DO;

   3981  1 000252   200022 471500                    LDP1    WINDOW_BLOCK$,,AUTO
         1 000253   100003 236100                    LDQ     3,,PR1
         1 000254   000001 116000 xsym               CMPQ    B_VECTNIL+1
         1 000255   000301 600000 1                  TZE     s:3995

PL6.E3A0      #018=VDG$XLATE_LOCATIONS File=VDG$UTILITY.:VDA5TSI                 FRI 07/04/97 11:25 Page:422
     2584     3982    4                       CALL EXAMINE_BLOCK_DESC (WINDOW$BLOCK.EDIT_BLOCK$ ->

   3982  1 000256   100003 473500                    LDP3    3,,PR1
         1 000257   200033 453500                    STP3    THIS_EVAL$+2,,AUTO
         1 000260   000422 701000 1                  TSX1    EXAMINE_BLOCK_DESC
         1 000261   000315 702000 1                  TSX2    LREAD_FAILED

     2585     3983    4                         VD$BLOCK_DESC)
     2586     3984    4                         ALTRET (EXAMINE_BLOCK_DESC_FAILED);
     2587     3985
     2588     3986    4                       THIS_EVAL$ = WINDOW$BLOCK.EVAL$;

   3986  1 000262   200022 470500                    LDP0    WINDOW_BLOCK$,,AUTO
         1 000263   000004 236100                    LDQ     4,,PR0
         1 000264   200023 756100                    STQ     THIS_EVAL$,,AUTO

     2589     3987    4                       IF BLOCK_IS_CANDIDATE THEN

   3987  1 000265   200024 234100                    SZN     BLOCK_IS_CANDIDATE,,AUTO
         1 000266   000301 605000 1                  TPL     s:3995

     2590     3988    5                       DO WHILE THIS_EVAL$ ~= ADDR(NIL);

   3988  1 000267   000277 710000 1                  TRA     s:3992

     2591     3989    5                          CALL EXAMINE_EVAL (THIS$EVAL)

   3989  1 000270   200023 236100                    LDQ     THIS_EVAL$,,AUTO
         1 000271   200033 756100                    STQ     THIS_EVAL$+2,,AUTO
         1 000272   000566 701000 1                  TSX1    EXAMINE_EVAL
         1 000273   000315 702000 1                  TSX2    LREAD_FAILED

     2592     3990    5                            ALTRET (EXAMINE_EVAL_FAILED);
     2593     3991    5                          THIS_EVAL$ = THIS$EVAL.BLINK$;

   3991  1 000274   200023 470500                    LDP0    THIS_EVAL$,,AUTO
         1 000275   000001 236100                    LDQ     1,,PR0
PL6.E3A0      #018=VDG$XLATE_LOCATIONS File=VDG$UTILITY.:VDA5TSI                 FRI 07/04/97 11:25 Page:423
         1 000276   200023 756100                    STQ     THIS_EVAL$,,AUTO

     2594     3992    5                          END;

   3992  1 000277   000001 116000 xsym               CMPQ    B_VECTNIL+1
         1 000300   000270 601000 1                  TNZ     s:3989

     2595     3993    4                       END;

     2596     3994
     2597     3995    3                 L2_NODE$ = L2$NODE.FLINK$;

   3995  1 000301   200016 470500                    LDP0    L2_NODE$,,AUTO
         1 000302   000002 236100                    LDQ     2,,PR0
         1 000303   200016 756100                    STQ     L2_NODE$,,AUTO

     2598     3996    3                 END EACH_WINDOWS_L2_NODE;

   3996  1 000304   000001 116000 xsym               CMPQ    B_VECTNIL+1
         1 000305   000245 601000 1                  TNZ     s:3979

     2599     3997
     2600     3998    2              L1_NODE$ = L1$NODE.FLINK$;

   3998  1 000306   200015 470500                    LDP0    L1_NODE$,,AUTO
         1 000307   000002 236100                    LDQ     2,,PR0
         1 000310   200015 756100                    STQ     L1_NODE$,,AUTO

     2601     3999    2              END EACH_WINDOWS_L1_NODE;

   3999  1 000311   200015 236100                    LDQ     L1_NODE$,,AUTO
         1 000312   000001 116000 xsym               CMPQ    B_VECTNIL+1
         1 000313   000230 601000 1                  TNZ     s:3970

     2602     4000
     2603     4001    1           RETURN;

PL6.E3A0      #018=VDG$XLATE_LOCATIONS File=VDG$UTILITY.:VDA5TSI                 FRI 07/04/97 11:25 Page:424
   4001  1 000314   000000 702200 xent               TSX2  ! X66_ARET

   3992  1 000315                       LREAD_FAILED null
   3992  1 000315                       EXAMINE_OPE* null
   3992  1 000315                       EXAMINE_BLO* null
   3992  1 000315                       EXAMINE_EVA* null
     2604     4002
     2605     4003
     2606     4004
     2607     4005    1   LREAD_FAILED: ;
     2608     4006    1   EXAMINE_OPERAND_FAILED: ;
     2609     4007    1   EXAMINE_BLOCK_DESC_FAILED: ;
     2610     4008    1   EXAMINE_EVAL_FAILED: ;
     2611     4009    1           ALTRETURN;

   4009  1 000315   000000 702200 xent               TSX2  ! X66_AALT

     2612     4010
     2613     4011        %BOX (TITLE=EXAMINE_OPERAND, PAGE=YES);
              4019    1
              4023    1   /***************************************************************************
              4025    1    *                                                                         *
              4029    1            *                              EXAMINE_OPERAND                           *
              4031    1            *                                                                        *
              4033    1          ***************************************************************************/

     2614     4037
     2615     4038        /*I* NAME: EXAMINE_OPERAND
     2616     4039            PARAMETERS:
     2617     4040                OPERAND - VD$OPERAND to examine, looking for candidate locations.
     2618     4041            INPUT:
     2619     4042                XLATE_LOCATIONS - Same as main routine.
     2620     4043                ACTION - Same as main routine.
     2621     4044                PREFIX_KEY$ - Array of ptrs to VD$TEXTCs for prefix keys at
     2622     4045                    levels 0 thru (XLATE_LOCATIONS.LEVEL-1).
     2623     4046            OUTPUT:
     2624     4047                Same as main routine, but just for OPERAND's VD$LOCATIONS.
PL6.E3A0      #018=VDG$XLATE_LOCATIONS File=VDG$UTILITY.:VDA5TSI                 FRI 07/04/97 11:25 Page:425
     2625     4048            DESCRIPTION:
     2626     4049                Examine each of the VD$LOCATIONs in OPERAND.
     2627     4050        */
     2628     4051
     2629     4052    1   EXAMINE_OPERAND: PROC (OPERAND) ALTRET;

   4052  1 000316   200026 741300       EXAMINE_OPE* STX1  ! SOURCE_STRING_OPERAND+1,,AUTO

     2630     4053
     2631     4054        %VD$OPERAND (NAME=OPERAND, STCLASS=PARAM);
     2632     4068        %VD$WILD_STRINGS (STCLASS="BASED(VD_6E.WILD_STRINGS$)");
     2633     4183        %VD$WILD_STRINGS (NAME=WILD, STCLASS="BASED(THIS_WILD$)");
     2634     4298
     2635     4299
     2636     4300
     2637     4301    2   DCL THIS_WILD$ PTR;
     2638     4302    2   DCL THIS_EVAL$ PTR;
     2639     4303
     2640     4304
     2641     4305        %VD$EVAL (NAME=THIS$EVAL, STCLASS="BASED(THIS_EVAL$)");
     2642     4550
     2643     4551
     2644     4552    2           SOURCE_STRING_OPERAND = '0'B;

   4552  1 000317   200025 450100                    STZ     SOURCE_STRING_OPERAND,,AUTO

     2645     4553    3           IF OPERAND.EDIT_BLOCK$ ~= ADDR(NIL) THEN DO;

   4553  1 000320   200027 470500                    LDP0    @OPERAND,,AUTO
         1 000321   000002 236100                    LDQ     2,,PR0
         1 000322   000001 116000 xsym               CMPQ    B_VECTNIL+1
         1 000323   000416 600000 1                  TZE     s:4600

     2646     4554    3              CALL EXAMINE_BLOCK_DESC (OPERAND.EDIT_BLOCK$ -> VD$BLOCK_DESC)

   4554  1 000324   000002 471500                    LDP1    2,,PR0
         1 000325   200033 451500                    STP1    THIS_EVAL$+2,,AUTO
PL6.E3A0      #018=VDG$XLATE_LOCATIONS File=VDG$UTILITY.:VDA5TSI                 FRI 07/04/97 11:25 Page:426
         1 000326   000422 701000 1                  TSX1    EXAMINE_BLOCK_DESC
         1 000327   000420 702000 1                  TSX2    CANDIDATE_LOCATION_FAILED

     2647     4555    3                ALTRET (EXAMINE_BLOCK_DESC_FAILED);
     2648     4556
     2649     4557    3              IF NOT BLOCK_IS_CANDIDATE THEN EXIT;

   4557  1 000330   200024 234100                    SZN     BLOCK_IS_CANDIDATE,,AUTO
         1 000331   000416 605000 1                  TPL     s:4600

     2650     4558    3              IF ADDR(OPERAND) = ADDR(VD_6E.SOURCE.OPERAND)

   4558  1 000332   000003 236000 2                  LDQ     3
         1 000333   200027 116100                    CMPQ    @OPERAND,,AUTO
         1 000334   000344 601000 1                  TNZ     s:4567
         1 000335   200027 470500                    LDP0    @OPERAND,,AUTO
         1 000336   000002 471500                    LDP1    2,,PR0
         1 000337   100025 236100                    LDQ     21,,PR1
         1 000340   000012 116000 xsym               CMPQ    VD_6E+10
         1 000341   000344 601000 1                  TNZ     s:4567

     2651     4559    3                AND OPERAND.EDIT_BLOCK$ -> VD$BLOCK_DESC.OPTIONS.STRUCTURE$ =
     2652     4560    3                VD_6E.STRUCTURE_SCRATCH$ THEN SOURCE_STRING_OPERAND = '1'B;

   4560  1 000342   400000 236003                    LDQ     -131072,DU
         1 000343   200025 756100                    STQ     SOURCE_STRING_OPERAND,,AUTO

     2653     4561
     2654     4562                   /*
     2655     4563                   *   This must be inserting or deleting the wildcard matches
     2656     4564                   *   for a literal string.  Adjust EVAL backwards.
     2657     4565                   */
     2658     4566
     2659     4567    3              THIS_EVAL$ = OPERAND.EVAL$;

   4567  1 000344   200027 470500                    LDP0    @OPERAND,,AUTO
         1 000345   000003 236100                    LDQ     3,,PR0
PL6.E3A0      #018=VDG$XLATE_LOCATIONS File=VDG$UTILITY.:VDA5TSI                 FRI 07/04/97 11:25 Page:427
         1 000346   200031 756100                    STQ     THIS_EVAL$,,AUTO

     2660     4568    4              DO WHILE THIS_EVAL$ ~= ADDR(NIL);

   4568  1 000347   000357 710000 1                  TRA     s:4572

     2661     4569    4                 CALL EXAMINE_EVAL (THIS$EVAL)

   4569  1 000350   200031 236100                    LDQ     THIS_EVAL$,,AUTO
         1 000351   200033 756100                    STQ     THIS_EVAL$+2,,AUTO
         1 000352   000566 701000 1                  TSX1    EXAMINE_EVAL
         1 000353   000420 702000 1                  TSX2    CANDIDATE_LOCATION_FAILED

     2662     4570    4                   ALTRET (EXAMINE_EVAL_FAILED);
     2663     4571    4                 THIS_EVAL$ = THIS$EVAL.BLINK$;

   4571  1 000354   200031 470500                    LDP0    THIS_EVAL$,,AUTO
         1 000355   000001 236100                    LDQ     1,,PR0
         1 000356   200031 756100                    STQ     THIS_EVAL$,,AUTO

     2664     4572    4                 END;

   4572  1 000357   000001 116000 xsym               CMPQ    B_VECTNIL+1
         1 000360   000350 601000 1                  TNZ     s:4569

     2665     4573    3              IF NOT SOURCE_STRING_OPERAND THEN EXIT;

   4573  1 000361   200025 234100                    SZN     SOURCE_STRING_OPERAND,,AUTO
         1 000362   000416 605000 1                  TPL     s:4600

     2666     4574    3              SOURCE_STRING_OPERAND = '0'B;

   4574  1 000363   200025 450100                    STZ     SOURCE_STRING_OPERAND,,AUTO

     2667     4575                   /*
     2668     4576                   *   Adjust the rest of the wildcard matches for a literal string.
     2669     4577                   */
PL6.E3A0      #018=VDG$XLATE_LOCATIONS File=VDG$UTILITY.:VDA5TSI                 FRI 07/04/97 11:25 Page:428
     2670     4578
     2671     4579    3              THIS_WILD$ = PINCRW (VD_6E.WILD_STRINGS$,

   4579  1 000364   000025 470400 xsym               LDP0    VD_6E+21
         1 000365   000002 720100                    LXL0    2,,PR0
         1 000366   000000 636010                    EAQ     0,X0
         1 000367   000023 402007                    MPY     19,DL
         1 000370   000025 036000 xsym               ADLQ    VD_6E+21
         1 000371   200030 756100                    STQ     THIS_WILD$,,AUTO

     2672     4580    3                VD$WILD_STRINGS.N_WILDCARDS# * SIZEW(WILD.W));
     2673     4581
     2674     4582    4              DO UNTIL THIS_WILD$ = VD_6E.WILD_STRINGS$;

     2675     4583    4                 THIS_WILD$ = PINCRW (THIS_WILD$, -SIZEW(WILD.W));

   4583  1 000372   200030 236100                    LDQ     THIS_WILD$,,AUTO
         1 000373   777755 036003                    ADLQ    -19,DU
         1 000374   200030 756100                    STQ     THIS_WILD$,,AUTO

     2676     4584                      /*
     2677     4585                      * On an insert, VDI$BINSERT sets EOF in the insertion
     2678     4586                      * range.  These ranges are sorted by position, so stop
     2679     4587                      * adjusting when we get to the insertion one, so that
     2680     4588                      * lower adjacent ones don't get moved.
     2681     4589                      */
     2682     4590    4                 IF WILD.W.RANGE.START.EOF THEN EXIT;

   4590  1 000375   200030 470500                    LDP0    THIS_WILD$,,AUTO
         1 000376   000014 236100                    LDQ     12,,PR0
         1 000377   400000 316007                    CANQ    -131072,DL
         1 000400   000416 601000 1                  TNZ     s:4600

     2683     4591
     2684     4592    4                 CALL CANDIDATE_LOCATION (WILD.W.RANGE.START)

   4592  1 000401   200030 236100                    LDQ     THIS_WILD$,,AUTO
PL6.E3A0      #018=VDG$XLATE_LOCATIONS File=VDG$UTILITY.:VDA5TSI                 FRI 07/04/97 11:25 Page:429
         1 000402   000004 036003                    ADLQ    4,DU
         1 000403   200037 756100                    STQ     BLOCK_KEY$+2,,AUTO
         1 000404   000617 701000 1                  TSX1    CANDIDATE_LOCATION
         1 000405   000420 702000 1                  TSX2    CANDIDATE_LOCATION_FAILED

     2685     4593    4                   ALTRET (CANDIDATE_LOCATION_FAILED);
     2686     4594    4                 CALL CANDIDATE_LOCATION_END (WILD.W.RANGE.ENDD)

   4594  1 000406   200030 236100                    LDQ     THIS_WILD$,,AUTO
         1 000407   000015 036003                    ADLQ    13,DU
         1 000410   200037 756100                    STQ     BLOCK_KEY$+2,,AUTO
         1 000411   000624 701000 1                  TSX1    CANDIDATE_LOCATION_END
         1 000412   000420 702000 1                  TSX2    CANDIDATE_LOCATION_FAILED

     2687     4595    4                   ALTRET (CANDIDATE_LOCATION_FAILED);
     2688     4596    4                 END;

   4596  1 000413   200030 236100                    LDQ     THIS_WILD$,,AUTO
         1 000414   000025 116000 xsym               CMPQ    VD_6E+21
         1 000415   000372 601000 1                  TNZ     s:4583

     2689     4597
     2690     4598    3              END;

     2691     4599
     2692     4600    2           RETURN;

   4600  1 000416   200026 221300                    LDX1  ! SOURCE_STRING_OPERAND+1,,AUTO
         1 000417   000001 702211                    TSX2  ! 1,X1

   4590  1 000420                       CANDIDATE_L* null
     2693     4601
     2694     4602
     2695     4603    2   CANDIDATE_LOCATION_FAILED: ;
     2696     4604    2   EXAMINE_BLOCK_DESC_FAILED: ;

   4604  1 000420                       EXAMINE_BLO* null
PL6.E3A0      #018=VDG$XLATE_LOCATIONS File=VDG$UTILITY.:VDA5TSI                 FRI 07/04/97 11:25 Page:430
   4604  1 000420                       EXAMINE_EVA* null
     2697     4605    2   EXAMINE_EVAL_FAILED: ;
     2698     4606    2           ALTRETURN;

   4606  1 000420   200026 221300                    LDX1  ! SOURCE_STRING_OPERAND+1,,AUTO
         1 000421   000000 702211                    TSX2  ! 0,X1

     2699     4607
     2700     4608    2   END EXAMINE_OPERAND;
     2701     4609
     2702     4610        %BOX (TITLE=EXAMINE_BLOCK_DESC, PAGE=YES);
              4618    2
              4622    2   /***************************************************************************
              4624    2    *                                                                         *
              4628    2            *                             EXAMINE_BLOCK_DESC                         *
              4630    2            *                                                                        *
              4632    2          ***************************************************************************/

     2703     4636
     2704     4637        /*I* NAME: EXAMINE_BLOCK_DESC
     2705     4638            PARAMETERS:
     2706     4639                BLOCK_DESC - VD$BLOCK_DESC to examine, looking for candidate
     2707     4640                    locations.
     2708     4641            INPUT:
     2709     4642                XLATE_LOCATIONS - Same as main routine.
     2710     4643                ACTION - Same as main routine.
     2711     4644                PREFIX_KEY$ - Array of ptrs to VD$TEXTCs for prefix keys at
     2712     4645                    levels 0 thru (XLATE_LOCATIONS.LEVEL-1).
     2713     4646            OUTPUT:
     2714     4647                BLOCK_IS_CANDIDATE will be set %TRUE if BLOCK_DESC's .FILE_KEY
     2715     4648                    matches XLATE_LOCATIONS.FILE_KEY, and if BLOCK_DESC.RANGE's
     2716     4649                    locations have the same prefix as XLATE_LOCATIONS.PREFIX.
     2717     4650                    Otherwise, BLOCK_IS_CANDIDATE will be set %FALSE.
     2718     4651                Same as main routine, but just for BLOCK_DESC's VD$LOCATIONS.
     2719     4652            DESCRIPTION:
     2720     4653                First, see if this block has the same prefix (levels 0 thru
     2721     4654                    XLATE_LOCATIONS.LEVEL - 1) as the one specified in
PL6.E3A0      #018=VDG$XLATE_LOCATIONS File=VDG$UTILITY.:VDA5TSI                 FRI 07/04/97 11:25 Page:431
     2722     4655                    XLATE_LOCATIONS.FILE_KEY and .PREFIX.  If not, set
     2723     4656                    BLOCK_IS_CANDIDATE to false and return.
     2724     4657                    If BLOCK_DESC.RANGE.START is EOF, then this block is not
     2725     4658                    a candidate (note .RANGE.ENDD could only legally be EOF
     2726     4659                    also).  If BLOCK_DESC.RANGE.START has no keys, then this
     2727     4660                    block could only be a candidate if the translation level
     2728     4661                    is level 1, and so there are no prefix keys to be matched
     2729     4662                    below the file level (level 0).
     2730     4663                If this block is a candidate for translation, examine each of
     2731     4664                    the candidate VD$LOCATIONs in BLOCK_DESC and process them
     2732     4665                    according to ACTION.
     2733     4666        */
     2734     4667
     2735     4668    1   EXAMINE_BLOCK_DESC: PROC (BLOCK_DESC) ALTRET;

   4668  1 000422   200032 741300       EXAMINE_BLO* STX1  ! THIS_EVAL$+1,,AUTO

     2736     4669
     2737     4670        %VD$BLOCK_DESC (NAME=BLOCK_DESC, STCLASS=PARAM);
     2738     4817
     2739     4818
     2740     4819    2   DCL LEVEL SBIN;
     2741     4820    2   DCL BLOCK_KEY$ PTR;
     2742     4821
     2743     4822
     2744     4823        %VD$TEXTC (NAME=BLOCK$KEY, STCLASS="BASED(BLOCK_KEY$)");
     2745     4846
     2746     4847
     2747     4848
     2748     4849    2           BLOCK_IS_CANDIDATE = %FALSE;

   4849  1 000423   200024 450100                    STZ     BLOCK_IS_CANDIDATE,,AUTO

     2749     4850
     2750     4851                %GETKEY (KEY=BLOCK_DESC.FILE_KEY, PTR=BLOCK_KEY$);

   4858  1 000424   200033 470500                    LDP0    @BLOCK_DESC,,AUTO
PL6.E3A0      #018=VDG$XLATE_LOCATIONS File=VDG$UTILITY.:VDA5TSI                 FRI 07/04/97 11:25 Page:432
         1 000425   000001 720100                    LXL0    1,,PR0
         1 000426   000002 100003                    CMPX0   2,DU
         1 000427   000434 601000 1                  TNZ     s:4858+8

   4858  1 000430   000002 471500                    LDP1    2,,PR0
         1 000431   100002 633500                    EPPR3   2,,PR1
         1 000432   200035 453500                    STP3    BLOCK_KEY$,,AUTO
         1 000433   000437 710000 1                  TRA     s:4861

   4858  1 000434   200033 236100                    LDQ     @BLOCK_DESC,,AUTO
         1 000435   000002 036003                    ADLQ    2,DU
         1 000436   200035 756100                    STQ     BLOCK_KEY$,,AUTO

     2751     4861    2           IF BLOCK$KEY.BYTES ~= PREFIX_KEY$ (%LVL_FILE) -> VD$TEXTC.BYTES

   4861  1 000437   200035 471500                    LDP1    BLOCK_KEY$,,AUTO
         1 000440   100000 236100                    LDQ     0,,PR1
         1 000441   000033 772000                    QRL     27
         1 000442   200005 473500                    LDP3    PREFIX_KEY$,,AUTO
         1 000443   000000 622006                    EAX2    0,QL
         1 000444   300000 236100                    LDQ     0,,PR3
         1 000445   000033 772000                    QRL     27
         1 000446   000000 623006                    EAX3    0,QL
         1 000447   040140 106540                    CMPC    fill='040'O
         1 000450   100000 200012                    ADSC9   0,,PR1                   cn=1,n=*X2
         1 000451   300000 200013                    ADSC9   0,,PR3                   cn=1,n=*X3
         1 000452   000466 601000 1                  TNZ     s:4865
         1 000453   000013 236100                    LDQ     11,,PR0
         1 000454   400000 316007                    CANQ    -131072,DL
         1 000455   000466 601000 1                  TNZ     s:4865
         1 000456   000000 106500                    CMPC    fill='000'O
         1 000457   000003 000040                    ADSC9   3,,PR0                   cn=0,n=32
         1 000460   000002 000002 xsym               ADSC9   B_VECTNIL+2              cn=0,n=2
         1 000461   000467 601000 1                  TNZ     s:4867
         1 000462   200003 474500                    LDP4    @XLATE_LOCATIONS,,AUTO
         1 000463   400005 224100                    LDX4    5,,PR4
         1 000464   000001 104003                    CMPX4   1,DU
PL6.E3A0      #018=VDG$XLATE_LOCATIONS File=VDG$UTILITY.:VDA5TSI                 FRI 07/04/97 11:25 Page:433
         1 000465   000467 604400 1                  TMOZ    s:4867

     2752     4862    2             OR BLOCK_DESC.RANGE.START.EOF
     2753     4863    2             OR (BLOCK_DESC.RANGE.START.KEY = %CLEAR
     2754     4864    2             AND XLATE_LOCATIONS.LEVEL# > %LVL_LOWER) THEN
     2755     4865    2              RETURN;

   4865  1 000466   000001 702211                    TSX2  ! 1,X1

     2756     4866
     2757     4867    3           DO LEVEL = 1 TO (XLATE_LOCATIONS.LEVEL# - 1);

   4867  1 000467   000001 235007                    LDA     1,DL
         1 000470   200034 755100                    STA     LEVEL,,AUTO
         1 000471   000541 710000 1                  TRA     s:4883+1

     2758     4868    3              IF BLOCK_DESC.RANGE.START.KEY (LEVEL - 1) = %CLEAR THEN

   4868  1 000472   200034 235100                    LDA     LEVEL,,AUTO
         1 000473   000003 735000                    ALS     3
         1 000474   200033 470500                    LDP0    @BLOCK_DESC,,AUTO
         1 000475   000000 106505                    CMPC    fill='000'O
         1 000476   000001 000010                    ADSC9   1,A,PR0                  cn=0,n=8
         1 000477   000002 000002 xsym               ADSC9   B_VECTNIL+2              cn=0,n=2
         1 000500   000503 601000 1                  TNZ     s:4878

     2759     4869    3                 RETURN;

   4869  1 000501   200032 221300                    LDX1  ! THIS_EVAL$+1,,AUTO
         1 000502   000001 702211                    TSX2  ! 1,X1

     2760     4870                   %GETKEY (KEY=BLOCK_DESC.RANGE.START.KEY, INDX=LEVEL-1,
     2761     4871                   PTR=BLOCK_KEY$);

   4878  1 000503   200034 236100                    LDQ     LEVEL,,AUTO
         1 000504   000001 736000                    QLS     1
         1 000505   000001 720106                    LXL0    1,QL,PR0
PL6.E3A0      #018=VDG$XLATE_LOCATIONS File=VDG$UTILITY.:VDA5TSI                 FRI 07/04/97 11:25 Page:434
         1 000506   000002 100003                    CMPX0   2,DU
         1 000507   000514 601000 1                  TNZ     s:4878+9

   4878  1 000510   000002 471506                    LDP1    2,QL,PR0
         1 000511   100002 633500                    EPPR3   2,,PR1
         1 000512   200035 453500                    STP3    BLOCK_KEY$,,AUTO
         1 000513   000521 710000 1                  TRA     s:4881

   4878  1 000514   200034 236100                    LDQ     LEVEL,,AUTO
         1 000515   000023 736000                    QLS     19
         1 000516   000002 036003                    ADLQ    2,DU
         1 000517   200033 036100                    ADLQ    @BLOCK_DESC,,AUTO
         1 000520   200035 756100                    STQ     BLOCK_KEY$,,AUTO

     2762     4881    3              IF BLOCK$KEY.BYTES ~= PREFIX_KEY$ (LEVEL) -> VD$TEXTC.BYTES THEN

   4881  1 000521   200035 471500                    LDP1    BLOCK_KEY$,,AUTO
         1 000522   100000 236100                    LDQ     0,,PR1
         1 000523   000033 772000                    QRL     27
         1 000524   200034 720100                    LXL0    LEVEL,,AUTO
         1 000525   200005 473510                    LDP3    PREFIX_KEY$,X0,AUTO
         1 000526   000000 621006                    EAX1    0,QL
         1 000527   300000 236100                    LDQ     0,,PR3
         1 000530   000033 772000                    QRL     27
         1 000531   000000 622006                    EAX2    0,QL
         1 000532   040140 106540                    CMPC    fill='040'O
         1 000533   100000 200011                    ADSC9   0,,PR1                   cn=1,n=*X1
         1 000534   300000 200012                    ADSC9   0,,PR3                   cn=1,n=*X2
         1 000535   000540 600000 1                  TZE     s:4883

     2763     4882    3                 RETURN;

   4882  1 000536   200032 221300                    LDX1  ! THIS_EVAL$+1,,AUTO
         1 000537   000001 702211                    TSX2  ! 1,X1

     2764     4883    3              END;

PL6.E3A0      #018=VDG$XLATE_LOCATIONS File=VDG$UTILITY.:VDA5TSI                 FRI 07/04/97 11:25 Page:435
   4883  1 000540   200034 054100                    AOS     LEVEL,,AUTO
         1 000541   200003 473500                    LDP3    @XLATE_LOCATIONS,,AUTO
         1 000542   300005 236100                    LDQ     5,,PR3
         1 000543   000022 732000                    QRS     18
         1 000544   200034 116100                    CMPQ    LEVEL,,AUTO
         1 000545   000472 605400 1                  TPNZ    s:4868

     2765     4884
     2766     4885    2           BLOCK_IS_CANDIDATE = %TRUE;

   4885  1 000546   400000 236003                    LDQ     -131072,DU
         1 000547   200024 756100                    STQ     BLOCK_IS_CANDIDATE,,AUTO

     2767     4886
     2768     4887    2           CALL CANDIDATE_LOCATION (BLOCK_DESC.RANGE.START)

   4887  1 000550   200033 236100                    LDQ     @BLOCK_DESC,,AUTO
         1 000551   000003 036003                    ADLQ    3,DU
         1 000552   200037 756100                    STQ     BLOCK_KEY$+2,,AUTO
         1 000553   000617 701000 1                  TSX1    CANDIDATE_LOCATION
         1 000554   000564 702000 1                  TSX2    CANDIDATE_LOCATION_FAILED

     2769     4888    2             ALTRET (CANDIDATE_LOCATION_FAILED);
     2770     4889    2           CALL CANDIDATE_LOCATION_END (BLOCK_DESC.RANGE.ENDD)

   4889  1 000555   200033 236100                    LDQ     @BLOCK_DESC,,AUTO
         1 000556   000014 036003                    ADLQ    12,DU
         1 000557   200037 756100                    STQ     BLOCK_KEY$+2,,AUTO
         1 000560   000624 701000 1                  TSX1    CANDIDATE_LOCATION_END
         1 000561   000564 702000 1                  TSX2    CANDIDATE_LOCATION_FAILED

     2771     4890    2             ALTRET (CANDIDATE_LOCATION_FAILED);
     2772     4891
     2773     4892    2           RETURN;

   4892  1 000562   200032 221300                    LDX1  ! THIS_EVAL$+1,,AUTO
         1 000563   000001 702211                    TSX2  ! 1,X1
PL6.E3A0      #018=VDG$XLATE_LOCATIONS File=VDG$UTILITY.:VDA5TSI                 FRI 07/04/97 11:25 Page:436

   4885  1 000564                       CANDIDATE_L* null
     2774     4893
     2775     4894
     2776     4895    2   CANDIDATE_LOCATION_FAILED: ;
     2777     4896    2           ALTRETURN;

   4896  1 000564   200032 221300                    LDX1  ! THIS_EVAL$+1,,AUTO
         1 000565   000000 702211                    TSX2  ! 0,X1

     2778     4897
     2779     4898    2   END EXAMINE_BLOCK_DESC;
     2780     4899
     2781     4900        %BOX (TITLE=EXAMINE_EVAL, PAGE=YES);
              4908    2
              4912    2   /***************************************************************************
              4914    2    *                                                                         *
              4918    2            *                                EXAMINE_EVAL                            *
              4920    2            *                                                                        *
              4922    2          ***************************************************************************/

     2782     4926
     2783     4927        /*I* NAME: EXAMINE_EVAL
     2784     4928            PARAMETERS:
     2785     4929                EVAL - VD$EVAL to examine.  The EDIT_BLOCK$ for the VD$OPERAND
     2786     4930                    to which EVAL belongs must already have been verified to
     2787     4931                    match XLATE_LOCATIONS.FILE_KEY and .PREFIX at levels
     2788     4932                    0 thru (XLATE_LOCATIONS.LEVEL - 1).
     2789     4933            INPUT:
     2790     4934                XLATE_LOCATIONS - Same as for main routine.
     2791     4935                ACTION - Same as for main routine.
     2792     4936            OUTPUT:
     2793     4937                CANDIDATE, XLATE_LOCATIONS - Same as for main routine, based
     2794     4938                    on ACTION.
     2795     4939            DESCRIPTION:
     2796     4940                Process each VD$LOCATION in EVAL.
     2797     4941        */
PL6.E3A0      #018=VDG$XLATE_LOCATIONS File=VDG$UTILITY.:VDA5TSI                 FRI 07/04/97 11:25 Page:437
     2798     4942
     2799     4943    1   EXAMINE_EVAL: PROC (EVAL) ALTRET;

   4943  1 000566   200032 741300       EXAMINE_EVAL STX1  ! THIS_EVAL$+1,,AUTO

     2800     4944
     2801     4945        %VD$EVAL (NAME=EVAL, STCLASS=PARAM);
     2802     5190
     2803     5191
     2804     5192
     2805     5193    2           CALL CANDIDATE_LOCATION (EVAL.ENCLOSING.START)

   5193  1 000567   200033 236100                    LDQ     @EVAL,,AUTO
         1 000570   000002 036003                    ADLQ    2,DU
         1 000571   200037 756100                    STQ     BLOCK_KEY$+2,,AUTO
         1 000572   000617 701000 1                  TSX1    CANDIDATE_LOCATION
         1 000573   000615 702000 1                  TSX2    CANDIDATE_LOCATION_FAILED

     2806     5194    2             ALTRET (CANDIDATE_LOCATION_FAILED);
     2807     5195    2           CALL CANDIDATE_LOCATION_END (EVAL.ENCLOSING.ENDD)

   5195  1 000574   200033 236100                    LDQ     @EVAL,,AUTO
         1 000575   000013 036003                    ADLQ    11,DU
         1 000576   200037 756100                    STQ     BLOCK_KEY$+2,,AUTO
         1 000577   000624 701000 1                  TSX1    CANDIDATE_LOCATION_END
         1 000600   000615 702000 1                  TSX2    CANDIDATE_LOCATION_FAILED

     2808     5196    2             ALTRET (CANDIDATE_LOCATION_FAILED);
     2809     5197    2           CALL CANDIDATE_LOCATION (EVAL.RANGE.START)

   5197  1 000601   200033 236100                    LDQ     @EVAL,,AUTO
         1 000602   000024 036003                    ADLQ    20,DU
         1 000603   200037 756100                    STQ     BLOCK_KEY$+2,,AUTO
         1 000604   000617 701000 1                  TSX1    CANDIDATE_LOCATION
         1 000605   000615 702000 1                  TSX2    CANDIDATE_LOCATION_FAILED

     2810     5198    2             ALTRET (CANDIDATE_LOCATION_FAILED);
PL6.E3A0      #018=VDG$XLATE_LOCATIONS File=VDG$UTILITY.:VDA5TSI                 FRI 07/04/97 11:25 Page:438
     2811     5199    2           CALL CANDIDATE_LOCATION_END (EVAL.RANGE.ENDD)

   5199  1 000606   200033 236100                    LDQ     @EVAL,,AUTO
         1 000607   000035 036003                    ADLQ    29,DU
         1 000610   200037 756100                    STQ     BLOCK_KEY$+2,,AUTO
         1 000611   000624 701000 1                  TSX1    CANDIDATE_LOCATION_END
         1 000612   000615 702000 1                  TSX2    CANDIDATE_LOCATION_FAILED

     2812     5200    2             ALTRET (CANDIDATE_LOCATION_FAILED);
     2813     5201
     2814     5202    2           RETURN;

   5202  1 000613   200032 221300                    LDX1  ! THIS_EVAL$+1,,AUTO
         1 000614   000001 702211                    TSX2  ! 1,X1

     2815     5203
     2816     5204
     2817     5205    2   CANDIDATE_LOCATION_FAILED: ;

   5205  1 000615                       CANDIDATE_L* null
     2818     5206    2           ALTRETURN;

   5206  1 000615   200032 221300                    LDX1  ! THIS_EVAL$+1,,AUTO
         1 000616   000000 702211                    TSX2  ! 0,X1

     2819     5207
     2820     5208    2   END EXAMINE_EVAL;
     2821     5209
     2822     5210        %BOX (TITLE=CANDIDATE_LOCATION, PAGE=YES);
              5218    2
              5222    2   /***************************************************************************
              5224    2    *                                                                         *
              5228    2            *                             CANDIDATE_LOCATION                         *
              5230    2            *                                                                        *
              5232    2          ***************************************************************************/

     2823     5236
PL6.E3A0      #018=VDG$XLATE_LOCATIONS File=VDG$UTILITY.:VDA5TSI                 FRI 07/04/97 11:25 Page:439
     2824     5237        /*I* NAME: CANDIDATE_LOCATION
     2825     5238            PARAMETERS:
     2826     5239                CANDIDATE - VD$LOCATION which has already been verified to match
     2827     5240                    XLATE_LOCATIONS.FILE_KEY and .PREFIX at levels 0 thru
     2828     5241                    (XLATE_LOCATIONS.LEVEL - 1).
     2829     5242            INPUT:
     2830     5243                XLATE_LOCATIONS - Same as for main routine.
     2831     5244                ACTION - Same as for main routine.
     2832     5245            OUTPUT:
     2833     5246                CANDIDATE, XLATE_LOCATIONS - Same as for main routine, based on ACTION.
     2834     5247            DESCRIPTION:
     2835     5248                Search XLATE_LOCATIONS.XLATES to see if CANDIDATE matches any entry.
     2836     5249                We assume it matches only one entry.  Then look at ACTION:
     2837     5250                    %XLATE_BUILD - If CANDIDATE matches an entry, just return.
     2838     5251                        If it doesn't, add an entry to .XLATES for CANDIDATE, inserting
     2839     5252                        it into the tables in ascending order sorted by .OLD_KEY_LO.
     2840     5253                    %XLATE_LOCATION - If CANDIDATE doesn't match an entry,
     2841     5254                        just return.  If it does, translate CANDIDATE according
     2842     5255                        to the entry in .XLATES.
     2843     5256        */
     2844     5257
     2845     5258    1   CANDIDATE_LOCATION: PROC (CANDIDATE) ALTRET;

   5258  1 000617   200036 741300       CANDIDATE_L* STX1  ! BLOCK_KEY$+1,,AUTO

     2846     5259
     2847     5260        %VD$LOCATION (NAME=CANDIDATE, STCLASS=PARAM);
     2848     5288
     2849     5289
     2850     5290    2   DCL CURR_TABLE$ PTR;
     2851     5291    2   DCL PREV_TABLE$ PTR;
     2852     5292    2   DCL CAND_KEY$ PTR;
     2853     5293    2   DCL INDX SBIN;
     2854     5294    2   DCL INSERT_BEFORE SBIN;
     2855     5295    2   DCL XLATE_ENTRY$ PTR;
     2856     5296    2   DCL XLATE_KEY_LO$ PTR;
     2857     5297    2   DCL XLATE_KEY_HI$ PTR;
PL6.E3A0      #018=VDG$XLATE_LOCATIONS File=VDG$UTILITY.:VDA5TSI                 FRI 07/04/97 11:25 Page:440
     2858     5298    2   DCL SPLIT_TABLE$ PTR;
     2859     5299    2   DCL VAR_LEN SBIN;
     2860     5300    2   DCL RANGE_END BIT(1);
     2861     5301
     2862     5302
     2863     5303        %VD$XLATE_LOCATIONS (NAME=CURR$TABLE, STCLASS="BASED(CURR_TABLE$)");
     2864     5439        %VD$XLATE_LOCATIONS (NAME=PREV$TABLE, STCLASS="BASED(PREV_TABLE$)");
     2865     5575        %VD$XLATE_ENTRY (NAME=XLATE$ENTRY, STCLASS="BASED(XLATE_ENTRY$)");
     2866     5632        %VD$TEXTC (NAME=CAND$KEY, STCLASS="BASED(CAND_KEY$)");
     2867     5655        %VD$TEXTC (NAME=XLATE$KEY_LO, STCLASS="BASED(XLATE_KEY_LO$)");
     2868     5678        %VD$TEXTC (NAME=XLATE$KEY_HI, STCLASS="BASED(XLATE_KEY_HI$)");
     2869     5701        %VD$XLATE_LOCATIONS (NAME=SPLIT$TABLE, STCLASS="BASED(SPLIT_TABLE$)");
     2870     5837    2   DCL VAR$LEN CHAR(VAR_LEN) BASED;
     2871     5838
     2872     5839
     2873     5840    2           RANGE_END = SOURCE_STRING_OPERAND;

   5840  1 000620   200025 236100                    LDQ     SOURCE_STRING_OPERAND,,AUTO
         1 000621   400000 376003                    ANQ     -131072,DU
         1 000622   200052 756100                    STQ     RANGE_END,,AUTO

     2874     5841    2           GOTO BEGIN;

   5841  1 000623   000631 710000 1                  TRA     BEGIN

     2875     5842
     2876     5843    2   CANDIDATE_LOCATION_END: ENTRY (CANDIDATE) ALTRET;

   5843  1 000624   200036 741300       CANDIDATE_L* STX1  ! BLOCK_KEY$+1,,AUTO

     2877     5844
     2878     5845    2           RANGE_END = ~ RANGE_END;

   5845  1 000625   200052 236100                    LDQ     RANGE_END,,AUTO
         1 000626   400000 376003                    ANQ     -131072,DU
         1 000627   400000 676003                    ERQ     -131072,DU
         1 000630   200052 756100                    STQ     RANGE_END,,AUTO
PL6.E3A0      #018=VDG$XLATE_LOCATIONS File=VDG$UTILITY.:VDA5TSI                 FRI 07/04/97 11:25 Page:441

   5845  1 000631                       BEGIN        null
     2879     5846    2   BEGIN:  ;
     2880     5847
     2881     5848    2           IF CANDIDATE.EOF THEN

   5848  1 000631   200037 470500                    LDP0    @CANDIDATE,,AUTO
         1 000632   000010 236100                    LDQ     8,,PR0
         1 000633   400000 316007                    CANQ    -131072,DL
         1 000634   000636 600000 1                  TZE     s:5850

     2882     5849    2              RETURN;      /* Nothing to XLATE */

   5849  1 000635   000001 702211                    TSX2  ! 1,X1

     2883     5850    2           PREV_TABLE$ = ADDR(NIL);

   5850  1 000636   000001 236000 xsym               LDQ     B_VECTNIL+1
         1 000637   200041 756100                    STQ     PREV_TABLE$,,AUTO

     2884     5851    2           CURR_TABLE$ = ADDR(XLATE_LOCATIONS);

   5851  1 000640   200003 236100                    LDQ     @XLATE_LOCATIONS,,AUTO
         1 000641   200040 756100                    STQ     CURR_TABLE$,,AUTO

     2885     5852    2           INSERT_BEFORE = -1;

   5852  1 000642   000001 335007                    LCA     1,DL
         1 000643   200044 755100                    STA     INSERT_BEFORE,,AUTO

     2886     5853                %GETKEY (KEY=CANDIDATE.KEY, INDX=LEVEL-1, PTR=CAND_KEY$);

   5860  1 000644   200013 235100                    LDA     LEVEL,,AUTO
         1 000645   000001 735000                    ALS     1
         1 000646   077776 720105                    LXL0    -2,AL,PR0
         1 000647   000002 100003                    CMPX0   2,DU
         1 000650   000655 601000 1                  TNZ     s:5860+9
PL6.E3A0      #018=VDG$XLATE_LOCATIONS File=VDG$UTILITY.:VDA5TSI                 FRI 07/04/97 11:25 Page:442

   5860  1 000651   077777 471505                    LDP1    -1,AL,PR0
         1 000652   100002 633500                    EPPR3   2,,PR1
         1 000653   200042 453500                    STP3    CAND_KEY$,,AUTO
         1 000654   000662 710000 1                  TRA     EACH_TABLE_IN_CHAIN

   5860  1 000655   200013 236100                    LDQ     LEVEL,,AUTO
         1 000656   000023 736000                    QLS     19
         1 000657   000001 136003                    SBLQ    1,DU
         1 000660   200037 036100                    ADLQ    @CANDIDATE,,AUTO
         1 000661   200042 756100                    STQ     CAND_KEY$,,AUTO

     2887     5863
     2888     5864    2   EACH_TABLE_IN_CHAIN:
     2889     5865    3           DO WHILE CURR_TABLE$ ~= ADDR(NIL);

   5865  1 000662   000767 710000 1     EACH_TABLE_* TRA     s:5903

     2890     5866
     2891     5867    3   EACH_XLATE_ENTRY:
     2892     5868    4              DO INDX = 0 TO (CURR$TABLE.N_ENTRIES# - 1);

   5868  1 000663   200043 450100       EACH_XLATE_* STZ     INDX,,AUTO
         1 000664   000756 710000 1                  TRA     s:5899+1

     2893     5869    4                 XLATE_ENTRY$ = ADDR(CURR$TABLE.XLATES (INDX));

   5869  1 000665   200043 236100                    LDQ     INDX,,AUTO
         1 000666   000025 736000                    QLS     21
         1 000667   000017 036003                    ADLQ    15,DU
         1 000670   200040 036100                    ADLQ    CURR_TABLE$,,AUTO
         1 000671   200045 756100                    STQ     XLATE_ENTRY$,,AUTO

     2894     5870                      %GETKEY (KEY=XLATE$ENTRY.OLD_KEY_LO, PTR=XLATE_KEY_LO$);

   5877  1 000672   200045 470500                    LDP0    XLATE_ENTRY$,,AUTO
         1 000673   000000 720100                    LXL0    0,,PR0
PL6.E3A0      #018=VDG$XLATE_LOCATIONS File=VDG$UTILITY.:VDA5TSI                 FRI 07/04/97 11:25 Page:443
         1 000674   000002 100003                    CMPX0   2,DU
         1 000675   000702 601000 1                  TNZ     s:5877+8

   5877  1 000676   000001 471500                    LDP1    1,,PR0
         1 000677   100002 633500                    EPPR3   2,,PR1
         1 000700   200046 453500                    STP3    XLATE_KEY_LO$,,AUTO
         1 000701   000704 710000 1                  TRA     s:5887

   5877  1 000702   000001 036003                    ADLQ    1,DU
         1 000703   200046 756100                    STQ     XLATE_KEY_LO$,,AUTO

     2895     5880                      %GETKEY (KEY=XLATE$ENTRY.OLD_KEY_HI, PTR=XLATE_KEY_HI$);

   5887  1 000704   000002 721100                    LXL1    2,,PR0
         1 000705   000002 101003                    CMPX1   2,DU
         1 000706   000713 601000 1                  TNZ     s:5887+7

   5887  1 000707   000003 471500                    LDP1    3,,PR0
         1 000710   100002 633500                    EPPR3   2,,PR1
         1 000711   200047 453500                    STP3    XLATE_KEY_HI$,,AUTO
         1 000712   000716 710000 1                  TRA     s:5890

   5887  1 000713   200045 236100                    LDQ     XLATE_ENTRY$,,AUTO
         1 000714   000003 036003                    ADLQ    3,DU
         1 000715   200047 756100                    STQ     XLATE_KEY_HI$,,AUTO

     2896     5890    4                 IF CAND$KEY.BYTES >= XLATE$KEY_LO.BYTES

   5890  1 000716   200042 471500                    LDP1    CAND_KEY$,,AUTO
         1 000717   100000 236100                    LDQ     0,,PR1
         1 000720   000033 772000                    QRL     27
         1 000721   200046 473500                    LDP3    XLATE_KEY_LO$,,AUTO
         1 000722   000000 622006                    EAX2    0,QL
         1 000723   300000 236100                    LDQ     0,,PR3
         1 000724   000033 772000                    QRL     27
         1 000725   000000 623006                    EAX3    0,QL
         1 000726   040140 106540                    CMPC    fill='040'O
PL6.E3A0      #018=VDG$XLATE_LOCATIONS File=VDG$UTILITY.:VDA5TSI                 FRI 07/04/97 11:25 Page:444
         1 000727   100000 200012                    ADSC9   0,,PR1                   cn=1,n=*X2
         1 000730   300000 200013                    ADSC9   0,,PR3                   cn=1,n=*X3
         1 000731   000742 602000 1                  TNC     s:5893
         1 000732   200047 474500                    LDP4    XLATE_KEY_HI$,,AUTO
         1 000733   400000 236100                    LDQ     0,,PR4
         1 000734   000033 772000                    QRL     27
         1 000735   000000 624006                    EAX4    0,QL
         1 000736   040140 106540                    CMPC    fill='040'O
         1 000737   400000 200014                    ADSC9   0,,PR4                   cn=1,n=*X4
         1 000740   100000 200012                    ADSC9   0,,PR1                   cn=1,n=*X2
         1 000741   000772 603000 1                  TRC     s:5906

     2897     5891    4                   AND CAND$KEY.BYTES <= XLATE$KEY_HI.BYTES THEN
     2898     5892    4                    EXIT EACH_TABLE_IN_CHAIN;
     2899     5893    4                 IF ACTION = %XLATE_BUILD

   5893  1 000742   200004 474500                    LDP4    @ACTION,,AUTO
         1 000743   400000 235100                    LDA     0,,PR4
         1 000744   000001 115007                    CMPA    1,DL
         1 000745   000755 601000 1                  TNZ     s:5899
         1 000746   040140 106540                    CMPC    fill='040'O
         1 000747   100000 200012                    ADSC9   0,,PR1                   cn=1,n=*X2
         1 000750   300000 200013                    ADSC9   0,,PR3                   cn=1,n=*X3
         1 000751   000755 603000 1                  TRC     s:5899

     2900     5894    5                   AND CAND$KEY.BYTES < XLATE$KEY_LO.BYTES THEN DO;

     2901     5895                         /* Insert new entry before this one */
     2902     5896    5                    INSERT_BEFORE = INDX;

   5896  1 000752   200043 236100                    LDQ     INDX,,AUTO
         1 000753   200044 756100                    STQ     INSERT_BEFORE,,AUTO

     2903     5897    5                    EXIT EACH_TABLE_IN_CHAIN;

   5897  1 000754   000772 710000 1                  TRA     s:5906

PL6.E3A0      #018=VDG$XLATE_LOCATIONS File=VDG$UTILITY.:VDA5TSI                 FRI 07/04/97 11:25 Page:445
     2904     5898    5                    END;
     2905     5899    4                 END EACH_XLATE_ENTRY;

   5899  1 000755   200043 054100                    AOS     INDX,,AUTO
         1 000756   200040 470500                    LDP0    CURR_TABLE$,,AUTO
         1 000757   000001 236100                    LDQ     1,,PR0
         1 000760   000022 732000                    QRS     18
         1 000761   200043 116100                    CMPQ    INDX,,AUTO
         1 000762   000665 605400 1                  TPNZ    s:5869

     2906     5900
     2907     5901    3              PREV_TABLE$ = CURR_TABLE$;

   5901  1 000763   200040 236100                    LDQ     CURR_TABLE$,,AUTO
         1 000764   200041 756100                    STQ     PREV_TABLE$,,AUTO

     2908     5902    3              CURR_TABLE$ = CURR$TABLE.FLINK$;

   5902  1 000765   000002 236100                    LDQ     2,,PR0
         1 000766   200040 756100                    STQ     CURR_TABLE$,,AUTO

     2909     5903    3              END EACH_TABLE_IN_CHAIN;

   5903  1 000767   200040 236100                    LDQ     CURR_TABLE$,,AUTO
         1 000770   000001 116000 xsym               CMPQ    B_VECTNIL+1
         1 000771   000663 601000 1                  TNZ     EACH_XLATE_ENTRY

     2910     5904
     2911     5905
     2912     5906    3           DO CASE (ACTION);

   5906  1 000772   200004 470500                    LDP0    @ACTION,,AUTO
         1 000773   000000 235100                    LDA     0,,PR0
         1 000774   000003 115007                    CMPA    3,DL
         1 000775   000777 602005 1                  TNC     s:5906+5,AL
         1 000776   001502 710000 1                  TRA     s:6081
         1 000777   001502 710000 1                  TRA     s:6081
PL6.E3A0      #018=VDG$XLATE_LOCATIONS File=VDG$UTILITY.:VDA5TSI                 FRI 07/04/97 11:25 Page:446
         1 001000   001002 710000 1                  TRA     s:5908
         1 001001   001323 710000 1                  TRA     s:6019

     2913     5907    3            CASE (%XLATE_BUILD);

     2914     5908    3              IF CURR_TABLE$ ~= ADDR(NIL) AND INSERT_BEFORE < 0 THEN

   5908  1 001002   200040 236100                    LDQ     CURR_TABLE$,,AUTO
         1 001003   000001 116000 xsym               CMPQ    B_VECTNIL+1
         1 001004   001011 600000 1                  TZE     s:5917
         1 001005   200044 235100                    LDA     INSERT_BEFORE,,AUTO
         1 001006   001011 605000 1                  TPL     s:5917

     2915     5909    3                 RETURN;   /* Found matching entry:  do nothing */

   5909  1 001007   200036 221300                    LDX1  ! BLOCK_KEY$+1,,AUTO
         1 001010   000001 702211                    TSX2  ! 1,X1

     2916     5910                   /*
     2917     5911                   *  Build new entry for CANDIDATE.
     2918     5912                   *  If CURR_TABLE$ = ADDR(NIL), append the new entry to the end of
     2919     5913                   *    PREV_TABLE$.
     2920     5914                   *  Else insert the new entry in front of
     2921     5915                   *    CURR$TABLE.XLATES (INSERT_BEFORE).
     2922     5916                   */
     2923     5917    4              IF CURR_TABLE$ = ADDR(NIL) THEN DO;

   5917  1 001011   000001 116000 xsym               CMPQ    B_VECTNIL+1
         1 001012   001072 601000 1                  TNZ     s:5936

     2924     5918    4                 CURR_TABLE$ = PREV_TABLE$;

   5918  1 001013   200041 236100                    LDQ     PREV_TABLE$,,AUTO
         1 001014   200040 756100                    STQ     CURR_TABLE$,,AUTO

     2925     5919    4                 IF CURR_TABLE$ = ADDR(NIL) THEN

PL6.E3A0      #018=VDG$XLATE_LOCATIONS File=VDG$UTILITY.:VDA5TSI                 FRI 07/04/97 11:25 Page:447
   5919  1 001015   000001 116000 xsym               CMPQ    B_VECTNIL+1
         1 001016   001021 601000 1                  TNZ     s:5921

     2926     5920    4                    CURR_TABLE$ = ADDR(XLATE_LOCATIONS);

   5920  1 001017   200003 236100                    LDQ     @XLATE_LOCATIONS,,AUTO
         1 001020   200040 756100                    STQ     CURR_TABLE$,,AUTO

     2927     5921    4                 IF CURR$TABLE.N_ENTRIES# >=

   5921  1 001021   200040 471500                    LDP1    CURR_TABLE$,,AUTO
         1 001022   100001 236100                    LDQ     1,,PR1
         1 001023   000022 736000                    QLS     18
         1 001024   000022 732000                    QRS     18
         1 001025   000004 506007                    DIV     4,DL
         1 001026   000003 402007                    MPY     3,DL
         1 001027   200054 756100                    STQ     RANGE_END+2,,AUTO
         1 001030   100001 236100                    LDQ     1,,PR1
         1 001031   000022 732000                    QRS     18
         1 001032   200054 116100                    CMPQ    RANGE_END+2,,AUTO
         1 001033   001056 604000 1                  TMI     s:5932

     2928     5922    5                   (CURR$TABLE.MX_ENTRIES# / 4) * 3 THEN DO;

     2929     5923                         /* CURR table is > 75% occupied:  allocate a new table */
     2930     5924    5                    PREV_TABLE$ = CURR_TABLE$;

   5924  1 001034   200040 236100                    LDQ     CURR_TABLE$,,AUTO
         1 001035   200041 756100                    STQ     PREV_TABLE$,,AUTO

     2931     5925    5                    CALL VDG$OALLOC (%CLS_XLATE_LOCATIONS, CURR_TABLE$,

   5925  1 001036   000010 236000 2                  LDQ     8
         1 001037   200056 756100                    STQ     RANGE_END+4,,AUTO
         1 001040   200040 633500                    EPPR3   CURR_TABLE$,,AUTO
         1 001041   200055 453500                    STP3    RANGE_END+3,,AUTO
         1 001042   000011 236000 2                  LDQ     9
PL6.E3A0      #018=VDG$XLATE_LOCATIONS File=VDG$UTILITY.:VDA5TSI                 FRI 07/04/97 11:25 Page:448
         1 001043   200054 756100                    STQ     RANGE_END+2,,AUTO
         1 001044   200054 630500                    EPPR0   RANGE_END+2,,AUTO
         1 001045   000021 631400 xsym               EPPR1   B_VECTNIL+17
         1 001046   000000 701000 xent               TSX1    VDG$OALLOC
         1 001047   001510 702000 1                  TSX2    OALLOC_FAILED

     2932     5926    5                      SIZEW(CURR$TABLE) +
     2933     5927    5                      (SIZEW(CURR$TABLE.XLATES) * %N_LOCATION_XLATES))
     2934     5928    5                      ALTRET (OALLOC_FAILED);
     2935     5929    5                    CURR$TABLE.FLINK$ = PREV$TABLE.FLINK$;

   5929  1 001050   200041 470500                    LDP0    PREV_TABLE$,,AUTO
         1 001051   000002 236100                    LDQ     2,,PR0
         1 001052   200040 471500                    LDP1    CURR_TABLE$,,AUTO
         1 001053   100002 756100                    STQ     2,,PR1

     2936     5930    5                    PREV$TABLE.FLINK$ = CURR_TABLE$;

   5930  1 001054   200040 236100                    LDQ     CURR_TABLE$,,AUTO
         1 001055   000002 756100                    STQ     2,,PR0

     2937     5931    5                    END;

     2938     5932    4                 XLATE_ENTRY$ = ADDR(CURR$TABLE.XLATES (CURR$TABLE.N_ENTRIES#));

   5932  1 001056   200040 470500                    LDP0    CURR_TABLE$,,AUTO
         1 001057   000001 236100                    LDQ     1,,PR0
         1 001060   000017 732000                    QRS     15
         1 001061   000012 376000 2                  ANQ     10
         1 001062   000022 736000                    QLS     18
         1 001063   000017 036003                    ADLQ    15,DU
         1 001064   200040 036100                    ADLQ    CURR_TABLE$,,AUTO
         1 001065   200045 756100                    STQ     XLATE_ENTRY$,,AUTO

     2939     5933    4                 CURR$TABLE.N_ENTRIES# = CURR$TABLE.N_ENTRIES# + 1;

   5933  1 001066   000001 220100                    LDX0    1,,PR0
PL6.E3A0      #018=VDG$XLATE_LOCATIONS File=VDG$UTILITY.:VDA5TSI                 FRI 07/04/97 11:25 Page:449
         1 001067   000001 621010                    EAX1    1,X0
         1 001070   000001 741100                    STX1    1,,PR0

     2940     5934    4                 END;

   5934  1 001071   001222 710000 1                  TRA     s:5977

     2941     5935    4              ELSE DO;

     2942     5936    5                 IF CURR$TABLE.N_ENTRIES# >= CURR$TABLE.MX_ENTRIES# THEN DO;

   5936  1 001072   200040 471500                    LDP1    CURR_TABLE$,,AUTO
         1 001073   100001 720100                    LXL0    1,,PR1
         1 001074   100001 100100                    CMPX0   1,,PR1
         1 001075   001170 605400 1                  TPNZ    s:5956

     2943     5937                         /* Split this table into two tables */
     2944     5938    5                    CALL VDG$OALLOC (%CLS_XLATE_LOCATIONS, SPLIT_TABLE$,

   5938  1 001076   000010 236000 2                  LDQ     8
         1 001077   200056 756100                    STQ     RANGE_END+4,,AUTO
         1 001100   200050 633500                    EPPR3   SPLIT_TABLE$,,AUTO
         1 001101   200055 453500                    STP3    RANGE_END+3,,AUTO
         1 001102   000011 236000 2                  LDQ     9
         1 001103   200054 756100                    STQ     RANGE_END+2,,AUTO
         1 001104   200054 630500                    EPPR0   RANGE_END+2,,AUTO
         1 001105   000021 631400 xsym               EPPR1   B_VECTNIL+17
         1 001106   000000 701000 xent               TSX1    VDG$OALLOC
         1 001107   001510 702000 1                  TSX2    OALLOC_FAILED

     2945     5939    5                      SIZEW(CURR$TABLE) +
     2946     5940    5                      (SIZEW(CURR$TABLE.XLATES) * %N_LOCATION_XLATES))
     2947     5941    5                      ALTRET (OALLOC_FAILED);
     2948     5942    5                    SPLIT$TABLE.FLINK$ = CURR$TABLE.FLINK$;

   5942  1 001110   200040 470500                    LDP0    CURR_TABLE$,,AUTO
         1 001111   000002 236100                    LDQ     2,,PR0
PL6.E3A0      #018=VDG$XLATE_LOCATIONS File=VDG$UTILITY.:VDA5TSI                 FRI 07/04/97 11:25 Page:450
         1 001112   200050 471500                    LDP1    SPLIT_TABLE$,,AUTO
         1 001113   100002 756100                    STQ     2,,PR1

     2949     5943    5                    CURR$TABLE.FLINK$ = SPLIT_TABLE$;

   5943  1 001114   200050 236100                    LDQ     SPLIT_TABLE$,,AUTO
         1 001115   200040 470500                    LDP0    CURR_TABLE$,,AUTO
         1 001116   000002 756100                    STQ     2,,PR0

     2950     5944    5                    SPLIT$TABLE.N_ENTRIES# = CURR$TABLE.N_ENTRIES# / 2;

   5944  1 001117   200040 470500                    LDP0    CURR_TABLE$,,AUTO
         1 001120   000001 236100                    LDQ     1,,PR0
         1 001121   000022 732000                    QRS     18
         1 001122   000002 506007                    DIV     2,DL
         1 001123   000000 620006                    EAX0    0,QL
         1 001124   200050 471500                    LDP1    SPLIT_TABLE$,,AUTO
         1 001125   100001 740100                    STX0    1,,PR1

     2951     5945    5                    VAR_LEN = SIZEC(CURR$TABLE.XLATES) * SPLIT$TABLE.N_ENTRIES#;

   5945  1 001126   200050 470500                    LDP0    SPLIT_TABLE$,,AUTO
         1 001127   000001 236100                    LDQ     1,,PR0
         1 001130   000015 732000                    QRS     13
         1 001131   000013 376000 2                  ANQ     11
         1 001132   200051 756100                    STQ     VAR_LEN,,AUTO

     2952     5946    5                    ADDR(SPLIT$TABLE.XLATES)->VAR$LEN =

   5946  1 001133   200044 235100                    LDA     INSERT_BEFORE,,AUTO
         1 001134   000005 735000                    ALS     5
         1 001135   200040 471500                    LDP1    CURR_TABLE$,,AUTO
         1 001136   000000 620006                    EAX0    0,QL
         1 001137   200051 721100                    LXL1    VAR_LEN,,AUTO
         1 001140   040140 100545                    MLR     fill='040'O
         1 001141   100017 000010                    ADSC9   15,A,PR1                 cn=0,n=*X0
         1 001142   000017 000011                    ADSC9   15,,PR0                  cn=0,n=*X1
PL6.E3A0      #018=VDG$XLATE_LOCATIONS File=VDG$UTILITY.:VDA5TSI                 FRI 07/04/97 11:25 Page:451

     2953     5947    5                      ADDR(CURR$TABLE.XLATES (INSERT_BEFORE))->VAR$LEN;
     2954     5948    5                    CURR$TABLE.N_ENTRIES# = CURR$TABLE.N_ENTRIES# -

   5948  1 001143   200050 470500                    LDP0    SPLIT_TABLE$,,AUTO
         1 001144   000001 236100                    LDQ     1,,PR0
         1 001145   000022 732000                    QRS     18
         1 001146   200054 756100                    STQ     RANGE_END+2,,AUTO
         1 001147   200040 471500                    LDP1    CURR_TABLE$,,AUTO
         1 001150   100001 236100                    LDQ     1,,PR1
         1 001151   000022 732000                    QRS     18
         1 001152   200054 136100                    SBLQ    RANGE_END+2,,AUTO
         1 001153   000000 620006                    EAX0    0,QL
         1 001154   100001 740100                    STX0    1,,PR1

     2955     5949    5                      SPLIT$TABLE.N_ENTRIES#;
     2956     5950    6                    IF INSERT_BEFORE > CURR$TABLE.N_ENTRIES# THEN DO;

   5950  1 001155   200040 470500                    LDP0    CURR_TABLE$,,AUTO
         1 001156   000001 236100                    LDQ     1,,PR0
         1 001157   000022 732000                    QRS     18
         1 001160   200044 116100                    CMPQ    INSERT_BEFORE,,AUTO
         1 001161   001170 605000 1                  TPL     s:5956

     2957     5951    6                       INSERT_BEFORE = INSERT_BEFORE - CURR$TABLE.N_ENTRIES#;

   5951  1 001162   200054 756100                    STQ     RANGE_END+2,,AUTO
         1 001163   200044 236100                    LDQ     INSERT_BEFORE,,AUTO
         1 001164   200054 136100                    SBLQ    RANGE_END+2,,AUTO
         1 001165   200044 756100                    STQ     INSERT_BEFORE,,AUTO

     2958     5952    6                       CURR_TABLE$ = CURR$TABLE.FLINK$;

   5952  1 001166   000002 236100                    LDQ     2,,PR0
         1 001167   200040 756100                    STQ     CURR_TABLE$,,AUTO

     2959     5953    6                       END;
PL6.E3A0      #018=VDG$XLATE_LOCATIONS File=VDG$UTILITY.:VDA5TSI                 FRI 07/04/97 11:25 Page:452

     2960     5954    5                    END;

     2961     5955                      /* Slide the rest of this table up 1 entry */
     2962     5956    5                 DO INDX = CURR$TABLE.N_ENTRIES# - 1 DOWNTO INSERT_BEFORE;

   5956  1 001170   200040 470500                    LDP0    CURR_TABLE$,,AUTO
         1 001171   000001 236100                    LDQ     1,,PR0
         1 001172   000022 732000                    QRS     18
         1 001173   000001 136007                    SBLQ    1,DL
         1 001174   200043 756100                    STQ     INDX,,AUTO
         1 001175   001206 710000 1                  TRA     s:5958+2

     2963     5957    5                    CURR$TABLE.XLATES (INDX + 1) = CURR$TABLE.XLATES (INDX);

   5957  1 001176   200043 235100                    LDA     INDX,,AUTO
         1 001177   000005 735000                    ALS     5
         1 001200   200040 470500                    LDP0    CURR_TABLE$,,AUTO
         1 001201   000105 100505                    MLR     fill='000'O
         1 001202   000017 000040                    ADSC9   15,A,PR0                 cn=0,n=32
         1 001203   000027 000040                    ADSC9   23,A,PR0                 cn=0,n=32

     2964     5958    5                    END;

   5958  1 001204   000001 336007                    LCQ     1,DL
         1 001205   200043 056100                    ASQ     INDX,,AUTO
         1 001206   200043 236100                    LDQ     INDX,,AUTO
         1 001207   200044 116100                    CMPQ    INSERT_BEFORE,,AUTO
         1 001210   001176 605000 1                  TPL     s:5957

     2965     5959    4                 XLATE_ENTRY$ = ADDR(CURR$TABLE.XLATES (INSERT_BEFORE));

   5959  1 001211   200044 236100                    LDQ     INSERT_BEFORE,,AUTO
         1 001212   000025 736000                    QLS     21
         1 001213   000017 036003                    ADLQ    15,DU
         1 001214   200040 036100                    ADLQ    CURR_TABLE$,,AUTO
         1 001215   200045 756100                    STQ     XLATE_ENTRY$,,AUTO
PL6.E3A0      #018=VDG$XLATE_LOCATIONS File=VDG$UTILITY.:VDA5TSI                 FRI 07/04/97 11:25 Page:453

     2966     5960    4                 CURR$TABLE.N_ENTRIES# = CURR$TABLE.N_ENTRIES# + 1;

   5960  1 001216   200040 470500                    LDP0    CURR_TABLE$,,AUTO
         1 001217   000001 220100                    LDX0    1,,PR0
         1 001220   000001 621010                    EAX1    1,X0
         1 001221   000001 741100                    STX1    1,,PR0

     2967     5961    4                 END;

     2968     5962
     2969     5963                   %COPYKEY (FKEY=CANDIDATE.KEY, FINDX=LEVEL-1,
     2970     5964                   TKEY=XLATE$ENTRY.OLD_KEY_LO);

   5977  1 001222   200013 235100                    LDA     LEVEL,,AUTO
         1 001223   000003 735000                    ALS     3
         1 001224   200037 470500                    LDP0    @CANDIDATE,,AUTO
         1 001225   200045 471500                    LDP1    XLATE_ENTRY$,,AUTO
         1 001226   000100 100505                    MLR     fill='000'O
         1 001227   077776 000010                    ADSC9   -2,A,PR0                 cn=0,n=8
         1 001230   100000 000010                    ADSC9   0,,PR1                   cn=0,n=8

   5977  1 001231   200013 235100                    LDA     LEVEL,,AUTO
         1 001232   000001 735000                    ALS     1
         1 001233   077776 720105                    LXL0    -2,AL,PR0
         1 001234   000002 100003                    CMPX0   2,DU
         1 001235   001251 601000 1                  TNZ     s:5994

   5977  1 001236   077777 473505                    LDP3    -1,AL,PR0
         1 001237   000001 036003                    ADLQ    1,DU
         1 001240   200055 756100                    STQ     RANGE_END+3,,AUTO
         1 001241   200054 453500                    STP3    RANGE_END+2,,AUTO
         1 001242   200054 630500                    EPPR0   RANGE_END+2,,AUTO
         1 001243   000020 631400 xsym               EPPR1   B_VECTNIL+16
         1 001244   000000 701000 xent               TSX1    VDG$OCOPY
         1 001245   001247 702000 1                  TSX2    s:5978
         1 001246   001251 710000 1                  TRA     s:5994
PL6.E3A0      #018=VDG$XLATE_LOCATIONS File=VDG$UTILITY.:VDA5TSI                 FRI 07/04/97 11:25 Page:454

   5978  1 001247   200036 221300                    LDX1  ! BLOCK_KEY$+1,,AUTO
         1 001250   000000 702211                    TSX2  ! 0,X1

     2971     5980                   %COPYKEY (FKEY=XLATE$ENTRY.OLD_KEY_LO,
     2972     5981                   TKEY=XLATE$ENTRY.OLD_KEY_HI);

   5994  1 001251   200045 470500                    LDP0    XLATE_ENTRY$,,AUTO
         1 001252   000100 100500                    MLR     fill='000'O
         1 001253   000000 000010                    ADSC9   0,,PR0                   cn=0,n=8
         1 001254   000002 000010                    ADSC9   2,,PR0                   cn=0,n=8

   5994  1 001255   000000 720100                    LXL0    0,,PR0
         1 001256   000002 100003                    CMPX0   2,DU
         1 001257   001274 601000 1                  TNZ     s:6011

   5994  1 001260   000001 471500                    LDP1    1,,PR0
         1 001261   200045 236100                    LDQ     XLATE_ENTRY$,,AUTO
         1 001262   000003 036003                    ADLQ    3,DU
         1 001263   200055 756100                    STQ     RANGE_END+3,,AUTO
         1 001264   200054 451500                    STP1    RANGE_END+2,,AUTO
         1 001265   200054 630500                    EPPR0   RANGE_END+2,,AUTO
         1 001266   000020 631400 xsym               EPPR1   B_VECTNIL+16
         1 001267   000000 701000 xent               TSX1    VDG$OCOPY
         1 001270   001272 702000 1                  TSX2    s:5995
         1 001271   001274 710000 1                  TRA     s:6011

   5995  1 001272   200036 221300                    LDX1  ! BLOCK_KEY$+1,,AUTO
         1 001273   000000 702211                    TSX2  ! 0,X1

     2973     5997                   %COPYKEY (FKEY=XLATE$ENTRY.OLD_KEY_LO,
     2974     5998                   TKEY=XLATE$ENTRY.NEW_KEY);

   6011  1 001274   200045 470500                    LDP0    XLATE_ENTRY$,,AUTO
         1 001275   000100 100500                    MLR     fill='000'O
         1 001276   000000 000010                    ADSC9   0,,PR0                   cn=0,n=8
         1 001277   000005 000010                    ADSC9   5,,PR0                   cn=0,n=8
PL6.E3A0      #018=VDG$XLATE_LOCATIONS File=VDG$UTILITY.:VDA5TSI                 FRI 07/04/97 11:25 Page:455

   6011  1 001300   000000 720100                    LXL0    0,,PR0
         1 001301   000002 100003                    CMPX0   2,DU
         1 001302   001317 601000 1                  TNZ     s:6014

   6011  1 001303   000001 471500                    LDP1    1,,PR0
         1 001304   200045 236100                    LDQ     XLATE_ENTRY$,,AUTO
         1 001305   000006 036003                    ADLQ    6,DU
         1 001306   200055 756100                    STQ     RANGE_END+3,,AUTO
         1 001307   200054 451500                    STP1    RANGE_END+2,,AUTO
         1 001310   200054 630500                    EPPR0   RANGE_END+2,,AUTO
         1 001311   000020 631400 xsym               EPPR1   B_VECTNIL+16
         1 001312   000000 701000 xent               TSX1    VDG$OCOPY
         1 001313   001315 702000 1                  TSX2    s:6012
         1 001314   001317 710000 1                  TRA     s:6014

   6012  1 001315   200036 221300                    LDX1  ! BLOCK_KEY$+1,,AUTO
         1 001316   000000 702211                    TSX2  ! 0,X1

     2975     6014    3              XLATE$ENTRY.OLD_POS_HI# = -1; /* Indicate rekey operation */

   6014  1 001317   777777 220003                    LDX0    -1,DU
         1 001320   200045 470500                    LDP0    XLATE_ENTRY$,,AUTO
         1 001321   000004 440100                    SXL0    4,,PR0
         1 001322   001506 710000 1                  TRA     s:6085

     2976     6015
     2977     6016
     2978     6017
     2979     6018    3            CASE (%XLATE_LOCATION);

     2980     6019    3              IF CURR_TABLE$ = ADDR(NIL) THEN

   6019  1 001323   200040 236100                    LDQ     CURR_TABLE$,,AUTO
         1 001324   000001 116000 xsym               CMPQ    B_VECTNIL+1
         1 001325   001330 601000 1                  TNZ     s:6024

PL6.E3A0      #018=VDG$XLATE_LOCATIONS File=VDG$UTILITY.:VDA5TSI                 FRI 07/04/97 11:25 Page:456
     2981     6020    3                 RETURN;   /* No matching entry:  do nothing */

   6020  1 001326   200036 221300                    LDX1  ! BLOCK_KEY$+1,,AUTO
         1 001327   000001 702211                    TSX2  ! 1,X1

     2982     6021                   /*
     2983     6022                   * Locations before the affected area are unchanged.
     2984     6023                   */
     2985     6024    3              IF CAND$KEY.BYTES = XLATE$KEY_LO.BYTES

   6024  1 001330   200042 471500                    LDP1    CAND_KEY$,,AUTO
         1 001331   100000 236100                    LDQ     0,,PR1
         1 001332   000033 772000                    QRL     27
         1 001333   200046 473500                    LDP3    XLATE_KEY_LO$,,AUTO
         1 001334   000000 620006                    EAX0    0,QL
         1 001335   300000 236100                    LDQ     0,,PR3
         1 001336   000033 772000                    QRL     27
         1 001337   000000 621006                    EAX1    0,QL
         1 001340   040140 106540                    CMPC    fill='040'O
         1 001341   100000 200010                    ADSC9   0,,PR1                   cn=1,n=*X0
         1 001342   300000 200011                    ADSC9   0,,PR3                   cn=1,n=*X1
         1 001343   001371 601000 1                  TNZ     s:6037
         1 001344   200037 474500                    LDP4    @CANDIDATE,,AUTO
         1 001345   400010 222100                    LDX2    8,,PR4
         1 001346   200045 475500                    LDP5    XLATE_ENTRY$,,AUTO
         1 001347   500004 102100                    CMPX2   4,,PR5
         1 001350   001367 604000 1                  TMI     s:6032
         1 001351   001371 601000 1                  TNZ     s:6037
         1 001352   500004 723100                    LXL3    4,,PR5
         1 001353   400010 103100                    CMPX3   8,,PR4
         1 001354   001371 601000 1                  TNZ     s:6037
         1 001355   200047 476500                    LDP6    XLATE_KEY_HI$,,AUTO
         1 001356   600000 236100                    LDQ     0,,PR6
         1 001357   000033 772000                    QRL     27
         1 001360   000000 624006                    EAX4    0,QL
         1 001361   040140 106540                    CMPC    fill='040'O
         1 001362   100000 200010                    ADSC9   0,,PR1                   cn=1,n=*X0
PL6.E3A0      #018=VDG$XLATE_LOCATIONS File=VDG$UTILITY.:VDA5TSI                 FRI 07/04/97 11:25 Page:457
         1 001363   600000 200014                    ADSC9   0,,PR6                   cn=1,n=*X4
         1 001364   001371 601000 1                  TNZ     s:6037
         1 001365   200052 234100                    SZN     RANGE_END,,AUTO
         1 001366   001371 605000 1                  TPL     s:6037

     2986     6025    3                AND (CANDIDATE.POSITION# < XLATE$ENTRY.OLD_POS_LO#
     2987     6026                   /*
     2988     6027                   * As are range end points at the point of an insertion.
     2989     6028                   */
     2990     6029    3                OR CANDIDATE.POSITION# = XLATE$ENTRY.OLD_POS_LO#
     2991     6030    3                AND CANDIDATE.POSITION# = XLATE$ENTRY.OLD_POS_HI#
     2992     6031    3                AND CAND$KEY.BYTES = XLATE$KEY_HI.BYTES AND RANGE_END) THEN
     2993     6032    3                 RETURN;  /* Don't do any translation */

   6032  1 001367   200036 221300                    LDX1  ! BLOCK_KEY$+1,,AUTO
         1 001370   000001 702211                    TSX2  ! 1,X1

     2994     6033                   /*
     2995     6034                   * If we moved the start of a range, make sure we move the
     2996     6035                   * the end using the same rules.
     2997     6036                   */
     2998     6037    3              RANGE_END = '1'B;

   6037  1 001371   400000 236003                    LDQ     -131072,DU
         1 001372   200052 756100                    STQ     RANGE_END,,AUTO

     2999     6038
     3000     6039                   /*
     3001     6040                   * Interior locations should all collapse to the new location.
     3002     6041                   */
     3003     6042    3              IF CAND$KEY.BYTES < XLATE$KEY_HI.BYTES THEN

   6042  1 001373   200047 474500                    LDP4    XLATE_KEY_HI$,,AUTO
         1 001374   400000 236100                    LDQ     0,,PR4
         1 001375   000033 772000                    QRL     27
         1 001376   000000 622006                    EAX2    0,QL
         1 001377   040140 106540                    CMPC    fill='040'O
PL6.E3A0      #018=VDG$XLATE_LOCATIONS File=VDG$UTILITY.:VDA5TSI                 FRI 07/04/97 11:25 Page:458
         1 001400   100000 200010                    ADSC9   0,,PR1                   cn=1,n=*X0
         1 001401   400000 200012                    ADSC9   0,,PR4                   cn=1,n=*X2
         1 001402   001406 603000 1                  TRC     s:6051

     3004     6043    3                 CANDIDATE.POSITION# = 0;

   6043  1 001403   000000 223003                    LDX3    0,DU
         1 001404   200037 475500                    LDP5    @CANDIDATE,,AUTO
         1 001405   500010 743100                    STX3    8,,PR5

     3005     6044                   %CLEARKEY (KEY=CANDIDATE.KEY, INDX=LEVEL-1);

   6051  1 001406   200013 235100                    LDA     LEVEL,,AUTO
         1 001407   000001 735000                    ALS     1
         1 001410   200037 475500                    LDP5    @CANDIDATE,,AUTO
         1 001411   577776 720105                    LXL0    -2,AL,PR5
         1 001412   000002 100003                    CMPX0   2,DU
         1 001413   001425 601000 1                  TNZ     s:6052+2

   6051  1 001414   577777 476505                    LDP6    -1,AL,PR5
         1 001415   200054 456500                    STP6    RANGE_END+2,,AUTO
         1 001416   200054 630500                    EPPR0   RANGE_END+2,,AUTO
         1 001417   000017 631400 xsym               EPPR1   B_VECTNIL+15
         1 001420   000000 701000 xent               TSX1    VDG$OFREE
         1 001421   001423 702000 1                  TSX2    s:6052
         1 001422   001425 710000 1                  TRA     s:6052+2

   6052  1 001423   200036 221300                    LDX1  ! BLOCK_KEY$+1,,AUTO
         1 001424   000000 702211                    TSX2  ! 0,X1

   6052  1 001425   200013 235100                    LDA     LEVEL,,AUTO
         1 001426   000001 735000                    ALS     1
         1 001427   200037 470500                    LDP0    @CANDIDATE,,AUTO
         1 001430   077776 450105                    STZ     -2,AL,PR0
         1 001431   077777 450105                    STZ     -1,AL,PR0

     3006     6054                   %COPYKEY (FKEY=XLATE$ENTRY.NEW_KEY, TKEY=CANDIDATE.KEY,
PL6.E3A0      #018=VDG$XLATE_LOCATIONS File=VDG$UTILITY.:VDA5TSI                 FRI 07/04/97 11:25 Page:459
     3007     6055                   TINDX=LEVEL-1);

   6068  1 001432   000002 735000                    ALS     2
         1 001433   200045 471500                    LDP1    XLATE_ENTRY$,,AUTO
         1 001434   000105 100500                    MLR     fill='000'O
         1 001435   100005 000010                    ADSC9   5,,PR1                   cn=0,n=8
         1 001436   077776 000010                    ADSC9   -2,A,PR0                 cn=0,n=8

   6068  1 001437   100005 720100                    LXL0    5,,PR1
         1 001440   000002 100003                    CMPX0   2,DU
         1 001441   001460 601000 1                  TNZ     s:6072

   6068  1 001442   100006 473500                    LDP3    6,,PR1
         1 001443   200013 236100                    LDQ     LEVEL,,AUTO
         1 001444   000023 736000                    QLS     19
         1 001445   000001 136003                    SBLQ    1,DU
         1 001446   200037 036100                    ADLQ    @CANDIDATE,,AUTO
         1 001447   200055 756100                    STQ     RANGE_END+3,,AUTO
         1 001450   200054 453500                    STP3    RANGE_END+2,,AUTO
         1 001451   200054 630500                    EPPR0   RANGE_END+2,,AUTO
         1 001452   000020 631400 xsym               EPPR1   B_VECTNIL+16
         1 001453   000000 701000 xent               TSX1    VDG$OCOPY
         1 001454   001456 702000 1                  TSX2    s:6069
         1 001455   001460 710000 1                  TRA     s:6072

   6069  1 001456   200036 221300                    LDX1  ! BLOCK_KEY$+1,,AUTO
         1 001457   000000 702211                    TSX2  ! 0,X1

     3008     6071
     3009     6072    3              IF CANDIDATE.POSITION# <= XLATE$ENTRY.OLD_POS_HI# THEN

   6072  1 001460   200045 470500                    LDP0    XLATE_ENTRY$,,AUTO
         1 001461   000004 720100                    LXL0    4,,PR0
         1 001462   200037 471500                    LDP1    @CANDIDATE,,AUTO
         1 001463   100010 100100                    CMPX0   8,,PR1
         1 001464   001470 604000 1                  TMI     s:6075

PL6.E3A0      #018=VDG$XLATE_LOCATIONS File=VDG$UTILITY.:VDA5TSI                 FRI 07/04/97 11:25 Page:460
     3010     6073    3                 CANDIDATE.POSITION# = XLATE$ENTRY.NEW_POS#;

   6073  1 001465   000007 221100                    LDX1    7,,PR0
         1 001466   100010 741100                    STX1    8,,PR1
         1 001467   001506 710000 1                  TRA     s:6085

     3011     6074    3              ELSE
     3012     6075    3                 CANDIDATE.POSITION# = CANDIDATE.POSITION# +

   6075  1 001470   000007 236100                    LDQ     7,,PR0
         1 001471   000022 736000                    QLS     18
         1 001472   000022 732000                    QRS     18
         1 001473   200054 756100                    STQ     RANGE_END+2,,AUTO
         1 001474   100010 236100                    LDQ     8,,PR1
         1 001475   000022 732000                    QRS     18
         1 001476   200054 036100                    ADLQ    RANGE_END+2,,AUTO
         1 001477   000000 620006                    EAX0    0,QL
         1 001500   100010 740100                    STX0    8,,PR1
         1 001501   001506 710000 1                  TRA     s:6085

     3013     6076    3                   XLATE$ENTRY.NEW_POS_INCR#;
     3014     6077
     3015     6078
     3016     6079
     3017     6080    3            CASE (ELSE);

     3018     6081    3              CALL VDG$ESCREECH (ACTION);

   6081  1 001502   200004 630500                    EPPR0   @ACTION,,AUTO
         1 001503   000017 631400 xsym               EPPR1   B_VECTNIL+15
         1 001504   000000 701000 xent               TSX1    VDG$ESCREECH
         1 001505   000000 011000                    NOP     0

     3019     6082    3            END;

     3020     6083
     3021     6084
PL6.E3A0      #018=VDG$XLATE_LOCATIONS File=VDG$UTILITY.:VDA5TSI                 FRI 07/04/97 11:25 Page:461
     3022     6085    2           RETURN;

   6085  1 001506   200036 221300                    LDX1  ! BLOCK_KEY$+1,,AUTO
         1 001507   000001 702211                    TSX2  ! 1,X1

   6080  1 001510                       OALLOC_FAIL* null
     3023     6086
     3024     6087
     3025     6088
     3026     6089    2   OALLOC_FAILED: ;
     3027     6090    2           ALTRETURN;

   6090  1 001510   200036 221300                    LDX1  ! BLOCK_KEY$+1,,AUTO
         1 001511   000000 702211                    TSX2  ! 0,X1
     3028     6091
     3029     6092    2   END CANDIDATE_LOCATION;
     3030     6093
     3031     6094    1   END VDG$XLATE_LOCATIONS;

PL6.E3A0      #018=VDG$XLATE_LOCATIONS File=VDG$UTILITY.:VDA5TSI                 FRI 07/04/97 11:25 Page:462
--  Include file information  --

   VD_MACROS_M.:VDA5TOU  is referenced.
   B$JIT_C.:E04TOU  was found in the system file and is never referenced.
   CP_6_C.:E04TOU  was found in the system file and is never referenced.
      No diagnostics issued in procedure VDG$XLATE_LOCATIONS.
PL6.E3A0      #018=VDG$XLATE_LOCATIONS File=VDG$UTILITY.:VDA5TSI                 FRI 07/04/97 11:25 Page:463

 **** Variables and constants ****

  ****  Section 000 RoData VDG$XLATE_LOCATIONS

  ****  Scalars and arrays  ****
OctLoc.c.b A Datatyp(siz) R M Lvl/name                 OctLoc.c.b A Datatyp(siz) R M Lvl/name

     0-0-0/w STRC(396)   r     1 ABSOLUTE_EOF

  ****  Auto variables  ****

  ****  Scalars and arrays  ****
OctLoc.c.b A Datatyp(siz) R M Lvl/name                 OctLoc.c.b A Datatyp(siz) R M Lvl/name

     4-0-0/w PTR         r     1 @ACTION                   33-0-0/w PTR         r     1 @BLOCK_DESC
    37-0-0/w PTR         r     1 @CANDIDATE                33-0-0/w PTR         r     1 @EVAL
    27-0-0/w PTR         r     1 @OPERAND                   3-0-0/w PTR         r     1 @XLATE_LOCATIONS
    *0-0-0/w SBIN        r     1 ACTION                    *0-0-0/w STRC(936)   r     1 BLOCK_DESC
    24-0-0/w BIT         r     1 BLOCK_IS_CANDIDATE        35-0-0/w PTR         r     1 BLOCK_KEY$
    *0-0-0/w STRC(324)   r     1 CANDIDATE                 42-0-0/w PTR         r     1 CAND_KEY$
    40-0-0/w PTR         r     1 CURR_TABLE$               *0-0-0/w STRC(2124)  r     1 EVAL
    43-0-0/w SBIN        r     1 INDX                      44-0-0/w SBIN        r     1 INSERT_BEFORE
    14-0-0/w PTR         r     1 L0_NODE$                  15-0-0/w PTR         r     1 L1_NODE$
    16-0-0/w PTR         r     1 L2_NODE$                  13-0-0/w SBIN        r     1 LEVEL
    34-0-0/w SBIN        r     1 LEVEL                     17-0-0/w PTR         r     1 NAME_DATA$
    20-0-0/w PTR         r     1 NAME_DESC$                *0-0-0/w STRC(144)   r     1 OPERAND
     5-0-0/w PTR         r     1 PREFIX_KEY$(0:5)
    41-0-0/w PTR         r     1 PREV_TABLE$               52-0-0/b BIT         r     1 RANGE_END
    25-0-0/w BIT         r     1 SOURCE_STRING_OPERAND
    50-0-0/w PTR         r     1 SPLIT_TABLE$              23-0-0/w PTR         r     1 THIS_EVAL$
    31-0-0/w PTR         r     1 THIS_EVAL$                30-0-0/w PTR         r     1 THIS_WILD$
    51-0-0/w SBIN        r     1 VAR_LEN                   22-0-0/w PTR         r     1 WINDOW_BLOCK$
    21-0-0/w PTR         r     1 WINDOW_SPEC$              45-0-0/w PTR         r     1 XLATE_ENTRY$
    47-0-0/w PTR         r     1 XLATE_KEY_HI$             46-0-0/w PTR         r     1 XLATE_KEY_LO$
    *0-0-0/w STRC(828)   r     1 XLATE_LOCATIONS

  ****  SYMREF variables  ****
PL6.E3A0      #018=VDG$XLATE_LOCATIONS File=VDG$UTILITY.:VDA5TSI                 FRI 07/04/97 11:25 Page:464

  ****  Scalars and arrays  ****
OctLoc.c.b A Datatyp(siz) R M Lvl/name                 OctLoc.c.b A Datatyp(siz) R M Lvl/name

     0-0-0/w STRC(22644) r     1 VD_6E

  ****  BASED and DCB variables  ****

  ****  Scalars and arrays  ****
OctLoc.c.b A Datatyp(siz) R M Lvl/name                 OctLoc.c.b A Datatyp(siz) R M Lvl/name

     0-0-0/w ASTR(9)     r     1 BLOCK$KEY                  0-0-0/w ASTR(9)     r     1 CAND$KEY
     0-0-0/w STRC(828)   r     1 CURR$TABLE                 0-0-0/w STRC(468)   r     1 L0$NODE
     0-0-0/w STRC(468)   r     1 L1$NODE                    0-0-0/w STRC(468)   r     1 L2$NODE
     0-0-0/w STRC        r     1 NAME$DATA                  0-0-0/w ASTR(90)    r     1 NAME$DATA_BUFFER
     0-0-0/w STRC(144)   r     1 NAME$DATA_POINTER          0-0-0/w STRC(936)   r     1 NAME$DESC
     0-0-0/w STRC(828)   r     1 PREV$TABLE                 0-0-0/w STRC(828)   r     1 SPLIT$TABLE
     0-0-0/w STRC(2124)  r     1 THIS$EVAL                  0-0-0/w STRC(2124)  r     1 THIS$EVAL
     0-0-0/c ACHR        r     1 VAR$LEN                    0-0-0/w STRC(936)   r     1 VD$BLOCK_DESC
     0-0-0/w STRC(1944)  r     1 VD$PORT                    0-0-0/w STRC(864)   r     1 VD$STREAM
     0-0-0/w ASTR(9)     r     1 VD$TEXTC                   0-0-0/w ASTR(81)    r     1 VD$TEXTC_REMOTE
     0-0-0/w STRC(792)   r     1 VD$WILD_STRINGS            0-0-0/w STRC(792)   r     1 WILD
     0-0-0/w STRC(180)   r     1 WINDOW$BLOCK               0-0-0/w STRC(900)   r     1 WINDOW$SPEC
     0-0-0/w STRC(288)   r     1 XLATE$ENTRY                0-0-0/w ASTR(9)     r     1 XLATE$KEY_HI
     0-0-0/w ASTR(9)     r     1 XLATE$KEY_LO


   Procedure VDG$XLATE_LOCATIONS requires 842 words for executable code.
   Procedure VDG$XLATE_LOCATIONS requires 48 words of local(AUTO) storage.

    No errors detected in file VDG$UTILITY.:VDA5TSI    .
PL6.E3A0      #018=VDG$XLATE_LOCATIONS File=VDG$UTILITY.:VDA5TSI                 FRI 07/04/97 11:25 Page:465
          *** CROSS REFERENCE LISTING ***
**     DENOTES     IDENTIFIER DEFINITION
<<                 IDENTIFIER'S VALUE SET
>>                 IDENTIFIER'S VALUE USED
<>                 IDENTIFIER SET AND/OR USED
--                 IDENTIFIER REFERENCED
PL6.E3A0      #018=VDG$XLATE_LOCATIONS File=VDG$UTILITY.:VDA5TSI                 FRI 07/04/97 11:25 Page:466
          MINI XREF LISTING

ABSOLUTE_EOF
      2517**DCL      3903<>CALL
ACTION
      2458**DCL       103--PROC     3899>>IF       5893>>IF       5906>>DOCASE   6081<>CALL
BEGIN IN PROCEDURE CANDIDATE_LOCATION
      5845**LABEL    5841--GOTO
BLOCK$KEY.BYTES IN PROCEDURE EXAMINE_BLOCK_DESC
      4841**DCL      4861>>IF       4881>>IF
BLOCK$KEY.LENGTH# IN PROCEDURE EXAMINE_BLOCK_DESC
      4839**DCL      4841--IMP-SIZ  4861>>IF       4881>>IF
BLOCK_DESC IN PROCEDURE EXAMINE_BLOCK_DESC
      4678**DCL      4668--PROC
BLOCK_DESC.FILE_KEY.REP# IN PROCEDURE EXAMINE_BLOCK_DESC
      4716**DCL      4858>>IF
BLOCK_DESC.FILE_KEY.V$ IN PROCEDURE EXAMINE_BLOCK_DESC
      4716**DCL      4858>>ASSIGN   4858--ASSIGN
BLOCK_DESC.RANGE.ENDD IN PROCEDURE EXAMINE_BLOCK_DESC
      4768**DCL      4889<>CALL
BLOCK_DESC.RANGE.START IN PROCEDURE EXAMINE_BLOCK_DESC
      4740**DCL      4887<>CALL
BLOCK_DESC.RANGE.START.EOF IN PROCEDURE EXAMINE_BLOCK_DESC
      4756**DCL      4861>>IF
BLOCK_DESC.RANGE.START.KEY IN PROCEDURE EXAMINE_BLOCK_DESC
      4752**DCL      4861>>IF       4868>>IF
BLOCK_DESC.RANGE.START.KEY.REP# IN PROCEDURE EXAMINE_BLOCK_DESC
      4754**DCL      4878>>IF
BLOCK_DESC.RANGE.START.KEY.V$ IN PROCEDURE EXAMINE_BLOCK_DESC
      4754**DCL      4878>>ASSIGN   4878--ASSIGN
BLOCK_IS_CANDIDATE
      2558**DCL      3987>>IF       4557>>IF       4849<<ASSIGN   4885<<ASSIGN
BLOCK_KEY$ IN PROCEDURE EXAMINE_BLOCK_DESC
      4820**DCL      4831--IMP-PTR  4858<<ASSIGN   4858<<ASSIGN   4861>>IF       4861>>IF       4878<<ASSIGN
PL6.E3A0      #018=VDG$XLATE_LOCATIONS File=VDG$UTILITY.:VDA5TSI                 FRI 07/04/97 11:25 Page:467
      4878<<ASSIGN   4881>>IF       4881>>IF
CAND$KEY.BYTES IN PROCEDURE CANDIDATE_LOCATION
      5650**DCL      5890>>IF       5890>>IF       5893>>IF       6024>>IF       6024>>IF       6042>>IF
CAND$KEY.LENGTH# IN PROCEDURE CANDIDATE_LOCATION
      5648**DCL      5650--IMP-SIZ  5890>>IF       5890>>IF       5893>>IF       6024>>IF       6024>>IF
      6042>>IF
CANDIDATE IN PROCEDURE CANDIDATE_LOCATION
      5268**DCL      5258--PROC     5843--ENTRY
CANDIDATE.EOF IN PROCEDURE CANDIDATE_LOCATION
      5286**DCL      5848>>IF
CANDIDATE.KEY IN PROCEDURE CANDIDATE_LOCATION
      5282**DCL      5977>>ASSIGN   6052<<ASSIGN   6068<<ASSIGN
CANDIDATE.KEY.REP# IN PROCEDURE CANDIDATE_LOCATION
      5284**DCL      5860>>IF       5977>>IF       6051>>IF
CANDIDATE.KEY.V$ IN PROCEDURE CANDIDATE_LOCATION
      5284**DCL      5860>>ASSIGN   5860--ASSIGN   5977>>CALL     5977>>CALL     6051>>CALL     6051>>CALL
      6068<>CALL
CANDIDATE.POSITION# IN PROCEDURE CANDIDATE_LOCATION
      5286**DCL      6024>>IF       6024>>IF       6024>>IF       6043<<ASSIGN   6072>>IF       6073<<ASSIGN
      6075<<ASSIGN   6075>>ASSIGN
CANDIDATE_LOCATION
      5258**PROC     4592--CALL     4887--CALL     5193--CALL     5197--CALL
CANDIDATE_LOCATION_END IN PROCEDURE CANDIDATE_LOCATION
      5843**ENTRY    4594--CALL     4889--CALL     5195--CALL     5199--CALL
CANDIDATE_LOCATION_FAILED IN PROCEDURE EXAMINE_BLOCK_DESC
      4885**LABEL    4887--CALLALT  4889--CALLALT
CANDIDATE_LOCATION_FAILED IN PROCEDURE EXAMINE_EVAL
      5205**LABEL    5193--CALLALT  5195--CALLALT  5197--CALLALT  5199--CALLALT
CANDIDATE_LOCATION_FAILED IN PROCEDURE EXAMINE_OPERAND
      4590**LABEL    4592--CALLALT  4594--CALLALT
CAND_KEY$ IN PROCEDURE CANDIDATE_LOCATION
      5292**DCL      5640--IMP-PTR  5860<<ASSIGN   5860<<ASSIGN   5890>>IF       5890>>IF       5890>>IF
      5890>>IF       5893>>IF       5893>>IF       6024>>IF       6024>>IF       6024>>IF       6024>>IF
      6042>>IF       6042>>IF
CURR$TABLE IN PROCEDURE CANDIDATE_LOCATION
      5310**DCL      5925--CALL     5938--CALL
PL6.E3A0      #018=VDG$XLATE_LOCATIONS File=VDG$UTILITY.:VDA5TSI                 FRI 07/04/97 11:25 Page:468
CURR$TABLE.FLINK$ IN PROCEDURE CANDIDATE_LOCATION
      5336**DCL      5902>>ASSIGN   5929<<ASSIGN   5942>>ASSIGN   5943<<ASSIGN   5952>>ASSIGN
CURR$TABLE.MX_ENTRIES# IN PROCEDURE CANDIDATE_LOCATION
      5336**DCL      5921>>IF       5936>>IF
CURR$TABLE.N_ENTRIES# IN PROCEDURE CANDIDATE_LOCATION
      5336**DCL      5868>>DOINDEX  5921>>IF       5932>>ASSIGN   5933<<ASSIGN   5933>>ASSIGN   5936>>IF
      5944>>ASSIGN   5948<<ASSIGN   5948>>ASSIGN   5950>>IF       5951>>ASSIGN   5956>>DOINDEX  5960<<ASSIGN
      5960>>ASSIGN
CURR$TABLE.XLATES IN PROCEDURE CANDIDATE_LOCATION
      5391**DCL      5869--ASSIGN   5925--CALL     5932--ASSIGN   5938--CALL     5945--ASSIGN   5946--ASSIGN
      5957<<ASSIGN   5957>>ASSIGN   5959--ASSIGN
CURR_TABLE$ IN PROCEDURE CANDIDATE_LOCATION
      5290**DCL      5310--IMP-PTR  5851<<ASSIGN   5865>>DOWHILE  5868>>DOINDEX  5869>>ASSIGN   5901>>ASSIGN
      5902<<ASSIGN   5902>>ASSIGN   5908>>IF       5917>>IF       5918<<ASSIGN   5919>>IF       5920<<ASSIGN
      5921>>IF       5921>>IF       5924>>ASSIGN   5925<>CALL     5929>>ASSIGN   5930>>ASSIGN   5932>>ASSIGN
      5932>>ASSIGN   5933>>ASSIGN   5933>>ASSIGN   5936>>IF       5936>>IF       5942>>ASSIGN   5943>>ASSIGN
      5944>>ASSIGN   5946>>ASSIGN   5948>>ASSIGN   5948>>ASSIGN   5950>>IF       5951>>ASSIGN   5952<<ASSIGN
      5952>>ASSIGN   5956>>DOINDEX  5957>>ASSIGN   5957>>ASSIGN   5959>>ASSIGN   5960>>ASSIGN   5960>>ASSIGN
      6019>>IF
EACH_TABLE_IN_CHAIN IN PROCEDURE CANDIDATE_LOCATION
      5865**LABEL    5892--EXIT     5897--EXIT
EVAL IN PROCEDURE EXAMINE_EVAL
      4953**DCL      4943--PROC
EVAL.ENCLOSING.ENDD IN PROCEDURE EXAMINE_EVAL
      5030**DCL      5195<>CALL
EVAL.ENCLOSING.START IN PROCEDURE EXAMINE_EVAL
      5002**DCL      5193<>CALL
EVAL.RANGE.ENDD IN PROCEDURE EXAMINE_EVAL
      5099**DCL      5199<>CALL
EVAL.RANGE.START IN PROCEDURE EXAMINE_EVAL
      5071**DCL      5197<>CALL
EXAMINE_BLOCK_DESC
      4668**PROC     3954--CALL     3982--CALL     4554--CALL
EXAMINE_BLOCK_DESC_FAILED
      3992**LABEL    3954--CALLALT  3982--CALLALT
EXAMINE_BLOCK_DESC_FAILED IN PROCEDURE EXAMINE_OPERAND
PL6.E3A0      #018=VDG$XLATE_LOCATIONS File=VDG$UTILITY.:VDA5TSI                 FRI 07/04/97 11:25 Page:469
      4604**LABEL    4554--CALLALT
EXAMINE_EVAL
      4943**PROC     3989--CALL     4569--CALL
EXAMINE_EVAL_FAILED
      3992**LABEL    3989--CALLALT
EXAMINE_EVAL_FAILED IN PROCEDURE EXAMINE_OPERAND
      4604**LABEL    4569--CALLALT
EXAMINE_OPERAND
      4052**PROC     3932--CALL     3972--CALL
EXAMINE_OPERAND_FAILED
      3992**LABEL    3932--CALLALT  3972--CALLALT
INDX IN PROCEDURE CANDIDATE_LOCATION
      5293**DCL      5868<<DOINDEX  5869>>ASSIGN   5896>>ASSIGN   5956<<DOINDEX  5957>>ASSIGN   5957>>ASSIGN
INSERT_BEFORE IN PROCEDURE CANDIDATE_LOCATION
      5294**DCL      5852<<ASSIGN   5896<<ASSIGN   5908>>IF       5946>>ASSIGN   5950>>IF       5951<<ASSIGN
      5951>>ASSIGN   5956>>DOINDEX  5959>>ASSIGN
L0$NODE.HEAD$
      2653**DCL      3939>>ASSIGN   3966>>ASSIGN
L0_NODE$
      2550**DCL      2570--IMP-PTR  3935<<ASSIGN   3938>>IF       3939>>ASSIGN   3962<<ASSIGN   3965>>IF
      3966>>ASSIGN
L1$NODE.DESC.DATA$
      2744**DCL      3943>>ASSIGN
L1$NODE.DESC.SPEC.V$
      2742**DCL      3970>>ASSIGN
L1$NODE.FLINK$
      2689**DCL      3958>>ASSIGN   3998>>ASSIGN
L1$NODE.HEAD$
      2746**DCL      3976>>ASSIGN
L1_NODE$
      2551**DCL      2663--IMP-PTR  3937<<ASSIGN   3939<<ASSIGN   3942>>DOWHILE  3943>>ASSIGN   3958<<ASSIGN
      3958>>ASSIGN   3964<<ASSIGN   3966<<ASSIGN   3969>>DOWHILE  3970>>ASSIGN   3976>>ASSIGN   3998<<ASSIGN
      3998>>ASSIGN
L2$NODE.DESC.SPEC.V$
      2835**DCL      3979>>ASSIGN
L2$NODE.FLINK$
PL6.E3A0      #018=VDG$XLATE_LOCATIONS File=VDG$UTILITY.:VDA5TSI                 FRI 07/04/97 11:25 Page:470
      2782**DCL      3995>>ASSIGN
L2_NODE$
      2552**DCL      2756--IMP-PTR  3976<<ASSIGN   3978>>DOWHILE  3979>>ASSIGN   3995<<ASSIGN   3995>>ASSIGN
LEVEL
      2549**DCL      3918<<DOINDEX  3927>>IF       3927>>ASSIGN   3927>>ASSIGN   3927>>ASSIGN   3927>>ASSIGN
      5860>>IF       5860>>ASSIGN   5860>>ASSIGN   5977>>ASSIGN   5977>>IF       5977>>CALL     5977>>CALL
      6051>>IF       6051>>CALL     6051>>CALL     6052>>ASSIGN   6068>>ASSIGN   6068>>CALL
LEVEL IN PROCEDURE EXAMINE_BLOCK_DESC
      4819**DCL      4867<<DOINDEX  4868>>IF       4878>>IF       4878>>ASSIGN   4878>>ASSIGN   4881>>IF
      4881>>IF
LREAD_FAILED
      3992**LABEL    3903--CALLALT
NAME$DATA.CLASS#
      2861**DCL      3945>>DOCASE   3951<>CALL
NAME$DATA_BUFFER.BYTES
      2961**DCL      3949--ASSIGN
NAME$DATA_BUFFER.LENGTH#
      2959**DCL      2961--IMP-SIZ
NAME$DATA_POINTER.V$
      2905**DCL      3947>>ASSIGN
NAME$DESC
      2974**DCL      3954<>CALL
NAME_DATA$
      2553**DCL      2857--IMP-PTR  2879--IMP-PTR  2933--IMP-PTR  3943<<ASSIGN   3944>>IF       3945>>DOCASE
      3947>>ASSIGN   3949>>ASSIGN   3951>>CALL
NAME_DESC$
      2554**DCL      2974--IMP-PTR  3947<<ASSIGN   3949<<ASSIGN   3953>>IF       3954>>CALL
OALLOC_FAILED IN PROCEDURE CANDIDATE_LOCATION
      6080**LABEL    5925--CALLALT  5938--CALLALT
OPERAND IN PROCEDURE EXAMINE_OPERAND
      4062**DCL      4052--PROC     4558--IF
OPERAND.EDIT_BLOCK$ IN PROCEDURE EXAMINE_OPERAND
      4066**DCL      4553>>IF       4554>>CALL     4558>>IF
OPERAND.EVAL$ IN PROCEDURE EXAMINE_OPERAND
      4066**DCL      4567>>ASSIGN
PREFIX_KEY$
PL6.E3A0      #018=VDG$XLATE_LOCATIONS File=VDG$UTILITY.:VDA5TSI                 FRI 07/04/97 11:25 Page:471
      2548**DCL      3915<<ASSIGN   3915<<ASSIGN   3927<<ASSIGN   3927<<ASSIGN   4861>>IF       4861>>IF
      4881>>IF       4881>>IF
PREV$TABLE.FLINK$ IN PROCEDURE CANDIDATE_LOCATION
      5472**DCL      5929>>ASSIGN   5930<<ASSIGN
PREV_TABLE$ IN PROCEDURE CANDIDATE_LOCATION
      5291**DCL      5446--IMP-PTR  5850<<ASSIGN   5901<<ASSIGN   5918>>ASSIGN   5924<<ASSIGN   5929>>ASSIGN
      5930>>ASSIGN
RANGE_END IN PROCEDURE CANDIDATE_LOCATION
      5300**DCL      5840<<ASSIGN   5845<<ASSIGN   5845>>ASSIGN   6024>>IF       6037<<ASSIGN
SOURCE_STRING_OPERAND
      2559**DCL      4552<<ASSIGN   4560<<ASSIGN   4573>>IF       4574<<ASSIGN   5840>>ASSIGN
SPLIT$TABLE.FLINK$ IN PROCEDURE CANDIDATE_LOCATION
      5734**DCL      5942<<ASSIGN
SPLIT$TABLE.N_ENTRIES# IN PROCEDURE CANDIDATE_LOCATION
      5734**DCL      5944<<ASSIGN   5945>>ASSIGN   5948>>ASSIGN
SPLIT$TABLE.XLATES IN PROCEDURE CANDIDATE_LOCATION
      5789**DCL      5946--ASSIGN
SPLIT_TABLE$ IN PROCEDURE CANDIDATE_LOCATION
      5298**DCL      5708--IMP-PTR  5938<>CALL     5942>>ASSIGN   5943>>ASSIGN   5944>>ASSIGN   5945>>ASSIGN
      5946>>ASSIGN   5948>>ASSIGN
THIS$EVAL
      3224**DCL      3989<>CALL
THIS$EVAL.BLINK$
      3250**DCL      3991>>ASSIGN
THIS$EVAL IN PROCEDURE EXAMINE_OPERAND
      4313**DCL      4569<>CALL
THIS$EVAL.BLINK$ IN PROCEDURE EXAMINE_OPERAND
      4339**DCL      4571>>ASSIGN
THIS_EVAL$
      2557**DCL      3224--IMP-PTR  3986<<ASSIGN   3988>>DOWHILE  3989>>CALL     3991<<ASSIGN   3991>>ASSIGN
THIS_EVAL$ IN PROCEDURE EXAMINE_OPERAND
      4302**DCL      4313--IMP-PTR  4567<<ASSIGN   4568>>DOWHILE  4569>>CALL     4571<<ASSIGN   4571>>ASSIGN
THIS_WILD$ IN PROCEDURE EXAMINE_OPERAND
      4301**DCL      4198--IMP-PTR  4579<<ASSIGN   4582>>DOUNTIL  4583<<ASSIGN   4583>>ASSIGN   4590>>IF
      4592>>CALL     4594>>CALL
VAR$LEN IN PROCEDURE CANDIDATE_LOCATION
PL6.E3A0      #018=VDG$XLATE_LOCATIONS File=VDG$UTILITY.:VDA5TSI                 FRI 07/04/97 11:25 Page:472
      5837**DCL      5946<<ASSIGN   5946>>ASSIGN
VAR_LEN IN PROCEDURE CANDIDATE_LOCATION
      5299**DCL      5837--IMP-SIZ  5945<<ASSIGN   5946>>ASSIGN   5946>>ASSIGN
VD$BLOCK_DESC
      3673**DCL      3982<>CALL     4554<>CALL
VD$BLOCK_DESC.OPTIONS.STRUCTURE$
      3794**DCL      4558>>IF
VD$PORT.LEVEL.INTERNAL$
      3662**DCL      3935>>ASSIGN   3962>>ASSIGN
VD$STREAM
      3469**DCL      3903<>CALL
VD$STREAM.PORT$
      3495**DCL      3935>>ASSIGN   3962>>ASSIGN
VD$TEXTC.BYTES
      3830**DCL      4861>>IF       4881>>IF
VD$TEXTC.LENGTH#
      3828**DCL      3830--IMP-SIZ  4861>>IF       4881>>IF
VD$TEXTC_REMOTE
      3860**DCL      5977<>CALL     5994<>CALL     6011<>CALL     6051<>CALL     6068<>CALL
VD$TEXTC_REMOTE.LENGTH#
      3889**DCL      3891--IMP-SIZ  3915--ASSIGN   3927--ASSIGN   4858--ASSIGN   4878--ASSIGN   5860--ASSIGN
      5877--ASSIGN   5887--ASSIGN   5977>>CALL     5994>>CALL     6011>>CALL     6051>>CALL     6068>>CALL
VD$WILD_STRINGS.N_WILDCARDS# IN PROCEDURE EXAMINE_OPERAND
      4111**DCL      4579>>ASSIGN
VDA$LREAD
      2461**DCL-ENT  3903--CALL
VDG$ESCREECH
      2465**DCL-ENT  3951--CALL     6081--CALL
VDG$OALLOC
      2462**DCL-ENT  5925--CALL     5938--CALL
VDG$OCOPY
      2463**DCL-ENT  5977--CALL     5994--CALL     6011--CALL     6068--CALL
VDG$OFREE
      2464**DCL-ENT  6051--CALL
VD_6E.LOCATIONS$
      2481**DCL      3903>>CALL     3935>>ASSIGN
PL6.E3A0      #018=VDG$XLATE_LOCATIONS File=VDG$UTILITY.:VDA5TSI                 FRI 07/04/97 11:25 Page:473
VD_6E.SOURCE.OPERAND
      2495**DCL      3932<>CALL     4558--IF
VD_6E.STRUCTURE_SCRATCH$
      2483**DCL      4558>>IF
VD_6E.WILD_STRINGS$
      2499**DCL      4083--IMP-PTR  4579>>ASSIGN   4579>>ASSIGN   4582>>DOUNTIL
VD_6E.WINDOWS$
      2482**DCL      3962>>ASSIGN
WILD.W IN PROCEDURE EXAMINE_OPERAND
      4226**DCL      4579--ASSIGN   4583--ASSIGN
WILD.W.RANGE.ENDD IN PROCEDURE EXAMINE_OPERAND
      4278**DCL      4594<>CALL
WILD.W.RANGE.START IN PROCEDURE EXAMINE_OPERAND
      4250**DCL      4592<>CALL
WILD.W.RANGE.START.EOF IN PROCEDURE EXAMINE_OPERAND
      4266**DCL      4590>>IF
WINDOW$BLOCK.EDIT_BLOCK$
      3213**DCL      3981>>IF       3982>>CALL
WINDOW$BLOCK.EVAL$
      3213**DCL      3986>>ASSIGN
WINDOW$SPEC.OPERAND
      3160**DCL      3972<>CALL
WINDOW_BLOCK$
      2556**DCL      3187--IMP-PTR  3979<<ASSIGN   3980>>IF       3981>>IF       3982>>CALL     3986>>ASSIGN
WINDOW_SPEC$
      2555**DCL      3121--IMP-PTR  3970<<ASSIGN   3971>>IF       3972>>CALL
XLATE$ENTRY.NEW_KEY IN PROCEDURE CANDIDATE_LOCATION
      5626**DCL      6011<<ASSIGN   6068>>ASSIGN
XLATE$ENTRY.NEW_KEY.REP# IN PROCEDURE CANDIDATE_LOCATION
      5628**DCL      6068>>IF
XLATE$ENTRY.NEW_KEY.V$ IN PROCEDURE CANDIDATE_LOCATION
      5628**DCL      6011<>CALL     6068>>CALL     6068>>CALL
XLATE$ENTRY.NEW_POS# IN PROCEDURE CANDIDATE_LOCATION
      5630**DCL      6073>>ASSIGN
XLATE$ENTRY.NEW_POS_INCR# IN PROCEDURE CANDIDATE_LOCATION
      5630**DCL      6075>>ASSIGN
PL6.E3A0      #018=VDG$XLATE_LOCATIONS File=VDG$UTILITY.:VDA5TSI                 FRI 07/04/97 11:25 Page:474
XLATE$ENTRY.OLD_KEY_HI IN PROCEDURE CANDIDATE_LOCATION
      5611**DCL      5994<<ASSIGN
XLATE$ENTRY.OLD_KEY_HI.REP# IN PROCEDURE CANDIDATE_LOCATION
      5613**DCL      5887>>IF
XLATE$ENTRY.OLD_KEY_HI.V$ IN PROCEDURE CANDIDATE_LOCATION
      5613**DCL      5887>>ASSIGN   5887--ASSIGN   5994<>CALL
XLATE$ENTRY.OLD_KEY_LO IN PROCEDURE CANDIDATE_LOCATION
      5597**DCL      5977<<ASSIGN   5994>>ASSIGN   6011>>ASSIGN
XLATE$ENTRY.OLD_KEY_LO.REP# IN PROCEDURE CANDIDATE_LOCATION
      5599**DCL      5877>>IF       5994>>IF       6011>>IF
XLATE$ENTRY.OLD_KEY_LO.V$ IN PROCEDURE CANDIDATE_LOCATION
      5599**DCL      5877>>ASSIGN   5877--ASSIGN   5977<>CALL     5994>>CALL     5994>>CALL     6011>>CALL
      6011>>CALL
XLATE$ENTRY.OLD_POS_HI# IN PROCEDURE CANDIDATE_LOCATION
      5615**DCL      6014<<ASSIGN   6024>>IF       6072>>IF
XLATE$ENTRY.OLD_POS_LO# IN PROCEDURE CANDIDATE_LOCATION
      5615**DCL      6024>>IF       6024>>IF
XLATE$KEY_HI.BYTES IN PROCEDURE CANDIDATE_LOCATION
      5696**DCL      5890>>IF       6024>>IF       6042>>IF
XLATE$KEY_HI.LENGTH# IN PROCEDURE CANDIDATE_LOCATION
      5694**DCL      5696--IMP-SIZ  5890>>IF       6024>>IF       6042>>IF
XLATE$KEY_LO.BYTES IN PROCEDURE CANDIDATE_LOCATION
      5673**DCL      5890>>IF       5893>>IF       6024>>IF
XLATE$KEY_LO.LENGTH# IN PROCEDURE CANDIDATE_LOCATION
      5671**DCL      5673--IMP-SIZ  5890>>IF       5893>>IF       6024>>IF
XLATE_ENTRY$ IN PROCEDURE CANDIDATE_LOCATION
      5295**DCL      5583--IMP-PTR  5869<<ASSIGN   5877>>IF       5877>>ASSIGN   5877>>ASSIGN   5887>>IF
      5887>>ASSIGN   5887>>ASSIGN   5932<<ASSIGN   5959<<ASSIGN   5977>>ASSIGN   5977>>CALL     5994>>ASSIGN
      5994>>ASSIGN   5994>>IF       5994>>CALL     5994>>CALL     5994>>CALL     6011>>ASSIGN   6011>>ASSIGN
      6011>>IF       6011>>CALL     6011>>CALL     6011>>CALL     6014>>ASSIGN   6024>>IF       6024>>IF
      6024>>IF       6068>>ASSIGN   6068>>IF       6068>>CALL     6068>>CALL     6072>>IF       6073>>ASSIGN
      6075>>ASSIGN
XLATE_KEY_HI$ IN PROCEDURE CANDIDATE_LOCATION
      5297**DCL      5686--IMP-PTR  5887<<ASSIGN   5887<<ASSIGN   5890>>IF       5890>>IF       6024>>IF
      6024>>IF       6042>>IF       6042>>IF
XLATE_KEY_LO$ IN PROCEDURE CANDIDATE_LOCATION
PL6.E3A0      #018=VDG$XLATE_LOCATIONS File=VDG$UTILITY.:VDA5TSI                 FRI 07/04/97 11:25 Page:475
      5296**DCL      5663--IMP-PTR  5877<<ASSIGN   5877<<ASSIGN   5890>>IF       5890>>IF       5893>>IF
      5893>>IF       6024>>IF       6024>>IF
XLATE_LOCATIONS
      2329**DCL       103--PROC     5851--ASSIGN   5920--ASSIGN
XLATE_LOCATIONS.FILE_KEY.REP#
      2368**DCL      3915>>IF
XLATE_LOCATIONS.FILE_KEY.V$
      2368**DCL      3915>>ASSIGN   3915--ASSIGN
XLATE_LOCATIONS.LEVEL#
      2370**DCL      3918>>DOINDEX  4861>>IF       4867>>DOINDEX
XLATE_LOCATIONS.N_ENTRIES#
      2355**DCL      3899>>IF
XLATE_LOCATIONS.PREFIX.KEY.REP#
      2395**DCL      3927>>IF
XLATE_LOCATIONS.PREFIX.KEY.V$
      2395**DCL      3927>>ASSIGN   3927--ASSIGN
