PL6.E3A0      #010=VDG$BUILD_LOCATION File=VDG$UTILITY.:VDA5TSI                  FRI 07/04/97 11:24 Page:179
     1104        1        /*T***********************************************************/
     1105        2        /*T*                                                         */
     1106        3        /*T* Copyright (c) Bull HN Information Systems Inc., 1997    */
     1107        4        /*T*                                                         */
     1108        5        /*T***********************************************************/
     1109        6
     1110        7        /*D* NAME: VDG$BUILD_LOCATION
     1111        8            PARAMETERS:
     1112        9                ERR_CODE must either be clear, or contain the monitor error
     1113       10                    code returned from an M$PRECORD or M$READ call.
     1114       11                KEY_BUF must contain the key returned by this (or a
     1115       12                    previous) monitor call.  It must be ALIGNED.
     1116       13                    For keyed files, this is a VD$TEXTC string.
     1117       14                    For consec files, this is a UBIN word.
     1118       15                    For indexed files, this is a CHAR buffer, of length
     1119       16                        FIXED_KEY_LEN.
     1120       17                EXT_RECORD_ORG - An SBIN HALF HALIGNED (!) containing the %ORG_
     1121       18                    for the file's record level.
     1122       19                KEY_TYPE - As SBIN HALF HALIGNED (!) containing the %KT_
     1123       20                    for the file's record level.
     1124       21                FIXED_KEY_LEN - If file organization is indexed, then FIXED_KEY_LEN
     1125       22                    must contain the length of the key.
     1126       23                LOCATION - An uninitialized VD$LOCATION.
     1127       24            INPUT:
     1128       25                None.
     1129       26            OUTPUT:
     1130       27                LOCATION.KEY will get the key from KEY_BUF, unless eof
     1131       28                    was hit, in which case LOCATION.EOF will be set.
     1132       29            DESCRIPTION:
     1133       30                Based on the error code and the file org, build a record
     1134       31                key in LOCATION.KEY/.EOF from the info in KEY_BUF.
     1135       32
     1136       33                           CP-6 Secrets, Installment # 98426308
     1137       34                   What PRECORD/PREAD Return In Various Circumstances
     1138       35
     1139       36                If file at BOF, REL<=0:  we'll get altret with errcode=E$BOF,
     1140       37                                    and returned key containing key of first
PL6.E3A0      #010=VDG$BUILD_LOCATION File=VDG$UTILITY.:VDA5TSI                  FRI 07/04/97 11:24 Page:180
     1141       38                                    record in file (if no first record,
     1142       39                                    returned key will be zeroed).
     1143       40                                    *N* C00 caveat:  for consec files only, the key
     1144       41                                    returned is 0, when it should be 1.  Detect the
     1145       42                                    BOF error and assume a key of 1.
     1146       43                If file at EOF, REL>=0:  we'll get altret with errcode=E$EOF.
     1147       44                If key given, REL=0, and key not in file:
     1148       45                                    we'll get altret with errcode=E$NOKEY,
     1149       46                                    and returned key containing key of next
     1150       47                                    record after given key (if no next
     1151       48                                    record, returned key will be zeroed).
     1152       49                If REL<0, and tried to move to or beyond BOF:
     1153       50                                    we'll get altret with errcode=E$BOF,
     1154       51                                    and returned key containing key of first
     1155       52                                    record in file (if no first record,
     1156       53                                    returned key will be zeroed).
     1157       54                                    *N* C00 caveat:  for consec files only, the key
     1158       55                                    returned is 0, when it should be 1.  Detect the
     1159       56                                    BOF error and assume a key of 1.
     1160       57                If REL>0, and tried to move just to EOF (for example,
     1161       58                    if file at last rec in file and REL=1):
     1162       59                                    we'll get no error, but returned key
     1163       60                                    will be zeroed.
     1164       61                If REL>0, and tried to move beyond EOF:
     1165       62                                    we'll get altret with errcode=E$EOF.
     1166       63                By "zeroing a key", we mean:
     1167       64                    for KEYED files, the textc's length byte gets 0;
     1168       65                    for INDEXED files, the entire key buf gets binary 0's;
     1169       66                    for CONSEC files, the first word of the key buffer gets the
     1170       67                        number of records in the file (ie, one larger than valid
     1171       68                        record # for file).
     1172       69        */
     1173       70
     1174       71        VDG$BUILD_LOCATION: PROC (ERR_CODE, KEY_BUF, EXT_RECORD_ORG,
     1175       72                  KEY_TYPE, FIXED_KEY_LEN, LOCATION) ALTRET;
     1176       73
     1177       74
PL6.E3A0      #010=VDG$BUILD_LOCATION File=VDG$UTILITY.:VDA5TSI                  FRI 07/04/97 11:24 Page:181
     1178       75        %INCLUDE VD_MACROS_M;
     1179     2290        %INCLUDE VD_PERR_C;
     1180     2438        %INCLUDE CP_6;
     1181     2519        %INCLUDE B_ERRORS_C;
     1182     3645
     1183     3646
     1184     3647                %VD$ERR_CODE (NAME=ERR_CODE, STCLASS=PARAM);
     1185     3662    1   DCL KEY_BUF CHAR(%MXNB_KEY) ALIGNED;
     1186     3663    1   DCL EXT_RECORD_ORG SBIN HALF HALIGNED;
     1187     3664    1   DCL KEY_TYPE SBIN HALF HALIGNED;
     1188     3665    1   DCL FIXED_KEY_LEN SBIN;
     1189     3666        %VD$LOCATION (NAME=LOCATION, STCLASS=PARAM);
     1190     3694
     1191     3695
     1192     3696    1   DCL VDG$BUILD_KEY           ENTRY (3) ALTRET;
     1193     3697    1   DCL VDG$OALLOC              ENTRY (3) ALTRET;
     1194     3698    1   DCL VDG$ESCREECH            ENTRY (3);
     1195     3699
     1196     3700
     1197     3701
     1198     3702    1   DCL KEY_BUF$ PTR;
     1199     3703    1   DCL GOT_ERROR BIT(1) ALIGNED;
     1200     3704    1   DCL NB_KEY SBIN;
     1201     3705    1   DCL VD_ERR$ PTR;
     1202     3706    1   DCL SUBST_FIELD$ PTR;
     1203     3707
     1204     3708
     1205     3709        %VD$KEY_NUMBER (NAME=VD_KEY_NUMERIC_BOF, STCLASS=SYMREF);
     1206     3724        %VD$KEY_NUMBER (NAME=VD_KEY_FIRST_CONSEC_REC, STCLASS=SYMREF);
     1207     3739
     1208     3740
     1209     3741        %VD$TEXTC (NAME=KEY$TEXTC, STCLASS="BASED(KEY_BUF$)");
     1210     3764    1   DCL 1 KEY$FIXED BASED(KEY_BUF$),
     1211     3765    1         2 BYTES CHAR(FIXED_KEY_LEN);
     1212     3766    1   DCL KEY$WORD SBIN BASED(KEY_BUF$);
     1213     3767        %VD$KEY_NUMBER;
     1214     3782        %VD$TEXTC_REMOTE;
PL6.E3A0      #010=VDG$BUILD_LOCATION File=VDG$UTILITY.:VDA5TSI                  FRI 07/04/97 11:24 Page:182
     1215     3843        %VD$ERR (NAME=VD$ERR, STCLASS="BASED(VD_ERR$)");
     1216     3896        %VD$NUMBER (NAME=SUBST$NUMBER, DIM="(0:0)", STCLASS="BASED(SUBST_FIELD$)");
     1217     3941        %VD$POINTER (NAME=SUBST$POINTER, DIM="(0:0)", STCLASS="BASED(SUBST_FIELD$)");
     1218     3986
     1219     3987
     1220     3988
     1221     3989    1           KEY_BUF$ = ADDR(KEY_BUF);
     1222     3990    1           LOCATION = %CLEAR;
     1223     3991    1           GOT_ERROR = %FALSE;
     1224     3992
     1225     3993    1           IF ERR_CODE.CODE# = %E$EOF THEN
     1226     3994    1              LOCATION.EOF = %TRUE;
     1227     3995    2           ELSE DO;
     1228     3996    3              DO CASE (EXT_RECORD_ORG);
     1229     3997    3               CASE (%ORG_KEYED);
     1230     3998    3                 IF KEY$TEXTC.LENGTH# = 0 THEN
     1231     3999    3                    LOCATION.EOF = %TRUE;
     1232     4000    4                 ELSE DO;
     1233     4001    4                    NB_KEY = KEY$TEXTC.LENGTH#;
     1234     4002    4                    CALL VDG$BUILD_KEY (LOCATION.KEY (%(LVL_EXT_REC-1)), NB_KEY,
     1235     4003    4                      KEY$TEXTC.BYTES)
     1236     4004    4                      ALTRET (BUILD_KEY_FAILED);
     1237     4005    4                    IF KEY_TYPE ~= %KT_STRING AND NB_KEY ~= %NB_NUMERIC_KEY THEN
     1238     4006    4                       KEY_TYPE = %KT_STRING;
     1239     4007    4                    LOCATION.KEY.TYPE# (%(LVL_EXT_REC-1)) = KEY_TYPE;
     1240     4008    4                    END;
     1241     4009
     1242     4010    3               CASE (%ORG_INDEXED);
     1243     4011    3                 IF KEY$FIXED = %CLEAR THEN
     1244     4012    3                    LOCATION.EOF = %TRUE;
     1245     4013    4                 ELSE DO;
     1246     4014    4                    CALL VDG$BUILD_KEY (LOCATION.KEY (%(LVL_EXT_REC-1)),
     1247     4015    4                      FIXED_KEY_LEN, KEY$FIXED.BYTES)
     1248     4016    4                      ALTRET (BUILD_KEY_FAILED);
     1249     4017    4                    LOCATION.KEY.TYPE# (%(LVL_EXT_REC-1)) = KEY_TYPE;
     1250     4018    4                    END;
     1251     4019
PL6.E3A0      #010=VDG$BUILD_LOCATION File=VDG$UTILITY.:VDA5TSI                  FRI 07/04/97 11:24 Page:183
     1252     4020    3               CASE (%ORG_CONSEC);
     1253     4021    4                 IF ERR_CODE.CODE# = %E$BOF THEN DO;
     1254     4022                         /*
     1255     4023                         *  Build key of first record in file.
     1256     4024                         *  Note that this is different from the abstract "BOF"
     1257     4025                         *      location, which is represented by VD_KEY_NUMERIC_BOF.
     1258     4026                         */
     1259     4027    4                    LOCATION.KEY (%(LVL_EXT_REC-1)) = VD_KEY_FIRST_CONSEC_REC;
     1260     4028    4                    END;
     1261     4029    4                 ELSE IF KEY$WORD <= %MX_CONSEC_RECORDS THEN DO;
     1262     4030    4                       LOCATION.KEY.TYPE# (%(LVL_EXT_REC-1)) = KEY_TYPE;
     1263     4031    4                       LOCATION.KEY.REP# (%(LVL_EXT_REC-1)) = %REP_LOCAL;
     1264     4032    4                       ADDR(LOCATION.KEY (%(LVL_EXT_REC-1))) ->
     1265     4033    4                         VD$KEY_NUMBER.LENGTH# = %NB_NUMERIC_KEY;
     1266     4034    4                       ADDR(LOCATION.KEY (%(LVL_EXT_REC-1))) ->
     1267     4035    4                         VD$KEY_NUMBER.BYTES# = KEY$WORD;
     1268     4036    4                       END;
     1269     4037    4                    ELSE DO;
     1270     4038    4                       GOT_ERROR = %TRUE;
     1271     4039    4                       CALL VDG$OALLOC (%CLS_ERR, VD_ERR$)
     1272     4040    4                         ALTRET (OALLOC_FAILED);
     1273     4041    4                       VD$ERR.ERR.CODE# = %E$CONSEC_KEY_TOO_BIG;
     1274     4042    4                       VD$ERR.FLAGLEV# = %FLV_SERIOUS;
     1275     4043    4                       SUBST_FIELD$ = PINCRW(VD_ERR$, SIZEW(VD$ERR));
     1276     4044    4                       SUBST$NUMBER.OBJECT.CLASS# (0) = %CLS_NUMBER;
     1277     4045    4                       SUBST$NUMBER.V# (0) = KEY$WORD;
     1278     4046    4                       LOCATION.EOF = %TRUE;
     1279     4047    4                       END;
     1280     4048
     1281     4049    3               CASE (ELSE);
     1282     4050    3                 CALL VDG$ESCREECH (EXT_RECORD_ORG);
     1283     4051    3               END;
     1284     4052    2              END;
     1285     4053
     1286     4054    2           DO SELECT (ERR_CODE.CODE#);
     1287     4055    2              SELECT (0, %E$BOF, %E$EOF, %E$NOKEY);
     1288     4056    2              IF GOT_ERROR THEN
PL6.E3A0      #010=VDG$BUILD_LOCATION File=VDG$UTILITY.:VDA5TSI                  FRI 07/04/97 11:24 Page:184
     1289     4057    2                 ALTRETURN;
     1290     4058    2              RETURN;
     1291     4059    2              SELECT (ELSE);
     1292     4060    2           CALL VDG$OALLOC (%CLS_ERR, VD_ERR$)
     1293     4061    2             ALTRET (OALLOC_FAILED);
     1294     4062    2           VD$ERR.ERR = ERR_CODE;
     1295     4063    2           VD$ERR.FLAGLEV# = %FLV_SERIOUS;
     1296     4064    3           IF NOT LOCATION.EOF THEN DO;
     1297     4065    3              SUBST_FIELD$ = PINCRW(VD_ERR$, SIZEW(VD$ERR));
     1298     4066    3              SUBST$POINTER.OBJECT.CLASS# (0) = %CLS_PTR_KEY;
     1299     4067    3              SUBST$POINTER.V$ (0) = ADDR(LOCATION.KEY (%LVL_EXT_REC-1));
     1300     4068    3              END;
     1301     4069    2           ALTRETURN;
     1302     4070    2              END;
     1303     4071
     1304     4072
     1305     4073
     1306     4074    1   BUILD_KEY_FAILED: ;
     1307     4075    1   OALLOC_FAILED: ;
     1308     4076    1           ALTRETURN;
     1309     4077
     1310     4078    1   END VDG$BUILD_LOCATION;
     1311     4079        %EOD;

PL6.E3A0      #010=VDG$BUILD_LOCATION File=VDG$UTILITY.:VDA5TSI                  FRI 07/04/97 11:24 Page:185
--  Include file information  --

   B_ERRORS_C.:LIBRARY  is referenced.
   CP_6.:LIBRARY  cannot be made into a system file and is referenced.
   VD_PERR_C.:VDA5TOU  is referenced.
   VD_MACROS_M.:VDA5TOU  is referenced.
   B$JIT_C.:E04TOU  was found in the system file and is never referenced.
   CP_6_C.:E04TOU  was found in the system file and is referenced.
      No diagnostics issued in procedure VDG$BUILD_LOCATION.

   Procedure VDG$BUILD_LOCATION requires 204 words for executable code.
   Procedure VDG$BUILD_LOCATION requires 18 words of local(AUTO) storage.

PL6.E3A0      #010=VDG$BUILD_LOCATION File=VDG$UTILITY.:VDA5TSI                  FRI 07/04/97 11:24 Page:186

 Object Unit name= VDG$BUILD_LOCATION                         File name= VDG$UTILITY.:VDA5TOU
 UTS= JUL 04 '97 11:24:03.24 FRI                              Compiler= PL-6/E31         Sev=      00
 SharedLib= :SHARED_SYSTEM                                    Alt SharedLib=


    ****  Control sections  ****

 Sect   Type Bound  Init  Size OctSiz  Section name(segment info)
    0   DCB   even  none     0      0  M$UC
    1   Proc  even  none   204    314  VDG$BUILD_LOCATION
    2  RoData even  none     2      2  VDG$BUILD_LOCATION

    ****  Entry defs  ****

                              Check   Calling
                             calling  sequence
  Sect OctLoc Primary Altret sequence   type   Parms  Name
     1      0   yes    yes     yes      Std        6  VDG$BUILD_LOCATION

  ****  Entry refs  ****

         Check        Calling
        calling       sequence
Altret sequence SRef   type   Args  Name
 yes     yes           Std       3 VDG$BUILD_KEY
 yes     yes           Std       3 VDG$OALLOC
         yes           Std       3 VDG$ESCREECH
                       nStd      0 X66_AUTO_N
                       Std       0 B_CONSPOOL_D
                       nStd      0 X66_AALT
                       nStd      0 X66_ARET
PL6.E3A0      #010=VDG$BUILD_LOCATION File=VDG$UTILITY.:VDA5TSI                  FRI 07/04/97 11:24 Page:187

  ****  Data refs  ****

  Flags:  r = read only, s = secondary
Flgs Name                             Flgs Name                             Flgs Name
     M$UC                                  VD_KEY_FIRST_CONSEC_REC               B_VECTNIL

  ****  Segment refs  ****

  Flags:  r = read only, s = secondary
Flgs Name                             Flgs Name                             Flgs Name
     ISSID
PL6.E3A0      #010=VDG$BUILD_LOCATION File=VDG$UTILITY.:VDA5TSI                  FRI 07/04/97 11:24 Page:188


     1104        1        /*T***********************************************************/
     1105        2        /*T*                                                         */
     1106        3        /*T* Copyright (c) Bull HN Information Systems Inc., 1997    */
     1107        4        /*T*                                                         */
     1108        5        /*T***********************************************************/
     1109        6
     1110        7        /*D* NAME: VDG$BUILD_LOCATION
     1111        8            PARAMETERS:
     1112        9                ERR_CODE must either be clear, or contain the monitor error
     1113       10                    code returned from an M$PRECORD or M$READ call.
     1114       11                KEY_BUF must contain the key returned by this (or a
     1115       12                    previous) monitor call.  It must be ALIGNED.
     1116       13                    For keyed files, this is a VD$TEXTC string.
     1117       14                    For consec files, this is a UBIN word.
     1118       15                    For indexed files, this is a CHAR buffer, of length
     1119       16                        FIXED_KEY_LEN.
     1120       17                EXT_RECORD_ORG - An SBIN HALF HALIGNED (!) containing the %ORG_
     1121       18                    for the file's record level.
     1122       19                KEY_TYPE - As SBIN HALF HALIGNED (!) containing the %KT_
     1123       20                    for the file's record level.
     1124       21                FIXED_KEY_LEN - If file organization is indexed, then FIXED_KEY_LEN
     1125       22                    must contain the length of the key.
     1126       23                LOCATION - An uninitialized VD$LOCATION.
     1127       24            INPUT:
     1128       25                None.
     1129       26            OUTPUT:
     1130       27                LOCATION.KEY will get the key from KEY_BUF, unless eof
     1131       28                    was hit, in which case LOCATION.EOF will be set.
     1132       29            DESCRIPTION:
     1133       30                Based on the error code and the file org, build a record
     1134       31                key in LOCATION.KEY/.EOF from the info in KEY_BUF.
     1135       32
     1136       33                           CP-6 Secrets, Installment # 98426308
     1137       34                   What PRECORD/PREAD Return In Various Circumstances
     1138       35
     1139       36                If file at BOF, REL<=0:  we'll get altret with errcode=E$BOF,
PL6.E3A0      #010=VDG$BUILD_LOCATION File=VDG$UTILITY.:VDA5TSI                  FRI 07/04/97 11:24 Page:189
     1140       37                                    and returned key containing key of first
     1141       38                                    record in file (if no first record,
     1142       39                                    returned key will be zeroed).
     1143       40                                    *N* C00 caveat:  for consec files only, the key
     1144       41                                    returned is 0, when it should be 1.  Detect the
     1145       42                                    BOF error and assume a key of 1.
     1146       43                If file at EOF, REL>=0:  we'll get altret with errcode=E$EOF.
     1147       44                If key given, REL=0, and key not in file:
     1148       45                                    we'll get altret with errcode=E$NOKEY,
     1149       46                                    and returned key containing key of next
     1150       47                                    record after given key (if no next
     1151       48                                    record, returned key will be zeroed).
     1152       49                If REL<0, and tried to move to or beyond BOF:
     1153       50                                    we'll get altret with errcode=E$BOF,
     1154       51                                    and returned key containing key of first
     1155       52                                    record in file (if no first record,
     1156       53                                    returned key will be zeroed).
     1157       54                                    *N* C00 caveat:  for consec files only, the key
     1158       55                                    returned is 0, when it should be 1.  Detect the
     1159       56                                    BOF error and assume a key of 1.
     1160       57                If REL>0, and tried to move just to EOF (for example,
     1161       58                    if file at last rec in file and REL=1):
     1162       59                                    we'll get no error, but returned key
     1163       60                                    will be zeroed.
     1164       61                If REL>0, and tried to move beyond EOF:
     1165       62                                    we'll get altret with errcode=E$EOF.
     1166       63                By "zeroing a key", we mean:
     1167       64                    for KEYED files, the textc's length byte gets 0;
     1168       65                    for INDEXED files, the entire key buf gets binary 0's;
     1169       66                    for CONSEC files, the first word of the key buffer gets the
     1170       67                        number of records in the file (ie, one larger than valid
     1171       68                        record # for file).
     1172       69        */
     1173       70
     1174       71        VDG$BUILD_LOCATION: PROC (ERR_CODE, KEY_BUF, EXT_RECORD_ORG,

     71  1 000000   000000 700200 xent  VDG$BUILD_L* TSX0  ! X66_AUTO_N
PL6.E3A0      #010=VDG$BUILD_LOCATION File=VDG$UTILITY.:VDA5TSI                  FRI 07/04/97 11:24 Page:190
         1 000001   000022 000006                    ZERO    18,6

     1175       72                  KEY_TYPE, FIXED_KEY_LEN, LOCATION) ALTRET;
     1176       73
     1177       74
     1178       75        %INCLUDE VD_MACROS_M;
     1179     2290        %INCLUDE VD_PERR_C;
     1180     2438        %INCLUDE CP_6;
     1181     2519        %INCLUDE B_ERRORS_C;
     1182     3645
     1183     3646
     1184     3647                %VD$ERR_CODE (NAME=ERR_CODE, STCLASS=PARAM);
     1185     3662    1   DCL KEY_BUF CHAR(%MXNB_KEY) ALIGNED;
     1186     3663    1   DCL EXT_RECORD_ORG SBIN HALF HALIGNED;
     1187     3664    1   DCL KEY_TYPE SBIN HALF HALIGNED;
     1188     3665    1   DCL FIXED_KEY_LEN SBIN;
     1189     3666        %VD$LOCATION (NAME=LOCATION, STCLASS=PARAM);
     1190     3694
     1191     3695
     1192     3696    1   DCL VDG$BUILD_KEY           ENTRY (3) ALTRET;
     1193     3697    1   DCL VDG$OALLOC              ENTRY (3) ALTRET;
     1194     3698    1   DCL VDG$ESCREECH            ENTRY (3);
     1195     3699
     1196     3700
     1197     3701
     1198     3702    1   DCL KEY_BUF$ PTR;
     1199     3703    1   DCL GOT_ERROR BIT(1) ALIGNED;
     1200     3704    1   DCL NB_KEY SBIN;
     1201     3705    1   DCL VD_ERR$ PTR;
     1202     3706    1   DCL SUBST_FIELD$ PTR;
     1203     3707
     1204     3708
     1205     3709        %VD$KEY_NUMBER (NAME=VD_KEY_NUMERIC_BOF, STCLASS=SYMREF);
     1206     3724        %VD$KEY_NUMBER (NAME=VD_KEY_FIRST_CONSEC_REC, STCLASS=SYMREF);
     1207     3739
     1208     3740
     1209     3741        %VD$TEXTC (NAME=KEY$TEXTC, STCLASS="BASED(KEY_BUF$)");
PL6.E3A0      #010=VDG$BUILD_LOCATION File=VDG$UTILITY.:VDA5TSI                  FRI 07/04/97 11:24 Page:191
     1210     3764    1   DCL 1 KEY$FIXED BASED(KEY_BUF$),
     1211     3765    1         2 BYTES CHAR(FIXED_KEY_LEN);
     1212     3766    1   DCL KEY$WORD SBIN BASED(KEY_BUF$);
     1213     3767        %VD$KEY_NUMBER;
     1214     3782        %VD$TEXTC_REMOTE;
     1215     3843        %VD$ERR (NAME=VD$ERR, STCLASS="BASED(VD_ERR$)");
     1216     3896        %VD$NUMBER (NAME=SUBST$NUMBER, DIM="(0:0)", STCLASS="BASED(SUBST_FIELD$)");
     1217     3941        %VD$POINTER (NAME=SUBST$POINTER, DIM="(0:0)", STCLASS="BASED(SUBST_FIELD$)");
     1218     3986
     1219     3987
     1220     3988
     1221     3989    1           KEY_BUF$ = ADDR(KEY_BUF);

   3989  1 000002   200004 236100                    LDQ     @KEY_BUF,,AUTO
         1 000003   200011 756100                    STQ     KEY_BUF$,,AUTO

     1222     3990    1           LOCATION = %CLEAR;

   3990  1 000004   200010 470500                    LDP0    @LOCATION,,AUTO
         1 000005   000100 100400                    MLR     fill='000'O
         1 000006   000002 000001 xsym               ADSC9   B_VECTNIL+2              cn=0,n=1
         1 000007   000000 000044                    ADSC9   0,,PR0                   cn=0,n=36

     1223     3991    1           GOT_ERROR = %FALSE;

   3991  1 000010   200012 450100                    STZ     GOT_ERROR,,AUTO

     1224     3992
     1225     3993    1           IF ERR_CODE.CODE# = %E$EOF THEN

   3993  1 000011   200003 471500                    LDP1    @ERR_CODE,,AUTO
         1 000012   100000 236100                    LDQ     0,,PR1
         1 000013   377770 376007                    ANQ     131064,DL
         1 000014   000060 116007                    CMPQ    48,DL
         1 000015   000021 601000 1                  TNZ     s:3996

     1226     3994    1              LOCATION.EOF = %TRUE;
PL6.E3A0      #010=VDG$BUILD_LOCATION File=VDG$UTILITY.:VDA5TSI                  FRI 07/04/97 11:24 Page:192

   3994  1 000016   400000 236007                    LDQ     -131072,DL
         1 000017   000010 256100                    ORSQ    8,,PR0
         1 000020   000231 710000 1                  TRA     s:4054

     1227     3995    2           ELSE DO;

     1228     3996    3              DO CASE (EXT_RECORD_ORG);

   3996  1 000021   200005 473500                    LDP3    @EXT_RECORD_ORG,,AUTO
         1 000022   000100 100500                    MLR     fill='000'O
         1 000023   300000 000002                    ADSC9   0,,PR3                   cn=0,n=2
         1 000024   200016 000004                    ADSC9   SUBST_FIELD$+1,,AUTO     cn=0,n=4
         1 000025   200016 236100                    LDQ     SUBST_FIELD$+1,,AUTO
         1 000026   000022 732000                    QRS     18
         1 000027   000004 116007                    CMPQ    4,DL
         1 000030   000032 602006 1                  TNC     s:3996+9,QL
         1 000031   000225 710000 1                  TRA     s:4050
         1 000032   000225 710000 1                  TRA     s:4050
         1 000033   000137 710000 1                  TRA     s:4021
         1 000034   000036 710000 1                  TRA     s:3998
         1 000035   000106 710000 1                  TRA     s:4011

     1229     3997    3               CASE (%ORG_KEYED);

     1230     3998    3                 IF KEY$TEXTC.LENGTH# = 0 THEN

   3998  1 000036   200011 474500                    LDP4    KEY_BUF$,,AUTO
         1 000037   400000 236100                    LDQ     0,,PR4
         1 000040   777000 316003                    CANQ    -512,DU
         1 000041   000045 601000 1                  TNZ     s:4001

     1231     3999    3                    LOCATION.EOF = %TRUE;

   3999  1 000042   400000 236007                    LDQ     -131072,DL
         1 000043   000010 256100                    ORSQ    8,,PR0
         1 000044   000231 710000 1                  TRA     s:4054
PL6.E3A0      #010=VDG$BUILD_LOCATION File=VDG$UTILITY.:VDA5TSI                  FRI 07/04/97 11:24 Page:193

     1232     4000    4                 ELSE DO;

     1233     4001    4                    NB_KEY = KEY$TEXTC.LENGTH#;

   4001  1 000045   400000 236100                    LDQ     0,,PR4
         1 000046   000033 772000                    QRL     27
         1 000047   200013 756100                    STQ     NB_KEY,,AUTO

     1234     4002    4                    CALL VDG$BUILD_KEY (LOCATION.KEY (%(LVL_EXT_REC-1)), NB_KEY,

   4002  1 000050   200011 236100                    LDQ     KEY_BUF$,,AUTO
         1 000051   200000 036007                    ADLQ    65536,DL
         1 000052   200020 756100                    STQ     SUBST_FIELD$+3,,AUTO
         1 000053   200013 635500                    EPPR5   NB_KEY,,AUTO
         1 000054   200017 455500                    STP5    SUBST_FIELD$+2,,AUTO
         1 000055   200010 236100                    LDQ     @LOCATION,,AUTO
         1 000056   200016 756100                    STQ     SUBST_FIELD$+1,,AUTO
         1 000057   200016 630500                    EPPR0   SUBST_FIELD$+1,,AUTO
         1 000060   000021 631400 xsym               EPPR1   B_VECTNIL+17
         1 000061   000000 701000 xent               TSX1    VDG$BUILD_KEY
         1 000062   000313 702000 1                  TSX2    BUILD_KEY_FAILED

     1235     4003    4                      KEY$TEXTC.BYTES)
     1236     4004    4                      ALTRET (BUILD_KEY_FAILED);
     1237     4005    4                    IF KEY_TYPE ~= %KT_STRING AND NB_KEY ~= %NB_NUMERIC_KEY THEN

   4005  1 000063   200006 470500                    LDP0    @KEY_TYPE,,AUTO
         1 000064   000100 100500                    MLR     fill='000'O
         1 000065   000000 000002                    ADSC9   0,,PR0                   cn=0,n=2
         1 000066   200016 000004                    ADSC9   SUBST_FIELD$+1,,AUTO     cn=0,n=4
         1 000067   200016 236100                    LDQ     SUBST_FIELD$+1,,AUTO
         1 000070   000022 732000                    QRS     18
         1 000071   000002 116007                    CMPQ    2,DL
         1 000072   000101 600000 1                  TZE     s:4007
         1 000073   200013 235100                    LDA     NB_KEY,,AUTO
         1 000074   000003 115007                    CMPA    3,DL
PL6.E3A0      #010=VDG$BUILD_LOCATION File=VDG$UTILITY.:VDA5TSI                  FRI 07/04/97 11:24 Page:194
         1 000075   000101 600000 1                  TZE     s:4007

     1238     4006    4                       KEY_TYPE = %KT_STRING;

   4006  1 000076   000100 101400                    MRL     fill='000'O
         1 000077   000004 000004 xsym               ADSC9   B_VECTNIL+4              cn=0,n=4
         1 000100   000000 000002                    ADSC9   0,,PR0                   cn=0,n=2

     1239     4007    4                    LOCATION.KEY.TYPE# (%(LVL_EXT_REC-1)) = KEY_TYPE;

   4007  1 000101   200010 471500                    LDP1    @LOCATION,,AUTO
         1 000102   000100 100500                    MLR     fill='000'O
         1 000103   000000 000002                    ADSC9   0,,PR0                   cn=0,n=2
         1 000104   100000 000002                    ADSC9   0,,PR1                   cn=0,n=2

     1240     4008    4                    END;

   4008  1 000105   000231 710000 1                  TRA     s:4054

     1241     4009
     1242     4010    3               CASE (%ORG_INDEXED);

     1243     4011    3                 IF KEY$FIXED = %CLEAR THEN

   4011  1 000106   200007 474500                    LDP4    @FIXED_KEY_LEN,,AUTO
         1 000107   400000 720100                    LXL0    0,,PR4
         1 000110   200011 475500                    LDP5    KEY_BUF$,,AUTO
         1 000111   000000 106540                    CMPC    fill='000'O
         1 000112   500000 000010                    ADSC9   0,,PR5                   cn=0,n=*X0
         1 000113   000002 000002 xsym               ADSC9   B_VECTNIL+2              cn=0,n=2
         1 000114   000120 601000 1                  TNZ     s:4014

     1244     4012    3                    LOCATION.EOF = %TRUE;

   4012  1 000115   400000 236007                    LDQ     -131072,DL
         1 000116   000010 256100                    ORSQ    8,,PR0
         1 000117   000231 710000 1                  TRA     s:4054
PL6.E3A0      #010=VDG$BUILD_LOCATION File=VDG$UTILITY.:VDA5TSI                  FRI 07/04/97 11:24 Page:195

     1245     4013    4                 ELSE DO;

     1246     4014    4                    CALL VDG$BUILD_KEY (LOCATION.KEY (%(LVL_EXT_REC-1)),

   4014  1 000120   200011 236100                    LDQ     KEY_BUF$,,AUTO
         1 000121   200020 756100                    STQ     SUBST_FIELD$+3,,AUTO
         1 000122   200007 236100                    LDQ     @FIXED_KEY_LEN,,AUTO
         1 000123   200010 235100                    LDA     @LOCATION,,AUTO
         1 000124   200016 757100                    STAQ    SUBST_FIELD$+1,,AUTO
         1 000125   200016 630500                    EPPR0   SUBST_FIELD$+1,,AUTO
         1 000126   000021 631400 xsym               EPPR1   B_VECTNIL+17
         1 000127   000000 701000 xent               TSX1    VDG$BUILD_KEY
         1 000130   000313 702000 1                  TSX2    BUILD_KEY_FAILED

     1247     4015    4                      FIXED_KEY_LEN, KEY$FIXED.BYTES)
     1248     4016    4                      ALTRET (BUILD_KEY_FAILED);
     1249     4017    4                    LOCATION.KEY.TYPE# (%(LVL_EXT_REC-1)) = KEY_TYPE;

   4017  1 000131   200006 470500                    LDP0    @KEY_TYPE,,AUTO
         1 000132   200010 471500                    LDP1    @LOCATION,,AUTO
         1 000133   000100 100500                    MLR     fill='000'O
         1 000134   000000 000002                    ADSC9   0,,PR0                   cn=0,n=2
         1 000135   100000 000002                    ADSC9   0,,PR1                   cn=0,n=2

     1250     4018    4                    END;

   4018  1 000136   000231 710000 1                  TRA     s:4054

     1251     4019
     1252     4020    3               CASE (%ORG_CONSEC);

     1253     4021    4                 IF ERR_CODE.CODE# = %E$BOF THEN DO;

   4021  1 000137   100000 236100                    LDQ     0,,PR1
         1 000140   377770 376007                    ANQ     131064,DL
         1 000141   000040 116007                    CMPQ    32,DL
PL6.E3A0      #010=VDG$BUILD_LOCATION File=VDG$UTILITY.:VDA5TSI                  FRI 07/04/97 11:24 Page:196
         1 000142   000147 601000 1                  TNZ     s:4029

     1254     4022                         /*
     1255     4023                         *  Build key of first record in file.
     1256     4024                         *  Note that this is different from the abstract "BOF"
     1257     4025                         *      location, which is represented by VD_KEY_NUMERIC_BOF.
     1258     4026                         */
     1259     4027    4                    LOCATION.KEY (%(LVL_EXT_REC-1)) = VD_KEY_FIRST_CONSEC_REC;

   4027  1 000143   000100 100400                    MLR     fill='000'O
         1 000144   000000 000010 xsym               ADSC9   VD_KEY_FIRST_CONSEC_REC  cn=0,n=8
         1 000145   000000 000010                    ADSC9   0,,PR0                   cn=0,n=8

     1260     4028    4                    END;

   4028  1 000146   000231 710000 1                  TRA     s:4054

     1261     4029    4                 ELSE IF KEY$WORD <= %MX_CONSEC_RECORDS THEN DO;

   4029  1 000147   200011 474500                    LDP4    KEY_BUF$,,AUTO
         1 000150   400000 235100                    LDA     0,,PR4
         1 000151   000032 115000 xsym               CMPA    B_VECTNIL+26
         1 000152   000166 605400 1                  TPNZ    s:4038

     1262     4030    4                       LOCATION.KEY.TYPE# (%(LVL_EXT_REC-1)) = KEY_TYPE;

   4030  1 000153   200006 475500                    LDP5    @KEY_TYPE,,AUTO
         1 000154   000100 100500                    MLR     fill='000'O
         1 000155   500000 000002                    ADSC9   0,,PR5                   cn=0,n=2
         1 000156   000000 000002                    ADSC9   0,,PR0                   cn=0,n=2

     1263     4031    4                       LOCATION.KEY.REP# (%(LVL_EXT_REC-1)) = %REP_LOCAL;

   4031  1 000157   000001 220003                    LDX0    1,DU
         1 000160   000000 440100                    SXL0    0,,PR0

     1264     4032    4                       ADDR(LOCATION.KEY (%(LVL_EXT_REC-1))) ->
PL6.E3A0      #010=VDG$BUILD_LOCATION File=VDG$UTILITY.:VDA5TSI                  FRI 07/04/97 11:24 Page:197

   4032  1 000161   003000 236003                    LDQ     1536,DU
         1 000162   000001 552140                    STBQ    1,'40'O,PR0

     1265     4033    4                         VD$KEY_NUMBER.LENGTH# = %NB_NUMERIC_KEY;
     1266     4034    4                       ADDR(LOCATION.KEY (%(LVL_EXT_REC-1))) ->

   4034  1 000163   400000 236100                    LDQ     0,,PR4
         1 000164   000001 552134                    STBQ    1,'34'O,PR0

     1267     4035    4                         VD$KEY_NUMBER.BYTES# = KEY$WORD;
     1268     4036    4                       END;

   4036  1 000165   000231 710000 1                  TRA     s:4054

     1269     4037    4                    ELSE DO;

     1270     4038    4                       GOT_ERROR = %TRUE;

   4038  1 000166   400000 236003                    LDQ     -131072,DU
         1 000167   200012 756100                    STQ     GOT_ERROR,,AUTO

     1271     4039    4                       CALL VDG$OALLOC (%CLS_ERR, VD_ERR$)

   4039  1 000170   200014 635500                    EPPR5   VD_ERR$,,AUTO
         1 000171   200017 455500                    STP5    SUBST_FIELD$+2,,AUTO
         1 000172   000000 236000 2                  LDQ     0
         1 000173   200016 756100                    STQ     SUBST_FIELD$+1,,AUTO
         1 000174   200016 630500                    EPPR0   SUBST_FIELD$+1,,AUTO
         1 000175   000020 631400 xsym               EPPR1   B_VECTNIL+16
         1 000176   000000 701000 xent               TSX1    VDG$OALLOC
         1 000177   000313 702000 1                  TSX2    BUILD_KEY_FAILED

     1272     4040    4                         ALTRET (OALLOC_FAILED);
     1273     4041    4                       VD$ERR.ERR.CODE# = %E$CONSEC_KEY_TOO_BIG;

   4041  1 000200   200014 470500                    LDP0    VD_ERR$,,AUTO
PL6.E3A0      #010=VDG$BUILD_LOCATION File=VDG$UTILITY.:VDA5TSI                  FRI 07/04/97 11:24 Page:198
         1 000201   000002 236100                    LDQ     2,,PR0
         1 000202   000001 376000 2                  ANQ     1
         1 000203   004250 276007                    ORQ     2216,DL
         1 000204   000002 756100                    STQ     2,,PR0

     1274     4042    4                       VD$ERR.FLAGLEV# = %FLV_SERIOUS;

   4042  1 000205   000003 220003                    LDX0    3,DU
         1 000206   200014 470500                    LDP0    VD_ERR$,,AUTO
         1 000207   000003 740100                    STX0    3,,PR0

     1275     4043    4                       SUBST_FIELD$ = PINCRW(VD_ERR$, SIZEW(VD$ERR));

   4043  1 000210   200014 236100                    LDQ     VD_ERR$,,AUTO
         1 000211   000005 036003                    ADLQ    5,DU
         1 000212   200015 756100                    STQ     SUBST_FIELD$,,AUTO

     1276     4044    4                       SUBST$NUMBER.OBJECT.CLASS# (0) = %CLS_NUMBER;

   4044  1 000213   000033 221003                    LDX1    27,DU
         1 000214   200015 470500                    LDP0    SUBST_FIELD$,,AUTO
         1 000215   000000 741100                    STX1    0,,PR0

     1277     4045    4                       SUBST$NUMBER.V# (0) = KEY$WORD;

   4045  1 000216   200011 471500                    LDP1    KEY_BUF$,,AUTO
         1 000217   100000 235100                    LDA     0,,PR1
         1 000220   000003 755100                    STA     3,,PR0

     1278     4046    4                       LOCATION.EOF = %TRUE;

   4046  1 000221   200010 473500                    LDP3    @LOCATION,,AUTO
         1 000222   400000 236007                    LDQ     -131072,DL
         1 000223   300010 256100                    ORSQ    8,,PR3

     1279     4047    4                       END;

PL6.E3A0      #010=VDG$BUILD_LOCATION File=VDG$UTILITY.:VDA5TSI                  FRI 07/04/97 11:24 Page:199
   4047  1 000224   000231 710000 1                  TRA     s:4054

     1280     4048
     1281     4049    3               CASE (ELSE);

     1282     4050    3                 CALL VDG$ESCREECH (EXT_RECORD_ORG);

   4050  1 000225   200005 630500                    EPPR0   @EXT_RECORD_ORG,,AUTO
         1 000226   000017 631400 xsym               EPPR1   B_VECTNIL+15
         1 000227   000000 701000 xent               TSX1    VDG$ESCREECH
         1 000230   000000 011000                    NOP     0

     1283     4051    3               END;

     1284     4052    2              END;

     1285     4053
     1286     4054    2           DO SELECT (ERR_CODE.CODE#);

   4054  1 000231   200003 470500                    LDP0    @ERR_CODE,,AUTO
         1 000232   000000 236100                    LDQ     0,,PR0
         1 000233   000003 772000                    QRL     3
         1 000234   037777 376007                    ANQ     16383,DL
         1 000235   000004 116007                    CMPQ    4,DL
         1 000236   000247 602000 1                  TNC     s:4054+14
         1 000237   000253 600000 1                  TZE     s:4056
         1 000240   000006 116007                    CMPQ    6,DL
         1 000241   000257 602000 1                  TNC     s:4060
         1 000242   000253 600000 1                  TZE     s:4056
         1 000243   000003 736000                    QLS     3
         1 000244   001020 116007                    CMPQ    528,DL
         1 000245   000257 601000 1                  TNZ     s:4060
         1 000246   000253 710000 1                  TRA     s:4056
         1 000247   000000 236100                    LDQ     0,,PR0
         1 000250   377770 316007                    CANQ    131064,DL
         1 000251   000253 600000 1                  TZE     s:4056
         1 000252   000257 710000 1                  TRA     s:4060
PL6.E3A0      #010=VDG$BUILD_LOCATION File=VDG$UTILITY.:VDA5TSI                  FRI 07/04/97 11:24 Page:200

     1287     4055    2              SELECT (0, %E$BOF, %E$EOF, %E$NOKEY);

     1288     4056    2              IF GOT_ERROR THEN

   4056  1 000253   200012 234100                    SZN     GOT_ERROR,,AUTO
         1 000254   000256 605000 1                  TPL     s:4058

     1289     4057    2                 ALTRETURN;

   4057  1 000255   000000 702200 xent               TSX2  ! X66_AALT

     1290     4058    2              RETURN;

   4058  1 000256   000000 702200 xent               TSX2  ! X66_ARET

     1291     4059    2              SELECT (ELSE);

     1292     4060    2           CALL VDG$OALLOC (%CLS_ERR, VD_ERR$)

   4060  1 000257   200014 631500                    EPPR1   VD_ERR$,,AUTO
         1 000260   200017 451500                    STP1    SUBST_FIELD$+2,,AUTO
         1 000261   000000 236000 2                  LDQ     0
         1 000262   200016 756100                    STQ     SUBST_FIELD$+1,,AUTO
         1 000263   200016 630500                    EPPR0   SUBST_FIELD$+1,,AUTO
         1 000264   000020 631400 xsym               EPPR1   B_VECTNIL+16
         1 000265   000000 701000 xent               TSX1    VDG$OALLOC
         1 000266   000313 702000 1                  TSX2    BUILD_KEY_FAILED

     1293     4061    2             ALTRET (OALLOC_FAILED);
     1294     4062    2           VD$ERR.ERR = ERR_CODE;

   4062  1 000267   200003 470500                    LDP0    @ERR_CODE,,AUTO
         1 000270   000000 236100                    LDQ     0,,PR0
         1 000271   200014 471500                    LDP1    VD_ERR$,,AUTO
         1 000272   100002 756100                    STQ     2,,PR1

PL6.E3A0      #010=VDG$BUILD_LOCATION File=VDG$UTILITY.:VDA5TSI                  FRI 07/04/97 11:24 Page:201
     1295     4063    2           VD$ERR.FLAGLEV# = %FLV_SERIOUS;

   4063  1 000273   000003 220003                    LDX0    3,DU
         1 000274   200014 471500                    LDP1    VD_ERR$,,AUTO
         1 000275   100003 740100                    STX0    3,,PR1

     1296     4064    3           IF NOT LOCATION.EOF THEN DO;

   4064  1 000276   200010 471500                    LDP1    @LOCATION,,AUTO
         1 000277   100010 236100                    LDQ     8,,PR1
         1 000300   400000 316007                    CANQ    -131072,DL
         1 000301   000312 601000 1                  TNZ     s:4069

     1297     4065    3              SUBST_FIELD$ = PINCRW(VD_ERR$, SIZEW(VD$ERR));

   4065  1 000302   200014 236100                    LDQ     VD_ERR$,,AUTO
         1 000303   000005 036003                    ADLQ    5,DU
         1 000304   200015 756100                    STQ     SUBST_FIELD$,,AUTO

     1298     4066    3              SUBST$POINTER.OBJECT.CLASS# (0) = %CLS_PTR_KEY;

   4066  1 000305   000043 221003                    LDX1    35,DU
         1 000306   200015 473500                    LDP3    SUBST_FIELD$,,AUTO
         1 000307   300000 741100                    STX1    0,,PR3

     1299     4067    3              SUBST$POINTER.V$ (0) = ADDR(LOCATION.KEY (%LVL_EXT_REC-1));

   4067  1 000310   200010 236100                    LDQ     @LOCATION,,AUTO
         1 000311   300003 756100                    STQ     3,,PR3

     1300     4068    3              END;

     1301     4069    2           ALTRETURN;

   4069  1 000312   000000 702200 xent               TSX2  ! X66_AALT

     1302     4070    2              END;
PL6.E3A0      #010=VDG$BUILD_LOCATION File=VDG$UTILITY.:VDA5TSI                  FRI 07/04/97 11:24 Page:202

   4067  1 000313                       BUILD_KEY_F* null
   4067  1 000313                       OALLOC_FAIL* null
     1303     4071
     1304     4072
     1305     4073
     1306     4074    1   BUILD_KEY_FAILED: ;
     1307     4075    1   OALLOC_FAILED: ;
     1308     4076    1           ALTRETURN;

   4076  1 000313   000000 702200 xent               TSX2  ! X66_AALT
     1309     4077
     1310     4078    1   END VDG$BUILD_LOCATION;
     1311     4079        %EOD;

PL6.E3A0      #010=VDG$BUILD_LOCATION File=VDG$UTILITY.:VDA5TSI                  FRI 07/04/97 11:24 Page:203
--  Include file information  --

   B_ERRORS_C.:LIBRARY  is referenced.
   CP_6.:LIBRARY  cannot be made into a system file and is referenced.
   VD_PERR_C.:VDA5TOU  is referenced.
   VD_MACROS_M.:VDA5TOU  is referenced.
   B$JIT_C.:E04TOU  was found in the system file and is never referenced.
   CP_6_C.:E04TOU  was found in the system file and is referenced.
      No diagnostics issued in procedure VDG$BUILD_LOCATION.
PL6.E3A0      #010=VDG$BUILD_LOCATION File=VDG$UTILITY.:VDA5TSI                  FRI 07/04/97 11:24 Page:204

 **** Variables and constants ****

  ****  Auto variables  ****

  ****  Scalars and arrays  ****
OctLoc.c.b A Datatyp(siz) R M Lvl/name                 OctLoc.c.b A Datatyp(siz) R M Lvl/name

     3-0-0/w PTR         r     1 @ERR_CODE                  5-0-0/w PTR         r     1 @EXT_RECORD_ORG
     7-0-0/w PTR         r     1 @FIXED_KEY_LEN             4-0-0/w PTR         r     1 @KEY_BUF
     6-0-0/w PTR         r     1 @KEY_TYPE                 10-0-0/w PTR         r     1 @LOCATION
    *0-0-0/w STRC        r     1 ERR_CODE                  *0-0-0/h SBIN(18)    r     1 EXT_RECORD_ORG
    *0-0-0/w SBIN        r     1 FIXED_KEY_LEN             12-0-0/w BIT         r     1 GOT_ERROR
    *0-0-0/w CHAR(255)   r     1 KEY_BUF                   11-0-0/w PTR         r     1 KEY_BUF$
    *0-0-0/h SBIN(18)    r     1 KEY_TYPE                  *0-0-0/w STRC(324)   r     1 LOCATION
    13-0-0/w SBIN        r     1 NB_KEY                    15-0-0/w PTR         r     1 SUBST_FIELD$
    14-0-0/w PTR         r     1 VD_ERR$

  ****  SYMREF variables  ****

  ****  Scalars and arrays  ****
OctLoc.c.b A Datatyp(siz) R M Lvl/name                 OctLoc.c.b A Datatyp(siz) R M Lvl/name

     0-0-0/w STRC(72)    r     1 VD_KEY_FIRST_CONSEC_REC

  ****  BASED and DCB variables  ****

  ****  Scalars and arrays  ****
OctLoc.c.b A Datatyp(siz) R M Lvl/name                 OctLoc.c.b A Datatyp(siz) R M Lvl/name

     0-0-0/c ASTR(0)     r     1 KEY$FIXED                  0-0-0/w ASTR(9)     r     1 KEY$TEXTC
     0-0-0/w SBIN        r     1 KEY$WORD
     0-0-0/w STRC(144)   r     1 SUBST$NUMBER(0:0)
     0-0-0/w STRC(144)   r     1 SUBST$POINTER(0:0)
     0-0-0/w STRC(180)   r     1 VD$ERR                     0-0-0/w STRC(72)    r     1 VD$KEY_NUMBER
     0-0-0/w ASTR(81)    r     1 VD$TEXTC_REMOTE

PL6.E3A0      #010=VDG$BUILD_LOCATION File=VDG$UTILITY.:VDA5TSI                  FRI 07/04/97 11:24 Page:205

   Procedure VDG$BUILD_LOCATION requires 204 words for executable code.
   Procedure VDG$BUILD_LOCATION requires 18 words of local(AUTO) storage.
PL6.E3A0      #010=VDG$BUILD_LOCATION File=VDG$UTILITY.:VDA5TSI                  FRI 07/04/97 11:24 Page:206
          *** CROSS REFERENCE LISTING ***
**     DENOTES     IDENTIFIER DEFINITION
<<                 IDENTIFIER'S VALUE SET
>>                 IDENTIFIER'S VALUE USED
<>                 IDENTIFIER SET AND/OR USED
--                 IDENTIFIER REFERENCED
PL6.E3A0      #010=VDG$BUILD_LOCATION File=VDG$UTILITY.:VDA5TSI                  FRI 07/04/97 11:24 Page:207
          MINI XREF LISTING

BUILD_KEY_FAILED
      4067**LABEL    4002--CALLALT  4014--CALLALT
ERR_CODE
      3655**DCL        71--PROC     4062>>ASSIGN
ERR_CODE.CODE#
      3659**DCL      3993>>IF       4021>>IF       4054>>DOSELCT
EXT_RECORD_ORG
      3663**DCL        71--PROC     3996>>DOCASE   4050<>CALL
FIXED_KEY_LEN
      3665**DCL        71--PROC     3765--IMP-SIZ  4011>>IF       4014<>CALL     4014>>CALL
GOT_ERROR
      3703**DCL      3991<<ASSIGN   4038<<ASSIGN   4056>>IF
KEY$FIXED
      3764**DCL      4011>>IF
KEY$FIXED.BYTES
      3765**DCL      4014<>CALL
KEY$TEXTC.BYTES
      3759**DCL      4002<>CALL
KEY$TEXTC.LENGTH#
      3757**DCL      3759--IMP-SIZ  3998>>IF       4001>>ASSIGN   4002>>CALL
KEY$WORD
      3766**DCL      4029>>IF       4034>>ASSIGN   4045>>ASSIGN
KEY_BUF
      3662**DCL        71--PROC     3989--ASSIGN
KEY_BUF$
      3702**DCL      3749--IMP-PTR  3764--IMP-PTR  3766--IMP-PTR  3989<<ASSIGN   3998>>IF       4001>>ASSIGN
      4002>>CALL     4002>>CALL     4011>>IF       4014>>CALL     4029>>IF       4034>>ASSIGN   4045>>ASSIGN
KEY_TYPE
      3664**DCL        71--PROC     4005>>IF       4006<<ASSIGN   4007>>ASSIGN   4017>>ASSIGN   4030>>ASSIGN
LOCATION
      3674**DCL        71--PROC     3990<<ASSIGN
LOCATION.EOF
PL6.E3A0      #010=VDG$BUILD_LOCATION File=VDG$UTILITY.:VDA5TSI                  FRI 07/04/97 11:24 Page:208
      3692**DCL      3994<<ASSIGN   3999<<ASSIGN   4012<<ASSIGN   4046<<ASSIGN   4064>>IF
LOCATION.KEY
      3688**DCL      4002<>CALL     4014<>CALL     4027<<ASSIGN   4032--ASSIGN   4034--ASSIGN   4067--ASSIGN
LOCATION.KEY.REP#
      3690**DCL      4031<<ASSIGN
LOCATION.KEY.TYPE#
      3690**DCL      4007<<ASSIGN   4017<<ASSIGN   4030<<ASSIGN
NB_KEY
      3704**DCL      4001<<ASSIGN   4002<>CALL     4005>>IF
OALLOC_FAILED
      4067**LABEL    4039--CALLALT  4060--CALLALT
SUBST$NUMBER.OBJECT.CLASS#
      3936**DCL      4044<<ASSIGN
SUBST$NUMBER.V#
      3938**DCL      4045<<ASSIGN
SUBST$POINTER.OBJECT.CLASS#
      3981**DCL      4066<<ASSIGN
SUBST$POINTER.V$
      3983**DCL      4067<<ASSIGN
SUBST_FIELD$
      3706**DCL      3904--IMP-PTR  3957--IMP-PTR  4043<<ASSIGN   4044>>ASSIGN   4045>>ASSIGN   4065<<ASSIGN
      4066>>ASSIGN   4067>>ASSIGN
VD$ERR
      3851**DCL      4043--ASSIGN   4065--ASSIGN
VD$ERR.ERR
      3888**DCL      4062<<ASSIGN
VD$ERR.ERR.CODE#
      3890**DCL      4041<<ASSIGN
VD$ERR.FLAGLEV#
      3893**DCL      4042<<ASSIGN   4063<<ASSIGN
VD$KEY_NUMBER.BYTES#
      3779**DCL      4034<<ASSIGN
VD$KEY_NUMBER.LENGTH#
      3779**DCL      4032<<ASSIGN
VD$TEXTC_REMOTE.LENGTH#
      3836**DCL      3838--IMP-SIZ
PL6.E3A0      #010=VDG$BUILD_LOCATION File=VDG$UTILITY.:VDA5TSI                  FRI 07/04/97 11:24 Page:209
VDG$BUILD_KEY
      3696**DCL-ENT  4002--CALL     4014--CALL
VDG$ESCREECH
      3698**DCL-ENT  4050--CALL
VDG$OALLOC
      3697**DCL-ENT  4039--CALL     4060--CALL
VD_ERR$
      3705**DCL      3851--IMP-PTR  4039<>CALL     4041>>ASSIGN   4042>>ASSIGN   4043>>ASSIGN   4060<>CALL
      4062>>ASSIGN   4063>>ASSIGN   4065>>ASSIGN
VD_KEY_FIRST_CONSEC_REC
      3732**DCL      4027>>ASSIGN

PL6.E3A0      #011=VDG$BUILD_KEY File=VDG$UTILITY.:VDA5TSI                       FRI 07/04/97 11:24 Page:210
     1312        1        /*T***********************************************************/
     1313        2        /*T*                                                         */
     1314        3        /*T* Copyright (c) Bull HN Information Systems Inc., 1997    */
     1315        4        /*T*                                                         */
     1316        5        /*T***********************************************************/
     1317        6
     1318        7        /*D* NAME: VDG$BUILD_KEY
     1319        8            PARAMETERS:
     1320        9                KEY - A VD$KEY whose .REP# and .V$ are to be filled in.
     1321       10                NB_KEY - An SBIN word containing the number of bytes in the
     1322       11                    record key to build.
     1323       12                BYTES - A Caligned string of bytes.
     1324       13            INPUT:
     1325       14                None.
     1326       15            OUTPUT:
     1327       16                KEY.REP# and KEY.V$ will be filled in appropriately.
     1328       17
     1329       18                                    !!! NOTE !!!
     1330       19                      KEY.TYPE# will not be filled in!! Caller
     1331       20                      must do this when VDG$BUILD_KEY returns!!
     1332       21            DESCRIPTION:
     1333       22                If the key is too long to be local, allocate a VD$REMOTE_TEXTC
     1334       23                object and copy BYTES to it; else copy BYTES to the KEY
     1335       24                structure itself.
     1336       25
     1337       26                Note that no other fields in KEY (ie, .TYPE#) are set
     1338       27                by this routine.
     1339       28        */
     1340       29
     1341       30        VDG$BUILD_KEY: PROC (KEY, NB_KEY, BYTES) ALTRET;
     1342       31
     1343       32        %INCLUDE VD_MACROS_M;
     1344     2247        %INCLUDE VD_PERR_C;
     1345     2395
     1346     2396
     1347     2397        %VD$KEY (NAME=KEY, STCLASS=PARAM);
     1348     2411    1   DCL NB_KEY SBIN;
PL6.E3A0      #011=VDG$BUILD_KEY File=VDG$UTILITY.:VDA5TSI                       FRI 07/04/97 11:24 Page:211
     1349     2412    1   DCL BYTES CHAR(NB_KEY) CALIGNED;
     1350     2413
     1351     2414
     1352     2415    1   DCL VDG$OALLOC          ENTRY (3) ALTRET;
     1353     2416
     1354     2417
     1355     2418
     1356     2419        %VD$TEXTC (NAME=TEXTC, STCLASS=BASED);
     1357     2442        %VD$TEXTC_REMOTE;
     1358     2503        %VD$STRING_HEADER;
     1359     2539
     1360     2540
     1361     2541
     1362     2542    2           IF NB_KEY > %MXNB_STRING_LOCAL THEN DO;
     1363     2543    2              CALL VDG$OALLOC (%CLS_TEXTC_REMOTE, KEY.V$,
     1364     2544    2                (LENGTHC(VD$STRING_HEADER) + NB_KEY + %NB_PER_WORD-1) /
     1365     2545    2                %NB_PER_WORD)
     1366     2546    2                ALTRET (OALLOC_FAILED);
     1367     2547    2              KEY.REP# = %REP_REMOTE;
     1368     2548    2              KEY.V$->VD$TEXTC_REMOTE.LENGTH# = NB_KEY;
     1369     2549    2              KEY.V$->VD$TEXTC_REMOTE.BYTES = BYTES;
     1370     2550    2              END;
     1371     2551    2           ELSE DO;
     1372     2552    2              KEY.REP# = %REP_LOCAL;
     1373     2553    2              ADDR(KEY.V$)->TEXTC.LENGTH# = NB_KEY;
     1374     2554    2              ADDR(KEY.V$)->TEXTC.BYTES = BYTES;
     1375     2555    2              END;
     1376     2556
     1377     2557    1           RETURN;
     1378     2558
     1379     2559
     1380     2560    1   OALLOC_FAILED: ;
     1381     2561    1           ALTRETURN;
     1382     2562
     1383     2563    1   END VDG$BUILD_KEY;
     1384     2564        %EOD;

PL6.E3A0      #011=VDG$BUILD_KEY File=VDG$UTILITY.:VDA5TSI                       FRI 07/04/97 11:24 Page:212
--  Include file information  --

   VD_PERR_C.:VDA5TOU  is referenced.
   VD_MACROS_M.:VDA5TOU  is referenced.
   B$JIT_C.:E04TOU  was found in the system file and is never referenced.
   CP_6_C.:E04TOU  was found in the system file and is never referenced.
      No diagnostics issued in procedure VDG$BUILD_KEY.

   Procedure VDG$BUILD_KEY requires 55 words for executable code.
   Procedure VDG$BUILD_KEY requires 10 words of local(AUTO) storage.

PL6.E3A0      #011=VDG$BUILD_KEY File=VDG$UTILITY.:VDA5TSI                       FRI 07/04/97 11:24 Page:213

 Object Unit name= VDG$BUILD_KEY                              File name= VDG$UTILITY.:VDA5TOU
 UTS= JUL 04 '97 11:24:14.36 FRI                              Compiler= PL-6/E31         Sev=      00
 SharedLib= :SHARED_SYSTEM                                    Alt SharedLib=


    ****  Control sections  ****

 Sect   Type Bound  Init  Size OctSiz  Section name(segment info)
    0   Proc  even  none    55     67  VDG$BUILD_KEY
    1  RoData even  none     2      2  VDG$BUILD_KEY

    ****  Entry defs  ****

                              Check   Calling
                             calling  sequence
  Sect OctLoc Primary Altret sequence   type   Parms  Name
     0      0   yes    yes     yes      Std        3  VDG$BUILD_KEY

  ****  Entry refs  ****

         Check        Calling
        calling       sequence
Altret sequence SRef   type   Args  Name
 yes     yes           Std       3 VDG$OALLOC
                       nStd      0 X66_AUTO_3
                       Std       0 B_CONSPOOL_D
                       nStd      0 X66_ARET
                       nStd      0 X66_AALT

  ****  Data refs  ****

  Flags:  r = read only, s = secondary
Flgs Name                             Flgs Name                             Flgs Name
     B_VECTNIL
PL6.E3A0      #011=VDG$BUILD_KEY File=VDG$UTILITY.:VDA5TSI                       FRI 07/04/97 11:24 Page:214

  ****  Segment refs  ****

  Flags:  r = read only, s = secondary
Flgs Name                             Flgs Name                             Flgs Name
     ISSID
PL6.E3A0      #011=VDG$BUILD_KEY File=VDG$UTILITY.:VDA5TSI                       FRI 07/04/97 11:24 Page:215


     1312        1        /*T***********************************************************/
     1313        2        /*T*                                                         */
     1314        3        /*T* Copyright (c) Bull HN Information Systems Inc., 1997    */
     1315        4        /*T*                                                         */
     1316        5        /*T***********************************************************/
     1317        6
     1318        7        /*D* NAME: VDG$BUILD_KEY
     1319        8            PARAMETERS:
     1320        9                KEY - A VD$KEY whose .REP# and .V$ are to be filled in.
     1321       10                NB_KEY - An SBIN word containing the number of bytes in the
     1322       11                    record key to build.
     1323       12                BYTES - A Caligned string of bytes.
     1324       13            INPUT:
     1325       14                None.
     1326       15            OUTPUT:
     1327       16                KEY.REP# and KEY.V$ will be filled in appropriately.
     1328       17
     1329       18                                    !!! NOTE !!!
     1330       19                      KEY.TYPE# will not be filled in!! Caller
     1331       20                      must do this when VDG$BUILD_KEY returns!!
     1332       21            DESCRIPTION:
     1333       22                If the key is too long to be local, allocate a VD$REMOTE_TEXTC
     1334       23                object and copy BYTES to it; else copy BYTES to the KEY
     1335       24                structure itself.
     1336       25
     1337       26                Note that no other fields in KEY (ie, .TYPE#) are set
     1338       27                by this routine.
     1339       28        */
     1340       29
     1341       30        VDG$BUILD_KEY: PROC (KEY, NB_KEY, BYTES) ALTRET;

     30  0 000000   000000 700200 xent  VDG$BUILD_K* TSX0  ! X66_AUTO_3
         0 000001   000012 000003                    ZERO    10,3

     1342       31
     1343       32        %INCLUDE VD_MACROS_M;
PL6.E3A0      #011=VDG$BUILD_KEY File=VDG$UTILITY.:VDA5TSI                       FRI 07/04/97 11:24 Page:216
     1344     2247        %INCLUDE VD_PERR_C;
     1345     2395
     1346     2396
     1347     2397        %VD$KEY (NAME=KEY, STCLASS=PARAM);
     1348     2411    1   DCL NB_KEY SBIN;
     1349     2412    1   DCL BYTES CHAR(NB_KEY) CALIGNED;
     1350     2413
     1351     2414
     1352     2415    1   DCL VDG$OALLOC          ENTRY (3) ALTRET;
     1353     2416
     1354     2417
     1355     2418
     1356     2419        %VD$TEXTC (NAME=TEXTC, STCLASS=BASED);
     1357     2442        %VD$TEXTC_REMOTE;
     1358     2503        %VD$STRING_HEADER;
     1359     2539
     1360     2540
     1361     2541
     1362     2542    2           IF NB_KEY > %MXNB_STRING_LOCAL THEN DO;

   2542  0 000002   200004 470500                    LDP0    @NB_KEY,,AUTO
         0 000003   000000 235100                    LDA     0,,PR0
         0 000004   000003 115007                    CMPA    3,DL
         0 000005   000047 604400 0                  TMOZ    s:2552

     1363     2543    2              CALL VDG$OALLOC (%CLS_TEXTC_REMOTE, KEY.V$,

   2543  0 000006   000000 236100                    LDQ     0,,PR0
         0 000007   000014 036007                    ADLQ    12,DL
         0 000010   000004 506007                    DIV     4,DL
         0 000011   200006 756100                    STQ     @BYTES+1,,AUTO
         0 000012   200006 631500                    EPPR1   @BYTES+1,,AUTO
         0 000013   200011 451500                    STP1    @BYTES+4,,AUTO
         0 000014   200003 236100                    LDQ     @KEY,,AUTO
         0 000015   000001 036003                    ADLQ    1,DU
         0 000016   200010 756100                    STQ     @BYTES+3,,AUTO
         0 000017   000001 236000 1                  LDQ     1
PL6.E3A0      #011=VDG$BUILD_KEY File=VDG$UTILITY.:VDA5TSI                       FRI 07/04/97 11:24 Page:217
         0 000020   200007 756100                    STQ     @BYTES+2,,AUTO
         0 000021   200007 630500                    EPPR0   @BYTES+2,,AUTO
         0 000022   000021 631400 xsym               EPPR1   B_VECTNIL+17
         0 000023   000000 701000 xent               TSX1    VDG$OALLOC
         0 000024   000066 702000 0                  TSX2    OALLOC_FAILED

     1364     2544    2                (LENGTHC(VD$STRING_HEADER) + NB_KEY + %NB_PER_WORD-1) /
     1365     2545    2                %NB_PER_WORD)
     1366     2546    2                ALTRET (OALLOC_FAILED);
     1367     2547    2              KEY.REP# = %REP_REMOTE;

   2547  0 000025   000002 220003                    LDX0    2,DU
         0 000026   200003 470500                    LDP0    @KEY,,AUTO
         0 000027   000000 440100                    SXL0    0,,PR0

     1368     2548    2              KEY.V$->VD$TEXTC_REMOTE.LENGTH# = NB_KEY;

   2548  0 000030   000001 471500                    LDP1    1,,PR0
         0 000031   200004 473500                    LDP3    @NB_KEY,,AUTO
         0 000032   300000 236100                    LDQ     0,,PR3
         0 000033   000033 736000                    QLS     27
         0 000034   100002 552140                    STBQ    2,'40'O,PR1

     1369     2549    2              KEY.V$->VD$TEXTC_REMOTE.BYTES = BYTES;

   2549  0 000035   000001 471500                    LDP1    1,,PR0
         0 000036   100002 236100                    LDQ     2,,PR1
         0 000037   000033 772000                    QRL     27
         0 000040   300000 721100                    LXL1    0,,PR3
         0 000041   200005 474500                    LDP4    @BYTES,,AUTO
         0 000042   000000 622006                    EAX2    0,QL
         0 000043   040140 100540                    MLR     fill='040'O
         0 000044   400000 000011                    ADSC9   0,,PR4                   cn=0,n=*X1
         0 000045   100002 200012                    ADSC9   2,,PR1                   cn=1,n=*X2

     1370     2550    2              END;

PL6.E3A0      #011=VDG$BUILD_KEY File=VDG$UTILITY.:VDA5TSI                       FRI 07/04/97 11:24 Page:218
   2550  0 000046   000065 710000 0                  TRA     s:2557

     1371     2551    2           ELSE DO;

     1372     2552    2              KEY.REP# = %REP_LOCAL;

   2552  0 000047   000001 220003                    LDX0    1,DU
         0 000050   200003 471500                    LDP1    @KEY,,AUTO
         0 000051   100000 440100                    SXL0    0,,PR1

     1373     2553    2              ADDR(KEY.V$)->TEXTC.LENGTH# = NB_KEY;

   2553  0 000052   000000 236100                    LDQ     0,,PR0
         0 000053   000033 736000                    QLS     27
         0 000054   100001 552140                    STBQ    1,'40'O,PR1

     1374     2554    2              ADDR(KEY.V$)->TEXTC.BYTES = BYTES;

   2554  0 000055   100001 236100                    LDQ     1,,PR1
         0 000056   000033 772000                    QRL     27
         0 000057   000000 721100                    LXL1    0,,PR0
         0 000060   200005 473500                    LDP3    @BYTES,,AUTO
         0 000061   000000 622006                    EAX2    0,QL
         0 000062   040140 100540                    MLR     fill='040'O
         0 000063   300000 000011                    ADSC9   0,,PR3                   cn=0,n=*X1
         0 000064   100001 200012                    ADSC9   1,,PR1                   cn=1,n=*X2

     1375     2555    2              END;

     1376     2556
     1377     2557    1           RETURN;

   2557  0 000065   000000 702200 xent               TSX2  ! X66_ARET

   2549  0 000066                       OALLOC_FAIL* null
     1378     2558
     1379     2559
PL6.E3A0      #011=VDG$BUILD_KEY File=VDG$UTILITY.:VDA5TSI                       FRI 07/04/97 11:24 Page:219
     1380     2560    1   OALLOC_FAILED: ;
     1381     2561    1           ALTRETURN;

   2561  0 000066   000000 702200 xent               TSX2  ! X66_AALT
     1382     2562
     1383     2563    1   END VDG$BUILD_KEY;
     1384     2564        %EOD;

PL6.E3A0      #011=VDG$BUILD_KEY File=VDG$UTILITY.:VDA5TSI                       FRI 07/04/97 11:24 Page:220
--  Include file information  --

   VD_PERR_C.:VDA5TOU  is referenced.
   VD_MACROS_M.:VDA5TOU  is referenced.
   B$JIT_C.:E04TOU  was found in the system file and is never referenced.
   CP_6_C.:E04TOU  was found in the system file and is never referenced.
      No diagnostics issued in procedure VDG$BUILD_KEY.
PL6.E3A0      #011=VDG$BUILD_KEY File=VDG$UTILITY.:VDA5TSI                       FRI 07/04/97 11:24 Page:221

 **** Variables and constants ****

  ****  Auto variables  ****

  ****  Scalars and arrays  ****
OctLoc.c.b A Datatyp(siz) R M Lvl/name                 OctLoc.c.b A Datatyp(siz) R M Lvl/name

     5-0-0/w PTR         r     1 @BYTES                     3-0-0/w PTR         r     1 @KEY
     4-0-0/w PTR         r     1 @NB_KEY                   *0-0-0/c ACHR        r     1 BYTES
    *0-0-0/w STRC(72)    r     1 KEY                       *0-0-0/w SBIN        r     1 NB_KEY

  ****  BASED and DCB variables  ****

  ****  Scalars and arrays  ****
OctLoc.c.b A Datatyp(siz) R M Lvl/name                 OctLoc.c.b A Datatyp(siz) R M Lvl/name

     0-0-0/w ASTR(9)     r     1 TEXTC                      0-0-0/w STRC(81)    r     1 VD$STRING_HEADER
     0-0-0/w ASTR(81)    r     1 VD$TEXTC_REMOTE


   Procedure VDG$BUILD_KEY requires 55 words for executable code.
   Procedure VDG$BUILD_KEY requires 10 words of local(AUTO) storage.
PL6.E3A0      #011=VDG$BUILD_KEY File=VDG$UTILITY.:VDA5TSI                       FRI 07/04/97 11:24 Page:222
          *** CROSS REFERENCE LISTING ***
**     DENOTES     IDENTIFIER DEFINITION
<<                 IDENTIFIER'S VALUE SET
>>                 IDENTIFIER'S VALUE USED
<>                 IDENTIFIER SET AND/OR USED
--                 IDENTIFIER REFERENCED
PL6.E3A0      #011=VDG$BUILD_KEY File=VDG$UTILITY.:VDA5TSI                       FRI 07/04/97 11:24 Page:223
          MINI XREF LISTING

BYTES
      2412**DCL        30--PROC     2549>>ASSIGN   2554>>ASSIGN
KEY
      2405**DCL        30--PROC
KEY.REP#
      2409**DCL      2547<<ASSIGN   2552<<ASSIGN
KEY.V$
      2409**DCL      2543<>CALL     2548>>ASSIGN   2549>>ASSIGN   2549>>ASSIGN   2553--ASSIGN   2554--ASSIGN
      2554--ASSIGN
NB_KEY
      2411**DCL        30--PROC     2412--IMP-SIZ  2542>>IF       2543>>CALL     2548>>ASSIGN   2549>>ASSIGN
      2553>>ASSIGN   2554>>ASSIGN
OALLOC_FAILED
      2549**LABEL    2543--CALLALT
TEXTC.BYTES
      2437**DCL      2554<<ASSIGN
TEXTC.LENGTH#
      2435**DCL      2437--IMP-SIZ  2553<<ASSIGN   2554>>ASSIGN
VD$STRING_HEADER
      2511**DCL      2543--CALL
VD$TEXTC_REMOTE.BYTES
      2498**DCL      2549<<ASSIGN
VD$TEXTC_REMOTE.LENGTH#
      2496**DCL      2498--IMP-SIZ  2548<<ASSIGN   2549>>ASSIGN
VDG$OALLOC
      2415**DCL-ENT  2543--CALL

PL6.E3A0      #012=VDG$FORMAT_NUMBER File=VDG$UTILITY.:VDA5TSI                   FRI 07/04/97 11:24 Page:224
     1385        1        /*T***********************************************************/
     1386        2        /*T*                                                         */
     1387        3        /*T* Copyright (c) Bull HN Information Systems Inc., 1997    */
     1388        4        /*T*                                                         */
     1389        5        /*T***********************************************************/
     1390        6
     1391        7        /*D* NAME: VDG$FORMAT_NUMBER
     1392        8            PARAMETERS:
     1393        9                CLASS - A %CLS_ value.
     1394       10                NUMBER - An SBIN WORD.
     1395       11                NB_BUFFER - # bytes in BUFFER below.
     1396       12                BUFFER - Character buffer, uninitialized at entry.
     1397       13                START_INDEX - Index into BUFFER at which to start formating.
     1398       14                END_INDEX - Uninitialized word.
     1399       15            INPUT:
     1400       16            OUTPUT:
     1401       17                BUFFER will be modified.  Characters from START_INDEX thru
     1402       18                    (new value of END_INDEX) - 1, will be the displayable form of
     1403       19                    NUMBER.
     1404       20                END_INDEX will contain the index into BUFFER of the byte
     1405       21                    after the last one occupied by the displayable form
     1406       22                    of NUMBER.
     1407       23            DESCRIPTION:
     1408       24                For %CLS_NUMBER, BINXCHAR into an auto buffer, then strip zeros
     1409       25                    and move to BUFFER.
     1410       26                For booleans and enumerated types, find the appropriate
     1411       27                    keyword based on the value of NUMBER, and copy the
     1412       28                    keyword into BUFFER.
     1413       29        */
     1414       30
     1415       31        VDG$FORMAT_NUMBER: PROC (CLASS, NUMBER, NB_BUFFER, BUFFER, START_INDEX,
     1416       32                  END_INDEX);
     1417       33
     1418       34    1   DCL CLASS SBIN;
     1419       35    1   DCL NUMBER SBIN;
     1420       36    1   DCL NB_BUFFER SBIN;
     1421       37    1   DCL BUFFER CHAR(NB_BUFFER) CALIGNED;
PL6.E3A0      #012=VDG$FORMAT_NUMBER File=VDG$UTILITY.:VDA5TSI                   FRI 07/04/97 11:24 Page:225
     1422       38    1   DCL START_INDEX SBIN;
     1423       39    1   DCL END_INDEX SBIN;
     1424       40
     1425       41
     1426       42        %INCLUDE VD_MACROS_M;
     1427     2257        %INCLUDE B$TABLES_C;
     1428     2365
     1429     2366
     1430     2367        %B$SR_NON_ZERO;
     1431     2371        %VD_OBJECTS (STCLASS=SYMREF);
     1432     2411
     1433     2412
     1434     2413        %VD_TEXTC (NAME=BAD_VALUE_TEXTC, STCLASS=CONSTANT, IBYTES="%CHR_BAD_VALUE");
     1435     2554
     1436     2555
     1437     2556
     1438     2557    1   DCL BINBUF CHAR(%MXNB_NUM_DISPLAY);
     1439     2558    1   DCL MSD_INDEX SBIN;
     1440     2559    1   DCL TABLE_INDEX SBIN;
     1441     2560    1   DCL TABLE$ PTR;
     1442     2561    1   DCL TABLE_ENTRY$ PTR;
     1443     2562
     1444     2563
     1445     2564    1   DCL 1 TABLE BASED(TABLE$),
     1446     2565    1         2 N_ENTRIES# SBIN,
     1447     2566              %VD_TEXTC (NAME=DW, DIM="(0:0)", LEVEL=2, STCLASS=BASED, MXNB=%MXNB_DW);
     1448     2707        %VD_TEXTC (NAME=TABLE$ENTRY, STCLASS="BASED(TABLE_ENTRY$)");
     1449     2848
     1450     2849
     1451     2850
     1452     2851    1           IF CLASS = %CLS_NUMBER THEN
     1453     2852    2   NUMBER_CLASS: DO;
     1454     2853    2              CALL BINXCHAR (BINBUF, NUMBER);
     1455     2854    2              CALL SEARCH (MSD_INDEX, TABLE_INDEX, B$SR_NON_ZERO,
     1456     2855    2                BINBUF, 1);    /* Skip leading sign */
     1457     2856    2              IF TABLE_INDEX = 0 THEN
     1458     2857    2                 MSD_INDEX = MSD_INDEX - 1;
PL6.E3A0      #012=VDG$FORMAT_NUMBER File=VDG$UTILITY.:VDA5TSI                   FRI 07/04/97 11:24 Page:226
     1459     2858    3              IF SUBSTR(BINBUF, 0, 1) = %CHR_MINUS THEN DO;
     1460     2859    3                 CALL INSERT (BUFFER, START_INDEX, , %CHR_MINUS);
     1461     2860    3                 END_INDEX = START_INDEX + %LENGTHC(CHR_MINUS);
     1462     2861    3                 END;
     1463     2862    2              ELSE
     1464     2863    2                 END_INDEX = START_INDEX;
     1465     2864    2              CALL INSERT (BUFFER, END_INDEX, , SUBSTR(BINBUF, MSD_INDEX));
     1466     2865    2              END_INDEX = END_INDEX + (LENGTHC(BINBUF) - MSD_INDEX);
     1467     2866    2              END NUMBER_CLASS;
     1468     2867    1           ELSE
     1469     2868    2   ENUMERATED_CLASS: DO;
     1470     2869    2              TABLE_INDEX = NUMBER;     /* So we can change it */
     1471     2870    3              IF CLASS = %CLS_BOOLEAN THEN DO;
     1472     2871    3                 IF TABLE_INDEX > 0 THEN
     1473     2872    3                    TABLE_INDEX = %BITBIN(TRUE);
     1474     2873    3                 ELSE
     1475     2874    3                    TABLE_INDEX = %BITBIN(FALSE);
     1476     2875    3                 END;
     1477     2876
     1478     2877    2              IF CLASS >= %CLS_MX
     1479     2878    2                OR VD_OBJECTS.FMT$ (CLASS) = ADDR(NIL) THEN
     1480     2879    2                 TABLE_ENTRY$ = ADDR(BAD_VALUE_TEXTC);
     1481     2880    3              ELSE DO;
     1482     2881    3                 TABLE$ = VD_OBJECTS.FMT$ (CLASS);
     1483     2882    3                 IF TABLE_INDEX >= TABLE.N_ENTRIES# THEN
     1484     2883    3                    TABLE_ENTRY$ = ADDR(BAD_VALUE_TEXTC);
     1485     2884    3                 ELSE
     1486     2885    3                    TABLE_ENTRY$ = ADDR(TABLE.DW (TABLE_INDEX));
     1487     2886    3                 END;
     1488     2887
     1489     2888    2              CALL INSERT (BUFFER, START_INDEX, , TABLE$ENTRY.BYTES);
     1490     2889    2              END_INDEX = START_INDEX + TABLE$ENTRY.LENGTH#;
     1491     2890    2              END ENUMERATED_CLASS;
     1492     2891
     1493     2892    1           RETURN;
     1494     2893
     1495     2894    1   END VDG$FORMAT_NUMBER;
PL6.E3A0      #012=VDG$FORMAT_NUMBER File=VDG$UTILITY.:VDA5TSI                   FRI 07/04/97 11:24 Page:227
     1496     2895        %EOD;

PL6.E3A0      #012=VDG$FORMAT_NUMBER File=VDG$UTILITY.:VDA5TSI                   FRI 07/04/97 11:24 Page:228
--  Include file information  --

   B$TABLES_C.:LIBRARY  cannot be made into a system file and is referenced.
   VD_MACROS_M.:VDA5TOU  is referenced.
   B$JIT_C.:E04TOU  was found in the system file and is never referenced.
   CP_6_C.:E04TOU  was found in the system file and is never referenced.
      No diagnostics issued in procedure VDG$FORMAT_NUMBER.

   Procedure VDG$FORMAT_NUMBER requires 136 words for executable code.
   Procedure VDG$FORMAT_NUMBER requires 20 words of local(AUTO) storage.

PL6.E3A0      #012=VDG$FORMAT_NUMBER File=VDG$UTILITY.:VDA5TSI                   FRI 07/04/97 11:24 Page:229

 Object Unit name= VDG$FORMAT_NUMBER                          File name= VDG$UTILITY.:VDA5TOU
 UTS= JUL 04 '97 11:24:19.80 FRI                              Compiler= PL-6/E31         Sev=      00
 SharedLib= :SHARED_SYSTEM                                    Alt SharedLib=


    ****  Control sections  ****

 Sect   Type Bound  Init  Size OctSiz  Section name(segment info)
    0  RoData even  UTS      1      1  VDG$FORMAT_NUMBER
    1   Proc  even  none   136    210  VDG$FORMAT_NUMBER
    2  RoData even  none     2      2  VDG$FORMAT_NUMBER

    ****  Entry defs  ****

                              Check   Calling
                             calling  sequence
  Sect OctLoc Primary Altret sequence   type   Parms  Name
     1      0   yes            yes      Std        6  VDG$FORMAT_NUMBER

  ****  Entry refs  ****

         Check        Calling
        calling       sequence
Altret sequence SRef   type   Args  Name
         yes          ~proc      0 B_POINTER
                       nStd      0 X66_AUTO_N
                       Std       0 B_CONSPOOL_D
                       nStd      0 X66_ARET

  ****  Data refs  ****

  Flags:  r = read only, s = secondary
Flgs Name                             Flgs Name                             Flgs Name
r    B$SR_NON_ZERO$                        VD_OBJECTS                            B_VECTNIL
PL6.E3A0      #012=VDG$FORMAT_NUMBER File=VDG$UTILITY.:VDA5TSI                   FRI 07/04/97 11:24 Page:230

  ****  Segment refs  ****

  Flags:  r = read only, s = secondary
Flgs Name                             Flgs Name                             Flgs Name
     ISSID
PL6.E3A0      #012=VDG$FORMAT_NUMBER File=VDG$UTILITY.:VDA5TSI                   FRI 07/04/97 11:24 Page:231


     1385        1        /*T***********************************************************/
     1386        2        /*T*                                                         */
     1387        3        /*T* Copyright (c) Bull HN Information Systems Inc., 1997    */
     1388        4        /*T*                                                         */
     1389        5        /*T***********************************************************/
     1390        6
     1391        7        /*D* NAME: VDG$FORMAT_NUMBER
     1392        8            PARAMETERS:
     1393        9                CLASS - A %CLS_ value.
     1394       10                NUMBER - An SBIN WORD.
     1395       11                NB_BUFFER - # bytes in BUFFER below.
     1396       12                BUFFER - Character buffer, uninitialized at entry.
     1397       13                START_INDEX - Index into BUFFER at which to start formating.
     1398       14                END_INDEX - Uninitialized word.
     1399       15            INPUT:
     1400       16            OUTPUT:
     1401       17                BUFFER will be modified.  Characters from START_INDEX thru
     1402       18                    (new value of END_INDEX) - 1, will be the displayable form of
     1403       19                    NUMBER.
     1404       20                END_INDEX will contain the index into BUFFER of the byte
     1405       21                    after the last one occupied by the displayable form
     1406       22                    of NUMBER.
     1407       23            DESCRIPTION:
     1408       24                For %CLS_NUMBER, BINXCHAR into an auto buffer, then strip zeros
     1409       25                    and move to BUFFER.
     1410       26                For booleans and enumerated types, find the appropriate
     1411       27                    keyword based on the value of NUMBER, and copy the
     1412       28                    keyword into BUFFER.
     1413       29        */
     1414       30
     1415       31        VDG$FORMAT_NUMBER: PROC (CLASS, NUMBER, NB_BUFFER, BUFFER, START_INDEX,

     31  1 000000   000000 700200 xent  VDG$FORMAT_* TSX0  ! X66_AUTO_N
         1 000001   000024 000006                    ZERO    20,6

     1416       32                  END_INDEX);
PL6.E3A0      #012=VDG$FORMAT_NUMBER File=VDG$UTILITY.:VDA5TSI                   FRI 07/04/97 11:24 Page:232
     1417       33
     1418       34    1   DCL CLASS SBIN;
     1419       35    1   DCL NUMBER SBIN;
     1420       36    1   DCL NB_BUFFER SBIN;
     1421       37    1   DCL BUFFER CHAR(NB_BUFFER) CALIGNED;
     1422       38    1   DCL START_INDEX SBIN;
     1423       39    1   DCL END_INDEX SBIN;
     1424       40
     1425       41
     1426       42        %INCLUDE VD_MACROS_M;
     1427     2257        %INCLUDE B$TABLES_C;
     1428     2365
     1429     2366
     1430     2367        %B$SR_NON_ZERO;
     1431     2371        %VD_OBJECTS (STCLASS=SYMREF);
     1432     2411
     1433     2412
     1434     2413        %VD_TEXTC (NAME=BAD_VALUE_TEXTC, STCLASS=CONSTANT, IBYTES="%CHR_BAD_VALUE");
     1435     2554
     1436     2555
     1437     2556
     1438     2557    1   DCL BINBUF CHAR(%MXNB_NUM_DISPLAY);
     1439     2558    1   DCL MSD_INDEX SBIN;
     1440     2559    1   DCL TABLE_INDEX SBIN;
     1441     2560    1   DCL TABLE$ PTR;
     1442     2561    1   DCL TABLE_ENTRY$ PTR;
     1443     2562
     1444     2563
     1445     2564    1   DCL 1 TABLE BASED(TABLE$),
     1446     2565    1         2 N_ENTRIES# SBIN,
     1447     2566              %VD_TEXTC (NAME=DW, DIM="(0:0)", LEVEL=2, STCLASS=BASED, MXNB=%MXNB_DW);
     1448     2707        %VD_TEXTC (NAME=TABLE$ENTRY, STCLASS="BASED(TABLE_ENTRY$)");
     1449     2848
     1450     2849
     1451     2850
     1452     2851    1           IF CLASS = %CLS_NUMBER THEN

PL6.E3A0      #012=VDG$FORMAT_NUMBER File=VDG$UTILITY.:VDA5TSI                   FRI 07/04/97 11:24 Page:233
   2851  1 000002   200003 470500                    LDP0    @CLASS,,AUTO
         1 000003   000000 235100                    LDA     0,,PR0
         1 000004   000033 115007                    CMPA    27,DL
         1 000005   000111 601000 1                  TNZ     ENUMERATED_CLASS

     1453     2852    2   NUMBER_CLASS: DO;

   2852  1 000006                       NUMBER_CLASS null
     1454     2853    2              CALL BINXCHAR (BINBUF, NUMBER);

   2853  1 000006   200004 471500                    LDP1    @NUMBER,,AUTO
         1 000007   000100 301500                    BTD
         1 000010   100000 000004                    NDSC9   0,,PR1                   cn=0,s=lsgnf,sf=0,n=4
         1 000011   200011 010015                    NDSC9   BINBUF,,AUTO             cn=0,s=lsgns,sf=0,n=13

     1455     2854    2              CALL SEARCH (MSD_INDEX, TABLE_INDEX, B$SR_NON_ZERO,

   2854  1 000012   000000 473400 xsym               LDP3    B$SR_NON_ZERO$
         1 000013   000000 164500                    TCT
         1 000014   200011 200014                    ADSC9   BINBUF,,AUTO             cn=1,n=12
         1 000015   300000 000100                    ARG     0,,PR3
         1 000016   200015 000100                    ARG     MSD_INDEX,,AUTO
         1 000017   200015 236100                    LDQ     MSD_INDEX,,AUTO
         1 000020   000044 737000                    LLS     36
         1 000021   000033 771000                    ARL     27
         1 000022   200016 755100                    STA     TABLE_INDEX,,AUTO
         1 000023   200015 551140                    STBA    MSD_INDEX,'40'O,AUTO
         1 000024   200015 054100                    AOS     MSD_INDEX,,AUTO

     1456     2855    2                BINBUF, 1);    /* Skip leading sign */
     1457     2856    2              IF TABLE_INDEX = 0 THEN

   2856  1 000025   000000 115003                    CMPA    0,DU
         1 000026   000031 601000 1                  TNZ     s:2858

     1458     2857    2                 MSD_INDEX = MSD_INDEX - 1;

PL6.E3A0      #012=VDG$FORMAT_NUMBER File=VDG$UTILITY.:VDA5TSI                   FRI 07/04/97 11:24 Page:234
   2857  1 000027   000001 336007                    LCQ     1,DL
         1 000030   200015 056100                    ASQ     MSD_INDEX,,AUTO

     1459     2858    3              IF SUBSTR(BINBUF, 0, 1) = %CHR_MINUS THEN DO;

   2858  1 000031   200011 236100                    LDQ     BINBUF,,AUTO
         1 000032   777000 376003                    ANQ     -512,DU
         1 000033   055000 116003                    CMPQ    23040,DU
         1 000034   000056 601000 1                  TNZ     s:2863

     1460     2859    3                 CALL INSERT (BUFFER, START_INDEX, , %CHR_MINUS);

   2859  1 000035   200005 474500                    LDP4    @NB_BUFFER,,AUTO
         1 000036   400000 720100                    LXL0    0,,PR4
         1 000037   200007 475500                    LDP5    @START_INDEX,,AUTO
         1 000040   000000 636010                    EAQ     0,X0
         1 000041   000022 732000                    QRS     18
         1 000042   500000 136100                    SBLQ    0,,PR5
         1 000043   500000 235100                    LDA     0,,PR5
         1 000044   200006 476500                    LDP6    @BUFFER,,AUTO
         1 000045   000000 621006                    EAX1    0,QL
         1 000046   040145 100400                    MLR     fill='040'O
         1 000047   000000 000001 2                  ADSC9   0                        cn=0,n=1
         1 000050   600000 000011                    ADSC9   0,A,PR6                  cn=0,n=*X1

     1461     2860    3                 END_INDEX = START_INDEX + %LENGTHC(CHR_MINUS);

   2860  1 000051   200010 477500                    LDP7    @END_INDEX,,AUTO
         1 000052   500000 235100                    LDA     0,,PR5
         1 000053   000001 035007                    ADLA    1,DL
         1 000054   700000 755100                    STA     0,,PR7

     1462     2861    3                 END;

   2861  1 000055   000062 710000 1                  TRA     s:2864

     1463     2862    2              ELSE
PL6.E3A0      #012=VDG$FORMAT_NUMBER File=VDG$UTILITY.:VDA5TSI                   FRI 07/04/97 11:24 Page:235
     1464     2863    2                 END_INDEX = START_INDEX;

   2863  1 000056   200007 474500                    LDP4    @START_INDEX,,AUTO
         1 000057   200010 475500                    LDP5    @END_INDEX,,AUTO
         1 000060   400000 235100                    LDA     0,,PR4
         1 000061   500000 755100                    STA     0,,PR5

     1465     2864    2              CALL INSERT (BUFFER, END_INDEX, , SUBSTR(BINBUF, MSD_INDEX));

   2864  1 000062   200005 474500                    LDP4    @NB_BUFFER,,AUTO
         1 000063   400000 720100                    LXL0    0,,PR4
         1 000064   200010 475500                    LDP5    @END_INDEX,,AUTO
         1 000065   000000 636010                    EAQ     0,X0
         1 000066   000022 732000                    QRS     18
         1 000067   500000 136100                    SBLQ    0,,PR5
         1 000070   500000 235100                    LDA     0,,PR5
         1 000071   200015 721100                    LXL1    MSD_INDEX,,AUTO
         1 000072   777762 621011                    EAX1    -14,X1
         1 000073   777777 661003                    ERX1    -1,DU
         1 000074   200022 755100                    STA     TABLE_ENTRY$+2,,AUTO
         1 000075   200015 235100                    LDA     MSD_INDEX,,AUTO
         1 000076   200006 476500                    LDP6    @BUFFER,,AUTO
         1 000077   000000 620006                    EAX0    0,QL
         1 000100   200022 236100                    LDQ     TABLE_ENTRY$+2,,AUTO
         1 000101   040146 100545                    MLR     fill='040'O
         1 000102   200011 000011                    ADSC9   BINBUF,A,AUTO            cn=0,n=*X1
         1 000103   600000 000010                    ADSC9   0,Q,PR6                  cn=0,n=*X0

     1466     2865    2              END_INDEX = END_INDEX + (LENGTHC(BINBUF) - MSD_INDEX);

   2865  1 000104   500000 236100                    LDQ     0,,PR5
         1 000105   200015 136100                    SBLQ    MSD_INDEX,,AUTO
         1 000106   000015 036007                    ADLQ    13,DL
         1 000107   500000 756100                    STQ     0,,PR5

     1467     2866    2              END NUMBER_CLASS;

PL6.E3A0      #012=VDG$FORMAT_NUMBER File=VDG$UTILITY.:VDA5TSI                   FRI 07/04/97 11:24 Page:236
   2866  1 000110   000207 710000 1                  TRA     s:2892

     1468     2867    1           ELSE
     1469     2868    2   ENUMERATED_CLASS: DO;

   2868  1 000111                       ENUMERATED_* null
     1470     2869    2              TABLE_INDEX = NUMBER;     /* So we can change it */

   2869  1 000111   200004 471500                    LDP1    @NUMBER,,AUTO
         1 000112   100000 235100                    LDA     0,,PR1
         1 000113   200016 755100                    STA     TABLE_INDEX,,AUTO

     1471     2870    3              IF CLASS = %CLS_BOOLEAN THEN DO;

   2870  1 000114   000000 235100                    LDA     0,,PR0
         1 000115   000003 115007                    CMPA    3,DL
         1 000116   000125 601000 1                  TNZ     s:2877

     1472     2871    3                 IF TABLE_INDEX > 0 THEN

   2871  1 000117   200016 236100                    LDQ     TABLE_INDEX,,AUTO
         1 000120   000124 604400 1                  TMOZ    s:2874

     1473     2872    3                    TABLE_INDEX = %BITBIN(TRUE);

   2872  1 000121   000001 235007                    LDA     1,DL
         1 000122   200016 755100                    STA     TABLE_INDEX,,AUTO
         1 000123   000125 710000 1                  TRA     s:2877

     1474     2873    3                 ELSE
     1475     2874    3                    TABLE_INDEX = %BITBIN(FALSE);

   2874  1 000124   200016 450100                    STZ     TABLE_INDEX,,AUTO

     1476     2875    3                 END;

     1477     2876
PL6.E3A0      #012=VDG$FORMAT_NUMBER File=VDG$UTILITY.:VDA5TSI                   FRI 07/04/97 11:24 Page:237
     1478     2877    2              IF CLASS >= %CLS_MX

   2877  1 000125   000000 235100                    LDA     0,,PR0
         1 000126   000143 115007                    CMPA    99,DL
         1 000127   000135 605000 1                  TPL     s:2879
         1 000130   000000 235100                    LDA     0,,PR0
         1 000131   000001 735000                    ALS     1
         1 000132   000001 236005 xsym               LDQ     VD_OBJECTS+1,AL
         1 000133   000001 116000 xsym               CMPQ    B_VECTNIL+1
         1 000134   000140 601000 1                  TNZ     s:2881

     1479     2878    2                OR VD_OBJECTS.FMT$ (CLASS) = ADDR(NIL) THEN
     1480     2879    2                 TABLE_ENTRY$ = ADDR(BAD_VALUE_TEXTC);

   2879  1 000135   000001 236000 2                  LDQ     1
         1 000136   200020 756100                    STQ     TABLE_ENTRY$,,AUTO
         1 000137   000157 710000 1                  TRA     s:2888

     1481     2880    3              ELSE DO;

     1482     2881    3                 TABLE$ = VD_OBJECTS.FMT$ (CLASS);

   2881  1 000140   000000 235100                    LDA     0,,PR0
         1 000141   000001 735000                    ALS     1
         1 000142   000001 236005 xsym               LDQ     VD_OBJECTS+1,AL
         1 000143   200017 756100                    STQ     TABLE$,,AUTO

     1483     2882    3                 IF TABLE_INDEX >= TABLE.N_ENTRIES# THEN

   2882  1 000144   200017 473500                    LDP3    TABLE$,,AUTO
         1 000145   200016 236100                    LDQ     TABLE_INDEX,,AUTO
         1 000146   300000 116100                    CMPQ    0,,PR3
         1 000147   000153 604000 1                  TMI     s:2885

     1484     2883    3                    TABLE_ENTRY$ = ADDR(BAD_VALUE_TEXTC);

   2883  1 000150   000001 236000 2                  LDQ     1
PL6.E3A0      #012=VDG$FORMAT_NUMBER File=VDG$UTILITY.:VDA5TSI                   FRI 07/04/97 11:24 Page:238
         1 000151   200020 756100                    STQ     TABLE_ENTRY$,,AUTO
         1 000152   000157 710000 1                  TRA     s:2888

     1485     2884    3                 ELSE
     1486     2885    3                    TABLE_ENTRY$ = ADDR(TABLE.DW (TABLE_INDEX));

   2885  1 000153   000025 736000                    QLS     21
         1 000154   000001 036003                    ADLQ    1,DU
         1 000155   200017 036100                    ADLQ    TABLE$,,AUTO
         1 000156   200020 756100                    STQ     TABLE_ENTRY$,,AUTO

     1487     2886    3                 END;

     1488     2887
     1489     2888    2              CALL INSERT (BUFFER, START_INDEX, , TABLE$ENTRY.BYTES);

   2888  1 000157   200005 473500                    LDP3    @NB_BUFFER,,AUTO
         1 000160   300000 720100                    LXL0    0,,PR3
         1 000161   200020 474500                    LDP4    TABLE_ENTRY$,,AUTO
         1 000162   000100 101500                    MRL     fill='000'O
         1 000163   400000 000001                    ADSC9   0,,PR4                   cn=0,n=1
         1 000164   200022 000002                    ADSC9   TABLE_ENTRY$+2,,AUTO     cn=0,n=2
         1 000165   200022 221100                    LDX1    TABLE_ENTRY$+2,,AUTO
         1 000166   200007 475500                    LDP5    @START_INDEX,,AUTO
         1 000167   000000 636010                    EAQ     0,X0
         1 000170   000022 732000                    QRS     18
         1 000171   500000 136100                    SBLQ    0,,PR5
         1 000172   500000 235100                    LDA     0,,PR5
         1 000173   200006 476500                    LDP6    @BUFFER,,AUTO
         1 000174   000000 620006                    EAX0    0,QL
         1 000175   040145 100540                    MLR     fill='040'O
         1 000176   400000 200011                    ADSC9   0,,PR4                   cn=1,n=*X1
         1 000177   600000 000010                    ADSC9   0,A,PR6                  cn=0,n=*X0

     1490     2889    2              END_INDEX = START_INDEX + TABLE$ENTRY.LENGTH#;

   2889  1 000200   000100 101500                    MRL     fill='000'O
PL6.E3A0      #012=VDG$FORMAT_NUMBER File=VDG$UTILITY.:VDA5TSI                   FRI 07/04/97 11:24 Page:239
         1 000201   400000 000001                    ADSC9   0,,PR4                   cn=0,n=1
         1 000202   200022 000004                    ADSC9   TABLE_ENTRY$+2,,AUTO     cn=0,n=4
         1 000203   200022 236100                    LDQ     TABLE_ENTRY$+2,,AUTO
         1 000204   500000 036100                    ADLQ    0,,PR5
         1 000205   200010 477500                    LDP7    @END_INDEX,,AUTO
         1 000206   700000 756100                    STQ     0,,PR7

     1491     2890    2              END ENUMERATED_CLASS;

     1492     2891
     1493     2892    1           RETURN;

   2892  1 000207   000000 702200 xent               TSX2  ! X66_ARET
     1494     2893
     1495     2894    1   END VDG$FORMAT_NUMBER;
     1496     2895        %EOD;

PL6.E3A0      #012=VDG$FORMAT_NUMBER File=VDG$UTILITY.:VDA5TSI                   FRI 07/04/97 11:24 Page:240
--  Include file information  --

   B$TABLES_C.:LIBRARY  cannot be made into a system file and is referenced.
   VD_MACROS_M.:VDA5TOU  is referenced.
   B$JIT_C.:E04TOU  was found in the system file and is never referenced.
   CP_6_C.:E04TOU  was found in the system file and is never referenced.
      No diagnostics issued in procedure VDG$FORMAT_NUMBER.
PL6.E3A0      #012=VDG$FORMAT_NUMBER File=VDG$UTILITY.:VDA5TSI                   FRI 07/04/97 11:24 Page:241

 **** Variables and constants ****

  ****  Section 000 RoData VDG$FORMAT_NUMBER

  ****  Scalars and arrays  ****
OctLoc.c.b A Datatyp(siz) R M Lvl/name                 OctLoc.c.b A Datatyp(siz) R M Lvl/name

     0-0-0/c STRC(27)    r     1 BAD_VALUE_TEXTC

  ****  Auto variables  ****

  ****  Scalars and arrays  ****
OctLoc.c.b A Datatyp(siz) R M Lvl/name                 OctLoc.c.b A Datatyp(siz) R M Lvl/name

     6-0-0/w PTR         r     1 @BUFFER                    3-0-0/w PTR         r     1 @CLASS
    10-0-0/w PTR         r     1 @END_INDEX                 5-0-0/w PTR         r     1 @NB_BUFFER
     4-0-0/w PTR         r     1 @NUMBER                    7-0-0/w PTR         r     1 @START_INDEX
    11-0-0/c CHAR(13)    r     1 BINBUF                    *0-0-0/c ACHR        r     1 BUFFER
    *0-0-0/w SBIN        r     1 CLASS                     *0-0-0/w SBIN        r     1 END_INDEX
    15-0-0/w SBIN        r     1 MSD_INDEX                 *0-0-0/w SBIN        r     1 NB_BUFFER
    *0-0-0/w SBIN        r     1 NUMBER                    *0-0-0/w SBIN        r     1 START_INDEX
    17-0-0/w PTR         r     1 TABLE$                    20-0-0/w PTR         r     1 TABLE_ENTRY$
    16-0-0/w SBIN        r     1 TABLE_INDEX

  ****  SYMREF variables  ****

  ****  Scalars and arrays  ****
OctLoc.c.b A Datatyp(siz) R M Lvl/name                 OctLoc.c.b A Datatyp(siz) R M Lvl/name

     0-0-0/w PTR         r     1 B$SR_NON_ZERO$
     0-0-0/w STRC(72)    r     1 VD_OBJECTS(0:98)

  ****  BASED and DCB variables  ****

  ****  Scalars and arrays  ****
OctLoc.c.b A Datatyp(siz) R M Lvl/name                 OctLoc.c.b A Datatyp(siz) R M Lvl/name

PL6.E3A0      #012=VDG$FORMAT_NUMBER File=VDG$UTILITY.:VDA5TSI                   FRI 07/04/97 11:24 Page:242
     0-0-0/d STRC(4608)  r     1 B$SR_NON_ZERO              0-0-0/w STRC(324)   r     1 TABLE
     0-0-0/c ASTR(9)     r     1 TABLE$ENTRY


   Procedure VDG$FORMAT_NUMBER requires 136 words for executable code.
   Procedure VDG$FORMAT_NUMBER requires 20 words of local(AUTO) storage.
PL6.E3A0      #012=VDG$FORMAT_NUMBER File=VDG$UTILITY.:VDA5TSI                   FRI 07/04/97 11:24 Page:243
          *** CROSS REFERENCE LISTING ***
**     DENOTES     IDENTIFIER DEFINITION
<<                 IDENTIFIER'S VALUE SET
>>                 IDENTIFIER'S VALUE USED
<>                 IDENTIFIER SET AND/OR USED
--                 IDENTIFIER REFERENCED
PL6.E3A0      #012=VDG$FORMAT_NUMBER File=VDG$UTILITY.:VDA5TSI                   FRI 07/04/97 11:24 Page:244
          MINI XREF LISTING

B$SR_NON_ZERO
      2369**DCL      2854>>CALLBLT
B$SR_NON_ZERO$
      2368**DCL      2369--IMP-PTR  2854>>CALLBLT
BAD_VALUE_TEXTC
      2547**DCL      2879--ASSIGN   2883--ASSIGN
BINBUF
      2557**DCL      2853<<CALLBLT  2854>>CALLBLT  2858>>IF       2864>>CALLBLT  2865--ASSIGN
BUFFER
        37**DCL        31--PROC     2859<<CALLBLT  2864<<CALLBLT  2888<<CALLBLT
CLASS
        34**DCL        31--PROC     2851>>IF       2870>>IF       2877>>IF       2877>>IF       2881>>ASSIGN
END_INDEX
        39**DCL        31--PROC     2860<<ASSIGN   2863<<ASSIGN   2864>>CALLBLT  2865<<ASSIGN   2865>>ASSIGN
      2889<<ASSIGN
MSD_INDEX
      2558**DCL      2854<<CALLBLT  2857<<ASSIGN   2857>>ASSIGN   2864>>CALLBLT  2865>>ASSIGN
NB_BUFFER
        36**DCL        31--PROC       37--IMP-SIZ  2859>>CALLBLT  2864>>CALLBLT  2888>>CALLBLT
NUMBER
        35**DCL        31--PROC     2853>>CALLBLT  2869>>ASSIGN
START_INDEX
        38**DCL        31--PROC     2859>>CALLBLT  2860>>ASSIGN   2863>>ASSIGN   2888>>CALLBLT  2889>>ASSIGN
TABLE.DW
      2702**DCL      2885--ASSIGN
TABLE.N_ENTRIES#
      2565**DCL      2882>>IF
TABLE$
      2560**DCL      2564--IMP-PTR  2881<<ASSIGN   2882>>IF       2885>>ASSIGN
TABLE$ENTRY.BYTES
      2845**DCL      2888>>CALLBLT
TABLE$ENTRY.LENGTH#
PL6.E3A0      #012=VDG$FORMAT_NUMBER File=VDG$UTILITY.:VDA5TSI                   FRI 07/04/97 11:24 Page:245
      2845**DCL      2845--IMP-SIZ  2888>>CALLBLT  2889>>ASSIGN
TABLE_ENTRY$
      2561**DCL      2841--IMP-PTR  2879<<ASSIGN   2883<<ASSIGN   2885<<ASSIGN   2888>>CALLBLT  2888>>CALLBLT
      2889>>ASSIGN
TABLE_INDEX
      2559**DCL      2854<<CALLBLT  2856>>IF       2869<<ASSIGN   2871>>IF       2872<<ASSIGN   2874<<ASSIGN
      2882>>IF       2885>>ASSIGN
VD_OBJECTS.FMT$
      2403**DCL      2877>>IF       2881>>ASSIGN

PL6.E3A0      #013=VDG$FORMAT_KEY File=VDG$UTILITY.:VDA5TSI                      FRI 07/04/97 11:24 Page:246
     1497        1        /*T***********************************************************/
     1498        2        /*T*                                                         */
     1499        3        /*T* Copyright (c) Bull HN Information Systems Inc., 1997    */
     1500        4        /*T*                                                         */
     1501        5        /*T***********************************************************/
     1502        6
     1503        7        /*D* NAME: VDG$FORMAT_KEY
     1504        8            PARAMETERS:
     1505        9                KEY - A VD$KEY structure containing the key to format.
     1506       10                    If KEY.TYPE# is %KT_NUMBER, then KEY.REP# must
     1507       11                    be %REP_LOCAL and the key must be an edit key.
     1508       12                NB_BUFFER - # bytes in BUFFER below.
     1509       13                BUFFER - Character buffer, uninitialized at entry.
     1510       14                START_INDEX - Index into BUFFER at which to start formating.
     1511       15                END_INDEX - Uninitialized word.
     1512       16            INPUT:
     1513       17            OUTPUT:
     1514       18                BUFFER will be modified.  Characters from START_INDEX thru
     1515       19                    (new value of END_INDEX) - 1, will be the displayable form of
     1516       20                    KEY.V.
     1517       21                END_INDEX will contain the index into BUFFER of the byte
     1518       22                    after the last one occupied by the displayable form
     1519       23                    of KEY.V.
     1520       24            DESCRIPTION:
     1521       25                If KEY is a number:
     1522       26                    Format 99999.999.  Truncate insignificant zeros, both
     1523       27                        leading and trailing.
     1524       28                If KEY is a string:
     1525       29                    Copy it to BUFFER.  Translate non-displayable chars
     1526       30                        to %CHR_NON_DISPLAYABLE.
     1527       31        */
     1528       32
     1529       33        VDG$FORMAT_KEY: PROC (KEY, NB_BUFFER, BUFFER, START_INDEX, END_INDEX);
     1530       34
     1531       35
     1532       36        %INCLUDE VD_MACROS_M;
     1533     2251        %INCLUDE B$TABLES_C;
PL6.E3A0      #013=VDG$FORMAT_KEY File=VDG$UTILITY.:VDA5TSI                      FRI 07/04/97 11:24 Page:247
     1534     2359
     1535     2360
     1536     2361        %VD$KEY (NAME=KEY, STCLASS=PARAM);
     1537     2375    1   DCL NB_BUFFER SBIN;
     1538     2376    1   DCL BUFFER CHAR(NB_BUFFER) CALIGNED;
     1539     2377    1   DCL START_INDEX SBIN;
     1540     2378    1   DCL END_INDEX SBIN;
     1541     2379
     1542     2380
     1543     2381        %B$SR_NON_ZERO;
     1544     2385        %B$XL_ASC_DUMP;
     1545     2389
     1546     2390
     1547     2391
     1548     2392    1   DCL KEY$ PTR;
     1549     2393    1   DCL KEY_FIELD CHAR(%(MXNB_EDITKEY_INTEGER+1+MXNB_EDITKEY_FRACT));
     1550     2394    1   DCL TABLE_VAL UBIN;
     1551     2395    1   DCL LSD_INDEX UBIN;
     1552     2396    1   DCL MSD_INDEX UBIN;
     1553     2397
     1554     2398
     1555     2399        %VD$TEXTC_NUMBER (NAME=KEY$NUMBER, STCLASS="BASED(KEY$)");
     1556     2413        %VD$TEXTC (NAME=KEY$TEXTC, STCLASS="BASED(KEY$)");
     1557     2436        %VD$TEXTC_REMOTE;
     1558     2497
     1559     2498
     1560     2499
     1561     2500    1           END_INDEX = START_INDEX;    /* Just in case */
     1562     2501                %GETKEY (KEY=KEY, PTR=KEY$);
     1563     2511
     1564     2512    1           IF KEY.TYPE# = %KT_NUMBER THEN
     1565     2513    2   KT_NUMBER: DO;
     1566     2514    2              CALL BINCHAR (KEY_FIELD, KEY$NUMBER.BYTES#);
     1567     2515    2              CALL SEARCH (MSD_INDEX, TABLE_VAL, B$SR_NON_ZERO,
     1568     2516    2                SUBSTR (KEY_FIELD, 0, SIZEC(KEY_FIELD)-1));
     1569     2517    2              LSD_INDEX = SIZEC(KEY_FIELD) - MSD_INDEX;
     1570     2518    2              SUBSTR (BUFFER, START_INDEX, LSD_INDEX) =
PL6.E3A0      #013=VDG$FORMAT_KEY File=VDG$UTILITY.:VDA5TSI                      FRI 07/04/97 11:24 Page:248
     1571     2519    2                SUBSTR (KEY_FIELD, MSD_INDEX, LSD_INDEX);
     1572     2520    2              END_INDEX = START_INDEX + LSD_INDEX;
     1573     2521    2              END KT_NUMBER;
     1574     2522    1           ELSE IF KEY.TYPE# = %KT_EDITKEY THEN
     1575     2523    2   KT_EDITKEY: DO;
     1576     2524    2                 CALL BINCHAR (KEY_FIELD, KEY$NUMBER.BYTES#);
     1577     2525    2                 CALL SEARCH (MSD_INDEX, TABLE_VAL, B$SR_NON_ZERO,
     1578     2526    2                   SUBSTR(KEY_FIELD, 0, %MXNB_EDITKEY_INTEGER));
     1579     2527    2                 CALL SEARCHR (LSD_INDEX, TABLE_VAL, B$SR_NON_ZERO,
     1580     2528    2                   SUBSTR(KEY_FIELD, %MXNB_EDITKEY_INTEGER));
     1581     2529    2                 IF TABLE_VAL = 0 THEN
     1582     2530    2                    LSD_INDEX = 0;
     1583     2531                   /* Always format at least 1 fraction digit */
     1584     2532    2                 LSD_INDEX = MAXIMUM (LSD_INDEX, 1);
     1585     2533    2                 CALL INSERT (BUFFER, START_INDEX, , SUBSTR(KEY_FIELD,
     1586     2534    2                   MSD_INDEX, %(MXNB_EDITKEY_INTEGER+1) - MSD_INDEX),
     1587     2535    2                   %CHR_PERIOD,
     1588     2536    2                   SUBSTR(KEY_FIELD, %(MXNB_EDITKEY_INTEGER+1), LSD_INDEX));
     1589     2537    2                 END_INDEX = START_INDEX +
     1590     2538    2                   (%(MXNB_EDITKEY_INTEGER+1) - MSD_INDEX) + 1 + LSD_INDEX;
     1591     2539    2                 END KT_EDITKEY;
     1592     2540    1              ELSE
     1593     2541    2   KT_STRING: DO;
     1594     2542    2                 CALL XLATE (SUBSTR(BUFFER, START_INDEX),
     1595     2543    2                   B$XL_ASC_DUMP, KEY$TEXTC.BYTES);
     1596     2544    2                 END_INDEX = START_INDEX + KEY$TEXTC.LENGTH#;
     1597     2545    2                 END KT_STRING;
     1598     2546
     1599     2547    1           RETURN;
     1600     2548
     1601     2549    1   END VDG$FORMAT_KEY;
     1602     2550        %EOD;

PL6.E3A0      #013=VDG$FORMAT_KEY File=VDG$UTILITY.:VDA5TSI                      FRI 07/04/97 11:24 Page:249
--  Include file information  --

   B$TABLES_C.:LIBRARY  cannot be made into a system file and is referenced.
   VD_MACROS_M.:VDA5TOU  is referenced.
   B$JIT_C.:E04TOU  was found in the system file and is never referenced.
   CP_6_C.:E04TOU  was found in the system file and is never referenced.
      No diagnostics issued in procedure VDG$FORMAT_KEY.

   Procedure VDG$FORMAT_KEY requires 164 words for executable code.
   Procedure VDG$FORMAT_KEY requires 20 words of local(AUTO) storage.

PL6.E3A0      #013=VDG$FORMAT_KEY File=VDG$UTILITY.:VDA5TSI                      FRI 07/04/97 11:24 Page:250

 Object Unit name= VDG$FORMAT_KEY                             File name= VDG$UTILITY.:VDA5TOU
 UTS= JUL 04 '97 11:24:27.92 FRI                              Compiler= PL-6/E31         Sev=      00
 SharedLib= :SHARED_SYSTEM                                    Alt SharedLib=


    ****  Control sections  ****

 Sect   Type Bound  Init  Size OctSiz  Section name(segment info)
    0   Proc  even  none   164    244  VDG$FORMAT_KEY
    1  RoData even  none     1      1  VDG$FORMAT_KEY

    ****  Entry defs  ****

                              Check   Calling
                             calling  sequence
  Sect OctLoc Primary Altret sequence   type   Parms  Name
     0      0   yes            yes      Std        5  VDG$FORMAT_KEY

  ****  Entry refs  ****

         Check        Calling
        calling       sequence
Altret sequence SRef   type   Args  Name
         yes          ~proc      0 B_POINTER
                       nStd      0 X66_AUTO_5
                       Std       0 B_CONSPOOL_D
                       nStd      0 X66_ARET

  ****  Data refs  ****

  Flags:  r = read only, s = secondary
Flgs Name                             Flgs Name                             Flgs Name
r    B$SR_NON_ZERO$                   r    B$XL_ASC_DUMP$                        B_VECTNIL
PL6.E3A0      #013=VDG$FORMAT_KEY File=VDG$UTILITY.:VDA5TSI                      FRI 07/04/97 11:24 Page:251


     1497        1        /*T***********************************************************/
     1498        2        /*T*                                                         */
     1499        3        /*T* Copyright (c) Bull HN Information Systems Inc., 1997    */
     1500        4        /*T*                                                         */
     1501        5        /*T***********************************************************/
     1502        6
     1503        7        /*D* NAME: VDG$FORMAT_KEY
     1504        8            PARAMETERS:
     1505        9                KEY - A VD$KEY structure containing the key to format.
     1506       10                    If KEY.TYPE# is %KT_NUMBER, then KEY.REP# must
     1507       11                    be %REP_LOCAL and the key must be an edit key.
     1508       12                NB_BUFFER - # bytes in BUFFER below.
     1509       13                BUFFER - Character buffer, uninitialized at entry.
     1510       14                START_INDEX - Index into BUFFER at which to start formating.
     1511       15                END_INDEX - Uninitialized word.
     1512       16            INPUT:
     1513       17            OUTPUT:
     1514       18                BUFFER will be modified.  Characters from START_INDEX thru
     1515       19                    (new value of END_INDEX) - 1, will be the displayable form of
     1516       20                    KEY.V.
     1517       21                END_INDEX will contain the index into BUFFER of the byte
     1518       22                    after the last one occupied by the displayable form
     1519       23                    of KEY.V.
     1520       24            DESCRIPTION:
     1521       25                If KEY is a number:
     1522       26                    Format 99999.999.  Truncate insignificant zeros, both
     1523       27                        leading and trailing.
     1524       28                If KEY is a string:
     1525       29                    Copy it to BUFFER.  Translate non-displayable chars
     1526       30                        to %CHR_NON_DISPLAYABLE.
     1527       31        */
     1528       32
     1529       33        VDG$FORMAT_KEY: PROC (KEY, NB_BUFFER, BUFFER, START_INDEX, END_INDEX);

     33  0 000000   000000 700200 xent  VDG$FORMAT_* TSX0  ! X66_AUTO_5
         0 000001   000024 000005                    ZERO    20,5
PL6.E3A0      #013=VDG$FORMAT_KEY File=VDG$UTILITY.:VDA5TSI                      FRI 07/04/97 11:24 Page:252

     1530       34
     1531       35
     1532       36        %INCLUDE VD_MACROS_M;
     1533     2251        %INCLUDE B$TABLES_C;
     1534     2359
     1535     2360
     1536     2361        %VD$KEY (NAME=KEY, STCLASS=PARAM);
     1537     2375    1   DCL NB_BUFFER SBIN;
     1538     2376    1   DCL BUFFER CHAR(NB_BUFFER) CALIGNED;
     1539     2377    1   DCL START_INDEX SBIN;
     1540     2378    1   DCL END_INDEX SBIN;
     1541     2379
     1542     2380
     1543     2381        %B$SR_NON_ZERO;
     1544     2385        %B$XL_ASC_DUMP;
     1545     2389
     1546     2390
     1547     2391
     1548     2392    1   DCL KEY$ PTR;
     1549     2393    1   DCL KEY_FIELD CHAR(%(MXNB_EDITKEY_INTEGER+1+MXNB_EDITKEY_FRACT));
     1550     2394    1   DCL TABLE_VAL UBIN;
     1551     2395    1   DCL LSD_INDEX UBIN;
     1552     2396    1   DCL MSD_INDEX UBIN;
     1553     2397
     1554     2398
     1555     2399        %VD$TEXTC_NUMBER (NAME=KEY$NUMBER, STCLASS="BASED(KEY$)");
     1556     2413        %VD$TEXTC (NAME=KEY$TEXTC, STCLASS="BASED(KEY$)");
     1557     2436        %VD$TEXTC_REMOTE;
     1558     2497
     1559     2498
     1560     2499
     1561     2500    1           END_INDEX = START_INDEX;    /* Just in case */

   2500  0 000002   200006 470500                    LDP0    @START_INDEX,,AUTO
         0 000003   200007 471500                    LDP1    @END_INDEX,,AUTO
         0 000004   000000 235100                    LDA     0,,PR0
PL6.E3A0      #013=VDG$FORMAT_KEY File=VDG$UTILITY.:VDA5TSI                      FRI 07/04/97 11:24 Page:253
         0 000005   100000 755100                    STA     0,,PR1

     1562     2501                %GETKEY (KEY=KEY, PTR=KEY$);

   2508  0 000006   200003 473500                    LDP3    @KEY,,AUTO
         0 000007   300000 720100                    LXL0    0,,PR3
         0 000010   000002 100003                    CMPX0   2,DU
         0 000011   000016 601000 0                  TNZ     s:2508+8

   2508  0 000012   300001 474500                    LDP4    1,,PR3
         0 000013   400002 635500                    EPPR5   2,,PR4
         0 000014   200010 455500                    STP5    KEY$,,AUTO
         0 000015   000021 710000 0                  TRA     s:2512

   2508  0 000016   200003 236100                    LDQ     @KEY,,AUTO
         0 000017   000001 036003                    ADLQ    1,DU
         0 000020   200010 756100                    STQ     KEY$,,AUTO

     1563     2511
     1564     2512    1           IF KEY.TYPE# = %KT_NUMBER THEN

   2512  0 000021   300000 221100                    LDX1    0,,PR3
         0 000022   000001 101003                    CMPX1   1,DU
         0 000023   000067 601000 0                  TNZ     s:2522

     1565     2513    2   KT_NUMBER: DO;

   2513  0 000024                       KT_NUMBER    null
     1566     2514    2              CALL BINCHAR (KEY_FIELD, KEY$NUMBER.BYTES#);

   2514  0 000024   200010 474500                    LDP4    KEY$,,AUTO
         0 000025   400000 236100                    LDQ     0,,PR4
         0 000026   000032 376000 xsym               ANQ     B_VECTNIL+26
         0 000027   000000 235003                    LDA     0,DU
         0 000030   200020 757100                    STAQ    MSD_INDEX+2,,AUTO
         0 000031   000100 301500                    BTD
         0 000032   200020 000010                    NDSC9   MSD_INDEX+2,,AUTO        cn=0,s=lsgnf,sf=0,n=8
PL6.E3A0      #013=VDG$FORMAT_KEY File=VDG$UTILITY.:VDA5TSI                      FRI 07/04/97 11:24 Page:254
         0 000033   200011 030011                    NDSC9   KEY_FIELD,,AUTO          cn=0,s=nosgn,sf=0,n=9

     1567     2515    2              CALL SEARCH (MSD_INDEX, TABLE_VAL, B$SR_NON_ZERO,

   2515  0 000034   000000 475400 xsym               LDP5    B$SR_NON_ZERO$
         0 000035   000000 164500                    TCT
         0 000036   200011 000010                    ADSC9   KEY_FIELD,,AUTO          cn=0,n=8
         0 000037   500000 000100                    ARG     0,,PR5
         0 000040   200016 000100                    ARG     MSD_INDEX,,AUTO
         0 000041   200016 236100                    LDQ     MSD_INDEX,,AUTO
         0 000042   000044 737000                    LLS     36
         0 000043   000033 771000                    ARL     27
         0 000044   200014 755100                    STA     TABLE_VAL,,AUTO
         0 000045   200016 551140                    STBA    MSD_INDEX,'40'O,AUTO

     1568     2516    2                SUBSTR (KEY_FIELD, 0, SIZEC(KEY_FIELD)-1));
     1569     2517    2              LSD_INDEX = SIZEC(KEY_FIELD) - MSD_INDEX;

   2517  0 000046   000011 236007                    LDQ     9,DL
         0 000047   200016 136100                    SBLQ    MSD_INDEX,,AUTO
         0 000050   200015 756100                    STQ     LSD_INDEX,,AUTO

     1570     2518    2              SUBSTR (BUFFER, START_INDEX, LSD_INDEX) =

   2518  0 000051   200004 476500                    LDP6    @NB_BUFFER,,AUTO
         0 000052   600000 720100                    LXL0    0,,PR6
         0 000053   000000 235100                    LDA     0,,PR0
         0 000054   000000 621006                    EAX1    0,QL
         0 000055   200016 236100                    LDQ     MSD_INDEX,,AUTO
         0 000056   200005 477500                    LDP7    @BUFFER,,AUTO
         0 000057   200015 722100                    LXL2    LSD_INDEX,,AUTO
         0 000060   040145 100546                    MLR     fill='040'O
         0 000061   200011 000011                    ADSC9   KEY_FIELD,Q,AUTO         cn=0,n=*X1
         0 000062   700000 000012                    ADSC9   0,A,PR7                  cn=0,n=*X2

     1571     2519    2                SUBSTR (KEY_FIELD, MSD_INDEX, LSD_INDEX);
     1572     2520    2              END_INDEX = START_INDEX + LSD_INDEX;
PL6.E3A0      #013=VDG$FORMAT_KEY File=VDG$UTILITY.:VDA5TSI                      FRI 07/04/97 11:24 Page:255

   2520  0 000063   000000 236100                    LDQ     0,,PR0
         0 000064   200015 036100                    ADLQ    LSD_INDEX,,AUTO
         0 000065   100000 756100                    STQ     0,,PR1

     1573     2521    2              END KT_NUMBER;

   2521  0 000066   000243 710000 0                  TRA     s:2547

     1574     2522    1           ELSE IF KEY.TYPE# = %KT_EDITKEY THEN

   2522  0 000067   000003 101003                    CMPX1   3,DU
         0 000070   000215 601000 0                  TNZ     KT_STRING

     1575     2523    2   KT_EDITKEY: DO;

   2523  0 000071                       KT_EDITKEY   null
     1576     2524    2                 CALL BINCHAR (KEY_FIELD, KEY$NUMBER.BYTES#);

   2524  0 000071   200010 474500                    LDP4    KEY$,,AUTO
         0 000072   400000 236100                    LDQ     0,,PR4
         0 000073   000032 376000 xsym               ANQ     B_VECTNIL+26
         0 000074   000000 235003                    LDA     0,DU
         0 000075   200020 757100                    STAQ    MSD_INDEX+2,,AUTO
         0 000076   000100 301500                    BTD
         0 000077   200020 000010                    NDSC9   MSD_INDEX+2,,AUTO        cn=0,s=lsgnf,sf=0,n=8
         0 000100   200011 030011                    NDSC9   KEY_FIELD,,AUTO          cn=0,s=nosgn,sf=0,n=9

     1577     2525    2                 CALL SEARCH (MSD_INDEX, TABLE_VAL, B$SR_NON_ZERO,

   2525  0 000101   000000 475400 xsym               LDP5    B$SR_NON_ZERO$
         0 000102   000000 164500                    TCT
         0 000103   200011 000005                    ADSC9   KEY_FIELD,,AUTO          cn=0,n=5
         0 000104   500000 000100                    ARG     0,,PR5
         0 000105   200016 000100                    ARG     MSD_INDEX,,AUTO
         0 000106   200016 236100                    LDQ     MSD_INDEX,,AUTO
         0 000107   000044 737000                    LLS     36
PL6.E3A0      #013=VDG$FORMAT_KEY File=VDG$UTILITY.:VDA5TSI                      FRI 07/04/97 11:24 Page:256
         0 000110   000033 771000                    ARL     27
         0 000111   200014 755100                    STA     TABLE_VAL,,AUTO
         0 000112   200016 551140                    STBA    MSD_INDEX,'40'O,AUTO

     1578     2526    2                   SUBSTR(KEY_FIELD, 0, %MXNB_EDITKEY_INTEGER));
     1579     2527    2                 CALL SEARCHR (LSD_INDEX, TABLE_VAL, B$SR_NON_ZERO,

   2527  0 000113   000000 165500                    TCTR
         0 000114   200012 200004                    ADSC9   KEY_FIELD+1,,AUTO        cn=1,n=4
         0 000115   500000 000100                    ARG     0,,PR5
         0 000116   200015 000100                    ARG     LSD_INDEX,,AUTO
         0 000117   200015 236100                    LDQ     LSD_INDEX,,AUTO
         0 000120   000044 737000                    LLS     36
         0 000121   000033 771000                    ARL     27
         0 000122   200014 755100                    STA     TABLE_VAL,,AUTO
         0 000123   200015 551140                    STBA    LSD_INDEX,'40'O,AUTO
         0 000124   000127 606400 0                  TTN     s:2529
         0 000125   000003 236007                    LDQ     3,DL
         0 000126   200015 156100                    SSQ     LSD_INDEX,,AUTO

     1580     2528    2                   SUBSTR(KEY_FIELD, %MXNB_EDITKEY_INTEGER));
     1581     2529    2                 IF TABLE_VAL = 0 THEN

   2529  0 000127   000000 115003                    CMPA    0,DU
         0 000130   000132 601000 0                  TNZ     s:2532

     1582     2530    2                    LSD_INDEX = 0;

   2530  0 000131   200015 450100                    STZ     LSD_INDEX,,AUTO

     1583     2531                   /* Always format at least 1 fraction digit */
     1584     2532    2                 LSD_INDEX = MAXIMUM (LSD_INDEX, 1);

   2532  0 000132   000001 236007                    LDQ     1,DL
         0 000133   200015 116100                    CMPQ    LSD_INDEX,,AUTO
         0 000134   000136 603000 0                  TRC     s:2532+4
         0 000135   200015 236100                    LDQ     LSD_INDEX,,AUTO
PL6.E3A0      #013=VDG$FORMAT_KEY File=VDG$UTILITY.:VDA5TSI                      FRI 07/04/97 11:24 Page:257
         0 000136   200015 756100                    STQ     LSD_INDEX,,AUTO

     1585     2533    2                 CALL INSERT (BUFFER, START_INDEX, , SUBSTR(KEY_FIELD,

   2533  0 000137   200004 476500                    LDP6    @NB_BUFFER,,AUTO
         0 000140   600000 720100                    LXL0    0,,PR6
         0 000141   000000 636010                    EAQ     0,X0
         0 000142   000022 732000                    QRS     18
         0 000143   000000 136100                    SBLQ    0,,PR0
         0 000144   000000 235100                    LDA     0,,PR0
         0 000145   200016 721100                    LXL1    MSD_INDEX,,AUTO
         0 000146   777771 621011                    EAX1    -7,X1
         0 000147   777777 661003                    ERX1    -1,DU
         0 000150   200020 755100                    STA     MSD_INDEX+2,,AUTO
         0 000151   200016 235100                    LDA     MSD_INDEX,,AUTO
         0 000152   200005 477500                    LDP7    @BUFFER,,AUTO
         0 000153   000000 620006                    EAX0    0,QL
         0 000154   200021 756100                    STQ     MSD_INDEX+3,,AUTO
         0 000155   200020 236100                    LDQ     MSD_INDEX+2,,AUTO
         0 000156   040146 100545                    MLR     fill='040'O
         0 000157   200011 000011                    ADSC9   KEY_FIELD,A,AUTO         cn=0,n=*X1
         0 000160   700000 000010                    ADSC9   0,Q,PR7                  cn=0,n=*X0
         0 000161   200021 236100                    LDQ     MSD_INDEX+3,,AUTO
         0 000162   200016 036100                    ADLQ    MSD_INDEX,,AUTO
         0 000163   000006 116007                    CMPQ    6,DL
         0 000164   000207 604400 0                  TMOZ    s:2537
         0 000165   200022 756100                    STQ     MSD_INDEX+4,,AUTO
         0 000166   200020 236100                    LDQ     MSD_INDEX+2,,AUTO
         0 000167   200016 136100                    SBLQ    MSD_INDEX,,AUTO
         0 000170   200022 720100                    LXL0    MSD_INDEX+4,,AUTO
         0 000171   777772 622010                    EAX2    -6,X0
         0 000172   040146 100400                    MLR     fill='040'O
         0 000173   000000 000001 1                  ADSC9   0                        cn=0,n=1
         0 000174   700001 400012                    ADSC9   1,Q,PR7                  cn=2,n=*X2
         0 000175   200023 756100                    STQ     MSD_INDEX+5,,AUTO
         0 000176   200022 236100                    LDQ     MSD_INDEX+4,,AUTO
         0 000177   000007 116007                    CMPQ    7,DL
PL6.E3A0      #013=VDG$FORMAT_KEY File=VDG$UTILITY.:VDA5TSI                      FRI 07/04/97 11:24 Page:258
         0 000200   000207 604400 0                  TMOZ    s:2537
         0 000201   777771 623006                    EAX3    -7,QL
         0 000202   200015 724100                    LXL4    LSD_INDEX,,AUTO
         0 000203   200023 235100                    LDA     MSD_INDEX+5,,AUTO
         0 000204   040145 100540                    MLR     fill='040'O
         0 000205   200012 400014                    ADSC9   KEY_FIELD+1,,AUTO        cn=2,n=*X4
         0 000206   700001 600013                    ADSC9   1,A,PR7                  cn=3,n=*X3

     1586     2534    2                   MSD_INDEX, %(MXNB_EDITKEY_INTEGER+1) - MSD_INDEX),
     1587     2535    2                   %CHR_PERIOD,
     1588     2536    2                   SUBSTR(KEY_FIELD, %(MXNB_EDITKEY_INTEGER+1), LSD_INDEX));
     1589     2537    2                 END_INDEX = START_INDEX +

   2537  0 000207   000000 236100                    LDQ     0,,PR0
         0 000210   200016 136100                    SBLQ    MSD_INDEX,,AUTO
         0 000211   200015 036100                    ADLQ    LSD_INDEX,,AUTO
         0 000212   000007 036007                    ADLQ    7,DL
         0 000213   100000 756100                    STQ     0,,PR1

     1590     2538    2                   (%(MXNB_EDITKEY_INTEGER+1) - MSD_INDEX) + 1 + LSD_INDEX;
     1591     2539    2                 END KT_EDITKEY;

   2539  0 000214   000243 710000 0                  TRA     s:2547

     1592     2540    1              ELSE
     1593     2541    2   KT_STRING: DO;

   2541  0 000215                       KT_STRING    null
     1594     2542    2                 CALL XLATE (SUBSTR(BUFFER, START_INDEX),

   2542  0 000215   200004 474500                    LDP4    @NB_BUFFER,,AUTO
         0 000216   400000 722100                    LXL2    0,,PR4
         0 000217   000000 636012                    EAQ     0,X2
         0 000220   000022 732000                    QRS     18
         0 000221   000000 136100                    SBLQ    0,,PR0
         0 000222   000000 235100                    LDA     0,,PR0
         0 000223   200010 475500                    LDP5    KEY$,,AUTO
PL6.E3A0      #013=VDG$FORMAT_KEY File=VDG$UTILITY.:VDA5TSI                      FRI 07/04/97 11:24 Page:259
         0 000224   200020 756100                    STQ     MSD_INDEX+2,,AUTO
         0 000225   500000 236100                    LDQ     0,,PR5
         0 000226   000033 772000                    QRL     27
         0 000227   000000 620006                    EAX0    0,QL
         0 000230   000000 476400 xsym               LDP6    B$XL_ASC_DUMP$
         0 000231   200005 477500                    LDP7    @BUFFER,,AUTO
         0 000232   200020 721100                    LXL1    MSD_INDEX+2,,AUTO
         0 000233   040145 160540                    MVT     fill='040'O
         0 000234   500000 200010                    ADSC9   0,,PR5                   cn=1,n=*X0
         0 000235   700000 000011                    ADSC9   0,A,PR7                  cn=0,n=*X1
         0 000236   600000 000100                    ARG     0,,PR6

     1595     2543    2                   B$XL_ASC_DUMP, KEY$TEXTC.BYTES);
     1596     2544    2                 END_INDEX = START_INDEX + KEY$TEXTC.LENGTH#;

   2544  0 000237   500000 236100                    LDQ     0,,PR5
         0 000240   000033 772000                    QRL     27
         0 000241   000000 036100                    ADLQ    0,,PR0
         0 000242   100000 756100                    STQ     0,,PR1

     1597     2545    2                 END KT_STRING;

     1598     2546
     1599     2547    1           RETURN;

   2547  0 000243   000000 702200 xent               TSX2  ! X66_ARET
     1600     2548
     1601     2549    1   END VDG$FORMAT_KEY;
     1602     2550        %EOD;

PL6.E3A0      #013=VDG$FORMAT_KEY File=VDG$UTILITY.:VDA5TSI                      FRI 07/04/97 11:24 Page:260
--  Include file information  --

   B$TABLES_C.:LIBRARY  cannot be made into a system file and is referenced.
   VD_MACROS_M.:VDA5TOU  is referenced.
   B$JIT_C.:E04TOU  was found in the system file and is never referenced.
   CP_6_C.:E04TOU  was found in the system file and is never referenced.
      No diagnostics issued in procedure VDG$FORMAT_KEY.
PL6.E3A0      #013=VDG$FORMAT_KEY File=VDG$UTILITY.:VDA5TSI                      FRI 07/04/97 11:24 Page:261

 **** Variables and constants ****

  ****  Auto variables  ****

  ****  Scalars and arrays  ****
OctLoc.c.b A Datatyp(siz) R M Lvl/name                 OctLoc.c.b A Datatyp(siz) R M Lvl/name

     5-0-0/w PTR         r     1 @BUFFER                    7-0-0/w PTR         r     1 @END_INDEX
     3-0-0/w PTR         r     1 @KEY                       4-0-0/w PTR         r     1 @NB_BUFFER
     6-0-0/w PTR         r     1 @START_INDEX              *0-0-0/c ACHR        r     1 BUFFER
    *0-0-0/w SBIN        r     1 END_INDEX                 *0-0-0/w STRC(72)    r     1 KEY
    10-0-0/w PTR         r     1 KEY$                      11-0-0/c CHAR(9)     r     1 KEY_FIELD
    15-0-0/w UBIN        r     1 LSD_INDEX                 16-0-0/w UBIN        r     1 MSD_INDEX
    *0-0-0/w SBIN        r     1 NB_BUFFER                 *0-0-0/w SBIN        r     1 START_INDEX
    14-0-0/w UBIN        r     1 TABLE_VAL

  ****  SYMREF variables  ****

  ****  Scalars and arrays  ****
OctLoc.c.b A Datatyp(siz) R M Lvl/name                 OctLoc.c.b A Datatyp(siz) R M Lvl/name

     0-0-0/w PTR         r     1 B$SR_NON_ZERO$             0-0-0/w PTR         r     1 B$XL_ASC_DUMP$

  ****  BASED and DCB variables  ****

  ****  Scalars and arrays  ****
OctLoc.c.b A Datatyp(siz) R M Lvl/name                 OctLoc.c.b A Datatyp(siz) R M Lvl/name

     0-0-0/d STRC(4608)  r     1 B$SR_NON_ZERO              0-0-0/d STRC(4608)  r     1 B$XL_ASC_DUMP
     0-0-0/w STRC        r     1 KEY$NUMBER                 0-0-0/w ASTR(9)     r     1 KEY$TEXTC
     0-0-0/w ASTR(81)    r     1 VD$TEXTC_REMOTE


   Procedure VDG$FORMAT_KEY requires 164 words for executable code.
   Procedure VDG$FORMAT_KEY requires 20 words of local(AUTO) storage.
PL6.E3A0      #013=VDG$FORMAT_KEY File=VDG$UTILITY.:VDA5TSI                      FRI 07/04/97 11:24 Page:262
          *** CROSS REFERENCE LISTING ***
**     DENOTES     IDENTIFIER DEFINITION
<<                 IDENTIFIER'S VALUE SET
>>                 IDENTIFIER'S VALUE USED
<>                 IDENTIFIER SET AND/OR USED
--                 IDENTIFIER REFERENCED
PL6.E3A0      #013=VDG$FORMAT_KEY File=VDG$UTILITY.:VDA5TSI                      FRI 07/04/97 11:24 Page:263
          MINI XREF LISTING

B$SR_NON_ZERO
      2383**DCL      2515>>CALLBLT  2525>>CALLBLT  2527>>CALLBLT
B$SR_NON_ZERO$
      2382**DCL      2383--IMP-PTR  2515>>CALLBLT  2525>>CALLBLT  2527>>CALLBLT
B$XL_ASC_DUMP
      2387**DCL      2542>>CALLBLT
B$XL_ASC_DUMP$
      2386**DCL      2387--IMP-PTR  2542>>CALLBLT
BUFFER
      2376**DCL        33--PROC     2518<<ASSIGN   2533<<CALLBLT  2542<<CALLBLT
END_INDEX
      2378**DCL        33--PROC     2500<<ASSIGN   2520<<ASSIGN   2537<<ASSIGN   2544<<ASSIGN
KEY
      2369**DCL        33--PROC
KEY.REP#
      2373**DCL      2508>>IF
KEY.TYPE#
      2373**DCL      2512>>IF       2522>>IF
KEY.V$
      2373**DCL      2508>>ASSIGN   2508--ASSIGN
KEY$
      2392**DCL      2407--IMP-PTR  2421--IMP-PTR  2508<<ASSIGN   2508<<ASSIGN   2514>>CALLBLT  2524>>CALLBLT
      2542>>CALLBLT  2542>>CALLBLT  2544>>ASSIGN
KEY$NUMBER.BYTES#
      2411**DCL      2514>>CALLBLT  2524>>CALLBLT
KEY$TEXTC.BYTES
      2431**DCL      2542>>CALLBLT
KEY$TEXTC.LENGTH#
      2429**DCL      2431--IMP-SIZ  2542>>CALLBLT  2544>>ASSIGN
KEY_FIELD
      2393**DCL      2514<<CALLBLT  2515>>CALLBLT  2515--CALLBLT  2517--ASSIGN   2518>>ASSIGN   2524<<CALLBLT
      2525>>CALLBLT  2527>>CALLBLT  2533>>CALLBLT  2533>>CALLBLT
PL6.E3A0      #013=VDG$FORMAT_KEY File=VDG$UTILITY.:VDA5TSI                      FRI 07/04/97 11:24 Page:264
LSD_INDEX
      2395**DCL      2517<<ASSIGN   2518>>ASSIGN   2518>>ASSIGN   2520>>ASSIGN   2527<<CALLBLT  2530<<ASSIGN
      2532<<ASSIGN   2532>>ASSIGN   2533>>CALLBLT  2537>>ASSIGN
MSD_INDEX
      2396**DCL      2515<<CALLBLT  2517>>ASSIGN   2518>>ASSIGN   2525<<CALLBLT  2533>>CALLBLT  2533>>CALLBLT
      2537>>ASSIGN
NB_BUFFER
      2375**DCL        33--PROC     2376--IMP-SIZ  2518>>ASSIGN   2533>>CALLBLT  2542>>CALLBLT
START_INDEX
      2377**DCL        33--PROC     2500>>ASSIGN   2518>>ASSIGN   2520>>ASSIGN   2533>>CALLBLT  2537>>ASSIGN
      2542>>CALLBLT  2544>>ASSIGN
TABLE_VAL
      2394**DCL      2515<<CALLBLT  2525<<CALLBLT  2527<<CALLBLT  2529>>IF
VD$TEXTC_REMOTE.LENGTH#
      2490**DCL      2492--IMP-SIZ  2508--ASSIGN

PL6.E3A0      #014=VDG$FORMAT_LOCATION File=VDG$UTILITY.:VDA5TSI                 FRI 07/04/97 11:24 Page:265
     1603        1        /*T***********************************************************/
     1604        2        /*T*                                                         */
     1605        3        /*T* Copyright (c) Bull HN Information Systems Inc., 1997    */
     1606        4        /*T*                                                         */
     1607        5        /*T***********************************************************/
     1608        6
     1609        7        /*D* NAME: VDG$FORMAT_LOCATION
     1610        8            PARAMETERS:
     1611        9                LOCATION - A VD$LOCATION structure containing the location to format.
     1612       10                NB_BUFFER - # bytes in BUFFER below.
     1613       11                BUFFER - Character buffer, uninitialized at entry.
     1614       12                START_INDEX - Index into BUFFER at which to start formating.
     1615       13                END_INDEX - Uninitialized word.
     1616       14            INPUT:
     1617       15            OUTPUT:
     1618       16                BUFFER will be modified.  Characters from START_INDEX thru
     1619       17                    (new value of END_INDEX) - 1, will be the displayable form of
     1620       18                    the location's keys, position, and EOF bit.
     1621       19                END_INDEX will contain the index into BUFFER of the byte
     1622       20                    after the last one occupied by the displayable form the location.
     1623       21            DESCRIPTION:
     1624       22                If LOCATION.EOF is set, just format the string "EO CURR".
     1625       23                Otherwise, format each non-%CLEAR key, then the position #, as below:
     1626       24                        <key1> <key2> <key3> position <position>
     1627       25        */
     1628       26
     1629       27        VDG$FORMAT_LOCATION: PROC (LOCATION, NB_BUFFER, BUFFER, START_INDEX, END_INDEX);
     1630       28
     1631       29
     1632       30        %INCLUDE VD_MACROS_M;
     1633     2245
     1634     2246
     1635     2247        %VD$LOCATION (NAME=LOCATION, STCLASS=PARAM);
     1636     2275    1   DCL NB_BUFFER SBIN;
     1637     2276    1   DCL BUFFER CHAR(NB_BUFFER) CALIGNED;
     1638     2277    1   DCL START_INDEX SBIN;
     1639     2278    1   DCL END_INDEX SBIN;
PL6.E3A0      #014=VDG$FORMAT_LOCATION File=VDG$UTILITY.:VDA5TSI                 FRI 07/04/97 11:24 Page:266
     1640     2279
     1641     2280
     1642     2281    1   DCL VDG$FORMAT_KEY      ENTRY (5);
     1643     2282    1   DCL VDG$FORMAT_NUMBER   ENTRY (6);
     1644     2283
     1645     2284
     1646     2285
     1647     2286    1   DCL START SBIN;
     1648     2287    1   DCL LOC_INDEX SBIN;
     1649     2288    1   DCL POSITION SBIN;
     1650     2289
     1651     2290
     1652     2291
     1653     2292    1           START = START_INDEX;   /* My own copy so I can change it */
     1654     2293
     1655     2294    2           IF LOCATION.EOF THEN DO;
     1656     2295    2              END_INDEX = MINIMUM (START +
     1657     2296    2                %LENGTHC(CONCAT(DW_EO,CHR_SPACE,DWLC_CURR)), NB_BUFFER);
     1658     2297    2              CALL INSERT (BUFFER, START, END_INDEX - START,
     1659     2298    2                %CONCAT(DW_EO,CHR_SPACE,DWLC_CURR));
     1660     2299    2              END;
     1661     2300    1           ELSE
     1662     2301    2   FORMAT_KEYS_AND_POSITION: DO;
     1663     2302    2              LOC_INDEX = 0;
     1664     2303    2   EACH_LOCATION_LEVEL:
     1665     2304    3              DO WHILE LOC_INDEX < %MX_LOCATION_LEVELS
     1666     2305    3                AND LOCATION.KEY (LOC_INDEX) ~= %CLEAR
     1667     2306    3                AND END_INDEX < NB_BUFFER;
     1668     2307    3                 CALL VDG$FORMAT_KEY (LOCATION.KEY (LOC_INDEX), NB_BUFFER, BUFFER,
     1669     2308    3                   START, END_INDEX);
     1670     2309    3                 START = END_INDEX;
     1671     2310    3                 LOC_INDEX = LOC_INDEX + 1;
     1672     2311    3                 IF LOC_INDEX < %MX_LOCATION_LEVELS
     1673     2312    4                   AND LOCATION.KEY (LOC_INDEX) ~= %CLEAR THEN DO;
     1674     2313    4                    END_INDEX = MINIMUM (START + LENGTHC(%CHR_SPACE), NB_BUFFER);
     1675     2314    5                    IF END_INDEX < NB_BUFFER THEN DO;
     1676     2315    5                       CALL INSERT (BUFFER, START, END_INDEX - START,
PL6.E3A0      #014=VDG$FORMAT_LOCATION File=VDG$UTILITY.:VDA5TSI                 FRI 07/04/97 11:24 Page:267
     1677     2316    5                         %CHR_SPACE);
     1678     2317    5                       START = END_INDEX;
     1679     2318    5                       END;
     1680     2319    4                    END;
     1681     2320    3                 END EACH_LOCATION_LEVEL;
     1682     2321
     1683     2322    2              END_INDEX = MINIMUM (START + %LENGTHC(CONCAT(' ',DWLC_POSITION,' ')),
     1684     2323    2                NB_BUFFER);
     1685     2324    3              IF END_INDEX < NB_BUFFER THEN DO;
     1686     2325    3                 CALL INSERT (BUFFER, START, END_INDEX - START,
     1687     2326    3                   %CONCAT(' ',DWLC_POSITION,' '));
     1688     2327    3                 START = END_INDEX;
     1689     2328    3                 POSITION = LOCATION.POSITION# + 1;
     1690     2329    3                 CALL VDG$FORMAT_NUMBER (%CLS_NUMBER, POSITION, NB_BUFFER, BUFFER,
     1691     2330    3                   START, END_INDEX);
     1692     2331    3                 END;
     1693     2332    2              END FORMAT_KEYS_AND_POSITION;
     1694     2333
     1695     2334    1           RETURN;
     1696     2335
     1697     2336    1   END VDG$FORMAT_LOCATION;
     1698     2337        %EOD;

PL6.E3A0      #014=VDG$FORMAT_LOCATION File=VDG$UTILITY.:VDA5TSI                 FRI 07/04/97 11:24 Page:268
--  Include file information  --

   VD_MACROS_M.:VDA5TOU  is referenced.
   B$JIT_C.:E04TOU  was found in the system file and is never referenced.
   CP_6_C.:E04TOU  was found in the system file and is never referenced.
      No diagnostics issued in procedure VDG$FORMAT_LOCATION.

   Procedure VDG$FORMAT_LOCATION requires 131 words for executable code.
   Procedure VDG$FORMAT_LOCATION requires 18 words of local(AUTO) storage.

PL6.E3A0      #014=VDG$FORMAT_LOCATION File=VDG$UTILITY.:VDA5TSI                 FRI 07/04/97 11:24 Page:269

 Object Unit name= VDG$FORMAT_LOCATION                        File name= VDG$UTILITY.:VDA5TOU
 UTS= JUL 04 '97 11:24:34.36 FRI                              Compiler= PL-6/E31         Sev=      00
 SharedLib= :SHARED_SYSTEM                                    Alt SharedLib=


    ****  Control sections  ****

 Sect   Type Bound  Init  Size OctSiz  Section name(segment info)
    0  RoData even  UTS      5      5  VDG$FORMAT_LOCATION
    1   Proc  even  none   131    203  VDG$FORMAT_LOCATION
    2  RoData even  none     2      2  VDG$FORMAT_LOCATION

    ****  Entry defs  ****

                              Check   Calling
                             calling  sequence
  Sect OctLoc Primary Altret sequence   type   Parms  Name
     1      0   yes            yes      Std        5  VDG$FORMAT_LOCATION

  ****  Entry refs  ****

         Check        Calling
        calling       sequence
Altret sequence SRef   type   Args  Name
         yes           Std       5 VDG$FORMAT_KEY
         yes           Std       6 VDG$FORMAT_NUMBER
                       nStd      0 X66_AUTO_5
                       Std       0 B_CONSPOOL_D
                       nStd      0 X66_ARET

  ****  Data refs  ****

  Flags:  r = read only, s = secondary
Flgs Name                             Flgs Name                             Flgs Name
     B_VECTNIL
PL6.E3A0      #014=VDG$FORMAT_LOCATION File=VDG$UTILITY.:VDA5TSI                 FRI 07/04/97 11:24 Page:270

  ****  Segment refs  ****

  Flags:  r = read only, s = secondary
Flgs Name                             Flgs Name                             Flgs Name
     ISSID
PL6.E3A0      #014=VDG$FORMAT_LOCATION File=VDG$UTILITY.:VDA5TSI                 FRI 07/04/97 11:24 Page:271


     1603        1        /*T***********************************************************/
     1604        2        /*T*                                                         */
     1605        3        /*T* Copyright (c) Bull HN Information Systems Inc., 1997    */
     1606        4        /*T*                                                         */
     1607        5        /*T***********************************************************/
     1608        6
     1609        7        /*D* NAME: VDG$FORMAT_LOCATION
     1610        8            PARAMETERS:
     1611        9                LOCATION - A VD$LOCATION structure containing the location to format.
     1612       10                NB_BUFFER - # bytes in BUFFER below.
     1613       11                BUFFER - Character buffer, uninitialized at entry.
     1614       12                START_INDEX - Index into BUFFER at which to start formating.
     1615       13                END_INDEX - Uninitialized word.
     1616       14            INPUT:
     1617       15            OUTPUT:
     1618       16                BUFFER will be modified.  Characters from START_INDEX thru
     1619       17                    (new value of END_INDEX) - 1, will be the displayable form of
     1620       18                    the location's keys, position, and EOF bit.
     1621       19                END_INDEX will contain the index into BUFFER of the byte
     1622       20                    after the last one occupied by the displayable form the location.
     1623       21            DESCRIPTION:
     1624       22                If LOCATION.EOF is set, just format the string "EO CURR".
     1625       23                Otherwise, format each non-%CLEAR key, then the position #, as below:
     1626       24                        <key1> <key2> <key3> position <position>
     1627       25        */
     1628       26
     1629       27        VDG$FORMAT_LOCATION: PROC (LOCATION, NB_BUFFER, BUFFER, START_INDEX, END_INDEX);

     27  1 000000   000000 700200 xent  VDG$FORMAT_* TSX0  ! X66_AUTO_5
         1 000001   000022 000005                    ZERO    18,5

     1630       28
     1631       29
     1632       30        %INCLUDE VD_MACROS_M;
     1633     2245
     1634     2246
PL6.E3A0      #014=VDG$FORMAT_LOCATION File=VDG$UTILITY.:VDA5TSI                 FRI 07/04/97 11:24 Page:272
     1635     2247        %VD$LOCATION (NAME=LOCATION, STCLASS=PARAM);
     1636     2275    1   DCL NB_BUFFER SBIN;
     1637     2276    1   DCL BUFFER CHAR(NB_BUFFER) CALIGNED;
     1638     2277    1   DCL START_INDEX SBIN;
     1639     2278    1   DCL END_INDEX SBIN;
     1640     2279
     1641     2280
     1642     2281    1   DCL VDG$FORMAT_KEY      ENTRY (5);
     1643     2282    1   DCL VDG$FORMAT_NUMBER   ENTRY (6);
     1644     2283
     1645     2284
     1646     2285
     1647     2286    1   DCL START SBIN;
     1648     2287    1   DCL LOC_INDEX SBIN;
     1649     2288    1   DCL POSITION SBIN;
     1650     2289
     1651     2290
     1652     2291
     1653     2292    1           START = START_INDEX;   /* My own copy so I can change it */

   2292  1 000002   200006 470500                    LDP0    @START_INDEX,,AUTO
         1 000003   000000 235100                    LDA     0,,PR0
         1 000004   200010 755100                    STA     START,,AUTO

     1654     2293
     1655     2294    2           IF LOCATION.EOF THEN DO;

   2294  1 000005   200003 471500                    LDP1    @LOCATION,,AUTO
         1 000006   100010 236100                    LDQ     8,,PR1
         1 000007   400000 316007                    CANQ    -131072,DL
         1 000010   000032 600000 1                  TZE     FORMAT_KEYS_AND_POSITION

     1656     2295    2              END_INDEX = MINIMUM (START +

   2295  1 000011   200010 236100                    LDQ     START,,AUTO
         1 000012   000007 036007                    ADLQ    7,DL
         1 000013   200004 473500                    LDP3    @NB_BUFFER,,AUTO
PL6.E3A0      #014=VDG$FORMAT_LOCATION File=VDG$UTILITY.:VDA5TSI                 FRI 07/04/97 11:24 Page:273
         1 000014   300000 116100                    CMPQ    0,,PR3
         1 000015   000017 604400 1                  TMOZ    s:2295+6
         1 000016   300000 236100                    LDQ     0,,PR3
         1 000017   200007 474500                    LDP4    @END_INDEX,,AUTO
         1 000020   400000 756100                    STQ     0,,PR4

     1657     2296    2                %LENGTHC(CONCAT(DW_EO,CHR_SPACE,DWLC_CURR)), NB_BUFFER);
     1658     2297    2              CALL INSERT (BUFFER, START, END_INDEX - START,

   2297  1 000021   300000 720100                    LXL0    0,,PR3
         1 000022   200010 136100                    SBLQ    START,,AUTO
         1 000023   200005 475500                    LDP5    @BUFFER,,AUTO
         1 000024   000000 621006                    EAX1    0,QL
         1 000025   200010 235100                    LDA     START,,AUTO
         1 000026   040145 100400                    MLR     fill='040'O
         1 000027   000000 000007 0                  ADSC9   0                        cn=0,n=7
         1 000030   500000 000011                    ADSC9   0,A,PR5                  cn=0,n=*X1

     1659     2298    2                %CONCAT(DW_EO,CHR_SPACE,DWLC_CURR));
     1660     2299    2              END;

   2299  1 000031   000202 710000 1                  TRA     s:2334

     1661     2300    1           ELSE
     1662     2301    2   FORMAT_KEYS_AND_POSITION: DO;

   2301  1 000032                       FORMAT_KEYS* null
     1663     2302    2              LOC_INDEX = 0;

   2302  1 000032   200011 450100                    STZ     LOC_INDEX,,AUTO

     1664     2303    2   EACH_LOCATION_LEVEL:
     1665     2304    3              DO WHILE LOC_INDEX < %MX_LOCATION_LEVELS

   2304  1 000033   000115 710000 1     EACH_LOCATI* TRA     s:2320

     1666     2305    3                AND LOCATION.KEY (LOC_INDEX) ~= %CLEAR
PL6.E3A0      #014=VDG$FORMAT_LOCATION File=VDG$UTILITY.:VDA5TSI                 FRI 07/04/97 11:24 Page:274
     1667     2306    3                AND END_INDEX < NB_BUFFER;
     1668     2307    3                 CALL VDG$FORMAT_KEY (LOCATION.KEY (LOC_INDEX), NB_BUFFER, BUFFER,

   2307  1 000034   200007 236100                    LDQ     @END_INDEX,,AUTO
         1 000035   200020 756100                    STQ     POSITION+6,,AUTO
         1 000036   200010 630500                    EPPR0   START,,AUTO
         1 000037   200017 450500                    STP0    POSITION+5,,AUTO
         1 000040   200005 236100                    LDQ     @BUFFER,,AUTO
         1 000041   200016 756100                    STQ     POSITION+4,,AUTO
         1 000042   200004 236100                    LDQ     @NB_BUFFER,,AUTO
         1 000043   200015 756100                    STQ     POSITION+3,,AUTO
         1 000044   200011 236100                    LDQ     LOC_INDEX,,AUTO
         1 000045   000023 736000                    QLS     19
         1 000046   200003 036100                    ADLQ    @LOCATION,,AUTO
         1 000047   200014 756100                    STQ     POSITION+2,,AUTO
         1 000050   200014 630500                    EPPR0   POSITION+2,,AUTO
         1 000051   000023 631400 xsym               EPPR1   B_VECTNIL+19
         1 000052   000000 701000 xent               TSX1    VDG$FORMAT_KEY
         1 000053   000000 011000                    NOP     0

     1669     2308    3                   START, END_INDEX);
     1670     2309    3                 START = END_INDEX;

   2309  1 000054   200007 470500                    LDP0    @END_INDEX,,AUTO
         1 000055   000000 235100                    LDA     0,,PR0
         1 000056   200010 755100                    STA     START,,AUTO

     1671     2310    3                 LOC_INDEX = LOC_INDEX + 1;

   2310  1 000057   200011 054100                    AOS     LOC_INDEX,,AUTO

     1672     2311    3                 IF LOC_INDEX < %MX_LOCATION_LEVELS

   2311  1 000060   200011 236100                    LDQ     LOC_INDEX,,AUTO
         1 000061   000004 116007                    CMPQ    4,DL
         1 000062   000115 605000 1                  TPL     s:2320
         1 000063   200011 235100                    LDA     LOC_INDEX,,AUTO
PL6.E3A0      #014=VDG$FORMAT_LOCATION File=VDG$UTILITY.:VDA5TSI                 FRI 07/04/97 11:24 Page:275
         1 000064   000003 735000                    ALS     3
         1 000065   200003 471500                    LDP1    @LOCATION,,AUTO
         1 000066   000000 106505                    CMPC    fill='000'O
         1 000067   100000 000010                    ADSC9   0,A,PR1                  cn=0,n=8
         1 000070   000002 000002 xsym               ADSC9   B_VECTNIL+2              cn=0,n=2
         1 000071   000115 600000 1                  TZE     s:2320

     1673     2312    4                   AND LOCATION.KEY (LOC_INDEX) ~= %CLEAR THEN DO;

     1674     2313    4                    END_INDEX = MINIMUM (START + LENGTHC(%CHR_SPACE), NB_BUFFER);

   2313  1 000072   200010 236100                    LDQ     START,,AUTO
         1 000073   000001 036007                    ADLQ    1,DL
         1 000074   200004 473500                    LDP3    @NB_BUFFER,,AUTO
         1 000075   300000 116100                    CMPQ    0,,PR3
         1 000076   000100 604400 1                  TMOZ    s:2313+6
         1 000077   300000 236100                    LDQ     0,,PR3
         1 000100   000000 756100                    STQ     0,,PR0

     1675     2314    5                    IF END_INDEX < NB_BUFFER THEN DO;

   2314  1 000101   300000 116100                    CMPQ    0,,PR3
         1 000102   000115 605000 1                  TPL     s:2320

     1676     2315    5                       CALL INSERT (BUFFER, START, END_INDEX - START,

   2315  1 000103   300000 720100                    LXL0    0,,PR3
         1 000104   200010 136100                    SBLQ    START,,AUTO
         1 000105   200005 474500                    LDP4    @BUFFER,,AUTO
         1 000106   000000 621006                    EAX1    0,QL
         1 000107   200010 236100                    LDQ     START,,AUTO
         1 000110   040146 100400                    MLR     fill='040'O
         1 000111   000035 000001 xsym               ADSC9   B_VECTNIL+29             cn=0,n=1
         1 000112   400000 000011                    ADSC9   0,Q,PR4                  cn=0,n=*X1

     1677     2316    5                         %CHR_SPACE);
     1678     2317    5                       START = END_INDEX;
PL6.E3A0      #014=VDG$FORMAT_LOCATION File=VDG$UTILITY.:VDA5TSI                 FRI 07/04/97 11:24 Page:276

   2317  1 000113   000000 235100                    LDA     0,,PR0
         1 000114   200010 755100                    STA     START,,AUTO

     1679     2318    5                       END;

     1680     2319    4                    END;

     1681     2320    3                 END EACH_LOCATION_LEVEL;

   2320  1 000115   200011 235100                    LDA     LOC_INDEX,,AUTO
         1 000116   000004 115007                    CMPA    4,DL
         1 000117   000133 605000 1                  TPL     s:2322
         1 000120   000003 735000                    ALS     3
         1 000121   200003 470500                    LDP0    @LOCATION,,AUTO
         1 000122   000000 106505                    CMPC    fill='000'O
         1 000123   000000 000010                    ADSC9   0,A,PR0                  cn=0,n=8
         1 000124   000002 000002 xsym               ADSC9   B_VECTNIL+2              cn=0,n=2
         1 000125   000133 600000 1                  TZE     s:2322
         1 000126   200007 471500                    LDP1    @END_INDEX,,AUTO
         1 000127   200004 473500                    LDP3    @NB_BUFFER,,AUTO
         1 000130   100000 236100                    LDQ     0,,PR1
         1 000131   300000 116100                    CMPQ    0,,PR3
         1 000132   000034 604000 1                  TMI     s:2307

     1682     2321
     1683     2322    2              END_INDEX = MINIMUM (START + %LENGTHC(CONCAT(' ',DWLC_POSITION,' ')),

   2322  1 000133   200010 236100                    LDQ     START,,AUTO
         1 000134   000012 036007                    ADLQ    10,DL
         1 000135   200004 470500                    LDP0    @NB_BUFFER,,AUTO
         1 000136   000000 116100                    CMPQ    0,,PR0
         1 000137   000141 604400 1                  TMOZ    s:2322+6
         1 000140   000000 236100                    LDQ     0,,PR0
         1 000141   200007 471500                    LDP1    @END_INDEX,,AUTO
         1 000142   100000 756100                    STQ     0,,PR1

PL6.E3A0      #014=VDG$FORMAT_LOCATION File=VDG$UTILITY.:VDA5TSI                 FRI 07/04/97 11:24 Page:277
     1684     2323    2                NB_BUFFER);
     1685     2324    3              IF END_INDEX < NB_BUFFER THEN DO;

   2324  1 000143   000000 116100                    CMPQ    0,,PR0
         1 000144   000202 605000 1                  TPL     s:2334

     1686     2325    3                 CALL INSERT (BUFFER, START, END_INDEX - START,

   2325  1 000145   000000 720100                    LXL0    0,,PR0
         1 000146   200010 136100                    SBLQ    START,,AUTO
         1 000147   200005 473500                    LDP3    @BUFFER,,AUTO
         1 000150   000000 621006                    EAX1    0,QL
         1 000151   200010 235100                    LDA     START,,AUTO
         1 000152   040145 100400                    MLR     fill='040'O
         1 000153   000002 000012 0                  ADSC9   2                        cn=0,n=10
         1 000154   300000 000011                    ADSC9   0,A,PR3                  cn=0,n=*X1

     1687     2326    3                   %CONCAT(' ',DWLC_POSITION,' '));
     1688     2327    3                 START = END_INDEX;

   2327  1 000155   100000 235100                    LDA     0,,PR1
         1 000156   200010 755100                    STA     START,,AUTO

     1689     2328    3                 POSITION = LOCATION.POSITION# + 1;

   2328  1 000157   200003 474500                    LDP4    @LOCATION,,AUTO
         1 000160   400010 236100                    LDQ     8,,PR4
         1 000161   000022 732000                    QRS     18
         1 000162   000001 036007                    ADLQ    1,DL
         1 000163   200012 756100                    STQ     POSITION,,AUTO

     1690     2329    3                 CALL VDG$FORMAT_NUMBER (%CLS_NUMBER, POSITION, NB_BUFFER, BUFFER,

   2329  1 000164   200007 236100                    LDQ     @END_INDEX,,AUTO
         1 000165   200021 756100                    STQ     POSITION+7,,AUTO
         1 000166   200010 635500                    EPPR5   START,,AUTO
         1 000167   200020 455500                    STP5    POSITION+6,,AUTO
PL6.E3A0      #014=VDG$FORMAT_LOCATION File=VDG$UTILITY.:VDA5TSI                 FRI 07/04/97 11:24 Page:278
         1 000170   200004 237100                    LDAQ    @NB_BUFFER,,AUTO
         1 000171   200016 757100                    STAQ    POSITION+4,,AUTO
         1 000172   200012 636500                    EPPR6   POSITION,,AUTO
         1 000173   200015 456500                    STP6    POSITION+3,,AUTO
         1 000174   000001 236000 2                  LDQ     1
         1 000175   200014 756100                    STQ     POSITION+2,,AUTO
         1 000176   200014 630500                    EPPR0   POSITION+2,,AUTO
         1 000177   000024 631400 xsym               EPPR1   B_VECTNIL+20
         1 000200   000000 701000 xent               TSX1    VDG$FORMAT_NUMBER
         1 000201   000000 011000                    NOP     0

     1691     2330    3                   START, END_INDEX);
     1692     2331    3                 END;

     1693     2332    2              END FORMAT_KEYS_AND_POSITION;

     1694     2333
     1695     2334    1           RETURN;

   2334  1 000202   000000 702200 xent               TSX2  ! X66_ARET
     1696     2335
     1697     2336    1   END VDG$FORMAT_LOCATION;
     1698     2337        %EOD;

PL6.E3A0      #014=VDG$FORMAT_LOCATION File=VDG$UTILITY.:VDA5TSI                 FRI 07/04/97 11:24 Page:279
--  Include file information  --

   VD_MACROS_M.:VDA5TOU  is referenced.
   B$JIT_C.:E04TOU  was found in the system file and is never referenced.
   CP_6_C.:E04TOU  was found in the system file and is never referenced.
      No diagnostics issued in procedure VDG$FORMAT_LOCATION.
PL6.E3A0      #014=VDG$FORMAT_LOCATION File=VDG$UTILITY.:VDA5TSI                 FRI 07/04/97 11:24 Page:280

 **** Variables and constants ****

  ****  Auto variables  ****

  ****  Scalars and arrays  ****
OctLoc.c.b A Datatyp(siz) R M Lvl/name                 OctLoc.c.b A Datatyp(siz) R M Lvl/name

     5-0-0/w PTR         r     1 @BUFFER                    7-0-0/w PTR         r     1 @END_INDEX
     3-0-0/w PTR         r     1 @LOCATION                  4-0-0/w PTR         r     1 @NB_BUFFER
     6-0-0/w PTR         r     1 @START_INDEX              *0-0-0/c ACHR        r     1 BUFFER
    *0-0-0/w SBIN        r     1 END_INDEX                 *0-0-0/w STRC(324)   r     1 LOCATION
    11-0-0/w SBIN        r     1 LOC_INDEX                 *0-0-0/w SBIN        r     1 NB_BUFFER
    12-0-0/w SBIN        r     1 POSITION                  10-0-0/w SBIN        r     1 START
    *0-0-0/w SBIN        r     1 START_INDEX


   Procedure VDG$FORMAT_LOCATION requires 131 words for executable code.
   Procedure VDG$FORMAT_LOCATION requires 18 words of local(AUTO) storage.
PL6.E3A0      #014=VDG$FORMAT_LOCATION File=VDG$UTILITY.:VDA5TSI                 FRI 07/04/97 11:24 Page:281
          *** CROSS REFERENCE LISTING ***
**     DENOTES     IDENTIFIER DEFINITION
<<                 IDENTIFIER'S VALUE SET
>>                 IDENTIFIER'S VALUE USED
<>                 IDENTIFIER SET AND/OR USED
--                 IDENTIFIER REFERENCED
PL6.E3A0      #014=VDG$FORMAT_LOCATION File=VDG$UTILITY.:VDA5TSI                 FRI 07/04/97 11:24 Page:282
          MINI XREF LISTING

BUFFER
      2276**DCL        27--PROC     2297<<CALLBLT  2307<>CALL     2315<<CALLBLT  2325<<CALLBLT  2329<>CALL
END_INDEX
      2278**DCL        27--PROC     2295<<ASSIGN   2297>>CALLBLT  2304>>DOWHILE  2307<>CALL     2309>>ASSIGN
      2313<<ASSIGN   2314>>IF       2315>>CALLBLT  2317>>ASSIGN   2322<<ASSIGN   2324>>IF       2325>>CALLBLT
      2327>>ASSIGN   2329<>CALL
LOCATION
      2255**DCL        27--PROC
LOCATION.EOF
      2273**DCL      2294>>IF
LOCATION.KEY
      2269**DCL      2304>>DOWHILE  2307<>CALL     2311>>IF
LOCATION.POSITION#
      2273**DCL      2328>>ASSIGN
LOC_INDEX
      2287**DCL      2302<<ASSIGN   2304>>DOWHILE  2304>>DOWHILE  2307>>CALL     2310<<ASSIGN   2310>>ASSIGN
      2311>>IF       2311>>IF
NB_BUFFER
      2275**DCL        27--PROC     2276--IMP-SIZ  2295>>ASSIGN   2297>>CALLBLT  2304>>DOWHILE  2307<>CALL
      2307>>CALL     2313>>ASSIGN   2314>>IF       2315>>CALLBLT  2322>>ASSIGN   2324>>IF       2325>>CALLBLT
      2329<>CALL     2329>>CALL
POSITION
      2288**DCL      2328<<ASSIGN   2329<>CALL
START
      2286**DCL      2292<<ASSIGN   2295>>ASSIGN   2297>>CALLBLT  2297>>CALLBLT  2307<>CALL     2309<<ASSIGN
      2313>>ASSIGN   2315>>CALLBLT  2315>>CALLBLT  2317<<ASSIGN   2322>>ASSIGN   2325>>CALLBLT  2325>>CALLBLT
      2327<<ASSIGN   2329<>CALL
START_INDEX
      2277**DCL        27--PROC     2292>>ASSIGN
VDG$FORMAT_KEY
      2281**DCL-ENT  2307--CALL
VDG$FORMAT_NUMBER
PL6.E3A0      #014=VDG$FORMAT_LOCATION File=VDG$UTILITY.:VDA5TSI                 FRI 07/04/97 11:24 Page:283
      2282**DCL-ENT  2329--CALL

PL6.E3A0      #015=VDG$FORMAT_WINDOW_SPEC File=VDG$UTILITY.:VDA5TSI              FRI 07/04/97 11:24 Page:284
     1699        1        /*T***********************************************************/
     1700        2        /*T*                                                         */
     1701        3        /*T* Copyright (c) Bull HN Information Systems Inc., 1997    */
     1702        4        /*T*                                                         */
     1703        5        /*T***********************************************************/
     1704        6
     1705        7        /*D* NAME: VDG$FORMAT_WINDOW_SPEC
     1706        8            PARAMETERS:
     1707        9                WINDOW_SPEC - A VD$WINDOW_SPEC structure specifying the windowwhose
     1708       10                    parameters are to be formatted.
     1709       11                NB_BUFFER - # bytes in BUFFER below.
     1710       12                BUFFER - Character buffer, uninitialized at entry.
     1711       13                START_INDEX - Index into BUFFER at which to start formating.
     1712       14                END_INDEX - Uninitialized word.
     1713       15            INPUT:
     1714       16            OUTPUT:
     1715       17                BUFFER will be modified.  Characters from START_INDEX thru
     1716       18                    (new value of END_INDEX) - 1, will be the displayable form of
     1717       19                    WINDOW_SPEC.
     1718       20                END_INDEX will contain the index into BUFFER of the byte
     1719       21                    after the last one occupied by the displayable form
     1720       22                    of WINDOW_SPEC.
     1721       23            DESCRIPTION:
     1722       24                Format the window coordinates as shown below:
     1723       25
     1724       26                    LINE <line> LENGTH <length>
     1725       27
     1726       28                The basic idea of the display format is to display WINDOW_SPEC in a
     1727       29                    form in which it could be entered in the 6Edit command language.
     1728       30        */
     1729       31
     1730       32        VDG$FORMAT_WINDOW_SPEC: PROC (WINDOW_SPEC, NB_BUFFER, BUFFER, START_INDEX,
     1731       33                  END_INDEX);
     1732       34
     1733       35
     1734       36        %INCLUDE VD_MACROS_M;
     1735     2251
PL6.E3A0      #015=VDG$FORMAT_WINDOW_SPEC File=VDG$UTILITY.:VDA5TSI              FRI 07/04/97 11:24 Page:285
     1736     2252
     1737     2253        %VD$WINDOW_SPEC (NAME=WINDOW_SPEC, STCLASS=PARAM);
     1738     2319    1   DCL NB_BUFFER SBIN;
     1739     2320    1   DCL BUFFER CHAR(NB_BUFFER) CALIGNED;
     1740     2321    1   DCL START_INDEX SBIN;
     1741     2322    1   DCL END_INDEX SBIN;
     1742     2323
     1743     2324
     1744     2325    1   DCL VDG$FORMAT_NUMBER       ENTRY (6);
     1745     2326
     1746     2327
     1747     2328    1   DCL START SBIN;
     1748     2329    1   DCL LEVEL SBIN;
     1749     2330
     1750     2331
     1751     2332    1           START = START_INDEX;
     1752     2333    1           END_INDEX = MINIMUM (START + %LENGTHC('LINE '), NB_BUFFER);
     1753     2334    1           SUBSTR (BUFFER, START, END_INDEX-START) = 'LINE ';
     1754     2335    1           CALL VDG$FORMAT_NUMBER (%CLS_NUMBER, WINDOW_SPEC.COORDS.LINE#,
     1755     2336    1             NB_BUFFER, BUFFER, END_INDEX, END_INDEX);
     1756     2337    1           START = END_INDEX;
     1757     2338    1           END_INDEX = MINIMUM (START + %LENGTHC(' LENGTH '), NB_BUFFER);
     1758     2339    1           SUBSTR (BUFFER, START, END_INDEX-START) = ' LENGTH ';
     1759     2340    1           CALL VDG$FORMAT_NUMBER (%CLS_NUMBER, WINDOW_SPEC.COORDS.HEIGHT#,
     1760     2341    1             NB_BUFFER, BUFFER, END_INDEX, END_INDEX);
     1761     2342    1           RETURN;
     1762     2343    1   END VDG$FORMAT_WINDOW_SPEC;
     1763     2344        %EOD;

PL6.E3A0      #015=VDG$FORMAT_WINDOW_SPEC File=VDG$UTILITY.:VDA5TSI              FRI 07/04/97 11:24 Page:286
--  Include file information  --

   VD_MACROS_M.:VDA5TOU  is referenced.
   B$JIT_C.:E04TOU  was found in the system file and is never referenced.
   CP_6_C.:E04TOU  was found in the system file and is never referenced.
      No diagnostics issued in procedure VDG$FORMAT_WINDOW_SPEC.

   Procedure VDG$FORMAT_WINDOW_SPEC requires 64 words for executable code.
   Procedure VDG$FORMAT_WINDOW_SPEC requires 16 words of local(AUTO) storage.

PL6.E3A0      #015=VDG$FORMAT_WINDOW_SPEC File=VDG$UTILITY.:VDA5TSI              FRI 07/04/97 11:24 Page:287

 Object Unit name= VDG$FORMAT_WINDOW_SPEC                     File name= VDG$UTILITY.:VDA5TOU
 UTS= JUL 04 '97 11:24:40.16 FRI                              Compiler= PL-6/E31         Sev=      00
 SharedLib= :SHARED_SYSTEM                                    Alt SharedLib=


    ****  Control sections  ****

 Sect   Type Bound  Init  Size OctSiz  Section name(segment info)
    0  RoData even  UTS      4      4  VDG$FORMAT_WINDOW_SPEC
    1   Proc  even  none    64    100  VDG$FORMAT_WINDOW_SPEC
    2  RoData even  none     2      2  VDG$FORMAT_WINDOW_SPEC

    ****  Entry defs  ****

                              Check   Calling
                             calling  sequence
  Sect OctLoc Primary Altret sequence   type   Parms  Name
     1      0   yes            yes      Std        5  VDG$FORMAT_WINDOW_SPEC

  ****  Entry refs  ****

         Check        Calling
        calling       sequence
Altret sequence SRef   type   Args  Name
         yes           Std       6 VDG$FORMAT_NUMBER
                       nStd      0 X66_AUTO_5
                       Std       0 B_CONSPOOL_D
                       nStd      0 X66_ARET

  ****  Data refs  ****

  Flags:  r = read only, s = secondary
Flgs Name                             Flgs Name                             Flgs Name
     B_VECTNIL
PL6.E3A0      #015=VDG$FORMAT_WINDOW_SPEC File=VDG$UTILITY.:VDA5TSI              FRI 07/04/97 11:24 Page:288

  ****  Segment refs  ****

  Flags:  r = read only, s = secondary
Flgs Name                             Flgs Name                             Flgs Name
     ISSID
PL6.E3A0      #015=VDG$FORMAT_WINDOW_SPEC File=VDG$UTILITY.:VDA5TSI              FRI 07/04/97 11:24 Page:289


     1699        1        /*T***********************************************************/
     1700        2        /*T*                                                         */
     1701        3        /*T* Copyright (c) Bull HN Information Systems Inc., 1997    */
     1702        4        /*T*                                                         */
     1703        5        /*T***********************************************************/
     1704        6
     1705        7        /*D* NAME: VDG$FORMAT_WINDOW_SPEC
     1706        8            PARAMETERS:
     1707        9                WINDOW_SPEC - A VD$WINDOW_SPEC structure specifying the windowwhose
     1708       10                    parameters are to be formatted.
     1709       11                NB_BUFFER - # bytes in BUFFER below.
     1710       12                BUFFER - Character buffer, uninitialized at entry.
     1711       13                START_INDEX - Index into BUFFER at which to start formating.
     1712       14                END_INDEX - Uninitialized word.
     1713       15            INPUT:
     1714       16            OUTPUT:
     1715       17                BUFFER will be modified.  Characters from START_INDEX thru
     1716       18                    (new value of END_INDEX) - 1, will be the displayable form of
     1717       19                    WINDOW_SPEC.
     1718       20                END_INDEX will contain the index into BUFFER of the byte
     1719       21                    after the last one occupied by the displayable form
     1720       22                    of WINDOW_SPEC.
     1721       23            DESCRIPTION:
     1722       24                Format the window coordinates as shown below:
     1723       25
     1724       26                    LINE <line> LENGTH <length>
     1725       27
     1726       28                The basic idea of the display format is to display WINDOW_SPEC in a
     1727       29                    form in which it could be entered in the 6Edit command language.
     1728       30        */
     1729       31
     1730       32        VDG$FORMAT_WINDOW_SPEC: PROC (WINDOW_SPEC, NB_BUFFER, BUFFER, START_INDEX,

     32  1 000000   000000 700200 xent  VDG$FORMAT_* TSX0  ! X66_AUTO_5
         1 000001   000020 000005                    ZERO    16,5

PL6.E3A0      #015=VDG$FORMAT_WINDOW_SPEC File=VDG$UTILITY.:VDA5TSI              FRI 07/04/97 11:24 Page:290
     1731       33                  END_INDEX);
     1732       34
     1733       35
     1734       36        %INCLUDE VD_MACROS_M;
     1735     2251
     1736     2252
     1737     2253        %VD$WINDOW_SPEC (NAME=WINDOW_SPEC, STCLASS=PARAM);
     1738     2319    1   DCL NB_BUFFER SBIN;
     1739     2320    1   DCL BUFFER CHAR(NB_BUFFER) CALIGNED;
     1740     2321    1   DCL START_INDEX SBIN;
     1741     2322    1   DCL END_INDEX SBIN;
     1742     2323
     1743     2324
     1744     2325    1   DCL VDG$FORMAT_NUMBER       ENTRY (6);
     1745     2326
     1746     2327
     1747     2328    1   DCL START SBIN;
     1748     2329    1   DCL LEVEL SBIN;
     1749     2330
     1750     2331
     1751     2332    1           START = START_INDEX;

   2332  1 000002   200006 470500                    LDP0    @START_INDEX,,AUTO
         1 000003   000000 235100                    LDA     0,,PR0
         1 000004   200010 755100                    STA     START,,AUTO

     1752     2333    1           END_INDEX = MINIMUM (START + %LENGTHC('LINE '), NB_BUFFER);

   2333  1 000005   200010 236100                    LDQ     START,,AUTO
         1 000006   000005 036007                    ADLQ    5,DL
         1 000007   200004 471500                    LDP1    @NB_BUFFER,,AUTO
         1 000010   100000 116100                    CMPQ    0,,PR1
         1 000011   000013 604400 1                  TMOZ    s:2333+6
         1 000012   100000 236100                    LDQ     0,,PR1
         1 000013   200007 473500                    LDP3    @END_INDEX,,AUTO
         1 000014   300000 756100                    STQ     0,,PR3

PL6.E3A0      #015=VDG$FORMAT_WINDOW_SPEC File=VDG$UTILITY.:VDA5TSI              FRI 07/04/97 11:24 Page:291
     1753     2334    1           SUBSTR (BUFFER, START, END_INDEX-START) = 'LINE ';

   2334  1 000015   100000 720100                    LXL0    0,,PR1
         1 000016   200010 136100                    SBLQ    START,,AUTO
         1 000017   200005 474500                    LDP4    @BUFFER,,AUTO
         1 000020   000000 621006                    EAX1    0,QL
         1 000021   040145 100400                    MLR     fill='040'O
         1 000022   000000 000005 0                  ADSC9   0                        cn=0,n=5
         1 000023   400000 000011                    ADSC9   0,A,PR4                  cn=0,n=*X1

     1754     2335    1           CALL VDG$FORMAT_NUMBER (%CLS_NUMBER, WINDOW_SPEC.COORDS.LINE#,

   2335  1 000024   200007 236100                    LDQ     @END_INDEX,,AUTO
         1 000025   200007 235100                    LDA     @END_INDEX,,AUTO
         1 000026   200016 757100                    STAQ    START+6,,AUTO
         1 000027   200004 237100                    LDAQ    @NB_BUFFER,,AUTO
         1 000030   200014 757100                    STAQ    START+4,,AUTO
         1 000031   200003 236100                    LDQ     @WINDOW_SPEC,,AUTO
         1 000032   000003 036003                    ADLQ    3,DU
         1 000033   000001 235000 2                  LDA     1
         1 000034   200012 757100                    STAQ    START+2,,AUTO
         1 000035   200012 630500                    EPPR0   START+2,,AUTO
         1 000036   000024 631400 xsym               EPPR1   B_VECTNIL+20
         1 000037   000000 701000 xent               TSX1    VDG$FORMAT_NUMBER
         1 000040   000000 011000                    NOP     0

     1755     2336    1             NB_BUFFER, BUFFER, END_INDEX, END_INDEX);
     1756     2337    1           START = END_INDEX;

   2337  1 000041   200007 470500                    LDP0    @END_INDEX,,AUTO
         1 000042   000000 235100                    LDA     0,,PR0
         1 000043   200010 755100                    STA     START,,AUTO

     1757     2338    1           END_INDEX = MINIMUM (START + %LENGTHC(' LENGTH '), NB_BUFFER);

   2338  1 000044   200010 236100                    LDQ     START,,AUTO
         1 000045   000010 036007                    ADLQ    8,DL
PL6.E3A0      #015=VDG$FORMAT_WINDOW_SPEC File=VDG$UTILITY.:VDA5TSI              FRI 07/04/97 11:24 Page:292
         1 000046   200004 471500                    LDP1    @NB_BUFFER,,AUTO
         1 000047   100000 116100                    CMPQ    0,,PR1
         1 000050   000052 604400 1                  TMOZ    s:2338+6
         1 000051   100000 236100                    LDQ     0,,PR1
         1 000052   000000 756100                    STQ     0,,PR0

     1758     2339    1           SUBSTR (BUFFER, START, END_INDEX-START) = ' LENGTH ';

   2339  1 000053   100000 720100                    LXL0    0,,PR1
         1 000054   200010 136100                    SBLQ    START,,AUTO
         1 000055   200005 473500                    LDP3    @BUFFER,,AUTO
         1 000056   000000 621006                    EAX1    0,QL
         1 000057   040145 100400                    MLR     fill='040'O
         1 000060   000002 000010 0                  ADSC9   2                        cn=0,n=8
         1 000061   300000 000011                    ADSC9   0,A,PR3                  cn=0,n=*X1

     1759     2340    1           CALL VDG$FORMAT_NUMBER (%CLS_NUMBER, WINDOW_SPEC.COORDS.HEIGHT#,

   2340  1 000062   200007 236100                    LDQ     @END_INDEX,,AUTO
         1 000063   200007 235100                    LDA     @END_INDEX,,AUTO
         1 000064   200016 757100                    STAQ    START+6,,AUTO
         1 000065   200004 237100                    LDAQ    @NB_BUFFER,,AUTO
         1 000066   200014 757100                    STAQ    START+4,,AUTO
         1 000067   200003 236100                    LDQ     @WINDOW_SPEC,,AUTO
         1 000070   000005 036003                    ADLQ    5,DU
         1 000071   000001 235000 2                  LDA     1
         1 000072   200012 757100                    STAQ    START+2,,AUTO
         1 000073   200012 630500                    EPPR0   START+2,,AUTO
         1 000074   000024 631400 xsym               EPPR1   B_VECTNIL+20
         1 000075   000000 701000 xent               TSX1    VDG$FORMAT_NUMBER
         1 000076   000000 011000                    NOP     0

     1760     2341    1             NB_BUFFER, BUFFER, END_INDEX, END_INDEX);
     1761     2342    1           RETURN;

   2342  1 000077   000000 702200 xent               TSX2  ! X66_ARET
     1762     2343    1   END VDG$FORMAT_WINDOW_SPEC;
PL6.E3A0      #015=VDG$FORMAT_WINDOW_SPEC File=VDG$UTILITY.:VDA5TSI              FRI 07/04/97 11:24 Page:293
     1763     2344        %EOD;

PL6.E3A0      #015=VDG$FORMAT_WINDOW_SPEC File=VDG$UTILITY.:VDA5TSI              FRI 07/04/97 11:24 Page:294
--  Include file information  --

   VD_MACROS_M.:VDA5TOU  is referenced.
   B$JIT_C.:E04TOU  was found in the system file and is never referenced.
   CP_6_C.:E04TOU  was found in the system file and is never referenced.
      No diagnostics issued in procedure VDG$FORMAT_WINDOW_SPEC.
PL6.E3A0      #015=VDG$FORMAT_WINDOW_SPEC File=VDG$UTILITY.:VDA5TSI              FRI 07/04/97 11:24 Page:295

 **** Variables and constants ****

  ****  Auto variables  ****

  ****  Scalars and arrays  ****
OctLoc.c.b A Datatyp(siz) R M Lvl/name                 OctLoc.c.b A Datatyp(siz) R M Lvl/name

     5-0-0/w PTR         r     1 @BUFFER                    7-0-0/w PTR         r     1 @END_INDEX
     4-0-0/w PTR         r     1 @NB_BUFFER                 6-0-0/w PTR         r     1 @START_INDEX
     3-0-0/w PTR         r     1 @WINDOW_SPEC              *0-0-0/c ACHR        r     1 BUFFER
    *0-0-0/w SBIN        r     1 END_INDEX                 *0-0-0/w SBIN        r     1 NB_BUFFER
    10-0-0/w SBIN        r     1 START                     *0-0-0/w SBIN        r     1 START_INDEX
    *0-0-0/w STRC(900)   r     1 WINDOW_SPEC


   Procedure VDG$FORMAT_WINDOW_SPEC requires 64 words for executable code.
   Procedure VDG$FORMAT_WINDOW_SPEC requires 16 words of local(AUTO) storage.
PL6.E3A0      #015=VDG$FORMAT_WINDOW_SPEC File=VDG$UTILITY.:VDA5TSI              FRI 07/04/97 11:24 Page:296
          *** CROSS REFERENCE LISTING ***
**     DENOTES     IDENTIFIER DEFINITION
<<                 IDENTIFIER'S VALUE SET
>>                 IDENTIFIER'S VALUE USED
<>                 IDENTIFIER SET AND/OR USED
--                 IDENTIFIER REFERENCED
PL6.E3A0      #015=VDG$FORMAT_WINDOW_SPEC File=VDG$UTILITY.:VDA5TSI              FRI 07/04/97 11:24 Page:297
          MINI XREF LISTING

BUFFER
      2320**DCL        32--PROC     2334<<ASSIGN   2335<>CALL     2339<<ASSIGN   2340<>CALL
END_INDEX
      2322**DCL        32--PROC     2333<<ASSIGN   2334>>ASSIGN   2335<>CALL     2335<>CALL     2337>>ASSIGN
      2338<<ASSIGN   2339>>ASSIGN   2340<>CALL     2340<>CALL
NB_BUFFER
      2319**DCL        32--PROC     2320--IMP-SIZ  2333>>ASSIGN   2334>>ASSIGN   2335<>CALL     2335>>CALL
      2338>>ASSIGN   2339>>ASSIGN   2340<>CALL     2340>>CALL
START
      2328**DCL      2332<<ASSIGN   2333>>ASSIGN   2334>>ASSIGN   2334>>ASSIGN   2337<<ASSIGN   2338>>ASSIGN
      2339>>ASSIGN   2339>>ASSIGN
START_INDEX
      2321**DCL        32--PROC     2332>>ASSIGN
VDG$FORMAT_NUMBER
      2325**DCL-ENT  2335--CALL     2340--CALL
WINDOW_SPEC
      2261**DCL        32--PROC
WINDOW_SPEC.COORDS.HEIGHT#
      2288**DCL      2340<>CALL
WINDOW_SPEC.COORDS.LINE#
      2287**DCL      2335<>CALL

PL6.E3A0      #016=VDG$FORMAT_BLOCK_DESC File=VDG$UTILITY.:VDA5TSI               FRI 07/04/97 11:24 Page:298
     1764        1        /*T***********************************************************/
     1765        2        /*T*                                                         */
     1766        3        /*T* Copyright (c) Bull HN Information Systems Inc., 1997    */
     1767        4        /*T*                                                         */
     1768        5        /*T***********************************************************/
     1769        6
     1770        7        /*D* NAME: VDG$FORMAT_BLOCK_DESC
     1771        8            PARAMETERS:
     1772        9                BLOCK_DESC - A VD$BLOCK_DESC structure specifying the block whose
     1773       10                    location is to be formatted.
     1774       11                NB_BUFFER - # bytes in BUFFER below.
     1775       12                BUFFER - Character buffer, uninitialized at entry.
     1776       13                START_INDEX - Index into BUFFER at which to start formating.
     1777       14                END_INDEX - Uninitialized word.
     1778       15            INPUT:
     1779       16            OUTPUT:
     1780       17                BUFFER will be modified.  Characters from START_INDEX thru
     1781       18                    (new value of END_INDEX) - 1, will be the displayable form of
     1782       19                    BLOCK_DESC.
     1783       20                END_INDEX will contain the index into BUFFER of the byte
     1784       21                    after the last one occupied by the displayable form
     1785       22                    of BLOCK_DESC.
     1786       23            DESCRIPTION:
     1787       24                Format the file key, range, and options as shown below:
     1788       25
     1789       26                    <org> <protect> <exist> FILE <fid> <start_loc> THRU <end_loc>
     1790       27
     1791       28                The basic idea of the display format is to display BLOCK_DESC in a
     1792       29                    form in which it could be entered in the 6Edit command language.
     1793       30                Caveats:
     1794       31                    If BLOCK_DESC.OPTIONS.STRUCTURE's VD$STRUCTURE_LEVEL doesn't give a
     1795       32                        specific file org, then don't display any org info.
     1796       33                    Display <protect> only if it's different from the current value of
     1797       34                        the $PROTECT predefined name.
     1798       35                    Display <exist> only if it's different from the current value of
     1799       36                        the $EXIST predefined name.
     1800       37                    If BLOCK_DESC.FILE_KEY is a DCB, we obtain the fid from the DCB and
PL6.E3A0      #016=VDG$FORMAT_BLOCK_DESC File=VDG$UTILITY.:VDA5TSI               FRI 07/04/97 11:24 Page:299
     1801       38                        format it, not the DCB name.  The user probably wants to know
     1802       39                        what file s/he's editing, even if specified via a DCB operand.
     1803       40                    Dislplay THRU <end_loc> only if end_loc ~= start_loc.
     1804       41        *N**N*  Note that some options are omitted.  Options which aren't yet supported
     1805       42        *N**N*      in the input command language (LEVEL, COMPONENT, KEY_INCR) are not
     1806       43        *N**N*      displayed to the user.
     1807       44        */
     1808       45
     1809       46        VDG$FORMAT_BLOCK_DESC: PROC (BLOCK_DESC, NB_BUFFER, BUFFER, START_INDEX,
     1810       47                  END_INDEX);
     1811       48
     1812       49
     1813       50        %INCLUDE VD_MACROS_M;
     1814     2265        %INCLUDE CP_6;
     1815     2346
     1816     2347
     1817     2348        %VD$BLOCK_DESC (NAME=BLOCK_DESC, STCLASS=PARAM);
     1818     2495    1   DCL NB_BUFFER SBIN;
     1819     2496    1   DCL BUFFER CHAR(NB_BUFFER) CALIGNED;
     1820     2497    1   DCL START_INDEX SBIN;
     1821     2498    1   DCL END_INDEX SBIN;
     1822     2499
     1823     2500
     1824     2501    1   DCL VDG$FORMAT_LOCATION     ENTRY (5);
     1825     2502    1   DCL VDG$COMPARE_LOCS        ENTRY (3) ALTRET;
     1826     2503
     1827     2504
     1828     2505        %VD$NUMBER (NAME=VD_$PROTECT, STCLASS=SYMREF);
     1829     2550        %VD$NUMBER (NAME=VD_$EXIST, STCLASS=SYMREF);
     1830     2595    1   DCL 1 VD_DW_ORG SYMREF,
     1831     2596    1         2 N_ENTRIES# SBIN,
     1832     2597              %VD_TEXTC (NAME=DW, DIM="(0:0)", LEVEL=2, STCLASS=SYMREF, MXNB=%MXNB_DW);
     1833     2738    1   DCL 1 VD_DW_PROTECT SYMREF,
     1834     2739    1         2 N_ENTRIES# SBIN,
     1835     2740              %VD_TEXTC (NAME=DW, DIM="(0:0)", LEVEL=2, STCLASS=SYMREF, MXNB=%MXNB_DW);
     1836     2881    1   DCL 1 VD_DW_EXIST SYMREF,
     1837     2882    1         2 N_ENTRIES# SBIN,
PL6.E3A0      #016=VDG$FORMAT_BLOCK_DESC File=VDG$UTILITY.:VDA5TSI               FRI 07/04/97 11:24 Page:300
     1838     2883              %VD_TEXTC (NAME=DW, DIM="(0:0)", LEVEL=2, STCLASS=SYMREF, MXNB=%MXNB_DW);
     1839     3024
     1840     3025
     1841     3026        %FPT_UNFID (FPTN=CONST_FPT_UNFID, STCLASS=CONSTANT);
     1842     3044
     1843     3045
     1844     3046
     1845     3047    1   DCL START SBIN;
     1846     3048    1   DCL LEVEL SBIN;
     1847     3049    1   DCL STRUCTURE_LEVEL_NODE$ PTR;
     1848     3050    1   DCL STRUCTURE_LEVEL$ PTR;
     1849     3051    1   DCL ENUM SBIN;
     1850     3052    1   DCL RCCL SBIN;
     1851     3053    1   DCL FILE_KEY$ PTR;
     1852     3054        %FPT_UNFID (STCLASS=AUTO);
     1853     3072        %VLP_SN (STCLASS=AUTO);
     1854     3085
     1855     3086
     1856     3087        %VD$FILE_NODE (NAME=STRUCTURE$LEVEL_NODE,
     1857     3088            STCLASS="BASED(STRUCTURE_LEVEL_NODE$)");
     1858     3181        %VD$STRUCTURE_LEVEL (NAME=STRUCTURE$LEVEL, STCLASS="BASED(STRUCTURE_LEVEL$)");
     1859     3228        %VD$FILE_KEY (NAME=FILE$KEY, STCLASS="BASED(FILE_KEY$)");
     1860     3277        %VD$FILE_NODE;
     1861     3370
     1862     3371
     1863     3372
     1864     3373    1           START = START_INDEX;   /* My own copy so I can change it */
     1865     3374
     1866     3375    2           IF ADDR(BLOCK_DESC) = ADDR(NIL) THEN DO;
     1867     3376        /*
     1868     3377           Nothing there, just return some indication.
     1869     3378        */
     1870     3379    2              CALL INSERT (BUFFER, START, %LENGTHC(CHR_BAD_VALUE), %CHR_BAD_VALUE);
     1871     3380    2              END_INDEX = START + %LENGTHC(CHR_BAD_VALUE);
     1872     3381    2              RETURN;
     1873     3382    2              END;
     1874     3383                /*
PL6.E3A0      #016=VDG$FORMAT_BLOCK_DESC File=VDG$UTILITY.:VDA5TSI               FRI 07/04/97 11:24 Page:301
     1875     3384                *   Format the block options:  <org> <protect> <exist>
     1876     3385                */
     1877     3386
     1878     3387    1           STRUCTURE_LEVEL_NODE$ = BLOCK_DESC.OPTIONS.STRUCTURE$ ->
     1879     3388    1             VD$FILE_NODE.HEAD$;
     1880     3389    1           LEVEL = BLOCK_DESC.OPTIONS.LEVEL#;
     1881     3390    2           DO WHILE STRUCTURE_LEVEL_NODE$ ~= ADDR(NIL)
     1882     3391    2             AND LEVEL > 0;
     1883     3392    2              STRUCTURE_LEVEL_NODE$ = STRUCTURE$LEVEL_NODE.FLINK$;
     1884     3393    2              LEVEL = LEVEL - 1;
     1885     3394    2              END;
     1886     3395    2           IF STRUCTURE_LEVEL_NODE$ ~= ADDR(NIL) THEN DO;
     1887     3396    2              STRUCTURE_LEVEL$ = STRUCTURE$LEVEL_NODE.DESC.SPEC.V$;
     1888     3397    2              ENUM = STRUCTURE$LEVEL.ORG#;
     1889     3398    2              IF ENUM > 0
     1890     3399    3                AND ENUM <= VD_DW_ORG.N_ENTRIES# THEN DO;
     1891     3400                      /* Specific file-org given in Structure:  display it */
     1892     3401    3                 END_INDEX = MINIMUM (START + VD_DW_ORG.DW.LENGTH# (ENUM) + 1,
     1893     3402    3                   NB_BUFFER);
     1894     3403    3                 CALL INSERT (BUFFER, START, END_INDEX - START,
     1895     3404    3                   VD_DW_ORG.DW.BYTES (ENUM));
     1896     3405    3                 START = END_INDEX;
     1897     3406    3                 END;
     1898     3407    2              END;
     1899     3408
     1900     3409    1           ENUM = BLOCK_DESC.OPTIONS.PROTECT#;
     1901     3410    1           IF ENUM ~= VD_$PROTECT.V#
     1902     3411    1             AND ENUM > 0
     1903     3412    2             AND ENUM <= VD_DW_PROTECT.N_ENTRIES# THEN DO;
     1904     3413    2              END_INDEX = MINIMUM (START + VD_DW_PROTECT.DW.LENGTH# (ENUM) + 1,
     1905     3414    2                NB_BUFFER);
     1906     3415    3              IF END_INDEX < NB_BUFFER THEN DO;
     1907     3416    3                 CALL INSERT (BUFFER, START, END_INDEX - START,
     1908     3417    3                   VD_DW_PROTECT.DW.BYTES (ENUM));
     1909     3418    3                 START = END_INDEX;
     1910     3419    3                 END;
     1911     3420    2              END;
PL6.E3A0      #016=VDG$FORMAT_BLOCK_DESC File=VDG$UTILITY.:VDA5TSI               FRI 07/04/97 11:24 Page:302
     1912     3421
     1913     3422    1           ENUM = BLOCK_DESC.OPTIONS.EXIST#;
     1914     3423    1           IF ENUM ~= VD_$EXIST.V#
     1915     3424    1             AND ENUM > 0
     1916     3425    2             AND ENUM <= VD_DW_EXIST.N_ENTRIES# THEN DO;
     1917     3426    2              END_INDEX = MINIMUM (START + VD_DW_EXIST.DW.LENGTH# (ENUM) + 1,
     1918     3427    2                NB_BUFFER);
     1919     3428    2              CALL INSERT (BUFFER, START, END_INDEX - START,
     1920     3429    2                VD_DW_EXIST.DW.BYTES (ENUM));
     1921     3430    2              START = END_INDEX;
     1922     3431    2              END;
     1923     3432
     1924     3433
     1925     3434                /*
     1926     3435                *   Format the file key.
     1927     3436                */
     1928     3437
     1929     3438    1           END_INDEX = MINIMUM (START + LENGTHC(%CONCAT(DWLC_FILE,CHR_SPACE)),
     1930     3439    1             NB_BUFFER);
     1931     3440    2           IF END_INDEX < NB_BUFFER THEN DO;
     1932     3441    2              CALL INSERT (BUFFER, START, END_INDEX - START,
     1933     3442    2                %CONCAT(DWLC_FILE,CHR_SPACE));
     1934     3443    2              START = END_INDEX;
     1935     3444    2              END;
     1936     3445
     1937     3446    1           FPT_UNFID = CONST_FPT_UNFID;
     1938     3447    1           FPT_UNFID.V_ = VECTOR(FPT_UNFID.V);
     1939     3448
     1940     3449    1           FILE_KEY$ = BLOCK_DESC.FILE_KEY.V$;
     1941     3450    2           IF FILE$KEY.LENGTH# = 0 THEN DO;
     1942     3451                   /* File specified via DCB only */
     1943     3452    2              FPT_UNFID.V.DCB# = FILE$KEY.DCB#;
     1944     3453    2              END;
     1945     3454    2           ELSE DO;
     1946     3455    2              FPT_UNFID.ACCT_ = VECTOR(FILE$KEY.UNIQUE.ACCT);
     1947     3456    2              FPT_UNFID.ASN_ = VECTOR(FILE$KEY.ASN#);
     1948     3457    2              FPT_UNFID.NAME_ = VECTOR(FILE$KEY.UNIQUE.FNAME);
PL6.E3A0      #016=VDG$FORMAT_BLOCK_DESC File=VDG$UTILITY.:VDA5TSI               FRI 07/04/97 11:24 Page:303
     1949     3458    2              FPT_UNFID.RES_ = VECTOR(FILE$KEY.RES);
     1950     3459    2              FPT_UNFID.SN_ = VECTOR(VLP_SN);
     1951     3460    2              VLP_SN.NUM# = 1;
     1952     3461    2              VLP_SN.SN# (0) = FILE$KEY.PSN;
     1953     3462    2              END;
     1954     3463    1           FPT_UNFID.TEXTFID_ = VECTOR(SUBSTR(BUFFER, START));
     1955     3464    1           FPT_UNFID.LEN_ = VECTOR(END_INDEX);
     1956     3465    1           CALL M$UNFID (FPT_UNFID)
     1957     3466    2           WHENALTRETURN DO;
     1958     3467    2              END_INDEX = 0;
     1959     3468    2              END;
     1960     3469    1           END_INDEX = START + END_INDEX;
     1961     3470
     1962     3471
     1963     3472                /*
     1964     3473                *   Format the range:  <start_loc> [THRU <end_loc>]
     1965     3474                */
     1966     3475
     1967     3476    2           IF END_INDEX + LENGTHC(%CHR_SPACE) < NB_BUFFER THEN DO;
     1968     3477    2              CALL INSERT (BUFFER, END_INDEX, %LENGTHC(CHR_SPACE), %CHR_SPACE);
     1969     3478    2              END_INDEX = END_INDEX + %LENGTHC(CHR_SPACE);
     1970     3479    2              END;
     1971     3480    1           CALL VDG$FORMAT_LOCATION (BLOCK_DESC.RANGE.START, NB_BUFFER, BUFFER,
     1972     3481    1             END_INDEX, END_INDEX);
     1973     3482
     1974     3483    1           CALL VDG$COMPARE_LOCS (BLOCK_DESC.RANGE.START, BLOCK_DESC.RANGE.ENDD,
     1975     3484    1             RCCL);    /* Ignore altreturn */
     1976     3485    2           IF RCCL ~= %RCCL_EQUAL THEN DO;
     1977     3486    2              IF END_INDEX + %LENGTHC(CONCAT(CHR_SPACE,DWLC_THRU,CHR_SPACE))
     1978     3487    3                < NB_BUFFER THEN DO;
     1979     3488    3                 CALL INSERT (BUFFER, END_INDEX,
     1980     3489    3                   %LENGTHC(CONCAT(CHR_SPACE,DWLC_THRU,CHR_SPACE)),
     1981     3490    3                   %CONCAT(CHR_SPACE,DWLC_THRU,CHR_SPACE));
     1982     3491    3                 END_INDEX =
     1983     3492    3                   END_INDEX + %LENGTHC(CONCAT(CHR_SPACE,DWLC_THRU,CHR_SPACE));
     1984     3493    3                 END;
     1985     3494    2              CALL VDG$FORMAT_LOCATION (BLOCK_DESC.RANGE.ENDD, NB_BUFFER, BUFFER,
PL6.E3A0      #016=VDG$FORMAT_BLOCK_DESC File=VDG$UTILITY.:VDA5TSI               FRI 07/04/97 11:24 Page:304
     1986     3495    2                END_INDEX, END_INDEX);
     1987     3496    2              END;
     1988     3497
     1989     3498    1           RETURN;
     1990     3499
     1991     3500    1   END VDG$FORMAT_BLOCK_DESC;
     1992     3501        %EOD;

PL6.E3A0      #016=VDG$FORMAT_BLOCK_DESC File=VDG$UTILITY.:VDA5TSI               FRI 07/04/97 11:24 Page:305
--  Include file information  --

   CP_6.:LIBRARY  cannot be made into a system file and is referenced.
   VD_MACROS_M.:VDA5TOU  is referenced.
   B$JIT_C.:E04TOU  was found in the system file and is never referenced.
   CP_6_C.:E04TOU  was found in the system file and is referenced.
      No diagnostics issued in procedure VDG$FORMAT_BLOCK_DESC.

   Procedure VDG$FORMAT_BLOCK_DESC requires 294 words for executable code.
   Procedure VDG$FORMAT_BLOCK_DESC requires 48 words of local(AUTO) storage.

PL6.E3A0      #016=VDG$FORMAT_BLOCK_DESC File=VDG$UTILITY.:VDA5TSI               FRI 07/04/97 11:24 Page:306

 Object Unit name= VDG$FORMAT_BLOCK_DESC                      File name= VDG$UTILITY.:VDA5TOU
 UTS= JUL 04 '97 11:24:45.28 FRI                              Compiler= PL-6/E31         Sev=      00
 SharedLib= :SHARED_SYSTEM                                    Alt SharedLib=


    ****  Control sections  ****

 Sect   Type Bound  Init  Size OctSiz  Section name(segment info)
    0   DCB   even  none     0      0  M$UC
    1  RoData even  UTS     27     33  VDG$FORMAT_BLOCK_DESC
    2   Proc  even  none   294    446  VDG$FORMAT_BLOCK_DESC
    3  RoData even  none     7      7  VDG$FORMAT_BLOCK_DESC

    ****  Entry defs  ****

                              Check   Calling
                             calling  sequence
  Sect OctLoc Primary Altret sequence   type   Parms  Name
     2      0   yes            yes      Std        5  VDG$FORMAT_BLOCK_DESC

  ****  Entry refs  ****

         Check        Calling
        calling       sequence
Altret sequence SRef   type   Args  Name
         yes           Std       5 VDG$FORMAT_LOCATION
 yes     yes           Std       3 VDG$COMPARE_LOCS
                       nStd      0 X66_AUTO_5
                       Std       0 B_CONSPOOL_D
                       nStd      0 X66_ARET
PL6.E3A0      #016=VDG$FORMAT_BLOCK_DESC File=VDG$UTILITY.:VDA5TSI               FRI 07/04/97 11:24 Page:307

  ****  Data refs  ****

  Flags:  r = read only, s = secondary
Flgs Name                             Flgs Name                             Flgs Name
     M$UC                                  VD_$PROTECT                           VD_$EXIST
     VD_DW_ORG                             VD_DW_PROTECT                         VD_DW_EXIST
     B_VECTNIL

  ****  Segment refs  ****

  Flags:  r = read only, s = secondary
Flgs Name                             Flgs Name                             Flgs Name
     ISSID                                 NULLSID
PL6.E3A0      #016=VDG$FORMAT_BLOCK_DESC File=VDG$UTILITY.:VDA5TSI               FRI 07/04/97 11:24 Page:308


     1764        1        /*T***********************************************************/
     1765        2        /*T*                                                         */
     1766        3        /*T* Copyright (c) Bull HN Information Systems Inc., 1997    */
     1767        4        /*T*                                                         */
     1768        5        /*T***********************************************************/
     1769        6
     1770        7        /*D* NAME: VDG$FORMAT_BLOCK_DESC
     1771        8            PARAMETERS:
     1772        9                BLOCK_DESC - A VD$BLOCK_DESC structure specifying the block whose
     1773       10                    location is to be formatted.
     1774       11                NB_BUFFER - # bytes in BUFFER below.
     1775       12                BUFFER - Character buffer, uninitialized at entry.
     1776       13                START_INDEX - Index into BUFFER at which to start formating.
     1777       14                END_INDEX - Uninitialized word.
     1778       15            INPUT:
     1779       16            OUTPUT:
     1780       17                BUFFER will be modified.  Characters from START_INDEX thru
     1781       18                    (new value of END_INDEX) - 1, will be the displayable form of
     1782       19                    BLOCK_DESC.
     1783       20                END_INDEX will contain the index into BUFFER of the byte
     1784       21                    after the last one occupied by the displayable form
     1785       22                    of BLOCK_DESC.
     1786       23            DESCRIPTION:
     1787       24                Format the file key, range, and options as shown below:
     1788       25
     1789       26                    <org> <protect> <exist> FILE <fid> <start_loc> THRU <end_loc>
     1790       27
     1791       28                The basic idea of the display format is to display BLOCK_DESC in a
     1792       29                    form in which it could be entered in the 6Edit command language.
     1793       30                Caveats:
     1794       31                    If BLOCK_DESC.OPTIONS.STRUCTURE's VD$STRUCTURE_LEVEL doesn't give a
     1795       32                        specific file org, then don't display any org info.
     1796       33                    Display <protect> only if it's different from the current value of
     1797       34                        the $PROTECT predefined name.
     1798       35                    Display <exist> only if it's different from the current value of
     1799       36                        the $EXIST predefined name.
PL6.E3A0      #016=VDG$FORMAT_BLOCK_DESC File=VDG$UTILITY.:VDA5TSI               FRI 07/04/97 11:24 Page:309
     1800       37                    If BLOCK_DESC.FILE_KEY is a DCB, we obtain the fid from the DCB and
     1801       38                        format it, not the DCB name.  The user probably wants to know
     1802       39                        what file s/he's editing, even if specified via a DCB operand.
     1803       40                    Dislplay THRU <end_loc> only if end_loc ~= start_loc.
     1804       41        *N**N*  Note that some options are omitted.  Options which aren't yet supported
     1805       42        *N**N*      in the input command language (LEVEL, COMPONENT, KEY_INCR) are not
     1806       43        *N**N*      displayed to the user.
     1807       44        */
     1808       45
     1809       46        VDG$FORMAT_BLOCK_DESC: PROC (BLOCK_DESC, NB_BUFFER, BUFFER, START_INDEX,

     46  2 000000   000000 700200 xent  VDG$FORMAT_* TSX0  ! X66_AUTO_5
         2 000001   000060 000005                    ZERO    48,5

     1810       47                  END_INDEX);
     1811       48
     1812       49
     1813       50        %INCLUDE VD_MACROS_M;
     1814     2265        %INCLUDE CP_6;
     1815     2346
     1816     2347
     1817     2348        %VD$BLOCK_DESC (NAME=BLOCK_DESC, STCLASS=PARAM);
     1818     2495    1   DCL NB_BUFFER SBIN;
     1819     2496    1   DCL BUFFER CHAR(NB_BUFFER) CALIGNED;
     1820     2497    1   DCL START_INDEX SBIN;
     1821     2498    1   DCL END_INDEX SBIN;
     1822     2499
     1823     2500
     1824     2501    1   DCL VDG$FORMAT_LOCATION     ENTRY (5);
     1825     2502    1   DCL VDG$COMPARE_LOCS        ENTRY (3) ALTRET;
     1826     2503
     1827     2504
     1828     2505        %VD$NUMBER (NAME=VD_$PROTECT, STCLASS=SYMREF);
     1829     2550        %VD$NUMBER (NAME=VD_$EXIST, STCLASS=SYMREF);
     1830     2595    1   DCL 1 VD_DW_ORG SYMREF,
     1831     2596    1         2 N_ENTRIES# SBIN,
     1832     2597              %VD_TEXTC (NAME=DW, DIM="(0:0)", LEVEL=2, STCLASS=SYMREF, MXNB=%MXNB_DW);
PL6.E3A0      #016=VDG$FORMAT_BLOCK_DESC File=VDG$UTILITY.:VDA5TSI               FRI 07/04/97 11:24 Page:310
     1833     2738    1   DCL 1 VD_DW_PROTECT SYMREF,
     1834     2739    1         2 N_ENTRIES# SBIN,
     1835     2740              %VD_TEXTC (NAME=DW, DIM="(0:0)", LEVEL=2, STCLASS=SYMREF, MXNB=%MXNB_DW);
     1836     2881    1   DCL 1 VD_DW_EXIST SYMREF,
     1837     2882    1         2 N_ENTRIES# SBIN,
     1838     2883              %VD_TEXTC (NAME=DW, DIM="(0:0)", LEVEL=2, STCLASS=SYMREF, MXNB=%MXNB_DW);
     1839     3024
     1840     3025
     1841     3026        %FPT_UNFID (FPTN=CONST_FPT_UNFID, STCLASS=CONSTANT);
     1842     3044
     1843     3045
     1844     3046
     1845     3047    1   DCL START SBIN;
     1846     3048    1   DCL LEVEL SBIN;
     1847     3049    1   DCL STRUCTURE_LEVEL_NODE$ PTR;
     1848     3050    1   DCL STRUCTURE_LEVEL$ PTR;
     1849     3051    1   DCL ENUM SBIN;
     1850     3052    1   DCL RCCL SBIN;
     1851     3053    1   DCL FILE_KEY$ PTR;
     1852     3054        %FPT_UNFID (STCLASS=AUTO);
     1853     3072        %VLP_SN (STCLASS=AUTO);
     1854     3085
     1855     3086
     1856     3087        %VD$FILE_NODE (NAME=STRUCTURE$LEVEL_NODE,
     1857     3088            STCLASS="BASED(STRUCTURE_LEVEL_NODE$)");
     1858     3181        %VD$STRUCTURE_LEVEL (NAME=STRUCTURE$LEVEL, STCLASS="BASED(STRUCTURE_LEVEL$)");
     1859     3228        %VD$FILE_KEY (NAME=FILE$KEY, STCLASS="BASED(FILE_KEY$)");
     1860     3277        %VD$FILE_NODE;
     1861     3370
     1862     3371
     1863     3372
     1864     3373    1           START = START_INDEX;   /* My own copy so I can change it */

   3373  2 000002   200006 470500                    LDP0    @START_INDEX,,AUTO
         2 000003   000000 235100                    LDA     0,,PR0
         2 000004   200010 755100                    STA     START,,AUTO

PL6.E3A0      #016=VDG$FORMAT_BLOCK_DESC File=VDG$UTILITY.:VDA5TSI               FRI 07/04/97 11:24 Page:311
     1865     3374
     1866     3375    2           IF ADDR(BLOCK_DESC) = ADDR(NIL) THEN DO;

   3375  2 000005   200003 236100                    LDQ     @BLOCK_DESC,,AUTO
         2 000006   000001 116000 xsym               CMPQ    B_VECTNIL+1
         2 000007   000022 601000 2                  TNZ     s:3387

     1867     3376        /*
     1868     3377           Nothing there, just return some indication.
     1869     3378        */
     1870     3379    2              CALL INSERT (BUFFER, START, %LENGTHC(CHR_BAD_VALUE), %CHR_BAD_VALUE);

   3379  2 000010   200004 471500                    LDP1    @NB_BUFFER,,AUTO
         2 000011   100000 720100                    LXL0    0,,PR1
         2 000012   200005 473500                    LDP3    @BUFFER,,AUTO
         2 000013   040105 100400                    MLR     fill='040'O
         2 000014   000026 000002 1                  ADSC9   CONST_FPT_UNFID+22       cn=0,n=2
         2 000015   300000 000002                    ADSC9   0,A,PR3                  cn=0,n=2

     1871     3380    2              END_INDEX = START + %LENGTHC(CHR_BAD_VALUE);

   3380  2 000016   200007 474500                    LDP4    @END_INDEX,,AUTO
         2 000017   000002 035007                    ADLA    2,DL
         2 000020   400000 755100                    STA     0,,PR4

     1872     3381    2              RETURN;

   3381  2 000021   000000 702200 xent               TSX2  ! X66_ARET

     1873     3382    2              END;
     1874     3383                /*
     1875     3384                *   Format the block options:  <org> <protect> <exist>
     1876     3385                */
     1877     3386
     1878     3387    1           STRUCTURE_LEVEL_NODE$ = BLOCK_DESC.OPTIONS.STRUCTURE$ ->

   3387  2 000022   200003 471500                    LDP1    @BLOCK_DESC,,AUTO
PL6.E3A0      #016=VDG$FORMAT_BLOCK_DESC File=VDG$UTILITY.:VDA5TSI               FRI 07/04/97 11:24 Page:312
         2 000023   100025 473500                    LDP3    21,,PR1
         2 000024   300012 236100                    LDQ     10,,PR3
         2 000025   200012 756100                    STQ     STRUCTURE_LEVEL_NODE$,,AUTO

     1879     3388    1             VD$FILE_NODE.HEAD$;
     1880     3389    1           LEVEL = BLOCK_DESC.OPTIONS.LEVEL#;

   3389  2 000026   100026 236100                    LDQ     22,,PR1
         2 000027   000022 732000                    QRS     18
         2 000030   200011 756100                    STQ     LEVEL,,AUTO

     1881     3390    2           DO WHILE STRUCTURE_LEVEL_NODE$ ~= ADDR(NIL)

   3390  2 000031   000037 710000 2                  TRA     s:3394

     1882     3391    2             AND LEVEL > 0;
     1883     3392    2              STRUCTURE_LEVEL_NODE$ = STRUCTURE$LEVEL_NODE.FLINK$;

   3392  2 000032   200012 470500                    LDP0    STRUCTURE_LEVEL_NODE$,,AUTO
         2 000033   000002 236100                    LDQ     2,,PR0
         2 000034   200012 756100                    STQ     STRUCTURE_LEVEL_NODE$,,AUTO

     1884     3393    2              LEVEL = LEVEL - 1;

   3393  2 000035   000001 336007                    LCQ     1,DL
         2 000036   200011 056100                    ASQ     LEVEL,,AUTO

     1885     3394    2              END;

   3394  2 000037   200012 236100                    LDQ     STRUCTURE_LEVEL_NODE$,,AUTO
         2 000040   000001 116000 xsym               CMPQ    B_VECTNIL+1
         2 000041   000044 600000 2                  TZE     s:3395
         2 000042   200011 235100                    LDA     LEVEL,,AUTO
         2 000043   000032 605400 2                  TPNZ    s:3392

     1886     3395    2           IF STRUCTURE_LEVEL_NODE$ ~= ADDR(NIL) THEN DO;

PL6.E3A0      #016=VDG$FORMAT_BLOCK_DESC File=VDG$UTILITY.:VDA5TSI               FRI 07/04/97 11:24 Page:313
   3395  2 000044   000001 116000 xsym               CMPQ    B_VECTNIL+1
         2 000045   000110 600000 2                  TZE     s:3409

     1887     3396    2              STRUCTURE_LEVEL$ = STRUCTURE$LEVEL_NODE.DESC.SPEC.V$;

   3396  2 000046   200012 470500                    LDP0    STRUCTURE_LEVEL_NODE$,,AUTO
         2 000047   000007 236100                    LDQ     7,,PR0
         2 000050   200013 756100                    STQ     STRUCTURE_LEVEL$,,AUTO

     1888     3397    2              ENUM = STRUCTURE$LEVEL.ORG#;

   3397  2 000051   200013 471500                    LDP1    STRUCTURE_LEVEL$,,AUTO
         2 000052   100002 236100                    LDQ     2,,PR1
         2 000053   777777 376007                    ANQ     -1,DL
         2 000054   200014 756100                    STQ     ENUM,,AUTO

     1889     3398    2              IF ENUM > 0

   3398  2 000055   000110 604400 2                  TMOZ    s:3409
         2 000056   000000 116000 xsym               CMPQ    VD_DW_ORG
         2 000057   000110 605400 2                  TPNZ    s:3409

     1890     3399    3                AND ENUM <= VD_DW_ORG.N_ENTRIES# THEN DO;

     1891     3400                      /* Specific file-org given in Structure:  display it */
     1892     3401    3                 END_INDEX = MINIMUM (START + VD_DW_ORG.DW.LENGTH# (ENUM) + 1,

   3401  2 000060   200014 235100                    LDA     ENUM,,AUTO
         2 000061   000003 735000                    ALS     3
         2 000062   000001 236005 xsym               LDQ     VD_DW_ORG+1,AL
         2 000063   000033 772000                    QRL     27
         2 000064   200010 036100                    ADLQ    START,,AUTO
         2 000065   000001 036007                    ADLQ    1,DL
         2 000066   200004 473500                    LDP3    @NB_BUFFER,,AUTO
         2 000067   300000 116100                    CMPQ    0,,PR3
         2 000070   000072 604400 2                  TMOZ    s:3401+10
         2 000071   300000 236100                    LDQ     0,,PR3
PL6.E3A0      #016=VDG$FORMAT_BLOCK_DESC File=VDG$UTILITY.:VDA5TSI               FRI 07/04/97 11:24 Page:314
         2 000072   200007 474500                    LDP4    @END_INDEX,,AUTO
         2 000073   400000 756100                    STQ     0,,PR4

     1893     3402    3                   NB_BUFFER);
     1894     3403    3                 CALL INSERT (BUFFER, START, END_INDEX - START,

   3403  2 000074   300000 720100                    LXL0    0,,PR3
         2 000075   200010 136100                    SBLQ    START,,AUTO
         2 000076   200014 235100                    LDA     ENUM,,AUTO
         2 000077   000005 735000                    ALS     5
         2 000100   200005 475500                    LDP5    @BUFFER,,AUTO
         2 000101   000000 621006                    EAX1    0,QL
         2 000102   200010 236100                    LDQ     START,,AUTO
         2 000103   040146 100405                    MLR     fill='040'O
         2 000104   000001 200037 xsym               ADSC9   VD_DW_ORG+1,A            cn=1,n=31
         2 000105   500000 000011                    ADSC9   0,Q,PR5                  cn=0,n=*X1

     1895     3404    3                   VD_DW_ORG.DW.BYTES (ENUM));
     1896     3405    3                 START = END_INDEX;

   3405  2 000106   400000 235100                    LDA     0,,PR4
         2 000107   200010 755100                    STA     START,,AUTO

     1897     3406    3                 END;

     1898     3407    2              END;

     1899     3408
     1900     3409    1           ENUM = BLOCK_DESC.OPTIONS.PROTECT#;

   3409  2 000110   200003 470500                    LDP0    @BLOCK_DESC,,AUTO
         2 000111   000027 236100                    LDQ     23,,PR0
         2 000112   000022 772000                    QRL     18
         2 000113   200014 756100                    STQ     ENUM,,AUTO

     1901     3410    1           IF ENUM ~= VD_$PROTECT.V#

PL6.E3A0      #016=VDG$FORMAT_BLOCK_DESC File=VDG$UTILITY.:VDA5TSI               FRI 07/04/97 11:24 Page:315
   3410  2 000114   000003 116000 xsym               CMPQ    VD_$PROTECT+3
         2 000115   000154 600000 2                  TZE     s:3422
         2 000116   000000 116003                    CMPQ    0,DU
         2 000117   000154 604400 2                  TMOZ    s:3422
         2 000120   000000 116000 xsym               CMPQ    VD_DW_PROTECT
         2 000121   000154 605400 2                  TPNZ    s:3422

     1902     3411    1             AND ENUM > 0
     1903     3412    2             AND ENUM <= VD_DW_PROTECT.N_ENTRIES# THEN DO;

     1904     3413    2              END_INDEX = MINIMUM (START + VD_DW_PROTECT.DW.LENGTH# (ENUM) + 1,

   3413  2 000122   200014 235100                    LDA     ENUM,,AUTO
         2 000123   000003 735000                    ALS     3
         2 000124   000001 236005 xsym               LDQ     VD_DW_PROTECT+1,AL
         2 000125   000033 772000                    QRL     27
         2 000126   200010 036100                    ADLQ    START,,AUTO
         2 000127   000001 036007                    ADLQ    1,DL
         2 000130   200004 471500                    LDP1    @NB_BUFFER,,AUTO
         2 000131   100000 116100                    CMPQ    0,,PR1
         2 000132   000134 604400 2                  TMOZ    s:3413+10
         2 000133   100000 236100                    LDQ     0,,PR1
         2 000134   200007 473500                    LDP3    @END_INDEX,,AUTO
         2 000135   300000 756100                    STQ     0,,PR3

     1905     3414    2                NB_BUFFER);
     1906     3415    3              IF END_INDEX < NB_BUFFER THEN DO;

   3415  2 000136   100000 116100                    CMPQ    0,,PR1
         2 000137   000154 605000 2                  TPL     s:3422

     1907     3416    3                 CALL INSERT (BUFFER, START, END_INDEX - START,

   3416  2 000140   100000 720100                    LXL0    0,,PR1
         2 000141   200010 136100                    SBLQ    START,,AUTO
         2 000142   200014 235100                    LDA     ENUM,,AUTO
         2 000143   000005 735000                    ALS     5
PL6.E3A0      #016=VDG$FORMAT_BLOCK_DESC File=VDG$UTILITY.:VDA5TSI               FRI 07/04/97 11:24 Page:316
         2 000144   200005 474500                    LDP4    @BUFFER,,AUTO
         2 000145   000000 621006                    EAX1    0,QL
         2 000146   200010 236100                    LDQ     START,,AUTO
         2 000147   040146 100405                    MLR     fill='040'O
         2 000150   000001 200037 xsym               ADSC9   VD_DW_PROTECT+1,A        cn=1,n=31
         2 000151   400000 000011                    ADSC9   0,Q,PR4                  cn=0,n=*X1

     1908     3417    3                   VD_DW_PROTECT.DW.BYTES (ENUM));
     1909     3418    3                 START = END_INDEX;

   3418  2 000152   300000 235100                    LDA     0,,PR3
         2 000153   200010 755100                    STA     START,,AUTO

     1910     3419    3                 END;

     1911     3420    2              END;

     1912     3421
     1913     3422    1           ENUM = BLOCK_DESC.OPTIONS.EXIST#;

   3422  2 000154   000027 236100                    LDQ     23,,PR0
         2 000155   777777 376007                    ANQ     -1,DL
         2 000156   200014 756100                    STQ     ENUM,,AUTO

     1914     3423    1           IF ENUM ~= VD_$EXIST.V#

   3423  2 000157   000003 116000 xsym               CMPQ    VD_$EXIST+3
         2 000160   000215 600000 2                  TZE     s:3438
         2 000161   000000 116003                    CMPQ    0,DU
         2 000162   000215 604400 2                  TMOZ    s:3438
         2 000163   000000 116000 xsym               CMPQ    VD_DW_EXIST
         2 000164   000215 605400 2                  TPNZ    s:3438

     1915     3424    1             AND ENUM > 0
     1916     3425    2             AND ENUM <= VD_DW_EXIST.N_ENTRIES# THEN DO;

     1917     3426    2              END_INDEX = MINIMUM (START + VD_DW_EXIST.DW.LENGTH# (ENUM) + 1,
PL6.E3A0      #016=VDG$FORMAT_BLOCK_DESC File=VDG$UTILITY.:VDA5TSI               FRI 07/04/97 11:24 Page:317

   3426  2 000165   200014 235100                    LDA     ENUM,,AUTO
         2 000166   000003 735000                    ALS     3
         2 000167   000001 236005 xsym               LDQ     VD_DW_EXIST+1,AL
         2 000170   000033 772000                    QRL     27
         2 000171   200010 036100                    ADLQ    START,,AUTO
         2 000172   000001 036007                    ADLQ    1,DL
         2 000173   200004 471500                    LDP1    @NB_BUFFER,,AUTO
         2 000174   100000 116100                    CMPQ    0,,PR1
         2 000175   000177 604400 2                  TMOZ    s:3426+10
         2 000176   100000 236100                    LDQ     0,,PR1
         2 000177   200007 473500                    LDP3    @END_INDEX,,AUTO
         2 000200   300000 756100                    STQ     0,,PR3

     1918     3427    2                NB_BUFFER);
     1919     3428    2              CALL INSERT (BUFFER, START, END_INDEX - START,

   3428  2 000201   100000 720100                    LXL0    0,,PR1
         2 000202   200010 136100                    SBLQ    START,,AUTO
         2 000203   200014 235100                    LDA     ENUM,,AUTO
         2 000204   000005 735000                    ALS     5
         2 000205   200005 474500                    LDP4    @BUFFER,,AUTO
         2 000206   000000 621006                    EAX1    0,QL
         2 000207   200010 236100                    LDQ     START,,AUTO
         2 000210   040146 100405                    MLR     fill='040'O
         2 000211   000001 200037 xsym               ADSC9   VD_DW_EXIST+1,A          cn=1,n=31
         2 000212   400000 000011                    ADSC9   0,Q,PR4                  cn=0,n=*X1

     1920     3429    2                VD_DW_EXIST.DW.BYTES (ENUM));
     1921     3430    2              START = END_INDEX;

   3430  2 000213   300000 235100                    LDA     0,,PR3
         2 000214   200010 755100                    STA     START,,AUTO

     1922     3431    2              END;

     1923     3432
PL6.E3A0      #016=VDG$FORMAT_BLOCK_DESC File=VDG$UTILITY.:VDA5TSI               FRI 07/04/97 11:24 Page:318
     1924     3433
     1925     3434                /*
     1926     3435                *   Format the file key.
     1927     3436                */
     1928     3437
     1929     3438    1           END_INDEX = MINIMUM (START + LENGTHC(%CONCAT(DWLC_FILE,CHR_SPACE)),

   3438  2 000215   200010 236100                    LDQ     START,,AUTO
         2 000216   000005 036007                    ADLQ    5,DL
         2 000217   200004 471500                    LDP1    @NB_BUFFER,,AUTO
         2 000220   100000 116100                    CMPQ    0,,PR1
         2 000221   000223 604400 2                  TMOZ    s:3438+6
         2 000222   100000 236100                    LDQ     0,,PR1
         2 000223   200007 473500                    LDP3    @END_INDEX,,AUTO
         2 000224   300000 756100                    STQ     0,,PR3

     1930     3439    1             NB_BUFFER);
     1931     3440    2           IF END_INDEX < NB_BUFFER THEN DO;

   3440  2 000225   100000 116100                    CMPQ    0,,PR1
         2 000226   000241 605000 2                  TPL     s:3446

     1932     3441    2              CALL INSERT (BUFFER, START, END_INDEX - START,

   3441  2 000227   100000 720100                    LXL0    0,,PR1
         2 000230   200010 136100                    SBLQ    START,,AUTO
         2 000231   200005 474500                    LDP4    @BUFFER,,AUTO
         2 000232   000000 621006                    EAX1    0,QL
         2 000233   200010 235100                    LDA     START,,AUTO
         2 000234   040145 100400                    MLR     fill='040'O
         2 000235   000027 000005 1                  ADSC9   CONST_FPT_UNFID+23       cn=0,n=5
         2 000236   400000 000011                    ADSC9   0,A,PR4                  cn=0,n=*X1

     1933     3442    2                %CONCAT(DWLC_FILE,CHR_SPACE));
     1934     3443    2              START = END_INDEX;

   3443  2 000237   300000 235100                    LDA     0,,PR3
PL6.E3A0      #016=VDG$FORMAT_BLOCK_DESC File=VDG$UTILITY.:VDA5TSI               FRI 07/04/97 11:24 Page:319
         2 000240   200010 755100                    STA     START,,AUTO

     1935     3444    2              END;

     1936     3445
     1937     3446    1           FPT_UNFID = CONST_FPT_UNFID;

   3446  2 000241   000100 100400                    MLR     fill='000'O
         2 000242   000000 000130 1                  ADSC9   CONST_FPT_UNFID          cn=0,n=88
         2 000243   200020 000130                    ADSC9   FPT_UNFID,,AUTO          cn=0,n=88

     1938     3447    1           FPT_UNFID.V_ = VECTOR(FPT_UNFID.V);

   3447  2 000244   000000 235000 3                  LDA     0
         2 000245   200052 452500                    STP2    VLP_SN+4,,AUTO
         2 000246   200052 236100                    LDQ     VLP_SN+4,,AUTO
         2 000247   000044 036003                    ADLQ    36,DU
         2 000250   200020 757100                    STAQ    FPT_UNFID,,AUTO

     1939     3448
     1940     3449    1           FILE_KEY$ = BLOCK_DESC.FILE_KEY.V$;

   3449  2 000251   000002 236100                    LDQ     2,,PR0
         2 000252   200016 756100                    STQ     FILE_KEY$,,AUTO

     1941     3450    2           IF FILE$KEY.LENGTH# = 0 THEN DO;

   3450  2 000253   200016 474500                    LDP4    FILE_KEY$,,AUTO
         2 000254   400002 236100                    LDQ     2,,PR4
         2 000255   777000 316003                    CANQ    -512,DU
         2 000256   000262 601000 2                  TNZ     s:3455

     1942     3451                   /* File specified via DCB only */
     1943     3452    2              FPT_UNFID.V.DCB# = FILE$KEY.DCB#;

   3452  2 000257   400021 220100                    LDX0    17,,PR4
         2 000260   200044 740100                    STX0    FPT_UNFID+20,,AUTO
PL6.E3A0      #016=VDG$FORMAT_BLOCK_DESC File=VDG$UTILITY.:VDA5TSI               FRI 07/04/97 11:24 Page:320

     1944     3453    2              END;

   3453  2 000261   000314 710000 2                  TRA     s:3463

     1945     3454    2           ELSE DO;

     1946     3455    2              FPT_UNFID.ACCT_ = VECTOR(FILE$KEY.UNIQUE.ACCT);

   3455  2 000262   000000 235000 3                  LDA     0
         2 000263   200016 236100                    LDQ     FILE_KEY$,,AUTO
         2 000264   000001 036000 3                  ADLQ    1
         2 000265   200026 757100                    STAQ    FPT_UNFID+6,,AUTO

     1947     3456    2              FPT_UNFID.ASN_ = VECTOR(FILE$KEY.ASN#);

   3456  2 000266   177640 235007                    LDA     65440,DL
         2 000267   200016 236100                    LDQ     FILE_KEY$,,AUTO
         2 000270   000002 036000 3                  ADLQ    2
         2 000271   200036 757100                    STAQ    FPT_UNFID+14,,AUTO

     1948     3457    2              FPT_UNFID.NAME_ = VECTOR(FILE$KEY.UNIQUE.FNAME);

   3457  2 000272   000003 235000 3                  LDA     3
         2 000273   200016 236100                    LDQ     FILE_KEY$,,AUTO
         2 000274   000004 036000 3                  ADLQ    4
         2 000275   200024 757100                    STAQ    FPT_UNFID+4,,AUTO

     1949     3458    2              FPT_UNFID.RES_ = VECTOR(FILE$KEY.RES);

   3458  2 000276   777640 235007                    LDA     -96,DL
         2 000277   200016 236100                    LDQ     FILE_KEY$,,AUTO
         2 000300   000005 036000 3                  ADLQ    5
         2 000301   200040 757100                    STAQ    FPT_UNFID+16,,AUTO

     1950     3459    2              FPT_UNFID.SN_ = VECTOR(VLP_SN);

PL6.E3A0      #016=VDG$FORMAT_BLOCK_DESC File=VDG$UTILITY.:VDA5TSI               FRI 07/04/97 11:24 Page:321
   3459  2 000302   000006 235000 3                  LDA     6
         2 000303   200052 452500                    STP2    VLP_SN+4,,AUTO
         2 000304   200052 236100                    LDQ     VLP_SN+4,,AUTO
         2 000305   000046 036003                    ADLQ    38,DU
         2 000306   200032 757100                    STAQ    FPT_UNFID+10,,AUTO

     1951     3460    2              VLP_SN.NUM# = 1;

   3460  2 000307   000001 235007                    LDA     1,DL
         2 000310   200046 755100                    STA     VLP_SN,,AUTO

     1952     3461    2              VLP_SN.SN# (0) = FILE$KEY.PSN;

   3461  2 000311   040100 100500                    MLR     fill='040'O
         2 000312   400015 400006                    ADSC9   13,,PR4                  cn=2,n=6
         2 000313   200047 000006                    ADSC9   VLP_SN+1,,AUTO           cn=0,n=6

     1953     3462    2              END;

     1954     3463    1           FPT_UNFID.TEXTFID_ = VECTOR(SUBSTR(BUFFER, START));

   3463  2 000314   100000 720100                    LXL0    0,,PR1
         2 000315   000000 636010                    EAQ     0,X0
         2 000316   000022 732000                    QRS     18
         2 000317   200010 136100                    SBLQ    START,,AUTO
         2 000320   000064 737000                    LLS     52
         2 000321   000140 135007                    SBLA    96,DL
         2 000322   200010 236100                    LDQ     START,,AUTO
         2 000323   000020 736000                    QLS     16
         2 000324   200005 036100                    ADLQ    @BUFFER,,AUTO
         2 000325   200022 757100                    STAQ    FPT_UNFID+2,,AUTO

     1955     3464    1           FPT_UNFID.LEN_ = VECTOR(END_INDEX);

   3464  2 000326   777640 235007                    LDA     -96,DL
         2 000327   200007 236100                    LDQ     @END_INDEX,,AUTO
         2 000330   200042 757100                    STAQ    FPT_UNFID+18,,AUTO
PL6.E3A0      #016=VDG$FORMAT_BLOCK_DESC File=VDG$UTILITY.:VDA5TSI               FRI 07/04/97 11:24 Page:322

     1956     3465    1           CALL M$UNFID (FPT_UNFID)

   3465  2 000331   200020 630500                    EPPR0   FPT_UNFID,,AUTO
         2 000332   420021 713400                    CLIMB   alt,+8209
         2 000333   404400 401760                    pmme    nvectors=10
         2 000334   000336 702000 2                  TSX2    s:3467
         2 000335   000340 710000 2                  TRA     s:3469

     1957     3466    2           WHENALTRETURN DO;

     1958     3467    2              END_INDEX = 0;

   3467  2 000336   200007 470500                    LDP0    @END_INDEX,,AUTO
         2 000337   000000 450100                    STZ     0,,PR0

     1959     3468    2              END;

     1960     3469    1           END_INDEX = START + END_INDEX;

   3469  2 000340   200007 470500                    LDP0    @END_INDEX,,AUTO
         2 000341   200010 236100                    LDQ     START,,AUTO
         2 000342   000000 036100                    ADLQ    0,,PR0
         2 000343   000000 756100                    STQ     0,,PR0

     1961     3470
     1962     3471
     1963     3472                /*
     1964     3473                *   Format the range:  <start_loc> [THRU <end_loc>]
     1965     3474                */
     1966     3475
     1967     3476    2           IF END_INDEX + LENGTHC(%CHR_SPACE) < NB_BUFFER THEN DO;

   3476  2 000344   200004 471500                    LDP1    @NB_BUFFER,,AUTO
         2 000345   000001 036007                    ADLQ    1,DL
         2 000346   100000 116100                    CMPQ    0,,PR1
         2 000347   000357 605000 2                  TPL     s:3480
PL6.E3A0      #016=VDG$FORMAT_BLOCK_DESC File=VDG$UTILITY.:VDA5TSI               FRI 07/04/97 11:24 Page:323

     1968     3477    2              CALL INSERT (BUFFER, END_INDEX, %LENGTHC(CHR_SPACE), %CHR_SPACE);

   3477  2 000350   100000 720100                    LXL0    0,,PR1
         2 000351   000000 235100                    LDA     0,,PR0
         2 000352   200005 473500                    LDP3    @BUFFER,,AUTO
         2 000353   040105 100400                    MLR     fill='040'O
         2 000354   000035 000001 xsym               ADSC9   B_VECTNIL+29             cn=0,n=1
         2 000355   300000 000001                    ADSC9   0,A,PR3                  cn=0,n=1

     1969     3478    2              END_INDEX = END_INDEX + %LENGTHC(CHR_SPACE);

   3478  2 000356   000000 054100                    AOS     0,,PR0

     1970     3479    2              END;

     1971     3480    1           CALL VDG$FORMAT_LOCATION (BLOCK_DESC.RANGE.START, NB_BUFFER, BUFFER,

   3480  2 000357   200007 236100                    LDQ     @END_INDEX,,AUTO
         2 000360   200056 756100                    STQ     VLP_SN+8,,AUTO
         2 000361   200005 235100                    LDA     @BUFFER,,AUTO
         2 000362   200054 757100                    STAQ    VLP_SN+6,,AUTO
         2 000363   200004 236100                    LDQ     @NB_BUFFER,,AUTO
         2 000364   200053 756100                    STQ     VLP_SN+5,,AUTO
         2 000365   200003 236100                    LDQ     @BLOCK_DESC,,AUTO
         2 000366   000003 036003                    ADLQ    3,DU
         2 000367   200052 756100                    STQ     VLP_SN+4,,AUTO
         2 000370   200052 630500                    EPPR0   VLP_SN+4,,AUTO
         2 000371   000023 631400 xsym               EPPR1   B_VECTNIL+19
         2 000372   000000 701000 xent               TSX1    VDG$FORMAT_LOCATION
         2 000373   000000 011000                    NOP     0

     1972     3481    1             END_INDEX, END_INDEX);
     1973     3482
     1974     3483    1           CALL VDG$COMPARE_LOCS (BLOCK_DESC.RANGE.START, BLOCK_DESC.RANGE.ENDD,

   3483  2 000374   200015 630500                    EPPR0   RCCL,,AUTO
PL6.E3A0      #016=VDG$FORMAT_BLOCK_DESC File=VDG$UTILITY.:VDA5TSI               FRI 07/04/97 11:24 Page:324
         2 000375   200054 450500                    STP0    VLP_SN+6,,AUTO
         2 000376   200003 236100                    LDQ     @BLOCK_DESC,,AUTO
         2 000377   000014 036003                    ADLQ    12,DU
         2 000400   200053 756100                    STQ     VLP_SN+5,,AUTO
         2 000401   200003 236100                    LDQ     @BLOCK_DESC,,AUTO
         2 000402   000003 036003                    ADLQ    3,DU
         2 000403   200052 756100                    STQ     VLP_SN+4,,AUTO
         2 000404   200052 630500                    EPPR0   VLP_SN+4,,AUTO
         2 000405   000021 631400 xsym               EPPR1   B_VECTNIL+17
         2 000406   000000 701000 xent               TSX1    VDG$COMPARE_LOCS
         2 000407   000000 011000                    NOP     0

     1975     3484    1             RCCL);    /* Ignore altreturn */
     1976     3485    2           IF RCCL ~= %RCCL_EQUAL THEN DO;

   3485  2 000410   200015 235100                    LDA     RCCL,,AUTO
         2 000411   000445 600000 2                  TZE     s:3498

     1977     3486    2              IF END_INDEX + %LENGTHC(CONCAT(CHR_SPACE,DWLC_THRU,CHR_SPACE))

   3486  2 000412   200004 470500                    LDP0    @NB_BUFFER,,AUTO
         2 000413   200007 471500                    LDP1    @END_INDEX,,AUTO
         2 000414   100000 236100                    LDQ     0,,PR1
         2 000415   000006 036007                    ADLQ    6,DL
         2 000416   000000 116100                    CMPQ    0,,PR0
         2 000417   000430 605000 2                  TPL     s:3494

     1978     3487    3                < NB_BUFFER THEN DO;

     1979     3488    3                 CALL INSERT (BUFFER, END_INDEX,

   3488  2 000420   000000 720100                    LXL0    0,,PR0
         2 000421   100000 235100                    LDA     0,,PR1
         2 000422   200005 473500                    LDP3    @BUFFER,,AUTO
         2 000423   040105 100400                    MLR     fill='040'O
         2 000424   000031 000006 1                  ADSC9   CONST_FPT_UNFID+25       cn=0,n=6
         2 000425   300000 000006                    ADSC9   0,A,PR3                  cn=0,n=6
PL6.E3A0      #016=VDG$FORMAT_BLOCK_DESC File=VDG$UTILITY.:VDA5TSI               FRI 07/04/97 11:24 Page:325

     1980     3489    3                   %LENGTHC(CONCAT(CHR_SPACE,DWLC_THRU,CHR_SPACE)),
     1981     3490    3                   %CONCAT(CHR_SPACE,DWLC_THRU,CHR_SPACE));
     1982     3491    3                 END_INDEX =

   3491  2 000426   000006 236007                    LDQ     6,DL
         2 000427   100000 056100                    ASQ     0,,PR1

     1983     3492    3                   END_INDEX + %LENGTHC(CONCAT(CHR_SPACE,DWLC_THRU,CHR_SPACE));
     1984     3493    3                 END;

     1985     3494    2              CALL VDG$FORMAT_LOCATION (BLOCK_DESC.RANGE.ENDD, NB_BUFFER, BUFFER,

   3494  2 000430   200007 236100                    LDQ     @END_INDEX,,AUTO
         2 000431   200056 756100                    STQ     VLP_SN+8,,AUTO
         2 000432   200005 235100                    LDA     @BUFFER,,AUTO
         2 000433   200054 757100                    STAQ    VLP_SN+6,,AUTO
         2 000434   200004 236100                    LDQ     @NB_BUFFER,,AUTO
         2 000435   200053 756100                    STQ     VLP_SN+5,,AUTO
         2 000436   200003 236100                    LDQ     @BLOCK_DESC,,AUTO
         2 000437   000014 036003                    ADLQ    12,DU
         2 000440   200052 756100                    STQ     VLP_SN+4,,AUTO
         2 000441   200052 630500                    EPPR0   VLP_SN+4,,AUTO
         2 000442   000023 631400 xsym               EPPR1   B_VECTNIL+19
         2 000443   000000 701000 xent               TSX1    VDG$FORMAT_LOCATION
         2 000444   000000 011000                    NOP     0

     1986     3495    2                END_INDEX, END_INDEX);
     1987     3496    2              END;

     1988     3497
     1989     3498    1           RETURN;

   3498  2 000445   000000 702200 xent               TSX2  ! X66_ARET
     1990     3499
     1991     3500    1   END VDG$FORMAT_BLOCK_DESC;
     1992     3501        %EOD;
PL6.E3A0      #016=VDG$FORMAT_BLOCK_DESC File=VDG$UTILITY.:VDA5TSI               FRI 07/04/97 11:24 Page:326

PL6.E3A0      #016=VDG$FORMAT_BLOCK_DESC File=VDG$UTILITY.:VDA5TSI               FRI 07/04/97 11:24 Page:327
--  Include file information  --

   CP_6.:LIBRARY  cannot be made into a system file and is referenced.
   VD_MACROS_M.:VDA5TOU  is referenced.
   B$JIT_C.:E04TOU  was found in the system file and is never referenced.
   CP_6_C.:E04TOU  was found in the system file and is referenced.
      No diagnostics issued in procedure VDG$FORMAT_BLOCK_DESC.
PL6.E3A0      #016=VDG$FORMAT_BLOCK_DESC File=VDG$UTILITY.:VDA5TSI               FRI 07/04/97 11:24 Page:328

 **** Variables and constants ****

  ****  Section 001 RoData VDG$FORMAT_BLOCK_DESC

  ****  Scalars and arrays  ****
OctLoc.c.b A Datatyp(siz) R M Lvl/name                 OctLoc.c.b A Datatyp(siz) R M Lvl/name

     0-0-0/d STRC(792)   r     1 CONST_FPT_UNFID

  ****  Auto variables  ****

  ****  Scalars and arrays  ****
OctLoc.c.b A Datatyp(siz) R M Lvl/name                 OctLoc.c.b A Datatyp(siz) R M Lvl/name

     3-0-0/w PTR         r     1 @BLOCK_DESC                5-0-0/w PTR         r     1 @BUFFER
     7-0-0/w PTR         r     1 @END_INDEX                 4-0-0/w PTR         r     1 @NB_BUFFER
     6-0-0/w PTR         r     1 @START_INDEX              *0-0-0/w STRC(936)   r     1 BLOCK_DESC
    *0-0-0/c ACHR        r     1 BUFFER                    *0-0-0/w SBIN        r     1 END_INDEX
    14-0-0/w SBIN        r     1 ENUM                      16-0-0/w PTR         r     1 FILE_KEY$
    20-0-0/d STRC(792)   r     1 FPT_UNFID                 11-0-0/w SBIN        r     1 LEVEL
    *0-0-0/w SBIN        r     1 NB_BUFFER                 15-0-0/w SBIN        r     1 RCCL
    10-0-0/w SBIN        r     1 START                     *0-0-0/w SBIN        r     1 START_INDEX
    13-0-0/w PTR         r     1 STRUCTURE_LEVEL$
    12-0-0/w PTR         r     1 STRUCTURE_LEVEL_NODE$
    46-0-0/d STRC(90)    r     1 VLP_SN

  ****  SYMREF variables  ****

  ****  Scalars and arrays  ****
OctLoc.c.b A Datatyp(siz) R M Lvl/name                 OctLoc.c.b A Datatyp(siz) R M Lvl/name

     0-0-0/w STRC(144)   r     1 VD_$EXIST                  0-0-0/w STRC(144)   r     1 VD_$PROTECT
     0-0-0/w STRC(324)   r     1 VD_DW_EXIST                0-0-0/w STRC(324)   r     1 VD_DW_ORG
     0-0-0/w STRC(324)   r     1 VD_DW_PROTECT

  ****  BASED and DCB variables  ****

PL6.E3A0      #016=VDG$FORMAT_BLOCK_DESC File=VDG$UTILITY.:VDA5TSI               FRI 07/04/97 11:24 Page:329
  ****  Scalars and arrays  ****
OctLoc.c.b A Datatyp(siz) R M Lvl/name                 OctLoc.c.b A Datatyp(siz) R M Lvl/name

     0-0-0/w STRC(648)   r     1 FILE$KEY                   0-0-0/w STRC(324)   r     1 STRUCTURE$LEVEL
     0-0-0/w STRC(468)   r     1 STRUCTURE$LEVEL_NODE       0-0-0/w STRC(468)   r     1 VD$FILE_NODE


   Procedure VDG$FORMAT_BLOCK_DESC requires 294 words for executable code.
   Procedure VDG$FORMAT_BLOCK_DESC requires 48 words of local(AUTO) storage.
PL6.E3A0      #016=VDG$FORMAT_BLOCK_DESC File=VDG$UTILITY.:VDA5TSI               FRI 07/04/97 11:24 Page:330
          *** CROSS REFERENCE LISTING ***
**     DENOTES     IDENTIFIER DEFINITION
<<                 IDENTIFIER'S VALUE SET
>>                 IDENTIFIER'S VALUE USED
<>                 IDENTIFIER SET AND/OR USED
--                 IDENTIFIER REFERENCED
PL6.E3A0      #016=VDG$FORMAT_BLOCK_DESC File=VDG$UTILITY.:VDA5TSI               FRI 07/04/97 11:24 Page:331
          MINI XREF LISTING

BLOCK_DESC
      2356**DCL        46--PROC     3375--IF
BLOCK_DESC.FILE_KEY.V$
      2394**DCL      3449>>ASSIGN
BLOCK_DESC.OPTIONS.EXIST#
      2478**DCL      3422>>ASSIGN
BLOCK_DESC.OPTIONS.LEVEL#
      2477**DCL      3389>>ASSIGN
BLOCK_DESC.OPTIONS.PROTECT#
      2477**DCL      3409>>ASSIGN
BLOCK_DESC.OPTIONS.STRUCTURE$
      2477**DCL      3387>>ASSIGN
BLOCK_DESC.RANGE.ENDD
      2446**DCL      3483<>CALL     3494<>CALL
BLOCK_DESC.RANGE.START
      2418**DCL      3480<>CALL     3483<>CALL
BUFFER
      2496**DCL        46--PROC     3379<<CALLBLT  3403<<CALLBLT  3416<<CALLBLT  3428<<CALLBLT  3441<<CALLBLT
      3463--ASSIGN   3477<<CALLBLT  3480<>CALL     3488<<CALLBLT  3494<>CALL
CONST_FPT_UNFID
      3037**DCL      3446>>ASSIGN
CONST_FPT_UNFID.V
      3041**DCL      3037--DCLINIT
END_INDEX
      2498**DCL        46--PROC     3380<<ASSIGN   3401<<ASSIGN   3403>>CALLBLT  3405>>ASSIGN   3413<<ASSIGN
      3415>>IF       3416>>CALLBLT  3418>>ASSIGN   3426<<ASSIGN   3428>>CALLBLT  3430>>ASSIGN   3438<<ASSIGN
      3440>>IF       3441>>CALLBLT  3443>>ASSIGN   3464--ASSIGN   3467<<ASSIGN   3469<<ASSIGN   3469>>ASSIGN
      3476>>IF       3477>>CALLBLT  3478<<ASSIGN   3478>>ASSIGN   3480<>CALL     3480<>CALL     3486>>IF
      3488>>CALLBLT  3491<<ASSIGN   3491>>ASSIGN   3494<>CALL     3494<>CALL
ENUM
      3051**DCL      3397<<ASSIGN   3398>>IF       3398>>IF       3401>>ASSIGN   3403>>CALLBLT  3409<<ASSIGN
      3410>>IF       3410>>IF       3410>>IF       3413>>ASSIGN   3416>>CALLBLT  3422<<ASSIGN   3423>>IF
PL6.E3A0      #016=VDG$FORMAT_BLOCK_DESC File=VDG$UTILITY.:VDA5TSI               FRI 07/04/97 11:24 Page:332
      3423>>IF       3423>>IF       3426>>ASSIGN   3428>>CALLBLT
FILE$KEY.ASN#
      3273**DCL      3456--ASSIGN
FILE$KEY.DCB#
      3274**DCL      3452>>ASSIGN
FILE$KEY.LENGTH#
      3271**DCL      3450>>IF
FILE$KEY.PSN
      3274**DCL      3461>>ASSIGN
FILE$KEY.RES
      3273**DCL      3458--ASSIGN
FILE$KEY.UNIQUE.ACCT
      3272**DCL      3455--ASSIGN
FILE$KEY.UNIQUE.FNAME
      3272**DCL      3457--ASSIGN
FILE_KEY$
      3053**DCL      3244--IMP-PTR  3449<<ASSIGN   3450>>IF       3452>>ASSIGN   3455>>ASSIGN   3456>>ASSIGN
      3457>>ASSIGN   3458>>ASSIGN   3461>>ASSIGN
FPT_UNFID
      3065**DCL      3446<<ASSIGN   3465<>CALL
FPT_UNFID.ACCT_
      3066**DCL      3455<<ASSIGN
FPT_UNFID.ASN_
      3068**DCL      3456<<ASSIGN
FPT_UNFID.LEN_
      3068**DCL      3464<<ASSIGN
FPT_UNFID.NAME_
      3066**DCL      3457<<ASSIGN
FPT_UNFID.RES_
      3068**DCL      3458<<ASSIGN
FPT_UNFID.SN_
      3067**DCL      3459<<ASSIGN
FPT_UNFID.TEXTFID_
      3065**DCL      3463<<ASSIGN
FPT_UNFID.V
      3069**DCL      3447--ASSIGN
PL6.E3A0      #016=VDG$FORMAT_BLOCK_DESC File=VDG$UTILITY.:VDA5TSI               FRI 07/04/97 11:24 Page:333
FPT_UNFID.V.DCB#
      3069**DCL      3452<<ASSIGN
FPT_UNFID.V_
      3065**DCL      3447<<ASSIGN
LEVEL
      3048**DCL      3389<<ASSIGN   3390>>DOWHILE  3393<<ASSIGN   3393>>ASSIGN
M$UNFID
      2337**DCL-ENT  3465--CALL
NB_BUFFER
      2495**DCL        46--PROC     2496--IMP-SIZ  3379>>CALLBLT  3401>>ASSIGN   3403>>CALLBLT  3413>>ASSIGN
      3415>>IF       3416>>CALLBLT  3426>>ASSIGN   3428>>CALLBLT  3438>>ASSIGN   3440>>IF       3441>>CALLBLT
      3463>>ASSIGN   3476>>IF       3477>>CALLBLT  3480<>CALL     3480>>CALL     3486>>IF       3488>>CALLBLT
      3494<>CALL     3494>>CALL
RCCL
      3052**DCL      3483<>CALL     3485>>IF
START
      3047**DCL      3373<<ASSIGN   3379>>CALLBLT  3380>>ASSIGN   3401>>ASSIGN   3403>>CALLBLT  3403>>CALLBLT
      3405<<ASSIGN   3413>>ASSIGN   3416>>CALLBLT  3416>>CALLBLT  3418<<ASSIGN   3426>>ASSIGN   3428>>CALLBLT
      3428>>CALLBLT  3430<<ASSIGN   3438>>ASSIGN   3441>>CALLBLT  3441>>CALLBLT  3443<<ASSIGN   3463>>ASSIGN
      3469>>ASSIGN
START_INDEX
      2497**DCL        46--PROC     3373>>ASSIGN
STRUCTURE$LEVEL.ORG#
      3224**DCL      3397>>ASSIGN
STRUCTURE$LEVEL_NODE.DESC.SPEC.V$
      3175**DCL      3396>>ASSIGN
STRUCTURE$LEVEL_NODE.FLINK$
      3122**DCL      3392>>ASSIGN
STRUCTURE_LEVEL$
      3050**DCL      3197--IMP-PTR  3396<<ASSIGN   3397>>ASSIGN
STRUCTURE_LEVEL_NODE$
      3049**DCL      3096--IMP-PTR  3387<<ASSIGN   3390>>DOWHILE  3392<<ASSIGN   3392>>ASSIGN   3395>>IF
      3396>>ASSIGN
VD$FILE_NODE.HEAD$
      3368**DCL      3387>>ASSIGN
VDG$COMPARE_LOCS
PL6.E3A0      #016=VDG$FORMAT_BLOCK_DESC File=VDG$UTILITY.:VDA5TSI               FRI 07/04/97 11:24 Page:334
      2502**DCL-ENT  3483--CALL
VDG$FORMAT_LOCATION
      2501**DCL-ENT  3480--CALL     3494--CALL
VD_$EXIST.V#
      2592**DCL      3423>>IF
VD_$PROTECT.V#
      2547**DCL      3410>>IF
VD_DW_EXIST.DW.BYTES
      3021**DCL      3428>>CALLBLT
VD_DW_EXIST.DW.LENGTH#
      3021**DCL      3426>>ASSIGN
VD_DW_EXIST.N_ENTRIES#
      2882**DCL      3423>>IF
VD_DW_ORG.DW.BYTES
      2735**DCL      3403>>CALLBLT
VD_DW_ORG.DW.LENGTH#
      2735**DCL      3401>>ASSIGN
VD_DW_ORG.N_ENTRIES#
      2596**DCL      3398>>IF
VD_DW_PROTECT.DW.BYTES
      2878**DCL      3416>>CALLBLT
VD_DW_PROTECT.DW.LENGTH#
      2878**DCL      3413>>ASSIGN
VD_DW_PROTECT.N_ENTRIES#
      2739**DCL      3410>>IF
VLP_SN
      3083**DCL      3459--ASSIGN
VLP_SN.NUM#
      3083**DCL      3460<<ASSIGN
VLP_SN.SN#
      3083**DCL      3461<<ASSIGN

