VERSION A05

PL6.E3A0      #001=VDG$TEST_1_RANGE File=VDG$UTILITY.:VDA5TSI                    FRI 07/04/97 11:23 Page:1
        1        1        /*M* VDG$UTILITY - General utility routines */
        2        2        /*T***********************************************************/
        3        3        /*T*                                                         */
        4        4        /*T* Copyright (c) Bull HN Information Systems Inc., 1997    */
        5        5        /*T*                                                         */
        6        6        /*T***********************************************************/
        7        7
        8        8        /*X* MCR=NO, DMC=YES */
        9        9        /*T*/
       10       10
       11       11        /*P* NAME:  VDG$UTILITY
       12       12            PURPOSE:  General utility routines, subroutinized to avoid code
       13       13                duplication.
       14       14            DESCRIPTION:
       15       15                This module contains several external routines:
       16       16
       17       17                VDG$TEST_1_RANGE
       18       18                Given an InTree, will determine if the InTree evaluates
       19       19                to a single range or to multiple ranges.  This is used
       20       20                by certain commands (EDIT, LOCATION) which can only be
       21       21                used with single-range block expressions.
       22       22                Multiple ranges are indicated only by a SELECT-repeat
       23       23                count which is greater than one.
       24       24
       25       25                VDG$RESIZE_COMMAND_WINDOW
       26       26                Changes the height of the command window.  There are two
       27       27                entry-points to this routine:  VDG$EXPAND_COMMAND_WINDOW will
       28       28                expand the command window if it's not already at least a given
       29       29                height; VDG$SHRINK_COMMAND_WINDOW will shrink it if it's not already
       30       30                at most a given height.  Also mucks with pagehalt appropriately.
       31       31
       32       32                VDG$ERASE_COMMAND_WINDOW
       33       33                If the command window is open in 2Dim form, erases it.
       34       34
       35       35                VDG$COMPARE_LOCS
       36       36                Given two VD$LOCATIONs, compares them.  Returns a return-code
       37       37                indicating less than, greater than, or equal to.
PL6.E3A0      #001=VDG$TEST_1_RANGE File=VDG$UTILITY.:VDA5TSI                    FRI 07/04/97 11:23 Page:2
       38       38
       39       39                VDG$COMPARE_PTRS_W_RANGE
       40       40                Given a VD$LOCATION_PTRS and a VD$RANGE, see if the location
       41       41                is within the range.
       42       42
       43       43                VDG$COMPARE_LOC_W_PTRS
       44       44                Given a VD$LOCATION and a range represented by two
       45       45                VD$LOCATION_PTRS, see if the location is within the range.
       46       46
       47       47                VDG$LOCATION_TO_PTRS
       48       48                Builds a VD$LOCATION_PTRS from a VD$LOCATION.
       49       49
       50       50                VDG$BUILD_NEW_REC
       51       51                VDG$BUILD_NEW_REC is passed two VD$NODE_DESC structure, two positional
       52       52                values, and a BNR_xxx EQU that inidcates to VDG$BUILD_NEW_REC how to
       53       53                build the new record. If the VD$BUFFER.LENGTH# is zero
       54       54                and the VD$NODE_DESC.EOR is reset, VDG$BUILD_NEW_REC
       55       55                will treat that VD$NODE_DESC as having no record contents.
       56       56                The value of the BNR_xxx code will determine whether VDG$BUILD_NEW_REC
       57       57                has one or two records to work with, and whether the S_POS and E_POS
       58       58                are on one or the other record. When VDG$BUILD_NEW_REC has built the
       59       59                new record, VDG$BUILD_NEW_REC will release the second VD$NODE_DESC
       60       60                structure's allocated area. VDG$BUILD_NEW_REC will also release the
       61       61                allocated area for the first VD$NODE_DESC structure, and move the
       62       62                newly built record into the first VD$NODE_DESC structure.
       63       63                Please note: An empty record is represented by the LENGTH# = 0
       64       64                              and EOR being set.
       65       65
       66       66                             A null record, i.e. there is no record. is represented
       67       67                              by LENGTH# = 0 and EOR being reset.
       68       68
       69       69                VDG$BUILD_LOCATION
       70       70                Given the results of a KEYR=YES monitor call (M$PRECORD or
       71       71                M$READ), will build a VD$LOCATION structure corresponding
       72       72                to the returned key or EOF condition.
       73       73
       74       74                VDG$BUILD_KEY
PL6.E3A0      #001=VDG$TEST_1_RANGE File=VDG$UTILITY.:VDA5TSI                    FRI 07/04/97 11:23 Page:3
       75       75                Given a string of bytes representing a record key, store
       76       76                them (or a reference to them) in a VD$KEY structure.
       77       77                This is done differently for short keys than for long
       78       78                keys: short keys are stored locally, ie, in the VD$KEY
       79       79                structure itself; long keys are stored remotely, ie, in a
       80       80                separately-allocated VD$REMOTE_TEXTC object.
       81       81
       82       82                VDG$FORMAT_NUMBER
       83       83                Given an object class and a binary word, will format the
       84       84                appropriate string.  Handles numbers, booleans, and enumerated
       85       85                values.  For numbers, leading zeros will be suppressed.
       86       86                Booleans will be translated to ON or OFF keywords, and
       87       87                enumerated values will be translated into the appropriate
       88       88                value.
       89       89
       90       90                VDG$FORMAT_KEY
       91       91                Given a VD$KEY structure, will return a string of the
       92       92                appropriate form:
       93       93                    99999.999   for KT_NUMBER keys.
       94       94                                Will truncate leading and trailing zeros.
       95       95                                (For KT_NUMBER, ORG_CONSEC keys, use
       96       96                                VDG$FORMAT_NUMBER.)
       97       97                    XX...XX     for KT_STRING keys.
       98       98                                Will translate non-displayable characters
       99       99                                to %CHR_NON_DISPLAYABLE.
      100      100
      101      101                VDG$FORMAT_LOCATION
      102      102
      103      103                VDG$FORMAT_BLOCK_DESC
      104      104
      105      105                VDG$EXEC_CONTROL
      106      106                Given a text string (which could be a command line, input
      107      107                data from the command stream, or a literal string) and an
      108      108                index into the text string of a $CONTROL-function invokation,
      109      109                VDG$EXEC_CONTROL will execute the $CONTROL function
      110      110                which appears at the specified index.
      111      111
PL6.E3A0      #001=VDG$TEST_1_RANGE File=VDG$UTILITY.:VDA5TSI                    FRI 07/04/97 11:23 Page:4
      112      112                Some functions can only partially be executed on the given
      113      113                string alone.  Therefore, a "return code" (and optional
      114      114                $CONTROL-function arguments) is returned by
      115      115                VDG$EXEC_CONTROL, telling the caller if the function has been
      116      116                completely executed, or if not, what function it was that was
      117      117                only partially executed.
      118      118
      119      119                VDG$XLATE_LOCATIONS
      120      120                Given a VD$XLATE_LOCATIONS table, will walk the Locations file,
      121      121                the Windows file, and the source operand, examining all
      122      122                VD$LOCATIONs in each of them, and either build entries in
      123      123                the table for VD$LOCATIONS from a specified file, or will
      124      124                translate the VD$LOCATIONS from a specified file using the
      125      125                table to direct the translation.
      126      126        */
      127      127
      128      128        /*D* NAME: VDG$TEST_1_RANGE
      129      129            PARAMETERS:
      130      130                IT_BLOCK_EXPR - VD$IT_BLOCK_EXPR node which is the root of
      131      131                    the InTree.
      132      132                SINGLE_RANGE - An uninitialized BIT(1) ALIGNED flag.
      133      133            INPUT:
      134      134            OUTPUT:
      135      135                SINGLE_RANGE will be set %TRUE if IT_BLOCK_EXPR specifies
      136      136                    a single range; %FALSE otherwise.
      137      137            DESCRIPTION:
      138      138                Check all the IT_SELECT nodes in the InTree:  if any have
      139      139                a repeat count which is > 1, set SINGLE_RANGE to %FALSE
      140      140                and return.
      141      141        */
      142      142
      143      143        VDG$TEST_1_RANGE: PROC (IT_BLOCK_EXPR, SINGLE_RANGE) ALTRET;
      144      144
      145      145
      146      146        %INCLUDE VD_MACROS_M;
      147     2361
      148     2362
PL6.E3A0      #001=VDG$TEST_1_RANGE File=VDG$UTILITY.:VDA5TSI                    FRI 07/04/97 11:23 Page:5
      149     2363        %VD$IT_BLOCK_EXPR (NAME=IT_BLOCK_EXPR, STCLASS=PARAM);
      150     2513    1   DCL SINGLE_RANGE BIT(1) ALIGNED;
      151     2514
      152     2515
      153     2516
      154     2517    1   DCL IT_SELECT$ PTR;
      155     2518
      156     2519
      157     2520        %VD$IT_SELECT (NAME=IT$SELECT, STCLASS="BASED(IT_SELECT$)");
      158     2557
      159     2558
      160     2559
      161     2560    1           SINGLE_RANGE = %FALSE;      /* Assume it's multi-range */
      162     2561
      163     2562    1           IT_SELECT$ = IT_BLOCK_EXPR.SELECTS$;
      164     2563    2           DO WHILE IT_SELECT$ ~= ADDR(NIL);
      165     2564    2              IF IT$SELECT.RPT_ALL
      166     2565    2                OR IT$SELECT.RPT_COUNT# > 1 THEN
      167     2566    2                 RETURN;       /* It's multi-range */
      168     2567    2              IT_SELECT$ = IT$SELECT.FLINK$;
      169     2568    2              END;
      170     2569
      171     2570    1           SINGLE_RANGE = %TRUE;
      172     2571    1           RETURN;
      173     2572
      174     2573    1   END VDG$TEST_1_RANGE;
      175     2574        %EOD;

PL6.E3A0      #001=VDG$TEST_1_RANGE File=VDG$UTILITY.:VDA5TSI                    FRI 07/04/97 11:23 Page:6
--  Include file information  --

   VD_MACROS_M.:VDA5TOU  is referenced.
   B$JIT_C.:E04TOU  was found in the system file and is never referenced.
   CP_6_C.:E04TOU  was found in the system file and is never referenced.
      No diagnostics issued in procedure VDG$TEST_1_RANGE.

   Procedure VDG$TEST_1_RANGE requires 23 words for executable code.
   Procedure VDG$TEST_1_RANGE requires 6 words of local(AUTO) storage.

PL6.E3A0      #001=VDG$TEST_1_RANGE File=VDG$UTILITY.:VDA5TSI                    FRI 07/04/97 11:23 Page:7

 Object Unit name= VDG$TEST_1_RANGE                           File name= VDG$UTILITY.:VDA5TOU
 UTS= JUL 04 '97 11:23:02.12 FRI                              Compiler= PL-6/E31         Sev=      00
 SharedLib= :SHARED_SYSTEM                                    Alt SharedLib=


    ****  Control sections  ****

 Sect   Type Bound  Init  Size OctSiz  Section name(segment info)
    0   Proc  even  none    23     27  VDG$TEST_1_RANGE

    ****  Entry defs  ****

                              Check   Calling
                             calling  sequence
  Sect OctLoc Primary Altret sequence   type   Parms  Name
     0      0   yes    yes     yes      Std        2  VDG$TEST_1_RANGE

  ****  Entry refs  ****

         Check        Calling
        calling       sequence
Altret sequence SRef   type   Args  Name
                       nStd      0 X66_AUTO_2
                       nStd      0 X66_ARET
                       Std       0 B_CONSPOOL_D

  ****  Data refs  ****

  Flags:  r = read only, s = secondary
Flgs Name                             Flgs Name                             Flgs Name
     B_VECTNIL
PL6.E3A0      #001=VDG$TEST_1_RANGE File=VDG$UTILITY.:VDA5TSI                    FRI 07/04/97 11:23 Page:8


        1        1        /*M* VDG$UTILITY - General utility routines */
        2        2        /*T***********************************************************/
        3        3        /*T*                                                         */
        4        4        /*T* Copyright (c) Bull HN Information Systems Inc., 1997    */
        5        5        /*T*                                                         */
        6        6        /*T***********************************************************/
        7        7
        8        8        /*X* MCR=NO, DMC=YES */
        9        9        /*T*/
       10       10
       11       11        /*P* NAME:  VDG$UTILITY
       12       12            PURPOSE:  General utility routines, subroutinized to avoid code
       13       13                duplication.
       14       14            DESCRIPTION:
       15       15                This module contains several external routines:
       16       16
       17       17                VDG$TEST_1_RANGE
       18       18                Given an InTree, will determine if the InTree evaluates
       19       19                to a single range or to multiple ranges.  This is used
       20       20                by certain commands (EDIT, LOCATION) which can only be
       21       21                used with single-range block expressions.
       22       22                Multiple ranges are indicated only by a SELECT-repeat
       23       23                count which is greater than one.
       24       24
       25       25                VDG$RESIZE_COMMAND_WINDOW
       26       26                Changes the height of the command window.  There are two
       27       27                entry-points to this routine:  VDG$EXPAND_COMMAND_WINDOW will
       28       28                expand the command window if it's not already at least a given
       29       29                height; VDG$SHRINK_COMMAND_WINDOW will shrink it if it's not already
       30       30                at most a given height.  Also mucks with pagehalt appropriately.
       31       31
       32       32                VDG$ERASE_COMMAND_WINDOW
       33       33                If the command window is open in 2Dim form, erases it.
       34       34
       35       35                VDG$COMPARE_LOCS
       36       36                Given two VD$LOCATIONs, compares them.  Returns a return-code
PL6.E3A0      #001=VDG$TEST_1_RANGE File=VDG$UTILITY.:VDA5TSI                    FRI 07/04/97 11:23 Page:9
       37       37                indicating less than, greater than, or equal to.
       38       38
       39       39                VDG$COMPARE_PTRS_W_RANGE
       40       40                Given a VD$LOCATION_PTRS and a VD$RANGE, see if the location
       41       41                is within the range.
       42       42
       43       43                VDG$COMPARE_LOC_W_PTRS
       44       44                Given a VD$LOCATION and a range represented by two
       45       45                VD$LOCATION_PTRS, see if the location is within the range.
       46       46
       47       47                VDG$LOCATION_TO_PTRS
       48       48                Builds a VD$LOCATION_PTRS from a VD$LOCATION.
       49       49
       50       50                VDG$BUILD_NEW_REC
       51       51                VDG$BUILD_NEW_REC is passed two VD$NODE_DESC structure, two positional
       52       52                values, and a BNR_xxx EQU that inidcates to VDG$BUILD_NEW_REC how to
       53       53                build the new record. If the VD$BUFFER.LENGTH# is zero
       54       54                and the VD$NODE_DESC.EOR is reset, VDG$BUILD_NEW_REC
       55       55                will treat that VD$NODE_DESC as having no record contents.
       56       56                The value of the BNR_xxx code will determine whether VDG$BUILD_NEW_REC
       57       57                has one or two records to work with, and whether the S_POS and E_POS
       58       58                are on one or the other record. When VDG$BUILD_NEW_REC has built the
       59       59                new record, VDG$BUILD_NEW_REC will release the second VD$NODE_DESC
       60       60                structure's allocated area. VDG$BUILD_NEW_REC will also release the
       61       61                allocated area for the first VD$NODE_DESC structure, and move the
       62       62                newly built record into the first VD$NODE_DESC structure.
       63       63                Please note: An empty record is represented by the LENGTH# = 0
       64       64                              and EOR being set.
       65       65
       66       66                             A null record, i.e. there is no record. is represented
       67       67                              by LENGTH# = 0 and EOR being reset.
       68       68
       69       69                VDG$BUILD_LOCATION
       70       70                Given the results of a KEYR=YES monitor call (M$PRECORD or
       71       71                M$READ), will build a VD$LOCATION structure corresponding
       72       72                to the returned key or EOF condition.
       73       73
PL6.E3A0      #001=VDG$TEST_1_RANGE File=VDG$UTILITY.:VDA5TSI                    FRI 07/04/97 11:23 Page:10
       74       74                VDG$BUILD_KEY
       75       75                Given a string of bytes representing a record key, store
       76       76                them (or a reference to them) in a VD$KEY structure.
       77       77                This is done differently for short keys than for long
       78       78                keys: short keys are stored locally, ie, in the VD$KEY
       79       79                structure itself; long keys are stored remotely, ie, in a
       80       80                separately-allocated VD$REMOTE_TEXTC object.
       81       81
       82       82                VDG$FORMAT_NUMBER
       83       83                Given an object class and a binary word, will format the
       84       84                appropriate string.  Handles numbers, booleans, and enumerated
       85       85                values.  For numbers, leading zeros will be suppressed.
       86       86                Booleans will be translated to ON or OFF keywords, and
       87       87                enumerated values will be translated into the appropriate
       88       88                value.
       89       89
       90       90                VDG$FORMAT_KEY
       91       91                Given a VD$KEY structure, will return a string of the
       92       92                appropriate form:
       93       93                    99999.999   for KT_NUMBER keys.
       94       94                                Will truncate leading and trailing zeros.
       95       95                                (For KT_NUMBER, ORG_CONSEC keys, use
       96       96                                VDG$FORMAT_NUMBER.)
       97       97                    XX...XX     for KT_STRING keys.
       98       98                                Will translate non-displayable characters
       99       99                                to %CHR_NON_DISPLAYABLE.
      100      100
      101      101                VDG$FORMAT_LOCATION
      102      102
      103      103                VDG$FORMAT_BLOCK_DESC
      104      104
      105      105                VDG$EXEC_CONTROL
      106      106                Given a text string (which could be a command line, input
      107      107                data from the command stream, or a literal string) and an
      108      108                index into the text string of a $CONTROL-function invokation,
      109      109                VDG$EXEC_CONTROL will execute the $CONTROL function
      110      110                which appears at the specified index.
PL6.E3A0      #001=VDG$TEST_1_RANGE File=VDG$UTILITY.:VDA5TSI                    FRI 07/04/97 11:23 Page:11
      111      111
      112      112                Some functions can only partially be executed on the given
      113      113                string alone.  Therefore, a "return code" (and optional
      114      114                $CONTROL-function arguments) is returned by
      115      115                VDG$EXEC_CONTROL, telling the caller if the function has been
      116      116                completely executed, or if not, what function it was that was
      117      117                only partially executed.
      118      118
      119      119                VDG$XLATE_LOCATIONS
      120      120                Given a VD$XLATE_LOCATIONS table, will walk the Locations file,
      121      121                the Windows file, and the source operand, examining all
      122      122                VD$LOCATIONs in each of them, and either build entries in
      123      123                the table for VD$LOCATIONS from a specified file, or will
      124      124                translate the VD$LOCATIONS from a specified file using the
      125      125                table to direct the translation.
      126      126        */
      127      127
      128      128        /*D* NAME: VDG$TEST_1_RANGE
      129      129            PARAMETERS:
      130      130                IT_BLOCK_EXPR - VD$IT_BLOCK_EXPR node which is the root of
      131      131                    the InTree.
      132      132                SINGLE_RANGE - An uninitialized BIT(1) ALIGNED flag.
      133      133            INPUT:
      134      134            OUTPUT:
      135      135                SINGLE_RANGE will be set %TRUE if IT_BLOCK_EXPR specifies
      136      136                    a single range; %FALSE otherwise.
      137      137            DESCRIPTION:
      138      138                Check all the IT_SELECT nodes in the InTree:  if any have
      139      139                a repeat count which is > 1, set SINGLE_RANGE to %FALSE
      140      140                and return.
      141      141        */
      142      142
      143      143        VDG$TEST_1_RANGE: PROC (IT_BLOCK_EXPR, SINGLE_RANGE) ALTRET;

    143  0 000000   000000 700200 xent  VDG$TEST_1_* TSX0  ! X66_AUTO_2
         0 000001   000006 000002                    ZERO    6,2

PL6.E3A0      #001=VDG$TEST_1_RANGE File=VDG$UTILITY.:VDA5TSI                    FRI 07/04/97 11:23 Page:12
      144      144
      145      145
      146      146        %INCLUDE VD_MACROS_M;
      147     2361
      148     2362
      149     2363        %VD$IT_BLOCK_EXPR (NAME=IT_BLOCK_EXPR, STCLASS=PARAM);
      150     2513    1   DCL SINGLE_RANGE BIT(1) ALIGNED;
      151     2514
      152     2515
      153     2516
      154     2517    1   DCL IT_SELECT$ PTR;
      155     2518
      156     2519
      157     2520        %VD$IT_SELECT (NAME=IT$SELECT, STCLASS="BASED(IT_SELECT$)");
      158     2557
      159     2558
      160     2559
      161     2560    1           SINGLE_RANGE = %FALSE;      /* Assume it's multi-range */

   2560  0 000002   200004 470500                    LDP0    @SINGLE_RANGE,,AUTO
         0 000003   000000 450100                    STZ     0,,PR0

      162     2561
      163     2562    1           IT_SELECT$ = IT_BLOCK_EXPR.SELECTS$;

   2562  0 000004   200003 471500                    LDP1    @IT_BLOCK_EXPR,,AUTO
         0 000005   100035 236100                    LDQ     29,,PR1
         0 000006   200005 756100                    STQ     IT_SELECT$,,AUTO

      164     2563    2           DO WHILE IT_SELECT$ ~= ADDR(NIL);

   2563  0 000007   000021 710000 0                  TRA     s:2568

      165     2564    2              IF IT$SELECT.RPT_ALL

   2564  0 000010   200005 470500                    LDP0    IT_SELECT$,,AUTO
         0 000011   000003 234100                    SZN     3,,PR0
PL6.E3A0      #001=VDG$TEST_1_RANGE File=VDG$UTILITY.:VDA5TSI                    FRI 07/04/97 11:23 Page:13
         0 000012   000016 604000 0                  TMI     s:2566
         0 000013   000003 720100                    LXL0    3,,PR0
         0 000014   000001 100003                    CMPX0   1,DU
         0 000015   000017 604400 0                  TMOZ    s:2567

      166     2565    2                OR IT$SELECT.RPT_COUNT# > 1 THEN
      167     2566    2                 RETURN;       /* It's multi-range */

   2566  0 000016   000000 702200 xent               TSX2  ! X66_ARET

      168     2567    2              IT_SELECT$ = IT$SELECT.FLINK$;

   2567  0 000017   000002 236100                    LDQ     2,,PR0
         0 000020   200005 756100                    STQ     IT_SELECT$,,AUTO

      169     2568    2              END;

   2568  0 000021   000001 116000 xsym               CMPQ    B_VECTNIL+1
         0 000022   000010 601000 0                  TNZ     s:2564

      170     2569
      171     2570    1           SINGLE_RANGE = %TRUE;

   2570  0 000023   400000 236003                    LDQ     -131072,DU
         0 000024   200004 470500                    LDP0    @SINGLE_RANGE,,AUTO
         0 000025   000000 756100                    STQ     0,,PR0

      172     2571    1           RETURN;

   2571  0 000026   000000 702200 xent               TSX2  ! X66_ARET
      173     2572
      174     2573    1   END VDG$TEST_1_RANGE;
      175     2574        %EOD;

PL6.E3A0      #001=VDG$TEST_1_RANGE File=VDG$UTILITY.:VDA5TSI                    FRI 07/04/97 11:23 Page:14
--  Include file information  --

   VD_MACROS_M.:VDA5TOU  is referenced.
   B$JIT_C.:E04TOU  was found in the system file and is never referenced.
   CP_6_C.:E04TOU  was found in the system file and is never referenced.
      No diagnostics issued in procedure VDG$TEST_1_RANGE.
PL6.E3A0      #001=VDG$TEST_1_RANGE File=VDG$UTILITY.:VDA5TSI                    FRI 07/04/97 11:23 Page:15

 **** Variables and constants ****

  ****  Auto variables  ****

  ****  Scalars and arrays  ****
OctLoc.c.b A Datatyp(siz) R M Lvl/name                 OctLoc.c.b A Datatyp(siz) R M Lvl/name

     3-0-0/w PTR         r     1 @IT_BLOCK_EXPR             4-0-0/w PTR         r     1 @SINGLE_RANGE
    *0-0-0/w STRC(1116)  r     1 IT_BLOCK_EXPR              5-0-0/w PTR         r     1 IT_SELECT$
    *0-0-0/w BIT         r     1 SINGLE_RANGE

  ****  BASED and DCB variables  ****

  ****  Scalars and arrays  ****
OctLoc.c.b A Datatyp(siz) R M Lvl/name                 OctLoc.c.b A Datatyp(siz) R M Lvl/name

     0-0-0/w STRC(216)   r     1 IT$SELECT


   Procedure VDG$TEST_1_RANGE requires 23 words for executable code.
   Procedure VDG$TEST_1_RANGE requires 6 words of local(AUTO) storage.
PL6.E3A0      #001=VDG$TEST_1_RANGE File=VDG$UTILITY.:VDA5TSI                    FRI 07/04/97 11:23 Page:16
          *** CROSS REFERENCE LISTING ***
**     DENOTES     IDENTIFIER DEFINITION
<<                 IDENTIFIER'S VALUE SET
>>                 IDENTIFIER'S VALUE USED
<>                 IDENTIFIER SET AND/OR USED
--                 IDENTIFIER REFERENCED
PL6.E3A0      #001=VDG$TEST_1_RANGE File=VDG$UTILITY.:VDA5TSI                    FRI 07/04/97 11:23 Page:17
          MINI XREF LISTING

IT$SELECT.FLINK$
      2554**DCL      2567>>ASSIGN
IT$SELECT.RPT_ALL
      2554**DCL      2564>>IF
IT$SELECT.RPT_COUNT#
      2554**DCL      2564>>IF
IT_BLOCK_EXPR
      2371**DCL       143--PROC
IT_BLOCK_EXPR.SELECTS$
      2511**DCL      2562>>ASSIGN
IT_SELECT$
      2517**DCL      2528--IMP-PTR  2562<<ASSIGN   2563>>DOWHILE  2564>>IF       2564>>IF       2567<<ASSIGN
      2567>>ASSIGN
SINGLE_RANGE
      2513**DCL       143--PROC     2560<<ASSIGN   2570<<ASSIGN

PL6.E3A0      #002=VDG$RESIZE_COMMAND_WINDOW File=VDG$UTILITY.:VDA5TSI           FRI 07/04/97 11:23 Page:18
      176        1        /*T***********************************************************/
      177        2        /*T*                                                         */
      178        3        /*T* Copyright (c) Bull HN Information Systems Inc., 1997    */
      179        4        /*T*                                                         */
      180        5        /*T***********************************************************/
      181        6
      182        7        /*D* NAME: VDG$RESIZE_COMMAND_WINDOW
      183        8            PARAMETERS:
      184        9                HEIGHT - # lines command window is to be changed to.
      185       10            INPUT:
      186       11                VD_COMMAND_WINDOW$ - Ptr to the level-1 VD$FILE_NODE for the command
      187       12                    window in the Windows file.  May be NIL if not yet fully
      188       13                    initialized.
      189       14                VD_$SCREEN - VD$NUMBER for the $SCREEN predefined name.  If
      190       15                    VD_$SCREEN.V# < %MN_SCREEN_EDITING_HEIGHT, then we're not
      191       16                    screen editing, and this routine will simply return.
      192       17                VD_$MAX_COMMAND - VD$NUMBER for the $MAX_COMMAND predefined name.
      193       18                    The value of this name is the largest size the command window
      194       19                    is ever to be expanded to.
      195       20            OUTPUT:
      196       21                The command window's height may be changed.
      197       22            DESCRIPTION:
      198       23                If not screen editing, return.
      199       24                If the command window is already at the requested size, return.
      200       25                Call the Accessor to change the command window's Spec component.
      201       26                    The Accessor will call the Presenter to actually change the
      202       27                    window height.
      203       28                If the Accessor rejects the update of the command window due to
      204       29                    %E$PORT_BUSY, then free the PORT_BUSY VD$ERR, and call VDP$WCHANGE
      205       30                    to effect the change directly.  We do this because we sometimes
      206       31                    call the Accessor recursively to expand the command window in
      207       32                    order to report an error on a previous Accessor operation.  Using
      208       33                    the Accessor to change the command window height just makes sure
      209       34                    any Windows-file records on display in a window get updated with
      210       35                    the new window info; if the Windows-file port is busy, we won't
      211       36                    bother updating any Windows-file records which may be on display,
      212       37                    but will effect the height change anyway.
PL6.E3A0      #002=VDG$RESIZE_COMMAND_WINDOW File=VDG$UTILITY.:VDA5TSI           FRI 07/04/97 11:23 Page:19
      213       38                    (The test case for this logic is editing a consecutive file
      214       39                    via the IBEX command line:
      215       40                        !6EDIT consec_file
      216       41                    .)
      217       42                If expand requests removing the ediitng windows completely, just
      218       43                    temporarily set $SCREEN to 0, saving the previous value, so that
      219       44                    the next shrink will restore it to its proper value.
      220       45        */
      221       46
      222       47        VDG$RESIZE_COMMAND_WINDOW: PROC (HEIGHT) ALTRET;
      223       48
      224       49
      225       50        %INCLUDE VD_MACROS_M;
      226     2265        %INCLUDE VD_PERR_C;
      227     2413
      228     2414
      229     2415    1   DCL HEIGHT SBIN;
      230     2416
      231     2417
      232     2418    1   DCL VDG$OALLOC          ENTRY (3) ALTRET;
      233     2419    1   DCL VDG$OFREE           ENTRY (1) ALTRET;
      234     2420    1   DCL VDA$LWRITE          ENTRY (4) ALTRET;
      235     2421    1   DCL VDP$WCHANGE         ENTRY (2) ALTRET;
      236     2422    1   DCL VDI$CSET_COUNT      ENTRY (2) ALTRET;
      237     2423
      238     2424
      239     2425    1   DCL VD_COMMAND_WINDOW$ PTR SYMREF;
      240     2426        %VD_6E (STCLASS=SYMREF);
      241     2462        %VD$NUMBER (NAME=VD_$SCREEN, STCLASS=SYMREF);
      242     2507        %VD$NUMBER (NAME=VD_$MAX_COMMAND, STCLASS=SYMREF);
      243     2552        %VD$NUMBER (NAME=VD_$COMMAND, STCLASS=SYMREF);
      244     2597    1   DCL VD_OLD_$SCREEN SYMREF SBIN;
      245     2598        %VD$LOCATION (NAME=VD_LOC_$SCREEN, STCLASS=SYMREF);
      246     2626
      247     2627
      248     2628    1   DCL EXPAND BIT(1) ALIGNED;
      249     2629    1   DCL OLD_WSPEC$ PTR;
PL6.E3A0      #002=VDG$RESIZE_COMMAND_WINDOW File=VDG$UTILITY.:VDA5TSI           FRI 07/04/97 11:23 Page:20
      250     2630        %VD$SPEC (NAME=SPEC, STCLASS=AUTO);
      251     2644        %VD$LOCATION (NAME=WINDOW_LOC, STCLASS=AUTO);
      252     2672    1   DCL NEW_TAIL$ PTR;
      253     2673
      254     2674
      255     2675
      256     2676        %VD$FILE_NODE (NAME=CWIN$NODE, STCLASS="BASED(VD_COMMAND_WINDOW$)");
      257     2769        %VD$WINDOW_SPEC (NAME=OLD$WSPEC, STCLASS="BASED(OLD_WSPEC$)");
      258     2835        %VD$WINDOW_SPEC (NAME=NEW$WSPEC, STCLASS="BASED(SPEC.V$)");
      259     2901        %VD$STREAM (NAME=WINDOWS$STREAM, STCLASS="BASED(VD_6E.WINDOWS$)");
      260     3007        %VD$ERR (NAME=ERR$HEAD, STCLASS="BASED(VD_6E.ERR_HEAD$)");
      261     3060        %VD$ERR (NAME=ERR$TAIL, STCLASS="BASED(VD_6E.ERR_TAIL$)");
      262     3113        %VD$ERR (NAME=NEW$TAIL, STCLASS="BASED(NEW_TAIL$)");
      263     3166
      264     3167
      265     3168
      266     3169    2           IF VD_COMMAND_WINDOW$ ~= ADDR(NIL) THEN DO;
      267     3170    2              OLD_WSPEC$ = CWIN$NODE.DESC.SPEC.V$;
      268     3171    2              IF OLD$WSPEC.COORDS.HEIGHT# = HEIGHT THEN
      269     3172    2                 RETURN;
      270     3173    2              ELSE IF OLD$WSPEC.COORDS.HEIGHT# > HEIGHT THEN
      271     3174    2                    EXPAND = %FALSE;
      272     3175    2                 ELSE
      273     3176    2                    EXPAND = %TRUE;
      274     3177    2              END;
      275     3178    1           GOTO RESIZE_COMMAND_WINDOW;
      276     3179
      277     3180
      278     3181
      279     3182        /*D* NAME: VDG$EXPAND_COMMAND_WINDOW
      280     3183            PARAMETERS:
      281     3184                HEIGHT - Size command window is to be expanded to.
      282     3185            INPUT, OUTPUT:
      283     3186                Same as for main routine.
      284     3187            DESCRIPTION:
      285     3188                If the command window isn't at least HEIGHT lines, expand it.
      286     3189        */
PL6.E3A0      #002=VDG$RESIZE_COMMAND_WINDOW File=VDG$UTILITY.:VDA5TSI           FRI 07/04/97 11:23 Page:21
      287     3190
      288     3191    1   VDG$EXPAND_COMMAND_WINDOW: ENTRY (HEIGHT) ALTRET;
      289     3192
      290     3193    1           EXPAND = %TRUE;
      291     3194    1           GOTO RESIZE_COMMAND_WINDOW;
      292     3195
      293     3196
      294     3197        /*D* NAME: VDG$SHRINK_COMMAND_WINDOW
      295     3198            PARAMETERS:
      296     3199                HEIGHT - Size command window is to be shrunk to.
      297     3200            INPUT, OUTPUT:
      298     3201                Same as for main routine.
      299     3202            DESCRIPTION:
      300     3203                If the command window isn't at most HEIGHT lines, shrink it.
      301     3204        */
      302     3205
      303     3206    1   VDG$SHRINK_COMMAND_WINDOW: ENTRY (HEIGHT) ALTRET;
      304     3207
      305     3208    1           EXPAND = %FALSE;
      306     3209
      307     3210
      308     3211    1   RESIZE_COMMAND_WINDOW:
      309     3212    1           IF VD_$SCREEN.V# = 0 AND (VD_OLD_$SCREEN = 0 OR EXPAND)
      310     3213    1             OR VD_COMMAND_WINDOW$ = ADDR(NIL) THEN
      311     3214    1              RETURN;
      312     3215
      313     3216    2           IF VD_OLD_$SCREEN > 0 THEN DO;
      314     3217    2              IF VD_$SCREEN.V# = 0 THEN
      315     3218    2                 CALL VDI$CSET_COUNT (VD_LOC_$SCREEN, VD_OLD_$SCREEN);
      316     3219    2              VD_OLD_$SCREEN = 0;
      317     3220    2              END;
      318     3221
      319     3222    2           IF EXPAND AND HEIGHT = VD_$SCREEN.V# THEN DO;
      320     3223    2              VD_OLD_$SCREEN = VD_$SCREEN.V#;
      321     3224    2              CALL VDI$CSET_COUNT (VD_LOC_$SCREEN, 2);
      322     3225    2              IF VD_$COMMAND.V# = 2 THEN
      323     3226    2                 VD_$COMMAND.V# = 0; /* Only force one read from command */
PL6.E3A0      #002=VDG$RESIZE_COMMAND_WINDOW File=VDG$UTILITY.:VDA5TSI           FRI 07/04/97 11:23 Page:22
      324     3227    2              RETURN;
      325     3228    2              END;
      326     3229
      327     3230    1           OLD_WSPEC$ = CWIN$NODE.DESC.SPEC.V$;
      328     3231    2           IF EXPAND THEN DO;
      329     3232    2              IF OLD$WSPEC.COORDS.HEIGHT# >= HEIGHT THEN
      330     3233    2                 RETURN;
      331     3234    2              END;
      332     3235    2           ELSE DO;
      333     3236    2              IF OLD$WSPEC.COORDS.HEIGHT# <= HEIGHT THEN
      334     3237    2                 RETURN;
      335     3238    2              END;
      336     3239
      337     3240    1           SPEC = %CLEAR;
      338     3241    1           SPEC.TYPE# = %SPT_WINDOW_SPEC;
      339     3242    1           SPEC.REP# = %REP_REMOTE;
      340     3243    1           CALL VDG$OALLOC (%CLS_WINDOW_SPEC, SPEC.V$)
      341     3244    1             ALTRET (OALLOC_FAILED);
      342     3245    1           WINDOW_LOC = %CLEAR;
      343     3246
      344     3247    1           NEW$WSPEC.COMMAND = %TRUE;
      345     3248    1           NEW$WSPEC.COORDS.HEIGHT# = HEIGHT;
      346     3249    1           WINDOW_LOC.KEY (%LVL_LOWER-1) = CWIN$NODE.DESC.KEY;
      347     3250
      348     3251    1           CALL VDA$LWRITE (WINDOWS$STREAM, WINDOW_LOC, SPEC)
      349     3252    2           WHENALTRETURN DO;
      350     3253    2              IF ERR$TAIL.ERR.CODE# ~= %E$PORT_BUSY THEN
      351     3254    2                 GOTO LWRITE_FAILED;
      352     3255                   /*
      353     3256                   *   VDA$LWRITE failed only because it would have been
      354     3257                   *     a recursive operation to the Accessor.
      355     3258                   *   Get rid of the error and call the Presenter directly
      356     3259                   *     to change the window height.
      357     3260                   */
      358     3261    2              NEW_TAIL$ = ERR$HEAD.FLINK$;
      359     3262    3              DO WHILE NEW$TAIL.FLINK$ ~= ADDR(ERR$TAIL);
      360     3263    3                 NEW_TAIL$ = NEW$TAIL.FLINK$;
PL6.E3A0      #002=VDG$RESIZE_COMMAND_WINDOW File=VDG$UTILITY.:VDA5TSI           FRI 07/04/97 11:23 Page:23
      361     3264    3                 END;
      362     3265    2              CALL VDG$OFREE (ERR$TAIL)
      363     3266    2                ALTRET (OFREE_FAILED);
      364     3267    2              VD_6E.ERR_TAIL$ = NEW_TAIL$;
      365     3268    2              NEW$TAIL.FLINK$ = ADDR(NIL);
      366     3269    2              CALL VDP$WCHANGE (CWIN$NODE, NEW$WSPEC)
      367     3270    2                ALTRET (WCHANGE_FAILED);
      368     3271    2              CALL VDG$OFREE (NEW$WSPEC)
      369     3272    2                ALTRET (OFREE_FAILED);
      370     3273    2              SPEC = %CLEAR;
      371     3274    2              END;
      372     3275
      373     3276    1           RETURN;
      374     3277
      375     3278
      376     3279
      377     3280    1   LWRITE_FAILED: ;
      378     3281    1   WCHANGE_FAILED: ;
      379     3282    1           CALL VDG$OFREE (NEW$WSPEC)
      380     3283    1             ALTRET (OFREE_FAILED);
      381     3284
      382     3285
      383     3286    1   OALLOC_FAILED: ;
      384     3287    1   OFREE_FAILED: ;
      385     3288    1           ALTRETURN;
      386     3289
      387     3290    1   END VDG$RESIZE_COMMAND_WINDOW;
      388     3291        %EOD;

PL6.E3A0      #002=VDG$RESIZE_COMMAND_WINDOW File=VDG$UTILITY.:VDA5TSI           FRI 07/04/97 11:23 Page:24
--  Include file information  --

   VD_PERR_C.:VDA5TOU  is referenced.
   VD_MACROS_M.:VDA5TOU  is referenced.
   B$JIT_C.:E04TOU  was found in the system file and is never referenced.
   CP_6_C.:E04TOU  was found in the system file and is never referenced.
      No diagnostics issued in procedure VDG$RESIZE_COMMAND_WINDOW.

   Procedure VDG$RESIZE_COMMAND_WINDOW requires 166 words for executable code.
   Procedure VDG$RESIZE_COMMAND_WINDOW requires 22 words of local(AUTO) storage.

PL6.E3A0      #002=VDG$RESIZE_COMMAND_WINDOW File=VDG$UTILITY.:VDA5TSI           FRI 07/04/97 11:23 Page:25

 Object Unit name= VDG$RESIZE_COMMAND_WINDOW                  File name= VDG$UTILITY.:VDA5TOU
 UTS= JUL 04 '97 11:23:07.88 FRI                              Compiler= PL-6/E31         Sev=      00
 SharedLib= :SHARED_SYSTEM                                    Alt SharedLib=


    ****  Control sections  ****

 Sect   Type Bound  Init  Size OctSiz  Section name(segment info)
    0   Proc  even  none   166    246  VDG$RESIZE_COMMAND_WINDOW
    1  RoData even  none     6      6  VDG$RESIZE_COMMAND_WINDOW

    ****  Entry defs  ****

                              Check   Calling
                             calling  sequence
  Sect OctLoc Primary Altret sequence   type   Parms  Name
     0      0   yes    yes     yes      Std        1  VDG$RESIZE_COMMAND_WINDOW
     0     24          yes     yes      Std        1  VDG$EXPAND_COMMAND_WINDOW
     0     31          yes     yes      Std        1  VDG$SHRINK_COMMAND_WINDOW

  ****  Entry refs  ****

         Check        Calling
        calling       sequence
Altret sequence SRef   type   Args  Name
 yes     yes           Std       2 VDI$CSET_COUNT
 yes     yes           Std       3 VDG$OALLOC
 yes     yes           Std       4 VDA$LWRITE
 yes     yes           Std       1 VDG$OFREE
 yes     yes           Std       2 VDP$WCHANGE
                       nStd      0 X66_AUTO_1
                       Std       0 B_CONSPOOL_D
                       nStd      0 X66_ARET
                       nStd      0 X66_AALT
PL6.E3A0      #002=VDG$RESIZE_COMMAND_WINDOW File=VDG$UTILITY.:VDA5TSI           FRI 07/04/97 11:23 Page:26

  ****  Data refs  ****

  Flags:  r = read only, s = secondary
Flgs Name                             Flgs Name                             Flgs Name
     VD_COMMAND_WINDOW$                    VD_6E                                 VD_$SCREEN
     VD_$COMMAND                           VD_OLD_$SCREEN                        VD_LOC_$SCREEN
     B_VECTNIL

  ****  Segment refs  ****

  Flags:  r = read only, s = secondary
Flgs Name                             Flgs Name                             Flgs Name
     ISSID
PL6.E3A0      #002=VDG$RESIZE_COMMAND_WINDOW File=VDG$UTILITY.:VDA5TSI           FRI 07/04/97 11:23 Page:27


      176        1        /*T***********************************************************/
      177        2        /*T*                                                         */
      178        3        /*T* Copyright (c) Bull HN Information Systems Inc., 1997    */
      179        4        /*T*                                                         */
      180        5        /*T***********************************************************/
      181        6
      182        7        /*D* NAME: VDG$RESIZE_COMMAND_WINDOW
      183        8            PARAMETERS:
      184        9                HEIGHT - # lines command window is to be changed to.
      185       10            INPUT:
      186       11                VD_COMMAND_WINDOW$ - Ptr to the level-1 VD$FILE_NODE for the command
      187       12                    window in the Windows file.  May be NIL if not yet fully
      188       13                    initialized.
      189       14                VD_$SCREEN - VD$NUMBER for the $SCREEN predefined name.  If
      190       15                    VD_$SCREEN.V# < %MN_SCREEN_EDITING_HEIGHT, then we're not
      191       16                    screen editing, and this routine will simply return.
      192       17                VD_$MAX_COMMAND - VD$NUMBER for the $MAX_COMMAND predefined name.
      193       18                    The value of this name is the largest size the command window
      194       19                    is ever to be expanded to.
      195       20            OUTPUT:
      196       21                The command window's height may be changed.
      197       22            DESCRIPTION:
      198       23                If not screen editing, return.
      199       24                If the command window is already at the requested size, return.
      200       25                Call the Accessor to change the command window's Spec component.
      201       26                    The Accessor will call the Presenter to actually change the
      202       27                    window height.
      203       28                If the Accessor rejects the update of the command window due to
      204       29                    %E$PORT_BUSY, then free the PORT_BUSY VD$ERR, and call VDP$WCHANGE
      205       30                    to effect the change directly.  We do this because we sometimes
      206       31                    call the Accessor recursively to expand the command window in
      207       32                    order to report an error on a previous Accessor operation.  Using
      208       33                    the Accessor to change the command window height just makes sure
      209       34                    any Windows-file records on display in a window get updated with
      210       35                    the new window info; if the Windows-file port is busy, we won't
      211       36                    bother updating any Windows-file records which may be on display,
PL6.E3A0      #002=VDG$RESIZE_COMMAND_WINDOW File=VDG$UTILITY.:VDA5TSI           FRI 07/04/97 11:23 Page:28
      212       37                    but will effect the height change anyway.
      213       38                    (The test case for this logic is editing a consecutive file
      214       39                    via the IBEX command line:
      215       40                        !6EDIT consec_file
      216       41                    .)
      217       42                If expand requests removing the ediitng windows completely, just
      218       43                    temporarily set $SCREEN to 0, saving the previous value, so that
      219       44                    the next shrink will restore it to its proper value.
      220       45        */
      221       46
      222       47        VDG$RESIZE_COMMAND_WINDOW: PROC (HEIGHT) ALTRET;

     47  0 000000   000000 700200 xent  VDG$RESIZE_* TSX0  ! X66_AUTO_1
         0 000001   000026 000001                    ZERO    22,1

      223       48
      224       49
      225       50        %INCLUDE VD_MACROS_M;
      226     2265        %INCLUDE VD_PERR_C;
      227     2413
      228     2414
      229     2415    1   DCL HEIGHT SBIN;
      230     2416
      231     2417
      232     2418    1   DCL VDG$OALLOC          ENTRY (3) ALTRET;
      233     2419    1   DCL VDG$OFREE           ENTRY (1) ALTRET;
      234     2420    1   DCL VDA$LWRITE          ENTRY (4) ALTRET;
      235     2421    1   DCL VDP$WCHANGE         ENTRY (2) ALTRET;
      236     2422    1   DCL VDI$CSET_COUNT      ENTRY (2) ALTRET;
      237     2423
      238     2424
      239     2425    1   DCL VD_COMMAND_WINDOW$ PTR SYMREF;
      240     2426        %VD_6E (STCLASS=SYMREF);
      241     2462        %VD$NUMBER (NAME=VD_$SCREEN, STCLASS=SYMREF);
      242     2507        %VD$NUMBER (NAME=VD_$MAX_COMMAND, STCLASS=SYMREF);
      243     2552        %VD$NUMBER (NAME=VD_$COMMAND, STCLASS=SYMREF);
      244     2597    1   DCL VD_OLD_$SCREEN SYMREF SBIN;
PL6.E3A0      #002=VDG$RESIZE_COMMAND_WINDOW File=VDG$UTILITY.:VDA5TSI           FRI 07/04/97 11:23 Page:29
      245     2598        %VD$LOCATION (NAME=VD_LOC_$SCREEN, STCLASS=SYMREF);
      246     2626
      247     2627
      248     2628    1   DCL EXPAND BIT(1) ALIGNED;
      249     2629    1   DCL OLD_WSPEC$ PTR;
      250     2630        %VD$SPEC (NAME=SPEC, STCLASS=AUTO);
      251     2644        %VD$LOCATION (NAME=WINDOW_LOC, STCLASS=AUTO);
      252     2672    1   DCL NEW_TAIL$ PTR;
      253     2673
      254     2674
      255     2675
      256     2676        %VD$FILE_NODE (NAME=CWIN$NODE, STCLASS="BASED(VD_COMMAND_WINDOW$)");
      257     2769        %VD$WINDOW_SPEC (NAME=OLD$WSPEC, STCLASS="BASED(OLD_WSPEC$)");
      258     2835        %VD$WINDOW_SPEC (NAME=NEW$WSPEC, STCLASS="BASED(SPEC.V$)");
      259     2901        %VD$STREAM (NAME=WINDOWS$STREAM, STCLASS="BASED(VD_6E.WINDOWS$)");
      260     3007        %VD$ERR (NAME=ERR$HEAD, STCLASS="BASED(VD_6E.ERR_HEAD$)");
      261     3060        %VD$ERR (NAME=ERR$TAIL, STCLASS="BASED(VD_6E.ERR_TAIL$)");
      262     3113        %VD$ERR (NAME=NEW$TAIL, STCLASS="BASED(NEW_TAIL$)");
      263     3166
      264     3167
      265     3168
      266     3169    2           IF VD_COMMAND_WINDOW$ ~= ADDR(NIL) THEN DO;

   3169  0 000002   000000 236000 xsym               LDQ     VD_COMMAND_WINDOW$
         0 000003   000001 116000 xsym               CMPQ    B_VECTNIL+1
         0 000004   000023 600000 0                  TZE     s:3178

      267     3170    2              OLD_WSPEC$ = CWIN$NODE.DESC.SPEC.V$;

   3170  0 000005   000000 470400 xsym               LDP0    VD_COMMAND_WINDOW$
         0 000006   000007 236100                    LDQ     7,,PR0
         0 000007   200005 756100                    STQ     OLD_WSPEC$,,AUTO

      268     3171    2              IF OLD$WSPEC.COORDS.HEIGHT# = HEIGHT THEN

   3171  0 000010   200005 471500                    LDP1    OLD_WSPEC$,,AUTO
         0 000011   200003 473500                    LDP3    @HEIGHT,,AUTO
PL6.E3A0      #002=VDG$RESIZE_COMMAND_WINDOW File=VDG$UTILITY.:VDA5TSI           FRI 07/04/97 11:23 Page:30
         0 000012   100005 236100                    LDQ     5,,PR1
         0 000013   300000 116100                    CMPQ    0,,PR3
         0 000014   000016 601000 0                  TNZ     s:3173

      269     3172    2                 RETURN;

   3172  0 000015   000000 702200 xent               TSX2  ! X66_ARET

      270     3173    2              ELSE IF OLD$WSPEC.COORDS.HEIGHT# > HEIGHT THEN

   3173  0 000016   000021 604400 0                  TMOZ    s:3176

      271     3174    2                    EXPAND = %FALSE;

   3174  0 000017   200004 450100                    STZ     EXPAND,,AUTO
         0 000020   000023 710000 0                  TRA     s:3178

      272     3175    2                 ELSE
      273     3176    2                    EXPAND = %TRUE;

   3176  0 000021   400000 236003                    LDQ     -131072,DU
         0 000022   200004 756100                    STQ     EXPAND,,AUTO

      274     3177    2              END;

      275     3178    1           GOTO RESIZE_COMMAND_WINDOW;

   3178  0 000023   000034 710000 0                  TRA     RESIZE_COMMAND_WINDOW

      276     3179
      277     3180
      278     3181
      279     3182        /*D* NAME: VDG$EXPAND_COMMAND_WINDOW
      280     3183            PARAMETERS:
      281     3184                HEIGHT - Size command window is to be expanded to.
      282     3185            INPUT, OUTPUT:
      283     3186                Same as for main routine.
PL6.E3A0      #002=VDG$RESIZE_COMMAND_WINDOW File=VDG$UTILITY.:VDA5TSI           FRI 07/04/97 11:23 Page:31
      284     3187            DESCRIPTION:
      285     3188                If the command window isn't at least HEIGHT lines, expand it.
      286     3189        */
      287     3190
      288     3191    1   VDG$EXPAND_COMMAND_WINDOW: ENTRY (HEIGHT) ALTRET;

   3191  0 000024   000000 700200 xent  VDG$EXPAND_* TSX0  ! X66_AUTO_1
         0 000025   000026 000001                    ZERO    22,1

      289     3192
      290     3193    1           EXPAND = %TRUE;

   3193  0 000026   400000 236003                    LDQ     -131072,DU
         0 000027   200004 756100                    STQ     EXPAND,,AUTO

      291     3194    1           GOTO RESIZE_COMMAND_WINDOW;

   3194  0 000030   000034 710000 0                  TRA     RESIZE_COMMAND_WINDOW

      292     3195
      293     3196
      294     3197        /*D* NAME: VDG$SHRINK_COMMAND_WINDOW
      295     3198            PARAMETERS:
      296     3199                HEIGHT - Size command window is to be shrunk to.
      297     3200            INPUT, OUTPUT:
      298     3201                Same as for main routine.
      299     3202            DESCRIPTION:
      300     3203                If the command window isn't at most HEIGHT lines, shrink it.
      301     3204        */
      302     3205
      303     3206    1   VDG$SHRINK_COMMAND_WINDOW: ENTRY (HEIGHT) ALTRET;

   3206  0 000031   000000 700200 xent  VDG$SHRINK_* TSX0  ! X66_AUTO_1
         0 000032   000026 000001                    ZERO    22,1

      304     3207
      305     3208    1           EXPAND = %FALSE;
PL6.E3A0      #002=VDG$RESIZE_COMMAND_WINDOW File=VDG$UTILITY.:VDA5TSI           FRI 07/04/97 11:23 Page:32

   3208  0 000033   200004 450100                    STZ     EXPAND,,AUTO

      306     3209
      307     3210
      308     3211    1   RESIZE_COMMAND_WINDOW:
      309     3212    1           IF VD_$SCREEN.V# = 0 AND (VD_OLD_$SCREEN = 0 OR EXPAND)

   3212  0 000034   000003 235000 xsym  RESIZE_COMM* LDA     VD_$SCREEN+3
         0 000035   000042 601000 0                  TNZ     RESIZE_COMMAND_WINDOW+6
         0 000036   000000 236000 xsym               LDQ     VD_OLD_$SCREEN
         0 000037   000045 600000 0                  TZE     s:3214
         0 000040   200004 234100                    SZN     EXPAND,,AUTO
         0 000041   000045 604000 0                  TMI     s:3214
         0 000042   000000 236000 xsym               LDQ     VD_COMMAND_WINDOW$
         0 000043   000001 116000 xsym               CMPQ    B_VECTNIL+1
         0 000044   000046 601000 0                  TNZ     s:3216

      310     3213    1             OR VD_COMMAND_WINDOW$ = ADDR(NIL) THEN
      311     3214    1              RETURN;

   3214  0 000045   000000 702200 xent               TSX2  ! X66_ARET

      312     3215
      313     3216    2           IF VD_OLD_$SCREEN > 0 THEN DO;

   3216  0 000046   000000 235000 xsym               LDA     VD_OLD_$SCREEN
         0 000047   000057 604400 0                  TMOZ    s:3222

      314     3217    2              IF VD_$SCREEN.V# = 0 THEN

   3217  0 000050   000003 235000 xsym               LDA     VD_$SCREEN+3
         0 000051   000056 601000 0                  TNZ     s:3219

      315     3218    2                 CALL VDI$CSET_COUNT (VD_LOC_$SCREEN, VD_OLD_$SCREEN);

   3218  0 000052   000000 630400 1                  EPPR0   0
PL6.E3A0      #002=VDG$RESIZE_COMMAND_WINDOW File=VDG$UTILITY.:VDA5TSI           FRI 07/04/97 11:23 Page:33
         0 000053   000020 631400 xsym               EPPR1   B_VECTNIL+16
         0 000054   000000 701000 xent               TSX1    VDI$CSET_COUNT
         0 000055   000000 011000                    NOP     0

      316     3219    2              VD_OLD_$SCREEN = 0;

   3219  0 000056   000000 450000 xsym               STZ     VD_OLD_$SCREEN

      317     3220    2              END;

      318     3221
      319     3222    2           IF EXPAND AND HEIGHT = VD_$SCREEN.V# THEN DO;

   3222  0 000057   200004 234100                    SZN     EXPAND,,AUTO
         0 000060   000100 605000 0                  TPL     s:3230
         0 000061   200003 470500                    LDP0    @HEIGHT,,AUTO
         0 000062   000000 236100                    LDQ     0,,PR0
         0 000063   000003 116000 xsym               CMPQ    VD_$SCREEN+3
         0 000064   000100 601000 0                  TNZ     s:3230

      320     3223    2              VD_OLD_$SCREEN = VD_$SCREEN.V#;

   3223  0 000065   000003 235000 xsym               LDA     VD_$SCREEN+3
         0 000066   000000 755000 xsym               STA     VD_OLD_$SCREEN

      321     3224    2              CALL VDI$CSET_COUNT (VD_LOC_$SCREEN, 2);

   3224  0 000067   000002 630400 1                  EPPR0   2
         0 000070   000020 631400 xsym               EPPR1   B_VECTNIL+16
         0 000071   000000 701000 xent               TSX1    VDI$CSET_COUNT
         0 000072   000000 011000                    NOP     0

      322     3225    2              IF VD_$COMMAND.V# = 2 THEN

   3225  0 000073   000003 235000 xsym               LDA     VD_$COMMAND+3
         0 000074   000002 115007                    CMPA    2,DL
         0 000075   000077 601000 0                  TNZ     s:3227
PL6.E3A0      #002=VDG$RESIZE_COMMAND_WINDOW File=VDG$UTILITY.:VDA5TSI           FRI 07/04/97 11:23 Page:34

      323     3226    2                 VD_$COMMAND.V# = 0; /* Only force one read from command */

   3226  0 000076   000003 450000 xsym               STZ     VD_$COMMAND+3

      324     3227    2              RETURN;

   3227  0 000077   000000 702200 xent               TSX2  ! X66_ARET

      325     3228    2              END;
      326     3229
      327     3230    1           OLD_WSPEC$ = CWIN$NODE.DESC.SPEC.V$;

   3230  0 000100   000000 470400 xsym               LDP0    VD_COMMAND_WINDOW$
         0 000101   000007 236100                    LDQ     7,,PR0
         0 000102   200005 756100                    STQ     OLD_WSPEC$,,AUTO

      328     3231    2           IF EXPAND THEN DO;

   3231  0 000103   200004 234100                    SZN     EXPAND,,AUTO
         0 000104   000113 605000 0                  TPL     s:3236

      329     3232    2              IF OLD$WSPEC.COORDS.HEIGHT# >= HEIGHT THEN

   3232  0 000105   200005 471500                    LDP1    OLD_WSPEC$,,AUTO
         0 000106   200003 473500                    LDP3    @HEIGHT,,AUTO
         0 000107   100005 236100                    LDQ     5,,PR1
         0 000110   300000 116100                    CMPQ    0,,PR3
         0 000111   000121 604000 0                  TMI     s:3240

      330     3233    2                 RETURN;

   3233  0 000112   000000 702200 xent               TSX2  ! X66_ARET

      331     3234    2              END;
      332     3235    2           ELSE DO;

PL6.E3A0      #002=VDG$RESIZE_COMMAND_WINDOW File=VDG$UTILITY.:VDA5TSI           FRI 07/04/97 11:23 Page:35
      333     3236    2              IF OLD$WSPEC.COORDS.HEIGHT# <= HEIGHT THEN

   3236  0 000113   200005 471500                    LDP1    OLD_WSPEC$,,AUTO
         0 000114   200003 473500                    LDP3    @HEIGHT,,AUTO
         0 000115   100005 236100                    LDQ     5,,PR1
         0 000116   300000 116100                    CMPQ    0,,PR3
         0 000117   000121 605400 0                  TPNZ    s:3240

      334     3237    2                 RETURN;

   3237  0 000120   000000 702200 xent               TSX2  ! X66_ARET

      335     3238    2              END;
      336     3239
      337     3240    1           SPEC = %CLEAR;

   3240  0 000121   000000 235003                    LDA     0,DU
         0 000122   000000 236003                    LDQ     0,DU
         0 000123   200006 757100                    STAQ    SPEC,,AUTO

      338     3241    1           SPEC.TYPE# = %SPT_WINDOW_SPEC;

   3241  0 000124   000006 220003                    LDX0    6,DU
         0 000125   200006 740100                    STX0    SPEC,,AUTO

      339     3242    1           SPEC.REP# = %REP_REMOTE;

   3242  0 000126   000002 221003                    LDX1    2,DU
         0 000127   200006 441100                    SXL1    SPEC,,AUTO

      340     3243    1           CALL VDG$OALLOC (%CLS_WINDOW_SPEC, SPEC.V$)

   3243  0 000130   200007 634500                    EPPR4   SPEC+1,,AUTO
         0 000131   200023 454500                    STP4    NEW_TAIL$+2,,AUTO
         0 000132   000005 236000 1                  LDQ     5
         0 000133   200022 756100                    STQ     NEW_TAIL$+1,,AUTO
         0 000134   200022 630500                    EPPR0   NEW_TAIL$+1,,AUTO
PL6.E3A0      #002=VDG$RESIZE_COMMAND_WINDOW File=VDG$UTILITY.:VDA5TSI           FRI 07/04/97 11:23 Page:36
         0 000135   000020 631400 xsym               EPPR1   B_VECTNIL+16
         0 000136   000000 701000 xent               TSX1    VDG$OALLOC
         0 000137   000245 702000 0                  TSX2    OALLOC_FAILED

      341     3244    1             ALTRET (OALLOC_FAILED);
      342     3245    1           WINDOW_LOC = %CLEAR;

   3245  0 000140   000100 100400                    MLR     fill='000'O
         0 000141   000002 000001 xsym               ADSC9   B_VECTNIL+2              cn=0,n=1
         0 000142   200010 000044                    ADSC9   WINDOW_LOC,,AUTO         cn=0,n=36

      343     3246
      344     3247    1           NEW$WSPEC.COMMAND = %TRUE;

   3247  0 000143   200007 470500                    LDP0    SPEC+1,,AUTO
         0 000144   000400 236003                    LDQ     256,DU
         0 000145   000002 256100                    ORSQ    2,,PR0

      345     3248    1           NEW$WSPEC.COORDS.HEIGHT# = HEIGHT;

   3248  0 000146   200003 470500                    LDP0    @HEIGHT,,AUTO
         0 000147   200007 471500                    LDP1    SPEC+1,,AUTO
         0 000150   000000 235100                    LDA     0,,PR0
         0 000151   100005 755100                    STA     5,,PR1

      346     3249    1           WINDOW_LOC.KEY (%LVL_LOWER-1) = CWIN$NODE.DESC.KEY;

   3249  0 000152   000000 471400 xsym               LDP1    VD_COMMAND_WINDOW$
         0 000153   000100 100500                    MLR     fill='000'O
         0 000154   100004 000010                    ADSC9   4,,PR1                   cn=0,n=8
         0 000155   200010 000010                    ADSC9   WINDOW_LOC,,AUTO         cn=0,n=8

      347     3250
      348     3251    1           CALL VDA$LWRITE (WINDOWS$STREAM, WINDOW_LOC, SPEC)

   3251  0 000156   200006 633500                    EPPR3   SPEC,,AUTO
         0 000157   200024 453500                    STP3    NEW_TAIL$+3,,AUTO
PL6.E3A0      #002=VDG$RESIZE_COMMAND_WINDOW File=VDG$UTILITY.:VDA5TSI           FRI 07/04/97 11:23 Page:37
         0 000160   200010 634500                    EPPR4   WINDOW_LOC,,AUTO
         0 000161   200023 454500                    STP4    NEW_TAIL$+2,,AUTO
         0 000162   000006 236000 xsym               LDQ     VD_6E+6
         0 000163   200022 756100                    STQ     NEW_TAIL$+1,,AUTO
         0 000164   200022 630500                    EPPR0   NEW_TAIL$+1,,AUTO
         0 000165   000021 631400 xsym               EPPR1   B_VECTNIL+17
         0 000166   000000 701000 xent               TSX1    VDA$LWRITE
         0 000167   000171 702000 0                  TSX2    s:3253
         0 000170   000240 710000 0                  TRA     s:3276

      349     3252    2           WHENALTRETURN DO;

      350     3253    2              IF ERR$TAIL.ERR.CODE# ~= %E$PORT_BUSY THEN

   3253  0 000171   000032 470400 xsym               LDP0    VD_6E+26
         0 000172   000002 236100                    LDQ     2,,PR0
         0 000173   377770 376007                    ANQ     131064,DL
         0 000174   004200 116007                    CMPQ    2176,DL
         0 000175   000241 601000 0                  TNZ     LWRITE_FAILED

      351     3254    2                 GOTO LWRITE_FAILED;
      352     3255                   /*
      353     3256                   *   VDA$LWRITE failed only because it would have been
      354     3257                   *     a recursive operation to the Accessor.
      355     3258                   *   Get rid of the error and call the Presenter directly
      356     3259                   *     to change the window height.
      357     3260                   */
      358     3261    2              NEW_TAIL$ = ERR$HEAD.FLINK$;

   3261  0 000176   000031 471400 xsym               LDP1    VD_6E+25
         0 000177   100001 236100                    LDQ     1,,PR1
         0 000200   200021 756100                    STQ     NEW_TAIL$,,AUTO

      359     3262    3              DO WHILE NEW$TAIL.FLINK$ ~= ADDR(ERR$TAIL);

   3262  0 000201   000205 710000 0                  TRA     s:3264

PL6.E3A0      #002=VDG$RESIZE_COMMAND_WINDOW File=VDG$UTILITY.:VDA5TSI           FRI 07/04/97 11:23 Page:38
      360     3263    3                 NEW_TAIL$ = NEW$TAIL.FLINK$;

   3263  0 000202   200021 470500                    LDP0    NEW_TAIL$,,AUTO
         0 000203   000001 236100                    LDQ     1,,PR0
         0 000204   200021 756100                    STQ     NEW_TAIL$,,AUTO

      361     3264    3                 END;

   3264  0 000205   200021 470500                    LDP0    NEW_TAIL$,,AUTO
         0 000206   000001 236100                    LDQ     1,,PR0
         0 000207   000032 116000 xsym               CMPQ    VD_6E+26
         0 000210   000202 601000 0                  TNZ     s:3263

      362     3265    2              CALL VDG$OFREE (ERR$TAIL)

   3265  0 000211   000032 630400 xsym               EPPR0   VD_6E+26
         0 000212   000017 631400 xsym               EPPR1   B_VECTNIL+15
         0 000213   000000 701000 xent               TSX1    VDG$OFREE
         0 000214   000245 702000 0                  TSX2    OALLOC_FAILED

      363     3266    2                ALTRET (OFREE_FAILED);
      364     3267    2              VD_6E.ERR_TAIL$ = NEW_TAIL$;

   3267  0 000215   200021 236100                    LDQ     NEW_TAIL$,,AUTO
         0 000216   000032 756000 xsym               STQ     VD_6E+26

      365     3268    2              NEW$TAIL.FLINK$ = ADDR(NIL);

   3268  0 000217   000001 236000 xsym               LDQ     B_VECTNIL+1
         0 000220   200021 470500                    LDP0    NEW_TAIL$,,AUTO
         0 000221   000001 756100                    STQ     1,,PR0

      366     3269    2              CALL VDP$WCHANGE (CWIN$NODE, NEW$WSPEC)

   3269  0 000222   200007 236100                    LDQ     SPEC+1,,AUTO
         0 000223   000000 235000 xsym               LDA     VD_COMMAND_WINDOW$
         0 000224   200022 757100                    STAQ    NEW_TAIL$+1,,AUTO
PL6.E3A0      #002=VDG$RESIZE_COMMAND_WINDOW File=VDG$UTILITY.:VDA5TSI           FRI 07/04/97 11:23 Page:39
         0 000225   200022 630500                    EPPR0   NEW_TAIL$+1,,AUTO
         0 000226   000020 631400 xsym               EPPR1   B_VECTNIL+16
         0 000227   000000 701000 xent               TSX1    VDP$WCHANGE
         0 000230   000241 702000 0                  TSX2    LWRITE_FAILED

      367     3270    2                ALTRET (WCHANGE_FAILED);
      368     3271    2              CALL VDG$OFREE (NEW$WSPEC)

   3271  0 000231   200007 630500                    EPPR0   SPEC+1,,AUTO
         0 000232   000017 631400 xsym               EPPR1   B_VECTNIL+15
         0 000233   000000 701000 xent               TSX1    VDG$OFREE
         0 000234   000245 702000 0                  TSX2    OALLOC_FAILED

      369     3272    2                ALTRET (OFREE_FAILED);
      370     3273    2              SPEC = %CLEAR;

   3273  0 000235   000000 235003                    LDA     0,DU
         0 000236   000000 236003                    LDQ     0,DU
         0 000237   200006 757100                    STAQ    SPEC,,AUTO

      371     3274    2              END;

      372     3275
      373     3276    1           RETURN;

   3276  0 000240   000000 702200 xent               TSX2  ! X66_ARET

   3273  0 000241                       LWRITE_FAIL* null
   3273  0 000241                       WCHANGE_FAI* null
      374     3277
      375     3278
      376     3279
      377     3280    1   LWRITE_FAILED: ;
      378     3281    1   WCHANGE_FAILED: ;
      379     3282    1           CALL VDG$OFREE (NEW$WSPEC)

   3282  0 000241   200007 630500                    EPPR0   SPEC+1,,AUTO
PL6.E3A0      #002=VDG$RESIZE_COMMAND_WINDOW File=VDG$UTILITY.:VDA5TSI           FRI 07/04/97 11:23 Page:40
         0 000242   000017 631400 xsym               EPPR1   B_VECTNIL+15
         0 000243   000000 701000 xent               TSX1    VDG$OFREE
         0 000244   000245 702000 0                  TSX2    OALLOC_FAILED

   3273  0 000245                       OALLOC_FAIL* null
   3273  0 000245                       OFREE_FAILED null
      380     3283    1             ALTRET (OFREE_FAILED);
      381     3284
      382     3285
      383     3286    1   OALLOC_FAILED: ;
      384     3287    1   OFREE_FAILED: ;
      385     3288    1           ALTRETURN;

   3288  0 000245   000000 702200 xent               TSX2  ! X66_AALT
      386     3289
      387     3290    1   END VDG$RESIZE_COMMAND_WINDOW;
      388     3291        %EOD;

PL6.E3A0      #002=VDG$RESIZE_COMMAND_WINDOW File=VDG$UTILITY.:VDA5TSI           FRI 07/04/97 11:23 Page:41
--  Include file information  --

   VD_PERR_C.:VDA5TOU  is referenced.
   VD_MACROS_M.:VDA5TOU  is referenced.
   B$JIT_C.:E04TOU  was found in the system file and is never referenced.
   CP_6_C.:E04TOU  was found in the system file and is never referenced.
      No diagnostics issued in procedure VDG$RESIZE_COMMAND_WINDOW.
PL6.E3A0      #002=VDG$RESIZE_COMMAND_WINDOW File=VDG$UTILITY.:VDA5TSI           FRI 07/04/97 11:23 Page:42

 **** Variables and constants ****

  ****  Auto variables  ****

  ****  Scalars and arrays  ****
OctLoc.c.b A Datatyp(siz) R M Lvl/name                 OctLoc.c.b A Datatyp(siz) R M Lvl/name

     3-0-0/w PTR         r     1 @HEIGHT                    4-0-0/w BIT         r     1 EXPAND
    *0-0-0/w SBIN        r     1 HEIGHT                    21-0-0/w PTR         r     1 NEW_TAIL$
     5-0-0/w PTR         r     1 OLD_WSPEC$                 6-0-0/w STRC(72)    r     1 SPEC
    10-0-0/w STRC(324)   r     1 WINDOW_LOC

  ****  SYMREF variables  ****

  ****  Scalars and arrays  ****
OctLoc.c.b A Datatyp(siz) R M Lvl/name                 OctLoc.c.b A Datatyp(siz) R M Lvl/name

     0-0-0/w STRC(144)   r     1 VD_$COMMAND                0-0-0/w STRC(144)   r     1 VD_$SCREEN
     0-0-0/w STRC(22644) r     1 VD_6E                      0-0-0/w PTR         r     1 VD_COMMAND_WINDOW$
     0-0-0/w STRC(324)   r     1 VD_LOC_$SCREEN             0-0-0/w SBIN        r     1 VD_OLD_$SCREEN

  ****  BASED and DCB variables  ****

  ****  Scalars and arrays  ****
OctLoc.c.b A Datatyp(siz) R M Lvl/name                 OctLoc.c.b A Datatyp(siz) R M Lvl/name

     0-0-0/w STRC(468)   r     1 CWIN$NODE                  0-0-0/w STRC(180)   r     1 ERR$HEAD
     0-0-0/w STRC(180)   r     1 ERR$TAIL                   0-0-0/w STRC(180)   r     1 NEW$TAIL
     0-0-0/w STRC(900)   r     1 NEW$WSPEC                  0-0-0/w STRC(900)   r     1 OLD$WSPEC
     0-0-0/w STRC(864)   r     1 WINDOWS$STREAM


   Procedure VDG$RESIZE_COMMAND_WINDOW requires 166 words for executable code.
   Procedure VDG$RESIZE_COMMAND_WINDOW requires 22 words of local(AUTO) storage.
PL6.E3A0      #002=VDG$RESIZE_COMMAND_WINDOW File=VDG$UTILITY.:VDA5TSI           FRI 07/04/97 11:23 Page:43
          *** CROSS REFERENCE LISTING ***
**     DENOTES     IDENTIFIER DEFINITION
<<                 IDENTIFIER'S VALUE SET
>>                 IDENTIFIER'S VALUE USED
<>                 IDENTIFIER SET AND/OR USED
--                 IDENTIFIER REFERENCED
PL6.E3A0      #002=VDG$RESIZE_COMMAND_WINDOW File=VDG$UTILITY.:VDA5TSI           FRI 07/04/97 11:23 Page:44
          MINI XREF LISTING

CWIN$NODE
      2684**DCL      3269<>CALL
CWIN$NODE.DESC.KEY
      2747**DCL      3249>>ASSIGN
CWIN$NODE.DESC.SPEC.V$
      2763**DCL      3170>>ASSIGN   3230>>ASSIGN
ERR$HEAD.FLINK$
      3041**DCL      3261>>ASSIGN
ERR$TAIL
      3068**DCL      3262--DOWHILE  3265<>CALL
ERR$TAIL.ERR.CODE#
      3107**DCL      3253>>IF
EXPAND
      2628**DCL      3174<<ASSIGN   3176<<ASSIGN   3193<<ASSIGN   3208<<ASSIGN   3212>>IF       3222>>IF
      3231>>IF
HEIGHT
      2415**DCL        47--PROC     3171>>IF       3173>>IF       3191--ENTRY    3206--ENTRY    3222>>IF
      3232>>IF       3236>>IF       3248>>ASSIGN
LWRITE_FAILED
      3273**LABEL    3254--GOTO
NEW$TAIL.FLINK$
      3147**DCL      3262>>DOWHILE  3263>>ASSIGN   3268<<ASSIGN
NEW$WSPEC
      2843**DCL      3269<>CALL     3271<>CALL     3282<>CALL
NEW$WSPEC.COMMAND
      2869**DCL      3247<<ASSIGN
NEW$WSPEC.COORDS.HEIGHT#
      2870**DCL      3248<<ASSIGN
NEW_TAIL$
      2672**DCL      3121--IMP-PTR  3261<<ASSIGN   3262>>DOWHILE  3263<<ASSIGN   3263>>ASSIGN   3267>>ASSIGN
      3268>>ASSIGN
OALLOC_FAILED
PL6.E3A0      #002=VDG$RESIZE_COMMAND_WINDOW File=VDG$UTILITY.:VDA5TSI           FRI 07/04/97 11:23 Page:45
      3273**LABEL    3243--CALLALT
OFREE_FAILED
      3273**LABEL    3265--CALLALT  3271--CALLALT  3282--CALLALT
OLD$WSPEC.COORDS.HEIGHT#
      2804**DCL      3171>>IF       3173>>IF       3232>>IF       3236>>IF
OLD_WSPEC$
      2629**DCL      2777--IMP-PTR  3170<<ASSIGN   3171>>IF       3173>>IF       3230<<ASSIGN   3232>>IF
      3236>>IF
RESIZE_COMMAND_WINDOW
      3212**LABEL    3178--GOTO     3194--GOTO
SPEC
      2638**DCL      3240<<ASSIGN   3251<>CALL     3273<<ASSIGN
SPEC.REP#
      2642**DCL      3242<<ASSIGN
SPEC.TYPE#
      2642**DCL      3241<<ASSIGN
SPEC.V$
      2642**DCL      2843--IMP-PTR  3243<>CALL     3247>>ASSIGN   3248>>ASSIGN   3269>>CALL     3271>>CALL
      3282>>CALL
VDA$LWRITE
      2420**DCL-ENT  3251--CALL
VDG$OALLOC
      2418**DCL-ENT  3243--CALL
VDG$OFREE
      2419**DCL-ENT  3265--CALL     3271--CALL     3282--CALL
VDI$CSET_COUNT
      2422**DCL-ENT  3218--CALL     3224--CALL
VDP$WCHANGE
      2421**DCL-ENT  3269--CALL
VD_$COMMAND.V#
      2594**DCL      3225>>IF       3226<<ASSIGN
VD_$SCREEN.V#
      2504**DCL      3212>>IF       3217>>IF       3222>>IF       3223>>ASSIGN
VD_6E.ERR_HEAD$
      2458**DCL      3015--IMP-PTR  3261>>ASSIGN
VD_6E.ERR_TAIL$
PL6.E3A0      #002=VDG$RESIZE_COMMAND_WINDOW File=VDG$UTILITY.:VDA5TSI           FRI 07/04/97 11:23 Page:46
      2458**DCL      3068--IMP-PTR  3253>>IF       3262>>DOWHILE  3265>>CALL     3267<<ASSIGN
VD_6E.WINDOWS$
      2440**DCL      2909--IMP-PTR  3251>>CALL
VD_COMMAND_WINDOW$
      2425**DCL      2684--IMP-PTR  3169>>IF       3170>>ASSIGN   3212>>IF       3230>>ASSIGN   3249>>ASSIGN
      3269>>CALL
VD_LOC_$SCREEN
      2606**DCL      3218<>CALL     3224<>CALL
VD_OLD_$SCREEN
      2597**DCL      3212>>IF       3216>>IF       3218<>CALL     3219<<ASSIGN   3223<<ASSIGN
WCHANGE_FAILED
      3273**LABEL    3269--CALLALT
WINDOWS$STREAM
      2909**DCL      3251<>CALL
WINDOW_LOC
      2652**DCL      3245<<ASSIGN   3251<>CALL
WINDOW_LOC.KEY
      2666**DCL      3249<<ASSIGN

PL6.E3A0      #003=VDG$ERASE_COMMAND_WINDOW File=VDG$UTILITY.:VDA5TSI            FRI 07/04/97 11:23 Page:47
      389        1        /*T***********************************************************/
      390        2        /*T*                                                         */
      391        3        /*T* Copyright (c) Bull HN Information Systems Inc., 1997    */
      392        4        /*T*                                                         */
      393        5        /*T***********************************************************/
      394        6
      395        7        /*D* NAME: VDG$ERASE_COMMAND_WINDOW
      396        8            PARAMETERS:
      397        9                None.
      398       10            INPUT:
      399       11                VD_COMMAND_WINDOW$ must point to a VD$FILE_NODE for the command
      400       12                    window.  This file node must have a VD$WINDOW_SPEC attached,
      401       13                    whose .DCB# refers to the DCB open to the command window.
      402       14                    If the DCB is open in 2Dim form, the DCB's UOPT0 bit must be set.
      403       15            OUTPUT:
      404       16                If the command window is open in 2Dim form, it will be erased.
      405       17            DESCRIPTION:
      406       18                If the command window is open in 2Dim form, erase it:
      407       19                M$DEVICE CLEAR=YES to clear the window.
      408       20                If the window is a scrolling one:
      409       21                    M$DEVICE PAGE=YES to home the cursor.
      410       22        */
      411       23
      412       24        VDG$ERASE_COMMAND_WINDOW: PROC ALTRET;
      413       25
      414       26        %INCLUDE VD_MACROS_M;
      415     2241        %INCLUDE CP_6;
      416     2322        %INCLUDE CP_6_SUBS;
      417     2862
      418     2863
      419     2864    1   DCL VDG$OALLOC          ENTRY (3) ALTRET;
      420     2865
      421     2866
      422     2867    1   DCL VD_COMMAND_WINDOW$ PTR SYMREF;
      423     2868    1   DCL B$TCB$ PTR SYMREF;
      424     2869
      425     2870
PL6.E3A0      #003=VDG$ERASE_COMMAND_WINDOW File=VDG$UTILITY.:VDA5TSI            FRI 07/04/97 11:23 Page:48
      426     2871    1   DCL VD_SCREEN_HEIGHT SBIN SYMREF;
      427     2872        %FPT_DEVICE (CLEAR=YES);
      428     2890
      429     2891
      430     2892
      431     2893    1   DCL CWIN_SPEC$ PTR;
      432     2894        %VD$NUMBER (NAME = VD_$SCROLL, STCLASS = SYMREF);
      433     2939    1   DCL VD_ERR$ PTR;
      434     2940
      435     2941
      436     2942        %VD$WINDOW_SPEC (NAME=CWIN$SPEC, STCLASS="BASED(CWIN_SPEC$)");
      437     3008        %VD$ERR (NAME=VD$ERR, STCLASS="BASED(VD_ERR$)");
      438     3061        %VD$FILE_NODE;
      439     3154        %B$TCB (STCLASS="BASED(B$TCB$)");
      440     3157        %B$ALT;
      441     3165
      442     3166
      443     3167
      444     3168    2           IF VD_COMMAND_WINDOW$ ~= ADDR(NIL) THEN DO;
      445     3169    2              CWIN_SPEC$ = VD_COMMAND_WINDOW$->VD$FILE_NODE.DESC.SPEC.V$;
      446     3170    2              IF VD_SCREEN_HEIGHT = 0 THEN
      447     3171    2                 RETURN;   /* Command window is in 1Dim form */
      448     3172
      449     3173    2              FPT_DEVICE.V.DCB# = CWIN$SPEC.DCB#;
      450     3174    2              END;
      451     3175    1           ELSE FPT_DEVICE.V.DCB# = DCBNUM(M$UC);
      452     3176
      453     3177    1           CALL M$DEVICE (FPT_DEVICE)
      454     3178    1             ALTRET (MDEVICE_FAILED);
      455     3179    2           IF VD_$SCROLL.V#>0 THEN DO;
      456     3180    2              FPT_DEVICE.V.PAGE# = %YES#;
      457     3181    2              CALL M$DEVICE (FPT_DEVICE)
      458     3182    2                ALTRET (MDEVICE_FAILED);
      459     3183    2              FPT_DEVICE.V.PAGE# = %NO#;
      460     3184    2              END;
      461     3185
      462     3186    1           RETURN;
PL6.E3A0      #003=VDG$ERASE_COMMAND_WINDOW File=VDG$UTILITY.:VDA5TSI            FRI 07/04/97 11:23 Page:49
      463     3187
      464     3188
      465     3189
      466     3190    1   VDG$MONERR: ENTRY ALTRET;
      467     3191    1   MDEVICE_FAILED: ;
      468     3192    1           CALL VDG$OALLOC (%CLS_ERR, VD_ERR$)
      469     3193    2           WHENALTRETURN DO; ALTRETURN; END;
      470     3194    1           VD$ERR.ERR = B$TCB.ALT$->B$ALT.ERR;
      471     3195    1           VD$ERR.FLAGLEV# = %FLV_SERIOUS;
      472     3196    1           VD$ERR.DCB# = B$TCB.ALT$->B$ALT.DCB#;
      473     3197    1           ALTRETURN;
      474     3198
      475     3199    1   END VDG$ERASE_COMMAND_WINDOW;
      476     3200        %EOD;

PL6.E3A0      #003=VDG$ERASE_COMMAND_WINDOW File=VDG$UTILITY.:VDA5TSI            FRI 07/04/97 11:23 Page:50
--  Include file information  --

   CP_6_SUBS.:LIBRARY  is referenced.
   CP_6.:LIBRARY  cannot be made into a system file and is referenced.
   VD_MACROS_M.:VDA5TOU  is referenced.
   B$JIT_C.:E04TOU  was found in the system file and is never referenced.
   CP_6_C.:E04TOU  was found in the system file and is referenced.
      No diagnostics issued in procedure VDG$ERASE_COMMAND_WINDOW.

   Procedure VDG$ERASE_COMMAND_WINDOW requires 58 words for executable code.
   Procedure VDG$ERASE_COMMAND_WINDOW requires 8 words of local(AUTO) storage.

PL6.E3A0      #003=VDG$ERASE_COMMAND_WINDOW File=VDG$UTILITY.:VDA5TSI            FRI 07/04/97 11:23 Page:51

 Object Unit name= VDG$ERASE_COMMAND_WINDOW                   File name= VDG$UTILITY.:VDA5TOU
 UTS= JUL 04 '97 11:23:17.68 FRI                              Compiler= PL-6/E31         Sev=      00
 SharedLib= :SHARED_SYSTEM                                    Alt SharedLib=


    ****  Control sections  ****

 Sect   Type Bound  Init  Size OctSiz  Section name(segment info)
    0   DCB   even  none     0      0  M$UC
    1   Data  even  none    10     12  VDG$ERASE_COMMAND_WINDOW
    2   Proc  even  none    58     72  VDG$ERASE_COMMAND_WINDOW
    3  RoData even  none     2      2  VDG$ERASE_COMMAND_WINDOW

    ****  Entry defs  ****

                              Check   Calling
                             calling  sequence
  Sect OctLoc Primary Altret sequence   type   Parms  Name
     2      0   yes    yes     yes      Std        0  VDG$ERASE_COMMAND_WINDOW
     2     41          yes     yes      Std        0  VDG$MONERR

  ****  Entry refs  ****

         Check        Calling
        calling       sequence
Altret sequence SRef   type   Args  Name
 yes     yes           Std       3 VDG$OALLOC
                       nStd      0 X66_AUTO_0
                       Std       0 B_CONSPOOL_D
                       nStd      0 X66_ARET
                       nStd      0 X66_AALT
PL6.E3A0      #003=VDG$ERASE_COMMAND_WINDOW File=VDG$UTILITY.:VDA5TSI            FRI 07/04/97 11:23 Page:52

  ****  Data refs  ****

  Flags:  r = read only, s = secondary
Flgs Name                             Flgs Name                             Flgs Name
     M$UC                                  VD_COMMAND_WINDOW$                    B$TCB$
     VD_SCREEN_HEIGHT                      VD_$SCROLL                            B_VECTNIL

  ****  Segment refs  ****

  Flags:  r = read only, s = secondary
Flgs Name                             Flgs Name                             Flgs Name
     ISSID                                 NULLSID
PL6.E3A0      #003=VDG$ERASE_COMMAND_WINDOW File=VDG$UTILITY.:VDA5TSI            FRI 07/04/97 11:23 Page:53


      389        1        /*T***********************************************************/
      390        2        /*T*                                                         */
      391        3        /*T* Copyright (c) Bull HN Information Systems Inc., 1997    */
      392        4        /*T*                                                         */
      393        5        /*T***********************************************************/
      394        6
      395        7        /*D* NAME: VDG$ERASE_COMMAND_WINDOW
      396        8            PARAMETERS:
      397        9                None.
      398       10            INPUT:
      399       11                VD_COMMAND_WINDOW$ must point to a VD$FILE_NODE for the command
      400       12                    window.  This file node must have a VD$WINDOW_SPEC attached,
      401       13                    whose .DCB# refers to the DCB open to the command window.
      402       14                    If the DCB is open in 2Dim form, the DCB's UOPT0 bit must be set.
      403       15            OUTPUT:
      404       16                If the command window is open in 2Dim form, it will be erased.
      405       17            DESCRIPTION:
      406       18                If the command window is open in 2Dim form, erase it:
      407       19                M$DEVICE CLEAR=YES to clear the window.
      408       20                If the window is a scrolling one:
      409       21                    M$DEVICE PAGE=YES to home the cursor.
      410       22        */
      411       23
      412       24        VDG$ERASE_COMMAND_WINDOW: PROC ALTRET;

     24  2 000000   000000 700200 xent  VDG$ERASE_C* TSX0  ! X66_AUTO_0
         2 000001   000010 000000                    ZERO    8,0

      413       25
      414       26        %INCLUDE VD_MACROS_M;
      415     2241        %INCLUDE CP_6;
      416     2322        %INCLUDE CP_6_SUBS;
      417     2862
      418     2863
      419     2864    1   DCL VDG$OALLOC          ENTRY (3) ALTRET;
      420     2865
PL6.E3A0      #003=VDG$ERASE_COMMAND_WINDOW File=VDG$UTILITY.:VDA5TSI            FRI 07/04/97 11:23 Page:54
      421     2866
      422     2867    1   DCL VD_COMMAND_WINDOW$ PTR SYMREF;
      423     2868    1   DCL B$TCB$ PTR SYMREF;
      424     2869
      425     2870
      426     2871    1   DCL VD_SCREEN_HEIGHT SBIN SYMREF;
      427     2872        %FPT_DEVICE (CLEAR=YES);
      428     2890
      429     2891
      430     2892
      431     2893    1   DCL CWIN_SPEC$ PTR;
      432     2894        %VD$NUMBER (NAME = VD_$SCROLL, STCLASS = SYMREF);
      433     2939    1   DCL VD_ERR$ PTR;
      434     2940
      435     2941
      436     2942        %VD$WINDOW_SPEC (NAME=CWIN$SPEC, STCLASS="BASED(CWIN_SPEC$)");
      437     3008        %VD$ERR (NAME=VD$ERR, STCLASS="BASED(VD_ERR$)");
      438     3061        %VD$FILE_NODE;
      439     3154        %B$TCB (STCLASS="BASED(B$TCB$)");
      440     3157        %B$ALT;
      441     3165
      442     3166
      443     3167
      444     3168    2           IF VD_COMMAND_WINDOW$ ~= ADDR(NIL) THEN DO;

   3168  2 000002   000000 236000 xsym               LDQ     VD_COMMAND_WINDOW$
         2 000003   000001 116000 xsym               CMPQ    B_VECTNIL+1
         2 000004   000017 600000 2                  TZE     s:3175

      445     3169    2              CWIN_SPEC$ = VD_COMMAND_WINDOW$->VD$FILE_NODE.DESC.SPEC.V$;

   3169  2 000005   000000 470400 xsym               LDP0    VD_COMMAND_WINDOW$
         2 000006   000007 236100                    LDQ     7,,PR0
         2 000007   200003 756100                    STQ     CWIN_SPEC$,,AUTO

      446     3170    2              IF VD_SCREEN_HEIGHT = 0 THEN

PL6.E3A0      #003=VDG$ERASE_COMMAND_WINDOW File=VDG$UTILITY.:VDA5TSI            FRI 07/04/97 11:23 Page:55
   3170  2 000010   000000 235000 xsym               LDA     VD_SCREEN_HEIGHT
         2 000011   000013 601000 2                  TNZ     s:3173

      447     3171    2                 RETURN;   /* Command window is in 1Dim form */

   3171  2 000012   000000 702200 xent               TSX2  ! X66_ARET

      448     3172
      449     3173    2              FPT_DEVICE.V.DCB# = CWIN$SPEC.DCB#;

   3173  2 000013   200003 471500                    LDP1    CWIN_SPEC$,,AUTO
         2 000014   100014 720100                    LXL0    12,,PR1
         2 000015   000006 740000 1                  STX0    FPT_DEVICE+6

      450     3174    2              END;

   3174  2 000016   000022 710000 2                  TRA     s:3177

      451     3175    1           ELSE FPT_DEVICE.V.DCB# = DCBNUM(M$UC);

   3175  2 000017   000000 236007 xsym               LDQ     M$UC,DL
         2 000020   000000 620006                    EAX0    0,QL
         2 000021   000006 740000 1                  STX0    FPT_DEVICE+6

      452     3176
      453     3177    1           CALL M$DEVICE (FPT_DEVICE)

   3177  2 000022   000000 630400 1                  EPPR0   FPT_DEVICE
         2 000023   450006 713400                    CLIMB   alt,+20486
         2 000024   401000 401760                    pmme    nvectors=3
         2 000025   000043 702000 2                  TSX2    MDEVICE_FAILED

      454     3178    1             ALTRET (MDEVICE_FAILED);
      455     3179    2           IF VD_$SCROLL.V#>0 THEN DO;

   3179  2 000026   000003 235000 xsym               LDA     VD_$SCROLL+3
         2 000027   000040 604400 2                  TMOZ    s:3186
PL6.E3A0      #003=VDG$ERASE_COMMAND_WINDOW File=VDG$UTILITY.:VDA5TSI            FRI 07/04/97 11:23 Page:56

      456     3180    2              FPT_DEVICE.V.PAGE# = %YES#;

   3180  2 000030   100000 236007                    LDQ     32768,DL
         2 000031   000006 256000 1                  ORSQ    FPT_DEVICE+6

      457     3181    2              CALL M$DEVICE (FPT_DEVICE)

   3181  2 000032   000000 630400 1                  EPPR0   FPT_DEVICE
         2 000033   450006 713400                    CLIMB   alt,+20486
         2 000034   401000 401760                    pmme    nvectors=3
         2 000035   000043 702000 2                  TSX2    MDEVICE_FAILED

      458     3182    2                ALTRET (MDEVICE_FAILED);
      459     3183    2              FPT_DEVICE.V.PAGE# = %NO#;

   3183  2 000036   000000 236000 3                  LDQ     0
         2 000037   000006 356000 1                  ANSQ    FPT_DEVICE+6

      460     3184    2              END;

      461     3185
      462     3186    1           RETURN;

   3186  2 000040   000000 702200 xent               TSX2  ! X66_ARET

      463     3187
      464     3188
      465     3189
      466     3190    1   VDG$MONERR: ENTRY ALTRET;

   3190  2 000041   000000 700200 xent  VDG$MONERR   TSX0  ! X66_AUTO_0
         2 000042   000010 000000                    ZERO    8,0

   3179  2 000043                       MDEVICE_FAI* null
      467     3191    1   MDEVICE_FAILED: ;
      468     3192    1           CALL VDG$OALLOC (%CLS_ERR, VD_ERR$)
PL6.E3A0      #003=VDG$ERASE_COMMAND_WINDOW File=VDG$UTILITY.:VDA5TSI            FRI 07/04/97 11:23 Page:57

   3192  2 000043   200004 630500                    EPPR0   VD_ERR$,,AUTO
         2 000044   200007 450500                    STP0    VD_ERR$+3,,AUTO
         2 000045   000001 236000 3                  LDQ     1
         2 000046   200006 756100                    STQ     VD_ERR$+2,,AUTO
         2 000047   200006 630500                    EPPR0   VD_ERR$+2,,AUTO
         2 000050   000020 631400 xsym               EPPR1   B_VECTNIL+16
         2 000051   000000 701000 xent               TSX1    VDG$OALLOC
         2 000052   000054 702000 2                  TSX2    s:3193
         2 000053   000055 710000 2                  TRA     s:3194

      469     3193    2           WHENALTRETURN DO; ALTRETURN; END;

   3193  2 000054   000000 702200 xent               TSX2  ! X66_AALT

      470     3194    1           VD$ERR.ERR = B$TCB.ALT$->B$ALT.ERR;

   3194  2 000055   000000 470400 xsym               LDP0    B$TCB$
         2 000056   000000 471500                    LDP1    0,,PR0
         2 000057   100102 236100                    LDQ     66,,PR1
         2 000060   200004 473500                    LDP3    VD_ERR$,,AUTO
         2 000061   300002 756100                    STQ     2,,PR3

      471     3195    1           VD$ERR.FLAGLEV# = %FLV_SERIOUS;

   3195  2 000062   000003 220003                    LDX0    3,DU
         2 000063   200004 471500                    LDP1    VD_ERR$,,AUTO
         2 000064   100003 740100                    STX0    3,,PR1

      472     3196    1           VD$ERR.DCB# = B$TCB.ALT$->B$ALT.DCB#;

   3196  2 000065   000000 471500                    LDP1    0,,PR0
         2 000066   100101 721100                    LXL1    65,,PR1
         2 000067   200004 473500                    LDP3    VD_ERR$,,AUTO
         2 000070   300004 741100                    STX1    4,,PR3

      473     3197    1           ALTRETURN;
PL6.E3A0      #003=VDG$ERASE_COMMAND_WINDOW File=VDG$UTILITY.:VDA5TSI            FRI 07/04/97 11:23 Page:58

   3197  2 000071   000000 702200 xent               TSX2  ! X66_AALT
      474     3198
      475     3199    1   END VDG$ERASE_COMMAND_WINDOW;
      476     3200        %EOD;

PL6.E3A0      #003=VDG$ERASE_COMMAND_WINDOW File=VDG$UTILITY.:VDA5TSI            FRI 07/04/97 11:23 Page:59
--  Include file information  --

   CP_6_SUBS.:LIBRARY  is referenced.
   CP_6.:LIBRARY  cannot be made into a system file and is referenced.
   VD_MACROS_M.:VDA5TOU  is referenced.
   B$JIT_C.:E04TOU  was found in the system file and is never referenced.
   CP_6_C.:E04TOU  was found in the system file and is referenced.
      No diagnostics issued in procedure VDG$ERASE_COMMAND_WINDOW.
PL6.E3A0      #003=VDG$ERASE_COMMAND_WINDOW File=VDG$UTILITY.:VDA5TSI            FRI 07/04/97 11:23 Page:60

 **** Variables and constants ****

  ****  Section 001  Data  VDG$ERASE_COMMAND_WINDOW

  ****  Scalars and arrays  ****
OctLoc.c.b A Datatyp(siz) R M Lvl/name                 OctLoc.c.b A Datatyp(siz) R M Lvl/name

     0-0-0/d STRC(360)   r     1 FPT_DEVICE

  ****  Auto variables  ****

  ****  Scalars and arrays  ****
OctLoc.c.b A Datatyp(siz) R M Lvl/name                 OctLoc.c.b A Datatyp(siz) R M Lvl/name

     3-0-0/w PTR         r     1 CWIN_SPEC$                 4-0-0/w PTR         r     1 VD_ERR$

  ****  SYMREF variables  ****

  ****  Scalars and arrays  ****
OctLoc.c.b A Datatyp(siz) R M Lvl/name                 OctLoc.c.b A Datatyp(siz) R M Lvl/name

     0-0-0/w PTR         r     1 B$TCB$                     0-0-0/w STRC(144)   r     1 VD_$SCROLL
     0-0-0/w PTR         r     1 VD_COMMAND_WINDOW$         0-0-0/w SBIN        r     1 VD_SCREEN_HEIGHT

  ****  BASED and DCB variables  ****

  ****  Scalars and arrays  ****
OctLoc.c.b A Datatyp(siz) R M Lvl/name                 OctLoc.c.b A Datatyp(siz) R M Lvl/name

     0-0-0/w STRC(2448)  r     1 B$ALT                      0-0-0/w STRC(144)   r     1 B$TCB
     0-0-0/w STRC(900)   r     1 CWIN$SPEC                  0-0-0N  NULL        r     1 M$UC
     0-0-0/w STRC(180)   r     1 VD$ERR                     0-0-0/w STRC(468)   r     1 VD$FILE_NODE


   Procedure VDG$ERASE_COMMAND_WINDOW requires 58 words for executable code.
   Procedure VDG$ERASE_COMMAND_WINDOW requires 8 words of local(AUTO) storage.
PL6.E3A0      #003=VDG$ERASE_COMMAND_WINDOW File=VDG$UTILITY.:VDA5TSI            FRI 07/04/97 11:23 Page:61
          *** CROSS REFERENCE LISTING ***
**     DENOTES     IDENTIFIER DEFINITION
<<                 IDENTIFIER'S VALUE SET
>>                 IDENTIFIER'S VALUE USED
<>                 IDENTIFIER SET AND/OR USED
--                 IDENTIFIER REFERENCED
PL6.E3A0      #003=VDG$ERASE_COMMAND_WINDOW File=VDG$UTILITY.:VDA5TSI            FRI 07/04/97 11:23 Page:62
          MINI XREF LISTING

B$ALT.CODE
      3159**DCL      3159--REDEF    3160--REDEF    3160--REDEF
B$ALT.DCB#
      3160**DCL      3196>>ASSIGN
B$ALT.ERR
      3160**DCL      3194>>ASSIGN
B$ALT.ERR.ERR#
      3161**DCL      3161--REDEF
B$ALT.EVID
      3160**DCL      3160--REDEF    3160--REDEF
B$TCB.ALT$
      3155**DCL      3194>>ASSIGN   3196>>ASSIGN
B$TCB$
      2868**DCL      3155--IMP-PTR  3194>>ASSIGN   3196>>ASSIGN
CWIN$SPEC.DCB#
      2993**DCL      3173>>ASSIGN
CWIN_SPEC$
      2893**DCL      2950--IMP-PTR  3169<<ASSIGN   3173>>ASSIGN
FPT_DEVICE
      2883**DCL      3177<>CALL     3181<>CALL
FPT_DEVICE.V
      2884**DCL      2883--DCLINIT
FPT_DEVICE.V.DCB#
      2884**DCL      3173<<ASSIGN   3175<<ASSIGN
FPT_DEVICE.V.PAGE#
      2885**DCL      3180<<ASSIGN   3183<<ASSIGN
M$DEVICE
      2254**DCL-ENT  3177--CALL     3181--CALL
M$UC
      2274**DCL      3175>>ASSIGN
MDEVICE_FAILED
      3179**LABEL    3177--CALLALT  3181--CALLALT
PL6.E3A0      #003=VDG$ERASE_COMMAND_WINDOW File=VDG$UTILITY.:VDA5TSI            FRI 07/04/97 11:23 Page:63
VD$ERR.DCB#
      3058**DCL      3196<<ASSIGN
VD$ERR.ERR
      3053**DCL      3194<<ASSIGN
VD$ERR.FLAGLEV#
      3058**DCL      3195<<ASSIGN
VD$FILE_NODE.DESC.SPEC.V$
      3148**DCL      3169>>ASSIGN
VDG$OALLOC
      2864**DCL-ENT  3192--CALL
VD_$SCROLL.V#
      2936**DCL      3179>>IF
VD_COMMAND_WINDOW$
      2867**DCL      3168>>IF       3169>>ASSIGN
VD_ERR$
      2939**DCL      3016--IMP-PTR  3192<>CALL     3194>>ASSIGN   3195>>ASSIGN   3196>>ASSIGN
VD_SCREEN_HEIGHT
      2871**DCL      3170>>IF

PL6.E3A0      #004=VDG$ERRMSG File=VDG$UTILITY.:VDA5TSI                          FRI 07/04/97 11:23 Page:64
      477        1        /*T***********************************************************/
      478        2        /*T*                                                         */
      479        3        /*T* Copyright (c) Bull HN Information Systems Inc., 1997    */
      480        4        /*T*                                                         */
      481        5        /*T***********************************************************/
      482        6        /*D* NAME: VDG$ERRMSG, VDG$WARNMSG, VDG$INFOMSG
      483        7            PARAMETERS:
      484        8              ERR# - An error code needing 6EDIT's errormessage file (VD)
      485        9              SUBST_1 - An optional textc or number for %U1 substitution.
      486       10              SUBST_2 - An optional textc or number for %U2 substitution.
      487       11              SUBST_3 - An optional textc or number for %U3 substitution.
      488       12            INPUT:
      489       13              None.
      490       14            OUTPUT:
      491       15              Allocates a VD$ERR and stores the parameters in it.
      492       16        */
      493       17
      494       18        VDG$ERRMSG: PROC (ERR#, SUBST_1, SUBST_2, SUBST_3) ALTRET;
      495       19
      496       20        %INCLUDE VD_MACROS_M;
      497     2235
      498     2236    1   DCL ERR# SBIN;
      499     2237    1   DCL SUBST_1 UBIN;
      500     2238    1   DCL SUBST_2 UBIN;
      501     2239    1   DCL SUBST_3 UBIN;
      502     2240
      503     2241        %VD_6E (STCLASS=SYMREF);
      504     2277        %VD$ERR (STCLASS="BASED(VD_6E.ERR_TAIL$)");
      505     2330        %VD$NUMBER (STCLASS="BASED(SUBST$)");
      506     2375        %VD$POINTER (STCLASS="BASED(SUBST$)");
      507     2420
      508     2421    1   DCL SUBST$ PTR;
      509     2422    1   DCL SINK SBIN;
      510     2423    1   DCL FLAGLEV UBIN;
      511     2424
      512     2425    1   DCL VDG$OALLOC ENTRY (3) ALTRET;
      513     2426
PL6.E3A0      #004=VDG$ERRMSG File=VDG$UTILITY.:VDA5TSI                          FRI 07/04/97 11:23 Page:65
      514     2427    1           FLAGLEV = %FLV_SERIOUS;
      515     2428    1           GOTO COMMON;
      516     2429
      517     2430    1   VDG$INFOMSG: ENTRY (ERR#, SUBST_1, SUBST_2, SUBST_3) ALTRET;
      518     2431
      519     2432    1           FLAGLEV = %FLV_INFO;
      520     2433    1           GOTO COMMON;
      521     2434
      522     2435    1   VDG$WARNMSG: ENTRY (ERR#, SUBST_1, SUBST_2, SUBST_3) ALTRET;
      523     2436
      524     2437    1           FLAGLEV = %FLV_WARN;
      525     2438    1   COMMON: ;
      526     2439    1           CALL VDG$OALLOC (%CLS_ERR, SINK)
      527     2440    2           WHENALTRETURN DO; ALTRETURN; END;
      528     2441    1           VD$ERR.ERR.CODE# = ERR#;
      529     2442    1           VD$ERR.FLAGLEV# = FLAGLEV;
      530     2443    1           SUBST$ = PINCRW(ADDR(VD$ERR), SIZEW(VD$ERR));
      531     2444    1           CALL DOSUBST (SUBST_1);
      532     2445    1           SUBST$ = PINCRW(SUBST$, SIZEW(VD$POINTER));
      533     2446    1           CALL DOSUBST (SUBST_2);
      534     2447    1           SUBST$ = PINCRW(SUBST$, SIZEW(VD$POINTER));
      535     2448    1           CALL DOSUBST (SUBST_3);
      536     2449    1           RETURN;
      537     2450
      538     2451    1   DOSUBST: PROC (PARM);
      539     2452
      540     2453    2   DCL PARM ALIGNED CHAR(FLAGLEV);
      541     2454        %VD$TEXTC (NAME=TEXTC, STCLASS=REDEF PARM);
      542     2477    2   DCL NUMBER REDEF PARM SBIN ALIGNED;
      543     2478        %VD$OBJECT_HEADER (NAME=OBJECT REDEF PARM, STCLASS=);
      544     2500
      545     2501    3           IF ADDR(PARM) ~= ADDR(NIL) THEN DO;
      546     2502    4              IF OBJECT.CLASS# <= 0 OR OBJECT.CLASS# >= 32*512 THEN DO;
      547     2503    4                 VD$POINTER.OBJECT.CLASS# = %CLS_NUMBER;
      548     2504    4                 VD$NUMBER.V# = NUMBER;
      549     2505    4                 END; ELSE IF TEXTC.LENGTH# ~= 0 THEN DO;
      550     2506    4                    VD$POINTER.OBJECT.CLASS# = %CLS_PTR_TEXTC;
PL6.E3A0      #004=VDG$ERRMSG File=VDG$UTILITY.:VDA5TSI                          FRI 07/04/97 11:23 Page:66
      551     2507    4                    VD$POINTER.V$ = ADDR(TEXTC);
      552     2508    4                    END;
      553     2509    3              END;
      554     2510    2           RETURN;
      555     2511    2   END;
      556     2512    1   END VDG$ERRMSG;
      557     2513        %EOD;

PL6.E3A0      #004=VDG$ERRMSG File=VDG$UTILITY.:VDA5TSI                          FRI 07/04/97 11:23 Page:67
--  Include file information  --

   VD_MACROS_M.:VDA5TOU  is referenced.
   B$JIT_C.:E04TOU  was found in the system file and is never referenced.
   CP_6_C.:E04TOU  was found in the system file and is never referenced.
      No diagnostics issued in procedure VDG$ERRMSG.

   Procedure VDG$ERRMSG requires 81 words for executable code.
   Procedure VDG$ERRMSG requires 14 words of local(AUTO) storage.

PL6.E3A0      #004=VDG$ERRMSG File=VDG$UTILITY.:VDA5TSI                          FRI 07/04/97 11:23 Page:68

 Object Unit name= VDG$ERRMSG                                 File name= VDG$UTILITY.:VDA5TOU
 UTS= JUL 04 '97 11:23:25.96 FRI                              Compiler= PL-6/E31         Sev=      00
 SharedLib= :SHARED_SYSTEM                                    Alt SharedLib=


    ****  Control sections  ****

 Sect   Type Bound  Init  Size OctSiz  Section name(segment info)
    0   Proc  even  none    81    121  VDG$ERRMSG
    1  RoData even  none     1      1  VDG$ERRMSG

    ****  Entry defs  ****

                              Check   Calling
                             calling  sequence
  Sect OctLoc Primary Altret sequence   type   Parms  Name
     0      0   yes    yes     yes      Std        4  VDG$ERRMSG
     0      5          yes     yes      Std        4  VDG$INFOMSG
     0     12          yes     yes      Std        4  VDG$WARNMSG

  ****  Entry refs  ****

         Check        Calling
        calling       sequence
Altret sequence SRef   type   Args  Name
 yes     yes           Std       3 VDG$OALLOC
                       nStd      0 X66_AUTO_4
                       Std       0 B_CONSPOOL_D
                       nStd      0 X66_AALT
                       nStd      0 X66_ARET

  ****  Data refs  ****

  Flags:  r = read only, s = secondary
Flgs Name                             Flgs Name                             Flgs Name
     VD_6E                                 B_VECTNIL
PL6.E3A0      #004=VDG$ERRMSG File=VDG$UTILITY.:VDA5TSI                          FRI 07/04/97 11:23 Page:69

  ****  Segment refs  ****

  Flags:  r = read only, s = secondary
Flgs Name                             Flgs Name                             Flgs Name
     ISSID
PL6.E3A0      #004=VDG$ERRMSG File=VDG$UTILITY.:VDA5TSI                          FRI 07/04/97 11:23 Page:70


      477        1        /*T***********************************************************/
      478        2        /*T*                                                         */
      479        3        /*T* Copyright (c) Bull HN Information Systems Inc., 1997    */
      480        4        /*T*                                                         */
      481        5        /*T***********************************************************/
      482        6        /*D* NAME: VDG$ERRMSG, VDG$WARNMSG, VDG$INFOMSG
      483        7            PARAMETERS:
      484        8              ERR# - An error code needing 6EDIT's errormessage file (VD)
      485        9              SUBST_1 - An optional textc or number for %U1 substitution.
      486       10              SUBST_2 - An optional textc or number for %U2 substitution.
      487       11              SUBST_3 - An optional textc or number for %U3 substitution.
      488       12            INPUT:
      489       13              None.
      490       14            OUTPUT:
      491       15              Allocates a VD$ERR and stores the parameters in it.
      492       16        */
      493       17
      494       18        VDG$ERRMSG: PROC (ERR#, SUBST_1, SUBST_2, SUBST_3) ALTRET;

     18  0 000000   000000 700200 xent  VDG$ERRMSG   TSX0  ! X66_AUTO_4
         0 000001   000016 000004                    ZERO    14,4

      495       19
      496       20        %INCLUDE VD_MACROS_M;
      497     2235
      498     2236    1   DCL ERR# SBIN;
      499     2237    1   DCL SUBST_1 UBIN;
      500     2238    1   DCL SUBST_2 UBIN;
      501     2239    1   DCL SUBST_3 UBIN;
      502     2240
      503     2241        %VD_6E (STCLASS=SYMREF);
      504     2277        %VD$ERR (STCLASS="BASED(VD_6E.ERR_TAIL$)");
      505     2330        %VD$NUMBER (STCLASS="BASED(SUBST$)");
      506     2375        %VD$POINTER (STCLASS="BASED(SUBST$)");
      507     2420
      508     2421    1   DCL SUBST$ PTR;
PL6.E3A0      #004=VDG$ERRMSG File=VDG$UTILITY.:VDA5TSI                          FRI 07/04/97 11:23 Page:71
      509     2422    1   DCL SINK SBIN;
      510     2423    1   DCL FLAGLEV UBIN;
      511     2424
      512     2425    1   DCL VDG$OALLOC ENTRY (3) ALTRET;
      513     2426
      514     2427    1           FLAGLEV = %FLV_SERIOUS;

   2427  0 000002   000003 235007                    LDA     3,DL
         0 000003   200011 755100                    STA     FLAGLEV,,AUTO

      515     2428    1           GOTO COMMON;

   2428  0 000004   000016 710000 0                  TRA     COMMON

      516     2429
      517     2430    1   VDG$INFOMSG: ENTRY (ERR#, SUBST_1, SUBST_2, SUBST_3) ALTRET;

   2430  0 000005   000000 700200 xent  VDG$INFOMSG  TSX0  ! X66_AUTO_4
         0 000006   000016 000004                    ZERO    14,4

      518     2431
      519     2432    1           FLAGLEV = %FLV_INFO;

   2432  0 000007   000001 235007                    LDA     1,DL
         0 000010   200011 755100                    STA     FLAGLEV,,AUTO

      520     2433    1           GOTO COMMON;

   2433  0 000011   000016 710000 0                  TRA     COMMON

      521     2434
      522     2435    1   VDG$WARNMSG: ENTRY (ERR#, SUBST_1, SUBST_2, SUBST_3) ALTRET;

   2435  0 000012   000000 700200 xent  VDG$WARNMSG  TSX0  ! X66_AUTO_4
         0 000013   000016 000004                    ZERO    14,4

      523     2436
PL6.E3A0      #004=VDG$ERRMSG File=VDG$UTILITY.:VDA5TSI                          FRI 07/04/97 11:23 Page:72
      524     2437    1           FLAGLEV = %FLV_WARN;

   2437  0 000014   000002 235007                    LDA     2,DL
         0 000015   200011 755100                    STA     FLAGLEV,,AUTO

   2437  0 000016                       COMMON       null
      525     2438    1   COMMON: ;
      526     2439    1           CALL VDG$OALLOC (%CLS_ERR, SINK)

   2439  0 000016   200010 630500                    EPPR0   SINK,,AUTO
         0 000017   200015 450500                    STP0    @PARM+2,,AUTO
         0 000020   000000 236000 1                  LDQ     0
         0 000021   200014 756100                    STQ     @PARM+1,,AUTO
         0 000022   200014 630500                    EPPR0   @PARM+1,,AUTO
         0 000023   000020 631400 xsym               EPPR1   B_VECTNIL+16
         0 000024   000000 701000 xent               TSX1    VDG$OALLOC
         0 000025   000027 702000 0                  TSX2    s:2440
         0 000026   000030 710000 0                  TRA     s:2441

      527     2440    2           WHENALTRETURN DO; ALTRETURN; END;

   2440  0 000027   000000 702200 xent               TSX2  ! X66_AALT

      528     2441    1           VD$ERR.ERR.CODE# = ERR#;

   2441  0 000030   000032 470400 xsym               LDP0    VD_6E+26
         0 000031   200003 471500                    LDP1    @ERR#,,AUTO
         0 000032   100000 236100                    LDQ     0,,PR1
         0 000033   000003 736000                    QLS     3
         0 000034   000002 676100                    ERQ     2,,PR0
         0 000035   377770 376007                    ANQ     131064,DL
         0 000036   000002 656100                    ERSQ    2,,PR0

      529     2442    1           VD$ERR.FLAGLEV# = FLAGLEV;

   2442  0 000037   200011 720100                    LXL0    FLAGLEV,,AUTO
         0 000040   000032 470400 xsym               LDP0    VD_6E+26
PL6.E3A0      #004=VDG$ERRMSG File=VDG$UTILITY.:VDA5TSI                          FRI 07/04/97 11:23 Page:73
         0 000041   000003 740100                    STX0    3,,PR0

      530     2443    1           SUBST$ = PINCRW(ADDR(VD$ERR), SIZEW(VD$ERR));

   2443  0 000042   000032 236000 xsym               LDQ     VD_6E+26
         0 000043   000005 036003                    ADLQ    5,DU
         0 000044   200007 756100                    STQ     SUBST$,,AUTO

      531     2444    1           CALL DOSUBST (SUBST_1);

   2444  0 000045   200004 236100                    LDQ     @SUBST_1,,AUTO
         0 000046   200013 756100                    STQ     FLAGLEV+2,,AUTO
         0 000047   000070 701000 0                  TSX1    DOSUBST
         0 000050   000000 011000                    NOP     0

      532     2445    1           SUBST$ = PINCRW(SUBST$, SIZEW(VD$POINTER));

   2445  0 000051   200007 236100                    LDQ     SUBST$,,AUTO
         0 000052   000004 036003                    ADLQ    4,DU
         0 000053   200007 756100                    STQ     SUBST$,,AUTO

      533     2446    1           CALL DOSUBST (SUBST_2);

   2446  0 000054   200005 236100                    LDQ     @SUBST_2,,AUTO
         0 000055   200013 756100                    STQ     FLAGLEV+2,,AUTO
         0 000056   000070 701000 0                  TSX1    DOSUBST
         0 000057   000000 011000                    NOP     0

      534     2447    1           SUBST$ = PINCRW(SUBST$, SIZEW(VD$POINTER));

   2447  0 000060   200007 236100                    LDQ     SUBST$,,AUTO
         0 000061   000004 036003                    ADLQ    4,DU
         0 000062   200007 756100                    STQ     SUBST$,,AUTO

      535     2448    1           CALL DOSUBST (SUBST_3);

   2448  0 000063   200006 236100                    LDQ     @SUBST_3,,AUTO
PL6.E3A0      #004=VDG$ERRMSG File=VDG$UTILITY.:VDA5TSI                          FRI 07/04/97 11:23 Page:74
         0 000064   200013 756100                    STQ     FLAGLEV+2,,AUTO
         0 000065   000070 701000 0                  TSX1    DOSUBST
         0 000066   000000 011000                    NOP     0

      536     2449    1           RETURN;

   2449  0 000067   000000 702200 xent               TSX2  ! X66_ARET

      537     2450
      538     2451    1   DOSUBST: PROC (PARM);

   2451  0 000070   200012 741300       DOSUBST      STX1  ! FLAGLEV+1,,AUTO

      539     2452
      540     2453    2   DCL PARM ALIGNED CHAR(FLAGLEV);
      541     2454        %VD$TEXTC (NAME=TEXTC, STCLASS=REDEF PARM);
      542     2477    2   DCL NUMBER REDEF PARM SBIN ALIGNED;
      543     2478        %VD$OBJECT_HEADER (NAME=OBJECT REDEF PARM, STCLASS=);
      544     2500
      545     2501    3           IF ADDR(PARM) ~= ADDR(NIL) THEN DO;

   2501  0 000071   200013 236100                    LDQ     @PARM,,AUTO
         0 000072   000001 116000 xsym               CMPQ    B_VECTNIL+1
         0 000073   000117 600000 0                  TZE     s:2510

      546     2502    4              IF OBJECT.CLASS# <= 0 OR OBJECT.CLASS# >= 32*512 THEN DO;

   2502  0 000074   200013 470500                    LDP0    @PARM,,AUTO
         0 000075   000000 220100                    LDX0    0,,PR0
         0 000076   000101 600000 0                  TZE     s:2503
         0 000077   040000 100003                    CMPX0   16384,DU
         0 000100   000107 602000 0                  TNC     s:2505+1

      547     2503    4                 VD$POINTER.OBJECT.CLASS# = %CLS_NUMBER;

   2503  0 000101   000033 222003                    LDX2    27,DU
         0 000102   200007 471500                    LDP1    SUBST$,,AUTO
PL6.E3A0      #004=VDG$ERRMSG File=VDG$UTILITY.:VDA5TSI                          FRI 07/04/97 11:23 Page:75
         0 000103   100000 742100                    STX2    0,,PR1

      548     2504    4                 VD$NUMBER.V# = NUMBER;

   2504  0 000104   000000 235100                    LDA     0,,PR0
         0 000105   100003 755100                    STA     3,,PR1

      549     2505    4                 END; ELSE IF TEXTC.LENGTH# ~= 0 THEN DO;

   2505  0 000106   000117 710000 0                  TRA     s:2510

   2505  0 000107   000000 236100                    LDQ     0,,PR0
         0 000110   777000 316003                    CANQ    -512,DU
         0 000111   000117 600000 0                  TZE     s:2510

      550     2506    4                    VD$POINTER.OBJECT.CLASS# = %CLS_PTR_TEXTC;

   2506  0 000112   000045 222003                    LDX2    37,DU
         0 000113   200007 471500                    LDP1    SUBST$,,AUTO
         0 000114   100000 742100                    STX2    0,,PR1

      551     2507    4                    VD$POINTER.V$ = ADDR(TEXTC);

   2507  0 000115   200013 236100                    LDQ     @PARM,,AUTO
         0 000116   100003 756100                    STQ     3,,PR1

      552     2508    4                    END;

      553     2509    3              END;

      554     2510    2           RETURN;

   2510  0 000117   200012 221300                    LDX1  ! FLAGLEV+1,,AUTO
         0 000120   000001 702211                    TSX2  ! 1,X1
      555     2511    2   END;
      556     2512    1   END VDG$ERRMSG;
      557     2513        %EOD;
PL6.E3A0      #004=VDG$ERRMSG File=VDG$UTILITY.:VDA5TSI                          FRI 07/04/97 11:23 Page:76

PL6.E3A0      #004=VDG$ERRMSG File=VDG$UTILITY.:VDA5TSI                          FRI 07/04/97 11:23 Page:77
--  Include file information  --

   VD_MACROS_M.:VDA5TOU  is referenced.
   B$JIT_C.:E04TOU  was found in the system file and is never referenced.
   CP_6_C.:E04TOU  was found in the system file and is never referenced.
      No diagnostics issued in procedure VDG$ERRMSG.
PL6.E3A0      #004=VDG$ERRMSG File=VDG$UTILITY.:VDA5TSI                          FRI 07/04/97 11:23 Page:78

 **** Variables and constants ****

  ****  Auto variables  ****

  ****  Scalars and arrays  ****
OctLoc.c.b A Datatyp(siz) R M Lvl/name                 OctLoc.c.b A Datatyp(siz) R M Lvl/name

     3-0-0/w PTR         r     1 @ERR#                     13-0-0/w PTR         r     1 @PARM
     4-0-0/w PTR         r     1 @SUBST_1                   5-0-0/w PTR         r     1 @SUBST_2
     6-0-0/w PTR         r     1 @SUBST_3                  *0-0-0/w SBIN        r     1 ERR#
    11-0-0/w UBIN        r     1 FLAGLEV                   *0-0-0/w SBIN        r     1 NUMBER
    *0-0-0/w STRC        r     1 OBJECT                    *0-0-0/w ACHR        r     1 PARM
    10-0-0/w SBIN        r     1 SINK                       7-0-0/w PTR         r     1 SUBST$
    *0-0-0/w UBIN        r     1 SUBST_1                   *0-0-0/w UBIN        r     1 SUBST_2
    *0-0-0/w UBIN        r     1 SUBST_3                   *0-0-0/w ASTR(9)     r     1 TEXTC

  ****  SYMREF variables  ****

  ****  Scalars and arrays  ****
OctLoc.c.b A Datatyp(siz) R M Lvl/name                 OctLoc.c.b A Datatyp(siz) R M Lvl/name

     0-0-0/w STRC(22644) r     1 VD_6E

  ****  BASED and DCB variables  ****

  ****  Scalars and arrays  ****
OctLoc.c.b A Datatyp(siz) R M Lvl/name                 OctLoc.c.b A Datatyp(siz) R M Lvl/name

     0-0-0/w STRC(180)   r     1 VD$ERR                     0-0-0/w STRC(144)   r     1 VD$NUMBER
     0-0-0/w STRC(144)   r     1 VD$POINTER


   Procedure VDG$ERRMSG requires 81 words for executable code.
   Procedure VDG$ERRMSG requires 14 words of local(AUTO) storage.
PL6.E3A0      #004=VDG$ERRMSG File=VDG$UTILITY.:VDA5TSI                          FRI 07/04/97 11:23 Page:79
          *** CROSS REFERENCE LISTING ***
**     DENOTES     IDENTIFIER DEFINITION
<<                 IDENTIFIER'S VALUE SET
>>                 IDENTIFIER'S VALUE USED
<>                 IDENTIFIER SET AND/OR USED
--                 IDENTIFIER REFERENCED
PL6.E3A0      #004=VDG$ERRMSG File=VDG$UTILITY.:VDA5TSI                          FRI 07/04/97 11:23 Page:80
          MINI XREF LISTING

COMMON
      2437**LABEL    2428--GOTO     2433--GOTO
DOSUBST
      2451**PROC     2444--CALL     2446--CALL     2448--CALL
ERR#
      2236**DCL        18--PROC     2430--ENTRY    2435--ENTRY    2441>>ASSIGN
FLAGLEV
      2423**DCL      2427<<ASSIGN   2432<<ASSIGN   2437<<ASSIGN   2442>>ASSIGN   2453--IMP-SIZ
NUMBER IN PROCEDURE DOSUBST
      2477**DCL      2504>>ASSIGN
OBJECT.CLASS# IN PROCEDURE DOSUBST
      2498**DCL      2502>>IF       2502>>IF
PARM IN PROCEDURE DOSUBST
      2453**DCL      2451--PROC     2462--REDEF    2477--REDEF    2494--REDEF    2501--IF
SINK
      2422**DCL      2439<>CALL
SUBST$
      2421**DCL      2338--IMP-PTR  2391--IMP-PTR  2443<<ASSIGN   2445<<ASSIGN   2445>>ASSIGN   2447<<ASSIGN
      2447>>ASSIGN   2503>>ASSIGN   2504>>ASSIGN   2506>>ASSIGN   2507>>ASSIGN
SUBST_1
      2237**DCL        18--PROC     2430--ENTRY    2435--ENTRY    2444<>CALL
SUBST_2
      2238**DCL        18--PROC     2430--ENTRY    2435--ENTRY    2446<>CALL
SUBST_3
      2239**DCL        18--PROC     2430--ENTRY    2435--ENTRY    2448<>CALL
TEXTC IN PROCEDURE DOSUBST
      2462**DCL      2507--ASSIGN
TEXTC.LENGTH# IN PROCEDURE DOSUBST
      2470**DCL      2472--IMP-SIZ  2505>>IF
VD$ERR
      2285**DCL      2443--ASSIGN   2443--ASSIGN
VD$ERR.ERR.CODE#
PL6.E3A0      #004=VDG$ERRMSG File=VDG$UTILITY.:VDA5TSI                          FRI 07/04/97 11:23 Page:81
      2324**DCL      2441<<ASSIGN
VD$ERR.FLAGLEV#
      2327**DCL      2442<<ASSIGN
VD$NUMBER.V#
      2372**DCL      2504<<ASSIGN
VD$POINTER
      2391**DCL      2445--ASSIGN   2447--ASSIGN
VD$POINTER.OBJECT.CLASS#
      2415**DCL      2503<<ASSIGN   2506<<ASSIGN
VD$POINTER.V$
      2417**DCL      2507<<ASSIGN
VDG$OALLOC
      2425**DCL-ENT  2439--CALL
VD_6E.ERR_TAIL$
      2273**DCL      2285--IMP-PTR  2441>>ASSIGN   2442>>ASSIGN   2443>>ASSIGN

PL6.E3A0      #005=VDG$COMPARE_LOCS File=VDG$UTILITY.:VDA5TSI                    FRI 07/04/97 11:23 Page:82
      558        1        /*T***********************************************************/
      559        2        /*T*                                                         */
      560        3        /*T* Copyright (c) Bull HN Information Systems Inc., 1997    */
      561        4        /*T*                                                         */
      562        5        /*T***********************************************************/
      563        6
      564        7        /*D* NAME:  VDG$COMPARE_LOCS
      565        8            PARAMETERS:
      566        9                LOC_1 - A VD$LOCATION to compare.
      567       10                LOC_2 - A VD$LOCATION to compare.
      568       11                RET_CODE - An uninitialized SBIN.
      569       12            INPUT:
      570       13                None.
      571       14            OUTPUT:
      572       15                RET_CODE will contain a %RCCL_ value.  It will contain:
      573       16                    %RCCL_EQUAL if LOC_1 = LOC_2;
      574       17                    %RCCL_LESS if LOC_1 < LOC_2;
      575       18                    %RCCL_GREATER if LOC_1 > LOC_2.
      576       19        */
      577       20
      578       21        VDG$COMPARE_LOCS: PROC (LOC_1, LOC_2, RET_CODE) ALTRET;
      579       22
      580       23
      581       24        %INCLUDE VD_MACROS_M;
      582     2239
      583     2240
      584     2241        %VD$LOCATION (NAME=LOC_1, STCLASS="");
      585     2269        %VD$LOCATION (NAME=LOC_2, STCLASS="");
      586     2297    1   DCL RET_CODE SBIN;
      587     2298
      588     2299
      589     2300
      590     2301    1   DCL LEVEL SBIN;
      591     2302    1   DCL LOC_1_KEY$ PTR;
      592     2303    1   DCL LOC_2_KEY$ PTR;
      593     2304
      594     2305
PL6.E3A0      #005=VDG$COMPARE_LOCS File=VDG$UTILITY.:VDA5TSI                    FRI 07/04/97 11:23 Page:83
      595     2306        %VD$TEXTC (NAME=LOC$1_KEY, STCLASS="BASED(LOC_1_KEY$)");
      596     2329        %VD$TEXTC (NAME=LOC$2_KEY, STCLASS="BASED(LOC_2_KEY$)");
      597     2352        %VD$TEXTC_REMOTE;
      598     2413
      599     2414
      600     2415
      601     2416    1           RET_CODE = %RCCL_EQUAL;
      602     2417
      603     2418    2           IF LOC_1.EOF THEN DO;
      604     2419    2              IF LOC_2.EOF THEN
      605     2420    2                 RETURN;
      606     2421    3              ELSE DO;
      607     2422    3                 RET_CODE = %RCCL_GREATER;
      608     2423    3                 RETURN;
      609     2424    3                 END;
      610     2425    2              END;
      611     2426
      612     2427    2           IF LOC_2.EOF THEN DO;
      613     2428    2              RET_CODE = %RCCL_LESS;
      614     2429    2              RETURN;
      615     2430    2              END;
      616     2431
      617     2432    1           LEVEL = 0;
      618     2433
      619     2434    1   EACH_LEVEL:
      620     2435    2           DO WHILE LEVEL < %MX_LOCATION_LEVELS;
      621     2436    3              IF LOC_1.KEY (LEVEL) = %CLEAR THEN DO;
      622     2437    3                 IF LOC_2.KEY (LEVEL) = %CLEAR THEN
      623     2438    3                    EXIT EACH_LEVEL;   /* All keys present are equal */
      624     2439                      /* LOC_2 keys go deeper in file structure than LOC_1 */
      625     2440    3                 RET_CODE = %RCCL_LESS;
      626     2441    3                 RETURN;
      627     2442    3                 END;
      628     2443    3              IF LOC_2.KEY (LEVEL) = %CLEAR THEN DO;
      629     2444                      /* LOC_1 keys go deeper in file structure than LOC_2 */
      630     2445    3                 RET_CODE = %RCCL_GREATER;
      631     2446    3                 RETURN;
PL6.E3A0      #005=VDG$COMPARE_LOCS File=VDG$UTILITY.:VDA5TSI                    FRI 07/04/97 11:23 Page:84
      632     2447    3                 END;
      633     2448                   %GETKEY (KEY=LOC_1.KEY, INDX=LEVEL, PTR=LOC_1_KEY$);
      634     2458                   %GETKEY (KEY=LOC_2.KEY, INDX=LEVEL, PTR=LOC_2_KEY$);
      635     2468    2              IF LOC_1.KEY (LEVEL) = %CLEAR
      636     2469    3                OR LOC$1_KEY.BYTES < LOC$2_KEY.BYTES THEN DO;
      637     2470    3                 RET_CODE = %RCCL_LESS;
      638     2471    3                 RETURN;
      639     2472    3                 END;
      640     2473    2              IF LOC_2.KEY (LEVEL) = %CLEAR
      641     2474    3                OR LOC$1_KEY.BYTES > LOC$2_KEY.BYTES THEN DO;
      642     2475    3                 RET_CODE = %RCCL_GREATER;
      643     2476    3                 RETURN;
      644     2477    3                 END;
      645     2478    2              LEVEL = LEVEL + 1;
      646     2479    2              END EACH_LEVEL;
      647     2480
      648     2481                /* Keys are equal */
      649     2482    2           IF LOC_1.POSITION# < LOC_2.POSITION# THEN DO;
      650     2483    2              RET_CODE = %RCCL_LESS;
      651     2484    2              RETURN;
      652     2485    2              END;
      653     2486    2           IF LOC_1.POSITION# > LOC_2.POSITION# THEN DO;
      654     2487    2              RET_CODE = %RCCL_GREATER;
      655     2488    2              RETURN;
      656     2489    2              END;
      657     2490
      658     2491    1           RETURN;
      659     2492
      660     2493    1   END VDG$COMPARE_LOCS;
      661     2494        %EOD;

PL6.E3A0      #005=VDG$COMPARE_LOCS File=VDG$UTILITY.:VDA5TSI                    FRI 07/04/97 11:23 Page:85
--  Include file information  --

   VD_MACROS_M.:VDA5TOU  is referenced.
   B$JIT_C.:E04TOU  was found in the system file and is never referenced.
   CP_6_C.:E04TOU  was found in the system file and is never referenced.
      No diagnostics issued in procedure VDG$COMPARE_LOCS.

   Procedure VDG$COMPARE_LOCS requires 131 words for executable code.
   Procedure VDG$COMPARE_LOCS requires 10 words of local(AUTO) storage.

PL6.E3A0      #005=VDG$COMPARE_LOCS File=VDG$UTILITY.:VDA5TSI                    FRI 07/04/97 11:23 Page:86

 Object Unit name= VDG$COMPARE_LOCS                           File name= VDG$UTILITY.:VDA5TOU
 UTS= JUL 04 '97 11:23:31.68 FRI                              Compiler= PL-6/E31         Sev=      00
 SharedLib= :SHARED_SYSTEM                                    Alt SharedLib=


    ****  Control sections  ****

 Sect   Type Bound  Init  Size OctSiz  Section name(segment info)
    0   Proc  even  none   131    203  VDG$COMPARE_LOCS

    ****  Entry defs  ****

                              Check   Calling
                             calling  sequence
  Sect OctLoc Primary Altret sequence   type   Parms  Name
     0      0   yes    yes     yes      Std        3  VDG$COMPARE_LOCS

  ****  Entry refs  ****

         Check        Calling
        calling       sequence
Altret sequence SRef   type   Args  Name
                       nStd      0 X66_AUTO_3
                       nStd      0 X66_ARET
                       Std       0 B_CONSPOOL_D

  ****  Data refs  ****

  Flags:  r = read only, s = secondary
Flgs Name                             Flgs Name                             Flgs Name
     B_VECTNIL
PL6.E3A0      #005=VDG$COMPARE_LOCS File=VDG$UTILITY.:VDA5TSI                    FRI 07/04/97 11:23 Page:87


      558        1        /*T***********************************************************/
      559        2        /*T*                                                         */
      560        3        /*T* Copyright (c) Bull HN Information Systems Inc., 1997    */
      561        4        /*T*                                                         */
      562        5        /*T***********************************************************/
      563        6
      564        7        /*D* NAME:  VDG$COMPARE_LOCS
      565        8            PARAMETERS:
      566        9                LOC_1 - A VD$LOCATION to compare.
      567       10                LOC_2 - A VD$LOCATION to compare.
      568       11                RET_CODE - An uninitialized SBIN.
      569       12            INPUT:
      570       13                None.
      571       14            OUTPUT:
      572       15                RET_CODE will contain a %RCCL_ value.  It will contain:
      573       16                    %RCCL_EQUAL if LOC_1 = LOC_2;
      574       17                    %RCCL_LESS if LOC_1 < LOC_2;
      575       18                    %RCCL_GREATER if LOC_1 > LOC_2.
      576       19        */
      577       20
      578       21        VDG$COMPARE_LOCS: PROC (LOC_1, LOC_2, RET_CODE) ALTRET;

     21  0 000000   000000 700200 xent  VDG$COMPARE* TSX0  ! X66_AUTO_3
         0 000001   000012 000003                    ZERO    10,3

      579       22
      580       23
      581       24        %INCLUDE VD_MACROS_M;
      582     2239
      583     2240
      584     2241        %VD$LOCATION (NAME=LOC_1, STCLASS="");
      585     2269        %VD$LOCATION (NAME=LOC_2, STCLASS="");
      586     2297    1   DCL RET_CODE SBIN;
      587     2298
      588     2299
      589     2300
PL6.E3A0      #005=VDG$COMPARE_LOCS File=VDG$UTILITY.:VDA5TSI                    FRI 07/04/97 11:23 Page:88
      590     2301    1   DCL LEVEL SBIN;
      591     2302    1   DCL LOC_1_KEY$ PTR;
      592     2303    1   DCL LOC_2_KEY$ PTR;
      593     2304
      594     2305
      595     2306        %VD$TEXTC (NAME=LOC$1_KEY, STCLASS="BASED(LOC_1_KEY$)");
      596     2329        %VD$TEXTC (NAME=LOC$2_KEY, STCLASS="BASED(LOC_2_KEY$)");
      597     2352        %VD$TEXTC_REMOTE;
      598     2413
      599     2414
      600     2415
      601     2416    1           RET_CODE = %RCCL_EQUAL;

   2416  0 000002   200005 470500                    LDP0    @RET_CODE,,AUTO
         0 000003   000000 450100                    STZ     0,,PR0

      602     2417
      603     2418    2           IF LOC_1.EOF THEN DO;

   2418  0 000004   200003 471500                    LDP1    @LOC_1,,AUTO
         0 000005   100010 236100                    LDQ     8,,PR1
         0 000006   400000 316007                    CANQ    -131072,DL
         0 000007   000020 600000 0                  TZE     s:2427

      604     2419    2              IF LOC_2.EOF THEN

   2419  0 000010   200004 473500                    LDP3    @LOC_2,,AUTO
         0 000011   300010 236100                    LDQ     8,,PR3
         0 000012   400000 316007                    CANQ    -131072,DL
         0 000013   000015 600000 0                  TZE     s:2422

      605     2420    2                 RETURN;

   2420  0 000014   000000 702200 xent               TSX2  ! X66_ARET

      606     2421    3              ELSE DO;

PL6.E3A0      #005=VDG$COMPARE_LOCS File=VDG$UTILITY.:VDA5TSI                    FRI 07/04/97 11:23 Page:89
      607     2422    3                 RET_CODE = %RCCL_GREATER;

   2422  0 000015   000001 235007                    LDA     1,DL
         0 000016   000000 755100                    STA     0,,PR0

      608     2423    3                 RETURN;

   2423  0 000017   000000 702200 xent               TSX2  ! X66_ARET

      609     2424    3                 END;
      610     2425    2              END;
      611     2426
      612     2427    2           IF LOC_2.EOF THEN DO;

   2427  0 000020   200004 473500                    LDP3    @LOC_2,,AUTO
         0 000021   300010 236100                    LDQ     8,,PR3
         0 000022   400000 316007                    CANQ    -131072,DL
         0 000023   000027 600000 0                  TZE     s:2432

      613     2428    2              RET_CODE = %RCCL_LESS;

   2428  0 000024   000001 335007                    LCA     1,DL
         0 000025   000000 755100                    STA     0,,PR0

      614     2429    2              RETURN;

   2429  0 000026   000000 702200 xent               TSX2  ! X66_ARET

      615     2430    2              END;
      616     2431
      617     2432    1           LEVEL = 0;

   2432  0 000027   200006 450100                    STZ     LEVEL,,AUTO

      618     2433
      619     2434    1   EACH_LEVEL:
      620     2435    2           DO WHILE LEVEL < %MX_LOCATION_LEVELS;
PL6.E3A0      #005=VDG$COMPARE_LOCS File=VDG$UTILITY.:VDA5TSI                    FRI 07/04/97 11:23 Page:90

   2435  0 000030   200006 235100       EACH_LEVEL   LDA     LEVEL,,AUTO
         0 000031   000004 115007                    CMPA    4,DL
         0 000032   000164 605000 0                  TPL     s:2482

      621     2436    3              IF LOC_1.KEY (LEVEL) = %CLEAR THEN DO;

   2436  0 000033   200006 235100                    LDA     LEVEL,,AUTO
         0 000034   000003 735000                    ALS     3
         0 000035   200003 470500                    LDP0    @LOC_1,,AUTO
         0 000036   000000 106505                    CMPC    fill='000'O
         0 000037   000000 000010                    ADSC9   0,A,PR0                  cn=0,n=8
         0 000040   000002 000002 xsym               ADSC9   B_VECTNIL+2              cn=0,n=2
         0 000041   000053 601000 0                  TNZ     s:2443

      622     2437    3                 IF LOC_2.KEY (LEVEL) = %CLEAR THEN

   2437  0 000042   200004 471500                    LDP1    @LOC_2,,AUTO
         0 000043   000000 106505                    CMPC    fill='000'O
         0 000044   100000 000010                    ADSC9   0,A,PR1                  cn=0,n=8
         0 000045   000002 000002 xsym               ADSC9   B_VECTNIL+2              cn=0,n=2
         0 000046   000164 600000 0                  TZE     s:2482

      623     2438    3                    EXIT EACH_LEVEL;   /* All keys present are equal */
      624     2439                      /* LOC_2 keys go deeper in file structure than LOC_1 */
      625     2440    3                 RET_CODE = %RCCL_LESS;

   2440  0 000047   000001 336007                    LCQ     1,DL
         0 000050   200005 473500                    LDP3    @RET_CODE,,AUTO
         0 000051   300000 756100                    STQ     0,,PR3

      626     2441    3                 RETURN;

   2441  0 000052   000000 702200 xent               TSX2  ! X66_ARET

      627     2442    3                 END;
      628     2443    3              IF LOC_2.KEY (LEVEL) = %CLEAR THEN DO;
PL6.E3A0      #005=VDG$COMPARE_LOCS File=VDG$UTILITY.:VDA5TSI                    FRI 07/04/97 11:23 Page:91

   2443  0 000053   200004 471500                    LDP1    @LOC_2,,AUTO
         0 000054   000000 106505                    CMPC    fill='000'O
         0 000055   100000 000010                    ADSC9   0,A,PR1                  cn=0,n=8
         0 000056   000002 000002 xsym               ADSC9   B_VECTNIL+2              cn=0,n=2
         0 000057   000064 601000 0                  TNZ     s:2455

      629     2444                      /* LOC_1 keys go deeper in file structure than LOC_2 */
      630     2445    3                 RET_CODE = %RCCL_GREATER;

   2445  0 000060   000001 236007                    LDQ     1,DL
         0 000061   200005 473500                    LDP3    @RET_CODE,,AUTO
         0 000062   300000 756100                    STQ     0,,PR3

      631     2446    3                 RETURN;

   2446  0 000063   000000 702200 xent               TSX2  ! X66_ARET

      632     2447    3                 END;
      633     2448                   %GETKEY (KEY=LOC_1.KEY, INDX=LEVEL, PTR=LOC_1_KEY$);

   2455  0 000064   200006 236100                    LDQ     LEVEL,,AUTO
         0 000065   000001 736000                    QLS     1
         0 000066   000000 720106                    LXL0    0,QL,PR0
         0 000067   000002 100003                    CMPX0   2,DU
         0 000070   000075 601000 0                  TNZ     s:2455+9

   2455  0 000071   000001 473506                    LDP3    1,QL,PR0
         0 000072   300002 634500                    EPPR4   2,,PR3
         0 000073   200007 454500                    STP4    LOC_1_KEY$,,AUTO
         0 000074   000102 710000 0                  TRA     s:2465

   2455  0 000075   200006 236100                    LDQ     LEVEL,,AUTO
         0 000076   000023 736000                    QLS     19
         0 000077   000001 036003                    ADLQ    1,DU
         0 000100   200003 036100                    ADLQ    @LOC_1,,AUTO
         0 000101   200007 756100                    STQ     LOC_1_KEY$,,AUTO
PL6.E3A0      #005=VDG$COMPARE_LOCS File=VDG$UTILITY.:VDA5TSI                    FRI 07/04/97 11:23 Page:92

      634     2458                   %GETKEY (KEY=LOC_2.KEY, INDX=LEVEL, PTR=LOC_2_KEY$);

   2465  0 000102   200006 236100                    LDQ     LEVEL,,AUTO
         0 000103   000001 736000                    QLS     1
         0 000104   100000 720106                    LXL0    0,QL,PR1
         0 000105   000002 100003                    CMPX0   2,DU
         0 000106   000113 601000 0                  TNZ     s:2465+9

   2465  0 000107   100001 473506                    LDP3    1,QL,PR1
         0 000110   300002 634500                    EPPR4   2,,PR3
         0 000111   200010 454500                    STP4    LOC_2_KEY$,,AUTO
         0 000112   000120 710000 0                  TRA     s:2468

   2465  0 000113   200006 236100                    LDQ     LEVEL,,AUTO
         0 000114   000023 736000                    QLS     19
         0 000115   000001 036003                    ADLQ    1,DU
         0 000116   200004 036100                    ADLQ    @LOC_2,,AUTO
         0 000117   200010 756100                    STQ     LOC_2_KEY$,,AUTO

      635     2468    2              IF LOC_1.KEY (LEVEL) = %CLEAR

   2468  0 000120   000000 106505                    CMPC    fill='000'O
         0 000121   000000 000010                    ADSC9   0,A,PR0                  cn=0,n=8
         0 000122   000002 000002 xsym               ADSC9   B_VECTNIL+2              cn=0,n=2
         0 000123   000140 600000 0                  TZE     s:2470
         0 000124   200007 473500                    LDP3    LOC_1_KEY$,,AUTO
         0 000125   300000 236100                    LDQ     0,,PR3
         0 000126   000033 772000                    QRL     27
         0 000127   200010 474500                    LDP4    LOC_2_KEY$,,AUTO
         0 000130   000000 620006                    EAX0    0,QL
         0 000131   400000 236100                    LDQ     0,,PR4
         0 000132   000033 772000                    QRL     27
         0 000133   000000 621006                    EAX1    0,QL
         0 000134   040140 106540                    CMPC    fill='040'O
         0 000135   300000 200010                    ADSC9   0,,PR3                   cn=1,n=*X0
         0 000136   400000 200011                    ADSC9   0,,PR4                   cn=1,n=*X1
PL6.E3A0      #005=VDG$COMPARE_LOCS File=VDG$UTILITY.:VDA5TSI                    FRI 07/04/97 11:23 Page:93
         0 000137   000144 603000 0                  TRC     s:2473

      636     2469    3                OR LOC$1_KEY.BYTES < LOC$2_KEY.BYTES THEN DO;

      637     2470    3                 RET_CODE = %RCCL_LESS;

   2470  0 000140   000001 336007                    LCQ     1,DL
         0 000141   200005 473500                    LDP3    @RET_CODE,,AUTO
         0 000142   300000 756100                    STQ     0,,PR3

      638     2471    3                 RETURN;

   2471  0 000143   000000 702200 xent               TSX2  ! X66_ARET

      639     2472    3                 END;
      640     2473    2              IF LOC_2.KEY (LEVEL) = %CLEAR

   2473  0 000144   000000 106505                    CMPC    fill='000'O
         0 000145   100000 000010                    ADSC9   0,A,PR1                  cn=0,n=8
         0 000146   000002 000002 xsym               ADSC9   B_VECTNIL+2              cn=0,n=2
         0 000147   000154 600000 0                  TZE     s:2475
         0 000150   040140 106540                    CMPC    fill='040'O
         0 000151   400000 200011                    ADSC9   0,,PR4                   cn=1,n=*X1
         0 000152   300000 200010                    ADSC9   0,,PR3                   cn=1,n=*X0
         0 000153   000160 603000 0                  TRC     s:2478

      641     2474    3                OR LOC$1_KEY.BYTES > LOC$2_KEY.BYTES THEN DO;

      642     2475    3                 RET_CODE = %RCCL_GREATER;

   2475  0 000154   000001 235007                    LDA     1,DL
         0 000155   200005 475500                    LDP5    @RET_CODE,,AUTO
         0 000156   500000 755100                    STA     0,,PR5

      643     2476    3                 RETURN;

   2476  0 000157   000000 702200 xent               TSX2  ! X66_ARET
PL6.E3A0      #005=VDG$COMPARE_LOCS File=VDG$UTILITY.:VDA5TSI                    FRI 07/04/97 11:23 Page:94

      644     2477    3                 END;
      645     2478    2              LEVEL = LEVEL + 1;

   2478  0 000160   200006 054100                    AOS     LEVEL,,AUTO

      646     2479    2              END EACH_LEVEL;

   2479  0 000161   200006 235100                    LDA     LEVEL,,AUTO
         0 000162   000004 115007                    CMPA    4,DL
         0 000163   000033 604000 0                  TMI     s:2436

      647     2480
      648     2481                /* Keys are equal */
      649     2482    2           IF LOC_1.POSITION# < LOC_2.POSITION# THEN DO;

   2482  0 000164   200003 470500                    LDP0    @LOC_1,,AUTO
         0 000165   000010 220100                    LDX0    8,,PR0
         0 000166   200004 471500                    LDP1    @LOC_2,,AUTO
         0 000167   100010 100100                    CMPX0   8,,PR1
         0 000170   000175 605000 0                  TPL     s:2486

      650     2483    2              RET_CODE = %RCCL_LESS;

   2483  0 000171   000001 335007                    LCA     1,DL
         0 000172   200005 473500                    LDP3    @RET_CODE,,AUTO
         0 000173   300000 755100                    STA     0,,PR3

      651     2484    2              RETURN;

   2484  0 000174   000000 702200 xent               TSX2  ! X66_ARET

      652     2485    2              END;
      653     2486    2           IF LOC_1.POSITION# > LOC_2.POSITION# THEN DO;

   2486  0 000175   000202 604400 0                  TMOZ    s:2491

PL6.E3A0      #005=VDG$COMPARE_LOCS File=VDG$UTILITY.:VDA5TSI                    FRI 07/04/97 11:23 Page:95
      654     2487    2              RET_CODE = %RCCL_GREATER;

   2487  0 000176   000001 235007                    LDA     1,DL
         0 000177   200005 473500                    LDP3    @RET_CODE,,AUTO
         0 000200   300000 755100                    STA     0,,PR3

      655     2488    2              RETURN;

   2488  0 000201   000000 702200 xent               TSX2  ! X66_ARET

      656     2489    2              END;
      657     2490
      658     2491    1           RETURN;

   2491  0 000202   000000 702200 xent               TSX2  ! X66_ARET
      659     2492
      660     2493    1   END VDG$COMPARE_LOCS;
      661     2494        %EOD;

PL6.E3A0      #005=VDG$COMPARE_LOCS File=VDG$UTILITY.:VDA5TSI                    FRI 07/04/97 11:23 Page:96
--  Include file information  --

   VD_MACROS_M.:VDA5TOU  is referenced.
   B$JIT_C.:E04TOU  was found in the system file and is never referenced.
   CP_6_C.:E04TOU  was found in the system file and is never referenced.
      No diagnostics issued in procedure VDG$COMPARE_LOCS.
PL6.E3A0      #005=VDG$COMPARE_LOCS File=VDG$UTILITY.:VDA5TSI                    FRI 07/04/97 11:23 Page:97

 **** Variables and constants ****

  ****  Auto variables  ****

  ****  Scalars and arrays  ****
OctLoc.c.b A Datatyp(siz) R M Lvl/name                 OctLoc.c.b A Datatyp(siz) R M Lvl/name

     3-0-0/w PTR         r     1 @LOC_1                     4-0-0/w PTR         r     1 @LOC_2
     5-0-0/w PTR         r     1 @RET_CODE                  6-0-0/w SBIN        r     1 LEVEL
    *0-0-0/w STRC(324)   r     1 LOC_1                      7-0-0/w PTR         r     1 LOC_1_KEY$
    *0-0-0/w STRC(324)   r     1 LOC_2                     10-0-0/w PTR         r     1 LOC_2_KEY$
    *0-0-0/w SBIN        r     1 RET_CODE

  ****  BASED and DCB variables  ****

  ****  Scalars and arrays  ****
OctLoc.c.b A Datatyp(siz) R M Lvl/name                 OctLoc.c.b A Datatyp(siz) R M Lvl/name

     0-0-0/w ASTR(9)     r     1 LOC$1_KEY                  0-0-0/w ASTR(9)     r     1 LOC$2_KEY
     0-0-0/w ASTR(81)    r     1 VD$TEXTC_REMOTE


   Procedure VDG$COMPARE_LOCS requires 131 words for executable code.
   Procedure VDG$COMPARE_LOCS requires 10 words of local(AUTO) storage.
PL6.E3A0      #005=VDG$COMPARE_LOCS File=VDG$UTILITY.:VDA5TSI                    FRI 07/04/97 11:23 Page:98
          *** CROSS REFERENCE LISTING ***
**     DENOTES     IDENTIFIER DEFINITION
<<                 IDENTIFIER'S VALUE SET
>>                 IDENTIFIER'S VALUE USED
<>                 IDENTIFIER SET AND/OR USED
--                 IDENTIFIER REFERENCED
PL6.E3A0      #005=VDG$COMPARE_LOCS File=VDG$UTILITY.:VDA5TSI                    FRI 07/04/97 11:23 Page:99
          MINI XREF LISTING

EACH_LEVEL
      2435**LABEL    2438--EXIT
LEVEL
      2301**DCL      2432<<ASSIGN   2435>>DOWHILE  2436>>IF       2437>>IF       2443>>IF       2455>>IF
      2455>>ASSIGN   2455>>ASSIGN   2465>>IF       2465>>ASSIGN   2465>>ASSIGN   2468>>IF       2473>>IF
      2478<<ASSIGN   2478>>ASSIGN
LOC$1_KEY.BYTES
      2324**DCL      2468>>IF       2473>>IF
LOC$1_KEY.LENGTH#
      2322**DCL      2324--IMP-SIZ  2468>>IF       2473>>IF
LOC$2_KEY.BYTES
      2347**DCL      2468>>IF       2473>>IF
LOC$2_KEY.LENGTH#
      2345**DCL      2347--IMP-SIZ  2468>>IF       2473>>IF
LOC_1
      2249**DCL        21--PROC
LOC_1.EOF
      2267**DCL      2418>>IF
LOC_1.KEY
      2263**DCL      2436>>IF       2468>>IF
LOC_1.KEY.REP#
      2265**DCL      2455>>IF
LOC_1.KEY.V$
      2265**DCL      2455>>ASSIGN   2455--ASSIGN
LOC_1.POSITION#
      2267**DCL      2482>>IF       2486>>IF
LOC_1_KEY$
      2302**DCL      2314--IMP-PTR  2455<<ASSIGN   2455<<ASSIGN   2468>>IF       2468>>IF       2473>>IF
      2473>>IF
LOC_2
      2277**DCL        21--PROC
LOC_2.EOF
PL6.E3A0      #005=VDG$COMPARE_LOCS File=VDG$UTILITY.:VDA5TSI                    FRI 07/04/97 11:23 Page:100
      2295**DCL      2419>>IF       2427>>IF
LOC_2.KEY
      2291**DCL      2437>>IF       2443>>IF       2473>>IF
LOC_2.KEY.REP#
      2293**DCL      2465>>IF
LOC_2.KEY.V$
      2293**DCL      2465>>ASSIGN   2465--ASSIGN
LOC_2.POSITION#
      2295**DCL      2482>>IF       2486>>IF
LOC_2_KEY$
      2303**DCL      2337--IMP-PTR  2465<<ASSIGN   2465<<ASSIGN   2468>>IF       2468>>IF       2473>>IF
      2473>>IF
RET_CODE
      2297**DCL        21--PROC     2416<<ASSIGN   2422<<ASSIGN   2428<<ASSIGN   2440<<ASSIGN   2445<<ASSIGN
      2470<<ASSIGN   2475<<ASSIGN   2483<<ASSIGN   2487<<ASSIGN
VD$TEXTC_REMOTE.LENGTH#
      2406**DCL      2408--IMP-SIZ  2455--ASSIGN   2465--ASSIGN

PL6.E3A0      #006=VDG$COMPARE_PTRS_W_RANGE File=VDG$UTILITY.:VDA5TSI            FRI 07/04/97 11:23 Page:101
      662        1        /*T***********************************************************/
      663        2        /*T*                                                         */
      664        3        /*T* Copyright (c) Bull HN Information Systems Inc., 1997    */
      665        4        /*T*                                                         */
      666        5        /*T***********************************************************/
      667        6
      668        7        /*D* NAME: VDG$COMPARE_PTRS_W_RANGE
      669        8            PARAMETERS:
      670        9                LOCATION_PTRS - A LOCATION_PTRS structure which is
      671       10                    to be checked against the RANGE.
      672       11                    NOTE!!  .POSITION and .EOF are ignored!!
      673       12                RANGE - RANGE to be checked against.
      674       13                    NOTE!!  Both .POSITIONs and .EOFs are ignored!!
      675       14                WITHIN_RANGE - Optional uninitialized SBIN ALIGNED.
      676       15            INPUT:
      677       16                None.
      678       17            OUTPUT:
      679       18                WITHIN_RANGE set based on the comparison:
      680       19                    %RCCL_EQUAL if LOCATION_PTRS is within RANGE;
      681       20                    %RCCL_LESS if LOCATION_PTRS is below RANGE.
      682       21                    %RCCL_GREATER if LOCATION_PTRS is above RANGE.
      683       22                The ALTRETURN is taken if LOCATION_PTRS is not within RANGE.
      684       23            DESCRIPTION:
      685       24                Just a routine to avoid code duplication in a few
      686       25                modules.  Checks all the significant levels of a
      687       26                LOCATION_PTRS structure (which may have been filled
      688       27                in by VDG$LOCATION_TO_PTRS) to see if they're within
      689       28                the RANGE.
      690       29        */
      691       30
      692       31        VDG$COMPARE_PTRS_W_RANGE: PROC (LOCATION_PTRS, RANGE, WITHIN_RANGE)
      693       32                  ALTRET;
      694       33
      695       34        %INCLUDE VD_MACROS_M;
      696     2249
      697     2250        %VD$LOCATION_PTRS (NAME=LOCATION_PTRS, STCLASS=PARAM);
      698     2265        %VD$RANGE (NAME=RANGE, STCLASS=PARAM);
PL6.E3A0      #006=VDG$COMPARE_PTRS_W_RANGE File=VDG$UTILITY.:VDA5TSI            FRI 07/04/97 11:23 Page:102
      699     2334    1   DCL WITHIN_RANGE SBIN ALIGNED PARAM;
      700     2335
      701     2336
      702     2337
      703     2338    1   DCL INDX UBIN;
      704     2339    1   DCL END_KEY$ PTR;
      705     2340    1   DCL START_KEY$ PTR;
      706     2341    1   DCL RCCL SBIN;
      707     2342
      708     2343
      709     2344        %VD$TEXTC (NAME=START$KEY, STCLASS="BASED(START_KEY$)");
      710     2367        %VD$TEXTC (NAME=END$KEY, STCLASS="BASED(END_KEY$)");
      711     2390        %VD$TEXTC;
      712     2413        %VD$TEXTC_REMOTE;
      713     2474
      714     2475
      715     2476
      716     2477    1           RCCL = %RCCL_EQUAL;
      717     2478
      718     2479    1   CHECK_THE_PTR_ARRAY:
      719     2480    2           DO INDX = 0 TO LOCATION_PTRS.COUNT# - 1;
      720     2481    2              IF RANGE.START.KEY (INDX) = %CLEAR THEN
      721     2482    2                 EXIT CHECK_THE_PTR_ARRAY;
      722     2483                   %GETKEY (KEY=RANGE.START.KEY, INDX=INDX,
      723     2484                   PTR = START_KEY$ );
      724     2494                   %GETKEY ( KEY = "RANGE.ENDD.KEY",
      725     2495                   INDX = INDX,
      726     2496                   PTR = END_KEY$ );
      727     2506
      728     2507    2              IF LOCATION_PTRS.KEY$ ( INDX ) -> VD$TEXTC.LENGTH# = 0
      729     2508    2                OR LOCATION_PTRS.KEY$ ( INDX ) -> VD$TEXTC.BYTES <
      730     2509    2                START_KEY$ -> VD$TEXTC.BYTES
      731     2510    2              THEN
      732     2511    3              DO;
      733     2512    3                 RCCL = %RCCL_LESS;
      734     2513    3                 EXIT CHECK_THE_PTR_ARRAY;
      735     2514    3                 END;
PL6.E3A0      #006=VDG$COMPARE_PTRS_W_RANGE File=VDG$UTILITY.:VDA5TSI            FRI 07/04/97 11:23 Page:103
      736     2515    2              IF LOCATION_PTRS.KEY$ ( INDX ) -> VD$TEXTC.BYTES >
      737     2516    2                END_KEY$ -> VD$TEXTC.BYTES
      738     2517    2              THEN
      739     2518    3              DO;
      740     2519    3                 RCCL = %RCCL_GREATER;
      741     2520    3                 EXIT CHECK_THE_PTR_ARRAY;
      742     2521    3                 END;
      743     2522
      744     2523    2              END CHECK_THE_PTR_ARRAY;
      745     2524
      746     2525    1           IF ADDR(WITHIN_RANGE) ~= ADDR(NIL) THEN
      747     2526    1              WITHIN_RANGE = RCCL;
      748     2527    1           IF RCCL ~= %RCCL_EQUAL THEN
      749     2528    1              ALTRETURN;
      750     2529    1           RETURN;
      751     2530
      752     2531    1   END VDG$COMPARE_PTRS_W_RANGE;
      753     2532        %EOD;

PL6.E3A0      #006=VDG$COMPARE_PTRS_W_RANGE File=VDG$UTILITY.:VDA5TSI            FRI 07/04/97 11:23 Page:104
--  Include file information  --

   VD_MACROS_M.:VDA5TOU  is referenced.
   B$JIT_C.:E04TOU  was found in the system file and is never referenced.
   CP_6_C.:E04TOU  was found in the system file and is never referenced.
      No diagnostics issued in procedure VDG$COMPARE_PTRS_W_RANGE.

   Procedure VDG$COMPARE_PTRS_W_RANGE requires 90 words for executable code.
   Procedure VDG$COMPARE_PTRS_W_RANGE requires 10 words of local(AUTO) storage.

PL6.E3A0      #006=VDG$COMPARE_PTRS_W_RANGE File=VDG$UTILITY.:VDA5TSI            FRI 07/04/97 11:23 Page:105

 Object Unit name= VDG$COMPARE_PTRS_W_RANGE                   File name= VDG$UTILITY.:VDA5TOU
 UTS= JUL 04 '97 11:23:37.80 FRI                              Compiler= PL-6/E31         Sev=      00
 SharedLib= :SHARED_SYSTEM                                    Alt SharedLib=


    ****  Control sections  ****

 Sect   Type Bound  Init  Size OctSiz  Section name(segment info)
    0   Proc  even  none    90    132  VDG$COMPARE_PTRS_W_RANGE

    ****  Entry defs  ****

                              Check   Calling
                             calling  sequence
  Sect OctLoc Primary Altret sequence   type   Parms  Name
     0      0   yes    yes     yes      Std        3  VDG$COMPARE_PTRS_W_RANGE

  ****  Entry refs  ****

         Check        Calling
        calling       sequence
Altret sequence SRef   type   Args  Name
                       nStd      0 X66_AUTO_3
                       Std       0 B_CONSPOOL_D
                       nStd      0 X66_AALT
                       nStd      0 X66_ARET

  ****  Data refs  ****

  Flags:  r = read only, s = secondary
Flgs Name                             Flgs Name                             Flgs Name
     B_VECTNIL
PL6.E3A0      #006=VDG$COMPARE_PTRS_W_RANGE File=VDG$UTILITY.:VDA5TSI            FRI 07/04/97 11:23 Page:106


      662        1        /*T***********************************************************/
      663        2        /*T*                                                         */
      664        3        /*T* Copyright (c) Bull HN Information Systems Inc., 1997    */
      665        4        /*T*                                                         */
      666        5        /*T***********************************************************/
      667        6
      668        7        /*D* NAME: VDG$COMPARE_PTRS_W_RANGE
      669        8            PARAMETERS:
      670        9                LOCATION_PTRS - A LOCATION_PTRS structure which is
      671       10                    to be checked against the RANGE.
      672       11                    NOTE!!  .POSITION and .EOF are ignored!!
      673       12                RANGE - RANGE to be checked against.
      674       13                    NOTE!!  Both .POSITIONs and .EOFs are ignored!!
      675       14                WITHIN_RANGE - Optional uninitialized SBIN ALIGNED.
      676       15            INPUT:
      677       16                None.
      678       17            OUTPUT:
      679       18                WITHIN_RANGE set based on the comparison:
      680       19                    %RCCL_EQUAL if LOCATION_PTRS is within RANGE;
      681       20                    %RCCL_LESS if LOCATION_PTRS is below RANGE.
      682       21                    %RCCL_GREATER if LOCATION_PTRS is above RANGE.
      683       22                The ALTRETURN is taken if LOCATION_PTRS is not within RANGE.
      684       23            DESCRIPTION:
      685       24                Just a routine to avoid code duplication in a few
      686       25                modules.  Checks all the significant levels of a
      687       26                LOCATION_PTRS structure (which may have been filled
      688       27                in by VDG$LOCATION_TO_PTRS) to see if they're within
      689       28                the RANGE.
      690       29        */
      691       30
      692       31        VDG$COMPARE_PTRS_W_RANGE: PROC (LOCATION_PTRS, RANGE, WITHIN_RANGE)

     31  0 000000   000000 700200 xent  VDG$COMPARE* TSX0  ! X66_AUTO_3
         0 000001   000012 000003                    ZERO    10,3

      693       32                  ALTRET;
PL6.E3A0      #006=VDG$COMPARE_PTRS_W_RANGE File=VDG$UTILITY.:VDA5TSI            FRI 07/04/97 11:23 Page:107
      694       33
      695       34        %INCLUDE VD_MACROS_M;
      696     2249
      697     2250        %VD$LOCATION_PTRS (NAME=LOCATION_PTRS, STCLASS=PARAM);
      698     2265        %VD$RANGE (NAME=RANGE, STCLASS=PARAM);
      699     2334    1   DCL WITHIN_RANGE SBIN ALIGNED PARAM;
      700     2335
      701     2336
      702     2337
      703     2338    1   DCL INDX UBIN;
      704     2339    1   DCL END_KEY$ PTR;
      705     2340    1   DCL START_KEY$ PTR;
      706     2341    1   DCL RCCL SBIN;
      707     2342
      708     2343
      709     2344        %VD$TEXTC (NAME=START$KEY, STCLASS="BASED(START_KEY$)");
      710     2367        %VD$TEXTC (NAME=END$KEY, STCLASS="BASED(END_KEY$)");
      711     2390        %VD$TEXTC;
      712     2413        %VD$TEXTC_REMOTE;
      713     2474
      714     2475
      715     2476
      716     2477    1           RCCL = %RCCL_EQUAL;

   2477  0 000002   200011 450100                    STZ     RCCL,,AUTO

      717     2478
      718     2479    1   CHECK_THE_PTR_ARRAY:
      719     2480    2           DO INDX = 0 TO LOCATION_PTRS.COUNT# - 1;

   2480  0 000003   200006 450100       CHECK_THE_P* STZ     INDX,,AUTO
         0 000004   000112 710000 0                  TRA     s:2523+3

      720     2481    2              IF RANGE.START.KEY (INDX) = %CLEAR THEN

   2481  0 000005   200006 235100                    LDA     INDX,,AUTO
         0 000006   000003 735000                    ALS     3
PL6.E3A0      #006=VDG$COMPARE_PTRS_W_RANGE File=VDG$UTILITY.:VDA5TSI            FRI 07/04/97 11:23 Page:108
         0 000007   200004 470500                    LDP0    @RANGE,,AUTO
         0 000010   000000 106505                    CMPC    fill='000'O
         0 000011   000000 000010                    ADSC9   0,A,PR0                  cn=0,n=8
         0 000012   000002 000002 xsym               ADSC9   B_VECTNIL+2              cn=0,n=2
         0 000013   000120 600000 0                  TZE     s:2525

      721     2482    2                 EXIT CHECK_THE_PTR_ARRAY;
      722     2483                   %GETKEY (KEY=RANGE.START.KEY, INDX=INDX,
      723     2484                   PTR = START_KEY$ );

   2491  0 000014   200006 236100                    LDQ     INDX,,AUTO
         0 000015   000001 736000                    QLS     1
         0 000016   000000 720106                    LXL0    0,QL,PR0
         0 000017   000002 100003                    CMPX0   2,DU
         0 000020   000025 601000 0                  TNZ     s:2491+9

   2491  0 000021   000001 471506                    LDP1    1,QL,PR0
         0 000022   100002 633500                    EPPR3   2,,PR1
         0 000023   200010 453500                    STP3    START_KEY$,,AUTO
         0 000024   000032 710000 0                  TRA     s:2503

   2491  0 000025   200006 236100                    LDQ     INDX,,AUTO
         0 000026   000023 736000                    QLS     19
         0 000027   000001 036003                    ADLQ    1,DU
         0 000030   200004 036100                    ADLQ    @RANGE,,AUTO
         0 000031   200010 756100                    STQ     START_KEY$,,AUTO

      724     2494                   %GETKEY ( KEY = "RANGE.ENDD.KEY",
      725     2495                   INDX = INDX,
      726     2496                   PTR = END_KEY$ );

   2503  0 000032   200006 236100                    LDQ     INDX,,AUTO
         0 000033   000001 736000                    QLS     1
         0 000034   000011 720106                    LXL0    9,QL,PR0
         0 000035   000002 100003                    CMPX0   2,DU
         0 000036   000043 601000 0                  TNZ     s:2503+9

PL6.E3A0      #006=VDG$COMPARE_PTRS_W_RANGE File=VDG$UTILITY.:VDA5TSI            FRI 07/04/97 11:23 Page:109
   2503  0 000037   000012 471506                    LDP1    10,QL,PR0
         0 000040   100002 633500                    EPPR3   2,,PR1
         0 000041   200007 453500                    STP3    END_KEY$,,AUTO
         0 000042   000050 710000 0                  TRA     s:2507

   2503  0 000043   200006 236100                    LDQ     INDX,,AUTO
         0 000044   000023 736000                    QLS     19
         0 000045   000012 036003                    ADLQ    10,DU
         0 000046   200004 036100                    ADLQ    @RANGE,,AUTO
         0 000047   200007 756100                    STQ     END_KEY$,,AUTO

      727     2506
      728     2507    2              IF LOCATION_PTRS.KEY$ ( INDX ) -> VD$TEXTC.LENGTH# = 0

   2507  0 000050   200003 471500                    LDP1    @LOCATION_PTRS,,AUTO
         0 000051   200006 720100                    LXL0    INDX,,AUTO
         0 000052   100001 473510                    LDP3    1,X0,PR1
         0 000053   300000 236100                    LDQ     0,,PR3
         0 000054   777000 316003                    CANQ    -512,DU
         0 000055   000071 600000 0                  TZE     s:2512
         0 000056   300000 236100                    LDQ     0,,PR3
         0 000057   000033 772000                    QRL     27
         0 000060   200010 474500                    LDP4    START_KEY$,,AUTO
         0 000061   000000 621006                    EAX1    0,QL
         0 000062   400000 236100                    LDQ     0,,PR4
         0 000063   000033 772000                    QRL     27
         0 000064   000000 622006                    EAX2    0,QL
         0 000065   040140 106540                    CMPC    fill='040'O
         0 000066   300000 200011                    ADSC9   0,,PR3                   cn=1,n=*X1
         0 000067   400000 200012                    ADSC9   0,,PR4                   cn=1,n=*X2
         0 000070   000074 603000 0                  TRC     s:2515

      729     2508    2                OR LOCATION_PTRS.KEY$ ( INDX ) -> VD$TEXTC.BYTES <
      730     2509    2                START_KEY$ -> VD$TEXTC.BYTES
      731     2510    2              THEN
      732     2511    3              DO;

PL6.E3A0      #006=VDG$COMPARE_PTRS_W_RANGE File=VDG$UTILITY.:VDA5TSI            FRI 07/04/97 11:23 Page:110
      733     2512    3                 RCCL = %RCCL_LESS;

   2512  0 000071   000001 336007                    LCQ     1,DL
         0 000072   200011 756100                    STQ     RCCL,,AUTO

      734     2513    3                 EXIT CHECK_THE_PTR_ARRAY;

   2513  0 000073   000120 710000 0                  TRA     s:2525

      735     2514    3                 END;
      736     2515    2              IF LOCATION_PTRS.KEY$ ( INDX ) -> VD$TEXTC.BYTES >

   2515  0 000074   200007 475500                    LDP5    END_KEY$,,AUTO
         0 000075   500000 236100                    LDQ     0,,PR5
         0 000076   000033 772000                    QRL     27
         0 000077   000000 623006                    EAX3    0,QL
         0 000100   040140 106540                    CMPC    fill='040'O
         0 000101   500000 200013                    ADSC9   0,,PR5                   cn=1,n=*X3
         0 000102   300000 200011                    ADSC9   0,,PR3                   cn=1,n=*X1
         0 000103   000107 603000 0                  TRC     s:2523

      737     2516    2                END_KEY$ -> VD$TEXTC.BYTES
      738     2517    2              THEN
      739     2518    3              DO;

      740     2519    3                 RCCL = %RCCL_GREATER;

   2519  0 000104   000001 235007                    LDA     1,DL
         0 000105   200011 755100                    STA     RCCL,,AUTO

      741     2520    3                 EXIT CHECK_THE_PTR_ARRAY;

   2520  0 000106   000120 710000 0                  TRA     s:2525

      742     2521    3                 END;
      743     2522
      744     2523    2              END CHECK_THE_PTR_ARRAY;
PL6.E3A0      #006=VDG$COMPARE_PTRS_W_RANGE File=VDG$UTILITY.:VDA5TSI            FRI 07/04/97 11:23 Page:111

   2523  0 000107   200006 235100                    LDA     INDX,,AUTO
         0 000110   000001 035007                    ADLA    1,DL
         0 000111   200006 755100                    STA     INDX,,AUTO
         0 000112   200003 470500                    LDP0    @LOCATION_PTRS,,AUTO
         0 000113   000000 236100                    LDQ     0,,PR0
         0 000114   000777 376007                    ANQ     511,DL
         0 000115   200006 116100                    CMPQ    INDX,,AUTO
         0 000116   000120 600000 0                  TZE     s:2525
         0 000117   000005 603000 0                  TRC     s:2481

      745     2524
      746     2525    1           IF ADDR(WITHIN_RANGE) ~= ADDR(NIL) THEN

   2525  0 000120   200005 236100                    LDQ     @WITHIN_RANGE,,AUTO
         0 000121   000001 116000 xsym               CMPQ    B_VECTNIL+1
         0 000122   000126 600000 0                  TZE     s:2527

      747     2526    1              WITHIN_RANGE = RCCL;

   2526  0 000123   200005 470500                    LDP0    @WITHIN_RANGE,,AUTO
         0 000124   200011 235100                    LDA     RCCL,,AUTO
         0 000125   000000 755100                    STA     0,,PR0

      748     2527    1           IF RCCL ~= %RCCL_EQUAL THEN

   2527  0 000126   200011 235100                    LDA     RCCL,,AUTO
         0 000127   000131 600000 0                  TZE     s:2529

      749     2528    1              ALTRETURN;

   2528  0 000130   000000 702200 xent               TSX2  ! X66_AALT

      750     2529    1           RETURN;

   2529  0 000131   000000 702200 xent               TSX2  ! X66_ARET
      751     2530
PL6.E3A0      #006=VDG$COMPARE_PTRS_W_RANGE File=VDG$UTILITY.:VDA5TSI            FRI 07/04/97 11:23 Page:112
      752     2531    1   END VDG$COMPARE_PTRS_W_RANGE;
      753     2532        %EOD;

PL6.E3A0      #006=VDG$COMPARE_PTRS_W_RANGE File=VDG$UTILITY.:VDA5TSI            FRI 07/04/97 11:23 Page:113
--  Include file information  --

   VD_MACROS_M.:VDA5TOU  is referenced.
   B$JIT_C.:E04TOU  was found in the system file and is never referenced.
   CP_6_C.:E04TOU  was found in the system file and is never referenced.
      No diagnostics issued in procedure VDG$COMPARE_PTRS_W_RANGE.
PL6.E3A0      #006=VDG$COMPARE_PTRS_W_RANGE File=VDG$UTILITY.:VDA5TSI            FRI 07/04/97 11:23 Page:114

 **** Variables and constants ****

  ****  Auto variables  ****

  ****  Scalars and arrays  ****
OctLoc.c.b A Datatyp(siz) R M Lvl/name                 OctLoc.c.b A Datatyp(siz) R M Lvl/name

     3-0-0/w PTR         r     1 @LOCATION_PTRS             4-0-0/w PTR         r     1 @RANGE
     5-0-0/w PTR         r     1 @WITHIN_RANGE              7-0-0/w PTR         r     1 END_KEY$
     6-0-0/w UBIN        r     1 INDX                      *0-0-0/w STRC(180)   r     1 LOCATION_PTRS
    *0-0-0/w STRC(648)   r     1 RANGE                     11-0-0/w SBIN        r     1 RCCL
    10-0-0/w PTR         r     1 START_KEY$                *0-0-0/w SBIN        r     1 WITHIN_RANGE

  ****  BASED and DCB variables  ****

  ****  Scalars and arrays  ****
OctLoc.c.b A Datatyp(siz) R M Lvl/name                 OctLoc.c.b A Datatyp(siz) R M Lvl/name

     0-0-0/w ASTR(9)     r     1 END$KEY                    0-0-0/w ASTR(9)     r     1 START$KEY
     0-0-0/w ASTR(9)     r     1 VD$TEXTC                   0-0-0/w ASTR(81)    r     1 VD$TEXTC_REMOTE


   Procedure VDG$COMPARE_PTRS_W_RANGE requires 90 words for executable code.
   Procedure VDG$COMPARE_PTRS_W_RANGE requires 10 words of local(AUTO) storage.
PL6.E3A0      #006=VDG$COMPARE_PTRS_W_RANGE File=VDG$UTILITY.:VDA5TSI            FRI 07/04/97 11:23 Page:115
          *** CROSS REFERENCE LISTING ***
**     DENOTES     IDENTIFIER DEFINITION
<<                 IDENTIFIER'S VALUE SET
>>                 IDENTIFIER'S VALUE USED
<>                 IDENTIFIER SET AND/OR USED
--                 IDENTIFIER REFERENCED
PL6.E3A0      #006=VDG$COMPARE_PTRS_W_RANGE File=VDG$UTILITY.:VDA5TSI            FRI 07/04/97 11:23 Page:116
          MINI XREF LISTING

CHECK_THE_PTR_ARRAY
      2480**LABEL    2482--EXIT     2513--EXIT     2520--EXIT
END$KEY.LENGTH#
      2383**DCL      2385--IMP-SIZ
END_KEY$
      2339**DCL      2375--IMP-PTR  2503<<ASSIGN   2503<<ASSIGN   2515>>IF       2515>>IF
INDX
      2338**DCL      2480<<DOINDEX  2481>>IF       2491>>IF       2491>>ASSIGN   2491>>ASSIGN   2503>>IF
      2503>>ASSIGN   2503>>ASSIGN   2507>>IF       2507>>IF       2507>>IF       2515>>IF       2515>>IF
LOCATION_PTRS
      2258**DCL        31--PROC
LOCATION_PTRS.COUNT#
      2262**DCL      2480>>DOINDEX
LOCATION_PTRS.KEY$
      2262**DCL      2507>>IF       2507>>IF       2507>>IF       2515>>IF       2515>>IF
RANGE
      2273**DCL        31--PROC
RANGE.ENDD.KEY.REP#
      2329**DCL      2503>>IF
RANGE.ENDD.KEY.V$
      2329**DCL      2503>>ASSIGN   2503--ASSIGN
RANGE.START.KEY
      2299**DCL      2481>>IF
RANGE.START.KEY.REP#
      2301**DCL      2491>>IF
RANGE.START.KEY.V$
      2301**DCL      2491>>ASSIGN   2491--ASSIGN
RCCL
      2341**DCL      2477<<ASSIGN   2512<<ASSIGN   2519<<ASSIGN   2526>>ASSIGN   2527>>IF
START$KEY.LENGTH#
      2360**DCL      2362--IMP-SIZ
START_KEY$
PL6.E3A0      #006=VDG$COMPARE_PTRS_W_RANGE File=VDG$UTILITY.:VDA5TSI            FRI 07/04/97 11:23 Page:117
      2340**DCL      2352--IMP-PTR  2491<<ASSIGN   2491<<ASSIGN   2507>>IF       2507>>IF
VD$TEXTC.BYTES
      2408**DCL      2507>>IF       2507>>IF       2515>>IF       2515>>IF
VD$TEXTC.LENGTH#
      2406**DCL      2408--IMP-SIZ  2507>>IF       2507>>IF       2507>>IF       2515>>IF       2515>>IF
VD$TEXTC_REMOTE.LENGTH#
      2467**DCL      2469--IMP-SIZ  2491--ASSIGN   2503--ASSIGN
WITHIN_RANGE
      2334**DCL        31--PROC     2525--IF       2526<<ASSIGN

PL6.E3A0      #007=VDG$COMPARE_LOC_W_PTRS File=VDG$UTILITY.:VDA5TSI              FRI 07/04/97 11:23 Page:118
      754        1        /*T***********************************************************/
      755        2        /*T*                                                         */
      756        3        /*T* Copyright (c) Bull HN Information Systems Inc., 1997    */
      757        4        /*T*                                                         */
      758        5        /*T***********************************************************/
      759        6
      760        7        /*D* NAME: VDG$COMPARE_LOC_W_PTRS
      761        8            PARAMETERS:
      762        9                LOCATION - VD$LOCATION which is to be checked against a range.
      763       10                    .POSITION and .EOF are used in the comparison.
      764       11                START_PTRS - VD$LOCATION_PTRS specifying the start location
      765       12                    of the range.  .POSITION and .EOF are used in the
      766       13                    comparison.
      767       14                END_PTRS - VD$LOCATION_PTRS specifying the end location
      768       15                    of the range.  .POSITION and .EOF are used in the
      769       16                    comparison.
      770       17                WITHIN_RANGE - Uninitialized SBIN ALIGNED.
      771       18            INPUT:
      772       19                None.
      773       20            OUTPUT:
      774       21                WITHIN_RANGE set based on the comparison:
      775       22                    %RCCL_EQUAL if LOCATION is between START_PTRS and END_PTRS.
      776       23                    %RCCL_LESS if LOCATION is less than START_PTRS and END_PTRS.
      777       24                    %RCCL_GREATER if LOCATION is greater than START_PTRS and END_PTRS.
      778       25                The ALTRETURN is taken if LOCATION is outside the range.
      779       26            DESCRIPTION:
      780       27                Just a routine to avoid code duplication in a few
      781       28                modules.  Checks all the significant levels of a
      782       29                VD$LOCATION to see if they're within the range specified by
      783       30                START_PTRS and END_PTRS (which may have been filled
      784       31                in by VDG$LOCATION_TO_PTRS).
      785       32        */
      786       33
      787       34        VDG$COMPARE_LOC_W_PTRS: PROC (LOCATION, START_PTRS, END_PTRS,
      788       35                  WITHIN_RANGE) ALTRET;
      789       36
      790       37        %INCLUDE VD_MACROS_M;
PL6.E3A0      #007=VDG$COMPARE_LOC_W_PTRS File=VDG$UTILITY.:VDA5TSI              FRI 07/04/97 11:23 Page:119
      791     2252
      792     2253        %VD$LOCATION (NAME=LOCATION, STCLASS=PARAM);
      793     2281        %VD$LOCATION_PTRS (NAME=START_PTRS, STCLASS=PARAM);
      794     2296        %VD$LOCATION_PTRS (NAME=END_PTRS, STCLASS=PARAM);
      795     2311    1   DCL WITHIN_RANGE SBIN ALIGNED PARAM;
      796     2312
      797     2313
      798     2314
      799     2315    1   DCL LOC_EQ_START BIT(1) ALIGNED;
      800     2316    1   DCL LOC_EQ_END BIT(1) ALIGNED;
      801     2317    1   DCL INDX SBIN;
      802     2318    1   DCL LOC_KEY$ PTR;
      803     2319    1   DCL RCCL SBIN;
      804     2320
      805     2321
      806     2322        %VD$TEXTC (NAME=LOC$KEY, STCLASS="BASED(LOC_KEY$)");
      807     2345        %VD$TEXTC;
      808     2368        %VD$TEXTC_REMOTE;
      809     2429
      810     2430
      811     2431
      812     2432    1           RCCL = %RCCL_EQUAL;
      813     2433
      814     2434    2           IF LOCATION.EOF THEN DO;
      815     2435    2              IF NOT END_PTRS.EOF THEN
      816     2436    2                 WITHIN_RANGE = %RCCL_GREATER;
      817     2437    2              END;
      818     2438
      819     2439    1           ELSE IF START_PTRS.EOF THEN
      820     2440    1                 RCCL = %RCCL_LESS;
      821     2441
      822     2442                /*
      823     2443                *   Now we know LOCATION and START_PTRS have keys.
      824     2444                *   Note, however, that END_PTRS may not have keys:  it
      825     2445                *       could be EOF.
      826     2446                */
      827     2447
PL6.E3A0      #007=VDG$COMPARE_LOC_W_PTRS File=VDG$UTILITY.:VDA5TSI              FRI 07/04/97 11:23 Page:120
      828     2448    1           LOC_EQ_START = %TRUE;   /* Temporary assumption */
      829     2449    1           LOC_EQ_END = ~ END_PTRS.EOF;    /* Temp assumption */
      830     2450
      831     2451    1           INDX = 0;
      832     2452    2           DO WHILE RCCL = %RCCL_EQUAL AND INDX < START_PTRS.COUNT#
      833     2453    2             AND (END_PTRS.EOF OR (INDX < END_PTRS.COUNT#));
      834     2454                   %GETKEY (KEY=LOCATION.KEY, INDX=INDX, PTR=LOC_KEY$);
      835     2464    2              IF LOC$KEY.BYTES <
      836     2465    2                START_PTRS.KEY$ (INDX) -> VD$TEXTC.BYTES THEN
      837     2466    2                 RCCL = %RCCL_LESS;       /* Not within range */
      838     2467    2              IF LOC$KEY.BYTES ~=
      839     2468    2                START_PTRS.KEY$ (INDX) -> VD$TEXTC.BYTES THEN
      840     2469    2                 LOC_EQ_START = %FALSE;
      841     2470
      842     2471    3              IF NOT END_PTRS.EOF THEN DO;
      843     2472    3                 IF LOC$KEY.BYTES >
      844     2473    3                   END_PTRS.KEY$ (INDX) -> VD$TEXTC.BYTES THEN
      845     2474    3                    RCCL = %RCCL_GREATER;       /* Not within range */
      846     2475    3                 IF LOC$KEY.BYTES ~=
      847     2476    3                   END_PTRS.KEY$ (INDX) -> VD$TEXTC.BYTES THEN
      848     2477    3                    LOC_EQ_END = %FALSE;
      849     2478    3                 END;
      850     2479    2              INDX = INDX + 1;
      851     2480    2              END;
      852     2481
      853     2482                /*
      854     2483                *   Key-wise, LOCATION seems to be within range.
      855     2484                *   However, if LOCATION's keys match exactly all of
      856     2485                *       either START_PTRS or END_PTRS keys, then
      857     2486                *       we need to check the positions, too.
      858     2487                */
      859     2488
      860     2489    1           IF (LOC_EQ_START
      861     2490    1             AND LOCATION.POSITION# < START_PTRS.POSITION#) THEN
      862     2491    1              RCCL = %RCCL_LESS;
      863     2492    1           IF (LOC_EQ_END
      864     2493    1             AND LOCATION.POSITION# > END_PTRS.POSITION#) THEN
PL6.E3A0      #007=VDG$COMPARE_LOC_W_PTRS File=VDG$UTILITY.:VDA5TSI              FRI 07/04/97 11:23 Page:121
      865     2494    1              RCCL = %RCCL_GREATER;      /* Not within range */
      866     2495
      867     2496    1           IF ADDR(WITHIN_RANGE) ~= ADDR(NIL) THEN
      868     2497    1              WITHIN_RANGE = RCCL;
      869     2498    1           IF RCCL ~= %RCCL_EQUAL THEN
      870     2499    1              ALTRETURN;
      871     2500    1           RETURN;
      872     2501
      873     2502    1   END VDG$COMPARE_LOC_W_PTRS;
      874     2503        %EOD;

PL6.E3A0      #007=VDG$COMPARE_LOC_W_PTRS File=VDG$UTILITY.:VDA5TSI              FRI 07/04/97 11:23 Page:122
--  Include file information  --

   VD_MACROS_M.:VDA5TOU  is referenced.
   B$JIT_C.:E04TOU  was found in the system file and is never referenced.
   CP_6_C.:E04TOU  was found in the system file and is never referenced.
      No diagnostics issued in procedure VDG$COMPARE_LOC_W_PTRS.

   Procedure VDG$COMPARE_LOC_W_PTRS requires 128 words for executable code.
   Procedure VDG$COMPARE_LOC_W_PTRS requires 12 words of local(AUTO) storage.

PL6.E3A0      #007=VDG$COMPARE_LOC_W_PTRS File=VDG$UTILITY.:VDA5TSI              FRI 07/04/97 11:23 Page:123

 Object Unit name= VDG$COMPARE_LOC_W_PTRS                     File name= VDG$UTILITY.:VDA5TOU
 UTS= JUL 04 '97 11:23:43.56 FRI                              Compiler= PL-6/E31         Sev=      00
 SharedLib= :SHARED_SYSTEM                                    Alt SharedLib=


    ****  Control sections  ****

 Sect   Type Bound  Init  Size OctSiz  Section name(segment info)
    0   Proc  even  none   128    200  VDG$COMPARE_LOC_W_PTRS

    ****  Entry defs  ****

                              Check   Calling
                             calling  sequence
  Sect OctLoc Primary Altret sequence   type   Parms  Name
     0      0   yes    yes     yes      Std        4  VDG$COMPARE_LOC_W_PTRS

  ****  Entry refs  ****

         Check        Calling
        calling       sequence
Altret sequence SRef   type   Args  Name
                       nStd      0 X66_AUTO_4
                       Std       0 B_CONSPOOL_D
                       nStd      0 X66_AALT
                       nStd      0 X66_ARET

  ****  Data refs  ****

  Flags:  r = read only, s = secondary
Flgs Name                             Flgs Name                             Flgs Name
     B_VECTNIL
PL6.E3A0      #007=VDG$COMPARE_LOC_W_PTRS File=VDG$UTILITY.:VDA5TSI              FRI 07/04/97 11:23 Page:124


      754        1        /*T***********************************************************/
      755        2        /*T*                                                         */
      756        3        /*T* Copyright (c) Bull HN Information Systems Inc., 1997    */
      757        4        /*T*                                                         */
      758        5        /*T***********************************************************/
      759        6
      760        7        /*D* NAME: VDG$COMPARE_LOC_W_PTRS
      761        8            PARAMETERS:
      762        9                LOCATION - VD$LOCATION which is to be checked against a range.
      763       10                    .POSITION and .EOF are used in the comparison.
      764       11                START_PTRS - VD$LOCATION_PTRS specifying the start location
      765       12                    of the range.  .POSITION and .EOF are used in the
      766       13                    comparison.
      767       14                END_PTRS - VD$LOCATION_PTRS specifying the end location
      768       15                    of the range.  .POSITION and .EOF are used in the
      769       16                    comparison.
      770       17                WITHIN_RANGE - Uninitialized SBIN ALIGNED.
      771       18            INPUT:
      772       19                None.
      773       20            OUTPUT:
      774       21                WITHIN_RANGE set based on the comparison:
      775       22                    %RCCL_EQUAL if LOCATION is between START_PTRS and END_PTRS.
      776       23                    %RCCL_LESS if LOCATION is less than START_PTRS and END_PTRS.
      777       24                    %RCCL_GREATER if LOCATION is greater than START_PTRS and END_PTRS.
      778       25                The ALTRETURN is taken if LOCATION is outside the range.
      779       26            DESCRIPTION:
      780       27                Just a routine to avoid code duplication in a few
      781       28                modules.  Checks all the significant levels of a
      782       29                VD$LOCATION to see if they're within the range specified by
      783       30                START_PTRS and END_PTRS (which may have been filled
      784       31                in by VDG$LOCATION_TO_PTRS).
      785       32        */
      786       33
      787       34        VDG$COMPARE_LOC_W_PTRS: PROC (LOCATION, START_PTRS, END_PTRS,

     34  0 000000   000000 700200 xent  VDG$COMPARE* TSX0  ! X66_AUTO_4
PL6.E3A0      #007=VDG$COMPARE_LOC_W_PTRS File=VDG$UTILITY.:VDA5TSI              FRI 07/04/97 11:23 Page:125
         0 000001   000014 000004                    ZERO    12,4

      788       35                  WITHIN_RANGE) ALTRET;
      789       36
      790       37        %INCLUDE VD_MACROS_M;
      791     2252
      792     2253        %VD$LOCATION (NAME=LOCATION, STCLASS=PARAM);
      793     2281        %VD$LOCATION_PTRS (NAME=START_PTRS, STCLASS=PARAM);
      794     2296        %VD$LOCATION_PTRS (NAME=END_PTRS, STCLASS=PARAM);
      795     2311    1   DCL WITHIN_RANGE SBIN ALIGNED PARAM;
      796     2312
      797     2313
      798     2314
      799     2315    1   DCL LOC_EQ_START BIT(1) ALIGNED;
      800     2316    1   DCL LOC_EQ_END BIT(1) ALIGNED;
      801     2317    1   DCL INDX SBIN;
      802     2318    1   DCL LOC_KEY$ PTR;
      803     2319    1   DCL RCCL SBIN;
      804     2320
      805     2321
      806     2322        %VD$TEXTC (NAME=LOC$KEY, STCLASS="BASED(LOC_KEY$)");
      807     2345        %VD$TEXTC;
      808     2368        %VD$TEXTC_REMOTE;
      809     2429
      810     2430
      811     2431
      812     2432    1           RCCL = %RCCL_EQUAL;

   2432  0 000002   200013 450100                    STZ     RCCL,,AUTO

      813     2433
      814     2434    2           IF LOCATION.EOF THEN DO;

   2434  0 000003   200003 470500                    LDP0    @LOCATION,,AUTO
         0 000004   000010 236100                    LDQ     8,,PR0
         0 000005   400000 316007                    CANQ    -131072,DL
         0 000006   000017 600000 0                  TZE     s:2439
PL6.E3A0      #007=VDG$COMPARE_LOC_W_PTRS File=VDG$UTILITY.:VDA5TSI              FRI 07/04/97 11:23 Page:126

      815     2435    2              IF NOT END_PTRS.EOF THEN

   2435  0 000007   200005 471500                    LDP1    @END_PTRS,,AUTO
         0 000010   100000 236100                    LDQ     0,,PR1
         0 000011   400000 316007                    CANQ    -131072,DL
         0 000012   000025 601000 0                  TNZ     s:2448

      816     2436    2                 WITHIN_RANGE = %RCCL_GREATER;

   2436  0 000013   000001 235007                    LDA     1,DL
         0 000014   200006 473500                    LDP3    @WITHIN_RANGE,,AUTO
         0 000015   300000 755100                    STA     0,,PR3

      817     2437    2              END;

   2437  0 000016   000025 710000 0                  TRA     s:2448

      818     2438
      819     2439    1           ELSE IF START_PTRS.EOF THEN

   2439  0 000017   200004 471500                    LDP1    @START_PTRS,,AUTO
         0 000020   100000 236100                    LDQ     0,,PR1
         0 000021   400000 316007                    CANQ    -131072,DL
         0 000022   000025 600000 0                  TZE     s:2448

      820     2440    1                 RCCL = %RCCL_LESS;

   2440  0 000023   000001 335007                    LCA     1,DL
         0 000024   200013 755100                    STA     RCCL,,AUTO

      821     2441
      822     2442                /*
      823     2443                *   Now we know LOCATION and START_PTRS have keys.
      824     2444                *   Note, however, that END_PTRS may not have keys:  it
      825     2445                *       could be EOF.
      826     2446                */
PL6.E3A0      #007=VDG$COMPARE_LOC_W_PTRS File=VDG$UTILITY.:VDA5TSI              FRI 07/04/97 11:23 Page:127
      827     2447
      828     2448    1           LOC_EQ_START = %TRUE;   /* Temporary assumption */

   2448  0 000025   400000 236003                    LDQ     -131072,DU
         0 000026   200007 756100                    STQ     LOC_EQ_START,,AUTO

      829     2449    1           LOC_EQ_END = ~ END_PTRS.EOF;    /* Temp assumption */

   2449  0 000027   200005 471500                    LDP1    @END_PTRS,,AUTO
         0 000030   100000 236100                    LDQ     0,,PR1
         0 000031   000022 736000                    QLS     18
         0 000032   400000 376003                    ANQ     -131072,DU
         0 000033   400000 676003                    ERQ     -131072,DU
         0 000034   200010 756100                    STQ     LOC_EQ_END,,AUTO

      830     2450
      831     2451    1           INDX = 0;

   2451  0 000035   200011 450100                    STZ     INDX,,AUTO

      832     2452    2           DO WHILE RCCL = %RCCL_EQUAL AND INDX < START_PTRS.COUNT#

   2452  0 000036   000127 710000 0                  TRA     s:2480

      833     2453    2             AND (END_PTRS.EOF OR (INDX < END_PTRS.COUNT#));
      834     2454                   %GETKEY (KEY=LOCATION.KEY, INDX=INDX, PTR=LOC_KEY$);

   2461  0 000037   200011 235100                    LDA     INDX,,AUTO
         0 000040   000001 735000                    ALS     1
         0 000041   200003 470500                    LDP0    @LOCATION,,AUTO
         0 000042   000000 720105                    LXL0    0,AL,PR0
         0 000043   000002 100003                    CMPX0   2,DU
         0 000044   000051 601000 0                  TNZ     s:2461+10

   2461  0 000045   000001 471505                    LDP1    1,AL,PR0
         0 000046   100002 633500                    EPPR3   2,,PR1
         0 000047   200012 453500                    STP3    LOC_KEY$,,AUTO
PL6.E3A0      #007=VDG$COMPARE_LOC_W_PTRS File=VDG$UTILITY.:VDA5TSI              FRI 07/04/97 11:23 Page:128
         0 000050   000056 710000 0                  TRA     s:2464

   2461  0 000051   200011 236100                    LDQ     INDX,,AUTO
         0 000052   000023 736000                    QLS     19
         0 000053   000001 036003                    ADLQ    1,DU
         0 000054   200003 036100                    ADLQ    @LOCATION,,AUTO
         0 000055   200012 756100                    STQ     LOC_KEY$,,AUTO

      835     2464    2              IF LOC$KEY.BYTES <

   2464  0 000056   200012 471500                    LDP1    LOC_KEY$,,AUTO
         0 000057   100000 236100                    LDQ     0,,PR1
         0 000060   000033 772000                    QRL     27
         0 000061   200004 473500                    LDP3    @START_PTRS,,AUTO
         0 000062   200011 721100                    LXL1    INDX,,AUTO
         0 000063   300001 474511                    LDP4    1,X1,PR3
         0 000064   000000 622006                    EAX2    0,QL
         0 000065   400000 236100                    LDQ     0,,PR4
         0 000066   000033 772000                    QRL     27
         0 000067   000000 623006                    EAX3    0,QL
         0 000070   040140 106540                    CMPC    fill='040'O
         0 000071   100000 200012                    ADSC9   0,,PR1                   cn=1,n=*X2
         0 000072   400000 200013                    ADSC9   0,,PR4                   cn=1,n=*X3
         0 000073   000076 603000 0                  TRC     s:2467

      836     2465    2                START_PTRS.KEY$ (INDX) -> VD$TEXTC.BYTES THEN
      837     2466    2                 RCCL = %RCCL_LESS;       /* Not within range */

   2466  0 000074   000001 335007                    LCA     1,DL
         0 000075   200013 755100                    STA     RCCL,,AUTO

      838     2467    2              IF LOC$KEY.BYTES ~=

   2467  0 000076   040140 106540                    CMPC    fill='040'O
         0 000077   100000 200012                    ADSC9   0,,PR1                   cn=1,n=*X2
         0 000100   400000 200013                    ADSC9   0,,PR4                   cn=1,n=*X3
         0 000101   000103 600000 0                  TZE     s:2471
PL6.E3A0      #007=VDG$COMPARE_LOC_W_PTRS File=VDG$UTILITY.:VDA5TSI              FRI 07/04/97 11:23 Page:129

      839     2468    2                START_PTRS.KEY$ (INDX) -> VD$TEXTC.BYTES THEN
      840     2469    2                 LOC_EQ_START = %FALSE;

   2469  0 000102   200007 450100                    STZ     LOC_EQ_START,,AUTO

      841     2470
      842     2471    3              IF NOT END_PTRS.EOF THEN DO;

   2471  0 000103   200005 475500                    LDP5    @END_PTRS,,AUTO
         0 000104   500000 236100                    LDQ     0,,PR5
         0 000105   400000 316007                    CANQ    -131072,DL
         0 000106   000126 601000 0                  TNZ     s:2479

      843     2472    3                 IF LOC$KEY.BYTES >

   2472  0 000107   500001 476511                    LDP6    1,X1,PR5
         0 000110   600000 236100                    LDQ     0,,PR6
         0 000111   000033 772000                    QRL     27
         0 000112   000000 620006                    EAX0    0,QL
         0 000113   040140 106540                    CMPC    fill='040'O
         0 000114   600000 200010                    ADSC9   0,,PR6                   cn=1,n=*X0
         0 000115   100000 200012                    ADSC9   0,,PR1                   cn=1,n=*X2
         0 000116   000121 603000 0                  TRC     s:2475

      844     2473    3                   END_PTRS.KEY$ (INDX) -> VD$TEXTC.BYTES THEN
      845     2474    3                    RCCL = %RCCL_GREATER;       /* Not within range */

   2474  0 000117   000001 235007                    LDA     1,DL
         0 000120   200013 755100                    STA     RCCL,,AUTO

      846     2475    3                 IF LOC$KEY.BYTES ~=

   2475  0 000121   040140 106540                    CMPC    fill='040'O
         0 000122   100000 200012                    ADSC9   0,,PR1                   cn=1,n=*X2
         0 000123   600000 200010                    ADSC9   0,,PR6                   cn=1,n=*X0
         0 000124   000126 600000 0                  TZE     s:2479
PL6.E3A0      #007=VDG$COMPARE_LOC_W_PTRS File=VDG$UTILITY.:VDA5TSI              FRI 07/04/97 11:23 Page:130

      847     2476    3                   END_PTRS.KEY$ (INDX) -> VD$TEXTC.BYTES THEN
      848     2477    3                    LOC_EQ_END = %FALSE;

   2477  0 000125   200010 450100                    STZ     LOC_EQ_END,,AUTO

      849     2478    3                 END;

      850     2479    2              INDX = INDX + 1;

   2479  0 000126   200011 054100                    AOS     INDX,,AUTO

      851     2480    2              END;

   2480  0 000127   200013 235100                    LDA     RCCL,,AUTO
         0 000130   000146 601000 0                  TNZ     s:2489
         0 000131   200004 471500                    LDP1    @START_PTRS,,AUTO
         0 000132   100000 236100                    LDQ     0,,PR1
         0 000133   000777 376007                    ANQ     511,DL
         0 000134   200011 116100                    CMPQ    INDX,,AUTO
         0 000135   000146 604400 0                  TMOZ    s:2489
         0 000136   200005 473500                    LDP3    @END_PTRS,,AUTO
         0 000137   300000 236100                    LDQ     0,,PR3
         0 000140   400000 316007                    CANQ    -131072,DL
         0 000141   000037 601000 0                  TNZ     s:2461
         0 000142   300000 236100                    LDQ     0,,PR3
         0 000143   000777 376007                    ANQ     511,DL
         0 000144   200011 116100                    CMPQ    INDX,,AUTO
         0 000145   000037 605400 0                  TPNZ    s:2461

      852     2481
      853     2482                /*
      854     2483                *   Key-wise, LOCATION seems to be within range.
      855     2484                *   However, if LOCATION's keys match exactly all of
      856     2485                *       either START_PTRS or END_PTRS keys, then
      857     2486                *       we need to check the positions, too.
      858     2487                */
PL6.E3A0      #007=VDG$COMPARE_LOC_W_PTRS File=VDG$UTILITY.:VDA5TSI              FRI 07/04/97 11:23 Page:131
      859     2488
      860     2489    1           IF (LOC_EQ_START

   2489  0 000146   200007 234100                    SZN     LOC_EQ_START,,AUTO
         0 000147   000156 605000 0                  TPL     s:2492
         0 000150   000010 220100                    LDX0    8,,PR0
         0 000151   200004 471500                    LDP1    @START_PTRS,,AUTO
         0 000152   100000 100100                    CMPX0   0,,PR1
         0 000153   000156 605000 0                  TPL     s:2492

      861     2490    1             AND LOCATION.POSITION# < START_PTRS.POSITION#) THEN
      862     2491    1              RCCL = %RCCL_LESS;

   2491  0 000154   000001 336007                    LCQ     1,DL
         0 000155   200013 756100                    STQ     RCCL,,AUTO

      863     2492    1           IF (LOC_EQ_END

   2492  0 000156   200010 234100                    SZN     LOC_EQ_END,,AUTO
         0 000157   000166 605000 0                  TPL     s:2496
         0 000160   000010 220100                    LDX0    8,,PR0
         0 000161   200005 471500                    LDP1    @END_PTRS,,AUTO
         0 000162   100000 100100                    CMPX0   0,,PR1
         0 000163   000166 604400 0                  TMOZ    s:2496

      864     2493    1             AND LOCATION.POSITION# > END_PTRS.POSITION#) THEN
      865     2494    1              RCCL = %RCCL_GREATER;      /* Not within range */

   2494  0 000164   000001 235007                    LDA     1,DL
         0 000165   200013 755100                    STA     RCCL,,AUTO

      866     2495
      867     2496    1           IF ADDR(WITHIN_RANGE) ~= ADDR(NIL) THEN

   2496  0 000166   200006 236100                    LDQ     @WITHIN_RANGE,,AUTO
         0 000167   000001 116000 xsym               CMPQ    B_VECTNIL+1
         0 000170   000174 600000 0                  TZE     s:2498
PL6.E3A0      #007=VDG$COMPARE_LOC_W_PTRS File=VDG$UTILITY.:VDA5TSI              FRI 07/04/97 11:23 Page:132

      868     2497    1              WITHIN_RANGE = RCCL;

   2497  0 000171   200006 471500                    LDP1    @WITHIN_RANGE,,AUTO
         0 000172   200013 235100                    LDA     RCCL,,AUTO
         0 000173   100000 755100                    STA     0,,PR1

      869     2498    1           IF RCCL ~= %RCCL_EQUAL THEN

   2498  0 000174   200013 235100                    LDA     RCCL,,AUTO
         0 000175   000177 600000 0                  TZE     s:2500

      870     2499    1              ALTRETURN;

   2499  0 000176   000000 702200 xent               TSX2  ! X66_AALT

      871     2500    1           RETURN;

   2500  0 000177   000000 702200 xent               TSX2  ! X66_ARET
      872     2501
      873     2502    1   END VDG$COMPARE_LOC_W_PTRS;
      874     2503        %EOD;

PL6.E3A0      #007=VDG$COMPARE_LOC_W_PTRS File=VDG$UTILITY.:VDA5TSI              FRI 07/04/97 11:23 Page:133
--  Include file information  --

   VD_MACROS_M.:VDA5TOU  is referenced.
   B$JIT_C.:E04TOU  was found in the system file and is never referenced.
   CP_6_C.:E04TOU  was found in the system file and is never referenced.
      No diagnostics issued in procedure VDG$COMPARE_LOC_W_PTRS.
PL6.E3A0      #007=VDG$COMPARE_LOC_W_PTRS File=VDG$UTILITY.:VDA5TSI              FRI 07/04/97 11:23 Page:134

 **** Variables and constants ****

  ****  Auto variables  ****

  ****  Scalars and arrays  ****
OctLoc.c.b A Datatyp(siz) R M Lvl/name                 OctLoc.c.b A Datatyp(siz) R M Lvl/name

     5-0-0/w PTR         r     1 @END_PTRS                  3-0-0/w PTR         r     1 @LOCATION
     4-0-0/w PTR         r     1 @START_PTRS                6-0-0/w PTR         r     1 @WITHIN_RANGE
    *0-0-0/w STRC(180)   r     1 END_PTRS                  11-0-0/w SBIN        r     1 INDX
    *0-0-0/w STRC(324)   r     1 LOCATION                  10-0-0/w BIT         r     1 LOC_EQ_END
     7-0-0/w BIT         r     1 LOC_EQ_START              12-0-0/w PTR         r     1 LOC_KEY$
    13-0-0/w SBIN        r     1 RCCL                      *0-0-0/w STRC(180)   r     1 START_PTRS
    *0-0-0/w SBIN        r     1 WITHIN_RANGE

  ****  BASED and DCB variables  ****

  ****  Scalars and arrays  ****
OctLoc.c.b A Datatyp(siz) R M Lvl/name                 OctLoc.c.b A Datatyp(siz) R M Lvl/name

     0-0-0/w ASTR(9)     r     1 LOC$KEY                    0-0-0/w ASTR(9)     r     1 VD$TEXTC
     0-0-0/w ASTR(81)    r     1 VD$TEXTC_REMOTE


   Procedure VDG$COMPARE_LOC_W_PTRS requires 128 words for executable code.
   Procedure VDG$COMPARE_LOC_W_PTRS requires 12 words of local(AUTO) storage.
PL6.E3A0      #007=VDG$COMPARE_LOC_W_PTRS File=VDG$UTILITY.:VDA5TSI              FRI 07/04/97 11:23 Page:135
          *** CROSS REFERENCE LISTING ***
**     DENOTES     IDENTIFIER DEFINITION
<<                 IDENTIFIER'S VALUE SET
>>                 IDENTIFIER'S VALUE USED
<>                 IDENTIFIER SET AND/OR USED
--                 IDENTIFIER REFERENCED
PL6.E3A0      #007=VDG$COMPARE_LOC_W_PTRS File=VDG$UTILITY.:VDA5TSI              FRI 07/04/97 11:23 Page:136
          MINI XREF LISTING

END_PTRS
      2304**DCL        34--PROC
END_PTRS.COUNT#
      2308**DCL      2452>>DOWHILE
END_PTRS.EOF
      2308**DCL      2435>>IF       2449>>ASSIGN   2452>>DOWHILE  2471>>IF
END_PTRS.KEY$
      2308**DCL      2472>>IF       2472>>IF       2475>>IF       2475>>IF
END_PTRS.POSITION#
      2308**DCL      2492>>IF
INDX
      2317**DCL      2451<<ASSIGN   2452>>DOWHILE  2452>>DOWHILE  2461>>IF       2461>>ASSIGN   2461>>ASSIGN
      2464>>IF       2464>>IF       2467>>IF       2467>>IF       2472>>IF       2472>>IF       2475>>IF
      2475>>IF       2479<<ASSIGN   2479>>ASSIGN
LOC$KEY.BYTES
      2340**DCL      2464>>IF       2467>>IF       2472>>IF       2475>>IF
LOC$KEY.LENGTH#
      2338**DCL      2340--IMP-SIZ  2464>>IF       2467>>IF       2472>>IF       2475>>IF
LOCATION
      2261**DCL        34--PROC
LOCATION.EOF
      2279**DCL      2434>>IF
LOCATION.KEY.REP#
      2277**DCL      2461>>IF
LOCATION.KEY.V$
      2277**DCL      2461>>ASSIGN   2461--ASSIGN
LOCATION.POSITION#
      2279**DCL      2489>>IF       2492>>IF
LOC_EQ_END
      2316**DCL      2449<<ASSIGN   2477<<ASSIGN   2492>>IF
LOC_EQ_START
      2315**DCL      2448<<ASSIGN   2469<<ASSIGN   2489>>IF
PL6.E3A0      #007=VDG$COMPARE_LOC_W_PTRS File=VDG$UTILITY.:VDA5TSI              FRI 07/04/97 11:23 Page:137
LOC_KEY$
      2318**DCL      2330--IMP-PTR  2461<<ASSIGN   2461<<ASSIGN   2464>>IF       2464>>IF       2467>>IF
      2467>>IF       2472>>IF       2472>>IF       2475>>IF       2475>>IF
RCCL
      2319**DCL      2432<<ASSIGN   2440<<ASSIGN   2452>>DOWHILE  2466<<ASSIGN   2474<<ASSIGN   2491<<ASSIGN
      2494<<ASSIGN   2497>>ASSIGN   2498>>IF
START_PTRS
      2289**DCL        34--PROC
START_PTRS.COUNT#
      2293**DCL      2452>>DOWHILE
START_PTRS.EOF
      2293**DCL      2439>>IF
START_PTRS.KEY$
      2293**DCL      2464>>IF       2464>>IF       2467>>IF       2467>>IF
START_PTRS.POSITION#
      2293**DCL      2489>>IF
VD$TEXTC.BYTES
      2363**DCL      2464>>IF       2467>>IF       2472>>IF       2475>>IF
VD$TEXTC.LENGTH#
      2361**DCL      2363--IMP-SIZ  2464>>IF       2467>>IF       2472>>IF       2475>>IF
VD$TEXTC_REMOTE.LENGTH#
      2422**DCL      2424--IMP-SIZ  2461--ASSIGN
WITHIN_RANGE
      2311**DCL        34--PROC     2436<<ASSIGN   2496--IF       2497<<ASSIGN

PL6.E3A0      #008=VDG$LOCATION_TO_PTRS File=VDG$UTILITY.:VDA5TSI                FRI 07/04/97 11:23 Page:138
      875        1        /*T***********************************************************/
      876        2        /*T*                                                         */
      877        3        /*T* Copyright (c) Bull HN Information Systems Inc., 1997    */
      878        4        /*T*                                                         */
      879        5        /*T***********************************************************/
      880        6
      881        7        /*D*  NAME:  VDG$LOCATION_TO_PTRS
      882        8              PARAMETERS:
      883        9                  FROM_LOCATION - Typical VD$LOCATION.
      884       10                  VD$LOCATION_PTRS - Uninitialized VD$LOCATION_PTRS structure
      885       11                      which is to be filled in with stuff from the FROM_LOCATION.
      886       12              INPUT:
      887       13                  None.
      888       14              OUTPUT:
      889       15                  VD$LOCATION_PTRS is filled in.
      890       16              DESCRIPTION:
      891       17                  Just a routine to avoid code duplication in a few
      892       18                  modules.  Fills in a VD$LOCATION_PTRS structure with
      893       19                  all the significant levels of a VD$LOCATION by doing
      894       20                  a %GETKEY to ferret out the actual text.  A count at
      895       21                  the top of the VD$LOCATION_PTRS indicates how many
      896       22                  levels of pointers are contained within it.
      897       23        */
      898       24
      899       25        VDG$LOCATION_TO_PTRS: PROC ( FROM_LOCATION,
      900       26                  VD$LOCATION_PTRS )
      901       27                  ALTRET;
      902       28
      903       29          %INCLUDE VD_MACROS_M;
      904     2244
      905     2245                %VD$LOCATION ( NAME = FROM_LOCATION,
      906     2246                STCLASS = PARAM );
      907     2274                %VD$LOCATION_PTRS ( STCLASS = PARAM );
      908     2289
      909     2290    1   DCL PTR_ARRAY_INDEX UBIN;
      910     2291    1   DCL PARAMETER_KEY$ PTR;
      911     2292
PL6.E3A0      #008=VDG$LOCATION_TO_PTRS File=VDG$UTILITY.:VDA5TSI                FRI 07/04/97 11:23 Page:139
      912     2293          %VD$TEXTC_REMOTE;
      913     2354
      914     2355
      915     2356
      916     2357    1           VD$LOCATION_PTRS = %CLEAR;
      917     2358    1           VD$LOCATION_PTRS.POSITION# = FROM_LOCATION.POSITION#;
      918     2359    1           VD$LOCATION_PTRS.EOF = FROM_LOCATION.EOF;
      919     2360
      920     2361    1           IF FROM_LOCATION.EOF THEN
      921     2362    1              RETURN;
      922     2363
      923     2364    1   LOAD_THE_PTR_ARRAY:
      924     2365    2           DO PTR_ARRAY_INDEX = 0 TO %MX_LOCATION_LEVELS - 1;
      925     2366
      926     2367    2              IF FROM_LOCATION.KEY ( PTR_ARRAY_INDEX ) = %CLEAR
      927     2368    2              THEN
      928     2369    3              DO;
      929     2370    3                 VD$LOCATION_PTRS.COUNT# = PTR_ARRAY_INDEX;
      930     2371    3                 RETURN;
      931     2372    3                 END;
      932     2373
      933     2374                   %GETKEY ( KEY = "FROM_LOCATION.KEY",
      934     2375                   INDX = PTR_ARRAY_INDEX,
      935     2376                   PTR = PARAMETER_KEY$ );
      936     2386
      937     2387    2              VD$LOCATION_PTRS.KEY$ ( PTR_ARRAY_INDEX ) =
      938     2388    2                PARAMETER_KEY$;
      939     2389
      940     2390    2              END LOAD_THE_PTR_ARRAY;
      941     2391
      942     2392    1           VD$LOCATION_PTRS.COUNT# = %MX_LOCATION_LEVELS - 1;
      943     2393
      944     2394    1           RETURN;
      945     2395
      946     2396    1   END VDG$LOCATION_TO_PTRS;
      947     2397        %EOD;

PL6.E3A0      #008=VDG$LOCATION_TO_PTRS File=VDG$UTILITY.:VDA5TSI                FRI 07/04/97 11:23 Page:140
--  Include file information  --

   VD_MACROS_M.:VDA5TOU  is referenced.
   B$JIT_C.:E04TOU  was found in the system file and is never referenced.
   CP_6_C.:E04TOU  was found in the system file and is never referenced.
      No diagnostics issued in procedure VDG$LOCATION_TO_PTRS.

   Procedure VDG$LOCATION_TO_PTRS requires 58 words for executable code.
   Procedure VDG$LOCATION_TO_PTRS requires 8 words of local(AUTO) storage.

PL6.E3A0      #008=VDG$LOCATION_TO_PTRS File=VDG$UTILITY.:VDA5TSI                FRI 07/04/97 11:23 Page:141

 Object Unit name= VDG$LOCATION_TO_PTRS                       File name= VDG$UTILITY.:VDA5TOU
 UTS= JUL 04 '97 11:23:50.08 FRI                              Compiler= PL-6/E31         Sev=      00
 SharedLib= :SHARED_SYSTEM                                    Alt SharedLib=


    ****  Control sections  ****

 Sect   Type Bound  Init  Size OctSiz  Section name(segment info)
    0   Proc  even  none    58     72  VDG$LOCATION_TO_PTRS

    ****  Entry defs  ****

                              Check   Calling
                             calling  sequence
  Sect OctLoc Primary Altret sequence   type   Parms  Name
     0      0   yes    yes     yes      Std        2  VDG$LOCATION_TO_PTRS

  ****  Entry refs  ****

         Check        Calling
        calling       sequence
Altret sequence SRef   type   Args  Name
                       nStd      0 X66_AUTO_2
                       Std       0 B_CONSPOOL_D
                       nStd      0 X66_ARET

  ****  Data refs  ****

  Flags:  r = read only, s = secondary
Flgs Name                             Flgs Name                             Flgs Name
     B_VECTNIL
PL6.E3A0      #008=VDG$LOCATION_TO_PTRS File=VDG$UTILITY.:VDA5TSI                FRI 07/04/97 11:23 Page:142


      875        1        /*T***********************************************************/
      876        2        /*T*                                                         */
      877        3        /*T* Copyright (c) Bull HN Information Systems Inc., 1997    */
      878        4        /*T*                                                         */
      879        5        /*T***********************************************************/
      880        6
      881        7        /*D*  NAME:  VDG$LOCATION_TO_PTRS
      882        8              PARAMETERS:
      883        9                  FROM_LOCATION - Typical VD$LOCATION.
      884       10                  VD$LOCATION_PTRS - Uninitialized VD$LOCATION_PTRS structure
      885       11                      which is to be filled in with stuff from the FROM_LOCATION.
      886       12              INPUT:
      887       13                  None.
      888       14              OUTPUT:
      889       15                  VD$LOCATION_PTRS is filled in.
      890       16              DESCRIPTION:
      891       17                  Just a routine to avoid code duplication in a few
      892       18                  modules.  Fills in a VD$LOCATION_PTRS structure with
      893       19                  all the significant levels of a VD$LOCATION by doing
      894       20                  a %GETKEY to ferret out the actual text.  A count at
      895       21                  the top of the VD$LOCATION_PTRS indicates how many
      896       22                  levels of pointers are contained within it.
      897       23        */
      898       24
      899       25        VDG$LOCATION_TO_PTRS: PROC ( FROM_LOCATION,

     25  0 000000   000000 700200 xent  VDG$LOCATIO* TSX0  ! X66_AUTO_2
         0 000001   000010 000002                    ZERO    8,2

      900       26                  VD$LOCATION_PTRS )
      901       27                  ALTRET;
      902       28
      903       29          %INCLUDE VD_MACROS_M;
      904     2244
      905     2245                %VD$LOCATION ( NAME = FROM_LOCATION,
      906     2246                STCLASS = PARAM );
PL6.E3A0      #008=VDG$LOCATION_TO_PTRS File=VDG$UTILITY.:VDA5TSI                FRI 07/04/97 11:23 Page:143
      907     2274                %VD$LOCATION_PTRS ( STCLASS = PARAM );
      908     2289
      909     2290    1   DCL PTR_ARRAY_INDEX UBIN;
      910     2291    1   DCL PARAMETER_KEY$ PTR;
      911     2292
      912     2293          %VD$TEXTC_REMOTE;
      913     2354
      914     2355
      915     2356
      916     2357    1           VD$LOCATION_PTRS = %CLEAR;

   2357  0 000002   200004 470500                    LDP0    @VD$LOCATION_PTRS,,AUTO
         0 000003   000100 100400                    MLR     fill='000'O
         0 000004   000002 000001 xsym               ADSC9   B_VECTNIL+2              cn=0,n=1
         0 000005   000000 000024                    ADSC9   0,,PR0                   cn=0,n=20

      917     2358    1           VD$LOCATION_PTRS.POSITION# = FROM_LOCATION.POSITION#;

   2358  0 000006   200003 471500                    LDP1    @FROM_LOCATION,,AUTO
         0 000007   100010 220100                    LDX0    8,,PR1
         0 000010   000000 740100                    STX0    0,,PR0

      918     2359    1           VD$LOCATION_PTRS.EOF = FROM_LOCATION.EOF;

   2359  0 000011   100010 236100                    LDQ     8,,PR1
         0 000012   000000 676100                    ERQ     0,,PR0
         0 000013   400000 376007                    ANQ     -131072,DL
         0 000014   000000 656100                    ERSQ    0,,PR0

      919     2360
      920     2361    1           IF FROM_LOCATION.EOF THEN

   2361  0 000015   100010 236100                    LDQ     8,,PR1
         0 000016   400000 316007                    CANQ    -131072,DL
         0 000017   000021 600000 0                  TZE     LOAD_THE_PTR_ARRAY

      921     2362    1              RETURN;
PL6.E3A0      #008=VDG$LOCATION_TO_PTRS File=VDG$UTILITY.:VDA5TSI                FRI 07/04/97 11:23 Page:144

   2362  0 000020   000000 702200 xent               TSX2  ! X66_ARET

      922     2363
      923     2364    1   LOAD_THE_PTR_ARRAY:
      924     2365    2           DO PTR_ARRAY_INDEX = 0 TO %MX_LOCATION_LEVELS - 1;

   2365  0 000021   200005 450100       LOAD_THE_PT* STZ     PTR_ARRAY_INDEX,,AUTO
         0 000022   000063 710000 0                  TRA     s:2390+3

      925     2366
      926     2367    2              IF FROM_LOCATION.KEY ( PTR_ARRAY_INDEX ) = %CLEAR

   2367  0 000023   200005 235100                    LDA     PTR_ARRAY_INDEX,,AUTO
         0 000024   000003 735000                    ALS     3
         0 000025   200003 470500                    LDP0    @FROM_LOCATION,,AUTO
         0 000026   000000 106505                    CMPC    fill='000'O
         0 000027   000000 000010                    ADSC9   0,A,PR0                  cn=0,n=8
         0 000030   000002 000002 xsym               ADSC9   B_VECTNIL+2              cn=0,n=2
         0 000031   000036 601000 0                  TNZ     s:2383

      927     2368    2              THEN
      928     2369    3              DO;

      929     2370    3                 VD$LOCATION_PTRS.COUNT# = PTR_ARRAY_INDEX;

   2370  0 000032   200004 471500                    LDP1    @VD$LOCATION_PTRS,,AUTO
         0 000033   200005 236100                    LDQ     PTR_ARRAY_INDEX,,AUTO
         0 000034   100000 552104                    STBQ    0,'04'O,PR1

      930     2371    3                 RETURN;

   2371  0 000035   000000 702200 xent               TSX2  ! X66_ARET

      931     2372    3                 END;
      932     2373
      933     2374                   %GETKEY ( KEY = "FROM_LOCATION.KEY",
PL6.E3A0      #008=VDG$LOCATION_TO_PTRS File=VDG$UTILITY.:VDA5TSI                FRI 07/04/97 11:23 Page:145
      934     2375                   INDX = PTR_ARRAY_INDEX,
      935     2376                   PTR = PARAMETER_KEY$ );

   2383  0 000036   200005 236100                    LDQ     PTR_ARRAY_INDEX,,AUTO
         0 000037   000001 736000                    QLS     1
         0 000040   000000 720106                    LXL0    0,QL,PR0
         0 000041   000002 100003                    CMPX0   2,DU
         0 000042   000047 601000 0                  TNZ     s:2383+9

   2383  0 000043   000001 471506                    LDP1    1,QL,PR0
         0 000044   100002 633500                    EPPR3   2,,PR1
         0 000045   200006 453500                    STP3    PARAMETER_KEY$,,AUTO
         0 000046   000054 710000 0                  TRA     s:2387

   2383  0 000047   200005 236100                    LDQ     PTR_ARRAY_INDEX,,AUTO
         0 000050   000023 736000                    QLS     19
         0 000051   000001 036003                    ADLQ    1,DU
         0 000052   200003 036100                    ADLQ    @FROM_LOCATION,,AUTO
         0 000053   200006 756100                    STQ     PARAMETER_KEY$,,AUTO

      936     2386
      937     2387    2              VD$LOCATION_PTRS.KEY$ ( PTR_ARRAY_INDEX ) =

   2387  0 000054   200006 236100                    LDQ     PARAMETER_KEY$,,AUTO
         0 000055   200004 471500                    LDP1    @VD$LOCATION_PTRS,,AUTO
         0 000056   200005 720100                    LXL0    PTR_ARRAY_INDEX,,AUTO
         0 000057   100001 756110                    STQ     1,X0,PR1

      938     2388    2                PARAMETER_KEY$;
      939     2389
      940     2390    2              END LOAD_THE_PTR_ARRAY;

   2390  0 000060   200005 235100                    LDA     PTR_ARRAY_INDEX,,AUTO
         0 000061   000001 035007                    ADLA    1,DL
         0 000062   200005 755100                    STA     PTR_ARRAY_INDEX,,AUTO
         0 000063   200005 235100                    LDA     PTR_ARRAY_INDEX,,AUTO
         0 000064   000004 115007                    CMPA    4,DL
PL6.E3A0      #008=VDG$LOCATION_TO_PTRS File=VDG$UTILITY.:VDA5TSI                FRI 07/04/97 11:23 Page:146
         0 000065   000023 602000 0                  TNC     s:2367

      941     2391
      942     2392    1           VD$LOCATION_PTRS.COUNT# = %MX_LOCATION_LEVELS - 1;

   2392  0 000066   200004 470500                    LDP0    @VD$LOCATION_PTRS,,AUTO
         0 000067   000003 236007                    LDQ     3,DL
         0 000070   000000 552104                    STBQ    0,'04'O,PR0

      943     2393
      944     2394    1           RETURN;

   2394  0 000071   000000 702200 xent               TSX2  ! X66_ARET
      945     2395
      946     2396    1   END VDG$LOCATION_TO_PTRS;
      947     2397        %EOD;

PL6.E3A0      #008=VDG$LOCATION_TO_PTRS File=VDG$UTILITY.:VDA5TSI                FRI 07/04/97 11:23 Page:147
--  Include file information  --

   VD_MACROS_M.:VDA5TOU  is referenced.
   B$JIT_C.:E04TOU  was found in the system file and is never referenced.
   CP_6_C.:E04TOU  was found in the system file and is never referenced.
      No diagnostics issued in procedure VDG$LOCATION_TO_PTRS.
PL6.E3A0      #008=VDG$LOCATION_TO_PTRS File=VDG$UTILITY.:VDA5TSI                FRI 07/04/97 11:23 Page:148

 **** Variables and constants ****

  ****  Auto variables  ****

  ****  Scalars and arrays  ****
OctLoc.c.b A Datatyp(siz) R M Lvl/name                 OctLoc.c.b A Datatyp(siz) R M Lvl/name

     3-0-0/w PTR         r     1 @FROM_LOCATION             4-0-0/w PTR         r     1 @VD$LOCATION_PTRS
    *0-0-0/w STRC(324)   r     1 FROM_LOCATION              6-0-0/w PTR         r     1 PARAMETER_KEY$
     5-0-0/w UBIN        r     1 PTR_ARRAY_INDEX           *0-0-0/w STRC(180)   r     1 VD$LOCATION_PTRS

  ****  BASED and DCB variables  ****

  ****  Scalars and arrays  ****
OctLoc.c.b A Datatyp(siz) R M Lvl/name                 OctLoc.c.b A Datatyp(siz) R M Lvl/name

     0-0-0/w ASTR(81)    r     1 VD$TEXTC_REMOTE


   Procedure VDG$LOCATION_TO_PTRS requires 58 words for executable code.
   Procedure VDG$LOCATION_TO_PTRS requires 8 words of local(AUTO) storage.
PL6.E3A0      #008=VDG$LOCATION_TO_PTRS File=VDG$UTILITY.:VDA5TSI                FRI 07/04/97 11:23 Page:149
          *** CROSS REFERENCE LISTING ***
**     DENOTES     IDENTIFIER DEFINITION
<<                 IDENTIFIER'S VALUE SET
>>                 IDENTIFIER'S VALUE USED
<>                 IDENTIFIER SET AND/OR USED
--                 IDENTIFIER REFERENCED
PL6.E3A0      #008=VDG$LOCATION_TO_PTRS File=VDG$UTILITY.:VDA5TSI                FRI 07/04/97 11:23 Page:150
          MINI XREF LISTING

FROM_LOCATION
      2254**DCL        25--PROC
FROM_LOCATION.EOF
      2272**DCL      2359>>ASSIGN   2361>>IF
FROM_LOCATION.KEY
      2268**DCL      2367>>IF
FROM_LOCATION.KEY.REP#
      2270**DCL      2383>>IF
FROM_LOCATION.KEY.V$
      2270**DCL      2383>>ASSIGN   2383--ASSIGN
FROM_LOCATION.POSITION#
      2272**DCL      2358>>ASSIGN
PARAMETER_KEY$
      2291**DCL      2383<<ASSIGN   2383<<ASSIGN   2387>>ASSIGN
PTR_ARRAY_INDEX
      2290**DCL      2365<<DOINDEX  2367>>IF       2370>>ASSIGN   2383>>IF       2383>>ASSIGN   2383>>ASSIGN
      2387>>ASSIGN
VD$LOCATION_PTRS
      2282**DCL        25--PROC     2357<<ASSIGN
VD$LOCATION_PTRS.COUNT#
      2286**DCL      2370<<ASSIGN   2392<<ASSIGN
VD$LOCATION_PTRS.EOF
      2286**DCL      2359<<ASSIGN
VD$LOCATION_PTRS.KEY$
      2286**DCL      2387<<ASSIGN
VD$LOCATION_PTRS.POSITION#
      2286**DCL      2358<<ASSIGN
VD$TEXTC_REMOTE.LENGTH#
      2347**DCL      2349--IMP-SIZ  2383--ASSIGN

PL6.E3A0      #009=VDG$BUILD_NEW_REC File=VDG$UTILITY.:VDA5TSI                   FRI 07/04/97 11:23 Page:151
      948        1        /*T***********************************************************/
      949        2        /*T*                                                         */
      950        3        /*T* Copyright (c) Bull HN Information Systems Inc., 1997    */
      951        4        /*T*                                                         */
      952        5        /*T***********************************************************/
      953        6
      954        7        /*D* NAME:  VDG$BUILD_NEW_REC
      955        8            PARAMETERS:
      956        9                TYPE_CODE - is the code to determine whether one or two records
      957       10                            are being passed to VDG$BUILD_NEW_REC. Refer to the
      958       11                            BNR_xxx EQUs for the values of the codes.
      959       12
      960       13                REC1 - is the first VD$NODE_DESC structure.
      961       14                S_POS - is the Start position of the area to be removed.
      962       15                REC2 - is the second VD$NODE_DESC structure.
      963       16                E_POS - is the end position of the area to be removed.
      964       17            INPUT:
      965       18                None.
      966       19            OUTPUT:
      967       20                REC1 - will contain the new record created.
      968       21            DESCRIPTION:
      969       22                Determine what type of operation to be done, i.e. Start record
      970       23                only, End record only, or both records. By using the SIZE#
      971       24                in the VD$BUFFER structure determine whether new dynamic area needs
      972       25                to be allocated. Create the new area, and set REC1 to describe
      973       26                the new record.
      974       27        */
      975       28
      976       29        VDG$BUILD_NEW_REC: PROC (TYPE_CODE, REC1, S_POS, REC2, E_POS) ALTRET;
      977       30
      978       31
      979       32        %INCLUDE VD_MACROS_M;
      980     2247        %INCLUDE VD_PERR_C;
      981     2395
      982     2396
      983     2397    1   DCL TYPE_CODE SBIN;
      984     2398        %VD$NODE_DESC (NAME=REC1, STCLASS=PARAM);
PL6.E3A0      #009=VDG$BUILD_NEW_REC File=VDG$UTILITY.:VDA5TSI                   FRI 07/04/97 11:23 Page:152
      985     2440    1   DCL S_POS SBIN;
      986     2441        %VD$NODE_DESC (NAME=REC2, STCLASS=PARAM);
      987     2483    1   DCL E_POS SBIN;
      988     2484
      989     2485
      990     2486    1   DCL VDG$OALLOC          ENTRY (3) ALTRET;
      991     2487    1   DCL VDG$OFREE           ENTRY (1) ALTRET;
      992     2488    1   DCL VDG$OCOPY           ENTRY (2) ALTRET;
      993     2489    1   DCL VDG$ESCREECH        ENTRY (3);
      994     2490
      995     2491
      996     2492
      997     2493    1   DCL NEW_BUF$ PTR;
      998     2494    1   DCL NW_NEW_BUF SBIN;
      999     2495    1   DCL NB_NEW_REC_DATA SBIN;
     1000     2496    1   DCL NB_REC1_REC_DATA SBIN;
     1001     2497    1   DCL NB_REC2_REC_DATA SBIN;
     1002     2498    1   DCL POS SBIN;
     1003     2499
     1004     2500
     1005     2501        %VD$BUFFER (NAME=REC1$DATA, STCLASS="BASED(REC1.DATA$)");
     1006     2559        %VD$BUFFER (NAME=REC2$DATA, STCLASS="BASED(REC2.DATA$)");
     1007     2617        %VD$BUFFER (NAME=NEW$BUF, STCLASS="BASED(NEW_BUF$)");
     1008     2675        %VD$BUFFER_HEADER;
     1009     2711        %VD$TEXTC_REMOTE;
     1010     2772
     1011     2773
     1012     2774
     1013     2775    1           NEW_BUF$ = ADDR(NIL);
     1014     2776    1           NB_REC1_REC_DATA = 0;
     1015     2777    1           NB_REC2_REC_DATA = 0;
     1016     2778    1           IF REC1.DATA$ ~= ADDR(NIL) THEN
     1017     2779    1              NB_REC1_REC_DATA = REC1$DATA.LENGTH#;
     1018     2780    1           IF REC2.DATA$ ~= ADDR(NIL) THEN
     1019     2781    1              NB_REC2_REC_DATA = REC2$DATA.LENGTH#;
     1020     2782
     1021     2783    2           DO CASE (TYPE_CODE) ;
PL6.E3A0      #009=VDG$BUILD_NEW_REC File=VDG$UTILITY.:VDA5TSI                   FRI 07/04/97 11:23 Page:153
     1022     2784
     1023     2785    2            CASE (%BNR_ON_1_REC) ;
     1024     2786    2              NB_NEW_REC_DATA = NB_REC1_REC_DATA - (E_POS - S_POS);
     1025     2787
     1026     2788    2            CASE (%BNR_ON_2_RECS) ;
     1027     2789    2              NB_NEW_REC_DATA = NB_REC2_REC_DATA - E_POS + S_POS;
     1028     2790
     1029     2791    2            END;
     1030     2792
     1031     2793    1           NW_NEW_BUF = (LENGTHC(VD$BUFFER_HEADER) + NB_NEW_REC_DATA +
     1032     2794    1             %NB_PER_WORD-1) / %NB_PER_WORD;
     1033     2795
     1034     2796    1           NEW_BUF$ = ADDR(NIL);
     1035     2797    1           IF REC1.DATA$ ~= ADDR(NIL) THEN
     1036     2798    1              IF NW_NEW_BUF <= REC1$DATA.OBJECT.SIZE#
     1037     2799    1                AND TYPE_CODE ~= %BNR_ON_1_REC THEN
     1038     2800    1                 NEW_BUF$ = REC1.DATA$;
     1039     2801
     1040     2802    2           IF NEW_BUF$ = ADDR(NIL) THEN DO;
     1041     2803    2              CALL VDG$OALLOC (%CLS_BUFFER, NEW_BUF$, NW_NEW_BUF)
     1042     2804    2                ALTRET (OALLOC_FAILED);
     1043     2805    2              END;
     1044     2806
     1045     2807    2           IF NW_NEW_BUF > 0 THEN DO;
     1046     2808    2   TYPE_CODE_CASES:
     1047     2809    3              DO CASE (TYPE_CODE);
     1048     2810
     1049     2811    3               CASE (%BNR_ON_2_RECS);
     1050     2812    3                 POS = 0;
     1051     2813    3                 NEW$BUF.LENGTH# = NB_NEW_REC_DATA;
     1052     2814    4                 IF NB_REC1_REC_DATA > 0 THEN DO;
     1053     2815    4                    NEW$BUF.BYTES = SUBSTR(REC1$DATA.BYTES, 0, S_POS);
     1054     2816    4                    POS = S_POS;
     1055     2817    4                    END;
     1056     2818    4                 IF NB_REC2_REC_DATA > 0 THEN DO;
     1057     2819    4                    CALL INSERT (NEW$BUF.BYTES, POS, ,
     1058     2820    4                      SUBSTR(REC2$DATA.BYTES, E_POS))
PL6.E3A0      #009=VDG$BUILD_NEW_REC File=VDG$UTILITY.:VDA5TSI                   FRI 07/04/97 11:23 Page:154
     1059     2821    5                    WHENALTRETURN DO;
     1060     2822    5                       CALL VDG$ESCREECH;
     1061     2823    5                       END;
     1062     2824    4                    END;
     1063     2825
     1064     2826    3               CASE (%BNR_ON_1_REC);
     1065     2827    3                 NEW$BUF.BYTES = SUBSTR(REC1$DATA.BYTES, 0, S_POS);
     1066     2828    3                 CALL INSERT (NEW$BUF.BYTES, S_POS, ,
     1067     2829    3                   SUBSTR(REC1$DATA.BYTES, E_POS));
     1068     2830    3                 NEW$BUF.LENGTH# = S_POS + (REC1$DATA.LENGTH# - E_POS);
     1069     2831
     1070     2832    3               END TYPE_CODE_CASES;
     1071     2833    2              END;
     1072     2834
     1073     2835    2           IF NEW_BUF$ ~= REC1.DATA$ THEN DO;
     1074     2836                   /* Free the old REC1 data buffer */
     1075     2837    3              IF REC1.DATA$ ~= ADDR(NIL) THEN DO;
     1076     2838    3                 CALL VDG$OFREE (REC1$DATA)
     1077     2839    3                   ALTRET (OFREE_FAILED);
     1078     2840    3                 END;
     1079     2841    2              REC1.DATA$ = NEW_BUF$;
     1080     2842    2              END;
     1081     2843
     1082     2844    2           IF REC1.KEY = %CLEAR THEN DO;
     1083     2845                   %COPYKEY (FKEY=REC2.KEY, TKEY=REC1.KEY);
     1084     2861    2              END;
     1085     2862    1           IF ((TYPE_CODE = %BNR_ON_2_RECS) AND (REC2.DATA$ ~= ADDR(NIL))) THEN
     1086     2863    1              REC1.EOR = REC2.EOR;
     1087     2864
     1088     2865    2           IF REC2.DATA$ ~= ADDR(NIL) THEN DO;
     1089     2866    2              CALL VDG$OFREE (REC2$DATA)
     1090     2867    2                ALTRET (OFREE_FAILED);
     1091     2868    2              REC2.DATA$ = ADDR(NIL);
     1092     2869    2              END;
     1093     2870
     1094     2871    1           RETURN;
     1095     2872
PL6.E3A0      #009=VDG$BUILD_NEW_REC File=VDG$UTILITY.:VDA5TSI                   FRI 07/04/97 11:23 Page:155
     1096     2873    1   OALLOC_FAILED: ;
     1097     2874    1   OFREE_FAILED: ;
     1098     2875    1   BUILD_NEW_REC_ALTRET: ;
     1099     2876    1           ALTRETURN;
     1100     2877
     1101     2878
     1102     2879    1   END VDG$BUILD_NEW_REC;
     1103     2880        %EOD;

PL6.E3A0      #009=VDG$BUILD_NEW_REC File=VDG$UTILITY.:VDA5TSI                   FRI 07/04/97 11:23 Page:156
--  Include file information  --

   VD_PERR_C.:VDA5TOU  is referenced.
   VD_MACROS_M.:VDA5TOU  is referenced.
   B$JIT_C.:E04TOU  was found in the system file and is never referenced.
   CP_6_C.:E04TOU  was found in the system file and is never referenced.
      No diagnostics issued in procedure VDG$BUILD_NEW_REC.

   Procedure VDG$BUILD_NEW_REC requires 248 words for executable code.
   Procedure VDG$BUILD_NEW_REC requires 18 words of local(AUTO) storage.

PL6.E3A0      #009=VDG$BUILD_NEW_REC File=VDG$UTILITY.:VDA5TSI                   FRI 07/04/97 11:23 Page:157

 Object Unit name= VDG$BUILD_NEW_REC                          File name= VDG$UTILITY.:VDA5TOU
 UTS= JUL 04 '97 11:23:55.00 FRI                              Compiler= PL-6/E31         Sev=      00
 SharedLib= :SHARED_SYSTEM                                    Alt SharedLib=


    ****  Control sections  ****

 Sect   Type Bound  Init  Size OctSiz  Section name(segment info)
    0   Proc  even  none   248    370  VDG$BUILD_NEW_REC
    1  RoData even  none     1      1  VDG$BUILD_NEW_REC

    ****  Entry defs  ****

                              Check   Calling
                             calling  sequence
  Sect OctLoc Primary Altret sequence   type   Parms  Name
     0      0   yes    yes     yes      Std        5  VDG$BUILD_NEW_REC

  ****  Entry refs  ****

         Check        Calling
        calling       sequence
Altret sequence SRef   type   Args  Name
 yes     yes           Std       3 VDG$OALLOC
         yes           Std       3 VDG$ESCREECH
 yes     yes           Std       1 VDG$OFREE
 yes     yes           Std       2 VDG$OCOPY
                       nStd      0 X66_AUTO_5
                       Std       0 B_CONSPOOL_D
                       nStd      0 X66_AALT
                       nStd      0 X66_ARET
PL6.E3A0      #009=VDG$BUILD_NEW_REC File=VDG$UTILITY.:VDA5TSI                   FRI 07/04/97 11:23 Page:158

  ****  Data refs  ****

  Flags:  r = read only, s = secondary
Flgs Name                             Flgs Name                             Flgs Name
     B_VECTNIL

  ****  Segment refs  ****

  Flags:  r = read only, s = secondary
Flgs Name                             Flgs Name                             Flgs Name
     ISSID
PL6.E3A0      #009=VDG$BUILD_NEW_REC File=VDG$UTILITY.:VDA5TSI                   FRI 07/04/97 11:23 Page:159


      948        1        /*T***********************************************************/
      949        2        /*T*                                                         */
      950        3        /*T* Copyright (c) Bull HN Information Systems Inc., 1997    */
      951        4        /*T*                                                         */
      952        5        /*T***********************************************************/
      953        6
      954        7        /*D* NAME:  VDG$BUILD_NEW_REC
      955        8            PARAMETERS:
      956        9                TYPE_CODE - is the code to determine whether one or two records
      957       10                            are being passed to VDG$BUILD_NEW_REC. Refer to the
      958       11                            BNR_xxx EQUs for the values of the codes.
      959       12
      960       13                REC1 - is the first VD$NODE_DESC structure.
      961       14                S_POS - is the Start position of the area to be removed.
      962       15                REC2 - is the second VD$NODE_DESC structure.
      963       16                E_POS - is the end position of the area to be removed.
      964       17            INPUT:
      965       18                None.
      966       19            OUTPUT:
      967       20                REC1 - will contain the new record created.
      968       21            DESCRIPTION:
      969       22                Determine what type of operation to be done, i.e. Start record
      970       23                only, End record only, or both records. By using the SIZE#
      971       24                in the VD$BUFFER structure determine whether new dynamic area needs
      972       25                to be allocated. Create the new area, and set REC1 to describe
      973       26                the new record.
      974       27        */
      975       28
      976       29        VDG$BUILD_NEW_REC: PROC (TYPE_CODE, REC1, S_POS, REC2, E_POS) ALTRET;

     29  0 000000   000000 700200 xent  VDG$BUILD_N* TSX0  ! X66_AUTO_5
         0 000001   000022 000005                    ZERO    18,5

      977       30
      978       31
      979       32        %INCLUDE VD_MACROS_M;
PL6.E3A0      #009=VDG$BUILD_NEW_REC File=VDG$UTILITY.:VDA5TSI                   FRI 07/04/97 11:23 Page:160
      980     2247        %INCLUDE VD_PERR_C;
      981     2395
      982     2396
      983     2397    1   DCL TYPE_CODE SBIN;
      984     2398        %VD$NODE_DESC (NAME=REC1, STCLASS=PARAM);
      985     2440    1   DCL S_POS SBIN;
      986     2441        %VD$NODE_DESC (NAME=REC2, STCLASS=PARAM);
      987     2483    1   DCL E_POS SBIN;
      988     2484
      989     2485
      990     2486    1   DCL VDG$OALLOC          ENTRY (3) ALTRET;
      991     2487    1   DCL VDG$OFREE           ENTRY (1) ALTRET;
      992     2488    1   DCL VDG$OCOPY           ENTRY (2) ALTRET;
      993     2489    1   DCL VDG$ESCREECH        ENTRY (3);
      994     2490
      995     2491
      996     2492
      997     2493    1   DCL NEW_BUF$ PTR;
      998     2494    1   DCL NW_NEW_BUF SBIN;
      999     2495    1   DCL NB_NEW_REC_DATA SBIN;
     1000     2496    1   DCL NB_REC1_REC_DATA SBIN;
     1001     2497    1   DCL NB_REC2_REC_DATA SBIN;
     1002     2498    1   DCL POS SBIN;
     1003     2499
     1004     2500
     1005     2501        %VD$BUFFER (NAME=REC1$DATA, STCLASS="BASED(REC1.DATA$)");
     1006     2559        %VD$BUFFER (NAME=REC2$DATA, STCLASS="BASED(REC2.DATA$)");
     1007     2617        %VD$BUFFER (NAME=NEW$BUF, STCLASS="BASED(NEW_BUF$)");
     1008     2675        %VD$BUFFER_HEADER;
     1009     2711        %VD$TEXTC_REMOTE;
     1010     2772
     1011     2773
     1012     2774
     1013     2775    1           NEW_BUF$ = ADDR(NIL);

   2775  0 000002   000001 236000 xsym               LDQ     B_VECTNIL+1
         0 000003   200010 756100                    STQ     NEW_BUF$,,AUTO
PL6.E3A0      #009=VDG$BUILD_NEW_REC File=VDG$UTILITY.:VDA5TSI                   FRI 07/04/97 11:23 Page:161

     1014     2776    1           NB_REC1_REC_DATA = 0;

   2776  0 000004   200013 450100                    STZ     NB_REC1_REC_DATA,,AUTO

     1015     2777    1           NB_REC2_REC_DATA = 0;

   2777  0 000005   200014 450100                    STZ     NB_REC2_REC_DATA,,AUTO

     1016     2778    1           IF REC1.DATA$ ~= ADDR(NIL) THEN

   2778  0 000006   200004 470500                    LDP0    @REC1,,AUTO
         0 000007   000004 236100                    LDQ     4,,PR0
         0 000010   000001 116000 xsym               CMPQ    B_VECTNIL+1
         0 000011   000016 600000 0                  TZE     s:2780

     1017     2779    1              NB_REC1_REC_DATA = REC1$DATA.LENGTH#;

   2779  0 000012   000004 471500                    LDP1    4,,PR0
         0 000013   100002 236100                    LDQ     2,,PR1
         0 000014   000022 732000                    QRS     18
         0 000015   200013 756100                    STQ     NB_REC1_REC_DATA,,AUTO

     1018     2780    1           IF REC2.DATA$ ~= ADDR(NIL) THEN

   2780  0 000016   200006 471500                    LDP1    @REC2,,AUTO
         0 000017   100004 236100                    LDQ     4,,PR1
         0 000020   000001 116000 xsym               CMPQ    B_VECTNIL+1
         0 000021   000026 600000 0                  TZE     s:2783

     1019     2781    1              NB_REC2_REC_DATA = REC2$DATA.LENGTH#;

   2781  0 000022   100004 473500                    LDP3    4,,PR1
         0 000023   300002 236100                    LDQ     2,,PR3
         0 000024   000022 732000                    QRS     18
         0 000025   200014 756100                    STQ     NB_REC2_REC_DATA,,AUTO

PL6.E3A0      #009=VDG$BUILD_NEW_REC File=VDG$UTILITY.:VDA5TSI                   FRI 07/04/97 11:23 Page:162
     1020     2782
     1021     2783    2           DO CASE (TYPE_CODE) ;

   2783  0 000026   200003 473500                    LDP3    @TYPE_CODE,,AUTO
         0 000027   300000 235100                    LDA     0,,PR3
         0 000030   000003 115007                    CMPA    3,DL
         0 000031   000033 602005 0                  TNC     s:2783+5,AL
         0 000032   000055 710000 0                  TRA     s:2793
         0 000033   000055 710000 0                  TRA     s:2793
         0 000034   000036 710000 0                  TRA     s:2786
         0 000035   000047 710000 0                  TRA     s:2789

     1022     2784
     1023     2785    2            CASE (%BNR_ON_1_REC) ;

     1024     2786    2              NB_NEW_REC_DATA = NB_REC1_REC_DATA - (E_POS - S_POS);

   2786  0 000036   200005 474500                    LDP4    @S_POS,,AUTO
         0 000037   200007 475500                    LDP5    @E_POS,,AUTO
         0 000040   500000 236100                    LDQ     0,,PR5
         0 000041   400000 136100                    SBLQ    0,,PR4
         0 000042   200016 756100                    STQ     POS+1,,AUTO
         0 000043   200013 236100                    LDQ     NB_REC1_REC_DATA,,AUTO
         0 000044   200016 136100                    SBLQ    POS+1,,AUTO
         0 000045   200012 756100                    STQ     NB_NEW_REC_DATA,,AUTO
         0 000046   000055 710000 0                  TRA     s:2793

     1025     2787
     1026     2788    2            CASE (%BNR_ON_2_RECS) ;

     1027     2789    2              NB_NEW_REC_DATA = NB_REC2_REC_DATA - E_POS + S_POS;

   2789  0 000047   200007 474500                    LDP4    @E_POS,,AUTO
         0 000050   200014 236100                    LDQ     NB_REC2_REC_DATA,,AUTO
         0 000051   400000 136100                    SBLQ    0,,PR4
         0 000052   200005 475500                    LDP5    @S_POS,,AUTO
         0 000053   500000 036100                    ADLQ    0,,PR5
PL6.E3A0      #009=VDG$BUILD_NEW_REC File=VDG$UTILITY.:VDA5TSI                   FRI 07/04/97 11:23 Page:163
         0 000054   200012 756100                    STQ     NB_NEW_REC_DATA,,AUTO

     1028     2790
     1029     2791    2            END;

     1030     2792
     1031     2793    1           NW_NEW_BUF = (LENGTHC(VD$BUFFER_HEADER) + NB_NEW_REC_DATA +

   2793  0 000055   200012 236100                    LDQ     NB_NEW_REC_DATA,,AUTO
         0 000056   000015 036007                    ADLQ    13,DL
         0 000057   000004 506007                    DIV     4,DL
         0 000060   200011 756100                    STQ     NW_NEW_BUF,,AUTO

     1032     2794    1             %NB_PER_WORD-1) / %NB_PER_WORD;
     1033     2795
     1034     2796    1           NEW_BUF$ = ADDR(NIL);

   2796  0 000061   000001 236000 xsym               LDQ     B_VECTNIL+1
         0 000062   200010 756100                    STQ     NEW_BUF$,,AUTO

     1035     2797    1           IF REC1.DATA$ ~= ADDR(NIL) THEN

   2797  0 000063   000004 236100                    LDQ     4,,PR0
         0 000064   000001 116000 xsym               CMPQ    B_VECTNIL+1
         0 000065   000101 600000 0                  TZE     s:2802

     1036     2798    1              IF NW_NEW_BUF <= REC1$DATA.OBJECT.SIZE#

   2798  0 000066   000004 474500                    LDP4    4,,PR0
         0 000067   400000 236100                    LDQ     0,,PR4
         0 000070   000022 736000                    QLS     18
         0 000071   000022 732000                    QRS     18
         0 000072   200011 116100                    CMPQ    NW_NEW_BUF,,AUTO
         0 000073   000101 604000 0                  TMI     s:2802
         0 000074   300000 235100                    LDA     0,,PR3
         0 000075   000001 115007                    CMPA    1,DL
         0 000076   000101 600000 0                  TZE     s:2802
PL6.E3A0      #009=VDG$BUILD_NEW_REC File=VDG$UTILITY.:VDA5TSI                   FRI 07/04/97 11:23 Page:164

     1037     2799    1                AND TYPE_CODE ~= %BNR_ON_1_REC THEN
     1038     2800    1                 NEW_BUF$ = REC1.DATA$;

   2800  0 000077   000004 236100                    LDQ     4,,PR0
         0 000100   200010 756100                    STQ     NEW_BUF$,,AUTO

     1039     2801
     1040     2802    2           IF NEW_BUF$ = ADDR(NIL) THEN DO;

   2802  0 000101   200010 236100                    LDQ     NEW_BUF$,,AUTO
         0 000102   000001 116000 xsym               CMPQ    B_VECTNIL+1
         0 000103   000116 601000 0                  TNZ     s:2807

     1041     2803    2              CALL VDG$OALLOC (%CLS_BUFFER, NEW_BUF$, NW_NEW_BUF)

   2803  0 000104   200011 634500                    EPPR4   NW_NEW_BUF,,AUTO
         0 000105   200020 454500                    STP4    POS+3,,AUTO
         0 000106   200010 635500                    EPPR5   NEW_BUF$,,AUTO
         0 000107   200017 455500                    STP5    POS+2,,AUTO
         0 000110   000000 236000 1                  LDQ     0
         0 000111   200016 756100                    STQ     POS+1,,AUTO
         0 000112   200016 630500                    EPPR0   POS+1,,AUTO
         0 000113   000021 631400 xsym               EPPR1   B_VECTNIL+17
         0 000114   000000 701000 xent               TSX1    VDG$OALLOC
         0 000115   000367 702000 0                  TSX2    OALLOC_FAILED

     1042     2804    2                ALTRET (OALLOC_FAILED);
     1043     2805    2              END;

     1044     2806
     1045     2807    2           IF NW_NEW_BUF > 0 THEN DO;

   2807  0 000116   200011 235100                    LDA     NW_NEW_BUF,,AUTO
         0 000117   000266 604400 0                  TMOZ    s:2835

     1046     2808    2   TYPE_CODE_CASES:
PL6.E3A0      #009=VDG$BUILD_NEW_REC File=VDG$UTILITY.:VDA5TSI                   FRI 07/04/97 11:23 Page:165
     1047     2809    3              DO CASE (TYPE_CODE);

   2809  0 000120   200003 470500       TYPE_CODE_C* LDP0    @TYPE_CODE,,AUTO
         0 000121   000000 235100                    LDA     0,,PR0
         0 000122   000003 115007                    CMPA    3,DL
         0 000123   000125 602005 0                  TNC     TYPE_CODE_CASES+5,AL
         0 000124   000266 710000 0                  TRA     s:2835
         0 000125   000266 710000 0                  TRA     s:2835
         0 000126   000215 710000 0                  TRA     s:2827
         0 000127   000130 710000 0                  TRA     s:2812

     1048     2810
     1049     2811    3               CASE (%BNR_ON_2_RECS);

     1050     2812    3                 POS = 0;

   2812  0 000130   200015 450100                    STZ     POS,,AUTO

     1051     2813    3                 NEW$BUF.LENGTH# = NB_NEW_REC_DATA;

   2813  0 000131   200012 720100                    LXL0    NB_NEW_REC_DATA,,AUTO
         0 000132   200010 471500                    LDP1    NEW_BUF$,,AUTO
         0 000133   100002 740100                    STX0    2,,PR1

     1052     2814    4                 IF NB_REC1_REC_DATA > 0 THEN DO;

   2814  0 000134   200013 235100                    LDA     NB_REC1_REC_DATA,,AUTO
         0 000135   000152 604400 0                  TMOZ    s:2818

     1053     2815    4                    NEW$BUF.BYTES = SUBSTR(REC1$DATA.BYTES, 0, S_POS);

   2815  0 000136   200010 471500                    LDP1    NEW_BUF$,,AUTO
         0 000137   100002 221100                    LDX1    2,,PR1
         0 000140   200004 473500                    LDP3    @REC1,,AUTO
         0 000141   300004 474500                    LDP4    4,,PR3
         0 000142   400002 222100                    LDX2    2,,PR4
         0 000143   200005 475500                    LDP5    @S_POS,,AUTO
PL6.E3A0      #009=VDG$BUILD_NEW_REC File=VDG$UTILITY.:VDA5TSI                   FRI 07/04/97 11:23 Page:166
         0 000144   500000 723100                    LXL3    0,,PR5
         0 000145   040140 100540                    MLR     fill='040'O
         0 000146   400002 400013                    ADSC9   2,,PR4                   cn=2,n=*X3
         0 000147   100002 400011                    ADSC9   2,,PR1                   cn=2,n=*X1

     1054     2816    4                    POS = S_POS;

   2816  0 000150   500000 235100                    LDA     0,,PR5
         0 000151   200015 755100                    STA     POS,,AUTO

     1055     2817    4                    END;

     1056     2818    4                 IF NB_REC2_REC_DATA > 0 THEN DO;

   2818  0 000152   200014 235100                    LDA     NB_REC2_REC_DATA,,AUTO
         0 000153   000266 604400 0                  TMOZ    s:2835

     1057     2819    4                    CALL INSERT (NEW$BUF.BYTES, POS, ,

   2819  0 000154   200010 471500                    LDP1    NEW_BUF$,,AUTO
         0 000155   100002 221100                    LDX1    2,,PR1
         0 000156   200006 473500                    LDP3    @REC2,,AUTO
         0 000157   300004 474500                    LDP4    4,,PR3
         0 000160   400002 222100                    LDX2    2,,PR4
         0 000161   200007 475500                    LDP5    @E_POS,,AUTO
         0 000162   000000 636012                    EAQ     0,X2
         0 000163   000022 732000                    QRS     18
         0 000164   500000 136100                    SBLQ    0,,PR5
         0 000165   500000 235100                    LDA     0,,PR5
         0 000166   200016 756100                    STQ     POS+1,,AUTO
         0 000167   000000 636011                    EAQ     0,X1
         0 000170   000022 732000                    QRS     18
         0 000171   200015 136100                    SBLQ    POS,,AUTO
         0 000172   200016 721100                    LXL1    POS+1,,AUTO
         0 000173   000000 622006                    EAX2    0,QL
         0 000174   200017 756100                    STQ     POS+2,,AUTO
         0 000175   200015 236100                    LDQ     POS,,AUTO
PL6.E3A0      #009=VDG$BUILD_NEW_REC File=VDG$UTILITY.:VDA5TSI                   FRI 07/04/97 11:23 Page:167
         0 000176   040146 100545                    MLR     fill='040'O
         0 000177   400002 400011                    ADSC9   2,A,PR4                  cn=2,n=*X1
         0 000200   100002 400012                    ADSC9   2,Q,PR1                  cn=2,n=*X2
         0 000201   200016 236100                    LDQ     POS+1,,AUTO
         0 000202   000011 402007                    MPY     9,DL
         0 000203   200020 756100                    STQ     POS+3,,AUTO
         0 000204   200017 236100                    LDQ     POS+2,,AUTO
         0 000205   000011 402007                    MPY     9,DL
         0 000206   200020 116100                    CMPQ    POS+3,,AUTO
         0 000207   000211 604000 0                  TMI     s:2822
         0 000210   000214 710000 0                  TRA     s:2824

     1058     2820    4                      SUBSTR(REC2$DATA.BYTES, E_POS))
     1059     2821    5                    WHENALTRETURN DO;

     1060     2822    5                       CALL VDG$ESCREECH;

   2822  0 000211   000002 631400 xsym               EPPR1   B_VECTNIL+2
         0 000212   000000 701000 xent               TSX1    VDG$ESCREECH
         0 000213   000000 011000                    NOP     0

     1061     2823    5                       END;

     1062     2824    4                    END;

   2824  0 000214   000266 710000 0                  TRA     s:2835

     1063     2825
     1064     2826    3               CASE (%BNR_ON_1_REC);

     1065     2827    3                 NEW$BUF.BYTES = SUBSTR(REC1$DATA.BYTES, 0, S_POS);

   2827  0 000215   200010 471500                    LDP1    NEW_BUF$,,AUTO
         0 000216   100002 220100                    LDX0    2,,PR1
         0 000217   200004 473500                    LDP3    @REC1,,AUTO
         0 000220   300004 474500                    LDP4    4,,PR3
         0 000221   400002 221100                    LDX1    2,,PR4
PL6.E3A0      #009=VDG$BUILD_NEW_REC File=VDG$UTILITY.:VDA5TSI                   FRI 07/04/97 11:23 Page:168
         0 000222   200005 475500                    LDP5    @S_POS,,AUTO
         0 000223   500000 722100                    LXL2    0,,PR5
         0 000224   040140 100540                    MLR     fill='040'O
         0 000225   400002 400012                    ADSC9   2,,PR4                   cn=2,n=*X2
         0 000226   100002 400010                    ADSC9   2,,PR1                   cn=2,n=*X0

     1066     2828    3                 CALL INSERT (NEW$BUF.BYTES, S_POS, ,

   2828  0 000227   200010 471500                    LDP1    NEW_BUF$,,AUTO
         0 000230   100002 220100                    LDX0    2,,PR1
         0 000231   300004 474500                    LDP4    4,,PR3
         0 000232   400002 221100                    LDX1    2,,PR4
         0 000233   200007 476500                    LDP6    @E_POS,,AUTO
         0 000234   000000 636011                    EAQ     0,X1
         0 000235   000022 732000                    QRS     18
         0 000236   600000 136100                    SBLQ    0,,PR6
         0 000237   600000 235100                    LDA     0,,PR6
         0 000240   200016 756100                    STQ     POS+1,,AUTO
         0 000241   000000 636010                    EAQ     0,X0
         0 000242   000022 732000                    QRS     18
         0 000243   500000 136100                    SBLQ    0,,PR5
         0 000244   200017 755100                    STA     POS+2,,AUTO
         0 000245   500000 235100                    LDA     0,,PR5
         0 000246   200016 720100                    LXL0    POS+1,,AUTO
         0 000247   200020 755100                    STA     POS+3,,AUTO
         0 000250   200017 235100                    LDA     POS+2,,AUTO
         0 000251   000000 621006                    EAX1    0,QL
         0 000252   200020 236100                    LDQ     POS+3,,AUTO
         0 000253   040146 100545                    MLR     fill='040'O
         0 000254   400002 400010                    ADSC9   2,A,PR4                  cn=2,n=*X0
         0 000255   100002 400011                    ADSC9   2,Q,PR1                  cn=2,n=*X1

     1067     2829    3                   SUBSTR(REC1$DATA.BYTES, E_POS));
     1068     2830    3                 NEW$BUF.LENGTH# = S_POS + (REC1$DATA.LENGTH# - E_POS);

   2830  0 000256   300004 471500                    LDP1    4,,PR3
         0 000257   100002 236100                    LDQ     2,,PR1
PL6.E3A0      #009=VDG$BUILD_NEW_REC File=VDG$UTILITY.:VDA5TSI                   FRI 07/04/97 11:23 Page:169
         0 000260   000022 732000                    QRS     18
         0 000261   600000 136100                    SBLQ    0,,PR6
         0 000262   500000 036100                    ADLQ    0,,PR5
         0 000263   000000 620006                    EAX0    0,QL
         0 000264   200010 474500                    LDP4    NEW_BUF$,,AUTO
         0 000265   400002 740100                    STX0    2,,PR4

     1069     2831
     1070     2832    3               END TYPE_CODE_CASES;

     1071     2833    2              END;

     1072     2834
     1073     2835    2           IF NEW_BUF$ ~= REC1.DATA$ THEN DO;

   2835  0 000266   200004 470500                    LDP0    @REC1,,AUTO
         0 000267   200010 236100                    LDQ     NEW_BUF$,,AUTO
         0 000270   000004 116100                    CMPQ    4,,PR0
         0 000271   000306 600000 0                  TZE     s:2844

     1074     2836                   /* Free the old REC1 data buffer */
     1075     2837    3              IF REC1.DATA$ ~= ADDR(NIL) THEN DO;

   2837  0 000272   000004 236100                    LDQ     4,,PR0
         0 000273   000001 116000 xsym               CMPQ    B_VECTNIL+1
         0 000274   000303 600000 0                  TZE     s:2841

     1076     2838    3                 CALL VDG$OFREE (REC1$DATA)

   2838  0 000275   000004 471500                    LDP1    4,,PR0
         0 000276   200016 451500                    STP1    POS+1,,AUTO
         0 000277   200016 630500                    EPPR0   POS+1,,AUTO
         0 000300   000017 631400 xsym               EPPR1   B_VECTNIL+15
         0 000301   000000 701000 xent               TSX1    VDG$OFREE
         0 000302   000367 702000 0                  TSX2    OALLOC_FAILED

     1077     2839    3                   ALTRET (OFREE_FAILED);
PL6.E3A0      #009=VDG$BUILD_NEW_REC File=VDG$UTILITY.:VDA5TSI                   FRI 07/04/97 11:23 Page:170
     1078     2840    3                 END;

     1079     2841    2              REC1.DATA$ = NEW_BUF$;

   2841  0 000303   200010 236100                    LDQ     NEW_BUF$,,AUTO
         0 000304   200004 470500                    LDP0    @REC1,,AUTO
         0 000305   000004 756100                    STQ     4,,PR0

     1080     2842    2              END;

     1081     2843
     1082     2844    2           IF REC1.KEY = %CLEAR THEN DO;

   2844  0 000306   000000 106500                    CMPC    fill='000'O
         0 000307   000000 000010                    ADSC9   0,,PR0                   cn=0,n=8
         0 000310   000002 000002 xsym               ADSC9   B_VECTNIL+2              cn=0,n=2
         0 000311   000334 601000 0                  TNZ     s:2862

     1083     2845                   %COPYKEY (FKEY=REC2.KEY, TKEY=REC1.KEY);

   2858  0 000312   200006 471500                    LDP1    @REC2,,AUTO
         0 000313   000100 100500                    MLR     fill='000'O
         0 000314   100000 000010                    ADSC9   0,,PR1                   cn=0,n=8
         0 000315   000000 000010                    ADSC9   0,,PR0                   cn=0,n=8

   2858  0 000316   100000 720100                    LXL0    0,,PR1
         0 000317   000002 100003                    CMPX0   2,DU
         0 000320   000334 601000 0                  TNZ     s:2862

   2858  0 000321   100001 473500                    LDP3    1,,PR1
         0 000322   200004 236100                    LDQ     @REC1,,AUTO
         0 000323   000001 036003                    ADLQ    1,DU
         0 000324   200017 756100                    STQ     POS+2,,AUTO
         0 000325   200016 453500                    STP3    POS+1,,AUTO
         0 000326   200016 630500                    EPPR0   POS+1,,AUTO
         0 000327   000020 631400 xsym               EPPR1   B_VECTNIL+16
         0 000330   000000 701000 xent               TSX1    VDG$OCOPY
PL6.E3A0      #009=VDG$BUILD_NEW_REC File=VDG$UTILITY.:VDA5TSI                   FRI 07/04/97 11:23 Page:171
         0 000331   000333 702000 0                  TSX2    s:2859
         0 000332   000334 710000 0                  TRA     s:2862

   2859  0 000333   000000 702200 xent               TSX2  ! X66_AALT

     1084     2861    2              END;

     1085     2862    1           IF ((TYPE_CODE = %BNR_ON_2_RECS) AND (REC2.DATA$ ~= ADDR(NIL))) THEN

   2862  0 000334   200003 470500                    LDP0    @TYPE_CODE,,AUTO
         0 000335   000000 235100                    LDA     0,,PR0
         0 000336   000002 115007                    CMPA    2,DL
         0 000337   000351 601000 0                  TNZ     s:2865
         0 000340   200006 471500                    LDP1    @REC2,,AUTO
         0 000341   100004 236100                    LDQ     4,,PR1
         0 000342   000001 116000 xsym               CMPQ    B_VECTNIL+1
         0 000343   000351 600000 0                  TZE     s:2865

     1086     2863    1              REC1.EOR = REC2.EOR;

   2863  0 000344   200004 473500                    LDP3    @REC1,,AUTO
         0 000345   100005 236100                    LDQ     5,,PR1
         0 000346   300005 676100                    ERQ     5,,PR3
         0 000347   400000 376003                    ANQ     -131072,DU
         0 000350   300005 656100                    ERSQ    5,,PR3

     1087     2864
     1088     2865    2           IF REC2.DATA$ ~= ADDR(NIL) THEN DO;

   2865  0 000351   200006 471500                    LDP1    @REC2,,AUTO
         0 000352   100004 236100                    LDQ     4,,PR1
         0 000353   000001 116000 xsym               CMPQ    B_VECTNIL+1
         0 000354   000366 600000 0                  TZE     s:2871

     1089     2866    2              CALL VDG$OFREE (REC2$DATA)

   2866  0 000355   100004 473500                    LDP3    4,,PR1
PL6.E3A0      #009=VDG$BUILD_NEW_REC File=VDG$UTILITY.:VDA5TSI                   FRI 07/04/97 11:23 Page:172
         0 000356   200016 453500                    STP3    POS+1,,AUTO
         0 000357   200016 630500                    EPPR0   POS+1,,AUTO
         0 000360   000017 631400 xsym               EPPR1   B_VECTNIL+15
         0 000361   000000 701000 xent               TSX1    VDG$OFREE
         0 000362   000367 702000 0                  TSX2    OALLOC_FAILED

     1090     2867    2                ALTRET (OFREE_FAILED);
     1091     2868    2              REC2.DATA$ = ADDR(NIL);

   2868  0 000363   000001 236000 xsym               LDQ     B_VECTNIL+1
         0 000364   200006 470500                    LDP0    @REC2,,AUTO
         0 000365   000004 756100                    STQ     4,,PR0

     1092     2869    2              END;

     1093     2870
     1094     2871    1           RETURN;

   2871  0 000366   000000 702200 xent               TSX2  ! X66_ARET

   2865  0 000367                       OALLOC_FAIL* null
   2865  0 000367                       OFREE_FAILED null
   2865  0 000367                       BUILD_NEW_R* null
     1095     2872
     1096     2873    1   OALLOC_FAILED: ;
     1097     2874    1   OFREE_FAILED: ;
     1098     2875    1   BUILD_NEW_REC_ALTRET: ;
     1099     2876    1           ALTRETURN;

   2876  0 000367   000000 702200 xent               TSX2  ! X66_AALT
     1100     2877
     1101     2878
     1102     2879    1   END VDG$BUILD_NEW_REC;
     1103     2880        %EOD;

PL6.E3A0      #009=VDG$BUILD_NEW_REC File=VDG$UTILITY.:VDA5TSI                   FRI 07/04/97 11:23 Page:173
--  Include file information  --

   VD_PERR_C.:VDA5TOU  is referenced.
   VD_MACROS_M.:VDA5TOU  is referenced.
   B$JIT_C.:E04TOU  was found in the system file and is never referenced.
   CP_6_C.:E04TOU  was found in the system file and is never referenced.
      No diagnostics issued in procedure VDG$BUILD_NEW_REC.
PL6.E3A0      #009=VDG$BUILD_NEW_REC File=VDG$UTILITY.:VDA5TSI                   FRI 07/04/97 11:23 Page:174

 **** Variables and constants ****

  ****  Auto variables  ****

  ****  Scalars and arrays  ****
OctLoc.c.b A Datatyp(siz) R M Lvl/name                 OctLoc.c.b A Datatyp(siz) R M Lvl/name

     7-0-0/w PTR         r     1 @E_POS                     4-0-0/w PTR         r     1 @REC1
     6-0-0/w PTR         r     1 @REC2                      5-0-0/w PTR         r     1 @S_POS
     3-0-0/w PTR         r     1 @TYPE_CODE                *0-0-0/w SBIN        r     1 E_POS
    12-0-0/w SBIN        r     1 NB_NEW_REC_DATA           13-0-0/w SBIN        r     1 NB_REC1_REC_DATA
    14-0-0/w SBIN        r     1 NB_REC2_REC_DATA          10-0-0/w PTR         r     1 NEW_BUF$
    11-0-0/w SBIN        r     1 NW_NEW_BUF                15-0-0/w SBIN        r     1 POS
    *0-0-0/w STRC(216)   r     1 REC1                      *0-0-0/w STRC(216)   r     1 REC2
    *0-0-0/w SBIN        r     1 S_POS                     *0-0-0/w SBIN        r     1 TYPE_CODE

  ****  BASED and DCB variables  ****

  ****  Scalars and arrays  ****
OctLoc.c.b A Datatyp(siz) R M Lvl/name                 OctLoc.c.b A Datatyp(siz) R M Lvl/name

     0-0-0/w ASTR(90)    r     1 NEW$BUF                    0-0-0/w ASTR(90)    r     1 REC1$DATA
     0-0-0/w ASTR(90)    r     1 REC2$DATA                  0-0-0/w STRC(90)    r     1 VD$BUFFER_HEADER
     0-0-0/w ASTR(81)    r     1 VD$TEXTC_REMOTE


   Procedure VDG$BUILD_NEW_REC requires 248 words for executable code.
   Procedure VDG$BUILD_NEW_REC requires 18 words of local(AUTO) storage.
PL6.E3A0      #009=VDG$BUILD_NEW_REC File=VDG$UTILITY.:VDA5TSI                   FRI 07/04/97 11:23 Page:175
          *** CROSS REFERENCE LISTING ***
**     DENOTES     IDENTIFIER DEFINITION
<<                 IDENTIFIER'S VALUE SET
>>                 IDENTIFIER'S VALUE USED
<>                 IDENTIFIER SET AND/OR USED
--                 IDENTIFIER REFERENCED
PL6.E3A0      #009=VDG$BUILD_NEW_REC File=VDG$UTILITY.:VDA5TSI                   FRI 07/04/97 11:23 Page:176
          MINI XREF LISTING

E_POS
      2483**DCL        29--PROC     2786>>ASSIGN   2789>>ASSIGN   2819>>CALLBLT  2828>>CALLBLT  2830>>ASSIGN
NB_NEW_REC_DATA
      2495**DCL      2786<<ASSIGN   2789<<ASSIGN   2793>>ASSIGN   2813>>ASSIGN
NB_REC1_REC_DATA
      2496**DCL      2776<<ASSIGN   2779<<ASSIGN   2786>>ASSIGN   2814>>IF
NB_REC2_REC_DATA
      2497**DCL      2777<<ASSIGN   2781<<ASSIGN   2789>>ASSIGN   2818>>IF
NEW$BUF.BYTES
      2670**DCL      2815<<ASSIGN   2819<<CALLBLT  2827<<ASSIGN   2828<<CALLBLT
NEW$BUF.LENGTH#
      2668**DCL      2670--IMP-SIZ  2813<<ASSIGN   2815>>ASSIGN   2819>>CALLBLT  2827>>ASSIGN   2828>>CALLBLT
      2830<<ASSIGN
NEW_BUF$
      2493**DCL      2642--IMP-PTR  2775<<ASSIGN   2796<<ASSIGN   2800<<ASSIGN   2802>>IF       2803<>CALL
      2813>>ASSIGN   2815>>ASSIGN   2815>>ASSIGN   2819>>CALLBLT  2819>>CALLBLT  2827>>ASSIGN   2827>>ASSIGN
      2828>>CALLBLT  2828>>CALLBLT  2830>>ASSIGN   2835>>IF       2841>>ASSIGN
NW_NEW_BUF
      2494**DCL      2793<<ASSIGN   2798>>IF       2803<>CALL     2807>>IF
OALLOC_FAILED
      2865**LABEL    2803--CALLALT
OFREE_FAILED
      2865**LABEL    2838--CALLALT  2866--CALLALT
POS
      2498**DCL      2812<<ASSIGN   2816<<ASSIGN   2819>>CALLBLT
REC1
      2406**DCL        29--PROC
REC1.DATA$
      2438**DCL      2526--IMP-PTR  2778>>IF       2779>>ASSIGN   2797>>IF       2798>>IF       2800>>ASSIGN
      2815>>ASSIGN   2815>>ASSIGN   2827>>ASSIGN   2827>>ASSIGN   2828>>CALLBLT  2828>>CALLBLT  2830>>ASSIGN
      2835>>IF       2837>>IF       2838>>CALL     2838>>CALL     2841<<ASSIGN
REC1.EOR
PL6.E3A0      #009=VDG$BUILD_NEW_REC File=VDG$UTILITY.:VDA5TSI                   FRI 07/04/97 11:23 Page:177
      2438**DCL      2863<<ASSIGN
REC1.KEY
      2420**DCL      2844>>IF       2858<<ASSIGN
REC1.KEY.V$
      2422**DCL      2858<>CALL
REC1$DATA
      2526**DCL      2838<>CALL
REC1$DATA.BYTES
      2554**DCL      2815>>ASSIGN   2827>>ASSIGN   2828>>CALLBLT
REC1$DATA.LENGTH#
      2552**DCL      2554--IMP-SIZ  2779>>ASSIGN   2815>>ASSIGN   2827>>ASSIGN   2828>>CALLBLT  2830>>ASSIGN
      2838>>CALL
REC1$DATA.OBJECT.SIZE#
      2550**DCL      2798>>IF
REC2
      2449**DCL        29--PROC
REC2.DATA$
      2481**DCL      2584--IMP-PTR  2780>>IF       2781>>ASSIGN   2819>>CALLBLT  2819>>CALLBLT  2862>>IF
      2865>>IF       2866>>CALL     2866>>CALL     2868<<ASSIGN
REC2.EOR
      2481**DCL      2863>>ASSIGN
REC2.KEY
      2463**DCL      2858>>ASSIGN
REC2.KEY.REP#
      2465**DCL      2858>>IF
REC2.KEY.V$
      2465**DCL      2858>>CALL     2858>>CALL
REC2$DATA
      2584**DCL      2866<>CALL
REC2$DATA.BYTES
      2612**DCL      2819>>CALLBLT
REC2$DATA.LENGTH#
      2610**DCL      2612--IMP-SIZ  2781>>ASSIGN   2819>>CALLBLT  2866>>CALL
S_POS
      2440**DCL        29--PROC     2786>>ASSIGN   2789>>ASSIGN   2815>>ASSIGN   2816>>ASSIGN   2827>>ASSIGN
      2828>>CALLBLT  2830>>ASSIGN
PL6.E3A0      #009=VDG$BUILD_NEW_REC File=VDG$UTILITY.:VDA5TSI                   FRI 07/04/97 11:23 Page:178
TYPE_CODE
      2397**DCL        29--PROC     2783>>DOCASE   2798>>IF       2809>>DOCASE   2862>>IF
VD$BUFFER_HEADER
      2683**DCL      2793--ASSIGN
VD$TEXTC_REMOTE
      2736**DCL      2858<>CALL
VD$TEXTC_REMOTE.LENGTH#
      2765**DCL      2767--IMP-SIZ  2858>>CALL
VDG$ESCREECH
      2489**DCL-ENT  2822--CALL
VDG$OALLOC
      2486**DCL-ENT  2803--CALL
VDG$OCOPY
      2488**DCL-ENT  2858--CALL
VDG$OFREE
      2487**DCL-ENT  2838--CALL     2866--CALL

