PL6.E3A0      #001=VDG$WINIT File=VDG$WORKSPACE.:VDA5TSI                         FRI 07/04/97 11:25 Page:1
        1        1        /*M* VDG$WORKSPACE - Utilities for the internal workspace */
        2        2        /*T***********************************************************/
        3        3        /*T*                                                         */
        4        4        /*T* Copyright (c) Bull HN Information Systems Inc., 1997    */
        5        5        /*T*                                                         */
        6        6        /*T***********************************************************/
        7        7
        8        8        /*X* MCR=NO, DMC=YES */
        9        9        /*T*/
       10       10
       11       11
       12       12        /*P* NAME: VDG$WORKSPACE
       13       13            PURPOSE:
       14       14                Utilities for the internal workspace.
       15       15            DESCRIPTION:
       16       16                This module contains several external routines:
       17       17
       18       18                VDG$WINIT
       19       19                Initialize the internal workspace with its mandatory
       20       20                predefined entries.  This is used before reading the user's context
       21       21                file, to get the workspace into a usable shape and set defaults.
       22       22                Creates the internal files, initializes them, opens streams to them.
       23       23                Also sets minimum, maximum, and default values for predefined names
       24       24                which depend on the physical size of the terminal.
       25       25                Writes records for each of the predefined names to the files.
       26       26        */
       27       27
       28       28        /*D* NAME: VDG$WINIT
       29       29            PARAMETERS:
       30       30                None.
       31       31            INPUT:
       32       32                VD_6E.EQUALS$, .LOCATIONS$, .SYNONYMS$, .KEYINS$,
       33       33                    .STRUCTURES$, and .WINDOWS$ must point to closed VD$STREAMS.
       34       34                VD_6E.WS.INTERNAL_DIR$ must point to a chain of VD$DIR_NODEs
       35       35                    for the internal directories.  These shouldn't yet have
       36       36                    VD$DIR_NODE.STRUCTURE$ filled in.
       37       37                VD_SCREEN_HEIGHT and VD_SCREEN_WIDTH must contain the height
PL6.E3A0      #001=VDG$WINIT File=VDG$WORKSPACE.:VDA5TSI                         FRI 07/04/97 11:25 Page:2
       38       38                    and width (in lines and columns) of the terminal or window which
       39       39                    6Edit is to use as its screen.
       40       40                VD_ORIGINAL_TRMCTL and VD_ORIGINAL_TAB must contain the values for
       41       41                    the user's VLP_TRMCTL and VLP_TABS before s/he entered 6Edit.
       42       42                We must be able to allocate dynamic storage and call the
       43       43                    Accessor and Presenter.
       44       44            OUTPUT:
       45       45                VD_6E.STRUCTURES$'s VD$STREAM will be open to a minimal
       46       46                    Structures internal file.
       47       47                VD_6E.EQUALS$, .LOCATIONS$, .SYNONYMS$, .KEYINS$,
       48       48                    and .WINDOWS$ will be open to newly-created internal files.
       49       49                    The Equals and Locations files will have entries for each of
       50       50                    the predefined names.
       51       51                The VD$DIR_NODEs will have their .STRUCTURE$ filled in.
       52       52                VD_6E.STRUCTURE_EXTERNAL$, _NAMES$, _SCRATCH$, _STRUCTURES$,
       53       53                    and _WINDOWS$ will point to the level-0 VD$FILE_NODEs for
       54       54                    the appropriate Structures in the Structures file.
       55       55                Predefined names whose values are related to the terminal screen size
       56       56                    or the terminal TRMCTL or TABS parameters will have their
       57       57                    defaults, minimums, and/or maximums set based on VD_SCREEN_HEIGHT,
       58       58                    VD_SCREEN_WIDTH, VD_ORIGINAL_TRMCTL, and
       59       59        *N*         VD_ORIGINAL_TAB.
       60       60                    (We don't look to VD_ORIGINAL_EDTCTL parameters for initial values,
       61       61                    because they're meaningless until the user creates an ORG=SE
       62       62                    window--ie, they're meaningless outside of 6Edit.)
       63       63            DESCRIPTION:
       64       64                Based on the user's original terminal parameters, set the defaults,
       65       65                    minimums, and/or maximums for the terminal-related predefined
       66       66                    names.
       67       67                Build the minimal predefined Structures nodes, and link them
       68       68                    off the VD$DIR_NODE for the Structures directory.
       69       69                    As we do this, fill in the VD$DIR_NODE.STRUCTURE$ pointers
       70       70                    in the directories to the appropriate Structures-file
       71       71                    entry.
       72       72                Open the Structures stream to this Structures file.
       73       73                    We can't use VDA$FOPEN to do this, 'cause VDA$FOPEN
       74       74                    wants to have a stream already open to the Structures
PL6.E3A0      #001=VDG$WINIT File=VDG$WORKSPACE.:VDA5TSI                         FRI 07/04/97 11:25 Page:3
       75       75                    file; instead, we "manually" open the stream.
       76       76                Create the other predefined files using VDA$FOPEN.  They
       77       77                    will initially be empty.
       78       78                Write records to the Equals and Locations files for each of the
       79       79                    predefined names.
       80       80
       81       81                                        Note
       82       82                        When processing the internal files, we use
       83       83                        VDA$LREAD/LWRITE to access the Names files,
       84       84                        since they may be either internal or external.
       85       85                        However, we can walk thru the Structures and
       86       86                        Windows files directly in memory, since these
       87       87                        two files must always be internal.
       88       88        */
       89       89
       90       90        VDG$WINIT: PROC ALTRET;
       91       91
       92       92        %INCLUDE VD_MACROS_M;
       93     2307        %INCLUDE VD_PERR_C;
       94     2455        %INCLUDE CP_6;
       95     2536        %INCLUDE CP_6_SUBS;
       96     3076
       97     3077
       98     3078    1   DCL VDA$FOPEN               ENTRY (4) ALTRET;
       99     3079    1   DCL VDA$LREAD               ENTRY (4) ALTRET;
      100     3080    1   DCL VDA$LWRITE              ENTRY (4) ALTRET;
      101     3081    1   DCL VDA$PFLUSH              ENTRY (2) ALTRET;
      102     3082    1   DCL VDG$OALLOC              ENTRY (3) ALTRET;
      103     3083    1   DCL VDG$OCOPY               ENTRY (2) ALTRET;
      104     3084    1   DCL VDG$ESCREECH            ENTRY (3);
      105     3085
      106     3086
      107     3087        %VD_6E (STCLASS=SYMREF);
      108     3123    1   DCL VD_SCREEN_HEIGHT SBIN SYMREF;
      109     3124    1   DCL VD_SCREEN_WIDTH SBIN SYMREF;
      110     3125    1   DCL VD_IBEX_WINDOW SBIN SYMREF;
      111     3126    1   DCL VD_EDITING_HEIGHT SBIN SYMREF;
PL6.E3A0      #001=VDG$WINIT File=VDG$WORKSPACE.:VDA5TSI                         FRI 07/04/97 11:25 Page:4
      112     3127        %VLP_TRMCTL (FPTN=VD_ORIGINAL_TRMCTL, STCLASS=SYMREF);
      113     3167        %VLP_TAB (FPTN=VD_ORIGINAL_TAB, STCLASS=SYMREF);
      114     3181    1   DCL VD_ACCESSOR_PRIV UBIN BYTE ALIGNED SYMREF;
      115     3182
      116     3183
      117     3184        %BOX (TITLE="Initial entries for Structures file", PAGE=YES);
              3192    1
              3196    1   /***************************************************************************
              3198    1    *                                                                         *
              3202    1            *                    Initial entries for Structures file                  *
              3204    1            *                                                                         *
              3206    1           ***************************************************************************/

      118     3210
      119     3211        /*
      120     3212        *   Initial entries for Structures file.
      121     3213        *   Each INIT_<structure_name> contains the initialization info for a
      122     3214        *       level-1 node in the Structures file -- a single Structure
      123     3215        *       definition.  Each INIT_<structure_name> is an array of key-ptr
      124     3216        *       pairs:  the first pair for each level-1 node has just the key
      125     3217        *       for that node; the remaining pairs for this level-1 node
      126     3218        *       include one pair for each level-2 node for this level-1 node.
      127     3219        *       Of these pairs, the key may be 0-length, but the non-nil ptr
      128     3220        *       points to the constant VD_STRUCTURE_LEVEL for this level-2 node.
      129     3221        *   The end of each table is marked with a nil ptr in any entry after
      130     3222        *       the first.
      131     3223        */
      132     3224
      133     3225    1   DCL 1 INIT_EXTERNAL (0:3) CONSTANT,
      134     3226              %VD_TEXTC (NAME=KEY, MXNB=%MXNB_NAME, LEVEL=2, LAST=",", INITS=4,
      135     3227                    IBYTES=%STRUCT_EXTERNAL, IBYTES1=%LVN_FILE,
      136     3228                    IBYTES2=%LVN_RECORD,
      137     3229                    IBYTES3="''", REPEAT_LAST=YES);
      138     3370    1         2 STRUCT_LEVEL$ PTR
      139     3371    1            INIT(ADDR(NIL), ADDR(EXTERNAL_L0), ADDR(EXTERNAL_L1), ADDR(NIL));
      140     3372
      141     3373    1   DCL 1 INIT_EDITKEY (0:3) CONSTANT,
PL6.E3A0      #001=VDG$WINIT File=VDG$WORKSPACE.:VDA5TSI                         FRI 07/04/97 11:25 Page:5
      142     3374              %VD_TEXTC (NAME=KEY, MXNB=%MXNB_NAME, LEVEL=2, LAST=",", INITS=4,
      143     3375                    IBYTES=%STRUCT_EDITKEY, IBYTES1=%LVN_FILE,
      144     3376                    IBYTES2=%LVN_RECORD, IBYTES3="''");
      145     3517    1         2 STRUCT_LEVEL$ PTR
      146     3518    1            INIT(ADDR(NIL), ADDR(EXTERNAL_L0), ADDR(EDITKEY_L1), ADDR(NIL));
      147     3519
      148     3520    1   DCL 1 INIT_CONSEC (0:3) CONSTANT,
      149     3521              %VD_TEXTC (NAME=KEY, MXNB=%MXNB_NAME, LEVEL=2, LAST=",", INITS=4,
      150     3522                    IBYTES=%STRUCT_SEQUENTIAL, IBYTES1=%LVN_FILE,
      151     3523                    IBYTES2=%LVN_RECORD, IBYTES3="''");
      152     3664    1         2 STRUCT_LEVEL$ PTR
      153     3665    1            INIT(ADDR(NIL), ADDR(EXTERNAL_L0), ADDR(CONSEC_L1), ADDR(NIL));
      154     3666
      155     3667    1   DCL 1 INIT_STRINGKEY (0:3) CONSTANT,
      156     3668              %VD_TEXTC (NAME=KEY, MXNB=%MXNB_NAME, LEVEL=2, LAST=",", INITS=4,
      157     3669                    IBYTES=%STRUCT_STRINGKEY, IBYTES1=%LVN_FILE,
      158     3670                    IBYTES2=%LVN_RECORD, IBYTES3="''");
      159     3811    1         2 STRUCT_LEVEL$ PTR
      160     3812    1            INIT(ADDR(NIL), ADDR(EXTERNAL_L0), ADDR(STRINGKEY_L1), ADDR(NIL));
      161     3813
      162     3814    1   DCL 1 INIT_NAMES (0:3) CONSTANT,
      163     3815              %VD_TEXTC (NAME=KEY, MXNB=%MXNB_NAME, LEVEL=2, LAST=",", INITS=4,
      164     3816                    IBYTES=%STRUCT_NAMES, IBYTES1=%LVN_FILE,
      165     3817                    IBYTES2=%LVN_NAME,
      166     3818                    IBYTES3="''", REPEAT_LAST=YES);
      167     3959    1         2 STRUCT_LEVEL$ PTR
      168     3960    1           INIT(ADDR(NIL), ADDR(INTERNAL_L0), ADDR(NAMES_L1), ADDR(NIL));
      169     3961
      170     3962    1   DCL 1 INIT_SCRATCH (0:3) CONSTANT,
      171     3963              %VD_TEXTC (NAME=KEY, MXNB=%MXNB_NAME, LEVEL=2, LAST=",", INITS=4,
      172     3964                    IBYTES=%STRUCT_SCRATCH, IBYTES1=%LVN_FILE,
      173     3965                    IBYTES2=%LVN_RECORD,
      174     3966                    IBYTES3="''", REPEAT_LAST=YES);
      175     4107    1         2 STRUCT_LEVEL$ PTR
      176     4108    1            INIT(ADDR(NIL), ADDR(INTERNAL_L0), ADDR(SCRATCH_L1), ADDR(NIL));
      177     4109
      178     4110    1   DCL 1 INIT_STRUCTURES (0:4) CONSTANT,
PL6.E3A0      #001=VDG$WINIT File=VDG$WORKSPACE.:VDA5TSI                         FRI 07/04/97 11:25 Page:6
      179     4111              %VD_TEXTC (NAME=KEY, MXNB=%MXNB_NAME, LEVEL=2, LAST=",", INITS=5,
      180     4112                    IBYTES=%STRUCT_STRUCTURES, IBYTES1=%LVN_FILE,
      181     4113                    IBYTES2=%LVN_STRUCTURE, IBYTES3=%LVN_LEVEL,
      182     4114                    IBYTES4="''", REPEAT_LAST=YES);
      183     4255    1         2 STRUCT_LEVEL$ PTR
      184     4256    1           INIT(ADDR(NIL), ADDR(INTERNAL_L0), ADDR(STRUCTURES_L1),
      185     4257    1               ADDR(STRUCTURES_L2), ADDR(NIL));
      186     4258
      187     4259    1   DCL 1 INIT_WINDOWS (0:4) CONSTANT,
      188     4260              %VD_TEXTC (NAME=KEY, MXNB=%MXNB_NAME, LEVEL=2, LAST=",", INITS=5,
      189     4261                    IBYTES=%STRUCT_WINDOWS, IBYTES1=%LVN_FILE,
      190     4262                    IBYTES2=%LVN_WINDOW, IBYTES3=%LVN_BLOCK,
      191     4263                    IBYTES4="''", REPEAT_LAST=YES);
      192     4404    1         2 STRUCT_LEVEL$ PTR
      193     4405    1           INIT(ADDR(NIL), ADDR(INTERNAL_L0), ADDR(WINDOWS_L1), ADDR(WINDOWS_L2),
      194     4406    1                ADDR(NIL));
      195     4407
      196     4408
      197     4409        %VD_STRUCTURE_LEVEL (NAME=EXTERNAL_L0, STCLASS=CONSTANT,
      198     4410            IORG=%ORG_KEYED, IKEY_TYPE=%KT_STRING, ISPEC_TYPE=0,
      199     4411            IPROT_KEY=%FALSE, IPROT_SPEC=%TRUE, IPROT_DATA=%TRUE);
      200     4461
      201     4462        %VD_STRUCTURE_LEVEL (NAME=EXTERNAL_L1, STCLASS=CONSTANT,
      202     4463            IORG=0, IKEY_TYPE=0, ISPEC_TYPE=%SPT_EXT_RECORD,
      203     4464            IPROT_KEY=%FALSE, IPROT_SPEC=%FALSE, IPROT_DATA=%FALSE);
      204     4514
      205     4515        %VD_STRUCTURE_LEVEL (NAME=EDITKEY_L1, STCLASS=CONSTANT,
      206     4516            IORG=%ORG_KEYED, IKEY_TYPE=%KT_EDITKEY, ISPEC_TYPE=%SPT_EXT_RECORD,
      207     4517            IPROT_KEY=%FALSE, IPROT_SPEC=%FALSE, IPROT_DATA=%FALSE);
      208     4567
      209     4568        %VD_STRUCTURE_LEVEL (NAME=CONSEC_L1, STCLASS=CONSTANT,
      210     4569            IORG=%ORG_CONSEC, IKEY_TYPE=%KT_NUMBER, ISPEC_TYPE=%SPT_EXT_RECORD,
      211     4570            IPROT_KEY=%FALSE, IPROT_SPEC=%FALSE, IPROT_DATA=%FALSE);
      212     4620
      213     4621        %VD_STRUCTURE_LEVEL (NAME=STRINGKEY_L1, STCLASS=CONSTANT,
      214     4622            IORG=%ORG_KEYED, IKEY_TYPE=%KT_STRING, ISPEC_TYPE=%SPT_EXT_RECORD,
      215     4623            IPROT_KEY=%FALSE, IPROT_SPEC=%FALSE, IPROT_DATA=%FALSE);
PL6.E3A0      #001=VDG$WINIT File=VDG$WORKSPACE.:VDA5TSI                         FRI 07/04/97 11:25 Page:7
      216     4673
      217     4674        %VD_STRUCTURE_LEVEL (NAME=INTERNAL_L0, STCLASS=CONSTANT,
      218     4675            IORG=%ORG_KEYED, IKEY_TYPE=%KT_STRING, ISPEC_TYPE=0,
      219     4676            IPROT_KEY=%TRUE, IPROT_SPEC=%TRUE, IPROT_DATA=%TRUE);
      220     4726
      221     4727        %VD_STRUCTURE_LEVEL (NAME=NAMES_L1, STCLASS=CONSTANT,
      222     4728            IORG=%ORG_KEYED, IKEY_TYPE=%KT_STRING, ISPEC_TYPE=%SPT_NAME_SPEC,
      223     4729            IPROT_KEY=%FALSE, IPROT_SPEC=%FALSE, IPROT_DATA=%FALSE);
      224     4779
      225     4780        %VD_STRUCTURE_LEVEL (NAME=SCRATCH_L1, STCLASS=CONSTANT,
      226     4781            IORG=%ORG_KEYED, IKEY_TYPE=%KT_EDITKEY, ISPEC_TYPE=%SPT_EXT_RECORD,
      227     4782            IPROT_KEY=%FALSE, IPROT_SPEC=%FALSE, IPROT_DATA=%FALSE);
      228     4832
      229     4833        %VD_STRUCTURE_LEVEL (NAME=STRUCTURES_L1, STCLASS=CONSTANT,
      230     4834            IORG=%ORG_KEYED, IKEY_TYPE=%KT_STRING, ISPEC_TYPE=%SPT_STRUCTURE_SPEC,
      231     4835            IPROT_KEY=%FALSE, IPROT_SPEC=%FALSE, IPROT_DATA=%FALSE);
      232     4885
      233     4886        %VD_STRUCTURE_LEVEL (NAME=STRUCTURES_L2, STCLASS=CONSTANT,
      234     4887            IORG=%ORG_KEYED, IKEY_TYPE=%KT_STRING, ISPEC_TYPE=%SPT_STRUCTURE_LEVEL,
      235     4888            IPROT_KEY=%FALSE, IPROT_SPEC=%FALSE, IPROT_DATA=%FALSE);
      236     4938
      237     4939        %VD_STRUCTURE_LEVEL (NAME=WINDOWS_L1, STCLASS=CONSTANT,
      238     4940            IORG=%ORG_CONSEC, IKEY_TYPE=%KT_NUMBER, ISPEC_TYPE=%SPT_WINDOW_SPEC,
      239     4941            IPROT_KEY=%FALSE, IPROT_SPEC=%FALSE, IPROT_DATA=%FALSE);
      240     4991
      241     4992        %VD_STRUCTURE_LEVEL (NAME=WINDOWS_L2, STCLASS=CONSTANT,
      242     4993            IORG=%ORG_CONSEC, IKEY_TYPE=%KT_NUMBER, ISPEC_TYPE=%SPT_WINDOW_BLOCK,
      243     4994            IPROT_KEY=%FALSE, IPROT_SPEC=%FALSE, IPROT_DATA=%FALSE);
      244     5044
      245     5045
      246     5046        %BOX (TITLE="Predefined Names", PAGE=YES);
              5054    1
              5058    1   /***************************************************************************
              5060    1    *                                                                         *
              5064    1            *                              Predefined Names                           *
              5066    1            *                                                                         *
              5068    1           ***************************************************************************/
PL6.E3A0      #001=VDG$WINIT File=VDG$WORKSPACE.:VDA5TSI                         FRI 07/04/97 11:25 Page:8

      247     5072
      248     5073        /*
      249     5074        *   Initialization tables and internal global storage for
      250     5075        *       predefined Names-file entries.
      251     5076        *   Each entry points to a level-1 Key, a VD_NAME_SPEC, a
      252     5077        *       VD_BUFFER/VD_NUMBER containing the default value for the name,
      253     5078        *       and a set of legal-access flags (%NAC_ defs) for the name's
      254     5079        *       VD$FILE_NODE.ACCESS field.
      255     5080        *   Data values double as the global internal value as well as the
      256     5081        *       initializing value for the file.  Data components (and hence
      257     5082        *       the gloval internal values) are stored in VD$BUFFERs or
      258     5083        *       the VD$NUMBER variant of VD$BUFFER.  (VD$POINTER
      259     5084        *       isn't used in these init tables 'cause it's only used when
      260     5085        *       the Data component refers to a value stored elsewhere
      261     5086        *       in the 6Edit workspace).
      262     5087        *   Predefined Names whose values are stored elsewhere in the
      263     5088        *       6Edit workspace have no value.  Their .DATA$ pointer is nil.
      264     5089        *       (With the single exception of the $STRUCTURE name.  Oh well.)
      265     5090        */
      266     5091
      267     5092        %BOX (TITLE="Equals-file initialization tables and global values");

              5104    1   /***************************************************************************
              5106    1    *                                                                         *
              5110    1            *            Equals-file initialization tables and global values          *
              5112    1            *                                                                         *
              5114    1           ***************************************************************************/

      268     5118
      269     5119    1   DCL 1 VD_EQUALS_INIT (0:99) CONSTANT SYMDEF,
      270     5120    1         2 KEY$ PTR
      271     5121    1           INIT(ADDR(K_$$INCANTATION), ADDR(K_$$MON_ACC),
      272     5122    1               ADDR(K_$$MON_EVAL), ADDR(K_$$MON_PRES), ADDR(K_$$QUAC),
      273     5123    1               ADDR(K_$AUTOTAB),
      274     5124    1               ADDR(K_$BY), ADDR(K_$CASE), ADDR(K_$COMMAND), ADDR(K_$COMMENT),
      275     5125    1               ADDR(K_$COMPONENT), ADDR(K_$CONTEXT), ADDR(K_$CONTROL),
PL6.E3A0      #001=VDG$WINIT File=VDG$WORKSPACE.:VDA5TSI                         FRI 07/04/97 11:25 Page:9
      276     5126    1               ADDR(K_$DEFAULT_DESTINATION), ADDR(K_$DEFAULT_SOURCE),
      277     5127    1               ADDR(K_$DIRECTION), ADDR(K_$EOF_MARK), ADDR(K_$EXIST),
      278     5128    1               ADDR(K_$EZ_APPEND), ADDR(K_$FILEORG), ADDR(K_$FILERECORDS),
      279     5129    1               ADDR(K_$FILETYPE), ADDR(K_$HSALL), ADDR(K_$HSCROLL),
      280     5130    1               ADDR(K_$HSCROLL_MARGIN), ADDR(K_$INITIALIZE),
      281     5131    1               ADDR(K_$INSERT), ADDR(K_$INTRO_1),
      282     5132    1               ADDR(K_$INTRO_2), ADDR(K_$KEY_GENERATION),
      283     5133    1               ADDR(K_$MATCHES), ADDR(K_$MATCH_LIMIT), ADDR(K_$MAX_COMMAND),
      284     5134    1               ADDR(K_$MAX_RECORD), ADDR(K_$MIN_COMMAND), ADDR(K_$MIN_RECORD),
      285     5135    1               ADDR(K_$ONESPACEEDIT),
      286     5136    1               ADDR(K_$PAD), ADDR(K_$PATTERN), ADDR(K_$POINT),
      287     5137    1               ADDR(K_$PROTECT), ADDR(K_$RECORDS_DELETED),
      288     5138    1               ADDR(K_$RECORDS_INSERTED), ADDR(K_$RECORDWRAP),
      289     5139    1               ADDR(K_$REKEY), ADDR(K_$RESTORE),
      290     5140    1               ADDR(K_$SCREEN), ADDR(K_$SCROLL), ADDR(K_$SEARCH),
      291     5141    1               ADDR(K_$SITES), ADDR(K_$SKIP), ADDR(K_$STRIP_BLANKS),
      292     5142    1               ADDR(K_$STRUCTURE), ADDR(K_$TEXTEDIT), ADDR(K_$VSCROLL),
      293     5143    1               ADDR(K_$VSCROLL_MARGIN),
      294     5144    1               ADDR(K_$WI_BORDER), ADDR(K_$WI_PERCENT),
      295     5145    1               ADDR(K_$WORDWRAP), ADDR(K_$WS_STORAGE),
      296     5146    1               ADDR(K_ANY), ADDR(K_AO), ADDR(K_BACKWARD),
      297     5147    1               ADDR(K_BIN10), ADDR(K_BIN521), ADDR(K_BINHLF),
      298     5148    1               ADDR(K_BO), ADDR(K_DATA), ADDR(K_DONT_PROTECT), ADDR(K_EO),
      299     5149    1               ADDR(K_FORWARD), ADDR(K_KEY), ADDR(K_NEW),
      300     5150    1               ADDR(K_OFF), ADDR(K_OLD), ADDR(K_ON),
      301     5151    1               ADDR(K_PROTECT), ADDR(K_SPEC), ADDR(K_STRING),
      302     5152    1               ADDR(NIL)*0),
      303     5153    1         2 SPEC$ PTR
      304     5154    1           INIT(ADDR(S_$$INCANTATION), ADDR(S_$$MON_ACC),
      305     5155    1               ADDR(S_$$MON_EVAL), ADDR(S_$$MON_PRES), ADDR(S_$$QUAC),
      306     5156    1               ADDR(S_$AUTOTAB),
      307     5157    1               ADDR(S_$BY), ADDR(S_$CASE), ADDR(S_$COMMAND), ADDR(S_$COMMENT),
      308     5158    1               ADDR(S_$COMPONENT), ADDR(S_$CONTEXT), ADDR(S_$CONTROL),
      309     5159    1               ADDR(S_$DEFAULT_DESTINATION), ADDR(S_$DEFAULT_SOURCE),
      310     5160    1               ADDR(S_$DIRECTION), ADDR(S_$EOF_MARK), ADDR(S_$EXIST),
      311     5161    1               ADDR(S_$EZ_APPEND), ADDR(S_$FILEORG), ADDR(S_$FILERECORDS),
      312     5162    1               ADDR(S_$FILETYPE), ADDR(S_$HSALL), ADDR(S_$HSCROLL),
PL6.E3A0      #001=VDG$WINIT File=VDG$WORKSPACE.:VDA5TSI                         FRI 07/04/97 11:25 Page:10
      313     5163    1               ADDR(S_$HSCROLL_MARGIN), ADDR(S_$INITIALIZE),
      314     5164    1               ADDR(S_$INSERT), ADDR(S_$INTRO_1),
      315     5165    1               ADDR(S_$INTRO_2), ADDR(S_$KEY_GENERATION),
      316     5166    1               ADDR(S_$MATCHES), ADDR(S_$MATCH_LIMIT), ADDR(S_$MAX_COMMAND),
      317     5167    1               ADDR(S_$MAX_RECORD), ADDR(S_$MIN_COMMAND), ADDR(S_$MIN_RECORD),
      318     5168    1               ADDR(S_$ONESPACEEDIT),
      319     5169    1               ADDR(S_$PAD), ADDR(S_$PATTERN), ADDR(S_$POINT),
      320     5170    1               ADDR(S_$PROTECT), ADDR(S_$RECORDS_DELETED),
      321     5171    1               ADDR(S_$RECORDS_INSERTED), ADDR(S_$RECORDWRAP),
      322     5172    1               ADDR(S_$REKEY), ADDR(S_$RESTORE),
      323     5173    1               ADDR(S_$SCREEN), ADDR(S_$SCROLL), ADDR(S_$SEARCH),
      324     5174    1               ADDR(S_$SITES), ADDR(S_$SKIP), ADDR(S_$STRIP_BLANKS),
      325     5175    1               ADDR(S_$STRUCTURE), ADDR(S_$TEXTEDIT), ADDR(S_$VSCROLL),
      326     5176    1               ADDR(S_$VSCROLL_MARGIN),
      327     5177    1               ADDR(S_$WI_BORDER), ADDR(S_$WI_PERCENT),
      328     5178    1               ADDR(S_$WORDWRAP), ADDR(S_$WS_STORAGE),
      329     5179    1               ADDR(S_ANY), ADDR(S_AO), ADDR(S_BACKWARD),
      330     5180    1               ADDR(S_BIN10), ADDR(S_BIN521), ADDR(S_BINHLF),
      331     5181    1               ADDR(S_BO), ADDR(S_DATA), ADDR(S_DONT_PROTECT), ADDR(S_EO),
      332     5182    1               ADDR(S_FORWARD), ADDR(S_KEY), ADDR(S_NEW),
      333     5183    1               ADDR(S_OFF), ADDR(S_OLD), ADDR(S_ON),
      334     5184    1               ADDR(S_PROTECT), ADDR(S_SPEC), ADDR(S_STRING),
      335     5185    1               ADDR(NIL)*0),
      336     5186    1         2 DATA$ PTR
      337     5187    1           INIT(ADDR(D_$$INCANTATION), ADDR(VD_$$MON_ACC),
      338     5188    1               ADDR(VD_$$MON_EVAL), ADDR(VD_$$MON_PRES), ADDR(VD_$$QUAC),
      339     5189    1               ADDR(VD_$AUTOTAB),
      340     5190    1               ADDR(D_$BY), ADDR(VD_$CASE), ADDR(VD_$COMMAND), ADDR(VD_$COMMENT),
      341     5191    1               ADDR(VD_$COMPONENT), ADDR(VD_$CONTEXT), ADDR(VD_$CONTROL),
      342     5192    1               ADDR(VD_$DEFAULT_DESTINATION), ADDR(VD_$DEFAULT_SOURCE),
      343     5193    1               ADDR(VD_$DIRECTION), ADDR(VD_$EOF_MARK), ADDR(VD_$EXIST),
      344     5194    1               ADDR(VD_$EZ_APPEND), ADDR(NIL), ADDR(NIL),
      345     5195    1               ADDR(VD_$FILETYPE), ADDR(VD_$HSALL), ADDR(VD_$HSCROLL),
      346     5196    1               ADDR(VD_$HSCROLL_MARGIN), ADDR(VD_$INITIALIZE),
      347     5197    1               ADDR(VD_$INSERT), ADDR(VD_$INTRO_1),
      348     5198    1               ADDR(VD_$INTRO_2), ADDR(VD_$KEY_GENERATION),
      349     5199    1               ADDR(VD_$MATCHES), ADDR(VD_$MATCH_LIMIT), ADDR(VD_$MAX_COMMAND),
PL6.E3A0      #001=VDG$WINIT File=VDG$WORKSPACE.:VDA5TSI                         FRI 07/04/97 11:25 Page:11
      350     5200    1               ADDR(VD_$MAX_RECORD), ADDR(VD_$MIN_COMMAND), ADDR(VD_$MIN_RECORD),
      351     5201    1               ADDR(VD_$ONESPACEEDIT),
      352     5202    1               ADDR(VD_$PAD), ADDR(VD_$PATTERN), ADDR(VD_$POINT),
      353     5203    1               ADDR(VD_$PROTECT), ADDR(VD_$RECORDS_DELETED),
      354     5204    1               ADDR(VD_$RECORDS_INSERTED), ADDR(VD_$RECORDWRAP),
      355     5205    1               ADDR(VD_$REKEY), ADDR(VD_$RESTORE),
      356     5206    1               ADDR(VD_$SCREEN), ADDR(VD_$SCROLL), ADDR(VD_$SEARCH),
      357     5207    1               ADDR(VD_$SITES), ADDR(VD_$SKIP), ADDR(VD_$STRIP_BLANKS),
      358     5208    1               ADDR(VD_$STRUCTURE), ADDR(VD_$TEXTEDIT), ADDR(VD_$VSCROLL),
      359     5209    1               ADDR(VD_$VSCROLL_MARGIN),
      360     5210    1               ADDR(VD_$WI_BORDER), ADDR(VD_$WI_PERCENT),
      361     5211    1               ADDR(VD_$WORDWRAP), ADDR(VD_$WS_STORAGE),
      362     5212    1               ADDR(D_ANY), ADDR(D_AO), ADDR(D_BACKWARD),
      363     5213    1               ADDR(D_BIN10), ADDR(D_BIN521), ADDR(D_BINHLF),
      364     5214    1               ADDR(D_BO), ADDR(D_DATA), ADDR(D_DONT_PROTECT), ADDR(D_EO),
      365     5215    1               ADDR(D_FORWARD), ADDR(D_KEY), ADDR(D_NEW),
      366     5216    1               ADDR(D_OFF), ADDR(D_OLD), ADDR(D_ON),
      367     5217    1               ADDR(D_PROTECT), ADDR(D_SPEC), ADDR(D_STRING),
      368     5218    1               ADDR(NIL)*0),
      369     5219    1         2 ACCESS$ PTR
      370     5220    1           INIT(ADDR(A_$$INCANTATION), ADDR(A_$$MON_ACC),
      371     5221    1               ADDR(A_$$MON_EVAL), ADDR(A_$$MON_PRES), ADDR(A_$$QUAC),
      372     5222    1               ADDR(A_$AUTOTAB),
      373     5223    1               ADDR(A_$BY), ADDR(A_$CASE), ADDR(A_$COMMAND), ADDR(A_$COMMENT),
      374     5224    1               ADDR(A_$COMPONENT), ADDR(A_$CONTEXT), ADDR(A_$CONTROL),
      375     5225    1               ADDR(A_$DEFAULT_DESTINATION), ADDR(A_$DEFAULT_SOURCE),
      376     5226    1               ADDR(A_$DIRECTION), ADDR(A_$EOF_MARK), ADDR(A_$EXIST),
      377     5227    1               ADDR(A_$EZ_APPEND), ADDR(A_$FILEORG), ADDR(A_$FILERECORDS),
      378     5228    1               ADDR(A_$FILETYPE), ADDR(A_$HSALL), ADDR(A_$HSCROLL),
      379     5229    1               ADDR(A_$HSCROLL_MARGIN), ADDR(A_$INITIALIZE),
      380     5230    1               ADDR(A_$INSERT), ADDR(A_$INTRO_1),
      381     5231    1               ADDR(A_$INTRO_2), ADDR(A_$KEY_GENERATION),
      382     5232    1               ADDR(A_$MATCHES), ADDR(A_$MATCH_LIMIT), ADDR(A_$MAX_COMMAND),
      383     5233    1               ADDR(A_$MAX_RECORD), ADDR(A_$MIN_COMMAND), ADDR(A_$MIN_RECORD),
      384     5234    1               ADDR(A_$ONESPACEEDIT),
      385     5235    1               ADDR(A_$PAD), ADDR(A_$PATTERN), ADDR(A_$POINT),
      386     5236    1               ADDR(A_$PROTECT), ADDR(A_$RECORDS_DELETED),
PL6.E3A0      #001=VDG$WINIT File=VDG$WORKSPACE.:VDA5TSI                         FRI 07/04/97 11:25 Page:12
      387     5237    1               ADDR(A_$RECORDS_INSERTED), ADDR(A_$RECORDWRAP),
      388     5238    1               ADDR(A_$REKEY), ADDR(A_$RESTORE),
      389     5239    1               ADDR(A_$SCREEN), ADDR(A_$SCROLL), ADDR(A_$SEARCH),
      390     5240    1               ADDR(A_$SITES), ADDR(A_$SKIP), ADDR(A_$STRIP_BLANKS),
      391     5241    1               ADDR(A_$STRUCTURE), ADDR(A_$TEXTEDIT), ADDR(A_$VSCROLL),
      392     5242    1               ADDR(A_$VSCROLL_MARGIN),
      393     5243    1               ADDR(A_$WI_BORDER), ADDR(A_$WI_PERCENT),
      394     5244    1               ADDR(A_$WORDWRAP), ADDR(A_$WS_STORAGE),
      395     5245    1               ADDR(A_ANY), ADDR(A_AO), ADDR(A_BACKWARD),
      396     5246    1               ADDR(A_BIN10), ADDR(A_BIN521), ADDR(A_BINHLF),
      397     5247    1               ADDR(A_BO), ADDR(A_DATA), ADDR(A_DONT_PROTECT), ADDR(A_EO),
      398     5248    1               ADDR(A_FORWARD), ADDR(A_KEY), ADDR(A_NEW),
      399     5249    1               ADDR(A_OFF), ADDR(A_OLD), ADDR(A_ON),
      400     5250    1               ADDR(A_PROTECT), ADDR(A_SPEC), ADDR(A_STRING),
      401     5251    1               ADDR(NIL)*0);
      402     5252
      403     5253
      404     5254        %VD_TEXTC_REMOTE (NAME=K_$$INCANTATION, STCLASS=CONSTANT,
      405     5255            IBYTES='$$INCANTATION');
      406     5318        %VD_NAME_SPEC (NAME=S_$$INCANTATION, STCLASS=CONSTANT,
      407     5319            ITYPE=%NDT_EQUALS, IWRITER=%WRTR_$$INCANTATION);
      408     5370        %VD_BUFFER (NAME=D_$$INCANTATION, STCLASS=CONSTANT,
      409     5371            MXNB=1, IBYTES="''");
      410     5431        %VD_NUMBER (NAME=VD_$$INCANTATION, STCLASS="STATIC SYMDEF",
      411     5432            ICLASS=%CLS_BOOLEAN, IV="%BITBIN(FALSE)");
      412     5479        %VD_NAC (NAME=A_$$INCANTATION, STCLASS=CONSTANT,
      413     5480            WRITE=%TRUE);
      414     5498
      415     5499
      416     5500        %VD_TEXTC_REMOTE (NAME=K_$$MON_ACC, STCLASS=CONSTANT,
      417     5501            IBYTES='$$MON_ACC');
      418     5564        %VD_NAME_SPEC (NAME=S_$$MON_ACC, STCLASS=CONSTANT,
      419     5565            IN=99, ITYPE=%NDT_EQUALS, IWRITER=%WRTR_$$MON_ACC);
      420     5616        %VD_NUMBER (NAME=VD_$$MON_ACC, STCLASS="STATIC SYMDEF",
      421     5617            ICLASS=%CLS_NUMBER, IV=0);
      422     5664        %VD_NAC (NAME=A_$$MON_ACC, STCLASS=CONSTANT,
      423     5665            WRITE=%TRUE);
PL6.E3A0      #001=VDG$WINIT File=VDG$WORKSPACE.:VDA5TSI                         FRI 07/04/97 11:25 Page:13
      424     5683
      425     5684
      426     5685        %VD_TEXTC_REMOTE (NAME=K_$$MON_EVAL, STCLASS=CONSTANT,
      427     5686            IBYTES='$$MON_EVAL');
      428     5749        %VD_NAME_SPEC (NAME=S_$$MON_EVAL, STCLASS=CONSTANT,
      429     5750            IN=99, ITYPE=%NDT_EQUALS, IWRITER=%WRTR_$$MON_EVAL);
      430     5801        %VD_NUMBER (NAME=VD_$$MON_EVAL, STCLASS="STATIC SYMDEF",
      431     5802            ICLASS=%CLS_NUMBER, IV=0);
      432     5849        %VD_NAC (NAME=A_$$MON_EVAL, STCLASS=CONSTANT,
      433     5850            WRITE=%TRUE);
      434     5868
      435     5869
      436     5870        %VD_TEXTC_REMOTE (NAME=K_$$MON_PRES, STCLASS=CONSTANT,
      437     5871            IBYTES='$$MON_PRES');
      438     5934        %VD_NAME_SPEC (NAME=S_$$MON_PRES, STCLASS=CONSTANT,
      439     5935            IN=99, ITYPE=%NDT_EQUALS, IWRITER=%WRTR_$$MON_PRES);
      440     5986        %VD_NUMBER (NAME=VD_$$MON_PRES, STCLASS="STATIC SYMDEF",
      441     5987            ICLASS=%CLS_NUMBER, IV=0);
      442     6034        %VD_NAC (NAME=A_$$MON_PRES, STCLASS=CONSTANT,
      443     6035            WRITE=%TRUE);
      444     6053
      445     6054
      446     6055        %VD_TEXTC_REMOTE (NAME=K_$$QUAC, STCLASS=CONSTANT,
      447     6056            IBYTES='$$QUAC');
      448     6119        %VD_NAME_SPEC (NAME=S_$$QUAC, STCLASS=CONSTANT,
      449     6120            ITYPE=%NDT_EQUALS, IWRITER=%WRTR_$$QUAC);
      450     6171        %VD_NUMBER (NAME=VD_$$QUAC, STCLASS="STATIC SYMDEF",
      451     6172            ICLASS=%CLS_BOOLEAN, IV="%BITBIN(FALSE)");
      452     6219        %VD_NAC (NAME=A_$$QUAC, STCLASS=CONSTANT,
      453     6220            WRITE=%TRUE);
      454     6238
      455     6239
      456     6240
      457     6241        %VD_TEXTC_REMOTE (NAME=K_$AUTOTAB, STCLASS=CONSTANT,
      458     6242            IBYTES='$AUTOTAB');
      459     6305        %VD_NAME_SPEC (NAME=S_$AUTOTAB, STCLASS=CONSTANT,
      460     6306            ITYPE=%NDT_EQUALS, IWRITER=%WRTR_$AUTOTAB, IWINDOWABLE=%TRUE,
PL6.E3A0      #001=VDG$WINIT File=VDG$WORKSPACE.:VDA5TSI                         FRI 07/04/97 11:25 Page:14
      461     6307            IM=0, IN=%MX_TERMINAL_POSITION); /* Min and max values (0 or 1=off) */
      462     6358        %VD_NUMBER (NAME=VD_$AUTOTAB, STCLASS="STATIC SYMDEF",
      463     6359            ICLASS=%CLS_NUMBER, IV=0);
      464     6406        %VD_NAC (NAME=A_$AUTOTAB, STCLASS=CONSTANT,
      465     6407            READ=%TRUE, WRITE=%TRUE);
      466     6425
      467     6426
      468     6427        %VD_TEXTC_REMOTE (NAME=K_$BY, STCLASS=CONSTANT,
      469     6428            IBYTES='$BY');
      470     6491        %VD_NAME_SPEC (NAME=S_$BY, STCLASS=CONSTANT,
      471     6492            ITYPE=%NDT_EQUALS, IWRITER=%WRTR_$BY);
      472     6543        %VD_POINTER (NAME=D_$BY, STCLASS=CONSTANT, ICLASS=%CLS_PTR_KEY, IV=VD_$BY_KEY);
      473     6590        %VD_KEY (NAME=VD_$BY_KEY, STCLASS=STATIC SYMDEF,
      474     6591            ITYPE=%KT_EDITKEY, IREP=%REP_LOCAL, IBYTES=%DFLT_$BY);
      475     6627        %VD_NUMBER (NAME=VD_$BY, STCLASS="STATIC SYMDEF",
      476     6628            ICLASS=%CLS_NUMBER, IV=%DFLT_$BY);
      477     6675        %VD_NAC (NAME=A_$BY, STCLASS=CONSTANT,
      478     6676            READ=%TRUE, WRITE=%TRUE);
      479     6694
      480     6695
      481     6696        %VD_TEXTC_REMOTE (NAME=K_$CASE, STCLASS=CONSTANT,
      482     6697            IBYTES='$CASE');
      483     6760        %VD_NAME_SPEC (NAME=S_$CASE, STCLASS=CONSTANT,
      484     6761            ITYPE=%NDT_EQUALS, IWRITER=%WRTR_$CASE);
      485     6812        %VD_NUMBER (NAME=VD_$CASE, STCLASS="STATIC SYMDEF",
      486     6813            ICLASS=%CLS_BOOLEAN, IV="%BITBIN(TRUE)");
      487     6860        %VD_NAC (NAME=A_$CASE, STCLASS=CONSTANT,
      488     6861            READ=%TRUE, WRITE=%TRUE);
      489     6879
      490     6880
      491     6881        %VD_TEXTC_REMOTE (NAME=K_$COMMAND, STCLASS=CONSTANT,
      492     6882            IBYTES='$COMMAND');
      493     6945        %VD_NAME_SPEC (NAME=S_$COMMAND, STCLASS=CONSTANT,
      494     6946            ITYPE=%NDT_EQUALS, IWRITER=%WRTR_$COMMAND);
      495     6997        %VD_NUMBER (NAME=VD_$COMMAND, STCLASS="STATIC SYMDEF",
      496     6998            ICLASS=%CLS_BOOLEAN, IV=0);       /* Default filled in by code */
      497     7045        %VD_NAC (NAME=A_$COMMAND, STCLASS=STATIC,
PL6.E3A0      #001=VDG$WINIT File=VDG$WORKSPACE.:VDA5TSI                         FRI 07/04/97 11:25 Page:15
      498     7046            READ=%TRUE, WRITE=%TRUE);       /* May be changed by code */
      499     7064
      500     7065
      501     7066        %VD_TEXTC_REMOTE (NAME=K_$COMMENT, STCLASS=CONSTANT,
      502     7067            IBYTES='$COMMENT');
      503     7130        %VD_NAME_SPEC (NAME=S_$COMMENT, STCLASS=CONSTANT,
      504     7131            ITYPE=%NDT_EQUALS, IWRITER=%WRTR_$COMMENT,
      505     7132            IM=0, IN=%MXNB_$COMMENT);            /* Min and max lengths */
      506     7183        %VD_BUFFER (NAME=VD_$COMMENT, STCLASS="STATIC SYMDEF",
      507     7184            MXNB=%MXNB_$COMMENT, IBYTES=%DFLT_$COMMENT);
      508     7244        %VD_NAC (NAME=A_$COMMENT, STCLASS=CONSTANT,
      509     7245            READ=%TRUE, WRITE=%TRUE);
      510     7263
      511     7264
      512     7265        %VD_TEXTC_REMOTE (NAME=K_$COMPONENT, STCLASS=CONSTANT,
      513     7266            IBYTES='$COMPONENT');
      514     7329        %VD_NAME_SPEC (NAME=S_$COMPONENT, STCLASS=CONSTANT,
      515     7330            ITYPE=%NDT_EQUALS, IWRITER=%WRTR_$COMPONENT,
      516     7331            IM=1, IN="%MAX(CO_KEY, CO_SPEC, CO_DATA)");
      517     7382        %VD_NUMBER (NAME=VD_$COMPONENT, STCLASS="STATIC SYMDEF",
      518     7383            ICLASS=%CLS_COMPONENT, IV=%CO_DATA);
      519     7430        %VD_NAC (NAME=A_$COMPONENT, STCLASS=CONSTANT,
      520     7431            READ=%FALSE, WRITE=%TRUE);
      521     7449
      522     7450
      523     7451        %VD_TEXTC_REMOTE (NAME=K_$CONTEXT, STCLASS=CONSTANT,
      524     7452            IBYTES='$CONTEXT');
      525     7515        %VD_NAME_SPEC (NAME=S_$CONTEXT, STCLASS=CONSTANT,
      526     7516            ITYPE=%NDT_EQUALS, IWRITER=%WRTR_$CONTEXT,
      527     7517            IM=0, IN=%MXNB_FID);            /* Min and max lengths */
      528     7568        %VD_BUFFER (NAME=VD_$CONTEXT, STCLASS="STATIC SYMDEF",
      529     7569            MXNB=2, IBYTES="''");
      530     7629        %VD_NAC (NAME=A_$CONTEXT, STCLASS=CONSTANT,
      531     7630            READ=%TRUE); /*N* Let users write to $CONTEXT (ala star 23676?) */
      532     7648
      533     7649
      534     7650        %VD_TEXTC_REMOTE (NAME=K_$CONTROL, STCLASS=CONSTANT,
PL6.E3A0      #001=VDG$WINIT File=VDG$WORKSPACE.:VDA5TSI                         FRI 07/04/97 11:25 Page:16
      535     7651            IBYTES='$CONTROL');
      536     7714        %VD_NAME_SPEC (NAME=S_$CONTROL, STCLASS=CONSTANT,
      537     7715            ITYPE=%NDT_EQUALS, IWRITER=%WRTR_$CONTROL,
      538     7716            IM=0, IN=%MXNB_$CONTROL);            /* Min and max lengths */
      539     7767        %VD_BUFFER (NAME=VD_$CONTROL, STCLASS="STATIC SYMDEF",
      540     7768            MXNB=%MXNB_$CONTROL, IBYTES=%DFLT_$CONTROL);
      541     7828        %VD_NAC (NAME=A_$CONTROL, STCLASS=CONSTANT,
      542     7829            READ=%TRUE, WRITE=%TRUE);
      543     7847
      544     7848
      545     7849        %VD_TEXTC_REMOTE (NAME=K_$DEFAULT_DESTINATION, STCLASS=CONSTANT,
      546     7850            IBYTES='$DEFAULT_DESTINATION');
      547     7913        %VD_NAME_SPEC (NAME=S_$DEFAULT_DESTINATION, STCLASS=CONSTANT,
      548     7914            ITYPE=%NDT_EQUALS, IWRITER=%WRTR_$DEFAULT_DEST,
      549     7915            IM=0, IN=%MXNB_DFLT_BLKEXPR);   /* Min and max lengths */
      550     7966        %VD_BUFFER (NAME=VD_$DEFAULT_DESTINATION, STCLASS="STATIC SYMDEF",
      551     7967            MXNB=%MXNB_DFLT_BLKEXPR, IBYTES=%DFLT_$DEFAULT_DEST);
      552     8027        %VD_NAC (NAME=A_$DEFAULT_DESTINATION, STCLASS=CONSTANT,
      553     8028            READ=%FALSE, WRITE=%TRUE);
      554     8046
      555     8047
      556     8048        %VD_TEXTC_REMOTE (NAME=K_$DEFAULT_SOURCE, STCLASS=CONSTANT,
      557     8049            IBYTES='$DEFAULT_SOURCE');
      558     8112        %VD_NAME_SPEC (NAME=S_$DEFAULT_SOURCE, STCLASS=CONSTANT,
      559     8113            ITYPE=%NDT_EQUALS, IWRITER=%WRTR_$DEFAULT_SOURCE,
      560     8114            IM=0, IN=%MXNB_DFLT_BLKEXPR);   /* Min and max lengths */
      561     8165        %VD_BUFFER (NAME=VD_$DEFAULT_SOURCE, STCLASS="STATIC SYMDEF",
      562     8166            MXNB=%MXNB_DFLT_BLKEXPR, IBYTES=%DFLT_$DEFAULT_SOURCE);
      563     8226        %VD_NAC (NAME=A_$DEFAULT_SOURCE, STCLASS=CONSTANT,
      564     8227            READ=%FALSE, WRITE=%TRUE);
      565     8245
      566     8246
      567     8247        %VD_TEXTC_REMOTE (NAME=K_$DIRECTION, STCLASS=CONSTANT,
      568     8248            IBYTES='$DIRECTION');
      569     8311        %VD_NAME_SPEC (NAME=S_$DIRECTION, STCLASS=CONSTANT,
      570     8312            ITYPE=%NDT_EQUALS, IWRITER=%WRTR_$DIRECTION,
      571     8313            IM=1, IN="%MAX(DIR_FORWARD, DIR_BACKWARD)");
PL6.E3A0      #001=VDG$WINIT File=VDG$WORKSPACE.:VDA5TSI                         FRI 07/04/97 11:25 Page:17
      572     8364        %VD_NUMBER (NAME=VD_$DIRECTION, STCLASS="STATIC SYMDEF",
      573     8365            ICLASS=%CLS_DIRECTION, IV=%DIR_FORWARD);
      574     8412        %VD_NAC (NAME=A_$DIRECTION, STCLASS=CONSTANT,
      575     8413            READ=%TRUE, WRITE=%TRUE);
      576     8431
      577     8432
      578     8433        %VD_TEXTC_REMOTE (NAME=K_$EOF_MARK, STCLASS=CONSTANT,
      579     8434            IBYTES='$END_MARK');
      580     8497        %VD_NAME_SPEC (NAME=S_$EOF_MARK, STCLASS=CONSTANT,
      581     8498            ITYPE=%NDT_EQUALS, IWRITER=%WRTR_$EOF_MARK, IWINDOWABLE=%TRUE,
      582     8499            IM=0, IN=%MXNB_$EOF_MARK);   /* Min and Max lengths */
      583     8550        %VD_BUFFER (NAME=VD_$EOF_MARK, STCLASS=STATIC SYMDEF,
      584     8551            MXNB=%MXNB_$EOF_MARK, IBYTES='');
      585     8611        %VD_NAC (NAME=A_$EOF_MARK, STCLASS=CONSTANT,
      586     8612            READ=%TRUE, WRITE=%TRUE);
      587     8630
      588     8631
      589     8632        %VD_TEXTC_REMOTE (NAME=K_$EXIST, STCLASS=CONSTANT,
      590     8633            IBYTES='$EXIST');
      591     8696        %VD_NAME_SPEC (NAME=S_$EXIST, STCLASS=CONSTANT,
      592     8697            ITYPE=%NDT_EQUALS, IWRITER=%WRTR_$EXIST,
      593     8698            IM=1, IN="%MAX(EX_NEW, EX_OLD, EX_ANY)");
      594     8749        %VD_NUMBER (NAME=VD_$EXIST, STCLASS="STATIC SYMDEF",
      595     8750            ICLASS=%CLS_EXIST, IV=%EX_OLD);
      596     8797        %VD_NAC (NAME=A_$EXIST, STCLASS=CONSTANT,
      597     8798            READ=%TRUE, WRITE=%TRUE);
      598     8816
      599     8817
      600     8818        %VD_TEXTC_REMOTE (NAME=K_$EZ_APPEND, STCLASS=CONSTANT,
      601     8819            IBYTES='$EZ_APPEND');
      602     8882        %VD_NAME_SPEC (NAME=S_$EZ_APPEND, STCLASS=CONSTANT,
      603     8883            ITYPE=%NDT_EQUALS, IWRITER=%WRTR_$EZ_APPEND, IWINDOWABLE=%TRUE);
      604     8934        %VD_NUMBER (NAME=VD_$EZ_APPEND, STCLASS=STATIC SYMDEF,
      605     8935            ICLASS=%CLS_BOOLEAN, IV=%DFLT_$EZ_APPEND);
      606     8982        %VD_NAC (NAME=A_$EZ_APPEND, STCLASS=CONSTANT,
      607     8983            READ=%TRUE, WRITE=%TRUE);
      608     9001
PL6.E3A0      #001=VDG$WINIT File=VDG$WORKSPACE.:VDA5TSI                         FRI 07/04/97 11:25 Page:18
      609     9002
      610     9003        %VD_TEXTC_REMOTE (NAME=K_$FILETYPE, STCLASS=CONSTANT,
      611     9004            IBYTES='$FILETYPE');
      612     9067        %VD_NAME_SPEC (NAME=S_$FILETYPE, STCLASS=CONSTANT,
      613     9068            ITYPE=%NDT_EQUALS, IWRITER=%WRTR_$FILETYPE, IREADER=%RDR_$FILETYPE,
      614     9069            IM=0, IN=2);
      615     9120        %VD_BUFFER (NAME=VD_$FILETYPE, STCLASS=STATIC SYMDEF,
      616     9121            MXNB=2, IBYTES=%CHR_DATA_FILE_TYPE);
      617     9181        %VD_NAC (NAME=A_$FILETYPE, STCLASS=CONSTANT,
      618     9182            READ=%TRUE, WRITE=%TRUE);
      619     9200
      620     9201
      621     9202        %VD_TEXTC_REMOTE (NAME=K_$FILEORG, STCLASS=CONSTANT,
      622     9203            IBYTES='$FILEORG');
      623     9266        %VD_NAME_SPEC (NAME=S_$FILEORG, STCLASS=CONSTANT,
      624     9267            ITYPE=%NDT_EQUALS, IREADER=%RDR_$FILEORG);
      625     9318        %VD_NAC (NAME=A_$FILEORG, STCLASS=CONSTANT,
      626     9319            READ=%TRUE, WRITE=%FALSE);
      627     9337
      628     9338
      629     9339        %VD_TEXTC_REMOTE (NAME=K_$FILERECORDS, STCLASS=CONSTANT,
      630     9340            IBYTES='$FILERECORDS');
      631     9403        %VD_NAME_SPEC (NAME=S_$FILERECORDS, STCLASS=CONSTANT,
      632     9404            ITYPE=%NDT_EQUALS, IREADER=%RDR_$FILERECORDS);
      633     9455        %VD_NAC (NAME=A_$FILERECORDS, STCLASS=CONSTANT,
      634     9456            READ=%TRUE, WRITE=%FALSE);
      635     9474
      636     9475
      637     9476        %VD_TEXTC_REMOTE (NAME=K_$HSALL, STCLASS=CONSTANT,
      638     9477            IBYTES='$HSALL');
      639     9540        %VD_NAME_SPEC (NAME=S_$HSALL, STCLASS=CONSTANT,
      640     9541            ITYPE=%NDT_EQUALS, IWRITER=%WRTR_$HSALL, IWINDOWABLE=%TRUE);
      641     9592        %VD_NUMBER (NAME=VD_$HSALL, STCLASS=STATIC SYMDEF,
      642     9593            ICLASS=%CLS_BOOLEAN, IV="%BITBIN(FALSE)");
      643     9640        %VD_NAC (NAME=A_$HSALL, STCLASS=CONSTANT,
      644     9641            READ=%TRUE, WRITE=%TRUE);
      645     9659
PL6.E3A0      #001=VDG$WINIT File=VDG$WORKSPACE.:VDA5TSI                         FRI 07/04/97 11:25 Page:19
      646     9660        %VD_TEXTC_REMOTE (NAME=K_$HSCROLL, STCLASS=CONSTANT,
      647     9661            IBYTES='$HSCROLL');
      648     9724        %VD_NAME_SPEC (NAME=S_$HSCROLL, STCLASS="STATIC SYMDEF",
      649     9725            ITYPE=%NDT_EQUALS, IWRITER=%WRTR_$HSCROLL, IWINDOWABLE=%TRUE,
      650     9726            IM=0, IN=0);    /* Min and max; max filled in by code */
      651     9777        %VD_NUMBER (NAME=VD_$HSCROLL, STCLASS="STATIC SYMDEF",
      652     9778            ICLASS=%CLS_NUMBER, IV=%DFLT_$HSCROLL);
      653     9825        %VD_NAC (NAME=A_$HSCROLL, STCLASS=CONSTANT,
      654     9826            READ=%TRUE, WRITE=%TRUE);
      655     9844
      656     9845
      657     9846        %VD_TEXTC_REMOTE (NAME=K_$HSCROLL_MARGIN, STCLASS=CONSTANT,
      658     9847            IBYTES='$HSCROLL_MARGIN');
      659     9910        %VD_NAME_SPEC (NAME=S_$HSCROLL_MARGIN, STCLASS="STATIC SYMDEF",
      660     9911            ITYPE=%NDT_EQUALS, IWRITER=%WRTR_$HSCROLL_MARGIN, IWINDOWABLE=%TRUE,
      661     9912            IM=0, IN=0);    /* Min and max; max filled in by code */
      662     9963        %VD_NUMBER (NAME=VD_$HSCROLL_MARGIN, STCLASS="STATIC SYMDEF",
      663     9964            ICLASS=%CLS_NUMBER, IV=0);
      664    10011        %VD_NAC (NAME=A_$HSCROLL_MARGIN, STCLASS=CONSTANT,
      665    10012            READ=%TRUE, WRITE=%TRUE);
      666    10030
      667    10031
      668    10032        %VD_TEXTC_REMOTE (NAME=K_$INSERT, STCLASS=CONSTANT,
      669    10033            IBYTES='$INSERT');
      670    10096        %VD_NAME_SPEC (NAME=S_$INSERT, STCLASS=CONSTANT,
      671    10097            ITYPE=%NDT_EQUALS, IWRITER=%WRTR_$INSERT, IWINDOWABLE=%TRUE);
      672    10148        %VD_NUMBER (NAME=VD_$INSERT, STCLASS="STATIC SYMDEF",
      673    10149            ICLASS=%CLS_BOOLEAN, IV="%BITBIN(FALSE)");
      674    10196        %VD_NAC (NAME=A_$INSERT, STCLASS=CONSTANT,
      675    10197            READ=%TRUE, WRITE=%TRUE);
      676    10215
      677    10216
      678    10217        %VD_TEXTC_REMOTE (NAME=K_$INITIALIZE, STCLASS=CONSTANT,
      679    10218            IBYTES='$INITIALIZE');
      680    10281        %VD_NAME_SPEC (NAME=S_$INITIALIZE, STCLASS=CONSTANT,
      681    10282            ITYPE=%NDT_EQUALS, IWRITER=%WRTR_$INITIALIZE, IN=511);
      682    10333        %VD_BUFFER (NAME=VD_$INITIALIZE, STCLASS=STATIC SYMDEF,
PL6.E3A0      #001=VDG$WINIT File=VDG$WORKSPACE.:VDA5TSI                         FRI 07/04/97 11:25 Page:20
      683    10334            MXNB=2, IBYTES='');
      684    10394        %VD_NAC (NAME=A_$INITIALIZE, STCLASS=CONSTANT,
      685    10395            READ=%TRUE, WRITE=%TRUE);
      686    10413
      687    10414
      688    10415        %VD_TEXTC_REMOTE (NAME=K_$INTRO_1, STCLASS=CONSTANT,
      689    10416            IBYTES='$INTRO_1');
      690    10479        %VD_NAME_SPEC (NAME=S_$INTRO_1, STCLASS=CONSTANT,
      691    10480            ITYPE=%NDT_EQUALS, IWRITER=%WRTR_$INTRO_1, IWINDOWABLE=%TRUE,
      692    10481            IM=0, IN=%MXNB_$INTRO);     /* Min and max lengths */
      693    10532        %VD_BUFFER (NAME=VD_$INTRO_1, STCLASS="STATIC SYMDEF",
      694    10533            MXNB=%MXNB_$INTRO, IBYTES=%DFLT_$INTRO_1);
      695    10593        %VD_NAC (NAME=A_$INTRO_1, STCLASS=CONSTANT,
      696    10594            READ=%TRUE, WRITE=%TRUE);
      697    10612
      698    10613
      699    10614        %VD_TEXTC_REMOTE (NAME=K_$INTRO_2, STCLASS=CONSTANT,
      700    10615            IBYTES='$INTRO_2');
      701    10678        %VD_NAME_SPEC (NAME=S_$INTRO_2, STCLASS=CONSTANT,
      702    10679            ITYPE=%NDT_EQUALS, IWRITER=%WRTR_$INTRO_2, IWINDOWABLE=%TRUE,
      703    10680            IM=0, IN=%MXNB_$INTRO);     /* Min and max lengths */
      704    10731        %VD_BUFFER (NAME=VD_$INTRO_2, STCLASS="STATIC SYMDEF",
      705    10732            MXNB=%MXNB_$INTRO, IBYTES="''");
      706    10792        %VD_NAC (NAME=A_$INTRO_2, STCLASS=CONSTANT,
      707    10793            READ=%TRUE, WRITE=%TRUE);
      708    10811
      709    10812
      710    10813        %VD_TEXTC_REMOTE (NAME=K_$KEY_GENERATION, STCLASS=CONSTANT,
      711    10814            IBYTES='$KEY_GENERATION');
      712    10877        %VD_NAME_SPEC (NAME=S_$KEY_GENERATION, STCLASS=CONSTANT,
      713    10878            ITYPE=%NDT_EQUALS, IWRITER=%WRTR_$KEY_GENERATION, IWINDOWABLE=%TRUE,
      714    10879            IM=4, IN=7);                /* Min and max legal values */
      715    10930        %VD_NUMBER (NAME=VD_$KEY_GENERATION, STCLASS="STATIC SYMDEF",
      716    10931            ICLASS=%CLS_KEY_TYPE, IV=%DFLT_$KEY_GENERATION);
      717    10978        %VD_NAC (NAME=A_$KEY_GENERATION, STCLASS=CONSTANT,
      718    10979            READ=%TRUE, WRITE=%TRUE);
      719    10997
PL6.E3A0      #001=VDG$WINIT File=VDG$WORKSPACE.:VDA5TSI                         FRI 07/04/97 11:25 Page:21
      720    10998
      721    10999        %VD_TEXTC_REMOTE (NAME=K_$MATCHES, STCLASS=CONSTANT,
      722    11000            IBYTES='$MATCHES');
      723    11063        %VD_NAME_SPEC (NAME=S_$MATCHES, STCLASS=CONSTANT,
      724    11064            ITYPE=%NDT_EQUALS, IWRITER=%WRTR_$MATCHES,
      725    11065            IM=0, IN=%INFINITY);            /* All positive values OK */
      726    11116        %VD_NUMBER (NAME=VD_$MATCHES, STCLASS="STATIC SYMDEF",
      727    11117            ICLASS=%CLS_NUMBER, IV=0);
      728    11164        %VD_NAC (NAME=A_$MATCHES, STCLASS=CONSTANT,
      729    11165            READ=%TRUE);        /* Don't let users write to $MATCHES */
      730    11183
      731    11184
      732    11185        %VD_TEXTC_REMOTE (NAME=K_$MATCH_LIMIT, STCLASS=CONSTANT,
      733    11186            IBYTES='$MATCH_LIMIT');
      734    11249        %VD_NAME_SPEC (NAME=S_$MATCH_LIMIT, STCLASS=CONSTANT,
      735    11250            ITYPE=%NDT_EQUALS, IWRITER=%WRTR_$MATCH_LIMIT,
      736    11251            IM=0, IN=%INFINITY);        /* Min and max legal values */
      737    11302        %VD_NUMBER (NAME=VD_$MATCH_LIMIT, STCLASS="STATIC SYMDEF",
      738    11303            ICLASS=%CLS_NUMBER, IV=%DFLT_$MATCH_LIMIT);
      739    11350        %VD_NAC (NAME=A_$MATCH_LIMIT, STCLASS=CONSTANT,
      740    11351            READ=%TRUE, WRITE=%TRUE);
      741    11369
      742    11370
      743    11371        %VD_TEXTC_REMOTE (NAME=K_$MAX_COMMAND, STCLASS=CONSTANT,
      744    11372            IBYTES='$MAX_COMMAND');
      745    11435        %VD_NAME_SPEC (NAME=S_$MAX_COMMAND, STCLASS=STATIC,
      746    11436            ITYPE=%NDT_EQUALS, IWRITER=%WRTR_$MAX_COMMAND,
      747    11437            IM=1, IN="%(SCROLL_CENTER#-1)");     /* Min and max legal values */
      748    11488        %VD_NUMBER (NAME=VD_$MAX_COMMAND, STCLASS="STATIC SYMDEF",
      749    11489            ICLASS=%CLS_NUMBER, IV=0);    /* Default value filled in by code */
      750    11536        %VD_NAC (NAME=A_$MAX_COMMAND, STCLASS=CONSTANT,
      751    11537            READ=%TRUE, WRITE=%TRUE);
      752    11555
      753    11556
      754    11557        %VD_TEXTC_REMOTE (NAME=K_$MAX_RECORD, STCLASS=CONSTANT,
      755    11558            IBYTES='$MAX_RECORD');
      756    11621        %VD_NAME_SPEC (NAME=S_$MAX_RECORD, STCLASS=CONSTANT,
PL6.E3A0      #001=VDG$WINIT File=VDG$WORKSPACE.:VDA5TSI                         FRI 07/04/97 11:25 Page:22
      757    11622            ITYPE=%NDT_EQUALS, IWRITER=%WRTR_$MAX_RECORD,
      758    11623            IM=0, IN=%MXNB_DATA);       /* Min and max legal values */
      759    11674        %VD_NUMBER (NAME=VD_$MAX_RECORD, STCLASS="STATIC SYMDEF",
      760    11675            ICLASS=%CLS_NUMBER, IV=%DFLT_$MAX_RECORD);
      761    11722        %VD_NAC (NAME=A_$MAX_RECORD, STCLASS=CONSTANT,
      762    11723            READ=%TRUE, WRITE=%TRUE);
      763    11741
      764    11742
      765    11743        %VD_TEXTC_REMOTE (NAME=K_$MIN_COMMAND, STCLASS=CONSTANT,
      766    11744            IBYTES='$MIN_COMMAND');
      767    11807        %VD_NAME_SPEC (NAME=S_$MIN_COMMAND, STCLASS=STATIC,
      768    11808            ITYPE=%NDT_EQUALS, IWRITER=%WRTR_$MIN_COMMAND,
      769    11809            IM=0, IN="%(SCROLL_CENTER#-1)");     /* Min and max legal values */
      770    11860        %VD_NUMBER (NAME=VD_$MIN_COMMAND, STCLASS="STATIC SYMDEF",
      771    11861            ICLASS=%CLS_NUMBER, IV=%DFLT_$MIN_COMMAND);
      772    11908        %VD_NAC (NAME=A_$MIN_COMMAND, STCLASS=CONSTANT,
      773    11909            READ=%TRUE, WRITE=%TRUE);
      774    11927
      775    11928
      776    11929        %VD_TEXTC_REMOTE (NAME=K_$MIN_RECORD, STCLASS=CONSTANT,
      777    11930            IBYTES='$MIN_RECORD');
      778    11993        %VD_NAME_SPEC (NAME=S_$MIN_RECORD, STCLASS=CONSTANT,
      779    11994            ITYPE=%NDT_EQUALS, IWRITER=%WRTR_$MIN_RECORD,
      780    11995            IM=0, IN=%MXNB_DATA);       /* Min and max legal values */
      781    12046        %VD_NUMBER (NAME=VD_$MIN_RECORD, STCLASS="STATIC SYMDEF",
      782    12047            ICLASS=%CLS_NUMBER, IV=%DFLT_$MIN_RECORD);
      783    12094        %VD_NAC (NAME=A_$MIN_RECORD, STCLASS=CONSTANT,
      784    12095            READ=%TRUE, WRITE=%TRUE);
      785    12113
      786    12114
      787    12115        %VD_TEXTC_REMOTE (NAME=K_$ONESPACEEDIT, STCLASS=CONSTANT,
      788    12116            IBYTES='$ONESPACEEDIT');
      789    12179        %VD_NAME_SPEC (NAME=S_$ONESPACEEDIT, STCLASS=CONSTANT,
      790    12180            ITYPE=%NDT_EQUALS, IWRITER=%WRTR_$ONESPACEEDIT, IWINDOWABLE=%TRUE);
      791    12231        %VD_NUMBER (NAME=VD_$ONESPACEEDIT, STCLASS=STATIC SYMDEF,
      792    12232            ICLASS=%CLS_BOOLEAN, IV="%BITBIN(FALSE)");
      793    12279        %VD_NAC (NAME=A_$ONESPACEEDIT, STCLASS=CONSTANT,
PL6.E3A0      #001=VDG$WINIT File=VDG$WORKSPACE.:VDA5TSI                         FRI 07/04/97 11:25 Page:23
      794    12280            READ=%TRUE, WRITE=%TRUE);
      795    12298
      796    12299
      797    12300        %VD_TEXTC_REMOTE (NAME=K_$PAD, STCLASS=CONSTANT,
      798    12301            IBYTES='$PAD');
      799    12364        %VD_NAME_SPEC (NAME=S_$PAD, STCLASS=CONSTANT,
      800    12365            ITYPE=%NDT_EQUALS, IWRITER=%WRTR_$PAD,
      801    12366            IM=1, IN=%MXNB_$PAD);       /* Min and max lengths */
      802    12417        %VD_BUFFER (NAME=VD_$PAD, STCLASS="STATIC SYMDEF",
      803    12418            MXNB=%MXNB_$PAD, IBYTES=%DFLT_$PAD);
      804    12478        %VD_NAC (NAME=A_$PAD, STCLASS=CONSTANT,
      805    12479            READ=%TRUE, WRITE=%TRUE);
      806    12497
      807    12498
      808    12499        %VD_TEXTC_REMOTE (NAME=K_$PATTERN, STCLASS=CONSTANT,
      809    12500            IBYTES='$PATTERN');
      810    12563        %VD_NAME_SPEC (NAME=S_$PATTERN, STCLASS=CONSTANT);
      811    12614        /*N*    ITYPE=%NDT_FUNCTION, IWRITER=%WRTR_$PATTERN); */
      812    12615        %VD_POINTER (NAME=VD_$PATTERN, STCLASS="STATIC SYMDEF",
      813    12616            ICLASS=%CLS_PTR_INTREE, IV=NIL);
      814    12663        %VD_NAC (NAME=A_$PATTERN, STCLASS=CONSTANT,
      815    12664            READ=%FALSE, WRITE=%FALSE, DELETE=%FALSE);  /* No user access in A00 */
      816    12682
      817    12683
      818    12684        %VD_TEXTC_REMOTE (NAME=K_$POINT, STCLASS=CONSTANT,
      819    12685            IBYTES='$POINT');
      820    12748        %VD_NAME_SPEC (NAME=S_$POINT, STCLASS=CONSTANT,
      821    12749            ITYPE=%NDT_EQUALS, IWRITER=%WRTR_$POINT,
      822    12750            IM=1, IN="%MAX(PNT_BO, PNT_EO, PNT_AO)");
      823    12801        %VD_NUMBER (NAME=VD_$POINT, STCLASS="STATIC SYMDEF",
      824    12802            ICLASS=%CLS_POINT, IV=%PNT_AO);
      825    12849        %VD_NAC (NAME=A_$POINT, STCLASS=CONSTANT,
      826    12850            READ=%TRUE, WRITE=%TRUE);
      827    12868
      828    12869
      829    12870        %VD_TEXTC_REMOTE (NAME=K_$PROTECT, STCLASS=CONSTANT,
      830    12871            IBYTES='$PROTECT');
PL6.E3A0      #001=VDG$WINIT File=VDG$WORKSPACE.:VDA5TSI                         FRI 07/04/97 11:25 Page:24
      831    12934        %VD_NAME_SPEC (NAME=S_$PROTECT, STCLASS=CONSTANT,
      832    12935            ITYPE=%NDT_EQUALS, IWRITER=%WRTR_$PROTECT,
      833    12936            IM=1, IN="%MAX(PROTECT, DONT_PROTECT)");
      834    12987        %VD_NUMBER (NAME=VD_$PROTECT, STCLASS="STATIC SYMDEF",
      835    12988            ICLASS=%CLS_PROTECT, IV=%DONT_PROTECT);
      836    13035        %VD_NAC (NAME=A_$PROTECT, STCLASS=CONSTANT,
      837    13036            READ=%TRUE, WRITE=%TRUE);
      838    13054
      839    13055
      840    13056        %VD_TEXTC_REMOTE (NAME=K_$RECORDS_DELETED, STCLASS=CONSTANT,
      841    13057            IBYTES='$RECORDS_DELETED');
      842    13120        %VD_NAME_SPEC (NAME=S_$RECORDS_DELETED, STCLASS=CONSTANT,
      843    13121            ITYPE=%NDT_EQUALS, IWRITER=%WRTR_$RECORDS_DELETED,
      844    13122            IM=0, IN=%INFINITY);            /* All positive values OK */
      845    13173        %VD_NUMBER (NAME=VD_$RECORDS_DELETED, STCLASS="STATIC SYMDEF",
      846    13174            ICLASS=%CLS_NUMBER, IV=0);
      847    13221        %VD_NAC (NAME=A_$RECORDS_DELETED, STCLASS=CONSTANT,
      848    13222            READ=%TRUE);        /* Don't let users write to $RECORDS_DELETED */
      849    13240
      850    13241
      851    13242        %VD_TEXTC_REMOTE (NAME=K_$RECORDS_INSERTED, STCLASS=CONSTANT,
      852    13243            IBYTES='$RECORDS_INSERTED');
      853    13306        %VD_NAME_SPEC (NAME=S_$RECORDS_INSERTED, STCLASS=CONSTANT,
      854    13307            ITYPE=%NDT_EQUALS, IWRITER=%WRTR_$RECORDS_INSERTED,
      855    13308            IM=0, IN=%INFINITY);            /* All positive values OK */
      856    13359        %VD_NUMBER (NAME=VD_$RECORDS_INSERTED, STCLASS="STATIC SYMDEF",
      857    13360            ICLASS=%CLS_NUMBER, IV=0);
      858    13407        %VD_NAC (NAME=A_$RECORDS_INSERTED, STCLASS=CONSTANT,
      859    13408            READ=%TRUE);        /* Don't let users write to $RECORDS_INSERTED */
      860    13426
      861    13427
      862    13428        %VD_TEXTC_REMOTE (NAME=K_$RECORDWRAP, STCLASS=CONSTANT,
      863    13429            IBYTES='$RECORDWRAP');
      864    13492        %VD_NAME_SPEC (NAME=S_$RECORDWRAP, STCLASS=CONSTANT,
      865    13493            ITYPE=%NDT_EQUALS, IWRITER=%WRTR_$RECORDWRAP, IWINDOWABLE=%TRUE);
      866    13544        %VD_NUMBER (NAME=VD_$RECORDWRAP, STCLASS="STATIC SYMDEF",
      867    13545            ICLASS=%CLS_BOOLEAN, IV="%BITBIN(FALSE)");
PL6.E3A0      #001=VDG$WINIT File=VDG$WORKSPACE.:VDA5TSI                         FRI 07/04/97 11:25 Page:25
      868    13592        %VD_NAC (NAME=A_$RECORDWRAP, STCLASS=CONSTANT,
      869    13593            READ=%TRUE, WRITE=%TRUE);
      870    13611
      871    13612
      872    13613        %VD_TEXTC_REMOTE (NAME=K_$REKEY, STCLASS=CONSTANT,
      873    13614            IBYTES='$REKEY');
      874    13677        %VD_NAME_SPEC (NAME=S_$REKEY, STCLASS=CONSTANT,
      875    13678            ITYPE=%NDT_EQUALS, IWRITER=%WRTR_$REKEY,
      876    13679            IM=0, IN=1000);     /* Min and max legal values */
      877    13730        %VD_NUMBER (NAME=VD_$REKEY, STCLASS="STATIC SYMDEF",
      878    13731            ICLASS=%CLS_NUMBER, IV=%DFLT_$REKEY);
      879    13778        %VD_NAC (NAME=A_$REKEY, STCLASS=CONSTANT,
      880    13779            READ=%TRUE, WRITE=%TRUE);
      881    13797
      882    13798
      883    13799        %VD_TEXTC_REMOTE (NAME=K_$RESTORE, STCLASS=CONSTANT,
      884    13800            IBYTES='$RESTORE');
      885    13863        %VD_NAME_SPEC (NAME=S_$RESTORE, STCLASS=CONSTANT,
      886    13864            ITYPE=%NDT_EQUALS, IWRITER=%WRTR_$RESTORE,
      887    13865            IM=0, IN=%MXNB_$RESTORE);   /* Min and max lengths */
      888    13916        %VD_BUFFER (NAME=VD_$RESTORE, STCLASS="STATIC SYMDEF",
      889    13917            MXNB=%MXNB_$RESTORE, IBYTES="''");
      890    13977        %VD_NAC (NAME=A_$RESTORE, STCLASS=CONSTANT,
      891    13978            READ=%TRUE, WRITE=%TRUE);
      892    13996
      893    13997
      894    13998        %VD_TEXTC_REMOTE (NAME=K_$SCREEN, STCLASS=CONSTANT,
      895    13999            IBYTES='$SCREEN');
      896    14062        %VD_NAME_SPEC (NAME=S_$SCREEN, STCLASS="STATIC SYMDEF",
      897    14063            ITYPE=%NDT_EQUALS, IWRITER=%WRTR_$SCREEN,
      898    14064            IM=0, IN=0);    /* Min and max legal values; max filled in by code */
      899    14115        %VD_NUMBER (NAME=VD_$SCREEN, STCLASS="STATIC SYMDEF",
      900    14116            ICLASS=%CLS_NUMBER, IV=0);    /* Default value filled in by code */
      901    14163        %VD_NAC (NAME=A_$SCREEN, STCLASS=CONSTANT,
      902    14164            READ=%TRUE, WRITE=%TRUE);
      903    14182
      904    14183        %VD_TEXTC_REMOTE (NAME=K_$SCROLL, STCLASS=CONSTANT,
PL6.E3A0      #001=VDG$WINIT File=VDG$WORKSPACE.:VDA5TSI                         FRI 07/04/97 11:25 Page:26
      905    14184            IBYTES='$SCROLL');
      906    14247        %VD_NAME_SPEC (NAME=S_$SCROLL, STCLASS=CONSTANT,
      907    14248            ITYPE=%NDT_EQUALS, IWRITER=%WRTR_$SCROLL, IWINDOWABLE=%TRUE);
      908    14299        %VD_NUMBER (NAME=VD_$SCROLL, STCLASS="STATIC SYMDEF",
      909    14300            ICLASS=%CLS_BOOLEAN, IV="%BITBIN(TRUE)");
      910    14347        %VD_NAC (NAME=A_$SCROLL, STCLASS=CONSTANT,
      911    14348            READ=%TRUE, WRITE=%TRUE);
      912    14366
      913    14367        %VD_TEXTC_REMOTE (NAME=K_$SEARCH, STCLASS=CONSTANT,
      914    14368            IBYTES='$SEARCH');
      915    14431        %VD_NAME_SPEC (NAME=S_$SEARCH, STCLASS=CONSTANT,
      916    14432            ITYPE=%NDT_EQUALS, IWRITER=%WRTR_$SEARCH);
      917    14483        %VD_NUMBER (NAME=VD_$SEARCH, STCLASS="STATIC SYMDEF",
      918    14484            ICLASS=%CLS_BOOLEAN, IV="%BITBIN(FALSE)");
      919    14531        %VD_NAC (NAME=A_$SEARCH, STCLASS=CONSTANT,
      920    14532            READ=%FALSE, WRITE=%TRUE);
      921    14550
      922    14551
      923    14552        %VD_TEXTC_REMOTE (NAME=K_$SITES, STCLASS=CONSTANT,
      924    14553            IBYTES='$SITES');
      925    14616        %VD_NAME_SPEC (NAME=S_$SITES, STCLASS=CONSTANT,
      926    14617            ITYPE=%NDT_EQUALS, IWRITER=%WRTR_$SITES,
      927    14618            IM=0, IN=%INFINITY);            /* All positive values OK */
      928    14669        %VD_NUMBER (NAME=VD_$SITES, STCLASS="STATIC SYMDEF",
      929    14670            ICLASS=%CLS_NUMBER, IV=0);
      930    14717        %VD_NAC (NAME=A_$SITES, STCLASS=CONSTANT,
      931    14718            READ=%TRUE);        /* Don't let users write to $SITES */
      932    14736
      933    14737
      934    14738        %VD_TEXTC_REMOTE (NAME=K_$SKIP, STCLASS=CONSTANT,
      935    14739            IBYTES='$SKIP');
      936    14802        %VD_NAME_SPEC (NAME=S_$SKIP, STCLASS=CONSTANT,
      937    14803            ITYPE=%NDT_EQUALS, IWRITER=%WRTR_$SKIP,
      938    14804            IM=%MN_SKIP_COUNT, IN=%MX_SKIP_COUNT);
      939    14855        %VD_NUMBER (NAME=VD_$SKIP, STCLASS="STATIC SYMDEF",
      940    14856            ICLASS=%CLS_NUMBER, IV=0);
      941    14903        %VD_NAC (NAME=A_$SKIP, STCLASS=CONSTANT,
PL6.E3A0      #001=VDG$WINIT File=VDG$WORKSPACE.:VDA5TSI                         FRI 07/04/97 11:25 Page:27
      942    14904            READ=%TRUE, WRITE=%TRUE);
      943    14922
      944    14923
      945    14924        %VD_TEXTC_REMOTE (NAME=K_$STRIP_BLANKS, STCLASS=CONSTANT,
      946    14925            IBYTES='$STRIP_BLANKS');
      947    14988        %VD_NAME_SPEC (NAME=S_$STRIP_BLANKS, STCLASS=CONSTANT,
      948    14989            ITYPE=%NDT_EQUALS, IWRITER=%WRTR_$STRIP_BLANKS);
      949    15040        %VD_NUMBER (NAME=VD_$STRIP_BLANKS, STCLASS="STATIC SYMDEF",
      950    15041            ICLASS=%CLS_BOOLEAN, IV="%BITBIN(TRUE)");
      951    15088        %VD_NAC (NAME=A_$STRIP_BLANKS, STCLASS=CONSTANT,
      952    15089            READ=%TRUE, WRITE=%TRUE);
      953    15107
      954    15108
      955    15109        %VD_TEXTC_REMOTE (NAME=K_$STRUCTURE, STCLASS=CONSTANT,
      956    15110            IBYTES='$STRUCTURE');
      957    15173        %VD_NAME_SPEC (NAME=S_$STRUCTURE, STCLASS=CONSTANT,
      958    15174            ITYPE=%NDT_EQUALS, IWRITER=%WRTR_$STRUCTURE);
      959    15225        %VD_POINTER (NAME=VD_$STRUCTURE, STCLASS="STATIC SYMDEF",
      960    15226            ICLASS=%CLS_PTR_FILE_NODE, IV=NIL); /* Default filled in by code */
      961    15273        %VD_NAC (NAME=A_$STRUCTURE, STCLASS=CONSTANT,
      962    15274            READ=%FALSE, WRITE=%TRUE);
      963    15292
      964    15293
      965    15294        %VD_TEXTC_REMOTE (NAME=K_$TEXTEDIT, STCLASS=CONSTANT,
      966    15295            IBYTES='$TEXTEDIT');
      967    15358        %VD_NAME_SPEC (NAME=S_$TEXTEDIT, STCLASS=CONSTANT,
      968    15359            ITYPE=%NDT_EQUALS, IWRITER=%WRTR_$TEXTEDIT, IWINDOWABLE=%TRUE);
      969    15410        %VD_NUMBER (NAME=VD_$TEXTEDIT, STCLASS=STATIC SYMDEF,
      970    15411            ICLASS=%CLS_BOOLEAN, IV="%BITBIN(FALSE)");
      971    15458        %VD_NAC (NAME=A_$TEXTEDIT, STCLASS=CONSTANT,
      972    15459            READ=%TRUE, WRITE=%TRUE);
      973    15477
      974    15478        %VD_TEXTC_REMOTE (NAME=K_$VSCROLL, STCLASS=CONSTANT,
      975    15479            IBYTES='$VSCROLL');
      976    15542        %VD_NAME_SPEC (NAME=S_$VSCROLL, STCLASS="STATIC SYMDEF",
      977    15543            ITYPE=%NDT_EQUALS, IWRITER=%WRTR_$VSCROLL, IWINDOWABLE=%TRUE,
      978    15544            IM=0, IN="%(SCROLL_CENTER#-1)"); /* Min and max values; 0=center */
PL6.E3A0      #001=VDG$WINIT File=VDG$WORKSPACE.:VDA5TSI                         FRI 07/04/97 11:25 Page:28
      979    15595        %VD_NUMBER (NAME=VD_$VSCROLL, STCLASS="STATIC SYMDEF",
      980    15596            ICLASS=%CLS_NUMBER, IV=%DFLT_$VSCROLL);
      981    15643        %VD_NAC (NAME=A_$VSCROLL, STCLASS=CONSTANT,
      982    15644            READ=%TRUE, WRITE=%TRUE);
      983    15662
      984    15663
      985    15664        %VD_TEXTC_REMOTE (NAME=K_$VSCROLL_MARGIN, STCLASS=CONSTANT,
      986    15665            IBYTES='$VSCROLL_MARGIN');
      987    15728        %VD_NAME_SPEC (NAME=S_$VSCROLL_MARGIN, STCLASS="STATIC SYMDEF",
      988    15729            ITYPE=%NDT_EQUALS, IWRITER=%WRTR_$VSCROLL_MARGIN, IWINDOWABLE=%TRUE,
      989    15730            IM=0, IN="%(SCROLL_CENTER#-1)");     /* Min and max legal values */
      990    15781        %VD_NUMBER (NAME=VD_$VSCROLL_MARGIN, STCLASS="STATIC SYMDEF",
      991    15782            ICLASS=%CLS_NUMBER, IV=0);    /* Default value filled in by code */
      992    15829        %VD_NAC (NAME=A_$VSCROLL_MARGIN, STCLASS=CONSTANT,
      993    15830            READ=%TRUE, WRITE=%TRUE);
      994    15848
      995    15849
      996    15850        %VD_TEXTC_REMOTE (NAME=K_$WI_BORDER, STCLASS=CONSTANT,
      997    15851            IBYTES='$WI_BORDER');
      998    15914        %VD_NAME_SPEC (NAME=S_$WI_BORDER, STCLASS=CONSTANT,
      999    15915            ITYPE=%NDT_EQUALS, IWRITER=%WRTR_$WI_BORDER,
     1000    15916            IM=0, IN=1);            /* Min and max lengths */
     1001    15967        %VD_BUFFER (NAME=VD_$WI_BORDER, STCLASS="STATIC SYMDEF",
     1002    15968            MXNB=1, IBYTES=%DFLT_$WI_BORDER);
     1003    16028        %VD_NAC (NAME=A_$WI_BORDER, STCLASS=CONSTANT,
     1004    16029            READ=%TRUE, WRITE=%TRUE);
     1005    16047
     1006    16048
     1007    16049        %VD_TEXTC_REMOTE (NAME=K_$WI_PERCENT, STCLASS=CONSTANT,
     1008    16050            IBYTES='$WI_PERCENT');
     1009    16113        %VD_NAME_SPEC (NAME=S_$WI_PERCENT, STCLASS=CONSTANT,
     1010    16114            ITYPE=%NDT_EQUALS, IWRITER=%WRTR_$WI_PERCENT,
     1011    16115            IM=1, IN=99);       /* Min and max legal values */
     1012    16166        %VD_NUMBER (NAME=VD_$WI_PERCENT, STCLASS="STATIC SYMDEF",
     1013    16167            ICLASS=%CLS_NUMBER, IV=%DFLT_$WI_PERCENT);
     1014    16214        %VD_NAC (NAME=A_$WI_PERCENT, STCLASS=CONSTANT,
     1015    16215            READ=%TRUE, WRITE=%TRUE);
PL6.E3A0      #001=VDG$WINIT File=VDG$WORKSPACE.:VDA5TSI                         FRI 07/04/97 11:25 Page:29
     1016    16233
     1017    16234
     1018    16235        %VD_TEXTC_REMOTE (NAME=K_$WORDWRAP, STCLASS=CONSTANT,
     1019    16236            IBYTES='$WORDWRAP');
     1020    16299        %VD_NAME_SPEC (NAME=S_$WORDWRAP, STCLASS=CONSTANT,
     1021    16300            ITYPE=%NDT_EQUALS, IWRITER=%WRTR_$WORDWRAP, IWINDOWABLE=%TRUE,
     1022    16301            IM=0, IN=%MX_TERMINAL_POSITION); /* Mn/mx legal values (<12=off) */
     1023    16352        %VD_NUMBER (NAME=VD_$WORDWRAP, STCLASS="STATIC SYMDEF",
     1024    16353            ICLASS=%CLS_NUMBER, IV=0);
     1025    16400        %VD_NAC (NAME=A_$WORDWRAP, STCLASS=CONSTANT,
     1026    16401            READ=%TRUE, WRITE=%TRUE);
     1027    16419
     1028    16420
     1029    16421        %VD_TEXTC_REMOTE (NAME=K_$WS_STORAGE, STCLASS=CONSTANT,
     1030    16422            IBYTES='$WS_STORAGE');
     1031    16485        %VD_NAME_SPEC (NAME=S_$WS_STORAGE, STCLASS=CONSTANT,
     1032    16486            ITYPE=%NDT_EQUALS, IWRITER=%WRTR_$WS_STORAGE,
     1033    16487            IM=0, IN=1);            /* Min and max lengths */
     1034    16538        %VD_BUFFER (NAME=VD_$WS_STORAGE, STCLASS="STATIC SYMDEF",
     1035    16539            ICLASS=%CLS_FILE_STCLASS,
     1036    16540            MXNB=1, IBYTES=%DFLT_$WS_STORAGE);
     1037    16600        %VD_NAC (NAME=A_$WS_STORAGE, STCLASS=CONSTANT,
     1038    16601            READ=%FALSE, WRITE=%TRUE);
     1039    16619
     1040    16620
     1041    16621        %VD_TEXTC_REMOTE (NAME=K_ANY, STCLASS=CONSTANT,
     1042    16622            IBYTES='ANY');
     1043    16685        %VD_NAME_SPEC (NAME=S_ANY, STCLASS=CONSTANT,
     1044    16686            ITYPE=%NDT_EQUALS);
     1045    16737        %VD_NUMBER (NAME=D_ANY, STCLASS=CONSTANT,
     1046    16738            ICLASS=%CLS_NUMBER, IV="%EX_ANY");
     1047    16785        %VD_NAC (NAME=A_ANY, STCLASS=CONSTANT,
     1048    16786            READ=%TRUE);
     1049    16804
     1050    16805
     1051    16806        %VD_TEXTC_REMOTE (NAME=K_AO, STCLASS=CONSTANT,
     1052    16807            IBYTES='AO');
PL6.E3A0      #001=VDG$WINIT File=VDG$WORKSPACE.:VDA5TSI                         FRI 07/04/97 11:25 Page:30
     1053    16870        %VD_NAME_SPEC (NAME=S_AO, STCLASS=CONSTANT,
     1054    16871            ITYPE=%NDT_EQUALS);
     1055    16922        %VD_NUMBER (NAME=D_AO, STCLASS=CONSTANT,
     1056    16923            ICLASS=%CLS_NUMBER, IV="%PNT_AO");
     1057    16970        %VD_NAC (NAME=A_AO, STCLASS=CONSTANT,
     1058    16971            READ=%TRUE);
     1059    16989
     1060    16990
     1061    16991        %VD_TEXTC_REMOTE (NAME=K_BACKWARD, STCLASS=CONSTANT,
     1062    16992            IBYTES='BACKWARD');
     1063    17055        %VD_NAME_SPEC (NAME=S_BACKWARD, STCLASS=CONSTANT,
     1064    17056            ITYPE=%NDT_EQUALS);
     1065    17107        %VD_NUMBER (NAME=D_BACKWARD, STCLASS=CONSTANT,
     1066    17108            ICLASS=%CLS_NUMBER, IV="%DIR_BACKWARD");
     1067    17155        %VD_NAC (NAME=A_BACKWARD, STCLASS=CONSTANT,
     1068    17156            READ=%TRUE);
     1069    17174
     1070    17175
     1071    17176        %VD_TEXTC_REMOTE (NAME=K_BIN10, STCLASS=CONSTANT,
     1072    17177            IBYTES='BIN10');
     1073    17240        %VD_NAME_SPEC (NAME=S_BIN10, STCLASS=CONSTANT,
     1074    17241            ITYPE=%NDT_EQUALS);
     1075    17292        %VD_NUMBER (NAME=D_BIN10, STCLASS=CONSTANT,
     1076    17293            ICLASS=%CLS_NUMBER, IV="%KEYTYPE_BIN10#");
     1077    17340        %VD_NAC (NAME=A_BIN10, STCLASS=CONSTANT,
     1078    17341            READ=%TRUE);
     1079    17359
     1080    17360
     1081    17361        %VD_TEXTC_REMOTE (NAME=K_BIN521, STCLASS=CONSTANT,
     1082    17362            IBYTES='BIN521');
     1083    17425        %VD_NAME_SPEC (NAME=S_BIN521, STCLASS=CONSTANT,
     1084    17426            ITYPE=%NDT_EQUALS);
     1085    17477        %VD_NUMBER (NAME=D_BIN521, STCLASS=CONSTANT,
     1086    17478            ICLASS=%CLS_NUMBER, IV="%KEYTYPE_BIN521#");
     1087    17525        %VD_NAC (NAME=A_BIN521, STCLASS=CONSTANT,
     1088    17526            READ=%TRUE);
     1089    17544
PL6.E3A0      #001=VDG$WINIT File=VDG$WORKSPACE.:VDA5TSI                         FRI 07/04/97 11:25 Page:31
     1090    17545
     1091    17546        %VD_TEXTC_REMOTE (NAME=K_BINHLF, STCLASS=CONSTANT,
     1092    17547            IBYTES='BINHLF');
     1093    17610        %VD_NAME_SPEC (NAME=S_BINHLF, STCLASS=CONSTANT,
     1094    17611            ITYPE=%NDT_EQUALS);
     1095    17662        %VD_NUMBER (NAME=D_BINHLF, STCLASS=CONSTANT,
     1096    17663            ICLASS=%CLS_NUMBER, IV="%KEYTYPE_BINHLF#");
     1097    17710        %VD_NAC (NAME=A_BINHLF, STCLASS=CONSTANT,
     1098    17711            READ=%TRUE);
     1099    17729
     1100    17730
     1101    17731        %VD_TEXTC_REMOTE (NAME=K_BO, STCLASS=CONSTANT,
     1102    17732            IBYTES='BO');
     1103    17795        %VD_NAME_SPEC (NAME=S_BO, STCLASS=CONSTANT,
     1104    17796            ITYPE=%NDT_EQUALS);
     1105    17847        %VD_NUMBER (NAME=D_BO, STCLASS=CONSTANT,
     1106    17848            ICLASS=%CLS_NUMBER, IV="%PNT_BO");
     1107    17895        %VD_NAC (NAME=A_BO, STCLASS=CONSTANT,
     1108    17896            READ=%TRUE);
     1109    17914
     1110    17915
     1111    17916        %VD_TEXTC_REMOTE (NAME=K_DATA, STCLASS=CONSTANT,
     1112    17917            IBYTES='DATA');
     1113    17980        %VD_NAME_SPEC (NAME=S_DATA, STCLASS=CONSTANT,
     1114    17981            ITYPE=%NDT_EQUALS);
     1115    18032        %VD_NUMBER (NAME=D_DATA, STCLASS=CONSTANT,
     1116    18033            ICLASS=%CLS_NUMBER, IV="%CO_DATA");
     1117    18080        %VD_NAC (NAME=A_DATA, STCLASS=CONSTANT,
     1118    18081            READ=%FALSE);
     1119    18099
     1120    18100
     1121    18101        %VD_TEXTC_REMOTE (NAME=K_DONT_PROTECT, STCLASS=CONSTANT,
     1122    18102            IBYTES='DONT_PROTECT');
     1123    18165        %VD_NAME_SPEC (NAME=S_DONT_PROTECT, STCLASS=CONSTANT,
     1124    18166            ITYPE=%NDT_EQUALS);
     1125    18217        %VD_NUMBER (NAME=D_DONT_PROTECT, STCLASS=CONSTANT,
     1126    18218            ICLASS=%CLS_NUMBER, IV="%DONT_PROTECT");
PL6.E3A0      #001=VDG$WINIT File=VDG$WORKSPACE.:VDA5TSI                         FRI 07/04/97 11:25 Page:32
     1127    18265        %VD_NAC (NAME=A_DONT_PROTECT, STCLASS=CONSTANT,
     1128    18266            READ=%TRUE);
     1129    18284
     1130    18285
     1131    18286        %VD_TEXTC_REMOTE (NAME=K_EO, STCLASS=CONSTANT,
     1132    18287            IBYTES='EO');
     1133    18350        %VD_NAME_SPEC (NAME=S_EO, STCLASS=CONSTANT,
     1134    18351            ITYPE=%NDT_EQUALS);
     1135    18402        %VD_NUMBER (NAME=D_EO, STCLASS=CONSTANT,
     1136    18403            ICLASS=%CLS_NUMBER, IV="%PNT_EO");
     1137    18450        %VD_NAC (NAME=A_EO, STCLASS=CONSTANT,
     1138    18451            READ=%TRUE);
     1139    18469
     1140    18470
     1141    18471        %VD_TEXTC_REMOTE (NAME=K_FORWARD, STCLASS=CONSTANT,
     1142    18472            IBYTES='FORWARD');
     1143    18535        %VD_NAME_SPEC (NAME=S_FORWARD, STCLASS=CONSTANT,
     1144    18536            ITYPE=%NDT_EQUALS);
     1145    18587        %VD_NUMBER (NAME=D_FORWARD, STCLASS=CONSTANT,
     1146    18588            ICLASS=%CLS_NUMBER, IV="%DIR_FORWARD");
     1147    18635        %VD_NAC (NAME=A_FORWARD, STCLASS=CONSTANT,
     1148    18636            READ=%TRUE);
     1149    18654
     1150    18655
     1151    18656        %VD_TEXTC_REMOTE (NAME=K_KEY, STCLASS=CONSTANT,
     1152    18657            IBYTES='KEY');
     1153    18720        %VD_NAME_SPEC (NAME=S_KEY, STCLASS=CONSTANT,
     1154    18721            ITYPE=%NDT_EQUALS);
     1155    18772        %VD_NUMBER (NAME=D_KEY, STCLASS=CONSTANT,
     1156    18773            ICLASS=%CLS_NUMBER, IV="%CO_KEY");
     1157    18820        %VD_NAC (NAME=A_KEY, STCLASS=CONSTANT,
     1158    18821            READ=%FALSE);
     1159    18839
     1160    18840
     1161    18841        %VD_TEXTC_REMOTE (NAME=K_NEW, STCLASS=CONSTANT,
     1162    18842            IBYTES='NEW');
     1163    18905        %VD_NAME_SPEC (NAME=S_NEW, STCLASS=CONSTANT,
PL6.E3A0      #001=VDG$WINIT File=VDG$WORKSPACE.:VDA5TSI                         FRI 07/04/97 11:25 Page:33
     1164    18906            ITYPE=%NDT_EQUALS);
     1165    18957        %VD_NUMBER (NAME=D_NEW, STCLASS=CONSTANT,
     1166    18958            ICLASS=%CLS_NUMBER, IV="%EX_NEW");
     1167    19005        %VD_NAC (NAME=A_NEW, STCLASS=CONSTANT,
     1168    19006            READ=%TRUE);
     1169    19024
     1170    19025
     1171    19026        %VD_TEXTC_REMOTE (NAME=K_OFF, STCLASS=CONSTANT,
     1172    19027            IBYTES='OFF');
     1173    19090        %VD_NAME_SPEC (NAME=S_OFF, STCLASS=CONSTANT,
     1174    19091            ITYPE=%NDT_EQUALS);
     1175    19142        %VD_NUMBER (NAME=D_OFF, STCLASS=CONSTANT,
     1176    19143            ICLASS=%CLS_NUMBER, IV="%BITBIN(FALSE)");
     1177    19190        %VD_NAC (NAME=A_OFF, STCLASS=CONSTANT,
     1178    19191            READ=%TRUE);
     1179    19209
     1180    19210
     1181    19211        %VD_TEXTC_REMOTE (NAME=K_OLD, STCLASS=CONSTANT,
     1182    19212            IBYTES='OLD');
     1183    19275        %VD_NAME_SPEC (NAME=S_OLD, STCLASS=CONSTANT,
     1184    19276            ITYPE=%NDT_EQUALS);
     1185    19327        %VD_NUMBER (NAME=D_OLD, STCLASS=CONSTANT,
     1186    19328            ICLASS=%CLS_NUMBER, IV="%EX_OLD");
     1187    19375        %VD_NAC (NAME=A_OLD, STCLASS=CONSTANT,
     1188    19376            READ=%TRUE);
     1189    19394
     1190    19395
     1191    19396        %VD_TEXTC_REMOTE (NAME=K_ON, STCLASS=CONSTANT,
     1192    19397            IBYTES='ON');
     1193    19460        %VD_NAME_SPEC (NAME=S_ON, STCLASS=CONSTANT,
     1194    19461            ITYPE=%NDT_EQUALS);
     1195    19512        %VD_NUMBER (NAME=D_ON, STCLASS=CONSTANT,
     1196    19513            ICLASS=%CLS_NUMBER, IV="%BITBIN(TRUE)");
     1197    19560        %VD_NAC (NAME=A_ON, STCLASS=CONSTANT,
     1198    19561            READ=%TRUE);
     1199    19579
     1200    19580
PL6.E3A0      #001=VDG$WINIT File=VDG$WORKSPACE.:VDA5TSI                         FRI 07/04/97 11:25 Page:34
     1201    19581        %VD_TEXTC_REMOTE (NAME=K_PROTECT, STCLASS=CONSTANT,
     1202    19582            IBYTES='PROTECT');
     1203    19645        %VD_NAME_SPEC (NAME=S_PROTECT, STCLASS=CONSTANT,
     1204    19646            ITYPE=%NDT_EQUALS);
     1205    19697        %VD_NUMBER (NAME=D_PROTECT, STCLASS=CONSTANT,
     1206    19698            ICLASS=%CLS_NUMBER, IV="%PROTECT");
     1207    19745        %VD_NAC (NAME=A_PROTECT, STCLASS=CONSTANT,
     1208    19746            READ=%TRUE);
     1209    19764
     1210    19765
     1211    19766        %VD_TEXTC_REMOTE (NAME=K_SPEC, STCLASS=CONSTANT,
     1212    19767            IBYTES='SPEC');
     1213    19830        %VD_NAME_SPEC (NAME=S_SPEC, STCLASS=CONSTANT,
     1214    19831            ITYPE=%NDT_EQUALS);
     1215    19882        %VD_NUMBER (NAME=D_SPEC, STCLASS=CONSTANT,
     1216    19883            ICLASS=%CLS_NUMBER, IV="%CO_SPEC");
     1217    19930        %VD_NAC (NAME=A_SPEC, STCLASS=CONSTANT,
     1218    19931            READ=%FALSE);
     1219    19949
     1220    19950
     1221    19951        %VD_TEXTC_REMOTE (NAME=K_STRING, STCLASS=CONSTANT,
     1222    19952            IBYTES='STRING');
     1223    20015        %VD_NAME_SPEC (NAME=S_STRING, STCLASS=CONSTANT,
     1224    20016            ITYPE=%NDT_EQUALS);
     1225    20067        %VD_NUMBER (NAME=D_STRING, STCLASS=CONSTANT,
     1226    20068            ICLASS=%CLS_NUMBER, IV="%KEYTYPE_STRING#");
     1227    20115        %VD_NAC (NAME=A_STRING, STCLASS=CONSTANT,
     1228    20116            READ=%TRUE);
     1229    20134
     1230    20135
     1231    20136        %BOX (TITLE="Locations-file initialization tables and global values", PAGE=YES);
             20144    1
             20148    1   /***************************************************************************
             20150    1    *                                                                         *
             20154    1            *           Locations-file initialization tables and global values        *
             20156    1            *                                                                         *
             20158    1           ***************************************************************************/
PL6.E3A0      #001=VDG$WINIT File=VDG$WORKSPACE.:VDA5TSI                         FRI 07/04/97 11:25 Page:35

     1232    20162
     1233    20163    1   DCL 1 LOCATIONS_INIT (0:19) CONSTANT,
     1234    20164    1         2 KEY$ PTR
     1235    20165    1           INIT(ADDR(K_$ENCLOSING), ADDR(K_$FP), ADDR(K_$LEFTOVER),
     1236    20166    1               ADDR(K_$NOT_COPIED), ADDR(K_$RANGE), ADDR(K_CURR),
     1237    20167    1               ADDR(K_CURRENT), ADDR(K_HERE), ADDR(K_THAT), ADDR(NIL)*0),
     1238    20168    1         2 SPEC$ PTR
     1239    20169    1           INIT(ADDR(S_$ENCLOSING), ADDR(S_$FP), ADDR(S_$LEFTOVER),
     1240    20170    1               ADDR(S_$NOT_COPIED), ADDR(S_$RANGE), ADDR(S_CURR),
     1241    20171    1               ADDR(S_CURRENT), ADDR(S_HERE), ADDR(S_THAT), ADDR(NIL)*0),
     1242    20172    1         2 DATA$ PTR INIT(ADDR(NIL)*0), /* All data refers to other WS values */
     1243    20173    1         2 ACCESS$ PTR
     1244    20174    1           INIT(ADDR(A_$ENCLOSING), ADDR(A_$FP), ADDR(A_$LEFTOVER),
     1245    20175    1               ADDR(A_$NOT_COPIED), ADDR(A_$RANGE), ADDR(A_CURR),
     1246    20176    1               ADDR(A_CURRENT), ADDR(A_HERE), ADDR(A_THAT), ADDR(NIL)*0);
     1247    20177
     1248    20178
     1249    20179
     1250    20180        %VD_TEXTC_REMOTE (NAME=K_$ENCLOSING, STCLASS=CONSTANT,
     1251    20181            IBYTES='$ENCLOSING');
     1252    20244        %VD_NAME_SPEC (NAME=S_$ENCLOSING, STCLASS=CONSTANT,
     1253    20245            ITYPE=%NDT_LOCATION, IREADER=%RDR_$ENCLOSING);
     1254    20296        %VD_NAC (NAME=A_$ENCLOSING, STCLASS=CONSTANT,
     1255    20297            READ=%TRUE);
     1256    20315
     1257    20316
     1258    20317        %VD_TEXTC_REMOTE (NAME=K_$FP, STCLASS=CONSTANT,
     1259    20318            IBYTES='$FP');
     1260    20381        %VD_NAME_SPEC (NAME=S_$FP, STCLASS=CONSTANT,
     1261    20382            ITYPE=%NDT_LOCATION, IREADER=%RDR_$FP);
     1262    20433        %VD_NAC (NAME=A_$FP, STCLASS=CONSTANT,
     1263    20434            READ=%TRUE);
     1264    20452
     1265    20453
     1266    20454        %VD_TEXTC_REMOTE (NAME=K_$LEFTOVER, STCLASS=CONSTANT,
     1267    20455            IBYTES='$LEFTOVER');
PL6.E3A0      #001=VDG$WINIT File=VDG$WORKSPACE.:VDA5TSI                         FRI 07/04/97 11:25 Page:36
     1268    20518        %VD_NAME_SPEC (NAME=S_$LEFTOVER, STCLASS=CONSTANT,
     1269    20519            ITYPE=%NDT_LOCATION);
     1270    20570        %VD_NAC (NAME=A_$LEFTOVER, STCLASS=CONSTANT,
     1271    20571            READ=%TRUE);
     1272    20589
     1273    20590
     1274    20591        %VD_TEXTC_REMOTE (NAME=K_$NOT_COPIED, STCLASS=CONSTANT,
     1275    20592            IBYTES='$NOT_COPIED');
     1276    20655        %VD_NAME_SPEC (NAME=S_$NOT_COPIED, STCLASS=CONSTANT,
     1277    20656            ITYPE=%NDT_LOCATION);
     1278    20707        %VD_NAC (NAME=A_$NOT_COPIED, STCLASS=CONSTANT,
     1279    20708            READ=%TRUE);
     1280    20726
     1281    20727
     1282    20728        %VD_TEXTC_REMOTE (NAME=K_$RANGE, STCLASS=CONSTANT,
     1283    20729            IBYTES='$RANGE');
     1284    20792        %VD_NAME_SPEC (NAME=S_$RANGE, STCLASS=CONSTANT,
     1285    20793            ITYPE=%NDT_LOCATION, IREADER=%RDR_$RANGE);
     1286    20844        %VD_NAC (NAME=A_$RANGE, STCLASS=CONSTANT,
     1287    20845            READ=%TRUE);
     1288    20863
     1289    20864
     1290    20865
     1291    20866        %VD_TEXTC_REMOTE (NAME=K_CURR, STCLASS=CONSTANT,
     1292    20867            IBYTES='CURR');
     1293    20930        %VD_NAME_SPEC (NAME=S_CURR, STCLASS=CONSTANT,
     1294    20931            ITYPE=%NDT_LOCATION, IREADER=%RDR_CURRENT);
     1295    20982        %VD_NAC (NAME=A_CURR, STCLASS=CONSTANT,
     1296    20983            READ=%TRUE);
     1297    21001
     1298    21002
     1299    21003        %VD_TEXTC_REMOTE (NAME=K_CURRENT, STCLASS=CONSTANT,
     1300    21004            IBYTES='CURRENT');
     1301    21067        %VD_NAME_SPEC (NAME=S_CURRENT, STCLASS=CONSTANT,
     1302    21068            ITYPE=%NDT_LOCATION, IREADER=%RDR_CURRENT);
     1303    21119        %VD_NAC (NAME=A_CURRENT, STCLASS=CONSTANT,
     1304    21120            READ=%TRUE);
PL6.E3A0      #001=VDG$WINIT File=VDG$WORKSPACE.:VDA5TSI                         FRI 07/04/97 11:25 Page:37
     1305    21138
     1306    21139
     1307    21140        %VD_TEXTC_REMOTE (NAME=K_HERE, STCLASS=CONSTANT,
     1308    21141            IBYTES='HERE');
     1309    21204        %VD_NAME_SPEC (NAME=S_HERE, STCLASS=CONSTANT,
     1310    21205            ITYPE=%NDT_LOCATION, IREADER=%RDR_HERE);
     1311    21256        %VD_NAC (NAME=A_HERE, STCLASS=CONSTANT,
     1312    21257            READ=%TRUE);
     1313    21275
     1314    21276
     1315    21277        %VD_TEXTC_REMOTE (NAME=K_THAT, STCLASS=CONSTANT,
     1316    21278            IBYTES='THAT');
     1317    21341        %VD_NAME_SPEC (NAME=S_THAT, STCLASS=CONSTANT,
     1318    21342            ITYPE=%NDT_LOCATION, IREADER=%RDR_THAT);
     1319    21393        %VD_NAC (NAME=A_THAT, STCLASS=CONSTANT,
     1320    21394            READ=%TRUE);
     1321    21412
     1322    21413
     1323    21414        %BOX (TITLE="Local data", PAGE=YES);
             21422    1
             21426    1   /***************************************************************************
             21428    1    *                                                                         *
             21432    1            *                                 Local data                              *
             21434    1            *                                                                         *
             21436    1           ***************************************************************************/

     1324    21440
     1325    21441        /*
     1326    21442        *   File-level (level-0) keys for predefined files to which we VDA$LWRITE.
     1327    21443        */
     1328    21444        %EQU INT_PREFIX=CONCAT(FSTCL_INTERNAL, PFK_CONSTANT);
     1329    21445
     1330    21446        %EQU NE=CONCAT(INT_PREFIX, DK_NAMES, CHR_UNDERSCORE, PFN_NAMES_EQUALS);
     1331    21447        %VD_KEY (NAME=EQUALS_L0_KEY, STCLASS=CONSTANT,
     1332    21448            ITYPE=%KT_STRING, IREP=%REP_REMOTE, IBYTES=VD_FKEY_NAMES_EQUALS);
     1333    21484        %VD_FILE_KEY (NAME=VD_FKEY_NAMES_EQUALS, STCLASS=CONSTANT SYMDEF, IFNAME=%NE);
     1334    21536
PL6.E3A0      #001=VDG$WINIT File=VDG$WORKSPACE.:VDA5TSI                         FRI 07/04/97 11:25 Page:38
     1335    21537        %EQU NL=CONCAT(INT_PREFIX, DK_NAMES, CHR_UNDERSCORE, PFN_NAMES_LOCATIONS);
     1336    21538        %VD_KEY (NAME=LOCATIONS_L0_KEY, STCLASS=CONSTANT,
     1337    21539            ITYPE=%KT_STRING, IREP=%REP_REMOTE, IBYTES=LOCATIONS_FILE_KEY);
     1338    21575        %VD_FILE_KEY (NAME=LOCATIONS_FILE_KEY, STCLASS=CONSTANT, IFNAME=%NL);
     1339    21627
     1340    21628        %EQU NS=CONCAT(INT_PREFIX, DK_NAMES, CHR_UNDERSCORE, PFN_NAMES_SYNONYMS);
     1341    21629        %VD_KEY (NAME=SYNONYMS_L0_KEY, STCLASS=CONSTANT,
     1342    21630            ITYPE=%KT_STRING, IREP=%REP_REMOTE, IBYTES=SYNONYMS_FILE_KEY);
     1343    21666        %VD_FILE_KEY (NAME=SYNONYMS_FILE_KEY, STCLASS=CONSTANT, IFNAME=%NS);
     1344    21718
     1345    21719        %EQU NT=CONCAT(INT_PREFIX, DK_NAMES, CHR_UNDERSCORE, PFN_NAMES_KEYINS);
     1346    21720        %VD_KEY (NAME=KEYINS_L0_KEY, STCLASS=CONSTANT,
     1347    21721            ITYPE=%KT_STRING, IREP=%REP_REMOTE, IBYTES=KEYINS_FILE_KEY);
     1348    21757        %VD_FILE_KEY (NAME=KEYINS_FILE_KEY, STCLASS=CONSTANT, IFNAME=%NT);
     1349    21809
     1350    21810        %VD_KEY (NAME=WINDOWS_L0_KEY, STCLASS=CONSTANT,
     1351    21811            ITYPE=%KT_STRING, IREP=%REP_REMOTE, IBYTES=WINDOWS_FILE_KEY);
     1352    21847        %VD_FILE_KEY (NAME=WINDOWS_FILE_KEY, STCLASS=CONSTANT,
     1353    21848            IFNAME="%CONCAT(INT_PREFIX, DK_WINDOWS)");
     1354    21900
     1355    21901
     1356    21902
     1357    21903    1   DCL STRUCTURES_L0_NODE$ PTR;
     1358    21904    1   DCL FILE_KEY$ PTR;
     1359    21905    1   DCL STRUCTURE_L1_EXTERNAL$ PTR;
     1360    21906    1   DCL STRUCTURE_L1_NAMES$ PTR;
     1361    21907    1   DCL STRUCTURE_L1_SCRATCH$ PTR;
     1362    21908    1   DCL STRUCTURE_L1_STRUCTURES$ PTR;
     1363    21909    1   DCL STRUCTURE_L1_WINDOWS$ PTR;
     1364    21910    1   DCL DIR_NODE$ PTR;
     1365    21911    1   DCL PORT$ PTR;
     1366    21912    1   DCL STRUCTURES_L2_NODE$ PTR;
     1367    21913    1   DCL STRUCTURE_LEVEL$ PTR;
     1368    21914    1   DCL LVL SBIN;
     1369    21915        %VD$ACCESS_OPTIONS (NAME=OPTIONS, STCLASS=AUTO);
     1370    21944    1   DCL ALTRETURN_WHEN_DONE BIT(1) ALIGNED;
     1371    21945
PL6.E3A0      #001=VDG$WINIT File=VDG$WORKSPACE.:VDA5TSI                         FRI 07/04/97 11:25 Page:39
     1372    21946
     1373    21947        %VD$STREAM (NAME=STRUCTURES$STREAM, STCLASS="BASED(VD_6E.STRUCTURES$)");
     1374    22053        %VD$FILE_NODE (NAME=STRUCTURES$L0_NODE, STCLASS="BASED(STRUCTURES_L0_NODE$)");
     1375    22146        %VD$FILE_KEY (NAME=FILE$KEY, STCLASS="BASED(FILE_KEY$)");
     1376    22195        %VD$PORT (NAME=PORT, STCLASS="BASED(PORT$)");
     1377    22293        %VD$FILE_NODE (NAME=STRUCTURE$L1_STRUCTURES,
     1378    22294            STCLASS="BASED(STRUCTURE_L1_STRUCTURES$)");
     1379    22387        %VD$FILE_NODE (NAME=STRUCTURES$L2_NODE, STCLASS="BASED(STRUCTURES_L2_NODE$)");
     1380    22480        %VD$STRUCTURE_LEVEL (NAME=STRUCTURE$LEVEL, STCLASS="BASED(STRUCTURE_LEVEL$)");
     1381    22527        %VD$DIR_NODE (NAME=DIR$NODE, STCLASS="BASED(DIR_NODE$)");
     1382    22565        %VD$STREAM (NAME=EQUALS$STREAM, STCLASS="BASED(VD_6E.EQUALS$)");
     1383    22671        %VD$STREAM (NAME=LOCATIONS$STREAM, STCLASS="BASED(VD_6E.LOCATIONS$)");
     1384    22777        %VD$STREAM (NAME=SYNONYMS$STREAM, STCLASS="BASED(VD_6E.SYNONYMS$)");
     1385    22883        %VD$STREAM (NAME=KEYINS$STREAM, STCLASS="BASED(VD_6E.KEYINS$)");
     1386    22989        %VD$STREAM (NAME=WINDOWS$STREAM, STCLASS="BASED(VD_6E.WINDOWS$)");
     1387    23095        %VD$ERR (NAME=FATAL$ERR, STCLASS="BASED(VD_6E.ERR_HEAD$)");
     1388    23148        %VD$TEXTC_REMOTE;
     1389    23209        %VD$STRING_HEADER;
     1390    23245
     1391    23246
     1392    23247                /*
     1393    23248                *   Set defaults, minimums, and maximums for predefined names
     1394    23249                *       whose values are related to terminal parameters.
     1395    23250                */
     1396    23251
     1397    23252    1           VD_$AUTOTAB.V# = VD_ORIGINAL_TRMCTL.AUTOTABCLM#;
     1398    23253
     1399    23254    2           IF VD_ORIGINAL_TRMCTL.HSCROLL# THEN DO;
     1400    23255    2              IF VD_ORIGINAL_TRMCTL.HSSHIFT# = %SCROLL_CENTER# THEN
     1401    23256    2                 VD_$HSCROLL.V# = 0;
     1402    23257    3              ELSE DO;
     1403    23258    3                 VD_$HSCROLL.V# = VD_ORIGINAL_TRMCTL.HSSHIFT#;
     1404    23259    3                 IF VD_$HSCROLL.V# = 0 THEN
     1405    23260    3                    VD_$HSCROLL.V# = 1;
     1406    23261    3                 END;
     1407    23262    2              VD_$HSCROLL_MARGIN.V# = VD_ORIGINAL_TRMCTL.HSMARGIN#;
     1408    23263    2              END;
PL6.E3A0      #001=VDG$WINIT File=VDG$WORKSPACE.:VDA5TSI                         FRI 07/04/97 11:25 Page:40
     1409    23264    1           S_$HSCROLL.N# = VD_SCREEN_WIDTH / 2;            /* Max legal value */
     1410    23265    1           S_$HSCROLL_MARGIN.N# = VD_SCREEN_WIDTH / 2;     /* Max legal value */
     1411    23266
     1412    23267    1           VD_$INSERT.V# = BITBIN(VD_ORIGINAL_TRMCTL.INSERTMODE#)/2;
     1413    23268        /*      VD_$SCROLL.V# = BITBIN(VD_ORIGINAL_TRMCTL.SCROLL#)/2; (in VDP$WINIT */
     1414    23269
     1415    23270
     1416    23271    1           VD_$MAX_COMMAND.V# = MAXIMUM (1, VD_SCREEN_HEIGHT *
     1417    23272    1             %DFLT_$MAX_COMMAND_PCT / 100);
     1418    23273
     1419    23274    1           VD_$SCREEN.V# = VD_SCREEN_HEIGHT-VD_IBEX_WINDOW;
     1420    23275    1           VD_EDITING_HEIGHT = VD_$SCREEN.V#-VD_$MIN_COMMAND.V#;
     1421    23276    1           S_$SCREEN.N# = VD_SCREEN_HEIGHT;                /* Max legal value */
     1422    23277
     1423    23278    1           S_$VSCROLL.N# = VD_SCREEN_HEIGHT;               /* Max legal value */
     1424    23279
     1425    23280    1           VD_$VSCROLL_MARGIN.V# = VD_SCREEN_HEIGHT *
     1426    23281    1             %DFLT_$VSCROLL_MARGIN_PCT / 100;
     1427    23282    1           S_$VSCROLL_MARGIN.N# = VD_SCREEN_HEIGHT / 2;    /* Max legal value */
     1428    23283
     1429    23284    1           VD_$WORDWRAP.V# = VD_ORIGINAL_TRMCTL.WORDWRAPCLM#;
     1430    23285
     1431    23286    2           IF VD_SCREEN_HEIGHT < %MN_SCREEN_EDITING_HEIGHT THEN DO;
     1432    23287                   /* Non-interactive mode or hardcopy terminal */
     1433    23288    2              VD_$COMMAND.V# = %BITBIN(TRUE);  /* 1st read from command window */
     1434    23289    2              VD_$MIN_COMMAND.V# = 0;  /* Different default for serial Pres'r */
     1435    23290    2              VD_$MAX_COMMAND.V# = 0;  /* Different default for serial Pres'r */
     1436    23291    2              S_$MAX_COMMAND.M# = 0;   /* Allow value of 0 for serial Pres'r */
     1437    23292    2              END;
     1438    23293    2           ELSE DO;
     1439    23294                   /* We're capable of screen editing */
     1440    23295    2              VD_$COMMAND.V# = %BITBIN(FALSE); /* 1st read from editing window */
     1441    23296    2              END;
     1442    23297
     1443    23298
     1444    23299                /*
     1445    23300                *   Build the Structures file, unconnected to anything yet.
PL6.E3A0      #001=VDG$WINIT File=VDG$WORKSPACE.:VDA5TSI                         FRI 07/04/97 11:25 Page:41
     1446    23301                */
     1447    23302
     1448    23303    1           CALL VDG$OALLOC (%CLS_FILE_NODE, STRUCTURES_L0_NODE$)
     1449    23304    1             ALTRET (OALLOC_FAILED);
     1450    23305
     1451    23306    1           CALL VDG$OALLOC (%CLS_FILE_KEY, FILE_KEY$)
     1452    23307    1             ALTRET (OALLOC_FAILED);
     1453    23308    1           FILE$KEY.UNIQUE.ACCT = ' ';
     1454    23309    1           FILE$KEY.UNIQUE.FNAME.LENGTH# =
     1455    23310    1             %LENGTHC(CONCAT(FSTCL_INTERNAL, PFK_CONSTANT, DK_STRUCTURES));
     1456    23311    1           FILE$KEY.UNIQUE.FNAME.BYTES =
     1457    23312    1             %CONCAT(FSTCL_INTERNAL, PFK_CONSTANT, DK_STRUCTURES);
     1458    23313    1           FILE$KEY.LENGTH# = LENGTHC(FILE$KEY.UNIQUE.ACCT) +
     1459    23314    1             LENGTHC(FILE$KEY.UNIQUE.FNAME.LENGTH#) +
     1460    23315    1             FILE$KEY.UNIQUE.FNAME.LENGTH#;
     1461    23316    1           FILE$KEY.PSN = ' ';
     1462    23317    1           STRUCTURES$L0_NODE.DESC.KEY.TYPE# = %KT_STRING;
     1463    23318    1           STRUCTURES$L0_NODE.DESC.KEY.REP# = %REP_REMOTE;
     1464    23319    1           STRUCTURES$L0_NODE.DESC.KEY.V$ = FILE_KEY$;
     1465    23320                %COPYKEY (FKEY=STRUCTURES$L0_NODE.DESC.KEY,
     1466    23321                TKEY=STRUCTURES$STREAM.FILE_KEY);
     1467    23337
     1468    23338
     1469    23339    1           CALL BUILD_STRUCTURE_NODE (STRUCTURES$L0_NODE, INIT_EDITKEY)
     1470    23340    1             ALTRET (BUILD_STRUCTURE_NODE_FAILED);
     1471    23341    1           VD_6E.STRUCTURE_EDITKEY$ = STRUCTURES$L0_NODE.TAIL$;
     1472    23342
     1473    23343    1           CALL BUILD_STRUCTURE_NODE (STRUCTURES$L0_NODE, INIT_EXTERNAL)
     1474    23344    1             ALTRET (BUILD_STRUCTURE_NODE_FAILED);
     1475    23345    1           STRUCTURE_L1_EXTERNAL$ = STRUCTURES$L0_NODE.TAIL$;
     1476    23346
     1477    23347    1           CALL BUILD_STRUCTURE_NODE (STRUCTURES$L0_NODE, INIT_NAMES)
     1478    23348    1             ALTRET (BUILD_STRUCTURE_NODE_FAILED);
     1479    23349    1           STRUCTURE_L1_NAMES$ = STRUCTURES$L0_NODE.TAIL$;
     1480    23350
     1481    23351    1           CALL BUILD_STRUCTURE_NODE (STRUCTURES$L0_NODE, INIT_SCRATCH)
     1482    23352    1             ALTRET (BUILD_STRUCTURE_NODE_FAILED);
PL6.E3A0      #001=VDG$WINIT File=VDG$WORKSPACE.:VDA5TSI                         FRI 07/04/97 11:25 Page:42
     1483    23353    1           STRUCTURE_L1_SCRATCH$ = STRUCTURES$L0_NODE.TAIL$;
     1484    23354
     1485    23355    1           CALL BUILD_STRUCTURE_NODE (STRUCTURES$L0_NODE, INIT_CONSEC)
     1486    23356    1             ALTRET (BUILD_STRUCTURE_NODE_FAILED);
     1487    23357    1           VD_6E.STRUCTURE_SEQUENTIAL$ = STRUCTURES$L0_NODE.TAIL$;
     1488    23358
     1489    23359    1           CALL BUILD_STRUCTURE_NODE (STRUCTURES$L0_NODE, INIT_STRINGKEY)
     1490    23360    1             ALTRET (BUILD_STRUCTURE_NODE_FAILED);
     1491    23361    1           VD_6E.STRUCTURE_STRINGKEY$ = STRUCTURES$L0_NODE.TAIL$;
     1492    23362
     1493    23363    1           CALL BUILD_STRUCTURE_NODE (STRUCTURES$L0_NODE, INIT_STRUCTURES)
     1494    23364    1             ALTRET (BUILD_STRUCTURE_NODE_FAILED);
     1495    23365    1           STRUCTURE_L1_STRUCTURES$ = STRUCTURES$L0_NODE.TAIL$;
     1496    23366
     1497    23367    1           CALL BUILD_STRUCTURE_NODE (STRUCTURES$L0_NODE, INIT_WINDOWS)
     1498    23368    1             ALTRET (BUILD_STRUCTURE_NODE_FAILED);
     1499    23369    1           STRUCTURE_L1_WINDOWS$ = STRUCTURES$L0_NODE.TAIL$;
     1500    23370
     1501    23371
     1502    23372                /*
     1503    23373                *   Update VD_6E:  it's pointers, and the directories of
     1504    23374                *       internal files.
     1505    23375                *   Also, when we get to the Structures directory, link
     1506    23376                *       the Structures file we just built off the directory.
     1507    23377                */
     1508    23378
     1509    23379    1           VD_6E.STRUCTURE_EXTERNAL$ = STRUCTURE_L1_EXTERNAL$;
     1510    23380    1           VD_6E.STRUCTURE_NAMES$ = STRUCTURE_L1_NAMES$;
     1511    23381    1           VD_6E.STRUCTURE_SCRATCH$ = STRUCTURE_L1_SCRATCH$;
     1512    23382    1           VD_6E.STRUCTURE_STRUCTURES$ = STRUCTURE_L1_STRUCTURES$;
     1513    23383    1           VD_6E.STRUCTURE_WINDOWS$ = STRUCTURE_L1_WINDOWS$;
     1514    23384
     1515    23385    1           VD_$STRUCTURE.V$ = VD_6E.STRUCTURE_EXTERNAL$;   /* Default value */
     1516    23386
     1517    23387    1           DIR_NODE$ = VD_6E.WS.INTERNAL_DIR$;
     1518    23388    1   FILL_IN_DIR_NODES:
     1519    23389    2           DO WHILE DIR_NODE$ ~= ADDR(NIL);
PL6.E3A0      #001=VDG$WINIT File=VDG$WORKSPACE.:VDA5TSI                         FRI 07/04/97 11:25 Page:43
     1520    23390    3              DO SELECT DIR$NODE.KEY;
     1521    23391    3                 SELECT (%DK_HISTORY);
     1522    23392    3                 DIR$NODE.STRUCTURE$ = STRUCTURE_L1_EXTERNAL$;
     1523    23393    3                 DIR$NODE.MIGRATABLE = %TRUE;
     1524    23394    3                 SELECT (%DK_NAMES);
     1525    23395    3                 DIR$NODE.STRUCTURE$ = STRUCTURE_L1_NAMES$;
     1526    23396    3                 DIR$NODE.MIGRATABLE = %TRUE;
     1527    23397    3                 SELECT (%DK_SCRATCH);
     1528    23398    3                 DIR$NODE.STRUCTURE$ = STRUCTURE_L1_SCRATCH$;
     1529    23399    3                 DIR$NODE.MIGRATABLE = %TRUE;
     1530    23400    3                 SELECT (%DK_STRUCTURES);
     1531    23401    3                 DIR$NODE.STRUCTURE$ = STRUCTURE_L1_STRUCTURES$;
     1532    23402    3                 DIR$NODE.HEAD$ = STRUCTURES_L0_NODE$;
     1533    23403    3                 DIR$NODE.TAIL$ = STRUCTURES_L0_NODE$;
     1534    23404    3                 DIR$NODE.COUNT# = 1;
     1535    23405    3                 SELECT (%DK_WINDOWS);
     1536    23406    3                 DIR$NODE.STRUCTURE$ = STRUCTURE_L1_WINDOWS$;
     1537    23407    3                 SELECT (ELSE);
     1538    23408    3              CALL VDG$ESCREECH (DIR$NODE.KEY);
     1539    23409    3                 END;
     1540    23410    2           DIR_NODE$ = DIR$NODE.FLINK$;
     1541    23411    2              END FILL_IN_DIR_NODES;
     1542    23412
     1543    23413
     1544    23414                /*
     1545    23415                *   Open STRUCTURES$STREAM to the newly-created Structures file.
     1546    23416                */
     1547    23417
     1548    23418    1           CALL VDG$OALLOC (%CLS_PORT, STRUCTURES$STREAM.PORT$)
     1549    23419    1             ALTRET (OALLOC_FAILED);
     1550    23420    1           PORT$ = STRUCTURES$STREAM.PORT$;
     1551    23421
     1552    23422    1           PORT.STRUCTURE$ = STRUCTURE_L1_STRUCTURES$;
     1553    23423    1           PORT.REFS# = 1;
     1554    23424    1           PORT.EXIST# = %EX_NEW;
     1555    23425    1           PORT.LAST_OP# = %ACCOP_OPEN;
     1556    23426
PL6.E3A0      #001=VDG$WINIT File=VDG$WORKSPACE.:VDA5TSI                         FRI 07/04/97 11:25 Page:44
     1557    23427    1           STRUCTURES_L2_NODE$ = STRUCTURE$L1_STRUCTURES.HEAD$;
     1558    23428    1           STRUCTURE_LEVEL$ = STRUCTURES$L2_NODE.DESC.SPEC.V$;
     1559    23429    1           PORT.LEVEL.ORG# (%LVL_FILE) = STRUCTURE$LEVEL.ORG#;
     1560    23430    1           PORT.LEVEL.KEY_TYPE# (%LVL_FILE) = STRUCTURE$LEVEL.KEY_TYPE#;
     1561    23431    1           PORT.LEVEL.SPEC_TYPE# (%LVL_FILE) = STRUCTURE$LEVEL.SPEC_TYPE#;
     1562    23432    1           PORT.FILE_KEY = STRUCTURES$L0_NODE.DESC.KEY;
     1563    23433    2           IF STRUCTURES$L0_NODE.DESC.KEY.REP# = %REP_REMOTE THEN DO;
     1564    23434    2              CALL VDG$OCOPY (STRUCTURES$L0_NODE.DESC.KEY.V$->FILE$KEY,
     1565    23435    2                PORT.FILE_KEY.V$)
     1566    23436    2                ALTRET (OCOPY_FAILED);
     1567    23437    2              END;
     1568    23438    1           PORT.LEVEL.INTERNAL$ (%LVL_FILE) = STRUCTURES_L0_NODE$;
     1569    23439
     1570    23440    1   FILL_LOWER_LEVELS:
     1571    23441    2           DO LVL = %LVL_LOWER TO (%(MX_ACCESS_LEVELS-1));
     1572    23442    2              STRUCTURES_L2_NODE$ = STRUCTURES$L2_NODE.FLINK$;
     1573    23443    2              IF STRUCTURES_L2_NODE$ = ADDR(NIL) THEN
     1574    23444    2                 EXIT FILL_LOWER_LEVELS;
     1575    23445    2              STRUCTURE_LEVEL$ = STRUCTURES$L2_NODE.DESC.SPEC.V$;
     1576    23446    2              PORT.LEVEL.ORG# (LVL) = STRUCTURE$LEVEL.ORG#;
     1577    23447    2              PORT.LEVEL.KEY_TYPE# (LVL) = STRUCTURE$LEVEL.KEY_TYPE#;
     1578    23448    2              PORT.LEVEL.SPEC_TYPE# (LVL) = STRUCTURE$LEVEL.SPEC_TYPE#;
     1579    23449    2              END FILL_LOWER_LEVELS;
     1580    23450
     1581    23451    1           PORT.CURRENT.EOF = %TRUE;
     1582    23452
     1583    23453
     1584    23454                /*
     1585    23455                *   Create the other predefined files.
     1586    23456                */
     1587    23457
     1588    23458    1           OPTIONS = %CLEAR;
     1589    23459    1           OPTIONS.PROTECT# = %DONT_PROTECT;
     1590    23460    1           OPTIONS.EXIST# = %EX_NEW;
     1591    23461    1           OPTIONS.STRUCTURE$ = VD_6E.STRUCTURE_NAMES$;
     1592    23462
     1593    23463    1           CALL VDA$FOPEN (EQUALS$STREAM, EQUALS_L0_KEY, 0, OPTIONS)
PL6.E3A0      #001=VDG$WINIT File=VDG$WORKSPACE.:VDA5TSI                         FRI 07/04/97 11:25 Page:45
     1594    23464    1             ALTRET (FOPEN_FAILED);
     1595    23465
     1596    23466    1           CALL VDA$FOPEN (LOCATIONS$STREAM, LOCATIONS_L0_KEY, 0, OPTIONS)
     1597    23467    1             ALTRET (FOPEN_FAILED);
     1598    23468
     1599    23469    1           CALL VDA$FOPEN (SYNONYMS$STREAM, SYNONYMS_L0_KEY, 0, OPTIONS)
     1600    23470    1             ALTRET (FOPEN_FAILED);
     1601    23471
     1602    23472    1           CALL VDA$FOPEN (KEYINS$STREAM, KEYINS_L0_KEY, 0, OPTIONS)
     1603    23473    1             ALTRET (FOPEN_FAILED);
     1604    23474
     1605    23475    1           OPTIONS.STRUCTURE$ = VD_6E.STRUCTURE_WINDOWS$;
     1606    23476    1           CALL VDA$FOPEN (WINDOWS$STREAM, WINDOWS_L0_KEY, 0, OPTIONS)
     1607    23477    1             ALTRET (FOPEN_FAILED);
     1608    23478
     1609    23479
     1610    23480                /*
     1611    23481                *   Write the predefined names to the Names files.
     1612    23482                *   From now on, recoverable errors should not keep us
     1613    23483                *       from finishing the validation process.
     1614    23484                *   Just remember the fact that we got an error (so we can
     1615    23485                *       altreturn instead of returning) and continue.
     1616    23486                */
     1617    23487
     1618    23488    1           CALL WRITE_PREDEFINED_NAMES (EQUALS$STREAM, VD_EQUALS_INIT)
     1619    23489    2           WHENALTRETURN DO;
     1620    23490    2              ALTRETURN_WHEN_DONE = %TRUE;
     1621    23491    2              END;
     1622    23492
     1623    23493
     1624    23494    1           CALL WRITE_PREDEFINED_NAMES (LOCATIONS$STREAM, LOCATIONS_INIT)
     1625    23495    2           WHENALTRETURN DO;
     1626    23496    2              ALTRETURN_WHEN_DONE = %TRUE;
     1627    23497    2              END;
     1628    23498
     1629    23499
     1630    23500    1           IF ALTRETURN_WHEN_DONE THEN
PL6.E3A0      #001=VDG$WINIT File=VDG$WORKSPACE.:VDA5TSI                         FRI 07/04/97 11:25 Page:46
     1631    23501    1              ALTRETURN;
     1632    23502    1           RETURN;
     1633    23503
     1634    23504
     1635    23505
     1636    23506    1   OALLOC_FAILED: ;
     1637    23507    1   BUILD_REMOTE_KEY_FAILED: ;
     1638    23508    1   BUILD_STRUCTURE_NODE_FAILED: ;
     1639    23509    1   OCOPY_FAILED: ;
     1640    23510    1   FOPEN_FAILED: ;
     1641    23511    1           ALTRETURN;
     1642    23512
     1643    23513        %BOX (TITLE=BUILD_REMOTE_KEY, PAGE=YES);
             23521    1
             23525    1   /***************************************************************************
             23527    1    *                                                                         *
             23531    1            *                              BUILD_REMOTE_KEY                           *
             23533    1            *                                                                         *
             23535    1           ***************************************************************************/

     1644    23539
     1645    23540        /*I* NAME: BUILD_REMOTE_KEY
     1646    23541            PARAMETERS:
     1647    23542                NB_KEY - # bytes in KEY below.  May be 0.
     1648    23543                KEY - A VD$TEXTC structure containing the key string to build.
     1649    23544                VD$KEY - An uninitialized VD$KEY structure.
     1650    23545            INPUT:
     1651    23546            OUTPUT:
     1652    23547                VD$KEY will be set, pointing to a remote %KT_STRING key
     1653    23548                    containing KEY.
     1654    23549            DESCRIPTION:
     1655    23550                If NB_KEY is 0, just initialize VD$KEY for a 0-length
     1656    23551                    string key.
     1657    23552                Else, allocate the VD$TEXTC_REMOTE, copy KEY to it, and set up
     1658    23553                    VD$KEY.
     1659    23554        */
     1660    23555
PL6.E3A0      #001=VDG$WINIT File=VDG$WORKSPACE.:VDA5TSI                         FRI 07/04/97 11:25 Page:47
     1661    23556    1   BUILD_REMOTE_KEY: PROC (NB_KEY, KEY, VD$KEY) ALTRET;
     1662    23557
     1663    23558    2   DCL NB_KEY SBIN;
     1664    23559    2   DCL KEY CHAR(NB_KEY) CALIGNED;
     1665    23560        %VD$KEY (NAME=VD$KEY, STCLASS=PARAM);
     1666    23574
     1667    23575
     1668    23576
     1669    23577    3           IF NB_KEY > 0 THEN DO;
     1670    23578    3              CALL VDG$OALLOC (%CLS_TEXTC_REMOTE, VD$KEY.V$,
     1671    23579    3                (LENGTHC(VD$STRING_HEADER) + NB_KEY + %NB_PER_WORD-1) /
     1672    23580    3                %NB_PER_WORD)
     1673    23581    3                ALTRET (OALLOC_FAILED);
     1674    23582    3              VD$KEY.V$->VD$TEXTC_REMOTE.LENGTH# = NB_KEY;
     1675    23583    3              VD$KEY.V$->VD$TEXTC_REMOTE.BYTES = KEY;
     1676    23584    3              VD$KEY.REP# = %REP_REMOTE;
     1677    23585    3              END;
     1678    23586
     1679    23587    2           VD$KEY.TYPE# = %KT_STRING;
     1680    23588    2           RETURN;
     1681    23589
     1682    23590
     1683    23591    2   OALLOC_FAILED: ;
     1684    23592    2           ALTRETURN;
     1685    23593
     1686    23594    2   END BUILD_REMOTE_KEY;
     1687    23595
     1688    23596        %BOX (TITLE=BUILD_STRUCTURE_NODE, PAGE=YES);
             23604    2
             23608    2   /***************************************************************************
             23610    2    *                                                                         *
             23614    2            *                            BUILD_STRUCTURE_NODE                         *
             23616    2            *                                                                         *
             23618    2           ***************************************************************************/

     1689    23622
     1690    23623        /*I* NAME: BUILD_STRUCTURE_NODE
PL6.E3A0      #001=VDG$WINIT File=VDG$WORKSPACE.:VDA5TSI                         FRI 07/04/97 11:25 Page:48
     1691    23624            PARAMETERS:
     1692    23625                L0_NODE - VD$FILE_NODE for level-0 of Structures file.
     1693    23626                INIT_TABLE - Initialization table for level-1 and its level-2
     1694    23627                    nodes.  These nodes are to be added to the file at eof.
     1695    23628            INPUT:
     1696    23629            OUTPUT:
     1697    23630                L0_NODE will have a new child, based on INIT_TABLE.
     1698    23631            DESCRIPTION:
     1699    23632                Allocate the level-1 node and it's Spec.
     1700    23633                Allocate all the level-2 children nodes and their Specs.
     1701    23634        */
     1702    23635
     1703    23636    1   BUILD_STRUCTURE_NODE: PROC (L0_NODE, INIT_TABLE) ALTRET;
     1704    23637
     1705    23638        %VD$FILE_NODE (NAME=L0_NODE, STCLASS=PARAM);
     1706    23731    2   DCL 1 INIT_TABLE (0:0),
     1707    23732              %VD_TEXTC (NAME=KEY, STCLASS=PARAM, MXNB=%MXNB_NAME, LEVEL=2, LAST=",");
     1708    23873    2         2 STRUCT_LEVEL$ PTR;
     1709    23874
     1710    23875
     1711    23876    2   DCL L1_NODE$ PTR;
     1712    23877    2   DCL I SBIN;
     1713    23878    2   DCL L2_NODE$ PTR;
     1714    23879    2   DCL NB_KEY SBIN;
     1715    23880
     1716    23881
     1717    23882        %VD$FILE_NODE (NAME=L1$NODE, STCLASS="BASED(L1_NODE$)");
     1718    23975        %VD$FILE_NODE (NAME=L2$NODE, STCLASS="BASED(L2_NODE$)");
     1719    24068        %VD$STRUCTURE_LEVEL;
     1720    24115
     1721    24116
     1722    24117
     1723    24118    2           CALL VDG$OALLOC (%CLS_FILE_NODE, L1_NODE$)
     1724    24119    2             ALTRET (OALLOC_FAILED);
     1725    24120    2           L1$NODE.BLINK$ = L0_NODE.TAIL$;
     1726    24121    2           L0_NODE.TAIL$ = L1_NODE$;
     1727    24122    2           IF L1$NODE.BLINK$ = ADDR(NIL) THEN
PL6.E3A0      #001=VDG$WINIT File=VDG$WORKSPACE.:VDA5TSI                         FRI 07/04/97 11:25 Page:49
     1728    24123    2              L0_NODE.HEAD$ = L1_NODE$;
     1729    24124    2           ELSE
     1730    24125    2              L1$NODE.BLINK$->L1$NODE.FLINK$ = L1_NODE$;
     1731    24126    2           L0_NODE.COUNT# = L0_NODE.COUNT# + 1;
     1732    24127    2           L1$NODE.DESC.SPEC.TYPE# = %SPT_STRUCTURE_SPEC;
     1733    24128    2           L1$NODE.DESC.SPEC.REP# = %REP_REMOTE;
     1734    24129    2           L1$NODE.ACCESS (%NAC_READ) = %TRUE;
     1735    24130    2           NB_KEY = INIT_TABLE.KEY.LENGTH# (0);
     1736    24131    2           CALL BUILD_REMOTE_KEY (NB_KEY, INIT_TABLE.KEY.BYTES (0),
     1737    24132    2             L1$NODE.DESC.KEY)
     1738    24133    2             ALTRET (BUILD_REMOTE_KEY_FAILED);
     1739    24134
     1740    24135    2           CALL VDG$OALLOC (%CLS_STRUCTURE_SPEC, L1$NODE.DESC.SPEC.V$)
     1741    24136    2             ALTRET (OALLOC_FAILED);
     1742    24137
     1743    24138    2           I = 1;
     1744    24139    3           DO WHILE INIT_TABLE.STRUCT_LEVEL$ (I) ~= ADDR(NIL);
     1745    24140    3              CALL VDG$OALLOC (%CLS_FILE_NODE, L2_NODE$)
     1746    24141    3                ALTRET (OALLOC_FAILED);
     1747    24142    3              L2$NODE.BLINK$ = L1$NODE.TAIL$;
     1748    24143    3              L1$NODE.TAIL$ = L2_NODE$;
     1749    24144    3              IF L2$NODE.BLINK$ = ADDR(NIL) THEN
     1750    24145    3                 L1$NODE.HEAD$ = L2_NODE$;
     1751    24146    3              ELSE
     1752    24147    3                 L2$NODE.BLINK$->L2$NODE.FLINK$ = L2_NODE$;
     1753    24148    3              L1$NODE.COUNT# = L1$NODE.COUNT# + 1;
     1754    24149    3              NB_KEY = INIT_TABLE.KEY.LENGTH# (I);
     1755    24150    3              CALL BUILD_REMOTE_KEY (NB_KEY, INIT_TABLE.KEY.BYTES (I),
     1756    24151    3                L2$NODE.DESC.KEY)
     1757    24152    3                ALTRET (BUILD_REMOTE_KEY_FAILED);
     1758    24153    3              CALL VDG$OCOPY (INIT_TABLE.STRUCT_LEVEL$ (I) -> VD$STRUCTURE_LEVEL,
     1759    24154    3                L2$NODE.DESC.SPEC.V$)
     1760    24155    3                ALTRET (OCOPY_FAILED);
     1761    24156    3              L2$NODE.DESC.SPEC.TYPE# = %SPT_STRUCTURE_LEVEL;
     1762    24157    3              L2$NODE.DESC.SPEC.REP# = %REP_REMOTE;
     1763    24158    3              L2$NODE.ACCESS (%NAC_READ) = %TRUE;
     1764    24159
PL6.E3A0      #001=VDG$WINIT File=VDG$WORKSPACE.:VDA5TSI                         FRI 07/04/97 11:25 Page:50
     1765    24160    3              I = I + 1;
     1766    24161    3              END;
     1767    24162
     1768    24163    2           RETURN;
     1769    24164
     1770    24165
     1771    24166
     1772    24167    2   OALLOC_FAILED: ;
     1773    24168    2   BUILD_REMOTE_KEY_FAILED: ;
     1774    24169    2   OCOPY_FAILED: ;
     1775    24170    2           ALTRETURN;
     1776    24171
     1777    24172    2   END BUILD_STRUCTURE_NODE;
     1778    24173
     1779    24174        %BOX (TITLE=WRITE_PREDEFINED_NAMES, PAGE=YES);
             24182    2
             24186    2   /***************************************************************************
             24188    2    *                                                                         *
             24192    2            *                           WRITE_PREDEFINED_NAMES                        *
             24194    2            *                                                                         *
             24196    2           ***************************************************************************/

     1780    24200
     1781    24201        /*I* NAME: WRITE_PREDEFINED_NAMES
     1782    24202            PARAMETERS:
     1783    24203                STREAM - VD$STREAM which is open to the Names-file to validate.
     1784    24204                INIT_TABLE - Array of .KEY$, .SPEC$, .DATA$, and .ACCESS$ pointers
     1785    24205                    giving the default initial values for the predefined names which
     1786    24206                    must appear in STREAM's file.
     1787    24207            INPUT:
     1788    24208            OUTPUT:
     1789    24209                STREAM's file will contain a record for each of the names in INIT_TABLE.
     1790    24210            DESCRIPTION:
     1791    24211                Loop thru INIT_TABLE, writing its records to STREAM's file.
     1792    24212                If we get a recoverable error writing the initial values, then just
     1793    24213                    let the errors pile up in the VD$ERR chain, and remember that
     1794    24214                    we want to altreturn at the end.  Don't altreturn at the time
PL6.E3A0      #001=VDG$WINIT File=VDG$WORKSPACE.:VDA5TSI                         FRI 07/04/97 11:25 Page:51
     1795    24215                    of the error unless it's a fatal error, so that all the predefined
     1796    24216                    names get written.
     1797    24217        */
     1798    24218
     1799    24219    1   WRITE_PREDEFINED_NAMES: PROC (STREAM, INIT_TABLE) ALTRET;
     1800    24220
     1801    24221        %VD$STREAM (NAME=STREAM, STCLASS=PARAM);
     1802    24327    2   DCL 1 INIT_TABLE (0:0),
     1803    24328    2         2 KEY$ PTR,
     1804    24329    2         2 SPEC$ PTR,
     1805    24330    2         2 DATA$ PTR,
     1806    24331    2         2 ACCESS$ PTR;
     1807    24332
     1808    24333
     1809    24334
     1810    24335    2   DCL NEXT_PREDEF SBIN;       /* Index into INIT_TABLE of next predef name */
     1811    24336    2   DCL HAD_ERROR BIT(1) ALIGNED;
     1812    24337        %VD$LOCATION (NAME=LOCATION, STCLASS=AUTO);
     1813    24365        %VD$SPEC (NAME=SPEC, STCLASS=AUTO);
     1814    24379    2   DCL SAVE_ACCESSOR_PRIV UBIN BYTE ALIGNED;
     1815    24380
     1816    24381
     1817    24382        %VD$PORT (NAME=PORT, STCLASS="BASED(STREAM.PORT$)");
     1818    24480        %VD_NAC (NAME=NAC, STCLASS=BASED);
     1819    24498        %VD$BUFFER;
     1820    24556        %VD$FILE_NODE;
     1821    24649
     1822    24650
     1823    24651
     1824    24652    2           HAD_ERROR = %FALSE;
     1825    24653
     1826    24654    2           LOCATION = %CLEAR;
     1827    24655    2           LOCATION.KEY.TYPE# (%(LVL_LOWER-1)) = %KT_STRING;
     1828    24656    2           LOCATION.KEY.REP# (%(LVL_LOWER-1)) = %REP_REMOTE;
     1829    24657
     1830    24658    2           SAVE_ACCESSOR_PRIV = VD_ACCESSOR_PRIV;
     1831    24659    2           VD_ACCESSOR_PRIV = %BITBIN(NAC_ALL_BITS);
PL6.E3A0      #001=VDG$WINIT File=VDG$WORKSPACE.:VDA5TSI                         FRI 07/04/97 11:25 Page:52
     1832    24660
     1833    24661    2           NEXT_PREDEF = 0;
     1834    24662    3           DO WHILE (INIT_TABLE.KEY$ (NEXT_PREDEF) ~= ADDR(NIL));
     1835    24663    3              LOCATION.KEY.V$ (%(LVL_LOWER-1)) = INIT_TABLE.KEY$ (NEXT_PREDEF);
     1836    24664    3              SPEC = %CLEAR;
     1837    24665    3              SPEC.TYPE# = %SPT_NAME_SPEC;
     1838    24666    3              SPEC.REP# = %REP_REMOTE;
     1839    24667    3              SPEC.V$ = INIT_TABLE.SPEC$ (NEXT_PREDEF);
     1840    24668    3              CALL VDA$LWRITE (STREAM, LOCATION, SPEC,
     1841    24669    3                INIT_TABLE.DATA$ (NEXT_PREDEF) -> VD$BUFFER)
     1842    24670    4              WHENRETURN DO;
     1843    24671    4                 PORT.LEVEL.INTERNAL$ (%LVL_LOWER) ->
     1844    24672    4                   VD$FILE_NODE.ACCESS = INIT_TABLE.ACCESS$ (NEXT_PREDEF) ->
     1845    24673    4                   NAC.ACCESS;
     1846    24674    4                 END;
     1847    24675    4              WHENALTRETURN DO;
     1848    24676    4                 IF FATAL$ERR.ERR ~= %CLEAR THEN
     1849    24677    4                    ALTRETURN;     /* Give up on fatal errors */
     1850    24678                      /* But continue on non-fatal errors */
     1851    24679    4                 HAD_ERROR = %TRUE;
     1852    24680    4                 END;
     1853    24681
     1854    24682    3              NEXT_PREDEF = NEXT_PREDEF + 1;
     1855    24683    3              END;
     1856    24684
     1857    24685                /* Make sure the last record gets flushed */
     1858    24686    2           CALL VDA$PFLUSH (PORT, %TO_PRESENTER)
     1859    24687    3           WHENALTRETURN DO;
     1860    24688    3              IF FATAL$ERR.ERR ~= %CLEAR THEN
     1861    24689    3                 ALTRETURN;     /* Give up on fatal errors */
     1862    24690                   /* But continue on non-fatal errors */
     1863    24691    3              HAD_ERROR = %TRUE;
     1864    24692    3              END;
     1865    24693
     1866    24694    2           VD_ACCESSOR_PRIV = SAVE_ACCESSOR_PRIV;
     1867    24695
     1868    24696    2           IF HAD_ERROR THEN
PL6.E3A0      #001=VDG$WINIT File=VDG$WORKSPACE.:VDA5TSI                         FRI 07/04/97 11:25 Page:53
     1869    24697    2              ALTRETURN;
     1870    24698
     1871    24699    2           RETURN;
     1872    24700
     1873    24701    2   END WRITE_PREDEFINED_NAMES;
     1874    24702
     1875    24703    1   END VDG$WINIT;

PL6.E3A0      #001=VDG$WINIT File=VDG$WORKSPACE.:VDA5TSI                         FRI 07/04/97 11:25 Page:54
--  Include file information  --

   CP_6_SUBS.:LIBRARY  is referenced.
   CP_6.:LIBRARY  cannot be made into a system file and is referenced.
   VD_PERR_C.:VDA5TOU  is referenced.
   VD_MACROS_M.:VDA5TOU  is referenced.
   B$JIT_C.:E04TOU  was found in the system file and is never referenced.
   CP_6_C.:E04TOU  was found in the system file and is referenced.
      No diagnostics issued in procedure VDG$WINIT.

   Procedure VDG$WINIT requires 726 words for executable code.
   Procedure VDG$WINIT requires 44 words of local(AUTO) storage.

    No errors detected in file VDG$WORKSPACE.:VDA5TSI    .

PL6.E3A0      #001=VDG$WINIT File=VDG$WORKSPACE.:VDA5TSI                         FRI 07/04/97 11:25 Page:55

 Object Unit name= VDG$WINIT                                  File name= VDG$WORKSPACE.:VDA5TOU
 UTS= JUL 04 '97 11:25:54.80 FRI                              Compiler= PL-6/E31         Sev=      00
 SharedLib= :SHARED_SYSTEM                                    Alt SharedLib=


    ****  Control sections  ****

 Sect   Type Bound  Init  Size OctSiz  Section name(segment info)
    0   DCB   even  none     0      0  M$UC
    1  RoData even  UTS   2158   4156  VDG$WINIT
    2   Data  even  none   356    544  VDG$WINIT
    3   Proc  even  none   726   1326  VDG$WINIT
    4  RoData even  none    26     32  VDG$WINIT

    ****  Entry defs  ****

                              Check   Calling
                             calling  sequence
  Sect OctLoc Primary Altret sequence   type   Parms  Name
     3      0   yes    yes     yes      Std        0  VDG$WINIT
PL6.E3A0      #001=VDG$WINIT File=VDG$WORKSPACE.:VDA5TSI                         FRI 07/04/97 11:25 Page:56

  ****  Data defs  ****

 Sect OctLoc  Name                           Sect OctLoc  Name
    1    636  VD_EQUALS_INIT                     2      0  VD_$$INCANTATION
    2      4  VD_$$MON_ACC                       2     10  VD_$$MON_EVAL
    2     14  VD_$$MON_PRES                      2     20  VD_$$QUAC
    2     24  VD_$AUTOTAB                        2     30  VD_$BY_KEY
    2     32  VD_$BY                             2     36  VD_$CASE
    2     42  VD_$COMMAND                        2     47  VD_$COMMENT
    2     52  VD_$COMPONENT                      2     56  VD_$CONTEXT
    2     61  VD_$CONTROL                        2     64  VD_$DEFAULT_DESTINATION
    2     77  VD_$DEFAULT_SOURCE                 2    112  VD_$DIRECTION
    2    116  VD_$EOF_MARK                       2    145  VD_$EXIST
    2    151  VD_$EZ_APPEND                      2    155  VD_$FILETYPE
    2    160  VD_$HSALL                          2    164  S_$HSCROLL
    2    173  VD_$HSCROLL                        2    177  S_$HSCROLL_MARGIN
    2    206  VD_$HSCROLL_MARGIN                 2    212  VD_$INSERT
    2    216  VD_$INITIALIZE                     2    221  VD_$INTRO_1
    2    224  VD_$INTRO_2                        2    227  VD_$KEY_GENERATION
    2    233  VD_$MATCHES                        2    237  VD_$MATCH_LIMIT
    2    252  VD_$MAX_COMMAND                    2    256  VD_$MAX_RECORD
    2    271  VD_$MIN_COMMAND                    2    275  VD_$MIN_RECORD
    2    301  VD_$ONESPACEEDIT                   2    305  VD_$PAD
    2    341  VD_$PATTERN                        2    345  VD_$POINT
    2    351  VD_$PROTECT                        2    355  VD_$RECORDS_DELETED
    2    361  VD_$RECORDS_INSERTED               2    365  VD_$RECORDWRAP
    2    371  VD_$REKEY                          2    375  VD_$RESTORE
    2    431  S_$SCREEN                          2    440  VD_$SCREEN
    2    444  VD_$SCROLL                         2    450  VD_$SEARCH
    2    454  VD_$SITES                          2    460  VD_$SKIP
    2    464  VD_$STRIP_BLANKS                   2    470  VD_$STRUCTURE
    2    474  VD_$TEXTEDIT                       2    500  S_$VSCROLL
    2    507  VD_$VSCROLL                        2    513  S_$VSCROLL_MARGIN
    2    522  VD_$VSCROLL_MARGIN                 2    526  VD_$WI_BORDER
    2    531  VD_$WI_PERCENT                     2    535  VD_$WORDWRAP
    2    541  VD_$WS_STORAGE                     1   3774  VD_FKEY_NAMES_EQUALS
PL6.E3A0      #001=VDG$WINIT File=VDG$WORKSPACE.:VDA5TSI                         FRI 07/04/97 11:25 Page:57

  ****  Entry refs  ****

         Check        Calling
        calling       sequence
Altret sequence SRef   type   Args  Name
 yes     yes           Std       3 VDG$OALLOC
 yes     yes           Std       2 VDG$OCOPY
         yes           Std       3 VDG$ESCREECH
 yes     yes           Std       4 VDA$FOPEN
 yes     yes           Std       4 VDA$LWRITE
 yes     yes           Std       2 VDA$PFLUSH
                       nStd      0 X66_AUTO_0
                       Std       0 B_CONSPOOL_D
                       nStd      0 X66_AALT
                       nStd      0 X66_ARET

  ****  Data refs  ****

  Flags:  r = read only, s = secondary
Flgs Name                             Flgs Name                             Flgs Name
     M$UC                                  VD_6E                                 VD_SCREEN_HEIGHT
     VD_SCREEN_WIDTH                       VD_IBEX_WINDOW                        VD_EDITING_HEIGHT
     VD_ORIGINAL_TRMCTL                    VD_ACCESSOR_PRIV                      B_VECTNIL

  ****  Segment refs  ****

  Flags:  r = read only, s = secondary
Flgs Name                             Flgs Name                             Flgs Name
     NULLSID                               ISSID
PL6.E3A0      #001=VDG$WINIT File=VDG$WORKSPACE.:VDA5TSI                         FRI 07/04/97 11:25 Page:58


        1        1        /*M* VDG$WORKSPACE - Utilities for the internal workspace */
        2        2        /*T***********************************************************/
        3        3        /*T*                                                         */
        4        4        /*T* Copyright (c) Bull HN Information Systems Inc., 1997    */
        5        5        /*T*                                                         */
        6        6        /*T***********************************************************/
        7        7
        8        8        /*X* MCR=NO, DMC=YES */
        9        9        /*T*/
       10       10
       11       11
       12       12        /*P* NAME: VDG$WORKSPACE
       13       13            PURPOSE:
       14       14                Utilities for the internal workspace.
       15       15            DESCRIPTION:
       16       16                This module contains several external routines:
       17       17
       18       18                VDG$WINIT
       19       19                Initialize the internal workspace with its mandatory
       20       20                predefined entries.  This is used before reading the user's context
       21       21                file, to get the workspace into a usable shape and set defaults.
       22       22                Creates the internal files, initializes them, opens streams to them.
       23       23                Also sets minimum, maximum, and default values for predefined names
       24       24                which depend on the physical size of the terminal.
       25       25                Writes records for each of the predefined names to the files.
       26       26        */
       27       27
       28       28        /*D* NAME: VDG$WINIT
       29       29            PARAMETERS:
       30       30                None.
       31       31            INPUT:
       32       32                VD_6E.EQUALS$, .LOCATIONS$, .SYNONYMS$, .KEYINS$,
       33       33                    .STRUCTURES$, and .WINDOWS$ must point to closed VD$STREAMS.
       34       34                VD_6E.WS.INTERNAL_DIR$ must point to a chain of VD$DIR_NODEs
       35       35                    for the internal directories.  These shouldn't yet have
       36       36                    VD$DIR_NODE.STRUCTURE$ filled in.
PL6.E3A0      #001=VDG$WINIT File=VDG$WORKSPACE.:VDA5TSI                         FRI 07/04/97 11:25 Page:59
       37       37                VD_SCREEN_HEIGHT and VD_SCREEN_WIDTH must contain the height
       38       38                    and width (in lines and columns) of the terminal or window which
       39       39                    6Edit is to use as its screen.
       40       40                VD_ORIGINAL_TRMCTL and VD_ORIGINAL_TAB must contain the values for
       41       41                    the user's VLP_TRMCTL and VLP_TABS before s/he entered 6Edit.
       42       42                We must be able to allocate dynamic storage and call the
       43       43                    Accessor and Presenter.
       44       44            OUTPUT:
       45       45                VD_6E.STRUCTURES$'s VD$STREAM will be open to a minimal
       46       46                    Structures internal file.
       47       47                VD_6E.EQUALS$, .LOCATIONS$, .SYNONYMS$, .KEYINS$,
       48       48                    and .WINDOWS$ will be open to newly-created internal files.
       49       49                    The Equals and Locations files will have entries for each of
       50       50                    the predefined names.
       51       51                The VD$DIR_NODEs will have their .STRUCTURE$ filled in.
       52       52                VD_6E.STRUCTURE_EXTERNAL$, _NAMES$, _SCRATCH$, _STRUCTURES$,
       53       53                    and _WINDOWS$ will point to the level-0 VD$FILE_NODEs for
       54       54                    the appropriate Structures in the Structures file.
       55       55                Predefined names whose values are related to the terminal screen size
       56       56                    or the terminal TRMCTL or TABS parameters will have their
       57       57                    defaults, minimums, and/or maximums set based on VD_SCREEN_HEIGHT,
       58       58                    VD_SCREEN_WIDTH, VD_ORIGINAL_TRMCTL, and
       59       59        *N*         VD_ORIGINAL_TAB.
       60       60                    (We don't look to VD_ORIGINAL_EDTCTL parameters for initial values,
       61       61                    because they're meaningless until the user creates an ORG=SE
       62       62                    window--ie, they're meaningless outside of 6Edit.)
       63       63            DESCRIPTION:
       64       64                Based on the user's original terminal parameters, set the defaults,
       65       65                    minimums, and/or maximums for the terminal-related predefined
       66       66                    names.
       67       67                Build the minimal predefined Structures nodes, and link them
       68       68                    off the VD$DIR_NODE for the Structures directory.
       69       69                    As we do this, fill in the VD$DIR_NODE.STRUCTURE$ pointers
       70       70                    in the directories to the appropriate Structures-file
       71       71                    entry.
       72       72                Open the Structures stream to this Structures file.
       73       73                    We can't use VDA$FOPEN to do this, 'cause VDA$FOPEN
PL6.E3A0      #001=VDG$WINIT File=VDG$WORKSPACE.:VDA5TSI                         FRI 07/04/97 11:25 Page:60
       74       74                    wants to have a stream already open to the Structures
       75       75                    file; instead, we "manually" open the stream.
       76       76                Create the other predefined files using VDA$FOPEN.  They
       77       77                    will initially be empty.
       78       78                Write records to the Equals and Locations files for each of the
       79       79                    predefined names.
       80       80
       81       81                                        Note
       82       82                        When processing the internal files, we use
       83       83                        VDA$LREAD/LWRITE to access the Names files,
       84       84                        since they may be either internal or external.
       85       85                        However, we can walk thru the Structures and
       86       86                        Windows files directly in memory, since these
       87       87                        two files must always be internal.
       88       88        */
       89       89
       90       90        VDG$WINIT: PROC ALTRET;

     90  3 000000   000000 700200 xent  VDG$WINIT    TSX0  ! X66_AUTO_0
         3 000001   000054 000000                    ZERO    44,0

       91       91
       92       92        %INCLUDE VD_MACROS_M;
       93     2307        %INCLUDE VD_PERR_C;
       94     2455        %INCLUDE CP_6;
       95     2536        %INCLUDE CP_6_SUBS;
       96     3076
       97     3077
       98     3078    1   DCL VDA$FOPEN               ENTRY (4) ALTRET;
       99     3079    1   DCL VDA$LREAD               ENTRY (4) ALTRET;
      100     3080    1   DCL VDA$LWRITE              ENTRY (4) ALTRET;
      101     3081    1   DCL VDA$PFLUSH              ENTRY (2) ALTRET;
      102     3082    1   DCL VDG$OALLOC              ENTRY (3) ALTRET;
      103     3083    1   DCL VDG$OCOPY               ENTRY (2) ALTRET;
      104     3084    1   DCL VDG$ESCREECH            ENTRY (3);
      105     3085
      106     3086
PL6.E3A0      #001=VDG$WINIT File=VDG$WORKSPACE.:VDA5TSI                         FRI 07/04/97 11:25 Page:61
      107     3087        %VD_6E (STCLASS=SYMREF);
      108     3123    1   DCL VD_SCREEN_HEIGHT SBIN SYMREF;
      109     3124    1   DCL VD_SCREEN_WIDTH SBIN SYMREF;
      110     3125    1   DCL VD_IBEX_WINDOW SBIN SYMREF;
      111     3126    1   DCL VD_EDITING_HEIGHT SBIN SYMREF;
      112     3127        %VLP_TRMCTL (FPTN=VD_ORIGINAL_TRMCTL, STCLASS=SYMREF);
      113     3167        %VLP_TAB (FPTN=VD_ORIGINAL_TAB, STCLASS=SYMREF);
      114     3181    1   DCL VD_ACCESSOR_PRIV UBIN BYTE ALIGNED SYMREF;
      115     3182
      116     3183
      117     3184        %BOX (TITLE="Initial entries for Structures file", PAGE=YES);
              3192    1
              3196    1   /***************************************************************************
              3198    1    *                                                                         *
              3202    1            *                    Initial entries for Structures file                 *
              3204    1            *                                                                        *
              3206    1          ***************************************************************************/

      118     3210
      119     3211        /*
      120     3212        *   Initial entries for Structures file.
      121     3213        *   Each INIT_<structure_name> contains the initialization info for a
      122     3214        *       level-1 node in the Structures file -- a single Structure
      123     3215        *       definition.  Each INIT_<structure_name> is an array of key-ptr
      124     3216        *       pairs:  the first pair for each level-1 node has just the key
      125     3217        *       for that node; the remaining pairs for this level-1 node
      126     3218        *       include one pair for each level-2 node for this level-1 node.
      127     3219        *       Of these pairs, the key may be 0-length, but the non-nil ptr
      128     3220        *       points to the constant VD_STRUCTURE_LEVEL for this level-2 node.
      129     3221        *   The end of each table is marked with a nil ptr in any entry after
      130     3222        *       the first.
      131     3223        */
      132     3224
      133     3225    1   DCL 1 INIT_EXTERNAL (0:3) CONSTANT,
      134     3226              %VD_TEXTC (NAME=KEY, MXNB=%MXNB_NAME, LEVEL=2, LAST=",", INITS=4,
      135     3227                    IBYTES=%STRUCT_EXTERNAL, IBYTES1=%LVN_FILE,
      136     3228                    IBYTES2=%LVN_RECORD,
PL6.E3A0      #001=VDG$WINIT File=VDG$WORKSPACE.:VDA5TSI                         FRI 07/04/97 11:25 Page:62
      137     3229                    IBYTES3="''", REPEAT_LAST=YES);
      138     3370    1         2 STRUCT_LEVEL$ PTR
      139     3371    1            INIT(ADDR(NIL), ADDR(EXTERNAL_L0), ADDR(EXTERNAL_L1), ADDR(NIL));
      140     3372
      141     3373    1   DCL 1 INIT_EDITKEY (0:3) CONSTANT,
      142     3374              %VD_TEXTC (NAME=KEY, MXNB=%MXNB_NAME, LEVEL=2, LAST=",", INITS=4,
      143     3375                    IBYTES=%STRUCT_EDITKEY, IBYTES1=%LVN_FILE,
      144     3376                    IBYTES2=%LVN_RECORD, IBYTES3="''");
      145     3517    1         2 STRUCT_LEVEL$ PTR
      146     3518    1            INIT(ADDR(NIL), ADDR(EXTERNAL_L0), ADDR(EDITKEY_L1), ADDR(NIL));
      147     3519
      148     3520    1   DCL 1 INIT_CONSEC (0:3) CONSTANT,
      149     3521              %VD_TEXTC (NAME=KEY, MXNB=%MXNB_NAME, LEVEL=2, LAST=",", INITS=4,
      150     3522                    IBYTES=%STRUCT_SEQUENTIAL, IBYTES1=%LVN_FILE,
      151     3523                    IBYTES2=%LVN_RECORD, IBYTES3="''");
      152     3664    1         2 STRUCT_LEVEL$ PTR
      153     3665    1            INIT(ADDR(NIL), ADDR(EXTERNAL_L0), ADDR(CONSEC_L1), ADDR(NIL));
      154     3666
      155     3667    1   DCL 1 INIT_STRINGKEY (0:3) CONSTANT,
      156     3668              %VD_TEXTC (NAME=KEY, MXNB=%MXNB_NAME, LEVEL=2, LAST=",", INITS=4,
      157     3669                    IBYTES=%STRUCT_STRINGKEY, IBYTES1=%LVN_FILE,
      158     3670                    IBYTES2=%LVN_RECORD, IBYTES3="''");
      159     3811    1         2 STRUCT_LEVEL$ PTR
      160     3812    1            INIT(ADDR(NIL), ADDR(EXTERNAL_L0), ADDR(STRINGKEY_L1), ADDR(NIL));
      161     3813
      162     3814    1   DCL 1 INIT_NAMES (0:3) CONSTANT,
      163     3815              %VD_TEXTC (NAME=KEY, MXNB=%MXNB_NAME, LEVEL=2, LAST=",", INITS=4,
      164     3816                    IBYTES=%STRUCT_NAMES, IBYTES1=%LVN_FILE,
      165     3817                    IBYTES2=%LVN_NAME,
      166     3818                    IBYTES3="''", REPEAT_LAST=YES);
      167     3959    1         2 STRUCT_LEVEL$ PTR
      168     3960    1           INIT(ADDR(NIL), ADDR(INTERNAL_L0), ADDR(NAMES_L1), ADDR(NIL));
      169     3961
      170     3962    1   DCL 1 INIT_SCRATCH (0:3) CONSTANT,
      171     3963              %VD_TEXTC (NAME=KEY, MXNB=%MXNB_NAME, LEVEL=2, LAST=",", INITS=4,
      172     3964                    IBYTES=%STRUCT_SCRATCH, IBYTES1=%LVN_FILE,
      173     3965                    IBYTES2=%LVN_RECORD,
PL6.E3A0      #001=VDG$WINIT File=VDG$WORKSPACE.:VDA5TSI                         FRI 07/04/97 11:25 Page:63
      174     3966                    IBYTES3="''", REPEAT_LAST=YES);
      175     4107    1         2 STRUCT_LEVEL$ PTR
      176     4108    1            INIT(ADDR(NIL), ADDR(INTERNAL_L0), ADDR(SCRATCH_L1), ADDR(NIL));
      177     4109
      178     4110    1   DCL 1 INIT_STRUCTURES (0:4) CONSTANT,
      179     4111              %VD_TEXTC (NAME=KEY, MXNB=%MXNB_NAME, LEVEL=2, LAST=",", INITS=5,
      180     4112                    IBYTES=%STRUCT_STRUCTURES, IBYTES1=%LVN_FILE,
      181     4113                    IBYTES2=%LVN_STRUCTURE, IBYTES3=%LVN_LEVEL,
      182     4114                    IBYTES4="''", REPEAT_LAST=YES);
      183     4255    1         2 STRUCT_LEVEL$ PTR
      184     4256    1           INIT(ADDR(NIL), ADDR(INTERNAL_L0), ADDR(STRUCTURES_L1),
      185     4257    1               ADDR(STRUCTURES_L2), ADDR(NIL));
      186     4258
      187     4259    1   DCL 1 INIT_WINDOWS (0:4) CONSTANT,
      188     4260              %VD_TEXTC (NAME=KEY, MXNB=%MXNB_NAME, LEVEL=2, LAST=",", INITS=5,
      189     4261                    IBYTES=%STRUCT_WINDOWS, IBYTES1=%LVN_FILE,
      190     4262                    IBYTES2=%LVN_WINDOW, IBYTES3=%LVN_BLOCK,
      191     4263                    IBYTES4="''", REPEAT_LAST=YES);
      192     4404    1         2 STRUCT_LEVEL$ PTR
      193     4405    1           INIT(ADDR(NIL), ADDR(INTERNAL_L0), ADDR(WINDOWS_L1), ADDR(WINDOWS_L2),
      194     4406    1                ADDR(NIL));
      195     4407
      196     4408
      197     4409        %VD_STRUCTURE_LEVEL (NAME=EXTERNAL_L0, STCLASS=CONSTANT,
      198     4410            IORG=%ORG_KEYED, IKEY_TYPE=%KT_STRING, ISPEC_TYPE=0,
      199     4411            IPROT_KEY=%FALSE, IPROT_SPEC=%TRUE, IPROT_DATA=%TRUE);
      200     4461
      201     4462        %VD_STRUCTURE_LEVEL (NAME=EXTERNAL_L1, STCLASS=CONSTANT,
      202     4463            IORG=0, IKEY_TYPE=0, ISPEC_TYPE=%SPT_EXT_RECORD,
      203     4464            IPROT_KEY=%FALSE, IPROT_SPEC=%FALSE, IPROT_DATA=%FALSE);
      204     4514
      205     4515        %VD_STRUCTURE_LEVEL (NAME=EDITKEY_L1, STCLASS=CONSTANT,
      206     4516            IORG=%ORG_KEYED, IKEY_TYPE=%KT_EDITKEY, ISPEC_TYPE=%SPT_EXT_RECORD,
      207     4517            IPROT_KEY=%FALSE, IPROT_SPEC=%FALSE, IPROT_DATA=%FALSE);
      208     4567
      209     4568        %VD_STRUCTURE_LEVEL (NAME=CONSEC_L1, STCLASS=CONSTANT,
      210     4569            IORG=%ORG_CONSEC, IKEY_TYPE=%KT_NUMBER, ISPEC_TYPE=%SPT_EXT_RECORD,
PL6.E3A0      #001=VDG$WINIT File=VDG$WORKSPACE.:VDA5TSI                         FRI 07/04/97 11:25 Page:64
      211     4570            IPROT_KEY=%FALSE, IPROT_SPEC=%FALSE, IPROT_DATA=%FALSE);
      212     4620
      213     4621        %VD_STRUCTURE_LEVEL (NAME=STRINGKEY_L1, STCLASS=CONSTANT,
      214     4622            IORG=%ORG_KEYED, IKEY_TYPE=%KT_STRING, ISPEC_TYPE=%SPT_EXT_RECORD,
      215     4623            IPROT_KEY=%FALSE, IPROT_SPEC=%FALSE, IPROT_DATA=%FALSE);
      216     4673
      217     4674        %VD_STRUCTURE_LEVEL (NAME=INTERNAL_L0, STCLASS=CONSTANT,
      218     4675            IORG=%ORG_KEYED, IKEY_TYPE=%KT_STRING, ISPEC_TYPE=0,
      219     4676            IPROT_KEY=%TRUE, IPROT_SPEC=%TRUE, IPROT_DATA=%TRUE);
      220     4726
      221     4727        %VD_STRUCTURE_LEVEL (NAME=NAMES_L1, STCLASS=CONSTANT,
      222     4728            IORG=%ORG_KEYED, IKEY_TYPE=%KT_STRING, ISPEC_TYPE=%SPT_NAME_SPEC,
      223     4729            IPROT_KEY=%FALSE, IPROT_SPEC=%FALSE, IPROT_DATA=%FALSE);
      224     4779
      225     4780        %VD_STRUCTURE_LEVEL (NAME=SCRATCH_L1, STCLASS=CONSTANT,
      226     4781            IORG=%ORG_KEYED, IKEY_TYPE=%KT_EDITKEY, ISPEC_TYPE=%SPT_EXT_RECORD,
      227     4782            IPROT_KEY=%FALSE, IPROT_SPEC=%FALSE, IPROT_DATA=%FALSE);
      228     4832
      229     4833        %VD_STRUCTURE_LEVEL (NAME=STRUCTURES_L1, STCLASS=CONSTANT,
      230     4834            IORG=%ORG_KEYED, IKEY_TYPE=%KT_STRING, ISPEC_TYPE=%SPT_STRUCTURE_SPEC,
      231     4835            IPROT_KEY=%FALSE, IPROT_SPEC=%FALSE, IPROT_DATA=%FALSE);
      232     4885
      233     4886        %VD_STRUCTURE_LEVEL (NAME=STRUCTURES_L2, STCLASS=CONSTANT,
      234     4887            IORG=%ORG_KEYED, IKEY_TYPE=%KT_STRING, ISPEC_TYPE=%SPT_STRUCTURE_LEVEL,
      235     4888            IPROT_KEY=%FALSE, IPROT_SPEC=%FALSE, IPROT_DATA=%FALSE);
      236     4938
      237     4939        %VD_STRUCTURE_LEVEL (NAME=WINDOWS_L1, STCLASS=CONSTANT,
      238     4940            IORG=%ORG_CONSEC, IKEY_TYPE=%KT_NUMBER, ISPEC_TYPE=%SPT_WINDOW_SPEC,
      239     4941            IPROT_KEY=%FALSE, IPROT_SPEC=%FALSE, IPROT_DATA=%FALSE);
      240     4991
      241     4992        %VD_STRUCTURE_LEVEL (NAME=WINDOWS_L2, STCLASS=CONSTANT,
      242     4993            IORG=%ORG_CONSEC, IKEY_TYPE=%KT_NUMBER, ISPEC_TYPE=%SPT_WINDOW_BLOCK,
      243     4994            IPROT_KEY=%FALSE, IPROT_SPEC=%FALSE, IPROT_DATA=%FALSE);
      244     5044
      245     5045
      246     5046        %BOX (TITLE="Predefined Names", PAGE=YES);
              5054    1
PL6.E3A0      #001=VDG$WINIT File=VDG$WORKSPACE.:VDA5TSI                         FRI 07/04/97 11:25 Page:65
              5058    1   /***************************************************************************
              5060    1    *                                                                         *
              5064    1            *                              Predefined Names                          *
              5066    1            *                                                                        *
              5068    1          ***************************************************************************/

      247     5072
      248     5073        /*
      249     5074        *   Initialization tables and internal global storage for
      250     5075        *       predefined Names-file entries.
      251     5076        *   Each entry points to a level-1 Key, a VD_NAME_SPEC, a
      252     5077        *       VD_BUFFER/VD_NUMBER containing the default value for the name,
      253     5078        *       and a set of legal-access flags (%NAC_ defs) for the name's
      254     5079        *       VD$FILE_NODE.ACCESS field.
      255     5080        *   Data values double as the global internal value as well as the
      256     5081        *       initializing value for the file.  Data components (and hence
      257     5082        *       the gloval internal values) are stored in VD$BUFFERs or
      258     5083        *       the VD$NUMBER variant of VD$BUFFER.  (VD$POINTER
      259     5084        *       isn't used in these init tables 'cause it's only used when
      260     5085        *       the Data component refers to a value stored elsewhere
      261     5086        *       in the 6Edit workspace).
      262     5087        *   Predefined Names whose values are stored elsewhere in the
      263     5088        *       6Edit workspace have no value.  Their .DATA$ pointer is nil.
      264     5089        *       (With the single exception of the $STRUCTURE name.  Oh well.)
      265     5090        */
      266     5091
      267     5092        %BOX (TITLE="Equals-file initialization tables and global values");

              5104    1   /***************************************************************************
              5106    1    *                                                                         *
              5110    1            *            Equals-file initialization tables and global values         *
              5112    1            *                                                                        *
              5114    1          ***************************************************************************/

      268     5118
      269     5119    1   DCL 1 VD_EQUALS_INIT (0:99) CONSTANT SYMDEF,
      270     5120    1         2 KEY$ PTR
PL6.E3A0      #001=VDG$WINIT File=VDG$WORKSPACE.:VDA5TSI                         FRI 07/04/97 11:25 Page:66
      271     5121    1           INIT(ADDR(K_$$INCANTATION), ADDR(K_$$MON_ACC),
      272     5122    1               ADDR(K_$$MON_EVAL), ADDR(K_$$MON_PRES), ADDR(K_$$QUAC),
      273     5123    1               ADDR(K_$AUTOTAB),
      274     5124    1               ADDR(K_$BY), ADDR(K_$CASE), ADDR(K_$COMMAND), ADDR(K_$COMMENT),
      275     5125    1               ADDR(K_$COMPONENT), ADDR(K_$CONTEXT), ADDR(K_$CONTROL),
      276     5126    1               ADDR(K_$DEFAULT_DESTINATION), ADDR(K_$DEFAULT_SOURCE),
      277     5127    1               ADDR(K_$DIRECTION), ADDR(K_$EOF_MARK), ADDR(K_$EXIST),
      278     5128    1               ADDR(K_$EZ_APPEND), ADDR(K_$FILEORG), ADDR(K_$FILERECORDS),
      279     5129    1               ADDR(K_$FILETYPE), ADDR(K_$HSALL), ADDR(K_$HSCROLL),
      280     5130    1               ADDR(K_$HSCROLL_MARGIN), ADDR(K_$INITIALIZE),
      281     5131    1               ADDR(K_$INSERT), ADDR(K_$INTRO_1),
      282     5132    1               ADDR(K_$INTRO_2), ADDR(K_$KEY_GENERATION),
      283     5133    1               ADDR(K_$MATCHES), ADDR(K_$MATCH_LIMIT), ADDR(K_$MAX_COMMAND),
      284     5134    1               ADDR(K_$MAX_RECORD), ADDR(K_$MIN_COMMAND), ADDR(K_$MIN_RECORD),
      285     5135    1               ADDR(K_$ONESPACEEDIT),
      286     5136    1               ADDR(K_$PAD), ADDR(K_$PATTERN), ADDR(K_$POINT),
      287     5137    1               ADDR(K_$PROTECT), ADDR(K_$RECORDS_DELETED),
      288     5138    1               ADDR(K_$RECORDS_INSERTED), ADDR(K_$RECORDWRAP),
      289     5139    1               ADDR(K_$REKEY), ADDR(K_$RESTORE),
      290     5140    1               ADDR(K_$SCREEN), ADDR(K_$SCROLL), ADDR(K_$SEARCH),
      291     5141    1               ADDR(K_$SITES), ADDR(K_$SKIP), ADDR(K_$STRIP_BLANKS),
      292     5142    1               ADDR(K_$STRUCTURE), ADDR(K_$TEXTEDIT), ADDR(K_$VSCROLL),
      293     5143    1               ADDR(K_$VSCROLL_MARGIN),
      294     5144    1               ADDR(K_$WI_BORDER), ADDR(K_$WI_PERCENT),
      295     5145    1               ADDR(K_$WORDWRAP), ADDR(K_$WS_STORAGE),
      296     5146    1               ADDR(K_ANY), ADDR(K_AO), ADDR(K_BACKWARD),
      297     5147    1               ADDR(K_BIN10), ADDR(K_BIN521), ADDR(K_BINHLF),
      298     5148    1               ADDR(K_BO), ADDR(K_DATA), ADDR(K_DONT_PROTECT), ADDR(K_EO),
      299     5149    1               ADDR(K_FORWARD), ADDR(K_KEY), ADDR(K_NEW),
      300     5150    1               ADDR(K_OFF), ADDR(K_OLD), ADDR(K_ON),
      301     5151    1               ADDR(K_PROTECT), ADDR(K_SPEC), ADDR(K_STRING),
      302     5152    1               ADDR(NIL)*0),
      303     5153    1         2 SPEC$ PTR
      304     5154    1           INIT(ADDR(S_$$INCANTATION), ADDR(S_$$MON_ACC),
      305     5155    1               ADDR(S_$$MON_EVAL), ADDR(S_$$MON_PRES), ADDR(S_$$QUAC),
      306     5156    1               ADDR(S_$AUTOTAB),
      307     5157    1               ADDR(S_$BY), ADDR(S_$CASE), ADDR(S_$COMMAND), ADDR(S_$COMMENT),
PL6.E3A0      #001=VDG$WINIT File=VDG$WORKSPACE.:VDA5TSI                         FRI 07/04/97 11:25 Page:67
      308     5158    1               ADDR(S_$COMPONENT), ADDR(S_$CONTEXT), ADDR(S_$CONTROL),
      309     5159    1               ADDR(S_$DEFAULT_DESTINATION), ADDR(S_$DEFAULT_SOURCE),
      310     5160    1               ADDR(S_$DIRECTION), ADDR(S_$EOF_MARK), ADDR(S_$EXIST),
      311     5161    1               ADDR(S_$EZ_APPEND), ADDR(S_$FILEORG), ADDR(S_$FILERECORDS),
      312     5162    1               ADDR(S_$FILETYPE), ADDR(S_$HSALL), ADDR(S_$HSCROLL),
      313     5163    1               ADDR(S_$HSCROLL_MARGIN), ADDR(S_$INITIALIZE),
      314     5164    1               ADDR(S_$INSERT), ADDR(S_$INTRO_1),
      315     5165    1               ADDR(S_$INTRO_2), ADDR(S_$KEY_GENERATION),
      316     5166    1               ADDR(S_$MATCHES), ADDR(S_$MATCH_LIMIT), ADDR(S_$MAX_COMMAND),
      317     5167    1               ADDR(S_$MAX_RECORD), ADDR(S_$MIN_COMMAND), ADDR(S_$MIN_RECORD),
      318     5168    1               ADDR(S_$ONESPACEEDIT),
      319     5169    1               ADDR(S_$PAD), ADDR(S_$PATTERN), ADDR(S_$POINT),
      320     5170    1               ADDR(S_$PROTECT), ADDR(S_$RECORDS_DELETED),
      321     5171    1               ADDR(S_$RECORDS_INSERTED), ADDR(S_$RECORDWRAP),
      322     5172    1               ADDR(S_$REKEY), ADDR(S_$RESTORE),
      323     5173    1               ADDR(S_$SCREEN), ADDR(S_$SCROLL), ADDR(S_$SEARCH),
      324     5174    1               ADDR(S_$SITES), ADDR(S_$SKIP), ADDR(S_$STRIP_BLANKS),
      325     5175    1               ADDR(S_$STRUCTURE), ADDR(S_$TEXTEDIT), ADDR(S_$VSCROLL),
      326     5176    1               ADDR(S_$VSCROLL_MARGIN),
      327     5177    1               ADDR(S_$WI_BORDER), ADDR(S_$WI_PERCENT),
      328     5178    1               ADDR(S_$WORDWRAP), ADDR(S_$WS_STORAGE),
      329     5179    1               ADDR(S_ANY), ADDR(S_AO), ADDR(S_BACKWARD),
      330     5180    1               ADDR(S_BIN10), ADDR(S_BIN521), ADDR(S_BINHLF),
      331     5181    1               ADDR(S_BO), ADDR(S_DATA), ADDR(S_DONT_PROTECT), ADDR(S_EO),
      332     5182    1               ADDR(S_FORWARD), ADDR(S_KEY), ADDR(S_NEW),
      333     5183    1               ADDR(S_OFF), ADDR(S_OLD), ADDR(S_ON),
      334     5184    1               ADDR(S_PROTECT), ADDR(S_SPEC), ADDR(S_STRING),
      335     5185    1               ADDR(NIL)*0),
      336     5186    1         2 DATA$ PTR
      337     5187    1           INIT(ADDR(D_$$INCANTATION), ADDR(VD_$$MON_ACC),
      338     5188    1               ADDR(VD_$$MON_EVAL), ADDR(VD_$$MON_PRES), ADDR(VD_$$QUAC),
      339     5189    1               ADDR(VD_$AUTOTAB),
      340     5190    1               ADDR(D_$BY), ADDR(VD_$CASE), ADDR(VD_$COMMAND), ADDR(VD_$COMMENT),
      341     5191    1               ADDR(VD_$COMPONENT), ADDR(VD_$CONTEXT), ADDR(VD_$CONTROL),
      342     5192    1               ADDR(VD_$DEFAULT_DESTINATION), ADDR(VD_$DEFAULT_SOURCE),
      343     5193    1               ADDR(VD_$DIRECTION), ADDR(VD_$EOF_MARK), ADDR(VD_$EXIST),
      344     5194    1               ADDR(VD_$EZ_APPEND), ADDR(NIL), ADDR(NIL),
PL6.E3A0      #001=VDG$WINIT File=VDG$WORKSPACE.:VDA5TSI                         FRI 07/04/97 11:25 Page:68
      345     5195    1               ADDR(VD_$FILETYPE), ADDR(VD_$HSALL), ADDR(VD_$HSCROLL),
      346     5196    1               ADDR(VD_$HSCROLL_MARGIN), ADDR(VD_$INITIALIZE),
      347     5197    1               ADDR(VD_$INSERT), ADDR(VD_$INTRO_1),
      348     5198    1               ADDR(VD_$INTRO_2), ADDR(VD_$KEY_GENERATION),
      349     5199    1               ADDR(VD_$MATCHES), ADDR(VD_$MATCH_LIMIT), ADDR(VD_$MAX_COMMAND),
      350     5200    1               ADDR(VD_$MAX_RECORD), ADDR(VD_$MIN_COMMAND), ADDR(VD_$MIN_RECORD),
      351     5201    1               ADDR(VD_$ONESPACEEDIT),
      352     5202    1               ADDR(VD_$PAD), ADDR(VD_$PATTERN), ADDR(VD_$POINT),
      353     5203    1               ADDR(VD_$PROTECT), ADDR(VD_$RECORDS_DELETED),
      354     5204    1               ADDR(VD_$RECORDS_INSERTED), ADDR(VD_$RECORDWRAP),
      355     5205    1               ADDR(VD_$REKEY), ADDR(VD_$RESTORE),
      356     5206    1               ADDR(VD_$SCREEN), ADDR(VD_$SCROLL), ADDR(VD_$SEARCH),
      357     5207    1               ADDR(VD_$SITES), ADDR(VD_$SKIP), ADDR(VD_$STRIP_BLANKS),
      358     5208    1               ADDR(VD_$STRUCTURE), ADDR(VD_$TEXTEDIT), ADDR(VD_$VSCROLL),
      359     5209    1               ADDR(VD_$VSCROLL_MARGIN),
      360     5210    1               ADDR(VD_$WI_BORDER), ADDR(VD_$WI_PERCENT),
      361     5211    1               ADDR(VD_$WORDWRAP), ADDR(VD_$WS_STORAGE),
      362     5212    1               ADDR(D_ANY), ADDR(D_AO), ADDR(D_BACKWARD),
      363     5213    1               ADDR(D_BIN10), ADDR(D_BIN521), ADDR(D_BINHLF),
      364     5214    1               ADDR(D_BO), ADDR(D_DATA), ADDR(D_DONT_PROTECT), ADDR(D_EO),
      365     5215    1               ADDR(D_FORWARD), ADDR(D_KEY), ADDR(D_NEW),
      366     5216    1               ADDR(D_OFF), ADDR(D_OLD), ADDR(D_ON),
      367     5217    1               ADDR(D_PROTECT), ADDR(D_SPEC), ADDR(D_STRING),
      368     5218    1               ADDR(NIL)*0),
      369     5219    1         2 ACCESS$ PTR
      370     5220    1           INIT(ADDR(A_$$INCANTATION), ADDR(A_$$MON_ACC),
      371     5221    1               ADDR(A_$$MON_EVAL), ADDR(A_$$MON_PRES), ADDR(A_$$QUAC),
      372     5222    1               ADDR(A_$AUTOTAB),
      373     5223    1               ADDR(A_$BY), ADDR(A_$CASE), ADDR(A_$COMMAND), ADDR(A_$COMMENT),
      374     5224    1               ADDR(A_$COMPONENT), ADDR(A_$CONTEXT), ADDR(A_$CONTROL),
      375     5225    1               ADDR(A_$DEFAULT_DESTINATION), ADDR(A_$DEFAULT_SOURCE),
      376     5226    1               ADDR(A_$DIRECTION), ADDR(A_$EOF_MARK), ADDR(A_$EXIST),
      377     5227    1               ADDR(A_$EZ_APPEND), ADDR(A_$FILEORG), ADDR(A_$FILERECORDS),
      378     5228    1               ADDR(A_$FILETYPE), ADDR(A_$HSALL), ADDR(A_$HSCROLL),
      379     5229    1               ADDR(A_$HSCROLL_MARGIN), ADDR(A_$INITIALIZE),
      380     5230    1               ADDR(A_$INSERT), ADDR(A_$INTRO_1),
      381     5231    1               ADDR(A_$INTRO_2), ADDR(A_$KEY_GENERATION),
PL6.E3A0      #001=VDG$WINIT File=VDG$WORKSPACE.:VDA5TSI                         FRI 07/04/97 11:25 Page:69
      382     5232    1               ADDR(A_$MATCHES), ADDR(A_$MATCH_LIMIT), ADDR(A_$MAX_COMMAND),
      383     5233    1               ADDR(A_$MAX_RECORD), ADDR(A_$MIN_COMMAND), ADDR(A_$MIN_RECORD),
      384     5234    1               ADDR(A_$ONESPACEEDIT),
      385     5235    1               ADDR(A_$PAD), ADDR(A_$PATTERN), ADDR(A_$POINT),
      386     5236    1               ADDR(A_$PROTECT), ADDR(A_$RECORDS_DELETED),
      387     5237    1               ADDR(A_$RECORDS_INSERTED), ADDR(A_$RECORDWRAP),
      388     5238    1               ADDR(A_$REKEY), ADDR(A_$RESTORE),
      389     5239    1               ADDR(A_$SCREEN), ADDR(A_$SCROLL), ADDR(A_$SEARCH),
      390     5240    1               ADDR(A_$SITES), ADDR(A_$SKIP), ADDR(A_$STRIP_BLANKS),
      391     5241    1               ADDR(A_$STRUCTURE), ADDR(A_$TEXTEDIT), ADDR(A_$VSCROLL),
      392     5242    1               ADDR(A_$VSCROLL_MARGIN),
      393     5243    1               ADDR(A_$WI_BORDER), ADDR(A_$WI_PERCENT),
      394     5244    1               ADDR(A_$WORDWRAP), ADDR(A_$WS_STORAGE),
      395     5245    1               ADDR(A_ANY), ADDR(A_AO), ADDR(A_BACKWARD),
      396     5246    1               ADDR(A_BIN10), ADDR(A_BIN521), ADDR(A_BINHLF),
      397     5247    1               ADDR(A_BO), ADDR(A_DATA), ADDR(A_DONT_PROTECT), ADDR(A_EO),
      398     5248    1               ADDR(A_FORWARD), ADDR(A_KEY), ADDR(A_NEW),
      399     5249    1               ADDR(A_OFF), ADDR(A_OLD), ADDR(A_ON),
      400     5250    1               ADDR(A_PROTECT), ADDR(A_SPEC), ADDR(A_STRING),
      401     5251    1               ADDR(NIL)*0);
      402     5252
      403     5253
      404     5254        %VD_TEXTC_REMOTE (NAME=K_$$INCANTATION, STCLASS=CONSTANT,
      405     5255            IBYTES='$$INCANTATION');
      406     5318        %VD_NAME_SPEC (NAME=S_$$INCANTATION, STCLASS=CONSTANT,
      407     5319            ITYPE=%NDT_EQUALS, IWRITER=%WRTR_$$INCANTATION);
      408     5370        %VD_BUFFER (NAME=D_$$INCANTATION, STCLASS=CONSTANT,
      409     5371            MXNB=1, IBYTES="''");
      410     5431        %VD_NUMBER (NAME=VD_$$INCANTATION, STCLASS="STATIC SYMDEF",
      411     5432            ICLASS=%CLS_BOOLEAN, IV="%BITBIN(FALSE)");
      412     5479        %VD_NAC (NAME=A_$$INCANTATION, STCLASS=CONSTANT,
      413     5480            WRITE=%TRUE);
      414     5498
      415     5499
      416     5500        %VD_TEXTC_REMOTE (NAME=K_$$MON_ACC, STCLASS=CONSTANT,
      417     5501            IBYTES='$$MON_ACC');
      418     5564        %VD_NAME_SPEC (NAME=S_$$MON_ACC, STCLASS=CONSTANT,
PL6.E3A0      #001=VDG$WINIT File=VDG$WORKSPACE.:VDA5TSI                         FRI 07/04/97 11:25 Page:70
      419     5565            IN=99, ITYPE=%NDT_EQUALS, IWRITER=%WRTR_$$MON_ACC);
      420     5616        %VD_NUMBER (NAME=VD_$$MON_ACC, STCLASS="STATIC SYMDEF",
      421     5617            ICLASS=%CLS_NUMBER, IV=0);
      422     5664        %VD_NAC (NAME=A_$$MON_ACC, STCLASS=CONSTANT,
      423     5665            WRITE=%TRUE);
      424     5683
      425     5684
      426     5685        %VD_TEXTC_REMOTE (NAME=K_$$MON_EVAL, STCLASS=CONSTANT,
      427     5686            IBYTES='$$MON_EVAL');
      428     5749        %VD_NAME_SPEC (NAME=S_$$MON_EVAL, STCLASS=CONSTANT,
      429     5750            IN=99, ITYPE=%NDT_EQUALS, IWRITER=%WRTR_$$MON_EVAL);
      430     5801        %VD_NUMBER (NAME=VD_$$MON_EVAL, STCLASS="STATIC SYMDEF",
      431     5802            ICLASS=%CLS_NUMBER, IV=0);
      432     5849        %VD_NAC (NAME=A_$$MON_EVAL, STCLASS=CONSTANT,
      433     5850            WRITE=%TRUE);
      434     5868
      435     5869
      436     5870        %VD_TEXTC_REMOTE (NAME=K_$$MON_PRES, STCLASS=CONSTANT,
      437     5871            IBYTES='$$MON_PRES');
      438     5934        %VD_NAME_SPEC (NAME=S_$$MON_PRES, STCLASS=CONSTANT,
      439     5935            IN=99, ITYPE=%NDT_EQUALS, IWRITER=%WRTR_$$MON_PRES);
      440     5986        %VD_NUMBER (NAME=VD_$$MON_PRES, STCLASS="STATIC SYMDEF",
      441     5987            ICLASS=%CLS_NUMBER, IV=0);
      442     6034        %VD_NAC (NAME=A_$$MON_PRES, STCLASS=CONSTANT,
      443     6035            WRITE=%TRUE);
      444     6053
      445     6054
      446     6055        %VD_TEXTC_REMOTE (NAME=K_$$QUAC, STCLASS=CONSTANT,
      447     6056            IBYTES='$$QUAC');
      448     6119        %VD_NAME_SPEC (NAME=S_$$QUAC, STCLASS=CONSTANT,
      449     6120            ITYPE=%NDT_EQUALS, IWRITER=%WRTR_$$QUAC);
      450     6171        %VD_NUMBER (NAME=VD_$$QUAC, STCLASS="STATIC SYMDEF",
      451     6172            ICLASS=%CLS_BOOLEAN, IV="%BITBIN(FALSE)");
      452     6219        %VD_NAC (NAME=A_$$QUAC, STCLASS=CONSTANT,
      453     6220            WRITE=%TRUE);
      454     6238
      455     6239
PL6.E3A0      #001=VDG$WINIT File=VDG$WORKSPACE.:VDA5TSI                         FRI 07/04/97 11:25 Page:71
      456     6240
      457     6241        %VD_TEXTC_REMOTE (NAME=K_$AUTOTAB, STCLASS=CONSTANT,
      458     6242            IBYTES='$AUTOTAB');
      459     6305        %VD_NAME_SPEC (NAME=S_$AUTOTAB, STCLASS=CONSTANT,
      460     6306            ITYPE=%NDT_EQUALS, IWRITER=%WRTR_$AUTOTAB, IWINDOWABLE=%TRUE,
      461     6307            IM=0, IN=%MX_TERMINAL_POSITION); /* Min and max values (0 or 1=off) */
      462     6358        %VD_NUMBER (NAME=VD_$AUTOTAB, STCLASS="STATIC SYMDEF",
      463     6359            ICLASS=%CLS_NUMBER, IV=0);
      464     6406        %VD_NAC (NAME=A_$AUTOTAB, STCLASS=CONSTANT,
      465     6407            READ=%TRUE, WRITE=%TRUE);
      466     6425
      467     6426
      468     6427        %VD_TEXTC_REMOTE (NAME=K_$BY, STCLASS=CONSTANT,
      469     6428            IBYTES='$BY');
      470     6491        %VD_NAME_SPEC (NAME=S_$BY, STCLASS=CONSTANT,
      471     6492            ITYPE=%NDT_EQUALS, IWRITER=%WRTR_$BY);
      472     6543        %VD_POINTER (NAME=D_$BY, STCLASS=CONSTANT, ICLASS=%CLS_PTR_KEY, IV=VD_$BY_KEY);
      473     6590        %VD_KEY (NAME=VD_$BY_KEY, STCLASS=STATIC SYMDEF,
      474     6591            ITYPE=%KT_EDITKEY, IREP=%REP_LOCAL, IBYTES=%DFLT_$BY);
      475     6627        %VD_NUMBER (NAME=VD_$BY, STCLASS="STATIC SYMDEF",
      476     6628            ICLASS=%CLS_NUMBER, IV=%DFLT_$BY);
      477     6675        %VD_NAC (NAME=A_$BY, STCLASS=CONSTANT,
      478     6676            READ=%TRUE, WRITE=%TRUE);
      479     6694
      480     6695
      481     6696        %VD_TEXTC_REMOTE (NAME=K_$CASE, STCLASS=CONSTANT,
      482     6697            IBYTES='$CASE');
      483     6760        %VD_NAME_SPEC (NAME=S_$CASE, STCLASS=CONSTANT,
      484     6761            ITYPE=%NDT_EQUALS, IWRITER=%WRTR_$CASE);
      485     6812        %VD_NUMBER (NAME=VD_$CASE, STCLASS="STATIC SYMDEF",
      486     6813            ICLASS=%CLS_BOOLEAN, IV="%BITBIN(TRUE)");
      487     6860        %VD_NAC (NAME=A_$CASE, STCLASS=CONSTANT,
      488     6861            READ=%TRUE, WRITE=%TRUE);
      489     6879
      490     6880
      491     6881        %VD_TEXTC_REMOTE (NAME=K_$COMMAND, STCLASS=CONSTANT,
      492     6882            IBYTES='$COMMAND');
PL6.E3A0      #001=VDG$WINIT File=VDG$WORKSPACE.:VDA5TSI                         FRI 07/04/97 11:25 Page:72
      493     6945        %VD_NAME_SPEC (NAME=S_$COMMAND, STCLASS=CONSTANT,
      494     6946            ITYPE=%NDT_EQUALS, IWRITER=%WRTR_$COMMAND);
      495     6997        %VD_NUMBER (NAME=VD_$COMMAND, STCLASS="STATIC SYMDEF",
      496     6998            ICLASS=%CLS_BOOLEAN, IV=0);       /* Default filled in by code */
      497     7045        %VD_NAC (NAME=A_$COMMAND, STCLASS=STATIC,
      498     7046            READ=%TRUE, WRITE=%TRUE);       /* May be changed by code */
      499     7064
      500     7065
      501     7066        %VD_TEXTC_REMOTE (NAME=K_$COMMENT, STCLASS=CONSTANT,
      502     7067            IBYTES='$COMMENT');
      503     7130        %VD_NAME_SPEC (NAME=S_$COMMENT, STCLASS=CONSTANT,
      504     7131            ITYPE=%NDT_EQUALS, IWRITER=%WRTR_$COMMENT,
      505     7132            IM=0, IN=%MXNB_$COMMENT);            /* Min and max lengths */
      506     7183        %VD_BUFFER (NAME=VD_$COMMENT, STCLASS="STATIC SYMDEF",
      507     7184            MXNB=%MXNB_$COMMENT, IBYTES=%DFLT_$COMMENT);
      508     7244        %VD_NAC (NAME=A_$COMMENT, STCLASS=CONSTANT,
      509     7245            READ=%TRUE, WRITE=%TRUE);
      510     7263
      511     7264
      512     7265        %VD_TEXTC_REMOTE (NAME=K_$COMPONENT, STCLASS=CONSTANT,
      513     7266            IBYTES='$COMPONENT');
      514     7329        %VD_NAME_SPEC (NAME=S_$COMPONENT, STCLASS=CONSTANT,
      515     7330            ITYPE=%NDT_EQUALS, IWRITER=%WRTR_$COMPONENT,
      516     7331            IM=1, IN="%MAX(CO_KEY, CO_SPEC, CO_DATA)");
      517     7382        %VD_NUMBER (NAME=VD_$COMPONENT, STCLASS="STATIC SYMDEF",
      518     7383            ICLASS=%CLS_COMPONENT, IV=%CO_DATA);
      519     7430        %VD_NAC (NAME=A_$COMPONENT, STCLASS=CONSTANT,
      520     7431            READ=%FALSE, WRITE=%TRUE);
      521     7449
      522     7450
      523     7451        %VD_TEXTC_REMOTE (NAME=K_$CONTEXT, STCLASS=CONSTANT,
      524     7452            IBYTES='$CONTEXT');
      525     7515        %VD_NAME_SPEC (NAME=S_$CONTEXT, STCLASS=CONSTANT,
      526     7516            ITYPE=%NDT_EQUALS, IWRITER=%WRTR_$CONTEXT,
      527     7517            IM=0, IN=%MXNB_FID);            /* Min and max lengths */
      528     7568        %VD_BUFFER (NAME=VD_$CONTEXT, STCLASS="STATIC SYMDEF",
      529     7569            MXNB=2, IBYTES="''");
PL6.E3A0      #001=VDG$WINIT File=VDG$WORKSPACE.:VDA5TSI                         FRI 07/04/97 11:25 Page:73
      530     7629        %VD_NAC (NAME=A_$CONTEXT, STCLASS=CONSTANT,
      531     7630            READ=%TRUE); /*N* Let users write to $CONTEXT (ala star 23676?) */
      532     7648
      533     7649
      534     7650        %VD_TEXTC_REMOTE (NAME=K_$CONTROL, STCLASS=CONSTANT,
      535     7651            IBYTES='$CONTROL');
      536     7714        %VD_NAME_SPEC (NAME=S_$CONTROL, STCLASS=CONSTANT,
      537     7715            ITYPE=%NDT_EQUALS, IWRITER=%WRTR_$CONTROL,
      538     7716            IM=0, IN=%MXNB_$CONTROL);            /* Min and max lengths */
      539     7767        %VD_BUFFER (NAME=VD_$CONTROL, STCLASS="STATIC SYMDEF",
      540     7768            MXNB=%MXNB_$CONTROL, IBYTES=%DFLT_$CONTROL);
      541     7828        %VD_NAC (NAME=A_$CONTROL, STCLASS=CONSTANT,
      542     7829            READ=%TRUE, WRITE=%TRUE);
      543     7847
      544     7848
      545     7849        %VD_TEXTC_REMOTE (NAME=K_$DEFAULT_DESTINATION, STCLASS=CONSTANT,
      546     7850            IBYTES='$DEFAULT_DESTINATION');
      547     7913        %VD_NAME_SPEC (NAME=S_$DEFAULT_DESTINATION, STCLASS=CONSTANT,
      548     7914            ITYPE=%NDT_EQUALS, IWRITER=%WRTR_$DEFAULT_DEST,
      549     7915            IM=0, IN=%MXNB_DFLT_BLKEXPR);   /* Min and max lengths */
      550     7966        %VD_BUFFER (NAME=VD_$DEFAULT_DESTINATION, STCLASS="STATIC SYMDEF",
      551     7967            MXNB=%MXNB_DFLT_BLKEXPR, IBYTES=%DFLT_$DEFAULT_DEST);
      552     8027        %VD_NAC (NAME=A_$DEFAULT_DESTINATION, STCLASS=CONSTANT,
      553     8028            READ=%FALSE, WRITE=%TRUE);
      554     8046
      555     8047
      556     8048        %VD_TEXTC_REMOTE (NAME=K_$DEFAULT_SOURCE, STCLASS=CONSTANT,
      557     8049            IBYTES='$DEFAULT_SOURCE');
      558     8112        %VD_NAME_SPEC (NAME=S_$DEFAULT_SOURCE, STCLASS=CONSTANT,
      559     8113            ITYPE=%NDT_EQUALS, IWRITER=%WRTR_$DEFAULT_SOURCE,
      560     8114            IM=0, IN=%MXNB_DFLT_BLKEXPR);   /* Min and max lengths */
      561     8165        %VD_BUFFER (NAME=VD_$DEFAULT_SOURCE, STCLASS="STATIC SYMDEF",
      562     8166            MXNB=%MXNB_DFLT_BLKEXPR, IBYTES=%DFLT_$DEFAULT_SOURCE);
      563     8226        %VD_NAC (NAME=A_$DEFAULT_SOURCE, STCLASS=CONSTANT,
      564     8227            READ=%FALSE, WRITE=%TRUE);
      565     8245
      566     8246
PL6.E3A0      #001=VDG$WINIT File=VDG$WORKSPACE.:VDA5TSI                         FRI 07/04/97 11:25 Page:74
      567     8247        %VD_TEXTC_REMOTE (NAME=K_$DIRECTION, STCLASS=CONSTANT,
      568     8248            IBYTES='$DIRECTION');
      569     8311        %VD_NAME_SPEC (NAME=S_$DIRECTION, STCLASS=CONSTANT,
      570     8312            ITYPE=%NDT_EQUALS, IWRITER=%WRTR_$DIRECTION,
      571     8313            IM=1, IN="%MAX(DIR_FORWARD, DIR_BACKWARD)");
      572     8364        %VD_NUMBER (NAME=VD_$DIRECTION, STCLASS="STATIC SYMDEF",
      573     8365            ICLASS=%CLS_DIRECTION, IV=%DIR_FORWARD);
      574     8412        %VD_NAC (NAME=A_$DIRECTION, STCLASS=CONSTANT,
      575     8413            READ=%TRUE, WRITE=%TRUE);
      576     8431
      577     8432
      578     8433        %VD_TEXTC_REMOTE (NAME=K_$EOF_MARK, STCLASS=CONSTANT,
      579     8434            IBYTES='$END_MARK');
      580     8497        %VD_NAME_SPEC (NAME=S_$EOF_MARK, STCLASS=CONSTANT,
      581     8498            ITYPE=%NDT_EQUALS, IWRITER=%WRTR_$EOF_MARK, IWINDOWABLE=%TRUE,
      582     8499            IM=0, IN=%MXNB_$EOF_MARK);   /* Min and Max lengths */
      583     8550        %VD_BUFFER (NAME=VD_$EOF_MARK, STCLASS=STATIC SYMDEF,
      584     8551            MXNB=%MXNB_$EOF_MARK, IBYTES='');
      585     8611        %VD_NAC (NAME=A_$EOF_MARK, STCLASS=CONSTANT,
      586     8612            READ=%TRUE, WRITE=%TRUE);
      587     8630
      588     8631
      589     8632        %VD_TEXTC_REMOTE (NAME=K_$EXIST, STCLASS=CONSTANT,
      590     8633            IBYTES='$EXIST');
      591     8696        %VD_NAME_SPEC (NAME=S_$EXIST, STCLASS=CONSTANT,
      592     8697            ITYPE=%NDT_EQUALS, IWRITER=%WRTR_$EXIST,
      593     8698            IM=1, IN="%MAX(EX_NEW, EX_OLD, EX_ANY)");
      594     8749        %VD_NUMBER (NAME=VD_$EXIST, STCLASS="STATIC SYMDEF",
      595     8750            ICLASS=%CLS_EXIST, IV=%EX_OLD);
      596     8797        %VD_NAC (NAME=A_$EXIST, STCLASS=CONSTANT,
      597     8798            READ=%TRUE, WRITE=%TRUE);
      598     8816
      599     8817
      600     8818        %VD_TEXTC_REMOTE (NAME=K_$EZ_APPEND, STCLASS=CONSTANT,
      601     8819            IBYTES='$EZ_APPEND');
      602     8882        %VD_NAME_SPEC (NAME=S_$EZ_APPEND, STCLASS=CONSTANT,
      603     8883            ITYPE=%NDT_EQUALS, IWRITER=%WRTR_$EZ_APPEND, IWINDOWABLE=%TRUE);
PL6.E3A0      #001=VDG$WINIT File=VDG$WORKSPACE.:VDA5TSI                         FRI 07/04/97 11:25 Page:75
      604     8934        %VD_NUMBER (NAME=VD_$EZ_APPEND, STCLASS=STATIC SYMDEF,
      605     8935            ICLASS=%CLS_BOOLEAN, IV=%DFLT_$EZ_APPEND);
      606     8982        %VD_NAC (NAME=A_$EZ_APPEND, STCLASS=CONSTANT,
      607     8983            READ=%TRUE, WRITE=%TRUE);
      608     9001
      609     9002
      610     9003        %VD_TEXTC_REMOTE (NAME=K_$FILETYPE, STCLASS=CONSTANT,
      611     9004            IBYTES='$FILETYPE');
      612     9067        %VD_NAME_SPEC (NAME=S_$FILETYPE, STCLASS=CONSTANT,
      613     9068            ITYPE=%NDT_EQUALS, IWRITER=%WRTR_$FILETYPE, IREADER=%RDR_$FILETYPE,
      614     9069            IM=0, IN=2);
      615     9120        %VD_BUFFER (NAME=VD_$FILETYPE, STCLASS=STATIC SYMDEF,
      616     9121            MXNB=2, IBYTES=%CHR_DATA_FILE_TYPE);
      617     9181        %VD_NAC (NAME=A_$FILETYPE, STCLASS=CONSTANT,
      618     9182            READ=%TRUE, WRITE=%TRUE);
      619     9200
      620     9201
      621     9202        %VD_TEXTC_REMOTE (NAME=K_$FILEORG, STCLASS=CONSTANT,
      622     9203            IBYTES='$FILEORG');
      623     9266        %VD_NAME_SPEC (NAME=S_$FILEORG, STCLASS=CONSTANT,
      624     9267            ITYPE=%NDT_EQUALS, IREADER=%RDR_$FILEORG);
      625     9318        %VD_NAC (NAME=A_$FILEORG, STCLASS=CONSTANT,
      626     9319            READ=%TRUE, WRITE=%FALSE);
      627     9337
      628     9338
      629     9339        %VD_TEXTC_REMOTE (NAME=K_$FILERECORDS, STCLASS=CONSTANT,
      630     9340            IBYTES='$FILERECORDS');
      631     9403        %VD_NAME_SPEC (NAME=S_$FILERECORDS, STCLASS=CONSTANT,
      632     9404            ITYPE=%NDT_EQUALS, IREADER=%RDR_$FILERECORDS);
      633     9455        %VD_NAC (NAME=A_$FILERECORDS, STCLASS=CONSTANT,
      634     9456            READ=%TRUE, WRITE=%FALSE);
      635     9474
      636     9475
      637     9476        %VD_TEXTC_REMOTE (NAME=K_$HSALL, STCLASS=CONSTANT,
      638     9477            IBYTES='$HSALL');
      639     9540        %VD_NAME_SPEC (NAME=S_$HSALL, STCLASS=CONSTANT,
      640     9541            ITYPE=%NDT_EQUALS, IWRITER=%WRTR_$HSALL, IWINDOWABLE=%TRUE);
PL6.E3A0      #001=VDG$WINIT File=VDG$WORKSPACE.:VDA5TSI                         FRI 07/04/97 11:25 Page:76
      641     9592        %VD_NUMBER (NAME=VD_$HSALL, STCLASS=STATIC SYMDEF,
      642     9593            ICLASS=%CLS_BOOLEAN, IV="%BITBIN(FALSE)");
      643     9640        %VD_NAC (NAME=A_$HSALL, STCLASS=CONSTANT,
      644     9641            READ=%TRUE, WRITE=%TRUE);
      645     9659
      646     9660        %VD_TEXTC_REMOTE (NAME=K_$HSCROLL, STCLASS=CONSTANT,
      647     9661            IBYTES='$HSCROLL');
      648     9724        %VD_NAME_SPEC (NAME=S_$HSCROLL, STCLASS="STATIC SYMDEF",
      649     9725            ITYPE=%NDT_EQUALS, IWRITER=%WRTR_$HSCROLL, IWINDOWABLE=%TRUE,
      650     9726            IM=0, IN=0);    /* Min and max; max filled in by code */
      651     9777        %VD_NUMBER (NAME=VD_$HSCROLL, STCLASS="STATIC SYMDEF",
      652     9778            ICLASS=%CLS_NUMBER, IV=%DFLT_$HSCROLL);
      653     9825        %VD_NAC (NAME=A_$HSCROLL, STCLASS=CONSTANT,
      654     9826            READ=%TRUE, WRITE=%TRUE);
      655     9844
      656     9845
      657     9846        %VD_TEXTC_REMOTE (NAME=K_$HSCROLL_MARGIN, STCLASS=CONSTANT,
      658     9847            IBYTES='$HSCROLL_MARGIN');
      659     9910        %VD_NAME_SPEC (NAME=S_$HSCROLL_MARGIN, STCLASS="STATIC SYMDEF",
      660     9911            ITYPE=%NDT_EQUALS, IWRITER=%WRTR_$HSCROLL_MARGIN, IWINDOWABLE=%TRUE,
      661     9912            IM=0, IN=0);    /* Min and max; max filled in by code */
      662     9963        %VD_NUMBER (NAME=VD_$HSCROLL_MARGIN, STCLASS="STATIC SYMDEF",
      663     9964            ICLASS=%CLS_NUMBER, IV=0);
      664    10011        %VD_NAC (NAME=A_$HSCROLL_MARGIN, STCLASS=CONSTANT,
      665    10012            READ=%TRUE, WRITE=%TRUE);
      666    10030
      667    10031
      668    10032        %VD_TEXTC_REMOTE (NAME=K_$INSERT, STCLASS=CONSTANT,
      669    10033            IBYTES='$INSERT');
      670    10096        %VD_NAME_SPEC (NAME=S_$INSERT, STCLASS=CONSTANT,
      671    10097            ITYPE=%NDT_EQUALS, IWRITER=%WRTR_$INSERT, IWINDOWABLE=%TRUE);
      672    10148        %VD_NUMBER (NAME=VD_$INSERT, STCLASS="STATIC SYMDEF",
      673    10149            ICLASS=%CLS_BOOLEAN, IV="%BITBIN(FALSE)");
      674    10196        %VD_NAC (NAME=A_$INSERT, STCLASS=CONSTANT,
      675    10197            READ=%TRUE, WRITE=%TRUE);
      676    10215
      677    10216
PL6.E3A0      #001=VDG$WINIT File=VDG$WORKSPACE.:VDA5TSI                         FRI 07/04/97 11:25 Page:77
      678    10217        %VD_TEXTC_REMOTE (NAME=K_$INITIALIZE, STCLASS=CONSTANT,
      679    10218            IBYTES='$INITIALIZE');
      680    10281        %VD_NAME_SPEC (NAME=S_$INITIALIZE, STCLASS=CONSTANT,
      681    10282            ITYPE=%NDT_EQUALS, IWRITER=%WRTR_$INITIALIZE, IN=511);
      682    10333        %VD_BUFFER (NAME=VD_$INITIALIZE, STCLASS=STATIC SYMDEF,
      683    10334            MXNB=2, IBYTES='');
      684    10394        %VD_NAC (NAME=A_$INITIALIZE, STCLASS=CONSTANT,
      685    10395            READ=%TRUE, WRITE=%TRUE);
      686    10413
      687    10414
      688    10415        %VD_TEXTC_REMOTE (NAME=K_$INTRO_1, STCLASS=CONSTANT,
      689    10416            IBYTES='$INTRO_1');
      690    10479        %VD_NAME_SPEC (NAME=S_$INTRO_1, STCLASS=CONSTANT,
      691    10480            ITYPE=%NDT_EQUALS, IWRITER=%WRTR_$INTRO_1, IWINDOWABLE=%TRUE,
      692    10481            IM=0, IN=%MXNB_$INTRO);     /* Min and max lengths */
      693    10532        %VD_BUFFER (NAME=VD_$INTRO_1, STCLASS="STATIC SYMDEF",
      694    10533            MXNB=%MXNB_$INTRO, IBYTES=%DFLT_$INTRO_1);
      695    10593        %VD_NAC (NAME=A_$INTRO_1, STCLASS=CONSTANT,
      696    10594            READ=%TRUE, WRITE=%TRUE);
      697    10612
      698    10613
      699    10614        %VD_TEXTC_REMOTE (NAME=K_$INTRO_2, STCLASS=CONSTANT,
      700    10615            IBYTES='$INTRO_2');
      701    10678        %VD_NAME_SPEC (NAME=S_$INTRO_2, STCLASS=CONSTANT,
      702    10679            ITYPE=%NDT_EQUALS, IWRITER=%WRTR_$INTRO_2, IWINDOWABLE=%TRUE,
      703    10680            IM=0, IN=%MXNB_$INTRO);     /* Min and max lengths */
      704    10731        %VD_BUFFER (NAME=VD_$INTRO_2, STCLASS="STATIC SYMDEF",
      705    10732            MXNB=%MXNB_$INTRO, IBYTES="''");
      706    10792        %VD_NAC (NAME=A_$INTRO_2, STCLASS=CONSTANT,
      707    10793            READ=%TRUE, WRITE=%TRUE);
      708    10811
      709    10812
      710    10813        %VD_TEXTC_REMOTE (NAME=K_$KEY_GENERATION, STCLASS=CONSTANT,
      711    10814            IBYTES='$KEY_GENERATION');
      712    10877        %VD_NAME_SPEC (NAME=S_$KEY_GENERATION, STCLASS=CONSTANT,
      713    10878            ITYPE=%NDT_EQUALS, IWRITER=%WRTR_$KEY_GENERATION, IWINDOWABLE=%TRUE,
      714    10879            IM=4, IN=7);                /* Min and max legal values */
PL6.E3A0      #001=VDG$WINIT File=VDG$WORKSPACE.:VDA5TSI                         FRI 07/04/97 11:25 Page:78
      715    10930        %VD_NUMBER (NAME=VD_$KEY_GENERATION, STCLASS="STATIC SYMDEF",
      716    10931            ICLASS=%CLS_KEY_TYPE, IV=%DFLT_$KEY_GENERATION);
      717    10978        %VD_NAC (NAME=A_$KEY_GENERATION, STCLASS=CONSTANT,
      718    10979            READ=%TRUE, WRITE=%TRUE);
      719    10997
      720    10998
      721    10999        %VD_TEXTC_REMOTE (NAME=K_$MATCHES, STCLASS=CONSTANT,
      722    11000            IBYTES='$MATCHES');
      723    11063        %VD_NAME_SPEC (NAME=S_$MATCHES, STCLASS=CONSTANT,
      724    11064            ITYPE=%NDT_EQUALS, IWRITER=%WRTR_$MATCHES,
      725    11065            IM=0, IN=%INFINITY);            /* All positive values OK */
      726    11116        %VD_NUMBER (NAME=VD_$MATCHES, STCLASS="STATIC SYMDEF",
      727    11117            ICLASS=%CLS_NUMBER, IV=0);
      728    11164        %VD_NAC (NAME=A_$MATCHES, STCLASS=CONSTANT,
      729    11165            READ=%TRUE);        /* Don't let users write to $MATCHES */
      730    11183
      731    11184
      732    11185        %VD_TEXTC_REMOTE (NAME=K_$MATCH_LIMIT, STCLASS=CONSTANT,
      733    11186            IBYTES='$MATCH_LIMIT');
      734    11249        %VD_NAME_SPEC (NAME=S_$MATCH_LIMIT, STCLASS=CONSTANT,
      735    11250            ITYPE=%NDT_EQUALS, IWRITER=%WRTR_$MATCH_LIMIT,
      736    11251            IM=0, IN=%INFINITY);        /* Min and max legal values */
      737    11302        %VD_NUMBER (NAME=VD_$MATCH_LIMIT, STCLASS="STATIC SYMDEF",
      738    11303            ICLASS=%CLS_NUMBER, IV=%DFLT_$MATCH_LIMIT);
      739    11350        %VD_NAC (NAME=A_$MATCH_LIMIT, STCLASS=CONSTANT,
      740    11351            READ=%TRUE, WRITE=%TRUE);
      741    11369
      742    11370
      743    11371        %VD_TEXTC_REMOTE (NAME=K_$MAX_COMMAND, STCLASS=CONSTANT,
      744    11372            IBYTES='$MAX_COMMAND');
      745    11435        %VD_NAME_SPEC (NAME=S_$MAX_COMMAND, STCLASS=STATIC,
      746    11436            ITYPE=%NDT_EQUALS, IWRITER=%WRTR_$MAX_COMMAND,
      747    11437            IM=1, IN="%(SCROLL_CENTER#-1)");     /* Min and max legal values */
      748    11488        %VD_NUMBER (NAME=VD_$MAX_COMMAND, STCLASS="STATIC SYMDEF",
      749    11489            ICLASS=%CLS_NUMBER, IV=0);    /* Default value filled in by code */
      750    11536        %VD_NAC (NAME=A_$MAX_COMMAND, STCLASS=CONSTANT,
      751    11537            READ=%TRUE, WRITE=%TRUE);
PL6.E3A0      #001=VDG$WINIT File=VDG$WORKSPACE.:VDA5TSI                         FRI 07/04/97 11:25 Page:79
      752    11555
      753    11556
      754    11557        %VD_TEXTC_REMOTE (NAME=K_$MAX_RECORD, STCLASS=CONSTANT,
      755    11558            IBYTES='$MAX_RECORD');
      756    11621        %VD_NAME_SPEC (NAME=S_$MAX_RECORD, STCLASS=CONSTANT,
      757    11622            ITYPE=%NDT_EQUALS, IWRITER=%WRTR_$MAX_RECORD,
      758    11623            IM=0, IN=%MXNB_DATA);       /* Min and max legal values */
      759    11674        %VD_NUMBER (NAME=VD_$MAX_RECORD, STCLASS="STATIC SYMDEF",
      760    11675            ICLASS=%CLS_NUMBER, IV=%DFLT_$MAX_RECORD);
      761    11722        %VD_NAC (NAME=A_$MAX_RECORD, STCLASS=CONSTANT,
      762    11723            READ=%TRUE, WRITE=%TRUE);
      763    11741
      764    11742
      765    11743        %VD_TEXTC_REMOTE (NAME=K_$MIN_COMMAND, STCLASS=CONSTANT,
      766    11744            IBYTES='$MIN_COMMAND');
      767    11807        %VD_NAME_SPEC (NAME=S_$MIN_COMMAND, STCLASS=STATIC,
      768    11808            ITYPE=%NDT_EQUALS, IWRITER=%WRTR_$MIN_COMMAND,
      769    11809            IM=0, IN="%(SCROLL_CENTER#-1)");     /* Min and max legal values */
      770    11860        %VD_NUMBER (NAME=VD_$MIN_COMMAND, STCLASS="STATIC SYMDEF",
      771    11861            ICLASS=%CLS_NUMBER, IV=%DFLT_$MIN_COMMAND);
      772    11908        %VD_NAC (NAME=A_$MIN_COMMAND, STCLASS=CONSTANT,
      773    11909            READ=%TRUE, WRITE=%TRUE);
      774    11927
      775    11928
      776    11929        %VD_TEXTC_REMOTE (NAME=K_$MIN_RECORD, STCLASS=CONSTANT,
      777    11930            IBYTES='$MIN_RECORD');
      778    11993        %VD_NAME_SPEC (NAME=S_$MIN_RECORD, STCLASS=CONSTANT,
      779    11994            ITYPE=%NDT_EQUALS, IWRITER=%WRTR_$MIN_RECORD,
      780    11995            IM=0, IN=%MXNB_DATA);       /* Min and max legal values */
      781    12046        %VD_NUMBER (NAME=VD_$MIN_RECORD, STCLASS="STATIC SYMDEF",
      782    12047            ICLASS=%CLS_NUMBER, IV=%DFLT_$MIN_RECORD);
      783    12094        %VD_NAC (NAME=A_$MIN_RECORD, STCLASS=CONSTANT,
      784    12095            READ=%TRUE, WRITE=%TRUE);
      785    12113
      786    12114
      787    12115        %VD_TEXTC_REMOTE (NAME=K_$ONESPACEEDIT, STCLASS=CONSTANT,
      788    12116            IBYTES='$ONESPACEEDIT');
PL6.E3A0      #001=VDG$WINIT File=VDG$WORKSPACE.:VDA5TSI                         FRI 07/04/97 11:25 Page:80
      789    12179        %VD_NAME_SPEC (NAME=S_$ONESPACEEDIT, STCLASS=CONSTANT,
      790    12180            ITYPE=%NDT_EQUALS, IWRITER=%WRTR_$ONESPACEEDIT, IWINDOWABLE=%TRUE);
      791    12231        %VD_NUMBER (NAME=VD_$ONESPACEEDIT, STCLASS=STATIC SYMDEF,
      792    12232            ICLASS=%CLS_BOOLEAN, IV="%BITBIN(FALSE)");
      793    12279        %VD_NAC (NAME=A_$ONESPACEEDIT, STCLASS=CONSTANT,
      794    12280            READ=%TRUE, WRITE=%TRUE);
      795    12298
      796    12299
      797    12300        %VD_TEXTC_REMOTE (NAME=K_$PAD, STCLASS=CONSTANT,
      798    12301            IBYTES='$PAD');
      799    12364        %VD_NAME_SPEC (NAME=S_$PAD, STCLASS=CONSTANT,
      800    12365            ITYPE=%NDT_EQUALS, IWRITER=%WRTR_$PAD,
      801    12366            IM=1, IN=%MXNB_$PAD);       /* Min and max lengths */
      802    12417        %VD_BUFFER (NAME=VD_$PAD, STCLASS="STATIC SYMDEF",
      803    12418            MXNB=%MXNB_$PAD, IBYTES=%DFLT_$PAD);
      804    12478        %VD_NAC (NAME=A_$PAD, STCLASS=CONSTANT,
      805    12479            READ=%TRUE, WRITE=%TRUE);
      806    12497
      807    12498
      808    12499        %VD_TEXTC_REMOTE (NAME=K_$PATTERN, STCLASS=CONSTANT,
      809    12500            IBYTES='$PATTERN');
      810    12563        %VD_NAME_SPEC (NAME=S_$PATTERN, STCLASS=CONSTANT);
      811    12614        /*N*    ITYPE=%NDT_FUNCTION, IWRITER=%WRTR_$PATTERN); */
      812    12615        %VD_POINTER (NAME=VD_$PATTERN, STCLASS="STATIC SYMDEF",
      813    12616            ICLASS=%CLS_PTR_INTREE, IV=NIL);
      814    12663        %VD_NAC (NAME=A_$PATTERN, STCLASS=CONSTANT,
      815    12664            READ=%FALSE, WRITE=%FALSE, DELETE=%FALSE);  /* No user access in A00 */
      816    12682
      817    12683
      818    12684        %VD_TEXTC_REMOTE (NAME=K_$POINT, STCLASS=CONSTANT,
      819    12685            IBYTES='$POINT');
      820    12748        %VD_NAME_SPEC (NAME=S_$POINT, STCLASS=CONSTANT,
      821    12749            ITYPE=%NDT_EQUALS, IWRITER=%WRTR_$POINT,
      822    12750            IM=1, IN="%MAX(PNT_BO, PNT_EO, PNT_AO)");
      823    12801        %VD_NUMBER (NAME=VD_$POINT, STCLASS="STATIC SYMDEF",
      824    12802            ICLASS=%CLS_POINT, IV=%PNT_AO);
      825    12849        %VD_NAC (NAME=A_$POINT, STCLASS=CONSTANT,
PL6.E3A0      #001=VDG$WINIT File=VDG$WORKSPACE.:VDA5TSI                         FRI 07/04/97 11:25 Page:81
      826    12850            READ=%TRUE, WRITE=%TRUE);
      827    12868
      828    12869
      829    12870        %VD_TEXTC_REMOTE (NAME=K_$PROTECT, STCLASS=CONSTANT,
      830    12871            IBYTES='$PROTECT');
      831    12934        %VD_NAME_SPEC (NAME=S_$PROTECT, STCLASS=CONSTANT,
      832    12935            ITYPE=%NDT_EQUALS, IWRITER=%WRTR_$PROTECT,
      833    12936            IM=1, IN="%MAX(PROTECT, DONT_PROTECT)");
      834    12987        %VD_NUMBER (NAME=VD_$PROTECT, STCLASS="STATIC SYMDEF",
      835    12988            ICLASS=%CLS_PROTECT, IV=%DONT_PROTECT);
      836    13035        %VD_NAC (NAME=A_$PROTECT, STCLASS=CONSTANT,
      837    13036            READ=%TRUE, WRITE=%TRUE);
      838    13054
      839    13055
      840    13056        %VD_TEXTC_REMOTE (NAME=K_$RECORDS_DELETED, STCLASS=CONSTANT,
      841    13057            IBYTES='$RECORDS_DELETED');
      842    13120        %VD_NAME_SPEC (NAME=S_$RECORDS_DELETED, STCLASS=CONSTANT,
      843    13121            ITYPE=%NDT_EQUALS, IWRITER=%WRTR_$RECORDS_DELETED,
      844    13122            IM=0, IN=%INFINITY);            /* All positive values OK */
      845    13173        %VD_NUMBER (NAME=VD_$RECORDS_DELETED, STCLASS="STATIC SYMDEF",
      846    13174            ICLASS=%CLS_NUMBER, IV=0);
      847    13221        %VD_NAC (NAME=A_$RECORDS_DELETED, STCLASS=CONSTANT,
      848    13222            READ=%TRUE);        /* Don't let users write to $RECORDS_DELETED */
      849    13240
      850    13241
      851    13242        %VD_TEXTC_REMOTE (NAME=K_$RECORDS_INSERTED, STCLASS=CONSTANT,
      852    13243            IBYTES='$RECORDS_INSERTED');
      853    13306        %VD_NAME_SPEC (NAME=S_$RECORDS_INSERTED, STCLASS=CONSTANT,
      854    13307            ITYPE=%NDT_EQUALS, IWRITER=%WRTR_$RECORDS_INSERTED,
      855    13308            IM=0, IN=%INFINITY);            /* All positive values OK */
      856    13359        %VD_NUMBER (NAME=VD_$RECORDS_INSERTED, STCLASS="STATIC SYMDEF",
      857    13360            ICLASS=%CLS_NUMBER, IV=0);
      858    13407        %VD_NAC (NAME=A_$RECORDS_INSERTED, STCLASS=CONSTANT,
      859    13408            READ=%TRUE);        /* Don't let users write to $RECORDS_INSERTED */
      860    13426
      861    13427
      862    13428        %VD_TEXTC_REMOTE (NAME=K_$RECORDWRAP, STCLASS=CONSTANT,
PL6.E3A0      #001=VDG$WINIT File=VDG$WORKSPACE.:VDA5TSI                         FRI 07/04/97 11:25 Page:82
      863    13429            IBYTES='$RECORDWRAP');
      864    13492        %VD_NAME_SPEC (NAME=S_$RECORDWRAP, STCLASS=CONSTANT,
      865    13493            ITYPE=%NDT_EQUALS, IWRITER=%WRTR_$RECORDWRAP, IWINDOWABLE=%TRUE);
      866    13544        %VD_NUMBER (NAME=VD_$RECORDWRAP, STCLASS="STATIC SYMDEF",
      867    13545            ICLASS=%CLS_BOOLEAN, IV="%BITBIN(FALSE)");
      868    13592        %VD_NAC (NAME=A_$RECORDWRAP, STCLASS=CONSTANT,
      869    13593            READ=%TRUE, WRITE=%TRUE);
      870    13611
      871    13612
      872    13613        %VD_TEXTC_REMOTE (NAME=K_$REKEY, STCLASS=CONSTANT,
      873    13614            IBYTES='$REKEY');
      874    13677        %VD_NAME_SPEC (NAME=S_$REKEY, STCLASS=CONSTANT,
      875    13678            ITYPE=%NDT_EQUALS, IWRITER=%WRTR_$REKEY,
      876    13679            IM=0, IN=1000);     /* Min and max legal values */
      877    13730        %VD_NUMBER (NAME=VD_$REKEY, STCLASS="STATIC SYMDEF",
      878    13731            ICLASS=%CLS_NUMBER, IV=%DFLT_$REKEY);
      879    13778        %VD_NAC (NAME=A_$REKEY, STCLASS=CONSTANT,
      880    13779            READ=%TRUE, WRITE=%TRUE);
      881    13797
      882    13798
      883    13799        %VD_TEXTC_REMOTE (NAME=K_$RESTORE, STCLASS=CONSTANT,
      884    13800            IBYTES='$RESTORE');
      885    13863        %VD_NAME_SPEC (NAME=S_$RESTORE, STCLASS=CONSTANT,
      886    13864            ITYPE=%NDT_EQUALS, IWRITER=%WRTR_$RESTORE,
      887    13865            IM=0, IN=%MXNB_$RESTORE);   /* Min and max lengths */
      888    13916        %VD_BUFFER (NAME=VD_$RESTORE, STCLASS="STATIC SYMDEF",
      889    13917            MXNB=%MXNB_$RESTORE, IBYTES="''");
      890    13977        %VD_NAC (NAME=A_$RESTORE, STCLASS=CONSTANT,
      891    13978            READ=%TRUE, WRITE=%TRUE);
      892    13996
      893    13997
      894    13998        %VD_TEXTC_REMOTE (NAME=K_$SCREEN, STCLASS=CONSTANT,
      895    13999            IBYTES='$SCREEN');
      896    14062        %VD_NAME_SPEC (NAME=S_$SCREEN, STCLASS="STATIC SYMDEF",
      897    14063            ITYPE=%NDT_EQUALS, IWRITER=%WRTR_$SCREEN,
      898    14064            IM=0, IN=0);    /* Min and max legal values; max filled in by code */
      899    14115        %VD_NUMBER (NAME=VD_$SCREEN, STCLASS="STATIC SYMDEF",
PL6.E3A0      #001=VDG$WINIT File=VDG$WORKSPACE.:VDA5TSI                         FRI 07/04/97 11:25 Page:83
      900    14116            ICLASS=%CLS_NUMBER, IV=0);    /* Default value filled in by code */
      901    14163        %VD_NAC (NAME=A_$SCREEN, STCLASS=CONSTANT,
      902    14164            READ=%TRUE, WRITE=%TRUE);
      903    14182
      904    14183        %VD_TEXTC_REMOTE (NAME=K_$SCROLL, STCLASS=CONSTANT,
      905    14184            IBYTES='$SCROLL');
      906    14247        %VD_NAME_SPEC (NAME=S_$SCROLL, STCLASS=CONSTANT,
      907    14248            ITYPE=%NDT_EQUALS, IWRITER=%WRTR_$SCROLL, IWINDOWABLE=%TRUE);
      908    14299        %VD_NUMBER (NAME=VD_$SCROLL, STCLASS="STATIC SYMDEF",
      909    14300            ICLASS=%CLS_BOOLEAN, IV="%BITBIN(TRUE)");
      910    14347        %VD_NAC (NAME=A_$SCROLL, STCLASS=CONSTANT,
      911    14348            READ=%TRUE, WRITE=%TRUE);
      912    14366
      913    14367        %VD_TEXTC_REMOTE (NAME=K_$SEARCH, STCLASS=CONSTANT,
      914    14368            IBYTES='$SEARCH');
      915    14431        %VD_NAME_SPEC (NAME=S_$SEARCH, STCLASS=CONSTANT,
      916    14432            ITYPE=%NDT_EQUALS, IWRITER=%WRTR_$SEARCH);
      917    14483        %VD_NUMBER (NAME=VD_$SEARCH, STCLASS="STATIC SYMDEF",
      918    14484            ICLASS=%CLS_BOOLEAN, IV="%BITBIN(FALSE)");
      919    14531        %VD_NAC (NAME=A_$SEARCH, STCLASS=CONSTANT,
      920    14532            READ=%FALSE, WRITE=%TRUE);
      921    14550
      922    14551
      923    14552        %VD_TEXTC_REMOTE (NAME=K_$SITES, STCLASS=CONSTANT,
      924    14553            IBYTES='$SITES');
      925    14616        %VD_NAME_SPEC (NAME=S_$SITES, STCLASS=CONSTANT,
      926    14617            ITYPE=%NDT_EQUALS, IWRITER=%WRTR_$SITES,
      927    14618            IM=0, IN=%INFINITY);            /* All positive values OK */
      928    14669        %VD_NUMBER (NAME=VD_$SITES, STCLASS="STATIC SYMDEF",
      929    14670            ICLASS=%CLS_NUMBER, IV=0);
      930    14717        %VD_NAC (NAME=A_$SITES, STCLASS=CONSTANT,
      931    14718            READ=%TRUE);        /* Don't let users write to $SITES */
      932    14736
      933    14737
      934    14738        %VD_TEXTC_REMOTE (NAME=K_$SKIP, STCLASS=CONSTANT,
      935    14739            IBYTES='$SKIP');
      936    14802        %VD_NAME_SPEC (NAME=S_$SKIP, STCLASS=CONSTANT,
PL6.E3A0      #001=VDG$WINIT File=VDG$WORKSPACE.:VDA5TSI                         FRI 07/04/97 11:25 Page:84
      937    14803            ITYPE=%NDT_EQUALS, IWRITER=%WRTR_$SKIP,
      938    14804            IM=%MN_SKIP_COUNT, IN=%MX_SKIP_COUNT);
      939    14855        %VD_NUMBER (NAME=VD_$SKIP, STCLASS="STATIC SYMDEF",
      940    14856            ICLASS=%CLS_NUMBER, IV=0);
      941    14903        %VD_NAC (NAME=A_$SKIP, STCLASS=CONSTANT,
      942    14904            READ=%TRUE, WRITE=%TRUE);
      943    14922
      944    14923
      945    14924        %VD_TEXTC_REMOTE (NAME=K_$STRIP_BLANKS, STCLASS=CONSTANT,
      946    14925            IBYTES='$STRIP_BLANKS');
      947    14988        %VD_NAME_SPEC (NAME=S_$STRIP_BLANKS, STCLASS=CONSTANT,
      948    14989            ITYPE=%NDT_EQUALS, IWRITER=%WRTR_$STRIP_BLANKS);
      949    15040        %VD_NUMBER (NAME=VD_$STRIP_BLANKS, STCLASS="STATIC SYMDEF",
      950    15041            ICLASS=%CLS_BOOLEAN, IV="%BITBIN(TRUE)");
      951    15088        %VD_NAC (NAME=A_$STRIP_BLANKS, STCLASS=CONSTANT,
      952    15089            READ=%TRUE, WRITE=%TRUE);
      953    15107
      954    15108
      955    15109        %VD_TEXTC_REMOTE (NAME=K_$STRUCTURE, STCLASS=CONSTANT,
      956    15110            IBYTES='$STRUCTURE');
      957    15173        %VD_NAME_SPEC (NAME=S_$STRUCTURE, STCLASS=CONSTANT,
      958    15174            ITYPE=%NDT_EQUALS, IWRITER=%WRTR_$STRUCTURE);
      959    15225        %VD_POINTER (NAME=VD_$STRUCTURE, STCLASS="STATIC SYMDEF",
      960    15226            ICLASS=%CLS_PTR_FILE_NODE, IV=NIL); /* Default filled in by code */
      961    15273        %VD_NAC (NAME=A_$STRUCTURE, STCLASS=CONSTANT,
      962    15274            READ=%FALSE, WRITE=%TRUE);
      963    15292
      964    15293
      965    15294        %VD_TEXTC_REMOTE (NAME=K_$TEXTEDIT, STCLASS=CONSTANT,
      966    15295            IBYTES='$TEXTEDIT');
      967    15358        %VD_NAME_SPEC (NAME=S_$TEXTEDIT, STCLASS=CONSTANT,
      968    15359            ITYPE=%NDT_EQUALS, IWRITER=%WRTR_$TEXTEDIT, IWINDOWABLE=%TRUE);
      969    15410        %VD_NUMBER (NAME=VD_$TEXTEDIT, STCLASS=STATIC SYMDEF,
      970    15411            ICLASS=%CLS_BOOLEAN, IV="%BITBIN(FALSE)");
      971    15458        %VD_NAC (NAME=A_$TEXTEDIT, STCLASS=CONSTANT,
      972    15459            READ=%TRUE, WRITE=%TRUE);
      973    15477
PL6.E3A0      #001=VDG$WINIT File=VDG$WORKSPACE.:VDA5TSI                         FRI 07/04/97 11:25 Page:85
      974    15478        %VD_TEXTC_REMOTE (NAME=K_$VSCROLL, STCLASS=CONSTANT,
      975    15479            IBYTES='$VSCROLL');
      976    15542        %VD_NAME_SPEC (NAME=S_$VSCROLL, STCLASS="STATIC SYMDEF",
      977    15543            ITYPE=%NDT_EQUALS, IWRITER=%WRTR_$VSCROLL, IWINDOWABLE=%TRUE,
      978    15544            IM=0, IN="%(SCROLL_CENTER#-1)"); /* Min and max values; 0=center */
      979    15595        %VD_NUMBER (NAME=VD_$VSCROLL, STCLASS="STATIC SYMDEF",
      980    15596            ICLASS=%CLS_NUMBER, IV=%DFLT_$VSCROLL);
      981    15643        %VD_NAC (NAME=A_$VSCROLL, STCLASS=CONSTANT,
      982    15644            READ=%TRUE, WRITE=%TRUE);
      983    15662
      984    15663
      985    15664        %VD_TEXTC_REMOTE (NAME=K_$VSCROLL_MARGIN, STCLASS=CONSTANT,
      986    15665            IBYTES='$VSCROLL_MARGIN');
      987    15728        %VD_NAME_SPEC (NAME=S_$VSCROLL_MARGIN, STCLASS="STATIC SYMDEF",
      988    15729            ITYPE=%NDT_EQUALS, IWRITER=%WRTR_$VSCROLL_MARGIN, IWINDOWABLE=%TRUE,
      989    15730            IM=0, IN="%(SCROLL_CENTER#-1)");     /* Min and max legal values */
      990    15781        %VD_NUMBER (NAME=VD_$VSCROLL_MARGIN, STCLASS="STATIC SYMDEF",
      991    15782            ICLASS=%CLS_NUMBER, IV=0);    /* Default value filled in by code */
      992    15829        %VD_NAC (NAME=A_$VSCROLL_MARGIN, STCLASS=CONSTANT,
      993    15830            READ=%TRUE, WRITE=%TRUE);
      994    15848
      995    15849
      996    15850        %VD_TEXTC_REMOTE (NAME=K_$WI_BORDER, STCLASS=CONSTANT,
      997    15851            IBYTES='$WI_BORDER');
      998    15914        %VD_NAME_SPEC (NAME=S_$WI_BORDER, STCLASS=CONSTANT,
      999    15915            ITYPE=%NDT_EQUALS, IWRITER=%WRTR_$WI_BORDER,
     1000    15916            IM=0, IN=1);            /* Min and max lengths */
     1001    15967        %VD_BUFFER (NAME=VD_$WI_BORDER, STCLASS="STATIC SYMDEF",
     1002    15968            MXNB=1, IBYTES=%DFLT_$WI_BORDER);
     1003    16028        %VD_NAC (NAME=A_$WI_BORDER, STCLASS=CONSTANT,
     1004    16029            READ=%TRUE, WRITE=%TRUE);
     1005    16047
     1006    16048
     1007    16049        %VD_TEXTC_REMOTE (NAME=K_$WI_PERCENT, STCLASS=CONSTANT,
     1008    16050            IBYTES='$WI_PERCENT');
     1009    16113        %VD_NAME_SPEC (NAME=S_$WI_PERCENT, STCLASS=CONSTANT,
     1010    16114            ITYPE=%NDT_EQUALS, IWRITER=%WRTR_$WI_PERCENT,
PL6.E3A0      #001=VDG$WINIT File=VDG$WORKSPACE.:VDA5TSI                         FRI 07/04/97 11:25 Page:86
     1011    16115            IM=1, IN=99);       /* Min and max legal values */
     1012    16166        %VD_NUMBER (NAME=VD_$WI_PERCENT, STCLASS="STATIC SYMDEF",
     1013    16167            ICLASS=%CLS_NUMBER, IV=%DFLT_$WI_PERCENT);
     1014    16214        %VD_NAC (NAME=A_$WI_PERCENT, STCLASS=CONSTANT,
     1015    16215            READ=%TRUE, WRITE=%TRUE);
     1016    16233
     1017    16234
     1018    16235        %VD_TEXTC_REMOTE (NAME=K_$WORDWRAP, STCLASS=CONSTANT,
     1019    16236            IBYTES='$WORDWRAP');
     1020    16299        %VD_NAME_SPEC (NAME=S_$WORDWRAP, STCLASS=CONSTANT,
     1021    16300            ITYPE=%NDT_EQUALS, IWRITER=%WRTR_$WORDWRAP, IWINDOWABLE=%TRUE,
     1022    16301            IM=0, IN=%MX_TERMINAL_POSITION); /* Mn/mx legal values (<12=off) */
     1023    16352        %VD_NUMBER (NAME=VD_$WORDWRAP, STCLASS="STATIC SYMDEF",
     1024    16353            ICLASS=%CLS_NUMBER, IV=0);
     1025    16400        %VD_NAC (NAME=A_$WORDWRAP, STCLASS=CONSTANT,
     1026    16401            READ=%TRUE, WRITE=%TRUE);
     1027    16419
     1028    16420
     1029    16421        %VD_TEXTC_REMOTE (NAME=K_$WS_STORAGE, STCLASS=CONSTANT,
     1030    16422            IBYTES='$WS_STORAGE');
     1031    16485        %VD_NAME_SPEC (NAME=S_$WS_STORAGE, STCLASS=CONSTANT,
     1032    16486            ITYPE=%NDT_EQUALS, IWRITER=%WRTR_$WS_STORAGE,
     1033    16487            IM=0, IN=1);            /* Min and max lengths */
     1034    16538        %VD_BUFFER (NAME=VD_$WS_STORAGE, STCLASS="STATIC SYMDEF",
     1035    16539            ICLASS=%CLS_FILE_STCLASS,
     1036    16540            MXNB=1, IBYTES=%DFLT_$WS_STORAGE);
     1037    16600        %VD_NAC (NAME=A_$WS_STORAGE, STCLASS=CONSTANT,
     1038    16601            READ=%FALSE, WRITE=%TRUE);
     1039    16619
     1040    16620
     1041    16621        %VD_TEXTC_REMOTE (NAME=K_ANY, STCLASS=CONSTANT,
     1042    16622            IBYTES='ANY');
     1043    16685        %VD_NAME_SPEC (NAME=S_ANY, STCLASS=CONSTANT,
     1044    16686            ITYPE=%NDT_EQUALS);
     1045    16737        %VD_NUMBER (NAME=D_ANY, STCLASS=CONSTANT,
     1046    16738            ICLASS=%CLS_NUMBER, IV="%EX_ANY");
     1047    16785        %VD_NAC (NAME=A_ANY, STCLASS=CONSTANT,
PL6.E3A0      #001=VDG$WINIT File=VDG$WORKSPACE.:VDA5TSI                         FRI 07/04/97 11:25 Page:87
     1048    16786            READ=%TRUE);
     1049    16804
     1050    16805
     1051    16806        %VD_TEXTC_REMOTE (NAME=K_AO, STCLASS=CONSTANT,
     1052    16807            IBYTES='AO');
     1053    16870        %VD_NAME_SPEC (NAME=S_AO, STCLASS=CONSTANT,
     1054    16871            ITYPE=%NDT_EQUALS);
     1055    16922        %VD_NUMBER (NAME=D_AO, STCLASS=CONSTANT,
     1056    16923            ICLASS=%CLS_NUMBER, IV="%PNT_AO");
     1057    16970        %VD_NAC (NAME=A_AO, STCLASS=CONSTANT,
     1058    16971            READ=%TRUE);
     1059    16989
     1060    16990
     1061    16991        %VD_TEXTC_REMOTE (NAME=K_BACKWARD, STCLASS=CONSTANT,
     1062    16992            IBYTES='BACKWARD');
     1063    17055        %VD_NAME_SPEC (NAME=S_BACKWARD, STCLASS=CONSTANT,
     1064    17056            ITYPE=%NDT_EQUALS);
     1065    17107        %VD_NUMBER (NAME=D_BACKWARD, STCLASS=CONSTANT,
     1066    17108            ICLASS=%CLS_NUMBER, IV="%DIR_BACKWARD");
     1067    17155        %VD_NAC (NAME=A_BACKWARD, STCLASS=CONSTANT,
     1068    17156            READ=%TRUE);
     1069    17174
     1070    17175
     1071    17176        %VD_TEXTC_REMOTE (NAME=K_BIN10, STCLASS=CONSTANT,
     1072    17177            IBYTES='BIN10');
     1073    17240        %VD_NAME_SPEC (NAME=S_BIN10, STCLASS=CONSTANT,
     1074    17241            ITYPE=%NDT_EQUALS);
     1075    17292        %VD_NUMBER (NAME=D_BIN10, STCLASS=CONSTANT,
     1076    17293            ICLASS=%CLS_NUMBER, IV="%KEYTYPE_BIN10#");
     1077    17340        %VD_NAC (NAME=A_BIN10, STCLASS=CONSTANT,
     1078    17341            READ=%TRUE);
     1079    17359
     1080    17360
     1081    17361        %VD_TEXTC_REMOTE (NAME=K_BIN521, STCLASS=CONSTANT,
     1082    17362            IBYTES='BIN521');
     1083    17425        %VD_NAME_SPEC (NAME=S_BIN521, STCLASS=CONSTANT,
     1084    17426            ITYPE=%NDT_EQUALS);
PL6.E3A0      #001=VDG$WINIT File=VDG$WORKSPACE.:VDA5TSI                         FRI 07/04/97 11:25 Page:88
     1085    17477        %VD_NUMBER (NAME=D_BIN521, STCLASS=CONSTANT,
     1086    17478            ICLASS=%CLS_NUMBER, IV="%KEYTYPE_BIN521#");
     1087    17525        %VD_NAC (NAME=A_BIN521, STCLASS=CONSTANT,
     1088    17526            READ=%TRUE);
     1089    17544
     1090    17545
     1091    17546        %VD_TEXTC_REMOTE (NAME=K_BINHLF, STCLASS=CONSTANT,
     1092    17547            IBYTES='BINHLF');
     1093    17610        %VD_NAME_SPEC (NAME=S_BINHLF, STCLASS=CONSTANT,
     1094    17611            ITYPE=%NDT_EQUALS);
     1095    17662        %VD_NUMBER (NAME=D_BINHLF, STCLASS=CONSTANT,
     1096    17663            ICLASS=%CLS_NUMBER, IV="%KEYTYPE_BINHLF#");
     1097    17710        %VD_NAC (NAME=A_BINHLF, STCLASS=CONSTANT,
     1098    17711            READ=%TRUE);
     1099    17729
     1100    17730
     1101    17731        %VD_TEXTC_REMOTE (NAME=K_BO, STCLASS=CONSTANT,
     1102    17732            IBYTES='BO');
     1103    17795        %VD_NAME_SPEC (NAME=S_BO, STCLASS=CONSTANT,
     1104    17796            ITYPE=%NDT_EQUALS);
     1105    17847        %VD_NUMBER (NAME=D_BO, STCLASS=CONSTANT,
     1106    17848            ICLASS=%CLS_NUMBER, IV="%PNT_BO");
     1107    17895        %VD_NAC (NAME=A_BO, STCLASS=CONSTANT,
     1108    17896            READ=%TRUE);
     1109    17914
     1110    17915
     1111    17916        %VD_TEXTC_REMOTE (NAME=K_DATA, STCLASS=CONSTANT,
     1112    17917            IBYTES='DATA');
     1113    17980        %VD_NAME_SPEC (NAME=S_DATA, STCLASS=CONSTANT,
     1114    17981            ITYPE=%NDT_EQUALS);
     1115    18032        %VD_NUMBER (NAME=D_DATA, STCLASS=CONSTANT,
     1116    18033            ICLASS=%CLS_NUMBER, IV="%CO_DATA");
     1117    18080        %VD_NAC (NAME=A_DATA, STCLASS=CONSTANT,
     1118    18081            READ=%FALSE);
     1119    18099
     1120    18100
     1121    18101        %VD_TEXTC_REMOTE (NAME=K_DONT_PROTECT, STCLASS=CONSTANT,
PL6.E3A0      #001=VDG$WINIT File=VDG$WORKSPACE.:VDA5TSI                         FRI 07/04/97 11:25 Page:89
     1122    18102            IBYTES='DONT_PROTECT');
     1123    18165        %VD_NAME_SPEC (NAME=S_DONT_PROTECT, STCLASS=CONSTANT,
     1124    18166            ITYPE=%NDT_EQUALS);
     1125    18217        %VD_NUMBER (NAME=D_DONT_PROTECT, STCLASS=CONSTANT,
     1126    18218            ICLASS=%CLS_NUMBER, IV="%DONT_PROTECT");
     1127    18265        %VD_NAC (NAME=A_DONT_PROTECT, STCLASS=CONSTANT,
     1128    18266            READ=%TRUE);
     1129    18284
     1130    18285
     1131    18286        %VD_TEXTC_REMOTE (NAME=K_EO, STCLASS=CONSTANT,
     1132    18287            IBYTES='EO');
     1133    18350        %VD_NAME_SPEC (NAME=S_EO, STCLASS=CONSTANT,
     1134    18351            ITYPE=%NDT_EQUALS);
     1135    18402        %VD_NUMBER (NAME=D_EO, STCLASS=CONSTANT,
     1136    18403            ICLASS=%CLS_NUMBER, IV="%PNT_EO");
     1137    18450        %VD_NAC (NAME=A_EO, STCLASS=CONSTANT,
     1138    18451            READ=%TRUE);
     1139    18469
     1140    18470
     1141    18471        %VD_TEXTC_REMOTE (NAME=K_FORWARD, STCLASS=CONSTANT,
     1142    18472            IBYTES='FORWARD');
     1143    18535        %VD_NAME_SPEC (NAME=S_FORWARD, STCLASS=CONSTANT,
     1144    18536            ITYPE=%NDT_EQUALS);
     1145    18587        %VD_NUMBER (NAME=D_FORWARD, STCLASS=CONSTANT,
     1146    18588            ICLASS=%CLS_NUMBER, IV="%DIR_FORWARD");
     1147    18635        %VD_NAC (NAME=A_FORWARD, STCLASS=CONSTANT,
     1148    18636            READ=%TRUE);
     1149    18654
     1150    18655
     1151    18656        %VD_TEXTC_REMOTE (NAME=K_KEY, STCLASS=CONSTANT,
     1152    18657            IBYTES='KEY');
     1153    18720        %VD_NAME_SPEC (NAME=S_KEY, STCLASS=CONSTANT,
     1154    18721            ITYPE=%NDT_EQUALS);
     1155    18772        %VD_NUMBER (NAME=D_KEY, STCLASS=CONSTANT,
     1156    18773            ICLASS=%CLS_NUMBER, IV="%CO_KEY");
     1157    18820        %VD_NAC (NAME=A_KEY, STCLASS=CONSTANT,
     1158    18821            READ=%FALSE);
PL6.E3A0      #001=VDG$WINIT File=VDG$WORKSPACE.:VDA5TSI                         FRI 07/04/97 11:25 Page:90
     1159    18839
     1160    18840
     1161    18841        %VD_TEXTC_REMOTE (NAME=K_NEW, STCLASS=CONSTANT,
     1162    18842            IBYTES='NEW');
     1163    18905        %VD_NAME_SPEC (NAME=S_NEW, STCLASS=CONSTANT,
     1164    18906            ITYPE=%NDT_EQUALS);
     1165    18957        %VD_NUMBER (NAME=D_NEW, STCLASS=CONSTANT,
     1166    18958            ICLASS=%CLS_NUMBER, IV="%EX_NEW");
     1167    19005        %VD_NAC (NAME=A_NEW, STCLASS=CONSTANT,
     1168    19006            READ=%TRUE);
     1169    19024
     1170    19025
     1171    19026        %VD_TEXTC_REMOTE (NAME=K_OFF, STCLASS=CONSTANT,
     1172    19027            IBYTES='OFF');
     1173    19090        %VD_NAME_SPEC (NAME=S_OFF, STCLASS=CONSTANT,
     1174    19091            ITYPE=%NDT_EQUALS);
     1175    19142        %VD_NUMBER (NAME=D_OFF, STCLASS=CONSTANT,
     1176    19143            ICLASS=%CLS_NUMBER, IV="%BITBIN(FALSE)");
     1177    19190        %VD_NAC (NAME=A_OFF, STCLASS=CONSTANT,
     1178    19191            READ=%TRUE);
     1179    19209
     1180    19210
     1181    19211        %VD_TEXTC_REMOTE (NAME=K_OLD, STCLASS=CONSTANT,
     1182    19212            IBYTES='OLD');
     1183    19275        %VD_NAME_SPEC (NAME=S_OLD, STCLASS=CONSTANT,
     1184    19276            ITYPE=%NDT_EQUALS);
     1185    19327        %VD_NUMBER (NAME=D_OLD, STCLASS=CONSTANT,
     1186    19328            ICLASS=%CLS_NUMBER, IV="%EX_OLD");
     1187    19375        %VD_NAC (NAME=A_OLD, STCLASS=CONSTANT,
     1188    19376            READ=%TRUE);
     1189    19394
     1190    19395
     1191    19396        %VD_TEXTC_REMOTE (NAME=K_ON, STCLASS=CONSTANT,
     1192    19397            IBYTES='ON');
     1193    19460        %VD_NAME_SPEC (NAME=S_ON, STCLASS=CONSTANT,
     1194    19461            ITYPE=%NDT_EQUALS);
     1195    19512        %VD_NUMBER (NAME=D_ON, STCLASS=CONSTANT,
PL6.E3A0      #001=VDG$WINIT File=VDG$WORKSPACE.:VDA5TSI                         FRI 07/04/97 11:25 Page:91
     1196    19513            ICLASS=%CLS_NUMBER, IV="%BITBIN(TRUE)");
     1197    19560        %VD_NAC (NAME=A_ON, STCLASS=CONSTANT,
     1198    19561            READ=%TRUE);
     1199    19579
     1200    19580
     1201    19581        %VD_TEXTC_REMOTE (NAME=K_PROTECT, STCLASS=CONSTANT,
     1202    19582            IBYTES='PROTECT');
     1203    19645        %VD_NAME_SPEC (NAME=S_PROTECT, STCLASS=CONSTANT,
     1204    19646            ITYPE=%NDT_EQUALS);
     1205    19697        %VD_NUMBER (NAME=D_PROTECT, STCLASS=CONSTANT,
     1206    19698            ICLASS=%CLS_NUMBER, IV="%PROTECT");
     1207    19745        %VD_NAC (NAME=A_PROTECT, STCLASS=CONSTANT,
     1208    19746            READ=%TRUE);
     1209    19764
     1210    19765
     1211    19766        %VD_TEXTC_REMOTE (NAME=K_SPEC, STCLASS=CONSTANT,
     1212    19767            IBYTES='SPEC');
     1213    19830        %VD_NAME_SPEC (NAME=S_SPEC, STCLASS=CONSTANT,
     1214    19831            ITYPE=%NDT_EQUALS);
     1215    19882        %VD_NUMBER (NAME=D_SPEC, STCLASS=CONSTANT,
     1216    19883            ICLASS=%CLS_NUMBER, IV="%CO_SPEC");
     1217    19930        %VD_NAC (NAME=A_SPEC, STCLASS=CONSTANT,
     1218    19931            READ=%FALSE);
     1219    19949
     1220    19950
     1221    19951        %VD_TEXTC_REMOTE (NAME=K_STRING, STCLASS=CONSTANT,
     1222    19952            IBYTES='STRING');
     1223    20015        %VD_NAME_SPEC (NAME=S_STRING, STCLASS=CONSTANT,
     1224    20016            ITYPE=%NDT_EQUALS);
     1225    20067        %VD_NUMBER (NAME=D_STRING, STCLASS=CONSTANT,
     1226    20068            ICLASS=%CLS_NUMBER, IV="%KEYTYPE_STRING#");
     1227    20115        %VD_NAC (NAME=A_STRING, STCLASS=CONSTANT,
     1228    20116            READ=%TRUE);
     1229    20134
     1230    20135
     1231    20136        %BOX (TITLE="Locations-file initialization tables and global values", PAGE=YES);
             20144    1
PL6.E3A0      #001=VDG$WINIT File=VDG$WORKSPACE.:VDA5TSI                         FRI 07/04/97 11:25 Page:92
             20148    1   /***************************************************************************
             20150    1    *                                                                         *
             20154    1            *           Locations-file initialization tables and global values       *
             20156    1            *                                                                        *
             20158    1          ***************************************************************************/

     1232    20162
     1233    20163    1   DCL 1 LOCATIONS_INIT (0:19) CONSTANT,
     1234    20164    1         2 KEY$ PTR
     1235    20165    1           INIT(ADDR(K_$ENCLOSING), ADDR(K_$FP), ADDR(K_$LEFTOVER),
     1236    20166    1               ADDR(K_$NOT_COPIED), ADDR(K_$RANGE), ADDR(K_CURR),
     1237    20167    1               ADDR(K_CURRENT), ADDR(K_HERE), ADDR(K_THAT), ADDR(NIL)*0),
     1238    20168    1         2 SPEC$ PTR
     1239    20169    1           INIT(ADDR(S_$ENCLOSING), ADDR(S_$FP), ADDR(S_$LEFTOVER),
     1240    20170    1               ADDR(S_$NOT_COPIED), ADDR(S_$RANGE), ADDR(S_CURR),
     1241    20171    1               ADDR(S_CURRENT), ADDR(S_HERE), ADDR(S_THAT), ADDR(NIL)*0),
     1242    20172    1         2 DATA$ PTR INIT(ADDR(NIL)*0), /* All data refers to other WS values */
     1243    20173    1         2 ACCESS$ PTR
     1244    20174    1           INIT(ADDR(A_$ENCLOSING), ADDR(A_$FP), ADDR(A_$LEFTOVER),
     1245    20175    1               ADDR(A_$NOT_COPIED), ADDR(A_$RANGE), ADDR(A_CURR),
     1246    20176    1               ADDR(A_CURRENT), ADDR(A_HERE), ADDR(A_THAT), ADDR(NIL)*0);
     1247    20177
     1248    20178
     1249    20179
     1250    20180        %VD_TEXTC_REMOTE (NAME=K_$ENCLOSING, STCLASS=CONSTANT,
     1251    20181            IBYTES='$ENCLOSING');
     1252    20244        %VD_NAME_SPEC (NAME=S_$ENCLOSING, STCLASS=CONSTANT,
     1253    20245            ITYPE=%NDT_LOCATION, IREADER=%RDR_$ENCLOSING);
     1254    20296        %VD_NAC (NAME=A_$ENCLOSING, STCLASS=CONSTANT,
     1255    20297            READ=%TRUE);
     1256    20315
     1257    20316
     1258    20317        %VD_TEXTC_REMOTE (NAME=K_$FP, STCLASS=CONSTANT,
     1259    20318            IBYTES='$FP');
     1260    20381        %VD_NAME_SPEC (NAME=S_$FP, STCLASS=CONSTANT,
     1261    20382            ITYPE=%NDT_LOCATION, IREADER=%RDR_$FP);
     1262    20433        %VD_NAC (NAME=A_$FP, STCLASS=CONSTANT,
PL6.E3A0      #001=VDG$WINIT File=VDG$WORKSPACE.:VDA5TSI                         FRI 07/04/97 11:25 Page:93
     1263    20434            READ=%TRUE);
     1264    20452
     1265    20453
     1266    20454        %VD_TEXTC_REMOTE (NAME=K_$LEFTOVER, STCLASS=CONSTANT,
     1267    20455            IBYTES='$LEFTOVER');
     1268    20518        %VD_NAME_SPEC (NAME=S_$LEFTOVER, STCLASS=CONSTANT,
     1269    20519            ITYPE=%NDT_LOCATION);
     1270    20570        %VD_NAC (NAME=A_$LEFTOVER, STCLASS=CONSTANT,
     1271    20571            READ=%TRUE);
     1272    20589
     1273    20590
     1274    20591        %VD_TEXTC_REMOTE (NAME=K_$NOT_COPIED, STCLASS=CONSTANT,
     1275    20592            IBYTES='$NOT_COPIED');
     1276    20655        %VD_NAME_SPEC (NAME=S_$NOT_COPIED, STCLASS=CONSTANT,
     1277    20656            ITYPE=%NDT_LOCATION);
     1278    20707        %VD_NAC (NAME=A_$NOT_COPIED, STCLASS=CONSTANT,
     1279    20708            READ=%TRUE);
     1280    20726
     1281    20727
     1282    20728        %VD_TEXTC_REMOTE (NAME=K_$RANGE, STCLASS=CONSTANT,
     1283    20729            IBYTES='$RANGE');
     1284    20792        %VD_NAME_SPEC (NAME=S_$RANGE, STCLASS=CONSTANT,
     1285    20793            ITYPE=%NDT_LOCATION, IREADER=%RDR_$RANGE);
     1286    20844        %VD_NAC (NAME=A_$RANGE, STCLASS=CONSTANT,
     1287    20845            READ=%TRUE);
     1288    20863
     1289    20864
     1290    20865
     1291    20866        %VD_TEXTC_REMOTE (NAME=K_CURR, STCLASS=CONSTANT,
     1292    20867            IBYTES='CURR');
     1293    20930        %VD_NAME_SPEC (NAME=S_CURR, STCLASS=CONSTANT,
     1294    20931            ITYPE=%NDT_LOCATION, IREADER=%RDR_CURRENT);
     1295    20982        %VD_NAC (NAME=A_CURR, STCLASS=CONSTANT,
     1296    20983            READ=%TRUE);
     1297    21001
     1298    21002
     1299    21003        %VD_TEXTC_REMOTE (NAME=K_CURRENT, STCLASS=CONSTANT,
PL6.E3A0      #001=VDG$WINIT File=VDG$WORKSPACE.:VDA5TSI                         FRI 07/04/97 11:25 Page:94
     1300    21004            IBYTES='CURRENT');
     1301    21067        %VD_NAME_SPEC (NAME=S_CURRENT, STCLASS=CONSTANT,
     1302    21068            ITYPE=%NDT_LOCATION, IREADER=%RDR_CURRENT);
     1303    21119        %VD_NAC (NAME=A_CURRENT, STCLASS=CONSTANT,
     1304    21120            READ=%TRUE);
     1305    21138
     1306    21139
     1307    21140        %VD_TEXTC_REMOTE (NAME=K_HERE, STCLASS=CONSTANT,
     1308    21141            IBYTES='HERE');
     1309    21204        %VD_NAME_SPEC (NAME=S_HERE, STCLASS=CONSTANT,
     1310    21205            ITYPE=%NDT_LOCATION, IREADER=%RDR_HERE);
     1311    21256        %VD_NAC (NAME=A_HERE, STCLASS=CONSTANT,
     1312    21257            READ=%TRUE);
     1313    21275
     1314    21276
     1315    21277        %VD_TEXTC_REMOTE (NAME=K_THAT, STCLASS=CONSTANT,
     1316    21278            IBYTES='THAT');
     1317    21341        %VD_NAME_SPEC (NAME=S_THAT, STCLASS=CONSTANT,
     1318    21342            ITYPE=%NDT_LOCATION, IREADER=%RDR_THAT);
     1319    21393        %VD_NAC (NAME=A_THAT, STCLASS=CONSTANT,
     1320    21394            READ=%TRUE);
     1321    21412
     1322    21413
     1323    21414        %BOX (TITLE="Local data", PAGE=YES);
             21422    1
             21426    1   /***************************************************************************
             21428    1    *                                                                         *
             21432    1            *                                 Local data                             *
             21434    1            *                                                                        *
             21436    1          ***************************************************************************/

     1324    21440
     1325    21441        /*
     1326    21442        *   File-level (level-0) keys for predefined files to which we VDA$LWRITE.
     1327    21443        */
     1328    21444        %EQU INT_PREFIX=CONCAT(FSTCL_INTERNAL, PFK_CONSTANT);
     1329    21445
PL6.E3A0      #001=VDG$WINIT File=VDG$WORKSPACE.:VDA5TSI                         FRI 07/04/97 11:25 Page:95
     1330    21446        %EQU NE=CONCAT(INT_PREFIX, DK_NAMES, CHR_UNDERSCORE, PFN_NAMES_EQUALS);
     1331    21447        %VD_KEY (NAME=EQUALS_L0_KEY, STCLASS=CONSTANT,
     1332    21448            ITYPE=%KT_STRING, IREP=%REP_REMOTE, IBYTES=VD_FKEY_NAMES_EQUALS);
     1333    21484        %VD_FILE_KEY (NAME=VD_FKEY_NAMES_EQUALS, STCLASS=CONSTANT SYMDEF, IFNAME=%NE);
     1334    21536
     1335    21537        %EQU NL=CONCAT(INT_PREFIX, DK_NAMES, CHR_UNDERSCORE, PFN_NAMES_LOCATIONS);
     1336    21538        %VD_KEY (NAME=LOCATIONS_L0_KEY, STCLASS=CONSTANT,
     1337    21539            ITYPE=%KT_STRING, IREP=%REP_REMOTE, IBYTES=LOCATIONS_FILE_KEY);
     1338    21575        %VD_FILE_KEY (NAME=LOCATIONS_FILE_KEY, STCLASS=CONSTANT, IFNAME=%NL);
     1339    21627
     1340    21628        %EQU NS=CONCAT(INT_PREFIX, DK_NAMES, CHR_UNDERSCORE, PFN_NAMES_SYNONYMS);
     1341    21629        %VD_KEY (NAME=SYNONYMS_L0_KEY, STCLASS=CONSTANT,
     1342    21630            ITYPE=%KT_STRING, IREP=%REP_REMOTE, IBYTES=SYNONYMS_FILE_KEY);
     1343    21666        %VD_FILE_KEY (NAME=SYNONYMS_FILE_KEY, STCLASS=CONSTANT, IFNAME=%NS);
     1344    21718
     1345    21719        %EQU NT=CONCAT(INT_PREFIX, DK_NAMES, CHR_UNDERSCORE, PFN_NAMES_KEYINS);
     1346    21720        %VD_KEY (NAME=KEYINS_L0_KEY, STCLASS=CONSTANT,
     1347    21721            ITYPE=%KT_STRING, IREP=%REP_REMOTE, IBYTES=KEYINS_FILE_KEY);
     1348    21757        %VD_FILE_KEY (NAME=KEYINS_FILE_KEY, STCLASS=CONSTANT, IFNAME=%NT);
     1349    21809
     1350    21810        %VD_KEY (NAME=WINDOWS_L0_KEY, STCLASS=CONSTANT,
     1351    21811            ITYPE=%KT_STRING, IREP=%REP_REMOTE, IBYTES=WINDOWS_FILE_KEY);
     1352    21847        %VD_FILE_KEY (NAME=WINDOWS_FILE_KEY, STCLASS=CONSTANT,
     1353    21848            IFNAME="%CONCAT(INT_PREFIX, DK_WINDOWS)");
     1354    21900
     1355    21901
     1356    21902
     1357    21903    1   DCL STRUCTURES_L0_NODE$ PTR;
     1358    21904    1   DCL FILE_KEY$ PTR;
     1359    21905    1   DCL STRUCTURE_L1_EXTERNAL$ PTR;
     1360    21906    1   DCL STRUCTURE_L1_NAMES$ PTR;
     1361    21907    1   DCL STRUCTURE_L1_SCRATCH$ PTR;
     1362    21908    1   DCL STRUCTURE_L1_STRUCTURES$ PTR;
     1363    21909    1   DCL STRUCTURE_L1_WINDOWS$ PTR;
     1364    21910    1   DCL DIR_NODE$ PTR;
     1365    21911    1   DCL PORT$ PTR;
     1366    21912    1   DCL STRUCTURES_L2_NODE$ PTR;
PL6.E3A0      #001=VDG$WINIT File=VDG$WORKSPACE.:VDA5TSI                         FRI 07/04/97 11:25 Page:96
     1367    21913    1   DCL STRUCTURE_LEVEL$ PTR;
     1368    21914    1   DCL LVL SBIN;
     1369    21915        %VD$ACCESS_OPTIONS (NAME=OPTIONS, STCLASS=AUTO);
     1370    21944    1   DCL ALTRETURN_WHEN_DONE BIT(1) ALIGNED;
     1371    21945
     1372    21946
     1373    21947        %VD$STREAM (NAME=STRUCTURES$STREAM, STCLASS="BASED(VD_6E.STRUCTURES$)");
     1374    22053        %VD$FILE_NODE (NAME=STRUCTURES$L0_NODE, STCLASS="BASED(STRUCTURES_L0_NODE$)");
     1375    22146        %VD$FILE_KEY (NAME=FILE$KEY, STCLASS="BASED(FILE_KEY$)");
     1376    22195        %VD$PORT (NAME=PORT, STCLASS="BASED(PORT$)");
     1377    22293        %VD$FILE_NODE (NAME=STRUCTURE$L1_STRUCTURES,
     1378    22294            STCLASS="BASED(STRUCTURE_L1_STRUCTURES$)");
     1379    22387        %VD$FILE_NODE (NAME=STRUCTURES$L2_NODE, STCLASS="BASED(STRUCTURES_L2_NODE$)");
     1380    22480        %VD$STRUCTURE_LEVEL (NAME=STRUCTURE$LEVEL, STCLASS="BASED(STRUCTURE_LEVEL$)");
     1381    22527        %VD$DIR_NODE (NAME=DIR$NODE, STCLASS="BASED(DIR_NODE$)");
     1382    22565        %VD$STREAM (NAME=EQUALS$STREAM, STCLASS="BASED(VD_6E.EQUALS$)");
     1383    22671        %VD$STREAM (NAME=LOCATIONS$STREAM, STCLASS="BASED(VD_6E.LOCATIONS$)");
     1384    22777        %VD$STREAM (NAME=SYNONYMS$STREAM, STCLASS="BASED(VD_6E.SYNONYMS$)");
     1385    22883        %VD$STREAM (NAME=KEYINS$STREAM, STCLASS="BASED(VD_6E.KEYINS$)");
     1386    22989        %VD$STREAM (NAME=WINDOWS$STREAM, STCLASS="BASED(VD_6E.WINDOWS$)");
     1387    23095        %VD$ERR (NAME=FATAL$ERR, STCLASS="BASED(VD_6E.ERR_HEAD$)");
     1388    23148        %VD$TEXTC_REMOTE;
     1389    23209        %VD$STRING_HEADER;
     1390    23245
     1391    23246
     1392    23247                /*
     1393    23248                *   Set defaults, minimums, and maximums for predefined names
     1394    23249                *       whose values are related to terminal parameters.
     1395    23250                */
     1396    23251
     1397    23252    1           VD_$AUTOTAB.V# = VD_ORIGINAL_TRMCTL.AUTOTABCLM#;

  23252  3 000002   000002 236000 xsym               LDQ     VD_ORIGINAL_TRMCTL+2
         3 000003   000777 376007                    ANQ     511,DL
         3 000004   000027 756000 2                  STQ     VD_$AUTOTAB+3

     1398    23253
PL6.E3A0      #001=VDG$WINIT File=VDG$WORKSPACE.:VDA5TSI                         FRI 07/04/97 11:25 Page:97
     1399    23254    2           IF VD_ORIGINAL_TRMCTL.HSCROLL# THEN DO;

  23254  3 000005   000002 236000 xsym               LDQ     VD_ORIGINAL_TRMCTL+2
         3 000006   300000 316003                    CANQ    98304,DU
         3 000007   000030 600000 3                  TZE     s:23264

     1400    23255    2              IF VD_ORIGINAL_TRMCTL.HSSHIFT# = %SCROLL_CENTER# THEN

  23255  3 000010   000003 236000 xsym               LDQ     VD_ORIGINAL_TRMCTL+3
         3 000011   000777 376003                    ANQ     511,DU
         3 000012   000177 116003                    CMPQ    127,DU
         3 000013   000016 601000 3                  TNZ     s:23258

     1401    23256    2                 VD_$HSCROLL.V# = 0;

  23256  3 000014   000176 450000 2                  STZ     VD_$HSCROLL+3
         3 000015   000025 710000 3                  TRA     s:23262

     1402    23257    3              ELSE DO;

     1403    23258    3                 VD_$HSCROLL.V# = VD_ORIGINAL_TRMCTL.HSSHIFT#;

  23258  3 000016   000003 236000 xsym               LDQ     VD_ORIGINAL_TRMCTL+3
         3 000017   000022 772000                    QRL     18
         3 000020   000777 376007                    ANQ     511,DL
         3 000021   000176 756000 2                  STQ     VD_$HSCROLL+3

     1404    23259    3                 IF VD_$HSCROLL.V# = 0 THEN

  23259  3 000022   000025 601000 3                  TNZ     s:23262

     1405    23260    3                    VD_$HSCROLL.V# = 1;

  23260  3 000023   000001 235007                    LDA     1,DL
         3 000024   000176 755000 2                  STA     VD_$HSCROLL+3

     1406    23261    3                 END;
PL6.E3A0      #001=VDG$WINIT File=VDG$WORKSPACE.:VDA5TSI                         FRI 07/04/97 11:25 Page:98

     1407    23262    2              VD_$HSCROLL_MARGIN.V# = VD_ORIGINAL_TRMCTL.HSMARGIN#;

  23262  3 000025   000003 236000 xsym               LDQ     VD_ORIGINAL_TRMCTL+3
         3 000026   000033 772000                    QRL     27
         3 000027   000211 756000 2                  STQ     VD_$HSCROLL_MARGIN+3

     1408    23263    2              END;

     1409    23264    1           S_$HSCROLL.N# = VD_SCREEN_WIDTH / 2;            /* Max legal value */

  23264  3 000030   000000 236000 xsym               LDQ     VD_SCREEN_WIDTH
         3 000031   000002 506007                    DIV     2,DL
         3 000032   000171 756000 2                  STQ     S_$HSCROLL+5

     1410    23265    1           S_$HSCROLL_MARGIN.N# = VD_SCREEN_WIDTH / 2;     /* Max legal value */

  23265  3 000033   000000 236000 xsym               LDQ     VD_SCREEN_WIDTH
         3 000034   000002 506007                    DIV     2,DL
         3 000035   000204 756000 2                  STQ     S_$HSCROLL_MARGIN+5

     1411    23266
     1412    23267    1           VD_$INSERT.V# = BITBIN(VD_ORIGINAL_TRMCTL.INSERTMODE#)/2;

  23267  3 000036   000002 236000 xsym               LDQ     VD_ORIGINAL_TRMCTL+2
         3 000037   000037 772000                    QRL     31
         3 000040   000003 376007                    ANQ     3,DL
         3 000041   000001 772000                    QRL     1
         3 000042   000215 756000 2                  STQ     VD_$INSERT+3

     1413    23268        /*      VD_$SCROLL.V# = BITBIN(VD_ORIGINAL_TRMCTL.SCROLL#)/2; (in VDP$WINIT */
     1414    23269
     1415    23270
     1416    23271    1           VD_$MAX_COMMAND.V# = MAXIMUM (1, VD_SCREEN_HEIGHT *

  23271  3 000043   000000 236000 xsym               LDQ     VD_SCREEN_HEIGHT
         3 000044   000062 402007                    MPY     50,DL
PL6.E3A0      #001=VDG$WINIT File=VDG$WORKSPACE.:VDA5TSI                         FRI 07/04/97 11:25 Page:99
         3 000045   000144 506007                    DIV     100,DL
         3 000046   000001 116007                    CMPQ    1,DL
         3 000047   000051 605000 3                  TPL     s:23271+6
         3 000050   000001 236007                    LDQ     1,DL
         3 000051   000255 756000 2                  STQ     VD_$MAX_COMMAND+3

     1417    23272    1             %DFLT_$MAX_COMMAND_PCT / 100);
     1418    23273
     1419    23274    1           VD_$SCREEN.V# = VD_SCREEN_HEIGHT-VD_IBEX_WINDOW;

  23274  3 000052   000000 236000 xsym               LDQ     VD_SCREEN_HEIGHT
         3 000053   000000 136000 xsym               SBLQ    VD_IBEX_WINDOW
         3 000054   000443 756000 2                  STQ     VD_$SCREEN+3

     1420    23275    1           VD_EDITING_HEIGHT = VD_$SCREEN.V#-VD_$MIN_COMMAND.V#;

  23275  3 000055   000274 136000 2                  SBLQ    VD_$MIN_COMMAND+3
         3 000056   000000 756000 xsym               STQ     VD_EDITING_HEIGHT

     1421    23276    1           S_$SCREEN.N# = VD_SCREEN_HEIGHT;                /* Max legal value */

  23276  3 000057   000000 235000 xsym               LDA     VD_SCREEN_HEIGHT
         3 000060   000436 755000 2                  STA     S_$SCREEN+5

     1422    23277
     1423    23278    1           S_$VSCROLL.N# = VD_SCREEN_HEIGHT;               /* Max legal value */

  23278  3 000061   000505 755000 2                  STA     S_$VSCROLL+5

     1424    23279
     1425    23280    1           VD_$VSCROLL_MARGIN.V# = VD_SCREEN_HEIGHT *

  23280  3 000062   000000 236000 xsym               LDQ     VD_SCREEN_HEIGHT
         3 000063   000031 402007                    MPY     25,DL
         3 000064   000144 506007                    DIV     100,DL
         3 000065   000525 756000 2                  STQ     VD_$VSCROLL_MARGIN+3

PL6.E3A0      #001=VDG$WINIT File=VDG$WORKSPACE.:VDA5TSI                         FRI 07/04/97 11:25 Page:100
     1426    23281    1             %DFLT_$VSCROLL_MARGIN_PCT / 100;
     1427    23282    1           S_$VSCROLL_MARGIN.N# = VD_SCREEN_HEIGHT / 2;    /* Max legal value */

  23282  3 000066   000000 236000 xsym               LDQ     VD_SCREEN_HEIGHT
         3 000067   000002 506007                    DIV     2,DL
         3 000070   000520 756000 2                  STQ     S_$VSCROLL_MARGIN+5

     1428    23283
     1429    23284    1           VD_$WORDWRAP.V# = VD_ORIGINAL_TRMCTL.WORDWRAPCLM#;

  23284  3 000071   000002 236000 xsym               LDQ     VD_ORIGINAL_TRMCTL+2
         3 000072   000011 772000                    QRL     9
         3 000073   000777 376007                    ANQ     511,DL
         3 000074   000540 756000 2                  STQ     VD_$WORDWRAP+3

     1430    23285
     1431    23286    2           IF VD_SCREEN_HEIGHT < %MN_SCREEN_EDITING_HEIGHT THEN DO;

  23286  3 000075   000000 235000 xsym               LDA     VD_SCREEN_HEIGHT
         3 000076   000003 115007                    CMPA    3,DL
         3 000077   000106 605000 3                  TPL     s:23295

     1432    23287                   /* Non-interactive mode or hardcopy terminal */
     1433    23288    2              VD_$COMMAND.V# = %BITBIN(TRUE);  /* 1st read from command window */

  23288  3 000100   000001 235007                    LDA     1,DL
         3 000101   000045 755000 2                  STA     VD_$COMMAND+3

     1434    23289    2              VD_$MIN_COMMAND.V# = 0;  /* Different default for serial Pres'r */

  23289  3 000102   000274 450000 2                  STZ     VD_$MIN_COMMAND+3

     1435    23290    2              VD_$MAX_COMMAND.V# = 0;  /* Different default for serial Pres'r */

  23290  3 000103   000255 450000 2                  STZ     VD_$MAX_COMMAND+3

     1436    23291    2              S_$MAX_COMMAND.M# = 0;   /* Allow value of 0 for serial Pres'r */
PL6.E3A0      #001=VDG$WINIT File=VDG$WORKSPACE.:VDA5TSI                         FRI 07/04/97 11:25 Page:101

  23291  3 000104   000247 450000 2                  STZ     S_$MAX_COMMAND+4

     1437    23292    2              END;

  23292  3 000105   000107 710000 3                  TRA     s:23303

     1438    23293    2           ELSE DO;

     1439    23294                   /* We're capable of screen editing */
     1440    23295    2              VD_$COMMAND.V# = %BITBIN(FALSE); /* 1st read from editing window */

  23295  3 000106   000045 450000 2                  STZ     VD_$COMMAND+3

     1441    23296    2              END;

     1442    23297
     1443    23298
     1444    23299                /*
     1445    23300                *   Build the Structures file, unconnected to anything yet.
     1446    23301                */
     1447    23302
     1448    23303    1           CALL VDG$OALLOC (%CLS_FILE_NODE, STRUCTURES_L0_NODE$)

  23303  3 000107   200003 630500                    EPPR0   STRUCTURES_L0_NODE$,,AUTO
         3 000110   200051 450500                    STP0    SAVE_ACCESSOR_PRIV+3,,AUTO
         3 000111   000001 236000 4                  LDQ     1
         3 000112   200050 756100                    STQ     SAVE_ACCESSOR_PRIV+2,,AUTO
         3 000113   200050 630500                    EPPR0   SAVE_ACCESSOR_PRIV+2,,AUTO
         3 000114   000020 631400 xsym               EPPR1   B_VECTNIL+16
         3 000115   000000 701000 xent               TSX1    VDG$OALLOC
         3 000116   000701 702000 3                  TSX2    OALLOC_FAILED

     1449    23304    1             ALTRET (OALLOC_FAILED);
     1450    23305
     1451    23306    1           CALL VDG$OALLOC (%CLS_FILE_KEY, FILE_KEY$)

PL6.E3A0      #001=VDG$WINIT File=VDG$WORKSPACE.:VDA5TSI                         FRI 07/04/97 11:25 Page:102
  23306  3 000117   200004 630500                    EPPR0   FILE_KEY$,,AUTO
         3 000120   200051 450500                    STP0    SAVE_ACCESSOR_PRIV+3,,AUTO
         3 000121   000003 236000 4                  LDQ     3
         3 000122   200050 756100                    STQ     SAVE_ACCESSOR_PRIV+2,,AUTO
         3 000123   200050 630500                    EPPR0   SAVE_ACCESSOR_PRIV+2,,AUTO
         3 000124   000020 631400 xsym               EPPR1   B_VECTNIL+16
         3 000125   000000 701000 xent               TSX1    VDG$OALLOC
         3 000126   000701 702000 3                  TSX2    OALLOC_FAILED

     1452    23307    1             ALTRET (OALLOC_FAILED);
     1453    23308    1           FILE$KEY.UNIQUE.ACCT = ' ';

  23308  3 000127   200004 470500                    LDP0    FILE_KEY$,,AUTO
         3 000130   040100 100400                    MLR     fill='040'O
         3 000131   000035 000001 xsym               ADSC9   B_VECTNIL+29             cn=0,n=1
         3 000132   000002 200010                    ADSC9   2,,PR0                   cn=1,n=8

     1454    23309    1           FILE$KEY.UNIQUE.FNAME.LENGTH# =

  23309  3 000133   200004 470500                    LDP0    FILE_KEY$,,AUTO
         3 000134   000021 236003                    LDQ     17,DU
         3 000135   000004 552120                    STBQ    4,'20'O,PR0

     1455    23310    1             %LENGTHC(CONCAT(FSTCL_INTERNAL, PFK_CONSTANT, DK_STRUCTURES));
     1456    23311    1           FILE$KEY.UNIQUE.FNAME.BYTES =

  23311  3 000136   200004 470500                    LDP0    FILE_KEY$,,AUTO
         3 000137   040100 100400                    MLR     fill='040'O
         3 000140   004136 000021 1                  ADSC9   WINDOWS_FILE_KEY+18      cn=0,n=17
         3 000141   000004 400037                    ADSC9   4,,PR0                   cn=2,n=31

     1457    23312    1             %CONCAT(FSTCL_INTERNAL, PFK_CONSTANT, DK_STRUCTURES);
     1458    23313    1           FILE$KEY.LENGTH# = LENGTHC(FILE$KEY.UNIQUE.ACCT) +

  23313  3 000142   200004 470500                    LDP0    FILE_KEY$,,AUTO
         3 000143   000004 236100                    LDQ     4,,PR0
         3 000144   000022 772000                    QRL     18
PL6.E3A0      #001=VDG$WINIT File=VDG$WORKSPACE.:VDA5TSI                         FRI 07/04/97 11:25 Page:103
         3 000145   000777 376007                    ANQ     511,DL
         3 000146   000011 036007                    ADLQ    9,DL
         3 000147   000033 736000                    QLS     27
         3 000150   000002 552140                    STBQ    2,'40'O,PR0

     1459    23314    1             LENGTHC(FILE$KEY.UNIQUE.FNAME.LENGTH#) +
     1460    23315    1             FILE$KEY.UNIQUE.FNAME.LENGTH#;
     1461    23316    1           FILE$KEY.PSN = ' ';

  23316  3 000151   200004 470500                    LDP0    FILE_KEY$,,AUTO
         3 000152   040100 100400                    MLR     fill='040'O
         3 000153   000035 000001 xsym               ADSC9   B_VECTNIL+29             cn=0,n=1
         3 000154   000015 400006                    ADSC9   13,,PR0                  cn=2,n=6

     1462    23317    1           STRUCTURES$L0_NODE.DESC.KEY.TYPE# = %KT_STRING;

  23317  3 000155   000002 220003                    LDX0    2,DU
         3 000156   200003 471500                    LDP1    STRUCTURES_L0_NODE$,,AUTO
         3 000157   100004 740100                    STX0    4,,PR1

     1463    23318    1           STRUCTURES$L0_NODE.DESC.KEY.REP# = %REP_REMOTE;

  23318  3 000160   100004 440100                    SXL0    4,,PR1

     1464    23319    1           STRUCTURES$L0_NODE.DESC.KEY.V$ = FILE_KEY$;

  23319  3 000161   200004 236100                    LDQ     FILE_KEY$,,AUTO
         3 000162   100005 756100                    STQ     5,,PR1

     1465    23320                %COPYKEY (FKEY=STRUCTURES$L0_NODE.DESC.KEY,
     1466    23321                TKEY=STRUCTURES$STREAM.FILE_KEY);

  23334  3 000163   000005 470400 xsym               LDP0    VD_6E+5
         3 000164   000100 100500                    MLR     fill='000'O
         3 000165   100004 000010                    ADSC9   4,,PR1                   cn=0,n=8
         3 000166   000004 000010                    ADSC9   4,,PR0                   cn=0,n=8

PL6.E3A0      #001=VDG$WINIT File=VDG$WORKSPACE.:VDA5TSI                         FRI 07/04/97 11:25 Page:104
  23334  3 000167   100004 721100                    LXL1    4,,PR1
         3 000170   000002 101003                    CMPX1   2,DU
         3 000171   000205 601000 3                  TNZ     s:23339

  23334  3 000172   100005 470500                    LDP0    5,,PR1
         3 000173   000005 236000 xsym               LDQ     VD_6E+5
         3 000174   000005 036003                    ADLQ    5,DU
         3 000175   200051 756100                    STQ     SAVE_ACCESSOR_PRIV+3,,AUTO
         3 000176   200050 450500                    STP0    SAVE_ACCESSOR_PRIV+2,,AUTO
         3 000177   200050 630500                    EPPR0   SAVE_ACCESSOR_PRIV+2,,AUTO
         3 000200   000020 631400 xsym               EPPR1   B_VECTNIL+16
         3 000201   000000 701000 xent               TSX1    VDG$OCOPY
         3 000202   000204 702000 3                  TSX2    s:23335
         3 000203   000205 710000 3                  TRA     s:23339

  23335  3 000204   000000 702200 xent               TSX2  ! X66_AALT

     1467    23337
     1468    23338
     1469    23339    1           CALL BUILD_STRUCTURE_NODE (STRUCTURES$L0_NODE, INIT_EDITKEY)

  23339  3 000205   000004 236000 4                  LDQ     4
         3 000206   200030 756100                    STQ     @STREAM+1,,AUTO
         3 000207   200003 236100                    LDQ     STRUCTURES_L0_NODE$,,AUTO
         3 000210   200027 756100                    STQ     ALTRETURN_WHEN_DONE+3,,AUTO
         3 000211   000755 701000 3                  TSX1    BUILD_STRUCTURE_NODE
         3 000212   000701 702000 3                  TSX2    OALLOC_FAILED

     1470    23340    1             ALTRET (BUILD_STRUCTURE_NODE_FAILED);
     1471    23341    1           VD_6E.STRUCTURE_EDITKEY$ = STRUCTURES$L0_NODE.TAIL$;

  23341  3 000213   200003 470500                    LDP0    STRUCTURES_L0_NODE$,,AUTO
         3 000214   000013 236100                    LDQ     11,,PR0
         3 000215   000007 756000 xsym               STQ     VD_6E+7

     1472    23342
     1473    23343    1           CALL BUILD_STRUCTURE_NODE (STRUCTURES$L0_NODE, INIT_EXTERNAL)
PL6.E3A0      #001=VDG$WINIT File=VDG$WORKSPACE.:VDA5TSI                         FRI 07/04/97 11:25 Page:105

  23343  3 000216   000005 236000 4                  LDQ     5
         3 000217   200030 756100                    STQ     @STREAM+1,,AUTO
         3 000220   200003 236100                    LDQ     STRUCTURES_L0_NODE$,,AUTO
         3 000221   200027 756100                    STQ     ALTRETURN_WHEN_DONE+3,,AUTO
         3 000222   000755 701000 3                  TSX1    BUILD_STRUCTURE_NODE
         3 000223   000701 702000 3                  TSX2    OALLOC_FAILED

     1474    23344    1             ALTRET (BUILD_STRUCTURE_NODE_FAILED);
     1475    23345    1           STRUCTURE_L1_EXTERNAL$ = STRUCTURES$L0_NODE.TAIL$;

  23345  3 000224   200003 470500                    LDP0    STRUCTURES_L0_NODE$,,AUTO
         3 000225   000013 236100                    LDQ     11,,PR0
         3 000226   200005 756100                    STQ     STRUCTURE_L1_EXTERNAL$,,AUTO

     1476    23346
     1477    23347    1           CALL BUILD_STRUCTURE_NODE (STRUCTURES$L0_NODE, INIT_NAMES)

  23347  3 000227   000006 236000 4                  LDQ     6
         3 000230   200030 756100                    STQ     @STREAM+1,,AUTO
         3 000231   200003 236100                    LDQ     STRUCTURES_L0_NODE$,,AUTO
         3 000232   200027 756100                    STQ     ALTRETURN_WHEN_DONE+3,,AUTO
         3 000233   000755 701000 3                  TSX1    BUILD_STRUCTURE_NODE
         3 000234   000701 702000 3                  TSX2    OALLOC_FAILED

     1478    23348    1             ALTRET (BUILD_STRUCTURE_NODE_FAILED);
     1479    23349    1           STRUCTURE_L1_NAMES$ = STRUCTURES$L0_NODE.TAIL$;

  23349  3 000235   200003 470500                    LDP0    STRUCTURES_L0_NODE$,,AUTO
         3 000236   000013 236100                    LDQ     11,,PR0
         3 000237   200006 756100                    STQ     STRUCTURE_L1_NAMES$,,AUTO

     1480    23350
     1481    23351    1           CALL BUILD_STRUCTURE_NODE (STRUCTURES$L0_NODE, INIT_SCRATCH)

  23351  3 000240   000007 236000 4                  LDQ     7
         3 000241   200030 756100                    STQ     @STREAM+1,,AUTO
PL6.E3A0      #001=VDG$WINIT File=VDG$WORKSPACE.:VDA5TSI                         FRI 07/04/97 11:25 Page:106
         3 000242   200003 236100                    LDQ     STRUCTURES_L0_NODE$,,AUTO
         3 000243   200027 756100                    STQ     ALTRETURN_WHEN_DONE+3,,AUTO
         3 000244   000755 701000 3                  TSX1    BUILD_STRUCTURE_NODE
         3 000245   000701 702000 3                  TSX2    OALLOC_FAILED

     1482    23352    1             ALTRET (BUILD_STRUCTURE_NODE_FAILED);
     1483    23353    1           STRUCTURE_L1_SCRATCH$ = STRUCTURES$L0_NODE.TAIL$;

  23353  3 000246   200003 470500                    LDP0    STRUCTURES_L0_NODE$,,AUTO
         3 000247   000013 236100                    LDQ     11,,PR0
         3 000250   200007 756100                    STQ     STRUCTURE_L1_SCRATCH$,,AUTO

     1484    23354
     1485    23355    1           CALL BUILD_STRUCTURE_NODE (STRUCTURES$L0_NODE, INIT_CONSEC)

  23355  3 000251   000010 236000 4                  LDQ     8
         3 000252   200030 756100                    STQ     @STREAM+1,,AUTO
         3 000253   200003 236100                    LDQ     STRUCTURES_L0_NODE$,,AUTO
         3 000254   200027 756100                    STQ     ALTRETURN_WHEN_DONE+3,,AUTO
         3 000255   000755 701000 3                  TSX1    BUILD_STRUCTURE_NODE
         3 000256   000701 702000 3                  TSX2    OALLOC_FAILED

     1486    23356    1             ALTRET (BUILD_STRUCTURE_NODE_FAILED);
     1487    23357    1           VD_6E.STRUCTURE_SEQUENTIAL$ = STRUCTURES$L0_NODE.TAIL$;

  23357  3 000257   200003 470500                    LDP0    STRUCTURES_L0_NODE$,,AUTO
         3 000260   000013 236100                    LDQ     11,,PR0
         3 000261   000013 756000 xsym               STQ     VD_6E+11

     1488    23358
     1489    23359    1           CALL BUILD_STRUCTURE_NODE (STRUCTURES$L0_NODE, INIT_STRINGKEY)

  23359  3 000262   000011 236000 4                  LDQ     9
         3 000263   200030 756100                    STQ     @STREAM+1,,AUTO
         3 000264   200003 236100                    LDQ     STRUCTURES_L0_NODE$,,AUTO
         3 000265   200027 756100                    STQ     ALTRETURN_WHEN_DONE+3,,AUTO
         3 000266   000755 701000 3                  TSX1    BUILD_STRUCTURE_NODE
PL6.E3A0      #001=VDG$WINIT File=VDG$WORKSPACE.:VDA5TSI                         FRI 07/04/97 11:25 Page:107
         3 000267   000701 702000 3                  TSX2    OALLOC_FAILED

     1490    23360    1             ALTRET (BUILD_STRUCTURE_NODE_FAILED);
     1491    23361    1           VD_6E.STRUCTURE_STRINGKEY$ = STRUCTURES$L0_NODE.TAIL$;

  23361  3 000270   200003 470500                    LDP0    STRUCTURES_L0_NODE$,,AUTO
         3 000271   000013 236100                    LDQ     11,,PR0
         3 000272   000014 756000 xsym               STQ     VD_6E+12

     1492    23362
     1493    23363    1           CALL BUILD_STRUCTURE_NODE (STRUCTURES$L0_NODE, INIT_STRUCTURES)

  23363  3 000273   000012 236000 4                  LDQ     10
         3 000274   200030 756100                    STQ     @STREAM+1,,AUTO
         3 000275   200003 236100                    LDQ     STRUCTURES_L0_NODE$,,AUTO
         3 000276   200027 756100                    STQ     ALTRETURN_WHEN_DONE+3,,AUTO
         3 000277   000755 701000 3                  TSX1    BUILD_STRUCTURE_NODE
         3 000300   000701 702000 3                  TSX2    OALLOC_FAILED

     1494    23364    1             ALTRET (BUILD_STRUCTURE_NODE_FAILED);
     1495    23365    1           STRUCTURE_L1_STRUCTURES$ = STRUCTURES$L0_NODE.TAIL$;

  23365  3 000301   200003 470500                    LDP0    STRUCTURES_L0_NODE$,,AUTO
         3 000302   000013 236100                    LDQ     11,,PR0
         3 000303   200010 756100                    STQ     STRUCTURE_L1_STRUCTURES$,,AUTO

     1496    23366
     1497    23367    1           CALL BUILD_STRUCTURE_NODE (STRUCTURES$L0_NODE, INIT_WINDOWS)

  23367  3 000304   000013 236000 4                  LDQ     11
         3 000305   200030 756100                    STQ     @STREAM+1,,AUTO
         3 000306   200003 236100                    LDQ     STRUCTURES_L0_NODE$,,AUTO
         3 000307   200027 756100                    STQ     ALTRETURN_WHEN_DONE+3,,AUTO
         3 000310   000755 701000 3                  TSX1    BUILD_STRUCTURE_NODE
         3 000311   000701 702000 3                  TSX2    OALLOC_FAILED

     1498    23368    1             ALTRET (BUILD_STRUCTURE_NODE_FAILED);
PL6.E3A0      #001=VDG$WINIT File=VDG$WORKSPACE.:VDA5TSI                         FRI 07/04/97 11:25 Page:108
     1499    23369    1           STRUCTURE_L1_WINDOWS$ = STRUCTURES$L0_NODE.TAIL$;

  23369  3 000312   200003 470500                    LDP0    STRUCTURES_L0_NODE$,,AUTO
         3 000313   000013 236100                    LDQ     11,,PR0
         3 000314   200011 756100                    STQ     STRUCTURE_L1_WINDOWS$,,AUTO

     1500    23370
     1501    23371
     1502    23372                /*
     1503    23373                *   Update VD_6E:  it's pointers, and the directories of
     1504    23374                *       internal files.
     1505    23375                *   Also, when we get to the Structures directory, link
     1506    23376                *       the Structures file we just built off the directory.
     1507    23377                */
     1508    23378
     1509    23379    1           VD_6E.STRUCTURE_EXTERNAL$ = STRUCTURE_L1_EXTERNAL$;

  23379  3 000315   200005 236100                    LDQ     STRUCTURE_L1_EXTERNAL$,,AUTO
         3 000316   000010 756000 xsym               STQ     VD_6E+8

     1510    23380    1           VD_6E.STRUCTURE_NAMES$ = STRUCTURE_L1_NAMES$;

  23380  3 000317   200006 236100                    LDQ     STRUCTURE_L1_NAMES$,,AUTO
         3 000320   000011 756000 xsym               STQ     VD_6E+9

     1511    23381    1           VD_6E.STRUCTURE_SCRATCH$ = STRUCTURE_L1_SCRATCH$;

  23381  3 000321   200007 236100                    LDQ     STRUCTURE_L1_SCRATCH$,,AUTO
         3 000322   000012 756000 xsym               STQ     VD_6E+10

     1512    23382    1           VD_6E.STRUCTURE_STRUCTURES$ = STRUCTURE_L1_STRUCTURES$;

  23382  3 000323   200010 236100                    LDQ     STRUCTURE_L1_STRUCTURES$,,AUTO
         3 000324   000015 756000 xsym               STQ     VD_6E+13

     1513    23383    1           VD_6E.STRUCTURE_WINDOWS$ = STRUCTURE_L1_WINDOWS$;

PL6.E3A0      #001=VDG$WINIT File=VDG$WORKSPACE.:VDA5TSI                         FRI 07/04/97 11:25 Page:109
  23383  3 000325   200011 236100                    LDQ     STRUCTURE_L1_WINDOWS$,,AUTO
         3 000326   000016 756000 xsym               STQ     VD_6E+14

     1514    23384
     1515    23385    1           VD_$STRUCTURE.V$ = VD_6E.STRUCTURE_EXTERNAL$;   /* Default value */

  23385  3 000327   000010 236000 xsym               LDQ     VD_6E+8
         3 000330   000473 756000 2                  STQ     VD_$STRUCTURE+3

     1516    23386
     1517    23387    1           DIR_NODE$ = VD_6E.WS.INTERNAL_DIR$;

  23387  3 000331   000017 236000 xsym               LDQ     VD_6E+15
         3 000332   200012 756100                    STQ     DIR_NODE$,,AUTO

     1518    23388    1   FILL_IN_DIR_NODES:
     1519    23389    2           DO WHILE DIR_NODE$ ~= ADDR(NIL);

  23389  3 000333   000432 710000 3     FILL_IN_DIR* TRA     s:23411

     1520    23390    3              DO SELECT DIR$NODE.KEY;

  23390  3 000334   200012 470500                    LDP0    DIR_NODE$,,AUTO
         3 000335   040000 106500                    CMPC    fill='040'O
         3 000336   000003 000037                    ADSC9   3,,PR0                   cn=0,n=31
         3 000337   004143 000005 1                  ADSC9   WINDOWS_FILE_KEY+23      cn=0,n=5
         3 000340   000361 602000 3                  TNC     s:23390+21
         3 000341   000373 600000 3                  TZE     s:23395
         3 000342   040000 106500                    CMPC    fill='040'O
         3 000343   000003 000037                    ADSC9   3,,PR0                   cn=0,n=31
         3 000344   004145 000012 1                  ADSC9   WINDOWS_FILE_KEY+25      cn=0,n=10
         3 000345   000354 602000 3                  TNC     s:23390+16
         3 000346   000405 600000 3                  TZE     s:23401
         3 000347   040000 106500                    CMPC    fill='040'O
         3 000350   000003 000037                    ADSC9   3,,PR0                   cn=0,n=31
         3 000351   004150 000007 1                  ADSC9   WINDOWS_FILE_KEY+28      cn=0,n=7
         3 000352   000420 601000 3                  TNZ     s:23408
PL6.E3A0      #001=VDG$WINIT File=VDG$WORKSPACE.:VDA5TSI                         FRI 07/04/97 11:25 Page:110
         3 000353   000415 710000 3                  TRA     s:23406
         3 000354   040000 106500                    CMPC    fill='040'O
         3 000355   000003 000037                    ADSC9   3,,PR0                   cn=0,n=31
         3 000356   004152 000007 1                  ADSC9   WINDOWS_FILE_KEY+30      cn=0,n=7
         3 000357   000420 601000 3                  TNZ     s:23408
         3 000360   000400 710000 3                  TRA     s:23398
         3 000361   040000 106500                    CMPC    fill='040'O
         3 000362   000003 000037                    ADSC9   3,,PR0                   cn=0,n=31
         3 000363   004154 000007 1                  ADSC9   WINDOWS_FILE_KEY+32      cn=0,n=7
         3 000364   000420 601000 3                  TNZ     s:23408
         3 000365   000366 710000 3                  TRA     s:23392

     1521    23391    3                 SELECT (%DK_HISTORY);

     1522    23392    3                 DIR$NODE.STRUCTURE$ = STRUCTURE_L1_EXTERNAL$;

  23392  3 000366   200005 236100                    LDQ     STRUCTURE_L1_EXTERNAL$,,AUTO
         3 000367   000014 756100                    STQ     12,,PR0

     1523    23393    3                 DIR$NODE.MIGRATABLE = %TRUE;

  23393  3 000370   000400 236007                    LDQ     256,DL
         3 000371   000012 256100                    ORSQ    10,,PR0
         3 000372   000427 710000 3                  TRA     s:23410

     1524    23394    3                 SELECT (%DK_NAMES);

     1525    23395    3                 DIR$NODE.STRUCTURE$ = STRUCTURE_L1_NAMES$;

  23395  3 000373   200006 236100                    LDQ     STRUCTURE_L1_NAMES$,,AUTO
         3 000374   000014 756100                    STQ     12,,PR0

     1526    23396    3                 DIR$NODE.MIGRATABLE = %TRUE;

  23396  3 000375   000400 236007                    LDQ     256,DL
         3 000376   000012 256100                    ORSQ    10,,PR0
         3 000377   000427 710000 3                  TRA     s:23410
PL6.E3A0      #001=VDG$WINIT File=VDG$WORKSPACE.:VDA5TSI                         FRI 07/04/97 11:25 Page:111

     1527    23397    3                 SELECT (%DK_SCRATCH);

     1528    23398    3                 DIR$NODE.STRUCTURE$ = STRUCTURE_L1_SCRATCH$;

  23398  3 000400   200007 236100                    LDQ     STRUCTURE_L1_SCRATCH$,,AUTO
         3 000401   000014 756100                    STQ     12,,PR0

     1529    23399    3                 DIR$NODE.MIGRATABLE = %TRUE;

  23399  3 000402   000400 236007                    LDQ     256,DL
         3 000403   000012 256100                    ORSQ    10,,PR0
         3 000404   000427 710000 3                  TRA     s:23410

     1530    23400    3                 SELECT (%DK_STRUCTURES);

     1531    23401    3                 DIR$NODE.STRUCTURE$ = STRUCTURE_L1_STRUCTURES$;

  23401  3 000405   200010 236100                    LDQ     STRUCTURE_L1_STRUCTURES$,,AUTO
         3 000406   000014 756100                    STQ     12,,PR0

     1532    23402    3                 DIR$NODE.HEAD$ = STRUCTURES_L0_NODE$;

  23402  3 000407   200003 236100                    LDQ     STRUCTURES_L0_NODE$,,AUTO
         3 000410   000015 756100                    STQ     13,,PR0

     1533    23403    3                 DIR$NODE.TAIL$ = STRUCTURES_L0_NODE$;

  23403  3 000411   000016 756100                    STQ     14,,PR0

     1534    23404    3                 DIR$NODE.COUNT# = 1;

  23404  3 000412   000001 235007                    LDA     1,DL
         3 000413   000017 755100                    STA     15,,PR0
         3 000414   000427 710000 3                  TRA     s:23410

     1535    23405    3                 SELECT (%DK_WINDOWS);
PL6.E3A0      #001=VDG$WINIT File=VDG$WORKSPACE.:VDA5TSI                         FRI 07/04/97 11:25 Page:112

     1536    23406    3                 DIR$NODE.STRUCTURE$ = STRUCTURE_L1_WINDOWS$;

  23406  3 000415   200011 236100                    LDQ     STRUCTURE_L1_WINDOWS$,,AUTO
         3 000416   000014 756100                    STQ     12,,PR0
         3 000417   000427 710000 3                  TRA     s:23410

     1537    23407    3                 SELECT (ELSE);

     1538    23408    3              CALL VDG$ESCREECH (DIR$NODE.KEY);

  23408  3 000420   200012 236100                    LDQ     DIR_NODE$,,AUTO
         3 000421   000003 036003                    ADLQ    3,DU
         3 000422   200050 756100                    STQ     SAVE_ACCESSOR_PRIV+2,,AUTO
         3 000423   200050 630500                    EPPR0   SAVE_ACCESSOR_PRIV+2,,AUTO
         3 000424   000017 631400 xsym               EPPR1   B_VECTNIL+15
         3 000425   000000 701000 xent               TSX1    VDG$ESCREECH
         3 000426   000000 011000                    NOP     0

     1539    23409    3                 END;

     1540    23410    2           DIR_NODE$ = DIR$NODE.FLINK$;

  23410  3 000427   200012 470500                    LDP0    DIR_NODE$,,AUTO
         3 000430   000002 236100                    LDQ     2,,PR0
         3 000431   200012 756100                    STQ     DIR_NODE$,,AUTO

     1541    23411    2              END FILL_IN_DIR_NODES;

  23411  3 000432   000001 116000 xsym               CMPQ    B_VECTNIL+1
         3 000433   000334 601000 3                  TNZ     s:23390

     1542    23412
     1543    23413
     1544    23414                /*
     1545    23415                *   Open STRUCTURES$STREAM to the newly-created Structures file.
     1546    23416                */
PL6.E3A0      #001=VDG$WINIT File=VDG$WORKSPACE.:VDA5TSI                         FRI 07/04/97 11:25 Page:113
     1547    23417
     1548    23418    1           CALL VDG$OALLOC (%CLS_PORT, STRUCTURES$STREAM.PORT$)

  23418  3 000434   000005 236000 xsym               LDQ     VD_6E+5
         3 000435   000001 036003                    ADLQ    1,DU
         3 000436   000015 235000 4                  LDA     13
         3 000437   200050 757100                    STAQ    SAVE_ACCESSOR_PRIV+2,,AUTO
         3 000440   200050 630500                    EPPR0   SAVE_ACCESSOR_PRIV+2,,AUTO
         3 000441   000020 631400 xsym               EPPR1   B_VECTNIL+16
         3 000442   000000 701000 xent               TSX1    VDG$OALLOC
         3 000443   000701 702000 3                  TSX2    OALLOC_FAILED

     1549    23419    1             ALTRET (OALLOC_FAILED);
     1550    23420    1           PORT$ = STRUCTURES$STREAM.PORT$;

  23420  3 000444   000005 470400 xsym               LDP0    VD_6E+5
         3 000445   000001 236100                    LDQ     1,,PR0
         3 000446   200013 756100                    STQ     PORT$,,AUTO

     1551    23421
     1552    23422    1           PORT.STRUCTURE$ = STRUCTURE_L1_STRUCTURES$;

  23422  3 000447   200010 236100                    LDQ     STRUCTURE_L1_STRUCTURES$,,AUTO
         3 000450   200013 471500                    LDP1    PORT$,,AUTO
         3 000451   100006 756100                    STQ     6,,PR1

     1553    23423    1           PORT.REFS# = 1;

  23423  3 000452   000001 220003                    LDX0    1,DU
         3 000453   100003 740100                    STX0    3,,PR1

     1554    23424    1           PORT.EXIST# = %EX_NEW;

  23424  3 000454   100003 440100                    SXL0    3,,PR1

     1555    23425    1           PORT.LAST_OP# = %ACCOP_OPEN;

PL6.E3A0      #001=VDG$WINIT File=VDG$WORKSPACE.:VDA5TSI                         FRI 07/04/97 11:25 Page:114
  23425  3 000455   100007 740100                    STX0    7,,PR1

     1556    23426
     1557    23427    1           STRUCTURES_L2_NODE$ = STRUCTURE$L1_STRUCTURES.HEAD$;

  23427  3 000456   200010 470500                    LDP0    STRUCTURE_L1_STRUCTURES$,,AUTO
         3 000457   000012 236100                    LDQ     10,,PR0
         3 000460   200014 756100                    STQ     STRUCTURES_L2_NODE$,,AUTO

     1558    23428    1           STRUCTURE_LEVEL$ = STRUCTURES$L2_NODE.DESC.SPEC.V$;

  23428  3 000461   200014 473500                    LDP3    STRUCTURES_L2_NODE$,,AUTO
         3 000462   300007 236100                    LDQ     7,,PR3
         3 000463   200015 756100                    STQ     STRUCTURE_LEVEL$,,AUTO

     1559    23429    1           PORT.LEVEL.ORG# (%LVL_FILE) = STRUCTURE$LEVEL.ORG#;

  23429  3 000464   200015 474500                    LDP4    STRUCTURE_LEVEL$,,AUTO
         3 000465   400002 721100                    LXL1    2,,PR4
         3 000466   100023 741100                    STX1    19,,PR1

     1560    23430    1           PORT.LEVEL.KEY_TYPE# (%LVL_FILE) = STRUCTURE$LEVEL.KEY_TYPE#;

  23430  3 000467   400003 222100                    LDX2    3,,PR4
         3 000470   100023 442100                    SXL2    19,,PR1

     1561    23431    1           PORT.LEVEL.SPEC_TYPE# (%LVL_FILE) = STRUCTURE$LEVEL.SPEC_TYPE#;

  23431  3 000471   400003 723100                    LXL3    3,,PR4
         3 000472   100024 743100                    STX3    20,,PR1

     1562    23432    1           PORT.FILE_KEY = STRUCTURES$L0_NODE.DESC.KEY;

  23432  3 000473   200003 475500                    LDP5    STRUCTURES_L0_NODE$,,AUTO
         3 000474   000100 100500                    MLR     fill='000'O
         3 000475   500004 000010                    ADSC9   4,,PR5                   cn=0,n=8
         3 000476   100010 000010                    ADSC9   8,,PR1                   cn=0,n=8
PL6.E3A0      #001=VDG$WINIT File=VDG$WORKSPACE.:VDA5TSI                         FRI 07/04/97 11:25 Page:115

     1563    23433    2           IF STRUCTURES$L0_NODE.DESC.KEY.REP# = %REP_REMOTE THEN DO;

  23433  3 000477   500004 724100                    LXL4    4,,PR5
         3 000500   000002 104003                    CMPX4   2,DU
         3 000501   000513 601000 3                  TNZ     s:23438

     1564    23434    2              CALL VDG$OCOPY (STRUCTURES$L0_NODE.DESC.KEY.V$->FILE$KEY,

  23434  3 000502   500005 476500                    LDP6    5,,PR5
         3 000503   200013 236100                    LDQ     PORT$,,AUTO
         3 000504   000011 036003                    ADLQ    9,DU
         3 000505   200051 756100                    STQ     SAVE_ACCESSOR_PRIV+3,,AUTO
         3 000506   200050 456500                    STP6    SAVE_ACCESSOR_PRIV+2,,AUTO
         3 000507   200050 630500                    EPPR0   SAVE_ACCESSOR_PRIV+2,,AUTO
         3 000510   000020 631400 xsym               EPPR1   B_VECTNIL+16
         3 000511   000000 701000 xent               TSX1    VDG$OCOPY
         3 000512   000701 702000 3                  TSX2    OALLOC_FAILED

     1565    23435    2                PORT.FILE_KEY.V$)
     1566    23436    2                ALTRET (OCOPY_FAILED);
     1567    23437    2              END;

     1568    23438    1           PORT.LEVEL.INTERNAL$ (%LVL_FILE) = STRUCTURES_L0_NODE$;

  23438  3 000513   200003 236100                    LDQ     STRUCTURES_L0_NODE$,,AUTO
         3 000514   200013 470500                    LDP0    PORT$,,AUTO
         3 000515   000031 756100                    STQ     25,,PR0

     1569    23439
     1570    23440    1   FILL_LOWER_LEVELS:
     1571    23441    2           DO LVL = %LVL_LOWER TO (%(MX_ACCESS_LEVELS-1));

  23441  3 000516   000001 235007       FILL_LOWER_* LDA     1,DL
         3 000517   200016 755100                    STA     LVL,,AUTO

     1572    23442    2              STRUCTURES_L2_NODE$ = STRUCTURES$L2_NODE.FLINK$;
PL6.E3A0      #001=VDG$WINIT File=VDG$WORKSPACE.:VDA5TSI                         FRI 07/04/97 11:25 Page:116

  23442  3 000520   200014 470500                    LDP0    STRUCTURES_L2_NODE$,,AUTO
         3 000521   000002 236100                    LDQ     2,,PR0
         3 000522   200014 756100                    STQ     STRUCTURES_L2_NODE$,,AUTO

     1573    23443    2              IF STRUCTURES_L2_NODE$ = ADDR(NIL) THEN

  23443  3 000523   000001 116000 xsym               CMPQ    B_VECTNIL+1
         3 000524   000546 600000 3                  TZE     s:23451

     1574    23444    2                 EXIT FILL_LOWER_LEVELS;
     1575    23445    2              STRUCTURE_LEVEL$ = STRUCTURES$L2_NODE.DESC.SPEC.V$;

  23445  3 000525   200014 470500                    LDP0    STRUCTURES_L2_NODE$,,AUTO
         3 000526   000007 236100                    LDQ     7,,PR0
         3 000527   200015 756100                    STQ     STRUCTURE_LEVEL$,,AUTO

     1576    23446    2              PORT.LEVEL.ORG# (LVL) = STRUCTURE$LEVEL.ORG#;

  23446  3 000530   200016 236100                    LDQ     LVL,,AUTO
         3 000531   000007 402007                    MPY     7,DL
         3 000532   200015 471500                    LDP1    STRUCTURE_LEVEL$,,AUTO
         3 000533   100002 720100                    LXL0    2,,PR1
         3 000534   200013 473500                    LDP3    PORT$,,AUTO
         3 000535   300023 740106                    STX0    19,QL,PR3

     1577    23447    2              PORT.LEVEL.KEY_TYPE# (LVL) = STRUCTURE$LEVEL.KEY_TYPE#;

  23447  3 000536   100003 221100                    LDX1    3,,PR1
         3 000537   300023 441106                    SXL1    19,QL,PR3

     1578    23448    2              PORT.LEVEL.SPEC_TYPE# (LVL) = STRUCTURE$LEVEL.SPEC_TYPE#;

  23448  3 000540   100003 720100                    LXL0    3,,PR1
         3 000541   300024 740106                    STX0    20,QL,PR3

     1579    23449    2              END FILL_LOWER_LEVELS;
PL6.E3A0      #001=VDG$WINIT File=VDG$WORKSPACE.:VDA5TSI                         FRI 07/04/97 11:25 Page:117

  23449  3 000542   200016 054100                    AOS     LVL,,AUTO
         3 000543   200016 235100                    LDA     LVL,,AUTO
         3 000544   000004 115007                    CMPA    4,DL
         3 000545   000520 604400 3                  TMOZ    s:23442

     1580    23450
     1581    23451    1           PORT.CURRENT.EOF = %TRUE;

  23451  3 000546   200013 470500                    LDP0    PORT$,,AUTO
         3 000547   400000 236007                    LDQ     -131072,DL
         3 000550   000022 256100                    ORSQ    18,,PR0

     1582    23452
     1583    23453
     1584    23454                /*
     1585    23455                *   Create the other predefined files.
     1586    23456                */
     1587    23457
     1588    23458    1           OPTIONS = %CLEAR;

  23458  3 000551   000100 100400                    MLR     fill='000'O
         3 000552   000002 000001 xsym               ADSC9   B_VECTNIL+2              cn=0,n=1
         3 000553   200017 000024                    ADSC9   OPTIONS,,AUTO            cn=0,n=20

     1589    23459    1           OPTIONS.PROTECT# = %DONT_PROTECT;

  23459  3 000554   000002 220003                    LDX0    2,DU
         3 000555   200021 740100                    STX0    OPTIONS+2,,AUTO

     1590    23460    1           OPTIONS.EXIST# = %EX_NEW;

  23460  3 000556   000001 221003                    LDX1    1,DU
         3 000557   200021 441100                    SXL1    OPTIONS+2,,AUTO

     1591    23461    1           OPTIONS.STRUCTURE$ = VD_6E.STRUCTURE_NAMES$;

PL6.E3A0      #001=VDG$WINIT File=VDG$WORKSPACE.:VDA5TSI                         FRI 07/04/97 11:25 Page:118
  23461  3 000560   000011 236000 xsym               LDQ     VD_6E+9
         3 000561   200017 756100                    STQ     OPTIONS,,AUTO

     1592    23462
     1593    23463    1           CALL VDA$FOPEN (EQUALS$STREAM, EQUALS_L0_KEY, 0, OPTIONS)

  23463  3 000562   200017 631500                    EPPR1   OPTIONS,,AUTO
         3 000563   200053 451500                    STP1    SAVE_ACCESSOR_PRIV+5,,AUTO
         3 000564   000016 236000 4                  LDQ     14
         3 000565   200052 756100                    STQ     SAVE_ACCESSOR_PRIV+4,,AUTO
         3 000566   000017 236000 4                  LDQ     15
         3 000567   000001 235000 xsym               LDA     VD_6E+1
         3 000570   200050 757100                    STAQ    SAVE_ACCESSOR_PRIV+2,,AUTO
         3 000571   200050 630500                    EPPR0   SAVE_ACCESSOR_PRIV+2,,AUTO
         3 000572   000022 631400 xsym               EPPR1   B_VECTNIL+18
         3 000573   000000 701000 xent               TSX1    VDA$FOPEN
         3 000574   000701 702000 3                  TSX2    OALLOC_FAILED

     1594    23464    1             ALTRET (FOPEN_FAILED);
     1595    23465
     1596    23466    1           CALL VDA$FOPEN (LOCATIONS$STREAM, LOCATIONS_L0_KEY, 0, OPTIONS)

  23466  3 000575   200017 630500                    EPPR0   OPTIONS,,AUTO
         3 000576   200053 450500                    STP0    SAVE_ACCESSOR_PRIV+5,,AUTO
         3 000577   000016 236000 4                  LDQ     14
         3 000600   200052 756100                    STQ     SAVE_ACCESSOR_PRIV+4,,AUTO
         3 000601   000020 236000 4                  LDQ     16
         3 000602   000002 235000 xsym               LDA     VD_6E+2
         3 000603   200050 757100                    STAQ    SAVE_ACCESSOR_PRIV+2,,AUTO
         3 000604   200050 630500                    EPPR0   SAVE_ACCESSOR_PRIV+2,,AUTO
         3 000605   000022 631400 xsym               EPPR1   B_VECTNIL+18
         3 000606   000000 701000 xent               TSX1    VDA$FOPEN
         3 000607   000701 702000 3                  TSX2    OALLOC_FAILED

     1597    23467    1             ALTRET (FOPEN_FAILED);
     1598    23468
     1599    23469    1           CALL VDA$FOPEN (SYNONYMS$STREAM, SYNONYMS_L0_KEY, 0, OPTIONS)
PL6.E3A0      #001=VDG$WINIT File=VDG$WORKSPACE.:VDA5TSI                         FRI 07/04/97 11:25 Page:119

  23469  3 000610   200017 630500                    EPPR0   OPTIONS,,AUTO
         3 000611   200053 450500                    STP0    SAVE_ACCESSOR_PRIV+5,,AUTO
         3 000612   000016 236000 4                  LDQ     14
         3 000613   200052 756100                    STQ     SAVE_ACCESSOR_PRIV+4,,AUTO
         3 000614   000021 236000 4                  LDQ     17
         3 000615   000003 235000 xsym               LDA     VD_6E+3
         3 000616   200050 757100                    STAQ    SAVE_ACCESSOR_PRIV+2,,AUTO
         3 000617   200050 630500                    EPPR0   SAVE_ACCESSOR_PRIV+2,,AUTO
         3 000620   000022 631400 xsym               EPPR1   B_VECTNIL+18
         3 000621   000000 701000 xent               TSX1    VDA$FOPEN
         3 000622   000701 702000 3                  TSX2    OALLOC_FAILED

     1600    23470    1             ALTRET (FOPEN_FAILED);
     1601    23471
     1602    23472    1           CALL VDA$FOPEN (KEYINS$STREAM, KEYINS_L0_KEY, 0, OPTIONS)

  23472  3 000623   200017 630500                    EPPR0   OPTIONS,,AUTO
         3 000624   200053 450500                    STP0    SAVE_ACCESSOR_PRIV+5,,AUTO
         3 000625   000016 236000 4                  LDQ     14
         3 000626   200052 756100                    STQ     SAVE_ACCESSOR_PRIV+4,,AUTO
         3 000627   000022 236000 4                  LDQ     18
         3 000630   000004 235000 xsym               LDA     VD_6E+4
         3 000631   200050 757100                    STAQ    SAVE_ACCESSOR_PRIV+2,,AUTO
         3 000632   200050 630500                    EPPR0   SAVE_ACCESSOR_PRIV+2,,AUTO
         3 000633   000022 631400 xsym               EPPR1   B_VECTNIL+18
         3 000634   000000 701000 xent               TSX1    VDA$FOPEN
         3 000635   000701 702000 3                  TSX2    OALLOC_FAILED

     1603    23473    1             ALTRET (FOPEN_FAILED);
     1604    23474
     1605    23475    1           OPTIONS.STRUCTURE$ = VD_6E.STRUCTURE_WINDOWS$;

  23475  3 000636   000016 236000 xsym               LDQ     VD_6E+14
         3 000637   200017 756100                    STQ     OPTIONS,,AUTO

     1606    23476    1           CALL VDA$FOPEN (WINDOWS$STREAM, WINDOWS_L0_KEY, 0, OPTIONS)
PL6.E3A0      #001=VDG$WINIT File=VDG$WORKSPACE.:VDA5TSI                         FRI 07/04/97 11:25 Page:120

  23476  3 000640   200017 630500                    EPPR0   OPTIONS,,AUTO
         3 000641   200053 450500                    STP0    SAVE_ACCESSOR_PRIV+5,,AUTO
         3 000642   000016 236000 4                  LDQ     14
         3 000643   200052 756100                    STQ     SAVE_ACCESSOR_PRIV+4,,AUTO
         3 000644   000023 236000 4                  LDQ     19
         3 000645   000006 235000 xsym               LDA     VD_6E+6
         3 000646   200050 757100                    STAQ    SAVE_ACCESSOR_PRIV+2,,AUTO
         3 000647   200050 630500                    EPPR0   SAVE_ACCESSOR_PRIV+2,,AUTO
         3 000650   000022 631400 xsym               EPPR1   B_VECTNIL+18
         3 000651   000000 701000 xent               TSX1    VDA$FOPEN
         3 000652   000701 702000 3                  TSX2    OALLOC_FAILED

     1607    23477    1             ALTRET (FOPEN_FAILED);
     1608    23478
     1609    23479
     1610    23480                /*
     1611    23481                *   Write the predefined names to the Names files.
     1612    23482                *   From now on, recoverable errors should not keep us
     1613    23483                *       from finishing the validation process.
     1614    23484                *   Just remember the fact that we got an error (so we can
     1615    23485                *       altreturn instead of returning) and continue.
     1616    23486                */
     1617    23487
     1618    23488    1           CALL WRITE_PREDEFINED_NAMES (EQUALS$STREAM, VD_EQUALS_INIT)

  23488  3 000653   000024 236000 4                  LDQ     20
         3 000654   200030 756100                    STQ     @STREAM+1,,AUTO
         3 000655   000001 236000 xsym               LDQ     VD_6E+1
         3 000656   200027 756100                    STQ     ALTRETURN_WHEN_DONE+3,,AUTO
         3 000657   001167 701000 3                  TSX1    WRITE_PREDEFINED_NAMES
         3 000660   000662 702000 3                  TSX2    s:23490
         3 000661   000664 710000 3                  TRA     s:23494

     1619    23489    2           WHENALTRETURN DO;

     1620    23490    2              ALTRETURN_WHEN_DONE = %TRUE;
PL6.E3A0      #001=VDG$WINIT File=VDG$WORKSPACE.:VDA5TSI                         FRI 07/04/97 11:25 Page:121

  23490  3 000662   400000 236003                    LDQ     -131072,DU
         3 000663   200024 756100                    STQ     ALTRETURN_WHEN_DONE,,AUTO

     1621    23491    2              END;

     1622    23492
     1623    23493
     1624    23494    1           CALL WRITE_PREDEFINED_NAMES (LOCATIONS$STREAM, LOCATIONS_INIT)

  23494  3 000664   000025 236000 4                  LDQ     21
         3 000665   200030 756100                    STQ     @STREAM+1,,AUTO
         3 000666   000002 236000 xsym               LDQ     VD_6E+2
         3 000667   200027 756100                    STQ     ALTRETURN_WHEN_DONE+3,,AUTO
         3 000670   001167 701000 3                  TSX1    WRITE_PREDEFINED_NAMES
         3 000671   000673 702000 3                  TSX2    s:23496
         3 000672   000675 710000 3                  TRA     s:23500

     1625    23495    2           WHENALTRETURN DO;

     1626    23496    2              ALTRETURN_WHEN_DONE = %TRUE;

  23496  3 000673   400000 236003                    LDQ     -131072,DU
         3 000674   200024 756100                    STQ     ALTRETURN_WHEN_DONE,,AUTO

     1627    23497    2              END;

     1628    23498
     1629    23499
     1630    23500    1           IF ALTRETURN_WHEN_DONE THEN

  23500  3 000675   200024 234100                    SZN     ALTRETURN_WHEN_DONE,,AUTO
         3 000676   000700 605000 3                  TPL     s:23502

     1631    23501    1              ALTRETURN;

  23501  3 000677   000000 702200 xent               TSX2  ! X66_AALT
PL6.E3A0      #001=VDG$WINIT File=VDG$WORKSPACE.:VDA5TSI                         FRI 07/04/97 11:25 Page:122

     1632    23502    1           RETURN;

  23502  3 000700   000000 702200 xent               TSX2  ! X66_ARET

  23500  3 000701                       OALLOC_FAIL* null
  23500  3 000701                       BUILD_REMOT* null
  23500  3 000701                       BUILD_STRUC* null
  23500  3 000701                       OCOPY_FAILED null
  23500  3 000701                       FOPEN_FAILED null
     1633    23503
     1634    23504
     1635    23505
     1636    23506    1   OALLOC_FAILED: ;
     1637    23507    1   BUILD_REMOTE_KEY_FAILED: ;
     1638    23508    1   BUILD_STRUCTURE_NODE_FAILED: ;
     1639    23509    1   OCOPY_FAILED: ;
     1640    23510    1   FOPEN_FAILED: ;
     1641    23511    1           ALTRETURN;

  23511  3 000701   000000 702200 xent               TSX2  ! X66_AALT

     1642    23512
     1643    23513        %BOX (TITLE=BUILD_REMOTE_KEY, PAGE=YES);
             23521    1
             23525    1   /***************************************************************************
             23527    1    *                                                                         *
             23531    1            *                              BUILD_REMOTE_KEY                          *
             23533    1            *                                                                        *
             23535    1          ***************************************************************************/

     1644    23539
     1645    23540        /*I* NAME: BUILD_REMOTE_KEY
     1646    23541            PARAMETERS:
     1647    23542                NB_KEY - # bytes in KEY below.  May be 0.
     1648    23543                KEY - A VD$TEXTC structure containing the key string to build.
     1649    23544                VD$KEY - An uninitialized VD$KEY structure.
PL6.E3A0      #001=VDG$WINIT File=VDG$WORKSPACE.:VDA5TSI                         FRI 07/04/97 11:25 Page:123
     1650    23545            INPUT:
     1651    23546            OUTPUT:
     1652    23547                VD$KEY will be set, pointing to a remote %KT_STRING key
     1653    23548                    containing KEY.
     1654    23549            DESCRIPTION:
     1655    23550                If NB_KEY is 0, just initialize VD$KEY for a 0-length
     1656    23551                    string key.
     1657    23552                Else, allocate the VD$TEXTC_REMOTE, copy KEY to it, and set up
     1658    23553                    VD$KEY.
     1659    23554        */
     1660    23555
     1661    23556    1   BUILD_REMOTE_KEY: PROC (NB_KEY, KEY, VD$KEY) ALTRET;

  23556  3 000702   200036 741300       BUILD_REMOT* STX1  ! NB_KEY+2,,AUTO

     1662    23557
     1663    23558    2   DCL NB_KEY SBIN;
     1664    23559    2   DCL KEY CHAR(NB_KEY) CALIGNED;
     1665    23560        %VD$KEY (NAME=VD$KEY, STCLASS=PARAM);
     1666    23574
     1667    23575
     1668    23576
     1669    23577    3           IF NB_KEY > 0 THEN DO;

  23577  3 000703   200037 470500                    LDP0    @NB_KEY,,AUTO
         3 000704   000000 235100                    LDA     0,,PR0
         3 000705   000746 604400 3                  TMOZ    s:23587

     1670    23578    3              CALL VDG$OALLOC (%CLS_TEXTC_REMOTE, VD$KEY.V$,

  23578  3 000706   000000 236100                    LDQ     0,,PR0
         3 000707   000014 036007                    ADLQ    12,DL
         3 000710   000004 506007                    DIV     4,DL
         3 000711   200050 756100                    STQ     SAVE_ACCESSOR_PRIV+2,,AUTO
         3 000712   200050 631500                    EPPR1   SAVE_ACCESSOR_PRIV+2,,AUTO
         3 000713   200053 451500                    STP1    SAVE_ACCESSOR_PRIV+5,,AUTO
         3 000714   200041 236100                    LDQ     @VD$KEY,,AUTO
PL6.E3A0      #001=VDG$WINIT File=VDG$WORKSPACE.:VDA5TSI                         FRI 07/04/97 11:25 Page:124
         3 000715   000001 036003                    ADLQ    1,DU
         3 000716   200052 756100                    STQ     SAVE_ACCESSOR_PRIV+4,,AUTO
         3 000717   000027 236000 4                  LDQ     23
         3 000720   200051 756100                    STQ     SAVE_ACCESSOR_PRIV+3,,AUTO
         3 000721   200051 630500                    EPPR0   SAVE_ACCESSOR_PRIV+3,,AUTO
         3 000722   000021 631400 xsym               EPPR1   B_VECTNIL+17
         3 000723   000000 701000 xent               TSX1    VDG$OALLOC
         3 000724   000753 702000 3                  TSX2    OALLOC_FAILED

     1671    23579    3                (LENGTHC(VD$STRING_HEADER) + NB_KEY + %NB_PER_WORD-1) /
     1672    23580    3                %NB_PER_WORD)
     1673    23581    3                ALTRET (OALLOC_FAILED);
     1674    23582    3              VD$KEY.V$->VD$TEXTC_REMOTE.LENGTH# = NB_KEY;

  23582  3 000725   200041 470500                    LDP0    @VD$KEY,,AUTO
         3 000726   000001 471500                    LDP1    1,,PR0
         3 000727   200037 473500                    LDP3    @NB_KEY,,AUTO
         3 000730   300000 236100                    LDQ     0,,PR3
         3 000731   000033 736000                    QLS     27
         3 000732   100002 552140                    STBQ    2,'40'O,PR1

     1675    23583    3              VD$KEY.V$->VD$TEXTC_REMOTE.BYTES = KEY;

  23583  3 000733   000001 471500                    LDP1    1,,PR0
         3 000734   100002 236100                    LDQ     2,,PR1
         3 000735   000033 772000                    QRL     27
         3 000736   300000 720100                    LXL0    0,,PR3
         3 000737   200040 474500                    LDP4    @KEY,,AUTO
         3 000740   000000 621006                    EAX1    0,QL
         3 000741   040140 100540                    MLR     fill='040'O
         3 000742   400000 000010                    ADSC9   0,,PR4                   cn=0,n=*X0
         3 000743   100002 200011                    ADSC9   2,,PR1                   cn=1,n=*X1

     1676    23584    3              VD$KEY.REP# = %REP_REMOTE;

  23584  3 000744   000002 220003                    LDX0    2,DU
         3 000745   000000 440100                    SXL0    0,,PR0
PL6.E3A0      #001=VDG$WINIT File=VDG$WORKSPACE.:VDA5TSI                         FRI 07/04/97 11:25 Page:125

     1677    23585    3              END;

     1678    23586
     1679    23587    2           VD$KEY.TYPE# = %KT_STRING;

  23587  3 000746   000002 220003                    LDX0    2,DU
         3 000747   200041 470500                    LDP0    @VD$KEY,,AUTO
         3 000750   000000 740100                    STX0    0,,PR0

     1680    23588    2           RETURN;

  23588  3 000751   200036 221300                    LDX1  ! NB_KEY+2,,AUTO
         3 000752   000001 702211                    TSX2  ! 1,X1

  23587  3 000753                       OALLOC_FAIL* null
     1681    23589
     1682    23590
     1683    23591    2   OALLOC_FAILED: ;
     1684    23592    2           ALTRETURN;

  23592  3 000753   200036 221300                    LDX1  ! NB_KEY+2,,AUTO
         3 000754   000000 702211                    TSX2  ! 0,X1

     1685    23593
     1686    23594    2   END BUILD_REMOTE_KEY;
     1687    23595
     1688    23596        %BOX (TITLE=BUILD_STRUCTURE_NODE, PAGE=YES);
             23604    2
             23608    2   /***************************************************************************
             23610    2    *                                                                         *
             23614    2            *                            BUILD_STRUCTURE_NODE                        *
             23616    2            *                                                                        *
             23618    2          ***************************************************************************/

     1689    23622
     1690    23623        /*I* NAME: BUILD_STRUCTURE_NODE
PL6.E3A0      #001=VDG$WINIT File=VDG$WORKSPACE.:VDA5TSI                         FRI 07/04/97 11:25 Page:126
     1691    23624            PARAMETERS:
     1692    23625                L0_NODE - VD$FILE_NODE for level-0 of Structures file.
     1693    23626                INIT_TABLE - Initialization table for level-1 and its level-2
     1694    23627                    nodes.  These nodes are to be added to the file at eof.
     1695    23628            INPUT:
     1696    23629            OUTPUT:
     1697    23630                L0_NODE will have a new child, based on INIT_TABLE.
     1698    23631            DESCRIPTION:
     1699    23632                Allocate the level-1 node and it's Spec.
     1700    23633                Allocate all the level-2 children nodes and their Specs.
     1701    23634        */
     1702    23635
     1703    23636    1   BUILD_STRUCTURE_NODE: PROC (L0_NODE, INIT_TABLE) ALTRET;

  23636  3 000755   200026 741300       BUILD_STRUC* STX1  ! ALTRETURN_WHEN_DONE+2,,AUTO

     1704    23637
     1705    23638        %VD$FILE_NODE (NAME=L0_NODE, STCLASS=PARAM);
     1706    23731    2   DCL 1 INIT_TABLE (0:0),
     1707    23732              %VD_TEXTC (NAME=KEY, STCLASS=PARAM, MXNB=%MXNB_NAME, LEVEL=2, LAST=",");
     1708    23873    2         2 STRUCT_LEVEL$ PTR;
     1709    23874
     1710    23875
     1711    23876    2   DCL L1_NODE$ PTR;
     1712    23877    2   DCL I SBIN;
     1713    23878    2   DCL L2_NODE$ PTR;
     1714    23879    2   DCL NB_KEY SBIN;
     1715    23880
     1716    23881
     1717    23882        %VD$FILE_NODE (NAME=L1$NODE, STCLASS="BASED(L1_NODE$)");
     1718    23975        %VD$FILE_NODE (NAME=L2$NODE, STCLASS="BASED(L2_NODE$)");
     1719    24068        %VD$STRUCTURE_LEVEL;
     1720    24115
     1721    24116
     1722    24117
     1723    24118    2           CALL VDG$OALLOC (%CLS_FILE_NODE, L1_NODE$)

PL6.E3A0      #001=VDG$WINIT File=VDG$WORKSPACE.:VDA5TSI                         FRI 07/04/97 11:25 Page:127
  24118  3 000756   200031 630500                    EPPR0   L1_NODE$,,AUTO
         3 000757   200051 450500                    STP0    SAVE_ACCESSOR_PRIV+3,,AUTO
         3 000760   000001 236000 4                  LDQ     1
         3 000761   200050 756100                    STQ     SAVE_ACCESSOR_PRIV+2,,AUTO
         3 000762   200050 630500                    EPPR0   SAVE_ACCESSOR_PRIV+2,,AUTO
         3 000763   000020 631400 xsym               EPPR1   B_VECTNIL+16
         3 000764   000000 701000 xent               TSX1    VDG$OALLOC
         3 000765   001165 702000 3                  TSX2    OALLOC_FAILED

     1724    24119    2             ALTRET (OALLOC_FAILED);
     1725    24120    2           L1$NODE.BLINK$ = L0_NODE.TAIL$;

  24120  3 000766   200027 470500                    LDP0    @L0_NODE,,AUTO
         3 000767   000013 236100                    LDQ     11,,PR0
         3 000770   200031 471500                    LDP1    L1_NODE$,,AUTO
         3 000771   100001 756100                    STQ     1,,PR1

     1726    24121    2           L0_NODE.TAIL$ = L1_NODE$;

  24121  3 000772   200031 236100                    LDQ     L1_NODE$,,AUTO
         3 000773   000013 756100                    STQ     11,,PR0

     1727    24122    2           IF L1$NODE.BLINK$ = ADDR(NIL) THEN

  24122  3 000774   200031 471500                    LDP1    L1_NODE$,,AUTO
         3 000775   100001 236100                    LDQ     1,,PR1
         3 000776   000001 116000 xsym               CMPQ    B_VECTNIL+1
         3 000777   001003 601000 3                  TNZ     s:24125

     1728    24123    2              L0_NODE.HEAD$ = L1_NODE$;

  24123  3 001000   200031 236100                    LDQ     L1_NODE$,,AUTO
         3 001001   000012 756100                    STQ     10,,PR0
         3 001002   001006 710000 3                  TRA     s:24126

     1729    24124    2           ELSE
     1730    24125    2              L1$NODE.BLINK$->L1$NODE.FLINK$ = L1_NODE$;
PL6.E3A0      #001=VDG$WINIT File=VDG$WORKSPACE.:VDA5TSI                         FRI 07/04/97 11:25 Page:128

  24125  3 001003   100001 473500                    LDP3    1,,PR1
         3 001004   200031 236100                    LDQ     L1_NODE$,,AUTO
         3 001005   300002 756100                    STQ     2,,PR3

     1731    24126    2           L0_NODE.COUNT# = L0_NODE.COUNT# + 1;

  24126  3 001006   000014 054100                    AOS     12,,PR0

     1732    24127    2           L1$NODE.DESC.SPEC.TYPE# = %SPT_STRUCTURE_SPEC;

  24127  3 001007   000004 220003                    LDX0    4,DU
         3 001010   200031 471500                    LDP1    L1_NODE$,,AUTO
         3 001011   100006 740100                    STX0    6,,PR1

     1733    24128    2           L1$NODE.DESC.SPEC.REP# = %REP_REMOTE;

  24128  3 001012   000002 221003                    LDX1    2,DU
         3 001013   200031 471500                    LDP1    L1_NODE$,,AUTO
         3 001014   100006 441100                    SXL1    6,,PR1

     1734    24129    2           L1$NODE.ACCESS (%NAC_READ) = %TRUE;

  24129  3 001015   200031 471500                    LDP1    L1_NODE$,,AUTO
         3 001016   200000 236003                    LDQ     65536,DU
         3 001017   100003 256100                    ORSQ    3,,PR1

     1735    24130    2           NB_KEY = INIT_TABLE.KEY.LENGTH# (0);

  24130  3 001020   200030 471500                    LDP1    @INIT_TABLE,,AUTO
         3 001021   100000 236100                    LDQ     0,,PR1
         3 001022   000033 772000                    QRL     27
         3 001023   200034 756100                    STQ     NB_KEY,,AUTO

     1736    24131    2           CALL BUILD_REMOTE_KEY (NB_KEY, INIT_TABLE.KEY.BYTES (0),

  24131  3 001024   200031 236100                    LDQ     L1_NODE$,,AUTO
PL6.E3A0      #001=VDG$WINIT File=VDG$WORKSPACE.:VDA5TSI                         FRI 07/04/97 11:25 Page:129
         3 001025   000004 036003                    ADLQ    4,DU
         3 001026   200041 756100                    STQ     @VD$KEY,,AUTO
         3 001027   200030 236100                    LDQ     @INIT_TABLE,,AUTO
         3 001030   200000 036007                    ADLQ    65536,DL
         3 001031   200040 756100                    STQ     @KEY,,AUTO
         3 001032   200034 633500                    EPPR3   NB_KEY,,AUTO
         3 001033   200037 453500                    STP3    @NB_KEY,,AUTO
         3 001034   000702 701000 3                  TSX1    BUILD_REMOTE_KEY
         3 001035   001165 702000 3                  TSX2    OALLOC_FAILED

     1737    24132    2             L1$NODE.DESC.KEY)
     1738    24133    2             ALTRET (BUILD_REMOTE_KEY_FAILED);
     1739    24134
     1740    24135    2           CALL VDG$OALLOC (%CLS_STRUCTURE_SPEC, L1$NODE.DESC.SPEC.V$)

  24135  3 001036   200031 236100                    LDQ     L1_NODE$,,AUTO
         3 001037   000007 036003                    ADLQ    7,DU
         3 001040   000031 235000 4                  LDA     25
         3 001041   200050 757100                    STAQ    SAVE_ACCESSOR_PRIV+2,,AUTO
         3 001042   200050 630500                    EPPR0   SAVE_ACCESSOR_PRIV+2,,AUTO
         3 001043   000020 631400 xsym               EPPR1   B_VECTNIL+16
         3 001044   000000 701000 xent               TSX1    VDG$OALLOC
         3 001045   001165 702000 3                  TSX2    OALLOC_FAILED

     1741    24136    2             ALTRET (OALLOC_FAILED);
     1742    24137
     1743    24138    2           I = 1;

  24138  3 001046   000001 235007                    LDA     1,DL
         3 001047   200032 755100                    STA     I,,AUTO

     1744    24139    3           DO WHILE INIT_TABLE.STRUCT_LEVEL$ (I) ~= ADDR(NIL);

  24139  3 001050   001155 710000 3                  TRA     s:24161

     1745    24140    3              CALL VDG$OALLOC (%CLS_FILE_NODE, L2_NODE$)

PL6.E3A0      #001=VDG$WINIT File=VDG$WORKSPACE.:VDA5TSI                         FRI 07/04/97 11:25 Page:130
  24140  3 001051   200033 630500                    EPPR0   L2_NODE$,,AUTO
         3 001052   200051 450500                    STP0    SAVE_ACCESSOR_PRIV+3,,AUTO
         3 001053   000001 236000 4                  LDQ     1
         3 001054   200050 756100                    STQ     SAVE_ACCESSOR_PRIV+2,,AUTO
         3 001055   200050 630500                    EPPR0   SAVE_ACCESSOR_PRIV+2,,AUTO
         3 001056   000020 631400 xsym               EPPR1   B_VECTNIL+16
         3 001057   000000 701000 xent               TSX1    VDG$OALLOC
         3 001060   001165 702000 3                  TSX2    OALLOC_FAILED

     1746    24141    3                ALTRET (OALLOC_FAILED);
     1747    24142    3              L2$NODE.BLINK$ = L1$NODE.TAIL$;

  24142  3 001061   200031 470500                    LDP0    L1_NODE$,,AUTO
         3 001062   000013 236100                    LDQ     11,,PR0
         3 001063   200033 471500                    LDP1    L2_NODE$,,AUTO
         3 001064   100001 756100                    STQ     1,,PR1

     1748    24143    3              L1$NODE.TAIL$ = L2_NODE$;

  24143  3 001065   200033 236100                    LDQ     L2_NODE$,,AUTO
         3 001066   200031 470500                    LDP0    L1_NODE$,,AUTO
         3 001067   000013 756100                    STQ     11,,PR0

     1749    24144    3              IF L2$NODE.BLINK$ = ADDR(NIL) THEN

  24144  3 001070   200033 470500                    LDP0    L2_NODE$,,AUTO
         3 001071   000001 236100                    LDQ     1,,PR0
         3 001072   000001 116000 xsym               CMPQ    B_VECTNIL+1
         3 001073   001100 601000 3                  TNZ     s:24147

     1750    24145    3                 L1$NODE.HEAD$ = L2_NODE$;

  24145  3 001074   200033 236100                    LDQ     L2_NODE$,,AUTO
         3 001075   200031 471500                    LDP1    L1_NODE$,,AUTO
         3 001076   100012 756100                    STQ     10,,PR1
         3 001077   001103 710000 3                  TRA     s:24148

PL6.E3A0      #001=VDG$WINIT File=VDG$WORKSPACE.:VDA5TSI                         FRI 07/04/97 11:25 Page:131
     1751    24146    3              ELSE
     1752    24147    3                 L2$NODE.BLINK$->L2$NODE.FLINK$ = L2_NODE$;

  24147  3 001100   000001 471500                    LDP1    1,,PR0
         3 001101   200033 236100                    LDQ     L2_NODE$,,AUTO
         3 001102   100002 756100                    STQ     2,,PR1

     1753    24148    3              L1$NODE.COUNT# = L1$NODE.COUNT# + 1;

  24148  3 001103   200031 470500                    LDP0    L1_NODE$,,AUTO
         3 001104   000014 054100                    AOS     12,,PR0

     1754    24149    3              NB_KEY = INIT_TABLE.KEY.LENGTH# (I);

  24149  3 001105   200032 236100                    LDQ     I,,AUTO
         3 001106   000011 402007                    MPY     9,DL
         3 001107   200030 470500                    LDP0    @INIT_TABLE,,AUTO
         3 001110   000000 236106                    LDQ     0,QL,PR0
         3 001111   000033 772000                    QRL     27
         3 001112   200034 756100                    STQ     NB_KEY,,AUTO

     1755    24150    3              CALL BUILD_REMOTE_KEY (NB_KEY, INIT_TABLE.KEY.BYTES (I),

  24150  3 001113   200033 236100                    LDQ     L2_NODE$,,AUTO
         3 001114   000004 036003                    ADLQ    4,DU
         3 001115   200041 756100                    STQ     @VD$KEY,,AUTO
         3 001116   200032 236100                    LDQ     I,,AUTO
         3 001117   000011 402003                    MPY     9,DU
         3 001120   200000 036007                    ADLQ    65536,DL
         3 001121   200030 036100                    ADLQ    @INIT_TABLE,,AUTO
         3 001122   200040 756100                    STQ     @KEY,,AUTO
         3 001123   200034 631500                    EPPR1   NB_KEY,,AUTO
         3 001124   200037 451500                    STP1    @NB_KEY,,AUTO
         3 001125   000702 701000 3                  TSX1    BUILD_REMOTE_KEY
         3 001126   001165 702000 3                  TSX2    OALLOC_FAILED

     1756    24151    3                L2$NODE.DESC.KEY)
PL6.E3A0      #001=VDG$WINIT File=VDG$WORKSPACE.:VDA5TSI                         FRI 07/04/97 11:25 Page:132
     1757    24152    3                ALTRET (BUILD_REMOTE_KEY_FAILED);
     1758    24153    3              CALL VDG$OCOPY (INIT_TABLE.STRUCT_LEVEL$ (I) -> VD$STRUCTURE_LEVEL,

  24153  3 001127   200032 236100                    LDQ     I,,AUTO
         3 001130   000011 402007                    MPY     9,DL
         3 001131   200030 470500                    LDP0    @INIT_TABLE,,AUTO
         3 001132   000010 471506                    LDP1    8,QL,PR0
         3 001133   200033 236100                    LDQ     L2_NODE$,,AUTO
         3 001134   000007 036003                    ADLQ    7,DU
         3 001135   200051 756100                    STQ     SAVE_ACCESSOR_PRIV+3,,AUTO
         3 001136   200050 451500                    STP1    SAVE_ACCESSOR_PRIV+2,,AUTO
         3 001137   200050 630500                    EPPR0   SAVE_ACCESSOR_PRIV+2,,AUTO
         3 001140   000020 631400 xsym               EPPR1   B_VECTNIL+16
         3 001141   000000 701000 xent               TSX1    VDG$OCOPY
         3 001142   001165 702000 3                  TSX2    OALLOC_FAILED

     1759    24154    3                L2$NODE.DESC.SPEC.V$)
     1760    24155    3                ALTRET (OCOPY_FAILED);
     1761    24156    3              L2$NODE.DESC.SPEC.TYPE# = %SPT_STRUCTURE_LEVEL;

  24156  3 001143   000005 220003                    LDX0    5,DU
         3 001144   200033 470500                    LDP0    L2_NODE$,,AUTO
         3 001145   000006 740100                    STX0    6,,PR0

     1762    24157    3              L2$NODE.DESC.SPEC.REP# = %REP_REMOTE;

  24157  3 001146   000002 221003                    LDX1    2,DU
         3 001147   200033 470500                    LDP0    L2_NODE$,,AUTO
         3 001150   000006 441100                    SXL1    6,,PR0

     1763    24158    3              L2$NODE.ACCESS (%NAC_READ) = %TRUE;

  24158  3 001151   200033 470500                    LDP0    L2_NODE$,,AUTO
         3 001152   200000 236003                    LDQ     65536,DU
         3 001153   000003 256100                    ORSQ    3,,PR0

     1764    24159
PL6.E3A0      #001=VDG$WINIT File=VDG$WORKSPACE.:VDA5TSI                         FRI 07/04/97 11:25 Page:133
     1765    24160    3              I = I + 1;

  24160  3 001154   200032 054100                    AOS     I,,AUTO

     1766    24161    3              END;

  24161  3 001155   200032 236100                    LDQ     I,,AUTO
         3 001156   000011 402007                    MPY     9,DL
         3 001157   200030 470500                    LDP0    @INIT_TABLE,,AUTO
         3 001160   000010 236106                    LDQ     8,QL,PR0
         3 001161   000001 116000 xsym               CMPQ    B_VECTNIL+1
         3 001162   001051 601000 3                  TNZ     s:24140

     1767    24162
     1768    24163    2           RETURN;

  24163  3 001163   200026 221300                    LDX1  ! ALTRETURN_WHEN_DONE+2,,AUTO
         3 001164   000001 702211                    TSX2  ! 1,X1

  24160  3 001165                       OALLOC_FAIL* null
  24160  3 001165                       BUILD_REMOT* null
  24160  3 001165                       OCOPY_FAILED null
     1769    24164
     1770    24165
     1771    24166
     1772    24167    2   OALLOC_FAILED: ;
     1773    24168    2   BUILD_REMOTE_KEY_FAILED: ;
     1774    24169    2   OCOPY_FAILED: ;
     1775    24170    2           ALTRETURN;

  24170  3 001165   200026 221300                    LDX1  ! ALTRETURN_WHEN_DONE+2,,AUTO
         3 001166   000000 702211                    TSX2  ! 0,X1

     1776    24171
     1777    24172    2   END BUILD_STRUCTURE_NODE;
     1778    24173
     1779    24174        %BOX (TITLE=WRITE_PREDEFINED_NAMES, PAGE=YES);
PL6.E3A0      #001=VDG$WINIT File=VDG$WORKSPACE.:VDA5TSI                         FRI 07/04/97 11:25 Page:134
             24182    2
             24186    2   /***************************************************************************
             24188    2    *                                                                         *
             24192    2            *                           WRITE_PREDEFINED_NAMES                       *
             24194    2            *                                                                        *
             24196    2          ***************************************************************************/

     1780    24200
     1781    24201        /*I* NAME: WRITE_PREDEFINED_NAMES
     1782    24202            PARAMETERS:
     1783    24203                STREAM - VD$STREAM which is open to the Names-file to validate.
     1784    24204                INIT_TABLE - Array of .KEY$, .SPEC$, .DATA$, and .ACCESS$ pointers
     1785    24205                    giving the default initial values for the predefined names which
     1786    24206                    must appear in STREAM's file.
     1787    24207            INPUT:
     1788    24208            OUTPUT:
     1789    24209                STREAM's file will contain a record for each of the names in INIT_TABLE.
     1790    24210            DESCRIPTION:
     1791    24211                Loop thru INIT_TABLE, writing its records to STREAM's file.
     1792    24212                If we get a recoverable error writing the initial values, then just
     1793    24213                    let the errors pile up in the VD$ERR chain, and remember that
     1794    24214                    we want to altreturn at the end.  Don't altreturn at the time
     1795    24215                    of the error unless it's a fatal error, so that all the predefined
     1796    24216                    names get written.
     1797    24217        */
     1798    24218
     1799    24219    1   WRITE_PREDEFINED_NAMES: PROC (STREAM, INIT_TABLE) ALTRET;

  24219  3 001167   200026 741300       WRITE_PREDE* STX1  ! ALTRETURN_WHEN_DONE+2,,AUTO

     1800    24220
     1801    24221        %VD$STREAM (NAME=STREAM, STCLASS=PARAM);
     1802    24327    2   DCL 1 INIT_TABLE (0:0),
     1803    24328    2         2 KEY$ PTR,
     1804    24329    2         2 SPEC$ PTR,
     1805    24330    2         2 DATA$ PTR,
     1806    24331    2         2 ACCESS$ PTR;
PL6.E3A0      #001=VDG$WINIT File=VDG$WORKSPACE.:VDA5TSI                         FRI 07/04/97 11:25 Page:135
     1807    24332
     1808    24333
     1809    24334
     1810    24335    2   DCL NEXT_PREDEF SBIN;       /* Index into INIT_TABLE of next predef name */
     1811    24336    2   DCL HAD_ERROR BIT(1) ALIGNED;
     1812    24337        %VD$LOCATION (NAME=LOCATION, STCLASS=AUTO);
     1813    24365        %VD$SPEC (NAME=SPEC, STCLASS=AUTO);
     1814    24379    2   DCL SAVE_ACCESSOR_PRIV UBIN BYTE ALIGNED;
     1815    24380
     1816    24381
     1817    24382        %VD$PORT (NAME=PORT, STCLASS="BASED(STREAM.PORT$)");
     1818    24480        %VD_NAC (NAME=NAC, STCLASS=BASED);
     1819    24498        %VD$BUFFER;
     1820    24556        %VD$FILE_NODE;
     1821    24649
     1822    24650
     1823    24651
     1824    24652    2           HAD_ERROR = %FALSE;

  24652  3 001170   200032 450100                    STZ     HAD_ERROR,,AUTO

     1825    24653
     1826    24654    2           LOCATION = %CLEAR;

  24654  3 001171   000100 100400                    MLR     fill='000'O
         3 001172   000002 000001 xsym               ADSC9   B_VECTNIL+2              cn=0,n=1
         3 001173   200033 000044                    ADSC9   LOCATION,,AUTO           cn=0,n=36

     1827    24655    2           LOCATION.KEY.TYPE# (%(LVL_LOWER-1)) = %KT_STRING;

  24655  3 001174   000002 220003                    LDX0    2,DU
         3 001175   200033 740100                    STX0    LOCATION,,AUTO

     1828    24656    2           LOCATION.KEY.REP# (%(LVL_LOWER-1)) = %REP_REMOTE;

  24656  3 001176   200033 440100                    SXL0    LOCATION,,AUTO

PL6.E3A0      #001=VDG$WINIT File=VDG$WORKSPACE.:VDA5TSI                         FRI 07/04/97 11:25 Page:136
     1829    24657
     1830    24658    2           SAVE_ACCESSOR_PRIV = VD_ACCESSOR_PRIV;

  24658  3 001177   000000 236000 xsym               LDQ     VD_ACCESSOR_PRIV
         3 001200   000033 772000                    QRL     27
         3 001201   000033 736000                    QLS     27
         3 001202   200046 756100                    STQ     SAVE_ACCESSOR_PRIV,,AUTO

     1831    24659    2           VD_ACCESSOR_PRIV = %BITBIN(NAC_ALL_BITS);

  24659  3 001203   777000 236003                    LDQ     -512,DU
         3 001204   000000 756000 xsym               STQ     VD_ACCESSOR_PRIV

     1832    24660
     1833    24661    2           NEXT_PREDEF = 0;

  24661  3 001205   200031 450100                    STZ     NEXT_PREDEF,,AUTO

     1834    24662    3           DO WHILE (INIT_TABLE.KEY$ (NEXT_PREDEF) ~= ADDR(NIL));

  24662  3 001206   001265 710000 3                  TRA     s:24683

     1835    24663    3              LOCATION.KEY.V$ (%(LVL_LOWER-1)) = INIT_TABLE.KEY$ (NEXT_PREDEF);

  24663  3 001207   200031 235100                    LDA     NEXT_PREDEF,,AUTO
         3 001210   000002 735000                    ALS     2
         3 001211   200030 470500                    LDP0    @INIT_TABLE,,AUTO
         3 001212   000000 236105                    LDQ     0,AL,PR0
         3 001213   200034 756100                    STQ     NB_KEY,,AUTO

     1836    24664    3              SPEC = %CLEAR;

  24664  3 001214   000000 235003                    LDA     0,DU
         3 001215   000000 236003                    LDQ     0,DU
         3 001216   200044 757100                    STAQ    SPEC,,AUTO

     1837    24665    3              SPEC.TYPE# = %SPT_NAME_SPEC;
PL6.E3A0      #001=VDG$WINIT File=VDG$WORKSPACE.:VDA5TSI                         FRI 07/04/97 11:25 Page:137

  24665  3 001217   000003 220003                    LDX0    3,DU
         3 001220   200044 740100                    STX0    SPEC,,AUTO

     1838    24666    3              SPEC.REP# = %REP_REMOTE;

  24666  3 001221   000002 221003                    LDX1    2,DU
         3 001222   200044 441100                    SXL1    SPEC,,AUTO

     1839    24667    3              SPEC.V$ = INIT_TABLE.SPEC$ (NEXT_PREDEF);

  24667  3 001223   200031 235100                    LDA     NEXT_PREDEF,,AUTO
         3 001224   000002 735000                    ALS     2
         3 001225   000001 236105                    LDQ     1,AL,PR0
         3 001226   200045 756100                    STQ     SPEC+1,,AUTO

     1840    24668    3              CALL VDA$LWRITE (STREAM, LOCATION, SPEC,

  24668  3 001227   000002 471505                    LDP1    2,AL,PR0
         3 001230   200053 451500                    STP1    SAVE_ACCESSOR_PRIV+5,,AUTO
         3 001231   200044 633500                    EPPR3   SPEC,,AUTO
         3 001232   200052 453500                    STP3    SAVE_ACCESSOR_PRIV+4,,AUTO
         3 001233   200033 634500                    EPPR4   LOCATION,,AUTO
         3 001234   200051 454500                    STP4    SAVE_ACCESSOR_PRIV+3,,AUTO
         3 001235   200027 236100                    LDQ     @STREAM,,AUTO
         3 001236   200050 756100                    STQ     SAVE_ACCESSOR_PRIV+2,,AUTO
         3 001237   200050 630500                    EPPR0   SAVE_ACCESSOR_PRIV+2,,AUTO
         3 001240   000022 631400 xsym               EPPR1   B_VECTNIL+18
         3 001241   000000 701000 xent               TSX1    VDA$LWRITE
         3 001242   001255 702000 3                  TSX2    s:24676

     1841    24669    3                INIT_TABLE.DATA$ (NEXT_PREDEF) -> VD$BUFFER)
     1842    24670    4              WHENRETURN DO;

     1843    24671    4                 PORT.LEVEL.INTERNAL$ (%LVL_LOWER) ->

  24671  3 001243   200027 470500                    LDP0    @STREAM,,AUTO
PL6.E3A0      #001=VDG$WINIT File=VDG$WORKSPACE.:VDA5TSI                         FRI 07/04/97 11:25 Page:138
         3 001244   000001 471500                    LDP1    1,,PR0
         3 001245   100040 473500                    LDP3    32,,PR1
         3 001246   200031 235100                    LDA     NEXT_PREDEF,,AUTO
         3 001247   000002 735000                    ALS     2
         3 001250   200030 474500                    LDP4    @INIT_TABLE,,AUTO
         3 001251   400003 475505                    LDP5    3,AL,PR4
         3 001252   500000 236100                    LDQ     0,,PR5
         3 001253   300003 552140                    STBQ    3,'40'O,PR3

     1844    24672    4                   VD$FILE_NODE.ACCESS = INIT_TABLE.ACCESS$ (NEXT_PREDEF) ->
     1845    24673    4                   NAC.ACCESS;
     1846    24674    4                 END;

  24674  3 001254   001264 710000 3                  TRA     s:24682

     1847    24675    4              WHENALTRETURN DO;

     1848    24676    4                 IF FATAL$ERR.ERR ~= %CLEAR THEN

  24676  3 001255   000031 470400 xsym               LDP0    VD_6E+25
         3 001256   000002 235100                    LDA     2,,PR0
         3 001257   001262 600000 3                  TZE     s:24679

     1849    24677    4                    ALTRETURN;     /* Give up on fatal errors */

  24677  3 001260   200026 221300                    LDX1  ! ALTRETURN_WHEN_DONE+2,,AUTO
         3 001261   000000 702211                    TSX2  ! 0,X1

     1850    24678                      /* But continue on non-fatal errors */
     1851    24679    4                 HAD_ERROR = %TRUE;

  24679  3 001262   400000 236003                    LDQ     -131072,DU
         3 001263   200032 756100                    STQ     HAD_ERROR,,AUTO

     1852    24680    4                 END;

     1853    24681
PL6.E3A0      #001=VDG$WINIT File=VDG$WORKSPACE.:VDA5TSI                         FRI 07/04/97 11:25 Page:139
     1854    24682    3              NEXT_PREDEF = NEXT_PREDEF + 1;

  24682  3 001264   200031 054100                    AOS     NEXT_PREDEF,,AUTO

     1855    24683    3              END;

  24683  3 001265   200031 235100                    LDA     NEXT_PREDEF,,AUTO
         3 001266   000002 735000                    ALS     2
         3 001267   200030 470500                    LDP0    @INIT_TABLE,,AUTO
         3 001270   000000 236105                    LDQ     0,AL,PR0
         3 001271   000001 116000 xsym               CMPQ    B_VECTNIL+1
         3 001272   001207 601000 3                  TNZ     s:24663

     1856    24684
     1857    24685                /* Make sure the last record gets flushed */
     1858    24686    2           CALL VDA$PFLUSH (PORT, %TO_PRESENTER)

  24686  3 001273   200027 471500                    LDP1    @STREAM,,AUTO
         3 001274   100001 473500                    LDP3    1,,PR1
         3 001275   000016 236000 4                  LDQ     14
         3 001276   200051 756100                    STQ     SAVE_ACCESSOR_PRIV+3,,AUTO
         3 001277   200050 453500                    STP3    SAVE_ACCESSOR_PRIV+2,,AUTO
         3 001300   200050 630500                    EPPR0   SAVE_ACCESSOR_PRIV+2,,AUTO
         3 001301   000020 631400 xsym               EPPR1   B_VECTNIL+16
         3 001302   000000 701000 xent               TSX1    VDA$PFLUSH
         3 001303   001305 702000 3                  TSX2    s:24688
         3 001304   001314 710000 3                  TRA     s:24694

     1859    24687    3           WHENALTRETURN DO;

     1860    24688    3              IF FATAL$ERR.ERR ~= %CLEAR THEN

  24688  3 001305   000031 470400 xsym               LDP0    VD_6E+25
         3 001306   000002 235100                    LDA     2,,PR0
         3 001307   001312 600000 3                  TZE     s:24691

     1861    24689    3                 ALTRETURN;     /* Give up on fatal errors */
PL6.E3A0      #001=VDG$WINIT File=VDG$WORKSPACE.:VDA5TSI                         FRI 07/04/97 11:25 Page:140

  24689  3 001310   200026 221300                    LDX1  ! ALTRETURN_WHEN_DONE+2,,AUTO
         3 001311   000000 702211                    TSX2  ! 0,X1

     1862    24690                   /* But continue on non-fatal errors */
     1863    24691    3              HAD_ERROR = %TRUE;

  24691  3 001312   400000 236003                    LDQ     -131072,DU
         3 001313   200032 756100                    STQ     HAD_ERROR,,AUTO

     1864    24692    3              END;

     1865    24693
     1866    24694    2           VD_ACCESSOR_PRIV = SAVE_ACCESSOR_PRIV;

  24694  3 001314   200046 236100                    LDQ     SAVE_ACCESSOR_PRIV,,AUTO
         3 001315   000033 772000                    QRL     27
         3 001316   000033 736000                    QLS     27
         3 001317   000000 756000 xsym               STQ     VD_ACCESSOR_PRIV

     1867    24695
     1868    24696    2           IF HAD_ERROR THEN

  24696  3 001320   200032 234100                    SZN     HAD_ERROR,,AUTO
         3 001321   001324 605000 3                  TPL     s:24699

     1869    24697    2              ALTRETURN;

  24697  3 001322   200026 221300                    LDX1  ! ALTRETURN_WHEN_DONE+2,,AUTO
         3 001323   000000 702211                    TSX2  ! 0,X1

     1870    24698
     1871    24699    2           RETURN;

  24699  3 001324   200026 221300                    LDX1  ! ALTRETURN_WHEN_DONE+2,,AUTO
         3 001325   000001 702211                    TSX2  ! 1,X1
     1872    24700
PL6.E3A0      #001=VDG$WINIT File=VDG$WORKSPACE.:VDA5TSI                         FRI 07/04/97 11:25 Page:141
     1873    24701    2   END WRITE_PREDEFINED_NAMES;
     1874    24702
     1875    24703    1   END VDG$WINIT;

PL6.E3A0      #001=VDG$WINIT File=VDG$WORKSPACE.:VDA5TSI                         FRI 07/04/97 11:25 Page:142
--  Include file information  --

   CP_6_SUBS.:LIBRARY  is referenced.
   CP_6.:LIBRARY  cannot be made into a system file and is referenced.
   VD_PERR_C.:VDA5TOU  is referenced.
   VD_MACROS_M.:VDA5TOU  is referenced.
   B$JIT_C.:E04TOU  was found in the system file and is never referenced.
   CP_6_C.:E04TOU  was found in the system file and is referenced.
      No diagnostics issued in procedure VDG$WINIT.
PL6.E3A0      #001=VDG$WINIT File=VDG$WORKSPACE.:VDA5TSI                         FRI 07/04/97 11:25 Page:143

 **** Variables and constants ****

  ****  Section 001 RoData VDG$WINIT

  ****  Scalars and arrays  ****
OctLoc.c.b A Datatyp(siz) R M Lvl/name                 OctLoc.c.b A Datatyp(siz) R M Lvl/name

  1476-0-0/w STRC(9)     r     1 A_$$INCANTATION         1513-0-0/w STRC(9)     r     1 A_$$MON_ACC
  1530-0-0/w STRC(9)     r     1 A_$$MON_EVAL            1545-0-0/w STRC(9)     r     1 A_$$MON_PRES
  1561-0-0/w STRC(9)     r     1 A_$$QUAC                1576-0-0/w STRC(9)     r     1 A_$AUTOTAB
  1615-0-0/w STRC(9)     r     1 A_$BY                   1631-0-0/w STRC(9)     r     1 A_$CASE
  1662-0-0/w STRC(9)     r     1 A_$COMMENT              1677-0-0/w STRC(9)     r     1 A_$COMPONENT
  1714-0-0/w STRC(9)     r     1 A_$CONTEXT              1731-0-0/w STRC(9)     r     1 A_$CONTROL
  1751-0-0/w STRC(9)     r     1 A_$DEFAULT_DESTINATION
  1767-0-0/w STRC(9)     r     1 A_$DEFAULT_SOURCE       2004-0-0/w STRC(9)     r     1 A_$DIRECTION
  3630-0-0/w STRC(9)     r     1 A_$ENCLOSING            2021-0-0/w STRC(9)     r     1 A_$EOF_MARK
  2035-0-0/w STRC(9)     r     1 A_$EXIST                2052-0-0/w STRC(9)     r     1 A_$EZ_APPEND
  2104-0-0/w STRC(9)     r     1 A_$FILEORG              2122-0-0/w STRC(9)     r     1 A_$FILERECORDS
  2067-0-0/w STRC(9)     r     1 A_$FILETYPE             3643-0-0/w STRC(9)     r     1 A_$FP
  2136-0-0/w STRC(9)     r     1 A_$HSALL                2144-0-0/w STRC(9)     r     1 A_$HSCROLL
  2153-0-0/w STRC(9)     r     1 A_$HSCROLL_MARGIN       2204-0-0/w STRC(9)     r     1 A_$INITIALIZE
  2167-0-0/w STRC(9)     r     1 A_$INSERT               2221-0-0/w STRC(9)     r     1 A_$INTRO_1
  2236-0-0/w STRC(9)     r     1 A_$INTRO_2              2254-0-0/w STRC(9)     r     1 A_$KEY_GENERATION
  3660-0-0/w STRC(9)     r     1 A_$LEFTOVER             2271-0-0/w STRC(9)     r     1 A_$MATCHES
  2307-0-0/w STRC(9)     r     1 A_$MATCH_LIMIT          2316-0-0/w STRC(9)     r     1 A_$MAX_COMMAND
  2333-0-0/w STRC(9)     r     1 A_$MAX_RECORD           2342-0-0/w STRC(9)     r     1 A_$MIN_COMMAND
  2357-0-0/w STRC(9)     r     1 A_$MIN_RECORD           3675-0-0/w STRC(9)     r     1 A_$NOT_COPIED
  2375-0-0/w STRC(9)     r     1 A_$ONESPACEEDIT         2411-0-0/w STRC(9)     r     1 A_$PAD
  2426-0-0/w STRC(9)     r     1 A_$PATTERN              2442-0-0/w STRC(9)     r     1 A_$POINT
  2457-0-0/w STRC(9)     r     1 A_$PROTECT              3711-0-0/w STRC(9)     r     1 A_$RANGE
  2476-0-0/w STRC(9)     r     1 A_$RECORDS_DELETED      2515-0-0/w STRC(9)     r     1 A_$RECORDS_INSERTED
  2532-0-0/w STRC(9)     r     1 A_$RECORDWRAP           2546-0-0/w STRC(9)     r     1 A_$REKEY
  2563-0-0/w STRC(9)     r     1 A_$RESTORE              2570-0-0/w STRC(9)     r     1 A_$SCREEN
  2604-0-0/w STRC(9)     r     1 A_$SCROLL               2620-0-0/w STRC(9)     r     1 A_$SEARCH
  2634-0-0/w STRC(9)     r     1 A_$SITES                2650-0-0/w STRC(9)     r     1 A_$SKIP
  2666-0-0/w STRC(9)     r     1 A_$STRIP_BLANKS         2703-0-0/w STRC(9)     r     1 A_$STRUCTURE
  2720-0-0/w STRC(9)     r     1 A_$TEXTEDIT             2726-0-0/w STRC(9)     r     1 A_$VSCROLL
PL6.E3A0      #001=VDG$WINIT File=VDG$WORKSPACE.:VDA5TSI                         FRI 07/04/97 11:25 Page:144
  2735-0-0/w STRC(9)     r     1 A_$VSCROLL_MARGIN       2752-0-0/w STRC(9)     r     1 A_$WI_BORDER
  2767-0-0/w STRC(9)     r     1 A_$WI_PERCENT           3004-0-0/w STRC(9)     r     1 A_$WORDWRAP
  3021-0-0/w STRC(9)     r     1 A_$WS_STORAGE           3040-0-0/w STRC(9)     r     1 A_ANY
  3057-0-0/w STRC(9)     r     1 A_AO                    3100-0-0/w STRC(9)     r     1 A_BACKWARD
  3120-0-0/w STRC(9)     r     1 A_BIN10                 3140-0-0/w STRC(9)     r     1 A_BIN521
  3160-0-0/w STRC(9)     r     1 A_BINHLF                3177-0-0/w STRC(9)     r     1 A_BO
  3725-0-0/w STRC(9)     r     1 A_CURR                  3741-0-0/w STRC(9)     r     1 A_CURRENT
  3217-0-0/w STRC(9)     r     1 A_DATA                  3241-0-0/w STRC(9)     r     1 A_DONT_PROTECT
  3260-0-0/w STRC(9)     r     1 A_EO                    3300-0-0/w STRC(9)     r     1 A_FORWARD
  3755-0-0/w STRC(9)     r     1 A_HERE                  3317-0-0/w STRC(9)     r     1 A_KEY
  3336-0-0/w STRC(9)     r     1 A_NEW                   3355-0-0/w STRC(9)     r     1 A_OFF
  3374-0-0/w STRC(9)     r     1 A_OLD                   3413-0-0/w STRC(9)     r     1 A_ON
  3433-0-0/w STRC(9)     r     1 A_PROTECT               3453-0-0/w STRC(9)     r     1 A_SPEC
  3473-0-0/w STRC(9)     r     1 A_STRING                3771-0-0/w STRC(9)     r     1 A_THAT
   515-0-0/w STRC(324)   r     1 CONSEC_L1               1473-0-0/w STRC(99)    r     1 D_$$INCANTATION
  1611-0-0/w STRC(144)   r     1 D_$BY                   3034-0-0/w STRC(144)   r     1 D_ANY
  3053-0-0/w STRC(144)   r     1 D_AO                    3074-0-0/w STRC(144)   r     1 D_BACKWARD
  3114-0-0/w STRC(144)   r     1 D_BIN10                 3134-0-0/w STRC(144)   r     1 D_BIN521
  3154-0-0/w STRC(144)   r     1 D_BINHLF                3173-0-0/w STRC(144)   r     1 D_BO
  3213-0-0/w STRC(144)   r     1 D_DATA                  3235-0-0/w STRC(144)   r     1 D_DONT_PROTECT
  3254-0-0/w STRC(144)   r     1 D_EO                    3274-0-0/w STRC(144)   r     1 D_FORWARD
  3313-0-0/w STRC(144)   r     1 D_KEY                   3332-0-0/w STRC(144)   r     1 D_NEW
  3351-0-0/w STRC(144)   r     1 D_OFF                   3370-0-0/w STRC(144)   r     1 D_OLD
  3407-0-0/w STRC(144)   r     1 D_ON                    3427-0-0/w STRC(144)   r     1 D_PROTECT
  3447-0-0/w STRC(144)   r     1 D_SPEC                  3467-0-0/w STRC(144)   r     1 D_STRING
   504-0-0/w STRC(324)   r     1 EDITKEY_L1              3772-0-0/w STRC(72)    r     1 EQUALS_L0_KEY
   462-0-0/w STRC(324)   r     1 EXTERNAL_L0              473-0-0/w STRC(324)   r     1 EXTERNAL_L1
   110-0-0/w STRC(324)   r     1 INIT_CONSEC(0:3)
    44-0-0/w STRC(324)   r     1 INIT_EDITKEY(0:3)
     0-0-0/w STRC(324)   r     1 INIT_EXTERNAL(0:3)
   220-0-0/w STRC(324)   r     1 INIT_NAMES(0:3)
   264-0-0/w STRC(324)   r     1 INIT_SCRATCH(0:3)
   154-0-0/w STRC(324)   r     1 INIT_STRINGKEY(0:3)
   330-0-0/w STRC(324)   r     1 INIT_STRUCTURES(0:4)
   405-0-0/w STRC(324)   r     1 INIT_WINDOWS(0:4)
   537-0-0/w STRC(324)   r     1 INTERNAL_L0             4070-0-0/w STRC(648)   r     1 KEYINS_FILE_KEY
  4066-0-0/w STRC(72)    r     1 KEYINS_L0_KEY           1456-0-0/w STRC(198)   r     1 K_$$INCANTATION
PL6.E3A0      #001=VDG$WINIT File=VDG$WORKSPACE.:VDA5TSI                         FRI 07/04/97 11:25 Page:145
  1477-0-0/w STRC(162)   r     1 K_$$MON_ACC             1514-0-0/w STRC(171)   r     1 K_$$MON_EVAL
  1531-0-0/w STRC(171)   r     1 K_$$MON_PRES            1546-0-0/w STRC(135)   r     1 K_$$QUAC
  1562-0-0/w STRC(153)   r     1 K_$AUTOTAB              1577-0-0/w STRC(108)   r     1 K_$BY
  1616-0-0/w STRC(126)   r     1 K_$CASE                 1632-0-0/w STRC(153)   r     1 K_$COMMAND
  1646-0-0/w STRC(153)   r     1 K_$COMMENT              1663-0-0/w STRC(171)   r     1 K_$COMPONENT
  1700-0-0/w STRC(153)   r     1 K_$CONTEXT              1715-0-0/w STRC(153)   r     1 K_$CONTROL
  1732-0-0/w STRC(261)   r     1 K_$DEFAULT_DESTINATION
  1752-0-0/w STRC(216)   r     1 K_$DEFAULT_SOURCE       1770-0-0/w STRC(171)   r     1 K_$DIRECTION
  3614-0-0/w STRC(171)   r     1 K_$ENCLOSING            2005-0-0/w STRC(162)   r     1 K_$EOF_MARK
  2022-0-0/w STRC(135)   r     1 K_$EXIST                2036-0-0/w STRC(171)   r     1 K_$EZ_APPEND
  2070-0-0/w STRC(153)   r     1 K_$FILEORG              2105-0-0/w STRC(189)   r     1 K_$FILERECORDS
  2053-0-0/w STRC(162)   r     1 K_$FILETYPE             3631-0-0/w STRC(108)   r     1 K_$FP
  2123-0-0/w STRC(135)   r     1 K_$HSALL                2137-0-0/w STRC(153)   r     1 K_$HSCROLL
  2145-0-0/w STRC(216)   r     1 K_$HSCROLL_MARGIN       2170-0-0/w STRC(180)   r     1 K_$INITIALIZE
  2154-0-0/w STRC(144)   r     1 K_$INSERT               2205-0-0/w STRC(153)   r     1 K_$INTRO_1
  2222-0-0/w STRC(153)   r     1 K_$INTRO_2              2237-0-0/w STRC(216)   r     1 K_$KEY_GENERATION
  3644-0-0/w STRC(162)   r     1 K_$LEFTOVER             2255-0-0/w STRC(153)   r     1 K_$MATCHES
  2272-0-0/w STRC(189)   r     1 K_$MATCH_LIMIT          2310-0-0/w STRC(189)   r     1 K_$MAX_COMMAND
  2317-0-0/w STRC(180)   r     1 K_$MAX_RECORD           2334-0-0/w STRC(189)   r     1 K_$MIN_COMMAND
  2343-0-0/w STRC(180)   r     1 K_$MIN_RECORD           3661-0-0/w STRC(180)   r     1 K_$NOT_COPIED
  2360-0-0/w STRC(198)   r     1 K_$ONESPACEEDIT         2376-0-0/w STRC(117)   r     1 K_$PAD
  2412-0-0/w STRC(153)   r     1 K_$PATTERN              2427-0-0/w STRC(135)   r     1 K_$POINT
  2443-0-0/w STRC(153)   r     1 K_$PROTECT              3676-0-0/w STRC(135)   r     1 K_$RANGE
  2460-0-0/w STRC(225)   r     1 K_$RECORDS_DELETED      2477-0-0/w STRC(234)   r     1 K_$RECORDS_INSERTED
  2516-0-0/w STRC(180)   r     1 K_$RECORDWRAP           2533-0-0/w STRC(135)   r     1 K_$REKEY
  2547-0-0/w STRC(153)   r     1 K_$RESTORE              2564-0-0/w STRC(144)   r     1 K_$SCREEN
  2571-0-0/w STRC(144)   r     1 K_$SCROLL               2605-0-0/w STRC(144)   r     1 K_$SEARCH
  2621-0-0/w STRC(135)   r     1 K_$SITES                2635-0-0/w STRC(126)   r     1 K_$SKIP
  2651-0-0/w STRC(198)   r     1 K_$STRIP_BLANKS         2667-0-0/w STRC(171)   r     1 K_$STRUCTURE
  2704-0-0/w STRC(162)   r     1 K_$TEXTEDIT             2721-0-0/w STRC(153)   r     1 K_$VSCROLL
  2727-0-0/w STRC(216)   r     1 K_$VSCROLL_MARGIN       2736-0-0/w STRC(171)   r     1 K_$WI_BORDER
  2753-0-0/w STRC(180)   r     1 K_$WI_PERCENT           2770-0-0/w STRC(162)   r     1 K_$WORDWRAP
  3005-0-0/w STRC(180)   r     1 K_$WS_STORAGE           3022-0-0/w STRC(108)   r     1 K_ANY
  3041-0-0/w STRC(99)    r     1 K_AO                    3060-0-0/w STRC(153)   r     1 K_BACKWARD
  3101-0-0/w STRC(126)   r     1 K_BIN10                 3121-0-0/w STRC(135)   r     1 K_BIN521
  3141-0-0/w STRC(135)   r     1 K_BINHLF                3161-0-0/w STRC(99)    r     1 K_BO
  3712-0-0/w STRC(117)   r     1 K_CURR                  3726-0-0/w STRC(144)   r     1 K_CURRENT
PL6.E3A0      #001=VDG$WINIT File=VDG$WORKSPACE.:VDA5TSI                         FRI 07/04/97 11:25 Page:146
  3200-0-0/w STRC(117)   r     1 K_DATA                  3220-0-0/w STRC(189)   r     1 K_DONT_PROTECT
  3242-0-0/w STRC(99)    r     1 K_EO                    3261-0-0/w STRC(144)   r     1 K_FORWARD
  3742-0-0/w STRC(117)   r     1 K_HERE                  3301-0-0/w STRC(108)   r     1 K_KEY
  3320-0-0/w STRC(108)   r     1 K_NEW                   3337-0-0/w STRC(108)   r     1 K_OFF
  3356-0-0/w STRC(108)   r     1 K_OLD                   3375-0-0/w STRC(99)    r     1 K_ON
  3414-0-0/w STRC(144)   r     1 K_PROTECT               3434-0-0/w STRC(117)   r     1 K_SPEC
  3454-0-0/w STRC(135)   r     1 K_STRING                3756-0-0/w STRC(117)   r     1 K_THAT
  4020-0-0/w STRC(648)   r     1 LOCATIONS_FILE_KEY
  3474-0-0/w STRC(144)   r     1 LOCATIONS_INIT(0:19)
  4016-0-0/w STRC(72)    r     1 LOCATIONS_L0_KEY         550-0-0/w STRC(324)   r     1 NAMES_L1
   561-0-0/w STRC(324)   r     1 SCRATCH_L1               526-0-0/w STRC(324)   r     1 STRINGKEY_L1
   572-0-0/w STRC(324)   r     1 STRUCTURES_L1            603-0-0/w STRC(324)   r     1 STRUCTURES_L2
  4044-0-0/w STRC(648)   r     1 SYNONYMS_FILE_KEY       4042-0-0/w STRC(72)    r     1 SYNONYMS_L0_KEY
  1464-0-0/w STRC(252)   r     1 S_$$INCANTATION         1504-0-0/w STRC(252)   r     1 S_$$MON_ACC
  1521-0-0/w STRC(252)   r     1 S_$$MON_EVAL            1536-0-0/w STRC(252)   r     1 S_$$MON_PRES
  1552-0-0/w STRC(252)   r     1 S_$$QUAC                1567-0-0/w STRC(252)   r     1 S_$AUTOTAB
  1602-0-0/w STRC(252)   r     1 S_$BY                   1622-0-0/w STRC(252)   r     1 S_$CASE
  1637-0-0/w STRC(252)   r     1 S_$COMMAND              1653-0-0/w STRC(252)   r     1 S_$COMMENT
  1670-0-0/w STRC(252)   r     1 S_$COMPONENT            1705-0-0/w STRC(252)   r     1 S_$CONTEXT
  1722-0-0/w STRC(252)   r     1 S_$CONTROL
  1742-0-0/w STRC(252)   r     1 S_$DEFAULT_DESTINATION
  1760-0-0/w STRC(252)   r     1 S_$DEFAULT_SOURCE       1775-0-0/w STRC(252)   r     1 S_$DIRECTION
  3621-0-0/w STRC(252)   r     1 S_$ENCLOSING            2012-0-0/w STRC(252)   r     1 S_$EOF_MARK
  2026-0-0/w STRC(252)   r     1 S_$EXIST                2043-0-0/w STRC(252)   r     1 S_$EZ_APPEND
  2075-0-0/w STRC(252)   r     1 S_$FILEORG              2113-0-0/w STRC(252)   r     1 S_$FILERECORDS
  2060-0-0/w STRC(252)   r     1 S_$FILETYPE             3634-0-0/w STRC(252)   r     1 S_$FP
  2127-0-0/w STRC(252)   r     1 S_$HSALL                2175-0-0/w STRC(252)   r     1 S_$INITIALIZE
  2160-0-0/w STRC(252)   r     1 S_$INSERT               2212-0-0/w STRC(252)   r     1 S_$INTRO_1
  2227-0-0/w STRC(252)   r     1 S_$INTRO_2              2245-0-0/w STRC(252)   r     1 S_$KEY_GENERATION
  3651-0-0/w STRC(252)   r     1 S_$LEFTOVER             2262-0-0/w STRC(252)   r     1 S_$MATCHES
  2300-0-0/w STRC(252)   r     1 S_$MATCH_LIMIT          2324-0-0/w STRC(252)   r     1 S_$MAX_RECORD
  2350-0-0/w STRC(252)   r     1 S_$MIN_RECORD           3666-0-0/w STRC(252)   r     1 S_$NOT_COPIED
  2366-0-0/w STRC(252)   r     1 S_$ONESPACEEDIT         2402-0-0/w STRC(252)   r     1 S_$PAD
  2417-0-0/w STRC(252)   r     1 S_$PATTERN              2433-0-0/w STRC(252)   r     1 S_$POINT
  2450-0-0/w STRC(252)   r     1 S_$PROTECT              3702-0-0/w STRC(252)   r     1 S_$RANGE
  2467-0-0/w STRC(252)   r     1 S_$RECORDS_DELETED      2506-0-0/w STRC(252)   r     1 S_$RECORDS_INSERTED
  2523-0-0/w STRC(252)   r     1 S_$RECORDWRAP           2537-0-0/w STRC(252)   r     1 S_$REKEY
PL6.E3A0      #001=VDG$WINIT File=VDG$WORKSPACE.:VDA5TSI                         FRI 07/04/97 11:25 Page:147
  2554-0-0/w STRC(252)   r     1 S_$RESTORE              2575-0-0/w STRC(252)   r     1 S_$SCROLL
  2611-0-0/w STRC(252)   r     1 S_$SEARCH               2625-0-0/w STRC(252)   r     1 S_$SITES
  2641-0-0/w STRC(252)   r     1 S_$SKIP                 2657-0-0/w STRC(252)   r     1 S_$STRIP_BLANKS
  2674-0-0/w STRC(252)   r     1 S_$STRUCTURE            2711-0-0/w STRC(252)   r     1 S_$TEXTEDIT
  2743-0-0/w STRC(252)   r     1 S_$WI_BORDER            2760-0-0/w STRC(252)   r     1 S_$WI_PERCENT
  2775-0-0/w STRC(252)   r     1 S_$WORDWRAP             3012-0-0/w STRC(252)   r     1 S_$WS_STORAGE
  3025-0-0/w STRC(252)   r     1 S_ANY                   3044-0-0/w STRC(252)   r     1 S_AO
  3065-0-0/w STRC(252)   r     1 S_BACKWARD              3105-0-0/w STRC(252)   r     1 S_BIN10
  3125-0-0/w STRC(252)   r     1 S_BIN521                3145-0-0/w STRC(252)   r     1 S_BINHLF
  3164-0-0/w STRC(252)   r     1 S_BO                    3716-0-0/w STRC(252)   r     1 S_CURR
  3732-0-0/w STRC(252)   r     1 S_CURRENT               3204-0-0/w STRC(252)   r     1 S_DATA
  3226-0-0/w STRC(252)   r     1 S_DONT_PROTECT          3245-0-0/w STRC(252)   r     1 S_EO
  3265-0-0/w STRC(252)   r     1 S_FORWARD               3746-0-0/w STRC(252)   r     1 S_HERE
  3304-0-0/w STRC(252)   r     1 S_KEY                   3323-0-0/w STRC(252)   r     1 S_NEW
  3342-0-0/w STRC(252)   r     1 S_OFF                   3361-0-0/w STRC(252)   r     1 S_OLD
  3400-0-0/w STRC(252)   r     1 S_ON                    3420-0-0/w STRC(252)   r     1 S_PROTECT
  3440-0-0/w STRC(252)   r     1 S_SPEC                  3460-0-0/w STRC(252)   r     1 S_STRING
  3762-0-0/w STRC(252)   r     1 S_THAT
   636-0-0/w STRC(144)   r     1 VD_EQUALS_INIT(0:99)
  3774-0-0/w STRC(648)   r     1 VD_FKEY_NAMES_EQUALS    4114-0-0/w STRC(648)   r     1 WINDOWS_FILE_KEY
  4112-0-0/w STRC(72)    r     1 WINDOWS_L0_KEY           614-0-0/w STRC(324)   r     1 WINDOWS_L1
   625-0-0/w STRC(324)   r     1 WINDOWS_L2

  ****  Section 002  Data  VDG$WINIT

  ****  Scalars and arrays  ****
OctLoc.c.b A Datatyp(siz) R M Lvl/name                 OctLoc.c.b A Datatyp(siz) R M Lvl/name

    46-0-0/w STRC(9)     r     1 A_$COMMAND               164-0-0/w STRC(252)   r     1 S_$HSCROLL
   177-0-0/w STRC(252)   r     1 S_$HSCROLL_MARGIN        243-0-0/w STRC(252)   r     1 S_$MAX_COMMAND
   262-0-0/w STRC(252)   r     1 S_$MIN_COMMAND           431-0-0/w STRC(252)   r     1 S_$SCREEN
   500-0-0/w STRC(252)   r     1 S_$VSCROLL               513-0-0/w STRC(252)   r     1 S_$VSCROLL_MARGIN
     4-0-0/w STRC(144)   r     1 VD_$$MON_ACC              10-0-0/w STRC(144)   r     1 VD_$$MON_EVAL
    14-0-0/w STRC(144)   r     1 VD_$$MON_PRES             20-0-0/w STRC(144)   r     1 VD_$$QUAC
    24-0-0/w STRC(144)   r     1 VD_$AUTOTAB               30-0-0/w STRC(72)    r     1 VD_$BY_KEY
    36-0-0/w STRC(144)   r     1 VD_$CASE                  42-0-0/w STRC(144)   r     1 VD_$COMMAND
    47-0-0/w STRC(108)   r     1 VD_$COMMENT               52-0-0/w STRC(144)   r     1 VD_$COMPONENT
PL6.E3A0      #001=VDG$WINIT File=VDG$WORKSPACE.:VDA5TSI                         FRI 07/04/97 11:25 Page:148
    56-0-0/w STRC(108)   r     1 VD_$CONTEXT               61-0-0/w STRC(108)   r     1 VD_$CONTROL
    64-0-0/w STRC(369)   r     1 VD_$DEFAULT_DESTINATION
    77-0-0/w STRC(369)   r     1 VD_$DEFAULT_SOURCE       112-0-0/w STRC(144)   r     1 VD_$DIRECTION
   116-0-0/w STRC(810)   r     1 VD_$EOF_MARK             145-0-0/w STRC(144)   r     1 VD_$EXIST
   151-0-0/w STRC(144)   r     1 VD_$EZ_APPEND            155-0-0/w STRC(108)   r     1 VD_$FILETYPE
   160-0-0/w STRC(144)   r     1 VD_$HSALL                173-0-0/w STRC(144)   r     1 VD_$HSCROLL
   206-0-0/w STRC(144)   r     1 VD_$HSCROLL_MARGIN       216-0-0/w STRC(108)   r     1 VD_$INITIALIZE
   212-0-0/w STRC(144)   r     1 VD_$INSERT               221-0-0/w STRC(108)   r     1 VD_$INTRO_1
   224-0-0/w STRC(108)   r     1 VD_$INTRO_2              227-0-0/w STRC(144)   r     1 VD_$KEY_GENERATION
   233-0-0/w STRC(144)   r     1 VD_$MATCHES              237-0-0/w STRC(144)   r     1 VD_$MATCH_LIMIT
   252-0-0/w STRC(144)   r     1 VD_$MAX_COMMAND          256-0-0/w STRC(144)   r     1 VD_$MAX_RECORD
   271-0-0/w STRC(144)   r     1 VD_$MIN_COMMAND          275-0-0/w STRC(144)   r     1 VD_$MIN_RECORD
   301-0-0/w STRC(144)   r     1 VD_$ONESPACEEDIT         305-0-0/w STRC(990)   r     1 VD_$PAD
   341-0-0/w STRC(144)   r     1 VD_$PATTERN              345-0-0/w STRC(144)   r     1 VD_$POINT
   351-0-0/w STRC(144)   r     1 VD_$PROTECT              355-0-0/w STRC(144)   r     1 VD_$RECORDS_DELETED
   361-0-0/w STRC(144)   r     1 VD_$RECORDS_INSERTED     365-0-0/w STRC(144)   r     1 VD_$RECORDWRAP
   371-0-0/w STRC(144)   r     1 VD_$REKEY                375-0-0/w STRC(990)   r     1 VD_$RESTORE
   440-0-0/w STRC(144)   r     1 VD_$SCREEN               444-0-0/w STRC(144)   r     1 VD_$SCROLL
   450-0-0/w STRC(144)   r     1 VD_$SEARCH               454-0-0/w STRC(144)   r     1 VD_$SITES
   460-0-0/w STRC(144)   r     1 VD_$SKIP                 464-0-0/w STRC(144)   r     1 VD_$STRIP_BLANKS
   470-0-0/w STRC(144)   r     1 VD_$STRUCTURE            474-0-0/w STRC(144)   r     1 VD_$TEXTEDIT
   507-0-0/w STRC(144)   r     1 VD_$VSCROLL              522-0-0/w STRC(144)   r     1 VD_$VSCROLL_MARGIN
   526-0-0/w STRC(99)    r     1 VD_$WI_BORDER            531-0-0/w STRC(144)   r     1 VD_$WI_PERCENT
   535-0-0/w STRC(144)   r     1 VD_$WORDWRAP             541-0-0/w STRC(99)    r     1 VD_$WS_STORAGE

  ****  Auto variables  ****

  ****  Scalars and arrays  ****
OctLoc.c.b A Datatyp(siz) R M Lvl/name                 OctLoc.c.b A Datatyp(siz) R M Lvl/name

    30-0-0/w PTR         r     1 @INIT_TABLE               30-0-0/w PTR         r     1 @INIT_TABLE
    40-0-0/w PTR         r     1 @KEY                      27-0-0/w PTR         r     1 @L0_NODE
    37-0-0/w PTR         r     1 @NB_KEY                   27-0-0/w PTR         r     1 @STREAM
    41-0-0/w PTR         r     1 @VD$KEY                   24-0-0/w BIT         r     1 ALTRETURN_WHEN_DONE
    12-0-0/w PTR         r     1 DIR_NODE$                  4-0-0/w PTR         r     1 FILE_KEY$
    32-0-0/w BIT         r     1 HAD_ERROR                 32-0-0/w SBIN        r     1 I
    *0-0-0/w STRC(324)   r     1 INIT_TABLE(0:0)
PL6.E3A0      #001=VDG$WINIT File=VDG$WORKSPACE.:VDA5TSI                         FRI 07/04/97 11:25 Page:149
    *0-0-0/w STRC(144)   r     1 INIT_TABLE(0:0)
    *0-0-0/c ACHR        r     1 KEY                       *0-0-0/w STRC(468)   r     1 L0_NODE
    31-0-0/w PTR         r     1 L1_NODE$                  33-0-0/w PTR         r     1 L2_NODE$
    33-0-0/w STRC(324)   r     1 LOCATION                  16-0-0/w SBIN        r     1 LVL
    *0-0-0/w SBIN        r     1 NB_KEY                    34-0-0/w SBIN        r     1 NB_KEY
    31-0-0/w SBIN        r     1 NEXT_PREDEF               17-0-0/w STRC(180)   r     1 OPTIONS
    13-0-0/w PTR         r     1 PORT$                     46-0-0/w UBIN(9)     r     1 SAVE_ACCESSOR_PRIV
    44-0-0/w STRC(72)    r     1 SPEC                      *0-0-0/w STRC(864)   r     1 STREAM
     3-0-0/w PTR         r     1 STRUCTURES_L0_NODE$       14-0-0/w PTR         r     1 STRUCTURES_L2_NODE$
     5-0-0/w PTR         r     1 STRUCTURE_L1_EXTERNAL$
     6-0-0/w PTR         r     1 STRUCTURE_L1_NAMES$
     7-0-0/w PTR         r     1 STRUCTURE_L1_SCRATCH$
    10-0-0/w PTR         r     1 STRUCTURE_L1_STRUCTURES$
    11-0-0/w PTR         r     1 STRUCTURE_L1_WINDOWS$
    15-0-0/w PTR         r     1 STRUCTURE_LEVEL$          *0-0-0/w STRC(72)    r     1 VD$KEY

  ****  SYMREF variables  ****

  ****  Scalars and arrays  ****
OctLoc.c.b A Datatyp(siz) R M Lvl/name                 OctLoc.c.b A Datatyp(siz) R M Lvl/name

     0-0-0/w STRC(22644) r     1 VD_6E                      0-0-0/w UBIN(9)     r     1 VD_ACCESSOR_PRIV
     0-0-0/w SBIN        r     1 VD_EDITING_HEIGHT          0-0-0/w SBIN        r     1 VD_IBEX_WINDOW
     0-0-0/d STRC(144)   r     1 VD_ORIGINAL_TRMCTL         0-0-0/w SBIN        r     1 VD_SCREEN_HEIGHT
     0-0-0/w SBIN        r     1 VD_SCREEN_WIDTH

  ****  BASED and DCB variables  ****

  ****  Scalars and arrays  ****
OctLoc.c.b A Datatyp(siz) R M Lvl/name                 OctLoc.c.b A Datatyp(siz) R M Lvl/name

     0-0-0/w STRC(576)   r     1 DIR$NODE                   0-0-0/w STRC(864)   r     1 EQUALS$STREAM
     0-0-0/w STRC(180)   r     1 FATAL$ERR                  0-0-0/w STRC(648)   r     1 FILE$KEY
     0-0-0/w STRC(864)   r     1 KEYINS$STREAM              0-0-0/w STRC(468)   r     1 L1$NODE
     0-0-0/w STRC(468)   r     1 L2$NODE                    0-0-0/w STRC(864)   r     1 LOCATIONS$STREAM
     0-0-0/w STRC(9)     r     1 NAC                        0-0-0/w STRC(1944)  r     1 PORT
     0-0-0/w STRC(1944)  r     1 PORT
PL6.E3A0      #001=VDG$WINIT File=VDG$WORKSPACE.:VDA5TSI                         FRI 07/04/97 11:25 Page:150
     0-0-0/w STRC(468)   r     1 STRUCTURE$L1_STRUCTURES
     0-0-0/w STRC(324)   r     1 STRUCTURE$LEVEL            0-0-0/w STRC(468)   r     1 STRUCTURES$L0_NODE
     0-0-0/w STRC(468)   r     1 STRUCTURES$L2_NODE         0-0-0/w STRC(864)   r     1 STRUCTURES$STREAM
     0-0-0/w STRC(864)   r     1 SYNONYMS$STREAM            0-0-0/w ASTR(90)    r     1 VD$BUFFER
     0-0-0/w STRC(468)   r     1 VD$FILE_NODE               0-0-0/w STRC(81)    r     1 VD$STRING_HEADER
     0-0-0/w STRC(324)   r     1 VD$STRUCTURE_LEVEL         0-0-0/w ASTR(81)    r     1 VD$TEXTC_REMOTE
     0-0-0/w STRC(864)   r     1 WINDOWS$STREAM


   Procedure VDG$WINIT requires 726 words for executable code.
   Procedure VDG$WINIT requires 44 words of local(AUTO) storage.

    No errors detected in file VDG$WORKSPACE.:VDA5TSI    .
PL6.E3A0      #001=VDG$WINIT File=VDG$WORKSPACE.:VDA5TSI                         FRI 07/04/97 11:25 Page:151
          *** CROSS REFERENCE LISTING ***
**     DENOTES     IDENTIFIER DEFINITION
<<                 IDENTIFIER'S VALUE SET
>>                 IDENTIFIER'S VALUE USED
<>                 IDENTIFIER SET AND/OR USED
--                 IDENTIFIER REFERENCED
PL6.E3A0      #001=VDG$WINIT File=VDG$WORKSPACE.:VDA5TSI                         FRI 07/04/97 11:25 Page:152
          MINI XREF LISTING

ALTRETURN_WHEN_DONE
     21944**DCL     23490<<ASSIGN  23496<<ASSIGN  23500>>IF
A_$$INCANTATION
      5492**DCL      5220--DCLINIT
A_$$MON_ACC
      5677**DCL      5220--DCLINIT
A_$$MON_EVAL
      5862**DCL      5221--DCLINIT
A_$$MON_PRES
      6047**DCL      5221--DCLINIT
A_$$QUAC
      6232**DCL      5221--DCLINIT
A_$AUTOTAB
      6419**DCL      5222--DCLINIT
A_$BY
      6688**DCL      5223--DCLINIT
A_$CASE
      6873**DCL      5223--DCLINIT
A_$COMMAND
      7058**DCL      5223--DCLINIT
A_$COMMENT
      7257**DCL      5223--DCLINIT
A_$COMPONENT
      7443**DCL      5224--DCLINIT
A_$CONTEXT
      7642**DCL      5224--DCLINIT
A_$CONTROL
      7841**DCL      5224--DCLINIT
A_$DEFAULT_DESTINATION
      8040**DCL      5225--DCLINIT
A_$DEFAULT_SOURCE
      8239**DCL      5225--DCLINIT
PL6.E3A0      #001=VDG$WINIT File=VDG$WORKSPACE.:VDA5TSI                         FRI 07/04/97 11:25 Page:153
A_$DIRECTION
      8425**DCL      5226--DCLINIT
A_$ENCLOSING
     20309**DCL     20174--DCLINIT
A_$EOF_MARK
      8624**DCL      5226--DCLINIT
A_$EXIST
      8810**DCL      5226--DCLINIT
A_$EZ_APPEND
      8995**DCL      5227--DCLINIT
A_$FILEORG
      9331**DCL      5227--DCLINIT
A_$FILERECORDS
      9468**DCL      5227--DCLINIT
A_$FILETYPE
      9194**DCL      5228--DCLINIT
A_$FP
     20446**DCL     20174--DCLINIT
A_$HSALL
      9653**DCL      5228--DCLINIT
A_$HSCROLL
      9838**DCL      5228--DCLINIT
A_$HSCROLL_MARGIN
     10024**DCL      5229--DCLINIT
A_$INITIALIZE
     10407**DCL      5229--DCLINIT
A_$INSERT
     10209**DCL      5230--DCLINIT
A_$INTRO_1
     10606**DCL      5230--DCLINIT
A_$INTRO_2
     10805**DCL      5231--DCLINIT
A_$KEY_GENERATION
     10991**DCL      5231--DCLINIT
A_$LEFTOVER
     20583**DCL     20174--DCLINIT
PL6.E3A0      #001=VDG$WINIT File=VDG$WORKSPACE.:VDA5TSI                         FRI 07/04/97 11:25 Page:154
A_$MATCHES
     11177**DCL      5232--DCLINIT
A_$MATCH_LIMIT
     11363**DCL      5232--DCLINIT
A_$MAX_COMMAND
     11549**DCL      5232--DCLINIT
A_$MAX_RECORD
     11735**DCL      5233--DCLINIT
A_$MIN_COMMAND
     11921**DCL      5233--DCLINIT
A_$MIN_RECORD
     12107**DCL      5233--DCLINIT
A_$NOT_COPIED
     20720**DCL     20175--DCLINIT
A_$ONESPACEEDIT
     12292**DCL      5234--DCLINIT
A_$PAD
     12491**DCL      5235--DCLINIT
A_$PATTERN
     12676**DCL      5235--DCLINIT
A_$POINT
     12862**DCL      5235--DCLINIT
A_$PROTECT
     13048**DCL      5236--DCLINIT
A_$RANGE
     20857**DCL     20175--DCLINIT
A_$RECORDS_DELETED
     13234**DCL      5236--DCLINIT
A_$RECORDS_INSERTED
     13420**DCL      5237--DCLINIT
A_$RECORDWRAP
     13605**DCL      5237--DCLINIT
A_$REKEY
     13791**DCL      5238--DCLINIT
A_$RESTORE
     13990**DCL      5238--DCLINIT
PL6.E3A0      #001=VDG$WINIT File=VDG$WORKSPACE.:VDA5TSI                         FRI 07/04/97 11:25 Page:155
A_$SCREEN
     14176**DCL      5239--DCLINIT
A_$SCROLL
     14360**DCL      5239--DCLINIT
A_$SEARCH
     14544**DCL      5239--DCLINIT
A_$SITES
     14730**DCL      5240--DCLINIT
A_$SKIP
     14916**DCL      5240--DCLINIT
A_$STRIP_BLANKS
     15101**DCL      5240--DCLINIT
A_$STRUCTURE
     15286**DCL      5241--DCLINIT
A_$TEXTEDIT
     15471**DCL      5241--DCLINIT
A_$VSCROLL
     15656**DCL      5241--DCLINIT
A_$VSCROLL_MARGIN
     15842**DCL      5242--DCLINIT
A_$WI_BORDER
     16041**DCL      5243--DCLINIT
A_$WI_PERCENT
     16227**DCL      5243--DCLINIT
A_$WORDWRAP
     16413**DCL      5244--DCLINIT
A_$WS_STORAGE
     16613**DCL      5244--DCLINIT
A_ANY
     16798**DCL      5245--DCLINIT
A_AO
     16983**DCL      5245--DCLINIT
A_BACKWARD
     17168**DCL      5245--DCLINIT
A_BIN10
     17353**DCL      5246--DCLINIT
PL6.E3A0      #001=VDG$WINIT File=VDG$WORKSPACE.:VDA5TSI                         FRI 07/04/97 11:25 Page:156
A_BIN521
     17538**DCL      5246--DCLINIT
A_BINHLF
     17723**DCL      5246--DCLINIT
A_BO
     17908**DCL      5247--DCLINIT
A_CURR
     20995**DCL     20175--DCLINIT
A_CURRENT
     21132**DCL     20176--DCLINIT
A_DATA
     18093**DCL      5247--DCLINIT
A_DONT_PROTECT
     18278**DCL      5247--DCLINIT
A_EO
     18463**DCL      5247--DCLINIT
A_FORWARD
     18648**DCL      5248--DCLINIT
A_HERE
     21269**DCL     20176--DCLINIT
A_KEY
     18833**DCL      5248--DCLINIT
A_NEW
     19018**DCL      5248--DCLINIT
A_OFF
     19203**DCL      5249--DCLINIT
A_OLD
     19388**DCL      5249--DCLINIT
A_ON
     19573**DCL      5249--DCLINIT
A_PROTECT
     19758**DCL      5250--DCLINIT
A_SPEC
     19943**DCL      5250--DCLINIT
A_STRING
     20128**DCL      5250--DCLINIT
PL6.E3A0      #001=VDG$WINIT File=VDG$WORKSPACE.:VDA5TSI                         FRI 07/04/97 11:25 Page:157
A_THAT
     21406**DCL     20176--DCLINIT
BUILD_REMOTE_KEY
     23556**PROC    24131--CALL    24150--CALL
BUILD_REMOTE_KEY_FAILED IN PROCEDURE BUILD_STRUCTURE_NODE
     24160**LABEL   24131--CALLALT 24150--CALLALT
BUILD_STRUCTURE_NODE
     23636**PROC    23339--CALL    23343--CALL    23347--CALL    23351--CALL    23355--CALL    23359--CALL
     23363--CALL    23367--CALL
BUILD_STRUCTURE_NODE_FAILED
     23500**LABEL   23339--CALLALT 23343--CALLALT 23347--CALLALT 23351--CALLALT 23355--CALLALT 23359--CALLALT
     23363--CALLALT 23367--CALLALT
CONSEC_L1
      4588**DCL      3665--DCLINIT
DIR$NODE.COUNT#
     22562**DCL     23404<<ASSIGN
DIR$NODE.FLINK$
     22561**DCL     23410>>ASSIGN
DIR$NODE.HEAD$
     22562**DCL     23402<<ASSIGN
DIR$NODE.KEY
     22561**DCL     23390>>DOSELCT 23408<>CALL
DIR$NODE.MIGRATABLE
     22561**DCL     23393<<ASSIGN  23396<<ASSIGN  23399<<ASSIGN
DIR$NODE.STRUCTURE$
     22562**DCL     23392<<ASSIGN  23395<<ASSIGN  23398<<ASSIGN  23401<<ASSIGN  23406<<ASSIGN
DIR$NODE.TAIL$
     22562**DCL     23403<<ASSIGN
DIR_NODE$
     21910**DCL     22535--IMP-PTR 23387<<ASSIGN  23389>>DOWHILE 23390>>DOSELCT 23392>>ASSIGN  23393>>ASSIGN
     23395>>ASSIGN  23396>>ASSIGN  23398>>ASSIGN  23399>>ASSIGN  23401>>ASSIGN  23402>>ASSIGN  23403>>ASSIGN
     23404>>ASSIGN  23406>>ASSIGN  23408>>CALL    23410<<ASSIGN  23410>>ASSIGN
D_$$INCANTATION
      5397**DCL      5187--DCLINIT
D_$BY
      6560**DCL      5190--DCLINIT
PL6.E3A0      #001=VDG$WINIT File=VDG$WORKSPACE.:VDA5TSI                         FRI 07/04/97 11:25 Page:158
D_ANY
     16747**DCL      5212--DCLINIT
D_AO
     16932**DCL      5212--DCLINIT
D_BACKWARD
     17117**DCL      5212--DCLINIT
D_BIN10
     17302**DCL      5213--DCLINIT
D_BIN521
     17487**DCL      5213--DCLINIT
D_BINHLF
     17672**DCL      5213--DCLINIT
D_BO
     17857**DCL      5214--DCLINIT
D_DATA
     18042**DCL      5214--DCLINIT
D_DONT_PROTECT
     18227**DCL      5214--DCLINIT
D_EO
     18412**DCL      5214--DCLINIT
D_FORWARD
     18597**DCL      5215--DCLINIT
D_KEY
     18782**DCL      5215--DCLINIT
D_NEW
     18967**DCL      5215--DCLINIT
D_OFF
     19152**DCL      5216--DCLINIT
D_OLD
     19337**DCL      5216--DCLINIT
D_ON
     19522**DCL      5216--DCLINIT
D_PROTECT
     19707**DCL      5217--DCLINIT
D_SPEC
     19892**DCL      5217--DCLINIT
PL6.E3A0      #001=VDG$WINIT File=VDG$WORKSPACE.:VDA5TSI                         FRI 07/04/97 11:25 Page:159
D_STRING
     20077**DCL      5217--DCLINIT
EDITKEY_L1
      4535**DCL      3518--DCLINIT
EQUALS$STREAM
     22573**DCL     23463<>CALL    23488<>CALL
EQUALS_L0_KEY
     21459**DCL     23463<>CALL
EXTERNAL_L0
      4429**DCL      3371--DCLINIT  3518--DCLINIT  3665--DCLINIT  3812--DCLINIT
EXTERNAL_L1
      4482**DCL      3371--DCLINIT
FATAL$ERR.ERR
     23140**DCL     24676>>IF      24688>>IF
FILE$KEY
     22162**DCL     23434<>CALL
FILE$KEY.LENGTH#
     22189**DCL     23313<<ASSIGN
FILE$KEY.PSN
     22192**DCL     23316<<ASSIGN
FILE$KEY.UNIQUE.ACCT
     22190**DCL     23308<<ASSIGN  23313--ASSIGN
FILE$KEY.UNIQUE.FNAME.BYTES
     22191**DCL     23311<<ASSIGN
FILE$KEY.UNIQUE.FNAME.LENGTH#
     22190**DCL     23309<<ASSIGN  23313--ASSIGN  23313>>ASSIGN
FILE_KEY$
     21904**DCL     22162--IMP-PTR 23306<>CALL    23308>>ASSIGN  23309>>ASSIGN  23311>>ASSIGN  23313>>ASSIGN
     23313>>ASSIGN  23316>>ASSIGN  23319>>ASSIGN
FILL_LOWER_LEVELS
     23441**LABEL   23444--EXIT
FOPEN_FAILED
     23500**LABEL   23463--CALLALT 23466--CALLALT 23469--CALLALT 23472--CALLALT 23476--CALLALT
HAD_ERROR IN PROCEDURE WRITE_PREDEFINED_NAMES
     24336**DCL     24652<<ASSIGN  24679<<ASSIGN  24691<<ASSIGN  24696>>IF
I IN PROCEDURE BUILD_STRUCTURE_NODE
PL6.E3A0      #001=VDG$WINIT File=VDG$WORKSPACE.:VDA5TSI                         FRI 07/04/97 11:25 Page:160
     23877**DCL     24138<<ASSIGN  24139>>DOWHILE 24149>>ASSIGN  24150>>CALL    24153>>CALL    24160<<ASSIGN
     24160>>ASSIGN
INIT_CONSEC
      3520**DCL     23355<>CALL
INIT_EDITKEY
      3373**DCL     23339<>CALL
INIT_EXTERNAL
      3225**DCL     23343<>CALL
INIT_NAMES
      3814**DCL     23347<>CALL
INIT_SCRATCH
      3962**DCL     23351<>CALL
INIT_STRINGKEY
      3667**DCL     23359<>CALL
INIT_STRUCTURES
      4110**DCL     23363<>CALL
INIT_TABLE IN PROCEDURE BUILD_STRUCTURE_NODE
     23731**DCL     23636--PROC
INIT_TABLE.KEY.BYTES IN PROCEDURE BUILD_STRUCTURE_NODE
     23870**DCL     24131<>CALL    24150<>CALL
INIT_TABLE.KEY.LENGTH# IN PROCEDURE BUILD_STRUCTURE_NODE
     23870**DCL     24130>>ASSIGN  24149>>ASSIGN
INIT_TABLE.STRUCT_LEVEL$ IN PROCEDURE BUILD_STRUCTURE_NODE
     23873**DCL     24139>>DOWHILE 24153>>CALL
INIT_TABLE IN PROCEDURE WRITE_PREDEFINED_NAMES
     24327**DCL     24219--PROC
INIT_TABLE.ACCESS$ IN PROCEDURE WRITE_PREDEFINED_NAMES
     24331**DCL     24671>>ASSIGN
INIT_TABLE.DATA$ IN PROCEDURE WRITE_PREDEFINED_NAMES
     24330**DCL     24668>>CALL    24668>>CALL
INIT_TABLE.KEY$ IN PROCEDURE WRITE_PREDEFINED_NAMES
     24328**DCL     24662>>DOWHILE 24663>>ASSIGN
INIT_TABLE.SPEC$ IN PROCEDURE WRITE_PREDEFINED_NAMES
     24329**DCL     24667>>ASSIGN
INIT_WINDOWS
      4259**DCL     23367<>CALL
PL6.E3A0      #001=VDG$WINIT File=VDG$WORKSPACE.:VDA5TSI                         FRI 07/04/97 11:25 Page:161
INTERNAL_L0
      4694**DCL      3960--DCLINIT  4108--DCLINIT  4256--DCLINIT  4405--DCLINIT
KEY IN PROCEDURE BUILD_REMOTE_KEY
     23559**DCL     23556--PROC    23583>>ASSIGN
KEYINS$STREAM
     22891**DCL     23472<>CALL
KEYINS_FILE_KEY
     21775**DCL     21752--DCLINIT
KEYINS_L0_KEY
     21732**DCL     23472<>CALL
K_$$INCANTATION
      5281**DCL      5121--DCLINIT
K_$$MON_ACC
      5527**DCL      5121--DCLINIT
K_$$MON_EVAL
      5712**DCL      5122--DCLINIT
K_$$MON_PRES
      5897**DCL      5122--DCLINIT
K_$$QUAC
      6082**DCL      5122--DCLINIT
K_$AUTOTAB
      6268**DCL      5123--DCLINIT
K_$BY
      6454**DCL      5124--DCLINIT
K_$CASE
      6723**DCL      5124--DCLINIT
K_$COMMAND
      6908**DCL      5124--DCLINIT
K_$COMMENT
      7093**DCL      5124--DCLINIT
K_$COMPONENT
      7292**DCL      5125--DCLINIT
K_$CONTEXT
      7478**DCL      5125--DCLINIT
K_$CONTROL
      7677**DCL      5125--DCLINIT
PL6.E3A0      #001=VDG$WINIT File=VDG$WORKSPACE.:VDA5TSI                         FRI 07/04/97 11:25 Page:162
K_$DEFAULT_DESTINATION
      7876**DCL      5126--DCLINIT
K_$DEFAULT_SOURCE
      8075**DCL      5126--DCLINIT
K_$DIRECTION
      8274**DCL      5127--DCLINIT
K_$ENCLOSING
     20207**DCL     20165--DCLINIT
K_$EOF_MARK
      8460**DCL      5127--DCLINIT
K_$EXIST
      8659**DCL      5127--DCLINIT
K_$EZ_APPEND
      8845**DCL      5128--DCLINIT
K_$FILEORG
      9229**DCL      5128--DCLINIT
K_$FILERECORDS
      9366**DCL      5128--DCLINIT
K_$FILETYPE
      9030**DCL      5129--DCLINIT
K_$FP
     20344**DCL     20165--DCLINIT
K_$HSALL
      9503**DCL      5129--DCLINIT
K_$HSCROLL
      9687**DCL      5129--DCLINIT
K_$HSCROLL_MARGIN
      9873**DCL      5130--DCLINIT
K_$INITIALIZE
     10244**DCL      5130--DCLINIT
K_$INSERT
     10059**DCL      5131--DCLINIT
K_$INTRO_1
     10442**DCL      5131--DCLINIT
K_$INTRO_2
     10641**DCL      5132--DCLINIT
PL6.E3A0      #001=VDG$WINIT File=VDG$WORKSPACE.:VDA5TSI                         FRI 07/04/97 11:25 Page:163
K_$KEY_GENERATION
     10840**DCL      5132--DCLINIT
K_$LEFTOVER
     20481**DCL     20165--DCLINIT
K_$MATCHES
     11026**DCL      5133--DCLINIT
K_$MATCH_LIMIT
     11212**DCL      5133--DCLINIT
K_$MAX_COMMAND
     11398**DCL      5133--DCLINIT
K_$MAX_RECORD
     11584**DCL      5134--DCLINIT
K_$MIN_COMMAND
     11770**DCL      5134--DCLINIT
K_$MIN_RECORD
     11956**DCL      5134--DCLINIT
K_$NOT_COPIED
     20618**DCL     20166--DCLINIT
K_$ONESPACEEDIT
     12142**DCL      5135--DCLINIT
K_$PAD
     12327**DCL      5136--DCLINIT
K_$PATTERN
     12526**DCL      5136--DCLINIT
K_$POINT
     12711**DCL      5136--DCLINIT
K_$PROTECT
     12897**DCL      5137--DCLINIT
K_$RANGE
     20755**DCL     20166--DCLINIT
K_$RECORDS_DELETED
     13083**DCL      5137--DCLINIT
K_$RECORDS_INSERTED
     13269**DCL      5138--DCLINIT
K_$RECORDWRAP
     13455**DCL      5138--DCLINIT
PL6.E3A0      #001=VDG$WINIT File=VDG$WORKSPACE.:VDA5TSI                         FRI 07/04/97 11:25 Page:164
K_$REKEY
     13640**DCL      5139--DCLINIT
K_$RESTORE
     13826**DCL      5139--DCLINIT
K_$SCREEN
     14025**DCL      5140--DCLINIT
K_$SCROLL
     14210**DCL      5140--DCLINIT
K_$SEARCH
     14394**DCL      5140--DCLINIT
K_$SITES
     14579**DCL      5141--DCLINIT
K_$SKIP
     14765**DCL      5141--DCLINIT
K_$STRIP_BLANKS
     14951**DCL      5141--DCLINIT
K_$STRUCTURE
     15136**DCL      5142--DCLINIT
K_$TEXTEDIT
     15321**DCL      5142--DCLINIT
K_$VSCROLL
     15505**DCL      5142--DCLINIT
K_$VSCROLL_MARGIN
     15691**DCL      5143--DCLINIT
K_$WI_BORDER
     15877**DCL      5144--DCLINIT
K_$WI_PERCENT
     16076**DCL      5144--DCLINIT
K_$WORDWRAP
     16262**DCL      5145--DCLINIT
K_$WS_STORAGE
     16448**DCL      5145--DCLINIT
K_ANY
     16648**DCL      5146--DCLINIT
K_AO
     16833**DCL      5146--DCLINIT
PL6.E3A0      #001=VDG$WINIT File=VDG$WORKSPACE.:VDA5TSI                         FRI 07/04/97 11:25 Page:165
K_BACKWARD
     17018**DCL      5146--DCLINIT
K_BIN10
     17203**DCL      5147--DCLINIT
K_BIN521
     17388**DCL      5147--DCLINIT
K_BINHLF
     17573**DCL      5147--DCLINIT
K_BO
     17758**DCL      5148--DCLINIT
K_CURR
     20893**DCL     20166--DCLINIT
K_CURRENT
     21030**DCL     20167--DCLINIT
K_DATA
     17943**DCL      5148--DCLINIT
K_DONT_PROTECT
     18128**DCL      5148--DCLINIT
K_EO
     18313**DCL      5148--DCLINIT
K_FORWARD
     18498**DCL      5149--DCLINIT
K_HERE
     21167**DCL     20167--DCLINIT
K_KEY
     18683**DCL      5149--DCLINIT
K_NEW
     18868**DCL      5149--DCLINIT
K_OFF
     19053**DCL      5150--DCLINIT
K_OLD
     19238**DCL      5150--DCLINIT
K_ON
     19423**DCL      5150--DCLINIT
K_PROTECT
     19608**DCL      5151--DCLINIT
PL6.E3A0      #001=VDG$WINIT File=VDG$WORKSPACE.:VDA5TSI                         FRI 07/04/97 11:25 Page:166
K_SPEC
     19793**DCL      5151--DCLINIT
K_STRING
     19978**DCL      5151--DCLINIT
K_THAT
     21304**DCL     20167--DCLINIT
L0_NODE IN PROCEDURE BUILD_STRUCTURE_NODE
     23646**DCL     23636--PROC
L0_NODE.COUNT# IN PROCEDURE BUILD_STRUCTURE_NODE
     23729**DCL     24126<<ASSIGN  24126>>ASSIGN
L0_NODE.HEAD$ IN PROCEDURE BUILD_STRUCTURE_NODE
     23729**DCL     24123<<ASSIGN
L0_NODE.TAIL$ IN PROCEDURE BUILD_STRUCTURE_NODE
     23729**DCL     24120>>ASSIGN  24121<<ASSIGN
L1$NODE.ACCESS IN PROCEDURE BUILD_STRUCTURE_NODE
     23928**DCL     24129<<ASSIGN
L1$NODE.BLINK$ IN PROCEDURE BUILD_STRUCTURE_NODE
     23916**DCL     24120<<ASSIGN  24122>>IF      24125>>ASSIGN
L1$NODE.COUNT# IN PROCEDURE BUILD_STRUCTURE_NODE
     23973**DCL     24148<<ASSIGN  24148>>ASSIGN
L1$NODE.DESC.KEY IN PROCEDURE BUILD_STRUCTURE_NODE
     23953**DCL     24131<>CALL
L1$NODE.DESC.SPEC.REP# IN PROCEDURE BUILD_STRUCTURE_NODE
     23969**DCL     24128<<ASSIGN
L1$NODE.DESC.SPEC.TYPE# IN PROCEDURE BUILD_STRUCTURE_NODE
     23969**DCL     24127<<ASSIGN
L1$NODE.DESC.SPEC.V$ IN PROCEDURE BUILD_STRUCTURE_NODE
     23969**DCL     24135<>CALL
L1$NODE.FLINK$ IN PROCEDURE BUILD_STRUCTURE_NODE
     23916**DCL     24125<<ASSIGN
L1$NODE.HEAD$ IN PROCEDURE BUILD_STRUCTURE_NODE
     23973**DCL     24145<<ASSIGN
L1$NODE.TAIL$ IN PROCEDURE BUILD_STRUCTURE_NODE
     23973**DCL     24142>>ASSIGN  24143<<ASSIGN
L1_NODE$ IN PROCEDURE BUILD_STRUCTURE_NODE
     23876**DCL     23890--IMP-PTR 24118<>CALL    24120>>ASSIGN  24121>>ASSIGN  24122>>IF      24123>>ASSIGN
PL6.E3A0      #001=VDG$WINIT File=VDG$WORKSPACE.:VDA5TSI                         FRI 07/04/97 11:25 Page:167
     24125>>ASSIGN  24125>>ASSIGN  24127>>ASSIGN  24128>>ASSIGN  24129>>ASSIGN  24131>>CALL    24135>>CALL
     24142>>ASSIGN  24143>>ASSIGN  24145>>ASSIGN  24148>>ASSIGN  24148>>ASSIGN
L2$NODE.ACCESS IN PROCEDURE BUILD_STRUCTURE_NODE
     24021**DCL     24158<<ASSIGN
L2$NODE.BLINK$ IN PROCEDURE BUILD_STRUCTURE_NODE
     24009**DCL     24142<<ASSIGN  24144>>IF      24147>>ASSIGN
L2$NODE.DESC.KEY IN PROCEDURE BUILD_STRUCTURE_NODE
     24046**DCL     24150<>CALL
L2$NODE.DESC.SPEC.REP# IN PROCEDURE BUILD_STRUCTURE_NODE
     24062**DCL     24157<<ASSIGN
L2$NODE.DESC.SPEC.TYPE# IN PROCEDURE BUILD_STRUCTURE_NODE
     24062**DCL     24156<<ASSIGN
L2$NODE.DESC.SPEC.V$ IN PROCEDURE BUILD_STRUCTURE_NODE
     24062**DCL     24153<>CALL
L2$NODE.FLINK$ IN PROCEDURE BUILD_STRUCTURE_NODE
     24009**DCL     24147<<ASSIGN
L2_NODE$ IN PROCEDURE BUILD_STRUCTURE_NODE
     23878**DCL     23983--IMP-PTR 24140<>CALL    24142>>ASSIGN  24143>>ASSIGN  24144>>IF      24145>>ASSIGN
     24147>>ASSIGN  24147>>ASSIGN  24150>>CALL    24153>>CALL    24156>>ASSIGN  24157>>ASSIGN  24158>>ASSIGN
LOCATION IN PROCEDURE WRITE_PREDEFINED_NAMES
     24345**DCL     24654<<ASSIGN  24668<>CALL
LOCATION.KEY.REP# IN PROCEDURE WRITE_PREDEFINED_NAMES
     24361**DCL     24656<<ASSIGN
LOCATION.KEY.TYPE# IN PROCEDURE WRITE_PREDEFINED_NAMES
     24361**DCL     24655<<ASSIGN
LOCATION.KEY.V$ IN PROCEDURE WRITE_PREDEFINED_NAMES
     24361**DCL     24663<<ASSIGN
LOCATIONS$STREAM
     22679**DCL     23466<>CALL    23494<>CALL
LOCATIONS_FILE_KEY
     21593**DCL     21570--DCLINIT
LOCATIONS_INIT
     20163**DCL     23494<>CALL
LOCATIONS_L0_KEY
     21550**DCL     23466<>CALL
LVL
PL6.E3A0      #001=VDG$WINIT File=VDG$WORKSPACE.:VDA5TSI                         FRI 07/04/97 11:25 Page:168
     21914**DCL     23441<<DOINDEX 23446>>ASSIGN  23447>>ASSIGN  23448>>ASSIGN
NAC.ACCESS IN PROCEDURE WRITE_PREDEFINED_NAMES
     24496**DCL     24671>>ASSIGN
NAMES_L1
      4747**DCL      3960--DCLINIT
NB_KEY IN PROCEDURE BUILD_REMOTE_KEY
     23558**DCL     23556--PROC    23559--IMP-SIZ 23577>>IF      23578>>CALL    23582>>ASSIGN  23583>>ASSIGN
NB_KEY IN PROCEDURE BUILD_STRUCTURE_NODE
     23879**DCL     24130<<ASSIGN  24131<>CALL    24149<<ASSIGN  24150<>CALL
NEXT_PREDEF IN PROCEDURE WRITE_PREDEFINED_NAMES
     24335**DCL     24661<<ASSIGN  24662>>DOWHILE 24663>>ASSIGN  24667>>ASSIGN  24668>>CALL    24668>>CALL
     24671>>ASSIGN  24682<<ASSIGN  24682>>ASSIGN
OALLOC_FAILED
     23500**LABEL   23303--CALLALT 23306--CALLALT 23418--CALLALT
OALLOC_FAILED IN PROCEDURE BUILD_REMOTE_KEY
     23587**LABEL   23578--CALLALT
OALLOC_FAILED IN PROCEDURE BUILD_STRUCTURE_NODE
     24160**LABEL   24118--CALLALT 24135--CALLALT 24140--CALLALT
OCOPY_FAILED
     23500**LABEL   23434--CALLALT
OCOPY_FAILED IN PROCEDURE BUILD_STRUCTURE_NODE
     24160**LABEL   24153--CALLALT
OPTIONS
     21923**DCL     23458<<ASSIGN  23463<>CALL    23466<>CALL    23469<>CALL    23472<>CALL    23476<>CALL
OPTIONS.EXIST#
     21928**DCL     23460<<ASSIGN
OPTIONS.PROTECT#
     21927**DCL     23459<<ASSIGN
OPTIONS.STRUCTURE$
     21927**DCL     23461<<ASSIGN  23475<<ASSIGN
PORT.CURRENT.EOF
     22272**DCL     23451<<ASSIGN
PORT.EXIST#
     22229**DCL     23424<<ASSIGN
PORT.FILE_KEY
     22242**DCL     23432<<ASSIGN
PL6.E3A0      #001=VDG$WINIT File=VDG$WORKSPACE.:VDA5TSI                         FRI 07/04/97 11:25 Page:169
PORT.FILE_KEY.V$
     22244**DCL     23434<>CALL
PORT.LAST_OP#
     22231**DCL     23425<<ASSIGN
PORT.LEVEL.INTERNAL$
     22290**DCL     23438<<ASSIGN
PORT.LEVEL.KEY_TYPE#
     22274**DCL     23430<<ASSIGN  23447<<ASSIGN
PORT.LEVEL.ORG#
     22274**DCL     23429<<ASSIGN  23446<<ASSIGN
PORT.LEVEL.SPEC_TYPE#
     22274**DCL     23431<<ASSIGN  23448<<ASSIGN
PORT.REFS#
     22229**DCL     23423<<ASSIGN
PORT.STRUCTURE$
     22231**DCL     23422<<ASSIGN
PORT IN PROCEDURE WRITE_PREDEFINED_NAMES
     24390**DCL     24686<>CALL
PORT.LEVEL.INTERNAL$ IN PROCEDURE WRITE_PREDEFINED_NAMES
     24477**DCL     24671>>ASSIGN
PORT$
     21911**DCL     22203--IMP-PTR 23420<<ASSIGN  23422>>ASSIGN  23423>>ASSIGN  23424>>ASSIGN  23425>>ASSIGN
     23429>>ASSIGN  23430>>ASSIGN  23431>>ASSIGN  23432>>ASSIGN  23434>>CALL    23438>>ASSIGN  23446>>ASSIGN
     23447>>ASSIGN  23448>>ASSIGN  23451>>ASSIGN
SAVE_ACCESSOR_PRIV IN PROCEDURE WRITE_PREDEFINED_NAMES
     24379**DCL     24658<<ASSIGN  24694>>ASSIGN
SCRATCH_L1
      4800**DCL      4108--DCLINIT
SPEC IN PROCEDURE WRITE_PREDEFINED_NAMES
     24373**DCL     24664<<ASSIGN  24668<>CALL
SPEC.REP# IN PROCEDURE WRITE_PREDEFINED_NAMES
     24377**DCL     24666<<ASSIGN
SPEC.TYPE# IN PROCEDURE WRITE_PREDEFINED_NAMES
     24377**DCL     24665<<ASSIGN
SPEC.V$ IN PROCEDURE WRITE_PREDEFINED_NAMES
     24377**DCL     24667<<ASSIGN
PL6.E3A0      #001=VDG$WINIT File=VDG$WORKSPACE.:VDA5TSI                         FRI 07/04/97 11:25 Page:170
STREAM IN PROCEDURE WRITE_PREDEFINED_NAMES
     24229**DCL     24219--PROC    24668<>CALL
STREAM.PORT$ IN PROCEDURE WRITE_PREDEFINED_NAMES
     24255**DCL     24390--IMP-PTR 24671>>ASSIGN  24686>>CALL
STRINGKEY_L1
      4641**DCL      3812--DCLINIT
STRUCTURE$L1_STRUCTURES.HEAD$
     22385**DCL     23427>>ASSIGN
STRUCTURE$LEVEL.KEY_TYPE#
     22523**DCL     23430>>ASSIGN  23447>>ASSIGN
STRUCTURE$LEVEL.ORG#
     22523**DCL     23429>>ASSIGN  23446>>ASSIGN
STRUCTURE$LEVEL.SPEC_TYPE#
     22523**DCL     23431>>ASSIGN  23448>>ASSIGN
STRUCTURES$L0_NODE
     22061**DCL     23339<>CALL    23343<>CALL    23347<>CALL    23351<>CALL    23355<>CALL    23359<>CALL
     23363<>CALL    23367<>CALL
STRUCTURES$L0_NODE.DESC.KEY
     22124**DCL     23334>>ASSIGN  23432>>ASSIGN
STRUCTURES$L0_NODE.DESC.KEY.REP#
     22126**DCL     23318<<ASSIGN  23334>>IF      23433>>IF
STRUCTURES$L0_NODE.DESC.KEY.TYPE#
     22126**DCL     23317<<ASSIGN
STRUCTURES$L0_NODE.DESC.KEY.V$
     22126**DCL     23319<<ASSIGN  23334>>CALL    23334>>CALL    23434>>CALL
STRUCTURES$L0_NODE.TAIL$
     22144**DCL     23341>>ASSIGN  23345>>ASSIGN  23349>>ASSIGN  23353>>ASSIGN  23357>>ASSIGN  23361>>ASSIGN
     23365>>ASSIGN  23369>>ASSIGN
STRUCTURES$L2_NODE.DESC.SPEC.V$
     22474**DCL     23428>>ASSIGN  23445>>ASSIGN
STRUCTURES$L2_NODE.FLINK$
     22421**DCL     23442>>ASSIGN
STRUCTURES$STREAM.FILE_KEY
     21992**DCL     23334<<ASSIGN
STRUCTURES$STREAM.FILE_KEY.V$
     21994**DCL     23334<>CALL
PL6.E3A0      #001=VDG$WINIT File=VDG$WORKSPACE.:VDA5TSI                         FRI 07/04/97 11:25 Page:171
STRUCTURES$STREAM.PORT$
     21981**DCL     23418<>CALL    23420>>ASSIGN
STRUCTURES_L0_NODE$
     21903**DCL     22061--IMP-PTR 23303<>CALL    23317>>ASSIGN  23318>>ASSIGN  23319>>ASSIGN  23334>>ASSIGN
     23334>>IF      23334>>CALL    23334>>CALL    23339>>CALL    23341>>ASSIGN  23343>>CALL    23345>>ASSIGN
     23347>>CALL    23349>>ASSIGN  23351>>CALL    23353>>ASSIGN  23355>>CALL    23357>>ASSIGN  23359>>CALL
     23361>>ASSIGN  23363>>CALL    23365>>ASSIGN  23367>>CALL    23369>>ASSIGN  23402>>ASSIGN  23403>>ASSIGN
     23432>>ASSIGN  23433>>IF      23434>>CALL    23438>>ASSIGN
STRUCTURES_L1
      4853**DCL      4256--DCLINIT
STRUCTURES_L2
      4906**DCL      4257--DCLINIT
STRUCTURES_L2_NODE$
     21912**DCL     22395--IMP-PTR 23427<<ASSIGN  23428>>ASSIGN  23442<<ASSIGN  23442>>ASSIGN  23443>>IF
     23445>>ASSIGN
STRUCTURE_L1_EXTERNAL$
     21905**DCL     23345<<ASSIGN  23379>>ASSIGN  23392>>ASSIGN
STRUCTURE_L1_NAMES$
     21906**DCL     23349<<ASSIGN  23380>>ASSIGN  23395>>ASSIGN
STRUCTURE_L1_SCRATCH$
     21907**DCL     23353<<ASSIGN  23381>>ASSIGN  23398>>ASSIGN
STRUCTURE_L1_STRUCTURES$
     21908**DCL     22302--IMP-PTR 23365<<ASSIGN  23382>>ASSIGN  23401>>ASSIGN  23422>>ASSIGN  23427>>ASSIGN
STRUCTURE_L1_WINDOWS$
     21909**DCL     23369<<ASSIGN  23383>>ASSIGN  23406>>ASSIGN
STRUCTURE_LEVEL$
     21913**DCL     22496--IMP-PTR 23428<<ASSIGN  23429>>ASSIGN  23430>>ASSIGN  23431>>ASSIGN  23445<<ASSIGN
     23446>>ASSIGN  23447>>ASSIGN  23448>>ASSIGN
SYNONYMS$STREAM
     22785**DCL     23469<>CALL
SYNONYMS_FILE_KEY
     21684**DCL     21661--DCLINIT
SYNONYMS_L0_KEY
     21641**DCL     23469<>CALL
S_$$INCANTATION
      5337**DCL      5154--DCLINIT
PL6.E3A0      #001=VDG$WINIT File=VDG$WORKSPACE.:VDA5TSI                         FRI 07/04/97 11:25 Page:172
S_$$MON_ACC
      5583**DCL      5154--DCLINIT
S_$$MON_EVAL
      5768**DCL      5155--DCLINIT
S_$$MON_PRES
      5953**DCL      5155--DCLINIT
S_$$QUAC
      6138**DCL      5155--DCLINIT
S_$AUTOTAB
      6325**DCL      5156--DCLINIT
S_$BY
      6510**DCL      5157--DCLINIT
S_$CASE
      6779**DCL      5157--DCLINIT
S_$COMMAND
      6964**DCL      5157--DCLINIT
S_$COMMENT
      7150**DCL      5157--DCLINIT
S_$COMPONENT
      7349**DCL      5158--DCLINIT
S_$CONTEXT
      7535**DCL      5158--DCLINIT
S_$CONTROL
      7734**DCL      5158--DCLINIT
S_$DEFAULT_DESTINATION
      7933**DCL      5159--DCLINIT
S_$DEFAULT_SOURCE
      8132**DCL      5159--DCLINIT
S_$DIRECTION
      8331**DCL      5160--DCLINIT
S_$ENCLOSING
     20263**DCL     20169--DCLINIT
S_$EOF_MARK
      8517**DCL      5160--DCLINIT
S_$EXIST
      8716**DCL      5160--DCLINIT
PL6.E3A0      #001=VDG$WINIT File=VDG$WORKSPACE.:VDA5TSI                         FRI 07/04/97 11:25 Page:173
S_$EZ_APPEND
      8901**DCL      5161--DCLINIT
S_$FILEORG
      9285**DCL      5161--DCLINIT
S_$FILERECORDS
      9422**DCL      5161--DCLINIT
S_$FILETYPE
      9087**DCL      5162--DCLINIT
S_$FP
     20400**DCL     20169--DCLINIT
S_$HSALL
      9559**DCL      5162--DCLINIT
S_$HSCROLL
      9744**DCL      5162--DCLINIT
S_$HSCROLL.N#
      9773**DCL     23264<<ASSIGN
S_$HSCROLL_MARGIN
      9930**DCL      5163--DCLINIT
S_$HSCROLL_MARGIN.N#
      9959**DCL     23265<<ASSIGN
S_$INITIALIZE
     10300**DCL      5163--DCLINIT
S_$INSERT
     10115**DCL      5164--DCLINIT
S_$INTRO_1
     10499**DCL      5164--DCLINIT
S_$INTRO_2
     10698**DCL      5165--DCLINIT
S_$KEY_GENERATION
     10897**DCL      5165--DCLINIT
S_$LEFTOVER
     20537**DCL     20169--DCLINIT
S_$MATCHES
     11083**DCL      5166--DCLINIT
S_$MATCH_LIMIT
     11269**DCL      5166--DCLINIT
PL6.E3A0      #001=VDG$WINIT File=VDG$WORKSPACE.:VDA5TSI                         FRI 07/04/97 11:25 Page:174
S_$MAX_COMMAND
     11455**DCL      5166--DCLINIT
S_$MAX_COMMAND.M#
     11483**DCL     23291<<ASSIGN
S_$MAX_RECORD
     11641**DCL      5167--DCLINIT
S_$MIN_COMMAND
     11827**DCL      5167--DCLINIT
S_$MIN_RECORD
     12013**DCL      5167--DCLINIT
S_$NOT_COPIED
     20674**DCL     20170--DCLINIT
S_$ONESPACEEDIT
     12198**DCL      5168--DCLINIT
S_$PAD
     12384**DCL      5169--DCLINIT
S_$PATTERN
     12581**DCL      5169--DCLINIT
S_$POINT
     12768**DCL      5169--DCLINIT
S_$PROTECT
     12954**DCL      5170--DCLINIT
S_$RANGE
     20811**DCL     20170--DCLINIT
S_$RECORDS_DELETED
     13140**DCL      5170--DCLINIT
S_$RECORDS_INSERTED
     13326**DCL      5171--DCLINIT
S_$RECORDWRAP
     13511**DCL      5171--DCLINIT
S_$REKEY
     13697**DCL      5172--DCLINIT
S_$RESTORE
     13883**DCL      5172--DCLINIT
S_$SCREEN
     14082**DCL      5173--DCLINIT
PL6.E3A0      #001=VDG$WINIT File=VDG$WORKSPACE.:VDA5TSI                         FRI 07/04/97 11:25 Page:175
S_$SCREEN.N#
     14111**DCL     23276<<ASSIGN
S_$SCROLL
     14266**DCL      5173--DCLINIT
S_$SEARCH
     14450**DCL      5173--DCLINIT
S_$SITES
     14636**DCL      5174--DCLINIT
S_$SKIP
     14822**DCL      5174--DCLINIT
S_$STRIP_BLANKS
     15007**DCL      5174--DCLINIT
S_$STRUCTURE
     15192**DCL      5175--DCLINIT
S_$TEXTEDIT
     15377**DCL      5175--DCLINIT
S_$VSCROLL
     15562**DCL      5175--DCLINIT
S_$VSCROLL.N#
     15591**DCL     23278<<ASSIGN
S_$VSCROLL_MARGIN
     15748**DCL      5176--DCLINIT
S_$VSCROLL_MARGIN.N#
     15777**DCL     23282<<ASSIGN
S_$WI_BORDER
     15934**DCL      5177--DCLINIT
S_$WI_PERCENT
     16133**DCL      5177--DCLINIT
S_$WORDWRAP
     16319**DCL      5178--DCLINIT
S_$WS_STORAGE
     16505**DCL      5178--DCLINIT
S_ANY
     16704**DCL      5179--DCLINIT
S_AO
     16889**DCL      5179--DCLINIT
PL6.E3A0      #001=VDG$WINIT File=VDG$WORKSPACE.:VDA5TSI                         FRI 07/04/97 11:25 Page:176
S_BACKWARD
     17074**DCL      5179--DCLINIT
S_BIN10
     17259**DCL      5180--DCLINIT
S_BIN521
     17444**DCL      5180--DCLINIT
S_BINHLF
     17629**DCL      5180--DCLINIT
S_BO
     17814**DCL      5181--DCLINIT
S_CURR
     20949**DCL     20170--DCLINIT
S_CURRENT
     21086**DCL     20171--DCLINIT
S_DATA
     17999**DCL      5181--DCLINIT
S_DONT_PROTECT
     18184**DCL      5181--DCLINIT
S_EO
     18369**DCL      5181--DCLINIT
S_FORWARD
     18554**DCL      5182--DCLINIT
S_HERE
     21223**DCL     20171--DCLINIT
S_KEY
     18739**DCL      5182--DCLINIT
S_NEW
     18924**DCL      5182--DCLINIT
S_OFF
     19109**DCL      5183--DCLINIT
S_OLD
     19294**DCL      5183--DCLINIT
S_ON
     19479**DCL      5183--DCLINIT
S_PROTECT
     19664**DCL      5184--DCLINIT
PL6.E3A0      #001=VDG$WINIT File=VDG$WORKSPACE.:VDA5TSI                         FRI 07/04/97 11:25 Page:177
S_SPEC
     19849**DCL      5184--DCLINIT
S_STRING
     20034**DCL      5184--DCLINIT
S_THAT
     21360**DCL     20171--DCLINIT
VD$BUFFER IN PROCEDURE WRITE_PREDEFINED_NAMES
     24523**DCL     24668<>CALL
VD$BUFFER.LENGTH# IN PROCEDURE WRITE_PREDEFINED_NAMES
     24549**DCL     24551--IMP-SIZ 24668>>CALL
VD$FILE_NODE.ACCESS IN PROCEDURE WRITE_PREDEFINED_NAMES
     24602**DCL     24671<<ASSIGN
VD$KEY IN PROCEDURE BUILD_REMOTE_KEY
     23568**DCL     23556--PROC
VD$KEY.REP# IN PROCEDURE BUILD_REMOTE_KEY
     23572**DCL     23584<<ASSIGN
VD$KEY.TYPE# IN PROCEDURE BUILD_REMOTE_KEY
     23572**DCL     23587<<ASSIGN
VD$KEY.V$ IN PROCEDURE BUILD_REMOTE_KEY
     23572**DCL     23578<>CALL    23582>>ASSIGN  23583>>ASSIGN  23583>>ASSIGN
VD$STRING_HEADER
     23217**DCL     23578--CALL
VD$STRUCTURE_LEVEL IN PROCEDURE BUILD_STRUCTURE_NODE
     24084**DCL     24153<>CALL
VD$TEXTC_REMOTE
     23173**DCL     23334<>CALL
VD$TEXTC_REMOTE.BYTES
     23204**DCL     23583<<ASSIGN
VD$TEXTC_REMOTE.LENGTH#
     23202**DCL     23204--IMP-SIZ 23334>>CALL    23582<<ASSIGN  23583>>ASSIGN
VDA$FOPEN
      3078**DCL-ENT 23463--CALL    23466--CALL    23469--CALL    23472--CALL    23476--CALL
VDA$LWRITE
      3080**DCL-ENT 24668--CALL
VDA$PFLUSH
      3081**DCL-ENT 24686--CALL
PL6.E3A0      #001=VDG$WINIT File=VDG$WORKSPACE.:VDA5TSI                         FRI 07/04/97 11:25 Page:178
VDG$ESCREECH
      3084**DCL-ENT 23408--CALL
VDG$OALLOC
      3082**DCL-ENT 23303--CALL    23306--CALL    23418--CALL    23578--CALL    24118--CALL    24135--CALL
     24140--CALL
VDG$OCOPY
      3083**DCL-ENT 23334--CALL    23434--CALL    24153--CALL
VD_$$MON_ACC
      5626**DCL      5187--DCLINIT
VD_$$MON_EVAL
      5811**DCL      5188--DCLINIT
VD_$$MON_PRES
      5996**DCL      5188--DCLINIT
VD_$$QUAC
      6181**DCL      5188--DCLINIT
VD_$AUTOTAB
      6368**DCL      5189--DCLINIT
VD_$AUTOTAB.V#
      6402**DCL     23252<<ASSIGN
VD_$BY_KEY
      6602**DCL      6587--DCLINIT
VD_$CASE
      6822**DCL      5190--DCLINIT
VD_$COMMAND
      7007**DCL      5190--DCLINIT
VD_$COMMAND.V#
      7041**DCL     23288<<ASSIGN  23295<<ASSIGN
VD_$COMMENT
      7210**DCL      5190--DCLINIT
VD_$COMPONENT
      7392**DCL      5191--DCLINIT
VD_$CONTEXT
      7595**DCL      5191--DCLINIT
VD_$CONTROL
      7794**DCL      5191--DCLINIT
VD_$DEFAULT_DESTINATION
PL6.E3A0      #001=VDG$WINIT File=VDG$WORKSPACE.:VDA5TSI                         FRI 07/04/97 11:25 Page:179
      7993**DCL      5192--DCLINIT
VD_$DEFAULT_SOURCE
      8192**DCL      5192--DCLINIT
VD_$DIRECTION
      8374**DCL      5193--DCLINIT
VD_$EOF_MARK
      8577**DCL      5193--DCLINIT
VD_$EXIST
      8759**DCL      5193--DCLINIT
VD_$EZ_APPEND
      8944**DCL      5194--DCLINIT
VD_$FILETYPE
      9147**DCL      5195--DCLINIT
VD_$HSALL
      9602**DCL      5195--DCLINIT
VD_$HSCROLL
      9787**DCL      5195--DCLINIT
VD_$HSCROLL.V#
      9821**DCL     23256<<ASSIGN  23258<<ASSIGN  23259>>IF      23260<<ASSIGN
VD_$HSCROLL_MARGIN
      9973**DCL      5196--DCLINIT
VD_$HSCROLL_MARGIN.V#
     10007**DCL     23262<<ASSIGN
VD_$INITIALIZE
     10360**DCL      5196--DCLINIT
VD_$INSERT
     10158**DCL      5197--DCLINIT
VD_$INSERT.V#
     10192**DCL     23267<<ASSIGN
VD_$INTRO_1
     10559**DCL      5197--DCLINIT
VD_$INTRO_2
     10758**DCL      5198--DCLINIT
VD_$KEY_GENERATION
     10940**DCL      5198--DCLINIT
VD_$MATCHES
PL6.E3A0      #001=VDG$WINIT File=VDG$WORKSPACE.:VDA5TSI                         FRI 07/04/97 11:25 Page:180
     11126**DCL      5199--DCLINIT
VD_$MATCH_LIMIT
     11312**DCL      5199--DCLINIT
VD_$MAX_COMMAND
     11498**DCL      5199--DCLINIT
VD_$MAX_COMMAND.V#
     11532**DCL     23271<<ASSIGN  23290<<ASSIGN
VD_$MAX_RECORD
     11684**DCL      5200--DCLINIT
VD_$MIN_COMMAND
     11870**DCL      5200--DCLINIT
VD_$MIN_COMMAND.V#
     11904**DCL     23275>>ASSIGN  23289<<ASSIGN
VD_$MIN_RECORD
     12056**DCL      5200--DCLINIT
VD_$ONESPACEEDIT
     12241**DCL      5201--DCLINIT
VD_$PAD
     12444**DCL      5202--DCLINIT
VD_$PATTERN
     12633**DCL      5202--DCLINIT
VD_$POINT
     12811**DCL      5202--DCLINIT
VD_$PROTECT
     12997**DCL      5203--DCLINIT
VD_$RECORDS_DELETED
     13183**DCL      5203--DCLINIT
VD_$RECORDS_INSERTED
     13369**DCL      5204--DCLINIT
VD_$RECORDWRAP
     13554**DCL      5204--DCLINIT
VD_$REKEY
     13740**DCL      5205--DCLINIT
VD_$RESTORE
     13943**DCL      5205--DCLINIT
VD_$SCREEN
PL6.E3A0      #001=VDG$WINIT File=VDG$WORKSPACE.:VDA5TSI                         FRI 07/04/97 11:25 Page:181
     14125**DCL      5206--DCLINIT
VD_$SCREEN.V#
     14159**DCL     23274<<ASSIGN  23275>>ASSIGN
VD_$SCROLL
     14309**DCL      5206--DCLINIT
VD_$SEARCH
     14493**DCL      5206--DCLINIT
VD_$SITES
     14679**DCL      5207--DCLINIT
VD_$SKIP
     14865**DCL      5207--DCLINIT
VD_$STRIP_BLANKS
     15050**DCL      5207--DCLINIT
VD_$STRUCTURE
     15243**DCL      5208--DCLINIT
VD_$STRUCTURE.V$
     15269**DCL     23385<<ASSIGN
VD_$TEXTEDIT
     15420**DCL      5208--DCLINIT
VD_$VSCROLL
     15605**DCL      5208--DCLINIT
VD_$VSCROLL_MARGIN
     15791**DCL      5209--DCLINIT
VD_$VSCROLL_MARGIN.V#
     15825**DCL     23280<<ASSIGN
VD_$WI_BORDER
     15994**DCL      5210--DCLINIT
VD_$WI_PERCENT
     16176**DCL      5210--DCLINIT
VD_$WORDWRAP
     16362**DCL      5211--DCLINIT
VD_$WORDWRAP.V#
     16396**DCL     23284<<ASSIGN
VD_$WS_STORAGE
     16566**DCL      5211--DCLINIT
VD_6E.EQUALS$
PL6.E3A0      #001=VDG$WINIT File=VDG$WORKSPACE.:VDA5TSI                         FRI 07/04/97 11:25 Page:182
      3100**DCL     22573--IMP-PTR 23463>>CALL    23488>>CALL
VD_6E.ERR_HEAD$
      3119**DCL     23103--IMP-PTR 24676>>IF      24688>>IF
VD_6E.KEYINS$
      3100**DCL     22891--IMP-PTR 23472>>CALL
VD_6E.LOCATIONS$
      3100**DCL     22679--IMP-PTR 23466>>CALL    23494>>CALL
VD_6E.STRUCTURES$
      3100**DCL     21955--IMP-PTR 23334>>ASSIGN  23334>>CALL    23418>>CALL    23420>>ASSIGN
VD_6E.STRUCTURE_EDITKEY$
      3101**DCL     23341<<ASSIGN
VD_6E.STRUCTURE_EXTERNAL$
      3101**DCL     23379<<ASSIGN  23385>>ASSIGN
VD_6E.STRUCTURE_NAMES$
      3101**DCL     23380<<ASSIGN  23461>>ASSIGN
VD_6E.STRUCTURE_SCRATCH$
      3102**DCL     23381<<ASSIGN
VD_6E.STRUCTURE_SEQUENTIAL$
      3102**DCL     23357<<ASSIGN
VD_6E.STRUCTURE_STRINGKEY$
      3102**DCL     23361<<ASSIGN
VD_6E.STRUCTURE_STRUCTURES$
      3103**DCL     23382<<ASSIGN
VD_6E.STRUCTURE_WINDOWS$
      3103**DCL     23383<<ASSIGN  23475>>ASSIGN
VD_6E.SYNONYMS$
      3100**DCL     22785--IMP-PTR 23469>>CALL
VD_6E.WINDOWS$
      3101**DCL     22997--IMP-PTR 23476>>CALL
VD_6E.WS.INTERNAL_DIR$
      3103**DCL     23387>>ASSIGN
VD_ACCESSOR_PRIV
      3181**DCL     24658>>ASSIGN  24659<<ASSIGN  24694<<ASSIGN
VD_EDITING_HEIGHT
      3126**DCL     23275<<ASSIGN
VD_EQUALS_INIT
PL6.E3A0      #001=VDG$WINIT File=VDG$WORKSPACE.:VDA5TSI                         FRI 07/04/97 11:25 Page:183
      5119**DCL     23488<>CALL
VD_FKEY_NAMES_EQUALS
     21502**DCL     21479--DCLINIT
VD_IBEX_WINDOW
      3125**DCL     23274>>ASSIGN
VD_ORIGINAL_TRMCTL.AUTOTABCLM#
      3160**DCL     23252>>ASSIGN
VD_ORIGINAL_TRMCTL.BREAKCOUNT
      3156**DCL      3156--REDEF
VD_ORIGINAL_TRMCTL.HSCROLL#
      3156**DCL     23254>>IF
VD_ORIGINAL_TRMCTL.HSMARGIN#
      3161**DCL     23262>>ASSIGN
VD_ORIGINAL_TRMCTL.HSSHIFT#
      3162**DCL     23255>>IF      23258>>ASSIGN
VD_ORIGINAL_TRMCTL.INSERTMODE#
      3157**DCL     23267>>ASSIGN
VD_ORIGINAL_TRMCTL.WORDWRAPCLM#
      3160**DCL     23284>>ASSIGN
VD_SCREEN_HEIGHT
      3123**DCL     23271>>ASSIGN  23274>>ASSIGN  23276>>ASSIGN  23278>>ASSIGN  23280>>ASSIGN  23282>>ASSIGN
     23286>>IF
VD_SCREEN_WIDTH
      3124**DCL     23264>>ASSIGN  23265>>ASSIGN
WINDOWS$STREAM
     22997**DCL     23476<>CALL
WINDOWS_FILE_KEY
     21866**DCL     21842--DCLINIT
WINDOWS_L0_KEY
     21822**DCL     23476<>CALL
WINDOWS_L1
      4959**DCL      4405--DCLINIT
WINDOWS_L2
      5012**DCL      4405--DCLINIT
WRITE_PREDEFINED_NAMES
     24219**PROC    23488--CALL    23494--CALL
