VERSION A05

PL6.E3A0      #001=VDI$BAUTO_REKEY File=VDI$BLOCK.:VDA5TSI                       FRI 07/04/97 11:28 Page:1
        1        1        /*T***********************************************************/
        2        2        /*T*                                                         */
        3        3        /*T* Copyright (c) Bull HN Information Systems Inc., 1997    */
        4        4        /*T*                                                         */
        5        5        /*T***********************************************************/
        6        6        /* VDI$BLOCK - Do block insertion and deletion. */
        7        7
        8        8        /*X* MCR=NO, DMC=YES */
        9        9        /*T*/
       10       10
       11       11        /*P*  NAME: VDI$BLOCK
       12       12            PURPOSE:
       13       13                Do block insertion and deletion.
       14       14            DESCRIPTION:
       15       15                This module contains several external routines:
       16       16
       17       17                VDI$BAUTO_REKEY
       18       18                Attempts to do a localized rekey of a destination, given the source
       19       19                range which must fit into the destination.
       20       20
       21       21                VDI$BDELETE
       22       22                Given a range, will call the accessor to delete
       23       23                the range.  Replaces the first and/or last records of the
       24       24                range if any partial records are to be deleted.
       25       25
       26       26                VDI$BINSERT
       27       27                Given source and destination ranges, insert the source range after
       28       28                the destination range.
       29       29
       30       30                VDI$BTYPE
       31       31                Classifies a given range, returning a %BDT_ ("block descriptor type")
       32       32                code.
       33       33        */
       34       34
       35       35        /*D* NAME: VDI$BAUTO_REKEY
       36       36            PARAMETERS:
       37       37                DEST_STREAM - VD$STREAM open to the destination file.
PL6.E3A0      #001=VDI$BAUTO_REKEY File=VDI$BLOCK.:VDA5TSI                       FRI 07/04/97 11:28 Page:2
       38       38                DEST_KEY - A VD$KEY_NUMBER after which the hole is to be made.
       39       39                    Goes at %LVL_EXT_REC-1.
       40       40                DEST_OPTIONS - VD$ACCESS_OPTIONS for the destination.
       41       41                    Specifically, DEST_OPTIONS.KEY_INCR should contain the key
       42       42                        increment specifically requested by the user for this
       43       43                        block operation; or %CLEAR to use the default ($BY).
       44       44                SRC_RECS - The number of records that need to be inserted.
       45       45            INPUT:
       46       46            OUTPUT:
       47       47                Any and all record keys stored in 6Edit's internal
       48       48                    files may have been adjusted based on the rekey we just did.  Any
       49       49                    keys or GETKEY pointers you have in auto are suspect, and should
       50       50                    no longer be used.
       51       51            DESCRIPTION:
       52       52                Read forward from the given destination key.  For each record read,
       53       53                    if we were to rekey the record, we would expand the "key space"
       54       54                    (# of keys we could insert between the given destination key and
       55       55                    the existing record just read, if we rekeyed it).  Keep reading
       56       56                    until either:
       57       57                        The expanded key space will accomodate:
       58       58                            The # of source records (approximated above);
       59       59                            + the # of destination records read so far, which will
       60       60                                have to be rekeyed;
       61       61                            That sum * the key increment to use (either given in
       62       62                                DEST_OPTIONS or defaulted from $BY).
       63       63                         - OR -
       64       64                         The number of records we'd have to rekey exceeds the value of
       65       65                            $REKEY.  If this happens, we should give up and just
       66       66                            rekey the entire destination -- Call VDA$FREKEY to do this.
       67       67                    If we found a number of records which, after rekeying them, would
       68       68                        allow us to insert the source block, then go back and
       69       69                        rekey the records, building an XLATE_LOCATIONS structure as
       70       70                        we do to fix up all references to the rekeyed keys.
       71       71        */
       72       72
       73       73        VDI$BAUTO_REKEY: PROC (DEST_STREAM, DEST_KEY, DEST_OPTIONS, SRC_RECS) ALTRET;
       74       74
PL6.E3A0      #001=VDI$BAUTO_REKEY File=VDI$BLOCK.:VDA5TSI                       FRI 07/04/97 11:28 Page:3
       75       75
       76       76        %INCLUDE VD_MACROS_M;
       77     2291        %INCLUDE VD_PERR_C;
       78     2439
       79     2440    1   DCL VDA$FREKEY   ENTRY (5) ALTRET;
       80     2441    1   DCL VDA$LDELETE  ENTRY (2) ALTRET;
       81     2442    1   DCL VDA$LREAD    ENTRY (4) ALTRET;
       82     2443    1   DCL VDE$RGET     ENTRY (3) ALTRET;
       83     2444    1   DCL VDE$RPUT     ENTRY (6) ALTRET;
       84     2445    1   DCL VDG$OCOPY    ENTRY (2) ALTRET;
       85     2446    1   DCL VDG$OFREE    ENTRY (1) ALTRET;
       86     2447    1   DCL VDG$OALLOC   ENTRY (3) ALTRET;
       87     2448    1   DCL VDG$XLATE_LOCATIONS ENTRY (2) ALTRET;
       88     2449
       89     2450        %VD$RANGE (NAME=DEST$ENCLOSING, STCLASS="BASED(DEST_ENCLOSING$)");
       90     2519        %VD$KEY_NUMBER (NAME=CURR$KEY, STCLASS="BASED(CURR_KEY$)");
       91     2534        %VD$XLATE_LOCATIONS (NAME=XLATE$TABLE, STCLASS="BASED(XLATE$)");
       92     2670        %VD$BLOCK_DESC;
       93     2817        %VD$FILE_NODE;
       94     2910        %VD$WINDOW_SPEC;
       95     2976        %VD$TEXTC_REMOTE;
       96     3037    1   DCL NUM SBIN BASED ALIGNED;
       97     3038        %VD$STREAM (NAME=DEST_STREAM, STCLASS=PARAM);
       98     3144        %VD$KEY_NUMBER (NAME=DEST_KEY, STCLASS=PARAM);
       99     3159        %VD$ACCESS_OPTIONS (NAME=DEST_OPTIONS, STCLASS=PARAM);
      100     3188    1   DCL SRC_RECS SBIN;
      101     3189    1   DCL REL SBIN;
      102     3190    1   DCL CURR_KEY$ PTR;
      103     3191    1   DCL XLATE$ PTR;
      104     3192    1   DCL XLATEX SBIN;
      105     3193    1   DCL XLATE0$ PTR;
      106     3194    1   DCL DELTA SBIN;
      107     3195    1   DCL INCR SBIN;
      108     3196    1   DCL HOLE SBIN;
      109     3197    1   DCL RCRCNT SBIN;
      110     3198    1   DCL START_KEY SBIN;
      111     3199    1   DCL DEST_ENCLOSING$ PTR;
PL6.E3A0      #001=VDI$BAUTO_REKEY File=VDI$BLOCK.:VDA5TSI                       FRI 07/04/97 11:28 Page:4
      112     3200        %VD$LOCATION (NAME=LOC, STCLASS=AUTO);
      113     3228        %VD$RANGE (NAME=DEL_RANGE, STCLASS=AUTO);
      114     3297        %VD$NODE_DESC (NAME=RECORD, STCLASS=AUTO);
      115     3339
      116     3340
      117     3341        %VD_6E (STCLASS=SYMREF);
      118     3377        %VD$NUMBER (NAME=VD_$BY, STCLASS=SYMREF);
      119     3422        %VD$NUMBER (NAME=VD_$REKEY, STCLASS=SYMREF);
      120     3467    1   DCL VD_CURRENT_WINDOW$ PTR SYMREF;
      121     3468
      122     3469
      123     3470
      124     3471    1           HOLE = SRC_RECS;
      125     3472    1           INCR = ADDR(DEST_OPTIONS.KEY_INCR)->CURR$KEY.BYTES#;
      126     3473    1           IF INCR = 0 THEN INCR = VD_$BY.V#;
      127     3474    1           CURR_KEY$ = ADDR(DEST_STREAM.CURRENT.KEY(%LVL_EXT_REC-1));
      128     3475    1           START_KEY = DEST_KEY.BYTES#;
      129     3476    1           REL = 3;
      130     3477    2           DO UNTIL REL < 0;
      131     3478    2              REL = REL - 2;
      132     3479    2              RCRCNT = 0;
      133     3480    2              LOC = DEST_STREAM.CURRENT;
      134     3481    2              LOC.KEY(%LVL_EXT_REC-1) = DEST_KEY;
      135     3482    3              DO UNTIL RCRCNT >= VD_$REKEY.V#;
      136     3483    3                 CALL VDA$LREAD (DEST_STREAM, LOC, REL, '0'B)
      137     3484    3                   ALTRET (LREAD_FAILED);
      138     3485    3                 IF DEST_STREAM.CURRENT.EOF THEN
      139     3486    3                    DELTA = %MX_EDITKEY;
      140     3487    3                 ELSE IF CURR$KEY = LOC.KEY(%LVL_EXT_REC-1) THEN
      141     3488    3                       DELTA = 0;
      142     3489    3                    ELSE
      143     3490    3                       DELTA = CURR$KEY.BYTES#;
      144     3491    3                 DELTA = REL * (DELTA - START_KEY);
      145     3492    3                 IF DELTA/INCR > HOLE + RCRCNT THEN GOTO DO_IT;
      146     3493    3                 IF DELTA*RCRCNT/1000 > HOLE + RCRCNT THEN GOTO DO_IT_ADJUSTED;
      147     3494    3                 LOC.KEY(%LVL_EXT_REC-1) = CURR$KEY;
      148     3495    3                 RCRCNT = RCRCNT + 1;
PL6.E3A0      #001=VDI$BAUTO_REKEY File=VDI$BLOCK.:VDA5TSI                       FRI 07/04/97 11:28 Page:5
      149     3496    3                 END;
      150     3497    2              END;
      151     3498
      152     3499                /*
      153     3500                Couldn't find enough space either way.  Rekey the whole thing.
      154     3501                */
      155     3502
      156     3503    1           CALL VDA$FREKEY (DEST_STREAM, DEST_STREAM, DEST_OPTIONS.KEY_INCR,
      157     3504    1             HOLE, DEST_KEY) ALTRET (FREKEY_FAILED);
      158     3505    1           RETURN;
      159     3506
      160     3507    1   DO_IT_ADJUSTED: ;
      161     3508    1           INCR = 1000/RCRCNT;
      162     3509    1           IF INCR>10 THEN IF INCR>100 THEN INCR = 100; ELSE INCR = 10;
      163     3510    1   DO_IT:  ;
      164     3511    1           DEST_ENCLOSING$ = ADDR(VD_CURRENT_WINDOW$-> VD$FILE_NODE.DESC.SPEC.V$->
      165     3512    1             VD$WINDOW_SPEC.OPERAND.EDIT_BLOCK$-> VD$BLOCK_DESC.RANGE);
      166     3513                /*
      167     3514                *   Build the xlate tables for all current file refs.
      168     3515                */
      169     3516    1           CALL VDG$OALLOC (%CLS_XLATE_LOCATIONS, XLATE0$, SIZEW(XLATE$TABLE) +
      170     3517    1             %N_LOCATION_XLATES * SIZEW(XLATE$TABLE.XLATES)) ALTRET(OALLOC_FAILED);
      171     3518    1           XLATE$ = XLATE0$;
      172     3519                %COPYKEY (FKEY=DEST_STREAM.FILE_KEY, TKEY=XLATE$TABLE.FILE_KEY);
      173     3535    1           XLATE$TABLE.LEVEL# = %LVL_EXT_REC;
      174     3536
      175     3537    1           CALL VDG$XLATE_LOCATIONS (XLATE$TABLE, %XLATE_BUILD)
      176     3538    1             ALTRET(XLATE_FAILED);
      177     3539
      178     3540    2           IF REL>0 THEN DO WHILE '1'B;
      179     3541    2              XLATEX = XLATE$TABLE.N_ENTRIES# - 1;
      180     3542    2              IF XLATE$TABLE.FLINK$ = ADDR(NIL) THEN EXIT;
      181     3543    2              XLATE$ = XLATE$TABLE.FLINK$;
      182     3544    2              END;
      183     3545    1           ELSE XLATEX = 0;
      184     3546
      185     3547    1           IF REL<0 THEN RCRCNT = RCRCNT+1;
PL6.E3A0      #001=VDI$BAUTO_REKEY File=VDI$BLOCK.:VDA5TSI                       FRI 07/04/97 11:28 Page:6
      186     3548
      187     3549    1           REL = -REL;
      188     3550    1           DEL_RANGE = %CLEAR;
      189     3551    1           RECORD = %CLEAR;
      190     3552    1           RECORD.KEY = CURR$KEY;
      191     3553    2           IF CURR$KEY = LOC.KEY(%LVL_EXT_REC-1) /* BOF */ THEN DO;
      192     3554    2              START_KEY = INCR + 3*512*262144;
      193     3555    2              REL = 0;  /* Can't skip from BOF, we'll miss the first record */
      194     3556    2              END;
      195     3557    2           ELSE DO;
      196     3558    3              IF DEST_STREAM.CURRENT.EOF THEN DO;
      197     3559    3                 ADDR(RECORD.KEY) -> CURR$KEY.LENGTH# = 4; /* Make a big key */
      198     3560                      /* Use nice numbers if possible */
      199     3561    3                 START_KEY =
      200     3562    3                   ((HOLE+RCRCNT)*INCR+START_KEY+INCR-1)/INCR*INCR + 3*512*262144;
      201     3563    3                 END;
      202     3564    2              ELSE START_KEY = ADDR(CURR$KEY.LENGTH#)->NUM+REL*INCR;
      203     3565    2              CALL CHECK_XLATE; /* Get positioned to the first one that matters */
      204     3566    2              END;
      205     3567    1           INCR = REL*INCR; /* Make it easier to use */
      206     3568    1           DELTA = 0;
      207     3569    2           DO UNTIL RCRCNT = 0;
      208     3570    2              CALL VDA$LREAD (DEST_STREAM, , REL, '1'B) ALTRET (LREAD_FAILED);
      209     3571    2              IF REL = 0 THEN REL = 1;
      210     3572    2              CALL VDE$RGET (DEST_STREAM, DEST$ENCLOSING, RECORD)
      211     3573    2                ALTRET (RGET_FAILED);
      212     3574    2              CALL CHECK_XLATE;
      213     3575    2              DEL_RANGE.START.KEY(%LVL_EXT_REC-1) = RECORD.KEY;
      214     3576    2              DEL_RANGE.ENDD.KEY(%LVL_EXT_REC-1) = RECORD.KEY;
      215     3577    2              CALL VDA$LDELETE (DEST_STREAM, DEL_RANGE) ALTRET (LDELETE_FAILED);
      216     3578
      217     3579    2              ADDR(RECORD.KEY.V$) -> NUM = START_KEY;
      218     3580    2              CALL VDE$RPUT (DEST_STREAM, DEST$ENCLOSING, DEST_OPTIONS,
      219     3581    2                RECORD, %SQ_CURRENT) ALTRET (RPUT_FAILED);
      220     3582    2              RCRCNT = RCRCNT - 1;
      221     3583    2              START_KEY = START_KEY + INCR;
      222     3584    2              END;
PL6.E3A0      #001=VDI$BAUTO_REKEY File=VDI$BLOCK.:VDA5TSI                       FRI 07/04/97 11:28 Page:7
      223     3585
      224     3586    1           CALL VDG$XLATE_LOCATIONS (XLATE0$ -> XLATE$TABLE, %XLATE_LOCATION)
      225     3587    1             ALTRET (XLATE_FAILED);
      226     3588    2           DO UNTIL XLATE0$ = ADDR(NIL);
      227     3589    2              XLATE$ = XLATE0$;
      228     3590    2              XLATE0$ = XLATE$TABLE.FLINK$;
      229     3591    2              CALL VDG$OFREE (XLATE$TABLE);
      230     3592    2              END;
      231     3593
      232     3594    1           RETURN;
      233     3595
      234     3596    1   OALLOC_FAILED: ;
      235     3597    1   XLATE_FAILED: ;
      236     3598    1   FREKEY_FAILED: ;
      237     3599    1   LDELETE_FAILED: ;
      238     3600    1   LREAD_FAILED: ;
      239     3601    1   RGET_FAILED: ;
      240     3602    1   RPUT_FAILED: ;
      241     3603    1           ALTRETURN;
      242     3604        %EJECT;
PL6.E3A0      #001=VDI$BAUTO_REKEY File=VDI$BLOCK.:VDA5TSI                       FRI 07/04/97 11:28 Page:8
      243     3605        /*D* NAME: CHECK_XLATE
      244     3606            INPUT:
      245     3607                XLATE$ - points to the last used xlate table set.
      246     3608                XLATEX - is the last used xlate table index.  It goes down if
      247     3609                    REL<0 and up otherwise.
      248     3610                DELTA - set to zero to enable key changing.  Otherwise, just position
      249     3611                    the xlate table to the starting position.
      250     3612            DESCRIPTION:
      251     3613                If RECORD.KEY looks like it makes the next xlate table entry
      252     3614                    get updated, do it and adjust XLATEX and XLATE$ to point to
      253     3615                    the next one.
      254     3616        */
      255     3617
      256     3618    1   CHECK_XLATE: PROC;
      257     3619
      258     3620    3           DO WHILE '1'B;
      259     3621    3              IF XLATE$ = ADDR(NIL) OR XLATEX < 0 THEN RETURN;
      260     3622    3              IF RECORD.KEY.V$~=XLATE$TABLE.XLATES.OLD_KEY_LO.V$(XLATEX) THEN
      261     3623    3                 IF RECORD.KEY.V$<XLATE$TABLE.XLATES.OLD_KEY_LO.V$(XLATEX) AND REL>=0
      262     3624    3                   OR RECORD.KEY.V$>XLATE$TABLE.XLATES.OLD_KEY_LO.V$(XLATEX) AND REL<0
      263     3625    3                 THEN RETURN;
      264     3626
      265     3627    3              IF DELTA=0 THEN
      266     3628    3                 ADDR(XLATE$TABLE.XLATES.NEW_KEY.V$(XLATEX))->NUM = START_KEY;
      267     3629    3              XLATEX = XLATEX + REL;
      268     3630    4              IF XLATEX >= XLATE$TABLE.N_ENTRIES# THEN DO;
      269     3631    4                 XLATE$ = XLATE$TABLE.FLINK$;
      270     3632    4                 XLATEX = 0;
      271     3633    4                 END;
      272     3634    4              IF XLATEX < 0 AND XLATE$ ~= XLATE0$ THEN DO;
      273     3635    4                 LOC.KEY.V$(0) = XLATE$;
      274     3636    4                 XLATE$ = XLATE0$;
      275     3637    5                 DO WHILE '1'B;
      276     3638    5                    XLATEX = XLATE$TABLE.N_ENTRIES# - 1;
      277     3639    5                    IF XLATE$TABLE.FLINK$ = LOC.KEY.V$(0) THEN EXIT;
      278     3640    5                    XLATE$ = XLATE$TABLE.FLINK$;
      279     3641    5                    END;
PL6.E3A0      #001=VDI$BAUTO_REKEY File=VDI$BLOCK.:VDA5TSI                       FRI 07/04/97 11:28 Page:9
      280     3642    4                 END;
      281     3643
      282     3644    3              END;
      283     3645    2   END CHECK_XLATE;
      284     3646
      285     3647    1   END VDI$BAUTO_REKEY;
      286     3648        %EOD;

PL6.E3A0      #001=VDI$BAUTO_REKEY File=VDI$BLOCK.:VDA5TSI                       FRI 07/04/97 11:28 Page:10
--  Include file information  --

   VD_PERR_C.:VDA5TOU  is referenced.
   VD_MACROS_M.:VDA5TOU  is referenced.
   B$JIT_C.:E04TOU  was found in the system file and is never referenced.
   CP_6_C.:E04TOU  was found in the system file and is never referenced.
      No diagnostics issued in procedure VDI$BAUTO_REKEY.

   Procedure VDI$BAUTO_REKEY requires 369 words for executable code.
   Procedure VDI$BAUTO_REKEY requires 60 words of local(AUTO) storage.

PL6.E3A0      #001=VDI$BAUTO_REKEY File=VDI$BLOCK.:VDA5TSI                       FRI 07/04/97 11:28 Page:11

 Object Unit name= VDI$BAUTO_REKEY                            File name= VDI$BLOCK.:VDA5TOU
 UTS= JUL 04 '97 11:28:06.92 FRI                              Compiler= PL-6/E31         Sev=      00
 SharedLib= :SHARED_SYSTEM                                    Alt SharedLib=


    ****  Control sections  ****

 Sect   Type Bound  Init  Size OctSiz  Section name(segment info)
    0   Proc  even  none   369    561  VDI$BAUTO_REKEY
    1  RoData even  none     9     11  VDI$BAUTO_REKEY

    ****  Entry defs  ****

                              Check   Calling
                             calling  sequence
  Sect OctLoc Primary Altret sequence   type   Parms  Name
     0      0   yes    yes     yes      Std        4  VDI$BAUTO_REKEY

  ****  Entry refs  ****

         Check        Calling
        calling       sequence
Altret sequence SRef   type   Args  Name
 yes     yes           Std       4 VDA$LREAD
 yes     yes           Std       5 VDA$FREKEY
 yes     yes           Std       3 VDE$RGET
 yes     yes           Std       3 VDG$OALLOC
 yes     yes           Std       2 VDA$LDELETE
 yes     yes           Std       2 VDG$OCOPY
 yes     yes           Std       1 VDG$OFREE
 yes     yes           Std       2 VDG$XLATE_LOCATIONS
 yes     yes           Std       6 VDE$RPUT
                       nStd      0 X66_AUTO_4
                       Std       0 B_CONSPOOL_D
                       nStd      0 X66_ARET
                       nStd      0 X66_AALT
PL6.E3A0      #001=VDI$BAUTO_REKEY File=VDI$BLOCK.:VDA5TSI                       FRI 07/04/97 11:28 Page:12

  ****  Data refs  ****

  Flags:  r = read only, s = secondary
Flgs Name                             Flgs Name                             Flgs Name
     VD_$BY                                VD_$REKEY                             VD_CURRENT_WINDOW$
     B_VECTNIL

  ****  Segment refs  ****

  Flags:  r = read only, s = secondary
Flgs Name                             Flgs Name                             Flgs Name
     ISSID
PL6.E3A0      #001=VDI$BAUTO_REKEY File=VDI$BLOCK.:VDA5TSI                       FRI 07/04/97 11:28 Page:13


        1        1        /*T***********************************************************/
        2        2        /*T*                                                         */
        3        3        /*T* Copyright (c) Bull HN Information Systems Inc., 1997    */
        4        4        /*T*                                                         */
        5        5        /*T***********************************************************/
        6        6        /* VDI$BLOCK - Do block insertion and deletion. */
        7        7
        8        8        /*X* MCR=NO, DMC=YES */
        9        9        /*T*/
       10       10
       11       11        /*P*  NAME: VDI$BLOCK
       12       12            PURPOSE:
       13       13                Do block insertion and deletion.
       14       14            DESCRIPTION:
       15       15                This module contains several external routines:
       16       16
       17       17                VDI$BAUTO_REKEY
       18       18                Attempts to do a localized rekey of a destination, given the source
       19       19                range which must fit into the destination.
       20       20
       21       21                VDI$BDELETE
       22       22                Given a range, will call the accessor to delete
       23       23                the range.  Replaces the first and/or last records of the
       24       24                range if any partial records are to be deleted.
       25       25
       26       26                VDI$BINSERT
       27       27                Given source and destination ranges, insert the source range after
       28       28                the destination range.
       29       29
       30       30                VDI$BTYPE
       31       31                Classifies a given range, returning a %BDT_ ("block descriptor type")
       32       32                code.
       33       33        */
       34       34
       35       35        /*D* NAME: VDI$BAUTO_REKEY
       36       36            PARAMETERS:
PL6.E3A0      #001=VDI$BAUTO_REKEY File=VDI$BLOCK.:VDA5TSI                       FRI 07/04/97 11:28 Page:14
       37       37                DEST_STREAM - VD$STREAM open to the destination file.
       38       38                DEST_KEY - A VD$KEY_NUMBER after which the hole is to be made.
       39       39                    Goes at %LVL_EXT_REC-1.
       40       40                DEST_OPTIONS - VD$ACCESS_OPTIONS for the destination.
       41       41                    Specifically, DEST_OPTIONS.KEY_INCR should contain the key
       42       42                        increment specifically requested by the user for this
       43       43                        block operation; or %CLEAR to use the default ($BY).
       44       44                SRC_RECS - The number of records that need to be inserted.
       45       45            INPUT:
       46       46            OUTPUT:
       47       47                Any and all record keys stored in 6Edit's internal
       48       48                    files may have been adjusted based on the rekey we just did.  Any
       49       49                    keys or GETKEY pointers you have in auto are suspect, and should
       50       50                    no longer be used.
       51       51            DESCRIPTION:
       52       52                Read forward from the given destination key.  For each record read,
       53       53                    if we were to rekey the record, we would expand the "key space"
       54       54                    (# of keys we could insert between the given destination key and
       55       55                    the existing record just read, if we rekeyed it).  Keep reading
       56       56                    until either:
       57       57                        The expanded key space will accomodate:
       58       58                            The # of source records (approximated above);
       59       59                            + the # of destination records read so far, which will
       60       60                                have to be rekeyed;
       61       61                            That sum * the key increment to use (either given in
       62       62                                DEST_OPTIONS or defaulted from $BY).
       63       63                         - OR -
       64       64                         The number of records we'd have to rekey exceeds the value of
       65       65                            $REKEY.  If this happens, we should give up and just
       66       66                            rekey the entire destination -- Call VDA$FREKEY to do this.
       67       67                    If we found a number of records which, after rekeying them, would
       68       68                        allow us to insert the source block, then go back and
       69       69                        rekey the records, building an XLATE_LOCATIONS structure as
       70       70                        we do to fix up all references to the rekeyed keys.
       71       71        */
       72       72
       73       73        VDI$BAUTO_REKEY: PROC (DEST_STREAM, DEST_KEY, DEST_OPTIONS, SRC_RECS) ALTRET;
PL6.E3A0      #001=VDI$BAUTO_REKEY File=VDI$BLOCK.:VDA5TSI                       FRI 07/04/97 11:28 Page:15

     73  0 000000   000000 700200 xent  VDI$BAUTO_R* TSX0  ! X66_AUTO_4
         0 000001   000074 000004                    ZERO    60,4

       74       74
       75       75
       76       76        %INCLUDE VD_MACROS_M;
       77     2291        %INCLUDE VD_PERR_C;
       78     2439
       79     2440    1   DCL VDA$FREKEY   ENTRY (5) ALTRET;
       80     2441    1   DCL VDA$LDELETE  ENTRY (2) ALTRET;
       81     2442    1   DCL VDA$LREAD    ENTRY (4) ALTRET;
       82     2443    1   DCL VDE$RGET     ENTRY (3) ALTRET;
       83     2444    1   DCL VDE$RPUT     ENTRY (6) ALTRET;
       84     2445    1   DCL VDG$OCOPY    ENTRY (2) ALTRET;
       85     2446    1   DCL VDG$OFREE    ENTRY (1) ALTRET;
       86     2447    1   DCL VDG$OALLOC   ENTRY (3) ALTRET;
       87     2448    1   DCL VDG$XLATE_LOCATIONS ENTRY (2) ALTRET;
       88     2449
       89     2450        %VD$RANGE (NAME=DEST$ENCLOSING, STCLASS="BASED(DEST_ENCLOSING$)");
       90     2519        %VD$KEY_NUMBER (NAME=CURR$KEY, STCLASS="BASED(CURR_KEY$)");
       91     2534        %VD$XLATE_LOCATIONS (NAME=XLATE$TABLE, STCLASS="BASED(XLATE$)");
       92     2670        %VD$BLOCK_DESC;
       93     2817        %VD$FILE_NODE;
       94     2910        %VD$WINDOW_SPEC;
       95     2976        %VD$TEXTC_REMOTE;
       96     3037    1   DCL NUM SBIN BASED ALIGNED;
       97     3038        %VD$STREAM (NAME=DEST_STREAM, STCLASS=PARAM);
       98     3144        %VD$KEY_NUMBER (NAME=DEST_KEY, STCLASS=PARAM);
       99     3159        %VD$ACCESS_OPTIONS (NAME=DEST_OPTIONS, STCLASS=PARAM);
      100     3188    1   DCL SRC_RECS SBIN;
      101     3189    1   DCL REL SBIN;
      102     3190    1   DCL CURR_KEY$ PTR;
      103     3191    1   DCL XLATE$ PTR;
      104     3192    1   DCL XLATEX SBIN;
      105     3193    1   DCL XLATE0$ PTR;
      106     3194    1   DCL DELTA SBIN;
PL6.E3A0      #001=VDI$BAUTO_REKEY File=VDI$BLOCK.:VDA5TSI                       FRI 07/04/97 11:28 Page:16
      107     3195    1   DCL INCR SBIN;
      108     3196    1   DCL HOLE SBIN;
      109     3197    1   DCL RCRCNT SBIN;
      110     3198    1   DCL START_KEY SBIN;
      111     3199    1   DCL DEST_ENCLOSING$ PTR;
      112     3200        %VD$LOCATION (NAME=LOC, STCLASS=AUTO);
      113     3228        %VD$RANGE (NAME=DEL_RANGE, STCLASS=AUTO);
      114     3297        %VD$NODE_DESC (NAME=RECORD, STCLASS=AUTO);
      115     3339
      116     3340
      117     3341        %VD_6E (STCLASS=SYMREF);
      118     3377        %VD$NUMBER (NAME=VD_$BY, STCLASS=SYMREF);
      119     3422        %VD$NUMBER (NAME=VD_$REKEY, STCLASS=SYMREF);
      120     3467    1   DCL VD_CURRENT_WINDOW$ PTR SYMREF;
      121     3468
      122     3469
      123     3470
      124     3471    1           HOLE = SRC_RECS;

   3471  0 000002   200006 470500                    LDP0    @SRC_RECS,,AUTO
         0 000003   000000 235100                    LDA     0,,PR0
         0 000004   200016 755100                    STA     HOLE,,AUTO

      125     3472    1           INCR = ADDR(DEST_OPTIONS.KEY_INCR)->CURR$KEY.BYTES#;

   3472  0 000005   200005 471500                    LDP1    @DEST_OPTIONS,,AUTO
         0 000006   100004 236100                    LDQ     4,,PR1
         0 000007   000032 376000 xsym               ANQ     B_VECTNIL+26
         0 000010   200015 756100                    STQ     INCR,,AUTO

      126     3473    1           IF INCR = 0 THEN INCR = VD_$BY.V#;

   3473  0 000011   000014 601000 0                  TNZ     s:3474

   3473  0 000012   000003 235000 xsym               LDA     VD_$BY+3
         0 000013   200015 755100                    STA     INCR,,AUTO

PL6.E3A0      #001=VDI$BAUTO_REKEY File=VDI$BLOCK.:VDA5TSI                       FRI 07/04/97 11:28 Page:17
      127     3474    1           CURR_KEY$ = ADDR(DEST_STREAM.CURRENT.KEY(%LVL_EXT_REC-1));

   3474  0 000014   200003 236100                    LDQ     @DEST_STREAM,,AUTO
         0 000015   000006 036003                    ADLQ    6,DU
         0 000016   200010 756100                    STQ     CURR_KEY$,,AUTO

      128     3475    1           START_KEY = DEST_KEY.BYTES#;

   3475  0 000017   200004 473500                    LDP3    @DEST_KEY,,AUTO
         0 000020   300001 236100                    LDQ     1,,PR3
         0 000021   000032 376000 xsym               ANQ     B_VECTNIL+26
         0 000022   200020 756100                    STQ     START_KEY,,AUTO

      129     3476    1           REL = 3;

   3476  0 000023   000003 235007                    LDA     3,DL
         0 000024   200007 755100                    STA     REL,,AUTO

      130     3477    2           DO UNTIL REL < 0;

      131     3478    2              REL = REL - 2;

   3478  0 000025   000002 336007                    LCQ     2,DL
         0 000026   200007 056100                    ASQ     REL,,AUTO

      132     3479    2              RCRCNT = 0;

   3479  0 000027   200017 450100                    STZ     RCRCNT,,AUTO

      133     3480    2              LOC = DEST_STREAM.CURRENT;

   3480  0 000030   200003 470500                    LDP0    @DEST_STREAM,,AUTO
         0 000031   000100 100500                    MLR     fill='000'O
         0 000032   000006 000044                    ADSC9   6,,PR0                   cn=0,n=36
         0 000033   200022 000044                    ADSC9   LOC,,AUTO                cn=0,n=36

      134     3481    2              LOC.KEY(%LVL_EXT_REC-1) = DEST_KEY;
PL6.E3A0      #001=VDI$BAUTO_REKEY File=VDI$BLOCK.:VDA5TSI                       FRI 07/04/97 11:28 Page:18

   3481  0 000034   200004 471500                    LDP1    @DEST_KEY,,AUTO
         0 000035   000100 100500                    MLR     fill='000'O
         0 000036   100000 000010                    ADSC9   0,,PR1                   cn=0,n=8
         0 000037   200022 000010                    ADSC9   LOC,,AUTO                cn=0,n=8

      135     3482    3              DO UNTIL RCRCNT >= VD_$REKEY.V#;

      136     3483    3                 CALL VDA$LREAD (DEST_STREAM, LOC, REL, '0'B)

   3483  0 000040   000000 236000 1                  LDQ     0
         0 000041   200071 756100                    STQ     RECORD+12,,AUTO
         0 000042   200007 630500                    EPPR0   REL,,AUTO
         0 000043   200070 450500                    STP0    RECORD+11,,AUTO
         0 000044   200022 631500                    EPPR1   LOC,,AUTO
         0 000045   200067 451500                    STP1    RECORD+10,,AUTO
         0 000046   200003 236100                    LDQ     @DEST_STREAM,,AUTO
         0 000047   200066 756100                    STQ     RECORD+9,,AUTO
         0 000050   200066 630500                    EPPR0   RECORD+9,,AUTO
         0 000051   000022 631400 xsym               EPPR1   B_VECTNIL+18
         0 000052   000000 701000 xent               TSX1    VDA$LREAD
         0 000053   000464 702000 0                  TSX2    OALLOC_FAILED

      137     3484    3                   ALTRET (LREAD_FAILED);
      138     3485    3                 IF DEST_STREAM.CURRENT.EOF THEN

   3485  0 000054   200003 470500                    LDP0    @DEST_STREAM,,AUTO
         0 000055   000016 236100                    LDQ     14,,PR0
         0 000056   400000 316007                    CANQ    -131072,DL
         0 000057   000063 600000 0                  TZE     s:3487

      139     3486    3                    DELTA = %MX_EDITKEY;

   3486  0 000060   000001 235000 1                  LDA     1
         0 000061   200014 755100                    STA     DELTA,,AUTO
         0 000062   000075 710000 0                  TRA     s:3491

PL6.E3A0      #001=VDI$BAUTO_REKEY File=VDI$BLOCK.:VDA5TSI                       FRI 07/04/97 11:28 Page:19
      140     3487    3                 ELSE IF CURR$KEY = LOC.KEY(%LVL_EXT_REC-1) THEN

   3487  0 000063   200010 471500                    LDP1    CURR_KEY$,,AUTO
         0 000064   000100 106500                    CMPC    fill='000'O
         0 000065   100000 000010                    ADSC9   0,,PR1                   cn=0,n=8
         0 000066   200022 000010                    ADSC9   LOC,,AUTO                cn=0,n=8
         0 000067   000072 601000 0                  TNZ     s:3490

      141     3488    3                       DELTA = 0;

   3488  0 000070   200014 450100                    STZ     DELTA,,AUTO
         0 000071   000075 710000 0                  TRA     s:3491

      142     3489    3                    ELSE
      143     3490    3                       DELTA = CURR$KEY.BYTES#;

   3490  0 000072   100001 236100                    LDQ     1,,PR1
         0 000073   000032 376000 xsym               ANQ     B_VECTNIL+26
         0 000074   200014 756100                    STQ     DELTA,,AUTO

      144     3491    3                 DELTA = REL * (DELTA - START_KEY);

   3491  0 000075   200014 236100                    LDQ     DELTA,,AUTO
         0 000076   200020 136100                    SBLQ    START_KEY,,AUTO
         0 000077   200007 402100                    MPY     REL,,AUTO
         0 000100   200014 756100                    STQ     DELTA,,AUTO

      145     3492    3                 IF DELTA/INCR > HOLE + RCRCNT THEN GOTO DO_IT;

   3492  0 000101   200015 506100                    DIV     INCR,,AUTO
         0 000102   200066 756100                    STQ     RECORD+9,,AUTO
         0 000103   200016 236100                    LDQ     HOLE,,AUTO
         0 000104   200017 036100                    ADLQ    RCRCNT,,AUTO
         0 000105   200066 116100                    CMPQ    RECORD+9,,AUTO
         0 000106   000164 604000 0                  TMI     DO_IT

      146     3493    3                 IF DELTA*RCRCNT/1000 > HOLE + RCRCNT THEN GOTO DO_IT_ADJUSTED;
PL6.E3A0      #001=VDI$BAUTO_REKEY File=VDI$BLOCK.:VDA5TSI                       FRI 07/04/97 11:28 Page:20

   3493  0 000107   200014 236100                    LDQ     DELTA,,AUTO
         0 000110   200017 402100                    MPY     RCRCNT,,AUTO
         0 000111   001750 506007                    DIV     1000,DL
         0 000112   200066 756100                    STQ     RECORD+9,,AUTO
         0 000113   200016 236100                    LDQ     HOLE,,AUTO
         0 000114   200017 036100                    ADLQ    RCRCNT,,AUTO
         0 000115   200066 116100                    CMPQ    RECORD+9,,AUTO
         0 000116   000150 604000 0                  TMI     DO_IT_ADJUSTED

      147     3494    3                 LOC.KEY(%LVL_EXT_REC-1) = CURR$KEY;

   3494  0 000117   200010 471500                    LDP1    CURR_KEY$,,AUTO
         0 000120   000100 100500                    MLR     fill='000'O
         0 000121   100000 000010                    ADSC9   0,,PR1                   cn=0,n=8
         0 000122   200022 000010                    ADSC9   LOC,,AUTO                cn=0,n=8

      148     3495    3                 RCRCNT = RCRCNT + 1;

   3495  0 000123   200017 054100                    AOS     RCRCNT,,AUTO

      149     3496    3                 END;

   3496  0 000124   200017 236100                    LDQ     RCRCNT,,AUTO
         0 000125   000003 116000 xsym               CMPQ    VD_$REKEY+3
         0 000126   000040 604000 0                  TMI     s:3483

      150     3497    2              END;

   3497  0 000127   200007 235100                    LDA     REL,,AUTO
         0 000130   000025 605000 0                  TPL     s:3478

      151     3498
      152     3499                /*
      153     3500                Couldn't find enough space either way.  Rekey the whole thing.
      154     3501                */
      155     3502
PL6.E3A0      #001=VDI$BAUTO_REKEY File=VDI$BLOCK.:VDA5TSI                       FRI 07/04/97 11:28 Page:21
      156     3503    1           CALL VDA$FREKEY (DEST_STREAM, DEST_STREAM, DEST_OPTIONS.KEY_INCR,

   3503  0 000131   200004 236100                    LDQ     @DEST_KEY,,AUTO
         0 000132   200072 756100                    STQ     RECORD+13,,AUTO
         0 000133   200016 633500                    EPPR3   HOLE,,AUTO
         0 000134   200071 453500                    STP3    RECORD+12,,AUTO
         0 000135   200005 236100                    LDQ     @DEST_OPTIONS,,AUTO
         0 000136   000003 036003                    ADLQ    3,DU
         0 000137   200070 756100                    STQ     RECORD+11,,AUTO
         0 000140   200003 236100                    LDQ     @DEST_STREAM,,AUTO
         0 000141   200003 235100                    LDA     @DEST_STREAM,,AUTO
         0 000142   200066 757100                    STAQ    RECORD+9,,AUTO
         0 000143   200066 630500                    EPPR0   RECORD+9,,AUTO
         0 000144   000023 631400 xsym               EPPR1   B_VECTNIL+19
         0 000145   000000 701000 xent               TSX1    VDA$FREKEY
         0 000146   000464 702000 0                  TSX2    OALLOC_FAILED

      157     3504    1             HOLE, DEST_KEY) ALTRET (FREKEY_FAILED);
      158     3505    1           RETURN;

   3505  0 000147   000000 702200 xent               TSX2  ! X66_ARET

   3503  0 000150                       DO_IT_ADJUS* null
      159     3506
      160     3507    1   DO_IT_ADJUSTED: ;
      161     3508    1           INCR = 1000/RCRCNT;

   3508  0 000150   001750 236007                    LDQ     1000,DL
         0 000151   200017 506100                    DIV     RCRCNT,,AUTO
         0 000152   200015 756100                    STQ     INCR,,AUTO

      162     3509    1           IF INCR>10 THEN IF INCR>100 THEN INCR = 100; ELSE INCR = 10;

   3509  0 000153   000012 116007                    CMPQ    10,DL
         0 000154   000164 604400 0                  TMOZ    DO_IT

   3509  0 000155   000144 116007                    CMPQ    100,DL
PL6.E3A0      #001=VDI$BAUTO_REKEY File=VDI$BLOCK.:VDA5TSI                       FRI 07/04/97 11:28 Page:22
         0 000156   000162 604400 0                  TMOZ    s:3509+7

   3509  0 000157   000144 235007                    LDA     100,DL
         0 000160   200015 755100                    STA     INCR,,AUTO
         0 000161   000164 710000 0                  TRA     DO_IT

   3509  0 000162   000012 235007                    LDA     10,DL
         0 000163   200015 755100                    STA     INCR,,AUTO

   3509  0 000164                       DO_IT        null
      163     3510    1   DO_IT:  ;
      164     3511    1           DEST_ENCLOSING$ = ADDR(VD_CURRENT_WINDOW$-> VD$FILE_NODE.DESC.SPEC.V$->

   3511  0 000164   000000 471400 xsym               LDP1    VD_CURRENT_WINDOW$
         0 000165   100007 473500                    LDP3    7,,PR1
         0 000166   300012 474500                    LDP4    10,,PR3
         0 000167   400003 635500                    EPPR5   3,,PR4
         0 000170   200021 455500                    STP5    DEST_ENCLOSING$,,AUTO

      165     3512    1             VD$WINDOW_SPEC.OPERAND.EDIT_BLOCK$-> VD$BLOCK_DESC.RANGE);
      166     3513                /*
      167     3514                *   Build the xlate tables for all current file refs.
      168     3515                */
      169     3516    1           CALL VDG$OALLOC (%CLS_XLATE_LOCATIONS, XLATE0$, SIZEW(XLATE$TABLE) +

   3516  0 000171   000004 236000 1                  LDQ     4
         0 000172   200070 756100                    STQ     RECORD+11,,AUTO
         0 000173   200013 633500                    EPPR3   XLATE0$,,AUTO
         0 000174   200067 453500                    STP3    RECORD+10,,AUTO
         0 000175   000005 236000 1                  LDQ     5
         0 000176   200066 756100                    STQ     RECORD+9,,AUTO
         0 000177   200066 630500                    EPPR0   RECORD+9,,AUTO
         0 000200   000021 631400 xsym               EPPR1   B_VECTNIL+17
         0 000201   000000 701000 xent               TSX1    VDG$OALLOC
         0 000202   000464 702000 0                  TSX2    OALLOC_FAILED

      170     3517    1             %N_LOCATION_XLATES * SIZEW(XLATE$TABLE.XLATES)) ALTRET(OALLOC_FAILED);
PL6.E3A0      #001=VDI$BAUTO_REKEY File=VDI$BLOCK.:VDA5TSI                       FRI 07/04/97 11:28 Page:23
      171     3518    1           XLATE$ = XLATE0$;

   3518  0 000203   200013 236100                    LDQ     XLATE0$,,AUTO
         0 000204   200011 756100                    STQ     XLATE$,,AUTO

      172     3519                %COPYKEY (FKEY=DEST_STREAM.FILE_KEY, TKEY=XLATE$TABLE.FILE_KEY);

   3532  0 000205   200003 470500                    LDP0    @DEST_STREAM,,AUTO
         0 000206   200011 471500                    LDP1    XLATE$,,AUTO
         0 000207   000100 100500                    MLR     fill='000'O
         0 000210   000004 000010                    ADSC9   4,,PR0                   cn=0,n=8
         0 000211   100003 000010                    ADSC9   3,,PR1                   cn=0,n=8

   3532  0 000212   000004 720100                    LXL0    4,,PR0
         0 000213   000002 100003                    CMPX0   2,DU
         0 000214   000227 601000 0                  TNZ     s:3535

   3532  0 000215   000005 473500                    LDP3    5,,PR0
         0 000216   000004 036003                    ADLQ    4,DU
         0 000217   200067 756100                    STQ     RECORD+10,,AUTO
         0 000220   200066 453500                    STP3    RECORD+9,,AUTO
         0 000221   200066 630500                    EPPR0   RECORD+9,,AUTO
         0 000222   000020 631400 xsym               EPPR1   B_VECTNIL+16
         0 000223   000000 701000 xent               TSX1    VDG$OCOPY
         0 000224   000226 702000 0                  TSX2    s:3533
         0 000225   000227 710000 0                  TRA     s:3535

   3533  0 000226   000000 702200 xent               TSX2  ! X66_AALT

      173     3535    1           XLATE$TABLE.LEVEL# = %LVL_EXT_REC;

   3535  0 000227   000001 220003                    LDX0    1,DU
         0 000230   200011 470500                    LDP0    XLATE$,,AUTO
         0 000231   000005 740100                    STX0    5,,PR0

      174     3536
      175     3537    1           CALL VDG$XLATE_LOCATIONS (XLATE$TABLE, %XLATE_BUILD)
PL6.E3A0      #001=VDI$BAUTO_REKEY File=VDI$BLOCK.:VDA5TSI                       FRI 07/04/97 11:28 Page:24

   3537  0 000232   000006 236000 1                  LDQ     6
         0 000233   200011 235100                    LDA     XLATE$,,AUTO
         0 000234   200066 757100                    STAQ    RECORD+9,,AUTO
         0 000235   200066 630500                    EPPR0   RECORD+9,,AUTO
         0 000236   000020 631400 xsym               EPPR1   B_VECTNIL+16
         0 000237   000000 701000 xent               TSX1    VDG$XLATE_LOCATIONS
         0 000240   000464 702000 0                  TSX2    OALLOC_FAILED

      176     3538    1             ALTRET(XLATE_FAILED);
      177     3539
      178     3540    2           IF REL>0 THEN DO WHILE '1'B;

   3540  0 000241   200007 235100                    LDA     REL,,AUTO
         0 000242   000256 604400 0                  TMOZ    s:3545

      179     3541    2              XLATEX = XLATE$TABLE.N_ENTRIES# - 1;

   3541  0 000243   200011 470500                    LDP0    XLATE$,,AUTO
         0 000244   000001 236100                    LDQ     1,,PR0
         0 000245   000022 732000                    QRS     18
         0 000246   000001 136007                    SBLQ    1,DL
         0 000247   200012 756100                    STQ     XLATEX,,AUTO

      180     3542    2              IF XLATE$TABLE.FLINK$ = ADDR(NIL) THEN EXIT;

   3542  0 000250   000002 236100                    LDQ     2,,PR0
         0 000251   000001 116000 xsym               CMPQ    B_VECTNIL+1
         0 000252   000255 600000 0                  TZE     s:3544+1

      181     3543    2              XLATE$ = XLATE$TABLE.FLINK$;

   3543  0 000253   200011 756100                    STQ     XLATE$,,AUTO

      182     3544    2              END;

   3544  0 000254   000243 710000 0                  TRA     s:3541
PL6.E3A0      #001=VDI$BAUTO_REKEY File=VDI$BLOCK.:VDA5TSI                       FRI 07/04/97 11:28 Page:25
         0 000255   000257 710000 0                  TRA     s:3547

      183     3545    1           ELSE XLATEX = 0;

   3545  0 000256   200012 450100                    STZ     XLATEX,,AUTO

      184     3546
      185     3547    1           IF REL<0 THEN RCRCNT = RCRCNT+1;

   3547  0 000257   200007 235100                    LDA     REL,,AUTO
         0 000260   000262 605000 0                  TPL     s:3549

   3547  0 000261   200017 054100                    AOS     RCRCNT,,AUTO

      186     3548
      187     3549    1           REL = -REL;

   3549  0 000262   000000 531000                    NEG     0
         0 000263   200007 755100                    STA     REL,,AUTO

      188     3550    1           DEL_RANGE = %CLEAR;

   3550  0 000264   000100 100400                    MLR     fill='000'O
         0 000265   000002 000001 xsym               ADSC9   B_VECTNIL+2              cn=0,n=1
         0 000266   200033 000110                    ADSC9   DEL_RANGE,,AUTO          cn=0,n=72

      189     3551    1           RECORD = %CLEAR;

   3551  0 000267   000100 100400                    MLR     fill='000'O
         0 000270   000002 000001 xsym               ADSC9   B_VECTNIL+2              cn=0,n=1
         0 000271   200055 000030                    ADSC9   RECORD,,AUTO             cn=0,n=24

      190     3552    1           RECORD.KEY = CURR$KEY;

   3552  0 000272   200010 470500                    LDP0    CURR_KEY$,,AUTO
         0 000273   000100 100500                    MLR     fill='000'O
         0 000274   000000 000010                    ADSC9   0,,PR0                   cn=0,n=8
PL6.E3A0      #001=VDI$BAUTO_REKEY File=VDI$BLOCK.:VDA5TSI                       FRI 07/04/97 11:28 Page:26
         0 000275   200055 000010                    ADSC9   RECORD,,AUTO             cn=0,n=8

      191     3553    2           IF CURR$KEY = LOC.KEY(%LVL_EXT_REC-1) /* BOF */ THEN DO;

   3553  0 000276   000100 106500                    CMPC    fill='000'O
         0 000277   000000 000010                    ADSC9   0,,PR0                   cn=0,n=8
         0 000300   200022 000010                    ADSC9   LOC,,AUTO                cn=0,n=8
         0 000301   000307 601000 0                  TNZ     s:3558

      192     3554    2              START_KEY = INCR + 3*512*262144;

   3554  0 000302   200015 236100                    LDQ     INCR,,AUTO
         0 000303   003000 036003                    ADLQ    1536,DU
         0 000304   200020 756100                    STQ     START_KEY,,AUTO

      193     3555    2              REL = 0;  /* Can't skip from BOF, we'll miss the first record */

   3555  0 000305   200007 450100                    STZ     REL,,AUTO

      194     3556    2              END;

   3556  0 000306   000336 710000 0                  TRA     s:3567

      195     3557    2           ELSE DO;

      196     3558    3              IF DEST_STREAM.CURRENT.EOF THEN DO;

   3558  0 000307   200003 471500                    LDP1    @DEST_STREAM,,AUTO
         0 000310   100016 236100                    LDQ     14,,PR1
         0 000311   400000 316007                    CANQ    -131072,DL
         0 000312   000330 600000 0                  TZE     s:3564

      197     3559    3                 ADDR(RECORD.KEY) -> CURR$KEY.LENGTH# = 4; /* Make a big key */

   3559  0 000313   004000 236003                    LDQ     2048,DU
         0 000314   200056 552140                    STBQ    RECORD+1,'40'O,AUTO

PL6.E3A0      #001=VDI$BAUTO_REKEY File=VDI$BLOCK.:VDA5TSI                       FRI 07/04/97 11:28 Page:27
      198     3560                      /* Use nice numbers if possible */
      199     3561    3                 START_KEY =

   3561  0 000315   200016 236100                    LDQ     HOLE,,AUTO
         0 000316   200017 036100                    ADLQ    RCRCNT,,AUTO
         0 000317   200015 402100                    MPY     INCR,,AUTO
         0 000320   200020 036100                    ADLQ    START_KEY,,AUTO
         0 000321   200015 036100                    ADLQ    INCR,,AUTO
         0 000322   000001 136007                    SBLQ    1,DL
         0 000323   200015 506100                    DIV     INCR,,AUTO
         0 000324   200015 402100                    MPY     INCR,,AUTO
         0 000325   003000 036003                    ADLQ    1536,DU
         0 000326   200020 756100                    STQ     START_KEY,,AUTO

      200     3562    3                   ((HOLE+RCRCNT)*INCR+START_KEY+INCR-1)/INCR*INCR + 3*512*262144;
      201     3563    3                 END;

   3563  0 000327   000334 710000 0                  TRA     s:3565

      202     3564    2              ELSE START_KEY = ADDR(CURR$KEY.LENGTH#)->NUM+REL*INCR;

   3564  0 000330   200007 236100                    LDQ     REL,,AUTO
         0 000331   200015 402100                    MPY     INCR,,AUTO
         0 000332   000001 036100                    ADLQ    1,,PR0
         0 000333   200020 756100                    STQ     START_KEY,,AUTO

      203     3565    2              CALL CHECK_XLATE; /* Get positioned to the first one that matters */

   3565  0 000334   000465 701000 0                  TSX1    CHECK_XLATE
         0 000335   000000 011000                    NOP     0

      204     3566    2              END;

      205     3567    1           INCR = REL*INCR; /* Make it easier to use */

   3567  0 000336   200007 236100                    LDQ     REL,,AUTO
         0 000337   200015 402100                    MPY     INCR,,AUTO
PL6.E3A0      #001=VDI$BAUTO_REKEY File=VDI$BLOCK.:VDA5TSI                       FRI 07/04/97 11:28 Page:28
         0 000340   200015 756100                    STQ     INCR,,AUTO

      206     3568    1           DELTA = 0;

   3568  0 000341   200014 450100                    STZ     DELTA,,AUTO

      207     3569    2           DO UNTIL RCRCNT = 0;

      208     3570    2              CALL VDA$LREAD (DEST_STREAM, , REL, '1'B) ALTRET (LREAD_FAILED);

   3570  0 000342   000007 236000 1                  LDQ     7
         0 000343   200071 756100                    STQ     RECORD+12,,AUTO
         0 000344   200007 630500                    EPPR0   REL,,AUTO
         0 000345   200070 450500                    STP0    RECORD+11,,AUTO
         0 000346   000001 236000 xsym               LDQ     B_VECTNIL+1
         0 000347   200003 235100                    LDA     @DEST_STREAM,,AUTO
         0 000350   200066 757100                    STAQ    RECORD+9,,AUTO
         0 000351   200066 630500                    EPPR0   RECORD+9,,AUTO
         0 000352   000022 631400 xsym               EPPR1   B_VECTNIL+18
         0 000353   000000 701000 xent               TSX1    VDA$LREAD
         0 000354   000464 702000 0                  TSX2    OALLOC_FAILED

      209     3571    2              IF REL = 0 THEN REL = 1;

   3571  0 000355   200007 235100                    LDA     REL,,AUTO
         0 000356   000361 601000 0                  TNZ     s:3572

   3571  0 000357   000001 236007                    LDQ     1,DL
         0 000360   200007 756100                    STQ     REL,,AUTO

      210     3572    2              CALL VDE$RGET (DEST_STREAM, DEST$ENCLOSING, RECORD)

   3572  0 000361   200055 630500                    EPPR0   RECORD,,AUTO
         0 000362   200070 450500                    STP0    RECORD+11,,AUTO
         0 000363   200021 236100                    LDQ     DEST_ENCLOSING$,,AUTO
         0 000364   200003 235100                    LDA     @DEST_STREAM,,AUTO
         0 000365   200066 757100                    STAQ    RECORD+9,,AUTO
PL6.E3A0      #001=VDI$BAUTO_REKEY File=VDI$BLOCK.:VDA5TSI                       FRI 07/04/97 11:28 Page:29
         0 000366   200066 630500                    EPPR0   RECORD+9,,AUTO
         0 000367   000021 631400 xsym               EPPR1   B_VECTNIL+17
         0 000370   000000 701000 xent               TSX1    VDE$RGET
         0 000371   000464 702000 0                  TSX2    OALLOC_FAILED

      211     3573    2                ALTRET (RGET_FAILED);
      212     3574    2              CALL CHECK_XLATE;

   3574  0 000372   000465 701000 0                  TSX1    CHECK_XLATE
         0 000373   000000 011000                    NOP     0

      213     3575    2              DEL_RANGE.START.KEY(%LVL_EXT_REC-1) = RECORD.KEY;

   3575  0 000374   000100 100500                    MLR     fill='000'O
         0 000375   200055 000010                    ADSC9   RECORD,,AUTO             cn=0,n=8
         0 000376   200033 000010                    ADSC9   DEL_RANGE,,AUTO          cn=0,n=8

      214     3576    2              DEL_RANGE.ENDD.KEY(%LVL_EXT_REC-1) = RECORD.KEY;

   3576  0 000377   000100 100500                    MLR     fill='000'O
         0 000400   200055 000010                    ADSC9   RECORD,,AUTO             cn=0,n=8
         0 000401   200044 000010                    ADSC9   DEL_RANGE+9,,AUTO        cn=0,n=8

      215     3577    2              CALL VDA$LDELETE (DEST_STREAM, DEL_RANGE) ALTRET (LDELETE_FAILED);

   3577  0 000402   200033 630500                    EPPR0   DEL_RANGE,,AUTO
         0 000403   200067 450500                    STP0    RECORD+10,,AUTO
         0 000404   200003 236100                    LDQ     @DEST_STREAM,,AUTO
         0 000405   200066 756100                    STQ     RECORD+9,,AUTO
         0 000406   200066 630500                    EPPR0   RECORD+9,,AUTO
         0 000407   000020 631400 xsym               EPPR1   B_VECTNIL+16
         0 000410   000000 701000 xent               TSX1    VDA$LDELETE
         0 000411   000464 702000 0                  TSX2    OALLOC_FAILED

      216     3578
      217     3579    2              ADDR(RECORD.KEY.V$) -> NUM = START_KEY;

PL6.E3A0      #001=VDI$BAUTO_REKEY File=VDI$BLOCK.:VDA5TSI                       FRI 07/04/97 11:28 Page:30
   3579  0 000412   200020 235100                    LDA     START_KEY,,AUTO
         0 000413   200056 755100                    STA     RECORD+1,,AUTO

      218     3580    2              CALL VDE$RPUT (DEST_STREAM, DEST$ENCLOSING, DEST_OPTIONS,

   3580  0 000414   000010 236000 1                  LDQ     8
         0 000415   200072 756100                    STQ     RECORD+13,,AUTO
         0 000416   200055 630500                    EPPR0   RECORD,,AUTO
         0 000417   200071 450500                    STP0    RECORD+12,,AUTO
         0 000420   200005 236100                    LDQ     @DEST_OPTIONS,,AUTO
         0 000421   200070 756100                    STQ     RECORD+11,,AUTO
         0 000422   200021 236100                    LDQ     DEST_ENCLOSING$,,AUTO
         0 000423   200003 235100                    LDA     @DEST_STREAM,,AUTO
         0 000424   200066 757100                    STAQ    RECORD+9,,AUTO
         0 000425   200066 630500                    EPPR0   RECORD+9,,AUTO
         0 000426   000023 631400 xsym               EPPR1   B_VECTNIL+19
         0 000427   000000 701000 xent               TSX1    VDE$RPUT
         0 000430   000464 702000 0                  TSX2    OALLOC_FAILED

      219     3581    2                RECORD, %SQ_CURRENT) ALTRET (RPUT_FAILED);
      220     3582    2              RCRCNT = RCRCNT - 1;

   3582  0 000431   000001 336007                    LCQ     1,DL
         0 000432   200017 056100                    ASQ     RCRCNT,,AUTO

      221     3583    2              START_KEY = START_KEY + INCR;

   3583  0 000433   200020 236100                    LDQ     START_KEY,,AUTO
         0 000434   200015 036100                    ADLQ    INCR,,AUTO
         0 000435   200020 756100                    STQ     START_KEY,,AUTO

      222     3584    2              END;

   3584  0 000436   200017 235100                    LDA     RCRCNT,,AUTO
         0 000437   000342 601000 0                  TNZ     s:3570

      223     3585
PL6.E3A0      #001=VDI$BAUTO_REKEY File=VDI$BLOCK.:VDA5TSI                       FRI 07/04/97 11:28 Page:31
      224     3586    1           CALL VDG$XLATE_LOCATIONS (XLATE0$ -> XLATE$TABLE, %XLATE_LOCATION)

   3586  0 000440   000010 236000 1                  LDQ     8
         0 000441   200013 235100                    LDA     XLATE0$,,AUTO
         0 000442   200066 757100                    STAQ    RECORD+9,,AUTO
         0 000443   200066 630500                    EPPR0   RECORD+9,,AUTO
         0 000444   000020 631400 xsym               EPPR1   B_VECTNIL+16
         0 000445   000000 701000 xent               TSX1    VDG$XLATE_LOCATIONS
         0 000446   000464 702000 0                  TSX2    OALLOC_FAILED

      225     3587    1             ALTRET (XLATE_FAILED);
      226     3588    2           DO UNTIL XLATE0$ = ADDR(NIL);

      227     3589    2              XLATE$ = XLATE0$;

   3589  0 000447   200013 236100                    LDQ     XLATE0$,,AUTO
         0 000450   200011 756100                    STQ     XLATE$,,AUTO

      228     3590    2              XLATE0$ = XLATE$TABLE.FLINK$;

   3590  0 000451   200011 470500                    LDP0    XLATE$,,AUTO
         0 000452   000002 236100                    LDQ     2,,PR0
         0 000453   200013 756100                    STQ     XLATE0$,,AUTO

      229     3591    2              CALL VDG$OFREE (XLATE$TABLE);

   3591  0 000454   200011 630500                    EPPR0   XLATE$,,AUTO
         0 000455   000017 631400 xsym               EPPR1   B_VECTNIL+15
         0 000456   000000 701000 xent               TSX1    VDG$OFREE
         0 000457   000000 011000                    NOP     0

      230     3592    2              END;

   3592  0 000460   200013 236100                    LDQ     XLATE0$,,AUTO
         0 000461   000001 116000 xsym               CMPQ    B_VECTNIL+1
         0 000462   000447 601000 0                  TNZ     s:3589

PL6.E3A0      #001=VDI$BAUTO_REKEY File=VDI$BLOCK.:VDA5TSI                       FRI 07/04/97 11:28 Page:32
      231     3593
      232     3594    1           RETURN;

   3594  0 000463   000000 702200 xent               TSX2  ! X66_ARET

   3589  0 000464                       OALLOC_FAIL* null
   3589  0 000464                       XLATE_FAILED null
   3589  0 000464                       FREKEY_FAIL* null
   3589  0 000464                       LDELETE_FAI* null
   3589  0 000464                       LREAD_FAILED null
   3589  0 000464                       RGET_FAILED  null
   3589  0 000464                       RPUT_FAILED  null
      233     3595
      234     3596    1   OALLOC_FAILED: ;
      235     3597    1   XLATE_FAILED: ;
      236     3598    1   FREKEY_FAILED: ;
      237     3599    1   LDELETE_FAILED: ;
      238     3600    1   LREAD_FAILED: ;
      239     3601    1   RGET_FAILED: ;
      240     3602    1   RPUT_FAILED: ;
      241     3603    1           ALTRETURN;

   3603  0 000464   000000 702200 xent               TSX2  ! X66_AALT

      242     3604        %EJECT;
PL6.E3A0      #001=VDI$BAUTO_REKEY File=VDI$BLOCK.:VDA5TSI                       FRI 07/04/97 11:28 Page:33
      243     3605        /*D* NAME: CHECK_XLATE
      244     3606            INPUT:
      245     3607                XLATE$ - points to the last used xlate table set.
      246     3608                XLATEX - is the last used xlate table index.  It goes down if
      247     3609                    REL<0 and up otherwise.
      248     3610                DELTA - set to zero to enable key changing.  Otherwise, just position
      249     3611                    the xlate table to the starting position.
      250     3612            DESCRIPTION:
      251     3613                If RECORD.KEY looks like it makes the next xlate table entry
      252     3614                    get updated, do it and adjust XLATEX and XLATE$ to point to
      253     3615                    the next one.
      254     3616        */
      255     3617
      256     3618    1   CHECK_XLATE: PROC;

   3618  0 000465   200064 741300       CHECK_XLATE  STX1  ! RECORD+7,,AUTO

      257     3619
      258     3620    3           DO WHILE '1'B;

      259     3621    3              IF XLATE$ = ADDR(NIL) OR XLATEX < 0 THEN RETURN;

   3621  0 000466   200011 236100                    LDQ     XLATE$,,AUTO
         0 000467   000001 116000 xsym               CMPQ    B_VECTNIL+1
         0 000470   000473 600000 0                  TZE     s:3621+5
         0 000471   200012 235100                    LDA     XLATEX,,AUTO
         0 000472   000475 605000 0                  TPL     s:3622

   3621  0 000473   200064 221300                    LDX1  ! RECORD+7,,AUTO
         0 000474   000001 702211                    TSX2  ! 1,X1

      260     3622    3              IF RECORD.KEY.V$~=XLATE$TABLE.XLATES.OLD_KEY_LO.V$(XLATEX) THEN

   3622  0 000475   000003 735000                    ALS     3
         0 000476   200011 470500                    LDP0    XLATE$,,AUTO
         0 000477   200056 236100                    LDQ     RECORD+1,,AUTO
         0 000500   000020 116105                    CMPQ    16,AL,PR0
PL6.E3A0      #001=VDI$BAUTO_REKEY File=VDI$BLOCK.:VDA5TSI                       FRI 07/04/97 11:28 Page:34
         0 000501   000516 600000 0                  TZE     s:3627

      261     3623    3                 IF RECORD.KEY.V$<XLATE$TABLE.XLATES.OLD_KEY_LO.V$(XLATEX) AND REL>=0

   3623  0 000502   000505 603000 0                  TRC     s:3623+3
         0 000503   200007 235100                    LDA     REL,,AUTO
         0 000504   000514 605000 0                  TPL     s:3625
         0 000505   200012 235100                    LDA     XLATEX,,AUTO
         0 000506   000003 735000                    ALS     3
         0 000507   000020 116105                    CMPQ    16,AL,PR0
         0 000510   000516 602000 0                  TNC     s:3627
         0 000511   000516 600000 0                  TZE     s:3627
         0 000512   200007 235100                    LDA     REL,,AUTO
         0 000513   000516 605000 0                  TPL     s:3627

      262     3624    3                   OR RECORD.KEY.V$>XLATE$TABLE.XLATES.OLD_KEY_LO.V$(XLATEX) AND REL<0
      263     3625    3                 THEN RETURN;

   3625  0 000514   200064 221300                    LDX1  ! RECORD+7,,AUTO
         0 000515   000001 702211                    TSX2  ! 1,X1

      264     3626
      265     3627    3              IF DELTA=0 THEN

   3627  0 000516   200014 235100                    LDA     DELTA,,AUTO
         0 000517   000524 601000 0                  TNZ     s:3629

      266     3628    3                 ADDR(XLATE$TABLE.XLATES.NEW_KEY.V$(XLATEX))->NUM = START_KEY;

   3628  0 000520   200012 235100                    LDA     XLATEX,,AUTO
         0 000521   000003 735000                    ALS     3
         0 000522   200020 236100                    LDQ     START_KEY,,AUTO
         0 000523   000025 756105                    STQ     21,AL,PR0

      267     3629    3              XLATEX = XLATEX + REL;

   3629  0 000524   200012 236100                    LDQ     XLATEX,,AUTO
PL6.E3A0      #001=VDI$BAUTO_REKEY File=VDI$BLOCK.:VDA5TSI                       FRI 07/04/97 11:28 Page:35
         0 000525   200007 036100                    ADLQ    REL,,AUTO
         0 000526   200012 756100                    STQ     XLATEX,,AUTO

      268     3630    4              IF XLATEX >= XLATE$TABLE.N_ENTRIES# THEN DO;

   3630  0 000527   000001 236100                    LDQ     1,,PR0
         0 000530   000022 732000                    QRS     18
         0 000531   200012 116100                    CMPQ    XLATEX,,AUTO
         0 000532   000536 605400 0                  TPNZ    s:3634

      269     3631    4                 XLATE$ = XLATE$TABLE.FLINK$;

   3631  0 000533   000002 236100                    LDQ     2,,PR0
         0 000534   200011 756100                    STQ     XLATE$,,AUTO

      270     3632    4                 XLATEX = 0;

   3632  0 000535   200012 450100                    STZ     XLATEX,,AUTO

      271     3633    4                 END;

      272     3634    4              IF XLATEX < 0 AND XLATE$ ~= XLATE0$ THEN DO;

   3634  0 000536   200012 235100                    LDA     XLATEX,,AUTO
         0 000537   000466 605000 0                  TPL     s:3621
         0 000540   200011 236100                    LDQ     XLATE$,,AUTO
         0 000541   200013 116100                    CMPQ    XLATE0$,,AUTO
         0 000542   000466 600000 0                  TZE     s:3621

      273     3635    4                 LOC.KEY.V$(0) = XLATE$;

   3635  0 000543   200023 756100                    STQ     LOC+1,,AUTO

      274     3636    4                 XLATE$ = XLATE0$;

   3636  0 000544   200013 236100                    LDQ     XLATE0$,,AUTO
         0 000545   200011 756100                    STQ     XLATE$,,AUTO
PL6.E3A0      #001=VDI$BAUTO_REKEY File=VDI$BLOCK.:VDA5TSI                       FRI 07/04/97 11:28 Page:36

      275     3637    5                 DO WHILE '1'B;

      276     3638    5                    XLATEX = XLATE$TABLE.N_ENTRIES# - 1;

   3638  0 000546   200011 470500                    LDP0    XLATE$,,AUTO
         0 000547   000001 236100                    LDQ     1,,PR0
         0 000550   000022 732000                    QRS     18
         0 000551   000001 136007                    SBLQ    1,DL
         0 000552   200012 756100                    STQ     XLATEX,,AUTO

      277     3639    5                    IF XLATE$TABLE.FLINK$ = LOC.KEY.V$(0) THEN EXIT;

   3639  0 000553   000002 236100                    LDQ     2,,PR0
         0 000554   200023 116100                    CMPQ    LOC+1,,AUTO
         0 000555   000560 600000 0                  TZE     s:3644

      278     3640    5                    XLATE$ = XLATE$TABLE.FLINK$;

   3640  0 000556   200011 756100                    STQ     XLATE$,,AUTO

      279     3641    5                    END;

   3641  0 000557   000546 710000 0                  TRA     s:3638

      280     3642    4                 END;

      281     3643
      282     3644    3              END;

   3644  0 000560   000466 710000 0                  TRA     s:3621
      283     3645    2   END CHECK_XLATE;
      284     3646
      285     3647    1   END VDI$BAUTO_REKEY;
      286     3648        %EOD;

PL6.E3A0      #001=VDI$BAUTO_REKEY File=VDI$BLOCK.:VDA5TSI                       FRI 07/04/97 11:28 Page:37
--  Include file information  --

   VD_PERR_C.:VDA5TOU  is referenced.
   VD_MACROS_M.:VDA5TOU  is referenced.
   B$JIT_C.:E04TOU  was found in the system file and is never referenced.
   CP_6_C.:E04TOU  was found in the system file and is never referenced.
      No diagnostics issued in procedure VDI$BAUTO_REKEY.
PL6.E3A0      #001=VDI$BAUTO_REKEY File=VDI$BLOCK.:VDA5TSI                       FRI 07/04/97 11:28 Page:38

 **** Variables and constants ****

  ****  Auto variables  ****

  ****  Scalars and arrays  ****
OctLoc.c.b A Datatyp(siz) R M Lvl/name                 OctLoc.c.b A Datatyp(siz) R M Lvl/name

     4-0-0/w PTR         r     1 @DEST_KEY                  5-0-0/w PTR         r     1 @DEST_OPTIONS
     3-0-0/w PTR         r     1 @DEST_STREAM               6-0-0/w PTR         r     1 @SRC_RECS
    10-0-0/w PTR         r     1 CURR_KEY$                 14-0-0/w SBIN        r     1 DELTA
    33-0-0/w STRC(648)   r     1 DEL_RANGE                 21-0-0/w PTR         r     1 DEST_ENCLOSING$
    *0-0-0/w STRC(72)    r     1 DEST_KEY                  *0-0-0/w STRC(180)   r     1 DEST_OPTIONS
    *0-0-0/w STRC(864)   r     1 DEST_STREAM               16-0-0/w SBIN        r     1 HOLE
    15-0-0/w SBIN        r     1 INCR                      22-0-0/w STRC(324)   r     1 LOC
    17-0-0/w SBIN        r     1 RCRCNT                    55-0-0/w STRC(216)   r     1 RECORD
     7-0-0/w SBIN        r     1 REL                       *0-0-0/w SBIN        r     1 SRC_RECS
    20-0-0/w SBIN        r     1 START_KEY                 11-0-0/w PTR         r     1 XLATE$
    13-0-0/w PTR         r     1 XLATE0$                   12-0-0/w SBIN        r     1 XLATEX

  ****  SYMREF variables  ****

  ****  Scalars and arrays  ****
OctLoc.c.b A Datatyp(siz) R M Lvl/name                 OctLoc.c.b A Datatyp(siz) R M Lvl/name

     0-0-0/w STRC(144)   r     1 VD_$BY                     0-0-0/w STRC(144)   r     1 VD_$REKEY
     0-0-0/w PTR         r     1 VD_CURRENT_WINDOW$

  ****  BASED and DCB variables  ****

  ****  Scalars and arrays  ****
OctLoc.c.b A Datatyp(siz) R M Lvl/name                 OctLoc.c.b A Datatyp(siz) R M Lvl/name

     0-0-0/w STRC(72)    r     1 CURR$KEY                   0-0-0/w STRC(648)   r     1 DEST$ENCLOSING
     0-0-0/w SBIN        r     1 NUM                        0-0-0/w STRC(936)   r     1 VD$BLOCK_DESC
     0-0-0/w STRC(468)   r     1 VD$FILE_NODE               0-0-0/w ASTR(81)    r     1 VD$TEXTC_REMOTE
     0-0-0/w STRC(900)   r     1 VD$WINDOW_SPEC             0-0-0/w STRC(828)   r     1 XLATE$TABLE

PL6.E3A0      #001=VDI$BAUTO_REKEY File=VDI$BLOCK.:VDA5TSI                       FRI 07/04/97 11:28 Page:39

   Procedure VDI$BAUTO_REKEY requires 369 words for executable code.
   Procedure VDI$BAUTO_REKEY requires 60 words of local(AUTO) storage.
PL6.E3A0      #001=VDI$BAUTO_REKEY File=VDI$BLOCK.:VDA5TSI                       FRI 07/04/97 11:28 Page:40
          *** CROSS REFERENCE LISTING ***
**     DENOTES     IDENTIFIER DEFINITION
<<                 IDENTIFIER'S VALUE SET
>>                 IDENTIFIER'S VALUE USED
<>                 IDENTIFIER SET AND/OR USED
--                 IDENTIFIER REFERENCED
PL6.E3A0      #001=VDI$BAUTO_REKEY File=VDI$BLOCK.:VDA5TSI                       FRI 07/04/97 11:28 Page:41
          MINI XREF LISTING

CHECK_XLATE
      3618**PROC     3565--CALL     3574--CALL
CURR$KEY
      2527**DCL      3487>>IF       3494>>ASSIGN   3552>>ASSIGN   3553>>IF
CURR$KEY.BYTES#
      2531**DCL      3472>>ASSIGN   3490>>ASSIGN
CURR$KEY.LENGTH#
      2531**DCL      3559<<ASSIGN   3564--ASSIGN
CURR_KEY$
      3190**DCL      2527--IMP-PTR  3474<<ASSIGN   3487>>IF       3490>>ASSIGN   3494>>ASSIGN   3552>>ASSIGN
      3553>>IF       3564>>ASSIGN
DELTA
      3194**DCL      3486<<ASSIGN   3488<<ASSIGN   3490<<ASSIGN   3491<<ASSIGN   3491>>ASSIGN   3492>>IF
      3493>>IF       3568<<ASSIGN   3627>>IF
DEL_RANGE
      3236**DCL      3550<<ASSIGN   3577<>CALL
DEL_RANGE.ENDD.KEY
      3290**DCL      3576<<ASSIGN
DEL_RANGE.START.KEY
      3262**DCL      3575<<ASSIGN
DEST$ENCLOSING
      2458**DCL      3572<>CALL     3580<>CALL
DEST_ENCLOSING$
      3199**DCL      2458--IMP-PTR  3511<<ASSIGN   3572>>CALL     3580>>CALL
DEST_KEY
      3152**DCL        73--PROC     3481>>ASSIGN   3503<>CALL
DEST_KEY.BYTES#
      3156**DCL      3475>>ASSIGN
DEST_OPTIONS
      3167**DCL        73--PROC     3580<>CALL
DEST_OPTIONS.KEY_INCR
      3183**DCL      3472--ASSIGN   3503<>CALL
PL6.E3A0      #001=VDI$BAUTO_REKEY File=VDI$BLOCK.:VDA5TSI                       FRI 07/04/97 11:28 Page:42
DEST_STREAM
      3046**DCL        73--PROC     3483<>CALL     3503<>CALL     3503<>CALL     3570<>CALL     3572<>CALL
      3577<>CALL     3580<>CALL
DEST_STREAM.CURRENT
      3097**DCL      3480>>ASSIGN
DEST_STREAM.CURRENT.EOF
      3113**DCL      3485>>IF       3558>>IF
DEST_STREAM.CURRENT.KEY
      3109**DCL      3474--ASSIGN
DEST_STREAM.FILE_KEY
      3083**DCL      3532>>ASSIGN
DEST_STREAM.FILE_KEY.REP#
      3085**DCL      3532>>IF
DEST_STREAM.FILE_KEY.V$
      3085**DCL      3532>>CALL     3532>>CALL
DO_IT
      3509**LABEL    3492--GOTO
DO_IT_ADJUSTED
      3503**LABEL    3493--GOTO
FREKEY_FAILED
      3589**LABEL    3503--CALLALT
HOLE
      3196**DCL      3471<<ASSIGN   3492>>IF       3493>>IF       3503<>CALL     3561>>ASSIGN
INCR
      3195**DCL      3472<<ASSIGN   3473>>IF       3473<<ASSIGN   3492>>IF       3508<<ASSIGN   3509>>IF
      3509>>IF       3509<<ASSIGN   3509<<ASSIGN   3554>>ASSIGN   3561>>ASSIGN   3561>>ASSIGN   3561>>ASSIGN
      3561>>ASSIGN   3564>>ASSIGN   3567<<ASSIGN   3567>>ASSIGN   3583>>ASSIGN
LDELETE_FAILED
      3589**LABEL    3577--CALLALT
LOC
      3208**DCL      3480<<ASSIGN   3483<>CALL
LOC.KEY
      3222**DCL      3481<<ASSIGN   3487>>IF       3494<<ASSIGN   3553>>IF
LOC.KEY.V$
      3224**DCL      3635<<ASSIGN   3639>>IF
LREAD_FAILED
PL6.E3A0      #001=VDI$BAUTO_REKEY File=VDI$BLOCK.:VDA5TSI                       FRI 07/04/97 11:28 Page:43
      3589**LABEL    3483--CALLALT  3570--CALLALT
NUM
      3037**DCL      3564>>ASSIGN   3579<<ASSIGN   3628<<ASSIGN
OALLOC_FAILED
      3589**LABEL    3516--CALLALT
RCRCNT
      3197**DCL      3479<<ASSIGN   3482>>DOUNTIL  3492>>IF       3493>>IF       3493>>IF       3495<<ASSIGN
      3495>>ASSIGN   3508>>ASSIGN   3547<<ASSIGN   3547>>ASSIGN   3561>>ASSIGN   3569>>DOUNTIL  3582<<ASSIGN
      3582>>ASSIGN
RECORD
      3305**DCL      3551<<ASSIGN   3572<>CALL     3580<>CALL
RECORD.KEY
      3319**DCL      3552<<ASSIGN   3559--ASSIGN   3575>>ASSIGN   3576>>ASSIGN
RECORD.KEY.V$
      3321**DCL      3579--ASSIGN   3622>>IF       3623>>IF       3623>>IF
REL
      3189**DCL      3476<<ASSIGN   3477>>DOUNTIL  3478<<ASSIGN   3478>>ASSIGN   3483<>CALL     3491>>ASSIGN
      3540>>IF       3547>>IF       3549<<ASSIGN   3549>>ASSIGN   3555<<ASSIGN   3564>>ASSIGN   3567>>ASSIGN
      3570<>CALL     3571>>IF       3571<<ASSIGN   3623>>IF       3623>>IF       3629>>ASSIGN
RGET_FAILED
      3589**LABEL    3572--CALLALT
RPUT_FAILED
      3589**LABEL    3580--CALLALT
SRC_RECS
      3188**DCL        73--PROC     3471>>ASSIGN
START_KEY
      3198**DCL      3475<<ASSIGN   3491>>ASSIGN   3554<<ASSIGN   3561<<ASSIGN   3561>>ASSIGN   3564<<ASSIGN
      3579>>ASSIGN   3583<<ASSIGN   3583>>ASSIGN   3628>>ASSIGN
VD$BLOCK_DESC.RANGE
      2728**DCL      3511--ASSIGN
VD$FILE_NODE.DESC.SPEC.V$
      2904**DCL      3511>>ASSIGN
VD$TEXTC_REMOTE
      3001**DCL      3532<>CALL
VD$TEXTC_REMOTE.LENGTH#
      3030**DCL      3032--IMP-SIZ  3532>>CALL
PL6.E3A0      #001=VDI$BAUTO_REKEY File=VDI$BLOCK.:VDA5TSI                       FRI 07/04/97 11:28 Page:44
VD$WINDOW_SPEC.OPERAND.EDIT_BLOCK$
      2959**DCL      3511>>ASSIGN
VDA$FREKEY
      2440**DCL-ENT  3503--CALL
VDA$LDELETE
      2441**DCL-ENT  3577--CALL
VDA$LREAD
      2442**DCL-ENT  3483--CALL     3570--CALL
VDE$RGET
      2443**DCL-ENT  3572--CALL
VDE$RPUT
      2444**DCL-ENT  3580--CALL
VDG$OALLOC
      2447**DCL-ENT  3516--CALL
VDG$OCOPY
      2445**DCL-ENT  3532--CALL
VDG$OFREE
      2446**DCL-ENT  3591--CALL
VDG$XLATE_LOCATIONS
      2448**DCL-ENT  3537--CALL     3586--CALL
VD_$BY.V#
      3419**DCL      3473>>ASSIGN
VD_$REKEY.V#
      3464**DCL      3482>>DOUNTIL
VD_CURRENT_WINDOW$
      3467**DCL      3511>>ASSIGN
XLATE$
      3191**DCL      2541--IMP-PTR  3518<<ASSIGN   3532>>ASSIGN   3532>>CALL     3535>>ASSIGN   3537>>CALL
      3541>>ASSIGN   3542>>IF       3543<<ASSIGN   3543>>ASSIGN   3589<<ASSIGN   3590>>ASSIGN   3591>>CALL
      3621>>IF       3622>>IF       3623>>IF       3623>>IF       3628>>ASSIGN   3630>>IF       3631<<ASSIGN
      3631>>ASSIGN   3634>>IF       3635>>ASSIGN   3636<<ASSIGN   3638>>ASSIGN   3639>>IF       3640<<ASSIGN
      3640>>ASSIGN
XLATE$TABLE
      2541**DCL      3516--CALL     3537<>CALL     3586<>CALL     3591<>CALL
XLATE$TABLE.FILE_KEY
      2578**DCL      3532<<ASSIGN
PL6.E3A0      #001=VDI$BAUTO_REKEY File=VDI$BLOCK.:VDA5TSI                       FRI 07/04/97 11:28 Page:45
XLATE$TABLE.FILE_KEY.V$
      2580**DCL      3532<>CALL
XLATE$TABLE.FLINK$
      2567**DCL      3542>>IF       3543>>ASSIGN   3590>>ASSIGN   3631>>ASSIGN   3639>>IF       3640>>ASSIGN
XLATE$TABLE.LEVEL#
      2582**DCL      3535<<ASSIGN
XLATE$TABLE.N_ENTRIES#
      2567**DCL      3541>>ASSIGN   3630>>IF       3638>>ASSIGN
XLATE$TABLE.XLATES
      2622**DCL      3516--CALL
XLATE$TABLE.XLATES.NEW_KEY.V$
      2665**DCL      3628--ASSIGN
XLATE$TABLE.XLATES.OLD_KEY_LO.V$
      2636**DCL      3622>>IF       3623>>IF       3623>>IF
XLATE0$
      3193**DCL      3516<>CALL     3518>>ASSIGN   3586>>CALL     3588>>DOUNTIL  3589>>ASSIGN   3590<<ASSIGN
      3634>>IF       3636>>ASSIGN
XLATEX
      3192**DCL      3541<<ASSIGN   3545<<ASSIGN   3621>>IF       3622>>IF       3623>>IF       3623>>IF
      3628>>ASSIGN   3629<<ASSIGN   3629>>ASSIGN   3630>>IF       3632<<ASSIGN   3634>>IF       3638<<ASSIGN
XLATE_FAILED
      3589**LABEL    3537--CALLALT  3586--CALLALT

PL6.E3A0      #002=VDI$BDELETE File=VDI$BLOCK.:VDA5TSI                           FRI 07/04/97 11:28 Page:46
      287        1        /*T***********************************************************/
      288        2        /*T*                                                         */
      289        3        /*T* Copyright (c) Bull HN Information Systems Inc., 1997    */
      290        4        /*T*                                                         */
      291        5        /*T***********************************************************/
      292        6
      293        7        /*D* NAME:  VDI$BDELETE
      294        8            PARAMETERS:
      295        9                DEL_RANGE - VD$RANGE specyfying the range to be deleted.
      296       10                DEL_STREAM - VD$STREAM to be used to access the file.  Must be open.
      297       11                EDIT_BLOCK - VD$BLOCK_DESC for the EditBlock in which DEL_RANGE
      298       12                    resides.
      299       13            INPUT:
      300       14            OUTPUT:
      301       15                VD_$RECORDS_DELETED.V# will be set to the number of records deleted.
      302       16                    If nothing at all is deleted, it is set to -1.
      303       17            DESCRIPTION:
      304       18                Determine what needs to be deleted.
      305       19                deleted; replace the first and/or last records of the range
      306       20                if any partial records are to be deleted.
      307       21        */
      308       22
      309       23        VDI$BDELETE: PROC (DEL_RANGE, DEL_STREAM, EDIT_BLOCK) ALTRET;
      310       24
      311       25        %INCLUDE VD_MACROS_M;
      312     2240        %INCLUDE VD_PERR_C;
      313     2388
      314     2389
      315     2390        %VD$RANGE (NAME=DEL_RANGE, STCLASS=PARAM);
      316     2459        %VD$STREAM (NAME=DEL_STREAM,STCLASS=PARAM);
      317     2565        %VD$BLOCK_DESC (NAME=EDIT_BLOCK, STCLASS=PARAM);
      318     2712
      319     2713
      320     2714    1   DCL VDE$RADJUST_LENGTH     ENTRY (2) ALTRET;
      321     2715    1   DCL VDE$RGET               ENTRY (3) ALTRET;
      322     2716    1   DCL VDE$RPUT               ENTRY (6) ALTRET;
      323     2717    1   DCL VDA$LDELETE            ENTRY (2) ALTRET;
PL6.E3A0      #002=VDI$BDELETE File=VDI$BLOCK.:VDA5TSI                           FRI 07/04/97 11:28 Page:47
      324     2718    1   DCL VDA$LREAD              ENTRY (4) ALTRET;
      325     2719    1   DCL VDG$XLATE_LOCATIONS    ENTRY (2) ALTRET;
      326     2720    1   DCL VDG$OALLOC             ENTRY (3) ALTRET;
      327     2721    1   DCL VDG$OFREE              ENTRY (1) ALTRET;
      328     2722    1   DCL VDG$OCOPY              ENTRY (2) ALTRET;
      329     2723    1   DCL VDG$OCOPY_RANGE        ENTRY (2) ALTRET;
      330     2724    1   DCL VDG$OCOPY_LOCATION     ENTRY (2) ALTRET;
      331     2725    1   DCL VDG$OCLEAR_LOCATION    ENTRY (1) ALTRET;
      332     2726    1   DCL VDG$OCLEAR_RANGE       ENTRY (1) ALTRET;
      333     2727    1   DCL VDG$BUILD_NEW_REC      ENTRY (5) ALTRET;
      334     2728    1   DCL VDG$ESCREECH           ENTRY (3);
      335     2729    1   DCL VDI$BTYPE              ENTRY (3) ALTRET;
      336     2730
      337     2731        %VD$NUMBER (NAME=VD_$RECORDS_DELETED, STCLASS=SYMREF);
      338     2776    1   DCL VD_EOF_DELETED BIT(36) SYMREF;
      339     2777
      340     2778
      341     2779        %VD$RANGE (NAME=DEL@RANGE, STCLASS=AUTO);
      342     2848    1   DCL E_POS UBIN;
      343     2849    1   DCL S_POS UBIN;
      344     2850    1   DCL ALLOC_WDS UBIN;
      345     2851    1   DCL BDT_CODE UBIN;
      346     2852    1   DCL BNR_TYPE UBIN;
      347     2853        %VD$NODE_DESC (NAME=SAVE_REC1, STCLASS=AUTO);
      348     2895        %VD$NODE_DESC (NAME=SAVE_REC2, STCLASS=AUTO);
      349     2937        %VD$LOCATION (NAME=LOC1, STCLASS=AUTO);
      350     2965        %VD$LOCATION (NAME=LOC2, STCLASS=AUTO);
      351     2993    1   DCL LOC1_EXISTS BIT(1) ALIGNED;
      352     2994    1   DCL GET_LOC1 BIT(1) ALIGNED;
      353     2995    1   DCL LOC2_EXISTS BIT(1) ALIGNED;
      354     2996    1   DCL GET_LOC2 BIT(1) ALIGNED;
      355     2997    1   DCL MY_EOF_DELETED BIT(36);
      356     2998    1   DCL READ_ONLY_IF_EXISTS BIT(1) ALIGNED;
      357     2999    1   DCL STREAM_KEY$ PTR;
      358     3000    1   DCL RANGE_KEY$ PTR;
      359     3001    1   DCL BOF_KEY$ PTR;
      360     3002
PL6.E3A0      #002=VDI$BDELETE File=VDI$BLOCK.:VDA5TSI                           FRI 07/04/97 11:28 Page:48
      361     3003
      362     3004        %VD$KEY_NUMBER (STCLASS=BASED);
      363     3019        %VD$BUFFER (NAME=SAVE_REC1_BUF, STCLASS="BASED(SAVE_REC1.DATA$)");
      364     3077        %VD$BUFFER (NAME=SAVE_REC2_BUF, STCLASS="BASED(SAVE_REC2.DATA$)");
      365     3135        %VD$TEXTC (NAME=STREAM$KEY, STCLASS="BASED(STREAM_KEY$)");
      366     3158        %VD$TEXTC (NAME=RANGE$KEY, STCLASS="BASED(RANGE_KEY$)");
      367     3181        %VD$TEXTC_REMOTE;
      368     3242        %VD$TEXTC;
      369     3265
      370     3266
      371     3267        %BOX (TITLE="Delete a Range");

              3279    1   /***************************************************************************
              3281    1    *                                                                         *
              3285    1            *                               Delete a Range                            *
              3287    1            *                                                                         *
              3289    1           ***************************************************************************/

      372     3293
      373     3294    1           GET_LOC1 = %FALSE;
      374     3295    1           GET_LOC2 = %FALSE;
      375     3296    1           LOC2_EXISTS = %FALSE;
      376     3297    1           MY_EOF_DELETED = VD_EOF_DELETED;
      377     3298    1           VD_EOF_DELETED = %FALSE;
      378     3299    1           BNR_TYPE = %BNR_ON_2_RECS;
      379     3300    1           VD_$RECORDS_DELETED.V# = -1; /* Start out saying nothing to delete */
      380     3301                /* If we ever call VDA$LDELETE, it'll get changed to something >=0 */
      381     3302    1           DEL@RANGE = %CLEAR;
      382     3303    1           LOC1 = %CLEAR;
      383     3304    1           LOC2 = %CLEAR;
      384     3305    1           SAVE_REC1 = %CLEAR;
      385     3306    1           SAVE_REC2 = %CLEAR;
      386     3307    1           SAVE_REC1.DATA$ = ADDR(NIL);
      387     3308    1           SAVE_REC2.DATA$ = ADDR(NIL);
      388     3309    1           S_POS = DEL_RANGE.START.POSITION#;
      389     3310    1           E_POS = DEL_RANGE.ENDD.POSITION#;
      390     3311
PL6.E3A0      #002=VDI$BDELETE File=VDI$BLOCK.:VDA5TSI                           FRI 07/04/97 11:28 Page:49
      391     3312
      392     3313    1           CALL VDG$OCOPY_RANGE (DEL_RANGE, DEL@RANGE)
      393     3314    1             ALTRET (OCOPY_RANGE_FAILED);
      394     3315    1           CALL VDI$BTYPE (DEL@RANGE, BDT_CODE, EDIT_BLOCK) ALTRET (BTYPE_FAILED);
      395     3316    1           IF BDT_CODE = %BDT_SPOS_0_EOF  OR
      396     3317    1             BDT_CODE = %BDT_BOF_EOF  OR
      397     3318    1             BDT_CODE = %BDT_SPOS_NON_EOF THEN
      398     3319    2           DO;
      399     3320    2              CALL VDA$LREAD(DEL_STREAM, DEL@RANGE.ENDD, -1, %FALSE)
      400     3321    2                ALTRET (LREAD_FAILED);
      401     3322                   %CLEARKEY (KEY=DEL@RANGE.ENDD.KEY,INDX="%(LVL_EXT_REC-1)");
      402     3332                   %COPYKEY (FKEY=DEL_STREAM.CURRENT.KEY,FINDX="%(LVL_EXT_REC-1)",
      403     3333                   TKEY=DEL@RANGE.ENDD.KEY,TINDX="%(LVL_EXT_REC-1)");
      404     3349    2              DEL@RANGE.ENDD.EOF = %FALSE;
      405     3350    2              SAVE_REC2.EOR = %TRUE;   /* EOF always has EOR */
      406     3351    2              END;
      407     3352
      408     3353    1   BDT_CASES:
      409     3354    2           DO CASE (BDT_CODE);
      410     3355
      411     3356    2            CASE (%BDT_1_REC_POS_0, %BDT_EOF_EOF, %BDT_BOF_BOF);
      412     3357    2              GOTO NONE_2_DELETE;
      413     3358
      414     3359    2            CASE (%BDT_1_REC_SPOS_NON_EPOS_0, %BDT_EOF_NOT_EOF,
      415     3360    2                %BDT_NOT_BOF_BOF);
      416     3361    2              CALL VDG$ESCREECH (BDT_CODE);
      417     3362
      418     3363    2            CASE (%BDT_SPOS_0_EOF, %BDT_BOF_EOF);
      419     3364    2              CALL VDA$LDELETE (DEL_STREAM, DEL@RANGE)  ALTRET (LDELETE_FAILED);
      420     3365    2              GOTO LDELETED;
      421     3366
      422     3367    2            CASE (%BDT_2_REC_POS_0, %BDT_BOF_EPOS_0);
      423     3368    2              CALL VDA$LREAD (DEL_STREAM, DEL@RANGE.ENDD, -1, %FALSE)
      424     3369    2                ALTRET (LREAD_FAILED);
      425     3370                   %GETKEY (KEY=DEL_STREAM.CURRENT.KEY, INDX="%(LVL_EXT_REC-1)",
      426     3371                   PTR=STREAM_KEY$);
      427     3381                   %GETKEY (KEY=DEL@RANGE.START.KEY, INDX="%(LVL_EXT_REC-1)",
PL6.E3A0      #002=VDI$BDELETE File=VDI$BLOCK.:VDA5TSI                           FRI 07/04/97 11:28 Page:50
      428     3382                   PTR=RANGE_KEY$);
      429     3392    2              IF STREAM$KEY.BYTES < RANGE$KEY.BYTES THEN
      430     3393    2                 GOTO NOTHING_2_DELETE;
      431     3394                   %GETKEY (KEY=DEL@RANGE.ENDD.KEY, INDX="%(LVL_EXT_REC-1)",
      432     3395                   PTR=RANGE_KEY$);
      433     3405    2              IF STREAM$KEY.BYTES >= RANGE$KEY.BYTES THEN
      434     3406    2                 GOTO NOTHING_2_DELETE;
      435     3407                   %CLEARKEY (KEY=DEL@RANGE.ENDD.KEY, INDX="%(LVL_EXT_REC-1)");
      436     3417                   %COPYKEY (FKEY=DEL_STREAM.CURRENT.KEY, FINDX="%(LVL_EXT_REC-1)",
      437     3418                   TKEY=DEL@RANGE.ENDD.KEY, TINDX="%(LVL_EXT_REC-1)");
      438     3434
      439     3435    2              CALL VDA$LDELETE (DEL_STREAM, DEL@RANGE)
      440     3436    2                ALTRET (LDELETE_FAILED);
      441     3437    2              GOTO LDELETED;
      442     3438
      443     3439    2            CASE (%BDT_2_REC_SPOS_0_EPOS_NON, %BDT_BOF_EPOS_NON);
      444     3440    2              LOC2 = DEL@RANGE.ENDD;
      445     3441    2              GET_LOC1 = %FALSE;
      446     3442    2              GET_LOC2 = %TRUE;
      447     3443
      448     3444    2            CASE (%BDT_2_REC_POS_NON, %BDT_2_REC_SPOS_NON_EPOS_0);
      449     3445    2              LOC1 = DEL@RANGE.START;
      450     3446    2              LOC2 = DEL@RANGE.ENDD;
      451     3447    2              GET_LOC1 = %TRUE;
      452     3448    2              GET_LOC2 = %TRUE;
      453     3449
      454     3450    2            CASE (%BDT_1_REC_POS_NON, %BDT_1_REC_SPOS_0_EPOS_NON);
      455     3451    2              LOC1 = DEL@RANGE.ENDD;
      456     3452    2              GET_LOC1 = %TRUE;
      457     3453    2              GET_LOC2 = %FALSE;
      458     3454    2              BNR_TYPE = %BNR_ON_1_REC;
      459     3455
      460     3456    2            CASE (%BDT_SPOS_NON_EOF);
      461     3457    2              LOC1 = DEL@RANGE.START;
      462     3458    2              GET_LOC1 = %TRUE;
      463     3459    2              GET_LOC2 = %FALSE;
      464     3460
PL6.E3A0      #002=VDI$BDELETE File=VDI$BLOCK.:VDA5TSI                           FRI 07/04/97 11:28 Page:51
      465     3461    2            END BDT_CASES;
      466     3462
      467     3463
      468     3464    2           IF GET_LOC1 THEN DO;
      469     3465    2              CALL GET_RECORD (LOC1, SAVE_REC1, LOC1_EXISTS, %TRUE)
      470     3466    2                ALTRET (GET_RECORD_FAILED);
      471     3467    2              END;
      472     3468
      473     3469    2           IF GET_LOC2 THEN DO;
      474     3470    2              IF LOC1_EXISTS AND LOC1.POSITION# ~= 0 THEN
      475     3471    2                 READ_ONLY_IF_EXISTS = %FALSE;
      476     3472    2              ELSE
      477     3473    2                 READ_ONLY_IF_EXISTS = %TRUE;
      478     3474    2              CALL GET_RECORD (LOC2, SAVE_REC2, LOC2_EXISTS, READ_ONLY_IF_EXISTS)
      479     3475    2                ALTRET (GET_RECORD_FAILED);
      480     3476    3              IF LOC2_EXISTS THEN DO;
      481     3477                      %CLEARKEY (KEY=DEL@RANGE.ENDD.KEY, INDX="%(LVL_EXT_REC-1)");
      482     3487                      %COPYKEY (FKEY=SAVE_REC2.KEY,
      483     3488                      TKEY=DEL@RANGE.ENDD.KEY, TINDX="%(LVL_EXT_REC-1)");
      484     3504    3                 END;
      485     3505    2              END;
      486     3506
      487     3507    1           IF GET_LOC1 AND NOT LOC1_EXISTS THEN
      488     3508    2           DO CASE (BDT_CODE);
      489     3509
      490     3510    2            CASE (%BDT_2_REC_POS_NON, %BDT_2_REC_SPOS_NON_EPOS_0);
      491     3511    3              IF NOT LOC2_EXISTS THEN DO;
      492     3512    3                 CALL VDA$LDELETE (DEL_STREAM, DEL@RANGE)
      493     3513    3                   ALTRET (LDELETE_FAILED);
      494     3514    3                 GOTO LDELETED;
      495     3515    3                 END;
      496     3516
      497     3517    2            CASE (%BDT_SPOS_NON_EOF);
      498     3518    2              CALL VDA$LDELETE (DEL_STREAM, DEL@RANGE)
      499     3519    2                ALTRET (LDELETE_FAILED);
      500     3520    2              GOTO LDELETED;
      501     3521
PL6.E3A0      #002=VDI$BDELETE File=VDI$BLOCK.:VDA5TSI                           FRI 07/04/97 11:28 Page:52
      502     3522    2            CASE (%BDT_1_REC_POS_NON, %BDT_1_REC_SPOS_0_EPOS_NON);
      503     3523    2              GOTO NONE_2_DELETE;
      504     3524
      505     3525    2            END;  /* Do Case */
      506     3526
      507     3527
      508     3528    1           IF GET_LOC2 AND NOT LOC2_EXISTS THEN
      509     3529    2           DO CASE (BDT_CODE);
      510     3530
      511     3531    2            CASE (%BDT_2_REC_SPOS_0_EPOS_NON, %BDT_BOF_EPOS_NON);
      512     3532    2              CALL VDA$LDELETE (DEL_STREAM, DEL@RANGE)
      513     3533    2                ALTRET (LDELETE_FAILED);
      514     3534    2              GOTO LDELETED;
      515     3535    2            END;  /* Do Case */
      516     3536
      517     3537
      518     3538    2           IF BNR_TYPE = %BNR_ON_2_RECS THEN DO;
      519     3539    2              S_POS = LOC1.POSITION#;
      520     3540    2              E_POS = LOC2.POSITION#;
      521     3541    2              DEL@RANGE.ENDD.POSITION# = LOC2.POSITION#;
      522     3542    2              END;
      523     3543    1           CALL VDG$BUILD_NEW_REC (BNR_TYPE, SAVE_REC1, S_POS, SAVE_REC2, E_POS)
      524     3544    1             ALTRET (BUILD_NEW_REC_FAILED);
      525     3545
      526     3546
      527     3547                /* Set up the deletes */
      528     3548
      529     3549    1           VD_$RECORDS_DELETED.V# = 0;
      530     3550    2           IF BNR_TYPE ~= %BNR_ON_1_REC THEN DO;
      531     3551    2              IF NOT LOC2_EXISTS THEN /* Tell COVER if eof boundary is gone */
      532     3552    2                 VD_EOF_DELETED = MY_EOF_DELETED;
      533     3553    2              CALL VDA$LDELETE (DEL_STREAM, DEL@RANGE)
      534     3554    2                ALTRET (LDELETE_FAILED);
      535     3555    2              VD_$RECORDS_DELETED.V# = VD_$RECORDS_DELETED.V# - 1;
      536     3556    2              END;
      537     3557
      538     3558    1           CALL VDE$RPUT (DEL_STREAM, EDIT_BLOCK.RANGE, EDIT_BLOCK.OPTIONS,
PL6.E3A0      #002=VDI$BDELETE File=VDI$BLOCK.:VDA5TSI                           FRI 07/04/97 11:28 Page:53
      539     3559    1             SAVE_REC1, %SQ_CURRENT)
      540     3560    1             ALTRET (RPUT_FAILED);
      541     3561    1           CALL XLATE_LOCATIONS;
      542     3562
      543     3563    1   LDELETED: ;
      544     3564    1           IF VD_$RECORDS_DELETED.V# = 0 THEN
      545     3565        /* If LDELETE deleted no records, fix up the reported value. */
      546     3566    1              VD_$RECORDS_DELETED.V# = -1;
      547     3567
      548     3568    1   NOTHING_2_DELETE:
      549     3569    1           CALL VDG$OFREE (SAVE_REC1_BUF)
      550     3570    1             ALTRET (OFREE_FAILED);
      551     3571    1           SAVE_REC1.DATA$ = ADDR(NIL);
      552     3572    1           CALL VDG$OFREE (SAVE_REC2_BUF)
      553     3573    1             ALTRET (OFREE_FAILED);
      554     3574    1           SAVE_REC2.DATA$ = ADDR(NIL);
      555     3575
      556     3576                /*
      557     3577                *   Need to shrink down the range descriptor down to one point.
      558     3578                */
      559     3579
      560     3580    1           CALL VDG$OCLEAR_LOCATION (DEL_RANGE.ENDD)
      561     3581    1             ALTRET (OCLEAR_LOCATION_FAILED);
      562     3582    1           CALL VDG$OCOPY_LOCATION (DEL_RANGE.START, DEL_RANGE.ENDD)
      563     3583    1             ALTRET (OCOPY_LOCATION_FAILED);
      564     3584
      565     3585    1           CALL VDG$OCLEAR_RANGE (DEL@RANGE);
      566     3586    1   NONE_2_DELETE:
      567     3587    1           RETURN;
      568     3588
      569     3589
      570     3590
      571     3591    1   BTYPE_FAILED: ;
      572     3592    1   OCOPY_RANGE_FAILED: ;
      573     3593    1   OCOPY_LOCATION_FAILED: ;
      574     3594    1   OCLEAR_LOCATION_FAILED: ;
      575     3595    1   LDELETE_FAILED: ;
PL6.E3A0      #002=VDI$BDELETE File=VDI$BLOCK.:VDA5TSI                           FRI 07/04/97 11:28 Page:54
      576     3596    1   LREAD_FAILED: ;
      577     3597    1   RPUT_FAILED: ;
      578     3598    1   OFREE_FAILED: ;
      579     3599    1   OALLOC_FAILED: ;
      580     3600    1   GET_RECORD_FAILED: ;
      581     3601    1   BUILD_NEW_REC_FAILED: ;
      582     3602    1           ALTRETURN;
      583     3603
      584     3604
      585     3605                %BOX (TITLE=GET_RECORD, PAGE=YES);
              3613    1
              3617    1   /***************************************************************************
              3619    1    *                                                                         *
              3623    1            *                                 GET_RECORD                              *
              3625    1            *                                                                         *
              3627    1           ***************************************************************************/

      586     3631
      587     3632        /*I* NAME: GET_RECORD
      588     3633            PARAMETERS:
      589     3634                LOC - VD$LOCATION of record to get.
      590     3635                RECORD - Uninitialized VD$NODE_DESC.
      591     3636                RECORD_EXISTS - Uninitialized BIT(1) ALIGNED.
      592     3637                READ_ONLY_IF_EXISTS - BIT(1) ALIGNED; set if we only want to read the
      593     3638                   LOC record if it exists in the file.
      594     3639            INPUT:
      595     3640            OUTPUT:
      596     3641                RECORD_EXISTS will be set if the LOC key exists in the file.
      597     3642                RECORD will be %CLEAR if we didn't read the record; else will contain
      598     3643                    the LOC record or, if RECORD_EXISTS returned false, may contain
      599     3644                    the record following the LOC location.
      600     3645                    This record will be truncated/extended so that LOC.POSITION#
      601     3646                    is the exact length of LOC.DATA$'s buffer.
      602     3647                LOC - If the record doesn't exists, LOC.POSITION# will be set to
      603     3648                Thus, on any return, LOC.POSITION# will be the length of the LOC record.
      604     3649            DESCRIPTION:
      605     3650                Position the file to LOC; if the record doesn't exist, and
PL6.E3A0      #002=VDI$BDELETE File=VDI$BLOCK.:VDA5TSI                           FRI 07/04/97 11:28 Page:55
      606     3651                    READ_ONLY_IF_EXISTS is set, then return with RECORD = %CLEAR.
      607     3652                Else VDE$RGET the record, and VDE$RADJUST_LENGTH it to LOC.POSITION#'s
      608     3653                    value.
      609     3654        */
      610     3655
      611     3656    1   GET_RECORD: PROC (LOC, RECORD, RECORD_EXISTS, READ_ONLY_IF_EXISTS) ALTRET;
      612     3657
      613     3658        %VD$LOCATION (NAME=LOC, STCLASS=PARAM);
      614     3686        %VD$NODE_DESC (NAME=RECORD, STCLASS=PARAM);
      615     3728    2   DCL RECORD_EXISTS BIT(1) ALIGNED;
      616     3729    2   DCL READ_ONLY_IF_EXISTS  BIT(1) ALIGNED;
      617     3730
      618     3731
      619     3732    2   DCL STREAM_KEY$ PTR;
      620     3733    2   DCL LOC_KEY$ PTR;
      621     3734    2   DCL POS UBIN;
      622     3735
      623     3736
      624     3737        %VD$BUFFER (NAME=RECORD_BUF, STCLASS="BASED(RECORD.DATA$)");
      625     3795        %VD$TEXTC (NAME=STREAM$KEY, STCLASS="BASED(STREAM_KEY$)");
      626     3818        %VD$TEXTC (NAME=LOC$KEY, STCLASS="BASED(LOC_KEY$)");
      627     3841        %VD$TEXTC_REMOTE;
      628     3902
      629     3903
      630     3904
      631     3905    2           RECORD_EXISTS = %TRUE;  /* Assume LOC record exists */
      632     3906    2           RECORD = %CLEAR;
      633     3907    2           RECORD.DATA$ = ADDR(NIL);
      634     3908
      635     3909    2           CALL VDA$LREAD (DEL_STREAM, LOC, 0, %TRUE)
      636     3910    2             ALTRET (LREAD_FAILED);
      637     3911    3           IF DEL_STREAM.CURRENT.EOF THEN DO;
      638     3912    3              RECORD_EXISTS = %FALSE;
      639     3913    3              LOC.POSITION# = 0;
      640     3914    3              RETURN;
      641     3915    3              END;
      642     3916
PL6.E3A0      #002=VDI$BDELETE File=VDI$BLOCK.:VDA5TSI                           FRI 07/04/97 11:28 Page:56
      643     3917                %GETKEY (KEY=DEL_STREAM.CURRENT.KEY, INDX="%(LVL_EXT_REC-1)",
      644     3918                PTR=STREAM_KEY$);
      645     3928                %GETKEY (KEY=LOC.KEY, INDX="%(LVL_EXT_REC-1)", PTR=LOC_KEY$);
      646     3938    3           IF STREAM$KEY.BYTES ~= LOC$KEY.BYTES THEN DO;
      647     3939    3              RECORD_EXISTS = %FALSE;
      648     3940    3              LOC.POSITION# = 0;
      649     3941    3              END;
      650     3942
      651     3943    2           IF RECORD_EXISTS OR NOT READ_ONLY_IF_EXISTS THEN
      652     3944    3   READ_THE_RECORD: DO;
      653     3945    3              CALL VDE$RGET (DEL_STREAM, EDIT_BLOCK.RANGE, RECORD)
      654     3946    3                ALTRET (RGET_FAILED);
      655     3947
      656     3948    3              POS = LOC.POSITION#; /* Need WORD for VDE$RADJUST_LENGTH call */
      657     3949    3              IF POS > RECORD_BUF.LENGTH# THEN
      658     3950    3                 CALL VDE$RADJUST_LENGTH (RECORD, POS)
      659     3951    3                   ALTRET (RADJUST_LEN_FAILED);
      660     3952    3              RECORD_EXISTS = %TRUE;
      661     3953    3              END READ_THE_RECORD;
      662     3954
      663     3955    2           RETURN;
      664     3956
      665     3957
      666     3958    2   LREAD_FAILED: ;
      667     3959    2   RADJUST_LEN_FAILED: ;
      668     3960    2   RGET_FAILED: ;
      669     3961    2           ALTRETURN;
      670     3962
      671     3963    2   END GET_RECORD;
      672     3964
      673     3965                %BOX (TITLE=XLATE_LOCATIONS, PAGE=YES);
              3973    2
              3977    2   /***************************************************************************
              3979    2    *                                                                         *
              3983    2            *                              XLATE_LOCATIONS                            *
              3985    2            *                                                                         *
              3987    2           ***************************************************************************/
PL6.E3A0      #002=VDI$BDELETE File=VDI$BLOCK.:VDA5TSI                           FRI 07/04/97 11:28 Page:57

      674     3991
      675     3992        /*I* NAME: XLATE_LOCATIONS
      676     3993            PARAMETERS:
      677     3994                None.
      678     3995            INPUT:
      679     3996            OUTPUT:
      680     3997            DESCRIPTION:
      681     3998        */
      682     3999
      683     4000    1   XLATE_LOCATIONS: PROC  ALTRET;
      684     4001
      685     4002
      686     4003        %VD$XLATE_LOCATIONS (NAME=XLATE$LOC, STCLASS=AUTO);
      687     4139
      688     4140    2           XLATE$LOC = %CLEAR;
      689     4141    2           XLATE$LOC.FILE_KEY = EDIT_BLOCK.FILE_KEY;
      690     4142    2           XLATE$LOC.FLINK$ = ADDR(NIL);
      691     4143    2           XLATE$LOC.LEVEL# = %LVL_EXT_REC;
      692     4144
      693     4145    3           DO CASE (BDT_CODE);
      694     4146
      695     4147    3            CASE (%BDT_SPOS_0_EOF,%BDT_BOF_EOF,%BDT_SPOS_NON_EOF,
      696     4148    3             %BDT_2_REC_POS_0,%BDT_BOF_EPOS_0);
      697     4149                   /*
      698     4150                   *   Block shape is:  a number of whole records:
      699     4151                   *     ----------------------------
      700     4152                   *     |                          |
      701     4153                   *     |                          |
      702     4154                   *     ----------------------------
      703     4155                   *   or: partial record to EOF.
      704     4156                   *   At this point, DEL@RANGE.ENDD contains the last key
      705     4157                   *     actually deleted, not (as you might expect) the
      706     4158                   *     key just beyond the last key deleted.
      707     4159                   */
      708     4160    3              DEL@RANGE.ENDD.POSITION# = %HALF_INFINITY;
      709     4161    3            CASE (%BDT_2_REC_SPOS_NON_EPOS_0);
PL6.E3A0      #002=VDI$BDELETE File=VDI$BLOCK.:VDA5TSI                           FRI 07/04/97 11:28 Page:58
      710     4162                   /*
      711     4163                   *  Block shape is:  partial record at start, # whole records.
      712     4164                   *                     ------------
      713     4165                   *                     |          |
      714     4166                   *     -----------------          |
      715     4167                   *     |                          |
      716     4168                   *     ----------------------------
      717     4169                   *   At this point:
      718     4170                   *   For BDT_2REC_SPOS_NON_EPOS_0, DEL@RANGE.ENDD is
      719     4171                   *     basically unchanged.  However, the record it refers
      720     4172                   *     to (which is one beyond the last record the
      721     4173                   *     user requested us to delete) has been moved and
      722     4174                   *     "pasted" onto the SAVE_REC1.KEY record (basically,
      723     4175                   *     the DEL@RANGE.START record).  Therefore VD$LOCATIONs
      724     4176                   *     referring to the DEL@RANGE.ENDD record must also be
      725     4177                   *     translated.
      726     4178                   */
      727     4179    3              DEL@RANGE.ENDD.POSITION# = 0;
      728     4180    3            CASE ( ELSE);
      729     4181                   /*
      730     4182                   *  Block shape is:  # whole records, partial last record.
      731     4183                   *     -------------------------------
      732     4184                   *     |                             |
      733     4185                   *     |               ---------------
      734     4186                   *     |               |
      735     4187                   *     -----------------
      736     4188                   *  OR:  partial first and last recs, # whole recs
      737     4189                   *                     ---------------
      738     4190                   *                     |             |
      739     4191                   *     -----------------             |
      740     4192                   *     |                             |
      741     4193                   *     |           -------------------
      742     4194                   *     |           |
      743     4195                   *     -------------
      744     4196                   *  OR:  part of one record (less than whole).
      745     4197                   *                     ---------------
      746     4198                   *                     |             |
PL6.E3A0      #002=VDI$BDELETE File=VDI$BLOCK.:VDA5TSI                           FRI 07/04/97 11:28 Page:59
      747     4199                   *                     ---------------
      748     4200                   */
      749     4201
      750     4202    3            END; /*DO CASE */
      751     4203
      752     4204    2           XLATE$LOC.N_ENTRIES# = 1;
      753     4205
      754     4206    2           XLATE$LOC.XLATES.OLD_KEY_LO(0) = DEL@RANGE.START.KEY(%LVL_EXT_REC-1);
      755     4207    2           XLATE$LOC.XLATES.OLD_KEY_HI(0) = DEL@RANGE.ENDD.KEY(%LVL_EXT_REC-1);
      756     4208
      757     4209    2           XLATE$LOC.XLATES.OLD_POS_LO#(0) = DEL@RANGE.START.POSITION#;
      758     4210    2           XLATE$LOC.XLATES.OLD_POS_HI#(0) = DEL@RANGE.ENDD.POSITION#;
      759     4211
      760     4212    2           XLATE$LOC.XLATES.NEW_KEY(0) = SAVE_REC1.KEY;
      761     4213    2           XLATE$LOC.XLATES.NEW_POS#(0) = S_POS;
      762     4214    2           IF XLATE$LOC.XLATES.OLD_POS_HI#(0) < %HALF_INFINITY THEN
      763     4215    2              XLATE$LOC.XLATES.NEW_POS_INCR#(0) =
      764     4216    2                XLATE$LOC.XLATES.NEW_POS#(0) - XLATE$LOC.XLATES.OLD_POS_HI#(0);
      765     4217    2           CALL VDG$XLATE_LOCATIONS (XLATE$LOC, %XLATE_LOCATION)
      766     4218    2             ALTRET (XLATE_FAILED);
      767     4219
      768     4220    2           RETURN;
      769     4221
      770     4222
      771     4223    2   XLATE_FAILED:
      772     4224    2           ALTRETURN;
      773     4225
      774     4226
      775     4227    2   END XLATE_LOCATIONS;
      776     4228
      777     4229
      778     4230    1   END VDI$BDELETE;
      779     4231        %EOD;

PL6.E3A0      #002=VDI$BDELETE File=VDI$BLOCK.:VDA5TSI                           FRI 07/04/97 11:28 Page:60
--  Include file information  --

   VD_PERR_C.:VDA5TOU  is referenced.
   VD_MACROS_M.:VDA5TOU  is referenced.
   B$JIT_C.:E04TOU  was found in the system file and is never referenced.
   CP_6_C.:E04TOU  was found in the system file and is never referenced.
      No diagnostics issued in procedure VDI$BDELETE.

   Procedure VDI$BDELETE requires 687 words for executable code.
   Procedure VDI$BDELETE requires 98 words of local(AUTO) storage.

PL6.E3A0      #002=VDI$BDELETE File=VDI$BLOCK.:VDA5TSI                           FRI 07/04/97 11:28 Page:61

 Object Unit name= VDI$BDELETE                                File name= VDI$BLOCK.:VDA5TOU
 UTS= JUL 04 '97 11:28:20.20 FRI                              Compiler= PL-6/E31         Sev=      00
 SharedLib= :SHARED_SYSTEM                                    Alt SharedLib=


    ****  Control sections  ****

 Sect   Type Bound  Init  Size OctSiz  Section name(segment info)
    0   Proc  even  none   687   1257  VDI$BDELETE
    1  RoData even  none     8     10  VDI$BDELETE

    ****  Entry defs  ****

                              Check   Calling
                             calling  sequence
  Sect OctLoc Primary Altret sequence   type   Parms  Name
     0      0   yes    yes     yes      Std        3  VDI$BDELETE

  ****  Entry refs  ****

         Check        Calling
        calling       sequence
Altret sequence SRef   type   Args  Name
 yes     yes           Std       2 VDG$OCOPY_RANGE
 yes     yes           Std       3 VDI$BTYPE
 yes     yes           Std       4 VDA$LREAD
 yes     yes           Std       2 VDA$LDELETE
 yes     yes           Std       1 VDG$OCLEAR_RANGE
 yes     yes           Std       1 VDG$OFREE
         yes           Std       3 VDG$ESCREECH
 yes     yes           Std       2 VDG$OCOPY
 yes     yes           Std       5 VDG$BUILD_NEW_REC
 yes     yes           Std       1 VDG$OCLEAR_LOCATION
 yes     yes           Std       2 VDG$OCOPY_LOCATION
 yes     yes           Std       6 VDE$RPUT
 yes     yes           Std       3 VDE$RGET
 yes     yes           Std       2 VDE$RADJUST_LENGTH
PL6.E3A0      #002=VDI$BDELETE File=VDI$BLOCK.:VDA5TSI                           FRI 07/04/97 11:28 Page:62
 yes     yes           Std       2 VDG$XLATE_LOCATIONS
                       nStd      0 X66_AUTO_3
                       Std       0 B_CONSPOOL_D
                       nStd      0 X66_AALT
                       nStd      0 X66_ARET

  ****  Data refs  ****

  Flags:  r = read only, s = secondary
Flgs Name                             Flgs Name                             Flgs Name
     VD_$RECORDS_DELETED                   VD_EOF_DELETED                        B_VECTNIL

  ****  Segment refs  ****

  Flags:  r = read only, s = secondary
Flgs Name                             Flgs Name                             Flgs Name
     ISSID
PL6.E3A0      #002=VDI$BDELETE File=VDI$BLOCK.:VDA5TSI                           FRI 07/04/97 11:28 Page:63


      287        1        /*T***********************************************************/
      288        2        /*T*                                                         */
      289        3        /*T* Copyright (c) Bull HN Information Systems Inc., 1997    */
      290        4        /*T*                                                         */
      291        5        /*T***********************************************************/
      292        6
      293        7        /*D* NAME:  VDI$BDELETE
      294        8            PARAMETERS:
      295        9                DEL_RANGE - VD$RANGE specyfying the range to be deleted.
      296       10                DEL_STREAM - VD$STREAM to be used to access the file.  Must be open.
      297       11                EDIT_BLOCK - VD$BLOCK_DESC for the EditBlock in which DEL_RANGE
      298       12                    resides.
      299       13            INPUT:
      300       14            OUTPUT:
      301       15                VD_$RECORDS_DELETED.V# will be set to the number of records deleted.
      302       16                    If nothing at all is deleted, it is set to -1.
      303       17            DESCRIPTION:
      304       18                Determine what needs to be deleted.
      305       19                deleted; replace the first and/or last records of the range
      306       20                if any partial records are to be deleted.
      307       21        */
      308       22
      309       23        VDI$BDELETE: PROC (DEL_RANGE, DEL_STREAM, EDIT_BLOCK) ALTRET;

     23  0 000000   000000 700200 xent  VDI$BDELETE  TSX0  ! X66_AUTO_3
         0 000001   000142 000003                    ZERO    98,3

      310       24
      311       25        %INCLUDE VD_MACROS_M;
      312     2240        %INCLUDE VD_PERR_C;
      313     2388
      314     2389
      315     2390        %VD$RANGE (NAME=DEL_RANGE, STCLASS=PARAM);
      316     2459        %VD$STREAM (NAME=DEL_STREAM,STCLASS=PARAM);
      317     2565        %VD$BLOCK_DESC (NAME=EDIT_BLOCK, STCLASS=PARAM);
      318     2712
PL6.E3A0      #002=VDI$BDELETE File=VDI$BLOCK.:VDA5TSI                           FRI 07/04/97 11:28 Page:64
      319     2713
      320     2714    1   DCL VDE$RADJUST_LENGTH     ENTRY (2) ALTRET;
      321     2715    1   DCL VDE$RGET               ENTRY (3) ALTRET;
      322     2716    1   DCL VDE$RPUT               ENTRY (6) ALTRET;
      323     2717    1   DCL VDA$LDELETE            ENTRY (2) ALTRET;
      324     2718    1   DCL VDA$LREAD              ENTRY (4) ALTRET;
      325     2719    1   DCL VDG$XLATE_LOCATIONS    ENTRY (2) ALTRET;
      326     2720    1   DCL VDG$OALLOC             ENTRY (3) ALTRET;
      327     2721    1   DCL VDG$OFREE              ENTRY (1) ALTRET;
      328     2722    1   DCL VDG$OCOPY              ENTRY (2) ALTRET;
      329     2723    1   DCL VDG$OCOPY_RANGE        ENTRY (2) ALTRET;
      330     2724    1   DCL VDG$OCOPY_LOCATION     ENTRY (2) ALTRET;
      331     2725    1   DCL VDG$OCLEAR_LOCATION    ENTRY (1) ALTRET;
      332     2726    1   DCL VDG$OCLEAR_RANGE       ENTRY (1) ALTRET;
      333     2727    1   DCL VDG$BUILD_NEW_REC      ENTRY (5) ALTRET;
      334     2728    1   DCL VDG$ESCREECH           ENTRY (3);
      335     2729    1   DCL VDI$BTYPE              ENTRY (3) ALTRET;
      336     2730
      337     2731        %VD$NUMBER (NAME=VD_$RECORDS_DELETED, STCLASS=SYMREF);
      338     2776    1   DCL VD_EOF_DELETED BIT(36) SYMREF;
      339     2777
      340     2778
      341     2779        %VD$RANGE (NAME=DEL@RANGE, STCLASS=AUTO);
      342     2848    1   DCL E_POS UBIN;
      343     2849    1   DCL S_POS UBIN;
      344     2850    1   DCL ALLOC_WDS UBIN;
      345     2851    1   DCL BDT_CODE UBIN;
      346     2852    1   DCL BNR_TYPE UBIN;
      347     2853        %VD$NODE_DESC (NAME=SAVE_REC1, STCLASS=AUTO);
      348     2895        %VD$NODE_DESC (NAME=SAVE_REC2, STCLASS=AUTO);
      349     2937        %VD$LOCATION (NAME=LOC1, STCLASS=AUTO);
      350     2965        %VD$LOCATION (NAME=LOC2, STCLASS=AUTO);
      351     2993    1   DCL LOC1_EXISTS BIT(1) ALIGNED;
      352     2994    1   DCL GET_LOC1 BIT(1) ALIGNED;
      353     2995    1   DCL LOC2_EXISTS BIT(1) ALIGNED;
      354     2996    1   DCL GET_LOC2 BIT(1) ALIGNED;
      355     2997    1   DCL MY_EOF_DELETED BIT(36);
PL6.E3A0      #002=VDI$BDELETE File=VDI$BLOCK.:VDA5TSI                           FRI 07/04/97 11:28 Page:65
      356     2998    1   DCL READ_ONLY_IF_EXISTS BIT(1) ALIGNED;
      357     2999    1   DCL STREAM_KEY$ PTR;
      358     3000    1   DCL RANGE_KEY$ PTR;
      359     3001    1   DCL BOF_KEY$ PTR;
      360     3002
      361     3003
      362     3004        %VD$KEY_NUMBER (STCLASS=BASED);
      363     3019        %VD$BUFFER (NAME=SAVE_REC1_BUF, STCLASS="BASED(SAVE_REC1.DATA$)");
      364     3077        %VD$BUFFER (NAME=SAVE_REC2_BUF, STCLASS="BASED(SAVE_REC2.DATA$)");
      365     3135        %VD$TEXTC (NAME=STREAM$KEY, STCLASS="BASED(STREAM_KEY$)");
      366     3158        %VD$TEXTC (NAME=RANGE$KEY, STCLASS="BASED(RANGE_KEY$)");
      367     3181        %VD$TEXTC_REMOTE;
      368     3242        %VD$TEXTC;
      369     3265
      370     3266
      371     3267        %BOX (TITLE="Delete a Range");

              3279    1   /***************************************************************************
              3281    1    *                                                                         *
              3285    1            *                               Delete a Range                           *
              3287    1            *                                                                        *
              3289    1          ***************************************************************************/

      372     3293
      373     3294    1           GET_LOC1 = %FALSE;

   3294  0 000002   200074 450100                    STZ     GET_LOC1,,AUTO

      374     3295    1           GET_LOC2 = %FALSE;

   3295  0 000003   200076 450100                    STZ     GET_LOC2,,AUTO

      375     3296    1           LOC2_EXISTS = %FALSE;

   3296  0 000004   200075 450100                    STZ     LOC2_EXISTS,,AUTO

      376     3297    1           MY_EOF_DELETED = VD_EOF_DELETED;
PL6.E3A0      #002=VDI$BDELETE File=VDI$BLOCK.:VDA5TSI                           FRI 07/04/97 11:28 Page:66

   3297  0 000005   000000 236000 xsym               LDQ     VD_EOF_DELETED
         0 000006   200077 756100                    STQ     MY_EOF_DELETED,,AUTO

      377     3298    1           VD_EOF_DELETED = %FALSE;

   3298  0 000007   000000 450000 xsym               STZ     VD_EOF_DELETED

      378     3299    1           BNR_TYPE = %BNR_ON_2_RECS;

   3299  0 000010   000002 235007                    LDA     2,DL
         0 000011   200034 755100                    STA     BNR_TYPE,,AUTO

      379     3300    1           VD_$RECORDS_DELETED.V# = -1; /* Start out saying nothing to delete */

   3300  0 000012   000001 335007                    LCA     1,DL
         0 000013   000003 755000 xsym               STA     VD_$RECORDS_DELETED+3

      380     3301                /* If we ever call VDA$LDELETE, it'll get changed to something >=0 */
      381     3302    1           DEL@RANGE = %CLEAR;

   3302  0 000014   000100 100400                    MLR     fill='000'O
         0 000015   000002 000001 xsym               ADSC9   B_VECTNIL+2              cn=0,n=1
         0 000016   200006 000110                    ADSC9   DEL@RANGE,,AUTO          cn=0,n=72

      382     3303    1           LOC1 = %CLEAR;

   3303  0 000017   000100 100400                    MLR     fill='000'O
         0 000020   000002 000001 xsym               ADSC9   B_VECTNIL+2              cn=0,n=1
         0 000021   200051 000044                    ADSC9   LOC1,,AUTO               cn=0,n=36

      383     3304    1           LOC2 = %CLEAR;

   3304  0 000022   000100 100400                    MLR     fill='000'O
         0 000023   000002 000001 xsym               ADSC9   B_VECTNIL+2              cn=0,n=1
         0 000024   200062 000044                    ADSC9   LOC2,,AUTO               cn=0,n=36

PL6.E3A0      #002=VDI$BDELETE File=VDI$BLOCK.:VDA5TSI                           FRI 07/04/97 11:28 Page:67
      384     3305    1           SAVE_REC1 = %CLEAR;

   3305  0 000025   000100 100400                    MLR     fill='000'O
         0 000026   000002 000001 xsym               ADSC9   B_VECTNIL+2              cn=0,n=1
         0 000027   200035 000030                    ADSC9   SAVE_REC1,,AUTO          cn=0,n=24

      385     3306    1           SAVE_REC2 = %CLEAR;

   3306  0 000030   000100 100400                    MLR     fill='000'O
         0 000031   000002 000001 xsym               ADSC9   B_VECTNIL+2              cn=0,n=1
         0 000032   200043 000030                    ADSC9   SAVE_REC2,,AUTO          cn=0,n=24

      386     3307    1           SAVE_REC1.DATA$ = ADDR(NIL);

   3307  0 000033   000001 236000 xsym               LDQ     B_VECTNIL+1
         0 000034   200041 756100                    STQ     SAVE_REC1+4,,AUTO

      387     3308    1           SAVE_REC2.DATA$ = ADDR(NIL);

   3308  0 000035   200047 756100                    STQ     SAVE_REC2+4,,AUTO

      388     3309    1           S_POS = DEL_RANGE.START.POSITION#;

   3309  0 000036   200003 470500                    LDP0    @DEL_RANGE,,AUTO
         0 000037   000010 236100                    LDQ     8,,PR0
         0 000040   000022 732000                    QRS     18
         0 000041   200031 756100                    STQ     S_POS,,AUTO

      389     3310    1           E_POS = DEL_RANGE.ENDD.POSITION#;

   3310  0 000042   000021 236100                    LDQ     17,,PR0
         0 000043   000022 732000                    QRS     18
         0 000044   200030 756100                    STQ     E_POS,,AUTO

      390     3311
      391     3312
      392     3313    1           CALL VDG$OCOPY_RANGE (DEL_RANGE, DEL@RANGE)
PL6.E3A0      #002=VDI$BDELETE File=VDI$BLOCK.:VDA5TSI                           FRI 07/04/97 11:28 Page:68

   3313  0 000045   200006 631500                    EPPR1   DEL@RANGE,,AUTO
         0 000046   200135 451500                    STP1    POS+18,,AUTO
         0 000047   200003 236100                    LDQ     @DEL_RANGE,,AUTO
         0 000050   200134 756100                    STQ     POS+17,,AUTO
         0 000051   200134 630500                    EPPR0   POS+17,,AUTO
         0 000052   000020 631400 xsym               EPPR1   B_VECTNIL+16
         0 000053   000000 701000 xent               TSX1    VDG$OCOPY_RANGE
         0 000054   000764 702000 0                  TSX2    BTYPE_FAILED

      393     3314    1             ALTRET (OCOPY_RANGE_FAILED);
      394     3315    1           CALL VDI$BTYPE (DEL@RANGE, BDT_CODE, EDIT_BLOCK) ALTRET (BTYPE_FAILED);

   3315  0 000055   200005 236100                    LDQ     @EDIT_BLOCK,,AUTO
         0 000056   200136 756100                    STQ     POS+19,,AUTO
         0 000057   200033 630500                    EPPR0   BDT_CODE,,AUTO
         0 000060   200135 450500                    STP0    POS+18,,AUTO
         0 000061   200006 631500                    EPPR1   DEL@RANGE,,AUTO
         0 000062   200134 451500                    STP1    POS+17,,AUTO
         0 000063   200134 630500                    EPPR0   POS+17,,AUTO
         0 000064   000021 631400 xsym               EPPR1   B_VECTNIL+17
         0 000065   000000 701000 xent               TSX1    VDI$BTYPE
         0 000066   000764 702000 0                  TSX2    BTYPE_FAILED

      395     3316    1           IF BDT_CODE = %BDT_SPOS_0_EOF  OR

   3316  0 000067   200033 235100                    LDA     BDT_CODE,,AUTO
         0 000070   000012 115007                    CMPA    10,DL
         0 000071   000076 600000 0                  TZE     s:3320
         0 000072   000020 115007                    CMPA    16,DL
         0 000073   000076 600000 0                  TZE     s:3320
         0 000074   000011 115007                    CMPA    9,DL
         0 000075   000150 601000 0                  TNZ     BDT_CASES

      396     3317    1             BDT_CODE = %BDT_BOF_EOF  OR
      397     3318    1             BDT_CODE = %BDT_SPOS_NON_EOF THEN
      398     3319    2           DO;
PL6.E3A0      #002=VDI$BDELETE File=VDI$BLOCK.:VDA5TSI                           FRI 07/04/97 11:28 Page:69

      399     3320    2              CALL VDA$LREAD(DEL_STREAM, DEL@RANGE.ENDD, -1, %FALSE)

   3320  0 000076   000000 237000 1                  LDAQ    0
         0 000077   200136 757100                    STAQ    POS+19,,AUTO
         0 000100   200017 630500                    EPPR0   DEL@RANGE+9,,AUTO
         0 000101   200135 450500                    STP0    POS+18,,AUTO
         0 000102   200004 236100                    LDQ     @DEL_STREAM,,AUTO
         0 000103   200134 756100                    STQ     POS+17,,AUTO
         0 000104   200134 630500                    EPPR0   POS+17,,AUTO
         0 000105   000022 631400 xsym               EPPR1   B_VECTNIL+18
         0 000106   000000 701000 xent               TSX1    VDA$LREAD
         0 000107   000764 702000 0                  TSX2    BTYPE_FAILED

      400     3321    2                ALTRET (LREAD_FAILED);
      401     3322                   %CLEARKEY (KEY=DEL@RANGE.ENDD.KEY,INDX="%(LVL_EXT_REC-1)");

   3329  0 000110   200017 720100                    LXL0    DEL@RANGE+9,,AUTO
         0 000111   000002 100003                    CMPX0   2,DU
         0 000112   000121 601000 0                  TNZ     s:3330+1

   3329  0 000113   200020 630500                    EPPR0   DEL@RANGE+10,,AUTO
         0 000114   000017 631400 xsym               EPPR1   B_VECTNIL+15
         0 000115   000000 701000 xent               TSX1    VDG$OFREE
         0 000116   000120 702000 0                  TSX2    s:3330
         0 000117   000121 710000 0                  TRA     s:3330+1

   3330  0 000120   000000 702200 xent               TSX2  ! X66_AALT

   3330  0 000121   200017 450100                    STZ     DEL@RANGE+9,,AUTO
         0 000122   200020 450100                    STZ     DEL@RANGE+10,,AUTO

      402     3332                   %COPYKEY (FKEY=DEL_STREAM.CURRENT.KEY,FINDX="%(LVL_EXT_REC-1)",
      403     3333                   TKEY=DEL@RANGE.ENDD.KEY,TINDX="%(LVL_EXT_REC-1)");

   3346  0 000123   200004 470500                    LDP0    @DEL_STREAM,,AUTO
         0 000124   000100 100500                    MLR     fill='000'O
PL6.E3A0      #002=VDI$BDELETE File=VDI$BLOCK.:VDA5TSI                           FRI 07/04/97 11:28 Page:70
         0 000125   000006 000010                    ADSC9   6,,PR0                   cn=0,n=8
         0 000126   200017 000010                    ADSC9   DEL@RANGE+9,,AUTO        cn=0,n=8

   3346  0 000127   000006 720100                    LXL0    6,,PR0
         0 000130   000002 100003                    CMPX0   2,DU
         0 000131   000144 601000 0                  TNZ     s:3349

   3346  0 000132   000007 471500                    LDP1    7,,PR0
         0 000133   200020 633500                    EPPR3   DEL@RANGE+10,,AUTO
         0 000134   200135 453500                    STP3    POS+18,,AUTO
         0 000135   200134 451500                    STP1    POS+17,,AUTO
         0 000136   200134 630500                    EPPR0   POS+17,,AUTO
         0 000137   000020 631400 xsym               EPPR1   B_VECTNIL+16
         0 000140   000000 701000 xent               TSX1    VDG$OCOPY
         0 000141   000143 702000 0                  TSX2    s:3347
         0 000142   000144 710000 0                  TRA     s:3349

   3347  0 000143   000000 702200 xent               TSX2  ! X66_AALT

      404     3349    2              DEL@RANGE.ENDD.EOF = %FALSE;

   3349  0 000144   000002 236000 1                  LDQ     2
         0 000145   200027 356100                    ANSQ    DEL@RANGE+17,,AUTO

      405     3350    2              SAVE_REC2.EOR = %TRUE;   /* EOF always has EOR */

   3350  0 000146   400000 236003                    LDQ     -131072,DU
         0 000147   200050 256100                    ORSQ    SAVE_REC2+5,,AUTO

      406     3351    2              END;

      407     3352
      408     3353    1   BDT_CASES:
      409     3354    2           DO CASE (BDT_CODE);

   3354  0 000150   200033 235100       BDT_CASES    LDA     BDT_CODE,,AUTO
         0 000151   000022 115007                    CMPA    18,DL
PL6.E3A0      #002=VDI$BDELETE File=VDI$BLOCK.:VDA5TSI                           FRI 07/04/97 11:28 Page:71
         0 000152   000154 602005 0                  TNC     BDT_CASES+4,AL
         0 000153   000416 710000 0                  TRA     s:3464
         0 000154   000416 710000 0                  TRA     s:3464
         0 000155   000365 710000 0                  TRA     s:3445
         0 000156   000365 710000 0                  TRA     s:3445
         0 000157   000356 710000 0                  TRA     s:3440
         0 000160   000217 710000 0                  TRA     s:3368
         0 000161   000377 710000 0                  TRA     s:3451
         0 000162   000177 710000 0                  TRA     s:3361
         0 000163   000377 710000 0                  TRA     s:3451
         0 000164   000176 710000 0                  TRA     s:3357
         0 000165   000410 710000 0                  TRA     s:3457
         0 000166   000206 710000 0                  TRA     s:3364
         0 000167   000177 710000 0                  TRA     s:3361
         0 000170   000176 710000 0                  TRA     s:3357
         0 000171   000177 710000 0                  TRA     s:3361
         0 000172   000356 710000 0                  TRA     s:3440
         0 000173   000217 710000 0                  TRA     s:3368
         0 000174   000206 710000 0                  TRA     s:3364
         0 000175   000176 710000 0                  TRA     s:3357

      410     3355
      411     3356    2            CASE (%BDT_1_REC_POS_0, %BDT_EOF_EOF, %BDT_BOF_BOF);

      412     3357    2              GOTO NONE_2_DELETE;

   3357  0 000176   000763 710000 0                  TRA     NONE_2_DELETE

      413     3358
      414     3359    2            CASE (%BDT_1_REC_SPOS_NON_EPOS_0, %BDT_EOF_NOT_EOF,

      415     3360    2                %BDT_NOT_BOF_BOF);
      416     3361    2              CALL VDG$ESCREECH (BDT_CODE);

   3361  0 000177   200033 630500                    EPPR0   BDT_CODE,,AUTO
         0 000200   200134 450500                    STP0    POS+17,,AUTO
         0 000201   200134 630500                    EPPR0   POS+17,,AUTO
PL6.E3A0      #002=VDI$BDELETE File=VDI$BLOCK.:VDA5TSI                           FRI 07/04/97 11:28 Page:72
         0 000202   000017 631400 xsym               EPPR1   B_VECTNIL+15
         0 000203   000000 701000 xent               TSX1    VDG$ESCREECH
         0 000204   000000 011000                    NOP     0
         0 000205   000416 710000 0                  TRA     s:3464

      417     3362
      418     3363    2            CASE (%BDT_SPOS_0_EOF, %BDT_BOF_EOF);

      419     3364    2              CALL VDA$LDELETE (DEL_STREAM, DEL@RANGE)  ALTRET (LDELETE_FAILED);

   3364  0 000206   200006 630500                    EPPR0   DEL@RANGE,,AUTO
         0 000207   200135 450500                    STP0    POS+18,,AUTO
         0 000210   200004 236100                    LDQ     @DEL_STREAM,,AUTO
         0 000211   200134 756100                    STQ     POS+17,,AUTO
         0 000212   200134 630500                    EPPR0   POS+17,,AUTO
         0 000213   000020 631400 xsym               EPPR1   B_VECTNIL+16
         0 000214   000000 701000 xent               TSX1    VDA$LDELETE
         0 000215   000764 702000 0                  TSX2    BTYPE_FAILED

      420     3365    2              GOTO LDELETED;

   3365  0 000216   000716 710000 0                  TRA     LDELETED

      421     3366
      422     3367    2            CASE (%BDT_2_REC_POS_0, %BDT_BOF_EPOS_0);

      423     3368    2              CALL VDA$LREAD (DEL_STREAM, DEL@RANGE.ENDD, -1, %FALSE)

   3368  0 000217   000000 237000 1                  LDAQ    0
         0 000220   200136 757100                    STAQ    POS+19,,AUTO
         0 000221   200017 630500                    EPPR0   DEL@RANGE+9,,AUTO
         0 000222   200135 450500                    STP0    POS+18,,AUTO
         0 000223   200004 236100                    LDQ     @DEL_STREAM,,AUTO
         0 000224   200134 756100                    STQ     POS+17,,AUTO
         0 000225   200134 630500                    EPPR0   POS+17,,AUTO
         0 000226   000022 631400 xsym               EPPR1   B_VECTNIL+18
         0 000227   000000 701000 xent               TSX1    VDA$LREAD
PL6.E3A0      #002=VDI$BDELETE File=VDI$BLOCK.:VDA5TSI                           FRI 07/04/97 11:28 Page:73
         0 000230   000764 702000 0                  TSX2    BTYPE_FAILED

      424     3369    2                ALTRET (LREAD_FAILED);
      425     3370                   %GETKEY (KEY=DEL_STREAM.CURRENT.KEY, INDX="%(LVL_EXT_REC-1)",
      426     3371                   PTR=STREAM_KEY$);

   3378  0 000231   200004 470500                    LDP0    @DEL_STREAM,,AUTO
         0 000232   000006 720100                    LXL0    6,,PR0
         0 000233   000002 100003                    CMPX0   2,DU
         0 000234   000241 601000 0                  TNZ     s:3378+8

   3378  0 000235   000007 471500                    LDP1    7,,PR0
         0 000236   100002 633500                    EPPR3   2,,PR1
         0 000237   200101 453500                    STP3    STREAM_KEY$,,AUTO
         0 000240   000244 710000 0                  TRA     s:3389

   3378  0 000241   200004 236100                    LDQ     @DEL_STREAM,,AUTO
         0 000242   000007 036003                    ADLQ    7,DU
         0 000243   200101 756100                    STQ     STREAM_KEY$,,AUTO

      427     3381                   %GETKEY (KEY=DEL@RANGE.START.KEY, INDX="%(LVL_EXT_REC-1)",
      428     3382                   PTR=RANGE_KEY$);

   3389  0 000244   200006 721100                    LXL1    DEL@RANGE,,AUTO
         0 000245   000002 101003                    CMPX1   2,DU
         0 000246   000253 601000 0                  TNZ     s:3389+7

   3389  0 000247   200007 236100                    LDQ     DEL@RANGE+1,,AUTO
         0 000250   000002 036003                    ADLQ    2,DU
         0 000251   200102 756100                    STQ     RANGE_KEY$,,AUTO
         0 000252   000255 710000 0                  TRA     s:3392

   3389  0 000253   200007 631500                    EPPR1   DEL@RANGE+1,,AUTO
         0 000254   200102 451500                    STP1    RANGE_KEY$,,AUTO

      429     3392    2              IF STREAM$KEY.BYTES < RANGE$KEY.BYTES THEN

PL6.E3A0      #002=VDI$BDELETE File=VDI$BLOCK.:VDA5TSI                           FRI 07/04/97 11:28 Page:74
   3392  0 000255   200101 471500                    LDP1    STREAM_KEY$,,AUTO
         0 000256   100000 236100                    LDQ     0,,PR1
         0 000257   000033 772000                    QRL     27
         0 000260   200102 473500                    LDP3    RANGE_KEY$,,AUTO
         0 000261   000000 622006                    EAX2    0,QL
         0 000262   300000 236100                    LDQ     0,,PR3
         0 000263   000033 772000                    QRL     27
         0 000264   000000 623006                    EAX3    0,QL
         0 000265   040140 106540                    CMPC    fill='040'O
         0 000266   100000 200012                    ADSC9   0,,PR1                   cn=1,n=*X2
         0 000267   300000 200013                    ADSC9   0,,PR3                   cn=1,n=*X3
         0 000270   000722 602000 0                  TNC     NOTHING_2_DELETE

      430     3393    2                 GOTO NOTHING_2_DELETE;
      431     3394                   %GETKEY (KEY=DEL@RANGE.ENDD.KEY, INDX="%(LVL_EXT_REC-1)",
      432     3395                   PTR=RANGE_KEY$);

   3402  0 000271   200017 724100                    LXL4    DEL@RANGE+9,,AUTO
         0 000272   000002 104003                    CMPX4   2,DU
         0 000273   000300 601000 0                  TNZ     s:3402+7

   3402  0 000274   200020 236100                    LDQ     DEL@RANGE+10,,AUTO
         0 000275   000002 036003                    ADLQ    2,DU
         0 000276   200102 756100                    STQ     RANGE_KEY$,,AUTO
         0 000277   000302 710000 0                  TRA     s:3405

   3402  0 000300   200020 634500                    EPPR4   DEL@RANGE+10,,AUTO
         0 000301   200102 454500                    STP4    RANGE_KEY$,,AUTO

      433     3405    2              IF STREAM$KEY.BYTES >= RANGE$KEY.BYTES THEN

   3405  0 000302   200102 473500                    LDP3    RANGE_KEY$,,AUTO
         0 000303   300000 236100                    LDQ     0,,PR3
         0 000304   000033 772000                    QRL     27
         0 000305   000000 623006                    EAX3    0,QL
         0 000306   040140 106540                    CMPC    fill='040'O
         0 000307   100000 200012                    ADSC9   0,,PR1                   cn=1,n=*X2
PL6.E3A0      #002=VDI$BDELETE File=VDI$BLOCK.:VDA5TSI                           FRI 07/04/97 11:28 Page:75
         0 000310   300000 200013                    ADSC9   0,,PR3                   cn=1,n=*X3
         0 000311   000722 603000 0                  TRC     NOTHING_2_DELETE

      434     3406    2                 GOTO NOTHING_2_DELETE;
      435     3407                   %CLEARKEY (KEY=DEL@RANGE.ENDD.KEY, INDX="%(LVL_EXT_REC-1)");

   3414  0 000312   000002 104003                    CMPX4   2,DU
         0 000313   000322 601000 0                  TNZ     s:3415+1

   3414  0 000314   200020 630500                    EPPR0   DEL@RANGE+10,,AUTO
         0 000315   000017 631400 xsym               EPPR1   B_VECTNIL+15
         0 000316   000000 701000 xent               TSX1    VDG$OFREE
         0 000317   000321 702000 0                  TSX2    s:3415
         0 000320   000322 710000 0                  TRA     s:3415+1

   3415  0 000321   000000 702200 xent               TSX2  ! X66_AALT

   3415  0 000322   200017 450100                    STZ     DEL@RANGE+9,,AUTO
         0 000323   200020 450100                    STZ     DEL@RANGE+10,,AUTO

      436     3417                   %COPYKEY (FKEY=DEL_STREAM.CURRENT.KEY, FINDX="%(LVL_EXT_REC-1)",
      437     3418                   TKEY=DEL@RANGE.ENDD.KEY, TINDX="%(LVL_EXT_REC-1)");

   3431  0 000324   200004 470500                    LDP0    @DEL_STREAM,,AUTO
         0 000325   000100 100500                    MLR     fill='000'O
         0 000326   000006 000010                    ADSC9   6,,PR0                   cn=0,n=8
         0 000327   200017 000010                    ADSC9   DEL@RANGE+9,,AUTO        cn=0,n=8

   3431  0 000330   000006 720100                    LXL0    6,,PR0
         0 000331   000002 100003                    CMPX0   2,DU
         0 000332   000345 601000 0                  TNZ     s:3435

   3431  0 000333   000007 471500                    LDP1    7,,PR0
         0 000334   200020 633500                    EPPR3   DEL@RANGE+10,,AUTO
         0 000335   200135 453500                    STP3    POS+18,,AUTO
         0 000336   200134 451500                    STP1    POS+17,,AUTO
         0 000337   200134 630500                    EPPR0   POS+17,,AUTO
PL6.E3A0      #002=VDI$BDELETE File=VDI$BLOCK.:VDA5TSI                           FRI 07/04/97 11:28 Page:76
         0 000340   000020 631400 xsym               EPPR1   B_VECTNIL+16
         0 000341   000000 701000 xent               TSX1    VDG$OCOPY
         0 000342   000344 702000 0                  TSX2    s:3432
         0 000343   000345 710000 0                  TRA     s:3435

   3432  0 000344   000000 702200 xent               TSX2  ! X66_AALT

      438     3434
      439     3435    2              CALL VDA$LDELETE (DEL_STREAM, DEL@RANGE)

   3435  0 000345   200006 630500                    EPPR0   DEL@RANGE,,AUTO
         0 000346   200135 450500                    STP0    POS+18,,AUTO
         0 000347   200004 236100                    LDQ     @DEL_STREAM,,AUTO
         0 000350   200134 756100                    STQ     POS+17,,AUTO
         0 000351   200134 630500                    EPPR0   POS+17,,AUTO
         0 000352   000020 631400 xsym               EPPR1   B_VECTNIL+16
         0 000353   000000 701000 xent               TSX1    VDA$LDELETE
         0 000354   000764 702000 0                  TSX2    BTYPE_FAILED

      440     3436    2                ALTRET (LDELETE_FAILED);
      441     3437    2              GOTO LDELETED;

   3437  0 000355   000716 710000 0                  TRA     LDELETED

      442     3438
      443     3439    2            CASE (%BDT_2_REC_SPOS_0_EPOS_NON, %BDT_BOF_EPOS_NON);

      444     3440    2              LOC2 = DEL@RANGE.ENDD;

   3440  0 000356   000100 100500                    MLR     fill='000'O
         0 000357   200017 000044                    ADSC9   DEL@RANGE+9,,AUTO        cn=0,n=36
         0 000360   200062 000044                    ADSC9   LOC2,,AUTO               cn=0,n=36

      445     3441    2              GET_LOC1 = %FALSE;

   3441  0 000361   200074 450100                    STZ     GET_LOC1,,AUTO

PL6.E3A0      #002=VDI$BDELETE File=VDI$BLOCK.:VDA5TSI                           FRI 07/04/97 11:28 Page:77
      446     3442    2              GET_LOC2 = %TRUE;

   3442  0 000362   400000 236003                    LDQ     -131072,DU
         0 000363   200076 756100                    STQ     GET_LOC2,,AUTO
         0 000364   000416 710000 0                  TRA     s:3464

      447     3443
      448     3444    2            CASE (%BDT_2_REC_POS_NON, %BDT_2_REC_SPOS_NON_EPOS_0);

      449     3445    2              LOC1 = DEL@RANGE.START;

   3445  0 000365   000100 100500                    MLR     fill='000'O
         0 000366   200006 000044                    ADSC9   DEL@RANGE,,AUTO          cn=0,n=36
         0 000367   200051 000044                    ADSC9   LOC1,,AUTO               cn=0,n=36

      450     3446    2              LOC2 = DEL@RANGE.ENDD;

   3446  0 000370   000100 100500                    MLR     fill='000'O
         0 000371   200017 000044                    ADSC9   DEL@RANGE+9,,AUTO        cn=0,n=36
         0 000372   200062 000044                    ADSC9   LOC2,,AUTO               cn=0,n=36

      451     3447    2              GET_LOC1 = %TRUE;

   3447  0 000373   400000 236003                    LDQ     -131072,DU
         0 000374   200074 756100                    STQ     GET_LOC1,,AUTO

      452     3448    2              GET_LOC2 = %TRUE;

   3448  0 000375   200076 756100                    STQ     GET_LOC2,,AUTO
         0 000376   000416 710000 0                  TRA     s:3464

      453     3449
      454     3450    2            CASE (%BDT_1_REC_POS_NON, %BDT_1_REC_SPOS_0_EPOS_NON);

      455     3451    2              LOC1 = DEL@RANGE.ENDD;

   3451  0 000377   000100 100500                    MLR     fill='000'O
PL6.E3A0      #002=VDI$BDELETE File=VDI$BLOCK.:VDA5TSI                           FRI 07/04/97 11:28 Page:78
         0 000400   200017 000044                    ADSC9   DEL@RANGE+9,,AUTO        cn=0,n=36
         0 000401   200051 000044                    ADSC9   LOC1,,AUTO               cn=0,n=36

      456     3452    2              GET_LOC1 = %TRUE;

   3452  0 000402   400000 236003                    LDQ     -131072,DU
         0 000403   200074 756100                    STQ     GET_LOC1,,AUTO

      457     3453    2              GET_LOC2 = %FALSE;

   3453  0 000404   200076 450100                    STZ     GET_LOC2,,AUTO

      458     3454    2              BNR_TYPE = %BNR_ON_1_REC;

   3454  0 000405   000001 235007                    LDA     1,DL
         0 000406   200034 755100                    STA     BNR_TYPE,,AUTO
         0 000407   000416 710000 0                  TRA     s:3464

      459     3455
      460     3456    2            CASE (%BDT_SPOS_NON_EOF);

      461     3457    2              LOC1 = DEL@RANGE.START;

   3457  0 000410   000100 100500                    MLR     fill='000'O
         0 000411   200006 000044                    ADSC9   DEL@RANGE,,AUTO          cn=0,n=36
         0 000412   200051 000044                    ADSC9   LOC1,,AUTO               cn=0,n=36

      462     3458    2              GET_LOC1 = %TRUE;

   3458  0 000413   400000 236003                    LDQ     -131072,DU
         0 000414   200074 756100                    STQ     GET_LOC1,,AUTO

      463     3459    2              GET_LOC2 = %FALSE;

   3459  0 000415   200076 450100                    STZ     GET_LOC2,,AUTO

      464     3460
PL6.E3A0      #002=VDI$BDELETE File=VDI$BLOCK.:VDA5TSI                           FRI 07/04/97 11:28 Page:79
      465     3461    2            END BDT_CASES;

      466     3462
      467     3463
      468     3464    2           IF GET_LOC1 THEN DO;

   3464  0 000416   200074 234100                    SZN     GET_LOC1,,AUTO
         0 000417   000432 605000 0                  TPL     s:3469

      469     3465    2              CALL GET_RECORD (LOC1, SAVE_REC1, LOC1_EXISTS, %TRUE)

   3465  0 000420   000003 236000 1                  LDQ     3
         0 000421   200110 756100                    STQ     @RECORD_EXISTS+1,,AUTO
         0 000422   200073 630500                    EPPR0   LOC1_EXISTS,,AUTO
         0 000423   200107 450500                    STP0    @RECORD+1,,AUTO
         0 000424   200035 631500                    EPPR1   SAVE_REC1,,AUTO
         0 000425   200106 451500                    STP1    XLATE$LOC+1,,AUTO
         0 000426   200051 633500                    EPPR3   LOC1,,AUTO
         0 000427   200105 453500                    STP3    RANGE_KEY$+3,,AUTO
         0 000430   000765 701000 0                  TSX1    GET_RECORD
         0 000431   000764 702000 0                  TSX2    BTYPE_FAILED

      470     3466    2                ALTRET (GET_RECORD_FAILED);
      471     3467    2              END;

      472     3468
      473     3469    2           IF GET_LOC2 THEN DO;

   3469  0 000432   200076 234100                    SZN     GET_LOC2,,AUTO
         0 000433   000513 605000 0                  TPL     s:3507

      474     3470    2              IF LOC1_EXISTS AND LOC1.POSITION# ~= 0 THEN

   3470  0 000434   200073 234100                    SZN     LOC1_EXISTS,,AUTO
         0 000435   000442 605000 0                  TPL     s:3473
         0 000436   200061 220100                    LDX0    LOC1+8,,AUTO
         0 000437   000442 600000 0                  TZE     s:3473
PL6.E3A0      #002=VDI$BDELETE File=VDI$BLOCK.:VDA5TSI                           FRI 07/04/97 11:28 Page:80

      475     3471    2                 READ_ONLY_IF_EXISTS = %FALSE;

   3471  0 000440   200100 450100                    STZ     READ_ONLY_IF_EXISTS,,AUTO
         0 000441   000444 710000 0                  TRA     s:3474

      476     3472    2              ELSE
      477     3473    2                 READ_ONLY_IF_EXISTS = %TRUE;

   3473  0 000442   400000 236003                    LDQ     -131072,DU
         0 000443   200100 756100                    STQ     READ_ONLY_IF_EXISTS,,AUTO

      478     3474    2              CALL GET_RECORD (LOC2, SAVE_REC2, LOC2_EXISTS, READ_ONLY_IF_EXISTS)

   3474  0 000444   200100 630500                    EPPR0   READ_ONLY_IF_EXISTS,,AUTO
         0 000445   200110 450500                    STP0    @RECORD_EXISTS+1,,AUTO
         0 000446   200075 631500                    EPPR1   LOC2_EXISTS,,AUTO
         0 000447   200107 451500                    STP1    @RECORD+1,,AUTO
         0 000450   200043 633500                    EPPR3   SAVE_REC2,,AUTO
         0 000451   200106 453500                    STP3    XLATE$LOC+1,,AUTO
         0 000452   200062 634500                    EPPR4   LOC2,,AUTO
         0 000453   200105 454500                    STP4    RANGE_KEY$+3,,AUTO
         0 000454   000765 701000 0                  TSX1    GET_RECORD
         0 000455   000764 702000 0                  TSX2    BTYPE_FAILED

      479     3475    2                ALTRET (GET_RECORD_FAILED);
      480     3476    3              IF LOC2_EXISTS THEN DO;

   3476  0 000456   200075 234100                    SZN     LOC2_EXISTS,,AUTO
         0 000457   000513 605000 0                  TPL     s:3507

      481     3477                      %CLEARKEY (KEY=DEL@RANGE.ENDD.KEY, INDX="%(LVL_EXT_REC-1)");

   3484  0 000460   200017 720100                    LXL0    DEL@RANGE+9,,AUTO
         0 000461   000002 100003                    CMPX0   2,DU
         0 000462   000471 601000 0                  TNZ     s:3485+1

PL6.E3A0      #002=VDI$BDELETE File=VDI$BLOCK.:VDA5TSI                           FRI 07/04/97 11:28 Page:81
   3484  0 000463   200020 630500                    EPPR0   DEL@RANGE+10,,AUTO
         0 000464   000017 631400 xsym               EPPR1   B_VECTNIL+15
         0 000465   000000 701000 xent               TSX1    VDG$OFREE
         0 000466   000470 702000 0                  TSX2    s:3485
         0 000467   000471 710000 0                  TRA     s:3485+1

   3485  0 000470   000000 702200 xent               TSX2  ! X66_AALT

   3485  0 000471   200017 450100                    STZ     DEL@RANGE+9,,AUTO
         0 000472   200020 450100                    STZ     DEL@RANGE+10,,AUTO

      482     3487                      %COPYKEY (FKEY=SAVE_REC2.KEY,
      483     3488                      TKEY=DEL@RANGE.ENDD.KEY, TINDX="%(LVL_EXT_REC-1)");

   3501  0 000473   000100 100500                    MLR     fill='000'O
         0 000474   200043 000010                    ADSC9   SAVE_REC2,,AUTO          cn=0,n=8
         0 000475   200017 000010                    ADSC9   DEL@RANGE+9,,AUTO        cn=0,n=8

   3501  0 000476   200043 720100                    LXL0    SAVE_REC2,,AUTO
         0 000477   000002 100003                    CMPX0   2,DU
         0 000500   000513 601000 0                  TNZ     s:3507

   3501  0 000501   200020 630500                    EPPR0   DEL@RANGE+10,,AUTO
         0 000502   200135 450500                    STP0    POS+18,,AUTO
         0 000503   200044 236100                    LDQ     SAVE_REC2+1,,AUTO
         0 000504   200134 756100                    STQ     POS+17,,AUTO
         0 000505   200134 630500                    EPPR0   POS+17,,AUTO
         0 000506   000020 631400 xsym               EPPR1   B_VECTNIL+16
         0 000507   000000 701000 xent               TSX1    VDG$OCOPY
         0 000510   000512 702000 0                  TSX2    s:3502
         0 000511   000513 710000 0                  TRA     s:3507

   3502  0 000512   000000 702200 xent               TSX2  ! X66_AALT

      484     3504    3                 END;

      485     3505    2              END;
PL6.E3A0      #002=VDI$BDELETE File=VDI$BLOCK.:VDA5TSI                           FRI 07/04/97 11:28 Page:82

      486     3506
      487     3507    1           IF GET_LOC1 AND NOT LOC1_EXISTS THEN

   3507  0 000513   200074 234100                    SZN     GET_LOC1,,AUTO
         0 000514   000562 605000 0                  TPL     s:3528
         0 000515   200073 234100                    SZN     LOC1_EXISTS,,AUTO
         0 000516   000562 604000 0                  TMI     s:3528

      488     3508    2           DO CASE (BDT_CODE);

   3508  0 000517   200033 235100                    LDA     BDT_CODE,,AUTO
         0 000520   000012 115007                    CMPA    10,DL
         0 000521   000523 602005 0                  TNC     s:3508+4,AL
         0 000522   000562 710000 0                  TRA     s:3528
         0 000523   000562 710000 0                  TRA     s:3528
         0 000524   000535 710000 0                  TRA     s:3511
         0 000525   000535 710000 0                  TRA     s:3511
         0 000526   000562 710000 0                  TRA     s:3528
         0 000527   000562 710000 0                  TRA     s:3528
         0 000530   000561 710000 0                  TRA     s:3523
         0 000531   000562 710000 0                  TRA     s:3528
         0 000532   000561 710000 0                  TRA     s:3523
         0 000533   000562 710000 0                  TRA     s:3528
         0 000534   000550 710000 0                  TRA     s:3518

      489     3509
      490     3510    2            CASE (%BDT_2_REC_POS_NON, %BDT_2_REC_SPOS_NON_EPOS_0);

      491     3511    3              IF NOT LOC2_EXISTS THEN DO;

   3511  0 000535   200075 234100                    SZN     LOC2_EXISTS,,AUTO
         0 000536   000562 604000 0                  TMI     s:3528

      492     3512    3                 CALL VDA$LDELETE (DEL_STREAM, DEL@RANGE)

   3512  0 000537   200006 630500                    EPPR0   DEL@RANGE,,AUTO
PL6.E3A0      #002=VDI$BDELETE File=VDI$BLOCK.:VDA5TSI                           FRI 07/04/97 11:28 Page:83
         0 000540   200135 450500                    STP0    POS+18,,AUTO
         0 000541   200004 236100                    LDQ     @DEL_STREAM,,AUTO
         0 000542   200134 756100                    STQ     POS+17,,AUTO
         0 000543   200134 630500                    EPPR0   POS+17,,AUTO
         0 000544   000020 631400 xsym               EPPR1   B_VECTNIL+16
         0 000545   000000 701000 xent               TSX1    VDA$LDELETE
         0 000546   000764 702000 0                  TSX2    BTYPE_FAILED

      493     3513    3                   ALTRET (LDELETE_FAILED);
      494     3514    3                 GOTO LDELETED;

   3514  0 000547   000716 710000 0                  TRA     LDELETED

      495     3515    3                 END;
      496     3516
      497     3517    2            CASE (%BDT_SPOS_NON_EOF);

      498     3518    2              CALL VDA$LDELETE (DEL_STREAM, DEL@RANGE)

   3518  0 000550   200006 630500                    EPPR0   DEL@RANGE,,AUTO
         0 000551   200135 450500                    STP0    POS+18,,AUTO
         0 000552   200004 236100                    LDQ     @DEL_STREAM,,AUTO
         0 000553   200134 756100                    STQ     POS+17,,AUTO
         0 000554   200134 630500                    EPPR0   POS+17,,AUTO
         0 000555   000020 631400 xsym               EPPR1   B_VECTNIL+16
         0 000556   000000 701000 xent               TSX1    VDA$LDELETE
         0 000557   000764 702000 0                  TSX2    BTYPE_FAILED

      499     3519    2                ALTRET (LDELETE_FAILED);
      500     3520    2              GOTO LDELETED;

   3520  0 000560   000716 710000 0                  TRA     LDELETED

      501     3521
      502     3522    2            CASE (%BDT_1_REC_POS_NON, %BDT_1_REC_SPOS_0_EPOS_NON);

      503     3523    2              GOTO NONE_2_DELETE;
PL6.E3A0      #002=VDI$BDELETE File=VDI$BLOCK.:VDA5TSI                           FRI 07/04/97 11:28 Page:84

   3523  0 000561   000763 710000 0                  TRA     NONE_2_DELETE

      504     3524
      505     3525    2            END;  /* Do Case */

      506     3526
      507     3527
      508     3528    1           IF GET_LOC2 AND NOT LOC2_EXISTS THEN

   3528  0 000562   200076 234100                    SZN     GET_LOC2,,AUTO
         0 000563   000622 605000 0                  TPL     s:3538
         0 000564   200075 234100                    SZN     LOC2_EXISTS,,AUTO
         0 000565   000622 604000 0                  TMI     s:3538

      509     3529    2           DO CASE (BDT_CODE);

   3529  0 000566   200033 235100                    LDA     BDT_CODE,,AUTO
         0 000567   000017 115007                    CMPA    15,DL
         0 000570   000572 602005 0                  TNC     s:3529+4,AL
         0 000571   000622 710000 0                  TRA     s:3538
         0 000572   000622 710000 0                  TRA     s:3538
         0 000573   000622 710000 0                  TRA     s:3538
         0 000574   000622 710000 0                  TRA     s:3538
         0 000575   000611 710000 0                  TRA     s:3532
         0 000576   000622 710000 0                  TRA     s:3538
         0 000577   000622 710000 0                  TRA     s:3538
         0 000600   000622 710000 0                  TRA     s:3538
         0 000601   000622 710000 0                  TRA     s:3538
         0 000602   000622 710000 0                  TRA     s:3538
         0 000603   000622 710000 0                  TRA     s:3538
         0 000604   000622 710000 0                  TRA     s:3538
         0 000605   000622 710000 0                  TRA     s:3538
         0 000606   000622 710000 0                  TRA     s:3538
         0 000607   000622 710000 0                  TRA     s:3538
         0 000610   000611 710000 0                  TRA     s:3532

PL6.E3A0      #002=VDI$BDELETE File=VDI$BLOCK.:VDA5TSI                           FRI 07/04/97 11:28 Page:85
      510     3530
      511     3531    2            CASE (%BDT_2_REC_SPOS_0_EPOS_NON, %BDT_BOF_EPOS_NON);

      512     3532    2              CALL VDA$LDELETE (DEL_STREAM, DEL@RANGE)

   3532  0 000611   200006 630500                    EPPR0   DEL@RANGE,,AUTO
         0 000612   200135 450500                    STP0    POS+18,,AUTO
         0 000613   200004 236100                    LDQ     @DEL_STREAM,,AUTO
         0 000614   200134 756100                    STQ     POS+17,,AUTO
         0 000615   200134 630500                    EPPR0   POS+17,,AUTO
         0 000616   000020 631400 xsym               EPPR1   B_VECTNIL+16
         0 000617   000000 701000 xent               TSX1    VDA$LDELETE
         0 000620   000764 702000 0                  TSX2    BTYPE_FAILED

      513     3533    2                ALTRET (LDELETE_FAILED);
      514     3534    2              GOTO LDELETED;

   3534  0 000621   000716 710000 0                  TRA     LDELETED

      515     3535    2            END;  /* Do Case */

      516     3536
      517     3537
      518     3538    2           IF BNR_TYPE = %BNR_ON_2_RECS THEN DO;

   3538  0 000622   200034 235100                    LDA     BNR_TYPE,,AUTO
         0 000623   000002 115007                    CMPA    2,DL
         0 000624   000635 601000 0                  TNZ     s:3543

      519     3539    2              S_POS = LOC1.POSITION#;

   3539  0 000625   200061 236100                    LDQ     LOC1+8,,AUTO
         0 000626   000022 732000                    QRS     18
         0 000627   200031 756100                    STQ     S_POS,,AUTO

      520     3540    2              E_POS = LOC2.POSITION#;

PL6.E3A0      #002=VDI$BDELETE File=VDI$BLOCK.:VDA5TSI                           FRI 07/04/97 11:28 Page:86
   3540  0 000630   200072 235100                    LDA     LOC2+8,,AUTO
         0 000631   000022 731000                    ARS     18
         0 000632   200030 755100                    STA     E_POS,,AUTO

      521     3541    2              DEL@RANGE.ENDD.POSITION# = LOC2.POSITION#;

   3541  0 000633   000000 620005                    EAX0    0,AL
         0 000634   200027 740100                    STX0    DEL@RANGE+17,,AUTO

      522     3542    2              END;

      523     3543    1           CALL VDG$BUILD_NEW_REC (BNR_TYPE, SAVE_REC1, S_POS, SAVE_REC2, E_POS)

   3543  0 000635   200030 630500                    EPPR0   E_POS,,AUTO
         0 000636   200140 450500                    STP0    POS+21,,AUTO
         0 000637   200043 631500                    EPPR1   SAVE_REC2,,AUTO
         0 000640   200137 451500                    STP1    POS+20,,AUTO
         0 000641   200031 633500                    EPPR3   S_POS,,AUTO
         0 000642   200136 453500                    STP3    POS+19,,AUTO
         0 000643   200035 634500                    EPPR4   SAVE_REC1,,AUTO
         0 000644   200135 454500                    STP4    POS+18,,AUTO
         0 000645   200034 635500                    EPPR5   BNR_TYPE,,AUTO
         0 000646   200134 455500                    STP5    POS+17,,AUTO
         0 000647   200134 630500                    EPPR0   POS+17,,AUTO
         0 000650   000023 631400 xsym               EPPR1   B_VECTNIL+19
         0 000651   000000 701000 xent               TSX1    VDG$BUILD_NEW_REC
         0 000652   000764 702000 0                  TSX2    BTYPE_FAILED

      524     3544    1             ALTRET (BUILD_NEW_REC_FAILED);
      525     3545
      526     3546
      527     3547                /* Set up the deletes */
      528     3548
      529     3549    1           VD_$RECORDS_DELETED.V# = 0;

   3549  0 000653   000003 450000 xsym               STZ     VD_$RECORDS_DELETED+3

PL6.E3A0      #002=VDI$BDELETE File=VDI$BLOCK.:VDA5TSI                           FRI 07/04/97 11:28 Page:87
      530     3550    2           IF BNR_TYPE ~= %BNR_ON_1_REC THEN DO;

   3550  0 000654   200034 235100                    LDA     BNR_TYPE,,AUTO
         0 000655   000001 115007                    CMPA    1,DL
         0 000656   000675 600000 0                  TZE     s:3558

      531     3551    2              IF NOT LOC2_EXISTS THEN /* Tell COVER if eof boundary is gone */

   3551  0 000657   200075 234100                    SZN     LOC2_EXISTS,,AUTO
         0 000660   000663 604000 0                  TMI     s:3553

      532     3552    2                 VD_EOF_DELETED = MY_EOF_DELETED;

   3552  0 000661   200077 236100                    LDQ     MY_EOF_DELETED,,AUTO
         0 000662   000000 756000 xsym               STQ     VD_EOF_DELETED

      533     3553    2              CALL VDA$LDELETE (DEL_STREAM, DEL@RANGE)

   3553  0 000663   200006 630500                    EPPR0   DEL@RANGE,,AUTO
         0 000664   200135 450500                    STP0    POS+18,,AUTO
         0 000665   200004 236100                    LDQ     @DEL_STREAM,,AUTO
         0 000666   200134 756100                    STQ     POS+17,,AUTO
         0 000667   200134 630500                    EPPR0   POS+17,,AUTO
         0 000670   000020 631400 xsym               EPPR1   B_VECTNIL+16
         0 000671   000000 701000 xent               TSX1    VDA$LDELETE
         0 000672   000764 702000 0                  TSX2    BTYPE_FAILED

      534     3554    2                ALTRET (LDELETE_FAILED);
      535     3555    2              VD_$RECORDS_DELETED.V# = VD_$RECORDS_DELETED.V# - 1;

   3555  0 000673   000001 336007                    LCQ     1,DL
         0 000674   000003 056000 xsym               ASQ     VD_$RECORDS_DELETED+3

      536     3556    2              END;

      537     3557
      538     3558    1           CALL VDE$RPUT (DEL_STREAM, EDIT_BLOCK.RANGE, EDIT_BLOCK.OPTIONS,
PL6.E3A0      #002=VDI$BDELETE File=VDI$BLOCK.:VDA5TSI                           FRI 07/04/97 11:28 Page:88

   3558  0 000675   000004 236000 1                  LDQ     4
         0 000676   200140 756100                    STQ     POS+21,,AUTO
         0 000677   200035 630500                    EPPR0   SAVE_REC1,,AUTO
         0 000700   200137 450500                    STP0    POS+20,,AUTO
         0 000701   200005 236100                    LDQ     @EDIT_BLOCK,,AUTO
         0 000702   000025 036003                    ADLQ    21,DU
         0 000703   200136 756100                    STQ     POS+19,,AUTO
         0 000704   200005 236100                    LDQ     @EDIT_BLOCK,,AUTO
         0 000705   000003 036003                    ADLQ    3,DU
         0 000706   200004 235100                    LDA     @DEL_STREAM,,AUTO
         0 000707   200134 757100                    STAQ    POS+17,,AUTO
         0 000710   200134 630500                    EPPR0   POS+17,,AUTO
         0 000711   000023 631400 xsym               EPPR1   B_VECTNIL+19
         0 000712   000000 701000 xent               TSX1    VDE$RPUT
         0 000713   000764 702000 0                  TSX2    BTYPE_FAILED

      539     3559    1             SAVE_REC1, %SQ_CURRENT)
      540     3560    1             ALTRET (RPUT_FAILED);
      541     3561    1           CALL XLATE_LOCATIONS;

   3561  0 000714   001142 701000 0                  TSX1    XLATE_LOCATIONS
         0 000715   000000 011000                    NOP     0

   3559  0 000716                       LDELETED     null
      542     3562
      543     3563    1   LDELETED: ;
      544     3564    1           IF VD_$RECORDS_DELETED.V# = 0 THEN

   3564  0 000716   000003 235000 xsym               LDA     VD_$RECORDS_DELETED+3
         0 000717   000722 601000 0                  TNZ     NOTHING_2_DELETE

      545     3565        /* If LDELETE deleted no records, fix up the reported value. */
      546     3566    1              VD_$RECORDS_DELETED.V# = -1;

   3566  0 000720   000001 336007                    LCQ     1,DL
         0 000721   000003 756000 xsym               STQ     VD_$RECORDS_DELETED+3
PL6.E3A0      #002=VDI$BDELETE File=VDI$BLOCK.:VDA5TSI                           FRI 07/04/97 11:28 Page:89

      547     3567
      548     3568    1   NOTHING_2_DELETE:
      549     3569    1           CALL VDG$OFREE (SAVE_REC1_BUF)

   3569  0 000722   200041 630500       NOTHING_2_D* EPPR0   SAVE_REC1+4,,AUTO
         0 000723   000017 631400 xsym               EPPR1   B_VECTNIL+15
         0 000724   000000 701000 xent               TSX1    VDG$OFREE
         0 000725   000764 702000 0                  TSX2    BTYPE_FAILED

      550     3570    1             ALTRET (OFREE_FAILED);
      551     3571    1           SAVE_REC1.DATA$ = ADDR(NIL);

   3571  0 000726   000001 236000 xsym               LDQ     B_VECTNIL+1
         0 000727   200041 756100                    STQ     SAVE_REC1+4,,AUTO

      552     3572    1           CALL VDG$OFREE (SAVE_REC2_BUF)

   3572  0 000730   200047 630500                    EPPR0   SAVE_REC2+4,,AUTO
         0 000731   000017 631400 xsym               EPPR1   B_VECTNIL+15
         0 000732   000000 701000 xent               TSX1    VDG$OFREE
         0 000733   000764 702000 0                  TSX2    BTYPE_FAILED

      553     3573    1             ALTRET (OFREE_FAILED);
      554     3574    1           SAVE_REC2.DATA$ = ADDR(NIL);

   3574  0 000734   000001 236000 xsym               LDQ     B_VECTNIL+1
         0 000735   200047 756100                    STQ     SAVE_REC2+4,,AUTO

      555     3575
      556     3576                /*
      557     3577                *   Need to shrink down the range descriptor down to one point.
      558     3578                */
      559     3579
      560     3580    1           CALL VDG$OCLEAR_LOCATION (DEL_RANGE.ENDD)

   3580  0 000736   200003 236100                    LDQ     @DEL_RANGE,,AUTO
PL6.E3A0      #002=VDI$BDELETE File=VDI$BLOCK.:VDA5TSI                           FRI 07/04/97 11:28 Page:90
         0 000737   000011 036003                    ADLQ    9,DU
         0 000740   200134 756100                    STQ     POS+17,,AUTO
         0 000741   200134 630500                    EPPR0   POS+17,,AUTO
         0 000742   000017 631400 xsym               EPPR1   B_VECTNIL+15
         0 000743   000000 701000 xent               TSX1    VDG$OCLEAR_LOCATION
         0 000744   000764 702000 0                  TSX2    BTYPE_FAILED

      561     3581    1             ALTRET (OCLEAR_LOCATION_FAILED);
      562     3582    1           CALL VDG$OCOPY_LOCATION (DEL_RANGE.START, DEL_RANGE.ENDD)

   3582  0 000745   200003 236100                    LDQ     @DEL_RANGE,,AUTO
         0 000746   000011 036003                    ADLQ    9,DU
         0 000747   200003 235100                    LDA     @DEL_RANGE,,AUTO
         0 000750   200134 757100                    STAQ    POS+17,,AUTO
         0 000751   200134 630500                    EPPR0   POS+17,,AUTO
         0 000752   000020 631400 xsym               EPPR1   B_VECTNIL+16
         0 000753   000000 701000 xent               TSX1    VDG$OCOPY_LOCATION
         0 000754   000764 702000 0                  TSX2    BTYPE_FAILED

      563     3583    1             ALTRET (OCOPY_LOCATION_FAILED);
      564     3584
      565     3585    1           CALL VDG$OCLEAR_RANGE (DEL@RANGE);

   3585  0 000755   200006 630500                    EPPR0   DEL@RANGE,,AUTO
         0 000756   200134 450500                    STP0    POS+17,,AUTO
         0 000757   200134 630500                    EPPR0   POS+17,,AUTO
         0 000760   000017 631400 xsym               EPPR1   B_VECTNIL+15
         0 000761   000000 701000 xent               TSX1    VDG$OCLEAR_RANGE
         0 000762   000000 011000                    NOP     0

      566     3586    1   NONE_2_DELETE:
      567     3587    1           RETURN;

   3587  0 000763   000000 702200 xent  NONE_2_DELE* TSX2  ! X66_ARET

   3574  0 000764                       BTYPE_FAILED null
   3574  0 000764                       OCOPY_RANGE* null
PL6.E3A0      #002=VDI$BDELETE File=VDI$BLOCK.:VDA5TSI                           FRI 07/04/97 11:28 Page:91
      568     3588
      569     3589
      570     3590
      571     3591    1   BTYPE_FAILED: ;
      572     3592    1   OCOPY_RANGE_FAILED: ;
      573     3593    1   OCOPY_LOCATION_FAILED: ;

   3593  0 000764                       OCOPY_LOCAT* null
   3593  0 000764                       OCLEAR_LOCA* null
   3593  0 000764                       LDELETE_FAI* null
   3593  0 000764                       LREAD_FAILED null
   3593  0 000764                       RPUT_FAILED  null
   3593  0 000764                       OFREE_FAILED null
   3593  0 000764                       OALLOC_FAIL* null
   3593  0 000764                       GET_RECORD_* null
   3593  0 000764                       BUILD_NEW_R* null
      574     3594    1   OCLEAR_LOCATION_FAILED: ;
      575     3595    1   LDELETE_FAILED: ;
      576     3596    1   LREAD_FAILED: ;
      577     3597    1   RPUT_FAILED: ;
      578     3598    1   OFREE_FAILED: ;
      579     3599    1   OALLOC_FAILED: ;
      580     3600    1   GET_RECORD_FAILED: ;
      581     3601    1   BUILD_NEW_REC_FAILED: ;
      582     3602    1           ALTRETURN;

   3602  0 000764   000000 702200 xent               TSX2  ! X66_AALT

      583     3603
      584     3604
      585     3605                %BOX (TITLE=GET_RECORD, PAGE=YES);
              3613    1
              3617    1   /***************************************************************************
              3619    1    *                                                                         *
              3623    1            *                                 GET_RECORD                             *
              3625    1            *                                                                        *
              3627    1          ***************************************************************************/
PL6.E3A0      #002=VDI$BDELETE File=VDI$BLOCK.:VDA5TSI                           FRI 07/04/97 11:28 Page:92

      586     3631
      587     3632        /*I* NAME: GET_RECORD
      588     3633            PARAMETERS:
      589     3634                LOC - VD$LOCATION of record to get.
      590     3635                RECORD - Uninitialized VD$NODE_DESC.
      591     3636                RECORD_EXISTS - Uninitialized BIT(1) ALIGNED.
      592     3637                READ_ONLY_IF_EXISTS - BIT(1) ALIGNED; set if we only want to read the
      593     3638                   LOC record if it exists in the file.
      594     3639            INPUT:
      595     3640            OUTPUT:
      596     3641                RECORD_EXISTS will be set if the LOC key exists in the file.
      597     3642                RECORD will be %CLEAR if we didn't read the record; else will contain
      598     3643                    the LOC record or, if RECORD_EXISTS returned false, may contain
      599     3644                    the record following the LOC location.
      600     3645                    This record will be truncated/extended so that LOC.POSITION#
      601     3646                    is the exact length of LOC.DATA$'s buffer.
      602     3647                LOC - If the record doesn't exists, LOC.POSITION# will be set to
      603     3648                Thus, on any return, LOC.POSITION# will be the length of the LOC record.
      604     3649            DESCRIPTION:
      605     3650                Position the file to LOC; if the record doesn't exist, and
      606     3651                    READ_ONLY_IF_EXISTS is set, then return with RECORD = %CLEAR.
      607     3652                Else VDE$RGET the record, and VDE$RADJUST_LENGTH it to LOC.POSITION#'s
      608     3653                    value.
      609     3654        */
      610     3655
      611     3656    1   GET_RECORD: PROC (LOC, RECORD, RECORD_EXISTS, READ_ONLY_IF_EXISTS) ALTRET;

   3656  0 000765   200104 741300       GET_RECORD   STX1  ! RANGE_KEY$+2,,AUTO

      612     3657
      613     3658        %VD$LOCATION (NAME=LOC, STCLASS=PARAM);
      614     3686        %VD$NODE_DESC (NAME=RECORD, STCLASS=PARAM);
      615     3728    2   DCL RECORD_EXISTS BIT(1) ALIGNED;
      616     3729    2   DCL READ_ONLY_IF_EXISTS  BIT(1) ALIGNED;
      617     3730
      618     3731
PL6.E3A0      #002=VDI$BDELETE File=VDI$BLOCK.:VDA5TSI                           FRI 07/04/97 11:28 Page:93
      619     3732    2   DCL STREAM_KEY$ PTR;
      620     3733    2   DCL LOC_KEY$ PTR;
      621     3734    2   DCL POS UBIN;
      622     3735
      623     3736
      624     3737        %VD$BUFFER (NAME=RECORD_BUF, STCLASS="BASED(RECORD.DATA$)");
      625     3795        %VD$TEXTC (NAME=STREAM$KEY, STCLASS="BASED(STREAM_KEY$)");
      626     3818        %VD$TEXTC (NAME=LOC$KEY, STCLASS="BASED(LOC_KEY$)");
      627     3841        %VD$TEXTC_REMOTE;
      628     3902
      629     3903
      630     3904
      631     3905    2           RECORD_EXISTS = %TRUE;  /* Assume LOC record exists */

   3905  0 000766   400000 236003                    LDQ     -131072,DU
         0 000767   200107 470500                    LDP0    @RECORD_EXISTS,,AUTO
         0 000770   000000 756100                    STQ     0,,PR0

      632     3906    2           RECORD = %CLEAR;

   3906  0 000771   200106 471500                    LDP1    @RECORD,,AUTO
         0 000772   000100 100400                    MLR     fill='000'O
         0 000773   000002 000001 xsym               ADSC9   B_VECTNIL+2              cn=0,n=1
         0 000774   100000 000030                    ADSC9   0,,PR1                   cn=0,n=24

      633     3907    2           RECORD.DATA$ = ADDR(NIL);

   3907  0 000775   000001 236000 xsym               LDQ     B_VECTNIL+1
         0 000776   100004 756100                    STQ     4,,PR1

      634     3908
      635     3909    2           CALL VDA$LREAD (DEL_STREAM, LOC, 0, %TRUE)

   3909  0 000777   000006 237000 1                  LDAQ    6
         0 001000   200136 757100                    STAQ    POS+19,,AUTO
         0 001001   200105 236100                    LDQ     @LOC,,AUTO
         0 001002   200004 235100                    LDA     @DEL_STREAM,,AUTO
PL6.E3A0      #002=VDI$BDELETE File=VDI$BLOCK.:VDA5TSI                           FRI 07/04/97 11:28 Page:94
         0 001003   200134 757100                    STAQ    POS+17,,AUTO
         0 001004   200134 630500                    EPPR0   POS+17,,AUTO
         0 001005   000022 631400 xsym               EPPR1   B_VECTNIL+18
         0 001006   000000 701000 xent               TSX1    VDA$LREAD
         0 001007   001140 702000 0                  TSX2    LREAD_FAILED

      636     3910    2             ALTRET (LREAD_FAILED);
      637     3911    3           IF DEL_STREAM.CURRENT.EOF THEN DO;

   3911  0 001010   200004 470500                    LDP0    @DEL_STREAM,,AUTO
         0 001011   000016 236100                    LDQ     14,,PR0
         0 001012   400000 316007                    CANQ    -131072,DL
         0 001013   001023 600000 0                  TZE     s:3925

      638     3912    3              RECORD_EXISTS = %FALSE;

   3912  0 001014   200107 471500                    LDP1    @RECORD_EXISTS,,AUTO
         0 001015   100000 450100                    STZ     0,,PR1

      639     3913    3              LOC.POSITION# = 0;

   3913  0 001016   000000 220003                    LDX0    0,DU
         0 001017   200105 473500                    LDP3    @LOC,,AUTO
         0 001020   300010 740100                    STX0    8,,PR3

      640     3914    3              RETURN;

   3914  0 001021   200104 221300                    LDX1  ! RANGE_KEY$+2,,AUTO
         0 001022   000001 702211                    TSX2  ! 1,X1

      641     3915    3              END;
      642     3916
      643     3917                %GETKEY (KEY=DEL_STREAM.CURRENT.KEY, INDX="%(LVL_EXT_REC-1)",
      644     3918                PTR=STREAM_KEY$);

   3925  0 001023   000006 720100                    LXL0    6,,PR0
         0 001024   000002 100003                    CMPX0   2,DU
PL6.E3A0      #002=VDI$BDELETE File=VDI$BLOCK.:VDA5TSI                           FRI 07/04/97 11:28 Page:95
         0 001025   001032 601000 0                  TNZ     s:3925+7

   3925  0 001026   000007 471500                    LDP1    7,,PR0
         0 001027   100002 633500                    EPPR3   2,,PR1
         0 001030   200111 453500                    STP3    STREAM_KEY$,,AUTO
         0 001031   001035 710000 0                  TRA     s:3935

   3925  0 001032   200004 236100                    LDQ     @DEL_STREAM,,AUTO
         0 001033   000007 036003                    ADLQ    7,DU
         0 001034   200111 756100                    STQ     STREAM_KEY$,,AUTO

      645     3928                %GETKEY (KEY=LOC.KEY, INDX="%(LVL_EXT_REC-1)", PTR=LOC_KEY$);

   3935  0 001035   200105 471500                    LDP1    @LOC,,AUTO
         0 001036   100000 721100                    LXL1    0,,PR1
         0 001037   000002 101003                    CMPX1   2,DU
         0 001040   001045 601000 0                  TNZ     s:3935+8

   3935  0 001041   100001 473500                    LDP3    1,,PR1
         0 001042   300002 634500                    EPPR4   2,,PR3
         0 001043   200112 454500                    STP4    LOC_KEY$,,AUTO
         0 001044   001050 710000 0                  TRA     s:3938

   3935  0 001045   200105 236100                    LDQ     @LOC,,AUTO
         0 001046   000001 036003                    ADLQ    1,DU
         0 001047   200112 756100                    STQ     LOC_KEY$,,AUTO

      646     3938    3           IF STREAM$KEY.BYTES ~= LOC$KEY.BYTES THEN DO;

   3938  0 001050   200111 473500                    LDP3    STREAM_KEY$,,AUTO
         0 001051   300000 236100                    LDQ     0,,PR3
         0 001052   000033 772000                    QRL     27
         0 001053   200112 474500                    LDP4    LOC_KEY$,,AUTO
         0 001054   000000 622006                    EAX2    0,QL
         0 001055   400000 236100                    LDQ     0,,PR4
         0 001056   000033 772000                    QRL     27
         0 001057   000000 623006                    EAX3    0,QL
PL6.E3A0      #002=VDI$BDELETE File=VDI$BLOCK.:VDA5TSI                           FRI 07/04/97 11:28 Page:96
         0 001060   040140 106540                    CMPC    fill='040'O
         0 001061   300000 200012                    ADSC9   0,,PR3                   cn=1,n=*X2
         0 001062   400000 200013                    ADSC9   0,,PR4                   cn=1,n=*X3
         0 001063   001070 600000 0                  TZE     s:3943

      647     3939    3              RECORD_EXISTS = %FALSE;

   3939  0 001064   200107 475500                    LDP5    @RECORD_EXISTS,,AUTO
         0 001065   500000 450100                    STZ     0,,PR5

      648     3940    3              LOC.POSITION# = 0;

   3940  0 001066   000000 220003                    LDX0    0,DU
         0 001067   100010 740100                    STX0    8,,PR1

      649     3941    3              END;

      650     3942
      651     3943    2           IF RECORD_EXISTS OR NOT READ_ONLY_IF_EXISTS THEN

   3943  0 001070   200107 475500                    LDP5    @RECORD_EXISTS,,AUTO
         0 001071   500000 234100                    SZN     0,,PR5
         0 001072   001076 604000 0                  TMI     READ_THE_RECORD
         0 001073   200110 476500                    LDP6    @READ_ONLY_IF_EXISTS,,AUTO
         0 001074   600000 234100                    SZN     0,,PR6
         0 001075   001136 604000 0                  TMI     s:3955

      652     3944    3   READ_THE_RECORD: DO;

   3944  0 001076                       READ_THE_RE* null
      653     3945    3              CALL VDE$RGET (DEL_STREAM, EDIT_BLOCK.RANGE, RECORD)

   3945  0 001076   200106 236100                    LDQ     @RECORD,,AUTO
         0 001077   200136 756100                    STQ     POS+19,,AUTO
         0 001100   200005 236100                    LDQ     @EDIT_BLOCK,,AUTO
         0 001101   000003 036003                    ADLQ    3,DU
         0 001102   200004 235100                    LDA     @DEL_STREAM,,AUTO
PL6.E3A0      #002=VDI$BDELETE File=VDI$BLOCK.:VDA5TSI                           FRI 07/04/97 11:28 Page:97
         0 001103   200134 757100                    STAQ    POS+17,,AUTO
         0 001104   200134 630500                    EPPR0   POS+17,,AUTO
         0 001105   000021 631400 xsym               EPPR1   B_VECTNIL+17
         0 001106   000000 701000 xent               TSX1    VDE$RGET
         0 001107   001140 702000 0                  TSX2    LREAD_FAILED

      654     3946    3                ALTRET (RGET_FAILED);
      655     3947
      656     3948    3              POS = LOC.POSITION#; /* Need WORD for VDE$RADJUST_LENGTH call */

   3948  0 001110   200105 470500                    LDP0    @LOC,,AUTO
         0 001111   000010 236100                    LDQ     8,,PR0
         0 001112   000022 732000                    QRS     18
         0 001113   200113 756100                    STQ     POS,,AUTO

      657     3949    3              IF POS > RECORD_BUF.LENGTH# THEN

   3949  0 001114   200106 471500                    LDP1    @RECORD,,AUTO
         0 001115   100004 473500                    LDP3    4,,PR1
         0 001116   300002 236100                    LDQ     2,,PR3
         0 001117   000022 732000                    QRS     18
         0 001120   001123 604000 0                  TMI     s:3950
         0 001121   200113 116100                    CMPQ    POS,,AUTO
         0 001122   001133 603000 0                  TRC     s:3952

      658     3950    3                 CALL VDE$RADJUST_LENGTH (RECORD, POS)

   3950  0 001123   200113 634500                    EPPR4   POS,,AUTO
         0 001124   200135 454500                    STP4    POS+18,,AUTO
         0 001125   200106 236100                    LDQ     @RECORD,,AUTO
         0 001126   200134 756100                    STQ     POS+17,,AUTO
         0 001127   200134 630500                    EPPR0   POS+17,,AUTO
         0 001130   000020 631400 xsym               EPPR1   B_VECTNIL+16
         0 001131   000000 701000 xent               TSX1    VDE$RADJUST_LENGTH
         0 001132   001140 702000 0                  TSX2    LREAD_FAILED

      659     3951    3                   ALTRET (RADJUST_LEN_FAILED);
PL6.E3A0      #002=VDI$BDELETE File=VDI$BLOCK.:VDA5TSI                           FRI 07/04/97 11:28 Page:98
      660     3952    3              RECORD_EXISTS = %TRUE;

   3952  0 001133   400000 236003                    LDQ     -131072,DU
         0 001134   200107 470500                    LDP0    @RECORD_EXISTS,,AUTO
         0 001135   000000 756100                    STQ     0,,PR0

      661     3953    3              END READ_THE_RECORD;

      662     3954
      663     3955    2           RETURN;

   3955  0 001136   200104 221300                    LDX1  ! RANGE_KEY$+2,,AUTO
         0 001137   000001 702211                    TSX2  ! 1,X1

   3952  0 001140                       LREAD_FAILED null
   3952  0 001140                       RADJUST_LEN* null
   3952  0 001140                       RGET_FAILED  null
      664     3956
      665     3957
      666     3958    2   LREAD_FAILED: ;
      667     3959    2   RADJUST_LEN_FAILED: ;
      668     3960    2   RGET_FAILED: ;
      669     3961    2           ALTRETURN;

   3961  0 001140   200104 221300                    LDX1  ! RANGE_KEY$+2,,AUTO
         0 001141   000000 702211                    TSX2  ! 0,X1

      670     3962
      671     3963    2   END GET_RECORD;
      672     3964
      673     3965                %BOX (TITLE=XLATE_LOCATIONS, PAGE=YES);
              3973    2
              3977    2   /***************************************************************************
              3979    2    *                                                                         *
              3983    2            *                              XLATE_LOCATIONS                           *
              3985    2            *                                                                        *
              3987    2          ***************************************************************************/
PL6.E3A0      #002=VDI$BDELETE File=VDI$BLOCK.:VDA5TSI                           FRI 07/04/97 11:28 Page:99

      674     3991
      675     3992        /*I* NAME: XLATE_LOCATIONS
      676     3993            PARAMETERS:
      677     3994                None.
      678     3995            INPUT:
      679     3996            OUTPUT:
      680     3997            DESCRIPTION:
      681     3998        */
      682     3999
      683     4000    1   XLATE_LOCATIONS: PROC  ALTRET;

   4000  0 001142   200104 741300       XLATE_LOCAT* STX1  ! RANGE_KEY$+2,,AUTO

      684     4001
      685     4002
      686     4003        %VD$XLATE_LOCATIONS (NAME=XLATE$LOC, STCLASS=AUTO);
      687     4139
      688     4140    2           XLATE$LOC = %CLEAR;

   4140  0 001143   000100 100400                    MLR     fill='000'O
         0 001144   000002 000001 xsym               ADSC9   B_VECTNIL+2              cn=0,n=1
         0 001145   200105 000134                    ADSC9   XLATE$LOC,,AUTO          cn=0,n=92

      689     4141    2           XLATE$LOC.FILE_KEY = EDIT_BLOCK.FILE_KEY;

   4141  0 001146   200005 470500                    LDP0    @EDIT_BLOCK,,AUTO
         0 001147   000100 100500                    MLR     fill='000'O
         0 001150   000001 000010                    ADSC9   1,,PR0                   cn=0,n=8
         0 001151   200110 000010                    ADSC9   @READ_ONLY_IF_EXISTS,,AUTO cn=0,n=8

      690     4142    2           XLATE$LOC.FLINK$ = ADDR(NIL);

   4142  0 001152   000001 236000 xsym               LDQ     B_VECTNIL+1
         0 001153   200107 756100                    STQ     @RECORD_EXISTS,,AUTO

      691     4143    2           XLATE$LOC.LEVEL# = %LVL_EXT_REC;
PL6.E3A0      #002=VDI$BDELETE File=VDI$BLOCK.:VDA5TSI                           FRI 07/04/97 11:28 Page:100

   4143  0 001154   000001 220003                    LDX0    1,DU
         0 001155   200112 740100                    STX0    LOC_KEY$,,AUTO

      692     4144
      693     4145    3           DO CASE (BDT_CODE);

   4145  0 001156   200033 235100                    LDA     BDT_CODE,,AUTO
         0 001157   000021 115007                    CMPA    17,DL
         0 001160   001162 602005 0                  TNC     s:4145+4,AL
         0 001161   001211 710000 0                  TRA     s:4204
         0 001162   001211 710000 0                  TRA     s:4204
         0 001163   001211 710000 0                  TRA     s:4204
         0 001164   001206 710000 0                  TRA     s:4179
         0 001165   001211 710000 0                  TRA     s:4204
         0 001166   001203 710000 0                  TRA     s:4160
         0 001167   001211 710000 0                  TRA     s:4204
         0 001170   001211 710000 0                  TRA     s:4204
         0 001171   001211 710000 0                  TRA     s:4204
         0 001172   001211 710000 0                  TRA     s:4204
         0 001173   001203 710000 0                  TRA     s:4160
         0 001174   001203 710000 0                  TRA     s:4160
         0 001175   001211 710000 0                  TRA     s:4204
         0 001176   001211 710000 0                  TRA     s:4204
         0 001177   001211 710000 0                  TRA     s:4204
         0 001200   001211 710000 0                  TRA     s:4204
         0 001201   001203 710000 0                  TRA     s:4160
         0 001202   001203 710000 0                  TRA     s:4160

      694     4146
      695     4147    3            CASE (%BDT_SPOS_0_EOF,%BDT_BOF_EOF,%BDT_SPOS_NON_EOF,

      696     4148    3             %BDT_2_REC_POS_0,%BDT_BOF_EPOS_0);
      697     4149                   /*
      698     4150                   *   Block shape is:  a number of whole records:
      699     4151                   *     ----------------------------
      700     4152                   *     |                          |
PL6.E3A0      #002=VDI$BDELETE File=VDI$BLOCK.:VDA5TSI                           FRI 07/04/97 11:28 Page:101
      701     4153                   *     |                          |
      702     4154                   *     ----------------------------
      703     4155                   *   or: partial record to EOF.
      704     4156                   *   At this point, DEL@RANGE.ENDD contains the last key
      705     4157                   *     actually deleted, not (as you might expect) the
      706     4158                   *     key just beyond the last key deleted.
      707     4159                   */
      708     4160    3              DEL@RANGE.ENDD.POSITION# = %HALF_INFINITY;

   4160  0 001203   377777 222003                    LDX2    131071,DU
         0 001204   200027 742100                    STX2    DEL@RANGE+17,,AUTO
         0 001205   001211 710000 0                  TRA     s:4204

      709     4161    3            CASE (%BDT_2_REC_SPOS_NON_EPOS_0);

      710     4162                   /*
      711     4163                   *  Block shape is:  partial record at start, # whole records.
      712     4164                   *                     ------------
      713     4165                   *                     |          |
      714     4166                   *     -----------------          |
      715     4167                   *     |                          |
      716     4168                   *     ----------------------------
      717     4169                   *   At this point:
      718     4170                   *   For BDT_2REC_SPOS_NON_EPOS_0, DEL@RANGE.ENDD is
      719     4171                   *     basically unchanged.  However, the record it refers
      720     4172                   *     to (which is one beyond the last record the
      721     4173                   *     user requested us to delete) has been moved and
      722     4174                   *     "pasted" onto the SAVE_REC1.KEY record (basically,
      723     4175                   *     the DEL@RANGE.START record).  Therefore VD$LOCATIONs
      724     4176                   *     referring to the DEL@RANGE.ENDD record must also be
      725     4177                   *     translated.
      726     4178                   */
      727     4179    3              DEL@RANGE.ENDD.POSITION# = 0;

   4179  0 001206   000000 222003                    LDX2    0,DU
         0 001207   200027 742100                    STX2    DEL@RANGE+17,,AUTO
         0 001210   001211 710000 0                  TRA     s:4204
PL6.E3A0      #002=VDI$BDELETE File=VDI$BLOCK.:VDA5TSI                           FRI 07/04/97 11:28 Page:102

      728     4180    3            CASE ( ELSE);

      729     4181                   /*
      730     4182                   *  Block shape is:  # whole records, partial last record.
      731     4183                   *     -------------------------------
      732     4184                   *     |                             |
      733     4185                   *     |               ---------------
      734     4186                   *     |               |
      735     4187                   *     -----------------
      736     4188                   *  OR:  partial first and last recs, # whole recs
      737     4189                   *                     ---------------
      738     4190                   *                     |             |
      739     4191                   *     -----------------             |
      740     4192                   *     |                             |
      741     4193                   *     |           -------------------
      742     4194                   *     |           |
      743     4195                   *     -------------
      744     4196                   *  OR:  part of one record (less than whole).
      745     4197                   *                     ---------------
      746     4198                   *                     |             |
      747     4199                   *                     ---------------
      748     4200                   */
      749     4201
      750     4202    3            END; /*DO CASE */

      751     4203
      752     4204    2           XLATE$LOC.N_ENTRIES# = 1;

   4204  0 001211   200106 740100                    STX0    @RECORD,,AUTO

      753     4205
      754     4206    2           XLATE$LOC.XLATES.OLD_KEY_LO(0) = DEL@RANGE.START.KEY(%LVL_EXT_REC-1);

   4206  0 001212   200006 237100                    LDAQ    DEL@RANGE,,AUTO
         0 001213   200124 757100                    STAQ    POS+9,,AUTO

PL6.E3A0      #002=VDI$BDELETE File=VDI$BLOCK.:VDA5TSI                           FRI 07/04/97 11:28 Page:103
      755     4207    2           XLATE$LOC.XLATES.OLD_KEY_HI(0) = DEL@RANGE.ENDD.KEY(%LVL_EXT_REC-1);

   4207  0 001214   000100 100500                    MLR     fill='000'O
         0 001215   200017 000010                    ADSC9   DEL@RANGE+9,,AUTO        cn=0,n=8
         0 001216   200126 000010                    ADSC9   POS+11,,AUTO             cn=0,n=8

      756     4208
      757     4209    2           XLATE$LOC.XLATES.OLD_POS_LO#(0) = DEL@RANGE.START.POSITION#;

   4209  0 001217   200016 222100                    LDX2    DEL@RANGE+8,,AUTO
         0 001220   200130 742100                    STX2    POS+13,,AUTO

      758     4210    2           XLATE$LOC.XLATES.OLD_POS_HI#(0) = DEL@RANGE.ENDD.POSITION#;

   4210  0 001221   200027 223100                    LDX3    DEL@RANGE+17,,AUTO
         0 001222   200130 443100                    SXL3    POS+13,,AUTO

      759     4211
      760     4212    2           XLATE$LOC.XLATES.NEW_KEY(0) = SAVE_REC1.KEY;

   4212  0 001223   000100 100500                    MLR     fill='000'O
         0 001224   200035 000010                    ADSC9   SAVE_REC1,,AUTO          cn=0,n=8
         0 001225   200131 000010                    ADSC9   POS+14,,AUTO             cn=0,n=8

      761     4213    2           XLATE$LOC.XLATES.NEW_POS#(0) = S_POS;

   4213  0 001226   200031 724100                    LXL4    S_POS,,AUTO
         0 001227   200133 744100                    STX4    POS+16,,AUTO

      762     4214    2           IF XLATE$LOC.XLATES.OLD_POS_HI#(0) < %HALF_INFINITY THEN

   4214  0 001230   377777 103003                    CMPX3   131071,DU
         0 001231   001243 605000 0                  TPL     s:4217

      763     4215    2              XLATE$LOC.XLATES.NEW_POS_INCR#(0) =

   4215  0 001232   200130 236100                    LDQ     POS+13,,AUTO
PL6.E3A0      #002=VDI$BDELETE File=VDI$BLOCK.:VDA5TSI                           FRI 07/04/97 11:28 Page:104
         0 001233   000022 736000                    QLS     18
         0 001234   000022 732000                    QRS     18
         0 001235   200134 756100                    STQ     POS+17,,AUTO
         0 001236   200133 236100                    LDQ     POS+16,,AUTO
         0 001237   000022 732000                    QRS     18
         0 001240   200134 136100                    SBLQ    POS+17,,AUTO
         0 001241   000000 625006                    EAX5    0,QL
         0 001242   200133 445100                    SXL5    POS+16,,AUTO

      764     4216    2                XLATE$LOC.XLATES.NEW_POS#(0) - XLATE$LOC.XLATES.OLD_POS_HI#(0);
      765     4217    2           CALL VDG$XLATE_LOCATIONS (XLATE$LOC, %XLATE_LOCATION)

   4217  0 001243   000004 236000 1                  LDQ     4
         0 001244   200135 756100                    STQ     POS+18,,AUTO
         0 001245   200105 631500                    EPPR1   XLATE$LOC,,AUTO
         0 001246   200134 451500                    STP1    POS+17,,AUTO
         0 001247   200134 630500                    EPPR0   POS+17,,AUTO
         0 001250   000020 631400 xsym               EPPR1   B_VECTNIL+16
         0 001251   000000 701000 xent               TSX1    VDG$XLATE_LOCATIONS
         0 001252   001255 702000 0                  TSX2    XLATE_FAILED

      766     4218    2             ALTRET (XLATE_FAILED);
      767     4219
      768     4220    2           RETURN;

   4220  0 001253   200104 221300                    LDX1  ! RANGE_KEY$+2,,AUTO
         0 001254   000001 702211                    TSX2  ! 1,X1

      769     4221
      770     4222
      771     4223    2   XLATE_FAILED:
      772     4224    2           ALTRETURN;

   4224  0 001255   200104 221300       XLATE_FAILED LDX1  ! RANGE_KEY$+2,,AUTO
         0 001256   000000 702211                    TSX2  ! 0,X1
      773     4225
      774     4226
PL6.E3A0      #002=VDI$BDELETE File=VDI$BLOCK.:VDA5TSI                           FRI 07/04/97 11:28 Page:105
      775     4227    2   END XLATE_LOCATIONS;
      776     4228
      777     4229
      778     4230    1   END VDI$BDELETE;
      779     4231        %EOD;

PL6.E3A0      #002=VDI$BDELETE File=VDI$BLOCK.:VDA5TSI                           FRI 07/04/97 11:28 Page:106
--  Include file information  --

   VD_PERR_C.:VDA5TOU  is referenced.
   VD_MACROS_M.:VDA5TOU  is referenced.
   B$JIT_C.:E04TOU  was found in the system file and is never referenced.
   CP_6_C.:E04TOU  was found in the system file and is never referenced.
      No diagnostics issued in procedure VDI$BDELETE.
PL6.E3A0      #002=VDI$BDELETE File=VDI$BLOCK.:VDA5TSI                           FRI 07/04/97 11:28 Page:107

 **** Variables and constants ****

  ****  Auto variables  ****

  ****  Scalars and arrays  ****
OctLoc.c.b A Datatyp(siz) R M Lvl/name                 OctLoc.c.b A Datatyp(siz) R M Lvl/name

     3-0-0/w PTR         r     1 @DEL_RANGE                 4-0-0/w PTR         r     1 @DEL_STREAM
     5-0-0/w PTR         r     1 @EDIT_BLOCK              105-0-0/w PTR         r     1 @LOC
   110-0-0/w PTR         r     1 @READ_ONLY_IF_EXISTS     106-0-0/w PTR         r     1 @RECORD
   107-0-0/w PTR         r     1 @RECORD_EXISTS            33-0-0/w UBIN        r     1 BDT_CODE
    34-0-0/w UBIN        r     1 BNR_TYPE                   6-0-0/w STRC(648)   r     1 DEL@RANGE
    *0-0-0/w STRC(648)   r     1 DEL_RANGE                 *0-0-0/w STRC(864)   r     1 DEL_STREAM
    *0-0-0/w STRC(936)   r     1 EDIT_BLOCK                30-0-0/w UBIN        r     1 E_POS
    74-0-0/w BIT         r     1 GET_LOC1                  76-0-0/w BIT         r     1 GET_LOC2
    *0-0-0/w STRC(324)   r     1 LOC                       51-0-0/w STRC(324)   r     1 LOC1
    73-0-0/w BIT         r     1 LOC1_EXISTS               62-0-0/w STRC(324)   r     1 LOC2
    75-0-0/w BIT         r     1 LOC2_EXISTS              112-0-0/w PTR         r     1 LOC_KEY$
    77-0-0/b BIT         r     1 MY_EOF_DELETED           113-0-0/w UBIN        r     1 POS
   102-0-0/w PTR         r     1 RANGE_KEY$               100-0-0/w BIT         r     1 READ_ONLY_IF_EXISTS
    *0-0-0/w BIT         r     1 READ_ONLY_IF_EXISTS       *0-0-0/w STRC(216)   r     1 RECORD
    *0-0-0/w BIT         r     1 RECORD_EXISTS             35-0-0/w STRC(216)   r     1 SAVE_REC1
    43-0-0/w STRC(216)   r     1 SAVE_REC2                101-0-0/w PTR         r     1 STREAM_KEY$
   111-0-0/w PTR         r     1 STREAM_KEY$               31-0-0/w UBIN        r     1 S_POS
   105-0-0/w STRC(828)   r     1 XLATE$LOC

  ****  SYMREF variables  ****

  ****  Scalars and arrays  ****
OctLoc.c.b A Datatyp(siz) R M Lvl/name                 OctLoc.c.b A Datatyp(siz) R M Lvl/name

     0-0-0/w STRC(144)   r     1 VD_$RECORDS_DELETED        0-0-0/b BIT         r     1 VD_EOF_DELETED

  ****  BASED and DCB variables  ****

  ****  Scalars and arrays  ****
OctLoc.c.b A Datatyp(siz) R M Lvl/name                 OctLoc.c.b A Datatyp(siz) R M Lvl/name
PL6.E3A0      #002=VDI$BDELETE File=VDI$BLOCK.:VDA5TSI                           FRI 07/04/97 11:28 Page:108

     0-0-0/w ASTR(9)     r     1 LOC$KEY                    0-0-0/w ASTR(9)     r     1 RANGE$KEY
     0-0-0/w ASTR(90)    r     1 RECORD_BUF                 0-0-0/w ASTR(90)    r     1 SAVE_REC1_BUF
     0-0-0/w ASTR(90)    r     1 SAVE_REC2_BUF              0-0-0/w ASTR(9)     r     1 STREAM$KEY
     0-0-0/w ASTR(9)     r     1 STREAM$KEY                 0-0-0/w ASTR(9)     r     1 VD$TEXTC
     0-0-0/w ASTR(81)    r     1 VD$TEXTC_REMOTE            0-0-0/w ASTR(81)    r     1 VD$TEXTC_REMOTE


   Procedure VDI$BDELETE requires 687 words for executable code.
   Procedure VDI$BDELETE requires 98 words of local(AUTO) storage.
PL6.E3A0      #002=VDI$BDELETE File=VDI$BLOCK.:VDA5TSI                           FRI 07/04/97 11:28 Page:109
          *** CROSS REFERENCE LISTING ***
**     DENOTES     IDENTIFIER DEFINITION
<<                 IDENTIFIER'S VALUE SET
>>                 IDENTIFIER'S VALUE USED
<>                 IDENTIFIER SET AND/OR USED
--                 IDENTIFIER REFERENCED
PL6.E3A0      #002=VDI$BDELETE File=VDI$BLOCK.:VDA5TSI                           FRI 07/04/97 11:28 Page:110
          MINI XREF LISTING

BDT_CODE
      2851**DCL      3315<>CALL     3316>>IF       3316>>IF       3316>>IF       3354>>DOCASE   3361<>CALL
      3508>>DOCASE   3529>>DOCASE   4145>>DOCASE
BNR_TYPE
      2852**DCL      3299<<ASSIGN   3454<<ASSIGN   3538>>IF       3543<>CALL     3550>>IF
BTYPE_FAILED
      3574**LABEL    3315--CALLALT
BUILD_NEW_REC_FAILED
      3593**LABEL    3543--CALLALT
DEL@RANGE
      2787**DCL      3302<<ASSIGN   3313<>CALL     3315<>CALL     3364<>CALL     3435<>CALL     3512<>CALL
      3518<>CALL     3532<>CALL     3553<>CALL     3585<>CALL
DEL@RANGE.ENDD
      2829**DCL      3320<>CALL     3368<>CALL     3440>>ASSIGN   3446>>ASSIGN   3451>>ASSIGN
DEL@RANGE.ENDD.EOF
      2845**DCL      3349<<ASSIGN
DEL@RANGE.ENDD.KEY
      2841**DCL      3330<<ASSIGN   3346<<ASSIGN   3415<<ASSIGN   3431<<ASSIGN   3485<<ASSIGN   3501<<ASSIGN
      4207>>ASSIGN
DEL@RANGE.ENDD.KEY.REP#
      2843**DCL      3329>>IF       3402>>IF       3414>>IF       3484>>IF
DEL@RANGE.ENDD.KEY.V$
      2843**DCL      3329>>CALL     3329>>CALL     3346<>CALL     3402>>ASSIGN   3402--ASSIGN   3414>>CALL
      3414>>CALL     3431<>CALL     3484>>CALL     3484>>CALL     3501<>CALL
DEL@RANGE.ENDD.POSITION#
      2845**DCL      3541<<ASSIGN   4160<<ASSIGN   4179<<ASSIGN   4210>>ASSIGN
DEL@RANGE.START
      2801**DCL      3445>>ASSIGN   3457>>ASSIGN
DEL@RANGE.START.KEY
      2813**DCL      4206>>ASSIGN
DEL@RANGE.START.KEY.REP#
      2815**DCL      3389>>IF
PL6.E3A0      #002=VDI$BDELETE File=VDI$BLOCK.:VDA5TSI                           FRI 07/04/97 11:28 Page:111
DEL@RANGE.START.KEY.V$
      2815**DCL      3389>>ASSIGN   3389--ASSIGN
DEL@RANGE.START.POSITION#
      2817**DCL      4209>>ASSIGN
DEL_RANGE
      2398**DCL        23--PROC     3313<>CALL
DEL_RANGE.ENDD
      2440**DCL      3580<>CALL     3582<>CALL
DEL_RANGE.ENDD.POSITION#
      2456**DCL      3310>>ASSIGN
DEL_RANGE.START
      2412**DCL      3582<>CALL
DEL_RANGE.START.POSITION#
      2428**DCL      3309>>ASSIGN
DEL_STREAM
      2467**DCL        23--PROC     3320<>CALL     3364<>CALL     3368<>CALL     3435<>CALL     3512<>CALL
      3518<>CALL     3532<>CALL     3553<>CALL     3558<>CALL     3909<>CALL     3945<>CALL
DEL_STREAM.CURRENT.EOF
      2534**DCL      3911>>IF
DEL_STREAM.CURRENT.KEY
      2530**DCL      3346>>ASSIGN   3431>>ASSIGN
DEL_STREAM.CURRENT.KEY.REP#
      2532**DCL      3346>>IF       3378>>IF       3431>>IF       3925>>IF
DEL_STREAM.CURRENT.KEY.V$
      2532**DCL      3346>>CALL     3346>>CALL     3378>>ASSIGN   3378--ASSIGN   3431>>CALL     3431>>CALL
      3925>>ASSIGN   3925--ASSIGN
EDIT_BLOCK
      2573**DCL        23--PROC     3315<>CALL
EDIT_BLOCK.FILE_KEY
      2609**DCL      4141>>ASSIGN
EDIT_BLOCK.OPTIONS
      2692**DCL      3558<>CALL
EDIT_BLOCK.RANGE
      2623**DCL      3558<>CALL     3945<>CALL
E_POS
      2848**DCL      3310<<ASSIGN   3540<<ASSIGN   3543<>CALL
PL6.E3A0      #002=VDI$BDELETE File=VDI$BLOCK.:VDA5TSI                           FRI 07/04/97 11:28 Page:112
GET_LOC1
      2994**DCL      3294<<ASSIGN   3441<<ASSIGN   3447<<ASSIGN   3452<<ASSIGN   3458<<ASSIGN   3464>>IF
      3507>>IF
GET_LOC2
      2996**DCL      3295<<ASSIGN   3442<<ASSIGN   3448<<ASSIGN   3453<<ASSIGN   3459<<ASSIGN   3469>>IF
      3528>>IF
GET_RECORD
      3656**PROC     3465--CALL     3474--CALL
GET_RECORD_FAILED
      3593**LABEL    3465--CALLALT  3474--CALLALT
LDELETED
      3559**LABEL    3365--GOTO     3437--GOTO     3514--GOTO     3520--GOTO     3534--GOTO
LDELETE_FAILED
      3593**LABEL    3364--CALLALT  3435--CALLALT  3512--CALLALT  3518--CALLALT  3532--CALLALT  3553--CALLALT
LOC IN PROCEDURE GET_RECORD
      3666**DCL      3656--PROC     3909<>CALL
LOC.KEY.REP# IN PROCEDURE GET_RECORD
      3682**DCL      3935>>IF
LOC.KEY.V$ IN PROCEDURE GET_RECORD
      3682**DCL      3935>>ASSIGN   3935--ASSIGN
LOC.POSITION# IN PROCEDURE GET_RECORD
      3684**DCL      3913<<ASSIGN   3940<<ASSIGN   3948>>ASSIGN
LOC$KEY.BYTES IN PROCEDURE GET_RECORD
      3836**DCL      3938>>IF
LOC$KEY.LENGTH# IN PROCEDURE GET_RECORD
      3834**DCL      3836--IMP-SIZ  3938>>IF
LOC1
      2945**DCL      3303<<ASSIGN   3445<<ASSIGN   3451<<ASSIGN   3457<<ASSIGN   3465<>CALL
LOC1.POSITION#
      2963**DCL      3470>>IF       3539>>ASSIGN
LOC1_EXISTS
      2993**DCL      3465<>CALL     3470>>IF       3507>>IF
LOC2
      2973**DCL      3304<<ASSIGN   3440<<ASSIGN   3446<<ASSIGN   3474<>CALL
LOC2.POSITION#
      2991**DCL      3540>>ASSIGN   3541>>ASSIGN
PL6.E3A0      #002=VDI$BDELETE File=VDI$BLOCK.:VDA5TSI                           FRI 07/04/97 11:28 Page:113
LOC2_EXISTS
      2995**DCL      3296<<ASSIGN   3474<>CALL     3476>>IF       3511>>IF       3528>>IF       3551>>IF
LOC_KEY$ IN PROCEDURE GET_RECORD
      3733**DCL      3826--IMP-PTR  3935<<ASSIGN   3935<<ASSIGN   3938>>IF       3938>>IF
LREAD_FAILED
      3593**LABEL    3320--CALLALT  3368--CALLALT
LREAD_FAILED IN PROCEDURE GET_RECORD
      3952**LABEL    3909--CALLALT
MY_EOF_DELETED
      2997**DCL      3297<<ASSIGN   3552>>ASSIGN
NONE_2_DELETE
      3587**LABEL    3357--GOTO     3523--GOTO
NOTHING_2_DELETE
      3569**LABEL    3393--GOTO     3406--GOTO
OCLEAR_LOCATION_FAILED
      3593**LABEL    3580--CALLALT
OCOPY_LOCATION_FAILED
      3593**LABEL    3582--CALLALT
OCOPY_RANGE_FAILED
      3574**LABEL    3313--CALLALT
OFREE_FAILED
      3593**LABEL    3569--CALLALT  3572--CALLALT
POS IN PROCEDURE GET_RECORD
      3734**DCL      3948<<ASSIGN   3949>>IF       3950<>CALL
RADJUST_LEN_FAILED IN PROCEDURE GET_RECORD
      3952**LABEL    3950--CALLALT
RANGE$KEY.BYTES
      3176**DCL      3392>>IF       3405>>IF
RANGE$KEY.LENGTH#
      3174**DCL      3176--IMP-SIZ  3392>>IF       3405>>IF
RANGE_KEY$
      3000**DCL      3166--IMP-PTR  3389<<ASSIGN   3389<<ASSIGN   3392>>IF       3392>>IF       3402<<ASSIGN
      3402<<ASSIGN   3405>>IF       3405>>IF
READ_ONLY_IF_EXISTS
      2998**DCL      3471<<ASSIGN   3473<<ASSIGN   3474<>CALL
READ_ONLY_IF_EXISTS IN PROCEDURE GET_RECORD
PL6.E3A0      #002=VDI$BDELETE File=VDI$BLOCK.:VDA5TSI                           FRI 07/04/97 11:28 Page:114
      3729**DCL      3656--PROC     3943>>IF
RECORD IN PROCEDURE GET_RECORD
      3694**DCL      3656--PROC     3906<<ASSIGN   3945<>CALL     3950<>CALL
RECORD.DATA$ IN PROCEDURE GET_RECORD
      3726**DCL      3762--IMP-PTR  3907<<ASSIGN   3949>>IF
RECORD_BUF.LENGTH# IN PROCEDURE GET_RECORD
      3788**DCL      3790--IMP-SIZ  3949>>IF
RECORD_EXISTS IN PROCEDURE GET_RECORD
      3728**DCL      3656--PROC     3905<<ASSIGN   3912<<ASSIGN   3939<<ASSIGN   3943>>IF       3952<<ASSIGN
RGET_FAILED IN PROCEDURE GET_RECORD
      3952**LABEL    3945--CALLALT
RPUT_FAILED
      3593**LABEL    3558--CALLALT
SAVE_REC1
      2861**DCL      3305<<ASSIGN   3465<>CALL     3543<>CALL     3558<>CALL
SAVE_REC1.DATA$
      2893**DCL      3044--IMP-PTR  3307<<ASSIGN   3569>>CALL     3569>>CALL     3571<<ASSIGN
SAVE_REC1.KEY
      2875**DCL      4212>>ASSIGN
SAVE_REC1_BUF
      3044**DCL      3569<>CALL
SAVE_REC1_BUF.LENGTH#
      3070**DCL      3072--IMP-SIZ  3569>>CALL
SAVE_REC2
      2903**DCL      3306<<ASSIGN   3474<>CALL     3543<>CALL
SAVE_REC2.DATA$
      2935**DCL      3102--IMP-PTR  3308<<ASSIGN   3572>>CALL     3572>>CALL     3574<<ASSIGN
SAVE_REC2.EOR
      2935**DCL      3350<<ASSIGN
SAVE_REC2.KEY
      2917**DCL      3501>>ASSIGN
SAVE_REC2.KEY.REP#
      2919**DCL      3501>>IF
SAVE_REC2.KEY.V$
      2919**DCL      3501>>CALL     3501>>CALL
SAVE_REC2_BUF
PL6.E3A0      #002=VDI$BDELETE File=VDI$BLOCK.:VDA5TSI                           FRI 07/04/97 11:28 Page:115
      3102**DCL      3572<>CALL
SAVE_REC2_BUF.LENGTH#
      3128**DCL      3130--IMP-SIZ  3572>>CALL
STREAM$KEY.BYTES
      3153**DCL      3392>>IF       3405>>IF
STREAM$KEY.LENGTH#
      3151**DCL      3153--IMP-SIZ  3392>>IF       3405>>IF
STREAM$KEY.BYTES IN PROCEDURE GET_RECORD
      3813**DCL      3938>>IF
STREAM$KEY.LENGTH# IN PROCEDURE GET_RECORD
      3811**DCL      3813--IMP-SIZ  3938>>IF
STREAM_KEY$
      2999**DCL      3143--IMP-PTR  3378<<ASSIGN   3378<<ASSIGN   3392>>IF       3392>>IF       3405>>IF
      3405>>IF
STREAM_KEY$ IN PROCEDURE GET_RECORD
      3732**DCL      3803--IMP-PTR  3925<<ASSIGN   3925<<ASSIGN   3938>>IF       3938>>IF
S_POS
      2849**DCL      3309<<ASSIGN   3539<<ASSIGN   3543<>CALL     4213>>ASSIGN
VD$TEXTC.LENGTH#
      3258**DCL      3260--IMP-SIZ
VD$TEXTC_REMOTE
      3206**DCL      3329<>CALL     3346<>CALL     3414<>CALL     3431<>CALL     3484<>CALL     3501<>CALL
VD$TEXTC_REMOTE.LENGTH#
      3235**DCL      3237--IMP-SIZ  3329>>CALL     3346>>CALL     3378--ASSIGN   3389--ASSIGN   3402--ASSIGN
      3414>>CALL     3431>>CALL     3484>>CALL     3501>>CALL
VD$TEXTC_REMOTE.LENGTH# IN PROCEDURE GET_RECORD
      3895**DCL      3897--IMP-SIZ  3925--ASSIGN   3935--ASSIGN
VDA$LDELETE
      2717**DCL-ENT  3364--CALL     3435--CALL     3512--CALL     3518--CALL     3532--CALL     3553--CALL
VDA$LREAD
      2718**DCL-ENT  3320--CALL     3368--CALL     3909--CALL
VDE$RADJUST_LENGTH
      2714**DCL-ENT  3950--CALL
VDE$RGET
      2715**DCL-ENT  3945--CALL
VDE$RPUT
PL6.E3A0      #002=VDI$BDELETE File=VDI$BLOCK.:VDA5TSI                           FRI 07/04/97 11:28 Page:116
      2716**DCL-ENT  3558--CALL
VDG$BUILD_NEW_REC
      2727**DCL-ENT  3543--CALL
VDG$ESCREECH
      2728**DCL-ENT  3361--CALL
VDG$OCLEAR_LOCATION
      2725**DCL-ENT  3580--CALL
VDG$OCLEAR_RANGE
      2726**DCL-ENT  3585--CALL
VDG$OCOPY
      2722**DCL-ENT  3346--CALL     3431--CALL     3501--CALL
VDG$OCOPY_LOCATION
      2724**DCL-ENT  3582--CALL
VDG$OCOPY_RANGE
      2723**DCL-ENT  3313--CALL
VDG$OFREE
      2721**DCL-ENT  3329--CALL     3414--CALL     3484--CALL     3569--CALL     3572--CALL
VDG$XLATE_LOCATIONS
      2719**DCL-ENT  4217--CALL
VDI$BTYPE
      2729**DCL-ENT  3315--CALL
VD_$RECORDS_DELETED.V#
      2773**DCL      3300<<ASSIGN   3549<<ASSIGN   3555<<ASSIGN   3555>>ASSIGN   3564>>IF       3566<<ASSIGN
VD_EOF_DELETED
      2776**DCL      3297>>ASSIGN   3298<<ASSIGN   3552<<ASSIGN
XLATE$LOC IN PROCEDURE XLATE_LOCATIONS
      4010**DCL      4140<<ASSIGN   4217<>CALL
XLATE$LOC.FILE_KEY IN PROCEDURE XLATE_LOCATIONS
      4047**DCL      4141<<ASSIGN
XLATE$LOC.FLINK$ IN PROCEDURE XLATE_LOCATIONS
      4036**DCL      4142<<ASSIGN
XLATE$LOC.LEVEL# IN PROCEDURE XLATE_LOCATIONS
      4051**DCL      4143<<ASSIGN
XLATE$LOC.N_ENTRIES# IN PROCEDURE XLATE_LOCATIONS
      4036**DCL      4204<<ASSIGN
XLATE$LOC.XLATES.NEW_KEY IN PROCEDURE XLATE_LOCATIONS
PL6.E3A0      #002=VDI$BDELETE File=VDI$BLOCK.:VDA5TSI                           FRI 07/04/97 11:28 Page:117
      4132**DCL      4212<<ASSIGN
XLATE$LOC.XLATES.NEW_POS# IN PROCEDURE XLATE_LOCATIONS
      4136**DCL      4213<<ASSIGN   4215>>ASSIGN
XLATE$LOC.XLATES.NEW_POS_INCR# IN PROCEDURE XLATE_LOCATIONS
      4136**DCL      4215<<ASSIGN
XLATE$LOC.XLATES.OLD_KEY_HI IN PROCEDURE XLATE_LOCATIONS
      4117**DCL      4207<<ASSIGN
XLATE$LOC.XLATES.OLD_KEY_LO IN PROCEDURE XLATE_LOCATIONS
      4103**DCL      4206<<ASSIGN
XLATE$LOC.XLATES.OLD_POS_HI# IN PROCEDURE XLATE_LOCATIONS
      4121**DCL      4210<<ASSIGN   4214>>IF       4215>>ASSIGN
XLATE$LOC.XLATES.OLD_POS_LO# IN PROCEDURE XLATE_LOCATIONS
      4121**DCL      4209<<ASSIGN
XLATE_FAILED IN PROCEDURE XLATE_LOCATIONS
      4224**LABEL    4217--CALLALT
XLATE_LOCATIONS
      4000**PROC     3561--CALL

