PL6.E3A0      #003=VDI$BINSERT File=VDI$BLOCK.:VDA5TSI                           FRI 07/04/97 11:28 Page:118
      780        1        /*T***********************************************************/
      781        2        /*T*                                                         */
      782        3        /*T* Copyright (c) Bull HN Information Systems Inc., 1997    */
      783        4        /*T*                                                         */
      784        5        /*T***********************************************************/
      785        6
      786        7        /*D* NAME:  VDI$BINSERT
      787        8            PARAMETERS:
      788        9                SRC_RANGE - VD$RANGE range descriptor for the source block.
      789       10                SRC_STREAM - VD$STREAM to use for accessing the source block.
      790       11                DEST_RANGE - VD$RANGE range descriptor for the destination block.
      791       12                DEST_STREAM - VD$STREAM to use for accessing the destination block.
      792       13            INPUT:
      793       14                VD_CURRENT_WINDOW$ must point to the level-1 VD$FILE_NODE in the
      794       15                    Windows file for the current editing window.  DEST_RANGE must
      795       16                    specify a block which is located in this window's EditBlock.
      796       17                Destination EditBlock's .OPTIONS.KEY_INCR should contain the default
      797       18                    record key increment to use when inserting new records into this
      798       19                    EditBlock, or 0 to use the $BY default.
      799       20            OUTPUT:
      800       21                SRC_RANGE will be modified to describe any part of the source block
      801       22                    not actually copied.  Usually this is just a point at the end of
      802       23                    the source block.
      803       24                DEST_RANGE will be modified to describe the block just inserted
      804       25                    at the destination.
      805       26                VD_$RECORDS_INSERTED.V# will be set to the number of records
      806       27                    inserted.  If nothing at all is inserted, it will be set to -1.
      807       28            ENTRY: VDI$BSPLIT
      808       29                Inserts a single record boundary at DEST_RANGE.START. SRC_RANGE
      809       30                can be %CLEAR, SRC_STREAM can be absent.  Used by the presenter,
      810       31                when it runs out of key space.
      811       32            DESCRIPTION:
      812       33                Classify the source and destination blocks into the following types:
      813       34                    Source types:
      814       35                      "1recNoEOR" - all in 1 record, excluding that record's EOR
      815       36                      "1recEOR" - all in 1 record, including EOR
      816       37                      ">1recNoEOR" - on > 1 record, excluding last record's EOR
PL6.E3A0      #003=VDI$BINSERT File=VDI$BLOCK.:VDA5TSI                           FRI 07/04/97 11:28 Page:119
      817       38                      ">1recEOR" - on > 1 record, including last record's EOR
      818       39                    Destination types (dest is really a point, not a block):
      819       40                      "BOR" - at BOR of existing record
      820       41                      "nonBOR" - at non-BOR of existing record (may be in middle, at
      821       42                            EOR, or beyond EOR)
      822       43                      "BORnonExist" - at BOR of non-existing record
      823       44                      "nonBORnonExist" - at non-BOR of non-existing record
      824       45
      825       46                Given the above classification, the following cases are acted upon as
      826       47                described below.  Terminology:
      827       48                    src - Only record (with or without EOR) of a 1-record source block.
      828       49                    srcFirst - First record of a multi-record source block.
      829       50                    srcLast - Last record (with or without EOR) of a multi-record
      830       51                        source block.
      831       52                    destLeft - Portion of the record to the left of the destination
      832       53                        point.  This is empty if the destination is BOR; this is
      833       54                        a series of blanks if the destination is non-BOR of a
      834       55                        non-existing record.
      835       56                    destRight - Portion of the record to the right of the destination
      836       57                        point.  This is empty if the destination is at or beyond EOR --
      837       58                        but still contains the EOR boundary indication.
      838       59                        If the destination record doesn't exist, destRight is unused.
      839       60                        If destRight is used, it ALWAYS has an EOR associated with it.
      840       61                    destNext - The next record in the destination file after the
      841       62                        destination record.  This is used only when the destination
      842       63                        record doesn't exist AND src/srcLast has no EOR.
      843       64                    NOTE - destRight and destNext are mutually exclusive; in any given
      844       65                        case, only one is used, never both.
      845       66                    5.0 - The destination record key (record may or may not exist).
      846       67                    4.1, 4.2 - New keys generated to be before the destination record
      847       68                        and after the existing record before the destination record.
      848       69                    5.1, 5.2 - New keys generated to be after the given destination key
      849       70                        and before the existing record after the given destination key.
      850       71
      851       72                Src          Dest               How file looks after insertion  See Note
      852       73                ----------   --------------     ------------------------------  --------
      853       74                1recNoEOR    BOR                5.0  src  destRight
PL6.E3A0      #003=VDI$BINSERT File=VDI$BLOCK.:VDA5TSI                           FRI 07/04/97 11:28 Page:120
      854       75
      855       76                             nonBOR             5.0  destLeft  src  destRight
      856       77
      857       78                             BORnonExist        5.0  src  destNext              "moved"
      858       79
      859       80                             nonBORnonExist     5.0  destLeft  src  destNext    "moved"
      860       81                ----------   --------------     ------------------------------  --------
      861       82                1recEOR      BOR                4.1  src                        "genkey"
      862       83                                                5.0  destRight                  "moved"
      863       84
      864       85                             nonBOR             5.0  destLeft  src
      865       86                                                5.1  destRight
      866       87
      867       88                             BORnonExist        5.0  src
      868       89
      869       90                             nonBORnonExist     5.0  destLeft  src
      870       91                ----------   --------------     ------------------------------  --------
      871       92                >1recNoEOR   BOR                4.1  srcFirst                   "genkey"
      872       93                                                4.2  srcLast  destRight
      873       94
      874       95                             nonBOR             5.0  destLeft  srcFirst
      875       96                                                5.1  srcLast  destRight
      876       97
      877       98                             BORnonExist        5.0  srcFirst
      878       99                                                5.1  srcLast  destNext          "moved"
      879      100
      880      101                             nonBORnonExist     5.0  destLeft  srcFirst
      881      102                                                5.1  srcLast  destNext          "moved"
      882      103                ----------   --------------     ------------------------------  --------
      883      104                >1recEOR     BOR                4.1  srcFirst                   "genkey"
      884      105                                                4.2  srcLast
      885      106                                                5.0  destRight
      886      107
      887      108                             nonBOR             5.0  destLeft  srcFirst
      888      109                                                5.1  srcLast
      889      110                                                5.2  destRight
      890      111
PL6.E3A0      #003=VDI$BINSERT File=VDI$BLOCK.:VDA5TSI                           FRI 07/04/97 11:28 Page:121
      891      112                             BORnonExist        5.0  srcFirst
      892      113                                                5.1  srcLast
      893      114
      894      115                             nonBORnonExist     5.0  destLeft  srcFirst
      895      116                                                5.1  srcLast
      896      117
      897      118                    Notes:
      898      119                    ------
      899      120                    "moved" - In these cases the destNext record is moved (rekeyed).
      900      121                        The criteria for this action is:
      901      122                            dest is nonExist (either BOR or nonBOR)
      902      123                            AND srcLast has no EOR
      903      124                    "genkey" - In these cases the first key written is generated to be
      904      125                        before the given destination key.  The criteria for this
      905      126                        action is:
      906      127                            destination is BORExist
      907      128                            AND 1st/only source record does have EOR
      908      129                        There are two subcases here:  srcLast could have EOR or not:
      909      130                        If srcLast does have EOR, note that destRight is untouched:
      910      131                            not moved, nothing joined to it -- just leave it alone.
      911      132                        If srcLast doesn't have EOR, then destRight acts like
      912      133                            destNext in the "moved" cases noted above:  it is rekeyed.
      913      134
      914      135
      915      136                The above table gives the algorithm by example; the following gives
      916      137                it procedurally:
      917      138
      918      139
      919      140                Read the first source record.
      920      141                Call PREPARE_DESTINATION, which reads the destination record (if it
      921      142                    exists) and sets up for the main loop.  PREPARE_DESTINATION must
      922      143                    not do anything which isn't redoable, since it may be called
      923      144                    again after rekeying the destination.  It sets:
      924      145                    RECORD.KEY := given destination key;
      925      146                    other RECORD fields get destLeft, if any;
      926      147                    DEST_NEXT_KEY is the key of the next record, used when
      927      148                        calling VDE$RPUT when we want to generate a key;
PL6.E3A0      #003=VDI$BINSERT File=VDI$BLOCK.:VDA5TSI                           FRI 07/04/97 11:28 Page:122
      928      149                    DEST_RIGHT is data component of either destRight or destNext
      929      150                        (see the "genkey" note above, which tells why only one of these
      930      151                        will be used in any given case);
      931      152                    DEST_EXISTS and GENERATE_KEY are set appropriately.
      932      153                Call ADJUST_INCREMENT to find a suitable key increment.  This may
      933      154                    indicate the need for a rekey of all or part of the destination
      934      155                    file.
      935      156                If ADJUST_INCREMENT can't find an increment to use:
      936      157                    If $REKEY <= 0 (don't auto-rekey), use .001 as the key increment,
      937      158                        and proceed with the insertion.  At some point in the
      938      159                        insertion, we'll get a cutoff error.
      939      160                    If $REKEY > 0, call VDI$BAUTO_REKEY to rekey some or all
      940      161                        of the destination file to make room for the source block.
      941      162                        In some cases, the insertion will be done at the same time,
      942      163                        allowing us to return at this time.
      943      164                        Otherwise, we now have a key increment to use for the
      944      165                        insertion.
      945      166                        Call PREPARE_DESTINATION again, to set up the parameters based
      946      167                        on the newly-keyed destination.
      947      168
      948      169                Append the first source record to whatever may already be in RECORD
      949      170                    (destLeft).
      950      171                Main loop:  while RECORD isn't %CLEAR:
      951      172                    If RECORD has no EOR (and so must be last record from the source
      952      173                        block), append DEST_RIGHT (if any) to its data component,
      953      174                        and clear DEST_RIGHT.
      954      175                    Call VDE$RPUT to write RECORD to the destination.  Note that
      955      176                        RECORD is a kinda schizoid VD$NODE_DESC:  it's .SPEC, .DATA,
      956      177                        and .EOR come from source block records; but it's .KEY is
      957      178                        a key in the destination block (which could be in an entirely
      958      179                        different file!)
      959      180                        GENERATE_KEY tells RPUT whether and how to generate a key.
      960      181                    Call VDA$LREAD/VDE$RGET to read the next source record into
      961      182                        RECORD.  If the previous RECORD had no EOR, then
      962      183                        VDE$RGET should return an empty RECORD this time.  If so,
      963      184                        then RECORD := DEST_RIGHT (which may be empty too) and clear
      964      185                        DEST_RIGHT.
PL6.E3A0      #003=VDI$BINSERT File=VDI$BLOCK.:VDA5TSI                           FRI 07/04/97 11:28 Page:123
      965      186                    Set RECORD.KEY to the key just written to the destination block,
      966      187                        and set GENERATE_KEY to generate a new key following RECORD.KEY,
      967      188                        for the next iteration.
      968      189                    End of main loop.
      969      190                Clean up:
      970      191                    Delete the destNext/destRight record, if we had to move it (see
      971      192                        "moved" and "genkey" notes above).
      972      193                    Adjust SRC_RANGE to describe any part of the source block not
      973      194                        copied.  If all copied ok, adjust SRC_RANGE to be an empty
      974      195                        block at its end location.
      975      196                    Adjust DEST_RANGE to describe the data just inserted at the
      976      197                        destination.
      977      198        */
      978      199
      979      200        VDI$BINSERT: PROC (SRC_RANGE, SRC_STREAM, DEST_RANGE, DEST_STREAM)
      980      201                  ALTRET;
      981      202
      982      203
      983      204        %INCLUDE VD_MACROS_M;
      984     2419        %INCLUDE VD_PERR_C;
      985     2567        /*
      986     2568        *   Flags for VDA$LREAD:
      987     2569        */
      988     2570        %EQU DONT_READ_RECORD = FALSE;  /* Just position, don't read */
      989     2571        %EQU READ_RECORD = TRUE;        /* Position and read */
      990     2572
      991     2573
      992     2574        %VD$RANGE (NAME=SRC_RANGE,STCLASS=PARAM);
      993     2643        %VD$STREAM (NAME=SRC_STREAM, STCLASS=PARAM);
      994     2749        %VD$RANGE (NAME=DEST_RANGE,STCLASS=PARAM);
      995     2818        %VD$STREAM (NAME=DEST_STREAM, STCLASS=PARAM);
      996     2924
      997     2925
      998     2926    1   DCL VDA$LREAD           ENTRY (4) ALTRET;
      999     2927    1   DCL VDA$LWRITE          ENTRY (4) ALTRET;
     1000     2928    1   DCL VDA$FOPEN           ENTRY (4) ALTRET;
     1001     2929    1   DCL VDA$FCLOSE          ENTRY (1) ALTRET;
PL6.E3A0      #003=VDI$BINSERT File=VDI$BLOCK.:VDA5TSI                           FRI 07/04/97 11:28 Page:124
     1002     2930    1   DCL VDA$PFLUSH          ENTRY (2) ALTRET;
     1003     2931    1   DCL VDI$BAUTO_REKEY     ENTRY (4) ALTRET;
     1004     2932    1   DCL VDE$RGET            ENTRY (3) ALTRET;
     1005     2933    1   DCL VDE$RPUT            ENTRY (6) ALTRET;
     1006     2934    1   DCL VDE$RADJUST_LENGTH  ENTRY (2) ALTRET;
     1007     2935    1   DCL VDG$OALLOC          ENTRY (3) ALTRET;
     1008     2936    1   DCL VDG$OFREE           ENTRY (1) ALTRET;
     1009     2937    1   DCL VDG$OCOPY           ENTRY (2) ALTRET;
     1010     2938    1   DCL VDG$OCOPY_RANGE     ENTRY (2) ALTRET;
     1011     2939    1   DCL VDG$OCOPY_LOCATION  ENTRY (2) ALTRET;
     1012     2940    1   DCL VDG$OCLEAR_LOCATION ENTRY (1) ALTRET;
     1013     2941    1   DCL VDG$XLATE_LOCATIONS ENTRY (2) ALTRET;
     1014     2942    1   DCL VDG$COMPARE_LOCS    ENTRY (3) ALTRET;
     1015     2943    1   DCL VDG$EREPORT_ERROR   ENTRY (1);
     1016     2944    1   DCL VDG$ESCREECH        ENTRY (3);
     1017     2945
     1018     2946
     1019     2947        %VD_6E (STCLASS=SYMREF);
     1020     2983    1   DCL VD_CURRENT_WINDOW$ PTR SYMREF;
     1021     2984    1   DCL VD_ACCESSOR_PRIV UBIN BYTE ALIGNED SYMREF;
     1022     2985        %VD$KEY (NAME=VD_KEY_NUMERIC_BOF, STCLASS=SYMREF);
     1023     2999    1   DCL VD_CMD_OBJECTS$ (0:%(MX_CMD_OBJECTS-1)) PTR SYMREF;
     1024     3000    1   DCL VD_EOF_DELETED BIT(36) SYMREF;
     1025     3001        %VD$FILE_KEY (NAME=VD_FKEY_SCRATCH_LEFTOVER, STCLASS=SYMREF);
     1026     3050        %VD$KEY (NAME=VD_KEY_SCRATCH_LEFTOVER, STCLASS=SYMREF);
     1027     3064        %VD$LOCATION (NAME=VD_LOC_$LEFTOVER, STCLASS=SYMREF);
     1028     3092        %VD$LOCATION (NAME=VD_LOC_$NOT_COPIED, STCLASS=SYMREF);
     1029     3120        %VD$NUMBER (NAME=VD_$REKEY, STCLASS=SYMREF);
     1030     3165        %VD$NUMBER (NAME=VD_$BY, STCLASS=SYMREF);
     1031     3210        %VD$NUMBER (NAME=VD_$RECORDS_INSERTED, STCLASS=SYMREF);
     1032     3255
     1033     3256
     1034     3257        %VD$KEY_NUMBER (NAME=VD_KEY_MN_EDITKEY, STCLASS=SYMREF);
     1035     3272        %VD$KEY_NUMBER (NAME=VD_KEY_MX_EDITKEY, STCLASS=SYMREF);
     1036     3287
     1037     3288
     1038     3289    1   DCL FIRST_TIME_THRU_MAIN_LOOP BIT(1) ALIGNED;
PL6.E3A0      #003=VDI$BINSERT File=VDI$BLOCK.:VDA5TSI                           FRI 07/04/97 11:28 Page:125
     1039     3290    1   DCL OUTSIDE_SRC_RANGE BIT(1) ALIGNED;
     1040     3291    1   DCL END_POS_OF_INSERTED_DATA SBIN;
     1041     3292    1   DCL DEST_EDIT_BLOCK$ PTR;
     1042     3293        %VD$ACCESS_OPTIONS (NAME=DEST_OPTIONS, STCLASS=AUTO);   /* Owns objects!! */
     1043     3322    1   DCL DEST_LEVEL SBIN;
     1044     3323    1   DCL SRC_LEVEL SBIN;
     1045     3324    1   DCL SRC_FILE_KEY$ PTR;
     1046     3325    1   DCL DEST_FILE_KEY$ PTR;
     1047     3326    1   DCL RCCL SBIN;
     1048     3327        %VD$NODE_DESC (NAME=RECORD, STCLASS=AUTO);
     1049     3369    1   DCL DEST_LEFT_LENGTH SBIN;
     1050     3370        %VD$KEY (NAME=DEST_NEXT_KEY, STCLASS=AUTO);
     1051     3384    1   DCL DEST_RIGHT$ PTR;
     1052     3385    1   DCL DEST_EXISTS BIT(1) ALIGNED;
     1053     3386    1   DCL DEST_EOR BIT(1);
     1054     3387    1   DCL DEST_KEY_SPACE SBIN;
     1055     3388    1   DCL GENERATE_KEY SBIN;      /* Holds an %SQ_ value */
     1056     3389    1   DCL MY_EOF_DELETED BIT(36);
     1057     3390    1   DCL PREVIOUS_SRC_EOR BIT(1) ALIGNED;
     1058     3391    1   DCL SRC_EOR BIT(1) ALIGNED;
     1059     3392        %VD$NODE_DESC (NAME=FIRST_SRC_RECORD, STCLASS=AUTO);
     1060     3434        %VD$KEY (NAME=SRC_KEY_OF_RECORD, STCLASS=AUTO); /* RECORD's key from src file */
     1061     3448        %VD$KEY (NAME=LAST_COPIED_KEY, STCLASS=AUTO);
     1062     3462        %VD$KEY (NAME=LAST_WRITTEN_KEY, STCLASS=AUTO);
     1063     3476        %VD$RANGE (NAME=DEL_RANGE, STCLASS=AUTO);   /* Doesn't own objects!!! */
     1064     3545    1   DCL DEST_END_KEY$ PTR;
     1065     3546    1   DCL VD_ERR$ PTR;
     1066     3547    1   DCL ERR_SUBST$ PTR;
     1067     3548
     1068     3549
     1069     3550        %VD$BLOCK_DESC (NAME=SRC$EDIT_BLOCK,
     1070     3551            STCLASS="BASED(VD_6E.SOURCE.OPERAND.EDIT_BLOCK$)");
     1071     3698        %VD$BLOCK_DESC (NAME=DEST$EDIT_BLOCK, STCLASS="BASED(DEST_EDIT_BLOCK$)");
     1072     3845        %VD$BUFFER (NAME=RECORD$DATA, STCLASS="BASED(RECORD.DATA$)");
     1073     3903        %VD$BUFFER (NAME=DEST$RIGHT, STCLASS="BASED(DEST_RIGHT$)");
     1074     3961        %VD$ERR (NAME=VD$ERR, STCLASS="BASED(VD_ERR$)");
     1075     4014        %VD$ERR (NAME=LAST$ERR, STCLASS="BASED(VD_6E.ERR_TAIL$)");
PL6.E3A0      #003=VDI$BINSERT File=VDI$BLOCK.:VDA5TSI                           FRI 07/04/97 11:28 Page:126
     1076     4067        %VD$POINTER (NAME=ERR$SUBST, DIM="(0:2)", STCLASS="BASED(ERR_SUBST$)");
     1077     4112        %VD$KEY_NUMBER;
     1078     4127        %VD$TEXTC;
     1079     4150        %VD$TEXTC_NUMBER;
     1080     4164        %VD$TEXTC_REMOTE;
     1081     4225        %VD$BUFFER;
     1082     4283        %VD$BUFFER_HEADER;
     1083     4319        %VD$FILE_NODE;
     1084     4412        %VD$WINDOW_SPEC;
     1085     4478        %VD$IT_BLOCK_EXPR;
     1086     4628
     1087     4629
     1088     4630        %BOX (TITLE="Procedure");

              4642    1   /***************************************************************************
              4644    1    *                                                                         *
              4648    1            *                                 Procedure                               *
              4650    1            *                                                                         *
              4652    1           ***************************************************************************/

     1089     4656
     1090     4657    1           OUTSIDE_SRC_RANGE = %FALSE;
     1091     4658    1           GOTO THE_TOP;
     1092     4659
     1093     4660    1   VDI$BSPLIT: ENTRY (SRC_RANGE, SRC_STREAM, DEST_RANGE, DEST_STREAM) ALTRET;
     1094     4661
     1095     4662    1           OUTSIDE_SRC_RANGE = %TRUE;
     1096     4663    1   THE_TOP: ;
     1097     4664    1           FIRST_TIME_THRU_MAIN_LOOP = %TRUE;
     1098     4665    1           VD_$RECORDS_INSERTED.V# = -1;
     1099     4666    1           END_POS_OF_INSERTED_DATA = 0;   /* Assumption */
     1100     4667    1           DEST_OPTIONS = %CLEAR;
     1101     4668    1           RECORD = %CLEAR;
     1102     4669    1           RECORD.DATA$ = ADDR(NIL);
     1103     4670    1           DEST_NEXT_KEY = %CLEAR;
     1104     4671    1           FIRST_SRC_RECORD = RECORD;
     1105     4672    1           FIRST_SRC_RECORD.EOR = OUTSIDE_SRC_RANGE;
PL6.E3A0      #003=VDI$BINSERT File=VDI$BLOCK.:VDA5TSI                           FRI 07/04/97 11:28 Page:127
     1106     4673    1           SRC_KEY_OF_RECORD = %CLEAR;
     1107     4674    1           LAST_COPIED_KEY = %CLEAR;
     1108     4675    1           LAST_WRITTEN_KEY = %CLEAR;
     1109     4676    1           MY_EOF_DELETED = VD_EOF_DELETED;
     1110     4677    1           VD_EOF_DELETED = %FALSE;
     1111     4678
     1112     4679                /* Obtain fixed parameters from remote objects for easier access */
     1113     4680    2           IF ADDR(DEST_STREAM) ~= VD_6E.SOURCE.OPERAND.STREAM$ THEN DO;
     1114     4681    2              DEST_EDIT_BLOCK$ = VD_CURRENT_WINDOW$ -> VD$FILE_NODE.DESC.SPEC.V$ ->
     1115     4682    2                VD$WINDOW_SPEC.OPERAND.EDIT_BLOCK$;
     1116     4683    2              IF NOT OUTSIDE_SRC_RANGE THEN
     1117     4684    2                 DEST_OPTIONS = VD_CURRENT_WINDOW$ ->
     1118     4685    2                   VD$FILE_NODE.DESC.SPEC.V$ -> VD$WINDOW_SPEC.OPERAND.INTREE$ ->
     1119     4686    2                   VD$IT_BLOCK_EXPR.OPTIONS;
     1120     4687    2              ELSE
     1121     4688    2                 DEST_OPTIONS = DEST$EDIT_BLOCK.OPTIONS;
     1122     4689    2              END;
     1123     4690    2           ELSE DO;
     1124     4691    2              DEST_EDIT_BLOCK$ = VD_6E.SOURCE.OPERAND.EDIT_BLOCK$;
     1125     4692    2              DEST$EDIT_BLOCK.RANGE.ENDD.EOF = %TRUE;
     1126     4693    2              DEST_OPTIONS = DEST$EDIT_BLOCK.OPTIONS;
     1127     4694    2              END;
     1128     4695
     1129     4696                %COPYKEY (FKEY=DEST_OPTIONS.KEY_INCR, TKEY=DEST_OPTIONS.KEY_INCR);
     1130     4712    1           DEST_LEVEL = DEST_OPTIONS.LEVEL#;
     1131     4713    1           SRC_LEVEL = %LVL_EXT_REC;   /*N* s.b. from source "EditBlock"? *N*/
     1132     4714
     1133     4715                /*
     1134     4716                *   Set DEST_RANGE.START to point to where we'll start inserting.
     1135     4717                *   For now, assume we'll start at DEST_RANGE.ENDD.
     1136     4718                */
     1137     4719    1           CALL VDG$OCLEAR_LOCATION (DEST_RANGE.START)
     1138     4720    1             ALTRET (OCLEAR_LOCATION_FAILED);
     1139     4721    1           CALL VDG$OCOPY_LOCATION (DEST_RANGE.ENDD, DEST_RANGE.START)
     1140     4722    1             ALTRET (OCOPY_LOCATION_FAILED);
     1141     4723
     1142     4724    2           IF NOT OUTSIDE_SRC_RANGE THEN DO;
PL6.E3A0      #003=VDI$BINSERT File=VDI$BLOCK.:VDA5TSI                           FRI 07/04/97 11:28 Page:128
     1143     4725                /* Get the first source record */
     1144     4726    2              CALL VDA$LREAD (SRC_STREAM, SRC_RANGE.START, 0, %TRUE)
     1145     4727    2                ALTRET (LREAD_FAILED);
     1146     4728    2              CALL VDE$RGET (SRC_STREAM, SRC_RANGE, FIRST_SRC_RECORD)
     1147     4729    2                ALTRET (RGET_FAILED);
     1148     4730                   %COPYKEY (FKEY=FIRST_SRC_RECORD.KEY, TKEY=SRC_KEY_OF_RECORD);
     1149     4746
     1150     4747    3              IF FIRST_SRC_RECORD.KEY = %CLEAR THEN DO; /* Src range is empty */
     1151     4748    3                 CALL CLEANUP
     1152     4749    3                   ALTRET (CLEANUP_FAILED);
     1153     4750    3                 RETURN;
     1154     4751    3                 END;
     1155     4752    2              END;
     1156     4753
     1157     4754                /* Read the destination record and set up for main loop */
     1158     4755    1           CALL PREPARE_DESTINATION
     1159     4756    1             ALTRET (PREPARE_DESTINATION_FAILED);
     1160     4757
     1161     4758                /* Find key increment */
     1162     4759    1           CALL ADJUST_INCREMENT (DEST_OPTIONS.KEY_INCR)
     1163     4760    1             ALTRET (ADJUST_INCREMENT_FAILED);
     1164     4761    1           IF DEST_OPTIONS.KEY_INCR.TYPE# = 0 THEN
     1165     4762    2   CANT_FIND_INCREMENT: DO;
     1166     4763                   /* ADJUST_INCREMENT couldn't find an increment to use */
     1167     4764                   /* Reset DEST_OPTIONS.KEY_INCR to value given by user */
     1168     4765    2              DEST_OPTIONS.KEY_INCR.TYPE# = %KT_EDITKEY;
     1169     4766    3              IF VD_$REKEY.V# <= 0 THEN DO;
     1170     4767                      /* User doesn't want us to auto-rekey; go ahead using .001 */
     1171     4768    3                 ADDR(DEST_OPTIONS.KEY_INCR) -> VD$KEY_NUMBER.BYTES# =
     1172     4769    3                   %MN_EDITKEY_FRACT;
     1173     4770    3                 END;
     1174     4771    3              ELSE DO;
     1175     4772                      /* Rekey the destination so the src will fit */
     1176     4773    3                 CALL VDI$BAUTO_REKEY (DEST_STREAM, RECORD.KEY,
     1177     4774    3                   DEST_OPTIONS, DEST_KEY_SPACE)
     1178     4775    3                   ALTRET (BAUTO_REKEY_FAILED);
     1179     4776    3                 CALL CLEANUP; /* Free RECORD buffer, etc. */
PL6.E3A0      #003=VDI$BINSERT File=VDI$BLOCK.:VDA5TSI                           FRI 07/04/97 11:28 Page:129
     1180     4777    3                 CALL PREPARE_DESTINATION
     1181     4778    3                   ALTRET (PREPARE_DESTINATION_FAILED);
     1182     4779    3                 CALL ADJUST_INCREMENT (DEST_OPTIONS.KEY_INCR)
     1183     4780    3                   ALTRET (ADJUST_INCREMENT_FAILED);
     1184     4781    3                 END;
     1185     4782    2              END CANT_FIND_INCREMENT;
     1186     4783
     1187     4784
     1188     4785                /* Append FIRST_SRC_RECORD to whatever (if anything) is in RECORD */
     1189     4786    2           IF RECORD.SPEC = %CLEAR THEN DO;
     1190     4787    2              RECORD.SPEC = FIRST_SRC_RECORD.SPEC;
     1191     4788    2              FIRST_SRC_RECORD.SPEC = %CLEAR;
     1192     4789    2              END;
     1193     4790    2           IF RECORD.DATA$ = ADDR(NIL) THEN DO;
     1194     4791    2              RECORD.DATA$ = FIRST_SRC_RECORD.DATA$;
     1195     4792    2              FIRST_SRC_RECORD.DATA$ = ADDR(NIL);
     1196     4793    2              END;
     1197     4794    2           ELSE DO;
     1198     4795    2              CALL APPEND (RECORD.DATA$, FIRST_SRC_RECORD.DATA$)
     1199     4796    2                ALTRET (APPEND_FAILED);
     1200     4797    2              END;
     1201     4798    1           RECORD.EOR = FIRST_SRC_RECORD.EOR;
     1202     4799    1           SRC_EOR = FIRST_SRC_RECORD.EOR;
     1203     4800
     1204     4801                /* Clear FIRST_SRC_RECORD to free any dynamic storage */
     1205     4802                %CLEARKEY (KEY=FIRST_SRC_RECORD.KEY);
     1206     4812                %CLEARSPEC (SPEC=FIRST_SRC_RECORD.SPEC);
     1207     4822    2           IF FIRST_SRC_RECORD.DATA$ ~= ADDR(NIL) THEN DO;
     1208     4823    2              CALL VDG$OFREE (FIRST_SRC_RECORD.DATA$ -> VD$BUFFER)
     1209     4824    2                ALTRET (OFREE_FAILED);
     1210     4825    2              FIRST_SRC_RECORD.DATA$ = ADDR(NIL);
     1211     4826    2              END;
     1212     4827                /*
     1213     4828                *  !!!!!                CAUTION                 !!!!!  *
     1214     4829                *  !!!!! Don't clear all of FIRST_SRC_RECORD;   !!!!!  *
     1215     4830                *  !!!!! Specifically, we look at .EOR in the   !!!!!  *
     1216     4831                *  !!!!!          code that follows.            !!!!!  *
PL6.E3A0      #003=VDI$BINSERT File=VDI$BLOCK.:VDA5TSI                           FRI 07/04/97 11:28 Page:130
     1217     4832                */
     1218     4833
     1219     4834                /*
     1220     4835                 *    If either (a) source ends at EOF; or (b) source ends at
     1221     4836                 *        destination location, which is at the beginning of a
     1222     4837                 *        record -- then find the actual record key just before
     1223     4838                 *        the source end location, so there's no doubt about when
     1224     4839                 *        to stop copying.
     1225     4840                 */
     1226     4841    1           RCCL = -1;  /* Assume not equal (no comparison if files not equal) */
     1227     4842    2           IF SRC_RANGE.ENDD.POSITION# = 0 AND NOT OUTSIDE_SRC_RANGE THEN DO;
     1228     4843                   %GETKEY (KEY=SRC_STREAM.FILE_KEY, PTR=SRC_FILE_KEY$);
     1229     4853                   %GETKEY (KEY=DEST_STREAM.FILE_KEY, PTR=DEST_FILE_KEY$);
     1230     4863    2              IF SRC_FILE_KEY$ -> VD$TEXTC.BYTES =
     1231     4864    3                DEST_FILE_KEY$ -> VD$TEXTC.BYTES THEN DO;
     1232     4865    3                 CALL VDG$COMPARE_LOCS (DEST_RANGE.ENDD, SRC_RANGE.ENDD, RCCL)
     1233     4866    3                   ALTRET (COMPARE_LOCS_FAILED);
     1234     4867    3                 END;
     1235     4868    2              END;
     1236     4869
     1237     4870    1           IF SRC_RANGE.ENDD.EOF  OR
     1238     4871    2             RCCL = %RCCL_EQUAL THEN DO;
     1239     4872    2              CALL VDA$LREAD (SRC_STREAM, SRC_RANGE.ENDD, -1, %FALSE)
     1240     4873    2                ALTRET (LREAD_FAILED);
     1241     4874    2              CALL VDG$OCLEAR_LOCATION (SRC_RANGE.ENDD)
     1242     4875    2                ALTRET (OCLEAR_LOCATION_FAILED);
     1243     4876    2              IF SRC_RANGE.START.EOF THEN   /* Src file is empty */
     1244     4877    2                 SRC_RANGE.ENDD.EOF = %TRUE;
     1245     4878    3              ELSE DO;
     1246     4879                      /* Add .001 to last key actually enclosed by SRC_RANGE */
     1247     4880                      %COPYKEY (FKEY=SRC_STREAM.CURRENT.KEY, FINDX=SRC_LEVEL-1,
     1248     4881                      TKEY=SRC_RANGE.ENDD.KEY, TINDX=SRC_LEVEL-1);
     1249     4897    3                 ADDR(SRC_RANGE.ENDD.KEY (SRC_LEVEL-1)) -> VD$KEY_NUMBER.BYTES# =
     1250     4898    3                   ADDR(SRC_RANGE.ENDD.KEY (SRC_LEVEL-1)) ->
     1251     4899    3                   VD$KEY_NUMBER.BYTES# + %MN_EDITKEY_FRACT;
     1252     4900    3                 END;
     1253     4901    2              END;
PL6.E3A0      #003=VDI$BINSERT File=VDI$BLOCK.:VDA5TSI                           FRI 07/04/97 11:28 Page:131
     1254     4902
     1255     4903                /*
     1256     4904                *   ADJUST_INCREMENT probably repositioned the source stream.
     1257     4905                *   Resposition it back to the first src record (as tho we'd
     1258     4906                *       just read the first src record).
     1259     4907                */
     1260     4908    1           IF NOT OUTSIDE_SRC_RANGE THEN
     1261     4909    1              CALL VDA$LREAD (SRC_STREAM, SRC_RANGE.START, 0, %DONT_READ_RECORD)
     1262     4910    1                ALTRET (LREAD_FAILED);
     1263     4911
     1264     4912
     1265     4913                %BOX (TITLE="Main Loop");

              4925    1   /***************************************************************************
              4927    1    *                                                                         *
              4931    1            *                                 Main Loop                               *
              4933    1            *                                                                         *
              4935    1           ***************************************************************************/

     1266     4939
     1267     4940                /*
     1268     4941                *   Loop while we have a [partial] record to write.
     1269     4942                */
     1270     4943    1           VD_$RECORDS_INSERTED.V# = 0;
     1271     4944
     1272     4945    1   MAIN_LOOP:
     1273     4946    2           DO WHILE RECORD.DATA$ ~= ADDR(NIL);
     1274     4947    3              IF NOT RECORD.EOR THEN DO;
     1275     4948                      /*
     1276     4949                      *  Source record has no EOR:  must be last in source block.
     1277     4950                      *  Append DEST_RIGHT to it.
     1278     4951                      */
     1279     4952    3                 END_POS_OF_INSERTED_DATA = RECORD$DATA.LENGTH#;
     1280     4953    4                 IF DEST_RIGHT$ ~= ADDR(NIL) THEN DO;
     1281     4954    4                    RECORD.EOR = DEST_EOR; /* destRight, if used, may have EOR */
     1282     4955    4                    IF DEST_EXISTS THEN EXIT;
     1283     4956                         /*
PL6.E3A0      #003=VDI$BINSERT File=VDI$BLOCK.:VDA5TSI                           FRI 07/04/97 11:28 Page:132
     1284     4957                         * Always write an existing record with its original key
     1285     4958                         */
     1286     4959                         %CLEARKEY (KEY=RECORD.KEY);
     1287     4969                         %COPYKEY (FKEY=DEST_NEXT_KEY, TKEY=RECORD.KEY);
     1288     4985    4                    GENERATE_KEY = %SQ_CURRENT;
     1289     4986    4                    END;
     1290     4987    3                 CALL APPEND (RECORD.DATA$, DEST_RIGHT$) /* NILs DEST_RIGHT$ */
     1291     4988    3                   ALTRET (APPEND_FAILED);
     1292     4989    3                 END;
     1293     4990                   /* Write the source record to the destination */
     1294     4991    2              CALL VDE$RPUT (DEST_STREAM, DEST$EDIT_BLOCK.RANGE, DEST_OPTIONS,
     1295     4992    2                RECORD, GENERATE_KEY, DEST_NEXT_KEY)
     1296     4993    3              WHENALTRETURN DO;
     1297     4994    3                 IF FIRST_TIME_THRU_MAIN_LOOP THEN
     1298     4995    3                    GOTO NOTHING_COPIED;
     1299     4996    3                 ELSE
     1300     4997    3                    GOTO ALTRETURN_FROM_MAIN_LOOP;
     1301     4998    3                 END;
     1302     4999                   /* Save info about this write */
     1303     5000    2              PREVIOUS_SRC_EOR = SRC_EOR;
     1304     5001                   %CLEARKEY (KEY=LAST_COPIED_KEY);
     1305     5011    2              LAST_COPIED_KEY = SRC_KEY_OF_RECORD;
     1306     5012    2              SRC_KEY_OF_RECORD = %CLEAR;
     1307     5013                   %CLEARKEY (KEY=LAST_WRITTEN_KEY);
     1308     5023                   %COPYKEY (FKEY=RECORD.KEY, TKEY=LAST_WRITTEN_KEY);
     1309     5039
     1310     5040                   /* If this is 1st write, see if we need to adjust DEST_RANGE.START */
     1311     5041    2              IF GENERATE_KEY ~= %SQ_CURRENT THEN
     1312     5042    2                 VD_$RECORDS_INSERTED.V# = VD_$RECORDS_INSERTED.V# + 1;
     1313     5043    2              IF FIRST_TIME_THRU_MAIN_LOOP
     1314     5044    3                AND (GENERATE_KEY ~= %SQ_CURRENT OR NOT SRC_EOR) THEN DO;
     1315     5045                      /* We didn't write the first record at dest end location */
     1316     5046    3                 IF DEST_LEVEL > %LVL_EXT_REC
     1317     5047    4                   AND DEST_RANGE.START.KEY = %CLEAR THEN DO;
     1318     5048    4                    CALL VDG$OCOPY_LOCATION (DEST$EDIT_BLOCK.RANGE.START,
     1319     5049    4                      DEST_RANGE.START)
     1320     5050    4                      ALTRET (OCOPY_LOCATION_FAILED);
PL6.E3A0      #003=VDI$BINSERT File=VDI$BLOCK.:VDA5TSI                           FRI 07/04/97 11:28 Page:133
     1321     5051    4                    END;
     1322     5052    3                 DEST_RANGE.START.EOF = %FALSE;
     1323     5053                      %CLEARKEY (KEY=DEST_RANGE.START.KEY, INDX=DEST_LEVEL-1);
     1324     5063                      %COPYKEY (FKEY=RECORD.KEY,
     1325     5064                      TKEY=DEST_RANGE.START.KEY, TINDX=DEST_LEVEL-1);
     1326     5080    3                 DEST_RANGE.START.POSITION# = DEST_LEFT_LENGTH;
     1327     5081    3                 END;
     1328     5082    2              FIRST_TIME_THRU_MAIN_LOOP = %FALSE;
     1329     5083
     1330     5084                   /* Always generate keys after first write */
     1331     5085    2              GENERATE_KEY = %SQ_NEXT;
     1332     5086
     1333     5087                   /* Get next source record */
     1334     5088    3              IF OUTSIDE_SRC_RANGE THEN DO;
     1335     5089                      %CLEARKEY (KEY=RECORD.KEY);
     1336     5099    3                 SRC_EOR = '0'B;
     1337     5100    3                 END;
     1338     5101    3              ELSE DO;
     1339     5102    3                 CALL VDA$LREAD (SRC_STREAM, , 1, %READ_RECORD)
     1340     5103    3                   ALTRET (ALTRETURN_FROM_MAIN_LOOP);
     1341     5104    3                 CALL VDE$RGET (SRC_STREAM, SRC_RANGE, RECORD)
     1342     5105    3                   ALTRET (ALTRETURN_FROM_MAIN_LOOP);
     1343     5106    3                 SRC_EOR = RECORD.EOR;
     1344     5107    3                 END;
     1345     5108
     1346     5109    3              IF RECORD.KEY = %CLEAR THEN DO;
     1347     5110                      /*
     1348     5111                      *   We're outside source range now:
     1349     5112                      *   Load RECORD from DEST_RIGHT, if any.
     1350     5113                      */
     1351     5114    3                 OUTSIDE_SRC_RANGE = %TRUE;
     1352     5115    3                 IF DEST_RIGHT$ ~= ADDR(NIL) THEN
     1353     5116    3                    RECORD.EOR = DEST_EOR; /* destRight, if used, may have EOR */
     1354     5117    3                 IF DEST_EXISTS THEN /* Only write it if we split one */
     1355     5118    3                    RECORD.DATA$ = DEST_RIGHT$;
     1356     5119    3                 DEST_RIGHT$ = ADDR(NIL);
     1357     5120    3                 END;
PL6.E3A0      #003=VDI$BINSERT File=VDI$BLOCK.:VDA5TSI                           FRI 07/04/97 11:28 Page:134
     1358     5121    3              ELSE DO;
     1359     5122                      /*
     1360     5123                      *   Still have src records to process.
     1361     5124                      *   Previous source record should have had EOR set.
     1362     5125                      *   SRC_KEY_OF_RECORD should be %CLEAR at this point.
     1363     5126                      */
     1364     5127    4                 IF NOT PREVIOUS_SRC_EOR THEN DO;
     1365     5128    4                    CALL VDG$ESCREECH;
     1366     5129    4                    END;
     1367     5130    3                 SRC_KEY_OF_RECORD = RECORD.KEY;
     1368     5131    3                 END;
     1369     5132                   %COPYKEY (FKEY=LAST_WRITTEN_KEY, TKEY=RECORD.KEY);
     1370     5148
     1371     5149    2              END MAIN_LOOP;
     1372     5150
     1373     5151
     1374     5152                %BOX (TITLE="End of Main Loop");

              5164    2   /***************************************************************************
              5166    2    *                                                                         *
              5170    2            *                              End of Main Loop                           *
              5172    2            *                                                                         *
              5174    2           ***************************************************************************/

     1375     5178
     1376     5179                /* Set DEST_RANGE.ENDD to point to the end of the inserted data */
     1377     5180    1           CALL SET_DEST_END
     1378     5181    1             ALTRET (SET_DEST_END_FAILED);
     1379     5182
     1380     5183                /* Free up any owned objects we don't need anymore */
     1381     5184    1           CALL CLEANUP
     1382     5185    1             ALTRET (CLEANUP_FAILED);
     1383     5186
     1384     5187    1           RETURN;
     1385     5188
     1386     5189
     1387     5190
PL6.E3A0      #003=VDI$BINSERT File=VDI$BLOCK.:VDA5TSI                           FRI 07/04/97 11:28 Page:135
     1388     5191        /*
     1389     5192        *   Nothing was copied, due to an error.
     1390     5193        *   Save the SRC_RANGE in $NOT_COPIED.
     1391     5194        *   Set SRC_RANGE to "what was successfully copied":  an empty range at
     1392     5195        *       the SRC_RANGE.START location.
     1393     5196        *   DEST_RANGE should already be set to an empty range at the DEST_RANGE.ENDD
     1394     5197        *       location.
     1395     5198        */
     1396     5199    1   NOTHING_COPIED:
     1397     5200    1           CALL SAVE_NOT_COPIED (SRC_RANGE)
     1398     5201    1             ALTRET (SAVE_NOT_COPIED_FAILED);
     1399     5202    1           CALL VDG$OCLEAR_LOCATION (SRC_RANGE.ENDD)
     1400     5203    1             ALTRET (OCLEAR_LOCATION_FAILED);
     1401     5204    1           CALL VDG$OCOPY_LOCATION (SRC_RANGE.START, SRC_RANGE.ENDD)
     1402     5205    1             ALTRET (OCOPY_LOCATION_FAILED);
     1403     5206    1           CALL CLEANUP
     1404     5207    1             ALTRET (CLEANUP_FAILED);
     1405     5208    1           ALTRETURN;
     1406     5209
     1407     5210
     1408     5211        /*
     1409     5212        *   Bombed out of main loop.
     1410     5213        *   To get here, we must already have written the first record to the
     1411     5214        *       destination.  Therefore, before we altreturn we have to adjust
     1412     5215        *       SRC_RANGE, DEST_RANGE, and save anything that needs saving in
     1413     5216        *       $LEFTOVER and/or $NOT_COPIED.
     1414     5217        */
     1415     5218    1   ALTRETURN_FROM_MAIN_LOOP: ;
     1416     5219    1           IF LAST$ERR.FLAGLEV# < %FLV_FATAL THEN
     1417     5220    1              CALL ABORT_INSERTION;
     1418     5221    1           CALL CLEANUP
     1419     5222    1             ALTRET (CLEANUP_FAILED);
     1420     5223    1           ALTRETURN;
     1421     5224
     1422     5225
     1423     5226
     1424     5227    1   LREAD_FAILED: ;
PL6.E3A0      #003=VDI$BINSERT File=VDI$BLOCK.:VDA5TSI                           FRI 07/04/97 11:28 Page:136
     1425     5228    1   RGET_FAILED: ;
     1426     5229    1   PREPARE_DESTINATION_FAILED: ;
     1427     5230    1   ADJUST_INCREMENT_FAILED: ;
     1428     5231    1   BAUTO_REKEY_FAILED: ;
     1429     5232    1   APPEND_FAILED: ;
     1430     5233    1   LDELETE_FAILED: ;
     1431     5234    1   SET_DEST_END_FAILED: ;
     1432     5235    1           CALL CLEANUP
     1433     5236    1             ALTRET (CLEANUP_FAILED);
     1434     5237    1           ALTRETURN;
     1435     5238
     1436     5239
     1437     5240    1   COMPARE_LOCS_FAILED: ;
     1438     5241    1   OCLEAR_LOCATION_FAILED: ;
     1439     5242    1   OFREE_FAILED: ;
     1440     5243    1   OCOPY_LOCATION_FAILED: ;
     1441     5244    1   SAVE_NOT_COPIED_FAILED: ;
     1442     5245    1   CLEANUP_FAILED: ;
     1443     5246    1           ALTRETURN;
     1444     5247
     1445     5248        %BOX (TITLE=SET_DEST_END, PAGE=YES);
              5256    1
              5260    1   /***************************************************************************
              5262    1    *                                                                         *
              5266    1            *                                SET_DEST_END                             *
              5268    1            *                                                                         *
              5270    1           ***************************************************************************/

     1446     5274
     1447     5275        /*I* NAME: SET_DEST_END
     1448     5276            PARAMETERS:
     1449     5277                None.
     1450     5278            INPUT:
     1451     5279                DEST_RANGE.START is presumed to already have been set to the start
     1452     5280                    of the inserted data in the destination.
     1453     5281                DEST_RANGE.ENDD - The given destination location.
     1454     5282                PREVIOUS_SRC_EOR - Setting of EOR bit from previous source record
PL6.E3A0      #003=VDI$BINSERT File=VDI$BLOCK.:VDA5TSI                           FRI 07/04/97 11:28 Page:137
     1455     5283                    (which has already been copied to the destination).
     1456     5284                DEST_NEXT_KEY - Key of next existing record in the destination after
     1457     5285                    where we're inserting records.  Must not be %CLEAR:  if we're
     1458     5286                    inserting at EOF then DEST_NEXT_KEY should contain MAX_EDITKEY.
     1459     5287                LAST_WRITTEN_KEY - Last key written to the destination.  Must not be
     1460     5288                    %CLEAR.
     1461     5289                END_POS_OF_INSERTED_DATA - Just what it says.  Only non-0 if we've
     1462     5290                    read a record from the source block which didn't include EOR
     1463     5291                    (so therefore must be the last source record), in which case
     1464     5292                    END_POS_OF_INSERTED_DATA is the length of that last source record.
     1465     5293            OUTPUT:
     1466     5294                DEST_RANGE.ENDD is set appropriately.
     1467     5295            DESCRIPTION:
     1468     5296                Change DEST_RANGE.ENDD to specify end of block just inserted.
     1469     5297                (DEST_RANGE.START has already be set to start of inserted block.)
     1470     5298                If PREVIOUS_SRC_EOR is set, the inserted block ends at BOR of
     1471     5299                    DEST_NEXT_KEY.
     1472     5300                If PREVIOUS_SRC_EOR is not set, inserted block ends at position
     1473     5301                    END_POS_OF_INSERTED_DATA, key LAST_WRITTEN_KEY.
     1474     5302        */
     1475     5303
     1476     5304    1   SET_DEST_END: PROC ALTRET;
     1477     5305
     1478     5306
     1479     5307    2   DCL DEST_NEXT_KEY$ PTR;
     1480     5308
     1481     5309
     1482     5310        %VD$TEXTC_NUMBER (NAME=DEST$NEXT_KEY, STCLASS="BASED(DEST_NEXT_KEY$)");
     1483     5324        %VD$XLATE_LOCATIONS (NAME=XLATE$LOC, STCLASS=AUTO);
     1484     5460
     1485     5461
     1486     5462
     1487     5463    2           CALL VDG$OCLEAR_LOCATION (DEST_RANGE.ENDD)
     1488     5464    2             ALTRET (OCLEAR_LOCATION_FAILED);
     1489     5465
     1490     5466    3           IF DEST_LEVEL > %LVL_EXT_REC THEN DO;
     1491     5467                   /* Fill in key levels above level we're working at */
PL6.E3A0      #003=VDI$BINSERT File=VDI$BLOCK.:VDA5TSI                           FRI 07/04/97 11:28 Page:138
     1492     5468    3              CALL VDG$OCOPY_LOCATION (DEST$EDIT_BLOCK.RANGE.START,
     1493     5469    3                DEST_RANGE.ENDD)
     1494     5470    3                ALTRET (OCOPY_LOCATION_FAILED);
     1495     5471                   %CLEARKEY (KEY=DEST_RANGE.ENDD.KEY, INDX=DEST_LEVEL-1);
     1496     5481    3              END;
     1497     5482
     1498     5483    3           IF PREVIOUS_SRC_EOR THEN DO;
     1499     5484                   %GETKEY (KEY=DEST_NEXT_KEY, PTR=DEST_NEXT_KEY$);
     1500     5494    3              IF DEST_NEXT_KEY.TYPE# = %KT_EDITKEY
     1501     5495    4                AND DEST$NEXT_KEY.BYTES# >= %MX_EDITKEY THEN DO;
     1502     5496    4                 CALL VDG$OCLEAR_LOCATION (DEST_RANGE.ENDD)
     1503     5497    4                   ALTRET (OCLEAR_LOCATION_FAILED);
     1504     5498    4                 DEST_RANGE.ENDD.EOF = %TRUE;
     1505     5499    4                 RETURN; /* No XLATE needed if inserting at EOF */
     1506     5500    4                 END;
     1507     5501    4              ELSE DO;
     1508     5502    4                 DEST_RANGE.ENDD.KEY (DEST_LEVEL-1) = DEST_NEXT_KEY;
     1509     5503    4                 DEST_NEXT_KEY = %CLEAR;
     1510     5504    4                 END;
     1511     5505    3              END;
     1512     5506    3           ELSE DO;
     1513     5507    3              DEST_RANGE.ENDD.KEY (DEST_LEVEL-1) = LAST_WRITTEN_KEY;
     1514     5508    3              LAST_WRITTEN_KEY = %CLEAR;
     1515     5509    3              DEST_RANGE.ENDD.POSITION# = END_POS_OF_INSERTED_DATA;
     1516     5510    3              END;
     1517     5511
     1518     5512    2           XLATE$LOC = %CLEAR;
     1519     5513    2           XLATE$LOC.FILE_KEY = DEST$EDIT_BLOCK.FILE_KEY;
     1520     5514    2           XLATE$LOC.LEVEL# = DEST_LEVEL;
     1521     5515    2           XLATE$LOC.PREFIX.KEY = DEST$EDIT_BLOCK.RANGE.START.KEY;
     1522     5516    2           IF DEST$EDIT_BLOCK.RANGE.ENDD.POSITION# ~= 0 THEN
     1523     5517    2              DEST$EDIT_BLOCK.RANGE.ENDD.EOF = %FALSE;
     1524     5518
     1525     5519    2           XLATE$LOC.PREFIX.KEY(DEST_LEVEL-1) = %CLEAR;
     1526     5520    2           XLATE$LOC.FLINK$ = ADDR(NIL);
     1527     5521    2           XLATE$LOC.N_ENTRIES# = 1;
     1528     5522    2           XLATE$LOC.XLATES.NEW_KEY(0) = DEST_RANGE.ENDD.KEY(DEST_LEVEL-1);
PL6.E3A0      #003=VDI$BINSERT File=VDI$BLOCK.:VDA5TSI                           FRI 07/04/97 11:28 Page:139
     1529     5523    3           IF DEST_EXISTS OR PREVIOUS_SRC_EOR THEN DO;
     1530     5524                   /*
     1531     5525                   The insert point existed before, or it doesn't matter
     1532     5526                   So DEST_RANGE.START will catch anything that matters.
     1533     5527                   */
     1534     5528    3              XLATE$LOC.XLATES.OLD_POS_LO#(0) = DEST_RANGE.START.POSITION#;
     1535     5529    3              XLATE$LOC.XLATES.OLD_POS_HI#(0) = DEST_RANGE.START.POSITION#;
     1536     5530    3              XLATE$LOC.XLATES.OLD_KEY_LO(0) = DEST_RANGE.START.KEY(DEST_LEVEL-1);
     1537     5531    3              END;
     1538     5532                /*
     1539     5533                * The insert started at a hole in the file, but ends by shifting
     1540     5534                * the next record some.  Make sure we adjust positions on that
     1541     5535                * record (e.g. "CO ST 'hole%Rindent' AF BO CURR")
     1542     5536                */
     1543     5537    2           ELSE XLATE$LOC.XLATES.OLD_KEY_LO(0) = XLATE$LOC.XLATES.NEW_KEY(0);
     1544     5538    2           XLATE$LOC.XLATES.OLD_KEY_HI(0) = XLATE$LOC.XLATES.OLD_KEY_LO(0);
     1545     5539    2           XLATE$LOC.XLATES.NEW_POS#(0) = DEST_RANGE.ENDD.POSITION#;
     1546     5540    2           XLATE$LOC.XLATES.NEW_POS_INCR#(0) =
     1547     5541    2             DEST_RANGE.ENDD.POSITION# - DEST_RANGE.START.POSITION#;
     1548     5542    2           DEST_RANGE.ENDD.EOF = %TRUE; /* Dont let XLATE mess with it */
     1549     5543    2           DEST_RANGE.START.EOF = %TRUE; /* Dont let XLATE mess with it */
     1550     5544    2           CALL VDG$XLATE_LOCATIONS (XLATE$LOC, %XLATE_LOCATION);
     1551     5545    2           DEST_RANGE.START.EOF = %FALSE; /* Restore to the correct value */
     1552     5546    2           DEST_RANGE.ENDD.EOF = %FALSE; /* Restore to the correct value */
     1553     5547    2           RETURN;
     1554     5548
     1555     5549
     1556     5550
     1557     5551    2   OCLEAR_LOCATION_FAILED: ;
     1558     5552    2   OCOPY_LOCATION_FAILED: ;
     1559     5553    2           ALTRETURN;
     1560     5554
     1561     5555    2   END SET_DEST_END;
     1562     5556
     1563     5557        %BOX (TITLE=CLEANUP, PAGE=YES);
              5565    2
              5569    2   /***************************************************************************
PL6.E3A0      #003=VDI$BINSERT File=VDI$BLOCK.:VDA5TSI                           FRI 07/04/97 11:28 Page:140
              5571    2    *                                                                         *
              5575    2            *                                  CLEANUP                                *
              5577    2            *                                                                         *
              5579    2           ***************************************************************************/

     1564     5583
     1565     5584        /*I* NAME: CLEANUP
     1566     5585            PARAMETERS:
     1567     5586                None.
     1568     5587            INPUT:
     1569     5588                The following auto structures may own objects:
     1570     5589                DEST_OPTIONS
     1571     5590                RECORD
     1572     5591                DEST_NEXT_KEY
     1573     5592                SRC_KEY_OF_RECORD
     1574     5593                LAST_COPIED_KEY
     1575     5594                LAST_WRITTEN_KEY
     1576     5595            OUTPUT:
     1577     5596                Any objects owned by auto structures are freed.
     1578     5597            DESCRIPTION:
     1579     5598                Before leaving VDI$BINSERT for any non-fatal reason, CLEANUP should
     1580     5599                be called to free any objects we allocated for our temporary use.
     1581     5600        */
     1582     5601
     1583     5602    1   CLEANUP: PROC ALTRET;
     1584     5603
     1585     5604                %CLEARKEY (KEY=DEST_OPTIONS.KEY_INCR);
     1586     5614
     1587     5615                %CLEARKEY (KEY=RECORD.KEY);
     1588     5625                %CLEARSPEC (SPEC=RECORD.SPEC);
     1589     5635    3           IF RECORD.DATA$ ~= ADDR(NIL) THEN DO;
     1590     5636    3              CALL VDG$OFREE (RECORD$DATA)
     1591     5637    4              WHENALTRETURN DO; ALTRETURN; END;
     1592     5638    3              END;
     1593     5639
     1594     5640                %CLEARKEY (KEY=DEST_NEXT_KEY);
     1595     5650                %CLEARKEY (KEY=SRC_KEY_OF_RECORD);
PL6.E3A0      #003=VDI$BINSERT File=VDI$BLOCK.:VDA5TSI                           FRI 07/04/97 11:28 Page:141
     1596     5660                %CLEARKEY (KEY=LAST_COPIED_KEY);
     1597     5670                %CLEARKEY (KEY=LAST_WRITTEN_KEY);
     1598     5680
     1599     5681    2           RETURN;
     1600     5682
     1601     5683    2   END CLEANUP;
     1602     5684
     1603     5685        %BOX (TITLE=ADJUST_INCREMENT, PAGE=YES);
              5693    2
              5697    2   /***************************************************************************
              5699    2    *                                                                         *
              5703    2            *                              ADJUST_INCREMENT                           *
              5705    2            *                                                                         *
              5707    2           ***************************************************************************/

     1604     5711
     1605     5712        /*I* NAME: ADJUST_INCREMENT
     1606     5713            PARAMETER:
     1607     5714                INCR - VD$KEY containing the default increment for this block
     1608     5715                    expression; must be type %KT_EDITKEY.
     1609     5716                    %CLEAR if no default for this expression.
     1610     5717            INPUT:
     1611     5718                DEST_NEXT_KEY - Key of the existing record following the location we'll
     1612     5719                    start inserting at.  If we're inserting at EOF, DEST_NEXT_KEY
     1613     5720                    should contain MAX_EDITKEY; it should never be %CLEAR.
     1614     5721                RECORD.KEY - Key at which we'll start writing records to the
     1615     5722                    destination.
     1616     5723                SRC_RANGE - Range of the source block.
     1617     5724                SRC_STREAM - VD$STREAM open to the source block.
     1618     5725            OUTPUT:
     1619     5726                INCR will contain the key increment to use when generating record keys
     1620     5727                    for writing to the destination.  If INCR = %CLEAR, we couldn't
     1621     5728                    find an increment which would work; either the destination will
     1622     5729                    have to be rekeyed, or we'll get a cutoff error if we try to do
     1623     5730                    the insertion anyway (with some other increment).
     1624     5731                DEST_KEY_SPACE will contain the maximum number of keys which could be
     1625     5732                    generated between RECORD.KEY and DEST_NEXT_KEY (using an increment
PL6.E3A0      #003=VDI$BINSERT File=VDI$BLOCK.:VDA5TSI                           FRI 07/04/97 11:28 Page:142
     1626     5733                    of .001).  This information is needed by VDI$BAUTO_REKEY.
     1627     5734                SRC_STREAM has been repositioned.
     1628     5735            DESCRIPTION:
     1629     5736                (AF 1021B also discusses this algorthm.)
     1630     5737                Calculate DEST_KEY_SPACE.
     1631     5738                If INCR is %CLEAR, set it to the default key increment, from $BY.
     1632     5739                Determine if INCR will allow at least one record to be copied; that is,
     1633     5740                    is INCR < DEST_KEY_SPACE?  If not, then adjust INCR downward to
     1634     5741                    the number less than DEST_KEY_SPACE whose first non-0 digit is
     1635     5742                    1, 2, or 5, with all other digits being 0; e.g:
     1636     5743
     1637     5744                        If DEST_KEY_SPACE is:   then change INCR to:
     1638     5745                        ---------------------   --------------------
     1639     5746                          17.0                    10.0
     1640     5747                           1.2                     1.0
     1641     5748                            .030                    .020
     1642     5749                            .020                    .010
     1643     5750                            .010                    .005
     1644     5751                            etc.                    etc.
     1645     5752
     1646     5753                Loop until either INCR "fits" or we "give up":
     1647     5754                    A.  Compute the max number of records we can fit using INCR; this
     1648     5755                            is:  DEST_KEY_SPACE / INCR.
     1649     5756                    B.  Read forward from SRC_RANGE.START the number of records
     1650     5757                            computed in step A.
     1651     5758
     1652     5759                        If the resulting record key is beyond SRC_RANGE.ENDD, then
     1653     5760                            this value of INCR "fits":  exit the loop.
     1654     5761
     1655     5762                        If the resulting record key is not beyond SRC_RANGE.ENDD:
     1656     5763                                adjust INCR downward to the next lower number whose
     1657     5764                                first non-0 digit is 1, 2, or 5, with all other digits
     1658     5765                                being 0.
     1659     5766                                If that yields 0, then "give up":  we can't find a
     1660     5767                                key increment that will work.
     1661     5768                            Loop back to step A above, using the new value for INCR.
     1662     5769        */
PL6.E3A0      #003=VDI$BINSERT File=VDI$BLOCK.:VDA5TSI                           FRI 07/04/97 11:28 Page:143
     1663     5770
     1664     5771    1   ADJUST_INCREMENT: PROC (INCR) ALTRET;
     1665     5772
     1666     5773        %VD$KEY_NUMBER (NAME=INCR, STCLASS=PARAM);
     1667     5788        %VD$NODE_DESC (NAME=LAST_SRC_RECORD, STCLASS=AUTO);
     1668     5830
     1669     5831
     1670     5832    2   DCL DEST_NEXT_KEY$ PTR;
     1671     5833    2   DCL RECORD_KEY$ PTR;
     1672     5834    2   DCL SRC_START_KEY$ PTR;
     1673     5835    2   DCL SRC_END_KEY$ PTR;
     1674     5836    2   DCL INCREMENT SBIN;
     1675     5837    2   DCL MAX_RECS_CAN_FIT SBIN;
     1676     5838    2   DCL SRC_STREAM_KEY$ PTR;
     1677     5839
     1678     5840
     1679     5841        %VD$TEXTC_NUMBER (NAME=DEST$NEXT_KEY, STCLASS="BASED(DEST_NEXT_KEY$)");
     1680     5855        %VD$TEXTC_NUMBER (NAME=RECORD$KEY, STCLASS="BASED(RECORD_KEY$)");
     1681     5869        %VD$TEXTC (NAME=SRC$START_KEY, STCLASS="BASED(SRC_START_KEY$)");
     1682     5892        %VD$TEXTC (NAME=SRC$END_KEY, STCLASS="BASED(SRC_END_KEY$)");
     1683     5915        %VD$TEXTC (NAME=SRC$STREAM_KEY, STCLASS="BASED(SRC_STREAM_KEY$)");
     1684     5938
     1685     5939
     1686     5940
     1687     5941    3           IF INCR = %CLEAR THEN DO;
     1688     5942                   /* User gave no increment for this block expression */
     1689     5943    3              INCR.TYPE# = %KT_EDITKEY;
     1690     5944    3              INCR.REP# = %REP_LOCAL;
     1691     5945    3              INCR.LENGTH# = %NB_NUMERIC_KEY;
     1692     5946    3              IF VD_$BY.V# ~= 0 THEN INCR.BYTES# = VD_$BY.V#;
     1693     5947    3              ELSE INCR.BYTES# = %DFLT_$BY;
     1694     5948    3              END;
     1695     5949
     1696     5950                %GETKEY (KEY=RECORD.KEY, PTR=RECORD_KEY$);
     1697     5960
     1698     5961                /* Don't generate a key of 0.000 unless we need to.  */
     1699     5962
PL6.E3A0      #003=VDI$BINSERT File=VDI$BLOCK.:VDA5TSI                           FRI 07/04/97 11:28 Page:144
     1700     5963    2           IF (RECORD$KEY.BYTES# = %MN_EDITKEY) AND NOT (DEST_EXISTS) THEN
     1701     5964    2              GENERATE_KEY = %SQ_NEXT;
     1702     5965                %GETKEY (KEY=DEST_NEXT_KEY, PTR=DEST_NEXT_KEY$);
     1703     5975    2           DEST_KEY_SPACE = DEST$NEXT_KEY.BYTES# - RECORD$KEY.BYTES#;
     1704     5976    2           IF GENERATE_KEY = %SQ_NEXT THEN
     1705     5977    2              DEST_KEY_SPACE = DEST_KEY_SPACE - 1;
     1706     5978    2           IF DEST_EXISTS AND DEST_RIGHT$ ~= ADDR(NIL) THEN
     1707     5979    2              DEST_KEY_SPACE = DEST_KEY_SPACE - 1;
     1708     5980
     1709     5981    2           IF SRC_RANGE.START.EOF THEN
     1710     5982    2              RETURN;  /* Any increment will do */
     1711     5983
     1712     5984                %GETKEY (KEY=SRC_RANGE.START.KEY, INDX=SRC_LEVEL-1, PTR=SRC_START_KEY$);
     1713     5994                %GETKEY (KEY=SRC_RANGE.ENDD.KEY, INDX=SRC_LEVEL-1, PTR=SRC_END_KEY$);
     1714     6004    2           IF SRC_RANGE.ENDD.EOF THEN
     1715     6005    2              SRC_END_KEY$ = ADDR(VD_KEY_MX_EDITKEY.LENGTH#);
     1716     6006
     1717     6007    2           IF SRC$START_KEY.BYTES >= SRC$END_KEY.BYTES THEN
     1718     6008    2              IF NOT OUTSIDE_SRC_RANGE THEN
     1719     6009    2                 RETURN; /* Any increment will do */
     1720     6010
     1721     6011                /*
     1722     6012                *   Source block includes at least 1 EOR; we'll have to do at least 1
     1723     6013                *       insertion.
     1724     6014                */
     1725     6015
     1726     6016
     1727     6017    2           INCREMENT = INCR.BYTES#;    /* Make word for better performance */
     1728     6018
     1729     6019    3           IF INCREMENT >= DEST_KEY_SPACE THEN DO;
     1730     6020    3              INCREMENT = DEST_KEY_SPACE + 1;  /* Initial value */
     1731     6021    3              CALL NEXT_LOWER_INCR;
     1732     6022    3              END;
     1733     6023
     1734     6024    2           MAX_RECS_CAN_FIT = 1;
     1735     6025    2           SRC_STREAM_KEY$ = SRC_START_KEY$;
     1736     6026
PL6.E3A0      #003=VDI$BINSERT File=VDI$BLOCK.:VDA5TSI                           FRI 07/04/97 11:28 Page:145
     1737     6027    2           IF NOT OUTSIDE_SRC_RANGE THEN
     1738     6028    2   LOOP:
     1739     6029    3           DO WHILE INCREMENT > 0;
     1740     6030
     1741     6031    3              MAX_RECS_CAN_FIT = DEST_KEY_SPACE / INCREMENT;
     1742     6032    3              CALL VDA$LREAD (SRC_STREAM, SRC_RANGE.START, MAX_RECS_CAN_FIT,
     1743     6033    3                %DONT_READ_RECORD) ALTRET (LREAD_FAILED);
     1744     6034    3              IF SRC_STREAM.CURRENT.EOF THEN
     1745     6035    3                 EXIT LOOP; /* Hit EOF:  INCREMENT fits ok */
     1746     6036                   %GETKEY (KEY=SRC_STREAM.CURRENT.KEY, INDX=SRC_LEVEL-1,
     1747     6037                   PTR=SRC_STREAM_KEY$);
     1748     6047
     1749     6048    3              IF (SRC$STREAM_KEY.BYTES >= SRC$END_KEY.BYTES) THEN
     1750     6049    3                 EXIT LOOP;    /* Current INCR fits all recs from source */
     1751     6050    3              CALL NEXT_LOWER_INCR;
     1752     6051    3              END LOOP;
     1753     6052
     1754     6053                /* If INCREMENT <= 0, we failed to find an increment */
     1755     6054    3           IF INCREMENT > 0 THEN DO;
     1756     6055                   /* Return INCREMENT in INCR */
     1757     6056    3              INCR.BYTES# = INCREMENT;
     1758     6057    3              RETURN;
     1759     6058    3              END;
     1760     6059
     1761     6060                /* Just to make rekey's job easier, count the source records */
     1762     6061
     1763     6062    2           INCREMENT = MAXIMUM (MAX_RECS_CAN_FIT,4);
     1764     6063    2           IF NOT OUTSIDE_SRC_RANGE THEN
     1765     6064    2   COUNT_LOOP:
     1766     6065    3           DO %FOREVER;
     1767     6066    3              IF SRC_STREAM.CURRENT.EOF
     1768     6067    4                OR SRC$STREAM_KEY.BYTES > SRC$END_KEY.BYTES THEN DO;
     1769     6068    4                 IF INCREMENT >= MAX_RECS_CAN_FIT THEN
     1770     6069    4                    INCREMENT = (INCREMENT + 1) / 2;
     1771     6070    4                 IF INCREMENT = 1 THEN EXIT COUNT_LOOP;
     1772     6071    4                 INCREMENT = (INCREMENT + 1) / 2;
     1773     6072    4                 MAX_RECS_CAN_FIT = MAX_RECS_CAN_FIT - INCREMENT;
PL6.E3A0      #003=VDI$BINSERT File=VDI$BLOCK.:VDA5TSI                           FRI 07/04/97 11:28 Page:146
     1774     6073    4                 END;
     1775     6074    4              ELSE DO;
     1776     6075    5                 IF INCREMENT >= MAX_RECS_CAN_FIT THEN DO;
     1777     6076    5                    INCREMENT = MAX_RECS_CAN_FIT + INCREMENT;
     1778     6077    5                    MAX_RECS_CAN_FIT = INCREMENT;
     1779     6078    5                    END;
     1780     6079    5                 ELSE DO;
     1781     6080    5                    INCREMENT = (INCREMENT + 1) / 2;
     1782     6081    5                    MAX_RECS_CAN_FIT = MAX_RECS_CAN_FIT + INCREMENT;
     1783     6082    5                    END;
     1784     6083    4                 END;
     1785     6084
     1786     6085    3              CALL VDA$LREAD (SRC_STREAM, SRC_RANGE.START, MAX_RECS_CAN_FIT,
     1787     6086    3                %DONT_READ_RECORD) ALTRET (LREAD_FAILED);
     1788     6087                   %GETKEY (KEY=SRC_STREAM.CURRENT.KEY, INDX=SRC_LEVEL-1,
     1789     6088                   PTR=SRC_STREAM_KEY$);
     1790     6098    3              END COUNT_LOOP;
     1791     6099
     1792     6100    2           INCR.TYPE# = 0;
     1793     6101    2           DEST_KEY_SPACE = MAX_RECS_CAN_FIT;
     1794     6102    2           RETURN;
     1795     6103
     1796     6104
     1797     6105    2   LREAD_FAILED: ;
     1798     6106    2   RGET_FAILED: ;
     1799     6107    2           ALTRETURN;
     1800     6108
     1801     6109        %BOX (TITLE=NEXT_LOWER_INCR);

              6121    2   /***************************************************************************
              6123    2    *                                                                         *
              6127    2            *                              NEXT_LOWER_INCR                            *
              6129    2            *                                                                         *
              6131    2           ***************************************************************************/

     1802     6135
     1803     6136        /*I** NAME: NEXT_LOWER_INCR
PL6.E3A0      #003=VDI$BINSERT File=VDI$BLOCK.:VDA5TSI                           FRI 07/04/97 11:28 Page:147
     1804     6137            PARAMETERS:
     1805     6138            INPUT:
     1806     6139            OUTPUT:
     1807     6140                INCREMENT will be changed; it will contain the next lower number which
     1808     6141                    ends in 0, 1, 2, or 5.  If INCR is initially <= 0 or then
     1809     6142                    next lower number is <= 0, INCR will be returned containing 0.
     1810     6143            DESCRIPTION:
     1811     6144                Look up the next lower 1/2/5 increment in a table, and return it.
     1812     6145        */
     1813     6146
     1814     6147    2   NEXT_LOWER_INCR: PROC;
     1815     6148
     1816     6149
     1817     6150    3   DCL INCR_521_TABLE (0:25) SBIN CONSTANT
     1818     6151    3       INIT (100000000,
     1819     6152    3           50000000, 20000000, 10000000,   5000000, 2000000, 1000000,
     1820     6153    3           500000, 200000, 100000,         50000, 20000, 10000,
     1821     6154    3           5000, 2000, 1000,               500, 200, 100,
     1822     6155    3           50, 20, 10,                     5, 2, 1,
     1823     6156    3           0);
     1824     6157
     1825     6158    3   DCL TABLE_INDEX SBIN;
     1826     6159
     1827     6160
     1828     6161    4           DO TABLE_INDEX = 0 TO 24;
     1829     6162    4              IF INCREMENT > INCR_521_TABLE (TABLE_INDEX) THEN EXIT;
     1830     6163    4              END;
     1831     6164
     1832     6165    3           INCREMENT = INCR_521_TABLE (TABLE_INDEX);
     1833     6166    3           RETURN;
     1834     6167
     1835     6168    3   END NEXT_LOWER_INCR;
     1836     6169
     1837     6170    2   END ADJUST_INCREMENT;
     1838     6171
     1839     6172        %BOX (TITLE=PREPARE_DESTINATION, PAGE=YES);
              6180    2
PL6.E3A0      #003=VDI$BINSERT File=VDI$BLOCK.:VDA5TSI                           FRI 07/04/97 11:28 Page:148
              6184    2   /***************************************************************************
              6186    2    *                                                                         *
              6190    2            *                            PREPARE_DESTINATION                          *
              6192    2            *                                                                         *
              6194    2           ***************************************************************************/

     1840     6198
     1841     6199        /*I* NAME: PREPARE_DESTINATION
     1842     6200            INPUT:
     1843     6201                FIRST_SRC_RECORD - VD$NODE_DESC containing the first/only record from
     1844     6202                    the source block.
     1845     6203                DEST_STREAM - VD$STREAM open to destination file.
     1846     6204                DEST$EDIT_BLOCK - EditBlock containing the destination block.
     1847     6205                DEST_RANGE - Range of destination block.
     1848     6206                    .START must already be set to be a copy of .ENDD.
     1849     6207                DEST_RANGE_TYPE - %BDT_ code for DEST_RANGE.
     1850     6208                DEST_LEVEL - Level in file structure of the destination block.
     1851     6209            OUTPUT:
     1852     6210                RECORD.SPEC, .DATA, and .EOR will be set from destLeft, if any.
     1853     6211                    If no destLeft, these fields will be %CLEAR/NIL.
     1854     6212                RECORD.KEY will contain the key to be used for the first write (or
     1855     6213                    as the base for generating a new SQ_NEXT key on the first write).
     1856     6214                    If we should insert the source block in front of the given
     1857     6215                    destination key, RECORD.KEY will contain the key of the existing
     1858     6216                    record just prior to the given destination key.
     1859     6217                DEST_LEFT_LENGTH will contain the length of the destLeft portion of
     1860     6218                    the destination record; 0 if none.
     1861     6219                DEST_NEXT_KEY will contain the key of the record following RECORD.KEY.
     1862     6220                    If the given dest key is the last or beyond the last record in
     1863     6221                    the file, DEST_NEXT_KEY will be set to MAX_EDITKEY.
     1864     6222                DEST_RIGHT$ will be either NIL, or will point to a VD$BUFFER containing
     1865     6223                    either destRight or destNext.  If it's not NIL, then the data
     1866     6224                    is assumed to include the EOR boundary.
     1867     6225                DEST_EXISTS will be set to true or false, indicating if the given
     1868     6226                    destination key exists in the destination EditBlock or not.
     1869     6227                GENERATE_KEY indicates whether and how to generate a key for the
     1870     6228                    first record written to the destination block:
PL6.E3A0      #003=VDI$BINSERT File=VDI$BLOCK.:VDA5TSI                           FRI 07/04/97 11:28 Page:149
     1871     6229                    %SQ_CURRENT - use RECORD.KEY itself -- don't generate a new key.
     1872     6230                    %SQ_NEXT - generate a key after RECORD.KEY; DEST_NEXT_KEY is
     1873     6231                        the key of the existing record after RECORD.KEY.
     1874     6232                DEST_STREAM has been repositioned.
     1875     6233            DESCRIPTION:
     1876     6234                See if destination record exists, by reading the record at the given
     1877     6235                    destination key; if that key doesn't exist in the file, we'll get
     1878     6236                    the record following the given dest key.
     1879     6237                If the given destination key does exist, separate the record into
     1880     6238                    destLeft and destRight:
     1881     6239                    Set RECORD to destLeft;
     1882     6240                    Set DEST_RIGHT$ to destRight.
     1883     6241                If it doesn't exist, the record we read is actually the destNext
     1884     6242                    record.  Save it in DEST_RIGHT$.
     1885     6243        */
     1886     6244
     1887     6245    1   PREPARE_DESTINATION: PROC ALTRET;
     1888     6246
     1889     6247
     1890     6248
     1891     6249    2   DCL DEST_GIVEN_KEY$ PTR;
     1892     6250    2   DCL RELATIVE SBIN;
     1893     6251    2   DCL RECORD_KEY$ PTR;
     1894     6252    2   DCL DEST_RIGHT_LENGTH SBIN;
     1895     6253    2   DCL ALLOC_WDS SBIN;
     1896     6254
     1897     6255
     1898     6256        %VD$TEXTC (NAME=DEST$GIVEN_KEY, STCLASS="BASED(DEST_GIVEN_KEY$)");
     1899     6279        %VD$TEXTC (NAME=RECORD$KEY, STCLASS="BASED(RECORD_KEY$)");
     1900     6302        %VD$BUFFER (NAME=DEST$RIGHT, STCLASS="BASED(DEST_RIGHT$)");
     1901     6360        %VD$BUFFER (NAME=RECORD$DATA, STCLASS="BASED(RECORD.DATA$)");
     1902     6418
     1903     6419
     1904     6420
     1905     6421    2           DEST_LEFT_LENGTH = 0;
     1906     6422    2           DEST_RIGHT$ = ADDR(NIL);
     1907     6423    2           DEST_EXISTS = %FALSE;       /* Assume given dest key doesn't exist */
PL6.E3A0      #003=VDI$BINSERT File=VDI$BLOCK.:VDA5TSI                           FRI 07/04/97 11:28 Page:150
     1908     6424    2           GENERATE_KEY = %SQ_CURRENT; /* Assume "don't generate key" */
     1909     6425
     1910     6426                %GETKEY (KEY=DEST_RANGE.ENDD.KEY, INDX=DEST_LEVEL-1,
     1911     6427                PTR=DEST_GIVEN_KEY$);
     1912     6437
     1913     6438    2           IF DEST_RANGE.ENDD.EOF THEN
     1914     6439    3   GIVEN_EOF: DO;
     1915     6440                   /*
     1916     6441                   *   Dest ends at EOF:  find last key in file to use as base for
     1917     6442                   *      key generation.
     1918     6443                   */
     1919     6444    3              CALL VDA$LREAD (DEST_STREAM, DEST_RANGE.ENDD, -1, %DONT_READ_RECORD)
     1920     6445    3                ALTRET (LREAD_FAILED);
     1921     6446    3              IF DEST_STREAM.CURRENT.EOF THEN
     1922     6447    3                 RECORD.KEY = VD_KEY_MN_EDITKEY;
     1923     6448    4              ELSE DO;
     1924     6449                      %COPYKEY (FKEY=DEST_STREAM.CURRENT.KEY, FINDX=DEST_LEVEL-1,
     1925     6450                      TKEY=RECORD.KEY);
     1926     6466    4                 END;
     1927     6467    3              GENERATE_KEY = %SQ_NEXT; /* Always generate key */
     1928     6468    3              END GIVEN_EOF;
     1929     6469    2           ELSE
     1930     6470    3   GIVEN_NOT_EOF: DO;
     1931     6471    3              CALL VDA$LREAD (DEST_STREAM, DEST_RANGE.ENDD, 0, %READ_RECORD)
     1932     6472    3                ALTRET (LREAD_FAILED);
     1933     6473    3              CALL VDE$RGET (DEST_STREAM, DEST$EDIT_BLOCK.RANGE, RECORD)
     1934     6474    3                ALTRET (RGET_FAILED);
     1935     6475                   %GETKEY (KEY=RECORD.KEY, PTR=RECORD_KEY$);
     1936     6485
     1937     6486    3              IF RECORD.KEY = %CLEAR     /* Rec beyond dest EditBlock, or EOF */
     1938     6487    3                OR RECORD$KEY ~= DEST$GIVEN_KEY THEN
     1939     6488    4   GIVEN_KEY_DOESNT_EXIST: DO;
     1940     6489                      /* Given destination key doesn't exist */
     1941     6490    4                 DEST_EXISTS = %FALSE;
     1942     6491
     1943     6492                      /*
     1944     6493                      *  Record we got is actually destNext; return it in DEST_RIGHT$.
PL6.E3A0      #003=VDI$BINSERT File=VDI$BLOCK.:VDA5TSI                           FRI 07/04/97 11:28 Page:151
     1945     6494                      *  However, if the last source record includes EOR, then we
     1946     6495                      *     don't want to touch destNext--so free it and return
     1947     6496                      *     DEST_RIGHT$ as NIL.
     1948     6497                      */
     1949     6498                      %CLEARSPEC (SPEC=RECORD.SPEC);
     1950     6508    4                 IF SRC_RANGE.ENDD.EOF OR SRC_RANGE.ENDD.POSITION# = 0 THEN
     1951     6509    4                    CALL VDG$OFREE (RECORD$DATA)
     1952     6510    4                      ALTRET (OFREE_FAILED);
     1953     6511    4                 ELSE
     1954     6512    4                    DEST_RIGHT$ = RECORD.DATA$;
     1955     6513    4                 RECORD.DATA$ = ADDR(NIL);
     1956     6514    4                 RECORD.EOR = %FALSE;
     1957     6515
     1958     6516    4                 DEST_NEXT_KEY = RECORD.KEY;
     1959     6517                      %COPYKEY (FKEY=DEST_RANGE.ENDD.KEY, FINDX=DEST_LEVEL-1,
     1960     6518                      TKEY=RECORD.KEY);
     1961     6534
     1962     6535                      /*
     1963     6536                      *  If starting position is not BOR, we must pad the record
     1964     6537                      *  with the fill character up to the starting position.
     1965     6538                      */
     1966     6539    4                 DEST_LEFT_LENGTH = DEST_RANGE.ENDD.POSITION#;
     1967     6540    5                 IF DEST_LEFT_LENGTH > 0 THEN DO;
     1968     6541    5                    CALL VDE$RADJUST_LENGTH (RECORD, DEST_LEFT_LENGTH)
     1969     6542    5                      ALTRET (RADJUST_LENGTH_FAILED);
     1970     6543    5                    END;
     1971     6544    4                 END GIVEN_KEY_DOESNT_EXIST;
     1972     6545    3              ELSE
     1973     6546    4   GIVEN_KEY_DOES_EXIST: DO;
     1974     6547                      /* Given destination key does exist */
     1975     6548    4                 DEST_EXISTS = %TRUE;
     1976     6549
     1977     6550                      /*
     1978     6551                      *   Split RECORD.DATA$ into destLeft and destRight.
     1979     6552                      *   However, if this is a "genkey" case and the last source
     1980     6553                      *     record includes EOR, then we don't want to touch the
     1981     6554                      *     destRight in the file (and there is no destLeft).
PL6.E3A0      #003=VDI$BINSERT File=VDI$BLOCK.:VDA5TSI                           FRI 07/04/97 11:28 Page:152
     1982     6555                      *     So in this case, free the record just read and return
     1983     6556                      *     DEST_RIGHT$ = NIL.
     1984     6557                      */
     1985     6558    4                 DEST_LEFT_LENGTH = DEST_RANGE.ENDD.POSITION#;
     1986     6559
     1987     6560    4                 DEST_EOR = RECORD.EOR;
     1988     6561    4                 IF DEST_LEFT_LENGTH = 0
     1989     6562    4                   AND SRC_RANGE.ENDD.POSITION# = 0
     1990     6563    4                   AND ADDR(RECORD.KEY.V$) -> VD$TEXTC_NUMBER ~=
     1991     6564    5                   ADDR(VD_KEY_MN_EDITKEY.LENGTH#) -> VD$TEXTC_NUMBER THEN DO;
     1992     6565    5                    DEST_RIGHT_LENGTH = 0;
     1993     6566    5                    END;
     1994     6567    5                 ELSE DO;
     1995     6568    5                    DEST_RIGHT_LENGTH = MAXIMUM (0, RECORD$DATA.LENGTH# -
     1996     6569    5                      DEST_LEFT_LENGTH);
     1997     6570    5                    IF DEST_RIGHT_LENGTH = 0 AND MY_EOF_DELETED THEN EXIT;
     1998     6571    5                    ALLOC_WDS = (LENGTHC(VD$BUFFER_HEADER) + DEST_RIGHT_LENGTH +
     1999     6572    5                      %NB_PER_WORD - 1) / %NB_PER_WORD;
     2000     6573    5                    CALL VDG$OALLOC (%CLS_BUFFER, DEST_RIGHT$, ALLOC_WDS)
     2001     6574    5                      ALTRET (OALLOC_FAILED);
     2002     6575    5                    DEST$RIGHT.LENGTH# = DEST_RIGHT_LENGTH;
     2003     6576    6                    IF DEST_RIGHT_LENGTH > 0 THEN DO;
     2004     6577    6                       DEST$RIGHT.BYTES = SUBSTR(RECORD$DATA.BYTES,
     2005     6578    6                         DEST_LEFT_LENGTH);
     2006     6579    6                       END;
     2007     6580    5                    END;
     2008     6581
     2009     6582    4                 CALL VDE$RADJUST_LENGTH (RECORD, DEST_LEFT_LENGTH)
     2010     6583    4                   ALTRET (RADJUST_LENGTH_FAILED);
     2011     6584
     2012     6585                      /* Get destNext key */
     2013     6586    4                 CALL VDA$LREAD (DEST_STREAM, , 1, %DONT_READ_RECORD)
     2014     6587    4                   ALTRET (LREAD_FAILED);
     2015     6588    5                 IF NOT DEST_STREAM.CURRENT.EOF THEN DO;
     2016     6589                         %COPYKEY (FKEY=DEST_STREAM.CURRENT.KEY, FINDX=DEST_LEVEL-1,
     2017     6590                         TKEY=DEST_NEXT_KEY);
     2018     6606    5                    END;
PL6.E3A0      #003=VDI$BINSERT File=VDI$BLOCK.:VDA5TSI                           FRI 07/04/97 11:28 Page:153
     2019     6607    4                 END GIVEN_KEY_DOES_EXIST;
     2020     6608    3              END GIVEN_NOT_EOF;
     2021     6609
     2022     6610                /*
     2023     6611                *   At this point:
     2024     6612                *       RECORD.KEY = key to either write 1st record to, or on which to
     2025     6613                *           base key generation on 1st write.
     2026     6614                *       DEST_NEXT_KEY = next existing key after RECORD.KEY.
     2027     6615                *           !! May be %CLEAR at this point, indicating EOF !!
     2028     6616                *       RECORD.DATA, DEST_RIGHT set up appropriately.
     2029     6617                *       GENERATE_KEY = %SQ_CURRENT normally, unless we've already
     2030     6618                *           determined we must generate a key.
     2031     6619                */
     2032     6620
     2033     6621    3           IF DEST_NEXT_KEY = %CLEAR THEN DO;
     2034     6622    3              IF DEST$EDIT_BLOCK.RANGE.ENDD.EOF THEN
     2035     6623    3                 DEST_NEXT_KEY = VD_KEY_MX_EDITKEY;
     2036     6624    4              ELSE DO;
     2037     6625                      %COPYKEY (FKEY=DEST$EDIT_BLOCK.RANGE.ENDD.KEY, FINDX=DEST_LEVEL-1,
     2038     6626                      TKEY=DEST_NEXT_KEY);
     2039     6642    4                 END;
     2040     6643    3              END;
     2041     6644
     2042     6645                /*
     2043     6646                *   Final adjustments to RECORD.KEY and GENERATE_KEY:
     2044     6647                *   If DEST_EXISTS  !AND!  dest location is BOR  !AND! the
     2045     6648                *       first source record does include EOR, then we must back up
     2046     6649                *       RECORD.KEY to the existing key in front of the given dest key,
     2047     6650                *       and set GENERATE_KEY to %SQ_NEXT.
     2048     6651                *       Also, change DEST_NEXT_KEY to be the original RECORD.KEY (the
     2049     6652                *       one that DEST_EXISTS says exists).  Then clear DEST_EXISTS
     2050     6653                *       to make it accurate again, since "DEST" is now empty space.
     2051     6654                */
     2052     6655
     2053     6656    2           IF DEST_EXISTS AND DEST_LEFT_LENGTH = 0
     2054     6657    2             AND ADDR(RECORD.KEY.V$) -> VD$TEXTC_NUMBER ~=
     2055     6658    2             ADDR(VD_KEY_MN_EDITKEY.LENGTH#) -> VD$TEXTC_NUMBER
PL6.E3A0      #003=VDI$BINSERT File=VDI$BLOCK.:VDA5TSI                           FRI 07/04/97 11:28 Page:154
     2056     6659    3             AND FIRST_SRC_RECORD.EOR THEN DO;
     2057     6660    3              GENERATE_KEY = %SQ_NEXT;
     2058     6661                   %CLEARKEY (KEY=DEST_NEXT_KEY);
     2059     6671    3              DEST_NEXT_KEY = RECORD.KEY;  /* Used when generating key */
     2060     6672    3              RECORD.KEY = %CLEAR;
     2061     6673                   /* Back up */
     2062     6674    3              CALL VDA$LREAD (DEST_STREAM, DEST_RANGE.ENDD, -1, %DONT_READ_RECORD)
     2063     6675    3                ALTRET (LREAD_FAILED);
     2064     6676    3              DEST_EXISTS = %FALSE;
     2065     6677    3              IF DEST_STREAM.CURRENT.KEY.V$(DEST_LEVEL-1) >= DEST_NEXT_KEY.V$
     2066     6678    4              THEN DO;
     2067     6679                      /* Hit BOF:  Use MIN_EDITKEY */
     2068     6680    4                 RECORD.KEY = VD_KEY_MN_EDITKEY;
     2069     6681    4                 END;
     2070     6682    4              ELSE DO;
     2071     6683                      %COPYKEY (FKEY=DEST_STREAM.CURRENT.KEY, FINDX=DEST_LEVEL-1,
     2072     6684                      TKEY=RECORD.KEY);
     2073     6700    4                 END;
     2074     6701    3              END;
     2075     6702
     2076     6703    2           RETURN;
     2077     6704
     2078     6705
     2079     6706    2   LREAD_FAILED: ;
     2080     6707    2   RGET_FAILED: ;
     2081     6708    2   OALLOC_FAILED: ;
     2082     6709    2   OFREE_FAILED: ;
     2083     6710    2   RADJUST_LENGTH_FAILED: ;
     2084     6711    2           ALTRETURN;
     2085     6712
     2086     6713    2   END PREPARE_DESTINATION;
     2087     6714
     2088     6715        %BOX (TITLE=ABORT_INSERTION, PAGE=YES);
              6723    2
              6727    2   /***************************************************************************
              6729    2    *                                                                         *
              6733    2            *                              ABORT_INSERTION                            *
PL6.E3A0      #003=VDI$BINSERT File=VDI$BLOCK.:VDA5TSI                           FRI 07/04/97 11:28 Page:155
              6735    2            *                                                                         *
              6737    2           ***************************************************************************/

     2089     6741
     2090     6742        /*I* NAME: ABORT_INSERTION
     2091     6743            PARAMETERS:
     2092     6744                None.
     2093     6745            INPUT:
     2094     6746                FIRST_SRC_RECORD.EOR must be set if the first source record had an EOR;
     2095     6747                    reset otherwise or if we haven't read the first src record yet.
     2096     6748                DEST_EXISTS must be set if the given destination key exists in the file.
     2097     6749                DEST_RANGE_TYPE must contain a %BDT_ code indicating the configuration
     2098     6750                    of the given destination range.
     2099     6751                LAST_COPIED_KEY - Key of last source record which was successfully
     2100     6752                    copied to the destination range.  %CLEAR if no records yet copied.
     2101     6753                LAST_WRITTEN_KEY - Key of the last record successfully inserted into the
     2102     6754                    destination range.  This is the key with which the LAST_COPIED_KEY
     2103     6755                    record was written to the destination range.
     2104     6756                DEST_RIGHT$ - Ptr to VD$BUFFER containing the destRight record, if any.
     2105     6757                RECORD - If DEST_RIGHT$ is NIL and we should have had a destRight,
     2106     6758                    then RECORD contains the destRight record (this happens if we get
     2107     6759                    an error while trying to actually write the destRight record to
     2108     6760                    the file).
     2109     6761                DEST_NEXT_KEY - Key of the next existing record after the destination
     2110     6762                    point.  If no records after destination point, DEST_NEXT_KEY
     2111     6763                    is key from DEST$EDIT_BLOCK.RANGE.ENDD.
     2112     6764            OUTPUT:
     2113     6765            DESCRIPTION:
     2114     6766                If we wrote any records to the destination, write an informational
     2115     6767                    message telling the user the src and dest keys of the last record
     2116     6768                    successfully copied.
     2117     6769                Set $LEFTOVER to the destRight data, if appropriate.
     2118     6770                    This data should have been inserted into the file, but couldn't
     2119     6771                    be inserted due to a cutoff or some other non-fatal error.
     2120     6772                    Under certain conditions, the original copy of destRight
     2121     6773                    in the destination file has been overwritten by now; in this case,
     2122     6774                    DEST_RIGHT$/RECORD.DATA$ should be saved for the user, since
PL6.E3A0      #003=VDI$BINSERT File=VDI$BLOCK.:VDA5TSI                           FRI 07/04/97 11:28 Page:156
     2123     6775                    otherwise the data would be lost.
     2124     6776                    The "certain conditions" are:
     2125     6777                        Given destination is nonBOR
     2126     6778                        AND  given destination exists
     2127     6779                        AND  1st/only source record did have an EOR.
     2128     6780                If destRight has been overwritten, but hasn't yet been rewritten in
     2129     6781                    its new location, save it in $LEFTOVER.
     2130     6782                If there was some part of SRC_RANGE which hasn't been copied yet,
     2131     6783                    set $NOT_COPIED to specify the uncopied data.  There are two cases:
     2132     6784                    1. LAST_COPIED_KEY = %CLEAR:  Nothing was copied; or
     2133     6785                    2. LAST_COPIED_KEY ~= %CLEAR:  srcFirst, and possibly some other
     2134     6786                        whole records from the source block, were copied successfully.
     2135     6787                        The not-yet-copied portion will always start on a record
     2136     6788                        boundary (tho it may not end on one).  Read forward from the
     2137     6789                        LAST_COPIED_KEY to find the beginning of the uncopied part
     2138     6790                        of the source block.
     2139     6791                Adjust SRC_RANGE to describe whatever part of the source block was
     2140     6792                    successfully copied.
     2141     6793                Adjust DEST_RANGE.ENDD to describe the data that was successfully
     2142     6794                    inserted in its new location in the destination.
     2143     6795                    (DEST_RANGE.START has already been set to the start of the inserted
     2144     6796                    data).
     2145     6797        */
     2146     6798
     2147     6799    1   ABORT_INSERTION: PROC ALTRET;
     2148     6800
     2149     6801        %VD$LOCATION (NAME=SRC_LOC, STCLASS=AUTO);
     2150     6829        %VD$RANGE (NAME=NOT_COPIED_RANGE, STCLASS=AUTO);
     2151     6898    2   DCL INDX UBIN;
     2152     6899    2   DCL STREAM_KEY$ PTR;
     2153     6900    2   DCL RANGE_ENDD_KEY$ PTR;
     2154     6901
     2155     6902
     2156     6903        %VD$TEXTC (NAME=STREAM$KEY, STCLASS="BASED(STREAM_KEY$)");
     2157     6926        %VD$TEXTC (NAME=RANGE$ENDD_KEY, STCLASS="BASED(RANGE_ENDD_KEY$)");
     2158     6949        %VD$BUFFER;
     2159     7007        %VD$KEY;
PL6.E3A0      #003=VDI$BINSERT File=VDI$BLOCK.:VDA5TSI                           FRI 07/04/97 11:28 Page:157
     2160     7021
     2161     7022
     2162     7023
     2163     7024    3           IF LAST_COPIED_KEY ~= %CLEAR THEN DO;
     2164     7025    3              CALL VDG$OALLOC (%CLS_ERR, VD_ERR$)
     2165     7026    3                ALTRET (ALLOC_FAILED);
     2166     7027    3              VD$ERR.ERR.CODE# = %E$INFO_LAST_RECORD_COPIED;
     2167     7028    3              VD$ERR.FLAGLEV# = %FLV_INFO;
     2168     7029    3              ERR_SUBST$ = PINCRW(VD_ERR$, SIZEW(VD$ERR));
     2169     7030
     2170     7031                   /* Allocate a buffer to hold 2 keys for errmsg substitution */
     2171     7032    3              INDX = 0;
     2172     7033    4              DO WHILE INDX < %MX_CMD_OBJECTS
     2173     7034    4                AND VD_CMD_OBJECTS$ (INDX) ~= ADDR(NIL);
     2174     7035    4                 INDX = INDX + 1;
     2175     7036    4                 END;
     2176     7037    4              IF INDX > %MX_CMD_OBJECTS THEN DO;
     2177     7038    4                 CALL VDG$ESCREECH;
     2178     7039    4                 END;
     2179     7040    3              CALL VDG$OALLOC (%CLS_BUFFER, VD_CMD_OBJECTS$ (INDX),
     2180     7041    3                SIZEW(VD$BUFFER_HEADER) + (2 * SIZEW(VD$KEY)))
     2181     7042    3                ALTRET (ALLOC_FAILED);
     2182     7043
     2183     7044    3              ERR$SUBST.OBJECT.CLASS# (0) = %CLS_PTR_KEY;
     2184     7045    3              ERR$SUBST.V$ (0) = PINCRW(VD_CMD_OBJECTS$(INDX),
     2185     7046    3                SIZEW(VD$BUFFER_HEADER));
     2186     7047                   %COPYKEY (FKEY=LAST_COPIED_KEY, TKEY="ERR$SUBST.V$ (0) -> VD$KEY");
     2187     7063
     2188     7064    3              ERR$SUBST.OBJECT.CLASS# (1) = %CLS_PTR_KEY;
     2189     7065    3              ERR$SUBST.V$ (1) = PINCRW(ERR$SUBST.V$ (0), SIZEW(VD$KEY));
     2190     7066                   %COPYKEY (FKEY=LAST_WRITTEN_KEY, TKEY="ERR$SUBST.V$ (1) -> VD$KEY");
     2191     7082    3              CALL VDG$EREPORT_ERROR;
     2192     7083    3              END;
     2193     7084
     2194     7085
     2195     7086    3           IF DEST_EXISTS AND FIRST_SRC_RECORD.EOR THEN DO;
     2196     7087                   /*
PL6.E3A0      #003=VDI$BINSERT File=VDI$BLOCK.:VDA5TSI                           FRI 07/04/97 11:28 Page:158
     2197     7088                   *   We must have had a destRight; it must be saved, since its
     2198     7089                   *        original copy in the destination file has already been
     2199     7090                   *        overwritten.
     2200     7091                   *   Save either DEST_RIGHT$ or RECORD.DATA$ in $LEFTOVER, if
     2201     7092                   *        appropriate.
     2202     7093                   */
     2203     7094    4              IF DEST_RIGHT$ = ADDR(NIL) THEN DO;
     2204     7095    4                 DEST_RIGHT$ = RECORD.DATA$;
     2205     7096    4                 RECORD.DATA$ = ADDR(NIL);
     2206     7097    4                 END;
     2207     7098    4              IF DEST_RIGHT$ ~= ADDR(NIL) THEN DO;
     2208     7099    4                 CALL SAVE_LEFTOVER (DEST_RIGHT$)
     2209     7100    4                   ALTRET (SAVE_LEFTOVER_FAILED);
     2210     7101    4                 END;
     2211     7102    3              END;
     2212     7103
     2213     7104
     2214     7105                /* Shrink source to describe only the data that has been copied */
     2215     7106
     2216     7107    3           IF LAST_COPIED_KEY = %CLEAR THEN DO;
     2217     7108                   /* Nothing was copied */
     2218     7109    3              CALL SAVE_NOT_COPIED (SRC_RANGE)
     2219     7110    3                ALTRET (SAVE_NOT_COPIED_FAILED);
     2220     7111                   /* Make source an empty range */
     2221     7112    3              CALL VDG$OCLEAR_LOCATION (SRC_RANGE.ENDD)
     2222     7113    3                ALTRET (OCLEAR_LOCATION_FAILED);
     2223     7114    3              CALL VDG$OCOPY_LOCATION (SRC_RANGE.START, SRC_RANGE.ENDD)
     2224     7115    3                ALTRET (OCOPY_LOCATION_FAILED);
     2225     7116    3              END;
     2226     7117    3           ELSE DO;
     2227     7118                   /*
     2228     7119                   *  Part of src copied, up to and including LAST_COPIED_KEY.
     2229     7120                   *  Read forward after LAST_COPIED_KEY, to find the beginning of
     2230     7121                   *    the uncopied portion, if any.
     2231     7122                   */
     2232     7123    3              SRC_LOC = %CLEAR;
     2233     7124                   %COPYKEY (FKEY=LAST_COPIED_KEY,
PL6.E3A0      #003=VDI$BINSERT File=VDI$BLOCK.:VDA5TSI                           FRI 07/04/97 11:28 Page:159
     2234     7125                   TKEY=SRC_LOC.KEY, TINDX=SRC_LEVEL-1);
     2235     7141
     2236     7142    3              CALL VDA$LREAD (SRC_STREAM, SRC_LOC, 1, %FALSE)
     2237     7143    3                ALTRET (LREAD_FAILED);
     2238     7144
     2239     7145                   %GETKEY (KEY=SRC_STREAM.CURRENT.KEY, INDX=SRC_LEVEL-1,
     2240     7146                   PTR=STREAM_KEY$);
     2241     7156                   %GETKEY (KEY=SRC_RANGE.ENDD.KEY, INDX=SRC_LEVEL-1,
     2242     7157                   PTR=RANGE_ENDD_KEY$);
     2243     7167
     2244     7168    3              IF (NOT SRC_STREAM.CURRENT.EOF)
     2245     7169    3                AND (STREAM$KEY.BYTES < RANGE$ENDD_KEY.BYTES
     2246     7170    3                OR (STREAM$KEY.BYTES = RANGE$ENDD_KEY.BYTES
     2247     7171    4                AND SRC_RANGE.ENDD.POSITION# > 0) ) THEN DO;
     2248     7172                      /*
     2249     7173                      *  There's an uncopied portion.
     2250     7174                      *  Because LAST_COPIED_KEY isn't %CLEAR, we know we've
     2251     7175                      *     copied at least one record; therefore, the uncopied portion
     2252     7176                      *     always begins at position 0 of the record after
     2253     7177                      *     LAST_COPIED_KEY (which is SRC_STREAM's current location).
     2254     7178                      */
     2255     7179    4                 NOT_COPIED_RANGE = SRC_RANGE;
     2256     7180    4                 NOT_COPIED_RANGE.START.POSITION# = 0;
     2257     7181                      %COPYKEY (FKEY=SRC_STREAM.CURRENT.KEY, FINDX=SRC_LEVEL-1,
     2258     7182                      TKEY=NOT_COPIED_RANGE.START.KEY, TINDX=SRC_LEVEL-1);
     2259     7198                      %COPYKEY (FKEY=SRC_RANGE.ENDD.KEY, FINDX=SRC_LEVEL-1,
     2260     7199                      TKEY=NOT_COPIED_RANGE.ENDD.KEY, TINDX=SRC_LEVEL-1);
     2261     7215    4                 CALL SAVE_NOT_COPIED (NOT_COPIED_RANGE)
     2262     7216    4                   ALTRET (SAVE_NOT_COPIED_FAILED);
     2263     7217    4                 END;
     2264     7218
     2265     7219                   /* Adjust SRC_RANGE to cover just the portion successfully copied */
     2266     7220                   %CLEARKEY (KEY=SRC_RANGE.ENDD.KEY, INDX=SRC_LEVEL-1);
     2267     7230                   %COPYKEY (FKEY=SRC_STREAM.CURRENT.KEY, FINDX=SRC_LEVEL-1,
     2268     7231                   TKEY=SRC_RANGE.ENDD.KEY, TINDX=SRC_LEVEL-1);
     2269     7247    3              SRC_RANGE.ENDD.EOF = SRC_STREAM.CURRENT.EOF;
     2270     7248    3              SRC_RANGE.ENDD.POSITION# = 0;
PL6.E3A0      #003=VDI$BINSERT File=VDI$BLOCK.:VDA5TSI                           FRI 07/04/97 11:28 Page:160
     2271     7249    3              END;
     2272     7250
     2273     7251                /*
     2274     7252                *N*   Adjust DEST_RANGE.ENDD to point to the end of the successfully
     2275     7253                *N*       copied data in the destination.
     2276     7254                *N*
     2277     7255                *N* %CLEARKEY (KEY=DEST_RANGE.ENDD.KEY, INDX=DEST_LEVEL-1);
     2278     7256                *N* %COPYKEY (FKEY=DEST_NEXT_KEY, TKEY=DEST_RANGE.ENDD.KEY,
     2279     7257                *N*     TINDX=DEST_LEVEL-1);
     2280     7258                *N* DEST_RANGE.ENDD.POSITION# = 0;
     2281     7259                *N* IF DEST_RANGE.ENDD.KEY (DEST_LEVEL-1) = <<<max edit key>>> THEN DO;
     2282     7260                *N*     DEST_RANGE.ENDD = %CLEAR;
     2283     7261                *N*     DEST_RANGE.ENDD.EOF = %TRUE;
     2284     7262                *N*     END;
     2285     7263                *N*/
     2286     7264
     2287     7265    2           RETURN;
     2288     7266
     2289     7267
     2290     7268
     2291     7269    2   ALLOC_FAILED: ;
     2292     7270    2   OCLEAR_LOCATION_FAILED: ;
     2293     7271    2   OCOPY_LOCATION_FAILED: ;
     2294     7272    2   OFREE_FAILED: ;
     2295     7273    2   LREAD_FAILED: ;
     2296     7274    2   SAVE_LEFTOVER_FAILED: ;
     2297     7275    2   SAVE_NOT_COPIED_FAILED: ;
     2298     7276    2           ALTRETURN;
     2299     7277
     2300     7278    2   END ABORT_INSERTION;
     2301     7279
     2302     7280        %BOX (TITLE=APPEND, PAGE=YES);
              7288    2
              7292    2   /***************************************************************************
              7294    2    *                                                                         *
              7298    2            *                                   APPEND                                *
              7300    2            *                                                                         *
PL6.E3A0      #003=VDI$BINSERT File=VDI$BLOCK.:VDA5TSI                           FRI 07/04/97 11:28 Page:161
              7302    2           ***************************************************************************/

     2303     7306
     2304     7307        /*I* NAME: APPEND
     2305     7308            PARAMETERS:
     2306     7309                LEFT$ - Ptr to VD$BUFFER containing left part of record.
     2307     7310                RIGHT$ - Ptr to VD$BUFFER containing right part of record.
     2308     7311            INPUT:
     2309     7312            OUTPUT:
     2310     7313                LEFT$ may be changed; in any case, will point to a VD$BUFFER containing
     2311     7314                    the right part of the record appended to the left part.
     2312     7315                RIGHT$ will be NIL, and its VD$BUFFER freed.
     2313     7316            DESCRIPTION:
     2314     7317                Append RIGHT.BYTES to LEFT.BYTES.
     2315     7318        */
     2316     7319
     2317     7320    1   APPEND: PROC (LEFT$, RIGHT$) ALTRET;
     2318     7321
     2319     7322    2   DCL LEFT$ PTR;
     2320     7323    2   DCL RIGHT$ PTR;
     2321     7324    2   DCL NEW_LENGTH SBIN;
     2322     7325    2   DCL ALLOC_WDS SBIN;
     2323     7326    2   DCL CURSOR SBIN;
     2324     7327    2   DCL NEW_BUFFER$ PTR;
     2325     7328
     2326     7329
     2327     7330        %VD$BUFFER (NAME=LEFT, STCLASS="BASED(LEFT$)");
     2328     7388        %VD$BUFFER (NAME=RIGHT, STCLASS="BASED(RIGHT$)");
     2329     7446        %VD$BUFFER (NAME=NEW$BUFFER, STCLASS="BASED(NEW_BUFFER$)");
     2330     7504
     2331     7505
     2332     7506
     2333     7507    2           IF RIGHT$ = ADDR(NIL) THEN
     2334     7508    2              RETURN;
     2335     7509    3           IF RIGHT.LENGTH# > 0 THEN DO;
     2336     7510
     2337     7511                   /* See if LEFT's buffer is big enough for concatenated record */
PL6.E3A0      #003=VDI$BINSERT File=VDI$BLOCK.:VDA5TSI                           FRI 07/04/97 11:28 Page:162
     2338     7512
     2339     7513    3              NEW_LENGTH = LEFT.LENGTH# + RIGHT.LENGTH#;
     2340     7514    3              ALLOC_WDS = (LENGTHC(VD$BUFFER_HEADER) + NEW_LENGTH + %NB_PER_WORD-1)
     2341     7515    3                / %NB_PER_WORD;
     2342     7516    4              IF ALLOC_WDS > LEFT.OBJECT.SIZE# THEN DO;
     2343     7517                      /* Need to allocate new buffer */
     2344     7518    4                 CALL VDG$OALLOC (%CLS_BUFFER, NEW_BUFFER$, ALLOC_WDS)
     2345     7519    4                   ALTRET (OALLOC_FAILED);
     2346     7520    4                 NEW$BUFFER.LENGTH# = LEFT.LENGTH#;
     2347     7521    4                 NEW$BUFFER.BYTES = LEFT.BYTES;
     2348     7522    4                 CALL VDG$OFREE (LEFT)
     2349     7523    4                   ALTRET (OFREE_FAILED);
     2350     7524    4                 LEFT$ = NEW_BUFFER$;
     2351     7525    4                 END;
     2352     7526
     2353     7527                   /* Append RIGHT.BYTES to LEFT.BYTES */
     2354     7528    3              CURSOR = LEFT.LENGTH#;
     2355     7529    3              LEFT.LENGTH# = NEW_LENGTH;
     2356     7530    3              CALL INSERT (LEFT.BYTES, CURSOR, , RIGHT.BYTES)
     2357     7531    4              WHENALTRETURN DO;
     2358     7532    4                 CALL VDG$ESCREECH (CURSOR, RIGHT.BYTES, NEW_LENGTH);
     2359     7533    4                 END;
     2360     7534
     2361     7535    3              END;
     2362     7536    2           CALL VDG$OFREE (RIGHT)
     2363     7537    2             ALTRET (OFREE_FAILED);
     2364     7538    2           RIGHT$ = ADDR(NIL);
     2365     7539
     2366     7540    2           RETURN;
     2367     7541
     2368     7542
     2369     7543    2   OALLOC_FAILED: ;
     2370     7544    2   OFREE_FAILED: ;
     2371     7545    2           ALTRETURN;
     2372     7546
     2373     7547    2   END APPEND;
     2374     7548
PL6.E3A0      #003=VDI$BINSERT File=VDI$BLOCK.:VDA5TSI                           FRI 07/04/97 11:28 Page:163
     2375     7549                %BOX (TITLE=SAVE_LEFTOVER, PAGE=YES);
              7557    2
              7561    2   /***************************************************************************
              7563    2    *                                                                         *
              7567    2            *                               SAVE_LEFTOVER                             *
              7569    2            *                                                                         *
              7571    2           ***************************************************************************/

     2376     7575
     2377     7576        /*I* NAME: SAVE_LEFTOVER
     2378     7577            PARAMETERS:
     2379     7578                REC_TO_SAVE$ - Ptr to a VD$BUFFER which contains the record data to be
     2380     7579                    saved.  This record is assumed to include an EOR.
     2381     7580            INPUT:
     2382     7581            OUTPUT:
     2383     7582                REC_TO_SAVE$ will be NIL, and its buffer either freed or owned by the
     2384     7583                    internal file now.
     2385     7584            DESCRIPTION:
     2386     7585                Save a [partial] record under the name $LEFTOVER.
     2387     7586                To allow the user to just say:
     2388     7587                    COPY $LEFTOVER AFTER ...
     2389     7588                $LEFTOVER must be a name.  But we want to save a record, including an
     2390     7589                EOR boundary; this can only be done in an internal file.  Therefore,
     2391     7590                we build an internal file containing the record data to save, then
     2392     7591                set the predefined LOCATION-name $LEFTOVER to specify the entire
     2393     7592                internal file (all 1 record of it).
     2394     7593
     2395     7594                Also, write an informational message to tell the user what we've done.
     2396     7595        */
     2397     7596
     2398     7597    1   SAVE_LEFTOVER: PROC (REC_TO_SAVE$) ALTRET;
     2399     7598
     2400     7599    2   DCL REC_TO_SAVE$ PTR;
     2401     7600
     2402     7601
     2403     7602    2   DCL SAVE_ACCESSOR_PRIV UBIN BYTE ALIGNED;
     2404     7603    2   DCL LEFTOVER_STREAM$ PTR;
PL6.E3A0      #003=VDI$BINSERT File=VDI$BLOCK.:VDA5TSI                           FRI 07/04/97 11:28 Page:164
     2405     7604    2   DCL BLOCK_BUFFER$ PTR;
     2406     7605    2   DCL LEFTOVER_BLOCK$ PTR;
     2407     7606        %VD$LOCATION (NAME=LOC, STCLASS=AUTO);
     2408     7634        %VD$ACCESS_OPTIONS (NAME=OPEN_OPTIONS, STCLASS=AUTO);
     2409     7663
     2410     7664
     2411     7665        %VD$BUFFER (NAME=REC$TO_SAVE, STCLASS="BASED(REC_TO_SAVE$)");
     2412     7723        %VD$STREAM (NAME=LEFTOVER$STREAM, STCLASS="BASED(LEFTOVER_STREAM$)");
     2413     7829        %VD$BUFFER (NAME=BLOCK$BUFFER, STCLASS="BASED(BLOCK_BUFFER$)");
     2414     7887        %VD$BLOCK_DESC (NAME=LEFTOVER$BLOCK, STCLASS="BASED(LEFTOVER_BLOCK$)");
     2415     8034        %VD$STREAM (NAME=LOCATIONS$STREAM, STCLASS="BASED(VD_6E.LOCATIONS$)");
     2416     8140        %VD$PORT;
     2417     8238        %VD$BUFFER;
     2418     8296
     2419     8297
     2420     8298
     2421     8299    2           LEFTOVER_STREAM$ = ADDR(NIL);
     2422     8300    2           BLOCK_BUFFER$ = ADDR(NIL);
     2423     8301
     2424     8302    2           SAVE_ACCESSOR_PRIV = VD_ACCESSOR_PRIV;
     2425     8303    2           VD_ACCESSOR_PRIV = %BITBIN(NAC_ALL_BITS);
     2426     8304
     2427     8305                /*!!!!!!!!!!!!!!!!!!!!!!!!!!!!!!!!!!!!!!!!!!!!!!!!!!!!!!!!!!!*/
     2428     8306                /*!!!!!                                                 !!!!!*/
     2429     8307                /*!!!!!     From here on, any exits must restore        !!!!!*/
     2430     8308                /*!!!!!            VD_ACCESSOR_PRIV                     !!!!!*/
     2431     8309                /*!!!!!          to its original value.                 !!!!!*/
     2432     8310
     2433     8311
     2434     8312                /* Build the internal file */
     2435     8313    2           CALL VDG$OALLOC (%CLS_STREAM, LEFTOVER_STREAM$)
     2436     8314    2             ALTRET (OALLOC_FAILED);
     2437     8315    2           OPEN_OPTIONS = %CLEAR;
     2438     8316    2           OPEN_OPTIONS.STRUCTURE$ = VD_6E.STRUCTURE_SCRATCH$;
     2439     8317    2           OPEN_OPTIONS.PROTECT# = %DONT_PROTECT;
     2440     8318    2           OPEN_OPTIONS.EXIST# = %EX_ANY;
     2441     8319    2           CALL VDA$FOPEN (LEFTOVER$STREAM, VD_KEY_SCRATCH_LEFTOVER, 0,
PL6.E3A0      #003=VDI$BINSERT File=VDI$BLOCK.:VDA5TSI                           FRI 07/04/97 11:28 Page:165
     2442     8320    2             OPEN_OPTIONS)
     2443     8321    2             ALTRET (FOPEN_FAILED);
     2444     8322
     2445     8323    2           LOC = %CLEAR;
     2446     8324    2           LOC.KEY (%LVL_LOWER - 1) = VD_KEY_NUMERIC_BOF;
     2447     8325    2           CALL VDA$LWRITE (LEFTOVER$STREAM, LOC, , REC$TO_SAVE)
     2448     8326    2             ALTRET (LWRITE_LEFTOVER_FAILED);
     2449     8327    2           REC_TO_SAVE$ = ADDR(NIL);   /* Object owned by internal file now */
     2450     8328
     2451     8329    2           CALL VDA$FCLOSE (LEFTOVER$STREAM)
     2452     8330    2             ALTRET (FCLOSE_FAILED);
     2453     8331    2           CALL VDG$OFREE (LEFTOVER$STREAM)
     2454     8332    2             ALTRET (OFREE_FAILED);
     2455     8333    2           LEFTOVER_STREAM$ = ADDR(NIL);
     2456     8334
     2457     8335                /* Now set $LEFTOVER name to specify the internal file */
     2458     8336    2           CALL VDG$OALLOC (%CLS_BLOCK_BUFFER, BLOCK_BUFFER$)
     2459     8337    2             ALTRET (OALLOC_FAILED);
     2460     8338
     2461     8339    2           LEFTOVER_BLOCK$ = PALIGNW (ADDR(BLOCK$BUFFER.BYTES));
     2462     8340    2           LEFTOVER$BLOCK.FILE_KEY = VD_KEY_SCRATCH_LEFTOVER;
     2463     8341                %COPYKEY (FKEY=VD_KEY_NUMERIC_BOF,
     2464     8342                TKEY=LEFTOVER$BLOCK.RANGE.START.KEY, TINDX=%LVL_LOWER-1);
     2465     8358    2           LEFTOVER$BLOCK.RANGE.ENDD.EOF = %TRUE;
     2466     8359    2           LEFTOVER$BLOCK.OPTIONS = OPEN_OPTIONS;
     2467     8360    2           LEFTOVER$BLOCK.OPTIONS.PROTECT# = %PROTECT;
     2468     8361    2           LEFTOVER$BLOCK.OPTIONS.EXIST# = %EX_OLD;
     2469     8362
     2470     8363    2           CALL VDA$LWRITE (LOCATIONS$STREAM, VD_LOC_$LEFTOVER, , BLOCK$BUFFER)
     2471     8364    2             ALTRET (LWRITE_FAILED);
     2472     8365    2           BLOCK_BUFFER$ = ADDR(NIL);  /* Object now owned by Locations file */
     2473     8366    2           CALL VDA$PFLUSH (LOCATIONS$STREAM.PORT$->VD$PORT, %TO_PRESENTER)
     2474     8367    2             ALTRET (PFLUSH_FAILED);
     2475     8368
     2476     8369    2           VD_ACCESSOR_PRIV = SAVE_ACCESSOR_PRIV;
     2477     8370
     2478     8371                /*!!!!!         Its safe now, we've restored            !!!!!*/
PL6.E3A0      #003=VDI$BINSERT File=VDI$BLOCK.:VDA5TSI                           FRI 07/04/97 11:28 Page:166
     2479     8372                /*!!!!!            VD_ACCESSOR_PRIV                     !!!!!*/
     2480     8373                /*!!!!!          to its original value.                 !!!!!*/
     2481     8374                /*!!!!!                                                 !!!!!*/
     2482     8375                /*!!!!!!!!!!!!!!!!!!!!!!!!!!!!!!!!!!!!!!!!!!!!!!!!!!!!!!!!!!!*/
     2483     8376
     2484     8377
     2485     8378                /* Now tell the user what we've done */
     2486     8379    2           CALL VDG$OALLOC (%CLS_ERR, VD_ERR$)
     2487     8380    2             ALTRET (OALLOC_ERR_FAILED);
     2488     8381    2           VD$ERR.ERR.CODE# = %E$INFO_DATA_IN_$LEFTOVER;
     2489     8382    2           VD$ERR.FLAGLEV# = %FLV_INFO;
     2490     8383    2           CALL VDG$EREPORT_ERROR;
     2491     8384
     2492     8385    2           RETURN;
     2493     8386
     2494     8387
     2495     8388
     2496     8389    2   LWRITE_LEFTOVER_FAILED:
     2497     8390    2           CALL VDA$FCLOSE (LEFTOVER$STREAM);  /* Ignore altreturn */
     2498     8391
     2499     8392    2   FOPEN_FAILED: ;
     2500     8393    2   FCLOSE_FAILED: ;
     2501     8394    2   LWRITE_FAILED: ;
     2502     8395    2   PFLUSH_FAILED: ;
     2503     8396    3           IF LEFTOVER_STREAM$ ~= ADDR(NIL) THEN DO;
     2504     8397    3              CALL VDG$OFREE (LEFTOVER$STREAM)
     2505     8398    4              WHENALTRETURN DO; ALTRETURN; END;
     2506     8399    3              END;
     2507     8400    3           IF BLOCK_BUFFER$ ~= ADDR(NIL) THEN DO;
     2508     8401    3              CALL VDG$OFREE (BLOCK$BUFFER)
     2509     8402    4              WHENALTRETURN DO; ALTRETURN; END;
     2510     8403    3              END;
     2511     8404
     2512     8405    2   OFREE_FAILED: ;
     2513     8406    2   OALLOC_FAILED: ;
     2514     8407    2           VD_ACCESSOR_PRIV = SAVE_ACCESSOR_PRIV;
     2515     8408
PL6.E3A0      #003=VDI$BINSERT File=VDI$BLOCK.:VDA5TSI                           FRI 07/04/97 11:28 Page:167
     2516     8409    2   OALLOC_ERR_FAILED: ;
     2517     8410    2           ALTRETURN;
     2518     8411
     2519     8412    2   END SAVE_LEFTOVER;
     2520     8413
     2521     8414                %BOX (TITLE=SAVE_NOT_COPIED, PAGE=YES);
              8422    2
              8426    2   /***************************************************************************
              8428    2    *                                                                         *
              8432    2            *                              SAVE_NOT_COPIED                            *
              8434    2            *                                                                         *
              8436    2           ***************************************************************************/

     2522     8440
     2523     8441        /*I* NAME: SAVE_NOT_COPIED
     2524     8442            PARAMETERS:
     2525     8443                RANGE - VD$RANGE to be saved as the value of $NOT_COPIED.
     2526     8444                    This range must within the range specified by the source EditBlock.
     2527     8445            INPUT:
     2528     8446                SRC$EDIT_BLOCK - VD$BLOCK_DESC for the EditBlock which encloses the
     2529     8447                    source block.
     2530     8448                SRC_LEVEL - Level in file structure of the source block.
     2531     8449            OUTPUT:
     2532     8450            DESCRIPTION:
     2533     8451                Set the value of the predefined Location-name $NOT_COPIED to be
     2534     8452                RANGE, which must be in the source EditBlock.
     2535     8453
     2536     8454                Also, write an informational message to tell the user what we've done.
     2537     8455        */
     2538     8456
     2539     8457    1   SAVE_NOT_COPIED: PROC (RANGE) ALTRET;
     2540     8458
     2541     8459        %VD$RANGE (NAME=RANGE, STCLASS=PARAM);
     2542     8528
     2543     8529
     2544     8530    2   DCL BLOCK_BUFFER$ PTR;
     2545     8531    2   DCL SRC_BLOCK$ PTR;
PL6.E3A0      #003=VDI$BINSERT File=VDI$BLOCK.:VDA5TSI                           FRI 07/04/97 11:28 Page:168
     2546     8532    2   DCL SAVE_ACCESSOR_PRIV UBIN BYTE ALIGNED;
     2547     8533
     2548     8534
     2549     8535        %VD$BUFFER (NAME=BLOCK$BUFFER, STCLASS="BASED(BLOCK_BUFFER$)");
     2550     8593        %VD$BLOCK_DESC (NAME=SRC$BLOCK, STCLASS="BASED(SRC_BLOCK$)");
     2551     8740        %VD$STREAM (NAME=LOCATIONS$STREAM, STCLASS="BASED(VD_6E.LOCATIONS$)");
     2552     8846        %VD$BUFFER;
     2553     8904        %VD$PORT;
     2554     9002
     2555     9003
     2556     9004    2           CALL VDG$OALLOC (%CLS_BLOCK_BUFFER, BLOCK_BUFFER$)
     2557     9005    2             ALTRET (OALLOC_FAILED);
     2558     9006    2           SRC_BLOCK$ = PALIGNW(ADDR(BLOCK$BUFFER.BYTES));
     2559     9007
     2560     9008    2           SRC$BLOCK = SRC$EDIT_BLOCK;
     2561     9009                %COPYKEY (FKEY=SRC$EDIT_BLOCK.FILE_KEY, TKEY=SRC$BLOCK.FILE_KEY);
     2562     9025                %COPYKEY (FKEY=SRC$EDIT_BLOCK.OPTIONS.KEY_INCR,
     2563     9026                TKEY=SRC$BLOCK.OPTIONS.KEY_INCR);
     2564     9042    2           CALL VDG$OCOPY_RANGE (RANGE, SRC$BLOCK.RANGE)
     2565     9043    2             ALTRET (OCOPY_RANGE_FAILED);
     2566     9044
     2567     9045    2           SAVE_ACCESSOR_PRIV = VD_ACCESSOR_PRIV;
     2568     9046    2           VD_ACCESSOR_PRIV = %BITBIN(NAC_ALL_BITS);
     2569     9047
     2570     9048                /*!!!!!!!!!!!!!!!!!!!!!!!!!!!!!!!!!!!!!!!!!!!!!!!!!!!!!!!!!!!*/
     2571     9049                /*!!!!!                                                 !!!!!*/
     2572     9050                /*!!!!!     From here on, any exits must restore        !!!!!*/
     2573     9051                /*!!!!!            VD_ACCESSOR_PRIV                     !!!!!*/
     2574     9052                /*!!!!!          to its original value.                 !!!!!*/
     2575     9053
     2576     9054    2           CALL VDA$LWRITE (LOCATIONS$STREAM, VD_LOC_$NOT_COPIED, , BLOCK$BUFFER)
     2577     9055    2             ALTRET (LWRITE_FAILED);
     2578     9056    2           BLOCK_BUFFER$ = ADDR(NIL);  /* Object now owned by Locations file */
     2579     9057    2           CALL VDA$PFLUSH (LOCATIONS$STREAM.PORT$->VD$PORT, %TO_PRESENTER)
     2580     9058    2             ALTRET (PFLUSH_FAILED);
     2581     9059
     2582     9060    2           VD_ACCESSOR_PRIV = SAVE_ACCESSOR_PRIV;
PL6.E3A0      #003=VDI$BINSERT File=VDI$BLOCK.:VDA5TSI                           FRI 07/04/97 11:28 Page:169
     2583     9061
     2584     9062                /*!!!!!         Its safe now, we've restored            !!!!!*/
     2585     9063                /*!!!!!            VD_ACCESSOR_PRIV                     !!!!!*/
     2586     9064                /*!!!!!          to its original value.                 !!!!!*/
     2587     9065                /*!!!!!                                                 !!!!!*/
     2588     9066                /*!!!!!!!!!!!!!!!!!!!!!!!!!!!!!!!!!!!!!!!!!!!!!!!!!!!!!!!!!!!*/
     2589     9067
     2590     9068    2           CALL VDG$OALLOC (%CLS_ERR, VD_ERR$)
     2591     9069    2             ALTRET (OALLOC_FAILED);
     2592     9070    2           VD$ERR.ERR.CODE# = %E$INFO_DATA_IN_$NOT_COPIED;
     2593     9071    2           VD$ERR.FLAGLEV# = %FLV_INFO;
     2594     9072    2           CALL VDG$EREPORT_ERROR;
     2595     9073
     2596     9074    2           RETURN;
     2597     9075
     2598     9076
     2599     9077
     2600     9078    2   LWRITE_FAILED: ;
     2601     9079    3           IF BLOCK_BUFFER$ ~= ADDR(NIL) THEN DO;
     2602     9080    3              CALL VDG$OFREE (BLOCK$BUFFER)
     2603     9081    4              WHENALTRETURN DO; ALTRETURN; END;
     2604     9082    3              END;
     2605     9083
     2606     9084    2   PFLUSH_FAILED: ;
     2607     9085    2           VD_ACCESSOR_PRIV = SAVE_ACCESSOR_PRIV;
     2608     9086
     2609     9087    2   OCOPY_RANGE_FAILED: ;
     2610     9088    2   OALLOC_FAILED: ;
     2611     9089    2   OALLOC_ERR_FAILED: ;
     2612     9090    2           ALTRETURN;
     2613     9091
     2614     9092    2   END SAVE_NOT_COPIED;
     2615     9093
     2616     9094    1   END VDI$BINSERT;
     2617     9095        %EOD;

PL6.E3A0      #003=VDI$BINSERT File=VDI$BLOCK.:VDA5TSI                           FRI 07/04/97 11:28 Page:170
--  Include file information  --

   VD_PERR_C.:VDA5TOU  is referenced.
   VD_MACROS_M.:VDA5TOU  is referenced.
   B$JIT_C.:E04TOU  was found in the system file and is never referenced.
   CP_6_C.:E04TOU  was found in the system file and is never referenced.
      No diagnostics issued in procedure VDI$BINSERT.

   Procedure VDI$BINSERT requires 2431 words for executable code.
   Procedure VDI$BINSERT requires 130 words of local(AUTO) storage.

PL6.E3A0      #003=VDI$BINSERT File=VDI$BLOCK.:VDA5TSI                           FRI 07/04/97 11:28 Page:171

 Object Unit name= VDI$BINSERT                                File name= VDI$BLOCK.:VDA5TOU
 UTS= JUL 04 '97 11:28:38.16 FRI                              Compiler= PL-6/E31         Sev=      00
 SharedLib= :SHARED_SYSTEM                                    Alt SharedLib=


    ****  Control sections  ****

 Sect   Type Bound  Init  Size OctSiz  Section name(segment info)
    0  RoData even  UTS     26     32  VDI$BINSERT
    1   Proc  even  none  2431   4577  VDI$BINSERT
    2  RoData even  none    28     34  VDI$BINSERT

    ****  Entry defs  ****

                              Check   Calling
                             calling  sequence
  Sect OctLoc Primary Altret sequence   type   Parms  Name
     1      0   yes    yes     yes      Std        4  VDI$BINSERT
     1      4          yes     yes      Std        4  VDI$BSPLIT
PL6.E3A0      #003=VDI$BINSERT File=VDI$BLOCK.:VDA5TSI                           FRI 07/04/97 11:28 Page:172

  ****  Entry refs  ****

         Check        Calling
        calling       sequence
Altret sequence SRef   type   Args  Name
 yes     yes           Std       2 VDG$OCOPY
 yes     yes           Std       1 VDG$OCLEAR_LOCATION
 yes     yes           Std       2 VDG$OCOPY_LOCATION
 yes     yes           Std       4 VDA$LREAD
 yes     yes           Std       3 VDE$RGET
 yes     yes           Std       4 VDI$BAUTO_REKEY
 yes     yes           Std       3 VDG$COMPARE_LOCS
         yes           Std       3 VDG$ESCREECH
 yes     yes           Std       1 VDG$OFREE
 yes     yes           Std       6 VDE$RPUT
 yes     yes           Std       2 VDG$XLATE_LOCATIONS
 yes     yes           Std       2 VDE$RADJUST_LENGTH
 yes     yes           Std       3 VDG$OALLOC
         yes           Std       1 VDG$EREPORT_ERROR
 yes     yes           Std       4 VDA$LWRITE
 yes     yes           Std       4 VDA$FOPEN
 yes     yes           Std       1 VDA$FCLOSE
 yes     yes           Std       2 VDA$PFLUSH
 yes     yes           Std       2 VDG$OCOPY_RANGE
                       nStd      0 X66_AUTO_4
                       Std       0 B_CONSPOOL_D
                       nStd      0 X66_AALT
                       nStd      0 X66_ARET
PL6.E3A0      #003=VDI$BINSERT File=VDI$BLOCK.:VDA5TSI                           FRI 07/04/97 11:28 Page:173

  ****  Data refs  ****

  Flags:  r = read only, s = secondary
Flgs Name                             Flgs Name                             Flgs Name
     VD_6E                                 VD_CURRENT_WINDOW$                    VD_ACCESSOR_PRIV
     VD_KEY_NUMERIC_BOF                    VD_CMD_OBJECTS$                       VD_EOF_DELETED
     VD_KEY_SCRATCH_LEFTOVER               VD_LOC_$LEFTOVER                      VD_LOC_$NOT_COPIED
     VD_$REKEY                             VD_$BY                                VD_$RECORDS_INSERTED
     VD_KEY_MN_EDITKEY                     VD_KEY_MX_EDITKEY                     B_VECTNIL

  ****  Segment refs  ****

  Flags:  r = read only, s = secondary
Flgs Name                             Flgs Name                             Flgs Name
     ISSID
PL6.E3A0      #003=VDI$BINSERT File=VDI$BLOCK.:VDA5TSI                           FRI 07/04/97 11:28 Page:174


      780        1        /*T***********************************************************/
      781        2        /*T*                                                         */
      782        3        /*T* Copyright (c) Bull HN Information Systems Inc., 1997    */
      783        4        /*T*                                                         */
      784        5        /*T***********************************************************/
      785        6
      786        7        /*D* NAME:  VDI$BINSERT
      787        8            PARAMETERS:
      788        9                SRC_RANGE - VD$RANGE range descriptor for the source block.
      789       10                SRC_STREAM - VD$STREAM to use for accessing the source block.
      790       11                DEST_RANGE - VD$RANGE range descriptor for the destination block.
      791       12                DEST_STREAM - VD$STREAM to use for accessing the destination block.
      792       13            INPUT:
      793       14                VD_CURRENT_WINDOW$ must point to the level-1 VD$FILE_NODE in the
      794       15                    Windows file for the current editing window.  DEST_RANGE must
      795       16                    specify a block which is located in this window's EditBlock.
      796       17                Destination EditBlock's .OPTIONS.KEY_INCR should contain the default
      797       18                    record key increment to use when inserting new records into this
      798       19                    EditBlock, or 0 to use the $BY default.
      799       20            OUTPUT:
      800       21                SRC_RANGE will be modified to describe any part of the source block
      801       22                    not actually copied.  Usually this is just a point at the end of
      802       23                    the source block.
      803       24                DEST_RANGE will be modified to describe the block just inserted
      804       25                    at the destination.
      805       26                VD_$RECORDS_INSERTED.V# will be set to the number of records
      806       27                    inserted.  If nothing at all is inserted, it will be set to -1.
      807       28            ENTRY: VDI$BSPLIT
      808       29                Inserts a single record boundary at DEST_RANGE.START. SRC_RANGE
      809       30                can be %CLEAR, SRC_STREAM can be absent.  Used by the presenter,
      810       31                when it runs out of key space.
      811       32            DESCRIPTION:
      812       33                Classify the source and destination blocks into the following types:
      813       34                    Source types:
      814       35                      "1recNoEOR" - all in 1 record, excluding that record's EOR
      815       36                      "1recEOR" - all in 1 record, including EOR
PL6.E3A0      #003=VDI$BINSERT File=VDI$BLOCK.:VDA5TSI                           FRI 07/04/97 11:28 Page:175
      816       37                      ">1recNoEOR" - on > 1 record, excluding last record's EOR
      817       38                      ">1recEOR" - on > 1 record, including last record's EOR
      818       39                    Destination types (dest is really a point, not a block):
      819       40                      "BOR" - at BOR of existing record
      820       41                      "nonBOR" - at non-BOR of existing record (may be in middle, at
      821       42                            EOR, or beyond EOR)
      822       43                      "BORnonExist" - at BOR of non-existing record
      823       44                      "nonBORnonExist" - at non-BOR of non-existing record
      824       45
      825       46                Given the above classification, the following cases are acted upon as
      826       47                described below.  Terminology:
      827       48                    src - Only record (with or without EOR) of a 1-record source block.
      828       49                    srcFirst - First record of a multi-record source block.
      829       50                    srcLast - Last record (with or without EOR) of a multi-record
      830       51                        source block.
      831       52                    destLeft - Portion of the record to the left of the destination
      832       53                        point.  This is empty if the destination is BOR; this is
      833       54                        a series of blanks if the destination is non-BOR of a
      834       55                        non-existing record.
      835       56                    destRight - Portion of the record to the right of the destination
      836       57                        point.  This is empty if the destination is at or beyond EOR --
      837       58                        but still contains the EOR boundary indication.
      838       59                        If the destination record doesn't exist, destRight is unused.
      839       60                        If destRight is used, it ALWAYS has an EOR associated with it.
      840       61                    destNext - The next record in the destination file after the
      841       62                        destination record.  This is used only when the destination
      842       63                        record doesn't exist AND src/srcLast has no EOR.
      843       64                    NOTE - destRight and destNext are mutually exclusive; in any given
      844       65                        case, only one is used, never both.
      845       66                    5.0 - The destination record key (record may or may not exist).
      846       67                    4.1, 4.2 - New keys generated to be before the destination record
      847       68                        and after the existing record before the destination record.
      848       69                    5.1, 5.2 - New keys generated to be after the given destination key
      849       70                        and before the existing record after the given destination key.
      850       71
      851       72                Src          Dest               How file looks after insertion  See Note
      852       73                ----------   --------------     ------------------------------  --------
PL6.E3A0      #003=VDI$BINSERT File=VDI$BLOCK.:VDA5TSI                           FRI 07/04/97 11:28 Page:176
      853       74                1recNoEOR    BOR                5.0  src  destRight
      854       75
      855       76                             nonBOR             5.0  destLeft  src  destRight
      856       77
      857       78                             BORnonExist        5.0  src  destNext              "moved"
      858       79
      859       80                             nonBORnonExist     5.0  destLeft  src  destNext    "moved"
      860       81                ----------   --------------     ------------------------------  --------
      861       82                1recEOR      BOR                4.1  src                        "genkey"
      862       83                                                5.0  destRight                  "moved"
      863       84
      864       85                             nonBOR             5.0  destLeft  src
      865       86                                                5.1  destRight
      866       87
      867       88                             BORnonExist        5.0  src
      868       89
      869       90                             nonBORnonExist     5.0  destLeft  src
      870       91                ----------   --------------     ------------------------------  --------
      871       92                >1recNoEOR   BOR                4.1  srcFirst                   "genkey"
      872       93                                                4.2  srcLast  destRight
      873       94
      874       95                             nonBOR             5.0  destLeft  srcFirst
      875       96                                                5.1  srcLast  destRight
      876       97
      877       98                             BORnonExist        5.0  srcFirst
      878       99                                                5.1  srcLast  destNext          "moved"
      879      100
      880      101                             nonBORnonExist     5.0  destLeft  srcFirst
      881      102                                                5.1  srcLast  destNext          "moved"
      882      103                ----------   --------------     ------------------------------  --------
      883      104                >1recEOR     BOR                4.1  srcFirst                   "genkey"
      884      105                                                4.2  srcLast
      885      106                                                5.0  destRight
      886      107
      887      108                             nonBOR             5.0  destLeft  srcFirst
      888      109                                                5.1  srcLast
      889      110                                                5.2  destRight
PL6.E3A0      #003=VDI$BINSERT File=VDI$BLOCK.:VDA5TSI                           FRI 07/04/97 11:28 Page:177
      890      111
      891      112                             BORnonExist        5.0  srcFirst
      892      113                                                5.1  srcLast
      893      114
      894      115                             nonBORnonExist     5.0  destLeft  srcFirst
      895      116                                                5.1  srcLast
      896      117
      897      118                    Notes:
      898      119                    ------
      899      120                    "moved" - In these cases the destNext record is moved (rekeyed).
      900      121                        The criteria for this action is:
      901      122                            dest is nonExist (either BOR or nonBOR)
      902      123                            AND srcLast has no EOR
      903      124                    "genkey" - In these cases the first key written is generated to be
      904      125                        before the given destination key.  The criteria for this
      905      126                        action is:
      906      127                            destination is BORExist
      907      128                            AND 1st/only source record does have EOR
      908      129                        There are two subcases here:  srcLast could have EOR or not:
      909      130                        If srcLast does have EOR, note that destRight is untouched:
      910      131                            not moved, nothing joined to it -- just leave it alone.
      911      132                        If srcLast doesn't have EOR, then destRight acts like
      912      133                            destNext in the "moved" cases noted above:  it is rekeyed.
      913      134
      914      135
      915      136                The above table gives the algorithm by example; the following gives
      916      137                it procedurally:
      917      138
      918      139
      919      140                Read the first source record.
      920      141                Call PREPARE_DESTINATION, which reads the destination record (if it
      921      142                    exists) and sets up for the main loop.  PREPARE_DESTINATION must
      922      143                    not do anything which isn't redoable, since it may be called
      923      144                    again after rekeying the destination.  It sets:
      924      145                    RECORD.KEY := given destination key;
      925      146                    other RECORD fields get destLeft, if any;
      926      147                    DEST_NEXT_KEY is the key of the next record, used when
PL6.E3A0      #003=VDI$BINSERT File=VDI$BLOCK.:VDA5TSI                           FRI 07/04/97 11:28 Page:178
      927      148                        calling VDE$RPUT when we want to generate a key;
      928      149                    DEST_RIGHT is data component of either destRight or destNext
      929      150                        (see the "genkey" note above, which tells why only one of these
      930      151                        will be used in any given case);
      931      152                    DEST_EXISTS and GENERATE_KEY are set appropriately.
      932      153                Call ADJUST_INCREMENT to find a suitable key increment.  This may
      933      154                    indicate the need for a rekey of all or part of the destination
      934      155                    file.
      935      156                If ADJUST_INCREMENT can't find an increment to use:
      936      157                    If $REKEY <= 0 (don't auto-rekey), use .001 as the key increment,
      937      158                        and proceed with the insertion.  At some point in the
      938      159                        insertion, we'll get a cutoff error.
      939      160                    If $REKEY > 0, call VDI$BAUTO_REKEY to rekey some or all
      940      161                        of the destination file to make room for the source block.
      941      162                        In some cases, the insertion will be done at the same time,
      942      163                        allowing us to return at this time.
      943      164                        Otherwise, we now have a key increment to use for the
      944      165                        insertion.
      945      166                        Call PREPARE_DESTINATION again, to set up the parameters based
      946      167                        on the newly-keyed destination.
      947      168
      948      169                Append the first source record to whatever may already be in RECORD
      949      170                    (destLeft).
      950      171                Main loop:  while RECORD isn't %CLEAR:
      951      172                    If RECORD has no EOR (and so must be last record from the source
      952      173                        block), append DEST_RIGHT (if any) to its data component,
      953      174                        and clear DEST_RIGHT.
      954      175                    Call VDE$RPUT to write RECORD to the destination.  Note that
      955      176                        RECORD is a kinda schizoid VD$NODE_DESC:  it's .SPEC, .DATA,
      956      177                        and .EOR come from source block records; but it's .KEY is
      957      178                        a key in the destination block (which could be in an entirely
      958      179                        different file!)
      959      180                        GENERATE_KEY tells RPUT whether and how to generate a key.
      960      181                    Call VDA$LREAD/VDE$RGET to read the next source record into
      961      182                        RECORD.  If the previous RECORD had no EOR, then
      962      183                        VDE$RGET should return an empty RECORD this time.  If so,
      963      184                        then RECORD := DEST_RIGHT (which may be empty too) and clear
PL6.E3A0      #003=VDI$BINSERT File=VDI$BLOCK.:VDA5TSI                           FRI 07/04/97 11:28 Page:179
      964      185                        DEST_RIGHT.
      965      186                    Set RECORD.KEY to the key just written to the destination block,
      966      187                        and set GENERATE_KEY to generate a new key following RECORD.KEY,
      967      188                        for the next iteration.
      968      189                    End of main loop.
      969      190                Clean up:
      970      191                    Delete the destNext/destRight record, if we had to move it (see
      971      192                        "moved" and "genkey" notes above).
      972      193                    Adjust SRC_RANGE to describe any part of the source block not
      973      194                        copied.  If all copied ok, adjust SRC_RANGE to be an empty
      974      195                        block at its end location.
      975      196                    Adjust DEST_RANGE to describe the data just inserted at the
      976      197                        destination.
      977      198        */
      978      199
      979      200        VDI$BINSERT: PROC (SRC_RANGE, SRC_STREAM, DEST_RANGE, DEST_STREAM)

    200  1 000000   000000 700200 xent  VDI$BINSERT  TSX0  ! X66_AUTO_4
         1 000001   000202 000004                    ZERO    130,4

      980      201                  ALTRET;
      981      202
      982      203
      983      204        %INCLUDE VD_MACROS_M;
      984     2419        %INCLUDE VD_PERR_C;
      985     2567        /*
      986     2568        *   Flags for VDA$LREAD:
      987     2569        */
      988     2570        %EQU DONT_READ_RECORD = FALSE;  /* Just position, don't read */
      989     2571        %EQU READ_RECORD = TRUE;        /* Position and read */
      990     2572
      991     2573
      992     2574        %VD$RANGE (NAME=SRC_RANGE,STCLASS=PARAM);
      993     2643        %VD$STREAM (NAME=SRC_STREAM, STCLASS=PARAM);
      994     2749        %VD$RANGE (NAME=DEST_RANGE,STCLASS=PARAM);
      995     2818        %VD$STREAM (NAME=DEST_STREAM, STCLASS=PARAM);
      996     2924
PL6.E3A0      #003=VDI$BINSERT File=VDI$BLOCK.:VDA5TSI                           FRI 07/04/97 11:28 Page:180
      997     2925
      998     2926    1   DCL VDA$LREAD           ENTRY (4) ALTRET;
      999     2927    1   DCL VDA$LWRITE          ENTRY (4) ALTRET;
     1000     2928    1   DCL VDA$FOPEN           ENTRY (4) ALTRET;
     1001     2929    1   DCL VDA$FCLOSE          ENTRY (1) ALTRET;
     1002     2930    1   DCL VDA$PFLUSH          ENTRY (2) ALTRET;
     1003     2931    1   DCL VDI$BAUTO_REKEY     ENTRY (4) ALTRET;
     1004     2932    1   DCL VDE$RGET            ENTRY (3) ALTRET;
     1005     2933    1   DCL VDE$RPUT            ENTRY (6) ALTRET;
     1006     2934    1   DCL VDE$RADJUST_LENGTH  ENTRY (2) ALTRET;
     1007     2935    1   DCL VDG$OALLOC          ENTRY (3) ALTRET;
     1008     2936    1   DCL VDG$OFREE           ENTRY (1) ALTRET;
     1009     2937    1   DCL VDG$OCOPY           ENTRY (2) ALTRET;
     1010     2938    1   DCL VDG$OCOPY_RANGE     ENTRY (2) ALTRET;
     1011     2939    1   DCL VDG$OCOPY_LOCATION  ENTRY (2) ALTRET;
     1012     2940    1   DCL VDG$OCLEAR_LOCATION ENTRY (1) ALTRET;
     1013     2941    1   DCL VDG$XLATE_LOCATIONS ENTRY (2) ALTRET;
     1014     2942    1   DCL VDG$COMPARE_LOCS    ENTRY (3) ALTRET;
     1015     2943    1   DCL VDG$EREPORT_ERROR   ENTRY (1);
     1016     2944    1   DCL VDG$ESCREECH        ENTRY (3);
     1017     2945
     1018     2946
     1019     2947        %VD_6E (STCLASS=SYMREF);
     1020     2983    1   DCL VD_CURRENT_WINDOW$ PTR SYMREF;
     1021     2984    1   DCL VD_ACCESSOR_PRIV UBIN BYTE ALIGNED SYMREF;
     1022     2985        %VD$KEY (NAME=VD_KEY_NUMERIC_BOF, STCLASS=SYMREF);
     1023     2999    1   DCL VD_CMD_OBJECTS$ (0:%(MX_CMD_OBJECTS-1)) PTR SYMREF;
     1024     3000    1   DCL VD_EOF_DELETED BIT(36) SYMREF;
     1025     3001        %VD$FILE_KEY (NAME=VD_FKEY_SCRATCH_LEFTOVER, STCLASS=SYMREF);
     1026     3050        %VD$KEY (NAME=VD_KEY_SCRATCH_LEFTOVER, STCLASS=SYMREF);
     1027     3064        %VD$LOCATION (NAME=VD_LOC_$LEFTOVER, STCLASS=SYMREF);
     1028     3092        %VD$LOCATION (NAME=VD_LOC_$NOT_COPIED, STCLASS=SYMREF);
     1029     3120        %VD$NUMBER (NAME=VD_$REKEY, STCLASS=SYMREF);
     1030     3165        %VD$NUMBER (NAME=VD_$BY, STCLASS=SYMREF);
     1031     3210        %VD$NUMBER (NAME=VD_$RECORDS_INSERTED, STCLASS=SYMREF);
     1032     3255
     1033     3256
PL6.E3A0      #003=VDI$BINSERT File=VDI$BLOCK.:VDA5TSI                           FRI 07/04/97 11:28 Page:181
     1034     3257        %VD$KEY_NUMBER (NAME=VD_KEY_MN_EDITKEY, STCLASS=SYMREF);
     1035     3272        %VD$KEY_NUMBER (NAME=VD_KEY_MX_EDITKEY, STCLASS=SYMREF);
     1036     3287
     1037     3288
     1038     3289    1   DCL FIRST_TIME_THRU_MAIN_LOOP BIT(1) ALIGNED;
     1039     3290    1   DCL OUTSIDE_SRC_RANGE BIT(1) ALIGNED;
     1040     3291    1   DCL END_POS_OF_INSERTED_DATA SBIN;
     1041     3292    1   DCL DEST_EDIT_BLOCK$ PTR;
     1042     3293        %VD$ACCESS_OPTIONS (NAME=DEST_OPTIONS, STCLASS=AUTO);   /* Owns objects!! */
     1043     3322    1   DCL DEST_LEVEL SBIN;
     1044     3323    1   DCL SRC_LEVEL SBIN;
     1045     3324    1   DCL SRC_FILE_KEY$ PTR;
     1046     3325    1   DCL DEST_FILE_KEY$ PTR;
     1047     3326    1   DCL RCCL SBIN;
     1048     3327        %VD$NODE_DESC (NAME=RECORD, STCLASS=AUTO);
     1049     3369    1   DCL DEST_LEFT_LENGTH SBIN;
     1050     3370        %VD$KEY (NAME=DEST_NEXT_KEY, STCLASS=AUTO);
     1051     3384    1   DCL DEST_RIGHT$ PTR;
     1052     3385    1   DCL DEST_EXISTS BIT(1) ALIGNED;
     1053     3386    1   DCL DEST_EOR BIT(1);
     1054     3387    1   DCL DEST_KEY_SPACE SBIN;
     1055     3388    1   DCL GENERATE_KEY SBIN;      /* Holds an %SQ_ value */
     1056     3389    1   DCL MY_EOF_DELETED BIT(36);
     1057     3390    1   DCL PREVIOUS_SRC_EOR BIT(1) ALIGNED;
     1058     3391    1   DCL SRC_EOR BIT(1) ALIGNED;
     1059     3392        %VD$NODE_DESC (NAME=FIRST_SRC_RECORD, STCLASS=AUTO);
     1060     3434        %VD$KEY (NAME=SRC_KEY_OF_RECORD, STCLASS=AUTO); /* RECORD's key from src file */
     1061     3448        %VD$KEY (NAME=LAST_COPIED_KEY, STCLASS=AUTO);
     1062     3462        %VD$KEY (NAME=LAST_WRITTEN_KEY, STCLASS=AUTO);
     1063     3476        %VD$RANGE (NAME=DEL_RANGE, STCLASS=AUTO);   /* Doesn't own objects!!! */
     1064     3545    1   DCL DEST_END_KEY$ PTR;
     1065     3546    1   DCL VD_ERR$ PTR;
     1066     3547    1   DCL ERR_SUBST$ PTR;
     1067     3548
     1068     3549
     1069     3550        %VD$BLOCK_DESC (NAME=SRC$EDIT_BLOCK,
     1070     3551            STCLASS="BASED(VD_6E.SOURCE.OPERAND.EDIT_BLOCK$)");
PL6.E3A0      #003=VDI$BINSERT File=VDI$BLOCK.:VDA5TSI                           FRI 07/04/97 11:28 Page:182
     1071     3698        %VD$BLOCK_DESC (NAME=DEST$EDIT_BLOCK, STCLASS="BASED(DEST_EDIT_BLOCK$)");
     1072     3845        %VD$BUFFER (NAME=RECORD$DATA, STCLASS="BASED(RECORD.DATA$)");
     1073     3903        %VD$BUFFER (NAME=DEST$RIGHT, STCLASS="BASED(DEST_RIGHT$)");
     1074     3961        %VD$ERR (NAME=VD$ERR, STCLASS="BASED(VD_ERR$)");
     1075     4014        %VD$ERR (NAME=LAST$ERR, STCLASS="BASED(VD_6E.ERR_TAIL$)");
     1076     4067        %VD$POINTER (NAME=ERR$SUBST, DIM="(0:2)", STCLASS="BASED(ERR_SUBST$)");
     1077     4112        %VD$KEY_NUMBER;
     1078     4127        %VD$TEXTC;
     1079     4150        %VD$TEXTC_NUMBER;
     1080     4164        %VD$TEXTC_REMOTE;
     1081     4225        %VD$BUFFER;
     1082     4283        %VD$BUFFER_HEADER;
     1083     4319        %VD$FILE_NODE;
     1084     4412        %VD$WINDOW_SPEC;
     1085     4478        %VD$IT_BLOCK_EXPR;
     1086     4628
     1087     4629
     1088     4630        %BOX (TITLE="Procedure");

              4642    1   /***************************************************************************
              4644    1    *                                                                         *
              4648    1            *                                 Procedure                              *
              4650    1            *                                                                        *
              4652    1          ***************************************************************************/

     1089     4656
     1090     4657    1           OUTSIDE_SRC_RANGE = %FALSE;

   4657  1 000002   200010 450100                    STZ     OUTSIDE_SRC_RANGE,,AUTO

     1091     4658    1           GOTO THE_TOP;

   4658  1 000003   000010 710000 1                  TRA     THE_TOP

     1092     4659
     1093     4660    1   VDI$BSPLIT: ENTRY (SRC_RANGE, SRC_STREAM, DEST_RANGE, DEST_STREAM) ALTRET;

PL6.E3A0      #003=VDI$BINSERT File=VDI$BLOCK.:VDA5TSI                           FRI 07/04/97 11:28 Page:183
   4660  1 000004   000000 700200 xent  VDI$BSPLIT   TSX0  ! X66_AUTO_4
         1 000005   000202 000004                    ZERO    130,4

     1094     4661
     1095     4662    1           OUTSIDE_SRC_RANGE = %TRUE;

   4662  1 000006   400000 236003                    LDQ     -131072,DU
         1 000007   200010 756100                    STQ     OUTSIDE_SRC_RANGE,,AUTO

   4662  1 000010                       THE_TOP      null
     1096     4663    1   THE_TOP: ;
     1097     4664    1           FIRST_TIME_THRU_MAIN_LOOP = %TRUE;

   4664  1 000010   400000 236003                    LDQ     -131072,DU
         1 000011   200007 756100                    STQ     FIRST_TIME_THRU_MAIN_LOOP,,AUTO

     1098     4665    1           VD_$RECORDS_INSERTED.V# = -1;

   4665  1 000012   000001 335007                    LCA     1,DL
         1 000013   000003 755000 xsym               STA     VD_$RECORDS_INSERTED+3

     1099     4666    1           END_POS_OF_INSERTED_DATA = 0;   /* Assumption */

   4666  1 000014   200011 450100                    STZ     END_POS_OF_INSERTED_DATA,,AUTO

     1100     4667    1           DEST_OPTIONS = %CLEAR;

   4667  1 000015   000100 100400                    MLR     fill='000'O
         1 000016   000002 000001 xsym               ADSC9   B_VECTNIL+2              cn=0,n=1
         1 000017   200013 000024                    ADSC9   DEST_OPTIONS,,AUTO       cn=0,n=20

     1101     4668    1           RECORD = %CLEAR;

   4668  1 000020   000100 100400                    MLR     fill='000'O
         1 000021   000002 000001 xsym               ADSC9   B_VECTNIL+2              cn=0,n=1
         1 000022   200025 000030                    ADSC9   RECORD,,AUTO             cn=0,n=24

PL6.E3A0      #003=VDI$BINSERT File=VDI$BLOCK.:VDA5TSI                           FRI 07/04/97 11:28 Page:184
     1102     4669    1           RECORD.DATA$ = ADDR(NIL);

   4669  1 000023   000001 236000 xsym               LDQ     B_VECTNIL+1
         1 000024   200031 756100                    STQ     RECORD+4,,AUTO

     1103     4670    1           DEST_NEXT_KEY = %CLEAR;

   4670  1 000025   000000 235003                    LDA     0,DU
         1 000026   000000 236003                    LDQ     0,DU
         1 000027   200034 757100                    STAQ    DEST_NEXT_KEY,,AUTO

     1104     4671    1           FIRST_SRC_RECORD = RECORD;

   4671  1 000030   000100 100500                    MLR     fill='000'O
         1 000031   200025 000030                    ADSC9   RECORD,,AUTO             cn=0,n=24
         1 000032   200046 000030                    ADSC9   FIRST_SRC_RECORD,,AUTO   cn=0,n=24

     1105     4672    1           FIRST_SRC_RECORD.EOR = OUTSIDE_SRC_RANGE;

   4672  1 000033   200010 236100                    LDQ     OUTSIDE_SRC_RANGE,,AUTO
         1 000034   200053 676100                    ERQ     FIRST_SRC_RECORD+5,,AUTO
         1 000035   400000 376003                    ANQ     -131072,DU
         1 000036   200053 656100                    ERSQ    FIRST_SRC_RECORD+5,,AUTO

     1106     4673    1           SRC_KEY_OF_RECORD = %CLEAR;

   4673  1 000037   000000 235003                    LDA     0,DU
         1 000040   000000 236003                    LDQ     0,DU
         1 000041   200054 757100                    STAQ    SRC_KEY_OF_RECORD,,AUTO

     1107     4674    1           LAST_COPIED_KEY = %CLEAR;

   4674  1 000042   000000 235003                    LDA     0,DU
         1 000043   000000 236003                    LDQ     0,DU
         1 000044   200056 757100                    STAQ    LAST_COPIED_KEY,,AUTO

     1108     4675    1           LAST_WRITTEN_KEY = %CLEAR;
PL6.E3A0      #003=VDI$BINSERT File=VDI$BLOCK.:VDA5TSI                           FRI 07/04/97 11:28 Page:185

   4675  1 000045   000000 235003                    LDA     0,DU
         1 000046   000000 236003                    LDQ     0,DU
         1 000047   200060 757100                    STAQ    LAST_WRITTEN_KEY,,AUTO

     1109     4676    1           MY_EOF_DELETED = VD_EOF_DELETED;

   4676  1 000050   000000 236000 xsym               LDQ     VD_EOF_DELETED
         1 000051   200043 756100                    STQ     MY_EOF_DELETED,,AUTO

     1110     4677    1           VD_EOF_DELETED = %FALSE;

   4677  1 000052   000000 450000 xsym               STZ     VD_EOF_DELETED

     1111     4678
     1112     4679                /* Obtain fixed parameters from remote objects for easier access */
     1113     4680    2           IF ADDR(DEST_STREAM) ~= VD_6E.SOURCE.OPERAND.STREAM$ THEN DO;

   4680  1 000053   200006 236100                    LDQ     @DEST_STREAM,,AUTO
         1 000054   000020 116000 xsym               CMPQ    VD_6E+16
         1 000055   000076 600000 1                  TZE     s:4691

     1114     4681    2              DEST_EDIT_BLOCK$ = VD_CURRENT_WINDOW$ -> VD$FILE_NODE.DESC.SPEC.V$ ->

   4681  1 000056   000000 470400 xsym               LDP0    VD_CURRENT_WINDOW$
         1 000057   000007 471500                    LDP1    7,,PR0
         1 000060   100012 236100                    LDQ     10,,PR1
         1 000061   200012 756100                    STQ     DEST_EDIT_BLOCK$,,AUTO

     1115     4682    2                VD$WINDOW_SPEC.OPERAND.EDIT_BLOCK$;
     1116     4683    2              IF NOT OUTSIDE_SRC_RANGE THEN

   4683  1 000062   200010 234100                    SZN     OUTSIDE_SRC_RANGE,,AUTO
         1 000063   000071 604000 1                  TMI     s:4688

     1117     4684    2                 DEST_OPTIONS = VD_CURRENT_WINDOW$ ->

PL6.E3A0      #003=VDI$BINSERT File=VDI$BLOCK.:VDA5TSI                           FRI 07/04/97 11:28 Page:186
   4684  1 000064   100011 473500                    LDP3    9,,PR1
         1 000065   000100 100500                    MLR     fill='000'O
         1 000066   300030 000024                    ADSC9   24,,PR3                  cn=0,n=20
         1 000067   200013 000024                    ADSC9   DEST_OPTIONS,,AUTO       cn=0,n=20
         1 000070   000106 710000 1                  TRA     s:4709

     1118     4685    2                   VD$FILE_NODE.DESC.SPEC.V$ -> VD$WINDOW_SPEC.OPERAND.INTREE$ ->
     1119     4686    2                   VD$IT_BLOCK_EXPR.OPTIONS;
     1120     4687    2              ELSE
     1121     4688    2                 DEST_OPTIONS = DEST$EDIT_BLOCK.OPTIONS;

   4688  1 000071   200012 473500                    LDP3    DEST_EDIT_BLOCK$,,AUTO
         1 000072   000100 100500                    MLR     fill='000'O
         1 000073   300025 000024                    ADSC9   21,,PR3                  cn=0,n=20
         1 000074   200013 000024                    ADSC9   DEST_OPTIONS,,AUTO       cn=0,n=20

     1122     4689    2              END;

   4689  1 000075   000106 710000 1                  TRA     s:4709

     1123     4690    2           ELSE DO;

     1124     4691    2              DEST_EDIT_BLOCK$ = VD_6E.SOURCE.OPERAND.EDIT_BLOCK$;

   4691  1 000076   000022 236000 xsym               LDQ     VD_6E+18
         1 000077   200012 756100                    STQ     DEST_EDIT_BLOCK$,,AUTO

     1125     4692    2              DEST$EDIT_BLOCK.RANGE.ENDD.EOF = %TRUE;

   4692  1 000100   200012 470500                    LDP0    DEST_EDIT_BLOCK$,,AUTO
         1 000101   400000 236007                    LDQ     -131072,DL
         1 000102   000024 256100                    ORSQ    20,,PR0

     1126     4693    2              DEST_OPTIONS = DEST$EDIT_BLOCK.OPTIONS;

   4693  1 000103   000100 100500                    MLR     fill='000'O
         1 000104   000025 000024                    ADSC9   21,,PR0                  cn=0,n=20
PL6.E3A0      #003=VDI$BINSERT File=VDI$BLOCK.:VDA5TSI                           FRI 07/04/97 11:28 Page:187
         1 000105   200013 000024                    ADSC9   DEST_OPTIONS,,AUTO       cn=0,n=20

     1127     4694    2              END;

     1128     4695
     1129     4696                %COPYKEY (FKEY=DEST_OPTIONS.KEY_INCR, TKEY=DEST_OPTIONS.KEY_INCR);

   4709  1 000106   200016 237100                    LDAQ    DEST_OPTIONS+3,,AUTO
         1 000107   200016 757100                    STAQ    DEST_OPTIONS+3,,AUTO

   4709  1 000110   200016 720100                    LXL0    DEST_OPTIONS+3,,AUTO
         1 000111   000002 100003                    CMPX0   2,DU
         1 000112   000125 601000 1                  TNZ     s:4712

   4709  1 000113   200017 630500                    EPPR0   DEST_OPTIONS+4,,AUTO
         1 000114   200175 450500                    STP0    OPEN_OPTIONS+6,,AUTO
         1 000115   200017 236100                    LDQ     DEST_OPTIONS+4,,AUTO
         1 000116   200174 756100                    STQ     OPEN_OPTIONS+5,,AUTO
         1 000117   200174 630500                    EPPR0   OPEN_OPTIONS+5,,AUTO
         1 000120   000020 631400 xsym               EPPR1   B_VECTNIL+16
         1 000121   000000 701000 xent               TSX1    VDG$OCOPY
         1 000122   000124 702000 1                  TSX2    s:4710
         1 000123   000125 710000 1                  TRA     s:4712

   4710  1 000124   000000 702200 xent               TSX2  ! X66_AALT

     1130     4712    1           DEST_LEVEL = DEST_OPTIONS.LEVEL#;

   4712  1 000125   200014 235100                    LDA     DEST_OPTIONS+1,,AUTO
         1 000126   000022 731000                    ARS     18
         1 000127   200020 755100                    STA     DEST_LEVEL,,AUTO

     1131     4713    1           SRC_LEVEL = %LVL_EXT_REC;   /*N* s.b. from source "EditBlock"? *N*/

   4713  1 000130   000001 236007                    LDQ     1,DL
         1 000131   200021 756100                    STQ     SRC_LEVEL,,AUTO

PL6.E3A0      #003=VDI$BINSERT File=VDI$BLOCK.:VDA5TSI                           FRI 07/04/97 11:28 Page:188
     1132     4714
     1133     4715                /*
     1134     4716                *   Set DEST_RANGE.START to point to where we'll start inserting.
     1135     4717                *   For now, assume we'll start at DEST_RANGE.ENDD.
     1136     4718                */
     1137     4719    1           CALL VDG$OCLEAR_LOCATION (DEST_RANGE.START)

   4719  1 000132   200005 630500                    EPPR0   @DEST_RANGE,,AUTO
         1 000133   000017 631400 xsym               EPPR1   B_VECTNIL+15
         1 000134   000000 701000 xent               TSX1    VDG$OCLEAR_LOCATION
         1 000135   001257 702000 1                  TSX2    COMPARE_LOCS_FAILED

     1138     4720    1             ALTRET (OCLEAR_LOCATION_FAILED);
     1139     4721    1           CALL VDG$OCOPY_LOCATION (DEST_RANGE.ENDD, DEST_RANGE.START)

   4721  1 000136   200005 236100                    LDQ     @DEST_RANGE,,AUTO
         1 000137   200175 756100                    STQ     OPEN_OPTIONS+6,,AUTO
         1 000140   000011 036003                    ADLQ    9,DU
         1 000141   200174 756100                    STQ     OPEN_OPTIONS+5,,AUTO
         1 000142   200174 630500                    EPPR0   OPEN_OPTIONS+5,,AUTO
         1 000143   000020 631400 xsym               EPPR1   B_VECTNIL+16
         1 000144   000000 701000 xent               TSX1    VDG$OCOPY_LOCATION
         1 000145   001257 702000 1                  TSX2    COMPARE_LOCS_FAILED

     1140     4722    1             ALTRET (OCOPY_LOCATION_FAILED);
     1141     4723
     1142     4724    2           IF NOT OUTSIDE_SRC_RANGE THEN DO;

   4724  1 000146   200010 234100                    SZN     OUTSIDE_SRC_RANGE,,AUTO
         1 000147   000217 604000 1                  TMI     s:4755

     1143     4725                /* Get the first source record */
     1144     4726    2              CALL VDA$LREAD (SRC_STREAM, SRC_RANGE.START, 0, %TRUE)

   4726  1 000150   000000 237000 2                  LDAQ    0
         1 000151   200176 757100                    STAQ    OPEN_OPTIONS+7,,AUTO
         1 000152   200003 236100                    LDQ     @SRC_RANGE,,AUTO
PL6.E3A0      #003=VDI$BINSERT File=VDI$BLOCK.:VDA5TSI                           FRI 07/04/97 11:28 Page:189
         1 000153   200004 235100                    LDA     @SRC_STREAM,,AUTO
         1 000154   200174 757100                    STAQ    OPEN_OPTIONS+5,,AUTO
         1 000155   200174 630500                    EPPR0   OPEN_OPTIONS+5,,AUTO
         1 000156   000022 631400 xsym               EPPR1   B_VECTNIL+18
         1 000157   000000 701000 xent               TSX1    VDA$LREAD
         1 000160   001254 702000 1                  TSX2    LREAD_FAILED

     1145     4727    2                ALTRET (LREAD_FAILED);
     1146     4728    2              CALL VDE$RGET (SRC_STREAM, SRC_RANGE, FIRST_SRC_RECORD)

   4728  1 000161   200046 630500                    EPPR0   FIRST_SRC_RECORD,,AUTO
         1 000162   200176 450500                    STP0    OPEN_OPTIONS+7,,AUTO
         1 000163   200003 236100                    LDQ     @SRC_RANGE,,AUTO
         1 000164   200004 235100                    LDA     @SRC_STREAM,,AUTO
         1 000165   200174 757100                    STAQ    OPEN_OPTIONS+5,,AUTO
         1 000166   200174 630500                    EPPR0   OPEN_OPTIONS+5,,AUTO
         1 000167   000021 631400 xsym               EPPR1   B_VECTNIL+17
         1 000170   000000 701000 xent               TSX1    VDE$RGET
         1 000171   001254 702000 1                  TSX2    LREAD_FAILED

     1147     4729    2                ALTRET (RGET_FAILED);
     1148     4730                   %COPYKEY (FKEY=FIRST_SRC_RECORD.KEY, TKEY=SRC_KEY_OF_RECORD);

   4743  1 000172   200046 237100                    LDAQ    FIRST_SRC_RECORD,,AUTO
         1 000173   200054 757100                    STAQ    SRC_KEY_OF_RECORD,,AUTO

   4743  1 000174   200046 720100                    LXL0    FIRST_SRC_RECORD,,AUTO
         1 000175   000002 100003                    CMPX0   2,DU
         1 000176   000211 601000 1                  TNZ     s:4747

   4743  1 000177   200055 630500                    EPPR0   SRC_KEY_OF_RECORD+1,,AUTO
         1 000200   200175 450500                    STP0    OPEN_OPTIONS+6,,AUTO
         1 000201   200047 236100                    LDQ     FIRST_SRC_RECORD+1,,AUTO
         1 000202   200174 756100                    STQ     OPEN_OPTIONS+5,,AUTO
         1 000203   200174 630500                    EPPR0   OPEN_OPTIONS+5,,AUTO
         1 000204   000020 631400 xsym               EPPR1   B_VECTNIL+16
         1 000205   000000 701000 xent               TSX1    VDG$OCOPY
PL6.E3A0      #003=VDI$BINSERT File=VDI$BLOCK.:VDA5TSI                           FRI 07/04/97 11:28 Page:190
         1 000206   000210 702000 1                  TSX2    s:4744
         1 000207   000211 710000 1                  TRA     s:4747

   4744  1 000210   000000 702200 xent               TSX2  ! X66_AALT

     1149     4746
     1150     4747    3              IF FIRST_SRC_RECORD.KEY = %CLEAR THEN DO; /* Src range is empty */

   4747  1 000211   200046 237100                    LDAQ    FIRST_SRC_RECORD,,AUTO
         1 000212   000002 117000 2                  CMPAQ   2
         1 000213   000217 601000 1                  TNZ     s:4755

     1151     4748    3                 CALL CLEANUP

   4748  1 000214   001537 701000 1                  TSX1    CLEANUP
         1 000215   001257 702000 1                  TSX2    COMPARE_LOCS_FAILED

     1152     4749    3                   ALTRET (CLEANUP_FAILED);
     1153     4750    3                 RETURN;

   4750  1 000216   000000 702200 xent               TSX2  ! X66_ARET

     1154     4751    3                 END;
     1155     4752    2              END;
     1156     4753
     1157     4754                /* Read the destination record and set up for main loop */
     1158     4755    1           CALL PREPARE_DESTINATION

   4755  1 000217   002352 701000 1                  TSX1    PREPARE_DESTINATION
         1 000220   001254 702000 1                  TSX2    LREAD_FAILED

     1159     4756    1             ALTRET (PREPARE_DESTINATION_FAILED);
     1160     4757
     1161     4758                /* Find key increment */
     1162     4759    1           CALL ADJUST_INCREMENT (DEST_OPTIONS.KEY_INCR)

   4759  1 000221   200016 630500                    EPPR0   DEST_OPTIONS+3,,AUTO
PL6.E3A0      #003=VDI$BINSERT File=VDI$BLOCK.:VDA5TSI                           FRI 07/04/97 11:28 Page:191
         1 000222   200111 450500                    STP0    ERR_SUBST$+3,,AUTO
         1 000223   001705 701000 1                  TSX1    ADJUST_INCREMENT
         1 000224   001254 702000 1                  TSX2    LREAD_FAILED

     1163     4760    1             ALTRET (ADJUST_INCREMENT_FAILED);
     1164     4761    1           IF DEST_OPTIONS.KEY_INCR.TYPE# = 0 THEN

   4761  1 000225   200016 220100                    LDX0    DEST_OPTIONS+3,,AUTO
         1 000226   000262 601000 1                  TNZ     s:4786

     1165     4762    2   CANT_FIND_INCREMENT: DO;

   4762  1 000227                       CANT_FIND_I* null
     1166     4763                   /* ADJUST_INCREMENT couldn't find an increment to use */
     1167     4764                   /* Reset DEST_OPTIONS.KEY_INCR to value given by user */
     1168     4765    2              DEST_OPTIONS.KEY_INCR.TYPE# = %KT_EDITKEY;

   4765  1 000227   000003 221003                    LDX1    3,DU
         1 000230   200016 741100                    STX1    DEST_OPTIONS+3,,AUTO

     1169     4766    3              IF VD_$REKEY.V# <= 0 THEN DO;

   4766  1 000231   000003 235000 xsym               LDA     VD_$REKEY+3
         1 000232   000236 605400 1                  TPNZ    s:4773

     1170     4767                      /* User doesn't want us to auto-rekey; go ahead using .001 */
     1171     4768    3                 ADDR(DEST_OPTIONS.KEY_INCR) -> VD$KEY_NUMBER.BYTES# =

   4768  1 000233   000001 236007                    LDQ     1,DL
         1 000234   200017 552134                    STBQ    DEST_OPTIONS+4,'34'O,AUTO

     1172     4769    3                   %MN_EDITKEY_FRACT;
     1173     4770    3                 END;

   4770  1 000235   000262 710000 1                  TRA     s:4786

     1174     4771    3              ELSE DO;
PL6.E3A0      #003=VDI$BINSERT File=VDI$BLOCK.:VDA5TSI                           FRI 07/04/97 11:28 Page:192

     1175     4772                      /* Rekey the destination so the src will fit */
     1176     4773    3                 CALL VDI$BAUTO_REKEY (DEST_STREAM, RECORD.KEY,

   4773  1 000236   200041 630500                    EPPR0   DEST_KEY_SPACE,,AUTO
         1 000237   200177 450500                    STP0    OPEN_OPTIONS+8,,AUTO
         1 000240   200013 631500                    EPPR1   DEST_OPTIONS,,AUTO
         1 000241   200176 451500                    STP1    OPEN_OPTIONS+7,,AUTO
         1 000242   200025 633500                    EPPR3   RECORD,,AUTO
         1 000243   200175 453500                    STP3    OPEN_OPTIONS+6,,AUTO
         1 000244   200006 236100                    LDQ     @DEST_STREAM,,AUTO
         1 000245   200174 756100                    STQ     OPEN_OPTIONS+5,,AUTO
         1 000246   200174 630500                    EPPR0   OPEN_OPTIONS+5,,AUTO
         1 000247   000022 631400 xsym               EPPR1   B_VECTNIL+18
         1 000250   000000 701000 xent               TSX1    VDI$BAUTO_REKEY
         1 000251   001254 702000 1                  TSX2    LREAD_FAILED

     1177     4774    3                   DEST_OPTIONS, DEST_KEY_SPACE)
     1178     4775    3                   ALTRET (BAUTO_REKEY_FAILED);
     1179     4776    3                 CALL CLEANUP; /* Free RECORD buffer, etc. */

   4776  1 000252   001537 701000 1                  TSX1    CLEANUP
         1 000253   000000 011000                    NOP     0

     1180     4777    3                 CALL PREPARE_DESTINATION

   4777  1 000254   002352 701000 1                  TSX1    PREPARE_DESTINATION
         1 000255   001254 702000 1                  TSX2    LREAD_FAILED

     1181     4778    3                   ALTRET (PREPARE_DESTINATION_FAILED);
     1182     4779    3                 CALL ADJUST_INCREMENT (DEST_OPTIONS.KEY_INCR)

   4779  1 000256   200016 630500                    EPPR0   DEST_OPTIONS+3,,AUTO
         1 000257   200111 450500                    STP0    ERR_SUBST$+3,,AUTO
         1 000260   001705 701000 1                  TSX1    ADJUST_INCREMENT
         1 000261   001254 702000 1                  TSX2    LREAD_FAILED

PL6.E3A0      #003=VDI$BINSERT File=VDI$BLOCK.:VDA5TSI                           FRI 07/04/97 11:28 Page:193
     1183     4780    3                   ALTRET (ADJUST_INCREMENT_FAILED);
     1184     4781    3                 END;

     1185     4782    2              END CANT_FIND_INCREMENT;

     1186     4783
     1187     4784
     1188     4785                /* Append FIRST_SRC_RECORD to whatever (if anything) is in RECORD */
     1189     4786    2           IF RECORD.SPEC = %CLEAR THEN DO;

   4786  1 000262   000000 106500                    CMPC    fill='000'O
         1 000263   200027 000010                    ADSC9   RECORD+2,,AUTO           cn=0,n=8
         1 000264   000002 000002 xsym               ADSC9   B_VECTNIL+2              cn=0,n=2
         1 000265   000274 601000 1                  TNZ     s:4790

     1190     4787    2              RECORD.SPEC = FIRST_SRC_RECORD.SPEC;

   4787  1 000266   200050 237100                    LDAQ    FIRST_SRC_RECORD+2,,AUTO
         1 000267   200027 755100                    STA     RECORD+2,,AUTO
         1 000270   200030 756100                    STQ     RECORD+3,,AUTO

     1191     4788    2              FIRST_SRC_RECORD.SPEC = %CLEAR;

   4788  1 000271   000000 235003                    LDA     0,DU
         1 000272   000000 236003                    LDQ     0,DU
         1 000273   200050 757100                    STAQ    FIRST_SRC_RECORD+2,,AUTO

     1192     4789    2              END;

     1193     4790    2           IF RECORD.DATA$ = ADDR(NIL) THEN DO;

   4790  1 000274   200031 236100                    LDQ     RECORD+4,,AUTO
         1 000275   000001 116000 xsym               CMPQ    B_VECTNIL+1
         1 000276   000304 601000 1                  TNZ     s:4795

     1194     4791    2              RECORD.DATA$ = FIRST_SRC_RECORD.DATA$;

PL6.E3A0      #003=VDI$BINSERT File=VDI$BLOCK.:VDA5TSI                           FRI 07/04/97 11:28 Page:194
   4791  1 000277   200052 236100                    LDQ     FIRST_SRC_RECORD+4,,AUTO
         1 000300   200031 756100                    STQ     RECORD+4,,AUTO

     1195     4792    2              FIRST_SRC_RECORD.DATA$ = ADDR(NIL);

   4792  1 000301   000001 236000 xsym               LDQ     B_VECTNIL+1
         1 000302   200052 756100                    STQ     FIRST_SRC_RECORD+4,,AUTO

     1196     4793    2              END;

   4793  1 000303   000312 710000 1                  TRA     s:4798

     1197     4794    2           ELSE DO;

     1198     4795    2              CALL APPEND (RECORD.DATA$, FIRST_SRC_RECORD.DATA$)

   4795  1 000304   200052 630500                    EPPR0   FIRST_SRC_RECORD+4,,AUTO
         1 000305   200112 450500                    STP0    @LEFT$+1,,AUTO
         1 000306   200031 631500                    EPPR1   RECORD+4,,AUTO
         1 000307   200111 451500                    STP1    ERR_SUBST$+3,,AUTO
         1 000310   003707 701000 1                  TSX1    APPEND
         1 000311   001254 702000 1                  TSX2    LREAD_FAILED

     1199     4796    2                ALTRET (APPEND_FAILED);
     1200     4797    2              END;

     1201     4798    1           RECORD.EOR = FIRST_SRC_RECORD.EOR;

   4798  1 000312   200053 236100                    LDQ     FIRST_SRC_RECORD+5,,AUTO
         1 000313   200032 676100                    ERQ     RECORD+5,,AUTO
         1 000314   400000 376003                    ANQ     -131072,DU
         1 000315   200032 656100                    ERSQ    RECORD+5,,AUTO

     1202     4799    1           SRC_EOR = FIRST_SRC_RECORD.EOR;

   4799  1 000316   200053 236100                    LDQ     FIRST_SRC_RECORD+5,,AUTO
         1 000317   400000 376003                    ANQ     -131072,DU
PL6.E3A0      #003=VDI$BINSERT File=VDI$BLOCK.:VDA5TSI                           FRI 07/04/97 11:28 Page:195
         1 000320   200045 756100                    STQ     SRC_EOR,,AUTO

     1203     4800
     1204     4801                /* Clear FIRST_SRC_RECORD to free any dynamic storage */
     1205     4802                %CLEARKEY (KEY=FIRST_SRC_RECORD.KEY);

   4809  1 000321   200046 720100                    LXL0    FIRST_SRC_RECORD,,AUTO
         1 000322   000002 100003                    CMPX0   2,DU
         1 000323   000332 601000 1                  TNZ     s:4810+1

   4809  1 000324   200047 630500                    EPPR0   FIRST_SRC_RECORD+1,,AUTO
         1 000325   000017 631400 xsym               EPPR1   B_VECTNIL+15
         1 000326   000000 701000 xent               TSX1    VDG$OFREE
         1 000327   000331 702000 1                  TSX2    s:4810
         1 000330   000332 710000 1                  TRA     s:4810+1

   4810  1 000331   000000 702200 xent               TSX2  ! X66_AALT

   4810  1 000332   000000 235003                    LDA     0,DU
         1 000333   000000 236003                    LDQ     0,DU
         1 000334   200046 757100                    STAQ    FIRST_SRC_RECORD,,AUTO

     1206     4812                %CLEARSPEC (SPEC=FIRST_SRC_RECORD.SPEC);

   4819  1 000335   200050 720100                    LXL0    FIRST_SRC_RECORD+2,,AUTO
         1 000336   000002 100003                    CMPX0   2,DU
         1 000337   000346 601000 1                  TNZ     s:4820+1

   4819  1 000340   200051 630500                    EPPR0   FIRST_SRC_RECORD+3,,AUTO
         1 000341   000017 631400 xsym               EPPR1   B_VECTNIL+15
         1 000342   000000 701000 xent               TSX1    VDG$OFREE
         1 000343   000345 702000 1                  TSX2    s:4820
         1 000344   000346 710000 1                  TRA     s:4820+1

   4820  1 000345   000000 702200 xent               TSX2  ! X66_AALT

   4820  1 000346   000000 235003                    LDA     0,DU
PL6.E3A0      #003=VDI$BINSERT File=VDI$BLOCK.:VDA5TSI                           FRI 07/04/97 11:28 Page:196
         1 000347   000000 236003                    LDQ     0,DU
         1 000350   200050 757100                    STAQ    FIRST_SRC_RECORD+2,,AUTO

     1207     4822    2           IF FIRST_SRC_RECORD.DATA$ ~= ADDR(NIL) THEN DO;

   4822  1 000351   200052 236100                    LDQ     FIRST_SRC_RECORD+4,,AUTO
         1 000352   000001 116000 xsym               CMPQ    B_VECTNIL+1
         1 000353   000362 600000 1                  TZE     s:4841

     1208     4823    2              CALL VDG$OFREE (FIRST_SRC_RECORD.DATA$ -> VD$BUFFER)

   4823  1 000354   200052 630500                    EPPR0   FIRST_SRC_RECORD+4,,AUTO
         1 000355   000017 631400 xsym               EPPR1   B_VECTNIL+15
         1 000356   000000 701000 xent               TSX1    VDG$OFREE
         1 000357   001257 702000 1                  TSX2    COMPARE_LOCS_FAILED

     1209     4824    2                ALTRET (OFREE_FAILED);
     1210     4825    2              FIRST_SRC_RECORD.DATA$ = ADDR(NIL);

   4825  1 000360   000001 236000 xsym               LDQ     B_VECTNIL+1
         1 000361   200052 756100                    STQ     FIRST_SRC_RECORD+4,,AUTO

     1211     4826    2              END;

     1212     4827                /*
     1213     4828                *  !!!!!                CAUTION                 !!!!!  *
     1214     4829                *  !!!!! Don't clear all of FIRST_SRC_RECORD;   !!!!!  *
     1215     4830                *  !!!!! Specifically, we look at .EOR in the   !!!!!  *
     1216     4831                *  !!!!!          code that follows.            !!!!!  *
     1217     4832                */
     1218     4833
     1219     4834                /*
     1220     4835                 *    If either (a) source ends at EOF; or (b) source ends at
     1221     4836                 *        destination location, which is at the beginning of a
     1222     4837                 *        record -- then find the actual record key just before
     1223     4838                 *        the source end location, so there's no doubt about when
     1224     4839                 *        to stop copying.
PL6.E3A0      #003=VDI$BINSERT File=VDI$BLOCK.:VDA5TSI                           FRI 07/04/97 11:28 Page:197
     1225     4840                 */
     1226     4841    1           RCCL = -1;  /* Assume not equal (no comparison if files not equal) */

   4841  1 000362   000001 335007                    LCA     1,DL
         1 000363   200024 755100                    STA     RCCL,,AUTO

     1227     4842    2           IF SRC_RANGE.ENDD.POSITION# = 0 AND NOT OUTSIDE_SRC_RANGE THEN DO;

   4842  1 000364   200003 470500                    LDP0    @SRC_RANGE,,AUTO
         1 000365   000021 220100                    LDX0    17,,PR0
         1 000366   000447 601000 1                  TNZ     s:4870
         1 000367   200010 234100                    SZN     OUTSIDE_SRC_RANGE,,AUTO
         1 000370   000447 604000 1                  TMI     s:4870

     1228     4843                   %GETKEY (KEY=SRC_STREAM.FILE_KEY, PTR=SRC_FILE_KEY$);

   4850  1 000371   200004 471500                    LDP1    @SRC_STREAM,,AUTO
         1 000372   100004 721100                    LXL1    4,,PR1
         1 000373   000002 101003                    CMPX1   2,DU
         1 000374   000401 601000 1                  TNZ     s:4850+8

   4850  1 000375   100005 473500                    LDP3    5,,PR1
         1 000376   300002 634500                    EPPR4   2,,PR3
         1 000377   200022 454500                    STP4    SRC_FILE_KEY$,,AUTO
         1 000400   000404 710000 1                  TRA     s:4860

   4850  1 000401   200004 236100                    LDQ     @SRC_STREAM,,AUTO
         1 000402   000005 036003                    ADLQ    5,DU
         1 000403   200022 756100                    STQ     SRC_FILE_KEY$,,AUTO

     1229     4853                   %GETKEY (KEY=DEST_STREAM.FILE_KEY, PTR=DEST_FILE_KEY$);

   4860  1 000404   200006 473500                    LDP3    @DEST_STREAM,,AUTO
         1 000405   300004 722100                    LXL2    4,,PR3
         1 000406   000002 102003                    CMPX2   2,DU
         1 000407   000414 601000 1                  TNZ     s:4860+8

PL6.E3A0      #003=VDI$BINSERT File=VDI$BLOCK.:VDA5TSI                           FRI 07/04/97 11:28 Page:198
   4860  1 000410   300005 474500                    LDP4    5,,PR3
         1 000411   400002 635500                    EPPR5   2,,PR4
         1 000412   200023 455500                    STP5    DEST_FILE_KEY$,,AUTO
         1 000413   000417 710000 1                  TRA     s:4863

   4860  1 000414   200006 236100                    LDQ     @DEST_STREAM,,AUTO
         1 000415   000005 036003                    ADLQ    5,DU
         1 000416   200023 756100                    STQ     DEST_FILE_KEY$,,AUTO

     1230     4863    2              IF SRC_FILE_KEY$ -> VD$TEXTC.BYTES =

   4863  1 000417   200022 474500                    LDP4    SRC_FILE_KEY$,,AUTO
         1 000420   400000 236100                    LDQ     0,,PR4
         1 000421   000033 772000                    QRL     27
         1 000422   200023 475500                    LDP5    DEST_FILE_KEY$,,AUTO
         1 000423   000000 623006                    EAX3    0,QL
         1 000424   500000 236100                    LDQ     0,,PR5
         1 000425   000033 772000                    QRL     27
         1 000426   000000 624006                    EAX4    0,QL
         1 000427   040140 106540                    CMPC    fill='040'O
         1 000430   400000 200013                    ADSC9   0,,PR4                   cn=1,n=*X3
         1 000431   500000 200014                    ADSC9   0,,PR5                   cn=1,n=*X4
         1 000432   000447 601000 1                  TNZ     s:4870

     1231     4864    3                DEST_FILE_KEY$ -> VD$TEXTC.BYTES THEN DO;

     1232     4865    3                 CALL VDG$COMPARE_LOCS (DEST_RANGE.ENDD, SRC_RANGE.ENDD, RCCL)

   4865  1 000433   200024 636500                    EPPR6   RCCL,,AUTO
         1 000434   200176 456500                    STP6    OPEN_OPTIONS+7,,AUTO
         1 000435   200003 236100                    LDQ     @SRC_RANGE,,AUTO
         1 000436   000011 036003                    ADLQ    9,DU
         1 000437   200175 756100                    STQ     OPEN_OPTIONS+6,,AUTO
         1 000440   200005 236100                    LDQ     @DEST_RANGE,,AUTO
         1 000441   000011 036003                    ADLQ    9,DU
         1 000442   200174 756100                    STQ     OPEN_OPTIONS+5,,AUTO
         1 000443   200174 630500                    EPPR0   OPEN_OPTIONS+5,,AUTO
PL6.E3A0      #003=VDI$BINSERT File=VDI$BLOCK.:VDA5TSI                           FRI 07/04/97 11:28 Page:199
         1 000444   000021 631400 xsym               EPPR1   B_VECTNIL+17
         1 000445   000000 701000 xent               TSX1    VDG$COMPARE_LOCS
         1 000446   001257 702000 1                  TSX2    COMPARE_LOCS_FAILED

     1233     4866    3                   ALTRET (COMPARE_LOCS_FAILED);
     1234     4867    3                 END;

     1235     4868    2              END;

     1236     4869
     1237     4870    1           IF SRC_RANGE.ENDD.EOF  OR

   4870  1 000447   200003 470500                    LDP0    @SRC_RANGE,,AUTO
         1 000450   000021 236100                    LDQ     17,,PR0
         1 000451   400000 316007                    CANQ    -131072,DL
         1 000452   000455 601000 1                  TNZ     s:4872
         1 000453   200024 235100                    LDA     RCCL,,AUTO
         1 000454   000551 601000 1                  TNZ     s:4908

     1238     4871    2             RCCL = %RCCL_EQUAL THEN DO;

     1239     4872    2              CALL VDA$LREAD (SRC_STREAM, SRC_RANGE.ENDD, -1, %FALSE)

   4872  1 000455   000004 237000 2                  LDAQ    4
         1 000456   200176 757100                    STAQ    OPEN_OPTIONS+7,,AUTO
         1 000457   200003 236100                    LDQ     @SRC_RANGE,,AUTO
         1 000460   000011 036003                    ADLQ    9,DU
         1 000461   200004 235100                    LDA     @SRC_STREAM,,AUTO
         1 000462   200174 757100                    STAQ    OPEN_OPTIONS+5,,AUTO
         1 000463   200174 630500                    EPPR0   OPEN_OPTIONS+5,,AUTO
         1 000464   000022 631400 xsym               EPPR1   B_VECTNIL+18
         1 000465   000000 701000 xent               TSX1    VDA$LREAD
         1 000466   001254 702000 1                  TSX2    LREAD_FAILED

     1240     4873    2                ALTRET (LREAD_FAILED);
     1241     4874    2              CALL VDG$OCLEAR_LOCATION (SRC_RANGE.ENDD)

PL6.E3A0      #003=VDI$BINSERT File=VDI$BLOCK.:VDA5TSI                           FRI 07/04/97 11:28 Page:200
   4874  1 000467   200003 236100                    LDQ     @SRC_RANGE,,AUTO
         1 000470   000011 036003                    ADLQ    9,DU
         1 000471   200174 756100                    STQ     OPEN_OPTIONS+5,,AUTO
         1 000472   200174 630500                    EPPR0   OPEN_OPTIONS+5,,AUTO
         1 000473   000017 631400 xsym               EPPR1   B_VECTNIL+15
         1 000474   000000 701000 xent               TSX1    VDG$OCLEAR_LOCATION
         1 000475   001257 702000 1                  TSX2    COMPARE_LOCS_FAILED

     1242     4875    2                ALTRET (OCLEAR_LOCATION_FAILED);
     1243     4876    2              IF SRC_RANGE.START.EOF THEN   /* Src file is empty */

   4876  1 000476   200003 470500                    LDP0    @SRC_RANGE,,AUTO
         1 000477   000010 236100                    LDQ     8,,PR0
         1 000500   400000 316007                    CANQ    -131072,DL
         1 000501   000505 600000 1                  TZE     s:4894

     1244     4877    2                 SRC_RANGE.ENDD.EOF = %TRUE;

   4877  1 000502   400000 236007                    LDQ     -131072,DL
         1 000503   000021 256100                    ORSQ    17,,PR0
         1 000504   000551 710000 1                  TRA     s:4908

     1245     4878    3              ELSE DO;

     1246     4879                      /* Add .001 to last key actually enclosed by SRC_RANGE */
     1247     4880                      %COPYKEY (FKEY=SRC_STREAM.CURRENT.KEY, FINDX=SRC_LEVEL-1,
     1248     4881                      TKEY=SRC_RANGE.ENDD.KEY, TINDX=SRC_LEVEL-1);

   4894  1 000505   200021 235100                    LDA     SRC_LEVEL,,AUTO
         1 000506   000001 735000                    ALS     1
         1 000507   200021 236100                    LDQ     SRC_LEVEL,,AUTO
         1 000510   000003 736000                    QLS     3
         1 000511   000002 735000                    ALS     2
         1 000512   200004 471500                    LDP1    @SRC_STREAM,,AUTO
         1 000513   000105 100506                    MLR     fill='000'O
         1 000514   100004 000010                    ADSC9   4,Q,PR1                  cn=0,n=8
         1 000515   000007 000010                    ADSC9   7,A,PR0                  cn=0,n=8
PL6.E3A0      #003=VDI$BINSERT File=VDI$BLOCK.:VDA5TSI                           FRI 07/04/97 11:28 Page:201

   4894  1 000516   200021 235100                    LDA     SRC_LEVEL,,AUTO
         1 000517   000001 735000                    ALS     1
         1 000520   100004 720105                    LXL0    4,AL,PR1
         1 000521   000002 100003                    CMPX0   2,DU
         1 000522   000540 601000 1                  TNZ     s:4897

   4894  1 000523   100005 473505                    LDP3    5,AL,PR1
         1 000524   200021 236100                    LDQ     SRC_LEVEL,,AUTO
         1 000525   000023 736000                    QLS     19
         1 000526   000010 036003                    ADLQ    8,DU
         1 000527   200003 036100                    ADLQ    @SRC_RANGE,,AUTO
         1 000530   200175 756100                    STQ     OPEN_OPTIONS+6,,AUTO
         1 000531   200174 453500                    STP3    OPEN_OPTIONS+5,,AUTO
         1 000532   200174 630500                    EPPR0   OPEN_OPTIONS+5,,AUTO
         1 000533   000020 631400 xsym               EPPR1   B_VECTNIL+16
         1 000534   000000 701000 xent               TSX1    VDG$OCOPY
         1 000535   000537 702000 1                  TSX2    s:4895
         1 000536   000540 710000 1                  TRA     s:4897

   4895  1 000537   000000 702200 xent               TSX2  ! X66_AALT

     1249     4897    3                 ADDR(SRC_RANGE.ENDD.KEY (SRC_LEVEL-1)) -> VD$KEY_NUMBER.BYTES# =

   4897  1 000540   200021 235100                    LDA     SRC_LEVEL,,AUTO
         1 000541   000001 735000                    ALS     1
         1 000542   200003 470500                    LDP0    @SRC_RANGE,,AUTO
         1 000543   000010 236105                    LDQ     8,AL,PR0
         1 000544   000032 376000 xsym               ANQ     B_VECTNIL+26
         1 000545   000001 036007                    ADLQ    1,DL
         1 000546   000010 676105                    ERQ     8,AL,PR0
         1 000547   000032 376000 xsym               ANQ     B_VECTNIL+26
         1 000550   000010 656105                    ERSQ    8,AL,PR0

     1250     4898    3                   ADDR(SRC_RANGE.ENDD.KEY (SRC_LEVEL-1)) ->
     1251     4899    3                   VD$KEY_NUMBER.BYTES# + %MN_EDITKEY_FRACT;
     1252     4900    3                 END;
PL6.E3A0      #003=VDI$BINSERT File=VDI$BLOCK.:VDA5TSI                           FRI 07/04/97 11:28 Page:202

     1253     4901    2              END;

     1254     4902
     1255     4903                /*
     1256     4904                *   ADJUST_INCREMENT probably repositioned the source stream.
     1257     4905                *   Resposition it back to the first src record (as tho we'd
     1258     4906                *       just read the first src record).
     1259     4907                */
     1260     4908    1           IF NOT OUTSIDE_SRC_RANGE THEN

   4908  1 000551   200010 234100                    SZN     OUTSIDE_SRC_RANGE,,AUTO
         1 000552   000564 604000 1                  TMI     s:4943

     1261     4909    1              CALL VDA$LREAD (SRC_STREAM, SRC_RANGE.START, 0, %DONT_READ_RECORD)

   4909  1 000553   000006 237000 2                  LDAQ    6
         1 000554   200176 757100                    STAQ    OPEN_OPTIONS+7,,AUTO
         1 000555   200003 236100                    LDQ     @SRC_RANGE,,AUTO
         1 000556   200004 235100                    LDA     @SRC_STREAM,,AUTO
         1 000557   200174 757100                    STAQ    OPEN_OPTIONS+5,,AUTO
         1 000560   200174 630500                    EPPR0   OPEN_OPTIONS+5,,AUTO
         1 000561   000022 631400 xsym               EPPR1   B_VECTNIL+18
         1 000562   000000 701000 xent               TSX1    VDA$LREAD
         1 000563   001254 702000 1                  TSX2    LREAD_FAILED

     1262     4910    1                ALTRET (LREAD_FAILED);
     1263     4911
     1264     4912
     1265     4913                %BOX (TITLE="Main Loop");

              4925    1   /***************************************************************************
              4927    1    *                                                                         *
              4931    1            *                                 Main Loop                              *
              4933    1            *                                                                        *
              4935    1          ***************************************************************************/

PL6.E3A0      #003=VDI$BINSERT File=VDI$BLOCK.:VDA5TSI                           FRI 07/04/97 11:28 Page:203
     1266     4939
     1267     4940                /*
     1268     4941                *   Loop while we have a [partial] record to write.
     1269     4942                */
     1270     4943    1           VD_$RECORDS_INSERTED.V# = 0;

   4943  1 000564   000003 450000 xsym               STZ     VD_$RECORDS_INSERTED+3

     1271     4944
     1272     4945    1   MAIN_LOOP:
     1273     4946    2           DO WHILE RECORD.DATA$ ~= ADDR(NIL);

   4946  1 000565   001205 710000 1     MAIN_LOOP    TRA     s:5149

     1274     4947    3              IF NOT RECORD.EOR THEN DO;

   4947  1 000566   200032 234100                    SZN     RECORD+5,,AUTO
         1 000567   000650 604000 1                  TMI     s:4991

     1275     4948                      /*
     1276     4949                      *  Source record has no EOR:  must be last in source block.
     1277     4950                      *  Append DEST_RIGHT to it.
     1278     4951                      */
     1279     4952    3                 END_POS_OF_INSERTED_DATA = RECORD$DATA.LENGTH#;

   4952  1 000570   200031 470500                    LDP0    RECORD+4,,AUTO
         1 000571   000002 236100                    LDQ     2,,PR0
         1 000572   000022 732000                    QRS     18
         1 000573   200011 756100                    STQ     END_POS_OF_INSERTED_DATA,,AUTO

     1280     4953    4                 IF DEST_RIGHT$ ~= ADDR(NIL) THEN DO;

   4953  1 000574   200036 236100                    LDQ     DEST_RIGHT$,,AUTO
         1 000575   000001 116000 xsym               CMPQ    B_VECTNIL+1
         1 000576   000642 600000 1                  TZE     s:4987

     1281     4954    4                    RECORD.EOR = DEST_EOR; /* destRight, if used, may have EOR */
PL6.E3A0      #003=VDI$BINSERT File=VDI$BLOCK.:VDA5TSI                           FRI 07/04/97 11:28 Page:204

   4954  1 000577   200040 236100                    LDQ     DEST_EOR,,AUTO
         1 000600   200032 676100                    ERQ     RECORD+5,,AUTO
         1 000601   400000 376003                    ANQ     -131072,DU
         1 000602   200032 656100                    ERSQ    RECORD+5,,AUTO

     1282     4955    4                    IF DEST_EXISTS THEN EXIT;

   4955  1 000603   200037 234100                    SZN     DEST_EXISTS,,AUTO
         1 000604   000642 604000 1                  TMI     s:4987

     1283     4956                         /*
     1284     4957                         * Always write an existing record with its original key
     1285     4958                         */
     1286     4959                         %CLEARKEY (KEY=RECORD.KEY);

   4966  1 000605   200025 720100                    LXL0    RECORD,,AUTO
         1 000606   000002 100003                    CMPX0   2,DU
         1 000607   000616 601000 1                  TNZ     s:4967+1

   4966  1 000610   200026 630500                    EPPR0   RECORD+1,,AUTO
         1 000611   000017 631400 xsym               EPPR1   B_VECTNIL+15
         1 000612   000000 701000 xent               TSX1    VDG$OFREE
         1 000613   000615 702000 1                  TSX2    s:4967
         1 000614   000616 710000 1                  TRA     s:4967+1

   4967  1 000615   000000 702200 xent               TSX2  ! X66_AALT

   4967  1 000616   200025 450100                    STZ     RECORD,,AUTO
         1 000617   200026 450100                    STZ     RECORD+1,,AUTO

     1287     4969                         %COPYKEY (FKEY=DEST_NEXT_KEY, TKEY=RECORD.KEY);

   4982  1 000620   200034 237100                    LDAQ    DEST_NEXT_KEY,,AUTO
         1 000621   200025 755100                    STA     RECORD,,AUTO
         1 000622   200026 756100                    STQ     RECORD+1,,AUTO

PL6.E3A0      #003=VDI$BINSERT File=VDI$BLOCK.:VDA5TSI                           FRI 07/04/97 11:28 Page:205
   4982  1 000623   200034 720100                    LXL0    DEST_NEXT_KEY,,AUTO
         1 000624   000002 100003                    CMPX0   2,DU
         1 000625   000640 601000 1                  TNZ     s:4985

   4982  1 000626   200026 630500                    EPPR0   RECORD+1,,AUTO
         1 000627   200175 450500                    STP0    OPEN_OPTIONS+6,,AUTO
         1 000630   200035 236100                    LDQ     DEST_NEXT_KEY+1,,AUTO
         1 000631   200174 756100                    STQ     OPEN_OPTIONS+5,,AUTO
         1 000632   200174 630500                    EPPR0   OPEN_OPTIONS+5,,AUTO
         1 000633   000020 631400 xsym               EPPR1   B_VECTNIL+16
         1 000634   000000 701000 xent               TSX1    VDG$OCOPY
         1 000635   000637 702000 1                  TSX2    s:4983
         1 000636   000640 710000 1                  TRA     s:4985

   4983  1 000637   000000 702200 xent               TSX2  ! X66_AALT

     1288     4985    4                    GENERATE_KEY = %SQ_CURRENT;

   4985  1 000640   000002 235007                    LDA     2,DL
         1 000641   200042 755100                    STA     GENERATE_KEY,,AUTO

     1289     4986    4                    END;

     1290     4987    3                 CALL APPEND (RECORD.DATA$, DEST_RIGHT$) /* NILs DEST_RIGHT$ */

   4987  1 000642   200036 630500                    EPPR0   DEST_RIGHT$,,AUTO
         1 000643   200112 450500                    STP0    @LEFT$+1,,AUTO
         1 000644   200031 631500                    EPPR1   RECORD+4,,AUTO
         1 000645   200111 451500                    STP1    ERR_SUBST$+3,,AUTO
         1 000646   003707 701000 1                  TSX1    APPEND
         1 000647   001254 702000 1                  TSX2    LREAD_FAILED

     1291     4988    3                   ALTRET (APPEND_FAILED);
     1292     4989    3                 END;

     1293     4990                   /* Write the source record to the destination */
     1294     4991    2              CALL VDE$RPUT (DEST_STREAM, DEST$EDIT_BLOCK.RANGE, DEST_OPTIONS,
PL6.E3A0      #003=VDI$BINSERT File=VDI$BLOCK.:VDA5TSI                           FRI 07/04/97 11:28 Page:206

   4991  1 000650   200034 630500                    EPPR0   DEST_NEXT_KEY,,AUTO
         1 000651   200201 450500                    STP0    OPEN_OPTIONS+10,,AUTO
         1 000652   200042 631500                    EPPR1   GENERATE_KEY,,AUTO
         1 000653   200200 451500                    STP1    OPEN_OPTIONS+9,,AUTO
         1 000654   200025 633500                    EPPR3   RECORD,,AUTO
         1 000655   200177 453500                    STP3    OPEN_OPTIONS+8,,AUTO
         1 000656   200013 634500                    EPPR4   DEST_OPTIONS,,AUTO
         1 000657   200176 454500                    STP4    OPEN_OPTIONS+7,,AUTO
         1 000660   200012 236100                    LDQ     DEST_EDIT_BLOCK$,,AUTO
         1 000661   000003 036003                    ADLQ    3,DU
         1 000662   200006 235100                    LDA     @DEST_STREAM,,AUTO
         1 000663   200174 757100                    STAQ    OPEN_OPTIONS+5,,AUTO
         1 000664   200174 630500                    EPPR0   OPEN_OPTIONS+5,,AUTO
         1 000665   000024 631400 xsym               EPPR1   B_VECTNIL+20
         1 000666   000000 701000 xent               TSX1    VDE$RPUT
         1 000667   000671 702000 1                  TSX2    s:4994
         1 000670   000674 710000 1                  TRA     s:5000

     1295     4992    2                RECORD, GENERATE_KEY, DEST_NEXT_KEY)
     1296     4993    3              WHENALTRETURN DO;

     1297     4994    3                 IF FIRST_TIME_THRU_MAIN_LOOP THEN

   4994  1 000671   200007 234100                    SZN     FIRST_TIME_THRU_MAIN_LOOP,,AUTO
         1 000672   001215 604000 1                  TMI     NOTHING_COPIED

     1298     4995    3                    GOTO NOTHING_COPIED;
     1299     4996    3                 ELSE
     1300     4997    3                    GOTO ALTRETURN_FROM_MAIN_LOOP;

   4997  1 000673   001243 710000 1                  TRA     ALTRETURN_FROM_MAIN_LOOP

     1301     4998    3                 END;
     1302     4999                   /* Save info about this write */
     1303     5000    2              PREVIOUS_SRC_EOR = SRC_EOR;

PL6.E3A0      #003=VDI$BINSERT File=VDI$BLOCK.:VDA5TSI                           FRI 07/04/97 11:28 Page:207
   5000  1 000674   200045 236100                    LDQ     SRC_EOR,,AUTO
         1 000675   400000 376003                    ANQ     -131072,DU
         1 000676   200044 756100                    STQ     PREVIOUS_SRC_EOR,,AUTO

     1304     5001                   %CLEARKEY (KEY=LAST_COPIED_KEY);

   5008  1 000677   200056 720100                    LXL0    LAST_COPIED_KEY,,AUTO
         1 000700   000002 100003                    CMPX0   2,DU
         1 000701   000710 601000 1                  TNZ     s:5009+1

   5008  1 000702   200057 630500                    EPPR0   LAST_COPIED_KEY+1,,AUTO
         1 000703   000017 631400 xsym               EPPR1   B_VECTNIL+15
         1 000704   000000 701000 xent               TSX1    VDG$OFREE
         1 000705   000707 702000 1                  TSX2    s:5009
         1 000706   000710 710000 1                  TRA     s:5009+1

   5009  1 000707   000000 702200 xent               TSX2  ! X66_AALT

   5009  1 000710   000000 235003                    LDA     0,DU
         1 000711   000000 236003                    LDQ     0,DU
         1 000712   200056 757100                    STAQ    LAST_COPIED_KEY,,AUTO

     1305     5011    2              LAST_COPIED_KEY = SRC_KEY_OF_RECORD;

   5011  1 000713   200054 237100                    LDAQ    SRC_KEY_OF_RECORD,,AUTO
         1 000714   200056 757100                    STAQ    LAST_COPIED_KEY,,AUTO

     1306     5012    2              SRC_KEY_OF_RECORD = %CLEAR;

   5012  1 000715   000000 235003                    LDA     0,DU
         1 000716   000000 236003                    LDQ     0,DU
         1 000717   200054 757100                    STAQ    SRC_KEY_OF_RECORD,,AUTO

     1307     5013                   %CLEARKEY (KEY=LAST_WRITTEN_KEY);

   5020  1 000720   200060 720100                    LXL0    LAST_WRITTEN_KEY,,AUTO
         1 000721   000002 100003                    CMPX0   2,DU
PL6.E3A0      #003=VDI$BINSERT File=VDI$BLOCK.:VDA5TSI                           FRI 07/04/97 11:28 Page:208
         1 000722   000731 601000 1                  TNZ     s:5021+1

   5020  1 000723   200061 630500                    EPPR0   LAST_WRITTEN_KEY+1,,AUTO
         1 000724   000017 631400 xsym               EPPR1   B_VECTNIL+15
         1 000725   000000 701000 xent               TSX1    VDG$OFREE
         1 000726   000730 702000 1                  TSX2    s:5021
         1 000727   000731 710000 1                  TRA     s:5021+1

   5021  1 000730   000000 702200 xent               TSX2  ! X66_AALT

   5021  1 000731   000000 235003                    LDA     0,DU
         1 000732   000000 236003                    LDQ     0,DU
         1 000733   200060 757100                    STAQ    LAST_WRITTEN_KEY,,AUTO

     1308     5023                   %COPYKEY (FKEY=RECORD.KEY, TKEY=LAST_WRITTEN_KEY);

   5036  1 000734   000100 100500                    MLR     fill='000'O
         1 000735   200025 000010                    ADSC9   RECORD,,AUTO             cn=0,n=8
         1 000736   200060 000010                    ADSC9   LAST_WRITTEN_KEY,,AUTO   cn=0,n=8

   5036  1 000737   200025 720100                    LXL0    RECORD,,AUTO
         1 000740   000002 100003                    CMPX0   2,DU
         1 000741   000754 601000 1                  TNZ     s:5041

   5036  1 000742   200061 630500                    EPPR0   LAST_WRITTEN_KEY+1,,AUTO
         1 000743   200175 450500                    STP0    OPEN_OPTIONS+6,,AUTO
         1 000744   200026 236100                    LDQ     RECORD+1,,AUTO
         1 000745   200174 756100                    STQ     OPEN_OPTIONS+5,,AUTO
         1 000746   200174 630500                    EPPR0   OPEN_OPTIONS+5,,AUTO
         1 000747   000020 631400 xsym               EPPR1   B_VECTNIL+16
         1 000750   000000 701000 xent               TSX1    VDG$OCOPY
         1 000751   000753 702000 1                  TSX2    s:5037
         1 000752   000754 710000 1                  TRA     s:5041

   5037  1 000753   000000 702200 xent               TSX2  ! X66_AALT

     1309     5039
PL6.E3A0      #003=VDI$BINSERT File=VDI$BLOCK.:VDA5TSI                           FRI 07/04/97 11:28 Page:209
     1310     5040                   /* If this is 1st write, see if we need to adjust DEST_RANGE.START */
     1311     5041    2              IF GENERATE_KEY ~= %SQ_CURRENT THEN

   5041  1 000754   200042 235100                    LDA     GENERATE_KEY,,AUTO
         1 000755   000002 115007                    CMPA    2,DL
         1 000756   000760 600000 1                  TZE     s:5043

     1312     5042    2                 VD_$RECORDS_INSERTED.V# = VD_$RECORDS_INSERTED.V# + 1;

   5042  1 000757   000003 054000 xsym               AOS     VD_$RECORDS_INSERTED+3

     1313     5043    2              IF FIRST_TIME_THRU_MAIN_LOOP

   5043  1 000760   200007 234100                    SZN     FIRST_TIME_THRU_MAIN_LOOP,,AUTO
         1 000761   001062 605000 1                  TPL     s:5082
         1 000762   000002 115007                    CMPA    2,DL
         1 000763   000766 601000 1                  TNZ     s:5046
         1 000764   200045 234100                    SZN     SRC_EOR,,AUTO
         1 000765   001062 604000 1                  TMI     s:5082

     1314     5044    3                AND (GENERATE_KEY ~= %SQ_CURRENT OR NOT SRC_EOR) THEN DO;

     1315     5045                      /* We didn't write the first record at dest end location */
     1316     5046    3                 IF DEST_LEVEL > %LVL_EXT_REC

   5046  1 000766   200020 236100                    LDQ     DEST_LEVEL,,AUTO
         1 000767   000001 116007                    CMPQ    1,DL
         1 000770   001007 604400 1                  TMOZ    s:5052
         1 000771   200005 470500                    LDP0    @DEST_RANGE,,AUTO
         1 000772   000000 106500                    CMPC    fill='000'O
         1 000773   000000 000040                    ADSC9   0,,PR0                   cn=0,n=32
         1 000774   000002 000002 xsym               ADSC9   B_VECTNIL+2              cn=0,n=2
         1 000775   001007 601000 1                  TNZ     s:5052

     1317     5047    4                   AND DEST_RANGE.START.KEY = %CLEAR THEN DO;

     1318     5048    4                    CALL VDG$OCOPY_LOCATION (DEST$EDIT_BLOCK.RANGE.START,
PL6.E3A0      #003=VDI$BINSERT File=VDI$BLOCK.:VDA5TSI                           FRI 07/04/97 11:28 Page:210

   5048  1 000776   200005 236100                    LDQ     @DEST_RANGE,,AUTO
         1 000777   200175 756100                    STQ     OPEN_OPTIONS+6,,AUTO
         1 001000   200012 236100                    LDQ     DEST_EDIT_BLOCK$,,AUTO
         1 001001   000003 036003                    ADLQ    3,DU
         1 001002   200174 756100                    STQ     OPEN_OPTIONS+5,,AUTO
         1 001003   200174 630500                    EPPR0   OPEN_OPTIONS+5,,AUTO
         1 001004   000020 631400 xsym               EPPR1   B_VECTNIL+16
         1 001005   000000 701000 xent               TSX1    VDG$OCOPY_LOCATION
         1 001006   001257 702000 1                  TSX2    COMPARE_LOCS_FAILED

     1319     5049    4                      DEST_RANGE.START)
     1320     5050    4                      ALTRET (OCOPY_LOCATION_FAILED);
     1321     5051    4                    END;

     1322     5052    3                 DEST_RANGE.START.EOF = %FALSE;

   5052  1 001007   200005 470500                    LDP0    @DEST_RANGE,,AUTO
         1 001010   000010 236000 2                  LDQ     8
         1 001011   000010 356100                    ANSQ    8,,PR0

     1323     5053                      %CLEARKEY (KEY=DEST_RANGE.START.KEY, INDX=DEST_LEVEL-1);

   5060  1 001012   200020 235100                    LDA     DEST_LEVEL,,AUTO
         1 001013   000001 735000                    ALS     1
         1 001014   077776 720105                    LXL0    -2,AL,PR0
         1 001015   000002 100003                    CMPX0   2,DU
         1 001016   001027 601000 1                  TNZ     s:5061+1

   5060  1 001017   077777 471505                    LDP1    -1,AL,PR0
         1 001020   200174 451500                    STP1    OPEN_OPTIONS+5,,AUTO
         1 001021   200174 630500                    EPPR0   OPEN_OPTIONS+5,,AUTO
         1 001022   000017 631400 xsym               EPPR1   B_VECTNIL+15
         1 001023   000000 701000 xent               TSX1    VDG$OFREE
         1 001024   001026 702000 1                  TSX2    s:5061
         1 001025   001027 710000 1                  TRA     s:5061+1

PL6.E3A0      #003=VDI$BINSERT File=VDI$BLOCK.:VDA5TSI                           FRI 07/04/97 11:28 Page:211
   5061  1 001026   000000 702200 xent               TSX2  ! X66_AALT

   5061  1 001027   200020 235100                    LDA     DEST_LEVEL,,AUTO
         1 001030   000001 735000                    ALS     1
         1 001031   200005 470500                    LDP0    @DEST_RANGE,,AUTO
         1 001032   077776 450105                    STZ     -2,AL,PR0
         1 001033   077777 450105                    STZ     -1,AL,PR0

     1324     5063                      %COPYKEY (FKEY=RECORD.KEY,
     1325     5064                      TKEY=DEST_RANGE.START.KEY, TINDX=DEST_LEVEL-1);

   5077  1 001034   000002 735000                    ALS     2
         1 001035   000105 100500                    MLR     fill='000'O
         1 001036   200025 000010                    ADSC9   RECORD,,AUTO             cn=0,n=8
         1 001037   077776 000010                    ADSC9   -2,A,PR0                 cn=0,n=8

   5077  1 001040   200025 720100                    LXL0    RECORD,,AUTO
         1 001041   000002 100003                    CMPX0   2,DU
         1 001042   001057 601000 1                  TNZ     s:5080

   5077  1 001043   200020 236100                    LDQ     DEST_LEVEL,,AUTO
         1 001044   000023 736000                    QLS     19
         1 001045   000001 136003                    SBLQ    1,DU
         1 001046   200005 036100                    ADLQ    @DEST_RANGE,,AUTO
         1 001047   200026 235100                    LDA     RECORD+1,,AUTO
         1 001050   200174 757100                    STAQ    OPEN_OPTIONS+5,,AUTO
         1 001051   200174 630500                    EPPR0   OPEN_OPTIONS+5,,AUTO
         1 001052   000020 631400 xsym               EPPR1   B_VECTNIL+16
         1 001053   000000 701000 xent               TSX1    VDG$OCOPY
         1 001054   001056 702000 1                  TSX2    s:5078
         1 001055   001057 710000 1                  TRA     s:5080

   5078  1 001056   000000 702200 xent               TSX2  ! X66_AALT

     1326     5080    3                 DEST_RANGE.START.POSITION# = DEST_LEFT_LENGTH;

   5080  1 001057   200033 720100                    LXL0    DEST_LEFT_LENGTH,,AUTO
PL6.E3A0      #003=VDI$BINSERT File=VDI$BLOCK.:VDA5TSI                           FRI 07/04/97 11:28 Page:212
         1 001060   200005 470500                    LDP0    @DEST_RANGE,,AUTO
         1 001061   000010 740100                    STX0    8,,PR0

     1327     5081    3                 END;

     1328     5082    2              FIRST_TIME_THRU_MAIN_LOOP = %FALSE;

   5082  1 001062   200007 450100                    STZ     FIRST_TIME_THRU_MAIN_LOOP,,AUTO

     1329     5083
     1330     5084                   /* Always generate keys after first write */
     1331     5085    2              GENERATE_KEY = %SQ_NEXT;

   5085  1 001063   000003 235007                    LDA     3,DL
         1 001064   200042 755100                    STA     GENERATE_KEY,,AUTO

     1332     5086
     1333     5087                   /* Get next source record */
     1334     5088    3              IF OUTSIDE_SRC_RANGE THEN DO;

   5088  1 001065   200010 234100                    SZN     OUTSIDE_SRC_RANGE,,AUTO
         1 001066   001104 605000 1                  TPL     s:5102

     1335     5089                      %CLEARKEY (KEY=RECORD.KEY);

   5096  1 001067   200025 720100                    LXL0    RECORD,,AUTO
         1 001070   000002 100003                    CMPX0   2,DU
         1 001071   001100 601000 1                  TNZ     s:5097+1

   5096  1 001072   200026 630500                    EPPR0   RECORD+1,,AUTO
         1 001073   000017 631400 xsym               EPPR1   B_VECTNIL+15
         1 001074   000000 701000 xent               TSX1    VDG$OFREE
         1 001075   001077 702000 1                  TSX2    s:5097
         1 001076   001100 710000 1                  TRA     s:5097+1

   5097  1 001077   000000 702200 xent               TSX2  ! X66_AALT

PL6.E3A0      #003=VDI$BINSERT File=VDI$BLOCK.:VDA5TSI                           FRI 07/04/97 11:28 Page:213
   5097  1 001100   200025 450100                    STZ     RECORD,,AUTO
         1 001101   200026 450100                    STZ     RECORD+1,,AUTO

     1336     5099    3                 SRC_EOR = '0'B;

   5099  1 001102   200045 450100                    STZ     SRC_EOR,,AUTO

     1337     5100    3                 END;

   5100  1 001103   001131 710000 1                  TRA     s:5109

     1338     5101    3              ELSE DO;

     1339     5102    3                 CALL VDA$LREAD (SRC_STREAM, , 1, %READ_RECORD)

   5102  1 001104   000012 237000 2                  LDAQ    10
         1 001105   200176 757100                    STAQ    OPEN_OPTIONS+7,,AUTO
         1 001106   000001 236000 xsym               LDQ     B_VECTNIL+1
         1 001107   200004 235100                    LDA     @SRC_STREAM,,AUTO
         1 001110   200174 757100                    STAQ    OPEN_OPTIONS+5,,AUTO
         1 001111   200174 630500                    EPPR0   OPEN_OPTIONS+5,,AUTO
         1 001112   000022 631400 xsym               EPPR1   B_VECTNIL+18
         1 001113   000000 701000 xent               TSX1    VDA$LREAD
         1 001114   001243 702000 1                  TSX2    ALTRETURN_FROM_MAIN_LOOP

     1340     5103    3                   ALTRET (ALTRETURN_FROM_MAIN_LOOP);
     1341     5104    3                 CALL VDE$RGET (SRC_STREAM, SRC_RANGE, RECORD)

   5104  1 001115   200025 630500                    EPPR0   RECORD,,AUTO
         1 001116   200176 450500                    STP0    OPEN_OPTIONS+7,,AUTO
         1 001117   200003 236100                    LDQ     @SRC_RANGE,,AUTO
         1 001120   200004 235100                    LDA     @SRC_STREAM,,AUTO
         1 001121   200174 757100                    STAQ    OPEN_OPTIONS+5,,AUTO
         1 001122   200174 630500                    EPPR0   OPEN_OPTIONS+5,,AUTO
         1 001123   000021 631400 xsym               EPPR1   B_VECTNIL+17
         1 001124   000000 701000 xent               TSX1    VDE$RGET
         1 001125   001243 702000 1                  TSX2    ALTRETURN_FROM_MAIN_LOOP
PL6.E3A0      #003=VDI$BINSERT File=VDI$BLOCK.:VDA5TSI                           FRI 07/04/97 11:28 Page:214

     1342     5105    3                   ALTRET (ALTRETURN_FROM_MAIN_LOOP);
     1343     5106    3                 SRC_EOR = RECORD.EOR;

   5106  1 001126   200032 236100                    LDQ     RECORD+5,,AUTO
         1 001127   400000 376003                    ANQ     -131072,DU
         1 001130   200045 756100                    STQ     SRC_EOR,,AUTO

     1344     5107    3                 END;

     1345     5108
     1346     5109    3              IF RECORD.KEY = %CLEAR THEN DO;

   5109  1 001131   000000 106500                    CMPC    fill='000'O
         1 001132   200025 000010                    ADSC9   RECORD,,AUTO             cn=0,n=8
         1 001133   000002 000002 xsym               ADSC9   B_VECTNIL+2              cn=0,n=2
         1 001134   001155 601000 1                  TNZ     s:5127

     1347     5110                      /*
     1348     5111                      *   We're outside source range now:
     1349     5112                      *   Load RECORD from DEST_RIGHT, if any.
     1350     5113                      */
     1351     5114    3                 OUTSIDE_SRC_RANGE = %TRUE;

   5114  1 001135   400000 236003                    LDQ     -131072,DU
         1 001136   200010 756100                    STQ     OUTSIDE_SRC_RANGE,,AUTO

     1352     5115    3                 IF DEST_RIGHT$ ~= ADDR(NIL) THEN

   5115  1 001137   200036 236100                    LDQ     DEST_RIGHT$,,AUTO
         1 001140   000001 116000 xsym               CMPQ    B_VECTNIL+1
         1 001141   001146 600000 1                  TZE     s:5117

     1353     5116    3                    RECORD.EOR = DEST_EOR; /* destRight, if used, may have EOR */

   5116  1 001142   200040 236100                    LDQ     DEST_EOR,,AUTO
         1 001143   200032 676100                    ERQ     RECORD+5,,AUTO
PL6.E3A0      #003=VDI$BINSERT File=VDI$BLOCK.:VDA5TSI                           FRI 07/04/97 11:28 Page:215
         1 001144   400000 376003                    ANQ     -131072,DU
         1 001145   200032 656100                    ERSQ    RECORD+5,,AUTO

     1354     5117    3                 IF DEST_EXISTS THEN /* Only write it if we split one */

   5117  1 001146   200037 234100                    SZN     DEST_EXISTS,,AUTO
         1 001147   001152 605000 1                  TPL     s:5119

     1355     5118    3                    RECORD.DATA$ = DEST_RIGHT$;

   5118  1 001150   200036 236100                    LDQ     DEST_RIGHT$,,AUTO
         1 001151   200031 756100                    STQ     RECORD+4,,AUTO

     1356     5119    3                 DEST_RIGHT$ = ADDR(NIL);

   5119  1 001152   000001 236000 xsym               LDQ     B_VECTNIL+1
         1 001153   200036 756100                    STQ     DEST_RIGHT$,,AUTO

     1357     5120    3                 END;

   5120  1 001154   001165 710000 1                  TRA     s:5145

     1358     5121    3              ELSE DO;

     1359     5122                      /*
     1360     5123                      *   Still have src records to process.
     1361     5124                      *   Previous source record should have had EOR set.
     1362     5125                      *   SRC_KEY_OF_RECORD should be %CLEAR at this point.
     1363     5126                      */
     1364     5127    4                 IF NOT PREVIOUS_SRC_EOR THEN DO;

   5127  1 001155   200044 234100                    SZN     PREVIOUS_SRC_EOR,,AUTO
         1 001156   001162 604000 1                  TMI     s:5130

     1365     5128    4                    CALL VDG$ESCREECH;

   5128  1 001157   000002 631400 xsym               EPPR1   B_VECTNIL+2
PL6.E3A0      #003=VDI$BINSERT File=VDI$BLOCK.:VDA5TSI                           FRI 07/04/97 11:28 Page:216
         1 001160   000000 701000 xent               TSX1    VDG$ESCREECH
         1 001161   000000 011000                    NOP     0

     1366     5129    4                    END;

     1367     5130    3                 SRC_KEY_OF_RECORD = RECORD.KEY;

   5130  1 001162   000100 100500                    MLR     fill='000'O
         1 001163   200025 000010                    ADSC9   RECORD,,AUTO             cn=0,n=8
         1 001164   200054 000010                    ADSC9   SRC_KEY_OF_RECORD,,AUTO  cn=0,n=8

     1368     5131    3                 END;

     1369     5132                   %COPYKEY (FKEY=LAST_WRITTEN_KEY, TKEY=RECORD.KEY);

   5145  1 001165   200060 237100                    LDAQ    LAST_WRITTEN_KEY,,AUTO
         1 001166   200025 755100                    STA     RECORD,,AUTO
         1 001167   200026 756100                    STQ     RECORD+1,,AUTO

   5145  1 001170   200060 720100                    LXL0    LAST_WRITTEN_KEY,,AUTO
         1 001171   000002 100003                    CMPX0   2,DU
         1 001172   001205 601000 1                  TNZ     s:5149

   5145  1 001173   200026 630500                    EPPR0   RECORD+1,,AUTO
         1 001174   200175 450500                    STP0    OPEN_OPTIONS+6,,AUTO
         1 001175   200061 236100                    LDQ     LAST_WRITTEN_KEY+1,,AUTO
         1 001176   200174 756100                    STQ     OPEN_OPTIONS+5,,AUTO
         1 001177   200174 630500                    EPPR0   OPEN_OPTIONS+5,,AUTO
         1 001200   000020 631400 xsym               EPPR1   B_VECTNIL+16
         1 001201   000000 701000 xent               TSX1    VDG$OCOPY
         1 001202   001204 702000 1                  TSX2    s:5146
         1 001203   001205 710000 1                  TRA     s:5149

   5146  1 001204   000000 702200 xent               TSX2  ! X66_AALT

     1370     5148
     1371     5149    2              END MAIN_LOOP;
PL6.E3A0      #003=VDI$BINSERT File=VDI$BLOCK.:VDA5TSI                           FRI 07/04/97 11:28 Page:217

   5149  1 001205   200031 236100                    LDQ     RECORD+4,,AUTO
         1 001206   000001 116000 xsym               CMPQ    B_VECTNIL+1
         1 001207   000566 601000 1                  TNZ     s:4947

     1372     5150
     1373     5151
     1374     5152                %BOX (TITLE="End of Main Loop");

              5164    2   /***************************************************************************
              5166    2    *                                                                         *
              5170    2            *                              End of Main Loop                          *
              5172    2            *                                                                        *
              5174    2          ***************************************************************************/

     1375     5178
     1376     5179                /* Set DEST_RANGE.ENDD to point to the end of the inserted data */
     1377     5180    1           CALL SET_DEST_END

   5180  1 001210   001260 701000 1                  TSX1    SET_DEST_END
         1 001211   001254 702000 1                  TSX2    LREAD_FAILED

     1378     5181    1             ALTRET (SET_DEST_END_FAILED);
     1379     5182
     1380     5183                /* Free up any owned objects we don't need anymore */
     1381     5184    1           CALL CLEANUP

   5184  1 001212   001537 701000 1                  TSX1    CLEANUP
         1 001213   001257 702000 1                  TSX2    COMPARE_LOCS_FAILED

     1382     5185    1             ALTRET (CLEANUP_FAILED);
     1383     5186
     1384     5187    1           RETURN;

   5187  1 001214   000000 702200 xent               TSX2  ! X66_ARET

     1385     5188
PL6.E3A0      #003=VDI$BINSERT File=VDI$BLOCK.:VDA5TSI                           FRI 07/04/97 11:28 Page:218
     1386     5189
     1387     5190
     1388     5191        /*
     1389     5192        *   Nothing was copied, due to an error.
     1390     5193        *   Save the SRC_RANGE in $NOT_COPIED.
     1391     5194        *   Set SRC_RANGE to "what was successfully copied":  an empty range at
     1392     5195        *       the SRC_RANGE.START location.
     1393     5196        *   DEST_RANGE should already be set to an empty range at the DEST_RANGE.ENDD
     1394     5197        *       location.
     1395     5198        */
     1396     5199    1   NOTHING_COPIED:
     1397     5200    1           CALL SAVE_NOT_COPIED (SRC_RANGE)

   5200  1 001215   200003 236100       NOTHING_COP* LDQ     @SRC_RANGE,,AUTO
         1 001216   200151 756100                    STQ     RANGE_ENDD_KEY$+3,,AUTO
         1 001217   004371 701000 1                  TSX1    SAVE_NOT_COPIED
         1 001220   001257 702000 1                  TSX2    COMPARE_LOCS_FAILED

     1398     5201    1             ALTRET (SAVE_NOT_COPIED_FAILED);
     1399     5202    1           CALL VDG$OCLEAR_LOCATION (SRC_RANGE.ENDD)

   5202  1 001221   200003 236100                    LDQ     @SRC_RANGE,,AUTO
         1 001222   000011 036003                    ADLQ    9,DU
         1 001223   200174 756100                    STQ     OPEN_OPTIONS+5,,AUTO
         1 001224   200174 630500                    EPPR0   OPEN_OPTIONS+5,,AUTO
         1 001225   000017 631400 xsym               EPPR1   B_VECTNIL+15
         1 001226   000000 701000 xent               TSX1    VDG$OCLEAR_LOCATION
         1 001227   001257 702000 1                  TSX2    COMPARE_LOCS_FAILED

     1400     5203    1             ALTRET (OCLEAR_LOCATION_FAILED);
     1401     5204    1           CALL VDG$OCOPY_LOCATION (SRC_RANGE.START, SRC_RANGE.ENDD)

   5204  1 001230   200003 236100                    LDQ     @SRC_RANGE,,AUTO
         1 001231   000011 036003                    ADLQ    9,DU
         1 001232   200003 235100                    LDA     @SRC_RANGE,,AUTO
         1 001233   200174 757100                    STAQ    OPEN_OPTIONS+5,,AUTO
         1 001234   200174 630500                    EPPR0   OPEN_OPTIONS+5,,AUTO
PL6.E3A0      #003=VDI$BINSERT File=VDI$BLOCK.:VDA5TSI                           FRI 07/04/97 11:28 Page:219
         1 001235   000020 631400 xsym               EPPR1   B_VECTNIL+16
         1 001236   000000 701000 xent               TSX1    VDG$OCOPY_LOCATION
         1 001237   001257 702000 1                  TSX2    COMPARE_LOCS_FAILED

     1402     5205    1             ALTRET (OCOPY_LOCATION_FAILED);
     1403     5206    1           CALL CLEANUP

   5206  1 001240   001537 701000 1                  TSX1    CLEANUP
         1 001241   001257 702000 1                  TSX2    COMPARE_LOCS_FAILED

     1404     5207    1             ALTRET (CLEANUP_FAILED);
     1405     5208    1           ALTRETURN;

   5208  1 001242   000000 702200 xent               TSX2  ! X66_AALT

     1406     5209
     1407     5210
     1408     5211        /*
     1409     5212        *   Bombed out of main loop.
     1410     5213        *   To get here, we must already have written the first record to the
     1411     5214        *       destination.  Therefore, before we altreturn we have to adjust
     1412     5215        *       SRC_RANGE, DEST_RANGE, and save anything that needs saving in
     1413     5216        *       $LEFTOVER and/or $NOT_COPIED.
     1414     5217        */
     1415     5218    1   ALTRETURN_FROM_MAIN_LOOP: ;

   5218  1 001243                       ALTRETURN_F* null
     1416     5219    1           IF LAST$ERR.FLAGLEV# < %FLV_FATAL THEN

   5219  1 001243   000032 470400 xsym               LDP0    VD_6E+26
         1 001244   000003 220100                    LDX0    3,,PR0
         1 001245   000004 100003                    CMPX0   4,DU
         1 001246   001251 603000 1                  TRC     s:5221

     1417     5220    1              CALL ABORT_INSERTION;

   5220  1 001247   003161 701000 1                  TSX1    ABORT_INSERTION
PL6.E3A0      #003=VDI$BINSERT File=VDI$BLOCK.:VDA5TSI                           FRI 07/04/97 11:28 Page:220
         1 001250   000000 011000                    NOP     0

     1418     5221    1           CALL CLEANUP

   5221  1 001251   001537 701000 1                  TSX1    CLEANUP
         1 001252   001257 702000 1                  TSX2    COMPARE_LOCS_FAILED

     1419     5222    1             ALTRET (CLEANUP_FAILED);
     1420     5223    1           ALTRETURN;

   5223  1 001253   000000 702200 xent               TSX2  ! X66_AALT

   5219  1 001254                       LREAD_FAILED null
   5219  1 001254                       RGET_FAILED  null
   5219  1 001254                       PREPARE_DES* null
   5219  1 001254                       ADJUST_INCR* null
   5219  1 001254                       BAUTO_REKEY* null
   5219  1 001254                       APPEND_FAIL* null
   5219  1 001254                       LDELETE_FAI* null
   5219  1 001254                       SET_DEST_EN* null
     1421     5224
     1422     5225
     1423     5226
     1424     5227    1   LREAD_FAILED: ;
     1425     5228    1   RGET_FAILED: ;
     1426     5229    1   PREPARE_DESTINATION_FAILED: ;
     1427     5230    1   ADJUST_INCREMENT_FAILED: ;
     1428     5231    1   BAUTO_REKEY_FAILED: ;
     1429     5232    1   APPEND_FAILED: ;
     1430     5233    1   LDELETE_FAILED: ;
     1431     5234    1   SET_DEST_END_FAILED: ;
     1432     5235    1           CALL CLEANUP

   5235  1 001254   001537 701000 1                  TSX1    CLEANUP
         1 001255   001257 702000 1                  TSX2    COMPARE_LOCS_FAILED

     1433     5236    1             ALTRET (CLEANUP_FAILED);
PL6.E3A0      #003=VDI$BINSERT File=VDI$BLOCK.:VDA5TSI                           FRI 07/04/97 11:28 Page:221
     1434     5237    1           ALTRETURN;

   5237  1 001256   000000 702200 xent               TSX2  ! X66_AALT

     1435     5238
     1436     5239
     1437     5240    1   COMPARE_LOCS_FAILED: ;

   5240  1 001257                       COMPARE_LOC* null
   5240  1 001257                       OCLEAR_LOCA* null
   5240  1 001257                       OFREE_FAILED null
   5240  1 001257                       OCOPY_LOCAT* null
   5240  1 001257                       SAVE_NOT_CO* null
   5240  1 001257                       CLEANUP_FAI* null
     1438     5241    1   OCLEAR_LOCATION_FAILED: ;
     1439     5242    1   OFREE_FAILED: ;
     1440     5243    1   OCOPY_LOCATION_FAILED: ;
     1441     5244    1   SAVE_NOT_COPIED_FAILED: ;
     1442     5245    1   CLEANUP_FAILED: ;
     1443     5246    1           ALTRETURN;

   5246  1 001257   000000 702200 xent               TSX2  ! X66_AALT

     1444     5247
     1445     5248        %BOX (TITLE=SET_DEST_END, PAGE=YES);
              5256    1
              5260    1   /***************************************************************************
              5262    1    *                                                                         *
              5266    1            *                                SET_DEST_END                            *
              5268    1            *                                                                        *
              5270    1          ***************************************************************************/

     1446     5274
     1447     5275        /*I* NAME: SET_DEST_END
     1448     5276            PARAMETERS:
     1449     5277                None.
     1450     5278            INPUT:
PL6.E3A0      #003=VDI$BINSERT File=VDI$BLOCK.:VDA5TSI                           FRI 07/04/97 11:28 Page:222
     1451     5279                DEST_RANGE.START is presumed to already have been set to the start
     1452     5280                    of the inserted data in the destination.
     1453     5281                DEST_RANGE.ENDD - The given destination location.
     1454     5282                PREVIOUS_SRC_EOR - Setting of EOR bit from previous source record
     1455     5283                    (which has already been copied to the destination).
     1456     5284                DEST_NEXT_KEY - Key of next existing record in the destination after
     1457     5285                    where we're inserting records.  Must not be %CLEAR:  if we're
     1458     5286                    inserting at EOF then DEST_NEXT_KEY should contain MAX_EDITKEY.
     1459     5287                LAST_WRITTEN_KEY - Last key written to the destination.  Must not be
     1460     5288                    %CLEAR.
     1461     5289                END_POS_OF_INSERTED_DATA - Just what it says.  Only non-0 if we've
     1462     5290                    read a record from the source block which didn't include EOR
     1463     5291                    (so therefore must be the last source record), in which case
     1464     5292                    END_POS_OF_INSERTED_DATA is the length of that last source record.
     1465     5293            OUTPUT:
     1466     5294                DEST_RANGE.ENDD is set appropriately.
     1467     5295            DESCRIPTION:
     1468     5296                Change DEST_RANGE.ENDD to specify end of block just inserted.
     1469     5297                (DEST_RANGE.START has already be set to start of inserted block.)
     1470     5298                If PREVIOUS_SRC_EOR is set, the inserted block ends at BOR of
     1471     5299                    DEST_NEXT_KEY.
     1472     5300                If PREVIOUS_SRC_EOR is not set, inserted block ends at position
     1473     5301                    END_POS_OF_INSERTED_DATA, key LAST_WRITTEN_KEY.
     1474     5302        */
     1475     5303
     1476     5304    1   SET_DEST_END: PROC ALTRET;

   5304  1 001260   200110 741300       SET_DEST_END STX1  ! ERR_SUBST$+2,,AUTO

     1477     5305
     1478     5306
     1479     5307    2   DCL DEST_NEXT_KEY$ PTR;
     1480     5308
     1481     5309
     1482     5310        %VD$TEXTC_NUMBER (NAME=DEST$NEXT_KEY, STCLASS="BASED(DEST_NEXT_KEY$)");
     1483     5324        %VD$XLATE_LOCATIONS (NAME=XLATE$LOC, STCLASS=AUTO);
     1484     5460
PL6.E3A0      #003=VDI$BINSERT File=VDI$BLOCK.:VDA5TSI                           FRI 07/04/97 11:28 Page:223
     1485     5461
     1486     5462
     1487     5463    2           CALL VDG$OCLEAR_LOCATION (DEST_RANGE.ENDD)

   5463  1 001261   200005 236100                    LDQ     @DEST_RANGE,,AUTO
         1 001262   000011 036003                    ADLQ    9,DU
         1 001263   200174 756100                    STQ     OPEN_OPTIONS+5,,AUTO
         1 001264   200174 630500                    EPPR0   OPEN_OPTIONS+5,,AUTO
         1 001265   000017 631400 xsym               EPPR1   B_VECTNIL+15
         1 001266   000000 701000 xent               TSX1    VDG$OCLEAR_LOCATION
         1 001267   001535 702000 1                  TSX2    OCLEAR_LOCATION_FAILED

     1488     5464    2             ALTRET (OCLEAR_LOCATION_FAILED);
     1489     5465
     1490     5466    3           IF DEST_LEVEL > %LVL_EXT_REC THEN DO;

   5466  1 001270   200020 235100                    LDA     DEST_LEVEL,,AUTO
         1 001271   000001 115007                    CMPA    1,DL
         1 001272   001331 604400 1                  TMOZ    s:5483

     1491     5467                   /* Fill in key levels above level we're working at */
     1492     5468    3              CALL VDG$OCOPY_LOCATION (DEST$EDIT_BLOCK.RANGE.START,

   5468  1 001273   200005 236100                    LDQ     @DEST_RANGE,,AUTO
         1 001274   000011 036003                    ADLQ    9,DU
         1 001275   200175 756100                    STQ     OPEN_OPTIONS+6,,AUTO
         1 001276   200012 236100                    LDQ     DEST_EDIT_BLOCK$,,AUTO
         1 001277   000003 036003                    ADLQ    3,DU
         1 001300   200174 756100                    STQ     OPEN_OPTIONS+5,,AUTO
         1 001301   200174 630500                    EPPR0   OPEN_OPTIONS+5,,AUTO
         1 001302   000020 631400 xsym               EPPR1   B_VECTNIL+16
         1 001303   000000 701000 xent               TSX1    VDG$OCOPY_LOCATION
         1 001304   001535 702000 1                  TSX2    OCLEAR_LOCATION_FAILED

     1493     5469    3                DEST_RANGE.ENDD)
     1494     5470    3                ALTRET (OCOPY_LOCATION_FAILED);
     1495     5471                   %CLEARKEY (KEY=DEST_RANGE.ENDD.KEY, INDX=DEST_LEVEL-1);
PL6.E3A0      #003=VDI$BINSERT File=VDI$BLOCK.:VDA5TSI                           FRI 07/04/97 11:28 Page:224

   5478  1 001305   200020 235100                    LDA     DEST_LEVEL,,AUTO
         1 001306   000001 735000                    ALS     1
         1 001307   200005 470500                    LDP0    @DEST_RANGE,,AUTO
         1 001310   000007 720105                    LXL0    7,AL,PR0
         1 001311   000002 100003                    CMPX0   2,DU
         1 001312   001324 601000 1                  TNZ     s:5479+2

   5478  1 001313   000010 471505                    LDP1    8,AL,PR0
         1 001314   200174 451500                    STP1    OPEN_OPTIONS+5,,AUTO
         1 001315   200174 630500                    EPPR0   OPEN_OPTIONS+5,,AUTO
         1 001316   000017 631400 xsym               EPPR1   B_VECTNIL+15
         1 001317   000000 701000 xent               TSX1    VDG$OFREE
         1 001320   001322 702000 1                  TSX2    s:5479
         1 001321   001324 710000 1                  TRA     s:5479+2

   5479  1 001322   200110 221300                    LDX1  ! ERR_SUBST$+2,,AUTO
         1 001323   000000 702211                    TSX2  ! 0,X1

   5479  1 001324   200020 235100                    LDA     DEST_LEVEL,,AUTO
         1 001325   000001 735000                    ALS     1
         1 001326   200005 470500                    LDP0    @DEST_RANGE,,AUTO
         1 001327   000007 450105                    STZ     7,AL,PR0
         1 001330   000010 450105                    STZ     8,AL,PR0

     1496     5481    3              END;

     1497     5482
     1498     5483    3           IF PREVIOUS_SRC_EOR THEN DO;

   5483  1 001331   200044 234100                    SZN     PREVIOUS_SRC_EOR,,AUTO
         1 001332   001404 605000 1                  TPL     s:5507

     1499     5484                   %GETKEY (KEY=DEST_NEXT_KEY, PTR=DEST_NEXT_KEY$);

   5491  1 001333   200034 720100                    LXL0    DEST_NEXT_KEY,,AUTO
         1 001334   000002 100003                    CMPX0   2,DU
PL6.E3A0      #003=VDI$BINSERT File=VDI$BLOCK.:VDA5TSI                           FRI 07/04/97 11:28 Page:225
         1 001335   001342 601000 1                  TNZ     s:5491+7

   5491  1 001336   200035 236100                    LDQ     DEST_NEXT_KEY+1,,AUTO
         1 001337   000002 036003                    ADLQ    2,DU
         1 001340   200111 756100                    STQ     DEST_NEXT_KEY$,,AUTO
         1 001341   001344 710000 1                  TRA     s:5494

   5491  1 001342   200035 630500                    EPPR0   DEST_NEXT_KEY+1,,AUTO
         1 001343   200111 450500                    STP0    DEST_NEXT_KEY$,,AUTO

     1500     5494    3              IF DEST_NEXT_KEY.TYPE# = %KT_EDITKEY

   5494  1 001344   200034 221100                    LDX1    DEST_NEXT_KEY,,AUTO
         1 001345   000003 101003                    CMPX1   3,DU
         1 001346   001370 601000 1                  TNZ     s:5502
         1 001347   200111 470500                    LDP0    DEST_NEXT_KEY$,,AUTO
         1 001350   000000 236100                    LDQ     0,,PR0
         1 001351   000032 376000 xsym               ANQ     B_VECTNIL+26
         1 001352   000011 116000 2                  CMPQ    9
         1 001353   001370 602000 1                  TNC     s:5502

     1501     5495    4                AND DEST$NEXT_KEY.BYTES# >= %MX_EDITKEY THEN DO;

     1502     5496    4                 CALL VDG$OCLEAR_LOCATION (DEST_RANGE.ENDD)

   5496  1 001354   200005 236100                    LDQ     @DEST_RANGE,,AUTO
         1 001355   000011 036003                    ADLQ    9,DU
         1 001356   200174 756100                    STQ     OPEN_OPTIONS+5,,AUTO
         1 001357   200174 630500                    EPPR0   OPEN_OPTIONS+5,,AUTO
         1 001360   000017 631400 xsym               EPPR1   B_VECTNIL+15
         1 001361   000000 701000 xent               TSX1    VDG$OCLEAR_LOCATION
         1 001362   001535 702000 1                  TSX2    OCLEAR_LOCATION_FAILED

     1503     5497    4                   ALTRET (OCLEAR_LOCATION_FAILED);
     1504     5498    4                 DEST_RANGE.ENDD.EOF = %TRUE;

   5498  1 001363   200005 470500                    LDP0    @DEST_RANGE,,AUTO
PL6.E3A0      #003=VDI$BINSERT File=VDI$BLOCK.:VDA5TSI                           FRI 07/04/97 11:28 Page:226
         1 001364   400000 236007                    LDQ     -131072,DL
         1 001365   000021 256100                    ORSQ    17,,PR0

     1505     5499    4                 RETURN; /* No XLATE needed if inserting at EOF */

   5499  1 001366   200110 221300                    LDX1  ! ERR_SUBST$+2,,AUTO
         1 001367   000001 702211                    TSX2  ! 1,X1

     1506     5500    4                 END;
     1507     5501    4              ELSE DO;

     1508     5502    4                 DEST_RANGE.ENDD.KEY (DEST_LEVEL-1) = DEST_NEXT_KEY;

   5502  1 001370   200020 235100                    LDA     DEST_LEVEL,,AUTO
         1 001371   000001 735000                    ALS     1
         1 001372   200005 470500                    LDP0    @DEST_RANGE,,AUTO
         1 001373   000000 622005                    EAX2    0,AL
         1 001374   000000 623005                    EAX3    0,AL
         1 001375   200034 237100                    LDAQ    DEST_NEXT_KEY,,AUTO
         1 001376   000007 755112                    STA     7,X2,PR0
         1 001377   000010 756113                    STQ     8,X3,PR0

     1509     5503    4                 DEST_NEXT_KEY = %CLEAR;

   5503  1 001400   000000 235003                    LDA     0,DU
         1 001401   000000 236003                    LDQ     0,DU
         1 001402   200034 757100                    STAQ    DEST_NEXT_KEY,,AUTO

     1510     5504    4                 END;

     1511     5505    3              END;

   5505  1 001403   001421 710000 1                  TRA     s:5512

     1512     5506    3           ELSE DO;

     1513     5507    3              DEST_RANGE.ENDD.KEY (DEST_LEVEL-1) = LAST_WRITTEN_KEY;
PL6.E3A0      #003=VDI$BINSERT File=VDI$BLOCK.:VDA5TSI                           FRI 07/04/97 11:28 Page:227

   5507  1 001404   200020 235100                    LDA     DEST_LEVEL,,AUTO
         1 001405   000001 735000                    ALS     1
         1 001406   200005 470500                    LDP0    @DEST_RANGE,,AUTO
         1 001407   000000 620005                    EAX0    0,AL
         1 001410   000000 621005                    EAX1    0,AL
         1 001411   200060 237100                    LDAQ    LAST_WRITTEN_KEY,,AUTO
         1 001412   000007 755110                    STA     7,X0,PR0
         1 001413   000010 756111                    STQ     8,X1,PR0

     1514     5508    3              LAST_WRITTEN_KEY = %CLEAR;

   5508  1 001414   000000 235003                    LDA     0,DU
         1 001415   000000 236003                    LDQ     0,DU
         1 001416   200060 757100                    STAQ    LAST_WRITTEN_KEY,,AUTO

     1515     5509    3              DEST_RANGE.ENDD.POSITION# = END_POS_OF_INSERTED_DATA;

   5509  1 001417   200011 722100                    LXL2    END_POS_OF_INSERTED_DATA,,AUTO
         1 001420   000021 742100                    STX2    17,,PR0

     1516     5510    3              END;

     1517     5511
     1518     5512    2           XLATE$LOC = %CLEAR;

   5512  1 001421   000100 100400                    MLR     fill='000'O
         1 001422   000002 000001 xsym               ADSC9   B_VECTNIL+2              cn=0,n=1
         1 001423   200112 000134                    ADSC9   XLATE$LOC,,AUTO          cn=0,n=92

     1519     5513    2           XLATE$LOC.FILE_KEY = DEST$EDIT_BLOCK.FILE_KEY;

   5513  1 001424   200012 471500                    LDP1    DEST_EDIT_BLOCK$,,AUTO
         1 001425   000100 100500                    MLR     fill='000'O
         1 001426   100001 000010                    ADSC9   1,,PR1                   cn=0,n=8
         1 001427   200115 000010                    ADSC9   ALLOC_WDS+1,,AUTO        cn=0,n=8

PL6.E3A0      #003=VDI$BINSERT File=VDI$BLOCK.:VDA5TSI                           FRI 07/04/97 11:28 Page:228
     1520     5514    2           XLATE$LOC.LEVEL# = DEST_LEVEL;

   5514  1 001430   200020 720100                    LXL0    DEST_LEVEL,,AUTO
         1 001431   200117 740100                    STX0    NEW_BUFFER$+1,,AUTO

     1521     5515    2           XLATE$LOC.PREFIX.KEY = DEST$EDIT_BLOCK.RANGE.START.KEY;

   5515  1 001432   000100 100500                    MLR     fill='000'O
         1 001433   100003 000040                    ADSC9   3,,PR1                   cn=0,n=32
         1 001434   200120 000040                    ADSC9   NEW_BUFFER$+2,,AUTO      cn=0,n=32

     1522     5516    2           IF DEST$EDIT_BLOCK.RANGE.ENDD.POSITION# ~= 0 THEN

   5516  1 001435   100024 221100                    LDX1    20,,PR1
         1 001436   001441 600000 1                  TZE     s:5519

     1523     5517    2              DEST$EDIT_BLOCK.RANGE.ENDD.EOF = %FALSE;

   5517  1 001437   000010 236000 2                  LDQ     8
         1 001440   100024 356100                    ANSQ    20,,PR1

     1524     5518
     1525     5519    2           XLATE$LOC.PREFIX.KEY(DEST_LEVEL-1) = %CLEAR;

   5519  1 001441   200020 235100                    LDA     DEST_LEVEL,,AUTO
         1 001442   000001 735000                    ALS     1
         1 001443   000000 622005                    EAX2    0,AL
         1 001444   000000 235003                    LDA     0,DU
         1 001445   000000 236003                    LDQ     0,DU
         1 001446   200116 757112                    STAQ    CURSOR+1,X2,AUTO

     1526     5520    2           XLATE$LOC.FLINK$ = ADDR(NIL);

   5520  1 001447   000001 236000 xsym               LDQ     B_VECTNIL+1
         1 001450   200114 756100                    STQ     NEW_LENGTH+1,,AUTO

     1527     5521    2           XLATE$LOC.N_ENTRIES# = 1;
PL6.E3A0      #003=VDI$BINSERT File=VDI$BLOCK.:VDA5TSI                           FRI 07/04/97 11:28 Page:229

   5521  1 001451   000001 221003                    LDX1    1,DU
         1 001452   200113 741100                    STX1    @RIGHT$+1,,AUTO

     1528     5522    2           XLATE$LOC.XLATES.NEW_KEY(0) = DEST_RANGE.ENDD.KEY(DEST_LEVEL-1);

   5522  1 001453   200020 235100                    LDA     DEST_LEVEL,,AUTO
         1 001454   000003 735000                    ALS     3
         1 001455   000100 100505                    MLR     fill='000'O
         1 001456   000007 000010                    ADSC9   7,A,PR0                  cn=0,n=8
         1 001457   200136 000010                    ADSC9   TABLE_INDEX+5,,AUTO      cn=0,n=8

     1529     5523    3           IF DEST_EXISTS OR PREVIOUS_SRC_EOR THEN DO;

   5523  1 001460   200037 234100                    SZN     DEST_EXISTS,,AUTO
         1 001461   001464 604000 1                  TMI     s:5528
         1 001462   200044 234100                    SZN     PREVIOUS_SRC_EOR,,AUTO
         1 001463   001474 605000 1                  TPL     s:5537

     1530     5524                   /*
     1531     5525                   The insert point existed before, or it doesn't matter
     1532     5526                   So DEST_RANGE.START will catch anything that matters.
     1533     5527                   */
     1534     5528    3              XLATE$LOC.XLATES.OLD_POS_LO#(0) = DEST_RANGE.START.POSITION#;

   5528  1 001464   000010 223100                    LDX3    8,,PR0
         1 001465   200135 743100                    STX3    TABLE_INDEX+4,,AUTO

     1535     5529    3              XLATE$LOC.XLATES.OLD_POS_HI#(0) = DEST_RANGE.START.POSITION#;

   5529  1 001466   000010 224100                    LDX4    8,,PR0
         1 001467   200135 444100                    SXL4    TABLE_INDEX+4,,AUTO

     1536     5530    3              XLATE$LOC.XLATES.OLD_KEY_LO(0) = DEST_RANGE.START.KEY(DEST_LEVEL-1);

   5530  1 001470   000100 100505                    MLR     fill='000'O
         1 001471   077776 000010                    ADSC9   -2,A,PR0                 cn=0,n=8
PL6.E3A0      #003=VDI$BINSERT File=VDI$BLOCK.:VDA5TSI                           FRI 07/04/97 11:28 Page:230
         1 001472   200131 000010                    ADSC9   SRC_STREAM_KEY$+3,,AUTO  cn=0,n=8

     1537     5531    3              END;

   5531  1 001473   001477 710000 1                  TRA     s:5538

     1538     5532                /*
     1539     5533                * The insert started at a hole in the file, but ends by shifting
     1540     5534                * the next record some.  Make sure we adjust positions on that
     1541     5535                * record (e.g. "CO ST 'hole%Rindent' AF BO CURR")
     1542     5536                */
     1543     5537    2           ELSE XLATE$LOC.XLATES.OLD_KEY_LO(0) = XLATE$LOC.XLATES.NEW_KEY(0);

   5537  1 001474   200136 237100                    LDAQ    TABLE_INDEX+5,,AUTO
         1 001475   200131 755100                    STA     SRC_STREAM_KEY$+3,,AUTO
         1 001476   200132 756100                    STQ     TABLE_INDEX+1,,AUTO

     1544     5538    2           XLATE$LOC.XLATES.OLD_KEY_HI(0) = XLATE$LOC.XLATES.OLD_KEY_LO(0);

   5538  1 001477   000100 100500                    MLR     fill='000'O
         1 001500   200131 000010                    ADSC9   SRC_STREAM_KEY$+3,,AUTO  cn=0,n=8
         1 001501   200133 000010                    ADSC9   TABLE_INDEX+2,,AUTO      cn=0,n=8

     1545     5539    2           XLATE$LOC.XLATES.NEW_POS#(0) = DEST_RANGE.ENDD.POSITION#;

   5539  1 001502   000021 223100                    LDX3    17,,PR0
         1 001503   200140 743100                    STX3    TABLE_INDEX+7,,AUTO

     1546     5540    2           XLATE$LOC.XLATES.NEW_POS_INCR#(0) =

   5540  1 001504   000010 236100                    LDQ     8,,PR0
         1 001505   000022 732000                    QRS     18
         1 001506   200174 756100                    STQ     OPEN_OPTIONS+5,,AUTO
         1 001507   000021 236100                    LDQ     17,,PR0
         1 001510   000022 732000                    QRS     18
         1 001511   200174 136100                    SBLQ    OPEN_OPTIONS+5,,AUTO
         1 001512   000000 624006                    EAX4    0,QL
PL6.E3A0      #003=VDI$BINSERT File=VDI$BLOCK.:VDA5TSI                           FRI 07/04/97 11:28 Page:231
         1 001513   200140 444100                    SXL4    TABLE_INDEX+7,,AUTO

     1547     5541    2             DEST_RANGE.ENDD.POSITION# - DEST_RANGE.START.POSITION#;
     1548     5542    2           DEST_RANGE.ENDD.EOF = %TRUE; /* Dont let XLATE mess with it */

   5542  1 001514   400000 236007                    LDQ     -131072,DL
         1 001515   000021 256100                    ORSQ    17,,PR0

     1549     5543    2           DEST_RANGE.START.EOF = %TRUE; /* Dont let XLATE mess with it */

   5543  1 001516   000010 256100                    ORSQ    8,,PR0

     1550     5544    2           CALL VDG$XLATE_LOCATIONS (XLATE$LOC, %XLATE_LOCATION);

   5544  1 001517   000014 236000 2                  LDQ     12
         1 001520   200175 756100                    STQ     OPEN_OPTIONS+6,,AUTO
         1 001521   200112 633500                    EPPR3   XLATE$LOC,,AUTO
         1 001522   200174 453500                    STP3    OPEN_OPTIONS+5,,AUTO
         1 001523   200174 630500                    EPPR0   OPEN_OPTIONS+5,,AUTO
         1 001524   000020 631400 xsym               EPPR1   B_VECTNIL+16
         1 001525   000000 701000 xent               TSX1    VDG$XLATE_LOCATIONS
         1 001526   000000 011000                    NOP     0

     1551     5545    2           DEST_RANGE.START.EOF = %FALSE; /* Restore to the correct value */

   5545  1 001527   200005 470500                    LDP0    @DEST_RANGE,,AUTO
         1 001530   000010 236000 2                  LDQ     8
         1 001531   000010 356100                    ANSQ    8,,PR0

     1552     5546    2           DEST_RANGE.ENDD.EOF = %FALSE; /* Restore to the correct value */

   5546  1 001532   000021 356100                    ANSQ    17,,PR0

     1553     5547    2           RETURN;

   5547  1 001533   200110 221300                    LDX1  ! ERR_SUBST$+2,,AUTO
         1 001534   000001 702211                    TSX2  ! 1,X1
PL6.E3A0      #003=VDI$BINSERT File=VDI$BLOCK.:VDA5TSI                           FRI 07/04/97 11:28 Page:232

   5546  1 001535                       OCLEAR_LOCA* null
   5546  1 001535                       OCOPY_LOCAT* null
     1554     5548
     1555     5549
     1556     5550
     1557     5551    2   OCLEAR_LOCATION_FAILED: ;
     1558     5552    2   OCOPY_LOCATION_FAILED: ;
     1559     5553    2           ALTRETURN;

   5553  1 001535   200110 221300                    LDX1  ! ERR_SUBST$+2,,AUTO
         1 001536   000000 702211                    TSX2  ! 0,X1

     1560     5554
     1561     5555    2   END SET_DEST_END;
     1562     5556
     1563     5557        %BOX (TITLE=CLEANUP, PAGE=YES);
              5565    2
              5569    2   /***************************************************************************
              5571    2    *                                                                         *
              5575    2            *                                  CLEANUP                               *
              5577    2            *                                                                        *
              5579    2          ***************************************************************************/

     1564     5583
     1565     5584        /*I* NAME: CLEANUP
     1566     5585            PARAMETERS:
     1567     5586                None.
     1568     5587            INPUT:
     1569     5588                The following auto structures may own objects:
     1570     5589                DEST_OPTIONS
     1571     5590                RECORD
     1572     5591                DEST_NEXT_KEY
     1573     5592                SRC_KEY_OF_RECORD
     1574     5593                LAST_COPIED_KEY
     1575     5594                LAST_WRITTEN_KEY
     1576     5595            OUTPUT:
PL6.E3A0      #003=VDI$BINSERT File=VDI$BLOCK.:VDA5TSI                           FRI 07/04/97 11:28 Page:233
     1577     5596                Any objects owned by auto structures are freed.
     1578     5597            DESCRIPTION:
     1579     5598                Before leaving VDI$BINSERT for any non-fatal reason, CLEANUP should
     1580     5599                be called to free any objects we allocated for our temporary use.
     1581     5600        */
     1582     5601
     1583     5602    1   CLEANUP: PROC ALTRET;

   5602  1 001537   200110 741300       CLEANUP      STX1  ! ERR_SUBST$+2,,AUTO

     1584     5603
     1585     5604                %CLEARKEY (KEY=DEST_OPTIONS.KEY_INCR);

   5611  1 001540   200016 720100                    LXL0    DEST_OPTIONS+3,,AUTO
         1 001541   000002 100003                    CMPX0   2,DU
         1 001542   001552 601000 1                  TNZ     s:5612+2

   5611  1 001543   200017 630500                    EPPR0   DEST_OPTIONS+4,,AUTO
         1 001544   000017 631400 xsym               EPPR1   B_VECTNIL+15
         1 001545   000000 701000 xent               TSX1    VDG$OFREE
         1 001546   001550 702000 1                  TSX2    s:5612
         1 001547   001552 710000 1                  TRA     s:5612+2

   5612  1 001550   200110 221300                    LDX1  ! ERR_SUBST$+2,,AUTO
         1 001551   000000 702211                    TSX2  ! 0,X1

   5612  1 001552   000000 235003                    LDA     0,DU
         1 001553   000000 236003                    LDQ     0,DU
         1 001554   200016 757100                    STAQ    DEST_OPTIONS+3,,AUTO

     1586     5614
     1587     5615                %CLEARKEY (KEY=RECORD.KEY);

   5622  1 001555   200025 720100                    LXL0    RECORD,,AUTO
         1 001556   000002 100003                    CMPX0   2,DU
         1 001557   001567 601000 1                  TNZ     s:5623+2

PL6.E3A0      #003=VDI$BINSERT File=VDI$BLOCK.:VDA5TSI                           FRI 07/04/97 11:28 Page:234
   5622  1 001560   200026 630500                    EPPR0   RECORD+1,,AUTO
         1 001561   000017 631400 xsym               EPPR1   B_VECTNIL+15
         1 001562   000000 701000 xent               TSX1    VDG$OFREE
         1 001563   001565 702000 1                  TSX2    s:5623
         1 001564   001567 710000 1                  TRA     s:5623+2

   5623  1 001565   200110 221300                    LDX1  ! ERR_SUBST$+2,,AUTO
         1 001566   000000 702211                    TSX2  ! 0,X1

   5623  1 001567   200025 450100                    STZ     RECORD,,AUTO
         1 001570   200026 450100                    STZ     RECORD+1,,AUTO

     1588     5625                %CLEARSPEC (SPEC=RECORD.SPEC);

   5632  1 001571   200027 720100                    LXL0    RECORD+2,,AUTO
         1 001572   000002 100003                    CMPX0   2,DU
         1 001573   001603 601000 1                  TNZ     s:5633+2

   5632  1 001574   200030 630500                    EPPR0   RECORD+3,,AUTO
         1 001575   000017 631400 xsym               EPPR1   B_VECTNIL+15
         1 001576   000000 701000 xent               TSX1    VDG$OFREE
         1 001577   001601 702000 1                  TSX2    s:5633
         1 001600   001603 710000 1                  TRA     s:5633+2

   5633  1 001601   200110 221300                    LDX1  ! ERR_SUBST$+2,,AUTO
         1 001602   000000 702211                    TSX2  ! 0,X1

   5633  1 001603   200027 450100                    STZ     RECORD+2,,AUTO
         1 001604   200030 450100                    STZ     RECORD+3,,AUTO

     1589     5635    3           IF RECORD.DATA$ ~= ADDR(NIL) THEN DO;

   5635  1 001605   200031 236100                    LDQ     RECORD+4,,AUTO
         1 001606   000001 116000 xsym               CMPQ    B_VECTNIL+1
         1 001607   001617 600000 1                  TZE     s:5647

     1590     5636    3              CALL VDG$OFREE (RECORD$DATA)
PL6.E3A0      #003=VDI$BINSERT File=VDI$BLOCK.:VDA5TSI                           FRI 07/04/97 11:28 Page:235

   5636  1 001610   200031 630500                    EPPR0   RECORD+4,,AUTO
         1 001611   000017 631400 xsym               EPPR1   B_VECTNIL+15
         1 001612   000000 701000 xent               TSX1    VDG$OFREE
         1 001613   001615 702000 1                  TSX2    s:5637
         1 001614   001617 710000 1                  TRA     s:5647

     1591     5637    4              WHENALTRETURN DO; ALTRETURN; END;

   5637  1 001615   200110 221300                    LDX1  ! ERR_SUBST$+2,,AUTO
         1 001616   000000 702211                    TSX2  ! 0,X1

     1592     5638    3              END;

     1593     5639
     1594     5640                %CLEARKEY (KEY=DEST_NEXT_KEY);

   5647  1 001617   200034 720100                    LXL0    DEST_NEXT_KEY,,AUTO
         1 001620   000002 100003                    CMPX0   2,DU
         1 001621   001631 601000 1                  TNZ     s:5648+2

   5647  1 001622   200035 630500                    EPPR0   DEST_NEXT_KEY+1,,AUTO
         1 001623   000017 631400 xsym               EPPR1   B_VECTNIL+15
         1 001624   000000 701000 xent               TSX1    VDG$OFREE
         1 001625   001627 702000 1                  TSX2    s:5648
         1 001626   001631 710000 1                  TRA     s:5648+2

   5648  1 001627   200110 221300                    LDX1  ! ERR_SUBST$+2,,AUTO
         1 001630   000000 702211                    TSX2  ! 0,X1

   5648  1 001631   000000 235003                    LDA     0,DU
         1 001632   000000 236003                    LDQ     0,DU
         1 001633   200034 757100                    STAQ    DEST_NEXT_KEY,,AUTO

     1595     5650                %CLEARKEY (KEY=SRC_KEY_OF_RECORD);

   5657  1 001634   200054 720100                    LXL0    SRC_KEY_OF_RECORD,,AUTO
PL6.E3A0      #003=VDI$BINSERT File=VDI$BLOCK.:VDA5TSI                           FRI 07/04/97 11:28 Page:236
         1 001635   000002 100003                    CMPX0   2,DU
         1 001636   001646 601000 1                  TNZ     s:5658+2

   5657  1 001637   200055 630500                    EPPR0   SRC_KEY_OF_RECORD+1,,AUTO
         1 001640   000017 631400 xsym               EPPR1   B_VECTNIL+15
         1 001641   000000 701000 xent               TSX1    VDG$OFREE
         1 001642   001644 702000 1                  TSX2    s:5658
         1 001643   001646 710000 1                  TRA     s:5658+2

   5658  1 001644   200110 221300                    LDX1  ! ERR_SUBST$+2,,AUTO
         1 001645   000000 702211                    TSX2  ! 0,X1

   5658  1 001646   000000 235003                    LDA     0,DU
         1 001647   000000 236003                    LDQ     0,DU
         1 001650   200054 757100                    STAQ    SRC_KEY_OF_RECORD,,AUTO

     1596     5660                %CLEARKEY (KEY=LAST_COPIED_KEY);

   5667  1 001651   200056 720100                    LXL0    LAST_COPIED_KEY,,AUTO
         1 001652   000002 100003                    CMPX0   2,DU
         1 001653   001663 601000 1                  TNZ     s:5668+2

   5667  1 001654   200057 630500                    EPPR0   LAST_COPIED_KEY+1,,AUTO
         1 001655   000017 631400 xsym               EPPR1   B_VECTNIL+15
         1 001656   000000 701000 xent               TSX1    VDG$OFREE
         1 001657   001661 702000 1                  TSX2    s:5668
         1 001660   001663 710000 1                  TRA     s:5668+2

   5668  1 001661   200110 221300                    LDX1  ! ERR_SUBST$+2,,AUTO
         1 001662   000000 702211                    TSX2  ! 0,X1

   5668  1 001663   000000 235003                    LDA     0,DU
         1 001664   000000 236003                    LDQ     0,DU
         1 001665   200056 757100                    STAQ    LAST_COPIED_KEY,,AUTO

     1597     5670                %CLEARKEY (KEY=LAST_WRITTEN_KEY);

PL6.E3A0      #003=VDI$BINSERT File=VDI$BLOCK.:VDA5TSI                           FRI 07/04/97 11:28 Page:237
   5677  1 001666   200060 720100                    LXL0    LAST_WRITTEN_KEY,,AUTO
         1 001667   000002 100003                    CMPX0   2,DU
         1 001670   001700 601000 1                  TNZ     s:5678+2

   5677  1 001671   200061 630500                    EPPR0   LAST_WRITTEN_KEY+1,,AUTO
         1 001672   000017 631400 xsym               EPPR1   B_VECTNIL+15
         1 001673   000000 701000 xent               TSX1    VDG$OFREE
         1 001674   001676 702000 1                  TSX2    s:5678
         1 001675   001700 710000 1                  TRA     s:5678+2

   5678  1 001676   200110 221300                    LDX1  ! ERR_SUBST$+2,,AUTO
         1 001677   000000 702211                    TSX2  ! 0,X1

   5678  1 001700   000000 235003                    LDA     0,DU
         1 001701   000000 236003                    LDQ     0,DU
         1 001702   200060 757100                    STAQ    LAST_WRITTEN_KEY,,AUTO

     1598     5680
     1599     5681    2           RETURN;

   5681  1 001703   200110 221300                    LDX1  ! ERR_SUBST$+2,,AUTO
         1 001704   000001 702211                    TSX2  ! 1,X1

     1600     5682
     1601     5683    2   END CLEANUP;
     1602     5684
     1603     5685        %BOX (TITLE=ADJUST_INCREMENT, PAGE=YES);
              5693    2
              5697    2   /***************************************************************************
              5699    2    *                                                                         *
              5703    2            *                              ADJUST_INCREMENT                          *
              5705    2            *                                                                        *
              5707    2          ***************************************************************************/

     1604     5711
     1605     5712        /*I* NAME: ADJUST_INCREMENT
     1606     5713            PARAMETER:
PL6.E3A0      #003=VDI$BINSERT File=VDI$BLOCK.:VDA5TSI                           FRI 07/04/97 11:28 Page:238
     1607     5714                INCR - VD$KEY containing the default increment for this block
     1608     5715                    expression; must be type %KT_EDITKEY.
     1609     5716                    %CLEAR if no default for this expression.
     1610     5717            INPUT:
     1611     5718                DEST_NEXT_KEY - Key of the existing record following the location we'll
     1612     5719                    start inserting at.  If we're inserting at EOF, DEST_NEXT_KEY
     1613     5720                    should contain MAX_EDITKEY; it should never be %CLEAR.
     1614     5721                RECORD.KEY - Key at which we'll start writing records to the
     1615     5722                    destination.
     1616     5723                SRC_RANGE - Range of the source block.
     1617     5724                SRC_STREAM - VD$STREAM open to the source block.
     1618     5725            OUTPUT:
     1619     5726                INCR will contain the key increment to use when generating record keys
     1620     5727                    for writing to the destination.  If INCR = %CLEAR, we couldn't
     1621     5728                    find an increment which would work; either the destination will
     1622     5729                    have to be rekeyed, or we'll get a cutoff error if we try to do
     1623     5730                    the insertion anyway (with some other increment).
     1624     5731                DEST_KEY_SPACE will contain the maximum number of keys which could be
     1625     5732                    generated between RECORD.KEY and DEST_NEXT_KEY (using an increment
     1626     5733                    of .001).  This information is needed by VDI$BAUTO_REKEY.
     1627     5734                SRC_STREAM has been repositioned.
     1628     5735            DESCRIPTION:
     1629     5736                (AF 1021B also discusses this algorthm.)
     1630     5737                Calculate DEST_KEY_SPACE.
     1631     5738                If INCR is %CLEAR, set it to the default key increment, from $BY.
     1632     5739                Determine if INCR will allow at least one record to be copied; that is,
     1633     5740                    is INCR < DEST_KEY_SPACE?  If not, then adjust INCR downward to
     1634     5741                    the number less than DEST_KEY_SPACE whose first non-0 digit is
     1635     5742                    1, 2, or 5, with all other digits being 0; e.g:
     1636     5743
     1637     5744                        If DEST_KEY_SPACE is:   then change INCR to:
     1638     5745                        ---------------------   --------------------
     1639     5746                          17.0                    10.0
     1640     5747                           1.2                     1.0
     1641     5748                            .030                    .020
     1642     5749                            .020                    .010
     1643     5750                            .010                    .005
PL6.E3A0      #003=VDI$BINSERT File=VDI$BLOCK.:VDA5TSI                           FRI 07/04/97 11:28 Page:239
     1644     5751                            etc.                    etc.
     1645     5752
     1646     5753                Loop until either INCR "fits" or we "give up":
     1647     5754                    A.  Compute the max number of records we can fit using INCR; this
     1648     5755                            is:  DEST_KEY_SPACE / INCR.
     1649     5756                    B.  Read forward from SRC_RANGE.START the number of records
     1650     5757                            computed in step A.
     1651     5758
     1652     5759                        If the resulting record key is beyond SRC_RANGE.ENDD, then
     1653     5760                            this value of INCR "fits":  exit the loop.
     1654     5761
     1655     5762                        If the resulting record key is not beyond SRC_RANGE.ENDD:
     1656     5763                                adjust INCR downward to the next lower number whose
     1657     5764                                first non-0 digit is 1, 2, or 5, with all other digits
     1658     5765                                being 0.
     1659     5766                                If that yields 0, then "give up":  we can't find a
     1660     5767                                key increment that will work.
     1661     5768                            Loop back to step A above, using the new value for INCR.
     1662     5769        */
     1663     5770
     1664     5771    1   ADJUST_INCREMENT: PROC (INCR) ALTRET;

   5771  1 001705   200110 741300       ADJUST_INCR* STX1  ! ERR_SUBST$+2,,AUTO

     1665     5772
     1666     5773        %VD$KEY_NUMBER (NAME=INCR, STCLASS=PARAM);
     1667     5788        %VD$NODE_DESC (NAME=LAST_SRC_RECORD, STCLASS=AUTO);
     1668     5830
     1669     5831
     1670     5832    2   DCL DEST_NEXT_KEY$ PTR;
     1671     5833    2   DCL RECORD_KEY$ PTR;
     1672     5834    2   DCL SRC_START_KEY$ PTR;
     1673     5835    2   DCL SRC_END_KEY$ PTR;
     1674     5836    2   DCL INCREMENT SBIN;
     1675     5837    2   DCL MAX_RECS_CAN_FIT SBIN;
     1676     5838    2   DCL SRC_STREAM_KEY$ PTR;
     1677     5839
PL6.E3A0      #003=VDI$BINSERT File=VDI$BLOCK.:VDA5TSI                           FRI 07/04/97 11:28 Page:240
     1678     5840
     1679     5841        %VD$TEXTC_NUMBER (NAME=DEST$NEXT_KEY, STCLASS="BASED(DEST_NEXT_KEY$)");
     1680     5855        %VD$TEXTC_NUMBER (NAME=RECORD$KEY, STCLASS="BASED(RECORD_KEY$)");
     1681     5869        %VD$TEXTC (NAME=SRC$START_KEY, STCLASS="BASED(SRC_START_KEY$)");
     1682     5892        %VD$TEXTC (NAME=SRC$END_KEY, STCLASS="BASED(SRC_END_KEY$)");
     1683     5915        %VD$TEXTC (NAME=SRC$STREAM_KEY, STCLASS="BASED(SRC_STREAM_KEY$)");
     1684     5938
     1685     5939
     1686     5940
     1687     5941    3           IF INCR = %CLEAR THEN DO;

   5941  1 001706   200111 470500                    LDP0    @INCR,,AUTO
         1 001707   000000 106500                    CMPC    fill='000'O
         1 001710   000000 000010                    ADSC9   0,,PR0                   cn=0,n=8
         1 001711   000002 000002 xsym               ADSC9   B_VECTNIL+2              cn=0,n=2
         1 001712   001730 601000 1                  TNZ     s:5957

     1688     5942                   /* User gave no increment for this block expression */
     1689     5943    3              INCR.TYPE# = %KT_EDITKEY;

   5943  1 001713   000003 220003                    LDX0    3,DU
         1 001714   000000 740100                    STX0    0,,PR0

     1690     5944    3              INCR.REP# = %REP_LOCAL;

   5944  1 001715   000001 221003                    LDX1    1,DU
         1 001716   000000 441100                    SXL1    0,,PR0

     1691     5945    3              INCR.LENGTH# = %NB_NUMERIC_KEY;

   5945  1 001717   003000 236003                    LDQ     1536,DU
         1 001720   000001 552140                    STBQ    1,'40'O,PR0

     1692     5946    3              IF VD_$BY.V# ~= 0 THEN INCR.BYTES# = VD_$BY.V#;

   5946  1 001721   000003 235000 xsym               LDA     VD_$BY+3
         1 001722   001726 600000 1                  TZE     s:5947
PL6.E3A0      #003=VDI$BINSERT File=VDI$BLOCK.:VDA5TSI                           FRI 07/04/97 11:28 Page:241

   5946  1 001723   000003 236000 xsym               LDQ     VD_$BY+3
         1 001724   000001 552134                    STBQ    1,'34'O,PR0
         1 001725   001730 710000 1                  TRA     s:5957

     1693     5947    3              ELSE INCR.BYTES# = %DFLT_$BY;

   5947  1 001726   023420 236007                    LDQ     10000,DL
         1 001727   000001 552134                    STBQ    1,'34'O,PR0

     1694     5948    3              END;

     1695     5949
     1696     5950                %GETKEY (KEY=RECORD.KEY, PTR=RECORD_KEY$);

   5957  1 001730   200025 720100                    LXL0    RECORD,,AUTO
         1 001731   000002 100003                    CMPX0   2,DU
         1 001732   001737 601000 1                  TNZ     s:5957+7

   5957  1 001733   200026 236100                    LDQ     RECORD+1,,AUTO
         1 001734   000002 036003                    ADLQ    2,DU
         1 001735   200121 756100                    STQ     RECORD_KEY$,,AUTO
         1 001736   001741 710000 1                  TRA     s:5963

   5957  1 001737   200026 631500                    EPPR1   RECORD+1,,AUTO
         1 001740   200121 451500                    STP1    RECORD_KEY$,,AUTO

     1697     5960
     1698     5961                /* Don't generate a key of 0.000 unless we need to.  */
     1699     5962
     1700     5963    2           IF (RECORD$KEY.BYTES# = %MN_EDITKEY) AND NOT (DEST_EXISTS) THEN

   5963  1 001741   200121 471500                    LDP1    RECORD_KEY$,,AUTO
         1 001742   100000 236100                    LDQ     0,,PR1
         1 001743   000032 316000 xsym               CANQ    B_VECTNIL+26
         1 001744   001751 601000 1                  TNZ     s:5972
         1 001745   200037 234100                    SZN     DEST_EXISTS,,AUTO
PL6.E3A0      #003=VDI$BINSERT File=VDI$BLOCK.:VDA5TSI                           FRI 07/04/97 11:28 Page:242
         1 001746   001751 604000 1                  TMI     s:5972

     1701     5964    2              GENERATE_KEY = %SQ_NEXT;

   5964  1 001747   000003 235007                    LDA     3,DL
         1 001750   200042 755100                    STA     GENERATE_KEY,,AUTO

     1702     5965                %GETKEY (KEY=DEST_NEXT_KEY, PTR=DEST_NEXT_KEY$);

   5972  1 001751   200034 721100                    LXL1    DEST_NEXT_KEY,,AUTO
         1 001752   000002 101003                    CMPX1   2,DU
         1 001753   001760 601000 1                  TNZ     s:5972+7

   5972  1 001754   200035 236100                    LDQ     DEST_NEXT_KEY+1,,AUTO
         1 001755   000002 036003                    ADLQ    2,DU
         1 001756   200120 756100                    STQ     DEST_NEXT_KEY$,,AUTO
         1 001757   001762 710000 1                  TRA     s:5975

   5972  1 001760   200035 633500                    EPPR3   DEST_NEXT_KEY+1,,AUTO
         1 001761   200120 453500                    STP3    DEST_NEXT_KEY$,,AUTO

     1703     5975    2           DEST_KEY_SPACE = DEST$NEXT_KEY.BYTES# - RECORD$KEY.BYTES#;

   5975  1 001762   100000 236100                    LDQ     0,,PR1
         1 001763   000032 376000 xsym               ANQ     B_VECTNIL+26
         1 001764   200174 756100                    STQ     OPEN_OPTIONS+5,,AUTO
         1 001765   200120 473500                    LDP3    DEST_NEXT_KEY$,,AUTO
         1 001766   300000 236100                    LDQ     0,,PR3
         1 001767   000032 376000 xsym               ANQ     B_VECTNIL+26
         1 001770   200174 136100                    SBLQ    OPEN_OPTIONS+5,,AUTO
         1 001771   200041 756100                    STQ     DEST_KEY_SPACE,,AUTO

     1704     5976    2           IF GENERATE_KEY = %SQ_NEXT THEN

   5976  1 001772   200042 235100                    LDA     GENERATE_KEY,,AUTO
         1 001773   000003 115007                    CMPA    3,DL
         1 001774   001777 601000 1                  TNZ     s:5978
PL6.E3A0      #003=VDI$BINSERT File=VDI$BLOCK.:VDA5TSI                           FRI 07/04/97 11:28 Page:243

     1705     5977    2              DEST_KEY_SPACE = DEST_KEY_SPACE - 1;

   5977  1 001775   000001 336007                    LCQ     1,DL
         1 001776   200041 056100                    ASQ     DEST_KEY_SPACE,,AUTO

     1706     5978    2           IF DEST_EXISTS AND DEST_RIGHT$ ~= ADDR(NIL) THEN

   5978  1 001777   200037 234100                    SZN     DEST_EXISTS,,AUTO
         1 002000   002006 605000 1                  TPL     s:5981
         1 002001   200036 236100                    LDQ     DEST_RIGHT$,,AUTO
         1 002002   000001 116000 xsym               CMPQ    B_VECTNIL+1
         1 002003   002006 600000 1                  TZE     s:5981

     1707     5979    2              DEST_KEY_SPACE = DEST_KEY_SPACE - 1;

   5979  1 002004   000001 336007                    LCQ     1,DL
         1 002005   200041 056100                    ASQ     DEST_KEY_SPACE,,AUTO

     1708     5980
     1709     5981    2           IF SRC_RANGE.START.EOF THEN

   5981  1 002006   200003 474500                    LDP4    @SRC_RANGE,,AUTO
         1 002007   400010 236100                    LDQ     8,,PR4
         1 002010   400000 316007                    CANQ    -131072,DL
         1 002011   002014 600000 1                  TZE     s:5991

     1710     5982    2              RETURN;  /* Any increment will do */

   5982  1 002012   200110 221300                    LDX1  ! ERR_SUBST$+2,,AUTO
         1 002013   000001 702211                    TSX2  ! 1,X1

     1711     5983
     1712     5984                %GETKEY (KEY=SRC_RANGE.START.KEY, INDX=SRC_LEVEL-1, PTR=SRC_START_KEY$);

   5991  1 002014   200021 235100                    LDA     SRC_LEVEL,,AUTO
         1 002015   000001 735000                    ALS     1
PL6.E3A0      #003=VDI$BINSERT File=VDI$BLOCK.:VDA5TSI                           FRI 07/04/97 11:28 Page:244
         1 002016   477776 722105                    LXL2    -2,AL,PR4
         1 002017   000002 102003                    CMPX2   2,DU
         1 002020   002025 601000 1                  TNZ     s:5991+9

   5991  1 002021   477777 475505                    LDP5    -1,AL,PR4
         1 002022   500002 636500                    EPPR6   2,,PR5
         1 002023   200122 456500                    STP6    SRC_START_KEY$,,AUTO
         1 002024   002032 710000 1                  TRA     s:6001

   5991  1 002025   200021 236100                    LDQ     SRC_LEVEL,,AUTO
         1 002026   000023 736000                    QLS     19
         1 002027   000001 136003                    SBLQ    1,DU
         1 002030   200003 036100                    ADLQ    @SRC_RANGE,,AUTO
         1 002031   200122 756100                    STQ     SRC_START_KEY$,,AUTO

     1713     5994                %GETKEY (KEY=SRC_RANGE.ENDD.KEY, INDX=SRC_LEVEL-1, PTR=SRC_END_KEY$);

   6001  1 002032   400007 723105                    LXL3    7,AL,PR4
         1 002033   000002 103003                    CMPX3   2,DU
         1 002034   002041 601000 1                  TNZ     s:6001+7

   6001  1 002035   400010 475505                    LDP5    8,AL,PR4
         1 002036   500002 636500                    EPPR6   2,,PR5
         1 002037   200123 456500                    STP6    SRC_END_KEY$,,AUTO
         1 002040   002046 710000 1                  TRA     s:6004

   6001  1 002041   200021 236100                    LDQ     SRC_LEVEL,,AUTO
         1 002042   000023 736000                    QLS     19
         1 002043   000010 036003                    ADLQ    8,DU
         1 002044   200003 036100                    ADLQ    @SRC_RANGE,,AUTO
         1 002045   200123 756100                    STQ     SRC_END_KEY$,,AUTO

     1714     6004    2           IF SRC_RANGE.ENDD.EOF THEN

   6004  1 002046   400021 236100                    LDQ     17,,PR4
         1 002047   400000 316007                    CANQ    -131072,DL
         1 002050   002053 600000 1                  TZE     s:6007
PL6.E3A0      #003=VDI$BINSERT File=VDI$BLOCK.:VDA5TSI                           FRI 07/04/97 11:28 Page:245

     1715     6005    2              SRC_END_KEY$ = ADDR(VD_KEY_MX_EDITKEY.LENGTH#);

   6005  1 002051   000015 236000 2                  LDQ     13
         1 002052   200123 756100                    STQ     SRC_END_KEY$,,AUTO

     1716     6006
     1717     6007    2           IF SRC$START_KEY.BYTES >= SRC$END_KEY.BYTES THEN

   6007  1 002053   200122 475500                    LDP5    SRC_START_KEY$,,AUTO
         1 002054   500000 236100                    LDQ     0,,PR5
         1 002055   000033 772000                    QRL     27
         1 002056   200123 476500                    LDP6    SRC_END_KEY$,,AUTO
         1 002057   000000 624006                    EAX4    0,QL
         1 002060   600000 236100                    LDQ     0,,PR6
         1 002061   000033 772000                    QRL     27
         1 002062   000000 625006                    EAX5    0,QL
         1 002063   040140 106540                    CMPC    fill='040'O
         1 002064   500000 200014                    ADSC9   0,,PR5                   cn=1,n=*X4
         1 002065   600000 200015                    ADSC9   0,,PR6                   cn=1,n=*X5
         1 002066   002073 602000 1                  TNC     s:6017

     1718     6008    2              IF NOT OUTSIDE_SRC_RANGE THEN

   6008  1 002067   200010 234100                    SZN     OUTSIDE_SRC_RANGE,,AUTO
         1 002070   002073 604000 1                  TMI     s:6017

     1719     6009    2                 RETURN; /* Any increment will do */

   6009  1 002071   200110 221300                    LDX1  ! ERR_SUBST$+2,,AUTO
         1 002072   000001 702211                    TSX2  ! 1,X1

     1720     6010
     1721     6011                /*
     1722     6012                *   Source block includes at least 1 EOR; we'll have to do at least 1
     1723     6013                *       insertion.
     1724     6014                */
PL6.E3A0      #003=VDI$BINSERT File=VDI$BLOCK.:VDA5TSI                           FRI 07/04/97 11:28 Page:246
     1725     6015
     1726     6016
     1727     6017    2           INCREMENT = INCR.BYTES#;    /* Make word for better performance */

   6017  1 002073   000001 236100                    LDQ     1,,PR0
         1 002074   000032 376000 xsym               ANQ     B_VECTNIL+26
         1 002075   200124 756100                    STQ     INCREMENT,,AUTO

     1728     6018
     1729     6019    3           IF INCREMENT >= DEST_KEY_SPACE THEN DO;

   6019  1 002076   200041 116100                    CMPQ    DEST_KEY_SPACE,,AUTO
         1 002077   002105 604000 1                  TMI     s:6024

     1730     6020    3              INCREMENT = DEST_KEY_SPACE + 1;  /* Initial value */

   6020  1 002100   200041 235100                    LDA     DEST_KEY_SPACE,,AUTO
         1 002101   000001 035007                    ADLA    1,DL
         1 002102   200124 755100                    STA     INCREMENT,,AUTO

     1731     6021    3              CALL NEXT_LOWER_INCR;

   6021  1 002103   002333 701000 1                  TSX1    NEXT_LOWER_INCR
         1 002104   000000 011000                    NOP     0

     1732     6022    3              END;

     1733     6023
     1734     6024    2           MAX_RECS_CAN_FIT = 1;

   6024  1 002105   000001 235007                    LDA     1,DL
         1 002106   200125 755100                    STA     MAX_RECS_CAN_FIT,,AUTO

     1735     6025    2           SRC_STREAM_KEY$ = SRC_START_KEY$;

   6025  1 002107   200122 236100                    LDQ     SRC_START_KEY$,,AUTO
         1 002110   200126 756100                    STQ     SRC_STREAM_KEY$,,AUTO
PL6.E3A0      #003=VDI$BINSERT File=VDI$BLOCK.:VDA5TSI                           FRI 07/04/97 11:28 Page:247

     1736     6026
     1737     6027    2           IF NOT OUTSIDE_SRC_RANGE THEN

   6027  1 002111   200010 234100                    SZN     OUTSIDE_SRC_RANGE,,AUTO
         1 002112   002175 604000 1                  TMI     s:6054

     1738     6028    2   LOOP:
     1739     6029    3           DO WHILE INCREMENT > 0;

   6029  1 002113   200124 235100       LOOP         LDA     INCREMENT,,AUTO
         1 002114   002175 604400 1                  TMOZ    s:6054

     1740     6030
     1741     6031    3              MAX_RECS_CAN_FIT = DEST_KEY_SPACE / INCREMENT;

   6031  1 002115   200041 236100                    LDQ     DEST_KEY_SPACE,,AUTO
         1 002116   200124 506100                    DIV     INCREMENT,,AUTO
         1 002117   200125 756100                    STQ     MAX_RECS_CAN_FIT,,AUTO

     1742     6032    3              CALL VDA$LREAD (SRC_STREAM, SRC_RANGE.START, MAX_RECS_CAN_FIT,

   6032  1 002120   000000 236000 2                  LDQ     0
         1 002121   200177 756100                    STQ     OPEN_OPTIONS+8,,AUTO
         1 002122   200125 630500                    EPPR0   MAX_RECS_CAN_FIT,,AUTO
         1 002123   200176 450500                    STP0    OPEN_OPTIONS+7,,AUTO
         1 002124   200003 236100                    LDQ     @SRC_RANGE,,AUTO
         1 002125   200004 235100                    LDA     @SRC_STREAM,,AUTO
         1 002126   200174 757100                    STAQ    OPEN_OPTIONS+5,,AUTO
         1 002127   200174 630500                    EPPR0   OPEN_OPTIONS+5,,AUTO
         1 002130   000022 631400 xsym               EPPR1   B_VECTNIL+18
         1 002131   000000 701000 xent               TSX1    VDA$LREAD
         1 002132   002331 702000 1                  TSX2    LREAD_FAILED

     1743     6033    3                %DONT_READ_RECORD) ALTRET (LREAD_FAILED);
     1744     6034    3              IF SRC_STREAM.CURRENT.EOF THEN

PL6.E3A0      #003=VDI$BINSERT File=VDI$BLOCK.:VDA5TSI                           FRI 07/04/97 11:28 Page:248
   6034  1 002133   200004 470500                    LDP0    @SRC_STREAM,,AUTO
         1 002134   000016 236100                    LDQ     14,,PR0
         1 002135   400000 316007                    CANQ    -131072,DL
         1 002136   002175 601000 1                  TNZ     s:6054

     1745     6035    3                 EXIT LOOP; /* Hit EOF:  INCREMENT fits ok */
     1746     6036                   %GETKEY (KEY=SRC_STREAM.CURRENT.KEY, INDX=SRC_LEVEL-1,
     1747     6037                   PTR=SRC_STREAM_KEY$);

   6044  1 002137   200021 235100                    LDA     SRC_LEVEL,,AUTO
         1 002140   000001 735000                    ALS     1
         1 002141   000004 720105                    LXL0    4,AL,PR0
         1 002142   000002 100003                    CMPX0   2,DU
         1 002143   002150 601000 1                  TNZ     s:6044+9

   6044  1 002144   000005 471505                    LDP1    5,AL,PR0
         1 002145   100002 633500                    EPPR3   2,,PR1
         1 002146   200126 453500                    STP3    SRC_STREAM_KEY$,,AUTO
         1 002147   002155 710000 1                  TRA     s:6048

   6044  1 002150   200021 236100                    LDQ     SRC_LEVEL,,AUTO
         1 002151   000023 736000                    QLS     19
         1 002152   000005 036003                    ADLQ    5,DU
         1 002153   200004 036100                    ADLQ    @SRC_STREAM,,AUTO
         1 002154   200126 756100                    STQ     SRC_STREAM_KEY$,,AUTO

     1748     6047
     1749     6048    3              IF (SRC$STREAM_KEY.BYTES >= SRC$END_KEY.BYTES) THEN

   6048  1 002155   200126 471500                    LDP1    SRC_STREAM_KEY$,,AUTO
         1 002156   100000 236100                    LDQ     0,,PR1
         1 002157   000033 772000                    QRL     27
         1 002160   200123 473500                    LDP3    SRC_END_KEY$,,AUTO
         1 002161   000000 621006                    EAX1    0,QL
         1 002162   300000 236100                    LDQ     0,,PR3
         1 002163   000033 772000                    QRL     27
         1 002164   000000 622006                    EAX2    0,QL
PL6.E3A0      #003=VDI$BINSERT File=VDI$BLOCK.:VDA5TSI                           FRI 07/04/97 11:28 Page:249
         1 002165   040140 106540                    CMPC    fill='040'O
         1 002166   100000 200011                    ADSC9   0,,PR1                   cn=1,n=*X1
         1 002167   300000 200012                    ADSC9   0,,PR3                   cn=1,n=*X2
         1 002170   002175 603000 1                  TRC     s:6054

     1750     6049    3                 EXIT LOOP;    /* Current INCR fits all recs from source */
     1751     6050    3              CALL NEXT_LOWER_INCR;

   6050  1 002171   002333 701000 1                  TSX1    NEXT_LOWER_INCR
         1 002172   000000 011000                    NOP     0

     1752     6051    3              END LOOP;

   6051  1 002173   200124 235100                    LDA     INCREMENT,,AUTO
         1 002174   002115 605400 1                  TPNZ    s:6031

     1753     6052
     1754     6053                /* If INCREMENT <= 0, we failed to find an increment */
     1755     6054    3           IF INCREMENT > 0 THEN DO;

   6054  1 002175   200124 235100                    LDA     INCREMENT,,AUTO
         1 002176   002204 604400 1                  TMOZ    s:6062

     1756     6055                   /* Return INCREMENT in INCR */
     1757     6056    3              INCR.BYTES# = INCREMENT;

   6056  1 002177   200111 470500                    LDP0    @INCR,,AUTO
         1 002200   200124 236100                    LDQ     INCREMENT,,AUTO
         1 002201   000001 552134                    STBQ    1,'34'O,PR0

     1758     6057    3              RETURN;

   6057  1 002202   200110 221300                    LDX1  ! ERR_SUBST$+2,,AUTO
         1 002203   000001 702211                    TSX2  ! 1,X1

     1759     6058    3              END;
     1760     6059
PL6.E3A0      #003=VDI$BINSERT File=VDI$BLOCK.:VDA5TSI                           FRI 07/04/97 11:28 Page:250
     1761     6060                /* Just to make rekey's job easier, count the source records */
     1762     6061
     1763     6062    2           INCREMENT = MAXIMUM (MAX_RECS_CAN_FIT,4);

   6062  1 002204   000004 236007                    LDQ     4,DL
         1 002205   002211 604000 1                  TMI     s:6062+5
         1 002206   200125 116100                    CMPQ    MAX_RECS_CAN_FIT,,AUTO
         1 002207   002211 605000 1                  TPL     s:6062+5
         1 002210   200125 236100                    LDQ     MAX_RECS_CAN_FIT,,AUTO
         1 002211   200124 756100                    STQ     INCREMENT,,AUTO

     1764     6063    2           IF NOT OUTSIDE_SRC_RANGE THEN

   6063  1 002212   200010 234100                    SZN     OUTSIDE_SRC_RANGE,,AUTO
         1 002213   002322 604000 1                  TMI     s:6100

     1765     6064    2   COUNT_LOOP:
     1766     6065    3           DO %FOREVER;

   6065  1 002214                       COUNT_LOOP   null
     1767     6066    3              IF SRC_STREAM.CURRENT.EOF

   6066  1 002214   200004 470500                    LDP0    @SRC_STREAM,,AUTO
         1 002215   000016 236100                    LDQ     14,,PR0
         1 002216   400000 316007                    CANQ    -131072,DL
         1 002217   002234 601000 1                  TNZ     s:6068
         1 002220   200126 471500                    LDP1    SRC_STREAM_KEY$,,AUTO
         1 002221   100000 236100                    LDQ     0,,PR1
         1 002222   000033 772000                    QRL     27
         1 002223   200123 473500                    LDP3    SRC_END_KEY$,,AUTO
         1 002224   000000 620006                    EAX0    0,QL
         1 002225   300000 236100                    LDQ     0,,PR3
         1 002226   000033 772000                    QRL     27
         1 002227   000000 621006                    EAX1    0,QL
         1 002230   040140 106540                    CMPC    fill='040'O
         1 002231   300000 200011                    ADSC9   0,,PR3                   cn=1,n=*X1
         1 002232   100000 200010                    ADSC9   0,,PR1                   cn=1,n=*X0
PL6.E3A0      #003=VDI$BINSERT File=VDI$BLOCK.:VDA5TSI                           FRI 07/04/97 11:28 Page:251
         1 002233   002253 603000 1                  TRC     s:6075

     1768     6067    4                OR SRC$STREAM_KEY.BYTES > SRC$END_KEY.BYTES THEN DO;

     1769     6068    4                 IF INCREMENT >= MAX_RECS_CAN_FIT THEN

   6068  1 002234   200124 236100                    LDQ     INCREMENT,,AUTO
         1 002235   200125 116100                    CMPQ    MAX_RECS_CAN_FIT,,AUTO
         1 002236   002242 604000 1                  TMI     s:6070

     1770     6069    4                    INCREMENT = (INCREMENT + 1) / 2;

   6069  1 002237   000001 036007                    ADLQ    1,DL
         1 002240   000002 506007                    DIV     2,DL
         1 002241   200124 756100                    STQ     INCREMENT,,AUTO

     1771     6070    4                 IF INCREMENT = 1 THEN EXIT COUNT_LOOP;

   6070  1 002242   000001 116007                    CMPQ    1,DL
         1 002243   002322 600000 1                  TZE     s:6100

     1772     6071    4                 INCREMENT = (INCREMENT + 1) / 2;

   6071  1 002244   000001 036007                    ADLQ    1,DL
         1 002245   000002 506007                    DIV     2,DL
         1 002246   200124 756100                    STQ     INCREMENT,,AUTO

     1773     6072    4                 MAX_RECS_CAN_FIT = MAX_RECS_CAN_FIT - INCREMENT;

   6072  1 002247   200125 236100                    LDQ     MAX_RECS_CAN_FIT,,AUTO
         1 002250   200124 136100                    SBLQ    INCREMENT,,AUTO
         1 002251   200125 756100                    STQ     MAX_RECS_CAN_FIT,,AUTO

     1774     6073    4                 END;

   6073  1 002252   002267 710000 1                  TRA     s:6085

PL6.E3A0      #003=VDI$BINSERT File=VDI$BLOCK.:VDA5TSI                           FRI 07/04/97 11:28 Page:252
     1775     6074    4              ELSE DO;

     1776     6075    5                 IF INCREMENT >= MAX_RECS_CAN_FIT THEN DO;

   6075  1 002253   200124 236100                    LDQ     INCREMENT,,AUTO
         1 002254   200125 116100                    CMPQ    MAX_RECS_CAN_FIT,,AUTO
         1 002255   002262 604000 1                  TMI     s:6080

     1777     6076    5                    INCREMENT = MAX_RECS_CAN_FIT + INCREMENT;

   6076  1 002256   200125 036100                    ADLQ    MAX_RECS_CAN_FIT,,AUTO
         1 002257   200124 756100                    STQ     INCREMENT,,AUTO

     1778     6077    5                    MAX_RECS_CAN_FIT = INCREMENT;

   6077  1 002260   200125 756100                    STQ     MAX_RECS_CAN_FIT,,AUTO

     1779     6078    5                    END;

   6078  1 002261   002267 710000 1                  TRA     s:6085

     1780     6079    5                 ELSE DO;

     1781     6080    5                    INCREMENT = (INCREMENT + 1) / 2;

   6080  1 002262   000001 036007                    ADLQ    1,DL
         1 002263   000002 506007                    DIV     2,DL
         1 002264   200124 756100                    STQ     INCREMENT,,AUTO

     1782     6081    5                    MAX_RECS_CAN_FIT = MAX_RECS_CAN_FIT + INCREMENT;

   6081  1 002265   200125 036100                    ADLQ    MAX_RECS_CAN_FIT,,AUTO
         1 002266   200125 756100                    STQ     MAX_RECS_CAN_FIT,,AUTO

     1783     6082    5                    END;

     1784     6083    4                 END;
PL6.E3A0      #003=VDI$BINSERT File=VDI$BLOCK.:VDA5TSI                           FRI 07/04/97 11:28 Page:253

     1785     6084
     1786     6085    3              CALL VDA$LREAD (SRC_STREAM, SRC_RANGE.START, MAX_RECS_CAN_FIT,

   6085  1 002267   000000 236000 2                  LDQ     0
         1 002270   200177 756100                    STQ     OPEN_OPTIONS+8,,AUTO
         1 002271   200125 631500                    EPPR1   MAX_RECS_CAN_FIT,,AUTO
         1 002272   200176 451500                    STP1    OPEN_OPTIONS+7,,AUTO
         1 002273   200003 236100                    LDQ     @SRC_RANGE,,AUTO
         1 002274   200004 235100                    LDA     @SRC_STREAM,,AUTO
         1 002275   200174 757100                    STAQ    OPEN_OPTIONS+5,,AUTO
         1 002276   200174 630500                    EPPR0   OPEN_OPTIONS+5,,AUTO
         1 002277   000022 631400 xsym               EPPR1   B_VECTNIL+18
         1 002300   000000 701000 xent               TSX1    VDA$LREAD
         1 002301   002331 702000 1                  TSX2    LREAD_FAILED

     1787     6086    3                %DONT_READ_RECORD) ALTRET (LREAD_FAILED);
     1788     6087                   %GETKEY (KEY=SRC_STREAM.CURRENT.KEY, INDX=SRC_LEVEL-1,
     1789     6088                   PTR=SRC_STREAM_KEY$);

   6095  1 002302   200021 235100                    LDA     SRC_LEVEL,,AUTO
         1 002303   000001 735000                    ALS     1
         1 002304   200004 470500                    LDP0    @SRC_STREAM,,AUTO
         1 002305   000004 720105                    LXL0    4,AL,PR0
         1 002306   000002 100003                    CMPX0   2,DU
         1 002307   002314 601000 1                  TNZ     s:6095+10

   6095  1 002310   000005 471505                    LDP1    5,AL,PR0
         1 002311   100002 633500                    EPPR3   2,,PR1
         1 002312   200126 453500                    STP3    SRC_STREAM_KEY$,,AUTO
         1 002313   002214 710000 1                  TRA     COUNT_LOOP

   6095  1 002314   200021 236100                    LDQ     SRC_LEVEL,,AUTO
         1 002315   000023 736000                    QLS     19
         1 002316   000005 036003                    ADLQ    5,DU
         1 002317   200004 036100                    ADLQ    @SRC_STREAM,,AUTO
         1 002320   200126 756100                    STQ     SRC_STREAM_KEY$,,AUTO
PL6.E3A0      #003=VDI$BINSERT File=VDI$BLOCK.:VDA5TSI                           FRI 07/04/97 11:28 Page:254

     1790     6098    3              END COUNT_LOOP;

   6098  1 002321   002214 710000 1                  TRA     COUNT_LOOP

     1791     6099
     1792     6100    2           INCR.TYPE# = 0;

   6100  1 002322   000000 220003                    LDX0    0,DU
         1 002323   200111 470500                    LDP0    @INCR,,AUTO
         1 002324   000000 740100                    STX0    0,,PR0

     1793     6101    2           DEST_KEY_SPACE = MAX_RECS_CAN_FIT;

   6101  1 002325   200125 235100                    LDA     MAX_RECS_CAN_FIT,,AUTO
         1 002326   200041 755100                    STA     DEST_KEY_SPACE,,AUTO

     1794     6102    2           RETURN;

   6102  1 002327   200110 221300                    LDX1  ! ERR_SUBST$+2,,AUTO
         1 002330   000001 702211                    TSX2  ! 1,X1

   6101  1 002331                       LREAD_FAILED null
   6101  1 002331                       RGET_FAILED  null
     1795     6103
     1796     6104
     1797     6105    2   LREAD_FAILED: ;
     1798     6106    2   RGET_FAILED: ;
     1799     6107    2           ALTRETURN;

   6107  1 002331   200110 221300                    LDX1  ! ERR_SUBST$+2,,AUTO
         1 002332   000000 702211                    TSX2  ! 0,X1

     1800     6108
     1801     6109        %BOX (TITLE=NEXT_LOWER_INCR);

              6121    2   /***************************************************************************
PL6.E3A0      #003=VDI$BINSERT File=VDI$BLOCK.:VDA5TSI                           FRI 07/04/97 11:28 Page:255
              6123    2    *                                                                         *
              6127    2            *                              NEXT_LOWER_INCR                           *
              6129    2            *                                                                        *
              6131    2          ***************************************************************************/

     1802     6135
     1803     6136        /*I** NAME: NEXT_LOWER_INCR
     1804     6137            PARAMETERS:
     1805     6138            INPUT:
     1806     6139            OUTPUT:
     1807     6140                INCREMENT will be changed; it will contain the next lower number which
     1808     6141                    ends in 0, 1, 2, or 5.  If INCR is initially <= 0 or then
     1809     6142                    next lower number is <= 0, INCR will be returned containing 0.
     1810     6143            DESCRIPTION:
     1811     6144                Look up the next lower 1/2/5 increment in a table, and return it.
     1812     6145        */
     1813     6146
     1814     6147    2   NEXT_LOWER_INCR: PROC;

   6147  1 002333   200130 741300       NEXT_LOWER_* STX1  ! SRC_STREAM_KEY$+2,,AUTO

     1815     6148
     1816     6149
     1817     6150    3   DCL INCR_521_TABLE (0:25) SBIN CONSTANT
     1818     6151    3       INIT (100000000,
     1819     6152    3           50000000, 20000000, 10000000,   5000000, 2000000, 1000000,
     1820     6153    3           500000, 200000, 100000,         50000, 20000, 10000,
     1821     6154    3           5000, 2000, 1000,               500, 200, 100,
     1822     6155    3           50, 20, 10,                     5, 2, 1,
     1823     6156    3           0);
     1824     6157
     1825     6158    3   DCL TABLE_INDEX SBIN;
     1826     6159
     1827     6160
     1828     6161    4           DO TABLE_INDEX = 0 TO 24;

   6161  1 002334   200131 450100                    STZ     TABLE_INDEX,,AUTO
PL6.E3A0      #003=VDI$BINSERT File=VDI$BLOCK.:VDA5TSI                           FRI 07/04/97 11:28 Page:256

     1829     6162    4              IF INCREMENT > INCR_521_TABLE (TABLE_INDEX) THEN EXIT;

   6162  1 002335   200131 720100                    LXL0    TABLE_INDEX,,AUTO
         1 002336   200124 236100                    LDQ     INCREMENT,,AUTO
         1 002337   000000 116010 0                  CMPQ    INCR_521_TABLE,X0
         1 002340   002345 605400 1                  TPNZ    s:6165

     1830     6163    4              END;

   6163  1 002341   200131 054100                    AOS     TABLE_INDEX,,AUTO
         1 002342   200131 235100                    LDA     TABLE_INDEX,,AUTO
         1 002343   000030 115007                    CMPA    24,DL
         1 002344   002335 604400 1                  TMOZ    s:6162

     1831     6164
     1832     6165    3           INCREMENT = INCR_521_TABLE (TABLE_INDEX);

   6165  1 002345   200131 720100                    LXL0    TABLE_INDEX,,AUTO
         1 002346   000000 235010 0                  LDA     INCR_521_TABLE,X0
         1 002347   200124 755100                    STA     INCREMENT,,AUTO

     1833     6166    3           RETURN;

   6166  1 002350   200130 221300                    LDX1  ! SRC_STREAM_KEY$+2,,AUTO
         1 002351   000001 702211                    TSX2  ! 1,X1

     1834     6167
     1835     6168    3   END NEXT_LOWER_INCR;
     1836     6169
     1837     6170    2   END ADJUST_INCREMENT;
     1838     6171
     1839     6172        %BOX (TITLE=PREPARE_DESTINATION, PAGE=YES);
              6180    2
              6184    2   /***************************************************************************
              6186    2    *                                                                         *
              6190    2            *                            PREPARE_DESTINATION                         *
PL6.E3A0      #003=VDI$BINSERT File=VDI$BLOCK.:VDA5TSI                           FRI 07/04/97 11:28 Page:257
              6192    2            *                                                                        *
              6194    2          ***************************************************************************/

     1840     6198
     1841     6199        /*I* NAME: PREPARE_DESTINATION
     1842     6200            INPUT:
     1843     6201                FIRST_SRC_RECORD - VD$NODE_DESC containing the first/only record from
     1844     6202                    the source block.
     1845     6203                DEST_STREAM - VD$STREAM open to destination file.
     1846     6204                DEST$EDIT_BLOCK - EditBlock containing the destination block.
     1847     6205                DEST_RANGE - Range of destination block.
     1848     6206                    .START must already be set to be a copy of .ENDD.
     1849     6207                DEST_RANGE_TYPE - %BDT_ code for DEST_RANGE.
     1850     6208                DEST_LEVEL - Level in file structure of the destination block.
     1851     6209            OUTPUT:
     1852     6210                RECORD.SPEC, .DATA, and .EOR will be set from destLeft, if any.
     1853     6211                    If no destLeft, these fields will be %CLEAR/NIL.
     1854     6212                RECORD.KEY will contain the key to be used for the first write (or
     1855     6213                    as the base for generating a new SQ_NEXT key on the first write).
     1856     6214                    If we should insert the source block in front of the given
     1857     6215                    destination key, RECORD.KEY will contain the key of the existing
     1858     6216                    record just prior to the given destination key.
     1859     6217                DEST_LEFT_LENGTH will contain the length of the destLeft portion of
     1860     6218                    the destination record; 0 if none.
     1861     6219                DEST_NEXT_KEY will contain the key of the record following RECORD.KEY.
     1862     6220                    If the given dest key is the last or beyond the last record in
     1863     6221                    the file, DEST_NEXT_KEY will be set to MAX_EDITKEY.
     1864     6222                DEST_RIGHT$ will be either NIL, or will point to a VD$BUFFER containing
     1865     6223                    either destRight or destNext.  If it's not NIL, then the data
     1866     6224                    is assumed to include the EOR boundary.
     1867     6225                DEST_EXISTS will be set to true or false, indicating if the given
     1868     6226                    destination key exists in the destination EditBlock or not.
     1869     6227                GENERATE_KEY indicates whether and how to generate a key for the
     1870     6228                    first record written to the destination block:
     1871     6229                    %SQ_CURRENT - use RECORD.KEY itself -- don't generate a new key.
     1872     6230                    %SQ_NEXT - generate a key after RECORD.KEY; DEST_NEXT_KEY is
     1873     6231                        the key of the existing record after RECORD.KEY.
PL6.E3A0      #003=VDI$BINSERT File=VDI$BLOCK.:VDA5TSI                           FRI 07/04/97 11:28 Page:258
     1874     6232                DEST_STREAM has been repositioned.
     1875     6233            DESCRIPTION:
     1876     6234                See if destination record exists, by reading the record at the given
     1877     6235                    destination key; if that key doesn't exist in the file, we'll get
     1878     6236                    the record following the given dest key.
     1879     6237                If the given destination key does exist, separate the record into
     1880     6238                    destLeft and destRight:
     1881     6239                    Set RECORD to destLeft;
     1882     6240                    Set DEST_RIGHT$ to destRight.
     1883     6241                If it doesn't exist, the record we read is actually the destNext
     1884     6242                    record.  Save it in DEST_RIGHT$.
     1885     6243        */
     1886     6244
     1887     6245    1   PREPARE_DESTINATION: PROC ALTRET;

   6245  1 002352   200110 741300       PREPARE_DES* STX1  ! ERR_SUBST$+2,,AUTO

     1888     6246
     1889     6247
     1890     6248
     1891     6249    2   DCL DEST_GIVEN_KEY$ PTR;
     1892     6250    2   DCL RELATIVE SBIN;
     1893     6251    2   DCL RECORD_KEY$ PTR;
     1894     6252    2   DCL DEST_RIGHT_LENGTH SBIN;
     1895     6253    2   DCL ALLOC_WDS SBIN;
     1896     6254
     1897     6255
     1898     6256        %VD$TEXTC (NAME=DEST$GIVEN_KEY, STCLASS="BASED(DEST_GIVEN_KEY$)");
     1899     6279        %VD$TEXTC (NAME=RECORD$KEY, STCLASS="BASED(RECORD_KEY$)");
     1900     6302        %VD$BUFFER (NAME=DEST$RIGHT, STCLASS="BASED(DEST_RIGHT$)");
     1901     6360        %VD$BUFFER (NAME=RECORD$DATA, STCLASS="BASED(RECORD.DATA$)");
     1902     6418
     1903     6419
     1904     6420
     1905     6421    2           DEST_LEFT_LENGTH = 0;

   6421  1 002353   200033 450100                    STZ     DEST_LEFT_LENGTH,,AUTO
PL6.E3A0      #003=VDI$BINSERT File=VDI$BLOCK.:VDA5TSI                           FRI 07/04/97 11:28 Page:259

     1906     6422    2           DEST_RIGHT$ = ADDR(NIL);

   6422  1 002354   000001 236000 xsym               LDQ     B_VECTNIL+1
         1 002355   200036 756100                    STQ     DEST_RIGHT$,,AUTO

     1907     6423    2           DEST_EXISTS = %FALSE;       /* Assume given dest key doesn't exist */

   6423  1 002356   200037 450100                    STZ     DEST_EXISTS,,AUTO

     1908     6424    2           GENERATE_KEY = %SQ_CURRENT; /* Assume "don't generate key" */

   6424  1 002357   000002 235007                    LDA     2,DL
         1 002360   200042 755100                    STA     GENERATE_KEY,,AUTO

     1909     6425
     1910     6426                %GETKEY (KEY=DEST_RANGE.ENDD.KEY, INDX=DEST_LEVEL-1,
     1911     6427                PTR=DEST_GIVEN_KEY$);

   6434  1 002361   200020 235100                    LDA     DEST_LEVEL,,AUTO
         1 002362   000001 735000                    ALS     1
         1 002363   200005 470500                    LDP0    @DEST_RANGE,,AUTO
         1 002364   000007 720105                    LXL0    7,AL,PR0
         1 002365   000002 100003                    CMPX0   2,DU
         1 002366   002373 601000 1                  TNZ     s:6434+10

   6434  1 002367   000010 471505                    LDP1    8,AL,PR0
         1 002370   100002 633500                    EPPR3   2,,PR1
         1 002371   200111 453500                    STP3    DEST_GIVEN_KEY$,,AUTO
         1 002372   002400 710000 1                  TRA     s:6438

   6434  1 002373   200020 236100                    LDQ     DEST_LEVEL,,AUTO
         1 002374   000023 736000                    QLS     19
         1 002375   000010 036003                    ADLQ    8,DU
         1 002376   200005 036100                    ADLQ    @DEST_RANGE,,AUTO
         1 002377   200111 756100                    STQ     DEST_GIVEN_KEY$,,AUTO

PL6.E3A0      #003=VDI$BINSERT File=VDI$BLOCK.:VDA5TSI                           FRI 07/04/97 11:28 Page:260
     1912     6437
     1913     6438    2           IF DEST_RANGE.ENDD.EOF THEN

   6438  1 002400   000021 236100                    LDQ     17,,PR0
         1 002401   400000 316007                    CANQ    -131072,DL
         1 002402   002455 600000 1                  TZE     GIVEN_NOT_EOF

     1914     6439    3   GIVEN_EOF: DO;

   6439  1 002403                       GIVEN_EOF    null
     1915     6440                   /*
     1916     6441                   *   Dest ends at EOF:  find last key in file to use as base for
     1917     6442                   *      key generation.
     1918     6443                   */
     1919     6444    3              CALL VDA$LREAD (DEST_STREAM, DEST_RANGE.ENDD, -1, %DONT_READ_RECORD)

   6444  1 002403   000004 237000 2                  LDAQ    4
         1 002404   200176 757100                    STAQ    OPEN_OPTIONS+7,,AUTO
         1 002405   200005 236100                    LDQ     @DEST_RANGE,,AUTO
         1 002406   000011 036003                    ADLQ    9,DU
         1 002407   200006 235100                    LDA     @DEST_STREAM,,AUTO
         1 002410   200174 757100                    STAQ    OPEN_OPTIONS+5,,AUTO
         1 002411   200174 630500                    EPPR0   OPEN_OPTIONS+5,,AUTO
         1 002412   000022 631400 xsym               EPPR1   B_VECTNIL+18
         1 002413   000000 701000 xent               TSX1    VDA$LREAD
         1 002414   003157 702000 1                  TSX2    LREAD_FAILED

     1920     6445    3                ALTRET (LREAD_FAILED);
     1921     6446    3              IF DEST_STREAM.CURRENT.EOF THEN

   6446  1 002415   200006 470500                    LDP0    @DEST_STREAM,,AUTO
         1 002416   000016 236100                    LDQ     14,,PR0
         1 002417   400000 316007                    CANQ    -131072,DL
         1 002420   002425 600000 1                  TZE     s:6463

     1922     6447    3                 RECORD.KEY = VD_KEY_MN_EDITKEY;

PL6.E3A0      #003=VDI$BINSERT File=VDI$BLOCK.:VDA5TSI                           FRI 07/04/97 11:28 Page:261
   6447  1 002421   000100 100400                    MLR     fill='000'O
         1 002422   000000 000010 xsym               ADSC9   VD_KEY_MN_EDITKEY        cn=0,n=8
         1 002423   200025 000010                    ADSC9   RECORD,,AUTO             cn=0,n=8
         1 002424   002452 710000 1                  TRA     s:6467

     1923     6448    4              ELSE DO;

     1924     6449                      %COPYKEY (FKEY=DEST_STREAM.CURRENT.KEY, FINDX=DEST_LEVEL-1,
     1925     6450                      TKEY=RECORD.KEY);

   6463  1 002425   200020 235100                    LDA     DEST_LEVEL,,AUTO
         1 002426   000003 735000                    ALS     3
         1 002427   000100 100505                    MLR     fill='000'O
         1 002430   000004 000010                    ADSC9   4,A,PR0                  cn=0,n=8
         1 002431   200025 000010                    ADSC9   RECORD,,AUTO             cn=0,n=8

   6463  1 002432   200020 236100                    LDQ     DEST_LEVEL,,AUTO
         1 002433   000001 736000                    QLS     1
         1 002434   000004 720106                    LXL0    4,QL,PR0
         1 002435   000002 100003                    CMPX0   2,DU
         1 002436   002452 601000 1                  TNZ     s:6467

   6463  1 002437   000005 471506                    LDP1    5,QL,PR0
         1 002440   200026 633500                    EPPR3   RECORD+1,,AUTO
         1 002441   200175 453500                    STP3    OPEN_OPTIONS+6,,AUTO
         1 002442   200174 451500                    STP1    OPEN_OPTIONS+5,,AUTO
         1 002443   200174 630500                    EPPR0   OPEN_OPTIONS+5,,AUTO
         1 002444   000020 631400 xsym               EPPR1   B_VECTNIL+16
         1 002445   000000 701000 xent               TSX1    VDG$OCOPY
         1 002446   002450 702000 1                  TSX2    s:6464
         1 002447   002452 710000 1                  TRA     s:6467

   6464  1 002450   200110 221300                    LDX1  ! ERR_SUBST$+2,,AUTO
         1 002451   000000 702211                    TSX2  ! 0,X1

     1926     6466    4                 END;

PL6.E3A0      #003=VDI$BINSERT File=VDI$BLOCK.:VDA5TSI                           FRI 07/04/97 11:28 Page:262
     1927     6467    3              GENERATE_KEY = %SQ_NEXT; /* Always generate key */

   6467  1 002452   000003 235007                    LDA     3,DL
         1 002453   200042 755100                    STA     GENERATE_KEY,,AUTO

     1928     6468    3              END GIVEN_EOF;

   6468  1 002454   003006 710000 1                  TRA     s:6621

     1929     6469    2           ELSE
     1930     6470    3   GIVEN_NOT_EOF: DO;

   6470  1 002455                       GIVEN_NOT_E* null
     1931     6471    3              CALL VDA$LREAD (DEST_STREAM, DEST_RANGE.ENDD, 0, %READ_RECORD)

   6471  1 002455   000000 237000 2                  LDAQ    0
         1 002456   200176 757100                    STAQ    OPEN_OPTIONS+7,,AUTO
         1 002457   200005 236100                    LDQ     @DEST_RANGE,,AUTO
         1 002460   000011 036003                    ADLQ    9,DU
         1 002461   200006 235100                    LDA     @DEST_STREAM,,AUTO
         1 002462   200174 757100                    STAQ    OPEN_OPTIONS+5,,AUTO
         1 002463   200174 630500                    EPPR0   OPEN_OPTIONS+5,,AUTO
         1 002464   000022 631400 xsym               EPPR1   B_VECTNIL+18
         1 002465   000000 701000 xent               TSX1    VDA$LREAD
         1 002466   003157 702000 1                  TSX2    LREAD_FAILED

     1932     6472    3                ALTRET (LREAD_FAILED);
     1933     6473    3              CALL VDE$RGET (DEST_STREAM, DEST$EDIT_BLOCK.RANGE, RECORD)

   6473  1 002467   200025 630500                    EPPR0   RECORD,,AUTO
         1 002470   200176 450500                    STP0    OPEN_OPTIONS+7,,AUTO
         1 002471   200012 236100                    LDQ     DEST_EDIT_BLOCK$,,AUTO
         1 002472   000003 036003                    ADLQ    3,DU
         1 002473   200006 235100                    LDA     @DEST_STREAM,,AUTO
         1 002474   200174 757100                    STAQ    OPEN_OPTIONS+5,,AUTO
         1 002475   200174 630500                    EPPR0   OPEN_OPTIONS+5,,AUTO
         1 002476   000021 631400 xsym               EPPR1   B_VECTNIL+17
PL6.E3A0      #003=VDI$BINSERT File=VDI$BLOCK.:VDA5TSI                           FRI 07/04/97 11:28 Page:263
         1 002477   000000 701000 xent               TSX1    VDE$RGET
         1 002500   003157 702000 1                  TSX2    LREAD_FAILED

     1934     6474    3                ALTRET (RGET_FAILED);
     1935     6475                   %GETKEY (KEY=RECORD.KEY, PTR=RECORD_KEY$);

   6482  1 002501   200025 720100                    LXL0    RECORD,,AUTO
         1 002502   000002 100003                    CMPX0   2,DU
         1 002503   002510 601000 1                  TNZ     s:6482+7

   6482  1 002504   200026 236100                    LDQ     RECORD+1,,AUTO
         1 002505   000002 036003                    ADLQ    2,DU
         1 002506   200113 756100                    STQ     RECORD_KEY$,,AUTO
         1 002507   002512 710000 1                  TRA     s:6486

   6482  1 002510   200026 630500                    EPPR0   RECORD+1,,AUTO
         1 002511   200113 450500                    STP0    RECORD_KEY$,,AUTO

     1936     6485
     1937     6486    3              IF RECORD.KEY = %CLEAR     /* Rec beyond dest EditBlock, or EOF */

   6486  1 002512   000000 106500                    CMPC    fill='000'O
         1 002513   200025 000010                    ADSC9   RECORD,,AUTO             cn=0,n=8
         1 002514   000002 000002 xsym               ADSC9   B_VECTNIL+2              cn=0,n=2
         1 002515   002532 600000 1                  TZE     GIVEN_KEY_DOESNT_EXIST
         1 002516   200113 470500                    LDP0    RECORD_KEY$,,AUTO
         1 002517   000000 236100                    LDQ     0,,PR0
         1 002520   000033 772000                    QRL     27
         1 002521   000001 621006                    EAX1    1,QL
         1 002522   200111 471500                    LDP1    DEST_GIVEN_KEY$,,AUTO
         1 002523   100000 236100                    LDQ     0,,PR1
         1 002524   000033 772000                    QRL     27
         1 002525   000001 622006                    EAX2    1,QL
         1 002526   000140 106540                    CMPC    fill='000'O
         1 002527   000000 000011                    ADSC9   0,,PR0                   cn=0,n=*X1
         1 002530   100000 000012                    ADSC9   0,,PR1                   cn=0,n=*X2
         1 002531   002637 600000 1                  TZE     GIVEN_KEY_DOES_EXIST
PL6.E3A0      #003=VDI$BINSERT File=VDI$BLOCK.:VDA5TSI                           FRI 07/04/97 11:28 Page:264

     1938     6487    3                OR RECORD$KEY ~= DEST$GIVEN_KEY THEN
     1939     6488    4   GIVEN_KEY_DOESNT_EXIST: DO;

   6488  1 002532                       GIVEN_KEY_D* null
     1940     6489                      /* Given destination key doesn't exist */
     1941     6490    4                 DEST_EXISTS = %FALSE;

   6490  1 002532   200037 450100                    STZ     DEST_EXISTS,,AUTO

     1942     6491
     1943     6492                      /*
     1944     6493                      *  Record we got is actually destNext; return it in DEST_RIGHT$.
     1945     6494                      *  However, if the last source record includes EOR, then we
     1946     6495                      *     don't want to touch destNext--so free it and return
     1947     6496                      *     DEST_RIGHT$ as NIL.
     1948     6497                      */
     1949     6498                      %CLEARSPEC (SPEC=RECORD.SPEC);

   6505  1 002533   200027 721100                    LXL1    RECORD+2,,AUTO
         1 002534   000002 101003                    CMPX1   2,DU
         1 002535   002545 601000 1                  TNZ     s:6506+2

   6505  1 002536   200030 630500                    EPPR0   RECORD+3,,AUTO
         1 002537   000017 631400 xsym               EPPR1   B_VECTNIL+15
         1 002540   000000 701000 xent               TSX1    VDG$OFREE
         1 002541   002543 702000 1                  TSX2    s:6506
         1 002542   002545 710000 1                  TRA     s:6506+2

   6506  1 002543   200110 221300                    LDX1  ! ERR_SUBST$+2,,AUTO
         1 002544   000000 702211                    TSX2  ! 0,X1

   6506  1 002545   200027 450100                    STZ     RECORD+2,,AUTO
         1 002546   200030 450100                    STZ     RECORD+3,,AUTO

     1950     6508    4                 IF SRC_RANGE.ENDD.EOF OR SRC_RANGE.ENDD.POSITION# = 0 THEN

PL6.E3A0      #003=VDI$BINSERT File=VDI$BLOCK.:VDA5TSI                           FRI 07/04/97 11:28 Page:265
   6508  1 002547   200003 470500                    LDP0    @SRC_RANGE,,AUTO
         1 002550   000021 236100                    LDQ     17,,PR0
         1 002551   400000 316007                    CANQ    -131072,DL
         1 002552   002555 601000 1                  TNZ     s:6509
         1 002553   000021 220100                    LDX0    17,,PR0
         1 002554   002562 601000 1                  TNZ     s:6512

     1951     6509    4                    CALL VDG$OFREE (RECORD$DATA)

   6509  1 002555   200031 630500                    EPPR0   RECORD+4,,AUTO
         1 002556   000017 631400 xsym               EPPR1   B_VECTNIL+15
         1 002557   000000 701000 xent               TSX1    VDG$OFREE
         1 002560   003157 702000 1                  TSX2    LREAD_FAILED
         1 002561   002564 710000 1                  TRA     s:6513

     1952     6510    4                      ALTRET (OFREE_FAILED);
     1953     6511    4                 ELSE
     1954     6512    4                    DEST_RIGHT$ = RECORD.DATA$;

   6512  1 002562   200031 236100                    LDQ     RECORD+4,,AUTO
         1 002563   200036 756100                    STQ     DEST_RIGHT$,,AUTO

     1955     6513    4                 RECORD.DATA$ = ADDR(NIL);

   6513  1 002564   000001 236000 xsym               LDQ     B_VECTNIL+1
         1 002565   200031 756100                    STQ     RECORD+4,,AUTO

     1956     6514    4                 RECORD.EOR = %FALSE;

   6514  1 002566   000031 236000 xsym               LDQ     B_VECTNIL+25
         1 002567   200032 356100                    ANSQ    RECORD+5,,AUTO

     1957     6515
     1958     6516    4                 DEST_NEXT_KEY = RECORD.KEY;

   6516  1 002570   000100 100500                    MLR     fill='000'O
         1 002571   200025 000010                    ADSC9   RECORD,,AUTO             cn=0,n=8
PL6.E3A0      #003=VDI$BINSERT File=VDI$BLOCK.:VDA5TSI                           FRI 07/04/97 11:28 Page:266
         1 002572   200034 000010                    ADSC9   DEST_NEXT_KEY,,AUTO      cn=0,n=8

     1959     6517                      %COPYKEY (FKEY=DEST_RANGE.ENDD.KEY, FINDX=DEST_LEVEL-1,
     1960     6518                      TKEY=RECORD.KEY);

   6531  1 002573   200020 235100                    LDA     DEST_LEVEL,,AUTO
         1 002574   000003 735000                    ALS     3
         1 002575   200005 470500                    LDP0    @DEST_RANGE,,AUTO
         1 002576   000100 100505                    MLR     fill='000'O
         1 002577   000007 000010                    ADSC9   7,A,PR0                  cn=0,n=8
         1 002600   200025 000010                    ADSC9   RECORD,,AUTO             cn=0,n=8

   6531  1 002601   200020 235100                    LDA     DEST_LEVEL,,AUTO
         1 002602   000001 735000                    ALS     1
         1 002603   000007 720105                    LXL0    7,AL,PR0
         1 002604   000002 100003                    CMPX0   2,DU
         1 002605   002621 601000 1                  TNZ     s:6539

   6531  1 002606   000010 471505                    LDP1    8,AL,PR0
         1 002607   200026 633500                    EPPR3   RECORD+1,,AUTO
         1 002610   200175 453500                    STP3    OPEN_OPTIONS+6,,AUTO
         1 002611   200174 451500                    STP1    OPEN_OPTIONS+5,,AUTO
         1 002612   200174 630500                    EPPR0   OPEN_OPTIONS+5,,AUTO
         1 002613   000020 631400 xsym               EPPR1   B_VECTNIL+16
         1 002614   000000 701000 xent               TSX1    VDG$OCOPY
         1 002615   002617 702000 1                  TSX2    s:6532
         1 002616   002621 710000 1                  TRA     s:6539

   6532  1 002617   200110 221300                    LDX1  ! ERR_SUBST$+2,,AUTO
         1 002620   000000 702211                    TSX2  ! 0,X1

     1961     6534
     1962     6535                      /*
     1963     6536                      *  If starting position is not BOR, we must pad the record
     1964     6537                      *  with the fill character up to the starting position.
     1965     6538                      */
     1966     6539    4                 DEST_LEFT_LENGTH = DEST_RANGE.ENDD.POSITION#;
PL6.E3A0      #003=VDI$BINSERT File=VDI$BLOCK.:VDA5TSI                           FRI 07/04/97 11:28 Page:267

   6539  1 002621   200005 470500                    LDP0    @DEST_RANGE,,AUTO
         1 002622   000021 236100                    LDQ     17,,PR0
         1 002623   000022 732000                    QRS     18
         1 002624   200033 756100                    STQ     DEST_LEFT_LENGTH,,AUTO

     1967     6540    5                 IF DEST_LEFT_LENGTH > 0 THEN DO;

   6540  1 002625   003006 604400 1                  TMOZ    s:6621

     1968     6541    5                    CALL VDE$RADJUST_LENGTH (RECORD, DEST_LEFT_LENGTH)

   6541  1 002626   200033 631500                    EPPR1   DEST_LEFT_LENGTH,,AUTO
         1 002627   200175 451500                    STP1    OPEN_OPTIONS+6,,AUTO
         1 002630   200025 633500                    EPPR3   RECORD,,AUTO
         1 002631   200174 453500                    STP3    OPEN_OPTIONS+5,,AUTO
         1 002632   200174 630500                    EPPR0   OPEN_OPTIONS+5,,AUTO
         1 002633   000020 631400 xsym               EPPR1   B_VECTNIL+16
         1 002634   000000 701000 xent               TSX1    VDE$RADJUST_LENGTH
         1 002635   003157 702000 1                  TSX2    LREAD_FAILED

     1969     6542    5                      ALTRET (RADJUST_LENGTH_FAILED);
     1970     6543    5                    END;

     1971     6544    4                 END GIVEN_KEY_DOESNT_EXIST;

   6544  1 002636   003006 710000 1                  TRA     s:6621

     1972     6545    3              ELSE
     1973     6546    4   GIVEN_KEY_DOES_EXIST: DO;

   6546  1 002637                       GIVEN_KEY_D* null
     1974     6547                      /* Given destination key does exist */
     1975     6548    4                 DEST_EXISTS = %TRUE;

   6548  1 002637   400000 236003                    LDQ     -131072,DU
         1 002640   200037 756100                    STQ     DEST_EXISTS,,AUTO
PL6.E3A0      #003=VDI$BINSERT File=VDI$BLOCK.:VDA5TSI                           FRI 07/04/97 11:28 Page:268

     1976     6549
     1977     6550                      /*
     1978     6551                      *   Split RECORD.DATA$ into destLeft and destRight.
     1979     6552                      *   However, if this is a "genkey" case and the last source
     1980     6553                      *     record includes EOR, then we don't want to touch the
     1981     6554                      *     destRight in the file (and there is no destLeft).
     1982     6555                      *     So in this case, free the record just read and return
     1983     6556                      *     DEST_RIGHT$ = NIL.
     1984     6557                      */
     1985     6558    4                 DEST_LEFT_LENGTH = DEST_RANGE.ENDD.POSITION#;

   6558  1 002641   200005 473500                    LDP3    @DEST_RANGE,,AUTO
         1 002642   300021 236100                    LDQ     17,,PR3
         1 002643   000022 732000                    QRS     18
         1 002644   200033 756100                    STQ     DEST_LEFT_LENGTH,,AUTO

     1986     6559
     1987     6560    4                 DEST_EOR = RECORD.EOR;

   6560  1 002645   200032 236100                    LDQ     RECORD+5,,AUTO
         1 002646   400000 376003                    ANQ     -131072,DU
         1 002647   200040 756100                    STQ     DEST_EOR,,AUTO

     1988     6561    4                 IF DEST_LEFT_LENGTH = 0

   6561  1 002650   200033 235100                    LDA     DEST_LEFT_LENGTH,,AUTO
         1 002651   002662 601000 1                  TNZ     s:6568
         1 002652   200003 474500                    LDP4    @SRC_RANGE,,AUTO
         1 002653   400021 221100                    LDX1    17,,PR4
         1 002654   002662 601000 1                  TNZ     s:6568
         1 002655   200026 236100                    LDQ     RECORD+1,,AUTO
         1 002656   000001 116000 xsym               CMPQ    VD_KEY_MN_EDITKEY+1
         1 002657   002662 600000 1                  TZE     s:6568

     1989     6562    4                   AND SRC_RANGE.ENDD.POSITION# = 0
     1990     6563    4                   AND ADDR(RECORD.KEY.V$) -> VD$TEXTC_NUMBER ~=
PL6.E3A0      #003=VDI$BINSERT File=VDI$BLOCK.:VDA5TSI                           FRI 07/04/97 11:28 Page:269
     1991     6564    5                   ADDR(VD_KEY_MN_EDITKEY.LENGTH#) -> VD$TEXTC_NUMBER THEN DO;

     1992     6565    5                    DEST_RIGHT_LENGTH = 0;

   6565  1 002660   200114 450100                    STZ     DEST_RIGHT_LENGTH,,AUTO

     1993     6566    5                    END;

   6566  1 002661   002734 710000 1                  TRA     s:6582

     1994     6567    5                 ELSE DO;

     1995     6568    5                    DEST_RIGHT_LENGTH = MAXIMUM (0, RECORD$DATA.LENGTH# -

   6568  1 002662   200031 474500                    LDP4    RECORD+4,,AUTO
         1 002663   400002 236100                    LDQ     2,,PR4
         1 002664   000022 732000                    QRS     18
         1 002665   200033 136100                    SBLQ    DEST_LEFT_LENGTH,,AUTO
         1 002666   000000 116003                    CMPQ    0,DU
         1 002667   002671 605000 1                  TPL     s:6568+7
         1 002670   000000 236003                    LDQ     0,DU
         1 002671   200114 756100                    STQ     DEST_RIGHT_LENGTH,,AUTO

     1996     6569    5                      DEST_LEFT_LENGTH);
     1997     6570    5                    IF DEST_RIGHT_LENGTH = 0 AND MY_EOF_DELETED THEN EXIT;

   6570  1 002672   000000 116003                    CMPQ    0,DU
         1 002673   002676 601000 1                  TNZ     s:6571
         1 002674   200043 235100                    LDA     MY_EOF_DELETED,,AUTO
         1 002675   002734 601000 1                  TNZ     s:6582

     1998     6571    5                    ALLOC_WDS = (LENGTHC(VD$BUFFER_HEADER) + DEST_RIGHT_LENGTH +

   6571  1 002676   000015 036007                    ADLQ    13,DL
         1 002677   000004 506007                    DIV     4,DL
         1 002700   200115 756100                    STQ     ALLOC_WDS,,AUTO

PL6.E3A0      #003=VDI$BINSERT File=VDI$BLOCK.:VDA5TSI                           FRI 07/04/97 11:28 Page:270
     1999     6572    5                      %NB_PER_WORD - 1) / %NB_PER_WORD;
     2000     6573    5                    CALL VDG$OALLOC (%CLS_BUFFER, DEST_RIGHT$, ALLOC_WDS)

   6573  1 002701   200115 635500                    EPPR5   ALLOC_WDS,,AUTO
         1 002702   200176 455500                    STP5    OPEN_OPTIONS+7,,AUTO
         1 002703   200036 636500                    EPPR6   DEST_RIGHT$,,AUTO
         1 002704   200175 456500                    STP6    OPEN_OPTIONS+6,,AUTO
         1 002705   000016 236000 2                  LDQ     14
         1 002706   200174 756100                    STQ     OPEN_OPTIONS+5,,AUTO
         1 002707   200174 630500                    EPPR0   OPEN_OPTIONS+5,,AUTO
         1 002710   000021 631400 xsym               EPPR1   B_VECTNIL+17
         1 002711   000000 701000 xent               TSX1    VDG$OALLOC
         1 002712   003157 702000 1                  TSX2    LREAD_FAILED

     2001     6574    5                      ALTRET (OALLOC_FAILED);
     2002     6575    5                    DEST$RIGHT.LENGTH# = DEST_RIGHT_LENGTH;

   6575  1 002713   200114 720100                    LXL0    DEST_RIGHT_LENGTH,,AUTO
         1 002714   200036 470500                    LDP0    DEST_RIGHT$,,AUTO
         1 002715   000002 740100                    STX0    2,,PR0

     2003     6576    6                    IF DEST_RIGHT_LENGTH > 0 THEN DO;

   6576  1 002716   200114 235100                    LDA     DEST_RIGHT_LENGTH,,AUTO
         1 002717   002734 604400 1                  TMOZ    s:6582

     2004     6577    6                       DEST$RIGHT.BYTES = SUBSTR(RECORD$DATA.BYTES,

   6577  1 002720   200036 470500                    LDP0    DEST_RIGHT$,,AUTO
         1 002721   000002 221100                    LDX1    2,,PR0
         1 002722   200031 471500                    LDP1    RECORD+4,,AUTO
         1 002723   100002 222100                    LDX2    2,,PR1
         1 002724   000000 636012                    EAQ     0,X2
         1 002725   000022 732000                    QRS     18
         1 002726   200033 136100                    SBLQ    DEST_LEFT_LENGTH,,AUTO
         1 002727   000000 623006                    EAX3    0,QL
         1 002730   200033 236100                    LDQ     DEST_LEFT_LENGTH,,AUTO
PL6.E3A0      #003=VDI$BINSERT File=VDI$BLOCK.:VDA5TSI                           FRI 07/04/97 11:28 Page:271
         1 002731   040140 100546                    MLR     fill='040'O
         1 002732   100002 400013                    ADSC9   2,Q,PR1                  cn=2,n=*X3
         1 002733   000002 400011                    ADSC9   2,,PR0                   cn=2,n=*X1

     2005     6578    6                         DEST_LEFT_LENGTH);
     2006     6579    6                       END;

     2007     6580    5                    END;

     2008     6581
     2009     6582    4                 CALL VDE$RADJUST_LENGTH (RECORD, DEST_LEFT_LENGTH)

   6582  1 002734   200033 630500                    EPPR0   DEST_LEFT_LENGTH,,AUTO
         1 002735   200175 450500                    STP0    OPEN_OPTIONS+6,,AUTO
         1 002736   200025 631500                    EPPR1   RECORD,,AUTO
         1 002737   200174 451500                    STP1    OPEN_OPTIONS+5,,AUTO
         1 002740   200174 630500                    EPPR0   OPEN_OPTIONS+5,,AUTO
         1 002741   000020 631400 xsym               EPPR1   B_VECTNIL+16
         1 002742   000000 701000 xent               TSX1    VDE$RADJUST_LENGTH
         1 002743   003157 702000 1                  TSX2    LREAD_FAILED

     2010     6583    4                   ALTRET (RADJUST_LENGTH_FAILED);
     2011     6584
     2012     6585                      /* Get destNext key */
     2013     6586    4                 CALL VDA$LREAD (DEST_STREAM, , 1, %DONT_READ_RECORD)

   6586  1 002744   000020 237000 2                  LDAQ    16
         1 002745   200176 757100                    STAQ    OPEN_OPTIONS+7,,AUTO
         1 002746   000001 236000 xsym               LDQ     B_VECTNIL+1
         1 002747   200006 235100                    LDA     @DEST_STREAM,,AUTO
         1 002750   200174 757100                    STAQ    OPEN_OPTIONS+5,,AUTO
         1 002751   200174 630500                    EPPR0   OPEN_OPTIONS+5,,AUTO
         1 002752   000022 631400 xsym               EPPR1   B_VECTNIL+18
         1 002753   000000 701000 xent               TSX1    VDA$LREAD
         1 002754   003157 702000 1                  TSX2    LREAD_FAILED

     2014     6587    4                   ALTRET (LREAD_FAILED);
PL6.E3A0      #003=VDI$BINSERT File=VDI$BLOCK.:VDA5TSI                           FRI 07/04/97 11:28 Page:272
     2015     6588    5                 IF NOT DEST_STREAM.CURRENT.EOF THEN DO;

   6588  1 002755   200006 470500                    LDP0    @DEST_STREAM,,AUTO
         1 002756   000016 236100                    LDQ     14,,PR0
         1 002757   400000 316007                    CANQ    -131072,DL
         1 002760   003006 601000 1                  TNZ     s:6621

     2016     6589                         %COPYKEY (FKEY=DEST_STREAM.CURRENT.KEY, FINDX=DEST_LEVEL-1,
     2017     6590                         TKEY=DEST_NEXT_KEY);

   6603  1 002761   200020 235100                    LDA     DEST_LEVEL,,AUTO
         1 002762   000003 735000                    ALS     3
         1 002763   000100 100505                    MLR     fill='000'O
         1 002764   000004 000010                    ADSC9   4,A,PR0                  cn=0,n=8
         1 002765   200034 000010                    ADSC9   DEST_NEXT_KEY,,AUTO      cn=0,n=8

   6603  1 002766   200020 236100                    LDQ     DEST_LEVEL,,AUTO
         1 002767   000001 736000                    QLS     1
         1 002770   000004 720106                    LXL0    4,QL,PR0
         1 002771   000002 100003                    CMPX0   2,DU
         1 002772   003006 601000 1                  TNZ     s:6621

   6603  1 002773   000005 471506                    LDP1    5,QL,PR0
         1 002774   200035 633500                    EPPR3   DEST_NEXT_KEY+1,,AUTO
         1 002775   200175 453500                    STP3    OPEN_OPTIONS+6,,AUTO
         1 002776   200174 451500                    STP1    OPEN_OPTIONS+5,,AUTO
         1 002777   200174 630500                    EPPR0   OPEN_OPTIONS+5,,AUTO
         1 003000   000020 631400 xsym               EPPR1   B_VECTNIL+16
         1 003001   000000 701000 xent               TSX1    VDG$OCOPY
         1 003002   003004 702000 1                  TSX2    s:6604
         1 003003   003006 710000 1                  TRA     s:6621

   6604  1 003004   200110 221300                    LDX1  ! ERR_SUBST$+2,,AUTO
         1 003005   000000 702211                    TSX2  ! 0,X1

     2018     6606    5                    END;

PL6.E3A0      #003=VDI$BINSERT File=VDI$BLOCK.:VDA5TSI                           FRI 07/04/97 11:28 Page:273
     2019     6607    4                 END GIVEN_KEY_DOES_EXIST;

     2020     6608    3              END GIVEN_NOT_EOF;

     2021     6609
     2022     6610                /*
     2023     6611                *   At this point:
     2024     6612                *       RECORD.KEY = key to either write 1st record to, or on which to
     2025     6613                *           base key generation on 1st write.
     2026     6614                *       DEST_NEXT_KEY = next existing key after RECORD.KEY.
     2027     6615                *           !! May be %CLEAR at this point, indicating EOF !!
     2028     6616                *       RECORD.DATA, DEST_RIGHT set up appropriately.
     2029     6617                *       GENERATE_KEY = %SQ_CURRENT normally, unless we've already
     2030     6618                *           determined we must generate a key.
     2031     6619                */
     2032     6620
     2033     6621    3           IF DEST_NEXT_KEY = %CLEAR THEN DO;

   6621  1 003006   200034 237100                    LDAQ    DEST_NEXT_KEY,,AUTO
         1 003007   000002 117000 2                  CMPAQ   2
         1 003010   003046 601000 1                  TNZ     s:6656

     2034     6622    3              IF DEST$EDIT_BLOCK.RANGE.ENDD.EOF THEN

   6622  1 003011   200012 470500                    LDP0    DEST_EDIT_BLOCK$,,AUTO
         1 003012   000024 236100                    LDQ     20,,PR0
         1 003013   400000 316007                    CANQ    -131072,DL
         1 003014   003021 600000 1                  TZE     s:6639

     2035     6623    3                 DEST_NEXT_KEY = VD_KEY_MX_EDITKEY;

   6623  1 003015   000100 100400                    MLR     fill='000'O
         1 003016   000000 000010 xsym               ADSC9   VD_KEY_MX_EDITKEY        cn=0,n=8
         1 003017   200034 000010                    ADSC9   DEST_NEXT_KEY,,AUTO      cn=0,n=8
         1 003020   003046 710000 1                  TRA     s:6656

     2036     6624    4              ELSE DO;
PL6.E3A0      #003=VDI$BINSERT File=VDI$BLOCK.:VDA5TSI                           FRI 07/04/97 11:28 Page:274

     2037     6625                      %COPYKEY (FKEY=DEST$EDIT_BLOCK.RANGE.ENDD.KEY, FINDX=DEST_LEVEL-1,
     2038     6626                      TKEY=DEST_NEXT_KEY);

   6639  1 003021   200020 235100                    LDA     DEST_LEVEL,,AUTO
         1 003022   000003 735000                    ALS     3
         1 003023   000100 100505                    MLR     fill='000'O
         1 003024   000012 000010                    ADSC9   10,A,PR0                 cn=0,n=8
         1 003025   200034 000010                    ADSC9   DEST_NEXT_KEY,,AUTO      cn=0,n=8

   6639  1 003026   200020 236100                    LDQ     DEST_LEVEL,,AUTO
         1 003027   000001 736000                    QLS     1
         1 003030   000012 720106                    LXL0    10,QL,PR0
         1 003031   000002 100003                    CMPX0   2,DU
         1 003032   003046 601000 1                  TNZ     s:6656

   6639  1 003033   000013 471506                    LDP1    11,QL,PR0
         1 003034   200035 633500                    EPPR3   DEST_NEXT_KEY+1,,AUTO
         1 003035   200175 453500                    STP3    OPEN_OPTIONS+6,,AUTO
         1 003036   200174 451500                    STP1    OPEN_OPTIONS+5,,AUTO
         1 003037   200174 630500                    EPPR0   OPEN_OPTIONS+5,,AUTO
         1 003040   000020 631400 xsym               EPPR1   B_VECTNIL+16
         1 003041   000000 701000 xent               TSX1    VDG$OCOPY
         1 003042   003044 702000 1                  TSX2    s:6640
         1 003043   003046 710000 1                  TRA     s:6656

   6640  1 003044   200110 221300                    LDX1  ! ERR_SUBST$+2,,AUTO
         1 003045   000000 702211                    TSX2  ! 0,X1

     2039     6642    4                 END;

     2040     6643    3              END;

     2041     6644
     2042     6645                /*
     2043     6646                *   Final adjustments to RECORD.KEY and GENERATE_KEY:
     2044     6647                *   If DEST_EXISTS  !AND!  dest location is BOR  !AND! the
PL6.E3A0      #003=VDI$BINSERT File=VDI$BLOCK.:VDA5TSI                           FRI 07/04/97 11:28 Page:275
     2045     6648                *       first source record does include EOR, then we must back up
     2046     6649                *       RECORD.KEY to the existing key in front of the given dest key,
     2047     6650                *       and set GENERATE_KEY to %SQ_NEXT.
     2048     6651                *       Also, change DEST_NEXT_KEY to be the original RECORD.KEY (the
     2049     6652                *       one that DEST_EXISTS says exists).  Then clear DEST_EXISTS
     2050     6653                *       to make it accurate again, since "DEST" is now empty space.
     2051     6654                */
     2052     6655
     2053     6656    2           IF DEST_EXISTS AND DEST_LEFT_LENGTH = 0

   6656  1 003046   200037 234100                    SZN     DEST_EXISTS,,AUTO
         1 003047   003155 605000 1                  TPL     s:6703
         1 003050   200033 235100                    LDA     DEST_LEFT_LENGTH,,AUTO
         1 003051   003155 601000 1                  TNZ     s:6703
         1 003052   200026 236100                    LDQ     RECORD+1,,AUTO
         1 003053   000001 116000 xsym               CMPQ    VD_KEY_MN_EDITKEY+1
         1 003054   003155 600000 1                  TZE     s:6703
         1 003055   200053 234100                    SZN     FIRST_SRC_RECORD+5,,AUTO
         1 003056   003155 605000 1                  TPL     s:6703

     2054     6657    2             AND ADDR(RECORD.KEY.V$) -> VD$TEXTC_NUMBER ~=
     2055     6658    2             ADDR(VD_KEY_MN_EDITKEY.LENGTH#) -> VD$TEXTC_NUMBER
     2056     6659    3             AND FIRST_SRC_RECORD.EOR THEN DO;

     2057     6660    3              GENERATE_KEY = %SQ_NEXT;

   6660  1 003057   000003 235007                    LDA     3,DL
         1 003060   200042 755100                    STA     GENERATE_KEY,,AUTO

     2058     6661                   %CLEARKEY (KEY=DEST_NEXT_KEY);

   6668  1 003061   200034 720100                    LXL0    DEST_NEXT_KEY,,AUTO
         1 003062   000002 100003                    CMPX0   2,DU
         1 003063   003073 601000 1                  TNZ     s:6669+2

   6668  1 003064   200035 630500                    EPPR0   DEST_NEXT_KEY+1,,AUTO
         1 003065   000017 631400 xsym               EPPR1   B_VECTNIL+15
PL6.E3A0      #003=VDI$BINSERT File=VDI$BLOCK.:VDA5TSI                           FRI 07/04/97 11:28 Page:276
         1 003066   000000 701000 xent               TSX1    VDG$OFREE
         1 003067   003071 702000 1                  TSX2    s:6669
         1 003070   003073 710000 1                  TRA     s:6669+2

   6669  1 003071   200110 221300                    LDX1  ! ERR_SUBST$+2,,AUTO
         1 003072   000000 702211                    TSX2  ! 0,X1

   6669  1 003073   000000 235003                    LDA     0,DU
         1 003074   000000 236003                    LDQ     0,DU
         1 003075   200034 757100                    STAQ    DEST_NEXT_KEY,,AUTO

     2059     6671    3              DEST_NEXT_KEY = RECORD.KEY;  /* Used when generating key */

   6671  1 003076   000100 100500                    MLR     fill='000'O
         1 003077   200025 000010                    ADSC9   RECORD,,AUTO             cn=0,n=8
         1 003100   200034 000010                    ADSC9   DEST_NEXT_KEY,,AUTO      cn=0,n=8

     2060     6672    3              RECORD.KEY = %CLEAR;

   6672  1 003101   200025 450100                    STZ     RECORD,,AUTO
         1 003102   200026 450100                    STZ     RECORD+1,,AUTO

     2061     6673                   /* Back up */
     2062     6674    3              CALL VDA$LREAD (DEST_STREAM, DEST_RANGE.ENDD, -1, %DONT_READ_RECORD)

   6674  1 003103   000004 237000 2                  LDAQ    4
         1 003104   200176 757100                    STAQ    OPEN_OPTIONS+7,,AUTO
         1 003105   200005 236100                    LDQ     @DEST_RANGE,,AUTO
         1 003106   000011 036003                    ADLQ    9,DU
         1 003107   200006 235100                    LDA     @DEST_STREAM,,AUTO
         1 003110   200174 757100                    STAQ    OPEN_OPTIONS+5,,AUTO
         1 003111   200174 630500                    EPPR0   OPEN_OPTIONS+5,,AUTO
         1 003112   000022 631400 xsym               EPPR1   B_VECTNIL+18
         1 003113   000000 701000 xent               TSX1    VDA$LREAD
         1 003114   003157 702000 1                  TSX2    LREAD_FAILED

     2063     6675    3                ALTRET (LREAD_FAILED);
PL6.E3A0      #003=VDI$BINSERT File=VDI$BLOCK.:VDA5TSI                           FRI 07/04/97 11:28 Page:277
     2064     6676    3              DEST_EXISTS = %FALSE;

   6676  1 003115   200037 450100                    STZ     DEST_EXISTS,,AUTO

     2065     6677    3              IF DEST_STREAM.CURRENT.KEY.V$(DEST_LEVEL-1) >= DEST_NEXT_KEY.V$

   6677  1 003116   200020 235100                    LDA     DEST_LEVEL,,AUTO
         1 003117   000001 735000                    ALS     1
         1 003120   200006 470500                    LDP0    @DEST_STREAM,,AUTO
         1 003121   000005 236105                    LDQ     5,AL,PR0
         1 003122   200035 116100                    CMPQ    DEST_NEXT_KEY+1,,AUTO
         1 003123   003130 602000 1                  TNC     s:6697

     2066     6678    4              THEN DO;

     2067     6679                      /* Hit BOF:  Use MIN_EDITKEY */
     2068     6680    4                 RECORD.KEY = VD_KEY_MN_EDITKEY;

   6680  1 003124   000100 100400                    MLR     fill='000'O
         1 003125   000000 000010 xsym               ADSC9   VD_KEY_MN_EDITKEY        cn=0,n=8
         1 003126   200025 000010                    ADSC9   RECORD,,AUTO             cn=0,n=8

     2069     6681    4                 END;

   6681  1 003127   003155 710000 1                  TRA     s:6703

     2070     6682    4              ELSE DO;

     2071     6683                      %COPYKEY (FKEY=DEST_STREAM.CURRENT.KEY, FINDX=DEST_LEVEL-1,
     2072     6684                      TKEY=RECORD.KEY);

   6697  1 003130   200020 235100                    LDA     DEST_LEVEL,,AUTO
         1 003131   000003 735000                    ALS     3
         1 003132   000100 100505                    MLR     fill='000'O
         1 003133   000004 000010                    ADSC9   4,A,PR0                  cn=0,n=8
         1 003134   200025 000010                    ADSC9   RECORD,,AUTO             cn=0,n=8

PL6.E3A0      #003=VDI$BINSERT File=VDI$BLOCK.:VDA5TSI                           FRI 07/04/97 11:28 Page:278
   6697  1 003135   200020 236100                    LDQ     DEST_LEVEL,,AUTO
         1 003136   000001 736000                    QLS     1
         1 003137   000004 720106                    LXL0    4,QL,PR0
         1 003140   000002 100003                    CMPX0   2,DU
         1 003141   003155 601000 1                  TNZ     s:6703

   6697  1 003142   000005 471506                    LDP1    5,QL,PR0
         1 003143   200026 633500                    EPPR3   RECORD+1,,AUTO
         1 003144   200175 453500                    STP3    OPEN_OPTIONS+6,,AUTO
         1 003145   200174 451500                    STP1    OPEN_OPTIONS+5,,AUTO
         1 003146   200174 630500                    EPPR0   OPEN_OPTIONS+5,,AUTO
         1 003147   000020 631400 xsym               EPPR1   B_VECTNIL+16
         1 003150   000000 701000 xent               TSX1    VDG$OCOPY
         1 003151   003153 702000 1                  TSX2    s:6698
         1 003152   003155 710000 1                  TRA     s:6703

   6698  1 003153   200110 221300                    LDX1  ! ERR_SUBST$+2,,AUTO
         1 003154   000000 702211                    TSX2  ! 0,X1

     2073     6700    4                 END;

     2074     6701    3              END;

     2075     6702
     2076     6703    2           RETURN;

   6703  1 003155   200110 221300                    LDX1  ! ERR_SUBST$+2,,AUTO
         1 003156   000001 702211                    TSX2  ! 1,X1

   6703  1 003157                       LREAD_FAILED null
   6703  1 003157                       RGET_FAILED  null
   6703  1 003157                       OALLOC_FAIL* null
   6703  1 003157                       OFREE_FAILED null
   6703  1 003157                       RADJUST_LEN* null
     2077     6704
     2078     6705
     2079     6706    2   LREAD_FAILED: ;
PL6.E3A0      #003=VDI$BINSERT File=VDI$BLOCK.:VDA5TSI                           FRI 07/04/97 11:28 Page:279
     2080     6707    2   RGET_FAILED: ;
     2081     6708    2   OALLOC_FAILED: ;
     2082     6709    2   OFREE_FAILED: ;
     2083     6710    2   RADJUST_LENGTH_FAILED: ;
     2084     6711    2           ALTRETURN;

   6711  1 003157   200110 221300                    LDX1  ! ERR_SUBST$+2,,AUTO
         1 003160   000000 702211                    TSX2  ! 0,X1

     2085     6712
     2086     6713    2   END PREPARE_DESTINATION;
     2087     6714
     2088     6715        %BOX (TITLE=ABORT_INSERTION, PAGE=YES);
              6723    2
              6727    2   /***************************************************************************
              6729    2    *                                                                         *
              6733    2            *                              ABORT_INSERTION                           *
              6735    2            *                                                                        *
              6737    2          ***************************************************************************/

     2089     6741
     2090     6742        /*I* NAME: ABORT_INSERTION
     2091     6743            PARAMETERS:
     2092     6744                None.
     2093     6745            INPUT:
     2094     6746                FIRST_SRC_RECORD.EOR must be set if the first source record had an EOR;
     2095     6747                    reset otherwise or if we haven't read the first src record yet.
     2096     6748                DEST_EXISTS must be set if the given destination key exists in the file.
     2097     6749                DEST_RANGE_TYPE must contain a %BDT_ code indicating the configuration
     2098     6750                    of the given destination range.
     2099     6751                LAST_COPIED_KEY - Key of last source record which was successfully
     2100     6752                    copied to the destination range.  %CLEAR if no records yet copied.
     2101     6753                LAST_WRITTEN_KEY - Key of the last record successfully inserted into the
     2102     6754                    destination range.  This is the key with which the LAST_COPIED_KEY
     2103     6755                    record was written to the destination range.
     2104     6756                DEST_RIGHT$ - Ptr to VD$BUFFER containing the destRight record, if any.
     2105     6757                RECORD - If DEST_RIGHT$ is NIL and we should have had a destRight,
PL6.E3A0      #003=VDI$BINSERT File=VDI$BLOCK.:VDA5TSI                           FRI 07/04/97 11:28 Page:280
     2106     6758                    then RECORD contains the destRight record (this happens if we get
     2107     6759                    an error while trying to actually write the destRight record to
     2108     6760                    the file).
     2109     6761                DEST_NEXT_KEY - Key of the next existing record after the destination
     2110     6762                    point.  If no records after destination point, DEST_NEXT_KEY
     2111     6763                    is key from DEST$EDIT_BLOCK.RANGE.ENDD.
     2112     6764            OUTPUT:
     2113     6765            DESCRIPTION:
     2114     6766                If we wrote any records to the destination, write an informational
     2115     6767                    message telling the user the src and dest keys of the last record
     2116     6768                    successfully copied.
     2117     6769                Set $LEFTOVER to the destRight data, if appropriate.
     2118     6770                    This data should have been inserted into the file, but couldn't
     2119     6771                    be inserted due to a cutoff or some other non-fatal error.
     2120     6772                    Under certain conditions, the original copy of destRight
     2121     6773                    in the destination file has been overwritten by now; in this case,
     2122     6774                    DEST_RIGHT$/RECORD.DATA$ should be saved for the user, since
     2123     6775                    otherwise the data would be lost.
     2124     6776                    The "certain conditions" are:
     2125     6777                        Given destination is nonBOR
     2126     6778                        AND  given destination exists
     2127     6779                        AND  1st/only source record did have an EOR.
     2128     6780                If destRight has been overwritten, but hasn't yet been rewritten in
     2129     6781                    its new location, save it in $LEFTOVER.
     2130     6782                If there was some part of SRC_RANGE which hasn't been copied yet,
     2131     6783                    set $NOT_COPIED to specify the uncopied data.  There are two cases:
     2132     6784                    1. LAST_COPIED_KEY = %CLEAR:  Nothing was copied; or
     2133     6785                    2. LAST_COPIED_KEY ~= %CLEAR:  srcFirst, and possibly some other
     2134     6786                        whole records from the source block, were copied successfully.
     2135     6787                        The not-yet-copied portion will always start on a record
     2136     6788                        boundary (tho it may not end on one).  Read forward from the
     2137     6789                        LAST_COPIED_KEY to find the beginning of the uncopied part
     2138     6790                        of the source block.
     2139     6791                Adjust SRC_RANGE to describe whatever part of the source block was
     2140     6792                    successfully copied.
     2141     6793                Adjust DEST_RANGE.ENDD to describe the data that was successfully
     2142     6794                    inserted in its new location in the destination.
PL6.E3A0      #003=VDI$BINSERT File=VDI$BLOCK.:VDA5TSI                           FRI 07/04/97 11:28 Page:281
     2143     6795                    (DEST_RANGE.START has already been set to the start of the inserted
     2144     6796                    data).
     2145     6797        */
     2146     6798
     2147     6799    1   ABORT_INSERTION: PROC ALTRET;

   6799  1 003161   200110 741300       ABORT_INSER* STX1  ! ERR_SUBST$+2,,AUTO

     2148     6800
     2149     6801        %VD$LOCATION (NAME=SRC_LOC, STCLASS=AUTO);
     2150     6829        %VD$RANGE (NAME=NOT_COPIED_RANGE, STCLASS=AUTO);
     2151     6898    2   DCL INDX UBIN;
     2152     6899    2   DCL STREAM_KEY$ PTR;
     2153     6900    2   DCL RANGE_ENDD_KEY$ PTR;
     2154     6901
     2155     6902
     2156     6903        %VD$TEXTC (NAME=STREAM$KEY, STCLASS="BASED(STREAM_KEY$)");
     2157     6926        %VD$TEXTC (NAME=RANGE$ENDD_KEY, STCLASS="BASED(RANGE_ENDD_KEY$)");
     2158     6949        %VD$BUFFER;
     2159     7007        %VD$KEY;
     2160     7021
     2161     7022
     2162     7023
     2163     7024    3           IF LAST_COPIED_KEY ~= %CLEAR THEN DO;

   7024  1 003162   200056 237100                    LDAQ    LAST_COPIED_KEY,,AUTO
         1 003163   000002 117000 2                  CMPAQ   2
         1 003164   003332 600000 1                  TZE     s:7086

     2164     7025    3              CALL VDG$OALLOC (%CLS_ERR, VD_ERR$)

   7025  1 003165   200105 630500                    EPPR0   VD_ERR$,,AUTO
         1 003166   200175 450500                    STP0    OPEN_OPTIONS+6,,AUTO
         1 003167   000022 236000 2                  LDQ     18
         1 003170   200174 756100                    STQ     OPEN_OPTIONS+5,,AUTO
         1 003171   200174 630500                    EPPR0   OPEN_OPTIONS+5,,AUTO
         1 003172   000020 631400 xsym               EPPR1   B_VECTNIL+16
PL6.E3A0      #003=VDI$BINSERT File=VDI$BLOCK.:VDA5TSI                           FRI 07/04/97 11:28 Page:282
         1 003173   000000 701000 xent               TSX1    VDG$OALLOC
         1 003174   003705 702000 1                  TSX2    ALLOC_FAILED

     2165     7026    3                ALTRET (ALLOC_FAILED);
     2166     7027    3              VD$ERR.ERR.CODE# = %E$INFO_LAST_RECORD_COPIED;

   7027  1 003175   200105 470500                    LDP0    VD_ERR$,,AUTO
         1 003176   000002 236100                    LDQ     2,,PR0
         1 003177   000023 376000 2                  ANQ     19
         1 003200   002330 276007                    ORQ     1240,DL
         1 003201   000002 756100                    STQ     2,,PR0

     2167     7028    3              VD$ERR.FLAGLEV# = %FLV_INFO;

   7028  1 003202   000001 220003                    LDX0    1,DU
         1 003203   200105 470500                    LDP0    VD_ERR$,,AUTO
         1 003204   000003 740100                    STX0    3,,PR0

     2168     7029    3              ERR_SUBST$ = PINCRW(VD_ERR$, SIZEW(VD$ERR));

   7029  1 003205   200105 236100                    LDQ     VD_ERR$,,AUTO
         1 003206   000005 036003                    ADLQ    5,DU
         1 003207   200106 756100                    STQ     ERR_SUBST$,,AUTO

     2169     7030
     2170     7031                   /* Allocate a buffer to hold 2 keys for errmsg substitution */
     2171     7032    3              INDX = 0;

   7032  1 003210   200144 450100                    STZ     INDX,,AUTO

     2172     7033    4              DO WHILE INDX < %MX_CMD_OBJECTS

   7033  1 003211   003215 710000 1                  TRA     s:7036

     2173     7034    4                AND VD_CMD_OBJECTS$ (INDX) ~= ADDR(NIL);
     2174     7035    4                 INDX = INDX + 1;

PL6.E3A0      #003=VDI$BINSERT File=VDI$BLOCK.:VDA5TSI                           FRI 07/04/97 11:28 Page:283
   7035  1 003212   200144 235100                    LDA     INDX,,AUTO
         1 003213   000001 035007                    ADLA    1,DL
         1 003214   200144 755100                    STA     INDX,,AUTO

     2175     7036    4                 END;

   7036  1 003215   200144 235100                    LDA     INDX,,AUTO
         1 003216   000062 115007                    CMPA    50,DL
         1 003217   003223 603000 1                  TRC     s:7037
         1 003220   000000 236005 xsym               LDQ     VD_CMD_OBJECTS$,AL
         1 003221   000001 116000 xsym               CMPQ    B_VECTNIL+1
         1 003222   003212 601000 1                  TNZ     s:7035

     2176     7037    4              IF INDX > %MX_CMD_OBJECTS THEN DO;

   7037  1 003223   200144 235100                    LDA     INDX,,AUTO
         1 003224   000063 115007                    CMPA    51,DL
         1 003225   003231 602000 1                  TNC     s:7040

     2177     7038    4                 CALL VDG$ESCREECH;

   7038  1 003226   000002 631400 xsym               EPPR1   B_VECTNIL+2
         1 003227   000000 701000 xent               TSX1    VDG$ESCREECH
         1 003230   000000 011000                    NOP     0

     2178     7039    4                 END;

     2179     7040    3              CALL VDG$OALLOC (%CLS_BUFFER, VD_CMD_OBJECTS$ (INDX),

   7040  1 003231   000024 236000 2                  LDQ     20
         1 003232   200176 756100                    STQ     OPEN_OPTIONS+7,,AUTO
         1 003233   200144 720100                    LXL0    INDX,,AUTO
         1 003234   000000 630410 xsym               EPPR0   VD_CMD_OBJECTS$,X0
         1 003235   200175 450500                    STP0    OPEN_OPTIONS+6,,AUTO
         1 003236   000016 236000 2                  LDQ     14
         1 003237   200174 756100                    STQ     OPEN_OPTIONS+5,,AUTO
         1 003240   200174 630500                    EPPR0   OPEN_OPTIONS+5,,AUTO
PL6.E3A0      #003=VDI$BINSERT File=VDI$BLOCK.:VDA5TSI                           FRI 07/04/97 11:28 Page:284
         1 003241   000021 631400 xsym               EPPR1   B_VECTNIL+17
         1 003242   000000 701000 xent               TSX1    VDG$OALLOC
         1 003243   003705 702000 1                  TSX2    ALLOC_FAILED

     2180     7041    3                SIZEW(VD$BUFFER_HEADER) + (2 * SIZEW(VD$KEY)))
     2181     7042    3                ALTRET (ALLOC_FAILED);
     2182     7043
     2183     7044    3              ERR$SUBST.OBJECT.CLASS# (0) = %CLS_PTR_KEY;

   7044  1 003244   000043 220003                    LDX0    35,DU
         1 003245   200106 470500                    LDP0    ERR_SUBST$,,AUTO
         1 003246   000000 740100                    STX0    0,,PR0

     2184     7045    3              ERR$SUBST.V$ (0) = PINCRW(VD_CMD_OBJECTS$(INDX),

   7045  1 003247   200144 721100                    LXL1    INDX,,AUTO
         1 003250   000000 236011 xsym               LDQ     VD_CMD_OBJECTS$,X1
         1 003251   000003 036003                    ADLQ    3,DU
         1 003252   000003 756100                    STQ     3,,PR0

     2185     7046    3                SIZEW(VD$BUFFER_HEADER));
     2186     7047                   %COPYKEY (FKEY=LAST_COPIED_KEY, TKEY="ERR$SUBST.V$ (0) -> VD$KEY");

   7060  1 003253   000003 471500                    LDP1    3,,PR0
         1 003254   200056 237100                    LDAQ    LAST_COPIED_KEY,,AUTO
         1 003255   100000 755100                    STA     0,,PR1
         1 003256   100001 756100                    STQ     1,,PR1

   7060  1 003257   200056 722100                    LXL2    LAST_COPIED_KEY,,AUTO
         1 003260   000002 102003                    CMPX2   2,DU
         1 003261   003276 601000 1                  TNZ     s:7064

   7060  1 003262   000003 471500                    LDP1    3,,PR0
         1 003263   100001 633500                    EPPR3   1,,PR1
         1 003264   200175 453500                    STP3    OPEN_OPTIONS+6,,AUTO
         1 003265   200057 236100                    LDQ     LAST_COPIED_KEY+1,,AUTO
         1 003266   200174 756100                    STQ     OPEN_OPTIONS+5,,AUTO
PL6.E3A0      #003=VDI$BINSERT File=VDI$BLOCK.:VDA5TSI                           FRI 07/04/97 11:28 Page:285
         1 003267   200174 630500                    EPPR0   OPEN_OPTIONS+5,,AUTO
         1 003270   000020 631400 xsym               EPPR1   B_VECTNIL+16
         1 003271   000000 701000 xent               TSX1    VDG$OCOPY
         1 003272   003274 702000 1                  TSX2    s:7061
         1 003273   003276 710000 1                  TRA     s:7064

   7061  1 003274   200110 221300                    LDX1  ! ERR_SUBST$+2,,AUTO
         1 003275   000000 702211                    TSX2  ! 0,X1

     2187     7063
     2188     7064    3              ERR$SUBST.OBJECT.CLASS# (1) = %CLS_PTR_KEY;

   7064  1 003276   000043 220003                    LDX0    35,DU
         1 003277   200106 470500                    LDP0    ERR_SUBST$,,AUTO
         1 003300   000004 740100                    STX0    4,,PR0

     2189     7065    3              ERR$SUBST.V$ (1) = PINCRW(ERR$SUBST.V$ (0), SIZEW(VD$KEY));

   7065  1 003301   000003 236100                    LDQ     3,,PR0
         1 003302   000002 036003                    ADLQ    2,DU
         1 003303   000007 756100                    STQ     7,,PR0

     2190     7066                   %COPYKEY (FKEY=LAST_WRITTEN_KEY, TKEY="ERR$SUBST.V$ (1) -> VD$KEY");

   7079  1 003304   000007 471500                    LDP1    7,,PR0
         1 003305   200060 237100                    LDAQ    LAST_WRITTEN_KEY,,AUTO
         1 003306   100000 755100                    STA     0,,PR1
         1 003307   100001 756100                    STQ     1,,PR1

   7079  1 003310   200060 721100                    LXL1    LAST_WRITTEN_KEY,,AUTO
         1 003311   000002 101003                    CMPX1   2,DU
         1 003312   003327 601000 1                  TNZ     s:7082

   7079  1 003313   000007 471500                    LDP1    7,,PR0
         1 003314   100001 633500                    EPPR3   1,,PR1
         1 003315   200175 453500                    STP3    OPEN_OPTIONS+6,,AUTO
         1 003316   200061 236100                    LDQ     LAST_WRITTEN_KEY+1,,AUTO
PL6.E3A0      #003=VDI$BINSERT File=VDI$BLOCK.:VDA5TSI                           FRI 07/04/97 11:28 Page:286
         1 003317   200174 756100                    STQ     OPEN_OPTIONS+5,,AUTO
         1 003320   200174 630500                    EPPR0   OPEN_OPTIONS+5,,AUTO
         1 003321   000020 631400 xsym               EPPR1   B_VECTNIL+16
         1 003322   000000 701000 xent               TSX1    VDG$OCOPY
         1 003323   003325 702000 1                  TSX2    s:7080
         1 003324   003327 710000 1                  TRA     s:7082

   7080  1 003325   200110 221300                    LDX1  ! ERR_SUBST$+2,,AUTO
         1 003326   000000 702211                    TSX2  ! 0,X1

     2191     7082    3              CALL VDG$EREPORT_ERROR;

   7082  1 003327   000002 631400 xsym               EPPR1   B_VECTNIL+2
         1 003330   000000 701000 xent               TSX1    VDG$EREPORT_ERROR
         1 003331   000000 011000                    NOP     0

     2192     7083    3              END;

     2193     7084
     2194     7085
     2195     7086    3           IF DEST_EXISTS AND FIRST_SRC_RECORD.EOR THEN DO;

   7086  1 003332   200037 234100                    SZN     DEST_EXISTS,,AUTO
         1 003333   003354 605000 1                  TPL     s:7107
         1 003334   200053 234100                    SZN     FIRST_SRC_RECORD+5,,AUTO
         1 003335   003354 605000 1                  TPL     s:7107

     2196     7087                   /*
     2197     7088                   *   We must have had a destRight; it must be saved, since its
     2198     7089                   *        original copy in the destination file has already been
     2199     7090                   *        overwritten.
     2200     7091                   *   Save either DEST_RIGHT$ or RECORD.DATA$ in $LEFTOVER, if
     2201     7092                   *        appropriate.
     2202     7093                   */
     2203     7094    4              IF DEST_RIGHT$ = ADDR(NIL) THEN DO;

   7094  1 003336   200036 236100                    LDQ     DEST_RIGHT$,,AUTO
PL6.E3A0      #003=VDI$BINSERT File=VDI$BLOCK.:VDA5TSI                           FRI 07/04/97 11:28 Page:287
         1 003337   000001 116000 xsym               CMPQ    B_VECTNIL+1
         1 003340   003345 601000 1                  TNZ     s:7098

     2204     7095    4                 DEST_RIGHT$ = RECORD.DATA$;

   7095  1 003341   200031 236100                    LDQ     RECORD+4,,AUTO
         1 003342   200036 756100                    STQ     DEST_RIGHT$,,AUTO

     2205     7096    4                 RECORD.DATA$ = ADDR(NIL);

   7096  1 003343   000001 236000 xsym               LDQ     B_VECTNIL+1
         1 003344   200031 756100                    STQ     RECORD+4,,AUTO

     2206     7097    4                 END;

     2207     7098    4              IF DEST_RIGHT$ ~= ADDR(NIL) THEN DO;

   7098  1 003345   200036 236100                    LDQ     DEST_RIGHT$,,AUTO
         1 003346   000001 116000 xsym               CMPQ    B_VECTNIL+1
         1 003347   003354 600000 1                  TZE     s:7107

     2208     7099    4                 CALL SAVE_LEFTOVER (DEST_RIGHT$)

   7099  1 003350   200036 630500                    EPPR0   DEST_RIGHT$,,AUTO
         1 003351   200151 450500                    STP0    RANGE_ENDD_KEY$+3,,AUTO
         1 003352   004074 701000 1                  TSX1    SAVE_LEFTOVER
         1 003353   003705 702000 1                  TSX2    ALLOC_FAILED

     2209     7100    4                   ALTRET (SAVE_LEFTOVER_FAILED);
     2210     7101    4                 END;

     2211     7102    3              END;

     2212     7103
     2213     7104
     2214     7105                /* Shrink source to describe only the data that has been copied */
     2215     7106
PL6.E3A0      #003=VDI$BINSERT File=VDI$BLOCK.:VDA5TSI                           FRI 07/04/97 11:28 Page:288
     2216     7107    3           IF LAST_COPIED_KEY = %CLEAR THEN DO;

   7107  1 003354   200056 237100                    LDAQ    LAST_COPIED_KEY,,AUTO
         1 003355   000002 117000 2                  CMPAQ   2
         1 003356   003403 601000 1                  TNZ     s:7123

     2217     7108                   /* Nothing was copied */
     2218     7109    3              CALL SAVE_NOT_COPIED (SRC_RANGE)

   7109  1 003357   200003 236100                    LDQ     @SRC_RANGE,,AUTO
         1 003360   200151 756100                    STQ     RANGE_ENDD_KEY$+3,,AUTO
         1 003361   004371 701000 1                  TSX1    SAVE_NOT_COPIED
         1 003362   003705 702000 1                  TSX2    ALLOC_FAILED

     2219     7110    3                ALTRET (SAVE_NOT_COPIED_FAILED);
     2220     7111                   /* Make source an empty range */
     2221     7112    3              CALL VDG$OCLEAR_LOCATION (SRC_RANGE.ENDD)

   7112  1 003363   200003 236100                    LDQ     @SRC_RANGE,,AUTO
         1 003364   000011 036003                    ADLQ    9,DU
         1 003365   200174 756100                    STQ     OPEN_OPTIONS+5,,AUTO
         1 003366   200174 630500                    EPPR0   OPEN_OPTIONS+5,,AUTO
         1 003367   000017 631400 xsym               EPPR1   B_VECTNIL+15
         1 003370   000000 701000 xent               TSX1    VDG$OCLEAR_LOCATION
         1 003371   003705 702000 1                  TSX2    ALLOC_FAILED

     2222     7113    3                ALTRET (OCLEAR_LOCATION_FAILED);
     2223     7114    3              CALL VDG$OCOPY_LOCATION (SRC_RANGE.START, SRC_RANGE.ENDD)

   7114  1 003372   200003 236100                    LDQ     @SRC_RANGE,,AUTO
         1 003373   000011 036003                    ADLQ    9,DU
         1 003374   200003 235100                    LDA     @SRC_RANGE,,AUTO
         1 003375   200174 757100                    STAQ    OPEN_OPTIONS+5,,AUTO
         1 003376   200174 630500                    EPPR0   OPEN_OPTIONS+5,,AUTO
         1 003377   000020 631400 xsym               EPPR1   B_VECTNIL+16
         1 003400   000000 701000 xent               TSX1    VDG$OCOPY_LOCATION
         1 003401   003705 702000 1                  TSX2    ALLOC_FAILED
PL6.E3A0      #003=VDI$BINSERT File=VDI$BLOCK.:VDA5TSI                           FRI 07/04/97 11:28 Page:289

     2224     7115    3                ALTRET (OCOPY_LOCATION_FAILED);
     2225     7116    3              END;

   7116  1 003402   003703 710000 1                  TRA     s:7265

     2226     7117    3           ELSE DO;

     2227     7118                   /*
     2228     7119                   *  Part of src copied, up to and including LAST_COPIED_KEY.
     2229     7120                   *  Read forward after LAST_COPIED_KEY, to find the beginning of
     2230     7121                   *    the uncopied portion, if any.
     2231     7122                   */
     2232     7123    3              SRC_LOC = %CLEAR;

   7123  1 003403   000100 100400                    MLR     fill='000'O
         1 003404   000002 000001 xsym               ADSC9   B_VECTNIL+2              cn=0,n=1
         1 003405   200111 000044                    ADSC9   SRC_LOC,,AUTO            cn=0,n=36

     2233     7124                   %COPYKEY (FKEY=LAST_COPIED_KEY,
     2234     7125                   TKEY=SRC_LOC.KEY, TINDX=SRC_LEVEL-1);

   7138  1 003406   200021 235100                    LDA     SRC_LEVEL,,AUTO
         1 003407   000001 735000                    ALS     1
         1 003410   000000 620005                    EAX0    0,AL
         1 003411   000000 621005                    EAX1    0,AL
         1 003412   200056 237100                    LDAQ    LAST_COPIED_KEY,,AUTO
         1 003413   200107 755110                    STA     ERR_SUBST$+1,X0,AUTO
         1 003414   200110 756111                    STQ     ERR_SUBST$+2,X1,AUTO

   7138  1 003415   200056 720100                    LXL0    LAST_COPIED_KEY,,AUTO
         1 003416   000002 100003                    CMPX0   2,DU
         1 003417   003435 601000 1                  TNZ     s:7142

   7138  1 003420   200021 235100                    LDA     SRC_LEVEL,,AUTO
         1 003421   000001 735000                    ALS     1
         1 003422   200110 630505                    EPPR0   ERR_SUBST$+2,AL,AUTO
PL6.E3A0      #003=VDI$BINSERT File=VDI$BLOCK.:VDA5TSI                           FRI 07/04/97 11:28 Page:290
         1 003423   200175 450500                    STP0    OPEN_OPTIONS+6,,AUTO
         1 003424   200057 236100                    LDQ     LAST_COPIED_KEY+1,,AUTO
         1 003425   200174 756100                    STQ     OPEN_OPTIONS+5,,AUTO
         1 003426   200174 630500                    EPPR0   OPEN_OPTIONS+5,,AUTO
         1 003427   000020 631400 xsym               EPPR1   B_VECTNIL+16
         1 003430   000000 701000 xent               TSX1    VDG$OCOPY
         1 003431   003433 702000 1                  TSX2    s:7139
         1 003432   003435 710000 1                  TRA     s:7142

   7139  1 003433   200110 221300                    LDX1  ! ERR_SUBST$+2,,AUTO
         1 003434   000000 702211                    TSX2  ! 0,X1

     2235     7141
     2236     7142    3              CALL VDA$LREAD (SRC_STREAM, SRC_LOC, 1, %FALSE)

   7142  1 003435   000020 237000 2                  LDAQ    16
         1 003436   200176 757100                    STAQ    OPEN_OPTIONS+7,,AUTO
         1 003437   200111 630500                    EPPR0   SRC_LOC,,AUTO
         1 003440   200175 450500                    STP0    OPEN_OPTIONS+6,,AUTO
         1 003441   200004 236100                    LDQ     @SRC_STREAM,,AUTO
         1 003442   200174 756100                    STQ     OPEN_OPTIONS+5,,AUTO
         1 003443   200174 630500                    EPPR0   OPEN_OPTIONS+5,,AUTO
         1 003444   000022 631400 xsym               EPPR1   B_VECTNIL+18
         1 003445   000000 701000 xent               TSX1    VDA$LREAD
         1 003446   003705 702000 1                  TSX2    ALLOC_FAILED

     2237     7143    3                ALTRET (LREAD_FAILED);
     2238     7144
     2239     7145                   %GETKEY (KEY=SRC_STREAM.CURRENT.KEY, INDX=SRC_LEVEL-1,
     2240     7146                   PTR=STREAM_KEY$);

   7153  1 003447   200021 235100                    LDA     SRC_LEVEL,,AUTO
         1 003450   000001 735000                    ALS     1
         1 003451   200004 470500                    LDP0    @SRC_STREAM,,AUTO
         1 003452   000004 720105                    LXL0    4,AL,PR0
         1 003453   000002 100003                    CMPX0   2,DU
         1 003454   003461 601000 1                  TNZ     s:7153+10
PL6.E3A0      #003=VDI$BINSERT File=VDI$BLOCK.:VDA5TSI                           FRI 07/04/97 11:28 Page:291

   7153  1 003455   000005 471505                    LDP1    5,AL,PR0
         1 003456   100002 633500                    EPPR3   2,,PR1
         1 003457   200145 453500                    STP3    STREAM_KEY$,,AUTO
         1 003460   003466 710000 1                  TRA     s:7164

   7153  1 003461   200021 236100                    LDQ     SRC_LEVEL,,AUTO
         1 003462   000023 736000                    QLS     19
         1 003463   000005 036003                    ADLQ    5,DU
         1 003464   200004 036100                    ADLQ    @SRC_STREAM,,AUTO
         1 003465   200145 756100                    STQ     STREAM_KEY$,,AUTO

     2241     7156                   %GETKEY (KEY=SRC_RANGE.ENDD.KEY, INDX=SRC_LEVEL-1,
     2242     7157                   PTR=RANGE_ENDD_KEY$);

   7164  1 003466   200003 471500                    LDP1    @SRC_RANGE,,AUTO
         1 003467   100007 721105                    LXL1    7,AL,PR1
         1 003470   000002 101003                    CMPX1   2,DU
         1 003471   003476 601000 1                  TNZ     s:7164+8

   7164  1 003472   100010 473505                    LDP3    8,AL,PR1
         1 003473   300002 634500                    EPPR4   2,,PR3
         1 003474   200146 454500                    STP4    RANGE_ENDD_KEY$,,AUTO
         1 003475   003503 710000 1                  TRA     s:7168

   7164  1 003476   200021 236100                    LDQ     SRC_LEVEL,,AUTO
         1 003477   000023 736000                    QLS     19
         1 003500   000010 036003                    ADLQ    8,DU
         1 003501   200003 036100                    ADLQ    @SRC_RANGE,,AUTO
         1 003502   200146 756100                    STQ     RANGE_ENDD_KEY$,,AUTO

     2243     7167
     2244     7168    3              IF (NOT SRC_STREAM.CURRENT.EOF)

   7168  1 003503   000016 236100                    LDQ     14,,PR0
         1 003504   400000 316007                    CANQ    -131072,DL
         1 003505   003615 601000 1                  TNZ     s:7227
PL6.E3A0      #003=VDI$BINSERT File=VDI$BLOCK.:VDA5TSI                           FRI 07/04/97 11:28 Page:292
         1 003506   200145 473500                    LDP3    STREAM_KEY$,,AUTO
         1 003507   300000 236100                    LDQ     0,,PR3
         1 003510   000033 772000                    QRL     27
         1 003511   200146 474500                    LDP4    RANGE_ENDD_KEY$,,AUTO
         1 003512   000000 622006                    EAX2    0,QL
         1 003513   400000 236100                    LDQ     0,,PR4
         1 003514   000033 772000                    QRL     27
         1 003515   000000 623006                    EAX3    0,QL
         1 003516   040140 106540                    CMPC    fill='040'O
         1 003517   300000 200012                    ADSC9   0,,PR3                   cn=1,n=*X2
         1 003520   400000 200013                    ADSC9   0,,PR4                   cn=1,n=*X3
         1 003521   003525 602000 1                  TNC     s:7179
         1 003522   003615 601000 1                  TNZ     s:7227
         1 003523   100021 224100                    LDX4    17,,PR1
         1 003524   003615 604400 1                  TMOZ    s:7227

     2245     7169    3                AND (STREAM$KEY.BYTES < RANGE$ENDD_KEY.BYTES
     2246     7170    3                OR (STREAM$KEY.BYTES = RANGE$ENDD_KEY.BYTES
     2247     7171    4                AND SRC_RANGE.ENDD.POSITION# > 0) ) THEN DO;

     2248     7172                      /*
     2249     7173                      *  There's an uncopied portion.
     2250     7174                      *  Because LAST_COPIED_KEY isn't %CLEAR, we know we've
     2251     7175                      *     copied at least one record; therefore, the uncopied portion
     2252     7176                      *     always begins at position 0 of the record after
     2253     7177                      *     LAST_COPIED_KEY (which is SRC_STREAM's current location).
     2254     7178                      */
     2255     7179    4                 NOT_COPIED_RANGE = SRC_RANGE;

   7179  1 003525   000100 100500                    MLR     fill='000'O
         1 003526   100000 000110                    ADSC9   0,,PR1                   cn=0,n=72
         1 003527   200122 000110                    ADSC9   NOT_COPIED_RANGE,,AUTO   cn=0,n=72

     2256     7180    4                 NOT_COPIED_RANGE.START.POSITION# = 0;

   7180  1 003530   000000 220003                    LDX0    0,DU
         1 003531   200132 740100                    STX0    TABLE_INDEX+1,,AUTO
PL6.E3A0      #003=VDI$BINSERT File=VDI$BLOCK.:VDA5TSI                           FRI 07/04/97 11:28 Page:293

     2257     7181                      %COPYKEY (FKEY=SRC_STREAM.CURRENT.KEY, FINDX=SRC_LEVEL-1,
     2258     7182                      TKEY=NOT_COPIED_RANGE.START.KEY, TINDX=SRC_LEVEL-1);

   7195  1 003532   200021 236100                    LDQ     SRC_LEVEL,,AUTO
         1 003533   000003 736000                    QLS     3
         1 003534   000002 735000                    ALS     2
         1 003535   000105 100506                    MLR     fill='000'O
         1 003536   000004 000010                    ADSC9   4,Q,PR0                  cn=0,n=8
         1 003537   200120 000010                    ADSC9   DEST_NEXT_KEY$,A,AUTO    cn=0,n=8

   7195  1 003540   200021 235100                    LDA     SRC_LEVEL,,AUTO
         1 003541   000001 735000                    ALS     1
         1 003542   000004 721105                    LXL1    4,AL,PR0
         1 003543   000002 101003                    CMPX1   2,DU
         1 003544   003560 601000 1                  TNZ     s:7212

   7195  1 003545   000005 475505                    LDP5    5,AL,PR0
         1 003546   200121 636505                    EPPR6   RECORD_KEY$,AL,AUTO
         1 003547   200175 456500                    STP6    OPEN_OPTIONS+6,,AUTO
         1 003550   200174 455500                    STP5    OPEN_OPTIONS+5,,AUTO
         1 003551   200174 630500                    EPPR0   OPEN_OPTIONS+5,,AUTO
         1 003552   000020 631400 xsym               EPPR1   B_VECTNIL+16
         1 003553   000000 701000 xent               TSX1    VDG$OCOPY
         1 003554   003556 702000 1                  TSX2    s:7196
         1 003555   003560 710000 1                  TRA     s:7212

   7196  1 003556   200110 221300                    LDX1  ! ERR_SUBST$+2,,AUTO
         1 003557   000000 702211                    TSX2  ! 0,X1

     2259     7198                      %COPYKEY (FKEY=SRC_RANGE.ENDD.KEY, FINDX=SRC_LEVEL-1,
     2260     7199                      TKEY=NOT_COPIED_RANGE.ENDD.KEY, TINDX=SRC_LEVEL-1);

   7212  1 003560   200021 235100                    LDA     SRC_LEVEL,,AUTO
         1 003561   000001 735000                    ALS     1
         1 003562   200021 236100                    LDQ     SRC_LEVEL,,AUTO
         1 003563   000003 736000                    QLS     3
PL6.E3A0      #003=VDI$BINSERT File=VDI$BLOCK.:VDA5TSI                           FRI 07/04/97 11:28 Page:294
         1 003564   000002 735000                    ALS     2
         1 003565   200003 470500                    LDP0    @SRC_RANGE,,AUTO
         1 003566   000105 100506                    MLR     fill='000'O
         1 003567   000007 000010                    ADSC9   7,Q,PR0                  cn=0,n=8
         1 003570   200131 000010                    ADSC9   TABLE_INDEX,A,AUTO       cn=0,n=8

   7212  1 003571   200021 235100                    LDA     SRC_LEVEL,,AUTO
         1 003572   000001 735000                    ALS     1
         1 003573   000007 720105                    LXL0    7,AL,PR0
         1 003574   000002 100003                    CMPX0   2,DU
         1 003575   003611 601000 1                  TNZ     s:7215

   7212  1 003576   000010 471505                    LDP1    8,AL,PR0
         1 003577   200132 633505                    EPPR3   TABLE_INDEX+1,AL,AUTO
         1 003600   200175 453500                    STP3    OPEN_OPTIONS+6,,AUTO
         1 003601   200174 451500                    STP1    OPEN_OPTIONS+5,,AUTO
         1 003602   200174 630500                    EPPR0   OPEN_OPTIONS+5,,AUTO
         1 003603   000020 631400 xsym               EPPR1   B_VECTNIL+16
         1 003604   000000 701000 xent               TSX1    VDG$OCOPY
         1 003605   003607 702000 1                  TSX2    s:7213
         1 003606   003611 710000 1                  TRA     s:7215

   7213  1 003607   200110 221300                    LDX1  ! ERR_SUBST$+2,,AUTO
         1 003610   000000 702211                    TSX2  ! 0,X1

     2261     7215    4                 CALL SAVE_NOT_COPIED (NOT_COPIED_RANGE)

   7215  1 003611   200122 630500                    EPPR0   NOT_COPIED_RANGE,,AUTO
         1 003612   200151 450500                    STP0    RANGE_ENDD_KEY$+3,,AUTO
         1 003613   004371 701000 1                  TSX1    SAVE_NOT_COPIED
         1 003614   003705 702000 1                  TSX2    ALLOC_FAILED

     2262     7216    4                   ALTRET (SAVE_NOT_COPIED_FAILED);
     2263     7217    4                 END;

     2264     7218
     2265     7219                   /* Adjust SRC_RANGE to cover just the portion successfully copied */
PL6.E3A0      #003=VDI$BINSERT File=VDI$BLOCK.:VDA5TSI                           FRI 07/04/97 11:28 Page:295
     2266     7220                   %CLEARKEY (KEY=SRC_RANGE.ENDD.KEY, INDX=SRC_LEVEL-1);

   7227  1 003615   200021 235100                    LDA     SRC_LEVEL,,AUTO
         1 003616   000001 735000                    ALS     1
         1 003617   200003 470500                    LDP0    @SRC_RANGE,,AUTO
         1 003620   000007 720105                    LXL0    7,AL,PR0
         1 003621   000002 100003                    CMPX0   2,DU
         1 003622   003634 601000 1                  TNZ     s:7228+2

   7227  1 003623   000010 471505                    LDP1    8,AL,PR0
         1 003624   200174 451500                    STP1    OPEN_OPTIONS+5,,AUTO
         1 003625   200174 630500                    EPPR0   OPEN_OPTIONS+5,,AUTO
         1 003626   000017 631400 xsym               EPPR1   B_VECTNIL+15
         1 003627   000000 701000 xent               TSX1    VDG$OFREE
         1 003630   003632 702000 1                  TSX2    s:7228
         1 003631   003634 710000 1                  TRA     s:7228+2

   7228  1 003632   200110 221300                    LDX1  ! ERR_SUBST$+2,,AUTO
         1 003633   000000 702211                    TSX2  ! 0,X1

   7228  1 003634   200021 235100                    LDA     SRC_LEVEL,,AUTO
         1 003635   000001 735000                    ALS     1
         1 003636   200003 470500                    LDP0    @SRC_RANGE,,AUTO
         1 003637   000007 450105                    STZ     7,AL,PR0
         1 003640   000010 450105                    STZ     8,AL,PR0

     2267     7230                   %COPYKEY (FKEY=SRC_STREAM.CURRENT.KEY, FINDX=SRC_LEVEL-1,
     2268     7231                   TKEY=SRC_RANGE.ENDD.KEY, TINDX=SRC_LEVEL-1);

   7244  1 003641   200021 236100                    LDQ     SRC_LEVEL,,AUTO
         1 003642   000003 736000                    QLS     3
         1 003643   000002 735000                    ALS     2
         1 003644   200004 471500                    LDP1    @SRC_STREAM,,AUTO
         1 003645   000105 100506                    MLR     fill='000'O
         1 003646   100004 000010                    ADSC9   4,Q,PR1                  cn=0,n=8
         1 003647   000007 000010                    ADSC9   7,A,PR0                  cn=0,n=8

PL6.E3A0      #003=VDI$BINSERT File=VDI$BLOCK.:VDA5TSI                           FRI 07/04/97 11:28 Page:296
   7244  1 003650   200021 235100                    LDA     SRC_LEVEL,,AUTO
         1 003651   000001 735000                    ALS     1
         1 003652   100004 720105                    LXL0    4,AL,PR1
         1 003653   000002 100003                    CMPX0   2,DU
         1 003654   003673 601000 1                  TNZ     s:7247

   7244  1 003655   100005 473505                    LDP3    5,AL,PR1
         1 003656   200021 236100                    LDQ     SRC_LEVEL,,AUTO
         1 003657   000023 736000                    QLS     19
         1 003660   000010 036003                    ADLQ    8,DU
         1 003661   200003 036100                    ADLQ    @SRC_RANGE,,AUTO
         1 003662   200175 756100                    STQ     OPEN_OPTIONS+6,,AUTO
         1 003663   200174 453500                    STP3    OPEN_OPTIONS+5,,AUTO
         1 003664   200174 630500                    EPPR0   OPEN_OPTIONS+5,,AUTO
         1 003665   000020 631400 xsym               EPPR1   B_VECTNIL+16
         1 003666   000000 701000 xent               TSX1    VDG$OCOPY
         1 003667   003671 702000 1                  TSX2    s:7245
         1 003670   003673 710000 1                  TRA     s:7247

   7245  1 003671   200110 221300                    LDX1  ! ERR_SUBST$+2,,AUTO
         1 003672   000000 702211                    TSX2  ! 0,X1

     2269     7247    3              SRC_RANGE.ENDD.EOF = SRC_STREAM.CURRENT.EOF;

   7247  1 003673   200003 470500                    LDP0    @SRC_RANGE,,AUTO
         1 003674   200004 471500                    LDP1    @SRC_STREAM,,AUTO
         1 003675   100016 236100                    LDQ     14,,PR1
         1 003676   000021 676100                    ERQ     17,,PR0
         1 003677   400000 376007                    ANQ     -131072,DL
         1 003700   000021 656100                    ERSQ    17,,PR0

     2270     7248    3              SRC_RANGE.ENDD.POSITION# = 0;

   7248  1 003701   000000 220003                    LDX0    0,DU
         1 003702   000021 740100                    STX0    17,,PR0

     2271     7249    3              END;
PL6.E3A0      #003=VDI$BINSERT File=VDI$BLOCK.:VDA5TSI                           FRI 07/04/97 11:28 Page:297

     2272     7250
     2273     7251                /*
     2274     7252                *N*   Adjust DEST_RANGE.ENDD to point to the end of the successfully
     2275     7253                *N*       copied data in the destination.
     2276     7254                *N*
     2277     7255                *N* %CLEARKEY (KEY=DEST_RANGE.ENDD.KEY, INDX=DEST_LEVEL-1);
     2278     7256                *N* %COPYKEY (FKEY=DEST_NEXT_KEY, TKEY=DEST_RANGE.ENDD.KEY,
     2279     7257                *N*     TINDX=DEST_LEVEL-1);
     2280     7258                *N* DEST_RANGE.ENDD.POSITION# = 0;
     2281     7259                *N* IF DEST_RANGE.ENDD.KEY (DEST_LEVEL-1) = <<<max edit key>>> THEN DO;
     2282     7260                *N*     DEST_RANGE.ENDD = %CLEAR;
     2283     7261                *N*     DEST_RANGE.ENDD.EOF = %TRUE;
     2284     7262                *N*     END;
     2285     7263                *N*/
     2286     7264
     2287     7265    2           RETURN;

   7265  1 003703   200110 221300                    LDX1  ! ERR_SUBST$+2,,AUTO
         1 003704   000001 702211                    TSX2  ! 1,X1

   7248  1 003705                       ALLOC_FAILED null
   7248  1 003705                       OCLEAR_LOCA* null
   7248  1 003705                       OCOPY_LOCAT* null
   7248  1 003705                       OFREE_FAILED null
   7248  1 003705                       LREAD_FAILED null
   7248  1 003705                       SAVE_LEFTOV* null
   7248  1 003705                       SAVE_NOT_CO* null
     2288     7266
     2289     7267
     2290     7268
     2291     7269    2   ALLOC_FAILED: ;
     2292     7270    2   OCLEAR_LOCATION_FAILED: ;
     2293     7271    2   OCOPY_LOCATION_FAILED: ;
     2294     7272    2   OFREE_FAILED: ;
     2295     7273    2   LREAD_FAILED: ;
     2296     7274    2   SAVE_LEFTOVER_FAILED: ;
PL6.E3A0      #003=VDI$BINSERT File=VDI$BLOCK.:VDA5TSI                           FRI 07/04/97 11:28 Page:298
     2297     7275    2   SAVE_NOT_COPIED_FAILED: ;
     2298     7276    2           ALTRETURN;

   7276  1 003705   200110 221300                    LDX1  ! ERR_SUBST$+2,,AUTO
         1 003706   000000 702211                    TSX2  ! 0,X1

     2299     7277
     2300     7278    2   END ABORT_INSERTION;
     2301     7279
     2302     7280        %BOX (TITLE=APPEND, PAGE=YES);
              7288    2
              7292    2   /***************************************************************************
              7294    2    *                                                                         *
              7298    2            *                                   APPEND                               *
              7300    2            *                                                                        *
              7302    2          ***************************************************************************/

     2303     7306
     2304     7307        /*I* NAME: APPEND
     2305     7308            PARAMETERS:
     2306     7309                LEFT$ - Ptr to VD$BUFFER containing left part of record.
     2307     7310                RIGHT$ - Ptr to VD$BUFFER containing right part of record.
     2308     7311            INPUT:
     2309     7312            OUTPUT:
     2310     7313                LEFT$ may be changed; in any case, will point to a VD$BUFFER containing
     2311     7314                    the right part of the record appended to the left part.
     2312     7315                RIGHT$ will be NIL, and its VD$BUFFER freed.
     2313     7316            DESCRIPTION:
     2314     7317                Append RIGHT.BYTES to LEFT.BYTES.
     2315     7318        */
     2316     7319
     2317     7320    1   APPEND: PROC (LEFT$, RIGHT$) ALTRET;

   7320  1 003707   200110 741300       APPEND       STX1  ! ERR_SUBST$+2,,AUTO

     2318     7321
     2319     7322    2   DCL LEFT$ PTR;
PL6.E3A0      #003=VDI$BINSERT File=VDI$BLOCK.:VDA5TSI                           FRI 07/04/97 11:28 Page:299
     2320     7323    2   DCL RIGHT$ PTR;
     2321     7324    2   DCL NEW_LENGTH SBIN;
     2322     7325    2   DCL ALLOC_WDS SBIN;
     2323     7326    2   DCL CURSOR SBIN;
     2324     7327    2   DCL NEW_BUFFER$ PTR;
     2325     7328
     2326     7329
     2327     7330        %VD$BUFFER (NAME=LEFT, STCLASS="BASED(LEFT$)");
     2328     7388        %VD$BUFFER (NAME=RIGHT, STCLASS="BASED(RIGHT$)");
     2329     7446        %VD$BUFFER (NAME=NEW$BUFFER, STCLASS="BASED(NEW_BUFFER$)");
     2330     7504
     2331     7505
     2332     7506
     2333     7507    2           IF RIGHT$ = ADDR(NIL) THEN

   7507  1 003710   200112 470500                    LDP0    @RIGHT$,,AUTO
         1 003711   000000 236100                    LDQ     0,,PR0
         1 003712   000001 116000 xsym               CMPQ    B_VECTNIL+1
         1 003713   003715 601000 1                  TNZ     s:7509

     2334     7508    2              RETURN;

   7508  1 003714   000001 702211                    TSX2  ! 1,X1

     2335     7509    3           IF RIGHT.LENGTH# > 0 THEN DO;

   7509  1 003715   000000 471500                    LDP1    0,,PR0
         1 003716   100002 220100                    LDX0    2,,PR1
         1 003717   004056 604400 1                  TMOZ    s:7536

     2336     7510
     2337     7511                   /* See if LEFT's buffer is big enough for concatenated record */
     2338     7512
     2339     7513    3              NEW_LENGTH = LEFT.LENGTH# + RIGHT.LENGTH#;

   7513  1 003720   200111 473500                    LDP3    @LEFT$,,AUTO
         1 003721   300000 474500                    LDP4    0,,PR3
PL6.E3A0      #003=VDI$BINSERT File=VDI$BLOCK.:VDA5TSI                           FRI 07/04/97 11:28 Page:300
         1 003722   100002 236100                    LDQ     2,,PR1
         1 003723   000022 732000                    QRS     18
         1 003724   200174 756100                    STQ     OPEN_OPTIONS+5,,AUTO
         1 003725   400002 236100                    LDQ     2,,PR4
         1 003726   000022 732000                    QRS     18
         1 003727   200174 036100                    ADLQ    OPEN_OPTIONS+5,,AUTO
         1 003730   200113 756100                    STQ     NEW_LENGTH,,AUTO

     2340     7514    3              ALLOC_WDS = (LENGTHC(VD$BUFFER_HEADER) + NEW_LENGTH + %NB_PER_WORD-1)

   7514  1 003731   000015 036007                    ADLQ    13,DL
         1 003732   000004 506007                    DIV     4,DL
         1 003733   200114 756100                    STQ     ALLOC_WDS,,AUTO

     2341     7515    3                / %NB_PER_WORD;
     2342     7516    4              IF ALLOC_WDS > LEFT.OBJECT.SIZE# THEN DO;

   7516  1 003734   300000 471500                    LDP1    0,,PR3
         1 003735   100000 236100                    LDQ     0,,PR1
         1 003736   000022 736000                    QLS     18
         1 003737   000022 732000                    QRS     18
         1 003740   200114 116100                    CMPQ    ALLOC_WDS,,AUTO
         1 003741   004001 605000 1                  TPL     s:7528

     2343     7517                      /* Need to allocate new buffer */
     2344     7518    4                 CALL VDG$OALLOC (%CLS_BUFFER, NEW_BUFFER$, ALLOC_WDS)

   7518  1 003742   200114 634500                    EPPR4   ALLOC_WDS,,AUTO
         1 003743   200176 454500                    STP4    OPEN_OPTIONS+7,,AUTO
         1 003744   200116 631500                    EPPR1   NEW_BUFFER$,,AUTO
         1 003745   200175 451500                    STP1    OPEN_OPTIONS+6,,AUTO
         1 003746   000016 236000 2                  LDQ     14
         1 003747   200174 756100                    STQ     OPEN_OPTIONS+5,,AUTO
         1 003750   200174 630500                    EPPR0   OPEN_OPTIONS+5,,AUTO
         1 003751   000021 631400 xsym               EPPR1   B_VECTNIL+17
         1 003752   000000 701000 xent               TSX1    VDG$OALLOC
         1 003753   004072 702000 1                  TSX2    OALLOC_FAILED
PL6.E3A0      #003=VDI$BINSERT File=VDI$BLOCK.:VDA5TSI                           FRI 07/04/97 11:28 Page:301

     2345     7519    4                   ALTRET (OALLOC_FAILED);
     2346     7520    4                 NEW$BUFFER.LENGTH# = LEFT.LENGTH#;

   7520  1 003754   200111 470500                    LDP0    @LEFT$,,AUTO
         1 003755   000000 471500                    LDP1    0,,PR0
         1 003756   100002 220100                    LDX0    2,,PR1
         1 003757   200116 473500                    LDP3    NEW_BUFFER$,,AUTO
         1 003760   300002 740100                    STX0    2,,PR3

     2347     7521    4                 NEW$BUFFER.BYTES = LEFT.BYTES;

   7521  1 003761   200116 471500                    LDP1    NEW_BUFFER$,,AUTO
         1 003762   100002 220100                    LDX0    2,,PR1
         1 003763   000000 473500                    LDP3    0,,PR0
         1 003764   300002 221100                    LDX1    2,,PR3
         1 003765   040140 100540                    MLR     fill='040'O
         1 003766   300002 400011                    ADSC9   2,,PR3                   cn=2,n=*X1
         1 003767   100002 400010                    ADSC9   2,,PR1                   cn=2,n=*X0

     2348     7522    4                 CALL VDG$OFREE (LEFT)

   7522  1 003770   000000 471500                    LDP1    0,,PR0
         1 003771   200174 451500                    STP1    OPEN_OPTIONS+5,,AUTO
         1 003772   200174 630500                    EPPR0   OPEN_OPTIONS+5,,AUTO
         1 003773   000017 631400 xsym               EPPR1   B_VECTNIL+15
         1 003774   000000 701000 xent               TSX1    VDG$OFREE
         1 003775   004072 702000 1                  TSX2    OALLOC_FAILED

     2349     7523    4                   ALTRET (OFREE_FAILED);
     2350     7524    4                 LEFT$ = NEW_BUFFER$;

   7524  1 003776   200116 236100                    LDQ     NEW_BUFFER$,,AUTO
         1 003777   200111 470500                    LDP0    @LEFT$,,AUTO
         1 004000   000000 756100                    STQ     0,,PR0

     2351     7525    4                 END;
PL6.E3A0      #003=VDI$BINSERT File=VDI$BLOCK.:VDA5TSI                           FRI 07/04/97 11:28 Page:302

     2352     7526
     2353     7527                   /* Append RIGHT.BYTES to LEFT.BYTES */
     2354     7528    3              CURSOR = LEFT.LENGTH#;

   7528  1 004001   200111 470500                    LDP0    @LEFT$,,AUTO
         1 004002   000000 471500                    LDP1    0,,PR0
         1 004003   100002 236100                    LDQ     2,,PR1
         1 004004   000022 732000                    QRS     18
         1 004005   200115 756100                    STQ     CURSOR,,AUTO

     2355     7529    3              LEFT.LENGTH# = NEW_LENGTH;

   7529  1 004006   000000 471500                    LDP1    0,,PR0
         1 004007   200113 720100                    LXL0    NEW_LENGTH,,AUTO
         1 004010   100002 740100                    STX0    2,,PR1

     2356     7530    3              CALL INSERT (LEFT.BYTES, CURSOR, , RIGHT.BYTES)

   7530  1 004011   000000 471500                    LDP1    0,,PR0
         1 004012   100002 220100                    LDX0    2,,PR1
         1 004013   200112 473500                    LDP3    @RIGHT$,,AUTO
         1 004014   300000 474500                    LDP4    0,,PR3
         1 004015   400002 221100                    LDX1    2,,PR4
         1 004016   000000 636010                    EAQ     0,X0
         1 004017   000022 732000                    QRS     18
         1 004020   200115 136100                    SBLQ    CURSOR,,AUTO
         1 004021   000000 622006                    EAX2    0,QL
         1 004022   200115 235100                    LDA     CURSOR,,AUTO
         1 004023   040145 100540                    MLR     fill='040'O
         1 004024   400002 400011                    ADSC9   2,,PR4                   cn=2,n=*X1
         1 004025   100002 400012                    ADSC9   2,A,PR1                  cn=2,n=*X2
         1 004026   200174 756100                    STQ     OPEN_OPTIONS+5,,AUTO
         1 004027   000000 636011                    EAQ     0,X1
         1 004030   000022 732000                    QRS     18
         1 004031   000011 402007                    MPY     9,DL
         1 004032   200175 756100                    STQ     OPEN_OPTIONS+6,,AUTO
PL6.E3A0      #003=VDI$BINSERT File=VDI$BLOCK.:VDA5TSI                           FRI 07/04/97 11:28 Page:303
         1 004033   200174 236100                    LDQ     OPEN_OPTIONS+5,,AUTO
         1 004034   000011 402007                    MPY     9,DL
         1 004035   200175 116100                    CMPQ    OPEN_OPTIONS+6,,AUTO
         1 004036   004040 604000 1                  TMI     s:7532
         1 004037   004056 710000 1                  TRA     s:7536

     2357     7531    4              WHENALTRETURN DO;

     2358     7532    4                 CALL VDG$ESCREECH (CURSOR, RIGHT.BYTES, NEW_LENGTH);

   7532  1 004040   200112 470500                    LDP0    @RIGHT$,,AUTO
         1 004041   000000 471500                    LDP1    0,,PR0
         1 004042   200113 633500                    EPPR3   NEW_LENGTH,,AUTO
         1 004043   200176 453500                    STP3    OPEN_OPTIONS+7,,AUTO
         1 004044   200177 451500                    STP1    OPEN_OPTIONS+8,,AUTO
         1 004045   200177 236100                    LDQ     OPEN_OPTIONS+8,,AUTO
         1 004046   000025 036000 2                  ADLQ    21
         1 004047   200175 756100                    STQ     OPEN_OPTIONS+6,,AUTO
         1 004050   200115 634500                    EPPR4   CURSOR,,AUTO
         1 004051   200174 454500                    STP4    OPEN_OPTIONS+5,,AUTO
         1 004052   200174 630500                    EPPR0   OPEN_OPTIONS+5,,AUTO
         1 004053   000021 631400 xsym               EPPR1   B_VECTNIL+17
         1 004054   000000 701000 xent               TSX1    VDG$ESCREECH
         1 004055   000000 011000                    NOP     0

     2359     7533    4                 END;

     2360     7534
     2361     7535    3              END;

     2362     7536    2           CALL VDG$OFREE (RIGHT)

   7536  1 004056   200112 470500                    LDP0    @RIGHT$,,AUTO
         1 004057   000000 471500                    LDP1    0,,PR0
         1 004060   200174 451500                    STP1    OPEN_OPTIONS+5,,AUTO
         1 004061   200174 630500                    EPPR0   OPEN_OPTIONS+5,,AUTO
         1 004062   000017 631400 xsym               EPPR1   B_VECTNIL+15
PL6.E3A0      #003=VDI$BINSERT File=VDI$BLOCK.:VDA5TSI                           FRI 07/04/97 11:28 Page:304
         1 004063   000000 701000 xent               TSX1    VDG$OFREE
         1 004064   004072 702000 1                  TSX2    OALLOC_FAILED

     2363     7537    2             ALTRET (OFREE_FAILED);
     2364     7538    2           RIGHT$ = ADDR(NIL);

   7538  1 004065   000001 236000 xsym               LDQ     B_VECTNIL+1
         1 004066   200112 470500                    LDP0    @RIGHT$,,AUTO
         1 004067   000000 756100                    STQ     0,,PR0

     2365     7539
     2366     7540    2           RETURN;

   7540  1 004070   200110 221300                    LDX1  ! ERR_SUBST$+2,,AUTO
         1 004071   000001 702211                    TSX2  ! 1,X1

   7538  1 004072                       OALLOC_FAIL* null
   7538  1 004072                       OFREE_FAILED null
     2367     7541
     2368     7542
     2369     7543    2   OALLOC_FAILED: ;
     2370     7544    2   OFREE_FAILED: ;
     2371     7545    2           ALTRETURN;

   7545  1 004072   200110 221300                    LDX1  ! ERR_SUBST$+2,,AUTO
         1 004073   000000 702211                    TSX2  ! 0,X1

     2372     7546
     2373     7547    2   END APPEND;
     2374     7548
     2375     7549                %BOX (TITLE=SAVE_LEFTOVER, PAGE=YES);
              7557    2
              7561    2   /***************************************************************************
              7563    2    *                                                                         *
              7567    2            *                               SAVE_LEFTOVER                            *
              7569    2            *                                                                        *
              7571    2          ***************************************************************************/
PL6.E3A0      #003=VDI$BINSERT File=VDI$BLOCK.:VDA5TSI                           FRI 07/04/97 11:28 Page:305

     2376     7575
     2377     7576        /*I* NAME: SAVE_LEFTOVER
     2378     7577            PARAMETERS:
     2379     7578                REC_TO_SAVE$ - Ptr to a VD$BUFFER which contains the record data to be
     2380     7579                    saved.  This record is assumed to include an EOR.
     2381     7580            INPUT:
     2382     7581            OUTPUT:
     2383     7582                REC_TO_SAVE$ will be NIL, and its buffer either freed or owned by the
     2384     7583                    internal file now.
     2385     7584            DESCRIPTION:
     2386     7585                Save a [partial] record under the name $LEFTOVER.
     2387     7586                To allow the user to just say:
     2388     7587                    COPY $LEFTOVER AFTER ...
     2389     7588                $LEFTOVER must be a name.  But we want to save a record, including an
     2390     7589                EOR boundary; this can only be done in an internal file.  Therefore,
     2391     7590                we build an internal file containing the record data to save, then
     2392     7591                set the predefined LOCATION-name $LEFTOVER to specify the entire
     2393     7592                internal file (all 1 record of it).
     2394     7593
     2395     7594                Also, write an informational message to tell the user what we've done.
     2396     7595        */
     2397     7596
     2398     7597    1   SAVE_LEFTOVER: PROC (REC_TO_SAVE$) ALTRET;

   7597  1 004074   200150 741300       SAVE_LEFTOV* STX1  ! RANGE_ENDD_KEY$+2,,AUTO

     2399     7598
     2400     7599    2   DCL REC_TO_SAVE$ PTR;
     2401     7600
     2402     7601
     2403     7602    2   DCL SAVE_ACCESSOR_PRIV UBIN BYTE ALIGNED;
     2404     7603    2   DCL LEFTOVER_STREAM$ PTR;
     2405     7604    2   DCL BLOCK_BUFFER$ PTR;
     2406     7605    2   DCL LEFTOVER_BLOCK$ PTR;
     2407     7606        %VD$LOCATION (NAME=LOC, STCLASS=AUTO);
     2408     7634        %VD$ACCESS_OPTIONS (NAME=OPEN_OPTIONS, STCLASS=AUTO);
PL6.E3A0      #003=VDI$BINSERT File=VDI$BLOCK.:VDA5TSI                           FRI 07/04/97 11:28 Page:306
     2409     7663
     2410     7664
     2411     7665        %VD$BUFFER (NAME=REC$TO_SAVE, STCLASS="BASED(REC_TO_SAVE$)");
     2412     7723        %VD$STREAM (NAME=LEFTOVER$STREAM, STCLASS="BASED(LEFTOVER_STREAM$)");
     2413     7829        %VD$BUFFER (NAME=BLOCK$BUFFER, STCLASS="BASED(BLOCK_BUFFER$)");
     2414     7887        %VD$BLOCK_DESC (NAME=LEFTOVER$BLOCK, STCLASS="BASED(LEFTOVER_BLOCK$)");
     2415     8034        %VD$STREAM (NAME=LOCATIONS$STREAM, STCLASS="BASED(VD_6E.LOCATIONS$)");
     2416     8140        %VD$PORT;
     2417     8238        %VD$BUFFER;
     2418     8296
     2419     8297
     2420     8298
     2421     8299    2           LEFTOVER_STREAM$ = ADDR(NIL);

   8299  1 004075   000001 236000 xsym               LDQ     B_VECTNIL+1
         1 004076   200153 756100                    STQ     LEFTOVER_STREAM$,,AUTO

     2422     8300    2           BLOCK_BUFFER$ = ADDR(NIL);

   8300  1 004077   200154 756100                    STQ     BLOCK_BUFFER$,,AUTO

     2423     8301
     2424     8302    2           SAVE_ACCESSOR_PRIV = VD_ACCESSOR_PRIV;

   8302  1 004100   000000 236000 xsym               LDQ     VD_ACCESSOR_PRIV
         1 004101   000033 772000                    QRL     27
         1 004102   000033 736000                    QLS     27
         1 004103   200152 756100                    STQ     SAVE_ACCESSOR_PRIV,,AUTO

     2425     8303    2           VD_ACCESSOR_PRIV = %BITBIN(NAC_ALL_BITS);

   8303  1 004104   777000 236003                    LDQ     -512,DU
         1 004105   000000 756000 xsym               STQ     VD_ACCESSOR_PRIV

     2426     8304
     2427     8305                /*!!!!!!!!!!!!!!!!!!!!!!!!!!!!!!!!!!!!!!!!!!!!!!!!!!!!!!!!!!!*/
     2428     8306                /*!!!!!                                                 !!!!!*/
PL6.E3A0      #003=VDI$BINSERT File=VDI$BLOCK.:VDA5TSI                           FRI 07/04/97 11:28 Page:307
     2429     8307                /*!!!!!     From here on, any exits must restore        !!!!!*/
     2430     8308                /*!!!!!            VD_ACCESSOR_PRIV                     !!!!!*/
     2431     8309                /*!!!!!          to its original value.                 !!!!!*/
     2432     8310
     2433     8311
     2434     8312                /* Build the internal file */
     2435     8313    2           CALL VDG$OALLOC (%CLS_STREAM, LEFTOVER_STREAM$)

   8313  1 004106   200153 630500                    EPPR0   LEFTOVER_STREAM$,,AUTO
         1 004107   200175 450500                    STP0    OPEN_OPTIONS+6,,AUTO
         1 004110   000027 236000 2                  LDQ     23
         1 004111   200174 756100                    STQ     OPEN_OPTIONS+5,,AUTO
         1 004112   200174 630500                    EPPR0   OPEN_OPTIONS+5,,AUTO
         1 004113   000020 631400 xsym               EPPR1   B_VECTNIL+16
         1 004114   000000 701000 xent               TSX1    VDG$OALLOC
         1 004115   004363 702000 1                  TSX2    OFREE_FAILED

     2436     8314    2             ALTRET (OALLOC_FAILED);
     2437     8315    2           OPEN_OPTIONS = %CLEAR;

   8315  1 004116   000100 100400                    MLR     fill='000'O
         1 004117   000002 000001 xsym               ADSC9   B_VECTNIL+2              cn=0,n=1
         1 004120   200167 000024                    ADSC9   OPEN_OPTIONS,,AUTO       cn=0,n=20

     2438     8316    2           OPEN_OPTIONS.STRUCTURE$ = VD_6E.STRUCTURE_SCRATCH$;

   8316  1 004121   000012 236000 xsym               LDQ     VD_6E+10
         1 004122   200167 756100                    STQ     OPEN_OPTIONS,,AUTO

     2439     8317    2           OPEN_OPTIONS.PROTECT# = %DONT_PROTECT;

   8317  1 004123   000002 220003                    LDX0    2,DU
         1 004124   200171 740100                    STX0    OPEN_OPTIONS+2,,AUTO

     2440     8318    2           OPEN_OPTIONS.EXIST# = %EX_ANY;

   8318  1 004125   000003 221003                    LDX1    3,DU
PL6.E3A0      #003=VDI$BINSERT File=VDI$BLOCK.:VDA5TSI                           FRI 07/04/97 11:28 Page:308
         1 004126   200171 441100                    SXL1    OPEN_OPTIONS+2,,AUTO

     2441     8319    2           CALL VDA$FOPEN (LEFTOVER$STREAM, VD_KEY_SCRATCH_LEFTOVER, 0,

   8319  1 004127   200167 630500                    EPPR0   OPEN_OPTIONS,,AUTO
         1 004130   200177 450500                    STP0    OPEN_OPTIONS+8,,AUTO
         1 004131   000000 236000 2                  LDQ     0
         1 004132   200176 756100                    STQ     OPEN_OPTIONS+7,,AUTO
         1 004133   000030 236000 2                  LDQ     24
         1 004134   200153 235100                    LDA     LEFTOVER_STREAM$,,AUTO
         1 004135   200174 757100                    STAQ    OPEN_OPTIONS+5,,AUTO
         1 004136   200174 630500                    EPPR0   OPEN_OPTIONS+5,,AUTO
         1 004137   000022 631400 xsym               EPPR1   B_VECTNIL+18
         1 004140   000000 701000 xent               TSX1    VDA$FOPEN
         1 004141   004337 702000 1                  TSX2    FOPEN_FAILED

     2442     8320    2             OPEN_OPTIONS)
     2443     8321    2             ALTRET (FOPEN_FAILED);
     2444     8322
     2445     8323    2           LOC = %CLEAR;

   8323  1 004142   000100 100400                    MLR     fill='000'O
         1 004143   000002 000001 xsym               ADSC9   B_VECTNIL+2              cn=0,n=1
         1 004144   200156 000044                    ADSC9   LOC,,AUTO                cn=0,n=36

     2446     8324    2           LOC.KEY (%LVL_LOWER - 1) = VD_KEY_NUMERIC_BOF;

   8324  1 004145   000100 100400                    MLR     fill='000'O
         1 004146   000000 000010 xsym               ADSC9   VD_KEY_NUMERIC_BOF       cn=0,n=8
         1 004147   200156 000010                    ADSC9   LOC,,AUTO                cn=0,n=8

     2447     8325    2           CALL VDA$LWRITE (LEFTOVER$STREAM, LOC, , REC$TO_SAVE)

   8325  1 004150   200151 470500                    LDP0    @REC_TO_SAVE$,,AUTO
         1 004151   000000 471500                    LDP1    0,,PR0
         1 004152   200177 451500                    STP1    OPEN_OPTIONS+8,,AUTO
         1 004153   000001 236000 xsym               LDQ     B_VECTNIL+1
PL6.E3A0      #003=VDI$BINSERT File=VDI$BLOCK.:VDA5TSI                           FRI 07/04/97 11:28 Page:309
         1 004154   200176 756100                    STQ     OPEN_OPTIONS+7,,AUTO
         1 004155   200156 633500                    EPPR3   LOC,,AUTO
         1 004156   200175 453500                    STP3    OPEN_OPTIONS+6,,AUTO
         1 004157   200153 236100                    LDQ     LEFTOVER_STREAM$,,AUTO
         1 004160   200174 756100                    STQ     OPEN_OPTIONS+5,,AUTO
         1 004161   200174 630500                    EPPR0   OPEN_OPTIONS+5,,AUTO
         1 004162   000022 631400 xsym               EPPR1   B_VECTNIL+18
         1 004163   000000 701000 xent               TSX1    VDA$LWRITE
         1 004164   004333 702000 1                  TSX2    LWRITE_LEFTOVER_FAILED

     2448     8326    2             ALTRET (LWRITE_LEFTOVER_FAILED);
     2449     8327    2           REC_TO_SAVE$ = ADDR(NIL);   /* Object owned by internal file now */

   8327  1 004165   000001 236000 xsym               LDQ     B_VECTNIL+1
         1 004166   200151 470500                    LDP0    @REC_TO_SAVE$,,AUTO
         1 004167   000000 756100                    STQ     0,,PR0

     2450     8328
     2451     8329    2           CALL VDA$FCLOSE (LEFTOVER$STREAM)

   8329  1 004170   200153 630500                    EPPR0   LEFTOVER_STREAM$,,AUTO
         1 004171   000017 631400 xsym               EPPR1   B_VECTNIL+15
         1 004172   000000 701000 xent               TSX1    VDA$FCLOSE
         1 004173   004337 702000 1                  TSX2    FOPEN_FAILED

     2452     8330    2             ALTRET (FCLOSE_FAILED);
     2453     8331    2           CALL VDG$OFREE (LEFTOVER$STREAM)

   8331  1 004174   200153 630500                    EPPR0   LEFTOVER_STREAM$,,AUTO
         1 004175   000017 631400 xsym               EPPR1   B_VECTNIL+15
         1 004176   000000 701000 xent               TSX1    VDG$OFREE
         1 004177   004363 702000 1                  TSX2    OFREE_FAILED

     2454     8332    2             ALTRET (OFREE_FAILED);
     2455     8333    2           LEFTOVER_STREAM$ = ADDR(NIL);

   8333  1 004200   000001 236000 xsym               LDQ     B_VECTNIL+1
PL6.E3A0      #003=VDI$BINSERT File=VDI$BLOCK.:VDA5TSI                           FRI 07/04/97 11:28 Page:310
         1 004201   200153 756100                    STQ     LEFTOVER_STREAM$,,AUTO

     2456     8334
     2457     8335                /* Now set $LEFTOVER name to specify the internal file */
     2458     8336    2           CALL VDG$OALLOC (%CLS_BLOCK_BUFFER, BLOCK_BUFFER$)

   8336  1 004202   200154 630500                    EPPR0   BLOCK_BUFFER$,,AUTO
         1 004203   200175 450500                    STP0    OPEN_OPTIONS+6,,AUTO
         1 004204   000012 236000 2                  LDQ     10
         1 004205   200174 756100                    STQ     OPEN_OPTIONS+5,,AUTO
         1 004206   200174 630500                    EPPR0   OPEN_OPTIONS+5,,AUTO
         1 004207   000020 631400 xsym               EPPR1   B_VECTNIL+16
         1 004210   000000 701000 xent               TSX1    VDG$OALLOC
         1 004211   004363 702000 1                  TSX2    OFREE_FAILED

     2459     8337    2             ALTRET (OALLOC_FAILED);
     2460     8338
     2461     8339    2           LEFTOVER_BLOCK$ = PALIGNW (ADDR(BLOCK$BUFFER.BYTES));

   8339  1 004212   200154 236100                    LDQ     BLOCK_BUFFER$,,AUTO
         1 004213   000025 036000 2                  ADLQ    21
         1 004214   770000 036007                    ADLQ    -4096,DL
         1 004215   000031 376000 2                  ANQ     25
         1 004216   200155 756100                    STQ     LEFTOVER_BLOCK$,,AUTO

     2462     8340    2           LEFTOVER$BLOCK.FILE_KEY = VD_KEY_SCRATCH_LEFTOVER;

   8340  1 004217   200155 470500                    LDP0    LEFTOVER_BLOCK$,,AUTO
         1 004220   000100 100400                    MLR     fill='000'O
         1 004221   000000 000010 xsym               ADSC9   VD_KEY_SCRATCH_LEFTOVER  cn=0,n=8
         1 004222   000001 000010                    ADSC9   1,,PR0                   cn=0,n=8

     2463     8341                %COPYKEY (FKEY=VD_KEY_NUMERIC_BOF,
     2464     8342                TKEY=LEFTOVER$BLOCK.RANGE.START.KEY, TINDX=%LVL_LOWER-1);

   8355  1 004223   000100 100400                    MLR     fill='000'O
         1 004224   000000 000010 xsym               ADSC9   VD_KEY_NUMERIC_BOF       cn=0,n=8
PL6.E3A0      #003=VDI$BINSERT File=VDI$BLOCK.:VDA5TSI                           FRI 07/04/97 11:28 Page:311
         1 004225   000003 000010                    ADSC9   3,,PR0                   cn=0,n=8

   8355  1 004226   000000 720000 xsym               LXL0    VD_KEY_NUMERIC_BOF
         1 004227   000002 100003                    CMPX0   2,DU
         1 004230   004243 601000 1                  TNZ     s:8358

   8355  1 004231   000004 036003                    ADLQ    4,DU
         1 004232   000001 235000 xsym               LDA     VD_KEY_NUMERIC_BOF+1
         1 004233   200174 757100                    STAQ    OPEN_OPTIONS+5,,AUTO
         1 004234   200174 630500                    EPPR0   OPEN_OPTIONS+5,,AUTO
         1 004235   000020 631400 xsym               EPPR1   B_VECTNIL+16
         1 004236   000000 701000 xent               TSX1    VDG$OCOPY
         1 004237   004241 702000 1                  TSX2    s:8356
         1 004240   004243 710000 1                  TRA     s:8358

   8356  1 004241   200150 221300                    LDX1  ! RANGE_ENDD_KEY$+2,,AUTO
         1 004242   000000 702211                    TSX2  ! 0,X1

     2465     8358    2           LEFTOVER$BLOCK.RANGE.ENDD.EOF = %TRUE;

   8358  1 004243   200155 470500                    LDP0    LEFTOVER_BLOCK$,,AUTO
         1 004244   400000 236007                    LDQ     -131072,DL
         1 004245   000024 256100                    ORSQ    20,,PR0

     2466     8359    2           LEFTOVER$BLOCK.OPTIONS = OPEN_OPTIONS;

   8359  1 004246   000100 100500                    MLR     fill='000'O
         1 004247   200167 000024                    ADSC9   OPEN_OPTIONS,,AUTO       cn=0,n=20
         1 004250   000025 000024                    ADSC9   21,,PR0                  cn=0,n=20

     2467     8360    2           LEFTOVER$BLOCK.OPTIONS.PROTECT# = %PROTECT;

   8360  1 004251   000001 220003                    LDX0    1,DU
         1 004252   000027 740100                    STX0    23,,PR0

     2468     8361    2           LEFTOVER$BLOCK.OPTIONS.EXIST# = %EX_OLD;

PL6.E3A0      #003=VDI$BINSERT File=VDI$BLOCK.:VDA5TSI                           FRI 07/04/97 11:28 Page:312
   8361  1 004253   000002 221003                    LDX1    2,DU
         1 004254   000027 441100                    SXL1    23,,PR0

     2469     8362
     2470     8363    2           CALL VDA$LWRITE (LOCATIONS$STREAM, VD_LOC_$LEFTOVER, , BLOCK$BUFFER)

   8363  1 004255   200154 236100                    LDQ     BLOCK_BUFFER$,,AUTO
         1 004256   000001 235000 xsym               LDA     B_VECTNIL+1
         1 004257   200176 757100                    STAQ    OPEN_OPTIONS+7,,AUTO
         1 004260   000032 236000 2                  LDQ     26
         1 004261   000002 235000 xsym               LDA     VD_6E+2
         1 004262   200174 757100                    STAQ    OPEN_OPTIONS+5,,AUTO
         1 004263   200174 630500                    EPPR0   OPEN_OPTIONS+5,,AUTO
         1 004264   000022 631400 xsym               EPPR1   B_VECTNIL+18
         1 004265   000000 701000 xent               TSX1    VDA$LWRITE
         1 004266   004337 702000 1                  TSX2    FOPEN_FAILED

     2471     8364    2             ALTRET (LWRITE_FAILED);
     2472     8365    2           BLOCK_BUFFER$ = ADDR(NIL);  /* Object now owned by Locations file */

   8365  1 004267   000001 236000 xsym               LDQ     B_VECTNIL+1
         1 004270   200154 756100                    STQ     BLOCK_BUFFER$,,AUTO

     2473     8366    2           CALL VDA$PFLUSH (LOCATIONS$STREAM.PORT$->VD$PORT, %TO_PRESENTER)

   8366  1 004271   000002 470400 xsym               LDP0    VD_6E+2
         1 004272   000001 471500                    LDP1    1,,PR0
         1 004273   000000 236000 2                  LDQ     0
         1 004274   200175 756100                    STQ     OPEN_OPTIONS+6,,AUTO
         1 004275   200174 451500                    STP1    OPEN_OPTIONS+5,,AUTO
         1 004276   200174 630500                    EPPR0   OPEN_OPTIONS+5,,AUTO
         1 004277   000020 631400 xsym               EPPR1   B_VECTNIL+16
         1 004300   000000 701000 xent               TSX1    VDA$PFLUSH
         1 004301   004337 702000 1                  TSX2    FOPEN_FAILED

     2474     8367    2             ALTRET (PFLUSH_FAILED);
     2475     8368
PL6.E3A0      #003=VDI$BINSERT File=VDI$BLOCK.:VDA5TSI                           FRI 07/04/97 11:28 Page:313
     2476     8369    2           VD_ACCESSOR_PRIV = SAVE_ACCESSOR_PRIV;

   8369  1 004302   200152 236100                    LDQ     SAVE_ACCESSOR_PRIV,,AUTO
         1 004303   000033 772000                    QRL     27
         1 004304   000033 736000                    QLS     27
         1 004305   000000 756000 xsym               STQ     VD_ACCESSOR_PRIV

     2477     8370
     2478     8371                /*!!!!!         Its safe now, we've restored            !!!!!*/
     2479     8372                /*!!!!!            VD_ACCESSOR_PRIV                     !!!!!*/
     2480     8373                /*!!!!!          to its original value.                 !!!!!*/
     2481     8374                /*!!!!!                                                 !!!!!*/
     2482     8375                /*!!!!!!!!!!!!!!!!!!!!!!!!!!!!!!!!!!!!!!!!!!!!!!!!!!!!!!!!!!!*/
     2483     8376
     2484     8377
     2485     8378                /* Now tell the user what we've done */
     2486     8379    2           CALL VDG$OALLOC (%CLS_ERR, VD_ERR$)

   8379  1 004306   200105 630500                    EPPR0   VD_ERR$,,AUTO
         1 004307   200175 450500                    STP0    OPEN_OPTIONS+6,,AUTO
         1 004310   000022 236000 2                  LDQ     18
         1 004311   200174 756100                    STQ     OPEN_OPTIONS+5,,AUTO
         1 004312   200174 630500                    EPPR0   OPEN_OPTIONS+5,,AUTO
         1 004313   000020 631400 xsym               EPPR1   B_VECTNIL+16
         1 004314   000000 701000 xent               TSX1    VDG$OALLOC
         1 004315   004367 702000 1                  TSX2    OALLOC_ERR_FAILED

     2487     8380    2             ALTRET (OALLOC_ERR_FAILED);
     2488     8381    2           VD$ERR.ERR.CODE# = %E$INFO_DATA_IN_$LEFTOVER;

   8381  1 004316   200105 470500                    LDP0    VD_ERR$,,AUTO
         1 004317   000002 236100                    LDQ     2,,PR0
         1 004320   000023 376000 2                  ANQ     19
         1 004321   002340 276007                    ORQ     1248,DL
         1 004322   000002 756100                    STQ     2,,PR0

     2489     8382    2           VD$ERR.FLAGLEV# = %FLV_INFO;
PL6.E3A0      #003=VDI$BINSERT File=VDI$BLOCK.:VDA5TSI                           FRI 07/04/97 11:28 Page:314

   8382  1 004323   000001 220003                    LDX0    1,DU
         1 004324   200105 470500                    LDP0    VD_ERR$,,AUTO
         1 004325   000003 740100                    STX0    3,,PR0

     2490     8383    2           CALL VDG$EREPORT_ERROR;

   8383  1 004326   000002 631400 xsym               EPPR1   B_VECTNIL+2
         1 004327   000000 701000 xent               TSX1    VDG$EREPORT_ERROR
         1 004330   000000 011000                    NOP     0

     2491     8384
     2492     8385    2           RETURN;

   8385  1 004331   200150 221300                    LDX1  ! RANGE_ENDD_KEY$+2,,AUTO
         1 004332   000001 702211                    TSX2  ! 1,X1

     2493     8386
     2494     8387
     2495     8388
     2496     8389    2   LWRITE_LEFTOVER_FAILED:
     2497     8390    2           CALL VDA$FCLOSE (LEFTOVER$STREAM);  /* Ignore altreturn */

   8390  1 004333   200153 630500       LWRITE_LEFT* EPPR0   LEFTOVER_STREAM$,,AUTO
         1 004334   000017 631400 xsym               EPPR1   B_VECTNIL+15
         1 004335   000000 701000 xent               TSX1    VDA$FCLOSE
         1 004336   000000 011000                    NOP     0

   8382  1 004337                       FOPEN_FAILED null
   8382  1 004337                       FCLOSE_FAIL* null
   8382  1 004337                       LWRITE_FAIL* null
   8382  1 004337                       PFLUSH_FAIL* null
     2498     8391
     2499     8392    2   FOPEN_FAILED: ;
     2500     8393    2   FCLOSE_FAILED: ;
     2501     8394    2   LWRITE_FAILED: ;
     2502     8395    2   PFLUSH_FAILED: ;
PL6.E3A0      #003=VDI$BINSERT File=VDI$BLOCK.:VDA5TSI                           FRI 07/04/97 11:28 Page:315
     2503     8396    3           IF LEFTOVER_STREAM$ ~= ADDR(NIL) THEN DO;

   8396  1 004337   200153 236100                    LDQ     LEFTOVER_STREAM$,,AUTO
         1 004340   000001 116000 xsym               CMPQ    B_VECTNIL+1
         1 004341   004351 600000 1                  TZE     s:8400

     2504     8397    3              CALL VDG$OFREE (LEFTOVER$STREAM)

   8397  1 004342   200153 630500                    EPPR0   LEFTOVER_STREAM$,,AUTO
         1 004343   000017 631400 xsym               EPPR1   B_VECTNIL+15
         1 004344   000000 701000 xent               TSX1    VDG$OFREE
         1 004345   004347 702000 1                  TSX2    s:8398
         1 004346   004351 710000 1                  TRA     s:8400

     2505     8398    4              WHENALTRETURN DO; ALTRETURN; END;

   8398  1 004347   200150 221300                    LDX1  ! RANGE_ENDD_KEY$+2,,AUTO
         1 004350   000000 702211                    TSX2  ! 0,X1

     2506     8399    3              END;

     2507     8400    3           IF BLOCK_BUFFER$ ~= ADDR(NIL) THEN DO;

   8400  1 004351   200154 236100                    LDQ     BLOCK_BUFFER$,,AUTO
         1 004352   000001 116000 xsym               CMPQ    B_VECTNIL+1
         1 004353   004363 600000 1                  TZE     OFREE_FAILED

     2508     8401    3              CALL VDG$OFREE (BLOCK$BUFFER)

   8401  1 004354   200154 630500                    EPPR0   BLOCK_BUFFER$,,AUTO
         1 004355   000017 631400 xsym               EPPR1   B_VECTNIL+15
         1 004356   000000 701000 xent               TSX1    VDG$OFREE
         1 004357   004361 702000 1                  TSX2    s:8402
         1 004360   004363 710000 1                  TRA     OFREE_FAILED

     2509     8402    4              WHENALTRETURN DO; ALTRETURN; END;

PL6.E3A0      #003=VDI$BINSERT File=VDI$BLOCK.:VDA5TSI                           FRI 07/04/97 11:28 Page:316
   8402  1 004361   200150 221300                    LDX1  ! RANGE_ENDD_KEY$+2,,AUTO
         1 004362   000000 702211                    TSX2  ! 0,X1

     2510     8403    3              END;

   8400  1 004363                       OFREE_FAILED null
   8400  1 004363                       OALLOC_FAIL* null
     2511     8404
     2512     8405    2   OFREE_FAILED: ;
     2513     8406    2   OALLOC_FAILED: ;
     2514     8407    2           VD_ACCESSOR_PRIV = SAVE_ACCESSOR_PRIV;

   8407  1 004363   200152 236100                    LDQ     SAVE_ACCESSOR_PRIV,,AUTO
         1 004364   000033 772000                    QRL     27
         1 004365   000033 736000                    QLS     27
         1 004366   000000 756000 xsym               STQ     VD_ACCESSOR_PRIV

   8407  1 004367                       OALLOC_ERR_* null
     2515     8408
     2516     8409    2   OALLOC_ERR_FAILED: ;
     2517     8410    2           ALTRETURN;

   8410  1 004367   200150 221300                    LDX1  ! RANGE_ENDD_KEY$+2,,AUTO
         1 004370   000000 702211                    TSX2  ! 0,X1

     2518     8411
     2519     8412    2   END SAVE_LEFTOVER;
     2520     8413
     2521     8414                %BOX (TITLE=SAVE_NOT_COPIED, PAGE=YES);
              8422    2
              8426    2   /***************************************************************************
              8428    2    *                                                                         *
              8432    2            *                              SAVE_NOT_COPIED                           *
              8434    2            *                                                                        *
              8436    2          ***************************************************************************/

     2522     8440
PL6.E3A0      #003=VDI$BINSERT File=VDI$BLOCK.:VDA5TSI                           FRI 07/04/97 11:28 Page:317
     2523     8441        /*I* NAME: SAVE_NOT_COPIED
     2524     8442            PARAMETERS:
     2525     8443                RANGE - VD$RANGE to be saved as the value of $NOT_COPIED.
     2526     8444                    This range must within the range specified by the source EditBlock.
     2527     8445            INPUT:
     2528     8446                SRC$EDIT_BLOCK - VD$BLOCK_DESC for the EditBlock which encloses the
     2529     8447                    source block.
     2530     8448                SRC_LEVEL - Level in file structure of the source block.
     2531     8449            OUTPUT:
     2532     8450            DESCRIPTION:
     2533     8451                Set the value of the predefined Location-name $NOT_COPIED to be
     2534     8452                RANGE, which must be in the source EditBlock.
     2535     8453
     2536     8454                Also, write an informational message to tell the user what we've done.
     2537     8455        */
     2538     8456
     2539     8457    1   SAVE_NOT_COPIED: PROC (RANGE) ALTRET;

   8457  1 004371   200150 741300       SAVE_NOT_CO* STX1  ! RANGE_ENDD_KEY$+2,,AUTO

     2540     8458
     2541     8459        %VD$RANGE (NAME=RANGE, STCLASS=PARAM);
     2542     8528
     2543     8529
     2544     8530    2   DCL BLOCK_BUFFER$ PTR;
     2545     8531    2   DCL SRC_BLOCK$ PTR;
     2546     8532    2   DCL SAVE_ACCESSOR_PRIV UBIN BYTE ALIGNED;
     2547     8533
     2548     8534
     2549     8535        %VD$BUFFER (NAME=BLOCK$BUFFER, STCLASS="BASED(BLOCK_BUFFER$)");
     2550     8593        %VD$BLOCK_DESC (NAME=SRC$BLOCK, STCLASS="BASED(SRC_BLOCK$)");
     2551     8740        %VD$STREAM (NAME=LOCATIONS$STREAM, STCLASS="BASED(VD_6E.LOCATIONS$)");
     2552     8846        %VD$BUFFER;
     2553     8904        %VD$PORT;
     2554     9002
     2555     9003
     2556     9004    2           CALL VDG$OALLOC (%CLS_BLOCK_BUFFER, BLOCK_BUFFER$)
PL6.E3A0      #003=VDI$BINSERT File=VDI$BLOCK.:VDA5TSI                           FRI 07/04/97 11:28 Page:318

   9004  1 004372   200152 630500                    EPPR0   BLOCK_BUFFER$,,AUTO
         1 004373   200175 450500                    STP0    OPEN_OPTIONS+6,,AUTO
         1 004374   000012 236000 2                  LDQ     10
         1 004375   200174 756100                    STQ     OPEN_OPTIONS+5,,AUTO
         1 004376   200174 630500                    EPPR0   OPEN_OPTIONS+5,,AUTO
         1 004377   000020 631400 xsym               EPPR1   B_VECTNIL+16
         1 004400   000000 701000 xent               TSX1    VDG$OALLOC
         1 004401   004575 702000 1                  TSX2    OCOPY_RANGE_FAILED

     2557     9005    2             ALTRET (OALLOC_FAILED);
     2558     9006    2           SRC_BLOCK$ = PALIGNW(ADDR(BLOCK$BUFFER.BYTES));

   9006  1 004402   200152 236100                    LDQ     BLOCK_BUFFER$,,AUTO
         1 004403   000025 036000 2                  ADLQ    21
         1 004404   770000 036007                    ADLQ    -4096,DL
         1 004405   000031 376000 2                  ANQ     25
         1 004406   200153 756100                    STQ     SRC_BLOCK$,,AUTO

     2559     9007
     2560     9008    2           SRC$BLOCK = SRC$EDIT_BLOCK;

   9008  1 004407   000022 470400 xsym               LDP0    VD_6E+18
         1 004410   200153 471500                    LDP1    SRC_BLOCK$,,AUTO
         1 004411   000100 100500                    MLR     fill='000'O
         1 004412   000000 000150                    ADSC9   0,,PR0                   cn=0,n=104
         1 004413   100000 000150                    ADSC9   0,,PR1                   cn=0,n=104

     2561     9009                %COPYKEY (FKEY=SRC$EDIT_BLOCK.FILE_KEY, TKEY=SRC$BLOCK.FILE_KEY);

   9022  1 004414   000022 470400 xsym               LDP0    VD_6E+18
         1 004415   000100 100500                    MLR     fill='000'O
         1 004416   000001 000010                    ADSC9   1,,PR0                   cn=0,n=8
         1 004417   100001 000010                    ADSC9   1,,PR1                   cn=0,n=8

   9022  1 004420   000022 470400 xsym               LDP0    VD_6E+18
         1 004421   000001 720100                    LXL0    1,,PR0
PL6.E3A0      #003=VDI$BINSERT File=VDI$BLOCK.:VDA5TSI                           FRI 07/04/97 11:28 Page:319
         1 004422   000002 100003                    CMPX0   2,DU
         1 004423   004437 601000 1                  TNZ     s:9039

   9022  1 004424   000002 473500                    LDP3    2,,PR0
         1 004425   000002 036003                    ADLQ    2,DU
         1 004426   200175 756100                    STQ     OPEN_OPTIONS+6,,AUTO
         1 004427   200174 453500                    STP3    OPEN_OPTIONS+5,,AUTO
         1 004430   200174 630500                    EPPR0   OPEN_OPTIONS+5,,AUTO
         1 004431   000020 631400 xsym               EPPR1   B_VECTNIL+16
         1 004432   000000 701000 xent               TSX1    VDG$OCOPY
         1 004433   004435 702000 1                  TSX2    s:9023
         1 004434   004437 710000 1                  TRA     s:9039

   9023  1 004435   200150 221300                    LDX1  ! RANGE_ENDD_KEY$+2,,AUTO
         1 004436   000000 702211                    TSX2  ! 0,X1

     2562     9025                %COPYKEY (FKEY=SRC$EDIT_BLOCK.OPTIONS.KEY_INCR,
     2563     9026                TKEY=SRC$BLOCK.OPTIONS.KEY_INCR);

   9039  1 004437   000022 470400 xsym               LDP0    VD_6E+18
         1 004440   200153 471500                    LDP1    SRC_BLOCK$,,AUTO
         1 004441   000100 100500                    MLR     fill='000'O
         1 004442   000030 000010                    ADSC9   24,,PR0                  cn=0,n=8
         1 004443   100030 000010                    ADSC9   24,,PR1                  cn=0,n=8

   9039  1 004444   000030 720100                    LXL0    24,,PR0
         1 004445   000002 100003                    CMPX0   2,DU
         1 004446   004463 601000 1                  TNZ     s:9042

   9039  1 004447   000031 473500                    LDP3    25,,PR0
         1 004450   200153 236100                    LDQ     SRC_BLOCK$,,AUTO
         1 004451   000031 036003                    ADLQ    25,DU
         1 004452   200175 756100                    STQ     OPEN_OPTIONS+6,,AUTO
         1 004453   200174 453500                    STP3    OPEN_OPTIONS+5,,AUTO
         1 004454   200174 630500                    EPPR0   OPEN_OPTIONS+5,,AUTO
         1 004455   000020 631400 xsym               EPPR1   B_VECTNIL+16
         1 004456   000000 701000 xent               TSX1    VDG$OCOPY
PL6.E3A0      #003=VDI$BINSERT File=VDI$BLOCK.:VDA5TSI                           FRI 07/04/97 11:28 Page:320
         1 004457   004461 702000 1                  TSX2    s:9040
         1 004460   004463 710000 1                  TRA     s:9042

   9040  1 004461   200150 221300                    LDX1  ! RANGE_ENDD_KEY$+2,,AUTO
         1 004462   000000 702211                    TSX2  ! 0,X1

     2564     9042    2           CALL VDG$OCOPY_RANGE (RANGE, SRC$BLOCK.RANGE)

   9042  1 004463   200153 236100                    LDQ     SRC_BLOCK$,,AUTO
         1 004464   000003 036003                    ADLQ    3,DU
         1 004465   200151 235100                    LDA     @RANGE,,AUTO
         1 004466   200174 757100                    STAQ    OPEN_OPTIONS+5,,AUTO
         1 004467   200174 630500                    EPPR0   OPEN_OPTIONS+5,,AUTO
         1 004470   000020 631400 xsym               EPPR1   B_VECTNIL+16
         1 004471   000000 701000 xent               TSX1    VDG$OCOPY_RANGE
         1 004472   004575 702000 1                  TSX2    OCOPY_RANGE_FAILED

     2565     9043    2             ALTRET (OCOPY_RANGE_FAILED);
     2566     9044
     2567     9045    2           SAVE_ACCESSOR_PRIV = VD_ACCESSOR_PRIV;

   9045  1 004473   000000 236000 xsym               LDQ     VD_ACCESSOR_PRIV
         1 004474   000033 772000                    QRL     27
         1 004475   000033 736000                    QLS     27
         1 004476   200154 756100                    STQ     SAVE_ACCESSOR_PRIV,,AUTO

     2568     9046    2           VD_ACCESSOR_PRIV = %BITBIN(NAC_ALL_BITS);

   9046  1 004477   777000 236003                    LDQ     -512,DU
         1 004500   000000 756000 xsym               STQ     VD_ACCESSOR_PRIV

     2569     9047
     2570     9048                /*!!!!!!!!!!!!!!!!!!!!!!!!!!!!!!!!!!!!!!!!!!!!!!!!!!!!!!!!!!!*/
     2571     9049                /*!!!!!                                                 !!!!!*/
     2572     9050                /*!!!!!     From here on, any exits must restore        !!!!!*/
     2573     9051                /*!!!!!            VD_ACCESSOR_PRIV                     !!!!!*/
     2574     9052                /*!!!!!          to its original value.                 !!!!!*/
PL6.E3A0      #003=VDI$BINSERT File=VDI$BLOCK.:VDA5TSI                           FRI 07/04/97 11:28 Page:321
     2575     9053
     2576     9054    2           CALL VDA$LWRITE (LOCATIONS$STREAM, VD_LOC_$NOT_COPIED, , BLOCK$BUFFER)

   9054  1 004501   200152 236100                    LDQ     BLOCK_BUFFER$,,AUTO
         1 004502   000001 235000 xsym               LDA     B_VECTNIL+1
         1 004503   200176 757100                    STAQ    OPEN_OPTIONS+7,,AUTO
         1 004504   000033 236000 2                  LDQ     27
         1 004505   000002 235000 xsym               LDA     VD_6E+2
         1 004506   200174 757100                    STAQ    OPEN_OPTIONS+5,,AUTO
         1 004507   200174 630500                    EPPR0   OPEN_OPTIONS+5,,AUTO
         1 004510   000022 631400 xsym               EPPR1   B_VECTNIL+18
         1 004511   000000 701000 xent               TSX1    VDA$LWRITE
         1 004512   004557 702000 1                  TSX2    LWRITE_FAILED

     2577     9055    2             ALTRET (LWRITE_FAILED);
     2578     9056    2           BLOCK_BUFFER$ = ADDR(NIL);  /* Object now owned by Locations file */

   9056  1 004513   000001 236000 xsym               LDQ     B_VECTNIL+1
         1 004514   200152 756100                    STQ     BLOCK_BUFFER$,,AUTO

     2579     9057    2           CALL VDA$PFLUSH (LOCATIONS$STREAM.PORT$->VD$PORT, %TO_PRESENTER)

   9057  1 004515   000002 470400 xsym               LDP0    VD_6E+2
         1 004516   000001 471500                    LDP1    1,,PR0
         1 004517   000000 236000 2                  LDQ     0
         1 004520   200175 756100                    STQ     OPEN_OPTIONS+6,,AUTO
         1 004521   200174 451500                    STP1    OPEN_OPTIONS+5,,AUTO
         1 004522   200174 630500                    EPPR0   OPEN_OPTIONS+5,,AUTO
         1 004523   000020 631400 xsym               EPPR1   B_VECTNIL+16
         1 004524   000000 701000 xent               TSX1    VDA$PFLUSH
         1 004525   004571 702000 1                  TSX2    PFLUSH_FAILED

     2580     9058    2             ALTRET (PFLUSH_FAILED);
     2581     9059
     2582     9060    2           VD_ACCESSOR_PRIV = SAVE_ACCESSOR_PRIV;

   9060  1 004526   200154 236100                    LDQ     SAVE_ACCESSOR_PRIV,,AUTO
PL6.E3A0      #003=VDI$BINSERT File=VDI$BLOCK.:VDA5TSI                           FRI 07/04/97 11:28 Page:322
         1 004527   000033 772000                    QRL     27
         1 004530   000033 736000                    QLS     27
         1 004531   000000 756000 xsym               STQ     VD_ACCESSOR_PRIV

     2583     9061
     2584     9062                /*!!!!!         Its safe now, we've restored            !!!!!*/
     2585     9063                /*!!!!!            VD_ACCESSOR_PRIV                     !!!!!*/
     2586     9064                /*!!!!!          to its original value.                 !!!!!*/
     2587     9065                /*!!!!!                                                 !!!!!*/
     2588     9066                /*!!!!!!!!!!!!!!!!!!!!!!!!!!!!!!!!!!!!!!!!!!!!!!!!!!!!!!!!!!!*/
     2589     9067
     2590     9068    2           CALL VDG$OALLOC (%CLS_ERR, VD_ERR$)

   9068  1 004532   200105 630500                    EPPR0   VD_ERR$,,AUTO
         1 004533   200175 450500                    STP0    OPEN_OPTIONS+6,,AUTO
         1 004534   000022 236000 2                  LDQ     18
         1 004535   200174 756100                    STQ     OPEN_OPTIONS+5,,AUTO
         1 004536   200174 630500                    EPPR0   OPEN_OPTIONS+5,,AUTO
         1 004537   000020 631400 xsym               EPPR1   B_VECTNIL+16
         1 004540   000000 701000 xent               TSX1    VDG$OALLOC
         1 004541   004575 702000 1                  TSX2    OCOPY_RANGE_FAILED

     2591     9069    2             ALTRET (OALLOC_FAILED);
     2592     9070    2           VD$ERR.ERR.CODE# = %E$INFO_DATA_IN_$NOT_COPIED;

   9070  1 004542   200105 470500                    LDP0    VD_ERR$,,AUTO
         1 004543   000002 236100                    LDQ     2,,PR0
         1 004544   000023 376000 2                  ANQ     19
         1 004545   002410 276007                    ORQ     1288,DL
         1 004546   000002 756100                    STQ     2,,PR0

     2593     9071    2           VD$ERR.FLAGLEV# = %FLV_INFO;

   9071  1 004547   000001 220003                    LDX0    1,DU
         1 004550   200105 470500                    LDP0    VD_ERR$,,AUTO
         1 004551   000003 740100                    STX0    3,,PR0

PL6.E3A0      #003=VDI$BINSERT File=VDI$BLOCK.:VDA5TSI                           FRI 07/04/97 11:28 Page:323
     2594     9072    2           CALL VDG$EREPORT_ERROR;

   9072  1 004552   000002 631400 xsym               EPPR1   B_VECTNIL+2
         1 004553   000000 701000 xent               TSX1    VDG$EREPORT_ERROR
         1 004554   000000 011000                    NOP     0

     2595     9073
     2596     9074    2           RETURN;

   9074  1 004555   200150 221300                    LDX1  ! RANGE_ENDD_KEY$+2,,AUTO
         1 004556   000001 702211                    TSX2  ! 1,X1

   9071  1 004557                       LWRITE_FAIL* null
     2597     9075
     2598     9076
     2599     9077
     2600     9078    2   LWRITE_FAILED: ;
     2601     9079    3           IF BLOCK_BUFFER$ ~= ADDR(NIL) THEN DO;

   9079  1 004557   200152 236100                    LDQ     BLOCK_BUFFER$,,AUTO
         1 004560   000001 116000 xsym               CMPQ    B_VECTNIL+1
         1 004561   004571 600000 1                  TZE     PFLUSH_FAILED

     2602     9080    3              CALL VDG$OFREE (BLOCK$BUFFER)

   9080  1 004562   200152 630500                    EPPR0   BLOCK_BUFFER$,,AUTO
         1 004563   000017 631400 xsym               EPPR1   B_VECTNIL+15
         1 004564   000000 701000 xent               TSX1    VDG$OFREE
         1 004565   004567 702000 1                  TSX2    s:9081
         1 004566   004571 710000 1                  TRA     PFLUSH_FAILED

     2603     9081    4              WHENALTRETURN DO; ALTRETURN; END;

   9081  1 004567   200150 221300                    LDX1  ! RANGE_ENDD_KEY$+2,,AUTO
         1 004570   000000 702211                    TSX2  ! 0,X1

     2604     9082    3              END;
PL6.E3A0      #003=VDI$BINSERT File=VDI$BLOCK.:VDA5TSI                           FRI 07/04/97 11:28 Page:324

   9079  1 004571                       PFLUSH_FAIL* null
     2605     9083
     2606     9084    2   PFLUSH_FAILED: ;
     2607     9085    2           VD_ACCESSOR_PRIV = SAVE_ACCESSOR_PRIV;

   9085  1 004571   200154 236100                    LDQ     SAVE_ACCESSOR_PRIV,,AUTO
         1 004572   000033 772000                    QRL     27
         1 004573   000033 736000                    QLS     27
         1 004574   000000 756000 xsym               STQ     VD_ACCESSOR_PRIV

   9085  1 004575                       OCOPY_RANGE* null
   9085  1 004575                       OALLOC_FAIL* null
   9085  1 004575                       OALLOC_ERR_* null
     2608     9086
     2609     9087    2   OCOPY_RANGE_FAILED: ;
     2610     9088    2   OALLOC_FAILED: ;
     2611     9089    2   OALLOC_ERR_FAILED: ;
     2612     9090    2           ALTRETURN;

   9090  1 004575   200150 221300                    LDX1  ! RANGE_ENDD_KEY$+2,,AUTO
         1 004576   000000 702211                    TSX2  ! 0,X1
     2613     9091
     2614     9092    2   END SAVE_NOT_COPIED;
     2615     9093
     2616     9094    1   END VDI$BINSERT;
     2617     9095        %EOD;

PL6.E3A0      #003=VDI$BINSERT File=VDI$BLOCK.:VDA5TSI                           FRI 07/04/97 11:28 Page:325
--  Include file information  --

   VD_PERR_C.:VDA5TOU  is referenced.
   VD_MACROS_M.:VDA5TOU  is referenced.
   B$JIT_C.:E04TOU  was found in the system file and is never referenced.
   CP_6_C.:E04TOU  was found in the system file and is never referenced.
      No diagnostics issued in procedure VDI$BINSERT.
PL6.E3A0      #003=VDI$BINSERT File=VDI$BLOCK.:VDA5TSI                           FRI 07/04/97 11:28 Page:326

 **** Variables and constants ****

  ****  Section 000 RoData VDI$BINSERT

  ****  Scalars and arrays  ****
OctLoc.c.b A Datatyp(siz) R M Lvl/name                 OctLoc.c.b A Datatyp(siz) R M Lvl/name

     0-0-0/w SBIN        r     1 INCR_521_TABLE(0:25)

  ****  Auto variables  ****

  ****  Scalars and arrays  ****
OctLoc.c.b A Datatyp(siz) R M Lvl/name                 OctLoc.c.b A Datatyp(siz) R M Lvl/name

     5-0-0/w PTR         r     1 @DEST_RANGE                6-0-0/w PTR         r     1 @DEST_STREAM
   111-0-0/w PTR         r     1 @INCR                    111-0-0/w PTR         r     1 @LEFT$
   151-0-0/w PTR         r     1 @RANGE                   151-0-0/w PTR         r     1 @REC_TO_SAVE$
   112-0-0/w PTR         r     1 @RIGHT$                    3-0-0/w PTR         r     1 @SRC_RANGE
     4-0-0/w PTR         r     1 @SRC_STREAM              115-0-0/w SBIN        r     1 ALLOC_WDS
   114-0-0/w SBIN        r     1 ALLOC_WDS                154-0-0/w PTR         r     1 BLOCK_BUFFER$
   152-0-0/w PTR         r     1 BLOCK_BUFFER$            115-0-0/w SBIN        r     1 CURSOR
    12-0-0/w PTR         r     1 DEST_EDIT_BLOCK$          40-0-0/b BIT         r     1 DEST_EOR
    37-0-0/w BIT         r     1 DEST_EXISTS               23-0-0/w PTR         r     1 DEST_FILE_KEY$
   111-0-0/w PTR         r     1 DEST_GIVEN_KEY$           41-0-0/w SBIN        r     1 DEST_KEY_SPACE
    33-0-0/w SBIN        r     1 DEST_LEFT_LENGTH          20-0-0/w SBIN        r     1 DEST_LEVEL
    34-0-0/w STRC(72)    r     1 DEST_NEXT_KEY            111-0-0/w PTR         r     1 DEST_NEXT_KEY$
   120-0-0/w PTR         r     1 DEST_NEXT_KEY$            13-0-0/w STRC(180)   r     1 DEST_OPTIONS
    *0-0-0/w STRC(648)   r     1 DEST_RANGE                36-0-0/w PTR         r     1 DEST_RIGHT$
   114-0-0/w SBIN        r     1 DEST_RIGHT_LENGTH         *0-0-0/w STRC(864)   r     1 DEST_STREAM
    11-0-0/w SBIN        r     1 END_POS_OF_INSERTED_DATA
   106-0-0/w PTR         r     1 ERR_SUBST$                46-0-0/w STRC(216)   r     1 FIRST_SRC_RECORD
     7-0-0/w BIT         r     1 FIRST_TIME_THRU_MAIN_LOOP
    42-0-0/w SBIN        r     1 GENERATE_KEY              *0-0-0/w STRC(72)    r     1 INCR
   124-0-0/w SBIN        r     1 INCREMENT                144-0-0/w UBIN        r     1 INDX
    56-0-0/w STRC(72)    r     1 LAST_COPIED_KEY           60-0-0/w STRC(72)    r     1 LAST_WRITTEN_KEY
    *0-0-0/w PTR         r     1 LEFT$                    155-0-0/w PTR         r     1 LEFTOVER_BLOCK$
   153-0-0/w PTR         r     1 LEFTOVER_STREAM$         156-0-0/w STRC(324)   r     1 LOC
PL6.E3A0      #003=VDI$BINSERT File=VDI$BLOCK.:VDA5TSI                           FRI 07/04/97 11:28 Page:327
   125-0-0/w SBIN        r     1 MAX_RECS_CAN_FIT          43-0-0/b BIT         r     1 MY_EOF_DELETED
   116-0-0/w PTR         r     1 NEW_BUFFER$              113-0-0/w SBIN        r     1 NEW_LENGTH
   122-0-0/w STRC(648)   r     1 NOT_COPIED_RANGE         167-0-0/w STRC(180)   r     1 OPEN_OPTIONS
    10-0-0/w BIT         r     1 OUTSIDE_SRC_RANGE         44-0-0/w BIT         r     1 PREVIOUS_SRC_EOR
    *0-0-0/w STRC(648)   r     1 RANGE                    146-0-0/w PTR         r     1 RANGE_ENDD_KEY$
    24-0-0/w SBIN        r     1 RCCL                      25-0-0/w STRC(216)   r     1 RECORD
   121-0-0/w PTR         r     1 RECORD_KEY$              113-0-0/w PTR         r     1 RECORD_KEY$
    *0-0-0/w PTR         r     1 REC_TO_SAVE$              *0-0-0/w PTR         r     1 RIGHT$
   152-0-0/w UBIN(9)     r     1 SAVE_ACCESSOR_PRIV       154-0-0/w UBIN(9)     r     1 SAVE_ACCESSOR_PRIV
   153-0-0/w PTR         r     1 SRC_BLOCK$               123-0-0/w PTR         r     1 SRC_END_KEY$
    45-0-0/w BIT         r     1 SRC_EOR                   22-0-0/w PTR         r     1 SRC_FILE_KEY$
    54-0-0/w STRC(72)    r     1 SRC_KEY_OF_RECORD         21-0-0/w SBIN        r     1 SRC_LEVEL
   111-0-0/w STRC(324)   r     1 SRC_LOC                   *0-0-0/w STRC(648)   r     1 SRC_RANGE
   122-0-0/w PTR         r     1 SRC_START_KEY$            *0-0-0/w STRC(864)   r     1 SRC_STREAM
   126-0-0/w PTR         r     1 SRC_STREAM_KEY$          145-0-0/w PTR         r     1 STREAM_KEY$
   131-0-0/w SBIN        r     1 TABLE_INDEX              105-0-0/w PTR         r     1 VD_ERR$
   112-0-0/w STRC(828)   r     1 XLATE$LOC

  ****  SYMREF variables  ****

  ****  Scalars and arrays  ****
OctLoc.c.b A Datatyp(siz) R M Lvl/name                 OctLoc.c.b A Datatyp(siz) R M Lvl/name

     0-0-0/w STRC(144)   r     1 VD_$BY                     0-0-0/w STRC(144)   r     1 VD_$RECORDS_INSERTED
     0-0-0/w STRC(144)   r     1 VD_$REKEY                  0-0-0/w STRC(22644) r     1 VD_6E
     0-0-0/w UBIN(9)     r     1 VD_ACCESSOR_PRIV
     0-0-0/w PTR         r     1 VD_CMD_OBJECTS$(0:49)
     0-0-0/w PTR         r     1 VD_CURRENT_WINDOW$         0-0-0/b BIT         r     1 VD_EOF_DELETED
     0-0-0/w STRC(72)    r     1 VD_KEY_MN_EDITKEY          0-0-0/w STRC(72)    r     1 VD_KEY_MX_EDITKEY
     0-0-0/w STRC(72)    r     1 VD_KEY_NUMERIC_BOF
     0-0-0/w STRC(72)    r     1 VD_KEY_SCRATCH_LEFTOVER
     0-0-0/w STRC(324)   r     1 VD_LOC_$LEFTOVER           0-0-0/w STRC(324)   r     1 VD_LOC_$NOT_COPIED

  ****  BASED and DCB variables  ****

  ****  Scalars and arrays  ****
OctLoc.c.b A Datatyp(siz) R M Lvl/name                 OctLoc.c.b A Datatyp(siz) R M Lvl/name
PL6.E3A0      #003=VDI$BINSERT File=VDI$BLOCK.:VDA5TSI                           FRI 07/04/97 11:28 Page:328

     0-0-0/w ASTR(90)    r     1 BLOCK$BUFFER               0-0-0/w ASTR(90)    r     1 BLOCK$BUFFER
     0-0-0/w STRC(936)   r     1 DEST$EDIT_BLOCK            0-0-0/w ASTR(9)     r     1 DEST$GIVEN_KEY
     0-0-0/w STRC        r     1 DEST$NEXT_KEY              0-0-0/w STRC        r     1 DEST$NEXT_KEY
     0-0-0/w ASTR(90)    r     1 DEST$RIGHT                 0-0-0/w ASTR(90)    r     1 DEST$RIGHT
     0-0-0/w STRC(144)   r     1 ERR$SUBST(0:2)
     0-0-0/w STRC(180)   r     1 LAST$ERR                   0-0-0/w ASTR(90)    r     1 LEFT
     0-0-0/w STRC(936)   r     1 LEFTOVER$BLOCK             0-0-0/w STRC(864)   r     1 LEFTOVER$STREAM
     0-0-0/w STRC(864)   r     1 LOCATIONS$STREAM           0-0-0/w STRC(864)   r     1 LOCATIONS$STREAM
     0-0-0/w ASTR(90)    r     1 NEW$BUFFER                 0-0-0/w ASTR(9)     r     1 RANGE$ENDD_KEY
     0-0-0/w ASTR(90)    r     1 REC$TO_SAVE                0-0-0/w ASTR(90)    r     1 RECORD$DATA
     0-0-0/w ASTR(90)    r     1 RECORD$DATA                0-0-0/w STRC        r     1 RECORD$KEY
     0-0-0/w ASTR(9)     r     1 RECORD$KEY                 0-0-0/w ASTR(90)    r     1 RIGHT
     0-0-0/w STRC(936)   r     1 SRC$BLOCK                  0-0-0/w STRC(936)   r     1 SRC$EDIT_BLOCK
     0-0-0/w ASTR(9)     r     1 SRC$END_KEY                0-0-0/w ASTR(9)     r     1 SRC$START_KEY
     0-0-0/w ASTR(9)     r     1 SRC$STREAM_KEY             0-0-0/w ASTR(9)     r     1 STREAM$KEY
     0-0-0/w ASTR(90)    r     1 VD$BUFFER                  0-0-0/w ASTR(90)    r     1 VD$BUFFER
     0-0-0/w ASTR(90)    r     1 VD$BUFFER                  0-0-0/w ASTR(90)    r     1 VD$BUFFER
     0-0-0/w STRC(90)    r     1 VD$BUFFER_HEADER           0-0-0/w STRC(180)   r     1 VD$ERR
     0-0-0/w STRC(468)   r     1 VD$FILE_NODE               0-0-0/w STRC(1116)  r     1 VD$IT_BLOCK_EXPR
     0-0-0/w STRC(72)    r     1 VD$KEY                     0-0-0/w STRC(72)    r     1 VD$KEY_NUMBER
     0-0-0/w STRC(1944)  r     1 VD$PORT                    0-0-0/w STRC(1944)  r     1 VD$PORT
     0-0-0/w ASTR(9)     r     1 VD$TEXTC                   0-0-0/w STRC        r     1 VD$TEXTC_NUMBER
     0-0-0/w ASTR(81)    r     1 VD$TEXTC_REMOTE            0-0-0/w STRC(900)   r     1 VD$WINDOW_SPEC


   Procedure VDI$BINSERT requires 2431 words for executable code.
   Procedure VDI$BINSERT requires 130 words of local(AUTO) storage.
PL6.E3A0      #003=VDI$BINSERT File=VDI$BLOCK.:VDA5TSI                           FRI 07/04/97 11:28 Page:329
          *** CROSS REFERENCE LISTING ***
**     DENOTES     IDENTIFIER DEFINITION
<<                 IDENTIFIER'S VALUE SET
>>                 IDENTIFIER'S VALUE USED
<>                 IDENTIFIER SET AND/OR USED
--                 IDENTIFIER REFERENCED
PL6.E3A0      #003=VDI$BINSERT File=VDI$BLOCK.:VDA5TSI                           FRI 07/04/97 11:28 Page:330
          MINI XREF LISTING

ABORT_INSERTION
      6799**PROC     5220--CALL
ADJUST_INCREMENT
      5771**PROC     4759--CALL     4779--CALL
ADJUST_INCREMENT_FAILED
      5219**LABEL    4759--CALLALT  4779--CALLALT
ALLOC_FAILED IN PROCEDURE ABORT_INSERTION
      7248**LABEL    7025--CALLALT  7040--CALLALT
ALLOC_WDS IN PROCEDURE APPEND
      7325**DCL      7514<<ASSIGN   7516>>IF       7518<>CALL
ALLOC_WDS IN PROCEDURE PREPARE_DESTINATION
      6253**DCL      6571<<ASSIGN   6573<>CALL
ALTRETURN_FROM_MAIN_LOOP
      5218**LABEL    4997--GOTO     5102--CALLALT  5104--CALLALT
APPEND
      7320**PROC     4795--CALL     4987--CALL
APPEND_FAILED
      5219**LABEL    4795--CALLALT  4987--CALLALT
BAUTO_REKEY_FAILED
      5219**LABEL    4773--CALLALT
BLOCK$BUFFER IN PROCEDURE SAVE_LEFTOVER
      7854**DCL      8363<>CALL     8401<>CALL
BLOCK$BUFFER.BYTES IN PROCEDURE SAVE_LEFTOVER
      7882**DCL      8339--ASSIGN
BLOCK$BUFFER.LENGTH# IN PROCEDURE SAVE_LEFTOVER
      7880**DCL      7882--IMP-SIZ  8363>>CALL     8401>>CALL
BLOCK$BUFFER IN PROCEDURE SAVE_NOT_COPIED
      8560**DCL      9054<>CALL     9080<>CALL
BLOCK$BUFFER.BYTES IN PROCEDURE SAVE_NOT_COPIED
      8588**DCL      9006--ASSIGN
BLOCK$BUFFER.LENGTH# IN PROCEDURE SAVE_NOT_COPIED
      8586**DCL      8588--IMP-SIZ  9054>>CALL     9080>>CALL
PL6.E3A0      #003=VDI$BINSERT File=VDI$BLOCK.:VDA5TSI                           FRI 07/04/97 11:28 Page:331
BLOCK_BUFFER$ IN PROCEDURE SAVE_LEFTOVER
      7604**DCL      7854--IMP-PTR  8300<<ASSIGN   8336<>CALL     8339>>ASSIGN   8363>>CALL     8363>>CALL
      8365<<ASSIGN   8400>>IF       8401>>CALL     8401>>CALL
BLOCK_BUFFER$ IN PROCEDURE SAVE_NOT_COPIED
      8530**DCL      8560--IMP-PTR  9004<>CALL     9006>>ASSIGN   9054>>CALL     9054>>CALL     9056<<ASSIGN
      9079>>IF       9080>>CALL     9080>>CALL
CLEANUP
      5602**PROC     4748--CALL     4776--CALL     5184--CALL     5206--CALL     5221--CALL     5235--CALL
CLEANUP_FAILED
      5240**LABEL    4748--CALLALT  5184--CALLALT  5206--CALLALT  5221--CALLALT  5235--CALLALT
COMPARE_LOCS_FAILED
      5240**LABEL    4865--CALLALT
COUNT_LOOP IN PROCEDURE ADJUST_INCREMENT
      6065**LABEL    6070--EXIT
CURSOR IN PROCEDURE APPEND
      7326**DCL      7528<<ASSIGN   7530>>CALLBLT  7532<>CALL
DEST$EDIT_BLOCK.FILE_KEY
      3742**DCL      5513>>ASSIGN
DEST$EDIT_BLOCK.OPTIONS
      3825**DCL      4688>>ASSIGN   4693>>ASSIGN
DEST$EDIT_BLOCK.RANGE
      3756**DCL      4991<>CALL     6473<>CALL
DEST$EDIT_BLOCK.RANGE.ENDD.EOF
      3812**DCL      4692<<ASSIGN   5517<<ASSIGN   6622>>IF
DEST$EDIT_BLOCK.RANGE.ENDD.KEY
      3808**DCL      6639>>ASSIGN
DEST$EDIT_BLOCK.RANGE.ENDD.KEY.REP#
      3810**DCL      6639>>IF
DEST$EDIT_BLOCK.RANGE.ENDD.KEY.V$
      3810**DCL      6639>>CALL     6639>>CALL
DEST$EDIT_BLOCK.RANGE.ENDD.POSITION#
      3812**DCL      5516>>IF
DEST$EDIT_BLOCK.RANGE.START
      3768**DCL      5048<>CALL     5468<>CALL
DEST$EDIT_BLOCK.RANGE.START.KEY
      3780**DCL      5515>>ASSIGN
PL6.E3A0      #003=VDI$BINSERT File=VDI$BLOCK.:VDA5TSI                           FRI 07/04/97 11:28 Page:332
DEST$GIVEN_KEY IN PROCEDURE PREPARE_DESTINATION
      6264**DCL      6486>>IF
DEST$GIVEN_KEY.LENGTH# IN PROCEDURE PREPARE_DESTINATION
      6272**DCL      6274--IMP-SIZ  6486>>IF
DEST$NEXT_KEY.BYTES# IN PROCEDURE ADJUST_INCREMENT
      5853**DCL      5975>>ASSIGN
DEST$NEXT_KEY.BYTES# IN PROCEDURE SET_DEST_END
      5322**DCL      5494>>IF
DEST$RIGHT.LENGTH#
      3954**DCL      3956--IMP-SIZ
DEST$RIGHT.BYTES IN PROCEDURE PREPARE_DESTINATION
      6355**DCL      6577<<ASSIGN
DEST$RIGHT.LENGTH# IN PROCEDURE PREPARE_DESTINATION
      6353**DCL      6355--IMP-SIZ  6575<<ASSIGN   6577>>ASSIGN
DEST_EDIT_BLOCK$
      3292**DCL      3706--IMP-PTR  4681<<ASSIGN   4688>>ASSIGN   4691<<ASSIGN   4692>>ASSIGN   4693>>ASSIGN
      4991>>CALL     5048>>CALL     5468>>CALL     5513>>ASSIGN   5515>>ASSIGN   5516>>IF       5517>>ASSIGN
      6473>>CALL     6622>>IF       6639>>ASSIGN   6639>>IF       6639>>CALL     6639>>CALL
DEST_EOR
      3386**DCL      4954>>ASSIGN   5116>>ASSIGN   6560<<ASSIGN
DEST_EXISTS
      3385**DCL      4955>>IF       5117>>IF       5523>>IF       5963>>IF       5978>>IF       6423<<ASSIGN
      6490<<ASSIGN   6548<<ASSIGN   6656>>IF       6676<<ASSIGN   7086>>IF
DEST_FILE_KEY$
      3325**DCL      4860<<ASSIGN   4860<<ASSIGN   4863>>IF       4863>>IF
DEST_GIVEN_KEY$ IN PROCEDURE PREPARE_DESTINATION
      6249**DCL      6264--IMP-PTR  6434<<ASSIGN   6434<<ASSIGN   6486>>IF       6486>>IF
DEST_KEY_SPACE
      3387**DCL      4773<>CALL     5975<<ASSIGN   5977<<ASSIGN   5977>>ASSIGN   5979<<ASSIGN   5979>>ASSIGN
      6019>>IF       6020>>ASSIGN   6031>>ASSIGN   6101<<ASSIGN
DEST_LEFT_LENGTH
      3369**DCL      5080>>ASSIGN   6421<<ASSIGN   6539<<ASSIGN   6540>>IF       6541<>CALL     6558<<ASSIGN
      6561>>IF       6568>>ASSIGN   6577>>ASSIGN   6582<>CALL     6656>>IF
DEST_LEVEL
      3322**DCL      4712<<ASSIGN   5046>>IF       5060>>IF       5060>>CALL     5060>>CALL     5061>>ASSIGN
      5077>>ASSIGN   5077>>CALL     5466>>IF       5478>>IF       5478>>CALL     5478>>CALL     5479>>ASSIGN
PL6.E3A0      #003=VDI$BINSERT File=VDI$BLOCK.:VDA5TSI                           FRI 07/04/97 11:28 Page:333
      5502>>ASSIGN   5507>>ASSIGN   5514>>ASSIGN   5519>>ASSIGN   5522>>ASSIGN   5530>>ASSIGN   6434>>IF
      6434>>ASSIGN   6434>>ASSIGN   6463>>ASSIGN   6463>>IF       6463>>CALL     6463>>CALL     6531>>ASSIGN
      6531>>IF       6531>>CALL     6531>>CALL     6603>>ASSIGN   6603>>IF       6603>>CALL     6603>>CALL
      6639>>ASSIGN   6639>>IF       6639>>CALL     6639>>CALL     6677>>IF       6697>>ASSIGN   6697>>IF
      6697>>CALL     6697>>CALL
DEST_NEXT_KEY
      3378**DCL      4670<<ASSIGN   4982>>ASSIGN   4991<>CALL     5502>>ASSIGN   5503<<ASSIGN   5648<<ASSIGN
      6516<<ASSIGN   6603<<ASSIGN   6621>>IF       6623<<ASSIGN   6639<<ASSIGN   6669<<ASSIGN   6671<<ASSIGN
DEST_NEXT_KEY.REP#
      3382**DCL      4982>>IF       5491>>IF       5647>>IF       5972>>IF       6668>>IF
DEST_NEXT_KEY.TYPE#
      3382**DCL      5494>>IF
DEST_NEXT_KEY.V$
      3382**DCL      4982>>CALL     4982>>CALL     5491>>ASSIGN   5491--ASSIGN   5647>>CALL     5647>>CALL
      5972>>ASSIGN   5972--ASSIGN   6603<>CALL     6639<>CALL     6668>>CALL     6668>>CALL     6677>>IF
DEST_NEXT_KEY$ IN PROCEDURE ADJUST_INCREMENT
      5832**DCL      5849--IMP-PTR  5972<<ASSIGN   5972<<ASSIGN   5975>>ASSIGN
DEST_NEXT_KEY$ IN PROCEDURE SET_DEST_END
      5307**DCL      5318--IMP-PTR  5491<<ASSIGN   5491<<ASSIGN   5494>>IF
DEST_OPTIONS
      3301**DCL      4667<<ASSIGN   4684<<ASSIGN   4688<<ASSIGN   4693<<ASSIGN   4773<>CALL     4991<>CALL
DEST_OPTIONS.KEY_INCR
      3317**DCL      4709<<ASSIGN   4709>>ASSIGN   4759<>CALL     4768--ASSIGN   4779<>CALL     5612<<ASSIGN
DEST_OPTIONS.KEY_INCR.REP#
      3319**DCL      4709>>IF       5611>>IF
DEST_OPTIONS.KEY_INCR.TYPE#
      3319**DCL      4761>>IF       4765<<ASSIGN
DEST_OPTIONS.KEY_INCR.V$
      3319**DCL      4709>>CALL     4709>>CALL     4709<>CALL     5611>>CALL     5611>>CALL
DEST_OPTIONS.LEVEL#
      3305**DCL      4712>>ASSIGN
DEST_RANGE
      2757**DCL       200--PROC     4660--ENTRY
DEST_RANGE.ENDD
      2799**DCL      4721<>CALL     4865<>CALL     5463<>CALL     5468<>CALL     5496<>CALL     6444<>CALL
      6471<>CALL     6674<>CALL
PL6.E3A0      #003=VDI$BINSERT File=VDI$BLOCK.:VDA5TSI                           FRI 07/04/97 11:28 Page:334
DEST_RANGE.ENDD.EOF
      2815**DCL      5498<<ASSIGN   5542<<ASSIGN   5546<<ASSIGN   6438>>IF
DEST_RANGE.ENDD.KEY
      2811**DCL      5479<<ASSIGN   5502<<ASSIGN   5507<<ASSIGN   5522>>ASSIGN   6531>>ASSIGN
DEST_RANGE.ENDD.KEY.REP#
      2813**DCL      5478>>IF       6434>>IF       6531>>IF
DEST_RANGE.ENDD.KEY.V$
      2813**DCL      5478>>CALL     5478>>CALL     6434>>ASSIGN   6434--ASSIGN   6531>>CALL     6531>>CALL
DEST_RANGE.ENDD.POSITION#
      2815**DCL      5509<<ASSIGN   5539>>ASSIGN   5540>>ASSIGN   6539>>ASSIGN   6558>>ASSIGN
DEST_RANGE.START
      2771**DCL      4719<>CALL     4721<>CALL     5048<>CALL
DEST_RANGE.START.EOF
      2787**DCL      5052<<ASSIGN   5543<<ASSIGN   5545<<ASSIGN
DEST_RANGE.START.KEY
      2783**DCL      5046>>IF       5061<<ASSIGN   5077<<ASSIGN   5530>>ASSIGN
DEST_RANGE.START.KEY.REP#
      2785**DCL      5060>>IF
DEST_RANGE.START.KEY.V$
      2785**DCL      5060>>CALL     5060>>CALL     5077<>CALL
DEST_RANGE.START.POSITION#
      2787**DCL      5080<<ASSIGN   5528>>ASSIGN   5529>>ASSIGN   5540>>ASSIGN
DEST_RIGHT$
      3384**DCL      3928--IMP-PTR  4953>>IF       4987<>CALL     5115>>IF       5118>>ASSIGN   5119<<ASSIGN
      5978>>IF       6327--IMP-PTR  6422<<ASSIGN   6512<<ASSIGN   6573<>CALL     6575>>ASSIGN   6577>>ASSIGN
      6577>>ASSIGN   7094>>IF       7095<<ASSIGN   7098>>IF       7099<>CALL
DEST_RIGHT_LENGTH IN PROCEDURE PREPARE_DESTINATION
      6252**DCL      6565<<ASSIGN   6568<<ASSIGN   6570>>IF       6571>>ASSIGN   6575>>ASSIGN   6576>>IF
DEST_STREAM
      2826**DCL       200--PROC     4660--ENTRY    4680--IF       4773<>CALL     4991<>CALL     6444<>CALL
      6471<>CALL     6473<>CALL     6586<>CALL     6674<>CALL
DEST_STREAM.CURRENT.EOF
      2893**DCL      6446>>IF       6588>>IF
DEST_STREAM.CURRENT.KEY
      2889**DCL      6463>>ASSIGN   6603>>ASSIGN   6697>>ASSIGN
DEST_STREAM.CURRENT.KEY.REP#
PL6.E3A0      #003=VDI$BINSERT File=VDI$BLOCK.:VDA5TSI                           FRI 07/04/97 11:28 Page:335
      2891**DCL      6463>>IF       6603>>IF       6697>>IF
DEST_STREAM.CURRENT.KEY.V$
      2891**DCL      6463>>CALL     6463>>CALL     6603>>CALL     6603>>CALL     6677>>IF       6697>>CALL
      6697>>CALL
DEST_STREAM.FILE_KEY.REP#
      2865**DCL      4860>>IF
DEST_STREAM.FILE_KEY.V$
      2865**DCL      4860>>ASSIGN   4860--ASSIGN
END_POS_OF_INSERTED_DATA
      3291**DCL      4666<<ASSIGN   4952<<ASSIGN   5509>>ASSIGN
ERR$SUBST.OBJECT.CLASS#
      4107**DCL      7044<<ASSIGN   7064<<ASSIGN
ERR$SUBST.V$
      4109**DCL      7045<<ASSIGN   7060>>ASSIGN   7060>>CALL     7065<<ASSIGN   7065>>ASSIGN   7079>>ASSIGN
      7079>>CALL
ERR_SUBST$
      3547**DCL      4083--IMP-PTR  7029<<ASSIGN   7044>>ASSIGN   7045>>ASSIGN   7060>>ASSIGN   7060>>CALL
      7064>>ASSIGN   7065>>ASSIGN   7065>>ASSIGN   7079>>ASSIGN   7079>>CALL
FCLOSE_FAILED IN PROCEDURE SAVE_LEFTOVER
      8382**LABEL    8329--CALLALT
FIRST_SRC_RECORD
      3400**DCL      4671<<ASSIGN   4728<>CALL
FIRST_SRC_RECORD.DATA$
      3432**DCL      4791>>ASSIGN   4792<<ASSIGN   4795<>CALL     4822>>IF       4823>>CALL     4823>>CALL
      4825<<ASSIGN
FIRST_SRC_RECORD.EOR
      3432**DCL      4672<<ASSIGN   4798>>ASSIGN   4799>>ASSIGN   6656>>IF       7086>>IF
FIRST_SRC_RECORD.KEY
      3414**DCL      4743>>ASSIGN   4747>>IF       4810<<ASSIGN
FIRST_SRC_RECORD.KEY.REP#
      3416**DCL      4743>>IF       4809>>IF
FIRST_SRC_RECORD.KEY.V$
      3416**DCL      4743>>CALL     4743>>CALL     4809>>CALL     4809>>CALL
FIRST_SRC_RECORD.SPEC
      3428**DCL      4787>>ASSIGN   4788<<ASSIGN   4820<<ASSIGN
FIRST_SRC_RECORD.SPEC.REP#
PL6.E3A0      #003=VDI$BINSERT File=VDI$BLOCK.:VDA5TSI                           FRI 07/04/97 11:28 Page:336
      3430**DCL      4819>>IF
FIRST_SRC_RECORD.SPEC.V$
      3430**DCL      4819>>CALL     4819>>CALL
FIRST_TIME_THRU_MAIN_LOOP
      3289**DCL      4664<<ASSIGN   4994>>IF       5043>>IF       5082<<ASSIGN
FOPEN_FAILED IN PROCEDURE SAVE_LEFTOVER
      8382**LABEL    8319--CALLALT
GENERATE_KEY
      3388**DCL      4985<<ASSIGN   4991<>CALL     5041>>IF       5043>>IF       5085<<ASSIGN   5964<<ASSIGN
      5976>>IF       6424<<ASSIGN   6467<<ASSIGN   6660<<ASSIGN
INCR IN PROCEDURE ADJUST_INCREMENT
      5781**DCL      5771--PROC     5941>>IF
INCR.BYTES# IN PROCEDURE ADJUST_INCREMENT
      5785**DCL      5946<<ASSIGN   5947<<ASSIGN   6017>>ASSIGN   6056<<ASSIGN
INCR.LENGTH# IN PROCEDURE ADJUST_INCREMENT
      5785**DCL      5945<<ASSIGN
INCR.REP# IN PROCEDURE ADJUST_INCREMENT
      5785**DCL      5944<<ASSIGN
INCR.TYPE# IN PROCEDURE ADJUST_INCREMENT
      5785**DCL      5943<<ASSIGN   6100<<ASSIGN
INCREMENT IN PROCEDURE ADJUST_INCREMENT
      5836**DCL      6017<<ASSIGN   6019>>IF       6020<<ASSIGN   6029>>DOWHILE  6031>>ASSIGN   6054>>IF
      6056>>ASSIGN   6062<<ASSIGN   6068>>IF       6069<<ASSIGN   6069>>ASSIGN   6070>>IF       6071<<ASSIGN
      6071>>ASSIGN   6072>>ASSIGN   6075>>IF       6076<<ASSIGN   6076>>ASSIGN   6077>>ASSIGN   6080<<ASSIGN
      6080>>ASSIGN   6081>>ASSIGN   6162>>IF       6165<<ASSIGN
INCR_521_TABLE IN PROCEDURE NEXT_LOWER_INCR
      6150**DCL      6162>>IF       6165>>ASSIGN
INDX IN PROCEDURE ABORT_INSERTION
      6898**DCL      7032<<ASSIGN   7033>>DOWHILE  7033>>DOWHILE  7035<<ASSIGN   7035>>ASSIGN   7037>>IF
      7040>>CALL     7045>>ASSIGN
LAST$ERR.FLAGLEV#
      4064**DCL      5219>>IF
LAST_COPIED_KEY
      3456**DCL      4674<<ASSIGN   5009<<ASSIGN   5011<<ASSIGN   5668<<ASSIGN   7024>>IF       7060>>ASSIGN
      7107>>IF       7138>>ASSIGN
LAST_COPIED_KEY.REP#
PL6.E3A0      #003=VDI$BINSERT File=VDI$BLOCK.:VDA5TSI                           FRI 07/04/97 11:28 Page:337
      3460**DCL      5008>>IF       5667>>IF       7060>>IF       7138>>IF
LAST_COPIED_KEY.V$
      3460**DCL      5008>>CALL     5008>>CALL     5667>>CALL     5667>>CALL     7060>>CALL     7060>>CALL
      7138>>CALL     7138>>CALL
LAST_WRITTEN_KEY
      3470**DCL      4675<<ASSIGN   5021<<ASSIGN   5036<<ASSIGN   5145>>ASSIGN   5507>>ASSIGN   5508<<ASSIGN
      5678<<ASSIGN   7079>>ASSIGN
LAST_WRITTEN_KEY.REP#
      3474**DCL      5020>>IF       5145>>IF       5677>>IF       7079>>IF
LAST_WRITTEN_KEY.V$
      3474**DCL      5020>>CALL     5020>>CALL     5036<>CALL     5145>>CALL     5145>>CALL     5677>>CALL
      5677>>CALL     7079>>CALL     7079>>CALL
LEFT IN PROCEDURE APPEND
      7355**DCL      7522<>CALL
LEFT.BYTES IN PROCEDURE APPEND
      7383**DCL      7521>>ASSIGN   7530<<CALLBLT
LEFT.LENGTH# IN PROCEDURE APPEND
      7381**DCL      7383--IMP-SIZ  7513>>ASSIGN   7520>>ASSIGN   7521>>ASSIGN   7522>>CALL     7528>>ASSIGN
      7529<<ASSIGN   7530>>CALLBLT
LEFT.OBJECT.SIZE# IN PROCEDURE APPEND
      7379**DCL      7516>>IF
LEFT$ IN PROCEDURE APPEND
      7322**DCL      7320--PROC     7355--IMP-PTR  7513>>ASSIGN   7516>>IF       7520>>ASSIGN   7521>>ASSIGN
      7521>>ASSIGN   7522>>CALL     7522>>CALL     7524<<ASSIGN   7528>>ASSIGN   7529>>ASSIGN   7530>>CALLBLT
      7530>>CALLBLT
LEFTOVER$BLOCK.FILE_KEY IN PROCEDURE SAVE_LEFTOVER
      7931**DCL      8340<<ASSIGN
LEFTOVER$BLOCK.OPTIONS IN PROCEDURE SAVE_LEFTOVER
      8014**DCL      8359<<ASSIGN
LEFTOVER$BLOCK.OPTIONS.EXIST# IN PROCEDURE SAVE_LEFTOVER
      8017**DCL      8361<<ASSIGN
LEFTOVER$BLOCK.OPTIONS.PROTECT# IN PROCEDURE SAVE_LEFTOVER
      8016**DCL      8360<<ASSIGN
LEFTOVER$BLOCK.RANGE.ENDD.EOF IN PROCEDURE SAVE_LEFTOVER
      8001**DCL      8358<<ASSIGN
LEFTOVER$BLOCK.RANGE.START.KEY IN PROCEDURE SAVE_LEFTOVER
PL6.E3A0      #003=VDI$BINSERT File=VDI$BLOCK.:VDA5TSI                           FRI 07/04/97 11:28 Page:338
      7969**DCL      8355<<ASSIGN
LEFTOVER$BLOCK.RANGE.START.KEY.V$ IN PROCEDURE SAVE_LEFTOVER
      7971**DCL      8355<>CALL
LEFTOVER$STREAM IN PROCEDURE SAVE_LEFTOVER
      7731**DCL      8319<>CALL     8325<>CALL     8329<>CALL     8331<>CALL     8390<>CALL     8397<>CALL
LEFTOVER_BLOCK$ IN PROCEDURE SAVE_LEFTOVER
      7605**DCL      7895--IMP-PTR  8339<<ASSIGN   8340>>ASSIGN   8355>>ASSIGN   8355>>CALL     8358>>ASSIGN
      8359>>ASSIGN   8360>>ASSIGN   8361>>ASSIGN
LEFTOVER_STREAM$ IN PROCEDURE SAVE_LEFTOVER
      7603**DCL      7731--IMP-PTR  8299<<ASSIGN   8313<>CALL     8319>>CALL     8325>>CALL     8329>>CALL
      8331>>CALL     8333<<ASSIGN   8390>>CALL     8396>>IF       8397>>CALL
LOC IN PROCEDURE SAVE_LEFTOVER
      7614**DCL      8323<<ASSIGN   8325<>CALL
LOC.KEY IN PROCEDURE SAVE_LEFTOVER
      7628**DCL      8324<<ASSIGN
LOCATIONS$STREAM IN PROCEDURE SAVE_LEFTOVER
      8042**DCL      8363<>CALL
LOCATIONS$STREAM.PORT$ IN PROCEDURE SAVE_LEFTOVER
      8068**DCL      8366>>CALL
LOCATIONS$STREAM IN PROCEDURE SAVE_NOT_COPIED
      8748**DCL      9054<>CALL
LOCATIONS$STREAM.PORT$ IN PROCEDURE SAVE_NOT_COPIED
      8774**DCL      9057>>CALL
LOOP IN PROCEDURE ADJUST_INCREMENT
      6029**LABEL    6035--EXIT     6049--EXIT
LREAD_FAILED
      5219**LABEL    4726--CALLALT  4872--CALLALT  4909--CALLALT
LREAD_FAILED IN PROCEDURE ABORT_INSERTION
      7248**LABEL    7142--CALLALT
LREAD_FAILED IN PROCEDURE ADJUST_INCREMENT
      6101**LABEL    6032--CALLALT  6085--CALLALT
LREAD_FAILED IN PROCEDURE PREPARE_DESTINATION
      6703**LABEL    6444--CALLALT  6471--CALLALT  6586--CALLALT  6674--CALLALT
LWRITE_FAILED IN PROCEDURE SAVE_LEFTOVER
      8382**LABEL    8363--CALLALT
LWRITE_FAILED IN PROCEDURE SAVE_NOT_COPIED
PL6.E3A0      #003=VDI$BINSERT File=VDI$BLOCK.:VDA5TSI                           FRI 07/04/97 11:28 Page:339
      9071**LABEL    9054--CALLALT
LWRITE_LEFTOVER_FAILED IN PROCEDURE SAVE_LEFTOVER
      8390**LABEL    8325--CALLALT
MAX_RECS_CAN_FIT IN PROCEDURE ADJUST_INCREMENT
      5837**DCL      6024<<ASSIGN   6031<<ASSIGN   6032<>CALL     6062>>ASSIGN   6068>>IF       6072<<ASSIGN
      6072>>ASSIGN   6075>>IF       6076>>ASSIGN   6077<<ASSIGN   6081<<ASSIGN   6081>>ASSIGN   6085<>CALL
      6101>>ASSIGN
MY_EOF_DELETED
      3389**DCL      4676<<ASSIGN   6570>>IF
NEW$BUFFER.BYTES IN PROCEDURE APPEND
      7499**DCL      7521<<ASSIGN
NEW$BUFFER.LENGTH# IN PROCEDURE APPEND
      7497**DCL      7499--IMP-SIZ  7520<<ASSIGN   7521>>ASSIGN
NEW_BUFFER$ IN PROCEDURE APPEND
      7327**DCL      7471--IMP-PTR  7518<>CALL     7520>>ASSIGN   7521>>ASSIGN   7521>>ASSIGN   7524>>ASSIGN
NEW_LENGTH IN PROCEDURE APPEND
      7324**DCL      7513<<ASSIGN   7514>>ASSIGN   7529>>ASSIGN   7532<>CALL
NEXT_LOWER_INCR IN PROCEDURE ADJUST_INCREMENT
      6147**PROC     6021--CALL     6050--CALL
NOTHING_COPIED
      5200**LABEL    4995--GOTO
NOT_COPIED_RANGE IN PROCEDURE ABORT_INSERTION
      6837**DCL      7179<<ASSIGN   7215<>CALL
NOT_COPIED_RANGE.ENDD.KEY IN PROCEDURE ABORT_INSERTION
      6891**DCL      7212<<ASSIGN
NOT_COPIED_RANGE.ENDD.KEY.V$ IN PROCEDURE ABORT_INSERTION
      6893**DCL      7212<>CALL
NOT_COPIED_RANGE.START.KEY IN PROCEDURE ABORT_INSERTION
      6863**DCL      7195<<ASSIGN
NOT_COPIED_RANGE.START.KEY.V$ IN PROCEDURE ABORT_INSERTION
      6865**DCL      7195<>CALL
NOT_COPIED_RANGE.START.POSITION# IN PROCEDURE ABORT_INSERTION
      6867**DCL      7180<<ASSIGN
OALLOC_ERR_FAILED IN PROCEDURE SAVE_LEFTOVER
      8407**LABEL    8379--CALLALT
OALLOC_FAILED IN PROCEDURE APPEND
PL6.E3A0      #003=VDI$BINSERT File=VDI$BLOCK.:VDA5TSI                           FRI 07/04/97 11:28 Page:340
      7538**LABEL    7518--CALLALT
OALLOC_FAILED IN PROCEDURE PREPARE_DESTINATION
      6703**LABEL    6573--CALLALT
OALLOC_FAILED IN PROCEDURE SAVE_LEFTOVER
      8400**LABEL    8313--CALLALT  8336--CALLALT
OALLOC_FAILED IN PROCEDURE SAVE_NOT_COPIED
      9085**LABEL    9004--CALLALT  9068--CALLALT
OCLEAR_LOCATION_FAILED
      5240**LABEL    4719--CALLALT  4874--CALLALT  5202--CALLALT
OCLEAR_LOCATION_FAILED IN PROCEDURE ABORT_INSERTION
      7248**LABEL    7112--CALLALT
OCLEAR_LOCATION_FAILED IN PROCEDURE SET_DEST_END
      5546**LABEL    5463--CALLALT  5496--CALLALT
OCOPY_LOCATION_FAILED
      5240**LABEL    4721--CALLALT  5048--CALLALT  5204--CALLALT
OCOPY_LOCATION_FAILED IN PROCEDURE ABORT_INSERTION
      7248**LABEL    7114--CALLALT
OCOPY_LOCATION_FAILED IN PROCEDURE SET_DEST_END
      5546**LABEL    5468--CALLALT
OCOPY_RANGE_FAILED IN PROCEDURE SAVE_NOT_COPIED
      9085**LABEL    9042--CALLALT
OFREE_FAILED
      5240**LABEL    4823--CALLALT
OFREE_FAILED IN PROCEDURE APPEND
      7538**LABEL    7522--CALLALT  7536--CALLALT
OFREE_FAILED IN PROCEDURE PREPARE_DESTINATION
      6703**LABEL    6509--CALLALT
OFREE_FAILED IN PROCEDURE SAVE_LEFTOVER
      8400**LABEL    8331--CALLALT
OPEN_OPTIONS IN PROCEDURE SAVE_LEFTOVER
      7642**DCL      8315<<ASSIGN   8319<>CALL     8359>>ASSIGN
OPEN_OPTIONS.EXIST# IN PROCEDURE SAVE_LEFTOVER
      7647**DCL      8318<<ASSIGN
OPEN_OPTIONS.PROTECT# IN PROCEDURE SAVE_LEFTOVER
      7646**DCL      8317<<ASSIGN
OPEN_OPTIONS.STRUCTURE$ IN PROCEDURE SAVE_LEFTOVER
PL6.E3A0      #003=VDI$BINSERT File=VDI$BLOCK.:VDA5TSI                           FRI 07/04/97 11:28 Page:341
      7646**DCL      8316<<ASSIGN
OUTSIDE_SRC_RANGE
      3290**DCL      4657<<ASSIGN   4662<<ASSIGN   4672>>ASSIGN   4683>>IF       4724>>IF       4842>>IF
      4908>>IF       5088>>IF       5114<<ASSIGN   6008>>IF       6027>>IF       6063>>IF
PFLUSH_FAILED IN PROCEDURE SAVE_LEFTOVER
      8382**LABEL    8366--CALLALT
PFLUSH_FAILED IN PROCEDURE SAVE_NOT_COPIED
      9079**LABEL    9057--CALLALT
PREPARE_DESTINATION
      6245**PROC     4755--CALL     4777--CALL
PREPARE_DESTINATION_FAILED
      5219**LABEL    4755--CALLALT  4777--CALLALT
PREVIOUS_SRC_EOR
      3390**DCL      5000<<ASSIGN   5127>>IF       5483>>IF       5523>>IF
RADJUST_LENGTH_FAILED IN PROCEDURE PREPARE_DESTINATION
      6703**LABEL    6541--CALLALT  6582--CALLALT
RANGE IN PROCEDURE SAVE_NOT_COPIED
      8467**DCL      8457--PROC     9042<>CALL
RANGE$ENDD_KEY.BYTES IN PROCEDURE ABORT_INSERTION
      6944**DCL      7168>>IF       7168>>IF
RANGE$ENDD_KEY.LENGTH# IN PROCEDURE ABORT_INSERTION
      6942**DCL      6944--IMP-SIZ  7168>>IF       7168>>IF
RANGE_ENDD_KEY$ IN PROCEDURE ABORT_INSERTION
      6900**DCL      6934--IMP-PTR  7164<<ASSIGN   7164<<ASSIGN   7168>>IF       7168>>IF       7168>>IF
      7168>>IF
RCCL
      3326**DCL      4841<<ASSIGN   4865<>CALL     4870>>IF
REC$TO_SAVE IN PROCEDURE SAVE_LEFTOVER
      7690**DCL      8325<>CALL
REC$TO_SAVE.LENGTH# IN PROCEDURE SAVE_LEFTOVER
      7716**DCL      7718--IMP-SIZ  8325>>CALL
RECORD
      3335**DCL      4668<<ASSIGN   4671>>ASSIGN   4991<>CALL     5104<>CALL     6473<>CALL     6541<>CALL
      6582<>CALL
RECORD.DATA$
      3367**DCL      3870--IMP-PTR  4669<<ASSIGN   4790>>IF       4791<<ASSIGN   4795<>CALL     4946>>DOWHILE
PL6.E3A0      #003=VDI$BINSERT File=VDI$BLOCK.:VDA5TSI                           FRI 07/04/97 11:28 Page:342
      4952>>ASSIGN   4987<>CALL     5118<<ASSIGN   5635>>IF       5636>>CALL     5636>>CALL     6385--IMP-PTR
      6509>>CALL     6509>>CALL     6512>>ASSIGN   6513<<ASSIGN   6568>>ASSIGN   6577>>ASSIGN   6577>>ASSIGN
      7095>>ASSIGN   7096<<ASSIGN
RECORD.EOR
      3367**DCL      4798<<ASSIGN   4947>>IF       4954<<ASSIGN   5106>>ASSIGN   5116<<ASSIGN   6514<<ASSIGN
      6560>>ASSIGN
RECORD.KEY
      3349**DCL      4773<>CALL     4967<<ASSIGN   4982<<ASSIGN   5036>>ASSIGN   5077>>ASSIGN   5097<<ASSIGN
      5109>>IF       5130>>ASSIGN   5145<<ASSIGN   5623<<ASSIGN   6447<<ASSIGN   6463<<ASSIGN   6486>>IF
      6516>>ASSIGN   6531<<ASSIGN   6671>>ASSIGN   6672<<ASSIGN   6680<<ASSIGN   6697<<ASSIGN
RECORD.KEY.REP#
      3351**DCL      4966>>IF       5036>>IF       5077>>IF       5096>>IF       5622>>IF       5957>>IF
      6482>>IF
RECORD.KEY.V$
      3351**DCL      4966>>CALL     4966>>CALL     4982<>CALL     5036>>CALL     5036>>CALL     5077>>CALL
      5077>>CALL     5096>>CALL     5096>>CALL     5145<>CALL     5622>>CALL     5622>>CALL     5957>>ASSIGN
      5957--ASSIGN   6463<>CALL     6482>>ASSIGN   6482--ASSIGN   6531<>CALL     6561--IF       6656--IF
      6697<>CALL
RECORD.SPEC
      3363**DCL      4786>>IF       4787<<ASSIGN   5633<<ASSIGN   6506<<ASSIGN
RECORD.SPEC.REP#
      3365**DCL      5632>>IF       6505>>IF
RECORD.SPEC.V$
      3365**DCL      5632>>CALL     5632>>CALL     6505>>CALL     6505>>CALL
RECORD$DATA
      3870**DCL      5636<>CALL
RECORD$DATA.LENGTH#
      3896**DCL      3898--IMP-SIZ  4952>>ASSIGN   5636>>CALL
RECORD$DATA IN PROCEDURE PREPARE_DESTINATION
      6385**DCL      6509<>CALL
RECORD$DATA.BYTES IN PROCEDURE PREPARE_DESTINATION
      6413**DCL      6577>>ASSIGN
RECORD$DATA.LENGTH# IN PROCEDURE PREPARE_DESTINATION
      6411**DCL      6413--IMP-SIZ  6509>>CALL     6568>>ASSIGN   6577>>ASSIGN
RECORD$KEY.BYTES# IN PROCEDURE ADJUST_INCREMENT
      5867**DCL      5963>>IF       5975>>ASSIGN
PL6.E3A0      #003=VDI$BINSERT File=VDI$BLOCK.:VDA5TSI                           FRI 07/04/97 11:28 Page:343
RECORD$KEY IN PROCEDURE PREPARE_DESTINATION
      6287**DCL      6486>>IF
RECORD$KEY.LENGTH# IN PROCEDURE PREPARE_DESTINATION
      6295**DCL      6297--IMP-SIZ  6486>>IF
RECORD_KEY$ IN PROCEDURE ADJUST_INCREMENT
      5833**DCL      5863--IMP-PTR  5957<<ASSIGN   5957<<ASSIGN   5963>>IF       5975>>ASSIGN
RECORD_KEY$ IN PROCEDURE PREPARE_DESTINATION
      6251**DCL      6287--IMP-PTR  6482<<ASSIGN   6482<<ASSIGN   6486>>IF       6486>>IF
REC_TO_SAVE$ IN PROCEDURE SAVE_LEFTOVER
      7599**DCL      7597--PROC     7690--IMP-PTR  8325>>CALL     8325>>CALL     8327<<ASSIGN
RGET_FAILED
      5219**LABEL    4728--CALLALT
RGET_FAILED IN PROCEDURE PREPARE_DESTINATION
      6703**LABEL    6473--CALLALT
RIGHT IN PROCEDURE APPEND
      7413**DCL      7536<>CALL
RIGHT.BYTES IN PROCEDURE APPEND
      7441**DCL      7530>>CALLBLT  7532<>CALL
RIGHT.LENGTH# IN PROCEDURE APPEND
      7439**DCL      7441--IMP-SIZ  7509>>IF       7513>>ASSIGN   7530>>CALLBLT  7532>>CALL     7536>>CALL
RIGHT$ IN PROCEDURE APPEND
      7323**DCL      7320--PROC     7413--IMP-PTR  7507>>IF       7509>>IF       7513>>ASSIGN   7530>>CALLBLT
      7530>>CALLBLT  7532>>CALL     7532>>CALL     7536>>CALL     7536>>CALL     7538<<ASSIGN
SAVE_ACCESSOR_PRIV IN PROCEDURE SAVE_LEFTOVER
      7602**DCL      8302<<ASSIGN   8369>>ASSIGN   8407>>ASSIGN
SAVE_ACCESSOR_PRIV IN PROCEDURE SAVE_NOT_COPIED
      8532**DCL      9045<<ASSIGN   9060>>ASSIGN   9085>>ASSIGN
SAVE_LEFTOVER
      7597**PROC     7099--CALL
SAVE_LEFTOVER_FAILED IN PROCEDURE ABORT_INSERTION
      7248**LABEL    7099--CALLALT
SAVE_NOT_COPIED
      8457**PROC     5200--CALL     7109--CALL     7215--CALL
SAVE_NOT_COPIED_FAILED
      5240**LABEL    5200--CALLALT
SAVE_NOT_COPIED_FAILED IN PROCEDURE ABORT_INSERTION
PL6.E3A0      #003=VDI$BINSERT File=VDI$BLOCK.:VDA5TSI                           FRI 07/04/97 11:28 Page:344
      7248**LABEL    7109--CALLALT  7215--CALLALT
SET_DEST_END
      5304**PROC     5180--CALL
SET_DEST_END_FAILED
      5219**LABEL    5180--CALLALT
SRC$BLOCK IN PROCEDURE SAVE_NOT_COPIED
      8601**DCL      9008<<ASSIGN
SRC$BLOCK.FILE_KEY IN PROCEDURE SAVE_NOT_COPIED
      8637**DCL      9022<<ASSIGN
SRC$BLOCK.FILE_KEY.V$ IN PROCEDURE SAVE_NOT_COPIED
      8639**DCL      9022<>CALL
SRC$BLOCK.OPTIONS.KEY_INCR IN PROCEDURE SAVE_NOT_COPIED
      8734**DCL      9039<<ASSIGN
SRC$BLOCK.OPTIONS.KEY_INCR.V$ IN PROCEDURE SAVE_NOT_COPIED
      8736**DCL      9039<>CALL
SRC$BLOCK.RANGE IN PROCEDURE SAVE_NOT_COPIED
      8651**DCL      9042<>CALL
SRC$EDIT_BLOCK
      3559**DCL      9008>>ASSIGN
SRC$EDIT_BLOCK.FILE_KEY
      3595**DCL      9022>>ASSIGN
SRC$EDIT_BLOCK.FILE_KEY.REP#
      3597**DCL      9022>>IF
SRC$EDIT_BLOCK.FILE_KEY.V$
      3597**DCL      9022>>CALL     9022>>CALL
SRC$EDIT_BLOCK.OPTIONS.KEY_INCR
      3692**DCL      9039>>ASSIGN
SRC$EDIT_BLOCK.OPTIONS.KEY_INCR.REP#
      3694**DCL      9039>>IF
SRC$EDIT_BLOCK.OPTIONS.KEY_INCR.V$
      3694**DCL      9039>>CALL     9039>>CALL
SRC$END_KEY.BYTES IN PROCEDURE ADJUST_INCREMENT
      5910**DCL      6007>>IF       6048>>IF       6066>>IF
SRC$END_KEY.LENGTH# IN PROCEDURE ADJUST_INCREMENT
      5908**DCL      5910--IMP-SIZ  6007>>IF       6048>>IF       6066>>IF
SRC$START_KEY.BYTES IN PROCEDURE ADJUST_INCREMENT
PL6.E3A0      #003=VDI$BINSERT File=VDI$BLOCK.:VDA5TSI                           FRI 07/04/97 11:28 Page:345
      5887**DCL      6007>>IF
SRC$START_KEY.LENGTH# IN PROCEDURE ADJUST_INCREMENT
      5885**DCL      5887--IMP-SIZ  6007>>IF
SRC$STREAM_KEY.BYTES IN PROCEDURE ADJUST_INCREMENT
      5933**DCL      6048>>IF       6066>>IF
SRC$STREAM_KEY.LENGTH# IN PROCEDURE ADJUST_INCREMENT
      5931**DCL      5933--IMP-SIZ  6048>>IF       6066>>IF
SRC_BLOCK$ IN PROCEDURE SAVE_NOT_COPIED
      8531**DCL      8601--IMP-PTR  9006<<ASSIGN   9008>>ASSIGN   9022>>ASSIGN   9022>>CALL     9039>>ASSIGN
      9039>>CALL     9042>>CALL
SRC_END_KEY$ IN PROCEDURE ADJUST_INCREMENT
      5835**DCL      5900--IMP-PTR  6001<<ASSIGN   6001<<ASSIGN   6005<<ASSIGN   6007>>IF       6007>>IF
      6048>>IF       6048>>IF       6066>>IF       6066>>IF
SRC_EOR
      3391**DCL      4799<<ASSIGN   5000>>ASSIGN   5043>>IF       5099<<ASSIGN   5106<<ASSIGN
SRC_FILE_KEY$
      3324**DCL      4850<<ASSIGN   4850<<ASSIGN   4863>>IF       4863>>IF
SRC_KEY_OF_RECORD
      3442**DCL      4673<<ASSIGN   4743<<ASSIGN   5011>>ASSIGN   5012<<ASSIGN   5130<<ASSIGN   5658<<ASSIGN
SRC_KEY_OF_RECORD.REP#
      3446**DCL      5657>>IF
SRC_KEY_OF_RECORD.V$
      3446**DCL      4743<>CALL     5657>>CALL     5657>>CALL
SRC_LEVEL
      3323**DCL      4713<<ASSIGN   4894>>ASSIGN   4894>>ASSIGN   4894>>IF       4894>>CALL     4894>>CALL
      4894>>CALL     4897>>ASSIGN   4897>>ASSIGN   5991>>IF       5991>>ASSIGN   5991>>ASSIGN   6001>>IF
      6001>>ASSIGN   6001>>ASSIGN   6044>>IF       6044>>ASSIGN   6044>>ASSIGN   6095>>IF       6095>>ASSIGN
      6095>>ASSIGN   7138>>ASSIGN   7138>>CALL     7153>>IF       7153>>ASSIGN   7153>>ASSIGN   7164>>IF
      7164>>ASSIGN   7164>>ASSIGN   7195>>ASSIGN   7195>>ASSIGN   7195>>IF       7195>>CALL     7195>>CALL
      7195>>CALL     7212>>ASSIGN   7212>>ASSIGN   7212>>IF       7212>>CALL     7212>>CALL     7212>>CALL
      7227>>IF       7227>>CALL     7227>>CALL     7228>>ASSIGN   7244>>ASSIGN   7244>>ASSIGN   7244>>IF
      7244>>CALL     7244>>CALL     7244>>CALL
SRC_LOC IN PROCEDURE ABORT_INSERTION
      6809**DCL      7123<<ASSIGN   7142<>CALL
SRC_LOC.KEY IN PROCEDURE ABORT_INSERTION
      6823**DCL      7138<<ASSIGN
PL6.E3A0      #003=VDI$BINSERT File=VDI$BLOCK.:VDA5TSI                           FRI 07/04/97 11:28 Page:346
SRC_LOC.KEY.V$ IN PROCEDURE ABORT_INSERTION
      6825**DCL      7138<>CALL
SRC_RANGE
      2582**DCL       200--PROC     4660--ENTRY    4728<>CALL     5104<>CALL     5200<>CALL     7109<>CALL
      7179>>ASSIGN
SRC_RANGE.ENDD
      2624**DCL      4865<>CALL     4872<>CALL     4874<>CALL     5202<>CALL     5204<>CALL     7112<>CALL
      7114<>CALL
SRC_RANGE.ENDD.EOF
      2640**DCL      4870>>IF       4877<<ASSIGN   6004>>IF       6508>>IF       7247<<ASSIGN
SRC_RANGE.ENDD.KEY
      2636**DCL      4894<<ASSIGN   4897--ASSIGN   4897--ASSIGN   7212>>ASSIGN   7228<<ASSIGN   7244<<ASSIGN
SRC_RANGE.ENDD.KEY.REP#
      2638**DCL      6001>>IF       7164>>IF       7212>>IF       7227>>IF
SRC_RANGE.ENDD.KEY.V$
      2638**DCL      4894<>CALL     6001>>ASSIGN   6001--ASSIGN   7164>>ASSIGN   7164--ASSIGN   7212>>CALL
      7212>>CALL     7227>>CALL     7227>>CALL     7244<>CALL
SRC_RANGE.ENDD.POSITION#
      2640**DCL      4842>>IF       6508>>IF       6561>>IF       7168>>IF       7248<<ASSIGN
SRC_RANGE.START
      2596**DCL      4726<>CALL     4909<>CALL     5204<>CALL     6032<>CALL     6085<>CALL     7114<>CALL
SRC_RANGE.START.EOF
      2612**DCL      4876>>IF       5981>>IF
SRC_RANGE.START.KEY.REP#
      2610**DCL      5991>>IF
SRC_RANGE.START.KEY.V$
      2610**DCL      5991>>ASSIGN   5991--ASSIGN
SRC_START_KEY$ IN PROCEDURE ADJUST_INCREMENT
      5834**DCL      5877--IMP-PTR  5991<<ASSIGN   5991<<ASSIGN   6007>>IF       6007>>IF       6025>>ASSIGN
SRC_STREAM
      2651**DCL       200--PROC     4660--ENTRY    4726<>CALL     4728<>CALL     4872<>CALL     4909<>CALL
      5102<>CALL     5104<>CALL     6032<>CALL     6085<>CALL     7142<>CALL
SRC_STREAM.CURRENT.EOF
      2718**DCL      6034>>IF       6066>>IF       7168>>IF       7247>>ASSIGN
SRC_STREAM.CURRENT.KEY
      2714**DCL      4894>>ASSIGN   7195>>ASSIGN   7244>>ASSIGN
PL6.E3A0      #003=VDI$BINSERT File=VDI$BLOCK.:VDA5TSI                           FRI 07/04/97 11:28 Page:347
SRC_STREAM.CURRENT.KEY.REP#
      2716**DCL      4894>>IF       6044>>IF       6095>>IF       7153>>IF       7195>>IF       7244>>IF
SRC_STREAM.CURRENT.KEY.V$
      2716**DCL      4894>>CALL     4894>>CALL     6044>>ASSIGN   6044--ASSIGN   6095>>ASSIGN   6095--ASSIGN
      7153>>ASSIGN   7153--ASSIGN   7195>>CALL     7195>>CALL     7244>>CALL     7244>>CALL
SRC_STREAM.FILE_KEY.REP#
      2690**DCL      4850>>IF
SRC_STREAM.FILE_KEY.V$
      2690**DCL      4850>>ASSIGN   4850--ASSIGN
SRC_STREAM_KEY$ IN PROCEDURE ADJUST_INCREMENT
      5838**DCL      5923--IMP-PTR  6025<<ASSIGN   6044<<ASSIGN   6044<<ASSIGN   6048>>IF       6048>>IF
      6066>>IF       6066>>IF       6095<<ASSIGN   6095<<ASSIGN
STREAM$KEY.BYTES IN PROCEDURE ABORT_INSERTION
      6921**DCL      7168>>IF       7168>>IF
STREAM$KEY.LENGTH# IN PROCEDURE ABORT_INSERTION
      6919**DCL      6921--IMP-SIZ  7168>>IF       7168>>IF
STREAM_KEY$ IN PROCEDURE ABORT_INSERTION
      6899**DCL      6911--IMP-PTR  7153<<ASSIGN   7153<<ASSIGN   7168>>IF       7168>>IF       7168>>IF
      7168>>IF
TABLE_INDEX IN PROCEDURE NEXT_LOWER_INCR
      6158**DCL      6161<<DOINDEX  6162>>IF       6165>>ASSIGN
THE_TOP
      4662**LABEL    4658--GOTO
VD$BUFFER
      4250**DCL      4823<>CALL
VD$BUFFER.LENGTH#
      4276**DCL      4278--IMP-SIZ  4823>>CALL
VD$BUFFER.LENGTH# IN PROCEDURE ABORT_INSERTION
      7000**DCL      7002--IMP-SIZ
VD$BUFFER.LENGTH# IN PROCEDURE SAVE_LEFTOVER
      8289**DCL      8291--IMP-SIZ
VD$BUFFER.LENGTH# IN PROCEDURE SAVE_NOT_COPIED
      8897**DCL      8899--IMP-SIZ
VD$BUFFER_HEADER
      4291**DCL      6571--ASSIGN   7040--CALL     7045--ASSIGN   7514--ASSIGN
VD$ERR
PL6.E3A0      #003=VDI$BINSERT File=VDI$BLOCK.:VDA5TSI                           FRI 07/04/97 11:28 Page:348
      3969**DCL      7029--ASSIGN
VD$ERR.ERR.CODE#
      4008**DCL      7027<<ASSIGN   8381<<ASSIGN   9070<<ASSIGN
VD$ERR.FLAGLEV#
      4011**DCL      7028<<ASSIGN   8382<<ASSIGN   9071<<ASSIGN
VD$FILE_NODE.DESC.SPEC.V$
      4406**DCL      4681>>ASSIGN   4684>>ASSIGN
VD$IT_BLOCK_EXPR.OPTIONS
      4607**DCL      4684>>ASSIGN
VD$KEY IN PROCEDURE ABORT_INSERTION
      7015**DCL      7040--CALL     7060<<ASSIGN   7065--ASSIGN   7079<<ASSIGN
VD$KEY.V$ IN PROCEDURE ABORT_INSERTION
      7019**DCL      7060<>CALL     7079<>CALL
VD$KEY_NUMBER.BYTES#
      4124**DCL      4768<<ASSIGN   4897<<ASSIGN   4897>>ASSIGN
VD$PORT IN PROCEDURE SAVE_LEFTOVER
      8148**DCL      8366<>CALL
VD$PORT IN PROCEDURE SAVE_NOT_COPIED
      8912**DCL      9057<>CALL
VD$TEXTC.BYTES
      4145**DCL      4863>>IF       4863>>IF
VD$TEXTC.LENGTH#
      4143**DCL      4145--IMP-SIZ  4863>>IF       4863>>IF
VD$TEXTC_NUMBER
      4158**DCL      6561>>IF       6561>>IF       6656>>IF       6656>>IF
VD$TEXTC_REMOTE
      4189**DCL      4709<>CALL     4743<>CALL     4809<>CALL     4819<>CALL     4894<>CALL     4966<>CALL
      4982<>CALL     5008<>CALL     5020<>CALL     5036<>CALL     5060<>CALL     5077<>CALL     5096<>CALL
      5145<>CALL     5478<>CALL     5611<>CALL     5622<>CALL     5632<>CALL     5647<>CALL     5657<>CALL
      5667<>CALL     5677<>CALL     6463<>CALL     6505<>CALL     6531<>CALL     6603<>CALL     6639<>CALL
      6668<>CALL     6697<>CALL     7060<>CALL     7079<>CALL     7138<>CALL     7195<>CALL     7212<>CALL
      7227<>CALL     7244<>CALL     8355<>CALL     9022<>CALL     9039<>CALL
VD$TEXTC_REMOTE.LENGTH#
      4218**DCL      4220--IMP-SIZ  4709>>CALL     4743>>CALL     4809>>CALL     4819>>CALL     4850--ASSIGN
      4860--ASSIGN   4894>>CALL     4966>>CALL     4982>>CALL     5008>>CALL     5020>>CALL     5036>>CALL
      5060>>CALL     5077>>CALL     5096>>CALL     5145>>CALL     5478>>CALL     5491--ASSIGN   5611>>CALL
PL6.E3A0      #003=VDI$BINSERT File=VDI$BLOCK.:VDA5TSI                           FRI 07/04/97 11:28 Page:349
      5622>>CALL     5632>>CALL     5647>>CALL     5657>>CALL     5667>>CALL     5677>>CALL     5957--ASSIGN
      5972--ASSIGN   5991--ASSIGN   6001--ASSIGN   6044--ASSIGN   6095--ASSIGN   6434--ASSIGN   6463>>CALL
      6482--ASSIGN   6505>>CALL     6531>>CALL     6603>>CALL     6639>>CALL     6668>>CALL     6697>>CALL
      7060>>CALL     7079>>CALL     7138>>CALL     7153--ASSIGN   7164--ASSIGN   7195>>CALL     7212>>CALL
      7227>>CALL     7244>>CALL     8355>>CALL     9022>>CALL     9039>>CALL
VD$WINDOW_SPEC.OPERAND.EDIT_BLOCK$
      4461**DCL      4681>>ASSIGN
VD$WINDOW_SPEC.OPERAND.INTREE$
      4461**DCL      4684>>ASSIGN
VDA$FCLOSE
      2929**DCL-ENT  8329--CALL     8390--CALL
VDA$FOPEN
      2928**DCL-ENT  8319--CALL
VDA$LREAD
      2926**DCL-ENT  4726--CALL     4872--CALL     4909--CALL     5102--CALL     6032--CALL     6085--CALL
      6444--CALL     6471--CALL     6586--CALL     6674--CALL     7142--CALL
VDA$LWRITE
      2927**DCL-ENT  8325--CALL     8363--CALL     9054--CALL
VDA$PFLUSH
      2930**DCL-ENT  8366--CALL     9057--CALL
VDE$RADJUST_LENGTH
      2934**DCL-ENT  6541--CALL     6582--CALL
VDE$RGET
      2932**DCL-ENT  4728--CALL     5104--CALL     6473--CALL
VDE$RPUT
      2933**DCL-ENT  4991--CALL
VDG$COMPARE_LOCS
      2942**DCL-ENT  4865--CALL
VDG$EREPORT_ERROR
      2943**DCL-ENT  7082--CALL     8383--CALL     9072--CALL
VDG$ESCREECH
      2944**DCL-ENT  5128--CALL     7038--CALL     7532--CALL
VDG$OALLOC
      2935**DCL-ENT  6573--CALL     7025--CALL     7040--CALL     7518--CALL     8313--CALL     8336--CALL
      8379--CALL     9004--CALL     9068--CALL
VDG$OCLEAR_LOCATION
PL6.E3A0      #003=VDI$BINSERT File=VDI$BLOCK.:VDA5TSI                           FRI 07/04/97 11:28 Page:350
      2940**DCL-ENT  4719--CALL     4874--CALL     5202--CALL     5463--CALL     5496--CALL     7112--CALL
VDG$OCOPY
      2937**DCL-ENT  4709--CALL     4743--CALL     4894--CALL     4982--CALL     5036--CALL     5077--CALL
      5145--CALL     6463--CALL     6531--CALL     6603--CALL     6639--CALL     6697--CALL     7060--CALL
      7079--CALL     7138--CALL     7195--CALL     7212--CALL     7244--CALL     8355--CALL     9022--CALL
      9039--CALL
VDG$OCOPY_LOCATION
      2939**DCL-ENT  4721--CALL     5048--CALL     5204--CALL     5468--CALL     7114--CALL
VDG$OCOPY_RANGE
      2938**DCL-ENT  9042--CALL
VDG$OFREE
      2936**DCL-ENT  4809--CALL     4819--CALL     4823--CALL     4966--CALL     5008--CALL     5020--CALL
      5060--CALL     5096--CALL     5478--CALL     5611--CALL     5622--CALL     5632--CALL     5636--CALL
      5647--CALL     5657--CALL     5667--CALL     5677--CALL     6505--CALL     6509--CALL     6668--CALL
      7227--CALL     7522--CALL     7536--CALL     8331--CALL     8397--CALL     8401--CALL     9080--CALL
VDG$XLATE_LOCATIONS
      2941**DCL-ENT  5544--CALL
VDI$BAUTO_REKEY
      2931**DCL-ENT  4773--CALL
VD_$BY.V#
      3207**DCL      5946>>IF       5946>>ASSIGN
VD_$RECORDS_INSERTED.V#
      3252**DCL      4665<<ASSIGN   4943<<ASSIGN   5042<<ASSIGN   5042>>ASSIGN
VD_$REKEY.V#
      3162**DCL      4766>>IF
VD_6E.ERR_TAIL$
      2979**DCL      4022--IMP-PTR  5219>>IF
VD_6E.LOCATIONS$
      2960**DCL      8042--IMP-PTR  8363>>CALL     8366>>CALL     8748--IMP-PTR  9054>>CALL     9057>>CALL
VD_6E.SOURCE.OPERAND.EDIT_BLOCK$
      2976**DCL      3559--IMP-PTR  4691>>ASSIGN   9008>>ASSIGN   9022>>ASSIGN   9022>>IF       9022>>CALL
      9022>>CALL     9039>>ASSIGN   9039>>IF       9039>>CALL     9039>>CALL
VD_6E.SOURCE.OPERAND.STREAM$
      2976**DCL      4680>>IF
VD_6E.STRUCTURE_SCRATCH$
      2962**DCL      8316>>ASSIGN
PL6.E3A0      #003=VDI$BINSERT File=VDI$BLOCK.:VDA5TSI                           FRI 07/04/97 11:28 Page:351
VD_ACCESSOR_PRIV
      2984**DCL      8302>>ASSIGN   8303<<ASSIGN   8369<<ASSIGN   8407<<ASSIGN   9045>>ASSIGN   9046<<ASSIGN
      9060<<ASSIGN   9085<<ASSIGN
VD_CMD_OBJECTS$
      2999**DCL      7033>>DOWHILE  7040<>CALL     7045>>ASSIGN
VD_CURRENT_WINDOW$
      2983**DCL      4681>>ASSIGN   4684>>ASSIGN
VD_EOF_DELETED
      3000**DCL      4676>>ASSIGN   4677<<ASSIGN
VD_ERR$
      3546**DCL      3969--IMP-PTR  7025<>CALL     7027>>ASSIGN   7028>>ASSIGN   7029>>ASSIGN   8379<>CALL
      8381>>ASSIGN   8382>>ASSIGN   9068<>CALL     9070>>ASSIGN   9071>>ASSIGN
VD_KEY_MN_EDITKEY
      3265**DCL      6447>>ASSIGN   6680>>ASSIGN
VD_KEY_MN_EDITKEY.LENGTH#
      3269**DCL      6561--IF       6656--IF
VD_KEY_MX_EDITKEY
      3280**DCL      6623>>ASSIGN
VD_KEY_MX_EDITKEY.LENGTH#
      3284**DCL      6005--ASSIGN
VD_KEY_NUMERIC_BOF
      2993**DCL      8324>>ASSIGN   8355>>ASSIGN
VD_KEY_NUMERIC_BOF.REP#
      2997**DCL      8355>>IF
VD_KEY_NUMERIC_BOF.V$
      2997**DCL      8355>>CALL     8355>>CALL
VD_KEY_SCRATCH_LEFTOVER
      3058**DCL      8319<>CALL     8340>>ASSIGN
VD_LOC_$LEFTOVER
      3072**DCL      8363<>CALL
VD_LOC_$NOT_COPIED
      3100**DCL      9054<>CALL
XLATE$LOC IN PROCEDURE SET_DEST_END
      5331**DCL      5512<<ASSIGN   5544<>CALL
XLATE$LOC.FILE_KEY IN PROCEDURE SET_DEST_END
      5368**DCL      5513<<ASSIGN
PL6.E3A0      #003=VDI$BINSERT File=VDI$BLOCK.:VDA5TSI                           FRI 07/04/97 11:28 Page:352
XLATE$LOC.FLINK$ IN PROCEDURE SET_DEST_END
      5357**DCL      5520<<ASSIGN
XLATE$LOC.LEVEL# IN PROCEDURE SET_DEST_END
      5372**DCL      5514<<ASSIGN
XLATE$LOC.N_ENTRIES# IN PROCEDURE SET_DEST_END
      5357**DCL      5521<<ASSIGN
XLATE$LOC.PREFIX.KEY IN PROCEDURE SET_DEST_END
      5395**DCL      5515<<ASSIGN   5519<<ASSIGN
XLATE$LOC.XLATES.NEW_KEY IN PROCEDURE SET_DEST_END
      5453**DCL      5522<<ASSIGN   5537>>ASSIGN
XLATE$LOC.XLATES.NEW_POS# IN PROCEDURE SET_DEST_END
      5457**DCL      5539<<ASSIGN
XLATE$LOC.XLATES.NEW_POS_INCR# IN PROCEDURE SET_DEST_END
      5457**DCL      5540<<ASSIGN
XLATE$LOC.XLATES.OLD_KEY_HI IN PROCEDURE SET_DEST_END
      5438**DCL      5538<<ASSIGN
XLATE$LOC.XLATES.OLD_KEY_LO IN PROCEDURE SET_DEST_END
      5424**DCL      5530<<ASSIGN   5537<<ASSIGN   5538>>ASSIGN
XLATE$LOC.XLATES.OLD_POS_HI# IN PROCEDURE SET_DEST_END
      5442**DCL      5529<<ASSIGN
XLATE$LOC.XLATES.OLD_POS_LO# IN PROCEDURE SET_DEST_END
      5442**DCL      5528<<ASSIGN

