PL6.E3A0      #004=VDI$BTYPE File=VDI$BLOCK.:VDA5TSI                             FRI 07/04/97 11:29 Page:353
     2618        1        /*T***********************************************************/
     2619        2        /*T*                                                         */
     2620        3        /*T* Copyright (c) Bull HN Information Systems Inc., 1997    */
     2621        4        /*T*                                                         */
     2622        5        /*T***********************************************************/
     2623        6
     2624        7        /*D*  NAME: VDI$BTYPE
     2625        8            PARAMETERS:
     2626        9                RANGE - VD$RANGE to classify.
     2627       10                BDT - Uninitialized word.
     2628       11                EDIT_BLOCK - EditBlock which encloses RANGE.
     2629       12            INPUT:
     2630       13                None.
     2631       14            OUTPUT:
     2632       15                BDT will contain the %BDT_xxx code appropriate for RANGE.
     2633       16            DESCRIPTION:
     2634       17                Examine RANGE and determine its type.  Return the appropriate
     2635       18                %BDT_ code, as shown in the following table ("d.c." means "don't care"):
     2636       19
     2637       20        start  end   start  end   startKey  start    end        Return
     2638       21        >BOF   >BOF  <EOF   <EOF  =endKey   postn>0  postn>0    %BDT_ ...
     2639       22        -----  ----  -----  ----  --------  -------  -------    ----------------------
     2640       23         yes   yes    yes   yes     no       yes      yes        2_REC_POS_NON
     2641       24         yes   yes    yes   yes     no       yes      no         2_REC_SPOS_NON_EPOS_0
     2642       25         yes   yes    yes   yes     no       no       yes        2_REC_SPOS_0_EPOS_NON
     2643       26         yes   yes    yes   yes     no       no       no         2_REC_POS_0
     2644       27         yes   yes    yes   yes     yes      yes      yes        1_REC_POS_NON
     2645       28         yes   yes    yes   yes     yes      yes      no  (error)1_REC_SPOS_NON_EPOS_0
     2646       29         yes   yes    yes   yes     yes      no       yes        1_REC_SPOS_0_EPOS_NON
     2647       30         yes   yes    yes   yes     yes      no       no         1_REC_POS_0
     2648       31         yes   yes    yes   no      d.c.     yes      d.c.       SPOS_NON_EOF
     2649       32         yes   yes    yes   no      d.c.     no       d.c.       SPOS_0_EOF
     2650       33         yes   yes    no    yes     d.c.     d.c.     d.c.(error)EOF_NOT_EOF
     2651       34         yes   yes    no    no      d.c.     d.c.     d.c.       EOF_EOF
     2652       35         yes   no     d.c.  d.c.    d.c.     d.c.     d.c.(error)NOT_BOF_BOF
     2653       36         no    yes    d.c.  yes     d.c.     d.c.     yes        BOF_EPOS_NON
     2654       37         no    yes    d.c.  yes     d.c.     d.c.     no         BOF_EPOS_0
PL6.E3A0      #004=VDI$BTYPE File=VDI$BLOCK.:VDA5TSI                             FRI 07/04/97 11:29 Page:354
     2655       38         no    yes    d.c.  no      d.c.     d.c.     d.c.       BOF_EOF
     2656       39         no    no     d.c.  d.c.    d.c.     d.c.     d.c.       BOF_BOF
     2657       40        */
     2658       41
     2659       42        VDI$BTYPE: PROC (RANGE, BDT_TYPE, EDIT_BLOCK) ALTRET;
     2660       43
     2661       44        %INCLUDE VD_MACROS_M;
     2662     2259        %INCLUDE VD_PERR_C;
     2663     2407
     2664     2408
     2665     2409        %VD$RANGE (NAME=RANGE, STCLASS=PARAM);
     2666     2478        %VD$BLOCK_DESC (NAME=EDIT_BLOCK, STCLASS=PARAM);
     2667     2625    1   DCL BDT_TYPE UBIN;
     2668     2626
     2669     2627
     2670     2628    1   DCL VDG$OCOPY_LOCATION    ENTRY (2) ALTRET;
     2671     2629
     2672     2630        %VD$KEY (NAME=VD_KEY_NUMERIC_BOF, STCLASS=SYMREF);
     2673     2644
     2674     2645
     2675     2646
     2676     2647    1   DCL START_KEY$ PTR;
     2677     2648    1   DCL END_KEY$ PTR;
     2678     2649    1   DCL BLOCK_ENDD_KEY$ PTR;
     2679     2650    1   DCL BOF_KEY$ PTR;
     2680     2651    1   DCL 1 POS#,
     2681     2652    1         2 START SBIN HALF UNAL,
     2682     2653    1         2 ENDD SBIN HALF UNAL;
     2683     2654
     2684     2655
     2685     2656        %VD$TEXTC (NAME=START$KEY, STCLASS="BASED(START_KEY$)");
     2686     2679        %VD$TEXTC (NAME=END$KEY, STCLASS="BASED(END_KEY$)");
     2687     2702        %VD$TEXTC (NAME=BLOCK$ENDD_KEY, STCLASS="BASED(BLOCK_ENDD_KEY$)");
     2688     2725        %VD$TEXTC (NAME=BOF$KEY, STCLASS="BASED(BOF_KEY$)");
     2689     2748        %VD$TEXTC_REMOTE;
     2690     2809
     2691     2810
PL6.E3A0      #004=VDI$BTYPE File=VDI$BLOCK.:VDA5TSI                             FRI 07/04/97 11:29 Page:355
     2692     2811
     2693     2812                %GETKEY (KEY=RANGE.START.KEY, INDX="%(LVL_EXT_REC-1)", PTR=START_KEY$);
     2694     2822                %GETKEY (KEY=RANGE.ENDD.KEY, INDX="%(LVL_EXT_REC-1)", PTR=END_KEY$);
     2695     2832                %GETKEY (KEY=VD_KEY_NUMERIC_BOF, PTR=BOF_KEY$);
     2696     2842                %GETKEY (KEY=EDIT_BLOCK.RANGE.ENDD.KEY, INDX="%(LVL_EXT_REC-1)",
     2697     2843                PTR=BLOCK_ENDD_KEY$);
     2698     2853    1           POS#.START = MAXIMUM (RANGE.START.POSITION#, 0);
     2699     2854    1           IF RANGE.START.EOF THEN POS#.START = -1;
     2700     2855    1           POS#.ENDD = MAXIMUM (RANGE.ENDD.POSITION#, 0);
     2701     2856    1           IF RANGE.ENDD.EOF
     2702     2857    1             OR (END$KEY.BYTES >= BLOCK$ENDD_KEY.BYTES
     2703     2858    1             AND EDIT_BLOCK.RANGE.ENDD.POSITION# = 0
     2704     2859    1             AND NOT EDIT_BLOCK.RANGE.ENDD.EOF) THEN POS#.ENDD = -1;
     2705     2860
     2706     2861    1           IF START$KEY.BYTES = BOF$KEY.BYTES AND POS#.START = 0 THEN
     2707     2862    2   START_IS_BOF: DO;
     2708     2863    2              IF END$KEY.BYTES = BOF$KEY.BYTES AND POS#.ENDD = 0 THEN
     2709     2864    2                 BDT_TYPE = %BDT_BOF_BOF;
     2710     2865    2              ELSE
     2711     2866    2                 IF POS#.ENDD < 0 THEN
     2712     2867    2                    BDT_TYPE = %BDT_BOF_EOF;
     2713     2868    2                 ELSE
     2714     2869    2                    IF POS#.ENDD = 0 THEN
     2715     2870    2                       BDT_TYPE = %BDT_BOF_EPOS_0;
     2716     2871    2                    ELSE
     2717     2872    2                       BDT_TYPE = %BDT_BOF_EPOS_NON;
     2718     2873    2              END START_IS_BOF;
     2719     2874    1           ELSE
     2720     2875    1              IF END$KEY.BYTES = BOF$KEY.BYTES AND POS#.ENDD = 0 THEN
     2721     2876    1                 BDT_TYPE = %BDT_NOT_BOF_BOF;  /* Error */
     2722     2877    1              ELSE
     2723     2878    1                 IF POS#.START < 0 THEN
     2724     2879    1                    IF POS#.ENDD < 0 THEN
     2725     2880    1                       BDT_TYPE = %BDT_EOF_EOF;
     2726     2881    1                    ELSE
     2727     2882    1                       BDT_TYPE = %BDT_EOF_NOT_EOF;  /* Error */
     2728     2883    1                 ELSE
PL6.E3A0      #004=VDI$BTYPE File=VDI$BLOCK.:VDA5TSI                             FRI 07/04/97 11:29 Page:356
     2729     2884    1                    IF POS#.ENDD < 0 THEN
     2730     2885    1                       IF POS#.START = 0 THEN
     2731     2886    1                          BDT_TYPE = %BDT_SPOS_0_EOF;
     2732     2887    1                       ELSE
     2733     2888    1                          BDT_TYPE = %BDT_SPOS_NON_EOF;
     2734     2889    1                    ELSE
     2735     2890    1                       IF START$KEY.BYTES = END$KEY.BYTES THEN
     2736     2891    1                          IF POS#.START = 0 THEN
     2737     2892    1                             IF POS#.ENDD = 0 THEN
     2738     2893    1                                BDT_TYPE = %BDT_1_REC_POS_0;
     2739     2894    1                             ELSE
     2740     2895    1                                BDT_TYPE = %BDT_1_REC_SPOS_0_EPOS_NON;
     2741     2896    1                          ELSE
     2742     2897    1                             IF POS#.ENDD = 0 THEN
     2743     2898    1                                BDT_TYPE = %BDT_1_REC_SPOS_NON_EPOS_0;
     2744     2899    1                             ELSE
     2745     2900    1                                BDT_TYPE = %BDT_1_REC_POS_NON;
     2746     2901    1                       ELSE
     2747     2902    1                          IF POS#.START = 0 THEN
     2748     2903    1                             IF POS#.ENDD = 0 THEN
     2749     2904    1                                BDT_TYPE = %BDT_2_REC_POS_0;
     2750     2905    1                             ELSE
     2751     2906    1                                BDT_TYPE = %BDT_2_REC_SPOS_0_EPOS_NON;
     2752     2907    1                          ELSE
     2753     2908    1                             IF POS#.ENDD = 0 THEN
     2754     2909    1                                BDT_TYPE = %BDT_2_REC_SPOS_NON_EPOS_0;
     2755     2910    1                             ELSE
     2756     2911    1                                BDT_TYPE = %BDT_2_REC_POS_NON;
     2757     2912
     2758     2913    1           RETURN;
     2759     2914
     2760     2915
     2761     2916    1   END VDI$BTYPE;

PL6.E3A0      #004=VDI$BTYPE File=VDI$BLOCK.:VDA5TSI                             FRI 07/04/97 11:29 Page:357
--  Include file information  --

   VD_PERR_C.:VDA5TOU  is referenced.
   VD_MACROS_M.:VDA5TOU  is referenced.
   B$JIT_C.:E04TOU  was found in the system file and is never referenced.
   CP_6_C.:E04TOU  was found in the system file and is never referenced.
      No diagnostics issued in procedure VDI$BTYPE.

   Procedure VDI$BTYPE requires 213 words for executable code.
   Procedure VDI$BTYPE requires 12 words of local(AUTO) storage.

    No errors detected in file VDI$BLOCK.:VDA5TSI    .

PL6.E3A0      #004=VDI$BTYPE File=VDI$BLOCK.:VDA5TSI                             FRI 07/04/97 11:29 Page:358

 Object Unit name= VDI$BTYPE                                  File name= VDI$BLOCK.:VDA5TOU
 UTS= JUL 04 '97 11:29:37.08 FRI                              Compiler= PL-6/E31         Sev=      00
 SharedLib= :SHARED_SYSTEM                                    Alt SharedLib=


    ****  Control sections  ****

 Sect   Type Bound  Init  Size OctSiz  Section name(segment info)
    0   Proc  even  none   213    325  VDI$BTYPE
    1  RoData even  none     1      1  VDI$BTYPE

    ****  Entry defs  ****

                              Check   Calling
                             calling  sequence
  Sect OctLoc Primary Altret sequence   type   Parms  Name
     0      0   yes    yes     yes      Std        3  VDI$BTYPE

  ****  Entry refs  ****

         Check        Calling
        calling       sequence
Altret sequence SRef   type   Args  Name
                       nStd      0 X66_AUTO_3
                       nStd      0 X66_ARET

  ****  Data refs  ****

  Flags:  r = read only, s = secondary
Flgs Name                             Flgs Name                             Flgs Name
     VD_KEY_NUMERIC_BOF
PL6.E3A0      #004=VDI$BTYPE File=VDI$BLOCK.:VDA5TSI                             FRI 07/04/97 11:29 Page:359

  ****  Segment refs  ****

  Flags:  r = read only, s = secondary
Flgs Name                             Flgs Name                             Flgs Name
     ISSID
PL6.E3A0      #004=VDI$BTYPE File=VDI$BLOCK.:VDA5TSI                             FRI 07/04/97 11:29 Page:360


     2618        1        /*T***********************************************************/
     2619        2        /*T*                                                         */
     2620        3        /*T* Copyright (c) Bull HN Information Systems Inc., 1997    */
     2621        4        /*T*                                                         */
     2622        5        /*T***********************************************************/
     2623        6
     2624        7        /*D*  NAME: VDI$BTYPE
     2625        8            PARAMETERS:
     2626        9                RANGE - VD$RANGE to classify.
     2627       10                BDT - Uninitialized word.
     2628       11                EDIT_BLOCK - EditBlock which encloses RANGE.
     2629       12            INPUT:
     2630       13                None.
     2631       14            OUTPUT:
     2632       15                BDT will contain the %BDT_xxx code appropriate for RANGE.
     2633       16            DESCRIPTION:
     2634       17                Examine RANGE and determine its type.  Return the appropriate
     2635       18                %BDT_ code, as shown in the following table ("d.c." means "don't care"):
     2636       19
     2637       20        start  end   start  end   startKey  start    end        Return
     2638       21        >BOF   >BOF  <EOF   <EOF  =endKey   postn>0  postn>0    %BDT_ ...
     2639       22        -----  ----  -----  ----  --------  -------  -------    ----------------------
     2640       23         yes   yes    yes   yes     no       yes      yes        2_REC_POS_NON
     2641       24         yes   yes    yes   yes     no       yes      no         2_REC_SPOS_NON_EPOS_0
     2642       25         yes   yes    yes   yes     no       no       yes        2_REC_SPOS_0_EPOS_NON
     2643       26         yes   yes    yes   yes     no       no       no         2_REC_POS_0
     2644       27         yes   yes    yes   yes     yes      yes      yes        1_REC_POS_NON
     2645       28         yes   yes    yes   yes     yes      yes      no  (error)1_REC_SPOS_NON_EPOS_0
     2646       29         yes   yes    yes   yes     yes      no       yes        1_REC_SPOS_0_EPOS_NON
     2647       30         yes   yes    yes   yes     yes      no       no         1_REC_POS_0
     2648       31         yes   yes    yes   no      d.c.     yes      d.c.       SPOS_NON_EOF
     2649       32         yes   yes    yes   no      d.c.     no       d.c.       SPOS_0_EOF
     2650       33         yes   yes    no    yes     d.c.     d.c.     d.c.(error)EOF_NOT_EOF
     2651       34         yes   yes    no    no      d.c.     d.c.     d.c.       EOF_EOF
     2652       35         yes   no     d.c.  d.c.    d.c.     d.c.     d.c.(error)NOT_BOF_BOF
     2653       36         no    yes    d.c.  yes     d.c.     d.c.     yes        BOF_EPOS_NON
PL6.E3A0      #004=VDI$BTYPE File=VDI$BLOCK.:VDA5TSI                             FRI 07/04/97 11:29 Page:361
     2654       37         no    yes    d.c.  yes     d.c.     d.c.     no         BOF_EPOS_0
     2655       38         no    yes    d.c.  no      d.c.     d.c.     d.c.       BOF_EOF
     2656       39         no    no     d.c.  d.c.    d.c.     d.c.     d.c.       BOF_BOF
     2657       40        */
     2658       41
     2659       42        VDI$BTYPE: PROC (RANGE, BDT_TYPE, EDIT_BLOCK) ALTRET;

     42  0 000000   000000 700200 xent  VDI$BTYPE    TSX0  ! X66_AUTO_3
         0 000001   000014 000003                    ZERO    12,3

     2660       43
     2661       44        %INCLUDE VD_MACROS_M;
     2662     2259        %INCLUDE VD_PERR_C;
     2663     2407
     2664     2408
     2665     2409        %VD$RANGE (NAME=RANGE, STCLASS=PARAM);
     2666     2478        %VD$BLOCK_DESC (NAME=EDIT_BLOCK, STCLASS=PARAM);
     2667     2625    1   DCL BDT_TYPE UBIN;
     2668     2626
     2669     2627
     2670     2628    1   DCL VDG$OCOPY_LOCATION    ENTRY (2) ALTRET;
     2671     2629
     2672     2630        %VD$KEY (NAME=VD_KEY_NUMERIC_BOF, STCLASS=SYMREF);
     2673     2644
     2674     2645
     2675     2646
     2676     2647    1   DCL START_KEY$ PTR;
     2677     2648    1   DCL END_KEY$ PTR;
     2678     2649    1   DCL BLOCK_ENDD_KEY$ PTR;
     2679     2650    1   DCL BOF_KEY$ PTR;
     2680     2651    1   DCL 1 POS#,
     2681     2652    1         2 START SBIN HALF UNAL,
     2682     2653    1         2 ENDD SBIN HALF UNAL;
     2683     2654
     2684     2655
     2685     2656        %VD$TEXTC (NAME=START$KEY, STCLASS="BASED(START_KEY$)");
     2686     2679        %VD$TEXTC (NAME=END$KEY, STCLASS="BASED(END_KEY$)");
PL6.E3A0      #004=VDI$BTYPE File=VDI$BLOCK.:VDA5TSI                             FRI 07/04/97 11:29 Page:362
     2687     2702        %VD$TEXTC (NAME=BLOCK$ENDD_KEY, STCLASS="BASED(BLOCK_ENDD_KEY$)");
     2688     2725        %VD$TEXTC (NAME=BOF$KEY, STCLASS="BASED(BOF_KEY$)");
     2689     2748        %VD$TEXTC_REMOTE;
     2690     2809
     2691     2810
     2692     2811
     2693     2812                %GETKEY (KEY=RANGE.START.KEY, INDX="%(LVL_EXT_REC-1)", PTR=START_KEY$);

   2819  0 000002   200003 470500                    LDP0    @RANGE,,AUTO
         0 000003   000000 720100                    LXL0    0,,PR0
         0 000004   000002 100003                    CMPX0   2,DU
         0 000005   000012 601000 0                  TNZ     s:2819+8

   2819  0 000006   000001 471500                    LDP1    1,,PR0
         0 000007   100002 633500                    EPPR3   2,,PR1
         0 000010   200006 453500                    STP3    START_KEY$,,AUTO
         0 000011   000015 710000 0                  TRA     s:2829

   2819  0 000012   200003 236100                    LDQ     @RANGE,,AUTO
         0 000013   000001 036003                    ADLQ    1,DU
         0 000014   200006 756100                    STQ     START_KEY$,,AUTO

     2694     2822                %GETKEY (KEY=RANGE.ENDD.KEY, INDX="%(LVL_EXT_REC-1)", PTR=END_KEY$);

   2829  0 000015   000011 721100                    LXL1    9,,PR0
         0 000016   000002 101003                    CMPX1   2,DU
         0 000017   000024 601000 0                  TNZ     s:2829+7

   2829  0 000020   000012 471500                    LDP1    10,,PR0
         0 000021   100002 633500                    EPPR3   2,,PR1
         0 000022   200007 453500                    STP3    END_KEY$,,AUTO
         0 000023   000027 710000 0                  TRA     s:2839

   2829  0 000024   200003 236100                    LDQ     @RANGE,,AUTO
         0 000025   000012 036003                    ADLQ    10,DU
         0 000026   200007 756100                    STQ     END_KEY$,,AUTO

PL6.E3A0      #004=VDI$BTYPE File=VDI$BLOCK.:VDA5TSI                             FRI 07/04/97 11:29 Page:363
     2695     2832                %GETKEY (KEY=VD_KEY_NUMERIC_BOF, PTR=BOF_KEY$);

   2839  0 000027   000000 722000 xsym               LXL2    VD_KEY_NUMERIC_BOF
         0 000030   000002 102003                    CMPX2   2,DU
         0 000031   000036 601000 0                  TNZ     s:2839+7

   2839  0 000032   000001 236000 xsym               LDQ     VD_KEY_NUMERIC_BOF+1
         0 000033   000002 036003                    ADLQ    2,DU
         0 000034   200011 756100                    STQ     BOF_KEY$,,AUTO
         0 000035   000040 710000 0                  TRA     s:2850

   2839  0 000036   000000 236000 1                  LDQ     0
         0 000037   200011 756100                    STQ     BOF_KEY$,,AUTO

     2696     2842                %GETKEY (KEY=EDIT_BLOCK.RANGE.ENDD.KEY, INDX="%(LVL_EXT_REC-1)",
     2697     2843                PTR=BLOCK_ENDD_KEY$);

   2850  0 000040   200005 471500                    LDP1    @EDIT_BLOCK,,AUTO
         0 000041   100014 723100                    LXL3    12,,PR1
         0 000042   000002 103003                    CMPX3   2,DU
         0 000043   000050 601000 0                  TNZ     s:2850+8

   2850  0 000044   100015 473500                    LDP3    13,,PR1
         0 000045   300002 634500                    EPPR4   2,,PR3
         0 000046   200010 454500                    STP4    BLOCK_ENDD_KEY$,,AUTO
         0 000047   000053 710000 0                  TRA     s:2853

   2850  0 000050   200005 236100                    LDQ     @EDIT_BLOCK,,AUTO
         0 000051   000015 036003                    ADLQ    13,DU
         0 000052   200010 756100                    STQ     BLOCK_ENDD_KEY$,,AUTO

     2698     2853    1           POS#.START = MAXIMUM (RANGE.START.POSITION#, 0);

   2853  0 000053   000010 236100                    LDQ     8,,PR0
         0 000054   000022 732000                    QRS     18
         0 000055   000000 116003                    CMPQ    0,DU
         0 000056   000060 605000 0                  TPL     s:2853+5
PL6.E3A0      #004=VDI$BTYPE File=VDI$BLOCK.:VDA5TSI                             FRI 07/04/97 11:29 Page:364
         0 000057   000000 236003                    LDQ     0,DU
         0 000060   000000 624006                    EAX4    0,QL
         0 000061   200012 744100                    STX4    POS#,,AUTO

     2699     2854    1           IF RANGE.START.EOF THEN POS#.START = -1;

   2854  0 000062   000010 236100                    LDQ     8,,PR0
         0 000063   400000 316007                    CANQ    -131072,DL
         0 000064   000067 600000 0                  TZE     s:2855

   2854  0 000065   777777 225003                    LDX5    -1,DU
         0 000066   200012 745100                    STX5    POS#,,AUTO

     2700     2855    1           POS#.ENDD = MAXIMUM (RANGE.ENDD.POSITION#, 0);

   2855  0 000067   000021 236100                    LDQ     17,,PR0
         0 000070   000022 732000                    QRS     18
         0 000071   000000 116003                    CMPQ    0,DU
         0 000072   000074 605000 0                  TPL     s:2855+5
         0 000073   000000 236003                    LDQ     0,DU
         0 000074   000000 624006                    EAX4    0,QL
         0 000075   200012 444100                    SXL4    POS#,,AUTO

     2701     2856    1           IF RANGE.ENDD.EOF

   2856  0 000076   000021 236100                    LDQ     17,,PR0
         0 000077   400000 316007                    CANQ    -131072,DL
         0 000100   000122 601000 0                  TNZ     s:2859
         0 000101   200007 473500                    LDP3    END_KEY$,,AUTO
         0 000102   300000 236100                    LDQ     0,,PR3
         0 000103   000033 772000                    QRL     27
         0 000104   200010 474500                    LDP4    BLOCK_ENDD_KEY$,,AUTO
         0 000105   000000 625006                    EAX5    0,QL
         0 000106   400000 236100                    LDQ     0,,PR4
         0 000107   000033 772000                    QRL     27
         0 000110   000000 626006                    EAX6    0,QL
         0 000111   040140 106540                    CMPC    fill='040'O
PL6.E3A0      #004=VDI$BTYPE File=VDI$BLOCK.:VDA5TSI                             FRI 07/04/97 11:29 Page:365
         0 000112   300000 200015                    ADSC9   0,,PR3                   cn=1,n=*X5
         0 000113   400000 200016                    ADSC9   0,,PR4                   cn=1,n=*X6
         0 000114   000124 602000 0                  TNC     s:2861
         0 000115   100024 227100                    LDX7    20,,PR1
         0 000116   000124 601000 0                  TNZ     s:2861
         0 000117   100024 236100                    LDQ     20,,PR1
         0 000120   400000 316007                    CANQ    -131072,DL
         0 000121   000124 601000 0                  TNZ     s:2861

     2702     2857    1             OR (END$KEY.BYTES >= BLOCK$ENDD_KEY.BYTES
     2703     2858    1             AND EDIT_BLOCK.RANGE.ENDD.POSITION# = 0
     2704     2859    1             AND NOT EDIT_BLOCK.RANGE.ENDD.EOF) THEN POS#.ENDD = -1;

   2859  0 000122   777777 225003                    LDX5    -1,DU
         0 000123   200012 445100                    SXL5    POS#,,AUTO

     2705     2860
     2706     2861    1           IF START$KEY.BYTES = BOF$KEY.BYTES AND POS#.START = 0 THEN

   2861  0 000124   200006 473500                    LDP3    START_KEY$,,AUTO
         0 000125   300000 236100                    LDQ     0,,PR3
         0 000126   000033 772000                    QRL     27
         0 000127   200011 474500                    LDP4    BOF_KEY$,,AUTO
         0 000130   000000 624006                    EAX4    0,QL
         0 000131   400000 236100                    LDQ     0,,PR4
         0 000132   000033 772000                    QRL     27
         0 000133   000000 625006                    EAX5    0,QL
         0 000134   040140 106540                    CMPC    fill='040'O
         0 000135   300000 200014                    ADSC9   0,,PR3                   cn=1,n=*X4
         0 000136   400000 200015                    ADSC9   0,,PR4                   cn=1,n=*X5
         0 000137   000177 601000 0                  TNZ     s:2875
         0 000140   200012 226100                    LDX6    POS#,,AUTO
         0 000141   000177 601000 0                  TNZ     s:2875

     2707     2862    2   START_IS_BOF: DO;

   2862  0 000142                       START_IS_BOF null
PL6.E3A0      #004=VDI$BTYPE File=VDI$BLOCK.:VDA5TSI                             FRI 07/04/97 11:29 Page:366
     2708     2863    2              IF END$KEY.BYTES = BOF$KEY.BYTES AND POS#.ENDD = 0 THEN

   2863  0 000142   200007 475500                    LDP5    END_KEY$,,AUTO
         0 000143   500000 236100                    LDQ     0,,PR5
         0 000144   000033 772000                    QRL     27
         0 000145   000000 627006                    EAX7    0,QL
         0 000146   040140 106540                    CMPC    fill='040'O
         0 000147   500000 200017                    ADSC9   0,,PR5                   cn=1,n=*X7
         0 000150   400000 200015                    ADSC9   0,,PR4                   cn=1,n=*X5
         0 000151   000160 601000 0                  TNZ     s:2866
         0 000152   200012 720100                    LXL0    POS#,,AUTO
         0 000153   000160 601000 0                  TNZ     s:2866

     2709     2864    2                 BDT_TYPE = %BDT_BOF_BOF;

   2864  0 000154   000021 235007                    LDA     17,DL
         0 000155   200004 476500                    LDP6    @BDT_TYPE,,AUTO
         0 000156   600000 755100                    STA     0,,PR6
         0 000157   000324 710000 0                  TRA     s:2913

     2710     2865    2              ELSE
     2711     2866    2                 IF POS#.ENDD < 0 THEN

   2866  0 000160   200012 720100                    LXL0    POS#,,AUTO
         0 000161   000166 605000 0                  TPL     s:2869

     2712     2867    2                    BDT_TYPE = %BDT_BOF_EOF;

   2867  0 000162   000020 235007                    LDA     16,DL
         0 000163   200004 476500                    LDP6    @BDT_TYPE,,AUTO
         0 000164   600000 755100                    STA     0,,PR6
         0 000165   000324 710000 0                  TRA     s:2913

     2713     2868    2                 ELSE
     2714     2869    2                    IF POS#.ENDD = 0 THEN

   2869  0 000166   000173 601000 0                  TNZ     s:2872
PL6.E3A0      #004=VDI$BTYPE File=VDI$BLOCK.:VDA5TSI                             FRI 07/04/97 11:29 Page:367

     2715     2870    2                       BDT_TYPE = %BDT_BOF_EPOS_0;

   2870  0 000167   000017 235007                    LDA     15,DL
         0 000170   200004 476500                    LDP6    @BDT_TYPE,,AUTO
         0 000171   600000 755100                    STA     0,,PR6
         0 000172   000324 710000 0                  TRA     s:2913

     2716     2871    2                    ELSE
     2717     2872    2                       BDT_TYPE = %BDT_BOF_EPOS_NON;

   2872  0 000173   000016 235007                    LDA     14,DL
         0 000174   200004 476500                    LDP6    @BDT_TYPE,,AUTO
         0 000175   600000 755100                    STA     0,,PR6

     2718     2873    2              END START_IS_BOF;

   2873  0 000176   000324 710000 0                  TRA     s:2913

     2719     2874    1           ELSE
     2720     2875    1              IF END$KEY.BYTES = BOF$KEY.BYTES AND POS#.ENDD = 0 THEN

   2875  0 000177   200007 475500                    LDP5    END_KEY$,,AUTO
         0 000200   500000 236100                    LDQ     0,,PR5
         0 000201   000033 772000                    QRL     27
         0 000202   000000 626006                    EAX6    0,QL
         0 000203   040140 106540                    CMPC    fill='040'O
         0 000204   500000 200016                    ADSC9   0,,PR5                   cn=1,n=*X6
         0 000205   400000 200015                    ADSC9   0,,PR4                   cn=1,n=*X5
         0 000206   000215 601000 0                  TNZ     s:2878
         0 000207   200012 727100                    LXL7    POS#,,AUTO
         0 000210   000215 601000 0                  TNZ     s:2878

     2721     2876    1                 BDT_TYPE = %BDT_NOT_BOF_BOF;  /* Error */

   2876  0 000211   000015 235007                    LDA     13,DL
         0 000212   200004 476500                    LDP6    @BDT_TYPE,,AUTO
PL6.E3A0      #004=VDI$BTYPE File=VDI$BLOCK.:VDA5TSI                             FRI 07/04/97 11:29 Page:368
         0 000213   600000 755100                    STA     0,,PR6
         0 000214   000324 710000 0                  TRA     s:2913

     2722     2877    1              ELSE
     2723     2878    1                 IF POS#.START < 0 THEN

   2878  0 000215   200012 227100                    LDX7    POS#,,AUTO
         0 000216   000231 605000 0                  TPL     s:2884

     2724     2879    1                    IF POS#.ENDD < 0 THEN

   2879  0 000217   200012 720100                    LXL0    POS#,,AUTO
         0 000220   000225 605000 0                  TPL     s:2882

     2725     2880    1                       BDT_TYPE = %BDT_EOF_EOF;

   2880  0 000221   000014 235007                    LDA     12,DL
         0 000222   200004 476500                    LDP6    @BDT_TYPE,,AUTO
         0 000223   600000 755100                    STA     0,,PR6
         0 000224   000324 710000 0                  TRA     s:2913

     2726     2881    1                    ELSE
     2727     2882    1                       BDT_TYPE = %BDT_EOF_NOT_EOF;  /* Error */

   2882  0 000225   000013 235007                    LDA     11,DL
         0 000226   200004 476500                    LDP6    @BDT_TYPE,,AUTO
         0 000227   600000 755100                    STA     0,,PR6
         0 000230   000324 710000 0                  TRA     s:2913

     2728     2883    1                 ELSE
     2729     2884    1                    IF POS#.ENDD < 0 THEN

   2884  0 000231   200012 720100                    LXL0    POS#,,AUTO
         0 000232   000245 605000 0                  TPL     s:2890

     2730     2885    1                       IF POS#.START = 0 THEN

PL6.E3A0      #004=VDI$BTYPE File=VDI$BLOCK.:VDA5TSI                             FRI 07/04/97 11:29 Page:369
   2885  0 000233   000000 107003                    CMPX7   0,DU
         0 000234   000241 601000 0                  TNZ     s:2888

     2731     2886    1                          BDT_TYPE = %BDT_SPOS_0_EOF;

   2886  0 000235   000012 235007                    LDA     10,DL
         0 000236   200004 476500                    LDP6    @BDT_TYPE,,AUTO
         0 000237   600000 755100                    STA     0,,PR6
         0 000240   000324 710000 0                  TRA     s:2913

     2732     2887    1                       ELSE
     2733     2888    1                          BDT_TYPE = %BDT_SPOS_NON_EOF;

   2888  0 000241   000011 235007                    LDA     9,DL
         0 000242   200004 476500                    LDP6    @BDT_TYPE,,AUTO
         0 000243   600000 755100                    STA     0,,PR6
         0 000244   000324 710000 0                  TRA     s:2913

     2734     2889    1                    ELSE
     2735     2890    1                       IF START$KEY.BYTES = END$KEY.BYTES THEN

   2890  0 000245   040140 106540                    CMPC    fill='040'O
         0 000246   300000 200014                    ADSC9   0,,PR3                   cn=1,n=*X4
         0 000247   500000 200016                    ADSC9   0,,PR5                   cn=1,n=*X6
         0 000250   000277 601000 0                  TNZ     s:2902

     2736     2891    1                          IF POS#.START = 0 THEN

   2891  0 000251   000000 107003                    CMPX7   0,DU
         0 000252   000265 601000 0                  TNZ     s:2897

     2737     2892    1                             IF POS#.ENDD = 0 THEN

   2892  0 000253   000000 100003                    CMPX0   0,DU
         0 000254   000261 601000 0                  TNZ     s:2895

     2738     2893    1                                BDT_TYPE = %BDT_1_REC_POS_0;
PL6.E3A0      #004=VDI$BTYPE File=VDI$BLOCK.:VDA5TSI                             FRI 07/04/97 11:29 Page:370

   2893  0 000255   000010 235007                    LDA     8,DL
         0 000256   200004 476500                    LDP6    @BDT_TYPE,,AUTO
         0 000257   600000 755100                    STA     0,,PR6
         0 000260   000324 710000 0                  TRA     s:2913

     2739     2894    1                             ELSE
     2740     2895    1                                BDT_TYPE = %BDT_1_REC_SPOS_0_EPOS_NON;

   2895  0 000261   000007 235007                    LDA     7,DL
         0 000262   200004 476500                    LDP6    @BDT_TYPE,,AUTO
         0 000263   600000 755100                    STA     0,,PR6
         0 000264   000324 710000 0                  TRA     s:2913

     2741     2896    1                          ELSE
     2742     2897    1                             IF POS#.ENDD = 0 THEN

   2897  0 000265   000000 100003                    CMPX0   0,DU
         0 000266   000273 601000 0                  TNZ     s:2900

     2743     2898    1                                BDT_TYPE = %BDT_1_REC_SPOS_NON_EPOS_0;

   2898  0 000267   000006 235007                    LDA     6,DL
         0 000270   200004 476500                    LDP6    @BDT_TYPE,,AUTO
         0 000271   600000 755100                    STA     0,,PR6
         0 000272   000324 710000 0                  TRA     s:2913

     2744     2899    1                             ELSE
     2745     2900    1                                BDT_TYPE = %BDT_1_REC_POS_NON;

   2900  0 000273   000005 235007                    LDA     5,DL
         0 000274   200004 476500                    LDP6    @BDT_TYPE,,AUTO
         0 000275   600000 755100                    STA     0,,PR6
         0 000276   000324 710000 0                  TRA     s:2913

     2746     2901    1                       ELSE
     2747     2902    1                          IF POS#.START = 0 THEN
PL6.E3A0      #004=VDI$BTYPE File=VDI$BLOCK.:VDA5TSI                             FRI 07/04/97 11:29 Page:371

   2902  0 000277   000000 107003                    CMPX7   0,DU
         0 000300   000313 601000 0                  TNZ     s:2908

     2748     2903    1                             IF POS#.ENDD = 0 THEN

   2903  0 000301   000000 100003                    CMPX0   0,DU
         0 000302   000307 601000 0                  TNZ     s:2906

     2749     2904    1                                BDT_TYPE = %BDT_2_REC_POS_0;

   2904  0 000303   000004 235007                    LDA     4,DL
         0 000304   200004 476500                    LDP6    @BDT_TYPE,,AUTO
         0 000305   600000 755100                    STA     0,,PR6
         0 000306   000324 710000 0                  TRA     s:2913

     2750     2905    1                             ELSE
     2751     2906    1                                BDT_TYPE = %BDT_2_REC_SPOS_0_EPOS_NON;

   2906  0 000307   000003 235007                    LDA     3,DL
         0 000310   200004 476500                    LDP6    @BDT_TYPE,,AUTO
         0 000311   600000 755100                    STA     0,,PR6
         0 000312   000324 710000 0                  TRA     s:2913

     2752     2907    1                          ELSE
     2753     2908    1                             IF POS#.ENDD = 0 THEN

   2908  0 000313   000000 100003                    CMPX0   0,DU
         0 000314   000321 601000 0                  TNZ     s:2911

     2754     2909    1                                BDT_TYPE = %BDT_2_REC_SPOS_NON_EPOS_0;

   2909  0 000315   000002 235007                    LDA     2,DL
         0 000316   200004 476500                    LDP6    @BDT_TYPE,,AUTO
         0 000317   600000 755100                    STA     0,,PR6
         0 000320   000324 710000 0                  TRA     s:2913

PL6.E3A0      #004=VDI$BTYPE File=VDI$BLOCK.:VDA5TSI                             FRI 07/04/97 11:29 Page:372
     2755     2910    1                             ELSE
     2756     2911    1                                BDT_TYPE = %BDT_2_REC_POS_NON;

   2911  0 000321   000001 235007                    LDA     1,DL
         0 000322   200004 476500                    LDP6    @BDT_TYPE,,AUTO
         0 000323   600000 755100                    STA     0,,PR6

     2757     2912
     2758     2913    1           RETURN;

   2913  0 000324   000000 702200 xent               TSX2  ! X66_ARET
     2759     2914
     2760     2915
     2761     2916    1   END VDI$BTYPE;

PL6.E3A0      #004=VDI$BTYPE File=VDI$BLOCK.:VDA5TSI                             FRI 07/04/97 11:29 Page:373
--  Include file information  --

   VD_PERR_C.:VDA5TOU  is referenced.
   VD_MACROS_M.:VDA5TOU  is referenced.
   B$JIT_C.:E04TOU  was found in the system file and is never referenced.
   CP_6_C.:E04TOU  was found in the system file and is never referenced.
      No diagnostics issued in procedure VDI$BTYPE.
PL6.E3A0      #004=VDI$BTYPE File=VDI$BLOCK.:VDA5TSI                             FRI 07/04/97 11:29 Page:374

 **** Variables and constants ****

  ****  Auto variables  ****

  ****  Scalars and arrays  ****
OctLoc.c.b A Datatyp(siz) R M Lvl/name                 OctLoc.c.b A Datatyp(siz) R M Lvl/name

     4-0-0/w PTR         r     1 @BDT_TYPE                  5-0-0/w PTR         r     1 @EDIT_BLOCK
     3-0-0/w PTR         r     1 @RANGE                    *0-0-0/w UBIN        r     1 BDT_TYPE
    10-0-0/w PTR         r     1 BLOCK_ENDD_KEY$           11-0-0/w PTR         r     1 BOF_KEY$
    *0-0-0/w STRC(936)   r     1 EDIT_BLOCK                 7-0-0/w PTR         r     1 END_KEY$
    12-0-0/b STRC        r     1 POS#                      *0-0-0/w STRC(648)   r     1 RANGE
     6-0-0/w PTR         r     1 START_KEY$

  ****  SYMREF variables  ****

  ****  Scalars and arrays  ****
OctLoc.c.b A Datatyp(siz) R M Lvl/name                 OctLoc.c.b A Datatyp(siz) R M Lvl/name

     0-0-0/w STRC(72)    r     1 VD_KEY_NUMERIC_BOF

  ****  BASED and DCB variables  ****

  ****  Scalars and arrays  ****
OctLoc.c.b A Datatyp(siz) R M Lvl/name                 OctLoc.c.b A Datatyp(siz) R M Lvl/name

     0-0-0/w ASTR(9)     r     1 BLOCK$ENDD_KEY             0-0-0/w ASTR(9)     r     1 BOF$KEY
     0-0-0/w ASTR(9)     r     1 END$KEY                    0-0-0/w ASTR(9)     r     1 START$KEY
     0-0-0/w ASTR(81)    r     1 VD$TEXTC_REMOTE


   Procedure VDI$BTYPE requires 213 words for executable code.
   Procedure VDI$BTYPE requires 12 words of local(AUTO) storage.

    No errors detected in file VDI$BLOCK.:VDA5TSI    .
PL6.E3A0      #004=VDI$BTYPE File=VDI$BLOCK.:VDA5TSI                             FRI 07/04/97 11:29 Page:375
          *** CROSS REFERENCE LISTING ***
**     DENOTES     IDENTIFIER DEFINITION
<<                 IDENTIFIER'S VALUE SET
>>                 IDENTIFIER'S VALUE USED
<>                 IDENTIFIER SET AND/OR USED
--                 IDENTIFIER REFERENCED
PL6.E3A0      #004=VDI$BTYPE File=VDI$BLOCK.:VDA5TSI                             FRI 07/04/97 11:29 Page:376
          MINI XREF LISTING

BDT_TYPE
      2625**DCL        42--PROC     2864<<ASSIGN   2867<<ASSIGN   2870<<ASSIGN   2872<<ASSIGN   2876<<ASSIGN
      2880<<ASSIGN   2882<<ASSIGN   2886<<ASSIGN   2888<<ASSIGN   2893<<ASSIGN   2895<<ASSIGN   2898<<ASSIGN
      2900<<ASSIGN   2904<<ASSIGN   2906<<ASSIGN   2909<<ASSIGN   2911<<ASSIGN
BLOCK$ENDD_KEY.BYTES
      2720**DCL      2856>>IF
BLOCK$ENDD_KEY.LENGTH#
      2718**DCL      2720--IMP-SIZ  2856>>IF
BLOCK_ENDD_KEY$
      2649**DCL      2710--IMP-PTR  2850<<ASSIGN   2850<<ASSIGN   2856>>IF       2856>>IF
BOF$KEY.BYTES
      2743**DCL      2861>>IF       2863>>IF       2875>>IF
BOF$KEY.LENGTH#
      2741**DCL      2743--IMP-SIZ  2861>>IF       2863>>IF       2875>>IF
BOF_KEY$
      2650**DCL      2733--IMP-PTR  2839<<ASSIGN   2839<<ASSIGN   2861>>IF       2861>>IF       2863>>IF
      2863>>IF       2875>>IF       2875>>IF
EDIT_BLOCK
      2486**DCL        42--PROC
EDIT_BLOCK.RANGE.ENDD.EOF
      2592**DCL      2856>>IF
EDIT_BLOCK.RANGE.ENDD.KEY.REP#
      2590**DCL      2850>>IF
EDIT_BLOCK.RANGE.ENDD.KEY.V$
      2590**DCL      2850>>ASSIGN   2850--ASSIGN
EDIT_BLOCK.RANGE.ENDD.POSITION#
      2592**DCL      2856>>IF
END$KEY.BYTES
      2697**DCL      2856>>IF       2863>>IF       2875>>IF       2890>>IF
END$KEY.LENGTH#
      2695**DCL      2697--IMP-SIZ  2856>>IF       2863>>IF       2875>>IF       2890>>IF
END_KEY$
PL6.E3A0      #004=VDI$BTYPE File=VDI$BLOCK.:VDA5TSI                             FRI 07/04/97 11:29 Page:377
      2648**DCL      2687--IMP-PTR  2829<<ASSIGN   2829<<ASSIGN   2856>>IF       2856>>IF       2863>>IF
      2863>>IF       2875>>IF       2875>>IF       2890>>IF       2890>>IF
POS#.ENDD
      2653**DCL      2855<<ASSIGN   2859<<ASSIGN   2863>>IF       2866>>IF       2869>>IF       2875>>IF
      2879>>IF       2884>>IF       2892>>IF       2897>>IF       2903>>IF       2908>>IF
POS#.START
      2652**DCL      2853<<ASSIGN   2854<<ASSIGN   2861>>IF       2878>>IF       2885>>IF       2891>>IF
      2902>>IF
RANGE
      2417**DCL        42--PROC
RANGE.ENDD.EOF
      2475**DCL      2856>>IF
RANGE.ENDD.KEY.REP#
      2473**DCL      2829>>IF
RANGE.ENDD.KEY.V$
      2473**DCL      2829>>ASSIGN   2829--ASSIGN
RANGE.ENDD.POSITION#
      2475**DCL      2855>>ASSIGN
RANGE.START.EOF
      2447**DCL      2854>>IF
RANGE.START.KEY.REP#
      2445**DCL      2819>>IF
RANGE.START.KEY.V$
      2445**DCL      2819>>ASSIGN   2819--ASSIGN
RANGE.START.POSITION#
      2447**DCL      2853>>ASSIGN
START$KEY.BYTES
      2674**DCL      2861>>IF       2890>>IF
START$KEY.LENGTH#
      2672**DCL      2674--IMP-SIZ  2861>>IF       2890>>IF
START_KEY$
      2647**DCL      2664--IMP-PTR  2819<<ASSIGN   2819<<ASSIGN   2861>>IF       2861>>IF       2890>>IF
      2890>>IF
VD$TEXTC_REMOTE.LENGTH#
      2802**DCL      2804--IMP-SIZ  2819--ASSIGN   2829--ASSIGN   2839--ASSIGN   2850--ASSIGN
VD_KEY_NUMERIC_BOF.REP#
PL6.E3A0      #004=VDI$BTYPE File=VDI$BLOCK.:VDA5TSI                             FRI 07/04/97 11:29 Page:378
      2642**DCL      2839>>IF
VD_KEY_NUMERIC_BOF.V$
      2642**DCL      2839>>ASSIGN   2839--ASSIGN
