PL6.E3A0      #007=VDI$CSET_COUNT File=VDI$COMMANDS_EDITING.:VDA5TSI             FRI 07/04/97 11:31 Page:173
     1080        1        /*T***********************************************************/
     1081        2        /*T*                                                         */
     1082        3        /*T* Copyright (c) Bull HN Information Systems Inc., 1997    */
     1083        4        /*T*                                                         */
     1084        5        /*T***********************************************************/
     1085        6
     1086        7        /*D* NAME: VDI$CSET_COUNT
     1087        8            PARAMETERS:
     1088        9                LOCATION - VD$LOCATION of the predefined name in the Equals file
     1089       10                    whose value is to be set.
     1090       11                                    !! NOTE !!
     1091       12                        This routine should only be used to set the
     1092       13                        predefined names, and not at the direct
     1093       14                        request of the user but only as a side-effect
     1094       15                        of some other action.  This is because we
     1095       16                        enable all Accessor priviledges here, thus
     1096       17                        overriding any protections on the name.
     1097       18                        This shouldn't be done on behalf of the user.
     1098       19                VALUE - SBIN word containing the value to assign to the predefined
     1099       20                    name.
     1100       21            INPUT:
     1101       22                VD_6E.EQUALS$ must point to the VD$STREAM open to the Equals file.
     1102       23            OUTPUT:
     1103       24                The predefined name's value will be set.
     1104       25            DESCRIPTION:
     1105       26                Write a new value to a predefined name in the Equals file.
     1106       27        */
     1107       28
     1108       29        VDI$CSET_COUNT: PROC (LOCATION, VALUE) ALTRET;
     1109       30
     1110       31        %INCLUDE VD_MACROS_M;
     1111     2246
     1112     2247
     1113     2248        %VD$LOCATION (NAME=LOCATION, STCLASS=PARAM);
     1114     2276    1   DCL VALUE SBIN;
     1115     2277
     1116     2278
PL6.E3A0      #007=VDI$CSET_COUNT File=VDI$COMMANDS_EDITING.:VDA5TSI             FRI 07/04/97 11:31 Page:174
     1117     2279    1   DCL VDG$OALLOC          ENTRY (3) ALTRET;
     1118     2280    1   DCL VDG$OFREE           ENTRY (1) ALTRET;
     1119     2281    1   DCL VDA$LWRITE          ENTRY (4) ALTRET;
     1120     2282    1   DCL VDA$PFLUSH          ENTRY (2) ALTRET;
     1121     2283
     1122     2284
     1123     2285        %VD_6E (STCLASS=SYMREF);
     1124     2321    1   DCL 1 VD_ACCESSOR_PRIV ALIGNED SYMREF,
     1125     2322            %VD$NAC (NAME=ACCESS, LEV=2, LAST=YES, ALIGNMENT=UNAL, STCLASS=STATIC);
     1126     2336
     1127     2337
     1128     2338
     1129     2339    1   DCL 1 SAVE_ACCESSOR_PRIV ALIGNED,
     1130     2340            %VD$NAC (NAME=ACCESS, LEV=2, LAST=YES, ALIGNMENT=UNAL, STCLASS=AUTO);
     1131     2354    1   DCL VALUE_NUMBER$ PTR;
     1132     2355
     1133     2356
     1134     2357        %VD$NUMBER (NAME=VALUE$NUMBER, STCLASS="BASED(VALUE_NUMBER$)");
     1135     2402        %VD$STREAM (NAME=EQUALS$STREAM, STCLASS="BASED(VD_6E.EQUALS$)");
     1136     2508        %VD$PORT;
     1137     2606
     1138     2607
     1139     2608
     1140     2609    1           CALL VDG$OALLOC (%CLS_NUMBER, VALUE_NUMBER$)
     1141     2610    1             ALTRET (OALLOC_FAILED);
     1142     2611    1           VALUE$NUMBER.V# = VALUE;
     1143     2612
     1144     2613    1           SAVE_ACCESSOR_PRIV = VD_ACCESSOR_PRIV;
     1145     2614    1           VD_ACCESSOR_PRIV = %NAC_ALL_BITS;
     1146     2615    1           CALL VDA$LWRITE (EQUALS$STREAM, LOCATION, , VALUE$NUMBER)
     1147     2616    2           WHENALTRETURN DO;
     1148     2617    2              VD_ACCESSOR_PRIV = SAVE_ACCESSOR_PRIV;
     1149     2618    2              CALL VDG$OFREE (VALUE$NUMBER);
     1150     2619    2              ALTRETURN;
     1151     2620    2              END;
     1152     2621
     1153     2622    1           CALL VDA$PFLUSH (EQUALS$STREAM.PORT$->VD$PORT, %TO_PRESENTER)
PL6.E3A0      #007=VDI$CSET_COUNT File=VDI$COMMANDS_EDITING.:VDA5TSI             FRI 07/04/97 11:31 Page:175
     1154     2623    2           WHENALTRETURN DO;
     1155     2624    2              VD_ACCESSOR_PRIV = SAVE_ACCESSOR_PRIV;
     1156     2625    2              ALTRETURN;
     1157     2626    2              END;
     1158     2627
     1159     2628    1           VD_ACCESSOR_PRIV = SAVE_ACCESSOR_PRIV;
     1160     2629    1           RETURN;
     1161     2630
     1162     2631
     1163     2632    1   OALLOC_FAILED: ;
     1164     2633    1           ALTRETURN;
     1165     2634
     1166     2635    1   END VDI$CSET_COUNT;

PL6.E3A0      #007=VDI$CSET_COUNT File=VDI$COMMANDS_EDITING.:VDA5TSI             FRI 07/04/97 11:31 Page:176
--  Include file information  --

   VD_MACROS_M.:VDA5TOU  is referenced.
   B$JIT_C.:E04TOU  was found in the system file and is never referenced.
   CP_6_C.:E04TOU  was found in the system file and is never referenced.
      No diagnostics issued in procedure VDI$CSET_COUNT.

   Procedure VDI$CSET_COUNT requires 57 words for executable code.
   Procedure VDI$CSET_COUNT requires 12 words of local(AUTO) storage.

    No errors detected in file VDI$COMMANDS_EDITING.:VDA5TSI    .

PL6.E3A0      #007=VDI$CSET_COUNT File=VDI$COMMANDS_EDITING.:VDA5TSI             FRI 07/04/97 11:31 Page:177

 Object Unit name= VDI$CSET_COUNT                             File name= VDI$COMMANDS_EDITING.:VDA5TOU
 UTS= JUL 04 '97 11:31:06.60 FRI                              Compiler= PL-6/E31         Sev=      00
 SharedLib= :SHARED_SYSTEM                                    Alt SharedLib=


    ****  Control sections  ****

 Sect   Type Bound  Init  Size OctSiz  Section name(segment info)
    0   Proc  even  none    57     71  VDI$CSET_COUNT
    1  RoData even  none     3      3  VDI$CSET_COUNT

    ****  Entry defs  ****

                              Check   Calling
                             calling  sequence
  Sect OctLoc Primary Altret sequence   type   Parms  Name
     0      0   yes    yes     yes      Std        2  VDI$CSET_COUNT

  ****  Entry refs  ****

         Check        Calling
        calling       sequence
Altret sequence SRef   type   Args  Name
 yes     yes           Std       3 VDG$OALLOC
 yes     yes           Std       4 VDA$LWRITE
 yes     yes           Std       1 VDG$OFREE
 yes     yes           Std       2 VDA$PFLUSH
                       nStd      0 X66_AUTO_2
                       Std       0 B_CONSPOOL_D
                       nStd      0 X66_AALT
                       nStd      0 X66_ARET
PL6.E3A0      #007=VDI$CSET_COUNT File=VDI$COMMANDS_EDITING.:VDA5TSI             FRI 07/04/97 11:31 Page:178

  ****  Data refs  ****

  Flags:  r = read only, s = secondary
Flgs Name                             Flgs Name                             Flgs Name
     VD_6E                                 VD_ACCESSOR_PRIV                      B_VECTNIL

  ****  Segment refs  ****

  Flags:  r = read only, s = secondary
Flgs Name                             Flgs Name                             Flgs Name
     ISSID
PL6.E3A0      #007=VDI$CSET_COUNT File=VDI$COMMANDS_EDITING.:VDA5TSI             FRI 07/04/97 11:31 Page:179


     1080        1        /*T***********************************************************/
     1081        2        /*T*                                                         */
     1082        3        /*T* Copyright (c) Bull HN Information Systems Inc., 1997    */
     1083        4        /*T*                                                         */
     1084        5        /*T***********************************************************/
     1085        6
     1086        7        /*D* NAME: VDI$CSET_COUNT
     1087        8            PARAMETERS:
     1088        9                LOCATION - VD$LOCATION of the predefined name in the Equals file
     1089       10                    whose value is to be set.
     1090       11                                    !! NOTE !!
     1091       12                        This routine should only be used to set the
     1092       13                        predefined names, and not at the direct
     1093       14                        request of the user but only as a side-effect
     1094       15                        of some other action.  This is because we
     1095       16                        enable all Accessor priviledges here, thus
     1096       17                        overriding any protections on the name.
     1097       18                        This shouldn't be done on behalf of the user.
     1098       19                VALUE - SBIN word containing the value to assign to the predefined
     1099       20                    name.
     1100       21            INPUT:
     1101       22                VD_6E.EQUALS$ must point to the VD$STREAM open to the Equals file.
     1102       23            OUTPUT:
     1103       24                The predefined name's value will be set.
     1104       25            DESCRIPTION:
     1105       26                Write a new value to a predefined name in the Equals file.
     1106       27        */
     1107       28
     1108       29        VDI$CSET_COUNT: PROC (LOCATION, VALUE) ALTRET;

     29  0 000000   000000 700200 xent  VDI$CSET_CO* TSX0  ! X66_AUTO_2
         0 000001   000014 000002                    ZERO    12,2

     1109       30
     1110       31        %INCLUDE VD_MACROS_M;
     1111     2246
PL6.E3A0      #007=VDI$CSET_COUNT File=VDI$COMMANDS_EDITING.:VDA5TSI             FRI 07/04/97 11:31 Page:180
     1112     2247
     1113     2248        %VD$LOCATION (NAME=LOCATION, STCLASS=PARAM);
     1114     2276    1   DCL VALUE SBIN;
     1115     2277
     1116     2278
     1117     2279    1   DCL VDG$OALLOC          ENTRY (3) ALTRET;
     1118     2280    1   DCL VDG$OFREE           ENTRY (1) ALTRET;
     1119     2281    1   DCL VDA$LWRITE          ENTRY (4) ALTRET;
     1120     2282    1   DCL VDA$PFLUSH          ENTRY (2) ALTRET;
     1121     2283
     1122     2284
     1123     2285        %VD_6E (STCLASS=SYMREF);
     1124     2321    1   DCL 1 VD_ACCESSOR_PRIV ALIGNED SYMREF,
     1125     2322            %VD$NAC (NAME=ACCESS, LEV=2, LAST=YES, ALIGNMENT=UNAL, STCLASS=STATIC);
     1126     2336
     1127     2337
     1128     2338
     1129     2339    1   DCL 1 SAVE_ACCESSOR_PRIV ALIGNED,
     1130     2340            %VD$NAC (NAME=ACCESS, LEV=2, LAST=YES, ALIGNMENT=UNAL, STCLASS=AUTO);
     1131     2354    1   DCL VALUE_NUMBER$ PTR;
     1132     2355
     1133     2356
     1134     2357        %VD$NUMBER (NAME=VALUE$NUMBER, STCLASS="BASED(VALUE_NUMBER$)");
     1135     2402        %VD$STREAM (NAME=EQUALS$STREAM, STCLASS="BASED(VD_6E.EQUALS$)");
     1136     2508        %VD$PORT;
     1137     2606
     1138     2607
     1139     2608
     1140     2609    1           CALL VDG$OALLOC (%CLS_NUMBER, VALUE_NUMBER$)

   2609  0 000002   200006 630500                    EPPR0   VALUE_NUMBER$,,AUTO
         0 000003   200011 450500                    STP0    VALUE_NUMBER$+3,,AUTO
         0 000004   000001 236000 1                  LDQ     1
         0 000005   200010 756100                    STQ     VALUE_NUMBER$+2,,AUTO
         0 000006   200010 630500                    EPPR0   VALUE_NUMBER$+2,,AUTO
         0 000007   000020 631400 xsym               EPPR1   B_VECTNIL+16
         0 000010   000000 701000 xent               TSX1    VDG$OALLOC
PL6.E3A0      #007=VDI$CSET_COUNT File=VDI$COMMANDS_EDITING.:VDA5TSI             FRI 07/04/97 11:31 Page:181
         0 000011   000070 702000 0                  TSX2    OALLOC_FAILED

     1141     2610    1             ALTRET (OALLOC_FAILED);
     1142     2611    1           VALUE$NUMBER.V# = VALUE;

   2611  0 000012   200004 470500                    LDP0    @VALUE,,AUTO
         0 000013   200006 471500                    LDP1    VALUE_NUMBER$,,AUTO
         0 000014   000000 235100                    LDA     0,,PR0
         0 000015   100003 755100                    STA     3,,PR1

     1143     2612
     1144     2613    1           SAVE_ACCESSOR_PRIV = VD_ACCESSOR_PRIV;

   2613  0 000016   000000 236000 xsym               LDQ     VD_ACCESSOR_PRIV
         0 000017   777000 376003                    ANQ     -512,DU
         0 000020   200005 756100                    STQ     SAVE_ACCESSOR_PRIV,,AUTO

     1145     2614    1           VD_ACCESSOR_PRIV = %NAC_ALL_BITS;

   2614  0 000021   777000 236003                    LDQ     -512,DU
         0 000022   000000 756000 xsym               STQ     VD_ACCESSOR_PRIV

     1146     2615    1           CALL VDA$LWRITE (EQUALS$STREAM, LOCATION, , VALUE$NUMBER)

   2615  0 000023   200006 236100                    LDQ     VALUE_NUMBER$,,AUTO
         0 000024   000001 235000 xsym               LDA     B_VECTNIL+1
         0 000025   200012 757100                    STAQ    VALUE_NUMBER$+4,,AUTO
         0 000026   200003 236100                    LDQ     @LOCATION,,AUTO
         0 000027   000001 235000 xsym               LDA     VD_6E+1
         0 000030   200010 757100                    STAQ    VALUE_NUMBER$+2,,AUTO
         0 000031   200010 630500                    EPPR0   VALUE_NUMBER$+2,,AUTO
         0 000032   000022 631400 xsym               EPPR1   B_VECTNIL+18
         0 000033   000000 701000 xent               TSX1    VDA$LWRITE
         0 000034   000036 702000 0                  TSX2    s:2617
         0 000035   000046 710000 0                  TRA     s:2622

     1147     2616    2           WHENALTRETURN DO;
PL6.E3A0      #007=VDI$CSET_COUNT File=VDI$COMMANDS_EDITING.:VDA5TSI             FRI 07/04/97 11:31 Page:182

     1148     2617    2              VD_ACCESSOR_PRIV = SAVE_ACCESSOR_PRIV;

   2617  0 000036   200005 236100                    LDQ     SAVE_ACCESSOR_PRIV,,AUTO
         0 000037   777000 376003                    ANQ     -512,DU
         0 000040   000000 756000 xsym               STQ     VD_ACCESSOR_PRIV

     1149     2618    2              CALL VDG$OFREE (VALUE$NUMBER);

   2618  0 000041   200006 630500                    EPPR0   VALUE_NUMBER$,,AUTO
         0 000042   000017 631400 xsym               EPPR1   B_VECTNIL+15
         0 000043   000000 701000 xent               TSX1    VDG$OFREE
         0 000044   000000 011000                    NOP     0

     1150     2619    2              ALTRETURN;

   2619  0 000045   000000 702200 xent               TSX2  ! X66_AALT

     1151     2620    2              END;
     1152     2621
     1153     2622    1           CALL VDA$PFLUSH (EQUALS$STREAM.PORT$->VD$PORT, %TO_PRESENTER)

   2622  0 000046   000001 470400 xsym               LDP0    VD_6E+1
         0 000047   000001 471500                    LDP1    1,,PR0
         0 000050   000002 236000 1                  LDQ     2
         0 000051   200011 756100                    STQ     VALUE_NUMBER$+3,,AUTO
         0 000052   200010 451500                    STP1    VALUE_NUMBER$+2,,AUTO
         0 000053   200010 630500                    EPPR0   VALUE_NUMBER$+2,,AUTO
         0 000054   000020 631400 xsym               EPPR1   B_VECTNIL+16
         0 000055   000000 701000 xent               TSX1    VDA$PFLUSH
         0 000056   000060 702000 0                  TSX2    s:2624
         0 000057   000064 710000 0                  TRA     s:2628

     1154     2623    2           WHENALTRETURN DO;

     1155     2624    2              VD_ACCESSOR_PRIV = SAVE_ACCESSOR_PRIV;

PL6.E3A0      #007=VDI$CSET_COUNT File=VDI$COMMANDS_EDITING.:VDA5TSI             FRI 07/04/97 11:31 Page:183
   2624  0 000060   200005 236100                    LDQ     SAVE_ACCESSOR_PRIV,,AUTO
         0 000061   777000 376003                    ANQ     -512,DU
         0 000062   000000 756000 xsym               STQ     VD_ACCESSOR_PRIV

     1156     2625    2              ALTRETURN;

   2625  0 000063   000000 702200 xent               TSX2  ! X66_AALT

     1157     2626    2              END;
     1158     2627
     1159     2628    1           VD_ACCESSOR_PRIV = SAVE_ACCESSOR_PRIV;

   2628  0 000064   200005 236100                    LDQ     SAVE_ACCESSOR_PRIV,,AUTO
         0 000065   777000 376003                    ANQ     -512,DU
         0 000066   000000 756000 xsym               STQ     VD_ACCESSOR_PRIV

     1160     2629    1           RETURN;

   2629  0 000067   000000 702200 xent               TSX2  ! X66_ARET

   2628  0 000070                       OALLOC_FAIL* null
     1161     2630
     1162     2631
     1163     2632    1   OALLOC_FAILED: ;
     1164     2633    1           ALTRETURN;

   2633  0 000070   000000 702200 xent               TSX2  ! X66_AALT
     1165     2634
     1166     2635    1   END VDI$CSET_COUNT;

PL6.E3A0      #007=VDI$CSET_COUNT File=VDI$COMMANDS_EDITING.:VDA5TSI             FRI 07/04/97 11:31 Page:184
--  Include file information  --

   VD_MACROS_M.:VDA5TOU  is referenced.
   B$JIT_C.:E04TOU  was found in the system file and is never referenced.
   CP_6_C.:E04TOU  was found in the system file and is never referenced.
      No diagnostics issued in procedure VDI$CSET_COUNT.
PL6.E3A0      #007=VDI$CSET_COUNT File=VDI$COMMANDS_EDITING.:VDA5TSI             FRI 07/04/97 11:31 Page:185

 **** Variables and constants ****

  ****  Auto variables  ****

  ****  Scalars and arrays  ****
OctLoc.c.b A Datatyp(siz) R M Lvl/name                 OctLoc.c.b A Datatyp(siz) R M Lvl/name

     3-0-0/w PTR         r     1 @LOCATION                  4-0-0/w PTR         r     1 @VALUE
    *0-0-0/w STRC(324)   r     1 LOCATION                   5-0-0/w STRC(9)     r     1 SAVE_ACCESSOR_PRIV
    *0-0-0/w SBIN        r     1 VALUE                      6-0-0/w PTR         r     1 VALUE_NUMBER$

  ****  SYMREF variables  ****

  ****  Scalars and arrays  ****
OctLoc.c.b A Datatyp(siz) R M Lvl/name                 OctLoc.c.b A Datatyp(siz) R M Lvl/name

     0-0-0/w STRC(22644) r     1 VD_6E                      0-0-0/w STRC(9)     r     1 VD_ACCESSOR_PRIV

  ****  BASED and DCB variables  ****

  ****  Scalars and arrays  ****
OctLoc.c.b A Datatyp(siz) R M Lvl/name                 OctLoc.c.b A Datatyp(siz) R M Lvl/name

     0-0-0/w STRC(864)   r     1 EQUALS$STREAM              0-0-0/w STRC(144)   r     1 VALUE$NUMBER
     0-0-0/w STRC(1944)  r     1 VD$PORT


   Procedure VDI$CSET_COUNT requires 57 words for executable code.
   Procedure VDI$CSET_COUNT requires 12 words of local(AUTO) storage.

    No errors detected in file VDI$COMMANDS_EDITING.:VDA5TSI    .
PL6.E3A0      #007=VDI$CSET_COUNT File=VDI$COMMANDS_EDITING.:VDA5TSI             FRI 07/04/97 11:31 Page:186
          *** CROSS REFERENCE LISTING ***
**     DENOTES     IDENTIFIER DEFINITION
<<                 IDENTIFIER'S VALUE SET
>>                 IDENTIFIER'S VALUE USED
<>                 IDENTIFIER SET AND/OR USED
--                 IDENTIFIER REFERENCED
PL6.E3A0      #007=VDI$CSET_COUNT File=VDI$COMMANDS_EDITING.:VDA5TSI             FRI 07/04/97 11:31 Page:187
          MINI XREF LISTING

EQUALS$STREAM
      2410**DCL      2615<>CALL
EQUALS$STREAM.PORT$
      2436**DCL      2622>>CALL
LOCATION
      2256**DCL        29--PROC     2615<>CALL
OALLOC_FAILED
      2628**LABEL    2609--CALLALT
SAVE_ACCESSOR_PRIV
      2339**DCL      2613<<ASSIGN   2617>>ASSIGN   2624>>ASSIGN   2628>>ASSIGN
VALUE
      2276**DCL        29--PROC     2611>>ASSIGN
VALUE$NUMBER
      2365**DCL      2615<>CALL     2618<>CALL
VALUE$NUMBER.V#
      2399**DCL      2611<<ASSIGN
VALUE_NUMBER$
      2354**DCL      2365--IMP-PTR  2609<>CALL     2611>>ASSIGN   2615>>CALL     2618>>CALL
VD$PORT
      2516**DCL      2622<>CALL
VDA$LWRITE
      2281**DCL-ENT  2615--CALL
VDA$PFLUSH
      2282**DCL-ENT  2622--CALL
VDG$OALLOC
      2279**DCL-ENT  2609--CALL
VDG$OFREE
      2280**DCL-ENT  2618--CALL
VD_6E.EQUALS$
      2298**DCL      2410--IMP-PTR  2615>>CALL     2622>>CALL
VD_ACCESSOR_PRIV
      2321**DCL      2613>>ASSIGN   2614<<ASSIGN   2617<<ASSIGN   2624<<ASSIGN   2628<<ASSIGN
