PL6.E3A0      #009=VDI$CSYNONYM File=VDI$COMMANDS_NON_EDITING.:VDA5TSI           FRI 07/04/97 11:32 Page:194
     1272        1        /*M* VDI$CSYNONYM - Command Processor for SYNONYM command */
     1273        2        /*T***********************************************************/
     1274        3        /*T*                                                         */
     1275        4        /*T* Copyright (c) Bull HN Information Systems Inc., 1997    */
     1276        5        /*T*                                                         */
     1277        6        /*T***********************************************************/
     1278        7
     1279        8        /*X* MCR=NO, DMC=YES */
     1280        9        /*T*/
     1281       10
     1282       11        /*P* NAME:  VDI$CSYNONYM
     1283       12            PURPOSE:
     1284       13                Command Processor for SYNONYM command.
     1285       14            DESCRIPTION:
     1286       15                Given a VD$IT_COMMAND node for a SYNONYM command, will perform
     1287       16                the command:  de-comment the right-side string, find/insert
     1288       17                the defined name in the Synonyms file, deleting it from
     1289       18                any other internal file it may have been defined in.
     1290       19        */
     1291       20
     1292       21        /*D* NAME:  VDI$CSYNONYM
     1293       22            PARAMETERS:
     1294       23                SYNONYM_CMD - The VD$IT_COMMAND InTree node for the command:
     1295       24                    .CODE must be %T_SYNONYM_CMD.
     1296       25                    .PARAM$ (%CP_SY_NAME) must point to a VD$TEXTC_REMOTE containing
     1297       26                        the name to assign.
     1298       27                    .PARAM$ (%CP_SY_VALUE) must point to a VD$BUFFER containing
     1299       28                        the value to assign to the name.  Note that this value is
     1300       29                        from an .ASYM PARTRGE node, so it may contain commentary
     1301       30                        which must be removed from the buffer before assigning the
     1302       31                        value to the name.
     1303       32            INPUT:
     1304       33                VD_$CONTROL and VD_$COMMENT - VD$BUFFER's for predefined names.
     1305       34                    The values of these names are strings which invoke lexical
     1306       35                    functions.  The name being defined by the SYNONYM command
     1307       36                    cannot have any of these two strings as a substring.
     1308       37            OUTPUT:
PL6.E3A0      #009=VDI$CSYNONYM File=VDI$COMMANDS_NON_EDITING.:VDA5TSI           FRI 07/04/97 11:32 Page:195
     1309       38                SYNONYM_CMD.PARAM$ (%CP_SY_VALUE) will be NIL.
     1310       39            DESCRIPTION:
     1311       40                Verify that the name being defined doesn't start with a digit.
     1312       41                Verify that neither the $CONTROL nor $COMMENT strings are substrings
     1313       42                    of the name being defined.
     1314       43                Remove any commentary from the value buffer.
     1315       44                Find the name in the Synonyms file:  if not found, insert it into the
     1316       45                    file, deleting it from any other internal file it may be defined in.
     1317       46        */
     1318       47
     1319       48        VDI$CSYNONYM: PROC (SYNONYM_CMD) ALTRET;
     1320       49
     1321       50        %INCLUDE VD_MACROS_M;
     1322     2265        %INCLUDE VD_PERR_C;
     1323     2413        %INCLUDE VD_NODES0_E;
     1324     2505
     1325     2506        %VD$IT_COMMAND (NAME=SYNONYM_CMD, STCLASS=PARAM);
     1326     2544
     1327     2545    1   DCL VDG$OALLOC                  ENTRY (3) ALTRET;
     1328     2546    1   DCL VDG$ESCREECH                ENTRY (3);
     1329     2547    1   DCL VDI$CUPDATE_NAME            ENTRY (4) ALTRET;
     1330     2548
     1331     2549        %VD_6E ( STCLASS = SYMREF );
     1332     2585        %VD_BUFFER ( NAME = VD_$CONTROL, STCLASS = SYMREF, MXNB=%MXNB_$CONTROL );
     1333     2645        %VD_BUFFER ( NAME = VD_$COMMENT, STCLASS = SYMREF, MXNB=%MXNB_$CONTROL );
     1334     2705        %VD_BUFFER (NAME=VD_STATIC_TEMP, STCLASS=SYMREF, MXNB=%MXNB_NAME_VALUE);
     1335     2765
     1336     2766    1   DCL SYNONYM_NAME$ PTR;
     1337     2767    1   DCL SYNONYM_VALUE$ PTR;
     1338     2768    1   DCL I UBIN;
     1339     2769    1   DCL J SBIN;
     1340     2770    1   DCL VD_ERR$ PTR;
     1341     2771
     1342     2772        %VD$TEXTC_REMOTE (NAME=SYNONYM$NAME, STCLASS="BASED(SYNONYM_NAME$)");
     1343     2833        %VD$BUFFER (NAME=SYNONYM$VALUE, STCLASS="BASED(SYNONYM_VALUE$)");
     1344     2891        %VD$STREAM;
     1345     2997        %VD$TEXTC;
PL6.E3A0      #009=VDI$CSYNONYM File=VDI$COMMANDS_NON_EDITING.:VDA5TSI           FRI 07/04/97 11:32 Page:196
     1346     3020        %VD$ERR;
     1347     3073        %EJECT;
PL6.E3A0      #009=VDI$CSYNONYM File=VDI$COMMANDS_NON_EDITING.:VDA5TSI           FRI 07/04/97 11:32 Page:197
     1348     3074    1           SYNONYM_NAME$ = SYNONYM_CMD.PARAM$ (%CP_SY_NAME);
     1349     3075    1           SYNONYM_VALUE$ = SYNONYM_CMD.PARAM$ (%CP_SY_VALUE);
     1350     3076
     1351     3077    1           IF SUBSTR(SYNONYM$NAME.BYTES, 0, 1) >= '0'
     1352     3078    1             AND SUBSTR(SYNONYM$NAME.BYTES, 0, 1) <= '9' THEN
     1353     3079    1              GOTO ILL_SY_NAME_FAILURE;
     1354     3080
     1355     3081    2           IF VD_$CONTROL.LENGTH# > 0 THEN DO;
     1356     3082    2              CALL INDEX (I, SUBSTR(VD_$CONTROL.BYTES, 0, VD_$CONTROL.LENGTH#),
     1357     3083    2                SYNONYM$NAME.BYTES);
     1358     3084    2              IF I < LENGTHC(SYNONYM$NAME.BYTES) THEN
     1359     3085    2                 GOTO ILL_SY_NAME_FAILURE;
     1360     3086    2              END;
     1361     3087    2           IF VD_$COMMENT.LENGTH# > 0 THEN DO;
     1362     3088    2              CALL INDEX (I, SUBSTR(VD_$COMMENT.BYTES, 0, VD_$COMMENT.LENGTH#),
     1363     3089    2                SYNONYM$NAME.BYTES);
     1364     3090    2              IF I < LENGTHC(SYNONYM$NAME.BYTES) THEN
     1365     3091    2                 GOTO ILL_SY_NAME_FAILURE;
     1366     3092    2              END;
     1367     3093
     1368     3094                /*
     1369     3095                *   Remove any comments in the value being assigned to the name.
     1370     3096                */
     1371     3097    2           IF VD_$COMMENT.LENGTH# > 0 THEN DO;
     1372     3098    2              I = 0;
     1373     3099    2   EACH_PAIR_OF_$COMMENTS:
     1374     3100    3              DO WHILE I < SYNONYM$VALUE.LENGTH#;
     1375     3101    3                 CALL INDEX (I, SUBSTR(VD_$COMMENT.BYTES, 0, VD_$COMMENT.LENGTH#),
     1376     3102    3                   SYNONYM$VALUE.BYTES, I);
     1377     3103    4                 IF I < SYNONYM$VALUE.LENGTH# THEN DO;
     1378     3104    4                    CALL INDEX (J, SUBSTR(VD_$COMMENT.BYTES, 0,
     1379     3105    4                      VD_$COMMENT.LENGTH#),
     1380     3106    4                      SYNONYM$VALUE.BYTES, I + 1)
     1381     3107    5                    WHENRETURN DO;
     1382     3108    5                       J = J + 1;  /* So J points to next char to keep */
     1383     3109    5                       END;
     1384     3110                         /* Remove the text from I to (J-1), inclusive */
PL6.E3A0      #009=VDI$CSYNONYM File=VDI$COMMANDS_NON_EDITING.:VDA5TSI           FRI 07/04/97 11:32 Page:198
     1385     3111    4                    VD_STATIC_TEMP.LENGTH# = SYNONYM$VALUE.LENGTH# - (J - I);
     1386     3112    4                    VD_STATIC_TEMP.BYTES = SUBSTR(SYNONYM$VALUE.BYTES, 0, I);
     1387     3113    5                    IF J < SYNONYM$VALUE.LENGTH# THEN DO;
     1388     3114    5                       CALL INSERT (VD_STATIC_TEMP.BYTES, I,
     1389     3115    5                         VD_STATIC_TEMP.LENGTH#, SUBSTR(SYNONYM$VALUE.BYTES, J))
     1390     3116    6                       WHENALTRETURN DO;
     1391     3117    6                          CALL VDG$ESCREECH (I, J, SYNONYM$VALUE.LENGTH#);
     1392     3118    6                          END;
     1393     3119    5                       END;
     1394     3120    4                    SYNONYM$VALUE.LENGTH# = VD_STATIC_TEMP.LENGTH#;
     1395     3121    4                    SYNONYM$VALUE.BYTES = VD_STATIC_TEMP.BYTES;
     1396     3122    4                    END;
     1397     3123    3                 END EACH_PAIR_OF_$COMMENTS;
     1398     3124    2              END;
     1399     3125
     1400     3126
     1401     3127    1           CALL VDI$CUPDATE_NAME ( VD_6E.SYNONYMS$ -> VD$STREAM,
     1402     3128    1             ADDR ( SYNONYM$NAME.LENGTH# ) -> VD$TEXTC,
     1403     3129    1             SYNONYM_CMD.PARAM$ (%CP_SY_VALUE) )
     1404     3130    1           WHENALTRETURN
     1405     3131    2           DO;
     1406     3132    2              ALTRETURN;
     1407     3133    2              END;
     1408     3134                /* The Synonym file now owns the value VD$BUFFER object */
     1409     3135
     1410     3136    1           RETURN;
     1411     3137
     1412     3138    1   ILL_SY_NAME_FAILURE:
     1413     3139    1           CALL VDG$OALLOC ( %CLS_ERR, VD_ERR$ )
     1414     3140    1           WHENALTRETURN
     1415     3141    2           DO;
     1416     3142    2              ALTRETURN;
     1417     3143    2              END;
     1418     3144    1           VD_ERR$ -> VD$ERR.ERR.CODE# = %E$BAD_SY_NAME;
     1419     3145    1           VD_ERR$ -> VD$ERR.FLAGLEV# = %FLV_SERIOUS;
     1420     3146    1           ALTRETURN;
     1421     3147
PL6.E3A0      #009=VDI$CSYNONYM File=VDI$COMMANDS_NON_EDITING.:VDA5TSI           FRI 07/04/97 11:32 Page:199
     1422     3148    1   END VDI$CSYNONYM;
     1423     3149        %EOD;

PL6.E3A0      #009=VDI$CSYNONYM File=VDI$COMMANDS_NON_EDITING.:VDA5TSI           FRI 07/04/97 11:32 Page:200
--  Include file information  --

   VD_NODES0_E.:VDA5TOU  is referenced.
   VD_PERR_C.:VDA5TOU  is referenced.
   VD_MACROS_M.:VDA5TOU  is referenced.
   B$JIT_C.:E04TOU  was found in the system file and is never referenced.
   CP_6_C.:E04TOU  was found in the system file and is never referenced.
      No diagnostics issued in procedure VDI$CSYNONYM.

   Procedure VDI$CSYNONYM requires 200 words for executable code.
   Procedure VDI$CSYNONYM requires 14 words of local(AUTO) storage.

PL6.E3A0      #009=VDI$CSYNONYM File=VDI$COMMANDS_NON_EDITING.:VDA5TSI           FRI 07/04/97 11:32 Page:201

 Object Unit name= VDI$CSYNONYM                               File name= VDI$COMMANDS_NON_EDITING.:VDA5TOU
 UTS= JUL 04 '97 11:32:39.20 FRI                              Compiler= PL-6/E31         Sev=      00
 SharedLib= :SHARED_SYSTEM                                    Alt SharedLib=


    ****  Control sections  ****

 Sect   Type Bound  Init  Size OctSiz  Section name(segment info)
    0   Proc  even  none   200    310  VDI$CSYNONYM
    1  RoData even  none     2      2  VDI$CSYNONYM

    ****  Entry defs  ****

                              Check   Calling
                             calling  sequence
  Sect OctLoc Primary Altret sequence   type   Parms  Name
     0      0   yes    yes     yes      Std        1  VDI$CSYNONYM

  ****  Entry refs  ****

         Check        Calling
        calling       sequence
Altret sequence SRef   type   Args  Name
         yes           Std       3 VDG$ESCREECH
 yes     yes           Std       3 VDG$OALLOC
 yes     yes           Std       4 VDI$CUPDATE_NAME
                       nStd      0 X66_AUTO_1
                       nStd      0 X66_INDEX
                       Std       0 B_CONSPOOL_D
                       nStd      0 X66_AALT
                       nStd      0 X66_ARET
PL6.E3A0      #009=VDI$CSYNONYM File=VDI$COMMANDS_NON_EDITING.:VDA5TSI           FRI 07/04/97 11:32 Page:202

  ****  Data refs  ****

  Flags:  r = read only, s = secondary
Flgs Name                             Flgs Name                             Flgs Name
     VD_6E                                 VD_$CONTROL                           VD_$COMMENT
     VD_STATIC_TEMP                        B_VECTNIL

  ****  Segment refs  ****

  Flags:  r = read only, s = secondary
Flgs Name                             Flgs Name                             Flgs Name
     ISSID
PL6.E3A0      #009=VDI$CSYNONYM File=VDI$COMMANDS_NON_EDITING.:VDA5TSI           FRI 07/04/97 11:32 Page:203


     1272        1        /*M* VDI$CSYNONYM - Command Processor for SYNONYM command */
     1273        2        /*T***********************************************************/
     1274        3        /*T*                                                         */
     1275        4        /*T* Copyright (c) Bull HN Information Systems Inc., 1997    */
     1276        5        /*T*                                                         */
     1277        6        /*T***********************************************************/
     1278        7
     1279        8        /*X* MCR=NO, DMC=YES */
     1280        9        /*T*/
     1281       10
     1282       11        /*P* NAME:  VDI$CSYNONYM
     1283       12            PURPOSE:
     1284       13                Command Processor for SYNONYM command.
     1285       14            DESCRIPTION:
     1286       15                Given a VD$IT_COMMAND node for a SYNONYM command, will perform
     1287       16                the command:  de-comment the right-side string, find/insert
     1288       17                the defined name in the Synonyms file, deleting it from
     1289       18                any other internal file it may have been defined in.
     1290       19        */
     1291       20
     1292       21        /*D* NAME:  VDI$CSYNONYM
     1293       22            PARAMETERS:
     1294       23                SYNONYM_CMD - The VD$IT_COMMAND InTree node for the command:
     1295       24                    .CODE must be %T_SYNONYM_CMD.
     1296       25                    .PARAM$ (%CP_SY_NAME) must point to a VD$TEXTC_REMOTE containing
     1297       26                        the name to assign.
     1298       27                    .PARAM$ (%CP_SY_VALUE) must point to a VD$BUFFER containing
     1299       28                        the value to assign to the name.  Note that this value is
     1300       29                        from an .ASYM PARTRGE node, so it may contain commentary
     1301       30                        which must be removed from the buffer before assigning the
     1302       31                        value to the name.
     1303       32            INPUT:
     1304       33                VD_$CONTROL and VD_$COMMENT - VD$BUFFER's for predefined names.
     1305       34                    The values of these names are strings which invoke lexical
     1306       35                    functions.  The name being defined by the SYNONYM command
     1307       36                    cannot have any of these two strings as a substring.
PL6.E3A0      #009=VDI$CSYNONYM File=VDI$COMMANDS_NON_EDITING.:VDA5TSI           FRI 07/04/97 11:32 Page:204
     1308       37            OUTPUT:
     1309       38                SYNONYM_CMD.PARAM$ (%CP_SY_VALUE) will be NIL.
     1310       39            DESCRIPTION:
     1311       40                Verify that the name being defined doesn't start with a digit.
     1312       41                Verify that neither the $CONTROL nor $COMMENT strings are substrings
     1313       42                    of the name being defined.
     1314       43                Remove any commentary from the value buffer.
     1315       44                Find the name in the Synonyms file:  if not found, insert it into the
     1316       45                    file, deleting it from any other internal file it may be defined in.
     1317       46        */
     1318       47
     1319       48        VDI$CSYNONYM: PROC (SYNONYM_CMD) ALTRET;

     48  0 000000   000000 700200 xent  VDI$CSYNONYM TSX0  ! X66_AUTO_1
         0 000001   000016 000001                    ZERO    14,1

     1320       49
     1321       50        %INCLUDE VD_MACROS_M;
     1322     2265        %INCLUDE VD_PERR_C;
     1323     2413        %INCLUDE VD_NODES0_E;
     1324     2505
     1325     2506        %VD$IT_COMMAND (NAME=SYNONYM_CMD, STCLASS=PARAM);
     1326     2544
     1327     2545    1   DCL VDG$OALLOC                  ENTRY (3) ALTRET;
     1328     2546    1   DCL VDG$ESCREECH                ENTRY (3);
     1329     2547    1   DCL VDI$CUPDATE_NAME            ENTRY (4) ALTRET;
     1330     2548
     1331     2549        %VD_6E ( STCLASS = SYMREF );
     1332     2585        %VD_BUFFER ( NAME = VD_$CONTROL, STCLASS = SYMREF, MXNB=%MXNB_$CONTROL );
     1333     2645        %VD_BUFFER ( NAME = VD_$COMMENT, STCLASS = SYMREF, MXNB=%MXNB_$CONTROL );
     1334     2705        %VD_BUFFER (NAME=VD_STATIC_TEMP, STCLASS=SYMREF, MXNB=%MXNB_NAME_VALUE);
     1335     2765
     1336     2766    1   DCL SYNONYM_NAME$ PTR;
     1337     2767    1   DCL SYNONYM_VALUE$ PTR;
     1338     2768    1   DCL I UBIN;
     1339     2769    1   DCL J SBIN;
     1340     2770    1   DCL VD_ERR$ PTR;
PL6.E3A0      #009=VDI$CSYNONYM File=VDI$COMMANDS_NON_EDITING.:VDA5TSI           FRI 07/04/97 11:32 Page:205
     1341     2771
     1342     2772        %VD$TEXTC_REMOTE (NAME=SYNONYM$NAME, STCLASS="BASED(SYNONYM_NAME$)");
     1343     2833        %VD$BUFFER (NAME=SYNONYM$VALUE, STCLASS="BASED(SYNONYM_VALUE$)");
     1344     2891        %VD$STREAM;
     1345     2997        %VD$TEXTC;
     1346     3020        %VD$ERR;
     1347     3073        %EJECT;
PL6.E3A0      #009=VDI$CSYNONYM File=VDI$COMMANDS_NON_EDITING.:VDA5TSI           FRI 07/04/97 11:32 Page:206
     1348     3074    1           SYNONYM_NAME$ = SYNONYM_CMD.PARAM$ (%CP_SY_NAME);

   3074  0 000002   200003 470500                    LDP0    @SYNONYM_CMD,,AUTO
         0 000003   000006 236100                    LDQ     6,,PR0
         0 000004   200004 756100                    STQ     SYNONYM_NAME$,,AUTO

     1349     3075    1           SYNONYM_VALUE$ = SYNONYM_CMD.PARAM$ (%CP_SY_VALUE);

   3075  0 000005   000007 236100                    LDQ     7,,PR0
         0 000006   200005 756100                    STQ     SYNONYM_VALUE$,,AUTO

     1350     3076
     1351     3077    1           IF SUBSTR(SYNONYM$NAME.BYTES, 0, 1) >= '0'

   3077  0 000007   200004 471500                    LDP1    SYNONYM_NAME$,,AUTO
         0 000010   100002 236100                    LDQ     2,,PR1
         0 000011   000033 772000                    QRL     27
         0 000012   100002 236100                    LDQ     2,,PR1
         0 000013   000777 376003                    ANQ     511,DU
         0 000014   000060 116003                    CMPQ    48,DU
         0 000015   000025 602000 0                  TNC     s:3081
         0 000016   100002 236100                    LDQ     2,,PR1
         0 000017   000033 772000                    QRL     27
         0 000020   100002 236100                    LDQ     2,,PR1
         0 000021   000777 376003                    ANQ     511,DU
         0 000022   000071 116003                    CMPQ    57,DU
         0 000023   000265 602000 0                  TNC     ILL_SY_NAME_FAILURE
         0 000024   000265 600000 0                  TZE     ILL_SY_NAME_FAILURE

     1352     3078    1             AND SUBSTR(SYNONYM$NAME.BYTES, 0, 1) <= '9' THEN
     1353     3079    1              GOTO ILL_SY_NAME_FAILURE;
     1354     3080
     1355     3081    2           IF VD_$CONTROL.LENGTH# > 0 THEN DO;

   3081  0 000025   000002 220000 xsym               LDX0    VD_$CONTROL+2
         0 000026   000053 604400 0                  TMOZ    s:3087

PL6.E3A0      #009=VDI$CSYNONYM File=VDI$COMMANDS_NON_EDITING.:VDA5TSI           FRI 07/04/97 11:32 Page:207
     1356     3082    2              CALL INDEX (I, SUBSTR(VD_$CONTROL.BYTES, 0, VD_$CONTROL.LENGTH#),

   3082  0 000027   100002 236100                    LDQ     2,,PR1
         0 000030   000033 772000                    QRL     27
         0 000031   200006 631500                    EPPR1   I,,AUTO
         0 000032   000002 633400 xsym               EPPR3   VD_$CONTROL+2
         0 000033   000002 221003                    LDX1    2,DU
         0 000034   300000 500511                    A9BD    0,X1,PR3
         0 000035   000000 623010                    EAX3    0,X0
         0 000036   200004 470500                    LDP0    SYNONYM_NAME$,,AUTO
         0 000037   000011 222003                    LDX2    9,DU
         0 000040   000000 500512                    A9BD    0,X2,PR0
         0 000041   000000 620006                    EAX0    0,QL
         0 000042   000000 236003                    LDQ     0,DU
         0 000043   000000 701000 xent               TSX1    X66_INDEX
         0 000044   000000 011000                    NOP     0

     1357     3083    2                SYNONYM$NAME.BYTES);
     1358     3084    2              IF I < LENGTHC(SYNONYM$NAME.BYTES) THEN

   3084  0 000045   200004 470500                    LDP0    SYNONYM_NAME$,,AUTO
         0 000046   000002 236100                    LDQ     2,,PR0
         0 000047   000033 772000                    QRL     27
         0 000050   200006 116100                    CMPQ    I,,AUTO
         0 000051   000053 600000 0                  TZE     s:3087
         0 000052   000265 603000 0                  TRC     ILL_SY_NAME_FAILURE

     1359     3085    2                 GOTO ILL_SY_NAME_FAILURE;
     1360     3086    2              END;

     1361     3087    2           IF VD_$COMMENT.LENGTH# > 0 THEN DO;

   3087  0 000053   000002 220000 xsym               LDX0    VD_$COMMENT+2
         0 000054   000101 604400 0                  TMOZ    s:3097

     1362     3088    2              CALL INDEX (I, SUBSTR(VD_$COMMENT.BYTES, 0, VD_$COMMENT.LENGTH#),

PL6.E3A0      #009=VDI$CSYNONYM File=VDI$COMMANDS_NON_EDITING.:VDA5TSI           FRI 07/04/97 11:32 Page:208
   3088  0 000055   200004 470500                    LDP0    SYNONYM_NAME$,,AUTO
         0 000056   000002 236100                    LDQ     2,,PR0
         0 000057   000033 772000                    QRL     27
         0 000060   200006 631500                    EPPR1   I,,AUTO
         0 000061   000002 633400 xsym               EPPR3   VD_$COMMENT+2
         0 000062   000002 221003                    LDX1    2,DU
         0 000063   300000 500511                    A9BD    0,X1,PR3
         0 000064   000000 623010                    EAX3    0,X0
         0 000065   000011 222003                    LDX2    9,DU
         0 000066   000000 500512                    A9BD    0,X2,PR0
         0 000067   000000 620006                    EAX0    0,QL
         0 000070   000000 236003                    LDQ     0,DU
         0 000071   000000 701000 xent               TSX1    X66_INDEX
         0 000072   000000 011000                    NOP     0

     1363     3089    2                SYNONYM$NAME.BYTES);
     1364     3090    2              IF I < LENGTHC(SYNONYM$NAME.BYTES) THEN

   3090  0 000073   200004 470500                    LDP0    SYNONYM_NAME$,,AUTO
         0 000074   000002 236100                    LDQ     2,,PR0
         0 000075   000033 772000                    QRL     27
         0 000076   200006 116100                    CMPQ    I,,AUTO
         0 000077   000101 600000 0                  TZE     s:3097
         0 000100   000265 603000 0                  TRC     ILL_SY_NAME_FAILURE

     1365     3091    2                 GOTO ILL_SY_NAME_FAILURE;
     1366     3092    2              END;

     1367     3093
     1368     3094                /*
     1369     3095                *   Remove any comments in the value being assigned to the name.
     1370     3096                */
     1371     3097    2           IF VD_$COMMENT.LENGTH# > 0 THEN DO;

   3097  0 000101   000002 220000 xsym               LDX0    VD_$COMMENT+2
         0 000102   000247 604400 0                  TMOZ    s:3127

PL6.E3A0      #009=VDI$CSYNONYM File=VDI$COMMANDS_NON_EDITING.:VDA5TSI           FRI 07/04/97 11:32 Page:209
     1372     3098    2              I = 0;

   3098  0 000103   200006 450100                    STZ     I,,AUTO

     1373     3099    2   EACH_PAIR_OF_$COMMENTS:
     1374     3100    3              DO WHILE I < SYNONYM$VALUE.LENGTH#;

   3100  0 000104   200005 470500       EACH_PAIR_O* LDP0    SYNONYM_VALUE$,,AUTO
         0 000105   000002 236100                    LDQ     2,,PR0
         0 000106   000022 732000                    QRS     18
         0 000107   000247 604000 0                  TMI     s:3127
         0 000110   200006 116100                    CMPQ    I,,AUTO
         0 000111   000247 602000 0                  TNC     s:3127
         0 000112   000247 600000 0                  TZE     s:3127

     1375     3101    3                 CALL INDEX (I, SUBSTR(VD_$COMMENT.BYTES, 0, VD_$COMMENT.LENGTH#),

   3101  0 000113   200005 470500                    LDP0    SYNONYM_VALUE$,,AUTO
         0 000114   000002 220100                    LDX0    2,,PR0
         0 000115   200006 631500                    EPPR1   I,,AUTO
         0 000116   000002 633400 xsym               EPPR3   VD_$COMMENT+2
         0 000117   000002 221003                    LDX1    2,DU
         0 000120   300000 500511                    A9BD    0,X1,PR3
         0 000121   000002 223000 xsym               LDX3    VD_$COMMENT+2
         0 000122   000012 222003                    LDX2    10,DU
         0 000123   000000 500512                    A9BD    0,X2,PR0
         0 000124   200006 236100                    LDQ     I,,AUTO
         0 000125   000000 701000 xent               TSX1    X66_INDEX
         0 000126   000000 011000                    NOP     0

     1376     3102    3                   SYNONYM$VALUE.BYTES, I);
     1377     3103    4                 IF I < SYNONYM$VALUE.LENGTH# THEN DO;

   3103  0 000127   200005 470500                    LDP0    SYNONYM_VALUE$,,AUTO
         0 000130   000002 236100                    LDQ     2,,PR0
         0 000131   000022 732000                    QRS     18
         0 000132   000241 604000 0                  TMI     s:3123
PL6.E3A0      #009=VDI$CSYNONYM File=VDI$COMMANDS_NON_EDITING.:VDA5TSI           FRI 07/04/97 11:32 Page:210
         0 000133   200006 116100                    CMPQ    I,,AUTO
         0 000134   000241 602000 0                  TNC     s:3123
         0 000135   000241 600000 0                  TZE     s:3123

     1378     3104    4                    CALL INDEX (J, SUBSTR(VD_$COMMENT.BYTES, 0,

   3104  0 000136   000002 220100                    LDX0    2,,PR0
         0 000137   200007 631500                    EPPR1   J,,AUTO
         0 000140   000002 633400 xsym               EPPR3   VD_$COMMENT+2
         0 000141   000002 221003                    LDX1    2,DU
         0 000142   300000 500511                    A9BD    0,X1,PR3
         0 000143   000000 500512                    A9BD    0,X2,PR0
         0 000144   200006 236100                    LDQ     I,,AUTO
         0 000145   000001 036007                    ADLQ    1,DL
         0 000146   000000 701000 xent               TSX1    X66_INDEX
         0 000147   000151 710000 0                  TRA     s:3111

     1379     3105    4                      VD_$COMMENT.LENGTH#),
     1380     3106    4                      SYNONYM$VALUE.BYTES, I + 1)
     1381     3107    5                    WHENRETURN DO;

     1382     3108    5                       J = J + 1;  /* So J points to next char to keep */

   3108  0 000150   200007 054100                    AOS     J,,AUTO

     1383     3109    5                       END;

     1384     3110                         /* Remove the text from I to (J-1), inclusive */
     1385     3111    4                    VD_STATIC_TEMP.LENGTH# = SYNONYM$VALUE.LENGTH# - (J - I);

   3111  0 000151   200007 236100                    LDQ     J,,AUTO
         0 000152   200006 136100                    SBLQ    I,,AUTO
         0 000153   200012 756100                    STQ     VD_ERR$+2,,AUTO
         0 000154   200005 470500                    LDP0    SYNONYM_VALUE$,,AUTO
         0 000155   000002 236100                    LDQ     2,,PR0
         0 000156   000022 732000                    QRS     18
         0 000157   200012 136100                    SBLQ    VD_ERR$+2,,AUTO
PL6.E3A0      #009=VDI$CSYNONYM File=VDI$COMMANDS_NON_EDITING.:VDA5TSI           FRI 07/04/97 11:32 Page:211
         0 000160   000000 620006                    EAX0    0,QL
         0 000161   000002 740000 xsym               STX0    VD_STATIC_TEMP+2

     1386     3112    4                    VD_STATIC_TEMP.BYTES = SUBSTR(SYNONYM$VALUE.BYTES, 0, I);

   3112  0 000162   000002 221100                    LDX1    2,,PR0
         0 000163   200006 722100                    LXL2    I,,AUTO
         0 000164   040040 100540                    MLR     fill='040'O
         0 000165   000002 400012                    ADSC9   2,,PR0                   cn=2,n=*X2
         0 000166   000002 400010 xsym               ADSC9   VD_STATIC_TEMP+2         cn=2,n=*X0

     1387     3113    5                    IF J < SYNONYM$VALUE.LENGTH# THEN DO;

   3113  0 000167   000002 236100                    LDQ     2,,PR0
         0 000170   000022 732000                    QRS     18
         0 000171   200007 116100                    CMPQ    J,,AUTO
         0 000172   000232 604400 0                  TMOZ    s:3120

     1388     3114    5                       CALL INSERT (VD_STATIC_TEMP.BYTES, I,

   3114  0 000173   000002 221100                    LDX1    2,,PR0
         0 000174   000000 636011                    EAQ     0,X1
         0 000175   000022 732000                    QRS     18
         0 000176   200007 136100                    SBLQ    J,,AUTO
         0 000177   000000 623006                    EAX3    0,QL
         0 000200   200007 235100                    LDA     J,,AUTO
         0 000201   200012 756100                    STQ     VD_ERR$+2,,AUTO
         0 000202   200006 236100                    LDQ     I,,AUTO
         0 000203   040046 100545                    MLR     fill='040'O
         0 000204   000002 400013                    ADSC9   2,A,PR0                  cn=2,n=*X3
         0 000205   000002 400010 xsym               ADSC9   VD_STATIC_TEMP+2,Q       cn=2,n=*X0
         0 000206   200012 236100                    LDQ     VD_ERR$+2,,AUTO
         0 000207   000011 402007                    MPY     9,DL
         0 000210   200013 756100                    STQ     VD_ERR$+3,,AUTO
         0 000211   000002 236000 xsym               LDQ     VD_STATIC_TEMP+2
         0 000212   000022 732000                    QRS     18
         0 000213   000011 402007                    MPY     9,DL
PL6.E3A0      #009=VDI$CSYNONYM File=VDI$COMMANDS_NON_EDITING.:VDA5TSI           FRI 07/04/97 11:32 Page:212
         0 000214   200013 116100                    CMPQ    VD_ERR$+3,,AUTO
         0 000215   000217 604000 0                  TMI     s:3117
         0 000216   000232 710000 0                  TRA     s:3120

     1389     3115    5                         VD_STATIC_TEMP.LENGTH#, SUBSTR(SYNONYM$VALUE.BYTES, J))
     1390     3116    6                       WHENALTRETURN DO;

     1391     3117    6                          CALL VDG$ESCREECH (I, J, SYNONYM$VALUE.LENGTH#);

   3117  0 000217   200005 236100                    LDQ     SYNONYM_VALUE$,,AUTO
         0 000220   000002 036003                    ADLQ    2,DU
         0 000221   200014 756100                    STQ     VD_ERR$+4,,AUTO
         0 000222   200007 630500                    EPPR0   J,,AUTO
         0 000223   200013 450500                    STP0    VD_ERR$+3,,AUTO
         0 000224   200006 631500                    EPPR1   I,,AUTO
         0 000225   200012 451500                    STP1    VD_ERR$+2,,AUTO
         0 000226   200012 630500                    EPPR0   VD_ERR$+2,,AUTO
         0 000227   000021 631400 xsym               EPPR1   B_VECTNIL+17
         0 000230   000000 701000 xent               TSX1    VDG$ESCREECH
         0 000231   000000 011000                    NOP     0

     1392     3118    6                          END;

     1393     3119    5                       END;

     1394     3120    4                    SYNONYM$VALUE.LENGTH# = VD_STATIC_TEMP.LENGTH#;

   3120  0 000232   000002 220000 xsym               LDX0    VD_STATIC_TEMP+2
         0 000233   200005 470500                    LDP0    SYNONYM_VALUE$,,AUTO
         0 000234   000002 740100                    STX0    2,,PR0

     1395     3121    4                    SYNONYM$VALUE.BYTES = VD_STATIC_TEMP.BYTES;

   3121  0 000235   000002 221000 xsym               LDX1    VD_STATIC_TEMP+2
         0 000236   040140 100440                    MLR     fill='040'O
         0 000237   000002 400011 xsym               ADSC9   VD_STATIC_TEMP+2         cn=2,n=*X1
         0 000240   000002 400010                    ADSC9   2,,PR0                   cn=2,n=*X0
PL6.E3A0      #009=VDI$CSYNONYM File=VDI$COMMANDS_NON_EDITING.:VDA5TSI           FRI 07/04/97 11:32 Page:213

     1396     3122    4                    END;

     1397     3123    3                 END EACH_PAIR_OF_$COMMENTS;

   3123  0 000241   000002 236100                    LDQ     2,,PR0
         0 000242   000022 732000                    QRS     18
         0 000243   000247 604000 0                  TMI     s:3127
         0 000244   200006 116100                    CMPQ    I,,AUTO
         0 000245   000247 600000 0                  TZE     s:3127
         0 000246   000113 603000 0                  TRC     s:3101

     1398     3124    2              END;

     1399     3125
     1400     3126
     1401     3127    1           CALL VDI$CUPDATE_NAME ( VD_6E.SYNONYMS$ -> VD$STREAM,

   3127  0 000247   200003 236100                    LDQ     @SYNONYM_CMD,,AUTO
         0 000250   000007 036003                    ADLQ    7,DU
         0 000251   200014 756100                    STQ     VD_ERR$+4,,AUTO
         0 000252   200004 236100                    LDQ     SYNONYM_NAME$,,AUTO
         0 000253   000002 036003                    ADLQ    2,DU
         0 000254   000003 235000 xsym               LDA     VD_6E+3
         0 000255   200012 757100                    STAQ    VD_ERR$+2,,AUTO
         0 000256   200012 630500                    EPPR0   VD_ERR$+2,,AUTO
         0 000257   000021 631400 xsym               EPPR1   B_VECTNIL+17
         0 000260   000000 701000 xent               TSX1    VDI$CUPDATE_NAME
         0 000261   000263 702000 0                  TSX2    s:3132
         0 000262   000264 710000 0                  TRA     s:3136

     1402     3128    1             ADDR ( SYNONYM$NAME.LENGTH# ) -> VD$TEXTC,
     1403     3129    1             SYNONYM_CMD.PARAM$ (%CP_SY_VALUE) )
     1404     3130    1           WHENALTRETURN
     1405     3131    2           DO;

     1406     3132    2              ALTRETURN;
PL6.E3A0      #009=VDI$CSYNONYM File=VDI$COMMANDS_NON_EDITING.:VDA5TSI           FRI 07/04/97 11:32 Page:214

   3132  0 000263   000000 702200 xent               TSX2  ! X66_AALT

     1407     3133    2              END;
     1408     3134                /* The Synonym file now owns the value VD$BUFFER object */
     1409     3135
     1410     3136    1           RETURN;

   3136  0 000264   000000 702200 xent               TSX2  ! X66_ARET

     1411     3137
     1412     3138    1   ILL_SY_NAME_FAILURE:
     1413     3139    1           CALL VDG$OALLOC ( %CLS_ERR, VD_ERR$ )

   3139  0 000265   200010 630500       ILL_SY_NAME* EPPR0   VD_ERR$,,AUTO
         0 000266   200013 450500                    STP0    VD_ERR$+3,,AUTO
         0 000267   000000 236000 1                  LDQ     0
         0 000270   200012 756100                    STQ     VD_ERR$+2,,AUTO
         0 000271   200012 630500                    EPPR0   VD_ERR$+2,,AUTO
         0 000272   000020 631400 xsym               EPPR1   B_VECTNIL+16
         0 000273   000000 701000 xent               TSX1    VDG$OALLOC
         0 000274   000276 702000 0                  TSX2    s:3142
         0 000275   000277 710000 0                  TRA     s:3144

     1414     3140    1           WHENALTRETURN
     1415     3141    2           DO;

     1416     3142    2              ALTRETURN;

   3142  0 000276   000000 702200 xent               TSX2  ! X66_AALT

     1417     3143    2              END;
     1418     3144    1           VD_ERR$ -> VD$ERR.ERR.CODE# = %E$BAD_SY_NAME;

   3144  0 000277   200010 470500                    LDP0    VD_ERR$,,AUTO
         0 000300   000002 236100                    LDQ     2,,PR0
         0 000301   000001 376000 1                  ANQ     1
PL6.E3A0      #009=VDI$CSYNONYM File=VDI$COMMANDS_NON_EDITING.:VDA5TSI           FRI 07/04/97 11:32 Page:215
         0 000302   001760 276007                    ORQ     1008,DL
         0 000303   000002 756100                    STQ     2,,PR0

     1419     3145    1           VD_ERR$ -> VD$ERR.FLAGLEV# = %FLV_SERIOUS;

   3145  0 000304   000003 220003                    LDX0    3,DU
         0 000305   200010 470500                    LDP0    VD_ERR$,,AUTO
         0 000306   000003 740100                    STX0    3,,PR0

     1420     3146    1           ALTRETURN;

   3146  0 000307   000000 702200 xent               TSX2  ! X66_AALT
     1421     3147
     1422     3148    1   END VDI$CSYNONYM;
     1423     3149        %EOD;

PL6.E3A0      #009=VDI$CSYNONYM File=VDI$COMMANDS_NON_EDITING.:VDA5TSI           FRI 07/04/97 11:32 Page:216
--  Include file information  --

   VD_NODES0_E.:VDA5TOU  is referenced.
   VD_PERR_C.:VDA5TOU  is referenced.
   VD_MACROS_M.:VDA5TOU  is referenced.
   B$JIT_C.:E04TOU  was found in the system file and is never referenced.
   CP_6_C.:E04TOU  was found in the system file and is never referenced.
      No diagnostics issued in procedure VDI$CSYNONYM.
PL6.E3A0      #009=VDI$CSYNONYM File=VDI$COMMANDS_NON_EDITING.:VDA5TSI           FRI 07/04/97 11:32 Page:217

 **** Variables and constants ****

  ****  Auto variables  ****

  ****  Scalars and arrays  ****
OctLoc.c.b A Datatyp(siz) R M Lvl/name                 OctLoc.c.b A Datatyp(siz) R M Lvl/name

     3-0-0/w PTR         r     1 @SYNONYM_CMD               6-0-0/w UBIN        r     1 I
     7-0-0/w SBIN        r     1 J                         *0-0-0/w STRC(540)   r     1 SYNONYM_CMD
     4-0-0/w PTR         r     1 SYNONYM_NAME$              5-0-0/w PTR         r     1 SYNONYM_VALUE$
    10-0-0/w PTR         r     1 VD_ERR$

  ****  SYMREF variables  ****

  ****  Scalars and arrays  ****
OctLoc.c.b A Datatyp(siz) R M Lvl/name                 OctLoc.c.b A Datatyp(siz) R M Lvl/name

     0-0-0/w ASTR(90)    r     1 VD_$COMMENT                0-0-0/w ASTR(90)    r     1 VD_$CONTROL
     0-0-0/w STRC(22644) r     1 VD_6E                      0-0-0/w ASTR(90)    r     1 VD_STATIC_TEMP

  ****  BASED and DCB variables  ****

  ****  Scalars and arrays  ****
OctLoc.c.b A Datatyp(siz) R M Lvl/name                 OctLoc.c.b A Datatyp(siz) R M Lvl/name

     0-0-0/w ASTR(81)    r     1 SYNONYM$NAME               0-0-0/w ASTR(90)    r     1 SYNONYM$VALUE
     0-0-0/w STRC(180)   r     1 VD$ERR                     0-0-0/w STRC(864)   r     1 VD$STREAM
     0-0-0/w ASTR(9)     r     1 VD$TEXTC


   Procedure VDI$CSYNONYM requires 200 words for executable code.
   Procedure VDI$CSYNONYM requires 14 words of local(AUTO) storage.
PL6.E3A0      #009=VDI$CSYNONYM File=VDI$COMMANDS_NON_EDITING.:VDA5TSI           FRI 07/04/97 11:32 Page:218
          *** CROSS REFERENCE LISTING ***
**     DENOTES     IDENTIFIER DEFINITION
<<                 IDENTIFIER'S VALUE SET
>>                 IDENTIFIER'S VALUE USED
<>                 IDENTIFIER SET AND/OR USED
--                 IDENTIFIER REFERENCED
PL6.E3A0      #009=VDI$CSYNONYM File=VDI$COMMANDS_NON_EDITING.:VDA5TSI           FRI 07/04/97 11:32 Page:219
          MINI XREF LISTING

I
      2768**DCL      3082<<CALLBLT  3084>>IF       3088<<CALLBLT  3090>>IF       3098<<ASSIGN   3100>>DOWHILE
      3101<<CALLBLT  3101>>CALLBLT  3103>>IF       3104>>CALLBLT  3111>>ASSIGN   3112>>ASSIGN   3114>>CALLBLT
      3117<>CALL
ILL_SY_NAME_FAILURE
      3139**LABEL    3079--GOTO     3085--GOTO     3091--GOTO
J
      2769**DCL      3104<<CALLBLT  3108<<ASSIGN   3108>>ASSIGN   3111>>ASSIGN   3113>>IF       3114>>CALLBLT
      3117<>CALL
SYNONYM$NAME.BYTES
      2828**DCL      3077>>IF       3077>>IF       3082>>CALLBLT  3084--IF       3088>>CALLBLT  3090--IF
SYNONYM$NAME.LENGTH#
      2826**DCL      2828--IMP-SIZ  3077>>IF       3077>>IF       3082>>CALLBLT  3084>>IF       3088>>CALLBLT
      3090>>IF       3127--CALL     3127--CALL
SYNONYM$VALUE.BYTES
      2886**DCL      3101>>CALLBLT  3104>>CALLBLT  3112>>ASSIGN   3114>>CALLBLT  3121<<ASSIGN
SYNONYM$VALUE.LENGTH#
      2884**DCL      2886--IMP-SIZ  3100>>DOWHILE  3101>>CALLBLT  3103>>IF       3104>>CALLBLT  3111>>ASSIGN
      3112>>ASSIGN   3113>>IF       3114>>CALLBLT  3117<>CALL     3120<<ASSIGN   3121>>ASSIGN
SYNONYM_CMD
      2514**DCL        48--PROC
SYNONYM_CMD.PARAM$
      2541**DCL      3074>>ASSIGN   3075>>ASSIGN   3127<>CALL
SYNONYM_NAME$
      2766**DCL      2797--IMP-PTR  3074<<ASSIGN   3077>>IF       3077>>IF       3077>>IF       3077>>IF
      3082>>CALLBLT  3082>>CALLBLT  3084>>IF       3084>>IF       3088>>CALLBLT  3088>>CALLBLT  3090>>IF
      3090>>IF       3127>>CALL     3127>>CALL
SYNONYM_VALUE$
      2767**DCL      2858--IMP-PTR  3075<<ASSIGN   3100>>DOWHILE  3101>>CALLBLT  3101>>CALLBLT  3103>>IF
      3104>>CALLBLT  3104>>CALLBLT  3111>>ASSIGN   3112>>ASSIGN   3112>>ASSIGN   3113>>IF       3114>>CALLBLT
      3114>>CALLBLT  3117>>CALL     3120>>ASSIGN   3121>>ASSIGN   3121>>ASSIGN
VD$ERR.ERR.CODE#
PL6.E3A0      #009=VDI$CSYNONYM File=VDI$COMMANDS_NON_EDITING.:VDA5TSI           FRI 07/04/97 11:32 Page:220
      3067**DCL      3144<<ASSIGN
VD$ERR.FLAGLEV#
      3070**DCL      3145<<ASSIGN
VD$STREAM
      2899**DCL      3127<>CALL
VD$TEXTC
      3005**DCL      3127<>CALL
VD$TEXTC.LENGTH#
      3013**DCL      3015--IMP-SIZ  3127>>CALL
VDG$ESCREECH
      2546**DCL-ENT  3117--CALL
VDG$OALLOC
      2545**DCL-ENT  3139--CALL
VDI$CUPDATE_NAME
      2547**DCL-ENT  3127--CALL
VD_$COMMENT.BYTES
      2699**DCL      3088>>CALLBLT  3101>>CALLBLT  3104>>CALLBLT
VD_$COMMENT.LENGTH#
      2697**DCL      2699--IMP-SIZ  3087>>IF       3088>>CALLBLT  3088>>CALLBLT  3097>>IF       3101>>CALLBLT
      3101>>CALLBLT  3104>>CALLBLT  3104>>CALLBLT
VD_$CONTROL.BYTES
      2639**DCL      3082>>CALLBLT
VD_$CONTROL.LENGTH#
      2637**DCL      2639--IMP-SIZ  3081>>IF       3082>>CALLBLT  3082>>CALLBLT
VD_6E.SYNONYMS$
      2562**DCL      3127>>CALL
VD_ERR$
      2770**DCL      3139<>CALL     3144>>ASSIGN   3145>>ASSIGN
VD_STATIC_TEMP.BYTES
      2759**DCL      3112<<ASSIGN   3114<<CALLBLT  3121>>ASSIGN
VD_STATIC_TEMP.LENGTH#
      2757**DCL      2759--IMP-SIZ  3111<<ASSIGN   3112>>ASSIGN   3114>>CALLBLT  3114>>CALLBLT  3120>>ASSIGN
      3121>>ASSIGN

PL6.E3A0      #010=VDI$CUPDATE_NAME File=VDI$COMMANDS_NON_EDITING.:VDA5TSI       FRI 07/04/97 11:32 Page:221
     1424        1        /*M* VDI$CUPDATE_NAME - Update a EQUALS/KEYIN/LOCATION/SYNONYM name */
     1425        2        /*T***********************************************************/
     1426        3        /*T*                                                         */
     1427        4        /*T* Copyright (c) Bull HN Information Systems Inc., 1997    */
     1428        5        /*T*                                                         */
     1429        6        /*T***********************************************************/
     1430        7        /*X* DMC,PLM=4,IND=0,DCI=4,CSI=2,IAD=2,DTI=2,AND,ECI=0,DIN=2,STI=2 */
     1431        8
     1432        9        /*P* NAME:  VDI$CUPDATE_NAME
     1433       10            PURPOSE:
     1434       11                Update a EQUALS/KEYIN/LOCATION/SYNONYM name.
     1435       12            DESCRIPTION:
     1436       13                Given a key, a value, and an optional subscript, update the name in
     1437       14                the appropriate Names file.
     1438       15        */
     1439       16
     1440       17        /*D* NAME:  VDI$CUPDATE_NAME
     1441       18            PARAMETERS:
     1442       19                NAME$STREAM - VD$STREAM for the file which the name is to be
     1443       20                    defined in.
     1444       21                NAME_KEY - A VD$TEXTC which is the name itself, to be used as a key
     1445       22                    at level 1 of the appropriate Names file.
     1446       23                NAME_VALUE$ - Ptr to a VD$BUFFER which contains the value to be
     1447       24                    assigned to the name in the appropriate file.  Must be a single
     1448       25                    VD$BUFFER, ie, NAME$VALUE.FLINK$ must be NIL.
     1449       26                NAME_SUBSCRIPT - Optional SBIN containing the subscript which
     1450       27                    NAME_VALUE represents:  0 is the first value, 1 is the 2nd, etc.
     1451       28                    If NAME_SUBSCRIPT is not passed, then the entire current value of
     1452       29                    the name will be replaced with the single NAME_VALUE$ element, even
     1453       30                    if the value of the name currently is an array (chain of
     1454       31                    VD$BUFFERs).
     1455       32            INPUT:
     1456       33                VD_6E.EQUALS$, .KEYINS$, .LOCATIONS$, and .SYNONYMS$ must point to
     1457       34                    VD$STREAMs which are open to the appropriate file.
     1458       35            OUTPUT:
     1459       36                Update one, or possibly two, Names files.
     1460       37                NAME_VALUE$ will be NIL, reflecting the fact that the VD$BUFFER it
PL6.E3A0      #010=VDI$CUPDATE_NAME File=VDI$COMMANDS_NON_EDITING.:VDA5TSI       FRI 07/04/97 11:32 Page:222
     1461       38                    pointed to has either been freed or is now owned by the Accessor.
     1462       39            DESCRIPTION:
     1463       40                If the name isn't found in the Names file it's destined for, search
     1464       41                    for it in the other Names files.  If it's found within any of them,
     1465       42                    VDA$LDELETE it.
     1466       43                Then, VDA$LWRITE its (new) value to the requested Names file.
     1467       44        */
     1468       45
     1469       46        VDI$CUPDATE_NAME: PROC ( NAME$STREAM,
     1470       47              NAME_KEY,
     1471       48              NAME_VALUE$,
     1472       49              NAME_SUBSCRIPT )
     1473       50              ALTRET;
     1474       51
     1475       52
     1476       53        %INCLUDE VD_MACROS_M;
     1477     2268
     1478     2269        %VD$STREAM (NAME=NAME$STREAM, STCLASS=PARAM);
     1479     2375        %VD$TEXTC ( NAME = NAME_KEY,
     1480     2376                    STCLASS = PARAM );
     1481     2399    1     DCL NAME_VALUE$ PTR PARAM;
     1482     2400    1     DCL NAME_SUBSCRIPT SBIN PARAM;
     1483     2401
     1484     2402        %VD_6E ( STCLASS = SYMREF );
     1485     2438
     1486     2439    1     DCL FOUND_FLAG BIT(1) ALIGNED;
     1487     2440        %VD$LOCATION ( NAME = NAME_LOCATION,
     1488     2441                       STCLASS = AUTO );
     1489     2469        %VD$RANGE ( NAME = NAME_DELETION_RANGE,
     1490     2470                    STCLASS = AUTO );
     1491     2539        %VD$SPEC ( NAME = SPEC,
     1492     2540                   STCLASS = AUTO );
     1493     2554    1     DCL NEW_CHAIN$ PTR;
     1494     2555    1     DCL CURRENT_DATA$ PTR;
     1495     2556    1     DCL PREV_ELEMENT$ PTR;
     1496     2557    1     DCL CURR_ELEMENT$ PTR;
     1497     2558    1     DCL I SBIN;
PL6.E3A0      #010=VDI$CUPDATE_NAME File=VDI$COMMANDS_NON_EDITING.:VDA5TSI       FRI 07/04/97 11:32 Page:223
     1498     2559
     1499     2560
     1500     2561        %VD$NAME_SPEC (NAME=NAME$SPEC, STCLASS="BASED(SPEC.V$)");
     1501     2609        %VD$BUFFER (NAME=NAME$VALUE, STCLASS="BASED(NAME_VALUE$)");
     1502     2667        %VD$BUFFER (NAME=NEW$CHAIN, STCLASS="BASED(NEW_CHAIN$)");
     1503     2725        %VD$BUFFER (NAME=CURRENT$DATA, STCLASS="BASED(CURRENT_DATA$)");
     1504     2783        %VD$BUFFER (NAME=CURR$ELEMENT, STCLASS="BASED(CURR_ELEMENT$)");
     1505     2841        %VD$BUFFER (NAME=PREV$ELEMENT, STCLASS="BASED(PREV_ELEMENT$)");
     1506     2899        %VD$BUFFER_HEADER;
     1507     2935        %VD$PORT;
     1508     3033        %VD$STREAM;
     1509     3139        %VD$TEXTC;
     1510     3162        %VD$TEXTC_REMOTE;
     1511     3223        %VD$STRING_HEADER;
     1512     3259
     1513     3260    1     DCL VDA$LDELETE ENTRY (2) ALTRET;
     1514     3261    1     DCL VDA$LREAD ENTRY (4) ALTRET;
     1515     3262    1     DCL VDA$LWRITE ENTRY (4) ALTRET;
     1516     3263    1     DCL VDA$PFLUSH ENTRY (2) ALTRET;
     1517     3264    1     DCL VDG$ESCREECH ENTRY (3);
     1518     3265    1     DCL VDG$OALLOC ENTRY (3) ALTRET;
     1519     3266    1     DCL VDG$OCOPY ENTRY (2) ALTRET;
     1520     3267    1     DCL VDG$OCLEAR_LOCATION ENTRY (1) ALTRET;
     1521     3268    1     DCL VDG$OFREE ENTRY (1) ALTRET;
     1522     3269        %EJECT;
PL6.E3A0      #010=VDI$CUPDATE_NAME File=VDI$COMMANDS_NON_EDITING.:VDA5TSI       FRI 07/04/97 11:32 Page:224
     1523     3270    1       SPEC = %CLEAR;
     1524     3271
     1525     3272    1       NAME_LOCATION = %CLEAR;
     1526     3273    1       NAME_LOCATION.KEY.TYPE# (%(LVL_LOWER-1)) = %KT_STRING;
     1527     3274    1       NAME_LOCATION.KEY.REP# (%(LVL_LOWER-1)) = %REP_REMOTE;
     1528     3275
     1529     3276    1       CALL VDG$OALLOC ( %CLS_TEXTC_REMOTE,
     1530     3277    1         NAME_LOCATION.KEY.V$ (%(LVL_LOWER-1)),
     1531     3278    1         ( SIZEC ( VD$STRING_HEADER )
     1532     3279    1         + NAME_KEY.LENGTH#
     1533     3280    1         + ( %NB_PER_WORD - 1 ) )
     1534     3281    1         / %NB_PER_WORD )
     1535     3282    1       WHENALTRETURN
     1536     3283    2         DO;
     1537     3284    2           ALTRETURN;
     1538     3285    2         END;
     1539     3286
     1540     3287    1       NAME_LOCATION.KEY.V$ (%(LVL_LOWER-1)) -> VD$TEXTC_REMOTE.LENGTH# =
     1541     3288    1         NAME_KEY.LENGTH#;
     1542     3289    1       NAME_LOCATION.KEY.V$ (%(LVL_LOWER-1)) -> VD$TEXTC_REMOTE.BYTES =
     1543     3290    1         NAME_KEY.BYTES;
     1544     3291
     1545     3292    1       CALL CHECK_INTO_INTERNAL_FILE ( NAME$STREAM,
     1546     3293    1         FOUND_FLAG,
     1547     3294    1         SPEC )
     1548     3295    1         ALTRET ( SERIOUS_ERROR );
     1549     3296
     1550     3297    1       NAME_DELETION_RANGE = %CLEAR;
     1551     3298    1       NAME_DELETION_RANGE.START = NAME_LOCATION;
     1552     3299    1       NAME_DELETION_RANGE.ENDD = NAME_LOCATION;
     1553     3300
     1554     3301    2       IF NAME$VALUE.LENGTH# = 0 THEN DO;
     1555     3302    2           IF ADDR(NAME$STREAM) = VD_6E.EQUALS$ OR ADDR(NAME_SUBSCRIPT) ~= ADDR(NIL)
     1556     3303    2           THEN EXIT;
     1557     3304    2           IF FOUND_FLAG
     1558     3305    2           THEN
     1559     3306    3             DO;
PL6.E3A0      #010=VDI$CUPDATE_NAME File=VDI$COMMANDS_NON_EDITING.:VDA5TSI       FRI 07/04/97 11:32 Page:225
     1560     3307    3               CALL VDA$LDELETE (NAME$STREAM,
     1561     3308    3                 NAME_DELETION_RANGE)
     1562     3309    3                 ALTRET (SERIOUS_ERROR);
     1563     3310    3             END;
     1564     3311    2           CALL VDG$OFREE (NAME$VALUE) ALTRET (SERIOUS_ERROR);
     1565     3312    2           NAME_VALUE$ = ADDR(NIL);
     1566     3313    2           RETURN;
     1567     3314    2         END;
     1568     3315
     1569     3316    1       IF FOUND_FLAG
     1570     3317    1       THEN
     1571     3318    2         DO;
     1572     3319    2           CURRENT_DATA$ = NAME$STREAM.PORT$ -> VD$PORT.LEVEL.DATA$ (%LVL_LOWER);
     1573     3320    2         END;
     1574     3321
     1575     3322    1       ELSE
     1576     3323    1   CHECK_OTHER_INTERNAL_FILES:
     1577     3324    2         DO;
     1578     3325    2           CURRENT_DATA$ = ADDR(NIL);
     1579     3326
     1580     3327                /*
     1581     3328                *   Allocate a new VD$NAME_SPEC for the name.
     1582     3329                */
     1583     3330    2           SPEC = %CLEAR;
     1584     3331    2           SPEC.TYPE# = %SPT_NAME_SPEC;
     1585     3332    2           SPEC.REP# = %REP_REMOTE;
     1586     3333    2           CALL VDG$OALLOC ( %CLS_NAME_SPEC,
     1587     3334    2             SPEC.V$ )
     1588     3335    2             ALTRET ( SERIOUS_ERROR );
     1589     3336
     1590     3337    2           IF ADDR(NAME$STREAM) ~= VD_6E.EQUALS$
     1591     3338    2           THEN
     1592     3339    2   CHECK_EQUALS_FILE:
     1593     3340    3             DO;
     1594     3341    3               CALL CHECK_INTO_INTERNAL_FILE ( VD_6E.EQUALS$ -> VD$STREAM,
     1595     3342    3                 FOUND_FLAG )
     1596     3343    3                 ALTRET ( SERIOUS_ERROR );
PL6.E3A0      #010=VDI$CUPDATE_NAME File=VDI$COMMANDS_NON_EDITING.:VDA5TSI       FRI 07/04/97 11:32 Page:226
     1597     3344    3               IF FOUND_FLAG
     1598     3345    3               THEN
     1599     3346    3   DELETE_FROM_EQUALS_FILE:
     1600     3347    4                 DO;
     1601     3348    4                   CALL VDA$LDELETE ( VD_6E.EQUALS$ -> VD$STREAM,
     1602     3349    4                     NAME_DELETION_RANGE )
     1603     3350    4                     ALTRET ( SERIOUS_ERROR );
     1604     3351    4                   EXIT CHECK_OTHER_INTERNAL_FILES;
     1605     3352    4                 END DELETE_FROM_EQUALS_FILE;
     1606     3353    3             END CHECK_EQUALS_FILE;
     1607     3354
     1608     3355    2           IF ADDR(NAME$STREAM) ~= VD_6E.KEYINS$
     1609     3356    2           THEN
     1610     3357    2   CHECK_KEYINS_FILE:
     1611     3358    3             DO;
     1612     3359    3               CALL CHECK_INTO_INTERNAL_FILE ( VD_6E.KEYINS$ -> VD$STREAM,
     1613     3360    3                 FOUND_FLAG )
     1614     3361    3                 ALTRET ( SERIOUS_ERROR );
     1615     3362    3               IF FOUND_FLAG
     1616     3363    3               THEN
     1617     3364    3   DELETE_FROM_KEYINS_FILE:
     1618     3365    4                 DO;
     1619     3366    4                   CALL VDA$LDELETE ( VD_6E.KEYINS$ -> VD$STREAM,
     1620     3367    4                     NAME_DELETION_RANGE )
     1621     3368    4                     ALTRET ( SERIOUS_ERROR );
     1622     3369    4                   EXIT CHECK_OTHER_INTERNAL_FILES;
     1623     3370    4                 END DELETE_FROM_KEYINS_FILE;
     1624     3371    3             END CHECK_KEYINS_FILE;
     1625     3372
     1626     3373    2           IF ADDR(NAME$STREAM) ~= VD_6E.LOCATIONS$
     1627     3374    2           THEN
     1628     3375    2   CHECK_LOCATIONS_FILE:
     1629     3376    3             DO;
     1630     3377    3               CALL CHECK_INTO_INTERNAL_FILE ( VD_6E.LOCATIONS$ -> VD$STREAM,
     1631     3378    3                 FOUND_FLAG )
     1632     3379    3                 ALTRET ( SERIOUS_ERROR );
     1633     3380    3               IF FOUND_FLAG
PL6.E3A0      #010=VDI$CUPDATE_NAME File=VDI$COMMANDS_NON_EDITING.:VDA5TSI       FRI 07/04/97 11:32 Page:227
     1634     3381    3               THEN
     1635     3382    3   DELETE_FROM_LOCATIONS_FILE:
     1636     3383    4                 DO;
     1637     3384    4                   CALL VDA$LDELETE ( VD_6E.LOCATIONS$ -> VD$STREAM,
     1638     3385    4                     NAME_DELETION_RANGE )
     1639     3386    4                     ALTRET ( SERIOUS_ERROR );
     1640     3387    4                   EXIT CHECK_OTHER_INTERNAL_FILES;
     1641     3388    4                 END DELETE_FROM_LOCATIONS_FILE;
     1642     3389    3             END CHECK_LOCATIONS_FILE;
     1643     3390
     1644     3391    2           IF ADDR(NAME$STREAM) ~= VD_6E.SYNONYMS$
     1645     3392    2           THEN
     1646     3393    2   CHECK_SYNONYMS_FILE:
     1647     3394    3             DO;
     1648     3395    3               CALL CHECK_INTO_INTERNAL_FILE ( VD_6E.SYNONYMS$ -> VD$STREAM,
     1649     3396    3                 FOUND_FLAG )
     1650     3397    3                 ALTRET ( SERIOUS_ERROR );
     1651     3398    3               IF FOUND_FLAG
     1652     3399    3               THEN
     1653     3400    3   DELETE_FROM_SYNONYMS_FILE:
     1654     3401    4                 DO;
     1655     3402    4                   CALL VDA$LDELETE ( VD_6E.SYNONYMS$ -> VD$STREAM,
     1656     3403    4                     NAME_DELETION_RANGE )
     1657     3404    4                     ALTRET ( SERIOUS_ERROR );
     1658     3405    4                   EXIT CHECK_OTHER_INTERNAL_FILES;
     1659     3406    4                 END DELETE_FROM_SYNONYMS_FILE;
     1660     3407    3             END CHECK_SYNONYMS_FILE;
     1661     3408
     1662     3409    2         END CHECK_OTHER_INTERNAL_FILES;
     1663     3410
     1664     3411    1       IF SPEC.V$ = ADDR (NIL)
     1665     3412    1       THEN
     1666     3413    1         CALL VDG$ESCREECH;
     1667     3414
     1668     3415            /*
     1669     3416            *  Either:
     1670     3417            *     We found the name in the NAME_STREAM file, in which case
PL6.E3A0      #010=VDI$CUPDATE_NAME File=VDI$COMMANDS_NON_EDITING.:VDA5TSI       FRI 07/04/97 11:32 Page:228
     1671     3418            *        SPEC contains the name's current Spec component; or
     1672     3419            *     The name isn't in the NAME_STREAM file, in which case
     1673     3420            *        we've created an initially %CLEAR VD$NAME_SPEC for it.
     1674     3421            *  Set the requested data type in the name's Spec.
     1675     3422            */
     1676     3423
     1677     3424    1       IF ADDR(NAME$STREAM) = VD_6E.EQUALS$
     1678     3425    1       THEN
     1679     3426    1         NAME$SPEC.DATA_TYPE# = %NDT_EQUALS;
     1680     3427    1       ELSE
     1681     3428    1         IF ADDR(NAME$STREAM) = VD_6E.KEYINS$
     1682     3429    1         THEN
     1683     3430    2           DO;
     1684     3431    2             NAME$SPEC.DATA_TYPE# = %NDT_KEYIN;
     1685     3432    2             NAME$SPEC.WINDOWABLE = %TRUE; /* All KEYINs can be window-specific */
     1686     3433    2           END;
     1687     3434    1         ELSE
     1688     3435    1           IF ADDR(NAME$STREAM) = VD_6E.LOCATIONS$
     1689     3436    1           THEN
     1690     3437    1             NAME$SPEC.DATA_TYPE# = %NDT_LOCATION;
     1691     3438    1           ELSE
     1692     3439    1             IF ADDR(NAME$STREAM) = VD_6E.SYNONYMS$
     1693     3440    1             THEN
     1694     3441    1               NAME$SPEC.DATA_TYPE# = %NDT_SYNONYM;
     1695     3442    1             ELSE
     1696     3443    1               CALL VDG$ESCREECH;
     1697     3444
     1698     3445            /*
     1699     3446            *   If NAME_SUBSCRIPT is passed, make a copy of the name's current Data
     1700     3447            *   component and insert NAME_VALUE into the appropriate place in the
     1701     3448            *   VD$BUFFER chain, possibly replacing an existing element.
     1702     3449            */
     1703     3450
     1704     3451    1       IF ADDR(NAME_SUBSCRIPT) ~= ADDR(NIL)
     1705     3452    1       THEN
     1706     3453    1   REPLACE_JUST_1_ELEMENT_IN_CHAIN:
     1707     3454    2         DO;
PL6.E3A0      #010=VDI$CUPDATE_NAME File=VDI$COMMANDS_NON_EDITING.:VDA5TSI       FRI 07/04/97 11:32 Page:229
     1708     3455    2           IF NAME_SUBSCRIPT < 0
     1709     3456    2           THEN
     1710     3457    2             CALL VDG$ESCREECH (NAME_SUBSCRIPT);
     1711     3458
     1712     3459    2           IF CURRENT_DATA$ = ADDR(NIL)
     1713     3460    2           THEN
     1714     3461    3             DO;
     1715     3462    3               CALL VDG$OALLOC (%CLS_BUFFER,
     1716     3463    3                 NEW_CHAIN$,
     1717     3464    3                 SIZEW ( VD$BUFFER_HEADER ) )
     1718     3465    3                 ALTRET ( SERIOUS_ERROR );
     1719     3466    3               NEW$CHAIN.LENGTH# = 0;  /* 0-length buffer is place-holder */
     1720     3467    3             END;
     1721     3468    2           ELSE
     1722     3469    3             DO;
     1723     3470    3               CALL VDG$OCOPY ( CURRENT$DATA,
     1724     3471    3                 NEW_CHAIN$ )
     1725     3472    3                 ALTRET ( SERIOUS_ERROR );
     1726     3473    3             END;
     1727     3474
     1728     3475                /* Find the element to be replaced in the chain */
     1729     3476    2           PREV_ELEMENT$ = ADDR(NIL);
     1730     3477    2           CURR_ELEMENT$ = NEW_CHAIN$;
     1731     3478
     1732     3479    3           DO I = NAME_SUBSCRIPT - 1 DOWNTO 0;
     1733     3480    3             IF CURR$ELEMENT.FLINK$ = ADDR(NIL)
     1734     3481    3             THEN
     1735     3482    4               DO;
     1736     3483    4                 CALL VDG$OALLOC ( %CLS_BUFFER,
     1737     3484    4                   CURR$ELEMENT.FLINK$,
     1738     3485    4                   SIZEW ( VD$BUFFER_HEADER ) )
     1739     3486    4                   ALTRET ( SERIOUS_ERROR );
     1740     3487    4                 CURR$ELEMENT.FLINK$->CURR$ELEMENT.LENGTH# = 0;
     1741     3488    4               END;
     1742     3489    3             PREV_ELEMENT$ = CURR_ELEMENT$;
     1743     3490    3             CURR_ELEMENT$ = PREV$ELEMENT.FLINK$;
     1744     3491    3           END;
PL6.E3A0      #010=VDI$CUPDATE_NAME File=VDI$COMMANDS_NON_EDITING.:VDA5TSI       FRI 07/04/97 11:32 Page:230
     1745     3492
     1746     3493    2           IF PREV_ELEMENT$ = ADDR(NIL)
     1747     3494    2           THEN
     1748     3495    2             NEW_CHAIN$ = NAME_VALUE$;
     1749     3496    2           ELSE
     1750     3497    2             PREV$ELEMENT.FLINK$ = NAME_VALUE$;
     1751     3498    2           NAME$VALUE.FLINK$ = CURR$ELEMENT.FLINK$;
     1752     3499    2           CURR$ELEMENT.FLINK$ = ADDR(NIL);
     1753     3500
     1754     3501    2           CALL VDG$OFREE ( CURR$ELEMENT )
     1755     3502    2             ALTRET ( SERIOUS_ERROR );
     1756     3503
     1757     3504    2           NAME_VALUE$ = NEW_CHAIN$;
     1758     3505    2         END REPLACE_JUST_1_ELEMENT_IN_CHAIN;
     1759     3506
     1760     3507
     1761     3508    1       CALL VDA$LWRITE ( NAME$STREAM,
     1762     3509    1         NAME_LOCATION,
     1763     3510    1         SPEC,
     1764     3511    1         NAME$VALUE )
     1765     3512    1       WHENALTRETURN
     1766     3513    2         DO;
     1767     3514                /*
     1768     3515                *  The Accessor hasn't taken ownership of NAME$VALUE or SPEC:  free
     1769     3516                *   NAME$VALUE now (SERIOUS_ERROR will clear SPEC).
     1770     3517                */
     1771     3518    2           CALL VDG$OFREE ( NAME$VALUE ); /* Ignore altreturn */
     1772     3519    2           NAME_VALUE$ = ADDR(NIL);
     1773     3520    2           GOTO SERIOUS_ERROR;
     1774     3521    2         END;
     1775     3522
     1776     3523            /*
     1777     3524            *  The Accessor has taken ownership of NAME$VALUE and SPEC:  inform the
     1778     3525            *   caller of the change in NAME$VALUE status; clear SPEC to remind myself.
     1779     3526            */
     1780     3527    1       NAME_VALUE$ = ADDR(NIL);
     1781     3528    1       SPEC = %CLEAR;
PL6.E3A0      #010=VDI$CUPDATE_NAME File=VDI$COMMANDS_NON_EDITING.:VDA5TSI       FRI 07/04/97 11:32 Page:231
     1782     3529
     1783     3530    1       CALL VDA$PFLUSH ( NAME$STREAM.PORT$ -> VD$PORT,
     1784     3531    1         %TO_PRESENTER )
     1785     3532    1         ALTRET ( SERIOUS_ERROR );
     1786     3533
     1787     3534    1       CALL VDG$OCLEAR_LOCATION ( NAME_LOCATION )
     1788     3535    1       WHENALTRETURN
     1789     3536    2         DO;
     1790     3537    2           ALTRETURN;
     1791     3538    2         END;
     1792     3539
     1793     3540    1       RETURN;
     1794     3541
     1795     3542    1   SERIOUS_ERROR:
     1796     3543            %CLEARSPEC (SPEC=SPEC);
     1797     3553    1       CALL VDG$OCLEAR_LOCATION (NAME_LOCATION)
     1798     3554    2       WHENALTRETURN DO; ALTRETURN; END;
     1799     3555    1       ALTRETURN;
     1800     3556
     1801     3557        %BOX (TITLE=CHECK_INTO_INTERNAL_FILE, PAGE=YES);
              3565    1
              3569    1   /***************************************************************************
              3571    1    *                                                                         *
              3575    1            *                          CHECK_INTO_INTERNAL_FILE                       *
              3577    1            *                                                                         *
              3579    1           ***************************************************************************/

     1802     3583
     1803     3584        /*I* NAME: CHECK_INTO_INTERNAL_FILE
     1804     3585            PARAMETERS:
     1805     3586                STREAM - VD$STREAM open to the Names file to check into.
     1806     3587                FOUND_NAME - Uninitialized BIT(1) ALIGNED.
     1807     3588                CURRENT_SPEC - Optional uninitialized VD$SPEC.
     1808     3589            INPUT:
     1809     3590                NAME_KEY - VD$TEXTC containing the name to look for.
     1810     3591                NAME_LOCATION - VD$LOCATION specifying the name to look for as a
     1811     3592                    %LVL_LOWER key.
PL6.E3A0      #010=VDI$CUPDATE_NAME File=VDI$COMMANDS_NON_EDITING.:VDA5TSI       FRI 07/04/97 11:32 Page:232
     1812     3593            OUTPUT:
     1813     3594                FOUND_NAME will be set %TRUE if the name was found in STREAM; %FALSE
     1814     3595                    otherwise.
     1815     3596                If name is found:
     1816     3597                    CURRENT_SPEC, if passed, will contain a copy of the name's current
     1817     3598                        Spec component.
     1818     3599                    STREAM.PORT$ -> VD$PORT will be positioned to the name, and will
     1819     3600                        have the name's current value in its .LEVELs.
     1820     3601            DESCRIPTION:
     1821     3602                Look for the name in STREAM.  If found and CURRENT_SPEC is passed,
     1822     3603                copy its Spec component for the caller to use.
     1823     3604        */
     1824     3605
     1825     3606    1   CHECK_INTO_INTERNAL_FILE: PROC ( STREAM,
     1826     3607    1         FOUND_NAME,
     1827     3608    1         CURRENT_SPEC )
     1828     3609    1         ALTRET;
     1829     3610
     1830     3611            %VD$STREAM ( NAME = STREAM,
     1831     3612            STCLASS = PARAM );
     1832     3718    2     DCL FOUND_NAME BIT(1) ALIGNED PARAM;
     1833     3719            %VD$SPEC ( NAME = CURRENT_SPEC, STCLASS = PARAM );
     1834     3733
     1835     3734
     1836     3735    2     DCL CURRENT_KEY$ PTR;
     1837     3736
     1838     3737
     1839     3738
     1840     3739    2       FOUND_NAME = %FALSE;
     1841     3740
     1842     3741    2       CALL VDA$LREAD ( STREAM,
     1843     3742    2         NAME_LOCATION,
     1844     3743    2         0 /* Relative position = stay there */,
     1845     3744    2         %TRUE /* Read, not just position */ )
     1846     3745    2       WHENALTRETURN
     1847     3746    3         DO;
     1848     3747    3           ALTRETURN;
PL6.E3A0      #010=VDI$CUPDATE_NAME File=VDI$COMMANDS_NON_EDITING.:VDA5TSI       FRI 07/04/97 11:32 Page:233
     1849     3748    3         END;
     1850     3749
     1851     3750    2       IF NOT STREAM.CURRENT.EOF
     1852     3751    2       THEN
     1853     3752    3         DO;
     1854     3753                %GETKEY ( KEY = "STREAM.CURRENT.KEY",
     1855     3754                INDX = "%LVL_LOWER - 1",
     1856     3755                PTR = CURRENT_KEY$ );
     1857     3765
     1858     3766    3           IF NAME_KEY.BYTES = CURRENT_KEY$ -> VD$TEXTC.BYTES
     1859     3767    3           THEN
     1860     3768    3             FOUND_NAME = %TRUE;
     1861     3769    3         END;
     1862     3770
     1863     3771    2       IF FOUND_NAME AND ADDR(CURRENT_SPEC) ~= ADDR(NIL)
     1864     3772    2       THEN
     1865     3773    3         DO;
     1866     3774                %COPYSPEC ( FSPEC = "STREAM.PORT$ -> VD$PORT.LEVEL.SPEC",
     1867     3775                FINDX = %LVL_LOWER,
     1868     3776                TSPEC = CURRENT_SPEC );
     1869     3792    3         END;
     1870     3793
     1871     3794    2       RETURN;
     1872     3795
     1873     3796    2   END CHECK_INTO_INTERNAL_FILE;
     1874     3797
     1875     3798    1   END VDI$CUPDATE_NAME;

PL6.E3A0      #010=VDI$CUPDATE_NAME File=VDI$COMMANDS_NON_EDITING.:VDA5TSI       FRI 07/04/97 11:32 Page:234
--  Include file information  --

   VD_MACROS_M.:VDA5TOU  is referenced.
   B$JIT_C.:E04TOU  was found in the system file and is never referenced.
   CP_6_C.:E04TOU  was found in the system file and is never referenced.
      No diagnostics issued in procedure VDI$CUPDATE_NAME.

   Procedure VDI$CUPDATE_NAME requires 473 words for executable code.
   Procedure VDI$CUPDATE_NAME requires 52 words of local(AUTO) storage.

    No errors detected in file VDI$COMMANDS_NON_EDITING.:VDA5TSI .

PL6.E3A0      #010=VDI$CUPDATE_NAME File=VDI$COMMANDS_NON_EDITING.:VDA5TSI       FRI 07/04/97 11:32 Page:235

 Object Unit name= VDI$CUPDATE_NAME                           File name= VDI$COMMANDS_NON_EDITING.:VDA5TOU
 UTS= JUL 04 '97 11:32:47.80 FRI                              Compiler= PL-6/E31         Sev=      00
 SharedLib= :SHARED_SYSTEM                                    Alt SharedLib=


    ****  Control sections  ****

 Sect   Type Bound  Init  Size OctSiz  Section name(segment info)
    0   Proc  even  none   473    731  VDI$CUPDATE_NAME
    1  RoData even  none    10     12  VDI$CUPDATE_NAME

    ****  Entry defs  ****

                              Check   Calling
                             calling  sequence
  Sect OctLoc Primary Altret sequence   type   Parms  Name
     0      0   yes    yes     yes      Std        4  VDI$CUPDATE_NAME

  ****  Entry refs  ****

         Check        Calling
        calling       sequence
Altret sequence SRef   type   Args  Name
 yes     yes           Std       3 VDG$OALLOC
 yes     yes           Std       4 VDA$LWRITE
 yes     yes           Std       2 VDA$LDELETE
 yes     yes           Std       1 VDG$OFREE
         yes           Std       3 VDG$ESCREECH
 yes     yes           Std       2 VDG$OCOPY
 yes     yes           Std       1 VDG$OCLEAR_LOCATION
 yes     yes           Std       2 VDA$PFLUSH
 yes     yes           Std       4 VDA$LREAD
                       nStd      0 X66_AUTO_4
                       Std       0 B_CONSPOOL_D
                       nStd      0 X66_AALT
                       nStd      0 X66_ARET
PL6.E3A0      #010=VDI$CUPDATE_NAME File=VDI$COMMANDS_NON_EDITING.:VDA5TSI       FRI 07/04/97 11:32 Page:236

  ****  Data refs  ****

  Flags:  r = read only, s = secondary
Flgs Name                             Flgs Name                             Flgs Name
     VD_6E                                 B_VECTNIL

  ****  Segment refs  ****

  Flags:  r = read only, s = secondary
Flgs Name                             Flgs Name                             Flgs Name
     ISSID
PL6.E3A0      #010=VDI$CUPDATE_NAME File=VDI$COMMANDS_NON_EDITING.:VDA5TSI       FRI 07/04/97 11:32 Page:237


     1424        1        /*M* VDI$CUPDATE_NAME - Update a EQUALS/KEYIN/LOCATION/SYNONYM name */
     1425        2        /*T***********************************************************/
     1426        3        /*T*                                                         */
     1427        4        /*T* Copyright (c) Bull HN Information Systems Inc., 1997    */
     1428        5        /*T*                                                         */
     1429        6        /*T***********************************************************/
     1430        7        /*X* DMC,PLM=4,IND=0,DCI=4,CSI=2,IAD=2,DTI=2,AND,ECI=0,DIN=2,STI=2 */
     1431        8
     1432        9        /*P* NAME:  VDI$CUPDATE_NAME
     1433       10            PURPOSE:
     1434       11                Update a EQUALS/KEYIN/LOCATION/SYNONYM name.
     1435       12            DESCRIPTION:
     1436       13                Given a key, a value, and an optional subscript, update the name in
     1437       14                the appropriate Names file.
     1438       15        */
     1439       16
     1440       17        /*D* NAME:  VDI$CUPDATE_NAME
     1441       18            PARAMETERS:
     1442       19                NAME$STREAM - VD$STREAM for the file which the name is to be
     1443       20                    defined in.
     1444       21                NAME_KEY - A VD$TEXTC which is the name itself, to be used as a key
     1445       22                    at level 1 of the appropriate Names file.
     1446       23                NAME_VALUE$ - Ptr to a VD$BUFFER which contains the value to be
     1447       24                    assigned to the name in the appropriate file.  Must be a single
     1448       25                    VD$BUFFER, ie, NAME$VALUE.FLINK$ must be NIL.
     1449       26                NAME_SUBSCRIPT - Optional SBIN containing the subscript which
     1450       27                    NAME_VALUE represents:  0 is the first value, 1 is the 2nd, etc.
     1451       28                    If NAME_SUBSCRIPT is not passed, then the entire current value of
     1452       29                    the name will be replaced with the single NAME_VALUE$ element, even
     1453       30                    if the value of the name currently is an array (chain of
     1454       31                    VD$BUFFERs).
     1455       32            INPUT:
     1456       33                VD_6E.EQUALS$, .KEYINS$, .LOCATIONS$, and .SYNONYMS$ must point to
     1457       34                    VD$STREAMs which are open to the appropriate file.
     1458       35            OUTPUT:
     1459       36                Update one, or possibly two, Names files.
PL6.E3A0      #010=VDI$CUPDATE_NAME File=VDI$COMMANDS_NON_EDITING.:VDA5TSI       FRI 07/04/97 11:32 Page:238
     1460       37                NAME_VALUE$ will be NIL, reflecting the fact that the VD$BUFFER it
     1461       38                    pointed to has either been freed or is now owned by the Accessor.
     1462       39            DESCRIPTION:
     1463       40                If the name isn't found in the Names file it's destined for, search
     1464       41                    for it in the other Names files.  If it's found within any of them,
     1465       42                    VDA$LDELETE it.
     1466       43                Then, VDA$LWRITE its (new) value to the requested Names file.
     1467       44        */
     1468       45
     1469       46        VDI$CUPDATE_NAME: PROC ( NAME$STREAM,

     46  0 000000   000000 700200 xent  VDI$CUPDATE* TSX0  ! X66_AUTO_4
         0 000001   000064 000004                    ZERO    52,4

     1470       47              NAME_KEY,
     1471       48              NAME_VALUE$,
     1472       49              NAME_SUBSCRIPT )
     1473       50              ALTRET;
     1474       51
     1475       52
     1476       53        %INCLUDE VD_MACROS_M;
     1477     2268
     1478     2269        %VD$STREAM (NAME=NAME$STREAM, STCLASS=PARAM);
     1479     2375        %VD$TEXTC ( NAME = NAME_KEY,
     1480     2376                    STCLASS = PARAM );
     1481     2399    1     DCL NAME_VALUE$ PTR PARAM;
     1482     2400    1     DCL NAME_SUBSCRIPT SBIN PARAM;
     1483     2401
     1484     2402        %VD_6E ( STCLASS = SYMREF );
     1485     2438
     1486     2439    1     DCL FOUND_FLAG BIT(1) ALIGNED;
     1487     2440        %VD$LOCATION ( NAME = NAME_LOCATION,
     1488     2441                       STCLASS = AUTO );
     1489     2469        %VD$RANGE ( NAME = NAME_DELETION_RANGE,
     1490     2470                    STCLASS = AUTO );
     1491     2539        %VD$SPEC ( NAME = SPEC,
     1492     2540                   STCLASS = AUTO );
PL6.E3A0      #010=VDI$CUPDATE_NAME File=VDI$COMMANDS_NON_EDITING.:VDA5TSI       FRI 07/04/97 11:32 Page:239
     1493     2554    1     DCL NEW_CHAIN$ PTR;
     1494     2555    1     DCL CURRENT_DATA$ PTR;
     1495     2556    1     DCL PREV_ELEMENT$ PTR;
     1496     2557    1     DCL CURR_ELEMENT$ PTR;
     1497     2558    1     DCL I SBIN;
     1498     2559
     1499     2560
     1500     2561        %VD$NAME_SPEC (NAME=NAME$SPEC, STCLASS="BASED(SPEC.V$)");
     1501     2609        %VD$BUFFER (NAME=NAME$VALUE, STCLASS="BASED(NAME_VALUE$)");
     1502     2667        %VD$BUFFER (NAME=NEW$CHAIN, STCLASS="BASED(NEW_CHAIN$)");
     1503     2725        %VD$BUFFER (NAME=CURRENT$DATA, STCLASS="BASED(CURRENT_DATA$)");
     1504     2783        %VD$BUFFER (NAME=CURR$ELEMENT, STCLASS="BASED(CURR_ELEMENT$)");
     1505     2841        %VD$BUFFER (NAME=PREV$ELEMENT, STCLASS="BASED(PREV_ELEMENT$)");
     1506     2899        %VD$BUFFER_HEADER;
     1507     2935        %VD$PORT;
     1508     3033        %VD$STREAM;
     1509     3139        %VD$TEXTC;
     1510     3162        %VD$TEXTC_REMOTE;
     1511     3223        %VD$STRING_HEADER;
     1512     3259
     1513     3260    1     DCL VDA$LDELETE ENTRY (2) ALTRET;
     1514     3261    1     DCL VDA$LREAD ENTRY (4) ALTRET;
     1515     3262    1     DCL VDA$LWRITE ENTRY (4) ALTRET;
     1516     3263    1     DCL VDA$PFLUSH ENTRY (2) ALTRET;
     1517     3264    1     DCL VDG$ESCREECH ENTRY (3);
     1518     3265    1     DCL VDG$OALLOC ENTRY (3) ALTRET;
     1519     3266    1     DCL VDG$OCOPY ENTRY (2) ALTRET;
     1520     3267    1     DCL VDG$OCLEAR_LOCATION ENTRY (1) ALTRET;
     1521     3268    1     DCL VDG$OFREE ENTRY (1) ALTRET;
     1522     3269        %EJECT;
PL6.E3A0      #010=VDI$CUPDATE_NAME File=VDI$COMMANDS_NON_EDITING.:VDA5TSI       FRI 07/04/97 11:32 Page:240
     1523     3270    1       SPEC = %CLEAR;

   3270  0 000002   200043 450100                    STZ     SPEC,,AUTO
         0 000003   200044 450100                    STZ     SPEC+1,,AUTO

     1524     3271
     1525     3272    1       NAME_LOCATION = %CLEAR;

   3272  0 000004   000100 100400                    MLR     fill='000'O
         0 000005   000002 000001 xsym               ADSC9   B_VECTNIL+2              cn=0,n=1
         0 000006   200010 000044                    ADSC9   NAME_LOCATION,,AUTO      cn=0,n=36

     1526     3273    1       NAME_LOCATION.KEY.TYPE# (%(LVL_LOWER-1)) = %KT_STRING;

   3273  0 000007   000002 220003                    LDX0    2,DU
         0 000010   200010 740100                    STX0    NAME_LOCATION,,AUTO

     1527     3274    1       NAME_LOCATION.KEY.REP# (%(LVL_LOWER-1)) = %REP_REMOTE;

   3274  0 000011   200010 440100                    SXL0    NAME_LOCATION,,AUTO

     1528     3275
     1529     3276    1       CALL VDG$OALLOC ( %CLS_TEXTC_REMOTE,

   3276  0 000012   200004 470500                    LDP0    @NAME_KEY,,AUTO
         0 000013   000000 236100                    LDQ     0,,PR0
         0 000014   000033 772000                    QRL     27
         0 000015   000017 036007                    ADLQ    15,DL
         0 000016   000002 772000                    QRL     2
         0 000017   200060 756100                    STQ     CURRENT_KEY$+2,,AUTO
         0 000020   200060 631500                    EPPR1   CURRENT_KEY$+2,,AUTO
         0 000021   200063 451500                    STP1    CURRENT_KEY$+5,,AUTO
         0 000022   200011 633500                    EPPR3   NAME_LOCATION+1,,AUTO
         0 000023   200062 453500                    STP3    CURRENT_KEY$+4,,AUTO
         0 000024   000001 236000 1                  LDQ     1
         0 000025   200061 756100                    STQ     CURRENT_KEY$+3,,AUTO
         0 000026   200061 630500                    EPPR0   CURRENT_KEY$+3,,AUTO
PL6.E3A0      #010=VDI$CUPDATE_NAME File=VDI$COMMANDS_NON_EDITING.:VDA5TSI       FRI 07/04/97 11:32 Page:241
         0 000027   000021 631400 xsym               EPPR1   B_VECTNIL+17
         0 000030   000000 701000 xent               TSX1    VDG$OALLOC
         0 000031   000033 702000 0                  TSX2    s:3284
         0 000032   000034 710000 0                  TRA     s:3287

     1530     3277    1         NAME_LOCATION.KEY.V$ (%(LVL_LOWER-1)),
     1531     3278    1         ( SIZEC ( VD$STRING_HEADER )
     1532     3279    1         + NAME_KEY.LENGTH#
     1533     3280    1         + ( %NB_PER_WORD - 1 ) )
     1534     3281    1         / %NB_PER_WORD )
     1535     3282    1       WHENALTRETURN
     1536     3283    2         DO;

     1537     3284    2           ALTRETURN;

   3284  0 000033   000000 702200 xent               TSX2  ! X66_AALT

     1538     3285    2         END;
     1539     3286
     1540     3287    1       NAME_LOCATION.KEY.V$ (%(LVL_LOWER-1)) -> VD$TEXTC_REMOTE.LENGTH# =

   3287  0 000034   200004 470500                    LDP0    @NAME_KEY,,AUTO
         0 000035   200011 471500                    LDP1    NAME_LOCATION+1,,AUTO
         0 000036   000000 236100                    LDQ     0,,PR0
         0 000037   100002 552140                    STBQ    2,'40'O,PR1

     1541     3288    1         NAME_KEY.LENGTH#;
     1542     3289    1       NAME_LOCATION.KEY.V$ (%(LVL_LOWER-1)) -> VD$TEXTC_REMOTE.BYTES =

   3289  0 000040   200011 471500                    LDP1    NAME_LOCATION+1,,AUTO
         0 000041   100002 236100                    LDQ     2,,PR1
         0 000042   000033 772000                    QRL     27
         0 000043   000000 620006                    EAX0    0,QL
         0 000044   000000 236100                    LDQ     0,,PR0
         0 000045   000033 772000                    QRL     27
         0 000046   000000 621006                    EAX1    0,QL
         0 000047   040140 100540                    MLR     fill='040'O
PL6.E3A0      #010=VDI$CUPDATE_NAME File=VDI$COMMANDS_NON_EDITING.:VDA5TSI       FRI 07/04/97 11:32 Page:242
         0 000050   000000 200011                    ADSC9   0,,PR0                   cn=1,n=*X1
         0 000051   100002 200010                    ADSC9   2,,PR1                   cn=1,n=*X0

     1543     3290    1         NAME_KEY.BYTES;
     1544     3291
     1545     3292    1       CALL CHECK_INTO_INTERNAL_FILE ( NAME$STREAM,

   3292  0 000052   200043 631500                    EPPR1   SPEC,,AUTO
         0 000053   200055 451500                    STP1    @FOUND_NAME+1,,AUTO
         0 000054   200007 633500                    EPPR3   FOUND_FLAG,,AUTO
         0 000055   200054 453500                    STP3    @STREAM+1,,AUTO
         0 000056   200003 236100                    LDQ     @NAME$STREAM,,AUTO
         0 000057   200053 756100                    STQ     I+2,,AUTO
         0 000060   000620 701000 0                  TSX1    CHECK_INTO_INTERNAL_FILE
         0 000061   000574 702000 0                  TSX2    SERIOUS_ERROR

     1546     3293    1         FOUND_FLAG,
     1547     3294    1         SPEC )
     1548     3295    1         ALTRET ( SERIOUS_ERROR );
     1549     3296
     1550     3297    1       NAME_DELETION_RANGE = %CLEAR;

   3297  0 000062   000100 100400                    MLR     fill='000'O
         0 000063   000002 000001 xsym               ADSC9   B_VECTNIL+2              cn=0,n=1
         0 000064   200021 000110                    ADSC9   NAME_DELETION_RANGE,,AUTO cn=0,n=72

     1551     3298    1       NAME_DELETION_RANGE.START = NAME_LOCATION;

   3298  0 000065   000100 100500                    MLR     fill='000'O
         0 000066   200010 000044                    ADSC9   NAME_LOCATION,,AUTO      cn=0,n=36
         0 000067   200021 000044                    ADSC9   NAME_DELETION_RANGE,,AUTO cn=0,n=36

     1552     3299    1       NAME_DELETION_RANGE.ENDD = NAME_LOCATION;

   3299  0 000070   000100 100500                    MLR     fill='000'O
         0 000071   200010 000044                    ADSC9   NAME_LOCATION,,AUTO      cn=0,n=36
         0 000072   200032 000044                    ADSC9   NAME_DELETION_RANGE+9,,AUTO cn=0,n=36
PL6.E3A0      #010=VDI$CUPDATE_NAME File=VDI$COMMANDS_NON_EDITING.:VDA5TSI       FRI 07/04/97 11:32 Page:243

     1553     3300
     1554     3301    2       IF NAME$VALUE.LENGTH# = 0 THEN DO;

   3301  0 000073   200005 470500                    LDP0    @NAME_VALUE$,,AUTO
         0 000074   000000 471500                    LDP1    0,,PR0
         0 000075   100002 220100                    LDX0    2,,PR1
         0 000076   000132 601000 0                  TNZ     s:3316

     1555     3302    2           IF ADDR(NAME$STREAM) = VD_6E.EQUALS$ OR ADDR(NAME_SUBSCRIPT) ~= ADDR(NIL)

   3302  0 000077   200003 236100                    LDQ     @NAME$STREAM,,AUTO
         0 000100   000001 116000 xsym               CMPQ    VD_6E+1
         0 000101   000132 600000 0                  TZE     s:3316
         0 000102   200006 236100                    LDQ     @NAME_SUBSCRIPT,,AUTO
         0 000103   000001 116000 xsym               CMPQ    B_VECTNIL+1
         0 000104   000132 601000 0                  TNZ     s:3316

     1556     3303    2           THEN EXIT;
     1557     3304    2           IF FOUND_FLAG

   3304  0 000105   200007 234100                    SZN     FOUND_FLAG,,AUTO
         0 000106   000117 605000 0                  TPL     s:3311

     1558     3305    2           THEN
     1559     3306    3             DO;

     1560     3307    3               CALL VDA$LDELETE (NAME$STREAM,

   3307  0 000107   200021 633500                    EPPR3   NAME_DELETION_RANGE,,AUTO
         0 000110   200061 453500                    STP3    CURRENT_KEY$+3,,AUTO
         0 000111   200003 236100                    LDQ     @NAME$STREAM,,AUTO
         0 000112   200060 756100                    STQ     CURRENT_KEY$+2,,AUTO
         0 000113   200060 630500                    EPPR0   CURRENT_KEY$+2,,AUTO
         0 000114   000020 631400 xsym               EPPR1   B_VECTNIL+16
         0 000115   000000 701000 xent               TSX1    VDA$LDELETE
         0 000116   000574 702000 0                  TSX2    SERIOUS_ERROR
PL6.E3A0      #010=VDI$CUPDATE_NAME File=VDI$COMMANDS_NON_EDITING.:VDA5TSI       FRI 07/04/97 11:32 Page:244

     1561     3308    3                 NAME_DELETION_RANGE)
     1562     3309    3                 ALTRET (SERIOUS_ERROR);
     1563     3310    3             END;

     1564     3311    2           CALL VDG$OFREE (NAME$VALUE) ALTRET (SERIOUS_ERROR);

   3311  0 000117   200005 470500                    LDP0    @NAME_VALUE$,,AUTO
         0 000120   000000 471500                    LDP1    0,,PR0
         0 000121   200060 451500                    STP1    CURRENT_KEY$+2,,AUTO
         0 000122   200060 630500                    EPPR0   CURRENT_KEY$+2,,AUTO
         0 000123   000017 631400 xsym               EPPR1   B_VECTNIL+15
         0 000124   000000 701000 xent               TSX1    VDG$OFREE
         0 000125   000574 702000 0                  TSX2    SERIOUS_ERROR

     1565     3312    2           NAME_VALUE$ = ADDR(NIL);

   3312  0 000126   000001 236000 xsym               LDQ     B_VECTNIL+1
         0 000127   200005 470500                    LDP0    @NAME_VALUE$,,AUTO
         0 000130   000000 756100                    STQ     0,,PR0

     1566     3313    2           RETURN;

   3313  0 000131   000000 702200 xent               TSX2  ! X66_ARET

     1567     3314    2         END;
     1568     3315
     1569     3316    1       IF FOUND_FLAG

   3316  0 000132   200007 234100                    SZN     FOUND_FLAG,,AUTO
         0 000133   000141 605000 0                  TPL     CHECK_OTHER_INTERNAL_FILES

     1570     3317    1       THEN
     1571     3318    2         DO;

     1572     3319    2           CURRENT_DATA$ = NAME$STREAM.PORT$ -> VD$PORT.LEVEL.DATA$ (%LVL_LOWER);

PL6.E3A0      #010=VDI$CUPDATE_NAME File=VDI$COMMANDS_NON_EDITING.:VDA5TSI       FRI 07/04/97 11:32 Page:245
   3319  0 000134   200003 473500                    LDP3    @NAME$STREAM,,AUTO
         0 000135   300001 474500                    LDP4    1,,PR3
         0 000136   400036 236100                    LDQ     30,,PR4
         0 000137   200046 756100                    STQ     CURRENT_DATA$,,AUTO

     1573     3320    2         END;

   3320  0 000140   000311 710000 0                  TRA     s:3411

     1574     3321
     1575     3322    1       ELSE
     1576     3323    1   CHECK_OTHER_INTERNAL_FILES:
     1577     3324    2         DO;

   3324  0 000141                       CHECK_OTHER* null
     1578     3325    2           CURRENT_DATA$ = ADDR(NIL);

   3325  0 000141   000001 236000 xsym               LDQ     B_VECTNIL+1
         0 000142   200046 756100                    STQ     CURRENT_DATA$,,AUTO

     1579     3326
     1580     3327                /*
     1581     3328                *   Allocate a new VD$NAME_SPEC for the name.
     1582     3329                */
     1583     3330    2           SPEC = %CLEAR;

   3330  0 000143   200043 450100                    STZ     SPEC,,AUTO
         0 000144   200044 450100                    STZ     SPEC+1,,AUTO

     1584     3331    2           SPEC.TYPE# = %SPT_NAME_SPEC;

   3331  0 000145   000003 220003                    LDX0    3,DU
         0 000146   200043 740100                    STX0    SPEC,,AUTO

     1585     3332    2           SPEC.REP# = %REP_REMOTE;

   3332  0 000147   000002 221003                    LDX1    2,DU
PL6.E3A0      #010=VDI$CUPDATE_NAME File=VDI$COMMANDS_NON_EDITING.:VDA5TSI       FRI 07/04/97 11:32 Page:246
         0 000150   200043 441100                    SXL1    SPEC,,AUTO

     1586     3333    2           CALL VDG$OALLOC ( %CLS_NAME_SPEC,

   3333  0 000151   200044 631500                    EPPR1   SPEC+1,,AUTO
         0 000152   200061 451500                    STP1    CURRENT_KEY$+3,,AUTO
         0 000153   000003 236000 1                  LDQ     3
         0 000154   200060 756100                    STQ     CURRENT_KEY$+2,,AUTO
         0 000155   200060 630500                    EPPR0   CURRENT_KEY$+2,,AUTO
         0 000156   000020 631400 xsym               EPPR1   B_VECTNIL+16
         0 000157   000000 701000 xent               TSX1    VDG$OALLOC
         0 000160   000574 702000 0                  TSX2    SERIOUS_ERROR

     1587     3334    2             SPEC.V$ )
     1588     3335    2             ALTRET ( SERIOUS_ERROR );
     1589     3336
     1590     3337    2           IF ADDR(NAME$STREAM) ~= VD_6E.EQUALS$

   3337  0 000161   200003 236100                    LDQ     @NAME$STREAM,,AUTO
         0 000162   000001 116000 xsym               CMPQ    VD_6E+1
         0 000163   000207 600000 0                  TZE     s:3355

     1591     3338    2           THEN
     1592     3339    2   CHECK_EQUALS_FILE:
     1593     3340    3             DO;

   3340  0 000164                       CHECK_EQUAL* null
     1594     3341    3               CALL CHECK_INTO_INTERNAL_FILE ( VD_6E.EQUALS$ -> VD$STREAM,

   3341  0 000164   000001 236000 xsym               LDQ     B_VECTNIL+1
         0 000165   200055 756100                    STQ     @FOUND_NAME+1,,AUTO
         0 000166   200007 630500                    EPPR0   FOUND_FLAG,,AUTO
         0 000167   200054 450500                    STP0    @STREAM+1,,AUTO
         0 000170   000001 236000 xsym               LDQ     VD_6E+1
         0 000171   200053 756100                    STQ     I+2,,AUTO
         0 000172   000620 701000 0                  TSX1    CHECK_INTO_INTERNAL_FILE
         0 000173   000574 702000 0                  TSX2    SERIOUS_ERROR
PL6.E3A0      #010=VDI$CUPDATE_NAME File=VDI$COMMANDS_NON_EDITING.:VDA5TSI       FRI 07/04/97 11:32 Page:247

     1595     3342    3                 FOUND_FLAG )
     1596     3343    3                 ALTRET ( SERIOUS_ERROR );
     1597     3344    3               IF FOUND_FLAG

   3344  0 000174   200007 234100                    SZN     FOUND_FLAG,,AUTO
         0 000175   000207 605000 0                  TPL     s:3355

     1598     3345    3               THEN
     1599     3346    3   DELETE_FROM_EQUALS_FILE:
     1600     3347    4                 DO;

   3347  0 000176                       DELETE_FROM* null
     1601     3348    4                   CALL VDA$LDELETE ( VD_6E.EQUALS$ -> VD$STREAM,

   3348  0 000176   200021 630500                    EPPR0   NAME_DELETION_RANGE,,AUTO
         0 000177   200061 450500                    STP0    CURRENT_KEY$+3,,AUTO
         0 000200   000001 236000 xsym               LDQ     VD_6E+1
         0 000201   200060 756100                    STQ     CURRENT_KEY$+2,,AUTO
         0 000202   200060 630500                    EPPR0   CURRENT_KEY$+2,,AUTO
         0 000203   000020 631400 xsym               EPPR1   B_VECTNIL+16
         0 000204   000000 701000 xent               TSX1    VDA$LDELETE
         0 000205   000574 702000 0                  TSX2    SERIOUS_ERROR

     1602     3349    4                     NAME_DELETION_RANGE )
     1603     3350    4                     ALTRET ( SERIOUS_ERROR );
     1604     3351    4                   EXIT CHECK_OTHER_INTERNAL_FILES;

   3351  0 000206   000311 710000 0                  TRA     s:3411

     1605     3352    4                 END DELETE_FROM_EQUALS_FILE;
     1606     3353    3             END CHECK_EQUALS_FILE;
     1607     3354
     1608     3355    2           IF ADDR(NAME$STREAM) ~= VD_6E.KEYINS$

   3355  0 000207   200003 236100                    LDQ     @NAME$STREAM,,AUTO
         0 000210   000004 116000 xsym               CMPQ    VD_6E+4
PL6.E3A0      #010=VDI$CUPDATE_NAME File=VDI$COMMANDS_NON_EDITING.:VDA5TSI       FRI 07/04/97 11:32 Page:248
         0 000211   000235 600000 0                  TZE     s:3373

     1609     3356    2           THEN
     1610     3357    2   CHECK_KEYINS_FILE:
     1611     3358    3             DO;

   3358  0 000212                       CHECK_KEYIN* null
     1612     3359    3               CALL CHECK_INTO_INTERNAL_FILE ( VD_6E.KEYINS$ -> VD$STREAM,

   3359  0 000212   000001 236000 xsym               LDQ     B_VECTNIL+1
         0 000213   200055 756100                    STQ     @FOUND_NAME+1,,AUTO
         0 000214   200007 630500                    EPPR0   FOUND_FLAG,,AUTO
         0 000215   200054 450500                    STP0    @STREAM+1,,AUTO
         0 000216   000004 236000 xsym               LDQ     VD_6E+4
         0 000217   200053 756100                    STQ     I+2,,AUTO
         0 000220   000620 701000 0                  TSX1    CHECK_INTO_INTERNAL_FILE
         0 000221   000574 702000 0                  TSX2    SERIOUS_ERROR

     1613     3360    3                 FOUND_FLAG )
     1614     3361    3                 ALTRET ( SERIOUS_ERROR );
     1615     3362    3               IF FOUND_FLAG

   3362  0 000222   200007 234100                    SZN     FOUND_FLAG,,AUTO
         0 000223   000235 605000 0                  TPL     s:3373

     1616     3363    3               THEN
     1617     3364    3   DELETE_FROM_KEYINS_FILE:
     1618     3365    4                 DO;

   3365  0 000224                       DELETE_FROM* null
     1619     3366    4                   CALL VDA$LDELETE ( VD_6E.KEYINS$ -> VD$STREAM,

   3366  0 000224   200021 630500                    EPPR0   NAME_DELETION_RANGE,,AUTO
         0 000225   200061 450500                    STP0    CURRENT_KEY$+3,,AUTO
         0 000226   000004 236000 xsym               LDQ     VD_6E+4
         0 000227   200060 756100                    STQ     CURRENT_KEY$+2,,AUTO
         0 000230   200060 630500                    EPPR0   CURRENT_KEY$+2,,AUTO
PL6.E3A0      #010=VDI$CUPDATE_NAME File=VDI$COMMANDS_NON_EDITING.:VDA5TSI       FRI 07/04/97 11:32 Page:249
         0 000231   000020 631400 xsym               EPPR1   B_VECTNIL+16
         0 000232   000000 701000 xent               TSX1    VDA$LDELETE
         0 000233   000574 702000 0                  TSX2    SERIOUS_ERROR

     1620     3367    4                     NAME_DELETION_RANGE )
     1621     3368    4                     ALTRET ( SERIOUS_ERROR );
     1622     3369    4                   EXIT CHECK_OTHER_INTERNAL_FILES;

   3369  0 000234   000311 710000 0                  TRA     s:3411

     1623     3370    4                 END DELETE_FROM_KEYINS_FILE;
     1624     3371    3             END CHECK_KEYINS_FILE;
     1625     3372
     1626     3373    2           IF ADDR(NAME$STREAM) ~= VD_6E.LOCATIONS$

   3373  0 000235   200003 236100                    LDQ     @NAME$STREAM,,AUTO
         0 000236   000002 116000 xsym               CMPQ    VD_6E+2
         0 000237   000263 600000 0                  TZE     s:3391

     1627     3374    2           THEN
     1628     3375    2   CHECK_LOCATIONS_FILE:
     1629     3376    3             DO;

   3376  0 000240                       CHECK_LOCAT* null
     1630     3377    3               CALL CHECK_INTO_INTERNAL_FILE ( VD_6E.LOCATIONS$ -> VD$STREAM,

   3377  0 000240   000001 236000 xsym               LDQ     B_VECTNIL+1
         0 000241   200055 756100                    STQ     @FOUND_NAME+1,,AUTO
         0 000242   200007 630500                    EPPR0   FOUND_FLAG,,AUTO
         0 000243   200054 450500                    STP0    @STREAM+1,,AUTO
         0 000244   000002 236000 xsym               LDQ     VD_6E+2
         0 000245   200053 756100                    STQ     I+2,,AUTO
         0 000246   000620 701000 0                  TSX1    CHECK_INTO_INTERNAL_FILE
         0 000247   000574 702000 0                  TSX2    SERIOUS_ERROR

     1631     3378    3                 FOUND_FLAG )
     1632     3379    3                 ALTRET ( SERIOUS_ERROR );
PL6.E3A0      #010=VDI$CUPDATE_NAME File=VDI$COMMANDS_NON_EDITING.:VDA5TSI       FRI 07/04/97 11:32 Page:250
     1633     3380    3               IF FOUND_FLAG

   3380  0 000250   200007 234100                    SZN     FOUND_FLAG,,AUTO
         0 000251   000263 605000 0                  TPL     s:3391

     1634     3381    3               THEN
     1635     3382    3   DELETE_FROM_LOCATIONS_FILE:
     1636     3383    4                 DO;

   3383  0 000252                       DELETE_FROM* null
     1637     3384    4                   CALL VDA$LDELETE ( VD_6E.LOCATIONS$ -> VD$STREAM,

   3384  0 000252   200021 630500                    EPPR0   NAME_DELETION_RANGE,,AUTO
         0 000253   200061 450500                    STP0    CURRENT_KEY$+3,,AUTO
         0 000254   000002 236000 xsym               LDQ     VD_6E+2
         0 000255   200060 756100                    STQ     CURRENT_KEY$+2,,AUTO
         0 000256   200060 630500                    EPPR0   CURRENT_KEY$+2,,AUTO
         0 000257   000020 631400 xsym               EPPR1   B_VECTNIL+16
         0 000260   000000 701000 xent               TSX1    VDA$LDELETE
         0 000261   000574 702000 0                  TSX2    SERIOUS_ERROR

     1638     3385    4                     NAME_DELETION_RANGE )
     1639     3386    4                     ALTRET ( SERIOUS_ERROR );
     1640     3387    4                   EXIT CHECK_OTHER_INTERNAL_FILES;

   3387  0 000262   000311 710000 0                  TRA     s:3411

     1641     3388    4                 END DELETE_FROM_LOCATIONS_FILE;
     1642     3389    3             END CHECK_LOCATIONS_FILE;
     1643     3390
     1644     3391    2           IF ADDR(NAME$STREAM) ~= VD_6E.SYNONYMS$

   3391  0 000263   200003 236100                    LDQ     @NAME$STREAM,,AUTO
         0 000264   000003 116000 xsym               CMPQ    VD_6E+3
         0 000265   000311 600000 0                  TZE     s:3411

     1645     3392    2           THEN
PL6.E3A0      #010=VDI$CUPDATE_NAME File=VDI$COMMANDS_NON_EDITING.:VDA5TSI       FRI 07/04/97 11:32 Page:251
     1646     3393    2   CHECK_SYNONYMS_FILE:
     1647     3394    3             DO;

   3394  0 000266                       CHECK_SYNON* null
     1648     3395    3               CALL CHECK_INTO_INTERNAL_FILE ( VD_6E.SYNONYMS$ -> VD$STREAM,

   3395  0 000266   000001 236000 xsym               LDQ     B_VECTNIL+1
         0 000267   200055 756100                    STQ     @FOUND_NAME+1,,AUTO
         0 000270   200007 630500                    EPPR0   FOUND_FLAG,,AUTO
         0 000271   200054 450500                    STP0    @STREAM+1,,AUTO
         0 000272   000003 236000 xsym               LDQ     VD_6E+3
         0 000273   200053 756100                    STQ     I+2,,AUTO
         0 000274   000620 701000 0                  TSX1    CHECK_INTO_INTERNAL_FILE
         0 000275   000574 702000 0                  TSX2    SERIOUS_ERROR

     1649     3396    3                 FOUND_FLAG )
     1650     3397    3                 ALTRET ( SERIOUS_ERROR );
     1651     3398    3               IF FOUND_FLAG

   3398  0 000276   200007 234100                    SZN     FOUND_FLAG,,AUTO
         0 000277   000311 605000 0                  TPL     s:3411

     1652     3399    3               THEN
     1653     3400    3   DELETE_FROM_SYNONYMS_FILE:
     1654     3401    4                 DO;

   3401  0 000300                       DELETE_FROM* null
     1655     3402    4                   CALL VDA$LDELETE ( VD_6E.SYNONYMS$ -> VD$STREAM,

   3402  0 000300   200021 630500                    EPPR0   NAME_DELETION_RANGE,,AUTO
         0 000301   200061 450500                    STP0    CURRENT_KEY$+3,,AUTO
         0 000302   000003 236000 xsym               LDQ     VD_6E+3
         0 000303   200060 756100                    STQ     CURRENT_KEY$+2,,AUTO
         0 000304   200060 630500                    EPPR0   CURRENT_KEY$+2,,AUTO
         0 000305   000020 631400 xsym               EPPR1   B_VECTNIL+16
         0 000306   000000 701000 xent               TSX1    VDA$LDELETE
         0 000307   000574 702000 0                  TSX2    SERIOUS_ERROR
PL6.E3A0      #010=VDI$CUPDATE_NAME File=VDI$COMMANDS_NON_EDITING.:VDA5TSI       FRI 07/04/97 11:32 Page:252

     1656     3403    4                     NAME_DELETION_RANGE )
     1657     3404    4                     ALTRET ( SERIOUS_ERROR );
     1658     3405    4                   EXIT CHECK_OTHER_INTERNAL_FILES;

   3405  0 000310   000311 710000 0                  TRA     s:3411

     1659     3406    4                 END DELETE_FROM_SYNONYMS_FILE;
     1660     3407    3             END CHECK_SYNONYMS_FILE;
     1661     3408
     1662     3409    2         END CHECK_OTHER_INTERNAL_FILES;
     1663     3410
     1664     3411    1       IF SPEC.V$ = ADDR (NIL)

   3411  0 000311   200044 236100                    LDQ     SPEC+1,,AUTO
         0 000312   000001 116000 xsym               CMPQ    B_VECTNIL+1
         0 000313   000317 601000 0                  TNZ     s:3424

     1665     3412    1       THEN
     1666     3413    1         CALL VDG$ESCREECH;

   3413  0 000314   000002 631400 xsym               EPPR1   B_VECTNIL+2
         0 000315   000000 701000 xent               TSX1    VDG$ESCREECH
         0 000316   000000 011000                    NOP     0

     1667     3414
     1668     3415            /*
     1669     3416            *  Either:
     1670     3417            *     We found the name in the NAME_STREAM file, in which case
     1671     3418            *        SPEC contains the name's current Spec component; or
     1672     3419            *     The name isn't in the NAME_STREAM file, in which case
     1673     3420            *        we've created an initially %CLEAR VD$NAME_SPEC for it.
     1674     3421            *  Set the requested data type in the name's Spec.
     1675     3422            */
     1676     3423
     1677     3424    1       IF ADDR(NAME$STREAM) = VD_6E.EQUALS$

PL6.E3A0      #010=VDI$CUPDATE_NAME File=VDI$COMMANDS_NON_EDITING.:VDA5TSI       FRI 07/04/97 11:32 Page:253
   3424  0 000317   200003 236100                    LDQ     @NAME$STREAM,,AUTO
         0 000320   000001 116000 xsym               CMPQ    VD_6E+1
         0 000321   000326 601000 0                  TNZ     s:3428

     1678     3425    1       THEN
     1679     3426    1         NAME$SPEC.DATA_TYPE# = %NDT_EQUALS;

   3426  0 000322   000001 220003                    LDX0    1,DU
         0 000323   200044 470500                    LDP0    SPEC+1,,AUTO
         0 000324   000002 440100                    SXL0    2,,PR0
         0 000325   000356 710000 0                  TRA     s:3451

     1680     3427    1       ELSE
     1681     3428    1         IF ADDR(NAME$STREAM) = VD_6E.KEYINS$

   3428  0 000326   000004 116000 xsym               CMPQ    VD_6E+4
         0 000327   000337 601000 0                  TNZ     s:3435

     1682     3429    1         THEN
     1683     3430    2           DO;

     1684     3431    2             NAME$SPEC.DATA_TYPE# = %NDT_KEYIN;

   3431  0 000330   000004 220003                    LDX0    4,DU
         0 000331   200044 470500                    LDP0    SPEC+1,,AUTO
         0 000332   000002 440100                    SXL0    2,,PR0

     1685     3432    2             NAME$SPEC.WINDOWABLE = %TRUE; /* All KEYINs can be window-specific */

   3432  0 000333   200044 470500                    LDP0    SPEC+1,,AUTO
         0 000334   400000 236007                    LDQ     -131072,DL
         0 000335   000003 256100                    ORSQ    3,,PR0

     1686     3433    2           END;

   3433  0 000336   000356 710000 0                  TRA     s:3451

PL6.E3A0      #010=VDI$CUPDATE_NAME File=VDI$COMMANDS_NON_EDITING.:VDA5TSI       FRI 07/04/97 11:32 Page:254
     1687     3434    1         ELSE
     1688     3435    1           IF ADDR(NAME$STREAM) = VD_6E.LOCATIONS$

   3435  0 000337   000002 116000 xsym               CMPQ    VD_6E+2
         0 000340   000345 601000 0                  TNZ     s:3439

     1689     3436    1           THEN
     1690     3437    1             NAME$SPEC.DATA_TYPE# = %NDT_LOCATION;

   3437  0 000341   000002 220003                    LDX0    2,DU
         0 000342   200044 470500                    LDP0    SPEC+1,,AUTO
         0 000343   000002 440100                    SXL0    2,,PR0
         0 000344   000356 710000 0                  TRA     s:3451

     1691     3438    1           ELSE
     1692     3439    1             IF ADDR(NAME$STREAM) = VD_6E.SYNONYMS$

   3439  0 000345   000003 116000 xsym               CMPQ    VD_6E+3
         0 000346   000353 601000 0                  TNZ     s:3443

     1693     3440    1             THEN
     1694     3441    1               NAME$SPEC.DATA_TYPE# = %NDT_SYNONYM;

   3441  0 000347   000003 220003                    LDX0    3,DU
         0 000350   200044 470500                    LDP0    SPEC+1,,AUTO
         0 000351   000002 440100                    SXL0    2,,PR0
         0 000352   000356 710000 0                  TRA     s:3451

     1695     3442    1             ELSE
     1696     3443    1               CALL VDG$ESCREECH;

   3443  0 000353   000002 631400 xsym               EPPR1   B_VECTNIL+2
         0 000354   000000 701000 xent               TSX1    VDG$ESCREECH
         0 000355   000000 011000                    NOP     0

     1697     3444
     1698     3445            /*
PL6.E3A0      #010=VDI$CUPDATE_NAME File=VDI$COMMANDS_NON_EDITING.:VDA5TSI       FRI 07/04/97 11:32 Page:255
     1699     3446            *   If NAME_SUBSCRIPT is passed, make a copy of the name's current Data
     1700     3447            *   component and insert NAME_VALUE into the appropriate place in the
     1701     3448            *   VD$BUFFER chain, possibly replacing an existing element.
     1702     3449            */
     1703     3450
     1704     3451    1       IF ADDR(NAME_SUBSCRIPT) ~= ADDR(NIL)

   3451  0 000356   200006 236100                    LDQ     @NAME_SUBSCRIPT,,AUTO
         0 000357   000001 116000 xsym               CMPQ    B_VECTNIL+1
         0 000360   000514 600000 0                  TZE     s:3508

     1705     3452    1       THEN
     1706     3453    1   REPLACE_JUST_1_ELEMENT_IN_CHAIN:
     1707     3454    2         DO;

   3454  0 000361                       REPLACE_JUS* null
     1708     3455    2           IF NAME_SUBSCRIPT < 0

   3455  0 000361   200006 470500                    LDP0    @NAME_SUBSCRIPT,,AUTO
         0 000362   000000 235100                    LDA     0,,PR0
         0 000363   000370 605000 0                  TPL     s:3459

     1709     3456    2           THEN
     1710     3457    2             CALL VDG$ESCREECH (NAME_SUBSCRIPT);

   3457  0 000364   200006 630500                    EPPR0   @NAME_SUBSCRIPT,,AUTO
         0 000365   000017 631400 xsym               EPPR1   B_VECTNIL+15
         0 000366   000000 701000 xent               TSX1    VDG$ESCREECH
         0 000367   000000 011000                    NOP     0

     1711     3458
     1712     3459    2           IF CURRENT_DATA$ = ADDR(NIL)

   3459  0 000370   200046 236100                    LDQ     CURRENT_DATA$,,AUTO
         0 000371   000001 116000 xsym               CMPQ    B_VECTNIL+1
         0 000372   000411 601000 0                  TNZ     s:3470

PL6.E3A0      #010=VDI$CUPDATE_NAME File=VDI$COMMANDS_NON_EDITING.:VDA5TSI       FRI 07/04/97 11:32 Page:256
     1713     3460    2           THEN
     1714     3461    3             DO;

     1715     3462    3               CALL VDG$OALLOC (%CLS_BUFFER,

   3462  0 000373   000004 236000 1                  LDQ     4
         0 000374   200062 756100                    STQ     CURRENT_KEY$+4,,AUTO
         0 000375   200045 630500                    EPPR0   NEW_CHAIN$,,AUTO
         0 000376   200061 450500                    STP0    CURRENT_KEY$+3,,AUTO
         0 000377   000005 236000 1                  LDQ     5
         0 000400   200060 756100                    STQ     CURRENT_KEY$+2,,AUTO
         0 000401   200060 630500                    EPPR0   CURRENT_KEY$+2,,AUTO
         0 000402   000021 631400 xsym               EPPR1   B_VECTNIL+17
         0 000403   000000 701000 xent               TSX1    VDG$OALLOC
         0 000404   000574 702000 0                  TSX2    SERIOUS_ERROR

     1716     3463    3                 NEW_CHAIN$,
     1717     3464    3                 SIZEW ( VD$BUFFER_HEADER ) )
     1718     3465    3                 ALTRET ( SERIOUS_ERROR );
     1719     3466    3               NEW$CHAIN.LENGTH# = 0;  /* 0-length buffer is place-holder */

   3466  0 000405   000000 220003                    LDX0    0,DU
         0 000406   200045 470500                    LDP0    NEW_CHAIN$,,AUTO
         0 000407   000002 740100                    STX0    2,,PR0

     1720     3467    3             END;

   3467  0 000410   000420 710000 0                  TRA     s:3476

     1721     3468    2           ELSE
     1722     3469    3             DO;

     1723     3470    3               CALL VDG$OCOPY ( CURRENT$DATA,

   3470  0 000411   200045 630500                    EPPR0   NEW_CHAIN$,,AUTO
         0 000412   200061 450500                    STP0    CURRENT_KEY$+3,,AUTO
         0 000413   200060 756100                    STQ     CURRENT_KEY$+2,,AUTO
PL6.E3A0      #010=VDI$CUPDATE_NAME File=VDI$COMMANDS_NON_EDITING.:VDA5TSI       FRI 07/04/97 11:32 Page:257
         0 000414   200060 630500                    EPPR0   CURRENT_KEY$+2,,AUTO
         0 000415   000020 631400 xsym               EPPR1   B_VECTNIL+16
         0 000416   000000 701000 xent               TSX1    VDG$OCOPY
         0 000417   000574 702000 0                  TSX2    SERIOUS_ERROR

     1724     3471    3                 NEW_CHAIN$ )
     1725     3472    3                 ALTRET ( SERIOUS_ERROR );
     1726     3473    3             END;

     1727     3474
     1728     3475                /* Find the element to be replaced in the chain */
     1729     3476    2           PREV_ELEMENT$ = ADDR(NIL);

   3476  0 000420   000001 236000 xsym               LDQ     B_VECTNIL+1
         0 000421   200047 756100                    STQ     PREV_ELEMENT$,,AUTO

     1730     3477    2           CURR_ELEMENT$ = NEW_CHAIN$;

   3477  0 000422   200045 236100                    LDQ     NEW_CHAIN$,,AUTO
         0 000423   200050 756100                    STQ     CURR_ELEMENT$,,AUTO

     1731     3478
     1732     3479    3           DO I = NAME_SUBSCRIPT - 1 DOWNTO 0;

   3479  0 000424   200006 470500                    LDP0    @NAME_SUBSCRIPT,,AUTO
         0 000425   000000 235100                    LDA     0,,PR0
         0 000426   000001 135007                    SBLA    1,DL
         0 000427   200051 755100                    STA     I,,AUTO
         0 000430   000462 710000 0                  TRA     s:3491+2

     1733     3480    3             IF CURR$ELEMENT.FLINK$ = ADDR(NIL)

   3480  0 000431   200050 470500                    LDP0    CURR_ELEMENT$,,AUTO
         0 000432   000001 236100                    LDQ     1,,PR0
         0 000433   000001 116000 xsym               CMPQ    B_VECTNIL+1
         0 000434   000453 601000 0                  TNZ     s:3489

PL6.E3A0      #010=VDI$CUPDATE_NAME File=VDI$COMMANDS_NON_EDITING.:VDA5TSI       FRI 07/04/97 11:32 Page:258
     1734     3481    3             THEN
     1735     3482    4               DO;

     1736     3483    4                 CALL VDG$OALLOC ( %CLS_BUFFER,

   3483  0 000435   000004 236000 1                  LDQ     4
         0 000436   200062 756100                    STQ     CURRENT_KEY$+4,,AUTO
         0 000437   200050 236100                    LDQ     CURR_ELEMENT$,,AUTO
         0 000440   000001 036003                    ADLQ    1,DU
         0 000441   000005 235000 1                  LDA     5
         0 000442   200060 757100                    STAQ    CURRENT_KEY$+2,,AUTO
         0 000443   200060 630500                    EPPR0   CURRENT_KEY$+2,,AUTO
         0 000444   000021 631400 xsym               EPPR1   B_VECTNIL+17
         0 000445   000000 701000 xent               TSX1    VDG$OALLOC
         0 000446   000574 702000 0                  TSX2    SERIOUS_ERROR

     1737     3484    4                   CURR$ELEMENT.FLINK$,
     1738     3485    4                   SIZEW ( VD$BUFFER_HEADER ) )
     1739     3486    4                   ALTRET ( SERIOUS_ERROR );
     1740     3487    4                 CURR$ELEMENT.FLINK$->CURR$ELEMENT.LENGTH# = 0;

   3487  0 000447   200050 470500                    LDP0    CURR_ELEMENT$,,AUTO
         0 000450   000001 471500                    LDP1    1,,PR0
         0 000451   000000 220003                    LDX0    0,DU
         0 000452   100002 740100                    STX0    2,,PR1

     1741     3488    4               END;

     1742     3489    3             PREV_ELEMENT$ = CURR_ELEMENT$;

   3489  0 000453   200050 236100                    LDQ     CURR_ELEMENT$,,AUTO
         0 000454   200047 756100                    STQ     PREV_ELEMENT$,,AUTO

     1743     3490    3             CURR_ELEMENT$ = PREV$ELEMENT.FLINK$;

   3490  0 000455   200047 471500                    LDP1    PREV_ELEMENT$,,AUTO
         0 000456   100001 236100                    LDQ     1,,PR1
PL6.E3A0      #010=VDI$CUPDATE_NAME File=VDI$COMMANDS_NON_EDITING.:VDA5TSI       FRI 07/04/97 11:32 Page:259
         0 000457   200050 756100                    STQ     CURR_ELEMENT$,,AUTO

     1744     3491    3           END;

   3491  0 000460   000001 336007                    LCQ     1,DL
         0 000461   200051 056100                    ASQ     I,,AUTO
         0 000462   200051 235100                    LDA     I,,AUTO
         0 000463   000431 605000 0                  TPL     s:3480

     1745     3492
     1746     3493    2           IF PREV_ELEMENT$ = ADDR(NIL)

   3493  0 000464   200047 236100                    LDQ     PREV_ELEMENT$,,AUTO
         0 000465   000001 116000 xsym               CMPQ    B_VECTNIL+1
         0 000466   000473 601000 0                  TNZ     s:3497

     1747     3494    2           THEN
     1748     3495    2             NEW_CHAIN$ = NAME_VALUE$;

   3495  0 000467   200005 470500                    LDP0    @NAME_VALUE$,,AUTO
         0 000470   000000 236100                    LDQ     0,,PR0
         0 000471   200045 756100                    STQ     NEW_CHAIN$,,AUTO
         0 000472   000477 710000 0                  TRA     s:3498

     1749     3496    2           ELSE
     1750     3497    2             PREV$ELEMENT.FLINK$ = NAME_VALUE$;

   3497  0 000473   200005 470500                    LDP0    @NAME_VALUE$,,AUTO
         0 000474   000000 236100                    LDQ     0,,PR0
         0 000475   200047 471500                    LDP1    PREV_ELEMENT$,,AUTO
         0 000476   100001 756100                    STQ     1,,PR1

     1751     3498    2           NAME$VALUE.FLINK$ = CURR$ELEMENT.FLINK$;

   3498  0 000477   000000 471500                    LDP1    0,,PR0
         0 000500   200050 473500                    LDP3    CURR_ELEMENT$,,AUTO
         0 000501   300001 236100                    LDQ     1,,PR3
PL6.E3A0      #010=VDI$CUPDATE_NAME File=VDI$COMMANDS_NON_EDITING.:VDA5TSI       FRI 07/04/97 11:32 Page:260
         0 000502   100001 756100                    STQ     1,,PR1

     1752     3499    2           CURR$ELEMENT.FLINK$ = ADDR(NIL);

   3499  0 000503   000001 236000 xsym               LDQ     B_VECTNIL+1
         0 000504   300001 756100                    STQ     1,,PR3

     1753     3500
     1754     3501    2           CALL VDG$OFREE ( CURR$ELEMENT )

   3501  0 000505   200050 630500                    EPPR0   CURR_ELEMENT$,,AUTO
         0 000506   000017 631400 xsym               EPPR1   B_VECTNIL+15
         0 000507   000000 701000 xent               TSX1    VDG$OFREE
         0 000510   000574 702000 0                  TSX2    SERIOUS_ERROR

     1755     3502    2             ALTRET ( SERIOUS_ERROR );
     1756     3503
     1757     3504    2           NAME_VALUE$ = NEW_CHAIN$;

   3504  0 000511   200045 236100                    LDQ     NEW_CHAIN$,,AUTO
         0 000512   200005 470500                    LDP0    @NAME_VALUE$,,AUTO
         0 000513   000000 756100                    STQ     0,,PR0

     1758     3505    2         END REPLACE_JUST_1_ELEMENT_IN_CHAIN;

     1759     3506
     1760     3507
     1761     3508    1       CALL VDA$LWRITE ( NAME$STREAM,

   3508  0 000514   200005 470500                    LDP0    @NAME_VALUE$,,AUTO
         0 000515   000000 471500                    LDP1    0,,PR0
         0 000516   200063 451500                    STP1    CURRENT_KEY$+5,,AUTO
         0 000517   200043 633500                    EPPR3   SPEC,,AUTO
         0 000520   200062 453500                    STP3    CURRENT_KEY$+4,,AUTO
         0 000521   200010 634500                    EPPR4   NAME_LOCATION,,AUTO
         0 000522   200061 454500                    STP4    CURRENT_KEY$+3,,AUTO
         0 000523   200003 236100                    LDQ     @NAME$STREAM,,AUTO
PL6.E3A0      #010=VDI$CUPDATE_NAME File=VDI$COMMANDS_NON_EDITING.:VDA5TSI       FRI 07/04/97 11:32 Page:261
         0 000524   200060 756100                    STQ     CURRENT_KEY$+2,,AUTO
         0 000525   200060 630500                    EPPR0   CURRENT_KEY$+2,,AUTO
         0 000526   000022 631400 xsym               EPPR1   B_VECTNIL+18
         0 000527   000000 701000 xent               TSX1    VDA$LWRITE
         0 000530   000532 702000 0                  TSX2    s:3518
         0 000531   000545 710000 0                  TRA     s:3527

     1762     3509    1         NAME_LOCATION,
     1763     3510    1         SPEC,
     1764     3511    1         NAME$VALUE )
     1765     3512    1       WHENALTRETURN
     1766     3513    2         DO;

     1767     3514                /*
     1768     3515                *  The Accessor hasn't taken ownership of NAME$VALUE or SPEC:  free
     1769     3516                *   NAME$VALUE now (SERIOUS_ERROR will clear SPEC).
     1770     3517                */
     1771     3518    2           CALL VDG$OFREE ( NAME$VALUE ); /* Ignore altreturn */

   3518  0 000532   200005 470500                    LDP0    @NAME_VALUE$,,AUTO
         0 000533   000000 471500                    LDP1    0,,PR0
         0 000534   200060 451500                    STP1    CURRENT_KEY$+2,,AUTO
         0 000535   200060 630500                    EPPR0   CURRENT_KEY$+2,,AUTO
         0 000536   000017 631400 xsym               EPPR1   B_VECTNIL+15
         0 000537   000000 701000 xent               TSX1    VDG$OFREE
         0 000540   000000 011000                    NOP     0

     1772     3519    2           NAME_VALUE$ = ADDR(NIL);

   3519  0 000541   000001 236000 xsym               LDQ     B_VECTNIL+1
         0 000542   200005 470500                    LDP0    @NAME_VALUE$,,AUTO
         0 000543   000000 756100                    STQ     0,,PR0

     1773     3520    2           GOTO SERIOUS_ERROR;

   3520  0 000544   000574 710000 0                  TRA     SERIOUS_ERROR

PL6.E3A0      #010=VDI$CUPDATE_NAME File=VDI$COMMANDS_NON_EDITING.:VDA5TSI       FRI 07/04/97 11:32 Page:262
     1774     3521    2         END;
     1775     3522
     1776     3523            /*
     1777     3524            *  The Accessor has taken ownership of NAME$VALUE and SPEC:  inform the
     1778     3525            *   caller of the change in NAME$VALUE status; clear SPEC to remind myself.
     1779     3526            */
     1780     3527    1       NAME_VALUE$ = ADDR(NIL);

   3527  0 000545   000001 236000 xsym               LDQ     B_VECTNIL+1
         0 000546   200005 470500                    LDP0    @NAME_VALUE$,,AUTO
         0 000547   000000 756100                    STQ     0,,PR0

     1781     3528    1       SPEC = %CLEAR;

   3528  0 000550   200043 450100                    STZ     SPEC,,AUTO
         0 000551   200044 450100                    STZ     SPEC+1,,AUTO

     1782     3529
     1783     3530    1       CALL VDA$PFLUSH ( NAME$STREAM.PORT$ -> VD$PORT,

   3530  0 000552   200003 471500                    LDP1    @NAME$STREAM,,AUTO
         0 000553   100001 473500                    LDP3    1,,PR1
         0 000554   000006 236000 1                  LDQ     6
         0 000555   200061 756100                    STQ     CURRENT_KEY$+3,,AUTO
         0 000556   200060 453500                    STP3    CURRENT_KEY$+2,,AUTO
         0 000557   200060 630500                    EPPR0   CURRENT_KEY$+2,,AUTO
         0 000560   000020 631400 xsym               EPPR1   B_VECTNIL+16
         0 000561   000000 701000 xent               TSX1    VDA$PFLUSH
         0 000562   000574 702000 0                  TSX2    SERIOUS_ERROR

     1784     3531    1         %TO_PRESENTER )
     1785     3532    1         ALTRET ( SERIOUS_ERROR );
     1786     3533
     1787     3534    1       CALL VDG$OCLEAR_LOCATION ( NAME_LOCATION )

   3534  0 000563   200010 630500                    EPPR0   NAME_LOCATION,,AUTO
         0 000564   200060 450500                    STP0    CURRENT_KEY$+2,,AUTO
PL6.E3A0      #010=VDI$CUPDATE_NAME File=VDI$COMMANDS_NON_EDITING.:VDA5TSI       FRI 07/04/97 11:32 Page:263
         0 000565   200060 630500                    EPPR0   CURRENT_KEY$+2,,AUTO
         0 000566   000017 631400 xsym               EPPR1   B_VECTNIL+15
         0 000567   000000 701000 xent               TSX1    VDG$OCLEAR_LOCATION
         0 000570   000572 702000 0                  TSX2    s:3537
         0 000571   000573 710000 0                  TRA     s:3540

     1788     3535    1       WHENALTRETURN
     1789     3536    2         DO;

     1790     3537    2           ALTRETURN;

   3537  0 000572   000000 702200 xent               TSX2  ! X66_AALT

     1791     3538    2         END;
     1792     3539
     1793     3540    1       RETURN;

   3540  0 000573   000000 702200 xent               TSX2  ! X66_ARET

     1794     3541
     1795     3542    1   SERIOUS_ERROR:
     1796     3543            %CLEARSPEC (SPEC=SPEC);

   3550  0 000574   200043 720100       SERIOUS_ERR* LXL0    SPEC,,AUTO
         0 000575   000002 100003                    CMPX0   2,DU
         0 000576   000605 601000 0                  TNZ     s:3551+1

   3550  0 000577   200044 630500                    EPPR0   SPEC+1,,AUTO
         0 000600   000017 631400 xsym               EPPR1   B_VECTNIL+15
         0 000601   000000 701000 xent               TSX1    VDG$OFREE
         0 000602   000604 702000 0                  TSX2    s:3551
         0 000603   000605 710000 0                  TRA     s:3551+1

   3551  0 000604   000000 702200 xent               TSX2  ! X66_AALT

   3551  0 000605   200043 450100                    STZ     SPEC,,AUTO
         0 000606   200044 450100                    STZ     SPEC+1,,AUTO
PL6.E3A0      #010=VDI$CUPDATE_NAME File=VDI$COMMANDS_NON_EDITING.:VDA5TSI       FRI 07/04/97 11:32 Page:264

     1797     3553    1       CALL VDG$OCLEAR_LOCATION (NAME_LOCATION)

   3553  0 000607   200010 630500                    EPPR0   NAME_LOCATION,,AUTO
         0 000610   200060 450500                    STP0    CURRENT_KEY$+2,,AUTO
         0 000611   200060 630500                    EPPR0   CURRENT_KEY$+2,,AUTO
         0 000612   000017 631400 xsym               EPPR1   B_VECTNIL+15
         0 000613   000000 701000 xent               TSX1    VDG$OCLEAR_LOCATION
         0 000614   000616 702000 0                  TSX2    s:3554
         0 000615   000617 710000 0                  TRA     s:3555

     1798     3554    2       WHENALTRETURN DO; ALTRETURN; END;

   3554  0 000616   000000 702200 xent               TSX2  ! X66_AALT

     1799     3555    1       ALTRETURN;

   3555  0 000617   000000 702200 xent               TSX2  ! X66_AALT

     1800     3556
     1801     3557        %BOX (TITLE=CHECK_INTO_INTERNAL_FILE, PAGE=YES);
              3565    1
              3569    1   /***************************************************************************
              3571    1    *                                                                         *
              3575    1            *                          CHECK_INTO_INTERNAL_FILE                      *
              3577    1            *                                                                        *
              3579    1          ***************************************************************************/

     1802     3583
     1803     3584        /*I* NAME: CHECK_INTO_INTERNAL_FILE
     1804     3585            PARAMETERS:
     1805     3586                STREAM - VD$STREAM open to the Names file to check into.
     1806     3587                FOUND_NAME - Uninitialized BIT(1) ALIGNED.
     1807     3588                CURRENT_SPEC - Optional uninitialized VD$SPEC.
     1808     3589            INPUT:
     1809     3590                NAME_KEY - VD$TEXTC containing the name to look for.
     1810     3591                NAME_LOCATION - VD$LOCATION specifying the name to look for as a
PL6.E3A0      #010=VDI$CUPDATE_NAME File=VDI$COMMANDS_NON_EDITING.:VDA5TSI       FRI 07/04/97 11:32 Page:265
     1811     3592                    %LVL_LOWER key.
     1812     3593            OUTPUT:
     1813     3594                FOUND_NAME will be set %TRUE if the name was found in STREAM; %FALSE
     1814     3595                    otherwise.
     1815     3596                If name is found:
     1816     3597                    CURRENT_SPEC, if passed, will contain a copy of the name's current
     1817     3598                        Spec component.
     1818     3599                    STREAM.PORT$ -> VD$PORT will be positioned to the name, and will
     1819     3600                        have the name's current value in its .LEVELs.
     1820     3601            DESCRIPTION:
     1821     3602                Look for the name in STREAM.  If found and CURRENT_SPEC is passed,
     1822     3603                copy its Spec component for the caller to use.
     1823     3604        */
     1824     3605
     1825     3606    1   CHECK_INTO_INTERNAL_FILE: PROC ( STREAM,

   3606  0 000620   200052 741300       CHECK_INTO_* STX1  ! I+1,,AUTO

     1826     3607    1         FOUND_NAME,
     1827     3608    1         CURRENT_SPEC )
     1828     3609    1         ALTRET;
     1829     3610
     1830     3611            %VD$STREAM ( NAME = STREAM,
     1831     3612            STCLASS = PARAM );
     1832     3718    2     DCL FOUND_NAME BIT(1) ALIGNED PARAM;
     1833     3719            %VD$SPEC ( NAME = CURRENT_SPEC, STCLASS = PARAM );
     1834     3733
     1835     3734
     1836     3735    2     DCL CURRENT_KEY$ PTR;
     1837     3736
     1838     3737
     1839     3738
     1840     3739    2       FOUND_NAME = %FALSE;

   3739  0 000621   200054 470500                    LDP0    @FOUND_NAME,,AUTO
         0 000622   000000 450100                    STZ     0,,PR0

PL6.E3A0      #010=VDI$CUPDATE_NAME File=VDI$COMMANDS_NON_EDITING.:VDA5TSI       FRI 07/04/97 11:32 Page:266
     1841     3740
     1842     3741    2       CALL VDA$LREAD ( STREAM,

   3741  0 000623   000010 237000 1                  LDAQ    8
         0 000624   200062 757100                    STAQ    CURRENT_KEY$+4,,AUTO
         0 000625   200010 631500                    EPPR1   NAME_LOCATION,,AUTO
         0 000626   200061 451500                    STP1    CURRENT_KEY$+3,,AUTO
         0 000627   200053 236100                    LDQ     @STREAM,,AUTO
         0 000630   200060 756100                    STQ     CURRENT_KEY$+2,,AUTO
         0 000631   200060 630500                    EPPR0   CURRENT_KEY$+2,,AUTO
         0 000632   000022 631400 xsym               EPPR1   B_VECTNIL+18
         0 000633   000000 701000 xent               TSX1    VDA$LREAD
         0 000634   000636 702000 0                  TSX2    s:3747
         0 000635   000640 710000 0                  TRA     s:3750

     1843     3742    2         NAME_LOCATION,
     1844     3743    2         0 /* Relative position = stay there */,
     1845     3744    2         %TRUE /* Read, not just position */ )
     1846     3745    2       WHENALTRETURN
     1847     3746    3         DO;

     1848     3747    3           ALTRETURN;

   3747  0 000636   200052 221300                    LDX1  ! I+1,,AUTO
         0 000637   000000 702211                    TSX2  ! 0,X1

     1849     3748    3         END;
     1850     3749
     1851     3750    2       IF NOT STREAM.CURRENT.EOF

   3750  0 000640   200053 470500                    LDP0    @STREAM,,AUTO
         0 000641   000016 236100                    LDQ     14,,PR0
         0 000642   400000 316007                    CANQ    -131072,DL
         0 000643   000675 601000 0                  TNZ     s:3771

     1852     3751    2       THEN
     1853     3752    3         DO;
PL6.E3A0      #010=VDI$CUPDATE_NAME File=VDI$COMMANDS_NON_EDITING.:VDA5TSI       FRI 07/04/97 11:32 Page:267

     1854     3753                %GETKEY ( KEY = "STREAM.CURRENT.KEY",
     1855     3754                INDX = "%LVL_LOWER - 1",
     1856     3755                PTR = CURRENT_KEY$ );

   3762  0 000644   000006 720100                    LXL0    6,,PR0
         0 000645   000002 100003                    CMPX0   2,DU
         0 000646   000653 601000 0                  TNZ     s:3762+7

   3762  0 000647   000007 471500                    LDP1    7,,PR0
         0 000650   100002 633500                    EPPR3   2,,PR1
         0 000651   200056 453500                    STP3    CURRENT_KEY$,,AUTO
         0 000652   000656 710000 0                  TRA     s:3766

   3762  0 000653   200053 236100                    LDQ     @STREAM,,AUTO
         0 000654   000007 036003                    ADLQ    7,DU
         0 000655   200056 756100                    STQ     CURRENT_KEY$,,AUTO

     1857     3765
     1858     3766    3           IF NAME_KEY.BYTES = CURRENT_KEY$ -> VD$TEXTC.BYTES

   3766  0 000656   200004 471500                    LDP1    @NAME_KEY,,AUTO
         0 000657   100000 236100                    LDQ     0,,PR1
         0 000660   000033 772000                    QRL     27
         0 000661   200056 473500                    LDP3    CURRENT_KEY$,,AUTO
         0 000662   000000 621006                    EAX1    0,QL
         0 000663   300000 236100                    LDQ     0,,PR3
         0 000664   000033 772000                    QRL     27
         0 000665   000000 622006                    EAX2    0,QL
         0 000666   040140 106540                    CMPC    fill='040'O
         0 000667   100000 200011                    ADSC9   0,,PR1                   cn=1,n=*X1
         0 000670   300000 200012                    ADSC9   0,,PR3                   cn=1,n=*X2
         0 000671   000675 601000 0                  TNZ     s:3771

     1859     3767    3           THEN
     1860     3768    3             FOUND_NAME = %TRUE;

PL6.E3A0      #010=VDI$CUPDATE_NAME File=VDI$COMMANDS_NON_EDITING.:VDA5TSI       FRI 07/04/97 11:32 Page:268
   3768  0 000672   400000 236003                    LDQ     -131072,DU
         0 000673   200054 474500                    LDP4    @FOUND_NAME,,AUTO
         0 000674   400000 756100                    STQ     0,,PR4

     1861     3769    3         END;

     1862     3770
     1863     3771    2       IF FOUND_NAME AND ADDR(CURRENT_SPEC) ~= ADDR(NIL)

   3771  0 000675   200054 471500                    LDP1    @FOUND_NAME,,AUTO
         0 000676   100000 234100                    SZN     0,,PR1
         0 000677   000727 605000 0                  TPL     s:3794
         0 000700   200055 236100                    LDQ     @CURRENT_SPEC,,AUTO
         0 000701   000001 116000 xsym               CMPQ    B_VECTNIL+1
         0 000702   000727 600000 0                  TZE     s:3794

     1864     3772    2       THEN
     1865     3773    3         DO;

     1866     3774                %COPYSPEC ( FSPEC = "STREAM.PORT$ -> VD$PORT.LEVEL.SPEC",
     1867     3775                FINDX = %LVL_LOWER,
     1868     3776                TSPEC = CURRENT_SPEC );

   3789  0 000703   000001 473500                    LDP3    1,,PR0
         0 000704   200055 474500                    LDP4    @CURRENT_SPEC,,AUTO
         0 000705   000100 100500                    MLR     fill='000'O
         0 000706   300034 000010                    ADSC9   28,,PR3                  cn=0,n=8
         0 000707   400000 000010                    ADSC9   0,,PR4                   cn=0,n=8

   3789  0 000710   000001 473500                    LDP3    1,,PR0
         0 000711   300034 720100                    LXL0    28,,PR3
         0 000712   000002 100003                    CMPX0   2,DU
         0 000713   000727 601000 0                  TNZ     s:3794

   3789  0 000714   300035 475500                    LDP5    29,,PR3
         0 000715   000001 036003                    ADLQ    1,DU
         0 000716   200061 756100                    STQ     CURRENT_KEY$+3,,AUTO
PL6.E3A0      #010=VDI$CUPDATE_NAME File=VDI$COMMANDS_NON_EDITING.:VDA5TSI       FRI 07/04/97 11:32 Page:269
         0 000717   200060 455500                    STP5    CURRENT_KEY$+2,,AUTO
         0 000720   200060 630500                    EPPR0   CURRENT_KEY$+2,,AUTO
         0 000721   000020 631400 xsym               EPPR1   B_VECTNIL+16
         0 000722   000000 701000 xent               TSX1    VDG$OCOPY
         0 000723   000725 702000 0                  TSX2    s:3790
         0 000724   000727 710000 0                  TRA     s:3794

   3790  0 000725   200052 221300                    LDX1  ! I+1,,AUTO
         0 000726   000000 702211                    TSX2  ! 0,X1

     1869     3792    3         END;

     1870     3793
     1871     3794    2       RETURN;

   3794  0 000727   200052 221300                    LDX1  ! I+1,,AUTO
         0 000730   000001 702211                    TSX2  ! 1,X1
     1872     3795
     1873     3796    2   END CHECK_INTO_INTERNAL_FILE;
     1874     3797
     1875     3798    1   END VDI$CUPDATE_NAME;

PL6.E3A0      #010=VDI$CUPDATE_NAME File=VDI$COMMANDS_NON_EDITING.:VDA5TSI       FRI 07/04/97 11:32 Page:270
--  Include file information  --

   VD_MACROS_M.:VDA5TOU  is referenced.
   B$JIT_C.:E04TOU  was found in the system file and is never referenced.
   CP_6_C.:E04TOU  was found in the system file and is never referenced.
      No diagnostics issued in procedure VDI$CUPDATE_NAME.
PL6.E3A0      #010=VDI$CUPDATE_NAME File=VDI$COMMANDS_NON_EDITING.:VDA5TSI       FRI 07/04/97 11:32 Page:271

 **** Variables and constants ****

  ****  Auto variables  ****

  ****  Scalars and arrays  ****
OctLoc.c.b A Datatyp(siz) R M Lvl/name                 OctLoc.c.b A Datatyp(siz) R M Lvl/name

    55-0-0/w PTR         r     1 @CURRENT_SPEC             54-0-0/w PTR         r     1 @FOUND_NAME
     3-0-0/w PTR         r     1 @NAME$STREAM               4-0-0/w PTR         r     1 @NAME_KEY
     6-0-0/w PTR         r     1 @NAME_SUBSCRIPT            5-0-0/w PTR         r     1 @NAME_VALUE$
    53-0-0/w PTR         r     1 @STREAM                   46-0-0/w PTR         r     1 CURRENT_DATA$
    56-0-0/w PTR         r     1 CURRENT_KEY$              *0-0-0/w STRC(72)    r     1 CURRENT_SPEC
    50-0-0/w PTR         r     1 CURR_ELEMENT$              7-0-0/w BIT         r     1 FOUND_FLAG
    *0-0-0/w BIT         r     1 FOUND_NAME                51-0-0/w SBIN        r     1 I
    *0-0-0/w STRC(864)   r     1 NAME$STREAM               21-0-0/w STRC(648)   r     1 NAME_DELETION_RANGE
    *0-0-0/w ASTR(9)     r     1 NAME_KEY                  10-0-0/w STRC(324)   r     1 NAME_LOCATION
    *0-0-0/w SBIN        r     1 NAME_SUBSCRIPT            *0-0-0/w PTR         r     1 NAME_VALUE$
    45-0-0/w PTR         r     1 NEW_CHAIN$                47-0-0/w PTR         r     1 PREV_ELEMENT$
    43-0-0/w STRC(72)    r     1 SPEC                      *0-0-0/w STRC(864)   r     1 STREAM

  ****  SYMREF variables  ****

  ****  Scalars and arrays  ****
OctLoc.c.b A Datatyp(siz) R M Lvl/name                 OctLoc.c.b A Datatyp(siz) R M Lvl/name

     0-0-0/w STRC(22644) r     1 VD_6E

  ****  BASED and DCB variables  ****

  ****  Scalars and arrays  ****
OctLoc.c.b A Datatyp(siz) R M Lvl/name                 OctLoc.c.b A Datatyp(siz) R M Lvl/name

     0-0-0/w ASTR(90)    r     1 CURR$ELEMENT               0-0-0/w ASTR(90)    r     1 CURRENT$DATA
     0-0-0/w STRC(252)   r     1 NAME$SPEC                  0-0-0/w ASTR(90)    r     1 NAME$VALUE
     0-0-0/w ASTR(90)    r     1 NEW$CHAIN                  0-0-0/w ASTR(90)    r     1 PREV$ELEMENT
     0-0-0/w STRC(90)    r     1 VD$BUFFER_HEADER           0-0-0/w STRC(1944)  r     1 VD$PORT
     0-0-0/w STRC(864)   r     1 VD$STREAM                  0-0-0/w STRC(81)    r     1 VD$STRING_HEADER
PL6.E3A0      #010=VDI$CUPDATE_NAME File=VDI$COMMANDS_NON_EDITING.:VDA5TSI       FRI 07/04/97 11:32 Page:272
     0-0-0/w ASTR(9)     r     1 VD$TEXTC                   0-0-0/w ASTR(81)    r     1 VD$TEXTC_REMOTE


   Procedure VDI$CUPDATE_NAME requires 473 words for executable code.
   Procedure VDI$CUPDATE_NAME requires 52 words of local(AUTO) storage.

    No errors detected in file VDI$COMMANDS_NON_EDITING.:VDA5TSI .
PL6.E3A0      #010=VDI$CUPDATE_NAME File=VDI$COMMANDS_NON_EDITING.:VDA5TSI       FRI 07/04/97 11:32 Page:273
          *** CROSS REFERENCE LISTING ***
**     DENOTES     IDENTIFIER DEFINITION
<<                 IDENTIFIER'S VALUE SET
>>                 IDENTIFIER'S VALUE USED
<>                 IDENTIFIER SET AND/OR USED
--                 IDENTIFIER REFERENCED
PL6.E3A0      #010=VDI$CUPDATE_NAME File=VDI$COMMANDS_NON_EDITING.:VDA5TSI       FRI 07/04/97 11:32 Page:274
          MINI XREF LISTING

CHECK_INTO_INTERNAL_FILE
      3606**PROC     3292--CALL     3341--CALL     3359--CALL     3377--CALL     3395--CALL
CHECK_OTHER_INTERNAL_FILES
      3324**LABEL    3351--EXIT     3369--EXIT     3387--EXIT     3405--EXIT
CURR$ELEMENT
      2808**DCL      3501<>CALL
CURR$ELEMENT.FLINK$
      2834**DCL      3480>>IF       3483<>CALL     3487>>ASSIGN   3498>>ASSIGN   3499<<ASSIGN
CURR$ELEMENT.LENGTH#
      2834**DCL      2836--IMP-SIZ  3487<<ASSIGN   3501>>CALL
CURRENT$DATA
      2750**DCL      3470<>CALL
CURRENT$DATA.LENGTH#
      2776**DCL      2778--IMP-SIZ  3470>>CALL
CURRENT_DATA$
      2555**DCL      2750--IMP-PTR  3319<<ASSIGN   3325<<ASSIGN   3459>>IF       3470>>CALL     3470>>CALL
CURRENT_KEY$ IN PROCEDURE CHECK_INTO_INTERNAL_FILE
      3735**DCL      3762<<ASSIGN   3762<<ASSIGN   3766>>IF       3766>>IF
CURRENT_SPEC IN PROCEDURE CHECK_INTO_INTERNAL_FILE
      3727**DCL      3606--PROC     3771--IF       3789<<ASSIGN
CURRENT_SPEC.V$ IN PROCEDURE CHECK_INTO_INTERNAL_FILE
      3731**DCL      3789<>CALL
CURR_ELEMENT$
      2557**DCL      2808--IMP-PTR  3477<<ASSIGN   3480>>IF       3483>>CALL     3487>>ASSIGN   3489>>ASSIGN
      3490<<ASSIGN   3498>>ASSIGN   3499>>ASSIGN   3501>>CALL     3501>>CALL
FOUND_FLAG
      2439**DCL      3292<>CALL     3304>>IF       3316>>IF       3341<>CALL     3344>>IF       3359<>CALL
      3362>>IF       3377<>CALL     3380>>IF       3395<>CALL     3398>>IF
FOUND_NAME IN PROCEDURE CHECK_INTO_INTERNAL_FILE
      3718**DCL      3606--PROC     3739<<ASSIGN   3768<<ASSIGN   3771>>IF
I
      2558**DCL      3479<<DOINDEX
PL6.E3A0      #010=VDI$CUPDATE_NAME File=VDI$COMMANDS_NON_EDITING.:VDA5TSI       FRI 07/04/97 11:32 Page:275
NAME$SPEC.DATA_TYPE#
      2604**DCL      3426<<ASSIGN   3431<<ASSIGN   3437<<ASSIGN   3441<<ASSIGN
NAME$SPEC.WINDOWABLE
      2605**DCL      3432<<ASSIGN
NAME$STREAM
      2277**DCL        46--PROC     3292<>CALL     3302--IF       3307<>CALL     3337--IF       3355--IF
      3373--IF       3391--IF       3424--IF       3428--IF       3435--IF       3439--IF       3508<>CALL
NAME$STREAM.PORT$
      2303**DCL      3319>>ASSIGN   3530>>CALL
NAME$VALUE
      2634**DCL      3311<>CALL     3508<>CALL     3518<>CALL
NAME$VALUE.FLINK$
      2660**DCL      3498<<ASSIGN
NAME$VALUE.LENGTH#
      2660**DCL      2662--IMP-SIZ  3301>>IF       3311>>CALL     3508>>CALL     3518>>CALL
NAME_DELETION_RANGE
      2478**DCL      3297<<ASSIGN   3307<>CALL     3348<>CALL     3366<>CALL     3384<>CALL     3402<>CALL
NAME_DELETION_RANGE.ENDD
      2520**DCL      3299<<ASSIGN
NAME_DELETION_RANGE.START
      2492**DCL      3298<<ASSIGN
NAME_KEY
      2384**DCL        46--PROC
NAME_KEY.BYTES
      2394**DCL      3289>>ASSIGN   3766>>IF
NAME_KEY.LENGTH#
      2392**DCL      2394--IMP-SIZ  3276>>CALL     3287>>ASSIGN   3289>>ASSIGN   3766>>IF
NAME_LOCATION
      2449**DCL      3272<<ASSIGN   3298>>ASSIGN   3299>>ASSIGN   3508<>CALL     3534<>CALL     3553<>CALL
      3741<>CALL
NAME_LOCATION.KEY.REP#
      2465**DCL      3274<<ASSIGN
NAME_LOCATION.KEY.TYPE#
      2465**DCL      3273<<ASSIGN
NAME_LOCATION.KEY.V$
      2465**DCL      3276<>CALL     3287>>ASSIGN   3289>>ASSIGN   3289>>ASSIGN
PL6.E3A0      #010=VDI$CUPDATE_NAME File=VDI$COMMANDS_NON_EDITING.:VDA5TSI       FRI 07/04/97 11:32 Page:276
NAME_SUBSCRIPT
      2400**DCL        46--PROC     3302--IF       3451--IF       3455>>IF       3457<>CALL     3479>>DOINDEX
NAME_VALUE$
      2399**DCL        46--PROC     2634--IMP-PTR  3301>>IF       3311>>CALL     3311>>CALL     3312<<ASSIGN
      3495>>ASSIGN   3497>>ASSIGN   3498>>ASSIGN   3504<<ASSIGN   3508>>CALL     3508>>CALL     3518>>CALL
      3518>>CALL     3519<<ASSIGN   3527<<ASSIGN
NEW$CHAIN.LENGTH#
      2718**DCL      2720--IMP-SIZ  3466<<ASSIGN
NEW_CHAIN$
      2554**DCL      2692--IMP-PTR  3462<>CALL     3466>>ASSIGN   3470<>CALL     3477>>ASSIGN   3495<<ASSIGN
      3504>>ASSIGN
PREV$ELEMENT.FLINK$
      2892**DCL      3490>>ASSIGN   3497<<ASSIGN
PREV$ELEMENT.LENGTH#
      2892**DCL      2894--IMP-SIZ
PREV_ELEMENT$
      2556**DCL      2866--IMP-PTR  3476<<ASSIGN   3489<<ASSIGN   3490>>ASSIGN   3493>>IF       3497>>ASSIGN
SERIOUS_ERROR
      3550**LABEL    3292--CALLALT  3307--CALLALT  3311--CALLALT  3333--CALLALT  3341--CALLALT  3348--CALLALT
      3359--CALLALT  3366--CALLALT  3377--CALLALT  3384--CALLALT  3395--CALLALT  3402--CALLALT  3462--CALLALT
      3470--CALLALT  3483--CALLALT  3501--CALLALT  3520--GOTO     3530--CALLALT
SPEC
      2548**DCL      3270<<ASSIGN   3292<>CALL     3330<<ASSIGN   3508<>CALL     3528<<ASSIGN   3551<<ASSIGN
SPEC.REP#
      2552**DCL      3332<<ASSIGN   3550>>IF
SPEC.TYPE#
      2552**DCL      3331<<ASSIGN
SPEC.V$
      2552**DCL      2577--IMP-PTR  3333<>CALL     3411>>IF       3426>>ASSIGN   3431>>ASSIGN   3432>>ASSIGN
      3437>>ASSIGN   3441>>ASSIGN   3550>>CALL     3550>>CALL
STREAM IN PROCEDURE CHECK_INTO_INTERNAL_FILE
      3620**DCL      3606--PROC     3741<>CALL
STREAM.CURRENT.EOF IN PROCEDURE CHECK_INTO_INTERNAL_FILE
      3687**DCL      3750>>IF
STREAM.CURRENT.KEY.REP# IN PROCEDURE CHECK_INTO_INTERNAL_FILE
      3685**DCL      3762>>IF
PL6.E3A0      #010=VDI$CUPDATE_NAME File=VDI$COMMANDS_NON_EDITING.:VDA5TSI       FRI 07/04/97 11:32 Page:277
STREAM.CURRENT.KEY.V$ IN PROCEDURE CHECK_INTO_INTERNAL_FILE
      3685**DCL      3762>>ASSIGN   3762--ASSIGN
STREAM.PORT$ IN PROCEDURE CHECK_INTO_INTERNAL_FILE
      3646**DCL      3789>>ASSIGN   3789>>IF       3789>>CALL     3789>>CALL
VD$BUFFER_HEADER
      2907**DCL      3462--CALL     3483--CALL
VD$PORT
      2943**DCL      3530<>CALL
VD$PORT.LEVEL.DATA$
      3030**DCL      3319>>ASSIGN
VD$PORT.LEVEL.SPEC
      3026**DCL      3789>>ASSIGN
VD$PORT.LEVEL.SPEC.REP#
      3028**DCL      3789>>IF
VD$PORT.LEVEL.SPEC.V$
      3028**DCL      3789>>CALL     3789>>CALL
VD$STREAM
      3041**DCL      3341<>CALL     3348<>CALL     3359<>CALL     3366<>CALL     3377<>CALL     3384<>CALL
      3395<>CALL     3402<>CALL
VD$STRING_HEADER
      3231**DCL      3276--CALL
VD$TEXTC.BYTES
      3157**DCL      3766>>IF
VD$TEXTC.LENGTH#
      3155**DCL      3157--IMP-SIZ  3766>>IF
VD$TEXTC_REMOTE
      3187**DCL      3550<>CALL     3789<>CALL
VD$TEXTC_REMOTE.BYTES
      3218**DCL      3289<<ASSIGN
VD$TEXTC_REMOTE.LENGTH#
      3216**DCL      3218--IMP-SIZ  3287<<ASSIGN   3289>>ASSIGN   3550>>CALL     3762--ASSIGN   3789>>CALL
VDA$LDELETE
      3260**DCL-ENT  3307--CALL     3348--CALL     3366--CALL     3384--CALL     3402--CALL
VDA$LREAD
      3261**DCL-ENT  3741--CALL
VDA$LWRITE
PL6.E3A0      #010=VDI$CUPDATE_NAME File=VDI$COMMANDS_NON_EDITING.:VDA5TSI       FRI 07/04/97 11:32 Page:278
      3262**DCL-ENT  3508--CALL
VDA$PFLUSH
      3263**DCL-ENT  3530--CALL
VDG$ESCREECH
      3264**DCL-ENT  3413--CALL     3443--CALL     3457--CALL
VDG$OALLOC
      3265**DCL-ENT  3276--CALL     3333--CALL     3462--CALL     3483--CALL
VDG$OCLEAR_LOCATION
      3267**DCL-ENT  3534--CALL     3553--CALL
VDG$OCOPY
      3266**DCL-ENT  3470--CALL     3789--CALL
VDG$OFREE
      3268**DCL-ENT  3311--CALL     3501--CALL     3518--CALL     3550--CALL
VD_6E.EQUALS$
      2415**DCL      3302>>IF       3337>>IF       3341>>CALL     3348>>CALL     3424>>IF
VD_6E.KEYINS$
      2415**DCL      3355>>IF       3359>>CALL     3366>>CALL     3428>>IF
VD_6E.LOCATIONS$
      2415**DCL      3373>>IF       3377>>CALL     3384>>CALL     3435>>IF
VD_6E.SYNONYMS$
      2415**DCL      3391>>IF       3395>>CALL     3402>>CALL     3439>>IF
