PL6.E3A0      #004=VDI$PREAD_FILE File=VDI$PARSE.:VDA5TSI                        FRI 07/04/97 11:35 Page:406
     3147        1        /*T***********************************************************/
     3148        2        /*T*                                                         */
     3149        3        /*T* Copyright (c) Bull HN Information Systems Inc., 1997    */
     3150        4        /*T*                                                         */
     3151        5        /*T***********************************************************/
     3152        6
     3153        7        /*D* NAME: VDI$PREAD_FILE
     3154        8            PARAMETERS:
     3155        9                For VDI$PREAD_FILE_READ only:
     3156       10                MXNB_CMD_REC - Max # bytes we can return in a command record.
     3157       11                    This limit is based on the size of the buffer that
     3158       12                    XUG$GETCMD gives us to fill.
     3159       13                EOF_FLAG - Uninitialized BIT(1) ALIGNED flag.  Used only when
     3160       14                    reading or positioning.
     3161       15            INPUT:
     3162       16                VD_6E.CMD_STREAM$ - Ptr to the top VD$CMD_STREAM on the
     3163       17                    command stream stack.  This entry must contain either:
     3164       18                        .TYPE = %CS_FILE, and .FILE = fid of READ-file to be
     3165       19                            operated upon; or
     3166       20                        .TYPE = %CS_DCB, and .DCB# = DCB# to be operated upon.
     3167       21            OUTPUT:
     3168       22                From VDI$PREAD_FILE_OPEN:
     3169       23                    VD$CMD_STREAM.FILE_TYPE will be filled in from the
     3170       24                        opened file.
     3171       25                From VDI$PREAD_FILE_READ:
     3172       26                    VD$CMD_STREAM.RECORD$ will point to a VD$BUFFER
     3173       27                        containing the record read.
     3174       28                    EOF_FLAG will contain either %TRUE or %FALSE;  %TRUE if
     3175       29                        we couldn't read a record 'cause we hit EOF.
     3176       30            DESCRIPTION:
     3177       31                All calls use Fast Sequential library services.
     3178       32                VDI$PREAD_FILE_OPEN will open the READ-file.
     3179       33                VDI$PREAD_FILE_POSITION will position the READ-file
     3180       34                    to the record number specified in the top VD$CMD_STREAM.
     3181       35                VDI$PREAD_FILE_READ will read a record from the READ-file
     3182       36                VDI$PREAD_FILE_CLOSE will close the READ-file.
     3183       37        */
PL6.E3A0      #004=VDI$PREAD_FILE File=VDI$PARSE.:VDA5TSI                        FRI 07/04/97 11:35 Page:407
     3184       38
     3185       39        VDI$PREAD_FILE: PROC (MXNB_CMD_REC, EOF_FLAG) ALTRET;
     3186       40
     3187       41
     3188       42    1   DCL MXNB_CMD_REC SBIN;
     3189       43    1   DCL EOF_FLAG BIT(1) ALIGNED;
     3190       44
     3191       45
     3192       46        %INCLUDE CP_6;
     3193      127        %INCLUDE B_ERRORS_C;
     3194     1253        %INCLUDE CP_6_SUBS;
     3195     1793        %INCLUDE VD_MACROS_M;
     3196     4008        %INCLUDE VD_PERR_C;
     3197     4156        %INCLUDE XS_MACRO_C;
     3198     4200
     3199     4201
     3200     4202    1   DCL VDG$OALLOC          ENTRY (3) ALTRET;
     3201     4203    1   DCL VDG$OFREE           ENTRY (1) ALTRET;
     3202     4204        %XSA_ENTRIES;
     3203     4208
     3204     4209
     3205     4210    1   DCL M$EI DCB;
     3206     4211        %VD_6E (NAME=VD_6E, STCLASS=SYMREF);
     3207     4247    1   DCL B$TCB$ PTR SYMREF;
     3208     4248
     3209     4249
     3210     4250
     3211     4251        %FPT_FID (FPTN=FILE_FID, ACCT=FILE_ACCT, ASN=FILE_OPEN.V.ASN#,
     3212     4252            NAME=FILE_NAME, PASS=FILE_PASS, RES=FILE_OPEN.V.RES#,
     3213     4253            SN=FILE_SN, WSN=FILE_WSN);
     3214     4276        %FPT_OPEN (FPTN=FILE_OPEN, FUN=IN, SHARE=IN, ACS=SEQUEN);
     3215     4385        %VLP_ACCT (FPTN=FILE_ACCT);
     3216     4398        %VLP_NAME (FPTN=FILE_NAME);
     3217     4425        %VLP_PASS (FPTN=FILE_PASS);
     3218     4438        %VLP_SN (FPTN=FILE_SN, N=%MX_SERIAL_NUMS);
     3219     4451        %VLP_WSN (FPTN=FILE_WSN);
     3220     4464
PL6.E3A0      #004=VDI$PREAD_FILE File=VDI$PARSE.:VDA5TSI                        FRI 07/04/97 11:35 Page:408
     3221     4465        %XSA_PARAM;
     3222     4495
     3223     4496        %FPT_PRECORD (FPTN=FILE_POSITION);
     3224     4517
     3225     4518        %FPT_READ (FPTN=FILE_READ);
     3226     4557
     3227     4558        %FPT_CLOSE (FPTN=FILE_CLOSE);
     3228     4600
     3229     4601
     3230     4602
     3231     4603    1   DCL VD_BUFFER$ PTR;
     3232     4604    1   DCL NB_BUFFER SBIN;
     3233     4605    1   DCL TOTAL_ARS SBIN;
     3234     4606    1   DCL PREV_BUFFER$ PTR;
     3235     4607    1   DCL VD_ERR$ PTR;
     3236     4608
     3237     4609
     3238     4610        %VD$CMD_STREAM (NAME=CMD$STREAM, STCLASS="BASED(VD_6E.CMD_STREAM$)");
     3239     4649        %VD$BUFFER (NAME=VD$BUFFER, STCLASS="BASED(VD_BUFFER$)");
     3240     4707        %VD$ERR (NAME=VD$ERR, STCLASS="BASED(VD_ERR$)");
     3241     4760        %VD$IT_COMMAND;
     3242     4798        %VD$BUFFER_HEADER;
     3243     4834        %F$DCB;
     3244     4891        %B$TCB;
     3245     4894        %B$ALT;
     3246     4902
     3247     4903
     3248     4904        %BOX (TITLE="VDI$PREAD_FILE_OPEN");

              4916    1   /***************************************************************************
              4918    1    *                                                                         *
              4922    1            *                            VDI$PREAD_FILE_OPEN                          *
              4924    1            *                                                                         *
              4926    1           ***************************************************************************/

     3249     4930
     3250     4931        /*D* NAME: VDI$PREAD_FILE_OPEN
PL6.E3A0      #004=VDI$PREAD_FILE File=VDI$PARSE.:VDA5TSI                        FRI 07/04/97 11:35 Page:409
     3251     4932            PARAMETERS:
     3252     4933                None.
     3253     4934            INPUT:
     3254     4935                VD_6E.CMD_STREAM$ as described above.
     3255     4936                XSA_PARAM must be initialized.  It may already have
     3256     4937                    data and key buffers allocated for it -- or it may not.
     3257     4938            OUTPUT:
     3258     4939                VD$CMD_STREAM.FILE_TYPE will be set from the file's type.
     3259     4940            DESCRIPTION:
     3260     4941                The fid from the top command-stream stack entry is used to open
     3261     4942                the file.  No other file should be open on M$EI or the given
     3262     4943                DCB at entry.
     3263     4944        */
     3264     4945
     3265     4946    1   VDI$PREAD_FILE_OPEN: ENTRY ALTRET;
     3266     4947
     3267     4948
     3268     4949    2           IF CMD$STREAM.TYPE# = %CS_FILE THEN DO;
     3269     4950    2              FILE_FID.TEXTFID_ = VECTOR (SUBSTR (CMD$STREAM.FILE.BYTES, 0,
     3270     4951    2                CMD$STREAM.FILE.LENGTH#));
     3271     4952    2              CALL M$FID (FILE_FID)
     3272     4953    3              WHENALTRETURN DO;
     3273     4954    3                 XSA_PARAM.ERR = B$TCB$->B$TCB.ALT$->B$ALT.ERR;
     3274     4955    3                 GOTO FID_FAILED;
     3275     4956    3                 END;
     3276     4957    2              FILE_OPEN.V.DCB# = DCBNUM(M$EI);
     3277     4958    2              FILE_OPEN.V.INITZ.SCRUB# = %TRUE;
     3278     4959    2              FILE_OPEN.ACCT_ = VECTOR(FILE_ACCT);
     3279     4960    2              FILE_OPEN.NAME_ = VECTOR(FILE_NAME);
     3280     4961    2              FILE_OPEN.PASS_ = VECTOR(FILE_PASS);
     3281     4962    2              FILE_OPEN.SN_ = VECTOR(FILE_SN);
     3282     4963    2              FILE_OPEN.WSN_ = VECTOR(FILE_WSN);
     3283     4964    2              END;
     3284     4965    2           ELSE DO;
     3285     4966    2              FILE_OPEN.V.DCB# = CMD$STREAM.DCB#;
     3286     4967    2              FILE_OPEN.V.ASN# = 0;
     3287     4968    2              FILE_OPEN.V.RES# = BINASC(0);
PL6.E3A0      #004=VDI$PREAD_FILE File=VDI$PARSE.:VDA5TSI                        FRI 07/04/97 11:35 Page:410
     3288     4969    2              FILE_OPEN.V.INITZ.SCRUB# = %FALSE;
     3289     4970    2              FILE_OPEN.ACCT_ = VECTOR(NIL);
     3290     4971    2              FILE_OPEN.NAME_ = VECTOR(NIL);
     3291     4972    2              FILE_OPEN.PASS_ = VECTOR(NIL);
     3292     4973    2              FILE_OPEN.SN_ = VECTOR(NIL);
     3293     4974    2              FILE_OPEN.WSN_ = VECTOR(NIL);
     3294     4975    2              IF NOT DCBADDR(FILE_OPEN.V.DCB#) -> F$DCB.FCD# THEN EXIT;
     3295     4976           /* If already open, presumably this is thw scratch workspace
     3296     4977              used to restore windows after an IBEX command.  Leave it open
     3297     4978              and don't use XSA */
     3298     4979    2              XSA_PARAM.ORG = 0;
     3299     4980    2              GOTO SKIP_XSA$OPEN;
     3300     4981    2              END;
     3301     4982
     3302     4983    1           CALL XSA$OPEN (FILE_OPEN, XSA_PARAM)
     3303     4984    1             ALTRET (OPEN_FAILED);
     3304     4985    1   SKIP_XSA$OPEN: ;
     3305     4986    1           CMD$STREAM.FILE_TYPE = DCBADDR(FILE_OPEN.V.DCB#)->F$DCB.TYPE#;
     3306     4987
     3307     4988    2           IF XSA_PARAM.ORG ~= 0 THEN DO;
     3308     4989                   /* File ok for FSA:  allocate buffers */
     3309     4990    3              IF XSA_PARAM.BBUF_.BUF$ = ADDR(NIL) THEN DO;
     3310     4991    3                 CALL VDG$OALLOC (%CLS_BUFFER, VD_BUFFER$,
     3311     4992    3                   SIZEW(VD$BUFFER_HEADER) + %NW_FSA_DATA_BUFFER)
     3312     4993    3                   ALTRET (OALLOC_FAILED);
     3313     4994    3                 XSA_PARAM.BBUF_.BUF$ = PINCRW(VD_BUFFER$,
     3314     4995    3                   SIZEW(VD$BUFFER_HEADER));
     3315     4996    3                 XSA_PARAM.BBUF_.BOUND = (%NW_FSA_DATA_BUFFER *
     3316     4997    3                   %NB_PER_WORD) - 1;
     3317     4998    3                 END;
     3318     4999    2              IF (XSA_PARAM.ORG = %KEYED# OR XSA_PARAM.ORG = %INDEXED#)
     3319     5000    3                AND XSA_PARAM.KBUF_.BUF$ = ADDR(NIL) THEN DO;
     3320     5001                      /* Allocate key-granule buffer */
     3321     5002    3                 CALL VDG$OALLOC (%CLS_BUFFER, VD_BUFFER$,
     3322     5003    3                   SIZEW(VD$BUFFER_HEADER) + %NW_FSA_KEY_BUFFER)
     3323     5004    3                   ALTRET (OALLOC_FAILED);
     3324     5005    3                 XSA_PARAM.KBUF_.BUF$ = PINCRW(VD_BUFFER$,
PL6.E3A0      #004=VDI$PREAD_FILE File=VDI$PARSE.:VDA5TSI                        FRI 07/04/97 11:35 Page:411
     3325     5006    3                   SIZEW(VD$BUFFER_HEADER));
     3326     5007    3                 XSA_PARAM.KBUF_.BOUND = (%NW_FSA_KEY_BUFFER *
     3327     5008    3                   %NB_PER_WORD) - 1;
     3328     5009    3                 END;
     3329     5010    2              END;
     3330     5011
     3331     5012    1           RETURN;
     3332     5013
     3333     5014
     3334     5015                %BOX (TITLE="VDI$PREAD_FILE_POSITION", PAGE=YES);
              5023    1
              5027    1   /***************************************************************************
              5029    1    *                                                                         *
              5033    1            *                          VDI$PREAD_FILE_POSITION                        *
              5035    1            *                                                                         *
              5037    1           ***************************************************************************/

     3335     5041
     3336     5042        /*D* NAME: VDI$PREAD_FILE_POSITION
     3337     5043            PARAMETERS:
     3338     5044                None.
     3339     5045            INPUT:
     3340     5046                VD_6E.CMD_STREAM$ as described above.
     3341     5047                XSA_PARAM must be open with all buffers allocated.
     3342     5048                The DCB must have just been opened before VDI$PREAD_FILE_POSITION
     3343     5049                    was called, so that skipping forward in the file is
     3344     5050                    equivalent to positioning to the specified record in the
     3345     5051                    file.  (Which DCB?  If CS_FILE, M$EI; else CMD$STREAM.DCB#.)
     3346     5052                VD$CMD_STREAM.REC_NUM# in top stack entry should contain the
     3347     5053                    record number of the record being processed when we
     3348     5054                    switched to the new READ-file.  We'll re-position to this
     3349     5055                    record, ready for the next call to VDI$PREAD_FILE_READ, which
     3350     5056                    will re-read the record.
     3351     5057            OUTPUT:
     3352     5058                None.
     3353     5059            DESCRIPTION:
     3354     5060                The current READ-file is positioned forward the appropriate number of
PL6.E3A0      #004=VDI$PREAD_FILE File=VDI$PARSE.:VDA5TSI                        FRI 07/04/97 11:35 Page:412
     3355     5061                records.
     3356     5062        */
     3357     5063
     3358     5064    1   VDI$PREAD_FILE_POSITION: ENTRY ALTRET;
     3359     5065
     3360     5066
     3361     5067    1           FILE_POSITION.V.N# = CMD$STREAM.REC_NUM#;
     3362     5068    1           IF FILE_POSITION.V.N# = 0 THEN
     3363     5069    1              RETURN;      /* Record to read is first in file */
     3364     5070    1           IF CMD$STREAM.TYPE# = %CS_FILE THEN
     3365     5071    1              FILE_POSITION.V.DCB# = DCBNUM(M$EI);
     3366     5072    1           ELSE
     3367     5073    1              FILE_POSITION.V.DCB# = CMD$STREAM.DCB#;
     3368     5074    1           IF DCBADDR(FILE_POSITION.V.DCB#) -> F$DCB.ASN# ~= %DEVICE# THEN
     3369     5075    1              CALL XSA$PRECORD (FILE_POSITION, XSA_PARAM)
     3370     5076    1                ALTRET (PRECORD_FAILED);
     3371     5077    1           RETURN;
     3372     5078
     3373     5079
     3374     5080                %BOX (TITLE="VDI$PREAD_FILE_READ", PAGE=YES);
              5088    1
              5092    1   /***************************************************************************
              5094    1    *                                                                         *
              5098    1            *                            VDI$PREAD_FILE_READ                          *
              5100    1            *                                                                         *
              5102    1           ***************************************************************************/

     3375     5106
     3376     5107        /*D* NAME: VDI$PREAD_FILE_READ
     3377     5108            PARAMETERS:
     3378     5109                MXNB_CMD_REC and EOF_FLAG, as described above.
     3379     5110            INPUT:
     3380     5111                VD_6E.CMD_STREAM$ as described above.
     3381     5112                XSA_PARAM must be open with all buffers allocated.  It should
     3382     5113                    be positioned, ready to read the next record.
     3383     5114            OUTPUT:
     3384     5115                Either EOF_FLAG will be set, or:
PL6.E3A0      #004=VDI$PREAD_FILE File=VDI$PARSE.:VDA5TSI                        FRI 07/04/97 11:35 Page:413
     3385     5116                    VD$CMD_STREAM.INTREE$ will be NIL (old InTree, if any, freed).
     3386     5117                    VD$CMD_STREAM.RECORD$ will point to a VD$BUFFER containing
     3387     5118                        the record read.
     3388     5119                    VD$CMD_STREAM.POSITION# may be changed; if at entry
     3389     5120                        it is > 0, then we assume we've already processed
     3390     5121                        the first .POSITION# chars of this record, so we
     3391     5122                        leave .POSITION# alone.  If, however, at entry
     3392     5123                        .POSITION# = 0, then we set it to either 0 or 1,
     3393     5124                        depending on the absence or presence, respectively,
     3394     5125                        of a VFC character in the record buffer.
     3395     5126            DESCRIPTION:
     3396     5127                A record is read from the current READ-file, at its current position.
     3397     5128        */
     3398     5129
     3399     5130    1   VDI$PREAD_FILE_READ: ENTRY (MXNB_CMD_REC, EOF_FLAG) ALTRET;
     3400     5131
     3401     5132
     3402     5133    1           EOF_FLAG = %FALSE;
     3403     5134    1           NB_BUFFER = MXNB_CMD_REC;
     3404     5135    1           TOTAL_ARS = 0;
     3405     5136    1           VD_BUFFER$ = ADDR(NIL);
     3406     5137    1           PREV_BUFFER$ = ADDR(NIL);
     3407     5138    2           IF CMD$STREAM.INTREE$ ~= ADDR(NIL) THEN DO;
     3408     5139    2              CALL VDG$OFREE (CMD$STREAM.INTREE$->VD$IT_COMMAND)
     3409     5140    2                ALTRET (OFREE_FAILED);
     3410     5141    2              CMD$STREAM.INTREE$ = ADDR(NIL);
     3411     5142    2              END;
     3412     5143
     3413     5144    2           IF CMD$STREAM.RECORD$ ~= ADDR(NIL) THEN DO;
     3414     5145    2              CALL VDG$OFREE (CMD$STREAM.RECORD$->VD$BUFFER)
     3415     5146    2                ALTRET (OFREE_FAILED);
     3416     5147    2              CMD$STREAM.RECORD$ = ADDR(NIL);
     3417     5148    2              END;
     3418     5149
     3419     5150    1           IF CMD$STREAM.TYPE# = %CS_FILE THEN
     3420     5151    1              FILE_READ.V.DCB# = DCBNUM(M$EI);
     3421     5152    1           ELSE
PL6.E3A0      #004=VDI$PREAD_FILE File=VDI$PARSE.:VDA5TSI                        FRI 07/04/97 11:35 Page:414
     3422     5153    1              FILE_READ.V.DCB# = CMD$STREAM.DCB#;
     3423     5154
     3424     5155    1   GET_COMPLETE_RECORD:
     3425     5156    2           DO WHILE VD_BUFFER$ = ADDR(NIL);
     3426     5157    2              CALL VDG$OALLOC (%CLS_BUFFER, VD_BUFFER$,
     3427     5158    2                SIZEW(VD$BUFFER_HEADER) +
     3428     5159    2                ((NB_BUFFER + %(NB_PER_WORD - 1)) / %NB_PER_WORD))
     3429     5160    2                ALTRET (OALLOC_FAILED);
     3430     5161    2              CMD$STREAM.RECORD$ = VD_BUFFER$;
     3431     5162    2              VD$BUFFER.LENGTH# = NB_BUFFER;
     3432     5163    2              FILE_READ.BUF_ = VECTOR(VD$BUFFER.BYTES);
     3433     5164                /**** XUG$GETCMD gives us a fixed-len buffer, ***************/
     3434     5165                /****     so we can't do all this             ***************/
     3435     5166                /* IF PREV_BUFFER$ ~= ADDR(NIL) THEN DO;                    */
     3436     5167                /*    \*                                                    */
     3437     5168                /*    * Doing a continued read:  copy already-read part of  */
     3438     5169                /*    *     record to new buffer, free old buffer.          */
     3439     5170                /*    *\                                                    */
     3440     5171                /*    VD$BUFFER.BYTES = PREV_BUFFER$->VD$BUFFER.BYTES;      */
     3441     5172                /*    FILE_READ.BUF_ = VECTOR(SUBSTR(VD$BUFFER.BYTES,       */
     3442     5173                /*      PREV_BUFFER$->VD$BUFFER.LENGTH#));                  */
     3443     5174                /*    CALL VDG$OFREE (PREV_BUFFER$->VD$BUFFER)              */
     3444     5175                /*      ALTRET (OFREE_FAILED);                              */
     3445     5176                /*    PREV_BUFFER$ = ADDR(NIL);                             */
     3446     5177                /*    END;                                                  */
     3447     5178
     3448     5179    2              CALL XSA$READ (FILE_READ, XSA_PARAM)
     3449     5180    3              WHENALTRETURN DO;
     3450     5181                   /**** XUG$GETCMD gives us a fixed-len buffer, ***********/
     3451     5182                   /****     so we can't do all this             ***********/
     3452     5183                   /* IF XSA_PARAM.ERR.CODE ~= %E$LD                       */
     3453     5184                   /*   OR NB_BUFFER + MXNB_CMD_REC > %MXNB_BUFFER THEN    */
     3454     5185    3                 GOTO READ_FAILED_HARD;
     3455     5186                   /* FILE_READ.V.DVBYTE.CONT# = %TRUE;                    */
     3456     5187                   /* VD$BUFFER.LENGTH# = XSA_PARAM.ARS#;                  */
     3457     5188                   /* NB_BUFFER = NB_BUFFER + MXNB_CMD_REC;                */
     3458     5189                   /* TOTAL_ARS = TOTAL_ARS + XSA_PARAM.ARS#;              */
PL6.E3A0      #004=VDI$PREAD_FILE File=VDI$PARSE.:VDA5TSI                        FRI 07/04/97 11:35 Page:415
     3459     5190                   /* PREV_BUFFER$ = VD_BUFFER$;                           */
     3460     5191                   /* VD_BUFFER$ = ADDR(NIL);                              */
     3461     5192    3                 END;
     3462     5193    2              END GET_COMPLETE_RECORD;
     3463     5194
     3464     5195    1           VD$BUFFER.LENGTH# = TOTAL_ARS + XSA_PARAM.ARS#;
     3465     5196    1           IF CMD$STREAM.POSITION# = 0 THEN
     3466     5197    1              CMD$STREAM.POSITION# = BITBIN(XSA_PARAM.DVBYTE.VFC#);
     3467     5198                %INCREMENT (INDX=%STG_READFILE_READS);
     3468     5201    1           RETURN;
     3469     5202
     3470     5203
     3471     5204    1   READ_FAILED_HARD:
     3472     5205    1           CALL VDG$OFREE (VD$BUFFER)
     3473     5206    1             ALTRET (OFREE_FAILED);
     3474     5207    1           CMD$STREAM.RECORD$ = ADDR(NIL);
     3475     5208    2           IF XSA_PARAM.ERR.CODE = %E$EOF THEN DO;
     3476     5209    2              EOF_FLAG = %TRUE;
     3477     5210    2              RETURN;
     3478     5211    2              END;
     3479     5212
     3480     5213
     3481     5214    1   FID_FAILED: ;
     3482     5215    1   OPEN_FAILED: ;
     3483     5216    1   PRECORD_FAILED: ;
     3484     5217    1   CLOSE_FAILED_HARD:
     3485     5218    1           CALL VDG$OALLOC (%CLS_ERR, VD_ERR$)
     3486     5219    1             ALTRET (OALLOC_FAILED);
     3487     5220    1           VD$ERR.ERR = XSA_PARAM.ERR;
     3488     5221    1           VD$ERR.FLAGLEV# = %FLV_SERIOUS;
     3489     5222    1           IF CMD$STREAM.TYPE# = %CS_FILE THEN
     3490     5223    1              VD$ERR.DCB# = DCBNUM(M$EI);
     3491     5224    1           ELSE
     3492     5225    1              VD$ERR.DCB# = CMD$STREAM.DCB#;
     3493     5226    1           ALTRETURN;
     3494     5227
     3495     5228
PL6.E3A0      #004=VDI$PREAD_FILE File=VDI$PARSE.:VDA5TSI                        FRI 07/04/97 11:35 Page:416
     3496     5229    1   OALLOC_FAILED: ;
     3497     5230    1   OFREE_FAILED: ;
     3498     5231    1           ALTRETURN;
     3499     5232
     3500     5233
     3501     5234                %BOX (TITLE="VDI$PREAD_FILE_CLOSE", PAGE=YES);
              5242    1
              5246    1   /***************************************************************************
              5248    1    *                                                                         *
              5252    1            *                            VDI$PREAD_FILE_CLOSE                         *
              5254    1            *                                                                         *
              5256    1           ***************************************************************************/

     3502     5260
     3503     5261        /*D* NAME: VDI$PREAD_FILE_CLOSE
     3504     5262            PARAMETERS:
     3505     5263                None.
     3506     5264            INPUT:
     3507     5265                VD_6E.CMD_STREAM$ as described above.
     3508     5266                XSA_PARAM may or may not be open.
     3509     5267            OUTPUT:
     3510     5268                None.
     3511     5269            DESCRIPTION:
     3512     5270                The current READ-file is closed.  Any buffer
     3513     5271                    associated with the VD$CMD_STREAM is freed unless in use by READ.
     3514     5272        */
     3515     5273
     3516     5274    1   VDI$PREAD_FILE_CLOSE: ENTRY ALTRET;
     3517     5275
     3518     5276
     3519     5277    1           IF CMD$STREAM.RECORD$ ~= ADDR(NIL) AND NOT CMD$STREAM.CMD_AFTER_READ
     3520     5278    2           THEN DO;
     3521     5279    2              CALL VDG$OFREE (CMD$STREAM.RECORD$->VD$BUFFER)
     3522     5280    2                ALTRET (OFREE_FAILED);
     3523     5281    2              CMD$STREAM.RECORD$ = ADDR(NIL);
     3524     5282    2              END;
     3525     5283
PL6.E3A0      #004=VDI$PREAD_FILE File=VDI$PARSE.:VDA5TSI                        FRI 07/04/97 11:35 Page:417
     3526     5284    1           IF CMD$STREAM.TYPE# = %CS_FILE THEN
     3527     5285    1              FILE_CLOSE.V.DCB# = DCBNUM(M$EI);
     3528     5286    1           ELSE
     3529     5287    1              FILE_CLOSE.V.DCB# = CMD$STREAM.DCB#;
     3530     5288
     3531     5289    2           IF DCBADDR(FILE_CLOSE.V.DCB#)->F$DCB.FCD# THEN DO;
     3532     5290    2              CALL XSA$CLOSE (FILE_CLOSE, XSA_PARAM)
     3533     5291    2                ALTRET (CLOSE_FAILED);
     3534     5292    2              END;
     3535     5293
     3536     5294    1           RETURN;
     3537     5295
     3538     5296
     3539     5297    1   CLOSE_FAILED:
     3540     5298    1           IF XSA_PARAM.ERR.CODE = %E$DCBCLOSED THEN
     3541     5299    1              RETURN;
     3542     5300    1           GOTO CLOSE_FAILED_HARD;
     3543     5301
     3544     5302    1   END VDI$PREAD_FILE;
     3545     5303        %EOD;

PL6.E3A0      #004=VDI$PREAD_FILE File=VDI$PARSE.:VDA5TSI                        FRI 07/04/97 11:35 Page:418
--  Include file information  --

   XS_MACRO_C.:LIBRARY  is referenced.
   VD_PERR_C.:VDA5TOU  is referenced.
   VD_MACROS_M.:VDA5TOU  is referenced.
   CP_6_SUBS.:LIBRARY  is referenced.
   B_ERRORS_C.:LIBRARY  is referenced.
   CP_6.:LIBRARY  cannot be made into a system file and is referenced.
   B$JIT_C.:E04TOU  was found in the system file and is never referenced.
   CP_6_C.:E04TOU  was found in the system file and is referenced.
      No diagnostics issued in procedure VDI$PREAD_FILE.

   Procedure VDI$PREAD_FILE requires 348 words for executable code.
   Procedure VDI$PREAD_FILE requires 14 words of local(AUTO) storage.

PL6.E3A0      #004=VDI$PREAD_FILE File=VDI$PARSE.:VDA5TSI                        FRI 07/04/97 11:35 Page:419

 Object Unit name= VDI$PREAD_FILE                             File name= VDI$PARSE.:VDA5TOU
 UTS= JUL 04 '97 11:35:16.08 FRI                              Compiler= PL-6/E31         Sev=      00
 SharedLib= :SHARED_SYSTEM                                    Alt SharedLib=


    ****  Control sections  ****

 Sect   Type Bound  Init  Size OctSiz  Section name(segment info)
    0   DCB   even  none     0      0  M$UC
    1   DCB   even  none     0      0  M$EI
    2   Data  even  none   178    262  VDI$PREAD_FILE
    3   Proc  even  none   348    534  VDI$PREAD_FILE
    4  RoData even  none    30     36  VDI$PREAD_FILE

    ****  Entry defs  ****

                              Check   Calling
                             calling  sequence
  Sect OctLoc Primary Altret sequence   type   Parms  Name
     3      0   yes    yes     yes      Std        2  VDI$PREAD_FILE
     3      3          yes     yes      Std        0  VDI$PREAD_FILE_OPEN
     3    203          yes     yes      Std        0  VDI$PREAD_FILE_POSITION
     3    237          yes     yes      Std        2  VDI$PREAD_FILE_READ
     3    457          yes     yes      Std        0  VDI$PREAD_FILE_CLOSE
PL6.E3A0      #004=VDI$PREAD_FILE File=VDI$PARSE.:VDA5TSI                        FRI 07/04/97 11:35 Page:420

  ****  Entry refs  ****

         Check        Calling
        calling       sequence
Altret sequence SRef   type   Args  Name
 yes     yes           Std       2 XSA$OPEN
 yes     yes           Std       3 VDG$OALLOC
 yes     yes           Std       2 XSA$PRECORD
 yes     yes           Std       1 VDG$OFREE
 yes     yes           Std       2 XSA$READ
 yes     yes           Std       2 XSA$CLOSE
                       nStd      0 X66_AUTO_2
                       Std       0 B_CONSPOOL_D
                       nStd      0 X66_ARET
                       nStd      0 X66_AALT

  ****  Data refs  ****

  Flags:  r = read only, s = secondary
Flgs Name                             Flgs Name                             Flgs Name
     M$UC                                  M$EI                                  VD_6E
     B$TCB$                                B_VECTNIL

  ****  Segment refs  ****

  Flags:  r = read only, s = secondary
Flgs Name                             Flgs Name                             Flgs Name
     ISSID                                 NULLSID                               ROSID
PL6.E3A0      #004=VDI$PREAD_FILE File=VDI$PARSE.:VDA5TSI                        FRI 07/04/97 11:35 Page:421


     3147        1        /*T***********************************************************/
     3148        2        /*T*                                                         */
     3149        3        /*T* Copyright (c) Bull HN Information Systems Inc., 1997    */
     3150        4        /*T*                                                         */
     3151        5        /*T***********************************************************/
     3152        6
     3153        7        /*D* NAME: VDI$PREAD_FILE
     3154        8            PARAMETERS:
     3155        9                For VDI$PREAD_FILE_READ only:
     3156       10                MXNB_CMD_REC - Max # bytes we can return in a command record.
     3157       11                    This limit is based on the size of the buffer that
     3158       12                    XUG$GETCMD gives us to fill.
     3159       13                EOF_FLAG - Uninitialized BIT(1) ALIGNED flag.  Used only when
     3160       14                    reading or positioning.
     3161       15            INPUT:
     3162       16                VD_6E.CMD_STREAM$ - Ptr to the top VD$CMD_STREAM on the
     3163       17                    command stream stack.  This entry must contain either:
     3164       18                        .TYPE = %CS_FILE, and .FILE = fid of READ-file to be
     3165       19                            operated upon; or
     3166       20                        .TYPE = %CS_DCB, and .DCB# = DCB# to be operated upon.
     3167       21            OUTPUT:
     3168       22                From VDI$PREAD_FILE_OPEN:
     3169       23                    VD$CMD_STREAM.FILE_TYPE will be filled in from the
     3170       24                        opened file.
     3171       25                From VDI$PREAD_FILE_READ:
     3172       26                    VD$CMD_STREAM.RECORD$ will point to a VD$BUFFER
     3173       27                        containing the record read.
     3174       28                    EOF_FLAG will contain either %TRUE or %FALSE;  %TRUE if
     3175       29                        we couldn't read a record 'cause we hit EOF.
     3176       30            DESCRIPTION:
     3177       31                All calls use Fast Sequential library services.
     3178       32                VDI$PREAD_FILE_OPEN will open the READ-file.
     3179       33                VDI$PREAD_FILE_POSITION will position the READ-file
     3180       34                    to the record number specified in the top VD$CMD_STREAM.
     3181       35                VDI$PREAD_FILE_READ will read a record from the READ-file
     3182       36                VDI$PREAD_FILE_CLOSE will close the READ-file.
PL6.E3A0      #004=VDI$PREAD_FILE File=VDI$PARSE.:VDA5TSI                        FRI 07/04/97 11:35 Page:422
     3183       37        */
     3184       38
     3185       39        VDI$PREAD_FILE: PROC (MXNB_CMD_REC, EOF_FLAG) ALTRET;

     39  3 000000   000000 700200 xent  VDI$PREAD_F* TSX0  ! X66_AUTO_2
         3 000001   000016 000002                    ZERO    14,2
         3 000002   000005 710000 3                  TRA     s:4949

     3186       40
     3187       41
     3188       42    1   DCL MXNB_CMD_REC SBIN;
     3189       43    1   DCL EOF_FLAG BIT(1) ALIGNED;
     3190       44
     3191       45
     3192       46        %INCLUDE CP_6;
     3193      127        %INCLUDE B_ERRORS_C;
     3194     1253        %INCLUDE CP_6_SUBS;
     3195     1793        %INCLUDE VD_MACROS_M;
     3196     4008        %INCLUDE VD_PERR_C;
     3197     4156        %INCLUDE XS_MACRO_C;
     3198     4200
     3199     4201
     3200     4202    1   DCL VDG$OALLOC          ENTRY (3) ALTRET;
     3201     4203    1   DCL VDG$OFREE           ENTRY (1) ALTRET;
     3202     4204        %XSA_ENTRIES;
     3203     4208
     3204     4209
     3205     4210    1   DCL M$EI DCB;
     3206     4211        %VD_6E (NAME=VD_6E, STCLASS=SYMREF);
     3207     4247    1   DCL B$TCB$ PTR SYMREF;
     3208     4248
     3209     4249
     3210     4250
     3211     4251        %FPT_FID (FPTN=FILE_FID, ACCT=FILE_ACCT, ASN=FILE_OPEN.V.ASN#,
     3212     4252            NAME=FILE_NAME, PASS=FILE_PASS, RES=FILE_OPEN.V.RES#,
     3213     4253            SN=FILE_SN, WSN=FILE_WSN);
     3214     4276        %FPT_OPEN (FPTN=FILE_OPEN, FUN=IN, SHARE=IN, ACS=SEQUEN);
PL6.E3A0      #004=VDI$PREAD_FILE File=VDI$PARSE.:VDA5TSI                        FRI 07/04/97 11:35 Page:423
     3215     4385        %VLP_ACCT (FPTN=FILE_ACCT);
     3216     4398        %VLP_NAME (FPTN=FILE_NAME);
     3217     4425        %VLP_PASS (FPTN=FILE_PASS);
     3218     4438        %VLP_SN (FPTN=FILE_SN, N=%MX_SERIAL_NUMS);
     3219     4451        %VLP_WSN (FPTN=FILE_WSN);
     3220     4464
     3221     4465        %XSA_PARAM;
     3222     4495
     3223     4496        %FPT_PRECORD (FPTN=FILE_POSITION);
     3224     4517
     3225     4518        %FPT_READ (FPTN=FILE_READ);
     3226     4557
     3227     4558        %FPT_CLOSE (FPTN=FILE_CLOSE);
     3228     4600
     3229     4601
     3230     4602
     3231     4603    1   DCL VD_BUFFER$ PTR;
     3232     4604    1   DCL NB_BUFFER SBIN;
     3233     4605    1   DCL TOTAL_ARS SBIN;
     3234     4606    1   DCL PREV_BUFFER$ PTR;
     3235     4607    1   DCL VD_ERR$ PTR;
     3236     4608
     3237     4609
     3238     4610        %VD$CMD_STREAM (NAME=CMD$STREAM, STCLASS="BASED(VD_6E.CMD_STREAM$)");
     3239     4649        %VD$BUFFER (NAME=VD$BUFFER, STCLASS="BASED(VD_BUFFER$)");
     3240     4707        %VD$ERR (NAME=VD$ERR, STCLASS="BASED(VD_ERR$)");
     3241     4760        %VD$IT_COMMAND;
     3242     4798        %VD$BUFFER_HEADER;
     3243     4834        %F$DCB;
     3244     4891        %B$TCB;
     3245     4894        %B$ALT;
     3246     4902
     3247     4903
     3248     4904        %BOX (TITLE="VDI$PREAD_FILE_OPEN");

              4916    1   /***************************************************************************
              4918    1    *                                                                         *
PL6.E3A0      #004=VDI$PREAD_FILE File=VDI$PARSE.:VDA5TSI                        FRI 07/04/97 11:35 Page:424
              4922    1            *                            VDI$PREAD_FILE_OPEN                         *
              4924    1            *                                                                        *
              4926    1          ***************************************************************************/

     3249     4930
     3250     4931        /*D* NAME: VDI$PREAD_FILE_OPEN
     3251     4932            PARAMETERS:
     3252     4933                None.
     3253     4934            INPUT:
     3254     4935                VD_6E.CMD_STREAM$ as described above.
     3255     4936                XSA_PARAM must be initialized.  It may already have
     3256     4937                    data and key buffers allocated for it -- or it may not.
     3257     4938            OUTPUT:
     3258     4939                VD$CMD_STREAM.FILE_TYPE will be set from the file's type.
     3259     4940            DESCRIPTION:
     3260     4941                The fid from the top command-stream stack entry is used to open
     3261     4942                the file.  No other file should be open on M$EI or the given
     3262     4943                DCB at entry.
     3263     4944        */
     3264     4945
     3265     4946    1   VDI$PREAD_FILE_OPEN: ENTRY ALTRET;

   4946  3 000003   000000 700200 xent  VDI$PREAD_F* TSX0  ! X66_AUTO_2
         3 000004   000016 000002                    ZERO    14,2

     3266     4947
     3267     4948
     3268     4949    2           IF CMD$STREAM.TYPE# = %CS_FILE THEN DO;

   4949  3 000005   000026 470400 xsym               LDP0    VD_6E+22
         3 000006   000002 220100                    LDX0    2,,PR0
         3 000007   000003 100003                    CMPX0   3,DU
         3 000010   000053 601000 3                  TNZ     s:4966

     3269     4950    2              FILE_FID.TEXTFID_ = VECTOR (SUBSTR (CMD$STREAM.FILE.BYTES, 0,

   4950  3 000011   000002 236100                    LDQ     2,,PR0
PL6.E3A0      #004=VDI$PREAD_FILE File=VDI$PARSE.:VDA5TSI                        FRI 07/04/97 11:35 Page:425
         3 000012   000011 772000                    QRL     9
         3 000013   000777 376007                    ANQ     511,DL
         3 000014   000064 737000                    LLS     52
         3 000015   000140 135007                    SBLA    96,DL
         3 000016   000026 236000 xsym               LDQ     VD_6E+22
         3 000017   000000 036000 4                  ADLQ    0
         3 000020   000002 757000 2                  STAQ    FILE_FID+2

     3270     4951    2                CMD$STREAM.FILE.LENGTH#));
     3271     4952    2              CALL M$FID (FILE_FID)

   4952  3 000021   000000 630400 2                  EPPR0   FILE_FID
         3 000022   420001 713400                    CLIMB   alt,+8193
         3 000023   404400 401760                    pmme    nvectors=10
         3 000024   000026 702000 3                  TSX2    s:4954
         3 000025   000033 710000 3                  TRA     s:4957

     3272     4953    3              WHENALTRETURN DO;

     3273     4954    3                 XSA_PARAM.ERR = B$TCB$->B$TCB.ALT$->B$ALT.ERR;

   4954  3 000026   000000 470400 xsym               LDP0    B$TCB$
         3 000027   000000 471500                    LDP1    0,,PR0
         3 000030   100102 236100                    LDQ     66,,PR1
         3 000031   000157 756000 2                  STQ     XSA_PARAM+1

     3274     4955    3                 GOTO FID_FAILED;

   4955  3 000032   000423 710000 3                  TRA     FID_FAILED

     3275     4956    3                 END;
     3276     4957    2              FILE_OPEN.V.DCB# = DCBNUM(M$EI);

   4957  3 000033   000000 236007 xsym               LDQ     M$EI,DL
         3 000034   000000 620006                    EAX0    0,QL
         3 000035   000074 740000 2                  STX0    FILE_OPEN+36

PL6.E3A0      #004=VDI$PREAD_FILE File=VDI$PARSE.:VDA5TSI                        FRI 07/04/97 11:35 Page:426
     3277     4958    2              FILE_OPEN.V.INITZ.SCRUB# = %TRUE;

   4958  3 000036   400000 236007                    LDQ     -131072,DL
         3 000037   000074 256000 2                  ORSQ    FILE_OPEN+36

     3278     4959    2              FILE_OPEN.ACCT_ = VECTOR(FILE_ACCT);

   4959  3 000040   000002 237000 4                  LDAQ    2
         3 000041   000054 757000 2                  STAQ    FILE_OPEN+20

     3279     4960    2              FILE_OPEN.NAME_ = VECTOR(FILE_NAME);

   4960  3 000042   000004 237000 4                  LDAQ    4
         3 000043   000036 757000 2                  STAQ    FILE_OPEN+6

     3280     4961    2              FILE_OPEN.PASS_ = VECTOR(FILE_PASS);

   4961  3 000044   000006 237000 4                  LDAQ    6
         3 000045   000040 757000 2                  STAQ    FILE_OPEN+8

     3281     4962    2              FILE_OPEN.SN_ = VECTOR(FILE_SN);

   4962  3 000046   000010 237000 4                  LDAQ    8
         3 000047   000032 757000 2                  STAQ    FILE_OPEN+2

     3282     4963    2              FILE_OPEN.WSN_ = VECTOR(FILE_WSN);

   4963  3 000050   000012 237000 4                  LDAQ    10
         3 000051   000062 757000 2                  STAQ    FILE_OPEN+26

     3283     4964    2              END;

   4964  3 000052   000106 710000 3                  TRA     s:4983

     3284     4965    2           ELSE DO;

     3285     4966    2              FILE_OPEN.V.DCB# = CMD$STREAM.DCB#;
PL6.E3A0      #004=VDI$PREAD_FILE File=VDI$PARSE.:VDA5TSI                        FRI 07/04/97 11:35 Page:427

   4966  3 000053   000024 221100                    LDX1    20,,PR0
         3 000054   000074 741000 2                  STX1    FILE_OPEN+36

     3286     4967    2              FILE_OPEN.V.ASN# = 0;

   4967  3 000055   000000 236003                    LDQ     0,DU
         3 000056   000075 552004 2                  STBQ    FILE_OPEN+37,'04'O

     3287     4968    2              FILE_OPEN.V.RES# = BINASC(0);

   4968  3 000057   000001 236000 4                  LDQ     1
         3 000060   000100 756000 2                  STQ     FILE_OPEN+40

     3288     4969    2              FILE_OPEN.V.INITZ.SCRUB# = %FALSE;

   4969  3 000061   000014 236000 4                  LDQ     12
         3 000062   000074 356000 2                  ANSQ    FILE_OPEN+36

     3289     4970    2              FILE_OPEN.ACCT_ = VECTOR(NIL);

   4970  3 000063   000016 237000 4                  LDAQ    14
         3 000064   000054 757000 2                  STAQ    FILE_OPEN+20

     3290     4971    2              FILE_OPEN.NAME_ = VECTOR(NIL);

   4971  3 000065   000016 237000 4                  LDAQ    14
         3 000066   000036 757000 2                  STAQ    FILE_OPEN+6

     3291     4972    2              FILE_OPEN.PASS_ = VECTOR(NIL);

   4972  3 000067   000016 237000 4                  LDAQ    14
         3 000070   000040 757000 2                  STAQ    FILE_OPEN+8

     3292     4973    2              FILE_OPEN.SN_ = VECTOR(NIL);

   4973  3 000071   000016 237000 4                  LDAQ    14
PL6.E3A0      #004=VDI$PREAD_FILE File=VDI$PARSE.:VDA5TSI                        FRI 07/04/97 11:35 Page:428
         3 000072   000032 757000 2                  STAQ    FILE_OPEN+2

     3293     4974    2              FILE_OPEN.WSN_ = VECTOR(NIL);

   4974  3 000073   000016 237000 4                  LDAQ    14
         3 000074   000062 757000 2                  STAQ    FILE_OPEN+26

     3294     4975    2              IF NOT DCBADDR(FILE_OPEN.V.DCB#) -> F$DCB.FCD# THEN EXIT;

   4975  3 000075   000015 471400 4                  LDP1    13
         3 000076   100000 473500                    LDP3    0,,PR1
         3 000077   300000 474511                    LDP4    0,X1,PR3
         3 000100   400031 236100                    LDQ     25,,PR4
         3 000101   020000 316007                    CANQ    8192,DL
         3 000102   000106 600000 3                  TZE     s:4983

     3295     4976           /* If already open, presumably this is thw scratch workspace
     3296     4977              used to restore windows after an IBEX command.  Leave it open
     3297     4978              and don't use XSA */
     3298     4979    2              XSA_PARAM.ORG = 0;

   4979  3 000103   000000 236003                    LDQ     0,DU
         3 000104   000172 552020 2                  STBQ    XSA_PARAM+12,'20'O

     3299     4980    2              GOTO SKIP_XSA$OPEN;

   4980  3 000105   000112 710000 3                  TRA     SKIP_XSA$OPEN

     3300     4981    2              END;
     3301     4982
     3302     4983    1           CALL XSA$OPEN (FILE_OPEN, XSA_PARAM)

   4983  3 000106   000020 630400 4                  EPPR0   16
         3 000107   000020 631400 xsym               EPPR1   B_VECTNIL+16
         3 000110   000000 701000 xent               TSX1    XSA$OPEN
         3 000111   000423 702000 3                  TSX2    FID_FAILED

PL6.E3A0      #004=VDI$PREAD_FILE File=VDI$PARSE.:VDA5TSI                        FRI 07/04/97 11:35 Page:429
     3303     4984    1             ALTRET (OPEN_FAILED);
     3304     4985    1   SKIP_XSA$OPEN: ;

   4985  3 000112                       SKIP_XSA$OP* null
     3305     4986    1           CMD$STREAM.FILE_TYPE = DCBADDR(FILE_OPEN.V.DCB#)->F$DCB.TYPE#;

   4986  3 000112   000015 470400 4                  LDP0    13
         3 000113   000000 471500                    LDP1    0,,PR0
         3 000114   000074 220000 2                  LDX0    FILE_OPEN+36
         3 000115   100000 473510                    LDP3    0,X0,PR1
         3 000116   300025 721100                    LXL1    21,,PR3
         3 000117   000026 474400 xsym               LDP4    VD_6E+22
         3 000120   400024 441100                    SXL1    20,,PR4

     3306     4987
     3307     4988    2           IF XSA_PARAM.ORG ~= 0 THEN DO;

   4988  3 000121   000172 236000 2                  LDQ     XSA_PARAM+12
         3 000122   000777 316003                    CANQ    511,DU
         3 000123   000202 600000 3                  TZE     s:5012

     3308     4989                   /* File ok for FSA:  allocate buffers */
     3309     4990    3              IF XSA_PARAM.BBUF_.BUF$ = ADDR(NIL) THEN DO;

   4990  3 000124   000163 236000 2                  LDQ     XSA_PARAM+5
         3 000125   000001 116000 xsym               CMPQ    B_VECTNIL+1
         3 000126   000150 601000 3                  TNZ     s:4999

     3310     4991    3                 CALL VDG$OALLOC (%CLS_BUFFER, VD_BUFFER$,

   4991  3 000127   000023 236000 4                  LDQ     19
         3 000130   200014 756100                    STQ     VD_ERR$+3,,AUTO
         3 000131   200005 633500                    EPPR3   VD_BUFFER$,,AUTO
         3 000132   200013 453500                    STP3    VD_ERR$+2,,AUTO
         3 000133   000024 236000 4                  LDQ     20
         3 000134   200012 756100                    STQ     VD_ERR$+1,,AUTO
         3 000135   200012 630500                    EPPR0   VD_ERR$+1,,AUTO
PL6.E3A0      #004=VDI$PREAD_FILE File=VDI$PARSE.:VDA5TSI                        FRI 07/04/97 11:35 Page:430
         3 000136   000021 631400 xsym               EPPR1   B_VECTNIL+17
         3 000137   000000 701000 xent               TSX1    VDG$OALLOC
         3 000140   000456 702000 3                  TSX2    OALLOC_FAILED

     3311     4992    3                   SIZEW(VD$BUFFER_HEADER) + %NW_FSA_DATA_BUFFER)
     3312     4993    3                   ALTRET (OALLOC_FAILED);
     3313     4994    3                 XSA_PARAM.BBUF_.BUF$ = PINCRW(VD_BUFFER$,

   4994  3 000141   200005 236100                    LDQ     VD_BUFFER$,,AUTO
         3 000142   000003 036003                    ADLQ    3,DU
         3 000143   000163 756000 2                  STQ     XSA_PARAM+5

     3314     4995    3                   SIZEW(VD$BUFFER_HEADER));
     3315     4996    3                 XSA_PARAM.BBUF_.BOUND = (%NW_FSA_DATA_BUFFER *

   4996  3 000144   000162 236000 2                  LDQ     XSA_PARAM+4
         3 000145   177777 376007                    ANQ     65535,DL
         3 000146   000025 276000 4                  ORQ     21
         3 000147   000162 756000 2                  STQ     XSA_PARAM+4

     3316     4997    3                   %NB_PER_WORD) - 1;
     3317     4998    3                 END;

     3318     4999    2              IF (XSA_PARAM.ORG = %KEYED# OR XSA_PARAM.ORG = %INDEXED#)

   4999  3 000150   000172 236000 2                  LDQ     XSA_PARAM+12
         3 000151   000777 376003                    ANQ     511,DU
         3 000152   000002 116003                    CMPQ    2,DU
         3 000153   000156 600000 3                  TZE     s:4999+6
         3 000154   000006 116003                    CMPQ    6,DU
         3 000155   000202 601000 3                  TNZ     s:5012
         3 000156   000161 236000 2                  LDQ     XSA_PARAM+3
         3 000157   000001 116000 xsym               CMPQ    B_VECTNIL+1
         3 000160   000202 601000 3                  TNZ     s:5012

     3319     5000    3                AND XSA_PARAM.KBUF_.BUF$ = ADDR(NIL) THEN DO;

PL6.E3A0      #004=VDI$PREAD_FILE File=VDI$PARSE.:VDA5TSI                        FRI 07/04/97 11:35 Page:431
     3320     5001                      /* Allocate key-granule buffer */
     3321     5002    3                 CALL VDG$OALLOC (%CLS_BUFFER, VD_BUFFER$,

   5002  3 000161   000023 236000 4                  LDQ     19
         3 000162   200014 756100                    STQ     VD_ERR$+3,,AUTO
         3 000163   200005 630500                    EPPR0   VD_BUFFER$,,AUTO
         3 000164   200013 450500                    STP0    VD_ERR$+2,,AUTO
         3 000165   000024 236000 4                  LDQ     20
         3 000166   200012 756100                    STQ     VD_ERR$+1,,AUTO
         3 000167   200012 630500                    EPPR0   VD_ERR$+1,,AUTO
         3 000170   000021 631400 xsym               EPPR1   B_VECTNIL+17
         3 000171   000000 701000 xent               TSX1    VDG$OALLOC
         3 000172   000456 702000 3                  TSX2    OALLOC_FAILED

     3322     5003    3                   SIZEW(VD$BUFFER_HEADER) + %NW_FSA_KEY_BUFFER)
     3323     5004    3                   ALTRET (OALLOC_FAILED);
     3324     5005    3                 XSA_PARAM.KBUF_.BUF$ = PINCRW(VD_BUFFER$,

   5005  3 000173   200005 236100                    LDQ     VD_BUFFER$,,AUTO
         3 000174   000003 036003                    ADLQ    3,DU
         3 000175   000161 756000 2                  STQ     XSA_PARAM+3

     3325     5006    3                   SIZEW(VD$BUFFER_HEADER));
     3326     5007    3                 XSA_PARAM.KBUF_.BOUND = (%NW_FSA_KEY_BUFFER *

   5007  3 000176   000160 236000 2                  LDQ     XSA_PARAM+2
         3 000177   177777 376007                    ANQ     65535,DL
         3 000200   000025 276000 4                  ORQ     21
         3 000201   000160 756000 2                  STQ     XSA_PARAM+2

     3327     5008    3                   %NB_PER_WORD) - 1;
     3328     5009    3                 END;

     3329     5010    2              END;

     3330     5011
     3331     5012    1           RETURN;
PL6.E3A0      #004=VDI$PREAD_FILE File=VDI$PARSE.:VDA5TSI                        FRI 07/04/97 11:35 Page:432

   5012  3 000202   000000 702200 xent               TSX2  ! X66_ARET

     3332     5013
     3333     5014
     3334     5015                %BOX (TITLE="VDI$PREAD_FILE_POSITION", PAGE=YES);
              5023    1
              5027    1   /***************************************************************************
              5029    1    *                                                                         *
              5033    1            *                          VDI$PREAD_FILE_POSITION                       *
              5035    1            *                                                                        *
              5037    1          ***************************************************************************/

     3335     5041
     3336     5042        /*D* NAME: VDI$PREAD_FILE_POSITION
     3337     5043            PARAMETERS:
     3338     5044                None.
     3339     5045            INPUT:
     3340     5046                VD_6E.CMD_STREAM$ as described above.
     3341     5047                XSA_PARAM must be open with all buffers allocated.
     3342     5048                The DCB must have just been opened before VDI$PREAD_FILE_POSITION
     3343     5049                    was called, so that skipping forward in the file is
     3344     5050                    equivalent to positioning to the specified record in the
     3345     5051                    file.  (Which DCB?  If CS_FILE, M$EI; else CMD$STREAM.DCB#.)
     3346     5052                VD$CMD_STREAM.REC_NUM# in top stack entry should contain the
     3347     5053                    record number of the record being processed when we
     3348     5054                    switched to the new READ-file.  We'll re-position to this
     3349     5055                    record, ready for the next call to VDI$PREAD_FILE_READ, which
     3350     5056                    will re-read the record.
     3351     5057            OUTPUT:
     3352     5058                None.
     3353     5059            DESCRIPTION:
     3354     5060                The current READ-file is positioned forward the appropriate number of
     3355     5061                records.
     3356     5062        */
     3357     5063
     3358     5064    1   VDI$PREAD_FILE_POSITION: ENTRY ALTRET;
PL6.E3A0      #004=VDI$PREAD_FILE File=VDI$PARSE.:VDA5TSI                        FRI 07/04/97 11:35 Page:433

   5064  3 000203   000000 700200 xent  VDI$PREAD_F* TSX0  ! X66_AUTO_2
         3 000204   000016 000002                    ZERO    14,2

     3359     5065
     3360     5066
     3361     5067    1           FILE_POSITION.V.N# = CMD$STREAM.REC_NUM#;

   5067  3 000205   000026 470400 xsym               LDP0    VD_6E+22
         3 000206   000030 235100                    LDA     24,,PR0
         3 000207   000203 755000 2                  STA     FILE_POSITION+7

     3362     5068    1           IF FILE_POSITION.V.N# = 0 THEN

   5068  3 000210   000212 601000 3                  TNZ     s:5070

     3363     5069    1              RETURN;      /* Record to read is first in file */

   5069  3 000211   000000 702200 xent               TSX2  ! X66_ARET

     3364     5070    1           IF CMD$STREAM.TYPE# = %CS_FILE THEN

   5070  3 000212   000002 220100                    LDX0    2,,PR0
         3 000213   000003 100003                    CMPX0   3,DU
         3 000214   000221 601000 3                  TNZ     s:5073

     3365     5071    1              FILE_POSITION.V.DCB# = DCBNUM(M$EI);

   5071  3 000215   000000 236007 xsym               LDQ     M$EI,DL
         3 000216   000000 621006                    EAX1    0,QL
         3 000217   000202 741000 2                  STX1    FILE_POSITION+6
         3 000220   000223 710000 3                  TRA     s:5074

     3366     5072    1           ELSE
     3367     5073    1              FILE_POSITION.V.DCB# = CMD$STREAM.DCB#;

   5073  3 000221   000024 221100                    LDX1    20,,PR0
PL6.E3A0      #004=VDI$PREAD_FILE File=VDI$PARSE.:VDA5TSI                        FRI 07/04/97 11:35 Page:434
         3 000222   000202 741000 2                  STX1    FILE_POSITION+6

     3368     5074    1           IF DCBADDR(FILE_POSITION.V.DCB#) -> F$DCB.ASN# ~= %DEVICE# THEN

   5074  3 000223   000015 471400 4                  LDP1    13
         3 000224   100000 473500                    LDP3    0,,PR1
         3 000225   300000 474511                    LDP4    0,X1,PR3
         3 000226   400032 236100                    LDQ     26,,PR4
         3 000227   777000 376007                    ANQ     -512,DL
         3 000230   003000 116007                    CMPQ    1536,DL
         3 000231   000236 600000 3                  TZE     s:5077

     3369     5075    1              CALL XSA$PRECORD (FILE_POSITION, XSA_PARAM)

   5075  3 000232   000026 630400 4                  EPPR0   22
         3 000233   000020 631400 xsym               EPPR1   B_VECTNIL+16
         3 000234   000000 701000 xent               TSX1    XSA$PRECORD
         3 000235   000423 702000 3                  TSX2    FID_FAILED

     3370     5076    1                ALTRET (PRECORD_FAILED);
     3371     5077    1           RETURN;

   5077  3 000236   000000 702200 xent               TSX2  ! X66_ARET

     3372     5078
     3373     5079
     3374     5080                %BOX (TITLE="VDI$PREAD_FILE_READ", PAGE=YES);
              5088    1
              5092    1   /***************************************************************************
              5094    1    *                                                                         *
              5098    1            *                            VDI$PREAD_FILE_READ                         *
              5100    1            *                                                                        *
              5102    1          ***************************************************************************/

     3375     5106
     3376     5107        /*D* NAME: VDI$PREAD_FILE_READ
     3377     5108            PARAMETERS:
PL6.E3A0      #004=VDI$PREAD_FILE File=VDI$PARSE.:VDA5TSI                        FRI 07/04/97 11:35 Page:435
     3378     5109                MXNB_CMD_REC and EOF_FLAG, as described above.
     3379     5110            INPUT:
     3380     5111                VD_6E.CMD_STREAM$ as described above.
     3381     5112                XSA_PARAM must be open with all buffers allocated.  It should
     3382     5113                    be positioned, ready to read the next record.
     3383     5114            OUTPUT:
     3384     5115                Either EOF_FLAG will be set, or:
     3385     5116                    VD$CMD_STREAM.INTREE$ will be NIL (old InTree, if any, freed).
     3386     5117                    VD$CMD_STREAM.RECORD$ will point to a VD$BUFFER containing
     3387     5118                        the record read.
     3388     5119                    VD$CMD_STREAM.POSITION# may be changed; if at entry
     3389     5120                        it is > 0, then we assume we've already processed
     3390     5121                        the first .POSITION# chars of this record, so we
     3391     5122                        leave .POSITION# alone.  If, however, at entry
     3392     5123                        .POSITION# = 0, then we set it to either 0 or 1,
     3393     5124                        depending on the absence or presence, respectively,
     3394     5125                        of a VFC character in the record buffer.
     3395     5126            DESCRIPTION:
     3396     5127                A record is read from the current READ-file, at its current position.
     3397     5128        */
     3398     5129
     3399     5130    1   VDI$PREAD_FILE_READ: ENTRY (MXNB_CMD_REC, EOF_FLAG) ALTRET;

   5130  3 000237   000000 700200 xent  VDI$PREAD_F* TSX0  ! X66_AUTO_2
         3 000240   000016 000002                    ZERO    14,2

     3400     5131
     3401     5132
     3402     5133    1           EOF_FLAG = %FALSE;

   5133  3 000241   200004 470500                    LDP0    @EOF_FLAG,,AUTO
         3 000242   000000 450100                    STZ     0,,PR0

     3403     5134    1           NB_BUFFER = MXNB_CMD_REC;

   5134  3 000243   200003 471500                    LDP1    @MXNB_CMD_REC,,AUTO
         3 000244   100000 235100                    LDA     0,,PR1
PL6.E3A0      #004=VDI$PREAD_FILE File=VDI$PARSE.:VDA5TSI                        FRI 07/04/97 11:35 Page:436
         3 000245   200006 755100                    STA     NB_BUFFER,,AUTO

     3404     5135    1           TOTAL_ARS = 0;

   5135  3 000246   200007 450100                    STZ     TOTAL_ARS,,AUTO

     3405     5136    1           VD_BUFFER$ = ADDR(NIL);

   5136  3 000247   000001 236000 xsym               LDQ     B_VECTNIL+1
         3 000250   200005 756100                    STQ     VD_BUFFER$,,AUTO

     3406     5137    1           PREV_BUFFER$ = ADDR(NIL);

   5137  3 000251   200010 756100                    STQ     PREV_BUFFER$,,AUTO

     3407     5138    2           IF CMD$STREAM.INTREE$ ~= ADDR(NIL) THEN DO;

   5138  3 000252   000026 473400 xsym               LDP3    VD_6E+22
         3 000253   300026 236100                    LDQ     22,,PR3
         3 000254   000001 116000 xsym               CMPQ    B_VECTNIL+1
         3 000255   000267 600000 3                  TZE     s:5144

     3408     5139    2              CALL VDG$OFREE (CMD$STREAM.INTREE$->VD$IT_COMMAND)

   5139  3 000256   300026 474500                    LDP4    22,,PR3
         3 000257   200012 454500                    STP4    VD_ERR$+1,,AUTO
         3 000260   200012 630500                    EPPR0   VD_ERR$+1,,AUTO
         3 000261   000017 631400 xsym               EPPR1   B_VECTNIL+15
         3 000262   000000 701000 xent               TSX1    VDG$OFREE
         3 000263   000456 702000 3                  TSX2    OALLOC_FAILED

     3409     5140    2                ALTRET (OFREE_FAILED);
     3410     5141    2              CMD$STREAM.INTREE$ = ADDR(NIL);

   5141  3 000264   000001 236000 xsym               LDQ     B_VECTNIL+1
         3 000265   000026 470400 xsym               LDP0    VD_6E+22
         3 000266   000026 756100                    STQ     22,,PR0
PL6.E3A0      #004=VDI$PREAD_FILE File=VDI$PARSE.:VDA5TSI                        FRI 07/04/97 11:35 Page:437

     3411     5142    2              END;

     3412     5143
     3413     5144    2           IF CMD$STREAM.RECORD$ ~= ADDR(NIL) THEN DO;

   5144  3 000267   000026 470400 xsym               LDP0    VD_6E+22
         3 000270   000025 236100                    LDQ     21,,PR0
         3 000271   000001 116000 xsym               CMPQ    B_VECTNIL+1
         3 000272   000304 600000 3                  TZE     s:5150

     3414     5145    2              CALL VDG$OFREE (CMD$STREAM.RECORD$->VD$BUFFER)

   5145  3 000273   000025 471500                    LDP1    21,,PR0
         3 000274   200012 451500                    STP1    VD_ERR$+1,,AUTO
         3 000275   200012 630500                    EPPR0   VD_ERR$+1,,AUTO
         3 000276   000017 631400 xsym               EPPR1   B_VECTNIL+15
         3 000277   000000 701000 xent               TSX1    VDG$OFREE
         3 000300   000456 702000 3                  TSX2    OALLOC_FAILED

     3415     5146    2                ALTRET (OFREE_FAILED);
     3416     5147    2              CMD$STREAM.RECORD$ = ADDR(NIL);

   5147  3 000301   000001 236000 xsym               LDQ     B_VECTNIL+1
         3 000302   000026 470400 xsym               LDP0    VD_6E+22
         3 000303   000025 756100                    STQ     21,,PR0

     3417     5148    2              END;

     3418     5149
     3419     5150    1           IF CMD$STREAM.TYPE# = %CS_FILE THEN

   5150  3 000304   000026 470400 xsym               LDP0    VD_6E+22
         3 000305   000002 220100                    LDX0    2,,PR0
         3 000306   000003 100003                    CMPX0   3,DU
         3 000307   000314 601000 3                  TNZ     s:5153

PL6.E3A0      #004=VDI$PREAD_FILE File=VDI$PARSE.:VDA5TSI                        FRI 07/04/97 11:35 Page:438
     3420     5151    1              FILE_READ.V.DCB# = DCBNUM(M$EI);

   5151  3 000310   000000 236007 xsym               LDQ     M$EI,DL
         3 000311   000000 621006                    EAX1    0,QL
         3 000312   000216 741000 2                  STX1    FILE_READ+8
         3 000313   000316 710000 3                  TRA     GET_COMPLETE_RECORD

     3421     5152    1           ELSE
     3422     5153    1              FILE_READ.V.DCB# = CMD$STREAM.DCB#;

   5153  3 000314   000024 221100                    LDX1    20,,PR0
         3 000315   000216 741000 2                  STX1    FILE_READ+8

     3423     5154
     3424     5155    1   GET_COMPLETE_RECORD:
     3425     5156    2           DO WHILE VD_BUFFER$ = ADDR(NIL);

   5156  3 000316   000362 710000 3     GET_COMPLET* TRA     s:5193

     3426     5157    2              CALL VDG$OALLOC (%CLS_BUFFER, VD_BUFFER$,

   5157  3 000317   200006 236100                    LDQ     NB_BUFFER,,AUTO
         3 000320   000003 036007                    ADLQ    3,DL
         3 000321   000004 506007                    DIV     4,DL
         3 000322   000003 036007                    ADLQ    3,DL
         3 000323   200012 756100                    STQ     VD_ERR$+1,,AUTO
         3 000324   200012 630500                    EPPR0   VD_ERR$+1,,AUTO
         3 000325   200015 450500                    STP0    VD_ERR$+4,,AUTO
         3 000326   200005 631500                    EPPR1   VD_BUFFER$,,AUTO
         3 000327   200014 451500                    STP1    VD_ERR$+3,,AUTO
         3 000330   000024 236000 4                  LDQ     20
         3 000331   200013 756100                    STQ     VD_ERR$+2,,AUTO
         3 000332   200013 630500                    EPPR0   VD_ERR$+2,,AUTO
         3 000333   000021 631400 xsym               EPPR1   B_VECTNIL+17
         3 000334   000000 701000 xent               TSX1    VDG$OALLOC
         3 000335   000456 702000 3                  TSX2    OALLOC_FAILED

PL6.E3A0      #004=VDI$PREAD_FILE File=VDI$PARSE.:VDA5TSI                        FRI 07/04/97 11:35 Page:439
     3427     5158    2                SIZEW(VD$BUFFER_HEADER) +
     3428     5159    2                ((NB_BUFFER + %(NB_PER_WORD - 1)) / %NB_PER_WORD))
     3429     5160    2                ALTRET (OALLOC_FAILED);
     3430     5161    2              CMD$STREAM.RECORD$ = VD_BUFFER$;

   5161  3 000336   200005 236100                    LDQ     VD_BUFFER$,,AUTO
         3 000337   000026 470400 xsym               LDP0    VD_6E+22
         3 000340   000025 756100                    STQ     21,,PR0

     3431     5162    2              VD$BUFFER.LENGTH# = NB_BUFFER;

   5162  3 000341   200006 720100                    LXL0    NB_BUFFER,,AUTO
         3 000342   200005 470500                    LDP0    VD_BUFFER$,,AUTO
         3 000343   000002 740100                    STX0    2,,PR0

     3432     5163    2              FILE_READ.BUF_ = VECTOR(VD$BUFFER.BYTES);

   5163  3 000344   200005 470500                    LDP0    VD_BUFFER$,,AUTO
         3 000345   000002 221100                    LDX1    2,,PR0
         3 000346   000000 635011                    EAA     0,X1
         3 000347   000002 731000                    ARS     2
         3 000350   000140 135007                    SBLA    96,DL
         3 000351   200005 236100                    LDQ     VD_BUFFER$,,AUTO
         3 000352   000030 036000 4                  ADLQ    24
         3 000353   000212 757000 2                  STAQ    FILE_READ+4

     3433     5164                /**** XUG$GETCMD gives us a fixed-len buffer, ***************/
     3434     5165                /****     so we can't do all this             ***************/
     3435     5166                /* IF PREV_BUFFER$ ~= ADDR(NIL) THEN DO;                    */
     3436     5167                /*    \*                                                    */
     3437     5168                /*    * Doing a continued read:  copy already-read part of  */
     3438     5169                /*    *     record to new buffer, free old buffer.          */
     3439     5170                /*    *\                                                    */
     3440     5171                /*    VD$BUFFER.BYTES = PREV_BUFFER$->VD$BUFFER.BYTES;      */
     3441     5172                /*    FILE_READ.BUF_ = VECTOR(SUBSTR(VD$BUFFER.BYTES,       */
     3442     5173                /*      PREV_BUFFER$->VD$BUFFER.LENGTH#));                  */
     3443     5174                /*    CALL VDG$OFREE (PREV_BUFFER$->VD$BUFFER)              */
PL6.E3A0      #004=VDI$PREAD_FILE File=VDI$PARSE.:VDA5TSI                        FRI 07/04/97 11:35 Page:440
     3444     5175                /*      ALTRET (OFREE_FAILED);                              */
     3445     5176                /*    PREV_BUFFER$ = ADDR(NIL);                             */
     3446     5177                /*    END;                                                  */
     3447     5178
     3448     5179    2              CALL XSA$READ (FILE_READ, XSA_PARAM)

   5179  3 000354   000031 630400 4                  EPPR0   25
         3 000355   000020 631400 xsym               EPPR1   B_VECTNIL+16
         3 000356   000000 701000 xent               TSX1    XSA$READ
         3 000357   000361 702000 3                  TSX2    s:5185
         3 000360   000362 710000 3                  TRA     s:5193

     3449     5180    3              WHENALTRETURN DO;

     3450     5181                   /**** XUG$GETCMD gives us a fixed-len buffer, ***********/
     3451     5182                   /****     so we can't do all this             ***********/
     3452     5183                   /* IF XSA_PARAM.ERR.CODE ~= %E$LD                       */
     3453     5184                   /*   OR NB_BUFFER + MXNB_CMD_REC > %MXNB_BUFFER THEN    */
     3454     5185    3                 GOTO READ_FAILED_HARD;

   5185  3 000361   000404 710000 3                  TRA     READ_FAILED_HARD

     3455     5186                   /* FILE_READ.V.DVBYTE.CONT# = %TRUE;                    */
     3456     5187                   /* VD$BUFFER.LENGTH# = XSA_PARAM.ARS#;                  */
     3457     5188                   /* NB_BUFFER = NB_BUFFER + MXNB_CMD_REC;                */
     3458     5189                   /* TOTAL_ARS = TOTAL_ARS + XSA_PARAM.ARS#;              */
     3459     5190                   /* PREV_BUFFER$ = VD_BUFFER$;                           */
     3460     5191                   /* VD_BUFFER$ = ADDR(NIL);                              */
     3461     5192    3                 END;
     3462     5193    2              END GET_COMPLETE_RECORD;

   5193  3 000362   200005 236100                    LDQ     VD_BUFFER$,,AUTO
         3 000363   000001 116000 xsym               CMPQ    B_VECTNIL+1
         3 000364   000317 600000 3                  TZE     s:5157

     3463     5194
     3464     5195    1           VD$BUFFER.LENGTH# = TOTAL_ARS + XSA_PARAM.ARS#;
PL6.E3A0      #004=VDI$PREAD_FILE File=VDI$PARSE.:VDA5TSI                        FRI 07/04/97 11:35 Page:441

   5195  3 000365   200007 236100                    LDQ     TOTAL_ARS,,AUTO
         3 000366   000156 036000 2                  ADLQ    XSA_PARAM
         3 000367   000000 620006                    EAX0    0,QL
         3 000370   200005 470500                    LDP0    VD_BUFFER$,,AUTO
         3 000371   000002 740100                    STX0    2,,PR0

     3465     5196    1           IF CMD$STREAM.POSITION# = 0 THEN

   5196  3 000372   000026 470400 xsym               LDP0    VD_6E+22
         3 000373   000027 220100                    LDX0    23,,PR0
         3 000374   000402 601000 3                  TNZ     s:5199

     3466     5197    1              CMD$STREAM.POSITION# = BITBIN(XSA_PARAM.DVBYTE.VFC#);

   5197  3 000375   000172 236000 2                  LDQ     XSA_PARAM+12
         3 000376   000040 772000                    QRL     32
         3 000377   000001 376007                    ANQ     1,DL
         3 000400   000000 621006                    EAX1    0,QL
         3 000401   000027 741100                    STX1    23,,PR0

     3467     5198                %INCREMENT (INDX=%STG_READFILE_READS);

   5199  3 000402   000037 054000 xsym               AOS     VD_6E+31

     3468     5201    1           RETURN;

   5201  3 000403   000000 702200 xent               TSX2  ! X66_ARET

     3469     5202
     3470     5203
     3471     5204    1   READ_FAILED_HARD:
     3472     5205    1           CALL VDG$OFREE (VD$BUFFER)

   5205  3 000404   200005 630500       READ_FAILED* EPPR0   VD_BUFFER$,,AUTO
         3 000405   000017 631400 xsym               EPPR1   B_VECTNIL+15
         3 000406   000000 701000 xent               TSX1    VDG$OFREE
PL6.E3A0      #004=VDI$PREAD_FILE File=VDI$PARSE.:VDA5TSI                        FRI 07/04/97 11:35 Page:442
         3 000407   000456 702000 3                  TSX2    OALLOC_FAILED

     3473     5206    1             ALTRET (OFREE_FAILED);
     3474     5207    1           CMD$STREAM.RECORD$ = ADDR(NIL);

   5207  3 000410   000001 236000 xsym               LDQ     B_VECTNIL+1
         3 000411   000026 470400 xsym               LDP0    VD_6E+22
         3 000412   000025 756100                    STQ     21,,PR0

     3475     5208    2           IF XSA_PARAM.ERR.CODE = %E$EOF THEN DO;

   5208  3 000413   000157 236000 2                  LDQ     XSA_PARAM+1
         3 000414   377770 376007                    ANQ     131064,DL
         3 000415   000060 116007                    CMPQ    48,DL
         3 000416   000423 601000 3                  TNZ     FID_FAILED

     3476     5209    2              EOF_FLAG = %TRUE;

   5209  3 000417   400000 236003                    LDQ     -131072,DU
         3 000420   200004 470500                    LDP0    @EOF_FLAG,,AUTO
         3 000421   000000 756100                    STQ     0,,PR0

     3477     5210    2              RETURN;

   5210  3 000422   000000 702200 xent               TSX2  ! X66_ARET

   5208  3 000423                       FID_FAILED   null
   5208  3 000423                       OPEN_FAILED  null
   5208  3 000423                       PRECORD_FAI* null
     3478     5211    2              END;
     3479     5212
     3480     5213
     3481     5214    1   FID_FAILED: ;
     3482     5215    1   OPEN_FAILED: ;
     3483     5216    1   PRECORD_FAILED: ;
     3484     5217    1   CLOSE_FAILED_HARD:
     3485     5218    1           CALL VDG$OALLOC (%CLS_ERR, VD_ERR$)
PL6.E3A0      #004=VDI$PREAD_FILE File=VDI$PARSE.:VDA5TSI                        FRI 07/04/97 11:35 Page:443

   5218  3 000423   200011 630500       CLOSE_FAILE* EPPR0   VD_ERR$,,AUTO
         3 000424   200013 450500                    STP0    VD_ERR$+2,,AUTO
         3 000425   000033 236000 4                  LDQ     27
         3 000426   200012 756100                    STQ     VD_ERR$+1,,AUTO
         3 000427   200012 630500                    EPPR0   VD_ERR$+1,,AUTO
         3 000430   000020 631400 xsym               EPPR1   B_VECTNIL+16
         3 000431   000000 701000 xent               TSX1    VDG$OALLOC
         3 000432   000456 702000 3                  TSX2    OALLOC_FAILED

     3486     5219    1             ALTRET (OALLOC_FAILED);
     3487     5220    1           VD$ERR.ERR = XSA_PARAM.ERR;

   5220  3 000433   000157 236000 2                  LDQ     XSA_PARAM+1
         3 000434   200011 470500                    LDP0    VD_ERR$,,AUTO
         3 000435   000002 756100                    STQ     2,,PR0

     3488     5221    1           VD$ERR.FLAGLEV# = %FLV_SERIOUS;

   5221  3 000436   000003 220003                    LDX0    3,DU
         3 000437   200011 470500                    LDP0    VD_ERR$,,AUTO
         3 000440   000003 740100                    STX0    3,,PR0

     3489     5222    1           IF CMD$STREAM.TYPE# = %CS_FILE THEN

   5222  3 000441   000026 470400 xsym               LDP0    VD_6E+22
         3 000442   000002 221100                    LDX1    2,,PR0
         3 000443   000003 101003                    CMPX1   3,DU
         3 000444   000452 601000 3                  TNZ     s:5225

     3490     5223    1              VD$ERR.DCB# = DCBNUM(M$EI);

   5223  3 000445   000000 236007 xsym               LDQ     M$EI,DL
         3 000446   000000 622006                    EAX2    0,QL
         3 000447   200011 471500                    LDP1    VD_ERR$,,AUTO
         3 000450   100004 742100                    STX2    4,,PR1
         3 000451   000455 710000 3                  TRA     s:5226
PL6.E3A0      #004=VDI$PREAD_FILE File=VDI$PARSE.:VDA5TSI                        FRI 07/04/97 11:35 Page:444

     3491     5224    1           ELSE
     3492     5225    1              VD$ERR.DCB# = CMD$STREAM.DCB#;

   5225  3 000452   000024 222100                    LDX2    20,,PR0
         3 000453   200011 471500                    LDP1    VD_ERR$,,AUTO
         3 000454   100004 742100                    STX2    4,,PR1

     3493     5226    1           ALTRETURN;

   5226  3 000455   000000 702200 xent               TSX2  ! X66_AALT

   5222  3 000456                       OALLOC_FAIL* null
   5222  3 000456                       OFREE_FAILED null
     3494     5227
     3495     5228
     3496     5229    1   OALLOC_FAILED: ;
     3497     5230    1   OFREE_FAILED: ;
     3498     5231    1           ALTRETURN;

   5231  3 000456   000000 702200 xent               TSX2  ! X66_AALT

     3499     5232
     3500     5233
     3501     5234                %BOX (TITLE="VDI$PREAD_FILE_CLOSE", PAGE=YES);
              5242    1
              5246    1   /***************************************************************************
              5248    1    *                                                                         *
              5252    1            *                            VDI$PREAD_FILE_CLOSE                        *
              5254    1            *                                                                        *
              5256    1          ***************************************************************************/

     3502     5260
     3503     5261        /*D* NAME: VDI$PREAD_FILE_CLOSE
     3504     5262            PARAMETERS:
     3505     5263                None.
     3506     5264            INPUT:
PL6.E3A0      #004=VDI$PREAD_FILE File=VDI$PARSE.:VDA5TSI                        FRI 07/04/97 11:35 Page:445
     3507     5265                VD_6E.CMD_STREAM$ as described above.
     3508     5266                XSA_PARAM may or may not be open.
     3509     5267            OUTPUT:
     3510     5268                None.
     3511     5269            DESCRIPTION:
     3512     5270                The current READ-file is closed.  Any buffer
     3513     5271                    associated with the VD$CMD_STREAM is freed unless in use by READ.
     3514     5272        */
     3515     5273
     3516     5274    1   VDI$PREAD_FILE_CLOSE: ENTRY ALTRET;

   5274  3 000457   000000 700200 xent  VDI$PREAD_F* TSX0  ! X66_AUTO_2
         3 000460   000016 000002                    ZERO    14,2

     3517     5275
     3518     5276
     3519     5277    1           IF CMD$STREAM.RECORD$ ~= ADDR(NIL) AND NOT CMD$STREAM.CMD_AFTER_READ

   5277  3 000461   000026 470400 xsym               LDP0    VD_6E+22
         3 000462   000025 236100                    LDQ     21,,PR0
         3 000463   000001 116000 xsym               CMPQ    B_VECTNIL+1
         3 000464   000501 600000 3                  TZE     s:5284
         3 000465   000027 236100                    LDQ     23,,PR0
         3 000466   040000 316007                    CANQ    16384,DL
         3 000467   000501 601000 3                  TNZ     s:5284

     3520     5278    2           THEN DO;

     3521     5279    2              CALL VDG$OFREE (CMD$STREAM.RECORD$->VD$BUFFER)

   5279  3 000470   000025 471500                    LDP1    21,,PR0
         3 000471   200012 451500                    STP1    VD_ERR$+1,,AUTO
         3 000472   200012 630500                    EPPR0   VD_ERR$+1,,AUTO
         3 000473   000017 631400 xsym               EPPR1   B_VECTNIL+15
         3 000474   000000 701000 xent               TSX1    VDG$OFREE
         3 000475   000456 702000 3                  TSX2    OALLOC_FAILED

PL6.E3A0      #004=VDI$PREAD_FILE File=VDI$PARSE.:VDA5TSI                        FRI 07/04/97 11:35 Page:446
     3522     5280    2                ALTRET (OFREE_FAILED);
     3523     5281    2              CMD$STREAM.RECORD$ = ADDR(NIL);

   5281  3 000476   000001 236000 xsym               LDQ     B_VECTNIL+1
         3 000477   000026 470400 xsym               LDP0    VD_6E+22
         3 000500   000025 756100                    STQ     21,,PR0

     3524     5282    2              END;

     3525     5283
     3526     5284    1           IF CMD$STREAM.TYPE# = %CS_FILE THEN

   5284  3 000501   000026 470400 xsym               LDP0    VD_6E+22
         3 000502   000002 220100                    LDX0    2,,PR0
         3 000503   000003 100003                    CMPX0   3,DU
         3 000504   000511 601000 3                  TNZ     s:5287

     3527     5285    1              FILE_CLOSE.V.DCB# = DCBNUM(M$EI);

   5285  3 000505   000000 236007 xsym               LDQ     M$EI,DL
         3 000506   000000 621006                    EAX1    0,QL
         3 000507   000256 741000 2                  STX1    FILE_CLOSE+26
         3 000510   000513 710000 3                  TRA     s:5289

     3528     5286    1           ELSE
     3529     5287    1              FILE_CLOSE.V.DCB# = CMD$STREAM.DCB#;

   5287  3 000511   000024 221100                    LDX1    20,,PR0
         3 000512   000256 741000 2                  STX1    FILE_CLOSE+26

     3530     5288
     3531     5289    2           IF DCBADDR(FILE_CLOSE.V.DCB#)->F$DCB.FCD# THEN DO;

   5289  3 000513   000015 471400 4                  LDP1    13
         3 000514   100000 473500                    LDP3    0,,PR1
         3 000515   300000 474511                    LDP4    0,X1,PR3
         3 000516   400031 236100                    LDQ     25,,PR4
PL6.E3A0      #004=VDI$PREAD_FILE File=VDI$PARSE.:VDA5TSI                        FRI 07/04/97 11:35 Page:447
         3 000517   020000 316007                    CANQ    8192,DL
         3 000520   000525 600000 3                  TZE     s:5294

     3532     5290    2              CALL XSA$CLOSE (FILE_CLOSE, XSA_PARAM)

   5290  3 000521   000034 630400 4                  EPPR0   28
         3 000522   000020 631400 xsym               EPPR1   B_VECTNIL+16
         3 000523   000000 701000 xent               TSX1    XSA$CLOSE
         3 000524   000526 702000 3                  TSX2    CLOSE_FAILED

     3533     5291    2                ALTRET (CLOSE_FAILED);
     3534     5292    2              END;

     3535     5293
     3536     5294    1           RETURN;

   5294  3 000525   000000 702200 xent               TSX2  ! X66_ARET

     3537     5295
     3538     5296
     3539     5297    1   CLOSE_FAILED:
     3540     5298    1           IF XSA_PARAM.ERR.CODE = %E$DCBCLOSED THEN

   5298  3 000526   000157 236000 2     CLOSE_FAILED LDQ     XSA_PARAM+1
         3 000527   377770 376007                    ANQ     131064,DL
         3 000530   002260 116007                    CMPQ    1200,DL
         3 000531   000533 601000 3                  TNZ     s:5300

     3541     5299    1              RETURN;

   5299  3 000532   000000 702200 xent               TSX2  ! X66_ARET

     3542     5300    1           GOTO CLOSE_FAILED_HARD;

   5300  3 000533   000423 710000 3                  TRA     FID_FAILED
     3543     5301
     3544     5302    1   END VDI$PREAD_FILE;
PL6.E3A0      #004=VDI$PREAD_FILE File=VDI$PARSE.:VDA5TSI                        FRI 07/04/97 11:35 Page:448
     3545     5303        %EOD;

PL6.E3A0      #004=VDI$PREAD_FILE File=VDI$PARSE.:VDA5TSI                        FRI 07/04/97 11:35 Page:449
--  Include file information  --

   XS_MACRO_C.:LIBRARY  is referenced.
   VD_PERR_C.:VDA5TOU  is referenced.
   VD_MACROS_M.:VDA5TOU  is referenced.
   CP_6_SUBS.:LIBRARY  is referenced.
   B_ERRORS_C.:LIBRARY  is referenced.
   CP_6.:LIBRARY  cannot be made into a system file and is referenced.
   B$JIT_C.:E04TOU  was found in the system file and is never referenced.
   CP_6_C.:E04TOU  was found in the system file and is referenced.
      No diagnostics issued in procedure VDI$PREAD_FILE.
PL6.E3A0      #004=VDI$PREAD_FILE File=VDI$PARSE.:VDA5TSI                        FRI 07/04/97 11:35 Page:450

 **** Variables and constants ****

  ****  Section 002  Data  VDI$PREAD_FILE

  ****  Scalars and arrays  ****
OctLoc.c.b A Datatyp(siz) R M Lvl/name                 OctLoc.c.b A Datatyp(siz) R M Lvl/name

   122-0-0/c STRC(72)    r     1 FILE_ACCT                224-0-0/d STRC(1080)  r     1 FILE_CLOSE
     0-0-0/d STRC(864)   r     1 FILE_FID                 124-0-0/c STRC(288)   r     1 FILE_NAME
    30-0-0/d STRC(2088)  r     1 FILE_OPEN                134-0-0/c STRC(72)    r     1 FILE_PASS
   174-0-0/d STRC(360)   r     1 FILE_POSITION            206-0-0/d STRC(504)   r     1 FILE_READ
   136-0-0/d STRC(468)   r     1 FILE_SN                  154-0-0/c STRC(72)    r     1 FILE_WSN
   156-0-0/d STRC(504)   r     1 XSA_PARAM

  ****  Auto variables  ****

  ****  Scalars and arrays  ****
OctLoc.c.b A Datatyp(siz) R M Lvl/name                 OctLoc.c.b A Datatyp(siz) R M Lvl/name

     4-0-0/w PTR         r     1 @EOF_FLAG                  3-0-0/w PTR         r     1 @MXNB_CMD_REC
    *0-0-0/w BIT         r     1 EOF_FLAG                  *0-0-0/w SBIN        r     1 MXNB_CMD_REC
     6-0-0/w SBIN        r     1 NB_BUFFER                 10-0-0/w PTR         r     1 PREV_BUFFER$
     7-0-0/w SBIN        r     1 TOTAL_ARS                  5-0-0/w PTR         r     1 VD_BUFFER$
    11-0-0/w PTR         r     1 VD_ERR$

  ****  SYMREF variables  ****

  ****  Scalars and arrays  ****
OctLoc.c.b A Datatyp(siz) R M Lvl/name                 OctLoc.c.b A Datatyp(siz) R M Lvl/name

     0-0-0/w PTR         r     1 B$TCB$                     0-0-0/w STRC(22644) r     1 VD_6E

  ****  BASED and DCB variables  ****

  ****  Scalars and arrays  ****
OctLoc.c.b A Datatyp(siz) R M Lvl/name                 OctLoc.c.b A Datatyp(siz) R M Lvl/name

PL6.E3A0      #004=VDI$PREAD_FILE File=VDI$PARSE.:VDA5TSI                        FRI 07/04/97 11:35 Page:451
     0-0-0/w STRC(2448)  r     1 B$ALT                      0-0-0/w STRC(144)   r     1 B$TCB
     0-0-0/w STRC(900)   r     1 CMD$STREAM                 0-0-0/d ASTR(3528)  r     1 F$DCB
     0-0-0N  NULL        r     1 M$EI                       0-0-0/w ASTR(90)    r     1 VD$BUFFER
     0-0-0/w STRC(90)    r     1 VD$BUFFER_HEADER           0-0-0/w STRC(180)   r     1 VD$ERR
     0-0-0/w STRC(540)   r     1 VD$IT_COMMAND


   Procedure VDI$PREAD_FILE requires 348 words for executable code.
   Procedure VDI$PREAD_FILE requires 14 words of local(AUTO) storage.
PL6.E3A0      #004=VDI$PREAD_FILE File=VDI$PARSE.:VDA5TSI                        FRI 07/04/97 11:35 Page:452
          *** CROSS REFERENCE LISTING ***
**     DENOTES     IDENTIFIER DEFINITION
<<                 IDENTIFIER'S VALUE SET
>>                 IDENTIFIER'S VALUE USED
<>                 IDENTIFIER SET AND/OR USED
--                 IDENTIFIER REFERENCED
PL6.E3A0      #004=VDI$PREAD_FILE File=VDI$PARSE.:VDA5TSI                        FRI 07/04/97 11:35 Page:453
          MINI XREF LISTING

B$ALT.CODE
      4896**DCL      4896--REDEF    4897--REDEF    4897--REDEF
B$ALT.ERR
      4897**DCL      4954>>ASSIGN
B$ALT.ERR.ERR#
      4898**DCL      4898--REDEF
B$ALT.EVID
      4897**DCL      4897--REDEF    4897--REDEF
B$TCB.ALT$
      4892**DCL      4954>>ASSIGN
B$TCB$
      4247**DCL      4954>>ASSIGN
CLOSE_FAILED
      5298**LABEL    5290--CALLALT
CLOSE_FAILED_HARD
      5218**LABEL    5300--GOTO
CMD$STREAM.CMD_AFTER_READ
      4647**DCL      5277>>IF
CMD$STREAM.DCB#
      4645**DCL      4966>>ASSIGN   5073>>ASSIGN   5153>>ASSIGN   5225>>ASSIGN   5287>>ASSIGN
CMD$STREAM.FILE.BYTES
      4644**DCL      4950--ASSIGN
CMD$STREAM.FILE.LENGTH#
      4644**DCL      4950>>ASSIGN
CMD$STREAM.FILE_TYPE
      4645**DCL      4986<<ASSIGN
CMD$STREAM.INTREE$
      4645**DCL      5138>>IF       5139>>CALL     5141<<ASSIGN
CMD$STREAM.POSITION#
      4646**DCL      5196>>IF       5197<<ASSIGN
CMD$STREAM.RECORD$
      4645**DCL      5144>>IF       5145>>CALL     5145>>CALL     5147<<ASSIGN   5161<<ASSIGN   5207<<ASSIGN
PL6.E3A0      #004=VDI$PREAD_FILE File=VDI$PARSE.:VDA5TSI                        FRI 07/04/97 11:35 Page:454
      5277>>IF       5279>>CALL     5279>>CALL     5281<<ASSIGN
CMD$STREAM.REC_NUM#
      4647**DCL      5067>>ASSIGN
CMD$STREAM.TYPE#
      4644**DCL      4949>>IF       5070>>IF       5150>>IF       5222>>IF       5284>>IF
EOF_FLAG
        43**DCL        39--PROC     5130--ENTRY    5133<<ASSIGN   5209<<ASSIGN
F$DCB.ACTPOS
      4867**DCL      4867--REDEF
F$DCB.ARS#
      4841**DCL      4841--REDEF
F$DCB.ASN#
      4856**DCL      5074>>IF
F$DCB.ATTR
      4860**DCL      4861--REDEF
F$DCB.BORROW
      4875**DCL      4875--REDEF    4875--REDEF    4875--REDEF
F$DCB.DCBNAME.L
      4889**DCL      4889--IMP-SIZ
F$DCB.EOMCHAR#
      4845**DCL      4845--REDEF
F$DCB.FCD#
      4854**DCL      4975>>IF       5289>>IF
F$DCB.FLDID
      4870**DCL      4870--REDEF
F$DCB.FORM$
      4864**DCL      4864--REDEF
F$DCB.FSECT
      4880**DCL      4880--REDEF
F$DCB.FSN#
      4857**DCL      4857--REDEF    4857--REDEF    4858--REDEF
F$DCB.HEADER$
      4863**DCL      4863--REDEF
F$DCB.IXTNSIZE#
      4861**DCL      4861--REDEF
F$DCB.LASTSTA$
PL6.E3A0      #004=VDI$PREAD_FILE File=VDI$PARSE.:VDA5TSI                        FRI 07/04/97 11:35 Page:455
      4850**DCL      4850--REDEF
F$DCB.LVL
      4876**DCL      4876--REDEF
F$DCB.NAME#.C
      4851**DCL      4851--REDEF
F$DCB.NOEOF
      4873**DCL      4873--REDEF
F$DCB.NRECS#
      4862**DCL      4862--REDEF
F$DCB.NRECX
      4881**DCL      4881--REDEF
F$DCB.OHDR
      4873**DCL      4873--REDEF
F$DCB.ORG#
      4856**DCL      4856--REDEF
F$DCB.PRECNO
      4879**DCL      4879--REDEF
F$DCB.RCSZ
      4885**DCL      4885--REDEF
F$DCB.RES#
      4852**DCL      4852--REDEF
F$DCB.SETX
      4864**DCL      4864--REDEF
F$DCB.TAB$
      4864**DCL      4864--REDEF
F$DCB.TDA
      4878**DCL      4879--REDEF
F$DCB.TYPE#
      4852**DCL      4986>>ASSIGN
F$DCB.WSN#
      4852**DCL      4852--REDEF
FID_FAILED
      5208**LABEL    4955--GOTO
FILE_ACCT
      4396**DCL      4265--DCLINIT  4959--ASSIGN
FILE_CLOSE
PL6.E3A0      #004=VDI$PREAD_FILE File=VDI$PARSE.:VDA5TSI                        FRI 07/04/97 11:35 Page:456
      4581**DCL      5290<>CALL
FILE_CLOSE.SN_
      4581**DCL      4581--REDEF
FILE_CLOSE.UTL_
      4582**DCL      4582--REDEF
FILE_CLOSE.V
      4586**DCL      4581--DCLINIT
FILE_CLOSE.V.DCB#
      4587**DCL      5285<<ASSIGN   5287<<ASSIGN   5289--IF
FILE_CLOSE.V.EXPIRE#
      4596**DCL      4596--REDEF
FILE_CLOSE.V.TYPE#
      4594**DCL      4594--REDEF
FILE_CLOSE.V.XTNSIZE#
      4591**DCL      4591--REDEF    4593--REDEF
FILE_FID
      4264**DCL      4952<>CALL
FILE_FID.TEXTFID_
      4264**DCL      4950<<ASSIGN
FILE_FID.V
      4268**DCL      4264--DCLINIT
FILE_NAME
      4423**DCL      4265--DCLINIT  4960--ASSIGN
FILE_OPEN
      4341**DCL      4983<>CALL
FILE_OPEN.ACCT_
      4345**DCL      4959<<ASSIGN   4970<<ASSIGN
FILE_OPEN.ACSVEH_
      4343**DCL      4344--REDEF
FILE_OPEN.ALTKEYS_
      4349**DCL      4350--REDEF    4350--REDEF
FILE_OPEN.HDR_
      4348**DCL      4349--REDEF
FILE_OPEN.NAME_
      4342**DCL      4960<<ASSIGN   4971<<ASSIGN
FILE_OPEN.PASS_
PL6.E3A0      #004=VDI$PREAD_FILE File=VDI$PARSE.:VDA5TSI                        FRI 07/04/97 11:35 Page:457
      4343**DCL      4961<<ASSIGN   4972<<ASSIGN
FILE_OPEN.SN_
      4341**DCL      4962<<ASSIGN   4973<<ASSIGN
FILE_OPEN.TAB_
      4347**DCL      4348--REDEF
FILE_OPEN.UHL_
      4341**DCL      4342--REDEF    4342--REDEF
FILE_OPEN.V
      4350**DCL      4341--DCLINIT
FILE_OPEN.V.ASN#
      4360**DCL      4267--DCLINIT  4967<<ASSIGN
FILE_OPEN.V.DCB#
      4350**DCL      4957<<ASSIGN   4966<<ASSIGN   4975--IF       4986--ASSIGN
FILE_OPEN.V.FSN#
      4381**DCL      4381--REDEF    4381--REDEF
FILE_OPEN.V.INITZ.SCRUB#
      4351**DCL      4958<<ASSIGN   4969<<ASSIGN
FILE_OPEN.V.RES#
      4365**DCL      4267--DCLINIT  4968<<ASSIGN
FILE_OPEN.WSN_
      4347**DCL      4347--REDEF    4963<<ASSIGN   4974<<ASSIGN
FILE_PASS
      4436**DCL      4266--DCLINIT  4961--ASSIGN
FILE_POSITION
      4507**DCL      5075<>CALL
FILE_POSITION.V
      4509**DCL      4507--DCLINIT
FILE_POSITION.V.DCB#
      4509**DCL      5071<<ASSIGN   5073<<ASSIGN   5074--IF
FILE_POSITION.V.N#
      4513**DCL      5067<<ASSIGN   5068>>IF
FILE_READ
      4535**DCL      5179<>CALL
FILE_READ.BUF_
      4537**DCL      5163<<ASSIGN
FILE_READ.STATION_
PL6.E3A0      #004=VDI$PREAD_FILE File=VDI$PARSE.:VDA5TSI                        FRI 07/04/97 11:35 Page:458
      4538**DCL      4539--REDEF
FILE_READ.V
      4539**DCL      4535--DCLINIT
FILE_READ.V.DCB#
      4539**DCL      5151<<ASSIGN   5153<<ASSIGN
FILE_READ.V.DVBYTE.REREAD#
      4550**DCL      4550--REDEF
FILE_READ.V.INDX#
      4548**DCL      4548--REDEF
FILE_SN
      4449**DCL      4266--DCLINIT  4962--ASSIGN
FILE_WSN
      4462**DCL      4266--DCLINIT  4963--ASSIGN
M$EI
      4210**DCL      4957>>ASSIGN   5071>>ASSIGN   5151>>ASSIGN   5223>>ASSIGN   5285>>ASSIGN
M$FID
       118**DCL-ENT  4952--CALL
MXNB_CMD_REC
        42**DCL        39--PROC     5130--ENTRY    5134>>ASSIGN
NB_BUFFER
      4604**DCL      5134<<ASSIGN   5157>>CALL     5162>>ASSIGN
OALLOC_FAILED
      5222**LABEL    4991--CALLALT  5002--CALLALT  5157--CALLALT  5218--CALLALT
OFREE_FAILED
      5222**LABEL    5139--CALLALT  5145--CALLALT  5205--CALLALT  5279--CALLALT
OPEN_FAILED
      5208**LABEL    4983--CALLALT
PRECORD_FAILED
      5208**LABEL    5075--CALLALT
PREV_BUFFER$
      4606**DCL      5137<<ASSIGN
READ_FAILED_HARD
      5205**LABEL    5185--GOTO
SKIP_XSA$OPEN
      4985**LABEL    4980--GOTO
TOTAL_ARS
PL6.E3A0      #004=VDI$PREAD_FILE File=VDI$PARSE.:VDA5TSI                        FRI 07/04/97 11:35 Page:459
      4605**DCL      5135<<ASSIGN   5195>>ASSIGN
VD$BUFFER
      4674**DCL      5145<>CALL     5205<>CALL     5279<>CALL
VD$BUFFER.BYTES
      4702**DCL      5163--ASSIGN
VD$BUFFER.LENGTH#
      4700**DCL      4702--IMP-SIZ  5145>>CALL     5162<<ASSIGN   5163>>ASSIGN   5195<<ASSIGN   5205>>CALL
      5279>>CALL
VD$BUFFER_HEADER
      4806**DCL      4991--CALL     4994--ASSIGN   5002--CALL     5005--ASSIGN   5157--CALL
VD$ERR.DCB#
      4757**DCL      5223<<ASSIGN   5225<<ASSIGN
VD$ERR.ERR
      4752**DCL      5220<<ASSIGN
VD$ERR.FLAGLEV#
      4757**DCL      5221<<ASSIGN
VD$IT_COMMAND
      4768**DCL      5139<>CALL
VDG$OALLOC
      4202**DCL-ENT  4991--CALL     5002--CALL     5157--CALL     5218--CALL
VDG$OFREE
      4203**DCL-ENT  5139--CALL     5145--CALL     5205--CALL     5279--CALL
VD_6E.CMD_STREAM$
      4242**DCL      4618--IMP-PTR  4949>>IF       4950>>ASSIGN   4950>>ASSIGN   4966>>ASSIGN   4986>>ASSIGN
      5067>>ASSIGN   5070>>IF       5073>>ASSIGN   5138>>IF       5139>>CALL     5141>>ASSIGN   5144>>IF
      5145>>CALL     5145>>CALL     5147>>ASSIGN   5150>>IF       5153>>ASSIGN   5161>>ASSIGN   5196>>IF
      5197>>ASSIGN   5207>>ASSIGN   5222>>IF       5225>>ASSIGN   5277>>IF       5277>>IF       5279>>CALL
      5279>>CALL     5281>>ASSIGN   5284>>IF       5287>>ASSIGN
VD_6E.STATS#
      4244**DCL      5199<<ASSIGN   5199>>ASSIGN
VD_BUFFER$
      4603**DCL      4674--IMP-PTR  4991<>CALL     4994>>ASSIGN   5002<>CALL     5005>>ASSIGN   5136<<ASSIGN
      5156>>DOWHILE  5157<>CALL     5161>>ASSIGN   5162>>ASSIGN   5163>>ASSIGN   5163>>ASSIGN   5195>>ASSIGN
      5205>>CALL     5205>>CALL
VD_ERR$
      4607**DCL      4715--IMP-PTR  5218<>CALL     5220>>ASSIGN   5221>>ASSIGN   5223>>ASSIGN   5225>>ASSIGN
PL6.E3A0      #004=VDI$PREAD_FILE File=VDI$PARSE.:VDA5TSI                        FRI 07/04/97 11:35 Page:460
XSA$CLOSE
      4205**DCL-ENT  5290--CALL
XSA$OPEN
      4205**DCL-ENT  4983--CALL
XSA$PRECORD
      4205**DCL-ENT  5075--CALL
XSA$READ
      4205**DCL-ENT  5179--CALL
XSA_PARAM
      4473**DCL      4983<>CALL     5075<>CALL     5179<>CALL     5290<>CALL
XSA_PARAM.ARS#
      4477**DCL      5195>>ASSIGN
XSA_PARAM.BBUF_.BOUND
      4481**DCL      4996<<ASSIGN
XSA_PARAM.BBUF_.BUF$
      4482**DCL      4990>>IF       4994<<ASSIGN
XSA_PARAM.DVBYTE.VFC#
      4487**DCL      5197>>ASSIGN
XSA_PARAM.EOMCHAR#
      4489**DCL      4490--REDEF
XSA_PARAM.ERR
      4477**DCL      4954<<ASSIGN   5220>>ASSIGN
XSA_PARAM.ERR.CODE
      4478**DCL      5208>>IF       5298>>IF
XSA_PARAM.KBUF_.BOUND
      4479**DCL      5007<<ASSIGN
XSA_PARAM.KBUF_.BUF$
      4480**DCL      4999>>IF       5005<<ASSIGN
XSA_PARAM.ORG
      4488**DCL      4979<<ASSIGN   4988>>IF       4999>>IF       4999>>IF
XSA_PARAM.SIG1
      4483**DCL      4483--REDEF
XSA_PARAM.SIG2
      4483**DCL      4484--REDEF

PL6.E3A0      #005=VDI$PUSER_PARSE_RTN File=VDI$PARSE.:VDA5TSI                   FRI 07/04/97 11:35 Page:461
     3546        1        /*T***********************************************************/
     3547        2        /*T*                                                         */
     3548        3        /*T* Copyright (c) Bull HN Information Systems Inc., 1997    */
     3549        4        /*T*                                                         */
     3550        5        /*T***********************************************************/
     3551        6
     3552        7        /*D* NAME: VDI$PUSER_PARSE_RTN
     3553        8            PARAMETERS:
     3554        9                PARM - a PARSE$PARAM structure describing where
     3555       10                    X$PARSE is in the parse of the command line.
     3556       11            INPUT:
     3557       12                VD_RESERVED_TABLE$ - Array of pointers to lists of reserved
     3558       13                    words.  Each entry points to a list of words of a specific
     3559       14                    length.  The lists of words are simply CALIGNED characters,
     3560       15                    all run together; since all the words in one list are of the
     3561       16                    same length, we know where the word breaks are in the
     3562       17                    list.  The end of a list is marked by a single blank
     3563       18                    character.
     3564       19                VD_6E.EQUALS$, .LOCATIONS$, .SYNONYMS$, .KEYINS$, and
     3565       20                    .STRUCTURES$ - Pointers to open VD$STREAMs for these files.
     3566       21                VD_6E.WS.INTERNAL_DIR$ - Ptr to chain of VD$DIR_NODEs for
     3567       22                    the predefined files (Equals, Windows, etc).
     3568       23            OUTPUT:
     3569       24                PARM will be modified:  .REJECT or .ACCEPT will be set to
     3570       25                    %TRUE.
     3571       26            DESCRIPTION:
     3572       27                When X$PARSE parses a node declared with the SUCC, FAIL, or
     3573       28                    PRE options, it will call VDI$PUSER_PARSE_RTN to do any
     3574       29                    parse-twiddling necessary.
     3575       30                All SUCC nodes in the syntax are OUT$SYM nodes containing
     3576       31                    names, which must be verified in various ways.
     3577       32                    Lower-case characters in the name are converted to upper-
     3578       33                    case before looking up the name anywhere.
     3579       34                What this routine does depends on the node which X$PARSE
     3580       35                just parsed:
     3581       36
     3582       37                o T_DEF_NAME - This parse node appears when the user is
PL6.E3A0      #005=VDI$PUSER_PARSE_RTN File=VDI$PARSE.:VDA5TSI                   FRI 07/04/97 11:35 Page:462
     3583       38                        assigning a value to a name with the EQUALS, LOCATION,
     3584       39                        or SYNONYM command (for SYNONYM, only if the name
     3585       40                        isn't a special-character name).
     3586       41                    Guarantee that the name doesn't start with a digit.
     3587       42                    Guarantee that the name isn't actually a reserved word.
     3588       43                        All legal abbreviations of reserved words must have
     3589       44                        separate entries in the VD_RESERVED_TABLE$ table.
     3590       45                        Also, check the name against the level-names in the
     3591       46                        Structures file; these look and act like reserved
     3592       47                        words, but aren't in VD_RESERVED_TABLE$ and don't
     3593       48                        have separate entries for their abbreviations.
     3594       49
     3595       50                o T_LO_NAME - This parse node appears when the user has
     3596       51                        refered to a name in a block expression, and we want
     3597       52                        to see if it's a valid LOCATION-name.
     3598       53                    Guarantee that the name exists in the Locations-file.
     3599       54
     3600       55                o T_LEVEL_NAME - This parse node appears when the user has
     3601       56                        refered to a name in a block expression, and we want
     3602       57                        to see if it's a valid level name.
     3603       58        *N*         If we aren't already beyond level 1 of a structure:
     3604       59                    Search the Structures file, looking for the name
     3605       60                        as the level-1 key of some structure.
     3606       61        *N*         If we are already beyond level 1 of a structure in this
     3607       62        *N*             block expression, make sure that the name is the
     3608       63        *N*             next level key of the structure.
     3609       64                    When checking the name against a Structures-file key, also
     3610       65                        check to see if the name is an abbreviation of the
     3611       66                        Structures-file key.  This makes level-names look
     3612       67                        and act like reserved words.
     3613       68
     3614       69                o T_PREDEF_FILE_NAME - This node appears when the user has
     3615       70                        referred to a name, and we want to see if it's the
     3616       71                        name of a predefined file--or internal directory!
     3617       72                    Loop thru each of the internal directories, looking
     3618       73                        for a match of the name with both the directory name and
     3619       74                        the names of the files in the directory.  Note that the
PL6.E3A0      #005=VDI$PUSER_PARSE_RTN File=VDI$PARSE.:VDA5TSI                   FRI 07/04/97 11:35 Page:463
     3620       75                        names in the directories and files are stored internally
     3621       76                        with leading caps (mixed upper- and lower-case), so they
     3622       77                        must be converted to upper-case before comparison, too.
     3623       78                    When checking the name against an internal file or directory name,
     3624       79                        also check to see if the name is an abbreviation of the
     3625       80                        file/directory name.  This makes PREDEF_FILE_NAMEs look
     3626       81                        and act like reserved words.
     3627       82
     3628       83
     3629       84                The topography of the Structures file is confusing, so
     3630       85                here's a drawing to (hopefully) clear things up:
     3631       86
     3632       87                              STRUCTURES$L0           : Level 0 file-node of
     3633       88                                   |                  :   Structures file
     3634       89                         --------------------------. . .
     3635       90                         |                      |
     3636       91                        $L1                    $L1    : Def of diff Structures
     3637       92                         |                      |
     3638       93                  ---------------          ----------
     3639       94                  |      |      |          |        |
     3640       95                 $L2    $L2    $L2        $L2      $L2    : Def of levels of
     3641       96                 for    for    for        for      for    :   each Structure
     3642       97                lev 0  lev 1  lev 2      lev 0    lev 1
     3643       98        */
     3644       99
     3645      100        VDI$PUSER_PARSE_RTN: PROC (PARM);
     3646      101
     3647      102
     3648      103        %INCLUDE VD_MACROS_M;
     3649     2318        %INCLUDE VD_PERR_C;
     3650     2466        %INCLUDE VD_NODES0_E;
     3651     2558        %INCLUDE XU_MACRO_C;
     3652     5652        %INCLUDE XU_SUBS_C;
     3653     5744        %INCLUDE B$TABLES_C;
     3654     5852
     3655     5853
     3656     5854        %PARSE$PARAM (NAME=PARM, STCLASS="");
PL6.E3A0      #005=VDI$PUSER_PARSE_RTN File=VDI$PARSE.:VDA5TSI                   FRI 07/04/97 11:35 Page:464
     3657     5935
     3658     5936
     3659     5937
     3660     5938    1   DCL VDA$LREAD       ENTRY (4) ALTRET;
     3661     5939    1   DCL VDG$ESCREECH    ENTRY (3);
     3662     5940
     3663     5941
     3664     5942        %VD_6E (STCLASS=SYMREF);
     3665     5978        %B$XL_UPPER;
     3666     5982    1   DCL VD_RESERVED_TABLE$ (0:%MXNB_RESERVED_WORD) PTR SYMREF;
     3667     5983    1   DCL VD_STATIC_TEMP CHAR(%MXNB_NAME) ALIGNED SYMREF;
     3668     5984    1   DCL VD_FKEY_NAMES_EQUALS UBIN SYMREF;
     3669     5985    1   DCL VD_RPAREN_POS SBIN STATIC SYMDEF INIT(0);
     3670     5986
     3671     5987    1   DCL START_CPOS UBIN STATIC;
     3672     5988    1   DCL START_HI_CHAR UBIN STATIC;
     3673     5989    1   DCL START_CODE UBIN STATIC;
     3674     5990
     3675     5991
     3676     5992
     3677     5993    1   DCL OUT_SYM$ PTR;
     3678     5994    1   DCL I UBIN;
     3679     5995        %VD_TEXTC_REMOTE (NAME=USER_WORD, STCLASS=AUTO, MXNB=%MXNB_NAME);
     3680     6058    1   DCL TABLE_WORD$ PTR;
     3681     6059    1   DCL TABLE_WORD_LN UBIN;
     3682     6060        %VD$LOCATION (NAME=LO_NAME_LOC, STCLASS=AUTO);
     3683     6088    1   DCL PORT_KEY$ PTR;
     3684     6089    1   DCL STRUCTURES_L0$ PTR;
     3685     6090    1   DCL STRUCTURES_L1$ PTR;
     3686     6091    1   DCL STRUCTURES_L2$ PTR;
     3687     6092    1   DCL LEVEL_KEY$ PTR;
     3688     6093    1   DCL DIR_NODE$ PTR;
     3689     6094    1   DCL FILE_NODE$ PTR;
     3690     6095    1   DCL FILE_KEY$ PTR;
     3691     6096    1   DCL FILE_KEY CHAR(%MXNB_NAME);
     3692     6097    1   DCL SINK UBIN;
     3693     6098
PL6.E3A0      #005=VDI$PUSER_PARSE_RTN File=VDI$PARSE.:VDA5TSI                   FRI 07/04/97 11:35 Page:465
     3694     6099
     3695     6100        %P_PCB (NAME=P$PCB, STCLASS="BASED(PARM.PCB$)");
     3696     6299    1   DCL UBYT(0:0) UBIN BYTE CALIGNED BASED;
     3697     6300        %PARSE$OUT (NAME=OUT$BLK, STCLASS="BASED(PARM.OUT$)");
     3698     6345        %PARSE$SYM (NAME=OUT$SYM, STCLASS="BASED(OUT_SYM$)");
     3699     6383    1   DCL TABLE$WORD CHAR(TABLE_WORD_LN) BASED(TABLE_WORD$) CALIGNED;
     3700     6384        %VD$STREAM (NAME=EQUALS$STREAM, STCLASS="BASED(VD_6E.EQUALS$)");
     3701     6490        %VD$STREAM (NAME=LOCATIONS$STREAM, STCLASS="BASED(VD_6E.LOCATIONS$)");
     3702     6596        %VD$STREAM (NAME=SYNONYMS$STREAM, STCLASS="BASED(VD_6E.SYNONYMS$)");
     3703     6702        %VD$STREAM (NAME=KEYINS$STREAM, STCLASS="BASED(VD_6E.KEYINS$)");
     3704     6808        %VD$STREAM (NAME=STRUCTURES$STREAM, STCLASS="BASED(VD_6E.STRUCTURES$)");
     3705     6914        %VD$TEXTC (NAME=PORT$KEY, STCLASS="BASED(PORT_KEY$)");
     3706     6937        %VD$FILE_NODE (NAME=STRUCTURES$L0, STCLASS="BASED(STRUCTURES_L0$)");
     3707     7030        %VD$FILE_NODE (NAME=STRUCTURES$L1, STCLASS="BASED(STRUCTURES_L1$)");
     3708     7123        %VD$FILE_NODE (NAME=STRUCTURES$L2, STCLASS="BASED(STRUCTURES_L2$)");
     3709     7216        %VD$TEXTC (NAME=LEVEL$KEY, STCLASS="BASED(LEVEL_KEY$)");
     3710     7239        %VD$DIR_NODE (NAME=DIR$NODE, STCLASS="BASED(DIR_NODE$)");
     3711     7277        %VD$FILE_NODE (NAME=FILE$NODE, STCLASS="BASED(FILE_NODE$)");
     3712     7370        %VD$FILE_KEY;
     3713     7419        %VD$TEXTC (NAME=FILE$KEY, STCLASS="BASED(FILE_KEY$)");
     3714     7442        %VD$PORT;
     3715     7540        %VD$TEXTC_REMOTE;
     3716     7601
     3717     7602    1           IF PARM.CODE < %VD_BASE# THEN RETURN;
     3718     7603    2           IF PARM.TYPE = %PRE# THEN DO;
     3719     7604
     3720     7605    2              START_CPOS = PARM.CHARPOS;
     3721     7606    2              START_HI_CHAR = P$PCB.HI_CHAR;
     3722     7607    3              IF PARM.CODE = %T_SPECIAL_NAME THEN DO;
     3723     7608                      /* Don't list builtin function names in the alternatives */
     3724     7609    3                 IF P$PCB.NXT AND START_CPOS = START_HI_CHAR THEN
     3725     7610    3                    PARM.REJECT = %TRUE;
     3726     7611    3                 END;
     3727     7612    2              ELSE IF PARM.CODE = %T_COMMAND_LINE
     3728     7613    2                   OR START_CODE ~= %T_SHOW_CMD THEN /* Lookup LO names for SHOW */
     3729     7614    2                    START_CODE = PARM.CODE;
     3730     7615    2              VD_RPAREN_POS = 0;
PL6.E3A0      #005=VDI$PUSER_PARSE_RTN File=VDI$PARSE.:VDA5TSI                   FRI 07/04/97 11:35 Page:466
     3731     7616    2              RETURN;
     3732     7617    2              END;
     3733     7618
     3734     7619        %BOX (TITLE="Re-examine successful parse of a DEF_NAME node");

              7631    2   /***************************************************************************
              7633    2    *                                                                         *
              7637    2            *               Re-examine successful parse of a DEF_NAME node            *
              7639    2            *                                                                         *
              7641    2           ***************************************************************************/

     3735     7645
     3736     7646    1           IF PARM.TYPE ~= %SUCC# THEN RETURN;
     3737     7647
     3738     7648    2           IF PARM.CODE = %T_INVOK_CMD THEN DO;
     3739     7649                /*
     3740     7650                *    Save the ) position in the parse string, in case there's a READ
     3741     7651                *    command on the command line.  Then when we save the text while
     3742     7652                *    doing the read command, we can blank out the ).  Otherwise,
     3743     7653                *    it won't parse properly next time.
     3744     7654                */
     3745     7655    2              VD_RPAREN_POS = START_CPOS;
     3746     7656    2              RETURN;
     3747     7657    2              END;
     3748     7658
     3749     7659    1           OUT_SYM$ = OUT$BLK.SUBLK$ (0);
     3750     7660
     3751     7661    2           IF PARM.CODE = %T_FUNKEY_EXP THEN DO;
     3752     7662    2              OUT$SYM.CODE =
     3753     7663    2                OUT_SYM$->OUT$BLK.SUBLK$(0)->OUT$BLK.SUBLK$(0)->OUT$SYM.CODE+256;
     3754     7664    3              IF OUT$SYM.CODE < 514 THEN DO;
     3755     7665    3                 IF START_CODE ~= %T_KEYIN_NAME AND START_CODE ~= %T_EQUALS_CMD
     3756     7666    3                   OR OUT$BLK.CPOS > START_CPOS THEN OUT$SYM.CODE = 514;
     3757     7667    3                 GOTO ACCEPT_DEF_NAME;
     3758     7668    3                 END;
     3759     7669    2              DIR_NODE$ = OUT_SYM$->OUT$BLK.SUBLK$(0)->OUT$BLK.SUBLK$(0)->
     3760     7670    2                OUT$BLK.SUBLK$(0)->OUT$BLK.SUBLK$(0);
PL6.E3A0      #005=VDI$PUSER_PARSE_RTN File=VDI$PARSE.:VDA5TSI                   FRI 07/04/97 11:35 Page:467
     3761     7671    2              OUT$SYM.CODE = ADDR(DIR_NODE$->OUT$SYM.TEXT) -> UBYT(0);
     3762     7672    3              IF DIR_NODE$->OUT$SYM.CODE<256 THEN DO;
     3763     7673    3                 OUT$SYM.CODE = DIR_NODE$->OUT$SYM.CODE;
     3764     7674    3                 GOTO ACCEPT_DEF_NAME;
     3765     7675    3                 END;
     3766     7676    2              IF DIR_NODE$->OUT$SYM.CODE=267 THEN
     3767     7677    2                 GOTO ACCEPT_DEF_NAME;
     3768     7678    2              OUT$SYM.CODE = OUT$SYM.CODE - ASCBIN('0'); /* Cvt from hex */
     3769     7679    2              IF OUT$SYM.CODE > 9 THEN OUT$SYM.CODE = OUT$SYM.CODE-7;
     3770     7680    2              IF DIR_NODE$->OUT$SYM.COUNT = 1 THEN
     3771     7681    2                 GOTO ACCEPT_DEF_NAME;
     3772     7682    2              OUT$SYM.CODE = OUT$SYM.CODE*16 - ASCBIN('0') +
     3773     7683    2                ADDR(DIR_NODE$->OUT$SYM.TEXT) -> UBYT(1);
     3774     7684    2              IF ADDR(DIR_NODE$->OUT$SYM.TEXT) -> UBYT(1) > ASCBIN('9') THEN
     3775     7685    2                 OUT$SYM.CODE = OUT$SYM.CODE-7;
     3776     7686    2              GOTO ACCEPT_DEF_NAME;
     3777     7687    2              END;
     3778     7688
     3779     7689    1           IF OUT$SYM.CODE ~= 0 THEN /* Reject builtin function names here */
     3780     7690    1              GOTO REJECT_DEF_NAME;
     3781     7691
     3782     7692    1           USER_WORD.LENGTH# = OUT$SYM.COUNT;
     3783     7693    1           CALL XLATE (USER_WORD.BYTES, B$XL_UPPER, OUT$SYM.TEXT);
     3784     7694
     3785     7695    1           IF PARM.CODE = %T_PREDEF_FILE_NAME THEN
     3786     7696    1              GOTO PROCESS_PREDEF_FILE_NAME;
     3787     7697                /* Predef names are mostly reserved words anyway */
     3788     7698
     3789     7699    1           IF SUBSTR(OUT$SYM.TEXT, 0, 1) >= '0'
     3790     7700    1             AND SUBSTR(OUT$SYM.TEXT, 0, 1) <= '9' THEN
     3791     7701    1              GOTO REJECT_DEF_NAME;
     3792     7702
     3793     7703    1           TABLE_WORD_LN = USER_WORD.LENGTH#;
     3794     7704    1           IF TABLE_WORD_LN <= %MXNB_RESERVED_WORD THEN
     3795     7705    2   EACH_TABLE: DO;
     3796     7706    2              TABLE_WORD$ = VD_RESERVED_TABLE$ (TABLE_WORD_LN);
     3797     7707    2              IF TABLE_WORD$ = ADDR(NIL) THEN
PL6.E3A0      #005=VDI$PUSER_PARSE_RTN File=VDI$PARSE.:VDA5TSI                   FRI 07/04/97 11:35 Page:468
     3798     7708    2                 EXIT EACH_TABLE;
     3799     7709
     3800     7710    2   EACH_TABLE_WORD:
     3801     7711    3              DO UNTIL SUBSTR(TABLE$WORD, 0, 1) = %CHR_SPACE;
     3802     7712    3                 IF ADDR(USER_WORD.BYTES) -> TABLE$WORD = TABLE$WORD THEN
     3803     7713    3                    GOTO REJECT_DEF_NAME;
     3804     7714    3                 IF ADDR(USER_WORD.BYTES) -> TABLE$WORD < TABLE$WORD THEN
     3805     7715    3                    EXIT EACH_TABLE_WORD;
     3806     7716    3                 TABLE_WORD$ = PINCRC(TABLE_WORD$, TABLE_WORD_LN);
     3807     7717    3                 END EACH_TABLE_WORD;
     3808     7718    2              END EACH_TABLE;
     3809     7719
     3810     7720    1           IF PARM.CODE ~= %T_DEF_NAME THEN
     3811     7721    1              GOTO PROCESS_LO_NAME;
     3812     7722
     3813     7723                /*
     3814     7724                *   Now see if the name matches any level-names in the
     3815     7725                *       Structures file.
     3816     7726                */
     3817     7727
     3818     7728    1           STRUCTURES_L0$ = STRUCTURES$STREAM.PORT$ ->
     3819     7729    1             VD$PORT.LEVEL.INTERNAL$ (%LVL_FILE);
     3820     7730    1           STRUCTURES_L1$ = STRUCTURES$L0.HEAD$;
     3821     7731    1   EACH_STRUCTURE:
     3822     7732    2           DO WHILE STRUCTURES_L1$ ~= ADDR(NIL);
     3823     7733    2              STRUCTURES_L2$ = STRUCTURES$L1.HEAD$;
     3824     7734    2   EACH_LEVEL_OF_ONE_STRUCTURE:
     3825     7735    3              DO WHILE STRUCTURES_L2$ ~= ADDR(NIL);
     3826     7736                      %GETKEY (KEY=STRUCTURES$L2.DESC.KEY, PTR=LEVEL_KEY$);
     3827     7746    3                 IF LEVEL$KEY.BYTES =
     3828     7747    3                   SUBSTR(USER_WORD.BYTES, 0, USER_WORD.LENGTH#) THEN
     3829     7748    3                    GOTO REJECT_DEF_NAME;
     3830     7749    3                 IF USER_WORD.LENGTH# = %NB_RESERVED_WORD_ABBREV
     3831     7750    3                   AND SUBSTR(LEVEL$KEY.BYTES, 0, USER_WORD.LENGTH#) =
     3832     7751    3                   SUBSTR(USER_WORD.BYTES, 0, USER_WORD.LENGTH#) THEN
     3833     7752    3                    GOTO REJECT_DEF_NAME;
     3834     7753    3                 STRUCTURES_L2$ = STRUCTURES$L2.FLINK$;
PL6.E3A0      #005=VDI$PUSER_PARSE_RTN File=VDI$PARSE.:VDA5TSI                   FRI 07/04/97 11:35 Page:469
     3835     7754    3                 END EACH_LEVEL_OF_ONE_STRUCTURE;
     3836     7755    2              STRUCTURES_L1$ = STRUCTURES$L1.FLINK$;
     3837     7756    2              END EACH_STRUCTURE;
     3838     7757
     3839     7758    1   ACCEPT_DEF_NAME:
     3840     7759    1           RETURN;
     3841     7760
     3842     7761
     3843     7762                %BOX (TITLE="Re-examine successful parse of a LO_NAME node");

              7774    1   /***************************************************************************
              7776    1    *                                                                         *
              7780    1            *               Re-examine successful parse of a LO_NAME node             *
              7782    1            *                                                                         *
              7784    1           ***************************************************************************/

     3844     7788
     3845     7789    1   PROCESS_LO_NAME:
     3846     7790    1           IF PARM.CODE ~= %T_LO_NAME THEN
     3847     7791    1              GOTO PROCESS_LEVEL_NAME;
     3848     7792
     3849     7793    1           IF START_CODE = %T_LO_NAME THEN
     3850     7794    1              RETURN;
     3851     7795    1           LO_NAME_LOC = %CLEAR;
     3852     7796    1           LO_NAME_LOC.KEY.TYPE# (%(LVL_LOWER-1)) = %KT_STRING;
     3853     7797    1           LO_NAME_LOC.KEY.REP# (%(LVL_LOWER-1)) = %REP_REMOTE;
     3854     7798    1           LO_NAME_LOC.KEY.V$ (%(LVL_LOWER-1)) = ADDR(USER_WORD);
     3855     7799    1           USER_WORD.OBJECT = %CLEAR;
     3856     7800    1           USER_WORD.OBJECT.CLASS# = %CLS_TEXTC_REMOTE;
     3857     7801    1           CALL VDA$LREAD (LOCATIONS$STREAM, LO_NAME_LOC, 0, %TRUE)
     3858     7802    1             ALTRET (LREAD_FAILED);
     3859     7803
     3860     7804                %GETKEY (KEY=LOCATIONS$STREAM.PORT$->VD$PORT.CURRENT.KEY,
     3861     7805                INDX="%(LVL_LOWER-1)", PTR=PORT_KEY$);
     3862     7815    1           IF PORT$KEY.BYTES ~=
     3863     7816    2             SUBSTR(USER_WORD.BYTES, 0, USER_WORD.LENGTH#) THEN DO;
     3864     7817    2              GOTO REJECT_LO_NAME;
PL6.E3A0      #005=VDI$PUSER_PARSE_RTN File=VDI$PARSE.:VDA5TSI                   FRI 07/04/97 11:35 Page:470
     3865     7818    2              END;
     3866     7819
     3867     7820    1           RETURN;
     3868     7821
     3869     7822
     3870     7823                %BOX (TITLE="Re-examine successful parse of a LEVEL_NAME node");

              7835    1   /***************************************************************************
              7837    1    *                                                                         *
              7841    1            *              Re-examine successful parse of a LEVEL_NAME node           *
              7843    1            *                                                                         *
              7845    1           ***************************************************************************/

     3871     7849
     3872     7850    1   PROCESS_LEVEL_NAME:
     3873     7851    1           IF PARM.CODE ~= %T_LEVEL_NAME THEN
     3874     7852    1              GOTO PROCESS_PREDEF_FILE_NAME;
     3875     7853
     3876     7854    1           STRUCTURES_L0$ = STRUCTURES$STREAM.PORT$ ->
     3877     7855    1             VD$PORT.LEVEL.INTERNAL$ (%LVL_FILE);
     3878     7856                /*STRUCTURES_L1$ = STRUCTURES$L0.HEAD$;*/
     3879     7857                /* For now, the only structure the user can ref is External */
     3880     7858    1           STRUCTURES_L1$ = VD_6E.STRUCTURE_EXTERNAL$;
     3881     7859
     3882     7860    1   FIND_STRUCTURE:
     3883     7861    2           DO WHILE STRUCTURES_L1$ ~= ADDR(NIL);
     3884     7862    2              STRUCTURES_L2$ = STRUCTURES$L1.HEAD$;
     3885     7863    2              IF STRUCTURES_L2$ ~= ADDR(NIL) THEN
     3886     7864    2                 STRUCTURES_L2$ = STRUCTURES$L2.FLINK$; /* Get to lev 1 */
     3887     7865    3              IF STRUCTURES_L2$ ~= ADDR(NIL) THEN DO;
     3888     7866                      %GETKEY (KEY=STRUCTURES$L2.DESC.KEY, PTR=LEVEL_KEY$);
     3889     7876    3                 IF LEVEL$KEY.BYTES =
     3890     7877    3                   SUBSTR(USER_WORD.BYTES, 0, USER_WORD.LENGTH#) THEN
     3891     7878    3                    EXIT FIND_STRUCTURE;
     3892     7879    3                 IF SUBSTR(USER_WORD.BYTES, USER_WORD.LENGTH# -
     3893     7880    3                   %LENGTHC(CHR_PLURAL), %LENGTHC(CHR_PLURAL)) = %CHR_PLURAL
     3894     7881    3                   AND SUBSTR(USER_WORD.BYTES, 0, USER_WORD.LENGTH# -
PL6.E3A0      #005=VDI$PUSER_PARSE_RTN File=VDI$PARSE.:VDA5TSI                   FRI 07/04/97 11:35 Page:471
     3895     7882    3                   %LENGTHC(CHR_PLURAL)) = LEVEL$KEY.BYTES THEN
     3896     7883    3                    EXIT FIND_STRUCTURE;
     3897     7884    3                 IF USER_WORD.LENGTH# = %NB_RESERVED_WORD_ABBREV
     3898     7885    3                   AND SUBSTR(LEVEL$KEY.BYTES, 0, USER_WORD.LENGTH#) =
     3899     7886    3                   SUBSTR(USER_WORD.BYTES, 0, USER_WORD.LENGTH#) THEN
     3900     7887    3                    EXIT FIND_STRUCTURE;
     3901     7888    3                 END;
     3902     7889                   /*STRUCTURES_L1$ = STRUCTURES$L1.FLINK$;*/
     3903     7890                   /* For now, the only structure the user can ref is External */
     3904     7891    2              GOTO REJECT_LEVEL_NAME;
     3905     7892    2              END FIND_STRUCTURE;
     3906     7893
     3907     7894    1           IF STRUCTURES_L1$ = ADDR(NIL) THEN
     3908     7895    1              GOTO REJECT_LEVEL_NAME;
     3909     7896
     3910     7897
     3911     7898    1   ACCEPT_LEVEL_NAME:
     3912     7899    1           RETURN;
     3913     7900
     3914     7901
     3915     7902                %BOX (TITLE="Re-examine successful parse of a PREDEF_FILE_NAME node");

              7914    1   /***************************************************************************
              7916    1    *                                                                         *
              7920    1            *           Re-examine successful parse of a PREDEF_FILE_NAME node        *
              7922    1            *                                                                         *
              7924    1           ***************************************************************************/

     3916     7928
     3917     7929    1   PROCESS_PREDEF_FILE_NAME:
     3918     7930    1           IF PARM.CODE ~= %T_PREDEF_FILE_NAME THEN
     3919     7931    1              RETURN;
     3920     7932
     3921     7933    1           DIR_NODE$ = VD_6E.WS.INTERNAL_DIR$;
     3922     7934    1   EACH_DIR:
     3923     7935    2           DO WHILE DIR_NODE$ ~= ADDR(NIL);
     3924     7936    2              OUT$BLK.SCRITCH = POFFW(DIR_NODE$,EQUALS$STREAM.FILE_KEY.V$);
PL6.E3A0      #005=VDI$PUSER_PARSE_RTN File=VDI$PARSE.:VDA5TSI                   FRI 07/04/97 11:35 Page:472
     3925     7937    2              CALL XLATE (FILE_KEY, B$XL_UPPER, DIR$NODE.KEY);
     3926     7938    2              IF SUBSTR(USER_WORD.BYTES, 0, USER_WORD.LENGTH#) = FILE_KEY THEN
     3927     7939    2                 GOTO ACCEPT_PREDEF_FILE_NAME;
     3928     7940    2              IF USER_WORD.LENGTH# = %NB_RESERVED_WORD_ABBREV
     3929     7941    2                AND SUBSTR(USER_WORD.BYTES, 0, USER_WORD.LENGTH#) =
     3930     7942    2                SUBSTR(FILE_KEY, 0, USER_WORD.LENGTH#) THEN
     3931     7943    2                 GOTO ACCEPT_PREDEF_FILE_NAME;
     3932     7944
     3933     7945    2              FILE_NODE$ = DIR$NODE.HEAD$;
     3934     7946    2   EACH_FILE_IN_DIR:
     3935     7947    3              DO WHILE FILE_NODE$ ~= ADDR(NIL);
     3936     7948                      %GETKEY (KEY=FILE$NODE.DESC.KEY, PTR=FILE_KEY$);
     3937     7958    3                 OUT$BLK.SCRITCH =
     3938     7959    3                   POFFW(FILE$NODE.DESC.KEY.V$,EQUALS$STREAM.FILE_KEY.V$);
     3939     7960    3                 CALL XLATE (FILE_KEY, B$XL_UPPER, FILE$KEY.BYTES);
     3940     7961    3                 CALL INDEX1R (I, %CHR_UNDERSCORE, FILE_KEY, FILE$KEY.LENGTH#)
     3941     7962    4                 WHENALTRETURN DO;
     3942     7963    4                    CALL VDG$ESCREECH (FILE$KEY.LENGTH#);
     3943     7964    4                    END;
     3944     7965    3                 I = I + 1;
     3945     7966    3                 IF SUBSTR(USER_WORD.BYTES, 0, USER_WORD.LENGTH#) =
     3946     7967    3                   SUBSTR(FILE_KEY, I, FILE$KEY.LENGTH# - I) THEN
     3947     7968    3                    GOTO ACCEPT_PREDEF_FILE_NAME;
     3948     7969    3                 IF USER_WORD.LENGTH# = %NB_RESERVED_WORD_ABBREV
     3949     7970    3                   AND SUBSTR(USER_WORD.BYTES, 0, USER_WORD.LENGTH#) =
     3950     7971    3                   SUBSTR(FILE_KEY, I, USER_WORD.LENGTH#) THEN
     3951     7972    3                    GOTO ACCEPT_PREDEF_FILE_NAME;
     3952     7973    3                 FILE_NODE$ = FILE$NODE.FLINK$;
     3953     7974    3                 END EACH_FILE_IN_DIR;
     3954     7975    2              DIR_NODE$ = DIR$NODE.FLINK$;
     3955     7976    2              END EACH_DIR;
     3956     7977
     3957     7978
     3958     7979    1   REJECT_DEF_NAME:;
     3959     7980    1   REJECT_LEVEL_NAME:;
     3960     7981    1   REJECT_LO_NAME:;
     3961     7982    1   REJECT_PREDEF_FILE_NAME:
PL6.E3A0      #005=VDI$PUSER_PARSE_RTN File=VDI$PARSE.:VDA5TSI                   FRI 07/04/97 11:35 Page:473
     3962     7983    1           PARM.REJECT = %TRUE;
     3963     7984    1           IF PARM.TYPE = %PRE# THEN RETURN;
     3964     7985    1           PARM.CHARPOS = START_CPOS;
     3965     7986    1           P$PCB.HI_CHAR = START_HI_CHAR;
     3966     7987    1           RETURN;
     3967     7988
     3968     7989
     3969     7990    1   ACCEPT_PREDEF_FILE_NAME:
     3970     7991    1           RETURN;
     3971     7992
     3972     7993
     3973     7994                %BOX (TITLE="Error Handlers");

              8006    1   /***************************************************************************
              8008    1    *                                                                         *
              8012    1            *                               Error Handlers                            *
              8014    1            *                                                                         *
              8016    1           ***************************************************************************/

     3974     8020
     3975     8021    1   LREAD_FAILED:
     3976     8022    1           PARM.REJECT = %TRUE;
     3977     8023    1           RETURN;
     3978     8024
     3979     8025    1   END VDI$PUSER_PARSE_RTN;
     3980     8026        %EOD;

PL6.E3A0      #005=VDI$PUSER_PARSE_RTN File=VDI$PARSE.:VDA5TSI                   FRI 07/04/97 11:35 Page:474
--  Include file information  --

   B$TABLES_C.:LIBRARY  cannot be made into a system file and is referenced.
   XU_SUBS_C.:LIBRARY  is referenced.
   XU_MACRO_C.:LIBRARY  is referenced.
   VD_NODES0_E.:VDA5TOU  is referenced.
   VD_PERR_C.:VDA5TOU  is referenced.
   VD_MACROS_M.:VDA5TOU  is referenced.
   B$JIT_C.:E04TOU  was found in the system file and is never referenced.
   CP_6_C.:E04TOU  was found in the system file and is never referenced.
      No diagnostics issued in procedure VDI$PUSER_PARSE_RTN.

   Procedure VDI$PUSER_PARSE_RTN requires 498 words for executable code.
   Procedure VDI$PUSER_PARSE_RTN requires 48 words of local(AUTO) storage.

PL6.E3A0      #005=VDI$PUSER_PARSE_RTN File=VDI$PARSE.:VDA5TSI                   FRI 07/04/97 11:35 Page:475

 Object Unit name= VDI$PUSER_PARSE_RTN                        File name= VDI$PARSE.:VDA5TOU
 UTS= JUL 04 '97 11:35:37.60 FRI                              Compiler= PL-6/E31         Sev=      00
 SharedLib= :SHARED_SYSTEM                                    Alt SharedLib=


    ****  Control sections  ****

 Sect   Type Bound  Init  Size OctSiz  Section name(segment info)
    0   Data  even  none     4      4  VDI$PUSER_PARSE_RTN
    1   Proc  even  none   498    762  VDI$PUSER_PARSE_RTN
    2  RoData even  none     5      5  VDI$PUSER_PARSE_RTN

    ****  Entry defs  ****

                              Check   Calling
                             calling  sequence
  Sect OctLoc Primary Altret sequence   type   Parms  Name
     1      0   yes            yes      Std        1  VDI$PUSER_PARSE_RTN

  ****  Data defs  ****

 Sect OctLoc  Name                           Sect OctLoc  Name
    0      0  VD_RPAREN_POS

  ****  Entry refs  ****

         Check        Calling
        calling       sequence
Altret sequence SRef   type   Args  Name
         yes          ~proc      0 B_POINTER
 yes     yes           Std       4 VDA$LREAD
         yes           Std       3 VDG$ESCREECH
                       nStd      0 X66_AUTO_1
                       nStd      0 X66_ARET
                       Std       0 B_CONSPOOL_D
PL6.E3A0      #005=VDI$PUSER_PARSE_RTN File=VDI$PARSE.:VDA5TSI                   FRI 07/04/97 11:35 Page:476

  ****  Data refs  ****

  Flags:  r = read only, s = secondary
Flgs Name                             Flgs Name                             Flgs Name
     VD_6E                            r    B$XL_UPPER$                           VD_RESERVED_TABLE$
     B_VECTNIL

  ****  Segment refs  ****

  Flags:  r = read only, s = secondary
Flgs Name                             Flgs Name                             Flgs Name
     ISSID
PL6.E3A0      #005=VDI$PUSER_PARSE_RTN File=VDI$PARSE.:VDA5TSI                   FRI 07/04/97 11:35 Page:477


     3546        1        /*T***********************************************************/
     3547        2        /*T*                                                         */
     3548        3        /*T* Copyright (c) Bull HN Information Systems Inc., 1997    */
     3549        4        /*T*                                                         */
     3550        5        /*T***********************************************************/
     3551        6
     3552        7        /*D* NAME: VDI$PUSER_PARSE_RTN
     3553        8            PARAMETERS:
     3554        9                PARM - a PARSE$PARAM structure describing where
     3555       10                    X$PARSE is in the parse of the command line.
     3556       11            INPUT:
     3557       12                VD_RESERVED_TABLE$ - Array of pointers to lists of reserved
     3558       13                    words.  Each entry points to a list of words of a specific
     3559       14                    length.  The lists of words are simply CALIGNED characters,
     3560       15                    all run together; since all the words in one list are of the
     3561       16                    same length, we know where the word breaks are in the
     3562       17                    list.  The end of a list is marked by a single blank
     3563       18                    character.
     3564       19                VD_6E.EQUALS$, .LOCATIONS$, .SYNONYMS$, .KEYINS$, and
     3565       20                    .STRUCTURES$ - Pointers to open VD$STREAMs for these files.
     3566       21                VD_6E.WS.INTERNAL_DIR$ - Ptr to chain of VD$DIR_NODEs for
     3567       22                    the predefined files (Equals, Windows, etc).
     3568       23            OUTPUT:
     3569       24                PARM will be modified:  .REJECT or .ACCEPT will be set to
     3570       25                    %TRUE.
     3571       26            DESCRIPTION:
     3572       27                When X$PARSE parses a node declared with the SUCC, FAIL, or
     3573       28                    PRE options, it will call VDI$PUSER_PARSE_RTN to do any
     3574       29                    parse-twiddling necessary.
     3575       30                All SUCC nodes in the syntax are OUT$SYM nodes containing
     3576       31                    names, which must be verified in various ways.
     3577       32                    Lower-case characters in the name are converted to upper-
     3578       33                    case before looking up the name anywhere.
     3579       34                What this routine does depends on the node which X$PARSE
     3580       35                just parsed:
     3581       36
PL6.E3A0      #005=VDI$PUSER_PARSE_RTN File=VDI$PARSE.:VDA5TSI                   FRI 07/04/97 11:35 Page:478
     3582       37                o T_DEF_NAME - This parse node appears when the user is
     3583       38                        assigning a value to a name with the EQUALS, LOCATION,
     3584       39                        or SYNONYM command (for SYNONYM, only if the name
     3585       40                        isn't a special-character name).
     3586       41                    Guarantee that the name doesn't start with a digit.
     3587       42                    Guarantee that the name isn't actually a reserved word.
     3588       43                        All legal abbreviations of reserved words must have
     3589       44                        separate entries in the VD_RESERVED_TABLE$ table.
     3590       45                        Also, check the name against the level-names in the
     3591       46                        Structures file; these look and act like reserved
     3592       47                        words, but aren't in VD_RESERVED_TABLE$ and don't
     3593       48                        have separate entries for their abbreviations.
     3594       49
     3595       50                o T_LO_NAME - This parse node appears when the user has
     3596       51                        refered to a name in a block expression, and we want
     3597       52                        to see if it's a valid LOCATION-name.
     3598       53                    Guarantee that the name exists in the Locations-file.
     3599       54
     3600       55                o T_LEVEL_NAME - This parse node appears when the user has
     3601       56                        refered to a name in a block expression, and we want
     3602       57                        to see if it's a valid level name.
     3603       58        *N*         If we aren't already beyond level 1 of a structure:
     3604       59                    Search the Structures file, looking for the name
     3605       60                        as the level-1 key of some structure.
     3606       61        *N*         If we are already beyond level 1 of a structure in this
     3607       62        *N*             block expression, make sure that the name is the
     3608       63        *N*             next level key of the structure.
     3609       64                    When checking the name against a Structures-file key, also
     3610       65                        check to see if the name is an abbreviation of the
     3611       66                        Structures-file key.  This makes level-names look
     3612       67                        and act like reserved words.
     3613       68
     3614       69                o T_PREDEF_FILE_NAME - This node appears when the user has
     3615       70                        referred to a name, and we want to see if it's the
     3616       71                        name of a predefined file--or internal directory!
     3617       72                    Loop thru each of the internal directories, looking
     3618       73                        for a match of the name with both the directory name and
PL6.E3A0      #005=VDI$PUSER_PARSE_RTN File=VDI$PARSE.:VDA5TSI                   FRI 07/04/97 11:35 Page:479
     3619       74                        the names of the files in the directory.  Note that the
     3620       75                        names in the directories and files are stored internally
     3621       76                        with leading caps (mixed upper- and lower-case), so they
     3622       77                        must be converted to upper-case before comparison, too.
     3623       78                    When checking the name against an internal file or directory name,
     3624       79                        also check to see if the name is an abbreviation of the
     3625       80                        file/directory name.  This makes PREDEF_FILE_NAMEs look
     3626       81                        and act like reserved words.
     3627       82
     3628       83
     3629       84                The topography of the Structures file is confusing, so
     3630       85                here's a drawing to (hopefully) clear things up:
     3631       86
     3632       87                              STRUCTURES$L0           : Level 0 file-node of
     3633       88                                   |                  :   Structures file
     3634       89                         --------------------------. . .
     3635       90                         |                      |
     3636       91                        $L1                    $L1    : Def of diff Structures
     3637       92                         |                      |
     3638       93                  ---------------          ----------
     3639       94                  |      |      |          |        |
     3640       95                 $L2    $L2    $L2        $L2      $L2    : Def of levels of
     3641       96                 for    for    for        for      for    :   each Structure
     3642       97                lev 0  lev 1  lev 2      lev 0    lev 1
     3643       98        */
     3644       99
     3645      100        VDI$PUSER_PARSE_RTN: PROC (PARM);

    100  1 000000   000000 700200 xent  VDI$PUSER_P* TSX0  ! X66_AUTO_1
         1 000001   000060 000001                    ZERO    48,1

     3646      101
     3647      102
     3648      103        %INCLUDE VD_MACROS_M;
     3649     2318        %INCLUDE VD_PERR_C;
     3650     2466        %INCLUDE VD_NODES0_E;
     3651     2558        %INCLUDE XU_MACRO_C;
PL6.E3A0      #005=VDI$PUSER_PARSE_RTN File=VDI$PARSE.:VDA5TSI                   FRI 07/04/97 11:35 Page:480
     3652     5652        %INCLUDE XU_SUBS_C;
     3653     5744        %INCLUDE B$TABLES_C;
     3654     5852
     3655     5853
     3656     5854        %PARSE$PARAM (NAME=PARM, STCLASS="");
     3657     5935
     3658     5936
     3659     5937
     3660     5938    1   DCL VDA$LREAD       ENTRY (4) ALTRET;
     3661     5939    1   DCL VDG$ESCREECH    ENTRY (3);
     3662     5940
     3663     5941
     3664     5942        %VD_6E (STCLASS=SYMREF);
     3665     5978        %B$XL_UPPER;
     3666     5982    1   DCL VD_RESERVED_TABLE$ (0:%MXNB_RESERVED_WORD) PTR SYMREF;
     3667     5983    1   DCL VD_STATIC_TEMP CHAR(%MXNB_NAME) ALIGNED SYMREF;
     3668     5984    1   DCL VD_FKEY_NAMES_EQUALS UBIN SYMREF;
     3669     5985    1   DCL VD_RPAREN_POS SBIN STATIC SYMDEF INIT(0);
     3670     5986
     3671     5987    1   DCL START_CPOS UBIN STATIC;
     3672     5988    1   DCL START_HI_CHAR UBIN STATIC;
     3673     5989    1   DCL START_CODE UBIN STATIC;
     3674     5990
     3675     5991
     3676     5992
     3677     5993    1   DCL OUT_SYM$ PTR;
     3678     5994    1   DCL I UBIN;
     3679     5995        %VD_TEXTC_REMOTE (NAME=USER_WORD, STCLASS=AUTO, MXNB=%MXNB_NAME);
     3680     6058    1   DCL TABLE_WORD$ PTR;
     3681     6059    1   DCL TABLE_WORD_LN UBIN;
     3682     6060        %VD$LOCATION (NAME=LO_NAME_LOC, STCLASS=AUTO);
     3683     6088    1   DCL PORT_KEY$ PTR;
     3684     6089    1   DCL STRUCTURES_L0$ PTR;
     3685     6090    1   DCL STRUCTURES_L1$ PTR;
     3686     6091    1   DCL STRUCTURES_L2$ PTR;
     3687     6092    1   DCL LEVEL_KEY$ PTR;
     3688     6093    1   DCL DIR_NODE$ PTR;
PL6.E3A0      #005=VDI$PUSER_PARSE_RTN File=VDI$PARSE.:VDA5TSI                   FRI 07/04/97 11:35 Page:481
     3689     6094    1   DCL FILE_NODE$ PTR;
     3690     6095    1   DCL FILE_KEY$ PTR;
     3691     6096    1   DCL FILE_KEY CHAR(%MXNB_NAME);
     3692     6097    1   DCL SINK UBIN;
     3693     6098
     3694     6099
     3695     6100        %P_PCB (NAME=P$PCB, STCLASS="BASED(PARM.PCB$)");
     3696     6299    1   DCL UBYT(0:0) UBIN BYTE CALIGNED BASED;
     3697     6300        %PARSE$OUT (NAME=OUT$BLK, STCLASS="BASED(PARM.OUT$)");
     3698     6345        %PARSE$SYM (NAME=OUT$SYM, STCLASS="BASED(OUT_SYM$)");
     3699     6383    1   DCL TABLE$WORD CHAR(TABLE_WORD_LN) BASED(TABLE_WORD$) CALIGNED;
     3700     6384        %VD$STREAM (NAME=EQUALS$STREAM, STCLASS="BASED(VD_6E.EQUALS$)");
     3701     6490        %VD$STREAM (NAME=LOCATIONS$STREAM, STCLASS="BASED(VD_6E.LOCATIONS$)");
     3702     6596        %VD$STREAM (NAME=SYNONYMS$STREAM, STCLASS="BASED(VD_6E.SYNONYMS$)");
     3703     6702        %VD$STREAM (NAME=KEYINS$STREAM, STCLASS="BASED(VD_6E.KEYINS$)");
     3704     6808        %VD$STREAM (NAME=STRUCTURES$STREAM, STCLASS="BASED(VD_6E.STRUCTURES$)");
     3705     6914        %VD$TEXTC (NAME=PORT$KEY, STCLASS="BASED(PORT_KEY$)");
     3706     6937        %VD$FILE_NODE (NAME=STRUCTURES$L0, STCLASS="BASED(STRUCTURES_L0$)");
     3707     7030        %VD$FILE_NODE (NAME=STRUCTURES$L1, STCLASS="BASED(STRUCTURES_L1$)");
     3708     7123        %VD$FILE_NODE (NAME=STRUCTURES$L2, STCLASS="BASED(STRUCTURES_L2$)");
     3709     7216        %VD$TEXTC (NAME=LEVEL$KEY, STCLASS="BASED(LEVEL_KEY$)");
     3710     7239        %VD$DIR_NODE (NAME=DIR$NODE, STCLASS="BASED(DIR_NODE$)");
     3711     7277        %VD$FILE_NODE (NAME=FILE$NODE, STCLASS="BASED(FILE_NODE$)");
     3712     7370        %VD$FILE_KEY;
     3713     7419        %VD$TEXTC (NAME=FILE$KEY, STCLASS="BASED(FILE_KEY$)");
     3714     7442        %VD$PORT;
     3715     7540        %VD$TEXTC_REMOTE;
     3716     7601
     3717     7602    1           IF PARM.CODE < %VD_BASE# THEN RETURN;

   7602  1 000002   200003 470500                    LDP0    @PARM,,AUTO
         1 000003   000000 720100                    LXL0    0,,PR0
         1 000004   001750 100003                    CMPX0   1000,DU
         1 000005   000007 603000 1                  TRC     s:7603

   7602  1 000006   000000 702200 xent               TSX2  ! X66_ARET

PL6.E3A0      #005=VDI$PUSER_PARSE_RTN File=VDI$PARSE.:VDA5TSI                   FRI 07/04/97 11:35 Page:482
     3718     7603    2           IF PARM.TYPE = %PRE# THEN DO;

   7603  1 000007   000000 236100                    LDQ     0,,PR0
         1 000010   777000 376003                    ANQ     -512,DU
         1 000011   001000 116003                    CMPQ    512,DU
         1 000012   000045 601000 1                  TNZ     s:7646

     3719     7604
     3720     7605    2              START_CPOS = PARM.CHARPOS;

   7605  1 000013   000004 235100                    LDA     4,,PR0
         1 000014   000001 755000 0                  STA     START_CPOS

     3721     7606    2              START_HI_CHAR = P$PCB.HI_CHAR;

   7606  1 000015   000005 471500                    LDP1    5,,PR0
         1 000016   100012 235100                    LDA     10,,PR1
         1 000017   000002 755000 0                  STA     START_HI_CHAR

     3722     7607    3              IF PARM.CODE = %T_SPECIAL_NAME THEN DO;

   7607  1 000020   001767 100003                    CMPX0   1015,DU
         1 000021   000033 601000 1                  TNZ     s:7612

     3723     7608                      /* Don't list builtin function names in the alternatives */
     3724     7609    3                 IF P$PCB.NXT AND START_CPOS = START_HI_CHAR THEN

   7609  1 000022   100005 236100                    LDQ     5,,PR1
         1 000023   040000 316007                    CANQ    16384,DL
         1 000024   000043 600000 1                  TZE     s:7615
         1 000025   000001 236000 0                  LDQ     START_CPOS
         1 000026   000002 116000 0                  CMPQ    START_HI_CHAR
         1 000027   000043 601000 1                  TNZ     s:7615

     3725     7610    3                    PARM.REJECT = %TRUE;

   7610  1 000030   000200 236003                    LDQ     128,DU
PL6.E3A0      #005=VDI$PUSER_PARSE_RTN File=VDI$PARSE.:VDA5TSI                   FRI 07/04/97 11:35 Page:483
         1 000031   000000 256100                    ORSQ    0,,PR0

     3726     7611    3                 END;

   7611  1 000032   000043 710000 1                  TRA     s:7615

     3727     7612    2              ELSE IF PARM.CODE = %T_COMMAND_LINE

   7612  1 000033   001751 100003                    CMPX0   1001,DU
         1 000034   000040 600000 1                  TZE     s:7614
         1 000035   000003 235000 0                  LDA     START_CODE
         1 000036   002002 115007                    CMPA    1026,DL
         1 000037   000043 600000 1                  TZE     s:7615

     3728     7613    2                   OR START_CODE ~= %T_SHOW_CMD THEN /* Lookup LO names for SHOW */
     3729     7614    2                    START_CODE = PARM.CODE;

   7614  1 000040   000000 236100                    LDQ     0,,PR0
         1 000041   777777 376007                    ANQ     -1,DL
         1 000042   000003 756000 0                  STQ     START_CODE

     3730     7615    2              VD_RPAREN_POS = 0;

   7615  1 000043   000000 450000 0                  STZ     VD_RPAREN_POS

     3731     7616    2              RETURN;

   7616  1 000044   000000 702200 xent               TSX2  ! X66_ARET

     3732     7617    2              END;
     3733     7618
     3734     7619        %BOX (TITLE="Re-examine successful parse of a DEF_NAME node");

              7631    2   /***************************************************************************
              7633    2    *                                                                         *
              7637    2            *               Re-examine successful parse of a DEF_NAME node           *
              7639    2            *                                                                        *
PL6.E3A0      #005=VDI$PUSER_PARSE_RTN File=VDI$PARSE.:VDA5TSI                   FRI 07/04/97 11:35 Page:484
              7641    2          ***************************************************************************/

     3735     7645
     3736     7646    1           IF PARM.TYPE ~= %SUCC# THEN RETURN;

   7646  1 000045   002000 116003                    CMPQ    1024,DU
         1 000046   000050 600000 1                  TZE     s:7648

   7646  1 000047   000000 702200 xent               TSX2  ! X66_ARET

     3737     7647
     3738     7648    2           IF PARM.CODE = %T_INVOK_CMD THEN DO;

   7648  1 000050   002071 100003                    CMPX0   1081,DU
         1 000051   000055 601000 1                  TNZ     s:7659

     3739     7649                /*
     3740     7650                *    Save the ) position in the parse string, in case there's a READ
     3741     7651                *    command on the command line.  Then when we save the text while
     3742     7652                *    doing the read command, we can blank out the ).  Otherwise,
     3743     7653                *    it won't parse properly next time.
     3744     7654                */
     3745     7655    2              VD_RPAREN_POS = START_CPOS;

   7655  1 000052   000001 235000 0                  LDA     START_CPOS
         1 000053   000000 755000 0                  STA     VD_RPAREN_POS

     3746     7656    2              RETURN;

   7656  1 000054   000000 702200 xent               TSX2  ! X66_ARET

     3747     7657    2              END;
     3748     7658
     3749     7659    1           OUT_SYM$ = OUT$BLK.SUBLK$ (0);

   7659  1 000055   000002 471500                    LDP1    2,,PR0
         1 000056   100003 236100                    LDQ     3,,PR1
PL6.E3A0      #005=VDI$PUSER_PARSE_RTN File=VDI$PARSE.:VDA5TSI                   FRI 07/04/97 11:35 Page:485
         1 000057   200004 756100                    STQ     OUT_SYM$,,AUTO

     3750     7660
     3751     7661    2           IF PARM.CODE = %T_FUNKEY_EXP THEN DO;

   7661  1 000060   002072 100003                    CMPX0   1082,DU
         1 000061   000160 601000 1                  TNZ     s:7689

     3752     7662    2              OUT$SYM.CODE =

   7662  1 000062   200004 473500                    LDP3    OUT_SYM$,,AUTO
         1 000063   300003 474500                    LDP4    3,,PR3
         1 000064   400003 475500                    LDP5    3,,PR4
         1 000065   500000 721100                    LXL1    0,,PR5
         1 000066   000400 622011                    EAX2    256,X1
         1 000067   300000 442100                    SXL2    0,,PR3

     3753     7663    2                OUT_SYM$->OUT$BLK.SUBLK$(0)->OUT$BLK.SUBLK$(0)->OUT$SYM.CODE+256;
     3754     7664    3              IF OUT$SYM.CODE < 514 THEN DO;

   7664  1 000070   001002 102003                    CMPX2   514,DU
         1 000071   000106 603000 1                  TRC     s:7669

     3755     7665    3                 IF START_CODE ~= %T_KEYIN_NAME AND START_CODE ~= %T_EQUALS_CMD

   7665  1 000072   000003 235000 0                  LDA     START_CODE
         1 000073   001773 115007                    CMPA    1019,DL
         1 000074   000077 600000 1                  TZE     s:7665+5
         1 000075   001764 115007                    CMPA    1012,DL
         1 000076   000103 601000 1                  TNZ     s:7666
         1 000077   000002 471500                    LDP1    2,,PR0
         1 000100   000001 236000 0                  LDQ     START_CPOS
         1 000101   100002 116100                    CMPQ    2,,PR1
         1 000102   000105 603000 1                  TRC     s:7667

     3756     7666    3                   OR OUT$BLK.CPOS > START_CPOS THEN OUT$SYM.CODE = 514;

PL6.E3A0      #005=VDI$PUSER_PARSE_RTN File=VDI$PARSE.:VDA5TSI                   FRI 07/04/97 11:35 Page:486
   7666  1 000103   001002 220003                    LDX0    514,DU
         1 000104   300000 440100                    SXL0    0,,PR3

     3757     7667    3                 GOTO ACCEPT_DEF_NAME;

   7667  1 000105   000343 710000 1                  TRA     ACCEPT_DEF_NAME

     3758     7668    3                 END;
     3759     7669    2              DIR_NODE$ = OUT_SYM$->OUT$BLK.SUBLK$(0)->OUT$BLK.SUBLK$(0)->

   7669  1 000106   400003 471500                    LDP1    3,,PR4
         1 000107   100003 475500                    LDP5    3,,PR1
         1 000110   500003 236100                    LDQ     3,,PR5
         1 000111   200040 756100                    STQ     DIR_NODE$,,AUTO

     3760     7670    2                OUT$BLK.SUBLK$(0)->OUT$BLK.SUBLK$(0);
     3761     7671    2              OUT$SYM.CODE = ADDR(DIR_NODE$->OUT$SYM.TEXT) -> UBYT(0);

   7671  1 000112   200040 476500                    LDP6    DIR_NODE$,,AUTO
         1 000113   600004 220100                    LDX0    4,,PR6
         1 000114   000777 360003                    ANX0    511,DU
         1 000115   300000 440100                    SXL0    0,,PR3

     3762     7672    3              IF DIR_NODE$->OUT$SYM.CODE<256 THEN DO;

   7672  1 000116   600000 721100                    LXL1    0,,PR6
         1 000117   000400 101003                    CMPX1   256,DU
         1 000120   000123 603000 1                  TRC     s:7676

     3763     7673    3                 OUT$SYM.CODE = DIR_NODE$->OUT$SYM.CODE;

   7673  1 000121   300000 441100                    SXL1    0,,PR3

     3764     7674    3                 GOTO ACCEPT_DEF_NAME;

   7674  1 000122   000343 710000 1                  TRA     ACCEPT_DEF_NAME

PL6.E3A0      #005=VDI$PUSER_PARSE_RTN File=VDI$PARSE.:VDA5TSI                   FRI 07/04/97 11:35 Page:487
     3765     7675    3                 END;
     3766     7676    2              IF DIR_NODE$->OUT$SYM.CODE=267 THEN

   7676  1 000123   000413 101003                    CMPX1   267,DU
         1 000124   000343 600000 1                  TZE     ACCEPT_DEF_NAME

     3767     7677    2                 GOTO ACCEPT_DEF_NAME;
     3768     7678    2              OUT$SYM.CODE = OUT$SYM.CODE - ASCBIN('0'); /* Cvt from hex */

   7678  1 000125   777720 622010                    EAX2    -48,X0
         1 000126   300000 442100                    SXL2    0,,PR3

     3769     7679    2              IF OUT$SYM.CODE > 9 THEN OUT$SYM.CODE = OUT$SYM.CODE-7;

   7679  1 000127   000012 102003                    CMPX2   10,DU
         1 000130   000133 602000 1                  TNC     s:7680

   7679  1 000131   777771 620012                    EAX0    -7,X2
         1 000132   300000 440100                    SXL0    0,,PR3

     3770     7680    2              IF DIR_NODE$->OUT$SYM.COUNT = 1 THEN

   7680  1 000133   600004 236100                    LDQ     4,,PR6
         1 000134   777000 376003                    ANQ     -512,DU
         1 000135   001000 116003                    CMPQ    512,DU
         1 000136   000343 600000 1                  TZE     ACCEPT_DEF_NAME

     3771     7681    2                 GOTO ACCEPT_DEF_NAME;
     3772     7682    2              OUT$SYM.CODE = OUT$SYM.CODE*16 - ASCBIN('0') +

   7682  1 000137   600004 236100                    LDQ     4,,PR6
         1 000140   000011 772000                    QRL     9
         1 000141   000777 376007                    ANQ     511,DL
         1 000142   200054 756100                    STQ     FILE_KEY+9,,AUTO
         1 000143   300000 236100                    LDQ     0,,PR3
         1 000144   000004 736000                    QLS     4
         1 000145   000000 376000 2                  ANQ     0
PL6.E3A0      #005=VDI$PUSER_PARSE_RTN File=VDI$PARSE.:VDA5TSI                   FRI 07/04/97 11:35 Page:488
         1 000146   200054 036100                    ADLQ    FILE_KEY+9,,AUTO
         1 000147   777720 620006                    EAX0    -48,QL
         1 000150   300000 440100                    SXL0    0,,PR3

     3773     7683    2                ADDR(DIR_NODE$->OUT$SYM.TEXT) -> UBYT(1);
     3774     7684    2              IF ADDR(DIR_NODE$->OUT$SYM.TEXT) -> UBYT(1) > ASCBIN('9') THEN

   7684  1 000151   600004 236100                    LDQ     4,,PR6
         1 000152   777000 376007                    ANQ     -512,DL
         1 000153   072000 116007                    CMPQ    29696,DL
         1 000154   000157 602000 1                  TNC     s:7686

     3775     7685    2                 OUT$SYM.CODE = OUT$SYM.CODE-7;

   7685  1 000155   777771 621010                    EAX1    -7,X0
         1 000156   300000 441100                    SXL1    0,,PR3

     3776     7686    2              GOTO ACCEPT_DEF_NAME;

   7686  1 000157   000343 710000 1                  TRA     ACCEPT_DEF_NAME

     3777     7687    2              END;
     3778     7688
     3779     7689    1           IF OUT$SYM.CODE ~= 0 THEN /* Reject builtin function names here */

   7689  1 000160   200004 473500                    LDP3    OUT_SYM$,,AUTO
         1 000161   300000 721100                    LXL1    0,,PR3
         1 000162   000737 601000 1                  TNZ     REJECT_DEF_NAME

     3780     7690    1              GOTO REJECT_DEF_NAME;
     3781     7691
     3782     7692    1           USER_WORD.LENGTH# = OUT$SYM.COUNT;

   7692  1 000163   300004 236100                    LDQ     4,,PR3
         1 000164   200010 552140                    STBQ    USER_WORD+2,'40'O,AUTO

     3783     7693    1           CALL XLATE (USER_WORD.BYTES, B$XL_UPPER, OUT$SYM.TEXT);
PL6.E3A0      #005=VDI$PUSER_PARSE_RTN File=VDI$PARSE.:VDA5TSI                   FRI 07/04/97 11:35 Page:489

   7693  1 000165   300004 236100                    LDQ     4,,PR3
         1 000166   000033 772000                    QRL     27
         1 000167   000000 620006                    EAX0    0,QL
         1 000170   000000 471400 xsym               LDP1    B$XL_UPPER$
         1 000171   040100 160540                    MVT     fill='040'O
         1 000172   300004 200010                    ADSC9   4,,PR3                   cn=1,n=*X0
         1 000173   200010 200037                    ADSC9   USER_WORD+2,,AUTO        cn=1,n=31
         1 000174   100000 000100                    ARG     0,,PR1

     3784     7694
     3785     7695    1           IF PARM.CODE = %T_PREDEF_FILE_NAME THEN

   7695  1 000175   000000 720100                    LXL0    0,,PR0
         1 000176   002000 100003                    CMPX0   1024,DU
         1 000177   000536 600000 1                  TZE     PROCESS_PREDEF_FILE_NAME

     3786     7696    1              GOTO PROCESS_PREDEF_FILE_NAME;
     3787     7697                /* Predef names are mostly reserved words anyway */
     3788     7698
     3789     7699    1           IF SUBSTR(OUT$SYM.TEXT, 0, 1) >= '0'

   7699  1 000200   300004 236100                    LDQ     4,,PR3
         1 000201   000033 772000                    QRL     27
         1 000202   300004 236100                    LDQ     4,,PR3
         1 000203   000777 376003                    ANQ     511,DU
         1 000204   000060 116003                    CMPQ    48,DU
         1 000205   000215 602000 1                  TNC     s:7703
         1 000206   300004 236100                    LDQ     4,,PR3
         1 000207   000033 772000                    QRL     27
         1 000210   300004 236100                    LDQ     4,,PR3
         1 000211   000777 376003                    ANQ     511,DU
         1 000212   000071 116003                    CMPQ    57,DU
         1 000213   000737 602000 1                  TNC     REJECT_DEF_NAME
         1 000214   000737 600000 1                  TZE     REJECT_DEF_NAME

     3790     7700    1             AND SUBSTR(OUT$SYM.TEXT, 0, 1) <= '9' THEN
PL6.E3A0      #005=VDI$PUSER_PARSE_RTN File=VDI$PARSE.:VDA5TSI                   FRI 07/04/97 11:35 Page:490
     3791     7701    1              GOTO REJECT_DEF_NAME;
     3792     7702
     3793     7703    1           TABLE_WORD_LN = USER_WORD.LENGTH#;

   7703  1 000215   200010 236100                    LDQ     USER_WORD+2,,AUTO
         1 000216   000033 772000                    QRL     27
         1 000217   200021 756100                    STQ     TABLE_WORD_LN,,AUTO

     3794     7704    1           IF TABLE_WORD_LN <= %MXNB_RESERVED_WORD THEN

   7704  1 000220   000020 116007                    CMPQ    16,DL
         1 000221   000246 603000 1                  TRC     s:7720

     3795     7705    2   EACH_TABLE: DO;

   7705  1 000222                       EACH_TABLE   null
     3796     7706    2              TABLE_WORD$ = VD_RESERVED_TABLE$ (TABLE_WORD_LN);

   7706  1 000222   000000 236006 xsym               LDQ     VD_RESERVED_TABLE$,QL
         1 000223   200020 756100                    STQ     TABLE_WORD$,,AUTO

     3797     7707    2              IF TABLE_WORD$ = ADDR(NIL) THEN

   7707  1 000224   000001 116000 xsym               CMPQ    B_VECTNIL+1
         1 000225   000246 600000 1                  TZE     s:7720

     3798     7708    2                 EXIT EACH_TABLE;
     3799     7709
     3800     7710    2   EACH_TABLE_WORD:
     3801     7711    3              DO UNTIL SUBSTR(TABLE$WORD, 0, 1) = %CHR_SPACE;

   7711  1 000226                       EACH_TABLE_* null
     3802     7712    3                 IF ADDR(USER_WORD.BYTES) -> TABLE$WORD = TABLE$WORD THEN

   7712  1 000226   200021 720100                    LXL0    TABLE_WORD_LN,,AUTO
         1 000227   200020 470500                    LDP0    TABLE_WORD$,,AUTO
         1 000230   040140 106540                    CMPC    fill='040'O
PL6.E3A0      #005=VDI$PUSER_PARSE_RTN File=VDI$PARSE.:VDA5TSI                   FRI 07/04/97 11:35 Page:491
         1 000231   200010 200010                    ADSC9   USER_WORD+2,,AUTO        cn=1,n=*X0
         1 000232   000000 000010                    ADSC9   0,,PR0                   cn=0,n=*X0
         1 000233   000737 600000 1                  TZE     REJECT_DEF_NAME

     3803     7713    3                    GOTO REJECT_DEF_NAME;
     3804     7714    3                 IF ADDR(USER_WORD.BYTES) -> TABLE$WORD < TABLE$WORD THEN

   7714  1 000234   000246 602000 1                  TNC     s:7720

     3805     7715    3                    EXIT EACH_TABLE_WORD;
     3806     7716    3                 TABLE_WORD$ = PINCRC(TABLE_WORD$, TABLE_WORD_LN);

   7716  1 000235   200021 236100                    LDQ     TABLE_WORD_LN,,AUTO
         1 000236   000020 736000                    QLS     16
         1 000237   200020 036100                    ADLQ    TABLE_WORD$,,AUTO
         1 000240   200020 756100                    STQ     TABLE_WORD$,,AUTO

     3807     7717    3                 END EACH_TABLE_WORD;

   7717  1 000241   200020 470500                    LDP0    TABLE_WORD$,,AUTO
         1 000242   040000 106500                    CMPC    fill='040'O
         1 000243   000000 000001                    ADSC9   0,,PR0                   cn=0,n=1
         1 000244   000035 000001 xsym               ADSC9   B_VECTNIL+29             cn=0,n=1
         1 000245   000226 601000 1                  TNZ     EACH_TABLE_WORD

     3808     7718    2              END EACH_TABLE;

     3809     7719
     3810     7720    1           IF PARM.CODE ~= %T_DEF_NAME THEN

   7720  1 000246   200003 470500                    LDP0    @PARM,,AUTO
         1 000247   000000 720100                    LXL0    0,,PR0
         1 000250   002060 100003                    CMPX0   1072,DU
         1 000251   000344 601000 1                  TNZ     PROCESS_LO_NAME

     3811     7721    1              GOTO PROCESS_LO_NAME;
     3812     7722
PL6.E3A0      #005=VDI$PUSER_PARSE_RTN File=VDI$PARSE.:VDA5TSI                   FRI 07/04/97 11:35 Page:492
     3813     7723                /*
     3814     7724                *   Now see if the name matches any level-names in the
     3815     7725                *       Structures file.
     3816     7726                */
     3817     7727
     3818     7728    1           STRUCTURES_L0$ = STRUCTURES$STREAM.PORT$ ->

   7728  1 000252   000005 471400 xsym               LDP1    VD_6E+5
         1 000253   100001 473500                    LDP3    1,,PR1
         1 000254   300031 236100                    LDQ     25,,PR3
         1 000255   200034 756100                    STQ     STRUCTURES_L0$,,AUTO

     3819     7729    1             VD$PORT.LEVEL.INTERNAL$ (%LVL_FILE);
     3820     7730    1           STRUCTURES_L1$ = STRUCTURES$L0.HEAD$;

   7730  1 000256   200034 474500                    LDP4    STRUCTURES_L0$,,AUTO
         1 000257   400012 236100                    LDQ     10,,PR4
         1 000260   200035 756100                    STQ     STRUCTURES_L1$,,AUTO

     3821     7731    1   EACH_STRUCTURE:
     3822     7732    2           DO WHILE STRUCTURES_L1$ ~= ADDR(NIL);

   7732  1 000261   000341 710000 1     EACH_STRUCT* TRA     s:7756

     3823     7733    2              STRUCTURES_L2$ = STRUCTURES$L1.HEAD$;

   7733  1 000262   200035 470500                    LDP0    STRUCTURES_L1$,,AUTO
         1 000263   000012 236100                    LDQ     10,,PR0
         1 000264   200036 756100                    STQ     STRUCTURES_L2$,,AUTO

     3824     7734    2   EACH_LEVEL_OF_ONE_STRUCTURE:
     3825     7735    3              DO WHILE STRUCTURES_L2$ ~= ADDR(NIL);

   7735  1 000265   000334 710000 1     EACH_LEVEL_* TRA     s:7754

     3826     7736                      %GETKEY (KEY=STRUCTURES$L2.DESC.KEY, PTR=LEVEL_KEY$);

PL6.E3A0      #005=VDI$PUSER_PARSE_RTN File=VDI$PARSE.:VDA5TSI                   FRI 07/04/97 11:35 Page:493
   7743  1 000266   200036 470500                    LDP0    STRUCTURES_L2$,,AUTO
         1 000267   000004 720100                    LXL0    4,,PR0
         1 000270   000002 100003                    CMPX0   2,DU
         1 000271   000276 601000 1                  TNZ     s:7743+8

   7743  1 000272   000005 471500                    LDP1    5,,PR0
         1 000273   100002 633500                    EPPR3   2,,PR1
         1 000274   200037 453500                    STP3    LEVEL_KEY$,,AUTO
         1 000275   000301 710000 1                  TRA     s:7746

   7743  1 000276   200036 236100                    LDQ     STRUCTURES_L2$,,AUTO
         1 000277   000005 036003                    ADLQ    5,DU
         1 000300   200037 756100                    STQ     LEVEL_KEY$,,AUTO

     3827     7746    3                 IF LEVEL$KEY.BYTES =

   7746  1 000301   200037 471500                    LDP1    LEVEL_KEY$,,AUTO
         1 000302   100000 236100                    LDQ     0,,PR1
         1 000303   000033 772000                    QRL     27
         1 000304   000000 621006                    EAX1    0,QL
         1 000305   200010 236100                    LDQ     USER_WORD+2,,AUTO
         1 000306   000033 772000                    QRL     27
         1 000307   000000 622006                    EAX2    0,QL
         1 000310   040140 106540                    CMPC    fill='040'O
         1 000311   100000 200011                    ADSC9   0,,PR1                   cn=1,n=*X1
         1 000312   200010 200012                    ADSC9   USER_WORD+2,,AUTO        cn=1,n=*X2
         1 000313   000737 600000 1                  TZE     REJECT_DEF_NAME

     3828     7747    3                   SUBSTR(USER_WORD.BYTES, 0, USER_WORD.LENGTH#) THEN
     3829     7748    3                    GOTO REJECT_DEF_NAME;
     3830     7749    3                 IF USER_WORD.LENGTH# = %NB_RESERVED_WORD_ABBREV

   7749  1 000314   200010 236100                    LDQ     USER_WORD+2,,AUTO
         1 000315   777000 376003                    ANQ     -512,DU
         1 000316   002000 116003                    CMPQ    1024,DU
         1 000317   000332 601000 1                  TNZ     s:7753
         1 000320   200010 236100                    LDQ     USER_WORD+2,,AUTO
PL6.E3A0      #005=VDI$PUSER_PARSE_RTN File=VDI$PARSE.:VDA5TSI                   FRI 07/04/97 11:35 Page:494
         1 000321   000033 772000                    QRL     27
         1 000322   000000 622006                    EAX2    0,QL
         1 000323   200010 236100                    LDQ     USER_WORD+2,,AUTO
         1 000324   000033 772000                    QRL     27
         1 000325   000000 623006                    EAX3    0,QL
         1 000326   040140 106540                    CMPC    fill='040'O
         1 000327   100000 200012                    ADSC9   0,,PR1                   cn=1,n=*X2
         1 000330   200010 200013                    ADSC9   USER_WORD+2,,AUTO        cn=1,n=*X3
         1 000331   000737 600000 1                  TZE     REJECT_DEF_NAME

     3831     7750    3                   AND SUBSTR(LEVEL$KEY.BYTES, 0, USER_WORD.LENGTH#) =
     3832     7751    3                   SUBSTR(USER_WORD.BYTES, 0, USER_WORD.LENGTH#) THEN
     3833     7752    3                    GOTO REJECT_DEF_NAME;
     3834     7753    3                 STRUCTURES_L2$ = STRUCTURES$L2.FLINK$;

   7753  1 000332   000002 236100                    LDQ     2,,PR0
         1 000333   200036 756100                    STQ     STRUCTURES_L2$,,AUTO

     3835     7754    3                 END EACH_LEVEL_OF_ONE_STRUCTURE;

   7754  1 000334   000001 116000 xsym               CMPQ    B_VECTNIL+1
         1 000335   000266 601000 1                  TNZ     s:7743

     3836     7755    2              STRUCTURES_L1$ = STRUCTURES$L1.FLINK$;

   7755  1 000336   200035 470500                    LDP0    STRUCTURES_L1$,,AUTO
         1 000337   000002 236100                    LDQ     2,,PR0
         1 000340   200035 756100                    STQ     STRUCTURES_L1$,,AUTO

     3837     7756    2              END EACH_STRUCTURE;

   7756  1 000341   000001 116000 xsym               CMPQ    B_VECTNIL+1
         1 000342   000262 601000 1                  TNZ     s:7733

     3838     7757
     3839     7758    1   ACCEPT_DEF_NAME:
     3840     7759    1           RETURN;
PL6.E3A0      #005=VDI$PUSER_PARSE_RTN File=VDI$PARSE.:VDA5TSI                   FRI 07/04/97 11:35 Page:495

   7759  1 000343   000000 702200 xent  ACCEPT_DEF_* TSX2  ! X66_ARET

     3841     7760
     3842     7761
     3843     7762                %BOX (TITLE="Re-examine successful parse of a LO_NAME node");

              7774    1   /***************************************************************************
              7776    1    *                                                                         *
              7780    1            *               Re-examine successful parse of a LO_NAME node            *
              7782    1            *                                                                        *
              7784    1          ***************************************************************************/

     3844     7788
     3845     7789    1   PROCESS_LO_NAME:
     3846     7790    1           IF PARM.CODE ~= %T_LO_NAME THEN

   7790  1 000344   002047 100003       PROCESS_LO_* CMPX0   1063,DU
         1 000345   000427 601000 1                  TNZ     PROCESS_LEVEL_NAME

     3847     7791    1              GOTO PROCESS_LEVEL_NAME;
     3848     7792
     3849     7793    1           IF START_CODE = %T_LO_NAME THEN

   7793  1 000346   000003 235000 0                  LDA     START_CODE
         1 000347   002047 115007                    CMPA    1063,DL
         1 000350   000352 601000 1                  TNZ     s:7795

     3850     7794    1              RETURN;

   7794  1 000351   000000 702200 xent               TSX2  ! X66_ARET

     3851     7795    1           LO_NAME_LOC = %CLEAR;

   7795  1 000352   000100 100400                    MLR     fill='000'O
         1 000353   000002 000001 xsym               ADSC9   B_VECTNIL+2              cn=0,n=1
         1 000354   200022 000044                    ADSC9   LO_NAME_LOC,,AUTO        cn=0,n=36
PL6.E3A0      #005=VDI$PUSER_PARSE_RTN File=VDI$PARSE.:VDA5TSI                   FRI 07/04/97 11:35 Page:496

     3852     7796    1           LO_NAME_LOC.KEY.TYPE# (%(LVL_LOWER-1)) = %KT_STRING;

   7796  1 000355   000002 220003                    LDX0    2,DU
         1 000356   200022 740100                    STX0    LO_NAME_LOC,,AUTO

     3853     7797    1           LO_NAME_LOC.KEY.REP# (%(LVL_LOWER-1)) = %REP_REMOTE;

   7797  1 000357   200022 440100                    SXL0    LO_NAME_LOC,,AUTO

     3854     7798    1           LO_NAME_LOC.KEY.V$ (%(LVL_LOWER-1)) = ADDR(USER_WORD);

   7798  1 000360   200006 631500                    EPPR1   USER_WORD,,AUTO
         1 000361   200023 451500                    STP1    LO_NAME_LOC+1,,AUTO

     3855     7799    1           USER_WORD.OBJECT = %CLEAR;

   7799  1 000362   200006 450100                    STZ     USER_WORD,,AUTO

     3856     7800    1           USER_WORD.OBJECT.CLASS# = %CLS_TEXTC_REMOTE;

   7800  1 000363   000053 221003                    LDX1    43,DU
         1 000364   200006 741100                    STX1    USER_WORD,,AUTO

     3857     7801    1           CALL VDA$LREAD (LOCATIONS$STREAM, LO_NAME_LOC, 0, %TRUE)

   7801  1 000365   000002 237000 2                  LDAQ    2
         1 000366   200056 757100                    STAQ    FILE_KEY+11,,AUTO
         1 000367   200022 633500                    EPPR3   LO_NAME_LOC,,AUTO
         1 000370   200055 453500                    STP3    FILE_KEY+10,,AUTO
         1 000371   000002 236000 xsym               LDQ     VD_6E+2
         1 000372   200054 756100                    STQ     FILE_KEY+9,,AUTO
         1 000373   200054 630500                    EPPR0   FILE_KEY+9,,AUTO
         1 000374   000022 631400 xsym               EPPR1   B_VECTNIL+18
         1 000375   000000 701000 xent               TSX1    VDA$LREAD
         1 000376   000756 702000 1                  TSX2    LREAD_FAILED

PL6.E3A0      #005=VDI$PUSER_PARSE_RTN File=VDI$PARSE.:VDA5TSI                   FRI 07/04/97 11:35 Page:497
     3858     7802    1             ALTRET (LREAD_FAILED);
     3859     7803
     3860     7804                %GETKEY (KEY=LOCATIONS$STREAM.PORT$->VD$PORT.CURRENT.KEY,
     3861     7805                INDX="%(LVL_LOWER-1)", PTR=PORT_KEY$);

   7812  1 000377   000002 470400 xsym               LDP0    VD_6E+2
         1 000400   000001 471500                    LDP1    1,,PR0
         1 000401   100012 720100                    LXL0    10,,PR1
         1 000402   000002 100003                    CMPX0   2,DU
         1 000403   000410 601000 1                  TNZ     s:7812+9

   7812  1 000404   100013 473500                    LDP3    11,,PR1
         1 000405   300002 634500                    EPPR4   2,,PR3
         1 000406   200033 454500                    STP4    PORT_KEY$,,AUTO
         1 000407   000412 710000 1                  TRA     s:7815

   7812  1 000410   100013 633500                    EPPR3   11,,PR1
         1 000411   200033 453500                    STP3    PORT_KEY$,,AUTO

     3862     7815    1           IF PORT$KEY.BYTES ~=

   7815  1 000412   200033 473500                    LDP3    PORT_KEY$,,AUTO
         1 000413   300000 236100                    LDQ     0,,PR3
         1 000414   000033 772000                    QRL     27
         1 000415   000000 621006                    EAX1    0,QL
         1 000416   200010 236100                    LDQ     USER_WORD+2,,AUTO
         1 000417   000033 772000                    QRL     27
         1 000420   000000 622006                    EAX2    0,QL
         1 000421   040140 106540                    CMPC    fill='040'O
         1 000422   300000 200011                    ADSC9   0,,PR3                   cn=1,n=*X1
         1 000423   200010 200012                    ADSC9   USER_WORD+2,,AUTO        cn=1,n=*X2
         1 000424   000426 600000 1                  TZE     s:7820

     3863     7816    2             SUBSTR(USER_WORD.BYTES, 0, USER_WORD.LENGTH#) THEN DO;

     3864     7817    2              GOTO REJECT_LO_NAME;

PL6.E3A0      #005=VDI$PUSER_PARSE_RTN File=VDI$PARSE.:VDA5TSI                   FRI 07/04/97 11:35 Page:498
   7817  1 000425   000737 710000 1                  TRA     REJECT_DEF_NAME

     3865     7818    2              END;
     3866     7819
     3867     7820    1           RETURN;

   7820  1 000426   000000 702200 xent               TSX2  ! X66_ARET

     3868     7821
     3869     7822
     3870     7823                %BOX (TITLE="Re-examine successful parse of a LEVEL_NAME node");

              7835    1   /***************************************************************************
              7837    1    *                                                                         *
              7841    1            *              Re-examine successful parse of a LEVEL_NAME node          *
              7843    1            *                                                                        *
              7845    1          ***************************************************************************/

     3871     7849
     3872     7850    1   PROCESS_LEVEL_NAME:
     3873     7851    1           IF PARM.CODE ~= %T_LEVEL_NAME THEN

   7851  1 000427   002054 100003       PROCESS_LEV* CMPX0   1068,DU
         1 000430   000536 601000 1                  TNZ     PROCESS_PREDEF_FILE_NAME

     3874     7852    1              GOTO PROCESS_PREDEF_FILE_NAME;
     3875     7853
     3876     7854    1           STRUCTURES_L0$ = STRUCTURES$STREAM.PORT$ ->

   7854  1 000431   000005 471400 xsym               LDP1    VD_6E+5
         1 000432   100001 473500                    LDP3    1,,PR1
         1 000433   300031 236100                    LDQ     25,,PR3
         1 000434   200034 756100                    STQ     STRUCTURES_L0$,,AUTO

     3877     7855    1             VD$PORT.LEVEL.INTERNAL$ (%LVL_FILE);
     3878     7856                /*STRUCTURES_L1$ = STRUCTURES$L0.HEAD$;*/
     3879     7857                /* For now, the only structure the user can ref is External */
PL6.E3A0      #005=VDI$PUSER_PARSE_RTN File=VDI$PARSE.:VDA5TSI                   FRI 07/04/97 11:35 Page:499
     3880     7858    1           STRUCTURES_L1$ = VD_6E.STRUCTURE_EXTERNAL$;

   7858  1 000435   000010 236000 xsym               LDQ     VD_6E+8
         1 000436   200035 756100                    STQ     STRUCTURES_L1$,,AUTO

     3881     7859
     3882     7860    1   FIND_STRUCTURE:
     3883     7861    2           DO WHILE STRUCTURES_L1$ ~= ADDR(NIL);

   7861  1 000437   000530 710000 1     FIND_STRUCT* TRA     s:7892

     3884     7862    2              STRUCTURES_L2$ = STRUCTURES$L1.HEAD$;

   7862  1 000440   200035 470500                    LDP0    STRUCTURES_L1$,,AUTO
         1 000441   000012 236100                    LDQ     10,,PR0
         1 000442   200036 756100                    STQ     STRUCTURES_L2$,,AUTO

     3885     7863    2              IF STRUCTURES_L2$ ~= ADDR(NIL) THEN

   7863  1 000443   000001 116000 xsym               CMPQ    B_VECTNIL+1
         1 000444   000450 600000 1                  TZE     s:7865

     3886     7864    2                 STRUCTURES_L2$ = STRUCTURES$L2.FLINK$; /* Get to lev 1 */

   7864  1 000445   200036 471500                    LDP1    STRUCTURES_L2$,,AUTO
         1 000446   100002 236100                    LDQ     2,,PR1
         1 000447   200036 756100                    STQ     STRUCTURES_L2$,,AUTO

     3887     7865    3              IF STRUCTURES_L2$ ~= ADDR(NIL) THEN DO;

   7865  1 000450   000001 116000 xsym               CMPQ    B_VECTNIL+1
         1 000451   000527 600000 1                  TZE     s:7891

     3888     7866                      %GETKEY (KEY=STRUCTURES$L2.DESC.KEY, PTR=LEVEL_KEY$);

   7873  1 000452   200036 471500                    LDP1    STRUCTURES_L2$,,AUTO
         1 000453   100004 720100                    LXL0    4,,PR1
PL6.E3A0      #005=VDI$PUSER_PARSE_RTN File=VDI$PARSE.:VDA5TSI                   FRI 07/04/97 11:35 Page:500
         1 000454   000002 100003                    CMPX0   2,DU
         1 000455   000462 601000 1                  TNZ     s:7873+8

   7873  1 000456   100005 473500                    LDP3    5,,PR1
         1 000457   300002 634500                    EPPR4   2,,PR3
         1 000460   200037 454500                    STP4    LEVEL_KEY$,,AUTO
         1 000461   000464 710000 1                  TRA     s:7876

   7873  1 000462   000005 036003                    ADLQ    5,DU
         1 000463   200037 756100                    STQ     LEVEL_KEY$,,AUTO

     3889     7876    3                 IF LEVEL$KEY.BYTES =

   7876  1 000464   200037 473500                    LDP3    LEVEL_KEY$,,AUTO
         1 000465   300000 236100                    LDQ     0,,PR3
         1 000466   000033 772000                    QRL     27
         1 000467   000000 621006                    EAX1    0,QL
         1 000470   200010 236100                    LDQ     USER_WORD+2,,AUTO
         1 000471   000033 772000                    QRL     27
         1 000472   000000 622006                    EAX2    0,QL
         1 000473   040140 106540                    CMPC    fill='040'O
         1 000474   300000 200011                    ADSC9   0,,PR3                   cn=1,n=*X1
         1 000475   200010 200012                    ADSC9   USER_WORD+2,,AUTO        cn=1,n=*X2
         1 000476   000532 600000 1                  TZE     s:7894

     3890     7877    3                   SUBSTR(USER_WORD.BYTES, 0, USER_WORD.LENGTH#) THEN
     3891     7878    3                    EXIT FIND_STRUCTURE;
     3892     7879    3                 IF SUBSTR(USER_WORD.BYTES, USER_WORD.LENGTH# -

   7879  1 000477   200010 236100                    LDQ     USER_WORD+2,,AUTO
         1 000500   000033 772000                    QRL     27
         1 000501   040000 106506                    CMPC    fill='040'O
         1 000502   200010 000001                    ADSC9   USER_WORD+2,Q,AUTO       cn=0,n=1
         1 000503   000001 000001 2                  ADSC9   1                        cn=0,n=1
         1 000504   000512 601000 1                  TNZ     s:7884
         1 000505   777777 622006                    EAX2    -1,QL
         1 000506   040140 106540                    CMPC    fill='040'O
PL6.E3A0      #005=VDI$PUSER_PARSE_RTN File=VDI$PARSE.:VDA5TSI                   FRI 07/04/97 11:35 Page:501
         1 000507   200010 200012                    ADSC9   USER_WORD+2,,AUTO        cn=1,n=*X2
         1 000510   300000 200011                    ADSC9   0,,PR3                   cn=1,n=*X1
         1 000511   000532 600000 1                  TZE     s:7894

     3893     7880    3                   %LENGTHC(CHR_PLURAL), %LENGTHC(CHR_PLURAL)) = %CHR_PLURAL
     3894     7881    3                   AND SUBSTR(USER_WORD.BYTES, 0, USER_WORD.LENGTH# -
     3895     7882    3                   %LENGTHC(CHR_PLURAL)) = LEVEL$KEY.BYTES THEN
     3896     7883    3                    EXIT FIND_STRUCTURE;
     3897     7884    3                 IF USER_WORD.LENGTH# = %NB_RESERVED_WORD_ABBREV

   7884  1 000512   000033 736000                    QLS     27
         1 000513   002000 116003                    CMPQ    1024,DU
         1 000514   000527 601000 1                  TNZ     s:7891
         1 000515   200010 236100                    LDQ     USER_WORD+2,,AUTO
         1 000516   000033 772000                    QRL     27
         1 000517   000000 622006                    EAX2    0,QL
         1 000520   200010 236100                    LDQ     USER_WORD+2,,AUTO
         1 000521   000033 772000                    QRL     27
         1 000522   000000 623006                    EAX3    0,QL
         1 000523   040140 106540                    CMPC    fill='040'O
         1 000524   300000 200012                    ADSC9   0,,PR3                   cn=1,n=*X2
         1 000525   200010 200013                    ADSC9   USER_WORD+2,,AUTO        cn=1,n=*X3
         1 000526   000532 600000 1                  TZE     s:7894

     3898     7885    3                   AND SUBSTR(LEVEL$KEY.BYTES, 0, USER_WORD.LENGTH#) =
     3899     7886    3                   SUBSTR(USER_WORD.BYTES, 0, USER_WORD.LENGTH#) THEN
     3900     7887    3                    EXIT FIND_STRUCTURE;
     3901     7888    3                 END;

     3902     7889                   /*STRUCTURES_L1$ = STRUCTURES$L1.FLINK$;*/
     3903     7890                   /* For now, the only structure the user can ref is External */
     3904     7891    2              GOTO REJECT_LEVEL_NAME;

   7891  1 000527   000737 710000 1                  TRA     REJECT_DEF_NAME

     3905     7892    2              END FIND_STRUCTURE;

PL6.E3A0      #005=VDI$PUSER_PARSE_RTN File=VDI$PARSE.:VDA5TSI                   FRI 07/04/97 11:35 Page:502
   7892  1 000530   000001 116000 xsym               CMPQ    B_VECTNIL+1
         1 000531   000440 601000 1                  TNZ     s:7862

     3906     7893
     3907     7894    1           IF STRUCTURES_L1$ = ADDR(NIL) THEN

   7894  1 000532   200035 236100                    LDQ     STRUCTURES_L1$,,AUTO
         1 000533   000001 116000 xsym               CMPQ    B_VECTNIL+1
         1 000534   000737 600000 1                  TZE     REJECT_DEF_NAME

     3908     7895    1              GOTO REJECT_LEVEL_NAME;
     3909     7896
     3910     7897
     3911     7898    1   ACCEPT_LEVEL_NAME:
     3912     7899    1           RETURN;

   7899  1 000535   000000 702200 xent  ACCEPT_LEVE* TSX2  ! X66_ARET

     3913     7900
     3914     7901
     3915     7902                %BOX (TITLE="Re-examine successful parse of a PREDEF_FILE_NAME node");

              7914    1   /***************************************************************************
              7916    1    *                                                                         *
              7920    1            *           Re-examine successful parse of a PREDEF_FILE_NAME node       *
              7922    1            *                                                                        *
              7924    1          ***************************************************************************/

     3916     7928
     3917     7929    1   PROCESS_PREDEF_FILE_NAME:
     3918     7930    1           IF PARM.CODE ~= %T_PREDEF_FILE_NAME THEN

   7930  1 000536   002000 100003       PROCESS_PRE* CMPX0   1024,DU
         1 000537   000541 600000 1                  TZE     s:7933

     3919     7931    1              RETURN;

PL6.E3A0      #005=VDI$PUSER_PARSE_RTN File=VDI$PARSE.:VDA5TSI                   FRI 07/04/97 11:35 Page:503
   7931  1 000540   000000 702200 xent               TSX2  ! X66_ARET

     3920     7932
     3921     7933    1           DIR_NODE$ = VD_6E.WS.INTERNAL_DIR$;

   7933  1 000541   000017 236000 xsym               LDQ     VD_6E+15
         1 000542   200040 756100                    STQ     DIR_NODE$,,AUTO

     3922     7934    1   EACH_DIR:
     3923     7935    2           DO WHILE DIR_NODE$ ~= ADDR(NIL);

   7935  1 000543   000735 710000 1     EACH_DIR     TRA     s:7976

     3924     7936    2              OUT$BLK.SCRITCH = POFFW(DIR_NODE$,EQUALS$STREAM.FILE_KEY.V$);

   7936  1 000544   200003 470500                    LDP0    @PARM,,AUTO
         1 000545   000002 471500                    LDP1    2,,PR0
         1 000546   000001 473400 xsym               LDP3    VD_6E+1
         1 000547   300005 236100                    LDQ     5,,PR3
         1 000550   000022 772000                    QRL     18
         1 000551   200054 756100                    STQ     FILE_KEY+9,,AUTO
         1 000552   200040 236100                    LDQ     DIR_NODE$,,AUTO
         1 000553   000022 772000                    QRL     18
         1 000554   200054 136100                    SBLQ    FILE_KEY+9,,AUTO
         1 000555   000000 620006                    EAX0    0,QL
         1 000556   100001 440100                    SXL0    1,,PR1

     3925     7937    2              CALL XLATE (FILE_KEY, B$XL_UPPER, DIR$NODE.KEY);

   7937  1 000557   200040 471500                    LDP1    DIR_NODE$,,AUTO
         1 000560   000000 473400 xsym               LDP3    B$XL_UPPER$
         1 000561   040100 160500                    MVT     fill='040'O
         1 000562   100003 000037                    ADSC9   3,,PR1                   cn=0,n=31
         1 000563   200043 000037                    ADSC9   FILE_KEY,,AUTO           cn=0,n=31
         1 000564   300000 000100                    ARG     0,,PR3

     3926     7938    2              IF SUBSTR(USER_WORD.BYTES, 0, USER_WORD.LENGTH#) = FILE_KEY THEN
PL6.E3A0      #005=VDI$PUSER_PARSE_RTN File=VDI$PARSE.:VDA5TSI                   FRI 07/04/97 11:35 Page:504

   7938  1 000565   200010 236100                    LDQ     USER_WORD+2,,AUTO
         1 000566   000033 772000                    QRL     27
         1 000567   000000 620006                    EAX0    0,QL
         1 000570   040100 106540                    CMPC    fill='040'O
         1 000571   200010 200010                    ADSC9   USER_WORD+2,,AUTO        cn=1,n=*X0
         1 000572   200043 000037                    ADSC9   FILE_KEY,,AUTO           cn=0,n=31
         1 000573   000755 600000 1                  TZE     ACCEPT_PREDEF_FILE_NAME

     3927     7939    2                 GOTO ACCEPT_PREDEF_FILE_NAME;
     3928     7940    2              IF USER_WORD.LENGTH# = %NB_RESERVED_WORD_ABBREV

   7940  1 000574   200010 236100                    LDQ     USER_WORD+2,,AUTO
         1 000575   777000 376003                    ANQ     -512,DU
         1 000576   002000 116003                    CMPQ    1024,DU
         1 000577   000612 601000 1                  TNZ     s:7945
         1 000600   200010 236100                    LDQ     USER_WORD+2,,AUTO
         1 000601   000033 772000                    QRL     27
         1 000602   000000 620006                    EAX0    0,QL
         1 000603   200010 236100                    LDQ     USER_WORD+2,,AUTO
         1 000604   000033 772000                    QRL     27
         1 000605   000000 621006                    EAX1    0,QL
         1 000606   040140 106540                    CMPC    fill='040'O
         1 000607   200010 200010                    ADSC9   USER_WORD+2,,AUTO        cn=1,n=*X0
         1 000610   200043 000011                    ADSC9   FILE_KEY,,AUTO           cn=0,n=*X1
         1 000611   000755 600000 1                  TZE     ACCEPT_PREDEF_FILE_NAME

     3929     7941    2                AND SUBSTR(USER_WORD.BYTES, 0, USER_WORD.LENGTH#) =
     3930     7942    2                SUBSTR(FILE_KEY, 0, USER_WORD.LENGTH#) THEN
     3931     7943    2                 GOTO ACCEPT_PREDEF_FILE_NAME;
     3932     7944
     3933     7945    2              FILE_NODE$ = DIR$NODE.HEAD$;

   7945  1 000612   100015 236100                    LDQ     13,,PR1
         1 000613   200041 756100                    STQ     FILE_NODE$,,AUTO

     3934     7946    2   EACH_FILE_IN_DIR:
PL6.E3A0      #005=VDI$PUSER_PARSE_RTN File=VDI$PARSE.:VDA5TSI                   FRI 07/04/97 11:35 Page:505
     3935     7947    3              DO WHILE FILE_NODE$ ~= ADDR(NIL);

   7947  1 000614   000730 710000 1     EACH_FILE_I* TRA     s:7974

     3936     7948                      %GETKEY (KEY=FILE$NODE.DESC.KEY, PTR=FILE_KEY$);

   7955  1 000615   200041 470500                    LDP0    FILE_NODE$,,AUTO
         1 000616   000004 720100                    LXL0    4,,PR0
         1 000617   000002 100003                    CMPX0   2,DU
         1 000620   000625 601000 1                  TNZ     s:7955+8

   7955  1 000621   000005 471500                    LDP1    5,,PR0
         1 000622   100002 633500                    EPPR3   2,,PR1
         1 000623   200042 453500                    STP3    FILE_KEY$,,AUTO
         1 000624   000630 710000 1                  TRA     s:7958

   7955  1 000625   200041 236100                    LDQ     FILE_NODE$,,AUTO
         1 000626   000005 036003                    ADLQ    5,DU
         1 000627   200042 756100                    STQ     FILE_KEY$,,AUTO

     3937     7958    3                 OUT$BLK.SCRITCH =

   7958  1 000630   200003 471500                    LDP1    @PARM,,AUTO
         1 000631   100002 473500                    LDP3    2,,PR1
         1 000632   000001 474400 xsym               LDP4    VD_6E+1
         1 000633   400005 236100                    LDQ     5,,PR4
         1 000634   000022 772000                    QRL     18
         1 000635   200054 756100                    STQ     FILE_KEY+9,,AUTO
         1 000636   000005 236100                    LDQ     5,,PR0
         1 000637   000022 772000                    QRL     18
         1 000640   200054 136100                    SBLQ    FILE_KEY+9,,AUTO
         1 000641   000000 620006                    EAX0    0,QL
         1 000642   300001 440100                    SXL0    1,,PR3

     3938     7959    3                   POFFW(FILE$NODE.DESC.KEY.V$,EQUALS$STREAM.FILE_KEY.V$);
     3939     7960    3                 CALL XLATE (FILE_KEY, B$XL_UPPER, FILE$KEY.BYTES);

PL6.E3A0      #005=VDI$PUSER_PARSE_RTN File=VDI$PARSE.:VDA5TSI                   FRI 07/04/97 11:35 Page:506
   7960  1 000643   200042 473500                    LDP3    FILE_KEY$,,AUTO
         1 000644   300000 236100                    LDQ     0,,PR3
         1 000645   000033 772000                    QRL     27
         1 000646   000000 620006                    EAX0    0,QL
         1 000647   000000 474400 xsym               LDP4    B$XL_UPPER$
         1 000650   040100 160540                    MVT     fill='040'O
         1 000651   300000 200010                    ADSC9   0,,PR3                   cn=1,n=*X0
         1 000652   200043 000037                    ADSC9   FILE_KEY,,AUTO           cn=0,n=31
         1 000653   400000 000100                    ARG     0,,PR4

     3940     7961    3                 CALL INDEX1R (I, %CHR_UNDERSCORE, FILE_KEY, FILE$KEY.LENGTH#)

   7961  1 000654   000000 125540                    SCMR    mask='000'O
         1 000655   200043 000010                    ADSC9   FILE_KEY,,AUTO           cn=0,n=*X0
         1 000656   000004 000001 2                  ADSC9   4                        cn=0,n=1
         1 000657   200005 000100                    ARG     I,,AUTO
         1 000660   000664 606400 1                  TTN     s:7963
         1 000661   200005 054100                    AOS     I,,AUTO
         1 000662   200005 156100                    SSQ     I,,AUTO
         1 000663   000670 710000 1                  TRA     s:7965

     3941     7962    4                 WHENALTRETURN DO;

     3942     7963    4                    CALL VDG$ESCREECH (FILE$KEY.LENGTH#);

   7963  1 000664   200042 630500                    EPPR0   FILE_KEY$,,AUTO
         1 000665   000017 631400 xsym               EPPR1   B_VECTNIL+15
         1 000666   000000 701000 xent               TSX1    VDG$ESCREECH
         1 000667   000000 011000                    NOP     0

     3943     7964    4                    END;

     3944     7965    3                 I = I + 1;

   7965  1 000670   200005 235100                    LDA     I,,AUTO
         1 000671   000001 035007                    ADLA    1,DL
         1 000672   200005 755100                    STA     I,,AUTO
PL6.E3A0      #005=VDI$PUSER_PARSE_RTN File=VDI$PARSE.:VDA5TSI                   FRI 07/04/97 11:35 Page:507

     3945     7966    3                 IF SUBSTR(USER_WORD.BYTES, 0, USER_WORD.LENGTH#) =

   7966  1 000673   200010 236100                    LDQ     USER_WORD+2,,AUTO
         1 000674   000033 772000                    QRL     27
         1 000675   200042 470500                    LDP0    FILE_KEY$,,AUTO
         1 000676   000000 620006                    EAX0    0,QL
         1 000677   000000 236100                    LDQ     0,,PR0
         1 000700   000033 772000                    QRL     27
         1 000701   200005 136100                    SBLQ    I,,AUTO
         1 000702   000000 621006                    EAX1    0,QL
         1 000703   040145 106540                    CMPC    fill='040'O
         1 000704   200010 200010                    ADSC9   USER_WORD+2,,AUTO        cn=1,n=*X0
         1 000705   200043 000011                    ADSC9   FILE_KEY,A,AUTO          cn=0,n=*X1
         1 000706   000755 600000 1                  TZE     ACCEPT_PREDEF_FILE_NAME

     3946     7967    3                   SUBSTR(FILE_KEY, I, FILE$KEY.LENGTH# - I) THEN
     3947     7968    3                    GOTO ACCEPT_PREDEF_FILE_NAME;
     3948     7969    3                 IF USER_WORD.LENGTH# = %NB_RESERVED_WORD_ABBREV

   7969  1 000707   200010 236100                    LDQ     USER_WORD+2,,AUTO
         1 000710   777000 376003                    ANQ     -512,DU
         1 000711   002000 116003                    CMPQ    1024,DU
         1 000712   000725 601000 1                  TNZ     s:7973
         1 000713   200010 236100                    LDQ     USER_WORD+2,,AUTO
         1 000714   000033 772000                    QRL     27
         1 000715   000000 620006                    EAX0    0,QL
         1 000716   200010 236100                    LDQ     USER_WORD+2,,AUTO
         1 000717   000033 772000                    QRL     27
         1 000720   000000 621006                    EAX1    0,QL
         1 000721   040145 106540                    CMPC    fill='040'O
         1 000722   200010 200010                    ADSC9   USER_WORD+2,,AUTO        cn=1,n=*X0
         1 000723   200043 000011                    ADSC9   FILE_KEY,A,AUTO          cn=0,n=*X1
         1 000724   000755 600000 1                  TZE     ACCEPT_PREDEF_FILE_NAME

     3949     7970    3                   AND SUBSTR(USER_WORD.BYTES, 0, USER_WORD.LENGTH#) =
     3950     7971    3                   SUBSTR(FILE_KEY, I, USER_WORD.LENGTH#) THEN
PL6.E3A0      #005=VDI$PUSER_PARSE_RTN File=VDI$PARSE.:VDA5TSI                   FRI 07/04/97 11:35 Page:508
     3951     7972    3                    GOTO ACCEPT_PREDEF_FILE_NAME;
     3952     7973    3                 FILE_NODE$ = FILE$NODE.FLINK$;

   7973  1 000725   200041 471500                    LDP1    FILE_NODE$,,AUTO
         1 000726   100002 236100                    LDQ     2,,PR1
         1 000727   200041 756100                    STQ     FILE_NODE$,,AUTO

     3953     7974    3                 END EACH_FILE_IN_DIR;

   7974  1 000730   000001 116000 xsym               CMPQ    B_VECTNIL+1
         1 000731   000615 601000 1                  TNZ     s:7955

     3954     7975    2              DIR_NODE$ = DIR$NODE.FLINK$;

   7975  1 000732   200040 470500                    LDP0    DIR_NODE$,,AUTO
         1 000733   000002 236100                    LDQ     2,,PR0
         1 000734   200040 756100                    STQ     DIR_NODE$,,AUTO

     3955     7976    2              END EACH_DIR;

   7976  1 000735   000001 116000 xsym               CMPQ    B_VECTNIL+1
         1 000736   000544 601000 1                  TNZ     s:7936

   7969  1 000737                       REJECT_DEF_* null
     3956     7977
     3957     7978
     3958     7979    1   REJECT_DEF_NAME:;
     3959     7980    1   REJECT_LEVEL_NAME:;

   7980  1 000737                       REJECT_LEVE* null
   7980  1 000737                       REJECT_LO_N* null
     3960     7981    1   REJECT_LO_NAME:;
     3961     7982    1   REJECT_PREDEF_FILE_NAME:
     3962     7983    1           PARM.REJECT = %TRUE;

   7983  1 000737   200003 470500       REJECT_PRED* LDP0    @PARM,,AUTO
         1 000740   000200 236003                    LDQ     128,DU
PL6.E3A0      #005=VDI$PUSER_PARSE_RTN File=VDI$PARSE.:VDA5TSI                   FRI 07/04/97 11:35 Page:509
         1 000741   000000 256100                    ORSQ    0,,PR0

     3963     7984    1           IF PARM.TYPE = %PRE# THEN RETURN;

   7984  1 000742   000000 236100                    LDQ     0,,PR0
         1 000743   777000 376003                    ANQ     -512,DU
         1 000744   001000 116003                    CMPQ    512,DU
         1 000745   000747 601000 1                  TNZ     s:7985

   7984  1 000746   000000 702200 xent               TSX2  ! X66_ARET

     3964     7985    1           PARM.CHARPOS = START_CPOS;

   7985  1 000747   000001 235000 0                  LDA     START_CPOS
         1 000750   000004 755100                    STA     4,,PR0

     3965     7986    1           P$PCB.HI_CHAR = START_HI_CHAR;

   7986  1 000751   000005 471500                    LDP1    5,,PR0
         1 000752   000002 235000 0                  LDA     START_HI_CHAR
         1 000753   100012 755100                    STA     10,,PR1

     3966     7987    1           RETURN;

   7987  1 000754   000000 702200 xent               TSX2  ! X66_ARET

     3967     7988
     3968     7989
     3969     7990    1   ACCEPT_PREDEF_FILE_NAME:
     3970     7991    1           RETURN;

   7991  1 000755   000000 702200 xent  ACCEPT_PRED* TSX2  ! X66_ARET

     3971     7992
     3972     7993
     3973     7994                %BOX (TITLE="Error Handlers");

PL6.E3A0      #005=VDI$PUSER_PARSE_RTN File=VDI$PARSE.:VDA5TSI                   FRI 07/04/97 11:35 Page:510
              8006    1   /***************************************************************************
              8008    1    *                                                                         *
              8012    1            *                               Error Handlers                           *
              8014    1            *                                                                        *
              8016    1          ***************************************************************************/

     3974     8020
     3975     8021    1   LREAD_FAILED:
     3976     8022    1           PARM.REJECT = %TRUE;

   8022  1 000756   200003 470500       LREAD_FAILED LDP0    @PARM,,AUTO
         1 000757   000200 236003                    LDQ     128,DU
         1 000760   000000 256100                    ORSQ    0,,PR0

     3977     8023    1           RETURN;

   8023  1 000761   000000 702200 xent               TSX2  ! X66_ARET
     3978     8024
     3979     8025    1   END VDI$PUSER_PARSE_RTN;
     3980     8026        %EOD;

PL6.E3A0      #005=VDI$PUSER_PARSE_RTN File=VDI$PARSE.:VDA5TSI                   FRI 07/04/97 11:35 Page:511
--  Include file information  --

   B$TABLES_C.:LIBRARY  cannot be made into a system file and is referenced.
   XU_SUBS_C.:LIBRARY  is referenced.
   XU_MACRO_C.:LIBRARY  is referenced.
   VD_NODES0_E.:VDA5TOU  is referenced.
   VD_PERR_C.:VDA5TOU  is referenced.
   VD_MACROS_M.:VDA5TOU  is referenced.
   B$JIT_C.:E04TOU  was found in the system file and is never referenced.
   CP_6_C.:E04TOU  was found in the system file and is never referenced.
      No diagnostics issued in procedure VDI$PUSER_PARSE_RTN.
PL6.E3A0      #005=VDI$PUSER_PARSE_RTN File=VDI$PARSE.:VDA5TSI                   FRI 07/04/97 11:35 Page:512

 **** Variables and constants ****

  ****  Section 000  Data  VDI$PUSER_PARSE_RTN

  ****  Scalars and arrays  ****
OctLoc.c.b A Datatyp(siz) R M Lvl/name                 OctLoc.c.b A Datatyp(siz) R M Lvl/name

     3-0-0/w UBIN        r     1 START_CODE                 1-0-0/w UBIN        r     1 START_CPOS
     2-0-0/w UBIN        r     1 START_HI_CHAR              0-0-0/w SBIN        r     1 VD_RPAREN_POS

  ****  Auto variables  ****

  ****  Scalars and arrays  ****
OctLoc.c.b A Datatyp(siz) R M Lvl/name                 OctLoc.c.b A Datatyp(siz) R M Lvl/name

     3-0-0/w PTR         r     1 @PARM                     40-0-0/w PTR         r     1 DIR_NODE$
    43-0-0/c CHAR(31)    r     1 FILE_KEY                  42-0-0/w PTR         r     1 FILE_KEY$
    41-0-0/w PTR         r     1 FILE_NODE$                 5-0-0/w UBIN        r     1 I
    37-0-0/w PTR         r     1 LEVEL_KEY$                22-0-0/w STRC(324)   r     1 LO_NAME_LOC
     4-0-0/w PTR         r     1 OUT_SYM$                  *0-0-0/w STRC(270)   r     1 PARM
    33-0-0/w PTR         r     1 PORT_KEY$                 34-0-0/w PTR         r     1 STRUCTURES_L0$
    35-0-0/w PTR         r     1 STRUCTURES_L1$            36-0-0/w PTR         r     1 STRUCTURES_L2$
    20-0-0/w PTR         r     1 TABLE_WORD$               21-0-0/w UBIN        r     1 TABLE_WORD_LN
     6-0-0/w STRC(360)   r     1 USER_WORD

  ****  SYMREF variables  ****

  ****  Scalars and arrays  ****
OctLoc.c.b A Datatyp(siz) R M Lvl/name                 OctLoc.c.b A Datatyp(siz) R M Lvl/name

     0-0-0/w PTR         r     1 B$XL_UPPER$                0-0-0/w STRC(22644) r     1 VD_6E
     0-0-0/w PTR         r     1 VD_RESERVED_TABLE$(0:15)

  ****  BASED and DCB variables  ****

  ****  Scalars and arrays  ****
OctLoc.c.b A Datatyp(siz) R M Lvl/name                 OctLoc.c.b A Datatyp(siz) R M Lvl/name
PL6.E3A0      #005=VDI$PUSER_PARSE_RTN File=VDI$PARSE.:VDA5TSI                   FRI 07/04/97 11:35 Page:513

     0-0-0/d STRC(4608)  r     1 B$XL_UPPER                 0-0-0/w STRC(576)   r     1 DIR$NODE
     0-0-0/w STRC(864)   r     1 EQUALS$STREAM              0-0-0/w ASTR(9)     r     1 FILE$KEY
     0-0-0/w STRC(468)   r     1 FILE$NODE                  0-0-0/w ASTR(9)     r     1 LEVEL$KEY
     0-0-0/w STRC(864)   r     1 LOCATIONS$STREAM           0-0-0/w STRC(144)   r     1 OUT$BLK
     0-0-0/w ASTR(153)   r     1 OUT$SYM                    0-0-0/w STRC(504)   r     1 P$PCB
     0-0-0/w ASTR(9)     r     1 PORT$KEY                   0-0-0/w STRC(468)   r     1 STRUCTURES$L0
     0-0-0/w STRC(468)   r     1 STRUCTURES$L1              0-0-0/w STRC(468)   r     1 STRUCTURES$L2
     0-0-0/w STRC(864)   r     1 STRUCTURES$STREAM          0-0-0/c ACHR        r     1 TABLE$WORD
     0-0-0/c UBIN(9)     r     1 UBYT(0:0)                  0-0-0/w STRC(1944)  r     1 VD$PORT
     0-0-0/w ASTR(81)    r     1 VD$TEXTC_REMOTE


   Procedure VDI$PUSER_PARSE_RTN requires 498 words for executable code.
   Procedure VDI$PUSER_PARSE_RTN requires 48 words of local(AUTO) storage.
PL6.E3A0      #005=VDI$PUSER_PARSE_RTN File=VDI$PARSE.:VDA5TSI                   FRI 07/04/97 11:35 Page:514
          *** CROSS REFERENCE LISTING ***
**     DENOTES     IDENTIFIER DEFINITION
<<                 IDENTIFIER'S VALUE SET
>>                 IDENTIFIER'S VALUE USED
<>                 IDENTIFIER SET AND/OR USED
--                 IDENTIFIER REFERENCED
PL6.E3A0      #005=VDI$PUSER_PARSE_RTN File=VDI$PARSE.:VDA5TSI                   FRI 07/04/97 11:35 Page:515
          MINI XREF LISTING

ACCEPT_DEF_NAME
      7759**LABEL    7667--GOTO     7674--GOTO     7677--GOTO     7681--GOTO     7686--GOTO
ACCEPT_PREDEF_FILE_NAME
      7991**LABEL    7939--GOTO     7943--GOTO     7968--GOTO     7972--GOTO
B$XL_UPPER
      5980**DCL      7693>>CALLBLT  7937>>CALLBLT  7960>>CALLBLT
B$XL_UPPER$
      5979**DCL      5980--IMP-PTR  7693>>CALLBLT  7937>>CALLBLT  7960>>CALLBLT
DIR$NODE.FLINK$
      7273**DCL      7975>>ASSIGN
DIR$NODE.HEAD$
      7274**DCL      7945>>ASSIGN
DIR$NODE.KEY
      7273**DCL      7937>>CALLBLT
DIR_NODE$
      6093**DCL      7247--IMP-PTR  7669<<ASSIGN   7671>>ASSIGN   7672>>IF       7673>>ASSIGN   7676>>IF
      7680>>IF       7682>>ASSIGN   7684>>IF       7933<<ASSIGN   7935>>DOWHILE  7936>>ASSIGN   7937>>CALLBLT
      7945>>ASSIGN   7975<<ASSIGN   7975>>ASSIGN
EACH_TABLE
      7705**LABEL    7708--EXIT
EACH_TABLE_WORD
      7711**LABEL    7715--EXIT
EQUALS$STREAM.FILE_KEY.V$
      6431**DCL      7936>>ASSIGN   7958>>ASSIGN
FILE$KEY.BYTES
      7437**DCL      7960>>CALLBLT
FILE$KEY.LENGTH#
      7435**DCL      7437--IMP-SIZ  7960>>CALLBLT  7961>>CALLBLT  7963<>CALL     7966>>IF
FILE$NODE.DESC.KEY.REP#
      7350**DCL      7955>>IF
FILE$NODE.DESC.KEY.V$
      7350**DCL      7955>>ASSIGN   7955--ASSIGN   7958>>ASSIGN
PL6.E3A0      #005=VDI$PUSER_PARSE_RTN File=VDI$PARSE.:VDA5TSI                   FRI 07/04/97 11:35 Page:516
FILE$NODE.FLINK$
      7311**DCL      7973>>ASSIGN
FILE_KEY
      6096**DCL      7937<<CALLBLT  7938>>IF       7940>>IF       7960<<CALLBLT  7961>>CALLBLT  7966>>IF
      7969>>IF
FILE_KEY$
      6095**DCL      7427--IMP-PTR  7955<<ASSIGN   7955<<ASSIGN   7960>>CALLBLT  7960>>CALLBLT  7961>>CALLBLT
      7963>>CALL     7966>>IF
FILE_NODE$
      6094**DCL      7285--IMP-PTR  7945<<ASSIGN   7947>>DOWHILE  7955>>IF       7955>>ASSIGN   7955>>ASSIGN
      7958>>ASSIGN   7973<<ASSIGN   7973>>ASSIGN
FIND_STRUCTURE
      7861**LABEL    7878--EXIT     7883--EXIT     7887--EXIT
I
      5994**DCL      7961<<CALLBLT  7965<<ASSIGN   7965>>ASSIGN   7966>>IF       7966>>IF       7969>>IF
LEVEL$KEY.BYTES
      7234**DCL      7746>>IF       7749>>IF       7876>>IF       7879>>IF       7884>>IF
LEVEL$KEY.LENGTH#
      7232**DCL      7234--IMP-SIZ  7746>>IF       7749>>IF       7876>>IF       7879>>IF       7884>>IF
LEVEL_KEY$
      6092**DCL      7224--IMP-PTR  7743<<ASSIGN   7743<<ASSIGN   7746>>IF       7746>>IF       7749>>IF
      7749>>IF       7873<<ASSIGN   7873<<ASSIGN   7876>>IF       7876>>IF       7879>>IF       7879>>IF
      7884>>IF       7884>>IF
LOCATIONS$STREAM
      6498**DCL      7801<>CALL
LOCATIONS$STREAM.PORT$
      6524**DCL      7812>>IF       7812>>ASSIGN   7812>>ASSIGN
LO_NAME_LOC
      6068**DCL      7795<<ASSIGN   7801<>CALL
LO_NAME_LOC.KEY.REP#
      6084**DCL      7797<<ASSIGN
LO_NAME_LOC.KEY.TYPE#
      6084**DCL      7796<<ASSIGN
LO_NAME_LOC.KEY.V$
      6084**DCL      7798<<ASSIGN
LREAD_FAILED
PL6.E3A0      #005=VDI$PUSER_PARSE_RTN File=VDI$PARSE.:VDA5TSI                   FRI 07/04/97 11:35 Page:517
      8022**LABEL    7801--CALLALT
OUT$BLK.CPOS
      6332**DCL      7665>>IF
OUT$BLK.SCRITCH
      6322**DCL      7936<<ASSIGN   7958<<ASSIGN
OUT$BLK.SUBLK$
      6339**DCL      7659>>ASSIGN   7662>>ASSIGN   7662>>ASSIGN   7669>>ASSIGN   7669>>ASSIGN   7669>>ASSIGN
      7669>>ASSIGN
OUT$SYM.CODE
      6358**DCL      7662<<ASSIGN   7662>>ASSIGN   7664>>IF       7666<<ASSIGN   7671<<ASSIGN   7672>>IF
      7673<<ASSIGN   7673>>ASSIGN   7676>>IF       7678<<ASSIGN   7678>>ASSIGN   7679>>IF       7679<<ASSIGN
      7679>>ASSIGN   7682<<ASSIGN   7682>>ASSIGN   7685<<ASSIGN   7685>>ASSIGN   7689>>IF
OUT$SYM.COUNT
      6375**DCL      6378--IMP-SIZ  7680>>IF       7692>>ASSIGN   7693>>CALLBLT  7699>>IF       7699>>IF
OUT$SYM.TEXT
      6378**DCL      7671--ASSIGN   7682--ASSIGN   7684--IF       7693>>CALLBLT  7699>>IF       7699>>IF
OUT_SYM$
      5993**DCL      6352--IMP-PTR  7659<<ASSIGN   7662>>ASSIGN   7662>>ASSIGN   7664>>IF       7666>>ASSIGN
      7669>>ASSIGN   7671>>ASSIGN   7673>>ASSIGN   7678>>ASSIGN   7678>>ASSIGN   7679>>IF       7679>>ASSIGN
      7679>>ASSIGN   7682>>ASSIGN   7682>>ASSIGN   7685>>ASSIGN   7685>>ASSIGN   7689>>IF       7692>>ASSIGN
      7693>>CALLBLT  7693>>CALLBLT  7699>>IF       7699>>IF       7699>>IF       7699>>IF
P$PCB.HI_CHAR
      6269**DCL      7606>>ASSIGN   7986<<ASSIGN
P$PCB.NXT
      6168**DCL      7609>>IF
PARM
      5873**DCL       100--PROC
PARM.CHARPOS
      5911**DCL      7605>>ASSIGN   7985<<ASSIGN
PARM.CODE
      5894**DCL      7602>>IF       7607>>IF       7612>>IF       7614>>ASSIGN   7648>>IF       7661>>IF
      7695>>IF       7720>>IF       7790>>IF       7851>>IF       7930>>IF
PARM.OUT$
      5903**DCL      6306--IMP-PTR  7659>>ASSIGN   7665>>IF       7936>>ASSIGN   7958>>ASSIGN
PARM.PCB$
      5917**DCL      6118--IMP-PTR  7606>>ASSIGN   7609>>IF       7986>>ASSIGN
PL6.E3A0      #005=VDI$PUSER_PARSE_RTN File=VDI$PARSE.:VDA5TSI                   FRI 07/04/97 11:35 Page:518
PARM.REJECT
      5885**DCL      7610<<ASSIGN   7983<<ASSIGN   8022<<ASSIGN
PARM.TYPE
      5874**DCL      7603>>IF       7646>>IF       7984>>IF
PORT$KEY.BYTES
      6932**DCL      7815>>IF
PORT$KEY.LENGTH#
      6930**DCL      6932--IMP-SIZ  7815>>IF
PORT_KEY$
      6088**DCL      6922--IMP-PTR  7812<<ASSIGN   7812<<ASSIGN   7815>>IF       7815>>IF
PROCESS_LEVEL_NAME
      7851**LABEL    7791--GOTO
PROCESS_LO_NAME
      7790**LABEL    7721--GOTO
PROCESS_PREDEF_FILE_NAME
      7930**LABEL    7696--GOTO     7852--GOTO
REJECT_DEF_NAME
      7969**LABEL    7690--GOTO     7701--GOTO     7713--GOTO     7748--GOTO     7752--GOTO
REJECT_LEVEL_NAME
      7980**LABEL    7891--GOTO     7895--GOTO
REJECT_LO_NAME
      7980**LABEL    7817--GOTO
START_CODE
      5989**DCL      7612>>IF       7614<<ASSIGN   7665>>IF       7665>>IF       7793>>IF
START_CPOS
      5987**DCL      7605<<ASSIGN   7609>>IF       7655>>ASSIGN   7665>>IF       7985>>ASSIGN
START_HI_CHAR
      5988**DCL      7606<<ASSIGN   7609>>IF       7986>>ASSIGN
STRUCTURES$L0.HEAD$
      7028**DCL      7730>>ASSIGN
STRUCTURES$L1.FLINK$
      7064**DCL      7755>>ASSIGN
STRUCTURES$L1.HEAD$
      7121**DCL      7733>>ASSIGN   7862>>ASSIGN
STRUCTURES$L2.DESC.KEY.REP#
      7196**DCL      7743>>IF       7873>>IF
PL6.E3A0      #005=VDI$PUSER_PARSE_RTN File=VDI$PARSE.:VDA5TSI                   FRI 07/04/97 11:35 Page:519
STRUCTURES$L2.DESC.KEY.V$
      7196**DCL      7743>>ASSIGN   7743--ASSIGN   7873>>ASSIGN   7873--ASSIGN
STRUCTURES$L2.FLINK$
      7157**DCL      7753>>ASSIGN   7864>>ASSIGN
STRUCTURES$STREAM.PORT$
      6842**DCL      7728>>ASSIGN   7854>>ASSIGN
STRUCTURES_L0$
      6089**DCL      6945--IMP-PTR  7728<<ASSIGN   7730>>ASSIGN   7854<<ASSIGN
STRUCTURES_L1$
      6090**DCL      7038--IMP-PTR  7730<<ASSIGN   7732>>DOWHILE  7733>>ASSIGN   7755<<ASSIGN   7755>>ASSIGN
      7858<<ASSIGN   7861>>DOWHILE  7862>>ASSIGN   7894>>IF
STRUCTURES_L2$
      6091**DCL      7131--IMP-PTR  7733<<ASSIGN   7735>>DOWHILE  7743>>IF       7743>>ASSIGN   7743>>ASSIGN
      7753<<ASSIGN   7753>>ASSIGN   7862<<ASSIGN   7863>>IF       7864<<ASSIGN   7864>>ASSIGN   7865>>IF
      7873>>IF       7873>>ASSIGN   7873>>ASSIGN
TABLE$WORD
      6383**DCL      7711>>DOUNTIL  7712>>IF       7712>>IF       7714>>IF       7714>>IF
TABLE_WORD$
      6058**DCL      6383--IMP-PTR  7706<<ASSIGN   7707>>IF       7711>>DOUNTIL  7712>>IF       7714>>IF
      7716<<ASSIGN   7716>>ASSIGN
TABLE_WORD_LN
      6059**DCL      6383--IMP-SIZ  7703<<ASSIGN   7704>>IF       7706>>ASSIGN   7711>>DOUNTIL  7712>>IF
      7712>>IF       7714>>IF       7714>>IF       7716>>ASSIGN
UBYT
      6299**DCL      7671>>ASSIGN   7682>>ASSIGN   7684>>IF
USER_WORD
      6021**DCL      7798--ASSIGN
USER_WORD.BYTES
      6054**DCL      7693<<CALLBLT  7712--IF       7714--IF       7746>>IF       7749>>IF       7815>>IF
      7876>>IF       7879>>IF       7879>>IF       7884>>IF       7938>>IF       7940>>IF       7966>>IF
      7969>>IF
USER_WORD.LENGTH#
      6050**DCL      7692<<ASSIGN   7703>>ASSIGN   7746>>IF       7749>>IF       7749>>IF       7749>>IF
      7815>>IF       7876>>IF       7879>>IF       7879>>IF       7884>>IF       7884>>IF       7884>>IF
      7938>>IF       7940>>IF       7940>>IF       7940>>IF       7966>>IF       7969>>IF       7969>>IF
      7969>>IF
PL6.E3A0      #005=VDI$PUSER_PARSE_RTN File=VDI$PARSE.:VDA5TSI                   FRI 07/04/97 11:35 Page:520
USER_WORD.OBJECT
      6046**DCL      7799<<ASSIGN
USER_WORD.OBJECT.CLASS#
      6048**DCL      7800<<ASSIGN
VD$PORT.CURRENT.KEY.REP#
      7517**DCL      7812>>IF
VD$PORT.CURRENT.KEY.V$
      7517**DCL      7812>>ASSIGN   7812--ASSIGN
VD$PORT.LEVEL.INTERNAL$
      7537**DCL      7728>>ASSIGN   7854>>ASSIGN
VD$TEXTC_REMOTE.LENGTH#
      7594**DCL      7596--IMP-SIZ  7743--ASSIGN   7812--ASSIGN   7873--ASSIGN   7955--ASSIGN
VDA$LREAD
      5938**DCL-ENT  7801--CALL
VDG$ESCREECH
      5939**DCL-ENT  7963--CALL
VD_6E.EQUALS$
      5955**DCL      6392--IMP-PTR  7936>>ASSIGN   7958>>ASSIGN
VD_6E.KEYINS$
      5955**DCL      6710--IMP-PTR
VD_6E.LOCATIONS$
      5955**DCL      6498--IMP-PTR  7801>>CALL     7812>>IF       7812>>ASSIGN   7812>>ASSIGN
VD_6E.STRUCTURES$
      5955**DCL      6816--IMP-PTR  7728>>ASSIGN   7854>>ASSIGN
VD_6E.STRUCTURE_EXTERNAL$
      5956**DCL      7858>>ASSIGN
VD_6E.SYNONYMS$
      5955**DCL      6604--IMP-PTR
VD_6E.WS.INTERNAL_DIR$
      5958**DCL      7933>>ASSIGN
VD_RESERVED_TABLE$
      5982**DCL      7706>>ASSIGN
VD_RPAREN_POS
      5985**DCL      7615<<ASSIGN   7655<<ASSIGN

PL6.E3A0      #006=VDI$PGLOBAL_COMMANDS File=VDI$PARSE.:VDA5TSI                  FRI 07/04/97 11:35 Page:521
     3981        1        /*T***********************************************************/
     3982        2        /*T*                                                         */
     3983        3        /*T* Copyright (c) Bull HN Information Systems Inc., 1997    */
     3984        4        /*T*                                                         */
     3985        5        /*T***********************************************************/
     3986        6
     3987        7        /*D* NAME: VDI$PGLOBAL_COMMANDS
     3988        8            PARAMETERS:
     3989        9                XUG_GETCMD - The %XUG_GETCMD structure we're using.
     3990       10                CODE - Word containing the %XUG_CMD_ code for the global command
     3991       11                    we're about to execute.
     3992       12            INPUT:
     3993       13                VD_COMMAND_WINDOW$ - Points to the VD$FILE_NODE for the
     3994       14                    command window.
     3995       15                VD_$MAX_COMMAND must contain the max height to which the
     3996       16                    user wants the command window expanded.
     3997       17            OUTPUT:
     3998       18                VD_LAST_CWIN_ACTIVITY will be set to %LCA_READ.
     3999       19                We may tell the Presenter to expand the command window.
     4000       20                    to expand the command window.
     4001       21            DESCRIPTION:
     4002       22                This routine is called by XUG$GETCMD just before it executes
     4003       23                a globally-recognized command (eg, DIRECTORY, DO, PRINT, ERASE,
     4004       24                TIME, DATE, HELP, !, ?, ??, END, QUIT, EXIT).
     4005       25                First, we set VD_LAST_CWIN_ACTIVITY to %LCA_READ, to remember
     4006       26                    that we just read from the command window.
     4007       27                    We do this here because GETCMD sometimes doesn't even return
     4008       28                    to us when it sees a global command, it just executes it and
     4009       29                    reads the next command.  This means that our VD_LAST_CWIN_ACTIVITY
     4010       30                    flag won't be updated, and may be wrong.
     4011       31                    Test case for this:  while editing a file, go up to command
     4012       32                    window and say HELP (XXX.X); GETCMD will spit out the error
     4013       33                    message and read for another command without ever returning
     4014       34                    to VDI$PDRIVER, so VD_LAST_CWIN_ACTIVITY is still %LCA_SWITCH,
     4015       35                    so VDI$PGET_COMMAND_RECORD thinks it should erase the command
     4016       36                    window before the command read, so the error message gets
     4017       37                    erased before we can read it.
PL6.E3A0      #006=VDI$PGLOBAL_COMMANDS File=VDI$PARSE.:VDA5TSI                  FRI 07/04/97 11:35 Page:522
     4018       38
     4019       39                In addition, this routine does other things depending on the command:
     4020       40
     4021       41                HELP, ?, ??
     4022       42                    If the command window isn't expanded to its full height
     4023       43                        already, expand it.
     4024       44                END, QUIT, EXIT
     4025       45                    Call VDI$CEND_GLOBAL so we can clean up before XUG
     4026       46                        M$EXITs on us!
     4027       47        */
     4028       48
     4029       49        VDI$PGLOBAL_COMMANDS: PROC (XUG_GETCMD, CODE) ALTRET;
     4030       50
     4031       51
     4032       52        %INCLUDE VD_MACROS_M;
     4033     2267        %INCLUDE XU_MACRO_C;
     4034     5361        %INCLUDE XU_SUBS_C;
     4035     5453        %INCLUDE CP_6;
     4036     5534
     4037     5535
     4038     5536        %XUG_GETCMD (NAME=XUG_GETCMD, STCLASS=PARAM);
     4039     5874    1   DCL CODE SBIN;
     4040     5875
     4041     5876
     4042     5877    1   DCL VDI$CEND_GLOBAL     ENTRY ALTRET;
     4043     5878    1   DCL VDG$EXPAND_COMMAND_WINDOW ENTRY (1) ALTRET;
     4044     5879
     4045     5880
     4046     5881    1   DCL VD_LAST_CWIN_ACTIVITY SBIN SYMREF;
     4047     5882        %VD$NUMBER (NAME=VD_$MAX_COMMAND, STCLASS=SYMREF);
     4048     5927
     4049     5928
     4050     5929
     4051     5930    1           VD_LAST_CWIN_ACTIVITY = %LCA_READ;
     4052     5931
     4053     5932    2           DO CASE (CODE);
     4054     5933
PL6.E3A0      #006=VDI$PGLOBAL_COMMANDS File=VDI$PARSE.:VDA5TSI                  FRI 07/04/97 11:35 Page:523
     4055     5934    2            CASE (%XUG_CMD_HELP, %XUG_CMD_Q1, %XUG_CMD_Q2);
     4056     5935                   /* Expand the command window to its max height */
     4057     5936    2              CALL VDG$EXPAND_COMMAND_WINDOW (VD_$MAX_COMMAND.V#)
     4058     5937    2                ALTRET (EXPAND_COMMAND_WINDOW_FAILED);
     4059     5938
     4060     5939    2            CASE (%XUG_CMD_END);
     4061     5940    2              CALL VDI$CEND_GLOBAL
     4062     5941    3              WHENALTRETURN DO; ALTRETURN; END;
     4063     5942
     4064     5943    2            CASE (ELSE);
     4065     5944    2              ;        /* Don't do anything on other commands */
     4066     5945    2            END;
     4067     5946
     4068     5947    1           RETURN;
     4069     5948
     4070     5949
     4071     5950
     4072     5951    1   EXPAND_COMMAND_WINDOW_FAILED:
     4073     5952    1           ALTRETURN;
     4074     5953
     4075     5954    1   END VDI$PGLOBAL_COMMANDS;
     4076     5955        %EOD;

PL6.E3A0      #006=VDI$PGLOBAL_COMMANDS File=VDI$PARSE.:VDA5TSI                  FRI 07/04/97 11:35 Page:524
--  Include file information  --

   CP_6.:LIBRARY  cannot be made into a system file and is referenced.
   XU_SUBS_C.:LIBRARY  is referenced.
   XU_MACRO_C.:LIBRARY  is referenced.
   VD_MACROS_M.:VDA5TOU  is referenced.
   B$JIT_C.:E04TOU  was found in the system file and is never referenced.
   CP_6_C.:E04TOU  was found in the system file and is referenced.
      No diagnostics issued in procedure VDI$PGLOBAL_COMMANDS.

   Procedure VDI$PGLOBAL_COMMANDS requires 32 words for executable code.
   Procedure VDI$PGLOBAL_COMMANDS requires 6 words of local(AUTO) storage.

PL6.E3A0      #006=VDI$PGLOBAL_COMMANDS File=VDI$PARSE.:VDA5TSI                  FRI 07/04/97 11:35 Page:525

 Object Unit name= VDI$PGLOBAL_COMMANDS                       File name= VDI$PARSE.:VDA5TOU
 UTS= JUL 04 '97 11:35:58.24 FRI                              Compiler= PL-6/E31         Sev=      00
 SharedLib= :SHARED_SYSTEM                                    Alt SharedLib=


    ****  Control sections  ****

 Sect   Type Bound  Init  Size OctSiz  Section name(segment info)
    0   DCB   even  none     0      0  M$UC
    1   Proc  even  none    32     40  VDI$PGLOBAL_COMMANDS
    2  RoData even  none     1      1  VDI$PGLOBAL_COMMANDS

    ****  Entry defs  ****

                              Check   Calling
                             calling  sequence
  Sect OctLoc Primary Altret sequence   type   Parms  Name
     1      0   yes    yes     yes      Std        2  VDI$PGLOBAL_COMMANDS

  ****  Entry refs  ****

         Check        Calling
        calling       sequence
Altret sequence SRef   type   Args  Name
 yes     yes           Std       1 VDG$EXPAND_COMMAND_WINDOW
 yes     yes           Std       0 VDI$CEND_GLOBAL
                       nStd      0 X66_AUTO_2
                       Std       0 B_CONSPOOL_D
                       nStd      0 X66_AALT
                       nStd      0 X66_ARET
PL6.E3A0      #006=VDI$PGLOBAL_COMMANDS File=VDI$PARSE.:VDA5TSI                  FRI 07/04/97 11:35 Page:526

  ****  Data refs  ****

  Flags:  r = read only, s = secondary
Flgs Name                             Flgs Name                             Flgs Name
     M$UC                                  VD_LAST_CWIN_ACTIVITY                 VD_$MAX_COMMAND
     B_VECTNIL

  ****  Segment refs  ****

  Flags:  r = read only, s = secondary
Flgs Name                             Flgs Name                             Flgs Name
     ISSID
PL6.E3A0      #006=VDI$PGLOBAL_COMMANDS File=VDI$PARSE.:VDA5TSI                  FRI 07/04/97 11:35 Page:527


     3981        1        /*T***********************************************************/
     3982        2        /*T*                                                         */
     3983        3        /*T* Copyright (c) Bull HN Information Systems Inc., 1997    */
     3984        4        /*T*                                                         */
     3985        5        /*T***********************************************************/
     3986        6
     3987        7        /*D* NAME: VDI$PGLOBAL_COMMANDS
     3988        8            PARAMETERS:
     3989        9                XUG_GETCMD - The %XUG_GETCMD structure we're using.
     3990       10                CODE - Word containing the %XUG_CMD_ code for the global command
     3991       11                    we're about to execute.
     3992       12            INPUT:
     3993       13                VD_COMMAND_WINDOW$ - Points to the VD$FILE_NODE for the
     3994       14                    command window.
     3995       15                VD_$MAX_COMMAND must contain the max height to which the
     3996       16                    user wants the command window expanded.
     3997       17            OUTPUT:
     3998       18                VD_LAST_CWIN_ACTIVITY will be set to %LCA_READ.
     3999       19                We may tell the Presenter to expand the command window.
     4000       20                    to expand the command window.
     4001       21            DESCRIPTION:
     4002       22                This routine is called by XUG$GETCMD just before it executes
     4003       23                a globally-recognized command (eg, DIRECTORY, DO, PRINT, ERASE,
     4004       24                TIME, DATE, HELP, !, ?, ??, END, QUIT, EXIT).
     4005       25                First, we set VD_LAST_CWIN_ACTIVITY to %LCA_READ, to remember
     4006       26                    that we just read from the command window.
     4007       27                    We do this here because GETCMD sometimes doesn't even return
     4008       28                    to us when it sees a global command, it just executes it and
     4009       29                    reads the next command.  This means that our VD_LAST_CWIN_ACTIVITY
     4010       30                    flag won't be updated, and may be wrong.
     4011       31                    Test case for this:  while editing a file, go up to command
     4012       32                    window and say HELP (XXX.X); GETCMD will spit out the error
     4013       33                    message and read for another command without ever returning
     4014       34                    to VDI$PDRIVER, so VD_LAST_CWIN_ACTIVITY is still %LCA_SWITCH,
     4015       35                    so VDI$PGET_COMMAND_RECORD thinks it should erase the command
     4016       36                    window before the command read, so the error message gets
PL6.E3A0      #006=VDI$PGLOBAL_COMMANDS File=VDI$PARSE.:VDA5TSI                  FRI 07/04/97 11:35 Page:528
     4017       37                    erased before we can read it.
     4018       38
     4019       39                In addition, this routine does other things depending on the command:
     4020       40
     4021       41                HELP, ?, ??
     4022       42                    If the command window isn't expanded to its full height
     4023       43                        already, expand it.
     4024       44                END, QUIT, EXIT
     4025       45                    Call VDI$CEND_GLOBAL so we can clean up before XUG
     4026       46                        M$EXITs on us!
     4027       47        */
     4028       48
     4029       49        VDI$PGLOBAL_COMMANDS: PROC (XUG_GETCMD, CODE) ALTRET;

     49  1 000000   000000 700200 xent  VDI$PGLOBAL* TSX0  ! X66_AUTO_2
         1 000001   000006 000002                    ZERO    6,2

     4030       50
     4031       51
     4032       52        %INCLUDE VD_MACROS_M;
     4033     2267        %INCLUDE XU_MACRO_C;
     4034     5361        %INCLUDE XU_SUBS_C;
     4035     5453        %INCLUDE CP_6;
     4036     5534
     4037     5535
     4038     5536        %XUG_GETCMD (NAME=XUG_GETCMD, STCLASS=PARAM);
     4039     5874    1   DCL CODE SBIN;
     4040     5875
     4041     5876
     4042     5877    1   DCL VDI$CEND_GLOBAL     ENTRY ALTRET;
     4043     5878    1   DCL VDG$EXPAND_COMMAND_WINDOW ENTRY (1) ALTRET;
     4044     5879
     4045     5880
     4046     5881    1   DCL VD_LAST_CWIN_ACTIVITY SBIN SYMREF;
     4047     5882        %VD$NUMBER (NAME=VD_$MAX_COMMAND, STCLASS=SYMREF);
     4048     5927
     4049     5928
PL6.E3A0      #006=VDI$PGLOBAL_COMMANDS File=VDI$PARSE.:VDA5TSI                  FRI 07/04/97 11:35 Page:529
     4050     5929
     4051     5930    1           VD_LAST_CWIN_ACTIVITY = %LCA_READ;

   5930  1 000002   000001 235007                    LDA     1,DL
         1 000003   000000 755000 xsym               STA     VD_LAST_CWIN_ACTIVITY

     4052     5931
     4053     5932    2           DO CASE (CODE);

   5932  1 000004   200004 470500                    LDP0    @CODE,,AUTO
         1 000005   000000 235100                    LDA     0,,PR0
         1 000006   000012 115007                    CMPA    10,DL
         1 000007   000011 602005 1                  TNC     s:5932+5,AL
         1 000010   000036 710000 1                  TRA     s:5947
         1 000011   000036 710000 1                  TRA     s:5947
         1 000012   000036 710000 1                  TRA     s:5947
         1 000013   000036 710000 1                  TRA     s:5947
         1 000014   000030 710000 1                  TRA     s:5940
         1 000015   000036 710000 1                  TRA     s:5947
         1 000016   000023 710000 1                  TRA     s:5936
         1 000017   000036 710000 1                  TRA     s:5947
         1 000020   000036 710000 1                  TRA     s:5947
         1 000021   000023 710000 1                  TRA     s:5936
         1 000022   000023 710000 1                  TRA     s:5936

     4054     5933
     4055     5934    2            CASE (%XUG_CMD_HELP, %XUG_CMD_Q1, %XUG_CMD_Q2);

     4056     5935                   /* Expand the command window to its max height */
     4057     5936    2              CALL VDG$EXPAND_COMMAND_WINDOW (VD_$MAX_COMMAND.V#)

   5936  1 000023   000000 630400 2                  EPPR0   0
         1 000024   000017 631400 xsym               EPPR1   B_VECTNIL+15
         1 000025   000000 701000 xent               TSX1    VDG$EXPAND_COMMAND_WINDOW
         1 000026   000037 702000 1                  TSX2    EXPAND_COMMAND_WINDOW_FAILED
         1 000027   000036 710000 1                  TRA     s:5947

PL6.E3A0      #006=VDI$PGLOBAL_COMMANDS File=VDI$PARSE.:VDA5TSI                  FRI 07/04/97 11:35 Page:530
     4058     5937    2                ALTRET (EXPAND_COMMAND_WINDOW_FAILED);
     4059     5938
     4060     5939    2            CASE (%XUG_CMD_END);

     4061     5940    2              CALL VDI$CEND_GLOBAL

   5940  1 000030   000002 631400 xsym               EPPR1   B_VECTNIL+2
         1 000031   000000 701000 xent               TSX1    VDI$CEND_GLOBAL
         1 000032   000034 702000 1                  TSX2    s:5941
         1 000033   000035 710000 1                  TRA     s:5941+1

     4062     5941    3              WHENALTRETURN DO; ALTRETURN; END;

   5941  1 000034   000000 702200 xent               TSX2  ! X66_AALT
         1 000035   000036 710000 1                  TRA     s:5947

     4063     5942
     4064     5943    2            CASE (ELSE);

     4065     5944    2              ;        /* Don't do anything on other commands */
     4066     5945    2            END;

     4067     5946
     4068     5947    1           RETURN;

   5947  1 000036   000000 702200 xent               TSX2  ! X66_ARET

     4069     5948
     4070     5949
     4071     5950
     4072     5951    1   EXPAND_COMMAND_WINDOW_FAILED:
     4073     5952    1           ALTRETURN;

   5952  1 000037   000000 702200 xent  EXPAND_COMM* TSX2  ! X66_AALT
     4074     5953
     4075     5954    1   END VDI$PGLOBAL_COMMANDS;
     4076     5955        %EOD;
PL6.E3A0      #006=VDI$PGLOBAL_COMMANDS File=VDI$PARSE.:VDA5TSI                  FRI 07/04/97 11:35 Page:531

PL6.E3A0      #006=VDI$PGLOBAL_COMMANDS File=VDI$PARSE.:VDA5TSI                  FRI 07/04/97 11:35 Page:532
--  Include file information  --

   CP_6.:LIBRARY  cannot be made into a system file and is referenced.
   XU_SUBS_C.:LIBRARY  is referenced.
   XU_MACRO_C.:LIBRARY  is referenced.
   VD_MACROS_M.:VDA5TOU  is referenced.
   B$JIT_C.:E04TOU  was found in the system file and is never referenced.
   CP_6_C.:E04TOU  was found in the system file and is referenced.
      No diagnostics issued in procedure VDI$PGLOBAL_COMMANDS.
PL6.E3A0      #006=VDI$PGLOBAL_COMMANDS File=VDI$PARSE.:VDA5TSI                  FRI 07/04/97 11:35 Page:533

 **** Variables and constants ****

  ****  Auto variables  ****

  ****  Scalars and arrays  ****
OctLoc.c.b A Datatyp(siz) R M Lvl/name                 OctLoc.c.b A Datatyp(siz) R M Lvl/name

     4-0-0/w PTR         r     1 @CODE                      3-0-0/w PTR         r     1 @XUG_GETCMD
    *0-0-0/w SBIN        r     1 CODE                      *0-0-0/d STRC(1512)  r     1 XUG_GETCMD

  ****  SYMREF variables  ****

  ****  Scalars and arrays  ****
OctLoc.c.b A Datatyp(siz) R M Lvl/name                 OctLoc.c.b A Datatyp(siz) R M Lvl/name

     0-0-0/w STRC(144)   r     1 VD_$MAX_COMMAND
     0-0-0/w SBIN        r     1 VD_LAST_CWIN_ACTIVITY


   Procedure VDI$PGLOBAL_COMMANDS requires 32 words for executable code.
   Procedure VDI$PGLOBAL_COMMANDS requires 6 words of local(AUTO) storage.
PL6.E3A0      #006=VDI$PGLOBAL_COMMANDS File=VDI$PARSE.:VDA5TSI                  FRI 07/04/97 11:35 Page:534
          *** CROSS REFERENCE LISTING ***
**     DENOTES     IDENTIFIER DEFINITION
<<                 IDENTIFIER'S VALUE SET
>>                 IDENTIFIER'S VALUE USED
<>                 IDENTIFIER SET AND/OR USED
--                 IDENTIFIER REFERENCED
PL6.E3A0      #006=VDI$PGLOBAL_COMMANDS File=VDI$PARSE.:VDA5TSI                  FRI 07/04/97 11:35 Page:535
          MINI XREF LISTING

CODE
      5874**DCL        49--PROC     5932>>DOCASE
EXPAND_COMMAND_WINDOW_FAILED
      5952**LABEL    5936--CALLALT
VDG$EXPAND_COMMAND_WINDOW
      5878**DCL-ENT  5936--CALL
VDI$CEND_GLOBAL
      5877**DCL-ENT  5940--CALL
VD_$MAX_COMMAND.V#
      5924**DCL      5936<>CALL
VD_LAST_CWIN_ACTIVITY
      5881**DCL      5930<<ASSIGN
XUG_GETCMD
      5549**DCL        49--PROC
XUG_GETCMD.OUT$
      5554**DCL      5560--REDEF

PL6.E3A0      #007=VDI$PREMOVE_EDIT_BLOCK File=VDI$PARSE.:VDA5TSI                FRI 07/04/97 11:36 Page:536
     4077        1        /*T***********************************************************/
     4078        2        /*T*                                                         */
     4079        3        /*T* Copyright (c) Bull HN Information Systems Inc., 1997    */
     4080        4        /*T*                                                         */
     4081        5        /*T***********************************************************/
     4082        6
     4083        7        /*D* NAME: VDI$PREMOVE_EDIT_BLOCK
     4084        8            PARAMETERS:
     4085        9                None.
     4086       10            INPUT:
     4087       11                VD_CURRENT_WINDOW$ - Ptr to VD$FILE_NODE at level 1 of the
     4088       12                    Windows file, of the current editing window.  Must
     4089       13                    not be NIL.  The VD$WINDOW_SPEC attached to this file
     4090       14                    node will have its EditBlock removed.
     4091       15            OUTPUT:
     4092       16                In the VD$WINDOW_SPEC pointed-to indirectly thru VD_CURRENT_WINDOW$:
     4093       17                    .OPERAND.STREAM$ will be closed.  (The VD$STREAM will not
     4094       18                        be freed, just closed).
     4095       19                    .OPERAND.EDIT_BLOCK$ will contain NIL; the BlockDescriptor
     4096       20                        it pointed to (if any) will have been freed.
     4097       21                    .OPERAND.EVAL$ will contain NIL; the stack of VD$EVALs
     4098       22                        it pointed to (if any) will have been freed.
     4099       23                The Presenter will have been told to erase the window.
     4100       24            DESCRIPTION:
     4101       25                Close the current editing window's stream.
     4102       26                If the window has an EditBlock and/or an evaluation stack,
     4103       27                    free them.
     4104       28                Tell the Presenter to erase the window.
     4105       29        */
     4106       30
     4107       31        VDI$PREMOVE_EDIT_BLOCK: PROC ALTRET;
     4108       32
     4109       33
     4110       34        %INCLUDE VD_MACROS_M;
     4111     2249
     4112     2250
     4113     2251    1   DCL VDA$FCLOSE          ENTRY (1) ALTRET;
PL6.E3A0      #007=VDI$PREMOVE_EDIT_BLOCK File=VDI$PARSE.:VDA5TSI                FRI 07/04/97 11:36 Page:537
     4114     2252    1   DCL VDG$OFREE           ENTRY (1) ALTRET;
     4115     2253    1   DCL VDP$WERASE          ENTRY (1) ALTRET;
     4116     2254
     4117     2255
     4118     2256    1   DCL VD_CURRENT_WINDOW$ PTR SYMREF;
     4119     2257
     4120     2258
     4121     2259    1   DCL CURR_WINDOW$ PTR;
     4122     2260    1   DCL CURR_EVAL$ PTR;
     4123     2261    1   DCL NEXT_EVAL$ PTR;
     4124     2262
     4125     2263
     4126     2264        %VD$WINDOW_SPEC (NAME=CURR$WINDOW, STCLASS="BASED(CURR_WINDOW$)");
     4127     2330        %VD$EVAL (NAME=CURR$EVAL, STCLASS="BASED(CURR_EVAL$)");
     4128     2575        %VD$FILE_NODE (NAME=CURR$NODE, STCLASS="BASED(VD_CURRENT_WINDOW$)");
     4129     2668        %VD$STREAM;
     4130     2774        %VD$BLOCK_DESC;
     4131     2921
     4132     2922
     4133     2923
     4134     2924    1           CURR_WINDOW$ = CURR$NODE.DESC.SPEC.V$;
     4135     2925    1           CALL VDA$FCLOSE (CURR$WINDOW.OPERAND.STREAM$->VD$STREAM)
     4136     2926    1             ALTRET (FCLOSE_FAILED);
     4137     2927
     4138     2928    2           IF CURR$WINDOW.OPERAND.EDIT_BLOCK$ ~= ADDR(NIL) THEN DO;
     4139     2929    2              CALL VDG$OFREE (CURR$WINDOW.OPERAND.EDIT_BLOCK$ ->
     4140     2930    2                VD$BLOCK_DESC)
     4141     2931    2                ALTRET (OFREE_FAILED);
     4142     2932    2              CURR$WINDOW.OPERAND.EDIT_BLOCK$ = ADDR(NIL);
     4143     2933    2              END;
     4144     2934
     4145     2935    1           CURR_EVAL$ = CURR$WINDOW.OPERAND.EVAL$;
     4146     2936    1           CURR$WINDOW.OPERAND.EVAL$ = ADDR(NIL);
     4147     2937    2           DO WHILE CURR_EVAL$ ~= ADDR(NIL);
     4148     2938    2              NEXT_EVAL$ = CURR$EVAL.BLINK$;
     4149     2939    2              CALL VDG$OFREE (CURR$EVAL)
     4150     2940    2                ALTRET (OFREE_FAILED);
PL6.E3A0      #007=VDI$PREMOVE_EDIT_BLOCK File=VDI$PARSE.:VDA5TSI                FRI 07/04/97 11:36 Page:538
     4151     2941    2              CURR_EVAL$ = NEXT_EVAL$;
     4152     2942    2              END;
     4153     2943
     4154     2944    1           CALL VDP$WERASE (CURR$WINDOW)
     4155     2945    1             ALTRET (WERASE_FAILED);
     4156     2946
     4157     2947    1           RETURN;
     4158     2948
     4159     2949
     4160     2950
     4161     2951    1   FCLOSE_FAILED: ;
     4162     2952    1   OFREE_FAILED: ;
     4163     2953    1   WERASE_FAILED: ;
     4164     2954    1           ALTRETURN;
     4165     2955
     4166     2956    1   END VDI$PREMOVE_EDIT_BLOCK;

PL6.E3A0      #007=VDI$PREMOVE_EDIT_BLOCK File=VDI$PARSE.:VDA5TSI                FRI 07/04/97 11:36 Page:539
--  Include file information  --

   VD_MACROS_M.:VDA5TOU  is referenced.
   B$JIT_C.:E04TOU  was found in the system file and is never referenced.
   CP_6_C.:E04TOU  was found in the system file and is never referenced.
      No diagnostics issued in procedure VDI$PREMOVE_EDIT_BLOCK.

   Procedure VDI$PREMOVE_EDIT_BLOCK requires 48 words for executable code.
   Procedure VDI$PREMOVE_EDIT_BLOCK requires 8 words of local(AUTO) storage.

    No errors detected in file VDI$PARSE.:VDA5TSI    .

PL6.E3A0      #007=VDI$PREMOVE_EDIT_BLOCK File=VDI$PARSE.:VDA5TSI                FRI 07/04/97 11:36 Page:540

 Object Unit name= VDI$PREMOVE_EDIT_BLOCK                     File name= VDI$PARSE.:VDA5TOU
 UTS= JUL 04 '97 11:36:07.20 FRI                              Compiler= PL-6/E31         Sev=      00
 SharedLib= :SHARED_SYSTEM                                    Alt SharedLib=


    ****  Control sections  ****

 Sect   Type Bound  Init  Size OctSiz  Section name(segment info)
    0   Proc  even  none    48     60  VDI$PREMOVE_EDIT_BLOCK

    ****  Entry defs  ****

                              Check   Calling
                             calling  sequence
  Sect OctLoc Primary Altret sequence   type   Parms  Name
     0      0   yes    yes     yes      Std        0  VDI$PREMOVE_EDIT_BLOCK

  ****  Entry refs  ****

         Check        Calling
        calling       sequence
Altret sequence SRef   type   Args  Name
 yes     yes           Std       1 VDA$FCLOSE
 yes     yes           Std       1 VDG$OFREE
 yes     yes           Std       1 VDP$WERASE
                       nStd      0 X66_AUTO_0
                       Std       0 B_CONSPOOL_D
                       nStd      0 X66_ARET
                       nStd      0 X66_AALT

  ****  Data refs  ****

  Flags:  r = read only, s = secondary
Flgs Name                             Flgs Name                             Flgs Name
     VD_CURRENT_WINDOW$                    B_VECTNIL
PL6.E3A0      #007=VDI$PREMOVE_EDIT_BLOCK File=VDI$PARSE.:VDA5TSI                FRI 07/04/97 11:36 Page:541


     4077        1        /*T***********************************************************/
     4078        2        /*T*                                                         */
     4079        3        /*T* Copyright (c) Bull HN Information Systems Inc., 1997    */
     4080        4        /*T*                                                         */
     4081        5        /*T***********************************************************/
     4082        6
     4083        7        /*D* NAME: VDI$PREMOVE_EDIT_BLOCK
     4084        8            PARAMETERS:
     4085        9                None.
     4086       10            INPUT:
     4087       11                VD_CURRENT_WINDOW$ - Ptr to VD$FILE_NODE at level 1 of the
     4088       12                    Windows file, of the current editing window.  Must
     4089       13                    not be NIL.  The VD$WINDOW_SPEC attached to this file
     4090       14                    node will have its EditBlock removed.
     4091       15            OUTPUT:
     4092       16                In the VD$WINDOW_SPEC pointed-to indirectly thru VD_CURRENT_WINDOW$:
     4093       17                    .OPERAND.STREAM$ will be closed.  (The VD$STREAM will not
     4094       18                        be freed, just closed).
     4095       19                    .OPERAND.EDIT_BLOCK$ will contain NIL; the BlockDescriptor
     4096       20                        it pointed to (if any) will have been freed.
     4097       21                    .OPERAND.EVAL$ will contain NIL; the stack of VD$EVALs
     4098       22                        it pointed to (if any) will have been freed.
     4099       23                The Presenter will have been told to erase the window.
     4100       24            DESCRIPTION:
     4101       25                Close the current editing window's stream.
     4102       26                If the window has an EditBlock and/or an evaluation stack,
     4103       27                    free them.
     4104       28                Tell the Presenter to erase the window.
     4105       29        */
     4106       30
     4107       31        VDI$PREMOVE_EDIT_BLOCK: PROC ALTRET;

     31  0 000000   000000 700200 xent  VDI$PREMOVE* TSX0  ! X66_AUTO_0
         0 000001   000010 000000                    ZERO    8,0

     4108       32
PL6.E3A0      #007=VDI$PREMOVE_EDIT_BLOCK File=VDI$PARSE.:VDA5TSI                FRI 07/04/97 11:36 Page:542
     4109       33
     4110       34        %INCLUDE VD_MACROS_M;
     4111     2249
     4112     2250
     4113     2251    1   DCL VDA$FCLOSE          ENTRY (1) ALTRET;
     4114     2252    1   DCL VDG$OFREE           ENTRY (1) ALTRET;
     4115     2253    1   DCL VDP$WERASE          ENTRY (1) ALTRET;
     4116     2254
     4117     2255
     4118     2256    1   DCL VD_CURRENT_WINDOW$ PTR SYMREF;
     4119     2257
     4120     2258
     4121     2259    1   DCL CURR_WINDOW$ PTR;
     4122     2260    1   DCL CURR_EVAL$ PTR;
     4123     2261    1   DCL NEXT_EVAL$ PTR;
     4124     2262
     4125     2263
     4126     2264        %VD$WINDOW_SPEC (NAME=CURR$WINDOW, STCLASS="BASED(CURR_WINDOW$)");
     4127     2330        %VD$EVAL (NAME=CURR$EVAL, STCLASS="BASED(CURR_EVAL$)");
     4128     2575        %VD$FILE_NODE (NAME=CURR$NODE, STCLASS="BASED(VD_CURRENT_WINDOW$)");
     4129     2668        %VD$STREAM;
     4130     2774        %VD$BLOCK_DESC;
     4131     2921
     4132     2922
     4133     2923
     4134     2924    1           CURR_WINDOW$ = CURR$NODE.DESC.SPEC.V$;

   2924  0 000002   000000 470400 xsym               LDP0    VD_CURRENT_WINDOW$
         0 000003   000007 236100                    LDQ     7,,PR0
         0 000004   200003 756100                    STQ     CURR_WINDOW$,,AUTO

     4135     2925    1           CALL VDA$FCLOSE (CURR$WINDOW.OPERAND.STREAM$->VD$STREAM)

   2925  0 000005   200003 471500                    LDP1    CURR_WINDOW$,,AUTO
         0 000006   100010 473500                    LDP3    8,,PR1
         0 000007   200006 453500                    STP3    NEXT_EVAL$+1,,AUTO
         0 000010   200006 630500                    EPPR0   NEXT_EVAL$+1,,AUTO
PL6.E3A0      #007=VDI$PREMOVE_EDIT_BLOCK File=VDI$PARSE.:VDA5TSI                FRI 07/04/97 11:36 Page:543
         0 000011   000017 631400 xsym               EPPR1   B_VECTNIL+15
         0 000012   000000 701000 xent               TSX1    VDA$FCLOSE
         0 000013   000057 702000 0                  TSX2    FCLOSE_FAILED

     4136     2926    1             ALTRET (FCLOSE_FAILED);
     4137     2927
     4138     2928    2           IF CURR$WINDOW.OPERAND.EDIT_BLOCK$ ~= ADDR(NIL) THEN DO;

   2928  0 000014   200003 470500                    LDP0    CURR_WINDOW$,,AUTO
         0 000015   000012 236100                    LDQ     10,,PR0
         0 000016   000001 116000 xsym               CMPQ    B_VECTNIL+1
         0 000017   000031 600000 0                  TZE     s:2935

     4139     2929    2              CALL VDG$OFREE (CURR$WINDOW.OPERAND.EDIT_BLOCK$ ->

   2929  0 000020   000012 471500                    LDP1    10,,PR0
         0 000021   200006 451500                    STP1    NEXT_EVAL$+1,,AUTO
         0 000022   200006 630500                    EPPR0   NEXT_EVAL$+1,,AUTO
         0 000023   000017 631400 xsym               EPPR1   B_VECTNIL+15
         0 000024   000000 701000 xent               TSX1    VDG$OFREE
         0 000025   000057 702000 0                  TSX2    FCLOSE_FAILED

     4140     2930    2                VD$BLOCK_DESC)
     4141     2931    2                ALTRET (OFREE_FAILED);
     4142     2932    2              CURR$WINDOW.OPERAND.EDIT_BLOCK$ = ADDR(NIL);

   2932  0 000026   000001 236000 xsym               LDQ     B_VECTNIL+1
         0 000027   200003 470500                    LDP0    CURR_WINDOW$,,AUTO
         0 000030   000012 756100                    STQ     10,,PR0

     4143     2933    2              END;

     4144     2934
     4145     2935    1           CURR_EVAL$ = CURR$WINDOW.OPERAND.EVAL$;

   2935  0 000031   000013 236100                    LDQ     11,,PR0
         0 000032   200004 756100                    STQ     CURR_EVAL$,,AUTO
PL6.E3A0      #007=VDI$PREMOVE_EDIT_BLOCK File=VDI$PARSE.:VDA5TSI                FRI 07/04/97 11:36 Page:544

     4146     2936    1           CURR$WINDOW.OPERAND.EVAL$ = ADDR(NIL);

   2936  0 000033   000001 236000 xsym               LDQ     B_VECTNIL+1
         0 000034   000013 756100                    STQ     11,,PR0

     4147     2937    2           DO WHILE CURR_EVAL$ ~= ADDR(NIL);

   2937  0 000035   000047 710000 0                  TRA     s:2942

     4148     2938    2              NEXT_EVAL$ = CURR$EVAL.BLINK$;

   2938  0 000036   200004 470500                    LDP0    CURR_EVAL$,,AUTO
         0 000037   000001 236100                    LDQ     1,,PR0
         0 000040   200005 756100                    STQ     NEXT_EVAL$,,AUTO

     4149     2939    2              CALL VDG$OFREE (CURR$EVAL)

   2939  0 000041   200004 630500                    EPPR0   CURR_EVAL$,,AUTO
         0 000042   000017 631400 xsym               EPPR1   B_VECTNIL+15
         0 000043   000000 701000 xent               TSX1    VDG$OFREE
         0 000044   000057 702000 0                  TSX2    FCLOSE_FAILED

     4150     2940    2                ALTRET (OFREE_FAILED);
     4151     2941    2              CURR_EVAL$ = NEXT_EVAL$;

   2941  0 000045   200005 236100                    LDQ     NEXT_EVAL$,,AUTO
         0 000046   200004 756100                    STQ     CURR_EVAL$,,AUTO

     4152     2942    2              END;

   2942  0 000047   200004 236100                    LDQ     CURR_EVAL$,,AUTO
         0 000050   000001 116000 xsym               CMPQ    B_VECTNIL+1
         0 000051   000036 601000 0                  TNZ     s:2938

     4153     2943
     4154     2944    1           CALL VDP$WERASE (CURR$WINDOW)
PL6.E3A0      #007=VDI$PREMOVE_EDIT_BLOCK File=VDI$PARSE.:VDA5TSI                FRI 07/04/97 11:36 Page:545

   2944  0 000052   200003 630500                    EPPR0   CURR_WINDOW$,,AUTO
         0 000053   000017 631400 xsym               EPPR1   B_VECTNIL+15
         0 000054   000000 701000 xent               TSX1    VDP$WERASE
         0 000055   000057 702000 0                  TSX2    FCLOSE_FAILED

     4155     2945    1             ALTRET (WERASE_FAILED);
     4156     2946
     4157     2947    1           RETURN;

   2947  0 000056   000000 702200 xent               TSX2  ! X66_ARET

   2938  0 000057                       FCLOSE_FAIL* null
   2938  0 000057                       OFREE_FAILED null
   2938  0 000057                       WERASE_FAIL* null
     4158     2948
     4159     2949
     4160     2950
     4161     2951    1   FCLOSE_FAILED: ;
     4162     2952    1   OFREE_FAILED: ;
     4163     2953    1   WERASE_FAILED: ;
     4164     2954    1           ALTRETURN;

   2954  0 000057   000000 702200 xent               TSX2  ! X66_AALT
     4165     2955
     4166     2956    1   END VDI$PREMOVE_EDIT_BLOCK;

PL6.E3A0      #007=VDI$PREMOVE_EDIT_BLOCK File=VDI$PARSE.:VDA5TSI                FRI 07/04/97 11:36 Page:546
--  Include file information  --

   VD_MACROS_M.:VDA5TOU  is referenced.
   B$JIT_C.:E04TOU  was found in the system file and is never referenced.
   CP_6_C.:E04TOU  was found in the system file and is never referenced.
      No diagnostics issued in procedure VDI$PREMOVE_EDIT_BLOCK.
PL6.E3A0      #007=VDI$PREMOVE_EDIT_BLOCK File=VDI$PARSE.:VDA5TSI                FRI 07/04/97 11:36 Page:547

 **** Variables and constants ****

  ****  Auto variables  ****

  ****  Scalars and arrays  ****
OctLoc.c.b A Datatyp(siz) R M Lvl/name                 OctLoc.c.b A Datatyp(siz) R M Lvl/name

     4-0-0/w PTR         r     1 CURR_EVAL$                 3-0-0/w PTR         r     1 CURR_WINDOW$
     5-0-0/w PTR         r     1 NEXT_EVAL$

  ****  SYMREF variables  ****

  ****  Scalars and arrays  ****
OctLoc.c.b A Datatyp(siz) R M Lvl/name                 OctLoc.c.b A Datatyp(siz) R M Lvl/name

     0-0-0/w PTR         r     1 VD_CURRENT_WINDOW$

  ****  BASED and DCB variables  ****

  ****  Scalars and arrays  ****
OctLoc.c.b A Datatyp(siz) R M Lvl/name                 OctLoc.c.b A Datatyp(siz) R M Lvl/name

     0-0-0/w STRC(2124)  r     1 CURR$EVAL                  0-0-0/w STRC(468)   r     1 CURR$NODE
     0-0-0/w STRC(900)   r     1 CURR$WINDOW                0-0-0/w STRC(936)   r     1 VD$BLOCK_DESC
     0-0-0/w STRC(864)   r     1 VD$STREAM


   Procedure VDI$PREMOVE_EDIT_BLOCK requires 48 words for executable code.
   Procedure VDI$PREMOVE_EDIT_BLOCK requires 8 words of local(AUTO) storage.

    No errors detected in file VDI$PARSE.:VDA5TSI    .
PL6.E3A0      #007=VDI$PREMOVE_EDIT_BLOCK File=VDI$PARSE.:VDA5TSI                FRI 07/04/97 11:36 Page:548
          *** CROSS REFERENCE LISTING ***
**     DENOTES     IDENTIFIER DEFINITION
<<                 IDENTIFIER'S VALUE SET
>>                 IDENTIFIER'S VALUE USED
<>                 IDENTIFIER SET AND/OR USED
--                 IDENTIFIER REFERENCED
PL6.E3A0      #007=VDI$PREMOVE_EDIT_BLOCK File=VDI$PARSE.:VDA5TSI                FRI 07/04/97 11:36 Page:549
          MINI XREF LISTING

CURR$EVAL
      2338**DCL      2939<>CALL
CURR$EVAL.BLINK$
      2364**DCL      2938>>ASSIGN
CURR$NODE.DESC.SPEC.V$
      2662**DCL      2924>>ASSIGN
CURR$WINDOW
      2272**DCL      2944<>CALL
CURR$WINDOW.OPERAND.EDIT_BLOCK$
      2313**DCL      2928>>IF       2929>>CALL     2932<<ASSIGN
CURR$WINDOW.OPERAND.EVAL$
      2313**DCL      2935>>ASSIGN   2936<<ASSIGN
CURR$WINDOW.OPERAND.STREAM$
      2313**DCL      2925>>CALL
CURR_EVAL$
      2260**DCL      2338--IMP-PTR  2935<<ASSIGN   2937>>DOWHILE  2938>>ASSIGN   2939>>CALL     2941<<ASSIGN
CURR_WINDOW$
      2259**DCL      2272--IMP-PTR  2924<<ASSIGN   2925>>CALL     2928>>IF       2929>>CALL     2932>>ASSIGN
      2935>>ASSIGN   2936>>ASSIGN   2944>>CALL
FCLOSE_FAILED
      2938**LABEL    2925--CALLALT
NEXT_EVAL$
      2261**DCL      2938<<ASSIGN   2941>>ASSIGN
OFREE_FAILED
      2938**LABEL    2929--CALLALT  2939--CALLALT
VD$BLOCK_DESC
      2782**DCL      2929<>CALL
VD$STREAM
      2676**DCL      2925<>CALL
VDA$FCLOSE
      2251**DCL-ENT  2925--CALL
VDG$OFREE
PL6.E3A0      #007=VDI$PREMOVE_EDIT_BLOCK File=VDI$PARSE.:VDA5TSI                FRI 07/04/97 11:36 Page:550
      2252**DCL-ENT  2929--CALL     2939--CALL
VDP$WERASE
      2253**DCL-ENT  2944--CALL
VD_CURRENT_WINDOW$
      2256**DCL      2583--IMP-PTR  2924>>ASSIGN
WERASE_FAILED
      2938**LABEL    2944--CALLALT
