PL6.E3A0      #003=VDI$PGET_COMMAND_RECORD File=VDI$PARSE.:VDA5TSI               FRI 07/04/97 11:34 Page:250
     1926        1        /*T***********************************************************/
     1927        2        /*T*                                                         */
     1928        3        /*T* Copyright (c) Bull HN Information Systems Inc., 1997    */
     1929        4        /*T*                                                         */
     1930        5        /*T***********************************************************/
     1931        6
     1932        7        /*D* NAME: VDI$PGET_COMMAND_RECORD
     1933        8            PARAMETERS:
     1934        9                BUF_ - Vector framing buffer to return record in.
     1935       10                ARS - Uninitialized UBIN word.
     1936       11                NEXT_RECORD$$ - Uninitialized EPTR.
     1937       12                ERRCODE - Uninitialized word.
     1938       13                EOMCHAR - Uninitialized character.
     1939       14            INPUT:
     1940       15                XUG_GETCMD - Control block for XUG$GETCMD.
     1941       16                XUG_INIT - Control block for XUG$GETCMD.
     1942       17                VD_6E.CMD_STREAM$ must point to the VD$CMD_STREAM for the
     1943       18                    current command stream (top entry on stack of same).
     1944       19                VD_$COMMENT:  VD$BUFFER for $COMMENT predefined name.
     1945       20                    Value's length may be 0.
     1946       21                VD_CMD_OBJECTS$ - Array of pointers to otherwise-unowned
     1947       22                    dynamic objects.
     1948       23            OUTPUT:
     1949       24                BUF_'s buffer will contain the record read.
     1950       25                ARS will contain the number of characters in the record.
     1951       26                NEXT_RECORD$$ will contain the entry address of the routine
     1952       27                    which XUG$GETCMD is to call to read the next record.
     1953       28                    This will always be VDI$PGET_COMMAND_RECORD.
     1954       29                ERRCODE will contain either %CLEAR, or a 6Edit error code.
     1955       30                EOMCHAR will contain either %EOM_EOR#, or the activation char.
     1956       31                CMD$STREAM (top VD$CMD_STREAM) will describe the record read:
     1957       32                    .INTREE$ may point to an InTree (chain of VD$IT_COMMAND nodes)
     1958       33                        for the command to process.  If .INTREE$ = NIL, then the
     1959       34                        command line only appears in .RECORD$ below.
     1960       35                    .RECORD$ may point to a VD$BUFFER containing just what
     1961       36                        we returned to GETCMD in BUF and ARS.  If .RECORD$ = NIL
     1962       37                        or has a .LENGTH# of 0, then the command line may appear
PL6.E3A0      #003=VDI$PGET_COMMAND_RECORD File=VDI$PARSE.:VDA5TSI               FRI 07/04/97 11:34 Page:251
     1963       38                        in InTree form pointed-to by .INTREE$.
     1964       39                    If we hit the end of a READ-file, we'll pop the stack
     1965       40                    of VD$CMD_STREAMs.  (The bottom entry on the stack
     1966       41                    should be for the terminal, and so will never get EOF.)
     1967       42                VD_CMD_OBJECTS$ will be all NIL:  any objects it pointed to
     1968       43                    will be freed.
     1969       44            DESCRIPTION:
     1970       45                Run thru VD_CMD_OBJECTS$ and free any objects it points to.
     1971       46                    This array is used as the "owner" of otherwise orphaned
     1972       47                    dynamic objects.  (For example, storage allocated by
     1973       48                    VDE$PFUNCTION for X$EVAL.)  Someone has to free this
     1974       49                    storage at a suitable time.  The time is now, and we are us!
     1975       50                Call READ_COMMAND_RECORD to get a record from the current command
     1976       51                    stream.  If the current command stream is a workspace
     1977       52                    file, we'll load it (except we won't load windows),
     1978       53                    then pop the command stream and read from the new
     1979       54                    "current" command stream.
     1980       55                    If EOF is hit, READ_COMMAND_RECORD will pop the
     1981       56                    command-stream stack and continue reading from the
     1982       57                    previous command stream.
     1983       58                If the record just read is actually an InTree, return an empty
     1984       59                    buffer to XUG$GETCMD.
     1985       60        *N*     Find and perform all $CONTROL functions which are not in
     1986       61        *N*         string literals.
     1987       62                Replace any synonyms in the
     1988       63                    command record with the synonyms' value, surrounded by
     1989       64                    space characters (unless there are already spaces
     1990       65                    surrounding the synonym).
     1991       66        */
     1992       67
     1993       68        VDI$PGET_COMMAND_RECORD: PROC
     1994       69                  (BUF_, ARS, NEXT_RECORD$$, ERRCODE, EOMCHAR) ALTRET;
     1995       70
     1996       71
     1997       72        %INCLUDE VD_MACROS_M;
     1998     2287        %INCLUDE VD_PERR_C;
     1999     2435        %INCLUDE XU_MACRO_C;
PL6.E3A0      #003=VDI$PGET_COMMAND_RECORD File=VDI$PARSE.:VDA5TSI               FRI 07/04/97 11:34 Page:252
     2000     5529        %INCLUDE CP_6;
     2001     5610        %INCLUDE CP_6_SUBS;
     2002     6150        %INCLUDE B_ERRORS_C;
     2003     7276        %INCLUDE B$JIT;
     2004     7566        %INCLUDE B$TABLES_C;
     2005     7674
     2006     7675
     2007     7676    1   DCL BUF_ VECTOR;
     2008     7677    1   DCL ARS SBIN;
     2009     7678    1   DCL NEXT_RECORD$$ EPTR;
     2010     7679        %VD$ERR_CODE (NAME=ERRCODE, STCLASS=PARAM);
     2011     7694    1   DCL EOMCHAR CHAR(1);
     2012     7695
     2013     7696
     2014     7697
     2015     7698    1   DCL VDA$LREAD               ENTRY (4) ALTRET;
     2016     7699    1   DCL VDI$PREAD_FILE_OPEN     ENTRY ALTRET;
     2017     7700    1   DCL VDI$PREAD_FILE_CLOSE    ENTRY ALTRET;
     2018     7701    1   DCL VDI$PREAD_FILE_POSITION ENTRY ALTRET;
     2019     7702    1   DCL VDI$PREAD_FILE_READ     ENTRY (2) ALTRET;
     2020     7703    1   DCL VDW$LOAD                ENTRY (1) ALTRET;
     2021     7704    1   DCL VDG$ERASE_COMMAND_WINDOW ENTRY ALTRET;
     2022     7705    1   DCL VDG$OALLOC              ENTRY (3) ALTRET;
     2023     7706    1   DCL VDG$OFREE               ENTRY (1) ALTRET;
     2024     7707    1   DCL VDG$ESCREECH            ENTRY (3);
     2025     7708    1   DCL VDI$CEND_GLOBAL         ENTRY ALTRET;
     2026     7709
     2027     7710
     2028     7711        %VD_6E (STCLASS=SYMREF);
     2029     7747        %VD_BUFFER (NAME=VD_$COMMENT, STCLASS=SYMREF, MXNB=%MXNB_$COMMENT);
     2030     7807    1   DCL VD_ASYM UBIN SYMREF;
     2031     7808    1   DCL VD_LAST_CWIN_ACTIVITY UBIN SYMREF;
     2032     7809    1   DCL VD_FORCE_READ_FROM UBIN SYMREF;
     2033     7810        %B$XL_UPPER;
     2034     7814    1   DCL VD_XLATE_CHAR_CLASS CHAR(512) ALIGNED SYMREF;
     2035     7815    1   DCL VD_STATIC_TEMP CHAR(%NB_STATIC_TEMP) ALIGNED SYMREF;
     2036     7816    1   DCL VD_CMD_OBJECTS$ (0:%(MX_CMD_OBJECTS-1)) PTR SYMREF;
PL6.E3A0      #003=VDI$PGET_COMMAND_RECORD File=VDI$PARSE.:VDA5TSI               FRI 07/04/97 11:34 Page:253
     2037     7817        %XUG_GETCMD (NAME=XUG_GETCMD, STCLASS=SYMREF);
     2038     8155        %XUG_INIT (NAME=XUG_INIT, STCLASS=SYMREF);
     2039     8568    1   DCL B$JIT$ PTR SYMREF;
     2040     8569    1   DCL B$TCB$ PTR SYMREF;
     2041     8570
     2042     8571
     2043     8572    1   DCL PTR_$COMMENT$ PTR CONSTANT INIT(ADDR(VD_$COMMENT));
     2044     8573
     2045     8574        /*N* Someday, would be nice to allow different $STRING delimiters */
     2046     8575        %VD_BUFFER (NAME=D_$STRING, STCLASS=CONSTANT, IBYTES="''''");
     2047     8635    1   DCL PTR_$STRING$ PTR CONSTANT INIT(ADDR(D_$STRING));
     2048     8636
     2049     8637
     2050     8638    1   DCL BUF$ PTR;
     2051     8639    1   DCL NB_BUF SBIN;
     2052     8640    1   DCL CMD_RECORD$ PTR;
     2053     8641    1   DCL SCAN_INDEX UBIN;
     2054     8642        %VD$LOCATION (NAME=SYNONYM_LOC, STCLASS=AUTO);
     2055     8670        %VD_TEXTC_REMOTE (NAME=TOKEN, STCLASS=AUTO, MXNB=%MXNB_NAME_VALUE);
     2056     8733    1   DCL SY_KEY$ PTR;
     2057     8734    1   DCL N UBIN;
     2058     8735    1   DCL VD_ERR$ PTR;
     2059     8736
     2060     8737
     2061     8738    1   DCL BUF CHAR(NB_BUF) BASED(BUF$);
     2062     8739        %VD$CMD_STREAM (NAME=CMD$STREAM, STCLASS="BASED(VD_6E.CMD_STREAM$)");
     2063     8778        %VD$BUFFER (NAME=CMD$RECORD, STCLASS="BASED(CMD_RECORD$)");
     2064     8836        %VD$TEXTC (NAME=SY$KEY, STCLASS="BASED(SY_KEY$)");
     2065     8859        %VD$BUFFER (NAME=VD$COMMENT, STCLASS="BASED(PTR_$COMMENT$)");
     2066     8917        %VD$BUFFER (NAME=D$STRING, STCLASS="BASED(PTR_$STRING$)");
     2067     8975        %VD$STREAM (NAME=SYNONYMS$STREAM, STCLASS="BASED(VD_6E.SYNONYMS$)");
     2068     9081        %VD$ERR (NAME=VD$ERR, STCLASS="BASED(VD_ERR$)");
     2069     9134        %VD$ERR (NAME=FATAL$ERR, STCLASS="BASED(VD_6E.ERR_HEAD$)");
     2070     9187        %B$TCB (NAME=B$TCB, STCLASS="BASED(B$TCB$)");
     2071     9190        %B$ALT;
     2072     9198        %VD$PORT;
     2073     9296        %VD$BUFFER;
PL6.E3A0      #003=VDI$PGET_COMMAND_RECORD File=VDI$PARSE.:VDA5TSI               FRI 07/04/97 11:34 Page:254
     2074     9354        %VD$BUFFER_HEADER;
     2075     9390        %VD$OBJECT_HEADER;
     2076     9412        %VD$TEXTC_REMOTE;
     2077     9473
     2078     9474
     2079     9475
     2080     9476    1           BUF$ = VBASE(BUF_);
     2081     9477    1           NB_BUF = VBOUND(BUF_) + 1;
     2082     9478    1           ARS = 0;
     2083     9479    1           NEXT_RECORD$$ = ENTADDR(VDI$PGET_COMMAND_RECORD);
     2084     9480    1           ERRCODE = %CLEAR;
     2085     9481    1           EOMCHAR = %EOM_EOR#;
     2086     9482
     2087     9483    2           DO N = 0 TO %(MX_CMD_OBJECTS-1);
     2088     9484    3              IF VD_CMD_OBJECTS$ (N) ~= ADDR(NIL) THEN DO;
     2089     9485    3                 CALL VDG$OFREE (VD_CMD_OBJECTS$ (N) -> VD$OBJECT_HEADER)
     2090     9486    3                   ALTRET (OFREE_FAILED);
     2091     9487    3                 VD_CMD_OBJECTS$ (N) = ADDR(NIL);
     2092     9488    3                 END;
     2093     9489    2              END;
     2094     9490
     2095     9491    1           CALL READ_COMMAND_RECORD
     2096     9492    1             ALTRET (READ_COMMAND_RECORD_FAILED);
     2097     9493
     2098     9494    1           IF CMD$STREAM.INTREE$ ~= ADDR(NIL) THEN
     2099     9495    1              RETURN;      /* Return an empty buffer to XUG$GETCMD */
     2100     9496    1           CMD_RECORD$ = CMD$STREAM.RECORD$;
     2101     9497    1           IF CMD$RECORD.LENGTH# = 0 THEN
     2102     9498    1              RETURN;             /* Empty command line:  just return */
     2103     9499
     2104     9500    2           IF CMD$STREAM.CMD_AFTER_READ THEN DO;
     2105     9501    2              CMD$STREAM.CMD_AFTER_READ = %FALSE;
     2106     9502    3              IF CMD$RECORD.LENGTH# > NB_BUF THEN DO; /* no longer fits */
     2107     9503    3                 CMD$RECORD.LENGTH# = NB_BUF;
     2108     9504    3                 CALL VDG$OALLOC (%CLS_ERR, VD_ERR$);
     2109     9505    3                 VD$ERR.ERR.CODE# = %E$READ_2BIG;
     2110     9506    3                 VD$ERR.FLAGLEV# = %FLV_SERIOUS;
PL6.E3A0      #003=VDI$PGET_COMMAND_RECORD File=VDI$PARSE.:VDA5TSI               FRI 07/04/97 11:34 Page:255
     2111     9507    3                 GOTO READ_COMMAND_RECORD_FAILED;
     2112     9508    3                 END;
     2113     9509
     2114     9510    2              GOTO RETURN_RECORD; /* Skip synonym substitution */
     2115     9511    2              END;
     2116     9512
     2117     9513
     2118     9514                %BOX (TITLE="Find and replace synonyms");

              9526    2   /***************************************************************************
              9528    2    *                                                                         *
              9532    2            *                         Find and replace synonyms                       *
              9534    2            *                                                                         *
              9536    2           ***************************************************************************/

     2119     9540
     2120     9541    1           SYNONYM_LOC = %CLEAR;
     2121     9542    1           SYNONYM_LOC.KEY.TYPE# (%(LVL_LOWER-1)) = %KT_STRING;
     2122     9543    1           SYNONYM_LOC.KEY.REP# (%(LVL_LOWER-1)) = %REP_REMOTE;
     2123     9544    1           SYNONYM_LOC.KEY.V$ (%(LVL_LOWER-1)) = ADDR(TOKEN);
     2124     9545    1           TOKEN = %CLEAR;
     2125     9546    1           TOKEN.OBJECT.CLASS# = %CLS_TEXTC_REMOTE;
     2126     9547
     2127     9548    1           SCAN_INDEX = 0;
     2128     9549    1   EACH_TOKEN:
     2129     9550    2           DO WHILE SCAN_INDEX < CMD$RECORD.LENGTH#;
     2130     9551    2              CALL FIND_TOKEN (SCAN_INDEX, TOKEN)
     2131     9552    2                ALTRET (FIND_TOKEN_FAILED);
     2132     9553
     2133     9554    3              IF TOKEN.LENGTH# > 0 THEN DO;
     2134     9555    3                 CALL XLATE (SUBSTR(TOKEN.BYTES, 0, TOKEN.LENGTH#), B$XL_UPPER,
     2135     9556    3                   SUBSTR(TOKEN.BYTES, 0, TOKEN.LENGTH#));
     2136     9557
     2137     9558    3   TOKEN_SELECTIONS:
     2138     9559    4                 DO SELECT (SUBSTR(TOKEN.BYTES, 0, TOKEN.LENGTH#));
     2139     9560    4                    SELECT (%KW_FILE, %KWA_FILE, %KW_READ);
     2140     9561                         /* Skip both the FILE or READ keywords and the fid that
PL6.E3A0      #003=VDI$PGET_COMMAND_RECORD File=VDI$PARSE.:VDA5TSI               FRI 07/04/97 11:34 Page:256
     2141     9562                         *    follows them.                                  */
     2142     9563    4                    SCAN_INDEX = SCAN_INDEX + TOKEN.LENGTH#; /* Skip keyword */
     2143     9564    4                    CALL FIND_FID (SCAN_INDEX, TOKEN)
     2144     9565    4                      ALTRET (FIND_FID_FAILED);
     2145     9566    4                    SCAN_INDEX = SCAN_INDEX + TOKEN.LENGTH#; /* Skip fid */
     2146     9567
     2147     9568    4                    SELECT (%KW_SYNONYM, %KWA_SYNONYM);
     2148     9569                         /* Skip SYNONYM keyword and the token following it */
     2149     9570    4                    SCAN_INDEX = SCAN_INDEX + TOKEN.LENGTH#; /* Skip SYNONYM */
     2150     9571    4                    CALL FIND_TOKEN (SCAN_INDEX, TOKEN)
     2151     9572    4                      ALTRET (FIND_TOKEN_FAILED);
     2152     9573    4                    SCAN_INDEX = SCAN_INDEX + TOKEN.LENGTH#; /* Skip token */
     2153     9574
     2154     9575    4                    SELECT (ELSE);
     2155     9576                         /* Got a candidate token:  see if it's a synonym */
     2156     9577    4                 CALL VDA$LREAD (SYNONYMS$STREAM, SYNONYM_LOC, 0, %TRUE)
     2157     9578    4                   ALTRET (LREAD_FAILED);
     2158     9579                      %GETKEY (KEY=SYNONYMS$STREAM.PORT$->VD$PORT.CURRENT.KEY,
     2159     9580                      INDX=%LVL_LOWER-1, PTR=SY_KEY$);
     2160     9590    4                 IF SY$KEY.BYTES =
     2161     9591    5                   SUBSTR(TOKEN.BYTES, 0, TOKEN.LENGTH#) THEN DO;
     2162     9592    5                    CALL REPLACE_STRING_AND_SKIP (SCAN_INDEX, TOKEN.LENGTH#,
     2163     9593    5                      SYNONYMS$STREAM.PORT$ ->
     2164     9594    5                      VD$PORT.LEVEL.DATA$ (%LVL_LOWER) -> VD$BUFFER)
     2165     9595    5                      ALTRET (REPLACE_STRING_AND_SKIP_FAILED);
     2166     9596    5                    END;
     2167     9597    4                 ELSE
     2168     9598    4                    SCAN_INDEX = SCAN_INDEX + TOKEN.LENGTH#;
     2169     9599
     2170     9600    4                    END TOKEN_SELECTIONS;
     2171     9601    3                 END;
     2172     9602    2              END EACH_TOKEN;
     2173     9603
     2174     9604    1   RETURN_RECORD: ;
     2175     9605    1           CALL INSERT (BUF, 0, CMD$RECORD.LENGTH#, CMD$RECORD.BYTES)
     2176     9606    2           WHENALTRETURN DO;
     2177     9607    2              CALL VDG$ESCREECH (CMD$RECORD.LENGTH#, NB_BUF);
PL6.E3A0      #003=VDI$PGET_COMMAND_RECORD File=VDI$PARSE.:VDA5TSI               FRI 07/04/97 11:34 Page:257
     2178     9608    2              END;
     2179     9609    1           ARS = CMD$RECORD.LENGTH#;
     2180     9610
     2181     9611    1           RETURN;
     2182     9612
     2183     9613
     2184     9614
     2185     9615    1   READ_COMMAND_RECORD_FAILED: ;
     2186     9616    1   OFREE_FAILED: ;
     2187     9617    1   FIND_TOKEN_FAILED: ;
     2188     9618    1   FIND_FID_FAILED: ;
     2189     9619    1   LREAD_FAILED: ;
     2190     9620    1   REPLACE_STRING_AND_SKIP_FAILED: ;
     2191     9621    1           ERRCODE = VD_6E.ERR_TAIL$->VD$ERR.ERR;
     2192     9622                /*
     2193     9623                *   We don't want XUG$GETCMD to parse this command record, but we do
     2194     9624                *       want to tell GETCMD about it in case VDG$EREPORT_ERROR calls
     2195     9625                *       XUG$ERRPTR (eg, in case one of the errors has
     2196     9626                *       VD$ERR.CMDLINE_INDEX# set).
     2197     9627                *   So, return the record (if any), but reset the parse nodes to NIL.
     2198     9628                *       (((Test case:  With !DONT POINT, say CO ST 'ABC AF 6
     2199     9629                *       ie, enter a string with unbalanced quotes.)))
     2200     9630                */
     2201     9631    1           IF CMD$STREAM.RECORD$ = ADDR(NIL) THEN
     2202     9632    1              ARS = 0;
     2203     9633    2           ELSE DO;
     2204     9634    2              CMD_RECORD$ = CMD$STREAM.RECORD$;
     2205     9635    2              CALL INSERT (BUF, 0, CMD$RECORD.LENGTH#, CMD$RECORD.BYTES)
     2206     9636    3              WHENALTRETURN DO;
     2207     9637    3                 CALL VDG$ESCREECH (CMD$RECORD.LENGTH#, NB_BUF);
     2208     9638    3                 END;
     2209     9639    2              ARS = CMD$RECORD.LENGTH#;
     2210     9640    2              XUG_GETCMD.NODES$ = ADDR(VD_ASYM);
     2211     9641    2              RETURN; /* So GETCMD will echo the record */
     2212     9642    2              END;
     2213     9643    1           ALTRETURN;
     2214     9644
PL6.E3A0      #003=VDI$PGET_COMMAND_RECORD File=VDI$PARSE.:VDA5TSI               FRI 07/04/97 11:34 Page:258
     2215     9645        %BOX (TITLE=READ_COMMAND_RECORD, PAGE=YES);
              9653    1
              9657    1   /***************************************************************************
              9659    1    *                                                                         *
              9663    1            *                            READ_COMMAND_RECORD                          *
              9665    1            *                                                                         *
              9667    1           ***************************************************************************/

     2216     9671
     2217     9672        /*I* NAME: READ_COMMAND_RECORD
     2218     9673            PARAMETERS:
     2219     9674                None.
     2220     9675            INPUT:
     2221     9676                VD_6E.CMD_STREAM$:  Ptr to top VD$CMD_STREAM on stack of same.
     2222     9677                    Each entry represents a command stream; all entries except
     2223     9678                    the top represent command streams which have been
     2224     9679                    interrupted by a READ command.  A command stream can be
     2225     9680                    either:
     2226     9681                        The command window (there may be a partially unprocessed
     2227     9682                            record in the VD$CMD_STREAM, left over from a READ
     2228     9683                            command);
     2229     9684                        A file (the VD$CMD_STREAM remembers where in the file
     2230     9685                            to start reading again); or
     2231     9686                        A buffer or InTree containing a single command line (the
     2232     9687                            VD$CMD_STREAM remembers where in the buffer/InTree to
     2233     9688                            start processing again).
     2234     9689                    The top entry (if any) on the stack is the current
     2235     9690                    position in the current command stream.  The stack must
     2236     9691                    never be empty.
     2237     9692            OUTPUT:
     2238     9693                CMD$STREAM (top VD$CMD_STREAM) will describe the command record
     2239     9694                    read from the command stream:
     2240     9695                    .INTREE$ may point to an InTree for the record.  If .INTREE$
     2241     9696                        is not NIL, the InTree should be used in preference to
     2242     9697                        the character record in .RECORD$.
     2243     9698                    .RECORD$ may point to a VD$BUFFER containing the record.
     2244     9699                    .REC_NUM# will be the file record number (counting from 1) of the
PL6.E3A0      #003=VDI$PGET_COMMAND_RECORD File=VDI$PARSE.:VDA5TSI               FRI 07/04/97 11:34 Page:259
     2245     9700                        record pointed-to by .INTREE$/.RECORD$.
     2246     9701                    Either one or both of .INTREE$ and .RECORD$ will be non-NIL.
     2247     9702                    If both are returned, .INTREE$ should be used in preference to
     2248     9703                    .RECORD$; the character form of the command record is kept only
     2249     9704                    for the purposes of error reporting.
     2250     9705                VD_6E.CMD_STREAM$ may be modified.  The VD$CMD_STREAM at the
     2251     9706                    top of the stack may be modified.
     2252     9707                XUG_GETCMD.TREAD# will be set if we read a record from the
     2253     9708                    terminal, reset otherwise.
     2254     9709            DESCRIPTION:
     2255     9710                Read the next record from the current command stream:  either
     2256     9711                the next record from a READ-file, or a record from the command
     2257     9712                window, or the unprocessed portion of an existing record
     2258     9713                buffer.
     2259     9714                Note that if the current command stream is a workspace file,
     2260     9715                    we'll load the workspace, pop the command stream, then
     2261     9716                    read from the new "current" command stream.
     2262     9717                If we get EOF, pop the command stream stack: if the new
     2263     9718                command stream is:
     2264     9719                o A READ-file:
     2265     9720                    Open it and reposition to the last record read from the file.
     2266     9721                o The command window:
     2267     9722                    If the command stream contains a partially-unprocessed record,
     2268     9723                        then return it as the next command record.
     2269     9724                    However, If the command stream doesn't contain a
     2270     9725                        partially-unprocessed record, return an empty command record.
     2271     9726                        We return an empty command record when we transition back to
     2272     9727                        the command window, instead of reading from the command window
     2273     9728                        immediately.  This gives VDI$PDRIVER a chance to re-evaluate
     2274     9729                        its parameters for deciding whether to read from the command
     2275     9730                        window or the current editing window.
     2276     9731        */
     2277     9732
     2278     9733    1   READ_COMMAND_RECORD: PROC ALTRET;
     2279     9734
     2280     9735
     2281     9736    2   DCL REC_NUM_INCR SBIN;
PL6.E3A0      #003=VDI$PGET_COMMAND_RECORD File=VDI$PARSE.:VDA5TSI               FRI 07/04/97 11:34 Page:260
     2282     9737    2   DCL HAD_ERROR BIT(1) ALIGNED;
     2283     9738    2   DCL EOF_FLAG BIT(1) ALIGNED;
     2284     9739
     2285     9740
     2286     9741        %VD$BUFFER;
     2287     9799
     2288     9800
     2289     9801
     2290     9802    2           REC_NUM_INCR = 1;   /* Assume we're reading new record */
     2291     9803    2           HAD_ERROR = %FALSE;
     2292     9804
     2293     9805    3           DO UNTIL NOT EOF_FLAG;
     2294     9806    3              CALL CMD_STREAM_READ
     2295     9807    3                ALTRET (CMD_STREAM_READ_FAILED);
     2296     9808
     2297     9809    4              IF EOF_FLAG THEN DO;
     2298     9810    4                 CALL POP_STACK_AND_POSTN
     2299     9811    4                   ALTRET (POP_STACK_AND_POSTN_FAILED);
     2300     9812    4                 IF CMD$STREAM.CMD_AFTER_READ THEN
     2301     9813    4                    REC_NUM_INCR = 0;
     2302     9814    5                 ELSE IF CMD$STREAM.TYPE# = %CS_ME THEN DO;
     2303     9815                         /* Return an empty buffer to get into the editing window
     2304     9816                            after a command-line or read command */
     2305     9817    6                       IF CMD$STREAM.RECORD$ = ADDR(NIL) THEN DO;
     2306     9818    6                          CALL VDG$OALLOC (%CLS_BUFFER, CMD$STREAM.RECORD$,
     2307     9819    6                            SIZEW(VD$BUFFER_HEADER))
     2308     9820    6                            ALTRET (OALLOC_FAILED);
     2309     9821    6                          END;
     2310     9822    5                       CMD$STREAM.RECORD$->VD$BUFFER.LENGTH# = 0;
     2311     9823    5                       EOF_FLAG = %FALSE;
     2312     9824    5                       END;
     2313     9825    4                 END;
     2314     9826    3              END;
     2315     9827
     2316     9828    2           IF HAD_ERROR THEN
     2317     9829    2              ALTRETURN;
     2318     9830
PL6.E3A0      #003=VDI$PGET_COMMAND_RECORD File=VDI$PARSE.:VDA5TSI               FRI 07/04/97 11:34 Page:261
     2319     9831    2           CMD$STREAM.REC_NUM# = CMD$STREAM.REC_NUM# + REC_NUM_INCR;
     2320     9832    2           RETURN;
     2321     9833
     2322     9834
     2323     9835
     2324     9836    2   CMD_STREAM_READ_FAILED: ;
     2325     9837    2   POP_STACK_AND_POSTN_FAILED: ;
     2326     9838    2   OALLOC_FAILED: ;
     2327     9839    2           ALTRETURN;
     2328     9840
     2329     9841
     2330     9842                %BOX (TITLE=CMD_STREAM_READ);

              9854    2   /***************************************************************************
              9856    2    *                                                                         *
              9860    2            *                              CMD_STREAM_READ                            *
              9862    2            *                                                                         *
              9864    2           ***************************************************************************/

     2331     9868
     2332     9869        /*I** NAME: CMD_STREAM_READ
     2333     9870            PARAMETERS:
     2334     9871                None.
     2335     9872            INPUT:
     2336     9873                CMD$STREAM - Current command stream.
     2337     9874            OUTPUT:
     2338     9875                If EOF not hit:
     2339     9876                    CMD$STREAM.INTREE$ may point to an InTree (chain of VD$IT_COMMAND
     2340     9877                        nodes) for the record read from the command stream.
     2341     9878                        The first node in the chain is always the first node to
     2342     9879                        process (any previously-processed nodes will be stripped).
     2343     9880                    CMD$STREAM.RECORD$ may point to either a VD$BUFFER containing
     2344     9881                        the record read from the command stream.  If .INTREE$
     2345     9882                        is non-NIL, it should be used instead of .RECORD$.
     2346     9883                        In .RECORD$'s VD$BUFFER.DATA, the VFC and already-processed
     2347     9884                        leading will have been stripped from the buffer, so the
     2348     9885                        next character to process will be the first character of
PL6.E3A0      #003=VDI$PGET_COMMAND_RECORD File=VDI$PARSE.:VDA5TSI               FRI 07/04/97 11:34 Page:262
     2349     9886                        the buffer.
     2350     9887                    XUG_GETCMD.TREAD# will be set if we got the command record
     2351     9888                        from an interactive terminal; reset otherwise.
     2352     9889                EOF_FLAG - Will contain %TRUE if there are no more records
     2353     9890                    in the current command stream (EOF on file or EOF activation
     2354     9891                    from the command window).
     2355     9892            DESCRIPTION:
     2356     9893                Read the next record.  Return EOF if appropriate.
     2357     9894                Note that if we see a VD$CMD_STREAM for a file whose file-type
     2358     9895                    is %CHR_ENCODED_TYPE, we'll call VDW$LOAD, which could
     2359     9896                    change alot of info in the internal files -- like all of
     2360     9897                    them!
     2361     9898                If we're reading from the terminal, we sometimes force pagehalt
     2362     9899                    off and then on again.  We do this when there is an
     2363     9900                    editing window to which the cursor will probably return
     2364     9901                    after this command read (ie, $COMMAND is off and the
     2365     9902                    editing window has an EditBlock).  If we didn't turn
     2366     9903                    pagehalt off, the user would have to type two CRs after
     2367     9904                    every command:  one to terminate the command and one
     2368     9905                    in response to the CR TO GO or beep.  However, if we
     2369     9906                    leave pagehalt off as we return to XUG$GETCMD, then if
     2370     9907                    GETCMD reports any errors they'll flash by in the command
     2371     9908                    window before the user can read them!  So, if we decide
     2372     9909                    to turn pagehalt off before the M$READ, we must turn it
     2373     9910                    back on after the M$READ.
     2374     9911        */
     2375     9912
     2376     9913    2   CMD_STREAM_READ: PROC ALTRET;
     2377     9914
     2378     9915
     2379     9916        %FPT_READ (STCLASS=STATIC);
     2380     9955        %FPT_WRITE (FPTN=WRITE_BLANK_LINE, STCLASS=STATIC, BUF=BLANK_BUF);
     2381     9986    3   DCL BLANK_BUF CHAR(1) CONSTANT INIT(%CHR_SPACE);
     2382     9987
     2383     9988
     2384     9989    3   DCL BUF_SIZE SBIN;
     2385     9990    3   DCL N SBIN;
PL6.E3A0      #003=VDI$PGET_COMMAND_RECORD File=VDI$PARSE.:VDA5TSI               FRI 07/04/97 11:34 Page:263
     2386     9991    3   DCL IT_COMMAND$ PTR;
     2387     9992    3   DCL VD_BUFFER$ PTR;
     2388     9993    3   DCL READ_DCB$ PTR;
     2389     9994    3   DCL 1 LOAD_FLAGS ALIGNED,
     2390     9995              %VD$PDFF (NAME=F, STCLASS=AUTO, LEV=2, LAST=YES);
     2391    10009
     2392    10010
     2393    10011        %VD$IT_COMMAND (NAME=IT$COMMAND, STCLASS="BASED(IT_COMMAND$)");
     2394    10049        %VD$BUFFER (NAME=VD$BUFFER, STCLASS="BASED(VD_BUFFER$)");
     2395    10107        %F$DCB (DCBN=READ$DCB, STCLASS="BASED(READ_DCB$)");
     2396    10164        %VD$IT_COMMAND;
     2397    10202
     2398    10203
     2399    10204
     2400    10205    3           EOF_FLAG = %FALSE;
     2401    10206    3           XUG_GETCMD.TREAD# = %FALSE;
     2402    10207
     2403    10208    3   CMD_STREAM_TYPE_CASES:
     2404    10209    4           DO CASE (CMD$STREAM.TYPE#);
     2405    10210
     2406    10211    4            CASE (%CS_BUFFER);
     2407    10212    4              IF (CMD$STREAM.INTREE$ = ADDR(NIL)
     2408    10213    4                AND CMD$STREAM.RECORD$ = ADDR(NIL))
     2409    10214    4                OR (CMD$STREAM.REC_NUM# > 0 AND NOT CMD$STREAM.CMD_AFTER_READ
     2410    10215    5                AND CMD$STREAM.RECORD$ -> VD$BUFFER.FLINK$ = ADDR(NIL)) THEN DO;
     2411    10216    5                 EOF_FLAG = %TRUE;
     2412    10217    5                 END;
     2413    10218                   /*
     2414    10219                   * Force increment of .REC_NUM#; otherwise, it won't be
     2415    10220                   *    incremented til the buffer is read twice.
     2416    10221                   *    (Test case:  !6EDIT (NEW FILE *) => reads
     2417    10222                   *    NEW FILE * command line twice.)
     2418    10223                   */
     2419    10224    4              ELSE IF CMD$STREAM.REC_NUM# = 0 THEN
     2420    10225    4                    CMD$STREAM.REC_NUM# = CMD$STREAM.REC_NUM# + 1;
     2421    10226    5                 ELSE IF NOT CMD$STREAM.CMD_AFTER_READ THEN DO;
     2422    10227    5                       VD_BUFFER$ = CMD$STREAM.RECORD$ -> VD$BUFFER.FLINK$;
PL6.E3A0      #003=VDI$PGET_COMMAND_RECORD File=VDI$PARSE.:VDA5TSI               FRI 07/04/97 11:34 Page:264
     2423    10228    5                       CMD$STREAM.RECORD$ -> VD$BUFFER.FLINK$ = ADDR(NIL);
     2424    10229    5                       CALL VDG$OFREE (CMD$STREAM.RECORD$ -> VD$BUFFER)
     2425    10230    5                         ALTRET (OFREE_FAILED);
     2426    10231    5                       CMD$STREAM.RECORD$ = VD_BUFFER$;
     2427    10232    5                       END;
     2428    10233                   /* Say we read from terminal, so won't echo this line */
     2429    10234    4              XUG_GETCMD.TREAD# = %TRUE;
     2430    10235
     2431    10236
     2432    10237    4            CASE (%CS_FILE, %CS_DCB);
     2433    10238    5              IF CMD$STREAM.FILE_TYPE = %CHR_ENCODED_TYPE THEN DO;
     2434    10239    5                 LOAD_FLAGS = %CLEAR;
     2435    10240    5                 LOAD_FLAGS.F (%PDFF_EQUALS) = %TRUE;
     2436    10241    6                 IF B$JIT.MODE = %M_INT# THEN DO;
     2437    10242                         /* Can load keyins only if we're timesharing */
     2438    10243    6                    LOAD_FLAGS.F (%PDFF_KEYINS) = %TRUE;
     2439    10244    6                    END;
     2440    10245    5                 LOAD_FLAGS.F (%PDFF_LOCATIONS) = %TRUE;
     2441    10246    5                 LOAD_FLAGS.F (%PDFF_SYNONYMS) = %TRUE;
     2442    10247                      /* Don't load windows or structures */
     2443    10248    5                 CALL VDW$LOAD (LOAD_FLAGS)
     2444    10249    5                   ALTRET (WLOAD_FAILED);
     2445    10250                      /*N**??*
     2446    10251                      *N**??* On altret from WLOAD, WLOAD has closed the SAVE-file and
     2447    10252                      *N**??*   popped it off the cmdstream stack.  But the prior
     2448    10253                      *N**??*   cmdstream hasn't been opened or positioned, has it???!!!
     2449    10254                      *N**??*/
     2450    10255    5                 EOF_FLAG = %TRUE;
     2451    10256    5                 END;
     2452    10257    4              ELSE IF CMD$STREAM.DCB#~=DCBNUM(NIL)
     2453    10258    4                   AND DCBADDR(CMD$STREAM.DCB#) -> READ$DCB.CTLCMDIN
     2454    10259    4                   AND B$JIT.NEXTCC = %CC_FROMUC# THEN
     2455    10260    4                    EOF_FLAG = %TRUE; /* Finished an XEQ, read from M$ME next */
     2456    10261    5                 ELSE IF NOT CMD$STREAM.CMD_AFTER_READ THEN DO;
     2457    10262    5                       CALL VDI$PREAD_FILE_READ (NB_BUF, EOF_FLAG)
     2458    10263    5                         ALTRET (PREAD_FILE_READ_FAILED);
     2459    10264    5                       END;
PL6.E3A0      #003=VDI$PGET_COMMAND_RECORD File=VDI$PARSE.:VDA5TSI               FRI 07/04/97 11:34 Page:265
     2460    10265    4              IF NOT CMD$STREAM.ECHO /* Only echo READ, XEQ, or BATCH */
     2461    10266    4                OR CMD$STREAM.CMD_AFTER_READ THEN /* unless rereading after READ */
     2462    10267    4                 XUG_GETCMD.TREAD# = %TRUE;
     2463    10268
     2464    10269
     2465    10270    4            CASE (%CS_ME);
     2466    10271    5              IF CMD$STREAM.INTREE$ ~= ADDR(NIL) THEN DO;
     2467    10272    5                 CALL VDG$OFREE (CMD$STREAM.INTREE$->VD$IT_COMMAND)
     2468    10273    5                   ALTRET (OFREE_FAILED);
     2469    10274    5                 CMD$STREAM.INTREE$ = ADDR(NIL);
     2470    10275    5                 END;
     2471    10276
     2472    10277                   /* If .POSITION# > 0, we already have a partial rec left over */
     2473    10278    4              IF NOT CMD$STREAM.CMD_AFTER_READ THEN
     2474    10279    4                 CALL READ_FROM_ME
     2475    10280    4                   ALTRET (READ_FROM_ME_FAILED);
     2476    10281
     2477    10282
     2478    10283    4            CASE (ELSE);
     2479    10284    4              CALL VDG$ESCREECH (CMD$STREAM.TYPE#);
     2480    10285    4            END CMD_STREAM_TYPE_CASES;
     2481    10286
     2482    10287
     2483    10288    4           IF NOT EOF_FLAG THEN DO;
     2484    10289                   /*
     2485    10290                   *  The two cases to be handled are:
     2486    10291                   *  1.  Reading a record for the first time.  CMD$STREAM.POSITION#
     2487    10292                   *        is either 0 or 1 in this case.  (It may be 1 if
     2488    10293                   *        the record contains a VFC char.)
     2489    10294                   *  2.  Re-reading a record whose processing was interrupted
     2490    10295                   *        by a READ command.  .POSITION# is > 1 in this case.
     2491    10296                   */
     2492    10297    5              IF CMD$STREAM.INTREE$ ~= ADDR(NIL) THEN DO;
     2493    10298    6                 IF CMD$STREAM.POSITION# > 0 THEN DO;
     2494    10299                         /* Strip some VD$IT_COMMANDs from front of chain */
     2495    10300    6                    N = CMD$STREAM.POSITION#;   /* # to strip */
     2496    10301    7                    DO WHILE CMD$STREAM.INTREE$ ~= ADDR(NIL)
PL6.E3A0      #003=VDI$PGET_COMMAND_RECORD File=VDI$PARSE.:VDA5TSI               FRI 07/04/97 11:34 Page:266
     2497    10302    7                      AND N > 0;
     2498    10303    7                       IT_COMMAND$ = CMD$STREAM.INTREE$;
     2499    10304    7                       CMD$STREAM.INTREE$ = IT$COMMAND.FLINK$;
     2500    10305    7                       CALL VDG$OFREE (IT$COMMAND)
     2501    10306    7                         ALTRET (OFREE_FAILED);
     2502    10307    7                       N = N - 1;
     2503    10308    7                       END;
     2504    10309    6                    END;
     2505    10310    5                 END;
     2506    10311    5              ELSE IF CMD$STREAM.RECORD$ ~= ADDR(NIL) THEN DO;
     2507    10312    5                    VD_BUFFER$ = CMD$STREAM.RECORD$;
     2508    10313    6                    IF CMD$STREAM.POSITION# < 2 THEN DO;
     2509    10314                            /*
     2510    10315                            *  This is case 1: we just read a record for the first
     2511    10316                            *       time.
     2512    10317                            *  Check for prompt at start of record.
     2513    10318                            */
     2514    10319    6                       IF SUBSTR(VD$BUFFER.BYTES, CMD$STREAM.POSITION#,
     2515    10320    6                         LENGTHC(%CHR_PROMPT)) = %CHR_PROMPT THEN
     2516    10321    6                          CMD$STREAM.POSITION# = CMD$STREAM.POSITION# +
     2517    10322    6                            LENGTHC(%CHR_PROMPT);
     2518    10323    6                       END;
     2519    10324
     2520    10325    6                    IF CMD$STREAM.POSITION# > 0 THEN DO;
     2521    10326                            /*
     2522    10327                            *  This ISN'T case 2!  Both cases may pass thru this code.
     2523    10328                            *  Case 1 may get here to strip a VFC char off the front
     2524    10329                            *    of the buffer.
     2525    10330                            *  Case 2 always gets here to strip the already-processed
     2526    10331                            *    commands off the front of the buffer.
     2527    10332                            */
     2528    10333    6                       VD$BUFFER.LENGTH# = MAXIMUM (0,
     2529    10334    6                         VD$BUFFER.LENGTH# - CMD$STREAM.POSITION#);
     2530    10335    6                       IF VD$BUFFER.LENGTH# > 0 THEN
     2531    10336    6                          VD$BUFFER.BYTES = SUBSTR (VD$BUFFER.BYTES,
     2532    10337    6                            CMD$STREAM.POSITION#, VD$BUFFER.LENGTH#);
     2533    10338    6                       CMD$STREAM.POSITION# = 0;
PL6.E3A0      #003=VDI$PGET_COMMAND_RECORD File=VDI$PARSE.:VDA5TSI               FRI 07/04/97 11:34 Page:267
     2534    10339    6                       END;
     2535    10340    5                    END;
     2536    10341    4              END;
     2537    10342
     2538    10343    3           RETURN;
     2539    10344
     2540    10345
     2541    10346
     2542    10347    3   PREAD_FILE_READ_FAILED:
     2543    10348    3           CALL VDI$PREAD_FILE_CLOSE;
     2544    10349    3           ALTRETURN;
     2545    10350
     2546    10351
     2547    10352    3   WLOAD_FAILED: ;
     2548    10353    3   READ_FROM_ME_FAILED: ;
     2549    10354    3   OALLOC_FAILED: ;
     2550    10355    3   OFREE_FAILED: ;
     2551    10356    3           ALTRETURN;
     2552    10357
     2553    10358    3   END CMD_STREAM_READ;
     2554    10359
     2555    10360
     2556    10361        %BOX (TITLE=READ_FROM_ME);

             10373    3   /***************************************************************************
             10375    3    *                                                                         *
             10379    3            *                                READ_FROM_ME                             *
             10381    3            *                                                                         *
             10383    3           ***************************************************************************/

     2557    10387
     2558    10388        /*I** NAME: READ_FROM_ME
     2559    10389            PARAMETERS:
     2560    10390                None.
     2561    10391            INPUT:
     2562    10392                CMD$STREAM - VD$CMD_STREAM at top of stack.  It must be a %CS_ME-type.
     2563    10393            OUTPUT:
PL6.E3A0      #003=VDI$PGET_COMMAND_RECORD File=VDI$PARSE.:VDA5TSI               FRI 07/04/97 11:34 Page:268
     2564    10394                CMD$STREAM.RECORD$ will point to the new record from ME.
     2565    10395                CMD$STREAM.POSITION# will be set to 1 if the record read from ME has
     2566    10396                    a VFC character; else .POSITION# will be set to 0.
     2567    10397                EOF_FLAG will be set if we get EOF from ME.
     2568    10398                XUG_GETCMD.TREAD will be set if we got a command line we want to
     2569    10399                    process.
     2570    10400                VD_FORCE_READ_FROM may be set.
     2571    10401            DESCRIPTION:
     2572    10402                Read a record from ME (the terminal command window).  If we didn't
     2573    10403                get EOF, then check the activation character:  if EOM_COMMAND, ignore
     2574    10404                this read and start another one.
     2575    10405        */
     2576    10406
     2577    10407    2   READ_FROM_ME: PROC ALTRET;
     2578    10408
     2579    10409
     2580    10410        %FPT_READ (STCLASS=STATIC);
     2581    10449
     2582    10450
     2583    10451    3   DCL BUF_SIZE SBIN;
     2584    10452    3   DCL VD_BUFFER$ PTR;
     2585    10453    3   DCL READ_DCB$ PTR;
     2586    10454    3   DCL ERR_CODE SBIN;
     2587    10455    3   DCL INTERRUPT_STATE_BEFORE_M$READ SBIN;
     2588    10456
     2589    10457
     2590    10458        %VD$BUFFER (NAME=VD$BUFFER, STCLASS="BASED(VD_BUFFER$)");
     2591    10516        %F$DCB (DCBN=READ$DCB, STCLASS="BASED(READ_DCB$)");
     2592    10573
     2593    10574
     2594    10575
     2595    10576    4           IF VD_LAST_CWIN_ACTIVITY = %LCA_SWITCH THEN DO;
     2596    10577    4              CALL VDG$ERASE_COMMAND_WINDOW
     2597    10578    4                ALTRET (ERASE_COMMAND_WINDOW_FAILED);
     2598    10579    4              END;
     2599    10580
     2600    10581    3           BUF_SIZE = (LENGTHC(VD$BUFFER_HEADER) + NB_BUF + %NB_PER_WORD - 1) /
PL6.E3A0      #003=VDI$PGET_COMMAND_RECORD File=VDI$PARSE.:VDA5TSI               FRI 07/04/97 11:34 Page:269
     2601    10582    3             %NB_PER_WORD;
     2602    10583    4           IF CMD$STREAM.RECORD$ ~= ADDR(NIL) THEN DO;
     2603    10584    4              VD_BUFFER$ = CMD$STREAM.RECORD$;
     2604    10585    5              IF VD$BUFFER.OBJECT.SIZE# < BUF_SIZE THEN DO;
     2605    10586    5                 CALL VDG$OFREE (VD$BUFFER)
     2606    10587    5                   ALTRET (OFREE_FAILED);
     2607    10588    5                 CMD$STREAM.RECORD$ = ADDR(NIL);
     2608    10589    5                 END;
     2609    10590    4              END;
     2610    10591    4           IF CMD$STREAM.RECORD$ = ADDR(NIL) THEN DO;
     2611    10592    4              CALL VDG$OALLOC (%CLS_BUFFER, CMD$STREAM.RECORD$, BUF_SIZE)
     2612    10593    4                ALTRET (OALLOC_FAILED);
     2613    10594    4              END;
     2614    10595    3           VD_BUFFER$ = CMD$STREAM.RECORD$;
     2615    10596    3           VD$BUFFER.LENGTH# = NB_BUF;
     2616    10597    3           FPT_READ.BUF_ = VECTOR(VD$BUFFER.BYTES);
     2617    10598    3           FPT_READ.V.DCB# = XUG_GETCMD.INDCB#;
     2618    10599    3           READ_DCB$ = DCBADDR(FPT_READ.V.DCB#);
     2619    10600
     2620    10601    3   DO_UNTIL_GOT_A_REC:
     2621    10602    4           DO UNTIL EOF_FLAG OR XUG_GETCMD.TREAD#;
     2622    10603    4              ERR_CODE = 0;
     2623    10604    5              DO INHIBIT;
     2624    10605    5                 INTERRUPT_STATE_BEFORE_M$READ = VD_6E.INTERRUPT.STATE#;
     2625    10606    5                 VD_6E.INTERRUPT.STATE# = %INST_READING;
     2626    10607    5                 END;
     2627    10608
     2628    10609    4              CALL M$READ (FPT_READ)
     2629    10610    5              WHENALTRETURN DO;
     2630    10611    5                 ERR_CODE = B$TCB.ALT$->B$ALT.ERR.ERR#;
     2631    10612    5                 END;
     2632    10613
     2633    10614    5              DO INHIBIT;
     2634    10615    5                 VD_6E.INTERRUPT.STATE# = INTERRUPT_STATE_BEFORE_M$READ;
     2635    10616    5                 END;
     2636    10617
     2637    10618    5              IF ERR_CODE ~= 0 THEN DO;
PL6.E3A0      #003=VDI$PGET_COMMAND_RECORD File=VDI$PARSE.:VDA5TSI               FRI 07/04/97 11:34 Page:270
     2638    10619    5                 IF ERR_CODE ~= %E$EOF OR B$JIT.MODE ~= %M_INT# THEN
     2639    10620                         /* Non-EOF error, or EOF in batch/ghost/TP */
     2640    10621    5                    GOTO CMD_WINDOW_READ_FAILED;
     2641    10622    5                 EOF_FLAG = %TRUE;
     2642    10623    5                 END;
     2643    10624    4              ELSE
     2644    10625    5   READ_COMPLETED_OK: DO;
     2645    10626    5                 VD$BUFFER.LENGTH# = READ$DCB.ARS#;
     2646    10627
     2647    10628    5                 EOMCHAR = READ$DCB.EOMCHAR#;
     2648    10629    5                 IF READ$DCB.EOMVAL#.VALUE# = %EOM_COMMAND THEN
     2649    10630                             /* Ignore empty command line, start another one */
     2650    10631    5                    IF READ$DCB.ARS#=0 THEN EXIT READ_COMPLETED_OK;
     2651    10632                             /* Otherwise, stay in the command window */
     2652    10633    5                    ELSE VD_FORCE_READ_FROM = %RF_COMMAND_WINDOW;
     2653    10634    5                 ELSE IF READ$DCB.EOMVAL#.VALUE# = %EOM_NEXT_ED_WINDOW THEN
     2654    10635                            /*
     2655    10636                            *  Treat EOM_NEXT_ED_WINDOW like CR, but force next
     2656    10637                            *    read from editing window.
     2657    10638                            */
     2658    10639
     2659    10640    5                       ; /* ? */
     2660    10641    5                    ELSE IF READ$DCB.EOMVAL#.VALUE# = %EOM_ED_WINDOW
     2661    10642    5                         OR READ$DCB.EOMVAL#.VALUE# = %EOM_PREV_RECORD
     2662    10643    5                         OR READ$DCB.EOMVAL#.VALUE# = %EOM_SPLIT_RECORD THEN
     2663    10644                            /*  A <LF> in the command window means go to
     2664    10645                                the current editing window.  */
     2665    10646
     2666    10647    5                          VD_FORCE_READ_FROM = %RF_EDITING_WINDOW;
     2667    10648
     2668    10649                            /* CR or other "normal" activations */
     2669    10650    5                 XUG_GETCMD.TREAD# = %TRUE;
     2670    10651    5                 CMD$STREAM.POSITION# = BITBIN(READ$DCB.DVBYTE.VFC#);
     2671    10652    5                 END READ_COMPLETED_OK;
     2672    10653
     2673    10654    4              END DO_UNTIL_GOT_A_REC;
     2674    10655
PL6.E3A0      #003=VDI$PGET_COMMAND_RECORD File=VDI$PARSE.:VDA5TSI               FRI 07/04/97 11:34 Page:271
     2675    10656    3           RETURN;
     2676    10657
     2677    10658
     2678    10659
     2679    10660    3   CMD_WINDOW_READ_FAILED:
     2680    10661    4           IF B$JIT.MODE ~= %M_INT# THEN DO;
     2681    10662                   /* Error while reading in batch is fatal */
     2682    10663    4              FATAL$ERR.ERR = B$TCB.ALT$->B$ALT.ERR;
     2683    10664    5              IF FATAL$ERR.ERR.CODE# = %E$EOF THEN DO;
     2684    10665    5                 FATAL$ERR.ERR = %CLEAR;
     2685    10666    5                 FATAL$ERR.ERR.CODE# = %E$NO_MORE_COMMANDS;
     2686    10667    5                 END;
     2687    10668    4              FATAL$ERR.FLAGLEV# = %FLV_FATAL;
     2688    10669    4              FATAL$ERR.DCB# = FPT_READ.V.DCB#;
     2689    10670    4              END;
     2690    10671    4           ELSE DO;
     2691    10672    4              CALL VDG$OALLOC (%CLS_ERR, VD_ERR$)
     2692    10673    4                ALTRET (OALLOC_FAILED);
     2693    10674    4              VD$ERR.ERR = B$TCB.ALT$->B$ALT.ERR;
     2694    10675    4              VD$ERR.FLAGLEV# = %FLV_SERIOUS;
     2695    10676    4              VD$ERR.DCB# = FPT_READ.V.DCB#;
     2696    10677    4              END;
     2697    10678    3           ALTRETURN;
     2698    10679
     2699    10680
     2700    10681    3   OALLOC_FAILED: ;
     2701    10682    3   OFREE_FAILED: ;
     2702    10683    3   ERASE_COMMAND_WINDOW_FAILED: ;
     2703    10684    3           ALTRETURN;
     2704    10685
     2705    10686    3   END READ_FROM_ME;
     2706    10687
     2707    10688
     2708    10689                %BOX (TITLE=POP_STACK_AND_POSTN);

             10701    3   /***************************************************************************
             10703    3    *                                                                         *
PL6.E3A0      #003=VDI$PGET_COMMAND_RECORD File=VDI$PARSE.:VDA5TSI               FRI 07/04/97 11:34 Page:272
             10707    3            *                            POP_STACK_AND_POSTN                          *
             10709    3            *                                                                         *
             10711    3           ***************************************************************************/

     2709    10715
     2710    10716        /*I** NAME: POP_STACK_AND_POSTN
     2711    10717            PARAMETERS:
     2712    10718                None.
     2713    10719            INPUT:
     2714    10720                CMD$STREAM - VD$CMD_STREAM at the top of the stack.
     2715    10721            OUTPUT:
     2716    10722                VD_6E.CMD_STREAM$ will be modified.  At exit, it will always
     2717    10723                    point to a VD$CMD_STREAM for what is now the current
     2718    10724                    command stream.
     2719    10725            DESCRIPTION:
     2720    10726               If eof is reached on the primary command stream, terminate 6EDIT.
     2721    10727               Otherwise:
     2722    10728                Close/free the top entry of the command stream stack and
     2723    10729                    pop the stack.
     2724    10730                If the stack is now empty, push an entry for the command window.
     2725    10731                If the top entry on the stack is now a READ-file, open the
     2726    10732                    file and position it to where we left off.
     2727    10733        */
     2728    10734
     2729    10735    2   POP_STACK_AND_POSTN: PROC ALTRET;
     2730    10736
     2731    10737
     2732    10738    3   DCL I UBIN;
     2733    10739    3   DCL SINK$ PTR;
     2734    10740
     2735    10741
     2736    10742
     2737    10743    4           IF CMD$STREAM.TYPE# = %CS_ME THEN DO;
     2738    10744    4              CALL VDI$CEND_GLOBAL;    /* Never returns!!! */
     2739    10745    4              END;
     2740    10746    3           ELSE IF CMD$STREAM.TYPE# = %CS_FILE
     2741    10747    4                OR CMD$STREAM.TYPE# = %CS_DCB THEN DO;
PL6.E3A0      #003=VDI$PGET_COMMAND_RECORD File=VDI$PARSE.:VDA5TSI               FRI 07/04/97 11:34 Page:273
     2742    10748    4                 CALL VDI$PREAD_FILE_CLOSE
     2743    10749    4                   ALTRET (PREAD_FILE_CLOSE_FAILED);
     2744    10750    4                 END;
     2745    10751    3           CALL VDG$OFREE (CMD$STREAM)
     2746    10752    3             ALTRET (OFREE_FAILED);
     2747    10753
     2748    10754    4           IF VD_6E.CMD_STREAM$ = ADDR(NIL) THEN DO;
     2749    10755    4              CALL VDG$OALLOC (%CLS_CMD_STREAM, SINK$)
     2750    10756    4                ALTRET (OALLOC_FAILED);
     2751    10757    4              CMD$STREAM.TYPE# = %CS_ME;
     2752    10758    4              END;
     2753    10759
     2754    10760    3           IF CMD$STREAM.TYPE# = %CS_FILE
     2755    10761    4             OR CMD$STREAM.TYPE# = %CS_DCB THEN DO;
     2756    10762    4              CALL VDI$PREAD_FILE_CLOSE
     2757    10763    4                ALTRET (PREAD_FILE_CLOSE_FAILED);
     2758    10764    4              CALL VDI$PREAD_FILE_OPEN
     2759    10765    4                ALTRET (PREAD_FILE_OPEN_FAILED);
     2760    10766    4              CALL VDI$PREAD_FILE_POSITION
     2761    10767    4                ALTRET (PREAD_FILE_POSITION_FAILED);
     2762    10768
     2763    10769    4              END;
     2764    10770
     2765    10771    3           RETURN;
     2766    10772
     2767    10773
     2768    10774
     2769    10775    3   PREAD_FILE_POSITION_FAILED:
     2770    10776    3           CALL VDI$PREAD_FILE_CLOSE;
     2771    10777    3           ALTRETURN;
     2772    10778
     2773    10779
     2774    10780    3   PREAD_FILE_CLOSE_FAILED: ;
     2775    10781    3   OFREE_FAILED: ;
     2776    10782    3   OALLOC_FAILED: ;
     2777    10783    3   PREAD_FILE_OPEN_FAILED: ;
     2778    10784    3           ALTRETURN;
PL6.E3A0      #003=VDI$PGET_COMMAND_RECORD File=VDI$PARSE.:VDA5TSI               FRI 07/04/97 11:34 Page:274
     2779    10785
     2780    10786    3   END POP_STACK_AND_POSTN;
     2781    10787
     2782    10788    2   END READ_COMMAND_RECORD;
     2783    10789
     2784    10790
     2785    10791                %BOX (TITLE="FIND_TOKEN and FIND_FID", PAGE=YES);
             10799    2
             10803    2   /***************************************************************************
             10805    2    *                                                                         *
             10809    2            *                          FIND_TOKEN and FIND_FID                        *
             10811    2            *                                                                         *
             10813    2           ***************************************************************************/

     2786    10817
     2787    10818        /*I* NAME: FIND_TOKEN and FIND_FID
     2788    10819            PARAMETERS:
     2789    10820                SCAN_INDEX - Index into CMD$RECORD.BYTES of next char to scan
     2790    10821                    for token.
     2791    10822                TOKEN - Unintialized VD$TEXTC_REMOTE with MXNB = %MXNB_NAME_VALUE.
     2792    10823            INPUT:
     2793    10824                CMD$RECORD - VD$BUFFER containing the command record.
     2794    10825                D$STRING - Based VD$BUFFER containing the current string
     2795    10826                    which is used to delimit string literals (that is,
     2796    10827                    the value of the $STRING predefined name).
     2797    10828            OUTPUT:
     2798    10829                If we don't find any more tokens/fids in the command record:
     2799    10830                    SCAN_INDEX will contain CMD$RECORD.LENGTH#.
     2800    10831                    TOKEN.LENGTH# will be 0.
     2801    10832                If we do find another token/fid in the command record:
     2802    10833                    SCAN_INDEX will contain the index into CMD$RECORD.BYTES
     2803    10834                        of the found token/fid.
     2804    10835                    TOKEN.LENGTH# will contain the length of the found token/fid.
     2805    10836                    TOKEN.BYTES will contain the found token/fid.
     2806    10837            DESCRIPTION:
     2807    10838                Starting at SCAN_INDEX, scan CMD$RECORD.BYTES for the next
     2808    10839                    non-literal token or for the next fid.
PL6.E3A0      #003=VDI$PGET_COMMAND_RECORD File=VDI$PARSE.:VDA5TSI               FRI 07/04/97 11:34 Page:275
     2809    10840                If we find a literal number or string, skip it.
     2810    10841                If we find a comment, skip it.
     2811    10842                If we don't find any more non-literal tokens or fids in
     2812    10843                    CMD$RECORD.BYTES, return with SCAN_INDEX pointing to the
     2813    10844                    end of CMD$RECORD.BYTES.
     2814    10845        */
     2815    10846
     2816    10847    1   FIND_TOKEN: PROC (SCAN_INDEX, TOKEN) ALTRET;
     2817    10848    2   DCL SCAN_INDEX UBIN;
     2818    10849        %VD_TEXTC_REMOTE (NAME=TOKEN, STCLASS=PARAM, MXNB=%MXNB_NAME_VALUE);
     2819    10912
     2820    10913
     2821    10914    2   DCL 1 XLATE_FID_CHAR_CLASS ALIGNED CONSTANT,
     2822    10915    2         2 * (0:511) UBIN BYTE CALIGNED INIT(
     2823    10916    2       %CCL_WHSP * %ASCBIN(CHR_SPACE),                 /* 000 - 037 */
     2824    10917    2       %CCL_WHSP, %CCL_RES, %CCL_RES, %CCL_NAME,       /* 040 - 043 */
     2825    10918    2       %CCL_NAME, %CCL_RES, %CCL_RES, %CCL_RES,        /* 044 - 047 */
     2826    10919    2       %CCL_RES, %CCL_RES, %CCL_NAME, %CCL_RES,        /* 050 - 053 */
     2827    10920    2       %CCL_RES, %CCL_NAME, %CCL_NAME, %CCL_NAME,      /* 054 - 057 */
     2828    10921    2       %CCL_NAME, %CCL_NAME, %CCL_NAME, %CCL_NAME,     /* 060 - 063 */
     2829    10922    2       %CCL_NAME, %CCL_NAME, %CCL_NAME, %CCL_NAME,     /* 064 - 067 */
     2830    10923    2       %CCL_NAME, %CCL_NAME, %CCL_NAME, %CCL_RES,      /* 070 - 073 */
     2831    10924    2       %CCL_RES, %CCL_RES, %CCL_RES, %CCL_NAME,        /* 074 - 077 */
     2832    10925    2       %CCL_NAME, %CCL_NAME, %CCL_NAME, %CCL_NAME,     /* 100 - 103 */
     2833    10926    2       %CCL_NAME, %CCL_NAME, %CCL_NAME, %CCL_NAME,     /* 104 - 107 */
     2834    10927    2       %CCL_NAME, %CCL_NAME, %CCL_NAME, %CCL_NAME,     /* 110 - 113 */
     2835    10928    2       %CCL_NAME, %CCL_NAME, %CCL_NAME, %CCL_NAME,     /* 114 - 117 */
     2836    10929    2       %CCL_NAME, %CCL_NAME, %CCL_NAME, %CCL_NAME,     /* 120 - 123 */
     2837    10930    2       %CCL_NAME, %CCL_NAME, %CCL_NAME, %CCL_NAME,     /* 124 - 127 */
     2838    10931    2       %CCL_NAME, %CCL_NAME, %CCL_NAME, %CCL_RES,      /* 130 - 133 */
     2839    10932    2       %CCL_RES, %CCL_RES, %CCL_RES, %CCL_NAME,        /* 134 - 137 */
     2840    10933    2       %CCL_RES, %CCL_NAME, %CCL_NAME, %CCL_NAME,      /* 140 - 143 */
     2841    10934    2       %CCL_NAME, %CCL_NAME, %CCL_NAME, %CCL_NAME,     /* 144 - 147 */
     2842    10935    2       %CCL_NAME, %CCL_NAME, %CCL_NAME, %CCL_NAME,     /* 150 - 153 */
     2843    10936    2       %CCL_NAME, %CCL_NAME, %CCL_NAME, %CCL_NAME,     /* 154 - 157 */
     2844    10937    2       %CCL_NAME, %CCL_NAME, %CCL_NAME, %CCL_NAME,     /* 160 - 163 */
     2845    10938    2       %CCL_NAME, %CCL_NAME, %CCL_NAME, %CCL_NAME,     /* 164 - 167 */
PL6.E3A0      #003=VDI$PGET_COMMAND_RECORD File=VDI$PARSE.:VDA5TSI               FRI 07/04/97 11:34 Page:276
     2846    10939    2       %CCL_NAME, %CCL_NAME, %CCL_NAME, %CCL_RES,      /* 170 - 173 */
     2847    10940    2       %CCL_RES, %CCL_RES, %CCL_RES, %CCL_WHSP,        /* 174 - 177 */
     2848    10941    2       %CCL_WHSP*0);                                   /* 200 - 777 */
     2849    10942
     2850    10943
     2851    10944
     2852    10945    2   DCL CLASS UBIN;
     2853    10946    2   DCL CLASS_TABLE$ PTR;
     2854    10947
     2855    10948
     2856    10949    2   DCL 1 CLASS$TABLE ALIGNED BASED(CLASS_TABLE$),
     2857    10950    2         2 C (0:0) UBIN BYTE CALIGNED;
     2858    10951
     2859    10952
     2860    10953
     2861    10954    2           CLASS_TABLE$ = ADDR(VD_XLATE_CHAR_CLASS);
     2862    10955    2           GOTO COMMON_ENTRY;
     2863    10956
     2864    10957
     2865    10958    2   FIND_FID: ENTRY (SCAN_INDEX, TOKEN) ALTRET;
     2866    10959    2           CLASS_TABLE$ = ADDR(XLATE_FID_CHAR_CLASS);
     2867    10960
     2868    10961
     2869    10962    2   COMMON_ENTRY:
     2870    10963    2           TOKEN.LENGTH# = 0;
     2871    10964
     2872    10965    2   LOOK_FOR_RETURNABLE_TOKEN:
     2873    10966    3           DO WHILE (SCAN_INDEX < CMD$RECORD.LENGTH#);
     2874    10967    3              IF SCAN_INDEX <= (CMD$RECORD.LENGTH# - D$STRING.LENGTH#)
     2875    10968    3                AND SUBSTR(CMD$RECORD.BYTES, SCAN_INDEX, D$STRING.LENGTH#) =
     2876    10969    4                D$STRING.BYTES THEN DO;
     2877    10970    4                 CALL SKIP_STRING_LITERAL (SCAN_INDEX)
     2878    10971    4                   ALTRET (SKIP_STRING_LITERAL_FAILED);
     2879    10972    4                 END;
     2880    10973    3              ELSE IF VD$COMMENT.LENGTH# > 0
     2881    10974    3                   AND SCAN_INDEX <= (CMD$RECORD.LENGTH# - VD$COMMENT.LENGTH#)
     2882    10975    3                   AND SUBSTR(CMD$RECORD.BYTES, SCAN_INDEX, VD$COMMENT.LENGTH#) =
PL6.E3A0      #003=VDI$PGET_COMMAND_RECORD File=VDI$PARSE.:VDA5TSI               FRI 07/04/97 11:34 Page:277
     2883    10976    4                   VD$COMMENT.BYTES THEN DO;
     2884    10977    4                    CALL INDEX (SCAN_INDEX, VD$COMMENT.BYTES,
     2885    10978    4                      CMD$RECORD.BYTES, SCAN_INDEX + VD$COMMENT.LENGTH#);
     2886    10979    4                    SCAN_INDEX = SCAN_INDEX + VD$COMMENT.LENGTH#;
     2887    10980    4                    END;
     2888    10981    4                 ELSE DO;
     2889    10982    4                    CLASS = CLASS$TABLE.C
     2890    10983    4                      (ASCBIN (SUBSTR (CMD$RECORD.BYTES, SCAN_INDEX, 1)));
     2891    10984
     2892    10985    5                    DO CASE (CLASS);
     2893    10986
     2894    10987    5                     CASE (%CCL_NUM, %CCL_DOT);
     2895    10988    5                       SCAN_INDEX = SCAN_INDEX + 1;
     2896    10989    6                       DO WHILE (SCAN_INDEX < CMD$RECORD.LENGTH#)
     2897    10990    6                         AND (CLASS = %CCL_NUM OR CLASS = %CCL_DOT);
     2898    10991    6                          CLASS = CLASS$TABLE.C
     2899    10992    6                            (ASCBIN (SUBSTR (CMD$RECORD.BYTES, SCAN_INDEX, 1)));
     2900    10993    6                          IF CLASS = %CCL_NUM OR CLASS = %CCL_DOT THEN
     2901    10994    6                             SCAN_INDEX = SCAN_INDEX + 1;
     2902    10995    6                          END;
     2903    10996
     2904    10997    5                     CASE (%CCL_WHSP, %CCL_RES);
     2905    10998    5                       SCAN_INDEX = SCAN_INDEX + 1;
     2906    10999
     2907    11000    5                     CASE (%CCL_SPEC);
     2908    11001    5                       TOKEN.LENGTH# = 1;
     2909    11002    6                       DO WHILE (SCAN_INDEX + TOKEN.LENGTH# < CMD$RECORD.LENGTH#)
     2910    11003    6                         AND (CLASS = %CCL_SPEC);
     2911    11004    6                          CLASS = CLASS$TABLE.C (ASCBIN
     2912    11005    6                            (SUBSTR(CMD$RECORD.BYTES, SCAN_INDEX + TOKEN.LENGTH#,
     2913    11006    6                            1)));
     2914    11007    6                          IF CLASS = %CCL_SPEC THEN
     2915    11008    6                             TOKEN.LENGTH# = TOKEN.LENGTH# + 1;
     2916    11009    6                          END;
     2917    11010    5                       TOKEN.BYTES = SUBSTR(CMD$RECORD.BYTES, SCAN_INDEX,
     2918    11011    5                         TOKEN.LENGTH#);
     2919    11012    5                       RETURN;
PL6.E3A0      #003=VDI$PGET_COMMAND_RECORD File=VDI$PARSE.:VDA5TSI               FRI 07/04/97 11:34 Page:278
     2920    11013
     2921    11014    5                     CASE (%CCL_NAME);
     2922    11015    5                       TOKEN.LENGTH# = 1;
     2923    11016    6                       DO WHILE (SCAN_INDEX + TOKEN.LENGTH# < CMD$RECORD.LENGTH#)
     2924    11017    6                         AND (CLASS = %CCL_NAME OR CLASS = %CCL_NUM);
     2925    11018    6                          CLASS = CLASS$TABLE.C (ASCBIN(SUBSTR
     2926    11019    6                            (CMD$RECORD.BYTES, SCAN_INDEX + TOKEN.LENGTH#, 1)));
     2927    11020    6                          IF CLASS = %CCL_NAME OR CLASS = %CCL_NUM THEN
     2928    11021    6                             TOKEN.LENGTH# = TOKEN.LENGTH# + 1;
     2929    11022    6                          END;
     2930    11023    5                       TOKEN.BYTES = SUBSTR(CMD$RECORD.BYTES, SCAN_INDEX,
     2931    11024    5                         TOKEN.LENGTH#);
     2932    11025    5                       RETURN;
     2933    11026
     2934    11027    5                     CASE (ELSE);
     2935    11028    5                       CALL VDG$ESCREECH (CLASS, SCAN_INDEX);
     2936    11029
     2937    11030    5                     END;
     2938    11031    4                    END;
     2939    11032    3              END LOOK_FOR_RETURNABLE_TOKEN;
     2940    11033
     2941    11034    2           RETURN;
     2942    11035
     2943    11036
     2944    11037
     2945    11038    2   SKIP_STRING_LITERAL_FAILED: ;
     2946    11039    2           ALTRETURN;
     2947    11040
     2948    11041    2   END FIND_TOKEN;
     2949    11042
     2950    11043
     2951    11044                %BOX (TITLE="REPLACE_STRING_AND_SKIP", PAGE=YES);
             11052    2
             11056    2   /***************************************************************************
             11058    2    *                                                                         *
             11062    2            *                          REPLACE_STRING_AND_SKIP                        *
             11064    2            *                                                                         *
PL6.E3A0      #003=VDI$PGET_COMMAND_RECORD File=VDI$PARSE.:VDA5TSI               FRI 07/04/97 11:34 Page:279
             11066    2           ***************************************************************************/

     2952    11070
     2953    11071        /*I* NAME: REPLACE_STRING_AND_SKIP
     2954    11072            PARAMETERS:
     2955    11073                STR_INDEX - Index into CMD$RECORD.BYTES of string to replace.
     2956    11074                STR_LN - Length of string in CMD$RECORD.BYTES to replace.  STR_LN
     2957    11075                    is a UBIN BYTE CALIGNED field!!!!
     2958    11076                REPL - VD$BUFFER containing the synonym value which is to
     2959    11077                    replace the chars at STR_INDEX.
     2960    11078            INPUT:
     2961    11079                CMD$RECORD - VD$BUFFER containing the command record so far.
     2962    11080                CMD_RECORD$ - Ptr on which CMD$RECORD is based.  Must be
     2963    11081                    equal to CMD$STREAM.RECORD$.
     2964    11082                CMD$STREAM - Top VD$CMD_STREAM on stack.
     2965    11083            OUTPUT:
     2966    11084                STR_LN chars at STR_INDEX in CMD$RECORD.BYTES may be replaced with
     2967    11085                    the VALUE.BYTES chars, possibly surrounded by spaces.
     2968    11086                STR_INDEX will be incremented so that it points just beyond
     2969    11087                    the replacement string in CMD$RECORD.BYTES.
     2970    11088                CMD$RECORD will be modified to describe the new command record,
     2971    11089                    which may have been moved from its old location.
     2972    11090                CMD_RECORD$ and CMD$STREAM.RECORD$ may be changed, if CMD$RECORD
     2973    11091                    is moved.
     2974    11092            SCRATCH (no input value, no output value):
     2975    11093                VD_STATIC_TEMP - A scratch buffer for moving strings in a command
     2976    11094                    record.
     2977    11095            DESCRIPTION:
     2978    11096                If the new string will fit in the space allocated for the
     2979    11097                command record, do the replacement in place; otherwise,
     2980    11098                allocate new storage for the command record, do the replacement
     2981    11099                as we copy to the new storage, adjust CMD$STREAM.RECORD$ to
     2982    11100                point to the new VD$BUFFER, and free the old VD$BUFFER.
     2983    11101        */
     2984    11102
     2985    11103    1   REPLACE_STRING_AND_SKIP: PROC (STR_INDEX, STR_LN, REPL) ALTRET;
     2986    11104    2   DCL STR_INDEX UBIN;
PL6.E3A0      #003=VDI$PGET_COMMAND_RECORD File=VDI$PARSE.:VDA5TSI               FRI 07/04/97 11:34 Page:280
     2987    11105    2   DCL STR_LN UBIN BYTE CALIGNED;
     2988    11106        %VD$BUFFER (NAME=REPL, STCLASS=PARAM);
     2989    11164
     2990    11165
     2991    11166
     2992    11167    2   DCL LEFT_LN UBIN;
     2993    11168    2   DCL RIGHT_INDEX UBIN;
     2994    11169    2   DCL RIGHT_LN UBIN;
     2995    11170    2   DCL NEW_RECORD_LN UBIN;
     2996    11171    2   DCL NEW_RECORD$ PTR;
     2997    11172    2   DCL N UBIN;
     2998    11173
     2999    11174
     3000    11175        %VD$BUFFER (NAME=NEW$RECORD, STCLASS="BASED(NEW_RECORD$)");
     3001    11233
     3002    11234
     3003    11235
     3004    11236    2           LEFT_LN = STR_INDEX;
     3005    11237    2           RIGHT_INDEX = STR_INDEX + STR_LN;
     3006    11238    2           RIGHT_LN = CMD$RECORD.LENGTH# - RIGHT_INDEX;
     3007    11239    2           NEW_RECORD_LN = LEFT_LN + REPL.LENGTH# + 1 + RIGHT_LN;
     3008    11240    2           IF RIGHT_LN > 0 THEN
     3009    11241    2              NEW_RECORD_LN = NEW_RECORD_LN + 1;
     3010    11242    2           IF NEW_RECORD_LN > NB_BUF THEN
     3011    11243    2              GOTO SYND_RECORD_TOO_LONG_FAILURE;
     3012    11244    2           IF NEW_RECORD_LN > ((CMD$RECORD.OBJECT.SIZE# * %NB_PER_WORD) -
     3013    11245    3             LENGTHC(VD$BUFFER_HEADER)) THEN DO;
     3014    11246                   /*
     3015    11247                   *    Replacement text is longer than the text it's replacing,
     3016    11248                   *        and current CMD$RECORD doesn't have enough storage
     3017    11249                   *        allocated for it to hold the new cmd-line length.
     3018    11250                   */
     3019    11251    3              CALL VDG$OALLOC (%CLS_BUFFER, NEW_RECORD$, SIZEW(VD$BUFFER_HEADER) +
     3020    11252    3                (NEW_RECORD_LN + %(NB_PER_WORD-1)) / %NB_PER_WORD)
     3021    11253    3                ALTRET (OALLOC_FAILED);
     3022    11254    3              NEW$RECORD.LENGTH# = NEW_RECORD_LN;
     3023    11255    3              CALL CONCAT (NEW$RECORD.BYTES,
PL6.E3A0      #003=VDI$PGET_COMMAND_RECORD File=VDI$PARSE.:VDA5TSI               FRI 07/04/97 11:34 Page:281
     3024    11256    3                SUBSTR(CMD$RECORD.BYTES, 0, LEFT_LN),
     3025    11257    3                %CHR_SPACE, REPL.BYTES)
     3026    11258    4              WHENALTRETURN DO; CALL VDG$ESCREECH; END;
     3027    11259    3              IF RIGHT_LN > 0 THEN
     3028    11260    3                 CALL INSERT (NEW$RECORD.BYTES, LEFT_LN + 1 + REPL.LENGTH#,
     3029    11261    3                   RIGHT_LN + 1, %CHR_SPACE,
     3030    11262    3                   SUBSTR(CMD$RECORD.BYTES, RIGHT_INDEX, RIGHT_LN))
     3031    11263    4                 WHENALTRETURN DO; CALL VDG$ESCREECH; END;
     3032    11264    3              NEW$RECORD.FLINK$ = CMD$RECORD.FLINK$;
     3033    11265    3              CMD$RECORD.FLINK$ = ADDR(NIL);
     3034    11266    3              CALL VDG$OFREE (CMD$RECORD)
     3035    11267    3                ALTRET (OFREE_FAILED);
     3036    11268    3              CMD_RECORD$ = NEW_RECORD$;
     3037    11269    3              CMD$STREAM.RECORD$ = NEW_RECORD$;
     3038    11270    3              END;
     3039    11271    3           ELSE DO;
     3040    11272                   /*
     3041    11273                   *    Either the replacement text is shorter than the text
     3042    11274                   *        it's replacing,
     3043    11275                   *    or CMD$RECORD has enough storage allocated for it to
     3044    11276                   *        hold the new cmd-line length.
     3045    11277                   */
     3046    11278    3              IF RIGHT_LN > 0 THEN
     3047    11279    3                 CALL INSERT (VD_STATIC_TEMP, 0, RIGHT_LN,
     3048    11280    3                   SUBSTR(CMD$RECORD.BYTES, RIGHT_INDEX, RIGHT_LN))
     3049    11281    4                 WHENALTRETURN DO; CALL VDG$ESCREECH; END;
     3050    11282    3              CMD$RECORD.LENGTH# = NEW_RECORD_LN;
     3051    11283    3              CALL INSERT (CMD$RECORD.BYTES, LEFT_LN, REPL.LENGTH# + 1,
     3052    11284    3                %CHR_SPACE, REPL.BYTES)
     3053    11285    4              WHENALTRETURN DO; CALL VDG$ESCREECH; END;
     3054    11286    3              IF RIGHT_LN > 0 THEN
     3055    11287    3                 CALL INSERT (CMD$RECORD.BYTES, LEFT_LN + 1 + REPL.LENGTH#,
     3056    11288    3                   RIGHT_LN + 1, %CHR_SPACE,
     3057    11289    3                   SUBSTR(VD_STATIC_TEMP, 0, RIGHT_LN))
     3058    11290    4                 WHENALTRETURN DO; CALL VDG$ESCREECH; END;
     3059    11291    3              END;
     3060    11292
PL6.E3A0      #003=VDI$PGET_COMMAND_RECORD File=VDI$PARSE.:VDA5TSI               FRI 07/04/97 11:34 Page:282
     3061    11293                /* Skip STR_INDEX over the replacement text */
     3062    11294    2           STR_INDEX = STR_INDEX + 1 + REPL.LENGTH#;
     3063    11295    2           IF RIGHT_LN > 0 THEN
     3064    11296    2              STR_INDEX = STR_INDEX + 1;
     3065    11297
     3066    11298    2           RETURN;
     3067    11299
     3068    11300
     3069    11301    2   SYND_RECORD_TOO_LONG_FAILURE:
     3070    11302    2           CALL VDG$OALLOC (%CLS_ERR, VD_ERR$)
     3071    11303    2             ALTRET (OALLOC_FAILED);
     3072    11304    2           VD$ERR.ERR.CODE# = %E$SYND_RECORD_TOO_LONG;
     3073    11305    2           VD$ERR.FLAGLEV# = %FLV_SERIOUS;
     3074    11306    2           ALTRETURN;
     3075    11307
     3076    11308
     3077    11309    2   OALLOC_FAILED: ;
     3078    11310    2   OFREE_FAILED: ;
     3079    11311    2           ALTRETURN;
     3080    11312
     3081    11313    2   END REPLACE_STRING_AND_SKIP;
     3082    11314
     3083    11315
     3084    11316                %BOX (TITLE="SKIP_STRING_LITERAL", PAGE=YES);
             11324    2
             11328    2   /***************************************************************************
             11330    2    *                                                                         *
             11334    2            *                            SKIP_STRING_LITERAL                          *
             11336    2            *                                                                         *
             11338    2           ***************************************************************************/

     3085    11342
     3086    11343        /*I* NAME: SKIP_STRING_LITERAL
     3087    11344            PARAMETERS:
     3088    11345                LIT_INDEX - Index into CMD$RECORD.BYTES of string literal delimiter.
     3089    11346            INPUT:
     3090    11347                CMD$RECORD - VD$BUFFER containing the command record being processed.
PL6.E3A0      #003=VDI$PGET_COMMAND_RECORD File=VDI$PARSE.:VDA5TSI               FRI 07/04/97 11:34 Page:283
     3091    11348            OUTPUT:
     3092    11349                LIT_INDEX will contain the index into CMD$RECORD.BYTES of the next
     3093    11350                    char to scan, ie, the char after the ending string
     3094    11351                    literal delimiter.
     3095    11352            DESCRIPTION:
     3096    11353                Scan LIT_INDEX over a string literal.
     3097    11354        */
     3098    11355
     3099    11356    1   SKIP_STRING_LITERAL: PROC (LIT_INDEX) ALTRET;
     3100    11357    2   DCL LIT_INDEX UBIN;
     3101    11358
     3102    11359
     3103    11360
     3104    11361    2   DCL DELIM_INDEX UBIN;
     3105    11362    2   DCL ORIGINAL_INDEX UBIN;
     3106    11363
     3107    11364
     3108    11365
     3109    11366    2           ORIGINAL_INDEX = LIT_INDEX;
     3110    11367
     3111    11368    2   FIND_END_OF_STRING:
     3112    11369    3           DO WHILE (LIT_INDEX + D$STRING.LENGTH# <= CMD$RECORD.LENGTH#)
     3113    11370    3             AND (SUBSTR(CMD$RECORD.BYTES, LIT_INDEX, D$STRING.LENGTH#) =
     3114    11371    3             D$STRING.BYTES);
     3115    11372    3              LIT_INDEX = LIT_INDEX + D$STRING.LENGTH#;
     3116    11373    3              CALL INDEX (DELIM_INDEX, D$STRING.BYTES, CMD$RECORD.BYTES,
     3117    11374    3                LIT_INDEX)
     3118    11375    3                ALTRET (UNBAL_STRING_FAILURE);
     3119    11376    3              LIT_INDEX = DELIM_INDEX + D$STRING.LENGTH#;
     3120    11377    3              END FIND_END_OF_STRING;
     3121    11378
     3122    11379    2           RETURN;
     3123    11380
     3124    11381
     3125    11382
     3126    11383    2   UNBAL_STRING_FAILURE:
     3127    11384    2           CALL VDG$OALLOC (%CLS_ERR, VD_ERR$)
PL6.E3A0      #003=VDI$PGET_COMMAND_RECORD File=VDI$PARSE.:VDA5TSI               FRI 07/04/97 11:34 Page:284
     3128    11385    2             ALTRET (OALLOC_FAILED);
     3129    11386    2           VD$ERR.ERR.CODE# = %E$UNBAL_STRING;
     3130    11387    2           VD$ERR.FLAGLEV# = %FLV_SERIOUS;
     3131    11388                /*
     3132    11389                *   We can't give XUG$ERRPTR a CMDLINE_INDEX, 'cause we haven't given
     3133    11390                *       XUG$GETCMD this command!
     3134    11391                *   (((Test case:  With !DONT POINT, say CO ST 'ABC AF 6 )))
     3135    11392                */
     3136    11393    2           VD$ERR.CMDLINE_INDEX# = ORIGINAL_INDEX; /* might as well try? */
     3137    11394    2           ALTRETURN;
     3138    11395
     3139    11396
     3140    11397    2   OALLOC_FAILED: ;
     3141    11398    2           ALTRETURN;
     3142    11399
     3143    11400    2   END SKIP_STRING_LITERAL;
     3144    11401
     3145    11402    1   END VDI$PGET_COMMAND_RECORD;
     3146    11403        %EOD;

PL6.E3A0      #003=VDI$PGET_COMMAND_RECORD File=VDI$PARSE.:VDA5TSI               FRI 07/04/97 11:34 Page:285
--  Include file information  --

   B$TABLES_C.:LIBRARY  cannot be made into a system file and is referenced.
   B$JIT.:LIBRARY  cannot be made into a system file and is referenced.
   B_ERRORS_C.:LIBRARY  is referenced.
   CP_6_SUBS.:LIBRARY  is referenced.
   CP_6.:LIBRARY  cannot be made into a system file and is referenced.
   XU_MACRO_C.:LIBRARY  is referenced.
   VD_PERR_C.:VDA5TOU  is referenced.
   VD_MACROS_M.:VDA5TOU  is referenced.
   B$JIT_C.:E04TOU  was found in the system file and is referenced.
   CP_6_C.:E04TOU  was found in the system file and is referenced.
      No diagnostics issued in procedure VDI$PGET_COMMAND_RECORD.

   Procedure VDI$PGET_COMMAND_RECORD requires 1460 words for executable code.
   Procedure VDI$PGET_COMMAND_RECORD requires 176 words of local(AUTO) storage.

PL6.E3A0      #003=VDI$PGET_COMMAND_RECORD File=VDI$PARSE.:VDA5TSI               FRI 07/04/97 11:34 Page:286

 Object Unit name= VDI$PGET_COMMAND_RECORD                    File name= VDI$PARSE.:VDA5TOU
 UTS= JUL 04 '97 11:34:26.96 FRI                              Compiler= PL-6/E31         Sev=      00
 SharedLib= :SHARED_SYSTEM                                    Alt SharedLib=


    ****  Control sections  ****

 Sect   Type Bound  Init  Size OctSiz  Section name(segment info)
    0   DCB   even  none     0      0  M$UC
    1  RoData even  UTS    140    214  VDI$PGET_COMMAND_RECORD
    2   Data  even  none    40     50  VDI$PGET_COMMAND_RECORD
    3   Proc  even  none  1460   2664  VDI$PGET_COMMAND_RECORD
    4  RoData even  none    16     20  VDI$PGET_COMMAND_RECORD

    ****  Entry defs  ****

                              Check   Calling
                             calling  sequence
  Sect OctLoc Primary Altret sequence   type   Parms  Name
     3      0   yes    yes     yes      Std        5  VDI$PGET_COMMAND_RECORD
PL6.E3A0      #003=VDI$PGET_COMMAND_RECORD File=VDI$PARSE.:VDA5TSI               FRI 07/04/97 11:34 Page:287

  ****  Entry refs  ****

         Check        Calling
        calling       sequence
Altret sequence SRef   type   Args  Name
         yes          ~proc      0 B_POINTER
 yes     yes           Std       3 VDG$OALLOC
 yes     yes           Std       1 VDG$OFREE
 yes     yes           Std       4 VDA$LREAD
         yes           Std       3 VDG$ESCREECH
 yes     yes           Std       2 VDI$PREAD_FILE_READ
 yes     yes           Std       1 VDW$LOAD
 yes     yes           Std       0 VDI$PREAD_FILE_CLOSE
 yes     yes           Std       0 VDG$ERASE_COMMAND_WINDOW
 yes     yes           Std       0 VDI$CEND_GLOBAL
 yes     yes           Std       0 VDI$PREAD_FILE_OPEN
 yes     yes           Std       0 VDI$PREAD_FILE_POSITION
 yes     yes           Std       5 VDI$PGET_COMMAND_RECORD
                       nStd      0 X66_AUTO_5
                       Std       0 B_CONSPOOL_D
                       nStd      0 X66_ARET
                       nStd      0 X66_AALT
                       nStd      0 X66_INDEX

  ****  Data refs  ****

  Flags:  r = read only, s = secondary
Flgs Name                             Flgs Name                             Flgs Name
     M$UC                                  VD_6E                                 VD_$COMMENT
     VD_ASYM                               VD_LAST_CWIN_ACTIVITY                 VD_FORCE_READ_FROM
r    B$XL_UPPER$                           VD_XLATE_CHAR_CLASS                   VD_STATIC_TEMP
     VD_CMD_OBJECTS$                       XUG_GETCMD                            B$JIT$
     B$TCB$                                B_VECTNIL
PL6.E3A0      #003=VDI$PGET_COMMAND_RECORD File=VDI$PARSE.:VDA5TSI               FRI 07/04/97 11:34 Page:288

  ****  Segment refs  ****

  Flags:  r = read only, s = secondary
Flgs Name                             Flgs Name                             Flgs Name
     ISSID                                 NULLSID                               ROSID
PL6.E3A0      #003=VDI$PGET_COMMAND_RECORD File=VDI$PARSE.:VDA5TSI               FRI 07/04/97 11:34 Page:289


     1926        1        /*T***********************************************************/
     1927        2        /*T*                                                         */
     1928        3        /*T* Copyright (c) Bull HN Information Systems Inc., 1997    */
     1929        4        /*T*                                                         */
     1930        5        /*T***********************************************************/
     1931        6
     1932        7        /*D* NAME: VDI$PGET_COMMAND_RECORD
     1933        8            PARAMETERS:
     1934        9                BUF_ - Vector framing buffer to return record in.
     1935       10                ARS - Uninitialized UBIN word.
     1936       11                NEXT_RECORD$$ - Uninitialized EPTR.
     1937       12                ERRCODE - Uninitialized word.
     1938       13                EOMCHAR - Uninitialized character.
     1939       14            INPUT:
     1940       15                XUG_GETCMD - Control block for XUG$GETCMD.
     1941       16                XUG_INIT - Control block for XUG$GETCMD.
     1942       17                VD_6E.CMD_STREAM$ must point to the VD$CMD_STREAM for the
     1943       18                    current command stream (top entry on stack of same).
     1944       19                VD_$COMMENT:  VD$BUFFER for $COMMENT predefined name.
     1945       20                    Value's length may be 0.
     1946       21                VD_CMD_OBJECTS$ - Array of pointers to otherwise-unowned
     1947       22                    dynamic objects.
     1948       23            OUTPUT:
     1949       24                BUF_'s buffer will contain the record read.
     1950       25                ARS will contain the number of characters in the record.
     1951       26                NEXT_RECORD$$ will contain the entry address of the routine
     1952       27                    which XUG$GETCMD is to call to read the next record.
     1953       28                    This will always be VDI$PGET_COMMAND_RECORD.
     1954       29                ERRCODE will contain either %CLEAR, or a 6Edit error code.
     1955       30                EOMCHAR will contain either %EOM_EOR#, or the activation char.
     1956       31                CMD$STREAM (top VD$CMD_STREAM) will describe the record read:
     1957       32                    .INTREE$ may point to an InTree (chain of VD$IT_COMMAND nodes)
     1958       33                        for the command to process.  If .INTREE$ = NIL, then the
     1959       34                        command line only appears in .RECORD$ below.
     1960       35                    .RECORD$ may point to a VD$BUFFER containing just what
     1961       36                        we returned to GETCMD in BUF and ARS.  If .RECORD$ = NIL
PL6.E3A0      #003=VDI$PGET_COMMAND_RECORD File=VDI$PARSE.:VDA5TSI               FRI 07/04/97 11:34 Page:290
     1962       37                        or has a .LENGTH# of 0, then the command line may appear
     1963       38                        in InTree form pointed-to by .INTREE$.
     1964       39                    If we hit the end of a READ-file, we'll pop the stack
     1965       40                    of VD$CMD_STREAMs.  (The bottom entry on the stack
     1966       41                    should be for the terminal, and so will never get EOF.)
     1967       42                VD_CMD_OBJECTS$ will be all NIL:  any objects it pointed to
     1968       43                    will be freed.
     1969       44            DESCRIPTION:
     1970       45                Run thru VD_CMD_OBJECTS$ and free any objects it points to.
     1971       46                    This array is used as the "owner" of otherwise orphaned
     1972       47                    dynamic objects.  (For example, storage allocated by
     1973       48                    VDE$PFUNCTION for X$EVAL.)  Someone has to free this
     1974       49                    storage at a suitable time.  The time is now, and we are us!
     1975       50                Call READ_COMMAND_RECORD to get a record from the current command
     1976       51                    stream.  If the current command stream is a workspace
     1977       52                    file, we'll load it (except we won't load windows),
     1978       53                    then pop the command stream and read from the new
     1979       54                    "current" command stream.
     1980       55                    If EOF is hit, READ_COMMAND_RECORD will pop the
     1981       56                    command-stream stack and continue reading from the
     1982       57                    previous command stream.
     1983       58                If the record just read is actually an InTree, return an empty
     1984       59                    buffer to XUG$GETCMD.
     1985       60        *N*     Find and perform all $CONTROL functions which are not in
     1986       61        *N*         string literals.
     1987       62                Replace any synonyms in the
     1988       63                    command record with the synonyms' value, surrounded by
     1989       64                    space characters (unless there are already spaces
     1990       65                    surrounding the synonym).
     1991       66        */
     1992       67
     1993       68        VDI$PGET_COMMAND_RECORD: PROC

     68  3 000000   000000 700200 xent  VDI$PGET_CO* TSX0  ! X66_AUTO_5
         3 000001   000260 000005                    ZERO    176,5

     1994       69                  (BUF_, ARS, NEXT_RECORD$$, ERRCODE, EOMCHAR) ALTRET;
PL6.E3A0      #003=VDI$PGET_COMMAND_RECORD File=VDI$PARSE.:VDA5TSI               FRI 07/04/97 11:34 Page:291
     1995       70
     1996       71
     1997       72        %INCLUDE VD_MACROS_M;
     1998     2287        %INCLUDE VD_PERR_C;
     1999     2435        %INCLUDE XU_MACRO_C;
     2000     5529        %INCLUDE CP_6;
     2001     5610        %INCLUDE CP_6_SUBS;
     2002     6150        %INCLUDE B_ERRORS_C;
     2003     7276        %INCLUDE B$JIT;
     2004     7566        %INCLUDE B$TABLES_C;
     2005     7674
     2006     7675
     2007     7676    1   DCL BUF_ VECTOR;
     2008     7677    1   DCL ARS SBIN;
     2009     7678    1   DCL NEXT_RECORD$$ EPTR;
     2010     7679        %VD$ERR_CODE (NAME=ERRCODE, STCLASS=PARAM);
     2011     7694    1   DCL EOMCHAR CHAR(1);
     2012     7695
     2013     7696
     2014     7697
     2015     7698    1   DCL VDA$LREAD               ENTRY (4) ALTRET;
     2016     7699    1   DCL VDI$PREAD_FILE_OPEN     ENTRY ALTRET;
     2017     7700    1   DCL VDI$PREAD_FILE_CLOSE    ENTRY ALTRET;
     2018     7701    1   DCL VDI$PREAD_FILE_POSITION ENTRY ALTRET;
     2019     7702    1   DCL VDI$PREAD_FILE_READ     ENTRY (2) ALTRET;
     2020     7703    1   DCL VDW$LOAD                ENTRY (1) ALTRET;
     2021     7704    1   DCL VDG$ERASE_COMMAND_WINDOW ENTRY ALTRET;
     2022     7705    1   DCL VDG$OALLOC              ENTRY (3) ALTRET;
     2023     7706    1   DCL VDG$OFREE               ENTRY (1) ALTRET;
     2024     7707    1   DCL VDG$ESCREECH            ENTRY (3);
     2025     7708    1   DCL VDI$CEND_GLOBAL         ENTRY ALTRET;
     2026     7709
     2027     7710
     2028     7711        %VD_6E (STCLASS=SYMREF);
     2029     7747        %VD_BUFFER (NAME=VD_$COMMENT, STCLASS=SYMREF, MXNB=%MXNB_$COMMENT);
     2030     7807    1   DCL VD_ASYM UBIN SYMREF;
     2031     7808    1   DCL VD_LAST_CWIN_ACTIVITY UBIN SYMREF;
PL6.E3A0      #003=VDI$PGET_COMMAND_RECORD File=VDI$PARSE.:VDA5TSI               FRI 07/04/97 11:34 Page:292
     2032     7809    1   DCL VD_FORCE_READ_FROM UBIN SYMREF;
     2033     7810        %B$XL_UPPER;
     2034     7814    1   DCL VD_XLATE_CHAR_CLASS CHAR(512) ALIGNED SYMREF;
     2035     7815    1   DCL VD_STATIC_TEMP CHAR(%NB_STATIC_TEMP) ALIGNED SYMREF;
     2036     7816    1   DCL VD_CMD_OBJECTS$ (0:%(MX_CMD_OBJECTS-1)) PTR SYMREF;
     2037     7817        %XUG_GETCMD (NAME=XUG_GETCMD, STCLASS=SYMREF);
     2038     8155        %XUG_INIT (NAME=XUG_INIT, STCLASS=SYMREF);
     2039     8568    1   DCL B$JIT$ PTR SYMREF;
     2040     8569    1   DCL B$TCB$ PTR SYMREF;
     2041     8570
     2042     8571
     2043     8572    1   DCL PTR_$COMMENT$ PTR CONSTANT INIT(ADDR(VD_$COMMENT));
     2044     8573
     2045     8574        /*N* Someday, would be nice to allow different $STRING delimiters */
     2046     8575        %VD_BUFFER (NAME=D_$STRING, STCLASS=CONSTANT, IBYTES="''''");
     2047     8635    1   DCL PTR_$STRING$ PTR CONSTANT INIT(ADDR(D_$STRING));
     2048     8636
     2049     8637
     2050     8638    1   DCL BUF$ PTR;
     2051     8639    1   DCL NB_BUF SBIN;
     2052     8640    1   DCL CMD_RECORD$ PTR;
     2053     8641    1   DCL SCAN_INDEX UBIN;
     2054     8642        %VD$LOCATION (NAME=SYNONYM_LOC, STCLASS=AUTO);
     2055     8670        %VD_TEXTC_REMOTE (NAME=TOKEN, STCLASS=AUTO, MXNB=%MXNB_NAME_VALUE);
     2056     8733    1   DCL SY_KEY$ PTR;
     2057     8734    1   DCL N UBIN;
     2058     8735    1   DCL VD_ERR$ PTR;
     2059     8736
     2060     8737
     2061     8738    1   DCL BUF CHAR(NB_BUF) BASED(BUF$);
     2062     8739        %VD$CMD_STREAM (NAME=CMD$STREAM, STCLASS="BASED(VD_6E.CMD_STREAM$)");
     2063     8778        %VD$BUFFER (NAME=CMD$RECORD, STCLASS="BASED(CMD_RECORD$)");
     2064     8836        %VD$TEXTC (NAME=SY$KEY, STCLASS="BASED(SY_KEY$)");
     2065     8859        %VD$BUFFER (NAME=VD$COMMENT, STCLASS="BASED(PTR_$COMMENT$)");
     2066     8917        %VD$BUFFER (NAME=D$STRING, STCLASS="BASED(PTR_$STRING$)");
     2067     8975        %VD$STREAM (NAME=SYNONYMS$STREAM, STCLASS="BASED(VD_6E.SYNONYMS$)");
     2068     9081        %VD$ERR (NAME=VD$ERR, STCLASS="BASED(VD_ERR$)");
PL6.E3A0      #003=VDI$PGET_COMMAND_RECORD File=VDI$PARSE.:VDA5TSI               FRI 07/04/97 11:34 Page:293
     2069     9134        %VD$ERR (NAME=FATAL$ERR, STCLASS="BASED(VD_6E.ERR_HEAD$)");
     2070     9187        %B$TCB (NAME=B$TCB, STCLASS="BASED(B$TCB$)");
     2071     9190        %B$ALT;
     2072     9198        %VD$PORT;
     2073     9296        %VD$BUFFER;
     2074     9354        %VD$BUFFER_HEADER;
     2075     9390        %VD$OBJECT_HEADER;
     2076     9412        %VD$TEXTC_REMOTE;
     2077     9473
     2078     9474
     2079     9475
     2080     9476    1           BUF$ = VBASE(BUF_);

   9476  3 000002   200003 470500                    LDP0    @BUF_,,AUTO
         3 000003   000001 236100                    LDQ     1,,PR0
         3 000004   200010 756100                    STQ     BUF$,,AUTO

     2081     9477    1           NB_BUF = VBOUND(BUF_) + 1;

   9477  3 000005   000000 236100                    LDQ     0,,PR0
         3 000006   000020 772000                    QRL     16
         3 000007   000001 036007                    ADLQ    1,DL
         3 000010   200011 756100                    STQ     NB_BUF,,AUTO

     2082     9478    1           ARS = 0;

   9478  3 000011   200004 471500                    LDP1    @ARS,,AUTO
         3 000012   100000 450100                    STZ     0,,PR1

     2083     9479    1           NEXT_RECORD$$ = ENTADDR(VDI$PGET_COMMAND_RECORD);

   9479  3 000013   000000 636000 3                  EAQ     s:68
         3 000014   200005 473500                    LDP3    @NEXT_RECORD$$,,AUTO
         3 000015   300000 756100                    STQ     0,,PR3

     2084     9480    1           ERRCODE = %CLEAR;

PL6.E3A0      #003=VDI$PGET_COMMAND_RECORD File=VDI$PARSE.:VDA5TSI               FRI 07/04/97 11:34 Page:294
   9480  3 000016   200006 474500                    LDP4    @ERRCODE,,AUTO
         3 000017   400000 450100                    STZ     0,,PR4

     2085     9481    1           EOMCHAR = %EOM_EOR#;

   9481  3 000020   200007 475500                    LDP5    @EOMCHAR,,AUTO
         3 000021   040100 100400                    MLR     fill='040'O
         3 000022   000000 000001 4                  ADSC9   0                        cn=0,n=1
         3 000023   500000 000001                    ADSC9   0,,PR5                   cn=0,n=1

     2086     9482
     2087     9483    2           DO N = 0 TO %(MX_CMD_OBJECTS-1);

   9483  3 000024   200230 450100                    STZ     N,,AUTO

     2088     9484    3              IF VD_CMD_OBJECTS$ (N) ~= ADDR(NIL) THEN DO;

   9484  3 000025   200230 720100                    LXL0    N,,AUTO
         3 000026   000000 236010 xsym               LDQ     VD_CMD_OBJECTS$,X0
         3 000027   000001 116000 xsym               CMPQ    B_VECTNIL+1
         3 000030   000042 600000 3                  TZE     s:9489

     2089     9485    3                 CALL VDG$OFREE (VD_CMD_OBJECTS$ (N) -> VD$OBJECT_HEADER)

   9485  3 000031   000000 470410 xsym               LDP0    VD_CMD_OBJECTS$,X0
         3 000032   200254 450500                    STP0    INTERRUPT_STATE_BEFORE_M$READ+1,,AUTO
         3 000033   200254 630500                    EPPR0   INTERRUPT_STATE_BEFORE_M$READ+1,,AUTO
         3 000034   000017 631400 xsym               EPPR1   B_VECTNIL+15
         3 000035   000000 701000 xent               TSX1    VDG$OFREE
         3 000036   000426 702000 3                  TSX2    READ_COMMAND_RECORD_FAILED

     2090     9486    3                   ALTRET (OFREE_FAILED);
     2091     9487    3                 VD_CMD_OBJECTS$ (N) = ADDR(NIL);

   9487  3 000037   000001 236000 xsym               LDQ     B_VECTNIL+1
         3 000040   200230 720100                    LXL0    N,,AUTO
         3 000041   000000 756010 xsym               STQ     VD_CMD_OBJECTS$,X0
PL6.E3A0      #003=VDI$PGET_COMMAND_RECORD File=VDI$PARSE.:VDA5TSI               FRI 07/04/97 11:34 Page:295

     2092     9488    3                 END;

     2093     9489    2              END;

   9489  3 000042   200230 235100                    LDA     N,,AUTO
         3 000043   000001 035007                    ADLA    1,DL
         3 000044   200230 755100                    STA     N,,AUTO
         3 000045   000062 115007                    CMPA    50,DL
         3 000046   000025 602000 3                  TNC     s:9484

     2094     9490
     2095     9491    1           CALL READ_COMMAND_RECORD

   9491  3 000047   000510 701000 3                  TSX1    READ_COMMAND_RECORD
         3 000050   000426 702000 3                  TSX2    READ_COMMAND_RECORD_FAILED

     2096     9492    1             ALTRET (READ_COMMAND_RECORD_FAILED);
     2097     9493
     2098     9494    1           IF CMD$STREAM.INTREE$ ~= ADDR(NIL) THEN

   9494  3 000051   000026 470400 xsym               LDP0    VD_6E+22
         3 000052   000026 236100                    LDQ     22,,PR0
         3 000053   000001 116000 xsym               CMPQ    B_VECTNIL+1
         3 000054   000056 600000 3                  TZE     s:9496

     2099     9495    1              RETURN;      /* Return an empty buffer to XUG$GETCMD */

   9495  3 000055   000000 702200 xent               TSX2  ! X66_ARET

     2100     9496    1           CMD_RECORD$ = CMD$STREAM.RECORD$;

   9496  3 000056   000025 236100                    LDQ     21,,PR0
         3 000057   200012 756100                    STQ     CMD_RECORD$,,AUTO

     2101     9497    1           IF CMD$RECORD.LENGTH# = 0 THEN

PL6.E3A0      #003=VDI$PGET_COMMAND_RECORD File=VDI$PARSE.:VDA5TSI               FRI 07/04/97 11:34 Page:296
   9497  3 000060   200012 471500                    LDP1    CMD_RECORD$,,AUTO
         3 000061   100002 220100                    LDX0    2,,PR1
         3 000062   000064 601000 3                  TNZ     s:9500

     2102     9498    1              RETURN;             /* Empty command line:  just return */

   9498  3 000063   000000 702200 xent               TSX2  ! X66_ARET

     2103     9499
     2104     9500    2           IF CMD$STREAM.CMD_AFTER_READ THEN DO;

   9500  3 000064   000027 236100                    LDQ     23,,PR0
         3 000065   040000 316007                    CANQ    16384,DL
         3 000066   000121 600000 3                  TZE     s:9541

     2105     9501    2              CMD$STREAM.CMD_AFTER_READ = %FALSE;

   9501  3 000067   000001 236000 4                  LDQ     1
         3 000070   000027 356100                    ANSQ    23,,PR0

     2106     9502    3              IF CMD$RECORD.LENGTH# > NB_BUF THEN DO; /* no longer fits */

   9502  3 000071   100002 236100                    LDQ     2,,PR1
         3 000072   000022 732000                    QRS     18
         3 000073   200011 116100                    CMPQ    NB_BUF,,AUTO
         3 000074   000120 604400 3                  TMOZ    s:9510

     2107     9503    3                 CMD$RECORD.LENGTH# = NB_BUF;

   9503  3 000075   200011 720100                    LXL0    NB_BUF,,AUTO
         3 000076   100002 740100                    STX0    2,,PR1

     2108     9504    3                 CALL VDG$OALLOC (%CLS_ERR, VD_ERR$);

   9504  3 000077   200231 630500                    EPPR0   VD_ERR$,,AUTO
         3 000100   200255 450500                    STP0    INTERRUPT_STATE_BEFORE_M$READ+2,,AUTO
         3 000101   000002 236000 4                  LDQ     2
PL6.E3A0      #003=VDI$PGET_COMMAND_RECORD File=VDI$PARSE.:VDA5TSI               FRI 07/04/97 11:34 Page:297
         3 000102   200254 756100                    STQ     INTERRUPT_STATE_BEFORE_M$READ+1,,AUTO
         3 000103   200254 630500                    EPPR0   INTERRUPT_STATE_BEFORE_M$READ+1,,AUTO
         3 000104   000020 631400 xsym               EPPR1   B_VECTNIL+16
         3 000105   000000 701000 xent               TSX1    VDG$OALLOC
         3 000106   000000 011000                    NOP     0

     2109     9505    3                 VD$ERR.ERR.CODE# = %E$READ_2BIG;

   9505  3 000107   200231 470500                    LDP0    VD_ERR$,,AUTO
         3 000110   000002 236100                    LDQ     2,,PR0
         3 000111   000003 376000 4                  ANQ     3
         3 000112   001400 276007                    ORQ     768,DL
         3 000113   000002 756100                    STQ     2,,PR0

     2110     9506    3                 VD$ERR.FLAGLEV# = %FLV_SERIOUS;

   9506  3 000114   000003 220003                    LDX0    3,DU
         3 000115   200231 470500                    LDP0    VD_ERR$,,AUTO
         3 000116   000003 740100                    STX0    3,,PR0

     2111     9507    3                 GOTO READ_COMMAND_RECORD_FAILED;

   9507  3 000117   000426 710000 3                  TRA     READ_COMMAND_RECORD_FAILED

     2112     9508    3                 END;
     2113     9509
     2114     9510    2              GOTO RETURN_RECORD; /* Skip synonym substitution */

   9510  3 000120   000363 710000 3                  TRA     RETURN_RECORD

     2115     9511    2              END;
     2116     9512
     2117     9513
     2118     9514                %BOX (TITLE="Find and replace synonyms");

              9526    2   /***************************************************************************
              9528    2    *                                                                         *
PL6.E3A0      #003=VDI$PGET_COMMAND_RECORD File=VDI$PARSE.:VDA5TSI               FRI 07/04/97 11:34 Page:298
              9532    2            *                         Find and replace synonyms                      *
              9534    2            *                                                                        *
              9536    2          ***************************************************************************/

     2119     9540
     2120     9541    1           SYNONYM_LOC = %CLEAR;

   9541  3 000121   000100 100400                    MLR     fill='000'O
         3 000122   000002 000001 xsym               ADSC9   B_VECTNIL+2              cn=0,n=1
         3 000123   200014 000044                    ADSC9   SYNONYM_LOC,,AUTO        cn=0,n=36

     2121     9542    1           SYNONYM_LOC.KEY.TYPE# (%(LVL_LOWER-1)) = %KT_STRING;

   9542  3 000124   000002 220003                    LDX0    2,DU
         3 000125   200014 740100                    STX0    SYNONYM_LOC,,AUTO

     2122     9543    1           SYNONYM_LOC.KEY.REP# (%(LVL_LOWER-1)) = %REP_REMOTE;

   9543  3 000126   200014 440100                    SXL0    SYNONYM_LOC,,AUTO

     2123     9544    1           SYNONYM_LOC.KEY.V$ (%(LVL_LOWER-1)) = ADDR(TOKEN);

   9544  3 000127   200025 633500                    EPPR3   TOKEN,,AUTO
         3 000130   200015 453500                    STP3    SYNONYM_LOC+1,,AUTO

     2124     9545    1           TOKEN = %CLEAR;

   9545  3 000131   000100 100400                    MLR     fill='000'O
         3 000132   000002 000001 xsym               ADSC9   B_VECTNIL+2              cn=0,n=1
         3 000133   200025 001010                    ADSC9   TOKEN,,AUTO              cn=0,n=520

     2125     9546    1           TOKEN.OBJECT.CLASS# = %CLS_TEXTC_REMOTE;

   9546  3 000134   000053 221003                    LDX1    43,DU
         3 000135   200025 741100                    STX1    TOKEN,,AUTO

     2126     9547
PL6.E3A0      #003=VDI$PGET_COMMAND_RECORD File=VDI$PARSE.:VDA5TSI               FRI 07/04/97 11:34 Page:299
     2127     9548    1           SCAN_INDEX = 0;

   9548  3 000136   200013 450100                    STZ     SCAN_INDEX,,AUTO

     2128     9549    1   EACH_TOKEN:
     2129     9550    2           DO WHILE SCAN_INDEX < CMD$RECORD.LENGTH#;

   9550  3 000137   100002 236100       EACH_TOKEN   LDQ     2,,PR1
         3 000140   000022 732000                    QRS     18
         3 000141   000363 604000 3                  TMI     RETURN_RECORD
         3 000142   200013 116100                    CMPQ    SCAN_INDEX,,AUTO
         3 000143   000363 602000 3                  TNC     RETURN_RECORD
         3 000144   000363 600000 3                  TZE     RETURN_RECORD

     2130     9551    2              CALL FIND_TOKEN (SCAN_INDEX, TOKEN)

   9551  3 000145   200025 630500                    EPPR0   TOKEN,,AUTO
         3 000146   200234 450500                    STP0    @STR_INDEX+1,,AUTO
         3 000147   200013 631500                    EPPR1   SCAN_INDEX,,AUTO
         3 000150   200233 451500                    STP1    VD_ERR$+2,,AUTO
         3 000151   001521 701000 3                  TSX1    FIND_TOKEN
         3 000152   000426 702000 3                  TSX2    READ_COMMAND_RECORD_FAILED

     2131     9552    2                ALTRET (FIND_TOKEN_FAILED);
     2132     9553
     2133     9554    3              IF TOKEN.LENGTH# > 0 THEN DO;

   9554  3 000153   200027 236100                    LDQ     TOKEN+2,,AUTO
         3 000154   777000 316003                    CANQ    -512,DU
         3 000155   000354 600000 3                  TZE     s:9602

     2134     9555    3                 CALL XLATE (SUBSTR(TOKEN.BYTES, 0, TOKEN.LENGTH#), B$XL_UPPER,

   9555  3 000156   200027 236100                    LDQ     TOKEN+2,,AUTO
         3 000157   000033 772000                    QRL     27
         3 000160   000000 620006                    EAX0    0,QL
         3 000161   200027 236100                    LDQ     TOKEN+2,,AUTO
PL6.E3A0      #003=VDI$PGET_COMMAND_RECORD File=VDI$PARSE.:VDA5TSI               FRI 07/04/97 11:34 Page:300
         3 000162   000033 772000                    QRL     27
         3 000163   000000 621006                    EAX1    0,QL
         3 000164   000000 470400 xsym               LDP0    B$XL_UPPER$
         3 000165   040140 160540                    MVT     fill='040'O
         3 000166   200027 200011                    ADSC9   TOKEN+2,,AUTO            cn=1,n=*X1
         3 000167   200027 200010                    ADSC9   TOKEN+2,,AUTO            cn=1,n=*X0
         3 000170   000000 000100                    ARG     0,,PR0

     2135     9556    3                   SUBSTR(TOKEN.BYTES, 0, TOKEN.LENGTH#));
     2136     9557
     2137     9558    3   TOKEN_SELECTIONS:
     2138     9559    4                 DO SELECT (SUBSTR(TOKEN.BYTES, 0, TOKEN.LENGTH#));

   9559  3 000171   200027 236100       TOKEN_SELEC* LDQ     TOKEN+2,,AUTO
         3 000172   000033 772000                    QRL     27
         3 000173   000000 620006                    EAX0    0,QL
         3 000174   040000 106540                    CMPC    fill='040'O
         3 000175   200027 200010                    ADSC9   TOKEN+2,,AUTO            cn=1,n=*X0
         3 000176   000206 000004 1                  ADSC9   XLATE_FID_CHAR_CLASS+128 cn=0,n=4
         3 000177   000233 602000 3                  TNC     TOKEN_SELECTIONS+34
         3 000200   000000 620006                    EAX0    0,QL
         3 000201   040000 106540                    CMPC    fill='040'O
         3 000202   200027 200010                    ADSC9   TOKEN+2,,AUTO            cn=1,n=*X0
         3 000203   000206 000004 1                  ADSC9   XLATE_FID_CHAR_CLASS+128 cn=0,n=4
         3 000204   000241 600000 3                  TZE     s:9563
         3 000205   000000 620006                    EAX0    0,QL
         3 000206   040000 106540                    CMPC    fill='040'O
         3 000207   200027 200010                    ADSC9   TOKEN+2,,AUTO            cn=1,n=*X0
         3 000210   000207 000002 1                  ADSC9   XLATE_FID_CHAR_CLASS+129 cn=0,n=2
         3 000211   000225 602000 3                  TNC     TOKEN_SELECTIONS+28
         3 000212   000000 620006                    EAX0    0,QL
         3 000213   040000 106540                    CMPC    fill='040'O
         3 000214   200027 200010                    ADSC9   TOKEN+2,,AUTO            cn=1,n=*X0
         3 000215   000207 000002 1                  ADSC9   XLATE_FID_CHAR_CLASS+129 cn=0,n=2
         3 000216   000260 600000 3                  TZE     s:9570
         3 000217   000000 620006                    EAX0    0,QL
         3 000220   040000 106540                    CMPC    fill='040'O
PL6.E3A0      #003=VDI$PGET_COMMAND_RECORD File=VDI$PARSE.:VDA5TSI               FRI 07/04/97 11:34 Page:301
         3 000221   200027 200010                    ADSC9   TOKEN+2,,AUTO            cn=1,n=*X0
         3 000222   000210 000007 1                  ADSC9   XLATE_FID_CHAR_CLASS+130 cn=0,n=7
         3 000223   000277 601000 3                  TNZ     s:9577
         3 000224   000260 710000 3                  TRA     s:9570
         3 000225   000000 620006                    EAX0    0,QL
         3 000226   040000 106540                    CMPC    fill='040'O
         3 000227   200027 200010                    ADSC9   TOKEN+2,,AUTO            cn=1,n=*X0
         3 000230   000212 000004 1                  ADSC9   XLATE_FID_CHAR_CLASS+132 cn=0,n=4
         3 000231   000277 601000 3                  TNZ     s:9577
         3 000232   000241 710000 3                  TRA     s:9563
         3 000233   000000 620006                    EAX0    0,QL
         3 000234   040000 106540                    CMPC    fill='040'O
         3 000235   200027 200010                    ADSC9   TOKEN+2,,AUTO            cn=1,n=*X0
         3 000236   000206 000002 1                  ADSC9   XLATE_FID_CHAR_CLASS+128 cn=0,n=2
         3 000237   000277 601000 3                  TNZ     s:9577
         3 000240   000241 710000 3                  TRA     s:9563

     2139     9560    4                    SELECT (%KW_FILE, %KWA_FILE, %KW_READ);

     2140     9561                         /* Skip both the FILE or READ keywords and the fid that
     2141     9562                         *    follows them.                                  */
     2142     9563    4                    SCAN_INDEX = SCAN_INDEX + TOKEN.LENGTH#; /* Skip keyword */

   9563  3 000241   200027 236100                    LDQ     TOKEN+2,,AUTO
         3 000242   000033 772000                    QRL     27
         3 000243   200013 036100                    ADLQ    SCAN_INDEX,,AUTO
         3 000244   200013 756100                    STQ     SCAN_INDEX,,AUTO

     2143     9564    4                    CALL FIND_FID (SCAN_INDEX, TOKEN)

   9564  3 000245   200025 631500                    EPPR1   TOKEN,,AUTO
         3 000246   200234 451500                    STP1    @STR_INDEX+1,,AUTO
         3 000247   200013 633500                    EPPR3   SCAN_INDEX,,AUTO
         3 000250   200233 453500                    STP3    VD_ERR$+2,,AUTO
         3 000251   001525 701000 3                  TSX1    FIND_FID
         3 000252   000426 702000 3                  TSX2    READ_COMMAND_RECORD_FAILED

PL6.E3A0      #003=VDI$PGET_COMMAND_RECORD File=VDI$PARSE.:VDA5TSI               FRI 07/04/97 11:34 Page:302
     2144     9565    4                      ALTRET (FIND_FID_FAILED);
     2145     9566    4                    SCAN_INDEX = SCAN_INDEX + TOKEN.LENGTH#; /* Skip fid */

   9566  3 000253   200027 236100                    LDQ     TOKEN+2,,AUTO
         3 000254   000033 772000                    QRL     27
         3 000255   200013 036100                    ADLQ    SCAN_INDEX,,AUTO
         3 000256   200013 756100                    STQ     SCAN_INDEX,,AUTO
         3 000257   000354 710000 3                  TRA     s:9602

     2146     9567
     2147     9568    4                    SELECT (%KW_SYNONYM, %KWA_SYNONYM);

     2148     9569                         /* Skip SYNONYM keyword and the token following it */
     2149     9570    4                    SCAN_INDEX = SCAN_INDEX + TOKEN.LENGTH#; /* Skip SYNONYM */

   9570  3 000260   200027 236100                    LDQ     TOKEN+2,,AUTO
         3 000261   000033 772000                    QRL     27
         3 000262   200013 036100                    ADLQ    SCAN_INDEX,,AUTO
         3 000263   200013 756100                    STQ     SCAN_INDEX,,AUTO

     2150     9571    4                    CALL FIND_TOKEN (SCAN_INDEX, TOKEN)

   9571  3 000264   200025 631500                    EPPR1   TOKEN,,AUTO
         3 000265   200234 451500                    STP1    @STR_INDEX+1,,AUTO
         3 000266   200013 633500                    EPPR3   SCAN_INDEX,,AUTO
         3 000267   200233 453500                    STP3    VD_ERR$+2,,AUTO
         3 000270   001521 701000 3                  TSX1    FIND_TOKEN
         3 000271   000426 702000 3                  TSX2    READ_COMMAND_RECORD_FAILED

     2151     9572    4                      ALTRET (FIND_TOKEN_FAILED);
     2152     9573    4                    SCAN_INDEX = SCAN_INDEX + TOKEN.LENGTH#; /* Skip token */

   9573  3 000272   200027 236100                    LDQ     TOKEN+2,,AUTO
         3 000273   000033 772000                    QRL     27
         3 000274   200013 036100                    ADLQ    SCAN_INDEX,,AUTO
         3 000275   200013 756100                    STQ     SCAN_INDEX,,AUTO
         3 000276   000354 710000 3                  TRA     s:9602
PL6.E3A0      #003=VDI$PGET_COMMAND_RECORD File=VDI$PARSE.:VDA5TSI               FRI 07/04/97 11:34 Page:303

     2153     9574
     2154     9575    4                    SELECT (ELSE);

     2155     9576                         /* Got a candidate token:  see if it's a synonym */
     2156     9577    4                 CALL VDA$LREAD (SYNONYMS$STREAM, SYNONYM_LOC, 0, %TRUE)

   9577  3 000277   000004 237000 4                  LDAQ    4
         3 000300   200256 757100                    STAQ    INTERRUPT_STATE_BEFORE_M$READ+3,,AUTO
         3 000301   200014 631500                    EPPR1   SYNONYM_LOC,,AUTO
         3 000302   200255 451500                    STP1    INTERRUPT_STATE_BEFORE_M$READ+2,,AUTO
         3 000303   000003 236000 xsym               LDQ     VD_6E+3
         3 000304   200254 756100                    STQ     INTERRUPT_STATE_BEFORE_M$READ+1,,AUTO
         3 000305   200254 630500                    EPPR0   INTERRUPT_STATE_BEFORE_M$READ+1,,AUTO
         3 000306   000022 631400 xsym               EPPR1   B_VECTNIL+18
         3 000307   000000 701000 xent               TSX1    VDA$LREAD
         3 000310   000426 702000 3                  TSX2    READ_COMMAND_RECORD_FAILED

     2157     9578    4                   ALTRET (LREAD_FAILED);
     2158     9579                      %GETKEY (KEY=SYNONYMS$STREAM.PORT$->VD$PORT.CURRENT.KEY,
     2159     9580                      INDX=%LVL_LOWER-1, PTR=SY_KEY$);

   9587  3 000311   000003 470400 xsym               LDP0    VD_6E+3
         3 000312   000001 471500                    LDP1    1,,PR0
         3 000313   100012 720100                    LXL0    10,,PR1
         3 000314   000002 100003                    CMPX0   2,DU
         3 000315   000322 601000 3                  TNZ     s:9587+9

   9587  3 000316   100013 473500                    LDP3    11,,PR1
         3 000317   300002 634500                    EPPR4   2,,PR3
         3 000320   200227 454500                    STP4    SY_KEY$,,AUTO
         3 000321   000324 710000 3                  TRA     s:9590

   9587  3 000322   100013 633500                    EPPR3   11,,PR1
         3 000323   200227 453500                    STP3    SY_KEY$,,AUTO

     2160     9590    4                 IF SY$KEY.BYTES =
PL6.E3A0      #003=VDI$PGET_COMMAND_RECORD File=VDI$PARSE.:VDA5TSI               FRI 07/04/97 11:34 Page:304

   9590  3 000324   200227 473500                    LDP3    SY_KEY$,,AUTO
         3 000325   300000 236100                    LDQ     0,,PR3
         3 000326   000033 772000                    QRL     27
         3 000327   000000 621006                    EAX1    0,QL
         3 000330   200027 236100                    LDQ     TOKEN+2,,AUTO
         3 000331   000033 772000                    QRL     27
         3 000332   000000 622006                    EAX2    0,QL
         3 000333   040140 106540                    CMPC    fill='040'O
         3 000334   300000 200011                    ADSC9   0,,PR3                   cn=1,n=*X1
         3 000335   200027 200012                    ADSC9   TOKEN+2,,AUTO            cn=1,n=*X2
         3 000336   000350 601000 3                  TNZ     s:9598

     2161     9591    5                   SUBSTR(TOKEN.BYTES, 0, TOKEN.LENGTH#) THEN DO;

     2162     9592    5                    CALL REPLACE_STRING_AND_SKIP (SCAN_INDEX, TOKEN.LENGTH#,

   9592  3 000337   100036 474500                    LDP4    30,,PR1
         3 000340   200235 454500                    STP4    @STR_LN+1,,AUTO
         3 000341   200027 631500                    EPPR1   TOKEN+2,,AUTO
         3 000342   200234 451500                    STP1    @STR_INDEX+1,,AUTO
         3 000343   200013 635500                    EPPR5   SCAN_INDEX,,AUTO
         3 000344   200233 455500                    STP5    VD_ERR$+2,,AUTO
         3 000345   002142 701000 3                  TSX1    REPLACE_STRING_AND_SKIP
         3 000346   000426 702000 3                  TSX2    READ_COMMAND_RECORD_FAILED

     2163     9593    5                      SYNONYMS$STREAM.PORT$ ->
     2164     9594    5                      VD$PORT.LEVEL.DATA$ (%LVL_LOWER) -> VD$BUFFER)
     2165     9595    5                      ALTRET (REPLACE_STRING_AND_SKIP_FAILED);
     2166     9596    5                    END;

   9596  3 000347   000354 710000 3                  TRA     s:9602

     2167     9597    4                 ELSE
     2168     9598    4                    SCAN_INDEX = SCAN_INDEX + TOKEN.LENGTH#;

   9598  3 000350   200027 236100                    LDQ     TOKEN+2,,AUTO
PL6.E3A0      #003=VDI$PGET_COMMAND_RECORD File=VDI$PARSE.:VDA5TSI               FRI 07/04/97 11:34 Page:305
         3 000351   000033 772000                    QRL     27
         3 000352   200013 036100                    ADLQ    SCAN_INDEX,,AUTO
         3 000353   200013 756100                    STQ     SCAN_INDEX,,AUTO

     2169     9599
     2170     9600    4                    END TOKEN_SELECTIONS;

     2171     9601    3                 END;

     2172     9602    2              END EACH_TOKEN;

   9602  3 000354   200012 470500                    LDP0    CMD_RECORD$,,AUTO
         3 000355   000002 236100                    LDQ     2,,PR0
         3 000356   000022 732000                    QRS     18
         3 000357   000363 604000 3                  TMI     RETURN_RECORD
         3 000360   200013 116100                    CMPQ    SCAN_INDEX,,AUTO
         3 000361   000363 600000 3                  TZE     RETURN_RECORD
         3 000362   000145 603000 3                  TRC     s:9551

   9600  3 000363                       RETURN_RECO* null
     2173     9603
     2174     9604    1   RETURN_RECORD: ;
     2175     9605    1           CALL INSERT (BUF, 0, CMD$RECORD.LENGTH#, CMD$RECORD.BYTES)

   9605  3 000363   200012 470500                    LDP0    CMD_RECORD$,,AUTO
         3 000364   000002 220100                    LDX0    2,,PR0
         3 000365   200254 740100                    STX0    INTERRUPT_STATE_BEFORE_M$READ+1,,AUTO
         3 000366   200254 221100                    LDX1    INTERRUPT_STATE_BEFORE_M$READ+1,,AUTO
         3 000367   200010 471500                    LDP1    BUF$,,AUTO
         3 000370   040140 100540                    MLR     fill='040'O
         3 000371   000002 400011                    ADSC9   2,,PR0                   cn=2,n=*X1
         3 000372   100000 000010                    ADSC9   0,,PR1                   cn=0,n=*X0
         3 000373   200254 236100                    LDQ     INTERRUPT_STATE_BEFORE_M$READ+1,,AUTO
         3 000374   000022 732000                    QRS     18
         3 000375   000011 402007                    MPY     9,DL
         3 000376   200255 756100                    STQ     INTERRUPT_STATE_BEFORE_M$READ+2,,AUTO
         3 000377   000000 636010                    EAQ     0,X0
PL6.E3A0      #003=VDI$PGET_COMMAND_RECORD File=VDI$PARSE.:VDA5TSI               FRI 07/04/97 11:34 Page:306
         3 000400   000022 772000                    QRL     18
         3 000401   000011 402007                    MPY     9,DL
         3 000402   000000 116003                    CMPQ    0,DU
         3 000403   000406 604000 3                  TMI     RETURN_RECORD+19
         3 000404   200255 116100                    CMPQ    INTERRUPT_STATE_BEFORE_M$READ+2,,AUTO
         3 000405   000407 604000 3                  TMI     s:9607
         3 000406   000420 710000 3                  TRA     s:9609

     2176     9606    2           WHENALTRETURN DO;

     2177     9607    2              CALL VDG$ESCREECH (CMD$RECORD.LENGTH#, NB_BUF);

   9607  3 000407   200011 630500                    EPPR0   NB_BUF,,AUTO
         3 000410   200255 450500                    STP0    INTERRUPT_STATE_BEFORE_M$READ+2,,AUTO
         3 000411   200012 236100                    LDQ     CMD_RECORD$,,AUTO
         3 000412   000002 036003                    ADLQ    2,DU
         3 000413   200254 756100                    STQ     INTERRUPT_STATE_BEFORE_M$READ+1,,AUTO
         3 000414   200254 630500                    EPPR0   INTERRUPT_STATE_BEFORE_M$READ+1,,AUTO
         3 000415   000020 631400 xsym               EPPR1   B_VECTNIL+16
         3 000416   000000 701000 xent               TSX1    VDG$ESCREECH
         3 000417   000000 011000                    NOP     0

     2178     9608    2              END;

     2179     9609    1           ARS = CMD$RECORD.LENGTH#;

   9609  3 000420   200012 470500                    LDP0    CMD_RECORD$,,AUTO
         3 000421   000002 236100                    LDQ     2,,PR0
         3 000422   000022 732000                    QRS     18
         3 000423   200004 471500                    LDP1    @ARS,,AUTO
         3 000424   100000 756100                    STQ     0,,PR1

     2180     9610
     2181     9611    1           RETURN;

   9611  3 000425   000000 702200 xent               TSX2  ! X66_ARET

PL6.E3A0      #003=VDI$PGET_COMMAND_RECORD File=VDI$PARSE.:VDA5TSI               FRI 07/04/97 11:34 Page:307
   9609  3 000426                       READ_COMMAN* null
   9609  3 000426                       OFREE_FAILED null
   9609  3 000426                       FIND_TOKEN_* null
   9609  3 000426                       FIND_FID_FA* null
   9609  3 000426                       LREAD_FAILED null
   9609  3 000426                       REPLACE_STR* null
     2182     9612
     2183     9613
     2184     9614
     2185     9615    1   READ_COMMAND_RECORD_FAILED: ;
     2186     9616    1   OFREE_FAILED: ;
     2187     9617    1   FIND_TOKEN_FAILED: ;
     2188     9618    1   FIND_FID_FAILED: ;
     2189     9619    1   LREAD_FAILED: ;
     2190     9620    1   REPLACE_STRING_AND_SKIP_FAILED: ;
     2191     9621    1           ERRCODE = VD_6E.ERR_TAIL$->VD$ERR.ERR;

   9621  3 000426   000032 470400 xsym               LDP0    VD_6E+26
         3 000427   000002 236100                    LDQ     2,,PR0
         3 000430   200006 471500                    LDP1    @ERRCODE,,AUTO
         3 000431   100000 756100                    STQ     0,,PR1

     2192     9622                /*
     2193     9623                *   We don't want XUG$GETCMD to parse this command record, but we do
     2194     9624                *       want to tell GETCMD about it in case VDG$EREPORT_ERROR calls
     2195     9625                *       XUG$ERRPTR (eg, in case one of the errors has
     2196     9626                *       VD$ERR.CMDLINE_INDEX# set).
     2197     9627                *   So, return the record (if any), but reset the parse nodes to NIL.
     2198     9628                *       (((Test case:  With !DONT POINT, say CO ST 'ABC AF 6
     2199     9629                *       ie, enter a string with unbalanced quotes.)))
     2200     9630                */
     2201     9631    1           IF CMD$STREAM.RECORD$ = ADDR(NIL) THEN

   9631  3 000432   000026 470400 xsym               LDP0    VD_6E+22
         3 000433   000025 236100                    LDQ     21,,PR0
         3 000434   000001 116000 xsym               CMPQ    B_VECTNIL+1
         3 000435   000441 601000 3                  TNZ     s:9634
PL6.E3A0      #003=VDI$PGET_COMMAND_RECORD File=VDI$PARSE.:VDA5TSI               FRI 07/04/97 11:34 Page:308

     2202     9632    1              ARS = 0;

   9632  3 000436   200004 473500                    LDP3    @ARS,,AUTO
         3 000437   300000 450100                    STZ     0,,PR3
         3 000440   000507 710000 3                  TRA     s:9643

     2203     9633    2           ELSE DO;

     2204     9634    2              CMD_RECORD$ = CMD$STREAM.RECORD$;

   9634  3 000441   200012 756100                    STQ     CMD_RECORD$,,AUTO

     2205     9635    2              CALL INSERT (BUF, 0, CMD$RECORD.LENGTH#, CMD$RECORD.BYTES)

   9635  3 000442   200012 473500                    LDP3    CMD_RECORD$,,AUTO
         3 000443   300002 220100                    LDX0    2,,PR3
         3 000444   200254 740100                    STX0    INTERRUPT_STATE_BEFORE_M$READ+1,,AUTO
         3 000445   200254 221100                    LDX1    INTERRUPT_STATE_BEFORE_M$READ+1,,AUTO
         3 000446   200010 474500                    LDP4    BUF$,,AUTO
         3 000447   040140 100540                    MLR     fill='040'O
         3 000450   300002 400011                    ADSC9   2,,PR3                   cn=2,n=*X1
         3 000451   400000 000010                    ADSC9   0,,PR4                   cn=0,n=*X0
         3 000452   200254 236100                    LDQ     INTERRUPT_STATE_BEFORE_M$READ+1,,AUTO
         3 000453   000022 732000                    QRS     18
         3 000454   000011 402007                    MPY     9,DL
         3 000455   200255 756100                    STQ     INTERRUPT_STATE_BEFORE_M$READ+2,,AUTO
         3 000456   000000 636010                    EAQ     0,X0
         3 000457   000022 772000                    QRL     18
         3 000460   000011 402007                    MPY     9,DL
         3 000461   000000 116003                    CMPQ    0,DU
         3 000462   000465 604000 3                  TMI     s:9635+19
         3 000463   200255 116100                    CMPQ    INTERRUPT_STATE_BEFORE_M$READ+2,,AUTO
         3 000464   000466 604000 3                  TMI     s:9637
         3 000465   000477 710000 3                  TRA     s:9639

     2206     9636    3              WHENALTRETURN DO;
PL6.E3A0      #003=VDI$PGET_COMMAND_RECORD File=VDI$PARSE.:VDA5TSI               FRI 07/04/97 11:34 Page:309

     2207     9637    3                 CALL VDG$ESCREECH (CMD$RECORD.LENGTH#, NB_BUF);

   9637  3 000466   200011 630500                    EPPR0   NB_BUF,,AUTO
         3 000467   200255 450500                    STP0    INTERRUPT_STATE_BEFORE_M$READ+2,,AUTO
         3 000470   200012 236100                    LDQ     CMD_RECORD$,,AUTO
         3 000471   000002 036003                    ADLQ    2,DU
         3 000472   200254 756100                    STQ     INTERRUPT_STATE_BEFORE_M$READ+1,,AUTO
         3 000473   200254 630500                    EPPR0   INTERRUPT_STATE_BEFORE_M$READ+1,,AUTO
         3 000474   000020 631400 xsym               EPPR1   B_VECTNIL+16
         3 000475   000000 701000 xent               TSX1    VDG$ESCREECH
         3 000476   000000 011000                    NOP     0

     2208     9638    3                 END;

     2209     9639    2              ARS = CMD$RECORD.LENGTH#;

   9639  3 000477   200012 470500                    LDP0    CMD_RECORD$,,AUTO
         3 000500   000002 236100                    LDQ     2,,PR0
         3 000501   000022 732000                    QRS     18
         3 000502   200004 471500                    LDP1    @ARS,,AUTO
         3 000503   100000 756100                    STQ     0,,PR1

     2210     9640    2              XUG_GETCMD.NODES$ = ADDR(VD_ASYM);

   9640  3 000504   000006 236000 4                  LDQ     6
         3 000505   000000 756000 xsym               STQ     XUG_GETCMD

     2211     9641    2              RETURN; /* So GETCMD will echo the record */

   9641  3 000506   000000 702200 xent               TSX2  ! X66_ARET

     2212     9642    2              END;
     2213     9643    1           ALTRETURN;

   9643  3 000507   000000 702200 xent               TSX2  ! X66_AALT

PL6.E3A0      #003=VDI$PGET_COMMAND_RECORD File=VDI$PARSE.:VDA5TSI               FRI 07/04/97 11:34 Page:310
     2214     9644
     2215     9645        %BOX (TITLE=READ_COMMAND_RECORD, PAGE=YES);
              9653    1
              9657    1   /***************************************************************************
              9659    1    *                                                                         *
              9663    1            *                            READ_COMMAND_RECORD                         *
              9665    1            *                                                                        *
              9667    1          ***************************************************************************/

     2216     9671
     2217     9672        /*I* NAME: READ_COMMAND_RECORD
     2218     9673            PARAMETERS:
     2219     9674                None.
     2220     9675            INPUT:
     2221     9676                VD_6E.CMD_STREAM$:  Ptr to top VD$CMD_STREAM on stack of same.
     2222     9677                    Each entry represents a command stream; all entries except
     2223     9678                    the top represent command streams which have been
     2224     9679                    interrupted by a READ command.  A command stream can be
     2225     9680                    either:
     2226     9681                        The command window (there may be a partially unprocessed
     2227     9682                            record in the VD$CMD_STREAM, left over from a READ
     2228     9683                            command);
     2229     9684                        A file (the VD$CMD_STREAM remembers where in the file
     2230     9685                            to start reading again); or
     2231     9686                        A buffer or InTree containing a single command line (the
     2232     9687                            VD$CMD_STREAM remembers where in the buffer/InTree to
     2233     9688                            start processing again).
     2234     9689                    The top entry (if any) on the stack is the current
     2235     9690                    position in the current command stream.  The stack must
     2236     9691                    never be empty.
     2237     9692            OUTPUT:
     2238     9693                CMD$STREAM (top VD$CMD_STREAM) will describe the command record
     2239     9694                    read from the command stream:
     2240     9695                    .INTREE$ may point to an InTree for the record.  If .INTREE$
     2241     9696                        is not NIL, the InTree should be used in preference to
     2242     9697                        the character record in .RECORD$.
     2243     9698                    .RECORD$ may point to a VD$BUFFER containing the record.
PL6.E3A0      #003=VDI$PGET_COMMAND_RECORD File=VDI$PARSE.:VDA5TSI               FRI 07/04/97 11:34 Page:311
     2244     9699                    .REC_NUM# will be the file record number (counting from 1) of the
     2245     9700                        record pointed-to by .INTREE$/.RECORD$.
     2246     9701                    Either one or both of .INTREE$ and .RECORD$ will be non-NIL.
     2247     9702                    If both are returned, .INTREE$ should be used in preference to
     2248     9703                    .RECORD$; the character form of the command record is kept only
     2249     9704                    for the purposes of error reporting.
     2250     9705                VD_6E.CMD_STREAM$ may be modified.  The VD$CMD_STREAM at the
     2251     9706                    top of the stack may be modified.
     2252     9707                XUG_GETCMD.TREAD# will be set if we read a record from the
     2253     9708                    terminal, reset otherwise.
     2254     9709            DESCRIPTION:
     2255     9710                Read the next record from the current command stream:  either
     2256     9711                the next record from a READ-file, or a record from the command
     2257     9712                window, or the unprocessed portion of an existing record
     2258     9713                buffer.
     2259     9714                Note that if the current command stream is a workspace file,
     2260     9715                    we'll load the workspace, pop the command stream, then
     2261     9716                    read from the new "current" command stream.
     2262     9717                If we get EOF, pop the command stream stack: if the new
     2263     9718                command stream is:
     2264     9719                o A READ-file:
     2265     9720                    Open it and reposition to the last record read from the file.
     2266     9721                o The command window:
     2267     9722                    If the command stream contains a partially-unprocessed record,
     2268     9723                        then return it as the next command record.
     2269     9724                    However, If the command stream doesn't contain a
     2270     9725                        partially-unprocessed record, return an empty command record.
     2271     9726                        We return an empty command record when we transition back to
     2272     9727                        the command window, instead of reading from the command window
     2273     9728                        immediately.  This gives VDI$PDRIVER a chance to re-evaluate
     2274     9729                        its parameters for deciding whether to read from the command
     2275     9730                        window or the current editing window.
     2276     9731        */
     2277     9732
     2278     9733    1   READ_COMMAND_RECORD: PROC ALTRET;

   9733  3 000510   200232 741300       READ_COMMAN* STX1  ! VD_ERR$+1,,AUTO
PL6.E3A0      #003=VDI$PGET_COMMAND_RECORD File=VDI$PARSE.:VDA5TSI               FRI 07/04/97 11:34 Page:312

     2279     9734
     2280     9735
     2281     9736    2   DCL REC_NUM_INCR SBIN;
     2282     9737    2   DCL HAD_ERROR BIT(1) ALIGNED;
     2283     9738    2   DCL EOF_FLAG BIT(1) ALIGNED;
     2284     9739
     2285     9740
     2286     9741        %VD$BUFFER;
     2287     9799
     2288     9800
     2289     9801
     2290     9802    2           REC_NUM_INCR = 1;   /* Assume we're reading new record */

   9802  3 000511   000001 235007                    LDA     1,DL
         3 000512   200233 755100                    STA     REC_NUM_INCR,,AUTO

     2291     9803    2           HAD_ERROR = %FALSE;

   9803  3 000513   200234 450100                    STZ     HAD_ERROR,,AUTO

     2292     9804
     2293     9805    3           DO UNTIL NOT EOF_FLAG;

     2294     9806    3              CALL CMD_STREAM_READ

   9806  3 000514   000573 701000 3                  TSX1    CMD_STREAM_READ
         3 000515   000571 702000 3                  TSX2    CMD_STREAM_READ_FAILED

     2295     9807    3                ALTRET (CMD_STREAM_READ_FAILED);
     2296     9808
     2297     9809    4              IF EOF_FLAG THEN DO;

   9809  3 000516   200235 234100                    SZN     EOF_FLAG,,AUTO
         3 000517   000555 605000 3                  TPL     s:9826

     2298     9810    4                 CALL POP_STACK_AND_POSTN
PL6.E3A0      #003=VDI$PGET_COMMAND_RECORD File=VDI$PARSE.:VDA5TSI               FRI 07/04/97 11:34 Page:313

   9810  3 000520   001427 701000 3                  TSX1    POP_STACK_AND_POSTN
         3 000521   000571 702000 3                  TSX2    CMD_STREAM_READ_FAILED

     2299     9811    4                   ALTRET (POP_STACK_AND_POSTN_FAILED);
     2300     9812    4                 IF CMD$STREAM.CMD_AFTER_READ THEN

   9812  3 000522   000026 470400 xsym               LDP0    VD_6E+22
         3 000523   000027 236100                    LDQ     23,,PR0
         3 000524   040000 316007                    CANQ    16384,DL
         3 000525   000530 600000 3                  TZE     s:9814

     2301     9813    4                    REC_NUM_INCR = 0;

   9813  3 000526   200233 450100                    STZ     REC_NUM_INCR,,AUTO
         3 000527   000555 710000 3                  TRA     s:9826

     2302     9814    5                 ELSE IF CMD$STREAM.TYPE# = %CS_ME THEN DO;

   9814  3 000530   000002 220100                    LDX0    2,,PR0
         3 000531   000002 100003                    CMPX0   2,DU
         3 000532   000555 601000 3                  TNZ     s:9826

     2303     9815                         /* Return an empty buffer to get into the editing window
     2304     9816                            after a command-line or read command */
     2305     9817    6                       IF CMD$STREAM.RECORD$ = ADDR(NIL) THEN DO;

   9817  3 000533   000025 236100                    LDQ     21,,PR0
         3 000534   000001 116000 xsym               CMPQ    B_VECTNIL+1
         3 000535   000550 601000 3                  TNZ     s:9822

     2306     9818    6                          CALL VDG$OALLOC (%CLS_BUFFER, CMD$STREAM.RECORD$,

   9818  3 000536   000007 236000 4                  LDQ     7
         3 000537   200256 756100                    STQ     INTERRUPT_STATE_BEFORE_M$READ+3,,AUTO
         3 000540   000026 236000 xsym               LDQ     VD_6E+22
         3 000541   000025 036003                    ADLQ    21,DU
PL6.E3A0      #003=VDI$PGET_COMMAND_RECORD File=VDI$PARSE.:VDA5TSI               FRI 07/04/97 11:34 Page:314
         3 000542   000010 235000 4                  LDA     8
         3 000543   200254 757100                    STAQ    INTERRUPT_STATE_BEFORE_M$READ+1,,AUTO
         3 000544   200254 630500                    EPPR0   INTERRUPT_STATE_BEFORE_M$READ+1,,AUTO
         3 000545   000021 631400 xsym               EPPR1   B_VECTNIL+17
         3 000546   000000 701000 xent               TSX1    VDG$OALLOC
         3 000547   000571 702000 3                  TSX2    CMD_STREAM_READ_FAILED

     2307     9819    6                            SIZEW(VD$BUFFER_HEADER))
     2308     9820    6                            ALTRET (OALLOC_FAILED);
     2309     9821    6                          END;

     2310     9822    5                       CMD$STREAM.RECORD$->VD$BUFFER.LENGTH# = 0;

   9822  3 000550   000026 470400 xsym               LDP0    VD_6E+22
         3 000551   000025 471500                    LDP1    21,,PR0
         3 000552   000000 220003                    LDX0    0,DU
         3 000553   100002 740100                    STX0    2,,PR1

     2311     9823    5                       EOF_FLAG = %FALSE;

   9823  3 000554   200235 450100                    STZ     EOF_FLAG,,AUTO

     2312     9824    5                       END;

     2313     9825    4                 END;

     2314     9826    3              END;

   9826  3 000555   200235 234100                    SZN     EOF_FLAG,,AUTO
         3 000556   000514 604000 3                  TMI     s:9806

     2315     9827
     2316     9828    2           IF HAD_ERROR THEN

   9828  3 000557   200234 234100                    SZN     HAD_ERROR,,AUTO
         3 000560   000563 605000 3                  TPL     s:9831

PL6.E3A0      #003=VDI$PGET_COMMAND_RECORD File=VDI$PARSE.:VDA5TSI               FRI 07/04/97 11:34 Page:315
     2317     9829    2              ALTRETURN;

   9829  3 000561   200232 221300                    LDX1  ! VD_ERR$+1,,AUTO
         3 000562   000000 702211                    TSX2  ! 0,X1

     2318     9830
     2319     9831    2           CMD$STREAM.REC_NUM# = CMD$STREAM.REC_NUM# + REC_NUM_INCR;

   9831  3 000563   000026 470400 xsym               LDP0    VD_6E+22
         3 000564   000030 236100                    LDQ     24,,PR0
         3 000565   200233 036100                    ADLQ    REC_NUM_INCR,,AUTO
         3 000566   000030 756100                    STQ     24,,PR0

     2320     9832    2           RETURN;

   9832  3 000567   200232 221300                    LDX1  ! VD_ERR$+1,,AUTO
         3 000570   000001 702211                    TSX2  ! 1,X1

   9831  3 000571                       CMD_STREAM_* null
   9831  3 000571                       POP_STACK_A* null
   9831  3 000571                       OALLOC_FAIL* null
     2321     9833
     2322     9834
     2323     9835
     2324     9836    2   CMD_STREAM_READ_FAILED: ;
     2325     9837    2   POP_STACK_AND_POSTN_FAILED: ;
     2326     9838    2   OALLOC_FAILED: ;
     2327     9839    2           ALTRETURN;

   9839  3 000571   200232 221300                    LDX1  ! VD_ERR$+1,,AUTO
         3 000572   000000 702211                    TSX2  ! 0,X1

     2328     9840
     2329     9841
     2330     9842                %BOX (TITLE=CMD_STREAM_READ);

              9854    2   /***************************************************************************
PL6.E3A0      #003=VDI$PGET_COMMAND_RECORD File=VDI$PARSE.:VDA5TSI               FRI 07/04/97 11:34 Page:316
              9856    2    *                                                                         *
              9860    2            *                              CMD_STREAM_READ                           *
              9862    2            *                                                                        *
              9864    2          ***************************************************************************/

     2331     9868
     2332     9869        /*I** NAME: CMD_STREAM_READ
     2333     9870            PARAMETERS:
     2334     9871                None.
     2335     9872            INPUT:
     2336     9873                CMD$STREAM - Current command stream.
     2337     9874            OUTPUT:
     2338     9875                If EOF not hit:
     2339     9876                    CMD$STREAM.INTREE$ may point to an InTree (chain of VD$IT_COMMAND
     2340     9877                        nodes) for the record read from the command stream.
     2341     9878                        The first node in the chain is always the first node to
     2342     9879                        process (any previously-processed nodes will be stripped).
     2343     9880                    CMD$STREAM.RECORD$ may point to either a VD$BUFFER containing
     2344     9881                        the record read from the command stream.  If .INTREE$
     2345     9882                        is non-NIL, it should be used instead of .RECORD$.
     2346     9883                        In .RECORD$'s VD$BUFFER.DATA, the VFC and already-processed
     2347     9884                        leading will have been stripped from the buffer, so the
     2348     9885                        next character to process will be the first character of
     2349     9886                        the buffer.
     2350     9887                    XUG_GETCMD.TREAD# will be set if we got the command record
     2351     9888                        from an interactive terminal; reset otherwise.
     2352     9889                EOF_FLAG - Will contain %TRUE if there are no more records
     2353     9890                    in the current command stream (EOF on file or EOF activation
     2354     9891                    from the command window).
     2355     9892            DESCRIPTION:
     2356     9893                Read the next record.  Return EOF if appropriate.
     2357     9894                Note that if we see a VD$CMD_STREAM for a file whose file-type
     2358     9895                    is %CHR_ENCODED_TYPE, we'll call VDW$LOAD, which could
     2359     9896                    change alot of info in the internal files -- like all of
     2360     9897                    them!
     2361     9898                If we're reading from the terminal, we sometimes force pagehalt
     2362     9899                    off and then on again.  We do this when there is an
PL6.E3A0      #003=VDI$PGET_COMMAND_RECORD File=VDI$PARSE.:VDA5TSI               FRI 07/04/97 11:34 Page:317
     2363     9900                    editing window to which the cursor will probably return
     2364     9901                    after this command read (ie, $COMMAND is off and the
     2365     9902                    editing window has an EditBlock).  If we didn't turn
     2366     9903                    pagehalt off, the user would have to type two CRs after
     2367     9904                    every command:  one to terminate the command and one
     2368     9905                    in response to the CR TO GO or beep.  However, if we
     2369     9906                    leave pagehalt off as we return to XUG$GETCMD, then if
     2370     9907                    GETCMD reports any errors they'll flash by in the command
     2371     9908                    window before the user can read them!  So, if we decide
     2372     9909                    to turn pagehalt off before the M$READ, we must turn it
     2373     9910                    back on after the M$READ.
     2374     9911        */
     2375     9912
     2376     9913    2   CMD_STREAM_READ: PROC ALTRET;

   9913  3 000573   200236 741300       CMD_STREAM_* STX1  ! @REPL+1,,AUTO

     2377     9914
     2378     9915
     2379     9916        %FPT_READ (STCLASS=STATIC);
     2380     9955        %FPT_WRITE (FPTN=WRITE_BLANK_LINE, STCLASS=STATIC, BUF=BLANK_BUF);
     2381     9986    3   DCL BLANK_BUF CHAR(1) CONSTANT INIT(%CHR_SPACE);
     2382     9987
     2383     9988
     2384     9989    3   DCL BUF_SIZE SBIN;
     2385     9990    3   DCL N SBIN;
     2386     9991    3   DCL IT_COMMAND$ PTR;
     2387     9992    3   DCL VD_BUFFER$ PTR;
     2388     9993    3   DCL READ_DCB$ PTR;
     2389     9994    3   DCL 1 LOAD_FLAGS ALIGNED,
     2390     9995              %VD$PDFF (NAME=F, STCLASS=AUTO, LEV=2, LAST=YES);
     2391    10009
     2392    10010
     2393    10011        %VD$IT_COMMAND (NAME=IT$COMMAND, STCLASS="BASED(IT_COMMAND$)");
     2394    10049        %VD$BUFFER (NAME=VD$BUFFER, STCLASS="BASED(VD_BUFFER$)");
     2395    10107        %F$DCB (DCBN=READ$DCB, STCLASS="BASED(READ_DCB$)");
     2396    10164        %VD$IT_COMMAND;
PL6.E3A0      #003=VDI$PGET_COMMAND_RECORD File=VDI$PARSE.:VDA5TSI               FRI 07/04/97 11:34 Page:318
     2397    10202
     2398    10203
     2399    10204
     2400    10205    3           EOF_FLAG = %FALSE;

  10205  3 000574   200235 450100                    STZ     EOF_FLAG,,AUTO

     2401    10206    3           XUG_GETCMD.TREAD# = %FALSE;

  10206  3 000575   000011 236000 4                  LDQ     9
         3 000576   000006 356000 xsym               ANSQ    XUG_GETCMD+6

     2402    10207
     2403    10208    3   CMD_STREAM_TYPE_CASES:
     2404    10209    4           DO CASE (CMD$STREAM.TYPE#);

  10209  3 000577   000026 470400 xsym  CMD_STREAM_* LDP0    VD_6E+22
         3 000600   000002 220100                    LDX0    2,,PR0
         3 000601   000005 100003                    CMPX0   5,DU
         3 000602   000604 602010 3                  TNC     CMD_STREAM_TYPE_CASES+5,X0
         3 000603   001005 710000 3                  TRA     s:10284
         3 000604   001005 710000 3                  TRA     s:10284
         3 000605   000611 710000 3                  TRA     s:10212
         3 000606   000762 710000 3                  TRA     s:10271
         3 000607   000664 710000 3                  TRA     s:10238
         3 000610   000664 710000 3                  TRA     s:10238

     2405    10210
     2406    10211    4            CASE (%CS_BUFFER);

     2407    10212    4              IF (CMD$STREAM.INTREE$ = ADDR(NIL)

  10212  3 000611   000026 236100                    LDQ     22,,PR0
         3 000612   000001 116000 xsym               CMPQ    B_VECTNIL+1
         3 000613   000617 601000 3                  TNZ     s:10212+6
         3 000614   000025 236100                    LDQ     21,,PR0
         3 000615   000001 116000 xsym               CMPQ    B_VECTNIL+1
PL6.E3A0      #003=VDI$PGET_COMMAND_RECORD File=VDI$PARSE.:VDA5TSI               FRI 07/04/97 11:34 Page:319
         3 000616   000630 600000 3                  TZE     s:10216
         3 000617   000030 235100                    LDA     24,,PR0
         3 000620   000633 604400 3                  TMOZ    s:10224
         3 000621   000027 236100                    LDQ     23,,PR0
         3 000622   040000 316007                    CANQ    16384,DL
         3 000623   000633 601000 3                  TNZ     s:10224
         3 000624   000025 471500                    LDP1    21,,PR0
         3 000625   100001 236100                    LDQ     1,,PR1
         3 000626   000001 116000 xsym               CMPQ    B_VECTNIL+1
         3 000627   000633 601000 3                  TNZ     s:10224

     2408    10213    4                AND CMD$STREAM.RECORD$ = ADDR(NIL))
     2409    10214    4                OR (CMD$STREAM.REC_NUM# > 0 AND NOT CMD$STREAM.CMD_AFTER_READ
     2410    10215    5                AND CMD$STREAM.RECORD$ -> VD$BUFFER.FLINK$ = ADDR(NIL)) THEN DO;

     2411    10216    5                 EOF_FLAG = %TRUE;

  10216  3 000630   400000 236003                    LDQ     -131072,DU
         3 000631   200235 756100                    STQ     EOF_FLAG,,AUTO

     2412    10217    5                 END;

  10217  3 000632   000661 710000 3                  TRA     s:10234

     2413    10218                   /*
     2414    10219                   * Force increment of .REC_NUM#; otherwise, it won't be
     2415    10220                   *    incremented til the buffer is read twice.
     2416    10221                   *    (Test case:  !6EDIT (NEW FILE *) => reads
     2417    10222                   *    NEW FILE * command line twice.)
     2418    10223                   */
     2419    10224    4              ELSE IF CMD$STREAM.REC_NUM# = 0 THEN

  10224  3 000633   000000 115003                    CMPA    0,DU
         3 000634   000637 601000 3                  TNZ     s:10226

     2420    10225    4                    CMD$STREAM.REC_NUM# = CMD$STREAM.REC_NUM# + 1;

PL6.E3A0      #003=VDI$PGET_COMMAND_RECORD File=VDI$PARSE.:VDA5TSI               FRI 07/04/97 11:34 Page:320
  10225  3 000635   000030 054100                    AOS     24,,PR0
         3 000636   000661 710000 3                  TRA     s:10234

     2421    10226    5                 ELSE IF NOT CMD$STREAM.CMD_AFTER_READ THEN DO;

  10226  3 000637   000027 236100                    LDQ     23,,PR0
         3 000640   040000 316007                    CANQ    16384,DL
         3 000641   000661 601000 3                  TNZ     s:10234

     2422    10227    5                       VD_BUFFER$ = CMD$STREAM.RECORD$ -> VD$BUFFER.FLINK$;

  10227  3 000642   000025 471500                    LDP1    21,,PR0
         3 000643   100001 236100                    LDQ     1,,PR1
         3 000644   200242 756100                    STQ     VD_BUFFER$,,AUTO

     2423    10228    5                       CMD$STREAM.RECORD$ -> VD$BUFFER.FLINK$ = ADDR(NIL);

  10228  3 000645   000001 236000 xsym               LDQ     B_VECTNIL+1
         3 000646   100001 756100                    STQ     1,,PR1

     2424    10229    5                       CALL VDG$OFREE (CMD$STREAM.RECORD$ -> VD$BUFFER)

  10229  3 000647   000026 470400 xsym               LDP0    VD_6E+22
         3 000650   000025 471500                    LDP1    21,,PR0
         3 000651   200254 451500                    STP1    INTERRUPT_STATE_BEFORE_M$READ+1,,AUTO
         3 000652   200254 630500                    EPPR0   INTERRUPT_STATE_BEFORE_M$READ+1,,AUTO
         3 000653   000017 631400 xsym               EPPR1   B_VECTNIL+15
         3 000654   000000 701000 xent               TSX1    VDG$OFREE
         3 000655   001135 702000 3                  TSX2    WLOAD_FAILED

     2425    10230    5                         ALTRET (OFREE_FAILED);
     2426    10231    5                       CMD$STREAM.RECORD$ = VD_BUFFER$;

  10231  3 000656   200242 236100                    LDQ     VD_BUFFER$,,AUTO
         3 000657   000026 470400 xsym               LDP0    VD_6E+22
         3 000660   000025 756100                    STQ     21,,PR0

PL6.E3A0      #003=VDI$PGET_COMMAND_RECORD File=VDI$PARSE.:VDA5TSI               FRI 07/04/97 11:34 Page:321
     2427    10232    5                       END;

     2428    10233                   /* Say we read from terminal, so won't echo this line */
     2429    10234    4              XUG_GETCMD.TREAD# = %TRUE;

  10234  3 000661   200000 236003                    LDQ     65536,DU
         3 000662   000006 256000 xsym               ORSQ    XUG_GETCMD+6
         3 000663   001014 710000 3                  TRA     s:10288

     2430    10235
     2431    10236
     2432    10237    4            CASE (%CS_FILE, %CS_DCB);

     2433    10238    5              IF CMD$STREAM.FILE_TYPE = %CHR_ENCODED_TYPE THEN DO;

  10238  3 000664   000024 722100                    LXL2    20,,PR0
         3 000665   000213 102000 1                  CMPX2   XLATE_FID_CHAR_CLASS+133
         3 000666   000716 601000 3                  TNZ     s:10257

     2434    10239    5                 LOAD_FLAGS = %CLEAR;

  10239  3 000667   200244 450100                    STZ     LOAD_FLAGS,,AUTO

     2435    10240    5                 LOAD_FLAGS.F (%PDFF_EQUALS) = %TRUE;

  10240  3 000670   200000 236003                    LDQ     65536,DU
         3 000671   200244 256100                    ORSQ    LOAD_FLAGS,,AUTO

     2436    10241    6                 IF B$JIT.MODE = %M_INT# THEN DO;

  10241  3 000672   000000 471400 xsym               LDP1    B$JIT$
         3 000673   100000 236100                    LDQ     0,,PR1
         3 000674   740000 376003                    ANQ     -16384,DU
         3 000675   140000 116003                    CMPQ    49152,DU
         3 000676   000701 601000 3                  TNZ     s:10245

     2437    10242                         /* Can load keyins only if we're timesharing */
PL6.E3A0      #003=VDI$PGET_COMMAND_RECORD File=VDI$PARSE.:VDA5TSI               FRI 07/04/97 11:34 Page:322
     2438    10243    6                    LOAD_FLAGS.F (%PDFF_KEYINS) = %TRUE;

  10243  3 000677   100000 236003                    LDQ     32768,DU
         3 000700   200244 256100                    ORSQ    LOAD_FLAGS,,AUTO

     2439    10244    6                    END;

     2440    10245    5                 LOAD_FLAGS.F (%PDFF_LOCATIONS) = %TRUE;

  10245  3 000701   040000 236003                    LDQ     16384,DU
         3 000702   200244 256100                    ORSQ    LOAD_FLAGS,,AUTO

     2441    10246    5                 LOAD_FLAGS.F (%PDFF_SYNONYMS) = %TRUE;

  10246  3 000703   020000 236003                    LDQ     8192,DU
         3 000704   200244 256100                    ORSQ    LOAD_FLAGS,,AUTO

     2442    10247                      /* Don't load windows or structures */
     2443    10248    5                 CALL VDW$LOAD (LOAD_FLAGS)

  10248  3 000705   200244 633500                    EPPR3   LOAD_FLAGS,,AUTO
         3 000706   200254 453500                    STP3    INTERRUPT_STATE_BEFORE_M$READ+1,,AUTO
         3 000707   200254 630500                    EPPR0   INTERRUPT_STATE_BEFORE_M$READ+1,,AUTO
         3 000710   000017 631400 xsym               EPPR1   B_VECTNIL+15
         3 000711   000000 701000 xent               TSX1    VDW$LOAD
         3 000712   001135 702000 3                  TSX2    WLOAD_FAILED

     2444    10249    5                   ALTRET (WLOAD_FAILED);
     2445    10250                      /*N**??*
     2446    10251                      *N**??* On altret from WLOAD, WLOAD has closed the SAVE-file and
     2447    10252                      *N**??*   popped it off the cmdstream stack.  But the prior
     2448    10253                      *N**??*   cmdstream hasn't been opened or positioned, has it???!!!
     2449    10254                      *N**??*/
     2450    10255    5                 EOF_FLAG = %TRUE;

  10255  3 000713   400000 236003                    LDQ     -131072,DU
         3 000714   200235 756100                    STQ     EOF_FLAG,,AUTO
PL6.E3A0      #003=VDI$PGET_COMMAND_RECORD File=VDI$PARSE.:VDA5TSI               FRI 07/04/97 11:34 Page:323

     2451    10256    5                 END;

  10256  3 000715   000751 710000 3                  TRA     s:10265

     2452    10257    4              ELSE IF CMD$STREAM.DCB#~=DCBNUM(NIL)

  10257  3 000716   000024 223100                    LDX3    20,,PR0
         3 000717   000736 600000 3                  TZE     s:10261
         3 000720   000012 471400 4                  LDP1    10
         3 000721   100000 473500                    LDP3    0,,PR1
         3 000722   300000 474513                    LDP4    0,X3,PR3
         3 000723   400103 236100                    LDQ     67,,PR4
         3 000724   004000 316007                    CANQ    2048,DL
         3 000725   000736 600000 3                  TZE     s:10261
         3 000726   000000 475400 xsym               LDP5    B$JIT$
         3 000727   500151 236100                    LDQ     105,,PR5
         3 000730   000777 376003                    ANQ     511,DU
         3 000731   000003 116003                    CMPQ    3,DU
         3 000732   000736 601000 3                  TNZ     s:10261

     2453    10258    4                   AND DCBADDR(CMD$STREAM.DCB#) -> READ$DCB.CTLCMDIN
     2454    10259    4                   AND B$JIT.NEXTCC = %CC_FROMUC# THEN
     2455    10260    4                    EOF_FLAG = %TRUE; /* Finished an XEQ, read from M$ME next */

  10260  3 000733   400000 236003                    LDQ     -131072,DU
         3 000734   200235 756100                    STQ     EOF_FLAG,,AUTO
         3 000735   000751 710000 3                  TRA     s:10265

     2456    10261    5                 ELSE IF NOT CMD$STREAM.CMD_AFTER_READ THEN DO;

  10261  3 000736   000027 236100                    LDQ     23,,PR0
         3 000737   040000 316007                    CANQ    16384,DL
         3 000740   000751 601000 3                  TNZ     s:10265

     2457    10262    5                       CALL VDI$PREAD_FILE_READ (NB_BUF, EOF_FLAG)

PL6.E3A0      #003=VDI$PGET_COMMAND_RECORD File=VDI$PARSE.:VDA5TSI               FRI 07/04/97 11:34 Page:324
  10262  3 000741   200235 631500                    EPPR1   EOF_FLAG,,AUTO
         3 000742   200255 451500                    STP1    INTERRUPT_STATE_BEFORE_M$READ+2,,AUTO
         3 000743   200011 633500                    EPPR3   NB_BUF,,AUTO
         3 000744   200254 453500                    STP3    INTERRUPT_STATE_BEFORE_M$READ+1,,AUTO
         3 000745   200254 630500                    EPPR0   INTERRUPT_STATE_BEFORE_M$READ+1,,AUTO
         3 000746   000020 631400 xsym               EPPR1   B_VECTNIL+16
         3 000747   000000 701000 xent               TSX1    VDI$PREAD_FILE_READ
         3 000750   001130 702000 3                  TSX2    PREAD_FILE_READ_FAILED

     2458    10263    5                         ALTRET (PREAD_FILE_READ_FAILED);
     2459    10264    5                       END;

     2460    10265    4              IF NOT CMD$STREAM.ECHO /* Only echo READ, XEQ, or BATCH */

  10265  3 000751   000026 470400 xsym               LDP0    VD_6E+22
         3 000752   000027 236100                    LDQ     23,,PR0
         3 000753   400000 316007                    CANQ    -131072,DL
         3 000754   000757 600000 3                  TZE     s:10267
         3 000755   040000 316007                    CANQ    16384,DL
         3 000756   001014 600000 3                  TZE     s:10288

     2461    10266    4                OR CMD$STREAM.CMD_AFTER_READ THEN /* unless rereading after READ */
     2462    10267    4                 XUG_GETCMD.TREAD# = %TRUE;

  10267  3 000757   200000 236003                    LDQ     65536,DU
         3 000760   000006 256000 xsym               ORSQ    XUG_GETCMD+6
         3 000761   001014 710000 3                  TRA     s:10288

     2463    10268
     2464    10269
     2465    10270    4            CASE (%CS_ME);

     2466    10271    5              IF CMD$STREAM.INTREE$ ~= ADDR(NIL) THEN DO;

  10271  3 000762   000026 236100                    LDQ     22,,PR0
         3 000763   000001 116000 xsym               CMPQ    B_VECTNIL+1
         3 000764   000776 600000 3                  TZE     s:10278
PL6.E3A0      #003=VDI$PGET_COMMAND_RECORD File=VDI$PARSE.:VDA5TSI               FRI 07/04/97 11:34 Page:325

     2467    10272    5                 CALL VDG$OFREE (CMD$STREAM.INTREE$->VD$IT_COMMAND)

  10272  3 000765   000026 471500                    LDP1    22,,PR0
         3 000766   200254 451500                    STP1    INTERRUPT_STATE_BEFORE_M$READ+1,,AUTO
         3 000767   200254 630500                    EPPR0   INTERRUPT_STATE_BEFORE_M$READ+1,,AUTO
         3 000770   000017 631400 xsym               EPPR1   B_VECTNIL+15
         3 000771   000000 701000 xent               TSX1    VDG$OFREE
         3 000772   001135 702000 3                  TSX2    WLOAD_FAILED

     2468    10273    5                   ALTRET (OFREE_FAILED);
     2469    10274    5                 CMD$STREAM.INTREE$ = ADDR(NIL);

  10274  3 000773   000001 236000 xsym               LDQ     B_VECTNIL+1
         3 000774   000026 470400 xsym               LDP0    VD_6E+22
         3 000775   000026 756100                    STQ     22,,PR0

     2470    10275    5                 END;

     2471    10276
     2472    10277                   /* If .POSITION# > 0, we already have a partial rec left over */
     2473    10278    4              IF NOT CMD$STREAM.CMD_AFTER_READ THEN

  10278  3 000776   000026 470400 xsym               LDP0    VD_6E+22
         3 000777   000027 236100                    LDQ     23,,PR0
         3 001000   040000 316007                    CANQ    16384,DL
         3 001001   001014 601000 3                  TNZ     s:10288

     2474    10279    4                 CALL READ_FROM_ME

  10279  3 001002   001137 701000 3                  TSX1    READ_FROM_ME
         3 001003   001135 702000 3                  TSX2    WLOAD_FAILED
         3 001004   001014 710000 3                  TRA     s:10288

     2475    10280    4                   ALTRET (READ_FROM_ME_FAILED);
     2476    10281
     2477    10282
PL6.E3A0      #003=VDI$PGET_COMMAND_RECORD File=VDI$PARSE.:VDA5TSI               FRI 07/04/97 11:34 Page:326
     2478    10283    4            CASE (ELSE);

     2479    10284    4              CALL VDG$ESCREECH (CMD$STREAM.TYPE#);

  10284  3 001005   000026 236000 xsym               LDQ     VD_6E+22
         3 001006   000002 036003                    ADLQ    2,DU
         3 001007   200254 756100                    STQ     INTERRUPT_STATE_BEFORE_M$READ+1,,AUTO
         3 001010   200254 630500                    EPPR0   INTERRUPT_STATE_BEFORE_M$READ+1,,AUTO
         3 001011   000017 631400 xsym               EPPR1   B_VECTNIL+15
         3 001012   000000 701000 xent               TSX1    VDG$ESCREECH
         3 001013   000000 011000                    NOP     0

     2480    10285    4            END CMD_STREAM_TYPE_CASES;

     2481    10286
     2482    10287
     2483    10288    4           IF NOT EOF_FLAG THEN DO;

  10288  3 001014   200235 234100                    SZN     EOF_FLAG,,AUTO
         3 001015   001126 604000 3                  TMI     s:10343

     2484    10289                   /*
     2485    10290                   *  The two cases to be handled are:
     2486    10291                   *  1.  Reading a record for the first time.  CMD$STREAM.POSITION#
     2487    10292                   *        is either 0 or 1 in this case.  (It may be 1 if
     2488    10293                   *        the record contains a VFC char.)
     2489    10294                   *  2.  Re-reading a record whose processing was interrupted
     2490    10295                   *        by a READ command.  .POSITION# is > 1 in this case.
     2491    10296                   */
     2492    10297    5              IF CMD$STREAM.INTREE$ ~= ADDR(NIL) THEN DO;

  10297  3 001016   000026 470400 xsym               LDP0    VD_6E+22
         3 001017   000026 236100                    LDQ     22,,PR0
         3 001020   000001 116000 xsym               CMPQ    B_VECTNIL+1
         3 001021   001053 600000 3                  TZE     s:10311

     2493    10298    6                 IF CMD$STREAM.POSITION# > 0 THEN DO;
PL6.E3A0      #003=VDI$PGET_COMMAND_RECORD File=VDI$PARSE.:VDA5TSI               FRI 07/04/97 11:34 Page:327

  10298  3 001022   000027 220100                    LDX0    23,,PR0
         3 001023   001126 604400 3                  TMOZ    s:10343

     2494    10299                         /* Strip some VD$IT_COMMANDs from front of chain */
     2495    10300    6                    N = CMD$STREAM.POSITION#;   /* # to strip */

  10300  3 001024   000027 236100                    LDQ     23,,PR0
         3 001025   000022 732000                    QRS     18
         3 001026   200240 756100                    STQ     N,,AUTO

     2496    10301    7                    DO WHILE CMD$STREAM.INTREE$ ~= ADDR(NIL)

  10301  3 001027   001044 710000 3                  TRA     s:10308

     2497    10302    7                      AND N > 0;
     2498    10303    7                       IT_COMMAND$ = CMD$STREAM.INTREE$;

  10303  3 001030   000026 470400 xsym               LDP0    VD_6E+22
         3 001031   000026 236100                    LDQ     22,,PR0
         3 001032   200241 756100                    STQ     IT_COMMAND$,,AUTO

     2499    10304    7                       CMD$STREAM.INTREE$ = IT$COMMAND.FLINK$;

  10304  3 001033   200241 471500                    LDP1    IT_COMMAND$,,AUTO
         3 001034   100002 236100                    LDQ     2,,PR1
         3 001035   000026 756100                    STQ     22,,PR0

     2500    10305    7                       CALL VDG$OFREE (IT$COMMAND)

  10305  3 001036   200241 630500                    EPPR0   IT_COMMAND$,,AUTO
         3 001037   000017 631400 xsym               EPPR1   B_VECTNIL+15
         3 001040   000000 701000 xent               TSX1    VDG$OFREE
         3 001041   001135 702000 3                  TSX2    WLOAD_FAILED

     2501    10306    7                         ALTRET (OFREE_FAILED);
     2502    10307    7                       N = N - 1;
PL6.E3A0      #003=VDI$PGET_COMMAND_RECORD File=VDI$PARSE.:VDA5TSI               FRI 07/04/97 11:34 Page:328

  10307  3 001042   000001 336007                    LCQ     1,DL
         3 001043   200240 056100                    ASQ     N,,AUTO

     2503    10308    7                       END;

  10308  3 001044   000026 470400 xsym               LDP0    VD_6E+22
         3 001045   000026 236100                    LDQ     22,,PR0
         3 001046   000001 116000 xsym               CMPQ    B_VECTNIL+1
         3 001047   001052 600000 3                  TZE     s:10310
         3 001050   200240 235100                    LDA     N,,AUTO
         3 001051   001030 605400 3                  TPNZ    s:10303

     2504    10309    6                    END;

     2505    10310    5                 END;

  10310  3 001052   001126 710000 3                  TRA     s:10343

     2506    10311    5              ELSE IF CMD$STREAM.RECORD$ ~= ADDR(NIL) THEN DO;

  10311  3 001053   000025 236100                    LDQ     21,,PR0
         3 001054   000001 116000 xsym               CMPQ    B_VECTNIL+1
         3 001055   001126 600000 3                  TZE     s:10343

     2507    10312    5                    VD_BUFFER$ = CMD$STREAM.RECORD$;

  10312  3 001056   200242 756100                    STQ     VD_BUFFER$,,AUTO

     2508    10313    6                    IF CMD$STREAM.POSITION# < 2 THEN DO;

  10313  3 001057   000027 220100                    LDX0    23,,PR0
         3 001060   000002 100003                    CMPX0   2,DU
         3 001061   001074 605000 3                  TPL     s:10325

     2509    10314                            /*
     2510    10315                            *  This is case 1: we just read a record for the first
PL6.E3A0      #003=VDI$PGET_COMMAND_RECORD File=VDI$PARSE.:VDA5TSI               FRI 07/04/97 11:34 Page:329
     2511    10316                            *       time.
     2512    10317                            *  Check for prompt at start of record.
     2513    10318                            */
     2514    10319    6                       IF SUBSTR(VD$BUFFER.BYTES, CMD$STREAM.POSITION#,

  10319  3 001062   200242 471500                    LDP1    VD_BUFFER$,,AUTO
         3 001063   100002 221100                    LDX1    2,,PR1
         3 001064   000027 236100                    LDQ     23,,PR0
         3 001065   000022 732000                    QRS     18
         3 001066   040000 106506                    CMPC    fill='040'O
         3 001067   100002 400001                    ADSC9   2,Q,PR1                  cn=2,n=1
         3 001070   000013 000001 4                  ADSC9   11                       cn=0,n=1
         3 001071   001074 601000 3                  TNZ     s:10325

     2515    10320    6                         LENGTHC(%CHR_PROMPT)) = %CHR_PROMPT THEN
     2516    10321    6                          CMD$STREAM.POSITION# = CMD$STREAM.POSITION# +

  10321  3 001072   000001 622010                    EAX2    1,X0
         3 001073   000027 742100                    STX2    23,,PR0

     2517    10322    6                            LENGTHC(%CHR_PROMPT);
     2518    10323    6                       END;

     2519    10324
     2520    10325    6                    IF CMD$STREAM.POSITION# > 0 THEN DO;

  10325  3 001074   000027 220100                    LDX0    23,,PR0
         3 001075   001126 604400 3                  TMOZ    s:10343

     2521    10326                            /*
     2522    10327                            *  This ISN'T case 2!  Both cases may pass thru this code.
     2523    10328                            *  Case 1 may get here to strip a VFC char off the front
     2524    10329                            *    of the buffer.
     2525    10330                            *  Case 2 always gets here to strip the already-processed
     2526    10331                            *    commands off the front of the buffer.
     2527    10332                            */
     2528    10333    6                       VD$BUFFER.LENGTH# = MAXIMUM (0,
PL6.E3A0      #003=VDI$PGET_COMMAND_RECORD File=VDI$PARSE.:VDA5TSI               FRI 07/04/97 11:34 Page:330

  10333  3 001076   000027 236100                    LDQ     23,,PR0
         3 001077   000022 732000                    QRS     18
         3 001100   200254 756100                    STQ     INTERRUPT_STATE_BEFORE_M$READ+1,,AUTO
         3 001101   200242 471500                    LDP1    VD_BUFFER$,,AUTO
         3 001102   100002 236100                    LDQ     2,,PR1
         3 001103   000022 732000                    QRS     18
         3 001104   200254 136100                    SBLQ    INTERRUPT_STATE_BEFORE_M$READ+1,,AUTO
         3 001105   000000 116003                    CMPQ    0,DU
         3 001106   001110 605000 3                  TPL     s:10333+10
         3 001107   000000 236003                    LDQ     0,DU
         3 001110   000000 620006                    EAX0    0,QL
         3 001111   100002 740100                    STX0    2,,PR1

     2529    10334    6                         VD$BUFFER.LENGTH# - CMD$STREAM.POSITION#);
     2530    10335    6                       IF VD$BUFFER.LENGTH# > 0 THEN

  10335  3 001112   001123 604400 3                  TMOZ    s:10338

     2531    10336    6                          VD$BUFFER.BYTES = SUBSTR (VD$BUFFER.BYTES,

  10336  3 001113   000026 470400 xsym               LDP0    VD_6E+22
         3 001114   000027 236100                    LDQ     23,,PR0
         3 001115   000022 732000                    QRS     18
         3 001116   200254 740100                    STX0    INTERRUPT_STATE_BEFORE_M$READ+1,,AUTO
         3 001117   200254 221100                    LDX1    INTERRUPT_STATE_BEFORE_M$READ+1,,AUTO
         3 001120   040140 100546                    MLR     fill='040'O
         3 001121   100002 400010                    ADSC9   2,Q,PR1                  cn=2,n=*X0
         3 001122   100002 400011                    ADSC9   2,,PR1                   cn=2,n=*X1

     2532    10337    6                            CMD$STREAM.POSITION#, VD$BUFFER.LENGTH#);
     2533    10338    6                       CMD$STREAM.POSITION# = 0;

  10338  3 001123   000000 220003                    LDX0    0,DU
         3 001124   000026 470400 xsym               LDP0    VD_6E+22
         3 001125   000027 740100                    STX0    23,,PR0

PL6.E3A0      #003=VDI$PGET_COMMAND_RECORD File=VDI$PARSE.:VDA5TSI               FRI 07/04/97 11:34 Page:331
     2534    10339    6                       END;

     2535    10340    5                    END;

     2536    10341    4              END;

     2537    10342
     2538    10343    3           RETURN;

  10343  3 001126   200236 221300                    LDX1  ! @REPL+1,,AUTO
         3 001127   000001 702211                    TSX2  ! 1,X1

     2539    10344
     2540    10345
     2541    10346
     2542    10347    3   PREAD_FILE_READ_FAILED:
     2543    10348    3           CALL VDI$PREAD_FILE_CLOSE;

  10348  3 001130   000002 631400 xsym  PREAD_FILE_* EPPR1   B_VECTNIL+2
         3 001131   000000 701000 xent               TSX1    VDI$PREAD_FILE_CLOSE
         3 001132   000000 011000                    NOP     0

     2544    10349    3           ALTRETURN;

  10349  3 001133   200236 221300                    LDX1  ! @REPL+1,,AUTO
         3 001134   000000 702211                    TSX2  ! 0,X1

  10339  3 001135                       WLOAD_FAILED null
  10339  3 001135                       READ_FROM_M* null
  10339  3 001135                       OALLOC_FAIL* null
  10339  3 001135                       OFREE_FAILED null
     2545    10350
     2546    10351
     2547    10352    3   WLOAD_FAILED: ;
     2548    10353    3   READ_FROM_ME_FAILED: ;
     2549    10354    3   OALLOC_FAILED: ;
     2550    10355    3   OFREE_FAILED: ;
PL6.E3A0      #003=VDI$PGET_COMMAND_RECORD File=VDI$PARSE.:VDA5TSI               FRI 07/04/97 11:34 Page:332
     2551    10356    3           ALTRETURN;

  10356  3 001135   200236 221300                    LDX1  ! @REPL+1,,AUTO
         3 001136   000000 702211                    TSX2  ! 0,X1

     2552    10357
     2553    10358    3   END CMD_STREAM_READ;
     2554    10359
     2555    10360
     2556    10361        %BOX (TITLE=READ_FROM_ME);

             10373    3   /***************************************************************************
             10375    3    *                                                                         *
             10379    3            *                                READ_FROM_ME                            *
             10381    3            *                                                                        *
             10383    3          ***************************************************************************/

     2557    10387
     2558    10388        /*I** NAME: READ_FROM_ME
     2559    10389            PARAMETERS:
     2560    10390                None.
     2561    10391            INPUT:
     2562    10392                CMD$STREAM - VD$CMD_STREAM at top of stack.  It must be a %CS_ME-type.
     2563    10393            OUTPUT:
     2564    10394                CMD$STREAM.RECORD$ will point to the new record from ME.
     2565    10395                CMD$STREAM.POSITION# will be set to 1 if the record read from ME has
     2566    10396                    a VFC character; else .POSITION# will be set to 0.
     2567    10397                EOF_FLAG will be set if we get EOF from ME.
     2568    10398                XUG_GETCMD.TREAD will be set if we got a command line we want to
     2569    10399                    process.
     2570    10400                VD_FORCE_READ_FROM may be set.
     2571    10401            DESCRIPTION:
     2572    10402                Read a record from ME (the terminal command window).  If we didn't
     2573    10403                get EOF, then check the activation character:  if EOM_COMMAND, ignore
     2574    10404                this read and start another one.
     2575    10405        */
     2576    10406
PL6.E3A0      #003=VDI$PGET_COMMAND_RECORD File=VDI$PARSE.:VDA5TSI               FRI 07/04/97 11:34 Page:333
     2577    10407    2   READ_FROM_ME: PROC ALTRET;

  10407  3 001137   200246 741300       READ_FROM_ME STX1  ! LOAD_FLAGS+2,,AUTO

     2578    10408
     2579    10409
     2580    10410        %FPT_READ (STCLASS=STATIC);
     2581    10449
     2582    10450
     2583    10451    3   DCL BUF_SIZE SBIN;
     2584    10452    3   DCL VD_BUFFER$ PTR;
     2585    10453    3   DCL READ_DCB$ PTR;
     2586    10454    3   DCL ERR_CODE SBIN;
     2587    10455    3   DCL INTERRUPT_STATE_BEFORE_M$READ SBIN;
     2588    10456
     2589    10457
     2590    10458        %VD$BUFFER (NAME=VD$BUFFER, STCLASS="BASED(VD_BUFFER$)");
     2591    10516        %F$DCB (DCBN=READ$DCB, STCLASS="BASED(READ_DCB$)");
     2592    10573
     2593    10574
     2594    10575
     2595    10576    4           IF VD_LAST_CWIN_ACTIVITY = %LCA_SWITCH THEN DO;

  10576  3 001140   000000 235000 xsym               LDA     VD_LAST_CWIN_ACTIVITY
         3 001141   000004 115007                    CMPA    4,DL
         3 001142   001146 601000 3                  TNZ     s:10581

     2596    10577    4              CALL VDG$ERASE_COMMAND_WINDOW

  10577  3 001143   000002 631400 xsym               EPPR1   B_VECTNIL+2
         3 001144   000000 701000 xent               TSX1    VDG$ERASE_COMMAND_WINDOW
         3 001145   001425 702000 3                  TSX2    OALLOC_FAILED

     2597    10578    4                ALTRET (ERASE_COMMAND_WINDOW_FAILED);
     2598    10579    4              END;

     2599    10580
PL6.E3A0      #003=VDI$PGET_COMMAND_RECORD File=VDI$PARSE.:VDA5TSI               FRI 07/04/97 11:34 Page:334
     2600    10581    3           BUF_SIZE = (LENGTHC(VD$BUFFER_HEADER) + NB_BUF + %NB_PER_WORD - 1) /

  10581  3 001146   200011 236100                    LDQ     NB_BUF,,AUTO
         3 001147   000015 036007                    ADLQ    13,DL
         3 001150   000004 506007                    DIV     4,DL
         3 001151   200247 756100                    STQ     BUF_SIZE,,AUTO

     2601    10582    3             %NB_PER_WORD;
     2602    10583    4           IF CMD$STREAM.RECORD$ ~= ADDR(NIL) THEN DO;

  10583  3 001152   000026 470400 xsym               LDP0    VD_6E+22
         3 001153   000025 236100                    LDQ     21,,PR0
         3 001154   000001 116000 xsym               CMPQ    B_VECTNIL+1
         3 001155   001174 600000 3                  TZE     s:10591

     2603    10584    4              VD_BUFFER$ = CMD$STREAM.RECORD$;

  10584  3 001156   200250 756100                    STQ     VD_BUFFER$,,AUTO

     2604    10585    5              IF VD$BUFFER.OBJECT.SIZE# < BUF_SIZE THEN DO;

  10585  3 001157   200250 471500                    LDP1    VD_BUFFER$,,AUTO
         3 001160   100000 236100                    LDQ     0,,PR1
         3 001161   000022 736000                    QLS     18
         3 001162   000022 732000                    QRS     18
         3 001163   200247 116100                    CMPQ    BUF_SIZE,,AUTO
         3 001164   001174 605000 3                  TPL     s:10591

     2605    10586    5                 CALL VDG$OFREE (VD$BUFFER)

  10586  3 001165   200250 630500                    EPPR0   VD_BUFFER$,,AUTO
         3 001166   000017 631400 xsym               EPPR1   B_VECTNIL+15
         3 001167   000000 701000 xent               TSX1    VDG$OFREE
         3 001170   001425 702000 3                  TSX2    OALLOC_FAILED

     2606    10587    5                   ALTRET (OFREE_FAILED);
     2607    10588    5                 CMD$STREAM.RECORD$ = ADDR(NIL);
PL6.E3A0      #003=VDI$PGET_COMMAND_RECORD File=VDI$PARSE.:VDA5TSI               FRI 07/04/97 11:34 Page:335

  10588  3 001171   000001 236000 xsym               LDQ     B_VECTNIL+1
         3 001172   000026 470400 xsym               LDP0    VD_6E+22
         3 001173   000025 756100                    STQ     21,,PR0

     2608    10589    5                 END;

     2609    10590    4              END;

     2610    10591    4           IF CMD$STREAM.RECORD$ = ADDR(NIL) THEN DO;

  10591  3 001174   000026 470400 xsym               LDP0    VD_6E+22
         3 001175   000025 236100                    LDQ     21,,PR0
         3 001176   000001 116000 xsym               CMPQ    B_VECTNIL+1
         3 001177   001212 601000 3                  TNZ     s:10595

     2611    10592    4              CALL VDG$OALLOC (%CLS_BUFFER, CMD$STREAM.RECORD$, BUF_SIZE)

  10592  3 001200   200247 631500                    EPPR1   BUF_SIZE,,AUTO
         3 001201   200256 451500                    STP1    INTERRUPT_STATE_BEFORE_M$READ+3,,AUTO
         3 001202   000026 236000 xsym               LDQ     VD_6E+22
         3 001203   000025 036003                    ADLQ    21,DU
         3 001204   000010 235000 4                  LDA     8
         3 001205   200254 757100                    STAQ    INTERRUPT_STATE_BEFORE_M$READ+1,,AUTO
         3 001206   200254 630500                    EPPR0   INTERRUPT_STATE_BEFORE_M$READ+1,,AUTO
         3 001207   000021 631400 xsym               EPPR1   B_VECTNIL+17
         3 001210   000000 701000 xent               TSX1    VDG$OALLOC
         3 001211   001425 702000 3                  TSX2    OALLOC_FAILED

     2612    10593    4                ALTRET (OALLOC_FAILED);
     2613    10594    4              END;

     2614    10595    3           VD_BUFFER$ = CMD$STREAM.RECORD$;

  10595  3 001212   000026 470400 xsym               LDP0    VD_6E+22
         3 001213   000025 236100                    LDQ     21,,PR0
         3 001214   200250 756100                    STQ     VD_BUFFER$,,AUTO
PL6.E3A0      #003=VDI$PGET_COMMAND_RECORD File=VDI$PARSE.:VDA5TSI               FRI 07/04/97 11:34 Page:336

     2615    10596    3           VD$BUFFER.LENGTH# = NB_BUF;

  10596  3 001215   200011 720100                    LXL0    NB_BUF,,AUTO
         3 001216   200250 471500                    LDP1    VD_BUFFER$,,AUTO
         3 001217   100002 740100                    STX0    2,,PR1

     2616    10597    3           FPT_READ.BUF_ = VECTOR(VD$BUFFER.BYTES);

  10597  3 001220   000000 635010                    EAA     0,X0
         3 001221   000002 731000                    ARS     2
         3 001222   000140 135007                    SBLA    96,DL
         3 001223   000014 036000 4                  ADLQ    12
         3 001224   000036 757000 2                  STAQ    FPT_READ+4

     2617    10598    3           FPT_READ.V.DCB# = XUG_GETCMD.INDCB#;

  10598  3 001225   000012 720000 xsym               LXL0    XUG_GETCMD+10
         3 001226   000042 740000 2                  STX0    FPT_READ+8

     2618    10599    3           READ_DCB$ = DCBADDR(FPT_READ.V.DCB#);

  10599  3 001227   000012 470400 4                  LDP0    10
         3 001230   000000 473500                    LDP3    0,,PR0
         3 001231   300000 236110                    LDQ     0,X0,PR3
         3 001232   200251 756100                    STQ     READ_DCB$,,AUTO

     2619    10600
     2620    10601    3   DO_UNTIL_GOT_A_REC:
     2621    10602    4           DO UNTIL EOF_FLAG OR XUG_GETCMD.TREAD#;

  10602  3 001233                       DO_UNTIL_GO* null
     2622    10603    4              ERR_CODE = 0;

  10603  3 001233   200252 450100                    STZ     ERR_CODE,,AUTO

     2623    10604    5              DO INHIBIT;
PL6.E3A0      #003=VDI$PGET_COMMAND_RECORD File=VDI$PARSE.:VDA5TSI               FRI 07/04/97 11:34 Page:337

     2624    10605    5                 INTERRUPT_STATE_BEFORE_M$READ = VD_6E.INTERRUPT.STATE#;

  10605  3 001234   000027 235200 xsym               LDA   ! VD_6E+23
         3 001235   000022 771200                    ARL   ! 18
         3 001236   200253 755300                    STA   ! INTERRUPT_STATE_BEFORE_M$READ,,AUTO

     2625    10606    5                 VD_6E.INTERRUPT.STATE# = %INST_READING;

  10606  3 001237   000002 220203                    LDX0  ! 2,DU
         3 001240   000027 740200 xsym               STX0  ! VD_6E+23

     2626    10607    5                 END;

     2627    10608
     2628    10609    4              CALL M$READ (FPT_READ)

  10609  3 001241   000032 630400 2                  EPPR0   FPT_READ
         3 001242   440000 713400                    CLIMB   alt,read
         3 001243   401400 401760                    pmme    nvectors=4
         3 001244   001246 702000 3                  TSX2    s:10611
         3 001245   001254 710000 3                  TRA     s:10615

     2629    10610    5              WHENALTRETURN DO;

     2630    10611    5                 ERR_CODE = B$TCB.ALT$->B$ALT.ERR.ERR#;

  10611  3 001246   000000 470400 xsym               LDP0    B$TCB$
         3 001247   000000 471500                    LDP1    0,,PR0
         3 001250   100102 236100                    LDQ     66,,PR1
         3 001251   000003 772000                    QRL     3
         3 001252   037777 376007                    ANQ     16383,DL
         3 001253   200252 756100                    STQ     ERR_CODE,,AUTO

     2631    10612    5                 END;

     2632    10613
PL6.E3A0      #003=VDI$PGET_COMMAND_RECORD File=VDI$PARSE.:VDA5TSI               FRI 07/04/97 11:34 Page:338
     2633    10614    5              DO INHIBIT;

     2634    10615    5                 VD_6E.INTERRUPT.STATE# = INTERRUPT_STATE_BEFORE_M$READ;

  10615  3 001254   200253 720300                    LXL0  ! INTERRUPT_STATE_BEFORE_M$READ,,AUTO
         3 001255   000027 740200 xsym               STX0  ! VD_6E+23

     2635    10616    5                 END;

     2636    10617
     2637    10618    5              IF ERR_CODE ~= 0 THEN DO;

  10618  3 001256   200252 235100                    LDA     ERR_CODE,,AUTO
         3 001257   001272 600000 3                  TZE     READ_COMPLETED_OK

     2638    10619    5                 IF ERR_CODE ~= %E$EOF OR B$JIT.MODE ~= %M_INT# THEN

  10619  3 001260   000006 115007                    CMPA    6,DL
         3 001261   001344 601000 3                  TNZ     CMD_WINDOW_READ_FAILED
         3 001262   000000 470400 xsym               LDP0    B$JIT$
         3 001263   000000 236100                    LDQ     0,,PR0
         3 001264   740000 376003                    ANQ     -16384,DU
         3 001265   140000 116003                    CMPQ    49152,DU
         3 001266   001344 601000 3                  TNZ     CMD_WINDOW_READ_FAILED

     2639    10620                         /* Non-EOF error, or EOF in batch/ghost/TP */
     2640    10621    5                    GOTO CMD_WINDOW_READ_FAILED;
     2641    10622    5                 EOF_FLAG = %TRUE;

  10622  3 001267   400000 236003                    LDQ     -131072,DU
         3 001270   200235 756100                    STQ     EOF_FLAG,,AUTO

     2642    10623    5                 END;

  10623  3 001271   001335 710000 3                  TRA     s:10654

     2643    10624    4              ELSE
PL6.E3A0      #003=VDI$PGET_COMMAND_RECORD File=VDI$PARSE.:VDA5TSI               FRI 07/04/97 11:34 Page:339
     2644    10625    5   READ_COMPLETED_OK: DO;

  10625  3 001272                       READ_COMPLE* null
     2645    10626    5                 VD$BUFFER.LENGTH# = READ$DCB.ARS#;

  10626  3 001272   200251 470500                    LDP0    READ_DCB$,,AUTO
         3 001273   000000 721100                    LXL1    0,,PR0
         3 001274   200250 471500                    LDP1    VD_BUFFER$,,AUTO
         3 001275   100002 741100                    STX1    2,,PR1

     2646    10627
     2647    10628    5                 EOMCHAR = READ$DCB.EOMCHAR#;

  10628  3 001276   200007 473500                    LDP3    @EOMCHAR,,AUTO
         3 001277   040100 100500                    MLR     fill='040'O
         3 001300   000003 600001                    ADSC9   3,,PR0                   cn=3,n=1
         3 001301   300000 000001                    ADSC9   0,,PR3                   cn=0,n=1

     2648    10629    5                 IF READ$DCB.EOMVAL#.VALUE# = %EOM_COMMAND THEN

  10629  3 001302   000003 236100                    LDQ     3,,PR0
         3 001303   000377 376007                    ANQ     255,DL
         3 001304   000003 116007                    CMPQ    3,DL
         3 001305   001313 601000 3                  TNZ     s:10634

     2649    10630                             /* Ignore empty command line, start another one */
     2650    10631    5                    IF READ$DCB.ARS#=0 THEN EXIT READ_COMPLETED_OK;

  10631  3 001306   000000 235100                    LDA     0,,PR0
         3 001307   001335 600000 3                  TZE     s:10654

     2651    10632                             /* Otherwise, stay in the command window */
     2652    10633    5                    ELSE VD_FORCE_READ_FROM = %RF_COMMAND_WINDOW;

  10633  3 001310   000001 235007                    LDA     1,DL
         3 001311   000000 755000 xsym               STA     VD_FORCE_READ_FROM
         3 001312   001325 710000 3                  TRA     s:10650
PL6.E3A0      #003=VDI$PGET_COMMAND_RECORD File=VDI$PARSE.:VDA5TSI               FRI 07/04/97 11:34 Page:340

     2653    10634    5                 ELSE IF READ$DCB.EOMVAL#.VALUE# = %EOM_NEXT_ED_WINDOW THEN

  10634  3 001313   000016 116007                    CMPQ    14,DL
         3 001314   001325 600000 3                  TZE     s:10650

     2654    10635                            /*
     2655    10636                            *  Treat EOM_NEXT_ED_WINDOW like CR, but force next
     2656    10637                            *    read from editing window.
     2657    10638                            */
     2658    10639
     2659    10640    5                       ; /* ? */
     2660    10641    5                    ELSE IF READ$DCB.EOMVAL#.VALUE# = %EOM_ED_WINDOW

  10641  3 001315   000012 116007                    CMPQ    10,DL
         3 001316   001323 600000 3                  TZE     s:10647
         3 001317   000004 116007                    CMPQ    4,DL
         3 001320   001323 600000 3                  TZE     s:10647
         3 001321   000026 116007                    CMPQ    22,DL
         3 001322   001325 601000 3                  TNZ     s:10650

     2661    10642    5                         OR READ$DCB.EOMVAL#.VALUE# = %EOM_PREV_RECORD
     2662    10643    5                         OR READ$DCB.EOMVAL#.VALUE# = %EOM_SPLIT_RECORD THEN
     2663    10644                            /*  A <LF> in the command window means go to
     2664    10645                                the current editing window.  */
     2665    10646
     2666    10647    5                          VD_FORCE_READ_FROM = %RF_EDITING_WINDOW;

  10647  3 001323   000002 235007                    LDA     2,DL
         3 001324   000000 755000 xsym               STA     VD_FORCE_READ_FROM

     2667    10648
     2668    10649                            /* CR or other "normal" activations */
     2669    10650    5                 XUG_GETCMD.TREAD# = %TRUE;

  10650  3 001325   200000 236003                    LDQ     65536,DU
         3 001326   000006 256000 xsym               ORSQ    XUG_GETCMD+6
PL6.E3A0      #003=VDI$PGET_COMMAND_RECORD File=VDI$PARSE.:VDA5TSI               FRI 07/04/97 11:34 Page:341

     2670    10651    5                 CMD$STREAM.POSITION# = BITBIN(READ$DCB.DVBYTE.VFC#);

  10651  3 001327   000003 236100                    LDQ     3,,PR0
         3 001330   000041 772000                    QRL     33
         3 001331   000001 376007                    ANQ     1,DL
         3 001332   000000 621006                    EAX1    0,QL
         3 001333   000026 474400 xsym               LDP4    VD_6E+22
         3 001334   400027 741100                    STX1    23,,PR4

     2671    10652    5                 END READ_COMPLETED_OK;

     2672    10653
     2673    10654    4              END DO_UNTIL_GOT_A_REC;

  10654  3 001335   200235 234100                    SZN     EOF_FLAG,,AUTO
         3 001336   001342 604000 3                  TMI     s:10656
         3 001337   000006 236000 xsym               LDQ     XUG_GETCMD+6
         3 001340   200000 316003                    CANQ    65536,DU
         3 001341   001233 600000 3                  TZE     DO_UNTIL_GOT_A_REC

     2674    10655
     2675    10656    3           RETURN;

  10656  3 001342   200246 221300                    LDX1  ! LOAD_FLAGS+2,,AUTO
         3 001343   000001 702211                    TSX2  ! 1,X1

     2676    10657
     2677    10658
     2678    10659
     2679    10660    3   CMD_WINDOW_READ_FAILED:
     2680    10661    4           IF B$JIT.MODE ~= %M_INT# THEN DO;

  10661  3 001344   000000 470400 xsym  CMD_WINDOW_* LDP0    B$JIT$
         3 001345   000000 236100                    LDQ     0,,PR0
         3 001346   740000 376003                    ANQ     -16384,DU
         3 001347   140000 116003                    CMPQ    49152,DU
PL6.E3A0      #003=VDI$PGET_COMMAND_RECORD File=VDI$PARSE.:VDA5TSI               FRI 07/04/97 11:34 Page:342
         3 001350   001400 600000 3                  TZE     s:10672

     2681    10662                   /* Error while reading in batch is fatal */
     2682    10663    4              FATAL$ERR.ERR = B$TCB.ALT$->B$ALT.ERR;

  10663  3 001351   000000 471400 xsym               LDP1    B$TCB$
         3 001352   100000 473500                    LDP3    0,,PR1
         3 001353   300102 236100                    LDQ     66,,PR3
         3 001354   000031 474400 xsym               LDP4    VD_6E+25
         3 001355   400002 756100                    STQ     2,,PR4

     2683    10664    5              IF FATAL$ERR.ERR.CODE# = %E$EOF THEN DO;

  10664  3 001356   000031 473400 xsym               LDP3    VD_6E+25
         3 001357   300002 236100                    LDQ     2,,PR3
         3 001360   377770 376007                    ANQ     131064,DL
         3 001361   000060 116007                    CMPQ    48,DL
         3 001362   001371 601000 3                  TNZ     s:10668

     2684    10665    5                 FATAL$ERR.ERR = %CLEAR;

  10665  3 001363   300002 450100                    STZ     2,,PR3

     2685    10666    5                 FATAL$ERR.ERR.CODE# = %E$NO_MORE_COMMANDS;

  10666  3 001364   000031 473400 xsym               LDP3    VD_6E+25
         3 001365   300002 236100                    LDQ     2,,PR3
         3 001366   000003 376000 4                  ANQ     3
         3 001367   001100 276007                    ORQ     576,DL
         3 001370   300002 756100                    STQ     2,,PR3

     2686    10667    5                 END;

     2687    10668    4              FATAL$ERR.FLAGLEV# = %FLV_FATAL;

  10668  3 001371   000004 221003                    LDX1    4,DU
         3 001372   000031 473400 xsym               LDP3    VD_6E+25
PL6.E3A0      #003=VDI$PGET_COMMAND_RECORD File=VDI$PARSE.:VDA5TSI               FRI 07/04/97 11:34 Page:343
         3 001373   300003 741100                    STX1    3,,PR3

     2688    10669    4              FATAL$ERR.DCB# = FPT_READ.V.DCB#;

  10669  3 001374   000042 222000 2                  LDX2    FPT_READ+8
         3 001375   000031 473400 xsym               LDP3    VD_6E+25
         3 001376   300004 742100                    STX2    4,,PR3

     2689    10670    4              END;

  10670  3 001377   001423 710000 3                  TRA     s:10678

     2690    10671    4           ELSE DO;

     2691    10672    4              CALL VDG$OALLOC (%CLS_ERR, VD_ERR$)

  10672  3 001400   200231 631500                    EPPR1   VD_ERR$,,AUTO
         3 001401   200255 451500                    STP1    INTERRUPT_STATE_BEFORE_M$READ+2,,AUTO
         3 001402   000002 236000 4                  LDQ     2
         3 001403   200254 756100                    STQ     INTERRUPT_STATE_BEFORE_M$READ+1,,AUTO
         3 001404   200254 630500                    EPPR0   INTERRUPT_STATE_BEFORE_M$READ+1,,AUTO
         3 001405   000020 631400 xsym               EPPR1   B_VECTNIL+16
         3 001406   000000 701000 xent               TSX1    VDG$OALLOC
         3 001407   001425 702000 3                  TSX2    OALLOC_FAILED

     2692    10673    4                ALTRET (OALLOC_FAILED);
     2693    10674    4              VD$ERR.ERR = B$TCB.ALT$->B$ALT.ERR;

  10674  3 001410   000000 470400 xsym               LDP0    B$TCB$
         3 001411   000000 471500                    LDP1    0,,PR0
         3 001412   100102 236100                    LDQ     66,,PR1
         3 001413   200231 473500                    LDP3    VD_ERR$,,AUTO
         3 001414   300002 756100                    STQ     2,,PR3

     2694    10675    4              VD$ERR.FLAGLEV# = %FLV_SERIOUS;

  10675  3 001415   000003 220003                    LDX0    3,DU
PL6.E3A0      #003=VDI$PGET_COMMAND_RECORD File=VDI$PARSE.:VDA5TSI               FRI 07/04/97 11:34 Page:344
         3 001416   200231 471500                    LDP1    VD_ERR$,,AUTO
         3 001417   100003 740100                    STX0    3,,PR1

     2695    10676    4              VD$ERR.DCB# = FPT_READ.V.DCB#;

  10676  3 001420   000042 221000 2                  LDX1    FPT_READ+8
         3 001421   200231 471500                    LDP1    VD_ERR$,,AUTO
         3 001422   100004 741100                    STX1    4,,PR1

     2696    10677    4              END;

     2697    10678    3           ALTRETURN;

  10678  3 001423   200246 221300                    LDX1  ! LOAD_FLAGS+2,,AUTO
         3 001424   000000 702211                    TSX2  ! 0,X1

  10676  3 001425                       OALLOC_FAIL* null
  10676  3 001425                       OFREE_FAILED null
  10676  3 001425                       ERASE_COMMA* null
     2698    10679
     2699    10680
     2700    10681    3   OALLOC_FAILED: ;
     2701    10682    3   OFREE_FAILED: ;
     2702    10683    3   ERASE_COMMAND_WINDOW_FAILED: ;
     2703    10684    3           ALTRETURN;

  10684  3 001425   200246 221300                    LDX1  ! LOAD_FLAGS+2,,AUTO
         3 001426   000000 702211                    TSX2  ! 0,X1

     2704    10685
     2705    10686    3   END READ_FROM_ME;
     2706    10687
     2707    10688
     2708    10689                %BOX (TITLE=POP_STACK_AND_POSTN);

             10701    3   /***************************************************************************
             10703    3    *                                                                         *
PL6.E3A0      #003=VDI$PGET_COMMAND_RECORD File=VDI$PARSE.:VDA5TSI               FRI 07/04/97 11:34 Page:345
             10707    3            *                            POP_STACK_AND_POSTN                         *
             10709    3            *                                                                        *
             10711    3          ***************************************************************************/

     2709    10715
     2710    10716        /*I** NAME: POP_STACK_AND_POSTN
     2711    10717            PARAMETERS:
     2712    10718                None.
     2713    10719            INPUT:
     2714    10720                CMD$STREAM - VD$CMD_STREAM at the top of the stack.
     2715    10721            OUTPUT:
     2716    10722                VD_6E.CMD_STREAM$ will be modified.  At exit, it will always
     2717    10723                    point to a VD$CMD_STREAM for what is now the current
     2718    10724                    command stream.
     2719    10725            DESCRIPTION:
     2720    10726               If eof is reached on the primary command stream, terminate 6EDIT.
     2721    10727               Otherwise:
     2722    10728                Close/free the top entry of the command stream stack and
     2723    10729                    pop the stack.
     2724    10730                If the stack is now empty, push an entry for the command window.
     2725    10731                If the top entry on the stack is now a READ-file, open the
     2726    10732                    file and position it to where we left off.
     2727    10733        */
     2728    10734
     2729    10735    2   POP_STACK_AND_POSTN: PROC ALTRET;

  10735  3 001427   200236 741300       POP_STACK_A* STX1  ! @REPL+1,,AUTO

     2730    10736
     2731    10737
     2732    10738    3   DCL I UBIN;
     2733    10739    3   DCL SINK$ PTR;
     2734    10740
     2735    10741
     2736    10742
     2737    10743    4           IF CMD$STREAM.TYPE# = %CS_ME THEN DO;

PL6.E3A0      #003=VDI$PGET_COMMAND_RECORD File=VDI$PARSE.:VDA5TSI               FRI 07/04/97 11:34 Page:346
  10743  3 001430   000026 470400 xsym               LDP0    VD_6E+22
         3 001431   000002 220100                    LDX0    2,,PR0
         3 001432   000002 100003                    CMPX0   2,DU
         3 001433   001440 601000 3                  TNZ     s:10746

     2738    10744    4              CALL VDI$CEND_GLOBAL;    /* Never returns!!! */

  10744  3 001434   000002 631400 xsym               EPPR1   B_VECTNIL+2
         3 001435   000000 701000 xent               TSX1    VDI$CEND_GLOBAL
         3 001436   000000 011000                    NOP     0

     2739    10745    4              END;

  10745  3 001437   001447 710000 3                  TRA     s:10751

     2740    10746    3           ELSE IF CMD$STREAM.TYPE# = %CS_FILE

  10746  3 001440   000003 100003                    CMPX0   3,DU
         3 001441   001444 600000 3                  TZE     s:10748
         3 001442   000004 100003                    CMPX0   4,DU
         3 001443   001447 601000 3                  TNZ     s:10751

     2741    10747    4                OR CMD$STREAM.TYPE# = %CS_DCB THEN DO;

     2742    10748    4                 CALL VDI$PREAD_FILE_CLOSE

  10748  3 001444   000002 631400 xsym               EPPR1   B_VECTNIL+2
         3 001445   000000 701000 xent               TSX1    VDI$PREAD_FILE_CLOSE
         3 001446   001517 702000 3                  TSX2    PREAD_FILE_CLOSE_FAILED

     2743    10749    4                   ALTRET (PREAD_FILE_CLOSE_FAILED);
     2744    10750    4                 END;

     2745    10751    3           CALL VDG$OFREE (CMD$STREAM)

  10751  3 001447   000026 630400 xsym               EPPR0   VD_6E+22
         3 001450   000017 631400 xsym               EPPR1   B_VECTNIL+15
PL6.E3A0      #003=VDI$PGET_COMMAND_RECORD File=VDI$PARSE.:VDA5TSI               FRI 07/04/97 11:34 Page:347
         3 001451   000000 701000 xent               TSX1    VDG$OFREE
         3 001452   001517 702000 3                  TSX2    PREAD_FILE_CLOSE_FAILED

     2746    10752    3             ALTRET (OFREE_FAILED);
     2747    10753
     2748    10754    4           IF VD_6E.CMD_STREAM$ = ADDR(NIL) THEN DO;

  10754  3 001453   000026 236000 xsym               LDQ     VD_6E+22
         3 001454   000001 116000 xsym               CMPQ    B_VECTNIL+1
         3 001455   001471 601000 3                  TNZ     s:10760

     2749    10755    4              CALL VDG$OALLOC (%CLS_CMD_STREAM, SINK$)

  10755  3 001456   200240 630500                    EPPR0   SINK$,,AUTO
         3 001457   200255 450500                    STP0    INTERRUPT_STATE_BEFORE_M$READ+2,,AUTO
         3 001460   000015 236000 4                  LDQ     13
         3 001461   200254 756100                    STQ     INTERRUPT_STATE_BEFORE_M$READ+1,,AUTO
         3 001462   200254 630500                    EPPR0   INTERRUPT_STATE_BEFORE_M$READ+1,,AUTO
         3 001463   000020 631400 xsym               EPPR1   B_VECTNIL+16
         3 001464   000000 701000 xent               TSX1    VDG$OALLOC
         3 001465   001517 702000 3                  TSX2    PREAD_FILE_CLOSE_FAILED

     2750    10756    4                ALTRET (OALLOC_FAILED);
     2751    10757    4              CMD$STREAM.TYPE# = %CS_ME;

  10757  3 001466   000002 220003                    LDX0    2,DU
         3 001467   000026 470400 xsym               LDP0    VD_6E+22
         3 001470   000002 740100                    STX0    2,,PR0

     2752    10758    4              END;

     2753    10759
     2754    10760    3           IF CMD$STREAM.TYPE# = %CS_FILE

  10760  3 001471   000026 470400 xsym               LDP0    VD_6E+22
         3 001472   000002 220100                    LDX0    2,,PR0
         3 001473   000003 100003                    CMPX0   3,DU
PL6.E3A0      #003=VDI$PGET_COMMAND_RECORD File=VDI$PARSE.:VDA5TSI               FRI 07/04/97 11:34 Page:348
         3 001474   001477 600000 3                  TZE     s:10762
         3 001475   000004 100003                    CMPX0   4,DU
         3 001476   001510 601000 3                  TNZ     s:10771

     2755    10761    4             OR CMD$STREAM.TYPE# = %CS_DCB THEN DO;

     2756    10762    4              CALL VDI$PREAD_FILE_CLOSE

  10762  3 001477   000002 631400 xsym               EPPR1   B_VECTNIL+2
         3 001500   000000 701000 xent               TSX1    VDI$PREAD_FILE_CLOSE
         3 001501   001517 702000 3                  TSX2    PREAD_FILE_CLOSE_FAILED

     2757    10763    4                ALTRET (PREAD_FILE_CLOSE_FAILED);
     2758    10764    4              CALL VDI$PREAD_FILE_OPEN

  10764  3 001502   000002 631400 xsym               EPPR1   B_VECTNIL+2
         3 001503   000000 701000 xent               TSX1    VDI$PREAD_FILE_OPEN
         3 001504   001517 702000 3                  TSX2    PREAD_FILE_CLOSE_FAILED

     2759    10765    4                ALTRET (PREAD_FILE_OPEN_FAILED);
     2760    10766    4              CALL VDI$PREAD_FILE_POSITION

  10766  3 001505   000002 631400 xsym               EPPR1   B_VECTNIL+2
         3 001506   000000 701000 xent               TSX1    VDI$PREAD_FILE_POSITION
         3 001507   001512 702000 3                  TSX2    PREAD_FILE_POSITION_FAILED

     2761    10767    4                ALTRET (PREAD_FILE_POSITION_FAILED);
     2762    10768
     2763    10769    4              END;

     2764    10770
     2765    10771    3           RETURN;

  10771  3 001510   200236 221300                    LDX1  ! @REPL+1,,AUTO
         3 001511   000001 702211                    TSX2  ! 1,X1

     2766    10772
PL6.E3A0      #003=VDI$PGET_COMMAND_RECORD File=VDI$PARSE.:VDA5TSI               FRI 07/04/97 11:34 Page:349
     2767    10773
     2768    10774
     2769    10775    3   PREAD_FILE_POSITION_FAILED:
     2770    10776    3           CALL VDI$PREAD_FILE_CLOSE;

  10776  3 001512   000002 631400 xsym  PREAD_FILE_* EPPR1   B_VECTNIL+2
         3 001513   000000 701000 xent               TSX1    VDI$PREAD_FILE_CLOSE
         3 001514   000000 011000                    NOP     0

     2771    10777    3           ALTRETURN;

  10777  3 001515   200236 221300                    LDX1  ! @REPL+1,,AUTO
         3 001516   000000 702211                    TSX2  ! 0,X1

  10760  3 001517                       PREAD_FILE_* null
     2772    10778
     2773    10779
     2774    10780    3   PREAD_FILE_CLOSE_FAILED: ;
     2775    10781    3   OFREE_FAILED: ;

  10781  3 001517                       OFREE_FAILED null
  10781  3 001517                       OALLOC_FAIL* null
  10781  3 001517                       PREAD_FILE_* null
     2776    10782    3   OALLOC_FAILED: ;
     2777    10783    3   PREAD_FILE_OPEN_FAILED: ;
     2778    10784    3           ALTRETURN;

  10784  3 001517   200236 221300                    LDX1  ! @REPL+1,,AUTO
         3 001520   000000 702211                    TSX2  ! 0,X1

     2779    10785
     2780    10786    3   END POP_STACK_AND_POSTN;
     2781    10787
     2782    10788    2   END READ_COMMAND_RECORD;
     2783    10789
     2784    10790
     2785    10791                %BOX (TITLE="FIND_TOKEN and FIND_FID", PAGE=YES);
PL6.E3A0      #003=VDI$PGET_COMMAND_RECORD File=VDI$PARSE.:VDA5TSI               FRI 07/04/97 11:34 Page:350
             10799    2
             10803    2   /***************************************************************************
             10805    2    *                                                                         *
             10809    2            *                          FIND_TOKEN and FIND_FID                       *
             10811    2            *                                                                        *
             10813    2          ***************************************************************************/

     2786    10817
     2787    10818        /*I* NAME: FIND_TOKEN and FIND_FID
     2788    10819            PARAMETERS:
     2789    10820                SCAN_INDEX - Index into CMD$RECORD.BYTES of next char to scan
     2790    10821                    for token.
     2791    10822                TOKEN - Unintialized VD$TEXTC_REMOTE with MXNB = %MXNB_NAME_VALUE.
     2792    10823            INPUT:
     2793    10824                CMD$RECORD - VD$BUFFER containing the command record.
     2794    10825                D$STRING - Based VD$BUFFER containing the current string
     2795    10826                    which is used to delimit string literals (that is,
     2796    10827                    the value of the $STRING predefined name).
     2797    10828            OUTPUT:
     2798    10829                If we don't find any more tokens/fids in the command record:
     2799    10830                    SCAN_INDEX will contain CMD$RECORD.LENGTH#.
     2800    10831                    TOKEN.LENGTH# will be 0.
     2801    10832                If we do find another token/fid in the command record:
     2802    10833                    SCAN_INDEX will contain the index into CMD$RECORD.BYTES
     2803    10834                        of the found token/fid.
     2804    10835                    TOKEN.LENGTH# will contain the length of the found token/fid.
     2805    10836                    TOKEN.BYTES will contain the found token/fid.
     2806    10837            DESCRIPTION:
     2807    10838                Starting at SCAN_INDEX, scan CMD$RECORD.BYTES for the next
     2808    10839                    non-literal token or for the next fid.
     2809    10840                If we find a literal number or string, skip it.
     2810    10841                If we find a comment, skip it.
     2811    10842                If we don't find any more non-literal tokens or fids in
     2812    10843                    CMD$RECORD.BYTES, return with SCAN_INDEX pointing to the
     2813    10844                    end of CMD$RECORD.BYTES.
     2814    10845        */
     2815    10846
PL6.E3A0      #003=VDI$PGET_COMMAND_RECORD File=VDI$PARSE.:VDA5TSI               FRI 07/04/97 11:34 Page:351
     2816    10847    1   FIND_TOKEN: PROC (SCAN_INDEX, TOKEN) ALTRET;

  10847  3 001521   200232 741300       FIND_TOKEN   STX1  ! VD_ERR$+1,,AUTO

     2817    10848    2   DCL SCAN_INDEX UBIN;
     2818    10849        %VD_TEXTC_REMOTE (NAME=TOKEN, STCLASS=PARAM, MXNB=%MXNB_NAME_VALUE);
     2819    10912
     2820    10913
     2821    10914    2   DCL 1 XLATE_FID_CHAR_CLASS ALIGNED CONSTANT,
     2822    10915    2         2 * (0:511) UBIN BYTE CALIGNED INIT(
     2823    10916    2       %CCL_WHSP * %ASCBIN(CHR_SPACE),                 /* 000 - 037 */
     2824    10917    2       %CCL_WHSP, %CCL_RES, %CCL_RES, %CCL_NAME,       /* 040 - 043 */
     2825    10918    2       %CCL_NAME, %CCL_RES, %CCL_RES, %CCL_RES,        /* 044 - 047 */
     2826    10919    2       %CCL_RES, %CCL_RES, %CCL_NAME, %CCL_RES,        /* 050 - 053 */
     2827    10920    2       %CCL_RES, %CCL_NAME, %CCL_NAME, %CCL_NAME,      /* 054 - 057 */
     2828    10921    2       %CCL_NAME, %CCL_NAME, %CCL_NAME, %CCL_NAME,     /* 060 - 063 */
     2829    10922    2       %CCL_NAME, %CCL_NAME, %CCL_NAME, %CCL_NAME,     /* 064 - 067 */
     2830    10923    2       %CCL_NAME, %CCL_NAME, %CCL_NAME, %CCL_RES,      /* 070 - 073 */
     2831    10924    2       %CCL_RES, %CCL_RES, %CCL_RES, %CCL_NAME,        /* 074 - 077 */
     2832    10925    2       %CCL_NAME, %CCL_NAME, %CCL_NAME, %CCL_NAME,     /* 100 - 103 */
     2833    10926    2       %CCL_NAME, %CCL_NAME, %CCL_NAME, %CCL_NAME,     /* 104 - 107 */
     2834    10927    2       %CCL_NAME, %CCL_NAME, %CCL_NAME, %CCL_NAME,     /* 110 - 113 */
     2835    10928    2       %CCL_NAME, %CCL_NAME, %CCL_NAME, %CCL_NAME,     /* 114 - 117 */
     2836    10929    2       %CCL_NAME, %CCL_NAME, %CCL_NAME, %CCL_NAME,     /* 120 - 123 */
     2837    10930    2       %CCL_NAME, %CCL_NAME, %CCL_NAME, %CCL_NAME,     /* 124 - 127 */
     2838    10931    2       %CCL_NAME, %CCL_NAME, %CCL_NAME, %CCL_RES,      /* 130 - 133 */
     2839    10932    2       %CCL_RES, %CCL_RES, %CCL_RES, %CCL_NAME,        /* 134 - 137 */
     2840    10933    2       %CCL_RES, %CCL_NAME, %CCL_NAME, %CCL_NAME,      /* 140 - 143 */
     2841    10934    2       %CCL_NAME, %CCL_NAME, %CCL_NAME, %CCL_NAME,     /* 144 - 147 */
     2842    10935    2       %CCL_NAME, %CCL_NAME, %CCL_NAME, %CCL_NAME,     /* 150 - 153 */
     2843    10936    2       %CCL_NAME, %CCL_NAME, %CCL_NAME, %CCL_NAME,     /* 154 - 157 */
     2844    10937    2       %CCL_NAME, %CCL_NAME, %CCL_NAME, %CCL_NAME,     /* 160 - 163 */
     2845    10938    2       %CCL_NAME, %CCL_NAME, %CCL_NAME, %CCL_NAME,     /* 164 - 167 */
     2846    10939    2       %CCL_NAME, %CCL_NAME, %CCL_NAME, %CCL_RES,      /* 170 - 173 */
     2847    10940    2       %CCL_RES, %CCL_RES, %CCL_RES, %CCL_WHSP,        /* 174 - 177 */
     2848    10941    2       %CCL_WHSP*0);                                   /* 200 - 777 */
     2849    10942
PL6.E3A0      #003=VDI$PGET_COMMAND_RECORD File=VDI$PARSE.:VDA5TSI               FRI 07/04/97 11:34 Page:352
     2850    10943
     2851    10944
     2852    10945    2   DCL CLASS UBIN;
     2853    10946    2   DCL CLASS_TABLE$ PTR;
     2854    10947
     2855    10948
     2856    10949    2   DCL 1 CLASS$TABLE ALIGNED BASED(CLASS_TABLE$),
     2857    10950    2         2 C (0:0) UBIN BYTE CALIGNED;
     2858    10951
     2859    10952
     2860    10953
     2861    10954    2           CLASS_TABLE$ = ADDR(VD_XLATE_CHAR_CLASS);

  10954  3 001522   000016 236000 4                  LDQ     14
         3 001523   200236 756100                    STQ     CLASS_TABLE$,,AUTO

     2862    10955    2           GOTO COMMON_ENTRY;

  10955  3 001524   001530 710000 3                  TRA     COMMON_ENTRY

     2863    10956
     2864    10957
     2865    10958    2   FIND_FID: ENTRY (SCAN_INDEX, TOKEN) ALTRET;

  10958  3 001525   200232 741300       FIND_FID     STX1  ! VD_ERR$+1,,AUTO

     2866    10959    2           CLASS_TABLE$ = ADDR(XLATE_FID_CHAR_CLASS);

  10959  3 001526   000017 236000 4                  LDQ     15
         3 001527   200236 756100                    STQ     CLASS_TABLE$,,AUTO

     2867    10960
     2868    10961
     2869    10962    2   COMMON_ENTRY:
     2870    10963    2           TOKEN.LENGTH# = 0;

  10963  3 001530   200234 470500       COMMON_ENTRY LDP0    @TOKEN,,AUTO
PL6.E3A0      #003=VDI$PGET_COMMAND_RECORD File=VDI$PARSE.:VDA5TSI               FRI 07/04/97 11:34 Page:353
         3 001531   000000 236003                    LDQ     0,DU
         3 001532   000002 552140                    STBQ    2,'40'O,PR0

     2871    10964
     2872    10965    2   LOOK_FOR_RETURNABLE_TOKEN:
     2873    10966    3           DO WHILE (SCAN_INDEX < CMD$RECORD.LENGTH#);

  10966  3 001533   200233 471500       LOOK_FOR_RE* LDP1    @SCAN_INDEX,,AUTO
         3 001534   200012 473500                    LDP3    CMD_RECORD$,,AUTO
         3 001535   300002 236100                    LDQ     2,,PR3
         3 001536   000022 732000                    QRS     18
         3 001537   002136 604000 3                  TMI     s:11034
         3 001540   100000 116100                    CMPQ    0,,PR1
         3 001541   002136 602000 3                  TNC     s:11034
         3 001542   002136 600000 3                  TZE     s:11034

     2874    10967    3              IF SCAN_INDEX <= (CMD$RECORD.LENGTH# - D$STRING.LENGTH#)

  10967  3 001543   000004 470400 1                  LDP0    PTR_$STRING$
         3 001544   000002 236100                    LDQ     2,,PR0
         3 001545   000022 732000                    QRS     18
         3 001546   200254 756100                    STQ     INTERRUPT_STATE_BEFORE_M$READ+1,,AUTO
         3 001547   200012 471500                    LDP1    CMD_RECORD$,,AUTO
         3 001550   100002 236100                    LDQ     2,,PR1
         3 001551   000022 732000                    QRS     18
         3 001552   200254 136100                    SBLQ    INTERRUPT_STATE_BEFORE_M$READ+1,,AUTO
         3 001553   200233 473500                    LDP3    @SCAN_INDEX,,AUTO
         3 001554   001574 604000 3                  TMI     s:10973
         3 001555   300000 116100                    CMPQ    0,,PR3
         3 001556   001574 602000 3                  TNC     s:10973
         3 001557   100002 220100                    LDX0    2,,PR1
         3 001560   300000 235100                    LDA     0,,PR3
         3 001561   000002 221100                    LDX1    2,,PR0
         3 001562   000002 222100                    LDX2    2,,PR0
         3 001563   040140 106545                    CMPC    fill='040'O
         3 001564   100002 400011                    ADSC9   2,A,PR1                  cn=2,n=*X1
         3 001565   000002 400012                    ADSC9   2,,PR0                   cn=2,n=*X2
PL6.E3A0      #003=VDI$PGET_COMMAND_RECORD File=VDI$PARSE.:VDA5TSI               FRI 07/04/97 11:34 Page:354
         3 001566   001574 601000 3                  TNZ     s:10973

     2875    10968    3                AND SUBSTR(CMD$RECORD.BYTES, SCAN_INDEX, D$STRING.LENGTH#) =
     2876    10969    4                D$STRING.BYTES THEN DO;

     2877    10970    4                 CALL SKIP_STRING_LITERAL (SCAN_INDEX)

  10970  3 001567   200233 236100                    LDQ     @SCAN_INDEX,,AUTO
         3 001570   200241 756100                    STQ     IT_COMMAND$,,AUTO
         3 001571   002547 701000 3                  TSX1    SKIP_STRING_LITERAL
         3 001572   002140 702000 3                  TSX2    SKIP_STRING_LITERAL_FAILED

     2878    10971    4                   ALTRET (SKIP_STRING_LITERAL_FAILED);
     2879    10972    4                 END;

  10972  3 001573   002126 710000 3                  TRA     s:11032

     2880    10973    3              ELSE IF VD$COMMENT.LENGTH# > 0

  10973  3 001574   000000 474400 1                  LDP4    PTR_$COMMENT$
         3 001575   400002 220100                    LDX0    2,,PR4
         3 001576   001642 604400 3                  TMOZ    s:10982
         3 001577   400002 236100                    LDQ     2,,PR4
         3 001600   000022 732000                    QRS     18
         3 001601   200254 756100                    STQ     INTERRUPT_STATE_BEFORE_M$READ+1,,AUTO
         3 001602   100002 236100                    LDQ     2,,PR1
         3 001603   000022 732000                    QRS     18
         3 001604   200254 136100                    SBLQ    INTERRUPT_STATE_BEFORE_M$READ+1,,AUTO
         3 001605   001642 604000 3                  TMI     s:10982
         3 001606   300000 116100                    CMPQ    0,,PR3
         3 001607   001642 602000 3                  TNC     s:10982
         3 001610   100002 220100                    LDX0    2,,PR1
         3 001611   300000 235100                    LDA     0,,PR3
         3 001612   400002 221100                    LDX1    2,,PR4
         3 001613   400002 222100                    LDX2    2,,PR4
         3 001614   040140 106545                    CMPC    fill='040'O
         3 001615   100002 400011                    ADSC9   2,A,PR1                  cn=2,n=*X1
PL6.E3A0      #003=VDI$PGET_COMMAND_RECORD File=VDI$PARSE.:VDA5TSI               FRI 07/04/97 11:34 Page:355
         3 001616   400002 400012                    ADSC9   2,,PR4                   cn=2,n=*X2
         3 001617   001642 601000 3                  TNZ     s:10982

     2881    10974    3                   AND SCAN_INDEX <= (CMD$RECORD.LENGTH# - VD$COMMENT.LENGTH#)
     2882    10975    3                   AND SUBSTR(CMD$RECORD.BYTES, SCAN_INDEX, VD$COMMENT.LENGTH#) =
     2883    10976    4                   VD$COMMENT.BYTES THEN DO;

     2884    10977    4                    CALL INDEX (SCAN_INDEX, VD$COMMENT.BYTES,

  10977  3 001620   400002 236100                    LDQ     2,,PR4
         3 001621   000022 732000                    QRS     18
         3 001622   300000 036100                    ADLQ    0,,PR3
         3 001623   300000 631500                    EPPR1   0,,PR3
         3 001624   400000 633500                    EPPR3   0,,PR4
         3 001625   000012 221003                    LDX1    10,DU
         3 001626   300000 500511                    A9BD    0,X1,PR3
         3 001627   000000 623012                    EAX3    0,X2
         3 001630   200012 470500                    LDP0    CMD_RECORD$,,AUTO
         3 001631   000000 500511                    A9BD    0,X1,PR0
         3 001632   000000 701000 xent               TSX1    X66_INDEX
         3 001633   000000 011000                    NOP     0

     2885    10978    4                      CMD$RECORD.BYTES, SCAN_INDEX + VD$COMMENT.LENGTH#);
     2886    10979    4                    SCAN_INDEX = SCAN_INDEX + VD$COMMENT.LENGTH#;

  10979  3 001634   200233 470500                    LDP0    @SCAN_INDEX,,AUTO
         3 001635   400002 236100                    LDQ     2,,PR4
         3 001636   000022 732000                    QRS     18
         3 001637   000000 036100                    ADLQ    0,,PR0
         3 001640   000000 756100                    STQ     0,,PR0

     2887    10980    4                    END;

  10980  3 001641   002126 710000 3                  TRA     s:11032

     2888    10981    4                 ELSE DO;

PL6.E3A0      #003=VDI$PGET_COMMAND_RECORD File=VDI$PARSE.:VDA5TSI               FRI 07/04/97 11:34 Page:356
     2889    10982    4                    CLASS = CLASS$TABLE.C

  10982  3 001642   100002 220100                    LDX0    2,,PR1
         3 001643   300000 235100                    LDA     0,,PR3
         3 001644   000100 101505                    MRL     fill='000'O
         3 001645   100002 400001                    ADSC9   2,A,PR1                  cn=2,n=1
         3 001646   200254 000004                    ADSC9   INTERRUPT_STATE_BEFORE_M$READ+1,,AUTO cn=0,n=4
         3 001647   200254 236100                    LDQ     INTERRUPT_STATE_BEFORE_M$READ+1,,AUTO
         3 001650   200236 475500                    LDP5    CLASS_TABLE$,,AUTO
         3 001651   000100 101506                    MRL     fill='000'O
         3 001652   500000 000001                    ADSC9   0,Q,PR5                  cn=0,n=1
         3 001653   200235 000004                    ADSC9   CLASS,,AUTO              cn=0,n=4

     2890    10983    4                      (ASCBIN (SUBSTR (CMD$RECORD.BYTES, SCAN_INDEX, 1)));
     2891    10984
     2892    10985    5                    DO CASE (CLASS);

  10985  3 001654   200235 235100                    LDA     CLASS,,AUTO
         3 001655   000006 115007                    CMPA    6,DL
         3 001656   001660 602005 3                  TNC     s:10985+4,AL
         3 001657   002116 710000 3                  TRA     s:11028
         3 001660   001734 710000 3                  TRA     s:10998
         3 001661   001740 710000 3                  TRA     s:11001
         3 001662   001666 710000 3                  TRA     s:10988
         3 001663   001734 710000 3                  TRA     s:10998
         3 001664   001666 710000 3                  TRA     s:10988
         3 001665   002025 710000 3                  TRA     s:11015

     2893    10986
     2894    10987    5                     CASE (%CCL_NUM, %CCL_DOT);

     2895    10988    5                       SCAN_INDEX = SCAN_INDEX + 1;

  10988  3 001666   300000 235100                    LDA     0,,PR3
         3 001667   000001 035007                    ADLA    1,DL
         3 001670   300000 755100                    STA     0,,PR3

PL6.E3A0      #003=VDI$PGET_COMMAND_RECORD File=VDI$PARSE.:VDA5TSI               FRI 07/04/97 11:34 Page:357
     2896    10989    6                       DO WHILE (SCAN_INDEX < CMD$RECORD.LENGTH#)

  10989  3 001671   001716 710000 3                  TRA     s:10995

     2897    10990    6                         AND (CLASS = %CCL_NUM OR CLASS = %CCL_DOT);
     2898    10991    6                          CLASS = CLASS$TABLE.C

  10991  3 001672   200012 470500                    LDP0    CMD_RECORD$,,AUTO
         3 001673   000002 220100                    LDX0    2,,PR0
         3 001674   200233 471500                    LDP1    @SCAN_INDEX,,AUTO
         3 001675   100000 235100                    LDA     0,,PR1
         3 001676   000100 101505                    MRL     fill='000'O
         3 001677   000002 400001                    ADSC9   2,A,PR0                  cn=2,n=1
         3 001700   200254 000004                    ADSC9   INTERRUPT_STATE_BEFORE_M$READ+1,,AUTO cn=0,n=4
         3 001701   200254 236100                    LDQ     INTERRUPT_STATE_BEFORE_M$READ+1,,AUTO
         3 001702   200236 473500                    LDP3    CLASS_TABLE$,,AUTO
         3 001703   000100 101506                    MRL     fill='000'O
         3 001704   300000 000001                    ADSC9   0,Q,PR3                  cn=0,n=1
         3 001705   200235 000004                    ADSC9   CLASS,,AUTO              cn=0,n=4

     2899    10992    6                            (ASCBIN (SUBSTR (CMD$RECORD.BYTES, SCAN_INDEX, 1)));
     2900    10993    6                          IF CLASS = %CCL_NUM OR CLASS = %CCL_DOT THEN

  10993  3 001706   200235 235100                    LDA     CLASS,,AUTO
         3 001707   000004 115007                    CMPA    4,DL
         3 001710   001713 600000 3                  TZE     s:10994
         3 001711   000002 115007                    CMPA    2,DL
         3 001712   001716 601000 3                  TNZ     s:10995

     2901    10994    6                             SCAN_INDEX = SCAN_INDEX + 1;

  10994  3 001713   100000 235100                    LDA     0,,PR1
         3 001714   000001 035007                    ADLA    1,DL
         3 001715   100000 755100                    STA     0,,PR1

     2902    10995    6                          END;

PL6.E3A0      #003=VDI$PGET_COMMAND_RECORD File=VDI$PARSE.:VDA5TSI               FRI 07/04/97 11:34 Page:358
  10995  3 001716   200233 470500                    LDP0    @SCAN_INDEX,,AUTO
         3 001717   200012 471500                    LDP1    CMD_RECORD$,,AUTO
         3 001720   100002 236100                    LDQ     2,,PR1
         3 001721   000022 732000                    QRS     18
         3 001722   001733 604000 3                  TMI     s:10995+13
         3 001723   000000 116100                    CMPQ    0,,PR0
         3 001724   001733 602000 3                  TNC     s:10995+13
         3 001725   001733 600000 3                  TZE     s:10995+13
         3 001726   200235 235100                    LDA     CLASS,,AUTO
         3 001727   000004 115007                    CMPA    4,DL
         3 001730   001672 600000 3                  TZE     s:10991
         3 001731   000002 115007                    CMPA    2,DL
         3 001732   001672 600000 3                  TZE     s:10991
         3 001733   002126 710000 3                  TRA     s:11032

     2903    10996
     2904    10997    5                     CASE (%CCL_WHSP, %CCL_RES);

     2905    10998    5                       SCAN_INDEX = SCAN_INDEX + 1;

  10998  3 001734   300000 235100                    LDA     0,,PR3
         3 001735   000001 035007                    ADLA    1,DL
         3 001736   300000 755100                    STA     0,,PR3
         3 001737   002126 710000 3                  TRA     s:11032

     2906    10999
     2907    11000    5                     CASE (%CCL_SPEC);

     2908    11001    5                       TOKEN.LENGTH# = 1;

  11001  3 001740   200234 476500                    LDP6    @TOKEN,,AUTO
         3 001741   001000 236003                    LDQ     512,DU
         3 001742   600002 552140                    STBQ    2,'40'O,PR6

     2909    11002    6                       DO WHILE (SCAN_INDEX + TOKEN.LENGTH# < CMD$RECORD.LENGTH#)

  11002  3 001743   001771 710000 3                  TRA     s:11009
PL6.E3A0      #003=VDI$PGET_COMMAND_RECORD File=VDI$PARSE.:VDA5TSI               FRI 07/04/97 11:34 Page:359

     2910    11003    6                         AND (CLASS = %CCL_SPEC);
     2911    11004    6                          CLASS = CLASS$TABLE.C (ASCBIN

  11004  3 001744   200012 470500                    LDP0    CMD_RECORD$,,AUTO
         3 001745   000002 220100                    LDX0    2,,PR0
         3 001746   200233 471500                    LDP1    @SCAN_INDEX,,AUTO
         3 001747   200234 473500                    LDP3    @TOKEN,,AUTO
         3 001750   300002 236100                    LDQ     2,,PR3
         3 001751   000033 772000                    QRL     27
         3 001752   100000 036100                    ADLQ    0,,PR1
         3 001753   000100 101506                    MRL     fill='000'O
         3 001754   000002 400001                    ADSC9   2,Q,PR0                  cn=2,n=1
         3 001755   200254 000004                    ADSC9   INTERRUPT_STATE_BEFORE_M$READ+1,,AUTO cn=0,n=4
         3 001756   200254 236100                    LDQ     INTERRUPT_STATE_BEFORE_M$READ+1,,AUTO
         3 001757   200236 474500                    LDP4    CLASS_TABLE$,,AUTO
         3 001760   000100 101506                    MRL     fill='000'O
         3 001761   400000 000001                    ADSC9   0,Q,PR4                  cn=0,n=1
         3 001762   200235 000004                    ADSC9   CLASS,,AUTO              cn=0,n=4

     2912    11005    6                            (SUBSTR(CMD$RECORD.BYTES, SCAN_INDEX + TOKEN.LENGTH#,
     2913    11006    6                            1)));
     2914    11007    6                          IF CLASS = %CCL_SPEC THEN

  11007  3 001763   200235 235100                    LDA     CLASS,,AUTO
         3 001764   000001 115007                    CMPA    1,DL
         3 001765   001771 601000 3                  TNZ     s:11009

     2915    11008    6                             TOKEN.LENGTH# = TOKEN.LENGTH# + 1;

  11008  3 001766   300002 236100                    LDQ     2,,PR3
         3 001767   001000 036003                    ADLQ    512,DU
         3 001770   300002 552140                    STBQ    2,'40'O,PR3

     2916    11009    6                          END;

  11009  3 001771   200233 470500                    LDP0    @SCAN_INDEX,,AUTO
PL6.E3A0      #003=VDI$PGET_COMMAND_RECORD File=VDI$PARSE.:VDA5TSI               FRI 07/04/97 11:34 Page:360
         3 001772   200234 471500                    LDP1    @TOKEN,,AUTO
         3 001773   100002 236100                    LDQ     2,,PR1
         3 001774   000033 772000                    QRL     27
         3 001775   000000 036100                    ADLQ    0,,PR0
         3 001776   200012 473500                    LDP3    CMD_RECORD$,,AUTO
         3 001777   200254 756100                    STQ     INTERRUPT_STATE_BEFORE_M$READ+1,,AUTO
         3 002000   300002 236100                    LDQ     2,,PR3
         3 002001   000022 732000                    QRS     18
         3 002002   200255 756100                    STQ     INTERRUPT_STATE_BEFORE_M$READ+2,,AUTO
         3 002003   200254 236100                    LDQ     INTERRUPT_STATE_BEFORE_M$READ+1,,AUTO
         3 002004   002012 604000 3                  TMI     s:11010
         3 002005   200255 116100                    CMPQ    INTERRUPT_STATE_BEFORE_M$READ+2,,AUTO
         3 002006   002012 605000 3                  TPL     s:11010
         3 002007   200235 235100                    LDA     CLASS,,AUTO
         3 002010   000001 115007                    CMPA    1,DL
         3 002011   001744 600000 3                  TZE     s:11004

     2917    11010    5                       TOKEN.BYTES = SUBSTR(CMD$RECORD.BYTES, SCAN_INDEX,

  11010  3 002012   100002 236100                    LDQ     2,,PR1
         3 002013   000033 772000                    QRL     27
         3 002014   300002 220100                    LDX0    2,,PR3
         3 002015   000000 235100                    LDA     0,,PR0
         3 002016   000000 621006                    EAX1    0,QL
         3 002017   000000 622006                    EAX2    0,QL
         3 002020   040140 100545                    MLR     fill='040'O
         3 002021   300002 400012                    ADSC9   2,A,PR3                  cn=2,n=*X2
         3 002022   100002 200011                    ADSC9   2,,PR1                   cn=1,n=*X1

     2918    11011    5                         TOKEN.LENGTH#);
     2919    11012    5                       RETURN;

  11012  3 002023   200232 221300                    LDX1  ! VD_ERR$+1,,AUTO
         3 002024   000001 702211                    TSX2  ! 1,X1

     2920    11013
     2921    11014    5                     CASE (%CCL_NAME);
PL6.E3A0      #003=VDI$PGET_COMMAND_RECORD File=VDI$PARSE.:VDA5TSI               FRI 07/04/97 11:34 Page:361

     2922    11015    5                       TOKEN.LENGTH# = 1;

  11015  3 002025   200234 476500                    LDP6    @TOKEN,,AUTO
         3 002026   001000 236003                    LDQ     512,DU
         3 002027   600002 552140                    STBQ    2,'40'O,PR6

     2923    11016    6                       DO WHILE (SCAN_INDEX + TOKEN.LENGTH# < CMD$RECORD.LENGTH#)

  11016  3 002030   002060 710000 3                  TRA     s:11022

     2924    11017    6                         AND (CLASS = %CCL_NAME OR CLASS = %CCL_NUM);
     2925    11018    6                          CLASS = CLASS$TABLE.C (ASCBIN(SUBSTR

  11018  3 002031   200012 470500                    LDP0    CMD_RECORD$,,AUTO
         3 002032   000002 220100                    LDX0    2,,PR0
         3 002033   200233 471500                    LDP1    @SCAN_INDEX,,AUTO
         3 002034   200234 473500                    LDP3    @TOKEN,,AUTO
         3 002035   300002 236100                    LDQ     2,,PR3
         3 002036   000033 772000                    QRL     27
         3 002037   100000 036100                    ADLQ    0,,PR1
         3 002040   000100 101506                    MRL     fill='000'O
         3 002041   000002 400001                    ADSC9   2,Q,PR0                  cn=2,n=1
         3 002042   200254 000004                    ADSC9   INTERRUPT_STATE_BEFORE_M$READ+1,,AUTO cn=0,n=4
         3 002043   200254 236100                    LDQ     INTERRUPT_STATE_BEFORE_M$READ+1,,AUTO
         3 002044   200236 474500                    LDP4    CLASS_TABLE$,,AUTO
         3 002045   000100 101506                    MRL     fill='000'O
         3 002046   400000 000001                    ADSC9   0,Q,PR4                  cn=0,n=1
         3 002047   200235 000004                    ADSC9   CLASS,,AUTO              cn=0,n=4

     2926    11019    6                            (CMD$RECORD.BYTES, SCAN_INDEX + TOKEN.LENGTH#, 1)));
     2927    11020    6                          IF CLASS = %CCL_NAME OR CLASS = %CCL_NUM THEN

  11020  3 002050   200235 235100                    LDA     CLASS,,AUTO
         3 002051   000005 115007                    CMPA    5,DL
         3 002052   002055 600000 3                  TZE     s:11021
         3 002053   000004 115007                    CMPA    4,DL
PL6.E3A0      #003=VDI$PGET_COMMAND_RECORD File=VDI$PARSE.:VDA5TSI               FRI 07/04/97 11:34 Page:362
         3 002054   002060 601000 3                  TNZ     s:11022

     2928    11021    6                             TOKEN.LENGTH# = TOKEN.LENGTH# + 1;

  11021  3 002055   300002 236100                    LDQ     2,,PR3
         3 002056   001000 036003                    ADLQ    512,DU
         3 002057   300002 552140                    STBQ    2,'40'O,PR3

     2929    11022    6                          END;

  11022  3 002060   200233 470500                    LDP0    @SCAN_INDEX,,AUTO
         3 002061   200234 471500                    LDP1    @TOKEN,,AUTO
         3 002062   100002 236100                    LDQ     2,,PR1
         3 002063   000033 772000                    QRL     27
         3 002064   000000 036100                    ADLQ    0,,PR0
         3 002065   200012 473500                    LDP3    CMD_RECORD$,,AUTO
         3 002066   200254 756100                    STQ     INTERRUPT_STATE_BEFORE_M$READ+1,,AUTO
         3 002067   300002 236100                    LDQ     2,,PR3
         3 002070   000022 732000                    QRS     18
         3 002071   200255 756100                    STQ     INTERRUPT_STATE_BEFORE_M$READ+2,,AUTO
         3 002072   200254 236100                    LDQ     INTERRUPT_STATE_BEFORE_M$READ+1,,AUTO
         3 002073   002103 604000 3                  TMI     s:11023
         3 002074   200255 116100                    CMPQ    INTERRUPT_STATE_BEFORE_M$READ+2,,AUTO
         3 002075   002103 605000 3                  TPL     s:11023
         3 002076   200235 235100                    LDA     CLASS,,AUTO
         3 002077   000005 115007                    CMPA    5,DL
         3 002100   002031 600000 3                  TZE     s:11018
         3 002101   000004 115007                    CMPA    4,DL
         3 002102   002031 600000 3                  TZE     s:11018

     2930    11023    5                       TOKEN.BYTES = SUBSTR(CMD$RECORD.BYTES, SCAN_INDEX,

  11023  3 002103   100002 236100                    LDQ     2,,PR1
         3 002104   000033 772000                    QRL     27
         3 002105   300002 220100                    LDX0    2,,PR3
         3 002106   000000 235100                    LDA     0,,PR0
         3 002107   000000 621006                    EAX1    0,QL
PL6.E3A0      #003=VDI$PGET_COMMAND_RECORD File=VDI$PARSE.:VDA5TSI               FRI 07/04/97 11:34 Page:363
         3 002110   000000 622006                    EAX2    0,QL
         3 002111   040140 100545                    MLR     fill='040'O
         3 002112   300002 400012                    ADSC9   2,A,PR3                  cn=2,n=*X2
         3 002113   100002 200011                    ADSC9   2,,PR1                   cn=1,n=*X1

     2931    11024    5                         TOKEN.LENGTH#);
     2932    11025    5                       RETURN;

  11025  3 002114   200232 221300                    LDX1  ! VD_ERR$+1,,AUTO
         3 002115   000001 702211                    TSX2  ! 1,X1

     2933    11026
     2934    11027    5                     CASE (ELSE);

     2935    11028    5                       CALL VDG$ESCREECH (CLASS, SCAN_INDEX);

  11028  3 002116   200233 236100                    LDQ     @SCAN_INDEX,,AUTO
         3 002117   200255 756100                    STQ     INTERRUPT_STATE_BEFORE_M$READ+2,,AUTO
         3 002120   200235 636500                    EPPR6   CLASS,,AUTO
         3 002121   200254 456500                    STP6    INTERRUPT_STATE_BEFORE_M$READ+1,,AUTO
         3 002122   200254 630500                    EPPR0   INTERRUPT_STATE_BEFORE_M$READ+1,,AUTO
         3 002123   000020 631400 xsym               EPPR1   B_VECTNIL+16
         3 002124   000000 701000 xent               TSX1    VDG$ESCREECH
         3 002125   000000 011000                    NOP     0

     2936    11029
     2937    11030    5                     END;

     2938    11031    4                    END;

     2939    11032    3              END LOOK_FOR_RETURNABLE_TOKEN;

  11032  3 002126   200233 470500                    LDP0    @SCAN_INDEX,,AUTO
         3 002127   200012 471500                    LDP1    CMD_RECORD$,,AUTO
         3 002130   100002 236100                    LDQ     2,,PR1
         3 002131   000022 732000                    QRS     18
         3 002132   002136 604000 3                  TMI     s:11034
PL6.E3A0      #003=VDI$PGET_COMMAND_RECORD File=VDI$PARSE.:VDA5TSI               FRI 07/04/97 11:34 Page:364
         3 002133   000000 116100                    CMPQ    0,,PR0
         3 002134   002136 600000 3                  TZE     s:11034
         3 002135   001543 603000 3                  TRC     s:10967

     2940    11033
     2941    11034    2           RETURN;

  11034  3 002136   200232 221300                    LDX1  ! VD_ERR$+1,,AUTO
         3 002137   000001 702211                    TSX2  ! 1,X1

  11031  3 002140                       SKIP_STRING* null
     2942    11035
     2943    11036
     2944    11037
     2945    11038    2   SKIP_STRING_LITERAL_FAILED: ;
     2946    11039    2           ALTRETURN;

  11039  3 002140   200232 221300                    LDX1  ! VD_ERR$+1,,AUTO
         3 002141   000000 702211                    TSX2  ! 0,X1

     2947    11040
     2948    11041    2   END FIND_TOKEN;
     2949    11042
     2950    11043
     2951    11044                %BOX (TITLE="REPLACE_STRING_AND_SKIP", PAGE=YES);
             11052    2
             11056    2   /***************************************************************************
             11058    2    *                                                                         *
             11062    2            *                          REPLACE_STRING_AND_SKIP                       *
             11064    2            *                                                                        *
             11066    2          ***************************************************************************/

     2952    11070
     2953    11071        /*I* NAME: REPLACE_STRING_AND_SKIP
     2954    11072            PARAMETERS:
     2955    11073                STR_INDEX - Index into CMD$RECORD.BYTES of string to replace.
     2956    11074                STR_LN - Length of string in CMD$RECORD.BYTES to replace.  STR_LN
PL6.E3A0      #003=VDI$PGET_COMMAND_RECORD File=VDI$PARSE.:VDA5TSI               FRI 07/04/97 11:34 Page:365
     2957    11075                    is a UBIN BYTE CALIGNED field!!!!
     2958    11076                REPL - VD$BUFFER containing the synonym value which is to
     2959    11077                    replace the chars at STR_INDEX.
     2960    11078            INPUT:
     2961    11079                CMD$RECORD - VD$BUFFER containing the command record so far.
     2962    11080                CMD_RECORD$ - Ptr on which CMD$RECORD is based.  Must be
     2963    11081                    equal to CMD$STREAM.RECORD$.
     2964    11082                CMD$STREAM - Top VD$CMD_STREAM on stack.
     2965    11083            OUTPUT:
     2966    11084                STR_LN chars at STR_INDEX in CMD$RECORD.BYTES may be replaced with
     2967    11085                    the VALUE.BYTES chars, possibly surrounded by spaces.
     2968    11086                STR_INDEX will be incremented so that it points just beyond
     2969    11087                    the replacement string in CMD$RECORD.BYTES.
     2970    11088                CMD$RECORD will be modified to describe the new command record,
     2971    11089                    which may have been moved from its old location.
     2972    11090                CMD_RECORD$ and CMD$STREAM.RECORD$ may be changed, if CMD$RECORD
     2973    11091                    is moved.
     2974    11092            SCRATCH (no input value, no output value):
     2975    11093                VD_STATIC_TEMP - A scratch buffer for moving strings in a command
     2976    11094                    record.
     2977    11095            DESCRIPTION:
     2978    11096                If the new string will fit in the space allocated for the
     2979    11097                command record, do the replacement in place; otherwise,
     2980    11098                allocate new storage for the command record, do the replacement
     2981    11099                as we copy to the new storage, adjust CMD$STREAM.RECORD$ to
     2982    11100                point to the new VD$BUFFER, and free the old VD$BUFFER.
     2983    11101        */
     2984    11102
     2985    11103    1   REPLACE_STRING_AND_SKIP: PROC (STR_INDEX, STR_LN, REPL) ALTRET;

  11103  3 002142   200232 741300       REPLACE_STR* STX1  ! VD_ERR$+1,,AUTO

     2986    11104    2   DCL STR_INDEX UBIN;
     2987    11105    2   DCL STR_LN UBIN BYTE CALIGNED;
     2988    11106        %VD$BUFFER (NAME=REPL, STCLASS=PARAM);
     2989    11164
     2990    11165
PL6.E3A0      #003=VDI$PGET_COMMAND_RECORD File=VDI$PARSE.:VDA5TSI               FRI 07/04/97 11:34 Page:366
     2991    11166
     2992    11167    2   DCL LEFT_LN UBIN;
     2993    11168    2   DCL RIGHT_INDEX UBIN;
     2994    11169    2   DCL RIGHT_LN UBIN;
     2995    11170    2   DCL NEW_RECORD_LN UBIN;
     2996    11171    2   DCL NEW_RECORD$ PTR;
     2997    11172    2   DCL N UBIN;
     2998    11173
     2999    11174
     3000    11175        %VD$BUFFER (NAME=NEW$RECORD, STCLASS="BASED(NEW_RECORD$)");
     3001    11233
     3002    11234
     3003    11235
     3004    11236    2           LEFT_LN = STR_INDEX;

  11236  3 002143   200233 470500                    LDP0    @STR_INDEX,,AUTO
         3 002144   000000 235100                    LDA     0,,PR0
         3 002145   200236 755100                    STA     LEFT_LN,,AUTO

     3005    11237    2           RIGHT_INDEX = STR_INDEX + STR_LN;

  11237  3 002146   200234 471500                    LDP1    @STR_LN,,AUTO
         3 002147   000100 101500                    MRL     fill='000'O
         3 002150   100000 000001                    ADSC9   0,,PR1                   cn=0,n=1
         3 002151   200254 000004                    ADSC9   INTERRUPT_STATE_BEFORE_M$READ+1,,AUTO cn=0,n=4
         3 002152   200254 236100                    LDQ     INTERRUPT_STATE_BEFORE_M$READ+1,,AUTO
         3 002153   000000 036100                    ADLQ    0,,PR0
         3 002154   200237 756100                    STQ     RIGHT_INDEX,,AUTO

     3006    11238    2           RIGHT_LN = CMD$RECORD.LENGTH# - RIGHT_INDEX;

  11238  3 002155   200012 473500                    LDP3    CMD_RECORD$,,AUTO
         3 002156   300002 236100                    LDQ     2,,PR3
         3 002157   000022 732000                    QRS     18
         3 002160   200237 136100                    SBLQ    RIGHT_INDEX,,AUTO
         3 002161   200240 756100                    STQ     RIGHT_LN,,AUTO

PL6.E3A0      #003=VDI$PGET_COMMAND_RECORD File=VDI$PARSE.:VDA5TSI               FRI 07/04/97 11:34 Page:367
     3007    11239    2           NEW_RECORD_LN = LEFT_LN + REPL.LENGTH# + 1 + RIGHT_LN;

  11239  3 002162   200235 474500                    LDP4    @REPL,,AUTO
         3 002163   400002 236100                    LDQ     2,,PR4
         3 002164   000022 732000                    QRS     18
         3 002165   200236 036100                    ADLQ    LEFT_LN,,AUTO
         3 002166   200240 036100                    ADLQ    RIGHT_LN,,AUTO
         3 002167   000001 036007                    ADLQ    1,DL
         3 002170   200241 756100                    STQ     NEW_RECORD_LN,,AUTO

     3008    11240    2           IF RIGHT_LN > 0 THEN

  11240  3 002171   200240 235100                    LDA     RIGHT_LN,,AUTO
         3 002172   002175 600000 3                  TZE     s:11242

     3009    11241    2              NEW_RECORD_LN = NEW_RECORD_LN + 1;

  11241  3 002173   000001 036007                    ADLQ    1,DL
         3 002174   200241 756100                    STQ     NEW_RECORD_LN,,AUTO

     3010    11242    2           IF NEW_RECORD_LN > NB_BUF THEN

  11242  3 002175   000000 116003                    CMPQ    0,DU
         3 002176   002523 604000 3                  TMI     SYND_RECORD_TOO_LONG_FAILURE
         3 002177   200011 116100                    CMPQ    NB_BUF,,AUTO
         3 002200   002523 605400 3                  TPNZ    SYND_RECORD_TOO_LONG_FAILURE

     3011    11243    2              GOTO SYND_RECORD_TOO_LONG_FAILURE;
     3012    11244    2           IF NEW_RECORD_LN > ((CMD$RECORD.OBJECT.SIZE# * %NB_PER_WORD) -

  11244  3 002201   300000 236100                    LDQ     0,,PR3
         3 002202   000022 736000                    QLS     18
         3 002203   000020 732000                    QRS     16
         3 002204   000012 136007                    SBLQ    10,DL
         3 002205   002210 604000 3                  TMI     s:11251
         3 002206   200241 116100                    CMPQ    NEW_RECORD_LN,,AUTO
         3 002207   002365 603000 3                  TRC     s:11278
PL6.E3A0      #003=VDI$PGET_COMMAND_RECORD File=VDI$PARSE.:VDA5TSI               FRI 07/04/97 11:34 Page:368

     3013    11245    3             LENGTHC(VD$BUFFER_HEADER)) THEN DO;

     3014    11246                   /*
     3015    11247                   *    Replacement text is longer than the text it's replacing,
     3016    11248                   *        and current CMD$RECORD doesn't have enough storage
     3017    11249                   *        allocated for it to hold the new cmd-line length.
     3018    11250                   */
     3019    11251    3              CALL VDG$OALLOC (%CLS_BUFFER, NEW_RECORD$, SIZEW(VD$BUFFER_HEADER) +

  11251  3 002210   200241 236100                    LDQ     NEW_RECORD_LN,,AUTO
         3 002211   000003 036007                    ADLQ    3,DL
         3 002212   000002 772000                    QRL     2
         3 002213   000003 036007                    ADLQ    3,DL
         3 002214   200254 756100                    STQ     INTERRUPT_STATE_BEFORE_M$READ+1,,AUTO
         3 002215   200254 635500                    EPPR5   INTERRUPT_STATE_BEFORE_M$READ+1,,AUTO
         3 002216   200257 455500                    STP5    INTERRUPT_STATE_BEFORE_M$READ+4,,AUTO
         3 002217   200242 636500                    EPPR6   NEW_RECORD$,,AUTO
         3 002220   200256 456500                    STP6    INTERRUPT_STATE_BEFORE_M$READ+3,,AUTO
         3 002221   000010 236000 4                  LDQ     8
         3 002222   200255 756100                    STQ     INTERRUPT_STATE_BEFORE_M$READ+2,,AUTO
         3 002223   200255 630500                    EPPR0   INTERRUPT_STATE_BEFORE_M$READ+2,,AUTO
         3 002224   000021 631400 xsym               EPPR1   B_VECTNIL+17
         3 002225   000000 701000 xent               TSX1    VDG$OALLOC
         3 002226   002545 702000 3                  TSX2    OALLOC_FAILED

     3020    11252    3                (NEW_RECORD_LN + %(NB_PER_WORD-1)) / %NB_PER_WORD)
     3021    11253    3                ALTRET (OALLOC_FAILED);
     3022    11254    3              NEW$RECORD.LENGTH# = NEW_RECORD_LN;

  11254  3 002227   200241 720100                    LXL0    NEW_RECORD_LN,,AUTO
         3 002230   200242 470500                    LDP0    NEW_RECORD$,,AUTO
         3 002231   000002 740100                    STX0    2,,PR0

     3023    11255    3              CALL CONCAT (NEW$RECORD.BYTES,

  11255  3 002232   200242 470500                    LDP0    NEW_RECORD$,,AUTO
PL6.E3A0      #003=VDI$PGET_COMMAND_RECORD File=VDI$PARSE.:VDA5TSI               FRI 07/04/97 11:34 Page:369
         3 002233   000002 221100                    LDX1    2,,PR0
         3 002234   200012 471500                    LDP1    CMD_RECORD$,,AUTO
         3 002235   100002 222100                    LDX2    2,,PR1
         3 002236   200235 473500                    LDP3    @REPL,,AUTO
         3 002237   300002 223100                    LDX3    2,,PR3
         3 002240   200236 724100                    LXL4    LEFT_LN,,AUTO
         3 002241   040140 100540                    MLR     fill='040'O
         3 002242   100002 400014                    ADSC9   2,,PR1                   cn=2,n=*X4
         3 002243   000002 400011                    ADSC9   2,,PR0                   cn=2,n=*X1
         3 002244   000000 636011                    EAQ     0,X1
         3 002245   000022 732000                    QRS     18
         3 002246   200236 136100                    SBLQ    LEFT_LN,,AUTO
         3 002247   002300 604400 3                  TMOZ    s:11258
         3 002250   200242 470500                    LDP0    NEW_RECORD$,,AUTO
         3 002251   000000 621006                    EAX1    0,QL
         3 002252   200236 235100                    LDA     LEFT_LN,,AUTO
         3 002253   040145 100400                    MLR     fill='040'O
         3 002254   000035 000001 xsym               ADSC9   B_VECTNIL+29             cn=0,n=1
         3 002255   000002 400011                    ADSC9   2,A,PR0                  cn=2,n=*X1
         3 002256   000001 116007                    CMPQ    1,DL
         3 002257   002300 604400 3                  TMOZ    s:11258
         3 002260   777777 621006                    EAX1    -1,QL
         3 002261   200242 470500                    LDP0    NEW_RECORD$,,AUTO
         3 002262   040145 100540                    MLR     fill='040'O
         3 002263   300002 400013                    ADSC9   2,,PR3                   cn=2,n=*X3
         3 002264   000002 600011                    ADSC9   2,A,PR0                  cn=3,n=*X1
         3 002265   200254 756100                    STQ     INTERRUPT_STATE_BEFORE_M$READ+1,,AUTO
         3 002266   000000 636013                    EAQ     0,X3
         3 002267   000022 732000                    QRS     18
         3 002270   000011 402007                    MPY     9,DL
         3 002271   200255 756100                    STQ     INTERRUPT_STATE_BEFORE_M$READ+2,,AUTO
         3 002272   200254 236100                    LDQ     INTERRUPT_STATE_BEFORE_M$READ+1,,AUTO
         3 002273   000011 402007                    MPY     9,DL
         3 002274   000011 136007                    SBLQ    9,DL
         3 002275   200255 116100                    CMPQ    INTERRUPT_STATE_BEFORE_M$READ+2,,AUTO
         3 002276   002300 604000 3                  TMI     s:11258
         3 002277   002303 710000 3                  TRA     s:11259
PL6.E3A0      #003=VDI$PGET_COMMAND_RECORD File=VDI$PARSE.:VDA5TSI               FRI 07/04/97 11:34 Page:370

     3024    11256    3                SUBSTR(CMD$RECORD.BYTES, 0, LEFT_LN),
     3025    11257    3                %CHR_SPACE, REPL.BYTES)
     3026    11258    4              WHENALTRETURN DO; CALL VDG$ESCREECH; END;

  11258  3 002300   000002 631400 xsym               EPPR1   B_VECTNIL+2
         3 002301   000000 701000 xent               TSX1    VDG$ESCREECH
         3 002302   000000 011000                    NOP     0

     3027    11259    3              IF RIGHT_LN > 0 THEN

  11259  3 002303   200240 235100                    LDA     RIGHT_LN,,AUTO
         3 002304   002346 600000 3                  TZE     s:11264

     3028    11260    3                 CALL INSERT (NEW$RECORD.BYTES, LEFT_LN + 1 + REPL.LENGTH#,

  11260  3 002305   200242 470500                    LDP0    NEW_RECORD$,,AUTO
         3 002306   000002 220100                    LDX0    2,,PR0
         3 002307   200235 471500                    LDP1    @REPL,,AUTO
         3 002310   100002 236100                    LDQ     2,,PR1
         3 002311   000022 732000                    QRS     18
         3 002312   200236 036100                    ADLQ    LEFT_LN,,AUTO
         3 002313   200012 473500                    LDP3    CMD_RECORD$,,AUTO
         3 002314   300002 221100                    LDX1    2,,PR3
         3 002315   000001 622005                    EAX2    1,AL
         3 002316   040146 100400                    MLR     fill='040'O
         3 002317   000035 000001 xsym               ADSC9   B_VECTNIL+29             cn=0,n=1
         3 002320   000002 600012                    ADSC9   2,Q,PR0                  cn=3,n=*X2
         3 002321   200254 756100                    STQ     INTERRUPT_STATE_BEFORE_M$READ+1,,AUTO
         3 002322   200240 236100                    LDQ     RIGHT_LN,,AUTO
         3 002323   000000 116003                    CMPQ    0,DU
         3 002324   002343 600000 3                  TZE     s:11263
         3 002325   000000 620006                    EAX0    0,QL
         3 002326   200237 236100                    LDQ     RIGHT_INDEX,,AUTO
         3 002327   200242 470500                    LDP0    NEW_RECORD$,,AUTO
         3 002330   000000 621005                    EAX1    0,AL
         3 002331   200254 235100                    LDA     INTERRUPT_STATE_BEFORE_M$READ+1,,AUTO
PL6.E3A0      #003=VDI$PGET_COMMAND_RECORD File=VDI$PARSE.:VDA5TSI               FRI 07/04/97 11:34 Page:371
         3 002332   040145 100546                    MLR     fill='040'O
         3 002333   300002 400010                    ADSC9   2,Q,PR3                  cn=2,n=*X0
         3 002334   000003 000011                    ADSC9   3,A,PR0                  cn=0,n=*X1
         3 002335   200240 236100                    LDQ     RIGHT_LN,,AUTO
         3 002336   000011 402007                    MPY     9,DL
         3 002337   200255 756100                    STQ     INTERRUPT_STATE_BEFORE_M$READ+2,,AUTO
         3 002340   200255 116100                    CMPQ    INTERRUPT_STATE_BEFORE_M$READ+2,,AUTO
         3 002341   002343 602000 3                  TNC     s:11263
         3 002342   002346 710000 3                  TRA     s:11264

     3029    11261    3                   RIGHT_LN + 1, %CHR_SPACE,
     3030    11262    3                   SUBSTR(CMD$RECORD.BYTES, RIGHT_INDEX, RIGHT_LN))
     3031    11263    4                 WHENALTRETURN DO; CALL VDG$ESCREECH; END;

  11263  3 002343   000002 631400 xsym               EPPR1   B_VECTNIL+2
         3 002344   000000 701000 xent               TSX1    VDG$ESCREECH
         3 002345   000000 011000                    NOP     0

     3032    11264    3              NEW$RECORD.FLINK$ = CMD$RECORD.FLINK$;

  11264  3 002346   200012 470500                    LDP0    CMD_RECORD$,,AUTO
         3 002347   000001 236100                    LDQ     1,,PR0
         3 002350   200242 471500                    LDP1    NEW_RECORD$,,AUTO
         3 002351   100001 756100                    STQ     1,,PR1

     3033    11265    3              CMD$RECORD.FLINK$ = ADDR(NIL);

  11265  3 002352   000001 236000 xsym               LDQ     B_VECTNIL+1
         3 002353   000001 756100                    STQ     1,,PR0

     3034    11266    3              CALL VDG$OFREE (CMD$RECORD)

  11266  3 002354   200012 630500                    EPPR0   CMD_RECORD$,,AUTO
         3 002355   000017 631400 xsym               EPPR1   B_VECTNIL+15
         3 002356   000000 701000 xent               TSX1    VDG$OFREE
         3 002357   002545 702000 3                  TSX2    OALLOC_FAILED

PL6.E3A0      #003=VDI$PGET_COMMAND_RECORD File=VDI$PARSE.:VDA5TSI               FRI 07/04/97 11:34 Page:372
     3035    11267    3                ALTRET (OFREE_FAILED);
     3036    11268    3              CMD_RECORD$ = NEW_RECORD$;

  11268  3 002360   200242 236100                    LDQ     NEW_RECORD$,,AUTO
         3 002361   200012 756100                    STQ     CMD_RECORD$,,AUTO

     3037    11269    3              CMD$STREAM.RECORD$ = NEW_RECORD$;

  11269  3 002362   000026 470400 xsym               LDP0    VD_6E+22
         3 002363   000025 756100                    STQ     21,,PR0

     3038    11270    3              END;

  11270  3 002364   002506 710000 3                  TRA     s:11294

     3039    11271    3           ELSE DO;

     3040    11272                   /*
     3041    11273                   *    Either the replacement text is shorter than the text
     3042    11274                   *        it's replacing,
     3043    11275                   *    or CMD$RECORD has enough storage allocated for it to
     3044    11276                   *        hold the new cmd-line length.
     3045    11277                   */
     3046    11278    3              IF RIGHT_LN > 0 THEN

  11278  3 002365   000000 115003                    CMPA    0,DU
         3 002366   002407 600000 3                  TZE     s:11282

     3047    11279    3                 CALL INSERT (VD_STATIC_TEMP, 0, RIGHT_LN,

  11279  3 002367   300002 220100                    LDX0    2,,PR3
         3 002370   000000 622005                    EAX2    0,AL
         3 002371   200237 235100                    LDA     RIGHT_INDEX,,AUTO
         3 002372   200240 723100                    LXL3    RIGHT_LN,,AUTO
         3 002373   040040 100545                    MLR     fill='040'O
         3 002374   300002 400012                    ADSC9   2,A,PR3                  cn=2,n=*X2
         3 002375   000000 000013 xsym               ADSC9   VD_STATIC_TEMP           cn=0,n=*X3
PL6.E3A0      #003=VDI$PGET_COMMAND_RECORD File=VDI$PARSE.:VDA5TSI               FRI 07/04/97 11:34 Page:373
         3 002376   200240 236100                    LDQ     RIGHT_LN,,AUTO
         3 002377   000011 402007                    MPY     9,DL
         3 002400   200254 756100                    STQ     INTERRUPT_STATE_BEFORE_M$READ+1,,AUTO
         3 002401   200254 116100                    CMPQ    INTERRUPT_STATE_BEFORE_M$READ+1,,AUTO
         3 002402   002404 602000 3                  TNC     s:11281
         3 002403   002407 710000 3                  TRA     s:11282

     3048    11280    3                   SUBSTR(CMD$RECORD.BYTES, RIGHT_INDEX, RIGHT_LN))
     3049    11281    4                 WHENALTRETURN DO; CALL VDG$ESCREECH; END;

  11281  3 002404   000002 631400 xsym               EPPR1   B_VECTNIL+2
         3 002405   000000 701000 xent               TSX1    VDG$ESCREECH
         3 002406   000000 011000                    NOP     0

     3050    11282    3              CMD$RECORD.LENGTH# = NEW_RECORD_LN;

  11282  3 002407   200241 720100                    LXL0    NEW_RECORD_LN,,AUTO
         3 002410   200012 470500                    LDP0    CMD_RECORD$,,AUTO
         3 002411   000002 740100                    STX0    2,,PR0

     3051    11283    3              CALL INSERT (CMD$RECORD.BYTES, LEFT_LN, REPL.LENGTH# + 1,

  11283  3 002412   200235 471500                    LDP1    @REPL,,AUTO
         3 002413   100002 221100                    LDX1    2,,PR1
         3 002414   000001 622011                    EAX2    1,X1
         3 002415   200236 235100                    LDA     LEFT_LN,,AUTO
         3 002416   040145 100400                    MLR     fill='040'O
         3 002417   000035 000001 xsym               ADSC9   B_VECTNIL+29             cn=0,n=1
         3 002420   000002 400012                    ADSC9   2,A,PR0                  cn=2,n=*X2
         3 002421   000000 636012                    EAQ     0,X2
         3 002422   000022 772000                    QRL     18
         3 002423   000002 116007                    CMPQ    2,DL
         3 002424   002444 602000 3                  TNC     s:11285
         3 002425   777777 623012                    EAX3    -1,X2
         3 002426   040145 100540                    MLR     fill='040'O
         3 002427   100002 400011                    ADSC9   2,,PR1                   cn=2,n=*X1
         3 002430   000002 600013                    ADSC9   2,A,PR0                  cn=3,n=*X3
PL6.E3A0      #003=VDI$PGET_COMMAND_RECORD File=VDI$PARSE.:VDA5TSI               FRI 07/04/97 11:34 Page:374
         3 002431   000000 636011                    EAQ     0,X1
         3 002432   000022 732000                    QRS     18
         3 002433   000011 402007                    MPY     9,DL
         3 002434   200254 756100                    STQ     INTERRUPT_STATE_BEFORE_M$READ+1,,AUTO
         3 002435   000000 636012                    EAQ     0,X2
         3 002436   000022 772000                    QRL     18
         3 002437   000011 402007                    MPY     9,DL
         3 002440   000011 136007                    SBLQ    9,DL
         3 002441   200254 116100                    CMPQ    INTERRUPT_STATE_BEFORE_M$READ+1,,AUTO
         3 002442   002444 604000 3                  TMI     s:11285
         3 002443   002447 710000 3                  TRA     s:11286

     3052    11284    3                %CHR_SPACE, REPL.BYTES)
     3053    11285    4              WHENALTRETURN DO; CALL VDG$ESCREECH; END;

  11285  3 002444   000002 631400 xsym               EPPR1   B_VECTNIL+2
         3 002445   000000 701000 xent               TSX1    VDG$ESCREECH
         3 002446   000000 011000                    NOP     0

     3054    11286    3              IF RIGHT_LN > 0 THEN

  11286  3 002447   200240 235100                    LDA     RIGHT_LN,,AUTO
         3 002450   002506 600000 3                  TZE     s:11294

     3055    11287    3                 CALL INSERT (CMD$RECORD.BYTES, LEFT_LN + 1 + REPL.LENGTH#,

  11287  3 002451   200012 470500                    LDP0    CMD_RECORD$,,AUTO
         3 002452   000002 220100                    LDX0    2,,PR0
         3 002453   200235 471500                    LDP1    @REPL,,AUTO
         3 002454   100002 236100                    LDQ     2,,PR1
         3 002455   000022 732000                    QRS     18
         3 002456   200236 036100                    ADLQ    LEFT_LN,,AUTO
         3 002457   000001 621005                    EAX1    1,AL
         3 002460   040146 100400                    MLR     fill='040'O
         3 002461   000035 000001 xsym               ADSC9   B_VECTNIL+29             cn=0,n=1
         3 002462   000002 600011                    ADSC9   2,Q,PR0                  cn=3,n=*X1
         3 002463   200254 756100                    STQ     INTERRUPT_STATE_BEFORE_M$READ+1,,AUTO
PL6.E3A0      #003=VDI$PGET_COMMAND_RECORD File=VDI$PARSE.:VDA5TSI               FRI 07/04/97 11:34 Page:375
         3 002464   200240 236100                    LDQ     RIGHT_LN,,AUTO
         3 002465   000000 116003                    CMPQ    0,DU
         3 002466   002503 600000 3                  TZE     s:11290
         3 002467   000000 620006                    EAX0    0,QL
         3 002470   000000 622005                    EAX2    0,AL
         3 002471   200254 235100                    LDA     INTERRUPT_STATE_BEFORE_M$READ+1,,AUTO
         3 002472   040145 100440                    MLR     fill='040'O
         3 002473   000000 000010 xsym               ADSC9   VD_STATIC_TEMP           cn=0,n=*X0
         3 002474   000003 000012                    ADSC9   3,A,PR0                  cn=0,n=*X2
         3 002475   200240 236100                    LDQ     RIGHT_LN,,AUTO
         3 002476   000011 402007                    MPY     9,DL
         3 002477   200255 756100                    STQ     INTERRUPT_STATE_BEFORE_M$READ+2,,AUTO
         3 002500   200255 116100                    CMPQ    INTERRUPT_STATE_BEFORE_M$READ+2,,AUTO
         3 002501   002503 602000 3                  TNC     s:11290
         3 002502   002506 710000 3                  TRA     s:11294

     3056    11288    3                   RIGHT_LN + 1, %CHR_SPACE,
     3057    11289    3                   SUBSTR(VD_STATIC_TEMP, 0, RIGHT_LN))
     3058    11290    4                 WHENALTRETURN DO; CALL VDG$ESCREECH; END;

  11290  3 002503   000002 631400 xsym               EPPR1   B_VECTNIL+2
         3 002504   000000 701000 xent               TSX1    VDG$ESCREECH
         3 002505   000000 011000                    NOP     0

     3059    11291    3              END;

     3060    11292
     3061    11293                /* Skip STR_INDEX over the replacement text */
     3062    11294    2           STR_INDEX = STR_INDEX + 1 + REPL.LENGTH#;

  11294  3 002506   200233 470500                    LDP0    @STR_INDEX,,AUTO
         3 002507   200235 471500                    LDP1    @REPL,,AUTO
         3 002510   100002 236100                    LDQ     2,,PR1
         3 002511   000022 732000                    QRS     18
         3 002512   000000 036100                    ADLQ    0,,PR0
         3 002513   000001 036007                    ADLQ    1,DL
         3 002514   000000 756100                    STQ     0,,PR0
PL6.E3A0      #003=VDI$PGET_COMMAND_RECORD File=VDI$PARSE.:VDA5TSI               FRI 07/04/97 11:34 Page:376

     3063    11295    2           IF RIGHT_LN > 0 THEN

  11295  3 002515   200240 235100                    LDA     RIGHT_LN,,AUTO
         3 002516   002521 600000 3                  TZE     s:11298

     3064    11296    2              STR_INDEX = STR_INDEX + 1;

  11296  3 002517   000001 036007                    ADLQ    1,DL
         3 002520   000000 756100                    STQ     0,,PR0

     3065    11297
     3066    11298    2           RETURN;

  11298  3 002521   200232 221300                    LDX1  ! VD_ERR$+1,,AUTO
         3 002522   000001 702211                    TSX2  ! 1,X1

     3067    11299
     3068    11300
     3069    11301    2   SYND_RECORD_TOO_LONG_FAILURE:
     3070    11302    2           CALL VDG$OALLOC (%CLS_ERR, VD_ERR$)

  11302  3 002523   200231 635500       SYND_RECORD* EPPR5   VD_ERR$,,AUTO
         3 002524   200255 455500                    STP5    INTERRUPT_STATE_BEFORE_M$READ+2,,AUTO
         3 002525   000002 236000 4                  LDQ     2
         3 002526   200254 756100                    STQ     INTERRUPT_STATE_BEFORE_M$READ+1,,AUTO
         3 002527   200254 630500                    EPPR0   INTERRUPT_STATE_BEFORE_M$READ+1,,AUTO
         3 002530   000020 631400 xsym               EPPR1   B_VECTNIL+16
         3 002531   000000 701000 xent               TSX1    VDG$OALLOC
         3 002532   002545 702000 3                  TSX2    OALLOC_FAILED

     3071    11303    2             ALTRET (OALLOC_FAILED);
     3072    11304    2           VD$ERR.ERR.CODE# = %E$SYND_RECORD_TOO_LONG;

  11304  3 002533   200231 470500                    LDP0    VD_ERR$,,AUTO
         3 002534   000002 236100                    LDQ     2,,PR0
         3 002535   000003 376000 4                  ANQ     3
PL6.E3A0      #003=VDI$PGET_COMMAND_RECORD File=VDI$PARSE.:VDA5TSI               FRI 07/04/97 11:34 Page:377
         3 002536   000620 276007                    ORQ     400,DL
         3 002537   000002 756100                    STQ     2,,PR0

     3073    11305    2           VD$ERR.FLAGLEV# = %FLV_SERIOUS;

  11305  3 002540   000003 220003                    LDX0    3,DU
         3 002541   200231 470500                    LDP0    VD_ERR$,,AUTO
         3 002542   000003 740100                    STX0    3,,PR0

     3074    11306    2           ALTRETURN;

  11306  3 002543   200232 221300                    LDX1  ! VD_ERR$+1,,AUTO
         3 002544   000000 702211                    TSX2  ! 0,X1

  11305  3 002545                       OALLOC_FAIL* null
  11305  3 002545                       OFREE_FAILED null
     3075    11307
     3076    11308
     3077    11309    2   OALLOC_FAILED: ;
     3078    11310    2   OFREE_FAILED: ;
     3079    11311    2           ALTRETURN;

  11311  3 002545   200232 221300                    LDX1  ! VD_ERR$+1,,AUTO
         3 002546   000000 702211                    TSX2  ! 0,X1

     3080    11312
     3081    11313    2   END REPLACE_STRING_AND_SKIP;
     3082    11314
     3083    11315
     3084    11316                %BOX (TITLE="SKIP_STRING_LITERAL", PAGE=YES);
             11324    2
             11328    2   /***************************************************************************
             11330    2    *                                                                         *
             11334    2            *                            SKIP_STRING_LITERAL                         *
             11336    2            *                                                                        *
             11338    2          ***************************************************************************/

PL6.E3A0      #003=VDI$PGET_COMMAND_RECORD File=VDI$PARSE.:VDA5TSI               FRI 07/04/97 11:34 Page:378
     3085    11342
     3086    11343        /*I* NAME: SKIP_STRING_LITERAL
     3087    11344            PARAMETERS:
     3088    11345                LIT_INDEX - Index into CMD$RECORD.BYTES of string literal delimiter.
     3089    11346            INPUT:
     3090    11347                CMD$RECORD - VD$BUFFER containing the command record being processed.
     3091    11348            OUTPUT:
     3092    11349                LIT_INDEX will contain the index into CMD$RECORD.BYTES of the next
     3093    11350                    char to scan, ie, the char after the ending string
     3094    11351                    literal delimiter.
     3095    11352            DESCRIPTION:
     3096    11353                Scan LIT_INDEX over a string literal.
     3097    11354        */
     3098    11355
     3099    11356    1   SKIP_STRING_LITERAL: PROC (LIT_INDEX) ALTRET;

  11356  3 002547   200240 741300       SKIP_STRING* STX1  ! RIGHT_LN,,AUTO

     3100    11357    2   DCL LIT_INDEX UBIN;
     3101    11358
     3102    11359
     3103    11360
     3104    11361    2   DCL DELIM_INDEX UBIN;
     3105    11362    2   DCL ORIGINAL_INDEX UBIN;
     3106    11363
     3107    11364
     3108    11365
     3109    11366    2           ORIGINAL_INDEX = LIT_INDEX;

  11366  3 002550   200241 470500                    LDP0    @LIT_INDEX,,AUTO
         3 002551   000000 235100                    LDA     0,,PR0
         3 002552   200243 755100                    STA     ORIGINAL_INDEX,,AUTO

     3110    11367
     3111    11368    2   FIND_END_OF_STRING:
     3112    11369    3           DO WHILE (LIT_INDEX + D$STRING.LENGTH# <= CMD$RECORD.LENGTH#)

PL6.E3A0      #003=VDI$PGET_COMMAND_RECORD File=VDI$PARSE.:VDA5TSI               FRI 07/04/97 11:34 Page:379
  11369  3 002553   002606 710000 3     FIND_END_OF* TRA     s:11377

     3113    11370    3             AND (SUBSTR(CMD$RECORD.BYTES, LIT_INDEX, D$STRING.LENGTH#) =
     3114    11371    3             D$STRING.BYTES);
     3115    11372    3              LIT_INDEX = LIT_INDEX + D$STRING.LENGTH#;

  11372  3 002554   200241 470500                    LDP0    @LIT_INDEX,,AUTO
         3 002555   000004 471400 1                  LDP1    PTR_$STRING$
         3 002556   100002 236100                    LDQ     2,,PR1
         3 002557   000022 732000                    QRS     18
         3 002560   000000 036100                    ADLQ    0,,PR0
         3 002561   000000 756100                    STQ     0,,PR0

     3116    11373    3              CALL INDEX (DELIM_INDEX, D$STRING.BYTES, CMD$RECORD.BYTES,

  11373  3 002562   100002 220100                    LDX0    2,,PR1
         3 002563   200012 473500                    LDP3    CMD_RECORD$,,AUTO
         3 002564   300002 221100                    LDX1    2,,PR3
         3 002565   200242 631500                    EPPR1   DELIM_INDEX,,AUTO
         3 002566   000004 473400 1                  LDP3    PTR_$STRING$
         3 002567   000012 222003                    LDX2    10,DU
         3 002570   300000 500512                    A9BD    0,X2,PR3
         3 002571   000000 623010                    EAX3    0,X0
         3 002572   200012 470500                    LDP0    CMD_RECORD$,,AUTO
         3 002573   000000 500512                    A9BD    0,X2,PR0
         3 002574   000000 620011                    EAX0    0,X1
         3 002575   200241 474500                    LDP4    @LIT_INDEX,,AUTO
         3 002576   400000 236100                    LDQ     0,,PR4
         3 002577   000000 701000 xent               TSX1    X66_INDEX
         3 002600   002635 710000 3                  TRA     UNBAL_STRING_FAILURE

     3117    11374    3                LIT_INDEX)
     3118    11375    3                ALTRET (UNBAL_STRING_FAILURE);
     3119    11376    3              LIT_INDEX = DELIM_INDEX + D$STRING.LENGTH#;

  11376  3 002601   000004 470400 1                  LDP0    PTR_$STRING$
         3 002602   000002 236100                    LDQ     2,,PR0
PL6.E3A0      #003=VDI$PGET_COMMAND_RECORD File=VDI$PARSE.:VDA5TSI               FRI 07/04/97 11:34 Page:380
         3 002603   000022 732000                    QRS     18
         3 002604   200242 036100                    ADLQ    DELIM_INDEX,,AUTO
         3 002605   400000 756100                    STQ     0,,PR4

     3120    11377    3              END FIND_END_OF_STRING;

  11377  3 002606   200241 470500                    LDP0    @LIT_INDEX,,AUTO
         3 002607   000004 471400 1                  LDP1    PTR_$STRING$
         3 002610   100002 236100                    LDQ     2,,PR1
         3 002611   000022 732000                    QRS     18
         3 002612   000000 036100                    ADLQ    0,,PR0
         3 002613   200012 473500                    LDP3    CMD_RECORD$,,AUTO
         3 002614   200254 756100                    STQ     INTERRUPT_STATE_BEFORE_M$READ+1,,AUTO
         3 002615   300002 236100                    LDQ     2,,PR3
         3 002616   000022 732000                    QRS     18
         3 002617   200255 756100                    STQ     INTERRUPT_STATE_BEFORE_M$READ+2,,AUTO
         3 002620   200254 236100                    LDQ     INTERRUPT_STATE_BEFORE_M$READ+1,,AUTO
         3 002621   200255 116100                    CMPQ    INTERRUPT_STATE_BEFORE_M$READ+2,,AUTO
         3 002622   002633 605400 3                  TPNZ    s:11379
         3 002623   300002 220100                    LDX0    2,,PR3
         3 002624   000000 235100                    LDA     0,,PR0
         3 002625   100002 221100                    LDX1    2,,PR1
         3 002626   100002 222100                    LDX2    2,,PR1
         3 002627   040140 106545                    CMPC    fill='040'O
         3 002630   300002 400011                    ADSC9   2,A,PR3                  cn=2,n=*X1
         3 002631   100002 400012                    ADSC9   2,,PR1                   cn=2,n=*X2
         3 002632   002554 600000 3                  TZE     s:11372

     3121    11378
     3122    11379    2           RETURN;

  11379  3 002633   200240 221300                    LDX1  ! RIGHT_LN,,AUTO
         3 002634   000001 702211                    TSX2  ! 1,X1

     3123    11380
     3124    11381
     3125    11382
PL6.E3A0      #003=VDI$PGET_COMMAND_RECORD File=VDI$PARSE.:VDA5TSI               FRI 07/04/97 11:34 Page:381
     3126    11383    2   UNBAL_STRING_FAILURE:
     3127    11384    2           CALL VDG$OALLOC (%CLS_ERR, VD_ERR$)

  11384  3 002635   200231 630500       UNBAL_STRIN* EPPR0   VD_ERR$,,AUTO
         3 002636   200255 450500                    STP0    INTERRUPT_STATE_BEFORE_M$READ+2,,AUTO
         3 002637   000002 236000 4                  LDQ     2
         3 002640   200254 756100                    STQ     INTERRUPT_STATE_BEFORE_M$READ+1,,AUTO
         3 002641   200254 630500                    EPPR0   INTERRUPT_STATE_BEFORE_M$READ+1,,AUTO
         3 002642   000020 631400 xsym               EPPR1   B_VECTNIL+16
         3 002643   000000 701000 xent               TSX1    VDG$OALLOC
         3 002644   002662 702000 3                  TSX2    OALLOC_FAILED

     3128    11385    2             ALTRET (OALLOC_FAILED);
     3129    11386    2           VD$ERR.ERR.CODE# = %E$UNBAL_STRING;

  11386  3 002645   200231 470500                    LDP0    VD_ERR$,,AUTO
         3 002646   000002 236100                    LDQ     2,,PR0
         3 002647   000003 376000 4                  ANQ     3
         3 002650   000720 276007                    ORQ     464,DL
         3 002651   000002 756100                    STQ     2,,PR0

     3130    11387    2           VD$ERR.FLAGLEV# = %FLV_SERIOUS;

  11387  3 002652   000003 220003                    LDX0    3,DU
         3 002653   200231 470500                    LDP0    VD_ERR$,,AUTO
         3 002654   000003 740100                    STX0    3,,PR0

     3131    11388                /*
     3132    11389                *   We can't give XUG$ERRPTR a CMDLINE_INDEX, 'cause we haven't given
     3133    11390                *       XUG$GETCMD this command!
     3134    11391                *   (((Test case:  With !DONT POINT, say CO ST 'ABC AF 6 )))
     3135    11392                */
     3136    11393    2           VD$ERR.CMDLINE_INDEX# = ORIGINAL_INDEX; /* might as well try? */

  11393  3 002655   200243 721100                    LXL1    ORIGINAL_INDEX,,AUTO
         3 002656   200231 470500                    LDP0    VD_ERR$,,AUTO
         3 002657   000003 441100                    SXL1    3,,PR0
PL6.E3A0      #003=VDI$PGET_COMMAND_RECORD File=VDI$PARSE.:VDA5TSI               FRI 07/04/97 11:34 Page:382

     3137    11394    2           ALTRETURN;

  11394  3 002660   200240 221300                    LDX1  ! RIGHT_LN,,AUTO
         3 002661   000000 702211                    TSX2  ! 0,X1

  11393  3 002662                       OALLOC_FAIL* null
     3138    11395
     3139    11396
     3140    11397    2   OALLOC_FAILED: ;
     3141    11398    2           ALTRETURN;

  11398  3 002662   200240 221300                    LDX1  ! RIGHT_LN,,AUTO
         3 002663   000000 702211                    TSX2  ! 0,X1
     3142    11399
     3143    11400    2   END SKIP_STRING_LITERAL;
     3144    11401
     3145    11402    1   END VDI$PGET_COMMAND_RECORD;
     3146    11403        %EOD;

PL6.E3A0      #003=VDI$PGET_COMMAND_RECORD File=VDI$PARSE.:VDA5TSI               FRI 07/04/97 11:34 Page:383
--  Include file information  --

   B$TABLES_C.:LIBRARY  cannot be made into a system file and is referenced.
   B$JIT.:LIBRARY  cannot be made into a system file and is referenced.
   B_ERRORS_C.:LIBRARY  is referenced.
   CP_6_SUBS.:LIBRARY  is referenced.
   CP_6.:LIBRARY  cannot be made into a system file and is referenced.
   XU_MACRO_C.:LIBRARY  is referenced.
   VD_PERR_C.:VDA5TOU  is referenced.
   VD_MACROS_M.:VDA5TOU  is referenced.
   B$JIT_C.:E04TOU  was found in the system file and is referenced.
   CP_6_C.:E04TOU  was found in the system file and is referenced.
      No diagnostics issued in procedure VDI$PGET_COMMAND_RECORD.
PL6.E3A0      #003=VDI$PGET_COMMAND_RECORD File=VDI$PARSE.:VDA5TSI               FRI 07/04/97 11:34 Page:384

 **** Variables and constants ****

  ****  Section 001 RoData VDI$PGET_COMMAND_RECORD

  ****  Scalars and arrays  ****
OctLoc.c.b A Datatyp(siz) R M Lvl/name                 OctLoc.c.b A Datatyp(siz) R M Lvl/name

     5-0-0/c CHAR        r     1 BLANK_BUF                  1-0-0/w STRC(99)    r     1 D_$STRING
     0-0-0/w PTR         r     1 PTR_$COMMENT$              4-0-0/w PTR         r     1 PTR_$STRING$
     6-0-0/w STRC(4608)  r     1 XLATE_FID_CHAR_CLASS

  ****  Section 002  Data  VDI$PGET_COMMAND_RECORD

  ****  Scalars and arrays  ****
OctLoc.c.b A Datatyp(siz) R M Lvl/name                 OctLoc.c.b A Datatyp(siz) R M Lvl/name

     0-0-0/d STRC(504)   r     1 FPT_READ                  32-0-0/d STRC(504)   r     1 FPT_READ
    16-0-0/d STRC(432)   r     1 WRITE_BLANK_LINE

  ****  Auto variables  ****

  ****  Scalars and arrays  ****
OctLoc.c.b A Datatyp(siz) R M Lvl/name                 OctLoc.c.b A Datatyp(siz) R M Lvl/name

     4-0-0/w PTR         r     1 @ARS                       3-0-0/w PTR         r     1 @BUF_
     7-0-0/w PTR         r     1 @EOMCHAR                   6-0-0/w PTR         r     1 @ERRCODE
   241-0-0/w PTR         r     1 @LIT_INDEX                 5-0-0/w PTR         r     1 @NEXT_RECORD$$
   235-0-0/w PTR         r     1 @REPL                    233-0-0/w PTR         r     1 @SCAN_INDEX
   233-0-0/w PTR         r     1 @STR_INDEX               234-0-0/w PTR         r     1 @STR_LN
   234-0-0/w PTR         r     1 @TOKEN                    *0-0-0/w SBIN        r     1 ARS
    10-0-0/w PTR         r     1 BUF$                      *0-0-0/d VECT        r     1 BUF_
   247-0-0/w SBIN        r     1 BUF_SIZE                 235-0-0/w UBIN        r     1 CLASS
   236-0-0/w PTR         r     1 CLASS_TABLE$              12-0-0/w PTR         r     1 CMD_RECORD$
   242-0-0/w UBIN        r     1 DELIM_INDEX              235-0-0/w BIT         r     1 EOF_FLAG
    *0-0-0/c CHAR        r     1 EOMCHAR                   *0-0-0/w STRC        r     1 ERRCODE
   252-0-0/w SBIN        r     1 ERR_CODE                 234-0-0/w BIT         r     1 HAD_ERROR
   253-0-0/w SBIN        r     1 INTERRUPT_STATE_BEFORE_M$READ
PL6.E3A0      #003=VDI$PGET_COMMAND_RECORD File=VDI$PARSE.:VDA5TSI               FRI 07/04/97 11:34 Page:385
   241-0-0/w PTR         r     1 IT_COMMAND$              236-0-0/w UBIN        r     1 LEFT_LN
    *0-0-0/w UBIN        r     1 LIT_INDEX                244-0-0/w STRC(9)     r     1 LOAD_FLAGS
   230-0-0/w UBIN        r     1 N                        240-0-0/w SBIN        r     1 N
    11-0-0/w SBIN        r     1 NB_BUF                   242-0-0/w PTR         r     1 NEW_RECORD$
   241-0-0/w UBIN        r     1 NEW_RECORD_LN             *0-0-0/w EPTR        r     1 NEXT_RECORD$$
   243-0-0/w UBIN        r     1 ORIGINAL_INDEX           243-0-0/w PTR         r     1 READ_DCB$
   251-0-0/w PTR         r     1 READ_DCB$                233-0-0/w SBIN        r     1 REC_NUM_INCR
    *0-0-0/w ASTR(90)    r     1 REPL                     237-0-0/w UBIN        r     1 RIGHT_INDEX
   240-0-0/w UBIN        r     1 RIGHT_LN                  13-0-0/w UBIN        r     1 SCAN_INDEX
    *0-0-0/w UBIN        r     1 SCAN_INDEX               240-0-0/w PTR         r     1 SINK$
    *0-0-0/w UBIN        r     1 STR_INDEX                 *0-0-0/c UBIN(9)     r     1 STR_LN
    14-0-0/w STRC(324)   r     1 SYNONYM_LOC              227-0-0/w PTR         r     1 SY_KEY$
    25-0-0/w STRC(4680)  r     1 TOKEN                     *0-0-0/w ASTR(81)    r     1 TOKEN
   242-0-0/w PTR         r     1 VD_BUFFER$               250-0-0/w PTR         r     1 VD_BUFFER$
   231-0-0/w PTR         r     1 VD_ERR$

  ****  SYMREF variables  ****

  ****  Scalars and arrays  ****
OctLoc.c.b A Datatyp(siz) R M Lvl/name                 OctLoc.c.b A Datatyp(siz) R M Lvl/name

     0-0-0/w PTR         r     1 B$JIT$                     0-0-0/w PTR         r     1 B$TCB$
     0-0-0/w PTR         r     1 B$XL_UPPER$                0-0-0/w ASTR(90)    r     1 VD_$COMMENT
     0-0-0/w STRC(22644) r     1 VD_6E                      0-0-0/w UBIN        r     1 VD_ASYM
     0-0-0/w PTR         r     1 VD_CMD_OBJECTS$(0:49)
     0-0-0/w UBIN        r     1 VD_FORCE_READ_FROM
     0-0-0/w UBIN        r     1 VD_LAST_CWIN_ACTIVITY
     0-0-0/w CHAR(1024)  r     1 VD_STATIC_TEMP             0-0-0/w CHAR(512)   r     1 VD_XLATE_CHAR_CLASS
     0-0-0/d STRC(1512)  r     1 XUG_GETCMD

  ****  BASED and DCB variables  ****

  ****  Scalars and arrays  ****
OctLoc.c.b A Datatyp(siz) R M Lvl/name                 OctLoc.c.b A Datatyp(siz) R M Lvl/name

     0-0-0/w STRC(2448)  r     1 B$ALT                      0-0-0/d STRC(8856)  r     1 B$JIT
     0-0-0/w STRC(144)   r     1 B$TCB                      0-0-0/d STRC(4608)  r     1 B$XL_UPPER
PL6.E3A0      #003=VDI$PGET_COMMAND_RECORD File=VDI$PARSE.:VDA5TSI               FRI 07/04/97 11:34 Page:386
     0-0-0/c ACHR        r     1 BUF                        0-0-0/w STRC(9)     r     1 CLASS$TABLE
     0-0-0/w ASTR(90)    r     1 CMD$RECORD                 0-0-0/w STRC(900)   r     1 CMD$STREAM
     0-0-0/w ASTR(90)    r     1 D$STRING                   0-0-0/w STRC(180)   r     1 FATAL$ERR
     0-0-0/w STRC(540)   r     1 IT$COMMAND                 0-0-0/w ASTR(90)    r     1 NEW$RECORD
     0-0-0/d ASTR(3528)  r     1 READ$DCB                   0-0-0/d ASTR(3528)  r     1 READ$DCB
     0-0-0/w ASTR(9)     r     1 SY$KEY                     0-0-0/w STRC(864)   r     1 SYNONYMS$STREAM
     0-0-0/w ASTR(90)    r     1 VD$BUFFER                  0-0-0/w ASTR(90)    r     1 VD$BUFFER
     0-0-0/w ASTR(90)    r     1 VD$BUFFER                  0-0-0/w ASTR(90)    r     1 VD$BUFFER
     0-0-0/w STRC(90)    r     1 VD$BUFFER_HEADER           0-0-0/w ASTR(90)    r     1 VD$COMMENT
     0-0-0/w STRC(180)   r     1 VD$ERR                     0-0-0/w STRC(540)   r     1 VD$IT_COMMAND
     0-0-0/w STRC        r     1 VD$OBJECT_HEADER           0-0-0/w STRC(1944)  r     1 VD$PORT
     0-0-0/w ASTR(81)    r     1 VD$TEXTC_REMOTE


   Procedure VDI$PGET_COMMAND_RECORD requires 1460 words for executable code.
   Procedure VDI$PGET_COMMAND_RECORD requires 176 words of local(AUTO) storage.
PL6.E3A0      #003=VDI$PGET_COMMAND_RECORD File=VDI$PARSE.:VDA5TSI               FRI 07/04/97 11:34 Page:387
          *** CROSS REFERENCE LISTING ***
**     DENOTES     IDENTIFIER DEFINITION
<<                 IDENTIFIER'S VALUE SET
>>                 IDENTIFIER'S VALUE USED
<>                 IDENTIFIER SET AND/OR USED
--                 IDENTIFIER REFERENCED
PL6.E3A0      #003=VDI$PGET_COMMAND_RECORD File=VDI$PARSE.:VDA5TSI               FRI 07/04/97 11:34 Page:388
          MINI XREF LISTING

ARS
      7677**DCL        68--PROC     9478<<ASSIGN   9609<<ASSIGN   9632<<ASSIGN   9639<<ASSIGN
B$ALT.CODE
      9192**DCL      9192--REDEF    9193--REDEF    9193--REDEF
B$ALT.ERR
      9193**DCL     10663>>ASSIGN  10674>>ASSIGN
B$ALT.ERR.ERR#
      9194**DCL      9194--REDEF   10611>>ASSIGN
B$ALT.EVID
      9193**DCL      9193--REDEF    9193--REDEF
B$JIT.CPFLAGS1.SLEAZE
      7384**DCL      7384--REDEF
B$JIT.ERR.MID
      7291**DCL      7291--REDEF
B$JIT.JRESPEAK
      7452**DCL      7453--REDEF
B$JIT.MODE
      7285**DCL     10241>>IF      10619>>IF      10661>>IF
B$JIT.NEXTCC
      7432**DCL     10257>>IF
B$JIT.ORIGINATOR_PORT.FROM_CR
      7561**DCL      7561--REDEF    7562--REDEF
B$JIT.PNR
      7465**DCL      7465--REDEF
B$JIT.TSLINE
      7559**DCL      7560--REDEF
B$JIT$
      8568**DCL      7285--IMP-PTR 10241>>IF      10257>>IF      10619>>IF      10661>>IF
B$TCB.ALT$
      9188**DCL     10611>>ASSIGN  10663>>ASSIGN  10674>>ASSIGN
B$TCB$
      8569**DCL      9188--IMP-PTR 10611>>ASSIGN  10663>>ASSIGN  10674>>ASSIGN
PL6.E3A0      #003=VDI$PGET_COMMAND_RECORD File=VDI$PARSE.:VDA5TSI               FRI 07/04/97 11:34 Page:389
B$XL_UPPER
      7812**DCL      9555>>CALLBLT
B$XL_UPPER$
      7811**DCL      7812--IMP-PTR  9555>>CALLBLT
BLANK_BUF IN PROCEDURE CMD_STREAM_READ
      9986**DCL      9973--DCLINIT  9974--DCLINIT
BUF
      8738**DCL      9605<<CALLBLT  9635<<CALLBLT
BUF$
      8638**DCL      8738--IMP-PTR  9476<<ASSIGN   9605>>CALLBLT  9635>>CALLBLT
BUF_
      7676**DCL        68--PROC     9476>>ASSIGN   9477>>ASSIGN
BUF_SIZE IN PROCEDURE READ_FROM_ME
     10451**DCL     10581<<ASSIGN  10585>>IF      10592<>CALL
CLASS IN PROCEDURE FIND_TOKEN
     10945**DCL     10982<<ASSIGN  10985>>DOCASE  10989>>DOWHILE 10989>>DOWHILE 10991<<ASSIGN  10993>>IF
     10993>>IF      11002>>DOWHILE 11004<<ASSIGN  11007>>IF      11016>>DOWHILE 11016>>DOWHILE 11018<<ASSIGN
     11020>>IF      11020>>IF      11028<>CALL
CLASS$TABLE.C IN PROCEDURE FIND_TOKEN
     10950**DCL     10982>>ASSIGN  10991>>ASSIGN  11004>>ASSIGN  11018>>ASSIGN
CLASS_TABLE$ IN PROCEDURE FIND_TOKEN
     10946**DCL     10949--IMP-PTR 10954<<ASSIGN  10959<<ASSIGN  10982>>ASSIGN  10991>>ASSIGN  11004>>ASSIGN
     11018>>ASSIGN
CMD$RECORD
      8803**DCL     11266<>CALL
CMD$RECORD.BYTES
      8831**DCL      9605>>CALLBLT  9635>>CALLBLT 10967>>IF      10973>>IF      10977>>CALLBLT 10982>>ASSIGN
     10991>>ASSIGN  11004>>ASSIGN  11010>>ASSIGN  11018>>ASSIGN  11023>>ASSIGN  11255>>CALLBLT 11260>>CALLBLT
     11279>>CALLBLT 11283<<CALLBLT 11287<<CALLBLT 11369>>DOWHILE 11373>>CALLBLT
CMD$RECORD.FLINK$
      8829**DCL     11264>>ASSIGN  11265<<ASSIGN
CMD$RECORD.LENGTH#
      8829**DCL      8831--IMP-SIZ  9497>>IF       9502>>IF       9503<<ASSIGN   9550>>DOWHILE  9605>>CALLBLT
      9605>>CALLBLT  9607<>CALL     9609>>ASSIGN   9635>>CALLBLT  9635>>CALLBLT  9637<>CALL     9639>>ASSIGN
     10966>>DOWHILE 10967>>IF      10967>>IF      10973>>IF      10973>>IF      10977>>CALLBLT 10982>>ASSIGN
     10989>>DOWHILE 10991>>ASSIGN  11002>>DOWHILE 11004>>ASSIGN  11010>>ASSIGN  11016>>DOWHILE 11018>>ASSIGN
PL6.E3A0      #003=VDI$PGET_COMMAND_RECORD File=VDI$PARSE.:VDA5TSI               FRI 07/04/97 11:34 Page:390
     11023>>ASSIGN  11238>>ASSIGN  11255>>CALLBLT 11260>>CALLBLT 11266>>CALL    11279>>CALLBLT 11282<<ASSIGN
     11283>>CALLBLT 11287>>CALLBLT 11369>>DOWHILE 11369>>DOWHILE 11373>>CALLBLT
CMD$RECORD.OBJECT.SIZE#
      8827**DCL     11244>>IF
CMD$STREAM
      8747**DCL     10751<>CALL
CMD$STREAM.CMD_AFTER_READ
      8776**DCL      9500>>IF       9501<<ASSIGN   9812>>IF      10212>>IF      10226>>IF      10261>>IF
     10265>>IF      10278>>IF
CMD$STREAM.DCB#
      8774**DCL     10257>>IF      10257--IF
CMD$STREAM.ECHO
      8775**DCL     10265>>IF
CMD$STREAM.FILE_TYPE
      8774**DCL     10238>>IF
CMD$STREAM.INTREE$
      8774**DCL      9494>>IF      10212>>IF      10271>>IF      10272>>CALL    10274<<ASSIGN  10297>>IF
     10301>>DOWHILE 10303>>ASSIGN  10304<<ASSIGN
CMD$STREAM.POSITION#
      8775**DCL     10298>>IF      10300>>ASSIGN  10313>>IF      10319>>IF      10321<<ASSIGN  10321>>ASSIGN
     10325>>IF      10333>>ASSIGN  10336>>ASSIGN  10338<<ASSIGN  10651<<ASSIGN
CMD$STREAM.RECORD$
      8774**DCL      9496>>ASSIGN   9631>>IF       9634>>ASSIGN   9817>>IF       9818<>CALL     9822>>ASSIGN
     10212>>IF      10212>>IF      10227>>ASSIGN  10228>>ASSIGN  10229>>CALL    10229>>CALL    10231<<ASSIGN
     10311>>IF      10312>>ASSIGN  10583>>IF      10584>>ASSIGN  10588<<ASSIGN  10591>>IF      10592<>CALL
     10595>>ASSIGN  11269<<ASSIGN
CMD$STREAM.REC_NUM#
      8776**DCL      9831<<ASSIGN   9831>>ASSIGN  10212>>IF      10224>>IF      10225<<ASSIGN  10225>>ASSIGN
CMD$STREAM.TYPE#
      8773**DCL      9814>>IF      10209>>DOCASE  10284<>CALL    10743>>IF      10746>>IF      10746>>IF
     10757<<ASSIGN  10760>>IF      10760>>IF
CMD_RECORD$
      8640**DCL      8803--IMP-PTR  9496<<ASSIGN   9497>>IF       9502>>IF       9503>>ASSIGN   9550>>DOWHILE
      9605>>CALLBLT  9605>>CALLBLT  9605>>CALLBLT  9607>>CALL     9609>>ASSIGN   9634<<ASSIGN   9635>>CALLBLT
      9635>>CALLBLT  9635>>CALLBLT  9637>>CALL     9639>>ASSIGN  10966>>DOWHILE 10967>>IF      10967>>IF
     10967>>IF      10973>>IF      10973>>IF      10973>>IF      10977>>CALLBLT 10977>>CALLBLT 10982>>ASSIGN
PL6.E3A0      #003=VDI$PGET_COMMAND_RECORD File=VDI$PARSE.:VDA5TSI               FRI 07/04/97 11:34 Page:391
     10982>>ASSIGN  10989>>DOWHILE 10991>>ASSIGN  10991>>ASSIGN  11002>>DOWHILE 11004>>ASSIGN  11004>>ASSIGN
     11010>>ASSIGN  11010>>ASSIGN  11016>>DOWHILE 11018>>ASSIGN  11018>>ASSIGN  11023>>ASSIGN  11023>>ASSIGN
     11238>>ASSIGN  11244>>IF      11255>>CALLBLT 11255>>CALLBLT 11260>>CALLBLT 11260>>CALLBLT 11264>>ASSIGN
     11265>>ASSIGN  11266>>CALL    11266>>CALL    11268<<ASSIGN  11279>>CALLBLT 11279>>CALLBLT 11282>>ASSIGN
     11283>>CALLBLT 11283>>CALLBLT 11287>>CALLBLT 11287>>CALLBLT 11369>>DOWHILE 11369>>DOWHILE 11369>>DOWHILE
     11373>>CALLBLT 11373>>CALLBLT
CMD_STREAM_READ IN PROCEDURE READ_COMMAND_RECORD
      9913**PROC     9806--CALL
CMD_STREAM_READ_FAILED IN PROCEDURE READ_COMMAND_RECORD
      9831**LABEL    9806--CALLALT
CMD_WINDOW_READ_FAILED IN PROCEDURE READ_FROM_ME
     10661**LABEL   10621--GOTO
COMMON_ENTRY IN PROCEDURE FIND_TOKEN
     10963**LABEL   10955--GOTO
D$STRING.BYTES
      8970**DCL     10967>>IF      11369>>DOWHILE 11373>>CALLBLT
D$STRING.LENGTH#
      8968**DCL      8970--IMP-SIZ 10967>>IF      10967>>IF      10967>>IF      11369>>DOWHILE 11369>>DOWHILE
     11369>>DOWHILE 11372>>ASSIGN  11373>>CALLBLT 11376>>ASSIGN
DELIM_INDEX IN PROCEDURE SKIP_STRING_LITERAL
     11361**DCL     11373<<CALLBLT 11376>>ASSIGN
D_$STRING
      8601**DCL      8635--DCLINIT
EOF_FLAG IN PROCEDURE READ_COMMAND_RECORD
      9738**DCL      9805>>DOUNTIL  9809>>IF       9823<<ASSIGN  10205<<ASSIGN  10216<<ASSIGN  10255<<ASSIGN
     10260<<ASSIGN  10262<>CALL    10288>>IF      10602>>DOUNTIL 10622<<ASSIGN
EOMCHAR
      7694**DCL        68--PROC     9481<<ASSIGN  10628<<ASSIGN
ERASE_COMMAND_WINDOW_FAILED IN PROCEDURE READ_FROM_ME
     10676**LABEL   10577--CALLALT
ERRCODE
      7687**DCL        68--PROC     9480<<ASSIGN   9621<<ASSIGN
ERR_CODE IN PROCEDURE READ_FROM_ME
     10454**DCL     10603<<ASSIGN  10611<<ASSIGN  10618>>IF      10619>>IF
FATAL$ERR.DCB#
      9184**DCL     10669<<ASSIGN
PL6.E3A0      #003=VDI$PGET_COMMAND_RECORD File=VDI$PARSE.:VDA5TSI               FRI 07/04/97 11:34 Page:392
FATAL$ERR.ERR
      9179**DCL     10663<<ASSIGN  10665<<ASSIGN
FATAL$ERR.ERR.CODE#
      9181**DCL     10664>>IF      10666<<ASSIGN
FATAL$ERR.FLAGLEV#
      9184**DCL     10668<<ASSIGN
FIND_FID IN PROCEDURE FIND_TOKEN
     10958**ENTRY    9564--CALL
FIND_FID_FAILED
      9609**LABEL    9564--CALLALT
FIND_TOKEN
     10847**PROC     9551--CALL     9571--CALL
FIND_TOKEN_FAILED
      9609**LABEL    9551--CALLALT  9571--CALLALT
FPT_READ.STATION_ IN PROCEDURE CMD_STREAM_READ
      9936**DCL      9937--REDEF
FPT_READ.V IN PROCEDURE CMD_STREAM_READ
      9937**DCL      9933--DCLINIT
FPT_READ.V.DVBYTE.REREAD# IN PROCEDURE CMD_STREAM_READ
      9948**DCL      9948--REDEF
FPT_READ.V.INDX# IN PROCEDURE CMD_STREAM_READ
      9946**DCL      9946--REDEF
FPT_READ IN PROCEDURE READ_FROM_ME
     10427**DCL     10609<>CALL
FPT_READ.BUF_ IN PROCEDURE READ_FROM_ME
     10429**DCL     10597<<ASSIGN
FPT_READ.STATION_ IN PROCEDURE READ_FROM_ME
     10430**DCL     10431--REDEF
FPT_READ.V IN PROCEDURE READ_FROM_ME
     10431**DCL     10427--DCLINIT
FPT_READ.V.DCB# IN PROCEDURE READ_FROM_ME
     10431**DCL     10598<<ASSIGN  10599--ASSIGN  10669>>ASSIGN  10676>>ASSIGN
FPT_READ.V.DVBYTE.REREAD# IN PROCEDURE READ_FROM_ME
     10442**DCL     10442--REDEF
FPT_READ.V.INDX# IN PROCEDURE READ_FROM_ME
     10440**DCL     10440--REDEF
PL6.E3A0      #003=VDI$PGET_COMMAND_RECORD File=VDI$PARSE.:VDA5TSI               FRI 07/04/97 11:34 Page:393
HAD_ERROR IN PROCEDURE READ_COMMAND_RECORD
      9737**DCL      9803<<ASSIGN   9828>>IF
INTERRUPT_STATE_BEFORE_M$READ IN PROCEDURE READ_FROM_ME
     10455**DCL     10605<<ASSIGN  10615>>ASSIGN
IT$COMMAND IN PROCEDURE CMD_STREAM_READ
     10019**DCL     10305<>CALL
IT$COMMAND.FLINK$ IN PROCEDURE CMD_STREAM_READ
     10045**DCL     10304>>ASSIGN
IT_COMMAND$ IN PROCEDURE CMD_STREAM_READ
      9991**DCL     10019--IMP-PTR 10303<<ASSIGN  10304>>ASSIGN  10305>>CALL
LEFT_LN IN PROCEDURE REPLACE_STRING_AND_SKIP
     11167**DCL     11236<<ASSIGN  11239>>ASSIGN  11255>>CALLBLT 11260>>CALLBLT 11283>>CALLBLT 11287>>CALLBLT
LIT_INDEX IN PROCEDURE SKIP_STRING_LITERAL
     11357**DCL     11356--PROC    11366>>ASSIGN  11369>>DOWHILE 11369>>DOWHILE 11372<<ASSIGN  11372>>ASSIGN
     11373>>CALLBLT 11376<<ASSIGN
LOAD_FLAGS IN PROCEDURE CMD_STREAM_READ
      9994**DCL     10239<<ASSIGN  10248<>CALL
LOAD_FLAGS.F IN PROCEDURE CMD_STREAM_READ
     10006**DCL     10240<<ASSIGN  10243<<ASSIGN  10245<<ASSIGN  10246<<ASSIGN
LREAD_FAILED
      9609**LABEL    9577--CALLALT
M$READ
      5539**DCL-ENT 10609--CALL
N
      8734**DCL      9483<<DOINDEX  9484>>IF       9485>>CALL     9487>>ASSIGN
N IN PROCEDURE CMD_STREAM_READ
      9990**DCL     10300<<ASSIGN  10301>>DOWHILE 10307<<ASSIGN  10307>>ASSIGN
NB_BUF
      8639**DCL      8738--IMP-SIZ  9477<<ASSIGN   9502>>IF       9503>>ASSIGN   9605>>CALLBLT  9607<>CALL
      9635>>CALLBLT  9637<>CALL    10262<>CALL    10581>>ASSIGN  10596>>ASSIGN  11242>>IF
NEW$RECORD.BYTES IN PROCEDURE REPLACE_STRING_AND_SKIP
     11228**DCL     11255<<CALLBLT 11260<<CALLBLT
NEW$RECORD.FLINK$ IN PROCEDURE REPLACE_STRING_AND_SKIP
     11226**DCL     11264<<ASSIGN
NEW$RECORD.LENGTH# IN PROCEDURE REPLACE_STRING_AND_SKIP
     11226**DCL     11228--IMP-SIZ 11254<<ASSIGN  11255>>CALLBLT 11260>>CALLBLT
PL6.E3A0      #003=VDI$PGET_COMMAND_RECORD File=VDI$PARSE.:VDA5TSI               FRI 07/04/97 11:34 Page:394
NEW_RECORD$ IN PROCEDURE REPLACE_STRING_AND_SKIP
     11171**DCL     11200--IMP-PTR 11251<>CALL    11254>>ASSIGN  11255>>CALLBLT 11255>>CALLBLT 11260>>CALLBLT
     11260>>CALLBLT 11264>>ASSIGN  11268>>ASSIGN  11269>>ASSIGN
NEW_RECORD_LN IN PROCEDURE REPLACE_STRING_AND_SKIP
     11170**DCL     11239<<ASSIGN  11241<<ASSIGN  11241>>ASSIGN  11242>>IF      11244>>IF      11251>>CALL
     11254>>ASSIGN  11282>>ASSIGN
NEXT_RECORD$$
      7678**DCL        68--PROC     9479<<ASSIGN
OALLOC_FAILED IN PROCEDURE POP_STACK_AND_POSTN
     10781**LABEL   10755--CALLALT
OALLOC_FAILED IN PROCEDURE READ_COMMAND_RECORD
      9831**LABEL    9818--CALLALT
OALLOC_FAILED IN PROCEDURE READ_FROM_ME
     10676**LABEL   10592--CALLALT 10672--CALLALT
OALLOC_FAILED IN PROCEDURE REPLACE_STRING_AND_SKIP
     11305**LABEL   11251--CALLALT 11302--CALLALT
OALLOC_FAILED IN PROCEDURE SKIP_STRING_LITERAL
     11393**LABEL   11384--CALLALT
OFREE_FAILED
      9609**LABEL    9485--CALLALT
OFREE_FAILED IN PROCEDURE CMD_STREAM_READ
     10339**LABEL   10229--CALLALT 10272--CALLALT 10305--CALLALT
OFREE_FAILED IN PROCEDURE POP_STACK_AND_POSTN
     10781**LABEL   10751--CALLALT
OFREE_FAILED IN PROCEDURE READ_FROM_ME
     10676**LABEL   10586--CALLALT
OFREE_FAILED IN PROCEDURE REPLACE_STRING_AND_SKIP
     11305**LABEL   11266--CALLALT
ORIGINAL_INDEX IN PROCEDURE SKIP_STRING_LITERAL
     11362**DCL     11366<<ASSIGN  11393>>ASSIGN
POP_STACK_AND_POSTN IN PROCEDURE READ_COMMAND_RECORD
     10735**PROC     9810--CALL
POP_STACK_AND_POSTN_FAILED IN PROCEDURE READ_COMMAND_RECORD
      9831**LABEL    9810--CALLALT
PREAD_FILE_CLOSE_FAILED IN PROCEDURE POP_STACK_AND_POSTN
     10760**LABEL   10748--CALLALT 10762--CALLALT
PL6.E3A0      #003=VDI$PGET_COMMAND_RECORD File=VDI$PARSE.:VDA5TSI               FRI 07/04/97 11:34 Page:395
PREAD_FILE_OPEN_FAILED IN PROCEDURE POP_STACK_AND_POSTN
     10781**LABEL   10764--CALLALT
PREAD_FILE_POSITION_FAILED IN PROCEDURE POP_STACK_AND_POSTN
     10776**LABEL   10766--CALLALT
PREAD_FILE_READ_FAILED IN PROCEDURE CMD_STREAM_READ
     10348**LABEL   10262--CALLALT
PTR_$COMMENT$
      8572**DCL      8884--IMP-PTR 10973>>IF      10973>>IF      10973>>IF      10973>>IF      10973>>IF
     10977>>CALLBLT 10977>>CALLBLT 10977>>CALLBLT 10979>>ASSIGN
PTR_$STRING$
      8635**DCL      8942--IMP-PTR 10967>>IF      10967>>IF      10967>>IF      10967>>IF      11369>>DOWHILE
     11369>>DOWHILE 11369>>DOWHILE 11369>>DOWHILE 11372>>ASSIGN  11373>>CALLBLT 11373>>CALLBLT 11376>>ASSIGN
READ$DCB.ACTPOS IN PROCEDURE CMD_STREAM_READ
     10140**DCL     10140--REDEF
READ$DCB.ARS# IN PROCEDURE CMD_STREAM_READ
     10114**DCL     10114--REDEF
READ$DCB.ATTR IN PROCEDURE CMD_STREAM_READ
     10133**DCL     10134--REDEF
READ$DCB.BORROW IN PROCEDURE CMD_STREAM_READ
     10148**DCL     10148--REDEF   10148--REDEF   10148--REDEF
READ$DCB.CTLCMDIN IN PROCEDURE CMD_STREAM_READ
     10156**DCL     10257>>IF
READ$DCB.DCBNAME.L IN PROCEDURE CMD_STREAM_READ
     10162**DCL     10162--IMP-SIZ
READ$DCB.EOMCHAR# IN PROCEDURE CMD_STREAM_READ
     10118**DCL     10118--REDEF
READ$DCB.FLDID IN PROCEDURE CMD_STREAM_READ
     10143**DCL     10143--REDEF
READ$DCB.FORM$ IN PROCEDURE CMD_STREAM_READ
     10137**DCL     10137--REDEF
READ$DCB.FSECT IN PROCEDURE CMD_STREAM_READ
     10153**DCL     10153--REDEF
READ$DCB.FSN# IN PROCEDURE CMD_STREAM_READ
     10130**DCL     10130--REDEF   10130--REDEF   10131--REDEF
READ$DCB.HEADER$ IN PROCEDURE CMD_STREAM_READ
     10136**DCL     10136--REDEF
PL6.E3A0      #003=VDI$PGET_COMMAND_RECORD File=VDI$PARSE.:VDA5TSI               FRI 07/04/97 11:34 Page:396
READ$DCB.IXTNSIZE# IN PROCEDURE CMD_STREAM_READ
     10134**DCL     10134--REDEF
READ$DCB.LASTSTA$ IN PROCEDURE CMD_STREAM_READ
     10123**DCL     10123--REDEF
READ$DCB.LVL IN PROCEDURE CMD_STREAM_READ
     10149**DCL     10149--REDEF
READ$DCB.NAME#.C IN PROCEDURE CMD_STREAM_READ
     10124**DCL     10124--REDEF
READ$DCB.NOEOF IN PROCEDURE CMD_STREAM_READ
     10146**DCL     10146--REDEF
READ$DCB.NRECS# IN PROCEDURE CMD_STREAM_READ
     10135**DCL     10135--REDEF
READ$DCB.NRECX IN PROCEDURE CMD_STREAM_READ
     10154**DCL     10154--REDEF
READ$DCB.OHDR IN PROCEDURE CMD_STREAM_READ
     10146**DCL     10146--REDEF
READ$DCB.ORG# IN PROCEDURE CMD_STREAM_READ
     10129**DCL     10129--REDEF
READ$DCB.PRECNO IN PROCEDURE CMD_STREAM_READ
     10152**DCL     10152--REDEF
READ$DCB.RCSZ IN PROCEDURE CMD_STREAM_READ
     10158**DCL     10158--REDEF
READ$DCB.RES# IN PROCEDURE CMD_STREAM_READ
     10125**DCL     10125--REDEF
READ$DCB.SETX IN PROCEDURE CMD_STREAM_READ
     10137**DCL     10137--REDEF
READ$DCB.TAB$ IN PROCEDURE CMD_STREAM_READ
     10137**DCL     10137--REDEF
READ$DCB.TDA IN PROCEDURE CMD_STREAM_READ
     10151**DCL     10152--REDEF
READ$DCB.WSN# IN PROCEDURE CMD_STREAM_READ
     10125**DCL     10125--REDEF
READ$DCB.ACTPOS IN PROCEDURE READ_FROM_ME
     10549**DCL     10549--REDEF
READ$DCB.ARS# IN PROCEDURE READ_FROM_ME
     10523**DCL     10523--REDEF   10626>>ASSIGN  10631>>IF
PL6.E3A0      #003=VDI$PGET_COMMAND_RECORD File=VDI$PARSE.:VDA5TSI               FRI 07/04/97 11:34 Page:397
READ$DCB.ATTR IN PROCEDURE READ_FROM_ME
     10542**DCL     10543--REDEF
READ$DCB.BORROW IN PROCEDURE READ_FROM_ME
     10557**DCL     10557--REDEF   10557--REDEF   10557--REDEF
READ$DCB.DCBNAME.L IN PROCEDURE READ_FROM_ME
     10571**DCL     10571--IMP-SIZ
READ$DCB.DVBYTE.VFC# IN PROCEDURE READ_FROM_ME
     10526**DCL     10651>>ASSIGN
READ$DCB.EOMCHAR# IN PROCEDURE READ_FROM_ME
     10527**DCL     10527--REDEF   10628>>ASSIGN
READ$DCB.EOMVAL#.VALUE# IN PROCEDURE READ_FROM_ME
     10528**DCL     10629>>IF      10634>>IF      10641>>IF      10641>>IF      10641>>IF
READ$DCB.FLDID IN PROCEDURE READ_FROM_ME
     10552**DCL     10552--REDEF
READ$DCB.FORM$ IN PROCEDURE READ_FROM_ME
     10546**DCL     10546--REDEF
READ$DCB.FSECT IN PROCEDURE READ_FROM_ME
     10562**DCL     10562--REDEF
READ$DCB.FSN# IN PROCEDURE READ_FROM_ME
     10539**DCL     10539--REDEF   10539--REDEF   10540--REDEF
READ$DCB.HEADER$ IN PROCEDURE READ_FROM_ME
     10545**DCL     10545--REDEF
READ$DCB.IXTNSIZE# IN PROCEDURE READ_FROM_ME
     10543**DCL     10543--REDEF
READ$DCB.LASTSTA$ IN PROCEDURE READ_FROM_ME
     10532**DCL     10532--REDEF
READ$DCB.LVL IN PROCEDURE READ_FROM_ME
     10558**DCL     10558--REDEF
READ$DCB.NAME#.C IN PROCEDURE READ_FROM_ME
     10533**DCL     10533--REDEF
READ$DCB.NOEOF IN PROCEDURE READ_FROM_ME
     10555**DCL     10555--REDEF
READ$DCB.NRECS# IN PROCEDURE READ_FROM_ME
     10544**DCL     10544--REDEF
READ$DCB.NRECX IN PROCEDURE READ_FROM_ME
     10563**DCL     10563--REDEF
PL6.E3A0      #003=VDI$PGET_COMMAND_RECORD File=VDI$PARSE.:VDA5TSI               FRI 07/04/97 11:34 Page:398
READ$DCB.OHDR IN PROCEDURE READ_FROM_ME
     10555**DCL     10555--REDEF
READ$DCB.ORG# IN PROCEDURE READ_FROM_ME
     10538**DCL     10538--REDEF
READ$DCB.PRECNO IN PROCEDURE READ_FROM_ME
     10561**DCL     10561--REDEF
READ$DCB.RCSZ IN PROCEDURE READ_FROM_ME
     10567**DCL     10567--REDEF
READ$DCB.RES# IN PROCEDURE READ_FROM_ME
     10534**DCL     10534--REDEF
READ$DCB.SETX IN PROCEDURE READ_FROM_ME
     10546**DCL     10546--REDEF
READ$DCB.TAB$ IN PROCEDURE READ_FROM_ME
     10546**DCL     10546--REDEF
READ$DCB.TDA IN PROCEDURE READ_FROM_ME
     10560**DCL     10561--REDEF
READ$DCB.WSN# IN PROCEDURE READ_FROM_ME
     10534**DCL     10534--REDEF
READ_COMMAND_RECORD
      9733**PROC     9491--CALL
READ_COMMAND_RECORD_FAILED
      9609**LABEL    9491--CALLALT  9507--GOTO
READ_COMPLETED_OK IN PROCEDURE READ_FROM_ME
     10625**LABEL   10631--EXIT
READ_DCB$ IN PROCEDURE CMD_STREAM_READ
      9993**DCL     10108--IMP-PTR
READ_DCB$ IN PROCEDURE READ_FROM_ME
     10453**DCL     10517--IMP-PTR 10599<<ASSIGN  10626>>ASSIGN  10628>>ASSIGN  10629>>IF      10631>>IF
     10634>>IF      10641>>IF      10641>>IF      10641>>IF      10651>>ASSIGN
READ_FROM_ME IN PROCEDURE READ_COMMAND_RECORD
     10407**PROC    10279--CALL
READ_FROM_ME_FAILED IN PROCEDURE CMD_STREAM_READ
     10339**LABEL   10279--CALLALT
REC_NUM_INCR IN PROCEDURE READ_COMMAND_RECORD
      9736**DCL      9802<<ASSIGN   9813<<ASSIGN   9831>>ASSIGN
REPL IN PROCEDURE REPLACE_STRING_AND_SKIP
PL6.E3A0      #003=VDI$PGET_COMMAND_RECORD File=VDI$PARSE.:VDA5TSI               FRI 07/04/97 11:34 Page:399
     11131**DCL     11103--PROC
REPL.BYTES IN PROCEDURE REPLACE_STRING_AND_SKIP
     11159**DCL     11255>>CALLBLT 11283>>CALLBLT
REPL.LENGTH# IN PROCEDURE REPLACE_STRING_AND_SKIP
     11157**DCL     11159--IMP-SIZ 11239>>ASSIGN  11255>>CALLBLT 11260>>CALLBLT 11283>>CALLBLT 11283>>CALLBLT
     11287>>CALLBLT 11294>>ASSIGN
REPLACE_STRING_AND_SKIP
     11103**PROC     9592--CALL
REPLACE_STRING_AND_SKIP_FAILED
      9609**LABEL    9592--CALLALT
RETURN_RECORD
      9600**LABEL    9510--GOTO
RIGHT_INDEX IN PROCEDURE REPLACE_STRING_AND_SKIP
     11168**DCL     11237<<ASSIGN  11238>>ASSIGN  11260>>CALLBLT 11279>>CALLBLT
RIGHT_LN IN PROCEDURE REPLACE_STRING_AND_SKIP
     11169**DCL     11238<<ASSIGN  11239>>ASSIGN  11240>>IF      11259>>IF      11260>>CALLBLT 11260>>CALLBLT
     11278>>IF      11279>>CALLBLT 11279>>CALLBLT 11286>>IF      11287>>CALLBLT 11287>>CALLBLT 11295>>IF
SCAN_INDEX
      8641**DCL      9548<<ASSIGN   9550>>DOWHILE  9551<>CALL     9563<<ASSIGN   9563>>ASSIGN   9564<>CALL
      9566<<ASSIGN   9566>>ASSIGN   9570<<ASSIGN   9570>>ASSIGN   9571<>CALL     9573<<ASSIGN   9573>>ASSIGN
      9592<>CALL     9598<<ASSIGN   9598>>ASSIGN
SCAN_INDEX IN PROCEDURE FIND_TOKEN
     10848**DCL     10847--PROC    10958--ENTRY   10966>>DOWHILE 10967>>IF      10967>>IF      10970<>CALL
     10973>>IF      10973>>IF      10977<<CALLBLT 10977>>CALLBLT 10979<<ASSIGN  10979>>ASSIGN  10982>>ASSIGN
     10988<<ASSIGN  10988>>ASSIGN  10989>>DOWHILE 10991>>ASSIGN  10994<<ASSIGN  10994>>ASSIGN  10998<<ASSIGN
     10998>>ASSIGN  11002>>DOWHILE 11004>>ASSIGN  11010>>ASSIGN  11016>>DOWHILE 11018>>ASSIGN  11023>>ASSIGN
     11028<>CALL
SINK$ IN PROCEDURE POP_STACK_AND_POSTN
     10739**DCL     10755<>CALL
SKIP_STRING_LITERAL
     11356**PROC    10970--CALL
SKIP_STRING_LITERAL_FAILED IN PROCEDURE FIND_TOKEN
     11031**LABEL   10970--CALLALT
STR_INDEX IN PROCEDURE REPLACE_STRING_AND_SKIP
     11104**DCL     11103--PROC    11236>>ASSIGN  11237>>ASSIGN  11294<<ASSIGN  11294>>ASSIGN  11296<<ASSIGN
     11296>>ASSIGN
PL6.E3A0      #003=VDI$PGET_COMMAND_RECORD File=VDI$PARSE.:VDA5TSI               FRI 07/04/97 11:34 Page:400
STR_LN IN PROCEDURE REPLACE_STRING_AND_SKIP
     11105**DCL     11103--PROC    11237>>ASSIGN
SY$KEY.BYTES
      8854**DCL      9590>>IF
SY$KEY.LENGTH#
      8852**DCL      8854--IMP-SIZ  9590>>IF
SYND_RECORD_TOO_LONG_FAILURE IN PROCEDURE REPLACE_STRING_AND_SKIP
     11302**LABEL   11243--GOTO
SYNONYMS$STREAM
      8983**DCL      9577<>CALL
SYNONYMS$STREAM.PORT$
      9009**DCL      9587>>IF       9587>>ASSIGN   9587>>ASSIGN   9592>>CALL     9592>>CALL
SYNONYM_LOC
      8650**DCL      9541<<ASSIGN   9577<>CALL
SYNONYM_LOC.KEY.REP#
      8666**DCL      9543<<ASSIGN
SYNONYM_LOC.KEY.TYPE#
      8666**DCL      9542<<ASSIGN
SYNONYM_LOC.KEY.V$
      8666**DCL      9544<<ASSIGN
SY_KEY$
      8733**DCL      8844--IMP-PTR  9587<<ASSIGN   9587<<ASSIGN   9590>>IF       9590>>IF
TOKEN
      8696**DCL      9544--ASSIGN   9545<<ASSIGN   9551<>CALL     9564<>CALL     9571<>CALL
TOKEN.BYTES
      8729**DCL      9555<<CALLBLT  9555>>CALLBLT  9559>>DOSELCT  9590>>IF
TOKEN.LENGTH#
      8725**DCL      9554>>IF       9555>>CALLBLT  9555>>CALLBLT  9559>>DOSELCT  9563>>ASSIGN   9566>>ASSIGN
      9570>>ASSIGN   9573>>ASSIGN   9590>>IF       9592<>CALL     9598>>ASSIGN
TOKEN.OBJECT.CLASS#
      8723**DCL      9546<<ASSIGN
TOKEN IN PROCEDURE FIND_TOKEN
     10875**DCL     10847--PROC    10958--ENTRY
TOKEN.BYTES IN PROCEDURE FIND_TOKEN
     10906**DCL     11010<<ASSIGN  11023<<ASSIGN
TOKEN.LENGTH# IN PROCEDURE FIND_TOKEN
PL6.E3A0      #003=VDI$PGET_COMMAND_RECORD File=VDI$PARSE.:VDA5TSI               FRI 07/04/97 11:34 Page:401
     10904**DCL     10906--IMP-SIZ 10963<<ASSIGN  11001<<ASSIGN  11002>>DOWHILE 11004>>ASSIGN  11008<<ASSIGN
     11008>>ASSIGN  11010>>ASSIGN  11010>>ASSIGN  11015<<ASSIGN  11016>>DOWHILE 11018>>ASSIGN  11021<<ASSIGN
     11021>>ASSIGN  11023>>ASSIGN  11023>>ASSIGN
UNBAL_STRING_FAILURE IN PROCEDURE SKIP_STRING_LITERAL
     11384**LABEL   11373--CALLALT
VD$BUFFER
      9321**DCL      9592<>CALL
VD$BUFFER.LENGTH#
      9347**DCL      9349--IMP-SIZ  9592>>CALL
VD$BUFFER IN PROCEDURE CMD_STREAM_READ
     10074**DCL     10229<>CALL
VD$BUFFER.BYTES IN PROCEDURE CMD_STREAM_READ
     10102**DCL     10319>>IF      10336<<ASSIGN  10336>>ASSIGN
VD$BUFFER.FLINK$ IN PROCEDURE CMD_STREAM_READ
     10100**DCL     10212>>IF      10227>>ASSIGN  10228<<ASSIGN
VD$BUFFER.LENGTH# IN PROCEDURE CMD_STREAM_READ
     10100**DCL     10102--IMP-SIZ 10229>>CALL    10319>>IF      10333<<ASSIGN  10333>>ASSIGN  10335>>IF
     10336>>ASSIGN  10336>>ASSIGN  10336>>ASSIGN
VD$BUFFER.LENGTH# IN PROCEDURE READ_COMMAND_RECORD
      9792**DCL      9794--IMP-SIZ  9822<<ASSIGN
VD$BUFFER IN PROCEDURE READ_FROM_ME
     10483**DCL     10586<>CALL
VD$BUFFER.BYTES IN PROCEDURE READ_FROM_ME
     10511**DCL     10597--ASSIGN
VD$BUFFER.LENGTH# IN PROCEDURE READ_FROM_ME
     10509**DCL     10511--IMP-SIZ 10586>>CALL    10596<<ASSIGN  10597>>ASSIGN  10626<<ASSIGN
VD$BUFFER.OBJECT.SIZE# IN PROCEDURE READ_FROM_ME
     10507**DCL     10585>>IF
VD$BUFFER_HEADER
      9362**DCL      9818--CALL    10581--ASSIGN  11244--IF      11251--CALL
VD$COMMENT.BYTES
      8912**DCL     10973>>IF      10977>>CALLBLT
VD$COMMENT.LENGTH#
      8910**DCL      8912--IMP-SIZ 10973>>IF      10973>>IF      10973>>IF      10973>>IF      10977>>CALLBLT
     10977>>CALLBLT 10979>>ASSIGN
VD$ERR.CMDLINE_INDEX#
PL6.E3A0      #003=VDI$PGET_COMMAND_RECORD File=VDI$PARSE.:VDA5TSI               FRI 07/04/97 11:34 Page:402
      9131**DCL     11393<<ASSIGN
VD$ERR.DCB#
      9131**DCL     10676<<ASSIGN
VD$ERR.ERR
      9126**DCL      9621>>ASSIGN  10674<<ASSIGN
VD$ERR.ERR.CODE#
      9128**DCL      9505<<ASSIGN  11304<<ASSIGN  11386<<ASSIGN
VD$ERR.FLAGLEV#
      9131**DCL      9506<<ASSIGN  10675<<ASSIGN  11305<<ASSIGN  11387<<ASSIGN
VD$IT_COMMAND IN PROCEDURE CMD_STREAM_READ
     10172**DCL     10272<>CALL
VD$OBJECT_HEADER
      9406**DCL      9485<>CALL
VD$PORT.CURRENT.KEY.REP#
      9273**DCL      9587>>IF
VD$PORT.CURRENT.KEY.V$
      9273**DCL      9587>>ASSIGN   9587--ASSIGN
VD$PORT.LEVEL.DATA$
      9293**DCL      9592>>CALL     9592>>CALL
VD$TEXTC_REMOTE.LENGTH#
      9466**DCL      9468--IMP-SIZ  9587--ASSIGN
VDA$LREAD
      7698**DCL-ENT  9577--CALL
VDG$ERASE_COMMAND_WINDOW
      7704**DCL-ENT 10577--CALL
VDG$ESCREECH
      7707**DCL-ENT  9607--CALL     9637--CALL    10284--CALL    11028--CALL    11258--CALL    11263--CALL
     11281--CALL    11285--CALL    11290--CALL
VDG$OALLOC
      7705**DCL-ENT  9504--CALL     9818--CALL    10592--CALL    10672--CALL    10755--CALL    11251--CALL
     11302--CALL    11384--CALL
VDG$OFREE
      7706**DCL-ENT  9485--CALL    10229--CALL    10272--CALL    10305--CALL    10586--CALL    10751--CALL
     11266--CALL
VDI$CEND_GLOBAL
      7708**DCL-ENT 10744--CALL
PL6.E3A0      #003=VDI$PGET_COMMAND_RECORD File=VDI$PARSE.:VDA5TSI               FRI 07/04/97 11:34 Page:403
VDI$PGET_COMMAND_RECORD
        68**PROC     9479--ASSIGN
VDI$PREAD_FILE_CLOSE
      7700**DCL-ENT 10348--CALL    10748--CALL    10762--CALL    10776--CALL
VDI$PREAD_FILE_OPEN
      7699**DCL-ENT 10764--CALL
VDI$PREAD_FILE_POSITION
      7701**DCL-ENT 10766--CALL
VDI$PREAD_FILE_READ
      7702**DCL-ENT 10262--CALL
VDW$LOAD
      7703**DCL-ENT 10248--CALL
VD_$COMMENT
      7773**DCL      8572--DCLINIT
VD_$COMMENT.LENGTH#
      7799**DCL      7801--IMP-SIZ
VD_6E.CMD_STREAM$
      7742**DCL      8747--IMP-PTR  9494>>IF       9496>>ASSIGN   9500>>IF       9501>>ASSIGN   9631>>IF
      9634>>ASSIGN   9812>>IF       9814>>IF       9817>>IF       9818>>CALL     9822>>ASSIGN   9831>>ASSIGN
      9831>>ASSIGN  10209>>DOCASE  10212>>IF      10212>>IF      10212>>IF      10212>>IF      10212>>IF
     10224>>IF      10225>>ASSIGN  10225>>ASSIGN  10226>>IF      10227>>ASSIGN  10228>>ASSIGN  10229>>CALL
     10229>>CALL    10231>>ASSIGN  10238>>IF      10257>>IF      10257>>IF      10261>>IF      10265>>IF
     10265>>IF      10271>>IF      10272>>CALL    10274>>ASSIGN  10278>>IF      10284>>CALL    10297>>IF
     10298>>IF      10300>>ASSIGN  10301>>DOWHILE 10303>>ASSIGN  10304>>ASSIGN  10311>>IF      10312>>ASSIGN
     10313>>IF      10319>>IF      10321>>ASSIGN  10321>>ASSIGN  10325>>IF      10333>>ASSIGN  10336>>ASSIGN
     10338>>ASSIGN  10583>>IF      10584>>ASSIGN  10588>>ASSIGN  10591>>IF      10592>>CALL    10595>>ASSIGN
     10651>>ASSIGN  10743>>IF      10746>>IF      10746>>IF      10751>>CALL    10754>>IF      10757>>ASSIGN
     10760>>IF      10760>>IF      11269>>ASSIGN
VD_6E.ERR_HEAD$
      7743**DCL      9142--IMP-PTR 10663>>ASSIGN  10664>>IF      10665>>ASSIGN  10666>>ASSIGN  10668>>ASSIGN
     10669>>ASSIGN
VD_6E.ERR_TAIL$
      7743**DCL      9621>>ASSIGN
VD_6E.INTERRUPT.STATE#
      7743**DCL     10605>>ASSIGN  10606<<ASSIGN  10615<<ASSIGN
VD_6E.SYNONYMS$
PL6.E3A0      #003=VDI$PGET_COMMAND_RECORD File=VDI$PARSE.:VDA5TSI               FRI 07/04/97 11:34 Page:404
      7724**DCL      8983--IMP-PTR  9577>>CALL     9587>>IF       9587>>ASSIGN   9587>>ASSIGN   9592>>CALL
      9592>>CALL
VD_ASYM
      7807**DCL      9640--ASSIGN
VD_BUFFER$ IN PROCEDURE CMD_STREAM_READ
      9992**DCL     10074--IMP-PTR 10227<<ASSIGN  10231>>ASSIGN  10312<<ASSIGN  10319>>IF      10319>>IF
     10333>>ASSIGN  10333>>ASSIGN  10335>>IF      10336>>ASSIGN  10336>>ASSIGN  10336>>ASSIGN  10336>>ASSIGN
     10336>>ASSIGN
VD_BUFFER$ IN PROCEDURE READ_FROM_ME
     10452**DCL     10483--IMP-PTR 10584<<ASSIGN  10585>>IF      10586>>CALL    10586>>CALL    10595<<ASSIGN
     10596>>ASSIGN  10597>>ASSIGN  10597>>ASSIGN  10626>>ASSIGN
VD_CMD_OBJECTS$
      7816**DCL      9484>>IF       9485>>CALL     9487<<ASSIGN
VD_ERR$
      8735**DCL      9089--IMP-PTR  9504<>CALL     9505>>ASSIGN   9506>>ASSIGN  10672<>CALL    10674>>ASSIGN
     10675>>ASSIGN  10676>>ASSIGN  11302<>CALL    11304>>ASSIGN  11305>>ASSIGN  11384<>CALL    11386>>ASSIGN
     11387>>ASSIGN  11393>>ASSIGN
VD_FORCE_READ_FROM
      7809**DCL     10633<<ASSIGN  10647<<ASSIGN
VD_LAST_CWIN_ACTIVITY
      7808**DCL     10576>>IF
VD_STATIC_TEMP
      7815**DCL     11279<<CALLBLT 11287>>CALLBLT
VD_XLATE_CHAR_CLASS
      7814**DCL     10954--ASSIGN
WLOAD_FAILED IN PROCEDURE CMD_STREAM_READ
     10339**LABEL   10248--CALLALT
WRITE_BLANK_LINE.STATION_ IN PROCEDURE CMD_STREAM_READ
      9974**DCL      9974--REDEF
WRITE_BLANK_LINE.V IN PROCEDURE CMD_STREAM_READ
      9975**DCL      9972--DCLINIT
WRITE_BLANK_LINE.V.DVBYTE.VFC# IN PROCEDURE CMD_STREAM_READ
      9981**DCL      9981--REDEF
XLATE_FID_CHAR_CLASS IN PROCEDURE FIND_TOKEN
     10914**DCL     10959--ASSIGN
XUG_GETCMD.INDCB#
PL6.E3A0      #003=VDI$PGET_COMMAND_RECORD File=VDI$PARSE.:VDA5TSI               FRI 07/04/97 11:34 Page:405
      8001**DCL     10598>>ASSIGN
XUG_GETCMD.NODES$
      7831**DCL      9640<<ASSIGN
XUG_GETCMD.OUT$
      7835**DCL      7841--REDEF
XUG_GETCMD.TREAD#
      7879**DCL     10206<<ASSIGN  10234<<ASSIGN  10267<<ASSIGN  10602>>DOUNTIL 10650<<ASSIGN

