PL6.E3A0      #002=VDI$PARSE_TREE_TO_INTREE File=VDI$PARSE.:VDA5TSI              FRI 07/04/97 11:34 Page:166
     1324        1        /*T***********************************************************/
     1325        2        /*T*                                                         */
     1326        3        /*T* Copyright (c) Bull HN Information Systems Inc., 1997    */
     1327        4        /*T*                                                         */
     1328        5        /*T***********************************************************/
     1329        6
     1330        7        /*D* NAME: VDI$PARSE_TREE_TO_INTREE
     1331        8            PARAMETERS:
     1332        9                PT_COMMAND_PARENT - The parent ParseTree node of the single command
     1333       10                    node to convert.
     1334       11                CMD_INDEX - Index into PT_COMMAND_PARENT's children of the single
     1335       12                    command node to convert.  This child node should have .CODE# =
     1336       13                    %T_xxx_CMD.  (Exception:  for the EQUALS command, this will be a
     1337       14                    T_DEF_NAME node, and the next child of PT_COMMAND_PARENT will be the
     1338       15                    T_EQUALS_CMD node.)
     1339       16                IT_COMMAND$ - A pointer:  either NIL; or it points to a cleared/NILd
     1340       17                    VD$IT_COMMAND InTree node.
     1341       18            INPUT:
     1342       19            OUTPUT:
     1343       20                IT_COMMAND$ will point to a (chain of) VD$IT_COMMAND node(s), which
     1344       21                    contain(s) the info from the ParseTree.  As such, the individual
     1345       22                    VD$IT_COMMAND nodes in the chain can be passed to any of the
     1346       23                    command handlers (VDI$Cxxx) for processing.
     1347       24                CMD_INDEX will be incremented beyond any PT_COMMAND_PARENT children
     1348       25                    which have been processed.
     1349       26            DESCRIPTION:
     1350       27                Based on the type of command, build an IT_COMMAND InTree node (or a
     1351       28                chain of 'em) with the info from the ParseTree node(s).
     1352       29        */
     1353       30
     1354       31        VDI$PARSE_TREE_TO_INTREE: PROC (PT_COMMAND_PARENT, CMD_INDEX, IT_COMMAND$)
     1355       32                  ALTRET;
     1356       33
     1357       34        %INCLUDE VD_MACROS_M;
     1358     2249        %INCLUDE VD_PERR_C;
     1359     2397        %INCLUDE VD_NODES0_E;
     1360     2489        %INCLUDE XUE_MACRO_C;
PL6.E3A0      #002=VDI$PARSE_TREE_TO_INTREE File=VDI$PARSE.:VDA5TSI              FRI 07/04/97 11:34 Page:167
     1361     3233        %INCLUDE XU_MACRO_C;
     1362     6327        %INCLUDE XU_SUBS_C;
     1363     6419        %INCLUDE B$TABLES_C;
     1364     6527
     1365     6528
     1366     6529        %PARSE$OUT (NAME=PT_COMMAND_PARENT, STCLASS=PARAM);
     1367     6574    1   DCL CMD_INDEX SBIN;
     1368     6575    1   DCL IT_COMMAND$ PTR;
     1369     6576
     1370     6577    1   DCL VDE$PSTRING         ENTRY (5) ALTRET;
     1371     6578    1   DCL VDE$PNUMBER         ENTRY (2) ALTRET;
     1372     6579    1   DCL VDG$ERRMSG          ENTRY (4) ALTRET;
     1373     6580    1   DCL VDG$OALLOC          ENTRY (3) ALTRET;
     1374     6581    1   DCL VDG$OFREE           ENTRY (1) ALTRET;
     1375     6582    1   DCL VDG$ESCREECH        ENTRY (3);
     1376     6583
     1377     6584
     1378     6585        %VD_6E (STCLASS=SYMREF);
     1379     6621        %VD$POINTER (NAME=VD_$STRUCTURE, STCLASS=SYMREF);
     1380     6666        %B$XL_UPPER;
     1381     6670        %XUE_ECB (NAME=XUE_ECB, STCLASS=SYMREF);
     1382     6872    1   DCL VD_SCREEN_HEIGHT SBIN SYMREF;
     1383     6873    1   DCL VD_EDITING_HEIGHT SBIN SYMREF;
     1384     6874    1   DCL VD_EDITING_WINDOWS SBIN SYMREF;
     1385     6875    1   DCL VD_CURRENT_WINDOW$ PTR SYMREF;
     1386     6876        %VD$NUMBER (NAME=VD_$SCREEN, STCLASS=SYMREF);
     1387     6921        %VD$NUMBER (NAME=VD_$MIN_COMMAND, STCLASS=SYMREF);
     1388     6966        %VD$NUMBER (NAME=VD_$WI_PERCENT, STCLASS=SYMREF);
     1389     7011
     1390     7012
     1391     7013        %VD_BUFFER (NAME=ZERO_LENGTH_BUFFER, STCLASS=CONSTANT, IBYTES="''");
     1392     7073
     1393     7074
     1394     7075    1   DCL CMD_BLK$ PTR;
     1395     7076    1   DCL SYM_BLK$ PTR;
     1396     7077    1   DCL SYM_BLK SBIN;
     1397     7078    1   DCL RETCODE CHAR(1) CALIGNED;
PL6.E3A0      #002=VDI$PARSE_TREE_TO_INTREE File=VDI$PARSE.:VDA5TSI              FRI 07/04/97 11:34 Page:168
     1398     7079    1   DCL SINK SBIN;
     1399     7080    1   DCL WINDOW_SUBSCRIPT SBIN;
     1400     7081    1   DCL VD_BUFFER$ PTR;
     1401     7082    1   DCL VD_NUMBER$ PTR;
     1402     7083    1   DCL CTRL_FN_ARGS_ARRAY(0:%(MX_CTRL_FN_ARGS-1)) SBIN;
     1403     7084    1   DCL VD_ERR$ PTR;
     1404     7085    1   DCL SUBST_FIELD$ PTR;
     1405     7086
     1406     7087
     1407     7088        %VD$CMD_STREAM (NAME=CMD$STREAM, STCLASS="BASED(VD_6E.CMD_STREAM$)");
     1408     7127        %VD$IT_COMMAND (NAME=IT$COMMAND, STCLASS="BASED(IT_COMMAND$)");
     1409     7165        %PARSE$OUT (NAME=CMD$BLK, STCLASS="BASED(CMD_BLK$)");
     1410     7210        %PARSE$SYM (NAME=CMD$SYM, STCLASS="BASED(CMD_BLK$)");
     1411     7248        %PARSE$SYM (NAME=SYM$BLK, STCLASS="BASED(SYM_BLK$)");
     1412     7286        %VD$BUFFER (NAME=VD$BUFFER, STCLASS="BASED(VD_BUFFER$)");
     1413     7344        %VD$NUMBER (NAME=VD$NUMBER, STCLASS="BASED(VD_NUMBER$)");
     1414     7389        %VD$ERR (NAME=VD$ERR, STCLASS="BASED(VD_ERR$)");
     1415     7442        %VD$FILE_NODE;
     1416     7535        %VD$KEY_NUMBER;
     1417     7550        %VD$NUMBER (NAME=SUBST$NUMBER, DIM="(0:2)", STCLASS="BASED(SUBST_FIELD$)");
     1418     7595        %VD$TEXTC;
     1419     7618        %VD$BUFFER_HEADER;
     1420     7654
     1421     7655    2           IF IT_COMMAND$ = ADDR(NIL) THEN DO;
     1422     7656    2              CALL VDG$OALLOC (%CLS_IT_COMMAND, IT_COMMAND$)
     1423     7657    2                ALTRET (OALLOC_FAILED);
     1424     7658    2              END;
     1425     7659
     1426     7660    1           CMD_BLK$ = PT_COMMAND_PARENT.SUBLK$ (CMD_INDEX);
     1427     7661                %INCREMENT (ARRAY=STATS_TOKENS#, INDX="CMD$BLK.CODE - %VD_BASE#");
     1428     7664    1           IT$COMMAND.CODE# = CMD$BLK.CODE;
     1429     7665    1           IF CMD_INDEX > 0 THEN
     1430     7666    1              IT$COMMAND.CMDLINE_INDEX# = CMD$BLK.CPOS;
     1431     7667
     1432     7668
     1433     7669    1   CMD_CODE_CASES:
     1434     7670    2           DO CASE (IT$COMMAND.CODE#);
PL6.E3A0      #002=VDI$PARSE_TREE_TO_INTREE File=VDI$PARSE.:VDA5TSI              FRI 07/04/97 11:34 Page:169
     1435     7671    2            CASE (%T_EDIT_CMD, %T_DISPLAY_CMD, %T_COPY_CMD, %T_AFTER_CMD,
     1436     7672    2             %T_DELETE_CMD, %T_OVER_CMD, %T_MOVE_CMD, %T_SHOW_CMD);
     1437     7673                   /*
     1438     7674                   *  The ParseTree for the editing commands (except the LOCATION
     1439     7675                   *  command) is:
     1440     7676                   *
     1441     7677                   *                        T_xxx_CMD
     1442     7678                   *                            |
     1443     7679                   *                       T_BLOCK_EXPR
     1444     7680                   */
     1445     7681    2              IT$COMMAND.PT_BLOCK_EXPR$ = CMD$BLK.SUBLK$ (0);
     1446     7682    2            CASE (%T_BLOCK_EXPR, %T_STRING_EXPR);
     1447     7683                   /*
     1448     7684                   *  This is an implicit (verb-less) editing command.
     1449     7685                   */
     1450     7686    2              IT$COMMAND.PT_BLOCK_EXPR$ = ADDR(CMD$BLK);
     1451     7687
     1452     7688
     1453     7689    2            CASE (%T_DEF_NAME);
     1454     7690                   /*
     1455     7691                   *  The ParseTree for the EQUALS command is actually TWO children
     1456     7692                   *  of the PT_COMMAND_PARENT node:
     1457     7693                   *
     1458     7694                   *      T_DEF_NAME             T_EQUALS_CMD
     1459     7695                   *          |                       |
     1460     7696                   *       .symbol          ----------------- (opt.) ---
     1461     7697                   *                        |                          |
     1462     7698                   *                  T_STRING_EXPR               T_IN_WINDOW
     1463     7699                   *                        |                          |
     1464     7700                   *                     XUE_EXP#                      |
     1465     7701                   *                                                one of:
     1466     7702                   *
     1467     7703                   *  T_COMMAND_WINDOW  or  T_EDITING_WINDOW  or  T_SPECIFIC_WINDOW
     1468     7704                   *                                                     |
     1469     7705                   *                                                T_STRING_EXPR
     1470     7706                   *                                                     |
     1471     7707                   *                                                  XUE_EXP#
PL6.E3A0      #002=VDI$PARSE_TREE_TO_INTREE File=VDI$PARSE.:VDA5TSI              FRI 07/04/97 11:34 Page:170
     1472     7708                   */
     1473     7709    2              SYM_BLK$ = CMD$BLK.SUBLK$ (0);
     1474     7710    2              CALL XLATE (SYM$BLK.TEXT, B$XL_UPPER, SYM$BLK.TEXT);
     1475     7711    2              CALL MAKE_TEXTC_REMOTE (SYM$BLK.TEXTC$ -> VD$TEXTC,
     1476     7712    2                IT$COMMAND.PARAM$ (%CP_EQ_NAME))
     1477     7713    2                ALTRET (MAKE_TEXTC_REMOTE_FAILED);
     1478     7714
     1479     7715    2              CMD_INDEX = CMD_INDEX + 1;
     1480     7716    2              CMD_BLK$ = PT_COMMAND_PARENT.SUBLK$ (CMD_INDEX);
     1481     7717    2              IT$COMMAND.CODE# = CMD$BLK.CODE;
     1482     7718                   %INCREMENT (ARRAY=STATS_TOKENS#, INDX="CMD$BLK.CODE - %VD_BASE#");
     1483     7721
     1484     7722                   %INCREMENT (ARRAY=STATS_TOKENS#,
     1485     7723                   INDX="CMD$BLK.SUBLK$ (0) -> CMD$BLK.CODE - %VD_BASE#");
     1486     7726    2              CALL VDE$PSTRING
     1487     7727    2                (CMD$BLK.SUBLK$ (0) -> CMD$BLK.SUBLK$ (0) -> CMD$BLK, SINK)
     1488     7728    2                ALTRET (PSTRING_FAILED);
     1489     7729
     1490     7730    3              IF XUE_ECB.OUT$ ~= ADDR(NIL) THEN DO;
     1491     7731    3                 CALL VDG$OALLOC (%CLS_BUFFER, IT$COMMAND.PARAM$ (%CP_EQ_VALUE),
     1492     7732    3                   (LENGTHC(VD$BUFFER_HEADER) + XUE_ECB.OUT$ -> VD$TEXTC.LENGTH# +
     1493     7733    3                   %NB_PER_WORD-1) / %NB_PER_WORD) ALTRET (OALLOC_FAILED);
     1494     7734    3                 IT$COMMAND.PARAM$ (%CP_EQ_VALUE) -> VD$BUFFER.LENGTH# =
     1495     7735    3                   XUE_ECB.OUT$ -> VD$TEXTC.LENGTH#;
     1496     7736    3                 IT$COMMAND.PARAM$ (%CP_EQ_VALUE) -> VD$BUFFER.BYTES =
     1497     7737    3                   XUE_ECB.OUT$ -> VD$TEXTC.BYTES;
     1498     7738    3                 END;
     1499     7739    2              ELSE
     1500     7740    2                 IT$COMMAND.PARAM$ (%CP_EQ_VALUE) = ADDR(ZERO_LENGTH_BUFFER);
     1501     7741
     1502     7742    2              SINK = 1;
     1503     7743    2              IF CMD$BLK.NSUBLKS > 1 THEN
     1504     7744    2                 GOTO BUILD_WINDOW_SPECIFIER;
     1505     7745
     1506     7746
     1507     7747    2            CASE (%T_END_CMD);
     1508     7748    2              ;    /* Nothing to do */
PL6.E3A0      #002=VDI$PARSE_TREE_TO_INTREE File=VDI$PARSE.:VDA5TSI              FRI 07/04/97 11:34 Page:171
     1509     7749
     1510     7750
     1511     7751    2            CASE (%T_IF_CMD);
     1512     7752                   /*
     1513     7753                   *  The ParseTree for the IF/ELSE command is:
     1514     7754                   *
     1515     7755                   *      T_IF_CMD
     1516     7756                   *          |
     1517     7757                   *    T_STRING_EXPR (no subnodes for ELSE command)
     1518     7758                   *          |
     1519     7759                   *       XUE_EXP#
     1520     7760                   */
     1521     7761
     1522     7762    3              IF CMD$BLK.NSUBLKS=0 THEN DO; /* ELSE COMMAND */
     1523     7763    3                 IF NOT CMD$STREAM.IF_CMD THEN
     1524     7764    3                    GOTO ELSE_CMD_WITHOUT_IF_FAILURE;
     1525     7765    3                 CMD_INDEX = PT_COMMAND_PARENT.NSUBLKS - 1;
     1526     7766    3                 END;
     1527     7767    2              ELSE IF CMD_INDEX = PT_COMMAND_PARENT.NSUBLKS - 1 THEN
     1528     7768    2                    GOTO IF_COMMAND_LAST_FAILURE;
     1529     7769    3                 ELSE DO; /* IF COMMAND */
     1530     7770    3                    CALL VDE$PNUMBER
     1531     7771    3                      (CMD$BLK.SUBLK$(0) -> CMD$BLK.SUBLK$(0) -> CMD$BLK, SINK)
     1532     7772    3                      ALTRET (PNUMBER_FAILED);
     1533     7773    3                    IF SINK < 0 THEN SINK = 0; /* Prepare for level counting */
     1534     7774    3                    IF SINK > 0 THEN CMD$STREAM.IF_CMD = '1'B;
     1535     7775    4                    ELSE DO UNTIL SINK < 0;
     1536     7776    4                       CMD_INDEX = CMD_INDEX + 1;
     1537     7777    4                       IF CMD_INDEX = PT_COMMAND_PARENT.NSUBLKS-1 THEN EXIT;
     1538     7778    4                       CMD_BLK$ = PT_COMMAND_PARENT.SUBLK$ (CMD_INDEX);
     1539     7779    4                       IF CMD$BLK.CODE = %T_IF_CMD THEN
     1540     7780    4                          IF CMD$BLK.NSUBLKS > 0 THEN SINK = SINK + 1;
     1541     7781    4                          ELSE SINK = SINK - 1;
     1542     7782    4                       END;
     1543     7783    3                    END;
     1544     7784
     1545     7785    2              CALL VDG$OFREE (IT$COMMAND) ALTRET (OFREE_FAILED);
PL6.E3A0      #002=VDI$PARSE_TREE_TO_INTREE File=VDI$PARSE.:VDA5TSI              FRI 07/04/97 11:34 Page:172
     1546     7786    2              IT_COMMAND$ = ADDR(NIL);
     1547     7787
     1548     7788
     1549     7789    2            CASE (%T_KEYIN_CMD);
     1550     7790                   /*
     1551     7791                   *  The ParseTree for the KEYIN command is:
     1552     7792                   *
     1553     7793                   *                      T_KEYIN_CMD
     1554     7794                   *                           |
     1555     7795                   *          -------------------------------- (opt.) ---
     1556     7796                   *          |                         |               |
     1557     7797                   *  T_BREAK or T_KEYIN_NAME     T_KEYIN_VALUE    T_IN_WINDOW
     1558     7798                   *                   |                |               |
     1559     7799                   *             T_STRING_EXPR    T_STRING_EXPR         |
     1560     7800                   *                   |                |               |
     1561     7801                   *                XUE_EXP#         XUE_EXP#        one of:
     1562     7802                   *
     1563     7803                   *  T_COMMAND_WINDOW  or  T_EDITING_WINDOW  or  T_SPECIFIC_WINDOW
     1564     7804                   *                                                     |
     1565     7805                   *                                                T_STRING_EXPR
     1566     7806                   *                                                     |
     1567     7807                   *                                                  XUE_EXP#
     1568     7808                   */
     1569     7809
     1570     7810                   %INCREMENT (ARRAY=STATS_TOKENS#,
     1571     7811                   INDX="CMD$BLK.SUBLK$ (0) -> CMD$BLK.CODE - %VD_BASE#");
     1572     7814    2              CALL VDE$PSTRING (CMD$BLK.SUBLK$(0) -> CMD$BLK.SUBLK$(0) ->
     1573     7815    2                CMD$BLK.SUBLK$(0) -> CMD$BLK, SINK,
     1574     7816    2                IT$COMMAND.PARAM$ (%CP_KE_NAME), RETCODE, CTRL_FN_ARGS_ARRAY)
     1575     7817    2                ALTRET (PSTRING_FAILED);
     1576     7818    2              IF RETCODE ~= %CHR_SPACE THEN
     1577     7819    2                 GOTO CTRLFN_CONFLICTS_W_KEYIN_ERROR;
     1578     7820
     1579     7821    2              IF IT$COMMAND.PARAM$ (%CP_KE_NAME) = ADDR(NIL) THEN
     1580     7822    2                 IT$COMMAND.PARAM$ (%CP_KE_NAME) = ADDR(ZERO_LENGTH_BUFFER);
     1581     7823
     1582     7824                   %INCREMENT (ARRAY=STATS_TOKENS#,
PL6.E3A0      #002=VDI$PARSE_TREE_TO_INTREE File=VDI$PARSE.:VDA5TSI              FRI 07/04/97 11:34 Page:173
     1583     7825                   INDX="CMD$BLK.SUBLK$ (1) -> CMD$BLK.CODE - %VD_BASE#");
     1584     7828    2              CALL VDE$PSTRING (CMD$BLK.SUBLK$ (1) -> CMD$BLK.SUBLK$ (0) ->
     1585     7829    2                CMD$BLK.SUBLK$ (0) -> CMD$BLK, SINK,
     1586     7830    2                IT$COMMAND.PARAM$ (%CP_KE_VALUE), RETCODE, CTRL_FN_ARGS_ARRAY)
     1587     7831    2                ALTRET (PSTRING_FAILED);
     1588     7832    2              IF RETCODE ~= %CHR_SPACE THEN
     1589     7833    2                 GOTO CTRLFN_CONFLICTS_W_KEYIN_ERROR;
     1590     7834
     1591     7835    2              IF IT$COMMAND.PARAM$ (%CP_KE_VALUE) = ADDR(NIL) THEN
     1592     7836    2                 IT$COMMAND.PARAM$ (%CP_KE_VALUE) = ADDR(ZERO_LENGTH_BUFFER);
     1593     7837
     1594     7838    2              SINK = 2;
     1595     7839    2              IF CMD$BLK.NSUBLKS > 2 THEN
     1596     7840    3   BUILD_WINDOW_SPECIFIER: DO;
     1597     7841                      /* Build a VD$NUMBER containing the window specifier */
     1598     7842                      %INCREMENT (ARRAY=STATS_TOKENS#,
     1599     7843                      INDX="CMD$BLK.SUBLK$ (SINK) -> CMD$BLK.CODE - %VD_BASE#");
     1600     7846    3                 CMD_BLK$ = CMD$BLK.SUBLK$ (SINK) -> CMD$BLK.SUBLK$ (0);
     1601     7847                      %INCREMENT (ARRAY=STATS_TOKENS#, INDX="CMD$BLK.CODE - %VD_BASE#");
     1602     7850    3                 IF CMD$BLK.CODE = %T_COMMAND_WINDOW THEN
     1603     7851    3                    WINDOW_SUBSCRIPT = %WK_COMMAND_WINDOW + %WI_KEY_OFFSET;
     1604     7852    3                 ELSE IF CMD$BLK.CODE = %T_EDITING_WINDOW THEN
     1605     7853    3                       WINDOW_SUBSCRIPT = %WI_EDITING;
     1606     7854    4                    ELSE DO;
     1607     7855                            %INCREMENT (ARRAY=STATS_TOKENS#,
     1608     7856                            INDX="CMD$BLK.SUBLK$ (0) -> CMD$BLK.CODE - %VD_BASE#");
     1609     7859    4                       CALL VDE$PNUMBER (CMD$BLK.SUBLK$ (0) ->
     1610     7860    4                         CMD$BLK.SUBLK$ (0) -> CMD$BLK, WINDOW_SUBSCRIPT)
     1611     7861    4                         ALTRET (PNUMBER_FAILED);
     1612     7862    4                       IF WINDOW_SUBSCRIPT < 0 OR WINDOW_SUBSCRIPT >
     1613     7863    4                         (%MX_EDITING_WINDOWS + %WK_1ST_EDITING_WINDOW - 1) THEN
     1614     7864    4                          GOTO WI_KEY_NOT_IN_RANGE_FAILURE;
     1615     7865    4                       WINDOW_SUBSCRIPT = WINDOW_SUBSCRIPT + %WI_KEY_OFFSET;
     1616     7866    4                       END;
     1617     7867    3                 CALL VDG$OALLOC (%CLS_NUMBER, VD_NUMBER$)
     1618     7868    3                   ALTRET (OALLOC_FAILED);
     1619     7869    3                 IF SINK = 2 THEN
PL6.E3A0      #002=VDI$PARSE_TREE_TO_INTREE File=VDI$PARSE.:VDA5TSI              FRI 07/04/97 11:34 Page:174
     1620     7870    3                    IT$COMMAND.PARAM$ (%CP_KE_IN) = VD_NUMBER$;
     1621     7871    3                 ELSE
     1622     7872    3                    IT$COMMAND.PARAM$ (%CP_EQ_IN) = VD_NUMBER$;
     1623     7873    3                 VD$NUMBER.V# = WINDOW_SUBSCRIPT;
     1624     7874    3                 END BUILD_WINDOW_SPECIFIER;
     1625     7875
     1626     7876
     1627     7877    2            CASE (%T_LOCATION_CMD);
     1628     7878                   /*
     1629     7879                   *  The ParseTree for a LOCATION command is:
     1630     7880                   *
     1631     7881                   *                T_LOCATION_CMD
     1632     7882                   *                      |
     1633     7883                   *            ----------------------
     1634     7884                   *            |                    |
     1635     7885                   *        T_DEF_NAME          T_BLOCK_EXPR
     1636     7886                   *            |
     1637     7887                   *         .symbol
     1638     7888                   */
     1639     7889                   %INCREMENT (ARRAY=STATS_TOKENS#,
     1640     7890                   INDX="CMD$BLK.SUBLK$ (0) -> CMD$BLK.CODE - %VD_BASE#");
     1641     7893    2              SYM_BLK$ = CMD$BLK.SUBLK$ (0) -> CMD$BLK.SUBLK$ (0);
     1642     7894    2              CALL XLATE (SYM$BLK.TEXT, B$XL_UPPER, SYM$BLK.TEXT);
     1643     7895    2              CALL MAKE_TEXTC_REMOTE (SYM$BLK.TEXTC$ -> VD$TEXTC,
     1644     7896    2                IT$COMMAND.PARAM$ (%CP_LO_NAME))
     1645     7897    2                ALTRET (MAKE_TEXTC_REMOTE_FAILED);
     1646     7898
     1647     7899    2              IT$COMMAND.PT_BLOCK_EXPR$ = CMD$BLK.SUBLK$ (1);
     1648     7900
     1649     7901
     1650     7902    2            CASE (%T_READ_CMD);
     1651     7903                   /*
     1652     7904                   *  The ParseTree for the READ command is:
     1653     7905                   *
     1654     7906                   *             T_READ_CMD
     1655     7907                   *                 |
     1656     7908                   *               T_FID     *N* or T_BLOCK_EXPR or T_STRING_EXPR
PL6.E3A0      #002=VDI$PARSE_TREE_TO_INTREE File=VDI$PARSE.:VDA5TSI              FRI 07/04/97 11:34 Page:175
     1657     7909                   */
     1658     7910    2              SYM_BLK$ = CMD$BLK.SUBLK$ (0);
     1659     7911                   %INCREMENT (ARRAY=STATS_TOKENS#, INDX="SYM$BLK.CODE - %VD_BASE#");
     1660     7914    2              CALL MAKE_TEXTC_REMOTE (SYM$BLK.TEXTC$ -> VD$TEXTC,
     1661     7915    2                IT$COMMAND.PARAM$ (%CP_READ_FID))
     1662     7916    2                ALTRET (MAKE_TEXTC_REMOTE_FAILED);
     1663     7917
     1664     7918    2              CALL VDG$OALLOC (%CLS_NUMBER, VD_NUMBER$)
     1665     7919    2                ALTRET (OALLOC_FAILED);
     1666     7920    2              IT$COMMAND.PARAM$ (%CP_READ_NEXT_COMMAND) = VD_NUMBER$;
     1667     7921    2              VD$NUMBER.V# = 0;     /* Assume no more cmds on this record */
     1668     7922    3              IF CMD_INDEX < (PT_COMMAND_PARENT.NSUBLKS - 1) THEN DO;
     1669     7923    3                 VD$NUMBER.V# = PT_COMMAND_PARENT.SUBLK$ (CMD_INDEX + 1) ->
     1670     7924    3                   CMD$BLK.CPOS;
     1671     7925                      /* Force no more processing of this record for now */
     1672     7926    3                 CMD_INDEX = PT_COMMAND_PARENT.NSUBLKS;
     1673     7927    3                 END;
     1674     7928
     1675     7929
     1676     7930    2            CASE (%T_RESTORE_CMD);
     1677     7931                   /*
     1678     7932                   *  The ParseTree for the RESTORE command is:
     1679     7933                   *
     1680     7934                   *           T_RESTORE_CMD
     1681     7935                   *                 |
     1682     7936                   *               T_FID     *N* or T_BLOCK_EXPR or T_STRING_EXPR
     1683     7937                   */
     1684     7938    2              SYM_BLK$ = CMD$BLK.SUBLK$ (0);
     1685     7939                   %INCREMENT (ARRAY=STATS_TOKENS#, INDX="SYM$BLK.CODE - %VD_BASE#");
     1686     7942    2              CALL MAKE_TEXTC_REMOTE (SYM$BLK.TEXTC$ -> VD$TEXTC,
     1687     7943    2                IT$COMMAND.PARAM$ (%CP_RESTORE_FID))
     1688     7944    2                ALTRET (MAKE_TEXTC_REMOTE_FAILED);
     1689     7945
     1690     7946
     1691     7947    2            CASE (%T_SAVE_CMD);
     1692     7948                   /*
     1693     7949                   *  The ParseTree for the SAVE command is:
PL6.E3A0      #002=VDI$PARSE_TREE_TO_INTREE File=VDI$PARSE.:VDA5TSI              FRI 07/04/97 11:34 Page:176
     1694     7950                   *
     1695     7951                   *                             T_SAVE_CMD
     1696     7952                   *                                 |
     1697     7953                   *              (opt.) --------------------------------------
     1698     7954                   *                |                            |            |
     1699     7955                   *      ALL or SETUP or SESSION              T_TO or       FID
     1700     7956                   *                                          T_OVER or    (PARSE$SYM
     1701     7957                   *                                                       with fid)
     1702     7958                   */
     1703     7959
     1704     7960    2   EACH_SAVE_CHILD:
     1705     7961    3              DO SYM_BLK = 0 TO CMD$BLK.NSUBLKS - 1;
     1706     7962    3                 SYM_BLK$ = CMD$BLK.SUBLK$ (SYM_BLK);
     1707     7963                      %INCREMENT(ARRAY=STATS_TOKENS#, INDX="SYM$BLK.CODE - %VD_BASE#");
     1708     7966    4                 DO CASE (SYM$BLK.CODE);
     1709     7967    4                  CASE (%T_ALL);
     1710     7968    4                    IT$COMMAND.FLAGS (%CF_SAVE_ALL) = %TRUE;
     1711     7969
     1712     7970    4                  CASE (%T_SETUP);
     1713     7971    4                    IT$COMMAND.FLAGS (%CF_SAVE_SETUP) = %TRUE;
     1714     7972
     1715     7973    4                  CASE (%T_SESSION);
     1716     7974    4                    IT$COMMAND.FLAGS (%CF_SAVE_SESSION) = %TRUE;
     1717     7975
     1718     7976    4                  CASE (%T_TO);
     1719     7977    4                    IT$COMMAND.FLAGS (%CF_SAVE_TO) = %TRUE;
     1720     7978
     1721     7979    4                  CASE (%T_OVER);
     1722     7980    4                    IT$COMMAND.FLAGS (%CF_SAVE_OVER) = %TRUE;
     1723     7981
     1724     7982    4                  CASE (%T_FID);
     1725     7983    4                    CALL MAKE_TEXTC_REMOTE (SYM$BLK.TEXTC$ -> VD$TEXTC,
     1726     7984    4                      IT$COMMAND.PARAM$ (%CP_SAVE_FID))
     1727     7985    4                      ALTRET (MAKE_TEXTC_REMOTE_FAILED);
     1728     7986    4                  END;
     1729     7987    3                 END EACH_SAVE_CHILD;
     1730     7988
PL6.E3A0      #002=VDI$PARSE_TREE_TO_INTREE File=VDI$PARSE.:VDA5TSI              FRI 07/04/97 11:34 Page:177
     1731     7989    2              IF NOT IT$COMMAND.FLAGS (%CF_SAVE_SETUP)
     1732     7990    2                AND NOT IT$COMMAND.FLAGS (%CF_SAVE_SESSION) THEN
     1733     7991    2                 IT$COMMAND.FLAGS (%CF_SAVE_ALL) = %TRUE;  /* Default 1st param */
     1734     7992
     1735     7993
     1736     7994    2            CASE (%T_SYNONYM_CMD);
     1737     7995                   /*
     1738     7996                   *  The ParseTree for the SYNONYM command is:
     1739     7997                   *
     1740     7998                   *                         T_SYNONYM_CMD
     1741     7999                   *                               |
     1742     8000                   *                ---------------------------------
     1743     8001                   *                |                               |
     1744     8002                   *             either                        T_SY_VALUE
     1745     8003                   *       |       or        |                 (PARSE$SYM
     1746     8004                   *    T_DEF_NAME      T_SPECIAL_NAME         for value)
     1747     8005                   *       |            (PARSE$SYM for
     1748     8006                   *    .symbol         special name)
     1749     8007                   */
     1750     8008    2              SYM_BLK$ = CMD$BLK.SUBLK$ (0);
     1751     8009                   %INCREMENT (ARRAY=STATS_TOKENS#, INDX="SYM$BLK.CODE - %VD_BASE#");
     1752     8012    2              IF SYM$BLK.CODE = %T_DEF_NAME THEN
     1753     8013    2                 SYM_BLK$ = SYM_BLK$ -> CMD$BLK.SUBLK$ (0);
     1754     8014
     1755     8015    2              CALL XLATE (SYM$BLK.TEXT, B$XL_UPPER, SYM$BLK.TEXT);
     1756     8016    2              CALL MAKE_TEXTC_REMOTE (SYM$BLK.TEXTC$ -> VD$TEXTC,
     1757     8017    2                IT$COMMAND.PARAM$ (%CP_SY_NAME))
     1758     8018    2                ALTRET (MAKE_TEXTC_REMOTE_FAILED);
     1759     8019
     1760     8020    2              SYM_BLK$ = CMD$BLK.SUBLK$ (1);
     1761     8021                   %INCREMENT (ARRAY=STATS_TOKENS#, INDX="SYM$BLK.CODE - %VD_BASE#");
     1762     8024
     1763     8025    2              CALL VDG$OALLOC (%CLS_BUFFER, VD_BUFFER$,
     1764     8026    2                (LENGTHC(VD$BUFFER_HEADER) + SYM$BLK.COUNT + (%NB_PER_WORD-1)) /
     1765     8027    2                %NB_PER_WORD)
     1766     8028    2                ALTRET (OALLOC_FAILED);
     1767     8029    2              IT$COMMAND.PARAM$ (%CP_SY_VALUE) = VD_BUFFER$;
PL6.E3A0      #002=VDI$PARSE_TREE_TO_INTREE File=VDI$PARSE.:VDA5TSI              FRI 07/04/97 11:34 Page:178
     1768     8030    2              VD$BUFFER.LENGTH# = SYM$BLK.COUNT;
     1769     8031    2              VD$BUFFER.BYTES = SYM$BLK.TEXT;
     1770     8032
     1771     8033
     1772     8034    2            CASE (%T_WINDOW_CMD);
     1773     8035                   /*
     1774     8036                   *  The ParseTree for the WINDOW command is:
     1775     8037                   *
     1776     8038                   *           T_WINDOW_CMD
     1777     8039                   *                 |
     1778     8040                   *  (opt)--------(opt)--------(opt)--------(opt)
     1779     8041                   *    |            |            |            |
     1780     8042                   * T_DELETE_CMD T_IN_WINDOW  T_LINES or   T_EDIT_CMD
     1781     8043                   *  or T_NEW      ...        T_PERCENT      ...
     1782     8044                   * or T_NEXT
     1783     8045                   * or T_PREV
     1784     8046                   */
     1785     8047    2              SINK = VD_EDITING_HEIGHT *
     1786     8048    2                (100 - (VD_EDITING_WINDOWS-1) * VD_$WI_PERCENT.V#) /100;
     1787     8049    3              DO SYM_BLK=0 TO CMD$BLK.NSUBLKS-1;
     1788     8050    3                 SYM_BLK$ = CMD$BLK.SUBLK$(SYM_BLK);
     1789     8051                      %INCREMENT(ARRAY=STATS_TOKENS#, INDX=SYM$BLK.CODE - %VD_BASE#);
     1790     8054    4                 IF SYM$BLK.CODE = %T_EDIT_CMD THEN DO;
     1791     8055    4                    IT$COMMAND.PT_BLOCK_EXPR$ = SYM_BLK$ -> CMD$BLK.SUBLK$(0);
     1792     8056    4                    END;
     1793     8057    3                 ELSE IF SYM$BLK.CODE = %T_DELETE_CMD THEN
     1794     8058    3                       IT$COMMAND.FLAGS(%CF_WI_DELETE) = %TRUE;
     1795     8059    3                    ELSE IF SYM$BLK.CODE = %T_NEW THEN
     1796     8060    3                          IT$COMMAND.FLAGS(%CF_WI_NEW) = %TRUE;
     1797     8061    3                       ELSE IF SYM$BLK.CODE = %T_NEXT OR SYM$BLK.CODE = %T_PREVIOUS
     1798     8062    4                          THEN DO;
     1799     8063    4                             IF VD_CURRENT_WINDOW$ = ADDR(NIL) THEN EXIT;
     1800     8064    4                             WINDOW_SUBSCRIPT = ADDR (VD_CURRENT_WINDOW$ ->
     1801     8065    4                               VD$FILE_NODE.DESC.KEY) -> VD$KEY_NUMBER.BYTES# + 1;
     1802     8066    4                             IF SYM$BLK.CODE = %T_PREVIOUS THEN
     1803     8067    4                                WINDOW_SUBSCRIPT = WINDOW_SUBSCRIPT - 2;
     1804     8068    4                             IF WINDOW_SUBSCRIPT >= VD_EDITING_WINDOWS THEN
PL6.E3A0      #002=VDI$PARSE_TREE_TO_INTREE File=VDI$PARSE.:VDA5TSI              FRI 07/04/97 11:34 Page:179
     1805     8069    4                                WINDOW_SUBSCRIPT = 1;
     1806     8070    4                             IF WINDOW_SUBSCRIPT = 0 THEN
     1807     8071    4                                WINDOW_SUBSCRIPT = VD_EDITING_WINDOWS-1;
     1808     8072    4                             GOTO SET_WINDOW_NUMBER;
     1809     8073    4                             END;
     1810     8074    4                          ELSE DO;
     1811     8075    4                             CALL VDE$PNUMBER (SYM_BLK$ -> CMD$BLK.SUBLK$(0) ->
     1812     8076    4                               CMD$BLK.SUBLK$(0) -> CMD$BLK, WINDOW_SUBSCRIPT)
     1813     8077    4                               ALTRET (PNUMBER_FAILED);
     1814     8078    5                             IF SYM$BLK.CODE ~= %T_IN_WINDOW THEN DO;
     1815     8079    5                                SINK = WINDOW_SUBSCRIPT;
     1816     8080    5                                IF SYM$BLK.CODE = %T_PERCENT THEN
     1817     8081    5                                   SINK = VD_EDITING_HEIGHT * SINK / 100;
     1818     8082    5                                IT$COMMAND.PARAM$ (%CP_WI_LINES) = SYM_BLK$;
     1819     8083    5                                END;
     1820     8084    5                             ELSE DO;
     1821     8085    5                                IF WINDOW_SUBSCRIPT >= VD_EDITING_WINDOWS
     1822     8086    5                                  OR WINDOW_SUBSCRIPT = 0 THEN
     1823     8087    5                                   GOTO WI_KEY_NOT_IN_RANGE_FAILURE;
     1824     8088    5   SET_WINDOW_NUMBER:           CALL VDG$OALLOC (%CLS_NUMBER, IT$COMMAND.PARAM$(%
              8088            CP_WI_NUM))
     1825     8089    5                                  ALTRET (OALLOC_FAILED);
     1826     8090    5                                IT$COMMAND.PARAM$(%CP_WI_NUM) -> VD$NUMBER.V# =
     1827     8091    5                                  WINDOW_SUBSCRIPT;
     1828     8092    5                                END;
     1829     8093    4                             END;
     1830     8094    3                 END;
     1831     8095    2              IF IT$COMMAND.PARAM$(%CP_WI_LINES) ~= ADDR(NIL) OR
     1832     8096    3                IT$COMMAND.FLAGS (%CF_WI_NEW) THEN DO;
     1833     8097    3                 CALL VDG$OALLOC (%CLS_NUMBER, IT$COMMAND.PARAM$(%CP_WI_LINES))
     1834     8098    3                   ALTRET (OALLOC_FAILED);
     1835     8099    3                 IT$COMMAND.PARAM$(%CP_WI_LINES) -> VD$NUMBER.V# =
     1836     8100    3                   MINIMUM (SINK, VD_EDITING_HEIGHT);
     1837     8101    3                 END;
     1838     8102
     1839     8103
     1840     8104    2            CASE (ELSE);
PL6.E3A0      #002=VDI$PARSE_TREE_TO_INTREE File=VDI$PARSE.:VDA5TSI              FRI 07/04/97 11:34 Page:180
     1841     8105    2              CALL VDG$ESCREECH (IT$COMMAND.CODE#);
     1842     8106    2            END CMD_CODE_CASES;
     1843     8107
     1844     8108    1           CMD_INDEX = CMD_INDEX + 1;    /* Bump past the node we just processed */
     1845     8109    1           IF CMD_INDEX = PT_COMMAND_PARENT.NSUBLKS THEN
     1846     8110    1              CMD$STREAM.IF_CMD = '0'B;
     1847     8111    1           RETURN;
     1848     8112
     1849     8113
     1850     8114
     1851     8115    1   WI_KEY_NOT_IN_RANGE_FAILURE:
     1852     8116    1           CALL VDG$ERRMSG (%E$WI_KEY_NOT_IN_RANGE,
     1853     8117    1             VD_EDITING_WINDOWS-1, WINDOW_SUBSCRIPT);
     1854     8118    1           GOTO SUB_PARSE_TREE_TO_INTREE_FAILED;
     1855     8119
     1856     8120
     1857     8121    1   CTRLFN_CONFLICTS_W_KEYIN_ERROR: ;
     1858     8122    1           CALL VDG$ERRMSG (%E$CTRLFN_CONFLICTS_W_KEYIN);
     1859     8123    1           GOTO SUB_PARSE_TREE_TO_INTREE_FAILED;
     1860     8124
     1861     8125
     1862     8126    1   ELSE_CMD_WITHOUT_IF_FAILURE: ;
     1863     8127    2           CALL VDG$ERRMSG (%E$ELSE_CMD_WITHOUT_IF) WHENRETURN DO;
     1864     8128    2              VD_6E.ERR_TAIL$ -> VD$ERR.CMDLINE_INDEX# = CMD$BLK.CPOS;
     1865     8129    2              END;
     1866     8130    1           GOTO SUB_PARSE_TREE_TO_INTREE_FAILED;
     1867     8131
     1868     8132
     1869     8133    1   IF_COMMAND_LAST_FAILURE: ;
     1870     8134    2           CALL VDG$ERRMSG (%E$IF_CMD_IS_LAST) WHENRETURN DO;
     1871     8135    2              VD_6E.ERR_TAIL$ -> VD$ERR.CMDLINE_INDEX# = CMD$BLK.CPOS;
     1872     8136    2              END;
     1873     8137
     1874     8138
     1875     8139    1   PSTRING_FAILED: ;
     1876     8140    1   PNUMBER_FAILED: ;
     1877     8141    1   MAKE_TEXTC_REMOTE_FAILED: ;
PL6.E3A0      #002=VDI$PARSE_TREE_TO_INTREE File=VDI$PARSE.:VDA5TSI              FRI 07/04/97 11:34 Page:181
     1878     8142    1   SUB_PARSE_TREE_TO_INTREE_FAILED: ;
     1879     8143    1           CALL VDG$OFREE (IT$COMMAND)
     1880     8144    1             ALTRET (OFREE_FAILED);
     1881     8145
     1882     8146
     1883     8147    1   OALLOC_FAILED: ;
     1884     8148    1   OFREE_FAILED: ;
     1885     8149    1           IT_COMMAND$ = ADDR(NIL);
     1886     8150    1           ALTRETURN;
     1887     8151
     1888     8152
     1889     8153        /*I* NAME: MAKE_TEXTC_REMOTE
     1890     8154            PARAMETERS:
     1891     8155                TEXTC - A VD$TEXTC string.
     1892     8156                TEXTC_REMOTE$ - An uninitialized ptr.
     1893     8157            INPUT:
     1894     8158                None.
     1895     8159            OUTPUT:
     1896     8160                TEXTC_REMOTE$ will point to a VD$TEXTC_REMOTE object.
     1897     8161            DESCRIPTION:
     1898     8162                Build a VD$TEXTC_REMOTE containing the TEXTC string.
     1899     8163        */
     1900     8164
     1901     8165    1   MAKE_TEXTC_REMOTE: PROC (TEXTC, TEXTC_REMOTE$) ALTRET;
     1902     8166
     1903     8167        %VD$TEXTC (NAME=TEXTC, STCLASS=PARAM);
     1904     8190    2   DCL TEXTC_REMOTE$ PTR;
     1905     8191
     1906     8192
     1907     8193        %VD$TEXTC_REMOTE (NAME=TEXTC$REMOTE, STCLASS="BASED(TEXTC_REMOTE$)");
     1908     8254        %VD$STRING_HEADER;
     1909     8290
     1910     8291
     1911     8292
     1912     8293    2           CALL VDG$OALLOC (%CLS_TEXTC_REMOTE, TEXTC_REMOTE$,
     1913     8294    2             (LENGTHC(VD$STRING_HEADER) + TEXTC.LENGTH# +
     1914     8295    2             (%NB_PER_WORD-1)) / %NB_PER_WORD)
PL6.E3A0      #002=VDI$PARSE_TREE_TO_INTREE File=VDI$PARSE.:VDA5TSI              FRI 07/04/97 11:34 Page:182
     1915     8296    3           WHENALTRETURN DO; ALTRETURN; END;
     1916     8297
     1917     8298    2           TEXTC$REMOTE.LENGTH# = TEXTC.LENGTH#;
     1918     8299    2           TEXTC$REMOTE.BYTES = TEXTC.BYTES;
     1919     8300
     1920     8301    2           RETURN;
     1921     8302
     1922     8303    2   END MAKE_TEXTC_REMOTE;
     1923     8304
     1924     8305    1   END VDI$PARSE_TREE_TO_INTREE;
     1925     8306        %EOD;

PL6.E3A0      #002=VDI$PARSE_TREE_TO_INTREE File=VDI$PARSE.:VDA5TSI              FRI 07/04/97 11:34 Page:183
--  Include file information  --

   B$TABLES_C.:LIBRARY  cannot be made into a system file and is referenced.
   XU_SUBS_C.:LIBRARY  is referenced.
   XU_MACRO_C.:LIBRARY  is referenced.
   XUE_MACRO_C.:LIBRARY  is referenced.
   VD_NODES0_E.:VDA5TOU  is referenced.
   VD_PERR_C.:VDA5TOU  is referenced.
   VD_MACROS_M.:VDA5TOU  is referenced.
   B$JIT_C.:E04TOU  was found in the system file and is never referenced.
   CP_6_C.:E04TOU  was found in the system file and is never referenced.
      No diagnostics issued in procedure VDI$PARSE_TREE_TO_INTREE.

   Procedure VDI$PARSE_TREE_TO_INTREE requires 933 words for executable code.
   Procedure VDI$PARSE_TREE_TO_INTREE requires 28 words of local(AUTO) storage.

PL6.E3A0      #002=VDI$PARSE_TREE_TO_INTREE File=VDI$PARSE.:VDA5TSI              FRI 07/04/97 11:34 Page:184

 Object Unit name= VDI$PARSE_TREE_TO_INTREE                   File name= VDI$PARSE.:VDA5TOU
 UTS= JUL 04 '97 11:34:02.84 FRI                              Compiler= PL-6/E31         Sev=      00
 SharedLib= :SHARED_SYSTEM                                    Alt SharedLib=


    ****  Control sections  ****

 Sect   Type Bound  Init  Size OctSiz  Section name(segment info)
    0  RoData even  UTS      3      3  VDI$PARSE_TREE_TO_INTREE
    1   Proc  even  none   933   1645  VDI$PARSE_TREE_TO_INTREE
    2  RoData even  none    17     21  VDI$PARSE_TREE_TO_INTREE

    ****  Entry defs  ****

                              Check   Calling
                             calling  sequence
  Sect OctLoc Primary Altret sequence   type   Parms  Name
     1      0   yes    yes     yes      Std        3  VDI$PARSE_TREE_TO_INTREE

  ****  Entry refs  ****

         Check        Calling
        calling       sequence
Altret sequence SRef   type   Args  Name
         yes          ~proc      0 B_POINTER
 yes     yes           Std       3 VDG$OALLOC
 yes     yes           Std       5 VDE$PSTRING
 yes     yes           Std       1 VDG$OFREE
         yes           Std       3 VDG$ESCREECH
 yes     yes           Std       4 VDG$ERRMSG
 yes     yes           Std       2 VDE$PNUMBER
                       nStd      0 X66_AUTO_3
                       Std       0 B_CONSPOOL_D
                       nStd      0 X66_ARET
                       nStd      0 X66_AALT
PL6.E3A0      #002=VDI$PARSE_TREE_TO_INTREE File=VDI$PARSE.:VDA5TSI              FRI 07/04/97 11:34 Page:185

  ****  Data refs  ****

  Flags:  r = read only, s = secondary
Flgs Name                             Flgs Name                             Flgs Name
     VD_6E                            r    B$XL_UPPER$                           XUE_ECB
     VD_EDITING_HEIGHT                     VD_EDITING_WINDOWS                    VD_CURRENT_WINDOW$
     VD_$WI_PERCENT                        B_VECTNIL

  ****  Segment refs  ****

  Flags:  r = read only, s = secondary
Flgs Name                             Flgs Name                             Flgs Name
     NULLSID                               ISSID
PL6.E3A0      #002=VDI$PARSE_TREE_TO_INTREE File=VDI$PARSE.:VDA5TSI              FRI 07/04/97 11:34 Page:186


     1324        1        /*T***********************************************************/
     1325        2        /*T*                                                         */
     1326        3        /*T* Copyright (c) Bull HN Information Systems Inc., 1997    */
     1327        4        /*T*                                                         */
     1328        5        /*T***********************************************************/
     1329        6
     1330        7        /*D* NAME: VDI$PARSE_TREE_TO_INTREE
     1331        8            PARAMETERS:
     1332        9                PT_COMMAND_PARENT - The parent ParseTree node of the single command
     1333       10                    node to convert.
     1334       11                CMD_INDEX - Index into PT_COMMAND_PARENT's children of the single
     1335       12                    command node to convert.  This child node should have .CODE# =
     1336       13                    %T_xxx_CMD.  (Exception:  for the EQUALS command, this will be a
     1337       14                    T_DEF_NAME node, and the next child of PT_COMMAND_PARENT will be the
     1338       15                    T_EQUALS_CMD node.)
     1339       16                IT_COMMAND$ - A pointer:  either NIL; or it points to a cleared/NILd
     1340       17                    VD$IT_COMMAND InTree node.
     1341       18            INPUT:
     1342       19            OUTPUT:
     1343       20                IT_COMMAND$ will point to a (chain of) VD$IT_COMMAND node(s), which
     1344       21                    contain(s) the info from the ParseTree.  As such, the individual
     1345       22                    VD$IT_COMMAND nodes in the chain can be passed to any of the
     1346       23                    command handlers (VDI$Cxxx) for processing.
     1347       24                CMD_INDEX will be incremented beyond any PT_COMMAND_PARENT children
     1348       25                    which have been processed.
     1349       26            DESCRIPTION:
     1350       27                Based on the type of command, build an IT_COMMAND InTree node (or a
     1351       28                chain of 'em) with the info from the ParseTree node(s).
     1352       29        */
     1353       30
     1354       31        VDI$PARSE_TREE_TO_INTREE: PROC (PT_COMMAND_PARENT, CMD_INDEX, IT_COMMAND$)

     31  1 000000   000000 700200 xent  VDI$PARSE_T* TSX0  ! X66_AUTO_3
         1 000001   000034 000003                    ZERO    28,3

     1355       32                  ALTRET;
PL6.E3A0      #002=VDI$PARSE_TREE_TO_INTREE File=VDI$PARSE.:VDA5TSI              FRI 07/04/97 11:34 Page:187
     1356       33
     1357       34        %INCLUDE VD_MACROS_M;
     1358     2249        %INCLUDE VD_PERR_C;
     1359     2397        %INCLUDE VD_NODES0_E;
     1360     2489        %INCLUDE XUE_MACRO_C;
     1361     3233        %INCLUDE XU_MACRO_C;
     1362     6327        %INCLUDE XU_SUBS_C;
     1363     6419        %INCLUDE B$TABLES_C;
     1364     6527
     1365     6528
     1366     6529        %PARSE$OUT (NAME=PT_COMMAND_PARENT, STCLASS=PARAM);
     1367     6574    1   DCL CMD_INDEX SBIN;
     1368     6575    1   DCL IT_COMMAND$ PTR;
     1369     6576
     1370     6577    1   DCL VDE$PSTRING         ENTRY (5) ALTRET;
     1371     6578    1   DCL VDE$PNUMBER         ENTRY (2) ALTRET;
     1372     6579    1   DCL VDG$ERRMSG          ENTRY (4) ALTRET;
     1373     6580    1   DCL VDG$OALLOC          ENTRY (3) ALTRET;
     1374     6581    1   DCL VDG$OFREE           ENTRY (1) ALTRET;
     1375     6582    1   DCL VDG$ESCREECH        ENTRY (3);
     1376     6583
     1377     6584
     1378     6585        %VD_6E (STCLASS=SYMREF);
     1379     6621        %VD$POINTER (NAME=VD_$STRUCTURE, STCLASS=SYMREF);
     1380     6666        %B$XL_UPPER;
     1381     6670        %XUE_ECB (NAME=XUE_ECB, STCLASS=SYMREF);
     1382     6872    1   DCL VD_SCREEN_HEIGHT SBIN SYMREF;
     1383     6873    1   DCL VD_EDITING_HEIGHT SBIN SYMREF;
     1384     6874    1   DCL VD_EDITING_WINDOWS SBIN SYMREF;
     1385     6875    1   DCL VD_CURRENT_WINDOW$ PTR SYMREF;
     1386     6876        %VD$NUMBER (NAME=VD_$SCREEN, STCLASS=SYMREF);
     1387     6921        %VD$NUMBER (NAME=VD_$MIN_COMMAND, STCLASS=SYMREF);
     1388     6966        %VD$NUMBER (NAME=VD_$WI_PERCENT, STCLASS=SYMREF);
     1389     7011
     1390     7012
     1391     7013        %VD_BUFFER (NAME=ZERO_LENGTH_BUFFER, STCLASS=CONSTANT, IBYTES="''");
     1392     7073
PL6.E3A0      #002=VDI$PARSE_TREE_TO_INTREE File=VDI$PARSE.:VDA5TSI              FRI 07/04/97 11:34 Page:188
     1393     7074
     1394     7075    1   DCL CMD_BLK$ PTR;
     1395     7076    1   DCL SYM_BLK$ PTR;
     1396     7077    1   DCL SYM_BLK SBIN;
     1397     7078    1   DCL RETCODE CHAR(1) CALIGNED;
     1398     7079    1   DCL SINK SBIN;
     1399     7080    1   DCL WINDOW_SUBSCRIPT SBIN;
     1400     7081    1   DCL VD_BUFFER$ PTR;
     1401     7082    1   DCL VD_NUMBER$ PTR;
     1402     7083    1   DCL CTRL_FN_ARGS_ARRAY(0:%(MX_CTRL_FN_ARGS-1)) SBIN;
     1403     7084    1   DCL VD_ERR$ PTR;
     1404     7085    1   DCL SUBST_FIELD$ PTR;
     1405     7086
     1406     7087
     1407     7088        %VD$CMD_STREAM (NAME=CMD$STREAM, STCLASS="BASED(VD_6E.CMD_STREAM$)");
     1408     7127        %VD$IT_COMMAND (NAME=IT$COMMAND, STCLASS="BASED(IT_COMMAND$)");
     1409     7165        %PARSE$OUT (NAME=CMD$BLK, STCLASS="BASED(CMD_BLK$)");
     1410     7210        %PARSE$SYM (NAME=CMD$SYM, STCLASS="BASED(CMD_BLK$)");
     1411     7248        %PARSE$SYM (NAME=SYM$BLK, STCLASS="BASED(SYM_BLK$)");
     1412     7286        %VD$BUFFER (NAME=VD$BUFFER, STCLASS="BASED(VD_BUFFER$)");
     1413     7344        %VD$NUMBER (NAME=VD$NUMBER, STCLASS="BASED(VD_NUMBER$)");
     1414     7389        %VD$ERR (NAME=VD$ERR, STCLASS="BASED(VD_ERR$)");
     1415     7442        %VD$FILE_NODE;
     1416     7535        %VD$KEY_NUMBER;
     1417     7550        %VD$NUMBER (NAME=SUBST$NUMBER, DIM="(0:2)", STCLASS="BASED(SUBST_FIELD$)");
     1418     7595        %VD$TEXTC;
     1419     7618        %VD$BUFFER_HEADER;
     1420     7654
     1421     7655    2           IF IT_COMMAND$ = ADDR(NIL) THEN DO;

   7655  1 000002   200005 470500                    LDP0    @IT_COMMAND$,,AUTO
         1 000003   000000 236100                    LDQ     0,,PR0
         1 000004   000001 116000 xsym               CMPQ    B_VECTNIL+1
         1 000005   000015 601000 1                  TNZ     s:7660

     1422     7656    2              CALL VDG$OALLOC (%CLS_IT_COMMAND, IT_COMMAND$)

PL6.E3A0      #002=VDI$PARSE_TREE_TO_INTREE File=VDI$PARSE.:VDA5TSI              FRI 07/04/97 11:34 Page:189
   7656  1 000006   200005 236100                    LDQ     @IT_COMMAND$,,AUTO
         1 000007   000001 235000 2                  LDA     1
         1 000010   200026 757100                    STAQ    @TEXTC_REMOTE$+2,,AUTO
         1 000011   200026 630500                    EPPR0   @TEXTC_REMOTE$+2,,AUTO
         1 000012   000020 631400 xsym               EPPR1   B_VECTNIL+16
         1 000013   000000 701000 xent               TSX1    VDG$OALLOC
         1 000014   001574 702000 1                  TSX2    OALLOC_FAILED

     1423     7657    2                ALTRET (OALLOC_FAILED);
     1424     7658    2              END;

     1425     7659
     1426     7660    1           CMD_BLK$ = PT_COMMAND_PARENT.SUBLK$ (CMD_INDEX);

   7660  1 000015   200004 470500                    LDP0    @CMD_INDEX,,AUTO
         1 000016   000000 235100                    LDA     0,,PR0
         1 000017   200003 471500                    LDP1    @PT_COMMAND_PARENT,,AUTO
         1 000020   100003 236105                    LDQ     3,AL,PR1
         1 000021   200006 756100                    STQ     CMD_BLK$,,AUTO

     1427     7661                %INCREMENT (ARRAY=STATS_TOKENS#, INDX="CMD$BLK.CODE - %VD_BASE#");

   7662  1 000022   200006 473500                    LDP3    CMD_BLK$,,AUTO
         1 000023   300000 720100                    LXL0    0,,PR3
         1 000024   776375 054010 xsym               AOS     VD_6E-771,X0

     1428     7664    1           IT$COMMAND.CODE# = CMD$BLK.CODE;

   7664  1 000025   200005 474500                    LDP4    @IT_COMMAND$,,AUTO
         1 000026   400000 475500                    LDP5    0,,PR4
         1 000027   300000 720100                    LXL0    0,,PR3
         1 000030   500003 740100                    STX0    3,,PR5

     1429     7665    1           IF CMD_INDEX > 0 THEN

   7665  1 000031   000000 235100                    LDA     0,,PR0
         1 000032   000036 604400 1                  TMOZ    CMD_CODE_CASES
PL6.E3A0      #002=VDI$PARSE_TREE_TO_INTREE File=VDI$PARSE.:VDA5TSI              FRI 07/04/97 11:34 Page:190

     1430     7666    1              IT$COMMAND.CMDLINE_INDEX# = CMD$BLK.CPOS;

   7666  1 000033   400000 475500                    LDP5    0,,PR4
         1 000034   300002 720100                    LXL0    2,,PR3
         1 000035   500003 440100                    SXL0    3,,PR5

     1431     7667
     1432     7668
     1433     7669    1   CMD_CODE_CASES:
     1434     7670    2           DO CASE (IT$COMMAND.CODE#);

   7670  1 000036   400000 475500       CMD_CODE_CA* LDP5    0,,PR4
         1 000037   500003 236100                    LDQ     3,,PR5
         1 000040   000022 732000                    QRS     18
         1 000041   001752 136007                    SBLQ    1002,DL
         1 000042   000107 116007                    CMPQ    71,DL
         1 000043   000045 602006 1                  TNC     CMD_CODE_CASES+7,QL
         1 000044   001500 710000 1                  TRA     s:8105
         1 000045   000154 710000 1                  TRA     s:7681
         1 000046   001256 710000 1                  TRA     s:8047
         1 000047   001500 710000 1                  TRA     s:8105
         1 000050   001500 710000 1                  TRA     s:8105
         1 000051   000154 710000 1                  TRA     s:7681
         1 000052   000154 710000 1                  TRA     s:7681
         1 000053   000154 710000 1                  TRA     s:7681
         1 000054   000154 710000 1                  TRA     s:7681
         1 000055   000154 710000 1                  TRA     s:7681
         1 000056   000154 710000 1                  TRA     s:7681
         1 000057   001500 710000 1                  TRA     s:8105
         1 000060   000635 710000 1                  TRA     s:7891
         1 000061   001153 710000 1                  TRA     s:8008
         1 000062   001500 710000 1                  TRA     s:8105
         1 000063   001500 710000 1                  TRA     s:8105
         1 000064   000425 710000 1                  TRA     s:7812
         1 000065   000321 710000 1                  TRA     s:7762
         1 000066   001500 710000 1                  TRA     s:8105
PL6.E3A0      #002=VDI$PARSE_TREE_TO_INTREE File=VDI$PARSE.:VDA5TSI              FRI 07/04/97 11:34 Page:191
         1 000067   001500 710000 1                  TRA     s:8105
         1 000070   001500 710000 1                  TRA     s:8105
         1 000071   000761 710000 1                  TRA     EACH_SAVE_CHILD
         1 000072   001500 710000 1                  TRA     s:8105
         1 000073   001500 710000 1                  TRA     s:8105
         1 000074   001500 710000 1                  TRA     s:8105
         1 000075   000154 710000 1                  TRA     s:7681
         1 000076   001500 710000 1                  TRA     s:8105
         1 000077   000744 710000 1                  TRA     s:7938
         1 000100   000672 710000 1                  TRA     s:7910
         1 000101   001506 710000 1                  TRA     s:8108
         1 000102   001500 710000 1                  TRA     s:8105
         1 000103   000157 710000 1                  TRA     s:7686
         1 000104   001500 710000 1                  TRA     s:8105
         1 000105   001500 710000 1                  TRA     s:8105
         1 000106   001500 710000 1                  TRA     s:8105
         1 000107   001500 710000 1                  TRA     s:8105
         1 000110   001500 710000 1                  TRA     s:8105
         1 000111   001500 710000 1                  TRA     s:8105
         1 000112   001500 710000 1                  TRA     s:8105
         1 000113   001500 710000 1                  TRA     s:8105
         1 000114   001500 710000 1                  TRA     s:8105
         1 000115   001500 710000 1                  TRA     s:8105
         1 000116   001500 710000 1                  TRA     s:8105
         1 000117   001500 710000 1                  TRA     s:8105
         1 000120   001500 710000 1                  TRA     s:8105
         1 000121   001500 710000 1                  TRA     s:8105
         1 000122   001500 710000 1                  TRA     s:8105
         1 000123   001500 710000 1                  TRA     s:8105
         1 000124   001500 710000 1                  TRA     s:8105
         1 000125   001500 710000 1                  TRA     s:8105
         1 000126   001500 710000 1                  TRA     s:8105
         1 000127   001500 710000 1                  TRA     s:8105
         1 000130   001500 710000 1                  TRA     s:8105
         1 000131   001500 710000 1                  TRA     s:8105
         1 000132   001500 710000 1                  TRA     s:8105
         1 000133   001500 710000 1                  TRA     s:8105
PL6.E3A0      #002=VDI$PARSE_TREE_TO_INTREE File=VDI$PARSE.:VDA5TSI              FRI 07/04/97 11:34 Page:192
         1 000134   001500 710000 1                  TRA     s:8105
         1 000135   001500 710000 1                  TRA     s:8105
         1 000136   001500 710000 1                  TRA     s:8105
         1 000137   001500 710000 1                  TRA     s:8105
         1 000140   001500 710000 1                  TRA     s:8105
         1 000141   001500 710000 1                  TRA     s:8105
         1 000142   001500 710000 1                  TRA     s:8105
         1 000143   001500 710000 1                  TRA     s:8105
         1 000144   001500 710000 1                  TRA     s:8105
         1 000145   001500 710000 1                  TRA     s:8105
         1 000146   001500 710000 1                  TRA     s:8105
         1 000147   001500 710000 1                  TRA     s:8105
         1 000150   001500 710000 1                  TRA     s:8105
         1 000151   000157 710000 1                  TRA     s:7686
         1 000152   001500 710000 1                  TRA     s:8105
         1 000153   000162 710000 1                  TRA     s:7709

     1435     7671    2            CASE (%T_EDIT_CMD, %T_DISPLAY_CMD, %T_COPY_CMD, %T_AFTER_CMD,

     1436     7672    2             %T_DELETE_CMD, %T_OVER_CMD, %T_MOVE_CMD, %T_SHOW_CMD);
     1437     7673                   /*
     1438     7674                   *  The ParseTree for the editing commands (except the LOCATION
     1439     7675                   *  command) is:
     1440     7676                   *
     1441     7677                   *                        T_xxx_CMD
     1442     7678                   *                            |
     1443     7679                   *                       T_BLOCK_EXPR
     1444     7680                   */
     1445     7681    2              IT$COMMAND.PT_BLOCK_EXPR$ = CMD$BLK.SUBLK$ (0);

   7681  1 000154   300003 236100                    LDQ     3,,PR3
         1 000155   500004 756100                    STQ     4,,PR5
         1 000156   001506 710000 1                  TRA     s:8108

     1446     7682    2            CASE (%T_BLOCK_EXPR, %T_STRING_EXPR);

     1447     7683                   /*
PL6.E3A0      #002=VDI$PARSE_TREE_TO_INTREE File=VDI$PARSE.:VDA5TSI              FRI 07/04/97 11:34 Page:193
     1448     7684                   *  This is an implicit (verb-less) editing command.
     1449     7685                   */
     1450     7686    2              IT$COMMAND.PT_BLOCK_EXPR$ = ADDR(CMD$BLK);

   7686  1 000157   200006 236100                    LDQ     CMD_BLK$,,AUTO
         1 000160   500004 756100                    STQ     4,,PR5
         1 000161   001506 710000 1                  TRA     s:8108

     1451     7687
     1452     7688
     1453     7689    2            CASE (%T_DEF_NAME);

     1454     7690                   /*
     1455     7691                   *  The ParseTree for the EQUALS command is actually TWO children
     1456     7692                   *  of the PT_COMMAND_PARENT node:
     1457     7693                   *
     1458     7694                   *      T_DEF_NAME             T_EQUALS_CMD
     1459     7695                   *          |                       |
     1460     7696                   *       .symbol          ----------------- (opt.) ---
     1461     7697                   *                        |                          |
     1462     7698                   *                  T_STRING_EXPR               T_IN_WINDOW
     1463     7699                   *                        |                          |
     1464     7700                   *                     XUE_EXP#                      |
     1465     7701                   *                                                one of:
     1466     7702                   *
     1467     7703                   *  T_COMMAND_WINDOW  or  T_EDITING_WINDOW  or  T_SPECIFIC_WINDOW
     1468     7704                   *                                                     |
     1469     7705                   *                                                T_STRING_EXPR
     1470     7706                   *                                                     |
     1471     7707                   *                                                  XUE_EXP#
     1472     7708                   */
     1473     7709    2              SYM_BLK$ = CMD$BLK.SUBLK$ (0);

   7709  1 000162   300003 236100                    LDQ     3,,PR3
         1 000163   200007 756100                    STQ     SYM_BLK$,,AUTO

     1474     7710    2              CALL XLATE (SYM$BLK.TEXT, B$XL_UPPER, SYM$BLK.TEXT);
PL6.E3A0      #002=VDI$PARSE_TREE_TO_INTREE File=VDI$PARSE.:VDA5TSI              FRI 07/04/97 11:34 Page:194

   7710  1 000164   200007 476500                    LDP6    SYM_BLK$,,AUTO
         1 000165   600004 236100                    LDQ     4,,PR6
         1 000166   000033 772000                    QRL     27
         1 000167   000000 620006                    EAX0    0,QL
         1 000170   000000 477400 xsym               LDP7    B$XL_UPPER$
         1 000171   000000 621006                    EAX1    0,QL
         1 000172   040140 160540                    MVT     fill='040'O
         1 000173   600004 200010                    ADSC9   4,,PR6                   cn=1,n=*X0
         1 000174   600004 200011                    ADSC9   4,,PR6                   cn=1,n=*X1
         1 000175   700000 000100                    ARG     0,,PR7

     1475     7711    2              CALL MAKE_TEXTC_REMOTE (SYM$BLK.TEXTC$ -> VD$TEXTC,

   7711  1 000176   600003 475500                    LDP5    3,,PR6
         1 000177   400000 470500                    LDP0    0,,PR4
         1 000200   000006 631500                    EPPR1   6,,PR0
         1 000201   200024 451500                    STP1    @TEXTC+1,,AUTO
         1 000202   200023 455500                    STP5    SUBST_FIELD$+2,,AUTO
         1 000203   001600 701000 1                  TSX1    MAKE_TEXTC_REMOTE
         1 000204   001565 702000 1                  TSX2    PSTRING_FAILED

     1476     7712    2                IT$COMMAND.PARAM$ (%CP_EQ_NAME))
     1477     7713    2                ALTRET (MAKE_TEXTC_REMOTE_FAILED);
     1478     7714
     1479     7715    2              CMD_INDEX = CMD_INDEX + 1;

   7715  1 000205   200004 470500                    LDP0    @CMD_INDEX,,AUTO
         1 000206   000000 054100                    AOS     0,,PR0

     1480     7716    2              CMD_BLK$ = PT_COMMAND_PARENT.SUBLK$ (CMD_INDEX);

   7716  1 000207   000000 235100                    LDA     0,,PR0
         1 000210   200003 471500                    LDP1    @PT_COMMAND_PARENT,,AUTO
         1 000211   100003 236105                    LDQ     3,AL,PR1
         1 000212   200006 756100                    STQ     CMD_BLK$,,AUTO

PL6.E3A0      #002=VDI$PARSE_TREE_TO_INTREE File=VDI$PARSE.:VDA5TSI              FRI 07/04/97 11:34 Page:195
     1481     7717    2              IT$COMMAND.CODE# = CMD$BLK.CODE;

   7717  1 000213   200005 473500                    LDP3    @IT_COMMAND$,,AUTO
         1 000214   300000 474500                    LDP4    0,,PR3
         1 000215   200006 475500                    LDP5    CMD_BLK$,,AUTO
         1 000216   500000 720100                    LXL0    0,,PR5
         1 000217   400003 740100                    STX0    3,,PR4

     1482     7718                   %INCREMENT (ARRAY=STATS_TOKENS#, INDX="CMD$BLK.CODE - %VD_BASE#");

   7719  1 000220   500000 720100                    LXL0    0,,PR5
         1 000221   776375 054010 xsym               AOS     VD_6E-771,X0

     1483     7721
     1484     7722                   %INCREMENT (ARRAY=STATS_TOKENS#,
     1485     7723                   INDX="CMD$BLK.SUBLK$ (0) -> CMD$BLK.CODE - %VD_BASE#");

   7724  1 000222   500003 474500                    LDP4    3,,PR5
         1 000223   400000 720100                    LXL0    0,,PR4
         1 000224   776375 054010 xsym               AOS     VD_6E-771,X0

     1486     7726    2              CALL VDE$PSTRING

   7726  1 000225   500003 474500                    LDP4    3,,PR5
         1 000226   400003 476500                    LDP6    3,,PR4
         1 000227   200012 637500                    EPPR7   SINK,,AUTO
         1 000230   200027 457500                    STP7    @TEXTC_REMOTE$+3,,AUTO
         1 000231   200026 456500                    STP6    @TEXTC_REMOTE$+2,,AUTO
         1 000232   200026 630500                    EPPR0   @TEXTC_REMOTE$+2,,AUTO
         1 000233   000020 631400 xsym               EPPR1   B_VECTNIL+16
         1 000234   000000 701000 xent               TSX1    VDE$PSTRING
         1 000235   001565 702000 1                  TSX2    PSTRING_FAILED

     1487     7727    2                (CMD$BLK.SUBLK$ (0) -> CMD$BLK.SUBLK$ (0) -> CMD$BLK, SINK)
     1488     7728    2                ALTRET (PSTRING_FAILED);
     1489     7729
     1490     7730    3              IF XUE_ECB.OUT$ ~= ADDR(NIL) THEN DO;
PL6.E3A0      #002=VDI$PARSE_TREE_TO_INTREE File=VDI$PARSE.:VDA5TSI              FRI 07/04/97 11:34 Page:196

   7730  1 000236   000004 236000 xsym               LDQ     XUE_ECB+4
         1 000237   000001 116000 xsym               CMPQ    B_VECTNIL+1
         1 000240   000306 600000 1                  TZE     s:7740

     1491     7731    3                 CALL VDG$OALLOC (%CLS_BUFFER, IT$COMMAND.PARAM$ (%CP_EQ_VALUE),

   7731  1 000241   200005 470500                    LDP0    @IT_COMMAND$,,AUTO
         1 000242   000000 471500                    LDP1    0,,PR0
         1 000243   000004 473400 xsym               LDP3    XUE_ECB+4
         1 000244   300000 236100                    LDQ     0,,PR3
         1 000245   000033 772000                    QRL     27
         1 000246   000015 036007                    ADLQ    13,DL
         1 000247   000002 772000                    QRL     2
         1 000250   200026 756100                    STQ     @TEXTC_REMOTE$+2,,AUTO
         1 000251   200026 634500                    EPPR4   @TEXTC_REMOTE$+2,,AUTO
         1 000252   200031 454500                    STP4    @TEXTC_REMOTE$+5,,AUTO
         1 000253   100007 635500                    EPPR5   7,,PR1
         1 000254   200030 455500                    STP5    @TEXTC_REMOTE$+4,,AUTO
         1 000255   000002 236000 2                  LDQ     2
         1 000256   200027 756100                    STQ     @TEXTC_REMOTE$+3,,AUTO
         1 000257   200027 630500                    EPPR0   @TEXTC_REMOTE$+3,,AUTO
         1 000260   000021 631400 xsym               EPPR1   B_VECTNIL+17
         1 000261   000000 701000 xent               TSX1    VDG$OALLOC
         1 000262   001574 702000 1                  TSX2    OALLOC_FAILED

     1492     7732    3                   (LENGTHC(VD$BUFFER_HEADER) + XUE_ECB.OUT$ -> VD$TEXTC.LENGTH# +
     1493     7733    3                   %NB_PER_WORD-1) / %NB_PER_WORD) ALTRET (OALLOC_FAILED);
     1494     7734    3                 IT$COMMAND.PARAM$ (%CP_EQ_VALUE) -> VD$BUFFER.LENGTH# =

   7734  1 000263   200005 470500                    LDP0    @IT_COMMAND$,,AUTO
         1 000264   000000 471500                    LDP1    0,,PR0
         1 000265   100007 473500                    LDP3    7,,PR1
         1 000266   000004 474400 xsym               LDP4    XUE_ECB+4
         1 000267   400000 236100                    LDQ     0,,PR4
         1 000270   000033 772000                    QRL     27
         1 000271   000000 620006                    EAX0    0,QL
PL6.E3A0      #002=VDI$PARSE_TREE_TO_INTREE File=VDI$PARSE.:VDA5TSI              FRI 07/04/97 11:34 Page:197
         1 000272   300002 740100                    STX0    2,,PR3

     1495     7735    3                   XUE_ECB.OUT$ -> VD$TEXTC.LENGTH#;
     1496     7736    3                 IT$COMMAND.PARAM$ (%CP_EQ_VALUE) -> VD$BUFFER.BYTES =

   7736  1 000273   000000 471500                    LDP1    0,,PR0
         1 000274   100007 473500                    LDP3    7,,PR1
         1 000275   300002 220100                    LDX0    2,,PR3
         1 000276   000004 474400 xsym               LDP4    XUE_ECB+4
         1 000277   400000 236100                    LDQ     0,,PR4
         1 000300   000033 772000                    QRL     27
         1 000301   000000 621006                    EAX1    0,QL
         1 000302   040140 100540                    MLR     fill='040'O
         1 000303   400000 200011                    ADSC9   0,,PR4                   cn=1,n=*X1
         1 000304   300002 400010                    ADSC9   2,,PR3                   cn=2,n=*X0

     1497     7737    3                   XUE_ECB.OUT$ -> VD$TEXTC.BYTES;
     1498     7738    3                 END;

   7738  1 000305   000312 710000 1                  TRA     s:7742

     1499     7739    2              ELSE
     1500     7740    2                 IT$COMMAND.PARAM$ (%CP_EQ_VALUE) = ADDR(ZERO_LENGTH_BUFFER);

   7740  1 000306   200005 470500                    LDP0    @IT_COMMAND$,,AUTO
         1 000307   000000 471500                    LDP1    0,,PR0
         1 000310   000003 236000 2                  LDQ     3
         1 000311   100007 756100                    STQ     7,,PR1

     1501     7741
     1502     7742    2              SINK = 1;

   7742  1 000312   000001 235007                    LDA     1,DL
         1 000313   200012 755100                    STA     SINK,,AUTO

     1503     7743    2              IF CMD$BLK.NSUBLKS > 1 THEN

PL6.E3A0      #002=VDI$PARSE_TREE_TO_INTREE File=VDI$PARSE.:VDA5TSI              FRI 07/04/97 11:34 Page:198
   7743  1 000314   200006 471500                    LDP1    CMD_BLK$,,AUTO
         1 000315   100001 220100                    LDX0    1,,PR1
         1 000316   000002 100003                    CMPX0   2,DU
         1 000317   000532 603000 1                  TRC     BUILD_WINDOW_SPECIFIER
         1 000320   001506 710000 1                  TRA     s:8108

     1504     7744    2                 GOTO BUILD_WINDOW_SPECIFIER;
     1505     7745
     1506     7746
     1507     7747    2            CASE (%T_END_CMD);

     1508     7748    2              ;    /* Nothing to do */
     1509     7749
     1510     7750
     1511     7751    2            CASE (%T_IF_CMD);

     1512     7752                   /*
     1513     7753                   *  The ParseTree for the IF/ELSE command is:
     1514     7754                   *
     1515     7755                   *      T_IF_CMD
     1516     7756                   *          |
     1517     7757                   *    T_STRING_EXPR (no subnodes for ELSE command)
     1518     7758                   *          |
     1519     7759                   *       XUE_EXP#
     1520     7760                   */
     1521     7761
     1522     7762    3              IF CMD$BLK.NSUBLKS=0 THEN DO; /* ELSE COMMAND */

   7762  1 000321   300001 220100                    LDX0    1,,PR3
         1 000322   000334 601000 1                  TNZ     s:7767

     1523     7763    3                 IF NOT CMD$STREAM.IF_CMD THEN

   7763  1 000323   000026 476400 xsym               LDP6    VD_6E+22
         1 000324   600027 236100                    LDQ     23,,PR6
         1 000325   100000 316007                    CANQ    32768,DL
         1 000326   001544 600000 1                  TZE     ELSE_CMD_WITHOUT_IF_FAILURE
PL6.E3A0      #002=VDI$PARSE_TREE_TO_INTREE File=VDI$PARSE.:VDA5TSI              FRI 07/04/97 11:34 Page:199

     1524     7764    3                    GOTO ELSE_CMD_WITHOUT_IF_FAILURE;
     1525     7765    3                 CMD_INDEX = PT_COMMAND_PARENT.NSUBLKS - 1;

   7765  1 000327   100001 236100                    LDQ     1,,PR1
         1 000330   000022 772000                    QRL     18
         1 000331   000001 136007                    SBLQ    1,DL
         1 000332   000000 756100                    STQ     0,,PR0

     1526     7766    3                 END;

   7766  1 000333   000412 710000 1                  TRA     s:7785

     1527     7767    2              ELSE IF CMD_INDEX = PT_COMMAND_PARENT.NSUBLKS - 1 THEN

   7767  1 000334   100001 236100                    LDQ     1,,PR1
         1 000335   000022 772000                    QRL     18
         1 000336   000001 136007                    SBLQ    1,DL
         1 000337   000000 116100                    CMPQ    0,,PR0
         1 000340   001555 600000 1                  TZE     IF_COMMAND_LAST_FAILURE

     1528     7768    2                    GOTO IF_COMMAND_LAST_FAILURE;
     1529     7769    3                 ELSE DO; /* IF COMMAND */

     1530     7770    3                    CALL VDE$PNUMBER

   7770  1 000341   300003 476500                    LDP6    3,,PR3
         1 000342   600003 477500                    LDP7    3,,PR6
         1 000343   200012 630500                    EPPR0   SINK,,AUTO
         1 000344   200027 450500                    STP0    @TEXTC_REMOTE$+3,,AUTO
         1 000345   200026 457500                    STP7    @TEXTC_REMOTE$+2,,AUTO
         1 000346   200026 630500                    EPPR0   @TEXTC_REMOTE$+2,,AUTO
         1 000347   000020 631400 xsym               EPPR1   B_VECTNIL+16
         1 000350   000000 701000 xent               TSX1    VDE$PNUMBER
         1 000351   001565 702000 1                  TSX2    PSTRING_FAILED

     1531     7771    3                      (CMD$BLK.SUBLK$(0) -> CMD$BLK.SUBLK$(0) -> CMD$BLK, SINK)
PL6.E3A0      #002=VDI$PARSE_TREE_TO_INTREE File=VDI$PARSE.:VDA5TSI              FRI 07/04/97 11:34 Page:200
     1532     7772    3                      ALTRET (PNUMBER_FAILED);
     1533     7773    3                    IF SINK < 0 THEN SINK = 0; /* Prepare for level counting */

   7773  1 000352   200012 235100                    LDA     SINK,,AUTO
         1 000353   000355 605000 1                  TPL     s:7774

   7773  1 000354   200012 450100                    STZ     SINK,,AUTO

     1534     7774    3                    IF SINK > 0 THEN CMD$STREAM.IF_CMD = '1'B;

   7774  1 000355   200012 235100                    LDA     SINK,,AUTO
         1 000356   000363 604400 1                  TMOZ    s:7776

   7774  1 000357   000026 470400 xsym               LDP0    VD_6E+22
         1 000360   100000 236007                    LDQ     32768,DL
         1 000361   000027 256100                    ORSQ    23,,PR0
         1 000362   000412 710000 1                  TRA     s:7785

     1535     7775    4                    ELSE DO UNTIL SINK < 0;

     1536     7776    4                       CMD_INDEX = CMD_INDEX + 1;

   7776  1 000363   200004 470500                    LDP0    @CMD_INDEX,,AUTO
         1 000364   000000 054100                    AOS     0,,PR0

     1537     7777    4                       IF CMD_INDEX = PT_COMMAND_PARENT.NSUBLKS-1 THEN EXIT;

   7777  1 000365   200003 471500                    LDP1    @PT_COMMAND_PARENT,,AUTO
         1 000366   100001 236100                    LDQ     1,,PR1
         1 000367   000022 772000                    QRL     18
         1 000370   000001 136007                    SBLQ    1,DL
         1 000371   000000 116100                    CMPQ    0,,PR0
         1 000372   000412 600000 1                  TZE     s:7785

     1538     7778    4                       CMD_BLK$ = PT_COMMAND_PARENT.SUBLK$ (CMD_INDEX);

   7778  1 000373   000000 235100                    LDA     0,,PR0
PL6.E3A0      #002=VDI$PARSE_TREE_TO_INTREE File=VDI$PARSE.:VDA5TSI              FRI 07/04/97 11:34 Page:201
         1 000374   100003 236105                    LDQ     3,AL,PR1
         1 000375   200006 756100                    STQ     CMD_BLK$,,AUTO

     1539     7779    4                       IF CMD$BLK.CODE = %T_IF_CMD THEN

   7779  1 000376   200006 473500                    LDP3    CMD_BLK$,,AUTO
         1 000377   300000 720100                    LXL0    0,,PR3
         1 000400   001772 100003                    CMPX0   1018,DU
         1 000401   000410 601000 1                  TNZ     s:7782

     1540     7780    4                          IF CMD$BLK.NSUBLKS > 0 THEN SINK = SINK + 1;

   7780  1 000402   300001 221100                    LDX1    1,,PR3
         1 000403   000406 600000 1                  TZE     s:7781

   7780  1 000404   200012 054100                    AOS     SINK,,AUTO
         1 000405   000410 710000 1                  TRA     s:7782

     1541     7781    4                          ELSE SINK = SINK - 1;

   7781  1 000406   000001 336007                    LCQ     1,DL
         1 000407   200012 056100                    ASQ     SINK,,AUTO

     1542     7782    4                       END;

   7782  1 000410   200012 235100                    LDA     SINK,,AUTO
         1 000411   000363 605000 1                  TPL     s:7776

     1543     7783    3                    END;

     1544     7784
     1545     7785    2              CALL VDG$OFREE (IT$COMMAND) ALTRET (OFREE_FAILED);

   7785  1 000412   200005 470500                    LDP0    @IT_COMMAND$,,AUTO
         1 000413   000000 471500                    LDP1    0,,PR0
         1 000414   200026 451500                    STP1    @TEXTC_REMOTE$+2,,AUTO
         1 000415   200026 630500                    EPPR0   @TEXTC_REMOTE$+2,,AUTO
PL6.E3A0      #002=VDI$PARSE_TREE_TO_INTREE File=VDI$PARSE.:VDA5TSI              FRI 07/04/97 11:34 Page:202
         1 000416   000017 631400 xsym               EPPR1   B_VECTNIL+15
         1 000417   000000 701000 xent               TSX1    VDG$OFREE
         1 000420   001574 702000 1                  TSX2    OALLOC_FAILED

     1546     7786    2              IT_COMMAND$ = ADDR(NIL);

   7786  1 000421   000001 236000 xsym               LDQ     B_VECTNIL+1
         1 000422   200005 470500                    LDP0    @IT_COMMAND$,,AUTO
         1 000423   000000 756100                    STQ     0,,PR0
         1 000424   001506 710000 1                  TRA     s:8108

     1547     7787
     1548     7788
     1549     7789    2            CASE (%T_KEYIN_CMD);

     1550     7790                   /*
     1551     7791                   *  The ParseTree for the KEYIN command is:
     1552     7792                   *
     1553     7793                   *                      T_KEYIN_CMD
     1554     7794                   *                           |
     1555     7795                   *          -------------------------------- (opt.) ---
     1556     7796                   *          |                         |               |
     1557     7797                   *  T_BREAK or T_KEYIN_NAME     T_KEYIN_VALUE    T_IN_WINDOW
     1558     7798                   *                   |                |               |
     1559     7799                   *             T_STRING_EXPR    T_STRING_EXPR         |
     1560     7800                   *                   |                |               |
     1561     7801                   *                XUE_EXP#         XUE_EXP#        one of:
     1562     7802                   *
     1563     7803                   *  T_COMMAND_WINDOW  or  T_EDITING_WINDOW  or  T_SPECIFIC_WINDOW
     1564     7804                   *                                                     |
     1565     7805                   *                                                T_STRING_EXPR
     1566     7806                   *                                                     |
     1567     7807                   *                                                  XUE_EXP#
     1568     7808                   */
     1569     7809
     1570     7810                   %INCREMENT (ARRAY=STATS_TOKENS#,
     1571     7811                   INDX="CMD$BLK.SUBLK$ (0) -> CMD$BLK.CODE - %VD_BASE#");
PL6.E3A0      #002=VDI$PARSE_TREE_TO_INTREE File=VDI$PARSE.:VDA5TSI              FRI 07/04/97 11:34 Page:203

   7812  1 000425   300003 476500                    LDP6    3,,PR3
         1 000426   600000 720100                    LXL0    0,,PR6
         1 000427   776375 054010 xsym               AOS     VD_6E-771,X0

     1572     7814    2              CALL VDE$PSTRING (CMD$BLK.SUBLK$(0) -> CMD$BLK.SUBLK$(0) ->

   7814  1 000430   300003 475500                    LDP5    3,,PR3
         1 000431   500003 476500                    LDP6    3,,PR5
         1 000432   600003 477500                    LDP7    3,,PR6
         1 000433   400000 470500                    LDP0    0,,PR4
         1 000434   200016 631500                    EPPR1   CTRL_FN_ARGS_ARRAY,,AUTO
         1 000435   200032 451500                    STP1    @TEXTC_REMOTE$+6,,AUTO
         1 000436   200011 635500                    EPPR5   RETCODE,,AUTO
         1 000437   200031 455500                    STP5    @TEXTC_REMOTE$+5,,AUTO
         1 000440   000006 636500                    EPPR6   6,,PR0
         1 000441   200030 456500                    STP6    @TEXTC_REMOTE$+4,,AUTO
         1 000442   200012 630500                    EPPR0   SINK,,AUTO
         1 000443   200027 450500                    STP0    @TEXTC_REMOTE$+3,,AUTO
         1 000444   200026 457500                    STP7    @TEXTC_REMOTE$+2,,AUTO
         1 000445   200026 630500                    EPPR0   @TEXTC_REMOTE$+2,,AUTO
         1 000446   000023 631400 xsym               EPPR1   B_VECTNIL+19
         1 000447   000000 701000 xent               TSX1    VDE$PSTRING
         1 000450   001565 702000 1                  TSX2    PSTRING_FAILED

     1573     7815    2                CMD$BLK.SUBLK$(0) -> CMD$BLK, SINK,
     1574     7816    2                IT$COMMAND.PARAM$ (%CP_KE_NAME), RETCODE, CTRL_FN_ARGS_ARRAY)
     1575     7817    2                ALTRET (PSTRING_FAILED);
     1576     7818    2              IF RETCODE ~= %CHR_SPACE THEN

   7818  1 000451   200011 236100                    LDQ     RETCODE,,AUTO
         1 000452   777000 376003                    ANQ     -512,DU
         1 000453   040000 116003                    CMPQ    16384,DU
         1 000454   001537 601000 1                  TNZ     CTRLFN_CONFLICTS_W_KEYIN_ERROR

     1577     7819    2                 GOTO CTRLFN_CONFLICTS_W_KEYIN_ERROR;
     1578     7820
PL6.E3A0      #002=VDI$PARSE_TREE_TO_INTREE File=VDI$PARSE.:VDA5TSI              FRI 07/04/97 11:34 Page:204
     1579     7821    2              IF IT$COMMAND.PARAM$ (%CP_KE_NAME) = ADDR(NIL) THEN

   7821  1 000455   200005 470500                    LDP0    @IT_COMMAND$,,AUTO
         1 000456   000000 471500                    LDP1    0,,PR0
         1 000457   100006 236100                    LDQ     6,,PR1
         1 000460   000001 116000 xsym               CMPQ    B_VECTNIL+1
         1 000461   000464 601000 1                  TNZ     s:7826

     1580     7822    2                 IT$COMMAND.PARAM$ (%CP_KE_NAME) = ADDR(ZERO_LENGTH_BUFFER);

   7822  1 000462   000003 236000 2                  LDQ     3
         1 000463   100006 756100                    STQ     6,,PR1

     1581     7823
     1582     7824                   %INCREMENT (ARRAY=STATS_TOKENS#,
     1583     7825                   INDX="CMD$BLK.SUBLK$ (1) -> CMD$BLK.CODE - %VD_BASE#");

   7826  1 000464   200006 471500                    LDP1    CMD_BLK$,,AUTO
         1 000465   100004 473500                    LDP3    4,,PR1
         1 000466   300000 720100                    LXL0    0,,PR3
         1 000467   776375 054010 xsym               AOS     VD_6E-771,X0

     1584     7828    2              CALL VDE$PSTRING (CMD$BLK.SUBLK$ (1) -> CMD$BLK.SUBLK$ (0) ->

   7828  1 000470   100004 473500                    LDP3    4,,PR1
         1 000471   300003 474500                    LDP4    3,,PR3
         1 000472   400003 475500                    LDP5    3,,PR4
         1 000473   000000 476500                    LDP6    0,,PR0
         1 000474   200016 637500                    EPPR7   CTRL_FN_ARGS_ARRAY,,AUTO
         1 000475   200032 457500                    STP7    @TEXTC_REMOTE$+6,,AUTO
         1 000476   200011 633500                    EPPR3   RETCODE,,AUTO
         1 000477   200031 453500                    STP3    @TEXTC_REMOTE$+5,,AUTO
         1 000500   600007 634500                    EPPR4   7,,PR6
         1 000501   200030 454500                    STP4    @TEXTC_REMOTE$+4,,AUTO
         1 000502   200012 636500                    EPPR6   SINK,,AUTO
         1 000503   200027 456500                    STP6    @TEXTC_REMOTE$+3,,AUTO
         1 000504   200026 455500                    STP5    @TEXTC_REMOTE$+2,,AUTO
PL6.E3A0      #002=VDI$PARSE_TREE_TO_INTREE File=VDI$PARSE.:VDA5TSI              FRI 07/04/97 11:34 Page:205
         1 000505   200026 630500                    EPPR0   @TEXTC_REMOTE$+2,,AUTO
         1 000506   000023 631400 xsym               EPPR1   B_VECTNIL+19
         1 000507   000000 701000 xent               TSX1    VDE$PSTRING
         1 000510   001565 702000 1                  TSX2    PSTRING_FAILED

     1585     7829    2                CMD$BLK.SUBLK$ (0) -> CMD$BLK, SINK,
     1586     7830    2                IT$COMMAND.PARAM$ (%CP_KE_VALUE), RETCODE, CTRL_FN_ARGS_ARRAY)
     1587     7831    2                ALTRET (PSTRING_FAILED);
     1588     7832    2              IF RETCODE ~= %CHR_SPACE THEN

   7832  1 000511   200011 236100                    LDQ     RETCODE,,AUTO
         1 000512   777000 376003                    ANQ     -512,DU
         1 000513   040000 116003                    CMPQ    16384,DU
         1 000514   001537 601000 1                  TNZ     CTRLFN_CONFLICTS_W_KEYIN_ERROR

     1589     7833    2                 GOTO CTRLFN_CONFLICTS_W_KEYIN_ERROR;
     1590     7834
     1591     7835    2              IF IT$COMMAND.PARAM$ (%CP_KE_VALUE) = ADDR(NIL) THEN

   7835  1 000515   200005 470500                    LDP0    @IT_COMMAND$,,AUTO
         1 000516   000000 471500                    LDP1    0,,PR0
         1 000517   100007 236100                    LDQ     7,,PR1
         1 000520   000001 116000 xsym               CMPQ    B_VECTNIL+1
         1 000521   000524 601000 1                  TNZ     s:7838

     1592     7836    2                 IT$COMMAND.PARAM$ (%CP_KE_VALUE) = ADDR(ZERO_LENGTH_BUFFER);

   7836  1 000522   000003 236000 2                  LDQ     3
         1 000523   100007 756100                    STQ     7,,PR1

     1593     7837
     1594     7838    2              SINK = 2;

   7838  1 000524   000002 235007                    LDA     2,DL
         1 000525   200012 755100                    STA     SINK,,AUTO

     1595     7839    2              IF CMD$BLK.NSUBLKS > 2 THEN
PL6.E3A0      #002=VDI$PARSE_TREE_TO_INTREE File=VDI$PARSE.:VDA5TSI              FRI 07/04/97 11:34 Page:206

   7839  1 000526   200006 471500                    LDP1    CMD_BLK$,,AUTO
         1 000527   100001 220100                    LDX0    1,,PR1
         1 000530   000003 100003                    CMPX0   3,DU
         1 000531   001506 602000 1                  TNC     s:8108

     1596     7840    3   BUILD_WINDOW_SPECIFIER: DO;

   7840  1 000532                       BUILD_WINDO* null
     1597     7841                      /* Build a VD$NUMBER containing the window specifier */
     1598     7842                      %INCREMENT (ARRAY=STATS_TOKENS#,
     1599     7843                      INDX="CMD$BLK.SUBLK$ (SINK) -> CMD$BLK.CODE - %VD_BASE#");

   7844  1 000532   100003 473505                    LDP3    3,AL,PR1
         1 000533   300000 721100                    LXL1    0,,PR3
         1 000534   200012 722100                    LXL2    SINK,,AUTO
         1 000535   100003 473512                    LDP3    3,X2,PR1
         1 000536   300000 723100                    LXL3    0,,PR3
         1 000537   776375 235013 xsym               LDA     VD_6E-771,X3
         1 000540   000001 035007                    ADLA    1,DL
         1 000541   776375 755011 xsym               STA     VD_6E-771,X1

     1600     7846    3                 CMD_BLK$ = CMD$BLK.SUBLK$ (SINK) -> CMD$BLK.SUBLK$ (0);

   7846  1 000542   100003 473512                    LDP3    3,X2,PR1
         1 000543   300003 236100                    LDQ     3,,PR3
         1 000544   200006 756100                    STQ     CMD_BLK$,,AUTO

     1601     7847                      %INCREMENT (ARRAY=STATS_TOKENS#, INDX="CMD$BLK.CODE - %VD_BASE#");

   7848  1 000545   200006 471500                    LDP1    CMD_BLK$,,AUTO
         1 000546   100000 720100                    LXL0    0,,PR1
         1 000547   776375 054010 xsym               AOS     VD_6E-771,X0

     1602     7850    3                 IF CMD$BLK.CODE = %T_COMMAND_WINDOW THEN

   7850  1 000550   100000 720100                    LXL0    0,,PR1
PL6.E3A0      #002=VDI$PARSE_TREE_TO_INTREE File=VDI$PARSE.:VDA5TSI              FRI 07/04/97 11:34 Page:207
         1 000551   002064 100003                    CMPX0   1076,DU
         1 000552   000556 601000 1                  TNZ     s:7852

     1603     7851    3                    WINDOW_SUBSCRIPT = %WK_COMMAND_WINDOW + %WI_KEY_OFFSET;

   7851  1 000553   000002 235007                    LDA     2,DL
         1 000554   200013 755100                    STA     WINDOW_SUBSCRIPT,,AUTO
         1 000555   000605 710000 1                  TRA     s:7867

     1604     7852    3                 ELSE IF CMD$BLK.CODE = %T_EDITING_WINDOW THEN

   7852  1 000556   002065 100003                    CMPX0   1077,DU
         1 000557   000563 601000 1                  TNZ     s:7857

     1605     7853    3                       WINDOW_SUBSCRIPT = %WI_EDITING;

   7853  1 000560   000001 235007                    LDA     1,DL
         1 000561   200013 755100                    STA     WINDOW_SUBSCRIPT,,AUTO
         1 000562   000605 710000 1                  TRA     s:7867

     1606     7854    4                    ELSE DO;

     1607     7855                            %INCREMENT (ARRAY=STATS_TOKENS#,
     1608     7856                            INDX="CMD$BLK.SUBLK$ (0) -> CMD$BLK.CODE - %VD_BASE#");

   7857  1 000563   100003 473500                    LDP3    3,,PR1
         1 000564   300000 721100                    LXL1    0,,PR3
         1 000565   776375 054011 xsym               AOS     VD_6E-771,X1

     1609     7859    4                       CALL VDE$PNUMBER (CMD$BLK.SUBLK$ (0) ->

   7859  1 000566   100003 473500                    LDP3    3,,PR1
         1 000567   300003 474500                    LDP4    3,,PR3
         1 000570   200013 635500                    EPPR5   WINDOW_SUBSCRIPT,,AUTO
         1 000571   200027 455500                    STP5    @TEXTC_REMOTE$+3,,AUTO
         1 000572   200026 454500                    STP4    @TEXTC_REMOTE$+2,,AUTO
         1 000573   200026 630500                    EPPR0   @TEXTC_REMOTE$+2,,AUTO
PL6.E3A0      #002=VDI$PARSE_TREE_TO_INTREE File=VDI$PARSE.:VDA5TSI              FRI 07/04/97 11:34 Page:208
         1 000574   000020 631400 xsym               EPPR1   B_VECTNIL+16
         1 000575   000000 701000 xent               TSX1    VDE$PNUMBER
         1 000576   001565 702000 1                  TSX2    PSTRING_FAILED

     1610     7860    4                         CMD$BLK.SUBLK$ (0) -> CMD$BLK, WINDOW_SUBSCRIPT)
     1611     7861    4                         ALTRET (PNUMBER_FAILED);
     1612     7862    4                       IF WINDOW_SUBSCRIPT < 0 OR WINDOW_SUBSCRIPT >

   7862  1 000577   200013 235100                    LDA     WINDOW_SUBSCRIPT,,AUTO
         1 000600   001521 604000 1                  TMI     WI_KEY_NOT_IN_RANGE_FAILURE
         1 000601   000012 115007                    CMPA    10,DL
         1 000602   001521 605400 1                  TPNZ    WI_KEY_NOT_IN_RANGE_FAILURE

     1613     7863    4                         (%MX_EDITING_WINDOWS + %WK_1ST_EDITING_WINDOW - 1) THEN
     1614     7864    4                          GOTO WI_KEY_NOT_IN_RANGE_FAILURE;
     1615     7865    4                       WINDOW_SUBSCRIPT = WINDOW_SUBSCRIPT + %WI_KEY_OFFSET;

   7865  1 000603   000002 236007                    LDQ     2,DL
         1 000604   200013 056100                    ASQ     WINDOW_SUBSCRIPT,,AUTO

     1616     7866    4                       END;

     1617     7867    3                 CALL VDG$OALLOC (%CLS_NUMBER, VD_NUMBER$)

   7867  1 000605   200015 630500                    EPPR0   VD_NUMBER$,,AUTO
         1 000606   200027 450500                    STP0    @TEXTC_REMOTE$+3,,AUTO
         1 000607   000005 236000 2                  LDQ     5
         1 000610   200026 756100                    STQ     @TEXTC_REMOTE$+2,,AUTO
         1 000611   200026 630500                    EPPR0   @TEXTC_REMOTE$+2,,AUTO
         1 000612   000020 631400 xsym               EPPR1   B_VECTNIL+16
         1 000613   000000 701000 xent               TSX1    VDG$OALLOC
         1 000614   001574 702000 1                  TSX2    OALLOC_FAILED

     1618     7868    3                   ALTRET (OALLOC_FAILED);
     1619     7869    3                 IF SINK = 2 THEN

   7869  1 000615   200012 235100                    LDA     SINK,,AUTO
PL6.E3A0      #002=VDI$PARSE_TREE_TO_INTREE File=VDI$PARSE.:VDA5TSI              FRI 07/04/97 11:34 Page:209
         1 000616   000002 115007                    CMPA    2,DL
         1 000617   000625 601000 1                  TNZ     s:7872

     1620     7870    3                    IT$COMMAND.PARAM$ (%CP_KE_IN) = VD_NUMBER$;

   7870  1 000620   200005 470500                    LDP0    @IT_COMMAND$,,AUTO
         1 000621   000000 471500                    LDP1    0,,PR0
         1 000622   200015 236100                    LDQ     VD_NUMBER$,,AUTO
         1 000623   100010 756100                    STQ     8,,PR1
         1 000624   000631 710000 1                  TRA     s:7873

     1621     7871    3                 ELSE
     1622     7872    3                    IT$COMMAND.PARAM$ (%CP_EQ_IN) = VD_NUMBER$;

   7872  1 000625   200005 470500                    LDP0    @IT_COMMAND$,,AUTO
         1 000626   000000 471500                    LDP1    0,,PR0
         1 000627   200015 236100                    LDQ     VD_NUMBER$,,AUTO
         1 000630   100010 756100                    STQ     8,,PR1

     1623     7873    3                 VD$NUMBER.V# = WINDOW_SUBSCRIPT;

   7873  1 000631   200015 471500                    LDP1    VD_NUMBER$,,AUTO
         1 000632   200013 235100                    LDA     WINDOW_SUBSCRIPT,,AUTO
         1 000633   100003 755100                    STA     3,,PR1

     1624     7874    3                 END BUILD_WINDOW_SPECIFIER;

   7874  1 000634   001506 710000 1                  TRA     s:8108

     1625     7875
     1626     7876
     1627     7877    2            CASE (%T_LOCATION_CMD);

     1628     7878                   /*
     1629     7879                   *  The ParseTree for a LOCATION command is:
     1630     7880                   *
     1631     7881                   *                T_LOCATION_CMD
PL6.E3A0      #002=VDI$PARSE_TREE_TO_INTREE File=VDI$PARSE.:VDA5TSI              FRI 07/04/97 11:34 Page:210
     1632     7882                   *                      |
     1633     7883                   *            ----------------------
     1634     7884                   *            |                    |
     1635     7885                   *        T_DEF_NAME          T_BLOCK_EXPR
     1636     7886                   *            |
     1637     7887                   *         .symbol
     1638     7888                   */
     1639     7889                   %INCREMENT (ARRAY=STATS_TOKENS#,
     1640     7890                   INDX="CMD$BLK.SUBLK$ (0) -> CMD$BLK.CODE - %VD_BASE#");

   7891  1 000635   300003 476500                    LDP6    3,,PR3
         1 000636   600000 720100                    LXL0    0,,PR6
         1 000637   776375 054010 xsym               AOS     VD_6E-771,X0

     1641     7893    2              SYM_BLK$ = CMD$BLK.SUBLK$ (0) -> CMD$BLK.SUBLK$ (0);

   7893  1 000640   300003 475500                    LDP5    3,,PR3
         1 000641   500003 236100                    LDQ     3,,PR5
         1 000642   200007 756100                    STQ     SYM_BLK$,,AUTO

     1642     7894    2              CALL XLATE (SYM$BLK.TEXT, B$XL_UPPER, SYM$BLK.TEXT);

   7894  1 000643   200007 476500                    LDP6    SYM_BLK$,,AUTO
         1 000644   600004 236100                    LDQ     4,,PR6
         1 000645   000033 772000                    QRL     27
         1 000646   000000 620006                    EAX0    0,QL
         1 000647   000000 477400 xsym               LDP7    B$XL_UPPER$
         1 000650   000000 621006                    EAX1    0,QL
         1 000651   040140 160540                    MVT     fill='040'O
         1 000652   600004 200010                    ADSC9   4,,PR6                   cn=1,n=*X0
         1 000653   600004 200011                    ADSC9   4,,PR6                   cn=1,n=*X1
         1 000654   700000 000100                    ARG     0,,PR7

     1643     7895    2              CALL MAKE_TEXTC_REMOTE (SYM$BLK.TEXTC$ -> VD$TEXTC,

   7895  1 000655   600003 475500                    LDP5    3,,PR6
         1 000656   400000 470500                    LDP0    0,,PR4
PL6.E3A0      #002=VDI$PARSE_TREE_TO_INTREE File=VDI$PARSE.:VDA5TSI              FRI 07/04/97 11:34 Page:211
         1 000657   000007 631500                    EPPR1   7,,PR0
         1 000660   200024 451500                    STP1    @TEXTC+1,,AUTO
         1 000661   200023 455500                    STP5    SUBST_FIELD$+2,,AUTO
         1 000662   001600 701000 1                  TSX1    MAKE_TEXTC_REMOTE
         1 000663   001565 702000 1                  TSX2    PSTRING_FAILED

     1644     7896    2                IT$COMMAND.PARAM$ (%CP_LO_NAME))
     1645     7897    2                ALTRET (MAKE_TEXTC_REMOTE_FAILED);
     1646     7898
     1647     7899    2              IT$COMMAND.PT_BLOCK_EXPR$ = CMD$BLK.SUBLK$ (1);

   7899  1 000664   200005 470500                    LDP0    @IT_COMMAND$,,AUTO
         1 000665   000000 471500                    LDP1    0,,PR0
         1 000666   200006 473500                    LDP3    CMD_BLK$,,AUTO
         1 000667   300004 236100                    LDQ     4,,PR3
         1 000670   100004 756100                    STQ     4,,PR1
         1 000671   001506 710000 1                  TRA     s:8108

     1648     7900
     1649     7901
     1650     7902    2            CASE (%T_READ_CMD);

     1651     7903                   /*
     1652     7904                   *  The ParseTree for the READ command is:
     1653     7905                   *
     1654     7906                   *             T_READ_CMD
     1655     7907                   *                 |
     1656     7908                   *               T_FID     *N* or T_BLOCK_EXPR or T_STRING_EXPR
     1657     7909                   */
     1658     7910    2              SYM_BLK$ = CMD$BLK.SUBLK$ (0);

   7910  1 000672   300003 236100                    LDQ     3,,PR3
         1 000673   200007 756100                    STQ     SYM_BLK$,,AUTO

     1659     7911                   %INCREMENT (ARRAY=STATS_TOKENS#, INDX="SYM$BLK.CODE - %VD_BASE#");

   7912  1 000674   200007 476500                    LDP6    SYM_BLK$,,AUTO
PL6.E3A0      #002=VDI$PARSE_TREE_TO_INTREE File=VDI$PARSE.:VDA5TSI              FRI 07/04/97 11:34 Page:212
         1 000675   600000 720100                    LXL0    0,,PR6
         1 000676   776375 054010 xsym               AOS     VD_6E-771,X0

     1660     7914    2              CALL MAKE_TEXTC_REMOTE (SYM$BLK.TEXTC$ -> VD$TEXTC,

   7914  1 000677   600003 475500                    LDP5    3,,PR6
         1 000700   400000 477500                    LDP7    0,,PR4
         1 000701   700006 630500                    EPPR0   6,,PR7
         1 000702   200024 450500                    STP0    @TEXTC+1,,AUTO
         1 000703   200023 455500                    STP5    SUBST_FIELD$+2,,AUTO
         1 000704   001600 701000 1                  TSX1    MAKE_TEXTC_REMOTE
         1 000705   001565 702000 1                  TSX2    PSTRING_FAILED

     1661     7915    2                IT$COMMAND.PARAM$ (%CP_READ_FID))
     1662     7916    2                ALTRET (MAKE_TEXTC_REMOTE_FAILED);
     1663     7917
     1664     7918    2              CALL VDG$OALLOC (%CLS_NUMBER, VD_NUMBER$)

   7918  1 000706   200015 630500                    EPPR0   VD_NUMBER$,,AUTO
         1 000707   200027 450500                    STP0    @TEXTC_REMOTE$+3,,AUTO
         1 000710   000005 236000 2                  LDQ     5
         1 000711   200026 756100                    STQ     @TEXTC_REMOTE$+2,,AUTO
         1 000712   200026 630500                    EPPR0   @TEXTC_REMOTE$+2,,AUTO
         1 000713   000020 631400 xsym               EPPR1   B_VECTNIL+16
         1 000714   000000 701000 xent               TSX1    VDG$OALLOC
         1 000715   001574 702000 1                  TSX2    OALLOC_FAILED

     1665     7919    2                ALTRET (OALLOC_FAILED);
     1666     7920    2              IT$COMMAND.PARAM$ (%CP_READ_NEXT_COMMAND) = VD_NUMBER$;

   7920  1 000716   200005 470500                    LDP0    @IT_COMMAND$,,AUTO
         1 000717   000000 471500                    LDP1    0,,PR0
         1 000720   200015 236100                    LDQ     VD_NUMBER$,,AUTO
         1 000721   100007 756100                    STQ     7,,PR1

     1667     7921    2              VD$NUMBER.V# = 0;     /* Assume no more cmds on this record */

PL6.E3A0      #002=VDI$PARSE_TREE_TO_INTREE File=VDI$PARSE.:VDA5TSI              FRI 07/04/97 11:34 Page:213
   7921  1 000722   200015 471500                    LDP1    VD_NUMBER$,,AUTO
         1 000723   100003 450100                    STZ     3,,PR1

     1668     7922    3              IF CMD_INDEX < (PT_COMMAND_PARENT.NSUBLKS - 1) THEN DO;

   7922  1 000724   200004 471500                    LDP1    @CMD_INDEX,,AUTO
         1 000725   200003 473500                    LDP3    @PT_COMMAND_PARENT,,AUTO
         1 000726   300001 236100                    LDQ     1,,PR3
         1 000727   000022 772000                    QRL     18
         1 000730   000001 136007                    SBLQ    1,DL
         1 000731   100000 116100                    CMPQ    0,,PR1
         1 000732   001506 604400 1                  TMOZ    s:8108

     1669     7923    3                 VD$NUMBER.V# = PT_COMMAND_PARENT.SUBLK$ (CMD_INDEX + 1) ->

   7923  1 000733   100000 235100                    LDA     0,,PR1
         1 000734   300004 474505                    LDP4    4,AL,PR3
         1 000735   400002 235100                    LDA     2,,PR4
         1 000736   200015 474500                    LDP4    VD_NUMBER$,,AUTO
         1 000737   400003 755100                    STA     3,,PR4

     1670     7924    3                   CMD$BLK.CPOS;
     1671     7925                      /* Force no more processing of this record for now */
     1672     7926    3                 CMD_INDEX = PT_COMMAND_PARENT.NSUBLKS;

   7926  1 000740   300001 236100                    LDQ     1,,PR3
         1 000741   000022 772000                    QRL     18
         1 000742   100000 756100                    STQ     0,,PR1

     1673     7927    3                 END;

   7927  1 000743   001506 710000 1                  TRA     s:8108

     1674     7928
     1675     7929
     1676     7930    2            CASE (%T_RESTORE_CMD);

PL6.E3A0      #002=VDI$PARSE_TREE_TO_INTREE File=VDI$PARSE.:VDA5TSI              FRI 07/04/97 11:34 Page:214
     1677     7931                   /*
     1678     7932                   *  The ParseTree for the RESTORE command is:
     1679     7933                   *
     1680     7934                   *           T_RESTORE_CMD
     1681     7935                   *                 |
     1682     7936                   *               T_FID     *N* or T_BLOCK_EXPR or T_STRING_EXPR
     1683     7937                   */
     1684     7938    2              SYM_BLK$ = CMD$BLK.SUBLK$ (0);

   7938  1 000744   300003 236100                    LDQ     3,,PR3
         1 000745   200007 756100                    STQ     SYM_BLK$,,AUTO

     1685     7939                   %INCREMENT (ARRAY=STATS_TOKENS#, INDX="SYM$BLK.CODE - %VD_BASE#");

   7940  1 000746   200007 476500                    LDP6    SYM_BLK$,,AUTO
         1 000747   600000 720100                    LXL0    0,,PR6
         1 000750   776375 054010 xsym               AOS     VD_6E-771,X0

     1686     7942    2              CALL MAKE_TEXTC_REMOTE (SYM$BLK.TEXTC$ -> VD$TEXTC,

   7942  1 000751   600003 475500                    LDP5    3,,PR6
         1 000752   400000 477500                    LDP7    0,,PR4
         1 000753   700006 630500                    EPPR0   6,,PR7
         1 000754   200024 450500                    STP0    @TEXTC+1,,AUTO
         1 000755   200023 455500                    STP5    SUBST_FIELD$+2,,AUTO
         1 000756   001600 701000 1                  TSX1    MAKE_TEXTC_REMOTE
         1 000757   001565 702000 1                  TSX2    PSTRING_FAILED
         1 000760   001506 710000 1                  TRA     s:8108

     1687     7943    2                IT$COMMAND.PARAM$ (%CP_RESTORE_FID))
     1688     7944    2                ALTRET (MAKE_TEXTC_REMOTE_FAILED);
     1689     7945
     1690     7946
     1691     7947    2            CASE (%T_SAVE_CMD);

     1692     7948                   /*
     1693     7949                   *  The ParseTree for the SAVE command is:
PL6.E3A0      #002=VDI$PARSE_TREE_TO_INTREE File=VDI$PARSE.:VDA5TSI              FRI 07/04/97 11:34 Page:215
     1694     7950                   *
     1695     7951                   *                             T_SAVE_CMD
     1696     7952                   *                                 |
     1697     7953                   *              (opt.) --------------------------------------
     1698     7954                   *                |                            |            |
     1699     7955                   *      ALL or SETUP or SESSION              T_TO or       FID
     1700     7956                   *                                          T_OVER or    (PARSE$SYM
     1701     7957                   *                                                       with fid)
     1702     7958                   */
     1703     7959
     1704     7960    2   EACH_SAVE_CHILD:
     1705     7961    3              DO SYM_BLK = 0 TO CMD$BLK.NSUBLKS - 1;

   7961  1 000761   200010 450100       EACH_SAVE_C* STZ     SYM_BLK,,AUTO
         1 000762   001134 710000 1                  TRA     s:7987+1

     1706     7962    3                 SYM_BLK$ = CMD$BLK.SUBLK$ (SYM_BLK);

   7962  1 000763   200006 470500                    LDP0    CMD_BLK$,,AUTO
         1 000764   200010 720100                    LXL0    SYM_BLK,,AUTO
         1 000765   000003 236110                    LDQ     3,X0,PR0
         1 000766   200007 756100                    STQ     SYM_BLK$,,AUTO

     1707     7963                      %INCREMENT(ARRAY=STATS_TOKENS#, INDX="SYM$BLK.CODE - %VD_BASE#");

   7964  1 000767   200007 471500                    LDP1    SYM_BLK$,,AUTO
         1 000770   100000 721100                    LXL1    0,,PR1
         1 000771   776375 054011 xsym               AOS     VD_6E-771,X1

     1708     7966    4                 DO CASE (SYM$BLK.CODE);

   7966  1 000772   100000 236100                    LDQ     0,,PR1
         1 000773   777777 376007                    ANQ     -1,DL
         1 000774   001777 136007                    SBLQ    1023,DL
         1 000775   000072 116007                    CMPQ    58,DL
         1 000776   001000 602006 1                  TNC     s:7966+6,QL
         1 000777   001133 710000 1                  TRA     s:7987
PL6.E3A0      #002=VDI$PARSE_TREE_TO_INTREE File=VDI$PARSE.:VDA5TSI              FRI 07/04/97 11:34 Page:216
         1 001000   001072 710000 1                  TRA     s:7968
         1 001001   001133 710000 1                  TRA     s:7987
         1 001002   001111 710000 1                  TRA     s:7977
         1 001003   001133 710000 1                  TRA     s:7987
         1 001004   001116 710000 1                  TRA     s:7980
         1 001005   001133 710000 1                  TRA     s:7987
         1 001006   001133 710000 1                  TRA     s:7987
         1 001007   001133 710000 1                  TRA     s:7987
         1 001010   001123 710000 1                  TRA     s:7983
         1 001011   001133 710000 1                  TRA     s:7987
         1 001012   001133 710000 1                  TRA     s:7987
         1 001013   001133 710000 1                  TRA     s:7987
         1 001014   001133 710000 1                  TRA     s:7987
         1 001015   001133 710000 1                  TRA     s:7987
         1 001016   001133 710000 1                  TRA     s:7987
         1 001017   001133 710000 1                  TRA     s:7987
         1 001020   001133 710000 1                  TRA     s:7987
         1 001021   001133 710000 1                  TRA     s:7987
         1 001022   001133 710000 1                  TRA     s:7987
         1 001023   001133 710000 1                  TRA     s:7987
         1 001024   001133 710000 1                  TRA     s:7987
         1 001025   001133 710000 1                  TRA     s:7987
         1 001026   001133 710000 1                  TRA     s:7987
         1 001027   001133 710000 1                  TRA     s:7987
         1 001030   001133 710000 1                  TRA     s:7987
         1 001031   001133 710000 1                  TRA     s:7987
         1 001032   001133 710000 1                  TRA     s:7987
         1 001033   001133 710000 1                  TRA     s:7987
         1 001034   001133 710000 1                  TRA     s:7987
         1 001035   001133 710000 1                  TRA     s:7987
         1 001036   001133 710000 1                  TRA     s:7987
         1 001037   001133 710000 1                  TRA     s:7987
         1 001040   001133 710000 1                  TRA     s:7987
         1 001041   001133 710000 1                  TRA     s:7987
         1 001042   001133 710000 1                  TRA     s:7987
         1 001043   001133 710000 1                  TRA     s:7987
         1 001044   001133 710000 1                  TRA     s:7987
PL6.E3A0      #002=VDI$PARSE_TREE_TO_INTREE File=VDI$PARSE.:VDA5TSI              FRI 07/04/97 11:34 Page:217
         1 001045   001133 710000 1                  TRA     s:7987
         1 001046   001133 710000 1                  TRA     s:7987
         1 001047   001133 710000 1                  TRA     s:7987
         1 001050   001133 710000 1                  TRA     s:7987
         1 001051   001133 710000 1                  TRA     s:7987
         1 001052   001133 710000 1                  TRA     s:7987
         1 001053   001133 710000 1                  TRA     s:7987
         1 001054   001133 710000 1                  TRA     s:7987
         1 001055   001133 710000 1                  TRA     s:7987
         1 001056   001133 710000 1                  TRA     s:7987
         1 001057   001133 710000 1                  TRA     s:7987
         1 001060   001133 710000 1                  TRA     s:7987
         1 001061   001133 710000 1                  TRA     s:7987
         1 001062   001133 710000 1                  TRA     s:7987
         1 001063   001133 710000 1                  TRA     s:7987
         1 001064   001133 710000 1                  TRA     s:7987
         1 001065   001133 710000 1                  TRA     s:7987
         1 001066   001133 710000 1                  TRA     s:7987
         1 001067   001133 710000 1                  TRA     s:7987
         1 001070   001077 710000 1                  TRA     s:7971
         1 001071   001104 710000 1                  TRA     s:7974

     1709     7967    4                  CASE (%T_ALL);

     1710     7968    4                    IT$COMMAND.FLAGS (%CF_SAVE_ALL) = %TRUE;

   7968  1 001072   200005 473500                    LDP3    @IT_COMMAND$,,AUTO
         1 001073   300000 474500                    LDP4    0,,PR3
         1 001074   400000 236003                    LDQ     -131072,DU
         1 001075   400005 256100                    ORSQ    5,,PR4
         1 001076   001133 710000 1                  TRA     s:7987

     1711     7969
     1712     7970    4                  CASE (%T_SETUP);

     1713     7971    4                    IT$COMMAND.FLAGS (%CF_SAVE_SETUP) = %TRUE;

PL6.E3A0      #002=VDI$PARSE_TREE_TO_INTREE File=VDI$PARSE.:VDA5TSI              FRI 07/04/97 11:34 Page:218
   7971  1 001077   200005 473500                    LDP3    @IT_COMMAND$,,AUTO
         1 001100   300000 474500                    LDP4    0,,PR3
         1 001101   200000 236003                    LDQ     65536,DU
         1 001102   400005 256100                    ORSQ    5,,PR4
         1 001103   001133 710000 1                  TRA     s:7987

     1714     7972
     1715     7973    4                  CASE (%T_SESSION);

     1716     7974    4                    IT$COMMAND.FLAGS (%CF_SAVE_SESSION) = %TRUE;

   7974  1 001104   200005 473500                    LDP3    @IT_COMMAND$,,AUTO
         1 001105   300000 474500                    LDP4    0,,PR3
         1 001106   100000 236003                    LDQ     32768,DU
         1 001107   400005 256100                    ORSQ    5,,PR4
         1 001110   001133 710000 1                  TRA     s:7987

     1717     7975
     1718     7976    4                  CASE (%T_TO);

     1719     7977    4                    IT$COMMAND.FLAGS (%CF_SAVE_TO) = %TRUE;

   7977  1 001111   200005 473500                    LDP3    @IT_COMMAND$,,AUTO
         1 001112   300000 474500                    LDP4    0,,PR3
         1 001113   040000 236003                    LDQ     16384,DU
         1 001114   400005 256100                    ORSQ    5,,PR4
         1 001115   001133 710000 1                  TRA     s:7987

     1720     7978
     1721     7979    4                  CASE (%T_OVER);

     1722     7980    4                    IT$COMMAND.FLAGS (%CF_SAVE_OVER) = %TRUE;

   7980  1 001116   200005 473500                    LDP3    @IT_COMMAND$,,AUTO
         1 001117   300000 474500                    LDP4    0,,PR3
         1 001120   020000 236003                    LDQ     8192,DU
         1 001121   400005 256100                    ORSQ    5,,PR4
PL6.E3A0      #002=VDI$PARSE_TREE_TO_INTREE File=VDI$PARSE.:VDA5TSI              FRI 07/04/97 11:34 Page:219
         1 001122   001133 710000 1                  TRA     s:7987

     1723     7981
     1724     7982    4                  CASE (%T_FID);

     1725     7983    4                    CALL MAKE_TEXTC_REMOTE (SYM$BLK.TEXTC$ -> VD$TEXTC,

   7983  1 001123   100003 473500                    LDP3    3,,PR1
         1 001124   200005 474500                    LDP4    @IT_COMMAND$,,AUTO
         1 001125   400000 475500                    LDP5    0,,PR4
         1 001126   500006 636500                    EPPR6   6,,PR5
         1 001127   200024 456500                    STP6    @TEXTC+1,,AUTO
         1 001130   200023 453500                    STP3    SUBST_FIELD$+2,,AUTO
         1 001131   001600 701000 1                  TSX1    MAKE_TEXTC_REMOTE
         1 001132   001565 702000 1                  TSX2    PSTRING_FAILED

     1726     7984    4                      IT$COMMAND.PARAM$ (%CP_SAVE_FID))
     1727     7985    4                      ALTRET (MAKE_TEXTC_REMOTE_FAILED);
     1728     7986    4                  END;

     1729     7987    3                 END EACH_SAVE_CHILD;

   7987  1 001133   200010 054100                    AOS     SYM_BLK,,AUTO
         1 001134   200006 470500                    LDP0    CMD_BLK$,,AUTO
         1 001135   000001 236100                    LDQ     1,,PR0
         1 001136   000022 772000                    QRL     18
         1 001137   200010 116100                    CMPQ    SYM_BLK,,AUTO
         1 001140   000763 605400 1                  TPNZ    s:7962

     1730     7988
     1731     7989    2              IF NOT IT$COMMAND.FLAGS (%CF_SAVE_SETUP)

   7989  1 001141   200005 471500                    LDP1    @IT_COMMAND$,,AUTO
         1 001142   100000 473500                    LDP3    0,,PR1
         1 001143   300005 236100                    LDQ     5,,PR3
         1 001144   200000 316003                    CANQ    65536,DU
         1 001145   001506 601000 1                  TNZ     s:8108
PL6.E3A0      #002=VDI$PARSE_TREE_TO_INTREE File=VDI$PARSE.:VDA5TSI              FRI 07/04/97 11:34 Page:220
         1 001146   100000 316003                    CANQ    32768,DU
         1 001147   001506 601000 1                  TNZ     s:8108

     1732     7990    2                AND NOT IT$COMMAND.FLAGS (%CF_SAVE_SESSION) THEN
     1733     7991    2                 IT$COMMAND.FLAGS (%CF_SAVE_ALL) = %TRUE;  /* Default 1st param */

   7991  1 001150   400000 236003                    LDQ     -131072,DU
         1 001151   300005 256100                    ORSQ    5,,PR3
         1 001152   001506 710000 1                  TRA     s:8108

     1734     7992
     1735     7993
     1736     7994    2            CASE (%T_SYNONYM_CMD);

     1737     7995                   /*
     1738     7996                   *  The ParseTree for the SYNONYM command is:
     1739     7997                   *
     1740     7998                   *                         T_SYNONYM_CMD
     1741     7999                   *                               |
     1742     8000                   *                ---------------------------------
     1743     8001                   *                |                               |
     1744     8002                   *             either                        T_SY_VALUE
     1745     8003                   *       |       or        |                 (PARSE$SYM
     1746     8004                   *    T_DEF_NAME      T_SPECIAL_NAME         for value)
     1747     8005                   *       |            (PARSE$SYM for
     1748     8006                   *    .symbol         special name)
     1749     8007                   */
     1750     8008    2              SYM_BLK$ = CMD$BLK.SUBLK$ (0);

   8008  1 001153   300003 236100                    LDQ     3,,PR3
         1 001154   200007 756100                    STQ     SYM_BLK$,,AUTO

     1751     8009                   %INCREMENT (ARRAY=STATS_TOKENS#, INDX="SYM$BLK.CODE - %VD_BASE#");

   8010  1 001155   200007 476500                    LDP6    SYM_BLK$,,AUTO
         1 001156   600000 720100                    LXL0    0,,PR6
         1 001157   776375 054010 xsym               AOS     VD_6E-771,X0
PL6.E3A0      #002=VDI$PARSE_TREE_TO_INTREE File=VDI$PARSE.:VDA5TSI              FRI 07/04/97 11:34 Page:221

     1752     8012    2              IF SYM$BLK.CODE = %T_DEF_NAME THEN

   8012  1 001160   600000 720100                    LXL0    0,,PR6
         1 001161   002060 100003                    CMPX0   1072,DU
         1 001162   001165 601000 1                  TNZ     s:8015

     1753     8013    2                 SYM_BLK$ = SYM_BLK$ -> CMD$BLK.SUBLK$ (0);

   8013  1 001163   600003 236100                    LDQ     3,,PR6
         1 001164   200007 756100                    STQ     SYM_BLK$,,AUTO

     1754     8014
     1755     8015    2              CALL XLATE (SYM$BLK.TEXT, B$XL_UPPER, SYM$BLK.TEXT);

   8015  1 001165   200007 475500                    LDP5    SYM_BLK$,,AUTO
         1 001166   500004 236100                    LDQ     4,,PR5
         1 001167   000033 772000                    QRL     27
         1 001170   000000 620006                    EAX0    0,QL
         1 001171   000000 476400 xsym               LDP6    B$XL_UPPER$
         1 001172   000000 621006                    EAX1    0,QL
         1 001173   040140 160540                    MVT     fill='040'O
         1 001174   500004 200010                    ADSC9   4,,PR5                   cn=1,n=*X0
         1 001175   500004 200011                    ADSC9   4,,PR5                   cn=1,n=*X1
         1 001176   600000 000100                    ARG     0,,PR6

     1756     8016    2              CALL MAKE_TEXTC_REMOTE (SYM$BLK.TEXTC$ -> VD$TEXTC,

   8016  1 001177   500003 477500                    LDP7    3,,PR5
         1 001200   400000 470500                    LDP0    0,,PR4
         1 001201   000006 631500                    EPPR1   6,,PR0
         1 001202   200024 451500                    STP1    @TEXTC+1,,AUTO
         1 001203   200023 457500                    STP7    SUBST_FIELD$+2,,AUTO
         1 001204   001600 701000 1                  TSX1    MAKE_TEXTC_REMOTE
         1 001205   001565 702000 1                  TSX2    PSTRING_FAILED

     1757     8017    2                IT$COMMAND.PARAM$ (%CP_SY_NAME))
PL6.E3A0      #002=VDI$PARSE_TREE_TO_INTREE File=VDI$PARSE.:VDA5TSI              FRI 07/04/97 11:34 Page:222
     1758     8018    2                ALTRET (MAKE_TEXTC_REMOTE_FAILED);
     1759     8019
     1760     8020    2              SYM_BLK$ = CMD$BLK.SUBLK$ (1);

   8020  1 001206   200006 470500                    LDP0    CMD_BLK$,,AUTO
         1 001207   000004 236100                    LDQ     4,,PR0
         1 001210   200007 756100                    STQ     SYM_BLK$,,AUTO

     1761     8021                   %INCREMENT (ARRAY=STATS_TOKENS#, INDX="SYM$BLK.CODE - %VD_BASE#");

   8022  1 001211   200007 471500                    LDP1    SYM_BLK$,,AUTO
         1 001212   100000 720100                    LXL0    0,,PR1
         1 001213   776375 054010 xsym               AOS     VD_6E-771,X0

     1762     8024
     1763     8025    2              CALL VDG$OALLOC (%CLS_BUFFER, VD_BUFFER$,

   8025  1 001214   100004 236100                    LDQ     4,,PR1
         1 001215   000033 772000                    QRL     27
         1 001216   000015 036007                    ADLQ    13,DL
         1 001217   000002 772000                    QRL     2
         1 001220   200026 756100                    STQ     @TEXTC_REMOTE$+2,,AUTO
         1 001221   200026 633500                    EPPR3   @TEXTC_REMOTE$+2,,AUTO
         1 001222   200031 453500                    STP3    @TEXTC_REMOTE$+5,,AUTO
         1 001223   200014 634500                    EPPR4   VD_BUFFER$,,AUTO
         1 001224   200030 454500                    STP4    @TEXTC_REMOTE$+4,,AUTO
         1 001225   000002 236000 2                  LDQ     2
         1 001226   200027 756100                    STQ     @TEXTC_REMOTE$+3,,AUTO
         1 001227   200027 630500                    EPPR0   @TEXTC_REMOTE$+3,,AUTO
         1 001230   000021 631400 xsym               EPPR1   B_VECTNIL+17
         1 001231   000000 701000 xent               TSX1    VDG$OALLOC
         1 001232   001574 702000 1                  TSX2    OALLOC_FAILED

     1764     8026    2                (LENGTHC(VD$BUFFER_HEADER) + SYM$BLK.COUNT + (%NB_PER_WORD-1)) /
     1765     8027    2                %NB_PER_WORD)
     1766     8028    2                ALTRET (OALLOC_FAILED);
     1767     8029    2              IT$COMMAND.PARAM$ (%CP_SY_VALUE) = VD_BUFFER$;
PL6.E3A0      #002=VDI$PARSE_TREE_TO_INTREE File=VDI$PARSE.:VDA5TSI              FRI 07/04/97 11:34 Page:223

   8029  1 001233   200005 470500                    LDP0    @IT_COMMAND$,,AUTO
         1 001234   000000 471500                    LDP1    0,,PR0
         1 001235   200014 236100                    LDQ     VD_BUFFER$,,AUTO
         1 001236   100007 756100                    STQ     7,,PR1

     1768     8030    2              VD$BUFFER.LENGTH# = SYM$BLK.COUNT;

   8030  1 001237   200007 471500                    LDP1    SYM_BLK$,,AUTO
         1 001240   100004 236100                    LDQ     4,,PR1
         1 001241   000033 772000                    QRL     27
         1 001242   000000 620006                    EAX0    0,QL
         1 001243   200014 473500                    LDP3    VD_BUFFER$,,AUTO
         1 001244   300002 740100                    STX0    2,,PR3

     1769     8031    2              VD$BUFFER.BYTES = SYM$BLK.TEXT;

   8031  1 001245   200014 473500                    LDP3    VD_BUFFER$,,AUTO
         1 001246   300002 220100                    LDX0    2,,PR3
         1 001247   100004 236100                    LDQ     4,,PR1
         1 001250   000033 772000                    QRL     27
         1 001251   000000 621006                    EAX1    0,QL
         1 001252   040140 100540                    MLR     fill='040'O
         1 001253   100004 200011                    ADSC9   4,,PR1                   cn=1,n=*X1
         1 001254   300002 400010                    ADSC9   2,,PR3                   cn=2,n=*X0
         1 001255   001506 710000 1                  TRA     s:8108

     1770     8032
     1771     8033
     1772     8034    2            CASE (%T_WINDOW_CMD);

     1773     8035                   /*
     1774     8036                   *  The ParseTree for the WINDOW command is:
     1775     8037                   *
     1776     8038                   *           T_WINDOW_CMD
     1777     8039                   *                 |
     1778     8040                   *  (opt)--------(opt)--------(opt)--------(opt)
PL6.E3A0      #002=VDI$PARSE_TREE_TO_INTREE File=VDI$PARSE.:VDA5TSI              FRI 07/04/97 11:34 Page:224
     1779     8041                   *    |            |            |            |
     1780     8042                   * T_DELETE_CMD T_IN_WINDOW  T_LINES or   T_EDIT_CMD
     1781     8043                   *  or T_NEW      ...        T_PERCENT      ...
     1782     8044                   * or T_NEXT
     1783     8045                   * or T_PREV
     1784     8046                   */
     1785     8047    2              SINK = VD_EDITING_HEIGHT *

   8047  1 001256   000000 236000 xsym               LDQ     VD_EDITING_WINDOWS
         1 001257   000001 136007                    SBLQ    1,DL
         1 001260   000003 402000 xsym               MPY     VD_$WI_PERCENT+3
         1 001261   000027 676000 xsym               ERQ     B_VECTNIL+23
         1 001262   000145 036007                    ADLQ    101,DL
         1 001263   000000 402000 xsym               MPY     VD_EDITING_HEIGHT
         1 001264   000144 506007                    DIV     100,DL
         1 001265   200012 756100                    STQ     SINK,,AUTO

     1786     8048    2                (100 - (VD_EDITING_WINDOWS-1) * VD_$WI_PERCENT.V#) /100;
     1787     8049    3              DO SYM_BLK=0 TO CMD$BLK.NSUBLKS-1;

   8049  1 001266   200010 450100                    STZ     SYM_BLK,,AUTO
         1 001267   001442 710000 1                  TRA     s:8094+1

     1788     8050    3                 SYM_BLK$ = CMD$BLK.SUBLK$(SYM_BLK);

   8050  1 001270   200006 470500                    LDP0    CMD_BLK$,,AUTO
         1 001271   200010 720100                    LXL0    SYM_BLK,,AUTO
         1 001272   000003 236110                    LDQ     3,X0,PR0
         1 001273   200007 756100                    STQ     SYM_BLK$,,AUTO

     1789     8051                      %INCREMENT(ARRAY=STATS_TOKENS#, INDX=SYM$BLK.CODE - %VD_BASE#);

   8052  1 001274   200007 471500                    LDP1    SYM_BLK$,,AUTO
         1 001275   100000 721100                    LXL1    0,,PR1
         1 001276   776375 054011 xsym               AOS     VD_6E-771,X1

     1790     8054    4                 IF SYM$BLK.CODE = %T_EDIT_CMD THEN DO;
PL6.E3A0      #002=VDI$PARSE_TREE_TO_INTREE File=VDI$PARSE.:VDA5TSI              FRI 07/04/97 11:34 Page:225

   8054  1 001277   100000 721100                    LXL1    0,,PR1
         1 001300   001752 101003                    CMPX1   1002,DU
         1 001301   001307 601000 1                  TNZ     s:8057

     1791     8055    4                    IT$COMMAND.PT_BLOCK_EXPR$ = SYM_BLK$ -> CMD$BLK.SUBLK$(0);

   8055  1 001302   200005 473500                    LDP3    @IT_COMMAND$,,AUTO
         1 001303   300000 474500                    LDP4    0,,PR3
         1 001304   100003 236100                    LDQ     3,,PR1
         1 001305   400004 756100                    STQ     4,,PR4

     1792     8056    4                    END;

   8056  1 001306   001441 710000 1                  TRA     s:8094

     1793     8057    3                 ELSE IF SYM$BLK.CODE = %T_DELETE_CMD THEN

   8057  1 001307   001763 101003                    CMPX1   1011,DU
         1 001310   001316 601000 1                  TNZ     s:8059

     1794     8058    3                       IT$COMMAND.FLAGS(%CF_WI_DELETE) = %TRUE;

   8058  1 001311   200005 473500                    LDP3    @IT_COMMAND$,,AUTO
         1 001312   300000 474500                    LDP4    0,,PR3
         1 001313   400000 236003                    LDQ     -131072,DU
         1 001314   400005 256100                    ORSQ    5,,PR4
         1 001315   001441 710000 1                  TRA     s:8094

     1795     8059    3                    ELSE IF SYM$BLK.CODE = %T_NEW THEN

   8059  1 001316   002044 101003                    CMPX1   1060,DU
         1 001317   001325 601000 1                  TNZ     s:8061

     1796     8060    3                          IT$COMMAND.FLAGS(%CF_WI_NEW) = %TRUE;

   8060  1 001320   200005 473500                    LDP3    @IT_COMMAND$,,AUTO
PL6.E3A0      #002=VDI$PARSE_TREE_TO_INTREE File=VDI$PARSE.:VDA5TSI              FRI 07/04/97 11:34 Page:226
         1 001321   300000 474500                    LDP4    0,,PR3
         1 001322   200000 236003                    LDQ     65536,DU
         1 001323   400005 256100                    ORSQ    5,,PR4
         1 001324   001441 710000 1                  TRA     s:8094

     1797     8061    3                       ELSE IF SYM$BLK.CODE = %T_NEXT OR SYM$BLK.CODE = %T_PREVIOUS

   8061  1 001325   002041 101003                    CMPX1   1057,DU
         1 001326   001331 600000 1                  TZE     s:8063
         1 001327   002042 101003                    CMPX1   1058,DU
         1 001330   001362 601000 1                  TNZ     s:8075

     1798     8062    4                          THEN DO;

     1799     8063    4                             IF VD_CURRENT_WINDOW$ = ADDR(NIL) THEN EXIT;

   8063  1 001331   000000 236000 xsym               LDQ     VD_CURRENT_WINDOW$
         1 001332   000001 116000 xsym               CMPQ    B_VECTNIL+1
         1 001333   001361 600000 1                  TZE     s:8072+1

     1800     8064    4                             WINDOW_SUBSCRIPT = ADDR (VD_CURRENT_WINDOW$ ->

   8064  1 001334   000000 473400 xsym               LDP3    VD_CURRENT_WINDOW$
         1 001335   300005 236100                    LDQ     5,,PR3
         1 001336   000032 376000 xsym               ANQ     B_VECTNIL+26
         1 001337   000001 036007                    ADLQ    1,DL
         1 001340   200013 756100                    STQ     WINDOW_SUBSCRIPT,,AUTO

     1801     8065    4                               VD$FILE_NODE.DESC.KEY) -> VD$KEY_NUMBER.BYTES# + 1;
     1802     8066    4                             IF SYM$BLK.CODE = %T_PREVIOUS THEN

   8066  1 001341   100000 721100                    LXL1    0,,PR1
         1 001342   002042 101003                    CMPX1   1058,DU
         1 001343   001346 601000 1                  TNZ     s:8068

     1803     8067    4                                WINDOW_SUBSCRIPT = WINDOW_SUBSCRIPT - 2;

PL6.E3A0      #002=VDI$PARSE_TREE_TO_INTREE File=VDI$PARSE.:VDA5TSI              FRI 07/04/97 11:34 Page:227
   8067  1 001344   000002 336007                    LCQ     2,DL
         1 001345   200013 056100                    ASQ     WINDOW_SUBSCRIPT,,AUTO

     1804     8068    4                             IF WINDOW_SUBSCRIPT >= VD_EDITING_WINDOWS THEN

   8068  1 001346   200013 236100                    LDQ     WINDOW_SUBSCRIPT,,AUTO
         1 001347   000000 116000 xsym               CMPQ    VD_EDITING_WINDOWS
         1 001350   001353 604000 1                  TMI     s:8070

     1805     8069    4                                WINDOW_SUBSCRIPT = 1;

   8069  1 001351   000001 235007                    LDA     1,DL
         1 001352   200013 755100                    STA     WINDOW_SUBSCRIPT,,AUTO

     1806     8070    4                             IF WINDOW_SUBSCRIPT = 0 THEN

   8070  1 001353   200013 235100                    LDA     WINDOW_SUBSCRIPT,,AUTO
         1 001354   001360 601000 1                  TNZ     s:8072

     1807     8071    4                                WINDOW_SUBSCRIPT = VD_EDITING_WINDOWS-1;

   8071  1 001355   000000 236000 xsym               LDQ     VD_EDITING_WINDOWS
         1 001356   000001 136007                    SBLQ    1,DL
         1 001357   200013 756100                    STQ     WINDOW_SUBSCRIPT,,AUTO

     1808     8072    4                             GOTO SET_WINDOW_NUMBER;

   8072  1 001360   001422 710000 1                  TRA     SET_WINDOW_NUMBER
         1 001361   001441 710000 1                  TRA     s:8094

     1809     8073    4                             END;
     1810     8074    4                          ELSE DO;

     1811     8075    4                             CALL VDE$PNUMBER (SYM_BLK$ -> CMD$BLK.SUBLK$(0) ->

   8075  1 001362   100003 473500                    LDP3    3,,PR1
         1 001363   300003 474500                    LDP4    3,,PR3
PL6.E3A0      #002=VDI$PARSE_TREE_TO_INTREE File=VDI$PARSE.:VDA5TSI              FRI 07/04/97 11:34 Page:228
         1 001364   200013 635500                    EPPR5   WINDOW_SUBSCRIPT,,AUTO
         1 001365   200027 455500                    STP5    @TEXTC_REMOTE$+3,,AUTO
         1 001366   200026 454500                    STP4    @TEXTC_REMOTE$+2,,AUTO
         1 001367   200026 630500                    EPPR0   @TEXTC_REMOTE$+2,,AUTO
         1 001370   000020 631400 xsym               EPPR1   B_VECTNIL+16
         1 001371   000000 701000 xent               TSX1    VDE$PNUMBER
         1 001372   001565 702000 1                  TSX2    PSTRING_FAILED

     1812     8076    4                               CMD$BLK.SUBLK$(0) -> CMD$BLK, WINDOW_SUBSCRIPT)
     1813     8077    4                               ALTRET (PNUMBER_FAILED);
     1814     8078    5                             IF SYM$BLK.CODE ~= %T_IN_WINDOW THEN DO;

   8078  1 001373   200007 470500                    LDP0    SYM_BLK$,,AUTO
         1 001374   000000 720100                    LXL0    0,,PR0
         1 001375   002063 100003                    CMPX0   1075,DU
         1 001376   001415 600000 1                  TZE     s:8085

     1815     8079    5                                SINK = WINDOW_SUBSCRIPT;

   8079  1 001377   200013 235100                    LDA     WINDOW_SUBSCRIPT,,AUTO
         1 001400   200012 755100                    STA     SINK,,AUTO

     1816     8080    5                                IF SYM$BLK.CODE = %T_PERCENT THEN

   8080  1 001401   000000 720100                    LXL0    0,,PR0
         1 001402   001755 100003                    CMPX0   1005,DU
         1 001403   001410 601000 1                  TNZ     s:8082

     1817     8081    5                                   SINK = VD_EDITING_HEIGHT * SINK / 100;

   8081  1 001404   000000 236000 xsym               LDQ     VD_EDITING_HEIGHT
         1 001405   200012 402100                    MPY     SINK,,AUTO
         1 001406   000144 506007                    DIV     100,DL
         1 001407   200012 756100                    STQ     SINK,,AUTO

     1818     8082    5                                IT$COMMAND.PARAM$ (%CP_WI_LINES) = SYM_BLK$;

PL6.E3A0      #002=VDI$PARSE_TREE_TO_INTREE File=VDI$PARSE.:VDA5TSI              FRI 07/04/97 11:34 Page:229
   8082  1 001410   200005 471500                    LDP1    @IT_COMMAND$,,AUTO
         1 001411   100000 473500                    LDP3    0,,PR1
         1 001412   200007 236100                    LDQ     SYM_BLK$,,AUTO
         1 001413   300007 756100                    STQ     7,,PR3

     1819     8083    5                                END;

   8083  1 001414   001441 710000 1                  TRA     s:8094

     1820     8084    5                             ELSE DO;

     1821     8085    5                                IF WINDOW_SUBSCRIPT >= VD_EDITING_WINDOWS

   8085  1 001415   200013 236100                    LDQ     WINDOW_SUBSCRIPT,,AUTO
         1 001416   000000 116000 xsym               CMPQ    VD_EDITING_WINDOWS
         1 001417   001521 605000 1                  TPL     WI_KEY_NOT_IN_RANGE_FAILURE
         1 001420   000000 116003                    CMPQ    0,DU
         1 001421   001521 600000 1                  TZE     WI_KEY_NOT_IN_RANGE_FAILURE

     1822     8086    5                                  OR WINDOW_SUBSCRIPT = 0 THEN
     1823     8087    5                                   GOTO WI_KEY_NOT_IN_RANGE_FAILURE;
     1824     8088    5   SET_WINDOW_NUMBER:           CALL VDG$OALLOC (%CLS_NUMBER, IT$COMMAND.PARAM$(%
              8088            CP_WI_NUM))

   8088  1 001422   200005 470500       SET_WINDOW_* LDP0    @IT_COMMAND$,,AUTO
         1 001423   000000 471500                    LDP1    0,,PR0
         1 001424   100010 633500                    EPPR3   8,,PR1
         1 001425   200027 453500                    STP3    @TEXTC_REMOTE$+3,,AUTO
         1 001426   000005 236000 2                  LDQ     5
         1 001427   200026 756100                    STQ     @TEXTC_REMOTE$+2,,AUTO
         1 001430   200026 630500                    EPPR0   @TEXTC_REMOTE$+2,,AUTO
         1 001431   000020 631400 xsym               EPPR1   B_VECTNIL+16
         1 001432   000000 701000 xent               TSX1    VDG$OALLOC
         1 001433   001574 702000 1                  TSX2    OALLOC_FAILED

     1825     8089    5                                  ALTRET (OALLOC_FAILED);
     1826     8090    5                                IT$COMMAND.PARAM$(%CP_WI_NUM) -> VD$NUMBER.V# =
PL6.E3A0      #002=VDI$PARSE_TREE_TO_INTREE File=VDI$PARSE.:VDA5TSI              FRI 07/04/97 11:34 Page:230

   8090  1 001434   200005 470500                    LDP0    @IT_COMMAND$,,AUTO
         1 001435   000000 471500                    LDP1    0,,PR0
         1 001436   100010 473500                    LDP3    8,,PR1
         1 001437   200013 235100                    LDA     WINDOW_SUBSCRIPT,,AUTO
         1 001440   300003 755100                    STA     3,,PR3

     1827     8091    5                                  WINDOW_SUBSCRIPT;
     1828     8092    5                                END;

     1829     8093    4                             END;

     1830     8094    3                 END;

   8094  1 001441   200010 054100                    AOS     SYM_BLK,,AUTO
         1 001442   200006 470500                    LDP0    CMD_BLK$,,AUTO
         1 001443   000001 236100                    LDQ     1,,PR0
         1 001444   000022 772000                    QRL     18
         1 001445   200010 116100                    CMPQ    SYM_BLK,,AUTO
         1 001446   001270 605400 1                  TPNZ    s:8050

     1831     8095    2              IF IT$COMMAND.PARAM$(%CP_WI_LINES) ~= ADDR(NIL) OR

   8095  1 001447   200005 471500                    LDP1    @IT_COMMAND$,,AUTO
         1 001450   100000 473500                    LDP3    0,,PR1
         1 001451   300007 236100                    LDQ     7,,PR3
         1 001452   000001 116000 xsym               CMPQ    B_VECTNIL+1
         1 001453   001457 601000 1                  TNZ     s:8097
         1 001454   300005 236100                    LDQ     5,,PR3
         1 001455   200000 316003                    CANQ    65536,DU
         1 001456   001506 600000 1                  TZE     s:8108

     1832     8096    3                IT$COMMAND.FLAGS (%CF_WI_NEW) THEN DO;

     1833     8097    3                 CALL VDG$OALLOC (%CLS_NUMBER, IT$COMMAND.PARAM$(%CP_WI_LINES))

   8097  1 001457   300007 634500                    EPPR4   7,,PR3
PL6.E3A0      #002=VDI$PARSE_TREE_TO_INTREE File=VDI$PARSE.:VDA5TSI              FRI 07/04/97 11:34 Page:231
         1 001460   200027 454500                    STP4    @TEXTC_REMOTE$+3,,AUTO
         1 001461   000005 236000 2                  LDQ     5
         1 001462   200026 756100                    STQ     @TEXTC_REMOTE$+2,,AUTO
         1 001463   200026 630500                    EPPR0   @TEXTC_REMOTE$+2,,AUTO
         1 001464   000020 631400 xsym               EPPR1   B_VECTNIL+16
         1 001465   000000 701000 xent               TSX1    VDG$OALLOC
         1 001466   001574 702000 1                  TSX2    OALLOC_FAILED

     1834     8098    3                   ALTRET (OALLOC_FAILED);
     1835     8099    3                 IT$COMMAND.PARAM$(%CP_WI_LINES) -> VD$NUMBER.V# =

   8099  1 001467   200005 470500                    LDP0    @IT_COMMAND$,,AUTO
         1 001470   000000 471500                    LDP1    0,,PR0
         1 001471   100007 473500                    LDP3    7,,PR1
         1 001472   000000 236000 xsym               LDQ     VD_EDITING_HEIGHT
         1 001473   200012 116100                    CMPQ    SINK,,AUTO
         1 001474   001476 604400 1                  TMOZ    s:8099+7
         1 001475   200012 236100                    LDQ     SINK,,AUTO
         1 001476   300003 756100                    STQ     3,,PR3

     1836     8100    3                   MINIMUM (SINK, VD_EDITING_HEIGHT);
     1837     8101    3                 END;

   8101  1 001477   001506 710000 1                  TRA     s:8108

     1838     8102
     1839     8103
     1840     8104    2            CASE (ELSE);

     1841     8105    2              CALL VDG$ESCREECH (IT$COMMAND.CODE#);

   8105  1 001500   500003 636500                    EPPR6   3,,PR5
         1 001501   200026 456500                    STP6    @TEXTC_REMOTE$+2,,AUTO
         1 001502   200026 630500                    EPPR0   @TEXTC_REMOTE$+2,,AUTO
         1 001503   000017 631400 xsym               EPPR1   B_VECTNIL+15
         1 001504   000000 701000 xent               TSX1    VDG$ESCREECH
         1 001505   000000 011000                    NOP     0
PL6.E3A0      #002=VDI$PARSE_TREE_TO_INTREE File=VDI$PARSE.:VDA5TSI              FRI 07/04/97 11:34 Page:232

     1842     8106    2            END CMD_CODE_CASES;

     1843     8107
     1844     8108    1           CMD_INDEX = CMD_INDEX + 1;    /* Bump past the node we just processed */

   8108  1 001506   200004 470500                    LDP0    @CMD_INDEX,,AUTO
         1 001507   000000 054100                    AOS     0,,PR0

     1845     8109    1           IF CMD_INDEX = PT_COMMAND_PARENT.NSUBLKS THEN

   8109  1 001510   200003 471500                    LDP1    @PT_COMMAND_PARENT,,AUTO
         1 001511   100001 236100                    LDQ     1,,PR1
         1 001512   000022 772000                    QRL     18
         1 001513   000000 116100                    CMPQ    0,,PR0
         1 001514   001520 601000 1                  TNZ     s:8111

     1846     8110    1              CMD$STREAM.IF_CMD = '0'B;

   8110  1 001515   000026 473400 xsym               LDP3    VD_6E+22
         1 001516   000006 236000 2                  LDQ     6
         1 001517   300027 356100                    ANSQ    23,,PR3

     1847     8111    1           RETURN;

   8111  1 001520   000000 702200 xent               TSX2  ! X66_ARET

     1848     8112
     1849     8113
     1850     8114
     1851     8115    1   WI_KEY_NOT_IN_RANGE_FAILURE:
     1852     8116    1           CALL VDG$ERRMSG (%E$WI_KEY_NOT_IN_RANGE,

   8116  1 001521   000000 235000 xsym  WI_KEY_NOT_* LDA     VD_EDITING_WINDOWS
         1 001522   000001 135007                    SBLA    1,DL
         1 001523   200026 755100                    STA     @TEXTC_REMOTE$+2,,AUTO
         1 001524   200013 630500                    EPPR0   WINDOW_SUBSCRIPT,,AUTO
PL6.E3A0      #002=VDI$PARSE_TREE_TO_INTREE File=VDI$PARSE.:VDA5TSI              FRI 07/04/97 11:34 Page:233
         1 001525   200031 450500                    STP0    @TEXTC_REMOTE$+5,,AUTO
         1 001526   200026 631500                    EPPR1   @TEXTC_REMOTE$+2,,AUTO
         1 001527   200030 451500                    STP1    @TEXTC_REMOTE$+4,,AUTO
         1 001530   000010 236000 2                  LDQ     8
         1 001531   200027 756100                    STQ     @TEXTC_REMOTE$+3,,AUTO
         1 001532   200027 630500                    EPPR0   @TEXTC_REMOTE$+3,,AUTO
         1 001533   000021 631400 xsym               EPPR1   B_VECTNIL+17
         1 001534   000000 701000 xent               TSX1    VDG$ERRMSG
         1 001535   000000 011000                    NOP     0

     1853     8117    1             VD_EDITING_WINDOWS-1, WINDOW_SUBSCRIPT);
     1854     8118    1           GOTO SUB_PARSE_TREE_TO_INTREE_FAILED;

   8118  1 001536   001565 710000 1                  TRA     PSTRING_FAILED

   8109  1 001537                       CTRLFN_CONF* null
     1855     8119
     1856     8120
     1857     8121    1   CTRLFN_CONFLICTS_W_KEYIN_ERROR: ;
     1858     8122    1           CALL VDG$ERRMSG (%E$CTRLFN_CONFLICTS_W_KEYIN);

   8122  1 001537   000012 630400 2                  EPPR0   10
         1 001540   000017 631400 xsym               EPPR1   B_VECTNIL+15
         1 001541   000000 701000 xent               TSX1    VDG$ERRMSG
         1 001542   000000 011000                    NOP     0

     1859     8123    1           GOTO SUB_PARSE_TREE_TO_INTREE_FAILED;

   8123  1 001543   001565 710000 1                  TRA     PSTRING_FAILED

   8109  1 001544                       ELSE_CMD_WI* null
     1860     8124
     1861     8125
     1862     8126    1   ELSE_CMD_WITHOUT_IF_FAILURE: ;
     1863     8127    2           CALL VDG$ERRMSG (%E$ELSE_CMD_WITHOUT_IF) WHENRETURN DO;

   8127  1 001544   000014 630400 2                  EPPR0   12
PL6.E3A0      #002=VDI$PARSE_TREE_TO_INTREE File=VDI$PARSE.:VDA5TSI              FRI 07/04/97 11:34 Page:234
         1 001545   000017 631400 xsym               EPPR1   B_VECTNIL+15
         1 001546   000000 701000 xent               TSX1    VDG$ERRMSG
         1 001547   001554 702000 1                  TSX2    s:8130

     1864     8128    2              VD_6E.ERR_TAIL$ -> VD$ERR.CMDLINE_INDEX# = CMD$BLK.CPOS;

   8128  1 001550   200006 470500                    LDP0    CMD_BLK$,,AUTO
         1 001551   000002 720100                    LXL0    2,,PR0
         1 001552   000032 471400 xsym               LDP1    VD_6E+26
         1 001553   100003 440100                    SXL0    3,,PR1

     1865     8129    2              END;

     1866     8130    1           GOTO SUB_PARSE_TREE_TO_INTREE_FAILED;

   8130  1 001554   001565 710000 1                  TRA     PSTRING_FAILED

   8127  1 001555                       IF_COMMAND_* null
     1867     8131
     1868     8132
     1869     8133    1   IF_COMMAND_LAST_FAILURE: ;
     1870     8134    2           CALL VDG$ERRMSG (%E$IF_CMD_IS_LAST) WHENRETURN DO;

   8134  1 001555   000016 630400 2                  EPPR0   14
         1 001556   000017 631400 xsym               EPPR1   B_VECTNIL+15
         1 001557   000000 701000 xent               TSX1    VDG$ERRMSG
         1 001560   001565 702000 1                  TSX2    PSTRING_FAILED

     1871     8135    2              VD_6E.ERR_TAIL$ -> VD$ERR.CMDLINE_INDEX# = CMD$BLK.CPOS;

   8135  1 001561   200006 470500                    LDP0    CMD_BLK$,,AUTO
         1 001562   000002 720100                    LXL0    2,,PR0
         1 001563   000032 471400 xsym               LDP1    VD_6E+26
         1 001564   100003 440100                    SXL0    3,,PR1

     1872     8136    2              END;

PL6.E3A0      #002=VDI$PARSE_TREE_TO_INTREE File=VDI$PARSE.:VDA5TSI              FRI 07/04/97 11:34 Page:235
   8127  1 001565                       PSTRING_FAI* null
   8127  1 001565                       PNUMBER_FAI* null
     1873     8137
     1874     8138
     1875     8139    1   PSTRING_FAILED: ;
     1876     8140    1   PNUMBER_FAILED: ;
     1877     8141    1   MAKE_TEXTC_REMOTE_FAILED: ;

   8141  1 001565                       MAKE_TEXTC_* null
   8141  1 001565                       SUB_PARSE_T* null
     1878     8142    1   SUB_PARSE_TREE_TO_INTREE_FAILED: ;
     1879     8143    1           CALL VDG$OFREE (IT$COMMAND)

   8143  1 001565   200005 470500                    LDP0    @IT_COMMAND$,,AUTO
         1 001566   000000 471500                    LDP1    0,,PR0
         1 001567   200026 451500                    STP1    @TEXTC_REMOTE$+2,,AUTO
         1 001570   200026 630500                    EPPR0   @TEXTC_REMOTE$+2,,AUTO
         1 001571   000017 631400 xsym               EPPR1   B_VECTNIL+15
         1 001572   000000 701000 xent               TSX1    VDG$OFREE
         1 001573   001574 702000 1                  TSX2    OALLOC_FAILED

   8141  1 001574                       OALLOC_FAIL* null
   8141  1 001574                       OFREE_FAILED null
     1880     8144    1             ALTRET (OFREE_FAILED);
     1881     8145
     1882     8146
     1883     8147    1   OALLOC_FAILED: ;
     1884     8148    1   OFREE_FAILED: ;
     1885     8149    1           IT_COMMAND$ = ADDR(NIL);

   8149  1 001574   000001 236000 xsym               LDQ     B_VECTNIL+1
         1 001575   200005 470500                    LDP0    @IT_COMMAND$,,AUTO
         1 001576   000000 756100                    STQ     0,,PR0

     1886     8150    1           ALTRETURN;

   8150  1 001577   000000 702200 xent               TSX2  ! X66_AALT
PL6.E3A0      #002=VDI$PARSE_TREE_TO_INTREE File=VDI$PARSE.:VDA5TSI              FRI 07/04/97 11:34 Page:236

     1887     8151
     1888     8152
     1889     8153        /*I* NAME: MAKE_TEXTC_REMOTE
     1890     8154            PARAMETERS:
     1891     8155                TEXTC - A VD$TEXTC string.
     1892     8156                TEXTC_REMOTE$ - An uninitialized ptr.
     1893     8157            INPUT:
     1894     8158                None.
     1895     8159            OUTPUT:
     1896     8160                TEXTC_REMOTE$ will point to a VD$TEXTC_REMOTE object.
     1897     8161            DESCRIPTION:
     1898     8162                Build a VD$TEXTC_REMOTE containing the TEXTC string.
     1899     8163        */
     1900     8164
     1901     8165    1   MAKE_TEXTC_REMOTE: PROC (TEXTC, TEXTC_REMOTE$) ALTRET;

   8165  1 001600   200022 741300       MAKE_TEXTC_* STX1  ! SUBST_FIELD$+1,,AUTO

     1902     8166
     1903     8167        %VD$TEXTC (NAME=TEXTC, STCLASS=PARAM);
     1904     8190    2   DCL TEXTC_REMOTE$ PTR;
     1905     8191
     1906     8192
     1907     8193        %VD$TEXTC_REMOTE (NAME=TEXTC$REMOTE, STCLASS="BASED(TEXTC_REMOTE$)");
     1908     8254        %VD$STRING_HEADER;
     1909     8290
     1910     8291
     1911     8292
     1912     8293    2           CALL VDG$OALLOC (%CLS_TEXTC_REMOTE, TEXTC_REMOTE$,

   8293  1 001601   200023 470500                    LDP0    @TEXTC,,AUTO
         1 001602   000000 236100                    LDQ     0,,PR0
         1 001603   000033 772000                    QRL     27
         1 001604   000014 036007                    ADLQ    12,DL
         1 001605   000002 772000                    QRL     2
         1 001606   200026 756100                    STQ     @TEXTC_REMOTE$+2,,AUTO
PL6.E3A0      #002=VDI$PARSE_TREE_TO_INTREE File=VDI$PARSE.:VDA5TSI              FRI 07/04/97 11:34 Page:237
         1 001607   200026 631500                    EPPR1   @TEXTC_REMOTE$+2,,AUTO
         1 001610   200031 451500                    STP1    @TEXTC_REMOTE$+5,,AUTO
         1 001611   200024 236100                    LDQ     @TEXTC_REMOTE$,,AUTO
         1 001612   200030 756100                    STQ     @TEXTC_REMOTE$+4,,AUTO
         1 001613   000020 236000 2                  LDQ     16
         1 001614   200027 756100                    STQ     @TEXTC_REMOTE$+3,,AUTO
         1 001615   200027 630500                    EPPR0   @TEXTC_REMOTE$+3,,AUTO
         1 001616   000021 631400 xsym               EPPR1   B_VECTNIL+17
         1 001617   000000 701000 xent               TSX1    VDG$OALLOC
         1 001620   001622 702000 1                  TSX2    s:8296
         1 001621   001624 710000 1                  TRA     s:8298

     1913     8294    2             (LENGTHC(VD$STRING_HEADER) + TEXTC.LENGTH# +
     1914     8295    2             (%NB_PER_WORD-1)) / %NB_PER_WORD)
     1915     8296    3           WHENALTRETURN DO; ALTRETURN; END;

   8296  1 001622   200022 221300                    LDX1  ! SUBST_FIELD$+1,,AUTO
         1 001623   000000 702211                    TSX2  ! 0,X1

     1916     8297
     1917     8298    2           TEXTC$REMOTE.LENGTH# = TEXTC.LENGTH#;

   8298  1 001624   200024 470500                    LDP0    @TEXTC_REMOTE$,,AUTO
         1 001625   000000 471500                    LDP1    0,,PR0
         1 001626   200023 473500                    LDP3    @TEXTC,,AUTO
         1 001627   300000 236100                    LDQ     0,,PR3
         1 001630   100002 552140                    STBQ    2,'40'O,PR1

     1918     8299    2           TEXTC$REMOTE.BYTES = TEXTC.BYTES;

   8299  1 001631   000000 471500                    LDP1    0,,PR0
         1 001632   100002 236100                    LDQ     2,,PR1
         1 001633   000033 772000                    QRL     27
         1 001634   000000 620006                    EAX0    0,QL
         1 001635   300000 236100                    LDQ     0,,PR3
         1 001636   000033 772000                    QRL     27
         1 001637   000000 621006                    EAX1    0,QL
PL6.E3A0      #002=VDI$PARSE_TREE_TO_INTREE File=VDI$PARSE.:VDA5TSI              FRI 07/04/97 11:34 Page:238
         1 001640   040140 100540                    MLR     fill='040'O
         1 001641   300000 200011                    ADSC9   0,,PR3                   cn=1,n=*X1
         1 001642   100002 200010                    ADSC9   2,,PR1                   cn=1,n=*X0

     1919     8300
     1920     8301    2           RETURN;

   8301  1 001643   200022 221300                    LDX1  ! SUBST_FIELD$+1,,AUTO
         1 001644   000001 702211                    TSX2  ! 1,X1
     1921     8302
     1922     8303    2   END MAKE_TEXTC_REMOTE;
     1923     8304
     1924     8305    1   END VDI$PARSE_TREE_TO_INTREE;
     1925     8306        %EOD;

PL6.E3A0      #002=VDI$PARSE_TREE_TO_INTREE File=VDI$PARSE.:VDA5TSI              FRI 07/04/97 11:34 Page:239
--  Include file information  --

   B$TABLES_C.:LIBRARY  cannot be made into a system file and is referenced.
   XU_SUBS_C.:LIBRARY  is referenced.
   XU_MACRO_C.:LIBRARY  is referenced.
   XUE_MACRO_C.:LIBRARY  is referenced.
   VD_NODES0_E.:VDA5TOU  is referenced.
   VD_PERR_C.:VDA5TOU  is referenced.
   VD_MACROS_M.:VDA5TOU  is referenced.
   B$JIT_C.:E04TOU  was found in the system file and is never referenced.
   CP_6_C.:E04TOU  was found in the system file and is never referenced.
      No diagnostics issued in procedure VDI$PARSE_TREE_TO_INTREE.
PL6.E3A0      #002=VDI$PARSE_TREE_TO_INTREE File=VDI$PARSE.:VDA5TSI              FRI 07/04/97 11:34 Page:240

 **** Variables and constants ****

  ****  Section 000 RoData VDI$PARSE_TREE_TO_INTREE

  ****  Scalars and arrays  ****
OctLoc.c.b A Datatyp(siz) R M Lvl/name                 OctLoc.c.b A Datatyp(siz) R M Lvl/name

     0-0-0/w STRC(99)    r     1 ZERO_LENGTH_BUFFER

  ****  Auto variables  ****

  ****  Scalars and arrays  ****
OctLoc.c.b A Datatyp(siz) R M Lvl/name                 OctLoc.c.b A Datatyp(siz) R M Lvl/name

     4-0-0/w PTR         r     1 @CMD_INDEX                 5-0-0/w PTR         r     1 @IT_COMMAND$
     3-0-0/w PTR         r     1 @PT_COMMAND_PARENT        23-0-0/w PTR         r     1 @TEXTC
    24-0-0/w PTR         r     1 @TEXTC_REMOTE$             6-0-0/w PTR         r     1 CMD_BLK$
    *0-0-0/w SBIN        r     1 CMD_INDEX
    16-0-0/w SBIN        r     1 CTRL_FN_ARGS_ARRAY(0:1)
    *0-0-0/w PTR         r     1 IT_COMMAND$               *0-0-0/w STRC(144)   r     1 PT_COMMAND_PARENT
    11-0-0/c CHAR        r     1 RETCODE                   12-0-0/w SBIN        r     1 SINK
    21-0-0/w PTR         r     1 SUBST_FIELD$              10-0-0/w SBIN        r     1 SYM_BLK
     7-0-0/w PTR         r     1 SYM_BLK$                  *0-0-0/w ASTR(9)     r     1 TEXTC
    *0-0-0/w PTR         r     1 TEXTC_REMOTE$             14-0-0/w PTR         r     1 VD_BUFFER$
    20-0-0/w PTR         r     1 VD_ERR$                   15-0-0/w PTR         r     1 VD_NUMBER$
    13-0-0/w SBIN        r     1 WINDOW_SUBSCRIPT

  ****  SYMREF variables  ****

  ****  Scalars and arrays  ****
OctLoc.c.b A Datatyp(siz) R M Lvl/name                 OctLoc.c.b A Datatyp(siz) R M Lvl/name

     0-0-0/w PTR         r     1 B$XL_UPPER$                0-0-0/w STRC(144)   r     1 VD_$WI_PERCENT
     0-0-0/w STRC(22644) r     1 VD_6E                      0-0-0/w PTR         r     1 VD_CURRENT_WINDOW$
     0-0-0/w SBIN        r     1 VD_EDITING_HEIGHT          0-0-0/w SBIN        r     1 VD_EDITING_WINDOWS
     0-0-0/d STRC(1008)  r     1 XUE_ECB

PL6.E3A0      #002=VDI$PARSE_TREE_TO_INTREE File=VDI$PARSE.:VDA5TSI              FRI 07/04/97 11:34 Page:241
  ****  BASED and DCB variables  ****

  ****  Scalars and arrays  ****
OctLoc.c.b A Datatyp(siz) R M Lvl/name                 OctLoc.c.b A Datatyp(siz) R M Lvl/name

     0-0-0/d STRC(4608)  r     1 B$XL_UPPER                 0-0-0/w STRC(144)   r     1 CMD$BLK
     0-0-0/w STRC(900)   r     1 CMD$STREAM                 0-0-0/w ASTR(153)   r     1 CMD$SYM
     0-0-0/w STRC(540)   r     1 IT$COMMAND                 0-0-0/w ASTR(153)   r     1 SYM$BLK
     0-0-0/w ASTR(81)    r     1 TEXTC$REMOTE               0-0-0/w ASTR(90)    r     1 VD$BUFFER
     0-0-0/w STRC(90)    r     1 VD$BUFFER_HEADER           0-0-0/w STRC(180)   r     1 VD$ERR
     0-0-0/w STRC(468)   r     1 VD$FILE_NODE               0-0-0/w STRC(72)    r     1 VD$KEY_NUMBER
     0-0-0/w STRC(144)   r     1 VD$NUMBER                  0-0-0/w STRC(81)    r     1 VD$STRING_HEADER
     0-0-0/w ASTR(9)     r     1 VD$TEXTC


   Procedure VDI$PARSE_TREE_TO_INTREE requires 933 words for executable code.
   Procedure VDI$PARSE_TREE_TO_INTREE requires 28 words of local(AUTO) storage.
PL6.E3A0      #002=VDI$PARSE_TREE_TO_INTREE File=VDI$PARSE.:VDA5TSI              FRI 07/04/97 11:34 Page:242
          *** CROSS REFERENCE LISTING ***
**     DENOTES     IDENTIFIER DEFINITION
<<                 IDENTIFIER'S VALUE SET
>>                 IDENTIFIER'S VALUE USED
<>                 IDENTIFIER SET AND/OR USED
--                 IDENTIFIER REFERENCED
PL6.E3A0      #002=VDI$PARSE_TREE_TO_INTREE File=VDI$PARSE.:VDA5TSI              FRI 07/04/97 11:34 Page:243
          MINI XREF LISTING

B$XL_UPPER
      6668**DCL      7710>>CALLBLT  7894>>CALLBLT  8015>>CALLBLT
B$XL_UPPER$
      6667**DCL      6668--IMP-PTR  7710>>CALLBLT  7894>>CALLBLT  8015>>CALLBLT
BUILD_WINDOW_SPECIFIER
      7840**LABEL    7744--GOTO
CMD$BLK
      7171**DCL      7686--ASSIGN   7726<>CALL     7770<>CALL     7814<>CALL     7828<>CALL     7859<>CALL
      8075<>CALL
CMD$BLK.CODE
      7179**DCL      7662>>ASSIGN   7662>>ASSIGN   7664>>ASSIGN   7717>>ASSIGN   7719>>ASSIGN   7719>>ASSIGN
      7724>>ASSIGN   7724>>ASSIGN   7779>>IF       7812>>ASSIGN   7812>>ASSIGN   7826>>ASSIGN   7826>>ASSIGN
      7844>>ASSIGN   7844>>ASSIGN   7848>>ASSIGN   7848>>ASSIGN   7850>>IF       7852>>IF       7857>>ASSIGN
      7857>>ASSIGN   7891>>ASSIGN   7891>>ASSIGN
CMD$BLK.CPOS
      7197**DCL      7666>>ASSIGN   7923>>ASSIGN   8128>>ASSIGN   8135>>ASSIGN
CMD$BLK.NSUBLKS
      7183**DCL      7743>>IF       7762>>IF       7780>>IF       7839>>IF       7961>>DOINDEX  8049>>DOINDEX
CMD$BLK.SUBLK$
      7204**DCL      7681>>ASSIGN   7709>>ASSIGN   7724>>ASSIGN   7724>>ASSIGN   7726>>CALL     7726>>CALL
      7770>>CALL     7770>>CALL     7812>>ASSIGN   7812>>ASSIGN   7814>>CALL     7814>>CALL     7814>>CALL
      7826>>ASSIGN   7826>>ASSIGN   7828>>CALL     7828>>CALL     7828>>CALL     7844>>ASSIGN   7844>>ASSIGN
      7846>>ASSIGN   7846>>ASSIGN   7857>>ASSIGN   7857>>ASSIGN   7859>>CALL     7859>>CALL     7891>>ASSIGN
      7891>>ASSIGN   7893>>ASSIGN   7893>>ASSIGN   7899>>ASSIGN   7910>>ASSIGN   7938>>ASSIGN   7962>>ASSIGN
      8008>>ASSIGN   8013>>ASSIGN   8020>>ASSIGN   8050>>ASSIGN   8055>>ASSIGN   8075>>CALL     8075>>CALL
CMD$STREAM.IF_CMD
      7124**DCL      7763>>IF       7774<<ASSIGN   8110<<ASSIGN
CMD$SYM.COUNT
      7240**DCL      7243--IMP-SIZ
CMD_BLK$
      7075**DCL      7171--IMP-PTR  7217--IMP-PTR  7660<<ASSIGN   7662>>ASSIGN   7662>>ASSIGN   7664>>ASSIGN
      7666>>ASSIGN   7681>>ASSIGN   7686>>ASSIGN   7709>>ASSIGN   7716<<ASSIGN   7717>>ASSIGN   7719>>ASSIGN
PL6.E3A0      #002=VDI$PARSE_TREE_TO_INTREE File=VDI$PARSE.:VDA5TSI              FRI 07/04/97 11:34 Page:244
      7719>>ASSIGN   7724>>ASSIGN   7724>>ASSIGN   7726>>CALL     7743>>IF       7762>>IF       7770>>CALL
      7778<<ASSIGN   7779>>IF       7780>>IF       7812>>ASSIGN   7812>>ASSIGN   7814>>CALL     7826>>ASSIGN
      7826>>ASSIGN   7828>>CALL     7839>>IF       7844>>ASSIGN   7844>>ASSIGN   7846<<ASSIGN   7846>>ASSIGN
      7848>>ASSIGN   7848>>ASSIGN   7850>>IF       7852>>IF       7857>>ASSIGN   7857>>ASSIGN   7859>>CALL
      7891>>ASSIGN   7891>>ASSIGN   7893>>ASSIGN   7899>>ASSIGN   7910>>ASSIGN   7938>>ASSIGN   7961>>DOINDEX
      7962>>ASSIGN   8008>>ASSIGN   8020>>ASSIGN   8049>>DOINDEX  8050>>ASSIGN   8128>>ASSIGN   8135>>ASSIGN
CMD_INDEX
      6574**DCL        31--PROC     7660>>ASSIGN   7665>>IF       7715<<ASSIGN   7715>>ASSIGN   7716>>ASSIGN
      7765<<ASSIGN   7767>>IF       7776<<ASSIGN   7776>>ASSIGN   7777>>IF       7778>>ASSIGN   7922>>IF
      7923>>ASSIGN   7926<<ASSIGN   8108<<ASSIGN   8108>>ASSIGN   8109>>IF
CTRLFN_CONFLICTS_W_KEYIN_ERROR
      8109**LABEL    7819--GOTO     7833--GOTO
CTRL_FN_ARGS_ARRAY
      7083**DCL      7814<>CALL     7828<>CALL
ELSE_CMD_WITHOUT_IF_FAILURE
      8109**LABEL    7764--GOTO
IF_COMMAND_LAST_FAILURE
      8127**LABEL    7768--GOTO
IT$COMMAND
      7135**DCL      7785<>CALL     8143<>CALL
IT$COMMAND.CMDLINE_INDEX#
      7161**DCL      7666<<ASSIGN
IT$COMMAND.CODE#
      7161**DCL      7664<<ASSIGN   7670>>DOCASE   7717<<ASSIGN   8105<>CALL
IT$COMMAND.FLAGS
      7162**DCL      7968<<ASSIGN   7971<<ASSIGN   7974<<ASSIGN   7977<<ASSIGN   7980<<ASSIGN   7989>>IF
      7989>>IF       7991<<ASSIGN   8058<<ASSIGN   8060<<ASSIGN   8095>>IF
IT$COMMAND.PARAM$
      7162**DCL      7711<>CALL     7731<>CALL     7734>>ASSIGN   7736>>ASSIGN   7736>>ASSIGN   7740<<ASSIGN
      7814<>CALL     7821>>IF       7822<<ASSIGN   7828<>CALL     7835>>IF       7836<<ASSIGN   7870<<ASSIGN
      7872<<ASSIGN   7895<>CALL     7914<>CALL     7920<<ASSIGN   7942<>CALL     7983<>CALL     8016<>CALL
      8029<<ASSIGN   8082<<ASSIGN   8088<>CALL     8090>>ASSIGN   8095>>IF       8097<>CALL     8099>>ASSIGN
IT$COMMAND.PT_BLOCK_EXPR$
      7162**DCL      7681<<ASSIGN   7686<<ASSIGN   7899<<ASSIGN   8055<<ASSIGN
IT_COMMAND$
      6575**DCL        31--PROC     7135--IMP-PTR  7655>>IF       7656<>CALL     7664>>ASSIGN   7666>>ASSIGN
PL6.E3A0      #002=VDI$PARSE_TREE_TO_INTREE File=VDI$PARSE.:VDA5TSI              FRI 07/04/97 11:34 Page:245
      7670>>DOCASE   7681>>ASSIGN   7686>>ASSIGN   7711>>CALL     7717>>ASSIGN   7731>>CALL     7734>>ASSIGN
      7736>>ASSIGN   7736>>ASSIGN   7740>>ASSIGN   7785>>CALL     7786<<ASSIGN   7814>>CALL     7821>>IF
      7822>>ASSIGN   7828>>CALL     7835>>IF       7836>>ASSIGN   7870>>ASSIGN   7872>>ASSIGN   7895>>CALL
      7899>>ASSIGN   7914>>CALL     7920>>ASSIGN   7942>>CALL     7968>>ASSIGN   7971>>ASSIGN   7974>>ASSIGN
      7977>>ASSIGN   7980>>ASSIGN   7983>>CALL     7989>>IF       7989>>IF       7991>>ASSIGN   8016>>CALL
      8029>>ASSIGN   8055>>ASSIGN   8058>>ASSIGN   8060>>ASSIGN   8082>>ASSIGN   8088>>CALL     8090>>ASSIGN
      8095>>IF       8095>>IF       8097>>CALL     8099>>ASSIGN   8105>>CALL     8143>>CALL     8149<<ASSIGN
MAKE_TEXTC_REMOTE
      8165**PROC     7711--CALL     7895--CALL     7914--CALL     7942--CALL     7983--CALL     8016--CALL
MAKE_TEXTC_REMOTE_FAILED
      8141**LABEL    7711--CALLALT  7895--CALLALT  7914--CALLALT  7942--CALLALT  7983--CALLALT  8016--CALLALT
OALLOC_FAILED
      8141**LABEL    7656--CALLALT  7731--CALLALT  7867--CALLALT  7918--CALLALT  8025--CALLALT  8088--CALLALT
      8097--CALLALT
OFREE_FAILED
      8141**LABEL    7785--CALLALT  8143--CALLALT
PNUMBER_FAILED
      8127**LABEL    7770--CALLALT  7859--CALLALT  8075--CALLALT
PSTRING_FAILED
      8127**LABEL    7726--CALLALT  7814--CALLALT  7828--CALLALT
PT_COMMAND_PARENT
      6535**DCL        31--PROC
PT_COMMAND_PARENT.NSUBLKS
      6547**DCL      7765>>ASSIGN   7767>>IF       7777>>IF       7922>>IF       7926>>ASSIGN   8109>>IF
PT_COMMAND_PARENT.SUBLK$
      6568**DCL      7660>>ASSIGN   7716>>ASSIGN   7778>>ASSIGN   7923>>ASSIGN
RETCODE
      7078**DCL      7814<>CALL     7818>>IF       7828<>CALL     7832>>IF
SET_WINDOW_NUMBER
      8088**LABEL    8072--GOTO
SINK
      7079**DCL      7726<>CALL     7742<<ASSIGN   7770<>CALL     7773>>IF       7773<<ASSIGN   7774>>IF
      7775>>DOUNTIL  7780<<ASSIGN   7780>>ASSIGN   7781<<ASSIGN   7781>>ASSIGN   7814<>CALL     7828<>CALL
      7838<<ASSIGN   7844>>ASSIGN   7844>>ASSIGN   7846>>ASSIGN   7869>>IF       8047<<ASSIGN   8079<<ASSIGN
      8081<<ASSIGN   8081>>ASSIGN   8099>>ASSIGN
SUBST_FIELD$
PL6.E3A0      #002=VDI$PARSE_TREE_TO_INTREE File=VDI$PARSE.:VDA5TSI              FRI 07/04/97 11:34 Page:246
      7085**DCL      7558--IMP-PTR
SUB_PARSE_TREE_TO_INTREE_FAILED
      8141**LABEL    8118--GOTO     8123--GOTO     8130--GOTO
SYM$BLK.CODE
      7261**DCL      7912>>ASSIGN   7912>>ASSIGN   7940>>ASSIGN   7940>>ASSIGN   7964>>ASSIGN   7964>>ASSIGN
      7966>>DOCASE   8010>>ASSIGN   8010>>ASSIGN   8012>>IF       8022>>ASSIGN   8022>>ASSIGN   8052>>ASSIGN
      8052>>ASSIGN   8054>>IF       8057>>IF       8059>>IF       8061>>IF       8061>>IF       8066>>IF
      8078>>IF       8080>>IF
SYM$BLK.COUNT
      7278**DCL      7281--IMP-SIZ  7710>>CALLBLT  7710>>CALLBLT  7894>>CALLBLT  7894>>CALLBLT  8015>>CALLBLT
      8015>>CALLBLT  8025>>CALL     8030>>ASSIGN   8031>>ASSIGN
SYM$BLK.TEXT
      7281**DCL      7710<<CALLBLT  7710>>CALLBLT  7894<<CALLBLT  7894>>CALLBLT  8015<<CALLBLT  8015>>CALLBLT
      8031>>ASSIGN
SYM$BLK.TEXTC$
      7273**DCL      7711>>CALL     7711>>CALL     7895>>CALL     7895>>CALL     7914>>CALL     7914>>CALL
      7942>>CALL     7942>>CALL     7983>>CALL     7983>>CALL     8016>>CALL     8016>>CALL
SYM_BLK
      7077**DCL      7961<<DOINDEX  7962>>ASSIGN   8049<<DOINDEX  8050>>ASSIGN
SYM_BLK$
      7076**DCL      7255--IMP-PTR  7709<<ASSIGN   7710>>CALLBLT  7710>>CALLBLT  7710>>CALLBLT  7710>>CALLBLT
      7711>>CALL     7711>>CALL     7893<<ASSIGN   7894>>CALLBLT  7894>>CALLBLT  7894>>CALLBLT  7894>>CALLBLT
      7895>>CALL     7895>>CALL     7910<<ASSIGN   7912>>ASSIGN   7912>>ASSIGN   7914>>CALL     7914>>CALL
      7938<<ASSIGN   7940>>ASSIGN   7940>>ASSIGN   7942>>CALL     7942>>CALL     7962<<ASSIGN   7964>>ASSIGN
      7964>>ASSIGN   7966>>DOCASE   7983>>CALL     7983>>CALL     8008<<ASSIGN   8010>>ASSIGN   8010>>ASSIGN
      8012>>IF       8013<<ASSIGN   8013>>ASSIGN   8015>>CALLBLT  8015>>CALLBLT  8015>>CALLBLT  8015>>CALLBLT
      8016>>CALL     8016>>CALL     8020<<ASSIGN   8022>>ASSIGN   8022>>ASSIGN   8025>>CALL     8030>>ASSIGN
      8031>>ASSIGN   8031>>ASSIGN   8050<<ASSIGN   8052>>ASSIGN   8052>>ASSIGN   8054>>IF       8055>>ASSIGN
      8057>>IF       8059>>IF       8061>>IF       8061>>IF       8066>>IF       8075>>CALL     8078>>IF
      8080>>IF       8082>>ASSIGN
TEXTC IN PROCEDURE MAKE_TEXTC_REMOTE
      8175**DCL      8165--PROC
TEXTC.BYTES IN PROCEDURE MAKE_TEXTC_REMOTE
      8185**DCL      8299>>ASSIGN
TEXTC.LENGTH# IN PROCEDURE MAKE_TEXTC_REMOTE
      8183**DCL      8185--IMP-SIZ  8293>>CALL     8298>>ASSIGN   8299>>ASSIGN
PL6.E3A0      #002=VDI$PARSE_TREE_TO_INTREE File=VDI$PARSE.:VDA5TSI              FRI 07/04/97 11:34 Page:247
TEXTC$REMOTE.BYTES IN PROCEDURE MAKE_TEXTC_REMOTE
      8249**DCL      8299<<ASSIGN
TEXTC$REMOTE.LENGTH# IN PROCEDURE MAKE_TEXTC_REMOTE
      8247**DCL      8249--IMP-SIZ  8298<<ASSIGN   8299>>ASSIGN
TEXTC_REMOTE$ IN PROCEDURE MAKE_TEXTC_REMOTE
      8190**DCL      8165--PROC     8218--IMP-PTR  8293<>CALL     8298>>ASSIGN   8299>>ASSIGN   8299>>ASSIGN
VD$BUFFER.BYTES
      7339**DCL      7736<<ASSIGN   8031<<ASSIGN
VD$BUFFER.LENGTH#
      7337**DCL      7339--IMP-SIZ  7734<<ASSIGN   7736>>ASSIGN   8030<<ASSIGN   8031>>ASSIGN
VD$BUFFER_HEADER
      7626**DCL      7731--CALL     8025--CALL
VD$ERR.CMDLINE_INDEX#
      7439**DCL      8128<<ASSIGN   8135<<ASSIGN
VD$FILE_NODE.DESC.KEY
      7513**DCL      8064--ASSIGN
VD$KEY_NUMBER.BYTES#
      7547**DCL      8064>>ASSIGN
VD$NUMBER.V#
      7386**DCL      7873<<ASSIGN   7921<<ASSIGN   7923<<ASSIGN   8090<<ASSIGN   8099<<ASSIGN
VD$STRING_HEADER IN PROCEDURE MAKE_TEXTC_REMOTE
      8262**DCL      8293--CALL
VD$TEXTC
      7603**DCL      7711<>CALL     7895<>CALL     7914<>CALL     7942<>CALL     7983<>CALL     8016<>CALL
VD$TEXTC.BYTES
      7613**DCL      7736>>ASSIGN
VD$TEXTC.LENGTH#
      7611**DCL      7613--IMP-SIZ  7711>>CALL     7731>>CALL     7734>>ASSIGN   7736>>ASSIGN   7895>>CALL
      7914>>CALL     7942>>CALL     7983>>CALL     8016>>CALL
VDE$PNUMBER
      6578**DCL-ENT  7770--CALL     7859--CALL     8075--CALL
VDE$PSTRING
      6577**DCL-ENT  7726--CALL     7814--CALL     7828--CALL
VDG$ERRMSG
      6579**DCL-ENT  8116--CALL     8122--CALL     8127--CALL     8134--CALL
VDG$ESCREECH
PL6.E3A0      #002=VDI$PARSE_TREE_TO_INTREE File=VDI$PARSE.:VDA5TSI              FRI 07/04/97 11:34 Page:248
      6582**DCL-ENT  8105--CALL
VDG$OALLOC
      6580**DCL-ENT  7656--CALL     7731--CALL     7867--CALL     7918--CALL     8025--CALL     8088--CALL
      8097--CALL     8293--CALL
VDG$OFREE
      6581**DCL-ENT  7785--CALL     8143--CALL
VD_$WI_PERCENT.V#
      7008**DCL      8047>>ASSIGN
VD_6E.CMD_STREAM$
      6616**DCL      7096--IMP-PTR  7763>>IF       7774>>ASSIGN   8110>>ASSIGN
VD_6E.ERR_TAIL$
      6617**DCL      8128>>ASSIGN   8135>>ASSIGN
VD_6E.STATS_TOKENS#
      6619**DCL      7662<<ASSIGN   7662>>ASSIGN   7719<<ASSIGN   7719>>ASSIGN   7724<<ASSIGN   7724>>ASSIGN
      7812<<ASSIGN   7812>>ASSIGN   7826<<ASSIGN   7826>>ASSIGN   7844<<ASSIGN   7844>>ASSIGN   7848<<ASSIGN
      7848>>ASSIGN   7857<<ASSIGN   7857>>ASSIGN   7891<<ASSIGN   7891>>ASSIGN   7912<<ASSIGN   7912>>ASSIGN
      7940<<ASSIGN   7940>>ASSIGN   7964<<ASSIGN   7964>>ASSIGN   8010<<ASSIGN   8010>>ASSIGN   8022<<ASSIGN
      8022>>ASSIGN   8052<<ASSIGN   8052>>ASSIGN
VD_BUFFER$
      7081**DCL      7311--IMP-PTR  8025<>CALL     8029>>ASSIGN   8030>>ASSIGN   8031>>ASSIGN   8031>>ASSIGN
VD_CURRENT_WINDOW$
      6875**DCL      8063>>IF       8064>>ASSIGN
VD_EDITING_HEIGHT
      6873**DCL      8047>>ASSIGN   8081>>ASSIGN   8099>>ASSIGN
VD_EDITING_WINDOWS
      6874**DCL      8047>>ASSIGN   8068>>IF       8071>>ASSIGN   8085>>IF       8116>>CALL
VD_ERR$
      7084**DCL      7397--IMP-PTR
VD_NUMBER$
      7082**DCL      7352--IMP-PTR  7867<>CALL     7870>>ASSIGN   7872>>ASSIGN   7873>>ASSIGN   7918<>CALL
      7920>>ASSIGN   7921>>ASSIGN   7923>>ASSIGN
WINDOW_SUBSCRIPT
      7080**DCL      7851<<ASSIGN   7853<<ASSIGN   7859<>CALL     7862>>IF       7862>>IF       7865<<ASSIGN
      7865>>ASSIGN   7873>>ASSIGN   8064<<ASSIGN   8067<<ASSIGN   8067>>ASSIGN   8068>>IF       8069<<ASSIGN
      8070>>IF       8071<<ASSIGN   8075<>CALL     8079>>ASSIGN   8085>>IF       8085>>IF       8090>>ASSIGN
      8116<>CALL
PL6.E3A0      #002=VDI$PARSE_TREE_TO_INTREE File=VDI$PARSE.:VDA5TSI              FRI 07/04/97 11:34 Page:249
WI_KEY_NOT_IN_RANGE_FAILURE
      8116**LABEL    7864--GOTO     8087--GOTO
XUE_ECB.OUT$
      6716**DCL      7730>>IF       7731>>CALL     7734>>ASSIGN   7736>>ASSIGN   7736>>ASSIGN
ZERO_LENGTH_BUFFER
      7039**DCL      7740--ASSIGN   7822--ASSIGN   7836--ASSIGN

