PL6.E3A0      #001=VDI$PDRIVER File=VDI$PARSE.:VDA5TSI                           FRI 07/04/97 11:33 Page:1
        1        1        /*M* VDI$PARSE - Read and parse commands for 6Edit */
        2        2        /*T***********************************************************/
        3        3        /*T*                                                         */
        4        4        /*T* Copyright (c) Bull HN Information Systems Inc., 1997    */
        5        5        /*T*                                                         */
        6        6        /*T***********************************************************/
        7        7
        8        8        /*X* MCR=NO, DMC=YES */
        9        9        /*T*/
       10       10
       11       11        /*P* NAME: VDI$PARSE
       12       12            PURPOSE: Read and parse commands for the Interpreter.
       13       13            DESCRIPTION:
       14       14                This module contains several external routines:
       15       15
       16       16                VDI$PDRIVER
       17       17                Gets command lines, parses them, and calls the appropriate Command
       18       18                Processor.
       19       19        *N*     Handles omitted block expressions, substituting and parsing the
       20       20        *N*     appropriate $DEFAULT_ name.
       21       21
       22       22                VDI$PARSE_TREE_TO_INTREE
       23       23                Converts one %T_xxx_CMD node of a parse tree into a (chain of) Intree
       24       24                node(s).
       25       25
       26       26                VDI$PGET_COMMAND_RECORD
       27       27                XUG$GETCMD calls VDI$PGET_COMMAND_RECORD to read a command
       28       28                record from the current command stream.
       29       29                GET_COMMAND_RECORD does the following to the command record:
       30       30        *N*         o If $ECHO is on, echos the record to M$DO.
       31       31                    o Replaces all synonyms in the record with their value.
       32       32
       33       33                VDI$PREAD_FILE
       34       34                Performs all I/O on a READ-file, using Fast Sequential services.
       35       35                This routine contains four entry-points:
       36       36                    VDI$PREAD_FILE_OPEN:  Open a READ-file.
       37       37                    VDI$PREAD_FILE_POSITION:  Position in a READ-file.
PL6.E3A0      #001=VDI$PDRIVER File=VDI$PARSE.:VDA5TSI                           FRI 07/04/97 11:33 Page:2
       38       38                    VDI$PREAD_FILE_READ:  Read a command line from a READ-file.
       39       39                    VDI$PREAD_FILE_CLOSE:  Close a READ-file.
       40       40
       41       41                VDI$PUSER_PARSE_RTN
       42       42                When X$PARSE parses a node declared with the SUCC, FAIL, or PRE
       43       43                options, it will call VDI$PUSER_PARSE_RTN to do any parse-twiddling
       44       44                necessary.  All SUCC nodes in the syntax are OUT$SYM nodes containing
       45       45                names, which must be verified in various ways.  This routine verifies
       46       46                the names, and accepts or rejects them when it returns to X$PARSE.
       47       47
       48       48                VDI$PGLOBAL_COMMANDS
       49       49                This routine is called by XUG$GETCMD just before it executes
       50       50                a globally-recognized command (ie, DIRECTORY, DO, PRINT, ERASE, TIME,
       51       51                DATE, HELP, !, ?, ??, END, QUIT, EXIT).
       52       52                For some of these commands, we guarantee that the command
       53       53                window is popped-up (expanded) before they execute.
       54       54                We sidetrack the END/QUIT/EXIT commands to our own handler.
       55       55
       56       56                VDI$PREMOVE_EDIT_BLOCK
       57       57                When an explicit or implicit EDIT operation fails, we must go to a
       58       58                state of having no EditBlock open for editing.  This routine cleans
       59       59                up the mess.
       60       60        */
       61       61
       62       62        /*D* NAME: VDI$PDRIVER
       63       63            PARAMETERS:
       64       64                None.
       65       65            INPUT:
       66       66                VD_6E.CMD_STREAM$ - Ptr to top VD$CMD_STREAM on stack of such
       67       67                    structures.  The top entry describes the current command
       68       68                    stream:  either a READ-file, the command window, or
       69       69                    a one-shot buffer (for invocation command line, etc.).
       70       70                    (Encoded workspace files are processed by the READ command
       71       71                    processor, and so are never seen directly by VDI$PDRIVER.)
       72       72                    VD$CMD_STREAM.INTREE$ points to an InTree representing the current
       73       73                    command line; if it's NIL, then VD$CMD_STREAM.RECORD$ points to a
       74       74                    VD$BUFFER containing the current command line in character form.
PL6.E3A0      #001=VDI$PDRIVER File=VDI$PARSE.:VDA5TSI                           FRI 07/04/97 11:33 Page:3
       75       75                    The lower entries in the stack represent command streams
       76       76                    interrupted by a READ command.
       77       77                    When the current command stream is not the command window,
       78       78                    we always read from that command stream rather than any
       79       79                    editing window.
       80       80                VD_CURRENT_WINDOW$ - Ptr to VD$FILE_NODE at level 1 of the
       81       81                    Windows file, for the current editing window.  May be NIL;
       82       82                    if not NIL, it still may not be editing anything (no current
       83       83                    EditBlock).
       84       84                VD_COMMAND_WINDOW$ - Ptr to VD$FILE_NODE at level 1 of the
       85       85                    Windows file, for the command window.  There must
       86       86                    be such a window at all times (after initialization), tho it
       87       87                    may at times be "invisible", ie, have a height of 0 lines.
       88       88                VD_$COMMAND - A VD$NUMBER for the predefined name "$COMMAND".
       89       89                    If the value of this name is true, we'll always read from the
       90       90                    command window, until $COMMAND is set false.
       91       91                VD_$MAX_COMMAND - A VD$NUMBER for the predefined name "$MAX_COMMAND".
       92       92                    The value of this name is the number of lines in the largest
       93       93                    command window (ie, when displaying messages, or doing HELP or
       94       94                    other "freebie" commands).
       95       95                VD_$MIN_COMMAND - A VD$NUMBER for the predefined name "$MIN_COMMAND".
       96       96                    The value of this name is the number of lines in the smallest
       97       97                    command window.  If this value is less than
       98       98                    %DFLT_$MIN_COMMAND, we'll use %DFLT_$MIN_COMMAND instead.
       99       99                VD_$SCREEN - A VD$NUMBER for the predefined name "$SCREEN".  The value
      100      100                    of this name is the number of lines of the terminal screen which
      101      101                    the user allows 6Edit to use.  A value less than
      102      102                    %MN_SCREEN_EDITING_HEIGHT specifies that we're not screen editing.
      103      103        *N*     Following paragraph de-implemented due to star 25801:
      104      104        *N*     VD_2DIM - Bit-flag saying if we're actually screen editing or not.
      105      105        *N*         Modifies the meaning of VD_$SCREEN.V#:  if VD_$SCREEN says to
      106      106        *N*         screen edit, well, we're really only screen editing if VD_2DIM
      107      107        *N*         is also set.
      108      108        *N*     VD_$DEFAULT_SOURCE - a VD$BUFFER for the predefined
      109      109        *N*         name "$DEFAULT_SOURCE".  The value of this name
      110      110        *N*         must be a block expression.  Value's length may be 0.
      111      111        *N*     VD_$DEFAULT_DESTINATION - a VD$BUFFER for the predefined
PL6.E3A0      #001=VDI$PDRIVER File=VDI$PARSE.:VDA5TSI                           FRI 07/04/97 11:33 Page:4
      112      112        *N*         name "$DEFAULT_DESTINATION".  The value of this
      113      113        *N*         name must be a block expression.  Value's length may be 0.
      114      114                XUG_GETCMD - Control block for XUG$GETCMD.
      115      115            OUTPUT:
      116      116                None.  (This routine never "returns".  At the end of the session,
      117      117                    we'll get to VDG$MTERMINATE indirectly, via VDI$CEND or
      118      118                    VDG$EREPORT_ERROR or a trap to VDG$ETRAP.)
      119      119            DESCRIPTION:
      120      120                This is the "top of the loop".  Processing a fatal error
      121      121                    or an END command will get us out of this loop:
      122      122                If $COMMAND is not set (or if the previous command read ended with
      123      123                    EOM_NEXT_ED_WINDOW), and the current command stream is
      124      124                    the command window, and there is a current editing
      125      125                    window, and that window has an open EditBlock currently,
      126      126                    and we didn't just write an error message to the command
      127      127                    window, then call VDP$WREAD to read from the current
      128      128                    editing window.  On return from VDP$WREAD, the Presenter
      129      129                    will have told us a new window to read from:  if it's an
      130      130                    editing window, make that the new current window, and go
      131      131                    to the top of the loop again (check $COMMAND, etc); if
      132      132                    it's the command window or if it's an editing window which
      133      133                    isn't currently editing a file (no EditBlock), fall thru
      134      134                    to the next step to read from the command window.
      135      135                Call XUG$GETCMD to read and parse a command line.
      136      136                    The READR (read record) routine called by XUG$GETCMD will
      137      137                    see if the command stream is a workspace file, and if so,
      138      138                    will call VDW$LOAD to load the entire workspace file; it will
      139      139                    then pop the command stream stack and read from the previous
      140      140                    command stream; this will continue until we get a
      141      141                    text record containing a parsable command (or one which is
      142      142                    empty).
      143      143                GETCMD will then parse the record.  The parse tree for each
      144      144                    command will either contain a %T_xxx_CMD node or not:  the
      145      145                    presence of a %T_xxx_CMD node implies that the entire block
      146      146                    expression is given in this one command, whereas the absence
      147      147                    of a %T_xxx_CMD node (absence of an editing verb before
      148      148                    a block expression) implies that the user is in the process
PL6.E3A0      #001=VDI$PDRIVER File=VDI$PARSE.:VDA5TSI                           FRI 07/04/97 11:33 Page:5
      149      149                    of finding or selecting a block, so don't do anything to
      150      150                    the block yet, just evaluate the new selection.
      151      151                If this is an editing command:
      152      152                    Call VDE$PBLOCK_EXPR to convert the ParseTree to an InTree.
      153      153                    Call VDE$IOPEN[_SOURCE] to setup the operand for the first
      154      154                        call to VDE$IRANGE, and (for non-source operands) to
      155      155                        open the stream to the correct file (if it isn't yet).
      156      156                If there is a T_xxx_CMD node in the command, call the
      157      157                    appropriate command processor (VDI$Cxxx).
      158      158                Else (if there is no T_xxx_CMD node in the command) call
      159      159                    VDE$IRANGE to evaluate the block expression.
      160      160                Discard all entries on the evaluation stack of the current
      161      161                    editing window, except the top entry.
      162      162                Discard the InTree.
      163      163        */
      164      164
      165      165        VDI$PDRIVER: PROC ALTRET;
      166      166
      167      167        %INCLUDE VD_MACROS_M;
      168     2382        %INCLUDE VD_PERR_C;
      169     2530        %INCLUDE VD_NODES0_E;
      170     2622        %INCLUDE XU_MACRO_C;
      171     5716        %INCLUDE XUE_SUBS_C;
      172     5896        %INCLUDE XUG_ENTRY;
      173     5927        %INCLUDE CP_6;
      174     6008        %INCLUDE B$TABLES_C;
      175     6116
      176     6117
      177     6118    1   DCL VDP$NFLUSH              ENTRY (1) ALTRET;
      178     6119    1   DCL VDP$WERASE              ENTRY (1) ALTRET;
      179     6120    1   DCL VDP$WREAD               ENTRY (3) ALTRET;
      180     6121    1   DCL VDA$LDELETE             ENTRY (2) ALTRET;
      181     6122    1   DCL VDA$LWRITE              ENTRY (4) ALTRET;
      182     6123    1   DCL VDA$PFLUSH              ENTRY (2) ALTRET;
      183     6124    1   DCL VDI$PARSE_TREE_TO_INTREE    ENTRY (3) ALTRET;
      184     6125    1   DCL VDI$PREMOVE_EDIT_BLOCK  ENTRY ALTRET;
      185     6126    1   DCL VDI$PREAD_FILE_CLOSE    ENTRY ALTRET;
PL6.E3A0      #001=VDI$PDRIVER File=VDI$PARSE.:VDA5TSI                           FRI 07/04/97 11:33 Page:6
      186     6127    1   DCL VDI$PREAD_FILE_OPEN     ENTRY ALTRET;
      187     6128    1   DCL VDI$PREAD_FILE_POSITION ENTRY ALTRET;
      188     6129    1   DCL VDE$PBLOCK_EXPR         ENTRY (1) ALTRET;
      189     6130    1   DCL VDE$PSTRING             ENTRY (5) ALTRET;
      190     6131    1   DCL VDE$PNUMBER             ENTRY (2) ALTRET;
      191     6132    1   DCL VDE$IOPEN               ENTRY ALTRET;
      192     6133    1   DCL VDE$IRANGE              ENTRY (2) ALTRET;
      193     6134    1   DCL VDG$SHRINK_COMMAND_WINDOW ENTRY (1) ALTRET;
      194     6135    1   DCL VDG$EXPAND_COMMAND_WINDOW ENTRY (1) ALTRET;
      195     6136    1   DCL VDG$OALLOC              ENTRY (3) ALTRET;
      196     6137    1   DCL VDG$OFREE               ENTRY (1) ALTRET;
      197     6138    1   DCL VDG$OCOPY               ENTRY (2) ALTRET;
      198     6139    1   DCL VDG$OCOPY_RANGE         ENTRY (2) ALTRET;
      199     6140    1   DCL VDG$EREPORT_ERROR       ENTRY (1);
      200     6141    1   DCL VDG$ESCREECH            ENTRY (3);
      201     6142    1   DCL VDP$WINIT               ENTRY ALTRET;
      202     6143
      203     6144
      204     6145    1   DCL VDI$CEDIT           ENTRY ALTRET;
      205     6146    1   DCL VDI$CDISPLAY        ENTRY ALTRET;
      206     6147    1   DCL VDI$CCOPY           ENTRY ALTRET;
      207     6148    1   DCL VDI$CMOVE           ENTRY ALTRET;
      208     6149    1   DCL VDI$CAFTER          ENTRY ALTRET;
      209     6150    1   DCL VDI$COVER           ENTRY ALTRET;
      210     6151    1   DCL VDI$CDELETE         ENTRY ALTRET;
      211     6152    1   DCL VDI$CDELETE_FID     ENTRY ALTRET;
      212     6153    1   DCL VDI$CEQUALS         ENTRY (1) ALTRET;
      213     6154    1   DCL VDI$CEND            ENTRY (1) ALTRET;
      214     6155    1   DCL VDI$CKEYIN          ENTRY (1) ALTRET;
      215     6156    1   DCL VDI$CLOCATION       ENTRY (1) ALTRET;
      216     6157    1   DCL VDI$CREAD           ENTRY (1) ALTRET;
      217     6158    1   DCL VDI$CRESTORE        ENTRY (1) ALTRET;
      218     6159    1   DCL VDI$CSAVE           ENTRY (1) ALTRET;
      219     6160    1   DCL VDI$CSHOW           ENTRY ALTRET;
      220     6161    1   DCL VDI$CSYNONYM        ENTRY (1) ALTRET;
      221     6162
      222     6163
PL6.E3A0      #001=VDI$PDRIVER File=VDI$PARSE.:VDA5TSI                           FRI 07/04/97 11:33 Page:7
      223     6164        %VD_6E (STCLASS=SYMREF);
      224     6200        %XUG_GETCMD (NAME=XUG_GETCMD, STCLASS=SYMREF);
      225     6538    1   DCL VD_CURRENT_WINDOW$ PTR SYMREF;
      226     6539    1   DCL VD_COMMAND_WINDOW$ PTR SYMREF;
      227     6540    1   DCL VD_2DIM BIT(1) ALIGNED SYMREF;
      228     6541    1   DCL VD_FORCE_READ_FROM UBIN SYMREF;
      229     6542    1   DCL VD_LAST_CWIN_ACTIVITY UBIN SYMREF;
      230     6543    1   DCL VD_CMD_OBJECTS$ (0:%(MX_CMD_OBJECTS-1)) PTR SYMREF;
      231     6544        %B$XL_UPPER;
      232     6548    1   DCL VD_COMMAND_LINE SBIN SYMREF;    /* Parse nodes */
      233     6549    1   DCL VD_ASYM UBIN SYMREF;
      234     6550    1   DCL VD_WORST_FLAGLEV SBIN SYMREF;
      235     6551    1   DCL VD_EDITING_HEIGHT SBIN SYMREF;
      236     6552    1   DCL VD_EDITING_WINDOWS SBIN SYMREF;
      237     6553    1   DCL VD_IBEX_WINDOW SBIN SYMREF;
      238     6554    1   DCL VD_OLD_$SCREEN SBIN SYMREF;
      239     6555    1   DCL VD_SCREEN_HEIGHT SBIN SYMREF;
      240     6556    1   DCL M$6E DCB;
      241     6557    1   DCL M$ME DCB;
      242     6558    1   DCL M$SI DCB;
      243     6559        %VD$NUMBER (NAME=VD_$$QUAC, STCLASS=SYMREF);
      244     6604        %VD$NUMBER (NAME=VD_$SCREEN, STCLASS=SYMREF);
      245     6649        %VD$NUMBER (NAME=VD_$COMMAND, STCLASS=SYMREF);
      246     6694        %VD$NUMBER (NAME=VD_$MIN_COMMAND, STCLASS=SYMREF);
      247     6739        %VD$NUMBER (NAME=VD_$MAX_COMMAND, STCLASS=SYMREF);
      248     6784
      249     6785
      250     6786
      251     6787    1   DCL ACTCHR UBIN BYTE CALIGNED;
      252     6788    1   DCL ED_WINDOW_NODE$ PTR;
      253     6789    1   DCL CAN_READ_EDITING_WINDOW BIT(1) ALIGNED;
      254     6790    1   DCL CURR_WINDOW$ PTR;
      255     6791    1   DCL IT_COMMAND$ PTR;
      256     6792    1   DCL PREV_IT_COMMAND$ PTR;
      257     6793    1   DCL COMMAND_LINE$ PTR;
      258     6794    1   DCL CL_INDEX UBIN;
      259     6795    1   DCL GOT_WREAD_ERROR BIT(1) ALIGNED;
PL6.E3A0      #001=VDI$PDRIVER File=VDI$PARSE.:VDA5TSI                           FRI 07/04/97 11:33 Page:8
      260     6796    1   DCL WARN_ABORTED_BUFFER BIT(1) ALIGNED;
      261     6797    1   DCL ERR_FLAGLEV UBIN;
      262     6798    1   DCL VD_ERR$ PTR;
      263     6799    1   DCL SUBST_FIELD$ PTR;
      264     6800        %VD$ERR_CODE (NAME=ERR_CODE, STCLASS=AUTO);
      265     6815    1   DCL INDX SBIN;
      266     6816    1   DCL CMD_RECORD$ PTR;
      267     6817    1   DCL SINK$ PTR;
      268     6818
      269     6819
      270     6820        %VD$WINDOW_SPEC (NAME=CURR$WINDOW, STCLASS="BASED(CURR_WINDOW$)");
      271     6886        %VD$IT_COMMAND (NAME=IT$COMMAND, STCLASS="BASED(IT_COMMAND$)");
      272     6924        %VD$IT_COMMAND (NAME=PREV$IT_COMMAND, STCLASS="BASED(PREV_IT_COMMAND$)");
      273     6962        %VD$CMD_STREAM (NAME=CMD$STREAM, STCLASS="BASED(VD_6E.CMD_STREAM$)");
      274     7001        %VD$STREAM (NAME=WINDOWS$STREAM, STCLASS="BASED(VD_6E.WINDOWS$)");
      275     7107        %VD$BUFFER (NAME=CMD$RECORD, STCLASS="BASED(CMD_RECORD$)");
      276     7165        %PARSE$OUT (NAME=COMMAND$LINE, STCLASS="BASED(COMMAND_LINE$)");
      277     7210        %VD$ERR (NAME=VD$ERR, STCLASS="BASED(VD_ERR$)");
      278     7263        %VD$ERR (NAME=FATAL$ERR, STCLASS="BASED(VD_6E.ERR_HEAD$)");
      279     7316        %VD$ERR (NAME=VD$ERR_TAIL, STCLASS="BASED(VD_6E.ERR_TAIL$)");
      280     7369        %VD$NUMBER (NAME=SUBST$NUMBER, DIM="(0:2)", STCLASS="BASED(SUBST_FIELD$)");
      281     7414        %VD$POINTER (NAME=SUBST$POINTER, DIM="(0:2)", STCLASS="BASED(SUBST_FIELD$)");
      282     7459        %VD$FILE_NODE;
      283     7552        %VD$BUFFER;
      284     7610        %VD$IT_BLOCK_EXPR;
      285     7760        %VD$PORT;
      286     7858        %VD$EVAL;
      287     8103        %VD$FILE_KEY;
      288     8152        %VD$IT_ADJUST (NAME=IT$ADJUST);
      289     8189        %VD$IT_OPERAND (NAME=IT$OPERAND);
      290     8255        %VD$IT_SELECT (NAME=IT$SELECT);
      291     8292        %VD$KEY_NUMBER;
      292     8307        %VD$NUMBER;
      293     8352        %VD$STREAM;
      294     8458        %VD$TEXTC_REMOTE;
      295     8519        %P_PCB (NAME=P$PCB, STCLASS=BASED);
      296     8718        %F$DCB;
PL6.E3A0      #001=VDI$PDRIVER File=VDI$PARSE.:VDA5TSI                           FRI 07/04/97 11:33 Page:9
      297     8775
      298     8776
      299     8777                %BOX (TITLE="Driver Loop");

              8789    1   /***************************************************************************
              8791    1    *                                                                         *
              8795    1            *                                Driver Loop                              *
              8797    1            *                                                                         *
              8799    1           ***************************************************************************/

      300     8803
      301     8804                /*
      302     8805                *   How globals are used to save the current state:
      303     8806                *   VD_$COMMAND.V# - If true, then user wants to keep reading
      304     8807                *       from the command window, not the current editing
      305     8808                *       window.  If false, then we keep reading from the
      306     8809                *       current editing window until the user explicitly
      307     8810                *       moves to the command window (which VDP$WREAD signals
      308     8811                *       by returning a nil new-editing-window pointer).
      309     8812                *       Note that even if we don't read from the command
      310     8813                *       window, we must check the value of VD_$COMMAND.V#
      311     8814                *       each time thru the loop, 'cause the user may change
      312     8815                *       it's value via an editing window open to the
      313     8816                *       Equals-file.
      314     8817                */
      315     8818
      316     8819    1           VD_FORCE_READ_FROM = %RF_DONT_CARE;
      317     8820    1           ACTCHR = %EOM_NORMAL;
      318     8821    1           IF VD_WORST_FLAGLEV >= %FLV_SERIOUS THEN GOTO CLEAN_UP;
      319     8822        /* Flush any stored commands if a pre-encoded context file failed */
      320     8823
      321     8824    1   FOREVER_LOOP:
      322     8825    2           DO %FOREVER;        /* END cmd or fatal error gets us out */
      323     8826    2              CAN_READ_EDITING_WINDOW = %FALSE;
      324     8827    2              ED_WINDOW_NODE$ = VD_CURRENT_WINDOW$;
      325     8828    3              IF ED_WINDOW_NODE$ ~= ADDR(NIL) THEN DO;
      326     8829    4                 IF ACTCHR = %EOM_NEXT_ED_WINDOW THEN DO;
PL6.E3A0      #001=VDI$PDRIVER File=VDI$PARSE.:VDA5TSI                           FRI 07/04/97 11:33 Page:10
      327     8830    4                    ED_WINDOW_NODE$ = ED_WINDOW_NODE$->VD$FILE_NODE.FLINK$;
      328     8831    4                    IF ED_WINDOW_NODE$ = ADDR(NIL) THEN
      329     8832    4                       ED_WINDOW_NODE$ = VD_6E.WINDOWS$ -> VD$STREAM.PORT$ ->
      330     8833    4                         VD$PORT.LEVEL.INTERNAL$(%LVL_FILE) ->
      331     8834    4                         VD$FILE_NODE.HEAD$ -> VD$FILE_NODE.FLINK$;
      332     8835    4                    VD_CURRENT_WINDOW$ = ED_WINDOW_NODE$;
      333     8836    4                    END;
      334     8837    3                 IF ED_WINDOW_NODE$->VD$FILE_NODE.DESC.SPEC.V$->
      335     8838    3                   CURR$WINDOW.OPERAND.EDIT_BLOCK$ ~= ADDR(NIL) THEN
      336     8839    3                    CAN_READ_EDITING_WINDOW = %TRUE;
      337     8840    3                 END;
      338     8841
      339     8842    2              IF CAN_READ_EDITING_WINDOW THEN
      340     8843    2   READ_EDITING_WINDOW:
      341     8844    3              DO WHILE (VD_$COMMAND.V# <= 0
      342     8845    3                OR VD_FORCE_READ_FROM = %RF_EDITING_WINDOW)
      343     8846    3                AND (CMD$STREAM.TYPE# = %CS_ME)
      344     8847    3                AND (ED_WINDOW_NODE$ ~= ADDR(NIL))
      345     8848    3                AND (VD_FORCE_READ_FROM ~= %RF_COMMAND_WINDOW);
      346     8849    3                 CURR_WINDOW$ = ED_WINDOW_NODE$->VD$FILE_NODE.DESC.SPEC.V$;
      347     8850    3                 IF CURR$WINDOW.OPERAND.EDIT_BLOCK$ = ADDR(NIL) THEN
      348     8851    3                    EXIT READ_EDITING_WINDOW;
      349     8852    3                 IF CURR$WINDOW.COMMAND THEN
      350     8853    3                    CALL VDG$ESCREECH;
      351     8854
      352     8855    4                 IF DCBADDR (CURR$WINDOW.DCB#) -> F$DCB.FCD# THEN DO;
      353     8856
      354     8857                      /* Pop-down (shrink) the command window */
      355     8858    4                    CALL VDG$SHRINK_COMMAND_WINDOW (VD_$MIN_COMMAND.V#)
      356     8859    4                      ALTRET (SHRINK_COMMAND_WINDOW_FAILED);
      357     8860
      358     8861                      /*
      359     8862                      *   Flush keyins, etc (but NOT edwin updates) to the terminal.
      360     8863                      *     (The call to VDP$WREAD will do an M$READ which will cause
      361     8864                      *     the FEP to update the editing windows.  If we also flush
      362     8865                      *     screen updates here, we'll M$DEVICE before the M$READ
      363     8866                      *     unnecessarily).
PL6.E3A0      #001=VDI$PDRIVER File=VDI$PARSE.:VDA5TSI                           FRI 07/04/97 11:33 Page:11
      364     8867                      */
      365     8868    4                    CALL VDP$NFLUSH (%FALSE)
      366     8869    4                      ALTRET (NFLUSH_FAILED);
      367     8870    4                    END;
      368     8871
      369     8872    3                 VD_LAST_CWIN_ACTIVITY = %LCA_SWITCH;
      370     8873    3                 CALL VDP$WREAD (ED_WINDOW_NODE$, ACTCHR, %TO_PRESENTER)
      371     8874    3                   ALTRET (WREAD_FAILED);
      372     8875    3                 ACTCHR = %EOM_NORMAL;
      373     8876
      374     8877    3                 IF ED_WINDOW_NODE$ ~= ADDR(NIL) THEN
      375     8878    3                    VD_CURRENT_WINDOW$ = ED_WINDOW_NODE$;
      376     8879    3                 END READ_EDITING_WINDOW;
      377     8880    3              ELSE DO;
      378     8881                      /*
      379     8882                      *  We're not reading from the editing window -- so flush
      380     8883                      *    everything (including edwin updates) to the terminal.
      381     8884                      */
      382     8885    3                 IF CMD$STREAM.TYPE# = %CS_ME THEN
      383     8886    3                    CALL VDP$NFLUSH (%TRUE)
      384     8887    3                      ALTRET (NFLUSH_FAILED);
      385     8888    3                 END;
      386     8889
      387     8890
      388     8891                   /*
      389     8892                   *  Read from the command window.
      390     8893                   *  First, expand the command window to its minimum height.
      391     8894                   *     (It may have been shrunk to 0 lines.)
      392     8895                   */
      393     8896
      394     8897    2              VD_FORCE_READ_FROM = %RF_DONT_CARE;
      395     8898    2              IF (VD_$MIN_COMMAND.V#>0) THEN
      396     8899    2                 CALL VDG$EXPAND_COMMAND_WINDOW (VD_$MIN_COMMAND.V#)
      397     8900    2                   ALTRET (EXPAND_COMMAND_WINDOW_FAILED);
      398     8901    2              ELSE
      399     8902    2                 CALL VDG$EXPAND_COMMAND_WINDOW (%DFLT_$MIN_COMMAND)
      400     8903    2                   ALTRET (EXPAND_COMMAND_WINDOW_FAILED);
PL6.E3A0      #001=VDI$PDRIVER File=VDI$PARSE.:VDA5TSI                           FRI 07/04/97 11:33 Page:12
      401     8904
      402     8905    2              XUG_GETCMD.NODES$ = ADDR(VD_COMMAND_LINE);
      403     8906    2              CALL XUG$GETCMD (XUG_GETCMD)
      404     8907    3              WHENALTRETURN DO;
      405     8908    3                 VD_LAST_CWIN_ACTIVITY = %LCA_READ;
      406     8909    3                 GOTO GETCMD_FAILED;
      407     8910    3                 END;
      408     8911    2              VD_LAST_CWIN_ACTIVITY = %LCA_READ;
      409     8912    2              IF XUG_GETCMD.NODES$ = ADDR(VD_ASYM) THEN
      410     8913    2                 GOTO CLEAN_UP; /* Error occurred in GET_COMMAND_RECORD */
      411     8914    2              ACTCHR = ASCBIN(DCBADDR(XUG_GETCMD.INDCB#)->F$DCB.EOMCHAR#);
      412     8915
      413     8916    2              IF CMD$STREAM.INTREE$ = ADDR(NIL)
      414     8917    3                AND XUG_GETCMD.OUT$ ~= ADDR(NIL) THEN DO;
      415     8918    3                 COMMAND_LINE$ = XUG_GETCMD.OUT$;
      416     8919                      %INCREMENT (ARRAY=STATS_TOKENS#, INDX="COMMAND$LINE.CODE - %VD_BASE#")
              8919                          ;
      417     8922    3                 PREV_IT_COMMAND$ = ADDR(NIL);
      418     8923    3                 CL_INDEX = 0;
      419     8924    4                 DO WHILE CL_INDEX < COMMAND$LINE.NSUBLKS;
      420     8925    4                    IT_COMMAND$ = ADDR(NIL);
      421     8926    4                    CALL VDI$PARSE_TREE_TO_INTREE (COMMAND$LINE, CL_INDEX,
      422     8927    4                      IT_COMMAND$)
      423     8928    4                      ALTRET (PARSE_TREE_TO_INTREE_FAILED);
      424     8929    5                    IF IT_COMMAND$ ~= ADDR(NIL) THEN DO;
      425     8930    5                       CMD$STREAM.INTREE$ = IT_COMMAND$;
      426     8931    5                       CMD$STREAM.IT_FROM_PARSE_TREE = %TRUE;
      427     8932    6                       DO WHILE IT_COMMAND$ ~= ADDR(NIL);
      428     8933    6                          CALL PROCESS_COMMAND (IT_COMMAND$)
      429     8934    6                            ALTRET (PROCESS_COMMAND_FAILED);
      430     8935    6                          END;
      431     8936    5                       CALL VDG$OFREE (CMD$STREAM.INTREE$->IT$COMMAND)
      432     8937    5                         ALTRET (OFREE_FAILED);
      433     8938    5                       CMD$STREAM.INTREE$ = ADDR(NIL);
      434     8939    5                       CMD$STREAM.IT_FROM_PARSE_TREE = %FALSE;
      435     8940    5                       END;
      436     8941    4                    END;
PL6.E3A0      #001=VDI$PDRIVER File=VDI$PARSE.:VDA5TSI                           FRI 07/04/97 11:33 Page:13
      437     8942    3                 END;
      438     8943
      439     8944    3              IF CMD$STREAM.INTREE$ ~= ADDR(NIL) THEN DO;
      440     8945    3                 IT_COMMAND$ = CMD$STREAM.INTREE$;
      441     8946    4                 DO WHILE IT_COMMAND$ ~= ADDR(NIL);
      442     8947    4                    CALL PROCESS_COMMAND (IT_COMMAND$)
      443     8948    4                      ALTRET (PROCESS_COMMAND_FAILED);
      444     8949    4                    END;
      445     8950    3                 END;
      446     8951
      447     8952    3              IF CMD$STREAM.IT_FROM_PARSE_TREE THEN DO;
      448     8953    3                 CALL VDG$OFREE (CMD$STREAM.INTREE$->IT$COMMAND)
      449     8954    3                   ALTRET (OFREE_FAILED);
      450     8955    3                 CMD$STREAM.INTREE$ = ADDR(NIL);
      451     8956    3                 CMD$STREAM.IT_FROM_PARSE_TREE = %FALSE;
      452     8957    3                 END;
      453     8958
      454     8959
      455     8960    2              IF VD_6E.ERR_TAIL$ ~= VD_6E.ERR_HEAD$ THEN
      456     8961    2                 CALL VDG$EREPORT_ERROR; /* Flush any info msgs */
      457     8962    2              END FOREVER_LOOP;
      458     8963
      459     8964    1   VDI$PFIX_WINDOWS: ENTRY ALTRET;
      460     8965
      461     8966    2           IF DCBADDR (DCBNUM (M$6E)) -> F$DCB.RES# ~= 'ME' THEN DO;
      462     8967                   /* An !ADJUST must have been the command - try to honor it */
      463     8968    2              IF VD_EDITING_WINDOWS > VD_IBEX_WINDOW THEN EXIT; /* Too late */
      464     8969    2              CALL VDP$WINIT;
      465     8970    2              END;
      466     8971    1           IF NOT DCBADDR (DCBNUM (M$ME)) -> F$DCB.FCD# OR VD_$SCREEN.V#=0 THEN
      467     8972    1              CALL VDG$EXPAND_COMMAND_WINDOW (VD_$SCREEN.V#);
      468     8973    1           RETURN;
      469     8974
      470     8975                %BOX (TITLE="Error Handlers");

              8987    1   /***************************************************************************
              8989    1    *                                                                         *
PL6.E3A0      #001=VDI$PDRIVER File=VDI$PARSE.:VDA5TSI                           FRI 07/04/97 11:33 Page:14
              8993    1            *                               Error Handlers                            *
              8995    1            *                                                                         *
              8997    1           ***************************************************************************/

      471     9001
      472     9002    1   WREAD_FAILED:
      473     9003                /*
      474     9004                *   We differentiate between different types of WREAD
      475     9005                *       errors:  (1) those that occur on the file side before we
      476     9006                *       get the screen filled, usually while reading the file in
      477     9007                *       order to fill the screen; (2) those that occur on the file
      478     9008                *       side after we get the screen filled and begin reading
      479     9009                *       user keystrokes, usually while writing user-changed records
      480     9010                *       to the file; and
      481     9011                *N*     (3) those that occur on the FEP side.
      482     9012                *   We detect case (1) by looking at the last error on the VD$ERR
      483     9013                *       chain; if it's %E$CANT_READ_FILE, then we've got a case (1)
      484     9014                *       error.  In that case, remove the EditBlock so we don't loop
      485     9015                *       forever trying to read the file to fill the screen.
      486     9016                *   If the last VD$ERR is any other error, we've got case (2):
      487     9017                *       just erase the screen to force a refill of the screen
      488     9018                *       from the file.  This is an error like "can't insert records
      489     9019                *       into a consecutive file", or "can't insert anymore records
      490     9020                *       between these two".  We don't need to remove the EditBlock
      491     9021                *       block; presumeably the user won't keep repeating the same
      492     9022                *       mistake.  However, we do need to make sure that the screen
      493     9023                *       matches what's in the file, not what the FEP thinks it
      494     9024                *       should be:  an insertion may have worked in the FEP which
      495     9025                *       didn't work on the file, and the FEP must be informed of
      496     9026                *       the actual file contents.
      497     9027                *N* For case (3), who knows!  Assume it's not loopable, and
      498     9028                *N*     do the same as for case (2).
      499     9029                */
      500     9030    1           IF VD$ERR_TAIL.ERR.CODE# = %E$CANT_READ_FILE
      501     9031    2             AND NOT VD$ERR_TAIL.ERR.MON THEN DO;
      502     9032                   /* Case (1):  Remove the EditBlock */
      503     9033    2              CALL VDI$PREMOVE_EDIT_BLOCK;
PL6.E3A0      #001=VDI$PDRIVER File=VDI$PARSE.:VDA5TSI                           FRI 07/04/97 11:33 Page:15
      504     9034    2              END;
      505     9035    2           ELSE DO;
      506     9036                   /* Cases (2) and (3):  just erase the screen */
      507     9037    2              IF CURR$WINDOW.DCB# ~= VD$ERR_TAIL.DCB# THEN
      508     9038    2                 CALL VDP$WERASE (CURR$WINDOW);
      509     9039    2              END;
      510     9040    1           GOT_WREAD_ERROR = %TRUE;
      511     9041    1           GOTO CLEAN_UP;
      512     9042
      513     9043
      514     9044    1   GETCMD_FAILED:
      515     9045                /*
      516     9046                *  XUG_INIT.GOODCMD isn't set, so we get syntax errors as errors
      517     9047                *     from XUG (XUP-E$SYNERR-0).
      518     9048                *  Also, the subroutines called by GETCMD (eg VDI$PGET_COMMAND_RECORD
      519     9049                *     and VDI$PUSER_PARSE_RTN) may return errors.
      520     9050                *  A VD$ERR has already been allocated in all cases except an
      521     9051                *      error from an XU routine.
      522     9052                */
      523     9053    1           ERR_CODE = XUG_GETCMD.ERR#;
      524     9054    2           IF ERR_CODE.FCG = %FCG_XU THEN DO;
      525     9055    2              CALL VDG$OALLOC (%CLS_ERR, VD_ERR$)
      526     9056    2                ALTRET (OALLOC_FAILED);
      527     9057    2              VD$ERR.ERR = XUG_GETCMD.ERR#;
      528     9058    2              VD$ERR.FLAGLEV# = %FLV_SERIOUS;
      529     9059    2              VD$ERR.CMDLINE_INDEX# = XUG_GETCMD.PCB$->P$PCB.HI_CHAR;
      530     9060    2              END;
      531     9061    1           GOTO CLEAN_UP;
      532     9062
      533     9063
      534     9064    1   PARSE_TREE_TO_INTREE_FAILED:
      535     9065    1           CALL VDG$OFREE (CMD$STREAM.INTREE$->IT$COMMAND)
      536     9066    1             ALTRET (OFREE_FAILED);
      537     9067    1           CMD$STREAM.INTREE$ = ADDR(NIL);
      538     9068    1           CMD$STREAM.IT_FROM_PARSE_TREE = %FALSE;
      539     9069    1           GOTO CLEAN_UP;
      540     9070
PL6.E3A0      #001=VDI$PDRIVER File=VDI$PARSE.:VDA5TSI                           FRI 07/04/97 11:33 Page:16
      541     9071
      542     9072    1   SHRINK_COMMAND_WINDOW_FAILED: ;
      543     9073    1   EXPAND_COMMAND_WINDOW_FAILED: ;
      544     9074    1   NFLUSH_FAILED: ;
      545     9075    1   PROCESS_COMMAND_FAILED: ;
      546     9076    1   CLEAN_UP:
      547     9077    1           IF VD_6E.CMD_STREAM$ ~= ADDR(NIL) THEN
      548     9078    2   FLUSH_CMD_STREAMS: DO;
      549     9079    2              VD_ERR$ = ADDR(NIL);
      550     9080
      551     9081    2   EACH_CMD_STREAM:
      552     9082    3              DO UNTIL (VD_6E.CMD_STREAM$ = ADDR (NIL));
      553     9083    3                 WARN_ABORTED_BUFFER = %FALSE;
      554     9084    3                 IF CMD$STREAM.TYPE# = %CS_BUFFER
      555     9085    3                   AND CMD$STREAM.RECORD$ ~= ADDR(NIL) THEN
      556     9086    3                    IF CMD$STREAM.POSITION# <
      557     9087    3                      CMD$STREAM.RECORD$ -> VD$BUFFER.LENGTH# THEN
      558     9088    3                       WARN_ABORTED_BUFFER = %TRUE;
      559     9089    4                 IF VD_$$QUAC.V# ~= 0 AND CMD$STREAM.DCB# = DCBNUM(M$SI) THEN DO;
      560     9090    4                    IF CMD$STREAM.REC_NUM# = 0 THEN EXIT; /* give up if not open */
      561     9091    4                    IF VD_ERR$=ADDR(NIL) THEN EXIT FLUSH_CMD_STREAMS;
      562     9092    4                    CALL VDI$PREAD_FILE_CLOSE;
      563     9093    4                    CALL VDI$PREAD_FILE_OPEN;
      564     9094    4                    CALL VDI$PREAD_FILE_POSITION;
      565     9095    4                    EXIT FLUSH_CMD_STREAMS; /* Only to the input file */
      566     9096    4                    END;
      567     9097    3                 IF CMD$STREAM.TYPE# = %CS_FILE
      568     9098    3                   OR CMD$STREAM.TYPE# = %CS_DCB
      569     9099    3                   OR WARN_ABORTED_BUFFER THEN
      570     9100    4   WARN_ABORTED_CMD_STREAM: DO;
      571     9101    4                    CALL VDG$OALLOC (%CLS_ERR, VD_ERR$)
      572     9102    4                      ALTRET (OALLOC_FAILED);
      573     9103    4                    SUBST_FIELD$ = PINCRW(VD_ERR$, SIZEW(VD$ERR));
      574     9104    4                    VD$ERR.FLAGLEV# = %FLV_WARN;
      575     9105    4                    INDX = 0;
      576     9106    5                    DO WHILE INDX < %MX_CMD_OBJECTS
      577     9107    5                      AND VD_CMD_OBJECTS$ (INDX) ~= ADDR(NIL);
PL6.E3A0      #001=VDI$PDRIVER File=VDI$PARSE.:VDA5TSI                           FRI 07/04/97 11:33 Page:17
      578     9108    5                       INDX = INDX + 1;
      579     9109    5                       END;
      580     9110    4                    IF INDX >= %MX_CMD_OBJECTS THEN
      581     9111    4                       CALL VDG$ESCREECH;
      582     9112
      583     9113    5                    IF WARN_ABORTED_BUFFER THEN DO;
      584     9114    5                       VD$ERR.ERR.CODE# = %E$WARN_COMMANDS_IGNORED;
      585     9115    5                       VD_CMD_OBJECTS$ (INDX) = CMD$STREAM.RECORD$;
      586     9116    5                       CMD$STREAM.RECORD$ = ADDR(NIL);
      587     9117    5                       SUBST$POINTER.OBJECT.CLASS# (0) = %CLS_PTR_TEXTC;
      588     9118    5                       CMD_RECORD$ = VD_CMD_OBJECTS$ (INDX);
      589     9119    5                       CALL INSERT (CMD$RECORD.BYTES,
      590     9120    5                         CMD$STREAM.POSITION# - 1, 1,
      591     9121    5                         BINASC(CMD$RECORD.LENGTH# - CMD$STREAM.POSITION#));
      592     9122    5                       SUBST$POINTER.V$ (0) = PINCRC(ADDR(CMD$RECORD.BYTES),
      593     9123    5                         CMD$STREAM.POSITION# - 1);
      594     9124    5                       END;
      595     9125    5                    ELSE DO;
      596     9126    5                       CALL VDI$PREAD_FILE_CLOSE; /* Any err reported below */
      597     9127    5                       VD$ERR.ERR.CODE# = %E$WARN_STOPPING_READ_FILE;
      598     9128    5                       CALL VDG$OALLOC (%CLS_TEXTC_REMOTE, VD_CMD_OBJECTS$ (INDX),
      599     9129    5                         LENGTHC(CMD$STREAM.FILE))
      600     9130    5                         ALTRET (OALLOC_FAILED);
      601     9131    5                       SUBST$POINTER.OBJECT.CLASS# (0) = %CLS_PTR_TEXTC;
      602     9132    5                       SUBST$POINTER.V$ (0) = ADDR(VD_CMD_OBJECTS$ (INDX) ->
      603     9133    5                         VD$TEXTC_REMOTE.LENGTH#);
      604     9134    5                       VD_CMD_OBJECTS$ (INDX) -> VD$TEXTC_REMOTE.LENGTH# =
      605     9135    5                         CMD$STREAM.FILE.LENGTH#;
      606     9136    5                       VD_CMD_OBJECTS$ (INDX) -> VD$TEXTC_REMOTE.BYTES =
      607     9137    5                         CMD$STREAM.FILE.BYTES;
      608     9138    5                       SUBST$NUMBER.OBJECT.CLASS# (1) = %CLS_NUMBER;
      609     9139    5                       SUBST$NUMBER.V# (1) = CMD$STREAM.REC_NUM#;
      610     9140    5                       END;
      611     9141    4                    END WARN_ABORTED_CMD_STREAM;
      612     9142
      613     9143    3                 CALL VDG$OFREE (CMD$STREAM)
      614     9144    3                   ALTRET (OFREE_FAILED);
PL6.E3A0      #001=VDI$PDRIVER File=VDI$PARSE.:VDA5TSI                           FRI 07/04/97 11:33 Page:18
      615     9145    3                 END EACH_CMD_STREAM;
      616     9146
      617     9147    2              CALL VDG$OALLOC (%CLS_CMD_STREAM, SINK$)
      618     9148    2                ALTRET (OALLOC_FAILED);
      619     9149    2              CMD$STREAM.TYPE# = %CS_ME;
      620     9150    2              END FLUSH_CMD_STREAMS;
      621     9151
      622     9152    1           CALL VDG$EREPORT_ERROR;
      623     9153
      624     9154    1           VD_FORCE_READ_FROM = %RF_COMMAND_WINDOW; /* Force 1 cmd window read */
      625     9155    1           GOTO FOREVER_LOOP;   /* Re-enter the loop at the top */
      626     9156
      627     9157
      628     9158    1   OALLOC_FAILED: ;
      629     9159    1   OFREE_FAILED: ;
      630     9160                /* These are fatal errors */
      631     9161    1           CALL VDG$EREPORT_ERROR; /* We'll never come back from this */
      632     9162
      633     9163        %BOX (TITLE=PROCESS_COMMAND, PAGE=YES);
              9171    1
              9175    1   /***************************************************************************
              9177    1    *                                                                         *
              9181    1            *                              PROCESS_COMMAND                            *
              9183    1            *                                                                         *
              9185    1           ***************************************************************************/

      634     9189
      635     9190        /*I* NAME: PROCESS_COMMAND
      636     9191            PARAMETERS:
      637     9192                IT_COMMAND$ - Ptr to a VD$IT_COMMAND node specyfying the command to
      638     9193                    process.
      639     9194            INPUT:
      640     9195
      641     9196                The following data isn't used by this routine directly,
      642     9197                but the comments below describe the state of the data
      643     9198                at the point between commands.
      644     9199
PL6.E3A0      #001=VDI$PDRIVER File=VDI$PARSE.:VDA5TSI                           FRI 07/04/97 11:33 Page:19
      645     9200                VD_CURRENT_WINDOW$ points to the VD$FILE_NODE for the current
      646     9201                    editing window.  If not NIL, the Spec attached to this node is:
      647     9202                CURR$WINDOW - The VD$WINDOW_SPEC for the current editing window:
      648     9203                    .OPERAND.STREAM$ points to the window's stream, which is
      649     9204                        always open to the EditBlock (if any) for the window.
      650     9205                    .OPERAND.INTREE$ must be NIL between commands.
      651     9206                    .OPERAND.EDIT_BLOCK$ points to the block descriptor for
      652     9207                        the EditBlock, if any.
      653     9208                    .OPERAND.EVAL$ points to the top VD$EVAL on the evalutation
      654     9209                        stack for the current SelectedBlock:
      655     9210                        .ENCLOSING specifies the current enclosing range for
      656     9211                            evaluation; used by the VDE$Ixxx routines.
      657     9212                        .RANGE is the current range of the SelectedBlock (its
      658     9213                            domain is always the current EditBlock).
      659     9214                        .STATE# is the current state of evaluation of the
      660     9215                            block; used by VDE$Ixxx routines.
      661     9216                VD_6E.SOURCE.OPERAND contains all the above info for the
      662     9217                    Source operand.
      663     9218
      664     9219                There may be:
      665     9220                    No current EditBlock:  CURR$WSPEC.OPERAND.EDIT_BLOCK$ and
      666     9221                        .EVAL$ will be NIL.
      667     9222                    No current Source operand:  VD_6E.SOURCE.OPERAND.EDIT_BLOCK$
      668     9223                        will be NIL.
      669     9224            OUTPUT:
      670     9225                IT_COMMAND$ will be reset to point to the next
      671     9226                    VD$IT_COMMAND node to process, if any.
      672     9227                IT_COMMAND$'s InTree parameter, if it had one, will be removed.
      673     9228            DESCRIPTION:
      674     9229                This routine will process one command, as specified by a VD$IT_COMMAND
      675     9230                    node.
      676     9231                If the command has an explicit verb, call the appropriate command
      677     9232                    processor.
      678     9233                    If this is an editing command, reset the SelectedBlock's
      679     9234                    evaluation state to %EVST_INITIAL, ready for the next command.
      680     9235                If the command doesn't have an explicit verb, evaluate the
      681     9236                    range of the command's InTree:  this is the new range for the
PL6.E3A0      #001=VDI$PDRIVER File=VDI$PARSE.:VDA5TSI                           FRI 07/04/97 11:33 Page:20
      682     9237                    SelectedBlock.
      683     9238                In any case, discard all entries on the SelectedBlock's
      684     9239                    evaluation stack except the top entry; those generators
      685     9240                    aren't needed anymore.
      686     9241        */
      687     9242
      688     9243    1   PROCESS_COMMAND: PROC (IT_COMMAND$) ALTRET;
      689     9244
      690     9245
      691     9246    2   DCL IT_COMMAND$ PTR;
      692     9247
      693     9248
      694     9249        /*
      695     9250        *   EQUs just for this routine.
      696     9251        */
      697     9252
      698     9253        %EQU NON_ED_CMD = 1;        /* Non-editing command */
      699     9254        %EQU EXPL_ED_CMD = 2;       /* Explicit editing command */
      700     9255        %EQU IMPL_ED_CMD = 3;       /* Implicit (verb-less) editing command */
      701     9256
      702     9257
      703     9258    2   DCL CMD_CLASS SBIN;
      704     9259    2   DCL CURR_WINDOW$ PTR;
      705     9260    2   DCL IT_BLOCK_EXPR$ PTR;
      706     9261    2   DCL SIGNAL BIT(1) ALIGNED;
      707     9262    2   DCL SAVE_SCREEN SBIN;
      708     9263    2   DCL DELFID_CMD    BIT(36)  STATIC SYMDEF INIT('0'B);
      709     9264
      710     9265
      711     9266        %VD$IT_COMMAND (NAME=IT$COMMAND, STCLASS="BASED(IT_COMMAND$)");
      712     9304        %PARSE$OUT (NAME=BLOCK$EXPR, STCLASS=BASED);
      713     9349        %VD$WINDOW_SPEC (NAME=CURR$WINDOW, STCLASS="BASED(CURR_WINDOW$)");
      714     9415        %VD$IT_BLOCK_EXPR (NAME=IT$BLOCK_EXPR, STCLASS="BASED(IT_BLOCK_EXPR$)");
      715     9565
      716     9566
      717     9567
      718     9568    2           CMD_CLASS = 0;
PL6.E3A0      #001=VDI$PDRIVER File=VDI$PARSE.:VDA5TSI                           FRI 07/04/97 11:33 Page:21
      719     9569    3           DO CASE (IT$COMMAND.CODE#);
      720     9570    3            CASE (%T_EDIT_CMD, %T_WINDOW_CMD,
      721     9571    3             %T_DISPLAY_CMD, %T_COPY_CMD, %T_MOVE_CMD, %T_AFTER_CMD,
      722     9572    3             %T_OVER_CMD, %T_DELETE_CMD, %T_LOCATION_CMD);
      723     9573    3              CMD_CLASS = %EXPL_ED_CMD;
      724     9574    3            CASE (%T_BLOCK_EXPR, %T_STRING_EXPR);
      725     9575    3              CMD_CLASS = %IMPL_ED_CMD;
      726     9576    3            CASE (ELSE);
      727     9577    3              CMD_CLASS = %NON_ED_CMD;
      728     9578    3            END;
      729     9579
      730     9580
      731     9581    2           IF CMD_CLASS = %EXPL_ED_CMD OR CMD_CLASS = %IMPL_ED_CMD THEN
      732     9582    3   EDITING_COMMANDS: DO;
      733     9583                   /*
      734     9584                   *   For editing commands, if there isn't a current editing window,
      735     9585                   *       create one, after first creating the "real" command
      736     9586                   *       window, if we're using a temporary serial one.
      737     9587                   */
      738     9588    3              IF VD_OLD_$SCREEN > 0 AND VD_$COMMAND.V# = 0 THEN
      739     9589    3                 CALL VDG$SHRINK_COMMAND_WINDOW (VD_$MIN_COMMAND.V#)
      740     9590    3                   ALTRET (CP_FAILED);
      741     9591
      742     9592    3              CALL EDITING_COMMAND_SEEN (CMD_CLASS)
      743     9593    3                ALTRET (EDITING_COMMAND_SEEN_FAILED);
      744     9594    3              IF IT$COMMAND.CODE# = %T_WINDOW_CMD AND
      745     9595    3                IT$COMMAND.PT_BLOCK_EXPR$ = ADDR(NIL)
      746     9596    3              THEN EXIT EDITING_COMMANDS;
      747     9597
      748     9598    3              CURR_WINDOW$ = VD_CURRENT_WINDOW$->VD$FILE_NODE.DESC.SPEC.V$;
      749     9599
      750     9600                   /*
      751     9601                   *  If given a parse-tree for a block expression, convert it into an
      752     9602                   *      InTree.
      753     9603                   *  In any case, the InTree should be moved to the WindowSpec.
      754     9604                   */
      755     9605    4              IF IT$COMMAND.PT_BLOCK_EXPR$ ~= ADDR(NIL) THEN DO;
PL6.E3A0      #001=VDI$PDRIVER File=VDI$PARSE.:VDA5TSI                           FRI 07/04/97 11:33 Page:22
      756     9606    4                 CALL VDE$PBLOCK_EXPR (IT$COMMAND.PT_BLOCK_EXPR$->BLOCK$EXPR)
      757     9607    4                   ALTRET (PBLOCK_EXPR_FAILED);
      758     9608    4                 IT$COMMAND.PT_BLOCK_EXPR$ = ADDR(NIL);
      759     9609    4                 END;
      760     9610    4              ELSE DO;
      761     9611    4                 CURR$WINDOW.OPERAND.INTREE$ = IT$COMMAND.PARAM$ (%CP_EDCMD_BLOCK);
      762     9612    4                 IT$COMMAND.PARAM$ (%CP_EDCMD_BLOCK) = ADDR(NIL);
      763     9613    4                 END;
      764     9614    3              IT_BLOCK_EXPR$ = CURR$WINDOW.OPERAND.INTREE$;
      765     9615
      766     9616    3              IF IT$COMMAND.CODE# = %T_EDIT_CMD
      767     9617    4                AND IT$BLOCK_EXPR.DOMAINN = %CLEAR THEN DO;
      768     9618                      /*
      769     9619                      *  This doesn't look like a new EditBlock.  But for
      770     9620                      *    the EDIT command, we always force a new EditBlock.
      771     9621                      */
      772     9622    4                 CALL NEW_EDIT_BLOCK_IN_OLD_DOMAIN (CURR$WINDOW, IT$BLOCK_EXPR)
      773     9623    4                   ALTRET (NEW_EDIT_BLOCK_IN_OLD_FAILED);
      774     9624    4                 END;
      775     9625
      776     9626                   /*
      777     9627                   *  Except for the COPY and MOVE commands, call VDE$IOPEN.
      778     9628                   */
      779     9629    3              IF IT$COMMAND.CODE# ~= %T_COPY_CMD
      780     9630    4                AND IT$COMMAND.CODE# ~= %T_MOVE_CMD THEN DO;
      781     9631    4                 DELFID_CMD = '0'B;
      782     9632    4                 IF IT$COMMAND.CODE# = %T_DELETE_CMD
      783     9633    4                   AND IT$BLOCK_EXPR.SELECTS_TAIL$ -> IT$SELECT.ADJUSTS_TAIL$ ->
      784     9634    4                   IT$ADJUST.MOVEMENTS_TAIL$ -> IT$OPERAND.CODE# = %OPAND_FILE THEN
      785     9635    4                    DELFID_CMD = '1'B;
      786     9636    4                 CALL VDE$IOPEN ALTRET (IOPEN_FAILED);
      787     9637    4                 END;
      788     9638
      789     9639    3              END EDITING_COMMANDS;
      790     9640
      791     9641
      792     9642                /*
PL6.E3A0      #001=VDI$PDRIVER File=VDI$PARSE.:VDA5TSI                           FRI 07/04/97 11:33 Page:23
      793     9643                *   Call the appropriate command processor.
      794     9644                */
      795     9645
      796     9646    3           DO CASE (IT$COMMAND.CODE#);
      797     9647
      798     9648    3            CASE (%T_BLOCK_EXPR, %T_STRING_EXPR);
      799     9649                   %INCREMENT (INDX=%STG_BLKEXPR_CMD);
      800     9652    3              CALL VDE$IRANGE (CURR$WINDOW.OPERAND, SIGNAL)
      801     9653    3                ALTRET (IRANGE_FAILED);
      802     9654                   /* Note that SIGNAL says if we found a range or not */
      803     9655    4              IF NOT SIGNAL THEN DO;
      804     9656    4                 CALL VDG$OALLOC (%CLS_ERR, VD_ERR$) ALTRET (OALLOC_FAILED);
      805     9657    4                 VD$ERR.ERR.CODE# = %E$INFO_NONE;
      806     9658    4                 VD$ERR.FLAGLEV# = %FLV_WARN;
      807     9659    4                 END;
      808     9660
      809     9661    3            CASE (%T_EDIT_CMD);
      810     9662    3              CALL VDI$CEDIT
      811     9663    3                ALTRET (CP_FAILED);
      812     9664    3              CURR_WINDOW$ = VD_CURRENT_WINDOW$->VD$FILE_NODE.DESC.SPEC.V$;
      813     9665    3            CASE (%T_SHOW_CMD);
      814     9666    3              SIGNAL = '0'B;
      815     9667                   /* Parse the block expression first */
      816     9668    3              IF VD_CURRENT_WINDOW$ = ADDR(NIL) THEN
      817     9669    3                 VD_CURRENT_WINDOW$ = VD_COMMAND_WINDOW$;
      818     9670    3              CALL VDE$PBLOCK_EXPR (IT$COMMAND.PT_BLOCK_EXPR$->BLOCK$EXPR)
      819     9671    3                ALTRET (SHOW_PBLOCK_EXPR_FAILED);
      820     9672    3              IT$COMMAND.PT_BLOCK_EXPR$ = ADDR(NIL);
      821     9673                   /* Now move the InTree to the source Operand, protected */
      822     9674    4              CALL VDI$CCOPY WHENALTRETURN DO;
      823     9675    4   SHOW_PBLOCK_EXPR_FAILED: SIGNAL = %TRUE;
      824     9676    4                 END;
      825     9677    3              IF VD_CURRENT_WINDOW$ = VD_COMMAND_WINDOW$ THEN
      826     9678    3                 VD_CURRENT_WINDOW$ = ADDR(NIL);
      827     9679
      828     9680    3              IF SIGNAL THEN
      829     9681    3                 GOTO CP_FAILED;
PL6.E3A0      #001=VDI$PDRIVER File=VDI$PARSE.:VDA5TSI                           FRI 07/04/97 11:33 Page:24
      830     9682    3              IF VD_$SCREEN.V# > 0
      831     9683    3                AND VD_FORCE_READ_FROM ~= %RF_EDITING_WINDOW THEN
      832     9684    3                 CALL VDG$EXPAND_COMMAND_WINDOW (VD_$SCREEN.V#);
      833     9685
      834     9686    3              SAVE_SCREEN = VD_$SCREEN.V#;
      835     9687    3              VD_$SCREEN.V# = 0;
      836     9688    3              CALL VDI$CSHOW
      837     9689    4              WHENALTRETURN DO;
      838     9690    4                 SIGNAL = '1'B;
      839     9691    4                 END;
      840     9692
      841     9693    3              VD_$SCREEN.V# = SAVE_SCREEN;
      842     9694
      843     9695    3              IF VD_FORCE_READ_FROM ~= %RF_EDITING_WINDOW THEN
      844     9696    3                 VD_FORCE_READ_FROM = %RF_COMMAND_WINDOW;
      845     9697    3              IF SIGNAL THEN GOTO CP_FAILED;
      846     9698    3            CASE (%T_WINDOW_CMD);
      847     9699    3              IF VD_CURRENT_WINDOW$ = ADDR(NIL) THEN EXIT;
      848     9700    3              IF VD_CURRENT_WINDOW$ -> VD$FILE_NODE.DESC.SPEC.V$ ->
      849     9701    3                CURR$WINDOW.OPERAND.INTREE$ ~= ADDR(NIL) THEN
      850     9702    3                 CALL VDI$CEDIT ALTRET (CP_FAILED);
      851     9703    3              CURR_WINDOW$ = VD_CURRENT_WINDOW$->VD$FILE_NODE.DESC.SPEC.V$;
      852     9704
      853     9705    3            CASE (%T_DISPLAY_CMD);
      854     9706    3              CALL VDI$CDISPLAY
      855     9707    3                ALTRET (CP_FAILED);
      856     9708
      857     9709    3            CASE (%T_COPY_CMD);
      858     9710    3              CALL VDI$CCOPY
      859     9711    3                ALTRET (CP_FAILED);
      860     9712
      861     9713    3            CASE (%T_MOVE_CMD);
      862     9714    3              CALL VDI$CMOVE
      863     9715    3                ALTRET (CP_FAILED);
      864     9716
      865     9717    3            CASE (%T_AFTER_CMD);
      866     9718    3              CALL VDI$CAFTER
PL6.E3A0      #001=VDI$PDRIVER File=VDI$PARSE.:VDA5TSI                           FRI 07/04/97 11:33 Page:25
      867     9719    3                ALTRET (CP_FAILED);
      868     9720
      869     9721    3            CASE (%T_OVER_CMD);
      870     9722    3              CALL VDI$COVER
      871     9723    3                ALTRET (CP_FAILED);
      872     9724
      873     9725    3            CASE (%T_DELETE_CMD);
      874     9726    3              IF NOT DELFID_CMD THEN
      875     9727    3                 CALL VDI$CDELETE
      876     9728    3                   ALTRET (CP_FAILED);
      877     9729    3              ELSE
      878     9730    3                 CALL VDI$CDELETE_FID
      879     9731    3                   ALTRET (CP_FAILED);
      880     9732
      881     9733    3            CASE (%T_EQUALS_CMD);
      882     9734    3              CALL VDI$CEQUALS (IT$COMMAND)
      883     9735    3                ALTRET (CP_FAILED);
      884     9736
      885     9737    3            CASE (%T_LOCATION_CMD);
      886     9738    3              CALL VDI$CLOCATION (IT$COMMAND)
      887     9739    3                ALTRET (CP_FAILED);
      888     9740
      889     9741    3            CASE (%T_SYNONYM_CMD);
      890     9742    3              CALL VDI$CSYNONYM (IT$COMMAND)
      891     9743    3                ALTRET (CP_FAILED);
      892     9744
      893     9745    3            CASE (%T_KEYIN_CMD);
      894     9746    3              CALL VDI$CKEYIN (IT$COMMAND)
      895     9747    3                ALTRET (CP_FAILED);
      896     9748
      897     9749    3            CASE (%T_SAVE_CMD);
      898     9750    3              CALL VDI$CSAVE (IT$COMMAND)
      899     9751    3                ALTRET (CP_FAILED);
      900     9752
      901     9753    3            CASE (%T_READ_CMD);
      902     9754    3              CALL VDI$CREAD (IT$COMMAND)
      903     9755    3                ALTRET (CP_FAILED);
PL6.E3A0      #001=VDI$PDRIVER File=VDI$PARSE.:VDA5TSI                           FRI 07/04/97 11:33 Page:26
      904     9756                   /* Force no more processing of this record for now */
      905     9757    3              IT_COMMAND$ = ADDR(NIL);
      906     9758    3            CASE (%T_RESTORE_CMD);
      907     9759    3              CALL VDI$CRESTORE (IT$COMMAND)
      908     9760    3                ALTRET (CP_FAILED);
      909     9761
      910     9762    3            CASE (%T_END_CMD);
      911     9763    3              IF IT$COMMAND.FLINK$ ~= ADDR(NIL)
      912     9764    3                OR CL_INDEX<COMMAND$LINE.NSUBLKS THEN
      913     9765    3                 GOTO END_NOT_LAST_FAILURE;
      914     9766    3              CALL VDI$CEND (IT$COMMAND)
      915     9767    3                ALTRET (CP_FAILED);
      916     9768
      917     9769    3            CASE (ELSE);
      918     9770    3              CALL VDG$ESCREECH (IT$COMMAND.CODE#);
      919     9771
      920     9772    3            END;
      921     9773
      922     9774                /*
      923     9775                *   Discard all the evaluation stack except the top entry.
      924     9776                *   Discard the InTree.
      925     9777                */
      926     9778
      927     9779    2           CALL CLEAN_UP_AFTER_COMMAND (CMD_CLASS)
      928     9780    2             ALTRET (CLEAN_UP_AFTER_COMMAND_FAILED);
      929     9781
      930     9782    2           IF IT_COMMAND$ ~= ADDR(NIL) THEN
      931     9783    2              IT_COMMAND$ = IT$COMMAND.FLINK$;
      932     9784
      933     9785    2           RETURN;
      934     9786
      935     9787
      936     9788                %BOX (TITLE="Error Handlers");

              9800    2   /***************************************************************************
              9802    2    *                                                                         *
              9806    2            *                               Error Handlers                            *
PL6.E3A0      #001=VDI$PDRIVER File=VDI$PARSE.:VDA5TSI                           FRI 07/04/97 11:33 Page:27
              9808    2            *                                                                         *
              9810    2           ***************************************************************************/

      937     9814
      938     9815    2   END_NOT_LAST_FAILURE:
      939     9816    2           CALL VDG$OALLOC (%CLS_ERR, VD_ERR$)
      940     9817    2             ALTRET (OALLOC_FAILED);
      941     9818    2           VD$ERR.ERR.CODE# = %E$END_NOT_LAST_CMD;
      942     9819    2           VD$ERR.FLAGLEV# = %FLV_SERIOUS;
      943     9820
      944     9821
      945     9822    2   PBLOCK_EXPR_FAILED: ;
      946     9823    2   OCOPY_RANGE_FAILED: ;
      947     9824    2   IOPEN_FAILED: ;
      948     9825    2   IRANGE_FAILED: ;
      949     9826    2   CP_FAILED: ;
      950     9827    2           IF VD_6E.ERR_TAIL$->VD$ERR.CMDLINE_INDEX# = 0 THEN
      951     9828    2              VD_6E.ERR_TAIL$->VD$ERR.CMDLINE_INDEX# = IT$COMMAND.CMDLINE_INDEX#;
      952     9829    2           IF FATAL$ERR.ERR = %CLEAR THEN
      953     9830    2              CALL CLEAN_UP_AFTER_COMMAND (CMD_CLASS)
      954     9831    2                ALTRET (CLEAN_UP_AFTER_COMMAND_FAILED);
      955     9832    2           ALTRETURN;
      956     9833
      957     9834
      958     9835    2   OALLOC_FAILED: ;
      959     9836    2   EDITING_COMMAND_SEEN_FAILED: ;
      960     9837    2   NEW_EDIT_BLOCK_IN_OLD_FAILED: ;
      961     9838    2   CLEAN_UP_AFTER_COMMAND_FAILED: ;
      962     9839    2           ALTRETURN;
      963     9840
      964     9841    2   END PROCESS_COMMAND;
      965     9842
      966     9843        %BOX (TITLE=EDITING_COMMAND_SEEN, PAGE=YES);
              9851    2
              9855    2   /***************************************************************************
              9857    2    *                                                                         *
              9861    2            *                            EDITING_COMMAND_SEEN                         *
PL6.E3A0      #001=VDI$PDRIVER File=VDI$PARSE.:VDA5TSI                           FRI 07/04/97 11:33 Page:28
              9863    2            *                                                                         *
              9865    2           ***************************************************************************/

      967     9869
      968     9870        /*I* NAME: EDITING_COMMAND_SEEN
      969     9871            PARAMETERS:
      970     9872                CMD_CLASS is a word; it must be %EXPL_ED_CMD or %IMPL_ED_CMD.
      971     9873            INPUT:
      972     9874                VD_CURRENT_WINDOW$ must either be NIL, or point to the FileNode at
      973     9875                    level 1 of the Windows file, for the current editing window.
      974     9876                    NOTE that even if there is such a window currently, it may not
      975     9877                    be editing anything (as a result of an error), and its
      976     9878                    stream may be closed.
      977     9879                    May or may not have an .OPERAND.EVAL$ currently.
      978     9880            OUTPUT:
      979     9881                VD_CURRENT_WINDOW$ - If NIL at entry, will point to the VD$FILE_NODE
      980     9882                    at level 1 of the Windows file for a newly-created editing
      981     9883                    window, which isn't editing anything.
      982     9884                The current editing window's .OPERAND.EVAL$ will point to a
      983     9885                    single VD$EVAL; the rest of the stack will be freed.
      984     9886                    .CTRL_REC_MATCHED_EOF will be reset.
      985     9887                    (If at entry there was no evaluation stack, nothing will
      986     9888                    be done with it, and .OPERAND.EVAL$ will still be NIL.)
      987     9889                The current editing window's .OPERAND.INTREE$ will be NIL.
      988     9890                If this is an explicit editing command, the evaluation state
      989     9891                    (VD$EVAL.STATE#) will be set to %EVST_INITIAL.
      990     9892            DESCRIPTION:
      991     9893                If there are no editing windows yet (VD_CURRENT_WINDOW$ is NIL),
      992     9894                    create the first editing window; it starts out editing nothing.
      993     9895        *N*         Following paragraph de-implemented due to star 25801; instead,
      994     9896        *N*         just set the VD_2DIM flag but don't muck with command window:
      995     9897        *N*         If VD_$SCREEN says we can screen-edit, then check VD_2DIM:  it
      996     9898        *N*         probably indicates we're not screen editing yet (since this is
      997     9899        *N*         the first editing window), so set it (to tell the Presenter
      998     9900        *N*         to (re-)open windows in 2-dimensional mode) and "change" the
      999     9901        *N*         height of the command window (which should be the only window
     1000     9902        *N*         currently) to VD_$SCREEN.V#.
PL6.E3A0      #001=VDI$PDRIVER File=VDI$PARSE.:VDA5TSI                           FRI 07/04/97 11:33 Page:29
     1001     9903                Both before and after processing an editing command, we must
     1002     9904                initialize the window's VD$OPERAND for evaluation of this
     1003     9905                command's block expression and for that of the next command.
     1004     9906        */
     1005     9907
     1006     9908    1   EDITING_COMMAND_SEEN: PROC (CMD_CLASS) ALTRET;
     1007     9909
     1008     9910    2   DCL CMD_CLASS SBIN;
     1009     9911
     1010     9912
     1011     9913
     1012     9914        /*
     1013     9915        *   Locations in the Windows file for the first editing window.
     1014     9916        */
     1015     9917        %VD_LOCATION (NAME=FIRST_ED_WIN_LOC, STCLASS=CONSTANT, INITS=1,
     1016     9918            ITYPE1=%KT_NUMBER, IREP1=%REP_LOCAL, IBYTES1=%WK_1ST_EDITING_WINDOW);
     1017     9993        %VD_LOCATION (NAME=FIRST_ED_WIN_BLOCK_LOC, STCLASS=CONSTANT, INITS=2,
     1018     9994            ITYPE1=%KT_NUMBER, IREP1=%REP_LOCAL, IBYTES1=%WK_1ST_EDITING_WINDOW,
     1019     9995            ITYPE2=%KT_NUMBER, IREP2=%REP_LOCAL, IBYTES2=0);    /* Key at level 2 */
     1020    10105
     1021    10106
     1022    10107
     1023    10108    2   DCL WINDOW_SPEC$ PTR;
     1024    10109    2   DCL NODE$ PTR;
     1025    10110    2   DCL COUNT SBIN;
     1026    10111    2   DCL COUNT_PTR$ REDEF COUNT PTR;
     1027    10112    2   DCL FREE_EVAL$ PTR;
     1028    10113    2   DCL NEXT_EVAL$ PTR;
     1029    10114        %VD$SPEC (NAME=WSPEC, STCLASS=AUTO);
     1030    10128        %VD$RANGE (NAME=WLOC, STCLASS=AUTO);
     1031    10197
     1032    10198
     1033    10199        %VD$WINDOW_SPEC (NAME=WINDOW$SPEC, STCLASS="BASED(WINDOW_SPEC$)");
     1034    10265        %VD$EVAL (NAME=FREE$EVAL, STCLASS="BASED(FREE_EVAL$)");
     1035    10510
     1036    10511
     1037    10512
PL6.E3A0      #001=VDI$PDRIVER File=VDI$PARSE.:VDA5TSI                           FRI 07/04/97 11:33 Page:30
     1038    10513    2           IF VD_CURRENT_WINDOW$ = ADDR(NIL)
     1039    10514    2             OR IT$COMMAND.CODE# = %T_WINDOW_CMD THEN
     1040    10515    3   CREATE_FIRST_ED_WINDOW: DO;
     1041    10516                   /*
     1042    10517                   *  Create the first editing window.
     1043    10518                   */
     1044    10519    3              CALL VDG$OALLOC (%CLS_WINDOW_SPEC, WSPEC.V$)
     1045    10520    3                ALTRET (OALLOC_FAILED);
     1046    10521    3              WSPEC.V$ -> WINDOW$SPEC.COORDS.HEIGHT# = VD_EDITING_HEIGHT;
     1047    10522    3              WLOC.START = FIRST_ED_WIN_LOC;
     1048    10523    3              WLOC.ENDD = FIRST_ED_WIN_BLOCK_LOC;
     1049    10524    3              ADDR(WLOC.START)->VD$KEY_NUMBER.BYTES# = VD_EDITING_WINDOWS;
     1050    10525    4              IF IT$COMMAND.CODE# = %T_WINDOW_CMD THEN DO;
     1051    10526    4                 IF IT$COMMAND.PARAM$(%CP_WI_LINES) ~= ADDR(NIL) THEN
     1052    10527    4                    WSPEC.V$ -> WINDOW$SPEC.COORDS.HEIGHT# =
     1053    10528    4                      IT$COMMAND.PARAM$(%CP_WI_LINES)->VD$NUMBER.V#;
     1054    10529    4                 IF IT$COMMAND.FLAGS(%CF_WI_NEW) OR
     1055    10530    4                   VD_CURRENT_WINDOW$ = ADDR(NIL) THEN EXIT;
     1056    10531    4                 WLOC.START.KEY.V$(0) =
     1057    10532    4                   VD_CURRENT_WINDOW$->VD$FILE_NODE.DESC.KEY.V$;
     1058    10533    4                 IF IT$COMMAND.PARAM$(%CP_WI_NUM) ~= ADDR(NIL) THEN
     1059    10534    4                    ADDR(WLOC.START)->VD$KEY_NUMBER.BYTES# =
     1060    10535    4                      IT$COMMAND.PARAM$(%CP_WI_NUM) -> VD$NUMBER.V#;
     1061    10536    4                 WLOC.ENDD.KEY(0) = WLOC.START.KEY(0);
     1062    10537    5                 IF IT$COMMAND.FLAGS(%CF_WI_DELETE) THEN DO;
     1063    10538    5                    CALL VDA$LDELETE (WINDOWS$STREAM, WLOC)
     1064    10539    5                      ALTRET (LDELETE_FAILED);
     1065    10540    6                    IF VD_COMMAND_WINDOW$ ~= ADDR(NIL) THEN DO;
     1066    10541        /* Adjust window numbers to insure they're contiguous */
     1067    10542    6                       NODE$ = VD_COMMAND_WINDOW$;
     1068    10543    6                       COUNT_PTR$ = NODE$ -> VD$FILE_NODE.DESC.KEY.V$;
     1069    10544    7                       DO UNTIL NODE$ = ADDR(NIL);
     1070    10545    7                          NODE$ -> VD$FILE_NODE.DESC.KEY.V$ = COUNT_PTR$;
     1071    10546    7                          IF NODE$ = WINDOWS$STREAM.PORT$ ->
     1072    10547    7                            VD$PORT.LEVEL.INTERNAL$ (%LVL_LOWER) THEN
     1073    10548    7                             WINDOWS$STREAM.PORT$ ->
     1074    10549    7                               VD$PORT.CURRENT.KEY.V$ (0) = COUNT_PTR$;
PL6.E3A0      #001=VDI$PDRIVER File=VDI$PARSE.:VDA5TSI                           FRI 07/04/97 11:33 Page:31
     1075    10550    7                          NODE$ = NODE$ -> VD$FILE_NODE.FLINK$;
     1076    10551    7                          COUNT = COUNT + 1;
     1077    10552    7                          END;
     1078    10553    6                       END;
     1079    10554    5                    CALL VDG$OFREE (WSPEC.V$ -> WINDOW$SPEC) ALTRET(OFREE_FAILED);
     1080    10555    5                    RETURN;
     1081    10556    5                    END;
     1082    10557    5                 ELSE IF IT$COMMAND.PARAM$(%CP_WI_LINES) = ADDR(NIL) THEN DO;
     1083    10558    5                       CALL VDG$OFREE (WSPEC.V$ -> WINDOW$SPEC) ALTRET (OFREE_FAILED);
     1084    10559    6                       DO WHILE WLOC.START.KEY.V$(0) ~=
     1085    10560    6                         VD_CURRENT_WINDOW$->VD$FILE_NODE.DESC.KEY.V$;
     1086    10561    6                          IF VD_CURRENT_WINDOW$->VD$FILE_NODE.FLINK$ ~= ADDR(NIL)
     1087    10562    6                          THEN VD_CURRENT_WINDOW$ =
     1088    10563    6                               VD_CURRENT_WINDOW$->VD$FILE_NODE.FLINK$;
     1089    10564    6                          ELSE VD_CURRENT_WINDOW$ =
     1090    10565    6                               VD_COMMAND_WINDOW$->VD$FILE_NODE.FLINK$;
     1091    10566    6                          END;
     1092    10567    5                       EXIT CREATE_FIRST_ED_WINDOW;
     1093    10568    5                       END;
     1094    10569    4                 END;
     1095    10570    3              WLOC.ENDD.KEY(0) = WLOC.START.KEY(0);
     1096    10571
     1097    10572    3              WSPEC.TYPE# = %SPT_WINDOW_SPEC;
     1098    10573    3              WSPEC.REP# = %REP_REMOTE;
     1099    10574    3              CALL VDA$LWRITE (WINDOWS$STREAM, WLOC.START, WSPEC)
     1100    10575    3                ALTRET (ED_WINDOW_WRITE_FAILED);
     1101    10576
     1102    10577    3              CALL VDG$OALLOC (%CLS_WINDOW_BLOCK, WSPEC.V$)
     1103    10578    3                ALTRET (OALLOC_FAILED);
     1104    10579    3              WSPEC.TYPE# = %SPT_WINDOW_BLOCK;
     1105    10580    3              WSPEC.REP# = %REP_REMOTE;
     1106    10581    3              CALL VDA$LWRITE (WINDOWS$STREAM, WLOC.ENDD, WSPEC)
     1107    10582    3                ALTRET (ED_WINDOW_BLOCK_WRITE_FAILED);
     1108    10583
     1109    10584    3              CALL VDA$PFLUSH (WINDOWS$STREAM.PORT$->VD$PORT, %TO_PRESENTER)
     1110    10585    3                ALTRET (ED_WINDOW_PFLUSH_FAILED);
     1111    10586    3              END CREATE_FIRST_ED_WINDOW;
PL6.E3A0      #001=VDI$PDRIVER File=VDI$PARSE.:VDA5TSI                           FRI 07/04/97 11:33 Page:32
     1112    10587
     1113    10588    2           WINDOW_SPEC$ = VD_CURRENT_WINDOW$->VD$FILE_NODE.DESC.SPEC.V$;
     1114    10589    3           IF WINDOW$SPEC.OPERAND.EVAL$ ~= ADDR(NIL) THEN DO;
     1115    10590    3              FREE_EVAL$ = WINDOW$SPEC.OPERAND.EVAL$->VD$EVAL.BLINK$;
     1116    10591    3              WINDOW$SPEC.OPERAND.EVAL$->VD$EVAL.BLINK$ = ADDR(NIL);
     1117    10592    4              DO WHILE FREE_EVAL$ ~= ADDR(NIL);
     1118    10593    4                 NEXT_EVAL$ = FREE$EVAL.BLINK$;
     1119    10594    4                 CALL VDG$OFREE (FREE$EVAL)
     1120    10595    4                   ALTRET (OFREE_FAILED);
     1121    10596    4                 FREE_EVAL$ = NEXT_EVAL$;
     1122    10597    4                 END;
     1123    10598
     1124    10599    3              WINDOW$SPEC.OPERAND.EVAL$->VD$EVAL.CTRL_REC_MATCHED_EOF = %FALSE;
     1125    10600    3              IF CMD_CLASS = %EXPL_ED_CMD THEN
     1126    10601    3                 WINDOW$SPEC.OPERAND.EVAL$->VD$EVAL.STATE# = %EVST_INITIAL;
     1127    10602    3              END;
     1128    10603
     1129    10604    2           CALL VDG$OFREE (WINDOW$SPEC.OPERAND.INTREE$->VD$IT_BLOCK_EXPR)
     1130    10605    2             ALTRET (OFREE_FAILED);
     1131    10606    2           WINDOW$SPEC.OPERAND.INTREE$ = ADDR(NIL);
     1132    10607
     1133    10608    2           RETURN;
     1134    10609
     1135    10610
     1136    10611
     1137    10612    2   ED_WINDOW_WRITE_FAILED: ;
     1138    10613    2   LDELETE_FAILED: ;
     1139    10614    2   ED_WINDOW_BLOCK_WRITE_FAILED: ;
     1140    10615    2           IF WSPEC ~= %CLEAR THEN
     1141    10616    2              CALL VDG$OFREE (WSPEC.V$ -> WINDOW$SPEC);
     1142    10617    2           IF VD_CURRENT_WINDOW$ ~= ADDR(NIL) THEN
     1143    10618    2              IF VD_CURRENT_WINDOW$->
     1144    10619    2                VD$FILE_NODE.OBJECT.CLASS# ~= %CLS_FILE_NODE THEN
     1145    10620    2                 VD_CURRENT_WINDOW$ = VD_COMMAND_WINDOW$ -> VD$FILE_NODE.FLINK$;
     1146    10621
     1147    10622
     1148    10623    2   EXPAND_COMMAND_WINDOW_FAILED: ;
PL6.E3A0      #001=VDI$PDRIVER File=VDI$PARSE.:VDA5TSI                           FRI 07/04/97 11:33 Page:33
     1149    10624    2   ED_WINDOW_PFLUSH_FAILED: ;
     1150    10625    2   OALLOC_FAILED: ;
     1151    10626    2   OFREE_FAILED: ;
     1152    10627    2           ALTRETURN;
     1153    10628
     1154    10629    2   END EDITING_COMMAND_SEEN;
     1155    10630
     1156    10631        %BOX (TITLE=NEW_EDIT_BLOCK_IN_OLD_DOMAIN, PAGE=YES);
             10639    2
             10643    2   /***************************************************************************
             10645    2    *                                                                         *
             10649    2            *                        NEW_EDIT_BLOCK_IN_OLD_DOMAIN                     *
             10651    2            *                                                                         *
             10653    2           ***************************************************************************/

     1157    10657
     1158    10658        /*I* NAME: NEW_EDIT_BLOCK_IN_OLD_DOMAIN
     1159    10659            PARAMETERS:
     1160    10660                CURR_WINDOW - VD$WINDOW_SPEC for the current editing window.
     1161    10661                    CURR$WINDOW.OPERAND.EDIT_BLOCK$ must point to a
     1162    10662                    VD$BLOCK_DESC for the current EditBlock; there must
     1163    10663                    be such an EditBlock.
     1164    10664               IT_BLOCK_EXPR must be the VD$IT_BLOCK_EXPR returned by
     1165    10665                    VDE$PBLOCK_EXPR.  Specifically:
     1166    10666                  .DOMAINN must be %CLEAR, indicating that the block expression
     1167    10667                      specifies a block enclosed in the current edit block.
     1168    10668                  .OPTIONS must contain only those values explicitly given
     1169    10669                      by the user in the block expression; all other options
     1170    10670                      must be %CLEAR/NIL.
     1171    10671            INPUT:
     1172    10672            OUTPUT:
     1173    10673                IT_BLOCK_EXPR.DOMAINN will be filled in with info from
     1174    10674                    the current EditBlock.
     1175    10675                A BLOCK_DESC IT$OPERAND will be inserted at the beginning of the
     1176    10676                    movements chain to insure that subsequent movements start
     1177    10677                    from the proper position.
     1178    10678                IT_BLOCK_EXPR.OPTIONS will have its %CLEAR/NIL fields
PL6.E3A0      #001=VDI$PDRIVER File=VDI$PARSE.:VDA5TSI                           FRI 07/04/97 11:33 Page:34
     1179    10679                    filled in with values from the current EditBlock.
     1180    10680            DESCRIPTION:
     1181    10681                This routine is called for an EDIT command,
     1182    10682                when the user is telling us to edit a block which is in
     1183    10683                the same file as the current EditBlock.  Normally, this
     1184    10684                wouldn't look like a new EditBlock to VDE$IOPEN, so
     1185    10685                this routine fixes up IT_BLOCK_EXPR such that VDE$IOPEN
     1186    10686                will think this is a new EditBlock, and will act accordingly.
     1187    10687        */
     1188    10688
     1189    10689    1   NEW_EDIT_BLOCK_IN_OLD_DOMAIN: PROC (CURR_WINDOW, IT_BLOCK_EXPR) ALTRET;
     1190    10690
     1191    10691        %VD$WINDOW_SPEC (NAME=CURR_WINDOW, STCLASS=PARAM);
     1192    10757        %VD$IT_BLOCK_EXPR (NAME=IT_BLOCK_EXPR, STCLASS=PARAM);
     1193    10907
     1194    10908
     1195    10909
     1196    10910    2   DCL EDIT_BLOCK$ PTR;
     1197    10911    2   DCL IT_TEMP$ PTR;
     1198    10912
     1199    10913
     1200    10914        %VD$BLOCK_DESC (NAME=EDIT$BLOCK, STCLASS="BASED(EDIT_BLOCK$)");
     1201    11061
     1202    11062
     1203    11063
     1204    11064    2           EDIT_BLOCK$ = CURR_WINDOW.OPERAND.EDIT_BLOCK$;
     1205    11065
     1206    11066                %COPYKEY (FKEY=EDIT$BLOCK.FILE_KEY,
     1207    11067                TKEY=IT_BLOCK_EXPR.DOMAINN.FILE_KEY);
     1208    11083    2           CALL VDG$OCOPY_RANGE (EDIT$BLOCK.RANGE, IT_BLOCK_EXPR.DOMAINN.RANGE)
     1209    11084    2             ALTRET (OCOPY_RANGE_FAILED);
     1210    11085    2           IT_TEMP$ = IT_BLOCK_EXPR.SELECTS$->IT$SELECT.ADJUSTS$;
     1211    11086    2           CALL VDG$OALLOC (%CLS_IT_OPERAND, SINK$)
     1212    11087    2             ALTRET (OALLOC_FAILED);
     1213    11088    2           SINK$ -> IT$OPERAND.FLINK$ = IT_TEMP$ -> IT$ADJUST.MOVEMENTS$;
     1214    11089    2           SINK$ -> IT$OPERAND.PARENT$ = IT_TEMP$;
     1215    11090    2           IT_TEMP$ -> IT$ADJUST.MOVEMENTS$ = SINK$;
PL6.E3A0      #001=VDI$PDRIVER File=VDI$PARSE.:VDA5TSI                           FRI 07/04/97 11:33 Page:35
     1216    11091    2           IT_TEMP$ = SINK$;
     1217    11092    2           IT_TEMP$ -> IT$OPERAND.OPTIONS.POINT# = %PNT_AO;
     1218    11093    2           IT_TEMP$ -> IT$OPERAND.CODE# = %OPAND_BLOCK_DESC;
     1219    11094    2           CALL VDG$OALLOC (%CLS_BLOCK_DESC, IT_TEMP$ -> IT$OPERAND.PARAM$)
     1220    11095    2             ALTRET(OALLOC_FAILED);
     1221    11096    2           CALL VDG$OCOPY_RANGE (CURR_WINDOW.OPERAND.EVAL$ -> VD$EVAL.RANGE,
     1222    11097    2             IT_TEMP$ -> IT$OPERAND.PARAM$ -> EDIT$BLOCK.RANGE)
     1223    11098    2             ALTRET (OCOPY_RANGE_FAILED);
     1224    11099
     1225    11100                /*
     1226    11101                *   If the user explicitly specified any processing
     1227    11102                *       options, they're in IT_BLOCK_EXPR.OPTIONS.
     1228    11103                *   Fill in any missing values in the InTree's .OPTIONS
     1229    11104                *       from the new EditBlock's options.
     1230    11105                */
     1231    11106    2           IF IT_BLOCK_EXPR.OPTIONS.STRUCTURE$ = ADDR(NIL) THEN
     1232    11107    2              IT_BLOCK_EXPR.OPTIONS.STRUCTURE$ =
     1233    11108    2                EDIT$BLOCK.OPTIONS.STRUCTURE$;
     1234    11109    2           IF IT_BLOCK_EXPR.OPTIONS.LEVEL# = 0 THEN
     1235    11110    2              IT_BLOCK_EXPR.OPTIONS.LEVEL# = EDIT$BLOCK.OPTIONS.LEVEL#;
     1236    11111    2           IF IT_BLOCK_EXPR.OPTIONS.COMPONENT# = 0 THEN
     1237    11112    2              IT_BLOCK_EXPR.OPTIONS.COMPONENT# =
     1238    11113    2                EDIT$BLOCK.OPTIONS.COMPONENT#;
     1239    11114    2           IF IT_BLOCK_EXPR.OPTIONS.PROTECT# = 0 THEN
     1240    11115    2              IT_BLOCK_EXPR.OPTIONS.PROTECT# = EDIT$BLOCK.OPTIONS.PROTECT#;
     1241    11116    2           IF IT_BLOCK_EXPR.OPTIONS.EXIST# = 0 THEN
     1242    11117    2              IT_BLOCK_EXPR.OPTIONS.EXIST# = EDIT$BLOCK.OPTIONS.EXIST#;
     1243    11118                %COPYKEY (FKEY=EDIT$BLOCK.OPTIONS.KEY_INCR,
     1244    11119                TKEY=IT_BLOCK_EXPR.OPTIONS.KEY_INCR);
     1245    11135
     1246    11136    2           RETURN;
     1247    11137
     1248    11138
     1249    11139    2   OALLOC_FAILED: ;
     1250    11140    2   OCOPY_FAILED: ;
     1251    11141    2   OCOPY_RANGE_FAILED: ;
     1252    11142    2           ALTRETURN;
PL6.E3A0      #001=VDI$PDRIVER File=VDI$PARSE.:VDA5TSI                           FRI 07/04/97 11:33 Page:36
     1253    11143
     1254    11144    2   END NEW_EDIT_BLOCK_IN_OLD_DOMAIN;
     1255    11145
     1256    11146        %BOX (TITLE=CLEAN_UP_AFTER_COMMAND, PAGE=YES);
             11154    2
             11158    2   /***************************************************************************
             11160    2    *                                                                         *
             11164    2            *                           CLEAN_UP_AFTER_COMMAND                        *
             11166    2            *                                                                         *
             11168    2           ***************************************************************************/

     1257    11172
     1258    11173        /*I* NAME: CLEAN_UP_AFTER_COMMAND
     1259    11174            PARAMETERS:
     1260    11175                CMD_CLASS - Code specifying what type of command was just
     1261    11176                    processed:  %EXPL_ED_CMD, %IMPL_ED_CMD, or %NON_ED_CMD.
     1262    11177                If CMD_CLASS = %EXPL_ED_CMD or %IMPL_ED_CMD, then
     1263    11178                    VD_CURRENT_WINDOW$ must point to the FileNode at level
     1264    11179                    1 of the Windows file, for the current editing window.
     1265    11180            INPUT:
     1266    11181            OUTPUT:
     1267    11182                The current editing window's .OPERAND.EVAL$ will point to a
     1268    11183                    single VD$EVAL; the rest of the stack will be freed.
     1269    11184                The current editing window's .OPERAND.INTREE$ will be NIL.
     1270    11185            DESCRIPTION:
     1271    11186                After performing a command, even if the command encountered
     1272    11187                errors, we must clean up the window's VD$OPERAND before
     1273    11188                going on the the next command.
     1274    11189        */
     1275    11190
     1276    11191    1   CLEAN_UP_AFTER_COMMAND: PROC (CMD_CLASS) ALTRET;
     1277    11192
     1278    11193    2   DCL CMD_CLASS SBIN;
     1279    11194
     1280    11195
     1281    11196
     1282    11197    2   DCL CURR_WINDOW$ PTR;
PL6.E3A0      #001=VDI$PDRIVER File=VDI$PARSE.:VDA5TSI                           FRI 07/04/97 11:33 Page:37
     1283    11198
     1284    11199
     1285    11200        %VD$WINDOW_SPEC (NAME=CURR$WINDOW, STCLASS="BASED(CURR_WINDOW$)");
     1286    11266
     1287    11267
     1288    11268
     1289    11269    2           IF VD_CURRENT_WINDOW$ ~= ADDR(NIL) THEN
     1290    11270    2              CURR_WINDOW$ = VD_CURRENT_WINDOW$->VD$FILE_NODE.DESC.SPEC.V$;
     1291    11271    2           ELSE
     1292    11272    2              CURR_WINDOW$ = ADDR(NIL);
     1293    11273
     1294    11274    2           IF (CMD_CLASS = %EXPL_ED_CMD OR CMD_CLASS = %IMPL_ED_CMD)
     1295    11275    3             AND (CURR_WINDOW$ ~= ADDR(NIL)) THEN DO;
     1296    11276    3              IF CURR$WINDOW.OPERAND.STREAM$ -> VD$STREAM.PORT$ ~=
     1297    11277    4                ADDR(NIL) THEN DO;
     1298    11278    4                 CALL VDA$PFLUSH (CURR$WINDOW.OPERAND.STREAM$ ->
     1299    11279    4                   VD$STREAM.PORT$ -> VD$PORT, %TO_PRESENTER)
     1300    11280    4                   ALTRET (PFLUSH_FAILED);
     1301    11281    4                 END;
     1302    11282    3              IF VD_6E.SOURCE.OPERAND.STREAM$->VD$STREAM.PORT$ ~=
     1303    11283    4                ADDR(NIL) THEN DO;
     1304    11284    4                 CALL VDA$PFLUSH (VD_6E.SOURCE.OPERAND.STREAM$ ->
     1305    11285    4                   VD$STREAM.PORT$ -> VD$PORT, %TO_PRESENTER)
     1306    11286    4                   ALTRET (PFLUSH_FAILED);
     1307    11287    4                 END;
     1308    11288    3              IT$COMMAND.CODE# = 0; /* Mustn't be T_WINDOW_CMD */
     1309    11289    3              CALL EDITING_COMMAND_SEEN (CMD_CLASS)
     1310    11290    3                ALTRET (EDITING_COMMAND_SEEN_FAILED);
     1311    11291    3              END;
     1312    11292
     1313    11293    2           RETURN;
     1314    11294
     1315    11295
     1316    11296    2   PFLUSH_FAILED: ;
     1317    11297    2   EDITING_COMMAND_SEEN_FAILED: ;
     1318    11298    2           ALTRETURN;
     1319    11299
PL6.E3A0      #001=VDI$PDRIVER File=VDI$PARSE.:VDA5TSI                           FRI 07/04/97 11:33 Page:38
     1320    11300    2   END CLEAN_UP_AFTER_COMMAND;
     1321    11301
     1322    11302    1   END VDI$PDRIVER;
     1323    11303        %EOD;

PL6.E3A0      #001=VDI$PDRIVER File=VDI$PARSE.:VDA5TSI                           FRI 07/04/97 11:33 Page:39
--  Include file information  --

   B$TABLES_C.:LIBRARY  cannot be made into a system file and is referenced.
   CP_6.:LIBRARY  cannot be made into a system file and is referenced.
   XUG_ENTRY.:LIBRARY  cannot be made into a system file and is referenced.
   XUE_SUBS_C.:LIBRARY  is referenced.
   XU_MACRO_C.:LIBRARY  is referenced.
   VD_NODES0_E.:VDA5TOU  is referenced.
   VD_PERR_C.:VDA5TOU  is referenced.
   VD_MACROS_M.:VDA5TOU  is referenced.
   B$JIT_C.:E04TOU  was found in the system file and is never referenced.
   CP_6_C.:E04TOU  was found in the system file and is referenced.
      No diagnostics issued in procedure VDI$PDRIVER.

   Procedure VDI$PDRIVER requires 1461 words for executable code.
   Procedure VDI$PDRIVER requires 64 words of local(AUTO) storage.

PL6.E3A0      #001=VDI$PDRIVER File=VDI$PARSE.:VDA5TSI                           FRI 07/04/97 11:33 Page:40

 Object Unit name= VDI$PDRIVER                                File name= VDI$PARSE.:VDA5TOU
 UTS= JUL 04 '97 11:33:15.80 FRI                              Compiler= PL-6/E31         Sev=      00
 SharedLib= :SHARED_SYSTEM                                    Alt SharedLib=


    ****  Control sections  ****

 Sect   Type Bound  Init  Size OctSiz  Section name(segment info)
    0   DCB   even  none     0      0  M$UC
    1   DCB   even  none     0      0  M$6E
    2   DCB   even  none     0      0  M$ME
    3   DCB   even  none     0      0  M$SI
    4   Data  even  none     1      1  VDI$PDRIVER
    5  RoData even  UTS     19     23  VDI$PDRIVER
    6   Proc  even  none  1461   2665  VDI$PDRIVER
    7  RoData even  none    26     32  VDI$PDRIVER

    ****  Entry defs  ****

                              Check   Calling
                             calling  sequence
  Sect OctLoc Primary Altret sequence   type   Parms  Name
     6      0   yes    yes     yes      Std        0  VDI$PDRIVER
     6    367          yes     yes      Std        0  VDI$PFIX_WINDOWS

  ****  Data defs  ****

 Sect OctLoc  Name                           Sect OctLoc  Name
    4      0  DELFID_CMD
PL6.E3A0      #001=VDI$PDRIVER File=VDI$PARSE.:VDA5TSI                           FRI 07/04/97 11:33 Page:41

  ****  Entry refs  ****

         Check        Calling
        calling       sequence
Altret sequence SRef   type   Args  Name
         yes          ~proc      0 B_POINTER
         yes           Std       1 VDG$EREPORT_ERROR
 yes     yes           Std       0 VDI$PREMOVE_EDIT_BLOCK
 yes     yes           Std       1 VDP$WERASE
 yes     yes           Std       3 VDG$OALLOC
         yes           Std       3 VDG$ESCREECH
 yes     yes           Std       0 VDI$PREAD_FILE_OPEN
 yes     yes           Std       1 VDG$SHRINK_COMMAND_WINDOW
 yes     yes           Std       1 VDG$OFREE
 yes     yes           Std       0 VDP$WINIT
 yes     yes           Std       0 VDI$PREAD_FILE_CLOSE
 yes     yes           Std       0 VDI$PREAD_FILE_POSITION
 yes     yes           Std       1 VDP$NFLUSH
 yes     yes           Std       3 VDP$WREAD
 yes     yes           Std       1 XUG$GETCMD
 yes     yes           Std       3 VDI$PARSE_TREE_TO_INTREE
 yes     yes           Std       1 VDG$EXPAND_COMMAND_WINDOW
 yes     yes           Std       0 VDI$CSHOW
 yes     yes           Std       1 VDI$CSYNONYM
 yes     yes           Std       0 VDE$IOPEN
 yes     yes           Std       0 VDI$CMOVE
 yes     yes           Std       0 VDI$COVER
 yes     yes           Std       0 VDI$CDELETE
 yes     yes           Std       1 VDI$CEND
 yes     yes           Std       1 VDI$CSAVE
 yes     yes           Std       1 VDI$CEQUALS
 yes     yes           Std       0 VDI$CEDIT
 yes     yes           Std       0 VDI$CDISPLAY
 yes     yes           Std       0 VDI$CDELETE_FID
 yes     yes           Std       1 VDE$PBLOCK_EXPR
 yes     yes           Std       0 VDI$CCOPY
 yes     yes           Std       0 VDI$CAFTER
PL6.E3A0      #001=VDI$PDRIVER File=VDI$PARSE.:VDA5TSI                           FRI 07/04/97 11:33 Page:42
 yes     yes           Std       1 VDI$CREAD
 yes     yes           Std       1 VDI$CRESTORE
 yes     yes           Std       2 VDE$IRANGE
 yes     yes           Std       1 VDI$CLOCATION
 yes     yes           Std       1 VDI$CKEYIN
 yes     yes           Std       4 VDA$LWRITE
 yes     yes           Std       2 VDA$LDELETE
 yes     yes           Std       2 VDA$PFLUSH
 yes     yes           Std       2 VDG$OCOPY
 yes     yes           Std       2 VDG$OCOPY_RANGE
                       nStd      0 X66_AUTO_0
                       Std       0 B_CONSPOOL_D
                       nStd      0 X66_ARET

  ****  Data refs  ****

  Flags:  r = read only, s = secondary
Flgs Name                             Flgs Name                             Flgs Name
     M$UC                                  VD_6E                                 XUG_GETCMD
     VD_CURRENT_WINDOW$                    VD_COMMAND_WINDOW$                    VD_FORCE_READ_FROM
     VD_LAST_CWIN_ACTIVITY                 VD_CMD_OBJECTS$                  r    B$XL_UPPER$
     VD_COMMAND_LINE                       VD_ASYM                               VD_WORST_FLAGLEV
     VD_EDITING_HEIGHT                     VD_EDITING_WINDOWS                    VD_IBEX_WINDOW
     VD_OLD_$SCREEN                        M$6E                                  M$ME
     M$SI                                  VD_$$QUAC                             VD_$SCREEN
     VD_$COMMAND                           VD_$MIN_COMMAND                       B_VECTNIL

  ****  Segment refs  ****

  Flags:  r = read only, s = secondary
Flgs Name                             Flgs Name                             Flgs Name
     ROSID                                 ISSID
PL6.E3A0      #001=VDI$PDRIVER File=VDI$PARSE.:VDA5TSI                           FRI 07/04/97 11:33 Page:43


        1        1        /*M* VDI$PARSE - Read and parse commands for 6Edit */
        2        2        /*T***********************************************************/
        3        3        /*T*                                                         */
        4        4        /*T* Copyright (c) Bull HN Information Systems Inc., 1997    */
        5        5        /*T*                                                         */
        6        6        /*T***********************************************************/
        7        7
        8        8        /*X* MCR=NO, DMC=YES */
        9        9        /*T*/
       10       10
       11       11        /*P* NAME: VDI$PARSE
       12       12            PURPOSE: Read and parse commands for the Interpreter.
       13       13            DESCRIPTION:
       14       14                This module contains several external routines:
       15       15
       16       16                VDI$PDRIVER
       17       17                Gets command lines, parses them, and calls the appropriate Command
       18       18                Processor.
       19       19        *N*     Handles omitted block expressions, substituting and parsing the
       20       20        *N*     appropriate $DEFAULT_ name.
       21       21
       22       22                VDI$PARSE_TREE_TO_INTREE
       23       23                Converts one %T_xxx_CMD node of a parse tree into a (chain of) Intree
       24       24                node(s).
       25       25
       26       26                VDI$PGET_COMMAND_RECORD
       27       27                XUG$GETCMD calls VDI$PGET_COMMAND_RECORD to read a command
       28       28                record from the current command stream.
       29       29                GET_COMMAND_RECORD does the following to the command record:
       30       30        *N*         o If $ECHO is on, echos the record to M$DO.
       31       31                    o Replaces all synonyms in the record with their value.
       32       32
       33       33                VDI$PREAD_FILE
       34       34                Performs all I/O on a READ-file, using Fast Sequential services.
       35       35                This routine contains four entry-points:
       36       36                    VDI$PREAD_FILE_OPEN:  Open a READ-file.
PL6.E3A0      #001=VDI$PDRIVER File=VDI$PARSE.:VDA5TSI                           FRI 07/04/97 11:33 Page:44
       37       37                    VDI$PREAD_FILE_POSITION:  Position in a READ-file.
       38       38                    VDI$PREAD_FILE_READ:  Read a command line from a READ-file.
       39       39                    VDI$PREAD_FILE_CLOSE:  Close a READ-file.
       40       40
       41       41                VDI$PUSER_PARSE_RTN
       42       42                When X$PARSE parses a node declared with the SUCC, FAIL, or PRE
       43       43                options, it will call VDI$PUSER_PARSE_RTN to do any parse-twiddling
       44       44                necessary.  All SUCC nodes in the syntax are OUT$SYM nodes containing
       45       45                names, which must be verified in various ways.  This routine verifies
       46       46                the names, and accepts or rejects them when it returns to X$PARSE.
       47       47
       48       48                VDI$PGLOBAL_COMMANDS
       49       49                This routine is called by XUG$GETCMD just before it executes
       50       50                a globally-recognized command (ie, DIRECTORY, DO, PRINT, ERASE, TIME,
       51       51                DATE, HELP, !, ?, ??, END, QUIT, EXIT).
       52       52                For some of these commands, we guarantee that the command
       53       53                window is popped-up (expanded) before they execute.
       54       54                We sidetrack the END/QUIT/EXIT commands to our own handler.
       55       55
       56       56                VDI$PREMOVE_EDIT_BLOCK
       57       57                When an explicit or implicit EDIT operation fails, we must go to a
       58       58                state of having no EditBlock open for editing.  This routine cleans
       59       59                up the mess.
       60       60        */
       61       61
       62       62        /*D* NAME: VDI$PDRIVER
       63       63            PARAMETERS:
       64       64                None.
       65       65            INPUT:
       66       66                VD_6E.CMD_STREAM$ - Ptr to top VD$CMD_STREAM on stack of such
       67       67                    structures.  The top entry describes the current command
       68       68                    stream:  either a READ-file, the command window, or
       69       69                    a one-shot buffer (for invocation command line, etc.).
       70       70                    (Encoded workspace files are processed by the READ command
       71       71                    processor, and so are never seen directly by VDI$PDRIVER.)
       72       72                    VD$CMD_STREAM.INTREE$ points to an InTree representing the current
       73       73                    command line; if it's NIL, then VD$CMD_STREAM.RECORD$ points to a
PL6.E3A0      #001=VDI$PDRIVER File=VDI$PARSE.:VDA5TSI                           FRI 07/04/97 11:33 Page:45
       74       74                    VD$BUFFER containing the current command line in character form.
       75       75                    The lower entries in the stack represent command streams
       76       76                    interrupted by a READ command.
       77       77                    When the current command stream is not the command window,
       78       78                    we always read from that command stream rather than any
       79       79                    editing window.
       80       80                VD_CURRENT_WINDOW$ - Ptr to VD$FILE_NODE at level 1 of the
       81       81                    Windows file, for the current editing window.  May be NIL;
       82       82                    if not NIL, it still may not be editing anything (no current
       83       83                    EditBlock).
       84       84                VD_COMMAND_WINDOW$ - Ptr to VD$FILE_NODE at level 1 of the
       85       85                    Windows file, for the command window.  There must
       86       86                    be such a window at all times (after initialization), tho it
       87       87                    may at times be "invisible", ie, have a height of 0 lines.
       88       88                VD_$COMMAND - A VD$NUMBER for the predefined name "$COMMAND".
       89       89                    If the value of this name is true, we'll always read from the
       90       90                    command window, until $COMMAND is set false.
       91       91                VD_$MAX_COMMAND - A VD$NUMBER for the predefined name "$MAX_COMMAND".
       92       92                    The value of this name is the number of lines in the largest
       93       93                    command window (ie, when displaying messages, or doing HELP or
       94       94                    other "freebie" commands).
       95       95                VD_$MIN_COMMAND - A VD$NUMBER for the predefined name "$MIN_COMMAND".
       96       96                    The value of this name is the number of lines in the smallest
       97       97                    command window.  If this value is less than
       98       98                    %DFLT_$MIN_COMMAND, we'll use %DFLT_$MIN_COMMAND instead.
       99       99                VD_$SCREEN - A VD$NUMBER for the predefined name "$SCREEN".  The value
      100      100                    of this name is the number of lines of the terminal screen which
      101      101                    the user allows 6Edit to use.  A value less than
      102      102                    %MN_SCREEN_EDITING_HEIGHT specifies that we're not screen editing.
      103      103        *N*     Following paragraph de-implemented due to star 25801:
      104      104        *N*     VD_2DIM - Bit-flag saying if we're actually screen editing or not.
      105      105        *N*         Modifies the meaning of VD_$SCREEN.V#:  if VD_$SCREEN says to
      106      106        *N*         screen edit, well, we're really only screen editing if VD_2DIM
      107      107        *N*         is also set.
      108      108        *N*     VD_$DEFAULT_SOURCE - a VD$BUFFER for the predefined
      109      109        *N*         name "$DEFAULT_SOURCE".  The value of this name
      110      110        *N*         must be a block expression.  Value's length may be 0.
PL6.E3A0      #001=VDI$PDRIVER File=VDI$PARSE.:VDA5TSI                           FRI 07/04/97 11:33 Page:46
      111      111        *N*     VD_$DEFAULT_DESTINATION - a VD$BUFFER for the predefined
      112      112        *N*         name "$DEFAULT_DESTINATION".  The value of this
      113      113        *N*         name must be a block expression.  Value's length may be 0.
      114      114                XUG_GETCMD - Control block for XUG$GETCMD.
      115      115            OUTPUT:
      116      116                None.  (This routine never "returns".  At the end of the session,
      117      117                    we'll get to VDG$MTERMINATE indirectly, via VDI$CEND or
      118      118                    VDG$EREPORT_ERROR or a trap to VDG$ETRAP.)
      119      119            DESCRIPTION:
      120      120                This is the "top of the loop".  Processing a fatal error
      121      121                    or an END command will get us out of this loop:
      122      122                If $COMMAND is not set (or if the previous command read ended with
      123      123                    EOM_NEXT_ED_WINDOW), and the current command stream is
      124      124                    the command window, and there is a current editing
      125      125                    window, and that window has an open EditBlock currently,
      126      126                    and we didn't just write an error message to the command
      127      127                    window, then call VDP$WREAD to read from the current
      128      128                    editing window.  On return from VDP$WREAD, the Presenter
      129      129                    will have told us a new window to read from:  if it's an
      130      130                    editing window, make that the new current window, and go
      131      131                    to the top of the loop again (check $COMMAND, etc); if
      132      132                    it's the command window or if it's an editing window which
      133      133                    isn't currently editing a file (no EditBlock), fall thru
      134      134                    to the next step to read from the command window.
      135      135                Call XUG$GETCMD to read and parse a command line.
      136      136                    The READR (read record) routine called by XUG$GETCMD will
      137      137                    see if the command stream is a workspace file, and if so,
      138      138                    will call VDW$LOAD to load the entire workspace file; it will
      139      139                    then pop the command stream stack and read from the previous
      140      140                    command stream; this will continue until we get a
      141      141                    text record containing a parsable command (or one which is
      142      142                    empty).
      143      143                GETCMD will then parse the record.  The parse tree for each
      144      144                    command will either contain a %T_xxx_CMD node or not:  the
      145      145                    presence of a %T_xxx_CMD node implies that the entire block
      146      146                    expression is given in this one command, whereas the absence
      147      147                    of a %T_xxx_CMD node (absence of an editing verb before
PL6.E3A0      #001=VDI$PDRIVER File=VDI$PARSE.:VDA5TSI                           FRI 07/04/97 11:33 Page:47
      148      148                    a block expression) implies that the user is in the process
      149      149                    of finding or selecting a block, so don't do anything to
      150      150                    the block yet, just evaluate the new selection.
      151      151                If this is an editing command:
      152      152                    Call VDE$PBLOCK_EXPR to convert the ParseTree to an InTree.
      153      153                    Call VDE$IOPEN[_SOURCE] to setup the operand for the first
      154      154                        call to VDE$IRANGE, and (for non-source operands) to
      155      155                        open the stream to the correct file (if it isn't yet).
      156      156                If there is a T_xxx_CMD node in the command, call the
      157      157                    appropriate command processor (VDI$Cxxx).
      158      158                Else (if there is no T_xxx_CMD node in the command) call
      159      159                    VDE$IRANGE to evaluate the block expression.
      160      160                Discard all entries on the evaluation stack of the current
      161      161                    editing window, except the top entry.
      162      162                Discard the InTree.
      163      163        */
      164      164
      165      165        VDI$PDRIVER: PROC ALTRET;

    165  6 000000   000000 700200 xent  VDI$PDRIVER  TSX0  ! X66_AUTO_0
         6 000001   000100 000000                    ZERO    64,0

      166      166
      167      167        %INCLUDE VD_MACROS_M;
      168     2382        %INCLUDE VD_PERR_C;
      169     2530        %INCLUDE VD_NODES0_E;
      170     2622        %INCLUDE XU_MACRO_C;
      171     5716        %INCLUDE XUE_SUBS_C;
      172     5896        %INCLUDE XUG_ENTRY;
      173     5927        %INCLUDE CP_6;
      174     6008        %INCLUDE B$TABLES_C;
      175     6116
      176     6117
      177     6118    1   DCL VDP$NFLUSH              ENTRY (1) ALTRET;
      178     6119    1   DCL VDP$WERASE              ENTRY (1) ALTRET;
      179     6120    1   DCL VDP$WREAD               ENTRY (3) ALTRET;
      180     6121    1   DCL VDA$LDELETE             ENTRY (2) ALTRET;
PL6.E3A0      #001=VDI$PDRIVER File=VDI$PARSE.:VDA5TSI                           FRI 07/04/97 11:33 Page:48
      181     6122    1   DCL VDA$LWRITE              ENTRY (4) ALTRET;
      182     6123    1   DCL VDA$PFLUSH              ENTRY (2) ALTRET;
      183     6124    1   DCL VDI$PARSE_TREE_TO_INTREE    ENTRY (3) ALTRET;
      184     6125    1   DCL VDI$PREMOVE_EDIT_BLOCK  ENTRY ALTRET;
      185     6126    1   DCL VDI$PREAD_FILE_CLOSE    ENTRY ALTRET;
      186     6127    1   DCL VDI$PREAD_FILE_OPEN     ENTRY ALTRET;
      187     6128    1   DCL VDI$PREAD_FILE_POSITION ENTRY ALTRET;
      188     6129    1   DCL VDE$PBLOCK_EXPR         ENTRY (1) ALTRET;
      189     6130    1   DCL VDE$PSTRING             ENTRY (5) ALTRET;
      190     6131    1   DCL VDE$PNUMBER             ENTRY (2) ALTRET;
      191     6132    1   DCL VDE$IOPEN               ENTRY ALTRET;
      192     6133    1   DCL VDE$IRANGE              ENTRY (2) ALTRET;
      193     6134    1   DCL VDG$SHRINK_COMMAND_WINDOW ENTRY (1) ALTRET;
      194     6135    1   DCL VDG$EXPAND_COMMAND_WINDOW ENTRY (1) ALTRET;
      195     6136    1   DCL VDG$OALLOC              ENTRY (3) ALTRET;
      196     6137    1   DCL VDG$OFREE               ENTRY (1) ALTRET;
      197     6138    1   DCL VDG$OCOPY               ENTRY (2) ALTRET;
      198     6139    1   DCL VDG$OCOPY_RANGE         ENTRY (2) ALTRET;
      199     6140    1   DCL VDG$EREPORT_ERROR       ENTRY (1);
      200     6141    1   DCL VDG$ESCREECH            ENTRY (3);
      201     6142    1   DCL VDP$WINIT               ENTRY ALTRET;
      202     6143
      203     6144
      204     6145    1   DCL VDI$CEDIT           ENTRY ALTRET;
      205     6146    1   DCL VDI$CDISPLAY        ENTRY ALTRET;
      206     6147    1   DCL VDI$CCOPY           ENTRY ALTRET;
      207     6148    1   DCL VDI$CMOVE           ENTRY ALTRET;
      208     6149    1   DCL VDI$CAFTER          ENTRY ALTRET;
      209     6150    1   DCL VDI$COVER           ENTRY ALTRET;
      210     6151    1   DCL VDI$CDELETE         ENTRY ALTRET;
      211     6152    1   DCL VDI$CDELETE_FID     ENTRY ALTRET;
      212     6153    1   DCL VDI$CEQUALS         ENTRY (1) ALTRET;
      213     6154    1   DCL VDI$CEND            ENTRY (1) ALTRET;
      214     6155    1   DCL VDI$CKEYIN          ENTRY (1) ALTRET;
      215     6156    1   DCL VDI$CLOCATION       ENTRY (1) ALTRET;
      216     6157    1   DCL VDI$CREAD           ENTRY (1) ALTRET;
      217     6158    1   DCL VDI$CRESTORE        ENTRY (1) ALTRET;
PL6.E3A0      #001=VDI$PDRIVER File=VDI$PARSE.:VDA5TSI                           FRI 07/04/97 11:33 Page:49
      218     6159    1   DCL VDI$CSAVE           ENTRY (1) ALTRET;
      219     6160    1   DCL VDI$CSHOW           ENTRY ALTRET;
      220     6161    1   DCL VDI$CSYNONYM        ENTRY (1) ALTRET;
      221     6162
      222     6163
      223     6164        %VD_6E (STCLASS=SYMREF);
      224     6200        %XUG_GETCMD (NAME=XUG_GETCMD, STCLASS=SYMREF);
      225     6538    1   DCL VD_CURRENT_WINDOW$ PTR SYMREF;
      226     6539    1   DCL VD_COMMAND_WINDOW$ PTR SYMREF;
      227     6540    1   DCL VD_2DIM BIT(1) ALIGNED SYMREF;
      228     6541    1   DCL VD_FORCE_READ_FROM UBIN SYMREF;
      229     6542    1   DCL VD_LAST_CWIN_ACTIVITY UBIN SYMREF;
      230     6543    1   DCL VD_CMD_OBJECTS$ (0:%(MX_CMD_OBJECTS-1)) PTR SYMREF;
      231     6544        %B$XL_UPPER;
      232     6548    1   DCL VD_COMMAND_LINE SBIN SYMREF;    /* Parse nodes */
      233     6549    1   DCL VD_ASYM UBIN SYMREF;
      234     6550    1   DCL VD_WORST_FLAGLEV SBIN SYMREF;
      235     6551    1   DCL VD_EDITING_HEIGHT SBIN SYMREF;
      236     6552    1   DCL VD_EDITING_WINDOWS SBIN SYMREF;
      237     6553    1   DCL VD_IBEX_WINDOW SBIN SYMREF;
      238     6554    1   DCL VD_OLD_$SCREEN SBIN SYMREF;
      239     6555    1   DCL VD_SCREEN_HEIGHT SBIN SYMREF;
      240     6556    1   DCL M$6E DCB;
      241     6557    1   DCL M$ME DCB;
      242     6558    1   DCL M$SI DCB;
      243     6559        %VD$NUMBER (NAME=VD_$$QUAC, STCLASS=SYMREF);
      244     6604        %VD$NUMBER (NAME=VD_$SCREEN, STCLASS=SYMREF);
      245     6649        %VD$NUMBER (NAME=VD_$COMMAND, STCLASS=SYMREF);
      246     6694        %VD$NUMBER (NAME=VD_$MIN_COMMAND, STCLASS=SYMREF);
      247     6739        %VD$NUMBER (NAME=VD_$MAX_COMMAND, STCLASS=SYMREF);
      248     6784
      249     6785
      250     6786
      251     6787    1   DCL ACTCHR UBIN BYTE CALIGNED;
      252     6788    1   DCL ED_WINDOW_NODE$ PTR;
      253     6789    1   DCL CAN_READ_EDITING_WINDOW BIT(1) ALIGNED;
      254     6790    1   DCL CURR_WINDOW$ PTR;
PL6.E3A0      #001=VDI$PDRIVER File=VDI$PARSE.:VDA5TSI                           FRI 07/04/97 11:33 Page:50
      255     6791    1   DCL IT_COMMAND$ PTR;
      256     6792    1   DCL PREV_IT_COMMAND$ PTR;
      257     6793    1   DCL COMMAND_LINE$ PTR;
      258     6794    1   DCL CL_INDEX UBIN;
      259     6795    1   DCL GOT_WREAD_ERROR BIT(1) ALIGNED;
      260     6796    1   DCL WARN_ABORTED_BUFFER BIT(1) ALIGNED;
      261     6797    1   DCL ERR_FLAGLEV UBIN;
      262     6798    1   DCL VD_ERR$ PTR;
      263     6799    1   DCL SUBST_FIELD$ PTR;
      264     6800        %VD$ERR_CODE (NAME=ERR_CODE, STCLASS=AUTO);
      265     6815    1   DCL INDX SBIN;
      266     6816    1   DCL CMD_RECORD$ PTR;
      267     6817    1   DCL SINK$ PTR;
      268     6818
      269     6819
      270     6820        %VD$WINDOW_SPEC (NAME=CURR$WINDOW, STCLASS="BASED(CURR_WINDOW$)");
      271     6886        %VD$IT_COMMAND (NAME=IT$COMMAND, STCLASS="BASED(IT_COMMAND$)");
      272     6924        %VD$IT_COMMAND (NAME=PREV$IT_COMMAND, STCLASS="BASED(PREV_IT_COMMAND$)");
      273     6962        %VD$CMD_STREAM (NAME=CMD$STREAM, STCLASS="BASED(VD_6E.CMD_STREAM$)");
      274     7001        %VD$STREAM (NAME=WINDOWS$STREAM, STCLASS="BASED(VD_6E.WINDOWS$)");
      275     7107        %VD$BUFFER (NAME=CMD$RECORD, STCLASS="BASED(CMD_RECORD$)");
      276     7165        %PARSE$OUT (NAME=COMMAND$LINE, STCLASS="BASED(COMMAND_LINE$)");
      277     7210        %VD$ERR (NAME=VD$ERR, STCLASS="BASED(VD_ERR$)");
      278     7263        %VD$ERR (NAME=FATAL$ERR, STCLASS="BASED(VD_6E.ERR_HEAD$)");
      279     7316        %VD$ERR (NAME=VD$ERR_TAIL, STCLASS="BASED(VD_6E.ERR_TAIL$)");
      280     7369        %VD$NUMBER (NAME=SUBST$NUMBER, DIM="(0:2)", STCLASS="BASED(SUBST_FIELD$)");
      281     7414        %VD$POINTER (NAME=SUBST$POINTER, DIM="(0:2)", STCLASS="BASED(SUBST_FIELD$)");
      282     7459        %VD$FILE_NODE;
      283     7552        %VD$BUFFER;
      284     7610        %VD$IT_BLOCK_EXPR;
      285     7760        %VD$PORT;
      286     7858        %VD$EVAL;
      287     8103        %VD$FILE_KEY;
      288     8152        %VD$IT_ADJUST (NAME=IT$ADJUST);
      289     8189        %VD$IT_OPERAND (NAME=IT$OPERAND);
      290     8255        %VD$IT_SELECT (NAME=IT$SELECT);
      291     8292        %VD$KEY_NUMBER;
PL6.E3A0      #001=VDI$PDRIVER File=VDI$PARSE.:VDA5TSI                           FRI 07/04/97 11:33 Page:51
      292     8307        %VD$NUMBER;
      293     8352        %VD$STREAM;
      294     8458        %VD$TEXTC_REMOTE;
      295     8519        %P_PCB (NAME=P$PCB, STCLASS=BASED);
      296     8718        %F$DCB;
      297     8775
      298     8776
      299     8777                %BOX (TITLE="Driver Loop");

              8789    1   /***************************************************************************
              8791    1    *                                                                         *
              8795    1            *                                Driver Loop                             *
              8797    1            *                                                                        *
              8799    1          ***************************************************************************/

      300     8803
      301     8804                /*
      302     8805                *   How globals are used to save the current state:
      303     8806                *   VD_$COMMAND.V# - If true, then user wants to keep reading
      304     8807                *       from the command window, not the current editing
      305     8808                *       window.  If false, then we keep reading from the
      306     8809                *       current editing window until the user explicitly
      307     8810                *       moves to the command window (which VDP$WREAD signals
      308     8811                *       by returning a nil new-editing-window pointer).
      309     8812                *       Note that even if we don't read from the command
      310     8813                *       window, we must check the value of VD_$COMMAND.V#
      311     8814                *       each time thru the loop, 'cause the user may change
      312     8815                *       it's value via an editing window open to the
      313     8816                *       Equals-file.
      314     8817                */
      315     8818
      316     8819    1           VD_FORCE_READ_FROM = %RF_DONT_CARE;

   8819  6 000002   000000 450000 xsym               STZ     VD_FORCE_READ_FROM

      317     8820    1           ACTCHR = %EOM_NORMAL;

PL6.E3A0      #001=VDI$PDRIVER File=VDI$PARSE.:VDA5TSI                           FRI 07/04/97 11:33 Page:52
   8820  6 000003   015000 236003                    LDQ     6656,DU
         6 000004   200003 756100                    STQ     ACTCHR,,AUTO

      318     8821    1           IF VD_WORST_FLAGLEV >= %FLV_SERIOUS THEN GOTO CLEAN_UP;

   8821  6 000005   000000 235000 xsym               LDA     VD_WORST_FLAGLEV
         6 000006   000003 115007                    CMPA    3,DL
         6 000007   000522 605000 6                  TPL     SHRINK_COMMAND_WINDOW_FAILED

      319     8822        /* Flush any stored commands if a pre-encoded context file failed */
      320     8823
      321     8824    1   FOREVER_LOOP:
      322     8825    2           DO %FOREVER;        /* END cmd or fatal error gets us out */

   8825  6 000010                       FOREVER_LOOP null
      323     8826    2              CAN_READ_EDITING_WINDOW = %FALSE;

   8826  6 000010   200005 450100                    STZ     CAN_READ_EDITING_WINDOW,,AUTO

      324     8827    2              ED_WINDOW_NODE$ = VD_CURRENT_WINDOW$;

   8827  6 000011   000000 236000 xsym               LDQ     VD_CURRENT_WINDOW$
         6 000012   200004 756100                    STQ     ED_WINDOW_NODE$,,AUTO

      325     8828    3              IF ED_WINDOW_NODE$ ~= ADDR(NIL) THEN DO;

   8828  6 000013   000001 116000 xsym               CMPQ    B_VECTNIL+1
         6 000014   000044 600000 6                  TZE     s:8842

      326     8829    4                 IF ACTCHR = %EOM_NEXT_ED_WINDOW THEN DO;

   8829  6 000015   200003 236100                    LDQ     ACTCHR,,AUTO
         6 000016   777000 376003                    ANQ     -512,DU
         6 000017   016000 116003                    CMPQ    7168,DU
         6 000020   000035 601000 6                  TNZ     s:8837

      327     8830    4                    ED_WINDOW_NODE$ = ED_WINDOW_NODE$->VD$FILE_NODE.FLINK$;
PL6.E3A0      #001=VDI$PDRIVER File=VDI$PARSE.:VDA5TSI                           FRI 07/04/97 11:33 Page:53

   8830  6 000021   200004 470500                    LDP0    ED_WINDOW_NODE$,,AUTO
         6 000022   000002 236100                    LDQ     2,,PR0
         6 000023   200004 756100                    STQ     ED_WINDOW_NODE$,,AUTO

      328     8831    4                    IF ED_WINDOW_NODE$ = ADDR(NIL) THEN

   8831  6 000024   000001 116000 xsym               CMPQ    B_VECTNIL+1
         6 000025   000034 601000 6                  TNZ     s:8835

      329     8832    4                       ED_WINDOW_NODE$ = VD_6E.WINDOWS$ -> VD$STREAM.PORT$ ->

   8832  6 000026   000006 470400 xsym               LDP0    VD_6E+6
         6 000027   000001 471500                    LDP1    1,,PR0
         6 000030   100031 473500                    LDP3    25,,PR1
         6 000031   300012 474500                    LDP4    10,,PR3
         6 000032   400002 236100                    LDQ     2,,PR4
         6 000033   200004 756100                    STQ     ED_WINDOW_NODE$,,AUTO

      330     8833    4                         VD$PORT.LEVEL.INTERNAL$(%LVL_FILE) ->
      331     8834    4                         VD$FILE_NODE.HEAD$ -> VD$FILE_NODE.FLINK$;
      332     8835    4                    VD_CURRENT_WINDOW$ = ED_WINDOW_NODE$;

   8835  6 000034   000000 756000 xsym               STQ     VD_CURRENT_WINDOW$

      333     8836    4                    END;

      334     8837    3                 IF ED_WINDOW_NODE$->VD$FILE_NODE.DESC.SPEC.V$->

   8837  6 000035   200004 470500                    LDP0    ED_WINDOW_NODE$,,AUTO
         6 000036   000007 471500                    LDP1    7,,PR0
         6 000037   100012 236100                    LDQ     10,,PR1
         6 000040   000001 116000 xsym               CMPQ    B_VECTNIL+1
         6 000041   000044 600000 6                  TZE     s:8842

      335     8838    3                   CURR$WINDOW.OPERAND.EDIT_BLOCK$ ~= ADDR(NIL) THEN
      336     8839    3                    CAN_READ_EDITING_WINDOW = %TRUE;
PL6.E3A0      #001=VDI$PDRIVER File=VDI$PARSE.:VDA5TSI                           FRI 07/04/97 11:33 Page:54

   8839  6 000042   400000 236003                    LDQ     -131072,DU
         6 000043   200005 756100                    STQ     CAN_READ_EDITING_WINDOW,,AUTO

      337     8840    3                 END;

      338     8841
      339     8842    2              IF CAN_READ_EDITING_WINDOW THEN

   8842  6 000044   200005 234100                    SZN     CAN_READ_EDITING_WINDOW,,AUTO
         6 000045   000146 605000 6                  TPL     s:8885

      340     8843    2   READ_EDITING_WINDOW:
      341     8844    3              DO WHILE (VD_$COMMAND.V# <= 0

   8844  6 000046   000126 710000 6     READ_EDITIN* TRA     s:8879

      342     8845    3                OR VD_FORCE_READ_FROM = %RF_EDITING_WINDOW)
      343     8846    3                AND (CMD$STREAM.TYPE# = %CS_ME)
      344     8847    3                AND (ED_WINDOW_NODE$ ~= ADDR(NIL))
      345     8848    3                AND (VD_FORCE_READ_FROM ~= %RF_COMMAND_WINDOW);
      346     8849    3                 CURR_WINDOW$ = ED_WINDOW_NODE$->VD$FILE_NODE.DESC.SPEC.V$;

   8849  6 000047   200004 470500                    LDP0    ED_WINDOW_NODE$,,AUTO
         6 000050   000007 236100                    LDQ     7,,PR0
         6 000051   200006 756100                    STQ     CURR_WINDOW$,,AUTO

      347     8850    3                 IF CURR$WINDOW.OPERAND.EDIT_BLOCK$ = ADDR(NIL) THEN

   8850  6 000052   200006 471500                    LDP1    CURR_WINDOW$,,AUTO
         6 000053   100012 236100                    LDQ     10,,PR1
         6 000054   000001 116000 xsym               CMPQ    B_VECTNIL+1
         6 000055   000145 600000 6                  TZE     s:8879+15

      348     8851    3                    EXIT READ_EDITING_WINDOW;
      349     8852    3                 IF CURR$WINDOW.COMMAND THEN

PL6.E3A0      #001=VDI$PDRIVER File=VDI$PARSE.:VDA5TSI                           FRI 07/04/97 11:33 Page:55
   8852  6 000056   100002 236100                    LDQ     2,,PR1
         6 000057   000400 316003                    CANQ    256,DU
         6 000060   000064 600000 6                  TZE     s:8855

      350     8853    3                    CALL VDG$ESCREECH;

   8853  6 000061   000002 631400 xsym               EPPR1   B_VECTNIL+2
         6 000062   000000 701000 xent               TSX1    VDG$ESCREECH
         6 000063   000000 011000                    NOP     0

      351     8854
      352     8855    4                 IF DCBADDR (CURR$WINDOW.DCB#) -> F$DCB.FCD# THEN DO;

   8855  6 000064   000000 470400 7                  LDP0    0
         6 000065   000000 471500                    LDP1    0,,PR0
         6 000066   200006 473500                    LDP3    CURR_WINDOW$,,AUTO
         6 000067   300014 720100                    LXL0    12,,PR3
         6 000070   100000 474510                    LDP4    0,X0,PR1
         6 000071   400031 236100                    LDQ     25,,PR4
         6 000072   020000 316007                    CANQ    8192,DL
         6 000073   000104 600000 6                  TZE     s:8872

      353     8856
      354     8857                      /* Pop-down (shrink) the command window */
      355     8858    4                    CALL VDG$SHRINK_COMMAND_WINDOW (VD_$MIN_COMMAND.V#)

   8858  6 000074   000001 630400 7                  EPPR0   1
         6 000075   000017 631400 xsym               EPPR1   B_VECTNIL+15
         6 000076   000000 701000 xent               TSX1    VDG$SHRINK_COMMAND_WINDOW
         6 000077   000522 702000 6                  TSX2    SHRINK_COMMAND_WINDOW_FAILED

      356     8859    4                      ALTRET (SHRINK_COMMAND_WINDOW_FAILED);
      357     8860
      358     8861                      /*
      359     8862                      *   Flush keyins, etc (but NOT edwin updates) to the terminal.
      360     8863                      *     (The call to VDP$WREAD will do an M$READ which will cause
      361     8864                      *     the FEP to update the editing windows.  If we also flush
PL6.E3A0      #001=VDI$PDRIVER File=VDI$PARSE.:VDA5TSI                           FRI 07/04/97 11:33 Page:56
      362     8865                      *     screen updates here, we'll M$DEVICE before the M$READ
      363     8866                      *     unnecessarily).
      364     8867                      */
      365     8868    4                    CALL VDP$NFLUSH (%FALSE)

   8868  6 000100   000002 630400 7                  EPPR0   2
         6 000101   000017 631400 xsym               EPPR1   B_VECTNIL+15
         6 000102   000000 701000 xent               TSX1    VDP$NFLUSH
         6 000103   000522 702000 6                  TSX2    SHRINK_COMMAND_WINDOW_FAILED

      366     8869    4                      ALTRET (NFLUSH_FAILED);
      367     8870    4                    END;

      368     8871
      369     8872    3                 VD_LAST_CWIN_ACTIVITY = %LCA_SWITCH;

   8872  6 000104   000004 235007                    LDA     4,DL
         6 000105   000000 755000 xsym               STA     VD_LAST_CWIN_ACTIVITY

      370     8873    3                 CALL VDP$WREAD (ED_WINDOW_NODE$, ACTCHR, %TO_PRESENTER)

   8873  6 000106   000002 236000 7                  LDQ     2
         6 000107   200076 756100                    STQ     WLOC+21,,AUTO
         6 000110   200003 630500                    EPPR0   ACTCHR,,AUTO
         6 000111   200075 450500                    STP0    WLOC+20,,AUTO
         6 000112   200004 631500                    EPPR1   ED_WINDOW_NODE$,,AUTO
         6 000113   200074 451500                    STP1    WLOC+19,,AUTO
         6 000114   200074 630500                    EPPR0   WLOC+19,,AUTO
         6 000115   000021 631400 xsym               EPPR1   B_VECTNIL+17
         6 000116   000000 701000 xent               TSX1    VDP$WREAD
         6 000117   000425 702000 6                  TSX2    WREAD_FAILED

      371     8874    3                   ALTRET (WREAD_FAILED);
      372     8875    3                 ACTCHR = %EOM_NORMAL;

   8875  6 000120   015000 236003                    LDQ     6656,DU
         6 000121   200003 756100                    STQ     ACTCHR,,AUTO
PL6.E3A0      #001=VDI$PDRIVER File=VDI$PARSE.:VDA5TSI                           FRI 07/04/97 11:33 Page:57

      373     8876
      374     8877    3                 IF ED_WINDOW_NODE$ ~= ADDR(NIL) THEN

   8877  6 000122   200004 236100                    LDQ     ED_WINDOW_NODE$,,AUTO
         6 000123   000001 116000 xsym               CMPQ    B_VECTNIL+1
         6 000124   000126 600000 6                  TZE     s:8879

      375     8878    3                    VD_CURRENT_WINDOW$ = ED_WINDOW_NODE$;

   8878  6 000125   000000 756000 xsym               STQ     VD_CURRENT_WINDOW$

      376     8879    3                 END READ_EDITING_WINDOW;

   8879  6 000126   000003 235000 xsym               LDA     VD_$COMMAND+3
         6 000127   000133 604400 6                  TMOZ    s:8879+5
         6 000130   000000 236000 xsym               LDQ     VD_FORCE_READ_FROM
         6 000131   000002 116007                    CMPQ    2,DL
         6 000132   000145 601000 6                  TNZ     s:8879+15
         6 000133   000026 470400 xsym               LDP0    VD_6E+22
         6 000134   000002 220100                    LDX0    2,,PR0
         6 000135   000002 100003                    CMPX0   2,DU
         6 000136   000145 601000 6                  TNZ     s:8879+15
         6 000137   200004 236100                    LDQ     ED_WINDOW_NODE$,,AUTO
         6 000140   000001 116000 xsym               CMPQ    B_VECTNIL+1
         6 000141   000145 600000 6                  TZE     s:8879+15
         6 000142   000000 235000 xsym               LDA     VD_FORCE_READ_FROM
         6 000143   000001 115007                    CMPA    1,DL
         6 000144   000047 601000 6                  TNZ     s:8849
         6 000145   000156 710000 6                  TRA     s:8897

      377     8880    3              ELSE DO;

      378     8881                      /*
      379     8882                      *  We're not reading from the editing window -- so flush
      380     8883                      *    everything (including edwin updates) to the terminal.
      381     8884                      */
PL6.E3A0      #001=VDI$PDRIVER File=VDI$PARSE.:VDA5TSI                           FRI 07/04/97 11:33 Page:58
      382     8885    3                 IF CMD$STREAM.TYPE# = %CS_ME THEN

   8885  6 000146   000026 470400 xsym               LDP0    VD_6E+22
         6 000147   000002 220100                    LDX0    2,,PR0
         6 000150   000002 100003                    CMPX0   2,DU
         6 000151   000156 601000 6                  TNZ     s:8897

      383     8886    3                    CALL VDP$NFLUSH (%TRUE)

   8886  6 000152   000003 630400 7                  EPPR0   3
         6 000153   000017 631400 xsym               EPPR1   B_VECTNIL+15
         6 000154   000000 701000 xent               TSX1    VDP$NFLUSH
         6 000155   000522 702000 6                  TSX2    SHRINK_COMMAND_WINDOW_FAILED

      384     8887    3                      ALTRET (NFLUSH_FAILED);
      385     8888    3                 END;

      386     8889
      387     8890
      388     8891                   /*
      389     8892                   *  Read from the command window.
      390     8893                   *  First, expand the command window to its minimum height.
      391     8894                   *     (It may have been shrunk to 0 lines.)
      392     8895                   */
      393     8896
      394     8897    2              VD_FORCE_READ_FROM = %RF_DONT_CARE;

   8897  6 000156   000000 450000 xsym               STZ     VD_FORCE_READ_FROM

      395     8898    2              IF (VD_$MIN_COMMAND.V#>0) THEN

   8898  6 000157   000003 235000 xsym               LDA     VD_$MIN_COMMAND+3
         6 000160   000166 604400 6                  TMOZ    s:8902

      396     8899    2                 CALL VDG$EXPAND_COMMAND_WINDOW (VD_$MIN_COMMAND.V#)

   8899  6 000161   000001 630400 7                  EPPR0   1
PL6.E3A0      #001=VDI$PDRIVER File=VDI$PARSE.:VDA5TSI                           FRI 07/04/97 11:33 Page:59
         6 000162   000017 631400 xsym               EPPR1   B_VECTNIL+15
         6 000163   000000 701000 xent               TSX1    VDG$EXPAND_COMMAND_WINDOW
         6 000164   000522 702000 6                  TSX2    SHRINK_COMMAND_WINDOW_FAILED
         6 000165   000172 710000 6                  TRA     s:8905

      397     8900    2                   ALTRET (EXPAND_COMMAND_WINDOW_FAILED);
      398     8901    2              ELSE
      399     8902    2                 CALL VDG$EXPAND_COMMAND_WINDOW (%DFLT_$MIN_COMMAND)

   8902  6 000166   000004 630400 7                  EPPR0   4
         6 000167   000017 631400 xsym               EPPR1   B_VECTNIL+15
         6 000170   000000 701000 xent               TSX1    VDG$EXPAND_COMMAND_WINDOW
         6 000171   000522 702000 6                  TSX2    SHRINK_COMMAND_WINDOW_FAILED

      400     8903    2                   ALTRET (EXPAND_COMMAND_WINDOW_FAILED);
      401     8904
      402     8905    2              XUG_GETCMD.NODES$ = ADDR(VD_COMMAND_LINE);

   8905  6 000172   000005 236000 7                  LDQ     5
         6 000173   000000 756000 xsym               STQ     XUG_GETCMD

      403     8906    2              CALL XUG$GETCMD (XUG_GETCMD)

   8906  6 000174   000006 630400 7                  EPPR0   6
         6 000175   000017 631400 xsym               EPPR1   B_VECTNIL+15
         6 000176   000000 701000 xent               TSX1    XUG$GETCMD
         6 000177   000201 702000 6                  TSX2    s:8908
         6 000200   000204 710000 6                  TRA     s:8911

      404     8907    3              WHENALTRETURN DO;

      405     8908    3                 VD_LAST_CWIN_ACTIVITY = %LCA_READ;

   8908  6 000201   000001 235007                    LDA     1,DL
         6 000202   000000 755000 xsym               STA     VD_LAST_CWIN_ACTIVITY

      406     8909    3                 GOTO GETCMD_FAILED;
PL6.E3A0      #001=VDI$PDRIVER File=VDI$PARSE.:VDA5TSI                           FRI 07/04/97 11:33 Page:60

   8909  6 000203   000454 710000 6                  TRA     GETCMD_FAILED

      407     8910    3                 END;
      408     8911    2              VD_LAST_CWIN_ACTIVITY = %LCA_READ;

   8911  6 000204   000001 235007                    LDA     1,DL
         6 000205   000000 755000 xsym               STA     VD_LAST_CWIN_ACTIVITY

      409     8912    2              IF XUG_GETCMD.NODES$ = ADDR(VD_ASYM) THEN

   8912  6 000206   000007 236000 7                  LDQ     7
         6 000207   000000 116000 xsym               CMPQ    XUG_GETCMD
         6 000210   000522 600000 6                  TZE     SHRINK_COMMAND_WINDOW_FAILED

      410     8913    2                 GOTO CLEAN_UP; /* Error occurred in GET_COMMAND_RECORD */
      411     8914    2              ACTCHR = ASCBIN(DCBADDR(XUG_GETCMD.INDCB#)->F$DCB.EOMCHAR#);

   8914  6 000211   000000 470400 7                  LDP0    0
         6 000212   000000 471500                    LDP1    0,,PR0
         6 000213   000012 720000 xsym               LXL0    XUG_GETCMD+10
         6 000214   100000 473510                    LDP3    0,X0,PR1
         6 000215   300003 236100                    LDQ     3,,PR3
         6 000216   000777 376007                    ANQ     511,DL
         6 000217   000033 736000                    QLS     27
         6 000220   200003 756100                    STQ     ACTCHR,,AUTO

      412     8915
      413     8916    2              IF CMD$STREAM.INTREE$ = ADDR(NIL)

   8916  6 000221   000026 474400 xsym               LDP4    VD_6E+22
         6 000222   400026 236100                    LDQ     22,,PR4
         6 000223   000001 116000 xsym               CMPQ    B_VECTNIL+1
         6 000224   000323 601000 6                  TNZ     s:8944
         6 000225   000001 236000 xsym               LDQ     XUG_GETCMD+1
         6 000226   000001 116000 xsym               CMPQ    B_VECTNIL+1
         6 000227   000323 600000 6                  TZE     s:8944
PL6.E3A0      #001=VDI$PDRIVER File=VDI$PARSE.:VDA5TSI                           FRI 07/04/97 11:33 Page:61

      414     8917    3                AND XUG_GETCMD.OUT$ ~= ADDR(NIL) THEN DO;

      415     8918    3                 COMMAND_LINE$ = XUG_GETCMD.OUT$;

   8918  6 000230   200011 756100                    STQ     COMMAND_LINE$,,AUTO

      416     8919                     %INCREMENT (ARRAY=STATS_TOKENS#, INDX="COMMAND$LINE.CODE - %VD_BASE#")
              8919                          ;

   8920  6 000231   200011 475500                    LDP5    COMMAND_LINE$,,AUTO
         6 000232   500000 721100                    LXL1    0,,PR5
         6 000233   776375 054011 xsym               AOS     VD_6E-771,X1

      417     8922    3                 PREV_IT_COMMAND$ = ADDR(NIL);

   8922  6 000234   000001 236000 xsym               LDQ     B_VECTNIL+1
         6 000235   200010 756100                    STQ     PREV_IT_COMMAND$,,AUTO

      418     8923    3                 CL_INDEX = 0;

   8923  6 000236   200012 450100                    STZ     CL_INDEX,,AUTO

      419     8924    4                 DO WHILE CL_INDEX < COMMAND$LINE.NSUBLKS;

   8924  6 000237   500001 236100                    LDQ     1,,PR5
         6 000240   000022 772000                    QRL     18
         6 000241   200012 116100                    CMPQ    CL_INDEX,,AUTO
         6 000242   000323 602000 6                  TNC     s:8944
         6 000243   000323 600000 6                  TZE     s:8944

      420     8925    4                    IT_COMMAND$ = ADDR(NIL);

   8925  6 000244   000001 236000 xsym               LDQ     B_VECTNIL+1
         6 000245   200007 756100                    STQ     IT_COMMAND$,,AUTO

      421     8926    4                    CALL VDI$PARSE_TREE_TO_INTREE (COMMAND$LINE, CL_INDEX,
PL6.E3A0      #001=VDI$PDRIVER File=VDI$PARSE.:VDA5TSI                           FRI 07/04/97 11:33 Page:62

   8926  6 000246   200007 630500                    EPPR0   IT_COMMAND$,,AUTO
         6 000247   200076 450500                    STP0    WLOC+21,,AUTO
         6 000250   200012 631500                    EPPR1   CL_INDEX,,AUTO
         6 000251   200075 451500                    STP1    WLOC+20,,AUTO
         6 000252   200011 236100                    LDQ     COMMAND_LINE$,,AUTO
         6 000253   200074 756100                    STQ     WLOC+19,,AUTO
         6 000254   200074 630500                    EPPR0   WLOC+19,,AUTO
         6 000255   000021 631400 xsym               EPPR1   B_VECTNIL+17
         6 000256   000000 701000 xent               TSX1    VDI$PARSE_TREE_TO_INTREE
         6 000257   000504 702000 6                  TSX2    PARSE_TREE_TO_INTREE_FAILED

      422     8927    4                      IT_COMMAND$)
      423     8928    4                      ALTRET (PARSE_TREE_TO_INTREE_FAILED);
      424     8929    5                    IF IT_COMMAND$ ~= ADDR(NIL) THEN DO;

   8929  6 000260   200007 236100                    LDQ     IT_COMMAND$,,AUTO
         6 000261   000001 116000 xsym               CMPQ    B_VECTNIL+1
         6 000262   000315 600000 6                  TZE     s:8941

      425     8930    5                       CMD$STREAM.INTREE$ = IT_COMMAND$;

   8930  6 000263   000026 470400 xsym               LDP0    VD_6E+22
         6 000264   000026 756100                    STQ     22,,PR0

      426     8931    5                       CMD$STREAM.IT_FROM_PARSE_TREE = %TRUE;

   8931  6 000265   000026 470400 xsym               LDP0    VD_6E+22
         6 000266   200000 236007                    LDQ     65536,DL
         6 000267   000027 256100                    ORSQ    23,,PR0

      427     8932    6                       DO WHILE IT_COMMAND$ ~= ADDR(NIL);

   8932  6 000270   000275 710000 6                  TRA     s:8935

      428     8933    6                          CALL PROCESS_COMMAND (IT_COMMAND$)

PL6.E3A0      #001=VDI$PDRIVER File=VDI$PARSE.:VDA5TSI                           FRI 07/04/97 11:33 Page:63
   8933  6 000271   200007 630500                    EPPR0   IT_COMMAND$,,AUTO
         6 000272   200025 450500                    STP0    SINK$+2,,AUTO
         6 000273   001027 701000 6                  TSX1    PROCESS_COMMAND
         6 000274   000522 702000 6                  TSX2    SHRINK_COMMAND_WINDOW_FAILED

      429     8934    6                            ALTRET (PROCESS_COMMAND_FAILED);
      430     8935    6                          END;

   8935  6 000275   200007 236100                    LDQ     IT_COMMAND$,,AUTO
         6 000276   000001 116000 xsym               CMPQ    B_VECTNIL+1
         6 000277   000271 601000 6                  TNZ     s:8933

      431     8936    5                       CALL VDG$OFREE (CMD$STREAM.INTREE$->IT$COMMAND)

   8936  6 000300   000026 470400 xsym               LDP0    VD_6E+22
         6 000301   000026 471500                    LDP1    22,,PR0
         6 000302   200074 451500                    STP1    WLOC+19,,AUTO
         6 000303   200074 630500                    EPPR0   WLOC+19,,AUTO
         6 000304   000017 631400 xsym               EPPR1   B_VECTNIL+15
         6 000305   000000 701000 xent               TSX1    VDG$OFREE
         6 000306   001023 702000 6                  TSX2    OALLOC_FAILED

      432     8937    5                         ALTRET (OFREE_FAILED);
      433     8938    5                       CMD$STREAM.INTREE$ = ADDR(NIL);

   8938  6 000307   000001 236000 xsym               LDQ     B_VECTNIL+1
         6 000310   000026 470400 xsym               LDP0    VD_6E+22
         6 000311   000026 756100                    STQ     22,,PR0

      434     8939    5                       CMD$STREAM.IT_FROM_PARSE_TREE = %FALSE;

   8939  6 000312   000026 470400 xsym               LDP0    VD_6E+22
         6 000313   000010 236000 7                  LDQ     8
         6 000314   000027 356100                    ANSQ    23,,PR0

      435     8940    5                       END;

PL6.E3A0      #001=VDI$PDRIVER File=VDI$PARSE.:VDA5TSI                           FRI 07/04/97 11:33 Page:64
      436     8941    4                    END;

   8941  6 000315   200011 470500                    LDP0    COMMAND_LINE$,,AUTO
         6 000316   000001 236100                    LDQ     1,,PR0
         6 000317   000022 772000                    QRL     18
         6 000320   200012 116100                    CMPQ    CL_INDEX,,AUTO
         6 000321   000323 600000 6                  TZE     s:8944
         6 000322   000244 603000 6                  TRC     s:8925

      437     8942    3                 END;

      438     8943
      439     8944    3              IF CMD$STREAM.INTREE$ ~= ADDR(NIL) THEN DO;

   8944  6 000323   000026 470400 xsym               LDP0    VD_6E+22
         6 000324   000026 236100                    LDQ     22,,PR0
         6 000325   000001 116000 xsym               CMPQ    B_VECTNIL+1
         6 000326   000340 600000 6                  TZE     s:8952

      440     8945    3                 IT_COMMAND$ = CMD$STREAM.INTREE$;

   8945  6 000327   200007 756100                    STQ     IT_COMMAND$,,AUTO

      441     8946    4                 DO WHILE IT_COMMAND$ ~= ADDR(NIL);

   8946  6 000330   000335 710000 6                  TRA     s:8949

      442     8947    4                    CALL PROCESS_COMMAND (IT_COMMAND$)

   8947  6 000331   200007 630500                    EPPR0   IT_COMMAND$,,AUTO
         6 000332   200025 450500                    STP0    SINK$+2,,AUTO
         6 000333   001027 701000 6                  TSX1    PROCESS_COMMAND
         6 000334   000522 702000 6                  TSX2    SHRINK_COMMAND_WINDOW_FAILED

      443     8948    4                      ALTRET (PROCESS_COMMAND_FAILED);
      444     8949    4                    END;

PL6.E3A0      #001=VDI$PDRIVER File=VDI$PARSE.:VDA5TSI                           FRI 07/04/97 11:33 Page:65
   8949  6 000335   200007 236100                    LDQ     IT_COMMAND$,,AUTO
         6 000336   000001 116000 xsym               CMPQ    B_VECTNIL+1
         6 000337   000331 601000 6                  TNZ     s:8947

      445     8950    3                 END;

      446     8951
      447     8952    3              IF CMD$STREAM.IT_FROM_PARSE_TREE THEN DO;

   8952  6 000340   000026 470400 xsym               LDP0    VD_6E+22
         6 000341   000027 236100                    LDQ     23,,PR0
         6 000342   200000 316007                    CANQ    65536,DL
         6 000343   000360 600000 6                  TZE     s:8960

      448     8953    3                 CALL VDG$OFREE (CMD$STREAM.INTREE$->IT$COMMAND)

   8953  6 000344   000026 471500                    LDP1    22,,PR0
         6 000345   200074 451500                    STP1    WLOC+19,,AUTO
         6 000346   200074 630500                    EPPR0   WLOC+19,,AUTO
         6 000347   000017 631400 xsym               EPPR1   B_VECTNIL+15
         6 000350   000000 701000 xent               TSX1    VDG$OFREE
         6 000351   001023 702000 6                  TSX2    OALLOC_FAILED

      449     8954    3                   ALTRET (OFREE_FAILED);
      450     8955    3                 CMD$STREAM.INTREE$ = ADDR(NIL);

   8955  6 000352   000001 236000 xsym               LDQ     B_VECTNIL+1
         6 000353   000026 470400 xsym               LDP0    VD_6E+22
         6 000354   000026 756100                    STQ     22,,PR0

      451     8956    3                 CMD$STREAM.IT_FROM_PARSE_TREE = %FALSE;

   8956  6 000355   000026 470400 xsym               LDP0    VD_6E+22
         6 000356   000010 236000 7                  LDQ     8
         6 000357   000027 356100                    ANSQ    23,,PR0

      452     8957    3                 END;
PL6.E3A0      #001=VDI$PDRIVER File=VDI$PARSE.:VDA5TSI                           FRI 07/04/97 11:33 Page:66

      453     8958
      454     8959
      455     8960    2              IF VD_6E.ERR_TAIL$ ~= VD_6E.ERR_HEAD$ THEN

   8960  6 000360   000032 236000 xsym               LDQ     VD_6E+26
         6 000361   000031 116000 xsym               CMPQ    VD_6E+25
         6 000362   000010 600000 6                  TZE     FOREVER_LOOP

      456     8961    2                 CALL VDG$EREPORT_ERROR; /* Flush any info msgs */

   8961  6 000363   000002 631400 xsym               EPPR1   B_VECTNIL+2
         6 000364   000000 701000 xent               TSX1    VDG$EREPORT_ERROR
         6 000365   000000 011000                    NOP     0

      457     8962    2              END FOREVER_LOOP;

   8962  6 000366   000010 710000 6                  TRA     FOREVER_LOOP

      458     8963
      459     8964    1   VDI$PFIX_WINDOWS: ENTRY ALTRET;

   8964  6 000367   000000 700200 xent  VDI$PFIX_WI* TSX0  ! X66_AUTO_0
         6 000370   000100 000000                    ZERO    64,0

      460     8965
      461     8966    2           IF DCBADDR (DCBNUM (M$6E)) -> F$DCB.RES# ~= 'ME' THEN DO;

   8966  6 000371   000000 236007 xsym               LDQ     M$6E,DL
         6 000372   000000 470400 7                  LDP0    0
         6 000373   000000 471500                    LDP1    0,,PR0
         6 000374   100000 473506                    LDP3    0,QL,PR1
         6 000375   040000 106500                    CMPC    fill='040'O
         6 000376   300026 000004                    ADSC9   22,,PR3                  cn=0,n=4
         6 000377   000022 000002 5                  ADSC9   FIRST_ED_WIN_BLOCK_LOC+9 cn=0,n=2
         6 000400   000407 600000 6                  TZE     s:8971

PL6.E3A0      #001=VDI$PDRIVER File=VDI$PARSE.:VDA5TSI                           FRI 07/04/97 11:33 Page:67
      462     8967                   /* An !ADJUST must have been the command - try to honor it */
      463     8968    2              IF VD_EDITING_WINDOWS > VD_IBEX_WINDOW THEN EXIT; /* Too late */

   8968  6 000401   000000 236000 xsym               LDQ     VD_EDITING_WINDOWS
         6 000402   000000 116000 xsym               CMPQ    VD_IBEX_WINDOW
         6 000403   000407 605400 6                  TPNZ    s:8971

      464     8969    2              CALL VDP$WINIT;

   8969  6 000404   000002 631400 xsym               EPPR1   B_VECTNIL+2
         6 000405   000000 701000 xent               TSX1    VDP$WINIT
         6 000406   000000 011000                    NOP     0

      465     8970    2              END;

      466     8971    1           IF NOT DCBADDR (DCBNUM (M$ME)) -> F$DCB.FCD# OR VD_$SCREEN.V#=0 THEN

   8971  6 000407   000000 236007 xsym               LDQ     M$ME,DL
         6 000410   000000 470400 7                  LDP0    0
         6 000411   000000 471500                    LDP1    0,,PR0
         6 000412   100000 473506                    LDP3    0,QL,PR1
         6 000413   300031 236100                    LDQ     25,,PR3
         6 000414   020000 316007                    CANQ    8192,DL
         6 000415   000420 600000 6                  TZE     s:8972
         6 000416   000003 235000 xsym               LDA     VD_$SCREEN+3
         6 000417   000424 601000 6                  TNZ     s:8973

      467     8972    1              CALL VDG$EXPAND_COMMAND_WINDOW (VD_$SCREEN.V#);

   8972  6 000420   000011 630400 7                  EPPR0   9
         6 000421   000017 631400 xsym               EPPR1   B_VECTNIL+15
         6 000422   000000 701000 xent               TSX1    VDG$EXPAND_COMMAND_WINDOW
         6 000423   000000 011000                    NOP     0

      468     8973    1           RETURN;

   8973  6 000424   000000 702200 xent               TSX2  ! X66_ARET
PL6.E3A0      #001=VDI$PDRIVER File=VDI$PARSE.:VDA5TSI                           FRI 07/04/97 11:33 Page:68

      469     8974
      470     8975                %BOX (TITLE="Error Handlers");

              8987    1   /***************************************************************************
              8989    1    *                                                                         *
              8993    1            *                               Error Handlers                           *
              8995    1            *                                                                        *
              8997    1          ***************************************************************************/

      471     9001
      472     9002    1   WREAD_FAILED:
      473     9003                /*
      474     9004                *   We differentiate between different types of WREAD
      475     9005                *       errors:  (1) those that occur on the file side before we
      476     9006                *       get the screen filled, usually while reading the file in
      477     9007                *       order to fill the screen; (2) those that occur on the file
      478     9008                *       side after we get the screen filled and begin reading
      479     9009                *       user keystrokes, usually while writing user-changed records
      480     9010                *       to the file; and
      481     9011                *N*     (3) those that occur on the FEP side.
      482     9012                *   We detect case (1) by looking at the last error on the VD$ERR
      483     9013                *       chain; if it's %E$CANT_READ_FILE, then we've got a case (1)
      484     9014                *       error.  In that case, remove the EditBlock so we don't loop
      485     9015                *       forever trying to read the file to fill the screen.
      486     9016                *   If the last VD$ERR is any other error, we've got case (2):
      487     9017                *       just erase the screen to force a refill of the screen
      488     9018                *       from the file.  This is an error like "can't insert records
      489     9019                *       into a consecutive file", or "can't insert anymore records
      490     9020                *       between these two".  We don't need to remove the EditBlock
      491     9021                *       block; presumeably the user won't keep repeating the same
      492     9022                *       mistake.  However, we do need to make sure that the screen
      493     9023                *       matches what's in the file, not what the FEP thinks it
      494     9024                *       should be:  an insertion may have worked in the FEP which
      495     9025                *       didn't work on the file, and the FEP must be informed of
      496     9026                *       the actual file contents.
      497     9027                *N* For case (3), who knows!  Assume it's not loopable, and
PL6.E3A0      #001=VDI$PDRIVER File=VDI$PARSE.:VDA5TSI                           FRI 07/04/97 11:33 Page:69
      498     9028                *N*     do the same as for case (2).
      499     9029                */
      500     9030    1           IF VD$ERR_TAIL.ERR.CODE# = %E$CANT_READ_FILE

   9030  6 000425   000032 470400 xsym  WREAD_FAILED LDP0    VD_6E+26
         6 000426   000002 236100                    LDQ     2,,PR0
         6 000427   377770 376007                    ANQ     131064,DL
         6 000430   004330 116007                    CMPQ    2264,DL
         6 000431   000441 601000 6                  TNZ     s:9037
         6 000432   000002 236100                    LDQ     2,,PR0
         6 000433   400000 316007                    CANQ    -131072,DL
         6 000434   000441 601000 6                  TNZ     s:9037

      501     9031    2             AND NOT VD$ERR_TAIL.ERR.MON THEN DO;

      502     9032                   /* Case (1):  Remove the EditBlock */
      503     9033    2              CALL VDI$PREMOVE_EDIT_BLOCK;

   9033  6 000435   000002 631400 xsym               EPPR1   B_VECTNIL+2
         6 000436   000000 701000 xent               TSX1    VDI$PREMOVE_EDIT_BLOCK
         6 000437   000000 011000                    NOP     0

      504     9034    2              END;

   9034  6 000440   000451 710000 6                  TRA     s:9040

      505     9035    2           ELSE DO;

      506     9036                   /* Cases (2) and (3):  just erase the screen */
      507     9037    2              IF CURR$WINDOW.DCB# ~= VD$ERR_TAIL.DCB# THEN

   9037  6 000441   200006 471500                    LDP1    CURR_WINDOW$,,AUTO
         6 000442   100014 720100                    LXL0    12,,PR1
         6 000443   000004 100100                    CMPX0   4,,PR0
         6 000444   000451 600000 6                  TZE     s:9040

      508     9038    2                 CALL VDP$WERASE (CURR$WINDOW);
PL6.E3A0      #001=VDI$PDRIVER File=VDI$PARSE.:VDA5TSI                           FRI 07/04/97 11:33 Page:70

   9038  6 000445   200006 630500                    EPPR0   CURR_WINDOW$,,AUTO
         6 000446   000017 631400 xsym               EPPR1   B_VECTNIL+15
         6 000447   000000 701000 xent               TSX1    VDP$WERASE
         6 000450   000000 011000                    NOP     0

      509     9039    2              END;

      510     9040    1           GOT_WREAD_ERROR = %TRUE;

   9040  6 000451   400000 236003                    LDQ     -131072,DU
         6 000452   200013 756100                    STQ     GOT_WREAD_ERROR,,AUTO

      511     9041    1           GOTO CLEAN_UP;

   9041  6 000453   000522 710000 6                  TRA     SHRINK_COMMAND_WINDOW_FAILED

      512     9042
      513     9043
      514     9044    1   GETCMD_FAILED:
      515     9045                /*
      516     9046                *  XUG_INIT.GOODCMD isn't set, so we get syntax errors as errors
      517     9047                *     from XUG (XUP-E$SYNERR-0).
      518     9048                *  Also, the subroutines called by GETCMD (eg VDI$PGET_COMMAND_RECORD
      519     9049                *     and VDI$PUSER_PARSE_RTN) may return errors.
      520     9050                *  A VD$ERR has already been allocated in all cases except an
      521     9051                *      error from an XU routine.
      522     9052                */
      523     9053    1           ERR_CODE = XUG_GETCMD.ERR#;

   9053  6 000454   000001 236000 xsym  GETCMD_FAIL* LDQ     XUG_GETCMD+1
         6 000455   200020 756100                    STQ     ERR_CODE,,AUTO

      524     9054    2           IF ERR_CODE.FCG = %FCG_XU THEN DO;

   9054  6 000456   777700 376003                    ANQ     -64,DU
         6 000457   302500 116003                    CMPQ    99648,DU
PL6.E3A0      #001=VDI$PDRIVER File=VDI$PARSE.:VDA5TSI                           FRI 07/04/97 11:33 Page:71
         6 000460   000503 601000 6                  TNZ     s:9061

      525     9055    2              CALL VDG$OALLOC (%CLS_ERR, VD_ERR$)

   9055  6 000461   200016 630500                    EPPR0   VD_ERR$,,AUTO
         6 000462   200075 450500                    STP0    WLOC+20,,AUTO
         6 000463   000012 236000 7                  LDQ     10
         6 000464   200074 756100                    STQ     WLOC+19,,AUTO
         6 000465   200074 630500                    EPPR0   WLOC+19,,AUTO
         6 000466   000020 631400 xsym               EPPR1   B_VECTNIL+16
         6 000467   000000 701000 xent               TSX1    VDG$OALLOC
         6 000470   001023 702000 6                  TSX2    OALLOC_FAILED

      526     9056    2                ALTRET (OALLOC_FAILED);
      527     9057    2              VD$ERR.ERR = XUG_GETCMD.ERR#;

   9057  6 000471   000001 236000 xsym               LDQ     XUG_GETCMD+1
         6 000472   200016 470500                    LDP0    VD_ERR$,,AUTO
         6 000473   000002 756100                    STQ     2,,PR0

      528     9058    2              VD$ERR.FLAGLEV# = %FLV_SERIOUS;

   9058  6 000474   000003 220003                    LDX0    3,DU
         6 000475   200016 470500                    LDP0    VD_ERR$,,AUTO
         6 000476   000003 740100                    STX0    3,,PR0

      529     9059    2              VD$ERR.CMDLINE_INDEX# = XUG_GETCMD.PCB$->P$PCB.HI_CHAR;

   9059  6 000477   000003 470400 xsym               LDP0    XUG_GETCMD+3
         6 000500   000012 721100                    LXL1    10,,PR0
         6 000501   200016 471500                    LDP1    VD_ERR$,,AUTO
         6 000502   100003 441100                    SXL1    3,,PR1

      530     9060    2              END;

      531     9061    1           GOTO CLEAN_UP;

PL6.E3A0      #001=VDI$PDRIVER File=VDI$PARSE.:VDA5TSI                           FRI 07/04/97 11:33 Page:72
   9061  6 000503   000522 710000 6                  TRA     SHRINK_COMMAND_WINDOW_FAILED

      532     9062
      533     9063
      534     9064    1   PARSE_TREE_TO_INTREE_FAILED:
      535     9065    1           CALL VDG$OFREE (CMD$STREAM.INTREE$->IT$COMMAND)

   9065  6 000504   000026 470400 xsym  PARSE_TREE_* LDP0    VD_6E+22
         6 000505   000026 471500                    LDP1    22,,PR0
         6 000506   200074 451500                    STP1    WLOC+19,,AUTO
         6 000507   200074 630500                    EPPR0   WLOC+19,,AUTO
         6 000510   000017 631400 xsym               EPPR1   B_VECTNIL+15
         6 000511   000000 701000 xent               TSX1    VDG$OFREE
         6 000512   001023 702000 6                  TSX2    OALLOC_FAILED

      536     9066    1             ALTRET (OFREE_FAILED);
      537     9067    1           CMD$STREAM.INTREE$ = ADDR(NIL);

   9067  6 000513   000001 236000 xsym               LDQ     B_VECTNIL+1
         6 000514   000026 470400 xsym               LDP0    VD_6E+22
         6 000515   000026 756100                    STQ     22,,PR0

      538     9068    1           CMD$STREAM.IT_FROM_PARSE_TREE = %FALSE;

   9068  6 000516   000026 470400 xsym               LDP0    VD_6E+22
         6 000517   000010 236000 7                  LDQ     8
         6 000520   000027 356100                    ANSQ    23,,PR0

      539     9069    1           GOTO CLEAN_UP;

   9069  6 000521   000522 710000 6                  TRA     SHRINK_COMMAND_WINDOW_FAILED

   9068  6 000522                       SHRINK_COMM* null
   9068  6 000522                       EXPAND_COMM* null
   9068  6 000522                       NFLUSH_FAIL* null
   9068  6 000522                       PROCESS_COM* null
      540     9070
PL6.E3A0      #001=VDI$PDRIVER File=VDI$PARSE.:VDA5TSI                           FRI 07/04/97 11:33 Page:73
      541     9071
      542     9072    1   SHRINK_COMMAND_WINDOW_FAILED: ;
      543     9073    1   EXPAND_COMMAND_WINDOW_FAILED: ;
      544     9074    1   NFLUSH_FAILED: ;
      545     9075    1   PROCESS_COMMAND_FAILED: ;
      546     9076    1   CLEAN_UP:
      547     9077    1           IF VD_6E.CMD_STREAM$ ~= ADDR(NIL) THEN

   9077  6 000522   000026 236000 xsym  CLEAN_UP     LDQ     VD_6E+22
         6 000523   000001 116000 xsym               CMPQ    B_VECTNIL+1
         6 000524   001015 600000 6                  TZE     s:9152

      548     9078    2   FLUSH_CMD_STREAMS: DO;

   9078  6 000525                       FLUSH_CMD_S* null
      549     9079    2              VD_ERR$ = ADDR(NIL);

   9079  6 000525   000001 236000 xsym               LDQ     B_VECTNIL+1
         6 000526   200016 756100                    STQ     VD_ERR$,,AUTO

      550     9080
      551     9081    2   EACH_CMD_STREAM:
      552     9082    3              DO UNTIL (VD_6E.CMD_STREAM$ = ADDR (NIL));

   9082  6 000527                       EACH_CMD_ST* null
      553     9083    3                 WARN_ABORTED_BUFFER = %FALSE;

   9083  6 000527   200014 450100                    STZ     WARN_ABORTED_BUFFER,,AUTO

      554     9084    3                 IF CMD$STREAM.TYPE# = %CS_BUFFER

   9084  6 000530   000026 470400 xsym               LDP0    VD_6E+22
         6 000531   000002 220100                    LDX0    2,,PR0
         6 000532   000001 100003                    CMPX0   1,DU
         6 000533   000545 601000 6                  TNZ     s:9089
         6 000534   000025 236100                    LDQ     21,,PR0
         6 000535   000001 116000 xsym               CMPQ    B_VECTNIL+1
PL6.E3A0      #001=VDI$PDRIVER File=VDI$PARSE.:VDA5TSI                           FRI 07/04/97 11:33 Page:74
         6 000536   000545 600000 6                  TZE     s:9089

      555     9085    3                   AND CMD$STREAM.RECORD$ ~= ADDR(NIL) THEN
      556     9086    3                    IF CMD$STREAM.POSITION# <

   9086  6 000537   000025 471500                    LDP1    21,,PR0
         6 000540   000027 221100                    LDX1    23,,PR0
         6 000541   100002 101100                    CMPX1   2,,PR1
         6 000542   000545 605000 6                  TPL     s:9089

      557     9087    3                      CMD$STREAM.RECORD$ -> VD$BUFFER.LENGTH# THEN
      558     9088    3                       WARN_ABORTED_BUFFER = %TRUE;

   9088  6 000543   400000 236003                    LDQ     -131072,DU
         6 000544   200014 756100                    STQ     WARN_ABORTED_BUFFER,,AUTO

      559     9089    4                 IF VD_$$QUAC.V# ~= 0 AND CMD$STREAM.DCB# = DCBNUM(M$SI) THEN DO;

   9089  6 000545   000003 235000 xsym               LDA     VD_$$QUAC+3
         6 000546   000574 600000 6                  TZE     s:9097
         6 000547   000000 236007 xsym               LDQ     M$SI,DL
         6 000550   200074 756100                    STQ     WLOC+19,,AUTO
         6 000551   000024 236100                    LDQ     20,,PR0
         6 000552   000022 772000                    QRL     18
         6 000553   200074 116100                    CMPQ    WLOC+19,,AUTO
         6 000554   000574 601000 6                  TNZ     s:9097

      560     9090    4                    IF CMD$STREAM.REC_NUM# = 0 THEN EXIT; /* give up if not open */

   9090  6 000555   000030 235100                    LDA     24,,PR0
         6 000556   000574 600000 6                  TZE     s:9097

      561     9091    4                    IF VD_ERR$=ADDR(NIL) THEN EXIT FLUSH_CMD_STREAMS;

   9091  6 000557   200016 236100                    LDQ     VD_ERR$,,AUTO
         6 000560   000001 116000 xsym               CMPQ    B_VECTNIL+1
         6 000561   001015 600000 6                  TZE     s:9152
PL6.E3A0      #001=VDI$PDRIVER File=VDI$PARSE.:VDA5TSI                           FRI 07/04/97 11:33 Page:75

      562     9092    4                    CALL VDI$PREAD_FILE_CLOSE;

   9092  6 000562   000002 631400 xsym               EPPR1   B_VECTNIL+2
         6 000563   000000 701000 xent               TSX1    VDI$PREAD_FILE_CLOSE
         6 000564   000000 011000                    NOP     0

      563     9093    4                    CALL VDI$PREAD_FILE_OPEN;

   9093  6 000565   000002 631400 xsym               EPPR1   B_VECTNIL+2
         6 000566   000000 701000 xent               TSX1    VDI$PREAD_FILE_OPEN
         6 000567   000000 011000                    NOP     0

      564     9094    4                    CALL VDI$PREAD_FILE_POSITION;

   9094  6 000570   000002 631400 xsym               EPPR1   B_VECTNIL+2
         6 000571   000000 701000 xent               TSX1    VDI$PREAD_FILE_POSITION
         6 000572   000000 011000                    NOP     0

      565     9095    4                    EXIT FLUSH_CMD_STREAMS; /* Only to the input file */

   9095  6 000573   001015 710000 6                  TRA     s:9152

      566     9096    4                    END;
      567     9097    3                 IF CMD$STREAM.TYPE# = %CS_FILE

   9097  6 000574   000002 220100                    LDX0    2,,PR0
         6 000575   000003 100003                    CMPX0   3,DU
         6 000576   000603 600000 6                  TZE     WARN_ABORTED_CMD_STREAM
         6 000577   000004 100003                    CMPX0   4,DU
         6 000600   000603 600000 6                  TZE     WARN_ABORTED_CMD_STREAM
         6 000601   200014 234100                    SZN     WARN_ABORTED_BUFFER,,AUTO
         6 000602   000773 605000 6                  TPL     s:9143

      568     9098    3                   OR CMD$STREAM.TYPE# = %CS_DCB
      569     9099    3                   OR WARN_ABORTED_BUFFER THEN
      570     9100    4   WARN_ABORTED_CMD_STREAM: DO;
PL6.E3A0      #001=VDI$PDRIVER File=VDI$PARSE.:VDA5TSI                           FRI 07/04/97 11:33 Page:76

   9100  6 000603                       WARN_ABORTE* null
      571     9101    4                    CALL VDG$OALLOC (%CLS_ERR, VD_ERR$)

   9101  6 000603   200016 631500                    EPPR1   VD_ERR$,,AUTO
         6 000604   200075 451500                    STP1    WLOC+20,,AUTO
         6 000605   000012 236000 7                  LDQ     10
         6 000606   200074 756100                    STQ     WLOC+19,,AUTO
         6 000607   200074 630500                    EPPR0   WLOC+19,,AUTO
         6 000610   000020 631400 xsym               EPPR1   B_VECTNIL+16
         6 000611   000000 701000 xent               TSX1    VDG$OALLOC
         6 000612   001023 702000 6                  TSX2    OALLOC_FAILED

      572     9102    4                      ALTRET (OALLOC_FAILED);
      573     9103    4                    SUBST_FIELD$ = PINCRW(VD_ERR$, SIZEW(VD$ERR));

   9103  6 000613   200016 236100                    LDQ     VD_ERR$,,AUTO
         6 000614   000005 036003                    ADLQ    5,DU
         6 000615   200017 756100                    STQ     SUBST_FIELD$,,AUTO

      574     9104    4                    VD$ERR.FLAGLEV# = %FLV_WARN;

   9104  6 000616   000002 220003                    LDX0    2,DU
         6 000617   200016 470500                    LDP0    VD_ERR$,,AUTO
         6 000620   000003 740100                    STX0    3,,PR0

      575     9105    4                    INDX = 0;

   9105  6 000621   200021 450100                    STZ     INDX,,AUTO

      576     9106    5                    DO WHILE INDX < %MX_CMD_OBJECTS

   9106  6 000622   000624 710000 6                  TRA     s:9109

      577     9107    5                      AND VD_CMD_OBJECTS$ (INDX) ~= ADDR(NIL);
      578     9108    5                       INDX = INDX + 1;

PL6.E3A0      #001=VDI$PDRIVER File=VDI$PARSE.:VDA5TSI                           FRI 07/04/97 11:33 Page:77
   9108  6 000623   200021 054100                    AOS     INDX,,AUTO

      579     9109    5                       END;

   9109  6 000624   200021 235100                    LDA     INDX,,AUTO
         6 000625   000062 115007                    CMPA    50,DL
         6 000626   000632 605000 6                  TPL     s:9110
         6 000627   000000 236005 xsym               LDQ     VD_CMD_OBJECTS$,AL
         6 000630   000001 116000 xsym               CMPQ    B_VECTNIL+1
         6 000631   000623 601000 6                  TNZ     s:9108

      580     9110    4                    IF INDX >= %MX_CMD_OBJECTS THEN

   9110  6 000632   200021 235100                    LDA     INDX,,AUTO
         6 000633   000062 115007                    CMPA    50,DL
         6 000634   000640 604000 6                  TMI     s:9113

      581     9111    4                       CALL VDG$ESCREECH;

   9111  6 000635   000002 631400 xsym               EPPR1   B_VECTNIL+2
         6 000636   000000 701000 xent               TSX1    VDG$ESCREECH
         6 000637   000000 011000                    NOP     0

      582     9112
      583     9113    5                    IF WARN_ABORTED_BUFFER THEN DO;

   9113  6 000640   200014 234100                    SZN     WARN_ABORTED_BUFFER,,AUTO
         6 000641   000717 605000 6                  TPL     s:9126

      584     9114    5                       VD$ERR.ERR.CODE# = %E$WARN_COMMANDS_IGNORED;

   9114  6 000642   200016 470500                    LDP0    VD_ERR$,,AUTO
         6 000643   000002 236100                    LDQ     2,,PR0
         6 000644   000013 376000 7                  ANQ     11
         6 000645   001070 276007                    ORQ     568,DL
         6 000646   000002 756100                    STQ     2,,PR0

PL6.E3A0      #001=VDI$PDRIVER File=VDI$PARSE.:VDA5TSI                           FRI 07/04/97 11:33 Page:78
      585     9115    5                       VD_CMD_OBJECTS$ (INDX) = CMD$STREAM.RECORD$;

   9115  6 000647   000026 470400 xsym               LDP0    VD_6E+22
         6 000650   000025 236100                    LDQ     21,,PR0
         6 000651   200021 720100                    LXL0    INDX,,AUTO
         6 000652   000000 756010 xsym               STQ     VD_CMD_OBJECTS$,X0

      586     9116    5                       CMD$STREAM.RECORD$ = ADDR(NIL);

   9116  6 000653   000001 236000 xsym               LDQ     B_VECTNIL+1
         6 000654   000025 756100                    STQ     21,,PR0

      587     9117    5                       SUBST$POINTER.OBJECT.CLASS# (0) = %CLS_PTR_TEXTC;

   9117  6 000655   000045 221003                    LDX1    37,DU
         6 000656   200017 470500                    LDP0    SUBST_FIELD$,,AUTO
         6 000657   000000 741100                    STX1    0,,PR0

      588     9118    5                       CMD_RECORD$ = VD_CMD_OBJECTS$ (INDX);

   9118  6 000660   000000 236010 xsym               LDQ     VD_CMD_OBJECTS$,X0
         6 000661   200022 756100                    STQ     CMD_RECORD$,,AUTO

      589     9119    5                       CALL INSERT (CMD$RECORD.BYTES,

   9119  6 000662   200022 471500                    LDP1    CMD_RECORD$,,AUTO
         6 000663   100002 222100                    LDX2    2,,PR1
         6 000664   000026 473400 xsym               LDP3    VD_6E+22
         6 000665   300027 236100                    LDQ     23,,PR3
         6 000666   000022 732000                    QRS     18
         6 000667   200074 756100                    STQ     WLOC+19,,AUTO
         6 000670   100002 236100                    LDQ     2,,PR1
         6 000671   000022 732000                    QRS     18
         6 000672   200074 136100                    SBLQ    WLOC+19,,AUTO
         6 000673   000033 736000                    QLS     27
         6 000674   000014 276000 7                  ORQ     12
         6 000675   200075 756100                    STQ     WLOC+20,,AUTO
PL6.E3A0      #001=VDI$PDRIVER File=VDI$PARSE.:VDA5TSI                           FRI 07/04/97 11:33 Page:79
         6 000676   300027 236100                    LDQ     23,,PR3
         6 000677   000022 732000                    QRS     18
         6 000700   200077 756100                    STQ     WLOC+22,,AUTO
         6 000701   200075 236100                    LDQ     WLOC+20,,AUTO
         6 000702   200076 756100                    STQ     WLOC+21,,AUTO
         6 000703   200077 235100                    LDA     WLOC+22,,AUTO
         6 000704   040105 100500                    MLR     fill='040'O
         6 000705   200076 000004                    ADSC9   WLOC+21,,AUTO            cn=0,n=4
         6 000706   100002 200001                    ADSC9   2,A,PR1                  cn=1,n=1

      590     9120    5                         CMD$STREAM.POSITION# - 1, 1,
      591     9121    5                         BINASC(CMD$RECORD.LENGTH# - CMD$STREAM.POSITION#));
      592     9122    5                       SUBST$POINTER.V$ (0) = PINCRC(ADDR(CMD$RECORD.BYTES),

   9122  6 000707   000026 473400 xsym               LDP3    VD_6E+22
         6 000710   300027 236100                    LDQ     23,,PR3
         6 000711   000022 732000                    QRS     18
         6 000712   000020 736000                    QLS     16
         6 000713   000015 036000 7                  ADLQ    13
         6 000714   200022 036100                    ADLQ    CMD_RECORD$,,AUTO
         6 000715   000003 756100                    STQ     3,,PR0

      593     9123    5                         CMD$STREAM.POSITION# - 1);
      594     9124    5                       END;

   9124  6 000716   000773 710000 6                  TRA     s:9143

      595     9125    5                    ELSE DO;

      596     9126    5                       CALL VDI$PREAD_FILE_CLOSE; /* Any err reported below */

   9126  6 000717   000002 631400 xsym               EPPR1   B_VECTNIL+2
         6 000720   000000 701000 xent               TSX1    VDI$PREAD_FILE_CLOSE
         6 000721   000000 011000                    NOP     0

      597     9127    5                       VD$ERR.ERR.CODE# = %E$WARN_STOPPING_READ_FILE;

PL6.E3A0      #001=VDI$PDRIVER File=VDI$PARSE.:VDA5TSI                           FRI 07/04/97 11:33 Page:80
   9127  6 000722   200016 470500                    LDP0    VD_ERR$,,AUTO
         6 000723   000002 236100                    LDQ     2,,PR0
         6 000724   000013 376000 7                  ANQ     11
         6 000725   001060 276007                    ORQ     560,DL
         6 000726   000002 756100                    STQ     2,,PR0

      598     9128    5                       CALL VDG$OALLOC (%CLS_TEXTC_REMOTE, VD_CMD_OBJECTS$ (INDX),

   9128  6 000727   000020 236000 7                  LDQ     16
         6 000730   200076 756100                    STQ     WLOC+21,,AUTO
         6 000731   200021 720100                    LXL0    INDX,,AUTO
         6 000732   000000 630410 xsym               EPPR0   VD_CMD_OBJECTS$,X0
         6 000733   200075 450500                    STP0    WLOC+20,,AUTO
         6 000734   000021 236000 7                  LDQ     17
         6 000735   200074 756100                    STQ     WLOC+19,,AUTO
         6 000736   200074 630500                    EPPR0   WLOC+19,,AUTO
         6 000737   000021 631400 xsym               EPPR1   B_VECTNIL+17
         6 000740   000000 701000 xent               TSX1    VDG$OALLOC
         6 000741   001023 702000 6                  TSX2    OALLOC_FAILED

      599     9129    5                         LENGTHC(CMD$STREAM.FILE))
      600     9130    5                         ALTRET (OALLOC_FAILED);
      601     9131    5                       SUBST$POINTER.OBJECT.CLASS# (0) = %CLS_PTR_TEXTC;

   9131  6 000742   000045 220003                    LDX0    37,DU
         6 000743   200017 470500                    LDP0    SUBST_FIELD$,,AUTO
         6 000744   000000 740100                    STX0    0,,PR0

      602     9132    5                       SUBST$POINTER.V$ (0) = ADDR(VD_CMD_OBJECTS$ (INDX) ->

   9132  6 000745   200021 721100                    LXL1    INDX,,AUTO
         6 000746   000000 471411 xsym               LDP1    VD_CMD_OBJECTS$,X1
         6 000747   100002 633500                    EPPR3   2,,PR1
         6 000750   000003 453500                    STP3    3,,PR0

      603     9133    5                         VD$TEXTC_REMOTE.LENGTH#);
      604     9134    5                       VD_CMD_OBJECTS$ (INDX) -> VD$TEXTC_REMOTE.LENGTH# =
PL6.E3A0      #001=VDI$PDRIVER File=VDI$PARSE.:VDA5TSI                           FRI 07/04/97 11:33 Page:81

   9134  6 000751   000000 471411 xsym               LDP1    VD_CMD_OBJECTS$,X1
         6 000752   000026 474400 xsym               LDP4    VD_6E+22
         6 000753   400002 236100                    LDQ     2,,PR4
         6 000754   000022 736000                    QLS     18
         6 000755   100002 552140                    STBQ    2,'40'O,PR1

      605     9135    5                         CMD$STREAM.FILE.LENGTH#;
      606     9136    5                       VD_CMD_OBJECTS$ (INDX) -> VD$TEXTC_REMOTE.BYTES =

   9136  6 000756   000000 471411 xsym               LDP1    VD_CMD_OBJECTS$,X1
         6 000757   100002 236100                    LDQ     2,,PR1
         6 000760   000033 772000                    QRL     27
         6 000761   000026 473400 xsym               LDP3    VD_6E+22
         6 000762   000000 622006                    EAX2    0,QL
         6 000763   040140 100500                    MLR     fill='040'O
         6 000764   300002 600104                    ADSC9   2,,PR3                   cn=3,n=68
         6 000765   100002 200012                    ADSC9   2,,PR1                   cn=1,n=*X2

      607     9137    5                         CMD$STREAM.FILE.BYTES;
      608     9138    5                       SUBST$NUMBER.OBJECT.CLASS# (1) = %CLS_NUMBER;

   9138  6 000766   000033 222003                    LDX2    27,DU
         6 000767   000004 742100                    STX2    4,,PR0

      609     9139    5                       SUBST$NUMBER.V# (1) = CMD$STREAM.REC_NUM#;

   9139  6 000770   000026 471400 xsym               LDP1    VD_6E+22
         6 000771   100030 235100                    LDA     24,,PR1
         6 000772   000007 755100                    STA     7,,PR0

      610     9140    5                       END;

      611     9141    4                    END WARN_ABORTED_CMD_STREAM;

      612     9142
      613     9143    3                 CALL VDG$OFREE (CMD$STREAM)
PL6.E3A0      #001=VDI$PDRIVER File=VDI$PARSE.:VDA5TSI                           FRI 07/04/97 11:33 Page:82

   9143  6 000773   000026 630400 xsym               EPPR0   VD_6E+22
         6 000774   000017 631400 xsym               EPPR1   B_VECTNIL+15
         6 000775   000000 701000 xent               TSX1    VDG$OFREE
         6 000776   001023 702000 6                  TSX2    OALLOC_FAILED

      614     9144    3                   ALTRET (OFREE_FAILED);
      615     9145    3                 END EACH_CMD_STREAM;

   9145  6 000777   000026 236000 xsym               LDQ     VD_6E+22
         6 001000   000001 116000 xsym               CMPQ    B_VECTNIL+1
         6 001001   000527 601000 6                  TNZ     EACH_CMD_STREAM

      616     9146
      617     9147    2              CALL VDG$OALLOC (%CLS_CMD_STREAM, SINK$)

   9147  6 001002   200023 630500                    EPPR0   SINK$,,AUTO
         6 001003   200075 450500                    STP0    WLOC+20,,AUTO
         6 001004   000022 236000 7                  LDQ     18
         6 001005   200074 756100                    STQ     WLOC+19,,AUTO
         6 001006   200074 630500                    EPPR0   WLOC+19,,AUTO
         6 001007   000020 631400 xsym               EPPR1   B_VECTNIL+16
         6 001010   000000 701000 xent               TSX1    VDG$OALLOC
         6 001011   001023 702000 6                  TSX2    OALLOC_FAILED

      618     9148    2                ALTRET (OALLOC_FAILED);
      619     9149    2              CMD$STREAM.TYPE# = %CS_ME;

   9149  6 001012   000002 220003                    LDX0    2,DU
         6 001013   000026 470400 xsym               LDP0    VD_6E+22
         6 001014   000002 740100                    STX0    2,,PR0

      620     9150    2              END FLUSH_CMD_STREAMS;

      621     9151
      622     9152    1           CALL VDG$EREPORT_ERROR;

PL6.E3A0      #001=VDI$PDRIVER File=VDI$PARSE.:VDA5TSI                           FRI 07/04/97 11:33 Page:83
   9152  6 001015   000002 631400 xsym               EPPR1   B_VECTNIL+2
         6 001016   000000 701000 xent               TSX1    VDG$EREPORT_ERROR
         6 001017   000000 011000                    NOP     0

      623     9153
      624     9154    1           VD_FORCE_READ_FROM = %RF_COMMAND_WINDOW; /* Force 1 cmd window read */

   9154  6 001020   000001 235007                    LDA     1,DL
         6 001021   000000 755000 xsym               STA     VD_FORCE_READ_FROM

      625     9155    1           GOTO FOREVER_LOOP;   /* Re-enter the loop at the top */

   9155  6 001022   000010 710000 6                  TRA     FOREVER_LOOP

   9154  6 001023                       OALLOC_FAIL* null
   9154  6 001023                       OFREE_FAILED null
      626     9156
      627     9157
      628     9158    1   OALLOC_FAILED: ;
      629     9159    1   OFREE_FAILED: ;
      630     9160                /* These are fatal errors */
      631     9161    1           CALL VDG$EREPORT_ERROR; /* We'll never come back from this */

   9161  6 001023   000002 631400 xsym               EPPR1   B_VECTNIL+2
         6 001024   000000 701000 xent               TSX1    VDG$EREPORT_ERROR
         6 001025   000000 011000                    NOP     0
         6 001026   002664 710000 6                  TRA     s:11302

      632     9162
      633     9163        %BOX (TITLE=PROCESS_COMMAND, PAGE=YES);
              9171    1
              9175    1   /***************************************************************************
              9177    1    *                                                                         *
              9181    1            *                              PROCESS_COMMAND                           *
              9183    1            *                                                                        *
              9185    1          ***************************************************************************/

PL6.E3A0      #001=VDI$PDRIVER File=VDI$PARSE.:VDA5TSI                           FRI 07/04/97 11:33 Page:84
      634     9189
      635     9190        /*I* NAME: PROCESS_COMMAND
      636     9191            PARAMETERS:
      637     9192                IT_COMMAND$ - Ptr to a VD$IT_COMMAND node specyfying the command to
      638     9193                    process.
      639     9194            INPUT:
      640     9195
      641     9196                The following data isn't used by this routine directly,
      642     9197                but the comments below describe the state of the data
      643     9198                at the point between commands.
      644     9199
      645     9200                VD_CURRENT_WINDOW$ points to the VD$FILE_NODE for the current
      646     9201                    editing window.  If not NIL, the Spec attached to this node is:
      647     9202                CURR$WINDOW - The VD$WINDOW_SPEC for the current editing window:
      648     9203                    .OPERAND.STREAM$ points to the window's stream, which is
      649     9204                        always open to the EditBlock (if any) for the window.
      650     9205                    .OPERAND.INTREE$ must be NIL between commands.
      651     9206                    .OPERAND.EDIT_BLOCK$ points to the block descriptor for
      652     9207                        the EditBlock, if any.
      653     9208                    .OPERAND.EVAL$ points to the top VD$EVAL on the evalutation
      654     9209                        stack for the current SelectedBlock:
      655     9210                        .ENCLOSING specifies the current enclosing range for
      656     9211                            evaluation; used by the VDE$Ixxx routines.
      657     9212                        .RANGE is the current range of the SelectedBlock (its
      658     9213                            domain is always the current EditBlock).
      659     9214                        .STATE# is the current state of evaluation of the
      660     9215                            block; used by VDE$Ixxx routines.
      661     9216                VD_6E.SOURCE.OPERAND contains all the above info for the
      662     9217                    Source operand.
      663     9218
      664     9219                There may be:
      665     9220                    No current EditBlock:  CURR$WSPEC.OPERAND.EDIT_BLOCK$ and
      666     9221                        .EVAL$ will be NIL.
      667     9222                    No current Source operand:  VD_6E.SOURCE.OPERAND.EDIT_BLOCK$
      668     9223                        will be NIL.
      669     9224            OUTPUT:
      670     9225                IT_COMMAND$ will be reset to point to the next
PL6.E3A0      #001=VDI$PDRIVER File=VDI$PARSE.:VDA5TSI                           FRI 07/04/97 11:33 Page:85
      671     9226                    VD$IT_COMMAND node to process, if any.
      672     9227                IT_COMMAND$'s InTree parameter, if it had one, will be removed.
      673     9228            DESCRIPTION:
      674     9229                This routine will process one command, as specified by a VD$IT_COMMAND
      675     9230                    node.
      676     9231                If the command has an explicit verb, call the appropriate command
      677     9232                    processor.
      678     9233                    If this is an editing command, reset the SelectedBlock's
      679     9234                    evaluation state to %EVST_INITIAL, ready for the next command.
      680     9235                If the command doesn't have an explicit verb, evaluate the
      681     9236                    range of the command's InTree:  this is the new range for the
      682     9237                    SelectedBlock.
      683     9238                In any case, discard all entries on the SelectedBlock's
      684     9239                    evaluation stack except the top entry; those generators
      685     9240                    aren't needed anymore.
      686     9241        */
      687     9242
      688     9243    1   PROCESS_COMMAND: PROC (IT_COMMAND$) ALTRET;

   9243  6 001027   200024 741300       PROCESS_COM* STX1  ! SINK$+1,,AUTO

      689     9244
      690     9245
      691     9246    2   DCL IT_COMMAND$ PTR;
      692     9247
      693     9248
      694     9249        /*
      695     9250        *   EQUs just for this routine.
      696     9251        */
      697     9252
      698     9253        %EQU NON_ED_CMD = 1;        /* Non-editing command */
      699     9254        %EQU EXPL_ED_CMD = 2;       /* Explicit editing command */
      700     9255        %EQU IMPL_ED_CMD = 3;       /* Implicit (verb-less) editing command */
      701     9256
      702     9257
      703     9258    2   DCL CMD_CLASS SBIN;
      704     9259    2   DCL CURR_WINDOW$ PTR;
PL6.E3A0      #001=VDI$PDRIVER File=VDI$PARSE.:VDA5TSI                           FRI 07/04/97 11:33 Page:86
      705     9260    2   DCL IT_BLOCK_EXPR$ PTR;
      706     9261    2   DCL SIGNAL BIT(1) ALIGNED;
      707     9262    2   DCL SAVE_SCREEN SBIN;
      708     9263    2   DCL DELFID_CMD    BIT(36)  STATIC SYMDEF INIT('0'B);
      709     9264
      710     9265
      711     9266        %VD$IT_COMMAND (NAME=IT$COMMAND, STCLASS="BASED(IT_COMMAND$)");
      712     9304        %PARSE$OUT (NAME=BLOCK$EXPR, STCLASS=BASED);
      713     9349        %VD$WINDOW_SPEC (NAME=CURR$WINDOW, STCLASS="BASED(CURR_WINDOW$)");
      714     9415        %VD$IT_BLOCK_EXPR (NAME=IT$BLOCK_EXPR, STCLASS="BASED(IT_BLOCK_EXPR$)");
      715     9565
      716     9566
      717     9567
      718     9568    2           CMD_CLASS = 0;

   9568  6 001030   200026 450100                    STZ     CMD_CLASS,,AUTO

      719     9569    3           DO CASE (IT$COMMAND.CODE#);

   9569  6 001031   200025 470500                    LDP0    @IT_COMMAND$,,AUTO
         6 001032   000000 471500                    LDP1    0,,PR0
         6 001033   100003 236100                    LDQ     3,,PR1
         6 001034   000022 732000                    QRS     18
         6 001035   001752 136007                    SBLQ    1002,DL
         6 001036   000105 116007                    CMPQ    69,DL
         6 001037   001041 602006 6                  TNC     s:9569+8,QL
         6 001040   001154 710000 6                  TRA     s:9577
         6 001041   001146 710000 6                  TRA     s:9573
         6 001042   001146 710000 6                  TRA     s:9573
         6 001043   001154 710000 6                  TRA     s:9577
         6 001044   001154 710000 6                  TRA     s:9577
         6 001045   001146 710000 6                  TRA     s:9573
         6 001046   001146 710000 6                  TRA     s:9573
         6 001047   001146 710000 6                  TRA     s:9573
         6 001050   001146 710000 6                  TRA     s:9573
         6 001051   001146 710000 6                  TRA     s:9573
         6 001052   001146 710000 6                  TRA     s:9573
PL6.E3A0      #001=VDI$PDRIVER File=VDI$PARSE.:VDA5TSI                           FRI 07/04/97 11:33 Page:87
         6 001053   001154 710000 6                  TRA     s:9577
         6 001054   001146 710000 6                  TRA     s:9573
         6 001055   001154 710000 6                  TRA     s:9577
         6 001056   001154 710000 6                  TRA     s:9577
         6 001057   001154 710000 6                  TRA     s:9577
         6 001060   001154 710000 6                  TRA     s:9577
         6 001061   001154 710000 6                  TRA     s:9577
         6 001062   001154 710000 6                  TRA     s:9577
         6 001063   001154 710000 6                  TRA     s:9577
         6 001064   001154 710000 6                  TRA     s:9577
         6 001065   001154 710000 6                  TRA     s:9577
         6 001066   001154 710000 6                  TRA     s:9577
         6 001067   001154 710000 6                  TRA     s:9577
         6 001070   001154 710000 6                  TRA     s:9577
         6 001071   001154 710000 6                  TRA     s:9577
         6 001072   001154 710000 6                  TRA     s:9577
         6 001073   001154 710000 6                  TRA     s:9577
         6 001074   001154 710000 6                  TRA     s:9577
         6 001075   001154 710000 6                  TRA     s:9577
         6 001076   001154 710000 6                  TRA     s:9577
         6 001077   001151 710000 6                  TRA     s:9575
         6 001100   001154 710000 6                  TRA     s:9577
         6 001101   001154 710000 6                  TRA     s:9577
         6 001102   001154 710000 6                  TRA     s:9577
         6 001103   001154 710000 6                  TRA     s:9577
         6 001104   001154 710000 6                  TRA     s:9577
         6 001105   001154 710000 6                  TRA     s:9577
         6 001106   001154 710000 6                  TRA     s:9577
         6 001107   001154 710000 6                  TRA     s:9577
         6 001110   001154 710000 6                  TRA     s:9577
         6 001111   001154 710000 6                  TRA     s:9577
         6 001112   001154 710000 6                  TRA     s:9577
         6 001113   001154 710000 6                  TRA     s:9577
         6 001114   001154 710000 6                  TRA     s:9577
         6 001115   001154 710000 6                  TRA     s:9577
         6 001116   001154 710000 6                  TRA     s:9577
         6 001117   001154 710000 6                  TRA     s:9577
PL6.E3A0      #001=VDI$PDRIVER File=VDI$PARSE.:VDA5TSI                           FRI 07/04/97 11:33 Page:88
         6 001120   001154 710000 6                  TRA     s:9577
         6 001121   001154 710000 6                  TRA     s:9577
         6 001122   001154 710000 6                  TRA     s:9577
         6 001123   001154 710000 6                  TRA     s:9577
         6 001124   001154 710000 6                  TRA     s:9577
         6 001125   001154 710000 6                  TRA     s:9577
         6 001126   001154 710000 6                  TRA     s:9577
         6 001127   001154 710000 6                  TRA     s:9577
         6 001130   001154 710000 6                  TRA     s:9577
         6 001131   001154 710000 6                  TRA     s:9577
         6 001132   001154 710000 6                  TRA     s:9577
         6 001133   001154 710000 6                  TRA     s:9577
         6 001134   001154 710000 6                  TRA     s:9577
         6 001135   001154 710000 6                  TRA     s:9577
         6 001136   001154 710000 6                  TRA     s:9577
         6 001137   001154 710000 6                  TRA     s:9577
         6 001140   001154 710000 6                  TRA     s:9577
         6 001141   001154 710000 6                  TRA     s:9577
         6 001142   001154 710000 6                  TRA     s:9577
         6 001143   001154 710000 6                  TRA     s:9577
         6 001144   001154 710000 6                  TRA     s:9577
         6 001145   001151 710000 6                  TRA     s:9575

      720     9570    3            CASE (%T_EDIT_CMD, %T_WINDOW_CMD,

      721     9571    3             %T_DISPLAY_CMD, %T_COPY_CMD, %T_MOVE_CMD, %T_AFTER_CMD,
      722     9572    3             %T_OVER_CMD, %T_DELETE_CMD, %T_LOCATION_CMD);
      723     9573    3              CMD_CLASS = %EXPL_ED_CMD;

   9573  6 001146   000002 235007                    LDA     2,DL
         6 001147   200026 755100                    STA     CMD_CLASS,,AUTO
         6 001150   001156 710000 6                  TRA     s:9581

      724     9574    3            CASE (%T_BLOCK_EXPR, %T_STRING_EXPR);

      725     9575    3              CMD_CLASS = %IMPL_ED_CMD;

PL6.E3A0      #001=VDI$PDRIVER File=VDI$PARSE.:VDA5TSI                           FRI 07/04/97 11:33 Page:89
   9575  6 001151   000003 235007                    LDA     3,DL
         6 001152   200026 755100                    STA     CMD_CLASS,,AUTO
         6 001153   001156 710000 6                  TRA     s:9581

      726     9576    3            CASE (ELSE);

      727     9577    3              CMD_CLASS = %NON_ED_CMD;

   9577  6 001154   000001 235007                    LDA     1,DL
         6 001155   200026 755100                    STA     CMD_CLASS,,AUTO

      728     9578    3            END;

      729     9579
      730     9580
      731     9581    2           IF CMD_CLASS = %EXPL_ED_CMD OR CMD_CLASS = %IMPL_ED_CMD THEN

   9581  6 001156   000002 115007                    CMPA    2,DL
         6 001157   001162 600000 6                  TZE     EDITING_COMMANDS
         6 001160   000003 115007                    CMPA    3,DL
         6 001161   001306 601000 6                  TNZ     s:9646

      732     9582    3   EDITING_COMMANDS: DO;

   9582  6 001162                       EDITING_COM* null
      733     9583                   /*
      734     9584                   *   For editing commands, if there isn't a current editing window,
      735     9585                   *       create one, after first creating the "real" command
      736     9586                   *       window, if we're using a temporary serial one.
      737     9587                   */
      738     9588    3              IF VD_OLD_$SCREEN > 0 AND VD_$COMMAND.V# = 0 THEN

   9588  6 001162   000000 236000 xsym               LDQ     VD_OLD_$SCREEN
         6 001163   001172 604400 6                  TMOZ    s:9592
         6 001164   000003 235000 xsym               LDA     VD_$COMMAND+3
         6 001165   001172 601000 6                  TNZ     s:9592

PL6.E3A0      #001=VDI$PDRIVER File=VDI$PARSE.:VDA5TSI                           FRI 07/04/97 11:33 Page:90
      739     9589    3                 CALL VDG$SHRINK_COMMAND_WINDOW (VD_$MIN_COMMAND.V#)

   9589  6 001166   000001 630400 7                  EPPR0   1
         6 001167   000017 631400 xsym               EPPR1   B_VECTNIL+15
         6 001170   000000 701000 xent               TSX1    VDG$SHRINK_COMMAND_WINDOW
         6 001171   001775 702000 6                  TSX2    PBLOCK_EXPR_FAILED

      740     9590    3                   ALTRET (CP_FAILED);
      741     9591
      742     9592    3              CALL EDITING_COMMAND_SEEN (CMD_CLASS)

   9592  6 001172   200026 630500                    EPPR0   CMD_CLASS,,AUTO
         6 001173   200041 450500                    STP0    IT_TEMP$+1,,AUTO
         6 001174   002017 701000 6                  TSX1    EDITING_COMMAND_SEEN
         6 001175   002015 702000 6                  TSX2    OALLOC_FAILED

      743     9593    3                ALTRET (EDITING_COMMAND_SEEN_FAILED);
      744     9594    3              IF IT$COMMAND.CODE# = %T_WINDOW_CMD AND

   9594  6 001176   200025 470500                    LDP0    @IT_COMMAND$,,AUTO
         6 001177   000000 471500                    LDP1    0,,PR0
         6 001200   100003 220100                    LDX0    3,,PR1
         6 001201   001753 100003                    CMPX0   1003,DU
         6 001202   001206 601000 6                  TNZ     s:9598
         6 001203   100004 236100                    LDQ     4,,PR1
         6 001204   000001 116000 xsym               CMPQ    B_VECTNIL+1
         6 001205   001306 600000 6                  TZE     s:9646

      745     9595    3                IT$COMMAND.PT_BLOCK_EXPR$ = ADDR(NIL)
      746     9596    3              THEN EXIT EDITING_COMMANDS;
      747     9597
      748     9598    3              CURR_WINDOW$ = VD_CURRENT_WINDOW$->VD$FILE_NODE.DESC.SPEC.V$;

   9598  6 001206   000000 473400 xsym               LDP3    VD_CURRENT_WINDOW$
         6 001207   300007 236100                    LDQ     7,,PR3
         6 001210   200027 756100                    STQ     CURR_WINDOW$,,AUTO

PL6.E3A0      #001=VDI$PDRIVER File=VDI$PARSE.:VDA5TSI                           FRI 07/04/97 11:33 Page:91
      749     9599
      750     9600                   /*
      751     9601                   *  If given a parse-tree for a block expression, convert it into an
      752     9602                   *      InTree.
      753     9603                   *  In any case, the InTree should be moved to the WindowSpec.
      754     9604                   */
      755     9605    4              IF IT$COMMAND.PT_BLOCK_EXPR$ ~= ADDR(NIL) THEN DO;

   9605  6 001211   100004 236100                    LDQ     4,,PR1
         6 001212   000001 116000 xsym               CMPQ    B_VECTNIL+1
         6 001213   001227 600000 6                  TZE     s:9611

      756     9606    4                 CALL VDE$PBLOCK_EXPR (IT$COMMAND.PT_BLOCK_EXPR$->BLOCK$EXPR)

   9606  6 001214   100004 474500                    LDP4    4,,PR1
         6 001215   200074 454500                    STP4    WLOC+19,,AUTO
         6 001216   200074 630500                    EPPR0   WLOC+19,,AUTO
         6 001217   000017 631400 xsym               EPPR1   B_VECTNIL+15
         6 001220   000000 701000 xent               TSX1    VDE$PBLOCK_EXPR
         6 001221   001775 702000 6                  TSX2    PBLOCK_EXPR_FAILED

      757     9607    4                   ALTRET (PBLOCK_EXPR_FAILED);
      758     9608    4                 IT$COMMAND.PT_BLOCK_EXPR$ = ADDR(NIL);

   9608  6 001222   200025 470500                    LDP0    @IT_COMMAND$,,AUTO
         6 001223   000000 471500                    LDP1    0,,PR0
         6 001224   000001 236000 xsym               LDQ     B_VECTNIL+1
         6 001225   100004 756100                    STQ     4,,PR1

      759     9609    4                 END;

   9609  6 001226   001235 710000 6                  TRA     s:9614

      760     9610    4              ELSE DO;

      761     9611    4                 CURR$WINDOW.OPERAND.INTREE$ = IT$COMMAND.PARAM$ (%CP_EDCMD_BLOCK);

PL6.E3A0      #001=VDI$PDRIVER File=VDI$PARSE.:VDA5TSI                           FRI 07/04/97 11:33 Page:92
   9611  6 001227   100006 236100                    LDQ     6,,PR1
         6 001230   200027 474500                    LDP4    CURR_WINDOW$,,AUTO
         6 001231   400011 756100                    STQ     9,,PR4

      762     9612    4                 IT$COMMAND.PARAM$ (%CP_EDCMD_BLOCK) = ADDR(NIL);

   9612  6 001232   000000 471500                    LDP1    0,,PR0
         6 001233   000001 236000 xsym               LDQ     B_VECTNIL+1
         6 001234   100006 756100                    STQ     6,,PR1

      763     9613    4                 END;

      764     9614    3              IT_BLOCK_EXPR$ = CURR$WINDOW.OPERAND.INTREE$;

   9614  6 001235   200027 471500                    LDP1    CURR_WINDOW$,,AUTO
         6 001236   100011 236100                    LDQ     9,,PR1
         6 001237   200030 756100                    STQ     IT_BLOCK_EXPR$,,AUTO

      765     9615
      766     9616    3              IF IT$COMMAND.CODE# = %T_EDIT_CMD

   9616  6 001240   000000 473500                    LDP3    0,,PR0
         6 001241   300003 220100                    LDX0    3,,PR3
         6 001242   001752 100003                    CMPX0   1002,DU
         6 001243   001256 601000 6                  TNZ     s:9629
         6 001244   200030 474500                    LDP4    IT_BLOCK_EXPR$,,AUTO
         6 001245   000000 106500                    CMPC    fill='000'O
         6 001246   400003 000124                    ADSC9   3,,PR4                   cn=0,n=84
         6 001247   000002 000002 xsym               ADSC9   B_VECTNIL+2              cn=0,n=2
         6 001250   001256 601000 6                  TNZ     s:9629

      767     9617    4                AND IT$BLOCK_EXPR.DOMAINN = %CLEAR THEN DO;

      768     9618                      /*
      769     9619                      *  This doesn't look like a new EditBlock.  But for
      770     9620                      *    the EDIT command, we always force a new EditBlock.
      771     9621                      */
PL6.E3A0      #001=VDI$PDRIVER File=VDI$PARSE.:VDA5TSI                           FRI 07/04/97 11:33 Page:93
      772     9622    4                 CALL NEW_EDIT_BLOCK_IN_OLD_DOMAIN (CURR$WINDOW, IT$BLOCK_EXPR)

   9622  6 001251   200036 756100                    STQ     @CMD_CLASS+1,,AUTO
         6 001252   200027 236100                    LDQ     CURR_WINDOW$,,AUTO
         6 001253   200035 756100                    STQ     SAVE_SCREEN+3,,AUTO
         6 001254   002373 701000 6                  TSX1    NEW_EDIT_BLOCK_IN_OLD_DOMAIN
         6 001255   002015 702000 6                  TSX2    OALLOC_FAILED

      773     9623    4                   ALTRET (NEW_EDIT_BLOCK_IN_OLD_FAILED);
      774     9624    4                 END;

      775     9625
      776     9626                   /*
      777     9627                   *  Except for the COPY and MOVE commands, call VDE$IOPEN.
      778     9628                   */
      779     9629    3              IF IT$COMMAND.CODE# ~= %T_COPY_CMD

   9629  6 001256   200025 470500                    LDP0    @IT_COMMAND$,,AUTO
         6 001257   000000 471500                    LDP1    0,,PR0
         6 001260   100003 220100                    LDX0    3,,PR1
         6 001261   001757 100003                    CMPX0   1007,DU
         6 001262   001306 600000 6                  TZE     s:9646
         6 001263   001760 100003                    CMPX0   1008,DU
         6 001264   001306 600000 6                  TZE     s:9646

      780     9630    4                AND IT$COMMAND.CODE# ~= %T_MOVE_CMD THEN DO;

      781     9631    4                 DELFID_CMD = '0'B;

   9631  6 001265   000000 450000 4                  STZ     DELFID_CMD

      782     9632    4                 IF IT$COMMAND.CODE# = %T_DELETE_CMD

   9632  6 001266   000000 471500                    LDP1    0,,PR0
         6 001267   100003 220100                    LDX0    3,,PR1
         6 001270   001763 100003                    CMPX0   1011,DU
         6 001271   001303 601000 6                  TNZ     s:9636
PL6.E3A0      #001=VDI$PDRIVER File=VDI$PARSE.:VDA5TSI                           FRI 07/04/97 11:33 Page:94
         6 001272   200030 473500                    LDP3    IT_BLOCK_EXPR$,,AUTO
         6 001273   300036 474500                    LDP4    30,,PR3
         6 001274   400005 475500                    LDP5    5,,PR4
         6 001275   500005 476500                    LDP6    5,,PR5
         6 001276   600003 221100                    LDX1    3,,PR6
         6 001277   000001 101003                    CMPX1   1,DU
         6 001300   001303 601000 6                  TNZ     s:9636

      783     9633    4                   AND IT$BLOCK_EXPR.SELECTS_TAIL$ -> IT$SELECT.ADJUSTS_TAIL$ ->
      784     9634    4                   IT$ADJUST.MOVEMENTS_TAIL$ -> IT$OPERAND.CODE# = %OPAND_FILE THEN
      785     9635    4                    DELFID_CMD = '1'B;

   9635  6 001301   400000 236003                    LDQ     -131072,DU
         6 001302   000000 756000 4                  STQ     DELFID_CMD

      786     9636    4                 CALL VDE$IOPEN ALTRET (IOPEN_FAILED);

   9636  6 001303   000002 631400 xsym               EPPR1   B_VECTNIL+2
         6 001304   000000 701000 xent               TSX1    VDE$IOPEN
         6 001305   001775 702000 6                  TSX2    PBLOCK_EXPR_FAILED

      787     9637    4                 END;

      788     9638
      789     9639    3              END EDITING_COMMANDS;

      790     9640
      791     9641
      792     9642                /*
      793     9643                *   Call the appropriate command processor.
      794     9644                */
      795     9645
      796     9646    3           DO CASE (IT$COMMAND.CODE#);

   9646  6 001306   200025 470500                    LDP0    @IT_COMMAND$,,AUTO
         6 001307   000000 471500                    LDP1    0,,PR0
         6 001310   100003 236100                    LDQ     3,,PR1
PL6.E3A0      #001=VDI$PDRIVER File=VDI$PARSE.:VDA5TSI                           FRI 07/04/97 11:33 Page:95
         6 001311   000022 732000                    QRS     18
         6 001312   001752 136007                    SBLQ    1002,DL
         6 001313   000105 116007                    CMPQ    69,DL
         6 001314   001316 602006 6                  TNC     s:9646+8,QL
         6 001315   001732 710000 6                  TRA     s:9770
         6 001316   001460 710000 6                  TRA     s:9662
         6 001317   001561 710000 6                  TRA     s:9699
         6 001320   001732 710000 6                  TRA     s:9770
         6 001321   001732 710000 6                  TRA     s:9770
         6 001322   001600 710000 6                  TRA     s:9706
         6 001323   001604 710000 6                  TRA     s:9710
         6 001324   001610 710000 6                  TRA     s:9714
         6 001325   001614 710000 6                  TRA     s:9718
         6 001326   001620 710000 6                  TRA     s:9722
         6 001327   001624 710000 6                  TRA     s:9726
         6 001330   001636 710000 6                  TRA     s:9734
         6 001331   001644 710000 6                  TRA     s:9738
         6 001332   001652 710000 6                  TRA     s:9742
         6 001333   001732 710000 6                  TRA     s:9770
         6 001334   001732 710000 6                  TRA     s:9770
         6 001335   001660 710000 6                  TRA     s:9746
         6 001336   001732 710000 6                  TRA     s:9770
         6 001337   001732 710000 6                  TRA     s:9770
         6 001340   001732 710000 6                  TRA     s:9770
         6 001341   001732 710000 6                  TRA     s:9770
         6 001342   001666 710000 6                  TRA     s:9750
         6 001343   001732 710000 6                  TRA     s:9770
         6 001344   001732 710000 6                  TRA     s:9770
         6 001345   001732 710000 6                  TRA     s:9770
         6 001346   001467 710000 6                  TRA     s:9666
         6 001347   001732 710000 6                  TRA     s:9770
         6 001350   001705 710000 6                  TRA     s:9759
         6 001351   001674 710000 6                  TRA     s:9754
         6 001352   001713 710000 6                  TRA     s:9763
         6 001353   001732 710000 6                  TRA     s:9770
         6 001354   001423 710000 6                  TRA     s:9650
         6 001355   001732 710000 6                  TRA     s:9770
PL6.E3A0      #001=VDI$PDRIVER File=VDI$PARSE.:VDA5TSI                           FRI 07/04/97 11:33 Page:96
         6 001356   001732 710000 6                  TRA     s:9770
         6 001357   001732 710000 6                  TRA     s:9770
         6 001360   001732 710000 6                  TRA     s:9770
         6 001361   001732 710000 6                  TRA     s:9770
         6 001362   001732 710000 6                  TRA     s:9770
         6 001363   001732 710000 6                  TRA     s:9770
         6 001364   001732 710000 6                  TRA     s:9770
         6 001365   001732 710000 6                  TRA     s:9770
         6 001366   001732 710000 6                  TRA     s:9770
         6 001367   001732 710000 6                  TRA     s:9770
         6 001370   001732 710000 6                  TRA     s:9770
         6 001371   001732 710000 6                  TRA     s:9770
         6 001372   001732 710000 6                  TRA     s:9770
         6 001373   001732 710000 6                  TRA     s:9770
         6 001374   001732 710000 6                  TRA     s:9770
         6 001375   001732 710000 6                  TRA     s:9770
         6 001376   001732 710000 6                  TRA     s:9770
         6 001377   001732 710000 6                  TRA     s:9770
         6 001400   001732 710000 6                  TRA     s:9770
         6 001401   001732 710000 6                  TRA     s:9770
         6 001402   001732 710000 6                  TRA     s:9770
         6 001403   001732 710000 6                  TRA     s:9770
         6 001404   001732 710000 6                  TRA     s:9770
         6 001405   001732 710000 6                  TRA     s:9770
         6 001406   001732 710000 6                  TRA     s:9770
         6 001407   001732 710000 6                  TRA     s:9770
         6 001410   001732 710000 6                  TRA     s:9770
         6 001411   001732 710000 6                  TRA     s:9770
         6 001412   001732 710000 6                  TRA     s:9770
         6 001413   001732 710000 6                  TRA     s:9770
         6 001414   001732 710000 6                  TRA     s:9770
         6 001415   001732 710000 6                  TRA     s:9770
         6 001416   001732 710000 6                  TRA     s:9770
         6 001417   001732 710000 6                  TRA     s:9770
         6 001420   001732 710000 6                  TRA     s:9770
         6 001421   001732 710000 6                  TRA     s:9770
         6 001422   001423 710000 6                  TRA     s:9650
PL6.E3A0      #001=VDI$PDRIVER File=VDI$PARSE.:VDA5TSI                           FRI 07/04/97 11:33 Page:97

      797     9647
      798     9648    3            CASE (%T_BLOCK_EXPR, %T_STRING_EXPR);

      799     9649                   %INCREMENT (INDX=%STG_BLKEXPR_CMD);

   9650  6 001423   000040 054000 xsym               AOS     VD_6E+32

      800     9652    3              CALL VDE$IRANGE (CURR$WINDOW.OPERAND, SIGNAL)

   9652  6 001424   200031 631500                    EPPR1   SIGNAL,,AUTO
         6 001425   200075 451500                    STP1    WLOC+20,,AUTO
         6 001426   200027 236100                    LDQ     CURR_WINDOW$,,AUTO
         6 001427   000010 036003                    ADLQ    8,DU
         6 001430   200074 756100                    STQ     WLOC+19,,AUTO
         6 001431   200074 630500                    EPPR0   WLOC+19,,AUTO
         6 001432   000020 631400 xsym               EPPR1   B_VECTNIL+16
         6 001433   000000 701000 xent               TSX1    VDE$IRANGE
         6 001434   001775 702000 6                  TSX2    PBLOCK_EXPR_FAILED

      801     9653    3                ALTRET (IRANGE_FAILED);
      802     9654                   /* Note that SIGNAL says if we found a range or not */
      803     9655    4              IF NOT SIGNAL THEN DO;

   9655  6 001435   200031 234100                    SZN     SIGNAL,,AUTO
         6 001436   001740 604000 6                  TMI     s:9779

      804     9656    4                 CALL VDG$OALLOC (%CLS_ERR, VD_ERR$) ALTRET (OALLOC_FAILED);

   9656  6 001437   200016 630500                    EPPR0   VD_ERR$,,AUTO
         6 001440   200075 450500                    STP0    WLOC+20,,AUTO
         6 001441   000012 236000 7                  LDQ     10
         6 001442   200074 756100                    STQ     WLOC+19,,AUTO
         6 001443   200074 630500                    EPPR0   WLOC+19,,AUTO
         6 001444   000020 631400 xsym               EPPR1   B_VECTNIL+16
         6 001445   000000 701000 xent               TSX1    VDG$OALLOC
         6 001446   002015 702000 6                  TSX2    OALLOC_FAILED
PL6.E3A0      #001=VDI$PDRIVER File=VDI$PARSE.:VDA5TSI                           FRI 07/04/97 11:33 Page:98

      805     9657    4                 VD$ERR.ERR.CODE# = %E$INFO_NONE;

   9657  6 001447   200016 470500                    LDP0    VD_ERR$,,AUTO
         6 001450   000002 236100                    LDQ     2,,PR0
         6 001451   000013 376000 7                  ANQ     11
         6 001452   000120 276007                    ORQ     80,DL
         6 001453   000002 756100                    STQ     2,,PR0

      806     9658    4                 VD$ERR.FLAGLEV# = %FLV_WARN;

   9658  6 001454   000002 220003                    LDX0    2,DU
         6 001455   200016 470500                    LDP0    VD_ERR$,,AUTO
         6 001456   000003 740100                    STX0    3,,PR0

      807     9659    4                 END;

   9659  6 001457   001740 710000 6                  TRA     s:9779

      808     9660
      809     9661    3            CASE (%T_EDIT_CMD);

      810     9662    3              CALL VDI$CEDIT

   9662  6 001460   000002 631400 xsym               EPPR1   B_VECTNIL+2
         6 001461   000000 701000 xent               TSX1    VDI$CEDIT
         6 001462   001775 702000 6                  TSX2    PBLOCK_EXPR_FAILED

      811     9663    3                ALTRET (CP_FAILED);
      812     9664    3              CURR_WINDOW$ = VD_CURRENT_WINDOW$->VD$FILE_NODE.DESC.SPEC.V$;

   9664  6 001463   000000 470400 xsym               LDP0    VD_CURRENT_WINDOW$
         6 001464   000007 236100                    LDQ     7,,PR0
         6 001465   200027 756100                    STQ     CURR_WINDOW$,,AUTO
         6 001466   001740 710000 6                  TRA     s:9779

      813     9665    3            CASE (%T_SHOW_CMD);
PL6.E3A0      #001=VDI$PDRIVER File=VDI$PARSE.:VDA5TSI                           FRI 07/04/97 11:33 Page:99

      814     9666    3              SIGNAL = '0'B;

   9666  6 001467   200031 450100                    STZ     SIGNAL,,AUTO

      815     9667                   /* Parse the block expression first */
      816     9668    3              IF VD_CURRENT_WINDOW$ = ADDR(NIL) THEN

   9668  6 001470   000000 236000 xsym               LDQ     VD_CURRENT_WINDOW$
         6 001471   000001 116000 xsym               CMPQ    B_VECTNIL+1
         6 001472   001475 601000 6                  TNZ     s:9670

      817     9669    3                 VD_CURRENT_WINDOW$ = VD_COMMAND_WINDOW$;

   9669  6 001473   000000 236000 xsym               LDQ     VD_COMMAND_WINDOW$
         6 001474   000000 756000 xsym               STQ     VD_CURRENT_WINDOW$

      818     9670    3              CALL VDE$PBLOCK_EXPR (IT$COMMAND.PT_BLOCK_EXPR$->BLOCK$EXPR)

   9670  6 001475   000000 471500                    LDP1    0,,PR0
         6 001476   100004 473500                    LDP3    4,,PR1
         6 001477   200074 453500                    STP3    WLOC+19,,AUTO
         6 001500   200074 630500                    EPPR0   WLOC+19,,AUTO
         6 001501   000017 631400 xsym               EPPR1   B_VECTNIL+15
         6 001502   000000 701000 xent               TSX1    VDE$PBLOCK_EXPR
         6 001503   001514 702000 6                  TSX2    SHOW_PBLOCK_EXPR_FAILED

      819     9671    3                ALTRET (SHOW_PBLOCK_EXPR_FAILED);
      820     9672    3              IT$COMMAND.PT_BLOCK_EXPR$ = ADDR(NIL);

   9672  6 001504   200025 470500                    LDP0    @IT_COMMAND$,,AUTO
         6 001505   000000 471500                    LDP1    0,,PR0
         6 001506   000001 236000 xsym               LDQ     B_VECTNIL+1
         6 001507   100004 756100                    STQ     4,,PR1

      821     9673                   /* Now move the InTree to the source Operand, protected */
      822     9674    4              CALL VDI$CCOPY WHENALTRETURN DO;
PL6.E3A0      #001=VDI$PDRIVER File=VDI$PARSE.:VDA5TSI                           FRI 07/04/97 11:33 Page:100

   9674  6 001510   000002 631400 xsym               EPPR1   B_VECTNIL+2
         6 001511   000000 701000 xent               TSX1    VDI$CCOPY
         6 001512   001514 702000 6                  TSX2    SHOW_PBLOCK_EXPR_FAILED
         6 001513   001516 710000 6                  TRA     s:9677

      823     9675    4   SHOW_PBLOCK_EXPR_FAILED: SIGNAL = %TRUE;

   9675  6 001514   400000 236003       SHOW_PBLOCK* LDQ     -131072,DU
         6 001515   200031 756100                    STQ     SIGNAL,,AUTO

      824     9676    4                 END;

      825     9677    3              IF VD_CURRENT_WINDOW$ = VD_COMMAND_WINDOW$ THEN

   9677  6 001516   000000 236000 xsym               LDQ     VD_CURRENT_WINDOW$
         6 001517   000000 116000 xsym               CMPQ    VD_COMMAND_WINDOW$
         6 001520   001523 601000 6                  TNZ     s:9680

      826     9678    3                 VD_CURRENT_WINDOW$ = ADDR(NIL);

   9678  6 001521   000001 236000 xsym               LDQ     B_VECTNIL+1
         6 001522   000000 756000 xsym               STQ     VD_CURRENT_WINDOW$

      827     9679
      828     9680    3              IF SIGNAL THEN

   9680  6 001523   200031 234100                    SZN     SIGNAL,,AUTO
         6 001524   001775 604000 6                  TMI     PBLOCK_EXPR_FAILED

      829     9681    3                 GOTO CP_FAILED;
      830     9682    3              IF VD_$SCREEN.V# > 0

   9682  6 001525   000003 235000 xsym               LDA     VD_$SCREEN+3
         6 001526   001536 604400 6                  TMOZ    s:9686
         6 001527   000000 235000 xsym               LDA     VD_FORCE_READ_FROM
         6 001530   000002 115007                    CMPA    2,DL
PL6.E3A0      #001=VDI$PDRIVER File=VDI$PARSE.:VDA5TSI                           FRI 07/04/97 11:33 Page:101
         6 001531   001536 600000 6                  TZE     s:9686

      831     9683    3                AND VD_FORCE_READ_FROM ~= %RF_EDITING_WINDOW THEN
      832     9684    3                 CALL VDG$EXPAND_COMMAND_WINDOW (VD_$SCREEN.V#);

   9684  6 001532   000011 630400 7                  EPPR0   9
         6 001533   000017 631400 xsym               EPPR1   B_VECTNIL+15
         6 001534   000000 701000 xent               TSX1    VDG$EXPAND_COMMAND_WINDOW
         6 001535   000000 011000                    NOP     0

      833     9685
      834     9686    3              SAVE_SCREEN = VD_$SCREEN.V#;

   9686  6 001536   000003 235000 xsym               LDA     VD_$SCREEN+3
         6 001537   200032 755100                    STA     SAVE_SCREEN,,AUTO

      835     9687    3              VD_$SCREEN.V# = 0;

   9687  6 001540   000003 450000 xsym               STZ     VD_$SCREEN+3

      836     9688    3              CALL VDI$CSHOW

   9688  6 001541   000002 631400 xsym               EPPR1   B_VECTNIL+2
         6 001542   000000 701000 xent               TSX1    VDI$CSHOW
         6 001543   001545 702000 6                  TSX2    s:9690
         6 001544   001547 710000 6                  TRA     s:9693

      837     9689    4              WHENALTRETURN DO;

      838     9690    4                 SIGNAL = '1'B;

   9690  6 001545   400000 236003                    LDQ     -131072,DU
         6 001546   200031 756100                    STQ     SIGNAL,,AUTO

      839     9691    4                 END;

      840     9692
PL6.E3A0      #001=VDI$PDRIVER File=VDI$PARSE.:VDA5TSI                           FRI 07/04/97 11:33 Page:102
      841     9693    3              VD_$SCREEN.V# = SAVE_SCREEN;

   9693  6 001547   200032 235100                    LDA     SAVE_SCREEN,,AUTO
         6 001550   000003 755000 xsym               STA     VD_$SCREEN+3

      842     9694
      843     9695    3              IF VD_FORCE_READ_FROM ~= %RF_EDITING_WINDOW THEN

   9695  6 001551   000000 236000 xsym               LDQ     VD_FORCE_READ_FROM
         6 001552   000002 116007                    CMPQ    2,DL
         6 001553   001556 600000 6                  TZE     s:9697

      844     9696    3                 VD_FORCE_READ_FROM = %RF_COMMAND_WINDOW;

   9696  6 001554   000001 235007                    LDA     1,DL
         6 001555   000000 755000 xsym               STA     VD_FORCE_READ_FROM

      845     9697    3              IF SIGNAL THEN GOTO CP_FAILED;

   9697  6 001556   200031 234100                    SZN     SIGNAL,,AUTO
         6 001557   001775 604000 6                  TMI     PBLOCK_EXPR_FAILED
         6 001560   001740 710000 6                  TRA     s:9779

      846     9698    3            CASE (%T_WINDOW_CMD);

      847     9699    3              IF VD_CURRENT_WINDOW$ = ADDR(NIL) THEN EXIT;

   9699  6 001561   000000 236000 xsym               LDQ     VD_CURRENT_WINDOW$
         6 001562   000001 116000 xsym               CMPQ    B_VECTNIL+1
         6 001563   001740 600000 6                  TZE     s:9779

      848     9700    3              IF VD_CURRENT_WINDOW$ -> VD$FILE_NODE.DESC.SPEC.V$ ->

   9700  6 001564   000000 473400 xsym               LDP3    VD_CURRENT_WINDOW$
         6 001565   300007 474500                    LDP4    7,,PR3
         6 001566   400011 236100                    LDQ     9,,PR4
         6 001567   000001 116000 xsym               CMPQ    B_VECTNIL+1
PL6.E3A0      #001=VDI$PDRIVER File=VDI$PARSE.:VDA5TSI                           FRI 07/04/97 11:33 Page:103
         6 001570   001574 600000 6                  TZE     s:9703

      849     9701    3                CURR$WINDOW.OPERAND.INTREE$ ~= ADDR(NIL) THEN
      850     9702    3                 CALL VDI$CEDIT ALTRET (CP_FAILED);

   9702  6 001571   000002 631400 xsym               EPPR1   B_VECTNIL+2
         6 001572   000000 701000 xent               TSX1    VDI$CEDIT
         6 001573   001775 702000 6                  TSX2    PBLOCK_EXPR_FAILED

      851     9703    3              CURR_WINDOW$ = VD_CURRENT_WINDOW$->VD$FILE_NODE.DESC.SPEC.V$;

   9703  6 001574   000000 470400 xsym               LDP0    VD_CURRENT_WINDOW$
         6 001575   000007 236100                    LDQ     7,,PR0
         6 001576   200027 756100                    STQ     CURR_WINDOW$,,AUTO
         6 001577   001740 710000 6                  TRA     s:9779

      852     9704
      853     9705    3            CASE (%T_DISPLAY_CMD);

      854     9706    3              CALL VDI$CDISPLAY

   9706  6 001600   000002 631400 xsym               EPPR1   B_VECTNIL+2
         6 001601   000000 701000 xent               TSX1    VDI$CDISPLAY
         6 001602   001775 702000 6                  TSX2    PBLOCK_EXPR_FAILED
         6 001603   001740 710000 6                  TRA     s:9779

      855     9707    3                ALTRET (CP_FAILED);
      856     9708
      857     9709    3            CASE (%T_COPY_CMD);

      858     9710    3              CALL VDI$CCOPY

   9710  6 001604   000002 631400 xsym               EPPR1   B_VECTNIL+2
         6 001605   000000 701000 xent               TSX1    VDI$CCOPY
         6 001606   001775 702000 6                  TSX2    PBLOCK_EXPR_FAILED
         6 001607   001740 710000 6                  TRA     s:9779

PL6.E3A0      #001=VDI$PDRIVER File=VDI$PARSE.:VDA5TSI                           FRI 07/04/97 11:33 Page:104
      859     9711    3                ALTRET (CP_FAILED);
      860     9712
      861     9713    3            CASE (%T_MOVE_CMD);

      862     9714    3              CALL VDI$CMOVE

   9714  6 001610   000002 631400 xsym               EPPR1   B_VECTNIL+2
         6 001611   000000 701000 xent               TSX1    VDI$CMOVE
         6 001612   001775 702000 6                  TSX2    PBLOCK_EXPR_FAILED
         6 001613   001740 710000 6                  TRA     s:9779

      863     9715    3                ALTRET (CP_FAILED);
      864     9716
      865     9717    3            CASE (%T_AFTER_CMD);

      866     9718    3              CALL VDI$CAFTER

   9718  6 001614   000002 631400 xsym               EPPR1   B_VECTNIL+2
         6 001615   000000 701000 xent               TSX1    VDI$CAFTER
         6 001616   001775 702000 6                  TSX2    PBLOCK_EXPR_FAILED
         6 001617   001740 710000 6                  TRA     s:9779

      867     9719    3                ALTRET (CP_FAILED);
      868     9720
      869     9721    3            CASE (%T_OVER_CMD);

      870     9722    3              CALL VDI$COVER

   9722  6 001620   000002 631400 xsym               EPPR1   B_VECTNIL+2
         6 001621   000000 701000 xent               TSX1    VDI$COVER
         6 001622   001775 702000 6                  TSX2    PBLOCK_EXPR_FAILED
         6 001623   001740 710000 6                  TRA     s:9779

      871     9723    3                ALTRET (CP_FAILED);
      872     9724
      873     9725    3            CASE (%T_DELETE_CMD);

PL6.E3A0      #001=VDI$PDRIVER File=VDI$PARSE.:VDA5TSI                           FRI 07/04/97 11:33 Page:105
      874     9726    3              IF NOT DELFID_CMD THEN

   9726  6 001624   000000 235000 4                  LDA     DELFID_CMD
         6 001625   001632 601000 6                  TNZ     s:9730

      875     9727    3                 CALL VDI$CDELETE

   9727  6 001626   000002 631400 xsym               EPPR1   B_VECTNIL+2
         6 001627   000000 701000 xent               TSX1    VDI$CDELETE
         6 001630   001775 702000 6                  TSX2    PBLOCK_EXPR_FAILED
         6 001631   001740 710000 6                  TRA     s:9779

      876     9728    3                   ALTRET (CP_FAILED);
      877     9729    3              ELSE
      878     9730    3                 CALL VDI$CDELETE_FID

   9730  6 001632   000002 631400 xsym               EPPR1   B_VECTNIL+2
         6 001633   000000 701000 xent               TSX1    VDI$CDELETE_FID
         6 001634   001775 702000 6                  TSX2    PBLOCK_EXPR_FAILED
         6 001635   001740 710000 6                  TRA     s:9779

      879     9731    3                   ALTRET (CP_FAILED);
      880     9732
      881     9733    3            CASE (%T_EQUALS_CMD);

      882     9734    3              CALL VDI$CEQUALS (IT$COMMAND)

   9734  6 001636   200074 451500                    STP1    WLOC+19,,AUTO
         6 001637   200074 630500                    EPPR0   WLOC+19,,AUTO
         6 001640   000017 631400 xsym               EPPR1   B_VECTNIL+15
         6 001641   000000 701000 xent               TSX1    VDI$CEQUALS
         6 001642   001775 702000 6                  TSX2    PBLOCK_EXPR_FAILED
         6 001643   001740 710000 6                  TRA     s:9779

      883     9735    3                ALTRET (CP_FAILED);
      884     9736
      885     9737    3            CASE (%T_LOCATION_CMD);
PL6.E3A0      #001=VDI$PDRIVER File=VDI$PARSE.:VDA5TSI                           FRI 07/04/97 11:33 Page:106

      886     9738    3              CALL VDI$CLOCATION (IT$COMMAND)

   9738  6 001644   200074 451500                    STP1    WLOC+19,,AUTO
         6 001645   200074 630500                    EPPR0   WLOC+19,,AUTO
         6 001646   000017 631400 xsym               EPPR1   B_VECTNIL+15
         6 001647   000000 701000 xent               TSX1    VDI$CLOCATION
         6 001650   001775 702000 6                  TSX2    PBLOCK_EXPR_FAILED
         6 001651   001740 710000 6                  TRA     s:9779

      887     9739    3                ALTRET (CP_FAILED);
      888     9740
      889     9741    3            CASE (%T_SYNONYM_CMD);

      890     9742    3              CALL VDI$CSYNONYM (IT$COMMAND)

   9742  6 001652   200074 451500                    STP1    WLOC+19,,AUTO
         6 001653   200074 630500                    EPPR0   WLOC+19,,AUTO
         6 001654   000017 631400 xsym               EPPR1   B_VECTNIL+15
         6 001655   000000 701000 xent               TSX1    VDI$CSYNONYM
         6 001656   001775 702000 6                  TSX2    PBLOCK_EXPR_FAILED
         6 001657   001740 710000 6                  TRA     s:9779

      891     9743    3                ALTRET (CP_FAILED);
      892     9744
      893     9745    3            CASE (%T_KEYIN_CMD);

      894     9746    3              CALL VDI$CKEYIN (IT$COMMAND)

   9746  6 001660   200074 451500                    STP1    WLOC+19,,AUTO
         6 001661   200074 630500                    EPPR0   WLOC+19,,AUTO
         6 001662   000017 631400 xsym               EPPR1   B_VECTNIL+15
         6 001663   000000 701000 xent               TSX1    VDI$CKEYIN
         6 001664   001775 702000 6                  TSX2    PBLOCK_EXPR_FAILED
         6 001665   001740 710000 6                  TRA     s:9779

      895     9747    3                ALTRET (CP_FAILED);
PL6.E3A0      #001=VDI$PDRIVER File=VDI$PARSE.:VDA5TSI                           FRI 07/04/97 11:33 Page:107
      896     9748
      897     9749    3            CASE (%T_SAVE_CMD);

      898     9750    3              CALL VDI$CSAVE (IT$COMMAND)

   9750  6 001666   200074 451500                    STP1    WLOC+19,,AUTO
         6 001667   200074 630500                    EPPR0   WLOC+19,,AUTO
         6 001670   000017 631400 xsym               EPPR1   B_VECTNIL+15
         6 001671   000000 701000 xent               TSX1    VDI$CSAVE
         6 001672   001775 702000 6                  TSX2    PBLOCK_EXPR_FAILED
         6 001673   001740 710000 6                  TRA     s:9779

      899     9751    3                ALTRET (CP_FAILED);
      900     9752
      901     9753    3            CASE (%T_READ_CMD);

      902     9754    3              CALL VDI$CREAD (IT$COMMAND)

   9754  6 001674   200074 451500                    STP1    WLOC+19,,AUTO
         6 001675   200074 630500                    EPPR0   WLOC+19,,AUTO
         6 001676   000017 631400 xsym               EPPR1   B_VECTNIL+15
         6 001677   000000 701000 xent               TSX1    VDI$CREAD
         6 001700   001775 702000 6                  TSX2    PBLOCK_EXPR_FAILED

      903     9755    3                ALTRET (CP_FAILED);
      904     9756                   /* Force no more processing of this record for now */
      905     9757    3              IT_COMMAND$ = ADDR(NIL);

   9757  6 001701   000001 236000 xsym               LDQ     B_VECTNIL+1
         6 001702   200025 470500                    LDP0    @IT_COMMAND$,,AUTO
         6 001703   000000 756100                    STQ     0,,PR0
         6 001704   001740 710000 6                  TRA     s:9779

      906     9758    3            CASE (%T_RESTORE_CMD);

      907     9759    3              CALL VDI$CRESTORE (IT$COMMAND)

PL6.E3A0      #001=VDI$PDRIVER File=VDI$PARSE.:VDA5TSI                           FRI 07/04/97 11:33 Page:108
   9759  6 001705   200074 451500                    STP1    WLOC+19,,AUTO
         6 001706   200074 630500                    EPPR0   WLOC+19,,AUTO
         6 001707   000017 631400 xsym               EPPR1   B_VECTNIL+15
         6 001710   000000 701000 xent               TSX1    VDI$CRESTORE
         6 001711   001775 702000 6                  TSX2    PBLOCK_EXPR_FAILED
         6 001712   001740 710000 6                  TRA     s:9779

      908     9760    3                ALTRET (CP_FAILED);
      909     9761
      910     9762    3            CASE (%T_END_CMD);

      911     9763    3              IF IT$COMMAND.FLINK$ ~= ADDR(NIL)

   9763  6 001713   100002 236100                    LDQ     2,,PR1
         6 001714   000001 116000 xsym               CMPQ    B_VECTNIL+1
         6 001715   001755 601000 6                  TNZ     END_NOT_LAST_FAILURE
         6 001716   200011 473500                    LDP3    COMMAND_LINE$,,AUTO
         6 001717   300001 236100                    LDQ     1,,PR3
         6 001720   000022 772000                    QRL     18
         6 001721   200012 116100                    CMPQ    CL_INDEX,,AUTO
         6 001722   001724 600000 6                  TZE     s:9766
         6 001723   001755 603000 6                  TRC     END_NOT_LAST_FAILURE

      912     9764    3                OR CL_INDEX<COMMAND$LINE.NSUBLKS THEN
      913     9765    3                 GOTO END_NOT_LAST_FAILURE;
      914     9766    3              CALL VDI$CEND (IT$COMMAND)

   9766  6 001724   200074 451500                    STP1    WLOC+19,,AUTO
         6 001725   200074 630500                    EPPR0   WLOC+19,,AUTO
         6 001726   000017 631400 xsym               EPPR1   B_VECTNIL+15
         6 001727   000000 701000 xent               TSX1    VDI$CEND
         6 001730   001775 702000 6                  TSX2    PBLOCK_EXPR_FAILED
         6 001731   001740 710000 6                  TRA     s:9779

      915     9767    3                ALTRET (CP_FAILED);
      916     9768
      917     9769    3            CASE (ELSE);
PL6.E3A0      #001=VDI$PDRIVER File=VDI$PARSE.:VDA5TSI                           FRI 07/04/97 11:33 Page:109

      918     9770    3              CALL VDG$ESCREECH (IT$COMMAND.CODE#);

   9770  6 001732   100003 633500                    EPPR3   3,,PR1
         6 001733   200074 453500                    STP3    WLOC+19,,AUTO
         6 001734   200074 630500                    EPPR0   WLOC+19,,AUTO
         6 001735   000017 631400 xsym               EPPR1   B_VECTNIL+15
         6 001736   000000 701000 xent               TSX1    VDG$ESCREECH
         6 001737   000000 011000                    NOP     0

      919     9771
      920     9772    3            END;

      921     9773
      922     9774                /*
      923     9775                *   Discard all the evaluation stack except the top entry.
      924     9776                *   Discard the InTree.
      925     9777                */
      926     9778
      927     9779    2           CALL CLEAN_UP_AFTER_COMMAND (CMD_CLASS)

   9779  6 001740   200026 630500                    EPPR0   CMD_CLASS,,AUTO
         6 001741   200035 450500                    STP0    SAVE_SCREEN+3,,AUTO
         6 001742   002576 701000 6                  TSX1    CLEAN_UP_AFTER_COMMAND
         6 001743   002015 702000 6                  TSX2    OALLOC_FAILED

      928     9780    2             ALTRET (CLEAN_UP_AFTER_COMMAND_FAILED);
      929     9781
      930     9782    2           IF IT_COMMAND$ ~= ADDR(NIL) THEN

   9782  6 001744   200025 470500                    LDP0    @IT_COMMAND$,,AUTO
         6 001745   000000 236100                    LDQ     0,,PR0
         6 001746   000001 116000 xsym               CMPQ    B_VECTNIL+1
         6 001747   001753 600000 6                  TZE     s:9785

      931     9783    2              IT_COMMAND$ = IT$COMMAND.FLINK$;

PL6.E3A0      #001=VDI$PDRIVER File=VDI$PARSE.:VDA5TSI                           FRI 07/04/97 11:33 Page:110
   9783  6 001750   000000 471500                    LDP1    0,,PR0
         6 001751   100002 236100                    LDQ     2,,PR1
         6 001752   000000 756100                    STQ     0,,PR0

      932     9784
      933     9785    2           RETURN;

   9785  6 001753   200024 221300                    LDX1  ! SINK$+1,,AUTO
         6 001754   000001 702211                    TSX2  ! 1,X1

      934     9786
      935     9787
      936     9788                %BOX (TITLE="Error Handlers");

              9800    2   /***************************************************************************
              9802    2    *                                                                         *
              9806    2            *                               Error Handlers                           *
              9808    2            *                                                                        *
              9810    2          ***************************************************************************/

      937     9814
      938     9815    2   END_NOT_LAST_FAILURE:
      939     9816    2           CALL VDG$OALLOC (%CLS_ERR, VD_ERR$)

   9816  6 001755   200016 633500       END_NOT_LAS* EPPR3   VD_ERR$,,AUTO
         6 001756   200075 453500                    STP3    WLOC+20,,AUTO
         6 001757   000012 236000 7                  LDQ     10
         6 001760   200074 756100                    STQ     WLOC+19,,AUTO
         6 001761   200074 630500                    EPPR0   WLOC+19,,AUTO
         6 001762   000020 631400 xsym               EPPR1   B_VECTNIL+16
         6 001763   000000 701000 xent               TSX1    VDG$OALLOC
         6 001764   002015 702000 6                  TSX2    OALLOC_FAILED

      940     9817    2             ALTRET (OALLOC_FAILED);
      941     9818    2           VD$ERR.ERR.CODE# = %E$END_NOT_LAST_CMD;

   9818  6 001765   200016 470500                    LDP0    VD_ERR$,,AUTO
PL6.E3A0      #001=VDI$PDRIVER File=VDI$PARSE.:VDA5TSI                           FRI 07/04/97 11:33 Page:111
         6 001766   000002 236100                    LDQ     2,,PR0
         6 001767   000013 376000 7                  ANQ     11
         6 001770   001460 276007                    ORQ     816,DL
         6 001771   000002 756100                    STQ     2,,PR0

      942     9819    2           VD$ERR.FLAGLEV# = %FLV_SERIOUS;

   9819  6 001772   000003 220003                    LDX0    3,DU
         6 001773   200016 470500                    LDP0    VD_ERR$,,AUTO
         6 001774   000003 740100                    STX0    3,,PR0

   9819  6 001775                       PBLOCK_EXPR* null
   9819  6 001775                       OCOPY_RANGE* null
   9819  6 001775                       IOPEN_FAILED null
   9819  6 001775                       IRANGE_FAIL* null
   9819  6 001775                       CP_FAILED    null
      943     9820
      944     9821
      945     9822    2   PBLOCK_EXPR_FAILED: ;
      946     9823    2   OCOPY_RANGE_FAILED: ;
      947     9824    2   IOPEN_FAILED: ;
      948     9825    2   IRANGE_FAILED: ;
      949     9826    2   CP_FAILED: ;
      950     9827    2           IF VD_6E.ERR_TAIL$->VD$ERR.CMDLINE_INDEX# = 0 THEN

   9827  6 001775   000032 470400 xsym               LDP0    VD_6E+26
         6 001776   000003 720100                    LXL0    3,,PR0
         6 001777   002004 601000 6                  TNZ     s:9829

      951     9828    2              VD_6E.ERR_TAIL$->VD$ERR.CMDLINE_INDEX# = IT$COMMAND.CMDLINE_INDEX#;

   9828  6 002000   200025 471500                    LDP1    @IT_COMMAND$,,AUTO
         6 002001   100000 473500                    LDP3    0,,PR1
         6 002002   300003 721100                    LXL1    3,,PR3
         6 002003   000003 441100                    SXL1    3,,PR0

      952     9829    2           IF FATAL$ERR.ERR = %CLEAR THEN
PL6.E3A0      #001=VDI$PDRIVER File=VDI$PARSE.:VDA5TSI                           FRI 07/04/97 11:33 Page:112

   9829  6 002004   000031 470400 xsym               LDP0    VD_6E+25
         6 002005   000002 235100                    LDA     2,,PR0
         6 002006   002013 601000 6                  TNZ     s:9832

      953     9830    2              CALL CLEAN_UP_AFTER_COMMAND (CMD_CLASS)

   9830  6 002007   200026 631500                    EPPR1   CMD_CLASS,,AUTO
         6 002010   200035 451500                    STP1    SAVE_SCREEN+3,,AUTO
         6 002011   002576 701000 6                  TSX1    CLEAN_UP_AFTER_COMMAND
         6 002012   002015 702000 6                  TSX2    OALLOC_FAILED

      954     9831    2                ALTRET (CLEAN_UP_AFTER_COMMAND_FAILED);
      955     9832    2           ALTRETURN;

   9832  6 002013   200024 221300                    LDX1  ! SINK$+1,,AUTO
         6 002014   000000 702211                    TSX2  ! 0,X1

   9829  6 002015                       OALLOC_FAIL* null
   9829  6 002015                       EDITING_COM* null
   9829  6 002015                       NEW_EDIT_BL* null
   9829  6 002015                       CLEAN_UP_AF* null
      956     9833
      957     9834
      958     9835    2   OALLOC_FAILED: ;
      959     9836    2   EDITING_COMMAND_SEEN_FAILED: ;
      960     9837    2   NEW_EDIT_BLOCK_IN_OLD_FAILED: ;
      961     9838    2   CLEAN_UP_AFTER_COMMAND_FAILED: ;
      962     9839    2           ALTRETURN;

   9839  6 002015   200024 221300                    LDX1  ! SINK$+1,,AUTO
         6 002016   000000 702211                    TSX2  ! 0,X1

      963     9840
      964     9841    2   END PROCESS_COMMAND;
      965     9842
      966     9843        %BOX (TITLE=EDITING_COMMAND_SEEN, PAGE=YES);
PL6.E3A0      #001=VDI$PDRIVER File=VDI$PARSE.:VDA5TSI                           FRI 07/04/97 11:33 Page:113
              9851    2
              9855    2   /***************************************************************************
              9857    2    *                                                                         *
              9861    2            *                            EDITING_COMMAND_SEEN                        *
              9863    2            *                                                                        *
              9865    2          ***************************************************************************/

      967     9869
      968     9870        /*I* NAME: EDITING_COMMAND_SEEN
      969     9871            PARAMETERS:
      970     9872                CMD_CLASS is a word; it must be %EXPL_ED_CMD or %IMPL_ED_CMD.
      971     9873            INPUT:
      972     9874                VD_CURRENT_WINDOW$ must either be NIL, or point to the FileNode at
      973     9875                    level 1 of the Windows file, for the current editing window.
      974     9876                    NOTE that even if there is such a window currently, it may not
      975     9877                    be editing anything (as a result of an error), and its
      976     9878                    stream may be closed.
      977     9879                    May or may not have an .OPERAND.EVAL$ currently.
      978     9880            OUTPUT:
      979     9881                VD_CURRENT_WINDOW$ - If NIL at entry, will point to the VD$FILE_NODE
      980     9882                    at level 1 of the Windows file for a newly-created editing
      981     9883                    window, which isn't editing anything.
      982     9884                The current editing window's .OPERAND.EVAL$ will point to a
      983     9885                    single VD$EVAL; the rest of the stack will be freed.
      984     9886                    .CTRL_REC_MATCHED_EOF will be reset.
      985     9887                    (If at entry there was no evaluation stack, nothing will
      986     9888                    be done with it, and .OPERAND.EVAL$ will still be NIL.)
      987     9889                The current editing window's .OPERAND.INTREE$ will be NIL.
      988     9890                If this is an explicit editing command, the evaluation state
      989     9891                    (VD$EVAL.STATE#) will be set to %EVST_INITIAL.
      990     9892            DESCRIPTION:
      991     9893                If there are no editing windows yet (VD_CURRENT_WINDOW$ is NIL),
      992     9894                    create the first editing window; it starts out editing nothing.
      993     9895        *N*         Following paragraph de-implemented due to star 25801; instead,
      994     9896        *N*         just set the VD_2DIM flag but don't muck with command window:
      995     9897        *N*         If VD_$SCREEN says we can screen-edit, then check VD_2DIM:  it
      996     9898        *N*         probably indicates we're not screen editing yet (since this is
PL6.E3A0      #001=VDI$PDRIVER File=VDI$PARSE.:VDA5TSI                           FRI 07/04/97 11:33 Page:114
      997     9899        *N*         the first editing window), so set it (to tell the Presenter
      998     9900        *N*         to (re-)open windows in 2-dimensional mode) and "change" the
      999     9901        *N*         height of the command window (which should be the only window
     1000     9902        *N*         currently) to VD_$SCREEN.V#.
     1001     9903                Both before and after processing an editing command, we must
     1002     9904                initialize the window's VD$OPERAND for evaluation of this
     1003     9905                command's block expression and for that of the next command.
     1004     9906        */
     1005     9907
     1006     9908    1   EDITING_COMMAND_SEEN: PROC (CMD_CLASS) ALTRET;

   9908  6 002017   200040 741300       EDITING_COM* STX1  ! EDIT_BLOCK$+1,,AUTO

     1007     9909
     1008     9910    2   DCL CMD_CLASS SBIN;
     1009     9911
     1010     9912
     1011     9913
     1012     9914        /*
     1013     9915        *   Locations in the Windows file for the first editing window.
     1014     9916        */
     1015     9917        %VD_LOCATION (NAME=FIRST_ED_WIN_LOC, STCLASS=CONSTANT, INITS=1,
     1016     9918            ITYPE1=%KT_NUMBER, IREP1=%REP_LOCAL, IBYTES1=%WK_1ST_EDITING_WINDOW);
     1017     9993        %VD_LOCATION (NAME=FIRST_ED_WIN_BLOCK_LOC, STCLASS=CONSTANT, INITS=2,
     1018     9994            ITYPE1=%KT_NUMBER, IREP1=%REP_LOCAL, IBYTES1=%WK_1ST_EDITING_WINDOW,
     1019     9995            ITYPE2=%KT_NUMBER, IREP2=%REP_LOCAL, IBYTES2=0);    /* Key at level 2 */
     1020    10105
     1021    10106
     1022    10107
     1023    10108    2   DCL WINDOW_SPEC$ PTR;
     1024    10109    2   DCL NODE$ PTR;
     1025    10110    2   DCL COUNT SBIN;
     1026    10111    2   DCL COUNT_PTR$ REDEF COUNT PTR;
     1027    10112    2   DCL FREE_EVAL$ PTR;
     1028    10113    2   DCL NEXT_EVAL$ PTR;
     1029    10114        %VD$SPEC (NAME=WSPEC, STCLASS=AUTO);
     1030    10128        %VD$RANGE (NAME=WLOC, STCLASS=AUTO);
PL6.E3A0      #001=VDI$PDRIVER File=VDI$PARSE.:VDA5TSI                           FRI 07/04/97 11:33 Page:115
     1031    10197
     1032    10198
     1033    10199        %VD$WINDOW_SPEC (NAME=WINDOW$SPEC, STCLASS="BASED(WINDOW_SPEC$)");
     1034    10265        %VD$EVAL (NAME=FREE$EVAL, STCLASS="BASED(FREE_EVAL$)");
     1035    10510
     1036    10511
     1037    10512
     1038    10513    2           IF VD_CURRENT_WINDOW$ = ADDR(NIL)

  10513  6 002020   000000 236000 xsym               LDQ     VD_CURRENT_WINDOW$
         6 002021   000001 116000 xsym               CMPQ    B_VECTNIL+1
         6 002022   002027 600000 6                  TZE     CREATE_FIRST_ED_WINDOW
         6 002023   200007 470500                    LDP0    IT_COMMAND$,,AUTO
         6 002024   000003 220100                    LDX0    3,,PR0
         6 002025   001753 100003                    CMPX0   1003,DU
         6 002026   002267 601000 6                  TNZ     s:10588

     1039    10514    2             OR IT$COMMAND.CODE# = %T_WINDOW_CMD THEN
     1040    10515    3   CREATE_FIRST_ED_WINDOW: DO;

  10515  6 002027                       CREATE_FIRS* null
     1041    10516                   /*
     1042    10517                   *  Create the first editing window.
     1043    10518                   */
     1044    10519    3              CALL VDG$OALLOC (%CLS_WINDOW_SPEC, WSPEC.V$)

  10519  6 002027   200050 630500                    EPPR0   WSPEC+1,,AUTO
         6 002030   200075 450500                    STP0    WLOC+20,,AUTO
         6 002031   000024 236000 7                  LDQ     20
         6 002032   200074 756100                    STQ     WLOC+19,,AUTO
         6 002033   200074 630500                    EPPR0   WLOC+19,,AUTO
         6 002034   000020 631400 xsym               EPPR1   B_VECTNIL+16
         6 002035   000000 701000 xent               TSX1    VDG$OALLOC
         6 002036   002371 702000 6                  TSX2    EXPAND_COMMAND_WINDOW_FAILED

     1045    10520    3                ALTRET (OALLOC_FAILED);
     1046    10521    3              WSPEC.V$ -> WINDOW$SPEC.COORDS.HEIGHT# = VD_EDITING_HEIGHT;
PL6.E3A0      #001=VDI$PDRIVER File=VDI$PARSE.:VDA5TSI                           FRI 07/04/97 11:33 Page:116

  10521  6 002037   200050 470500                    LDP0    WSPEC+1,,AUTO
         6 002040   000000 235000 xsym               LDA     VD_EDITING_HEIGHT
         6 002041   000005 755100                    STA     5,,PR0

     1047    10522    3              WLOC.START = FIRST_ED_WIN_LOC;

  10522  6 002042   000100 100400                    MLR     fill='000'O
         6 002043   000000 000044 5                  ADSC9   FIRST_ED_WIN_LOC         cn=0,n=36
         6 002044   200051 000044                    ADSC9   WLOC,,AUTO               cn=0,n=36

     1048    10523    3              WLOC.ENDD = FIRST_ED_WIN_BLOCK_LOC;

  10523  6 002045   000100 100400                    MLR     fill='000'O
         6 002046   000011 000044 5                  ADSC9   FIRST_ED_WIN_BLOCK_LOC   cn=0,n=36
         6 002047   200062 000044                    ADSC9   WLOC+9,,AUTO             cn=0,n=36

     1049    10524    3              ADDR(WLOC.START)->VD$KEY_NUMBER.BYTES# = VD_EDITING_WINDOWS;

  10524  6 002050   000000 236000 xsym               LDQ     VD_EDITING_WINDOWS
         6 002051   200052 552134                    STBQ    WLOC+1,'34'O,AUTO

     1050    10525    4              IF IT$COMMAND.CODE# = %T_WINDOW_CMD THEN DO;

  10525  6 002052   200007 470500                    LDP0    IT_COMMAND$,,AUTO
         6 002053   000003 220100                    LDX0    3,,PR0
         6 002054   001753 100003                    CMPX0   1003,DU
         6 002055   002207 601000 6                  TNZ     s:10570

     1051    10526    4                 IF IT$COMMAND.PARAM$(%CP_WI_LINES) ~= ADDR(NIL) THEN

  10526  6 002056   000007 236100                    LDQ     7,,PR0
         6 002057   000001 116000 xsym               CMPQ    B_VECTNIL+1
         6 002060   002065 600000 6                  TZE     s:10529

     1052    10527    4                    WSPEC.V$ -> WINDOW$SPEC.COORDS.HEIGHT# =

PL6.E3A0      #001=VDI$PDRIVER File=VDI$PARSE.:VDA5TSI                           FRI 07/04/97 11:33 Page:117
  10527  6 002061   000007 471500                    LDP1    7,,PR0
         6 002062   200050 473500                    LDP3    WSPEC+1,,AUTO
         6 002063   100003 235100                    LDA     3,,PR1
         6 002064   300005 755100                    STA     5,,PR3

     1053    10528    4                      IT$COMMAND.PARAM$(%CP_WI_LINES)->VD$NUMBER.V#;
     1054    10529    4                 IF IT$COMMAND.FLAGS(%CF_WI_NEW) OR

  10529  6 002065   200007 470500                    LDP0    IT_COMMAND$,,AUTO
         6 002066   000005 236100                    LDQ     5,,PR0
         6 002067   200000 316003                    CANQ    65536,DU
         6 002070   002207 601000 6                  TNZ     s:10570
         6 002071   000000 236000 xsym               LDQ     VD_CURRENT_WINDOW$
         6 002072   000001 116000 xsym               CMPQ    B_VECTNIL+1
         6 002073   002207 600000 6                  TZE     s:10570

     1055    10530    4                   VD_CURRENT_WINDOW$ = ADDR(NIL) THEN EXIT;
     1056    10531    4                 WLOC.START.KEY.V$(0) =

  10531  6 002074   000000 471400 xsym               LDP1    VD_CURRENT_WINDOW$
         6 002075   100005 236100                    LDQ     5,,PR1
         6 002076   200052 756100                    STQ     WLOC+1,,AUTO

     1057    10532    4                   VD_CURRENT_WINDOW$->VD$FILE_NODE.DESC.KEY.V$;
     1058    10533    4                 IF IT$COMMAND.PARAM$(%CP_WI_NUM) ~= ADDR(NIL) THEN

  10533  6 002077   000010 236100                    LDQ     8,,PR0
         6 002100   000001 116000 xsym               CMPQ    B_VECTNIL+1
         6 002101   002105 600000 6                  TZE     s:10536

     1059    10534    4                    ADDR(WLOC.START)->VD$KEY_NUMBER.BYTES# =

  10534  6 002102   000010 473500                    LDP3    8,,PR0
         6 002103   300003 236100                    LDQ     3,,PR3
         6 002104   200052 552134                    STBQ    WLOC+1,'34'O,AUTO

     1060    10535    4                      IT$COMMAND.PARAM$(%CP_WI_NUM) -> VD$NUMBER.V#;
PL6.E3A0      #001=VDI$PDRIVER File=VDI$PARSE.:VDA5TSI                           FRI 07/04/97 11:33 Page:118
     1061    10536    4                 WLOC.ENDD.KEY(0) = WLOC.START.KEY(0);

  10536  6 002105   000100 100500                    MLR     fill='000'O
         6 002106   200051 000010                    ADSC9   WLOC,,AUTO               cn=0,n=8
         6 002107   200062 000010                    ADSC9   WLOC+9,,AUTO             cn=0,n=8

     1062    10537    5                 IF IT$COMMAND.FLAGS(%CF_WI_DELETE) THEN DO;

  10537  6 002110   000005 234100                    SZN     5,,PR0
         6 002111   002156 605000 6                  TPL     s:10557

     1063    10538    5                    CALL VDA$LDELETE (WINDOWS$STREAM, WLOC)

  10538  6 002112   200051 633500                    EPPR3   WLOC,,AUTO
         6 002113   200075 453500                    STP3    WLOC+20,,AUTO
         6 002114   000006 236000 xsym               LDQ     VD_6E+6
         6 002115   200074 756100                    STQ     WLOC+19,,AUTO
         6 002116   200074 630500                    EPPR0   WLOC+19,,AUTO
         6 002117   000020 631400 xsym               EPPR1   B_VECTNIL+16
         6 002120   000000 701000 xent               TSX1    VDA$LDELETE
         6 002121   002347 702000 6                  TSX2    ED_WINDOW_WRITE_FAILED

     1064    10539    5                      ALTRET (LDELETE_FAILED);
     1065    10540    6                    IF VD_COMMAND_WINDOW$ ~= ADDR(NIL) THEN DO;

  10540  6 002122   000000 236000 xsym               LDQ     VD_COMMAND_WINDOW$
         6 002123   000001 116000 xsym               CMPQ    B_VECTNIL+1
         6 002124   002150 600000 6                  TZE     s:10554

     1066    10541        /* Adjust window numbers to insure they're contiguous */
     1067    10542    6                       NODE$ = VD_COMMAND_WINDOW$;

  10542  6 002125   200043 756100                    STQ     NODE$,,AUTO

     1068    10543    6                       COUNT_PTR$ = NODE$ -> VD$FILE_NODE.DESC.KEY.V$;

  10543  6 002126   200043 470500                    LDP0    NODE$,,AUTO
PL6.E3A0      #001=VDI$PDRIVER File=VDI$PARSE.:VDA5TSI                           FRI 07/04/97 11:33 Page:119
         6 002127   000005 236100                    LDQ     5,,PR0
         6 002130   200044 756100                    STQ     COUNT,,AUTO

     1069    10544    7                       DO UNTIL NODE$ = ADDR(NIL);

     1070    10545    7                          NODE$ -> VD$FILE_NODE.DESC.KEY.V$ = COUNT_PTR$;

  10545  6 002131   200044 236100                    LDQ     COUNT,,AUTO
         6 002132   200043 470500                    LDP0    NODE$,,AUTO
         6 002133   000005 756100                    STQ     5,,PR0

     1071    10546    7                          IF NODE$ = WINDOWS$STREAM.PORT$ ->

  10546  6 002134   000006 471400 xsym               LDP1    VD_6E+6
         6 002135   100001 473500                    LDP3    1,,PR1
         6 002136   200043 236100                    LDQ     NODE$,,AUTO
         6 002137   300040 116100                    CMPQ    32,,PR3
         6 002140   002143 601000 6                  TNZ     s:10550

     1072    10547    7                            VD$PORT.LEVEL.INTERNAL$ (%LVL_LOWER) THEN
     1073    10548    7                             WINDOWS$STREAM.PORT$ ->

  10548  6 002141   200044 236100                    LDQ     COUNT,,AUTO
         6 002142   300013 756100                    STQ     11,,PR3

     1074    10549    7                               VD$PORT.CURRENT.KEY.V$ (0) = COUNT_PTR$;
     1075    10550    7                          NODE$ = NODE$ -> VD$FILE_NODE.FLINK$;

  10550  6 002143   000002 236100                    LDQ     2,,PR0
         6 002144   200043 756100                    STQ     NODE$,,AUTO

     1076    10551    7                          COUNT = COUNT + 1;

  10551  6 002145   200044 054100                    AOS     COUNT,,AUTO

     1077    10552    7                          END;

PL6.E3A0      #001=VDI$PDRIVER File=VDI$PARSE.:VDA5TSI                           FRI 07/04/97 11:33 Page:120
  10552  6 002146   000001 116000 xsym               CMPQ    B_VECTNIL+1
         6 002147   002131 601000 6                  TNZ     s:10545

     1078    10553    6                       END;

     1079    10554    5                    CALL VDG$OFREE (WSPEC.V$ -> WINDOW$SPEC) ALTRET(OFREE_FAILED);

  10554  6 002150   200050 630500                    EPPR0   WSPEC+1,,AUTO
         6 002151   000017 631400 xsym               EPPR1   B_VECTNIL+15
         6 002152   000000 701000 xent               TSX1    VDG$OFREE
         6 002153   002371 702000 6                  TSX2    EXPAND_COMMAND_WINDOW_FAILED

     1080    10555    5                    RETURN;

  10555  6 002154   200040 221300                    LDX1  ! EDIT_BLOCK$+1,,AUTO
         6 002155   000001 702211                    TSX2  ! 1,X1

     1081    10556    5                    END;
     1082    10557    5                 ELSE IF IT$COMMAND.PARAM$(%CP_WI_LINES) = ADDR(NIL) THEN DO;

  10557  6 002156   000007 236100                    LDQ     7,,PR0
         6 002157   000001 116000 xsym               CMPQ    B_VECTNIL+1
         6 002160   002207 601000 6                  TNZ     s:10570

     1083    10558    5                       CALL VDG$OFREE (WSPEC.V$ -> WINDOW$SPEC) ALTRET (OFREE_FAILED);

  10558  6 002161   200050 630500                    EPPR0   WSPEC+1,,AUTO
         6 002162   000017 631400 xsym               EPPR1   B_VECTNIL+15
         6 002163   000000 701000 xent               TSX1    VDG$OFREE
         6 002164   002371 702000 6                  TSX2    EXPAND_COMMAND_WINDOW_FAILED

     1084    10559    6                       DO WHILE WLOC.START.KEY.V$(0) ~=

  10559  6 002165   000000 470400 xsym               LDP0    VD_CURRENT_WINDOW$
         6 002166   200052 236100                    LDQ     WLOC+1,,AUTO
         6 002167   000005 116100                    CMPQ    5,,PR0
         6 002170   002206 600000 6                  TZE     s:10567
PL6.E3A0      #001=VDI$PDRIVER File=VDI$PARSE.:VDA5TSI                           FRI 07/04/97 11:33 Page:121

     1085    10560    6                         VD_CURRENT_WINDOW$->VD$FILE_NODE.DESC.KEY.V$;
     1086    10561    6                          IF VD_CURRENT_WINDOW$->VD$FILE_NODE.FLINK$ ~= ADDR(NIL)

  10561  6 002171   000000 470400 xsym               LDP0    VD_CURRENT_WINDOW$
         6 002172   000002 236100                    LDQ     2,,PR0
         6 002173   000001 116000 xsym               CMPQ    B_VECTNIL+1
         6 002174   002177 600000 6                  TZE     s:10564

     1087    10562    6                          THEN VD_CURRENT_WINDOW$ =

  10562  6 002175   000000 756000 xsym               STQ     VD_CURRENT_WINDOW$
         6 002176   002202 710000 6                  TRA     s:10566

     1088    10563    6                               VD_CURRENT_WINDOW$->VD$FILE_NODE.FLINK$;
     1089    10564    6                          ELSE VD_CURRENT_WINDOW$ =

  10564  6 002177   000000 471400 xsym               LDP1    VD_COMMAND_WINDOW$
         6 002200   100002 236100                    LDQ     2,,PR1
         6 002201   000000 756000 xsym               STQ     VD_CURRENT_WINDOW$

     1090    10565    6                               VD_COMMAND_WINDOW$->VD$FILE_NODE.FLINK$;
     1091    10566    6                          END;

  10566  6 002202   000000 470400 xsym               LDP0    VD_CURRENT_WINDOW$
         6 002203   200052 236100                    LDQ     WLOC+1,,AUTO
         6 002204   000005 116100                    CMPQ    5,,PR0
         6 002205   002171 601000 6                  TNZ     s:10561

     1092    10567    5                       EXIT CREATE_FIRST_ED_WINDOW;

  10567  6 002206   002267 710000 6                  TRA     s:10588

     1093    10568    5                       END;
     1094    10569    4                 END;
     1095    10570    3              WLOC.ENDD.KEY(0) = WLOC.START.KEY(0);

PL6.E3A0      #001=VDI$PDRIVER File=VDI$PARSE.:VDA5TSI                           FRI 07/04/97 11:33 Page:122
  10570  6 002207   000100 100500                    MLR     fill='000'O
         6 002210   200051 000010                    ADSC9   WLOC,,AUTO               cn=0,n=8
         6 002211   200062 000010                    ADSC9   WLOC+9,,AUTO             cn=0,n=8

     1096    10571
     1097    10572    3              WSPEC.TYPE# = %SPT_WINDOW_SPEC;

  10572  6 002212   000006 220003                    LDX0    6,DU
         6 002213   200047 740100                    STX0    WSPEC,,AUTO

     1098    10573    3              WSPEC.REP# = %REP_REMOTE;

  10573  6 002214   000002 221003                    LDX1    2,DU
         6 002215   200047 441100                    SXL1    WSPEC,,AUTO

     1099    10574    3              CALL VDA$LWRITE (WINDOWS$STREAM, WLOC.START, WSPEC)

  10574  6 002216   200047 631500                    EPPR1   WSPEC,,AUTO
         6 002217   200076 451500                    STP1    WLOC+21,,AUTO
         6 002220   200051 633500                    EPPR3   WLOC,,AUTO
         6 002221   200075 453500                    STP3    WLOC+20,,AUTO
         6 002222   000006 236000 xsym               LDQ     VD_6E+6
         6 002223   200074 756100                    STQ     WLOC+19,,AUTO
         6 002224   200074 630500                    EPPR0   WLOC+19,,AUTO
         6 002225   000021 631400 xsym               EPPR1   B_VECTNIL+17
         6 002226   000000 701000 xent               TSX1    VDA$LWRITE
         6 002227   002347 702000 6                  TSX2    ED_WINDOW_WRITE_FAILED

     1100    10575    3                ALTRET (ED_WINDOW_WRITE_FAILED);
     1101    10576
     1102    10577    3              CALL VDG$OALLOC (%CLS_WINDOW_BLOCK, WSPEC.V$)

  10577  6 002230   200050 630500                    EPPR0   WSPEC+1,,AUTO
         6 002231   200075 450500                    STP0    WLOC+20,,AUTO
         6 002232   000026 236000 7                  LDQ     22
         6 002233   200074 756100                    STQ     WLOC+19,,AUTO
         6 002234   200074 630500                    EPPR0   WLOC+19,,AUTO
PL6.E3A0      #001=VDI$PDRIVER File=VDI$PARSE.:VDA5TSI                           FRI 07/04/97 11:33 Page:123
         6 002235   000020 631400 xsym               EPPR1   B_VECTNIL+16
         6 002236   000000 701000 xent               TSX1    VDG$OALLOC
         6 002237   002371 702000 6                  TSX2    EXPAND_COMMAND_WINDOW_FAILED

     1103    10578    3                ALTRET (OALLOC_FAILED);
     1104    10579    3              WSPEC.TYPE# = %SPT_WINDOW_BLOCK;

  10579  6 002240   000007 220003                    LDX0    7,DU
         6 002241   200047 740100                    STX0    WSPEC,,AUTO

     1105    10580    3              WSPEC.REP# = %REP_REMOTE;

  10580  6 002242   000002 221003                    LDX1    2,DU
         6 002243   200047 441100                    SXL1    WSPEC,,AUTO

     1106    10581    3              CALL VDA$LWRITE (WINDOWS$STREAM, WLOC.ENDD, WSPEC)

  10581  6 002244   200047 630500                    EPPR0   WSPEC,,AUTO
         6 002245   200076 450500                    STP0    WLOC+21,,AUTO
         6 002246   200062 631500                    EPPR1   WLOC+9,,AUTO
         6 002247   200075 451500                    STP1    WLOC+20,,AUTO
         6 002250   000006 236000 xsym               LDQ     VD_6E+6
         6 002251   200074 756100                    STQ     WLOC+19,,AUTO
         6 002252   200074 630500                    EPPR0   WLOC+19,,AUTO
         6 002253   000021 631400 xsym               EPPR1   B_VECTNIL+17
         6 002254   000000 701000 xent               TSX1    VDA$LWRITE
         6 002255   002347 702000 6                  TSX2    ED_WINDOW_WRITE_FAILED

     1107    10582    3                ALTRET (ED_WINDOW_BLOCK_WRITE_FAILED);
     1108    10583
     1109    10584    3              CALL VDA$PFLUSH (WINDOWS$STREAM.PORT$->VD$PORT, %TO_PRESENTER)

  10584  6 002256   000006 470400 xsym               LDP0    VD_6E+6
         6 002257   000001 471500                    LDP1    1,,PR0
         6 002260   000002 236000 7                  LDQ     2
         6 002261   200075 756100                    STQ     WLOC+20,,AUTO
         6 002262   200074 451500                    STP1    WLOC+19,,AUTO
PL6.E3A0      #001=VDI$PDRIVER File=VDI$PARSE.:VDA5TSI                           FRI 07/04/97 11:33 Page:124
         6 002263   200074 630500                    EPPR0   WLOC+19,,AUTO
         6 002264   000020 631400 xsym               EPPR1   B_VECTNIL+16
         6 002265   000000 701000 xent               TSX1    VDA$PFLUSH
         6 002266   002371 702000 6                  TSX2    EXPAND_COMMAND_WINDOW_FAILED

     1110    10585    3                ALTRET (ED_WINDOW_PFLUSH_FAILED);
     1111    10586    3              END CREATE_FIRST_ED_WINDOW;

     1112    10587
     1113    10588    2           WINDOW_SPEC$ = VD_CURRENT_WINDOW$->VD$FILE_NODE.DESC.SPEC.V$;

  10588  6 002267   000000 470400 xsym               LDP0    VD_CURRENT_WINDOW$
         6 002270   000007 236100                    LDQ     7,,PR0
         6 002271   200042 756100                    STQ     WINDOW_SPEC$,,AUTO

     1114    10589    3           IF WINDOW$SPEC.OPERAND.EVAL$ ~= ADDR(NIL) THEN DO;

  10589  6 002272   200042 471500                    LDP1    WINDOW_SPEC$,,AUTO
         6 002273   100013 236100                    LDQ     11,,PR1
         6 002274   000001 116000 xsym               CMPQ    B_VECTNIL+1
         6 002275   002333 600000 6                  TZE     s:10604

     1115    10590    3              FREE_EVAL$ = WINDOW$SPEC.OPERAND.EVAL$->VD$EVAL.BLINK$;

  10590  6 002276   100013 473500                    LDP3    11,,PR1
         6 002277   300001 236100                    LDQ     1,,PR3
         6 002300   200045 756100                    STQ     FREE_EVAL$,,AUTO

     1116    10591    3              WINDOW$SPEC.OPERAND.EVAL$->VD$EVAL.BLINK$ = ADDR(NIL);

  10591  6 002301   000001 236000 xsym               LDQ     B_VECTNIL+1
         6 002302   300001 756100                    STQ     1,,PR3

     1117    10592    4              DO WHILE FREE_EVAL$ ~= ADDR(NIL);

  10592  6 002303   002315 710000 6                  TRA     s:10597

PL6.E3A0      #001=VDI$PDRIVER File=VDI$PARSE.:VDA5TSI                           FRI 07/04/97 11:33 Page:125
     1118    10593    4                 NEXT_EVAL$ = FREE$EVAL.BLINK$;

  10593  6 002304   200045 470500                    LDP0    FREE_EVAL$,,AUTO
         6 002305   000001 236100                    LDQ     1,,PR0
         6 002306   200046 756100                    STQ     NEXT_EVAL$,,AUTO

     1119    10594    4                 CALL VDG$OFREE (FREE$EVAL)

  10594  6 002307   200045 630500                    EPPR0   FREE_EVAL$,,AUTO
         6 002310   000017 631400 xsym               EPPR1   B_VECTNIL+15
         6 002311   000000 701000 xent               TSX1    VDG$OFREE
         6 002312   002371 702000 6                  TSX2    EXPAND_COMMAND_WINDOW_FAILED

     1120    10595    4                   ALTRET (OFREE_FAILED);
     1121    10596    4                 FREE_EVAL$ = NEXT_EVAL$;

  10596  6 002313   200046 236100                    LDQ     NEXT_EVAL$,,AUTO
         6 002314   200045 756100                    STQ     FREE_EVAL$,,AUTO

     1122    10597    4                 END;

  10597  6 002315   200045 236100                    LDQ     FREE_EVAL$,,AUTO
         6 002316   000001 116000 xsym               CMPQ    B_VECTNIL+1
         6 002317   002304 601000 6                  TNZ     s:10593

     1123    10598
     1124    10599    3              WINDOW$SPEC.OPERAND.EVAL$->VD$EVAL.CTRL_REC_MATCHED_EOF = %FALSE;

  10599  6 002320   200042 470500                    LDP0    WINDOW_SPEC$,,AUTO
         6 002321   000013 471500                    LDP1    11,,PR0
         6 002322   000027 236000 7                  LDQ     23
         6 002323   100070 356100                    ANSQ    56,,PR1

     1125    10600    3              IF CMD_CLASS = %EXPL_ED_CMD THEN

  10600  6 002324   200041 471500                    LDP1    @CMD_CLASS,,AUTO
         6 002325   100000 235100                    LDA     0,,PR1
PL6.E3A0      #001=VDI$PDRIVER File=VDI$PARSE.:VDA5TSI                           FRI 07/04/97 11:33 Page:126
         6 002326   000002 115007                    CMPA    2,DL
         6 002327   002333 601000 6                  TNZ     s:10604

     1126    10601    3                 WINDOW$SPEC.OPERAND.EVAL$->VD$EVAL.STATE# = %EVST_INITIAL;

  10601  6 002330   000013 473500                    LDP3    11,,PR0
         6 002331   000001 220003                    LDX0    1,DU
         6 002332   300070 740100                    STX0    56,,PR3

     1127    10602    3              END;

     1128    10603
     1129    10604    2           CALL VDG$OFREE (WINDOW$SPEC.OPERAND.INTREE$->VD$IT_BLOCK_EXPR)

  10604  6 002333   200042 470500                    LDP0    WINDOW_SPEC$,,AUTO
         6 002334   000011 471500                    LDP1    9,,PR0
         6 002335   200074 451500                    STP1    WLOC+19,,AUTO
         6 002336   200074 630500                    EPPR0   WLOC+19,,AUTO
         6 002337   000017 631400 xsym               EPPR1   B_VECTNIL+15
         6 002340   000000 701000 xent               TSX1    VDG$OFREE
         6 002341   002371 702000 6                  TSX2    EXPAND_COMMAND_WINDOW_FAILED

     1130    10605    2             ALTRET (OFREE_FAILED);
     1131    10606    2           WINDOW$SPEC.OPERAND.INTREE$ = ADDR(NIL);

  10606  6 002342   000001 236000 xsym               LDQ     B_VECTNIL+1
         6 002343   200042 470500                    LDP0    WINDOW_SPEC$,,AUTO
         6 002344   000011 756100                    STQ     9,,PR0

     1132    10607
     1133    10608    2           RETURN;

  10608  6 002345   200040 221300                    LDX1  ! EDIT_BLOCK$+1,,AUTO
         6 002346   000001 702211                    TSX2  ! 1,X1

  10606  6 002347                       ED_WINDOW_W* null
  10606  6 002347                       LDELETE_FAI* null
PL6.E3A0      #001=VDI$PDRIVER File=VDI$PARSE.:VDA5TSI                           FRI 07/04/97 11:33 Page:127
  10606  6 002347                       ED_WINDOW_B* null
     1134    10609
     1135    10610
     1136    10611
     1137    10612    2   ED_WINDOW_WRITE_FAILED: ;
     1138    10613    2   LDELETE_FAILED: ;
     1139    10614    2   ED_WINDOW_BLOCK_WRITE_FAILED: ;
     1140    10615    2           IF WSPEC ~= %CLEAR THEN

  10615  6 002347   000000 106500                    CMPC    fill='000'O
         6 002350   200047 000010                    ADSC9   WSPEC,,AUTO              cn=0,n=8
         6 002351   000002 000002 xsym               ADSC9   B_VECTNIL+2              cn=0,n=2
         6 002352   002357 600000 6                  TZE     s:10617

     1141    10616    2              CALL VDG$OFREE (WSPEC.V$ -> WINDOW$SPEC);

  10616  6 002353   200050 630500                    EPPR0   WSPEC+1,,AUTO
         6 002354   000017 631400 xsym               EPPR1   B_VECTNIL+15
         6 002355   000000 701000 xent               TSX1    VDG$OFREE
         6 002356   000000 011000                    NOP     0

     1142    10617    2           IF VD_CURRENT_WINDOW$ ~= ADDR(NIL) THEN

  10617  6 002357   000000 236000 xsym               LDQ     VD_CURRENT_WINDOW$
         6 002360   000001 116000 xsym               CMPQ    B_VECTNIL+1
         6 002361   002371 600000 6                  TZE     EXPAND_COMMAND_WINDOW_FAILED

     1143    10618    2              IF VD_CURRENT_WINDOW$->

  10618  6 002362   000000 470400 xsym               LDP0    VD_CURRENT_WINDOW$
         6 002363   000000 220100                    LDX0    0,,PR0
         6 002364   000017 100003                    CMPX0   15,DU
         6 002365   002371 600000 6                  TZE     EXPAND_COMMAND_WINDOW_FAILED

     1144    10619    2                VD$FILE_NODE.OBJECT.CLASS# ~= %CLS_FILE_NODE THEN
     1145    10620    2                 VD_CURRENT_WINDOW$ = VD_COMMAND_WINDOW$ -> VD$FILE_NODE.FLINK$;

PL6.E3A0      #001=VDI$PDRIVER File=VDI$PARSE.:VDA5TSI                           FRI 07/04/97 11:33 Page:128
  10620  6 002366   000000 471400 xsym               LDP1    VD_COMMAND_WINDOW$
         6 002367   100002 236100                    LDQ     2,,PR1
         6 002370   000000 756000 xsym               STQ     VD_CURRENT_WINDOW$

  10617  6 002371                       EXPAND_COMM* null
  10617  6 002371                       ED_WINDOW_P* null
  10617  6 002371                       OALLOC_FAIL* null
  10617  6 002371                       OFREE_FAILED null
     1146    10621
     1147    10622
     1148    10623    2   EXPAND_COMMAND_WINDOW_FAILED: ;
     1149    10624    2   ED_WINDOW_PFLUSH_FAILED: ;
     1150    10625    2   OALLOC_FAILED: ;
     1151    10626    2   OFREE_FAILED: ;
     1152    10627    2           ALTRETURN;

  10627  6 002371   200040 221300                    LDX1  ! EDIT_BLOCK$+1,,AUTO
         6 002372   000000 702211                    TSX2  ! 0,X1

     1153    10628
     1154    10629    2   END EDITING_COMMAND_SEEN;
     1155    10630
     1156    10631        %BOX (TITLE=NEW_EDIT_BLOCK_IN_OLD_DOMAIN, PAGE=YES);
             10639    2
             10643    2   /***************************************************************************
             10645    2    *                                                                         *
             10649    2            *                        NEW_EDIT_BLOCK_IN_OLD_DOMAIN                    *
             10651    2            *                                                                        *
             10653    2          ***************************************************************************/

     1157    10657
     1158    10658        /*I* NAME: NEW_EDIT_BLOCK_IN_OLD_DOMAIN
     1159    10659            PARAMETERS:
     1160    10660                CURR_WINDOW - VD$WINDOW_SPEC for the current editing window.
     1161    10661                    CURR$WINDOW.OPERAND.EDIT_BLOCK$ must point to a
     1162    10662                    VD$BLOCK_DESC for the current EditBlock; there must
     1163    10663                    be such an EditBlock.
PL6.E3A0      #001=VDI$PDRIVER File=VDI$PARSE.:VDA5TSI                           FRI 07/04/97 11:33 Page:129
     1164    10664               IT_BLOCK_EXPR must be the VD$IT_BLOCK_EXPR returned by
     1165    10665                    VDE$PBLOCK_EXPR.  Specifically:
     1166    10666                  .DOMAINN must be %CLEAR, indicating that the block expression
     1167    10667                      specifies a block enclosed in the current edit block.
     1168    10668                  .OPTIONS must contain only those values explicitly given
     1169    10669                      by the user in the block expression; all other options
     1170    10670                      must be %CLEAR/NIL.
     1171    10671            INPUT:
     1172    10672            OUTPUT:
     1173    10673                IT_BLOCK_EXPR.DOMAINN will be filled in with info from
     1174    10674                    the current EditBlock.
     1175    10675                A BLOCK_DESC IT$OPERAND will be inserted at the beginning of the
     1176    10676                    movements chain to insure that subsequent movements start
     1177    10677                    from the proper position.
     1178    10678                IT_BLOCK_EXPR.OPTIONS will have its %CLEAR/NIL fields
     1179    10679                    filled in with values from the current EditBlock.
     1180    10680            DESCRIPTION:
     1181    10681                This routine is called for an EDIT command,
     1182    10682                when the user is telling us to edit a block which is in
     1183    10683                the same file as the current EditBlock.  Normally, this
     1184    10684                wouldn't look like a new EditBlock to VDE$IOPEN, so
     1185    10685                this routine fixes up IT_BLOCK_EXPR such that VDE$IOPEN
     1186    10686                will think this is a new EditBlock, and will act accordingly.
     1187    10687        */
     1188    10688
     1189    10689    1   NEW_EDIT_BLOCK_IN_OLD_DOMAIN: PROC (CURR_WINDOW, IT_BLOCK_EXPR) ALTRET;

  10689  6 002373   200034 741300       NEW_EDIT_BL* STX1  ! SAVE_SCREEN+2,,AUTO

     1190    10690
     1191    10691        %VD$WINDOW_SPEC (NAME=CURR_WINDOW, STCLASS=PARAM);
     1192    10757        %VD$IT_BLOCK_EXPR (NAME=IT_BLOCK_EXPR, STCLASS=PARAM);
     1193    10907
     1194    10908
     1195    10909
     1196    10910    2   DCL EDIT_BLOCK$ PTR;
     1197    10911    2   DCL IT_TEMP$ PTR;
PL6.E3A0      #001=VDI$PDRIVER File=VDI$PARSE.:VDA5TSI                           FRI 07/04/97 11:33 Page:130
     1198    10912
     1199    10913
     1200    10914        %VD$BLOCK_DESC (NAME=EDIT$BLOCK, STCLASS="BASED(EDIT_BLOCK$)");
     1201    11061
     1202    11062
     1203    11063
     1204    11064    2           EDIT_BLOCK$ = CURR_WINDOW.OPERAND.EDIT_BLOCK$;

  11064  6 002374   200035 470500                    LDP0    @CURR_WINDOW,,AUTO
         6 002375   000012 236100                    LDQ     10,,PR0
         6 002376   200037 756100                    STQ     EDIT_BLOCK$,,AUTO

     1205    11065
     1206    11066                %COPYKEY (FKEY=EDIT$BLOCK.FILE_KEY,
     1207    11067                TKEY=IT_BLOCK_EXPR.DOMAINN.FILE_KEY);

  11080  6 002377   200037 471500                    LDP1    EDIT_BLOCK$,,AUTO
         6 002400   200036 473500                    LDP3    @IT_BLOCK_EXPR,,AUTO
         6 002401   000100 100500                    MLR     fill='000'O
         6 002402   100001 000010                    ADSC9   1,,PR1                   cn=0,n=8
         6 002403   300004 000010                    ADSC9   4,,PR3                   cn=0,n=8

  11080  6 002404   100001 720100                    LXL0    1,,PR1
         6 002405   000002 100003                    CMPX0   2,DU
         6 002406   002423 601000 6                  TNZ     s:11083

  11080  6 002407   100002 474500                    LDP4    2,,PR1
         6 002410   200036 236100                    LDQ     @IT_BLOCK_EXPR,,AUTO
         6 002411   000005 036003                    ADLQ    5,DU
         6 002412   200075 756100                    STQ     WLOC+20,,AUTO
         6 002413   200074 454500                    STP4    WLOC+19,,AUTO
         6 002414   200074 630500                    EPPR0   WLOC+19,,AUTO
         6 002415   000020 631400 xsym               EPPR1   B_VECTNIL+16
         6 002416   000000 701000 xent               TSX1    VDG$OCOPY
         6 002417   002421 702000 6                  TSX2    s:11081
         6 002420   002423 710000 6                  TRA     s:11083

PL6.E3A0      #001=VDI$PDRIVER File=VDI$PARSE.:VDA5TSI                           FRI 07/04/97 11:33 Page:131
  11081  6 002421   200034 221300                    LDX1  ! SAVE_SCREEN+2,,AUTO
         6 002422   000000 702211                    TSX2  ! 0,X1

     1208    11083    2           CALL VDG$OCOPY_RANGE (EDIT$BLOCK.RANGE, IT_BLOCK_EXPR.DOMAINN.RANGE)

  11083  6 002423   200036 236100                    LDQ     @IT_BLOCK_EXPR,,AUTO
         6 002424   000006 036003                    ADLQ    6,DU
         6 002425   200075 756100                    STQ     WLOC+20,,AUTO
         6 002426   200037 236100                    LDQ     EDIT_BLOCK$,,AUTO
         6 002427   000003 036003                    ADLQ    3,DU
         6 002430   200074 756100                    STQ     WLOC+19,,AUTO
         6 002431   200074 630500                    EPPR0   WLOC+19,,AUTO
         6 002432   000020 631400 xsym               EPPR1   B_VECTNIL+16
         6 002433   000000 701000 xent               TSX1    VDG$OCOPY_RANGE
         6 002434   002574 702000 6                  TSX2    OALLOC_FAILED

     1209    11084    2             ALTRET (OCOPY_RANGE_FAILED);
     1210    11085    2           IT_TEMP$ = IT_BLOCK_EXPR.SELECTS$->IT$SELECT.ADJUSTS$;

  11085  6 002435   200036 470500                    LDP0    @IT_BLOCK_EXPR,,AUTO
         6 002436   000035 471500                    LDP1    29,,PR0
         6 002437   100004 236100                    LDQ     4,,PR1
         6 002440   200040 756100                    STQ     IT_TEMP$,,AUTO

     1211    11086    2           CALL VDG$OALLOC (%CLS_IT_OPERAND, SINK$)

  11086  6 002441   200023 633500                    EPPR3   SINK$,,AUTO
         6 002442   200075 453500                    STP3    WLOC+20,,AUTO
         6 002443   000031 236000 7                  LDQ     25
         6 002444   200074 756100                    STQ     WLOC+19,,AUTO
         6 002445   200074 630500                    EPPR0   WLOC+19,,AUTO
         6 002446   000020 631400 xsym               EPPR1   B_VECTNIL+16
         6 002447   000000 701000 xent               TSX1    VDG$OALLOC
         6 002450   002574 702000 6                  TSX2    OALLOC_FAILED

     1212    11087    2             ALTRET (OALLOC_FAILED);
     1213    11088    2           SINK$ -> IT$OPERAND.FLINK$ = IT_TEMP$ -> IT$ADJUST.MOVEMENTS$;
PL6.E3A0      #001=VDI$PDRIVER File=VDI$PARSE.:VDA5TSI                           FRI 07/04/97 11:33 Page:132

  11088  6 002451   200040 470500                    LDP0    IT_TEMP$,,AUTO
         6 002452   000004 236100                    LDQ     4,,PR0
         6 002453   200023 471500                    LDP1    SINK$,,AUTO
         6 002454   100002 756100                    STQ     2,,PR1

     1214    11089    2           SINK$ -> IT$OPERAND.PARENT$ = IT_TEMP$;

  11089  6 002455   200040 236100                    LDQ     IT_TEMP$,,AUTO
         6 002456   200023 471500                    LDP1    SINK$,,AUTO
         6 002457   100001 756100                    STQ     1,,PR1

     1215    11090    2           IT_TEMP$ -> IT$ADJUST.MOVEMENTS$ = SINK$;

  11090  6 002460   200023 236100                    LDQ     SINK$,,AUTO
         6 002461   000004 756100                    STQ     4,,PR0

     1216    11091    2           IT_TEMP$ = SINK$;

  11091  6 002462   200023 236100                    LDQ     SINK$,,AUTO
         6 002463   200040 756100                    STQ     IT_TEMP$,,AUTO

     1217    11092    2           IT_TEMP$ -> IT$OPERAND.OPTIONS.POINT# = %PNT_AO;

  11092  6 002464   000001 220003                    LDX0    1,DU
         6 002465   200040 470500                    LDP0    IT_TEMP$,,AUTO
         6 002466   000005 740100                    STX0    5,,PR0

     1218    11093    2           IT_TEMP$ -> IT$OPERAND.CODE# = %OPAND_BLOCK_DESC;

  11093  6 002467   000005 221003                    LDX1    5,DU
         6 002470   000003 741100                    STX1    3,,PR0

     1219    11094    2           CALL VDG$OALLOC (%CLS_BLOCK_DESC, IT_TEMP$ -> IT$OPERAND.PARAM$)

  11094  6 002471   000010 036003                    ADLQ    8,DU
         6 002472   000004 235000 7                  LDA     4
PL6.E3A0      #001=VDI$PDRIVER File=VDI$PARSE.:VDA5TSI                           FRI 07/04/97 11:33 Page:133
         6 002473   200074 757100                    STAQ    WLOC+19,,AUTO
         6 002474   200074 630500                    EPPR0   WLOC+19,,AUTO
         6 002475   000020 631400 xsym               EPPR1   B_VECTNIL+16
         6 002476   000000 701000 xent               TSX1    VDG$OALLOC
         6 002477   002574 702000 6                  TSX2    OALLOC_FAILED

     1220    11095    2             ALTRET(OALLOC_FAILED);
     1221    11096    2           CALL VDG$OCOPY_RANGE (CURR_WINDOW.OPERAND.EVAL$ -> VD$EVAL.RANGE,

  11096  6 002500   200035 470500                    LDP0    @CURR_WINDOW,,AUTO
         6 002501   000013 471500                    LDP1    11,,PR0
         6 002502   200040 473500                    LDP3    IT_TEMP$,,AUTO
         6 002503   300010 474500                    LDP4    8,,PR3
         6 002504   400003 635500                    EPPR5   3,,PR4
         6 002505   200075 455500                    STP5    WLOC+20,,AUTO
         6 002506   100024 634500                    EPPR4   20,,PR1
         6 002507   200074 454500                    STP4    WLOC+19,,AUTO
         6 002510   200074 630500                    EPPR0   WLOC+19,,AUTO
         6 002511   000020 631400 xsym               EPPR1   B_VECTNIL+16
         6 002512   000000 701000 xent               TSX1    VDG$OCOPY_RANGE
         6 002513   002574 702000 6                  TSX2    OALLOC_FAILED

     1222    11097    2             IT_TEMP$ -> IT$OPERAND.PARAM$ -> EDIT$BLOCK.RANGE)
     1223    11098    2             ALTRET (OCOPY_RANGE_FAILED);
     1224    11099
     1225    11100                /*
     1226    11101                *   If the user explicitly specified any processing
     1227    11102                *       options, they're in IT_BLOCK_EXPR.OPTIONS.
     1228    11103                *   Fill in any missing values in the InTree's .OPTIONS
     1229    11104                *       from the new EditBlock's options.
     1230    11105                */
     1231    11106    2           IF IT_BLOCK_EXPR.OPTIONS.STRUCTURE$ = ADDR(NIL) THEN

  11106  6 002514   200036 470500                    LDP0    @IT_BLOCK_EXPR,,AUTO
         6 002515   000030 236100                    LDQ     24,,PR0
         6 002516   000001 116000 xsym               CMPQ    B_VECTNIL+1
         6 002517   002523 601000 6                  TNZ     s:11109
PL6.E3A0      #001=VDI$PDRIVER File=VDI$PARSE.:VDA5TSI                           FRI 07/04/97 11:33 Page:134

     1232    11107    2              IT_BLOCK_EXPR.OPTIONS.STRUCTURE$ =

  11107  6 002520   200037 471500                    LDP1    EDIT_BLOCK$,,AUTO
         6 002521   100025 236100                    LDQ     21,,PR1
         6 002522   000030 756100                    STQ     24,,PR0

     1233    11108    2                EDIT$BLOCK.OPTIONS.STRUCTURE$;
     1234    11109    2           IF IT_BLOCK_EXPR.OPTIONS.LEVEL# = 0 THEN

  11109  6 002523   000031 220100                    LDX0    25,,PR0
         6 002524   002530 601000 6                  TNZ     s:11111

     1235    11110    2              IT_BLOCK_EXPR.OPTIONS.LEVEL# = EDIT$BLOCK.OPTIONS.LEVEL#;

  11110  6 002525   200037 471500                    LDP1    EDIT_BLOCK$,,AUTO
         6 002526   100026 221100                    LDX1    22,,PR1
         6 002527   000031 741100                    STX1    25,,PR0

     1236    11111    2           IF IT_BLOCK_EXPR.OPTIONS.COMPONENT# = 0 THEN

  11111  6 002530   000031 720100                    LXL0    25,,PR0
         6 002531   002535 601000 6                  TNZ     s:11114

     1237    11112    2              IT_BLOCK_EXPR.OPTIONS.COMPONENT# =

  11112  6 002532   200037 471500                    LDP1    EDIT_BLOCK$,,AUTO
         6 002533   100026 721100                    LXL1    22,,PR1
         6 002534   000031 441100                    SXL1    25,,PR0

     1238    11113    2                EDIT$BLOCK.OPTIONS.COMPONENT#;
     1239    11114    2           IF IT_BLOCK_EXPR.OPTIONS.PROTECT# = 0 THEN

  11114  6 002535   000032 220100                    LDX0    26,,PR0
         6 002536   002542 601000 6                  TNZ     s:11116

     1240    11115    2              IT_BLOCK_EXPR.OPTIONS.PROTECT# = EDIT$BLOCK.OPTIONS.PROTECT#;
PL6.E3A0      #001=VDI$PDRIVER File=VDI$PARSE.:VDA5TSI                           FRI 07/04/97 11:33 Page:135

  11115  6 002537   200037 471500                    LDP1    EDIT_BLOCK$,,AUTO
         6 002540   100027 221100                    LDX1    23,,PR1
         6 002541   000032 741100                    STX1    26,,PR0

     1241    11116    2           IF IT_BLOCK_EXPR.OPTIONS.EXIST# = 0 THEN

  11116  6 002542   000032 720100                    LXL0    26,,PR0
         6 002543   002547 601000 6                  TNZ     s:11132

     1242    11117    2              IT_BLOCK_EXPR.OPTIONS.EXIST# = EDIT$BLOCK.OPTIONS.EXIST#;

  11117  6 002544   200037 471500                    LDP1    EDIT_BLOCK$,,AUTO
         6 002545   100027 721100                    LXL1    23,,PR1
         6 002546   000032 441100                    SXL1    26,,PR0

     1243    11118                %COPYKEY (FKEY=EDIT$BLOCK.OPTIONS.KEY_INCR,
     1244    11119                TKEY=IT_BLOCK_EXPR.OPTIONS.KEY_INCR);

  11132  6 002547   200037 471500                    LDP1    EDIT_BLOCK$,,AUTO
         6 002550   000100 100500                    MLR     fill='000'O
         6 002551   100030 000010                    ADSC9   24,,PR1                  cn=0,n=8
         6 002552   000033 000010                    ADSC9   27,,PR0                  cn=0,n=8

  11132  6 002553   100030 720100                    LXL0    24,,PR1
         6 002554   000002 100003                    CMPX0   2,DU
         6 002555   002572 601000 6                  TNZ     s:11136

  11132  6 002556   100031 473500                    LDP3    25,,PR1
         6 002557   200036 236100                    LDQ     @IT_BLOCK_EXPR,,AUTO
         6 002560   000034 036003                    ADLQ    28,DU
         6 002561   200075 756100                    STQ     WLOC+20,,AUTO
         6 002562   200074 453500                    STP3    WLOC+19,,AUTO
         6 002563   200074 630500                    EPPR0   WLOC+19,,AUTO
         6 002564   000020 631400 xsym               EPPR1   B_VECTNIL+16
         6 002565   000000 701000 xent               TSX1    VDG$OCOPY
         6 002566   002570 702000 6                  TSX2    s:11133
PL6.E3A0      #001=VDI$PDRIVER File=VDI$PARSE.:VDA5TSI                           FRI 07/04/97 11:33 Page:136
         6 002567   002572 710000 6                  TRA     s:11136

  11133  6 002570   200034 221300                    LDX1  ! SAVE_SCREEN+2,,AUTO
         6 002571   000000 702211                    TSX2  ! 0,X1

     1245    11135
     1246    11136    2           RETURN;

  11136  6 002572   200034 221300                    LDX1  ! SAVE_SCREEN+2,,AUTO
         6 002573   000001 702211                    TSX2  ! 1,X1

  11132  6 002574                       OALLOC_FAIL* null
  11132  6 002574                       OCOPY_FAILED null
     1247    11137
     1248    11138
     1249    11139    2   OALLOC_FAILED: ;
     1250    11140    2   OCOPY_FAILED: ;
     1251    11141    2   OCOPY_RANGE_FAILED: ;

  11141  6 002574                       OCOPY_RANGE* null
     1252    11142    2           ALTRETURN;

  11142  6 002574   200034 221300                    LDX1  ! SAVE_SCREEN+2,,AUTO
         6 002575   000000 702211                    TSX2  ! 0,X1

     1253    11143
     1254    11144    2   END NEW_EDIT_BLOCK_IN_OLD_DOMAIN;
     1255    11145
     1256    11146        %BOX (TITLE=CLEAN_UP_AFTER_COMMAND, PAGE=YES);
             11154    2
             11158    2   /***************************************************************************
             11160    2    *                                                                         *
             11164    2            *                           CLEAN_UP_AFTER_COMMAND                       *
             11166    2            *                                                                        *
             11168    2          ***************************************************************************/

     1257    11172
PL6.E3A0      #001=VDI$PDRIVER File=VDI$PARSE.:VDA5TSI                           FRI 07/04/97 11:33 Page:137
     1258    11173        /*I* NAME: CLEAN_UP_AFTER_COMMAND
     1259    11174            PARAMETERS:
     1260    11175                CMD_CLASS - Code specifying what type of command was just
     1261    11176                    processed:  %EXPL_ED_CMD, %IMPL_ED_CMD, or %NON_ED_CMD.
     1262    11177                If CMD_CLASS = %EXPL_ED_CMD or %IMPL_ED_CMD, then
     1263    11178                    VD_CURRENT_WINDOW$ must point to the FileNode at level
     1264    11179                    1 of the Windows file, for the current editing window.
     1265    11180            INPUT:
     1266    11181            OUTPUT:
     1267    11182                The current editing window's .OPERAND.EVAL$ will point to a
     1268    11183                    single VD$EVAL; the rest of the stack will be freed.
     1269    11184                The current editing window's .OPERAND.INTREE$ will be NIL.
     1270    11185            DESCRIPTION:
     1271    11186                After performing a command, even if the command encountered
     1272    11187                errors, we must clean up the window's VD$OPERAND before
     1273    11188                going on the the next command.
     1274    11189        */
     1275    11190
     1276    11191    1   CLEAN_UP_AFTER_COMMAND: PROC (CMD_CLASS) ALTRET;

  11191  6 002576   200034 741300       CLEAN_UP_AF* STX1  ! SAVE_SCREEN+2,,AUTO

     1277    11192
     1278    11193    2   DCL CMD_CLASS SBIN;
     1279    11194
     1280    11195
     1281    11196
     1282    11197    2   DCL CURR_WINDOW$ PTR;
     1283    11198
     1284    11199
     1285    11200        %VD$WINDOW_SPEC (NAME=CURR$WINDOW, STCLASS="BASED(CURR_WINDOW$)");
     1286    11266
     1287    11267
     1288    11268
     1289    11269    2           IF VD_CURRENT_WINDOW$ ~= ADDR(NIL) THEN

  11269  6 002577   000000 236000 xsym               LDQ     VD_CURRENT_WINDOW$
PL6.E3A0      #001=VDI$PDRIVER File=VDI$PARSE.:VDA5TSI                           FRI 07/04/97 11:33 Page:138
         6 002600   000001 116000 xsym               CMPQ    B_VECTNIL+1
         6 002601   002606 600000 6                  TZE     s:11272

     1290    11270    2              CURR_WINDOW$ = VD_CURRENT_WINDOW$->VD$FILE_NODE.DESC.SPEC.V$;

  11270  6 002602   000000 470400 xsym               LDP0    VD_CURRENT_WINDOW$
         6 002603   000007 236100                    LDQ     7,,PR0
         6 002604   200036 756100                    STQ     CURR_WINDOW$,,AUTO
         6 002605   002610 710000 6                  TRA     s:11274

     1291    11271    2           ELSE
     1292    11272    2              CURR_WINDOW$ = ADDR(NIL);

  11272  6 002606   000001 236000 xsym               LDQ     B_VECTNIL+1
         6 002607   200036 756100                    STQ     CURR_WINDOW$,,AUTO

     1293    11273
     1294    11274    2           IF (CMD_CLASS = %EXPL_ED_CMD OR CMD_CLASS = %IMPL_ED_CMD)

  11274  6 002610   200035 470500                    LDP0    @CMD_CLASS,,AUTO
         6 002611   000000 235100                    LDA     0,,PR0
         6 002612   000002 115007                    CMPA    2,DL
         6 002613   002616 600000 6                  TZE     s:11274+6
         6 002614   000003 115007                    CMPA    3,DL
         6 002615   002660 601000 6                  TNZ     s:11293
         6 002616   000001 116000 xsym               CMPQ    B_VECTNIL+1
         6 002617   002660 600000 6                  TZE     s:11293

     1295    11275    3             AND (CURR_WINDOW$ ~= ADDR(NIL)) THEN DO;

     1296    11276    3              IF CURR$WINDOW.OPERAND.STREAM$ -> VD$STREAM.PORT$ ~=

  11276  6 002620   200036 471500                    LDP1    CURR_WINDOW$,,AUTO
         6 002621   100010 473500                    LDP3    8,,PR1
         6 002622   300001 236100                    LDQ     1,,PR3
         6 002623   000001 116000 xsym               CMPQ    B_VECTNIL+1
         6 002624   002635 600000 6                  TZE     s:11282
PL6.E3A0      #001=VDI$PDRIVER File=VDI$PARSE.:VDA5TSI                           FRI 07/04/97 11:33 Page:139

     1297    11277    4                ADDR(NIL) THEN DO;

     1298    11278    4                 CALL VDA$PFLUSH (CURR$WINDOW.OPERAND.STREAM$ ->

  11278  6 002625   300001 474500                    LDP4    1,,PR3
         6 002626   000002 236000 7                  LDQ     2
         6 002627   200075 756100                    STQ     WLOC+20,,AUTO
         6 002630   200074 454500                    STP4    WLOC+19,,AUTO
         6 002631   200074 630500                    EPPR0   WLOC+19,,AUTO
         6 002632   000020 631400 xsym               EPPR1   B_VECTNIL+16
         6 002633   000000 701000 xent               TSX1    VDA$PFLUSH
         6 002634   002662 702000 6                  TSX2    PFLUSH_FAILED

     1299    11279    4                   VD$STREAM.PORT$ -> VD$PORT, %TO_PRESENTER)
     1300    11280    4                   ALTRET (PFLUSH_FAILED);
     1301    11281    4                 END;

     1302    11282    3              IF VD_6E.SOURCE.OPERAND.STREAM$->VD$STREAM.PORT$ ~=

  11282  6 002635   000020 470400 xsym               LDP0    VD_6E+16
         6 002636   000001 236100                    LDQ     1,,PR0
         6 002637   000001 116000 xsym               CMPQ    B_VECTNIL+1
         6 002640   002651 600000 6                  TZE     s:11288

     1303    11283    4                ADDR(NIL) THEN DO;

     1304    11284    4                 CALL VDA$PFLUSH (VD_6E.SOURCE.OPERAND.STREAM$ ->

  11284  6 002641   000001 471500                    LDP1    1,,PR0
         6 002642   000002 236000 7                  LDQ     2
         6 002643   200075 756100                    STQ     WLOC+20,,AUTO
         6 002644   200074 451500                    STP1    WLOC+19,,AUTO
         6 002645   200074 630500                    EPPR0   WLOC+19,,AUTO
         6 002646   000020 631400 xsym               EPPR1   B_VECTNIL+16
         6 002647   000000 701000 xent               TSX1    VDA$PFLUSH
         6 002650   002662 702000 6                  TSX2    PFLUSH_FAILED
PL6.E3A0      #001=VDI$PDRIVER File=VDI$PARSE.:VDA5TSI                           FRI 07/04/97 11:33 Page:140

     1305    11285    4                   VD$STREAM.PORT$ -> VD$PORT, %TO_PRESENTER)
     1306    11286    4                   ALTRET (PFLUSH_FAILED);
     1307    11287    4                 END;

     1308    11288    3              IT$COMMAND.CODE# = 0; /* Mustn't be T_WINDOW_CMD */

  11288  6 002651   000000 220003                    LDX0    0,DU
         6 002652   200007 470500                    LDP0    IT_COMMAND$,,AUTO
         6 002653   000003 740100                    STX0    3,,PR0

     1309    11289    3              CALL EDITING_COMMAND_SEEN (CMD_CLASS)

  11289  6 002654   200035 236100                    LDQ     @CMD_CLASS,,AUTO
         6 002655   200041 756100                    STQ     @CMD_CLASS,,AUTO
         6 002656   002017 701000 6                  TSX1    EDITING_COMMAND_SEEN
         6 002657   002662 702000 6                  TSX2    PFLUSH_FAILED

     1310    11290    3                ALTRET (EDITING_COMMAND_SEEN_FAILED);
     1311    11291    3              END;

     1312    11292
     1313    11293    2           RETURN;

  11293  6 002660   200034 221300                    LDX1  ! SAVE_SCREEN+2,,AUTO
         6 002661   000001 702211                    TSX2  ! 1,X1

  11286  6 002662                       PFLUSH_FAIL* null
  11286  6 002662                       EDITING_COM* null
     1314    11294
     1315    11295
     1316    11296    2   PFLUSH_FAILED: ;
     1317    11297    2   EDITING_COMMAND_SEEN_FAILED: ;
     1318    11298    2           ALTRETURN;

  11298  6 002662   200034 221300                    LDX1  ! SAVE_SCREEN+2,,AUTO
         6 002663   000000 702211                    TSX2  ! 0,X1
PL6.E3A0      #001=VDI$PDRIVER File=VDI$PARSE.:VDA5TSI                           FRI 07/04/97 11:33 Page:141

     1319    11299
     1320    11300    2   END CLEAN_UP_AFTER_COMMAND;
     1321    11301
     1322    11302    1   END VDI$PDRIVER;

  11302  6 002664   000000 702200 xent               TSX2  ! X66_ARET
     1323    11303        %EOD;

PL6.E3A0      #001=VDI$PDRIVER File=VDI$PARSE.:VDA5TSI                           FRI 07/04/97 11:33 Page:142
--  Include file information  --

   B$TABLES_C.:LIBRARY  cannot be made into a system file and is referenced.
   CP_6.:LIBRARY  cannot be made into a system file and is referenced.
   XUG_ENTRY.:LIBRARY  cannot be made into a system file and is referenced.
   XUE_SUBS_C.:LIBRARY  is referenced.
   XU_MACRO_C.:LIBRARY  is referenced.
   VD_NODES0_E.:VDA5TOU  is referenced.
   VD_PERR_C.:VDA5TOU  is referenced.
   VD_MACROS_M.:VDA5TOU  is referenced.
   B$JIT_C.:E04TOU  was found in the system file and is never referenced.
   CP_6_C.:E04TOU  was found in the system file and is referenced.
      No diagnostics issued in procedure VDI$PDRIVER.
PL6.E3A0      #001=VDI$PDRIVER File=VDI$PARSE.:VDA5TSI                           FRI 07/04/97 11:33 Page:143

 **** Variables and constants ****

  ****  Section 004  Data  VDI$PDRIVER

  ****  Scalars and arrays  ****
OctLoc.c.b A Datatyp(siz) R M Lvl/name                 OctLoc.c.b A Datatyp(siz) R M Lvl/name

     0-0-0/b BIT         r     1 DELFID_CMD

  ****  Section 005 RoData VDI$PDRIVER

  ****  Scalars and arrays  ****
OctLoc.c.b A Datatyp(siz) R M Lvl/name                 OctLoc.c.b A Datatyp(siz) R M Lvl/name

    11-0-0/w STRC(324)   r     1 FIRST_ED_WIN_BLOCK_LOC
     0-0-0/w STRC(324)   r     1 FIRST_ED_WIN_LOC

  ****  Auto variables  ****

  ****  Scalars and arrays  ****
OctLoc.c.b A Datatyp(siz) R M Lvl/name                 OctLoc.c.b A Datatyp(siz) R M Lvl/name

    41-0-0/w PTR         r     1 @CMD_CLASS                35-0-0/w PTR         r     1 @CMD_CLASS
    35-0-0/w PTR         r     1 @CURR_WINDOW              36-0-0/w PTR         r     1 @IT_BLOCK_EXPR
    25-0-0/w PTR         r     1 @IT_COMMAND$               3-0-0/c UBIN(9)     r     1 ACTCHR
     5-0-0/w BIT         r     1 CAN_READ_EDITING_WINDOW
    12-0-0/w UBIN        r     1 CL_INDEX                  26-0-0/w SBIN        r     1 CMD_CLASS
    *0-0-0/w SBIN        r     1 CMD_CLASS                 *0-0-0/w SBIN        r     1 CMD_CLASS
    22-0-0/w PTR         r     1 CMD_RECORD$               11-0-0/w PTR         r     1 COMMAND_LINE$
    44-0-0/w SBIN        r     1 COUNT                     44-0-0/w PTR         r     1 COUNT_PTR$
    *0-0-0/w STRC(900)   r     1 CURR_WINDOW                6-0-0/w PTR         r     1 CURR_WINDOW$
    27-0-0/w PTR         r     1 CURR_WINDOW$              36-0-0/w PTR         r     1 CURR_WINDOW$
    37-0-0/w PTR         r     1 EDIT_BLOCK$                4-0-0/w PTR         r     1 ED_WINDOW_NODE$
    20-0-0/w STRC        r     1 ERR_CODE                  45-0-0/w PTR         r     1 FREE_EVAL$
    13-0-0/w BIT         r     1 GOT_WREAD_ERROR           21-0-0/w SBIN        r     1 INDX
    *0-0-0/w STRC(1116)  r     1 IT_BLOCK_EXPR             30-0-0/w PTR         r     1 IT_BLOCK_EXPR$
     7-0-0/w PTR         r     1 IT_COMMAND$               *0-0-0/w PTR         r     1 IT_COMMAND$
PL6.E3A0      #001=VDI$PDRIVER File=VDI$PARSE.:VDA5TSI                           FRI 07/04/97 11:33 Page:144
    40-0-0/w PTR         r     1 IT_TEMP$                  46-0-0/w PTR         r     1 NEXT_EVAL$
    43-0-0/w PTR         r     1 NODE$                     10-0-0/w PTR         r     1 PREV_IT_COMMAND$
    32-0-0/w SBIN        r     1 SAVE_SCREEN               31-0-0/w BIT         r     1 SIGNAL
    23-0-0/w PTR         r     1 SINK$                     17-0-0/w PTR         r     1 SUBST_FIELD$
    16-0-0/w PTR         r     1 VD_ERR$                   14-0-0/w BIT         r     1 WARN_ABORTED_BUFFER
    42-0-0/w PTR         r     1 WINDOW_SPEC$              51-0-0/w STRC(648)   r     1 WLOC
    47-0-0/w STRC(72)    r     1 WSPEC

  ****  SYMREF variables  ****

  ****  Scalars and arrays  ****
OctLoc.c.b A Datatyp(siz) R M Lvl/name                 OctLoc.c.b A Datatyp(siz) R M Lvl/name

     0-0-0/w PTR         r     1 B$XL_UPPER$                0-0-0/w STRC(144)   r     1 VD_$$QUAC
     0-0-0/w STRC(144)   r     1 VD_$COMMAND                0-0-0/w STRC(144)   r     1 VD_$MIN_COMMAND
     0-0-0/w STRC(144)   r     1 VD_$SCREEN                 0-0-0/w STRC(22644) r     1 VD_6E
     0-0-0/w UBIN        r     1 VD_ASYM
     0-0-0/w PTR         r     1 VD_CMD_OBJECTS$(0:49)
     0-0-0/w SBIN        r     1 VD_COMMAND_LINE            0-0-0/w PTR         r     1 VD_COMMAND_WINDOW$
     0-0-0/w PTR         r     1 VD_CURRENT_WINDOW$         0-0-0/w SBIN        r     1 VD_EDITING_HEIGHT
     0-0-0/w SBIN        r     1 VD_EDITING_WINDOWS         0-0-0/w UBIN        r     1 VD_FORCE_READ_FROM
     0-0-0/w SBIN        r     1 VD_IBEX_WINDOW
     0-0-0/w UBIN        r     1 VD_LAST_CWIN_ACTIVITY
     0-0-0/w SBIN        r     1 VD_OLD_$SCREEN             0-0-0/w SBIN        r     1 VD_WORST_FLAGLEV
     0-0-0/d STRC(1512)  r     1 XUG_GETCMD

  ****  BASED and DCB variables  ****

  ****  Scalars and arrays  ****
OctLoc.c.b A Datatyp(siz) R M Lvl/name                 OctLoc.c.b A Datatyp(siz) R M Lvl/name

     0-0-0/w STRC(144)   r     1 BLOCK$EXPR                 0-0-0/w ASTR(90)    r     1 CMD$RECORD
     0-0-0/w STRC(900)   r     1 CMD$STREAM                 0-0-0/w STRC(144)   r     1 COMMAND$LINE
     0-0-0/w STRC(900)   r     1 CURR$WINDOW                0-0-0/w STRC(900)   r     1 CURR$WINDOW
     0-0-0/w STRC(900)   r     1 CURR$WINDOW                0-0-0/w STRC(936)   r     1 EDIT$BLOCK
     0-0-0/d ASTR(3528)  r     1 F$DCB                      0-0-0/w STRC(180)   r     1 FATAL$ERR
     0-0-0/w STRC(2124)  r     1 FREE$EVAL                  0-0-0/w STRC(216)   r     1 IT$ADJUST
PL6.E3A0      #001=VDI$PDRIVER File=VDI$PARSE.:VDA5TSI                           FRI 07/04/97 11:33 Page:145
     0-0-0/w STRC(1116)  r     1 IT$BLOCK_EXPR              0-0-0/w STRC(540)   r     1 IT$COMMAND
     0-0-0/w STRC(540)   r     1 IT$COMMAND                 0-0-0/w STRC(324)   r     1 IT$OPERAND
     0-0-0/w STRC(216)   r     1 IT$SELECT                  0-0-0N  NULL        r     1 M$6E
     0-0-0N  NULL        r     1 M$ME                       0-0-0N  NULL        r     1 M$SI
     0-0-0/w STRC(504)   r     1 P$PCB
     0-0-0/w STRC(144)   r     1 SUBST$NUMBER(0:2)
     0-0-0/w STRC(144)   r     1 SUBST$POINTER(0:2)
     0-0-0/w ASTR(90)    r     1 VD$BUFFER                  0-0-0/w STRC(180)   r     1 VD$ERR
     0-0-0/w STRC(180)   r     1 VD$ERR_TAIL                0-0-0/w STRC(2124)  r     1 VD$EVAL
     0-0-0/w STRC(468)   r     1 VD$FILE_NODE               0-0-0/w STRC(1116)  r     1 VD$IT_BLOCK_EXPR
     0-0-0/w STRC(72)    r     1 VD$KEY_NUMBER              0-0-0/w STRC(144)   r     1 VD$NUMBER
     0-0-0/w STRC(1944)  r     1 VD$PORT                    0-0-0/w STRC(864)   r     1 VD$STREAM
     0-0-0/w ASTR(81)    r     1 VD$TEXTC_REMOTE            0-0-0/w STRC(900)   r     1 WINDOW$SPEC
     0-0-0/w STRC(864)   r     1 WINDOWS$STREAM


   Procedure VDI$PDRIVER requires 1461 words for executable code.
   Procedure VDI$PDRIVER requires 64 words of local(AUTO) storage.
PL6.E3A0      #001=VDI$PDRIVER File=VDI$PARSE.:VDA5TSI                           FRI 07/04/97 11:33 Page:146
          *** CROSS REFERENCE LISTING ***
**     DENOTES     IDENTIFIER DEFINITION
<<                 IDENTIFIER'S VALUE SET
>>                 IDENTIFIER'S VALUE USED
<>                 IDENTIFIER SET AND/OR USED
--                 IDENTIFIER REFERENCED
PL6.E3A0      #001=VDI$PDRIVER File=VDI$PARSE.:VDA5TSI                           FRI 07/04/97 11:33 Page:147
          MINI XREF LISTING

ACTCHR
      6787**DCL      8820<<ASSIGN   8829>>IF       8873<>CALL     8875<<ASSIGN   8914<<ASSIGN
B$XL_UPPER$
      6545**DCL      6546--IMP-PTR
BLOCK$EXPR IN PROCEDURE PROCESS_COMMAND
      9310**DCL      9606<>CALL     9670<>CALL
CAN_READ_EDITING_WINDOW
      6789**DCL      8826<<ASSIGN   8839<<ASSIGN   8842>>IF
CLEAN_UP
      9077**LABEL    8821--GOTO     8913--GOTO     9041--GOTO     9061--GOTO     9069--GOTO
CLEAN_UP_AFTER_COMMAND
     11191**PROC     9779--CALL     9830--CALL
CLEAN_UP_AFTER_COMMAND_FAILED IN PROCEDURE PROCESS_COMMAND
      9829**LABEL    9779--CALLALT  9830--CALLALT
CL_INDEX
      6794**DCL      8923<<ASSIGN   8924>>DOWHILE  8926<>CALL     9763>>IF
CMD$RECORD.BYTES
      7160**DCL      9119<<CALLBLT  9122--ASSIGN
CMD$RECORD.LENGTH#
      7158**DCL      7160--IMP-SIZ  9119>>CALLBLT  9119>>CALLBLT
CMD$STREAM
      6970**DCL      9143<>CALL
CMD$STREAM.DCB#
      6997**DCL      9089>>IF
CMD$STREAM.FILE
      6996**DCL      9128--CALL
CMD$STREAM.FILE.BYTES
      6996**DCL      9136>>ASSIGN
CMD$STREAM.FILE.LENGTH#
      6996**DCL      9134>>ASSIGN
CMD$STREAM.INTREE$
      6997**DCL      8916>>IF       8930<<ASSIGN   8936>>CALL     8938<<ASSIGN   8944>>IF       8945>>ASSIGN
PL6.E3A0      #001=VDI$PDRIVER File=VDI$PARSE.:VDA5TSI                           FRI 07/04/97 11:33 Page:148
      8953>>CALL     8955<<ASSIGN   9065>>CALL     9067<<ASSIGN
CMD$STREAM.IT_FROM_PARSE_TREE
      6998**DCL      8931<<ASSIGN   8939<<ASSIGN   8952>>IF       8956<<ASSIGN   9068<<ASSIGN
CMD$STREAM.POSITION#
      6998**DCL      9086>>IF       9119>>CALLBLT  9119>>CALLBLT  9122>>ASSIGN
CMD$STREAM.RECORD$
      6997**DCL      9084>>IF       9086>>IF       9115>>ASSIGN   9116<<ASSIGN
CMD$STREAM.REC_NUM#
      6999**DCL      9090>>IF       9139>>ASSIGN
CMD$STREAM.TYPE#
      6996**DCL      8844>>DOWHILE  8885>>IF       9084>>IF       9097>>IF       9097>>IF       9149<<ASSIGN
CMD_CLASS IN PROCEDURE CLEAN_UP_AFTER_COMMAND
     11193**DCL     11191--PROC    11274>>IF      11274>>IF      11289<>CALL
CMD_CLASS IN PROCEDURE EDITING_COMMAND_SEEN
      9910**DCL      9908--PROC    10600>>IF
CMD_CLASS IN PROCEDURE PROCESS_COMMAND
      9258**DCL      9568<<ASSIGN   9573<<ASSIGN   9575<<ASSIGN   9577<<ASSIGN   9581>>IF       9581>>IF
      9592<>CALL     9779<>CALL     9830<>CALL
CMD_RECORD$
      6816**DCL      7132--IMP-PTR  9118<<ASSIGN   9119>>CALLBLT  9119>>CALLBLT  9119>>CALLBLT  9122>>ASSIGN
COMMAND$LINE
      7171**DCL      8926<>CALL
COMMAND$LINE.CODE
      7179**DCL      8920>>ASSIGN   8920>>ASSIGN
COMMAND$LINE.NSUBLKS
      7183**DCL      8924>>DOWHILE  9763>>IF
COMMAND_LINE$
      6793**DCL      7171--IMP-PTR  8918<<ASSIGN   8920>>ASSIGN   8920>>ASSIGN   8924>>DOWHILE  8926>>CALL
      9763>>IF
COUNT IN PROCEDURE EDITING_COMMAND_SEEN
     10110**DCL     10111--REDEF   10551<<ASSIGN  10551>>ASSIGN
COUNT_PTR$ IN PROCEDURE EDITING_COMMAND_SEEN
     10111**DCL     10543<<ASSIGN  10545>>ASSIGN  10548>>ASSIGN
CP_FAILED IN PROCEDURE PROCESS_COMMAND
      9819**LABEL    9589--CALLALT  9662--CALLALT  9681--GOTO     9697--GOTO     9702--CALLALT  9706--CALLALT
      9710--CALLALT  9714--CALLALT  9718--CALLALT  9722--CALLALT  9727--CALLALT  9730--CALLALT  9734--CALLALT
PL6.E3A0      #001=VDI$PDRIVER File=VDI$PARSE.:VDA5TSI                           FRI 07/04/97 11:33 Page:149
      9738--CALLALT  9742--CALLALT  9746--CALLALT  9750--CALLALT  9754--CALLALT  9759--CALLALT  9766--CALLALT
CREATE_FIRST_ED_WINDOW IN PROCEDURE EDITING_COMMAND_SEEN
     10515**LABEL   10567--EXIT
CURR$WINDOW
      6828**DCL      9038<>CALL
CURR$WINDOW.COMMAND
      6854**DCL      8852>>IF
CURR$WINDOW.DCB#
      6871**DCL      8855--IF       9037>>IF
CURR$WINDOW.OPERAND.EDIT_BLOCK$
      6869**DCL      8837>>IF       8850>>IF
CURR$WINDOW.OPERAND.STREAM$ IN PROCEDURE CLEAN_UP_AFTER_COMMAND
     11249**DCL     11276>>IF      11278>>CALL
CURR$WINDOW IN PROCEDURE PROCESS_COMMAND
      9357**DCL      9622<>CALL
CURR$WINDOW.OPERAND IN PROCEDURE PROCESS_COMMAND
      9396**DCL      9652<>CALL
CURR$WINDOW.OPERAND.INTREE$ IN PROCEDURE PROCESS_COMMAND
      9398**DCL      9611<<ASSIGN   9614>>ASSIGN   9700>>IF
CURR_WINDOW IN PROCEDURE NEW_EDIT_BLOCK_IN_OLD_DOMAIN
     10699**DCL     10689--PROC
CURR_WINDOW.OPERAND.EDIT_BLOCK$ IN PROCEDURE NEW_EDIT_BLOCK_IN_OLD_DOMAIN
     10740**DCL     11064>>ASSIGN
CURR_WINDOW.OPERAND.EVAL$ IN PROCEDURE NEW_EDIT_BLOCK_IN_OLD_DOMAIN
     10740**DCL     11096>>CALL
CURR_WINDOW$
      6790**DCL      6828--IMP-PTR  8849<<ASSIGN   8850>>IF       8852>>IF       8855>>IF       9037>>IF
      9038>>CALL
CURR_WINDOW$ IN PROCEDURE CLEAN_UP_AFTER_COMMAND
     11197**DCL     11208--IMP-PTR 11270<<ASSIGN  11272<<ASSIGN  11274>>IF      11276>>IF      11278>>CALL
CURR_WINDOW$ IN PROCEDURE PROCESS_COMMAND
      9259**DCL      9357--IMP-PTR  9598<<ASSIGN   9611>>ASSIGN   9614>>ASSIGN   9622>>CALL     9652>>CALL
      9664<<ASSIGN   9703<<ASSIGN
DELFID_CMD IN PROCEDURE PROCESS_COMMAND
      9263**DCL      9631<<ASSIGN   9635<<ASSIGN   9726>>IF
EDIT$BLOCK.FILE_KEY IN PROCEDURE NEW_EDIT_BLOCK_IN_OLD_DOMAIN
PL6.E3A0      #001=VDI$PDRIVER File=VDI$PARSE.:VDA5TSI                           FRI 07/04/97 11:33 Page:150
     10958**DCL     11080>>ASSIGN
EDIT$BLOCK.FILE_KEY.REP# IN PROCEDURE NEW_EDIT_BLOCK_IN_OLD_DOMAIN
     10960**DCL     11080>>IF
EDIT$BLOCK.FILE_KEY.V$ IN PROCEDURE NEW_EDIT_BLOCK_IN_OLD_DOMAIN
     10960**DCL     11080>>CALL    11080>>CALL
EDIT$BLOCK.OPTIONS.COMPONENT# IN PROCEDURE NEW_EDIT_BLOCK_IN_OLD_DOMAIN
     11043**DCL     11112>>ASSIGN
EDIT$BLOCK.OPTIONS.EXIST# IN PROCEDURE NEW_EDIT_BLOCK_IN_OLD_DOMAIN
     11044**DCL     11117>>ASSIGN
EDIT$BLOCK.OPTIONS.KEY_INCR IN PROCEDURE NEW_EDIT_BLOCK_IN_OLD_DOMAIN
     11055**DCL     11132>>ASSIGN
EDIT$BLOCK.OPTIONS.KEY_INCR.REP# IN PROCEDURE NEW_EDIT_BLOCK_IN_OLD_DOMAIN
     11057**DCL     11132>>IF
EDIT$BLOCK.OPTIONS.KEY_INCR.V$ IN PROCEDURE NEW_EDIT_BLOCK_IN_OLD_DOMAIN
     11057**DCL     11132>>CALL    11132>>CALL
EDIT$BLOCK.OPTIONS.LEVEL# IN PROCEDURE NEW_EDIT_BLOCK_IN_OLD_DOMAIN
     11043**DCL     11110>>ASSIGN
EDIT$BLOCK.OPTIONS.PROTECT# IN PROCEDURE NEW_EDIT_BLOCK_IN_OLD_DOMAIN
     11043**DCL     11115>>ASSIGN
EDIT$BLOCK.OPTIONS.STRUCTURE$ IN PROCEDURE NEW_EDIT_BLOCK_IN_OLD_DOMAIN
     11043**DCL     11107>>ASSIGN
EDIT$BLOCK.RANGE IN PROCEDURE NEW_EDIT_BLOCK_IN_OLD_DOMAIN
     10972**DCL     11083<>CALL    11096<>CALL
EDITING_COMMANDS IN PROCEDURE PROCESS_COMMAND
      9582**LABEL    9596--EXIT
EDITING_COMMAND_SEEN
      9908**PROC     9592--CALL    11289--CALL
EDITING_COMMAND_SEEN_FAILED IN PROCEDURE CLEAN_UP_AFTER_COMMAND
     11286**LABEL   11289--CALLALT
EDITING_COMMAND_SEEN_FAILED IN PROCEDURE PROCESS_COMMAND
      9829**LABEL    9592--CALLALT
EDIT_BLOCK$ IN PROCEDURE NEW_EDIT_BLOCK_IN_OLD_DOMAIN
     10910**DCL     10922--IMP-PTR 11064<<ASSIGN  11080>>ASSIGN  11080>>IF      11080>>CALL    11080>>CALL
     11083>>CALL    11107>>ASSIGN  11110>>ASSIGN  11112>>ASSIGN  11115>>ASSIGN  11117>>ASSIGN  11132>>ASSIGN
     11132>>IF      11132>>CALL    11132>>CALL
ED_WINDOW_BLOCK_WRITE_FAILED IN PROCEDURE EDITING_COMMAND_SEEN
PL6.E3A0      #001=VDI$PDRIVER File=VDI$PARSE.:VDA5TSI                           FRI 07/04/97 11:33 Page:151
     10606**LABEL   10581--CALLALT
ED_WINDOW_NODE$
      6788**DCL      8827<<ASSIGN   8828>>IF       8830<<ASSIGN   8830>>ASSIGN   8831>>IF       8832<<ASSIGN
      8835>>ASSIGN   8837>>IF       8844>>DOWHILE  8849>>ASSIGN   8873<>CALL     8877>>IF       8878>>ASSIGN
ED_WINDOW_PFLUSH_FAILED IN PROCEDURE EDITING_COMMAND_SEEN
     10617**LABEL   10584--CALLALT
ED_WINDOW_WRITE_FAILED IN PROCEDURE EDITING_COMMAND_SEEN
     10606**LABEL   10574--CALLALT
END_NOT_LAST_FAILURE IN PROCEDURE PROCESS_COMMAND
      9816**LABEL    9765--GOTO
ERR_CODE
      6808**DCL      9053<<ASSIGN
ERR_CODE.FCG
      6812**DCL      9054>>IF
EXPAND_COMMAND_WINDOW_FAILED
      9068**LABEL    8899--CALLALT  8902--CALLALT
F$DCB.ACTPOS
      8751**DCL      8751--REDEF
F$DCB.ARS#
      8725**DCL      8725--REDEF
F$DCB.ATTR
      8744**DCL      8745--REDEF
F$DCB.BORROW
      8759**DCL      8759--REDEF    8759--REDEF    8759--REDEF
F$DCB.DCBNAME.L
      8773**DCL      8773--IMP-SIZ
F$DCB.EOMCHAR#
      8729**DCL      8729--REDEF    8914>>ASSIGN
F$DCB.FCD#
      8738**DCL      8855>>IF       8971>>IF
F$DCB.FLDID
      8754**DCL      8754--REDEF
F$DCB.FORM$
      8748**DCL      8748--REDEF
F$DCB.FSECT
      8764**DCL      8764--REDEF
PL6.E3A0      #001=VDI$PDRIVER File=VDI$PARSE.:VDA5TSI                           FRI 07/04/97 11:33 Page:152
F$DCB.FSN#
      8741**DCL      8741--REDEF    8741--REDEF    8742--REDEF
F$DCB.HEADER$
      8747**DCL      8747--REDEF
F$DCB.IXTNSIZE#
      8745**DCL      8745--REDEF
F$DCB.LASTSTA$
      8734**DCL      8734--REDEF
F$DCB.LVL
      8760**DCL      8760--REDEF
F$DCB.NAME#.C
      8735**DCL      8735--REDEF
F$DCB.NOEOF
      8757**DCL      8757--REDEF
F$DCB.NRECS#
      8746**DCL      8746--REDEF
F$DCB.NRECX
      8765**DCL      8765--REDEF
F$DCB.OHDR
      8757**DCL      8757--REDEF
F$DCB.ORG#
      8740**DCL      8740--REDEF
F$DCB.PRECNO
      8763**DCL      8763--REDEF
F$DCB.RCSZ
      8769**DCL      8769--REDEF
F$DCB.RES#
      8736**DCL      8736--REDEF    8966>>IF
F$DCB.SETX
      8748**DCL      8748--REDEF
F$DCB.TAB$
      8748**DCL      8748--REDEF
F$DCB.TDA
      8762**DCL      8763--REDEF
F$DCB.WSN#
      8736**DCL      8736--REDEF
PL6.E3A0      #001=VDI$PDRIVER File=VDI$PARSE.:VDA5TSI                           FRI 07/04/97 11:33 Page:153
FATAL$ERR.ERR
      7308**DCL      9829>>IF
FIRST_ED_WIN_BLOCK_LOC IN PROCEDURE EDITING_COMMAND_SEEN
     10006**DCL     10523>>ASSIGN
FIRST_ED_WIN_LOC IN PROCEDURE EDITING_COMMAND_SEEN
      9929**DCL     10522>>ASSIGN
FLUSH_CMD_STREAMS
      9078**LABEL    9091--EXIT     9095--EXIT
FOREVER_LOOP
      8825**LABEL    9155--GOTO
FREE$EVAL IN PROCEDURE EDITING_COMMAND_SEEN
     10273**DCL     10594<>CALL
FREE$EVAL.BLINK$ IN PROCEDURE EDITING_COMMAND_SEEN
     10299**DCL     10593>>ASSIGN
FREE_EVAL$ IN PROCEDURE EDITING_COMMAND_SEEN
     10112**DCL     10273--IMP-PTR 10590<<ASSIGN  10592>>DOWHILE 10593>>ASSIGN  10594>>CALL    10596<<ASSIGN
GETCMD_FAILED
      9053**LABEL    8909--GOTO
GOT_WREAD_ERROR
      6795**DCL      9040<<ASSIGN
INDX
      6815**DCL      9105<<ASSIGN   9106>>DOWHILE  9106>>DOWHILE  9108<<ASSIGN   9108>>ASSIGN   9110>>IF
      9115>>ASSIGN   9118>>ASSIGN   9128>>CALL     9132>>ASSIGN   9134>>ASSIGN   9136>>ASSIGN   9136>>ASSIGN
IOPEN_FAILED IN PROCEDURE PROCESS_COMMAND
      9819**LABEL    9636--CALLALT
IRANGE_FAILED IN PROCEDURE PROCESS_COMMAND
      9819**LABEL    9652--CALLALT
IT$ADJUST.MOVEMENTS$
      8186**DCL     11088>>ASSIGN  11090<<ASSIGN
IT$ADJUST.MOVEMENTS_TAIL$
      8187**DCL      9632>>IF
IT$BLOCK_EXPR IN PROCEDURE PROCESS_COMMAND
      9423**DCL      9622<>CALL
IT$BLOCK_EXPR.DOMAINN IN PROCEDURE PROCESS_COMMAND
      9449**DCL      9616>>IF
IT$BLOCK_EXPR.SELECTS_TAIL$ IN PROCEDURE PROCESS_COMMAND
PL6.E3A0      #001=VDI$PDRIVER File=VDI$PARSE.:VDA5TSI                           FRI 07/04/97 11:33 Page:154
      9563**DCL      9632>>IF
IT$COMMAND
      6894**DCL      8936<>CALL     8953<>CALL     9065<>CALL
IT$COMMAND.CODE#
      6920**DCL     10513>>IF      10525>>IF      11288<<ASSIGN
IT$COMMAND.FLAGS
      6921**DCL     10529>>IF      10537>>IF
IT$COMMAND.PARAM$
      6921**DCL     10526>>IF      10527>>ASSIGN  10533>>IF      10534>>ASSIGN  10557>>IF
IT$COMMAND IN PROCEDURE PROCESS_COMMAND
      9274**DCL      9734<>CALL     9738<>CALL     9742<>CALL     9746<>CALL     9750<>CALL     9754<>CALL
      9759<>CALL     9766<>CALL
IT$COMMAND.CMDLINE_INDEX# IN PROCEDURE PROCESS_COMMAND
      9300**DCL      9828>>ASSIGN
IT$COMMAND.CODE# IN PROCEDURE PROCESS_COMMAND
      9300**DCL      9569>>DOCASE   9594>>IF       9616>>IF       9629>>IF       9629>>IF       9632>>IF
      9646>>DOCASE   9770<>CALL
IT$COMMAND.FLINK$ IN PROCEDURE PROCESS_COMMAND
      9300**DCL      9763>>IF       9783>>ASSIGN
IT$COMMAND.PARAM$ IN PROCEDURE PROCESS_COMMAND
      9301**DCL      9611>>ASSIGN   9612<<ASSIGN
IT$COMMAND.PT_BLOCK_EXPR$ IN PROCEDURE PROCESS_COMMAND
      9301**DCL      9594>>IF       9605>>IF       9606>>CALL     9608<<ASSIGN   9670>>CALL     9672<<ASSIGN
IT$OPERAND.CODE#
      8223**DCL      9632>>IF      11093<<ASSIGN
IT$OPERAND.FLINK$
      8223**DCL     11088<<ASSIGN
IT$OPERAND.OPTIONS.POINT#
      8236**DCL     11092<<ASSIGN
IT$OPERAND.PARAM$
      8253**DCL     11094<>CALL    11096>>CALL
IT$OPERAND.PARENT$
      8223**DCL     11089<<ASSIGN
IT$SELECT.ADJUSTS$
      8290**DCL     11085>>ASSIGN
IT$SELECT.ADJUSTS_TAIL$
PL6.E3A0      #001=VDI$PDRIVER File=VDI$PARSE.:VDA5TSI                           FRI 07/04/97 11:33 Page:155
      8290**DCL      9632>>IF
IT_BLOCK_EXPR IN PROCEDURE NEW_EDIT_BLOCK_IN_OLD_DOMAIN
     10765**DCL     10689--PROC
IT_BLOCK_EXPR.DOMAINN.FILE_KEY IN PROCEDURE NEW_EDIT_BLOCK_IN_OLD_DOMAIN
     10803**DCL     11080<<ASSIGN
IT_BLOCK_EXPR.DOMAINN.FILE_KEY.V$ IN PROCEDURE NEW_EDIT_BLOCK_IN_OLD_DOMAIN
     10805**DCL     11080<>CALL
IT_BLOCK_EXPR.DOMAINN.RANGE IN PROCEDURE NEW_EDIT_BLOCK_IN_OLD_DOMAIN
     10817**DCL     11083<>CALL
IT_BLOCK_EXPR.OPTIONS.COMPONENT# IN PROCEDURE NEW_EDIT_BLOCK_IN_OLD_DOMAIN
     10888**DCL     11111>>IF      11112<<ASSIGN
IT_BLOCK_EXPR.OPTIONS.EXIST# IN PROCEDURE NEW_EDIT_BLOCK_IN_OLD_DOMAIN
     10889**DCL     11116>>IF      11117<<ASSIGN
IT_BLOCK_EXPR.OPTIONS.KEY_INCR IN PROCEDURE NEW_EDIT_BLOCK_IN_OLD_DOMAIN
     10900**DCL     11132<<ASSIGN
IT_BLOCK_EXPR.OPTIONS.KEY_INCR.V$ IN PROCEDURE NEW_EDIT_BLOCK_IN_OLD_DOMAIN
     10902**DCL     11132<>CALL
IT_BLOCK_EXPR.OPTIONS.LEVEL# IN PROCEDURE NEW_EDIT_BLOCK_IN_OLD_DOMAIN
     10888**DCL     11109>>IF      11110<<ASSIGN
IT_BLOCK_EXPR.OPTIONS.PROTECT# IN PROCEDURE NEW_EDIT_BLOCK_IN_OLD_DOMAIN
     10888**DCL     11114>>IF      11115<<ASSIGN
IT_BLOCK_EXPR.OPTIONS.STRUCTURE$ IN PROCEDURE NEW_EDIT_BLOCK_IN_OLD_DOMAIN
     10888**DCL     11106>>IF      11107<<ASSIGN
IT_BLOCK_EXPR.SELECTS$ IN PROCEDURE NEW_EDIT_BLOCK_IN_OLD_DOMAIN
     10905**DCL     11085>>ASSIGN
IT_BLOCK_EXPR$ IN PROCEDURE PROCESS_COMMAND
      9260**DCL      9423--IMP-PTR  9614<<ASSIGN   9616>>IF       9622>>CALL     9632>>IF
IT_COMMAND$
      6791**DCL      6894--IMP-PTR  8925<<ASSIGN   8926<>CALL     8929>>IF       8930>>ASSIGN   8932>>DOWHILE
      8933<>CALL     8945<<ASSIGN   8946>>DOWHILE  8947<>CALL    10513>>IF      10525>>IF      10526>>IF
     10527>>ASSIGN  10529>>IF      10533>>IF      10534>>ASSIGN  10537>>IF      10557>>IF      11288>>ASSIGN
IT_COMMAND$ IN PROCEDURE PROCESS_COMMAND
      9246**DCL      9243--PROC     9274--IMP-PTR  9569>>DOCASE   9594>>IF       9594>>IF       9605>>IF
      9606>>CALL     9608>>ASSIGN   9611>>ASSIGN   9612>>ASSIGN   9616>>IF       9629>>IF       9629>>IF
      9632>>IF       9646>>DOCASE   9670>>CALL     9672>>ASSIGN   9734>>CALL     9738>>CALL     9742>>CALL
      9746>>CALL     9750>>CALL     9754>>CALL     9757<<ASSIGN   9759>>CALL     9763>>IF       9766>>CALL
PL6.E3A0      #001=VDI$PDRIVER File=VDI$PARSE.:VDA5TSI                           FRI 07/04/97 11:33 Page:156
      9770>>CALL     9782>>IF       9783<<ASSIGN   9783>>ASSIGN   9828>>ASSIGN
IT_TEMP$ IN PROCEDURE NEW_EDIT_BLOCK_IN_OLD_DOMAIN
     10911**DCL     11085<<ASSIGN  11088>>ASSIGN  11089>>ASSIGN  11090>>ASSIGN  11091<<ASSIGN  11092>>ASSIGN
     11093>>ASSIGN  11094>>CALL    11096>>CALL
LDELETE_FAILED IN PROCEDURE EDITING_COMMAND_SEEN
     10606**LABEL   10538--CALLALT
M$6E
      6556**DCL      8966--IF
M$ME
      6557**DCL      8971--IF
M$SI
      6558**DCL      9089>>IF
NEW_EDIT_BLOCK_IN_OLD_DOMAIN
     10689**PROC     9622--CALL
NEW_EDIT_BLOCK_IN_OLD_FAILED IN PROCEDURE PROCESS_COMMAND
      9829**LABEL    9622--CALLALT
NEXT_EVAL$ IN PROCEDURE EDITING_COMMAND_SEEN
     10113**DCL     10593<<ASSIGN  10596>>ASSIGN
NFLUSH_FAILED
      9068**LABEL    8868--CALLALT  8886--CALLALT
NODE$ IN PROCEDURE EDITING_COMMAND_SEEN
     10109**DCL     10542<<ASSIGN  10543>>ASSIGN  10544>>DOUNTIL 10545>>ASSIGN  10546>>IF      10550<<ASSIGN
     10550>>ASSIGN
OALLOC_FAILED
      9154**LABEL    9055--CALLALT  9101--CALLALT  9128--CALLALT  9147--CALLALT
OALLOC_FAILED IN PROCEDURE EDITING_COMMAND_SEEN
     10617**LABEL   10519--CALLALT 10577--CALLALT
OALLOC_FAILED IN PROCEDURE NEW_EDIT_BLOCK_IN_OLD_DOMAIN
     11132**LABEL   11086--CALLALT 11094--CALLALT
OALLOC_FAILED IN PROCEDURE PROCESS_COMMAND
      9829**LABEL    9656--CALLALT  9816--CALLALT
OCOPY_RANGE_FAILED IN PROCEDURE NEW_EDIT_BLOCK_IN_OLD_DOMAIN
     11141**LABEL   11083--CALLALT 11096--CALLALT
OFREE_FAILED
      9154**LABEL    8936--CALLALT  8953--CALLALT  9065--CALLALT  9143--CALLALT
OFREE_FAILED IN PROCEDURE EDITING_COMMAND_SEEN
PL6.E3A0      #001=VDI$PDRIVER File=VDI$PARSE.:VDA5TSI                           FRI 07/04/97 11:33 Page:157
     10617**LABEL   10554--CALLALT 10558--CALLALT 10594--CALLALT 10604--CALLALT
P$PCB.HI_CHAR
      8688**DCL      9059>>ASSIGN
PARSE_TREE_TO_INTREE_FAILED
      9065**LABEL    8926--CALLALT
PBLOCK_EXPR_FAILED IN PROCEDURE PROCESS_COMMAND
      9819**LABEL    9606--CALLALT
PFLUSH_FAILED IN PROCEDURE CLEAN_UP_AFTER_COMMAND
     11286**LABEL   11278--CALLALT 11284--CALLALT
PREV_IT_COMMAND$
      6792**DCL      6932--IMP-PTR  8922<<ASSIGN
PROCESS_COMMAND
      9243**PROC     8933--CALL     8947--CALL
PROCESS_COMMAND_FAILED
      9068**LABEL    8933--CALLALT  8947--CALLALT
READ_EDITING_WINDOW
      8844**LABEL    8851--EXIT
SAVE_SCREEN IN PROCEDURE PROCESS_COMMAND
      9262**DCL      9686<<ASSIGN   9693>>ASSIGN
SHOW_PBLOCK_EXPR_FAILED IN PROCEDURE PROCESS_COMMAND
      9675**LABEL    9670--CALLALT
SHRINK_COMMAND_WINDOW_FAILED
      9068**LABEL    8858--CALLALT
SIGNAL IN PROCEDURE PROCESS_COMMAND
      9261**DCL      9652<>CALL     9655>>IF       9666<<ASSIGN   9675<<ASSIGN   9680>>IF       9690<<ASSIGN
      9697>>IF
SINK$
      6817**DCL      9147<>CALL    11086<>CALL    11088>>ASSIGN  11089>>ASSIGN  11090>>ASSIGN  11091>>ASSIGN
SUBST$NUMBER.OBJECT.CLASS#
      7409**DCL      9138<<ASSIGN
SUBST$NUMBER.V#
      7411**DCL      9139<<ASSIGN
SUBST$POINTER.OBJECT.CLASS#
      7454**DCL      9117<<ASSIGN   9131<<ASSIGN
SUBST$POINTER.V$
      7456**DCL      9122<<ASSIGN   9132<<ASSIGN
PL6.E3A0      #001=VDI$PDRIVER File=VDI$PARSE.:VDA5TSI                           FRI 07/04/97 11:33 Page:158
SUBST_FIELD$
      6799**DCL      7377--IMP-PTR  7430--IMP-PTR  9103<<ASSIGN   9117>>ASSIGN   9122>>ASSIGN   9131>>ASSIGN
      9132>>ASSIGN   9138>>ASSIGN   9139>>ASSIGN
VD$BUFFER.LENGTH#
      7603**DCL      7605--IMP-SIZ  9086>>IF
VD$ERR
      7218**DCL      9103--ASSIGN
VD$ERR.CMDLINE_INDEX#
      7260**DCL      9059<<ASSIGN   9827>>IF       9828<<ASSIGN
VD$ERR.ERR
      7255**DCL      9057<<ASSIGN
VD$ERR.ERR.CODE#
      7257**DCL      9114<<ASSIGN   9127<<ASSIGN   9657<<ASSIGN   9818<<ASSIGN
VD$ERR.FLAGLEV#
      7260**DCL      9058<<ASSIGN   9104<<ASSIGN   9658<<ASSIGN   9819<<ASSIGN
VD$ERR_TAIL.DCB#
      7366**DCL      9037>>IF
VD$ERR_TAIL.ERR.CODE#
      7363**DCL      9030>>IF
VD$ERR_TAIL.ERR.MON
      7363**DCL      9030>>IF
VD$EVAL.BLINK$
      7892**DCL     10590>>ASSIGN  10591<<ASSIGN
VD$EVAL.CTRL_REC_MATCHED_EOF
      8100**DCL     10599<<ASSIGN
VD$EVAL.RANGE
      7972**DCL     11096<>CALL
VD$EVAL.STATE#
      8100**DCL     10601<<ASSIGN
VD$FILE_NODE.DESC.KEY.V$
      7532**DCL     10531>>ASSIGN  10543>>ASSIGN  10545<<ASSIGN  10559>>DOWHILE
VD$FILE_NODE.DESC.SPEC.V$
      7546**DCL      8837>>IF       8849>>ASSIGN   9598>>ASSIGN   9664>>ASSIGN   9700>>IF       9703>>ASSIGN
     10588>>ASSIGN  11270>>ASSIGN
VD$FILE_NODE.FLINK$
      7493**DCL      8830>>ASSIGN   8832>>ASSIGN  10550>>ASSIGN  10561>>IF      10562>>ASSIGN  10564>>ASSIGN
PL6.E3A0      #001=VDI$PDRIVER File=VDI$PARSE.:VDA5TSI                           FRI 07/04/97 11:33 Page:159
     10620>>ASSIGN
VD$FILE_NODE.HEAD$
      7550**DCL      8832>>ASSIGN
VD$FILE_NODE.OBJECT.CLASS#
      7491**DCL     10618>>IF
VD$IT_BLOCK_EXPR
      7618**DCL     10604<>CALL
VD$KEY_NUMBER.BYTES#
      8304**DCL     10524<<ASSIGN  10534<<ASSIGN
VD$NUMBER.V#
      8349**DCL     10527>>ASSIGN  10534>>ASSIGN
VD$PORT
      7768**DCL     10584<>CALL    11278<>CALL    11284<>CALL
VD$PORT.CURRENT.KEY.V$
      7835**DCL     10548<<ASSIGN
VD$PORT.LEVEL.INTERNAL$
      7855**DCL      8832>>ASSIGN  10546>>IF
VD$STREAM.PORT$
      8386**DCL      8832>>ASSIGN  11276>>IF      11278>>CALL    11282>>IF      11284>>CALL
VD$TEXTC_REMOTE
      8483**DCL     11080<>CALL    11132<>CALL
VD$TEXTC_REMOTE.BYTES
      8514**DCL      9136<<ASSIGN
VD$TEXTC_REMOTE.LENGTH#
      8512**DCL      8514--IMP-SIZ  9132--ASSIGN   9134<<ASSIGN   9136>>ASSIGN  11080>>CALL    11132>>CALL
VDA$LDELETE
      6121**DCL-ENT 10538--CALL
VDA$LWRITE
      6122**DCL-ENT 10574--CALL    10581--CALL
VDA$PFLUSH
      6123**DCL-ENT 10584--CALL    11278--CALL    11284--CALL
VDE$IOPEN
      6132**DCL-ENT  9636--CALL
VDE$IRANGE
      6133**DCL-ENT  9652--CALL
VDE$PBLOCK_EXPR
PL6.E3A0      #001=VDI$PDRIVER File=VDI$PARSE.:VDA5TSI                           FRI 07/04/97 11:33 Page:160
      6129**DCL-ENT  9606--CALL     9670--CALL
VDG$EREPORT_ERROR
      6140**DCL-ENT  8961--CALL     9152--CALL     9161--CALL
VDG$ESCREECH
      6141**DCL-ENT  8853--CALL     9111--CALL     9770--CALL
VDG$EXPAND_COMMAND_WINDOW
      6135**DCL-ENT  8899--CALL     8902--CALL     8972--CALL     9684--CALL
VDG$OALLOC
      6136**DCL-ENT  9055--CALL     9101--CALL     9128--CALL     9147--CALL     9656--CALL     9816--CALL
     10519--CALL    10577--CALL    11086--CALL    11094--CALL
VDG$OCOPY
      6138**DCL-ENT 11080--CALL    11132--CALL
VDG$OCOPY_RANGE
      6139**DCL-ENT 11083--CALL    11096--CALL
VDG$OFREE
      6137**DCL-ENT  8936--CALL     8953--CALL     9065--CALL     9143--CALL    10554--CALL    10558--CALL
     10594--CALL    10604--CALL    10616--CALL
VDG$SHRINK_COMMAND_WINDOW
      6134**DCL-ENT  8858--CALL     9589--CALL
VDI$CAFTER
      6149**DCL-ENT  9718--CALL
VDI$CCOPY
      6147**DCL-ENT  9674--CALL     9710--CALL
VDI$CDELETE
      6151**DCL-ENT  9727--CALL
VDI$CDELETE_FID
      6152**DCL-ENT  9730--CALL
VDI$CDISPLAY
      6146**DCL-ENT  9706--CALL
VDI$CEDIT
      6145**DCL-ENT  9662--CALL     9702--CALL
VDI$CEND
      6154**DCL-ENT  9766--CALL
VDI$CEQUALS
      6153**DCL-ENT  9734--CALL
VDI$CKEYIN
PL6.E3A0      #001=VDI$PDRIVER File=VDI$PARSE.:VDA5TSI                           FRI 07/04/97 11:33 Page:161
      6155**DCL-ENT  9746--CALL
VDI$CLOCATION
      6156**DCL-ENT  9738--CALL
VDI$CMOVE
      6148**DCL-ENT  9714--CALL
VDI$COVER
      6150**DCL-ENT  9722--CALL
VDI$CREAD
      6157**DCL-ENT  9754--CALL
VDI$CRESTORE
      6158**DCL-ENT  9759--CALL
VDI$CSAVE
      6159**DCL-ENT  9750--CALL
VDI$CSHOW
      6160**DCL-ENT  9688--CALL
VDI$CSYNONYM
      6161**DCL-ENT  9742--CALL
VDI$PARSE_TREE_TO_INTREE
      6124**DCL-ENT  8926--CALL
VDI$PREAD_FILE_CLOSE
      6126**DCL-ENT  9092--CALL     9126--CALL
VDI$PREAD_FILE_OPEN
      6127**DCL-ENT  9093--CALL
VDI$PREAD_FILE_POSITION
      6128**DCL-ENT  9094--CALL
VDI$PREMOVE_EDIT_BLOCK
      6125**DCL-ENT  9033--CALL
VDP$NFLUSH
      6118**DCL-ENT  8868--CALL     8886--CALL
VDP$WERASE
      6119**DCL-ENT  9038--CALL
VDP$WINIT
      6142**DCL-ENT  8969--CALL
VDP$WREAD
      6120**DCL-ENT  8873--CALL
VD_$$QUAC.V#
PL6.E3A0      #001=VDI$PDRIVER File=VDI$PARSE.:VDA5TSI                           FRI 07/04/97 11:33 Page:162
      6601**DCL      9089>>IF
VD_$COMMAND.V#
      6691**DCL      8844>>DOWHILE  9588>>IF
VD_$MIN_COMMAND.V#
      6736**DCL      8858<>CALL     8898>>IF       8899<>CALL     9589<>CALL
VD_$SCREEN.V#
      6646**DCL      8971>>IF       8972<>CALL     9682>>IF       9684<>CALL     9686>>ASSIGN   9687<<ASSIGN
      9693<<ASSIGN
VD_6E.CMD_STREAM$
      6195**DCL      6970--IMP-PTR  8844>>DOWHILE  8885>>IF       8916>>IF       8930>>ASSIGN   8931>>ASSIGN
      8936>>CALL     8938>>ASSIGN   8939>>ASSIGN   8944>>IF       8945>>ASSIGN   8952>>IF       8953>>CALL
      8955>>ASSIGN   8956>>ASSIGN   9065>>CALL     9067>>ASSIGN   9068>>ASSIGN   9077>>IF       9082>>DOUNTIL
      9084>>IF       9084>>IF       9086>>IF       9086>>IF       9089>>IF       9090>>IF       9097>>IF
      9097>>IF       9115>>ASSIGN   9116>>ASSIGN   9119>>CALLBLT  9119>>CALLBLT  9122>>ASSIGN   9134>>ASSIGN
      9136>>ASSIGN   9139>>ASSIGN   9143>>CALL     9149>>ASSIGN
VD_6E.ERR_HEAD$
      6196**DCL      7271--IMP-PTR  8960>>IF       9829>>IF
VD_6E.ERR_TAIL$
      6196**DCL      7324--IMP-PTR  8960>>IF       9030>>IF       9030>>IF       9037>>IF       9827>>IF
      9828>>ASSIGN
VD_6E.SOURCE.OPERAND.STREAM$
      6193**DCL     11282>>IF      11284>>CALL
VD_6E.STATS#
      6197**DCL      9650<<ASSIGN   9650>>ASSIGN
VD_6E.STATS_TOKENS#
      6198**DCL      8920<<ASSIGN   8920>>ASSIGN
VD_6E.WINDOWS$
      6178**DCL      7009--IMP-PTR  8832>>ASSIGN  10538>>CALL    10546>>IF      10548>>ASSIGN  10574>>CALL
     10581>>CALL    10584>>CALL
VD_ASYM
      6549**DCL      8912--IF
VD_CMD_OBJECTS$
      6543**DCL      9106>>DOWHILE  9115<<ASSIGN   9118>>ASSIGN   9128<>CALL     9132>>ASSIGN   9134>>ASSIGN
      9136>>ASSIGN   9136>>ASSIGN
VD_COMMAND_LINE
      6548**DCL      8905--ASSIGN
PL6.E3A0      #001=VDI$PDRIVER File=VDI$PARSE.:VDA5TSI                           FRI 07/04/97 11:33 Page:163
VD_COMMAND_WINDOW$
      6539**DCL      9669>>ASSIGN   9677>>IF      10540>>IF      10542>>ASSIGN  10564>>ASSIGN  10620>>ASSIGN
VD_CURRENT_WINDOW$
      6538**DCL      8827>>ASSIGN   8835<<ASSIGN   8878<<ASSIGN   9598>>ASSIGN   9664>>ASSIGN   9668>>IF
      9669<<ASSIGN   9677>>IF       9678<<ASSIGN   9699>>IF       9700>>IF       9703>>ASSIGN  10513>>IF
     10529>>IF      10531>>ASSIGN  10559>>DOWHILE 10561>>IF      10562<<ASSIGN  10562>>ASSIGN  10564<<ASSIGN
     10588>>ASSIGN  10617>>IF      10618>>IF      10620<<ASSIGN  11269>>IF      11270>>ASSIGN
VD_EDITING_HEIGHT
      6551**DCL     10521>>ASSIGN
VD_EDITING_WINDOWS
      6552**DCL      8968>>IF      10524>>ASSIGN
VD_ERR$
      6798**DCL      7218--IMP-PTR  9055<>CALL     9057>>ASSIGN   9058>>ASSIGN   9059>>ASSIGN   9079<<ASSIGN
      9091>>IF       9101<>CALL     9103>>ASSIGN   9104>>ASSIGN   9114>>ASSIGN   9127>>ASSIGN   9656<>CALL
      9657>>ASSIGN   9658>>ASSIGN   9816<>CALL     9818>>ASSIGN   9819>>ASSIGN
VD_FORCE_READ_FROM
      6541**DCL      8819<<ASSIGN   8844>>DOWHILE  8844>>DOWHILE  8897<<ASSIGN   9154<<ASSIGN   9682>>IF
      9695>>IF       9696<<ASSIGN
VD_IBEX_WINDOW
      6553**DCL      8968>>IF
VD_LAST_CWIN_ACTIVITY
      6542**DCL      8872<<ASSIGN   8908<<ASSIGN   8911<<ASSIGN
VD_OLD_$SCREEN
      6554**DCL      9588>>IF
VD_WORST_FLAGLEV
      6550**DCL      8821>>IF
WARN_ABORTED_BUFFER
      6796**DCL      9083<<ASSIGN   9088<<ASSIGN   9097>>IF       9113>>IF
WINDOW$SPEC IN PROCEDURE EDITING_COMMAND_SEEN
     10207**DCL     10554<>CALL    10558<>CALL    10616<>CALL
WINDOW$SPEC.COORDS.HEIGHT# IN PROCEDURE EDITING_COMMAND_SEEN
     10234**DCL     10521<<ASSIGN  10527<<ASSIGN
WINDOW$SPEC.OPERAND.EVAL$ IN PROCEDURE EDITING_COMMAND_SEEN
     10248**DCL     10589>>IF      10590>>ASSIGN  10591>>ASSIGN  10599>>ASSIGN  10601>>ASSIGN
WINDOW$SPEC.OPERAND.INTREE$ IN PROCEDURE EDITING_COMMAND_SEEN
     10248**DCL     10604>>CALL    10606<<ASSIGN
PL6.E3A0      #001=VDI$PDRIVER File=VDI$PARSE.:VDA5TSI                           FRI 07/04/97 11:33 Page:164
WINDOWS$STREAM
      7009**DCL     10538<>CALL    10574<>CALL    10581<>CALL
WINDOWS$STREAM.PORT$
      7035**DCL     10546>>IF      10548>>ASSIGN  10584>>CALL
WINDOW_SPEC$ IN PROCEDURE EDITING_COMMAND_SEEN
     10108**DCL     10207--IMP-PTR 10588<<ASSIGN  10589>>IF      10590>>ASSIGN  10591>>ASSIGN  10599>>ASSIGN
     10601>>ASSIGN  10604>>CALL    10606>>ASSIGN
WLOC IN PROCEDURE EDITING_COMMAND_SEEN
     10136**DCL     10538<>CALL
WLOC.ENDD IN PROCEDURE EDITING_COMMAND_SEEN
     10178**DCL     10523<<ASSIGN  10581<>CALL
WLOC.ENDD.KEY IN PROCEDURE EDITING_COMMAND_SEEN
     10190**DCL     10536<<ASSIGN  10570<<ASSIGN
WLOC.START IN PROCEDURE EDITING_COMMAND_SEEN
     10150**DCL     10522<<ASSIGN  10524--ASSIGN  10534--ASSIGN  10574<>CALL
WLOC.START.KEY IN PROCEDURE EDITING_COMMAND_SEEN
     10162**DCL     10536>>ASSIGN  10570>>ASSIGN
WLOC.START.KEY.V$ IN PROCEDURE EDITING_COMMAND_SEEN
     10164**DCL     10531<<ASSIGN  10559>>DOWHILE
WREAD_FAILED
      9030**LABEL    8873--CALLALT
WSPEC IN PROCEDURE EDITING_COMMAND_SEEN
     10122**DCL     10574<>CALL    10581<>CALL    10615>>IF
WSPEC.REP# IN PROCEDURE EDITING_COMMAND_SEEN
     10126**DCL     10573<<ASSIGN  10580<<ASSIGN
WSPEC.TYPE# IN PROCEDURE EDITING_COMMAND_SEEN
     10126**DCL     10572<<ASSIGN  10579<<ASSIGN
WSPEC.V$ IN PROCEDURE EDITING_COMMAND_SEEN
     10126**DCL     10519<>CALL    10521>>ASSIGN  10527>>ASSIGN  10554>>CALL    10558>>CALL    10577<>CALL
     10616>>CALL
XUG$GETCMD
      5903**DCL-ENT  8906--CALL
XUG_GETCMD
      6213**DCL      8906<>CALL
XUG_GETCMD.ERR#
      6224**DCL      9053>>ASSIGN   9057>>ASSIGN
PL6.E3A0      #001=VDI$PDRIVER File=VDI$PARSE.:VDA5TSI                           FRI 07/04/97 11:33 Page:165
XUG_GETCMD.INDCB#
      6384**DCL      8914--ASSIGN
XUG_GETCMD.NODES$
      6214**DCL      8905<<ASSIGN   8912>>IF
XUG_GETCMD.OUT$
      6218**DCL      6224--REDEF    8916>>IF       8918>>ASSIGN
XUG_GETCMD.PCB$
      6238**DCL      9059>>ASSIGN

