VERSION A05

PL6.E3A0      #001=VDP$WERASE File=VDP$WINDOW_I_O.:VDA5TSI                       FRI 07/04/97 11:39 Page:1
        1        1        /*M* VDP$WERASE:  Erase a window via VDH.  */
        2        2        /*T***********************************************************/
        3        3        /*T*                                                         */
        4        4        /*T* Copyright (c) Bull HN Information Systems Inc., 1997    */
        5        5        /*T*                                                         */
        6        6        /*T***********************************************************/
        7        7        /*X* DMC,PLM=4,IND=0,DCI=4,CSI=2,IAD=2,DTI=2,AND,ECI=0,DIN=2,STI=2 */
        8        8
        9        9        VDP$WERASE: PROC ( WINDOW_SPEC )
       10       10              ALTRET;
       11       11
       12       12          %INCLUDE CP_6;
       13       93
       14       94            %B$TCB;
       15       97            %B$ALT;
       16      105    1     DCL B$TCB$ PTR SYMREF;
       17      106
       18      107          %FPT_ERASE;
       19      140
       20      141          %INCLUDE VD_MACROS_M;
       21     2356
       22     2357          %VD$WINDOW_SPEC ( NAME = WINDOW_SPEC,
       23     2358                            STCLASS = PARAM );
       24     2424
       25     2425          %VD$NUMBER ( NAME = VD_$$MON_PRES,
       26     2426                       STCLASS = SYMREF );
       27     2471          %VD$NUMBER ( NAME = VD_$SCREEN,
       28     2472                       STCLASS = SYMREF );
       29     2517
       30     2518    1     DCL RECORD_SET_INDEX UBIN;
       31     2519    1     DCL VD_ERR$ PTR;
       32     2520
       33     2521          %VD$BUFFER;
       34     2579          %VD$ERR ( STCLASS = "BASED ( VD_ERR$ )" );
       35     2632          %VD$RECORD_SET ( NAME = RECORD$SET,
       36     2633                           STCLASS = "BASED ( WINDOW_SPEC.RECORD_SET$ )" );
       37     2711          %VD$TEXTC_NUMBER;
PL6.E3A0      #001=VDP$WERASE File=VDP$WINDOW_I_O.:VDA5TSI                       FRI 07/04/97 11:39 Page:2
       38     2725          %VD$TEXTC_REMOTE;
       39     2786
       40     2787    1     DCL VDG$MPRES_FEPERASE ENTRY (3);
       41     2788    1     DCL VDG$MPRES_RETURN ENTRY (1);
       42     2789    1     DCL VDG$MPRES_WERASE ENTRY (1);
       43     2790    1     DCL VDG$OALLOC ENTRY (3) ALTRET;
       44     2791    1     DCL VDG$OFREE ENTRY (1) ALTRET;
       45     2792        %EJECT;
PL6.E3A0      #001=VDP$WERASE File=VDP$WINDOW_I_O.:VDA5TSI                       FRI 07/04/97 11:39 Page:3
       46     2793    1       IF VD_$$MON_PRES.V# > 0
       47     2794    1       THEN
       48     2795    1         CALL VDG$MPRES_WERASE ( WINDOW_SPEC );
       49     2796
       50     2797    1       IF VD_$SCREEN.V# < %MN_SCREEN_EDITING_HEIGHT
       51     2798    1         OR WINDOW_SPEC.RECORD_SET$ = ADDR(NIL)
       52     2799    1       THEN
       53     2800    1         RETURN;
       54     2801
       55     2802    1       FPT_ERASE.V.DCB# = WINDOW_SPEC.DCB#;
       56     2803
       57     2804    1       IF VD_$$MON_PRES.V# > 0
       58     2805    1       THEN
       59     2806    1         CALL VDG$MPRES_FEPERASE ( WINDOW_SPEC.DCB#,
       60     2807    1           RECORD$SET.DESC.KEY ( 0 ),
       61     2808    1           RECORD$SET.DESC.KEY ( RECORD$SET.N_ENTRIES# - 1 ) );
       62     2809
       63     2810    1       CALL M$ERASE ( FPT_ERASE )
       64     2811    1       WHENALTRETURN
       65     2812    2         DO;
       66     2813    2           CALL VDG$OALLOC ( %CLS_ERR, VD_ERR$ )
       67     2814    3           WHENALTRETURN DO; ALTRETURN; END;
       68     2815    2           VD$ERR.ERR = B$TCB$ -> B$TCB.ALT$ -> B$ALT.ERR;
       69     2816    2           VD$ERR.FLAGLEV# = %FLV_SERIOUS;
       70     2817    2           VD$ERR.DCB# = FPT_ERASE.V.DCB#;
       71     2818    2           ALTRETURN;
       72     2819    2         END;
       73     2820
       74     2821    1       WINDOW_SPEC.SCREEN_UPDATED = %FALSE;
       75     2822
       76     2823            /*  BUFF, TURF, BOUNCE.  */
       77     2824    2       DO RECORD_SET_INDEX = 0 TO RECORD$SET.N_ENTRIES# - 1;
       78     2825              %CLEARKEY ( KEY = "RECORD$SET.DESC.KEY",
       79     2826              INDX = RECORD_SET_INDEX );
       80     2836    2         CALL VDG$OFREE ( RECORD$SET.DESC.DATA$ ( RECORD_SET_INDEX ) -> VD$BUFFER );
       81     2837    2       END;
       82     2838
PL6.E3A0      #001=VDP$WERASE File=VDP$WINDOW_I_O.:VDA5TSI                       FRI 07/04/97 11:39 Page:4
       83     2839    1       RECORD$SET.N_ENTRIES# = 0;
       84     2840    1       WINDOW_SPEC.BOB_DISPLAYED = %FALSE;
       85     2841    1       WINDOW_SPEC.EOB_DISPLAYED = %FALSE;
       86     2842
       87     2843    1       IF VD_$$MON_PRES.V# > 0
       88     2844    1       THEN
       89     2845    1         CALL VDG$MPRES_RETURN ( WINDOW_SPEC );
       90     2846
       91     2847    1       RETURN;
       92     2848
       93     2849    1   END VDP$WERASE;
       94     2850        %EOD;

PL6.E3A0      #001=VDP$WERASE File=VDP$WINDOW_I_O.:VDA5TSI                       FRI 07/04/97 11:39 Page:5
--  Include file information  --

   VD_MACROS_M.:VDA5TOU  is referenced.
   CP_6.:LIBRARY  cannot be made into a system file and is referenced.
   B$JIT_C.:E04TOU  was found in the system file and is never referenced.
   CP_6_C.:E04TOU  was found in the system file and is referenced.
      No diagnostics issued in procedure VDP$WERASE.

   Procedure VDP$WERASE requires 119 words for executable code.
   Procedure VDP$WERASE requires 10 words of local(AUTO) storage.

PL6.E3A0      #001=VDP$WERASE File=VDP$WINDOW_I_O.:VDA5TSI                       FRI 07/04/97 11:39 Page:6

 Object Unit name= VDP$WERASE                                 File name= VDP$WINDOW_I_O.:VDA5TOU
 UTS= JUL 04 '97 11:39:35.04 FRI                              Compiler= PL-6/E31         Sev=      00
 SharedLib= :SHARED_SYSTEM                                    Alt SharedLib=


    ****  Control sections  ****

 Sect   Type Bound  Init  Size OctSiz  Section name(segment info)
    0   DCB   even  none     0      0  M$UC
    1   Data  even  none     8     10  VDP$WERASE
    2   Proc  even  none   119    167  VDP$WERASE
    3  RoData even  none     4      4  VDP$WERASE

    ****  Entry defs  ****

                              Check   Calling
                             calling  sequence
  Sect OctLoc Primary Altret sequence   type   Parms  Name
     2      0   yes    yes     yes      Std        1  VDP$WERASE

  ****  Entry refs  ****

         Check        Calling
        calling       sequence
Altret sequence SRef   type   Args  Name
         yes           Std       1 VDG$MPRES_WERASE
 yes     yes           Std       3 VDG$OALLOC
 yes     yes           Std       1 VDG$OFREE
         yes           Std       1 VDG$MPRES_RETURN
         yes           Std       3 VDG$MPRES_FEPERASE
                       nStd      0 X66_AUTO_1
                       Std       0 B_CONSPOOL_D
                       nStd      0 X66_ARET
                       nStd      0 X66_AALT
PL6.E3A0      #001=VDP$WERASE File=VDP$WINDOW_I_O.:VDA5TSI                       FRI 07/04/97 11:39 Page:7

  ****  Data refs  ****

  Flags:  r = read only, s = secondary
Flgs Name                             Flgs Name                             Flgs Name
     M$UC                                  B$TCB$                                VD_$$MON_PRES
     VD_$SCREEN                            B_VECTNIL

  ****  Segment refs  ****

  Flags:  r = read only, s = secondary
Flgs Name                             Flgs Name                             Flgs Name
     ISSID                                 NULLSID
PL6.E3A0      #001=VDP$WERASE File=VDP$WINDOW_I_O.:VDA5TSI                       FRI 07/04/97 11:39 Page:8


        1        1        /*M* VDP$WERASE:  Erase a window via VDH.  */
        2        2        /*T***********************************************************/
        3        3        /*T*                                                         */
        4        4        /*T* Copyright (c) Bull HN Information Systems Inc., 1997    */
        5        5        /*T*                                                         */
        6        6        /*T***********************************************************/
        7        7        /*X* DMC,PLM=4,IND=0,DCI=4,CSI=2,IAD=2,DTI=2,AND,ECI=0,DIN=2,STI=2 */
        8        8
        9        9        VDP$WERASE: PROC ( WINDOW_SPEC )

      9  2 000000   000000 700200 xent  VDP$WERASE   TSX0  ! X66_AUTO_1
         2 000001   000012 000001                    ZERO    10,1

       10       10              ALTRET;
       11       11
       12       12          %INCLUDE CP_6;
       13       93
       14       94            %B$TCB;
       15       97            %B$ALT;
       16      105    1     DCL B$TCB$ PTR SYMREF;
       17      106
       18      107          %FPT_ERASE;
       19      140
       20      141          %INCLUDE VD_MACROS_M;
       21     2356
       22     2357          %VD$WINDOW_SPEC ( NAME = WINDOW_SPEC,
       23     2358                            STCLASS = PARAM );
       24     2424
       25     2425          %VD$NUMBER ( NAME = VD_$$MON_PRES,
       26     2426                       STCLASS = SYMREF );
       27     2471          %VD$NUMBER ( NAME = VD_$SCREEN,
       28     2472                       STCLASS = SYMREF );
       29     2517
       30     2518    1     DCL RECORD_SET_INDEX UBIN;
       31     2519    1     DCL VD_ERR$ PTR;
       32     2520
PL6.E3A0      #001=VDP$WERASE File=VDP$WINDOW_I_O.:VDA5TSI                       FRI 07/04/97 11:39 Page:9
       33     2521          %VD$BUFFER;
       34     2579          %VD$ERR ( STCLASS = "BASED ( VD_ERR$ )" );
       35     2632          %VD$RECORD_SET ( NAME = RECORD$SET,
       36     2633                           STCLASS = "BASED ( WINDOW_SPEC.RECORD_SET$ )" );
       37     2711          %VD$TEXTC_NUMBER;
       38     2725          %VD$TEXTC_REMOTE;
       39     2786
       40     2787    1     DCL VDG$MPRES_FEPERASE ENTRY (3);
       41     2788    1     DCL VDG$MPRES_RETURN ENTRY (1);
       42     2789    1     DCL VDG$MPRES_WERASE ENTRY (1);
       43     2790    1     DCL VDG$OALLOC ENTRY (3) ALTRET;
       44     2791    1     DCL VDG$OFREE ENTRY (1) ALTRET;
       45     2792        %EJECT;
PL6.E3A0      #001=VDP$WERASE File=VDP$WINDOW_I_O.:VDA5TSI                       FRI 07/04/97 11:39 Page:10
       46     2793    1       IF VD_$$MON_PRES.V# > 0

   2793  2 000002   000003 235000 xsym               LDA     VD_$$MON_PRES+3
         2 000003   000010 604400 2                  TMOZ    s:2797

       47     2794    1       THEN
       48     2795    1         CALL VDG$MPRES_WERASE ( WINDOW_SPEC );

   2795  2 000004   200003 630500                    EPPR0   @WINDOW_SPEC,,AUTO
         2 000005   000017 631400 xsym               EPPR1   B_VECTNIL+15
         2 000006   000000 701000 xent               TSX1    VDG$MPRES_WERASE
         2 000007   000000 011000                    NOP     0

       49     2796
       50     2797    1       IF VD_$SCREEN.V# < %MN_SCREEN_EDITING_HEIGHT

   2797  2 000010   000003 235000 xsym               LDA     VD_$SCREEN+3
         2 000011   000003 115007                    CMPA    3,DL
         2 000012   000017 604000 2                  TMI     s:2800
         2 000013   200003 470500                    LDP0    @WINDOW_SPEC,,AUTO
         2 000014   000016 236100                    LDQ     14,,PR0
         2 000015   000001 116000 xsym               CMPQ    B_VECTNIL+1
         2 000016   000020 601000 2                  TNZ     s:2802

       51     2798    1         OR WINDOW_SPEC.RECORD_SET$ = ADDR(NIL)
       52     2799    1       THEN
       53     2800    1         RETURN;

   2800  2 000017   000000 702200 xent               TSX2  ! X66_ARET

       54     2801
       55     2802    1       FPT_ERASE.V.DCB# = WINDOW_SPEC.DCB#;

   2802  2 000020   000014 720100                    LXL0    12,,PR0
         2 000021   000006 740000 1                  STX0    FPT_ERASE+6

       56     2803
PL6.E3A0      #001=VDP$WERASE File=VDP$WINDOW_I_O.:VDA5TSI                       FRI 07/04/97 11:39 Page:11
       57     2804    1       IF VD_$$MON_PRES.V# > 0

   2804  2 000022   000003 235000 xsym               LDA     VD_$$MON_PRES+3
         2 000023   000043 604400 2                  TMOZ    s:2810

       58     2805    1       THEN
       59     2806    1         CALL VDG$MPRES_FEPERASE ( WINDOW_SPEC.DCB#,

   2806  2 000024   000016 471500                    LDP1    14,,PR0
         2 000025   100002 236100                    LDQ     2,,PR1
         2 000026   000022 732000                    QRS     18
         2 000027   000006 402007                    MPY     6,DL
         2 000030   177775 633506                    EPPR3   -3,QL,PR1
         2 000031   200010 453500                    STP3    VD_ERR$+3,,AUTO
         2 000032   100003 634500                    EPPR4   3,,PR1
         2 000033   200007 454500                    STP4    VD_ERR$+2,,AUTO
         2 000034   200003 236100                    LDQ     @WINDOW_SPEC,,AUTO
         2 000035   000000 036000 3                  ADLQ    0
         2 000036   200006 756100                    STQ     VD_ERR$+1,,AUTO
         2 000037   200006 630500                    EPPR0   VD_ERR$+1,,AUTO
         2 000040   000021 631400 xsym               EPPR1   B_VECTNIL+17
         2 000041   000000 701000 xent               TSX1    VDG$MPRES_FEPERASE
         2 000042   000000 011000                    NOP     0

       60     2807    1           RECORD$SET.DESC.KEY ( 0 ),
       61     2808    1           RECORD$SET.DESC.KEY ( RECORD$SET.N_ENTRIES# - 1 ) );
       62     2809
       63     2810    1       CALL M$ERASE ( FPT_ERASE )

   2810  2 000043   000000 630400 1                  EPPR0   FPT_ERASE
         2 000044   560025 713400                    CLIMB   alt,+57365
         2 000045   401000 401760                    pmme    nvectors=3
         2 000046   000050 702000 2                  TSX2    s:2813
         2 000047   000076 710000 2                  TRA     s:2821

       64     2811    1       WHENALTRETURN
       65     2812    2         DO;
PL6.E3A0      #001=VDP$WERASE File=VDP$WINDOW_I_O.:VDA5TSI                       FRI 07/04/97 11:39 Page:12

       66     2813    2           CALL VDG$OALLOC ( %CLS_ERR, VD_ERR$ )

   2813  2 000050   200005 630500                    EPPR0   VD_ERR$,,AUTO
         2 000051   200007 450500                    STP0    VD_ERR$+2,,AUTO
         2 000052   000001 236000 3                  LDQ     1
         2 000053   200006 756100                    STQ     VD_ERR$+1,,AUTO
         2 000054   200006 630500                    EPPR0   VD_ERR$+1,,AUTO
         2 000055   000020 631400 xsym               EPPR1   B_VECTNIL+16
         2 000056   000000 701000 xent               TSX1    VDG$OALLOC
         2 000057   000061 702000 2                  TSX2    s:2814
         2 000060   000062 710000 2                  TRA     s:2815

       67     2814    3           WHENALTRETURN DO; ALTRETURN; END;

   2814  2 000061   000000 702200 xent               TSX2  ! X66_AALT

       68     2815    2           VD$ERR.ERR = B$TCB$ -> B$TCB.ALT$ -> B$ALT.ERR;

   2815  2 000062   000000 470400 xsym               LDP0    B$TCB$
         2 000063   000000 471500                    LDP1    0,,PR0
         2 000064   100102 236100                    LDQ     66,,PR1
         2 000065   200005 473500                    LDP3    VD_ERR$,,AUTO
         2 000066   300002 756100                    STQ     2,,PR3

       69     2816    2           VD$ERR.FLAGLEV# = %FLV_SERIOUS;

   2816  2 000067   000003 220003                    LDX0    3,DU
         2 000070   200005 471500                    LDP1    VD_ERR$,,AUTO
         2 000071   100003 740100                    STX0    3,,PR1

       70     2817    2           VD$ERR.DCB# = FPT_ERASE.V.DCB#;

   2817  2 000072   000006 221000 1                  LDX1    FPT_ERASE+6
         2 000073   200005 471500                    LDP1    VD_ERR$,,AUTO
         2 000074   100004 741100                    STX1    4,,PR1

PL6.E3A0      #001=VDP$WERASE File=VDP$WINDOW_I_O.:VDA5TSI                       FRI 07/04/97 11:39 Page:13
       71     2818    2           ALTRETURN;

   2818  2 000075   000000 702200 xent               TSX2  ! X66_AALT

       72     2819    2         END;
       73     2820
       74     2821    1       WINDOW_SPEC.SCREEN_UPDATED = %FALSE;

   2821  2 000076   200003 470500                    LDP0    @WINDOW_SPEC,,AUTO
         2 000077   000002 236000 3                  LDQ     2
         2 000100   000015 356100                    ANSQ    13,,PR0

       75     2822
       76     2823            /*  BUFF, TURF, BOUNCE.  */
       77     2824    2       DO RECORD_SET_INDEX = 0 TO RECORD$SET.N_ENTRIES# - 1;

   2824  2 000101   200004 450100                    STZ     RECORD_SET_INDEX,,AUTO
         2 000102   000142 710000 2                  TRA     s:2837+3

       78     2825              %CLEARKEY ( KEY = "RECORD$SET.DESC.KEY",
       79     2826              INDX = RECORD_SET_INDEX );

   2833  2 000103   200003 470500                    LDP0    @WINDOW_SPEC,,AUTO
         2 000104   000016 471500                    LDP1    14,,PR0
         2 000105   200004 236100                    LDQ     RECORD_SET_INDEX,,AUTO
         2 000106   000006 402007                    MPY     6,DL
         2 000107   100003 720106                    LXL0    3,QL,PR1
         2 000110   000002 100003                    CMPX0   2,DU
         2 000111   000122 601000 2                  TNZ     s:2834+1

   2833  2 000112   100004 473506                    LDP3    4,QL,PR1
         2 000113   200006 453500                    STP3    VD_ERR$+1,,AUTO
         2 000114   200006 630500                    EPPR0   VD_ERR$+1,,AUTO
         2 000115   000017 631400 xsym               EPPR1   B_VECTNIL+15
         2 000116   000000 701000 xent               TSX1    VDG$OFREE
         2 000117   000121 702000 2                  TSX2    s:2834
         2 000120   000122 710000 2                  TRA     s:2834+1
PL6.E3A0      #001=VDP$WERASE File=VDP$WINDOW_I_O.:VDA5TSI                       FRI 07/04/97 11:39 Page:14

   2834  2 000121   000000 702200 xent               TSX2  ! X66_AALT

   2834  2 000122   200003 470500                    LDP0    @WINDOW_SPEC,,AUTO
         2 000123   000016 471500                    LDP1    14,,PR0
         2 000124   200004 236100                    LDQ     RECORD_SET_INDEX,,AUTO
         2 000125   000006 402007                    MPY     6,DL
         2 000126   100003 450106                    STZ     3,QL,PR1
         2 000127   100004 450106                    STZ     4,QL,PR1

       80     2836    2         CALL VDG$OFREE ( RECORD$SET.DESC.DATA$ ( RECORD_SET_INDEX ) -> VD$BUFFER );

   2836  2 000130   000016 471500                    LDP1    14,,PR0
         2 000131   100007 473506                    LDP3    7,QL,PR1
         2 000132   200006 453500                    STP3    VD_ERR$+1,,AUTO
         2 000133   200006 630500                    EPPR0   VD_ERR$+1,,AUTO
         2 000134   000017 631400 xsym               EPPR1   B_VECTNIL+15
         2 000135   000000 701000 xent               TSX1    VDG$OFREE
         2 000136   000000 011000                    NOP     0

       81     2837    2       END;

   2837  2 000137   200004 235100                    LDA     RECORD_SET_INDEX,,AUTO
         2 000140   000001 035007                    ADLA    1,DL
         2 000141   200004 755100                    STA     RECORD_SET_INDEX,,AUTO
         2 000142   200003 470500                    LDP0    @WINDOW_SPEC,,AUTO
         2 000143   000016 471500                    LDP1    14,,PR0
         2 000144   100002 236100                    LDQ     2,,PR1
         2 000145   000022 732000                    QRS     18
         2 000146   000152 604000 2                  TMI     s:2839
         2 000147   200004 116100                    CMPQ    RECORD_SET_INDEX,,AUTO
         2 000150   000152 600000 2                  TZE     s:2839
         2 000151   000103 603000 2                  TRC     s:2833

       82     2838
       83     2839    1       RECORD$SET.N_ENTRIES# = 0;

PL6.E3A0      #001=VDP$WERASE File=VDP$WINDOW_I_O.:VDA5TSI                       FRI 07/04/97 11:39 Page:15
   2839  2 000152   000000 220003                    LDX0    0,DU
         2 000153   100002 740100                    STX0    2,,PR1

       84     2840    1       WINDOW_SPEC.BOB_DISPLAYED = %FALSE;

   2840  2 000154   000031 236000 xsym               LDQ     B_VECTNIL+25
         2 000155   000015 356100                    ANSQ    13,,PR0

       85     2841    1       WINDOW_SPEC.EOB_DISPLAYED = %FALSE;

   2841  2 000156   000003 236000 3                  LDQ     3
         2 000157   000015 356100                    ANSQ    13,,PR0

       86     2842
       87     2843    1       IF VD_$$MON_PRES.V# > 0

   2843  2 000160   000003 235000 xsym               LDA     VD_$$MON_PRES+3
         2 000161   000166 604400 2                  TMOZ    s:2847

       88     2844    1       THEN
       89     2845    1         CALL VDG$MPRES_RETURN ( WINDOW_SPEC );

   2845  2 000162   200003 630500                    EPPR0   @WINDOW_SPEC,,AUTO
         2 000163   000017 631400 xsym               EPPR1   B_VECTNIL+15
         2 000164   000000 701000 xent               TSX1    VDG$MPRES_RETURN
         2 000165   000000 011000                    NOP     0

       90     2846
       91     2847    1       RETURN;

   2847  2 000166   000000 702200 xent               TSX2  ! X66_ARET
       92     2848
       93     2849    1   END VDP$WERASE;
       94     2850        %EOD;

PL6.E3A0      #001=VDP$WERASE File=VDP$WINDOW_I_O.:VDA5TSI                       FRI 07/04/97 11:39 Page:16
--  Include file information  --

   VD_MACROS_M.:VDA5TOU  is referenced.
   CP_6.:LIBRARY  cannot be made into a system file and is referenced.
   B$JIT_C.:E04TOU  was found in the system file and is never referenced.
   CP_6_C.:E04TOU  was found in the system file and is referenced.
      No diagnostics issued in procedure VDP$WERASE.
PL6.E3A0      #001=VDP$WERASE File=VDP$WINDOW_I_O.:VDA5TSI                       FRI 07/04/97 11:39 Page:17

 **** Variables and constants ****

  ****  Section 001  Data  VDP$WERASE

  ****  Scalars and arrays  ****
OctLoc.c.b A Datatyp(siz) R M Lvl/name                 OctLoc.c.b A Datatyp(siz) R M Lvl/name

     0-0-0/d STRC(288)   r     1 FPT_ERASE

  ****  Auto variables  ****

  ****  Scalars and arrays  ****
OctLoc.c.b A Datatyp(siz) R M Lvl/name                 OctLoc.c.b A Datatyp(siz) R M Lvl/name

     3-0-0/w PTR         r     1 @WINDOW_SPEC               4-0-0/w UBIN        r     1 RECORD_SET_INDEX
     5-0-0/w PTR         r     1 VD_ERR$                   *0-0-0/w STRC(900)   r     1 WINDOW_SPEC

  ****  SYMREF variables  ****

  ****  Scalars and arrays  ****
OctLoc.c.b A Datatyp(siz) R M Lvl/name                 OctLoc.c.b A Datatyp(siz) R M Lvl/name

     0-0-0/w PTR         r     1 B$TCB$                     0-0-0/w STRC(144)   r     1 VD_$$MON_PRES
     0-0-0/w STRC(144)   r     1 VD_$SCREEN

  ****  BASED and DCB variables  ****

  ****  Scalars and arrays  ****
OctLoc.c.b A Datatyp(siz) R M Lvl/name                 OctLoc.c.b A Datatyp(siz) R M Lvl/name

     0-0-0/w STRC(2448)  r     1 B$ALT                      0-0-0/w STRC(144)   r     1 B$TCB
     0-0-0/w STRC(324)   r     1 RECORD$SET                 0-0-0/w ASTR(90)    r     1 VD$BUFFER
     0-0-0/w STRC(180)   r     1 VD$ERR                     0-0-0/w ASTR(81)    r     1 VD$TEXTC_REMOTE


   Procedure VDP$WERASE requires 119 words for executable code.
PL6.E3A0      #001=VDP$WERASE File=VDP$WINDOW_I_O.:VDA5TSI                       FRI 07/04/97 11:39 Page:18
   Procedure VDP$WERASE requires 10 words of local(AUTO) storage.
PL6.E3A0      #001=VDP$WERASE File=VDP$WINDOW_I_O.:VDA5TSI                       FRI 07/04/97 11:39 Page:19
          *** CROSS REFERENCE LISTING ***
**     DENOTES     IDENTIFIER DEFINITION
<<                 IDENTIFIER'S VALUE SET
>>                 IDENTIFIER'S VALUE USED
<>                 IDENTIFIER SET AND/OR USED
--                 IDENTIFIER REFERENCED
PL6.E3A0      #001=VDP$WERASE File=VDP$WINDOW_I_O.:VDA5TSI                       FRI 07/04/97 11:39 Page:20
          MINI XREF LISTING

B$ALT.CODE
        99**DCL        99--REDEF     100--REDEF     100--REDEF
B$ALT.ERR
       100**DCL      2815>>ASSIGN
B$ALT.ERR.ERR#
       101**DCL       101--REDEF
B$ALT.EVID
       100**DCL       100--REDEF     100--REDEF
B$TCB.ALT$
        95**DCL      2815>>ASSIGN
B$TCB$
       105**DCL      2815>>ASSIGN
FPT_ERASE
       123**DCL      2810<>CALL
FPT_ERASE.V
       131**DCL       125--DCLINIT
FPT_ERASE.V.DCB#
       131**DCL      2802<<ASSIGN   2817>>ASSIGN
M$ERASE
        52**DCL-ENT  2810--CALL
RECORD$SET.DESC.DATA$
      2708**DCL      2836>>CALL     2836>>CALL
RECORD$SET.DESC.KEY
      2690**DCL      2806<>CALL     2806<>CALL     2834<<ASSIGN
RECORD$SET.DESC.KEY.REP#
      2692**DCL      2833>>IF
RECORD$SET.DESC.KEY.V$
      2692**DCL      2833>>CALL     2833>>CALL
RECORD$SET.N_ENTRIES#
      2667**DCL      2806>>CALL     2824>>DOINDEX  2839<<ASSIGN
RECORD_SET_INDEX
      2518**DCL      2824<<DOINDEX  2833>>IF       2833>>CALL     2833>>CALL     2834>>ASSIGN   2836>>CALL
PL6.E3A0      #001=VDP$WERASE File=VDP$WINDOW_I_O.:VDA5TSI                       FRI 07/04/97 11:39 Page:21
      2836>>CALL
VD$BUFFER
      2546**DCL      2836<>CALL
VD$BUFFER.LENGTH#
      2572**DCL      2574--IMP-SIZ  2836>>CALL
VD$ERR.DCB#
      2629**DCL      2817<<ASSIGN
VD$ERR.ERR
      2624**DCL      2815<<ASSIGN
VD$ERR.FLAGLEV#
      2629**DCL      2816<<ASSIGN
VD$TEXTC_REMOTE
      2750**DCL      2833<>CALL
VD$TEXTC_REMOTE.LENGTH#
      2779**DCL      2781--IMP-SIZ  2833>>CALL
VDG$MPRES_FEPERASE
      2787**DCL-ENT  2806--CALL
VDG$MPRES_RETURN
      2788**DCL-ENT  2845--CALL
VDG$MPRES_WERASE
      2789**DCL-ENT  2795--CALL
VDG$OALLOC
      2790**DCL-ENT  2813--CALL
VDG$OFREE
      2791**DCL-ENT  2833--CALL     2836--CALL
VD_$$MON_PRES.V#
      2468**DCL      2793>>IF       2804>>IF       2843>>IF
VD_$SCREEN.V#
      2514**DCL      2797>>IF
VD_ERR$
      2519**DCL      2587--IMP-PTR  2813<>CALL     2815>>ASSIGN   2816>>ASSIGN   2817>>ASSIGN
WINDOW_SPEC
      2366**DCL         9--PROC     2795<>CALL     2845<>CALL
WINDOW_SPEC.BOB_DISPLAYED
      2409**DCL      2840<<ASSIGN
WINDOW_SPEC.DCB#
PL6.E3A0      #001=VDP$WERASE File=VDP$WINDOW_I_O.:VDA5TSI                       FRI 07/04/97 11:39 Page:22
      2409**DCL      2802>>ASSIGN   2806<>CALL
WINDOW_SPEC.EOB_DISPLAYED
      2409**DCL      2841<<ASSIGN
WINDOW_SPEC.RECORD_SET$
      2410**DCL      2641--IMP-PTR  2797>>IF       2806>>CALL     2806>>CALL     2806>>CALL     2824>>DOINDEX
      2833>>IF       2833>>CALL     2833>>CALL     2834>>ASSIGN   2836>>CALL     2836>>CALL     2839>>ASSIGN
WINDOW_SPEC.SCREEN_UPDATED
      2410**DCL      2821<<ASSIGN

PL6.E3A0      #002=VDP$WFORMAT_RECORD File=VDP$WINDOW_I_O.:VDA5TSI               FRI 07/04/97 11:39 Page:23
       95        1        /*M* VDP$WFORMAT_RECORD:  Format a record for 1D input or output.  */
       96        2        /*T***********************************************************/
       97        3        /*T*                                                         */
       98        4        /*T* Copyright (c) Bull HN Information Systems Inc., 1997    */
       99        5        /*T*                                                         */
      100        6        /*T***********************************************************/
      101        7        /*X* DMC,PLM=4,IND=0,DCI=4,CSI=2,IAD=2,DTI=2,AND,ECI=0,DIN=2,STI=2 */
      102        8
      103        9        VDP$WFORMAT_RECORD: PROC ( RGET_NODE_DESC,
      104       10              FPT_SINPUT )
      105       11              ALTRET;
      106       12
      107       13          %INCLUDE CP_6;
      108       94
      109       95            %B$TCB;
      110       98            %B$ALT;
      111      106    1     DCL B$TCB$ PTR SYMREF;
      112      107
      113      108    1     DCL M$LO DCB;
      114      109
      115      110          %FPT_PROMPT ( VFC = YES );
      116      138    1     DCL VLP_PROMPT_DOT CHAR(2) CONSTANT INIT('@.');
      117      139          %FPT_WRITE ( DCB = M$LO );
      118      170    1     DCL INDX_TXT CONSTANT CHAR(0) INIT('(all)edtcmded1ed2ed3ed4ed5ed6ed7ed8ed9');
      119      171
      120      172          %INCLUDE VD_MACROS_M;
      121     2387
      122     2388          %VD$NODE_DESC ( NAME = RGET_NODE_DESC,
      123     2389                         STCLASS = PARAM );
      124     2431          %FPT_SINPUT (STCLASS=PARAM);
      125     2468
      126     2469    1     DCL VDP_KEY$ PTR SYMREF;
      127     2470    1     DCL VDP_KEY_AND_BUFFER$ PTR SYMREF;
      128     2471
      129     2472          %VD$BLOCK_DESC;
      130     2619          %VD$BUFFER (STCLASS="BASED(KEY_AND_BUFFER$)");
      131     2677          %VD$BUFFER_HEADER;
PL6.E3A0      #002=VDP$WFORMAT_RECORD File=VDP$WINDOW_I_O.:VDA5TSI               FRI 07/04/97 11:39 Page:24
      132     2713          %VD$KEY;
      133     2727          %VD$NAME_SPEC;
      134     2775          %VD$NUMBER;
      135     2820          %VD$POINTER;
      136     2865          %VD$TEXTC;
      137     2888          %VD$TEXTC_REMOTE;
      138     2949          %VD$WINDOW_SPEC (NAME=WINDOW$SPEC, STCLASS="BASED(RGET_NODE_DESC.SPEC.V$)");
      139     3015
      140     3016    1     DCL CANNED_FORMATTED_NUMBER_KEY CHAR(10) CONSTANT
      141     3017    1       INIT ( '     .000 ' );
      142     3018
      143     3019    1     DCL ACTUAL_DATA_INDEX SBIN;
      144     3020    1     DCL KEY_FORMAT_END_INDEX REDEF ACTUAL_DATA_INDEX SBIN;
      145     3021    1     DCL KEY_AND_BUFFER$ PTR;
      146     3022    1     DCL DATA_CLS SBIN;
      147     3023    1     DCL BLOCK$ PTR;
      148     3024    1     DCL DATA$ PTR;
      149     3025    1     DCL INDX SBIN;
      150     3026    1     DCL DECIMAL_POINT_INDEX UBIN;
      151     3027    1     DCL FORMATTED_NUMBER_KEY CHAR(10);
      152     3028    1     DCL CURRENT_KEY$ PTR;
      153     3029
      154     3030    1     DCL VDG$FORMAT_BLOCK_DESC ENTRY(5);
      155     3031    1     DCL VDG$FORMAT_KEY ENTRY (5);
      156     3032    1     DCL VDG$FORMAT_NUMBER ENTRY(6);
      157     3033    1     DCL VDG$FORMAT_WINDOW_SPEC ENTRY(5);
      158     3034    1     DCL VDG$MONERR ENTRY ALTRET;
      159     3035    1     DCL VDG$OALLOC ENTRY (3) ALTRET;
      160     3036        %EJECT;
PL6.E3A0      #002=VDP$WFORMAT_RECORD File=VDP$WINDOW_I_O.:VDA5TSI               FRI 07/04/97 11:39 Page:25
      161     3037            %GETKEY ( KEY = RGET_NODE_DESC.KEY, PTR = CURRENT_KEY$);
      162     3047
      163     3048    1       FPT_PROMPT.V.DCB# = 0;
      164     3049    1       IF ADDR(FPT_SINPUT) ~= ADDR(NIL) THEN FPT_PROMPT.V.DCB# = FPT_SINPUT.V.DCB#;
      165     3050    1       DATA$ = RGET_NODE_DESC.DATA$;
      166     3051    1       INDX = 2;
      167     3052    1       IF FPT_PROMPT.V.DCB# ~= 0
      168     3053    1       THEN
      169     3054    1   REMEMBER_KEY_AND_MAYBE_BUFFER:
      170     3055    2         DO;
      171     3056    2           VDP_KEY$ -> VD$TEXTC_REMOTE.LENGTH# = CURRENT_KEY$ -> VD$TEXTC.LENGTH#;
      172     3057    2           VDP_KEY$ -> VD$TEXTC_REMOTE.BYTES = CURRENT_KEY$ -> VD$TEXTC.BYTES;
      173     3058
      174     3059    2           IF RGET_NODE_DESC.DATA$ -> VD$BUFFER.LENGTH# = 0
      175     3060    2           THEN
      176     3061    2             FPT_SINPUT.BUF_ = VECTOR ( NIL );
      177     3062    2           ELSE
      178     3063    2             FPT_SINPUT.BUF_ = VECTOR ( RGET_NODE_DESC.DATA$ -> VD$BUFFER.BYTES );
      179     3064
      180     3065    2           CALL M$SINPUT ( FPT_SINPUT ) ALTRET ( SINPUT_FAILED );
      181     3066
      182     3067    2         END REMEMBER_KEY_AND_MAYBE_BUFFER;
      183     3068
      184     3069    1   OUTPUT_KEY_AND_OR_BUFFER:
      185     3070    2       DO;
      186     3071    2         IF RGET_NODE_DESC.SPEC.TYPE# ~= 0 /* No key for the string-file */
      187     3072    2         THEN
      188     3073    2   FORMAT_KEY:
      189     3074    3           DO;
      190     3075    3             IF VDP_KEY_AND_BUFFER$ = ADDR (NIL)
      191     3076    3             THEN
      192     3077    3   ALLOC_A_KEY_AND_BUFFER:
      193     3078    4               DO;
      194     3079    4                 CALL VDG$OALLOC ( %CLS_BUFFER,
      195     3080    4                   VDP_KEY_AND_BUFFER$,
      196     3081    4                   ( SIZEC ( VD$BUFFER_HEADER )
      197     3082    4                   + %MXNB_KEY
PL6.E3A0      #002=VDP$WFORMAT_RECORD File=VDP$WINDOW_I_O.:VDA5TSI               FRI 07/04/97 11:39 Page:26
      198     3083    4                   + %MXNB_DATA
      199     3084    4                   + ( %NB_PER_WORD - 1 ) )
      200     3085    4                   / %NB_PER_WORD )
      201     3086    4                   ALTRET ( OALLOC_FAILED );
      202     3087
      203     3088    4                 SUBSTR ( VDP_KEY_AND_BUFFER$ -> VD$BUFFER.BYTES, 0, 1 ) = '@';
      204     3089    4               END ALLOC_A_KEY_AND_BUFFER;
      205     3090
      206     3091    3             KEY_FORMAT_END_INDEX = 1;
      207     3092    3             KEY_AND_BUFFER$ = VDP_KEY_AND_BUFFER$;
      208     3093    3             IF RGET_NODE_DESC.SPEC.TYPE# = %SPT_NAME_SPEC AND
      209     3094    3               RGET_NODE_DESC.SPEC.V$ -> VD$NAME_SPEC.DATA_TYPE# = %NDT_KEYIN THEN
      210     3095    3               CALL FORMAT_STRING (RGET_NODE_DESC.KEY);
      211     3096    3             ELSE
      212     3097    3               CALL VDG$FORMAT_KEY ( RGET_NODE_DESC.KEY,
      213     3098    3                 %MXNB_KEY /* # of bytes in buffer */,
      214     3099    3                 VD$BUFFER.BYTES /* buffer to format into */,
      215     3100    3                 1 /* start index for formatting */,
      216     3101    3                 KEY_FORMAT_END_INDEX /* end index for formatting */ );
      217     3102
      218     3103    3             IF RGET_NODE_DESC.KEY.TYPE# = %KT_NUMBER
      219     3104    3             THEN
      220     3105    3   FORMAT_NUMBER_KEY:
      221     3106    4               DO;
      222     3107    4                 FORMATTED_NUMBER_KEY =
      223     3108    4                   SUBSTR ( VD$BUFFER.BYTES,
      224     3109    4                   1,
      225     3110    4                   KEY_FORMAT_END_INDEX - 1 );
      226     3111
      227     3112    4                 SUBSTR ( VD$BUFFER.BYTES, 1, 10 ) = ' ';
      228     3113
      229     3114    4                 SUBSTR ( VD$BUFFER.BYTES,
      230     3115    4                   11 - KEY_FORMAT_END_INDEX,
      231     3116    4                   KEY_FORMAT_END_INDEX - 1) =
      232     3117    4                   FORMATTED_NUMBER_KEY;
      233     3118
      234     3119    4                 ACTUAL_DATA_INDEX = 11;
PL6.E3A0      #002=VDP$WFORMAT_RECORD File=VDP$WINDOW_I_O.:VDA5TSI               FRI 07/04/97 11:39 Page:27
      235     3120    4               END FORMAT_NUMBER_KEY;
      236     3121    3             ELSE IF RGET_NODE_DESC.KEY.TYPE# = %KT_EDITKEY
      237     3122    3               THEN
      238     3123    3   KEEP_FORMATTING_KEY:
      239     3124    4                 DO;
      240     3125    4                   FORMATTED_NUMBER_KEY =
      241     3126    4                     SUBSTR ( VD$BUFFER.BYTES,
      242     3127    4                     1,
      243     3128    4                     KEY_FORMAT_END_INDEX - 1 );
      244     3129
      245     3130    4                   SUBSTR ( VD$BUFFER.BYTES, 1, 10 ) =
      246     3131    4                     CANNED_FORMATTED_NUMBER_KEY;
      247     3132
      248     3133    4                   CALL INDEX ( DECIMAL_POINT_INDEX,
      249     3134    4                     '.',
      250     3135    4                     FORMATTED_NUMBER_KEY );
      251     3136
      252     3137    4                   SUBSTR ( VD$BUFFER.BYTES,
      253     3138    4                     6 - DECIMAL_POINT_INDEX /* leading blanks */,
      254     3139    4                     KEY_FORMAT_END_INDEX - 1 ) =
      255     3140    4                     FORMATTED_NUMBER_KEY;
      256     3141
      257     3142    4                   ACTUAL_DATA_INDEX = 11;
      258     3143    4                 END KEEP_FORMATTING_KEY;
      259     3144    3               ELSE
      260     3145    3   JUST_INCLUDE_KEY:
      261     3146    4                 DO;
      262     3147    4                   IF DATA$ -> VD$BUFFER.FLINK$ ~= ADDR(NIL)
      263     3148    4                   THEN
      264     3149    4   SHOW_AN_ARRAY_KEY:
      265     3150    5                     DO;
      266     3151    5                       SUBSTR ( VD$BUFFER.BYTES, KEY_FORMAT_END_INDEX, 5) = INDX_TXT;
      267     3152    5                       KEY_FORMAT_END_INDEX = KEY_FORMAT_END_INDEX + 5;
      268     3153    5                     END SHOW_AN_ARRAY_KEY;
      269     3154    4                   DECIMAL_POINT_INDEX = KEY_FORMAT_END_INDEX;
      270     3155    4   SHOW_NEXT_ARRAY_ITEM: ;
      271     3156    4                   ACTUAL_DATA_INDEX = MAXIMUM (DECIMAL_POINT_INDEX,20) + 1;
PL6.E3A0      #002=VDP$WFORMAT_RECORD File=VDP$WINDOW_I_O.:VDA5TSI               FRI 07/04/97 11:39 Page:28
      272     3157    4                   SUBSTR ( VD$BUFFER.BYTES,
      273     3158    4                     DECIMAL_POINT_INDEX,
      274     3159    4                     ACTUAL_DATA_INDEX - DECIMAL_POINT_INDEX ) = ' ';
      275     3160
      276     3161    4                 END JUST_INCLUDE_KEY;
      277     3162
      278     3163    3             IF FPT_PROMPT.V.DCB# ~= 0
      279     3164    3             THEN
      280     3165    3   OUTPUT_KEY_ONLY:
      281     3166    4               DO;
      282     3167    4                 FPT_PROMPT.PROMPT_ = VECTOR ( SUBSTR ( VD$BUFFER.BYTES,
      283     3168    4                   0,
      284     3169    4                   MINIMUM ( ACTUAL_DATA_INDEX, 30 ) ) );
      285     3170
      286     3171    4                 SUBSTR ( VD$BUFFER.BYTES, 0, 1 ) = 'p';
      287     3172    4                 CALL M$PROMPT ( FPT_PROMPT )
      288     3173    4                   ALTRET ( PROMPT_FAILED );
      289     3174
      290     3175    4                 EXIT OUTPUT_KEY_AND_OR_BUFFER;
      291     3176    4               END OUTPUT_KEY_ONLY;
      292     3177    3             ELSE
      293     3178    3   OUTPUT_KEY_AND_BUFFER:
      294     3179    4               DO;
      295     3180    4                 DATA_CLS = DATA$ -> VD$BUFFER.OBJECT.CLASS#;
      296     3181    4                 IF RGET_NODE_DESC.SPEC.TYPE# = %SPT_WINDOW_SPEC THEN
      297     3182    4                   DATA_CLS = %CLS_WINDOW_SPEC;
      298     3183    4                 ELSE IF RGET_NODE_DESC.SPEC.TYPE# ~= %SPT_NAME_SPEC THEN
      299     3184    4                     DATA_CLS = %CLS_BUFFER;
      300     3185    5                   ELSE DO CASE (RGET_NODE_DESC.SPEC.V$ -> VD$NAME_SPEC.DATA_TYPE#);
      301     3186    5                       CASE (%NDT_LOCATION);
      302     3187    5                         IF DATA_CLS = %CLS_BUFFER THEN
      303     3188    5                           DATA_CLS = %CLS_MX; /* display ?? for not defined */
      304     3189
      305     3190    5                       CASE (%NDT_EQUALS);
      306     3191    5                         IF SUBSTR (VD$BUFFER.BYTES, 1, 7) = '$INTRO_'
      307     3192    5                           OR DATA_CLS = %CLS_BUFFER THEN
      308     3193    5                           DATA_CLS = %0;
PL6.E3A0      #002=VDP$WFORMAT_RECORD File=VDP$WINDOW_I_O.:VDA5TSI               FRI 07/04/97 11:39 Page:29
      309     3194
      310     3195    5                       CASE (%NDT_KEYIN);
      311     3196    5                         DATA_CLS = %0;
      312     3197
      313     3198    5                       CASE (%NDT_SYNONYM);
      314     3199    5                         DATA_CLS = %CLS_BUFFER;
      315     3200    5                     END;
      316     3201
      317     3202    5                 DO SELECT (DATA_CLS);
      318     3203    5                   SELECT (%CLS_BLOCK_BUFFER, %CLS_PTR_BLOCK_DESC);
      319     3204    5                   IF DATA_CLS = %CLS_PTR_BLOCK_DESC THEN
      320     3205    5                     BLOCK$ = DATA$ -> VD$POINTER.V$;
      321     3206    5                   ELSE
      322     3207    5                     BLOCK$ =
      323     3208    5                       PINCRW (DATA$, SIZEW(VD$BUFFER_HEADER));
      324     3209    5                   CALL VDG$FORMAT_BLOCK_DESC (BLOCK$ -> VD$BLOCK_DESC,
      325     3210    5                     %MXNB_NAME_VALUE,
      326     3211    5                     VD$BUFFER.BYTES,
      327     3212    5                     ACTUAL_DATA_INDEX,
      328     3213    5                     ACTUAL_DATA_INDEX);
      329     3214
      330     3215    5                   SELECT (%CLS_PTR_KEY);
      331     3216    5                   CALL VDG$FORMAT_KEY (DATA$ -> VD$POINTER.V$ -> VD$KEY,
      332     3217    5                     %MXNB_NAME_VALUE,
      333     3218    5                     VD$BUFFER.BYTES,
      334     3219    5                     ACTUAL_DATA_INDEX,
      335     3220    5                     ACTUAL_DATA_INDEX);
      336     3221
      337     3222    5                   SELECT (%CLS_WINDOW_SPEC);
      338     3223    5                   CALL VDG$FORMAT_WINDOW_SPEC (WINDOW$SPEC,
      339     3224    5                     %MXNB_NAME_VALUE,
      340     3225    5                     VD$BUFFER.BYTES,
      341     3226    5                     ACTUAL_DATA_INDEX,
      342     3227    5                     ACTUAL_DATA_INDEX);
      343     3228
      344     3229
      345     3230    5                   SELECT (%0);
PL6.E3A0      #002=VDP$WFORMAT_RECORD File=VDP$WINDOW_I_O.:VDA5TSI               FRI 07/04/97 11:39 Page:30
      346     3231    5                   CALL FORMAT_STRING (DATA$ -> VD$BUFFER);
      347     3232
      348     3233    5                   SELECT (ELSE);
      349     3234    5                 CALL VDG$FORMAT_NUMBER (DATA_CLS,
      350     3235    5                   DATA$ -> VD$NUMBER.V#,
      351     3236    5                   %MXNB_NAME_VALUE,
      352     3237    5                   VD$BUFFER.BYTES,
      353     3238    5                   ACTUAL_DATA_INDEX,
      354     3239    5                   ACTUAL_DATA_INDEX);
      355     3240
      356     3241    5                 SELECT (%CLS_BUFFER);
      357     3242    5                 SUBSTR ( VD$BUFFER.BYTES,
      358     3243    5                   ACTUAL_DATA_INDEX,
      359     3244    5                   RGET_NODE_DESC.DATA$ -> VD$BUFFER.LENGTH# ) =
      360     3245    5                   RGET_NODE_DESC.DATA$ -> VD$BUFFER.BYTES;
      361     3246    5                 ACTUAL_DATA_INDEX = ACTUAL_DATA_INDEX +
      362     3247    5                   DATA$ -> VD$BUFFER.LENGTH#;
      363     3248    5                 END;
      364     3249
      365     3250    4             FPT_WRITE.BUF_ = VECTOR ( SUBSTR ( VD$BUFFER.BYTES,
      366     3251    4               1,
      367     3252    4               ACTUAL_DATA_INDEX - 1) );
      368     3253    4             IF DATA$ -> VD$BUFFER.FLINK$ = ADDR(NIL)
      369     3254    4             THEN EXIT;
      370     3255    4             IF DATA$ -> VD$BUFFER.LENGTH# > 0 THEN
      371     3256    4               CALL M$WRITE ( FPT_WRITE ) ALTRET ( WRITE_FAILED );
      372     3257    4             DATA$ = DATA$ -> VD$BUFFER.FLINK$;
      373     3258    4             INDX = INDX + 3;
      374     3259    4             SUBSTR ( VD$BUFFER.BYTES, DECIMAL_POINT_INDEX-4, 3) =
      375     3260    4               SUBSTR ( INDX_TXT, INDX, 3 );
      376     3261    4             GOTO SHOW_NEXT_ARRAY_ITEM;
      377     3262    4               END OUTPUT_KEY_AND_BUFFER;
      378     3263    3           END FORMAT_KEY;
      379     3264    2         ELSE
      380     3265    2   FORMAT_BUFFER:
      381     3266    3           DO;
      382     3267    3             IF FPT_PROMPT.V.DCB# ~= 0
PL6.E3A0      #002=VDP$WFORMAT_RECORD File=VDP$WINDOW_I_O.:VDA5TSI               FRI 07/04/97 11:39 Page:31
      383     3268    3             THEN
      384     3269    3   OUTPUT_NOTHING:
      385     3270    4               DO;
      386     3271    4                 FPT_PROMPT.PROMPT_ = VECTOR ( VLP_PROMPT_DOT );
      387     3272
      388     3273    4                 SUBSTR ( VD$BUFFER.BYTES,
      389     3274    4                   0,
      390     3275    4                   1 ) = '@';
      391     3276
      392     3277    4                 CALL M$PROMPT ( FPT_PROMPT )
      393     3278    4                   ALTRET ( PROMPT_FAILED );
      394     3279
      395     3280    4                 EXIT OUTPUT_KEY_AND_OR_BUFFER;
      396     3281    4               END OUTPUT_NOTHING;
      397     3282    3             ELSE
      398     3283    3   OUTPUT_BUFFER_ONLY:
      399     3284    4               DO;
      400     3285    4                 FPT_WRITE.BUF_ = VECTOR ( RGET_NODE_DESC.DATA$ -> VD$BUFFER.BYTES );
      401     3286    4                 IF DATA$ -> VD$BUFFER.LENGTH# = 0
      402     3287    4                 THEN
      403     3288    4                   FPT_WRITE.BUF_ = FPT_WRITE.KEY_; /* Handy VECTOR(NIL) */
      404     3289    4               END OUTPUT_BUFFER_ONLY;
      405     3290    3           END FORMAT_BUFFER;
      406     3291
      407     3292
      408     3293    2         CALL M$WRITE ( FPT_WRITE ) ALTRET ( WRITE_FAILED );
      409     3294
      410     3295    2       END OUTPUT_KEY_AND_OR_BUFFER;
      411     3296
      412     3297    1       RETURN;
      413     3298
      414     3299    1   PROMPT_FAILED:;
      415     3300    1   SINPUT_FAILED:;
      416     3301    1   WRITE_FAILED:;
      417     3302    1       CALL VDG$MONERR;
      418     3303
      419     3304    1   OALLOC_FAILED:
PL6.E3A0      #002=VDP$WFORMAT_RECORD File=VDP$WINDOW_I_O.:VDA5TSI               FRI 07/04/97 11:39 Page:32
      420     3305    1       ALTRETURN;
      421     3306
      422     3307        %EJECT;
PL6.E3A0      #002=VDP$WFORMAT_RECORD File=VDP$WINDOW_I_O.:VDA5TSI               FRI 07/04/97 11:39 Page:33
      423     3308    1   FORMAT_STRING: PROC (PARM);
      424     3309        /*D* NAME: FORMAT_STRING.
      425     3310             Formats the key or buffer string parameter as a quote string,
      426     3311             expanding unprintables as control-values and doubling quotes.
      427     3312        */
      428     3313
      429     3314        %INCLUDE XU_MACRO_C;
      430     6408        %INCLUDE XU_SUBS_C;
      431     6500        %P$NODE (NAME=ASP_FUNKEY, STCLASS=SYMREF);
      432     6594        %P$NODE (NAME=HEX, STCLASS=SYMREF);
      433     6688        %P$NODE (NAME=NOD, STCLASS=BASED);
      434     6782        %P$LIT (STCLASS=BASED);
      435     6835    2     DCL PARM(0:0) CHAR(1) CALIGNED;
      436     6836
      437     6837    2     DCL MAX_FROM SBIN;
      438     6838    2     DCL STRING_START SBIN;
      439     6839    2     DCL K SBIN;
      440     6840    2     DCL LIT$ PTR;
      441     6841    2     DCL CURR_FROM SBIN;
      442     6842    2     DCL CURR_CHAR UBIN;
      443     6843    2     DCL 1 CURR REDEF CURR_CHAR,
      444     6844    2           2 * BIT(27),
      445     6845    2           2 CHR CHAR(1);
      446     6846
      447     6847    3       IF ACTUAL_DATA_INDEX = 1 THEN DO; /* Must be a keyin name (key) */
      448     6848    3           CURR_FROM = 5;
      449     6849    3           MAX_FROM = ADDR (PARM(4)) -> VD$TEXTC.LENGTH# + 5;
      450     6850    3         END; ELSE DO;
      451     6851    3           CURR_FROM = LENGTHC (VD$BUFFER_HEADER);
      452     6852    3           MAX_FROM = CURR_FROM + ADDR(PARM) -> VD$BUFFER.LENGTH#;
      453     6853    3         END;
      454     6854
      455     6855    2       CURR_CHAR = 0;
      456     6856    2       SUBSTR (VD$BUFFER.BYTES, ACTUAL_DATA_INDEX, 1) = '''';
      457     6857    2       STRING_START = 0;
      458     6858    3       DO WHILE CURR_FROM < MAX_FROM;
      459     6859    3         ACTUAL_DATA_INDEX = ACTUAL_DATA_INDEX + 1;
PL6.E3A0      #002=VDP$WFORMAT_RECORD File=VDP$WINDOW_I_O.:VDA5TSI               FRI 07/04/97 11:39 Page:34
      460     6860    3         CURR.CHR = PARM (CURR_FROM);
      461     6861    3         SUBSTR (VD$BUFFER.BYTES, ACTUAL_DATA_INDEX, 1) = CURR.CHR;
      462     6862    3         CURR_FROM = CURR_FROM + 1;
      463     6863    4         IF CURR_CHAR = ASCBIN('''') THEN DO;
      464     6864    4             SUBSTR (VD$BUFFER.BYTES, ACTUAL_DATA_INDEX+1, 1) = CURR.CHR;
      465     6865    4             ACTUAL_DATA_INDEX = ACTUAL_DATA_INDEX + 1;
      466     6866    4           END;
      467     6867    3         IF CURR_CHAR < 32 THEN CALL PUTLIT (HEX.SUBNDS$(CURR_CHAR)->P$LIT);
      468     6868    3         ELSE IF CURR_CHAR = 127 THEN CALL PUTLIT (HEX.SUBNDS$(33)->P$LIT);
      469     6869    3           ELSE IF CURR_CHAR>127 THEN
      470     6870    4               IF CURR_CHAR<256 OR STRING_START>0 THEN DO;
      471     6871    4                   SUBSTR (VD$BUFFER.BYTES, ACTUAL_DATA_INDEX, 7) = '%V(000)';
      472     6872    4                   CALL BINCHAR (SUBSTR (VD$BUFFER.BYTES, ACTUAL_DATA_INDEX+3, 3),
      473     6873    4                     CURR_CHAR);
      474     6874    4                   ACTUAL_DATA_INDEX = ACTUAL_DATA_INDEX + 6;
      475     6875    4                   STRING_START = 2;
      476     6876    4                 END;
      477     6877    4               ELSE DO K=0 TO ASP_FUNKEY.NSUBNDS-1;
      478     6878    5                   IF ASP_FUNKEY.SUBNDS$(K)->P$LIT.CODE = CURR_CHAR-256 THEN DO;
      479     6879    5                       IF ASP_FUNKEY.SUBNDS$(K)->P$LIT.TYPE = %TYPE_LITERAL# THEN
      480     6880    5                         CALL PUTLIT (ASP_FUNKEY.SUBNDS$(K)->P$LIT);
      481     6881    5                       ELSE CALL PUTLIT (ASP_FUNKEY.SUBNDS$(K)->NOD.SUBNDS$(0)->P$LIT);
      482     6882    5                       K = ASP_FUNKEY.NSUBNDS;
      483     6883    5                     END;
      484     6884    4                 END;
      485     6885    3             ELSE STRING_START = 2;
      486     6886    3       END;
      487     6887    3       IF STRING_START ~= 1 THEN DO;
      488     6888    3           SUBSTR (VD$BUFFER.BYTES, ACTUAL_DATA_INDEX+1, 1) = '''';
      489     6889    3           ACTUAL_DATA_INDEX = ACTUAL_DATA_INDEX + 1;
      490     6890    3           ACTUAL_DATA_INDEX = ACTUAL_DATA_INDEX + 1;
      491     6891    3         END;
      492     6892    2       ELSE SUBSTR (VD$BUFFER.BYTES, ACTUAL_DATA_INDEX, 1) = ' ';
      493     6893    2       RETURN;
      494     6894
      495     6895    2   PUTLIT: PROC (LIT);
      496     6896        %P$LIT (NAME=LIT, STCLASS=);
PL6.E3A0      #002=VDP$WFORMAT_RECORD File=VDP$WINDOW_I_O.:VDA5TSI               FRI 07/04/97 11:39 Page:35
      497     6949
      498     6950    3       IF STRING_START > 1 THEN
      499     6951    3         SUBSTR (VD$BUFFER.BYTES, ACTUAL_DATA_INDEX, 1) = '''';
      500     6952    3       ELSE ACTUAL_DATA_INDEX = ACTUAL_DATA_INDEX - 2;
      501     6953
      502     6954    3       SUBSTR (VD$BUFFER.BYTES, ACTUAL_DATA_INDEX + 1, 1) = '<';
      503     6955    3       K = LIT.ABREV;
      504     6956    3       IF K = 0 THEN K = LIT.COUNT;
      505     6957    3       SUBSTR (VD$BUFFER.BYTES, ACTUAL_DATA_INDEX + 2, K) =
      506     6958    3         SUBSTR (LIT.TEXT, 0, K);
      507     6959    3       ACTUAL_DATA_INDEX = ACTUAL_DATA_INDEX + K + 3;
      508     6960    3       SUBSTR (VD$BUFFER.BYTES, ACTUAL_DATA_INDEX - 1, 2) = '>''';
      509     6961    3       STRING_START = 1;
      510     6962    3       RETURN;
      511     6963    3   END PUTLIT;
      512     6964    2   END FORMAT_STRING;
      513     6965    1   END VDP$WFORMAT_RECORD;
      514     6966        %EOD;

PL6.E3A0      #002=VDP$WFORMAT_RECORD File=VDP$WINDOW_I_O.:VDA5TSI               FRI 07/04/97 11:39 Page:36
--  Include file information  --

   XU_SUBS_C.:LIBRARY  is referenced.
   XU_MACRO_C.:LIBRARY  is referenced.
   VD_MACROS_M.:VDA5TOU  is referenced.
   CP_6.:LIBRARY  cannot be made into a system file and is referenced.
   B$JIT_C.:E04TOU  was found in the system file and is never referenced.
   CP_6_C.:E04TOU  was found in the system file and is referenced.
      No diagnostics issued in procedure VDP$WFORMAT_RECORD.

   Procedure VDP$WFORMAT_RECORD requires 620 words for executable code.
   Procedure VDP$WFORMAT_RECORD requires 32 words of local(AUTO) storage.

PL6.E3A0      #002=VDP$WFORMAT_RECORD File=VDP$WINDOW_I_O.:VDA5TSI               FRI 07/04/97 11:39 Page:37

 Object Unit name= VDP$WFORMAT_RECORD                         File name= VDP$WINDOW_I_O.:VDA5TOU
 UTS= JUL 04 '97 11:39:43.24 FRI                              Compiler= PL-6/E31         Sev=      00
 SharedLib= :SHARED_SYSTEM                                    Alt SharedLib=


    ****  Control sections  ****

 Sect   Type Bound  Init  Size OctSiz  Section name(segment info)
    0   DCB   even  none     0      0  M$UC
    1   DCB   even  none     0      0  M$LO
    2   Data  even  none    22     26  VDP$WFORMAT_RECORD
    3  RoData even  UTS     19     23  VDP$WFORMAT_RECORD
    4   Proc  even  none   620   1154  VDP$WFORMAT_RECORD
    5  RoData even  none    18     22  VDP$WFORMAT_RECORD

    ****  Entry defs  ****

                              Check   Calling
                             calling  sequence
  Sect OctLoc Primary Altret sequence   type   Parms  Name
     4      0   yes    yes     yes      Std        2  VDP$WFORMAT_RECORD

  ****  Entry refs  ****

         Check        Calling
        calling       sequence
Altret sequence SRef   type   Args  Name
 yes     yes           Std       3 VDG$OALLOC
         yes           Std       6 VDG$FORMAT_NUMBER
 yes     yes           Std       0 VDG$MONERR
         yes           Std       5 VDG$FORMAT_KEY
         yes           Std       5 VDG$FORMAT_BLOCK_DESC
         yes           Std       5 VDG$FORMAT_WINDOW_SPEC
                       nStd      0 X66_AUTO_2
                       Std       0 B_CONSPOOL_D
                       nStd      0 X66_ARET
                       nStd      0 X66_AALT
PL6.E3A0      #002=VDP$WFORMAT_RECORD File=VDP$WINDOW_I_O.:VDA5TSI               FRI 07/04/97 11:39 Page:38

  ****  Data refs  ****

  Flags:  r = read only, s = secondary
Flgs Name                             Flgs Name                             Flgs Name
     M$UC                                  M$LO                                  VDP_KEY$
     VDP_KEY_AND_BUFFER$                   ASP_FUNKEY                            HEX
     B_VECTNIL

  ****  Segment refs  ****

  Flags:  r = read only, s = secondary
Flgs Name                             Flgs Name                             Flgs Name
     ISSID                                 NULLSID
PL6.E3A0      #002=VDP$WFORMAT_RECORD File=VDP$WINDOW_I_O.:VDA5TSI               FRI 07/04/97 11:39 Page:39


       95        1        /*M* VDP$WFORMAT_RECORD:  Format a record for 1D input or output.  */
       96        2        /*T***********************************************************/
       97        3        /*T*                                                         */
       98        4        /*T* Copyright (c) Bull HN Information Systems Inc., 1997    */
       99        5        /*T*                                                         */
      100        6        /*T***********************************************************/
      101        7        /*X* DMC,PLM=4,IND=0,DCI=4,CSI=2,IAD=2,DTI=2,AND,ECI=0,DIN=2,STI=2 */
      102        8
      103        9        VDP$WFORMAT_RECORD: PROC ( RGET_NODE_DESC,

      9  4 000000   000000 700200 xent  VDP$WFORMAT* TSX0  ! X66_AUTO_2
         4 000001   000040 000002                    ZERO    32,2

      104       10              FPT_SINPUT )
      105       11              ALTRET;
      106       12
      107       13          %INCLUDE CP_6;
      108       94
      109       95            %B$TCB;
      110       98            %B$ALT;
      111      106    1     DCL B$TCB$ PTR SYMREF;
      112      107
      113      108    1     DCL M$LO DCB;
      114      109
      115      110          %FPT_PROMPT ( VFC = YES );
      116      138    1     DCL VLP_PROMPT_DOT CHAR(2) CONSTANT INIT('@.');
      117      139          %FPT_WRITE ( DCB = M$LO );
      118      170    1     DCL INDX_TXT CONSTANT CHAR(0) INIT('(all)edtcmded1ed2ed3ed4ed5ed6ed7ed8ed9');
      119      171
      120      172          %INCLUDE VD_MACROS_M;
      121     2387
      122     2388          %VD$NODE_DESC ( NAME = RGET_NODE_DESC,
      123     2389                         STCLASS = PARAM );
      124     2431          %FPT_SINPUT (STCLASS=PARAM);
      125     2468
      126     2469    1     DCL VDP_KEY$ PTR SYMREF;
PL6.E3A0      #002=VDP$WFORMAT_RECORD File=VDP$WINDOW_I_O.:VDA5TSI               FRI 07/04/97 11:39 Page:40
      127     2470    1     DCL VDP_KEY_AND_BUFFER$ PTR SYMREF;
      128     2471
      129     2472          %VD$BLOCK_DESC;
      130     2619          %VD$BUFFER (STCLASS="BASED(KEY_AND_BUFFER$)");
      131     2677          %VD$BUFFER_HEADER;
      132     2713          %VD$KEY;
      133     2727          %VD$NAME_SPEC;
      134     2775          %VD$NUMBER;
      135     2820          %VD$POINTER;
      136     2865          %VD$TEXTC;
      137     2888          %VD$TEXTC_REMOTE;
      138     2949          %VD$WINDOW_SPEC (NAME=WINDOW$SPEC, STCLASS="BASED(RGET_NODE_DESC.SPEC.V$)");
      139     3015
      140     3016    1     DCL CANNED_FORMATTED_NUMBER_KEY CHAR(10) CONSTANT
      141     3017    1       INIT ( '     .000 ' );
      142     3018
      143     3019    1     DCL ACTUAL_DATA_INDEX SBIN;
      144     3020    1     DCL KEY_FORMAT_END_INDEX REDEF ACTUAL_DATA_INDEX SBIN;
      145     3021    1     DCL KEY_AND_BUFFER$ PTR;
      146     3022    1     DCL DATA_CLS SBIN;
      147     3023    1     DCL BLOCK$ PTR;
      148     3024    1     DCL DATA$ PTR;
      149     3025    1     DCL INDX SBIN;
      150     3026    1     DCL DECIMAL_POINT_INDEX UBIN;
      151     3027    1     DCL FORMATTED_NUMBER_KEY CHAR(10);
      152     3028    1     DCL CURRENT_KEY$ PTR;
      153     3029
      154     3030    1     DCL VDG$FORMAT_BLOCK_DESC ENTRY(5);
      155     3031    1     DCL VDG$FORMAT_KEY ENTRY (5);
      156     3032    1     DCL VDG$FORMAT_NUMBER ENTRY(6);
      157     3033    1     DCL VDG$FORMAT_WINDOW_SPEC ENTRY(5);
      158     3034    1     DCL VDG$MONERR ENTRY ALTRET;
      159     3035    1     DCL VDG$OALLOC ENTRY (3) ALTRET;
      160     3036        %EJECT;
PL6.E3A0      #002=VDP$WFORMAT_RECORD File=VDP$WINDOW_I_O.:VDA5TSI               FRI 07/04/97 11:39 Page:41
      161     3037            %GETKEY ( KEY = RGET_NODE_DESC.KEY, PTR = CURRENT_KEY$);

   3044  4 000002   200003 470500                    LDP0    @RGET_NODE_DESC,,AUTO
         4 000003   000000 720100                    LXL0    0,,PR0
         4 000004   000002 100003                    CMPX0   2,DU
         4 000005   000012 601000 4                  TNZ     s:3044+8

   3044  4 000006   000001 471500                    LDP1    1,,PR0
         4 000007   100002 633500                    EPPR3   2,,PR1
         4 000010   200017 453500                    STP3    CURRENT_KEY$,,AUTO
         4 000011   000015 710000 4                  TRA     s:3048

   3044  4 000012   200003 236100                    LDQ     @RGET_NODE_DESC,,AUTO
         4 000013   000001 036003                    ADLQ    1,DU
         4 000014   200017 756100                    STQ     CURRENT_KEY$,,AUTO

      162     3047
      163     3048    1       FPT_PROMPT.V.DCB# = 0;

   3048  4 000015   000000 221003                    LDX1    0,DU
         4 000016   000006 741000 2                  STX1    FPT_PROMPT+6

      164     3049    1       IF ADDR(FPT_SINPUT) ~= ADDR(NIL) THEN FPT_PROMPT.V.DCB# = FPT_SINPUT.V.DCB#;

   3049  4 000017   200004 236100                    LDQ     @FPT_SINPUT,,AUTO
         4 000020   000001 116000 xsym               CMPQ    B_VECTNIL+1
         4 000021   000025 600000 4                  TZE     s:3050

   3049  4 000022   200004 471500                    LDP1    @FPT_SINPUT,,AUTO
         4 000023   100006 220100                    LDX0    6,,PR1
         4 000024   000006 740000 2                  STX0    FPT_PROMPT+6

      165     3050    1       DATA$ = RGET_NODE_DESC.DATA$;

   3050  4 000025   000004 236100                    LDQ     4,,PR0
         4 000026   200011 756100                    STQ     DATA$,,AUTO

PL6.E3A0      #002=VDP$WFORMAT_RECORD File=VDP$WINDOW_I_O.:VDA5TSI               FRI 07/04/97 11:39 Page:42
      166     3051    1       INDX = 2;

   3051  4 000027   000002 235007                    LDA     2,DL
         4 000030   200012 755100                    STA     INDX,,AUTO

      167     3052    1       IF FPT_PROMPT.V.DCB# ~= 0

   3052  4 000031   000006 220000 2                  LDX0    FPT_PROMPT+6
         4 000032   000074 600000 4                  TZE     OUTPUT_KEY_AND_OR_BUFFER

      168     3053    1       THEN
      169     3054    1   REMEMBER_KEY_AND_MAYBE_BUFFER:
      170     3055    2         DO;

   3055  4 000033                       REMEMBER_KE* null
      171     3056    2           VDP_KEY$ -> VD$TEXTC_REMOTE.LENGTH# = CURRENT_KEY$ -> VD$TEXTC.LENGTH#;

   3056  4 000033   200017 471500                    LDP1    CURRENT_KEY$,,AUTO
         4 000034   000000 473400 xsym               LDP3    VDP_KEY$
         4 000035   100000 236100                    LDQ     0,,PR1
         4 000036   300002 552140                    STBQ    2,'40'O,PR3

      172     3057    2           VDP_KEY$ -> VD$TEXTC_REMOTE.BYTES = CURRENT_KEY$ -> VD$TEXTC.BYTES;

   3057  4 000037   300002 236100                    LDQ     2,,PR3
         4 000040   000033 772000                    QRL     27
         4 000041   000000 620006                    EAX0    0,QL
         4 000042   100000 236100                    LDQ     0,,PR1
         4 000043   000033 772000                    QRL     27
         4 000044   000000 622006                    EAX2    0,QL
         4 000045   040140 100540                    MLR     fill='040'O
         4 000046   100000 200012                    ADSC9   0,,PR1                   cn=1,n=*X2
         4 000047   300002 200010                    ADSC9   2,,PR3                   cn=1,n=*X0

      173     3058
      174     3059    2           IF RGET_NODE_DESC.DATA$ -> VD$BUFFER.LENGTH# = 0

PL6.E3A0      #002=VDP$WFORMAT_RECORD File=VDP$WINDOW_I_O.:VDA5TSI               FRI 07/04/97 11:39 Page:43
   3059  4 000050   000004 474500                    LDP4    4,,PR0
         4 000051   400002 222100                    LDX2    2,,PR4
         4 000052   000057 601000 4                  TNZ     s:3063

      175     3060    2           THEN
      176     3061    2             FPT_SINPUT.BUF_ = VECTOR ( NIL );

   3061  4 000053   000000 237000 5                  LDAQ    0
         4 000054   200004 475500                    LDP5    @FPT_SINPUT,,AUTO
         4 000055   500004 757100                    STAQ    4,,PR5
         4 000056   000070 710000 4                  TRA     s:3065

      177     3062    2           ELSE
      178     3063    2             FPT_SINPUT.BUF_ = VECTOR ( RGET_NODE_DESC.DATA$ -> VD$BUFFER.BYTES );

   3063  4 000057   000000 636012                    EAQ     0,X2
         4 000060   000022 732000                    QRS     18
         4 000061   000064 737000                    LLS     52
         4 000062   000140 135007                    SBLA    96,DL
         4 000063   200032 454500                    STP4    @LIT+1,,AUTO
         4 000064   200032 236100                    LDQ     @LIT+1,,AUTO
         4 000065   000002 036000 5                  ADLQ    2
         4 000066   200004 475500                    LDP5    @FPT_SINPUT,,AUTO
         4 000067   500004 757100                    STAQ    4,,PR5

      179     3064
      180     3065    2           CALL M$SINPUT ( FPT_SINPUT ) ALTRET ( SINPUT_FAILED );

   3065  4 000070   500000 630500                    EPPR0   0,,PR5
         4 000071   560013 713400                    CLIMB   alt,+57355
         4 000072   401000 401760                    pmme    nvectors=3
         4 000073   000647 702000 4                  TSX2    PROMPT_FAILED

      181     3066
      182     3067    2         END REMEMBER_KEY_AND_MAYBE_BUFFER;

      183     3068
PL6.E3A0      #002=VDP$WFORMAT_RECORD File=VDP$WINDOW_I_O.:VDA5TSI               FRI 07/04/97 11:39 Page:44
      184     3069    1   OUTPUT_KEY_AND_OR_BUFFER:
      185     3070    2       DO;

   3070  4 000074                       OUTPUT_KEY_* null
      186     3071    2         IF RGET_NODE_DESC.SPEC.TYPE# ~= 0 /* No key for the string-file */

   3071  4 000074   200003 470500                    LDP0    @RGET_NODE_DESC,,AUTO
         4 000075   000002 220100                    LDX0    2,,PR0
         4 000076   000607 600000 4                  TZE     FORMAT_BUFFER

      187     3072    2         THEN
      188     3073    2   FORMAT_KEY:
      189     3074    3           DO;

   3074  4 000077                       FORMAT_KEY   null
      190     3075    3             IF VDP_KEY_AND_BUFFER$ = ADDR (NIL)

   3075  4 000077   000000 236000 xsym               LDQ     VDP_KEY_AND_BUFFER$
         4 000100   000001 116000 xsym               CMPQ    B_VECTNIL+1
         4 000101   000112 601000 4                  TNZ     s:3091

      191     3076    3             THEN
      192     3077    3   ALLOC_A_KEY_AND_BUFFER:
      193     3078    4               DO;

   3078  4 000102                       ALLOC_A_KEY* null
      194     3079    4                 CALL VDG$OALLOC ( %CLS_BUFFER,

   3079  4 000102   000004 630400 5                  EPPR0   4
         4 000103   000021 631400 xsym               EPPR1   B_VECTNIL+17
         4 000104   000000 701000 xent               TSX1    VDG$OALLOC
         4 000105   000652 702000 4                  TSX2    OALLOC_FAILED

      195     3080    4                   VDP_KEY_AND_BUFFER$,
      196     3081    4                   ( SIZEC ( VD$BUFFER_HEADER )
      197     3082    4                   + %MXNB_KEY
      198     3083    4                   + %MXNB_DATA
PL6.E3A0      #002=VDP$WFORMAT_RECORD File=VDP$WINDOW_I_O.:VDA5TSI               FRI 07/04/97 11:39 Page:45
      199     3084    4                   + ( %NB_PER_WORD - 1 ) )
      200     3085    4                   / %NB_PER_WORD )
      201     3086    4                   ALTRET ( OALLOC_FAILED );
      202     3087
      203     3088    4                 SUBSTR ( VDP_KEY_AND_BUFFER$ -> VD$BUFFER.BYTES, 0, 1 ) = '@';

   3088  4 000106   000000 470400 xsym               LDP0    VDP_KEY_AND_BUFFER$
         4 000107   000002 220100                    LDX0    2,,PR0
         4 000110   100000 236007                    LDQ     32768,DL
         4 000111   000002 552110                    STBQ    2,'10'O,PR0

      204     3089    4               END ALLOC_A_KEY_AND_BUFFER;

      205     3090
      206     3091    3             KEY_FORMAT_END_INDEX = 1;

   3091  4 000112   000001 235007                    LDA     1,DL
         4 000113   200005 755100                    STA     ACTUAL_DATA_INDEX,,AUTO

      207     3092    3             KEY_AND_BUFFER$ = VDP_KEY_AND_BUFFER$;

   3092  4 000114   000000 236000 xsym               LDQ     VDP_KEY_AND_BUFFER$
         4 000115   200006 756100                    STQ     KEY_AND_BUFFER$,,AUTO

      208     3093    3             IF RGET_NODE_DESC.SPEC.TYPE# = %SPT_NAME_SPEC AND

   3093  4 000116   200003 470500                    LDP0    @RGET_NODE_DESC,,AUTO
         4 000117   000002 220100                    LDX0    2,,PR0
         4 000120   000003 100003                    CMPX0   3,DU
         4 000121   000133 601000 4                  TNZ     s:3097
         4 000122   000003 471500                    LDP1    3,,PR0
         4 000123   100002 721100                    LXL1    2,,PR1
         4 000124   000004 101003                    CMPX1   4,DU
         4 000125   000133 601000 4                  TNZ     s:3097

      209     3094    3               RGET_NODE_DESC.SPEC.V$ -> VD$NAME_SPEC.DATA_TYPE# = %NDT_KEYIN THEN
      210     3095    3               CALL FORMAT_STRING (RGET_NODE_DESC.KEY);
PL6.E3A0      #002=VDP$WFORMAT_RECORD File=VDP$WINDOW_I_O.:VDA5TSI               FRI 07/04/97 11:39 Page:46

   3095  4 000126   200003 236100                    LDQ     @RGET_NODE_DESC,,AUTO
         4 000127   200021 756100                    STQ     CURRENT_KEY$+2,,AUTO
         4 000130   000653 701000 4                  TSX1    FORMAT_STRING
         4 000131   000000 011000                    NOP     0
         4 000132   000151 710000 4                  TRA     s:3103

      211     3096    3             ELSE
      212     3097    3               CALL VDG$FORMAT_KEY ( RGET_NODE_DESC.KEY,

   3097  4 000133   200005 631500                    EPPR1   ACTUAL_DATA_INDEX,,AUTO
         4 000134   200036 451500                    STP1    @LIT+5,,AUTO
         4 000135   000010 236000 5                  LDQ     8
         4 000136   200035 756100                    STQ     @LIT+4,,AUTO
         4 000137   200006 236100                    LDQ     KEY_AND_BUFFER$,,AUTO
         4 000140   000002 036000 5                  ADLQ    2
         4 000141   200034 756100                    STQ     @LIT+3,,AUTO
         4 000142   000011 236000 5                  LDQ     9
         4 000143   200003 235100                    LDA     @RGET_NODE_DESC,,AUTO
         4 000144   200032 757100                    STAQ    @LIT+1,,AUTO
         4 000145   200032 630500                    EPPR0   @LIT+1,,AUTO
         4 000146   000023 631400 xsym               EPPR1   B_VECTNIL+19
         4 000147   000000 701000 xent               TSX1    VDG$FORMAT_KEY
         4 000150   000000 011000                    NOP     0

      213     3098    3                 %MXNB_KEY /* # of bytes in buffer */,
      214     3099    3                 VD$BUFFER.BYTES /* buffer to format into */,
      215     3100    3                 1 /* start index for formatting */,
      216     3101    3                 KEY_FORMAT_END_INDEX /* end index for formatting */ );
      217     3102
      218     3103    3             IF RGET_NODE_DESC.KEY.TYPE# = %KT_NUMBER

   3103  4 000151   200003 470500                    LDP0    @RGET_NODE_DESC,,AUTO
         4 000152   000000 220100                    LDX0    0,,PR0
         4 000153   000001 100003                    CMPX0   1,DU
         4 000154   000200 601000 4                  TNZ     s:3121

PL6.E3A0      #002=VDP$WFORMAT_RECORD File=VDP$WINDOW_I_O.:VDA5TSI               FRI 07/04/97 11:39 Page:47
      219     3104    3             THEN
      220     3105    3   FORMAT_NUMBER_KEY:
      221     3106    4               DO;

   3106  4 000155                       FORMAT_NUMB* null
      222     3107    4                 FORMATTED_NUMBER_KEY =

   3107  4 000155   200006 471500                    LDP1    KEY_AND_BUFFER$,,AUTO
         4 000156   100002 221100                    LDX1    2,,PR1
         4 000157   200005 722100                    LXL2    ACTUAL_DATA_INDEX,,AUTO
         4 000160   777777 623012                    EAX3    -1,X2
         4 000161   040100 100540                    MLR     fill='040'O
         4 000162   100002 600013                    ADSC9   2,,PR1                   cn=3,n=*X3
         4 000163   200014 000012                    ADSC9   FORMATTED_NUMBER_KEY,,AUTO cn=0,n=10

      223     3108    4                   SUBSTR ( VD$BUFFER.BYTES,
      224     3109    4                   1,
      225     3110    4                   KEY_FORMAT_END_INDEX - 1 );
      226     3111
      227     3112    4                 SUBSTR ( VD$BUFFER.BYTES, 1, 10 ) = ' ';

   3112  4 000164   040100 100400                    MLR     fill='040'O
         4 000165   000035 000001 xsym               ADSC9   B_VECTNIL+29             cn=0,n=1
         4 000166   100002 600012                    ADSC9   2,,PR1                   cn=3,n=10

      228     3113
      229     3114    4                 SUBSTR ( VD$BUFFER.BYTES,

   3114  4 000167   200005 720100                    LXL0    ACTUAL_DATA_INDEX,,AUTO
         4 000170   777777 622010                    EAX2    -1,X0
         4 000171   200005 335100                    LCA     ACTUAL_DATA_INDEX,,AUTO
         4 000172   040145 100500                    MLR     fill='040'O
         4 000173   200014 000012                    ADSC9   FORMATTED_NUMBER_KEY,,AUTO cn=0,n=10
         4 000174   100005 200012                    ADSC9   5,A,PR1                  cn=1,n=*X2

      230     3115    4                   11 - KEY_FORMAT_END_INDEX,
      231     3116    4                   KEY_FORMAT_END_INDEX - 1) =
PL6.E3A0      #002=VDP$WFORMAT_RECORD File=VDP$WINDOW_I_O.:VDA5TSI               FRI 07/04/97 11:39 Page:48
      232     3117    4                   FORMATTED_NUMBER_KEY;
      233     3118
      234     3119    4                 ACTUAL_DATA_INDEX = 11;

   3119  4 000175   000013 235007                    LDA     11,DL
         4 000176   200005 755100                    STA     ACTUAL_DATA_INDEX,,AUTO

      235     3120    4               END FORMAT_NUMBER_KEY;

   3120  4 000177   000266 710000 4                  TRA     s:3163

      236     3121    3             ELSE IF RGET_NODE_DESC.KEY.TYPE# = %KT_EDITKEY

   3121  4 000200   000003 100003                    CMPX0   3,DU
         4 000201   000232 601000 4                  TNZ     JUST_INCLUDE_KEY

      237     3122    3               THEN
      238     3123    3   KEEP_FORMATTING_KEY:
      239     3124    4                 DO;

   3124  4 000202                       KEEP_FORMAT* null
      240     3125    4                   FORMATTED_NUMBER_KEY =

   3125  4 000202   200006 471500                    LDP1    KEY_AND_BUFFER$,,AUTO
         4 000203   100002 221100                    LDX1    2,,PR1
         4 000204   200005 722100                    LXL2    ACTUAL_DATA_INDEX,,AUTO
         4 000205   777777 623012                    EAX3    -1,X2
         4 000206   040100 100540                    MLR     fill='040'O
         4 000207   100002 600013                    ADSC9   2,,PR1                   cn=3,n=*X3
         4 000210   200014 000012                    ADSC9   FORMATTED_NUMBER_KEY,,AUTO cn=0,n=10

      241     3126    4                     SUBSTR ( VD$BUFFER.BYTES,
      242     3127    4                     1,
      243     3128    4                     KEY_FORMAT_END_INDEX - 1 );
      244     3129
      245     3130    4                   SUBSTR ( VD$BUFFER.BYTES, 1, 10 ) =

PL6.E3A0      #002=VDP$WFORMAT_RECORD File=VDP$WINDOW_I_O.:VDA5TSI               FRI 07/04/97 11:39 Page:49
   3130  4 000211   040100 100400                    MLR     fill='040'O
         4 000212   000013 000012 3                  ADSC9   CANNED_FORMATTED_NUMBER_KEY cn=0,n=10
         4 000213   100002 600012                    ADSC9   2,,PR1                   cn=3,n=10

      246     3131    4                     CANNED_FORMATTED_NUMBER_KEY;
      247     3132
      248     3133    4                   CALL INDEX ( DECIMAL_POINT_INDEX,

   3133  4 000214   000000 124500                    SCM     mask='000'O
         4 000215   200014 000012                    ADSC9   FORMATTED_NUMBER_KEY,,AUTO cn=0,n=10
         4 000216   000012 000001 5                  ADSC9   10                       cn=0,n=1
         4 000217   200013 000100                    ARG     DECIMAL_POINT_INDEX,,AUTO

      249     3134    4                     '.',
      250     3135    4                     FORMATTED_NUMBER_KEY );
      251     3136
      252     3137    4                   SUBSTR ( VD$BUFFER.BYTES,

   3137  4 000220   200005 720100                    LXL0    ACTUAL_DATA_INDEX,,AUTO
         4 000221   777777 622010                    EAX2    -1,X0
         4 000222   000000 235003                    LDA     0,DU
         4 000223   200013 135100                    SBLA    DECIMAL_POINT_INDEX,,AUTO
         4 000224   040145 100500                    MLR     fill='040'O
         4 000225   200014 000012                    ADSC9   FORMATTED_NUMBER_KEY,,AUTO cn=0,n=10
         4 000226   100004 000012                    ADSC9   4,A,PR1                  cn=0,n=*X2

      253     3138    4                     6 - DECIMAL_POINT_INDEX /* leading blanks */,
      254     3139    4                     KEY_FORMAT_END_INDEX - 1 ) =
      255     3140    4                     FORMATTED_NUMBER_KEY;
      256     3141
      257     3142    4                   ACTUAL_DATA_INDEX = 11;

   3142  4 000227   000013 236007                    LDQ     11,DL
         4 000230   200005 756100                    STQ     ACTUAL_DATA_INDEX,,AUTO

      258     3143    4                 END KEEP_FORMATTING_KEY;

PL6.E3A0      #002=VDP$WFORMAT_RECORD File=VDP$WINDOW_I_O.:VDA5TSI               FRI 07/04/97 11:39 Page:50
   3143  4 000231   000266 710000 4                  TRA     s:3163

      259     3144    3               ELSE
      260     3145    3   JUST_INCLUDE_KEY:
      261     3146    4                 DO;

   3146  4 000232                       JUST_INCLUD* null
      262     3147    4                   IF DATA$ -> VD$BUFFER.FLINK$ ~= ADDR(NIL)

   3147  4 000232   200011 471500                    LDP1    DATA$,,AUTO
         4 000233   100001 236100                    LDQ     1,,PR1
         4 000234   000001 116000 xsym               CMPQ    B_VECTNIL+1
         4 000235   000246 600000 4                  TZE     s:3154

      263     3148    4                   THEN
      264     3149    4   SHOW_AN_ARRAY_KEY:
      265     3150    5                     DO;

   3150  4 000236                       SHOW_AN_ARR* null
      266     3151    5                       SUBSTR ( VD$BUFFER.BYTES, KEY_FORMAT_END_INDEX, 5) = INDX_TXT;

   3151  4 000236   200006 473500                    LDP3    KEY_AND_BUFFER$,,AUTO
         4 000237   300002 221100                    LDX1    2,,PR3
         4 000240   200005 235100                    LDA     ACTUAL_DATA_INDEX,,AUTO
         4 000241   040105 100400                    MLR     fill='040'O
         4 000242   000001 000005 3                  ADSC9   INDX_TXT                 cn=0,n=5
         4 000243   300002 400005                    ADSC9   2,A,PR3                  cn=2,n=5

      267     3152    5                       KEY_FORMAT_END_INDEX = KEY_FORMAT_END_INDEX + 5;

   3152  4 000244   000005 236007                    LDQ     5,DL
         4 000245   200005 056100                    ASQ     ACTUAL_DATA_INDEX,,AUTO

      268     3153    5                     END SHOW_AN_ARRAY_KEY;

      269     3154    4                   DECIMAL_POINT_INDEX = KEY_FORMAT_END_INDEX;

PL6.E3A0      #002=VDP$WFORMAT_RECORD File=VDP$WINDOW_I_O.:VDA5TSI               FRI 07/04/97 11:39 Page:51
   3154  4 000246   200005 235100                    LDA     ACTUAL_DATA_INDEX,,AUTO
         4 000247   200013 755100                    STA     DECIMAL_POINT_INDEX,,AUTO

   3154  4 000250                       SHOW_NEXT_A* null
      270     3155    4   SHOW_NEXT_ARRAY_ITEM: ;
      271     3156    4                   ACTUAL_DATA_INDEX = MAXIMUM (DECIMAL_POINT_INDEX,20) + 1;

   3156  4 000250   000024 236007                    LDQ     20,DL
         4 000251   200013 116100                    CMPQ    DECIMAL_POINT_INDEX,,AUTO
         4 000252   000254 603000 4                  TRC     SHOW_NEXT_ARRAY_ITEM+4
         4 000253   200013 236100                    LDQ     DECIMAL_POINT_INDEX,,AUTO
         4 000254   000001 036007                    ADLQ    1,DL
         4 000255   200005 756100                    STQ     ACTUAL_DATA_INDEX,,AUTO

      272     3157    4                   SUBSTR ( VD$BUFFER.BYTES,

   3157  4 000256   200006 470500                    LDP0    KEY_AND_BUFFER$,,AUTO
         4 000257   000002 220100                    LDX0    2,,PR0
         4 000260   200013 136100                    SBLQ    DECIMAL_POINT_INDEX,,AUTO
         4 000261   000000 621006                    EAX1    0,QL
         4 000262   200013 235100                    LDA     DECIMAL_POINT_INDEX,,AUTO
         4 000263   040145 100400                    MLR     fill='040'O
         4 000264   000035 000001 xsym               ADSC9   B_VECTNIL+29             cn=0,n=1
         4 000265   000002 400011                    ADSC9   2,A,PR0                  cn=2,n=*X1

      273     3158    4                     DECIMAL_POINT_INDEX,
      274     3159    4                     ACTUAL_DATA_INDEX - DECIMAL_POINT_INDEX ) = ' ';
      275     3160
      276     3161    4                 END JUST_INCLUDE_KEY;

      277     3162
      278     3163    3             IF FPT_PROMPT.V.DCB# ~= 0

   3163  4 000266   000006 220000 2                  LDX0    FPT_PROMPT+6
         4 000267   000314 600000 4                  TZE     OUTPUT_KEY_AND_BUFFER

      279     3164    3             THEN
PL6.E3A0      #002=VDP$WFORMAT_RECORD File=VDP$WINDOW_I_O.:VDA5TSI               FRI 07/04/97 11:39 Page:52
      280     3165    3   OUTPUT_KEY_ONLY:
      281     3166    4               DO;

   3166  4 000270                       OUTPUT_KEY_* null
      282     3167    4                 FPT_PROMPT.PROMPT_ = VECTOR ( SUBSTR ( VD$BUFFER.BYTES,

   3167  4 000270   200006 470500                    LDP0    KEY_AND_BUFFER$,,AUTO
         4 000271   000002 221100                    LDX1    2,,PR0
         4 000272   000036 236007                    LDQ     30,DL
         4 000273   000276 604000 4                  TMI     OUTPUT_KEY_ONLY+6
         4 000274   200005 116100                    CMPQ    ACTUAL_DATA_INDEX,,AUTO
         4 000275   000277 604400 4                  TMOZ    OUTPUT_KEY_ONLY+7
         4 000276   200005 236100                    LDQ     ACTUAL_DATA_INDEX,,AUTO
         4 000277   000064 737000                    LLS     52
         4 000300   000140 135007                    SBLA    96,DL
         4 000301   200006 236100                    LDQ     KEY_AND_BUFFER$,,AUTO
         4 000302   000002 036000 5                  ADLQ    2
         4 000303   000004 757000 2                  STAQ    FPT_PROMPT+4

      283     3168    4                   0,
      284     3169    4                   MINIMUM ( ACTUAL_DATA_INDEX, 30 ) ) );
      285     3170
      286     3171    4                 SUBSTR ( VD$BUFFER.BYTES, 0, 1 ) = 'p';

   3171  4 000304   000002 221100                    LDX1    2,,PR0
         4 000305   160000 236007                    LDQ     57344,DL
         4 000306   000002 552110                    STBQ    2,'10'O,PR0

      287     3172    4                 CALL M$PROMPT ( FPT_PROMPT )

   3172  4 000307   000000 630400 2                  EPPR0   FPT_PROMPT
         4 000310   560002 713400                    CLIMB   alt,+57346
         4 000311   401000 401760                    pmme    nvectors=3
         4 000312   000647 702000 4                  TSX2    PROMPT_FAILED

      288     3173    4                   ALTRET ( PROMPT_FAILED );
      289     3174
PL6.E3A0      #002=VDP$WFORMAT_RECORD File=VDP$WINDOW_I_O.:VDA5TSI               FRI 07/04/97 11:39 Page:53
      290     3175    4                 EXIT OUTPUT_KEY_AND_OR_BUFFER;

   3175  4 000313   000646 710000 4                  TRA     s:3297

      291     3176    4               END OUTPUT_KEY_ONLY;
      292     3177    3             ELSE
      293     3178    3   OUTPUT_KEY_AND_BUFFER:
      294     3179    4               DO;

   3179  4 000314                       OUTPUT_KEY_* null
      295     3180    4                 DATA_CLS = DATA$ -> VD$BUFFER.OBJECT.CLASS#;

   3180  4 000314   200011 470500                    LDP0    DATA$,,AUTO
         4 000315   000000 236100                    LDQ     0,,PR0
         4 000316   000022 772000                    QRL     18
         4 000317   200007 756100                    STQ     DATA_CLS,,AUTO

      296     3181    4                 IF RGET_NODE_DESC.SPEC.TYPE# = %SPT_WINDOW_SPEC THEN

   3181  4 000320   200003 471500                    LDP1    @RGET_NODE_DESC,,AUTO
         4 000321   100002 221100                    LDX1    2,,PR1
         4 000322   000006 101003                    CMPX1   6,DU
         4 000323   000327 601000 4                  TNZ     s:3183

      297     3182    4                   DATA_CLS = %CLS_WINDOW_SPEC;

   3182  4 000324   000055 235007                    LDA     45,DL
         4 000325   200007 755100                    STA     DATA_CLS,,AUTO
         4 000326   000371 710000 4                  TRA     s:3202

      298     3183    4                 ELSE IF RGET_NODE_DESC.SPEC.TYPE# ~= %SPT_NAME_SPEC THEN

   3183  4 000327   000003 101003                    CMPX1   3,DU
         4 000330   000334 600000 4                  TZE     s:3185

      299     3184    4                     DATA_CLS = %CLS_BUFFER;

PL6.E3A0      #002=VDP$WFORMAT_RECORD File=VDP$WINDOW_I_O.:VDA5TSI               FRI 07/04/97 11:39 Page:54
   3184  4 000331   000004 235007                    LDA     4,DL
         4 000332   200007 755100                    STA     DATA_CLS,,AUTO
         4 000333   000371 710000 4                  TRA     s:3202

      300     3185    5                   ELSE DO CASE (RGET_NODE_DESC.SPEC.V$ -> VD$NAME_SPEC.DATA_TYPE#);

   3185  4 000334   100003 473500                    LDP3    3,,PR1
         4 000335   300002 722100                    LXL2    2,,PR3
         4 000336   000005 102003                    CMPX2   5,DU
         4 000337   000341 602012 4                  TNC     s:3185+5,X2
         4 000340   000371 710000 4                  TRA     s:3202
         4 000341   000371 710000 4                  TRA     s:3202
         4 000342   000353 710000 4                  TRA     s:3191
         4 000343   000346 710000 4                  TRA     s:3187
         4 000344   000367 710000 4                  TRA     s:3199
         4 000345   000365 710000 4                  TRA     s:3196

      301     3186    5                       CASE (%NDT_LOCATION);

      302     3187    5                         IF DATA_CLS = %CLS_BUFFER THEN

   3187  4 000346   000004 116007                    CMPQ    4,DL
         4 000347   000371 601000 4                  TNZ     s:3202

      303     3188    5                           DATA_CLS = %CLS_MX; /* display ?? for not defined */

   3188  4 000350   000143 235007                    LDA     99,DL
         4 000351   200007 755100                    STA     DATA_CLS,,AUTO
         4 000352   000371 710000 4                  TRA     s:3202

      304     3189
      305     3190    5                       CASE (%NDT_EQUALS);

      306     3191    5                         IF SUBSTR (VD$BUFFER.BYTES, 1, 7) = '$INTRO_'

   3191  4 000353   200006 474500                    LDP4    KEY_AND_BUFFER$,,AUTO
         4 000354   400002 223100                    LDX3    2,,PR4
PL6.E3A0      #002=VDP$WFORMAT_RECORD File=VDP$WINDOW_I_O.:VDA5TSI               FRI 07/04/97 11:39 Page:55
         4 000355   040000 106500                    CMPC    fill='040'O
         4 000356   400002 600007                    ADSC9   2,,PR4                   cn=3,n=7
         4 000357   000016 000007 3                  ADSC9   CANNED_FORMATTED_NUMBER_KEY+3 cn=0,n=7
         4 000360   000363 600000 4                  TZE     s:3193
         4 000361   000004 116007                    CMPQ    4,DL
         4 000362   000371 601000 4                  TNZ     s:3202

      307     3192    5                           OR DATA_CLS = %CLS_BUFFER THEN
      308     3193    5                           DATA_CLS = %0;

   3193  4 000363   200007 450100                    STZ     DATA_CLS,,AUTO
         4 000364   000371 710000 4                  TRA     s:3202

      309     3194
      310     3195    5                       CASE (%NDT_KEYIN);

      311     3196    5                         DATA_CLS = %0;

   3196  4 000365   200007 450100                    STZ     DATA_CLS,,AUTO
         4 000366   000371 710000 4                  TRA     s:3202

      312     3197
      313     3198    5                       CASE (%NDT_SYNONYM);

      314     3199    5                         DATA_CLS = %CLS_BUFFER;

   3199  4 000367   000004 235007                    LDA     4,DL
         4 000370   200007 755100                    STA     DATA_CLS,,AUTO

      315     3200    5                     END;

      316     3201
      317     3202    5                 DO SELECT (DATA_CLS);

   3202  4 000371   200007 236100                    LDQ     DATA_CLS,,AUTO
         4 000372   000040 116007                    CMPQ    32,DL
         4 000373   000403 604000 4                  TMI     s:3202+10
PL6.E3A0      #002=VDP$WFORMAT_RECORD File=VDP$WINDOW_I_O.:VDA5TSI               FRI 07/04/97 11:39 Page:56
         4 000374   000414 600000 4                  TZE     s:3204
         4 000375   000043 116007                    CMPQ    35,DL
         4 000376   000510 604000 4                  TMI     s:3234
         4 000377   000443 600000 4                  TZE     s:3216
         4 000400   000055 116007                    CMPQ    45,DL
         4 000401   000510 601000 4                  TNZ     s:3234
         4 000402   000463 710000 4                  TRA     s:3223
         4 000403   000001 116007                    CMPQ    1,DL
         4 000404   000411 604000 4                  TMI     s:3202+16
         4 000405   000414 600000 4                  TZE     s:3204
         4 000406   000004 116007                    CMPQ    4,DL
         4 000407   000510 601000 4                  TNZ     s:3234
         4 000410   000532 710000 4                  TRA     s:3242
         4 000411   000000 116003                    CMPQ    0,DU
         4 000412   000510 601000 4                  TNZ     s:3234
         4 000413   000503 710000 4                  TRA     s:3231

      318     3203    5                   SELECT (%CLS_BLOCK_BUFFER, %CLS_PTR_BLOCK_DESC);

      319     3204    5                   IF DATA_CLS = %CLS_PTR_BLOCK_DESC THEN

   3204  4 000414   000040 116007                    CMPQ    32,DL
         4 000415   000421 601000 4                  TNZ     s:3207

      320     3205    5                     BLOCK$ = DATA$ -> VD$POINTER.V$;

   3205  4 000416   000003 236100                    LDQ     3,,PR0
         4 000417   200010 756100                    STQ     BLOCK$,,AUTO
         4 000420   000424 710000 4                  TRA     s:3209

      321     3206    5                   ELSE
      322     3207    5                     BLOCK$ =

   3207  4 000421   200011 236100                    LDQ     DATA$,,AUTO
         4 000422   000003 036003                    ADLQ    3,DU
         4 000423   200010 756100                    STQ     BLOCK$,,AUTO

PL6.E3A0      #002=VDP$WFORMAT_RECORD File=VDP$WINDOW_I_O.:VDA5TSI               FRI 07/04/97 11:39 Page:57
      323     3208    5                       PINCRW (DATA$, SIZEW(VD$BUFFER_HEADER));
      324     3209    5                   CALL VDG$FORMAT_BLOCK_DESC (BLOCK$ -> VD$BLOCK_DESC,

   3209  4 000424   200005 633500                    EPPR3   ACTUAL_DATA_INDEX,,AUTO
         4 000425   200036 453500                    STP3    @LIT+5,,AUTO
         4 000426   200005 634500                    EPPR4   ACTUAL_DATA_INDEX,,AUTO
         4 000427   200035 454500                    STP4    @LIT+4,,AUTO
         4 000430   200006 236100                    LDQ     KEY_AND_BUFFER$,,AUTO
         4 000431   000002 036000 5                  ADLQ    2
         4 000432   200034 756100                    STQ     @LIT+3,,AUTO
         4 000433   000014 236000 5                  LDQ     12
         4 000434   200010 235100                    LDA     BLOCK$,,AUTO
         4 000435   200032 757100                    STAQ    @LIT+1,,AUTO
         4 000436   200032 630500                    EPPR0   @LIT+1,,AUTO
         4 000437   000023 631400 xsym               EPPR1   B_VECTNIL+19
         4 000440   000000 701000 xent               TSX1    VDG$FORMAT_BLOCK_DESC
         4 000441   000000 011000                    NOP     0
         4 000442   000547 710000 4                  TRA     s:3250

      325     3210    5                     %MXNB_NAME_VALUE,
      326     3211    5                     VD$BUFFER.BYTES,
      327     3212    5                     ACTUAL_DATA_INDEX,
      328     3213    5                     ACTUAL_DATA_INDEX);
      329     3214
      330     3215    5                   SELECT (%CLS_PTR_KEY);

      331     3216    5                   CALL VDG$FORMAT_KEY (DATA$ -> VD$POINTER.V$ -> VD$KEY,

   3216  4 000443   000003 473500                    LDP3    3,,PR0
         4 000444   200005 634500                    EPPR4   ACTUAL_DATA_INDEX,,AUTO
         4 000445   200036 454500                    STP4    @LIT+5,,AUTO
         4 000446   200005 635500                    EPPR5   ACTUAL_DATA_INDEX,,AUTO
         4 000447   200035 455500                    STP5    @LIT+4,,AUTO
         4 000450   200006 236100                    LDQ     KEY_AND_BUFFER$,,AUTO
         4 000451   000002 036000 5                  ADLQ    2
         4 000452   200034 756100                    STQ     @LIT+3,,AUTO
         4 000453   000014 236000 5                  LDQ     12
PL6.E3A0      #002=VDP$WFORMAT_RECORD File=VDP$WINDOW_I_O.:VDA5TSI               FRI 07/04/97 11:39 Page:58
         4 000454   200033 756100                    STQ     @LIT+2,,AUTO
         4 000455   200032 453500                    STP3    @LIT+1,,AUTO
         4 000456   200032 630500                    EPPR0   @LIT+1,,AUTO
         4 000457   000023 631400 xsym               EPPR1   B_VECTNIL+19
         4 000460   000000 701000 xent               TSX1    VDG$FORMAT_KEY
         4 000461   000000 011000                    NOP     0
         4 000462   000547 710000 4                  TRA     s:3250

      332     3217    5                     %MXNB_NAME_VALUE,
      333     3218    5                     VD$BUFFER.BYTES,
      334     3219    5                     ACTUAL_DATA_INDEX,
      335     3220    5                     ACTUAL_DATA_INDEX);
      336     3221
      337     3222    5                   SELECT (%CLS_WINDOW_SPEC);

      338     3223    5                   CALL VDG$FORMAT_WINDOW_SPEC (WINDOW$SPEC,

   3223  4 000463   100003 473500                    LDP3    3,,PR1
         4 000464   200005 634500                    EPPR4   ACTUAL_DATA_INDEX,,AUTO
         4 000465   200036 454500                    STP4    @LIT+5,,AUTO
         4 000466   200005 635500                    EPPR5   ACTUAL_DATA_INDEX,,AUTO
         4 000467   200035 455500                    STP5    @LIT+4,,AUTO
         4 000470   200006 236100                    LDQ     KEY_AND_BUFFER$,,AUTO
         4 000471   000002 036000 5                  ADLQ    2
         4 000472   200034 756100                    STQ     @LIT+3,,AUTO
         4 000473   000014 236000 5                  LDQ     12
         4 000474   200033 756100                    STQ     @LIT+2,,AUTO
         4 000475   200032 453500                    STP3    @LIT+1,,AUTO
         4 000476   200032 630500                    EPPR0   @LIT+1,,AUTO
         4 000477   000023 631400 xsym               EPPR1   B_VECTNIL+19
         4 000500   000000 701000 xent               TSX1    VDG$FORMAT_WINDOW_SPEC
         4 000501   000000 011000                    NOP     0
         4 000502   000547 710000 4                  TRA     s:3250

      339     3224    5                     %MXNB_NAME_VALUE,
      340     3225    5                     VD$BUFFER.BYTES,
      341     3226    5                     ACTUAL_DATA_INDEX,
PL6.E3A0      #002=VDP$WFORMAT_RECORD File=VDP$WINDOW_I_O.:VDA5TSI               FRI 07/04/97 11:39 Page:59
      342     3227    5                     ACTUAL_DATA_INDEX);
      343     3228
      344     3229
      345     3230    5                   SELECT (%0);

      346     3231    5                   CALL FORMAT_STRING (DATA$ -> VD$BUFFER);

   3231  4 000503   200011 236100                    LDQ     DATA$,,AUTO
         4 000504   200021 756100                    STQ     CURRENT_KEY$+2,,AUTO
         4 000505   000653 701000 4                  TSX1    FORMAT_STRING
         4 000506   000000 011000                    NOP     0
         4 000507   000547 710000 4                  TRA     s:3250

      347     3232
      348     3233    5                   SELECT (ELSE);

      349     3234    5                 CALL VDG$FORMAT_NUMBER (DATA_CLS,

   3234  4 000510   200005 633500                    EPPR3   ACTUAL_DATA_INDEX,,AUTO
         4 000511   200037 453500                    STP3    @LIT+6,,AUTO
         4 000512   200005 634500                    EPPR4   ACTUAL_DATA_INDEX,,AUTO
         4 000513   200036 454500                    STP4    @LIT+5,,AUTO
         4 000514   200006 236100                    LDQ     KEY_AND_BUFFER$,,AUTO
         4 000515   000002 036000 5                  ADLQ    2
         4 000516   000014 235000 5                  LDA     12
         4 000517   200034 757100                    STAQ    @LIT+3,,AUTO
         4 000520   200011 236100                    LDQ     DATA$,,AUTO
         4 000521   000003 036003                    ADLQ    3,DU
         4 000522   200033 756100                    STQ     @LIT+2,,AUTO
         4 000523   200007 635500                    EPPR5   DATA_CLS,,AUTO
         4 000524   200032 455500                    STP5    @LIT+1,,AUTO
         4 000525   200032 630500                    EPPR0   @LIT+1,,AUTO
         4 000526   000024 631400 xsym               EPPR1   B_VECTNIL+20
         4 000527   000000 701000 xent               TSX1    VDG$FORMAT_NUMBER
         4 000530   000000 011000                    NOP     0
         4 000531   000547 710000 4                  TRA     s:3250

PL6.E3A0      #002=VDP$WFORMAT_RECORD File=VDP$WINDOW_I_O.:VDA5TSI               FRI 07/04/97 11:39 Page:60
      350     3235    5                   DATA$ -> VD$NUMBER.V#,
      351     3236    5                   %MXNB_NAME_VALUE,
      352     3237    5                   VD$BUFFER.BYTES,
      353     3238    5                   ACTUAL_DATA_INDEX,
      354     3239    5                   ACTUAL_DATA_INDEX);
      355     3240
      356     3241    5                 SELECT (%CLS_BUFFER);

      357     3242    5                 SUBSTR ( VD$BUFFER.BYTES,

   3242  4 000532   200006 473500                    LDP3    KEY_AND_BUFFER$,,AUTO
         4 000533   300002 221100                    LDX1    2,,PR3
         4 000534   100004 474500                    LDP4    4,,PR1
         4 000535   400002 222100                    LDX2    2,,PR4
         4 000536   400002 223100                    LDX3    2,,PR4
         4 000537   200005 235100                    LDA     ACTUAL_DATA_INDEX,,AUTO
         4 000540   040145 100540                    MLR     fill='040'O
         4 000541   400002 400013                    ADSC9   2,,PR4                   cn=2,n=*X3
         4 000542   300002 400012                    ADSC9   2,A,PR3                  cn=2,n=*X2

      358     3243    5                   ACTUAL_DATA_INDEX,
      359     3244    5                   RGET_NODE_DESC.DATA$ -> VD$BUFFER.LENGTH# ) =
      360     3245    5                   RGET_NODE_DESC.DATA$ -> VD$BUFFER.BYTES;
      361     3246    5                 ACTUAL_DATA_INDEX = ACTUAL_DATA_INDEX +

   3246  4 000543   000002 236100                    LDQ     2,,PR0
         4 000544   000022 732000                    QRS     18
         4 000545   200005 036100                    ADLQ    ACTUAL_DATA_INDEX,,AUTO
         4 000546   200005 756100                    STQ     ACTUAL_DATA_INDEX,,AUTO

      362     3247    5                   DATA$ -> VD$BUFFER.LENGTH#;
      363     3248    5                 END;

      364     3249
      365     3250    4             FPT_WRITE.BUF_ = VECTOR ( SUBSTR ( VD$BUFFER.BYTES,

   3250  4 000547   200006 470500                    LDP0    KEY_AND_BUFFER$,,AUTO
PL6.E3A0      #002=VDP$WFORMAT_RECORD File=VDP$WINDOW_I_O.:VDA5TSI               FRI 07/04/97 11:39 Page:61
         4 000550   000002 220100                    LDX0    2,,PR0
         4 000551   200005 235100                    LDA     ACTUAL_DATA_INDEX,,AUTO
         4 000552   000020 735000                    ALS     16
         4 000553   200140 135007                    SBLA    65632,DL
         4 000554   200006 236100                    LDQ     KEY_AND_BUFFER$,,AUTO
         4 000555   000015 036000 5                  ADLQ    13
         4 000556   000016 757000 2                  STAQ    FPT_WRITE+4

      366     3251    4               1,
      367     3252    4               ACTUAL_DATA_INDEX - 1) );
      368     3253    4             IF DATA$ -> VD$BUFFER.FLINK$ = ADDR(NIL)

   3253  4 000557   200011 471500                    LDP1    DATA$,,AUTO
         4 000560   100001 236100                    LDQ     1,,PR1
         4 000561   000001 116000 xsym               CMPQ    B_VECTNIL+1
         4 000562   000606 600000 4                  TZE     s:3263

      369     3254    4             THEN EXIT;
      370     3255    4             IF DATA$ -> VD$BUFFER.LENGTH# > 0 THEN

   3255  4 000563   100002 220100                    LDX0    2,,PR1
         4 000564   000571 604400 4                  TMOZ    s:3257

      371     3256    4               CALL M$WRITE ( FPT_WRITE ) ALTRET ( WRITE_FAILED );

   3256  4 000565   000012 630400 2                  EPPR0   FPT_WRITE
         4 000566   440001 713400                    CLIMB   alt,write
         4 000567   401400 401760                    pmme    nvectors=4
         4 000570   000647 702000 4                  TSX2    PROMPT_FAILED

      372     3257    4             DATA$ = DATA$ -> VD$BUFFER.FLINK$;

   3257  4 000571   200011 470500                    LDP0    DATA$,,AUTO
         4 000572   000001 236100                    LDQ     1,,PR0
         4 000573   200011 756100                    STQ     DATA$,,AUTO

      373     3258    4             INDX = INDX + 3;
PL6.E3A0      #002=VDP$WFORMAT_RECORD File=VDP$WINDOW_I_O.:VDA5TSI               FRI 07/04/97 11:39 Page:62

   3258  4 000574   000003 236007                    LDQ     3,DL
         4 000575   200012 056100                    ASQ     INDX,,AUTO

      374     3259    4             SUBSTR ( VD$BUFFER.BYTES, DECIMAL_POINT_INDEX-4, 3) =

   3259  4 000576   200006 470500                    LDP0    KEY_AND_BUFFER$,,AUTO
         4 000577   000002 220100                    LDX0    2,,PR0
         4 000600   200012 235100                    LDA     INDX,,AUTO
         4 000601   200013 236100                    LDQ     DECIMAL_POINT_INDEX,,AUTO
         4 000602   040106 100405                    MLR     fill='040'O
         4 000603   000001 000003 3                  ADSC9   INDX_TXT,A               cn=0,n=3
         4 000604   000001 400003                    ADSC9   1,Q,PR0                  cn=2,n=3

      375     3260    4               SUBSTR ( INDX_TXT, INDX, 3 );
      376     3261    4             GOTO SHOW_NEXT_ARRAY_ITEM;

   3261  4 000605   000250 710000 4                  TRA     SHOW_NEXT_ARRAY_ITEM

      377     3262    4               END OUTPUT_KEY_AND_BUFFER;
      378     3263    3           END FORMAT_KEY;

   3263  4 000606   000642 710000 4                  TRA     s:3293

      379     3264    2         ELSE
      380     3265    2   FORMAT_BUFFER:
      381     3266    3           DO;

   3266  4 000607                       FORMAT_BUFF* null
      382     3267    3             IF FPT_PROMPT.V.DCB# ~= 0

   3267  4 000607   000006 221000 2                  LDX1    FPT_PROMPT+6
         4 000610   000624 600000 4                  TZE     OUTPUT_BUFFER_ONLY

      383     3268    3             THEN
      384     3269    3   OUTPUT_NOTHING:
      385     3270    4               DO;
PL6.E3A0      #002=VDP$WFORMAT_RECORD File=VDP$WINDOW_I_O.:VDA5TSI               FRI 07/04/97 11:39 Page:63

   3270  4 000611                       OUTPUT_NOTH* null
      386     3271    4                 FPT_PROMPT.PROMPT_ = VECTOR ( VLP_PROMPT_DOT );

   3271  4 000611   000016 237000 5                  LDAQ    14
         4 000612   000004 757000 2                  STAQ    FPT_PROMPT+4

      387     3272
      388     3273    4                 SUBSTR ( VD$BUFFER.BYTES,

   3273  4 000613   200006 471500                    LDP1    KEY_AND_BUFFER$,,AUTO
         4 000614   100002 220100                    LDX0    2,,PR1
         4 000615   100000 236007                    LDQ     32768,DL
         4 000616   100002 552110                    STBQ    2,'10'O,PR1

      389     3274    4                   0,
      390     3275    4                   1 ) = '@';
      391     3276
      392     3277    4                 CALL M$PROMPT ( FPT_PROMPT )

   3277  4 000617   000000 630400 2                  EPPR0   FPT_PROMPT
         4 000620   560002 713400                    CLIMB   alt,+57346
         4 000621   401000 401760                    pmme    nvectors=3
         4 000622   000647 702000 4                  TSX2    PROMPT_FAILED

      393     3278    4                   ALTRET ( PROMPT_FAILED );
      394     3279
      395     3280    4                 EXIT OUTPUT_KEY_AND_OR_BUFFER;

   3280  4 000623   000646 710000 4                  TRA     s:3297

      396     3281    4               END OUTPUT_NOTHING;
      397     3282    3             ELSE
      398     3283    3   OUTPUT_BUFFER_ONLY:
      399     3284    4               DO;

   3284  4 000624                       OUTPUT_BUFF* null
PL6.E3A0      #002=VDP$WFORMAT_RECORD File=VDP$WINDOW_I_O.:VDA5TSI               FRI 07/04/97 11:39 Page:64
      400     3285    4                 FPT_WRITE.BUF_ = VECTOR ( RGET_NODE_DESC.DATA$ -> VD$BUFFER.BYTES );

   3285  4 000624   000004 471500                    LDP1    4,,PR0
         4 000625   100002 222100                    LDX2    2,,PR1
         4 000626   000000 635012                    EAA     0,X2
         4 000627   000002 731000                    ARS     2
         4 000630   000140 135007                    SBLA    96,DL
         4 000631   200032 451500                    STP1    @LIT+1,,AUTO
         4 000632   200032 236100                    LDQ     @LIT+1,,AUTO
         4 000633   000002 036000 5                  ADLQ    2
         4 000634   000016 757000 2                  STAQ    FPT_WRITE+4

      401     3286    4                 IF DATA$ -> VD$BUFFER.LENGTH# = 0

   3286  4 000635   200011 471500                    LDP1    DATA$,,AUTO
         4 000636   100002 220100                    LDX0    2,,PR1
         4 000637   000642 601000 4                  TNZ     s:3293

      402     3287    4                 THEN
      403     3288    4                   FPT_WRITE.BUF_ = FPT_WRITE.KEY_; /* Handy VECTOR(NIL) */

   3288  4 000640   000014 237000 2                  LDAQ    FPT_WRITE+2
         4 000641   000016 757000 2                  STAQ    FPT_WRITE+4

      404     3289    4               END OUTPUT_BUFFER_ONLY;

      405     3290    3           END FORMAT_BUFFER;

      406     3291
      407     3292
      408     3293    2         CALL M$WRITE ( FPT_WRITE ) ALTRET ( WRITE_FAILED );

   3293  4 000642   000012 630400 2                  EPPR0   FPT_WRITE
         4 000643   440001 713400                    CLIMB   alt,write
         4 000644   401400 401760                    pmme    nvectors=4
         4 000645   000647 702000 4                  TSX2    PROMPT_FAILED

PL6.E3A0      #002=VDP$WFORMAT_RECORD File=VDP$WINDOW_I_O.:VDA5TSI               FRI 07/04/97 11:39 Page:65
      409     3294
      410     3295    2       END OUTPUT_KEY_AND_OR_BUFFER;

      411     3296
      412     3297    1       RETURN;

   3297  4 000646   000000 702200 xent               TSX2  ! X66_ARET

   3297  4 000647                       PROMPT_FAIL* null
   3297  4 000647                       SINPUT_FAIL* null
   3297  4 000647                       WRITE_FAILED null
      413     3298
      414     3299    1   PROMPT_FAILED:;
      415     3300    1   SINPUT_FAILED:;
      416     3301    1   WRITE_FAILED:;
      417     3302    1       CALL VDG$MONERR;

   3302  4 000647   000002 631400 xsym               EPPR1   B_VECTNIL+2
         4 000650   000000 701000 xent               TSX1    VDG$MONERR
         4 000651   000000 011000                    NOP     0

      418     3303
      419     3304    1   OALLOC_FAILED:
      420     3305    1       ALTRETURN;

   3305  4 000652   000000 702200 xent  OALLOC_FAIL* TSX2  ! X66_AALT

      421     3306
      422     3307        %EJECT;
PL6.E3A0      #002=VDP$WFORMAT_RECORD File=VDP$WINDOW_I_O.:VDA5TSI               FRI 07/04/97 11:39 Page:66
      423     3308    1   FORMAT_STRING: PROC (PARM);

   3308  4 000653   200020 741300       FORMAT_STRI* STX1  ! CURRENT_KEY$+1,,AUTO

      424     3309        /*D* NAME: FORMAT_STRING.
      425     3310             Formats the key or buffer string parameter as a quote string,
      426     3311             expanding unprintables as control-values and doubling quotes.
      427     3312        */
      428     3313
      429     3314        %INCLUDE XU_MACRO_C;
      430     6408        %INCLUDE XU_SUBS_C;
      431     6500        %P$NODE (NAME=ASP_FUNKEY, STCLASS=SYMREF);
      432     6594        %P$NODE (NAME=HEX, STCLASS=SYMREF);
      433     6688        %P$NODE (NAME=NOD, STCLASS=BASED);
      434     6782        %P$LIT (STCLASS=BASED);
      435     6835    2     DCL PARM(0:0) CHAR(1) CALIGNED;
      436     6836
      437     6837    2     DCL MAX_FROM SBIN;
      438     6838    2     DCL STRING_START SBIN;
      439     6839    2     DCL K SBIN;
      440     6840    2     DCL LIT$ PTR;
      441     6841    2     DCL CURR_FROM SBIN;
      442     6842    2     DCL CURR_CHAR UBIN;
      443     6843    2     DCL 1 CURR REDEF CURR_CHAR,
      444     6844    2           2 * BIT(27),
      445     6845    2           2 CHR CHAR(1);
      446     6846
      447     6847    3       IF ACTUAL_DATA_INDEX = 1 THEN DO; /* Must be a keyin name (key) */

   6847  4 000654   200005 235100                    LDA     ACTUAL_DATA_INDEX,,AUTO
         4 000655   000001 115007                    CMPA    1,DL
         4 000656   000667 601000 4                  TNZ     s:6851

      448     6848    3           CURR_FROM = 5;

   6848  4 000657   000005 236007                    LDQ     5,DL
         4 000660   200026 756100                    STQ     CURR_FROM,,AUTO
PL6.E3A0      #002=VDP$WFORMAT_RECORD File=VDP$WINDOW_I_O.:VDA5TSI               FRI 07/04/97 11:39 Page:67

      449     6849    3           MAX_FROM = ADDR (PARM(4)) -> VD$TEXTC.LENGTH# + 5;

   6849  4 000661   200021 470500                    LDP0    @PARM,,AUTO
         4 000662   000001 236100                    LDQ     1,,PR0
         4 000663   000033 772000                    QRL     27
         4 000664   000005 036007                    ADLQ    5,DL
         4 000665   200022 756100                    STQ     MAX_FROM,,AUTO

      450     6850    3         END; ELSE DO;

   6850  4 000666   000676 710000 4                  TRA     s:6855

      451     6851    3           CURR_FROM = LENGTHC (VD$BUFFER_HEADER);

   6851  4 000667   000012 236007                    LDQ     10,DL
         4 000670   200026 756100                    STQ     CURR_FROM,,AUTO

      452     6852    3           MAX_FROM = CURR_FROM + ADDR(PARM) -> VD$BUFFER.LENGTH#;

   6852  4 000671   200021 470500                    LDP0    @PARM,,AUTO
         4 000672   000002 236100                    LDQ     2,,PR0
         4 000673   000022 732000                    QRS     18
         4 000674   200026 036100                    ADLQ    CURR_FROM,,AUTO
         4 000675   200022 756100                    STQ     MAX_FROM,,AUTO

      453     6853    3         END;

      454     6854
      455     6855    2       CURR_CHAR = 0;

   6855  4 000676   200027 450100                    STZ     CURR_CHAR,,AUTO

      456     6856    2       SUBSTR (VD$BUFFER.BYTES, ACTUAL_DATA_INDEX, 1) = '''';

   6856  4 000677   200006 471500                    LDP1    KEY_AND_BUFFER$,,AUTO
         4 000700   100002 220100                    LDX0    2,,PR1
PL6.E3A0      #002=VDP$WFORMAT_RECORD File=VDP$WINDOW_I_O.:VDA5TSI               FRI 07/04/97 11:39 Page:68
         4 000701   040105 100400                    MLR     fill='040'O
         4 000702   000020 000001 5                  ADSC9   16                       cn=0,n=1
         4 000703   100002 400001                    ADSC9   2,A,PR1                  cn=2,n=1

      457     6857    2       STRING_START = 0;

   6857  4 000704   200023 450100                    STZ     STRING_START,,AUTO

      458     6858    3       DO WHILE CURR_FROM < MAX_FROM;

   6858  4 000705   200026 116100                    CMPQ    CURR_FROM,,AUTO
         4 000706   001051 604400 4                  TMOZ    s:6887

      459     6859    3         ACTUAL_DATA_INDEX = ACTUAL_DATA_INDEX + 1;

   6859  4 000707   200005 054100                    AOS     ACTUAL_DATA_INDEX,,AUTO

      460     6860    3         CURR.CHR = PARM (CURR_FROM);

   6860  4 000710   200021 470500                    LDP0    @PARM,,AUTO
         4 000711   200026 235100                    LDA     CURR_FROM,,AUTO
         4 000712   040100 100505                    MLR     fill='040'O
         4 000713   000000 000001                    ADSC9   0,A,PR0                  cn=0,n=1
         4 000714   200027 600001                    ADSC9   CURR_CHAR,,AUTO          cn=3,n=1

      461     6861    3         SUBSTR (VD$BUFFER.BYTES, ACTUAL_DATA_INDEX, 1) = CURR.CHR;

   6861  4 000715   200006 471500                    LDP1    KEY_AND_BUFFER$,,AUTO
         4 000716   100002 220100                    LDX0    2,,PR1
         4 000717   200005 236100                    LDQ     ACTUAL_DATA_INDEX,,AUTO
         4 000720   040106 100500                    MLR     fill='040'O
         4 000721   200027 600001                    ADSC9   CURR_CHAR,,AUTO          cn=3,n=1
         4 000722   100002 400001                    ADSC9   2,Q,PR1                  cn=2,n=1

      462     6862    3         CURR_FROM = CURR_FROM + 1;

   6862  4 000723   200026 054100                    AOS     CURR_FROM,,AUTO
PL6.E3A0      #002=VDP$WFORMAT_RECORD File=VDP$WINDOW_I_O.:VDA5TSI               FRI 07/04/97 11:39 Page:69

      463     6863    4         IF CURR_CHAR = ASCBIN('''') THEN DO;

   6863  4 000724   200027 235100                    LDA     CURR_CHAR,,AUTO
         4 000725   000047 115007                    CMPA    39,DL
         4 000726   000735 601000 4                  TNZ     s:6867

      464     6864    4             SUBSTR (VD$BUFFER.BYTES, ACTUAL_DATA_INDEX+1, 1) = CURR.CHR;

   6864  4 000727   100002 220100                    LDX0    2,,PR1
         4 000730   200005 236100                    LDQ     ACTUAL_DATA_INDEX,,AUTO
         4 000731   040106 100500                    MLR     fill='040'O
         4 000732   200027 600001                    ADSC9   CURR_CHAR,,AUTO          cn=3,n=1
         4 000733   100002 600001                    ADSC9   2,Q,PR1                  cn=3,n=1

      465     6865    4             ACTUAL_DATA_INDEX = ACTUAL_DATA_INDEX + 1;

   6865  4 000734   200005 054100                    AOS     ACTUAL_DATA_INDEX,,AUTO

      466     6866    4           END;

      467     6867    3         IF CURR_CHAR < 32 THEN CALL PUTLIT (HEX.SUBNDS$(CURR_CHAR)->P$LIT);

   6867  4 000735   000040 115007                    CMPA    32,DL
         4 000736   000744 603000 4                  TRC     s:6868

   6867  4 000737   000001 473405 xsym               LDP3    HEX+1,AL
         4 000740   200031 453500                    STP3    CURR_CHAR+2,,AUTO
         4 000741   001075 701000 4                  TSX1    PUTLIT
         4 000742   000000 011000                    NOP     0
         4 000743   001046 710000 4                  TRA     s:6886

      468     6868    3         ELSE IF CURR_CHAR = 127 THEN CALL PUTLIT (HEX.SUBNDS$(33)->P$LIT);

   6868  4 000744   000177 115007                    CMPA    127,DL
         4 000745   000753 601000 4                  TNZ     s:6869

PL6.E3A0      #002=VDP$WFORMAT_RECORD File=VDP$WINDOW_I_O.:VDA5TSI               FRI 07/04/97 11:39 Page:70
   6868  4 000746   000042 236000 xsym               LDQ     HEX+34
         4 000747   200031 756100                    STQ     CURR_CHAR+2,,AUTO
         4 000750   001075 701000 4                  TSX1    PUTLIT
         4 000751   000000 011000                    NOP     0
         4 000752   001046 710000 4                  TRA     s:6886

      469     6869    3           ELSE IF CURR_CHAR>127 THEN

   6869  4 000753   000200 115007                    CMPA    128,DL
         4 000754   001044 602000 4                  TNC     s:6885

      470     6870    4               IF CURR_CHAR<256 OR STRING_START>0 THEN DO;

   6870  4 000755   000400 115007                    CMPA    256,DL
         4 000756   000761 602000 4                  TNC     s:6871
         4 000757   200023 236100                    LDQ     STRING_START,,AUTO
         4 000760   001002 604400 4                  TMOZ    s:6877

      471     6871    4                   SUBSTR (VD$BUFFER.BYTES, ACTUAL_DATA_INDEX, 7) = '%V(000)';

   6871  4 000761   100002 220100                    LDX0    2,,PR1
         4 000762   200005 236100                    LDQ     ACTUAL_DATA_INDEX,,AUTO
         4 000763   040106 100400                    MLR     fill='040'O
         4 000764   000020 000007 3                  ADSC9   CANNED_FORMATTED_NUMBER_KEY+5 cn=0,n=7
         4 000765   100002 400007                    ADSC9   2,Q,PR1                  cn=2,n=7

      472     6872    4                   CALL BINCHAR (SUBSTR (VD$BUFFER.BYTES, ACTUAL_DATA_INDEX+3, 3),

   6872  4 000766   100002 220100                    LDX0    2,,PR1
         4 000767   000044 773000                    LRL     36
         4 000770   200032 757100                    STAQ    @LIT+1,,AUTO
         4 000771   200005 235100                    LDA     ACTUAL_DATA_INDEX,,AUTO
         4 000772   000105 301500                    BTD
         4 000773   200032 000010                    NDSC9   @LIT+1,,AUTO             cn=0,s=lsgnf,sf=0,n=8
         4 000774   100003 230003                    NDSC9   3,A,PR1                  cn=1,s=nosgn,sf=0,n=3

      473     6873    4                     CURR_CHAR);
PL6.E3A0      #002=VDP$WFORMAT_RECORD File=VDP$WINDOW_I_O.:VDA5TSI               FRI 07/04/97 11:39 Page:71
      474     6874    4                   ACTUAL_DATA_INDEX = ACTUAL_DATA_INDEX + 6;

   6874  4 000775   000006 236007                    LDQ     6,DL
         4 000776   200005 056100                    ASQ     ACTUAL_DATA_INDEX,,AUTO

      475     6875    4                   STRING_START = 2;

   6875  4 000777   000002 235007                    LDA     2,DL
         4 001000   200023 755100                    STA     STRING_START,,AUTO

      476     6876    4                 END;

   6876  4 001001   001046 710000 4                  TRA     s:6886

      477     6877    4               ELSE DO K=0 TO ASP_FUNKEY.NSUBNDS-1;

   6877  4 001002   200024 450100                    STZ     K,,AUTO
         4 001003   001036 710000 4                  TRA     s:6884+1

      478     6878    5                   IF ASP_FUNKEY.SUBNDS$(K)->P$LIT.CODE = CURR_CHAR-256 THEN DO;

   6878  4 001004   200024 720100                    LXL0    K,,AUTO
         4 001005   000001 470410 xsym               LDP0    ASP_FUNKEY+1,X0
         4 001006   200027 235100                    LDA     CURR_CHAR,,AUTO
         4 001007   000400 135007                    SBLA    256,DL
         4 001010   200032 755100                    STA     @LIT+1,,AUTO
         4 001011   000000 236100                    LDQ     0,,PR0
         4 001012   177777 376007                    ANQ     65535,DL
         4 001013   200032 116100                    CMPQ    @LIT+1,,AUTO
         4 001014   001035 601000 4                  TNZ     s:6884

      479     6879    5                       IF ASP_FUNKEY.SUBNDS$(K)->P$LIT.TYPE = %TYPE_LITERAL# THEN

   6879  4 001015   000000 236100                    LDQ     0,,PR0
         4 001016   700000 376003                    ANQ     -32768,DU
         4 001017   500000 116003                    CMPQ    -98304,DU
         4 001020   001025 601000 4                  TNZ     s:6881
PL6.E3A0      #002=VDP$WFORMAT_RECORD File=VDP$WINDOW_I_O.:VDA5TSI               FRI 07/04/97 11:39 Page:72

      480     6880    5                         CALL PUTLIT (ASP_FUNKEY.SUBNDS$(K)->P$LIT);

   6880  4 001021   200031 450500                    STP0    CURR_CHAR+2,,AUTO
         4 001022   001075 701000 4                  TSX1    PUTLIT
         4 001023   000000 011000                    NOP     0
         4 001024   001031 710000 4                  TRA     s:6882

      481     6881    5                      ELSE CALL PUTLIT (ASP_FUNKEY.SUBNDS$(K)->NOD.SUBNDS$(0)->P$LIT);

   6881  4 001025   000001 471500                    LDP1    1,,PR0
         4 001026   200031 451500                    STP1    CURR_CHAR+2,,AUTO
         4 001027   001075 701000 4                  TSX1    PUTLIT
         4 001030   000000 011000                    NOP     0

      482     6882    5                       K = ASP_FUNKEY.NSUBNDS;

   6882  4 001031   000000 236000 xsym               LDQ     ASP_FUNKEY
         4 001032   000020 772000                    QRL     16
         4 001033   000777 376007                    ANQ     511,DL
         4 001034   200024 756100                    STQ     K,,AUTO

      483     6883    5                     END;

      484     6884    4                 END;

   6884  4 001035   200024 054100                    AOS     K,,AUTO
         4 001036   000000 236000 xsym               LDQ     ASP_FUNKEY
         4 001037   000020 772000                    QRL     16
         4 001040   000777 376007                    ANQ     511,DL
         4 001041   200024 116100                    CMPQ    K,,AUTO
         4 001042   001004 605400 4                  TPNZ    s:6878
         4 001043   001046 710000 4                  TRA     s:6886

      485     6885    3             ELSE STRING_START = 2;

   6885  4 001044   000002 236007                    LDQ     2,DL
PL6.E3A0      #002=VDP$WFORMAT_RECORD File=VDP$WINDOW_I_O.:VDA5TSI               FRI 07/04/97 11:39 Page:73
         4 001045   200023 756100                    STQ     STRING_START,,AUTO

      486     6886    3       END;

   6886  4 001046   200026 236100                    LDQ     CURR_FROM,,AUTO
         4 001047   200022 116100                    CMPQ    MAX_FROM,,AUTO
         4 001050   000707 604000 4                  TMI     s:6859

      487     6887    3       IF STRING_START ~= 1 THEN DO;

   6887  4 001051   200023 235100                    LDA     STRING_START,,AUTO
         4 001052   000001 115007                    CMPA    1,DL
         4 001053   001065 600000 4                  TZE     s:6892

      488     6888    3           SUBSTR (VD$BUFFER.BYTES, ACTUAL_DATA_INDEX+1, 1) = '''';

   6888  4 001054   200006 470500                    LDP0    KEY_AND_BUFFER$,,AUTO
         4 001055   000002 220100                    LDX0    2,,PR0
         4 001056   200005 236100                    LDQ     ACTUAL_DATA_INDEX,,AUTO
         4 001057   040106 100400                    MLR     fill='040'O
         4 001060   000020 000001 5                  ADSC9   16                       cn=0,n=1
         4 001061   000002 600001                    ADSC9   2,Q,PR0                  cn=3,n=1

      489     6889    3           ACTUAL_DATA_INDEX = ACTUAL_DATA_INDEX + 1;

   6889  4 001062   200005 054100                    AOS     ACTUAL_DATA_INDEX,,AUTO

      490     6890    3           ACTUAL_DATA_INDEX = ACTUAL_DATA_INDEX + 1;

   6890  4 001063   200005 054100                    AOS     ACTUAL_DATA_INDEX,,AUTO

      491     6891    3         END;

   6891  4 001064   001073 710000 4                  TRA     s:6893

      492     6892    2       ELSE SUBSTR (VD$BUFFER.BYTES, ACTUAL_DATA_INDEX, 1) = ' ';

PL6.E3A0      #002=VDP$WFORMAT_RECORD File=VDP$WINDOW_I_O.:VDA5TSI               FRI 07/04/97 11:39 Page:74
   6892  4 001065   200006 470500                    LDP0    KEY_AND_BUFFER$,,AUTO
         4 001066   000002 220100                    LDX0    2,,PR0
         4 001067   200005 236100                    LDQ     ACTUAL_DATA_INDEX,,AUTO
         4 001070   040106 100400                    MLR     fill='040'O
         4 001071   000035 000001 xsym               ADSC9   B_VECTNIL+29             cn=0,n=1
         4 001072   000002 400001                    ADSC9   2,Q,PR0                  cn=2,n=1

      493     6893    2       RETURN;

   6893  4 001073   200020 221300                    LDX1  ! CURRENT_KEY$+1,,AUTO
         4 001074   000001 702211                    TSX2  ! 1,X1

      494     6894
      495     6895    2   PUTLIT: PROC (LIT);

   6895  4 001075   200030 741300       PUTLIT       STX1  ! CURR_CHAR+1,,AUTO

      496     6896        %P$LIT (NAME=LIT, STCLASS=);
      497     6949
      498     6950    3       IF STRING_START > 1 THEN

   6950  4 001076   200023 235100                    LDA     STRING_START,,AUTO
         4 001077   000001 115007                    CMPA    1,DL
         4 001100   001110 604400 4                  TMOZ    s:6952

      499     6951    3         SUBSTR (VD$BUFFER.BYTES, ACTUAL_DATA_INDEX, 1) = '''';

   6951  4 001101   200006 470500                    LDP0    KEY_AND_BUFFER$,,AUTO
         4 001102   000002 220100                    LDX0    2,,PR0
         4 001103   200005 236100                    LDQ     ACTUAL_DATA_INDEX,,AUTO
         4 001104   040106 100400                    MLR     fill='040'O
         4 001105   000020 000001 5                  ADSC9   16                       cn=0,n=1
         4 001106   000002 400001                    ADSC9   2,Q,PR0                  cn=2,n=1
         4 001107   001112 710000 4                  TRA     s:6954

      500     6952    3       ELSE ACTUAL_DATA_INDEX = ACTUAL_DATA_INDEX - 2;

PL6.E3A0      #002=VDP$WFORMAT_RECORD File=VDP$WINDOW_I_O.:VDA5TSI               FRI 07/04/97 11:39 Page:75
   6952  4 001110   000002 336007                    LCQ     2,DL
         4 001111   200005 056100                    ASQ     ACTUAL_DATA_INDEX,,AUTO

      501     6953
      502     6954    3       SUBSTR (VD$BUFFER.BYTES, ACTUAL_DATA_INDEX + 1, 1) = '<';

   6954  4 001112   200006 470500                    LDP0    KEY_AND_BUFFER$,,AUTO
         4 001113   000002 220100                    LDX0    2,,PR0
         4 001114   200005 236100                    LDQ     ACTUAL_DATA_INDEX,,AUTO
         4 001115   040106 100400                    MLR     fill='040'O
         4 001116   000021 000001 5                  ADSC9   17                       cn=0,n=1
         4 001117   000002 600001                    ADSC9   2,Q,PR0                  cn=3,n=1

      503     6955    3       K = LIT.ABREV;

   6955  4 001120   200031 471500                    LDP1    @LIT,,AUTO
         4 001121   100000 236100                    LDQ     0,,PR1
         4 001122   000020 772000                    QRL     16
         4 001123   000377 376007                    ANQ     255,DL
         4 001124   200024 756100                    STQ     K,,AUTO

      504     6956    3       IF K = 0 THEN K = LIT.COUNT;

   6956  4 001125   001131 601000 4                  TNZ     s:6957

   6956  4 001126   100001 236100                    LDQ     1,,PR1
         4 001127   000033 772000                    QRL     27
         4 001130   200024 756100                    STQ     K,,AUTO

      505     6957    3       SUBSTR (VD$BUFFER.BYTES, ACTUAL_DATA_INDEX + 2, K) =

   6957  4 001131   000002 220100                    LDX0    2,,PR0
         4 001132   000000 621006                    EAX1    0,QL
         4 001133   200024 722100                    LXL2    K,,AUTO
         4 001134   200005 236100                    LDQ     ACTUAL_DATA_INDEX,,AUTO
         4 001135   040146 100540                    MLR     fill='040'O
         4 001136   100001 200011                    ADSC9   1,,PR1                   cn=1,n=*X1
PL6.E3A0      #002=VDP$WFORMAT_RECORD File=VDP$WINDOW_I_O.:VDA5TSI               FRI 07/04/97 11:39 Page:76
         4 001137   000003 000012                    ADSC9   3,Q,PR0                  cn=0,n=*X2

      506     6958    3         SUBSTR (LIT.TEXT, 0, K);
      507     6959    3       ACTUAL_DATA_INDEX = ACTUAL_DATA_INDEX + K + 3;

   6959  4 001140   200005 236100                    LDQ     ACTUAL_DATA_INDEX,,AUTO
         4 001141   200024 036100                    ADLQ    K,,AUTO
         4 001142   000003 036007                    ADLQ    3,DL
         4 001143   200005 756100                    STQ     ACTUAL_DATA_INDEX,,AUTO

      508     6960    3       SUBSTR (VD$BUFFER.BYTES, ACTUAL_DATA_INDEX - 1, 2) = '>''';

   6960  4 001144   000002 220100                    LDX0    2,,PR0
         4 001145   040106 100400                    MLR     fill='040'O
         4 001146   000022 000002 3                  ADSC9   CANNED_FORMATTED_NUMBER_KEY+7 cn=0,n=2
         4 001147   000002 200002                    ADSC9   2,Q,PR0                  cn=1,n=2

      509     6961    3       STRING_START = 1;

   6961  4 001150   000001 236007                    LDQ     1,DL
         4 001151   200023 756100                    STQ     STRING_START,,AUTO

      510     6962    3       RETURN;

   6962  4 001152   200030 221300                    LDX1  ! CURR_CHAR+1,,AUTO
         4 001153   000001 702211                    TSX2  ! 1,X1
      511     6963    3   END PUTLIT;
      512     6964    2   END FORMAT_STRING;
      513     6965    1   END VDP$WFORMAT_RECORD;
      514     6966        %EOD;

PL6.E3A0      #002=VDP$WFORMAT_RECORD File=VDP$WINDOW_I_O.:VDA5TSI               FRI 07/04/97 11:39 Page:77
--  Include file information  --

   XU_SUBS_C.:LIBRARY  is referenced.
   XU_MACRO_C.:LIBRARY  is referenced.
   VD_MACROS_M.:VDA5TOU  is referenced.
   CP_6.:LIBRARY  cannot be made into a system file and is referenced.
   B$JIT_C.:E04TOU  was found in the system file and is never referenced.
   CP_6_C.:E04TOU  was found in the system file and is referenced.
      No diagnostics issued in procedure VDP$WFORMAT_RECORD.
PL6.E3A0      #002=VDP$WFORMAT_RECORD File=VDP$WINDOW_I_O.:VDA5TSI               FRI 07/04/97 11:39 Page:78

 **** Variables and constants ****

  ****  Section 002  Data  VDP$WFORMAT_RECORD

  ****  Scalars and arrays  ****
OctLoc.c.b A Datatyp(siz) R M Lvl/name                 OctLoc.c.b A Datatyp(siz) R M Lvl/name

     0-0-0/d STRC(360)   r     1 FPT_PROMPT                12-0-0/d STRC(432)   r     1 FPT_WRITE

  ****  Section 003 RoData VDP$WFORMAT_RECORD

  ****  Scalars and arrays  ****
OctLoc.c.b A Datatyp(siz) R M Lvl/name                 OctLoc.c.b A Datatyp(siz) R M Lvl/name

    13-0-0/c CHAR(10)    r     1 CANNED_FORMATTED_NUMBER_KEY
     1-0-0/c CHAR(38)    r     1 INDX_TXT                   0-0-0/c CHAR(2)     r     1 VLP_PROMPT_DOT

  ****  Auto variables  ****

  ****  Scalars and arrays  ****
OctLoc.c.b A Datatyp(siz) R M Lvl/name                 OctLoc.c.b A Datatyp(siz) R M Lvl/name

     4-0-0/w PTR         r     1 @FPT_SINPUT               31-0-0/w PTR         r     1 @LIT
    21-0-0/w PTR         r     1 @PARM                      3-0-0/w PTR         r     1 @RGET_NODE_DESC
     5-0-0/w SBIN        r     1 ACTUAL_DATA_INDEX         10-0-0/w PTR         r     1 BLOCK$
    27-0-0/w STRC        r     1 CURR                      17-0-0/w PTR         r     1 CURRENT_KEY$
    27-0-0/w UBIN        r     1 CURR_CHAR                 26-0-0/w SBIN        r     1 CURR_FROM
    11-0-0/w PTR         r     1 DATA$                      7-0-0/w SBIN        r     1 DATA_CLS
    13-0-0/w UBIN        r     1 DECIMAL_POINT_INDEX       14-0-0/c CHAR(10)    r     1 FORMATTED_NUMBER_KEY
    *0-0-0/d STRC(288)   r     1 FPT_SINPUT                12-0-0/w SBIN        r     1 INDX
    24-0-0/w SBIN        r     1 K                          6-0-0/w PTR         r     1 KEY_AND_BUFFER$
     5-0-0/w SBIN        r     1 KEY_FORMAT_END_INDEX      *0-0-0/w STRC(63)    r     1 LIT
    22-0-0/w SBIN        r     1 MAX_FROM                  *0-0-0/c CHAR        r     1 PARM(0:0)
    *0-0-0/w STRC(216)   r     1 RGET_NODE_DESC            23-0-0/w SBIN        r     1 STRING_START

  ****  SYMREF variables  ****

PL6.E3A0      #002=VDP$WFORMAT_RECORD File=VDP$WINDOW_I_O.:VDA5TSI               FRI 07/04/97 11:39 Page:79
  ****  Scalars and arrays  ****
OctLoc.c.b A Datatyp(siz) R M Lvl/name                 OctLoc.c.b A Datatyp(siz) R M Lvl/name

     0-0-0/w STRC(72)    r     1 ASP_FUNKEY                 0-0-0/w STRC(72)    r     1 HEX
     0-0-0/w PTR         r     1 VDP_KEY$                   0-0-0/w PTR         r     1 VDP_KEY_AND_BUFFER$

  ****  BASED and DCB variables  ****

  ****  Scalars and arrays  ****
OctLoc.c.b A Datatyp(siz) R M Lvl/name                 OctLoc.c.b A Datatyp(siz) R M Lvl/name

     0-0-0N  NULL        r     1 M$LO                       0-0-0N  NULL        r     1 M$UC
     0-0-0/w STRC(72)    r     1 NOD                        0-0-0/w STRC(63)    r     1 P$LIT
     0-0-0/w STRC(936)   r     1 VD$BLOCK_DESC              0-0-0/w ASTR(90)    r     1 VD$BUFFER
     0-0-0/w STRC(90)    r     1 VD$BUFFER_HEADER           0-0-0/w STRC(72)    r     1 VD$KEY
     0-0-0/w STRC(252)   r     1 VD$NAME_SPEC               0-0-0/w STRC(144)   r     1 VD$NUMBER
     0-0-0/w STRC(144)   r     1 VD$POINTER                 0-0-0/w ASTR(9)     r     1 VD$TEXTC
     0-0-0/w ASTR(81)    r     1 VD$TEXTC_REMOTE            0-0-0/w STRC(900)   r     1 WINDOW$SPEC


   Procedure VDP$WFORMAT_RECORD requires 620 words for executable code.
   Procedure VDP$WFORMAT_RECORD requires 32 words of local(AUTO) storage.
PL6.E3A0      #002=VDP$WFORMAT_RECORD File=VDP$WINDOW_I_O.:VDA5TSI               FRI 07/04/97 11:39 Page:80
          *** CROSS REFERENCE LISTING ***
**     DENOTES     IDENTIFIER DEFINITION
<<                 IDENTIFIER'S VALUE SET
>>                 IDENTIFIER'S VALUE USED
<>                 IDENTIFIER SET AND/OR USED
--                 IDENTIFIER REFERENCED
PL6.E3A0      #002=VDP$WFORMAT_RECORD File=VDP$WINDOW_I_O.:VDA5TSI               FRI 07/04/97 11:39 Page:81
          MINI XREF LISTING

ACTUAL_DATA_INDEX
      3019**DCL      3020--REDEF    3119<<ASSIGN   3142<<ASSIGN   3156<<ASSIGN   3157>>ASSIGN   3167>>ASSIGN
      3209<>CALL     3209<>CALL     3216<>CALL     3216<>CALL     3223<>CALL     3223<>CALL     3234<>CALL
      3234<>CALL     3242>>ASSIGN   3246<<ASSIGN   3246>>ASSIGN   3250>>ASSIGN   6847>>IF       6856>>ASSIGN
      6859<<ASSIGN   6859>>ASSIGN   6861>>ASSIGN   6864>>ASSIGN   6865<<ASSIGN   6865>>ASSIGN   6871>>ASSIGN
      6872>>CALLBLT  6874<<ASSIGN   6874>>ASSIGN   6888>>ASSIGN   6889<<ASSIGN   6889>>ASSIGN   6890<<ASSIGN
      6890>>ASSIGN   6892>>ASSIGN   6951>>ASSIGN   6952<<ASSIGN   6952>>ASSIGN   6954>>ASSIGN   6957>>ASSIGN
      6959<<ASSIGN   6959>>ASSIGN   6960>>ASSIGN
ASP_FUNKEY.NSUBNDS IN PROCEDURE FORMAT_STRING
      6576**DCL      6877>>DOINDEX  6882>>ASSIGN
ASP_FUNKEY.SUBNDS$ IN PROCEDURE FORMAT_STRING
      6584**DCL      6878>>IF       6879>>IF       6880>>CALL     6881>>CALL
B$ALT.CODE
       100**DCL       100--REDEF     101--REDEF     101--REDEF
B$ALT.ERR.ERR#
       102**DCL       102--REDEF
B$ALT.EVID
       101**DCL       101--REDEF     101--REDEF
BLOCK$
      3023**DCL      3205<<ASSIGN   3207<<ASSIGN   3209>>CALL
CANNED_FORMATTED_NUMBER_KEY
      3016**DCL      3130>>ASSIGN
CURR.CHR IN PROCEDURE FORMAT_STRING
      6845**DCL      6860<<ASSIGN   6861>>ASSIGN   6864>>ASSIGN
CURRENT_KEY$
      3028**DCL      3044<<ASSIGN   3044<<ASSIGN   3056>>ASSIGN   3057>>ASSIGN   3057>>ASSIGN
CURR_CHAR IN PROCEDURE FORMAT_STRING
      6842**DCL      6843--REDEF    6855<<ASSIGN   6863>>IF       6867>>IF       6867>>CALL     6868>>IF
      6869>>IF       6870>>IF       6872>>CALLBLT  6878>>IF
CURR_FROM IN PROCEDURE FORMAT_STRING
      6841**DCL      6848<<ASSIGN   6851<<ASSIGN   6852>>ASSIGN   6858>>DOWHILE  6860>>ASSIGN   6862<<ASSIGN
      6862>>ASSIGN
PL6.E3A0      #002=VDP$WFORMAT_RECORD File=VDP$WINDOW_I_O.:VDA5TSI               FRI 07/04/97 11:39 Page:82
DATA$
      3024**DCL      3050<<ASSIGN   3147>>IF       3180>>ASSIGN   3205>>ASSIGN   3207>>ASSIGN   3216>>CALL
      3231>>CALL     3231>>CALL     3234>>CALL     3246>>ASSIGN   3253>>IF       3255>>IF       3257<<ASSIGN
      3257>>ASSIGN   3286>>IF
DATA_CLS
      3022**DCL      3180<<ASSIGN   3182<<ASSIGN   3184<<ASSIGN   3187>>IF       3188<<ASSIGN   3191>>IF
      3193<<ASSIGN   3196<<ASSIGN   3199<<ASSIGN   3202>>DOSELCT  3204>>IF       3234<>CALL
DECIMAL_POINT_INDEX
      3026**DCL      3133<<CALLBLT  3137>>ASSIGN   3154<<ASSIGN   3156>>ASSIGN   3157>>ASSIGN   3157>>ASSIGN
      3259>>ASSIGN
FORMATTED_NUMBER_KEY
      3027**DCL      3107<<ASSIGN   3114>>ASSIGN   3125<<ASSIGN   3133>>CALLBLT  3137>>ASSIGN
FORMAT_STRING
      3308**PROC     3095--CALL     3231--CALL
FPT_PROMPT
       126**DCL      3172<>CALL     3277<>CALL
FPT_PROMPT.PROMPT_
       132**DCL      3167<<ASSIGN   3271<<ASSIGN
FPT_PROMPT.V
       134**DCL       128--DCLINIT
FPT_PROMPT.V.DCB#
       134**DCL      3048<<ASSIGN   3049<<ASSIGN   3052>>IF       3163>>IF       3267>>IF
FPT_SINPUT
      2447**DCL         9--PROC     3049--IF       3065<>CALL
FPT_SINPUT.BUF_
      2454**DCL      3061<<ASSIGN   3063<<ASSIGN
FPT_SINPUT.V.DCB#
      2459**DCL      3049>>ASSIGN
FPT_WRITE
       156**DCL      3256<>CALL     3293<>CALL
FPT_WRITE.BUF_
       156**DCL      3250<<ASSIGN   3285<<ASSIGN   3288<<ASSIGN
FPT_WRITE.KEY_
       156**DCL      3288>>ASSIGN
FPT_WRITE.STATION_
       158**DCL       158--REDEF
PL6.E3A0      #002=VDP$WFORMAT_RECORD File=VDP$WINDOW_I_O.:VDA5TSI               FRI 07/04/97 11:39 Page:83
FPT_WRITE.V
       159**DCL       156--DCLINIT
FPT_WRITE.V.DVBYTE.VFC#
       165**DCL       165--REDEF
HEX.SUBNDS$ IN PROCEDURE FORMAT_STRING
      6678**DCL      6867>>CALL     6868>>CALL
INDX
      3025**DCL      3051<<ASSIGN   3258<<ASSIGN   3258>>ASSIGN   3259>>ASSIGN
INDX_TXT
       170**DCL      3151>>ASSIGN   3259>>ASSIGN
K IN PROCEDURE FORMAT_STRING
      6839**DCL      6877<<DOINDEX  6878>>IF       6879>>IF       6880>>CALL     6881>>CALL     6882<<ASSIGN
      6955<<ASSIGN   6956>>IF       6956<<ASSIGN   6957>>ASSIGN   6957>>ASSIGN   6959>>ASSIGN
KEY_AND_BUFFER$
      3021**DCL      2644--IMP-PTR  3092<<ASSIGN   3097>>CALL     3097>>CALL     3107>>ASSIGN   3107>>ASSIGN
      3112>>ASSIGN   3112>>ASSIGN   3114>>ASSIGN   3114>>ASSIGN   3125>>ASSIGN   3125>>ASSIGN   3130>>ASSIGN
      3130>>ASSIGN   3137>>ASSIGN   3137>>ASSIGN   3151>>ASSIGN   3151>>ASSIGN   3157>>ASSIGN   3157>>ASSIGN
      3167>>ASSIGN   3167>>ASSIGN   3171>>ASSIGN   3171>>ASSIGN   3191>>IF       3191>>IF       3209>>CALL
      3209>>CALL     3216>>CALL     3216>>CALL     3223>>CALL     3223>>CALL     3234>>CALL     3234>>CALL
      3242>>ASSIGN   3242>>ASSIGN   3250>>ASSIGN   3250>>ASSIGN   3259>>ASSIGN   3259>>ASSIGN   3273>>ASSIGN
      3273>>ASSIGN   6856>>ASSIGN   6856>>ASSIGN   6861>>ASSIGN   6861>>ASSIGN   6864>>ASSIGN   6864>>ASSIGN
      6871>>ASSIGN   6871>>ASSIGN   6872>>CALLBLT  6872>>CALLBLT  6888>>ASSIGN   6888>>ASSIGN   6892>>ASSIGN
      6892>>ASSIGN   6951>>ASSIGN   6951>>ASSIGN   6954>>ASSIGN   6954>>ASSIGN   6957>>ASSIGN   6957>>ASSIGN
      6960>>ASSIGN   6960>>ASSIGN
KEY_FORMAT_END_INDEX
      3020**DCL      3091<<ASSIGN   3097<>CALL     3107>>ASSIGN   3114>>ASSIGN   3114>>ASSIGN   3125>>ASSIGN
      3137>>ASSIGN   3151>>ASSIGN   3152<<ASSIGN   3152>>ASSIGN   3154>>ASSIGN
LIT IN PROCEDURE PUTLIT
      6906**DCL      6895--PROC
LIT.ABREV IN PROCEDURE PUTLIT
      6930**DCL      6955>>ASSIGN
LIT.COUNT IN PROCEDURE PUTLIT
      6937**DCL      6956>>ASSIGN
LIT.TEXT IN PROCEDURE PUTLIT
      6940**DCL      6957>>ASSIGN
M$PROMPT
PL6.E3A0      #002=VDP$WFORMAT_RECORD File=VDP$WINDOW_I_O.:VDA5TSI               FRI 07/04/97 11:39 Page:84
        46**DCL-ENT  3172--CALL     3277--CALL
M$SINPUT
        49**DCL-ENT  3065--CALL
M$WRITE
        23**DCL-ENT  3256--CALL     3293--CALL
MAX_FROM IN PROCEDURE FORMAT_STRING
      6837**DCL      6849<<ASSIGN   6852<<ASSIGN   6858>>DOWHILE
NOD.SUBNDS$ IN PROCEDURE FORMAT_STRING
      6772**DCL      6881>>CALL
OALLOC_FAILED
      3305**LABEL    3079--CALLALT
OUTPUT_KEY_AND_OR_BUFFER
      3070**LABEL    3175--EXIT     3280--EXIT
P$LIT IN PROCEDURE FORMAT_STRING
      6792**DCL      6867<>CALL     6868<>CALL     6880<>CALL     6881<>CALL
P$LIT.CODE IN PROCEDURE FORMAT_STRING
      6822**DCL      6878>>IF
P$LIT.TYPE IN PROCEDURE FORMAT_STRING
      6796**DCL      6879>>IF
PARM IN PROCEDURE FORMAT_STRING
      6835**DCL      3308--PROC     6849--ASSIGN   6852--ASSIGN   6860>>ASSIGN
PROMPT_FAILED
      3297**LABEL    3172--CALLALT  3277--CALLALT
PUTLIT IN PROCEDURE FORMAT_STRING
      6895**PROC     6867--CALL     6868--CALL     6880--CALL     6881--CALL
RGET_NODE_DESC
      2397**DCL         9--PROC
RGET_NODE_DESC.DATA$
      2429**DCL      3050>>ASSIGN   3059>>IF       3063>>ASSIGN   3063>>ASSIGN   3242>>ASSIGN   3242>>ASSIGN
      3242>>ASSIGN   3285>>ASSIGN   3285>>ASSIGN
RGET_NODE_DESC.KEY
      2411**DCL      3095<>CALL     3097<>CALL
RGET_NODE_DESC.KEY.REP#
      2413**DCL      3044>>IF
RGET_NODE_DESC.KEY.TYPE#
      2413**DCL      3103>>IF       3121>>IF
PL6.E3A0      #002=VDP$WFORMAT_RECORD File=VDP$WINDOW_I_O.:VDA5TSI               FRI 07/04/97 11:39 Page:85
RGET_NODE_DESC.KEY.V$
      2413**DCL      3044>>ASSIGN   3044--ASSIGN
RGET_NODE_DESC.SPEC.TYPE#
      2427**DCL      3071>>IF       3093>>IF       3181>>IF       3183>>IF
RGET_NODE_DESC.SPEC.V$
      2427**DCL      2957--IMP-PTR  3093>>IF       3185>>DOCASE   3223>>CALL
SHOW_NEXT_ARRAY_ITEM
      3154**LABEL    3261--GOTO
SINPUT_FAILED
      3297**LABEL    3065--CALLALT
STRING_START IN PROCEDURE FORMAT_STRING
      6838**DCL      6857<<ASSIGN   6870>>IF       6875<<ASSIGN   6885<<ASSIGN   6887>>IF       6950>>IF
      6961<<ASSIGN
VD$BLOCK_DESC
      2480**DCL      3209<>CALL
VD$BUFFER
      2644**DCL      3231<>CALL
VD$BUFFER.BYTES
      2672**DCL      3063--ASSIGN   3088<<ASSIGN   3097<>CALL     3107>>ASSIGN   3112<<ASSIGN   3114<<ASSIGN
      3125>>ASSIGN   3130<<ASSIGN   3137<<ASSIGN   3151<<ASSIGN   3157<<ASSIGN   3167--ASSIGN   3171<<ASSIGN
      3191>>IF       3209<>CALL     3216<>CALL     3223<>CALL     3234<>CALL     3242<<ASSIGN   3242>>ASSIGN
      3250--ASSIGN   3259<<ASSIGN   3273<<ASSIGN   3285--ASSIGN   6856<<ASSIGN   6861<<ASSIGN   6864<<ASSIGN
      6871<<ASSIGN   6872<<CALLBLT  6888<<ASSIGN   6892<<ASSIGN   6951<<ASSIGN   6954<<ASSIGN   6957<<ASSIGN
      6960<<ASSIGN
VD$BUFFER.FLINK$
      2670**DCL      3147>>IF       3253>>IF       3257>>ASSIGN
VD$BUFFER.LENGTH#
      2670**DCL      2672--IMP-SIZ  3059>>IF       3063>>ASSIGN   3088>>ASSIGN   3097>>CALL     3107>>ASSIGN
      3112>>ASSIGN   3114>>ASSIGN   3125>>ASSIGN   3130>>ASSIGN   3137>>ASSIGN   3151>>ASSIGN   3157>>ASSIGN
      3167>>ASSIGN   3171>>ASSIGN   3191>>IF       3209>>CALL     3216>>CALL     3223>>CALL     3231>>CALL
      3234>>CALL     3242>>ASSIGN   3242>>ASSIGN   3242>>ASSIGN   3246>>ASSIGN   3250>>ASSIGN   3255>>IF
      3259>>ASSIGN   3273>>ASSIGN   3285>>ASSIGN   3286>>IF       6852>>ASSIGN   6856>>ASSIGN   6861>>ASSIGN
      6864>>ASSIGN   6871>>ASSIGN   6872>>CALLBLT  6888>>ASSIGN   6892>>ASSIGN   6951>>ASSIGN   6954>>ASSIGN
      6957>>ASSIGN   6960>>ASSIGN
VD$BUFFER.OBJECT.CLASS#
      2668**DCL      3180>>ASSIGN
PL6.E3A0      #002=VDP$WFORMAT_RECORD File=VDP$WINDOW_I_O.:VDA5TSI               FRI 07/04/97 11:39 Page:86
VD$BUFFER_HEADER
      2685**DCL      3079--CALL     3207--ASSIGN   6851--ASSIGN
VD$KEY
      2721**DCL      3216<>CALL
VD$NAME_SPEC.DATA_TYPE#
      2770**DCL      3093>>IF       3185>>DOCASE
VD$NUMBER.V#
      2817**DCL      3234<>CALL
VD$POINTER.V$
      2862**DCL      3205>>ASSIGN   3216>>CALL
VD$TEXTC.BYTES
      2883**DCL      3057>>ASSIGN
VD$TEXTC.LENGTH#
      2881**DCL      2883--IMP-SIZ  3056>>ASSIGN   3057>>ASSIGN   6849>>ASSIGN
VD$TEXTC_REMOTE.BYTES
      2944**DCL      3057<<ASSIGN
VD$TEXTC_REMOTE.LENGTH#
      2942**DCL      2944--IMP-SIZ  3044--ASSIGN   3056<<ASSIGN   3057>>ASSIGN
VDG$FORMAT_BLOCK_DESC
      3030**DCL-ENT  3209--CALL
VDG$FORMAT_KEY
      3031**DCL-ENT  3097--CALL     3216--CALL
VDG$FORMAT_NUMBER
      3032**DCL-ENT  3234--CALL
VDG$FORMAT_WINDOW_SPEC
      3033**DCL-ENT  3223--CALL
VDG$MONERR
      3034**DCL-ENT  3302--CALL
VDG$OALLOC
      3035**DCL-ENT  3079--CALL
VDP_KEY$
      2469**DCL      3056>>ASSIGN   3057>>ASSIGN   3057>>ASSIGN
VDP_KEY_AND_BUFFER$
      2470**DCL      3075>>IF       3079<>CALL     3088>>ASSIGN   3088>>ASSIGN   3092>>ASSIGN
VLP_PROMPT_DOT
       138**DCL      3271--ASSIGN
PL6.E3A0      #002=VDP$WFORMAT_RECORD File=VDP$WINDOW_I_O.:VDA5TSI               FRI 07/04/97 11:39 Page:87
WINDOW$SPEC
      2957**DCL      3223<>CALL
WRITE_FAILED
      3297**LABEL    3256--CALLALT  3293--CALLALT

